PL6.E3A0      #006=CREATE_PAREC File=ZIU$COMPACT.:ZIC0TSI                        FRI 09/05/97 13:11 Page:370
     1939        1        /*T***********************************************************/
     1940        2        /*T*                                                         */
     1941        3        /*T* Copyright (c) Bull HN Information Systems Inc., 1997    */
     1942        4        /*T*                                                         */
     1943        5        /*T***********************************************************/
     1944        6
     1945        7
     1946        8        /*
     1947        9              EXTERNAL SUB  CREATE_PAREC
     1948       10              INPUT:  LEVEL#   AND  THE TABLE  CURR_LEVEL
     1949       11                      IF LEVEL#=0 THEN WE ARE CREATING A PA_REC OF
     1950       12                      HIGHEST LEVEL, OTHERWISE A PA_REC IN LOWER LEVEL
     1951       13              UPON RETURN, CURR_LEVEL.DBK AND CURR_LEVEL.FIRST_PA WILL BE SETUP
     1952       14              SC_PTR - WILL GIVE INFO ABOUT THE SIZE,TYPE OF THE PA
     1953       15        */
     1954       16        CREATE_PAREC: PROC NOAUTO;
     1955       17
     1956       18    1   DCL LEVEL# SBIN SYMREF ALIGNED;
     1957       19    1   DCL NO_OF_LEVELS SBIN SYMREF ALIGNED;
     1958       20    1   DCL 1 CURR_LEVEL(0:31) SYMREF ALIGNED,
     1959       21    1         2 DBK UBIN WORD ALIGNED,
     1960       22    1         2 FIRST_PA UBIN ALIGNED,
     1961       23    1         2 ENT_NO UBIN HALF UNAL,
     1962       24    1         2 DUPIND BIT(1) UNAL,
     1963       25    1         2 BUF_PTR UBIN(8) UNAL,
     1964       26    1         2 * UBIN BYTE UNAL,
     1965       27    1         2 REC$ PTR ALIGNED;
     1966       28    1   DCL POOL_MAX SBIN WORD SYMREF ALIGNED;
     1967       29    1   DCL SWAP_PTR SBIN WORD SYMREF ALIGNED;
     1968       30    1   DCL 1 POOL(0:95) SYMREF ALIGNED,
     1969       31    1         2 MUST_WRITE BIT(1) UNAL,
     1970       32    1         2 LOCKS UBIN(9) UNAL,
     1971       33    1         2 PAGE# UBIN(26) UNAL;
     1972       34    1   DCL CURR_OWNER SBIN SYMREF ALIGNED;
     1973       35    1   DCL BUF_PTR UBIN SYMREF ALIGNED;
     1974       36    1   DCL COMMAND_TEXT CHAR(9) SYMREF ALIGNED;
     1975       37    1   DCL BREAK_CLEANUP BIT(72) SYMREF ALIGNED;
PL6.E3A0      #006=CREATE_PAREC File=ZIU$COMPACT.:ZIC0TSI                        FRI 09/05/97 13:11 Page:371
     1976       38
     1977       39    1   DCL BASE_PAGE SBIN STATIC ALIGNED;
     1978       40    1   DCL START_PAGE SBIN STATIC ALIGNED;
     1979       41    1   DCL Y SBIN STATIC ALIGNED;
     1980       42    1   DCL SPACE_NEEDED SBIN STATIC ALIGNED;
     1981       43    1   DCL 1 CHAR_V BASED(REC$) CALIGNED,
     1982       44    1         2 * CHAR(16) UNAL; /* ONLY INIT FIRST 16 BYTES OF NEW PA REC */
     1983       45
     1984       46    1   DCL FIND_DIRECT ENTRY(2);
     1985       47    1   DCL ERROR_MSG ENTRY(4);
     1986       48
     1987       49        %INCLUDE ZI_GLOBAL_DBUTIL;
     1988      227         %SYS_FUNC;
     1989      319         %MISC_DCLS;
     1990      372         %PAREC(STCLASS=SYMREF);
     1991      399        %INCLUDE ZI_DBU_XREF;
     1992      566         %PA_XREF_TBLS;
     1993      632        %INCLUDE ZI$PG_STRUCTS;
     1994      735         %DATA_PG;
     1995      754        %INCLUDE ZI_ERRORS_SUBS;
     1996     1274
     1997     1275        %EQU DONT_LOCK = 0;
     1998     1276        %EQU DONT_ERROR=-1;
     1999     1277
     2000     1278        %EJECT;
PL6.E3A0      #006=CREATE_PAREC File=ZIU$COMPACT.:ZIC0TSI                        FRI 09/05/97 13:11 Page:372
     2001     1279    1       IF LEVEL#=0 THEN /* IF CREATING HIGHEST LEVEL OF PA */
     2002     1280    1           CALL FIND_DIRECT(CURR_OWNER,%DONT_LOCK); /* USE OWNER AS BASE */
     2003     1281    1       ELSE
     2004     1282    1           CALL FIND_DIRECT(CURR_LEVEL.DBK(LEVEL#),%DONT_LOCK);
     2005     1283         /* USE PRIOR IN LEVEL */
     2006     1284    1       BASE_PAGE=DATA_PG.CON_INTRVAL; /* TRY TO FIND SPACE */
     2007     1285    1       START_PAGE = BASE_PAGE; /* FOR THIS NEW PA */
     2008     1286    1       SPACE_NEEDED=SC_TBL.PA_RECSIZE(SC_PTR); /* SPACE REQUIRED */
     2009     1287        /*
     2010     1288                Do until we find a page it will fit on.  This consists
     2011     1289                of making sure there is enough room on the page for the
     2012     1290                record, that there is a line number available on the page
     2013     1291                and that if we are on the last page the line number
     2014     1292                available is less than the max for the area.
     2015     1293        */
     2016     1294    2       DO WHILE(DATA_PG.PG_SZ.SEC<SPACE_NEEDED+2 OR /* +2 offset array entry */
     2017     1295    2          (DATA_PG.OFF_LN.FIR=0 AND DATA_PG.OFFSET(2035)<131072 AND
     2018     1296    2          (DATA_PG.OFF_LN.SEC+1>=AC_TBL.LPP(AC_PTR) OR
     2019     1297    2          (BASE_PAGE=AC_TBL.NUM_DBPG(AC_PTR) AND
     2020     1298    2          DATA_PG.OFF_LN.SEC+1>=AC_TBL.LNLP(AC_PTR)))));
     2021     1299    2           BASE_PAGE=MOD(BASE_PAGE,AC_TBL.NUM_DBPG(AC_PTR))+1;
     2022     1300    2           IF BASE_PAGE=START_PAGE THEN /* ALL PAGES CHECKED NO SPACE */
     2023     1301    3           DO;
     2024     1302    3               CALL ERROR_MSG(DBU#PANOSPS,AC_TBL.NAME(AC_PTR)
     2025     1303    3                  ,SC_TBL.NAME(SC_PTR)
     2026     1304    3                  ,COMMAND_TEXT);
     2027     1305    3               UNWIND TO BREAK_CLEANUP; /* ABORT JOB */
     2028     1306    3               END;
     2029     1307    2           CALL FIND_DIRECT(BASE_PAGE*AC_TBL.LPP(AC_PTR)+
     2030     1308    2              AC_TBL.BASE_DBK(AC_PTR),%DONT_ERROR);
     2031     1309    2           END; /* FOUND A PAGE WITH SPACE AND DBKEY AVAILABLE */
     2032     1310
     2033     1311    1       RE=4084-(DATA_PG.PG_SZ.SEC+DATA_PG.OFF_LN.SEC*2+2);
     2034     1312         /* OFFSET FOR NEW PA */
     2035     1313    1       Y=DATA_PG.OFF_LN.FIR; /* FIRST AVAIL LINE */
     2036     1314    1       IF Y=0 AND DATA_PG.OFFSET(2035)<131072 THEN /* MAKE A NEW OFF_ARRAY */
     2037     1315    2       DO;
PL6.E3A0      #006=CREATE_PAREC File=ZIU$COMPACT.:ZIC0TSI                        FRI 09/05/97 13:11 Page:373
     2038     1316    2           DATA_PG.PG_SZ.SEC=DATA_PG.PG_SZ.SEC-SPACE_NEEDED-2;
     2039     1317    2           Y=DATA_PG.OFF_LN.SEC+1; /* CURRENT HIGH LINE + 1 */
     2040     1318    2           DATA_PG.OFF_LN.SEC=Y; /* UPDATE CURRENT HIGH LINE */
     2041     1319    2           END;
     2042     1320    1       ELSE
     2043     1321    2       DO; /* FIND A AVAILABLE LINE */
     2044     1322    2           DATA_PG.PG_SZ.SEC=DATA_PG.PG_SZ.SEC-SPACE_NEEDED;
     2045     1323    2           DATA_PG.OFF_LN.FIR=DATA_PG.OFFSET(2035-Y)-131072;
     2046     1324    2           END;
     2047     1325
     2048     1326         /* Y IS THE LINE# AND RE IS THE OFFSET VALUE */
     2049     1327    1       DATA_PG.OFFSET(2035-Y) = RE;
     2050     1328    1       REC$ = PINCRC(DATA$,RE+12);
     2051     1329    1       REC$ -> CHAR_V = '0'B; /* INIT THE RECORD IN CASE GARBAGE THER */
     2052     1330    1       CURR_LEVEL.DBK(LEVEL#)=(BASE_PAGE-1)*AC_TBL.LPP(AC_PTR)+
     2053     1331    1          AC_TBL.BASE_DBK(AC_PTR)+Y+1;
     2054     1332    1       CURR_LEVEL.REC$(LEVEL#)=REC$;
     2055     1333    1       CURR_LEVEL.BUF_PTR(LEVEL#)=BUF_PTR;
     2056     1334    1       POOL.MUST_WRITE(BUF_PTR)='1'B; /* SET PAGE MUST WRITE */
     2057     1335    1       POOL.LOCKS(BUF_PTR)=POOL.LOCKS(BUF_PTR)+1;
     2058     1336    1       PA_REC.TYPE=SC_TBL.PA_TYPE(SC_PTR);
     2059     1337    1       PA_REC.SIZE=SPACE_NEEDED; /* SET UP PA_REC HEADER */
     2060     1338    1       IF LEVEL#<NO_OF_LEVELS THEN
     2061     1339    1           PA_REC.NOT_LOWEST_LEVEL = '1'B;
     2062     1340    1       SC_TBL.COUNT(SC_PTR)=SC_TBL.COUNT(SC_PTR)-1;
     2063     1341        /*E* ERROR: ZIU-DBU#PANOSPS-C
     2064     1342        MESSAGE: Error: Ran out of space in area "%U1" when creating
     2065     1343                        a new *PA_REC_%U2. %U3 aborted. */
     2066     1344    1   END CREATE_PAREC;
     2067     1345        %EOD;

PL6.E3A0      #006=CREATE_PAREC File=ZIU$COMPACT.:ZIC0TSI                        FRI 09/05/97 13:11 Page:374
--  Include file information  --

   ZI_ERRORS_SUBS.:ZIC0TOU  is referenced.
   ZI$PG_STRUCTS.:ZIC0TOU  is referenced.
   ZI_DBU_XREF.:ZIC0TOU  cannot be made into a system file and is referenced.
   ZI_GLOBAL_DBUTIL.:ZIC0TOU  is referenced.
   B$JIT_C.:E05TOU  was found in the system file and is never referenced.
   CP_6_C.:E05TOU  was found in the system file and is never referenced.
      No diagnostics issued in procedure CREATE_PAREC.

   Procedure CREATE_PAREC requires 260 words for executable code.
   Procedure CREATE_PAREC is declared NOAUTO and requires 10 words of local(STATIC) storage.

PL6.E3A0      #006=CREATE_PAREC File=ZIU$COMPACT.:ZIC0TSI                        FRI 09/05/97 13:11 Page:375

 Object Unit name= CREATE_PAREC                               File name= ZIU$COMPACT.:ZIC0TOU
 UTS= SEP 05 '97 13:11:18.28 FRI                              Compiler= PL-6/E31         Sev=      00
 SharedLib= :SHARED_SYSTEM                                    Alt SharedLib=


    ****  Control sections  ****

 Sect   Type Bound  Init  Size OctSiz  Section name(segment info)
    0   Data  even  none    10     12  CREATE_PAREC
    1   DCB   even  none     0      0  M$LO
    2   Proc  even  none   260    404  CREATE_PAREC
    3  RoData even  none    16     20  CREATE_PAREC

    ****  Entry defs  ****

                              Check   Calling
                             calling  sequence
  Sect OctLoc Primary Altret sequence   type   Parms  Name
     2      0   yes            yes      Std        0  CREATE_PAREC

  ****  Entry refs  ****

         Check        Calling
        calling       sequence
Altret sequence SRef   type   Args  Name
         yes           Std       2 FIND_DIRECT
         yes           Std       4 ERROR_MSG
                       nStd      0 X66_SUNWIND
PL6.E3A0      #006=CREATE_PAREC File=ZIU$COMPACT.:ZIC0TSI                        FRI 09/05/97 13:11 Page:376

  ****  Data refs  ****

  Flags:  r = read only, s = secondary
Flgs Name                             Flgs Name                             Flgs Name
     LEVEL#                                NO_OF_LEVELS                          CURR_LEVEL
     POOL_MAX                              SWAP_PTR                              POOL
     CURR_OWNER                            BUF_PTR                               COMMAND_TEXT
     BREAK_CLEANUP                         BLKLSF                                KEYLSF
     KEYXSF                                DCBSF                                 ORGSF
     KEYSF                                 KEYVSF                                ACSSF
     NOTIMESF                              FUNSF                                 ASNSF
     TESTSF                                XTENSIZESF                            DISPSF
     WAITSF                                VFCSF                                 FULLSF
     BKUPSF                                BUFLNSF                               BUFSF
     SOURCESF                              DESTSF                                DATESF
     TIMESF                                UTSSF                                 DAYSF
     TSTAMPSF                              ENCRP_SEEDSF                          ERRCODESF
     MSGCODE                               INCL_ERR                              ERR_INSERT
     FIDSF_RD                              ACNT                                  EXISTSF
     SHARESF                               DCBNMSF                               KEYRSF
     NO_KEYSF                              REASGNSF                              CARRY_ATTRIBUTESF
     SUBMESSF                              SPKY_OPNSF                            POSSF
     ERRFLGSF                              MERGESF                               FSA_FLAG
     RELGSF                                UNUSED                                HELPCODE
     COUNTSF                               INDEXSF                               GAP
     PSNSF                                 ACNTSF                                KEY_SHADWSF
     REC$                                  RB                                    RE
     IE                                    IB                                    CNT
     ICNT                                  RCNT                                  SCNT
     FIRST_SET                             RETCNT                                DMPCNT
     KCNT                                  ACNT_IDX                              I
     J                                     K                                     X
     STEPCC                                I_O_BUF$                              OUT_INDX
     I_O_SIZE                              REC_DATA_LN                           M$LO
     B$TCB$                                B$ROS$                                B$JIT$
     KEYFID                                I_O_KEY                               RESTART
     BREAK_FLAG                            ICHKSUM                               ITMCNT
PL6.E3A0      #006=CREATE_PAREC File=ZIU$COMPACT.:ZIC0TSI                        FRI 09/05/97 13:11 Page:377
     GAP1                                  ENTRY$                                GROUP$
     PTR_LEN                               KEY_LEN                               TYPE
     SC_PTR                                SC_TBL                                RC_PTR
     RC_TBL                                KEY_PTR                               KEY_TBL
     AC_PTR                                FIRST_TIME_CALLED                     BASE_DBK
     AC_TBL                                DATA$

  ****  Segment refs  ****

  Flags:  r = read only, s = secondary
Flgs Name                             Flgs Name                             Flgs Name
     ISSID
PL6.E3A0      #006=CREATE_PAREC File=ZIU$COMPACT.:ZIC0TSI                        FRI 09/05/97 13:11 Page:378


     1939        1        /*T***********************************************************/
     1940        2        /*T*                                                         */
     1941        3        /*T* Copyright (c) Bull HN Information Systems Inc., 1997    */
     1942        4        /*T*                                                         */
     1943        5        /*T***********************************************************/
     1944        6
     1945        7
     1946        8        /*
     1947        9              EXTERNAL SUB  CREATE_PAREC
     1948       10              INPUT:  LEVEL#   AND  THE TABLE  CURR_LEVEL
     1949       11                      IF LEVEL#=0 THEN WE ARE CREATING A PA_REC OF
     1950       12                      HIGHEST LEVEL, OTHERWISE A PA_REC IN LOWER LEVEL
     1951       13              UPON RETURN, CURR_LEVEL.DBK AND CURR_LEVEL.FIRST_PA WILL BE SETUP
     1952       14              SC_PTR - WILL GIVE INFO ABOUT THE SIZE,TYPE OF THE PA
     1953       15        */
     1954       16        CREATE_PAREC: PROC NOAUTO;

     16  2 000000   000000 741200 0     CREATE_PAREC STX1  ! 0

     1955       17
     1956       18    1   DCL LEVEL# SBIN SYMREF ALIGNED;
     1957       19    1   DCL NO_OF_LEVELS SBIN SYMREF ALIGNED;
     1958       20    1   DCL 1 CURR_LEVEL(0:31) SYMREF ALIGNED,
     1959       21    1         2 DBK UBIN WORD ALIGNED,
     1960       22    1         2 FIRST_PA UBIN ALIGNED,
     1961       23    1         2 ENT_NO UBIN HALF UNAL,
     1962       24    1         2 DUPIND BIT(1) UNAL,
     1963       25    1         2 BUF_PTR UBIN(8) UNAL,
     1964       26    1         2 * UBIN BYTE UNAL,
     1965       27    1         2 REC$ PTR ALIGNED;
     1966       28    1   DCL POOL_MAX SBIN WORD SYMREF ALIGNED;
     1967       29    1   DCL SWAP_PTR SBIN WORD SYMREF ALIGNED;
     1968       30    1   DCL 1 POOL(0:95) SYMREF ALIGNED,
     1969       31    1         2 MUST_WRITE BIT(1) UNAL,
     1970       32    1         2 LOCKS UBIN(9) UNAL,
     1971       33    1         2 PAGE# UBIN(26) UNAL;
PL6.E3A0      #006=CREATE_PAREC File=ZIU$COMPACT.:ZIC0TSI                        FRI 09/05/97 13:11 Page:379
     1972       34    1   DCL CURR_OWNER SBIN SYMREF ALIGNED;
     1973       35    1   DCL BUF_PTR UBIN SYMREF ALIGNED;
     1974       36    1   DCL COMMAND_TEXT CHAR(9) SYMREF ALIGNED;
     1975       37    1   DCL BREAK_CLEANUP BIT(72) SYMREF ALIGNED;
     1976       38
     1977       39    1   DCL BASE_PAGE SBIN STATIC ALIGNED;
     1978       40    1   DCL START_PAGE SBIN STATIC ALIGNED;
     1979       41    1   DCL Y SBIN STATIC ALIGNED;
     1980       42    1   DCL SPACE_NEEDED SBIN STATIC ALIGNED;
     1981       43    1   DCL 1 CHAR_V BASED(REC$) CALIGNED,
     1982       44    1         2 * CHAR(16) UNAL; /* ONLY INIT FIRST 16 BYTES OF NEW PA REC */
     1983       45
     1984       46    1   DCL FIND_DIRECT ENTRY(2);
     1985       47    1   DCL ERROR_MSG ENTRY(4);
     1986       48
     1987       49        %INCLUDE ZI_GLOBAL_DBUTIL;
     1988      227         %SYS_FUNC;
     1989      319         %MISC_DCLS;
     1990      372         %PAREC(STCLASS=SYMREF);
     1991      399        %INCLUDE ZI_DBU_XREF;
     1992      566         %PA_XREF_TBLS;
     1993      632        %INCLUDE ZI$PG_STRUCTS;
     1994      735         %DATA_PG;
     1995      754        %INCLUDE ZI_ERRORS_SUBS;
     1996     1274
     1997     1275        %EQU DONT_LOCK = 0;
     1998     1276        %EQU DONT_ERROR=-1;
     1999     1277
     2000     1278        %EJECT;
PL6.E3A0      #006=CREATE_PAREC File=ZIU$COMPACT.:ZIC0TSI                        FRI 09/05/97 13:11 Page:380
     2001     1279    1       IF LEVEL#=0 THEN /* IF CREATING HIGHEST LEVEL OF PA */

   1279  2 000001   000000 235000 xsym               LDA     LEVEL#
         2 000002   000010 601000 2                  TNZ     s:1282

     2002     1280    1           CALL FIND_DIRECT(CURR_OWNER,%DONT_LOCK); /* USE OWNER AS BASE */

   1280  2 000003   000002 630400 3                  EPPR0   2
         2 000004   000000 631400 3                  EPPR1   0
         2 000005   000000 701000 xent               TSX1    FIND_DIRECT
         2 000006   000000 011000                    NOP     0
         2 000007   000022 710000 2                  TRA     s:1284

     2003     1281    1       ELSE
     2004     1282    1           CALL FIND_DIRECT(CURR_LEVEL.DBK(LEVEL#),%DONT_LOCK);

   1282  2 000010   000003 236000 3                  LDQ     3
         2 000011   000007 756000 0                  STQ     SPACE_NEEDED+3
         2 000012   000000 236000 xsym               LDQ     LEVEL#
         2 000013   000024 736000                    QLS     20
         2 000014   000004 036000 3                  ADLQ    4
         2 000015   000006 756000 0                  STQ     SPACE_NEEDED+2
         2 000016   000006 630400 0                  EPPR0   SPACE_NEEDED+2
         2 000017   000000 631400 3                  EPPR1   0
         2 000020   000000 701000 xent               TSX1    FIND_DIRECT
         2 000021   000000 011000                    NOP     0

     2005     1283         /* USE PRIOR IN LEVEL */
     2006     1284    1       BASE_PAGE=DATA_PG.CON_INTRVAL; /* TRY TO FIND SPACE */

   1284  2 000022   000000 470400 xsym               LDP0    DATA$
         2 000023   000004 235100                    LDA     4,,PR0
         2 000024   000001 755000 0                  STA     BASE_PAGE

     2007     1285    1       START_PAGE = BASE_PAGE; /* FOR THIS NEW PA */

   1285  2 000025   000002 755000 0                  STA     START_PAGE
PL6.E3A0      #006=CREATE_PAREC File=ZIU$COMPACT.:ZIC0TSI                        FRI 09/05/97 13:11 Page:381

     2008     1286    1       SPACE_NEEDED=SC_TBL.PA_RECSIZE(SC_PTR); /* SPACE REQUIRED */

   1286  2 000026   000000 236000 xsym               LDQ     SC_PTR
         2 000027   000405 402007                    MPY     261,DL
         2 000030   000000 116003                    CMPQ    0,DU
         2 000031   000033 605000 2                  TPL     s:1286+5
         2 000032   000044 036003                    ADLQ    36,DU
         2 000033   003000 061406                    CSR     bolr='003'O
         2 000034   000004 500022 xsym               BDSC    SC_TBL+4,Q               by=2,bit=8,n=18
         2 000035   000004 000044 0                  BDSC    SPACE_NEEDED             by=0,bit=0,n=36

     2009     1287        /*
     2010     1288                Do until we find a page it will fit on.  This consists
     2011     1289                of making sure there is enough room on the page for the
     2012     1290                record, that there is a line number available on the page
     2013     1291                and that if we are on the last page the line number
     2014     1292                available is less than the max for the area.
     2015     1293        */
     2016     1294    2       DO WHILE(DATA_PG.PG_SZ.SEC<SPACE_NEEDED+2 OR /* +2 offset array entry */

   1294  2 000036   000124 710000 2                  TRA     s:1309

     2017     1295    2          (DATA_PG.OFF_LN.FIR=0 AND DATA_PG.OFFSET(2035)<131072 AND
     2018     1296    2          (DATA_PG.OFF_LN.SEC+1>=AC_TBL.LPP(AC_PTR) OR
     2019     1297    2          (BASE_PAGE=AC_TBL.NUM_DBPG(AC_PTR) AND
     2020     1298    2          DATA_PG.OFF_LN.SEC+1>=AC_TBL.LNLP(AC_PTR)))));
     2021     1299    2           BASE_PAGE=MOD(BASE_PAGE,AC_TBL.NUM_DBPG(AC_PTR))+1;

   1299  2 000037   000000 236000 xsym               LDQ     AC_PTR
         2 000040   000014 402007                    MPY     12,DL
         2 000041   000003 236006 xsym               LDQ     AC_TBL+3,QL
         2 000042   000022 772000                    QRL     18
         2 000043   000006 756000 0                  STQ     SPACE_NEEDED+2
         2 000044   000001 236000 0                  LDQ     BASE_PAGE
         2 000045   000006 506000 0                  DIV     SPACE_NEEDED+2
         2 000046   000001 035007                    ADLA    1,DL
PL6.E3A0      #006=CREATE_PAREC File=ZIU$COMPACT.:ZIC0TSI                        FRI 09/05/97 13:11 Page:382
         2 000047   000001 755000 0                  STA     BASE_PAGE

     2022     1300    2           IF BASE_PAGE=START_PAGE THEN /* ALL PAGES CHECKED NO SPACE */

   1300  2 000050   000001 236000 0                  LDQ     BASE_PAGE
         2 000051   000002 116000 0                  CMPQ    START_PAGE
         2 000052   000100 601000 2                  TNZ     s:1307

     2023     1301    3           DO;

     2024     1302    3               CALL ERROR_MSG(DBU#PANOSPS,AC_TBL.NAME(AC_PTR)

   1302  2 000053   000007 236000 3                  LDQ     7
         2 000054   000011 756000 0                  STQ     SPACE_NEEDED+5
         2 000055   000000 236000 xsym               LDQ     SC_PTR
         2 000056   000011 402000 3                  MPY     9
         2 000057   000010 036000 3                  ADLQ    8
         2 000060   000010 756000 0                  STQ     SPACE_NEEDED+4
         2 000061   000000 236000 xsym               LDQ     AC_PTR
         2 000062   000014 402003                    MPY     12,DU
         2 000063   000012 036000 3                  ADLQ    10
         2 000064   000013 235000 3                  LDA     11
         2 000065   000006 757000 0                  STAQ    SPACE_NEEDED+2
         2 000066   000006 630400 0                  EPPR0   SPACE_NEEDED+2
         2 000067   000005 631400 3                  EPPR1   5
         2 000070   000000 701000 xent               TSX1    ERROR_MSG
         2 000071   000000 011000                    NOP     0

     2025     1303    3                  ,SC_TBL.NAME(SC_PTR)
     2026     1304    3                  ,COMMAND_TEXT);
     2027     1305    3               UNWIND TO BREAK_CLEANUP; /* ABORT JOB */

   1305  2 000072   000000 100600                    MLR   ! fill='000'O
         2 000073   000000 000010 xsym               ADSC9   BREAK_CLEANUP            cn=0,n=8
         2 000074   000006 000010 0                  ADSC9   SPACE_NEEDED+2           cn=0,n=8
         2 000075   000006 237200 0                  LDAQ  ! SPACE_NEEDED+2
         2 000076   000000 700200 xent               TSX0  ! X66_SUNWIND
PL6.E3A0      #006=CREATE_PAREC File=ZIU$COMPACT.:ZIC0TSI                        FRI 09/05/97 13:11 Page:383
         2 000077   000000 000200                    ZERO    0,128

     2028     1306    3               END;
     2029     1307    2           CALL FIND_DIRECT(BASE_PAGE*AC_TBL.LPP(AC_PTR)+

   1307  2 000100   000000 236000 xsym               LDQ     AC_PTR
         2 000101   000014 402007                    MPY     12,DL
         2 000102   000013 236006 xsym               LDQ     AC_TBL+11,QL
         2 000103   000032 772000                    QRL     26
         2 000104   000001 402000 0                  MPY     BASE_PAGE
         2 000105   000006 756000 0                  STQ     SPACE_NEEDED+2
         2 000106   000000 236000 xsym               LDQ     AC_PTR
         2 000107   000014 402007                    MPY     12,DL
         2 000110   000000 620006                    EAX0    0,QL
         2 000111   000006 236000 0                  LDQ     SPACE_NEEDED+2
         2 000112   000000 036010 xsym               ADLQ    AC_TBL,X0
         2 000113   000007 756000 0                  STQ     SPACE_NEEDED+3
         2 000114   000015 236000 3                  LDQ     13
         2 000115   000011 756000 0                  STQ     SPACE_NEEDED+5
         2 000116   000007 630400 0                  EPPR0   SPACE_NEEDED+3
         2 000117   000010 450400 0                  STP0    SPACE_NEEDED+4
         2 000120   000010 630400 0                  EPPR0   SPACE_NEEDED+4
         2 000121   000000 631400 3                  EPPR1   0
         2 000122   000000 701000 xent               TSX1    FIND_DIRECT
         2 000123   000000 011000                    NOP     0

     2030     1308    2              AC_TBL.BASE_DBK(AC_PTR),%DONT_ERROR);
     2031     1309    2           END; /* FOUND A PAGE WITH SPACE AND DBKEY AVAILABLE */

   1309  2 000124   000004 235000 0                  LDA     SPACE_NEEDED
         2 000125   000002 035007                    ADLA    2,DL
         2 000126   000006 755000 0                  STA     SPACE_NEEDED+2
         2 000127   000000 470400 xsym               LDP0    DATA$
         2 000130   000003 236100                    LDQ     3,,PR0
         2 000131   777777 376007                    ANQ     -1,DL
         2 000132   000006 116000 0                  CMPQ    SPACE_NEEDED+2
         2 000133   000037 604000 2                  TMI     s:1299
PL6.E3A0      #006=CREATE_PAREC File=ZIU$COMPACT.:ZIC0TSI                        FRI 09/05/97 13:11 Page:384
         2 000134   000005 220100                    LDX0    5,,PR0
         2 000135   000174 601000 2                  TNZ     s:1311
         2 000136   001777 721100                    LXL1    1023,,PR0
         2 000137   400000 101003                    CMPX1   -131072,DU
         2 000140   000174 603000 2                  TRC     s:1311
         2 000141   000000 236000 xsym               LDQ     AC_PTR
         2 000142   000014 402007                    MPY     12,DL
         2 000143   000013 236006 xsym               LDQ     AC_TBL+11,QL
         2 000144   000032 772000                    QRL     26
         2 000145   000007 756000 0                  STQ     SPACE_NEEDED+3
         2 000146   000005 236100                    LDQ     5,,PR0
         2 000147   777777 376007                    ANQ     -1,DL
         2 000150   000001 036007                    ADLQ    1,DL
         2 000151   000007 116000 0                  CMPQ    SPACE_NEEDED+3
         2 000152   000037 605000 2                  TPL     s:1299
         2 000153   000000 236000 xsym               LDQ     AC_PTR
         2 000154   000014 402007                    MPY     12,DL
         2 000155   000003 236006 xsym               LDQ     AC_TBL+3,QL
         2 000156   000022 772000                    QRL     18
         2 000157   000001 116000 0                  CMPQ    BASE_PAGE
         2 000160   000174 601000 2                  TNZ     s:1311
         2 000161   000000 236000 xsym               LDQ     AC_PTR
         2 000162   000014 402007                    MPY     12,DL
         2 000163   000013 236006 xsym               LDQ     AC_TBL+11,QL
         2 000164   000011 772000                    QRL     9
         2 000165   001777 376007                    ANQ     1023,DL
         2 000166   000010 756000 0                  STQ     SPACE_NEEDED+4
         2 000167   000005 236100                    LDQ     5,,PR0
         2 000170   777777 376007                    ANQ     -1,DL
         2 000171   000001 036007                    ADLQ    1,DL
         2 000172   000010 116000 0                  CMPQ    SPACE_NEEDED+4
         2 000173   000037 605000 2                  TPL     s:1299

     2032     1310
     2033     1311    1       RE=4084-(DATA_PG.PG_SZ.SEC+DATA_PG.OFF_LN.SEC*2+2);

   1311  2 000174   000003 236100                    LDQ     3,,PR0
PL6.E3A0      #006=CREATE_PAREC File=ZIU$COMPACT.:ZIC0TSI                        FRI 09/05/97 13:11 Page:385
         2 000175   777777 376007                    ANQ     -1,DL
         2 000176   000006 756000 0                  STQ     SPACE_NEEDED+2
         2 000177   000005 236100                    LDQ     5,,PR0
         2 000200   000001 736000                    QLS     1
         2 000201   000016 376000 3                  ANQ     14
         2 000202   000006 036000 0                  ADLQ    SPACE_NEEDED+2
         2 000203   000014 676000 3                  ERQ     12
         2 000204   007763 036007                    ADLQ    4083,DL
         2 000205   000000 756000 xsym               STQ     RE

     2034     1312         /* OFFSET FOR NEW PA */
     2035     1313    1       Y=DATA_PG.OFF_LN.FIR; /* FIRST AVAIL LINE */

   1313  2 000206   000005 236100                    LDQ     5,,PR0
         2 000207   000022 772000                    QRL     18
         2 000210   000003 756000 0                  STQ     Y

     2036     1314    1       IF Y=0 AND DATA_PG.OFFSET(2035)<131072 THEN /* MAKE A NEW OFF_ARRAY */

   1314  2 000211   000231 601000 2                  TNZ     s:1322
         2 000212   001777 720100                    LXL0    1023,,PR0
         2 000213   400000 100003                    CMPX0   -131072,DU
         2 000214   000231 603000 2                  TRC     s:1322

     2037     1315    2       DO;

     2038     1316    2           DATA_PG.PG_SZ.SEC=DATA_PG.PG_SZ.SEC-SPACE_NEEDED-2;

   1316  2 000215   000003 236100                    LDQ     3,,PR0
         2 000216   777777 376007                    ANQ     -1,DL
         2 000217   000004 136000 0                  SBLQ    SPACE_NEEDED
         2 000220   777776 621006                    EAX1    -2,QL
         2 000221   000003 441100                    SXL1    3,,PR0

     2039     1317    2           Y=DATA_PG.OFF_LN.SEC+1; /* CURRENT HIGH LINE + 1 */

   1317  2 000222   000005 236100                    LDQ     5,,PR0
PL6.E3A0      #006=CREATE_PAREC File=ZIU$COMPACT.:ZIC0TSI                        FRI 09/05/97 13:11 Page:386
         2 000223   777777 376007                    ANQ     -1,DL
         2 000224   000001 036007                    ADLQ    1,DL
         2 000225   000003 756000 0                  STQ     Y

     2040     1318    2           DATA_PG.OFF_LN.SEC=Y; /* UPDATE CURRENT HIGH LINE */

   1318  2 000226   000000 622006                    EAX2    0,QL
         2 000227   000005 442100                    SXL2    5,,PR0

     2041     1319    2           END;

   1319  2 000230   000246 710000 2                  TRA     s:1327

     2042     1320    1       ELSE
     2043     1321    2       DO; /* FIND A AVAILABLE LINE */

     2044     1322    2           DATA_PG.PG_SZ.SEC=DATA_PG.PG_SZ.SEC-SPACE_NEEDED;

   1322  2 000231   000003 236100                    LDQ     3,,PR0
         2 000232   777777 376007                    ANQ     -1,DL
         2 000233   000004 136000 0                  SBLQ    SPACE_NEEDED
         2 000234   000000 620006                    EAX0    0,QL
         2 000235   000003 440100                    SXL0    3,,PR0

     2045     1323    2           DATA_PG.OFF_LN.FIR=DATA_PG.OFFSET(2035-Y)-131072;

   1323  2 000236   000003 335000 0                  LCA     Y
         2 000237   000001 735000                    ALS     1
         2 000240   000000 100505                    MLR     fill='000'O
         2 000241   001777 400002                    ADSC9   1023,A,PR0               cn=2,n=2
         2 000242   000006 000004 0                  ADSC9   SPACE_NEEDED+2           cn=0,n=4
         2 000243   000006 220000 0                  LDX0    SPACE_NEEDED+2
         2 000244   400000 621010                    EAX1    -131072,X0
         2 000245   000005 741100                    STX1    5,,PR0

     2046     1324    2           END;

PL6.E3A0      #006=CREATE_PAREC File=ZIU$COMPACT.:ZIC0TSI                        FRI 09/05/97 13:11 Page:387
     2047     1325
     2048     1326         /* Y IS THE LINE# AND RE IS THE OFFSET VALUE */
     2049     1327    1       DATA_PG.OFFSET(2035-Y) = RE;

   1327  2 000246   000003 335000 0                  LCA     Y
         2 000247   000001 735000                    ALS     1
         2 000250   000105 101400                    MRL     fill='000'O
         2 000251   000000 000004 xsym               ADSC9   RE                       cn=0,n=4
         2 000252   001777 400002                    ADSC9   1023,A,PR0               cn=2,n=2

     2050     1328    1       REC$ = PINCRC(DATA$,RE+12);

   1328  2 000253   000000 236000 xsym               LDQ     RE
         2 000254   000020 736000                    QLS     16
         2 000255   000003 036003                    ADLQ    3,DU
         2 000256   000000 036000 xsym               ADLQ    DATA$
         2 000257   000000 756000 xsym               STQ     REC$

     2051     1329    1       REC$ -> CHAR_V = '0'B; /* INIT THE RECORD IN CASE GARBAGE THER */

   1329  2 000260   000000 470400 xsym               LDP0    REC$
         2 000261   000100 100400                    MLR     fill='000'O
         2 000262   000001 000001 3                  ADSC9   1                        cn=0,n=1
         2 000263   000000 000020                    ADSC9   0,,PR0                   cn=0,n=16

     2052     1330    1       CURR_LEVEL.DBK(LEVEL#)=(BASE_PAGE-1)*AC_TBL.LPP(AC_PTR)+

   1330  2 000264   000000 236000 xsym               LDQ     LEVEL#
         2 000265   000002 736000                    QLS     2
         2 000266   000000 620006                    EAX0    0,QL
         2 000267   000000 236000 xsym               LDQ     AC_PTR
         2 000270   000014 402007                    MPY     12,DL
         2 000271   000013 236006 xsym               LDQ     AC_TBL+11,QL
         2 000272   000032 772000                    QRL     26
         2 000273   000006 756000 0                  STQ     SPACE_NEEDED+2
         2 000274   000001 236000 0                  LDQ     BASE_PAGE
         2 000275   000001 136007                    SBLQ    1,DL
PL6.E3A0      #006=CREATE_PAREC File=ZIU$COMPACT.:ZIC0TSI                        FRI 09/05/97 13:11 Page:388
         2 000276   000006 402000 0                  MPY     SPACE_NEEDED+2
         2 000277   000007 756000 0                  STQ     SPACE_NEEDED+3
         2 000300   000000 236000 xsym               LDQ     AC_PTR
         2 000301   000014 402007                    MPY     12,DL
         2 000302   000000 621006                    EAX1    0,QL
         2 000303   000007 236000 0                  LDQ     SPACE_NEEDED+3
         2 000304   000000 036011 xsym               ADLQ    AC_TBL,X1
         2 000305   000003 036000 0                  ADLQ    Y
         2 000306   000001 036007                    ADLQ    1,DL
         2 000307   000000 756010 xsym               STQ     CURR_LEVEL,X0

     2053     1331    1          AC_TBL.BASE_DBK(AC_PTR)+Y+1;
     2054     1332    1       CURR_LEVEL.REC$(LEVEL#)=REC$;

   1332  2 000310   000000 236000 xsym               LDQ     REC$
         2 000311   000003 756010 xsym               STQ     CURR_LEVEL+3,X0

     2055     1333    1       CURR_LEVEL.BUF_PTR(LEVEL#)=BUF_PTR;

   1333  2 000312   000000 236000 xsym               LDQ     BUF_PTR
         2 000313   000011 736000                    QLS     9
         2 000314   000002 676010 xsym               ERQ     CURR_LEVEL+2,X0
         2 000315   377000 376007                    ANQ     130560,DL
         2 000316   000002 656010 xsym               ERSQ    CURR_LEVEL+2,X0

     2056     1334    1       POOL.MUST_WRITE(BUF_PTR)='1'B; /* SET PAGE MUST WRITE */

   1334  2 000317   000000 722000 xsym               LXL2    BUF_PTR
         2 000320   400000 236003                    LDQ     -131072,DU
         2 000321   000000 256012 xsym               ORSQ    POOL,X2

     2057     1335    1       POOL.LOCKS(BUF_PTR)=POOL.LOCKS(BUF_PTR)+1;

   1335  2 000322   000000 236012 xsym               LDQ     POOL,X2
         2 000323   000032 772000                    QRL     26
         2 000324   000777 376007                    ANQ     511,DL
         2 000325   000001 036007                    ADLQ    1,DL
PL6.E3A0      #006=CREATE_PAREC File=ZIU$COMPACT.:ZIC0TSI                        FRI 09/05/97 13:11 Page:389
         2 000326   000032 736000                    QLS     26
         2 000327   000000 676012 xsym               ERQ     POOL,X2
         2 000330   377400 376003                    ANQ     130816,DU
         2 000331   000000 656012 xsym               ERSQ    POOL,X2

     2058     1336    1       PA_REC.TYPE=SC_TBL.PA_TYPE(SC_PTR);

   1336  2 000332   000000 236000 xsym               LDQ     SC_PTR
         2 000333   000405 402007                    MPY     261,DL
         2 000334   000000 116003                    CMPQ    0,DU
         2 000335   000337 605000 2                  TPL     s:1336+5
         2 000336   000044 036003                    ADLQ    36,DU
         2 000337   000000 470400 xsym               LDP0    REC$
         2 000340   003100 060406                    CSL     bolr='003'O
         2 000341   000004 250014 xsym               BDSC    SC_TBL+4,Q               by=1,bit=5,n=12
         2 000342   000000 060014                    BDSC    0,,PR0                   by=0,bit=6,n=12

     2059     1337    1       PA_REC.SIZE=SPACE_NEEDED; /* SET UP PA_REC HEADER */

   1337  2 000343   000000 470400 xsym               LDP0    REC$
         2 000344   000100 101400                    MRL     fill='000'O
         2 000345   000004 000004 0                  ADSC9   SPACE_NEEDED             cn=0,n=4
         2 000346   000000 400002                    ADSC9   0,,PR0                   cn=2,n=2

     2060     1338    1       IF LEVEL#<NO_OF_LEVELS THEN

   1338  2 000347   000000 236000 xsym               LDQ     LEVEL#
         2 000350   000000 116000 xsym               CMPQ    NO_OF_LEVELS
         2 000351   000356 605000 2                  TPL     s:1340

     2061     1339    1           PA_REC.NOT_LOWEST_LEVEL = '1'B;

   1339  2 000352   000000 470400 xsym               LDP0    REC$
         2 000353   003100 060400                    CSL     bolr='003'O
         2 000354   000017 000001 3                  BDSC    15                       by=0,bit=0,n=1
         2 000355   000001 000001                    BDSC    1,,PR0                   by=0,bit=0,n=1

PL6.E3A0      #006=CREATE_PAREC File=ZIU$COMPACT.:ZIC0TSI                        FRI 09/05/97 13:11 Page:390
     2062     1340    1       SC_TBL.COUNT(SC_PTR)=SC_TBL.COUNT(SC_PTR)-1;

   1340  2 000356   000000 236000 xsym               LDQ     SC_PTR
         2 000357   000405 402007                    MPY     261,DL
         2 000360   000000 116003                    CMPQ    0,DU
         2 000361   000363 605000 2                  TPL     s:1340+5
         2 000362   000044 036003                    ADLQ    36,DU
         2 000363   003000 060406                    CSL     bolr='003'O
         2 000364   000006 450022 xsym               BDSC    SC_TBL+6,Q               by=2,bit=5,n=18
         2 000365   000007 000044 0                  BDSC    SPACE_NEEDED+3           by=0,bit=0,n=36
         2 000366   000007 236000 0                  LDQ     SPACE_NEEDED+3
         2 000367   000022 732000                    QRS     18
         2 000370   000001 136007                    SBLQ    1,DL
         2 000371   000006 756000 0                  STQ     SPACE_NEEDED+2
         2 000372   000000 236000 xsym               LDQ     SC_PTR
         2 000373   000405 402007                    MPY     261,DL
         2 000374   000000 116003                    CMPQ    0,DU
         2 000375   000377 605000 2                  TPL     s:1340+17
         2 000376   000044 036003                    ADLQ    36,DU
         2 000377   003006 061400                    CSR     bolr='003'O
         2 000400   000006 000044 0                  BDSC    SPACE_NEEDED+2           by=0,bit=0,n=36
         2 000401   000006 450022 xsym               BDSC    SC_TBL+6,Q               by=2,bit=5,n=18

     2063     1341        /*E* ERROR: ZIU-DBU#PANOSPS-C
     2064     1342        MESSAGE: Error: Ran out of space in area "%U1" when creating
     2065     1343                        a new *PA_REC_%U2. %U3 aborted. */
     2066     1344    1   END CREATE_PAREC;

   1344  2 000402   000000 221200 0                  LDX1  ! 0
         2 000403   000001 702211                    TSX2  ! 1,X1

(unnamed)
 Sect OctLoc
   0     005   ****** ******   ****** ******   ****** ******   ****** ******    ................

(unnamed)
 Sect OctLoc
PL6.E3A0      #006=CREATE_PAREC File=ZIU$COMPACT.:ZIC0TSI                        FRI 09/05/97 13:11 Page:391
   3     000   000002 000000   000000 000000   000000 006000   000001 006000    ................
   3     004   000000 006000   000004 000000   000000 021743   000000 006000    ................
   3     010   000000 006000   000007 200000   000003 406000   000006 006000    ................
   3     014   777777 777777   000014 006000   000001 777776   400000 000000    ................
     2067     1345        %EOD;

PL6.E3A0      #006=CREATE_PAREC File=ZIU$COMPACT.:ZIC0TSI                        FRI 09/05/97 13:11 Page:392
--  Include file information  --

   ZI_ERRORS_SUBS.:ZIC0TOU  is referenced.
   ZI$PG_STRUCTS.:ZIC0TOU  is referenced.
   ZI_DBU_XREF.:ZIC0TOU  cannot be made into a system file and is referenced.
   ZI_GLOBAL_DBUTIL.:ZIC0TOU  is referenced.
   B$JIT_C.:E05TOU  was found in the system file and is never referenced.
   CP_6_C.:E05TOU  was found in the system file and is never referenced.
      No diagnostics issued in procedure CREATE_PAREC.

   Procedure CREATE_PAREC requires 260 words for executable code.
   Procedure CREATE_PAREC is declared NOAUTO and requires 10 words of local(STATIC) storage.
PL6.E3A0      #006=CREATE_PAREC File=ZIU$COMPACT.:ZIC0TSI                        FRI 09/05/97 13:11 Page:393
          *** CROSS REFERENCE LISTING ***
**     DENOTES     IDENTIFIER DEFINITION
<<                 IDENTIFIER'S VALUE SET
>>                 IDENTIFIER'S VALUE USED
<>                 IDENTIFIER SET AND/OR USED
--                 IDENTIFIER REFERENCED
PL6.E3A0      #006=CREATE_PAREC File=ZIU$COMPACT.:ZIC0TSI                        FRI 09/05/97 13:11 Page:394
          MINI XREF LISTING

AC_PTR
       615**DCL      1294>>DOWHILE  1294>>DOWHILE  1294>>DOWHILE  1299>>ASSIGN   1302>>CALL     1307>>CALL
      1307>>CALL     1330>>ASSIGN   1330>>ASSIGN
AC_TBL.BASE_DBK
       620**DCL      1307>>CALL     1330>>ASSIGN
AC_TBL.LNLP
       628**DCL      1294>>DOWHILE
AC_TBL.LPP
       625**DCL      1294>>DOWHILE  1307>>CALL     1330>>ASSIGN
AC_TBL.NAME
       624**DCL      1302<>CALL
AC_TBL.NUM_DBPG
       623**DCL      1294>>DOWHILE  1299>>ASSIGN
BASE_PAGE
        39**DCL      1284<<ASSIGN   1285>>ASSIGN   1294>>DOWHILE  1299<<ASSIGN   1299>>ASSIGN   1300>>IF
      1307>>CALL     1330>>ASSIGN
BREAK_CLEANUP
        37**DCL      1305>>UNWIND
BUF_PTR
        35**DCL      1333>>ASSIGN   1334>>ASSIGN   1335>>ASSIGN   1335>>ASSIGN
CHAR_V
        43**DCL      1329<<ASSIGN
COMMAND_TEXT
        36**DCL      1302<>CALL
COUNTSF
       308**DCL       309--REDEF
CURR_LEVEL.BUF_PTR
        25**DCL      1333<<ASSIGN
CURR_LEVEL.DBK
        21**DCL      1282<>CALL     1330<<ASSIGN
CURR_LEVEL.REC$
        27**DCL      1332<<ASSIGN
PL6.E3A0      #006=CREATE_PAREC File=ZIU$COMPACT.:ZIC0TSI                        FRI 09/05/97 13:11 Page:395
CURR_OWNER
        34**DCL      1280<>CALL
DATA$
       736**DCL       737--IMP-PTR  1284>>ASSIGN   1294>>DOWHILE  1294>>DOWHILE  1294>>DOWHILE  1294>>DOWHILE
      1294>>DOWHILE  1311>>ASSIGN   1311>>ASSIGN   1313>>ASSIGN   1314>>IF       1316>>ASSIGN   1316>>ASSIGN
      1317>>ASSIGN   1318>>ASSIGN   1322>>ASSIGN   1322>>ASSIGN   1323>>ASSIGN   1323>>ASSIGN   1327>>ASSIGN
      1328>>ASSIGN
DATA_PG.ACT_DATA
       749**DCL       750--REDEF     751--REDEF     752--REDEF
DATA_PG.CON_INTRVAL
       745**DCL      1284>>ASSIGN
DATA_PG.OFFSET
       751**DCL      1294>>DOWHILE  1314>>IF       1323>>ASSIGN   1327<<ASSIGN
DATA_PG.OFF_LN.FIR
       747**DCL      1294>>DOWHILE  1313>>ASSIGN   1323<<ASSIGN
DATA_PG.OFF_LN.SEC
       748**DCL      1294>>DOWHILE  1294>>DOWHILE  1311>>ASSIGN   1317>>ASSIGN   1318<<ASSIGN
DATA_PG.PG_SZ.SEC
       744**DCL      1294>>DOWHILE  1311>>ASSIGN   1316<<ASSIGN   1316>>ASSIGN   1322<<ASSIGN   1322>>ASSIGN
ENCRP_SEEDSF
       266**DCL       267--REDEF
ENTRY$
       394**DCL       385--IMP-PTR
ERRCODESF
       268**DCL       273--REDEF
ERROR_MSG
        47**DCL-ENT  1302--CALL
FIDSF_RD
       284**DCL       285--REDEF
FIND_DIRECT
        46**DCL-ENT  1280--CALL     1282--CALL     1307--CALL
GROUP$
       395**DCL       390--IMP-PTR
HELPCODE
       302**DCL       307--REDEF
ICHKSUM
PL6.E3A0      #006=CREATE_PAREC File=ZIU$COMPACT.:ZIC0TSI                        FRI 09/05/97 13:11 Page:396
       367**DCL       368--REDEF
I_O_BUF$
       345**DCL       346--IMP-PTR
KEYVSF
       240**DCL       245--REDEF
KEYVSF.WD_ONE
       242**DCL       243--REDEF
KEY_TBL.EIS
       607**DCL       608--REDEF
LEVEL#
        18**DCL      1279>>IF       1282>>CALL     1330>>ASSIGN   1332>>ASSIGN   1333>>ASSIGN   1338>>IF
MSGCODE
       274**DCL       275--REDEF
NO_OF_LEVELS
        19**DCL      1338>>IF
PA_REC.NOT_LOWEST_LEVEL
       377**DCL      1339<<ASSIGN
PA_REC.SIZE
       376**DCL      1337<<ASSIGN
PA_REC.TYPE
       375**DCL      1336<<ASSIGN
POOL.LOCKS
        32**DCL      1335<<ASSIGN   1335>>ASSIGN
POOL.MUST_WRITE
        31**DCL      1334<<ASSIGN
PTR_LEN
       396**DCL       389--IMP-SIZ   393--IMP-SIZ
RC_TBL.NXPNT_EIS
       590**DCL       591--REDEF
RE
       328**DCL      1311<<ASSIGN   1327>>ASSIGN   1328>>ASSIGN
REC$
       326**DCL        43--IMP-PTR   349--IMP-PTR   373--IMP-PTR  1328<<ASSIGN   1329>>ASSIGN   1332>>ASSIGN
      1336>>ASSIGN   1337>>ASSIGN   1339>>ASSIGN
REC_DATA_LN
       354**DCL       353--IMP-SIZ
PL6.E3A0      #006=CREATE_PAREC File=ZIU$COMPACT.:ZIC0TSI                        FRI 09/05/97 13:11 Page:397
SC_PTR
       571**DCL      1286>>ASSIGN   1302>>CALL     1336>>ASSIGN   1340>>ASSIGN   1340>>ASSIGN
SC_TBL.COUNT
       586**DCL      1340<<ASSIGN   1340>>ASSIGN
SC_TBL.KEY_PTR
       584**DCL       585--REDEF
SC_TBL.NAME
       573**DCL      1302<>CALL
SC_TBL.PA_RECSIZE
       578**DCL      1286>>ASSIGN
SC_TBL.PA_TYPE
       577**DCL      1336>>ASSIGN
SPACE_NEEDED
        42**DCL      1286<<ASSIGN   1294>>DOWHILE  1316>>ASSIGN   1322>>ASSIGN   1337>>ASSIGN
START_PAGE
        40**DCL      1285<<ASSIGN   1300>>IF
Y
        41**DCL      1313<<ASSIGN   1314>>IF       1317<<ASSIGN   1318>>ASSIGN   1323>>ASSIGN   1327>>ASSIGN
      1330>>ASSIGN

PL6.E3A0      #007=PUSH_PAENTRY File=ZIU$COMPACT.:ZIC0TSI                        FRI 09/05/97 13:11 Page:398
     2068        1        /*T***********************************************************/
     2069        2        /*T*                                                         */
     2070        3        /*T* Copyright (c) Bull HN Information Systems Inc., 1997    */
     2071        4        /*T*                                                         */
     2072        5        /*T***********************************************************/
     2073        6
     2074        7        /*
     2075        8              EXTERNAL  PUSH_PAENTRY - CALLED BY COMPACT DIRECTIVE
     2076        9                        PUSHES ALL THE ENTRY IN THE LOWEST PA RECROD
     2077       10                        TO A STACK OF 32K MAX.  THEN STORE EACH
     2078       11                        ONE BACK TO THE SAVE PA STRUCTURE.
     2079       12              INPUT: PA_DBK IS THE DBK OF THE PA_REC TO BE EXTRACTED
     2080       13                               OF ALL ITS ENTRIES
     2081       14        */
     2082       15        PUSH_PAENTRY: PROC(PA_DBK) NOAUTO;
     2083       16
     2084       17    1   DCL PA_DBK SBIN ALIGNED;
     2085       18    1   DCL LOW_INDX SBIN SYMREF ALIGNED;
     2086       19    1   DCL HIGH_INDX SBIN SYMREF ALIGNED;
     2087       20    1   DCL PAENT_STK_SIZE SBIN SYMREF ALIGNED;
     2088       21    1   DCL PASTK$ PTR SYMREF ALIGNED;
     2089       22    1   DCL 1 PAENT_STK BASED(REC2$) CALIGNED,
     2090       23    1         2 PA_DBK SBIN WORD CALIGNED,
     2091       24    1         2 ENT CHAR(ENTRY_LEN) CALIGNED;
     2092       25    1   DCL 1 PAENT2_STK BASED(REC2$) CALIGNED, /* REDEF PAENT_STK */
     2093       26    1         2 PA_DBK SBIN CALIGNED,
     2094       27    1         2 TYPE SBIN HALF CALIGNED,
     2095       28    1         2 PTRS CHAR(PTR_LEN) CALIGNED;
     2096       29    1   DCL CURR_OWNER SBIN SYMREF ALIGNED;
     2097       30    1   DCL ENTRY_LEN SBIN SYMREF ALIGNED;
     2098       31    1   DCL REC2$ PTR SYMREF ALIGNED;
     2099       32    1   DCL REC$ PTR SYMREF ALIGNED;
     2100       33    1   DCL X SBIN SYMREF ALIGNED;
     2101       34    1   DCL KEY$ PTR STATIC ALIGNED;
     2102       35    1   DCL KEY_V CHAR(KEY_LEN) BASED CALIGNED;
     2103       36    1   DCL PTR_V CHAR(PTR_LEN) BASED CALIGNED;
     2104       37    1   DCL Y SBIN STATIC ALIGNED;
PL6.E3A0      #007=PUSH_PAENTRY File=ZIU$COMPACT.:ZIC0TSI                        FRI 09/05/97 13:11 Page:399
     2105       38
     2106       39        %INCLUDE ZI_DBU_XREF;
     2107      206         %PA_XREF_TBLS;
     2108      272        %INCLUDE ZI_GLOBAL_DBUTIL;
     2109      450         %PAREC(STCLASS=SYMREF);
     2110      477        %INCLUDE ZI_ERRORS_SUBS;
     2111      997
     2112      998    1   DCL PA_UNIQUE_ENTRY CHAR(ENTRY_LEN) BASED(ENTRY$);
     2113      999    1   DCL BREAK_CLEANUP BIT(72) SYMREF ALIGNED;
     2114     1000    1   DCL COMMAND_TEXT CHAR(9) SYMREF CALIGNED;
     2115     1001
     2116     1002    1   DCL BIN_CHAR ENTRY(2);
     2117     1003    1   DCL ERROR_MSG ENTRY(4);
     2118     1004
     2119     1005    1       X = PA_REC.ENTRIES; /* GET NUMBER OF ENTRIES IN PA_REC */
     2120     1006    1       ENTRY$ = PINCRC(REC$,8+3*PTR_LEN); /* POINT TO 1ST ENTRY */
     2121     1007    2       DO WHILE(X>0);
     2122     1008    2           IF PA_ENTRY.C=0 THEN /* REGULAR ENTRY */
     2123     1009    3           DO;
     2124     1010    3               REC2$ = PINCRC(PASTK$,HIGH_INDX*(4+ENTRY_LEN));
     2125     1011    3               PAENT_STK.PA_DBK = PA_DBK;
     2126     1012    3               PAENT_STK.ENT = PA_UNIQUE_ENTRY;
     2127     1013    3               HIGH_INDX=MOD(HIGH_INDX+1,PAENT_STK_SIZE);
     2128     1014    3               IF HIGH_INDX=LOW_INDX THEN /* OUT OF SPACE */
     2129     1015    3                   GOTO NO_SPACE_IN_STACK;
     2130     1016    3               END;
     2131     1017    2           ELSE
     2132     1018    3           DO; /* POINTER GROUP PRESENT */
     2133     1019    3               Y=0;
     2134     1020    3               PINCRC(ADDR(Y),4-PTR_LEN)->PTR_V=PA_ENTRY.PTRS;
     2135     1021    3               KEY$ = PINCRC(ENTRY$,2+PTR_LEN);
     2136     1022    3               GROUP$ = PINCRC(REC$,Y); /* GROUP$ POINTS TO PA GROUP */
     2137     1023    3               Y = PA_GROUP.NO_GROUPS;
     2138     1024    4               DO WHILE(Y>0);
     2139     1025    4                   REC2$ = PINCRC(PASTK$,HIGH_INDX*(4+ENTRY_LEN));
     2140     1026    4                   PAENT2_STK.PA_DBK = PA_DBK;
     2141     1027    4                   PAENT2_STK.TYPE = PA_GROUP.TYPE;
PL6.E3A0      #007=PUSH_PAENTRY File=ZIU$COMPACT.:ZIC0TSI                        FRI 09/05/97 13:11 Page:400
     2142     1028    4                   PAENT2_STK.PTRS = PA_GROUP.PTRS;
     2143     1029    4                   PINCRC(REC2$,6+PTR_LEN)->KEY_V=KEY$->KEY_V;
     2144     1030    4                   GROUP$= PINCRC(GROUP$,2+PTR_LEN);
     2145     1031    4                   Y=Y-1;
     2146     1032    4                   HIGH_INDX=MOD(HIGH_INDX+1,PAENT_STK_SIZE);
     2147     1033    4                   IF HIGH_INDX=LOW_INDX THEN
     2148     1034    4                       GOTO NO_SPACE_IN_STACK;
     2149     1035    4                   END;
     2150     1036    3               END;
     2151     1037    2           X = X - 1;
     2152     1038    2           ENTRY$=PINCRC(ENTRY$,ENTRY_LEN); /* POINTS TO NEXT ENTRY */
     2153     1039    2           END;
     2154     1040    1       PA_REC.ENTRIES = 0; /* RESET TO 0 TO AVIOD PUSH AGAIN */
     2155     1041    1       RETURN;
     2156     1042    1   NO_SPACE_IN_STACK:
     2157     1043    1       CALL BIN_CHAR(2,(PAENT_STK_SIZE*(4+ENTRY_LEN))/4096);
     2158     1044    1       CALL BIN_CHAR(1,CURR_OWNER);
     2159     1045    1       CALL ERROR_MSG(DBU#PASTKER1,SC_TBL.NAME(SC_PTR));
     2160     1046    1       UNWIND TO BREAK_CLEANUP;
     2161     1047        /*E*  ERROR: ZIU-DBU#PASTKER1-C
     2162     1048        MESSAGE: Error: Ran out of space in PA entry stack;
     2163     1049                        the stack size is %U3 K, owner DBK# is %U2 and
     2164     1050                        the set name is "%U1".  COMPACT aborted.
     2165     1051                        Increase resource limit and try again. */
     2166     1052    1   END PUSH_PAENTRY;

PL6.E3A0      #007=PUSH_PAENTRY File=ZIU$COMPACT.:ZIC0TSI                        FRI 09/05/97 13:11 Page:401
--  Include file information  --

   ZI_ERRORS_SUBS.:ZIC0TOU  is referenced.
   ZI_GLOBAL_DBUTIL.:ZIC0TOU  is referenced.
   ZI_DBU_XREF.:ZIC0TOU  cannot be made into a system file and is referenced.
   B$JIT_C.:E05TOU  was found in the system file and is never referenced.
   CP_6_C.:E05TOU  was found in the system file and is never referenced.
      No diagnostics issued in procedure PUSH_PAENTRY.

   Procedure PUSH_PAENTRY requires 154 words for executable code.
   Procedure PUSH_PAENTRY is declared NOAUTO and requires 8 words of local(STATIC) storage.

    No errors detected in file ZIU$COMPACT.:ZIC0TSI    .

PL6.E3A0      #007=PUSH_PAENTRY File=ZIU$COMPACT.:ZIC0TSI                        FRI 09/05/97 13:11 Page:402

 Object Unit name= PUSH_PAENTRY                               File name= ZIU$COMPACT.:ZIC0TOU
 UTS= SEP 05 '97 13:11:25.52 FRI                              Compiler= PL-6/E31         Sev=      00
 SharedLib= :SHARED_SYSTEM                                    Alt SharedLib=


    ****  Control sections  ****

 Sect   Type Bound  Init  Size OctSiz  Section name(segment info)
    0   Data  even  none     8     10  PUSH_PAENTRY
    1   Proc  even  none   154    232  PUSH_PAENTRY
    2  RoData even  none    11     13  PUSH_PAENTRY

    ****  Entry defs  ****

                              Check   Calling
                             calling  sequence
  Sect OctLoc Primary Altret sequence   type   Parms  Name
     1      0   yes            yes      Std        1  PUSH_PAENTRY

  ****  Entry refs  ****

         Check        Calling
        calling       sequence
Altret sequence SRef   type   Args  Name
         yes           Std       2 BIN_CHAR
         yes           Std       4 ERROR_MSG
                       nStd      0 X66_STATIC_1
                       nStd      0 X66_SUNWIND
PL6.E3A0      #007=PUSH_PAENTRY File=ZIU$COMPACT.:ZIC0TSI                        FRI 09/05/97 13:11 Page:403

  ****  Data refs  ****

  Flags:  r = read only, s = secondary
Flgs Name                             Flgs Name                             Flgs Name
     LOW_INDX                              HIGH_INDX                             PAENT_STK_SIZE
     PASTK$                                CURR_OWNER                            ENTRY_LEN
     REC2$                                 REC$                                  X
     TYPE                                  SC_PTR                                SC_TBL
     RC_PTR                                RC_TBL                                KEY_PTR
     KEY_TBL                               AC_PTR                                FIRST_TIME_CALLED
     BASE_DBK                              AC_TBL                                ENTRY$
     GROUP$                                PTR_LEN                               KEY_LEN
     BREAK_CLEANUP                         COMMAND_TEXT

  ****  Segment refs  ****

  Flags:  r = read only, s = secondary
Flgs Name                             Flgs Name                             Flgs Name
     ISSID
PL6.E3A0      #007=PUSH_PAENTRY File=ZIU$COMPACT.:ZIC0TSI                        FRI 09/05/97 13:11 Page:404


     2068        1        /*T***********************************************************/
     2069        2        /*T*                                                         */
     2070        3        /*T* Copyright (c) Bull HN Information Systems Inc., 1997    */
     2071        4        /*T*                                                         */
     2072        5        /*T***********************************************************/
     2073        6
     2074        7        /*
     2075        8              EXTERNAL  PUSH_PAENTRY - CALLED BY COMPACT DIRECTIVE
     2076        9                        PUSHES ALL THE ENTRY IN THE LOWEST PA RECROD
     2077       10                        TO A STACK OF 32K MAX.  THEN STORE EACH
     2078       11                        ONE BACK TO THE SAVE PA STRUCTURE.
     2079       12              INPUT: PA_DBK IS THE DBK OF THE PA_REC TO BE EXTRACTED
     2080       13                               OF ALL ITS ENTRIES
     2081       14        */
     2082       15        PUSH_PAENTRY: PROC(PA_DBK) NOAUTO;

     15  1 000000   000000 700200 xent  PUSH_PAENTRY TSX0  ! X66_STATIC_1
         1 000001   000000 000001 0                  ZERO    0,1

     2083       16
     2084       17    1   DCL PA_DBK SBIN ALIGNED;
     2085       18    1   DCL LOW_INDX SBIN SYMREF ALIGNED;
     2086       19    1   DCL HIGH_INDX SBIN SYMREF ALIGNED;
     2087       20    1   DCL PAENT_STK_SIZE SBIN SYMREF ALIGNED;
     2088       21    1   DCL PASTK$ PTR SYMREF ALIGNED;
     2089       22    1   DCL 1 PAENT_STK BASED(REC2$) CALIGNED,
     2090       23    1         2 PA_DBK SBIN WORD CALIGNED,
     2091       24    1         2 ENT CHAR(ENTRY_LEN) CALIGNED;
     2092       25    1   DCL 1 PAENT2_STK BASED(REC2$) CALIGNED, /* REDEF PAENT_STK */
     2093       26    1         2 PA_DBK SBIN CALIGNED,
     2094       27    1         2 TYPE SBIN HALF CALIGNED,
     2095       28    1         2 PTRS CHAR(PTR_LEN) CALIGNED;
     2096       29    1   DCL CURR_OWNER SBIN SYMREF ALIGNED;
     2097       30    1   DCL ENTRY_LEN SBIN SYMREF ALIGNED;
     2098       31    1   DCL REC2$ PTR SYMREF ALIGNED;
     2099       32    1   DCL REC$ PTR SYMREF ALIGNED;
PL6.E3A0      #007=PUSH_PAENTRY File=ZIU$COMPACT.:ZIC0TSI                        FRI 09/05/97 13:11 Page:405
     2100       33    1   DCL X SBIN SYMREF ALIGNED;
     2101       34    1   DCL KEY$ PTR STATIC ALIGNED;
     2102       35    1   DCL KEY_V CHAR(KEY_LEN) BASED CALIGNED;
     2103       36    1   DCL PTR_V CHAR(PTR_LEN) BASED CALIGNED;
     2104       37    1   DCL Y SBIN STATIC ALIGNED;
     2105       38
     2106       39        %INCLUDE ZI_DBU_XREF;
     2107      206         %PA_XREF_TBLS;
     2108      272        %INCLUDE ZI_GLOBAL_DBUTIL;
     2109      450         %PAREC(STCLASS=SYMREF);
     2110      477        %INCLUDE ZI_ERRORS_SUBS;
     2111      997
     2112      998    1   DCL PA_UNIQUE_ENTRY CHAR(ENTRY_LEN) BASED(ENTRY$);
     2113      999    1   DCL BREAK_CLEANUP BIT(72) SYMREF ALIGNED;
     2114     1000    1   DCL COMMAND_TEXT CHAR(9) SYMREF CALIGNED;
     2115     1001
     2116     1002    1   DCL BIN_CHAR ENTRY(2);
     2117     1003    1   DCL ERROR_MSG ENTRY(4);
     2118     1004
     2119     1005    1       X = PA_REC.ENTRIES; /* GET NUMBER OF ENTRIES IN PA_REC */

   1005  1 000002   000000 470400 xsym               LDP0    REC$
         1 000003   003000 061500                    CSR     bolr='003'O
         1 000004   000001 060014                    BDSC    1,,PR0                   by=0,bit=6,n=12
         1 000005   000000 000044 xsym               BDSC    X                        by=0,bit=0,n=36

     2120     1006    1       ENTRY$ = PINCRC(REC$,8+3*PTR_LEN); /* POINT TO 1ST ENTRY */

   1006  1 000006   000000 236000 xsym               LDQ     PTR_LEN
         1 000007   600000 402007                    MPY     -65536,DL
         1 000010   000002 036003                    ADLQ    2,DU
         1 000011   000000 036000 xsym               ADLQ    REC$
         1 000012   000000 756000 xsym               STQ     ENTRY$

     2121     1007    2       DO WHILE(X>0);

   1007  1 000013   000000 235000 xsym               LDA     X
PL6.E3A0      #007=PUSH_PAENTRY File=ZIU$COMPACT.:ZIC0TSI                        FRI 09/05/97 13:11 Page:406
         1 000014   000164 604400 1                  TMOZ    s:1040

     2122     1008    2           IF PA_ENTRY.C=0 THEN /* REGULAR ENTRY */

   1008  1 000015   000000 470400 xsym               LDP0    ENTRY$
         1 000016   003000 061500                    CSR     bolr='003'O
         1 000017   000000 000001                    BDSC    0,,PR0                   by=0,bit=0,n=1
         1 000020   000004 000044 0                  BDSC    Y+1                      by=0,bit=0,n=36
         1 000021   000004 236000 0                  LDQ     Y+1
         1 000022   000000 116003                    CMPQ    0,DU
         1 000023   000055 601000 1                  TNZ     s:1019

     2123     1009    3           DO;

     2124     1010    3               REC2$ = PINCRC(PASTK$,HIGH_INDX*(4+ENTRY_LEN));

   1010  1 000024   000000 236000 xsym               LDQ     ENTRY_LEN
         1 000025   000004 036007                    ADLQ    4,DL
         1 000026   000000 402000 xsym               MPY     HIGH_INDX
         1 000027   000020 736000                    QLS     16
         1 000030   000000 036000 xsym               ADLQ    PASTK$
         1 000031   000000 756000 xsym               STQ     REC2$

     2125     1011    3               PAENT_STK.PA_DBK = PA_DBK;

   1011  1 000032   000001 471400 0                  LDP1    @PA_DBK
         1 000033   000000 473400 xsym               LDP3    REC2$
         1 000034   000100 100500                    MLR     fill='000'O
         1 000035   100000 000004                    ADSC9   0,,PR1                   cn=0,n=4
         1 000036   300000 000004                    ADSC9   0,,PR3                   cn=0,n=4

     2126     1012    3               PAENT_STK.ENT = PA_UNIQUE_ENTRY;

   1012  1 000037   000000 470400 xsym               LDP0    ENTRY$
         1 000040   000000 720000 xsym               LXL0    ENTRY_LEN
         1 000041   000000 473400 xsym               LDP3    REC2$
         1 000042   040140 100540                    MLR     fill='040'O
PL6.E3A0      #007=PUSH_PAENTRY File=ZIU$COMPACT.:ZIC0TSI                        FRI 09/05/97 13:11 Page:407
         1 000043   000000 000010                    ADSC9   0,,PR0                   cn=0,n=*X0
         1 000044   300001 000010                    ADSC9   1,,PR3                   cn=0,n=*X0

     2127     1013    3               HIGH_INDX=MOD(HIGH_INDX+1,PAENT_STK_SIZE);

   1013  1 000045   000000 236000 xsym               LDQ     HIGH_INDX
         1 000046   000001 036007                    ADLQ    1,DL
         1 000047   000000 506000 xsym               DIV     PAENT_STK_SIZE
         1 000050   000000 755000 xsym               STA     HIGH_INDX

     2128     1014    3               IF HIGH_INDX=LOW_INDX THEN /* OUT OF SPACE */

   1014  1 000051   000000 236000 xsym               LDQ     HIGH_INDX
         1 000052   000000 116000 xsym               CMPQ    LOW_INDX
         1 000053   000172 600000 1                  TZE     NO_SPACE_IN_STACK

     2129     1015    3                   GOTO NO_SPACE_IN_STACK;
     2130     1016    3               END;

   1016  1 000054   000154 710000 1                  TRA     s:1037

     2131     1017    2           ELSE
     2132     1018    3           DO; /* POINTER GROUP PRESENT */

     2133     1019    3               Y=0;

   1019  1 000055   000003 450000 0                  STZ     Y

     2134     1020    3               PINCRC(ADDR(Y),4-PTR_LEN)->PTR_V=PA_ENTRY.PTRS;

   1020  1 000056   000000 335000 xsym               LCA     PTR_LEN
         1 000057   000000 720000 xsym               LXL0    PTR_LEN
         1 000060   040045 100540                    MLR     fill='040'O
         1 000061   000000 400010                    ADSC9   0,,PR0                   cn=2,n=*X0
         1 000062   000004 000010 0                  ADSC9   Y+1,A                    cn=0,n=*X0

     2135     1021    3               KEY$ = PINCRC(ENTRY$,2+PTR_LEN);
PL6.E3A0      #007=PUSH_PAENTRY File=ZIU$COMPACT.:ZIC0TSI                        FRI 09/05/97 13:11 Page:408

   1021  1 000063   000000 236000 xsym               LDQ     PTR_LEN
         1 000064   000020 736000                    QLS     16
         1 000065   400000 036007                    ADLQ    -131072,DL
         1 000066   000000 036000 xsym               ADLQ    ENTRY$
         1 000067   000002 756000 0                  STQ     KEY$

     2136     1022    3               GROUP$ = PINCRC(REC$,Y); /* GROUP$ POINTS TO PA GROUP */

   1022  1 000070   000003 236000 0                  LDQ     Y
         1 000071   000020 736000                    QLS     16
         1 000072   000000 036000 xsym               ADLQ    REC$
         1 000073   000000 756000 xsym               STQ     GROUP$

     2137     1023    3               Y = PA_GROUP.NO_GROUPS;

   1023  1 000074   000000 471400 xsym               LDP1    GROUP$
         1 000075   000000 101500                    MRL     fill='000'O
         1 000076   100000 000002                    ADSC9   0,,PR1                   cn=0,n=2
         1 000077   000003 000004 0                  ADSC9   Y                        cn=0,n=4

     2138     1024    4               DO WHILE(Y>0);

   1024  1 000100   000003 235000 0                  LDA     Y
         1 000101   000154 604400 1                  TMOZ    s:1037

     2139     1025    4                   REC2$ = PINCRC(PASTK$,HIGH_INDX*(4+ENTRY_LEN));

   1025  1 000102   000000 236000 xsym               LDQ     ENTRY_LEN
         1 000103   000004 036007                    ADLQ    4,DL
         1 000104   000000 402000 xsym               MPY     HIGH_INDX
         1 000105   000020 736000                    QLS     16
         1 000106   000000 036000 xsym               ADLQ    PASTK$
         1 000107   000000 756000 xsym               STQ     REC2$

     2140     1026    4                   PAENT2_STK.PA_DBK = PA_DBK;

PL6.E3A0      #007=PUSH_PAENTRY File=ZIU$COMPACT.:ZIC0TSI                        FRI 09/05/97 13:11 Page:409
   1026  1 000110   000001 470400 0                  LDP0    @PA_DBK
         1 000111   000000 471400 xsym               LDP1    REC2$
         1 000112   000100 100500                    MLR     fill='000'O
         1 000113   000000 000004                    ADSC9   0,,PR0                   cn=0,n=4
         1 000114   100000 000004                    ADSC9   0,,PR1                   cn=0,n=4

     2141     1027    4                   PAENT2_STK.TYPE = PA_GROUP.TYPE;

   1027  1 000115   000000 471400 xsym               LDP1    GROUP$
         1 000116   000000 473400 xsym               LDP3    REC2$
         1 000117   000100 100500                    MLR     fill='000'O
         1 000120   100000 400002                    ADSC9   0,,PR1                   cn=2,n=2
         1 000121   300001 000002                    ADSC9   1,,PR3                   cn=0,n=2

     2142     1028    4                   PAENT2_STK.PTRS = PA_GROUP.PTRS;

   1028  1 000122   000000 720000 xsym               LXL0    PTR_LEN
         1 000123   040140 100540                    MLR     fill='040'O
         1 000124   100001 000010                    ADSC9   1,,PR1                   cn=0,n=*X0
         1 000125   300001 400010                    ADSC9   1,,PR3                   cn=2,n=*X0

     2143     1029    4                   PINCRC(REC2$,6+PTR_LEN)->KEY_V=KEY$->KEY_V;

   1029  1 000126   000002 474400 0                  LDP4    KEY$
         1 000127   000000 721000 xsym               LXL1    KEY_LEN
         1 000130   000000 235000 xsym               LDA     PTR_LEN
         1 000131   040145 100540                    MLR     fill='040'O
         1 000132   400000 000011                    ADSC9   0,,PR4                   cn=0,n=*X1
         1 000133   300001 400011                    ADSC9   1,A,PR3                  cn=2,n=*X1

     2144     1030    4                   GROUP$= PINCRC(GROUP$,2+PTR_LEN);

   1030  1 000134   000000 236000 xsym               LDQ     PTR_LEN
         1 000135   000020 736000                    QLS     16
         1 000136   400000 036007                    ADLQ    -131072,DL
         1 000137   000000 036000 xsym               ADLQ    GROUP$
         1 000140   000000 756000 xsym               STQ     GROUP$
PL6.E3A0      #007=PUSH_PAENTRY File=ZIU$COMPACT.:ZIC0TSI                        FRI 09/05/97 13:11 Page:410

     2145     1031    4                   Y=Y-1;

   1031  1 000141   000001 336007                    LCQ     1,DL
         1 000142   000003 056000 0                  ASQ     Y

     2146     1032    4                   HIGH_INDX=MOD(HIGH_INDX+1,PAENT_STK_SIZE);

   1032  1 000143   000000 236000 xsym               LDQ     HIGH_INDX
         1 000144   000001 036007                    ADLQ    1,DL
         1 000145   000000 506000 xsym               DIV     PAENT_STK_SIZE
         1 000146   000000 755000 xsym               STA     HIGH_INDX

     2147     1033    4                   IF HIGH_INDX=LOW_INDX THEN

   1033  1 000147   000000 236000 xsym               LDQ     HIGH_INDX
         1 000150   000000 116000 xsym               CMPQ    LOW_INDX
         1 000151   000172 600000 1                  TZE     NO_SPACE_IN_STACK

     2148     1034    4                       GOTO NO_SPACE_IN_STACK;
     2149     1035    4                   END;

   1035  1 000152   000003 235000 0                  LDA     Y
         1 000153   000102 605400 1                  TPNZ    s:1025

     2150     1036    3               END;

     2151     1037    2           X = X - 1;

   1037  1 000154   000001 336007                    LCQ     1,DL
         1 000155   000000 056000 xsym               ASQ     X

     2152     1038    2           ENTRY$=PINCRC(ENTRY$,ENTRY_LEN); /* POINTS TO NEXT ENTRY */

   1038  1 000156   000000 236000 xsym               LDQ     ENTRY_LEN
         1 000157   000020 736000                    QLS     16
         1 000160   000000 036000 xsym               ADLQ    ENTRY$
PL6.E3A0      #007=PUSH_PAENTRY File=ZIU$COMPACT.:ZIC0TSI                        FRI 09/05/97 13:11 Page:411
         1 000161   000000 756000 xsym               STQ     ENTRY$

     2153     1039    2           END;

   1039  1 000162   000000 235000 xsym               LDA     X
         1 000163   000015 605400 1                  TPNZ    s:1008

     2154     1040    1       PA_REC.ENTRIES = 0; /* RESET TO 0 TO AVIOD PUSH AGAIN */

   1040  1 000164   000000 470400 xsym               LDP0    REC$
         1 000165   003100 061400                    CSR     bolr='003'O
         1 000166   000000 000044 2                  BDSC    0                        by=0,bit=0,n=36
         1 000167   000001 060014                    BDSC    1,,PR0                   by=0,bit=6,n=12

     2155     1041    1       RETURN;

   1041  1 000170   000000 221200 0                  LDX1  ! 0
         1 000171   000001 702211                    TSX2  ! 1,X1

     2156     1042    1   NO_SPACE_IN_STACK:
     2157     1043    1       CALL BIN_CHAR(2,(PAENT_STK_SIZE*(4+ENTRY_LEN))/4096);

   1043  1 000172   000000 236000 xsym  NO_SPACE_IN* LDQ     ENTRY_LEN
         1 000173   000004 036007                    ADLQ    4,DL
         1 000174   000000 402000 xsym               MPY     PAENT_STK_SIZE
         1 000175   010000 506007                    DIV     4096,DL
         1 000176   000004 756000 0                  STQ     Y+1
         1 000177   000004 630400 0                  EPPR0   Y+1
         1 000200   000007 450400 0                  STP0    Y+4
         1 000201   000003 236000 2                  LDQ     3
         1 000202   000006 756000 0                  STQ     Y+3
         1 000203   000006 630400 0                  EPPR0   Y+3
         1 000204   000001 631400 2                  EPPR1   1
         1 000205   000000 701000 xent               TSX1    BIN_CHAR
         1 000206   000000 011000                    NOP     0

     2158     1044    1       CALL BIN_CHAR(1,CURR_OWNER);
PL6.E3A0      #007=PUSH_PAENTRY File=ZIU$COMPACT.:ZIC0TSI                        FRI 09/05/97 13:11 Page:412

   1044  1 000207   000005 630400 2                  EPPR0   5
         1 000210   000001 631400 2                  EPPR1   1
         1 000211   000000 701000 xent               TSX1    BIN_CHAR
         1 000212   000000 011000                    NOP     0

     2159     1045    1       CALL ERROR_MSG(DBU#PASTKER1,SC_TBL.NAME(SC_PTR));

   1045  1 000213   000000 236000 xsym               LDQ     SC_PTR
         1 000214   000011 402000 2                  MPY     9
         1 000215   000010 036000 2                  ADLQ    8
         1 000216   000012 235000 2                  LDA     10
         1 000217   000004 757000 0                  STAQ    Y+1
         1 000220   000004 630400 0                  EPPR0   Y+1
         1 000221   000001 631400 2                  EPPR1   1
         1 000222   000000 701000 xent               TSX1    ERROR_MSG
         1 000223   000000 011000                    NOP     0

     2160     1046    1       UNWIND TO BREAK_CLEANUP;

   1046  1 000224   000000 100600                    MLR   ! fill='000'O
         1 000225   000000 000010 xsym               ADSC9   BREAK_CLEANUP            cn=0,n=8
         1 000226   000004 000010 0                  ADSC9   Y+1                      cn=0,n=8
         1 000227   000004 237200 0                  LDAQ  ! Y+1
         1 000230   000000 700200 xent               TSX0  ! X66_SUNWIND
         1 000231   000000 000200                    ZERO    0,128

(unnamed)
 Sect OctLoc
   2     000   000000 000000   000002 000000   000000 000002   000002 006000    ................
   2     004   000000 000001   000004 006000   000000 006000   000000 021766    ................
   2     010   000000 006000   000007 200000   000007 006000                    ............
     2161     1047        /*E*  ERROR: ZIU-DBU#PASTKER1-C
     2162     1048        MESSAGE: Error: Ran out of space in PA entry stack;
     2163     1049                        the stack size is %U3 K, owner DBK# is %U2 and
     2164     1050                        the set name is "%U1".  COMPACT aborted.
     2165     1051                        Increase resource limit and try again. */
PL6.E3A0      #007=PUSH_PAENTRY File=ZIU$COMPACT.:ZIC0TSI                        FRI 09/05/97 13:11 Page:413
     2166     1052    1   END PUSH_PAENTRY;

PL6.E3A0      #007=PUSH_PAENTRY File=ZIU$COMPACT.:ZIC0TSI                        FRI 09/05/97 13:11 Page:414
--  Include file information  --

   ZI_ERRORS_SUBS.:ZIC0TOU  is referenced.
   ZI_GLOBAL_DBUTIL.:ZIC0TOU  is referenced.
   ZI_DBU_XREF.:ZIC0TOU  cannot be made into a system file and is referenced.
   B$JIT_C.:E05TOU  was found in the system file and is never referenced.
   CP_6_C.:E05TOU  was found in the system file and is never referenced.
      No diagnostics issued in procedure PUSH_PAENTRY.

   Procedure PUSH_PAENTRY requires 154 words for executable code.
   Procedure PUSH_PAENTRY is declared NOAUTO and requires 8 words of local(STATIC) storage.

    No errors detected in file ZIU$COMPACT.:ZIC0TSI    .
PL6.E3A0      #007=PUSH_PAENTRY File=ZIU$COMPACT.:ZIC0TSI                        FRI 09/05/97 13:11 Page:415
          *** CROSS REFERENCE LISTING ***
**     DENOTES     IDENTIFIER DEFINITION
<<                 IDENTIFIER'S VALUE SET
>>                 IDENTIFIER'S VALUE USED
<>                 IDENTIFIER SET AND/OR USED
--                 IDENTIFIER REFERENCED
PL6.E3A0      #007=PUSH_PAENTRY File=ZIU$COMPACT.:ZIC0TSI                        FRI 09/05/97 13:11 Page:416
          MINI XREF LISTING

BIN_CHAR
      1002**DCL-ENT  1043--CALL     1044--CALL
BREAK_CLEANUP
       999**DCL      1046>>UNWIND
CURR_OWNER
        29**DCL      1044<>CALL
ENTRY$
       472**DCL       463--IMP-PTR   998--IMP-PTR  1006<<ASSIGN   1008>>IF       1012>>ASSIGN   1020>>ASSIGN
      1021>>ASSIGN   1038<<ASSIGN   1038>>ASSIGN
ENTRY_LEN
        30**DCL        24--IMP-SIZ   998--IMP-SIZ  1010>>ASSIGN   1012>>ASSIGN   1012>>ASSIGN   1025>>ASSIGN
      1038>>ASSIGN   1043>>CALL
ERROR_MSG
      1003**DCL-ENT  1045--CALL
GROUP$
       473**DCL       468--IMP-PTR  1022<<ASSIGN   1023>>ASSIGN   1027>>ASSIGN   1028>>ASSIGN   1030<<ASSIGN
      1030>>ASSIGN
HIGH_INDX
        19**DCL      1010>>ASSIGN   1013<<ASSIGN   1013>>ASSIGN   1014>>IF       1025>>ASSIGN   1032<<ASSIGN
      1032>>ASSIGN   1033>>IF
KEY$
        34**DCL      1021<<ASSIGN   1029>>ASSIGN
KEY_LEN
       475**DCL        35--IMP-SIZ  1029>>ASSIGN   1029>>ASSIGN
KEY_TBL.EIS
       247**DCL       248--REDEF
KEY_V
        35**DCL      1029<<ASSIGN   1029>>ASSIGN
LOW_INDX
        18**DCL      1014>>IF       1033>>IF
NO_SPACE_IN_STACK
      1043**LABEL    1015--GOTO     1034--GOTO
PL6.E3A0      #007=PUSH_PAENTRY File=ZIU$COMPACT.:ZIC0TSI                        FRI 09/05/97 13:11 Page:417
PAENT2_STK.PA_DBK
        26**DCL      1026<<ASSIGN
PAENT2_STK.PTRS
        28**DCL      1028<<ASSIGN
PAENT2_STK.TYPE
        27**DCL      1027<<ASSIGN
PAENT_STK.ENT
        24**DCL      1012<<ASSIGN
PAENT_STK.PA_DBK
        23**DCL      1011<<ASSIGN
PAENT_STK_SIZE
        20**DCL      1013>>ASSIGN   1032>>ASSIGN   1043>>CALL
PASTK$
        21**DCL      1010>>ASSIGN   1025>>ASSIGN
PA_DBK
        17**DCL        15--PROC     1011>>ASSIGN   1026>>ASSIGN
PA_ENTRY.C
       464**DCL      1008>>IF
PA_ENTRY.PTRS
       467**DCL      1020>>ASSIGN
PA_GROUP.NO_GROUPS
       469**DCL      1023>>ASSIGN
PA_GROUP.PTRS
       471**DCL      1028>>ASSIGN
PA_GROUP.TYPE
       470**DCL      1027>>ASSIGN
PA_REC.ENTRIES
       461**DCL      1005>>ASSIGN   1040<<ASSIGN
PA_UNIQUE_ENTRY
       998**DCL      1012>>ASSIGN
PTR_LEN
       474**DCL        28--IMP-SIZ    36--IMP-SIZ   467--IMP-SIZ   471--IMP-SIZ  1006>>ASSIGN   1020>>ASSIGN
      1020>>ASSIGN   1020>>ASSIGN   1021>>ASSIGN   1028>>ASSIGN   1028>>ASSIGN   1029>>ASSIGN   1030>>ASSIGN
PTR_V
        36**DCL      1020<<ASSIGN
RC_TBL.NXPNT_EIS
PL6.E3A0      #007=PUSH_PAENTRY File=ZIU$COMPACT.:ZIC0TSI                        FRI 09/05/97 13:11 Page:418
       230**DCL       231--REDEF
REC$
        32**DCL       451--IMP-PTR  1005>>ASSIGN   1006>>ASSIGN   1022>>ASSIGN   1040>>ASSIGN
REC2$
        31**DCL        22--IMP-PTR    25--IMP-PTR  1010<<ASSIGN   1011>>ASSIGN   1012>>ASSIGN   1025<<ASSIGN
      1026>>ASSIGN   1027>>ASSIGN   1028>>ASSIGN   1029>>ASSIGN
SC_PTR
       211**DCL      1045>>CALL
SC_TBL.KEY_PTR
       224**DCL       225--REDEF
SC_TBL.NAME
       213**DCL      1045<>CALL
X
        33**DCL      1005<<ASSIGN   1007>>DOWHILE  1037<<ASSIGN   1037>>ASSIGN
Y
        37**DCL      1019<<ASSIGN   1020--ASSIGN   1022>>ASSIGN   1023<<ASSIGN   1024>>DOWHILE  1031<<ASSIGN
      1031>>ASSIGN
