
PL6.E3A0      #001=ZIU$COMPACT File=ZIU$COMPACT.:ZIC0TSI                         FRI 09/05/97 13:09 Page:1
        1        1        /*T***********************************************************/
        2        2        /*T*                                                         */
        3        3        /*T* Copyright (c) Bull HN Information Systems Inc., 1997    */
        4        4        /*T*                                                         */
        5        5        /*T***********************************************************/
        6        6        ZIU$COMPACT: PROC ALTRET;
        7        7        /*M*          I-D-S/II POINTER ARRAY UTILITY  */
        8        8        /*
        9        9                      THIS PROGRAM IS TO HAVE THREE MAIN PROPSES.
       10       10              1)  TO REBUILT THE HIGHER LEVEL POINTER ARRAY INDICES
       11       11                  AND COMPRESS THE SPACE IN PA REC
       12       12              2)  TO RESORT A PA SET IN CASE IT IS OUT OF ORDER
       13       13              3)  CONVERT A NON-PA SET TO PA-SET    */
       14       14        /*
       15       15              SORT ENVIROMENT - SORT IS CALLED TO SORT PA_KEYS
       16       16        */
       17       17    1   DCL X$SORT ENTRY(1) ALTRET;
       18       18    1   DCL ZIU$PA_SORTIN ENTRY(2) ALTRET;
       19       19    1   DCL ZIU$PA_PACK ENTRY ALTRET;
       20       20    1   DCL ZIU$PA_SORTOUT ENTRY(2) ALTRET; /* OUTPUT OF SORTING PA_MEMBERS */
       21       21    1   DCL ZIU$SC_RESORT ENTRY(2) ALTRET; /* OUTPUT OF SORTING REGULAR MEMBERS */
       22       22    1   DCL ZIU$PA_CMPKEY ENTRY(3);
       23       23    1   DCL ZIU$SRTDCB ENTRY; /* SET F$SCRF1 IF NOT SET BY USER */
       24       24
       25       25        %INCLUDE ZL_MACRO_C;
       26      675         %SORT_TABLE(ICE=ZIU$PA_SORTIN, /* PROC TO EXTRACT MEMBERS */
       27      676        KCE=ZIU$PA_CMPKEY, /* BMAP TO COMPARE ALL DATA TYPE */
       28      677        STAT=YES,DMP='D'); /* OUTPUT PROC IS VARIED */
       29      786
       30      787        %INCLUDE ZI_GLOBAL_DBUTIL;
       31      965         %SYS_FUNC;
       32     1057         %MISC_DCLS;
       33     1110        %INCLUDE ZI$DIR;
       34     1267         %DIR;
       35     1411        %INCLUDE ZI_PRSE_SUBS;
       36     1567        %INCLUDE CP_6;
       37     1648         %FPT_WRITE(FPTN=WRITE_TEMP,STCLASS=SYMREF);
PL6.E3A0      #001=ZIU$COMPACT File=ZIU$COMPACT.:ZIC0TSI                         FRI 09/05/97 13:09 Page:2
       38     1679        %INCLUDE CP_6_SUBS;
       39     2219        %INCLUDE ZI_ERRORS_SUBS;
       40     2739
       41     2740    1   DCL SET_BUFS ENTRY(2) ALTRET;
       42     2741    1   DCL GET_DCB ENTRY(1) ALTRET;
       43     2742    1   DCL SYS_FUNC_OPEN ENTRY ALTRET;
       44     2743    1   DCL ERROR_MSG ENTRY(4);
       45     2744
       46     2745    1   DCL MAX_KEY_SIZE SBIN WORD SYMREF ALIGNED;
       47     2746    1   DCL REC_CNT SBIN WORD SYMREF ALIGNED;
       48     2747    1   DCL DBKEY_SORT_DCB SBIN HALF SYMREF ALIGNED;
       49     2748    1   DCL 1 STK(0:1) SYMREF ALIGNED,
       50     2749    1         2 NEXT SBIN ALIGNED,
       51     2750    1         2 PRIOR SBIN ALIGNED,
       52     2751    1         2 CURR SBIN ALIGNED,
       53     2752    1         2 * UBIN HALF UNAL;
       54     2753    1   DCL COMMAND_TEXT CHAR(12) SYMREF ALIGNED;
       55     2754    1   DCL BREAK_CLEANUP BIT(72) SYMREF ALIGNED;
       56     2755    1   DCL NBUFS SBIN SYMREF ALIGNED;
       57     2756    1   DCL FIRST_TIME_CALLED SBIN SYMREF ALIGNED;
       58     2757
       59     2758    1       REMEMBER ALT_ZIU$COMPACT IN BREAK_CLEANUP; /* TRAP ALL ABORT RET */
       60     2759
       61     2760    1       FIRST_TIME_CALLED=0; /* STRT FORM FIRST AREA */
       62     2761    1       ZI$DIR.AREA_NM.NAME.TEXT='M$PT';
       63     2762    1       REC_CNT = 0;
       64     2763    1       CALL GET_DCB(ZI$DIR.AREA_NM) ALTRET(NO_DCB_FOR_TEMP);
       65     2764    1       DBKEY_SORT_DCB = ZI$DIR.AREA_NM.DCB#;
       66     2765    1       WRITE_TEMP.V.DCB#=DBKEY_SORT_DCB;
       67     2766    1       WRITE_TEMP.BUF_=VECTOR(STK(1));
       68     2767    1       WRITE_TEMP.BUF_.BOUND=7; /* DATA SIZE IS 8 BYTES */
       69     2768
       70     2769    1       FIDSF = '*POINTER_PATCH_FILE';
       71     2770    1       DCBSF = DBKEY_SORT_DCB;
       72     2771    1       ACSSF = %DIRECT#;
       73     2772    1       ASNSF = %FILE#;
       74     2773    1       ORGSF = %KEYED#;
PL6.E3A0      #001=ZIU$COMPACT File=ZIU$COMPACT.:ZIC0TSI                         FRI 09/05/97 13:09 Page:3
       75     2774    1       DISPSF = %NAMED#;
       76     2775    1       FUNSF = %CREATE#;
       77     2776    1       EXISTSF = %NEWFILE#;
       78     2777    1       REASGNSF = %YES#;
       79     2778    1       CALL SYS_FUNC_OPEN ALTRET(ALT_ZIU$COMPACT); /* OPEN ERROR */
       80     2779
       81     2780    1       CALL SET_BUFS(,32); /* RELEASE TO 32K FOR SORT GET MAX */
       82     2781    1       IF ZI$DIR.CODE=#COMPACT OR ZI$DIR.CODE=#REVERT THEN /* NO SORT */
       83     2782    2       DO;
       84     2783    2           CALL SET_BUFS(,128); /* COMPACT USE 128 K MAX */
       85     2784    2           KCNT = NBUFS; /* REMEMBER CURR BUFFER COUNT */
       86     2785    2           IF ZI$DIR.CODE=#COMPACT THEN /* RESORT USE ALL I_O_BUF */
       87     2786    2               NBUFS=(2*NBUFS-NBUFS/2)/2;
       88     2787         /* QUARTER OF MEMORY USED BY COMPACT STACK */
       89     2788    2           ELSE
       90     2789    2               NBUFS=NBUFS-8; /* LEAVE 8K FOR OWNER_STK */
       91     2790    2           CALL ZIU$PA_PACK; /* COMPACT PA USING EXISTING PA */
       92     2791    2           END;
       93     2792    1       ELSE /* WHEN COMMAND IS REBUILD,CONVERT OR RESORT */
       94     2793    2       DO;
       95     2794         /* LETS FIGURE OUT HOW MUCH MEMORY THAT SORT SHOULD USE */
       96     2795    2           RB = 8 + RB/5; /* 8 PAGES IS MINIMUM */
       97     2796         /* AND WE ALLOW 1K FOR EACH 5 DATA PAGES */
       98     2797    2           IF RB >255 THEN
       99     2798    2               RB = 255; /* 255 IS THE MAXIMUM */
      100     2799    2           SORT_TABLE.MEM# = RB; /*EXP: 600 PAGES USES 128K */
      101     2800    2           SORT_TABLE.PRIMARY.INSIZ# = MAX_KEY_SIZE+19; /*MAX REC SIZE */
      102     2801
      103     2802    2           IF ZI$DIR.CODE = #RESORT THEN
      104     2803    2               SORT_TABLE.SECONDARY.OCE$ = ENTADDR(ZIU$SC_RESORT);
      105     2804    2           ELSE
      106     2805    2               SORT_TABLE.SECONDARY.OCE$ = ENTADDR(ZIU$PA_SORTOUT);
      107     2806    2           CALL ZIU$SRTDCB; /* DO !SET F$SCRF1 *SORT,ORG=RAN,IX=15 */
      108     2807
      109     2808    2           CALL X$SORT(SORT_TABLE) ALTRET(ALT_ZIU$COMPACT);
      110     2809
      111     2810    2           END;
PL6.E3A0      #001=ZIU$COMPACT File=ZIU$COMPACT.:ZIC0TSI                         FRI 09/05/97 13:09 Page:4
      112     2811    1   RET: RETURN; /* TO ZIU$PA_ROOT, THEN CALL ZIU$CMPT_SUMY */
      113     2812
      114     2813    1   ALT_ZIU$COMPACT: /* ABORT RETURN OR USER BREAK WAS HIT */
      115     2814    1       ALTRETURN; /* TO ZIU$PA_ROOT, THEN CLOSE ALL DCBS */
      116     2815    1   NO_DCB_FOR_TEMP: /* CANNOT GET A DCB FOR TEMP_FILE */
      117     2816    1       CALL ERROR_MSG(DBU#PAERROR3,COMMAND_TEXT);
      118     2817    1       UNWIND TO BREAK_CLEANUP;
      119     2818        /*E* ERROR: ZIU-DBU#PAERROR3-C
      120     2819        MESSAGE: Error: Cannot get a DCB for the pointer-patch file
      121     2820                        used by this directive.  %U1 aborted. */
      122     2821    1   END ZIU$COMPACT;
      123     2822        %EOD;

PL6.E3A0      #001=ZIU$COMPACT File=ZIU$COMPACT.:ZIC0TSI                         FRI 09/05/97 13:09 Page:5
--  Include file information  --

   ZI_ERRORS_SUBS.:ZIC0TOU  is referenced.
   CP_6_SUBS.:LIB_E05  is referenced.
   CP_6.:LIB_E05  cannot be made into a system file and is referenced.
   ZI_PRSE_SUBS.:ZIC0TOU  is referenced.
   ZI$DIR.:ZIC0TOU  is referenced.
   ZI_GLOBAL_DBUTIL.:ZIC0TOU  is referenced.
   ZL_MACRO_C.:TOOLE05  is referenced.
   B$JIT_C.:E05TOU  was found in the system file and is never referenced.
   CP_6_C.:E05TOU  was found in the system file and is referenced.
      No diagnostics issued in procedure ZIU$COMPACT.

   Procedure ZIU$COMPACT requires 128 words for executable code.
   Procedure ZIU$COMPACT requires 6 words of local(AUTO) storage.

PL6.E3A0      #001=ZIU$COMPACT File=ZIU$COMPACT.:ZIC0TSI                         FRI 09/05/97 13:09 Page:6

 Object Unit name= ZIU$COMPACT                                File name= ZIU$COMPACT.:ZIC0TOU
 UTS= SEP 05 '97 13:09:56.88 FRI                              Compiler= PL-6/E31         Sev=      00
 SharedLib= :SHARED_SYSTEM                                    Alt SharedLib=


    ****  Control sections  ****

 Sect   Type Bound  Init  Size OctSiz  Section name(segment info)
    0   Data  even  none    36     44  ZIU$COMPACT
    1   DCB   even  none     0      0  M$LO
    2   DCB   even  none     0      0  M$UC
    3  RoData even  UTS      6      6  ZIU$COMPACT
    4   Proc  even  none   128    200  ZIU$COMPACT
    5  RoData even  none    21     25  ZIU$COMPACT

    ****  Entry defs  ****

                              Check   Calling
                             calling  sequence
  Sect OctLoc Primary Altret sequence   type   Parms  Name
     4      0   yes    yes     yes      Std        0  ZIU$COMPACT
PL6.E3A0      #001=ZIU$COMPACT File=ZIU$COMPACT.:ZIC0TSI                         FRI 09/05/97 13:09 Page:7

  ****  Entry refs  ****

         Check        Calling
        calling       sequence
Altret sequence SRef   type   Args  Name
 yes     yes           Std       2 ZIU$PA_SORTIN
 yes     yes           Std       0 SYS_FUNC_OPEN
 yes     yes           Std       0 ZIU$PA_PACK
         yes           Std       3 ZIU$PA_CMPKEY
 yes     yes           Std       1 GET_DCB
 yes     yes           Std       2 SET_BUFS
 yes     yes           Std       2 ZIU$SC_RESORT
 yes     yes           Std       1 X$SORT
         yes           Std       4 ERROR_MSG
 yes     yes           Std       2 ZIU$PA_SORTOUT
         yes           Std       0 ZIU$SRTDCB
                       nStd      0 X66_AUTO_0
                       nStd      0 X66_ARET
                       nStd      0 X66_AALT
                       nStd      0 X66_AUNWIND
PL6.E3A0      #001=ZIU$COMPACT File=ZIU$COMPACT.:ZIC0TSI                         FRI 09/05/97 13:09 Page:8

  ****  Data refs  ****

  Flags:  r = read only, s = secondary
Flgs Name                             Flgs Name                             Flgs Name
     BLKLSF                                KEYLSF                                KEYXSF
     DCBSF                                 ORGSF                                 KEYSF
     KEYVSF                                ACSSF                                 NOTIMESF
     FUNSF                                 ASNSF                                 TESTSF
     XTENSIZESF                            DISPSF                                WAITSF
     VFCSF                                 FULLSF                                BKUPSF
     BUFLNSF                               BUFSF                                 SOURCESF
     DESTSF                                DATESF                                TIMESF
     UTSSF                                 DAYSF                                 TSTAMPSF
     ENCRP_SEEDSF                          ERRCODESF                             MSGCODE
     INCL_ERR                              ERR_INSERT                            FIDSF_RD
     ACNT                                  EXISTSF                               SHARESF
     DCBNMSF                               KEYRSF                                NO_KEYSF
     REASGNSF                              CARRY_ATTRIBUTESF                     SUBMESSF
     SPKY_OPNSF                            POSSF                                 ERRFLGSF
     MERGESF                               FSA_FLAG                              RELGSF
     UNUSED                                HELPCODE                              COUNTSF
     INDEXSF                               GAP                                   PSNSF
     ACNTSF                                KEY_SHADWSF                           REC$
     RB                                    RE                                    IE
     IB                                    CNT                                   ICNT
     RCNT                                  SCNT                                  FIRST_SET
     RETCNT                                DMPCNT                                KCNT
     ACNT_IDX                              I                                     J
     K                                     X                                     STEPCC
     I_O_BUF$                              OUT_INDX                              I_O_SIZE
     REC_DATA_LN                           M$LO                                  B$TCB$
     B$ROS$                                B$JIT$                                KEYFID
     I_O_KEY                               RESTART                               BREAK_FLAG
     ICHKSUM                               ITMCNT                                GAP1
     ZI$DIR                                SCHEMA_ACTIVE                         RECORD_LIST
     SET_LIST                              RETAIN_LIST                           DUMP_FID
     ALTKY                                 INIT_RG                               KEY_RNG
PL6.E3A0      #001=ZIU$COMPACT File=ZIU$COMPACT.:ZIC0TSI                         FRI 09/05/97 13:09 Page:9
     ITEM_LIST                             M$UC                                  WRITE_TEMP
     MAX_KEY_SIZE                          REC_CNT                               DBKEY_SORT_DCB
     STK                                   COMMAND_TEXT                          BREAK_CLEANUP
     NBUFS                                 FIRST_TIME_CALLED

  ****  Segment refs  ****

  Flags:  r = read only, s = secondary
Flgs Name                             Flgs Name                             Flgs Name
     NULLSID                               ISSID
PL6.E3A0      #001=ZIU$COMPACT File=ZIU$COMPACT.:ZIC0TSI                         FRI 09/05/97 13:09 Page:10


        1        1        /*T***********************************************************/
        2        2        /*T*                                                         */
        3        3        /*T* Copyright (c) Bull HN Information Systems Inc., 1997    */
        4        4        /*T*                                                         */
        5        5        /*T***********************************************************/
        6        6        ZIU$COMPACT: PROC ALTRET;

      6  4 000000   000000 700200 xent  ZIU$COMPACT  TSX0  ! X66_AUTO_0
         4 000001   000006 000000                    ZERO    6,0

        7        7        /*M*          I-D-S/II POINTER ARRAY UTILITY  */
        8        8        /*
        9        9                      THIS PROGRAM IS TO HAVE THREE MAIN PROPSES.
       10       10              1)  TO REBUILT THE HIGHER LEVEL POINTER ARRAY INDICES
       11       11                  AND COMPRESS THE SPACE IN PA REC
       12       12              2)  TO RESORT A PA SET IN CASE IT IS OUT OF ORDER
       13       13              3)  CONVERT A NON-PA SET TO PA-SET    */
       14       14        /*
       15       15              SORT ENVIROMENT - SORT IS CALLED TO SORT PA_KEYS
       16       16        */
       17       17    1   DCL X$SORT ENTRY(1) ALTRET;
       18       18    1   DCL ZIU$PA_SORTIN ENTRY(2) ALTRET;
       19       19    1   DCL ZIU$PA_PACK ENTRY ALTRET;
       20       20    1   DCL ZIU$PA_SORTOUT ENTRY(2) ALTRET; /* OUTPUT OF SORTING PA_MEMBERS */
       21       21    1   DCL ZIU$SC_RESORT ENTRY(2) ALTRET; /* OUTPUT OF SORTING REGULAR MEMBERS */
       22       22    1   DCL ZIU$PA_CMPKEY ENTRY(3);
       23       23    1   DCL ZIU$SRTDCB ENTRY; /* SET F$SCRF1 IF NOT SET BY USER */
       24       24
       25       25        %INCLUDE ZL_MACRO_C;
       26      675         %SORT_TABLE(ICE=ZIU$PA_SORTIN, /* PROC TO EXTRACT MEMBERS */
       27      676        KCE=ZIU$PA_CMPKEY, /* BMAP TO COMPARE ALL DATA TYPE */
       28      677        STAT=YES,DMP='D'); /* OUTPUT PROC IS VARIED */
       29      786
       30      787        %INCLUDE ZI_GLOBAL_DBUTIL;
       31      965         %SYS_FUNC;
       32     1057         %MISC_DCLS;
PL6.E3A0      #001=ZIU$COMPACT File=ZIU$COMPACT.:ZIC0TSI                         FRI 09/05/97 13:09 Page:11
       33     1110        %INCLUDE ZI$DIR;
       34     1267         %DIR;
       35     1411        %INCLUDE ZI_PRSE_SUBS;
       36     1567        %INCLUDE CP_6;
       37     1648         %FPT_WRITE(FPTN=WRITE_TEMP,STCLASS=SYMREF);
       38     1679        %INCLUDE CP_6_SUBS;
       39     2219        %INCLUDE ZI_ERRORS_SUBS;
       40     2739
       41     2740    1   DCL SET_BUFS ENTRY(2) ALTRET;
       42     2741    1   DCL GET_DCB ENTRY(1) ALTRET;
       43     2742    1   DCL SYS_FUNC_OPEN ENTRY ALTRET;
       44     2743    1   DCL ERROR_MSG ENTRY(4);
       45     2744
       46     2745    1   DCL MAX_KEY_SIZE SBIN WORD SYMREF ALIGNED;
       47     2746    1   DCL REC_CNT SBIN WORD SYMREF ALIGNED;
       48     2747    1   DCL DBKEY_SORT_DCB SBIN HALF SYMREF ALIGNED;
       49     2748    1   DCL 1 STK(0:1) SYMREF ALIGNED,
       50     2749    1         2 NEXT SBIN ALIGNED,
       51     2750    1         2 PRIOR SBIN ALIGNED,
       52     2751    1         2 CURR SBIN ALIGNED,
       53     2752    1         2 * UBIN HALF UNAL;
       54     2753    1   DCL COMMAND_TEXT CHAR(12) SYMREF ALIGNED;
       55     2754    1   DCL BREAK_CLEANUP BIT(72) SYMREF ALIGNED;
       56     2755    1   DCL NBUFS SBIN SYMREF ALIGNED;
       57     2756    1   DCL FIRST_TIME_CALLED SBIN SYMREF ALIGNED;
       58     2757
       59     2758    1       REMEMBER ALT_ZIU$COMPACT IN BREAK_CLEANUP; /* TRAP ALL ABORT RET */

   2758  4 000002   000165 635000 4                  EAA     ALT_ZIU$COMPACT
         4 000003   000000 452400 xsym               STP2    BREAK_CLEANUP
         4 000004   000001 755000 xsym               STA     BREAK_CLEANUP+1

       60     2759
       61     2760    1       FIRST_TIME_CALLED=0; /* STRT FORM FIRST AREA */

   2760  4 000005   000000 450000 xsym               STZ     FIRST_TIME_CALLED

PL6.E3A0      #001=ZIU$COMPACT File=ZIU$COMPACT.:ZIC0TSI                         FRI 09/05/97 13:09 Page:12
       62     2761    1       ZI$DIR.AREA_NM.NAME.TEXT='M$PT';

   2761  4 000006   040000 100400                    MLR     fill='040'O
         4 000007   000000 000004 3                  ADSC9   0                        cn=0,n=4
         4 000010   000234 200036 xsym               ADSC9   ZI$DIR+156               cn=1,n=30

       63     2762    1       REC_CNT = 0;

   2762  4 000011   000000 450000 xsym               STZ     REC_CNT

       64     2763    1       CALL GET_DCB(ZI$DIR.AREA_NM) ALTRET(NO_DCB_FOR_TEMP);

   2763  4 000012   000001 630400 5                  EPPR0   1
         4 000013   000000 631400 5                  EPPR1   0
         4 000014   000000 701000 xent               TSX1    GET_DCB
         4 000015   000166 702000 4                  TSX2    NO_DCB_FOR_TEMP

       65     2764    1       DBKEY_SORT_DCB = ZI$DIR.AREA_NM.DCB#;

   2764  4 000016   000244 220000 xsym               LDX0    ZI$DIR+164
         4 000017   000000 740000 xsym               STX0    DBKEY_SORT_DCB

       66     2765    1       WRITE_TEMP.V.DCB#=DBKEY_SORT_DCB;

   2765  4 000020   000010 740000 xsym               STX0    WRITE_TEMP+8

       67     2766    1       WRITE_TEMP.BUF_=VECTOR(STK(1));

   2766  4 000021   000002 237000 5                  LDAQ    2
         4 000022   000004 757000 xsym               STAQ    WRITE_TEMP+4

       68     2767    1       WRITE_TEMP.BUF_.BOUND=7; /* DATA SIZE IS 8 BYTES */

   2767  4 000023   000004 236000 xsym               LDQ     WRITE_TEMP+4
         4 000024   177777 376007                    ANQ     65535,DL
         4 000025   000004 276000 5                  ORQ     4
         4 000026   000004 756000 xsym               STQ     WRITE_TEMP+4
PL6.E3A0      #001=ZIU$COMPACT File=ZIU$COMPACT.:ZIC0TSI                         FRI 09/05/97 13:09 Page:13

       69     2768
       70     2769    1       FIDSF = '*POINTER_PATCH_FILE';

   2769  4 000027   040000 100400                    MLR     fill='040'O
         4 000030   000001 000023 3                  ADSC9   1                        cn=0,n=19
         4 000031   000000 000036 xsym               ADSC9   FIDSF_RD                 cn=0,n=30

       71     2770    1       DCBSF = DBKEY_SORT_DCB;

   2770  4 000032   000000 740000 xsym               STX0    DCBSF

       72     2771    1       ACSSF = %DIRECT#;

   2771  4 000033   000002 235007                    LDA     2,DL
         4 000034   000000 755000 xsym               STA     ACSSF

       73     2772    1       ASNSF = %FILE#;

   2772  4 000035   000001 235007                    LDA     1,DL
         4 000036   000000 755000 xsym               STA     ASNSF

       74     2773    1       ORGSF = %KEYED#;

   2773  4 000037   000002 235007                    LDA     2,DL
         4 000040   000000 755000 xsym               STA     ORGSF

       75     2774    1       DISPSF = %NAMED#;

   2774  4 000041   000000 755000 xsym               STA     DISPSF

       76     2775    1       FUNSF = %CREATE#;

   2775  4 000042   000003 235007                    LDA     3,DL
         4 000043   000000 755000 xsym               STA     FUNSF

       77     2776    1       EXISTSF = %NEWFILE#;
PL6.E3A0      #001=ZIU$COMPACT File=ZIU$COMPACT.:ZIC0TSI                         FRI 09/05/97 13:09 Page:14

   2776  4 000044   600000 236003                    LDQ     -65536,DU
         4 000045   000000 756000 xsym               STQ     EXISTSF

       78     2777    1       REASGNSF = %YES#;

   2777  4 000046   400000 236003                    LDQ     -131072,DU
         4 000047   000000 756000 xsym               STQ     REASGNSF

       79     2778    1       CALL SYS_FUNC_OPEN ALTRET(ALT_ZIU$COMPACT); /* OPEN ERROR */

   2778  4 000050   000005 631400 5                  EPPR1   5
         4 000051   000000 701000 xent               TSX1    SYS_FUNC_OPEN
         4 000052   000165 702000 4                  TSX2    ALT_ZIU$COMPACT

       80     2779
       81     2780    1       CALL SET_BUFS(,32); /* RELEASE TO 32K FOR SORT GET MAX */

   2780  4 000053   000011 236000 5                  LDQ     9
         4 000054   000007 235000 5                  LDA     7
         4 000055   200004 757100                    STAQ    4,,AUTO
         4 000056   200004 630500                    EPPR0   4,,AUTO
         4 000057   000006 631400 5                  EPPR1   6
         4 000060   000000 701000 xent               TSX1    SET_BUFS
         4 000061   000000 011000                    NOP     0

       82     2781    1       IF ZI$DIR.CODE=#COMPACT OR ZI$DIR.CODE=#REVERT THEN /* NO SORT */

   2781  4 000062   000125 236000 xsym               LDQ     ZI$DIR+85
         4 000063   000012 376000 5                  ANQ     10
         4 000064   000013 116000 5                  CMPQ    11
         4 000065   000070 600000 4                  TZE     s:2783
         4 000066   000014 116000 5                  CMPQ    12
         4 000067   000126 601000 4                  TNZ     s:2795

       83     2782    2       DO;

PL6.E3A0      #001=ZIU$COMPACT File=ZIU$COMPACT.:ZIC0TSI                         FRI 09/05/97 13:09 Page:15
       84     2783    2           CALL SET_BUFS(,128); /* COMPACT USE 128 K MAX */

   2783  4 000070   000016 236000 5                  LDQ     14
         4 000071   000007 235000 5                  LDA     7
         4 000072   200004 757100                    STAQ    4,,AUTO
         4 000073   200004 630500                    EPPR0   4,,AUTO
         4 000074   000006 631400 5                  EPPR1   6
         4 000075   000000 701000 xent               TSX1    SET_BUFS
         4 000076   000000 011000                    NOP     0

       85     2784    2           KCNT = NBUFS; /* REMEMBER CURR BUFFER COUNT */

   2784  4 000077   000000 235000 xsym               LDA     NBUFS
         4 000100   000000 755000 xsym               STA     KCNT

       86     2785    2           IF ZI$DIR.CODE=#COMPACT THEN /* RESORT USE ALL I_O_BUF */

   2785  4 000101   000125 236000 xsym               LDQ     ZI$DIR+85
         4 000102   000012 376000 5                  ANQ     10
         4 000103   000013 116000 5                  CMPQ    11
         4 000104   000120 601000 4                  TNZ     s:2789

       87     2786    2               NBUFS=(2*NBUFS-NBUFS/2)/2;

   2786  4 000105   000000 236000 xsym               LDQ     NBUFS
         4 000106   000002 506007                    DIV     2,DL
         4 000107   200004 756100                    STQ     4,,AUTO
         4 000110   000000 336000 xsym               LCQ     NBUFS
         4 000111   000001 736000                    QLS     1
         4 000112   200004 036100                    ADLQ    4,,AUTO
         4 000113   000017 676000 5                  ERQ     15
         4 000114   000001 036007                    ADLQ    1,DL
         4 000115   000002 506007                    DIV     2,DL
         4 000116   000000 756000 xsym               STQ     NBUFS
         4 000117   000122 710000 4                  TRA     s:2790

       88     2787         /* QUARTER OF MEMORY USED BY COMPACT STACK */
PL6.E3A0      #001=ZIU$COMPACT File=ZIU$COMPACT.:ZIC0TSI                         FRI 09/05/97 13:09 Page:16
       89     2788    2           ELSE
       90     2789    2               NBUFS=NBUFS-8; /* LEAVE 8K FOR OWNER_STK */

   2789  4 000120   000010 336007                    LCQ     8,DL
         4 000121   000000 056000 xsym               ASQ     NBUFS

       91     2790    2           CALL ZIU$PA_PACK; /* COMPACT PA USING EXISTING PA */

   2790  4 000122   000005 631400 5                  EPPR1   5
         4 000123   000000 701000 xent               TSX1    ZIU$PA_PACK
         4 000124   000000 011000                    NOP     0

       92     2791    2           END;

   2791  4 000125   000164 710000 4                  TRA     RET

       93     2792    1       ELSE /* WHEN COMMAND IS REBUILD,CONVERT OR RESORT */
       94     2793    2       DO;

       95     2794         /* LETS FIGURE OUT HOW MUCH MEMORY THAT SORT SHOULD USE */
       96     2795    2           RB = 8 + RB/5; /* 8 PAGES IS MINIMUM */

   2795  4 000126   000000 235000 xsym               LDA     RB
         4 000127   000043 773000                    LRL     35
         4 000130   000005 507007                    DVF     5,DL
         4 000131   000010 035007                    ADLA    8,DL
         4 000132   000000 755000 xsym               STA     RB

       97     2796         /* AND WE ALLOW 1K FOR EACH 5 DATA PAGES */
       98     2797    2           IF RB >255 THEN

   2797  4 000133   000400 115007                    CMPA    256,DL
         4 000134   000137 602000 4                  TNC     s:2799

       99     2798    2               RB = 255; /* 255 IS THE MAXIMUM */

   2798  4 000135   000377 236007                    LDQ     255,DL
PL6.E3A0      #001=ZIU$COMPACT File=ZIU$COMPACT.:ZIC0TSI                         FRI 09/05/97 13:09 Page:17
         4 000136   000000 756000 xsym               STQ     RB

      100     2799    2           SORT_TABLE.MEM# = RB; /*EXP: 600 PAGES USES 128K */

   2799  4 000137   000000 720000 xsym               LXL0    RB
         4 000140   000012 740000 0                  STX0    SORT_TABLE+10

      101     2800    2           SORT_TABLE.PRIMARY.INSIZ# = MAX_KEY_SIZE+19; /*MAX REC SIZE */

   2800  4 000141   000000 235000 xsym               LDA     MAX_KEY_SIZE
         4 000142   000023 035007                    ADLA    19,DL
         4 000143   000000 755000 0                  STA     SORT_TABLE

      102     2801
      103     2802    2           IF ZI$DIR.CODE = #RESORT THEN

   2802  4 000144   000125 236000 xsym               LDQ     ZI$DIR+85
         4 000145   000012 376000 5                  ANQ     10
         4 000146   000020 116000 5                  CMPQ    16
         4 000147   000153 601000 4                  TNZ     s:2805

      104     2803    2               SORT_TABLE.SECONDARY.OCE$ = ENTADDR(ZIU$SC_RESORT);

   2803  4 000150   000000 636000 xent               EAQ     ZIU$SC_RESORT
         4 000151   000033 756000 0                  STQ     SORT_TABLE+27
         4 000152   000155 710000 4                  TRA     s:2806

      105     2804    2           ELSE
      106     2805    2               SORT_TABLE.SECONDARY.OCE$ = ENTADDR(ZIU$PA_SORTOUT);

   2805  4 000153   000000 636000 xent               EAQ     ZIU$PA_SORTOUT
         4 000154   000033 756000 0                  STQ     SORT_TABLE+27

      107     2806    2           CALL ZIU$SRTDCB; /* DO !SET F$SCRF1 *SORT,ORG=RAN,IX=15 */

   2806  4 000155   000005 631400 5                  EPPR1   5
         4 000156   000000 701000 xent               TSX1    ZIU$SRTDCB
PL6.E3A0      #001=ZIU$COMPACT File=ZIU$COMPACT.:ZIC0TSI                         FRI 09/05/97 13:09 Page:18
         4 000157   000000 011000                    NOP     0

      108     2807
      109     2808    2           CALL X$SORT(SORT_TABLE) ALTRET(ALT_ZIU$COMPACT);

   2808  4 000160   000021 630400 5                  EPPR0   17
         4 000161   000000 631400 5                  EPPR1   0
         4 000162   000000 701000 xent               TSX1    X$SORT
         4 000163   000165 702000 4                  TSX2    ALT_ZIU$COMPACT

      110     2809
      111     2810    2           END;

      112     2811    1   RET: RETURN; /* TO ZIU$PA_ROOT, THEN CALL ZIU$CMPT_SUMY */

   2811  4 000164   000000 702200 xent  RET          TSX2  ! X66_ARET

      113     2812
      114     2813    1   ALT_ZIU$COMPACT: /* ABORT RETURN OR USER BREAK WAS HIT */
      115     2814    1       ALTRETURN; /* TO ZIU$PA_ROOT, THEN CLOSE ALL DCBS */

   2814  4 000165   000000 702200 xent  ALT_ZIU$COM* TSX2  ! X66_AALT

      116     2815    1   NO_DCB_FOR_TEMP: /* CANNOT GET A DCB FOR TEMP_FILE */
      117     2816    1       CALL ERROR_MSG(DBU#PAERROR3,COMMAND_TEXT);

   2816  4 000166   000023 630400 5     NO_DCB_FOR_* EPPR0   19
         4 000167   000006 631400 5                  EPPR1   6
         4 000170   000000 701000 xent               TSX1    ERROR_MSG
         4 000171   000000 011000                    NOP     0

      118     2817    1       UNWIND TO BREAK_CLEANUP;

   2817  4 000172   000100 100600                    MLR   ! fill='000'O
         4 000173   000000 000010 xsym               ADSC9   BREAK_CLEANUP            cn=0,n=8
         4 000174   200004 000010                    ADSC9   4,,AUTO                  cn=0,n=8
         4 000175   200004 237300                    LDAQ  ! 4,,AUTO
PL6.E3A0      #001=ZIU$COMPACT File=ZIU$COMPACT.:ZIC0TSI                         FRI 09/05/97 13:09 Page:19
         4 000176   000000 700200 xent               TSX0  ! X66_AUNWIND
         4 000177   000000 000200                    ZERO    0,128

SORT_TABLE
 Sect OctLoc
   0     000   000000 000000   000000 000000   000000 000000   040000 104040    ............ .D
   0     004   000000 006014   000000 006014   000000 006014   000000 006014    ................
   0     010   000000 006014   000000 006014   000000 000000   000001 000000    ................
   0     014   000000 000000   000000 000000   000000 000000   000000 000000    ................
   0     040*  000000 000000   000000 000000   000000 000000   000000 000000    ................

(unnamed)
 Sect OctLoc
   3     000   115044 120124   052120 117111   116124 105122   137120 101124    M$PT*POINTER_PAT
   3     004   103110 137106   111114 105040                                    CH_FILE

(unnamed)
 Sect OctLoc
   5     000   000001 000000   000234 006000   000003 777640   000004 006000    ................
   5     004   000001 600000   000000 000000   000002 000000   000000 006014    ................
   5     010   000000 000040   000010 006000   000007 600000   000004 400000    ... ............
   5     014   000005 400000   000000 000200   000015 006000   777777 777777    ................
   5     020   000005 200000   000000 006000   000000 021734   000022 006000    ................
   5     024   000000 006000                                                    ....
      119     2818        /*E* ERROR: ZIU-DBU#PAERROR3-C
      120     2819        MESSAGE: Error: Cannot get a DCB for the pointer-patch file
      121     2820                        used by this directive.  %U1 aborted. */
      122     2821    1   END ZIU$COMPACT;
      123     2822        %EOD;

PL6.E3A0      #001=ZIU$COMPACT File=ZIU$COMPACT.:ZIC0TSI                         FRI 09/05/97 13:09 Page:20
--  Include file information  --

   ZI_ERRORS_SUBS.:ZIC0TOU  is referenced.
   CP_6_SUBS.:LIB_E05  is referenced.
   CP_6.:LIB_E05  cannot be made into a system file and is referenced.
   ZI_PRSE_SUBS.:ZIC0TOU  is referenced.
   ZI$DIR.:ZIC0TOU  is referenced.
   ZI_GLOBAL_DBUTIL.:ZIC0TOU  is referenced.
   ZL_MACRO_C.:TOOLE05  is referenced.
   B$JIT_C.:E05TOU  was found in the system file and is never referenced.
   CP_6_C.:E05TOU  was found in the system file and is referenced.
      No diagnostics issued in procedure ZIU$COMPACT.

   Procedure ZIU$COMPACT requires 128 words for executable code.
   Procedure ZIU$COMPACT requires 6 words of local(AUTO) storage.
PL6.E3A0      #001=ZIU$COMPACT File=ZIU$COMPACT.:ZIC0TSI                         FRI 09/05/97 13:09 Page:21
          *** CROSS REFERENCE LISTING ***
**     DENOTES     IDENTIFIER DEFINITION
<<                 IDENTIFIER'S VALUE SET
>>                 IDENTIFIER'S VALUE USED
<>                 IDENTIFIER SET AND/OR USED
--                 IDENTIFIER REFERENCED
PL6.E3A0      #001=ZIU$COMPACT File=ZIU$COMPACT.:ZIC0TSI                         FRI 09/05/97 13:09 Page:22
          MINI XREF LISTING

ACSSF
       984**DCL      2771<<ASSIGN
ALT_ZIU$COMPACT
      2814**LABEL    2758--REMEMBR  2778--CALLALT  2808--CALLALT
ASNSF
       987**DCL      2772<<ASSIGN
BREAK_CLEANUP
      2754**DCL      2758<<REMEMBR  2817>>UNWIND
COMMAND_TEXT
      2753**DCL      2816<>CALL
COUNTSF
      1046**DCL      1047--REDEF
DBKEY_SORT_DCB
      2747**DCL      2764<<ASSIGN   2765>>ASSIGN   2770>>ASSIGN
DCBSF
       975**DCL      2770<<ASSIGN
DISPSF
       990**DCL      2774<<ASSIGN
ENCRP_SEEDSF
      1004**DCL      1005--REDEF
ERRCODESF
      1006**DCL      1011--REDEF
ERROR_MSG
      2743**DCL-ENT  2816--CALL
EXISTSF
      1025**DCL      2776<<ASSIGN
FIDSF
      1023**DCL      2769<<ASSIGN
FIDSF_RD
      1022**DCL      1023--REDEF
FIRST_TIME_CALLED
      2756**DCL      2760<<ASSIGN
PL6.E3A0      #001=ZIU$COMPACT File=ZIU$COMPACT.:ZIC0TSI                         FRI 09/05/97 13:09 Page:23
FUNSF
       986**DCL      2775<<ASSIGN
GET_DCB
      2741**DCL-ENT  2763--CALL
HELPCODE
      1040**DCL      1045--REDEF
ICHKSUM
      1105**DCL      1106--REDEF
I_O_BUF$
      1083**DCL      1084--IMP-PTR
KCNT
      1076**DCL      2784<<ASSIGN
KEYVSF
       978**DCL       983--REDEF
KEYVSF.WD_ONE
       980**DCL       981--REDEF
MAX_KEY_SIZE
      2745**DCL      2800>>ASSIGN
MSGCODE
      1012**DCL      1013--REDEF
NBUFS
      2755**DCL      2784>>ASSIGN   2786<<ASSIGN   2786>>ASSIGN   2786>>ASSIGN   2789<<ASSIGN   2789>>ASSIGN
NO_DCB_FOR_TEMP
      2816**LABEL    2763--CALLALT
ORGSF
       976**DCL      2773<<ASSIGN
RB
      1065**DCL      2795<<ASSIGN   2795>>ASSIGN   2797>>IF       2798<<ASSIGN   2799>>ASSIGN
REASGNSF
      1030**DCL      2777<<ASSIGN
REC$
      1064**DCL      1087--IMP-PTR
REC_CNT
      2746**DCL      2762<<ASSIGN
REC_DATA_LN
      1092**DCL      1091--IMP-SIZ
PL6.E3A0      #001=ZIU$COMPACT File=ZIU$COMPACT.:ZIC0TSI                         FRI 09/05/97 13:09 Page:24
SET_BUFS
      2740**DCL-ENT  2780--CALL     2783--CALL
SORT_TABLE
       688**DCL      2808<>CALL
SORT_TABLE.MEM#
       737**DCL      2799<<ASSIGN
SORT_TABLE.PRIMARY.INSIZ#
       696**DCL      2800<<ASSIGN
SORT_TABLE.SECONDARY.OCE$
       772**DCL      2803<<ASSIGN   2805<<ASSIGN
STK
      2748**DCL      2766--ASSIGN
SYS_FUNC_OPEN
      2742**DCL-ENT  2778--CALL
WRITE_TEMP.BUF_
      1665**DCL      2766<<ASSIGN
WRITE_TEMP.BUF_.BOUND
      1665**DCL      2767<<ASSIGN
WRITE_TEMP.STATION_
      1667**DCL      1667--REDEF
WRITE_TEMP.V.DCB#
      1668**DCL      2765<<ASSIGN
WRITE_TEMP.V.DVBYTE.VFC#
      1674**DCL      1674--REDEF
X$SORT
        17**DCL-ENT  2808--CALL
ZI$DIR.ALTKEY
      1339**DCL      1340--REDEF    1341--REDEF
ZI$DIR.AREAFID
      1305**DCL      1306--REDEF
ZI$DIR.AREA_NM
      1368**DCL      2763<>CALL
ZI$DIR.AREA_NM.DCB#
      1372**DCL      2764>>ASSIGN
ZI$DIR.AREA_NM.NAME.TEXT
      1371**DCL      2761<<ASSIGN
PL6.E3A0      #001=ZIU$COMPACT File=ZIU$COMPACT.:ZIC0TSI                         FRI 09/05/97 13:09 Page:25
ZI$DIR.CODE
      1321**DCL      2781>>IF       2781>>IF       2785>>IF       2802>>IF
ZI$DIR.DATE
      1344**DCL      1348--REDEF
ZI$DIR.DEST_SEED
      1300**DCL      1301--REDEF    1302--REDEF
ZI$DIR.ENCP_SEED
      1297**DCL      1298--REDEF    1299--REDEF
ZI$DIR.REPRT_ZERO
      1331**DCL      1332--REDEF
ZI$DIR.SCHFID
      1303**DCL      1304--REDEF
ZI$DIR.TIME
      1349**DCL      1354--REDEF
ZIU$PA_CMPKEY
        22**DCL-ENT   774--DCLINIT
ZIU$PA_PACK
        19**DCL-ENT  2790--CALL
ZIU$PA_SORTIN
        18**DCL-ENT   770--DCLINIT
ZIU$PA_SORTOUT
        20**DCL-ENT  2805--ASSIGN
ZIU$SC_RESORT
        21**DCL-ENT  2803--ASSIGN
ZIU$SRTDCB
        23**DCL-ENT  2806--CALL

