PL6.E3A0      #003=ZIU$PA_CMPKEY File=ZIU$COMPACT.:ZIC0TSI                       FRI 09/05/97 13:10 Page:216
     1145        1        /*T***********************************************************/
     1146        2        /*T*                                                         */
     1147        3        /*T* Copyright (c) Bull HN Information Systems Inc., 1997    */
     1148        4        /*T*                                                         */
     1149        5        /*T***********************************************************/
     1150        6
     1151        7        /*
     1152        8              SORT KCE PROCEDURE - ZIU$PA_CMPKEY
     1153        9        */
     1154       10        ZIU$PA_CMPKEY: PROC(REC1,REC2,RESULT) NOAUTO;
     1155       11
     1156       12    1   DCL RESULT SBIN WORD; /* 0 FOR =,1 FOR <,2 FOR > */
     1157       13    1   DCL 1 REC1 CALIGNED,
     1158       14    1         2 N_PTR UBIN UNAL,
     1159       15    1         2 P_PTR UBIN UNAL,
     1160       16    1         2 MEMBER_DBK UBIN UNAL,
     1161       17    1         2 RC_PTR UBIN BYTE UNAL,
     1162       18    1         2 AC_PTR UBIN BYTE UNAL,
     1163       19    1         2 SC_PTR UBIN BYTE UNAL,
     1164       20    1         2 O_PTR UBIN UNAL,
     1165       21    1         2 KEY_LOC CHAR(1) UNAL;
     1166       22    1   DCL 1 REC2 CALIGNED,
     1167       23    1         2 N_PTR UBIN UNAL,
     1168       24    1         2 P_PTR UBIN UNAL,
     1169       25    1         2 MEMBER_DBK UBIN UNAL,
     1170       26    1         2 RC_PTR UBIN BYTE UNAL,
     1171       27    1         2 AC_PTR UBIN BYTE UNAL,
     1172       28    1         2 SC_PTR UBIN BYTE UNAL,
     1173       29    1         2 O_PTR UBIN UNAL,
     1174       30    1         2 KEY_LOC CHAR(1) UNAL;
     1175       31
     1176       32    1   DCL ZIU$DBPCF ENTRY; /* BMAP KEY COMPARE SUBR (ORIG FROM ZIM$DBPCF) */
     1177       33
     1178       34    1   DCL X SBIN SYMREF ALIGNED;
     1179       35    1   DCL REC1$ PTR STATIC SYMDEF ALIGNED; /* CANT USE REC$ HERE */
     1180       36    1   DCL REC2$ PTR SYMREF ALIGNED;
     1181       37    1   DCL PRFR UBIN SYMREF ALIGNED;
PL6.E3A0      #003=ZIU$PA_CMPKEY File=ZIU$COMPACT.:ZIC0TSI                       FRI 09/05/97 13:10 Page:217
     1182       38    1   DCL PRFR2 UBIN SYMREF ALIGNED;
     1183       39    1   DCL RC SBIN STATIC ALIGNED; /* DONT TOUCH RC_PTR HERE */
     1184       40    1   DCL SC SBIN STATIC ALIGNED;
     1185       41
     1186       42        %INCLUDE ZI_DBU_XREF;
     1187      209         %PA_XREF_TBLS;
     1188      275        %INCLUDE ZI$DIR;
     1189      432         %DIR;
     1190      576        %INCLUDE ZI_PRSE_SUBS;
     1191      732
     1192      733    1       IF REC1.O_PTR < REC2.O_PTR THEN
     1193      734    1           RESULT = 1;
     1194      735    1       ELSE
     1195      736    1           IF REC1.O_PTR > REC2.O_PTR THEN
     1196      737    1               RESULT = 2;
     1197      738    1           ELSE
     1198      739    2           DO; /* OWNER DBK ARE EQUAL, NEXT COMPARE SC */
     1199      740    2               RC = REC1.RC_PTR;
     1200      741    2               SC = REC1.SC_PTR;
     1201      742    2               IF SC < REC2.SC_PTR THEN
     1202      743    2                   RESULT = 1;
     1203      744    2               ELSE
     1204      745    2                   IF SC > REC2.SC_PTR THEN
     1205      746    2                       RESULT = 2;
     1206      747    2                   ELSE
     1207      748    3                   DO; /* O_PTR AND SC ALL EQUAL, COMPARE SORT_KEYS */
     1208      749         /* BUT IF WE ARE SORTING A SET WITH SORT BY DEFINED KEYS
     1209      750            WITHIN RECORDS THEN WE SHOULD COMPARE RC FIRST */
     1210      751    3                       IF SC_TBL.SETYPE(SC)=2 AND RC~=REC2.RC_PTR THEN
     1211      752    4                       DO;
     1212      753    4                           IF RC < REC2.RC_PTR THEN
     1213      754    4                               RESULT = 1;
     1214      755    4                           ELSE
     1215      756    4                               RESULT = 2;
     1216      757    4                           RETURN;
     1217      758    4                           END;
     1218      759    3                       REC1$=ADDR(REC1.KEY_LOC);
PL6.E3A0      #003=ZIU$PA_CMPKEY File=ZIU$COMPACT.:ZIC0TSI                       FRI 09/05/97 13:10 Page:218
     1219      760    3                       REC2$=ADDR(REC2.KEY_LOC);
     1220      761    3                       PRFR=0;
     1221      762    3                       X=RC_TBL.NO_OF_KEYS(RC);
     1222      763    3                       IF ZI$DIR.CODE=#RESORT THEN
     1223      764    3                           KEY_PTR=RC_TBL.KEY_PTR(RC)+1; /* 1ST KEY */
     1224      765    3                       ELSE
     1225      766    3                           KEY_PTR=SC_TBL.KEY_PTR(SC); /* 1ST KEY FOR PA SETS */
     1226      767         /* DO UNTIL A NON-EQUAL KEY FOUND */
     1227      768    4                       DO WHILE(X>0 AND PRFR=0);
     1228      769    4                           PRFR=KEY_TBL.EIS(KEY_PTR);
     1229      770    4                           CALL ZIU$DBPCF;
     1230      771    4                           X=X-1;
     1231      772    4                           IF ZI$DIR.CODE=#RESORT THEN /* NON PA SET */
     1232      773    4                               KEY_PTR = KEY_PTR + 2;
     1233      774    4                           ELSE
     1234      775    4                               KEY_PTR = KEY_PTR + 1;
     1235      776    4                           END;
     1236      777        /*
     1237      778              ZIU$DBPCF RETURNS  COMPARING RESULT IN PRFR
     1238      779        */
     1239      780    3                       RESULT = PRFR;
     1240      781    3                       END;
     1241      782    2               END;
     1242      783    1   END ZIU$PA_CMPKEY;
     1243      784        %EOD;

PL6.E3A0      #003=ZIU$PA_CMPKEY File=ZIU$COMPACT.:ZIC0TSI                       FRI 09/05/97 13:10 Page:219
--  Include file information  --

   ZI_PRSE_SUBS.:ZIC0TOU  is referenced.
   ZI$DIR.:ZIC0TOU  is referenced.
   ZI_DBU_XREF.:ZIC0TOU  cannot be made into a system file and is referenced.
   B$JIT_C.:E05TOU  was found in the system file and is never referenced.
   CP_6_C.:E05TOU  was found in the system file and is never referenced.
      No diagnostics issued in procedure ZIU$PA_CMPKEY.

   Procedure ZIU$PA_CMPKEY requires 146 words for executable code.
   Procedure ZIU$PA_CMPKEY is declared NOAUTO and requires 10 words of local(STATIC) storage.

PL6.E3A0      #003=ZIU$PA_CMPKEY File=ZIU$COMPACT.:ZIC0TSI                       FRI 09/05/97 13:10 Page:220

 Object Unit name= ZIU$PA_CMPKEY                              File name= ZIU$COMPACT.:ZIC0TOU
 UTS= SEP 05 '97 13:10:44.04 FRI                              Compiler= PL-6/E31         Sev=      00
 SharedLib= :SHARED_SYSTEM                                    Alt SharedLib=


    ****  Control sections  ****

 Sect   Type Bound  Init  Size OctSiz  Section name(segment info)
    0   Data  even  none    10     12  ZIU$PA_CMPKEY
    1   Proc  even  none   146    222  ZIU$PA_CMPKEY
    2  RoData even  none     4      4  ZIU$PA_CMPKEY

    ****  Entry defs  ****

                              Check   Calling
                             calling  sequence
  Sect OctLoc Primary Altret sequence   type   Parms  Name
     1      0   yes            yes      Std        3  ZIU$PA_CMPKEY

  ****  Data defs  ****

 Sect OctLoc  Name                           Sect OctLoc  Name
    0      4  REC1$

  ****  Entry refs  ****

         Check        Calling
        calling       sequence
Altret sequence SRef   type   Args  Name
         yes           Std       0 ZIU$DBPCF
                       nStd      0 X66_STATIC_3
PL6.E3A0      #003=ZIU$PA_CMPKEY File=ZIU$COMPACT.:ZIC0TSI                       FRI 09/05/97 13:10 Page:221

  ****  Data refs  ****

  Flags:  r = read only, s = secondary
Flgs Name                             Flgs Name                             Flgs Name
     X                                     REC2$                                 PRFR
     PRFR2                                 TYPE                                  SC_PTR
     SC_TBL                                RC_PTR                                RC_TBL
     KEY_PTR                               KEY_TBL                               AC_PTR
     FIRST_TIME_CALLED                     BASE_DBK                              AC_TBL
     ZI$DIR                                SCHEMA_ACTIVE                         RECORD_LIST
     SET_LIST                              RETAIN_LIST                           DUMP_FID
     ALTKY                                 INIT_RG                               KEY_RNG
     ITEM_LIST
PL6.E3A0      #003=ZIU$PA_CMPKEY File=ZIU$COMPACT.:ZIC0TSI                       FRI 09/05/97 13:10 Page:222


     1145        1        /*T***********************************************************/
     1146        2        /*T*                                                         */
     1147        3        /*T* Copyright (c) Bull HN Information Systems Inc., 1997    */
     1148        4        /*T*                                                         */
     1149        5        /*T***********************************************************/
     1150        6
     1151        7        /*
     1152        8              SORT KCE PROCEDURE - ZIU$PA_CMPKEY
     1153        9        */
     1154       10        ZIU$PA_CMPKEY: PROC(REC1,REC2,RESULT) NOAUTO;

     10  1 000000   000000 700200 xent  ZIU$PA_CMPK* TSX0  ! X66_STATIC_3
         1 000001   000000 000003 0                  ZERO    0,3

     1155       11
     1156       12    1   DCL RESULT SBIN WORD; /* 0 FOR =,1 FOR <,2 FOR > */
     1157       13    1   DCL 1 REC1 CALIGNED,
     1158       14    1         2 N_PTR UBIN UNAL,
     1159       15    1         2 P_PTR UBIN UNAL,
     1160       16    1         2 MEMBER_DBK UBIN UNAL,
     1161       17    1         2 RC_PTR UBIN BYTE UNAL,
     1162       18    1         2 AC_PTR UBIN BYTE UNAL,
     1163       19    1         2 SC_PTR UBIN BYTE UNAL,
     1164       20    1         2 O_PTR UBIN UNAL,
     1165       21    1         2 KEY_LOC CHAR(1) UNAL;
     1166       22    1   DCL 1 REC2 CALIGNED,
     1167       23    1         2 N_PTR UBIN UNAL,
     1168       24    1         2 P_PTR UBIN UNAL,
     1169       25    1         2 MEMBER_DBK UBIN UNAL,
     1170       26    1         2 RC_PTR UBIN BYTE UNAL,
     1171       27    1         2 AC_PTR UBIN BYTE UNAL,
     1172       28    1         2 SC_PTR UBIN BYTE UNAL,
     1173       29    1         2 O_PTR UBIN UNAL,
     1174       30    1         2 KEY_LOC CHAR(1) UNAL;
     1175       31
     1176       32    1   DCL ZIU$DBPCF ENTRY; /* BMAP KEY COMPARE SUBR (ORIG FROM ZIM$DBPCF) */
PL6.E3A0      #003=ZIU$PA_CMPKEY File=ZIU$COMPACT.:ZIC0TSI                       FRI 09/05/97 13:10 Page:223
     1177       33
     1178       34    1   DCL X SBIN SYMREF ALIGNED;
     1179       35    1   DCL REC1$ PTR STATIC SYMDEF ALIGNED; /* CANT USE REC$ HERE */
     1180       36    1   DCL REC2$ PTR SYMREF ALIGNED;
     1181       37    1   DCL PRFR UBIN SYMREF ALIGNED;
     1182       38    1   DCL PRFR2 UBIN SYMREF ALIGNED;
     1183       39    1   DCL RC SBIN STATIC ALIGNED; /* DONT TOUCH RC_PTR HERE */
     1184       40    1   DCL SC SBIN STATIC ALIGNED;
     1185       41
     1186       42        %INCLUDE ZI_DBU_XREF;
     1187      209         %PA_XREF_TBLS;
     1188      275        %INCLUDE ZI$DIR;
     1189      432         %DIR;
     1190      576        %INCLUDE ZI_PRSE_SUBS;
     1191      732
     1192      733    1       IF REC1.O_PTR < REC2.O_PTR THEN

    733  1 000002   000002 470400 0                  LDP0    @REC2
         1 000003   000000 100500                    MLR     fill='000'O
         1 000004   000003 600004                    ADSC9   3,,PR0                   cn=3,n=4
         1 000005   000010 000004 0                  ADSC9   SC+2                     cn=0,n=4
         1 000006   000001 471400 0                  LDP1    @REC1
         1 000007   000000 100500                    MLR     fill='000'O
         1 000010   100003 600004                    ADSC9   3,,PR1                   cn=3,n=4
         1 000011   000011 000004 0                  ADSC9   SC+3                     cn=0,n=4
         1 000012   000011 236000 0                  LDQ     SC+3
         1 000013   000010 116000 0                  CMPQ    SC+2
         1 000014   000021 603000 1                  TRC     s:736

     1193      734    1           RESULT = 1;

    734  1 000015   000001 235007                    LDA     1,DL
         1 000016   000003 473400 0                  LDP3    @RESULT
         1 000017   300000 755100                    STA     0,,PR3
         1 000020   000220 710000 1                  TRA     s:783

     1194      735    1       ELSE
PL6.E3A0      #003=ZIU$PA_CMPKEY File=ZIU$COMPACT.:ZIC0TSI                       FRI 09/05/97 13:10 Page:224
     1195      736    1           IF REC1.O_PTR > REC2.O_PTR THEN

    736  1 000021   000000 100500                    MLR     fill='000'O
         1 000022   100003 600004                    ADSC9   3,,PR1                   cn=3,n=4
         1 000023   000010 000004 0                  ADSC9   SC+2                     cn=0,n=4
         1 000024   000000 100500                    MLR     fill='000'O
         1 000025   000003 600004                    ADSC9   3,,PR0                   cn=3,n=4
         1 000026   000011 000004 0                  ADSC9   SC+3                     cn=0,n=4
         1 000027   000011 236000 0                  LDQ     SC+3
         1 000030   000010 116000 0                  CMPQ    SC+2
         1 000031   000036 603000 1                  TRC     s:740

     1196      737    1               RESULT = 2;

    737  1 000032   000002 235007                    LDA     2,DL
         1 000033   000003 473400 0                  LDP3    @RESULT
         1 000034   300000 755100                    STA     0,,PR3
         1 000035   000220 710000 1                  TRA     s:783

     1197      738    1           ELSE
     1198      739    2           DO; /* OWNER DBK ARE EQUAL, NEXT COMPARE SC */

     1199      740    2               RC = REC1.RC_PTR;

    740  1 000036   000000 101500                    MRL     fill='000'O
         1 000037   100003 000001                    ADSC9   3,,PR1                   cn=0,n=1
         1 000040   000005 000004 0                  ADSC9   RC                       cn=0,n=4

     1200      741    2               SC = REC1.SC_PTR;

    741  1 000041   000000 101500                    MRL     fill='000'O
         1 000042   100003 400001                    ADSC9   3,,PR1                   cn=2,n=1
         1 000043   000006 000004 0                  ADSC9   SC                       cn=0,n=4

     1201      742    2               IF SC < REC2.SC_PTR THEN

    742  1 000044   000000 101500                    MRL     fill='000'O
PL6.E3A0      #003=ZIU$PA_CMPKEY File=ZIU$COMPACT.:ZIC0TSI                       FRI 09/05/97 13:10 Page:225
         1 000045   000003 400001                    ADSC9   3,,PR0                   cn=2,n=1
         1 000046   000010 000004 0                  ADSC9   SC+2                     cn=0,n=4
         1 000047   000010 236000 0                  LDQ     SC+2
         1 000050   000006 116000 0                  CMPQ    SC
         1 000051   000056 604400 1                  TMOZ    s:745

     1202      743    2                   RESULT = 1;

    743  1 000052   000001 235007                    LDA     1,DL
         1 000053   000003 473400 0                  LDP3    @RESULT
         1 000054   300000 755100                    STA     0,,PR3
         1 000055   000220 710000 1                  TRA     s:783

     1203      744    2               ELSE
     1204      745    2                   IF SC > REC2.SC_PTR THEN

    745  1 000056   000000 101500                    MRL     fill='000'O
         1 000057   000003 400001                    ADSC9   3,,PR0                   cn=2,n=1
         1 000060   000010 000004 0                  ADSC9   SC+2                     cn=0,n=4
         1 000061   000010 236000 0                  LDQ     SC+2
         1 000062   000006 116000 0                  CMPQ    SC
         1 000063   000070 605000 1                  TPL     s:751

     1205      746    2                       RESULT = 2;

    746  1 000064   000002 235007                    LDA     2,DL
         1 000065   000003 473400 0                  LDP3    @RESULT
         1 000066   300000 755100                    STA     0,,PR3
         1 000067   000220 710000 1                  TRA     s:783

     1206      747    2                   ELSE
     1207      748    3                   DO; /* O_PTR AND SC ALL EQUAL, COMPARE SORT_KEYS */

     1208      749         /* BUT IF WE ARE SORTING A SET WITH SORT BY DEFINED KEYS
     1209      750            WITHIN RECORDS THEN WE SHOULD COMPARE RC FIRST */
     1210      751    3                       IF SC_TBL.SETYPE(SC)=2 AND RC~=REC2.RC_PTR THEN

PL6.E3A0      #003=ZIU$PA_CMPKEY File=ZIU$COMPACT.:ZIC0TSI                       FRI 09/05/97 13:10 Page:226
    751  1 000070   000006 236000 0                  LDQ     SC
         1 000071   000405 402007                    MPY     261,DL
         1 000072   000000 116003                    CMPQ    0,DU
         1 000073   000075 605000 1                  TPL     s:751+5
         1 000074   000044 036003                    ADLQ    36,DU
         1 000075   003000 061406                    CSR     bolr='003'O
         1 000076   000004 000002 xsym               BDSC    SC_TBL+4,Q               by=0,bit=0,n=2
         1 000077   000010 000044 0                  BDSC    SC+2                     by=0,bit=0,n=36
         1 000100   000010 236000 0                  LDQ     SC+2
         1 000101   000002 116007                    CMPQ    2,DL
         1 000102   000130 601000 1                  TNZ     s:759
         1 000103   000000 101500                    MRL     fill='000'O
         1 000104   000003 000001                    ADSC9   3,,PR0                   cn=0,n=1
         1 000105   000011 000004 0                  ADSC9   SC+3                     cn=0,n=4
         1 000106   000011 236000 0                  LDQ     SC+3
         1 000107   000005 116000 0                  CMPQ    RC
         1 000110   000130 600000 1                  TZE     s:759

     1211      752    4                       DO;

     1212      753    4                           IF RC < REC2.RC_PTR THEN

    753  1 000111   000000 101500                    MRL     fill='000'O
         1 000112   000003 000001                    ADSC9   3,,PR0                   cn=0,n=1
         1 000113   000010 000004 0                  ADSC9   SC+2                     cn=0,n=4
         1 000114   000010 236000 0                  LDQ     SC+2
         1 000115   000005 116000 0                  CMPQ    RC
         1 000116   000123 604400 1                  TMOZ    s:756

     1213      754    4                               RESULT = 1;

    754  1 000117   000001 235007                    LDA     1,DL
         1 000120   000003 473400 0                  LDP3    @RESULT
         1 000121   300000 755100                    STA     0,,PR3
         1 000122   000126 710000 1                  TRA     s:757

     1214      755    4                           ELSE
PL6.E3A0      #003=ZIU$PA_CMPKEY File=ZIU$COMPACT.:ZIC0TSI                       FRI 09/05/97 13:10 Page:227
     1215      756    4                               RESULT = 2;

    756  1 000123   000002 235007                    LDA     2,DL
         1 000124   000003 473400 0                  LDP3    @RESULT
         1 000125   300000 755100                    STA     0,,PR3

     1216      757    4                           RETURN;

    757  1 000126   000000 221200 0                  LDX1  ! 0
         1 000127   000001 702211                    TSX2  ! 1,X1

     1217      758    4                           END;
     1218      759    3                       REC1$=ADDR(REC1.KEY_LOC);

    759  1 000130   000001 236000 0                  LDQ     @REC1
         1 000131   000000 036000 2                  ADLQ    0
         1 000132   000004 756000 0                  STQ     REC1$

     1219      760    3                       REC2$=ADDR(REC2.KEY_LOC);

    760  1 000133   000002 236000 0                  LDQ     @REC2
         1 000134   000000 036000 2                  ADLQ    0
         1 000135   000000 756000 xsym               STQ     REC2$

     1220      761    3                       PRFR=0;

    761  1 000136   000000 450000 xsym               STZ     PRFR

     1221      762    3                       X=RC_TBL.NO_OF_KEYS(RC);

    762  1 000137   000005 236000 0                  LDQ     RC
         1 000140   000003 402007                    MPY     3,DL
         1 000141   000002 236006 xsym               LDQ     RC_TBL+2,QL
         1 000142   000012 772000                    QRL     10
         1 000143   000077 376007                    ANQ     63,DL
         1 000144   000000 756000 xsym               STQ     X

PL6.E3A0      #003=ZIU$PA_CMPKEY File=ZIU$COMPACT.:ZIC0TSI                       FRI 09/05/97 13:10 Page:228
     1222      763    3                       IF ZI$DIR.CODE=#RESORT THEN

    763  1 000145   000125 236000 xsym               LDQ     ZI$DIR+85
         1 000146   000001 376000 2                  ANQ     1
         1 000147   000002 116000 2                  CMPQ    2
         1 000150   000160 601000 1                  TNZ     s:766

     1223      764    3                           KEY_PTR=RC_TBL.KEY_PTR(RC)+1; /* 1ST KEY */

    764  1 000151   000005 236000 0                  LDQ     RC
         1 000152   000003 402007                    MPY     3,DL
         1 000153   000002 236006 xsym               LDQ     RC_TBL+2,QL
         1 000154   001777 376007                    ANQ     1023,DL
         1 000155   000001 036007                    ADLQ    1,DL
         1 000156   000000 756000 xsym               STQ     KEY_PTR
         1 000157   000170 710000 1                  TRA     s:768

     1224      765    3                       ELSE
     1225      766    3                           KEY_PTR=SC_TBL.KEY_PTR(SC); /* 1ST KEY FOR PA SETS */

    766  1 000160   000006 236000 0                  LDQ     SC
         1 000161   000405 402007                    MPY     261,DL
         1 000162   000000 116003                    CMPQ    0,DU
         1 000163   000165 605000 1                  TPL     s:766+5
         1 000164   000044 036003                    ADLQ    36,DU
         1 000165   003000 061406                    CSR     bolr='003'O
         1 000166   000006 050022 xsym               BDSC    SC_TBL+6,Q               by=0,bit=5,n=18
         1 000167   000000 000044 xsym               BDSC    KEY_PTR                  by=0,bit=0,n=36

     1226      767         /* DO UNTIL A NON-EQUAL KEY FOUND */
     1227      768    4                       DO WHILE(X>0 AND PRFR=0);

    768  1 000170   000211 710000 1                  TRA     s:776

     1228      769    4                           PRFR=KEY_TBL.EIS(KEY_PTR);

    769  1 000171   000000 720000 xsym               LXL0    KEY_PTR
PL6.E3A0      #003=ZIU$PA_CMPKEY File=ZIU$COMPACT.:ZIC0TSI                       FRI 09/05/97 13:10 Page:229
         1 000172   000000 235010 xsym               LDA     KEY_TBL,X0
         1 000173   000000 755000 xsym               STA     PRFR

     1229      770    4                           CALL ZIU$DBPCF;

    770  1 000174   000003 631400 2                  EPPR1   3
         1 000175   000000 701000 xent               TSX1    ZIU$DBPCF
         1 000176   000000 011000                    NOP     0

     1230      771    4                           X=X-1;

    771  1 000177   000001 336007                    LCQ     1,DL
         1 000200   000000 056000 xsym               ASQ     X

     1231      772    4                           IF ZI$DIR.CODE=#RESORT THEN /* NON PA SET */

    772  1 000201   000125 236000 xsym               LDQ     ZI$DIR+85
         1 000202   000001 376000 2                  ANQ     1
         1 000203   000002 116000 2                  CMPQ    2
         1 000204   000210 601000 1                  TNZ     s:775

     1232      773    4                               KEY_PTR = KEY_PTR + 2;

    773  1 000205   000002 236007                    LDQ     2,DL
         1 000206   000000 056000 xsym               ASQ     KEY_PTR
         1 000207   000211 710000 1                  TRA     s:776

     1233      774    4                           ELSE
     1234      775    4                               KEY_PTR = KEY_PTR + 1;

    775  1 000210   000000 054000 xsym               AOS     KEY_PTR

     1235      776    4                           END;

    776  1 000211   000000 235000 xsym               LDA     X
         1 000212   000215 604400 1                  TMOZ    s:780
         1 000213   000000 236000 xsym               LDQ     PRFR
PL6.E3A0      #003=ZIU$PA_CMPKEY File=ZIU$COMPACT.:ZIC0TSI                       FRI 09/05/97 13:10 Page:230
         1 000214   000171 600000 1                  TZE     s:769

     1236      777        /*
     1237      778              ZIU$DBPCF RETURNS  COMPARING RESULT IN PRFR
     1238      779        */
     1239      780    3                       RESULT = PRFR;

    780  1 000215   000000 236000 xsym               LDQ     PRFR
         1 000216   000003 470400 0                  LDP0    @RESULT
         1 000217   000000 756100                    STQ     0,,PR0

     1240      781    3                       END;

     1241      782    2               END;

     1242      783    1   END ZIU$PA_CMPKEY;

    783  1 000220   000000 221200 0                  LDX1  ! 0
         1 000221   000001 702211                    TSX2  ! 1,X1

(unnamed)
 Sect OctLoc
   2     000   000004 600000   000007 600000   000005 200000   000000 000000    ................
     1243      784        %EOD;

PL6.E3A0      #003=ZIU$PA_CMPKEY File=ZIU$COMPACT.:ZIC0TSI                       FRI 09/05/97 13:10 Page:231
--  Include file information  --

   ZI_PRSE_SUBS.:ZIC0TOU  is referenced.
   ZI$DIR.:ZIC0TOU  is referenced.
   ZI_DBU_XREF.:ZIC0TOU  cannot be made into a system file and is referenced.
   B$JIT_C.:E05TOU  was found in the system file and is never referenced.
   CP_6_C.:E05TOU  was found in the system file and is never referenced.
      No diagnostics issued in procedure ZIU$PA_CMPKEY.

   Procedure ZIU$PA_CMPKEY requires 146 words for executable code.
   Procedure ZIU$PA_CMPKEY is declared NOAUTO and requires 10 words of local(STATIC) storage.
PL6.E3A0      #003=ZIU$PA_CMPKEY File=ZIU$COMPACT.:ZIC0TSI                       FRI 09/05/97 13:10 Page:232
          *** CROSS REFERENCE LISTING ***
**     DENOTES     IDENTIFIER DEFINITION
<<                 IDENTIFIER'S VALUE SET
>>                 IDENTIFIER'S VALUE USED
<>                 IDENTIFIER SET AND/OR USED
--                 IDENTIFIER REFERENCED
PL6.E3A0      #003=ZIU$PA_CMPKEY File=ZIU$COMPACT.:ZIC0TSI                       FRI 09/05/97 13:10 Page:233
          MINI XREF LISTING

KEY_PTR
       248**DCL       764<<ASSIGN    766<<ASSIGN    769>>ASSIGN    773<<ASSIGN    773>>ASSIGN    775<<ASSIGN
       775>>ASSIGN
KEY_TBL.EIS
       250**DCL       251--REDEF     769>>ASSIGN
PRFR
        37**DCL       761<<ASSIGN    768>>DOWHILE   769<<ASSIGN    780>>ASSIGN
RC
        39**DCL       740<<ASSIGN    751>>IF        753>>IF        762>>ASSIGN    764>>ASSIGN
RC_TBL.KEY_PTR
       246**DCL       764>>ASSIGN
RC_TBL.NO_OF_KEYS
       245**DCL       762>>ASSIGN
RC_TBL.NXPNT_EIS
       233**DCL       234--REDEF
REC1
        13**DCL        10--PROC
REC1.KEY_LOC
        21**DCL       759--ASSIGN
REC1.O_PTR
        20**DCL       733>>IF        736>>IF
REC1.RC_PTR
        17**DCL       740>>ASSIGN
REC1.SC_PTR
        19**DCL       741>>ASSIGN
REC1$
        35**DCL       759<<ASSIGN
REC2
        22**DCL        10--PROC
REC2.KEY_LOC
        30**DCL       760--ASSIGN
REC2.O_PTR
PL6.E3A0      #003=ZIU$PA_CMPKEY File=ZIU$COMPACT.:ZIC0TSI                       FRI 09/05/97 13:10 Page:234
        29**DCL       733>>IF        736>>IF
REC2.RC_PTR
        26**DCL       751>>IF        753>>IF
REC2.SC_PTR
        28**DCL       742>>IF        745>>IF
REC2$
        36**DCL       760<<ASSIGN
RESULT
        12**DCL        10--PROC      734<<ASSIGN    737<<ASSIGN    743<<ASSIGN    746<<ASSIGN    754<<ASSIGN
       756<<ASSIGN    780<<ASSIGN
SC
        40**DCL       741<<ASSIGN    742>>IF        745>>IF        751>>IF        766>>ASSIGN
SC_TBL.KEY_PTR
       227**DCL       228--REDEF     766>>ASSIGN
SC_TBL.SETYPE
       217**DCL       751>>IF
X
        34**DCL       762<<ASSIGN    768>>DOWHILE   771<<ASSIGN    771>>ASSIGN
ZI$DIR.ALTKEY
       504**DCL       505--REDEF     506--REDEF
ZI$DIR.AREAFID
       470**DCL       471--REDEF
ZI$DIR.CODE
       486**DCL       763>>IF        772>>IF
ZI$DIR.DATE
       509**DCL       513--REDEF
ZI$DIR.DEST_SEED
       465**DCL       466--REDEF     467--REDEF
ZI$DIR.ENCP_SEED
       462**DCL       463--REDEF     464--REDEF
ZI$DIR.REPRT_ZERO
       496**DCL       497--REDEF
ZI$DIR.SCHFID
       468**DCL       469--REDEF
ZI$DIR.TIME
       514**DCL       519--REDEF
PL6.E3A0      #003=ZIU$PA_CMPKEY File=ZIU$COMPACT.:ZIC0TSI                       FRI 09/05/97 13:10 Page:235
ZIU$DBPCF
        32**DCL-ENT   770--CALL

PL6.E3A0      #004=STORE_AN_ENTRY File=ZIU$COMPACT.:ZIC0TSI                      FRI 09/05/97 13:10 Page:236
     1244        1        /*T***********************************************************/
     1245        2        /*T*                                                         */
     1246        3        /*T* Copyright (c) Bull HN Information Systems Inc., 1997    */
     1247        4        /*T*                                                         */
     1248        5        /*T***********************************************************/
     1249        6
     1250        7        /*
     1251        8              RECURSIVE SUBR  STORE_A_ENTRY - STORE A ENTRY IN THE
     1252        9                        PA_REC IN CURRENT OF LEVEL WITH KEY PASSED
     1253       10              SC_PTR -  POINTS TO THE PA SET IN SC_TBL
     1254       11        */
     1255       12        STORE_AN_ENTRY: PROC(PA_KEY) ALTRET; /* ALTRET ON WRIT TEMP IO ERR */
     1256       13
     1257       14    1   DCL ERROR_MSG ENTRY(4);
     1258       15    1   DCL BIN_CHAR ENTRY(2);
     1259       16    1   DCL FIND_DIRECT ENTRY(2);
     1260       17    1   DCL CREATE_PAREC ENTRY;
     1261       18    1   DCL PUSH_PAENTRY ENTRY(1);
     1262       19
     1263       20    1   DCL ERASE_PAREC ENTRY;
     1264       21    1   DCL PA_KEY CHAR(KEY_LEN) CALIGNED;
     1265       22    1   DCL LEVEL# SBIN SYMREF ALIGNED;
     1266       23    1   DCL CURR_OWNER UBIN SYMREF ALIGNED;
     1267       24    1   DCL REC_CNT SBIN SYMREF ALIGNED;
     1268       25    1   DCL 1 KEY SYMREF ALIGNED,
     1269       26    1         2 * UBIN BYTE UNAL,
     1270       27    1         2 TXT UBIN WORD UNAL,
     1271       28    1         2 RC_PTR UBIN BYTE UNAL;
     1272       29    1   DCL COMMAND_TEXT CHAR(9) SYMREF ALIGNED;
     1273       30    1   DCL BUF_PTR SBIN SYMREF ALIGNED;
     1274       31    1   DCL ENTRY_LEN UBIN SYMREF ALIGNED; /* ENTRY_LEN=2+KEY_LEN+PTR_LEN */
     1275       32    1   DCL NO_OF_LEVELS UBIN SYMREF ALIGNED;
     1276       33    1   DCL POOL_MAX SBIN WORD SYMREF ALIGNED;
     1277       34    1   DCL SWAP_PTR SBIN WORD SYMREF ALIGNED;
     1278       35    1   DCL 1 POOL(0:95) SYMREF ALIGNED,
     1279       36    1         2 MUST_WRITE BIT(1) UNAL,
     1280       37    1         2 LOCKS UBIN(9) UNAL,
PL6.E3A0      #004=STORE_AN_ENTRY File=ZIU$COMPACT.:ZIC0TSI                      FRI 09/05/97 13:10 Page:237
     1281       38    1         2 PAGE# UBIN(26) UNAL;
     1282       39    1   DCL 1 STK(0:1) SYMREF ALIGNED,
     1283       40    1         2 NEXT SBIN ALIGNED,
     1284       41    1         2 PRIOR SBIN ALIGNED,
     1285       42    1         2 CURR SBIN ALIGNED,
     1286       43    1         2 RC_PTR UBIN BYTE UNAL,
     1287       44    1         2 AC_PTR UBIN BYTE UNAL;
     1288       45    1   DCL 1 CURR_LEVEL(0:31) SYMREF ALIGNED,
     1289       46    1         2 DBK UBIN WORD ALIGNED,
     1290       47    1         2 FIRST_PA UBIN ALIGNED,
     1291       48    1         2 ENT_NO UBIN HALF UNAL,
     1292       49    1         2 DUPIND BIT(1) UNAL,
     1293       50    1         2 BUF_PTR UBIN(8) UNAL,
     1294       51    1         2 * UBIN(9) UNAL,
     1295       52    1         2 REC$ PTR ALIGNED;
     1296       53    1   DCL BREAK_CLEANUP BIT(72) SYMREF ALIGNED;
     1297       54    1   DCL Y SBIN STATIC ALIGNED;
     1298       55    1   DCL CHAR_V CHAR(Y) BASED CALIGNED;
     1299       56    1   DCL Z SBIN STATIC ALIGNED;
     1300       57    1   DCL NEW_HIGHEST UBIN STATIC ALIGNED;
     1301       58    1   DCL X SBIN STATIC ALIGNED; /* MUST BE LOCAL,DONT INCLUDE ZI_GLOBAL */
     1302       59    1   DCL BREAK_FLAG SBIN SYMREF ALIGNED;
     1303       60    1   DCL POINTER SBIN STATIC ALIGNED;
     1304       61    1   DCL REC2$ PTR SYMREF ALIGNED;
     1305       62    1   DCL REC$ PTR SYMREF ALIGNED;
     1306       63    1   DCL PTR_V CHAR(PTR_LEN) BASED(REC2$) CALIGNED;
     1307       64    1   DCL KEY_V CHAR(KEY_LEN) BASED(REC2$) CALIGNED;
     1308       65    1   DCL 1 DUMMY_V BASED(REC2$) CALIGNED,
     1309       66    1         2 * CHAR(KEY_LEN) CALIGNED;
     1310       67        /*
     1311       68              LOCAL AUTO VARIABLES
     1312       69        */
     1313       70    1   DCL LOC_PTR UBIN AUTO ALIGNED;
     1314       71    1   DCL GLO_PTR UBIN AUTO ALIGNED;
     1315       72    1   DCL RC_TYPE UBIN AUTO ALIGNED;
     1316       73        %EJECT;
PL6.E3A0      #004=STORE_AN_ENTRY File=ZIU$COMPACT.:ZIC0TSI                      FRI 09/05/97 13:10 Page:238
     1317       74
     1318       75        %EQU LOCK_BUF = 2;
     1319       76        %EQU MUST_WRITE = 1;
     1320       77        %EQU DONT_LOCK = 0;
     1321       78        %EQU DONT_ERROR = -1;
     1322       79        %INCLUDE CP_6;
     1323      160         %FPT_WRITE(FPTN=WRITE_TEMP,STCLASS=SYMREF);
     1324      191        %INCLUDE ZI_DBU_XREF;
     1325      358         %PA_XREF_TBLS;
     1326      424        %INCLUDE ZI_GLOBAL_DBUTIL;
     1327      602         %PAREC(STCLASS=SYMREF); /* DONT INVOKE MISC_DCLS */
     1328      629        %INCLUDE ZI_PRSE_SUBS;
     1329      785        %INCLUDE ZI_ERRORS_SUBS;
     1330     1305        %INCLUDE CP_6_SUBS;
     1331     1845        %EJECT;
PL6.E3A0      #004=STORE_AN_ENTRY File=ZIU$COMPACT.:ZIC0TSI                      FRI 09/05/97 13:10 Page:239
     1332     1846    1       IF BREAK_FLAG > 0 THEN /* IF BREAK HIT,WILL BE PICKEDUP HERE */
     1333     1847    1           UNWIND TO BREAK_CLEANUP;
     1334     1848
     1335     1849    1       IF LEVEL# = 0 THEN /* NEED TO CREATE HIGHEST LEVEL OF PA */
     1336     1850    2       DO;
     1337     1851    2           NO_OF_LEVELS = NO_OF_LEVELS + 1; /* INCREMENT TOTAL # LEVELS */
     1338     1852    2           IF NO_OF_LEVELS>32 THEN /* OVER 32 LEVELS ????,GOTO BE WRONG? */
     1339     1853    3           DO;
     1340     1854    3               CALL BIN_CHAR(2,CURR_OWNER);
     1341     1855    3               CALL ERROR_MSG(DBU#PALEV33,SC_TBL.NAME(SC_PTR),COMMAND_TEXT);
     1342     1856    3               UNWIND TO BREAK_CLEANUP;
     1343     1857         /*E* ERROR: ZIU-DBU#PALEV33-C
     1344     1858                    MESSAGE: Error: For an unknown reason, we are having more
     1345     1859                                    than 32 levels of PA, while set name is "%U1" and
     1346     1860                                    owner DBK# is %U3. %U2 cannot handle that many. */
     1347     1861    3               END;
     1348     1862    3           DO LEVEL#=NO_OF_LEVELS DOWNTO 1; /* MOVE EVERY LEVEL DOWN */
     1349     1863    3               CURR_LEVEL(LEVEL#)=CURR_LEVEL(LEVEL#-1);
     1350     1864    3               END;
     1351     1865
     1352     1866    2           CALL CREATE_PAREC; /* CREATE HIGHEST PA_REC */
     1353     1867
     1354     1868    2           PA_REC.FIRST_IN_LEVEL = '1'B; /* SETUP PA BITS */
     1355     1869    2           CURR_LEVEL.ENT_NO(0)=0; /* SETUP CONTROL VARIABLE */
     1356     1870    2           CURR_LEVEL.DUPIND(0)='0'B;
     1357     1871    2           CURR_LEVEL.FIRST_PA(0)=CURR_LEVEL.DBK(0);
     1358     1872    2           POINTER=CURR_OWNER; /* LINK NEXT,PRIOR,OWNER TO CURR OWNER */
     1359     1873    2           REC2$=PINCRC(REC$,8);
     1360     1874    2           CALL STORE_PTR;
     1361     1875    2           POINTER=CURR_OWNER;
     1362     1876    2           REC2$=PINCRC(REC2$,PTR_LEN);
     1363     1877    2           CALL STORE_PTR;
     1364     1878    2           REC2$=PINCRC(REC2$,PTR_LEN);
     1365     1879    2           POINTER=CURR_OWNER;
     1366     1880    2           CALL STORE_PTR;
     1367     1881    2           IF STK.CURR(1)=CURR_OWNER THEN /* INSERT DUMMY */
     1368     1882    2               STK.NEXT(1)=CURR_LEVEL.DBK(0); /* FAKE POINTER */
PL6.E3A0      #004=STORE_AN_ENTRY File=ZIU$COMPACT.:ZIC0TSI                      FRI 09/05/97 13:10 Page:240
     1369     1883    2           END;
     1370     1884    1       ELSE
     1371     1885    1           LEVEL# = LEVEL# - 1;
     1372     1886
     1373     1887    1       REC$ = CURR_LEVEL.REC$(LEVEL#); /* GET CURR PA IN LEVEL */
     1374     1888    1       IF LEVEL#=NO_OF_LEVELS THEN /* WE ARE IN LOWEST LEVEL OF PA */
     1375     1889    2       DO;
     1376     1890    2           RC_TYPE = RC_TBL.TYPE(STK.RC_PTR(1)); /* GET TYPE OF CURR MEMBER */
     1377     1891    2           GLO_PTR = STK.CURR(1); /* AND ITS DBK */
     1378     1892    2           END;
     1379     1893    1       ELSE
     1380     1894    2       DO; /* WE ARE STOREING AN ENTRY TO A PA_REC */
     1381     1895    2           RC_TYPE = SC_TBL.PA_TYPE(SC_PTR);
     1382     1896    2           GLO_PTR = CURR_LEVEL.DBK(LEVEL#+1); /* GET PA IN LOWER LEVEL */
     1383     1897    2           END;
     1384     1898    1       LOC_PTR = GLO_PTR - BASE_DBK; /* IF SC GLOBAL THEN BASE_DBK=0 */
     1385     1899    1       IF CURR_LEVEL.ENT_NO(LEVEL#)=0 THEN /* NO ENTRY STORED YET */
     1386     1900    2       DO;
     1387     1901    2   STORE_FIRST_ENTRY: /* ENTRY IS 1ST ONE TO BE STORED IN PA */
     1388     1902    2           IF CURR_LEVEL.DUPIND(LEVEL#) THEN
     1389     1903    2               PA_REC.LOWEST_KEY='1'B; /* LOWEST KEY REPEATED IN PRIOR */
     1390     1904    2           ELSE
     1391     1905    2               PA_REC.LOWEST_KEY='0'B;
     1392     1906    2           PA_REC.HIGHEST_KEY='0'B; /* INIT HIGHEST REPEAT BIT */
     1393     1907    2           PA_REC.ENTRIES=1;
     1394     1908    2           PA_REC.LAST_IN_LEVEL='0'B; /* SET TO 1 BY PA_CLEANUP */
     1395     1909    2           CURR_LEVEL.DUPIND(LEVEL#)='0'B; /* RESET INDICATOR */
     1396     1910    2           CURR_LEVEL.ENT_NO(LEVEL#)=2*4+3*PTR_LEN;
     1397     1911    2           PA_REC.AVAIL=PA_REC.SIZE-CURR_LEVEL.ENT_NO(LEVEL#)-ENTRY_LEN;
     1398     1912    2           ENTRY$=PINCRC(REC$,CURR_LEVEL.ENT_NO(LEVEL#)); /* TO PA_ENTRY */
     1399     1913    2           PA_ENTRY.C=0;
     1400     1914    2           PA_ENTRY.TYPE = RC_TYPE;
     1401     1915    2           PA_ENTRY.PTRS=PINCRC(ADDR(LOC_PTR),4-PTR_LEN)->PTR_V;
     1402     1916    2           REC2$=PINCRC(ENTRY$,2+PTR_LEN); /* POINT TO KEY_LOC */
     1403     1917    2           IF ADDR(PA_KEY)=ADDR(NIL) THEN /* DUMMY KEY */
     1404     1918    2               DUMMY_V = '0'B; /* USE BINARY 0 FOR KEY IN ENTRY */
     1405     1919    2           ELSE
PL6.E3A0      #004=STORE_AN_ENTRY File=ZIU$COMPACT.:ZIC0TSI                      FRI 09/05/97 13:10 Page:241
     1406     1920    2               KEY_V = PA_KEY; /* USE KEY THAT IS PASSED */
     1407     1921    2           END;
     1408     1922        %EJECT;
PL6.E3A0      #004=STORE_AN_ENTRY File=ZIU$COMPACT.:ZIC0TSI                      FRI 09/05/97 13:10 Page:242
     1409     1923    1       ELSE
     1410     1924    2       DO; /* CURR_PA IS NOT EMPTY, SO CHK IF FULL FIRST */
     1411     1925    2           ENTRY$=PINCRC(REC$,CURR_LEVEL.ENT_NO(LEVEL#));
     1412     1926    2           REC2$=PINCRC(ENTRY$,2+PTR_LEN); /* POINT THE LAST KEY IN REC */
     1413     1927    2           IF PA_KEY=KEY_V THEN /* DUPLICATE KEYS */
     1414     1928    3           DO;
     1415     1929    3               IF PA_ENTRY.C=1 THEN /* PA_GROUP ALREADY EXISTS */
     1416     1930    3                   X=PTR_LEN+2; /* NEED 2 BYTES FOR TYPE AND PLUS PTR_LEN */
     1417     1931    3               ELSE
     1418     1932    3                   X=2*PTR_LEN+4+2; /* 2 PTRS+ 2 TYPES + 2 BYTES FOR COUNT */
     1419     1933    3               END;
     1420     1934    2           ELSE
     1421     1935    2               X=ENTRY_LEN; /* REGULAR ENTRY SIZE IS NEEDED */
     1422     1936
     1423     1937    2           IF PA_REC.AVAIL-X<SC_TBL.FULL_PERCENT(SC_PTR) THEN /* NO SPACE */
     1424     1938    3           DO;
     1425     1939    3               IF PA_KEY=KEY_V THEN /* DUP KEY OCCUR */
     1426     1940    4               DO;
     1427     1941    4                   CURR_LEVEL.DUPIND(LEVEL#)='1'B; /* SET INDICATOR */
     1428     1942    4                   PA_REC.HIGHEST_KEY='1'B; /* SET HIGHEST KEY REPEATED BIT */
     1429     1943    4                   END;
     1430     1944    3               REC2$=PINCRC(REC$,10+4*PTR_LEN); /* 1ST KEY IN LOWER LEVEL */
     1431     1945
     1432     1946    3               CALL STORE_AN_ENTRY(KEY_V) ALTRET(ALT_WRIT_TEMP);
     1433     1947         /* IN HIGHER LEVEL PA */
     1434     1948
     1435     1949    3               REC2$=PINCRC(REC$,8); /* POINT TO NEXT PTR LOC */
     1436     1950    3               CALL LOAD_PTR; /* LOAD NEXT PTR OF PA */
     1437     1951    3               IF POINTER~=CURR_LEVEL.FIRST_PA(LEVEL#) AND
     1438     1952    3                  POINTER~=CURR_OWNER THEN /* NEXT PA EXIST */
     1439     1953    4               DO;
     1440     1954    4                   BUF_PTR=CURR_LEVEL.BUF_PTR(LEVEL#); /* GET BUFF ADDR */
     1441     1955    4                   POOL.LOCKS(BUF_PTR)=POOL.LOCKS(BUF_PTR)-1; /* UNLOCK IT */
     1442     1956    4                   CALL FIND_DIRECT(POINTER,%LOCK_BUF);
     1443     1957    4                   CURR_LEVEL.DBK(LEVEL#)=POINTER; /* NEW CURR_OF_LEVEL */
     1444     1958    4                   CURR_LEVEL.REC$(LEVEL#)=REC$;
     1445     1959    4                   IF LEVEL# = NO_OF_LEVELS THEN /* LOWEST LEVEL */
PL6.E3A0      #004=STORE_AN_ENTRY File=ZIU$COMPACT.:ZIC0TSI                      FRI 09/05/97 13:10 Page:243
     1446     1960    4                       CALL PUSH_PAENTRY(POINTER); /* BET YOU DIR=COMPACT */
     1447     1961    4                   END;
     1448     1962    3               ELSE /* RUNNING OUT OF INDEX BLOCK, SO MAKE ONE */
     1449     1963    4               DO; /* AND LINK INTO CURR OF LEVEL */
     1450     1964    4                   IF LEVEL# = NO_OF_LEVELS THEN /* LOWEST LEVEL */
     1451     1965    4                       FIRST_TIME_CALLED=1; /* ONLY USED BY COMPACT FOR E-O-S */
     1452     1966    4                   X=CURR_LEVEL.DBK(LEVEL#); /* SAVE CURR (BECOME PRIOR) */
     1453     1967    4                   Y=CURR_LEVEL.BUF_PTR(LEVEL#); /* AND ITS BUF PTR */
     1454     1968
     1455     1969    4                   CALL CREATE_PAREC; /* CREATE A NEW ONE AND BECOME CURR */
     1456     1970
     1457     1971    4                   POOL.LOCKS(Y)=POOL.LOCKS(Y)-1; /* UNLOCK PRIOR */
     1458     1972    4                   POINTER=CURR_LEVEL.DBK(LEVEL#); /* LINK LAST PA TO NEW PA */
     1459     1973         /* REC2$ POINTS TO THE NEXT PTR LOC IN PRIOR REC */
     1460     1974    4                   CALL STORE_PTR; /* STORE NEW NEXT PTR */
     1461     1975         /* LET NEXT OF NEW PA BE OWNER, SO WE KNOW END OF SET
     1462     1976            AND WHEN WE DOING A PA_CLEANUP, WE KNOW THE PRIOR PTR
     1463     1977            OF THE FIRST PA IN LEVEL SHOULD BE UPDATED TOO */
     1464     1978    4                   POINTER = CURR_OWNER;
     1465     1979    4                   REC2$=PINCRC(REC$,8); /* LINK NEXT OF NEW PA TO OWNER */
     1466     1980    4                   CALL STORE_PTR;
     1467     1981    4                   POINTER=X; /* LINK PRIOR TO THE SAVED CURR */
     1468     1982    4                   REC2$=PINCRC(REC2$,PTR_LEN);
     1469     1983    4                   CALL STORE_PTR;
     1470     1984         /* DONT WORRY OWNER PTR , WILL BE CHECKED LATER */
     1471     1985    4                   END;
     1472     1986    3               GOTO STORE_FIRST_ENTRY;
     1473     1987    3               END;
     1474     1988
     1475     1989    2           PA_REC.AVAIL=PA_REC.AVAIL-X; /* UPDATE SPACE AVAIL */
     1476     1990    2           IF PA_KEY~=KEY_V THEN /* STORE A UNIQUE ENTRY */
     1477     1991    3           DO;
     1478     1992    3               CURR_LEVEL.ENT_NO(LEVEL#)=CURR_LEVEL.ENT_NO(LEVEL#)+X;
     1479     1993    3               ENTRY$=PINCRC(REC$,CURR_LEVEL.ENT_NO(LEVEL#));
     1480     1994    3               PA_REC.ENTRIES=PA_REC.ENTRIES+1;
     1481     1995    3               PA_ENTRY.C=0;
     1482     1996    3               PA_ENTRY.TYPE = RC_TYPE;
PL6.E3A0      #004=STORE_AN_ENTRY File=ZIU$COMPACT.:ZIC0TSI                      FRI 09/05/97 13:10 Page:244
     1483     1997    3               PA_ENTRY.PTRS=PINCRC(ADDR(LOC_PTR),4-PTR_LEN)->PTR_V;
     1484     1998    3               REC2$=PINCRC(ENTRY$,2+PTR_LEN); /* POINT TO KEY IN ENTRY */
     1485     1999    3               KEY_V=PA_KEY;
     1486     2000    3               END;
     1487     2001    2           ELSE
     1488     2002    2               IF PA_ENTRY.C=0 THEN /* DUP KEY BUT PA_GROUP NOT PRESENT */
     1489     2003    3               DO;
     1490     2004    3                   X=CURR_LEVEL.ENT_NO(LEVEL#)+ENTRY_LEN+PA_REC.AVAIL;
     1491     2005    3                   GROUP$=PINCRC(REC$,X);
     1492     2006    3                   PA_GROUP.NO_GROUPS=2;
     1493     2007    3                   PA_GROUP.TYPE=PA_ENTRY.TYPE;
     1494     2008    3                   PA_GROUP.PTRS=PA_ENTRY.PTRS; /* GET PTR FROM ENTRY */
     1495     2009    3                   PA_ENTRY.C=1; /* SET PA_GROUP PRESENT */
     1496     2010    3                   PA_ENTRY.TYPE=0;
     1497     2011    3                   PA_ENTRY.PTRS=PINCRC(ADDR(X),4-PTR_LEN)->PTR_V;
     1498     2012    3                   GROUP$=PINCRC(GROUP$,2+PTR_LEN);
     1499     2013    3                   PA_GROUP.TYPE=RC_TYPE;
     1500     2014    3                   PA_GROUP.PTRS=PINCRC(ADDR(LOC_PTR),4-PTR_LEN)->PTR_V;
     1501     2015    3                   END;
     1502     2016    2               ELSE
     1503     2017    3               DO; /* DUP KEY AND PA_GROUP ALREADY THERE */
     1504     2018    3                   X=0;
     1505     2019    3                   PINCRC(ADDR(X),4-PTR_LEN)->PTR_V=PA_ENTRY.PTRS;
     1506     2020    3                   GROUP$=PINCRC(REC$,X); /* POINT TO OLD PA_GROUP */
     1507     2021    3                   X=X-2-PTR_LEN; /* NEW OFFSET FOR PA_GROUP */
     1508     2022    3                   PA_ENTRY.PTRS=PINCRC(ADDR(X),4-PTR_LEN)->PTR_V; /* UPDATE */
     1509     2023    3                   X=PA_GROUP.NO_GROUPS; /* GET OLD NUMBER OF PTRS IN GROUP */
     1510     2024    3                   Y=2+(2+PTR_LEN)*X; /* Y=THE SIZE OF OLD PTR GROUP */
     1511     2025    3                   PINCRC(GROUP$,-2-PTR_LEN)->CHAR_V = GROUP$->CHAR_V;
     1512     2026         /* SHIFT OLD PTR GROUP UP BY 2+PTR_LEN BYTES */
     1513     2027    3                   GROUP$ = PINCRC(GROUP$,-2-PTR_LEN); /* POINT TO NEW PA_GROUP */
     1514     2028    3                   PA_GROUP.NO_GROUPS = X+1; /* UPDATE NEW NUM OF PTRS */
     1515     2029    3                   GROUP$=PINCRC(GROUP$,X*(2+PTR_LEN)); /* POINT TO LAST PTR */
     1516     2030    3                   PA_GROUP.TYPE=RC_TYPE; /* STORE NEW PTR IN PTR GROUP */
     1517     2031    3                   PA_GROUP.PTRS=PINCRC(ADDR(LOC_PTR),4-PTR_LEN)->PTR_V;
     1518     2032    3                   END;
     1519     2033    2           END;
PL6.E3A0      #004=STORE_AN_ENTRY File=ZIU$COMPACT.:ZIC0TSI                      FRI 09/05/97 13:10 Page:245
     1520     2034    1       LEVEL# = LEVEL# + 1;
     1521     2035    1       IF LEVEL#<=NO_OF_LEVELS THEN /* WE ARE IN HIGHER LEVEL */
     1522     2036    2       DO; /* RECURSIVE RETURNS, SO RESTORE REC$ */
     1523     2037    2           REC$ = CURR_LEVEL.REC$(LEVEL#);
     1524     2038    2           REC2$= PINCRC(REC$,8+2*PTR_LEN);
     1525     2039    2           CALL LOAD_PTR; /* LOAD THE OWNER PTR */
     1526     2040    2           IF POINTER~=CURR_LEVEL.DBK(LEVEL#-1) THEN
     1527     2041    3           DO; /* OWNER PTR OF THIS PA NEEDS  TO BE UPDATED */
     1528     2042    3               POINTER = CURR_LEVEL.DBK(LEVEL#-1);
     1529     2043    3               CALL STORE_PTR;
     1530     2044    3               END;
     1531     2045    2           END;
     1532     2046    1       ELSE
     1533     2047    1           IF STK.NEXT(1)~=CURR_LEVEL.DBK(LEVEL#-1) THEN
     1534     2048    2           DO; /* THE PA_OWNER PTR OF THIS PA_MEMBER NEEDS TO BE UPDATED */
     1535     2049    2               STK.NEXT(1)=CURR_LEVEL.DBK(LEVEL#-1); /* NEW PA OWNER PTR */
     1536     2050    2               KEY.TXT=STK.CURR(1);
     1537     2051    2               KEY.RC_PTR = STK.RC_PTR(1);
     1538     2052    2               CALL M$WRITE(WRITE_TEMP) ALTRET(ALT_WRIT_TEMP);
     1539     2053    2               REC_CNT = REC_CNT + 1;
     1540     2054    2               END;
     1541     2055    1       RETURN;
     1542     2056
     1543     2057        %EJECT;
PL6.E3A0      #004=STORE_AN_ENTRY File=ZIU$COMPACT.:ZIC0TSI                      FRI 09/05/97 13:10 Page:246
     1544     2058        /*
     1545     2059              SUBR   LOAD_PTR   AND   STORE_PTR
     1546     2060                     INPUT:  POINTER - UBIN WORD CONTAINING AFTER LOAD PTR
     1547     2061                             REC2$   - PTR TO LOCATION OF PTR
     1548     2062        */
     1549     2063    1   LOAD_PTR: PROC;
     1550     2064
     1551     2065    2       POINTER=0; /* INIT BEFORE LOADING IN CASE GARBAGE */
     1552     2066    2       PINCRC(ADDR(POINTER),4-PTR_LEN)->PTR_V=PTR_V;
     1553     2067    2       IF POINTER>0 THEN /* IF =0,DONT ADJUST PTR */
     1554     2068    2           POINTER=POINTER+BASE_DBK; /* IF SC LOCAL,ADJUST DBK */
     1555     2069    2       RETURN; /* WITH PTR LOADED IN POINTER */
     1556     2070
     1557     2071    2   STORE_PTR: ENTRY;
     1558     2072
     1559     2073    2       POINTER = POINTER - BASE_DBK; /* CONV TO LOCAL IF SC IS LOCAL */
     1560     2074    2       PTR_V=PINCRC(ADDR(POINTER),4-PTR_LEN)->PTR_V;
     1561     2075
     1562     2076    2   END LOAD_PTR;
     1563     2077         %EJECT;
PL6.E3A0      #004=STORE_AN_ENTRY File=ZIU$COMPACT.:ZIC0TSI                      FRI 09/05/97 13:10 Page:247
     1564     2078
     1565     2079    1   PA_CLEANUP: ENTRY ALTRET;
     1566     2080
     1567     2081    1       NEW_HIGHEST = 0;
     1568     2082    2       DO LEVEL#=NO_OF_LEVELS DOWNTO 1; /* NO NEED TO CHECK HIGHEST LEVEL */
     1569     2083    2           REC$ = CURR_LEVEL.REC$(LEVEL#);
     1570     2084    2           PA_REC.LAST_IN_LEVEL='1'B; /* SET LAST IN LEVEL BIT */
     1571     2085    2           REC2$=PINCRC(REC$,2*4+4*PTR_LEN+2); /* FIRST KEY IN PA */
     1572     2086
     1573     2087    2           CALL STORE_AN_ENTRY(KEY_V) ALTRET(ALT_WRIT_TEMP);
     1574     2088
     1575     2089    2           IF PA_REC.FIRST_IN_LEVEL AND NEW_HIGHEST=0 THEN
     1576     2090    2               NEW_HIGHEST = LEVEL#; /* THIS SHOULD BE THE NEW HIGHEST PA */
     1577     2091    2           REC2$=PINCRC(REC$,8); /* LOCATION OF NEXT PTR */
     1578     2092    2           CALL LOAD_PTR; /* LOAD IT */
     1579     2093    2           X = POINTER;
     1580     2094    2           IF X~= CURR_LEVEL.FIRST_PA(LEVEL#) THEN
     1581     2095    3           DO;
     1582     2096    3               POINTER = CURR_LEVEL.FIRST_PA(LEVEL#); /* NEW NEXT PTR */
     1583     2097    3               CALL STORE_PTR; /* UPDATE TO NEW PTR */
     1584     2098    3               CALL FIND_DIRECT(CURR_LEVEL.FIRST_PA(LEVEL#),%MUST_WRITE);
     1585     2099    3               REC2$=PINCRC(REC$,8+PTR_LEN); /* LOCATION OF PRIOR PTR */
     1586     2100    3               POINTER=CURR_LEVEL.DBK(LEVEL#); /* PRIOR OF FIRST PA */
     1587     2101    3               CALL STORE_PTR;
     1588     2102    3               IF X=CURR_OWNER THEN /* IT IS A NEW CREATED PA */
     1589     2103    3                   X=CURR_LEVEL.FIRST_PA(LEVEL#); /* FORCE A END OF SET */
     1590     2104    4               DO WHILE(X~=CURR_LEVEL.FIRST_PA(LEVEL#));
     1591     2105
     1592     2106         /* NOW WE WILL ERASE ALL PA FROM THEN ON */
     1593     2107    4                   CALL FIND_DIRECT(X,%MUST_WRITE);
     1594     2108    4                   REC2$ = PINCRC(REC$,8); /* GET THE NEXT PTR */
     1595     2109    4                   CALL LOAD_PTR;
     1596     2110    4                   X = POINTER; /* X=NEXT POINTER OF THIS ERASED PA */
     1597     2111    4                   CALL ERASE_PAREC; /* THEN ERASE IT */
     1598     2112         /* ONCE A RECORD IS ERASED, REC$ CAN NO LONGER TRUSTED */
     1599     2113    5                   DO Z=0 TO LEVEL#-1;
     1600     2114    5                       POINTER=CURR_LEVEL.DBK(Z); /* GET CURR IN LEVEL */
PL6.E3A0      #004=STORE_AN_ENTRY File=ZIU$COMPACT.:ZIC0TSI                      FRI 09/05/97 13:10 Page:248
     1601     2115    5                       CALL FIND_DIRECT(POINTER,%DONT_LOCK);
     1602     2116    5                       CURR_LEVEL.REC$(Z)=REC$; /* SETUP NEW REC$ */
     1603     2117    5                       END;
     1604     2118    4                   END;
     1605     2119    3               END;
     1606     2120    2           BUF_PTR=CURR_LEVEL.BUF_PTR(LEVEL#);
     1607     2121    2           POOL.LOCKS(BUF_PTR)=POOL.LOCKS(BUF_PTR)-1; /* UNLOCK CURR */
     1608     2122    2           END; /* CHKING EACH LEVEL,UNLOCKING, ERASING EXCESSIVE PAS */
     1609     2123    1       BUF_PTR=CURR_LEVEL.BUF_PTR(0);
     1610     2124    1       POOL.LOCKS(BUF_PTR)=POOL.LOCKS(BUF_PTR)-1; /* UNLOCK CURR OF LEVEL */
     1611     2125    1       REC$=CURR_LEVEL.REC$(0); /* GET HIGHEST LEVEL OF PA_EC */
     1612     2126    1       PA_REC.LAST_IN_LEVEL='1'B; /* SET LAST IN LEVEL BIT */
     1613     2127
     1614     2128    1       IF NEW_HIGHEST > 0 THEN /* WE CAN REDUCE NO_OF_LEVELS */
     1615     2129    2       DO;
     1616     2130    2           CALL FIND_DIRECT(CURR_LEVEL.DBK(NEW_HIGHEST),%MUST_WRITE);
     1617     2131    2           REC2$=PINCRC(REC$,8);
     1618     2132    2           POINTER=CURR_OWNER; /* NEXT PTR OF HIGHEST PA IS OWNER */
     1619     2133    2           CALL STORE_PTR;
     1620     2134    2           REC2$=PINCRC(REC2$,PTR_LEN); /* PRIOR IS ALSO OWNER */
     1621     2135    2           POINTER=CURR_OWNER;
     1622     2136    2           CALL STORE_PTR;
     1623     2137    2           REC2$=PINCRC(REC2$,PTR_LEN);
     1624     2138    2           POINTER=CURR_OWNER;
     1625     2139    2           CALL STORE_PTR;
     1626     2140    3           DO Z=0 TO NEW_HIGHEST-1; /* ERASE ALL THE HIGHER PA */
     1627     2141    3               CALL FIND_DIRECT(CURR_LEVEL.DBK(Z),%MUST_WRITE); /* GET THEM */
     1628     2142    3               CALL ERASE_PAREC; /* THEN ERASE IT */
     1629     2143    3               END;
     1630     2144    2           END; /* ALL EXCESSIVE HIGHER LEVEL PA ARE ERASED */
     1631     2145         /* NOW, CHECK IF OWNER'S PTRS NEEDED TO BE UPDATED */
     1632     2146    1       IF STK.NEXT(0)~=CURR_LEVEL.DBK(NEW_HIGHEST) THEN
     1633     2147    2       DO; /* THIS HAPPENS WHEN HIGHEST PA ERASED OR CREATED */
     1634     2148    2           STK.NEXT(1)=CURR_LEVEL.DBK(NEW_HIGHEST);
     1635     2149    2           STK.PRIOR(1)=STK.NEXT(1);
     1636     2150    2           KEY.RC_PTR=SC_TBL.RC_PTR(SC_PTR);
     1637     2151    2           KEY.TXT=CURR_OWNER;
PL6.E3A0      #004=STORE_AN_ENTRY File=ZIU$COMPACT.:ZIC0TSI                      FRI 09/05/97 13:10 Page:249
     1638     2152    2           CALL M$WRITE(WRITE_TEMP) ALTRET(ALT_WRIT_TEMP);
     1639     2153    2           REC_CNT = REC_CNT + 1; /* OWNER WILL BE UPDATED LATER */
     1640     2154    2           END;
     1641     2155    1       RETURN;
     1642     2156
     1643     2157    1   ALT_WRIT_TEMP:
     1644     2158    1       ALTRETURN;
     1645     2159    1   END STORE_AN_ENTRY;
     1646     2160        %EOD;

PL6.E3A0      #004=STORE_AN_ENTRY File=ZIU$COMPACT.:ZIC0TSI                      FRI 09/05/97 13:10 Page:250
--  Include file information  --

   CP_6_SUBS.:LIB_E05  is referenced.
   ZI_ERRORS_SUBS.:ZIC0TOU  is referenced.
   ZI_PRSE_SUBS.:ZIC0TOU  is referenced.
   ZI_GLOBAL_DBUTIL.:ZIC0TOU  is referenced.
   ZI_DBU_XREF.:ZIC0TOU  cannot be made into a system file and is referenced.
   CP_6.:LIB_E05  cannot be made into a system file and is referenced.
   B$JIT_C.:E05TOU  was found in the system file and is never referenced.
   CP_6_C.:E05TOU  was found in the system file and is referenced.
      No diagnostics issued in procedure STORE_AN_ENTRY.

   Procedure STORE_AN_ENTRY requires 883 words for executable code.
   Procedure STORE_AN_ENTRY requires 14 words of local(AUTO) storage.

PL6.E3A0      #004=STORE_AN_ENTRY File=ZIU$COMPACT.:ZIC0TSI                      FRI 09/05/97 13:10 Page:251

 Object Unit name= STORE_AN_ENTRY                             File name= ZIU$COMPACT.:ZIC0TOU
 UTS= SEP 05 '97 13:10:48.80 FRI                              Compiler= PL-6/E31         Sev=      00
 SharedLib= :SHARED_SYSTEM                                    Alt SharedLib=


    ****  Control sections  ****

 Sect   Type Bound  Init  Size OctSiz  Section name(segment info)
    0   Data  even  none     5      5  STORE_AN_ENTRY
    1   DCB   even  none     0      0  M$UC
    2   Proc  even  none   883   1563  STORE_AN_ENTRY
    3  RoData even  none    26     32  STORE_AN_ENTRY

    ****  Entry defs  ****

                              Check   Calling
                             calling  sequence
  Sect OctLoc Primary Altret sequence   type   Parms  Name
     2      0   yes    yes     yes      Std        1  STORE_AN_ENTRY
     2   1200          yes     yes      Std        0  PA_CLEANUP

  ****  Entry refs  ****

         Check        Calling
        calling       sequence
Altret sequence SRef   type   Args  Name
         yes           Std       2 BIN_CHAR
         yes           Std       0 CREATE_PAREC
         yes           Std       1 PUSH_PAENTRY
         yes           Std       4 ERROR_MSG
         yes           Std       0 ERASE_PAREC
         yes           Std       2 FIND_DIRECT
                       nStd      0 X66_AUTO_1
                       nStd      0 X66_AUNWIND
                       nStd      0 X66_ARET
                       nStd      0 X66_AALT
PL6.E3A0      #004=STORE_AN_ENTRY File=ZIU$COMPACT.:ZIC0TSI                      FRI 09/05/97 13:10 Page:252

  ****  Data refs  ****

  Flags:  r = read only, s = secondary
Flgs Name                             Flgs Name                             Flgs Name
     LEVEL#                                CURR_OWNER                            REC_CNT
     KEY                                   COMMAND_TEXT                          BUF_PTR
     ENTRY_LEN                             NO_OF_LEVELS                          POOL_MAX
     SWAP_PTR                              POOL                                  STK
     CURR_LEVEL                            BREAK_CLEANUP                         BREAK_FLAG
     REC2$                                 REC$                                  M$UC
     WRITE_TEMP                            TYPE                                  SC_PTR
     SC_TBL                                RC_PTR                                RC_TBL
     KEY_PTR                               KEY_TBL                               AC_PTR
     FIRST_TIME_CALLED                     BASE_DBK                              AC_TBL
     ENTRY$                                GROUP$                                PTR_LEN
     KEY_LEN

  ****  Segment refs  ****

  Flags:  r = read only, s = secondary
Flgs Name                             Flgs Name                             Flgs Name
     NULLSID                               ISSID
PL6.E3A0      #004=STORE_AN_ENTRY File=ZIU$COMPACT.:ZIC0TSI                      FRI 09/05/97 13:10 Page:253


     1244        1        /*T***********************************************************/
     1245        2        /*T*                                                         */
     1246        3        /*T* Copyright (c) Bull HN Information Systems Inc., 1997    */
     1247        4        /*T*                                                         */
     1248        5        /*T***********************************************************/
     1249        6
     1250        7        /*
     1251        8              RECURSIVE SUBR  STORE_A_ENTRY - STORE A ENTRY IN THE
     1252        9                        PA_REC IN CURRENT OF LEVEL WITH KEY PASSED
     1253       10              SC_PTR -  POINTS TO THE PA SET IN SC_TBL
     1254       11        */
     1255       12        STORE_AN_ENTRY: PROC(PA_KEY) ALTRET; /* ALTRET ON WRIT TEMP IO ERR */

     12  2 000000   000000 700200 xent  STORE_AN_EN* TSX0  ! X66_AUTO_1
         2 000001   000016 000001                    ZERO    14,1

     1256       13
     1257       14    1   DCL ERROR_MSG ENTRY(4);
     1258       15    1   DCL BIN_CHAR ENTRY(2);
     1259       16    1   DCL FIND_DIRECT ENTRY(2);
     1260       17    1   DCL CREATE_PAREC ENTRY;
     1261       18    1   DCL PUSH_PAENTRY ENTRY(1);
     1262       19
     1263       20    1   DCL ERASE_PAREC ENTRY;
     1264       21    1   DCL PA_KEY CHAR(KEY_LEN) CALIGNED;
     1265       22    1   DCL LEVEL# SBIN SYMREF ALIGNED;
     1266       23    1   DCL CURR_OWNER UBIN SYMREF ALIGNED;
     1267       24    1   DCL REC_CNT SBIN SYMREF ALIGNED;
     1268       25    1   DCL 1 KEY SYMREF ALIGNED,
     1269       26    1         2 * UBIN BYTE UNAL,
     1270       27    1         2 TXT UBIN WORD UNAL,
     1271       28    1         2 RC_PTR UBIN BYTE UNAL;
     1272       29    1   DCL COMMAND_TEXT CHAR(9) SYMREF ALIGNED;
     1273       30    1   DCL BUF_PTR SBIN SYMREF ALIGNED;
     1274       31    1   DCL ENTRY_LEN UBIN SYMREF ALIGNED; /* ENTRY_LEN=2+KEY_LEN+PTR_LEN */
     1275       32    1   DCL NO_OF_LEVELS UBIN SYMREF ALIGNED;
PL6.E3A0      #004=STORE_AN_ENTRY File=ZIU$COMPACT.:ZIC0TSI                      FRI 09/05/97 13:10 Page:254
     1276       33    1   DCL POOL_MAX SBIN WORD SYMREF ALIGNED;
     1277       34    1   DCL SWAP_PTR SBIN WORD SYMREF ALIGNED;
     1278       35    1   DCL 1 POOL(0:95) SYMREF ALIGNED,
     1279       36    1         2 MUST_WRITE BIT(1) UNAL,
     1280       37    1         2 LOCKS UBIN(9) UNAL,
     1281       38    1         2 PAGE# UBIN(26) UNAL;
     1282       39    1   DCL 1 STK(0:1) SYMREF ALIGNED,
     1283       40    1         2 NEXT SBIN ALIGNED,
     1284       41    1         2 PRIOR SBIN ALIGNED,
     1285       42    1         2 CURR SBIN ALIGNED,
     1286       43    1         2 RC_PTR UBIN BYTE UNAL,
     1287       44    1         2 AC_PTR UBIN BYTE UNAL;
     1288       45    1   DCL 1 CURR_LEVEL(0:31) SYMREF ALIGNED,
     1289       46    1         2 DBK UBIN WORD ALIGNED,
     1290       47    1         2 FIRST_PA UBIN ALIGNED,
     1291       48    1         2 ENT_NO UBIN HALF UNAL,
     1292       49    1         2 DUPIND BIT(1) UNAL,
     1293       50    1         2 BUF_PTR UBIN(8) UNAL,
     1294       51    1         2 * UBIN(9) UNAL,
     1295       52    1         2 REC$ PTR ALIGNED;
     1296       53    1   DCL BREAK_CLEANUP BIT(72) SYMREF ALIGNED;
     1297       54    1   DCL Y SBIN STATIC ALIGNED;
     1298       55    1   DCL CHAR_V CHAR(Y) BASED CALIGNED;
     1299       56    1   DCL Z SBIN STATIC ALIGNED;
     1300       57    1   DCL NEW_HIGHEST UBIN STATIC ALIGNED;
     1301       58    1   DCL X SBIN STATIC ALIGNED; /* MUST BE LOCAL,DONT INCLUDE ZI_GLOBAL */
     1302       59    1   DCL BREAK_FLAG SBIN SYMREF ALIGNED;
     1303       60    1   DCL POINTER SBIN STATIC ALIGNED;
     1304       61    1   DCL REC2$ PTR SYMREF ALIGNED;
     1305       62    1   DCL REC$ PTR SYMREF ALIGNED;
     1306       63    1   DCL PTR_V CHAR(PTR_LEN) BASED(REC2$) CALIGNED;
     1307       64    1   DCL KEY_V CHAR(KEY_LEN) BASED(REC2$) CALIGNED;
     1308       65    1   DCL 1 DUMMY_V BASED(REC2$) CALIGNED,
     1309       66    1         2 * CHAR(KEY_LEN) CALIGNED;
     1310       67        /*
     1311       68              LOCAL AUTO VARIABLES
     1312       69        */
PL6.E3A0      #004=STORE_AN_ENTRY File=ZIU$COMPACT.:ZIC0TSI                      FRI 09/05/97 13:10 Page:255
     1313       70    1   DCL LOC_PTR UBIN AUTO ALIGNED;
     1314       71    1   DCL GLO_PTR UBIN AUTO ALIGNED;
     1315       72    1   DCL RC_TYPE UBIN AUTO ALIGNED;
     1316       73        %EJECT;
PL6.E3A0      #004=STORE_AN_ENTRY File=ZIU$COMPACT.:ZIC0TSI                      FRI 09/05/97 13:10 Page:256
     1317       74
     1318       75        %EQU LOCK_BUF = 2;
     1319       76        %EQU MUST_WRITE = 1;
     1320       77        %EQU DONT_LOCK = 0;
     1321       78        %EQU DONT_ERROR = -1;
     1322       79        %INCLUDE CP_6;
     1323      160         %FPT_WRITE(FPTN=WRITE_TEMP,STCLASS=SYMREF);
     1324      191        %INCLUDE ZI_DBU_XREF;
     1325      358         %PA_XREF_TBLS;
     1326      424        %INCLUDE ZI_GLOBAL_DBUTIL;
     1327      602         %PAREC(STCLASS=SYMREF); /* DONT INVOKE MISC_DCLS */
     1328      629        %INCLUDE ZI_PRSE_SUBS;
     1329      785        %INCLUDE ZI_ERRORS_SUBS;
     1330     1305        %INCLUDE CP_6_SUBS;
     1331     1845        %EJECT;
PL6.E3A0      #004=STORE_AN_ENTRY File=ZIU$COMPACT.:ZIC0TSI                      FRI 09/05/97 13:10 Page:257
     1332     1846    1       IF BREAK_FLAG > 0 THEN /* IF BREAK HIT,WILL BE PICKEDUP HERE */

   1846  2 000002   000000 235000 xsym               LDA     BREAK_FLAG
         2 000003   000012 604400 2                  TMOZ    s:1849

     1333     1847    1           UNWIND TO BREAK_CLEANUP;

   1847  2 000004   000100 100600                    MLR   ! fill='000'O
         2 000005   000000 000010 xsym               ADSC9   BREAK_CLEANUP            cn=0,n=8
         2 000006   200012 000010                    ADSC9   RC_TYPE+4,,AUTO          cn=0,n=8
         2 000007   200012 237300                    LDAQ  ! RC_TYPE+4,,AUTO
         2 000010   000000 700200 xent               TSX0  ! X66_AUNWIND
         2 000011   000000 000200                    ZERO    0,128

     1334     1848
     1335     1849    1       IF LEVEL# = 0 THEN /* NEED TO CREATE HIGHEST LEVEL OF PA */

   1849  2 000012   000000 236000 xsym               LDQ     LEVEL#
         2 000013   000134 601000 2                  TNZ     s:1885

     1336     1850    2       DO;

     1337     1851    2           NO_OF_LEVELS = NO_OF_LEVELS + 1; /* INCREMENT TOTAL # LEVELS */

   1851  2 000014   000000 235000 xsym               LDA     NO_OF_LEVELS
         2 000015   000001 035007                    ADLA    1,DL
         2 000016   000000 755000 xsym               STA     NO_OF_LEVELS

     1338     1852    2           IF NO_OF_LEVELS>32 THEN /* OVER 32 LEVELS ????,GOTO BE WRONG? */

   1852  2 000017   000041 115007                    CMPA    33,DL
         2 000020   000046 602000 2                  TNC     s:1862

     1339     1853    3           DO;

     1340     1854    3               CALL BIN_CHAR(2,CURR_OWNER);

PL6.E3A0      #004=STORE_AN_ENTRY File=ZIU$COMPACT.:ZIC0TSI                      FRI 09/05/97 13:10 Page:258
   1854  2 000021   000002 630400 3                  EPPR0   2
         2 000022   000000 631400 3                  EPPR1   0
         2 000023   000000 701000 xent               TSX1    BIN_CHAR
         2 000024   000000 011000                    NOP     0

     1341     1855    3               CALL ERROR_MSG(DBU#PALEV33,SC_TBL.NAME(SC_PTR),COMMAND_TEXT);

   1855  2 000025   000006 236000 3                  LDQ     6
         2 000026   200014 756100                    STQ     RC_TYPE+6,,AUTO
         2 000027   000000 236000 xsym               LDQ     SC_PTR
         2 000030   000010 402000 3                  MPY     8
         2 000031   000007 036000 3                  ADLQ    7
         2 000032   000011 235000 3                  LDA     9
         2 000033   200012 757100                    STAQ    RC_TYPE+4,,AUTO
         2 000034   200012 630500                    EPPR0   RC_TYPE+4,,AUTO
         2 000035   000004 631400 3                  EPPR1   4
         2 000036   000000 701000 xent               TSX1    ERROR_MSG
         2 000037   000000 011000                    NOP     0

     1342     1856    3               UNWIND TO BREAK_CLEANUP;

   1856  2 000040   000100 100600                    MLR   ! fill='000'O
         2 000041   000000 000010 xsym               ADSC9   BREAK_CLEANUP            cn=0,n=8
         2 000042   200012 000010                    ADSC9   RC_TYPE+4,,AUTO          cn=0,n=8
         2 000043   200012 237300                    LDAQ  ! RC_TYPE+4,,AUTO
         2 000044   000000 700200 xent               TSX0  ! X66_AUNWIND
         2 000045   000000 000200                    ZERO    0,128

     1343     1857         /*E* ERROR: ZIU-DBU#PALEV33-C
     1344     1858                    MESSAGE: Error: For an unknown reason, we are having more
     1345     1859                                    than 32 levels of PA, while set name is "%U1" and
     1346     1860                                    owner DBK# is %U3. %U2 cannot handle that many. */
     1347     1861    3               END;
     1348     1862    3           DO LEVEL#=NO_OF_LEVELS DOWNTO 1; /* MOVE EVERY LEVEL DOWN */

   1862  2 000046   000000 755000 xsym               STA     LEVEL#
         2 000047   000057 710000 2                  TRA     s:1864+2
PL6.E3A0      #004=STORE_AN_ENTRY File=ZIU$COMPACT.:ZIC0TSI                      FRI 09/05/97 13:10 Page:259

     1349     1863    3               CURR_LEVEL(LEVEL#)=CURR_LEVEL(LEVEL#-1);

   1863  2 000050   000000 235000 xsym               LDA     LEVEL#
         2 000051   000004 735000                    ALS     4
         2 000052   000005 100405                    MLR     fill='000'O
         2 000053   777774 000020 xsym               ADSC9   CURR_LEVEL-4,A           cn=0,n=16
         2 000054   000000 000020 xsym               ADSC9   CURR_LEVEL,A             cn=0,n=16

     1350     1864    3               END;

   1864  2 000055   000001 336007                    LCQ     1,DL
         2 000056   000000 056000 xsym               ASQ     LEVEL#
         2 000057   000000 235000 xsym               LDA     LEVEL#
         2 000060   000050 605400 2                  TPNZ    s:1863

     1351     1865
     1352     1866    2           CALL CREATE_PAREC; /* CREATE HIGHEST PA_REC */

   1866  2 000061   000012 631400 3                  EPPR1   10
         2 000062   000000 701000 xent               TSX1    CREATE_PAREC
         2 000063   000000 011000                    NOP     0

     1353     1867
     1354     1868    2           PA_REC.FIRST_IN_LEVEL = '1'B; /* SETUP PA BITS */

   1868  2 000064   000000 470400 xsym               LDP0    REC$
         2 000065   003100 060400                    CSL     bolr='003'O
         2 000066   000013 000001 3                  BDSC    11                       by=0,bit=0,n=1
         2 000067   000001 020001                    BDSC    1,,PR0                   by=0,bit=2,n=1

     1355     1869    2           CURR_LEVEL.ENT_NO(0)=0; /* SETUP CONTROL VARIABLE */

   1869  2 000070   000000 220003                    LDX0    0,DU
         2 000071   000002 740000 xsym               STX0    CURR_LEVEL+2

     1356     1870    2           CURR_LEVEL.DUPIND(0)='0'B;
PL6.E3A0      #004=STORE_AN_ENTRY File=ZIU$COMPACT.:ZIC0TSI                      FRI 09/05/97 13:10 Page:260

   1870  2 000072   000014 236000 3                  LDQ     12
         2 000073   000002 356000 xsym               ANSQ    CURR_LEVEL+2

     1357     1871    2           CURR_LEVEL.FIRST_PA(0)=CURR_LEVEL.DBK(0);

   1871  2 000074   000000 235000 xsym               LDA     CURR_LEVEL
         2 000075   000001 755000 xsym               STA     CURR_LEVEL+1

     1358     1872    2           POINTER=CURR_OWNER; /* LINK NEXT,PRIOR,OWNER TO CURR OWNER */

   1872  2 000076   000000 235000 xsym               LDA     CURR_OWNER
         2 000077   000004 755000 0                  STA     POINTER

     1359     1873    2           REC2$=PINCRC(REC$,8);

   1873  2 000100   000000 236000 xsym               LDQ     REC$
         2 000101   000002 036003                    ADLQ    2,DU
         2 000102   000000 756000 xsym               STQ     REC2$

     1360     1874    2           CALL STORE_PTR;

   1874  2 000103   001164 701000 2                  TSX1    STORE_PTR
         2 000104   000000 011000                    NOP     0

     1361     1875    2           POINTER=CURR_OWNER;

   1875  2 000105   000000 235000 xsym               LDA     CURR_OWNER
         2 000106   000004 755000 0                  STA     POINTER

     1362     1876    2           REC2$=PINCRC(REC2$,PTR_LEN);

   1876  2 000107   000000 236000 xsym               LDQ     PTR_LEN
         2 000110   000020 736000                    QLS     16
         2 000111   000000 036000 xsym               ADLQ    REC2$
         2 000112   000000 756000 xsym               STQ     REC2$

PL6.E3A0      #004=STORE_AN_ENTRY File=ZIU$COMPACT.:ZIC0TSI                      FRI 09/05/97 13:10 Page:261
     1363     1877    2           CALL STORE_PTR;

   1877  2 000113   001164 701000 2                  TSX1    STORE_PTR
         2 000114   000000 011000                    NOP     0

     1364     1878    2           REC2$=PINCRC(REC2$,PTR_LEN);

   1878  2 000115   000000 236000 xsym               LDQ     PTR_LEN
         2 000116   000020 736000                    QLS     16
         2 000117   000000 036000 xsym               ADLQ    REC2$
         2 000120   000000 756000 xsym               STQ     REC2$

     1365     1879    2           POINTER=CURR_OWNER;

   1879  2 000121   000000 235000 xsym               LDA     CURR_OWNER
         2 000122   000004 755000 0                  STA     POINTER

     1366     1880    2           CALL STORE_PTR;

   1880  2 000123   001164 701000 2                  TSX1    STORE_PTR
         2 000124   000000 011000                    NOP     0

     1367     1881    2           IF STK.CURR(1)=CURR_OWNER THEN /* INSERT DUMMY */

   1881  2 000125   000006 236000 xsym               LDQ     STK+6
         2 000126   000136 604000 2                  TMI     s:1887
         2 000127   000000 116000 xsym               CMPQ    CURR_OWNER
         2 000130   000136 601000 2                  TNZ     s:1887

     1368     1882    2               STK.NEXT(1)=CURR_LEVEL.DBK(0); /* FAKE POINTER */

   1882  2 000131   000000 235000 xsym               LDA     CURR_LEVEL
         2 000132   000004 755000 xsym               STA     STK+4

     1369     1883    2           END;

   1883  2 000133   000136 710000 2                  TRA     s:1887
PL6.E3A0      #004=STORE_AN_ENTRY File=ZIU$COMPACT.:ZIC0TSI                      FRI 09/05/97 13:10 Page:262

     1370     1884    1       ELSE
     1371     1885    1           LEVEL# = LEVEL# - 1;

   1885  2 000134   000001 336007                    LCQ     1,DL
         2 000135   000000 056000 xsym               ASQ     LEVEL#

     1372     1886
     1373     1887    1       REC$ = CURR_LEVEL.REC$(LEVEL#); /* GET CURR PA IN LEVEL */

   1887  2 000136   000000 235000 xsym               LDA     LEVEL#
         2 000137   000002 735000                    ALS     2
         2 000140   000003 236005 xsym               LDQ     CURR_LEVEL+3,AL
         2 000141   000000 756000 xsym               STQ     REC$

     1374     1888    1       IF LEVEL#=NO_OF_LEVELS THEN /* WE ARE IN LOWEST LEVEL OF PA */

   1888  2 000142   000000 236000 xsym               LDQ     LEVEL#
         2 000143   000157 604000 2                  TMI     s:1895
         2 000144   000000 116000 xsym               CMPQ    NO_OF_LEVELS
         2 000145   000157 601000 2                  TNZ     s:1895

     1375     1889    2       DO;

     1376     1890    2           RC_TYPE = RC_TBL.TYPE(STK.RC_PTR(1)); /* GET TYPE OF CURR MEMBER */

   1890  2 000146   000007 236000 xsym               LDQ     STK+7
         2 000147   000033 772000                    QRL     27
         2 000150   000003 402007                    MPY     3,DL
         2 000151   000001 236006 xsym               LDQ     RC_TBL+1,QL
         2 000152   000022 772000                    QRL     18
         2 000153   200006 756100                    STQ     RC_TYPE,,AUTO

     1377     1891    2           GLO_PTR = STK.CURR(1); /* AND ITS DBK */

   1891  2 000154   000006 235000 xsym               LDA     STK+6
         2 000155   200005 755100                    STA     GLO_PTR,,AUTO
PL6.E3A0      #004=STORE_AN_ENTRY File=ZIU$COMPACT.:ZIC0TSI                      FRI 09/05/97 13:10 Page:263

     1378     1892    2           END;

   1892  2 000156   000173 710000 2                  TRA     s:1898

     1379     1893    1       ELSE
     1380     1894    2       DO; /* WE ARE STOREING AN ENTRY TO A PA_REC */

     1381     1895    2           RC_TYPE = SC_TBL.PA_TYPE(SC_PTR);

   1895  2 000157   000000 236000 xsym               LDQ     SC_PTR
         2 000160   000405 402007                    MPY     261,DL
         2 000161   000000 116003                    CMPQ    0,DU
         2 000162   000164 605000 2                  TPL     s:1895+5
         2 000163   000044 036003                    ADLQ    36,DU
         2 000164   003100 061406                    CSR     bolr='003'O
         2 000165   000004 250014 xsym               BDSC    SC_TBL+4,Q               by=1,bit=5,n=12
         2 000166   200006 000044                    BDSC    RC_TYPE,,AUTO            by=0,bit=0,n=36

     1382     1896    2           GLO_PTR = CURR_LEVEL.DBK(LEVEL#+1); /* GET PA IN LOWER LEVEL */

   1896  2 000167   000000 235000 xsym               LDA     LEVEL#
         2 000170   000002 735000                    ALS     2
         2 000171   000004 235005 xsym               LDA     CURR_LEVEL+4,AL
         2 000172   200005 755100                    STA     GLO_PTR,,AUTO

     1383     1897    2           END;

     1384     1898    1       LOC_PTR = GLO_PTR - BASE_DBK; /* IF SC GLOBAL THEN BASE_DBK=0 */

   1898  2 000173   200005 236100                    LDQ     GLO_PTR,,AUTO
         2 000174   000000 136000 xsym               SBLQ    BASE_DBK
         2 000175   200004 756100                    STQ     LOC_PTR,,AUTO

     1385     1899    1       IF CURR_LEVEL.ENT_NO(LEVEL#)=0 THEN /* NO ENTRY STORED YET */

   1899  2 000176   000000 235000 xsym               LDA     LEVEL#
PL6.E3A0      #004=STORE_AN_ENTRY File=ZIU$COMPACT.:ZIC0TSI                      FRI 09/05/97 13:10 Page:264
         2 000177   000002 735000                    ALS     2
         2 000200   000002 220005 xsym               LDX0    CURR_LEVEL+2,AL
         2 000201   000327 601000 2                  TNZ     s:1925

     1386     1900    2       DO;

     1387     1901    2   STORE_FIRST_ENTRY: /* ENTRY IS 1ST ONE TO BE STORED IN PA */
     1388     1902    2           IF CURR_LEVEL.DUPIND(LEVEL#) THEN

   1902  2 000202   000000 235000 xsym  STORE_FIRST* LDA     LEVEL#
         2 000203   000002 735000                    ALS     2
         2 000204   000002 236005 xsym               LDQ     CURR_LEVEL+2,AL
         2 000205   400000 316007                    CANQ    -131072,DL
         2 000206   000214 600000 2                  TZE     s:1905

     1389     1903    2               PA_REC.LOWEST_KEY='1'B; /* LOWEST KEY REPEATED IN PRIOR */

   1903  2 000207   000000 470400 xsym               LDP0    REC$
         2 000210   003100 060400                    CSL     bolr='003'O
         2 000211   000013 000001 3                  BDSC    11                       by=0,bit=0,n=1
         2 000212   000001 040001                    BDSC    1,,PR0                   by=0,bit=4,n=1
         2 000213   000220 710000 2                  TRA     s:1906

     1390     1904    2           ELSE
     1391     1905    2               PA_REC.LOWEST_KEY='0'B;

   1905  2 000214   000000 470400 xsym               LDP0    REC$
         2 000215   003100 060400                    CSL     bolr='003'O
         2 000216   000012 000001 3                  BDSC    10                       by=0,bit=0,n=1
         2 000217   000001 040001                    BDSC    1,,PR0                   by=0,bit=4,n=1

     1392     1906    2           PA_REC.HIGHEST_KEY='0'B; /* INIT HIGHEST REPEAT BIT */

   1906  2 000220   003100 060400                    CSL     bolr='003'O
         2 000221   000012 000001 3                  BDSC    10                       by=0,bit=0,n=1
         2 000222   000001 010001                    BDSC    1,,PR0                   by=0,bit=1,n=1

PL6.E3A0      #004=STORE_AN_ENTRY File=ZIU$COMPACT.:ZIC0TSI                      FRI 09/05/97 13:10 Page:265
     1393     1907    2           PA_REC.ENTRIES=1;

   1907  2 000223   003100 061400                    CSR     bolr='003'O
         2 000224   000015 000044 3                  BDSC    13                       by=0,bit=0,n=36
         2 000225   000001 060014                    BDSC    1,,PR0                   by=0,bit=6,n=12

     1394     1908    2           PA_REC.LAST_IN_LEVEL='0'B; /* SET TO 1 BY PA_CLEANUP */

   1908  2 000226   003100 060400                    CSL     bolr='003'O
         2 000227   000012 000001 3                  BDSC    10                       by=0,bit=0,n=1
         2 000230   000001 030001                    BDSC    1,,PR0                   by=0,bit=3,n=1

     1395     1909    2           CURR_LEVEL.DUPIND(LEVEL#)='0'B; /* RESET INDICATOR */

   1909  2 000231   000014 236000 3                  LDQ     12
         2 000232   000002 356005 xsym               ANSQ    CURR_LEVEL+2,AL

     1396     1910    2           CURR_LEVEL.ENT_NO(LEVEL#)=2*4+3*PTR_LEN;

   1910  2 000233   000000 236000 xsym               LDQ     PTR_LEN
         2 000234   000000 620005                    EAX0    0,AL
         2 000235   000003 402007                    MPY     3,DL
         2 000236   000010 621006                    EAX1    8,QL
         2 000237   000002 741010 xsym               STX1    CURR_LEVEL+2,X0

     1397     1911    2           PA_REC.AVAIL=PA_REC.SIZE-CURR_LEVEL.ENT_NO(LEVEL#)-ENTRY_LEN;

   1911  2 000240   000000 235000 xsym               LDA     LEVEL#
         2 000241   000002 735000                    ALS     2
         2 000242   000002 236005 xsym               LDQ     CURR_LEVEL+2,AL
         2 000243   000022 772000                    QRL     18
         2 000244   200012 756100                    STQ     RC_TYPE+4,,AUTO
         2 000245   000100 101500                    MRL     fill='000'O
         2 000246   000000 400002                    ADSC9   0,,PR0                   cn=2,n=2
         2 000247   200013 000004                    ADSC9   RC_TYPE+5,,AUTO          cn=0,n=4
         2 000250   200013 236100                    LDQ     RC_TYPE+5,,AUTO
         2 000251   200012 136100                    SBLQ    RC_TYPE+4,,AUTO
PL6.E3A0      #004=STORE_AN_ENTRY File=ZIU$COMPACT.:ZIC0TSI                      FRI 09/05/97 13:10 Page:266
         2 000252   000000 136000 xsym               SBLQ    ENTRY_LEN
         2 000253   200014 756100                    STQ     RC_TYPE+6,,AUTO
         2 000254   000100 101500                    MRL     fill='000'O
         2 000255   200014 000004                    ADSC9   RC_TYPE+6,,AUTO          cn=0,n=4
         2 000256   000001 400002                    ADSC9   1,,PR0                   cn=2,n=2

     1398     1912    2           ENTRY$=PINCRC(REC$,CURR_LEVEL.ENT_NO(LEVEL#)); /* TO PA_ENTRY */

   1912  2 000257   000002 236005 xsym               LDQ     CURR_LEVEL+2,AL
         2 000260   000022 772000                    QRL     18
         2 000261   000020 736000                    QLS     16
         2 000262   000000 036000 xsym               ADLQ    REC$
         2 000263   000000 756000 xsym               STQ     ENTRY$

     1399     1913    2           PA_ENTRY.C=0;

   1913  2 000264   000000 471400 xsym               LDP1    ENTRY$
         2 000265   003100 061400                    CSR     bolr='003'O
         2 000266   000012 000044 3                  BDSC    10                       by=0,bit=0,n=36
         2 000267   100000 000001                    BDSC    0,,PR1                   by=0,bit=0,n=1

     1400     1914    2           PA_ENTRY.TYPE = RC_TYPE;

   1914  2 000270   000000 470400 xsym               LDP0    ENTRY$
         2 000271   003100 061500                    CSR     bolr='003'O
         2 000272   200006 000044                    BDSC    RC_TYPE,,AUTO            by=0,bit=0,n=36
         2 000273   000000 060014                    BDSC    0,,PR0                   by=0,bit=6,n=12

     1401     1915    2           PA_ENTRY.PTRS=PINCRC(ADDR(LOC_PTR),4-PTR_LEN)->PTR_V;

   1915  2 000274   000000 335000 xsym               LCA     PTR_LEN
         2 000275   000000 720000 xsym               LXL0    PTR_LEN
         2 000276   000000 470400 xsym               LDP0    ENTRY$
         2 000277   040140 100545                    MLR     fill='040'O
         2 000300   200005 000010                    ADSC9   GLO_PTR,A,AUTO           cn=0,n=*X0
         2 000301   000000 400010                    ADSC9   0,,PR0                   cn=2,n=*X0

PL6.E3A0      #004=STORE_AN_ENTRY File=ZIU$COMPACT.:ZIC0TSI                      FRI 09/05/97 13:10 Page:267
     1402     1916    2           REC2$=PINCRC(ENTRY$,2+PTR_LEN); /* POINT TO KEY_LOC */

   1916  2 000302   000000 236000 xsym               LDQ     PTR_LEN
         2 000303   000020 736000                    QLS     16
         2 000304   400000 036007                    ADLQ    -131072,DL
         2 000305   000000 036000 xsym               ADLQ    ENTRY$
         2 000306   000000 756000 xsym               STQ     REC2$

     1403     1917    2           IF ADDR(PA_KEY)=ADDR(NIL) THEN /* DUMMY KEY */

   1917  2 000307   200003 236100                    LDQ     @PA_KEY,,AUTO
         2 000310   000016 116000 3                  CMPQ    14
         2 000311   000320 601000 2                  TNZ     s:1920

     1404     1918    2               DUMMY_V = '0'B; /* USE BINARY 0 FOR KEY IN ENTRY */

   1918  2 000312   000000 470400 xsym               LDP0    REC2$
         2 000313   000000 720000 xsym               LXL0    KEY_LEN
         2 000314   000140 100400                    MLR     fill='000'O
         2 000315   000012 000001 3                  ADSC9   10                       cn=0,n=1
         2 000316   000000 000010                    ADSC9   0,,PR0                   cn=0,n=*X0
         2 000317   001070 710000 2                  TRA     s:2034

     1405     1919    2           ELSE
     1406     1920    2               KEY_V = PA_KEY; /* USE KEY THAT IS PASSED */

   1920  2 000320   200003 470500                    LDP0    @PA_KEY,,AUTO
         2 000321   000000 720000 xsym               LXL0    KEY_LEN
         2 000322   000000 471400 xsym               LDP1    REC2$
         2 000323   040140 100540                    MLR     fill='040'O
         2 000324   000000 000010                    ADSC9   0,,PR0                   cn=0,n=*X0
         2 000325   100000 000010                    ADSC9   0,,PR1                   cn=0,n=*X0

     1407     1921    2           END;

   1921  2 000326   001070 710000 2                  TRA     s:2034

PL6.E3A0      #004=STORE_AN_ENTRY File=ZIU$COMPACT.:ZIC0TSI                      FRI 09/05/97 13:10 Page:268
     1408     1922        %EJECT;
PL6.E3A0      #004=STORE_AN_ENTRY File=ZIU$COMPACT.:ZIC0TSI                      FRI 09/05/97 13:10 Page:269
     1409     1923    1       ELSE
     1410     1924    2       DO; /* CURR_PA IS NOT EMPTY, SO CHK IF FULL FIRST */

     1411     1925    2           ENTRY$=PINCRC(REC$,CURR_LEVEL.ENT_NO(LEVEL#));

   1925  2 000327   000002 236005 xsym               LDQ     CURR_LEVEL+2,AL
         2 000330   000022 772000                    QRL     18
         2 000331   000020 736000                    QLS     16
         2 000332   000000 036000 xsym               ADLQ    REC$
         2 000333   000000 756000 xsym               STQ     ENTRY$

     1412     1926    2           REC2$=PINCRC(ENTRY$,2+PTR_LEN); /* POINT THE LAST KEY IN REC */

   1926  2 000334   000000 236000 xsym               LDQ     PTR_LEN
         2 000335   000020 736000                    QLS     16
         2 000336   400000 036007                    ADLQ    -131072,DL
         2 000337   000000 036000 xsym               ADLQ    ENTRY$
         2 000340   000000 756000 xsym               STQ     REC2$

     1413     1927    2           IF PA_KEY=KEY_V THEN /* DUPLICATE KEYS */

   1927  2 000341   200003 470500                    LDP0    @PA_KEY,,AUTO
         2 000342   000000 721000 xsym               LXL1    KEY_LEN
         2 000343   000000 471400 xsym               LDP1    REC2$
         2 000344   040140 106540                    CMPC    fill='040'O
         2 000345   000000 000011                    ADSC9   0,,PR0                   cn=0,n=*X1
         2 000346   100000 000011                    ADSC9   0,,PR1                   cn=0,n=*X1
         2 000347   000370 601000 2                  TNZ     s:1935

     1414     1928    3           DO;

     1415     1929    3               IF PA_ENTRY.C=1 THEN /* PA_GROUP ALREADY EXISTS */

   1929  2 000350   000000 473400 xsym               LDP3    ENTRY$
         2 000351   003100 061500                    CSR     bolr='003'O
         2 000352   300000 000001                    BDSC    0,,PR3                   by=0,bit=0,n=1
         2 000353   200012 000044                    BDSC    RC_TYPE+4,,AUTO          by=0,bit=0,n=36
PL6.E3A0      #004=STORE_AN_ENTRY File=ZIU$COMPACT.:ZIC0TSI                      FRI 09/05/97 13:10 Page:270
         2 000354   200012 236100                    LDQ     RC_TYPE+4,,AUTO
         2 000355   000001 116007                    CMPQ    1,DL
         2 000356   000363 601000 2                  TNZ     s:1932

     1416     1930    3                   X=PTR_LEN+2; /* NEED 2 BYTES FOR TYPE AND PLUS PTR_LEN */

   1930  2 000357   000000 236000 xsym               LDQ     PTR_LEN
         2 000360   000002 036007                    ADLQ    2,DL
         2 000361   000003 756000 0                  STQ     X
         2 000362   000372 710000 2                  TRA     s:1937

     1417     1931    3               ELSE
     1418     1932    3                   X=2*PTR_LEN+4+2; /* 2 PTRS+ 2 TYPES + 2 BYTES FOR COUNT */

   1932  2 000363   000000 235000 xsym               LDA     PTR_LEN
         2 000364   000001 735000                    ALS     1
         2 000365   000006 035007                    ADLA    6,DL
         2 000366   000003 755000 0                  STA     X

     1419     1933    3               END;

   1933  2 000367   000372 710000 2                  TRA     s:1937

     1420     1934    2           ELSE
     1421     1935    2               X=ENTRY_LEN; /* REGULAR ENTRY SIZE IS NEEDED */

   1935  2 000370   000000 235000 xsym               LDA     ENTRY_LEN
         2 000371   000003 755000 0                  STA     X

     1422     1936
     1423     1937    2           IF PA_REC.AVAIL-X<SC_TBL.FULL_PERCENT(SC_PTR) THEN /* NO SPACE */

   1937  2 000372   000000 473400 xsym               LDP3    REC$
         2 000373   000100 101500                    MRL     fill='000'O
         2 000374   300001 400002                    ADSC9   1,,PR3                   cn=2,n=2
         2 000375   200012 000004                    ADSC9   RC_TYPE+4,,AUTO          cn=0,n=4
         2 000376   200012 236100                    LDQ     RC_TYPE+4,,AUTO
PL6.E3A0      #004=STORE_AN_ENTRY File=ZIU$COMPACT.:ZIC0TSI                      FRI 09/05/97 13:10 Page:271
         2 000377   000003 136000 0                  SBLQ    X
         2 000400   200014 756100                    STQ     RC_TYPE+6,,AUTO
         2 000401   000000 236000 xsym               LDQ     SC_PTR
         2 000402   000405 402007                    MPY     261,DL
         2 000403   000000 116003                    CMPQ    0,DU
         2 000404   000406 605000 2                  TPL     s:1937+12
         2 000405   000044 036003                    ADLQ    36,DU
         2 000406   003100 061406                    CSR     bolr='003'O
         2 000407   000005 100014 xsym               BDSC    SC_TBL+5,Q               by=0,bit=8,n=12
         2 000410   200013 000044                    BDSC    RC_TYPE+5,,AUTO          by=0,bit=0,n=36
         2 000411   200014 236100                    LDQ     RC_TYPE+6,,AUTO
         2 000412   200013 116100                    CMPQ    RC_TYPE+5,,AUTO
         2 000413   000601 605000 2                  TPL     s:1989

     1424     1938    3           DO;

     1425     1939    3               IF PA_KEY=KEY_V THEN /* DUP KEY OCCUR */

   1939  2 000414   040140 106540                    CMPC    fill='040'O
         2 000415   000000 000011                    ADSC9   0,,PR0                   cn=0,n=*X1
         2 000416   100000 000011                    ADSC9   0,,PR1                   cn=0,n=*X1
         2 000417   000427 601000 2                  TNZ     s:1944

     1426     1940    4               DO;

     1427     1941    4                   CURR_LEVEL.DUPIND(LEVEL#)='1'B; /* SET INDICATOR */

   1941  2 000420   000000 235000 xsym               LDA     LEVEL#
         2 000421   000002 735000                    ALS     2
         2 000422   400000 236007                    LDQ     -131072,DL
         2 000423   000002 256005 xsym               ORSQ    CURR_LEVEL+2,AL

     1428     1942    4                   PA_REC.HIGHEST_KEY='1'B; /* SET HIGHEST KEY REPEATED BIT */

   1942  2 000424   003100 060400                    CSL     bolr='003'O
         2 000425   000013 000001 3                  BDSC    11                       by=0,bit=0,n=1
         2 000426   300001 010001                    BDSC    1,,PR3                   by=0,bit=1,n=1
PL6.E3A0      #004=STORE_AN_ENTRY File=ZIU$COMPACT.:ZIC0TSI                      FRI 09/05/97 13:10 Page:272

     1429     1943    4                   END;

     1430     1944    3               REC2$=PINCRC(REC$,10+4*PTR_LEN); /* 1ST KEY IN LOWER LEVEL */

   1944  2 000427   000000 236000 xsym               LDQ     PTR_LEN
         2 000430   000022 736000                    QLS     18
         2 000431   000017 036000 3                  ADLQ    15
         2 000432   000000 036000 xsym               ADLQ    REC$
         2 000433   000000 756000 xsym               STQ     REC2$

     1431     1945
     1432     1946    3               CALL STORE_AN_ENTRY(KEY_V) ALTRET(ALT_WRIT_TEMP);

   1946  2 000434   000000 630400 xsym               EPPR0   REC2$
         2 000435   000020 631400 3                  EPPR1   16
         2 000436   000000 701000 2                  TSX1    s:12
         2 000437   001562 702000 2                  TSX2    ALT_WRIT_TEMP

     1433     1947         /* IN HIGHER LEVEL PA */
     1434     1948
     1435     1949    3               REC2$=PINCRC(REC$,8); /* POINT TO NEXT PTR LOC */

   1949  2 000440   000000 236000 xsym               LDQ     REC$
         2 000441   000002 036003                    ADLQ    2,DU
         2 000442   000000 756000 xsym               STQ     REC2$

     1436     1950    3               CALL LOAD_PTR; /* LOAD NEXT PTR OF PA */

   1950  2 000443   001147 701000 2                  TSX1    LOAD_PTR
         2 000444   000000 011000                    NOP     0

     1437     1951    3               IF POINTER~=CURR_LEVEL.FIRST_PA(LEVEL#) AND

   1951  2 000445   000000 235000 xsym               LDA     LEVEL#
         2 000446   000002 735000                    ALS     2
         2 000447   000004 236000 0                  LDQ     POINTER
PL6.E3A0      #004=STORE_AN_ENTRY File=ZIU$COMPACT.:ZIC0TSI                      FRI 09/05/97 13:10 Page:273
         2 000450   000453 604000 2                  TMI     s:1951+6
         2 000451   000001 116005 xsym               CMPQ    CURR_LEVEL+1,AL
         2 000452   000517 600000 2                  TZE     s:1964
         2 000453   000000 116003                    CMPQ    0,DU
         2 000454   000457 604000 2                  TMI     s:1954
         2 000455   000000 116000 xsym               CMPQ    CURR_OWNER
         2 000456   000517 600000 2                  TZE     s:1964

     1438     1952    3                  POINTER~=CURR_OWNER THEN /* NEXT PA EXIST */
     1439     1953    4               DO;

     1440     1954    4                   BUF_PTR=CURR_LEVEL.BUF_PTR(LEVEL#); /* GET BUFF ADDR */

   1954  2 000457   000002 236005 xsym               LDQ     CURR_LEVEL+2,AL
         2 000460   000011 772000                    QRL     9
         2 000461   000377 376007                    ANQ     255,DL
         2 000462   000000 756000 xsym               STQ     BUF_PTR

     1441     1955    4                   POOL.LOCKS(BUF_PTR)=POOL.LOCKS(BUF_PTR)-1; /* UNLOCK IT */

   1955  2 000463   000000 720000 xsym               LXL0    BUF_PTR
         2 000464   000000 236006 xsym               LDQ     POOL,QL
         2 000465   000032 772000                    QRL     26
         2 000466   000777 376007                    ANQ     511,DL
         2 000467   000001 136007                    SBLQ    1,DL
         2 000470   000032 736000                    QLS     26
         2 000471   000000 676010 xsym               ERQ     POOL,X0
         2 000472   377400 376003                    ANQ     130816,DU
         2 000473   000000 656010 xsym               ERSQ    POOL,X0

     1442     1956    4                   CALL FIND_DIRECT(POINTER,%LOCK_BUF);

   1956  2 000474   000021 630400 3                  EPPR0   17
         2 000475   000000 631400 3                  EPPR1   0
         2 000476   000000 701000 xent               TSX1    FIND_DIRECT
         2 000477   000000 011000                    NOP     0

PL6.E3A0      #004=STORE_AN_ENTRY File=ZIU$COMPACT.:ZIC0TSI                      FRI 09/05/97 13:10 Page:274
     1443     1957    4                   CURR_LEVEL.DBK(LEVEL#)=POINTER; /* NEW CURR_OF_LEVEL */

   1957  2 000500   000000 235000 xsym               LDA     LEVEL#
         2 000501   000002 735000                    ALS     2
         2 000502   000004 236000 0                  LDQ     POINTER
         2 000503   000000 756005 xsym               STQ     CURR_LEVEL,AL

     1444     1958    4                   CURR_LEVEL.REC$(LEVEL#)=REC$;

   1958  2 000504   000000 236000 xsym               LDQ     REC$
         2 000505   000003 756005 xsym               STQ     CURR_LEVEL+3,AL

     1445     1959    4                   IF LEVEL# = NO_OF_LEVELS THEN /* LOWEST LEVEL */

   1959  2 000506   000000 236000 xsym               LDQ     LEVEL#
         2 000507   000600 604000 2                  TMI     s:1986
         2 000510   000000 116000 xsym               CMPQ    NO_OF_LEVELS
         2 000511   000600 601000 2                  TNZ     s:1986

     1446     1960    4                       CALL PUSH_PAENTRY(POINTER); /* BET YOU DIR=COMPACT */

   1960  2 000512   000021 630400 3                  EPPR0   17
         2 000513   000020 631400 3                  EPPR1   16
         2 000514   000000 701000 xent               TSX1    PUSH_PAENTRY
         2 000515   000000 011000                    NOP     0

     1447     1961    4                   END;

   1961  2 000516   000600 710000 2                  TRA     s:1986

     1448     1962    3               ELSE /* RUNNING OUT OF INDEX BLOCK, SO MAKE ONE */
     1449     1963    4               DO; /* AND LINK INTO CURR OF LEVEL */

     1450     1964    4                   IF LEVEL# = NO_OF_LEVELS THEN /* LOWEST LEVEL */

   1964  2 000517   000000 236000 xsym               LDQ     LEVEL#
         2 000520   000525 604000 2                  TMI     s:1966
PL6.E3A0      #004=STORE_AN_ENTRY File=ZIU$COMPACT.:ZIC0TSI                      FRI 09/05/97 13:10 Page:275
         2 000521   000000 116000 xsym               CMPQ    NO_OF_LEVELS
         2 000522   000525 601000 2                  TNZ     s:1966

     1451     1965    4                       FIRST_TIME_CALLED=1; /* ONLY USED BY COMPACT FOR E-O-S */

   1965  2 000523   000001 235007                    LDA     1,DL
         2 000524   000000 755000 xsym               STA     FIRST_TIME_CALLED

     1452     1966    4                   X=CURR_LEVEL.DBK(LEVEL#); /* SAVE CURR (BECOME PRIOR) */

   1966  2 000525   000000 235000 xsym               LDA     LEVEL#
         2 000526   000002 735000                    ALS     2
         2 000527   000000 235005 xsym               LDA     CURR_LEVEL,AL
         2 000530   000003 755000 0                  STA     X

     1453     1967    4                   Y=CURR_LEVEL.BUF_PTR(LEVEL#); /* AND ITS BUF PTR */

   1967  2 000531   000000 235000 xsym               LDA     LEVEL#
         2 000532   000002 735000                    ALS     2
         2 000533   000002 236005 xsym               LDQ     CURR_LEVEL+2,AL
         2 000534   000011 772000                    QRL     9
         2 000535   000377 376007                    ANQ     255,DL
         2 000536   000000 756000 0                  STQ     Y

     1454     1968
     1455     1969    4                   CALL CREATE_PAREC; /* CREATE A NEW ONE AND BECOME CURR */

   1969  2 000537   000012 631400 3                  EPPR1   10
         2 000540   000000 701000 xent               TSX1    CREATE_PAREC
         2 000541   000000 011000                    NOP     0

     1456     1970
     1457     1971    4                   POOL.LOCKS(Y)=POOL.LOCKS(Y)-1; /* UNLOCK PRIOR */

   1971  2 000542   000000 720000 0                  LXL0    Y
         2 000543   000000 236010 xsym               LDQ     POOL,X0
         2 000544   000032 772000                    QRL     26
PL6.E3A0      #004=STORE_AN_ENTRY File=ZIU$COMPACT.:ZIC0TSI                      FRI 09/05/97 13:10 Page:276
         2 000545   000777 376007                    ANQ     511,DL
         2 000546   000001 136007                    SBLQ    1,DL
         2 000547   000032 736000                    QLS     26
         2 000550   000000 676010 xsym               ERQ     POOL,X0
         2 000551   377400 376003                    ANQ     130816,DU
         2 000552   000000 656010 xsym               ERSQ    POOL,X0

     1458     1972    4                   POINTER=CURR_LEVEL.DBK(LEVEL#); /* LINK LAST PA TO NEW PA */

   1972  2 000553   000000 235000 xsym               LDA     LEVEL#
         2 000554   000002 735000                    ALS     2
         2 000555   000000 235005 xsym               LDA     CURR_LEVEL,AL
         2 000556   000004 755000 0                  STA     POINTER

     1459     1973         /* REC2$ POINTS TO THE NEXT PTR LOC IN PRIOR REC */
     1460     1974    4                   CALL STORE_PTR; /* STORE NEW NEXT PTR */

   1974  2 000557   001164 701000 2                  TSX1    STORE_PTR
         2 000560   000000 011000                    NOP     0

     1461     1975         /* LET NEXT OF NEW PA BE OWNER, SO WE KNOW END OF SET
     1462     1976            AND WHEN WE DOING A PA_CLEANUP, WE KNOW THE PRIOR PTR
     1463     1977            OF THE FIRST PA IN LEVEL SHOULD BE UPDATED TOO */
     1464     1978    4                   POINTER = CURR_OWNER;

   1978  2 000561   000000 235000 xsym               LDA     CURR_OWNER
         2 000562   000004 755000 0                  STA     POINTER

     1465     1979    4                   REC2$=PINCRC(REC$,8); /* LINK NEXT OF NEW PA TO OWNER */

   1979  2 000563   000000 236000 xsym               LDQ     REC$
         2 000564   000002 036003                    ADLQ    2,DU
         2 000565   000000 756000 xsym               STQ     REC2$

     1466     1980    4                   CALL STORE_PTR;

   1980  2 000566   001164 701000 2                  TSX1    STORE_PTR
PL6.E3A0      #004=STORE_AN_ENTRY File=ZIU$COMPACT.:ZIC0TSI                      FRI 09/05/97 13:10 Page:277
         2 000567   000000 011000                    NOP     0

     1467     1981    4                   POINTER=X; /* LINK PRIOR TO THE SAVED CURR */

   1981  2 000570   000003 235000 0                  LDA     X
         2 000571   000004 755000 0                  STA     POINTER

     1468     1982    4                   REC2$=PINCRC(REC2$,PTR_LEN);

   1982  2 000572   000000 236000 xsym               LDQ     PTR_LEN
         2 000573   000020 736000                    QLS     16
         2 000574   000000 036000 xsym               ADLQ    REC2$
         2 000575   000000 756000 xsym               STQ     REC2$

     1469     1983    4                   CALL STORE_PTR;

   1983  2 000576   001164 701000 2                  TSX1    STORE_PTR
         2 000577   000000 011000                    NOP     0

     1470     1984         /* DONT WORRY OWNER PTR , WILL BE CHECKED LATER */
     1471     1985    4                   END;

     1472     1986    3               GOTO STORE_FIRST_ENTRY;

   1986  2 000600   000202 710000 2                  TRA     STORE_FIRST_ENTRY

     1473     1987    3               END;
     1474     1988
     1475     1989    2           PA_REC.AVAIL=PA_REC.AVAIL-X; /* UPDATE SPACE AVAIL */

   1989  2 000601   000100 101500                    MRL     fill='000'O
         2 000602   300001 400002                    ADSC9   1,,PR3                   cn=2,n=2
         2 000603   200012 000004                    ADSC9   RC_TYPE+4,,AUTO          cn=0,n=4
         2 000604   200012 236100                    LDQ     RC_TYPE+4,,AUTO
         2 000605   000003 136000 0                  SBLQ    X
         2 000606   200013 756100                    STQ     RC_TYPE+5,,AUTO
         2 000607   000100 101500                    MRL     fill='000'O
PL6.E3A0      #004=STORE_AN_ENTRY File=ZIU$COMPACT.:ZIC0TSI                      FRI 09/05/97 13:10 Page:278
         2 000610   200013 000004                    ADSC9   RC_TYPE+5,,AUTO          cn=0,n=4
         2 000611   300001 400002                    ADSC9   1,,PR3                   cn=2,n=2

     1476     1990    2           IF PA_KEY~=KEY_V THEN /* STORE A UNIQUE ENTRY */

   1990  2 000612   040140 106540                    CMPC    fill='040'O
         2 000613   000000 000011                    ADSC9   0,,PR0                   cn=0,n=*X1
         2 000614   100000 000011                    ADSC9   0,,PR1                   cn=0,n=*X1
         2 000615   000674 600000 2                  TZE     s:2002

     1477     1991    3           DO;

     1478     1992    3               CURR_LEVEL.ENT_NO(LEVEL#)=CURR_LEVEL.ENT_NO(LEVEL#)+X;

   1992  2 000616   000000 235000 xsym               LDA     LEVEL#
         2 000617   000002 735000                    ALS     2
         2 000620   000002 236005 xsym               LDQ     CURR_LEVEL+2,AL
         2 000621   000022 772000                    QRL     18
         2 000622   000003 036000 0                  ADLQ    X
         2 000623   000000 620006                    EAX0    0,QL
         2 000624   000002 740005 xsym               STX0    CURR_LEVEL+2,AL

     1479     1993    3               ENTRY$=PINCRC(REC$,CURR_LEVEL.ENT_NO(LEVEL#));

   1993  2 000625   000002 236005 xsym               LDQ     CURR_LEVEL+2,AL
         2 000626   000022 772000                    QRL     18
         2 000627   000020 736000                    QLS     16
         2 000630   000000 036000 xsym               ADLQ    REC$
         2 000631   000000 756000 xsym               STQ     ENTRY$

     1480     1994    3               PA_REC.ENTRIES=PA_REC.ENTRIES+1;

   1994  2 000632   003100 061500                    CSR     bolr='003'O
         2 000633   300001 060014                    BDSC    1,,PR3                   by=0,bit=6,n=12
         2 000634   200013 000044                    BDSC    RC_TYPE+5,,AUTO          by=0,bit=0,n=36
         2 000635   200013 236100                    LDQ     RC_TYPE+5,,AUTO
         2 000636   000001 036007                    ADLQ    1,DL
PL6.E3A0      #004=STORE_AN_ENTRY File=ZIU$COMPACT.:ZIC0TSI                      FRI 09/05/97 13:10 Page:279
         2 000637   200012 756100                    STQ     RC_TYPE+4,,AUTO
         2 000640   003100 061500                    CSR     bolr='003'O
         2 000641   200012 000044                    BDSC    RC_TYPE+4,,AUTO          by=0,bit=0,n=36
         2 000642   300001 060014                    BDSC    1,,PR3                   by=0,bit=6,n=12

     1481     1995    3               PA_ENTRY.C=0;

   1995  2 000643   000000 474400 xsym               LDP4    ENTRY$
         2 000644   003100 061400                    CSR     bolr='003'O
         2 000645   000012 000044 3                  BDSC    10                       by=0,bit=0,n=36
         2 000646   400000 000001                    BDSC    0,,PR4                   by=0,bit=0,n=1

     1482     1996    3               PA_ENTRY.TYPE = RC_TYPE;

   1996  2 000647   000000 471400 xsym               LDP1    ENTRY$
         2 000650   003100 061500                    CSR     bolr='003'O
         2 000651   200006 000044                    BDSC    RC_TYPE,,AUTO            by=0,bit=0,n=36
         2 000652   100000 060014                    BDSC    0,,PR1                   by=0,bit=6,n=12

     1483     1997    3               PA_ENTRY.PTRS=PINCRC(ADDR(LOC_PTR),4-PTR_LEN)->PTR_V;

   1997  2 000653   000000 335000 xsym               LCA     PTR_LEN
         2 000654   000000 720000 xsym               LXL0    PTR_LEN
         2 000655   000000 471400 xsym               LDP1    ENTRY$
         2 000656   040140 100545                    MLR     fill='040'O
         2 000657   200005 000010                    ADSC9   GLO_PTR,A,AUTO           cn=0,n=*X0
         2 000660   100000 400010                    ADSC9   0,,PR1                   cn=2,n=*X0

     1484     1998    3               REC2$=PINCRC(ENTRY$,2+PTR_LEN); /* POINT TO KEY IN ENTRY */

   1998  2 000661   000000 236000 xsym               LDQ     PTR_LEN
         2 000662   000020 736000                    QLS     16
         2 000663   400000 036007                    ADLQ    -131072,DL
         2 000664   000000 036000 xsym               ADLQ    ENTRY$
         2 000665   000000 756000 xsym               STQ     REC2$

     1485     1999    3               KEY_V=PA_KEY;
PL6.E3A0      #004=STORE_AN_ENTRY File=ZIU$COMPACT.:ZIC0TSI                      FRI 09/05/97 13:10 Page:280

   1999  2 000666   000000 720000 xsym               LXL0    KEY_LEN
         2 000667   000000 471400 xsym               LDP1    REC2$
         2 000670   040140 100540                    MLR     fill='040'O
         2 000671   000000 000010                    ADSC9   0,,PR0                   cn=0,n=*X0
         2 000672   100000 000010                    ADSC9   0,,PR1                   cn=0,n=*X0

     1486     2000    3               END;

   2000  2 000673   001070 710000 2                  TRA     s:2034

     1487     2001    2           ELSE
     1488     2002    2               IF PA_ENTRY.C=0 THEN /* DUP KEY BUT PA_GROUP NOT PRESENT */

   2002  2 000674   000000 474400 xsym               LDP4    ENTRY$
         2 000675   003100 061500                    CSR     bolr='003'O
         2 000676   400000 000001                    BDSC    0,,PR4                   by=0,bit=0,n=1
         2 000677   200012 000044                    BDSC    RC_TYPE+4,,AUTO          by=0,bit=0,n=36
         2 000700   200012 236100                    LDQ     RC_TYPE+4,,AUTO
         2 000701   000000 116003                    CMPQ    0,DU
         2 000702   000774 601000 2                  TNZ     s:2018

     1489     2003    3               DO;

     1490     2004    3                   X=CURR_LEVEL.ENT_NO(LEVEL#)+ENTRY_LEN+PA_REC.AVAIL;

   2004  2 000703   000000 235000 xsym               LDA     LEVEL#
         2 000704   000002 735000                    ALS     2
         2 000705   000002 236005 xsym               LDQ     CURR_LEVEL+2,AL
         2 000706   000022 772000                    QRL     18
         2 000707   000000 036000 xsym               ADLQ    ENTRY_LEN
         2 000710   000100 101500                    MRL     fill='000'O
         2 000711   300001 400002                    ADSC9   1,,PR3                   cn=2,n=2
         2 000712   200012 000004                    ADSC9   RC_TYPE+4,,AUTO          cn=0,n=4
         2 000713   200012 036100                    ADLQ    RC_TYPE+4,,AUTO
         2 000714   000003 756000 0                  STQ     X

PL6.E3A0      #004=STORE_AN_ENTRY File=ZIU$COMPACT.:ZIC0TSI                      FRI 09/05/97 13:10 Page:281
     1491     2005    3                   GROUP$=PINCRC(REC$,X);

   2005  2 000715   000020 736000                    QLS     16
         2 000716   000000 036000 xsym               ADLQ    REC$
         2 000717   000000 756000 xsym               STQ     GROUP$

     1492     2006    3                   PA_GROUP.NO_GROUPS=2;

   2006  2 000720   000000 475400 xsym               LDP5    GROUP$
         2 000721   000100 101400                    MRL     fill='000'O
         2 000722   000001 000004 3                  ADSC9   1                        cn=0,n=4
         2 000723   500000 000002                    ADSC9   0,,PR5                   cn=0,n=2

     1493     2007    3                   PA_GROUP.TYPE=PA_ENTRY.TYPE;

   2007  2 000724   000000 471400 xsym               LDP1    ENTRY$
         2 000725   000000 473400 xsym               LDP3    GROUP$
         2 000726   003100 061500                    CSR     bolr='003'O
         2 000727   100000 060014                    BDSC    0,,PR1                   by=0,bit=6,n=12
         2 000730   300000 400022                    BDSC    0,,PR3                   by=2,bit=0,n=18

     1494     2008    3                   PA_GROUP.PTRS=PA_ENTRY.PTRS; /* GET PTR FROM ENTRY */

   2008  2 000731   000000 471400 xsym               LDP1    ENTRY$
         2 000732   000000 720000 xsym               LXL0    PTR_LEN
         2 000733   000000 473400 xsym               LDP3    GROUP$
         2 000734   040140 100540                    MLR     fill='040'O
         2 000735   100000 400010                    ADSC9   0,,PR1                   cn=2,n=*X0
         2 000736   300001 000010                    ADSC9   1,,PR3                   cn=0,n=*X0

     1495     2009    3                   PA_ENTRY.C=1; /* SET PA_GROUP PRESENT */

   2009  2 000737   003100 061400                    CSR     bolr='003'O
         2 000740   000015 000044 3                  BDSC    13                       by=0,bit=0,n=36
         2 000741   100000 000001                    BDSC    0,,PR1                   by=0,bit=0,n=1

     1496     2010    3                   PA_ENTRY.TYPE=0;
PL6.E3A0      #004=STORE_AN_ENTRY File=ZIU$COMPACT.:ZIC0TSI                      FRI 09/05/97 13:10 Page:282

   2010  2 000742   000000 471400 xsym               LDP1    ENTRY$
         2 000743   003100 061400                    CSR     bolr='003'O
         2 000744   000012 000044 3                  BDSC    10                       by=0,bit=0,n=36
         2 000745   100000 060014                    BDSC    0,,PR1                   by=0,bit=6,n=12

     1497     2011    3                   PA_ENTRY.PTRS=PINCRC(ADDR(X),4-PTR_LEN)->PTR_V;

   2011  2 000746   000000 335000 xsym               LCA     PTR_LEN
         2 000747   000000 720000 xsym               LXL0    PTR_LEN
         2 000750   000000 471400 xsym               LDP1    ENTRY$
         2 000751   040140 100445                    MLR     fill='040'O
         2 000752   000004 000010 0                  ADSC9   POINTER,A                cn=0,n=*X0
         2 000753   100000 400010                    ADSC9   0,,PR1                   cn=2,n=*X0

     1498     2012    3                   GROUP$=PINCRC(GROUP$,2+PTR_LEN);

   2012  2 000754   000000 236000 xsym               LDQ     PTR_LEN
         2 000755   000020 736000                    QLS     16
         2 000756   400000 036007                    ADLQ    -131072,DL
         2 000757   000000 036000 xsym               ADLQ    GROUP$
         2 000760   000000 756000 xsym               STQ     GROUP$

     1499     2013    3                   PA_GROUP.TYPE=RC_TYPE;

   2013  2 000761   000000 471400 xsym               LDP1    GROUP$
         2 000762   000100 101500                    MRL     fill='000'O
         2 000763   200006 000004                    ADSC9   RC_TYPE,,AUTO            cn=0,n=4
         2 000764   100000 400002                    ADSC9   0,,PR1                   cn=2,n=2

     1500     2014    3                   PA_GROUP.PTRS=PINCRC(ADDR(LOC_PTR),4-PTR_LEN)->PTR_V;

   2014  2 000765   000000 335000 xsym               LCA     PTR_LEN
         2 000766   000000 720000 xsym               LXL0    PTR_LEN
         2 000767   000000 471400 xsym               LDP1    GROUP$
         2 000770   040140 100545                    MLR     fill='040'O
         2 000771   200005 000010                    ADSC9   GLO_PTR,A,AUTO           cn=0,n=*X0
PL6.E3A0      #004=STORE_AN_ENTRY File=ZIU$COMPACT.:ZIC0TSI                      FRI 09/05/97 13:10 Page:283
         2 000772   100001 000010                    ADSC9   1,,PR1                   cn=0,n=*X0

     1501     2015    3                   END;

   2015  2 000773   001070 710000 2                  TRA     s:2034

     1502     2016    2               ELSE
     1503     2017    3               DO; /* DUP KEY AND PA_GROUP ALREADY THERE */

     1504     2018    3                   X=0;

   2018  2 000774   000003 450000 0                  STZ     X

     1505     2019    3                   PINCRC(ADDR(X),4-PTR_LEN)->PTR_V=PA_ENTRY.PTRS;

   2019  2 000775   000000 335000 xsym               LCA     PTR_LEN
         2 000776   000000 720000 xsym               LXL0    PTR_LEN
         2 000777   040045 100540                    MLR     fill='040'O
         2 001000   400000 400010                    ADSC9   0,,PR4                   cn=2,n=*X0
         2 001001   000004 000010 0                  ADSC9   POINTER,A                cn=0,n=*X0

     1506     2020    3                   GROUP$=PINCRC(REC$,X); /* POINT TO OLD PA_GROUP */

   2020  2 001002   000003 236000 0                  LDQ     X
         2 001003   000020 736000                    QLS     16
         2 001004   000000 036000 xsym               ADLQ    REC$
         2 001005   000000 756000 xsym               STQ     GROUP$

     1507     2021    3                   X=X-2-PTR_LEN; /* NEW OFFSET FOR PA_GROUP */

   2021  2 001006   000003 236000 0                  LDQ     X
         2 001007   000000 136000 xsym               SBLQ    PTR_LEN
         2 001010   000002 136007                    SBLQ    2,DL
         2 001011   000003 756000 0                  STQ     X

     1508     2022    3                   PA_ENTRY.PTRS=PINCRC(ADDR(X),4-PTR_LEN)->PTR_V; /* UPDATE */

PL6.E3A0      #004=STORE_AN_ENTRY File=ZIU$COMPACT.:ZIC0TSI                      FRI 09/05/97 13:10 Page:284
   2022  2 001012   040140 100445                    MLR     fill='040'O
         2 001013   000004 000010 0                  ADSC9   POINTER,A                cn=0,n=*X0
         2 001014   400000 400010                    ADSC9   0,,PR4                   cn=2,n=*X0

     1509     2023    3                   X=PA_GROUP.NO_GROUPS; /* GET OLD NUMBER OF PTRS IN GROUP */

   2023  2 001015   000000 471400 xsym               LDP1    GROUP$
         2 001016   000000 101500                    MRL     fill='000'O
         2 001017   100000 000002                    ADSC9   0,,PR1                   cn=0,n=2
         2 001020   000003 000004 0                  ADSC9   X                        cn=0,n=4

     1510     2024    3                   Y=2+(2+PTR_LEN)*X; /* Y=THE SIZE OF OLD PTR GROUP */

   2024  2 001021   000000 236000 xsym               LDQ     PTR_LEN
         2 001022   000002 036007                    ADLQ    2,DL
         2 001023   000003 402000 0                  MPY     X
         2 001024   000002 036007                    ADLQ    2,DL
         2 001025   000000 756000 0                  STQ     Y

     1511     2025    3                   PINCRC(GROUP$,-2-PTR_LEN)->CHAR_V = GROUP$->CHAR_V;

   2025  2 001026   000000 335000 xsym               LCA     PTR_LEN
         2 001027   000000 620006                    EAX0    0,QL
         2 001030   000000 721000 0                  LXL1    Y
         2 001031   040145 100540                    MLR     fill='040'O
         2 001032   100000 000010                    ADSC9   0,,PR1                   cn=0,n=*X0
         2 001033   177777 400011                    ADSC9   -1,A,PR1                 cn=2,n=*X1

     1512     2026         /* SHIFT OLD PTR GROUP UP BY 2+PTR_LEN BYTES */
     1513     2027    3                   GROUP$ = PINCRC(GROUP$,-2-PTR_LEN); /* POINT TO NEW PA_GROUP */

   2027  2 001034   000002 336007                    LCQ     2,DL
         2 001035   000000 136000 xsym               SBLQ    PTR_LEN
         2 001036   000020 736000                    QLS     16
         2 001037   000000 036000 xsym               ADLQ    GROUP$
         2 001040   000000 756000 xsym               STQ     GROUP$

PL6.E3A0      #004=STORE_AN_ENTRY File=ZIU$COMPACT.:ZIC0TSI                      FRI 09/05/97 13:10 Page:285
     1514     2028    3                   PA_GROUP.NO_GROUPS = X+1; /* UPDATE NEW NUM OF PTRS */

   2028  2 001041   000003 236000 0                  LDQ     X
         2 001042   000001 036007                    ADLQ    1,DL
         2 001043   200012 756100                    STQ     RC_TYPE+4,,AUTO
         2 001044   000000 471400 xsym               LDP1    GROUP$
         2 001045   000100 101500                    MRL     fill='000'O
         2 001046   200012 000004                    ADSC9   RC_TYPE+4,,AUTO          cn=0,n=4
         2 001047   100000 000002                    ADSC9   0,,PR1                   cn=0,n=2

     1515     2029    3                   GROUP$=PINCRC(GROUP$,X*(2+PTR_LEN)); /* POINT TO LAST PTR */

   2029  2 001050   000000 236000 xsym               LDQ     PTR_LEN
         2 001051   000002 036007                    ADLQ    2,DL
         2 001052   000003 402000 0                  MPY     X
         2 001053   000020 736000                    QLS     16
         2 001054   000000 036000 xsym               ADLQ    GROUP$
         2 001055   000000 756000 xsym               STQ     GROUP$

     1516     2030    3                   PA_GROUP.TYPE=RC_TYPE; /* STORE NEW PTR IN PTR GROUP */

   2030  2 001056   000000 471400 xsym               LDP1    GROUP$
         2 001057   000100 101500                    MRL     fill='000'O
         2 001060   200006 000004                    ADSC9   RC_TYPE,,AUTO            cn=0,n=4
         2 001061   100000 400002                    ADSC9   0,,PR1                   cn=2,n=2

     1517     2031    3                   PA_GROUP.PTRS=PINCRC(ADDR(LOC_PTR),4-PTR_LEN)->PTR_V;

   2031  2 001062   000000 335000 xsym               LCA     PTR_LEN
         2 001063   000000 720000 xsym               LXL0    PTR_LEN
         2 001064   000000 471400 xsym               LDP1    GROUP$
         2 001065   040140 100545                    MLR     fill='040'O
         2 001066   200005 000010                    ADSC9   GLO_PTR,A,AUTO           cn=0,n=*X0
         2 001067   100001 000010                    ADSC9   1,,PR1                   cn=0,n=*X0

     1518     2032    3                   END;

PL6.E3A0      #004=STORE_AN_ENTRY File=ZIU$COMPACT.:ZIC0TSI                      FRI 09/05/97 13:10 Page:286
     1519     2033    2           END;

     1520     2034    1       LEVEL# = LEVEL# + 1;

   2034  2 001070   000000 054000 xsym               AOS     LEVEL#

     1521     2035    1       IF LEVEL#<=NO_OF_LEVELS THEN /* WE ARE IN HIGHER LEVEL */

   2035  2 001071   000000 236000 xsym               LDQ     NO_OF_LEVELS
         2 001072   001075 604000 2                  TMI     s:2037
         2 001073   000000 116000 xsym               CMPQ    LEVEL#
         2 001074   001123 604000 2                  TMI     s:2047

     1522     2036    2       DO; /* RECURSIVE RETURNS, SO RESTORE REC$ */

     1523     2037    2           REC$ = CURR_LEVEL.REC$(LEVEL#);

   2037  2 001075   000000 235000 xsym               LDA     LEVEL#
         2 001076   000002 735000                    ALS     2
         2 001077   000003 236005 xsym               LDQ     CURR_LEVEL+3,AL
         2 001100   000000 756000 xsym               STQ     REC$

     1524     2038    2           REC2$= PINCRC(REC$,8+2*PTR_LEN);

   2038  2 001101   000000 236000 xsym               LDQ     PTR_LEN
         2 001102   000021 736000                    QLS     17
         2 001103   000002 036003                    ADLQ    2,DU
         2 001104   000000 036000 xsym               ADLQ    REC$
         2 001105   000000 756000 xsym               STQ     REC2$

     1525     2039    2           CALL LOAD_PTR; /* LOAD THE OWNER PTR */

   2039  2 001106   001147 701000 2                  TSX1    LOAD_PTR
         2 001107   000000 011000                    NOP     0

     1526     2040    2           IF POINTER~=CURR_LEVEL.DBK(LEVEL#-1) THEN

PL6.E3A0      #004=STORE_AN_ENTRY File=ZIU$COMPACT.:ZIC0TSI                      FRI 09/05/97 13:10 Page:287
   2040  2 001110   000000 235000 xsym               LDA     LEVEL#
         2 001111   000002 735000                    ALS     2
         2 001112   000004 236000 0                  LDQ     POINTER
         2 001113   001116 604000 2                  TMI     s:2042
         2 001114   777774 116005 xsym               CMPQ    CURR_LEVEL-4,AL
         2 001115   001146 600000 2                  TZE     s:2055

     1527     2041    3           DO; /* OWNER PTR OF THIS PA NEEDS  TO BE UPDATED */

     1528     2042    3               POINTER = CURR_LEVEL.DBK(LEVEL#-1);

   2042  2 001116   777774 235005 xsym               LDA     CURR_LEVEL-4,AL
         2 001117   000004 755000 0                  STA     POINTER

     1529     2043    3               CALL STORE_PTR;

   2043  2 001120   001164 701000 2                  TSX1    STORE_PTR
         2 001121   000000 011000                    NOP     0

     1530     2044    3               END;

     1531     2045    2           END;

   2045  2 001122   001146 710000 2                  TRA     s:2055

     1532     2046    1       ELSE
     1533     2047    1           IF STK.NEXT(1)~=CURR_LEVEL.DBK(LEVEL#-1) THEN

   2047  2 001123   000000 235000 xsym               LDA     LEVEL#
         2 001124   000002 735000                    ALS     2
         2 001125   000004 236000 xsym               LDQ     STK+4
         2 001126   001131 604000 2                  TMI     s:2049
         2 001127   777774 116005 xsym               CMPQ    CURR_LEVEL-4,AL
         2 001130   001146 600000 2                  TZE     s:2055

     1534     2048    2           DO; /* THE PA_OWNER PTR OF THIS PA_MEMBER NEEDS TO BE UPDATED */

PL6.E3A0      #004=STORE_AN_ENTRY File=ZIU$COMPACT.:ZIC0TSI                      FRI 09/05/97 13:10 Page:288
     1535     2049    2               STK.NEXT(1)=CURR_LEVEL.DBK(LEVEL#-1); /* NEW PA OWNER PTR */

   2049  2 001131   777774 235005 xsym               LDA     CURR_LEVEL-4,AL
         2 001132   000004 755000 xsym               STA     STK+4

     1536     2050    2               KEY.TXT=STK.CURR(1);

   2050  2 001133   000000 100400                    MLR     fill='000'O
         2 001134   000006 000004 xsym               ADSC9   STK+6                    cn=0,n=4
         2 001135   000000 200004 xsym               ADSC9   KEY                      cn=1,n=4

     1537     2051    2               KEY.RC_PTR = STK.RC_PTR(1);

   2051  2 001136   000007 236000 xsym               LDQ     STK+7
         2 001137   000011 772000                    QRL     9
         2 001140   000001 552020 xsym               STBQ    KEY+1,'20'O

     1538     2052    2               CALL M$WRITE(WRITE_TEMP) ALTRET(ALT_WRIT_TEMP);

   2052  2 001141   000000 630400 xsym               EPPR0   WRITE_TEMP
         2 001142   440001 713400                    CLIMB   alt,write
         2 001143   401400 401760                    pmme    nvectors=4
         2 001144   001562 702000 2                  TSX2    ALT_WRIT_TEMP

     1539     2053    2               REC_CNT = REC_CNT + 1;

   2053  2 001145   000000 054000 xsym               AOS     REC_CNT

     1540     2054    2               END;

     1541     2055    1       RETURN;

   2055  2 001146   000000 702200 xent               TSX2  ! X66_ARET

     1542     2056
     1543     2057        %EJECT;
PL6.E3A0      #004=STORE_AN_ENTRY File=ZIU$COMPACT.:ZIC0TSI                      FRI 09/05/97 13:10 Page:289
     1544     2058        /*
     1545     2059              SUBR   LOAD_PTR   AND   STORE_PTR
     1546     2060                     INPUT:  POINTER - UBIN WORD CONTAINING AFTER LOAD PTR
     1547     2061                             REC2$   - PTR TO LOCATION OF PTR
     1548     2062        */
     1549     2063    1   LOAD_PTR: PROC;

   2063  2 001147   200010 741300       LOAD_PTR     STX1  ! RC_TYPE+2,,AUTO

     1550     2064
     1551     2065    2       POINTER=0; /* INIT BEFORE LOADING IN CASE GARBAGE */

   2065  2 001150   000004 450000 0                  STZ     POINTER

     1552     2066    2       PINCRC(ADDR(POINTER),4-PTR_LEN)->PTR_V=PTR_V;

   2066  2 001151   000000 335000 xsym               LCA     PTR_LEN
         2 001152   000000 470400 xsym               LDP0    REC2$
         2 001153   000000 720000 xsym               LXL0    PTR_LEN
         2 001154   040045 100540                    MLR     fill='040'O
         2 001155   000000 000010                    ADSC9   0,,PR0                   cn=0,n=*X0
         2 001156   000005 000010 0                  ADSC9   POINTER+1,A              cn=0,n=*X0

     1553     2067    2       IF POINTER>0 THEN /* IF =0,DONT ADJUST PTR */

   2067  2 001157   000004 236000 0                  LDQ     POINTER
         2 001160   001163 604400 2                  TMOZ    s:2069

     1554     2068    2           POINTER=POINTER+BASE_DBK; /* IF SC LOCAL,ADJUST DBK */

   2068  2 001161   000000 036000 xsym               ADLQ    BASE_DBK
         2 001162   000004 756000 0                  STQ     POINTER

     1555     2069    2       RETURN; /* WITH PTR LOADED IN POINTER */

   2069  2 001163   000001 702211                    TSX2  ! 1,X1

PL6.E3A0      #004=STORE_AN_ENTRY File=ZIU$COMPACT.:ZIC0TSI                      FRI 09/05/97 13:10 Page:290
     1556     2070
     1557     2071    2   STORE_PTR: ENTRY;

   2071  2 001164   200010 741300       STORE_PTR    STX1  ! RC_TYPE+2,,AUTO

     1558     2072
     1559     2073    2       POINTER = POINTER - BASE_DBK; /* CONV TO LOCAL IF SC IS LOCAL */

   2073  2 001165   000004 236000 0                  LDQ     POINTER
         2 001166   000000 136000 xsym               SBLQ    BASE_DBK
         2 001167   000004 756000 0                  STQ     POINTER

     1560     2074    2       PTR_V=PINCRC(ADDR(POINTER),4-PTR_LEN)->PTR_V;

   2074  2 001170   000000 335000 xsym               LCA     PTR_LEN
         2 001171   000000 720000 xsym               LXL0    PTR_LEN
         2 001172   000000 470400 xsym               LDP0    REC2$
         2 001173   040140 100445                    MLR     fill='040'O
         2 001174   000005 000010 0                  ADSC9   POINTER+1,A              cn=0,n=*X0
         2 001175   000000 000010                    ADSC9   0,,PR0                   cn=0,n=*X0

     1561     2075
     1562     2076    2   END LOAD_PTR;

   2076  2 001176   200010 221300                    LDX1  ! RC_TYPE+2,,AUTO
         2 001177   000001 702211                    TSX2  ! 1,X1

     1563     2077         %EJECT;
PL6.E3A0      #004=STORE_AN_ENTRY File=ZIU$COMPACT.:ZIC0TSI                      FRI 09/05/97 13:10 Page:291
     1564     2078
     1565     2079    1   PA_CLEANUP: ENTRY ALTRET;

   2079  2 001200   000000 700200 xent  PA_CLEANUP   TSX0  ! X66_AUTO_1
         2 001201   000016 000001                    ZERO    14,1

     1566     2080
     1567     2081    1       NEW_HIGHEST = 0;

   2081  2 001202   000002 450000 0                  STZ     NEW_HIGHEST

     1568     2082    2       DO LEVEL#=NO_OF_LEVELS DOWNTO 1; /* NO NEED TO CHECK HIGHEST LEVEL */

   2082  2 001203   000000 235000 xsym               LDA     NO_OF_LEVELS
         2 001204   000000 755000 xsym               STA     LEVEL#
         2 001205   001414 710000 2                  TRA     s:2122+2

     1569     2083    2           REC$ = CURR_LEVEL.REC$(LEVEL#);

   2083  2 001206   000000 235000 xsym               LDA     LEVEL#
         2 001207   000002 735000                    ALS     2
         2 001210   000003 236005 xsym               LDQ     CURR_LEVEL+3,AL
         2 001211   000000 756000 xsym               STQ     REC$

     1570     2084    2           PA_REC.LAST_IN_LEVEL='1'B; /* SET LAST IN LEVEL BIT */

   2084  2 001212   000000 470400 xsym               LDP0    REC$
         2 001213   003100 060400                    CSL     bolr='003'O
         2 001214   000013 000001 3                  BDSC    11                       by=0,bit=0,n=1
         2 001215   000001 030001                    BDSC    1,,PR0                   by=0,bit=3,n=1

     1571     2085    2           REC2$=PINCRC(REC$,2*4+4*PTR_LEN+2); /* FIRST KEY IN PA */

   2085  2 001216   000000 236000 xsym               LDQ     PTR_LEN
         2 001217   000022 736000                    QLS     18
         2 001220   000017 036000 3                  ADLQ    15
         2 001221   000000 036000 xsym               ADLQ    REC$
PL6.E3A0      #004=STORE_AN_ENTRY File=ZIU$COMPACT.:ZIC0TSI                      FRI 09/05/97 13:10 Page:292
         2 001222   000000 756000 xsym               STQ     REC2$

     1572     2086
     1573     2087    2           CALL STORE_AN_ENTRY(KEY_V) ALTRET(ALT_WRIT_TEMP);

   2087  2 001223   000000 630400 xsym               EPPR0   REC2$
         2 001224   000020 631400 3                  EPPR1   16
         2 001225   000000 701000 2                  TSX1    s:12
         2 001226   001562 702000 2                  TSX2    ALT_WRIT_TEMP

     1574     2088
     1575     2089    2           IF PA_REC.FIRST_IN_LEVEL AND NEW_HIGHEST=0 THEN

   2089  2 001227   000000 470400 xsym               LDP0    REC$
         2 001230   000000 066500                    CMPB    filb='0'B
         2 001231   000001 020001                    BDSC    1,,PR0                   by=0,bit=2,n=1
         2 001232   000012 000022 3                  BDSC    10                       by=0,bit=0,n=18
         2 001233   001240 600000 2                  TZE     s:2091
         2 001234   000002 235000 0                  LDA     NEW_HIGHEST
         2 001235   001240 601000 2                  TNZ     s:2091

     1576     2090    2               NEW_HIGHEST = LEVEL#; /* THIS SHOULD BE THE NEW HIGHEST PA */

   2090  2 001236   000000 236000 xsym               LDQ     LEVEL#
         2 001237   000002 756000 0                  STQ     NEW_HIGHEST

     1577     2091    2           REC2$=PINCRC(REC$,8); /* LOCATION OF NEXT PTR */

   2091  2 001240   000000 236000 xsym               LDQ     REC$
         2 001241   000002 036003                    ADLQ    2,DU
         2 001242   000000 756000 xsym               STQ     REC2$

     1578     2092    2           CALL LOAD_PTR; /* LOAD IT */

   2092  2 001243   001147 701000 2                  TSX1    LOAD_PTR
         2 001244   000000 011000                    NOP     0

PL6.E3A0      #004=STORE_AN_ENTRY File=ZIU$COMPACT.:ZIC0TSI                      FRI 09/05/97 13:10 Page:293
     1579     2093    2           X = POINTER;

   2093  2 001245   000004 235000 0                  LDA     POINTER
         2 001246   000003 755000 0                  STA     X

     1580     2094    2           IF X~= CURR_LEVEL.FIRST_PA(LEVEL#) THEN

   2094  2 001247   000000 236000 xsym               LDQ     LEVEL#
         2 001250   000002 736000                    QLS     2
         2 001251   000000 620006                    EAX0    0,QL
         2 001252   000003 236000 0                  LDQ     X
         2 001253   001256 604000 2                  TMI     s:2096
         2 001254   000001 116010 xsym               CMPQ    CURR_LEVEL+1,X0
         2 001255   001373 600000 2                  TZE     s:2120

     1581     2095    3           DO;

     1582     2096    3               POINTER = CURR_LEVEL.FIRST_PA(LEVEL#); /* NEW NEXT PTR */

   2096  2 001256   000001 235010 xsym               LDA     CURR_LEVEL+1,X0
         2 001257   000004 755000 0                  STA     POINTER

     1583     2097    3               CALL STORE_PTR; /* UPDATE TO NEW PTR */

   2097  2 001260   001164 701000 2                  TSX1    STORE_PTR
         2 001261   000000 011000                    NOP     0

     1584     2098    3               CALL FIND_DIRECT(CURR_LEVEL.FIRST_PA(LEVEL#),%MUST_WRITE);

   2098  2 001262   000023 236000 3                  LDQ     19
         2 001263   200013 756100                    STQ     RC_TYPE+5,,AUTO
         2 001264   000000 236000 xsym               LDQ     LEVEL#
         2 001265   000024 736000                    QLS     20
         2 001266   000024 036000 3                  ADLQ    20
         2 001267   200012 756100                    STQ     RC_TYPE+4,,AUTO
         2 001270   200012 630500                    EPPR0   RC_TYPE+4,,AUTO
         2 001271   000000 631400 3                  EPPR1   0
PL6.E3A0      #004=STORE_AN_ENTRY File=ZIU$COMPACT.:ZIC0TSI                      FRI 09/05/97 13:10 Page:294
         2 001272   000000 701000 xent               TSX1    FIND_DIRECT
         2 001273   000000 011000                    NOP     0

     1585     2099    3               REC2$=PINCRC(REC$,8+PTR_LEN); /* LOCATION OF PRIOR PTR */

   2099  2 001274   000000 236000 xsym               LDQ     PTR_LEN
         2 001275   000020 736000                    QLS     16
         2 001276   000002 036003                    ADLQ    2,DU
         2 001277   000000 036000 xsym               ADLQ    REC$
         2 001300   000000 756000 xsym               STQ     REC2$

     1586     2100    3               POINTER=CURR_LEVEL.DBK(LEVEL#); /* PRIOR OF FIRST PA */

   2100  2 001301   000000 235000 xsym               LDA     LEVEL#
         2 001302   000002 735000                    ALS     2
         2 001303   000000 235005 xsym               LDA     CURR_LEVEL,AL
         2 001304   000004 755000 0                  STA     POINTER

     1587     2101    3               CALL STORE_PTR;

   2101  2 001305   001164 701000 2                  TSX1    STORE_PTR
         2 001306   000000 011000                    NOP     0

     1588     2102    3               IF X=CURR_OWNER THEN /* IT IS A NEW CREATED PA */

   2102  2 001307   000003 236000 0                  LDQ     X
         2 001310   001317 604000 2                  TMI     s:2104
         2 001311   000000 116000 xsym               CMPQ    CURR_OWNER
         2 001312   001317 601000 2                  TNZ     s:2104

     1589     2103    3                   X=CURR_LEVEL.FIRST_PA(LEVEL#); /* FORCE A END OF SET */

   2103  2 001313   000000 235000 xsym               LDA     LEVEL#
         2 001314   000002 735000                    ALS     2
         2 001315   000001 235005 xsym               LDA     CURR_LEVEL+1,AL
         2 001316   000003 755000 0                  STA     X

PL6.E3A0      #004=STORE_AN_ENTRY File=ZIU$COMPACT.:ZIC0TSI                      FRI 09/05/97 13:10 Page:295
     1590     2104    4               DO WHILE(X~=CURR_LEVEL.FIRST_PA(LEVEL#));

   2104  2 001317   000000 235000 xsym               LDA     LEVEL#
         2 001320   000002 735000                    ALS     2
         2 001321   000003 236000 0                  LDQ     X
         2 001322   001325 604000 2                  TMI     s:2107
         2 001323   000001 116005 xsym               CMPQ    CURR_LEVEL+1,AL
         2 001324   001373 600000 2                  TZE     s:2120

     1591     2105
     1592     2106         /* NOW WE WILL ERASE ALL PA FROM THEN ON */
     1593     2107    4                   CALL FIND_DIRECT(X,%MUST_WRITE);

   2107  2 001325   000025 630400 3                  EPPR0   21
         2 001326   000000 631400 3                  EPPR1   0
         2 001327   000000 701000 xent               TSX1    FIND_DIRECT
         2 001330   000000 011000                    NOP     0

     1594     2108    4                   REC2$ = PINCRC(REC$,8); /* GET THE NEXT PTR */

   2108  2 001331   000000 236000 xsym               LDQ     REC$
         2 001332   000002 036003                    ADLQ    2,DU
         2 001333   000000 756000 xsym               STQ     REC2$

     1595     2109    4                   CALL LOAD_PTR;

   2109  2 001334   001147 701000 2                  TSX1    LOAD_PTR
         2 001335   000000 011000                    NOP     0

     1596     2110    4                   X = POINTER; /* X=NEXT POINTER OF THIS ERASED PA */

   2110  2 001336   000004 235000 0                  LDA     POINTER
         2 001337   000003 755000 0                  STA     X

     1597     2111    4                   CALL ERASE_PAREC; /* THEN ERASE IT */

   2111  2 001340   000012 631400 3                  EPPR1   10
PL6.E3A0      #004=STORE_AN_ENTRY File=ZIU$COMPACT.:ZIC0TSI                      FRI 09/05/97 13:10 Page:296
         2 001341   000000 701000 xent               TSX1    ERASE_PAREC
         2 001342   000000 011000                    NOP     0

     1598     2112         /* ONCE A RECORD IS ERASED, REC$ CAN NO LONGER TRUSTED */
     1599     2113    5                   DO Z=0 TO LEVEL#-1;

   2113  2 001343   000001 450000 0                  STZ     Z
         2 001344   001362 710000 2                  TRA     s:2117+1

     1600     2114    5                       POINTER=CURR_LEVEL.DBK(Z); /* GET CURR IN LEVEL */

   2114  2 001345   000001 235000 0                  LDA     Z
         2 001346   000002 735000                    ALS     2
         2 001347   000000 235005 xsym               LDA     CURR_LEVEL,AL
         2 001350   000004 755000 0                  STA     POINTER

     1601     2115    5                       CALL FIND_DIRECT(POINTER,%DONT_LOCK);

   2115  2 001351   000027 630400 3                  EPPR0   23
         2 001352   000000 631400 3                  EPPR1   0
         2 001353   000000 701000 xent               TSX1    FIND_DIRECT
         2 001354   000000 011000                    NOP     0

     1602     2116    5                       CURR_LEVEL.REC$(Z)=REC$; /* SETUP NEW REC$ */

   2116  2 001355   000001 235000 0                  LDA     Z
         2 001356   000002 735000                    ALS     2
         2 001357   000000 236000 xsym               LDQ     REC$
         2 001360   000003 756005 xsym               STQ     CURR_LEVEL+3,AL

     1603     2117    5                       END;

   2117  2 001361   000001 054000 0                  AOS     Z
         2 001362   000001 236000 0                  LDQ     Z
         2 001363   000000 116000 xsym               CMPQ    LEVEL#
         2 001364   001345 604000 2                  TMI     s:2114

PL6.E3A0      #004=STORE_AN_ENTRY File=ZIU$COMPACT.:ZIC0TSI                      FRI 09/05/97 13:10 Page:297
     1604     2118    4                   END;

   2118  2 001365   000000 235000 xsym               LDA     LEVEL#
         2 001366   000002 735000                    ALS     2
         2 001367   000003 236000 0                  LDQ     X
         2 001370   001325 604000 2                  TMI     s:2107
         2 001371   000001 116005 xsym               CMPQ    CURR_LEVEL+1,AL
         2 001372   001325 601000 2                  TNZ     s:2107

     1605     2119    3               END;

     1606     2120    2           BUF_PTR=CURR_LEVEL.BUF_PTR(LEVEL#);

   2120  2 001373   000000 235000 xsym               LDA     LEVEL#
         2 001374   000002 735000                    ALS     2
         2 001375   000002 236005 xsym               LDQ     CURR_LEVEL+2,AL
         2 001376   000011 772000                    QRL     9
         2 001377   000377 376007                    ANQ     255,DL
         2 001400   000000 756000 xsym               STQ     BUF_PTR

     1607     2121    2           POOL.LOCKS(BUF_PTR)=POOL.LOCKS(BUF_PTR)-1; /* UNLOCK CURR */

   2121  2 001401   000000 720000 xsym               LXL0    BUF_PTR
         2 001402   000000 236006 xsym               LDQ     POOL,QL
         2 001403   000032 772000                    QRL     26
         2 001404   000777 376007                    ANQ     511,DL
         2 001405   000001 136007                    SBLQ    1,DL
         2 001406   000032 736000                    QLS     26
         2 001407   000000 676010 xsym               ERQ     POOL,X0
         2 001410   377400 376003                    ANQ     130816,DU
         2 001411   000000 656010 xsym               ERSQ    POOL,X0

     1608     2122    2           END; /* CHKING EACH LEVEL,UNLOCKING, ERASING EXCESSIVE PAS */

   2122  2 001412   000001 336007                    LCQ     1,DL
         2 001413   000000 056000 xsym               ASQ     LEVEL#
         2 001414   000000 235000 xsym               LDA     LEVEL#
PL6.E3A0      #004=STORE_AN_ENTRY File=ZIU$COMPACT.:ZIC0TSI                      FRI 09/05/97 13:10 Page:298
         2 001415   001206 605400 2                  TPNZ    s:2083

     1609     2123    1       BUF_PTR=CURR_LEVEL.BUF_PTR(0);

   2123  2 001416   000002 236000 xsym               LDQ     CURR_LEVEL+2
         2 001417   000011 772000                    QRL     9
         2 001420   000377 376007                    ANQ     255,DL
         2 001421   000000 756000 xsym               STQ     BUF_PTR

     1610     2124    1       POOL.LOCKS(BUF_PTR)=POOL.LOCKS(BUF_PTR)-1; /* UNLOCK CURR OF LEVEL */

   2124  2 001422   000000 720000 xsym               LXL0    BUF_PTR
         2 001423   000000 236006 xsym               LDQ     POOL,QL
         2 001424   000032 772000                    QRL     26
         2 001425   000777 376007                    ANQ     511,DL
         2 001426   000001 136007                    SBLQ    1,DL
         2 001427   000032 736000                    QLS     26
         2 001430   000000 676010 xsym               ERQ     POOL,X0
         2 001431   377400 376003                    ANQ     130816,DU
         2 001432   000000 656010 xsym               ERSQ    POOL,X0

     1611     2125    1       REC$=CURR_LEVEL.REC$(0); /* GET HIGHEST LEVEL OF PA_EC */

   2125  2 001433   000003 236000 xsym               LDQ     CURR_LEVEL+3
         2 001434   000000 756000 xsym               STQ     REC$

     1612     2126    1       PA_REC.LAST_IN_LEVEL='1'B; /* SET LAST IN LEVEL BIT */

   2126  2 001435   000000 470400 xsym               LDP0    REC$
         2 001436   003100 060400                    CSL     bolr='003'O
         2 001437   000013 000001 3                  BDSC    11                       by=0,bit=0,n=1
         2 001440   000001 030001                    BDSC    1,,PR0                   by=0,bit=3,n=1

     1613     2127
     1614     2128    1       IF NEW_HIGHEST > 0 THEN /* WE CAN REDUCE NO_OF_LEVELS */

   2128  2 001441   000002 235000 0                  LDA     NEW_HIGHEST
PL6.E3A0      #004=STORE_AN_ENTRY File=ZIU$COMPACT.:ZIC0TSI                      FRI 09/05/97 13:10 Page:299
         2 001442   001530 600000 2                  TZE     s:2146

     1615     2129    2       DO;

     1616     2130    2           CALL FIND_DIRECT(CURR_LEVEL.DBK(NEW_HIGHEST),%MUST_WRITE);

   2130  2 001443   000023 236000 3                  LDQ     19
         2 001444   200013 756100                    STQ     RC_TYPE+5,,AUTO
         2 001445   000002 236000 0                  LDQ     NEW_HIGHEST
         2 001446   000024 736000                    QLS     20
         2 001447   000031 036000 3                  ADLQ    25
         2 001450   200012 756100                    STQ     RC_TYPE+4,,AUTO
         2 001451   200012 630500                    EPPR0   RC_TYPE+4,,AUTO
         2 001452   000000 631400 3                  EPPR1   0
         2 001453   000000 701000 xent               TSX1    FIND_DIRECT
         2 001454   000000 011000                    NOP     0

     1617     2131    2           REC2$=PINCRC(REC$,8);

   2131  2 001455   000000 236000 xsym               LDQ     REC$
         2 001456   000002 036003                    ADLQ    2,DU
         2 001457   000000 756000 xsym               STQ     REC2$

     1618     2132    2           POINTER=CURR_OWNER; /* NEXT PTR OF HIGHEST PA IS OWNER */

   2132  2 001460   000000 235000 xsym               LDA     CURR_OWNER
         2 001461   000004 755000 0                  STA     POINTER

     1619     2133    2           CALL STORE_PTR;

   2133  2 001462   001164 701000 2                  TSX1    STORE_PTR
         2 001463   000000 011000                    NOP     0

     1620     2134    2           REC2$=PINCRC(REC2$,PTR_LEN); /* PRIOR IS ALSO OWNER */

   2134  2 001464   000000 236000 xsym               LDQ     PTR_LEN
         2 001465   000020 736000                    QLS     16
PL6.E3A0      #004=STORE_AN_ENTRY File=ZIU$COMPACT.:ZIC0TSI                      FRI 09/05/97 13:10 Page:300
         2 001466   000000 036000 xsym               ADLQ    REC2$
         2 001467   000000 756000 xsym               STQ     REC2$

     1621     2135    2           POINTER=CURR_OWNER;

   2135  2 001470   000000 235000 xsym               LDA     CURR_OWNER
         2 001471   000004 755000 0                  STA     POINTER

     1622     2136    2           CALL STORE_PTR;

   2136  2 001472   001164 701000 2                  TSX1    STORE_PTR
         2 001473   000000 011000                    NOP     0

     1623     2137    2           REC2$=PINCRC(REC2$,PTR_LEN);

   2137  2 001474   000000 236000 xsym               LDQ     PTR_LEN
         2 001475   000020 736000                    QLS     16
         2 001476   000000 036000 xsym               ADLQ    REC2$
         2 001477   000000 756000 xsym               STQ     REC2$

     1624     2138    2           POINTER=CURR_OWNER;

   2138  2 001500   000000 235000 xsym               LDA     CURR_OWNER
         2 001501   000004 755000 0                  STA     POINTER

     1625     2139    2           CALL STORE_PTR;

   2139  2 001502   001164 701000 2                  TSX1    STORE_PTR
         2 001503   000000 011000                    NOP     0

     1626     2140    3           DO Z=0 TO NEW_HIGHEST-1; /* ERASE ALL THE HIGHER PA */

   2140  2 001504   000001 450000 0                  STZ     Z
         2 001505   001524 710000 2                  TRA     s:2143+1

     1627     2141    3               CALL FIND_DIRECT(CURR_LEVEL.DBK(Z),%MUST_WRITE); /* GET THEM */

PL6.E3A0      #004=STORE_AN_ENTRY File=ZIU$COMPACT.:ZIC0TSI                      FRI 09/05/97 13:10 Page:301
   2141  2 001506   000023 236000 3                  LDQ     19
         2 001507   200013 756100                    STQ     RC_TYPE+5,,AUTO
         2 001510   000001 236000 0                  LDQ     Z
         2 001511   000024 736000                    QLS     20
         2 001512   000031 036000 3                  ADLQ    25
         2 001513   200012 756100                    STQ     RC_TYPE+4,,AUTO
         2 001514   200012 630500                    EPPR0   RC_TYPE+4,,AUTO
         2 001515   000000 631400 3                  EPPR1   0
         2 001516   000000 701000 xent               TSX1    FIND_DIRECT
         2 001517   000000 011000                    NOP     0

     1628     2142    3               CALL ERASE_PAREC; /* THEN ERASE IT */

   2142  2 001520   000012 631400 3                  EPPR1   10
         2 001521   000000 701000 xent               TSX1    ERASE_PAREC
         2 001522   000000 011000                    NOP     0

     1629     2143    3               END;

   2143  2 001523   000001 054000 0                  AOS     Z
         2 001524   000001 236000 0                  LDQ     Z
         2 001525   001506 604000 2                  TMI     s:2141
         2 001526   000002 116000 0                  CMPQ    NEW_HIGHEST
         2 001527   001506 602000 2                  TNC     s:2141

     1630     2144    2           END; /* ALL EXCESSIVE HIGHER LEVEL PA ARE ERASED */

     1631     2145         /* NOW, CHECK IF OWNER'S PTRS NEEDED TO BE UPDATED */
     1632     2146    1       IF STK.NEXT(0)~=CURR_LEVEL.DBK(NEW_HIGHEST) THEN

   2146  2 001530   000002 235000 0                  LDA     NEW_HIGHEST
         2 001531   000002 735000                    ALS     2
         2 001532   000000 236000 xsym               LDQ     STK
         2 001533   001536 604000 2                  TMI     s:2148
         2 001534   000000 116005 xsym               CMPQ    CURR_LEVEL,AL
         2 001535   001561 600000 2                  TZE     s:2155

PL6.E3A0      #004=STORE_AN_ENTRY File=ZIU$COMPACT.:ZIC0TSI                      FRI 09/05/97 13:10 Page:302
     1633     2147    2       DO; /* THIS HAPPENS WHEN HIGHEST PA ERASED OR CREATED */

     1634     2148    2           STK.NEXT(1)=CURR_LEVEL.DBK(NEW_HIGHEST);

   2148  2 001536   000000 235005 xsym               LDA     CURR_LEVEL,AL
         2 001537   000004 755000 xsym               STA     STK+4

     1635     2149    2           STK.PRIOR(1)=STK.NEXT(1);

   2149  2 001540   000005 755000 xsym               STA     STK+5

     1636     2150    2           KEY.RC_PTR=SC_TBL.RC_PTR(SC_PTR);

   2150  2 001541   000000 236000 xsym               LDQ     SC_PTR
         2 001542   000405 402007                    MPY     261,DL
         2 001543   000000 116003                    CMPQ    0,DU
         2 001544   001546 605000 2                  TPL     s:2150+5
         2 001545   000044 036003                    ADLQ    36,DU
         2 001546   003000 060406                    CSL     bolr='003'O
         2 001547   000005 650011 xsym               BDSC    SC_TBL+5,Q               by=3,bit=5,n=9
         2 001550   000001 200011 xsym               BDSC    KEY+1                    by=1,bit=0,n=9

     1637     2151    2           KEY.TXT=CURR_OWNER;

   2151  2 001551   000000 100400                    MLR     fill='000'O
         2 001552   000000 000004 xsym               ADSC9   CURR_OWNER               cn=0,n=4
         2 001553   000000 200004 xsym               ADSC9   KEY                      cn=1,n=4

     1638     2152    2           CALL M$WRITE(WRITE_TEMP) ALTRET(ALT_WRIT_TEMP);

   2152  2 001554   000000 630400 xsym               EPPR0   WRITE_TEMP
         2 001555   440001 713400                    CLIMB   alt,write
         2 001556   401400 401760                    pmme    nvectors=4
         2 001557   001562 702000 2                  TSX2    ALT_WRIT_TEMP

     1639     2153    2           REC_CNT = REC_CNT + 1; /* OWNER WILL BE UPDATED LATER */

PL6.E3A0      #004=STORE_AN_ENTRY File=ZIU$COMPACT.:ZIC0TSI                      FRI 09/05/97 13:10 Page:303
   2153  2 001560   000000 054000 xsym               AOS     REC_CNT

     1640     2154    2           END;

     1641     2155    1       RETURN;

   2155  2 001561   000000 702200 xent               TSX2  ! X66_ARET

     1642     2156
     1643     2157    1   ALT_WRIT_TEMP:
     1644     2158    1       ALTRETURN;

   2158  2 001562   000000 702200 xent  ALT_WRIT_TE* TSX2  ! X66_AALT

(unnamed)
 Sect OctLoc
   3     000   000002 000000   000000 000002   000001 006000   000000 006000    ................
   3     004   000003 000000   000000 021765   000000 006000   000000 006000    ................
   3     010   000007 200000   000005 006000   000000 000000   400000 000000    ................
   3     014   777777 377777   000000 000001   000000 006014   000002 400000    ................
   3     020   000001 000000   000004 006000   000001 006000   000015 006000    ................
   3     024   000001 006000   000003 006000   000015 006000   000004 006000    ................
   3     030   000012 006000   000000 006000                                    ........
     1645     2159    1   END STORE_AN_ENTRY;
     1646     2160        %EOD;

PL6.E3A0      #004=STORE_AN_ENTRY File=ZIU$COMPACT.:ZIC0TSI                      FRI 09/05/97 13:10 Page:304
--  Include file information  --

   CP_6_SUBS.:LIB_E05  is referenced.
   ZI_ERRORS_SUBS.:ZIC0TOU  is referenced.
   ZI_PRSE_SUBS.:ZIC0TOU  is referenced.
   ZI_GLOBAL_DBUTIL.:ZIC0TOU  is referenced.
   ZI_DBU_XREF.:ZIC0TOU  cannot be made into a system file and is referenced.
   CP_6.:LIB_E05  cannot be made into a system file and is referenced.
   B$JIT_C.:E05TOU  was found in the system file and is never referenced.
   CP_6_C.:E05TOU  was found in the system file and is referenced.
      No diagnostics issued in procedure STORE_AN_ENTRY.

   Procedure STORE_AN_ENTRY requires 883 words for executable code.
   Procedure STORE_AN_ENTRY requires 14 words of local(AUTO) storage.
PL6.E3A0      #004=STORE_AN_ENTRY File=ZIU$COMPACT.:ZIC0TSI                      FRI 09/05/97 13:10 Page:305
          *** CROSS REFERENCE LISTING ***
**     DENOTES     IDENTIFIER DEFINITION
<<                 IDENTIFIER'S VALUE SET
>>                 IDENTIFIER'S VALUE USED
<>                 IDENTIFIER SET AND/OR USED
--                 IDENTIFIER REFERENCED
PL6.E3A0      #004=STORE_AN_ENTRY File=ZIU$COMPACT.:ZIC0TSI                      FRI 09/05/97 13:10 Page:306
          MINI XREF LISTING

ALT_WRIT_TEMP
      2158**LABEL    1946--CALLALT  2052--CALLALT  2087--CALLALT  2152--CALLALT
BASE_DBK
       409**DCL      1898>>ASSIGN   2068>>ASSIGN   2073>>ASSIGN
BIN_CHAR
        15**DCL-ENT  1854--CALL
BREAK_CLEANUP
        53**DCL      1847>>UNWIND   1856>>UNWIND
BREAK_FLAG
        59**DCL      1846>>IF
BUF_PTR
        30**DCL      1954<<ASSIGN   1955>>ASSIGN   1955>>ASSIGN   2120<<ASSIGN   2121>>ASSIGN   2121>>ASSIGN
      2123<<ASSIGN   2124>>ASSIGN   2124>>ASSIGN
CHAR_V
        55**DCL      2025<<ASSIGN   2025>>ASSIGN
COMMAND_TEXT
        29**DCL      1855<>CALL
CREATE_PAREC
        17**DCL-ENT  1866--CALL     1969--CALL
CURR_LEVEL
        45**DCL      1863<<ASSIGN   1863>>ASSIGN
CURR_LEVEL.BUF_PTR
        50**DCL      1954>>ASSIGN   1967>>ASSIGN   2120>>ASSIGN   2123>>ASSIGN
CURR_LEVEL.DBK
        46**DCL      1871>>ASSIGN   1882>>ASSIGN   1896>>ASSIGN   1957<<ASSIGN   1966>>ASSIGN   1972>>ASSIGN
      2040>>IF       2042>>ASSIGN   2047>>IF       2049>>ASSIGN   2100>>ASSIGN   2114>>ASSIGN   2130<>CALL
      2141<>CALL     2146>>IF       2148>>ASSIGN
CURR_LEVEL.DUPIND
        49**DCL      1870<<ASSIGN   1902>>IF       1909<<ASSIGN   1941<<ASSIGN
CURR_LEVEL.ENT_NO
        48**DCL      1869<<ASSIGN   1899>>IF       1910<<ASSIGN   1911>>ASSIGN   1912>>ASSIGN   1925>>ASSIGN
      1992<<ASSIGN   1992>>ASSIGN   1993>>ASSIGN   2004>>ASSIGN
PL6.E3A0      #004=STORE_AN_ENTRY File=ZIU$COMPACT.:ZIC0TSI                      FRI 09/05/97 13:10 Page:307
CURR_LEVEL.FIRST_PA
        47**DCL      1871<<ASSIGN   1951>>IF       2094>>IF       2096>>ASSIGN   2098<>CALL     2103>>ASSIGN
      2104>>DOWHILE
CURR_LEVEL.REC$
        52**DCL      1887>>ASSIGN   1958<<ASSIGN   2037>>ASSIGN   2083>>ASSIGN   2116<<ASSIGN   2125>>ASSIGN
CURR_OWNER
        23**DCL      1854<>CALL     1872>>ASSIGN   1875>>ASSIGN   1879>>ASSIGN   1881>>IF       1951>>IF
      1978>>ASSIGN   2102>>IF       2132>>ASSIGN   2135>>ASSIGN   2138>>ASSIGN   2151>>ASSIGN
DUMMY_V
        65**DCL      1918<<ASSIGN
ENTRY$
       624**DCL       615--IMP-PTR  1912<<ASSIGN   1913>>ASSIGN   1914>>ASSIGN   1915>>ASSIGN   1916>>ASSIGN
      1925<<ASSIGN   1926>>ASSIGN   1929>>IF       1993<<ASSIGN   1995>>ASSIGN   1996>>ASSIGN   1997>>ASSIGN
      1998>>ASSIGN   2002>>IF       2007>>ASSIGN   2008>>ASSIGN   2009>>ASSIGN   2010>>ASSIGN   2011>>ASSIGN
      2019>>ASSIGN   2022>>ASSIGN
ENTRY_LEN
        31**DCL      1911>>ASSIGN   1935>>ASSIGN   2004>>ASSIGN
ERASE_PAREC
        20**DCL-ENT  2111--CALL     2142--CALL
ERROR_MSG
        14**DCL-ENT  1855--CALL
FIND_DIRECT
        16**DCL-ENT  1956--CALL     2098--CALL     2107--CALL     2115--CALL     2130--CALL     2141--CALL
FIRST_TIME_CALLED
       408**DCL      1965<<ASSIGN
GLO_PTR
        71**DCL      1891<<ASSIGN   1896<<ASSIGN   1898>>ASSIGN
GROUP$
       625**DCL       620--IMP-PTR  2005<<ASSIGN   2006>>ASSIGN   2007>>ASSIGN   2008>>ASSIGN   2012<<ASSIGN
      2012>>ASSIGN   2013>>ASSIGN   2014>>ASSIGN   2020<<ASSIGN   2023>>ASSIGN   2025>>ASSIGN   2025>>ASSIGN
      2027<<ASSIGN   2027>>ASSIGN   2028>>ASSIGN   2029<<ASSIGN   2029>>ASSIGN   2030>>ASSIGN   2031>>ASSIGN
KEY.RC_PTR
        28**DCL      2051<<ASSIGN   2150<<ASSIGN
KEY.TXT
        27**DCL      2050<<ASSIGN   2151<<ASSIGN
KEY_LEN
PL6.E3A0      #004=STORE_AN_ENTRY File=ZIU$COMPACT.:ZIC0TSI                      FRI 09/05/97 13:10 Page:308
       627**DCL        21--IMP-SIZ    64--IMP-SIZ    66--IMP-SIZ  1918>>ASSIGN   1920>>ASSIGN   1920>>ASSIGN
      1927>>IF       1927>>IF       1939>>IF       1939>>IF       1946>>CALL     1990>>IF       1990>>IF
      1999>>ASSIGN   1999>>ASSIGN   2087>>CALL
KEY_TBL.EIS
       399**DCL       400--REDEF
KEY_V
        64**DCL      1920<<ASSIGN   1927>>IF       1939>>IF       1946<>CALL     1990>>IF       1999<<ASSIGN
      2087<>CALL
LEVEL#
        22**DCL      1849>>IF       1862<<DOINDEX  1863>>ASSIGN   1863>>ASSIGN   1885<<ASSIGN   1885>>ASSIGN
      1887>>ASSIGN   1888>>IF       1896>>ASSIGN   1899>>IF       1902>>IF       1909>>ASSIGN   1910>>ASSIGN
      1911>>ASSIGN   1912>>ASSIGN   1925>>ASSIGN   1941>>ASSIGN   1951>>IF       1954>>ASSIGN   1957>>ASSIGN
      1958>>ASSIGN   1959>>IF       1964>>IF       1966>>ASSIGN   1967>>ASSIGN   1972>>ASSIGN   1992>>ASSIGN
      1992>>ASSIGN   1993>>ASSIGN   2004>>ASSIGN   2034<<ASSIGN   2034>>ASSIGN   2035>>IF       2037>>ASSIGN
      2040>>IF       2042>>ASSIGN   2047>>IF       2049>>ASSIGN   2082<<DOINDEX  2083>>ASSIGN   2090>>ASSIGN
      2094>>IF       2096>>ASSIGN   2098>>CALL     2100>>ASSIGN   2103>>ASSIGN   2104>>DOWHILE  2113>>DOINDEX
      2120>>ASSIGN
LOAD_PTR
      2063**PROC     1950--CALL     2039--CALL     2092--CALL     2109--CALL
LOC_PTR
        70**DCL      1898<<ASSIGN   1915--ASSIGN   1997--ASSIGN   2014--ASSIGN   2031--ASSIGN
M$WRITE
        89**DCL-ENT  2052--CALL     2152--CALL
NEW_HIGHEST
        57**DCL      2081<<ASSIGN   2089>>IF       2090<<ASSIGN   2128>>IF       2130>>CALL     2140>>DOINDEX
      2146>>IF       2148>>ASSIGN
NO_OF_LEVELS
        32**DCL      1851<<ASSIGN   1851>>ASSIGN   1852>>IF       1862>>DOINDEX  1888>>IF       1959>>IF
      1964>>IF       2035>>IF       2082>>DOINDEX
PA_ENTRY.C
       616**DCL      1913<<ASSIGN   1929>>IF       1995<<ASSIGN   2002>>IF       2009<<ASSIGN
PA_ENTRY.PTRS
       619**DCL      1915<<ASSIGN   1997<<ASSIGN   2008>>ASSIGN   2011<<ASSIGN   2019>>ASSIGN   2022<<ASSIGN
PA_ENTRY.TYPE
       618**DCL      1914<<ASSIGN   1996<<ASSIGN   2007>>ASSIGN   2010<<ASSIGN
PA_GROUP.NO_GROUPS
PL6.E3A0      #004=STORE_AN_ENTRY File=ZIU$COMPACT.:ZIC0TSI                      FRI 09/05/97 13:10 Page:309
       621**DCL      2006<<ASSIGN   2023>>ASSIGN   2028<<ASSIGN
PA_GROUP.PTRS
       623**DCL      2008<<ASSIGN   2014<<ASSIGN   2031<<ASSIGN
PA_GROUP.TYPE
       622**DCL      2007<<ASSIGN   2013<<ASSIGN   2030<<ASSIGN
PA_KEY
        21**DCL        12--PROC     1917--IF       1920>>ASSIGN   1927>>IF       1939>>IF       1990>>IF
      1999>>ASSIGN
PA_REC.AVAIL
       614**DCL      1911<<ASSIGN   1937>>IF       1989<<ASSIGN   1989>>ASSIGN   2004>>ASSIGN
PA_REC.ENTRIES
       613**DCL      1907<<ASSIGN   1994<<ASSIGN   1994>>ASSIGN
PA_REC.FIRST_IN_LEVEL
       609**DCL      1868<<ASSIGN   2089>>IF
PA_REC.HIGHEST_KEY
       608**DCL      1906<<ASSIGN   1942<<ASSIGN
PA_REC.LAST_IN_LEVEL
       610**DCL      1908<<ASSIGN   2084<<ASSIGN   2126<<ASSIGN
PA_REC.LOWEST_KEY
       611**DCL      1903<<ASSIGN   1905<<ASSIGN
PA_REC.SIZE
       606**DCL      1911>>ASSIGN
POINTER
        60**DCL      1872<<ASSIGN   1875<<ASSIGN   1879<<ASSIGN   1951>>IF       1951>>IF       1956<>CALL
      1957>>ASSIGN   1960<>CALL     1972<<ASSIGN   1978<<ASSIGN   1981<<ASSIGN   2040>>IF       2042<<ASSIGN
      2065<<ASSIGN   2066--ASSIGN   2067>>IF       2068<<ASSIGN   2068>>ASSIGN   2073<<ASSIGN   2073>>ASSIGN
      2074--ASSIGN   2093>>ASSIGN   2096<<ASSIGN   2100<<ASSIGN   2110>>ASSIGN   2114<<ASSIGN   2115<>CALL
      2132<<ASSIGN   2135<<ASSIGN   2138<<ASSIGN
POOL.LOCKS
        37**DCL      1955<<ASSIGN   1955>>ASSIGN   1971<<ASSIGN   1971>>ASSIGN   2121<<ASSIGN   2121>>ASSIGN
      2124<<ASSIGN   2124>>ASSIGN
PTR_LEN
       626**DCL        63--IMP-SIZ   619--IMP-SIZ   623--IMP-SIZ  1876>>ASSIGN   1878>>ASSIGN   1910>>ASSIGN
      1915>>ASSIGN   1915>>ASSIGN   1915>>ASSIGN   1916>>ASSIGN   1926>>ASSIGN   1930>>ASSIGN   1932>>ASSIGN
      1944>>ASSIGN   1982>>ASSIGN   1997>>ASSIGN   1997>>ASSIGN   1997>>ASSIGN   1998>>ASSIGN   2008>>ASSIGN
      2008>>ASSIGN   2011>>ASSIGN   2011>>ASSIGN   2011>>ASSIGN   2012>>ASSIGN   2014>>ASSIGN   2014>>ASSIGN
PL6.E3A0      #004=STORE_AN_ENTRY File=ZIU$COMPACT.:ZIC0TSI                      FRI 09/05/97 13:10 Page:310
      2014>>ASSIGN   2019>>ASSIGN   2019>>ASSIGN   2019>>ASSIGN   2021>>ASSIGN   2022>>ASSIGN   2022>>ASSIGN
      2022>>ASSIGN   2024>>ASSIGN   2025>>ASSIGN   2027>>ASSIGN   2029>>ASSIGN   2031>>ASSIGN   2031>>ASSIGN
      2031>>ASSIGN   2038>>ASSIGN   2066>>ASSIGN   2066>>ASSIGN   2066>>ASSIGN   2074>>ASSIGN   2074>>ASSIGN
      2074>>ASSIGN   2085>>ASSIGN   2099>>ASSIGN   2134>>ASSIGN   2137>>ASSIGN
PTR_V
        63**DCL      1915>>ASSIGN   1997>>ASSIGN   2011>>ASSIGN   2014>>ASSIGN   2019<<ASSIGN   2022>>ASSIGN
      2031>>ASSIGN   2066<<ASSIGN   2066>>ASSIGN   2074<<ASSIGN   2074>>ASSIGN
PUSH_PAENTRY
        18**DCL-ENT  1960--CALL
RC_TBL.NXPNT_EIS
       382**DCL       383--REDEF
RC_TBL.TYPE
       387**DCL      1890>>ASSIGN
RC_TYPE
        72**DCL      1890<<ASSIGN   1895<<ASSIGN   1914>>ASSIGN   1996>>ASSIGN   2013>>ASSIGN   2030>>ASSIGN
REC$
        62**DCL       603--IMP-PTR  1868>>ASSIGN   1873>>ASSIGN   1887<<ASSIGN   1903>>ASSIGN   1905>>ASSIGN
      1906>>ASSIGN   1907>>ASSIGN   1908>>ASSIGN   1911>>ASSIGN   1911>>ASSIGN   1912>>ASSIGN   1925>>ASSIGN
      1937>>IF       1942>>ASSIGN   1944>>ASSIGN   1949>>ASSIGN   1958>>ASSIGN   1979>>ASSIGN   1989>>ASSIGN
      1989>>ASSIGN   1993>>ASSIGN   1994>>ASSIGN   1994>>ASSIGN   2004>>ASSIGN   2005>>ASSIGN   2020>>ASSIGN
      2037<<ASSIGN   2038>>ASSIGN   2083<<ASSIGN   2084>>ASSIGN   2085>>ASSIGN   2089>>IF       2091>>ASSIGN
      2099>>ASSIGN   2108>>ASSIGN   2116>>ASSIGN   2125<<ASSIGN   2126>>ASSIGN   2131>>ASSIGN
REC2$
        61**DCL        63--IMP-PTR    64--IMP-PTR    65--IMP-PTR  1873<<ASSIGN   1876<<ASSIGN   1876>>ASSIGN
      1878<<ASSIGN   1878>>ASSIGN   1916<<ASSIGN   1918>>ASSIGN   1920>>ASSIGN   1926<<ASSIGN   1927>>IF
      1939>>IF       1944<<ASSIGN   1946>>CALL     1949<<ASSIGN   1979<<ASSIGN   1982<<ASSIGN   1982>>ASSIGN
      1990>>IF       1998<<ASSIGN   1999>>ASSIGN   2038<<ASSIGN   2066>>ASSIGN   2074>>ASSIGN   2085<<ASSIGN
      2087>>CALL     2091<<ASSIGN   2099<<ASSIGN   2108<<ASSIGN   2131<<ASSIGN   2134<<ASSIGN   2134>>ASSIGN
      2137<<ASSIGN   2137>>ASSIGN
REC_CNT
        24**DCL      2053<<ASSIGN   2053>>ASSIGN   2153<<ASSIGN   2153>>ASSIGN
SC_PTR
       363**DCL      1855>>CALL     1895>>ASSIGN   1937>>IF       2150>>ASSIGN
SC_TBL.FULL_PERCENT
       371**DCL      1937>>IF
SC_TBL.KEY_PTR
PL6.E3A0      #004=STORE_AN_ENTRY File=ZIU$COMPACT.:ZIC0TSI                      FRI 09/05/97 13:10 Page:311
       376**DCL       377--REDEF
SC_TBL.NAME
       365**DCL      1855<>CALL
SC_TBL.PA_TYPE
       369**DCL      1895>>ASSIGN
SC_TBL.RC_PTR
       375**DCL      2150>>ASSIGN
STK.CURR
        42**DCL      1881>>IF       1891>>ASSIGN   2050>>ASSIGN
STK.NEXT
        40**DCL      1882<<ASSIGN   2047>>IF       2049<<ASSIGN   2146>>IF       2148<<ASSIGN   2149>>ASSIGN
STK.PRIOR
        41**DCL      2149<<ASSIGN
STK.RC_PTR
        43**DCL      1890>>ASSIGN   2051>>ASSIGN
STORE_AN_ENTRY
        12**PROC     1946--CALL     2087--CALL
STORE_FIRST_ENTRY
      1902**LABEL    1986--GOTO
STORE_PTR IN PROCEDURE LOAD_PTR
      2071**ENTRY    1874--CALL     1877--CALL     1880--CALL     1974--CALL     1980--CALL     1983--CALL
      2043--CALL     2097--CALL     2101--CALL     2133--CALL     2136--CALL     2139--CALL
WRITE_TEMP
       177**DCL      2052<>CALL     2152<>CALL
WRITE_TEMP.STATION_
       179**DCL       179--REDEF
WRITE_TEMP.V.DVBYTE.VFC#
       186**DCL       186--REDEF
X
        58**DCL      1930<<ASSIGN   1932<<ASSIGN   1935<<ASSIGN   1937>>IF       1966<<ASSIGN   1981>>ASSIGN
      1989>>ASSIGN   1992>>ASSIGN   2004<<ASSIGN   2005>>ASSIGN   2011--ASSIGN   2018<<ASSIGN   2019--ASSIGN
      2020>>ASSIGN   2021<<ASSIGN   2021>>ASSIGN   2022--ASSIGN   2023<<ASSIGN   2024>>ASSIGN   2028>>ASSIGN
      2029>>ASSIGN   2093<<ASSIGN   2094>>IF       2102>>IF       2103<<ASSIGN   2104>>DOWHILE  2107<>CALL
      2110<<ASSIGN
Y
        54**DCL        55--IMP-SIZ  1967<<ASSIGN   1971>>ASSIGN   1971>>ASSIGN   2024<<ASSIGN   2025>>ASSIGN
PL6.E3A0      #004=STORE_AN_ENTRY File=ZIU$COMPACT.:ZIC0TSI                      FRI 09/05/97 13:10 Page:312
      2025>>ASSIGN
Z
        56**DCL      2113<<DOINDEX  2114>>ASSIGN   2116>>ASSIGN   2140<<DOINDEX  2141>>CALL

PL6.E3A0      #005=FIND_DIRECT File=ZIU$COMPACT.:ZIC0TSI                         FRI 09/05/97 13:11 Page:313
     1647        1        /*T***********************************************************/
     1648        2        /*T*                                                         */
     1649        3        /*T* Copyright (c) Bull HN Information Systems Inc., 1997    */
     1650        4        /*T*                                                         */
     1651        5        /*T***********************************************************/
     1652        6
     1653        7
     1654        8        /*
     1655        9              EXTERNAL SUBR  FIND_DIRECT - BY GIVING THE GLOBAL DBK
     1656       10                       THIS PROC MAINTAIN A BUFFER POOL OF 2*NBUFS PAGES
     1657       11                       AND IMPLEMENTS THE ROUND ROBIN SWAPPING ALGORITHM
     1658       12                           WHICH IS MOST NATURE FOR THIS APPLICATION HERE.
     1659       13              AC_PTR - POINTS TO THE AREA THAT CONTAINS THIS DBK(PASSED)
     1660       14              FIND_TYPE - 2. FIND IT AND LOCK THE PAGE AND SET MUST WRITE
     1661       15                          1. FIND IT AND SET MUST WRITE OF THE PAGE, NO LOCK
     1662       16                          0. FIND IT DONT LOCK BUF, ABORT JOB IF NOT FOUND
     1663       17                         -1. DONT LOCK BUF,DONT ABORT JOB EVEN IF DBK NOT FOUND
     1664       18        */
     1665       19        FIND_DIRECT: PROC(DBK,FIND_TYPE) NOAUTO;
     1666       20
     1667       21        %EQU LOCK_BUF = 2;
     1668       22        %EQU MUST_WRITE = 1;
     1669       23        %EQU DONT_LOCK= 0;
     1670       24        %EQU DONT_ERROR=-1;
     1671       25    1   DCL DBK UBIN CALIGNED;
     1672       26    1   DCL FIND_TYPE SBIN ALIGNED;
     1673       27    1   DCL BREAK_CLEANUP BIT(72) SYMREF ALIGNED;
     1674       28
     1675       29        %INCLUDE ZI_DBU_XREF;
     1676      196         %PA_XREF_TBLS;
     1677      262        %INCLUDE ZI$DIR;
     1678      419         %DIR;
     1679      563        %INCLUDE ZI_GLOBAL_DBUTIL;
     1680      741         %SYS_FUNC;
     1681      833         %MISC_DCLS;
     1682      886    1   DCL SYS_FUNC_WRIT ENTRY ALTRET;
     1683      887    1   DCL READ_DB ENTRY(3) ALTRET;
PL6.E3A0      #005=FIND_DIRECT File=ZIU$COMPACT.:ZIC0TSI                         FRI 09/05/97 13:11 Page:314
     1684      888        %INCLUDE ZI$PG_STRUCTS;
     1685      991         %DATA_PG;
     1686     1010
     1687     1011    1   DCL BIN_CHAR ENTRY(2);
     1688     1012    1   DCL ERROR_MSG ENTRY(4);
     1689     1013    1   DCL CHKSUM ENTRY;
     1690     1014
     1691     1015    1   DCL LEVEL# SBIN SYMREF ALIGNED;
     1692     1016    1   DCL NO_OF_LEVELS SBIN SYMREF ALIGNED;
     1693     1017    1   DCL 1 CURR_LEVEL(0:31) SYMREF ALIGNED,
     1694     1018    1         2 DBK UBIN WORD ALIGNED,
     1695     1019    1         2 FIRST_PA UBIN ALIGNED,
     1696     1020    1         2 ENT_NO UBIN HALF UNAL,
     1697     1021    1         2 DUPIND BIT(1) UNAL,
     1698     1022    1         2 BUF_PTR UBIN(8) UNAL,
     1699     1023    1         2 * UBIN BYTE UNAL,
     1700     1024    1         2 REC$ PTR ALIGNED;
     1701     1025    1   DCL CURR_LN SBIN WORD SYMREF ALIGNED;
     1702     1026    1   DCL BUF_PTR SBIN WORD SYMREF ALIGNED;
     1703     1027    1   DCL CURR_OWNER SBIN WORD SYMREF ALIGNED;
     1704     1028    1   DCL COMMAND_TEXT CHAR(9) SYMREF ALIGNED;
     1705     1029    1   DCL Y SBIN WORD STATIC ALIGNED;
     1706     1030    1   DCL REC_SIZE SBIN WORD STATIC ALIGNED;
     1707     1031    1   DCL Z SBIN WORD STATIC ALIGNED;
     1708     1032    1   DCL 1 CHAR_V BASED CALIGNED,
     1709     1033    1         2 REC CHAR(Z) CALIGNED; /* USED TO ZERO A ERASED RECORD */
     1710     1034    1   DCL 1 REC BASED(REC$) CALIGNED,
     1711     1035    1         2 * UBIN(6) UNAL,
     1712     1036    1         2 TYPE UBIN(12) UNAL,
     1713     1037    1         2 SIZE UBIN(18) UNAL; /* GENERAL FORMAT OF RECORD HEADER */
     1714     1038    1   DCL POOL_MAX SBIN WORD STATIC SYMDEF ALIGNED;
     1715     1039    1   DCL SWAP_PTR SBIN WORD STATIC SYMDEF ALIGNED;
     1716     1040    1   DCL 1 POOL(0:95) STATIC SYMDEF ALIGNED,
     1717     1041    1         2 MUST_WRITE BIT(1) UNAL,
     1718     1042    1         2 LOCKS UBIN(9) UNAL,
     1719     1043    1         2 PAGE# UBIN(26) UNAL;
     1720     1044    1   DCL NBUFS UBIN SYMREF ALIGNED;
PL6.E3A0      #005=FIND_DIRECT File=ZIU$COMPACT.:ZIC0TSI                         FRI 09/05/97 13:11 Page:315
     1721     1045        %INCLUDE ZI_PRSE_SUBS;
     1722     1201        %INCLUDE ZI_ERRORS_SUBS;
     1723     1721        %INCLUDE CP_6_SUBS;
     1724     2261
     1725     2262    1       Z=(DBK-AC_TBL.BASE_DBK(AC_PTR)+AC_TBL.LPP(AC_PTR)-1)/AC_TBL.LPP(AC_PTR);
     1726     2263    1       CURR_LN=DBK-AC_TBL.BASE_DBK(AC_PTR)-(Z-1)*AC_TBL.LPP(AC_PTR)-1;
     1727     2264         /* Z=PAGE # TO CURR_LNAD, CURR_LN=LINE# IN PAGE OF DBK */
     1728     2265    1       IF Z>AC_TBL.NUM_DBPG(AC_PTR) THEN GOTO OUT_OF_AC_BOUND;
     1729     2266
     1730     2267    2       DO BUF_PTR=POOL_MAX-1 DOWNTO 0; /* SEARCH POOL (LAST USED FIRST) */
     1731     2268    2           IF Z=POOL.PAGE#(BUF_PTR) THEN /* SEARCH POOL FOR THIS PAGE */
     1732     2269    2               GOTO PAGE_HIT;
     1733     2270    2           END;
     1734     2271
     1735     2272    1       IF POOL_MAX = 2*NBUFS THEN /* TIME TO SWAP ONE PAGE OUT */
     1736     2273    2       DO;
     1737     2274    2           BUF_PTR=MOD(SWAP_PTR+1,2*NBUFS);
     1738     2275    3           DO WHILE(POOL.LOCKS(BUF_PTR)>0 AND BUF_PTR~=SWAP_PTR);
     1739     2276    3               BUF_PTR=MOD(BUF_PTR+1,2*NBUFS);
     1740     2277    3               END;
     1741     2278    2           IF BUF_PTR=SWAP_PTR THEN /* ALL BUFS ARE LOCKED, IMPOSSIBLE */
     1742     2279    3           DO; /* MEANS AT LEAST THERE ARE 32 LEVELS DEEP */
     1743     2280    3               CALL BIN_CHAR(1,NO_OF_LEVELS+1);
     1744     2281    3               CALL BIN_CHAR(2,CURR_OWNER);
     1745     2282    3               CALL ERROR_MSG(DBU#PABUFER1,SC_TBL.NAME(SC_PTR));
     1746     2283    3               GOTO UN_WIND; /* ABORT JOB */
     1747     2284    3               END;
     1748     2285         /* FIND A PAGE TO BE SWAPPED OUT */
     1749     2286    2           IF FIND_TYPE>=0 THEN /* IF REQ IS NOT DONT_ERROR */
     1750     2287    2               SWAP_PTR = BUF_PTR; /* NEXT BUF TO SWAP IS NEXT ONE */
     1751     2288    2           ELSE /* OTHERWISE, NEXT TIME SWAP THE SAME ONE */
     1752     2289    2               SWAP_PTR = BUF_PTR-1;
     1753     2290    2           IF POOL.MUST_WRITE(BUF_PTR) THEN /* PAGE MUST WRITE */
     1754     2291    2               CALL WRITE_A_PAGE ALTRET(WRIT_ERR);
     1755     2292    2           END;
     1756     2293    1       ELSE
     1757     2294    2       DO;
PL6.E3A0      #005=FIND_DIRECT File=ZIU$COMPACT.:ZIC0TSI                         FRI 09/05/97 13:11 Page:316
     1758     2295    2           BUF_PTR = POOL_MAX;
     1759     2296    2           POOL_MAX = POOL_MAX + 1;
     1760     2297    2           END;
     1761     2298    1       DCBSF = AC_TBL.DCB#(AC_PTR);
     1762     2299    1       CALL READ_DB(BUF_PTR,Z,1) ALTRET(READ_ERR);
     1763     2300    1       POOL.MUST_WRITE(BUF_PTR)='0'B; /* INIT BUFFER CONTROL FLAGS */
     1764     2301    1       POOL.LOCKS(BUF_PTR)=0;
     1765     2302    1       POOL.PAGE#(BUF_PTR) = Z;
     1766     2303    1   PAGE_HIT: /* BUF_PTR IS INDX INTO POOL AND ALSO I_O_BUF */
     1767     2304         /* X IS OFFSET OF THE DBK, CURR_LN IS THE LINE # */
     1768     2305    1       DATA$=ADDR(I_O_BUF(BUF_PTR));
     1769     2306
     1770     2307    1       X = DATA_PG.ACT_DATA_18(2035-CURR_LN); /* GET OFFSET IN PAGE */
     1771     2308    1       IF CURR_LN>DATA_PG.OFF_LN.SEC OR X<12 THEN
     1772     2309    1           GOTO NO_SUCH_DBK;
     1773     2310    1       REC$ = PINCRC(DATA$,12+X);
     1774     2311    1       IF DBK~=CURR_OWNER AND REC.TYPE~=SC_TBL.PA_TYPE(SC_PTR) THEN
     1775     2312    1           GOTO BAD_TYPE;
     1776     2313    1       IF FIND_TYPE=%LOCK_BUF THEN /* REQ TO LOCK THE BUFF */
     1777     2314    2       DO;
     1778     2315    2           POOL.LOCKS(BUF_PTR)=POOL.LOCKS(BUF_PTR)+1;
     1779     2316    2           CURR_LEVEL.BUF_PTR(LEVEL#)=BUF_PTR;
     1780     2317    2           END;
     1781     2318    1       IF FIND_TYPE>0 THEN /* REQ TO SET MUST WRITE SWITCH */
     1782     2319    1           POOL.MUST_WRITE(BUF_PTR)='1'B;
     1783     2320    1       RETURN; /* X=BUF_PTR,RE=LINE#,Z=PAGE#, REC$ IS THE REC */
     1784     2321        %EJECT;
PL6.E3A0      #005=FIND_DIRECT File=ZIU$COMPACT.:ZIC0TSI                         FRI 09/05/97 13:11 Page:317
     1785     2322
     1786     2323    1   ERASE_PAREC: ENTRY;
     1787     2324
     1788     2325        /*
     1789     2326              THIS SUB IS TO BE CALLED RIGHT AFTER FIND_DIRECT
     1790     2327              SO THAT   X, CURR_LN REMAIN UNCHANGED
     1791     2328        */
     1792     2329
     1793     2330    1       Y = DATA_PG.OFF_LN.FIR; /* GET FIRST AVAIL LINE # */
     1794     2331    1       IF (Y=0 AND DATA_PG.OFFSET(2035)<131072) OR /* NO AVAIL LINE */
     1795     2332    1          Y>CURR_LN THEN /* OR 1ST AVAIL>CURRENT LINE */
     1796     2333    2       DO;
     1797     2334    2           DATA_PG.OFF_LN.FIR=CURR_LN; /* MAKE IT 1ST AVAIL */
     1798     2335    2           DATA_PG.OFFSET(2035-CURR_LN)=131072+Y;
     1799     2336    2           END;
     1800     2337    1       ELSE
     1801     2338    2       DO; /* WALK THRU THE CHAIN TO FIND INSERTION POINT */
     1802     2339    3           DO WHILE(DATA_PG.OFFSET(2035-Y)-131072<CURR_LN AND
     1803     2340    3              DATA_PG.OFFSET(2035-Y)-131072~=0);
     1804     2341    3               Y=DATA_PG.OFFSET(2035-Y)-131072;
     1805     2342    3               END;
     1806     2343    2           DATA_PG.OFFSET(2035-CURR_LN)=DATA_PG.OFFSET(2035-Y);
     1807     2344    2           DATA_PG.OFFSET(2035-Y)=131072+CURR_LN;
     1808     2345    2           END;
     1809     2346
     1810     2347         /* NOW, UPDATE ALL LINE OFFSET IF THEY ARE SHIFTED */
     1811     2348    1       REC_SIZE=REC.SIZE; /* GET SIZE OF ERASED PA */
     1812     2349    2       DO Y=0 TO DATA_PG.OFF_LN.SEC; /* LOOP THRU CURR HIGH LINE */
     1813     2350    2           IF DATA_PG.OFFSET(2035-Y)<131072 AND
     1814     2351    2              DATA_PG.OFFSET(2035-Y)>X THEN /* X=OFFSET OF ERASED REC */
     1815     2352    2               DATA_PG.OFFSET(2035-Y)=DATA_PG.OFFSET(2035-Y)-REC_SIZE;
     1816     2353    2           END;
     1817     2354
     1818     2355         /* NOW, MOVE UP ALL THE RECORDS BELOW ERASED ONE */
     1819     2356    1       Y=4084-(DATA_PG.PG_SZ.SEC+DATA_PG.OFF_LN.SEC*2+2);
     1820     2357    1       DATA_PG.PG_SZ.SEC=DATA_PG.PG_SZ.SEC+REC_SIZE; /* UPDATE SP AVAIL */
     1821     2358    1       Z=Y-(X+REC_SIZE); /* NUMBER OF BYTES TO MOVED UP */
PL6.E3A0      #005=FIND_DIRECT File=ZIU$COMPACT.:ZIC0TSI                         FRI 09/05/97 13:11 Page:318
     1822     2359    1       REC$->CHAR_V.REC = PINCRC(REC$,REC_SIZE)->CHAR_V.REC; /* SHIFT UP */
     1823     2360    1       REC$=PINCRC(REC$,Z); /* END OF NEW DATA BYTES */
     1824     2361    1       Z = REC_SIZE; /* SIZE TO FILL WITH ZERO */
     1825     2362
     1826     2363    1       REC$->CHAR_V = '0'B;
     1827     2364    1       SC_TBL.COUNT(SC_PTR)=SC_TBL.COUNT(SC_PTR)+1; /* SUMMARY COUNTER */
     1828     2365    1       RETURN;
     1829     2366        %EJECT;
PL6.E3A0      #005=FIND_DIRECT File=ZIU$COMPACT.:ZIC0TSI                         FRI 09/05/97 13:11 Page:319
     1830     2367    1   BAD_TYPE:
     1831     2368    1       IF FIND_TYPE=%DONT_ERROR THEN RETURN;
     1832     2369
     1833     2370    1       CALL BIN_CHAR(1,DBK);
     1834     2371    1       IF ZI$DIR.CODE=#REVERT THEN /* SET REVERT TO NON-PA IS NON-PA */
     1835     2372    1           CALL ERROR_MSG(DBU#PANONPA,SC_TBL.NAME(SC_PTR));
     1836     2373    1       ELSE
     1837     2374    1           CALL ERROR_MSG(DBU#PABADTYP,SC_TBL.NAME(SC_PTR),,COMMAND_TEXT);
     1838     2375    1       GOTO UN_WIND;
     1839     2376    1   NO_SUCH_DBK:
     1840     2377    1       IF FIND_TYPE=%DONT_ERROR THEN RETURN; /* REQ IS DONT ERROR */
     1841     2378
     1842     2379    1       CALL BIN_CHAR(1,DBK);
     1843     2380    1       IF DBK=CURR_OWNER THEN /* OWNER NOT FOUND */
     1844     2381    1           CALL ERROR_MSG(DBU#PABADLNK,SC_TBL.NAME(SC_PTR),,COMMAND_TEXT);
     1845     2382    1       ELSE
     1846     2383    2       DO;
     1847     2384    2           CALL BIN_CHAR(2,CURR_OWNER);
     1848     2385    2           CALL ERROR_MSG(DBU#PANOK,SC_TBL.NAME(SC_PTR));
     1849     2386    2           END;
     1850     2387    1   UN_WIND: UNWIND TO BREAK_CLEANUP;
     1851     2388    1   OUT_OF_AC_BOUND: /* SOME PTR OUT OF THE AREA THAT OWNER IS IN */
     1852     2389    1       CALL BIN_CHAR(1,CURR_OWNER);
     1853     2390    1       CALL BIN_CHAR(2,DBK);
     1854     2391    1       CALL ERROR_MSG(DBU#PAOUTAC,SC_TBL.NAME(SC_PTR));
     1855     2392    1       GOTO UN_WIND;
     1856     2393    1   WRIT_ERR: ;
     1857     2394    1   READ_ERR: X = KEYVSF.IDSKEY; /* PAGE NUMBER */
     1858     2395    1       CALL BIN_CHAR(1,X);
     1859     2396    1       CALL ERROR_MSG(DBU#PAERROR5,AC_TBL.NAME(AC_PTR),,COMMAND_TEXT);
     1860     2397    1       GOTO UN_WIND;
     1861     2398        %EJECT;
PL6.E3A0      #005=FIND_DIRECT File=ZIU$COMPACT.:ZIC0TSI                         FRI 09/05/97 13:11 Page:320
     1862     2399        /*E* ERROR: ZIU-DBU#PANOK-C
     1863     2400        MESSAGE: Error: The *PA_REC_%U1 at DBK# %U2 does not exist,
     1864     2401                            while owner's DBK# is %U3.
     1865     2402                        Broken set is suspected.
     1866     2403                        Run REBUILD PA to reconstruct this set. */
     1867     2404        /*E* ERROR: ZIU-DBU#PABADLNK-C
     1868     2405        MESSAGE: Error: There is no such owner record for the set "%U1"
     1869     2406                        at DBK# %U2. %U3 aborted.
     1870     2407                        You should run REPAIR to fix the set before next shot. */
     1871     2408        /*E* ERROR: ZIU-DBU#PABADTYP-C
     1872     2409        MESSAGE: Error: The record type at DBK# %U2 is not a PA_REC
     1873     2410                        for the set "%U1".  %U3 aborted.
     1874     2411                        Run REBUILD PA to reconstruct this set. */
     1875     2412        /*E*  ERROR: ZIU-DBU#PANONPA-C
     1876     2413        MESSAGE: Error: The record at DBK# %U2 is not a *PA_REC_%U1.
     1877     2414                        The set is either not in PA mode or is broken.
     1878     2415                        In latter case, run REBUILD PA to fix the set.
     1879     2416                        CONVERT TO CHAIN aborted. */
     1880     2417        /*E*  ERROR: ZIU-DBU#PAERROR5-C
     1881     2418        MESSAGE: Error in READ/WRITE on the IDS page# %U2
     1882     2419                       of area "%U1".  %U3 aborted. */
     1883     2420        /*E*  ERROR: ZIU-DBU#PABUFER1-C
     1884     2421        MESSAGE: All buffers are locked; the
     1885     2422                                     set name is "%U1", owner DBK# is %U3 and
     1886     2423                                     number of PA levels is %U2.
     1887     2424                 <<<< SOFTWARE ERROR >>>>  */
     1888     2425        /*E*  ERROR: ZIU-DBU#PABUFER2-C
     1889     2426        MESSAGE: There is a buffer locked while a final
     1890     2427                          cleanup is performed. This is a warning.
     1891     2428                          Set name at error is "%U1" and owner DBK# is %U2.
     1892     2429                 <<<< SOFTWARE ERROR >>>>  */
     1893     2430        /*E*  ERROR: ZIU-DBU#PAOUTAC-C
     1894     2431        MESSAGE: Error: The set "%U1" has a pointer %U3 to a *PA_REC
     1895     2432                        but it is out of the area's bound where the
     1896     2433                        current owner DBK# %U2 resides.
     1897     2434                        The set is either broken or you tried to CONV_TO_CHAIN a
     1898     2435                        set that is already in chained mode. */
PL6.E3A0      #005=FIND_DIRECT File=ZIU$COMPACT.:ZIC0TSI                         FRI 09/05/97 13:11 Page:321
     1899     2436        %EJECT;
PL6.E3A0      #005=FIND_DIRECT File=ZIU$COMPACT.:ZIC0TSI                         FRI 09/05/97 13:11 Page:322
     1900     2437    1   FLUSH_PAGES: ENTRY;
     1901     2438
     1902     2439    2       DO BUF_PTR=0 TO POOL_MAX-1;
     1903     2440    2           IF POOL.MUST_WRITE(BUF_PTR) THEN
     1904     2441    2               CALL WRITE_A_PAGE ALTRET(WRIT_ERR);
     1905     2442    2           END;
     1906     2443    1       POOL_MAX = 0; /* RESET COUNT */
     1907     2444    1       SWAP_PTR = -1; /* RESET POINTERS */
     1908     2445    1       RETURN;
     1909     2446
     1910     2447    1   WRITE_A_PAGE: PROC ALTRET;
     1911     2448
     1912     2449    2       IF POOL.LOCKS(BUF_PTR)>0 THEN
     1913     2450    3       DO;
     1914     2451    3           CALL BIN_CHAR(1,CURR_OWNER);
     1915     2452    3           CALL ERROR_MSG(DBU#PABUFER2,SC_TBL.NAME(SC_PTR));
     1916     2453    3           POOL.LOCKS(BUF_PTR)=0;
     1917     2454    3           END;
     1918     2455    2       DATA$=ADDR(I_O_BUF(BUF_PTR));
     1919     2456    2       IF AC_TBL.CHECKSUM(AC_PTR) THEN
     1920     2457    3       DO;
     1921     2458    3           CALL CHKSUM;
     1922     2459    3           DATA_PG.CHKSUM_WD=ICHKSUM;
     1923     2460    3           END;
     1924     2461    2       DCBSF = AC_TBL.DCB#(AC_PTR);
     1925     2462    2       FULLSF = %YES#;
     1926     2463    2       KEYSF = %YES#;
     1927     2464    2       KEYVSF.LEN =4;
     1928     2465    2       KEYVSF.IDSKEY = POOL.PAGE#(BUF_PTR);
     1929     2466    2       BUFLNSF = 4096;
     1930     2467    2       BUFSF = VECTOR(I_O_BUF(BUF_PTR));
     1931     2468    2       AC_TBL.PAGE_WRITTEN(AC_PTR)='1'B; /* MARK AREA UPDATED */
     1932     2469    2       CALL SYS_FUNC_WRIT ALTRET(ALT);
     1933     2470    2       RETURN;
     1934     2471    2   ALT: ALTRETURN;
     1935     2472    2   END WRITE_A_PAGE;
     1936     2473
PL6.E3A0      #005=FIND_DIRECT File=ZIU$COMPACT.:ZIC0TSI                         FRI 09/05/97 13:11 Page:323
     1937     2474    1   END FIND_DIRECT;
     1938     2475        %EOD;

PL6.E3A0      #005=FIND_DIRECT File=ZIU$COMPACT.:ZIC0TSI                         FRI 09/05/97 13:11 Page:324
--  Include file information  --

   CP_6_SUBS.:LIB_E05  is referenced.
   ZI_ERRORS_SUBS.:ZIC0TOU  is referenced.
   ZI_PRSE_SUBS.:ZIC0TOU  is referenced.
   ZI$PG_STRUCTS.:ZIC0TOU  is referenced.
   ZI_GLOBAL_DBUTIL.:ZIC0TOU  is referenced.
   ZI$DIR.:ZIC0TOU  is referenced.
   ZI_DBU_XREF.:ZIC0TOU  cannot be made into a system file and is referenced.
   B$JIT_C.:E05TOU  was found in the system file and is never referenced.
   CP_6_C.:E05TOU  was found in the system file and is never referenced.
      No diagnostics issued in procedure FIND_DIRECT.

   Procedure FIND_DIRECT requires 610 words for executable code.
   Procedure FIND_DIRECT is declared NOAUTO and requires 112 words of local(STATIC) storage.

PL6.E3A0      #005=FIND_DIRECT File=ZIU$COMPACT.:ZIC0TSI                         FRI 09/05/97 13:11 Page:325

 Object Unit name= FIND_DIRECT                                File name= ZIU$COMPACT.:ZIC0TOU
 UTS= SEP 05 '97 13:11:05.04 FRI                              Compiler= PL-6/E31         Sev=      00
 SharedLib= :SHARED_SYSTEM                                    Alt SharedLib=


    ****  Control sections  ****

 Sect   Type Bound  Init  Size OctSiz  Section name(segment info)
    0   Data  even  none   112    160  FIND_DIRECT
    1   DCB   even  none     0      0  M$LO
    2   Proc  even  none   610   1142  FIND_DIRECT
    3  RoData even  none    45     55  FIND_DIRECT

    ****  Entry defs  ****

                              Check   Calling
                             calling  sequence
  Sect OctLoc Primary Altret sequence   type   Parms  Name
     2      0   yes            yes      Std        2  FIND_DIRECT
     2    342                  yes      Std        0  ERASE_PAREC
     2   1004                  yes      Std        0  FLUSH_PAGES

  ****  Data defs  ****

 Sect OctLoc  Name                           Sect OctLoc  Name
    0      6  POOL_MAX                           0      7  SWAP_PTR
    0     10  POOL
PL6.E3A0      #005=FIND_DIRECT File=ZIU$COMPACT.:ZIC0TSI                         FRI 09/05/97 13:11 Page:326

  ****  Entry refs  ****

         Check        Calling
        calling       sequence
Altret sequence SRef   type   Args  Name
         yes           Std       2 BIN_CHAR
         yes           Std       4 ERROR_MSG
 yes     yes           Std       3 READ_DB
         yes           Std       0 CHKSUM
 yes     yes           Std       0 SYS_FUNC_WRIT
                       nStd      0 X66_STATIC_2
                       nStd      0 X66_SUNWIND

  ****  Data refs  ****

  Flags:  r = read only, s = secondary
Flgs Name                             Flgs Name                             Flgs Name
     BREAK_CLEANUP                         TYPE                                  SC_PTR
     SC_TBL                                RC_PTR                                RC_TBL
     KEY_PTR                               KEY_TBL                               AC_PTR
     FIRST_TIME_CALLED                     BASE_DBK                              AC_TBL
     ZI$DIR                                SCHEMA_ACTIVE                         RECORD_LIST
     SET_LIST                              RETAIN_LIST                           DUMP_FID
     ALTKY                                 INIT_RG                               KEY_RNG
     ITEM_LIST                             BLKLSF                                KEYLSF
     KEYXSF                                DCBSF                                 ORGSF
     KEYSF                                 KEYVSF                                ACSSF
     NOTIMESF                              FUNSF                                 ASNSF
     TESTSF                                XTENSIZESF                            DISPSF
     WAITSF                                VFCSF                                 FULLSF
     BKUPSF                                BUFLNSF                               BUFSF
     SOURCESF                              DESTSF                                DATESF
     TIMESF                                UTSSF                                 DAYSF
     TSTAMPSF                              ENCRP_SEEDSF                          ERRCODESF
     MSGCODE                               INCL_ERR                              ERR_INSERT
     FIDSF_RD                              ACNT                                  EXISTSF
     SHARESF                               DCBNMSF                               KEYRSF
PL6.E3A0      #005=FIND_DIRECT File=ZIU$COMPACT.:ZIC0TSI                         FRI 09/05/97 13:11 Page:327
     NO_KEYSF                              REASGNSF                              CARRY_ATTRIBUTESF
     SUBMESSF                              SPKY_OPNSF                            POSSF
     ERRFLGSF                              MERGESF                               FSA_FLAG
     RELGSF                                UNUSED                                HELPCODE
     COUNTSF                               INDEXSF                               GAP
     PSNSF                                 ACNTSF                                KEY_SHADWSF
     REC$                                  RB                                    RE
     IE                                    IB                                    CNT
     ICNT                                  RCNT                                  SCNT
     FIRST_SET                             RETCNT                                DMPCNT
     KCNT                                  ACNT_IDX                              I
     J                                     K                                     X
     STEPCC                                I_O_BUF$                              OUT_INDX
     I_O_SIZE                              REC_DATA_LN                           M$LO
     B$TCB$                                B$ROS$                                B$JIT$
     KEYFID                                I_O_KEY                               RESTART
     BREAK_FLAG                            ICHKSUM                               ITMCNT
     GAP1                                  DATA$                                 LEVEL#
     NO_OF_LEVELS                          CURR_LEVEL                            CURR_LN
     BUF_PTR                               CURR_OWNER                            COMMAND_TEXT
     NBUFS

  ****  Segment refs  ****

  Flags:  r = read only, s = secondary
Flgs Name                             Flgs Name                             Flgs Name
     NULLSID                               ISSID
PL6.E3A0      #005=FIND_DIRECT File=ZIU$COMPACT.:ZIC0TSI                         FRI 09/05/97 13:11 Page:328


     1647        1        /*T***********************************************************/
     1648        2        /*T*                                                         */
     1649        3        /*T* Copyright (c) Bull HN Information Systems Inc., 1997    */
     1650        4        /*T*                                                         */
     1651        5        /*T***********************************************************/
     1652        6
     1653        7
     1654        8        /*
     1655        9              EXTERNAL SUBR  FIND_DIRECT - BY GIVING THE GLOBAL DBK
     1656       10                       THIS PROC MAINTAIN A BUFFER POOL OF 2*NBUFS PAGES
     1657       11                       AND IMPLEMENTS THE ROUND ROBIN SWAPPING ALGORITHM
     1658       12                           WHICH IS MOST NATURE FOR THIS APPLICATION HERE.
     1659       13              AC_PTR - POINTS TO THE AREA THAT CONTAINS THIS DBK(PASSED)
     1660       14              FIND_TYPE - 2. FIND IT AND LOCK THE PAGE AND SET MUST WRITE
     1661       15                          1. FIND IT AND SET MUST WRITE OF THE PAGE, NO LOCK
     1662       16                          0. FIND IT DONT LOCK BUF, ABORT JOB IF NOT FOUND
     1663       17                         -1. DONT LOCK BUF,DONT ABORT JOB EVEN IF DBK NOT FOUND
     1664       18        */
     1665       19        FIND_DIRECT: PROC(DBK,FIND_TYPE) NOAUTO;

     19  2 000000   000000 700200 xent  FIND_DIRECT  TSX0  ! X66_STATIC_2
         2 000001   000000 000002 0                  ZERO    0,2

     1666       20
     1667       21        %EQU LOCK_BUF = 2;
     1668       22        %EQU MUST_WRITE = 1;
     1669       23        %EQU DONT_LOCK= 0;
     1670       24        %EQU DONT_ERROR=-1;
     1671       25    1   DCL DBK UBIN CALIGNED;
     1672       26    1   DCL FIND_TYPE SBIN ALIGNED;
     1673       27    1   DCL BREAK_CLEANUP BIT(72) SYMREF ALIGNED;
     1674       28
     1675       29        %INCLUDE ZI_DBU_XREF;
     1676      196         %PA_XREF_TBLS;
     1677      262        %INCLUDE ZI$DIR;
     1678      419         %DIR;
PL6.E3A0      #005=FIND_DIRECT File=ZIU$COMPACT.:ZIC0TSI                         FRI 09/05/97 13:11 Page:329
     1679      563        %INCLUDE ZI_GLOBAL_DBUTIL;
     1680      741         %SYS_FUNC;
     1681      833         %MISC_DCLS;
     1682      886    1   DCL SYS_FUNC_WRIT ENTRY ALTRET;
     1683      887    1   DCL READ_DB ENTRY(3) ALTRET;
     1684      888        %INCLUDE ZI$PG_STRUCTS;
     1685      991         %DATA_PG;
     1686     1010
     1687     1011    1   DCL BIN_CHAR ENTRY(2);
     1688     1012    1   DCL ERROR_MSG ENTRY(4);
     1689     1013    1   DCL CHKSUM ENTRY;
     1690     1014
     1691     1015    1   DCL LEVEL# SBIN SYMREF ALIGNED;
     1692     1016    1   DCL NO_OF_LEVELS SBIN SYMREF ALIGNED;
     1693     1017    1   DCL 1 CURR_LEVEL(0:31) SYMREF ALIGNED,
     1694     1018    1         2 DBK UBIN WORD ALIGNED,
     1695     1019    1         2 FIRST_PA UBIN ALIGNED,
     1696     1020    1         2 ENT_NO UBIN HALF UNAL,
     1697     1021    1         2 DUPIND BIT(1) UNAL,
     1698     1022    1         2 BUF_PTR UBIN(8) UNAL,
     1699     1023    1         2 * UBIN BYTE UNAL,
     1700     1024    1         2 REC$ PTR ALIGNED;
     1701     1025    1   DCL CURR_LN SBIN WORD SYMREF ALIGNED;
     1702     1026    1   DCL BUF_PTR SBIN WORD SYMREF ALIGNED;
     1703     1027    1   DCL CURR_OWNER SBIN WORD SYMREF ALIGNED;
     1704     1028    1   DCL COMMAND_TEXT CHAR(9) SYMREF ALIGNED;
     1705     1029    1   DCL Y SBIN WORD STATIC ALIGNED;
     1706     1030    1   DCL REC_SIZE SBIN WORD STATIC ALIGNED;
     1707     1031    1   DCL Z SBIN WORD STATIC ALIGNED;
     1708     1032    1   DCL 1 CHAR_V BASED CALIGNED,
     1709     1033    1         2 REC CHAR(Z) CALIGNED; /* USED TO ZERO A ERASED RECORD */
     1710     1034    1   DCL 1 REC BASED(REC$) CALIGNED,
     1711     1035    1         2 * UBIN(6) UNAL,
     1712     1036    1         2 TYPE UBIN(12) UNAL,
     1713     1037    1         2 SIZE UBIN(18) UNAL; /* GENERAL FORMAT OF RECORD HEADER */
     1714     1038    1   DCL POOL_MAX SBIN WORD STATIC SYMDEF ALIGNED;
     1715     1039    1   DCL SWAP_PTR SBIN WORD STATIC SYMDEF ALIGNED;
PL6.E3A0      #005=FIND_DIRECT File=ZIU$COMPACT.:ZIC0TSI                         FRI 09/05/97 13:11 Page:330
     1716     1040    1   DCL 1 POOL(0:95) STATIC SYMDEF ALIGNED,
     1717     1041    1         2 MUST_WRITE BIT(1) UNAL,
     1718     1042    1         2 LOCKS UBIN(9) UNAL,
     1719     1043    1         2 PAGE# UBIN(26) UNAL;
     1720     1044    1   DCL NBUFS UBIN SYMREF ALIGNED;
     1721     1045        %INCLUDE ZI_PRSE_SUBS;
     1722     1201        %INCLUDE ZI_ERRORS_SUBS;
     1723     1721        %INCLUDE CP_6_SUBS;
     1724     2261
     1725     2262    1       Z=(DBK-AC_TBL.BASE_DBK(AC_PTR)+AC_TBL.LPP(AC_PTR)-1)/AC_TBL.LPP(AC_PTR);

   2262  2 000002   000000 236000 xsym               LDQ     AC_PTR
         2 000003   000014 402007                    MPY     12,DL
         2 000004   000000 620006                    EAX0    0,QL
         2 000005   000001 470400 0                  LDP0    @DBK
         2 000006   000000 100500                    MLR     fill='000'O
         2 000007   000000 000004                    ADSC9   0,,PR0                   cn=0,n=4
         2 000010   000152 000004 0                  ADSC9   POOL+98                  cn=0,n=4
         2 000011   000152 236000 0                  LDQ     POOL+98
         2 000012   000000 136010 xsym               SBLQ    AC_TBL,X0
         2 000013   000153 756000 0                  STQ     POOL+99
         2 000014   000013 236010 xsym               LDQ     AC_TBL+11,X0
         2 000015   000032 772000                    QRL     26
         2 000016   000154 756000 0                  STQ     POOL+100
         2 000017   000153 236000 0                  LDQ     POOL+99
         2 000020   000154 036000 0                  ADLQ    POOL+100
         2 000021   000155 756000 0                  STQ     POOL+101
         2 000022   000013 236010 xsym               LDQ     AC_TBL+11,X0
         2 000023   000032 772000                    QRL     26
         2 000024   000156 756000 0                  STQ     POOL+102
         2 000025   000155 236000 0                  LDQ     POOL+101
         2 000026   000001 136007                    SBLQ    1,DL
         2 000027   000156 506000 0                  DIV     POOL+102
         2 000030   000005 756000 0                  STQ     Z

     1726     2263    1       CURR_LN=DBK-AC_TBL.BASE_DBK(AC_PTR)-(Z-1)*AC_TBL.LPP(AC_PTR)-1;

PL6.E3A0      #005=FIND_DIRECT File=ZIU$COMPACT.:ZIC0TSI                         FRI 09/05/97 13:11 Page:331
   2263  2 000031   000000 100500                    MLR     fill='000'O
         2 000032   000000 000004                    ADSC9   0,,PR0                   cn=0,n=4
         2 000033   000152 000004 0                  ADSC9   POOL+98                  cn=0,n=4
         2 000034   000152 236000 0                  LDQ     POOL+98
         2 000035   000000 136010 xsym               SBLQ    AC_TBL,X0
         2 000036   000153 756000 0                  STQ     POOL+99
         2 000037   000013 236010 xsym               LDQ     AC_TBL+11,X0
         2 000040   000032 772000                    QRL     26
         2 000041   000154 756000 0                  STQ     POOL+100
         2 000042   000005 236000 0                  LDQ     Z
         2 000043   000001 136007                    SBLQ    1,DL
         2 000044   000154 402000 0                  MPY     POOL+100
         2 000045   000155 756000 0                  STQ     POOL+101
         2 000046   000153 236000 0                  LDQ     POOL+99
         2 000047   000155 136000 0                  SBLQ    POOL+101
         2 000050   000001 136007                    SBLQ    1,DL
         2 000051   000000 756000 xsym               STQ     CURR_LN

     1727     2264         /* Z=PAGE # TO CURR_LNAD, CURR_LN=LINE# IN PAGE OF DBK */
     1728     2265    1       IF Z>AC_TBL.NUM_DBPG(AC_PTR) THEN GOTO OUT_OF_AC_BOUND;

   2265  2 000052   000003 236010 xsym               LDQ     AC_TBL+3,X0
         2 000053   000022 772000                    QRL     18
         2 000054   000005 116000 0                  CMPQ    Z
         2 000055   000732 604000 2                  TMI     OUT_OF_AC_BOUND

     1729     2266
     1730     2267    2       DO BUF_PTR=POOL_MAX-1 DOWNTO 0; /* SEARCH POOL (LAST USED FIRST) */

   2267  2 000056   000006 235000 0                  LDA     POOL_MAX
         2 000057   000001 135007                    SBLA    1,DL
         2 000060   000000 755000 xsym               STA     BUF_PTR
         2 000061   000071 710000 2                  TRA     s:2270+2

     1731     2268    2           IF Z=POOL.PAGE#(BUF_PTR) THEN /* SEARCH POOL FOR THIS PAGE */

   2268  2 000062   000000 720000 xsym               LXL0    BUF_PTR
PL6.E3A0      #005=FIND_DIRECT File=ZIU$COMPACT.:ZIC0TSI                         FRI 09/05/97 13:11 Page:332
         2 000063   000010 236010 0                  LDQ     POOL,X0
         2 000064   000000 376000 3                  ANQ     0
         2 000065   000005 116000 0                  CMPQ    Z
         2 000066   000231 600000 2                  TZE     PAGE_HIT

     1732     2269    2               GOTO PAGE_HIT;
     1733     2270    2           END;

   2270  2 000067   000001 336007                    LCQ     1,DL
         2 000070   000000 056000 xsym               ASQ     BUF_PTR
         2 000071   000000 235000 xsym               LDA     BUF_PTR
         2 000072   000062 605000 2                  TPL     s:2268

     1734     2271
     1735     2272    1       IF POOL_MAX = 2*NBUFS THEN /* TIME TO SWAP ONE PAGE OUT */

   2272  2 000073   000000 236000 xsym               LDQ     NBUFS
         2 000074   000001 736000                    QLS     1
         2 000075   000204 604000 2                  TMI     s:2295
         2 000076   000006 116000 0                  CMPQ    POOL_MAX
         2 000077   000204 601000 2                  TNZ     s:2295

     1736     2273    2       DO;

     1737     2274    2           BUF_PTR=MOD(SWAP_PTR+1,2*NBUFS);

   2274  2 000100   000152 756000 0                  STQ     POOL+98
         2 000101   000007 236000 0                  LDQ     SWAP_PTR
         2 000102   000001 036007                    ADLQ    1,DL
         2 000103   000152 235000 0                  LDA     POOL+98
         2 000104   000107 605000 2                  TPL     s:2274+7
         2 000105   000044 737000                    LLS     36
         2 000106   000110 710000 2                  TRA     s:2274+8
         2 000107   000152 506000 0                  DIV     POOL+98
         2 000110   000000 755000 xsym               STA     BUF_PTR

     1738     2275    3           DO WHILE(POOL.LOCKS(BUF_PTR)>0 AND BUF_PTR~=SWAP_PTR);
PL6.E3A0      #005=FIND_DIRECT File=ZIU$COMPACT.:ZIC0TSI                         FRI 09/05/97 13:11 Page:333

   2275  2 000111   000125 710000 2                  TRA     s:2277

     1739     2276    3               BUF_PTR=MOD(BUF_PTR+1,2*NBUFS);

   2276  2 000112   000000 235000 xsym               LDA     NBUFS
         2 000113   000001 735000                    ALS     1
         2 000114   000152 755000 0                  STA     POOL+98
         2 000115   000000 236000 xsym               LDQ     BUF_PTR
         2 000116   000001 036007                    ADLQ    1,DL
         2 000117   000000 115003                    CMPA    0,DU
         2 000120   000123 605000 2                  TPL     s:2276+9
         2 000121   000044 737000                    LLS     36
         2 000122   000124 710000 2                  TRA     s:2276+10
         2 000123   000152 506000 0                  DIV     POOL+98
         2 000124   000000 755000 xsym               STA     BUF_PTR

     1740     2277    3               END;

   2277  2 000125   000010 236005 0                  LDQ     POOL,AL
         2 000126   377400 316003                    CANQ    130816,DU
         2 000127   000133 600000 2                  TZE     s:2278
         2 000130   000000 236000 xsym               LDQ     BUF_PTR
         2 000131   000007 116000 0                  CMPQ    SWAP_PTR
         2 000132   000112 601000 2                  TNZ     s:2276

     1741     2278    2           IF BUF_PTR=SWAP_PTR THEN /* ALL BUFS ARE LOCKED, IMPOSSIBLE */

   2278  2 000133   000000 236000 xsym               LDQ     BUF_PTR
         2 000134   000007 116000 0                  CMPQ    SWAP_PTR
         2 000135   000167 601000 2                  TNZ     s:2286

     1742     2279    3           DO; /* MEANS AT LEAST THERE ARE 32 LEVELS DEEP */

     1743     2280    3               CALL BIN_CHAR(1,NO_OF_LEVELS+1);

   2280  2 000136   000000 235000 xsym               LDA     NO_OF_LEVELS
PL6.E3A0      #005=FIND_DIRECT File=ZIU$COMPACT.:ZIC0TSI                         FRI 09/05/97 13:11 Page:334
         2 000137   000001 035007                    ADLA    1,DL
         2 000140   000152 755000 0                  STA     POOL+98
         2 000141   000152 630400 0                  EPPR0   POOL+98
         2 000142   000155 450400 0                  STP0    POOL+101
         2 000143   000003 236000 3                  LDQ     3
         2 000144   000154 756000 0                  STQ     POOL+100
         2 000145   000154 630400 0                  EPPR0   POOL+100
         2 000146   000001 631400 3                  EPPR1   1
         2 000147   000000 701000 xent               TSX1    BIN_CHAR
         2 000150   000000 011000                    NOP     0

     1744     2281    3               CALL BIN_CHAR(2,CURR_OWNER);

   2281  2 000151   000005 630400 3                  EPPR0   5
         2 000152   000001 631400 3                  EPPR1   1
         2 000153   000000 701000 xent               TSX1    BIN_CHAR
         2 000154   000000 011000                    NOP     0

     1745     2282    3               CALL ERROR_MSG(DBU#PABUFER1,SC_TBL.NAME(SC_PTR));

   2282  2 000155   000000 236000 xsym               LDQ     SC_PTR
         2 000156   000011 402000 3                  MPY     9
         2 000157   000010 036000 3                  ADLQ    8
         2 000160   000012 235000 3                  LDA     10
         2 000161   000152 757000 0                  STAQ    POOL+98
         2 000162   000152 630400 0                  EPPR0   POOL+98
         2 000163   000001 631400 3                  EPPR1   1
         2 000164   000000 701000 xent               TSX1    ERROR_MSG
         2 000165   000000 011000                    NOP     0

     1746     2283    3               GOTO UN_WIND; /* ABORT JOB */

   2283  2 000166   000724 710000 2                  TRA     UN_WIND

     1747     2284    3               END;
     1748     2285         /* FIND A PAGE TO BE SWAPPED OUT */
     1749     2286    2           IF FIND_TYPE>=0 THEN /* IF REQ IS NOT DONT_ERROR */
PL6.E3A0      #005=FIND_DIRECT File=ZIU$COMPACT.:ZIC0TSI                         FRI 09/05/97 13:11 Page:335

   2286  2 000167   000002 470400 0                  LDP0    @FIND_TYPE
         2 000170   000000 235100                    LDA     0,,PR0
         2 000171   000174 604000 2                  TMI     s:2289

     1750     2287    2               SWAP_PTR = BUF_PTR; /* NEXT BUF TO SWAP IS NEXT ONE */

   2287  2 000172   000007 756000 0                  STQ     SWAP_PTR
         2 000173   000176 710000 2                  TRA     s:2290

     1751     2288    2           ELSE /* OTHERWISE, NEXT TIME SWAP THE SAME ONE */
     1752     2289    2               SWAP_PTR = BUF_PTR-1;

   2289  2 000174   000001 136007                    SBLQ    1,DL
         2 000175   000007 756000 0                  STQ     SWAP_PTR

     1753     2290    2           IF POOL.MUST_WRITE(BUF_PTR) THEN /* PAGE MUST WRITE */

   2290  2 000176   000000 720000 xsym               LXL0    BUF_PTR
         2 000177   000010 234010 0                  SZN     POOL,X0
         2 000200   000207 605000 2                  TPL     s:2298

     1754     2291    2               CALL WRITE_A_PAGE ALTRET(WRIT_ERR);

   2291  2 000201   001026 701000 2                  TSX1    WRITE_A_PAGE
         2 000202   000757 702000 2                  TSX2    WRIT_ERR

     1755     2292    2           END;

   2292  2 000203   000207 710000 2                  TRA     s:2298

     1756     2293    1       ELSE
     1757     2294    2       DO;

     1758     2295    2           BUF_PTR = POOL_MAX;

   2295  2 000204   000006 235000 0                  LDA     POOL_MAX
PL6.E3A0      #005=FIND_DIRECT File=ZIU$COMPACT.:ZIC0TSI                         FRI 09/05/97 13:11 Page:336
         2 000205   000000 755000 xsym               STA     BUF_PTR

     1759     2296    2           POOL_MAX = POOL_MAX + 1;

   2296  2 000206   000006 054000 0                  AOS     POOL_MAX

     1760     2297    2           END;

     1761     2298    1       DCBSF = AC_TBL.DCB#(AC_PTR);

   2298  2 000207   000000 236000 xsym               LDQ     AC_PTR
         2 000210   000014 402007                    MPY     12,DL
         2 000211   000013 720006 xsym               LXL0    AC_TBL+11,QL
         2 000212   000377 360003                    ANX0    255,DU
         2 000213   000000 740000 xsym               STX0    DCBSF

     1762     2299    1       CALL READ_DB(BUF_PTR,Z,1) ALTRET(READ_ERR);

   2299  2 000214   000014 630400 3                  EPPR0   12
         2 000215   000013 631400 3                  EPPR1   11
         2 000216   000000 701000 xent               TSX1    READ_DB
         2 000217   000757 702000 2                  TSX2    WRIT_ERR

     1763     2300    1       POOL.MUST_WRITE(BUF_PTR)='0'B; /* INIT BUFFER CONTROL FLAGS */

   2300  2 000220   000000 720000 xsym               LXL0    BUF_PTR
         2 000221   000017 236000 3                  LDQ     15
         2 000222   000010 356010 0                  ANSQ    POOL,X0

     1764     2301    1       POOL.LOCKS(BUF_PTR)=0;

   2301  2 000223   000020 236000 3                  LDQ     16
         2 000224   000010 356010 0                  ANSQ    POOL,X0

     1765     2302    1       POOL.PAGE#(BUF_PTR) = Z;

   2302  2 000225   000005 236000 0                  LDQ     Z
PL6.E3A0      #005=FIND_DIRECT File=ZIU$COMPACT.:ZIC0TSI                         FRI 09/05/97 13:11 Page:337
         2 000226   000010 676010 0                  ERQ     POOL,X0
         2 000227   000000 376000 3                  ANQ     0
         2 000230   000010 656010 0                  ERSQ    POOL,X0

     1766     2303    1   PAGE_HIT: /* BUF_PTR IS INDX INTO POOL AND ALSO I_O_BUF */
     1767     2304         /* X IS OFFSET OF THE DBK, CURR_LN IS THE LINE # */
     1768     2305    1       DATA$=ADDR(I_O_BUF(BUF_PTR));

   2305  2 000231   000000 236000 xsym  PAGE_HIT     LDQ     BUF_PTR
         2 000232   000034 736000                    QLS     28
         2 000233   000000 036000 xsym               ADLQ    I_O_BUF$
         2 000234   000000 756000 xsym               STQ     DATA$

     1769     2306
     1770     2307    1       X = DATA_PG.ACT_DATA_18(2035-CURR_LN); /* GET OFFSET IN PAGE */

   2307  2 000235   000000 335000 xsym               LCA     CURR_LN
         2 000236   000001 735000                    ALS     1
         2 000237   000000 470400 xsym               LDP0    DATA$
         2 000240   000000 100505                    MLR     fill='000'O
         2 000241   001777 400002                    ADSC9   1023,A,PR0               cn=2,n=2
         2 000242   000152 000004 0                  ADSC9   POOL+98                  cn=0,n=4
         2 000243   000152 236000 0                  LDQ     POOL+98
         2 000244   000022 732000                    QRS     18
         2 000245   000000 756000 xsym               STQ     X

     1771     2308    1       IF CURR_LN>DATA_PG.OFF_LN.SEC OR X<12 THEN

   2308  2 000246   000005 236100                    LDQ     5,,PR0
         2 000247   777777 376007                    ANQ     -1,DL
         2 000250   000000 116000 xsym               CMPQ    CURR_LN
         2 000251   000645 604000 2                  TMI     NO_SUCH_DBK
         2 000252   000000 235000 xsym               LDA     X
         2 000253   000014 115007                    CMPA    12,DL
         2 000254   000645 604000 2                  TMI     NO_SUCH_DBK

     1772     2309    1           GOTO NO_SUCH_DBK;
PL6.E3A0      #005=FIND_DIRECT File=ZIU$COMPACT.:ZIC0TSI                         FRI 09/05/97 13:11 Page:338
     1773     2310    1       REC$ = PINCRC(DATA$,12+X);

   2310  2 000255   000000 236000 xsym               LDQ     X
         2 000256   000020 736000                    QLS     16
         2 000257   000003 036003                    ADLQ    3,DU
         2 000260   000000 036000 xsym               ADLQ    DATA$
         2 000261   000000 756000 xsym               STQ     REC$

     1774     2311    1       IF DBK~=CURR_OWNER AND REC.TYPE~=SC_TBL.PA_TYPE(SC_PTR) THEN

   2311  2 000262   000001 471400 0                  LDP1    @DBK
         2 000263   000000 100500                    MLR     fill='000'O
         2 000264   100000 000004                    ADSC9   0,,PR1                   cn=0,n=4
         2 000265   000152 000004 0                  ADSC9   POOL+98                  cn=0,n=4
         2 000266   000152 236000 0                  LDQ     POOL+98
         2 000267   000272 604000 2                  TMI     s:2311+8
         2 000270   000000 116000 xsym               CMPQ    CURR_OWNER
         2 000271   000311 600000 2                  TZE     s:2313
         2 000272   000000 236000 xsym               LDQ     SC_PTR
         2 000273   000405 402007                    MPY     261,DL
         2 000274   000000 116003                    CMPQ    0,DU
         2 000275   000277 605000 2                  TPL     s:2311+13
         2 000276   000044 036003                    ADLQ    36,DU
         2 000277   003000 061406                    CSR     bolr='003'O
         2 000300   000004 250014 xsym               BDSC    SC_TBL+4,Q               by=1,bit=5,n=12
         2 000301   000153 000044 0                  BDSC    POOL+99                  by=0,bit=0,n=36
         2 000302   000000 473400 xsym               LDP3    REC$
         2 000303   003000 061500                    CSR     bolr='003'O
         2 000304   300000 060014                    BDSC    0,,PR3                   by=0,bit=6,n=12
         2 000305   000154 000044 0                  BDSC    POOL+100                 by=0,bit=0,n=36
         2 000306   000154 236000 0                  LDQ     POOL+100
         2 000307   000153 116000 0                  CMPQ    POOL+99
         2 000310   000575 601000 2                  TNZ     BAD_TYPE

     1775     2312    1           GOTO BAD_TYPE;
     1776     2313    1       IF FIND_TYPE=%LOCK_BUF THEN /* REQ TO LOCK THE BUFF */

PL6.E3A0      #005=FIND_DIRECT File=ZIU$COMPACT.:ZIC0TSI                         FRI 09/05/97 13:11 Page:339
   2313  2 000311   000002 473400 0                  LDP3    @FIND_TYPE
         2 000312   300000 235100                    LDA     0,,PR3
         2 000313   000002 115007                    CMPA    2,DL
         2 000314   000334 601000 2                  TNZ     s:2318

     1777     2314    2       DO;

     1778     2315    2           POOL.LOCKS(BUF_PTR)=POOL.LOCKS(BUF_PTR)+1;

   2315  2 000315   000010 236010 0                  LDQ     POOL,X0
         2 000316   000032 772000                    QRL     26
         2 000317   000777 376007                    ANQ     511,DL
         2 000320   000001 036007                    ADLQ    1,DL
         2 000321   000032 736000                    QLS     26
         2 000322   000010 676010 0                  ERQ     POOL,X0
         2 000323   377400 376003                    ANQ     130816,DU
         2 000324   000010 656010 0                  ERSQ    POOL,X0

     1779     2316    2           CURR_LEVEL.BUF_PTR(LEVEL#)=BUF_PTR;

   2316  2 000325   000000 235000 xsym               LDA     LEVEL#
         2 000326   000002 735000                    ALS     2
         2 000327   000000 236000 xsym               LDQ     BUF_PTR
         2 000330   000011 736000                    QLS     9
         2 000331   000002 676005 xsym               ERQ     CURR_LEVEL+2,AL
         2 000332   377000 376007                    ANQ     130560,DL
         2 000333   000002 656005 xsym               ERSQ    CURR_LEVEL+2,AL

     1780     2317    2           END;

     1781     2318    1       IF FIND_TYPE>0 THEN /* REQ TO SET MUST WRITE SWITCH */

   2318  2 000334   300000 235100                    LDA     0,,PR3
         2 000335   000340 604400 2                  TMOZ    s:2320

     1782     2319    1           POOL.MUST_WRITE(BUF_PTR)='1'B;

PL6.E3A0      #005=FIND_DIRECT File=ZIU$COMPACT.:ZIC0TSI                         FRI 09/05/97 13:11 Page:340
   2319  2 000336   400000 236003                    LDQ     -131072,DU
         2 000337   000010 256010 0                  ORSQ    POOL,X0

     1783     2320    1       RETURN; /* X=BUF_PTR,RE=LINE#,Z=PAGE#, REC$ IS THE REC */

   2320  2 000340   000000 221200 0                  LDX1  ! 0
         2 000341   000001 702211                    TSX2  ! 1,X1

     1784     2321        %EJECT;
PL6.E3A0      #005=FIND_DIRECT File=ZIU$COMPACT.:ZIC0TSI                         FRI 09/05/97 13:11 Page:341
     1785     2322
     1786     2323    1   ERASE_PAREC: ENTRY;

   2323  2 000342   000000 700200 xent  ERASE_PAREC  TSX0  ! X66_STATIC_2
         2 000343   000000 000002 0                  ZERO    0,2

     1787     2324
     1788     2325        /*
     1789     2326              THIS SUB IS TO BE CALLED RIGHT AFTER FIND_DIRECT
     1790     2327              SO THAT   X, CURR_LN REMAIN UNCHANGED
     1791     2328        */
     1792     2329
     1793     2330    1       Y = DATA_PG.OFF_LN.FIR; /* GET FIRST AVAIL LINE # */

   2330  2 000344   000000 470400 xsym               LDP0    DATA$
         2 000345   000005 236100                    LDQ     5,,PR0
         2 000346   000022 772000                    QRL     18
         2 000347   000003 756000 0                  STQ     Y

     1794     2331    1       IF (Y=0 AND DATA_PG.OFFSET(2035)<131072) OR /* NO AVAIL LINE */

   2331  2 000350   000354 601000 2                  TNZ     s:2331+4
         2 000351   001777 720100                    LXL0    1023,,PR0
         2 000352   400000 100003                    CMPX0   -131072,DU
         2 000353   000356 602000 2                  TNC     s:2334
         2 000354   000000 116000 xsym               CMPQ    CURR_LN
         2 000355   000370 604400 2                  TMOZ    s:2339

     1795     2332    1          Y>CURR_LN THEN /* OR 1ST AVAIL>CURRENT LINE */
     1796     2333    2       DO;

     1797     2334    2           DATA_PG.OFF_LN.FIR=CURR_LN; /* MAKE IT 1ST AVAIL */

   2334  2 000356   000000 720000 xsym               LXL0    CURR_LN
         2 000357   000005 740100                    STX0    5,,PR0

     1798     2335    2           DATA_PG.OFFSET(2035-CURR_LN)=131072+Y;
PL6.E3A0      #005=FIND_DIRECT File=ZIU$COMPACT.:ZIC0TSI                         FRI 09/05/97 13:11 Page:342

   2335  2 000360   400000 036007                    ADLQ    -131072,DL
         2 000361   000152 756000 0                  STQ     POOL+98
         2 000362   000000 335000 xsym               LCA     CURR_LN
         2 000363   000001 735000                    ALS     1
         2 000364   000105 101400                    MRL     fill='000'O
         2 000365   000152 000004 0                  ADSC9   POOL+98                  cn=0,n=4
         2 000366   001777 400002                    ADSC9   1023,A,PR0               cn=2,n=2

     1799     2336    2           END;

   2336  2 000367   000435 710000 2                  TRA     s:2348

     1800     2337    1       ELSE
     1801     2338    2       DO; /* WALK THRU THE CHAIN TO FIND INSERTION POINT */

     1802     2339    3           DO WHILE(DATA_PG.OFFSET(2035-Y)-131072<CURR_LN AND

   2339  2 000370   000402 710000 2                  TRA     s:2342

     1803     2340    3              DATA_PG.OFFSET(2035-Y)-131072~=0);
     1804     2341    3               Y=DATA_PG.OFFSET(2035-Y)-131072;

   2341  2 000371   000003 335000 0                  LCA     Y
         2 000372   000001 735000                    ALS     1
         2 000373   000000 470400 xsym               LDP0    DATA$
         2 000374   000000 101505                    MRL     fill='000'O
         2 000375   001777 400002                    ADSC9   1023,A,PR0               cn=2,n=2
         2 000376   000152 000004 0                  ADSC9   POOL+98                  cn=0,n=4
         2 000377   000152 236000 0                  LDQ     POOL+98
         2 000400   400000 136007                    SBLQ    -131072,DL
         2 000401   000003 756000 0                  STQ     Y

     1805     2342    3               END;

   2342  2 000402   000003 335000 0                  LCA     Y
         2 000403   000001 735000                    ALS     1
PL6.E3A0      #005=FIND_DIRECT File=ZIU$COMPACT.:ZIC0TSI                         FRI 09/05/97 13:11 Page:343
         2 000404   000000 101505                    MRL     fill='000'O
         2 000405   001777 400002                    ADSC9   1023,A,PR0               cn=2,n=2
         2 000406   000152 000004 0                  ADSC9   POOL+98                  cn=0,n=4
         2 000407   000152 236000 0                  LDQ     POOL+98
         2 000410   400000 136007                    SBLQ    -131072,DL
         2 000411   000000 116000 xsym               CMPQ    CURR_LN
         2 000412   000421 605000 2                  TPL     s:2343
         2 000413   000000 101505                    MRL     fill='000'O
         2 000414   001777 400002                    ADSC9   1023,A,PR0               cn=2,n=2
         2 000415   000153 000004 0                  ADSC9   POOL+99                  cn=0,n=4
         2 000416   000153 236000 0                  LDQ     POOL+99
         2 000417   400000 116007                    CMPQ    -131072,DL
         2 000420   000371 601000 2                  TNZ     s:2341

     1806     2343    2           DATA_PG.OFFSET(2035-CURR_LN)=DATA_PG.OFFSET(2035-Y);

   2343  2 000421   000000 336000 xsym               LCQ     CURR_LN
         2 000422   000001 736000                    QLS     1
         2 000423   000106 100505                    MLR     fill='000'O
         2 000424   001777 400002                    ADSC9   1023,A,PR0               cn=2,n=2
         2 000425   001777 400002                    ADSC9   1023,Q,PR0               cn=2,n=2

     1807     2344    2           DATA_PG.OFFSET(2035-Y)=131072+CURR_LN;

   2344  2 000426   000000 236000 xsym               LDQ     CURR_LN
         2 000427   400000 036007                    ADLQ    -131072,DL
         2 000430   000152 756000 0                  STQ     POOL+98
         2 000431   000000 470400 xsym               LDP0    DATA$
         2 000432   000105 101400                    MRL     fill='000'O
         2 000433   000152 000004 0                  ADSC9   POOL+98                  cn=0,n=4
         2 000434   001777 400002                    ADSC9   1023,A,PR0               cn=2,n=2

     1808     2345    2           END;

     1809     2346
     1810     2347         /* NOW, UPDATE ALL LINE OFFSET IF THEY ARE SHIFTED */
     1811     2348    1       REC_SIZE=REC.SIZE; /* GET SIZE OF ERASED PA */
PL6.E3A0      #005=FIND_DIRECT File=ZIU$COMPACT.:ZIC0TSI                         FRI 09/05/97 13:11 Page:344

   2348  2 000435   000000 470400 xsym               LDP0    REC$
         2 000436   000000 101500                    MRL     fill='000'O
         2 000437   000000 400002                    ADSC9   0,,PR0                   cn=2,n=2
         2 000440   000004 000004 0                  ADSC9   REC_SIZE                 cn=0,n=4

     1812     2349    2       DO Y=0 TO DATA_PG.OFF_LN.SEC; /* LOOP THRU CURR HIGH LINE */

   2349  2 000441   000003 450000 0                  STZ     Y
         2 000442   000474 710000 2                  TRA     s:2353+1

     1813     2350    2           IF DATA_PG.OFFSET(2035-Y)<131072 AND

   2350  2 000443   000003 335000 0                  LCA     Y
         2 000444   000001 735000                    ALS     1
         2 000445   000000 470400 xsym               LDP0    DATA$
         2 000446   000000 101505                    MRL     fill='000'O
         2 000447   001777 400002                    ADSC9   1023,A,PR0               cn=2,n=2
         2 000450   000152 000004 0                  ADSC9   POOL+98                  cn=0,n=4
         2 000451   000152 236000 0                  LDQ     POOL+98
         2 000452   400000 116007                    CMPQ    -131072,DL
         2 000453   000473 605000 2                  TPL     s:2353
         2 000454   000000 101505                    MRL     fill='000'O
         2 000455   001777 400002                    ADSC9   1023,A,PR0               cn=2,n=2
         2 000456   000153 000004 0                  ADSC9   POOL+99                  cn=0,n=4
         2 000457   000153 236000 0                  LDQ     POOL+99
         2 000460   000000 116000 xsym               CMPQ    X
         2 000461   000473 604400 2                  TMOZ    s:2353

     1814     2351    2              DATA_PG.OFFSET(2035-Y)>X THEN /* X=OFFSET OF ERASED REC */
     1815     2352    2               DATA_PG.OFFSET(2035-Y)=DATA_PG.OFFSET(2035-Y)-REC_SIZE;

   2352  2 000462   000000 101505                    MRL     fill='000'O
         2 000463   001777 400002                    ADSC9   1023,A,PR0               cn=2,n=2
         2 000464   000152 000004 0                  ADSC9   POOL+98                  cn=0,n=4
         2 000465   000152 236000 0                  LDQ     POOL+98
         2 000466   000004 136000 0                  SBLQ    REC_SIZE
PL6.E3A0      #005=FIND_DIRECT File=ZIU$COMPACT.:ZIC0TSI                         FRI 09/05/97 13:11 Page:345
         2 000467   000153 756000 0                  STQ     POOL+99
         2 000470   000105 101400                    MRL     fill='000'O
         2 000471   000153 000004 0                  ADSC9   POOL+99                  cn=0,n=4
         2 000472   001777 400002                    ADSC9   1023,A,PR0               cn=2,n=2

     1816     2353    2           END;

   2353  2 000473   000003 054000 0                  AOS     Y
         2 000474   000000 470400 xsym               LDP0    DATA$
         2 000475   000005 236100                    LDQ     5,,PR0
         2 000476   777777 376007                    ANQ     -1,DL
         2 000477   000003 116000 0                  CMPQ    Y
         2 000500   000443 605000 2                  TPL     s:2350

     1817     2354
     1818     2355         /* NOW, MOVE UP ALL THE RECORDS BELOW ERASED ONE */
     1819     2356    1       Y=4084-(DATA_PG.PG_SZ.SEC+DATA_PG.OFF_LN.SEC*2+2);

   2356  2 000501   000003 236100                    LDQ     3,,PR0
         2 000502   777777 376007                    ANQ     -1,DL
         2 000503   000152 756000 0                  STQ     POOL+98
         2 000504   000005 236100                    LDQ     5,,PR0
         2 000505   000001 736000                    QLS     1
         2 000506   000021 376000 3                  ANQ     17
         2 000507   000152 036000 0                  ADLQ    POOL+98
         2 000510   000022 676000 3                  ERQ     18
         2 000511   007763 036007                    ADLQ    4083,DL
         2 000512   000003 756000 0                  STQ     Y

     1820     2357    1       DATA_PG.PG_SZ.SEC=DATA_PG.PG_SZ.SEC+REC_SIZE; /* UPDATE SP AVAIL */

   2357  2 000513   000003 236100                    LDQ     3,,PR0
         2 000514   777777 376007                    ANQ     -1,DL
         2 000515   000004 036000 0                  ADLQ    REC_SIZE
         2 000516   000000 620006                    EAX0    0,QL
         2 000517   000003 440100                    SXL0    3,,PR0

PL6.E3A0      #005=FIND_DIRECT File=ZIU$COMPACT.:ZIC0TSI                         FRI 09/05/97 13:11 Page:346
     1821     2358    1       Z=Y-(X+REC_SIZE); /* NUMBER OF BYTES TO MOVED UP */

   2358  2 000520   000000 236000 xsym               LDQ     X
         2 000521   000004 036000 0                  ADLQ    REC_SIZE
         2 000522   000152 756000 0                  STQ     POOL+98
         2 000523   000003 236000 0                  LDQ     Y
         2 000524   000152 136000 0                  SBLQ    POOL+98
         2 000525   000005 756000 0                  STQ     Z

     1822     2359    1       REC$->CHAR_V.REC = PINCRC(REC$,REC_SIZE)->CHAR_V.REC; /* SHIFT UP */

   2359  2 000526   000000 471400 xsym               LDP1    REC$
         2 000527   000000 620006                    EAX0    0,QL
         2 000530   000004 235000 0                  LDA     REC_SIZE
         2 000531   000005 721000 0                  LXL1    Z
         2 000532   040140 100545                    MLR     fill='040'O
         2 000533   100000 000010                    ADSC9   0,A,PR1                  cn=0,n=*X0
         2 000534   100000 000011                    ADSC9   0,,PR1                   cn=0,n=*X1

     1823     2360    1       REC$=PINCRC(REC$,Z); /* END OF NEW DATA BYTES */

   2360  2 000535   000005 236000 0                  LDQ     Z
         2 000536   000020 736000                    QLS     16
         2 000537   000000 036000 xsym               ADLQ    REC$
         2 000540   000000 756000 xsym               STQ     REC$

     1824     2361    1       Z = REC_SIZE; /* SIZE TO FILL WITH ZERO */

   2361  2 000541   000005 755000 0                  STA     Z

     1825     2362
     1826     2363    1       REC$->CHAR_V = '0'B;

   2363  2 000542   000000 470400 xsym               LDP0    REC$
         2 000543   000000 620005                    EAX0    0,AL
         2 000544   000140 100400                    MLR     fill='000'O
         2 000545   000023 000001 3                  ADSC9   19                       cn=0,n=1
PL6.E3A0      #005=FIND_DIRECT File=ZIU$COMPACT.:ZIC0TSI                         FRI 09/05/97 13:11 Page:347
         2 000546   000000 000010                    ADSC9   0,,PR0                   cn=0,n=*X0

     1827     2364    1       SC_TBL.COUNT(SC_PTR)=SC_TBL.COUNT(SC_PTR)+1; /* SUMMARY COUNTER */

   2364  2 000547   000000 236000 xsym               LDQ     SC_PTR
         2 000550   000405 402007                    MPY     261,DL
         2 000551   000000 116003                    CMPQ    0,DU
         2 000552   000554 605000 2                  TPL     s:2364+5
         2 000553   000044 036003                    ADLQ    36,DU
         2 000554   003000 060406                    CSL     bolr='003'O
         2 000555   000006 450022 xsym               BDSC    SC_TBL+6,Q               by=2,bit=5,n=18
         2 000556   000153 000044 0                  BDSC    POOL+99                  by=0,bit=0,n=36
         2 000557   000153 236000 0                  LDQ     POOL+99
         2 000560   000022 732000                    QRS     18
         2 000561   000001 036007                    ADLQ    1,DL
         2 000562   000152 756000 0                  STQ     POOL+98
         2 000563   000000 236000 xsym               LDQ     SC_PTR
         2 000564   000405 402007                    MPY     261,DL
         2 000565   000000 116003                    CMPQ    0,DU
         2 000566   000570 605000 2                  TPL     s:2364+17
         2 000567   000044 036003                    ADLQ    36,DU
         2 000570   003006 061400                    CSR     bolr='003'O
         2 000571   000152 000044 0                  BDSC    POOL+98                  by=0,bit=0,n=36
         2 000572   000006 450022 xsym               BDSC    SC_TBL+6,Q               by=2,bit=5,n=18

     1828     2365    1       RETURN;

   2365  2 000573   000000 221200 0                  LDX1  ! 0
         2 000574   000001 702211                    TSX2  ! 1,X1

     1829     2366        %EJECT;
PL6.E3A0      #005=FIND_DIRECT File=ZIU$COMPACT.:ZIC0TSI                         FRI 09/05/97 13:11 Page:348
     1830     2367    1   BAD_TYPE:
     1831     2368    1       IF FIND_TYPE=%DONT_ERROR THEN RETURN;

   2368  2 000575   000002 474400 0     BAD_TYPE     LDP4    @FIND_TYPE
         2 000576   400000 235100                    LDA     0,,PR4
         2 000577   000022 115000 3                  CMPA    18
         2 000600   000603 601000 2                  TNZ     s:2370

   2368  2 000601   000000 221200 0                  LDX1  ! 0
         2 000602   000001 702211                    TSX2  ! 1,X1

     1832     2369
     1833     2370    1       CALL BIN_CHAR(1,DBK);

   2370  2 000603   000001 236000 0                  LDQ     @DBK
         2 000604   000003 235000 3                  LDA     3
         2 000605   000152 757000 0                  STAQ    POOL+98
         2 000606   000152 630400 0                  EPPR0   POOL+98
         2 000607   000001 631400 3                  EPPR1   1
         2 000610   000000 701000 xent               TSX1    BIN_CHAR
         2 000611   000000 011000                    NOP     0

     1834     2371    1       IF ZI$DIR.CODE=#REVERT THEN /* SET REVERT TO NON-PA IS NON-PA */

   2371  2 000612   000125 236000 xsym               LDQ     ZI$DIR+85
         2 000613   000024 376000 3                  ANQ     20
         2 000614   000025 116000 3                  CMPQ    21
         2 000615   000630 601000 2                  TNZ     s:2374

     1835     2372    1           CALL ERROR_MSG(DBU#PANONPA,SC_TBL.NAME(SC_PTR));

   2372  2 000616   000000 236000 xsym               LDQ     SC_PTR
         2 000617   000011 402000 3                  MPY     9
         2 000620   000010 036000 3                  ADLQ    8
         2 000621   000027 235000 3                  LDA     23
         2 000622   000152 757000 0                  STAQ    POOL+98
         2 000623   000152 630400 0                  EPPR0   POOL+98
PL6.E3A0      #005=FIND_DIRECT File=ZIU$COMPACT.:ZIC0TSI                         FRI 09/05/97 13:11 Page:349
         2 000624   000001 631400 3                  EPPR1   1
         2 000625   000000 701000 xent               TSX1    ERROR_MSG
         2 000626   000000 011000                    NOP     0
         2 000627   000644 710000 2                  TRA     s:2375

     1836     2373    1       ELSE
     1837     2374    1           CALL ERROR_MSG(DBU#PABADTYP,SC_TBL.NAME(SC_PTR),,COMMAND_TEXT);

   2374  2 000630   000033 236000 3                  LDQ     27
         2 000631   000032 235000 3                  LDA     26
         2 000632   000154 757000 0                  STAQ    POOL+100
         2 000633   000000 236000 xsym               LDQ     SC_PTR
         2 000634   000011 402000 3                  MPY     9
         2 000635   000010 036000 3                  ADLQ    8
         2 000636   000034 235000 3                  LDA     28
         2 000637   000152 757000 0                  STAQ    POOL+98
         2 000640   000152 630400 0                  EPPR0   POOL+98
         2 000641   000030 631400 3                  EPPR1   24
         2 000642   000000 701000 xent               TSX1    ERROR_MSG
         2 000643   000000 011000                    NOP     0

     1838     2375    1       GOTO UN_WIND;

   2375  2 000644   000724 710000 2                  TRA     UN_WIND

     1839     2376    1   NO_SUCH_DBK:
     1840     2377    1       IF FIND_TYPE=%DONT_ERROR THEN RETURN; /* REQ IS DONT ERROR */

   2377  2 000645   000002 471400 0     NO_SUCH_DBK  LDP1    @FIND_TYPE
         2 000646   100000 235100                    LDA     0,,PR1
         2 000647   000022 115000 3                  CMPA    18
         2 000650   000653 601000 2                  TNZ     s:2379

   2377  2 000651   000000 221200 0                  LDX1  ! 0
         2 000652   000001 702211                    TSX2  ! 1,X1

     1841     2378
PL6.E3A0      #005=FIND_DIRECT File=ZIU$COMPACT.:ZIC0TSI                         FRI 09/05/97 13:11 Page:350
     1842     2379    1       CALL BIN_CHAR(1,DBK);

   2379  2 000653   000001 236000 0                  LDQ     @DBK
         2 000654   000003 235000 3                  LDA     3
         2 000655   000152 757000 0                  STAQ    POOL+98
         2 000656   000152 630400 0                  EPPR0   POOL+98
         2 000657   000001 631400 3                  EPPR1   1
         2 000660   000000 701000 xent               TSX1    BIN_CHAR
         2 000661   000000 011000                    NOP     0

     1843     2380    1       IF DBK=CURR_OWNER THEN /* OWNER NOT FOUND */

   2380  2 000662   000001 470400 0                  LDP0    @DBK
         2 000663   000000 100500                    MLR     fill='000'O
         2 000664   000000 000004                    ADSC9   0,,PR0                   cn=0,n=4
         2 000665   000152 000004 0                  ADSC9   POOL+98                  cn=0,n=4
         2 000666   000152 236000 0                  LDQ     POOL+98
         2 000667   000707 604000 2                  TMI     s:2384
         2 000670   000000 116000 xsym               CMPQ    CURR_OWNER
         2 000671   000707 601000 2                  TNZ     s:2384

     1844     2381    1           CALL ERROR_MSG(DBU#PABADLNK,SC_TBL.NAME(SC_PTR),,COMMAND_TEXT);

   2381  2 000672   000033 236000 3                  LDQ     27
         2 000673   000032 235000 3                  LDA     26
         2 000674   000154 757000 0                  STAQ    POOL+100
         2 000675   000000 236000 xsym               LDQ     SC_PTR
         2 000676   000011 402000 3                  MPY     9
         2 000677   000010 036000 3                  ADLQ    8
         2 000700   000036 235000 3                  LDA     30
         2 000701   000152 757000 0                  STAQ    POOL+98
         2 000702   000152 630400 0                  EPPR0   POOL+98
         2 000703   000030 631400 3                  EPPR1   24
         2 000704   000000 701000 xent               TSX1    ERROR_MSG
         2 000705   000000 011000                    NOP     0
         2 000706   000724 710000 2                  TRA     UN_WIND

PL6.E3A0      #005=FIND_DIRECT File=ZIU$COMPACT.:ZIC0TSI                         FRI 09/05/97 13:11 Page:351
     1845     2382    1       ELSE
     1846     2383    2       DO;

     1847     2384    2           CALL BIN_CHAR(2,CURR_OWNER);

   2384  2 000707   000005 630400 3                  EPPR0   5
         2 000710   000001 631400 3                  EPPR1   1
         2 000711   000000 701000 xent               TSX1    BIN_CHAR
         2 000712   000000 011000                    NOP     0

     1848     2385    2           CALL ERROR_MSG(DBU#PANOK,SC_TBL.NAME(SC_PTR));

   2385  2 000713   000000 236000 xsym               LDQ     SC_PTR
         2 000714   000011 402000 3                  MPY     9
         2 000715   000010 036000 3                  ADLQ    8
         2 000716   000040 235000 3                  LDA     32
         2 000717   000152 757000 0                  STAQ    POOL+98
         2 000720   000152 630400 0                  EPPR0   POOL+98
         2 000721   000001 631400 3                  EPPR1   1
         2 000722   000000 701000 xent               TSX1    ERROR_MSG
         2 000723   000000 011000                    NOP     0

     1849     2386    2           END;

     1850     2387    1   UN_WIND: UNWIND TO BREAK_CLEANUP;

   2387  2 000724   000000 100600       UN_WIND      MLR   ! fill='000'O
         2 000725   000000 000010 xsym               ADSC9   BREAK_CLEANUP            cn=0,n=8
         2 000726   000152 000010 0                  ADSC9   POOL+98                  cn=0,n=8
         2 000727   000152 237200 0                  LDAQ  ! POOL+98
         2 000730   000000 700200 xent               TSX0  ! X66_SUNWIND
         2 000731   000000 000200                    ZERO    0,128

     1851     2388    1   OUT_OF_AC_BOUND: /* SOME PTR OUT OF THE AREA THAT OWNER IS IN */
     1852     2389    1       CALL BIN_CHAR(1,CURR_OWNER);

   2389  2 000732   000041 630400 3     OUT_OF_AC_B* EPPR0   33
PL6.E3A0      #005=FIND_DIRECT File=ZIU$COMPACT.:ZIC0TSI                         FRI 09/05/97 13:11 Page:352
         2 000733   000001 631400 3                  EPPR1   1
         2 000734   000000 701000 xent               TSX1    BIN_CHAR
         2 000735   000000 011000                    NOP     0

     1853     2390    1       CALL BIN_CHAR(2,DBK);

   2390  2 000736   000001 236000 0                  LDQ     @DBK
         2 000737   000005 235000 3                  LDA     5
         2 000740   000152 757000 0                  STAQ    POOL+98
         2 000741   000152 630400 0                  EPPR0   POOL+98
         2 000742   000001 631400 3                  EPPR1   1
         2 000743   000000 701000 xent               TSX1    BIN_CHAR
         2 000744   000000 011000                    NOP     0

     1854     2391    1       CALL ERROR_MSG(DBU#PAOUTAC,SC_TBL.NAME(SC_PTR));

   2391  2 000745   000000 236000 xsym               LDQ     SC_PTR
         2 000746   000011 402000 3                  MPY     9
         2 000747   000010 036000 3                  ADLQ    8
         2 000750   000044 235000 3                  LDA     36
         2 000751   000152 757000 0                  STAQ    POOL+98
         2 000752   000152 630400 0                  EPPR0   POOL+98
         2 000753   000001 631400 3                  EPPR1   1
         2 000754   000000 701000 xent               TSX1    ERROR_MSG
         2 000755   000000 011000                    NOP     0

     1855     2392    1       GOTO UN_WIND;

   2392  2 000756   000724 710000 2                  TRA     UN_WIND

   2387  2 000757                       WRIT_ERR     null
     1856     2393    1   WRIT_ERR: ;
     1857     2394    1   READ_ERR: X = KEYVSF.IDSKEY; /* PAGE NUMBER */

   2394  2 000757   000000 235000 xsym  READ_ERR     LDA     KEYVSF
         2 000760   000001 236000 xsym               LDQ     KEYVSF+1
         2 000761   000033 773000                    LRL     27
PL6.E3A0      #005=FIND_DIRECT File=ZIU$COMPACT.:ZIC0TSI                         FRI 09/05/97 13:11 Page:353
         2 000762   000000 756000 xsym               STQ     X

     1858     2395    1       CALL BIN_CHAR(1,X);

   2395  2 000763   000045 630400 3                  EPPR0   37
         2 000764   000001 631400 3                  EPPR1   1
         2 000765   000000 701000 xent               TSX1    BIN_CHAR
         2 000766   000000 011000                    NOP     0

     1859     2396    1       CALL ERROR_MSG(DBU#PAERROR5,AC_TBL.NAME(AC_PTR),,COMMAND_TEXT);

   2396  2 000767   000033 236000 3                  LDQ     27
         2 000770   000032 235000 3                  LDA     26
         2 000771   000154 757000 0                  STAQ    POOL+100
         2 000772   000000 236000 xsym               LDQ     AC_PTR
         2 000773   000014 402003                    MPY     12,DU
         2 000774   000050 036000 3                  ADLQ    40
         2 000775   000051 235000 3                  LDA     41
         2 000776   000152 757000 0                  STAQ    POOL+98
         2 000777   000152 630400 0                  EPPR0   POOL+98
         2 001000   000030 631400 3                  EPPR1   24
         2 001001   000000 701000 xent               TSX1    ERROR_MSG
         2 001002   000000 011000                    NOP     0

     1860     2397    1       GOTO UN_WIND;

   2397  2 001003   000724 710000 2                  TRA     UN_WIND

     1861     2398        %EJECT;
PL6.E3A0      #005=FIND_DIRECT File=ZIU$COMPACT.:ZIC0TSI                         FRI 09/05/97 13:11 Page:354
     1862     2399        /*E* ERROR: ZIU-DBU#PANOK-C
     1863     2400        MESSAGE: Error: The *PA_REC_%U1 at DBK# %U2 does not exist,
     1864     2401                            while owner's DBK# is %U3.
     1865     2402                        Broken set is suspected.
     1866     2403                        Run REBUILD PA to reconstruct this set. */
     1867     2404        /*E* ERROR: ZIU-DBU#PABADLNK-C
     1868     2405        MESSAGE: Error: There is no such owner record for the set "%U1"
     1869     2406                        at DBK# %U2. %U3 aborted.
     1870     2407                        You should run REPAIR to fix the set before next shot. */
     1871     2408        /*E* ERROR: ZIU-DBU#PABADTYP-C
     1872     2409        MESSAGE: Error: The record type at DBK# %U2 is not a PA_REC
     1873     2410                        for the set "%U1".  %U3 aborted.
     1874     2411                        Run REBUILD PA to reconstruct this set. */
     1875     2412        /*E*  ERROR: ZIU-DBU#PANONPA-C
     1876     2413        MESSAGE: Error: The record at DBK# %U2 is not a *PA_REC_%U1.
     1877     2414                        The set is either not in PA mode or is broken.
     1878     2415                        In latter case, run REBUILD PA to fix the set.
     1879     2416                        CONVERT TO CHAIN aborted. */
     1880     2417        /*E*  ERROR: ZIU-DBU#PAERROR5-C
     1881     2418        MESSAGE: Error in READ/WRITE on the IDS page# %U2
     1882     2419                       of area "%U1".  %U3 aborted. */
     1883     2420        /*E*  ERROR: ZIU-DBU#PABUFER1-C
     1884     2421        MESSAGE: All buffers are locked; the
     1885     2422                                     set name is "%U1", owner DBK# is %U3 and
     1886     2423                                     number of PA levels is %U2.
     1887     2424                 <<<< SOFTWARE ERROR >>>>  */
     1888     2425        /*E*  ERROR: ZIU-DBU#PABUFER2-C
     1889     2426        MESSAGE: There is a buffer locked while a final
     1890     2427                          cleanup is performed. This is a warning.
     1891     2428                          Set name at error is "%U1" and owner DBK# is %U2.
     1892     2429                 <<<< SOFTWARE ERROR >>>>  */
     1893     2430        /*E*  ERROR: ZIU-DBU#PAOUTAC-C
     1894     2431        MESSAGE: Error: The set "%U1" has a pointer %U3 to a *PA_REC
     1895     2432                        but it is out of the area's bound where the
     1896     2433                        current owner DBK# %U2 resides.
     1897     2434                        The set is either broken or you tried to CONV_TO_CHAIN a
     1898     2435                        set that is already in chained mode. */
PL6.E3A0      #005=FIND_DIRECT File=ZIU$COMPACT.:ZIC0TSI                         FRI 09/05/97 13:11 Page:355
     1899     2436        %EJECT;
PL6.E3A0      #005=FIND_DIRECT File=ZIU$COMPACT.:ZIC0TSI                         FRI 09/05/97 13:11 Page:356
     1900     2437    1   FLUSH_PAGES: ENTRY;

   2437  2 001004   000000 700200 xent  FLUSH_PAGES  TSX0  ! X66_STATIC_2
         2 001005   000000 000002 0                  ZERO    0,2

     1901     2438
     1902     2439    2       DO BUF_PTR=0 TO POOL_MAX-1;

   2439  2 001006   000000 450000 xsym               STZ     BUF_PTR
         2 001007   001016 710000 2                  TRA     s:2442+1

     1903     2440    2           IF POOL.MUST_WRITE(BUF_PTR) THEN

   2440  2 001010   000000 720000 xsym               LXL0    BUF_PTR
         2 001011   000010 234010 0                  SZN     POOL,X0
         2 001012   001015 605000 2                  TPL     s:2442

     1904     2441    2               CALL WRITE_A_PAGE ALTRET(WRIT_ERR);

   2441  2 001013   001026 701000 2                  TSX1    WRITE_A_PAGE
         2 001014   000757 702000 2                  TSX2    WRIT_ERR

     1905     2442    2           END;

   2442  2 001015   000000 054000 xsym               AOS     BUF_PTR
         2 001016   000000 236000 xsym               LDQ     BUF_PTR
         2 001017   000006 116000 0                  CMPQ    POOL_MAX
         2 001020   001010 604000 2                  TMI     s:2440

     1906     2443    1       POOL_MAX = 0; /* RESET COUNT */

   2443  2 001021   000006 450000 0                  STZ     POOL_MAX

     1907     2444    1       SWAP_PTR = -1; /* RESET POINTERS */

   2444  2 001022   000001 335007                    LCA     1,DL
         2 001023   000007 755000 0                  STA     SWAP_PTR
PL6.E3A0      #005=FIND_DIRECT File=ZIU$COMPACT.:ZIC0TSI                         FRI 09/05/97 13:11 Page:357

     1908     2445    1       RETURN;

   2445  2 001024   000000 221200 0                  LDX1  ! 0
         2 001025   000001 702211                    TSX2  ! 1,X1

     1909     2446
     1910     2447    1   WRITE_A_PAGE: PROC ALTRET;

   2447  2 001026   000150 741200 0     WRITE_A_PAGE STX1  ! POOL+96

     1911     2448
     1912     2449    2       IF POOL.LOCKS(BUF_PTR)>0 THEN

   2449  2 001027   000000 720000 xsym               LXL0    BUF_PTR
         2 001030   000010 236010 0                  LDQ     POOL,X0
         2 001031   377400 316003                    CANQ    130816,DU
         2 001032   001053 600000 2                  TZE     s:2455

     1913     2450    3       DO;

     1914     2451    3           CALL BIN_CHAR(1,CURR_OWNER);

   2451  2 001033   000041 630400 3                  EPPR0   33
         2 001034   000001 631400 3                  EPPR1   1
         2 001035   000000 701000 xent               TSX1    BIN_CHAR
         2 001036   000000 011000                    NOP     0

     1915     2452    3           CALL ERROR_MSG(DBU#PABUFER2,SC_TBL.NAME(SC_PTR));

   2452  2 001037   000000 236000 xsym               LDQ     SC_PTR
         2 001040   000011 402000 3                  MPY     9
         2 001041   000010 036000 3                  ADLQ    8
         2 001042   000053 235000 3                  LDA     43
         2 001043   000152 757000 0                  STAQ    POOL+98
         2 001044   000152 630400 0                  EPPR0   POOL+98
         2 001045   000001 631400 3                  EPPR1   1
PL6.E3A0      #005=FIND_DIRECT File=ZIU$COMPACT.:ZIC0TSI                         FRI 09/05/97 13:11 Page:358
         2 001046   000000 701000 xent               TSX1    ERROR_MSG
         2 001047   000000 011000                    NOP     0

     1916     2453    3           POOL.LOCKS(BUF_PTR)=0;

   2453  2 001050   000000 720000 xsym               LXL0    BUF_PTR
         2 001051   000020 236000 3                  LDQ     16
         2 001052   000010 356010 0                  ANSQ    POOL,X0

     1917     2454    3           END;

     1918     2455    2       DATA$=ADDR(I_O_BUF(BUF_PTR));

   2455  2 001053   000000 236000 xsym               LDQ     BUF_PTR
         2 001054   000034 736000                    QLS     28
         2 001055   000000 036000 xsym               ADLQ    I_O_BUF$
         2 001056   000000 756000 xsym               STQ     DATA$

     1919     2456    2       IF AC_TBL.CHECKSUM(AC_PTR) THEN

   2456  2 001057   000000 236000 xsym               LDQ     AC_PTR
         2 001060   000014 402007                    MPY     12,DL
         2 001061   000013 236006 xsym               LDQ     AC_TBL+11,QL
         2 001062   000400 316007                    CANQ    256,DL
         2 001063   001072 600000 2                  TZE     s:2461

     1920     2457    3       DO;

     1921     2458    3           CALL CHKSUM;

   2458  2 001064   000023 631400 3                  EPPR1   19
         2 001065   000000 701000 xent               TSX1    CHKSUM
         2 001066   000000 011000                    NOP     0

     1922     2459    3           DATA_PG.CHKSUM_WD=ICHKSUM;

   2459  2 001067   000000 470400 xsym               LDP0    DATA$
PL6.E3A0      #005=FIND_DIRECT File=ZIU$COMPACT.:ZIC0TSI                         FRI 09/05/97 13:11 Page:359
         2 001070   000000 235000 xsym               LDA     ICHKSUM
         2 001071   000002 755100                    STA     2,,PR0

     1923     2460    3           END;

     1924     2461    2       DCBSF = AC_TBL.DCB#(AC_PTR);

   2461  2 001072   000000 236000 xsym               LDQ     AC_PTR
         2 001073   000014 402007                    MPY     12,DL
         2 001074   000013 720006 xsym               LXL0    AC_TBL+11,QL
         2 001075   000377 360003                    ANX0    255,DU
         2 001076   000000 740000 xsym               STX0    DCBSF

     1925     2462    2       FULLSF = %YES#;

   2462  2 001077   400000 236003                    LDQ     -131072,DU
         2 001100   000000 756000 xsym               STQ     FULLSF

     1926     2463    2       KEYSF = %YES#;

   2463  2 001101   000000 756000 xsym               STQ     KEYSF

     1927     2464    2       KEYVSF.LEN =4;

   2464  2 001102   004000 236003                    LDQ     2048,DU
         2 001103   000000 552040 xsym               STBQ    KEYVSF,'40'O

     1928     2465    2       KEYVSF.IDSKEY = POOL.PAGE#(BUF_PTR);

   2465  2 001104   000000 721000 xsym               LXL1    BUF_PTR
         2 001105   000000 636011                    EAQ     0,X1
         2 001106   000022 732000                    QRS     18
         2 001107   000044 402007                    MPY     36,DL
         2 001110   000000 116003                    CMPQ    0,DU
         2 001111   001113 605000 2                  TPL     s:2465+7
         2 001112   000044 036003                    ADLQ    36,DU
         2 001113   003000 061406                    CSR     bolr='003'O
PL6.E3A0      #005=FIND_DIRECT File=ZIU$COMPACT.:ZIC0TSI                         FRI 09/05/97 13:11 Page:360
         2 001114   000010 210032 0                  BDSC    POOL,Q                   by=1,bit=1,n=26
         2 001115   000000 200044 xsym               BDSC    KEYVSF                   by=1,bit=0,n=36

     1929     2466    2       BUFLNSF = 4096;

   2466  2 001116   010000 235007                    LDA     4096,DL
         2 001117   000000 755000 xsym               STA     BUFLNSF

     1930     2467    2       BUFSF = VECTOR(I_O_BUF(BUF_PTR));

   2467  2 001120   000054 235000 3                  LDA     44
         2 001121   000000 236000 xsym               LDQ     BUF_PTR
         2 001122   000034 736000                    QLS     28
         2 001123   000000 036000 xsym               ADLQ    I_O_BUF$
         2 001124   000000 755000 xsym               STA     BUFSF
         2 001125   000001 756000 xsym               STQ     BUFSF+1

     1931     2468    2       AC_TBL.PAGE_WRITTEN(AC_PTR)='1'B; /* MARK AREA UPDATED */

   2468  2 001126   000000 236000 xsym               LDQ     AC_PTR
         2 001127   000014 402007                    MPY     12,DL
         2 001130   000000 622006                    EAX2    0,QL
         2 001131   000200 236003                    LDQ     128,DU
         2 001132   000013 256012 xsym               ORSQ    AC_TBL+11,X2

     1932     2469    2       CALL SYS_FUNC_WRIT ALTRET(ALT);

   2469  2 001133   000023 631400 3                  EPPR1   19
         2 001134   000000 701000 xent               TSX1    SYS_FUNC_WRIT
         2 001135   001140 702000 2                  TSX2    ALT

     1933     2470    2       RETURN;

   2470  2 001136   000150 221200 0                  LDX1  ! POOL+96
         2 001137   000001 702211                    TSX2  ! 1,X1

     1934     2471    2   ALT: ALTRETURN;
PL6.E3A0      #005=FIND_DIRECT File=ZIU$COMPACT.:ZIC0TSI                         FRI 09/05/97 13:11 Page:361

   2471  2 001140   000150 221200 0     ALT          LDX1  ! POOL+96
         2 001141   000000 702211                    TSX2  ! 0,X1

POOL
 Sect OctLoc
   0     010   ****** ******   ****** ******   ****** ******   ****** ******    ................

(unnamed)
 Sect OctLoc
   0     150   ****** ******   ****** ******   ****** ******   ****** ******    ................

(unnamed)
 Sect OctLoc
   3     000   000377 777777   000002 000000   000000 000001   000002 006000    ................
   3     004   000000 000002   000004 006000   000000 006000   000000 021763    ................
   3     010   000000 006000   000007 200000   000007 006000   000003 000000    ................
   3     014   000000 006000   000005 006000   000002 006000   377777 777777    ................
   3     020   400377 777777   000001 777776   777777 777777   000000 000000    ................
   3     024   000007 600000   000005 400000   000000 022000   000026 006000    ................
   3     030   000004 000000   000000 021754   000000 006014   000000 006000    ................
   3     034   000031 006000   000000 021742   000035 006000   000000 021740    ................
   3     040   000037 006000   000002 006000   000000 006000   000000 022001    ................
   3     044   000043 006000   000002 006000   000000 006000   000000 021736    .#..............
   3     050   000003 406000   000047 006000   000000 021764   000052 006000    .....'.......*..
   3     054   001777 777640                                                    ....
     1935     2472    2   END WRITE_A_PAGE;
     1936     2473
     1937     2474    1   END FIND_DIRECT;
     1938     2475        %EOD;

PL6.E3A0      #005=FIND_DIRECT File=ZIU$COMPACT.:ZIC0TSI                         FRI 09/05/97 13:11 Page:362
--  Include file information  --

   CP_6_SUBS.:LIB_E05  is referenced.
   ZI_ERRORS_SUBS.:ZIC0TOU  is referenced.
   ZI_PRSE_SUBS.:ZIC0TOU  is referenced.
   ZI$PG_STRUCTS.:ZIC0TOU  is referenced.
   ZI_GLOBAL_DBUTIL.:ZIC0TOU  is referenced.
   ZI$DIR.:ZIC0TOU  is referenced.
   ZI_DBU_XREF.:ZIC0TOU  cannot be made into a system file and is referenced.
   B$JIT_C.:E05TOU  was found in the system file and is never referenced.
   CP_6_C.:E05TOU  was found in the system file and is never referenced.
      No diagnostics issued in procedure FIND_DIRECT.

   Procedure FIND_DIRECT requires 610 words for executable code.
   Procedure FIND_DIRECT is declared NOAUTO and requires 112 words of local(STATIC) storage.
PL6.E3A0      #005=FIND_DIRECT File=ZIU$COMPACT.:ZIC0TSI                         FRI 09/05/97 13:11 Page:363
          *** CROSS REFERENCE LISTING ***
**     DENOTES     IDENTIFIER DEFINITION
<<                 IDENTIFIER'S VALUE SET
>>                 IDENTIFIER'S VALUE USED
<>                 IDENTIFIER SET AND/OR USED
--                 IDENTIFIER REFERENCED
PL6.E3A0      #005=FIND_DIRECT File=ZIU$COMPACT.:ZIC0TSI                         FRI 09/05/97 13:11 Page:364
          MINI XREF LISTING

AC_PTR
       245**DCL      2262>>ASSIGN   2262>>ASSIGN   2262>>ASSIGN   2263>>ASSIGN   2263>>ASSIGN   2265>>IF
      2298>>ASSIGN   2396>>CALL     2456>>IF       2461>>ASSIGN   2468>>ASSIGN
AC_TBL.BASE_DBK
       250**DCL      2262>>ASSIGN   2263>>ASSIGN
AC_TBL.CHECKSUM
       259**DCL      2456>>IF
AC_TBL.DCB#
       260**DCL      2298>>ASSIGN   2461>>ASSIGN
AC_TBL.LPP
       255**DCL      2262>>ASSIGN   2262>>ASSIGN   2263>>ASSIGN
AC_TBL.NAME
       254**DCL      2396<>CALL
AC_TBL.NUM_DBPG
       253**DCL      2265>>IF
AC_TBL.PAGE_WRITTEN
       256**DCL      2468<<ASSIGN
ALT IN PROCEDURE WRITE_A_PAGE
      2471**LABEL    2469--CALLALT
BAD_TYPE
      2368**LABEL    2312--GOTO
BIN_CHAR
      1011**DCL-ENT  2280--CALL     2281--CALL     2370--CALL     2379--CALL     2384--CALL     2389--CALL
      2390--CALL     2395--CALL     2451--CALL
BREAK_CLEANUP
        27**DCL      2387>>UNWIND
BUFLNSF
       771**DCL      2466<<ASSIGN
BUFSF
       772**DCL      2467<<ASSIGN
BUF_PTR
      1026**DCL      2267<<DOINDEX  2268>>IF       2274<<ASSIGN   2275>>DOWHILE  2275>>DOWHILE  2276<<ASSIGN
PL6.E3A0      #005=FIND_DIRECT File=ZIU$COMPACT.:ZIC0TSI                         FRI 09/05/97 13:11 Page:365
      2276>>ASSIGN   2278>>IF       2287>>ASSIGN   2289>>ASSIGN   2290>>IF       2295<<ASSIGN   2299<>CALL
      2300>>ASSIGN   2301>>ASSIGN   2302>>ASSIGN   2305>>ASSIGN   2315>>ASSIGN   2315>>ASSIGN   2316>>ASSIGN
      2319>>ASSIGN   2439<<DOINDEX  2440>>IF       2449>>IF       2453>>ASSIGN   2455>>ASSIGN   2465>>ASSIGN
      2467>>ASSIGN
CHAR_V
      1032**DCL      2363<<ASSIGN
CHAR_V.REC
      1033**DCL      2359<<ASSIGN   2359>>ASSIGN
CHKSUM
      1013**DCL-ENT  2458--CALL
COMMAND_TEXT
      1028**DCL      2374<>CALL     2381<>CALL     2396<>CALL
COUNTSF
       822**DCL       823--REDEF
CURR_LEVEL.BUF_PTR
      1022**DCL      2316<<ASSIGN
CURR_LN
      1025**DCL      2263<<ASSIGN   2307>>ASSIGN   2308>>IF       2331>>IF       2334>>ASSIGN   2335>>ASSIGN
      2339>>DOWHILE  2343>>ASSIGN   2344>>ASSIGN
CURR_OWNER
      1027**DCL      2281<>CALL     2311>>IF       2380>>IF       2384<>CALL     2389<>CALL     2451<>CALL
DATA$
       992**DCL       993--IMP-PTR  2305<<ASSIGN   2307>>ASSIGN   2308>>IF       2310>>ASSIGN   2330>>ASSIGN
      2331>>IF       2334>>ASSIGN   2335>>ASSIGN   2339>>DOWHILE  2339>>DOWHILE  2341>>ASSIGN   2343>>ASSIGN
      2343>>ASSIGN   2344>>ASSIGN   2349>>DOINDEX  2350>>IF       2350>>IF       2352>>ASSIGN   2352>>ASSIGN
      2356>>ASSIGN   2356>>ASSIGN   2357>>ASSIGN   2357>>ASSIGN   2455<<ASSIGN   2459>>ASSIGN
DATA_PG.ACT_DATA
      1005**DCL      1006--REDEF    1007--REDEF    1008--REDEF
DATA_PG.ACT_DATA_18
      1006**DCL      2307>>ASSIGN
DATA_PG.CHKSUM_WD
       997**DCL      2459<<ASSIGN
DATA_PG.OFFSET
      1007**DCL      2331>>IF       2335<<ASSIGN   2339>>DOWHILE  2339>>DOWHILE  2341>>ASSIGN   2343<<ASSIGN
      2343>>ASSIGN   2344<<ASSIGN   2350>>IF       2350>>IF       2352<<ASSIGN   2352>>ASSIGN
DATA_PG.OFF_LN.FIR
PL6.E3A0      #005=FIND_DIRECT File=ZIU$COMPACT.:ZIC0TSI                         FRI 09/05/97 13:11 Page:366
      1003**DCL      2330>>ASSIGN   2334<<ASSIGN
DATA_PG.OFF_LN.SEC
      1004**DCL      2308>>IF       2349>>DOINDEX  2356>>ASSIGN
DATA_PG.PG_SZ.SEC
      1000**DCL      2356>>ASSIGN   2357<<ASSIGN   2357>>ASSIGN
DBK
        25**DCL        19--PROC     2262>>ASSIGN   2263>>ASSIGN   2311>>IF       2370<>CALL     2379<>CALL
      2380>>IF       2390<>CALL
DCBSF
       751**DCL      2298<<ASSIGN   2461<<ASSIGN
ENCRP_SEEDSF
       780**DCL       781--REDEF
ERRCODESF
       782**DCL       787--REDEF
ERROR_MSG
      1012**DCL-ENT  2282--CALL     2372--CALL     2374--CALL     2381--CALL     2385--CALL     2391--CALL
      2396--CALL     2452--CALL
FIDSF_RD
       798**DCL       799--REDEF
FIND_TYPE
        26**DCL        19--PROC     2286>>IF       2313>>IF       2318>>IF       2368>>IF       2377>>IF
FULLSF
       769**DCL      2462<<ASSIGN
HELPCODE
       816**DCL       821--REDEF
ICHKSUM
       881**DCL       882--REDEF    2459>>ASSIGN
I_O_BUF
       860**DCL      2305--ASSIGN   2455--ASSIGN   2467--ASSIGN
I_O_BUF$
       859**DCL       860--IMP-PTR  2305>>ASSIGN   2455>>ASSIGN   2467>>ASSIGN
KEYSF
       753**DCL      2463<<ASSIGN
KEYVSF
       754**DCL       759--REDEF
KEYVSF.IDSKEY
PL6.E3A0      #005=FIND_DIRECT File=ZIU$COMPACT.:ZIC0TSI                         FRI 09/05/97 13:11 Page:367
       757**DCL      2394>>ASSIGN   2465<<ASSIGN
KEYVSF.LEN
       755**DCL      2464<<ASSIGN
KEYVSF.WD_ONE
       756**DCL       757--REDEF
KEY_TBL.EIS
       237**DCL       238--REDEF
LEVEL#
      1015**DCL      2316>>ASSIGN
MSGCODE
       788**DCL       789--REDEF
NBUFS
      1044**DCL      2272>>IF       2274>>ASSIGN   2276>>ASSIGN
NO_OF_LEVELS
      1016**DCL      2280>>CALL
NO_SUCH_DBK
      2377**LABEL    2309--GOTO
OUT_OF_AC_BOUND
      2389**LABEL    2265--GOTO
PAGE_HIT
      2305**LABEL    2269--GOTO
POOL.LOCKS
      1042**DCL      2275>>DOWHILE  2301<<ASSIGN   2315<<ASSIGN   2315>>ASSIGN   2449>>IF       2453<<ASSIGN
POOL.MUST_WRITE
      1041**DCL      2290>>IF       2300<<ASSIGN   2319<<ASSIGN   2440>>IF
POOL.PAGE#
      1043**DCL      2268>>IF       2302<<ASSIGN   2465>>ASSIGN
POOL_MAX
      1038**DCL      2267>>DOINDEX  2272>>IF       2295>>ASSIGN   2296<<ASSIGN   2296>>ASSIGN   2439>>DOINDEX
      2443<<ASSIGN
RC_TBL.NXPNT_EIS
       220**DCL       221--REDEF
READ_DB
       887**DCL-ENT  2299--CALL
READ_ERR
      2394**LABEL    2299--CALLALT
PL6.E3A0      #005=FIND_DIRECT File=ZIU$COMPACT.:ZIC0TSI                         FRI 09/05/97 13:11 Page:368
REC.SIZE
      1037**DCL      2348>>ASSIGN
REC.TYPE
      1036**DCL      2311>>IF
REC$
       840**DCL       863--IMP-PTR  1034--IMP-PTR  2310<<ASSIGN   2311>>IF       2348>>ASSIGN   2359>>ASSIGN
      2359>>ASSIGN   2360<<ASSIGN   2360>>ASSIGN   2363>>ASSIGN
REC_DATA_LN
       868**DCL       867--IMP-SIZ
REC_SIZE
      1030**DCL      2348<<ASSIGN   2352>>ASSIGN   2357>>ASSIGN   2358>>ASSIGN   2359>>ASSIGN   2361>>ASSIGN
SC_PTR
       201**DCL      2282>>CALL     2311>>IF       2364>>ASSIGN   2364>>ASSIGN   2372>>CALL     2374>>CALL
      2381>>CALL     2385>>CALL     2391>>CALL     2452>>CALL
SC_TBL.COUNT
       216**DCL      2364<<ASSIGN   2364>>ASSIGN
SC_TBL.KEY_PTR
       214**DCL       215--REDEF
SC_TBL.NAME
       203**DCL      2282<>CALL     2372<>CALL     2374<>CALL     2381<>CALL     2385<>CALL     2391<>CALL
      2452<>CALL
SC_TBL.PA_TYPE
       207**DCL      2311>>IF
SWAP_PTR
      1039**DCL      2274>>ASSIGN   2275>>DOWHILE  2278>>IF       2287<<ASSIGN   2289<<ASSIGN   2444<<ASSIGN
SYS_FUNC_WRIT
       886**DCL-ENT  2469--CALL
UN_WIND
      2387**LABEL    2283--GOTO     2375--GOTO     2392--GOTO     2397--GOTO
WRITE_A_PAGE
      2447**PROC     2291--CALL     2441--CALL
WRIT_ERR
      2387**LABEL    2291--CALLALT  2441--CALLALT
X
       857**DCL      2307<<ASSIGN   2308>>IF       2310>>ASSIGN   2350>>IF       2358>>ASSIGN   2394<<ASSIGN
      2395<>CALL
PL6.E3A0      #005=FIND_DIRECT File=ZIU$COMPACT.:ZIC0TSI                         FRI 09/05/97 13:11 Page:369
Y
      1029**DCL      2330<<ASSIGN   2331>>IF       2331>>IF       2335>>ASSIGN   2339>>DOWHILE  2339>>DOWHILE
      2341<<ASSIGN   2341>>ASSIGN   2343>>ASSIGN   2344>>ASSIGN   2349<<DOINDEX  2350>>IF       2350>>IF
      2352>>ASSIGN   2352>>ASSIGN   2356<<ASSIGN   2358>>ASSIGN
Z
      1031**DCL      1033--IMP-SIZ  2262<<ASSIGN   2263>>ASSIGN   2265>>IF       2268>>IF       2299<>CALL
      2302>>ASSIGN   2358<<ASSIGN   2359>>ASSIGN   2359>>ASSIGN   2360>>ASSIGN   2361<<ASSIGN   2363>>ASSIGN
ZI$DIR.ALTKEY
       491**DCL       492--REDEF     493--REDEF
ZI$DIR.AREAFID
       457**DCL       458--REDEF
ZI$DIR.CODE
       473**DCL      2371>>IF
ZI$DIR.DATE
       496**DCL       500--REDEF
ZI$DIR.DEST_SEED
       452**DCL       453--REDEF     454--REDEF
ZI$DIR.ENCP_SEED
       449**DCL       450--REDEF     451--REDEF
ZI$DIR.REPRT_ZERO
       483**DCL       484--REDEF
ZI$DIR.SCHFID
       455**DCL       456--REDEF
ZI$DIR.TIME
       501**DCL       506--REDEF

