PL6.E3A0      #002=ZIU$PA_SORTIN File=ZIU$COMPACT.:ZIC0TSI                       FRI 09/05/97 13:10 Page:26
      124        1        /*T***********************************************************/
      125        2        /*T*                                                         */
      126        3        /*T* Copyright (c) Bull HN Information Systems Inc., 1997    */
      127        4        /*T*                                                         */
      128        5        /*T***********************************************************/
      129        6        ZIU$PA_SORTIN: PROC(SORT_REC,SORTREC_SIZE) NOAUTO ALTRET;
      130        7
      131        8    1   DCL SORTREC_SIZE UBIN; /* WE WILL DETERMINE THE SIZE */
      132        9    1   DCL 1 SORT_REC CALIGNED,
      133       10    1         2 N_PTR UBIN UNAL,
      134       11    1         2 P_PTR UBIN UNAL,
      135       12    1         2 MEMBER_DBK UBIN UNAL,
      136       13    1         2 RC_PTR UBIN BYTE UNAL,
      137       14    1         2 AC_PTR UBIN BYTE UNAL,
      138       15    1         2 SC_PTR UBIN BYTE UNAL,
      139       16    1         2 O_PTR UBIN UNAL,
      140       17    1         2 KEY_LOC CHAR(KEY_LEN) UNAL;
      141       18    1   DCL 1 STK (0:1) SYMREF ALIGNED,
      142       19    1         2 NEXT SBIN ALIGNED,
      143       20    1         2 PRIOR SBIN ALIGNED,
      144       21    1         2 CURR SBIN ALIGNED,
      145       22    1         2 RC_PTR UBIN BYTE UNAL,
      146       23    1         2 AC_PTR UBIN BYTE UNAL;
      147       24    1   DCL ENTRY_LEN SBIN STATIC SYMDEF ALIGNED;
      148       25    1   DCL NO_OF_LEVELS SBIN STATIC SYMDEF ALIGNED;
      149       26    1   DCL LEVEL# SBIN STATIC SYMDEF ALIGNED;
      150       27
      151       28    1   DCL NBUFS SBIN SYMREF ALIGNED;
      152       29    1   DCL KEY_PTR2 SBIN STATIC ALIGNED;
      153       30    1   DCL CHAR_V CHAR(PTR_LEN) BASED CALIGNED;
      154       31
      155       32    1   DCL BREAK_CLEANUP BIT(72) STATIC SYMDEF ALIGNED;
      156       33    1   DCL SYS_FUNC_READ ENTRY ALTRET;
      157       34    1   DCL SYS_FUNC_ERRMSG ENTRY ALTRET;
      158       35    1   DCL SYS_FUNC_CLOS ENTRY ALTRET;
      159       36    1   DCL SYS_FUNC_RELDCB ENTRY ALTRET;
      160       37    1   DCL SYS_FUNC_CHECK ENTRY ALTRET;
PL6.E3A0      #002=ZIU$PA_SORTIN File=ZIU$COMPACT.:ZIC0TSI                       FRI 09/05/97 13:10 Page:27
      161       38    1   DCL SYS_FUNC_WRIT ENTRY ALTRET;
      162       39
      163       40    1   DCL FLUSH_PAGES ENTRY;
      164       41    1   DCL GET_DCB ENTRY(1) ALTRET;
      165       42    1   DCL ZIU$DBAMP ENTRY;
      166       43    1   DCL PRFR SBIN WORD SYMREF ALIGNED; /*  SOURCE EIS  FOR ZIU$DBAMP */
      167       44    1   DCL PRFR2 SBIN WORD SYMREF ALIGNED; /* DEST EIS FOR ZIU$DBAMP */
      168       45    1   DCL REC2$ PTR SYMREF ALIGNED;
      169       46
      170       47        %INCLUDE ZI$PG_STRUCTS;
      171      150         %ATBLK_PG;
      172      206         %DATA_PG;
      173      225        %INCLUDE ZI_DBU_XREF;
      174      392         %XREF_TBLS;
      175      467         %PA_XREF_TBLS;
      176      533        %INCLUDE ZI_GLOBAL_DBUTIL;
      177      711         %SYS_FUNC;
      178      803         %MISC_DCLS;
      179      856         %PAREC(STCLASS=SYMREF);
      180      883        %INCLUDE ZI$DIR;
      181     1040         %DIR;
      182     1184        %INCLUDE ZI_PRSE_SUBS;
      183     1340        %INCLUDE CP_6;
      184     1421        %INCLUDE CP_6_SUBS;
      185     1961         %B$EXCFR;
      186     1979         %B$TCB;
      187     1982
      188     1983        %EQU LOCK_BUF = 2;
      189     1984        %EQU MUST_WRITE = 1;
      190     1985        %EQU DONT_LOCK = 0;
      191     1986        %EQU DONT_ERROR = -1;
      192     1987        %FPT_WRITE(FPTN=WRITE_TEMP,KEY=KEY,NEWKEY=YES,ONEWKEY=NO,VFC=NO,
      193     1988         STCLASS="STATIC SYMDEF");
      194     2019        %INCLUDE ZI_ERRORS_SUBS;
      195     2539
      196     2540    1   DCL CHKSUM ENTRY;
      197     2541    1   DCL READ_DB ENTRY(3) ALTRET;
PL6.E3A0      #002=ZIU$PA_SORTIN File=ZIU$COMPACT.:ZIC0TSI                       FRI 09/05/97 13:10 Page:28
      198     2542    1   DCL BIN_CHAR ENTRY(2);
      199     2543    1   DCL ERROR_MSG ENTRY(4);
      200     2544    1   DCL OPEN_AREA ENTRY ALTRET;
      201     2545
      202     2546    1   DCL PA_CLEANUP ENTRY ALTRET;
      203     2547    1   DCL FIND_DIRECT ENTRY(2);
      204     2548    1   DCL ERASE_PAREC ENTRY;
      205     2549    1   DCL STORE_AN_ENTRY ENTRY(1) ALTRET;
      206     2550    1   DCL PUSH_PAENTRY ENTRY(1);
      207     2551
      208     2552    1   DCL 1 LAST(0:1) STATIC ALIGNED, /* DOUBLE BUFFER CONTROL VARIABES */
      209     2553    1         2 AC_PTR SBIN BYTE UNAL,
      210     2554    1         2 PAGES_READ UBIN BYTE UNAL,
      211     2555    1         2 RB UBIN(27) UNAL,
      212     2556    1         2 PAGES_LEFT UBIN(27) UNAL;
      213     2557    1   DCL BUF_PTR SBIN WORD STATIC ALIGNED;
      214     2558    1   DCL Y SBIN WORD STATIC ALIGNED;
      215     2559    1   DCL LOW_INDX SBIN WORD STATIC SYMDEF ALIGNED; /* USED BY COMPACT */
      216     2560    1   DCL MUST_WRITE REDEF LOW_INDX SBIN ALIGNED; /* BY SORT INPUT PROC */
      217     2561    1   DCL HIGH_INDX SBIN STATIC SYMDEF ALIGNED; /* BY COMPACT */
      218     2562    1   DCL PAGE_MODIFIED REDEF HIGH_INDX SBIN ALIGNED; /* ELSE */
      219     2563    1   DCL OWNER_CNT SBIN WORD STATIC SYMDEF ALIGNED; /* BY COMPACT ONLY */
      220     2564    1   DCL LAST_BUF REDEF OWNER_CNT SBIN ALIGNED; /* AGAIN BY SORT INPUT PROC */
      221     2565    1   DCL CURR_LN SBIN STATIC SYMDEF ALIGNED;
      222     2566    1   DCL CURR_OWNER SBIN STATIC SYMDEF ALIGNED;
      223     2567    1   DCL CURR_DBK SBIN STATIC ALIGNED;
      224     2568    1   DCL DBKEY_SORT_DCB UBIN HALF SYMREF ALIGNED;
      225     2569    1   DCL PRIOR_DBK SBIN STATIC ALIGNED;
      226     2570    1   DCL NEXT_DBK SBIN STATIC ALIGNED;
      227     2571    1   DCL 1 KEY STATIC SYMDEF ALIGNED,
      228     2572    1         2 CNT UBIN BYTE UNAL INIT(5),
      229     2573    1         2 TXT UBIN WORD UNAL,
      230     2574    1         2 RC_PTR UBIN BYTE UNAL;
      231     2575    1   DCL REC_CNT SBIN WORD SYMREF ALIGNED;
      232     2576    1   DCL POOL_MAX SBIN WORD SYMREF ALIGNED;
      233     2577    1   DCL SWAP_PTR SBIN WORD SYMREF ALIGNED;
      234     2578    1   DCL 1 POOL(0:95) SYMREF ALIGNED,
PL6.E3A0      #002=ZIU$PA_SORTIN File=ZIU$COMPACT.:ZIC0TSI                       FRI 09/05/97 13:10 Page:29
      235     2579    1         2 MUST_WRITE BIT(1) UNAL,
      236     2580    1         2 LOCKS UBIN(9) UNAL,
      237     2581    1         2 PAGE# UBIN(26) UNAL;
      238     2582    1   DCL COMMAND_TEXT CHAR(9) SYMREF ALIGNED;
      239     2583
      240     2584    1   DCL 1 CURR_LEVEL(0:31) STATIC SYMDEF ALIGNED, /* RES 32 LEVEL(HUGE) */
      241     2585    1         2 DBK UBIN WORD ALIGNED,
      242     2586    1         2 FIRST_PA UBIN WORD ALIGNED, /* DBK OF FIRST PA IN EACH LEVEL */
      243     2587    1         2 ENT_NO UBIN HALF UNAL,
      244     2588    1         2 BUF_PTR UBIN BYTE UNAL,
      245     2589    1         2 * UBIN BYTE UNAL,
      246     2590    1         2 REC$ PTR ALIGNED;
      247     2591
      248     2592
      249     2593    1   DCL OSTK$ PTR STATIC ALIGNED;
      250     2594    1   DCL PASTK$ PTR STATIC SYMDEF ALIGNED;
      251     2595    1   DCL OWNER_STK(0:0) UBIN BASED(OSTK$) ALIGNED;
      252     2596    1   DCL 1 PAENT_STK BASED CALIGNED,
      253     2597    1         2 PA_DBK UBIN CALIGNED,
      254     2598    1         2 ENT CHAR(ENTRY_LEN) CALIGNED;
      255     2599    1   DCL PAENT_STK_SIZE UBIN STATIC SYMDEF ALIGNED;
      256     2600        %EJECT;
PL6.E3A0      #002=ZIU$PA_SORTIN File=ZIU$COMPACT.:ZIC0TSI                       FRI 09/05/97 13:10 Page:30
      257     2601        /*
      258     2602              SUBR  GET_PTR - EXTRACT POINTERS FROM DATA_REC
      259     2603        */
      260     2604    1   GET_PTR: PROC(POINTER,EIS);
      261     2605
      262     2606    2   DCL POINTER UBIN WORD CALIGNED;
      263     2607    2   DCL 1 EIS ALIGNED,
      264     2608    2         2 * UBIN(3) UNAL,
      265     2609    2         2 OFST UBIN(17) UNAL,
      266     2610    2         2 * UBIN(4) UNAL,
      267     2611    2         2 SIZ UBIN(12) UNAL;
      268     2612    2   DCL PTR_TEMP SBIN STATIC ALIGNED;
      269     2613
      270     2614    2       REC2$=PINCRC(REC$,EIS.OFST);
      271     2615    2       PTR_LEN = EIS.SIZ; /* POINTER SIZE */
      272     2616
      273     2617    2   GET_PTR2: ENTRY(POINTER); /* ENTRY TO EXTRACT PRIOR AND OWNER PTRS */
      274     2618
      275     2619    2       POINTER=0; /* INIT THIS LOCATION */
      276     2620    2       PINCRC(ADDR(POINTER),4-PTR_LEN)->CHAR_V=REC2$->CHAR_V;
      277     2621         /* BASE_DBK=0 IF SET IS LOCAL, >0 IF NOT AND IS BASE_DBK OF CURR AC */
      278     2622    2       IF POINTER>0 THEN /* IF POINTER=0,IT IS UNCONNECTED */
      279     2623    2           POINTER = POINTER + BASE_DBK; /* OTHERWISE,ADJUST IT */
      280     2624    2       REC2$ = PINCRC(REC2$,PTR_LEN); /* POINTS TO PRIOR/OWNER PTRS */
      281     2625    2       RETURN;
      282     2626
      283     2627    2   STORE_PTR: ENTRY(POINTER,EIS);
      284     2628
      285     2629    2       REC2$=PINCRC(REC$,EIS.OFST);
      286     2630    2       PTR_LEN = EIS.SIZ;
      287     2631
      288     2632    2   STORE_PTR2: ENTRY(POINTER);
      289     2633
      290     2634    2       PTR_TEMP = POINTER - BASE_DBK; /* CONV TO LOCAL IF SET IS LOCAL */
      291     2635    2       REC2$->CHAR_V=PINCRC(ADDR(PTR_TEMP),4-PTR_LEN)->CHAR_V;
      292     2636    2       REC2$ = PINCRC(REC2$,PTR_LEN);
      293     2637    2   END GET_PTR;
PL6.E3A0      #002=ZIU$PA_SORTIN File=ZIU$COMPACT.:ZIC0TSI                       FRI 09/05/97 13:10 Page:31
      294     2638        %EJECT;
PL6.E3A0      #002=ZIU$PA_SORTIN File=ZIU$COMPACT.:ZIC0TSI                       FRI 09/05/97 13:10 Page:32
      295     2639        /*
      296     2640              SUBR  READ_NEXT_BLOCK  - READ A BLOCK OF PAGES WITH NO WAIT
      297     2641                    RETURN WITH AC_PTR AND DATA$ AND SET CURR_LN TO 0
      298     2642        */
      299     2643    1   READ_NEXT_BLOCK: PROC ALTRET;
      300     2644
      301     2645    2       AC_PTR = LAST.AC_PTR(BUF_PTR); /* AC THAT WAS READ LAST TIME */
      302     2646    2       RB = LAST.RB(BUF_PTR); /* STARTING PAGE # */
      303     2647    2       LAST.RB(BUF_PTR)=RB + LAST.PAGES_READ(BUF_PTR);
      304     2648    2       RE = LAST.RB(BUF_PTR) - 1;
      305     2649    2       CURR_LN = -1;
      306     2650    2       OUT_INDX = BUF_PTR * NBUFS;
      307     2651    2       DATA$ = ADDR(I_O_BUF(OUT_INDX));
      308     2652         /* NOW SWITCH BUF_PTR TO THE NEXT BUF */
      309     2653    2       LAST_BUF = BUF_PTR; /* AND REMBER IT(IT IS TO BE PROCESSED) */
      310     2654    2       BUF_PTR = 1 - BUF_PTR; /* NOTE: BUF_PTR IS EITHER 0 OR 1 */
      311     2655         /* BUF_PTR POINT TO THE BLOCK THAT JUST FINISHED PROCESSING */
      312     2656    2       PAGE_MODIFIED=0; /* RESET FLAG */
      313     2657    2       IF MUST_WRITE=1 THEN /* HAPPEN IF WE REBUILD PA INDICES */
      314     2658    3       DO;
      315     2659    3           MUST_WRITE=0; /* RESET FLAG */
      316     2660    3           DCBSF=AC_TBL.DCB#(LAST.AC_PTR(BUF_PTR));
      317     2661    3           BUFLNSF=4096*LAST.PAGES_READ(BUF_PTR);
      318     2662    3           KEYVSF.IDSKEY=LAST.RB(BUF_PTR)-LAST.PAGES_READ(BUF_PTR);
      319     2663    3           BUFSF=VECTOR(I_O_BUF(NBUFS-OUT_INDX));
      320     2664    3           KEYSF=%YES#;
      321     2665    3           WAITSF=%YES#;
      322     2666    3           FULLSF=%YES#;
      323     2667    3           KEYVSF.LEN=4;
      324     2668    3           AC_TBL.PAGE_WRITTEN(LAST.AC_PTR(BUF_PTR))='1'B;
      325     2669    3           CALL SYS_FUNC_WRIT ALTRET(ALT);
      326     2670    3           END; /* WE MAY HAVE ERASED A BOUNCH OF PA_REC */
      327     2671    2       IF FIRST_TIME_CALLED=2 THEN
      328     2672    2           ALTRETURN; /* ALL DONE */
      329     2673    2       LAST(BUF_PTR) = LAST(LAST_BUF); /* CARRY OLD INFO OVER */
      330     2674    2       IF AC_PTR >= 0 THEN /* NOT THE FIRST READ */
      331     2675    3       DO;
PL6.E3A0      #002=ZIU$PA_SORTIN File=ZIU$COMPACT.:ZIC0TSI                       FRI 09/05/97 13:10 Page:33
      332     2676    3           DCBSF = AC_TBL.DCB#(AC_PTR);
      333     2677    3           CALL SYS_FUNC_CHECK ALTRET(ALT); /* MAKE SURE LAST IO DONE */
      334     2678    3           END;
      335     2679
      336     2680    2       IF BREAK_FLAG>0 THEN
      337     2681    2           UNWIND TO BREAK_CLEANUP;
      338     2682
      339     2683    2       IF LAST.PAGES_LEFT(LAST_BUF)=0 THEN /* DONE READING A AREA */
      340     2684    3       DO;
      341     2685    3           X = LAST.AC_PTR(LAST_BUF)+1;
      342     2686    4           DO WHILE( X<=NO_AREAS AND AC_TBL.RANGE_HIGH(X)=0);
      343     2687    4               X = X + 1;
      344     2688    4               END;
      345     2689    3           IF X > NO_AREAS THEN
      346     2690    4           DO;
      347     2691    4               FIRST_TIME_CALLED=2;
      348     2692         /* MARK DONE READING DB,BUT 1 BLOCK TO PROCESS */
      349     2693    4               RETURN; /* SO NO MORE READING */
      350     2694    4               END;
      351     2695    3           LAST.AC_PTR(BUF_PTR)=X; /* NEXT READ THIS AREA */
      352     2696    3           LAST.PAGES_LEFT(BUF_PTR)=AC_TBL.RANGE_HIGH(X)-AC_TBL.RANGE_LOW(X)+1;
      353     2697    3           LAST.RB(BUF_PTR)=AC_TBL.RANGE_LOW(X);
      354     2698    3           END;
      355     2699    2       DCBSF = AC_TBL.DCB#(LAST.AC_PTR(BUF_PTR));
      356     2700
      357     2701    2       IF LAST.PAGES_LEFT(BUF_PTR) > NBUFS THEN
      358     2702    3       DO;
      359     2703    3           LAST.PAGES_READ(BUF_PTR)=NBUFS; /* READ A FULL BLOCK */
      360     2704    3           LAST.PAGES_LEFT(BUF_PTR)=LAST.PAGES_LEFT(BUF_PTR)-NBUFS;
      361     2705    3           END;
      362     2706    2       ELSE
      363     2707    3       DO;
      364     2708    3           LAST.PAGES_READ(BUF_PTR)=LAST.PAGES_LEFT(BUF_PTR);
      365     2709    3           LAST.PAGES_LEFT(BUF_PTR)=0;
      366     2710    3           END;
      367     2711    2       BUFLNSF = 4096 * LAST.PAGES_READ(BUF_PTR);
      368     2712    2       KEYSF = %YES#;
PL6.E3A0      #002=ZIU$PA_SORTIN File=ZIU$COMPACT.:ZIC0TSI                       FRI 09/05/97 13:10 Page:34
      369     2713    2       KEYVSF.LEN = 4;
      370     2714    2       KEYVSF.IDSKEY = LAST.RB(BUF_PTR);
      371     2715    2       FULLSF = %YES#;
      372     2716    2       WAITSF = %NO#; /* NO WAIT */
      373     2717    2       BUFSF = VECTOR(I_O_BUF(NBUFS-OUT_INDX));
      374     2718
      375     2719    2       CALL SYS_FUNC_READ ALTRET(ALT);
      376     2720
      377     2721    2       RETURN;
      378     2722    2   ALT: UNWIND TO BREAK_CLEANUP;
      379     2723    2   END READ_NEXT_BLOCK;
      380     2724        %EJECT;
PL6.E3A0      #002=ZIU$PA_SORTIN File=ZIU$COMPACT.:ZIC0TSI                       FRI 09/05/97 13:10 Page:35
      381     2725    1       IF FIRST_TIME_CALLED=0 THEN /* YES! */
      382     2726    2       DO;
      383     2727    2           FIRST_TIME_CALLED = 1; /* RESET SWITCH */
      384     2728    3           DO X=0 TO NO_SETS;
      385     2729    3               SC_TBL.COUNT(X)=0; /* INIT COUNTER BEFORE START */
      386     2730    3               END;
      387     2731    2           BUF_PTR = 1;
      388     2732    2           MUST_WRITE=0; /* MARK NO NEED TO WRITE LAST BLOCK,CAUSE NO SUCH */
      389     2733    2           LAST.AC_PTR(1) = -1;
      390     2734    2           LAST.PAGES_LEFT(1) = 0; /* MAKE A PSUDO READ PENDING */
      391     2735    2           CALL READ_NEXT_BLOCK ALTRET(ALL_DONE); /* INIT THE FIRST NO-WAIT READ */
      392     2736    2           CALL READ_NEXT_BLOCK; /* START NEXT READ */
      393     2737    2           GOTO GET_NEXT_LINE;
      394     2738    2           END;
      395     2739        %EJECT;
PL6.E3A0      #002=ZIU$PA_SORTIN File=ZIU$COMPACT.:ZIC0TSI                       FRI 09/05/97 13:10 Page:36
      396     2740    1   CHECK_REC_TYPE: /* IF RC_PTR > 0 THEN WE GOT A PA_MEM */
      397     2741    1       IF RC_PTR = 0 THEN /* THIS REC IS NOT WHAT WE WANT */
      398     2742    1           GOTO GET_NEXT_LINE;
      399     2743    1       IF RC_PTR > 0 THEN /* FOUND A MEMBER */
      400     2744    1           GOTO FIND_A_MEMBER;
      401     2745    1       GOTO ERASE_IT; /* FOUND A PA_REC TO BE ERASED */
      402     2746    1   GET_NEXT_LINE:
      403     2747    1       CURR_LN = CURR_LN + 1;
      404     2748    1       IF CURR_LN > DATA_PG.OFF_LN.SEC THEN
      405     2749    1           GOTO GET_NEXT_PAGE;
      406     2750    1       X = DATA_PG.ACT_DATA_18(2035-CURR_LN); /* X = OFFSET */
      407     2751    1       IF X<12 THEN /* NO RECORD THERE */
      408     2752    1           GOTO GET_NEXT_LINE;
      409     2753    1       REC$ = PINCRC(DATA$,12+X);
      410     2754    1       RC_PTR = TYPE.MSTRINDX(REC_FRMT.TYPE);
      411     2755    1       GOTO CHECK_REC_TYPE;
      412     2756    1   GET_NEXT_PAGE:
      413     2757    1       IF PAGE_MODIFIED=1 AND AC_TBL.CHECKSUM(AC_PTR) THEN
      414     2758    2       DO;
      415     2759    2           CALL CHKSUM;
      416     2760    2           DATA_PG.CHKSUM_WD=ICHKSUM;
      417     2761    2           END;
      418     2762    1       IF RB = RE THEN
      419     2763    1           CALL READ_NEXT_BLOCK ALTRET(ALL_DONE);
      420     2764    2       ELSE DO;
      421     2765    2           CURR_LN = -1;
      422     2766    2           RB = RB + 1;
      423     2767    2           DATA$ = PINCRW(DATA$,1024);
      424     2768    2           END;
      425     2769    1       PAGE_MODIFIED=0;
      426     2770    1       GOTO GET_NEXT_LINE;
      427     2771        %EJECT;
PL6.E3A0      #002=ZIU$PA_SORTIN File=ZIU$COMPACT.:ZIC0TSI                       FRI 09/05/97 13:10 Page:37
      428     2772    1   ERASE_IT: /* ERASE A PA_REC JUST FOUND */
      429     2773    1       SC_PTR=-1*RC_PTR-1; /* PASS SC_PTR FOR SET SUMMARY REPORT */
      430     2774    1       IF ZI$DIR.CODE=#CONVERT THEN /* THE SET TO BE CONVERTED */
      431     2775    2       DO; /* IS ALREADY IN PA FORMAT */
      432     2776    2           X=(RB-1)*AC_TBL.LPP(AC_PTR)+AC_TBL.BASE_DBK(AC_PTR)+CURR_LN+1;
      433     2777    2           CALL BIN_CHAR(1,X); /* CONVERT DBK TO CHAR */
      434     2778    2           CALL ERROR_MSG(DBU#PAERRLP,SC_TBL.NAME(SC_PTR));
      435     2779    2           GOTO UN_WIND; /* ABORT THE JOB */
      436     2780    2           END;
      437     2781    1       CALL ERASE_PAREC; /* PASS  DATA$,X, AND CURR_LN */
      438     2782    1       MUST_WRITE=1; /* LOCAL AND GLOBAL */
      439     2783    1       PAGE_MODIFIED=1; /* SET FLAG */
      440     2784    1       GOTO GET_NEXT_LINE;
      441     2785
      442     2786    1   ALL_DONE:
      443     2787    1       SORTREC_SIZE = 0;
      444     2788    1       CALL INIT_CNTL_VARIABLES ALTRET(ALT_OPEN); /* MOSTLY BUF CONTROL */
      445     2789    1       ALTRETURN; /* DONE WITH SORTIN PROCEDURE */
      446     2790        %EJECT;
PL6.E3A0      #002=ZIU$PA_SORTIN File=ZIU$COMPACT.:ZIC0TSI                       FRI 09/05/97 13:10 Page:38
      447     2791        /*E*  ERROR: ZIU-DBU#PAERRLP-C
      448     2792        MESSAGE: Error: The set "%U1" you want to convert to PA seems to be
      449     2793                        a PA set already because a *PA_REC for that set
      450     2794                        is found at DBK# %U2.  CONVERT aborted.
      451     2795                        Be careful on this directive, you must explicitly
      452     2796                        specify all the set names to be converted
      453     2797                        and exclude those sets already in PA mode. */
      454     2798
      455     2799        /*E*  ERROR: ZIU-DBU#PASUM9-C
      456     2800        MESSAGE:+
      457     2801                +  There were %U2 *PA_REC_%U1 erased before REBUILDing.
      458     2802                +     */
      459     2803        /*E*  ERROR: ZIU-DBU#PAPACH1-C
      460     2804        MESSAGE: The above I/O error occurs when writing a pointer-patch
      461     2805                 record for the tenant of the set "%U1" at DBK# %U2.
      462     2806                 The set may be broken. %U3 aborted. */
      463     2807        %EJECT;
PL6.E3A0      #002=ZIU$PA_SORTIN File=ZIU$COMPACT.:ZIC0TSI                       FRI 09/05/97 13:10 Page:39
      464     2808        /*
      465     2809              SUBR    INIT_CNTL_VARIABLES
      466     2810                      THE PATCH FILE IS A KEYED FILE WITH FIXED REC SIZE
      467     2811                      CONTAINING ONLY DBK,NEW_PTR,AC,RC OF SOME SET TENANTS
      468     2812        */
      469     2813    1   INIT_CNTL_VARIABLES: PROC ALTRET;
      470     2814
      471     2815    2       POOL_MAX= 0; /* BUF CONTROL VARIABLE */
      472     2816    2       SWAP_PTR = -1; /* BUF CONTROL VARIABLE */
      473     2817    2       CURR_OWNER = 0; /* AND INIT SOME OTHER COUNTERS */
      474     2818    3       DO SC_PTR=0 TO NO_SETS;
      475     2819    3           IF ZI$DIR.CODE=#REVERT THEN
      476     2820    3               SC_TBL.COUNT2(SC_PTR)=0;
      477     2821    3           X = SC_TBL.COUNT(SC_PTR); /* SEE IF ANY *PA_REC ERASED */
      478     2822    3           IF X~=0 THEN
      479     2823    4           DO;
      480     2824    4               SC_TBL.COUNT(SC_PTR)=0; /* RESET TO 0 */
      481     2825    4               CALL BIN_CHAR(1,X); /* CONVERT X TO CHAR */
      482     2826    4               IF ZI$DIR.CODE~=#COMPACT AND ZI$DIR.CODE~=#REVERT THEN
      483     2827    4                   CALL ERROR_MSG(DBU#PASUM9,SC_TBL.NAME(SC_PTR));
      484     2828    4               END;
      485     2829    3           END;
      486     2830    2   END INIT_CNTL_VARIABLES;
      487     2831        %EJECT;
PL6.E3A0      #002=ZIU$PA_SORTIN File=ZIU$COMPACT.:ZIC0TSI                       FRI 09/05/97 13:10 Page:40
      488     2832    1   FIND_A_MEMBER:
      489     2833        /*
      490     2834              NOW, A PA-MEMBER IS FOUND IN THE AREA.
      491     2835                   WE SHALL VERIFY ITS SIZE FIRST FOR SECURITY REASON
      492     2836              NOTE: THIS PA-MEMBER MAY BE A MEMBER FOR MORE THAN
      493     2837                    ONE POINTER  ARRAY SETS. IT IS REFLECTED IN THE LINKED LIST
      494     2838                    I.E. WHEN RC_TBL.NEXT FOR A REC IS NON-ZERO THEN THERE
      495     2839                    IS MORE THAN ONE RS(FOR PA) FOR THIS REC
      496     2840              SO WE WILL GET A RS AND RETRIEVE THE SORTED KEY TO MOVE
      497     2841                 TO SORT_REC.
      498     2842        */
      499     2843    1       SORT_REC.RC_PTR=RC_PTR;
      500     2844    1       SC_PTR = RC_TBL.SC_PTR(RC_PTR);
      501     2845    1       SORT_REC.SC_PTR=SC_PTR; /* PASS TO SORT */
      502     2846    1       SORT_REC.AC_PTR=AC_PTR;
      503     2847    1       IF SC_TBL.GLOBAL(SC_PTR)=0 THEN /* SET IS LOCAL */
      504     2848    1           BASE_DBK = AC_TBL.BASE_DBK(AC_PTR);
      505     2849    1       ELSE
      506     2850    1           BASE_DBK = 0; /* FOR GLOBAL SET DONT ADJUST POINTERS */
      507     2851         /* NOW EXTRACT THE NEXT,PRIOR AND OWNER PTRS FROM MEMBER */
      508     2852    1       CALL GET_PTR(SORT_REC.N_PTR,RC_TBL.NXPNT_EIS(RC_PTR));
      509     2853    1       IF ZI$DIR.CODE ~= #REBUILDPA THEN /* PRIOR PTR EXISTS */
      510     2854    1           CALL GET_PTR2(SORT_REC.P_PTR);
      511     2855    1       CALL GET_PTR2(SORT_REC.O_PTR); /* ALL GET OWNER POINTER */
      512     2856    1       IF ZI$DIR.CODE = #CONVERT THEN /* ZERO NEXT PTR */
      513     2857    1           SORT_REC.N_PTR=0; /* SO THAT ALL MEMBERS WILL BE UPDATED */
      514     2858    1       SORT_REC.MEMBER_DBK=(RB-1)*AC_TBL.LPP(AC_PTR)+
      515     2859    1          AC_TBL.BASE_DBK(AC_PTR)+CURR_LN+1;
      516     2860    1       IF SORT_REC.O_PTR = 0 THEN /* REC NOT CONNECTED */
      517     2861    2       DO;
      518     2862    2           IF SUBSTR(COMMAND_TEXT,0,4)='CONV' THEN
      519     2863    3           DO;
      520     2864    3               STK.NEXT(1)=0;
      521     2865    3               STK.PRIOR(1)=0;
      522     2866    3               KEY.TXT = SORT_REC.MEMBER_DBK;
      523     2867    3               KEY.RC_PTR = RC_PTR;
      524     2868    3               CALL M$WRITE(WRITE_TEMP) ALTRET(WRIT_ERR);
PL6.E3A0      #002=ZIU$PA_SORTIN File=ZIU$COMPACT.:ZIC0TSI                       FRI 09/05/97 13:10 Page:41
      525     2869    3               REC_CNT=REC_CNT+1;
      526     2870    3               END; /* ALTHOUGH UNCONNECTED, WE HAVE TO CONVERT THE SIZE */
      527     2871    2           IF RC_TBL.MANUAL(RC_PTR)=0 THEN /* SM IS NOT MANUAL */
      528     2872    3           DO; /* GIVE A WARNING MSG AND SKIP THIS RS */
      529     2873    3               CALL BIN_CHAR(1,SORT_REC.MEMBER_DBK);
      530     2874    3               CALL ERROR_MSG(DBU#UNCMEM,SC_TBL.NAME(SC_PTR));
      531     2875    3               END;
      532     2876    2           RC_PTR = RC_TBL.RC_NEXT(RC_PTR);
      533     2877    2           GOTO CHECK_REC_TYPE;
      534     2878         /*E* ERROR: ZIU-DBU#UNCMEM-C
      535     2879                 MESSAGE: Warning: Unconnected member of non-manual set "%U1" at DBK# %U2
      536     2880                                  found and ignored. Run REPAIR package to have it fixed. */
      537     2881    2           END;
      538     2882
      539     2883        /*    NOW MOVE KEYS IN DATA RECORD TO SORT_REC   */
      540     2884
      541     2885    1       REC2$ = ADDR(SORT_REC.KEY_LOC); /* DESTINATION PTR */
      542     2886    1       KEY_PTR=RC_TBL.KEY_PTR(RC_PTR);
      543     2887    1       KEY_LEN = SC_TBL.PA_KEYSIZE(SC_PTR);
      544     2888    1       IF SC_TBL.SETYPE(SC_PTR)=0 THEN /* SET IS PA */
      545     2889    2       DO;
      546     2890    2           SORT_REC.KEY_LOC=' '; /* INIT WITH BLANKS */
      547     2891    2           KEY_PTR2 = SC_TBL.KEY_PTR(SC_PTR);
      548     2892    3           DO X=0 TO SC_TBL.NO_OF_KEYS(SC_PTR)-1;
      549     2893    3               PRFR = KEY_TBL.EIS(KEY_PTR);
      550     2894    3               PRFR2 = KEY_TBL.EIS(KEY_PTR2);
      551     2895    3               CALL ZIU$DBAMP; /* MOVE PA SORT KEYS FROM REC TO SORT_REC */
      552     2896    3               KEY_PTR=KEY_PTR+1;
      553     2897    3               KEY_PTR2=KEY_PTR2+1;
      554     2898    3               END;
      555     2899    2           END;
      556     2900    1       ELSE /* REGULAR SORTED SETS */
      557     2901    2       DO;
      558     2902    3           DO X=1 TO RC_TBL.NO_OF_KEYS(RC_PTR); /* EACH MEM HAS DIF #KEY */
      559     2903    3               PRFR = KEY_TBL.EIS(KEY_PTR);
      560     2904    3               PRFR2= KEY_TBL.EIS(KEY_PTR+1);
      561     2905    3               CALL ZIU$DBAMP;
PL6.E3A0      #002=ZIU$PA_SORTIN File=ZIU$COMPACT.:ZIC0TSI                       FRI 09/05/97 13:10 Page:42
      562     2906    3               KEY_PTR=KEY_PTR+2;
      563     2907    3               END;
      564     2908    2           END;
      565     2909
      566     2910    1       SORTREC_SIZE = LENGTHC(SORT_REC);
      567     2911    1       RC_PTR = RC_TBL.RC_NEXT(RC_PTR); /* GET NEXT RS */
      568     2912    1       RETURN; /* RETURN TO SORT */
      569     2913        %EJECT;
PL6.E3A0      #002=ZIU$PA_SORTIN File=ZIU$COMPACT.:ZIC0TSI                       FRI 09/05/97 13:10 Page:43
      570     2914    1   ZIU$PA_SORTOUT: ENTRY(SORT_REC,SORTREC_SIZE) ALTRET;
      571     2915
      572     2916    1       IF SORTREC_SIZE = 0 THEN /* ALL RECORDS PROCESSED */
      573     2917    2       DO;
      574     2918    2           IF CURR_OWNER > 0 THEN /* CLEAN UP LAST SC */
      575     2919    2               CALL PA_CLEANUP ALTRET(WRIT_ERR);
      576     2920    2           CALL FLUSH_PAGES; /* FLUSH ALL BUFFERS IN POOL */
      577     2921    2           GOTO COMMON_RETURN;
      578     2922    2           END;
      579     2923
      580     2924    1       IF CURR_OWNER ~= SORT_REC.O_PTR OR SC_PTR ~= SORT_REC.SC_PTR THEN
      581     2925    2       DO;
      582     2926    2           IF CURR_OWNER > 0 THEN /* SHALL CLEANUP LAST SC */
      583     2927    2               CALL PA_CLEANUP ALTRET(WRIT_ERR);
      584     2928    2           IF CURR_OWNER~=SORT_REC.O_PTR THEN /* OWNER CHANGED */
      585     2929    3           DO;
      586     2930    3               CURR_OWNER = SORT_REC.O_PTR; /* A NEW OWNER */
      587     2931    3               X=1; /* SEARCH FOR THE AC_PTR FOR THIS OWNER */
      588     2932    4               DO WHILE(CURR_OWNER>AC_TBL.BASE_DBK(X) AND X<=NO_AREAS);
      589     2933    4                   X=X+1;
      590     2934    4                   END;
      591     2935    3               IF X-1 ~= AC_PTR THEN
      592     2936    4               DO;
      593     2937    4                   CALL FLUSH_PAGES; /* AREA CHANGED */
      594     2938    4                   AC_PTR = X - 1; /* AC_PTR IS THE PROIR X */
      595     2939    4                   IF AC_TBL.DCB#(AC_PTR)=0 THEN
      596     2940    4                       CALL OPEN_AREA ALTRET(UN_WIND);
      597     2941    4                   END;
      598     2942    3               END;
      599     2943
      600     2944    2           SC_PTR = SORT_REC.SC_PTR; /* AND START WORK FROM THIS SC */
      601     2945    2           IF SC_TBL.GLOBAL(SC_PTR)=0 THEN /* SET IS LOCAL */
      602     2946    2               BASE_DBK = AC_TBL.BASE_DBK(AC_PTR);
      603     2947    2           ELSE
      604     2948    2               BASE_DBK = 0; /* FOR GLOBAL SET DONT ADJUST POINTERS */
      605     2949    2           RC_PTR = SC_TBL.RC_PTR(SC_PTR); /* PASS RC OF OWNER */
      606     2950    2           CALL FIND_DIRECT(CURR_OWNER,%DONT_LOCK); /* FIND OWNER FIRST */
PL6.E3A0      #002=ZIU$PA_SORTIN File=ZIU$COMPACT.:ZIC0TSI                       FRI 09/05/97 13:10 Page:44
      607     2951    2           IF PA_REC.TYPE~=RC_TBL.TYPE(RC_PTR) THEN
      608     2952    3           DO;
      609     2953    3               CALL BIN_CHAR(2,CURR_OWNER);
      610     2954    3               CALL ERROR_MSG(DBU#PABADOWNR,SC_TBL.NAME(SC_PTR),COMMAND_TEXT);
      611     2955    3               GOTO UN_WIND;
      612     2956    3               END;
      613     2957         /* LOAD NEXT PTR OF OWNER,LATER TO CHECK IF NEED UPDATED */
      614     2958    2           IF ZI$DIR.CODE=#CONVERT THEN
      615     2959    2               STK.NEXT(0)=0; /* WHEN CONVERTNG, OWNER MUST BE UPDATED */
      616     2960    2           ELSE
      617     2961    2               CALL GET_PTR(STK.NEXT(0),RC_TBL.NXPNT_EIS(RC_PTR));
      618     2962    2           KEY_LEN = SC_TBL.PA_KEYSIZE(SC_PTR); /* SETUP KEY_SIZE */
      619     2963    2           PTR_LEN = SC_TBL.PA_PTRSIZE(SC_PTR);
      620     2964    2           ENTRY_LEN=2+KEY_LEN+PTR_LEN;
      621     2965    2           NO_OF_LEVELS=-1; /* REBUILD PA ,SO START FROM SCRATCH */
      622     2966    2           LEVEL# = 0;
      623     2967    2           IF ZI$DIR.INSERT_DUMMY THEN /* FOR GCOS PURPOSE */
      624     2968    3           DO;
      625     2969    3               STK.CURR(1)=CURR_OWNER; /* DUMMY POINT TO OWNER */
      626     2970    3               STK.RC_PTR(1)=RC_PTR; /* PASS OWNER TYPE */
      627     2971    3               CALL STORE_AN_ENTRY ALTRET(WRIT_ERR); /* AND USE IT AS FIRST KEY */
      628     2972    3               END;
      629     2973    2           END;
      630     2974
      631     2975    1       STK(1)=SORT_REC; /* PASS MEMBER'S INFO TO STORE_AN_ENTRY */
      632     2976
      633     2977    1       CALL STORE_AN_ENTRY(SORT_REC.KEY_LOC) ALTRET(WRIT_ERR);
      634     2978
      635     2979    1       RETURN;
      636     2980
      637     2981    1   UN_WIND: UNWIND TO BREAK_CLEANUP;
      638     2982
      639     2983        /*E*  ERROR: ZIU-DBU#PABADOWNR-C
      640     2984        MESSAGE: Error: The type of the record at DBK# %U3 is not an owner
      641     2985                        for the set "%U1".  %U2 aborted.
      642     2986                        Broken set is suspected. Run REPAIR to have it fixed. */
      643     2987        %EJECT;
PL6.E3A0      #002=ZIU$PA_SORTIN File=ZIU$COMPACT.:ZIC0TSI                       FRI 09/05/97 13:10 Page:45
      644     2988        /*
      645     2989              ENTRY POINT IF COMMAND IS   COMPACT
      646     2990        */
      647     2991    1   ZIU$PA_PACK: ENTRY ALTRET;
      648     2992
      649     2993    1       CALL INIT_CNTL_VARIABLES ALTRET(ALT_OPEN); /* INIT BUF CONTROL */
      650     2994    1       OSTK$ = ADDR(I_O_BUF(2*NBUFS));
      651     2995         /*
      652     2996            I_O_BUF(0 UPTO 2*NBUFS) ARE USED BY BUFFER POOL
      653     2997            (2*NBUFS UPTO OWNER_CNT/1024+1) ARE USED TO SAVE ALL OWNER
      654     2998            (WHATEVER LEFT=2*KCNT-2*NBUFS) ARE USED TO SAVE PA ENTRIES
      655     2999         */
      656     3000    2       DO AC_PTR=0 TO NO_AREAS; /* FIRST LOOP, GO THRU AREAS */
      657     3001    2           IF AC_TBL.RANGE_HIGH(AC_PTR)>0 THEN /* OWNER IN AC */
      658     3002    3           DO;
      659     3003    3               RB=AC_TBL.RANGE_LOW(AC_PTR); /* STARTING PAGE # TO SEARCH */
      660     3004    4               DO WHILE(RB <= AC_TBL.RANGE_HIGH(AC_PTR));
      661     3005    4                   DCBSF=AC_TBL.DCB#(AC_PTR);
      662     3006    4                   OUT_INDX=AC_TBL.RANGE_HIGH(AC_PTR)-RB+1;
      663     3007    4                   IF OUT_INDX>2*NBUFS THEN /* READ 2*NBUFS PAGES AT A TIME */
      664     3008    4                       OUT_INDX=2*NBUFS;
      665     3009    4                   CALL READ_DB(0,RB,OUT_INDX) ALTRET(UN_WIND);
      666     3010    4                   OWNER_CNT=-1; /* PUSH ALL OWNER FOUND */
      667     3011    5                   DO X=0 TO OUT_INDX-1; /* LOOP THRU PAGES */
      668     3012    5                       DATA$=ADDR(I_O_BUF(X));
      669     3013    5                       POOL.PAGE#(X)=RB+X; /* UPDATE BUF CONTROL TABLE */
      670     3014    5                       POOL.LOCKS(X)=0;
      671     3015    5                       POOL.MUST_WRITE(X)='0'B;
      672     3016    6                       DO CURR_LN=0 TO DATA_PG.OFF_LN.SEC; /* LOOP THRU LINES */
      673     3017    6                           IF DATA_PG.ACT_DATA_18(2035-CURR_LN)>=12 THEN
      674     3018    7                           DO; /* FIND A RECORD, CHECK RECORD TYPE */
      675     3019    7                               REC$=PINCRC(DATA$,DATA_PG.OFFSET(2035-CURR_LN)+12);
      676     3020    7                               IF ZI$DIR.CODE=#REVERT AND KEY_PTR>=0 THEN
      677     3021    8                               DO Y=0 TO KEY_PTR;
      678     3022    8                                   RC_PTR=KEY_TBL.EIS(Y); /* ALL MANUAL RS */
      679     3023    8                                   IF RC_TBL.TYPE(RC_PTR)=PA_REC.TYPE THEN
      680     3024    9                                   DO;
PL6.E3A0      #002=ZIU$PA_SORTIN File=ZIU$COMPACT.:ZIC0TSI                       FRI 09/05/97 13:10 Page:46
      681     3025    9                                       CALL GET_PTR(STK.NEXT(1),RC_TBL.NXPNT_EIS(RC_PTR
              3025                                                ));
      682     3026    9                                       CALL GET_PTR2(STK.PRIOR(1));
      683     3027    9                                       IF STK.NEXT(1)=0 AND STK.PRIOR(1)=0 THEN
      684     3028   10                                       DO;
      685     3029   10                                           KEY.RC_PTR=RC_PTR;
      686     3030   10                                           KEY.TXT=(RB+X-1)*AC_TBL.LPP(AC_PTR)
      687     3031   10                                              +AC_TBL.BASE_DBK(AC_PTR)
      688     3032   10                                              +CURR_LN+1;
      689     3033   10                                           CALL M$WRITE(WRITE_TEMP) ALTRET(WRIT_ERR);
      690     3034   10                                           REC_CNT=REC_CNT+1;
      691     3035   10                                           END; /* PATCH RECORD FOR UNCONNECTED MEM */
      692     3036    9                                       END; /* CHK IF THIS IS MANUAL MEMBER */
      693     3037    8                                   END; /* IF ANY MANUAL MEMBER EXISTS */
      694     3038    7                               IF TYPE.MSTRINDX(PA_REC.TYPE) > 0 THEN
      695     3039    8                               DO;
      696     3040    8                                   OWNER_CNT=OWNER_CNT+1; /* FIND A OWNER */
      697     3041    8                                   OWNER_STK(OWNER_CNT)=(RB+X-1)*AC_TBL.LPP(AC_PTR)
      698     3042    8                                      +AC_TBL.BASE_DBK(AC_PTR)
      699     3043    8                                      +CURR_LN+1;
      700     3044    8                                   END;
      701     3045    7                               END;
      702     3046    6                           END;
      703     3047    5                       END;
      704     3048    4                   POOL_MAX = OUT_INDX;
      705     3049    4                   PASTK$ = PINCRW(OSTK$,OWNER_CNT+1);
      706     3050    5                   DO Y=0 TO OWNER_CNT; /* PROCESS EACH OWNER FOUND */
      707     3051    5                       CURR_OWNER=OWNER_STK(Y); /* OWNER'S DBK */
      708     3052
      709     3053    5                       IF ZI$DIR.CODE=#COMPACT THEN
      710     3054    5                           CALL COMPACT_AN_OWNER ALTRET(WRIT_ERR);
      711     3055         /* WRIT PATCH FILE */
      712     3056    5                       ELSE
      713     3057    5                           CALL REVERT_AN_OWNER ALTRET(WRIT_ERR);
      714     3058
      715     3059    5                       END;
      716     3060    4                   RB = RB+OUT_INDX; /* READ NEXT BLOCK IF ANY */
PL6.E3A0      #002=ZIU$PA_SORTIN File=ZIU$COMPACT.:ZIC0TSI                       FRI 09/05/97 13:10 Page:47
      717     3061    4                   IF OWNER_CNT > 0 THEN /* IF ANY OWNER FOUND IN LAST BLOCK */
      718     3062    4                       CALL FLUSH_PAGES; /* MAY HAVE UPDATED SOME BUF */
      719     3063    4                   END; /* DO WHILE END ALL PAGE IN AREA READ */
      720     3064    3               END;
      721     3065    2           END; /* AREA LOOP DONE */
      722     3066
      723     3067    1   COMMON_RETURN: /* ALL GO THRU HERE TO RETURN TO ZIU$COMPACT */
      724     3068
      725     3069    1       IF REC_CNT > 0 THEN /* PATCH FILE EXISTS */
      726     3070    2       DO;
      727     3071    2           DCBSF = DBKEY_SORT_DCB;
      728     3072    2           CALL SYS_FUNC_CLOS ALTRET(ALT_CLOS);
      729     3073    2           END;
      730     3074    1       RETURN;
      731     3075        %EJECT;
PL6.E3A0      #002=ZIU$PA_SORTIN File=ZIU$COMPACT.:ZIC0TSI                       FRI 09/05/97 13:10 Page:48
      732     3076        /*
      733     3077              SUBR   COMPACT_A_OWNER  -  GO THRU ALL SC WHERE CURR OWNER
      734     3078                                         IS A OWNER RECORD.
      735     3079                                         FIND FIRST_PA IN LOWEST LEVEL
      736     3080                                         PUSH ALL ENTIES TO STACK THEN START
      737     3081                                         PLUG BACK IN
      738     3082        */
      739     3083    1   COMPACT_AN_OWNER: PROC ALTRET;
      740     3084
      741     3085    2       CALL FIND_DIRECT(CURR_OWNER,%DONT_LOCK); /* FIND OWNER */
      742     3086    2       RC_PTR=TYPE.MSTRINDX(PA_REC.TYPE); /* GET RO FOR OWNER */
      743     3087    3       DO WHILE(RC_PTR > 0); /* LOOP THRU ALL SC */
      744     3088    3           SC_PTR = RC_TBL.SC_PTR(RC_PTR);
      745     3089    3           IF SC_TBL.GLOBAL(SC_PTR)=0 THEN /* SET IS LOCAL */
      746     3090    3               BASE_DBK = AC_TBL.BASE_DBK(AC_PTR);
      747     3091    3           ELSE
      748     3092    3               BASE_DBK = 0; /* FOR GLOBAL SET DONT ADJUST POINTERS */
      749     3093    3           CALL FIND_FIRST_PA(%LOCK_BUF) ALTRET(SET_EMPTY);
              3093                    /* GET 1ST PA IN LOWEST LEVEL */
      750     3094    3           KEY_LEN = SC_TBL.PA_KEYSIZE(SC_PTR);
      751     3095    3           ENTRY_LEN = KEY_LEN+PTR_LEN+2;
      752     3096    3           PAENT_STK_SIZE=(4096*(KCNT-NBUFS)*2- /* TOTAL SPARE BUF BYTES */
      753     3097    3              (OWNER_CNT+1)*4)/(ENTRY_LEN+4)-1;
      754     3098         /* LESS OWNER STK SIZE */
      755     3099    3           LOW_INDX=0; /* REINIT THE BOTTOM OF STACK */
      756     3100    3           HIGH_INDX=0; /* AND THE TOP OF STACK */
      757     3101    3           CALL PUSH_PAENTRY(NEXT_DBK); /* PASS THE DBK OF PA */
      758     3102
      759     3103    3           REC2$=PINCRC(PASTK$,6); /* FIRST POINTER LOC IN STACK */
      760     3104    3           CALL GET_PTR2(X); /* LOAD INTO X */
      761     3105    3           IF ZI$DIR.INSERT_DUMMY='0'B AND X=CURR_OWNER THEN
      762     3106    3               LOW_INDX = 1; /* SKIP STORING DUMMY */
      763     3107    3           ELSE
      764     3108    3               IF ZI$DIR.INSERT_DUMMY AND X~=CURR_OWNER THEN
      765     3109    4               DO;
      766     3110    4                   STK.CURR(1) = CURR_OWNER;
      767     3111    4                   STK.RC_PTR(1) = RC_PTR; /* PASS OWNER'S RC FOR THAT ENTRY */
PL6.E3A0      #002=ZIU$PA_SORTIN File=ZIU$COMPACT.:ZIC0TSI                       FRI 09/05/97 13:10 Page:49
      768     3112    4                   STK.NEXT(1) = NEXT_DBK; /* THE PA_REC CONTAINING THIS PTR */
      769     3113    4                   CALL STORE_AN_ENTRY ALTRET(WRIT_ERR);
      770     3114    4                   END; /* DUMMY STORED IF WANTED */
      771     3115
      772     3116    3           FIRST_TIME_CALLED=2;
      773     3117    4           DO WHILE(FIRST_TIME_CALLED>0); /* UNTIL ALL ENTRIES RESTORED */
      774     3118    4               IF LOW_INDX ~= HIGH_INDX THEN
      775     3119    5               DO; /* STACK NOT EMPTY */
      776     3120    5                   REC2$=PINCRC(PASTK$,LOW_INDX*(4+ENTRY_LEN)+4);
      777     3121    5                   PRFR = REC2$->PA_ENTRY.TYPE; /* TYPE OF MEMBER POINTED BY */
      778     3122    5                   STK.NEXT(1)=PINCRC(REC2$,-4)->PAENT_STK.PA_DBK;
      779     3123    5                   REC2$ = PINCRC(REC2$,2); /* POINT TO ENTRY.PTR */
      780     3124    5                   CALL GET_PTR2(STK.CURR(1)); /* LOAD IT INTO STK.CURR */
      781     3125         /* NOW SEARCH THE RC AND THE AC FOR THE MEMBER
      782     3126            THAT IS POINTER BY THE PA_ENTRY */
      783     3127    5                   STK.RC_PTR(1)=SC_TBL.RC_PTR(SC_PTR)+1; /* FIRST SM */
      784     3128    5                   X = 0; /* COUNTER */
      785     3129    6                   DO WHILE(X<SC_TBL.NO_OF_SM(SC_PTR) AND
      786     3130    6                      RC_TBL.TYPE(STK.RC_PTR(1))~=PRFR);
      787     3131    6                       X=X+1;
      788     3132    6                       STK.RC_PTR(1)=STK.RC_PTR(1)+1;
      789     3133    6                       END;
      790     3134    5                   IF X>=SC_TBL.NO_OF_SM(SC_PTR) THEN
      791     3135    6                   DO;
      792     3136    6                       IF LOW_INDX=0 AND STK.CURR(1)=CURR_OWNER THEN
      793     3137    6                           STK.RC_PTR(1)=SC_TBL.RC_PTR(SC_PTR); /* MUST BE DUMMY */
      794     3138    6                       ELSE
      795     3139    7                       DO;
      796     3140    7                           CALL BIN_CHAR(1,STK.NEXT(1));
      797     3141    7                           CALL ERROR_MSG(DBU#PATYPER1,SC_TBL.NAME(SC_PTR));
      798     3142    7                           UNWIND TO BREAK_CLEANUP;
      799     3143    7                           END;
      800     3144    6                       END;
      801     3145    5                   CALL STORE_AN_ENTRY(REC2$->CHAR_V) ALTRET(WRIT_ERR);
      802     3146         /* PASS KEY IN PASTK */
      803     3147    5                   LOW_INDX = MOD(LOW_INDX+1,PAENT_STK_SIZE);
      804     3148    5                   END;
PL6.E3A0      #002=ZIU$PA_SORTIN File=ZIU$COMPACT.:ZIC0TSI                       FRI 09/05/97 13:10 Page:50
      805     3149    4               ELSE
      806     3150    5               DO; /* STK IS EMPTY */
      807     3151    5                   IF HIGH_INDX=0 THEN
      808     3152    5                       X=PAENT_STK_SIZE-1; /* GET LAST ENTRY INDX */
      809     3153    5                   ELSE
      810     3154    5                       X=HIGH_INDX-1;
      811     3155    5                   NEXT_DBK=PINCRC(PASTK$,X*(4+ENTRY_LEN))->PAENT_STK.PA_DBK;
      812     3156    5                   CALL FIND_DIRECT(NEXT_DBK,%DONT_LOCK); /* GET IT */
      813     3157    6                   DO WHILE(LOW_INDX=HIGH_INDX AND FIRST_TIME_CALLED>0);
      814     3158    6                       REC2$ = PINCRC(REC$,8); /* LOC OF NEXT PTR IN PA */
      815     3159    6                       CALL GET_PTR2(NEXT_DBK); /* LOAD IT */
      816     3160    6                       IF NEXT_DBK=CURR_LEVEL.FIRST_PA(NO_OF_LEVELS) OR
      817     3161    6                          NO_OF_LEVELS=0 OR /* ONLY 1 PA EXIST */
      818     3162    6                          FIRST_TIME_CALLED=1 THEN /* ALL LOWEST PA PUSHED */
      819     3163    6                           FIRST_TIME_CALLED=0; /* ALL ENTRIES STORED */
      820     3164    6                       ELSE
      821     3165    7                       DO;
      822     3166    7                           CALL FIND_DIRECT(NEXT_DBK,%MUST_WRITE); /* FIND NEXT */
      823     3167    7                           CALL PUSH_PAENTRY(NEXT_DBK); /* AND PUSH TO STK */
      824     3168    7                           END;
      825     3169    6                       END;
      826     3170    5                   END;
      827     3171    4               END;
      828     3172    3           CALL PA_CLEANUP ALTRET(WRIT_ERR); /* DONE WITH A SC */
      829     3173    3   SET_EMPTY:
      830     3174    3           RC_PTR=RC_TBL.RC_NEXT(RC_PTR);
      831     3175    3           IF RC_PTR>0 THEN
      832     3176    3               CALL FIND_DIRECT(CURR_OWNER,%DONT_LOCK);
      833     3177    3           END;
      834     3178    2       RETURN; /* ALL SC THRU A OWNER COMPACTED */
      835     3179
      836     3180    2   WRIT_ERR: ALTRETURN; /* ONLY HAPPEN ON IO ERROR WRITING PATCH FILE */
      837     3181
      838     3182        /*E*  ERROR: ZIU-DBU#PATYPER1-C
      839     3183        MESSAGE: Error: One of the entries in *PA_REC_%U1 at DBK# %U2
      840     3184                        has a non-member's TYPE. COMPACT/CONV_TO_CHAIN aborted.
      841     3185                        Run REBUILD PA utility to reconstruct this set. */
PL6.E3A0      #002=ZIU$PA_SORTIN File=ZIU$COMPACT.:ZIC0TSI                       FRI 09/05/97 13:10 Page:51
      842     3186    2   END COMPACT_AN_OWNER;
      843     3187        %EJECT;
PL6.E3A0      #002=ZIU$PA_SORTIN File=ZIU$COMPACT.:ZIC0TSI                       FRI 09/05/97 13:10 Page:52
      844     3188        /*
      845     3189              SUBR  CALLED BY  REVERT
      846     3190                    REVERT EXTRACTS EACH POINTER FROM LOWEST LEVEL OF PA
      847     3191                    THEN CALL THIS ROUTINE TO WRITE A PATCH RECORD
      848     3192                    FOR IT
      849     3193        */
      850     3194    1   WRITE_PATCH_RECORD: PROC ALTRET;
      851     3195
      852     3196    2       IF PRIOR_DBK=CURR_OWNER THEN /* 1ST POINTER IN LOWEST PA */
      853     3197    2           STK.NEXT(0)=CURR_DBK; /* THIS PTR IS THE NEXT PTR OF OWNER */
      854     3198    2       ELSE
      855     3199         /* NOTE: IF DUMMY EXISTS THEN CURR_DBK=CURR_OWNER,SO WILL BE SKIPPED */
      856     3200    3       DO;
      857     3201         /* SEARCH AC AND RC FOR THE MEMBER POINTED BY */
      858     3202    3           KEY.RC_PTR=SC_TBL.RC_PTR(SC_PTR)+1;
      859     3203    3           X = 0;
      860     3204    4           DO WHILE(X<SC_TBL.NO_OF_SM(SC_PTR) AND
      861     3205    4              RC_TBL.TYPE(KEY.RC_PTR)~=STK.CURR(0));
      862     3206    4               X = X + 1;
      863     3207    4               KEY.RC_PTR = KEY.RC_PTR + 1;
      864     3208    4               END;
      865     3209    3           IF X>=SC_TBL.NO_OF_SM(SC_PTR) THEN
      866     3210    4           DO;
      867     3211    4               CALL BIN_CHAR(1,NEXT_DBK); /* ERROR IN PAREC AT NEXT_DBK */
      868     3212    4               CALL ERROR_MSG(DBU#PATYPER1,SC_TBL.NAME(SC_PTR));
      869     3213    4               UNWIND TO BREAK_CLEANUP;
      870     3214    4               END;
      871     3215    3           STK.CURR(1)=PRIOR_DBK;
      872     3216    3           STK.PRIOR(1)=STK.PRIOR(0);
      873     3217    3           STK.NEXT(1)=CURR_DBK;
      874     3218    3           KEY.TXT=PRIOR_DBK;
      875     3219    3           CALL M$WRITE(WRITE_TEMP) ALTRET(ALT);
      876     3220    3           REC_CNT=REC_CNT+1;
      877     3221    3           SC_TBL.COUNT2(SC_PTR)=SC_TBL.COUNT2(SC_PTR)+1;
      878     3222    3           END;
      879     3223         /* PUSH CURR INFO TO PRIOR */
      880     3224    2       STK.PRIOR(0)=PRIOR_DBK;
PL6.E3A0      #002=ZIU$PA_SORTIN File=ZIU$COMPACT.:ZIC0TSI                       FRI 09/05/97 13:10 Page:53
      881     3225    2       PRIOR_DBK = CURR_DBK;
      882     3226    2       STK.CURR(0)=PA_ENTRY.TYPE;
      883     3227    2       RETURN;
      884     3228    2   ALT: ALTRETURN;
      885     3229    2   END WRITE_PATCH_RECORD;
      886     3230        %EJECT;
PL6.E3A0      #002=ZIU$PA_SORTIN File=ZIU$COMPACT.:ZIC0TSI                       FRI 09/05/97 13:10 Page:54
      887     3231        /*
      888     3232              SUBR    REVERT_AN_OWNER - GO THRU ALL SC
      889     3233                                        FIND FIRST PA IN LOWEST LEVEL
      890     3234                                        GO THRU ALL POINTERS IN LOWEST LEVEL
      891     3235        */
      892     3236    1   REVERT_AN_OWNER: PROC ALTRET;
      893     3237
      894     3238
      895     3239    2       CALL FIND_DIRECT(CURR_OWNER,%DONT_LOCK); /* FIND OWNER */
      896     3240    2       RC_PTR=TYPE.MSTRINDX(PA_REC.TYPE); /* GET RECORD TYPE */
      897     3241    3       DO WHILE(RC_PTR>0); /* LOOP THRU SC */
      898     3242    3           SC_PTR = RC_TBL.SC_PTR(RC_PTR);
      899     3243    3           IF SC_TBL.GLOBAL(SC_PTR)=0 THEN /* SET IS LOCAL */
      900     3244    3               BASE_DBK = AC_TBL.BASE_DBK(AC_PTR);
      901     3245    3           ELSE
      902     3246    3               BASE_DBK = 0; /* FOR GLOBAL SET DONT ADJUST POINTERS */
      903     3247    3           CALL FIND_FIRST_PA(%MUST_WRITE) ALTRET(SET_EMPTY);
              3247                    /* GET 1ST PA IN LOWEST */
      904     3248    3           ENTRY_LEN=2+PTR_LEN+SC_TBL.PA_KEYSIZE(SC_PTR);
      905     3249    3           PRIOR_DBK = CURR_OWNER;
      906     3250    4           DO WHILE('1'B); /* LOOP THRU ALL LOWEST PA REC */
      907     3251    4               IF BREAK_FLAG>0 THEN /* BREAK HIT */
      908     3252    4                   UNWIND TO BREAK_CLEANUP;
      909     3253    4               ENTRY$=PINCRC(REC$,8+3*PTR_LEN); /* FIRST ENTRY */
      910     3254    5               DO LOW_INDX=1 TO PA_REC.ENTRIES;
      911     3255    5                   REC2$ = PINCRC(ENTRY$,2);
      912     3256    5                   CURR_DBK = 0;
      913     3257    5                   PINCRC(ADDR(CURR_DBK),4-PTR_LEN)->CHAR_V=PA_ENTRY.PTRS;
      914     3258    5                   IF PA_ENTRY.C=0 THEN /* UNIQUE ENTRY */
      915     3259    6                   DO;
      916     3260    6                       CURR_DBK = CURR_DBK + BASE_DBK; /* TO LOCAL IF LOCALSC */
      917     3261    6                       CALL WRITE_PATCH_RECORD ALTRET(WRIT_ERR);
      918     3262    6                       END;
      919     3263    5                   ELSE
      920     3264    6                   DO; /* POINTER GROUP PRESENT */
      921     3265    6                       GROUP$=PINCRC(REC$,CURR_DBK);
      922     3266    6                       HIGH_INDX = PA_GROUP.NO_GROUPS;
PL6.E3A0      #002=ZIU$PA_SORTIN File=ZIU$COMPACT.:ZIC0TSI                       FRI 09/05/97 13:10 Page:55
      923     3267    6                       REC2$=PINCRC(GROUP$,2); /* SKIP PTR GROUP COUNT */
      924     3268    7                       DO WHILE(HIGH_INDX>0); /* LOOP THRU POINTER GROUP */
      925     3269    7                           PA_ENTRY.TYPE=PINCRC(REC2$,-2)->PA_GROUP.TYPE;
      926     3270    7                           REC2$=PINCRC(REC2$,2);
      927     3271    7                           CALL GET_PTR2(CURR_DBK);
      928     3272    7                           CALL WRITE_PATCH_RECORD ALTRET(WRIT_ERR);
      929     3273    7                           HIGH_INDX = HIGH_INDX - 1;
      930     3274    7                           END;
      931     3275    6                       END;
      932     3276    5                   ENTRY$=PINCRC(ENTRY$,ENTRY_LEN);
      933     3277    5                   END;
      934     3278    4               REC2$=PINCRC(REC$,8);
      935     3279    4               CALL GET_PTR2(NEXT_DBK); /* GET NEXT PTR OF THE PA_REC */
      936     3280    4               IF NEXT_DBK=CURR_LEVEL.FIRST_PA(NO_OF_LEVELS) OR
      937     3281    4                  NO_OF_LEVELS=0 THEN /* OR ONLY ONE PA THERE */
      938     3282    4                   GOTO ALL_PTR_EXTRACTED;
      939     3283    4               CALL FIND_DIRECT(NEXT_DBK,%DONT_LOCK);
      940     3284    4               END;
      941     3285        %EJECT;
PL6.E3A0      #002=ZIU$PA_SORTIN File=ZIU$COMPACT.:ZIC0TSI                       FRI 09/05/97 13:10 Page:56
      942     3286
      943     3287    3   ALL_PTR_EXTRACTED: /* WRITE PATCH RECORD FOR OWNER AND ERASE PA */
      944     3288    3           CALL FIND_DIRECT(CURR_OWNER,%MUST_WRITE);
      945     3289    3           CALL STORE_PTR(STK.NEXT(0),RC_TBL.NXPNT_EIS(RC_PTR));
      946     3290    3           CALL STORE_PTR2(CURR_DBK);
      947     3291    3           CURR_DBK=CURR_OWNER; /* DONT FORGET ONE RECORD LEFT IN STK */
      948     3292    3           CALL WRITE_PATCH_RECORD; /* DO CLEANUP */
      949     3293         /* NOW ERASE ALL PA_REC FROM CURR OF OWNER */
      950     3294    4           DO LEVEL#=0 TO NO_OF_LEVELS;
      951     3295    4               CALL FIND_DIRECT(CURR_LEVEL.FIRST_PA(LEVEL#),%MUST_WRITE);
      952     3296    4               REC2$=PINCRC(REC$,8);
      953     3297    4               CALL GET_PTR2(NEXT_DBK); /* LOAD NEXT PTR */
      954     3298    4               CALL ERASE_PAREC;
      955     3299    4               IF LEVEL#>0 THEN /* NOT HIGHEST LEVEL */
      956     3300    5               DO WHILE (NEXT_DBK~=CURR_LEVEL.FIRST_PA(LEVEL#));
      957     3301    5                   CALL FIND_DIRECT(NEXT_DBK,%MUST_WRITE);
      958     3302    5                   REC2$=PINCRC(REC$,8);
      959     3303    5                   CALL GET_PTR2(NEXT_DBK);
      960     3304    5                   CALL ERASE_PAREC;
      961     3305    5                   END;
      962     3306    4               END;
      963     3307    3   SET_EMPTY:
      964     3308    3           RC_PTR=RC_TBL.RC_NEXT(RC_PTR);
      965     3309    3           IF RC_PTR>0 THEN
      966     3310    3               CALL FIND_DIRECT(CURR_OWNER,%DONT_LOCK);
      967     3311    3           END;
      968     3312    2       RETURN;
      969     3313    2   WRIT_ERR: ALTRETURN;
      970     3314    2   END REVERT_AN_OWNER;
      971     3315        %EJECT;
PL6.E3A0      #002=ZIU$PA_SORTIN File=ZIU$COMPACT.:ZIC0TSI                       FRI 09/05/97 13:10 Page:57
      972     3316        /*
      973     3317              SUBR  FIND_FIRST_PA:  GO THRU PA INDEX STRUCTURE
      974     3318                                    UNTIL LOWEST_LEVEL_PA HIT
      975     3319                                    IF DIRECTIVE IS 'CONVERT' THEN
      976     3320                                      WE WILL CREATE ONE FOR IT
      977     3321        */
      978     3322    1   FIND_FIRST_PA: PROC(FIND_TYPE) ALTRET;
      979     3323
      980     3324    2   DCL FIND_TYPE SBIN ALIGNED;
      981     3325
      982     3326    2       CALL GET_PTR(NEXT_DBK,RC_TBL.NXPNT_EIS(RC_PTR));
      983     3327    2       IF NEXT_DBK=CURR_OWNER THEN /* SET EMPTY, DO ALTRETURN */
      984     3328    2           ALTRETURN;
      985     3329    2       CURR_LEVEL(0)='0'B;
      986     3330    2       CURR_LEVEL.DBK(0)=NEXT_DBK;
      987     3331    2       CURR_LEVEL.FIRST_PA(0)=NEXT_DBK; /* SAVE DBK OF FIRST_PA_IN_LEVEL */
      988     3332    2       STK.NEXT(0)=NEXT_DBK; /* SAVE THE NEXT PTR OF OWNER */
      989     3333    2       LEVEL#=0;
      990     3334    2       CALL FIND_DIRECT(NEXT_DBK,FIND_TYPE);
      991     3335    2       CURR_LEVEL.REC$(0)=REC$;
      992     3336    3       DO WHILE(PA_REC.NOT_LOWEST_LEVEL);
      993     3337    3           PA_REC.FIRST_IN_LEVEL = '1'B; /* SET IT IN CASE NOT */
      994     3338    3           IF LEVEL#>=31 THEN /* GOING INTO 33 LEVELS */
      995     3339    4           DO; /* THIS IS JUST IMPOSIBLE TO HAVE THAT MANY LEVELS */
      996     3340    4               CALL BIN_CHAR(2,CURR_OWNER); /* MOST LIKELY, A BUG */
      997     3341    4               CALL ERROR_MSG(DBU#PALEV33,SC_TBL.NAME(SC_PTR),COMMAND_TEXT);
      998     3342    4               UNWIND TO BREAK_CLEANUP;
      999     3343    4               END;
     1000     3344    3           ENTRY$=PINCRC(REC$,2*4+3*PTR_LEN); /* POINT TO FIRST ENTRY */
     1001     3345    3           NEXT_DBK=0;
     1002     3346    3           PINCRC(ADDR(NEXT_DBK),4-PTR_LEN)->CHAR_V=PA_ENTRY.PTRS;
     1003     3347    3           IF PA_ENTRY.C=1 THEN /* PTR GROUP PRESENT */
     1004     3348    4           DO;
     1005     3349    4               GROUP$=PINCRC(REC$,NEXT_DBK); /* POINT TO PA_GROUP NOW */
     1006     3350    4               PINCRC(ADDR(NEXT_DBK),4-PTR_LEN)->CHAR_V=PA_GROUP.PTRS;
     1007     3351    4               END;
     1008     3352    3           NEXT_DBK = NEXT_DBK + BASE_DBK; /* ADJUST TO LOCAL IF LOCAL SC */
PL6.E3A0      #002=ZIU$PA_SORTIN File=ZIU$COMPACT.:ZIC0TSI                       FRI 09/05/97 13:10 Page:58
     1009     3353    3           LEVEL# = LEVEL# + 1;
     1010     3354    3           CURR_LEVEL(LEVEL#)='0'B;
     1011     3355    3           CURR_LEVEL.DBK(LEVEL#)=NEXT_DBK;
     1012     3356    3           CURR_LEVEL.FIRST_PA(LEVEL#)=NEXT_DBK; /* SAVE DBK OF FIRST ONE */
     1013     3357    3           CALL FIND_DIRECT(NEXT_DBK,FIND_TYPE);
     1014     3358    3           CURR_LEVEL.REC$(LEVEL#)=REC$;
     1015     3359    3           PA_REC.FIRST_IN_LEVEL = '1'B; /* IN CASE IT IS NOT SET */
     1016     3360    3           END;
     1017     3361    2       NO_OF_LEVELS = LEVEL#;
     1018     3362    2       LEVEL# = LEVEL# + 1;
     1019     3363
     1020     3364    2   END FIND_FIRST_PA;
     1021     3365        %EJECT;
PL6.E3A0      #002=ZIU$PA_SORTIN File=ZIU$COMPACT.:ZIC0TSI                       FRI 09/05/97 13:10 Page:59
     1022     3366        /*
     1023     3367              2ND SORT OUTPUT PROCESSING  ZIU$SC_RESORT
     1024     3368              WHEN DIRECTIVE IS TO RESORT A SORT SET
     1025     3369        */
     1026     3370    1   ZIU$SC_RESORT: ENTRY(SORT_REC,SORTREC_SIZE) ALTRET;
     1027     3371
     1028     3372    1       IF SORTREC_SIZE > 0 THEN
     1029     3373    2       DO;
     1030     3374    2           CURR_DBK = SORT_REC.MEMBER_DBK;
     1031     3375    2           IF CURR_OWNER = 0 THEN /* FIRST TIME CALLED */
     1032     3376    3           DO;
     1033     3377    3               CURR_OWNER = SORT_REC.O_PTR;
     1034     3378    3               SC_PTR = SORT_REC.SC_PTR;
     1035     3379    3               STK.CURR(0) = CURR_OWNER;
     1036     3380    3               IF SORT_REC.P_PTR ~= CURR_OWNER THEN
     1037     3381    3                   NEXT_DBK=SORT_REC.MEMBER_DBK;
     1038     3382         /* FLAG OWNER NEEDS TO BE UPDATED */
     1039     3383    3               ELSE
     1040     3384    3                   NEXT_DBK=-1*SORT_REC.MEMBER_DBK;/* JUST REMEMBER IT */
     1041     3385    3               END;
     1042     3386    2           ELSE
     1043     3387    3           DO; /* NOT THE FIRST TIME ENTERED */
     1044     3388    3               IF BREAK_FLAG>0 THEN
     1045     3389    3                   UNWIND TO BREAK_CLEANUP; /* NO BETTER PLACE TO CHECK */
     1046     3390    3               IF CURR_OWNER=SORT_REC.O_PTR AND SC_PTR=SORT_REC.SC_PTR THEN
     1047     3391    4               DO; /* STILL PROCESSING THE SAME CHAIN SAME CIRCLE */
     1048     3392    4                   IF STK.PRIOR(1)~=STK.CURR(0) OR STK.NEXT(1)~=SORT_REC.MEMBER_DBK
     1049     3393    4                   THEN
     1050     3394    4                       CALL MEMBER_TO_BE_UPDATED ALTRET(WRIT_ERR);
     1051     3395    4                   STK(0) = STK(1); /* ROLL THE STK INFO UP */
     1052     3396    4                   END;
     1053     3397    3               ELSE
     1054     3398    4               DO;
     1055     3399    4                   CALL SC_CLEANUP; /* CLEANUP THE LEFTOVER IN STK */
     1056     3400    4                   CURR_OWNER=SORT_REC.O_PTR;
     1057     3401    4                   SC_PTR=SORT_REC.SC_PTR;
     1058     3402    4                   STK.CURR(0)=CURR_OWNER;
PL6.E3A0      #002=ZIU$PA_SORTIN File=ZIU$COMPACT.:ZIC0TSI                       FRI 09/05/97 13:10 Page:60
     1059     3403    4                   IF SORT_REC.P_PTR~=CURR_OWNER THEN
     1060     3404    4                       NEXT_DBK=SORT_REC.MEMBER_DBK; /* OWNER NEEDED UPDATED */
     1061     3405    4                   ELSE
     1062     3406    4                       NEXT_DBK=-1*SORT_REC.MEMBER_DBK;/* JUST REMEMBER IT */
     1063     3407    4                   END;
     1064     3408    3               END;
     1065     3409    2           STK(1)=SORT_REC; /* PUSH REC TO STACK */
     1066     3410    2           END;
     1067     3411    1       ELSE
     1068     3412    2       DO; /* LAST RECORD FROM SORT */
     1069     3413    2           IF CURR_OWNER>0 THEN
     1070     3414    2               CALL SC_CLEANUP;
     1071     3415    2           GOTO COMMON_RETURN; /* CLOSE THE PATCH FILE */
     1072     3416    2           END;
     1073     3417
     1074     3418    1       RETURN;
     1075     3419        /*    SUBR SC_CLEANUP - THE SORT OUTPUT RECORD TO ZIU$SC_RESORT
     1076     3420                   IN THE ORDER OF  'OWNER_DBKEY' THEN 'SC_PTR'  THEN  'KEY'
     1077     3421                   WE HAVE PUSHED THE LAST TWO RECORDS IN THE STK,  AND NOW
     1078     3422                   THIS SUBR IS ENTERED WHEN EITHER 'END_OF_OUT_REC' OR
     1079     3423                   'CHANGE_OF_OWNER' OR 'CHANGE_OF_SC' OCCURS AND HENCE,
     1080     3424                   WE NEED TO CLEAN UP WHATEVER LEFT ON THE STK   */
     1081     3425    1   SC_CLEANUP: PROC;
     1082     3426
     1083     3427    2       CURR_DBK = CURR_OWNER; /* THE EXPECTED NEXT PTR OF THE LAST MEM IN STK */
     1084     3428    2       PRIOR_DBK = STK.NEXT(1); /* AND SAVE THE OLD NEXT PTR OF IT */
     1085     3429    2       IF STK.PRIOR(1)~=STK.CURR(0) OR STK.NEXT(1)~=CURR_OWNER THEN
     1086     3430    2           CALL MEMBER_TO_BE_UPDATED; /* EITHER N/P IS BAD */
     1087     3431    2       IF PRIOR_DBK ~= CURR_OWNER OR NEXT_DBK > 0 THEN
     1088     3432    2           CALL OWNER_TO_BE_UPDATED; /* PTR OF THE OWNER IS BAD */
     1089     3433    2   END SC_CLEANUP;
     1090     3434        %EJECT;
PL6.E3A0      #002=ZIU$PA_SORTIN File=ZIU$COMPACT.:ZIC0TSI                       FRI 09/05/97 13:10 Page:61
     1091     3435    1   WRIT_ERR:
     1092     3436    1       MONITOR_ERR=B$TCB$->B$TCB.ALT$->B$EXCFR.ERR;
     1093     3437    1       DCBSF = DBKEY_SORT_DCB;
     1094     3438    1       INCL_ERR=%YES#;
     1095     3439    1       CALL SYS_FUNC_ERRMSG;
     1096     3440    1       CALL BIN_CHAR(1,KEY.TXT);
     1097     3441    1       SC_PTR=RC_TBL.SC_PTR(KEY.RC_PTR);
     1098     3442    1       CALL ERROR_MSG(DBU#PAPACH1,SC_TBL.NAME(SC_PTR),,COMMAND_TEXT);
     1099     3443         /* CLOSE THE DCB AND TYPE 1 MORE ERR_MSG */
     1100     3444    1   ALT_OPEN: ;
     1101     3445    1   ALT_CLOS: CALL SYS_FUNC_RELDCB; /* RELEASE TEMP FILE DCB */
     1102     3446    1       DBKEY_SORT_DCB = 0;
     1103     3447    1       CALL ERROR_MSG(DBU#PAERROR2,COMMAND_TEXT); /* INFORM USER, ABORTING */
     1104     3448    1       GOTO UN_WIND;
     1105     3449        /*E* ERROR: ZIU-DBU#PAERROR2-C
     1106     3450        MESSAGE: Error: OPEN/CLOSE/READ/WRITE the temporary patch file
     1107     3451                        used by this directive.  %U1 aborted. */
     1108     3452        %EJECT;
PL6.E3A0      #002=ZIU$PA_SORTIN File=ZIU$COMPACT.:ZIC0TSI                       FRI 09/05/97 13:10 Page:62
     1109     3453        /*
     1110     3454              SUBR OWNER_TO_BE_UPDATED/MEMBER_TO_BE_UPDATED
     1111     3455                   WRITE A RECORD TO A TEMP FILE CONTAINING
     1112     3456                   DBK OF THE RECORD WHICH HAS POINTERS TO BE UPDATED
     1113     3457                       AND PTR TO BE THE NEXT AND THE PRIOR AS WELL
     1114     3458                       AS THE AC_PTR,SC_PTR AND RC_PTR TO HELP LOCATING
     1115     3459                       THIS RECORD IN THE DATABASE
     1116     3460                   THIS SUBR IS ONLY CALLED BY 'RESORT' PROCESSOR
     1117     3461        */
     1118     3462    1   OWNER_TO_BE_UPDATED: PROC ALTRET;
     1119     3463
     1120     3464    2       IF NEXT_DBK>0 THEN
     1121     3465    2           CURR_DBK = NEXT_DBK;
     1122     3466    2       ELSE
     1123     3467    2           CURR_DBK = -1*NEXT_DBK;
     1124     3468    2       STK.RC_PTR(1)=SC_TBL.RC_PTR(SC_PTR); /* RC FOR THE OWNER */
     1125     3469    2       STK.CURR(0)=STK.CURR(1);
     1126     3470    2       STK.CURR(1)=CURR_OWNER;
     1127     3471
     1128     3472    2   MEMBER_TO_BE_UPDATED: ENTRY ALTRET;
     1129     3473
     1130     3474    2       SC_TBL.COUNT(SC_PTR) = SC_TBL.COUNT(SC_PTR) + 1;
     1131     3475    2       KEY.TXT = STK.CURR(1);
     1132     3476    2       KEY.RC_PTR = STK.RC_PTR(1);
     1133     3477    2       STK.NEXT(1) = CURR_DBK;
     1134     3478    2       STK.PRIOR(1) = STK.CURR(0);
     1135     3479
     1136     3480    2       CALL M$WRITE(WRITE_TEMP) ALTRET(ALT);
     1137     3481
     1138     3482    2       REC_CNT = REC_CNT + 1; /* ADD THE TOT NUMBER */
     1139     3483    2       RETURN;
     1140     3484    2   ALT: ALTRETURN;
     1141     3485    2   END OWNER_TO_BE_UPDATED;
     1142     3486
     1143     3487    1   END ZIU$PA_SORTIN;
     1144     3488        %EOD;

PL6.E3A0      #002=ZIU$PA_SORTIN File=ZIU$COMPACT.:ZIC0TSI                       FRI 09/05/97 13:10 Page:63
--  Include file information  --

   ZI_ERRORS_SUBS.:ZIC0TOU  is referenced.
   CP_6_SUBS.:LIB_E05  is referenced.
   CP_6.:LIB_E05  cannot be made into a system file and is referenced.
   ZI_PRSE_SUBS.:ZIC0TOU  is referenced.
   ZI$DIR.:ZIC0TOU  is referenced.
   ZI_GLOBAL_DBUTIL.:ZIC0TOU  is referenced.
   ZI_DBU_XREF.:ZIC0TOU  cannot be made into a system file and is referenced.
   ZI$PG_STRUCTS.:ZIC0TOU  is referenced.
   B$JIT_C.:E05TOU  was found in the system file and is never referenced.
   CP_6_C.:E05TOU  was found in the system file and is referenced.
      No diagnostics issued in procedure ZIU$PA_SORTIN.

   Procedure ZIU$PA_SORTIN requires 2253 words for executable code.
   Procedure ZIU$PA_SORTIN is declared NOAUTO and requires 186 words of local(STATIC) storage.

PL6.E3A0      #002=ZIU$PA_SORTIN File=ZIU$COMPACT.:ZIC0TSI                       FRI 09/05/97 13:10 Page:64

 Object Unit name= ZIU$PA_SORTIN                              File name= ZIU$COMPACT.:ZIC0TOU
 UTS= SEP 05 '97 13:10:06.96 FRI                              Compiler= PL-6/E31         Sev=      00
 SharedLib= :SHARED_SYSTEM                                    Alt SharedLib=


    ****  Control sections  ****

 Sect   Type Bound  Init  Size OctSiz  Section name(segment info)
    0   Data  even  none   186    272  ZIU$PA_SORTIN
    1   DCB   even  none     0      0  M$LO
    2   DCB   even  none     0      0  M$UC
    3  RoData even  UTS      1      1  ZIU$PA_SORTIN
    4   Proc  even  none  2253   4315  ZIU$PA_SORTIN
    5  RoData even  none    72    110  ZIU$PA_SORTIN

    ****  Entry defs  ****

                              Check   Calling
                             calling  sequence
  Sect OctLoc Primary Altret sequence   type   Parms  Name
     4      0   yes    yes     yes      Std        2  ZIU$PA_SORTIN
     4   1375          yes     yes      Std        2  ZIU$PA_SORTOUT
     4   1711          yes     yes      Std        0  ZIU$PA_PACK
     4   3732          yes     yes      Std        2  ZIU$SC_RESORT
PL6.E3A0      #002=ZIU$PA_SORTIN File=ZIU$COMPACT.:ZIC0TSI                       FRI 09/05/97 13:10 Page:65

  ****  Data defs  ****

 Sect OctLoc  Name                           Sect OctLoc  Name
    0      3  ENTRY_LEN                          0      4  NO_OF_LEVELS
    0      5  LEVEL#                             0      7  BREAK_CLEANUP
    0     12  WRITE_TEMP                         0     34  LOW_INDX
    0     35  HIGH_INDX                          0     36  OWNER_CNT
    0     37  CURR_LN                            0     40  CURR_OWNER
    0     44  KEY                                0     46  CURR_LEVEL
    0    247  PASTK$                             0    250  PAENT_STK_SIZE

  ****  Entry refs  ****

         Check        Calling
        calling       sequence
Altret sequence SRef   type   Args  Name
         yes           Std       0 CHKSUM
         yes           Std       2 BIN_CHAR
 yes     yes           Std       0 OPEN_AREA
         yes           Std       0 ZIU$DBAMP
         yes           Std       0 FLUSH_PAGES
 yes     yes           Std       0 SYS_FUNC_RELDCB
         yes           Std       4 ERROR_MSG
         yes           Std       0 ERASE_PAREC
         yes           Std       2 FIND_DIRECT
 yes     yes           Std       1 STORE_AN_ENTRY
 yes     yes           Std       0 SYS_FUNC_CLOS
 yes     yes           Std       0 PA_CLEANUP
 yes     yes           Std       3 READ_DB
 yes     yes           Std       0 SYS_FUNC_ERRMSG
 yes     yes           Std       0 SYS_FUNC_WRIT
 yes     yes           Std       0 SYS_FUNC_CHECK
 yes     yes           Std       0 SYS_FUNC_READ
         yes           Std       1 PUSH_PAENTRY
                       nStd      0 X66_STATIC_2
                       nStd      0 X66_SUNWIND
PL6.E3A0      #002=ZIU$PA_SORTIN File=ZIU$COMPACT.:ZIC0TSI                       FRI 09/05/97 13:10 Page:66

  ****  Data refs  ****

  Flags:  r = read only, s = secondary
Flgs Name                             Flgs Name                             Flgs Name
     STK                                   NBUFS                                 PRFR
     PRFR2                                 REC2$                                 ATBLK$
     DATA$                                 TYPE                                  MSTR$
     NXT_MSLOT                             MAX_MSLOT                             MSTR_INDX
     HASHTBL                               HASHINDX                              LOC_MODE
     AREA_KEY$                             NO_AREAS                              GLBL_PTR_SZ
     SET_XREF$                             NXT_SSLOT                             MAX_SSLOT
     REC_XREF$                             NXT_RSLOT                             MAX_RSLOT
     NO_RECS                               NO_SETS                               XREF_BUILT
     TYPESET                               TYPEREC                               SC_PTR
     SC_TBL                                RC_PTR                                RC_TBL
     KEY_PTR                               KEY_TBL                               AC_PTR
     FIRST_TIME_CALLED                     BASE_DBK                              AC_TBL
     BLKLSF                                KEYLSF                                KEYXSF
     DCBSF                                 ORGSF                                 KEYSF
     KEYVSF                                ACSSF                                 NOTIMESF
     FUNSF                                 ASNSF                                 TESTSF
     XTENSIZESF                            DISPSF                                WAITSF
     VFCSF                                 FULLSF                                BKUPSF
     BUFLNSF                               BUFSF                                 SOURCESF
     DESTSF                                DATESF                                TIMESF
     UTSSF                                 DAYSF                                 TSTAMPSF
     ENCRP_SEEDSF                          ERRCODESF                             MSGCODE
     INCL_ERR                              ERR_INSERT                            FIDSF_RD
     ACNT                                  EXISTSF                               SHARESF
     DCBNMSF                               KEYRSF                                NO_KEYSF
     REASGNSF                              CARRY_ATTRIBUTESF                     SUBMESSF
     SPKY_OPNSF                            POSSF                                 ERRFLGSF
     MERGESF                               FSA_FLAG                              RELGSF
     UNUSED                                HELPCODE                              COUNTSF
     INDEXSF                               GAP                                   PSNSF
     ACNTSF                                KEY_SHADWSF                           REC$
     RB                                    RE                                    IE
PL6.E3A0      #002=ZIU$PA_SORTIN File=ZIU$COMPACT.:ZIC0TSI                       FRI 09/05/97 13:10 Page:67
     IB                                    CNT                                   ICNT
     RCNT                                  SCNT                                  FIRST_SET
     RETCNT                                DMPCNT                                KCNT
     ACNT_IDX                              I                                     J
     K                                     X                                     STEPCC
     I_O_BUF$                              OUT_INDX                              I_O_SIZE
     REC_DATA_LN                           M$LO                                  B$TCB$
     B$ROS$                                B$JIT$                                KEYFID
     I_O_KEY                               RESTART                               BREAK_FLAG
     ICHKSUM                               ITMCNT                                GAP1
     ENTRY$                                GROUP$                                PTR_LEN
     KEY_LEN                               ZI$DIR                                SCHEMA_ACTIVE
     RECORD_LIST                           SET_LIST                              RETAIN_LIST
     DUMP_FID                              ALTKY                                 INIT_RG
     KEY_RNG                               ITEM_LIST                             M$UC
     DBKEY_SORT_DCB                        REC_CNT                               POOL_MAX
     SWAP_PTR                              POOL                                  COMMAND_TEXT

  ****  Segment refs  ****

  Flags:  r = read only, s = secondary
Flgs Name                             Flgs Name                             Flgs Name
     ISSID                                 NULLSID
PL6.E3A0      #002=ZIU$PA_SORTIN File=ZIU$COMPACT.:ZIC0TSI                       FRI 09/05/97 13:10 Page:68


      124        1        /*T***********************************************************/
      125        2        /*T*                                                         */
      126        3        /*T* Copyright (c) Bull HN Information Systems Inc., 1997    */
      127        4        /*T*                                                         */
      128        5        /*T***********************************************************/
      129        6        ZIU$PA_SORTIN: PROC(SORT_REC,SORTREC_SIZE) NOAUTO ALTRET;

      6  4 000000   000000 700200 xent  ZIU$PA_SORT* TSX0  ! X66_STATIC_2
         4 000001   000000 000002 0                  ZERO    0,2
         4 000002   000506 710000 4                  TRA     s:2725

      130        7
      131        8    1   DCL SORTREC_SIZE UBIN; /* WE WILL DETERMINE THE SIZE */
      132        9    1   DCL 1 SORT_REC CALIGNED,
      133       10    1         2 N_PTR UBIN UNAL,
      134       11    1         2 P_PTR UBIN UNAL,
      135       12    1         2 MEMBER_DBK UBIN UNAL,
      136       13    1         2 RC_PTR UBIN BYTE UNAL,
      137       14    1         2 AC_PTR UBIN BYTE UNAL,
      138       15    1         2 SC_PTR UBIN BYTE UNAL,
      139       16    1         2 O_PTR UBIN UNAL,
      140       17    1         2 KEY_LOC CHAR(KEY_LEN) UNAL;
      141       18    1   DCL 1 STK (0:1) SYMREF ALIGNED,
      142       19    1         2 NEXT SBIN ALIGNED,
      143       20    1         2 PRIOR SBIN ALIGNED,
      144       21    1         2 CURR SBIN ALIGNED,
      145       22    1         2 RC_PTR UBIN BYTE UNAL,
      146       23    1         2 AC_PTR UBIN BYTE UNAL;
      147       24    1   DCL ENTRY_LEN SBIN STATIC SYMDEF ALIGNED;
      148       25    1   DCL NO_OF_LEVELS SBIN STATIC SYMDEF ALIGNED;
      149       26    1   DCL LEVEL# SBIN STATIC SYMDEF ALIGNED;
      150       27
      151       28    1   DCL NBUFS SBIN SYMREF ALIGNED;
      152       29    1   DCL KEY_PTR2 SBIN STATIC ALIGNED;
      153       30    1   DCL CHAR_V CHAR(PTR_LEN) BASED CALIGNED;
      154       31
PL6.E3A0      #002=ZIU$PA_SORTIN File=ZIU$COMPACT.:ZIC0TSI                       FRI 09/05/97 13:10 Page:69
      155       32    1   DCL BREAK_CLEANUP BIT(72) STATIC SYMDEF ALIGNED;
      156       33    1   DCL SYS_FUNC_READ ENTRY ALTRET;
      157       34    1   DCL SYS_FUNC_ERRMSG ENTRY ALTRET;
      158       35    1   DCL SYS_FUNC_CLOS ENTRY ALTRET;
      159       36    1   DCL SYS_FUNC_RELDCB ENTRY ALTRET;
      160       37    1   DCL SYS_FUNC_CHECK ENTRY ALTRET;
      161       38    1   DCL SYS_FUNC_WRIT ENTRY ALTRET;
      162       39
      163       40    1   DCL FLUSH_PAGES ENTRY;
      164       41    1   DCL GET_DCB ENTRY(1) ALTRET;
      165       42    1   DCL ZIU$DBAMP ENTRY;
      166       43    1   DCL PRFR SBIN WORD SYMREF ALIGNED; /*  SOURCE EIS  FOR ZIU$DBAMP */
      167       44    1   DCL PRFR2 SBIN WORD SYMREF ALIGNED; /* DEST EIS FOR ZIU$DBAMP */
      168       45    1   DCL REC2$ PTR SYMREF ALIGNED;
      169       46
      170       47        %INCLUDE ZI$PG_STRUCTS;
      171      150         %ATBLK_PG;
      172      206         %DATA_PG;
      173      225        %INCLUDE ZI_DBU_XREF;
      174      392         %XREF_TBLS;
      175      467         %PA_XREF_TBLS;
      176      533        %INCLUDE ZI_GLOBAL_DBUTIL;
      177      711         %SYS_FUNC;
      178      803         %MISC_DCLS;
      179      856         %PAREC(STCLASS=SYMREF);
      180      883        %INCLUDE ZI$DIR;
      181     1040         %DIR;
      182     1184        %INCLUDE ZI_PRSE_SUBS;
      183     1340        %INCLUDE CP_6;
      184     1421        %INCLUDE CP_6_SUBS;
      185     1961         %B$EXCFR;
      186     1979         %B$TCB;
      187     1982
      188     1983        %EQU LOCK_BUF = 2;
      189     1984        %EQU MUST_WRITE = 1;
      190     1985        %EQU DONT_LOCK = 0;
      191     1986        %EQU DONT_ERROR = -1;
PL6.E3A0      #002=ZIU$PA_SORTIN File=ZIU$COMPACT.:ZIC0TSI                       FRI 09/05/97 13:10 Page:70
      192     1987        %FPT_WRITE(FPTN=WRITE_TEMP,KEY=KEY,NEWKEY=YES,ONEWKEY=NO,VFC=NO,
      193     1988         STCLASS="STATIC SYMDEF");
      194     2019        %INCLUDE ZI_ERRORS_SUBS;
      195     2539
      196     2540    1   DCL CHKSUM ENTRY;
      197     2541    1   DCL READ_DB ENTRY(3) ALTRET;
      198     2542    1   DCL BIN_CHAR ENTRY(2);
      199     2543    1   DCL ERROR_MSG ENTRY(4);
      200     2544    1   DCL OPEN_AREA ENTRY ALTRET;
      201     2545
      202     2546    1   DCL PA_CLEANUP ENTRY ALTRET;
      203     2547    1   DCL FIND_DIRECT ENTRY(2);
      204     2548    1   DCL ERASE_PAREC ENTRY;
      205     2549    1   DCL STORE_AN_ENTRY ENTRY(1) ALTRET;
      206     2550    1   DCL PUSH_PAENTRY ENTRY(1);
      207     2551
      208     2552    1   DCL 1 LAST(0:1) STATIC ALIGNED, /* DOUBLE BUFFER CONTROL VARIABES */
      209     2553    1         2 AC_PTR SBIN BYTE UNAL,
      210     2554    1         2 PAGES_READ UBIN BYTE UNAL,
      211     2555    1         2 RB UBIN(27) UNAL,
      212     2556    1         2 PAGES_LEFT UBIN(27) UNAL;
      213     2557    1   DCL BUF_PTR SBIN WORD STATIC ALIGNED;
      214     2558    1   DCL Y SBIN WORD STATIC ALIGNED;
      215     2559    1   DCL LOW_INDX SBIN WORD STATIC SYMDEF ALIGNED; /* USED BY COMPACT */
      216     2560    1   DCL MUST_WRITE REDEF LOW_INDX SBIN ALIGNED; /* BY SORT INPUT PROC */
      217     2561    1   DCL HIGH_INDX SBIN STATIC SYMDEF ALIGNED; /* BY COMPACT */
      218     2562    1   DCL PAGE_MODIFIED REDEF HIGH_INDX SBIN ALIGNED; /* ELSE */
      219     2563    1   DCL OWNER_CNT SBIN WORD STATIC SYMDEF ALIGNED; /* BY COMPACT ONLY */
      220     2564    1   DCL LAST_BUF REDEF OWNER_CNT SBIN ALIGNED; /* AGAIN BY SORT INPUT PROC */
      221     2565    1   DCL CURR_LN SBIN STATIC SYMDEF ALIGNED;
      222     2566    1   DCL CURR_OWNER SBIN STATIC SYMDEF ALIGNED;
      223     2567    1   DCL CURR_DBK SBIN STATIC ALIGNED;
      224     2568    1   DCL DBKEY_SORT_DCB UBIN HALF SYMREF ALIGNED;
      225     2569    1   DCL PRIOR_DBK SBIN STATIC ALIGNED;
      226     2570    1   DCL NEXT_DBK SBIN STATIC ALIGNED;
      227     2571    1   DCL 1 KEY STATIC SYMDEF ALIGNED,
      228     2572    1         2 CNT UBIN BYTE UNAL INIT(5),
PL6.E3A0      #002=ZIU$PA_SORTIN File=ZIU$COMPACT.:ZIC0TSI                       FRI 09/05/97 13:10 Page:71
      229     2573    1         2 TXT UBIN WORD UNAL,
      230     2574    1         2 RC_PTR UBIN BYTE UNAL;
      231     2575    1   DCL REC_CNT SBIN WORD SYMREF ALIGNED;
      232     2576    1   DCL POOL_MAX SBIN WORD SYMREF ALIGNED;
      233     2577    1   DCL SWAP_PTR SBIN WORD SYMREF ALIGNED;
      234     2578    1   DCL 1 POOL(0:95) SYMREF ALIGNED,
      235     2579    1         2 MUST_WRITE BIT(1) UNAL,
      236     2580    1         2 LOCKS UBIN(9) UNAL,
      237     2581    1         2 PAGE# UBIN(26) UNAL;
      238     2582    1   DCL COMMAND_TEXT CHAR(9) SYMREF ALIGNED;
      239     2583
      240     2584    1   DCL 1 CURR_LEVEL(0:31) STATIC SYMDEF ALIGNED, /* RES 32 LEVEL(HUGE) */
      241     2585    1         2 DBK UBIN WORD ALIGNED,
      242     2586    1         2 FIRST_PA UBIN WORD ALIGNED, /* DBK OF FIRST PA IN EACH LEVEL */
      243     2587    1         2 ENT_NO UBIN HALF UNAL,
      244     2588    1         2 BUF_PTR UBIN BYTE UNAL,
      245     2589    1         2 * UBIN BYTE UNAL,
      246     2590    1         2 REC$ PTR ALIGNED;
      247     2591
      248     2592
      249     2593    1   DCL OSTK$ PTR STATIC ALIGNED;
      250     2594    1   DCL PASTK$ PTR STATIC SYMDEF ALIGNED;
      251     2595    1   DCL OWNER_STK(0:0) UBIN BASED(OSTK$) ALIGNED;
      252     2596    1   DCL 1 PAENT_STK BASED CALIGNED,
      253     2597    1         2 PA_DBK UBIN CALIGNED,
      254     2598    1         2 ENT CHAR(ENTRY_LEN) CALIGNED;
      255     2599    1   DCL PAENT_STK_SIZE UBIN STATIC SYMDEF ALIGNED;
      256     2600        %EJECT;
PL6.E3A0      #002=ZIU$PA_SORTIN File=ZIU$COMPACT.:ZIC0TSI                       FRI 09/05/97 13:10 Page:72
      257     2601        /*
      258     2602              SUBR  GET_PTR - EXTRACT POINTERS FROM DATA_REC
      259     2603        */
      260     2604    1   GET_PTR: PROC(POINTER,EIS);

   2604  4 000003   000251 741200 0     GET_PTR      STX1  ! PAENT_STK_SIZE+1

      261     2605
      262     2606    2   DCL POINTER UBIN WORD CALIGNED;
      263     2607    2   DCL 1 EIS ALIGNED,
      264     2608    2         2 * UBIN(3) UNAL,
      265     2609    2         2 OFST UBIN(17) UNAL,
      266     2610    2         2 * UBIN(4) UNAL,
      267     2611    2         2 SIZ UBIN(12) UNAL;
      268     2612    2   DCL PTR_TEMP SBIN STATIC ALIGNED;
      269     2613
      270     2614    2       REC2$=PINCRC(REC$,EIS.OFST);

   2614  4 000004   000253 470400 0                  LDP0    @EIS
         4 000005   000000 236100                    LDQ     0,,PR0
         4 000006   000020 772000                    QRL     16
         4 000007   377777 376007                    ANQ     131071,DL
         4 000010   000020 736000                    QLS     16
         4 000011   000000 036000 xsym               ADLQ    REC$
         4 000012   000000 756000 xsym               STQ     REC2$

      271     2615    2       PTR_LEN = EIS.SIZ; /* POINTER SIZE */

   2615  4 000013   000000 236100                    LDQ     0,,PR0
         4 000014   007777 376007                    ANQ     4095,DL
         4 000015   000000 756000 xsym               STQ     PTR_LEN
         4 000016   000020 710000 4                  TRA     s:2619

      272     2616
      273     2617    2   GET_PTR2: ENTRY(POINTER); /* ENTRY TO EXTRACT PRIOR AND OWNER PTRS */

   2617  4 000017   000251 741200 0     GET_PTR2     STX1  ! PAENT_STK_SIZE+1
PL6.E3A0      #002=ZIU$PA_SORTIN File=ZIU$COMPACT.:ZIC0TSI                       FRI 09/05/97 13:10 Page:73

      274     2618
      275     2619    2       POINTER=0; /* INIT THIS LOCATION */

   2619  4 000020   000252 470400 0                  LDP0    @POINTER
         4 000021   000100 100400                    MLR     fill='000'O
         4 000022   000000 000004 5                  ADSC9   0                        cn=0,n=4
         4 000023   000000 000004                    ADSC9   0,,PR0                   cn=0,n=4

      276     2620    2       PINCRC(ADDR(POINTER),4-PTR_LEN)->CHAR_V=REC2$->CHAR_V;

   2620  4 000024   000000 335000 xsym               LCA     PTR_LEN
         4 000025   000000 471400 xsym               LDP1    REC2$
         4 000026   000000 720000 xsym               LXL0    PTR_LEN
         4 000027   040145 100540                    MLR     fill='040'O
         4 000030   100000 000010                    ADSC9   0,,PR1                   cn=0,n=*X0
         4 000031   000001 000010                    ADSC9   1,A,PR0                  cn=0,n=*X0

      277     2621         /* BASE_DBK=0 IF SET IS LOCAL, >0 IF NOT AND IS BASE_DBK OF CURR AC */
      278     2622    2       IF POINTER>0 THEN /* IF POINTER=0,IT IS UNCONNECTED */

   2622  4 000032   000000 100500                    MLR     fill='000'O
         4 000033   000000 000004                    ADSC9   0,,PR0                   cn=0,n=4
         4 000034   000266 000004 0                  ADSC9   @FIND_TYPE+3             cn=0,n=4
         4 000035   000266 236000 0                  LDQ     @FIND_TYPE+3
         4 000036   000000 116003                    CMPQ    0,DU
         4 000037   000051 600000 4                  TZE     s:2624

      279     2623    2           POINTER = POINTER + BASE_DBK; /* OTHERWISE,ADJUST IT */

   2623  4 000040   000000 100500                    MLR     fill='000'O
         4 000041   000000 000004                    ADSC9   0,,PR0                   cn=0,n=4
         4 000042   000266 000004 0                  ADSC9   @FIND_TYPE+3             cn=0,n=4
         4 000043   000266 236000 0                  LDQ     @FIND_TYPE+3
         4 000044   000000 036000 xsym               ADLQ    BASE_DBK
         4 000045   000267 756000 0                  STQ     @FIND_TYPE+4
         4 000046   000100 100400                    MLR     fill='000'O
PL6.E3A0      #002=ZIU$PA_SORTIN File=ZIU$COMPACT.:ZIC0TSI                       FRI 09/05/97 13:10 Page:74
         4 000047   000267 000004 0                  ADSC9   @FIND_TYPE+4             cn=0,n=4
         4 000050   000000 000004                    ADSC9   0,,PR0                   cn=0,n=4

      280     2624    2       REC2$ = PINCRC(REC2$,PTR_LEN); /* POINTS TO PRIOR/OWNER PTRS */

   2624  4 000051   000000 236000 xsym               LDQ     PTR_LEN
         4 000052   000020 736000                    QLS     16
         4 000053   000000 036000 xsym               ADLQ    REC2$
         4 000054   000000 756000 xsym               STQ     REC2$

      281     2625    2       RETURN;

   2625  4 000055   000251 221200 0                  LDX1  ! PAENT_STK_SIZE+1
         4 000056   000001 702211                    TSX2  ! 1,X1

      282     2626
      283     2627    2   STORE_PTR: ENTRY(POINTER,EIS);

   2627  4 000057   000251 741200 0     STORE_PTR    STX1  ! PAENT_STK_SIZE+1

      284     2628
      285     2629    2       REC2$=PINCRC(REC$,EIS.OFST);

   2629  4 000060   000253 470400 0                  LDP0    @EIS
         4 000061   000000 236100                    LDQ     0,,PR0
         4 000062   000020 772000                    QRL     16
         4 000063   377777 376007                    ANQ     131071,DL
         4 000064   000020 736000                    QLS     16
         4 000065   000000 036000 xsym               ADLQ    REC$
         4 000066   000000 756000 xsym               STQ     REC2$

      286     2630    2       PTR_LEN = EIS.SIZ;

   2630  4 000067   000000 236100                    LDQ     0,,PR0
         4 000070   007777 376007                    ANQ     4095,DL
         4 000071   000000 756000 xsym               STQ     PTR_LEN
         4 000072   000074 710000 4                  TRA     s:2634
PL6.E3A0      #002=ZIU$PA_SORTIN File=ZIU$COMPACT.:ZIC0TSI                       FRI 09/05/97 13:10 Page:75

      287     2631
      288     2632    2   STORE_PTR2: ENTRY(POINTER);

   2632  4 000073   000251 741200 0     STORE_PTR2   STX1  ! PAENT_STK_SIZE+1

      289     2633
      290     2634    2       PTR_TEMP = POINTER - BASE_DBK; /* CONV TO LOCAL IF SET IS LOCAL */

   2634  4 000074   000252 470400 0                  LDP0    @POINTER
         4 000075   000000 100500                    MLR     fill='000'O
         4 000076   000000 000004                    ADSC9   0,,PR0                   cn=0,n=4
         4 000077   000266 000004 0                  ADSC9   @FIND_TYPE+3             cn=0,n=4
         4 000100   000266 236000 0                  LDQ     @FIND_TYPE+3
         4 000101   000000 136000 xsym               SBLQ    BASE_DBK
         4 000102   000254 756000 0                  STQ     PTR_TEMP

      291     2635    2       REC2$->CHAR_V=PINCRC(ADDR(PTR_TEMP),4-PTR_LEN)->CHAR_V;

   2635  4 000103   000000 335000 xsym               LCA     PTR_LEN
         4 000104   000000 720000 xsym               LXL0    PTR_LEN
         4 000105   000000 471400 xsym               LDP1    REC2$
         4 000106   040140 100445                    MLR     fill='040'O
         4 000107   000255 000010 0                  ADSC9   PTR_TEMP+1,A             cn=0,n=*X0
         4 000110   100000 000010                    ADSC9   0,,PR1                   cn=0,n=*X0

      292     2636    2       REC2$ = PINCRC(REC2$,PTR_LEN);

   2636  4 000111   000000 236000 xsym               LDQ     PTR_LEN
         4 000112   000020 736000                    QLS     16
         4 000113   000000 036000 xsym               ADLQ    REC2$
         4 000114   000000 756000 xsym               STQ     REC2$

      293     2637    2   END GET_PTR;

   2637  4 000115   000251 221200 0                  LDX1  ! PAENT_STK_SIZE+1
         4 000116   000001 702211                    TSX2  ! 1,X1
PL6.E3A0      #002=ZIU$PA_SORTIN File=ZIU$COMPACT.:ZIC0TSI                       FRI 09/05/97 13:10 Page:76

      294     2638        %EJECT;
PL6.E3A0      #002=ZIU$PA_SORTIN File=ZIU$COMPACT.:ZIC0TSI                       FRI 09/05/97 13:10 Page:77
      295     2639        /*
      296     2640              SUBR  READ_NEXT_BLOCK  - READ A BLOCK OF PAGES WITH NO WAIT
      297     2641                    RETURN WITH AC_PTR AND DATA$ AND SET CURR_LN TO 0
      298     2642        */
      299     2643    1   READ_NEXT_BLOCK: PROC ALTRET;

   2643  4 000117   000255 741200 0     READ_NEXT_B* STX1  ! PTR_TEMP+1

      300     2644
      301     2645    2       AC_PTR = LAST.AC_PTR(BUF_PTR); /* AC THAT WAS READ LAST TIME */

   2645  4 000120   000032 235000 0                  LDA     BUF_PTR
         4 000121   000001 735000                    ALS     1
         4 000122   000026 236005 0                  LDQ     LAST,AL
         4 000123   000033 732000                    QRS     27
         4 000124   000000 756000 xsym               STQ     AC_PTR

      302     2646    2       RB = LAST.RB(BUF_PTR); /* STARTING PAGE # */

   2646  4 000125   000027 236005 0                  LDQ     LAST+1,AL
         4 000126   000026 235005 0                  LDA     LAST,AL
         4 000127   000033 773000                    LRL     27
         4 000130   000001 376000 5                  ANQ     1
         4 000131   000000 756000 xsym               STQ     RB

      303     2647    2       LAST.RB(BUF_PTR)=RB + LAST.PAGES_READ(BUF_PTR);

   2647  4 000132   000032 235000 0                  LDA     BUF_PTR
         4 000133   000001 735000                    ALS     1
         4 000134   000026 236005 0                  LDQ     LAST,AL
         4 000135   000022 772000                    QRL     18
         4 000136   000777 376007                    ANQ     511,DL
         4 000137   000000 036000 xsym               ADLQ    RB
         4 000140   000266 756000 0                  STQ     @FIND_TYPE+3
         4 000141   000002 735000                    ALS     2
         4 000142   000005 101400                    MRL     fill='000'O
         4 000143   000266 000004 0                  ADSC9   @FIND_TYPE+3             cn=0,n=4
PL6.E3A0      #002=ZIU$PA_SORTIN File=ZIU$COMPACT.:ZIC0TSI                       FRI 09/05/97 13:10 Page:78
         4 000144   000026 400003 0                  ADSC9   LAST,A                   cn=2,n=3

      304     2648    2       RE = LAST.RB(BUF_PTR) - 1;

   2648  4 000145   000032 235000 0                  LDA     BUF_PTR
         4 000146   000001 735000                    ALS     1
         4 000147   000027 236005 0                  LDQ     LAST+1,AL
         4 000150   000026 235005 0                  LDA     LAST,AL
         4 000151   000033 773000                    LRL     27
         4 000152   000001 376000 5                  ANQ     1
         4 000153   000001 136007                    SBLQ    1,DL
         4 000154   000000 756000 xsym               STQ     RE

      305     2649    2       CURR_LN = -1;

   2649  4 000155   000001 335007                    LCA     1,DL
         4 000156   000037 755000 0                  STA     CURR_LN

      306     2650    2       OUT_INDX = BUF_PTR * NBUFS;

   2650  4 000157   000032 236000 0                  LDQ     BUF_PTR
         4 000160   000000 402000 xsym               MPY     NBUFS
         4 000161   000000 756000 xsym               STQ     OUT_INDX

      307     2651    2       DATA$ = ADDR(I_O_BUF(OUT_INDX));

   2651  4 000162   000034 736000                    QLS     28
         4 000163   000000 036000 xsym               ADLQ    I_O_BUF$
         4 000164   000000 756000 xsym               STQ     DATA$

      308     2652         /* NOW SWITCH BUF_PTR TO THE NEXT BUF */
      309     2653    2       LAST_BUF = BUF_PTR; /* AND REMBER IT(IT IS TO BE PROCESSED) */

   2653  4 000165   000032 235000 0                  LDA     BUF_PTR
         4 000166   000036 755000 0                  STA     OWNER_CNT

      310     2654    2       BUF_PTR = 1 - BUF_PTR; /* NOTE: BUF_PTR IS EITHER 0 OR 1 */
PL6.E3A0      #002=ZIU$PA_SORTIN File=ZIU$COMPACT.:ZIC0TSI                       FRI 09/05/97 13:10 Page:79

   2654  4 000167   000002 675000 5                  ERA     2
         4 000170   000002 035007                    ADLA    2,DL
         4 000171   000032 755000 0                  STA     BUF_PTR

      311     2655         /* BUF_PTR POINT TO THE BLOCK THAT JUST FINISHED PROCESSING */
      312     2656    2       PAGE_MODIFIED=0; /* RESET FLAG */

   2656  4 000172   000035 450000 0                  STZ     HIGH_INDX

      313     2657    2       IF MUST_WRITE=1 THEN /* HAPPEN IF WE REBUILD PA INDICES */

   2657  4 000173   000034 235000 0                  LDA     LOW_INDX
         4 000174   000001 115007                    CMPA    1,DL
         4 000175   000262 601000 4                  TNZ     s:2671

      314     2658    3       DO;

      315     2659    3           MUST_WRITE=0; /* RESET FLAG */

   2659  4 000176   000034 450000 0                  STZ     LOW_INDX

      316     2660    3           DCBSF=AC_TBL.DCB#(LAST.AC_PTR(BUF_PTR));

   2660  4 000177   000032 235000 0                  LDA     BUF_PTR
         4 000200   000001 735000                    ALS     1
         4 000201   000026 236005 0                  LDQ     LAST,AL
         4 000202   000033 732000                    QRS     27
         4 000203   000014 402007                    MPY     12,DL
         4 000204   000013 720006 xsym               LXL0    AC_TBL+11,QL
         4 000205   000377 360003                    ANX0    255,DU
         4 000206   000000 740000 xsym               STX0    DCBSF

      317     2661    3           BUFLNSF=4096*LAST.PAGES_READ(BUF_PTR);

   2661  4 000207   000032 235000 0                  LDA     BUF_PTR
         4 000210   000001 735000                    ALS     1
PL6.E3A0      #002=ZIU$PA_SORTIN File=ZIU$COMPACT.:ZIC0TSI                       FRI 09/05/97 13:10 Page:80
         4 000211   000026 236005 0                  LDQ     LAST,AL
         4 000212   000006 772000                    QRL     6
         4 000213   000003 376000 5                  ANQ     3
         4 000214   000000 756000 xsym               STQ     BUFLNSF

      318     2662    3           KEYVSF.IDSKEY=LAST.RB(BUF_PTR)-LAST.PAGES_READ(BUF_PTR);

   2662  4 000215   000026 236005 0                  LDQ     LAST,AL
         4 000216   000022 772000                    QRL     18
         4 000217   000777 376007                    ANQ     511,DL
         4 000220   000266 756000 0                  STQ     @FIND_TYPE+3
         4 000221   000027 236005 0                  LDQ     LAST+1,AL
         4 000222   000026 235005 0                  LDA     LAST,AL
         4 000223   000033 773000                    LRL     27
         4 000224   000001 376000 5                  ANQ     1
         4 000225   000266 136000 0                  SBLQ    @FIND_TYPE+3
         4 000226   000267 756000 0                  STQ     @FIND_TYPE+4
         4 000227   000000 100400                    MLR     fill='000'O
         4 000230   000267 000004 0                  ADSC9   @FIND_TYPE+4             cn=0,n=4
         4 000231   000000 200004 xsym               ADSC9   KEYVSF                   cn=1,n=4

      319     2663    3           BUFSF=VECTOR(I_O_BUF(NBUFS-OUT_INDX));

   2663  4 000232   000000 236000 xsym               LDQ     NBUFS
         4 000233   000000 136000 xsym               SBLQ    OUT_INDX
         4 000234   000004 235000 5                  LDA     4
         4 000235   000034 736000                    QLS     28
         4 000236   000000 036000 xsym               ADLQ    I_O_BUF$
         4 000237   000000 755000 xsym               STA     BUFSF
         4 000240   000001 756000 xsym               STQ     BUFSF+1

      320     2664    3           KEYSF=%YES#;

   2664  4 000241   400000 236003                    LDQ     -131072,DU
         4 000242   000000 756000 xsym               STQ     KEYSF

      321     2665    3           WAITSF=%YES#;
PL6.E3A0      #002=ZIU$PA_SORTIN File=ZIU$COMPACT.:ZIC0TSI                       FRI 09/05/97 13:10 Page:81

   2665  4 000243   000000 756000 xsym               STQ     WAITSF

      322     2666    3           FULLSF=%YES#;

   2666  4 000244   000000 756000 xsym               STQ     FULLSF

      323     2667    3           KEYVSF.LEN=4;

   2667  4 000245   004000 236003                    LDQ     2048,DU
         4 000246   000000 552040 xsym               STBQ    KEYVSF,'40'O

      324     2668    3           AC_TBL.PAGE_WRITTEN(LAST.AC_PTR(BUF_PTR))='1'B;

   2668  4 000247   000032 235000 0                  LDA     BUF_PTR
         4 000250   000001 735000                    ALS     1
         4 000251   000026 236005 0                  LDQ     LAST,AL
         4 000252   000033 732000                    QRS     27
         4 000253   000014 402007                    MPY     12,DL
         4 000254   000000 622006                    EAX2    0,QL
         4 000255   000200 236003                    LDQ     128,DU
         4 000256   000013 256012 xsym               ORSQ    AC_TBL+11,X2

      325     2669    3           CALL SYS_FUNC_WRIT ALTRET(ALT);

   2669  4 000257   000000 631400 5                  EPPR1   0
         4 000260   000000 701000 xent               TSX1    SYS_FUNC_WRIT
         4 000261   000500 702000 4                  TSX2    ALT

      326     2670    3           END; /* WE MAY HAVE ERASED A BOUNCH OF PA_REC */

      327     2671    2       IF FIRST_TIME_CALLED=2 THEN

   2671  4 000262   000000 235000 xsym               LDA     FIRST_TIME_CALLED
         4 000263   000002 115007                    CMPA    2,DL
         4 000264   000267 601000 4                  TNZ     s:2673

PL6.E3A0      #002=ZIU$PA_SORTIN File=ZIU$COMPACT.:ZIC0TSI                       FRI 09/05/97 13:10 Page:82
      328     2672    2           ALTRETURN; /* ALL DONE */

   2672  4 000265   000255 221200 0                  LDX1  ! PTR_TEMP+1
         4 000266   000000 702211                    TSX2  ! 0,X1

      329     2673    2       LAST(BUF_PTR) = LAST(LAST_BUF); /* CARRY OLD INFO OVER */

   2673  4 000267   000032 236000 0                  LDQ     BUF_PTR
         4 000270   000001 736000                    QLS     1
         4 000271   000036 235000 0                  LDA     OWNER_CNT
         4 000272   000001 735000                    ALS     1
         4 000273   000000 620006                    EAX0    0,QL
         4 000274   000026 237005 0                  LDAQ    LAST,AL
         4 000275   000026 757010 0                  STAQ    LAST,X0

      330     2674    2       IF AC_PTR >= 0 THEN /* NOT THE FIRST READ */

   2674  4 000276   000000 235000 xsym               LDA     AC_PTR
         4 000277   000310 604000 4                  TMI     s:2680

      331     2675    3       DO;

      332     2676    3           DCBSF = AC_TBL.DCB#(AC_PTR);

   2676  4 000300   000000 236000 xsym               LDQ     AC_PTR
         4 000301   000014 402007                    MPY     12,DL
         4 000302   000013 721006 xsym               LXL1    AC_TBL+11,QL
         4 000303   000377 361003                    ANX1    255,DU
         4 000304   000000 741000 xsym               STX1    DCBSF

      333     2677    3           CALL SYS_FUNC_CHECK ALTRET(ALT); /* MAKE SURE LAST IO DONE */

   2677  4 000305   000000 631400 5                  EPPR1   0
         4 000306   000000 701000 xent               TSX1    SYS_FUNC_CHECK
         4 000307   000500 702000 4                  TSX2    ALT

      334     2678    3           END;
PL6.E3A0      #002=ZIU$PA_SORTIN File=ZIU$COMPACT.:ZIC0TSI                       FRI 09/05/97 13:10 Page:83

      335     2679
      336     2680    2       IF BREAK_FLAG>0 THEN

   2680  4 000310   000000 235000 xsym               LDA     BREAK_FLAG
         4 000311   000320 604400 4                  TMOZ    s:2683

      337     2681    2           UNWIND TO BREAK_CLEANUP;

   2681  4 000312   000000 100600                    MLR   ! fill='000'O
         4 000313   000007 000010 0                  ADSC9   BREAK_CLEANUP            cn=0,n=8
         4 000314   000266 000010 0                  ADSC9   @FIND_TYPE+3             cn=0,n=8
         4 000315   000266 237200 0                  LDAQ  ! @FIND_TYPE+3
         4 000316   000000 700200 xent               TSX0  ! X66_SUNWIND
         4 000317   000000 000200                    ZERO    0,128

      338     2682
      339     2683    2       IF LAST.PAGES_LEFT(LAST_BUF)=0 THEN /* DONE READING A AREA */

   2683  4 000320   000036 236000 0                  LDQ     OWNER_CNT
         4 000321   000001 736000                    QLS     1
         4 000322   000027 236006 0                  LDQ     LAST+1,QL
         4 000323   000001 316000 5                  CANQ    1
         4 000324   000404 601000 4                  TNZ     s:2699

      340     2684    3       DO;

      341     2685    3           X = LAST.AC_PTR(LAST_BUF)+1;

   2685  4 000325   000036 236000 0                  LDQ     OWNER_CNT
         4 000326   000001 736000                    QLS     1
         4 000327   000026 236006 0                  LDQ     LAST,QL
         4 000330   000033 732000                    QRS     27
         4 000331   000001 036007                    ADLQ    1,DL
         4 000332   000000 756000 xsym               STQ     X

      342     2686    4           DO WHILE( X<=NO_AREAS AND AC_TBL.RANGE_HIGH(X)=0);
PL6.E3A0      #002=ZIU$PA_SORTIN File=ZIU$COMPACT.:ZIC0TSI                       FRI 09/05/97 13:10 Page:84

   2686  4 000333   000335 710000 4                  TRA     s:2688

      343     2687    4               X = X + 1;

   2687  4 000334   000000 054000 xsym               AOS     X

      344     2688    4               END;

   2688  4 000335   000000 236000 xsym               LDQ     X
         4 000336   000000 116000 xsym               CMPQ    NO_AREAS
         4 000337   000343 605400 4                  TPNZ    s:2689
         4 000340   000014 402007                    MPY     12,DL
         4 000341   000002 235006 xsym               LDA     AC_TBL+2,QL
         4 000342   000334 600000 4                  TZE     s:2687

      345     2689    3           IF X > NO_AREAS THEN

   2689  4 000343   000000 236000 xsym               LDQ     X
         4 000344   000000 116000 xsym               CMPQ    NO_AREAS
         4 000345   000352 604400 4                  TMOZ    s:2695

      346     2690    4           DO;

      347     2691    4               FIRST_TIME_CALLED=2;

   2691  4 000346   000002 235007                    LDA     2,DL
         4 000347   000000 755000 xsym               STA     FIRST_TIME_CALLED

      348     2692         /* MARK DONE READING DB,BUT 1 BLOCK TO PROCESS */
      349     2693    4               RETURN; /* SO NO MORE READING */

   2693  4 000350   000255 221200 0                  LDX1  ! PTR_TEMP+1
         4 000351   000001 702211                    TSX2  ! 1,X1

      350     2694    4               END;
      351     2695    3           LAST.AC_PTR(BUF_PTR)=X; /* NEXT READ THIS AREA */
PL6.E3A0      #002=ZIU$PA_SORTIN File=ZIU$COMPACT.:ZIC0TSI                       FRI 09/05/97 13:10 Page:85

   2695  4 000352   000032 235000 0                  LDA     BUF_PTR
         4 000353   000001 735000                    ALS     1
         4 000354   000033 736000                    QLS     27
         4 000355   000026 676005 0                  ERQ     LAST,AL
         4 000356   777000 376003                    ANQ     -512,DU
         4 000357   000026 656005 0                  ERSQ    LAST,AL

      352     2696    3           LAST.PAGES_LEFT(BUF_PTR)=AC_TBL.RANGE_HIGH(X)-AC_TBL.RANGE_LOW(X)+1;

   2696  4 000360   000000 236000 xsym               LDQ     X
         4 000361   000000 620005                    EAX0    0,AL
         4 000362   000014 402007                    MPY     12,DL
         4 000363   000000 621006                    EAX1    0,QL
         4 000364   000002 236011 xsym               LDQ     AC_TBL+2,X1
         4 000365   000001 136011 xsym               SBLQ    AC_TBL+1,X1
         4 000366   000001 036007                    ADLQ    1,DL
         4 000367   000027 676010 0                  ERQ     LAST+1,X0
         4 000370   000001 376000 5                  ANQ     1
         4 000371   000027 656010 0                  ERSQ    LAST+1,X0

      353     2697    3           LAST.RB(BUF_PTR)=AC_TBL.RANGE_LOW(X);

   2697  4 000372   000032 235000 0                  LDA     BUF_PTR
         4 000373   000001 735000                    ALS     1
         4 000374   000000 236000 xsym               LDQ     X
         4 000375   000000 620005                    EAX0    0,AL
         4 000376   000060 402007                    MPY     48,DL
         4 000377   000000 635010                    EAA     0,X0
         4 000400   000020 731000                    ARS     16
         4 000401   000005 101406                    MRL     fill='000'O
         4 000402   000001 000004 xsym               ADSC9   AC_TBL+1,Q               cn=0,n=4
         4 000403   000026 400003 0                  ADSC9   LAST,A                   cn=2,n=3

      354     2698    3           END;

      355     2699    2       DCBSF = AC_TBL.DCB#(LAST.AC_PTR(BUF_PTR));
PL6.E3A0      #002=ZIU$PA_SORTIN File=ZIU$COMPACT.:ZIC0TSI                       FRI 09/05/97 13:10 Page:86

   2699  4 000404   000032 235000 0                  LDA     BUF_PTR
         4 000405   000001 735000                    ALS     1
         4 000406   000026 236005 0                  LDQ     LAST,AL
         4 000407   000033 732000                    QRS     27
         4 000410   000014 402007                    MPY     12,DL
         4 000411   000013 720006 xsym               LXL0    AC_TBL+11,QL
         4 000412   000377 360003                    ANX0    255,DU
         4 000413   000000 740000 xsym               STX0    DCBSF

      356     2700
      357     2701    2       IF LAST.PAGES_LEFT(BUF_PTR) > NBUFS THEN

   2701  4 000414   000032 235000 0                  LDA     BUF_PTR
         4 000415   000001 735000                    ALS     1
         4 000416   000027 236005 0                  LDQ     LAST+1,AL
         4 000417   000001 376000 5                  ANQ     1
         4 000420   000000 116000 xsym               CMPQ    NBUFS
         4 000421   000436 604400 4                  TMOZ    s:2708

      358     2702    3       DO;

      359     2703    3           LAST.PAGES_READ(BUF_PTR)=NBUFS; /* READ A FULL BLOCK */

   2703  4 000422   000000 236000 xsym               LDQ     NBUFS
         4 000423   000022 736000                    QLS     18
         4 000424   000026 676005 0                  ERQ     LAST,AL
         4 000425   000777 376003                    ANQ     511,DU
         4 000426   000026 656005 0                  ERSQ    LAST,AL

      360     2704    3           LAST.PAGES_LEFT(BUF_PTR)=LAST.PAGES_LEFT(BUF_PTR)-NBUFS;

   2704  4 000427   000027 236005 0                  LDQ     LAST+1,AL
         4 000430   000001 376000 5                  ANQ     1
         4 000431   000000 136000 xsym               SBLQ    NBUFS
         4 000432   000027 676005 0                  ERQ     LAST+1,AL
         4 000433   000001 376000 5                  ANQ     1
PL6.E3A0      #002=ZIU$PA_SORTIN File=ZIU$COMPACT.:ZIC0TSI                       FRI 09/05/97 13:10 Page:87
         4 000434   000027 656005 0                  ERSQ    LAST+1,AL

      361     2705    3           END;

   2705  4 000435   000445 710000 4                  TRA     s:2711

      362     2706    2       ELSE
      363     2707    3       DO;

      364     2708    3           LAST.PAGES_READ(BUF_PTR)=LAST.PAGES_LEFT(BUF_PTR);

   2708  4 000436   000027 236005 0                  LDQ     LAST+1,AL
         4 000437   000022 736000                    QLS     18
         4 000440   000026 676005 0                  ERQ     LAST,AL
         4 000441   000777 376003                    ANQ     511,DU
         4 000442   000026 656005 0                  ERSQ    LAST,AL

      365     2709    3           LAST.PAGES_LEFT(BUF_PTR)=0;

   2709  4 000443   777000 236003                    LDQ     -512,DU
         4 000444   000027 356005 0                  ANSQ    LAST+1,AL

      366     2710    3           END;

      367     2711    2       BUFLNSF = 4096 * LAST.PAGES_READ(BUF_PTR);

   2711  4 000445   000026 236005 0                  LDQ     LAST,AL
         4 000446   000006 772000                    QRL     6
         4 000447   000003 376000 5                  ANQ     3
         4 000450   000000 756000 xsym               STQ     BUFLNSF

      368     2712    2       KEYSF = %YES#;

   2712  4 000451   400000 236003                    LDQ     -131072,DU
         4 000452   000000 756000 xsym               STQ     KEYSF

      369     2713    2       KEYVSF.LEN = 4;
PL6.E3A0      #002=ZIU$PA_SORTIN File=ZIU$COMPACT.:ZIC0TSI                       FRI 09/05/97 13:10 Page:88

   2713  4 000453   004000 236003                    LDQ     2048,DU
         4 000454   000000 552040 xsym               STBQ    KEYVSF,'40'O

      370     2714    2       KEYVSF.IDSKEY = LAST.RB(BUF_PTR);

   2714  4 000455   000002 735000                    ALS     2
         4 000456   000000 101405                    MRL     fill='000'O
         4 000457   000026 400003 0                  ADSC9   LAST,A                   cn=2,n=3
         4 000460   000000 200004 xsym               ADSC9   KEYVSF                   cn=1,n=4

      371     2715    2       FULLSF = %YES#;

   2715  4 000461   400000 236003                    LDQ     -131072,DU
         4 000462   000000 756000 xsym               STQ     FULLSF

      372     2716    2       WAITSF = %NO#; /* NO WAIT */

   2716  4 000463   000000 450000 xsym               STZ     WAITSF

      373     2717    2       BUFSF = VECTOR(I_O_BUF(NBUFS-OUT_INDX));

   2717  4 000464   000000 236000 xsym               LDQ     NBUFS
         4 000465   000000 136000 xsym               SBLQ    OUT_INDX
         4 000466   000004 235000 5                  LDA     4
         4 000467   000034 736000                    QLS     28
         4 000470   000000 036000 xsym               ADLQ    I_O_BUF$
         4 000471   000000 755000 xsym               STA     BUFSF
         4 000472   000001 756000 xsym               STQ     BUFSF+1

      374     2718
      375     2719    2       CALL SYS_FUNC_READ ALTRET(ALT);

   2719  4 000473   000000 631400 5                  EPPR1   0
         4 000474   000000 701000 xent               TSX1    SYS_FUNC_READ
         4 000475   000500 702000 4                  TSX2    ALT

PL6.E3A0      #002=ZIU$PA_SORTIN File=ZIU$COMPACT.:ZIC0TSI                       FRI 09/05/97 13:10 Page:89
      376     2720
      377     2721    2       RETURN;

   2721  4 000476   000255 221200 0                  LDX1  ! PTR_TEMP+1
         4 000477   000001 702211                    TSX2  ! 1,X1

      378     2722    2   ALT: UNWIND TO BREAK_CLEANUP;

   2722  4 000500   000000 100600       ALT          MLR   ! fill='000'O
         4 000501   000007 000010 0                  ADSC9   BREAK_CLEANUP            cn=0,n=8
         4 000502   000266 000010 0                  ADSC9   @FIND_TYPE+3             cn=0,n=8
         4 000503   000266 237200 0                  LDAQ  ! @FIND_TYPE+3
         4 000504   000000 700200 xent               TSX0  ! X66_SUNWIND
         4 000505   000000 000200                    ZERO    0,128

      379     2723    2   END READ_NEXT_BLOCK;
      380     2724        %EJECT;
PL6.E3A0      #002=ZIU$PA_SORTIN File=ZIU$COMPACT.:ZIC0TSI                       FRI 09/05/97 13:10 Page:90
      381     2725    1       IF FIRST_TIME_CALLED=0 THEN /* YES! */

   2725  4 000506   000000 235000 xsym               LDA     FIRST_TIME_CALLED
         4 000507   000544 601000 4                  TNZ     CHECK_REC_TYPE

      382     2726    2       DO;

      383     2727    2           FIRST_TIME_CALLED = 1; /* RESET SWITCH */

   2727  4 000510   000001 236007                    LDQ     1,DL
         4 000511   000000 756000 xsym               STQ     FIRST_TIME_CALLED

      384     2728    3           DO X=0 TO NO_SETS;

   2728  4 000512   000000 450000 xsym               STZ     X
         4 000513   000525 710000 4                  TRA     s:2730+1

      385     2729    3               SC_TBL.COUNT(X)=0; /* INIT COUNTER BEFORE START */

   2729  4 000514   000000 236000 xsym               LDQ     X
         4 000515   000405 402007                    MPY     261,DL
         4 000516   000000 116003                    CMPQ    0,DU
         4 000517   000521 605000 4                  TPL     s:2729+5
         4 000520   000044 036003                    ADLQ    36,DU
         4 000521   003006 061400                    CSR     bolr='003'O
         4 000522   000000 000044 5                  BDSC    0                        by=0,bit=0,n=36
         4 000523   000006 450022 xsym               BDSC    SC_TBL+6,Q               by=2,bit=5,n=18

      386     2730    3               END;

   2730  4 000524   000000 054000 xsym               AOS     X
         4 000525   000000 236000 xsym               LDQ     X
         4 000526   000000 116000 xsym               CMPQ    NO_SETS
         4 000527   000514 604400 4                  TMOZ    s:2729

      387     2731    2           BUF_PTR = 1;

PL6.E3A0      #002=ZIU$PA_SORTIN File=ZIU$COMPACT.:ZIC0TSI                       FRI 09/05/97 13:10 Page:91
   2731  4 000530   000001 235007                    LDA     1,DL
         4 000531   000032 755000 0                  STA     BUF_PTR

      388     2732    2           MUST_WRITE=0; /* MARK NO NEED TO WRITE LAST BLOCK,CAUSE NO SUCH */

   2732  4 000532   000034 450000 0                  STZ     LOW_INDX

      389     2733    2           LAST.AC_PTR(1) = -1;

   2733  4 000533   777000 236003                    LDQ     -512,DU
         4 000534   000030 552040 0                  STBQ    LAST+2,'40'O

      390     2734    2           LAST.PAGES_LEFT(1) = 0; /* MAKE A PSUDO READ PENDING */

   2734  4 000535   000000 236003                    LDQ     0,DU
         4 000536   000031 552034 0                  STBQ    LAST+3,'34'O

      391     2735    2           CALL READ_NEXT_BLOCK ALTRET(ALL_DONE); /* INIT THE FIRST NO-WAIT READ */

   2735  4 000537   000117 701000 4                  TSX1    READ_NEXT_BLOCK
         4 000540   000722 702000 4                  TSX2    ALL_DONE

      392     2736    2           CALL READ_NEXT_BLOCK; /* START NEXT READ */

   2736  4 000541   000117 701000 4                  TSX1    READ_NEXT_BLOCK
         4 000542   000000 011000                    NOP     0

      393     2737    2           GOTO GET_NEXT_LINE;

   2737  4 000543   000550 710000 4                  TRA     GET_NEXT_LINE

      394     2738    2           END;
      395     2739        %EJECT;
PL6.E3A0      #002=ZIU$PA_SORTIN File=ZIU$COMPACT.:ZIC0TSI                       FRI 09/05/97 13:10 Page:92
      396     2740    1   CHECK_REC_TYPE: /* IF RC_PTR > 0 THEN WE GOT A PA_MEM */
      397     2741    1       IF RC_PTR = 0 THEN /* THIS REC IS NOT WHAT WE WANT */

   2741  4 000544   000000 235000 xsym  CHECK_REC_T* LDA     RC_PTR
         4 000545   000550 600000 4                  TZE     GET_NEXT_LINE

      398     2742    1           GOTO GET_NEXT_LINE;
      399     2743    1       IF RC_PTR > 0 THEN /* FOUND A MEMBER */

   2743  4 000546   001030 605400 4                  TPNZ    FIND_A_MEMBER

      400     2744    1           GOTO FIND_A_MEMBER;
      401     2745    1       GOTO ERASE_IT; /* FOUND A PA_REC TO BE ERASED */

   2745  4 000547   000646 710000 4                  TRA     ERASE_IT

      402     2746    1   GET_NEXT_LINE:
      403     2747    1       CURR_LN = CURR_LN + 1;

   2747  4 000550   000037 054000 0     GET_NEXT_LI* AOS     CURR_LN

      404     2748    1       IF CURR_LN > DATA_PG.OFF_LN.SEC THEN

   2748  4 000551   000000 470400 xsym               LDP0    DATA$
         4 000552   000005 236100                    LDQ     5,,PR0
         4 000553   777777 376007                    ANQ     -1,DL
         4 000554   000037 116000 0                  CMPQ    CURR_LN
         4 000555   000611 604000 4                  TMI     GET_NEXT_PAGE

      405     2749    1           GOTO GET_NEXT_PAGE;
      406     2750    1       X = DATA_PG.ACT_DATA_18(2035-CURR_LN); /* X = OFFSET */

   2750  4 000556   000037 335000 0                  LCA     CURR_LN
         4 000557   000001 735000                    ALS     1
         4 000560   000000 100505                    MLR     fill='000'O
         4 000561   001777 400002                    ADSC9   1023,A,PR0               cn=2,n=2
         4 000562   000266 000004 0                  ADSC9   @FIND_TYPE+3             cn=0,n=4
PL6.E3A0      #002=ZIU$PA_SORTIN File=ZIU$COMPACT.:ZIC0TSI                       FRI 09/05/97 13:10 Page:93
         4 000563   000266 236000 0                  LDQ     @FIND_TYPE+3
         4 000564   000022 732000                    QRS     18
         4 000565   000000 756000 xsym               STQ     X

      407     2751    1       IF X<12 THEN /* NO RECORD THERE */

   2751  4 000566   000014 116007                    CMPQ    12,DL
         4 000567   000550 604000 4                  TMI     GET_NEXT_LINE

      408     2752    1           GOTO GET_NEXT_LINE;
      409     2753    1       REC$ = PINCRC(DATA$,12+X);

   2753  4 000570   000020 736000                    QLS     16
         4 000571   000003 036003                    ADLQ    3,DU
         4 000572   000000 036000 xsym               ADLQ    DATA$
         4 000573   000000 756000 xsym               STQ     REC$

      410     2754    1       RC_PTR = TYPE.MSTRINDX(REC_FRMT.TYPE);

   2754  4 000574   000000 471400 xsym               LDP1    REC$
         4 000575   003000 061500                    CSR     bolr='003'O
         4 000576   100000 060014                    BDSC    0,,PR1                   by=0,bit=6,n=12
         4 000577   000266 000044 0                  BDSC    @FIND_TYPE+3             by=0,bit=0,n=36
         4 000600   000266 236000 0                  LDQ     @FIND_TYPE+3
         4 000601   000001 736000                    QLS     1
         4 000602   000000 100406                    MLR     fill='000'O
         4 000603   000000 000002 xsym               ADSC9   TYPE,Q                   cn=0,n=2
         4 000604   000267 000004 0                  ADSC9   @FIND_TYPE+4             cn=0,n=4
         4 000605   000267 236000 0                  LDQ     @FIND_TYPE+4
         4 000606   000022 732000                    QRS     18
         4 000607   000000 756000 xsym               STQ     RC_PTR

      411     2755    1       GOTO CHECK_REC_TYPE;

   2755  4 000610   000544 710000 4                  TRA     CHECK_REC_TYPE

      412     2756    1   GET_NEXT_PAGE:
PL6.E3A0      #002=ZIU$PA_SORTIN File=ZIU$COMPACT.:ZIC0TSI                       FRI 09/05/97 13:10 Page:94
      413     2757    1       IF PAGE_MODIFIED=1 AND AC_TBL.CHECKSUM(AC_PTR) THEN

   2757  4 000611   000035 235000 0     GET_NEXT_PA* LDA     HIGH_INDX
         4 000612   000001 115007                    CMPA    1,DL
         4 000613   000627 601000 4                  TNZ     s:2762
         4 000614   000000 236000 xsym               LDQ     AC_PTR
         4 000615   000014 402007                    MPY     12,DL
         4 000616   000013 236006 xsym               LDQ     AC_TBL+11,QL
         4 000617   000400 316007                    CANQ    256,DL
         4 000620   000627 600000 4                  TZE     s:2762

      414     2758    2       DO;

      415     2759    2           CALL CHKSUM;

   2759  4 000621   000000 631400 5                  EPPR1   0
         4 000622   000000 701000 xent               TSX1    CHKSUM
         4 000623   000000 011000                    NOP     0

      416     2760    2           DATA_PG.CHKSUM_WD=ICHKSUM;

   2760  4 000624   000000 470400 xsym               LDP0    DATA$
         4 000625   000000 235000 xsym               LDA     ICHKSUM
         4 000626   000002 755100                    STA     2,,PR0

      417     2761    2           END;

      418     2762    1       IF RB = RE THEN

   2762  4 000627   000000 236000 xsym               LDQ     RB
         4 000630   000000 116000 xsym               CMPQ    RE
         4 000631   000635 601000 4                  TNZ     s:2765

      419     2763    1           CALL READ_NEXT_BLOCK ALTRET(ALL_DONE);

   2763  4 000632   000117 701000 4                  TSX1    READ_NEXT_BLOCK
         4 000633   000722 702000 4                  TSX2    ALL_DONE
PL6.E3A0      #002=ZIU$PA_SORTIN File=ZIU$COMPACT.:ZIC0TSI                       FRI 09/05/97 13:10 Page:95
         4 000634   000644 710000 4                  TRA     s:2769

      420     2764    2       ELSE DO;

      421     2765    2           CURR_LN = -1;

   2765  4 000635   000001 335007                    LCA     1,DL
         4 000636   000037 755000 0                  STA     CURR_LN

      422     2766    2           RB = RB + 1;

   2766  4 000637   000001 036007                    ADLQ    1,DL
         4 000640   000000 756000 xsym               STQ     RB

      423     2767    2           DATA$ = PINCRW(DATA$,1024);

   2767  4 000641   000000 236000 xsym               LDQ     DATA$
         4 000642   002000 036003                    ADLQ    1024,DU
         4 000643   000000 756000 xsym               STQ     DATA$

      424     2768    2           END;

      425     2769    1       PAGE_MODIFIED=0;

   2769  4 000644   000035 450000 0                  STZ     HIGH_INDX

      426     2770    1       GOTO GET_NEXT_LINE;

   2770  4 000645   000550 710000 4                  TRA     GET_NEXT_LINE

      427     2771        %EJECT;
PL6.E3A0      #002=ZIU$PA_SORTIN File=ZIU$COMPACT.:ZIC0TSI                       FRI 09/05/97 13:10 Page:96
      428     2772    1   ERASE_IT: /* ERASE A PA_REC JUST FOUND */
      429     2773    1       SC_PTR=-1*RC_PTR-1; /* PASS SC_PTR FOR SET SUMMARY REPORT */

   2773  4 000646   000002 675000 5     ERASE_IT     ERA     2
         4 000647   000000 755000 xsym               STA     SC_PTR

      430     2774    1       IF ZI$DIR.CODE=#CONVERT THEN /* THE SET TO BE CONVERTED */

   2774  4 000650   000125 236000 xsym               LDQ     ZI$DIR+85
         4 000651   000005 376000 5                  ANQ     5
         4 000652   000005 116003                    CMPQ    5,DU
         4 000653   000713 601000 4                  TNZ     s:2781

      431     2775    2       DO; /* IS ALREADY IN PA FORMAT */

      432     2776    2           X=(RB-1)*AC_TBL.LPP(AC_PTR)+AC_TBL.BASE_DBK(AC_PTR)+CURR_LN+1;

   2776  4 000654   000000 236000 xsym               LDQ     AC_PTR
         4 000655   000014 402007                    MPY     12,DL
         4 000656   000013 236006 xsym               LDQ     AC_TBL+11,QL
         4 000657   000032 772000                    QRL     26
         4 000660   000266 756000 0                  STQ     @FIND_TYPE+3
         4 000661   000000 236000 xsym               LDQ     RB
         4 000662   000001 136007                    SBLQ    1,DL
         4 000663   000266 402000 0                  MPY     @FIND_TYPE+3
         4 000664   000267 756000 0                  STQ     @FIND_TYPE+4
         4 000665   000000 236000 xsym               LDQ     AC_PTR
         4 000666   000014 402007                    MPY     12,DL
         4 000667   000000 620006                    EAX0    0,QL
         4 000670   000267 236000 0                  LDQ     @FIND_TYPE+4
         4 000671   000000 036010 xsym               ADLQ    AC_TBL,X0
         4 000672   000037 036000 0                  ADLQ    CURR_LN
         4 000673   000001 036007                    ADLQ    1,DL
         4 000674   000000 756000 xsym               STQ     X

      433     2777    2           CALL BIN_CHAR(1,X); /* CONVERT DBK TO CHAR */

PL6.E3A0      #002=ZIU$PA_SORTIN File=ZIU$COMPACT.:ZIC0TSI                       FRI 09/05/97 13:10 Page:97
   2777  4 000675   000010 630400 5                  EPPR0   8
         4 000676   000006 631400 5                  EPPR1   6
         4 000677   000000 701000 xent               TSX1    BIN_CHAR
         4 000700   000000 011000                    NOP     0

      434     2778    2           CALL ERROR_MSG(DBU#PAERRLP,SC_TBL.NAME(SC_PTR));

   2778  4 000701   000000 236000 xsym               LDQ     SC_PTR
         4 000702   000014 402000 5                  MPY     12
         4 000703   000013 036000 5                  ADLQ    11
         4 000704   000015 235000 5                  LDA     13
         4 000705   000266 757000 0                  STAQ    @FIND_TYPE+3
         4 000706   000266 630400 0                  EPPR0   @FIND_TYPE+3
         4 000707   000006 631400 5                  EPPR1   6
         4 000710   000000 701000 xent               TSX1    ERROR_MSG
         4 000711   000000 011000                    NOP     0

      435     2779    2           GOTO UN_WIND; /* ABORT THE JOB */

   2779  4 000712   001703 710000 4                  TRA     UN_WIND

      436     2780    2           END;
      437     2781    1       CALL ERASE_PAREC; /* PASS  DATA$,X, AND CURR_LN */

   2781  4 000713   000000 631400 5                  EPPR1   0
         4 000714   000000 701000 xent               TSX1    ERASE_PAREC
         4 000715   000000 011000                    NOP     0

      438     2782    1       MUST_WRITE=1; /* LOCAL AND GLOBAL */

   2782  4 000716   000001 235007                    LDA     1,DL
         4 000717   000034 755000 0                  STA     LOW_INDX

      439     2783    1       PAGE_MODIFIED=1; /* SET FLAG */

   2783  4 000720   000035 755000 0                  STA     HIGH_INDX

PL6.E3A0      #002=ZIU$PA_SORTIN File=ZIU$COMPACT.:ZIC0TSI                       FRI 09/05/97 13:10 Page:98
      440     2784    1       GOTO GET_NEXT_LINE;

   2784  4 000721   000550 710000 4                  TRA     GET_NEXT_LINE

      441     2785
      442     2786    1   ALL_DONE:
      443     2787    1       SORTREC_SIZE = 0;

   2787  4 000722   000002 470400 0     ALL_DONE     LDP0    @SORTREC_SIZE
         4 000723   000000 450100                    STZ     0,,PR0

      444     2788    1       CALL INIT_CNTL_VARIABLES ALTRET(ALT_OPEN); /* MOSTLY BUF CONTROL */

   2788  4 000724   000730 701000 4                  TSX1    INIT_CNTL_VARIABLES
         4 000725   004207 702000 4                  TSX2    ALT_OPEN

      445     2789    1       ALTRETURN; /* DONE WITH SORTIN PROCEDURE */

   2789  4 000726   000000 221200 0                  LDX1  ! 0
         4 000727   000000 702211                    TSX2  ! 0,X1

      446     2790        %EJECT;
PL6.E3A0      #002=ZIU$PA_SORTIN File=ZIU$COMPACT.:ZIC0TSI                       FRI 09/05/97 13:10 Page:99
      447     2791        /*E*  ERROR: ZIU-DBU#PAERRLP-C
      448     2792        MESSAGE: Error: The set "%U1" you want to convert to PA seems to be
      449     2793                        a PA set already because a *PA_REC for that set
      450     2794                        is found at DBK# %U2.  CONVERT aborted.
      451     2795                        Be careful on this directive, you must explicitly
      452     2796                        specify all the set names to be converted
      453     2797                        and exclude those sets already in PA mode. */
      454     2798
      455     2799        /*E*  ERROR: ZIU-DBU#PASUM9-C
      456     2800        MESSAGE:+
      457     2801                +  There were %U2 *PA_REC_%U1 erased before REBUILDing.
      458     2802                +     */
      459     2803        /*E*  ERROR: ZIU-DBU#PAPACH1-C
      460     2804        MESSAGE: The above I/O error occurs when writing a pointer-patch
      461     2805                 record for the tenant of the set "%U1" at DBK# %U2.
      462     2806                 The set may be broken. %U3 aborted. */
      463     2807        %EJECT;
PL6.E3A0      #002=ZIU$PA_SORTIN File=ZIU$COMPACT.:ZIC0TSI                       FRI 09/05/97 13:10 Page:100
      464     2808        /*
      465     2809              SUBR    INIT_CNTL_VARIABLES
      466     2810                      THE PATCH FILE IS A KEYED FILE WITH FIXED REC SIZE
      467     2811                      CONTAINING ONLY DBK,NEW_PTR,AC,RC OF SOME SET TENANTS
      468     2812        */
      469     2813    1   INIT_CNTL_VARIABLES: PROC ALTRET;

   2813  4 000730   000256 741200 0     INIT_CNTL_V* STX1  ! PTR_TEMP+2

      470     2814
      471     2815    2       POOL_MAX= 0; /* BUF CONTROL VARIABLE */

   2815  4 000731   000000 450000 xsym               STZ     POOL_MAX

      472     2816    2       SWAP_PTR = -1; /* BUF CONTROL VARIABLE */

   2816  4 000732   000001 335007                    LCA     1,DL
         4 000733   000000 755000 xsym               STA     SWAP_PTR

      473     2817    2       CURR_OWNER = 0; /* AND INIT SOME OTHER COUNTERS */

   2817  4 000734   000040 450000 0                  STZ     CURR_OWNER

      474     2818    3       DO SC_PTR=0 TO NO_SETS;

   2818  4 000735   000000 450000 xsym               STZ     SC_PTR
         4 000736   001023 710000 4                  TRA     s:2829+1

      475     2819    3           IF ZI$DIR.CODE=#REVERT THEN

   2819  4 000737   000125 236000 xsym               LDQ     ZI$DIR+85
         4 000740   000005 376000 5                  ANQ     5
         4 000741   000016 116000 5                  CMPQ    14
         4 000742   000753 601000 4                  TNZ     s:2821

      476     2820    3               SC_TBL.COUNT2(SC_PTR)=0;

PL6.E3A0      #002=ZIU$PA_SORTIN File=ZIU$COMPACT.:ZIC0TSI                       FRI 09/05/97 13:10 Page:101
   2820  4 000743   000000 236000 xsym               LDQ     SC_PTR
         4 000744   000405 402007                    MPY     261,DL
         4 000745   000000 116003                    CMPQ    0,DU
         4 000746   000750 605000 4                  TPL     s:2820+5
         4 000747   000044 036003                    ADLQ    36,DU
         4 000750   003006 061400                    CSR     bolr='003'O
         4 000751   000000 000044 5                  BDSC    0                        by=0,bit=0,n=36
         4 000752   000006 050022 xsym               BDSC    SC_TBL+6,Q               by=0,bit=5,n=18

      477     2821    3           X = SC_TBL.COUNT(SC_PTR); /* SEE IF ANY *PA_REC ERASED */

   2821  4 000753   000000 236000 xsym               LDQ     SC_PTR
         4 000754   000405 402007                    MPY     261,DL
         4 000755   000000 116003                    CMPQ    0,DU
         4 000756   000760 605000 4                  TPL     s:2821+5
         4 000757   000044 036003                    ADLQ    36,DU
         4 000760   003000 060406                    CSL     bolr='003'O
         4 000761   000006 450022 xsym               BDSC    SC_TBL+6,Q               by=2,bit=5,n=18
         4 000762   000266 000044 0                  BDSC    @FIND_TYPE+3             by=0,bit=0,n=36
         4 000763   000266 236000 0                  LDQ     @FIND_TYPE+3
         4 000764   000022 732000                    QRS     18
         4 000765   000000 756000 xsym               STQ     X

      478     2822    3           IF X~=0 THEN

   2822  4 000766   001022 600000 4                  TZE     s:2829

      479     2823    4           DO;

      480     2824    4               SC_TBL.COUNT(SC_PTR)=0; /* RESET TO 0 */

   2824  4 000767   000000 236000 xsym               LDQ     SC_PTR
         4 000770   000405 402007                    MPY     261,DL
         4 000771   000000 116003                    CMPQ    0,DU
         4 000772   000774 605000 4                  TPL     s:2824+5
         4 000773   000044 036003                    ADLQ    36,DU
         4 000774   003006 061400                    CSR     bolr='003'O
PL6.E3A0      #002=ZIU$PA_SORTIN File=ZIU$COMPACT.:ZIC0TSI                       FRI 09/05/97 13:10 Page:102
         4 000775   000000 000044 5                  BDSC    0                        by=0,bit=0,n=36
         4 000776   000006 450022 xsym               BDSC    SC_TBL+6,Q               by=2,bit=5,n=18

      481     2825    4               CALL BIN_CHAR(1,X); /* CONVERT X TO CHAR */

   2825  4 000777   000010 630400 5                  EPPR0   8
         4 001000   000006 631400 5                  EPPR1   6
         4 001001   000000 701000 xent               TSX1    BIN_CHAR
         4 001002   000000 011000                    NOP     0

      482     2826    4               IF ZI$DIR.CODE~=#COMPACT AND ZI$DIR.CODE~=#REVERT THEN

   2826  4 001003   000125 236000 xsym               LDQ     ZI$DIR+85
         4 001004   000005 376000 5                  ANQ     5
         4 001005   000017 116000 5                  CMPQ    15
         4 001006   001022 600000 4                  TZE     s:2829
         4 001007   000016 116000 5                  CMPQ    14
         4 001010   001022 600000 4                  TZE     s:2829

      483     2827    4                   CALL ERROR_MSG(DBU#PASUM9,SC_TBL.NAME(SC_PTR));

   2827  4 001011   000000 236000 xsym               LDQ     SC_PTR
         4 001012   000014 402000 5                  MPY     12
         4 001013   000013 036000 5                  ADLQ    11
         4 001014   000021 235000 5                  LDA     17
         4 001015   000266 757000 0                  STAQ    @FIND_TYPE+3
         4 001016   000266 630400 0                  EPPR0   @FIND_TYPE+3
         4 001017   000006 631400 5                  EPPR1   6
         4 001020   000000 701000 xent               TSX1    ERROR_MSG
         4 001021   000000 011000                    NOP     0

      484     2828    4               END;

      485     2829    3           END;

   2829  4 001022   000000 054000 xsym               AOS     SC_PTR
         4 001023   000000 236000 xsym               LDQ     SC_PTR
PL6.E3A0      #002=ZIU$PA_SORTIN File=ZIU$COMPACT.:ZIC0TSI                       FRI 09/05/97 13:10 Page:103
         4 001024   000000 116000 xsym               CMPQ    NO_SETS
         4 001025   000737 604400 4                  TMOZ    s:2819

      486     2830    2   END INIT_CNTL_VARIABLES;

   2830  4 001026   000256 221200 0                  LDX1  ! PTR_TEMP+2
         4 001027   000001 702211                    TSX2  ! 1,X1

      487     2831        %EJECT;
PL6.E3A0      #002=ZIU$PA_SORTIN File=ZIU$COMPACT.:ZIC0TSI                       FRI 09/05/97 13:10 Page:104
      488     2832    1   FIND_A_MEMBER:
      489     2833        /*
      490     2834              NOW, A PA-MEMBER IS FOUND IN THE AREA.
      491     2835                   WE SHALL VERIFY ITS SIZE FIRST FOR SECURITY REASON
      492     2836              NOTE: THIS PA-MEMBER MAY BE A MEMBER FOR MORE THAN
      493     2837                    ONE POINTER  ARRAY SETS. IT IS REFLECTED IN THE LINKED LIST
      494     2838                    I.E. WHEN RC_TBL.NEXT FOR A REC IS NON-ZERO THEN THERE
      495     2839                    IS MORE THAN ONE RS(FOR PA) FOR THIS REC
      496     2840              SO WE WILL GET A RS AND RETRIEVE THE SORTED KEY TO MOVE
      497     2841                 TO SORT_REC.
      498     2842        */
      499     2843    1       SORT_REC.RC_PTR=RC_PTR;

   2843  4 001030   000001 470400 0     FIND_A_MEMB* LDP0    @SORT_REC
         4 001031   000100 101400                    MRL     fill='000'O
         4 001032   000000 000004 xsym               ADSC9   RC_PTR                   cn=0,n=4
         4 001033   000003 000001                    ADSC9   3,,PR0                   cn=0,n=1

      500     2844    1       SC_PTR = RC_TBL.SC_PTR(RC_PTR);

   2844  4 001034   000000 236000 xsym               LDQ     RC_PTR
         4 001035   000003 402007                    MPY     3,DL
         4 001036   000002 236006 xsym               LDQ     RC_TBL+2,QL
         4 001037   000022 772000                    QRL     18
         4 001040   000777 376007                    ANQ     511,DL
         4 001041   000000 756000 xsym               STQ     SC_PTR

      501     2845    1       SORT_REC.SC_PTR=SC_PTR; /* PASS TO SORT */

   2845  4 001042   000100 101400                    MRL     fill='000'O
         4 001043   000000 000004 xsym               ADSC9   SC_PTR                   cn=0,n=4
         4 001044   000003 400001                    ADSC9   3,,PR0                   cn=2,n=1

      502     2846    1       SORT_REC.AC_PTR=AC_PTR;

   2846  4 001045   000100 101400                    MRL     fill='000'O
         4 001046   000000 000004 xsym               ADSC9   AC_PTR                   cn=0,n=4
PL6.E3A0      #002=ZIU$PA_SORTIN File=ZIU$COMPACT.:ZIC0TSI                       FRI 09/05/97 13:10 Page:105
         4 001047   000003 200001                    ADSC9   3,,PR0                   cn=1,n=1

      503     2847    1       IF SC_TBL.GLOBAL(SC_PTR)=0 THEN /* SET IS LOCAL */

   2847  4 001050   000405 402007                    MPY     261,DL
         4 001051   000000 116003                    CMPQ    0,DU
         4 001052   001054 605000 4                  TPL     s:2847+4
         4 001053   000044 036003                    ADLQ    36,DU
         4 001054   003000 061406                    CSR     bolr='003'O
         4 001055   000005 640001 xsym               BDSC    SC_TBL+5,Q               by=3,bit=4,n=1
         4 001056   000266 000044 0                  BDSC    @FIND_TYPE+3             by=0,bit=0,n=36
         4 001057   000266 236000 0                  LDQ     @FIND_TYPE+3
         4 001060   000000 116003                    CMPQ    0,DU
         4 001061   001067 601000 4                  TNZ     s:2850

      504     2848    1           BASE_DBK = AC_TBL.BASE_DBK(AC_PTR);

   2848  4 001062   000000 236000 xsym               LDQ     AC_PTR
         4 001063   000014 402007                    MPY     12,DL
         4 001064   000000 235006 xsym               LDA     AC_TBL,QL
         4 001065   000000 755000 xsym               STA     BASE_DBK
         4 001066   001070 710000 4                  TRA     s:2852

      505     2849    1       ELSE
      506     2850    1           BASE_DBK = 0; /* FOR GLOBAL SET DONT ADJUST POINTERS */

   2850  4 001067   000000 450000 xsym               STZ     BASE_DBK

      507     2851         /* NOW EXTRACT THE NEXT,PRIOR AND OWNER PTRS FROM MEMBER */
      508     2852    1       CALL GET_PTR(SORT_REC.N_PTR,RC_TBL.NXPNT_EIS(RC_PTR));

   2852  4 001070   000000 236000 xsym               LDQ     RC_PTR
         4 001071   000003 402003                    MPY     3,DU
         4 001072   000022 036000 5                  ADLQ    18
         4 001073   000001 235000 0                  LDA     @SORT_REC
         4 001074   000252 757000 0                  STAQ    PAENT_STK_SIZE+2
         4 001075   000003 701000 4                  TSX1    GET_PTR
PL6.E3A0      #002=ZIU$PA_SORTIN File=ZIU$COMPACT.:ZIC0TSI                       FRI 09/05/97 13:10 Page:106
         4 001076   000000 011000                    NOP     0

      509     2853    1       IF ZI$DIR.CODE ~= #REBUILDPA THEN /* PRIOR PTR EXISTS */

   2853  4 001077   000125 236000 xsym               LDQ     ZI$DIR+85
         4 001100   000005 376000 5                  ANQ     5
         4 001101   000023 116000 5                  CMPQ    19
         4 001102   001110 600000 4                  TZE     s:2855

      510     2854    1           CALL GET_PTR2(SORT_REC.P_PTR);

   2854  4 001103   000001 236000 0                  LDQ     @SORT_REC
         4 001104   000001 036003                    ADLQ    1,DU
         4 001105   000252 756000 0                  STQ     PAENT_STK_SIZE+2
         4 001106   000017 701000 4                  TSX1    GET_PTR2
         4 001107   000000 011000                    NOP     0

      511     2855    1       CALL GET_PTR2(SORT_REC.O_PTR); /* ALL GET OWNER POINTER */

   2855  4 001110   000001 236000 0                  LDQ     @SORT_REC
         4 001111   000024 036000 5                  ADLQ    20
         4 001112   000252 756000 0                  STQ     PAENT_STK_SIZE+2
         4 001113   000017 701000 4                  TSX1    GET_PTR2
         4 001114   000000 011000                    NOP     0

      512     2856    1       IF ZI$DIR.CODE = #CONVERT THEN /* ZERO NEXT PTR */

   2856  4 001115   000125 236000 xsym               LDQ     ZI$DIR+85
         4 001116   000005 376000 5                  ANQ     5
         4 001117   000005 116003                    CMPQ    5,DU
         4 001120   001125 601000 4                  TNZ     s:2858

      513     2857    1           SORT_REC.N_PTR=0; /* SO THAT ALL MEMBERS WILL BE UPDATED */

   2857  4 001121   000001 470400 0                  LDP0    @SORT_REC
         4 001122   000100 100400                    MLR     fill='000'O
         4 001123   000000 000004 5                  ADSC9   0                        cn=0,n=4
PL6.E3A0      #002=ZIU$PA_SORTIN File=ZIU$COMPACT.:ZIC0TSI                       FRI 09/05/97 13:10 Page:107
         4 001124   000000 000004                    ADSC9   0,,PR0                   cn=0,n=4

      514     2858    1       SORT_REC.MEMBER_DBK=(RB-1)*AC_TBL.LPP(AC_PTR)+

   2858  4 001125   000000 236000 xsym               LDQ     AC_PTR
         4 001126   000014 402007                    MPY     12,DL
         4 001127   000013 236006 xsym               LDQ     AC_TBL+11,QL
         4 001130   000032 772000                    QRL     26
         4 001131   000266 756000 0                  STQ     @FIND_TYPE+3
         4 001132   000000 236000 xsym               LDQ     RB
         4 001133   000001 136007                    SBLQ    1,DL
         4 001134   000266 402000 0                  MPY     @FIND_TYPE+3
         4 001135   000267 756000 0                  STQ     @FIND_TYPE+4
         4 001136   000000 236000 xsym               LDQ     AC_PTR
         4 001137   000014 402007                    MPY     12,DL
         4 001140   000000 620006                    EAX0    0,QL
         4 001141   000267 236000 0                  LDQ     @FIND_TYPE+4
         4 001142   000000 036010 xsym               ADLQ    AC_TBL,X0
         4 001143   000037 036000 0                  ADLQ    CURR_LN
         4 001144   000001 036007                    ADLQ    1,DL
         4 001145   000270 756000 0                  STQ     @FIND_TYPE+5
         4 001146   000001 470400 0                  LDP0    @SORT_REC
         4 001147   000100 100400                    MLR     fill='000'O
         4 001150   000270 000004 0                  ADSC9   @FIND_TYPE+5             cn=0,n=4
         4 001151   000002 000004                    ADSC9   2,,PR0                   cn=0,n=4

      515     2859    1          AC_TBL.BASE_DBK(AC_PTR)+CURR_LN+1;
      516     2860    1       IF SORT_REC.O_PTR = 0 THEN /* REC NOT CONNECTED */

   2860  4 001152   000000 100500                    MLR     fill='000'O
         4 001153   000003 600004                    ADSC9   3,,PR0                   cn=3,n=4
         4 001154   000266 000004 0                  ADSC9   @FIND_TYPE+3             cn=0,n=4
         4 001155   000266 236000 0                  LDQ     @FIND_TYPE+3
         4 001156   000000 116003                    CMPQ    0,DU
         4 001157   001234 601000 4                  TNZ     s:2885

      517     2861    2       DO;
PL6.E3A0      #002=ZIU$PA_SORTIN File=ZIU$COMPACT.:ZIC0TSI                       FRI 09/05/97 13:10 Page:108

      518     2862    2           IF SUBSTR(COMMAND_TEXT,0,4)='CONV' THEN

   2862  4 001160   000000 236000 xsym               LDQ     COMMAND_TEXT
         4 001161   000000 116000 3                  CMPQ    0
         4 001162   001200 601000 4                  TNZ     s:2871

      519     2863    3           DO;

      520     2864    3               STK.NEXT(1)=0;

   2864  4 001163   000004 450000 xsym               STZ     STK+4

      521     2865    3               STK.PRIOR(1)=0;

   2865  4 001164   000005 450000 xsym               STZ     STK+5

      522     2866    3               KEY.TXT = SORT_REC.MEMBER_DBK;

   2866  4 001165   000000 100500                    MLR     fill='000'O
         4 001166   000002 000004                    ADSC9   2,,PR0                   cn=0,n=4
         4 001167   000044 200004 0                  ADSC9   KEY                      cn=1,n=4

      523     2867    3               KEY.RC_PTR = RC_PTR;

   2867  4 001170   000000 236000 xsym               LDQ     RC_PTR
         4 001171   000022 736000                    QLS     18
         4 001172   000045 552020 0                  STBQ    KEY+1,'20'O

      524     2868    3               CALL M$WRITE(WRITE_TEMP) ALTRET(WRIT_ERR);

   2868  4 001173   000012 630400 0                  EPPR0   WRITE_TEMP
         4 001174   440001 713400                    CLIMB   alt,write
         4 001175   401400 401760                    pmme    nvectors=4
         4 001176   004144 702000 4                  TSX2    WRIT_ERR

      525     2869    3               REC_CNT=REC_CNT+1;
PL6.E3A0      #002=ZIU$PA_SORTIN File=ZIU$COMPACT.:ZIC0TSI                       FRI 09/05/97 13:10 Page:109

   2869  4 001177   000000 054000 xsym               AOS     REC_CNT

      526     2870    3               END; /* ALTHOUGH UNCONNECTED, WE HAVE TO CONVERT THE SIZE */

      527     2871    2           IF RC_TBL.MANUAL(RC_PTR)=0 THEN /* SM IS NOT MANUAL */

   2871  4 001200   000000 236000 xsym               LDQ     RC_PTR
         4 001201   000003 402007                    MPY     3,DL
         4 001202   000002 236006 xsym               LDQ     RC_TBL+2,QL
         4 001203   200000 316007                    CANQ    65536,DL
         4 001204   001226 601000 4                  TNZ     s:2876

      528     2872    3           DO; /* GIVE A WARNING MSG AND SKIP THIS RS */

      529     2873    3               CALL BIN_CHAR(1,SORT_REC.MEMBER_DBK);

   2873  4 001205   000001 236000 0                  LDQ     @SORT_REC
         4 001206   000002 036003                    ADLQ    2,DU
         4 001207   000010 235000 5                  LDA     8
         4 001210   000266 757000 0                  STAQ    @FIND_TYPE+3
         4 001211   000266 630400 0                  EPPR0   @FIND_TYPE+3
         4 001212   000006 631400 5                  EPPR1   6
         4 001213   000000 701000 xent               TSX1    BIN_CHAR
         4 001214   000000 011000                    NOP     0

      530     2874    3               CALL ERROR_MSG(DBU#UNCMEM,SC_TBL.NAME(SC_PTR));

   2874  4 001215   000000 236000 xsym               LDQ     SC_PTR
         4 001216   000014 402000 5                  MPY     12
         4 001217   000013 036000 5                  ADLQ    11
         4 001220   000026 235000 5                  LDA     22
         4 001221   000266 757000 0                  STAQ    @FIND_TYPE+3
         4 001222   000266 630400 0                  EPPR0   @FIND_TYPE+3
         4 001223   000006 631400 5                  EPPR1   6
         4 001224   000000 701000 xent               TSX1    ERROR_MSG
         4 001225   000000 011000                    NOP     0
PL6.E3A0      #002=ZIU$PA_SORTIN File=ZIU$COMPACT.:ZIC0TSI                       FRI 09/05/97 13:10 Page:110

      531     2875    3               END;

      532     2876    2           RC_PTR = RC_TBL.RC_NEXT(RC_PTR);

   2876  4 001226   000000 236000 xsym               LDQ     RC_PTR
         4 001227   000003 402007                    MPY     3,DL
         4 001230   000002 236006 xsym               LDQ     RC_TBL+2,QL
         4 001231   000033 772000                    QRL     27
         4 001232   000000 756000 xsym               STQ     RC_PTR

      533     2877    2           GOTO CHECK_REC_TYPE;

   2877  4 001233   000544 710000 4                  TRA     CHECK_REC_TYPE

      534     2878         /*E* ERROR: ZIU-DBU#UNCMEM-C
      535     2879                 MESSAGE: Warning: Unconnected member of non-manual set "%U1" at DBK# %U2
      536     2880                                 found and ignored. Run REPAIR package to have it fixed. */
      537     2881    2           END;
      538     2882
      539     2883        /*    NOW MOVE KEYS IN DATA RECORD TO SORT_REC   */
      540     2884
      541     2885    1       REC2$ = ADDR(SORT_REC.KEY_LOC); /* DESTINATION PTR */

   2885  4 001234   000001 236000 0                  LDQ     @SORT_REC
         4 001235   000023 036000 5                  ADLQ    19
         4 001236   000000 756000 xsym               STQ     REC2$

      542     2886    1       KEY_PTR=RC_TBL.KEY_PTR(RC_PTR);

   2886  4 001237   000000 236000 xsym               LDQ     RC_PTR
         4 001240   000003 402007                    MPY     3,DL
         4 001241   000002 236006 xsym               LDQ     RC_TBL+2,QL
         4 001242   001777 376007                    ANQ     1023,DL
         4 001243   000000 756000 xsym               STQ     KEY_PTR

      543     2887    1       KEY_LEN = SC_TBL.PA_KEYSIZE(SC_PTR);
PL6.E3A0      #002=ZIU$PA_SORTIN File=ZIU$COMPACT.:ZIC0TSI                       FRI 09/05/97 13:10 Page:111

   2887  4 001244   000000 236000 xsym               LDQ     SC_PTR
         4 001245   000405 402007                    MPY     261,DL
         4 001246   000000 116003                    CMPQ    0,DU
         4 001247   001251 605000 4                  TPL     s:2887+5
         4 001250   000044 036003                    ADLQ    36,DU
         4 001251   003000 061406                    CSR     bolr='003'O
         4 001252   000004 050011 xsym               BDSC    SC_TBL+4,Q               by=0,bit=5,n=9
         4 001253   000000 000044 xsym               BDSC    KEY_LEN                  by=0,bit=0,n=36

      544     2888    1       IF SC_TBL.SETYPE(SC_PTR)=0 THEN /* SET IS PA */

   2888  4 001254   000000 236000 xsym               LDQ     SC_PTR
         4 001255   000405 402007                    MPY     261,DL
         4 001256   000000 116003                    CMPQ    0,DU
         4 001257   001261 605000 4                  TPL     s:2888+5
         4 001260   000044 036003                    ADLQ    36,DU
         4 001261   003000 061406                    CSR     bolr='003'O
         4 001262   000004 000002 xsym               BDSC    SC_TBL+4,Q               by=0,bit=0,n=2
         4 001263   000266 000044 0                  BDSC    @FIND_TYPE+3             by=0,bit=0,n=36
         4 001264   000266 236000 0                  LDQ     @FIND_TYPE+3
         4 001265   000000 116003                    CMPQ    0,DU
         4 001266   001335 601000 4                  TNZ     s:2902

      545     2889    2       DO;

      546     2890    2           SORT_REC.KEY_LOC=' '; /* INIT WITH BLANKS */

   2890  4 001267   000000 721000 xsym               LXL1    KEY_LEN
         4 001270   040140 100400                    MLR     fill='040'O
         4 001271   000027 000001 5                  ADSC9   23                       cn=0,n=1
         4 001272   000004 600011                    ADSC9   4,,PR0                   cn=3,n=*X1

      547     2891    2           KEY_PTR2 = SC_TBL.KEY_PTR(SC_PTR);

   2891  4 001273   000000 236000 xsym               LDQ     SC_PTR
         4 001274   000405 402007                    MPY     261,DL
PL6.E3A0      #002=ZIU$PA_SORTIN File=ZIU$COMPACT.:ZIC0TSI                       FRI 09/05/97 13:10 Page:112
         4 001275   000000 116003                    CMPQ    0,DU
         4 001276   001300 605000 4                  TPL     s:2891+5
         4 001277   000044 036003                    ADLQ    36,DU
         4 001300   003000 061406                    CSR     bolr='003'O
         4 001301   000006 050022 xsym               BDSC    SC_TBL+6,Q               by=0,bit=5,n=18
         4 001302   000006 000044 0                  BDSC    KEY_PTR2                 by=0,bit=0,n=36

      548     2892    3           DO X=0 TO SC_TBL.NO_OF_KEYS(SC_PTR)-1;

   2892  4 001303   000000 450000 xsym               STZ     X
         4 001304   001321 710000 4                  TRA     s:2898+1

      549     2893    3               PRFR = KEY_TBL.EIS(KEY_PTR);

   2893  4 001305   000000 720000 xsym               LXL0    KEY_PTR
         4 001306   000000 235010 xsym               LDA     KEY_TBL,X0
         4 001307   000000 755000 xsym               STA     PRFR

      550     2894    3               PRFR2 = KEY_TBL.EIS(KEY_PTR2);

   2894  4 001310   000006 721000 0                  LXL1    KEY_PTR2
         4 001311   000000 235011 xsym               LDA     KEY_TBL,X1
         4 001312   000000 755000 xsym               STA     PRFR2

      551     2895    3               CALL ZIU$DBAMP; /* MOVE PA SORT KEYS FROM REC TO SORT_REC */

   2895  4 001313   000000 631400 5                  EPPR1   0
         4 001314   000000 701000 xent               TSX1    ZIU$DBAMP
         4 001315   000000 011000                    NOP     0

      552     2896    3               KEY_PTR=KEY_PTR+1;

   2896  4 001316   000000 054000 xsym               AOS     KEY_PTR

      553     2897    3               KEY_PTR2=KEY_PTR2+1;

   2897  4 001317   000006 054000 0                  AOS     KEY_PTR2
PL6.E3A0      #002=ZIU$PA_SORTIN File=ZIU$COMPACT.:ZIC0TSI                       FRI 09/05/97 13:10 Page:113

      554     2898    3               END;

   2898  4 001320   000000 054000 xsym               AOS     X
         4 001321   000000 236000 xsym               LDQ     SC_PTR
         4 001322   000405 402007                    MPY     261,DL
         4 001323   000000 116003                    CMPQ    0,DU
         4 001324   001326 605000 4                  TPL     s:2898+6
         4 001325   000044 036003                    ADLQ    36,DU
         4 001326   003000 061406                    CSR     bolr='003'O
         4 001327   000005 500005 xsym               BDSC    SC_TBL+5,Q               by=2,bit=8,n=5
         4 001330   000266 000044 0                  BDSC    @FIND_TYPE+3             by=0,bit=0,n=36
         4 001331   000266 236000 0                  LDQ     @FIND_TYPE+3
         4 001332   000000 116000 xsym               CMPQ    X
         4 001333   001305 605400 4                  TPNZ    s:2893

      555     2899    2           END;

   2899  4 001334   001362 710000 4                  TRA     s:2910

      556     2900    1       ELSE /* REGULAR SORTED SETS */
      557     2901    2       DO;

      558     2902    3           DO X=1 TO RC_TBL.NO_OF_KEYS(RC_PTR); /* EACH MEM HAS DIF #KEY */

   2902  4 001335   000001 235007                    LDA     1,DL
         4 001336   000000 755000 xsym               STA     X
         4 001337   001353 710000 4                  TRA     s:2907+1

      559     2903    3               PRFR = KEY_TBL.EIS(KEY_PTR);

   2903  4 001340   000000 720000 xsym               LXL0    KEY_PTR
         4 001341   000000 235010 xsym               LDA     KEY_TBL,X0
         4 001342   000000 755000 xsym               STA     PRFR

      560     2904    3               PRFR2= KEY_TBL.EIS(KEY_PTR+1);

PL6.E3A0      #002=ZIU$PA_SORTIN File=ZIU$COMPACT.:ZIC0TSI                       FRI 09/05/97 13:10 Page:114
   2904  4 001343   000001 235010 xsym               LDA     KEY_TBL+1,X0
         4 001344   000000 755000 xsym               STA     PRFR2

      561     2905    3               CALL ZIU$DBAMP;

   2905  4 001345   000000 631400 5                  EPPR1   0
         4 001346   000000 701000 xent               TSX1    ZIU$DBAMP
         4 001347   000000 011000                    NOP     0

      562     2906    3               KEY_PTR=KEY_PTR+2;

   2906  4 001350   000002 236007                    LDQ     2,DL
         4 001351   000000 056000 xsym               ASQ     KEY_PTR

      563     2907    3               END;

   2907  4 001352   000000 054000 xsym               AOS     X
         4 001353   000000 236000 xsym               LDQ     RC_PTR
         4 001354   000003 402007                    MPY     3,DL
         4 001355   000002 236006 xsym               LDQ     RC_TBL+2,QL
         4 001356   000012 772000                    QRL     10
         4 001357   000077 376007                    ANQ     63,DL
         4 001360   000000 116000 xsym               CMPQ    X
         4 001361   001340 605000 4                  TPL     s:2903

      564     2908    2           END;

      565     2909
      566     2910    1       SORTREC_SIZE = LENGTHC(SORT_REC);

   2910  4 001362   000000 235000 xsym               LDA     KEY_LEN
         4 001363   000023 035007                    ADLA    19,DL
         4 001364   000002 470400 0                  LDP0    @SORTREC_SIZE
         4 001365   000000 755100                    STA     0,,PR0

      567     2911    1       RC_PTR = RC_TBL.RC_NEXT(RC_PTR); /* GET NEXT RS */

PL6.E3A0      #002=ZIU$PA_SORTIN File=ZIU$COMPACT.:ZIC0TSI                       FRI 09/05/97 13:10 Page:115
   2911  4 001366   000000 236000 xsym               LDQ     RC_PTR
         4 001367   000003 402007                    MPY     3,DL
         4 001370   000002 236006 xsym               LDQ     RC_TBL+2,QL
         4 001371   000033 772000                    QRL     27
         4 001372   000000 756000 xsym               STQ     RC_PTR

      568     2912    1       RETURN; /* RETURN TO SORT */

   2912  4 001373   000000 221200 0                  LDX1  ! 0
         4 001374   000001 702211                    TSX2  ! 1,X1

      569     2913        %EJECT;
PL6.E3A0      #002=ZIU$PA_SORTIN File=ZIU$COMPACT.:ZIC0TSI                       FRI 09/05/97 13:10 Page:116
      570     2914    1   ZIU$PA_SORTOUT: ENTRY(SORT_REC,SORTREC_SIZE) ALTRET;

   2914  4 001375   000000 700200 xent  ZIU$PA_SORT* TSX0  ! X66_STATIC_2
         4 001376   000000 000002 0                  ZERO    0,2

      571     2915
      572     2916    1       IF SORTREC_SIZE = 0 THEN /* ALL RECORDS PROCESSED */

   2916  4 001377   000002 470400 0                  LDP0    @SORTREC_SIZE
         4 001400   000000 235100                    LDA     0,,PR0
         4 001401   001413 601000 4                  TNZ     s:2924

      573     2917    2       DO;

      574     2918    2           IF CURR_OWNER > 0 THEN /* CLEAN UP LAST SC */

   2918  4 001402   000040 236000 0                  LDQ     CURR_OWNER
         4 001403   001407 604400 4                  TMOZ    s:2920

      575     2919    2               CALL PA_CLEANUP ALTRET(WRIT_ERR);

   2919  4 001404   000000 631400 5                  EPPR1   0
         4 001405   000000 701000 xent               TSX1    PA_CLEANUP
         4 001406   004144 702000 4                  TSX2    WRIT_ERR

      576     2920    2           CALL FLUSH_PAGES; /* FLUSH ALL BUFFERS IN POOL */

   2920  4 001407   000000 631400 5                  EPPR1   0
         4 001410   000000 701000 xent               TSX1    FLUSH_PAGES
         4 001411   000000 011000                    NOP     0

      577     2921    2           GOTO COMMON_RETURN;

   2921  4 001412   002266 710000 4                  TRA     COMMON_RETURN

      578     2922    2           END;
      579     2923
PL6.E3A0      #002=ZIU$PA_SORTIN File=ZIU$COMPACT.:ZIC0TSI                       FRI 09/05/97 13:10 Page:117
      580     2924    1       IF CURR_OWNER ~= SORT_REC.O_PTR OR SC_PTR ~= SORT_REC.SC_PTR THEN

   2924  4 001413   000001 471400 0                  LDP1    @SORT_REC
         4 001414   000000 100500                    MLR     fill='000'O
         4 001415   100003 600004                    ADSC9   3,,PR1                   cn=3,n=4
         4 001416   000266 000004 0                  ADSC9   @FIND_TYPE+3             cn=0,n=4
         4 001417   000266 236000 0                  LDQ     @FIND_TYPE+3
         4 001420   001431 604000 4                  TMI     s:2926
         4 001421   000040 116000 0                  CMPQ    CURR_OWNER
         4 001422   001431 601000 4                  TNZ     s:2926
         4 001423   000000 101500                    MRL     fill='000'O
         4 001424   100003 400001                    ADSC9   3,,PR1                   cn=2,n=1
         4 001425   000267 000004 0                  ADSC9   @FIND_TYPE+4             cn=0,n=4
         4 001426   000267 236000 0                  LDQ     @FIND_TYPE+4
         4 001427   000000 116000 xsym               CMPQ    SC_PTR
         4 001430   001664 600000 4                  TZE     s:2975

      581     2925    2       DO;

      582     2926    2           IF CURR_OWNER > 0 THEN /* SHALL CLEANUP LAST SC */

   2926  4 001431   000040 235000 0                  LDA     CURR_OWNER
         4 001432   001436 604400 4                  TMOZ    s:2928

      583     2927    2               CALL PA_CLEANUP ALTRET(WRIT_ERR);

   2927  4 001433   000000 631400 5                  EPPR1   0
         4 001434   000000 701000 xent               TSX1    PA_CLEANUP
         4 001435   004144 702000 4                  TSX2    WRIT_ERR

      584     2928    2           IF CURR_OWNER~=SORT_REC.O_PTR THEN /* OWNER CHANGED */

   2928  4 001436   000001 470400 0                  LDP0    @SORT_REC
         4 001437   000000 100500                    MLR     fill='000'O
         4 001440   000003 600004                    ADSC9   3,,PR0                   cn=3,n=4
         4 001441   000266 000004 0                  ADSC9   @FIND_TYPE+3             cn=0,n=4
         4 001442   000266 236000 0                  LDQ     @FIND_TYPE+3
PL6.E3A0      #002=ZIU$PA_SORTIN File=ZIU$COMPACT.:ZIC0TSI                       FRI 09/05/97 13:10 Page:118
         4 001443   001446 604000 4                  TMI     s:2930
         4 001444   000040 116000 0                  CMPQ    CURR_OWNER
         4 001445   001510 600000 4                  TZE     s:2944

      585     2929    3           DO;

      586     2930    3               CURR_OWNER = SORT_REC.O_PTR; /* A NEW OWNER */

   2930  4 001446   000000 100500                    MLR     fill='000'O
         4 001447   000003 600004                    ADSC9   3,,PR0                   cn=3,n=4
         4 001450   000040 000004 0                  ADSC9   CURR_OWNER               cn=0,n=4

      587     2931    3               X=1; /* SEARCH FOR THE AC_PTR FOR THIS OWNER */

   2931  4 001451   000001 235007                    LDA     1,DL
         4 001452   000000 755000 xsym               STA     X

      588     2932    4               DO WHILE(CURR_OWNER>AC_TBL.BASE_DBK(X) AND X<=NO_AREAS);

   2932  4 001453   001455 710000 4                  TRA     s:2934

      589     2933    4                   X=X+1;

   2933  4 001454   000000 054000 xsym               AOS     X

      590     2934    4                   END;

   2934  4 001455   000000 236000 xsym               LDQ     X
         4 001456   000014 402007                    MPY     12,DL
         4 001457   000000 236006 xsym               LDQ     AC_TBL,QL
         4 001460   001466 604000 4                  TMI     s:2935
         4 001461   000040 116000 0                  CMPQ    CURR_OWNER
         4 001462   001466 605000 4                  TPL     s:2935
         4 001463   000000 236000 xsym               LDQ     X
         4 001464   000000 116000 xsym               CMPQ    NO_AREAS
         4 001465   001454 604400 4                  TMOZ    s:2933

PL6.E3A0      #002=ZIU$PA_SORTIN File=ZIU$COMPACT.:ZIC0TSI                       FRI 09/05/97 13:10 Page:119
      591     2935    3               IF X-1 ~= AC_PTR THEN

   2935  4 001466   000000 236000 xsym               LDQ     X
         4 001467   000001 136007                    SBLQ    1,DL
         4 001470   000000 116000 xsym               CMPQ    AC_PTR
         4 001471   001510 600000 4                  TZE     s:2944

      592     2936    4               DO;

      593     2937    4                   CALL FLUSH_PAGES; /* AREA CHANGED */

   2937  4 001472   000000 631400 5                  EPPR1   0
         4 001473   000000 701000 xent               TSX1    FLUSH_PAGES
         4 001474   000000 011000                    NOP     0

      594     2938    4                   AC_PTR = X - 1; /* AC_PTR IS THE PROIR X */

   2938  4 001475   000000 235000 xsym               LDA     X
         4 001476   000001 135007                    SBLA    1,DL
         4 001477   000000 755000 xsym               STA     AC_PTR

      595     2939    4                   IF AC_TBL.DCB#(AC_PTR)=0 THEN

   2939  4 001500   000000 236000 xsym               LDQ     AC_PTR
         4 001501   000014 402007                    MPY     12,DL
         4 001502   000013 236006 xsym               LDQ     AC_TBL+11,QL
         4 001503   000377 316007                    CANQ    255,DL
         4 001504   001510 601000 4                  TNZ     s:2944

      596     2940    4                       CALL OPEN_AREA ALTRET(UN_WIND);

   2940  4 001505   000000 631400 5                  EPPR1   0
         4 001506   000000 701000 xent               TSX1    OPEN_AREA
         4 001507   001703 702000 4                  TSX2    UN_WIND

      597     2941    4                   END;

PL6.E3A0      #002=ZIU$PA_SORTIN File=ZIU$COMPACT.:ZIC0TSI                       FRI 09/05/97 13:10 Page:120
      598     2942    3               END;

      599     2943
      600     2944    2           SC_PTR = SORT_REC.SC_PTR; /* AND START WORK FROM THIS SC */

   2944  4 001510   000001 470400 0                  LDP0    @SORT_REC
         4 001511   000000 101500                    MRL     fill='000'O
         4 001512   000003 400001                    ADSC9   3,,PR0                   cn=2,n=1
         4 001513   000000 000004 xsym               ADSC9   SC_PTR                   cn=0,n=4

      601     2945    2           IF SC_TBL.GLOBAL(SC_PTR)=0 THEN /* SET IS LOCAL */

   2945  4 001514   000000 236000 xsym               LDQ     SC_PTR
         4 001515   000405 402007                    MPY     261,DL
         4 001516   000000 116003                    CMPQ    0,DU
         4 001517   001521 605000 4                  TPL     s:2945+5
         4 001520   000044 036003                    ADLQ    36,DU
         4 001521   003000 061406                    CSR     bolr='003'O
         4 001522   000005 640001 xsym               BDSC    SC_TBL+5,Q               by=3,bit=4,n=1
         4 001523   000266 000044 0                  BDSC    @FIND_TYPE+3             by=0,bit=0,n=36
         4 001524   000266 236000 0                  LDQ     @FIND_TYPE+3
         4 001525   000000 116003                    CMPQ    0,DU
         4 001526   001534 601000 4                  TNZ     s:2948

      602     2946    2               BASE_DBK = AC_TBL.BASE_DBK(AC_PTR);

   2946  4 001527   000000 236000 xsym               LDQ     AC_PTR
         4 001530   000014 402007                    MPY     12,DL
         4 001531   000000 235006 xsym               LDA     AC_TBL,QL
         4 001532   000000 755000 xsym               STA     BASE_DBK
         4 001533   001535 710000 4                  TRA     s:2949

      603     2947    2           ELSE
      604     2948    2               BASE_DBK = 0; /* FOR GLOBAL SET DONT ADJUST POINTERS */

   2948  4 001534   000000 450000 xsym               STZ     BASE_DBK

PL6.E3A0      #002=ZIU$PA_SORTIN File=ZIU$COMPACT.:ZIC0TSI                       FRI 09/05/97 13:10 Page:121
      605     2949    2           RC_PTR = SC_TBL.RC_PTR(SC_PTR); /* PASS RC OF OWNER */

   2949  4 001535   000000 236000 xsym               LDQ     SC_PTR
         4 001536   000405 402007                    MPY     261,DL
         4 001537   000000 116003                    CMPQ    0,DU
         4 001540   001542 605000 4                  TPL     s:2949+5
         4 001541   000044 036003                    ADLQ    36,DU
         4 001542   003000 061406                    CSR     bolr='003'O
         4 001543   000005 650011 xsym               BDSC    SC_TBL+5,Q               by=3,bit=5,n=9
         4 001544   000000 000044 xsym               BDSC    RC_PTR                   by=0,bit=0,n=36

      606     2950    2           CALL FIND_DIRECT(CURR_OWNER,%DONT_LOCK); /* FIND OWNER FIRST */

   2950  4 001545   000031 630400 5                  EPPR0   25
         4 001546   000006 631400 5                  EPPR1   6
         4 001547   000000 701000 xent               TSX1    FIND_DIRECT
         4 001550   000000 011000                    NOP     0

      607     2951    2           IF PA_REC.TYPE~=RC_TBL.TYPE(RC_PTR) THEN

   2951  4 001551   000000 236000 xsym               LDQ     RC_PTR
         4 001552   000003 402007                    MPY     3,DL
         4 001553   000001 236006 xsym               LDQ     RC_TBL+1,QL
         4 001554   000022 772000                    QRL     18
         4 001555   000266 756000 0                  STQ     @FIND_TYPE+3
         4 001556   000000 470400 xsym               LDP0    REC$
         4 001557   003000 061500                    CSR     bolr='003'O
         4 001560   000000 060014                    BDSC    0,,PR0                   by=0,bit=6,n=12
         4 001561   000267 000044 0                  BDSC    @FIND_TYPE+4             by=0,bit=0,n=36
         4 001562   000267 236000 0                  LDQ     @FIND_TYPE+4
         4 001563   000266 116000 0                  CMPQ    @FIND_TYPE+3
         4 001564   001605 600000 4                  TZE     s:2958

      608     2952    3           DO;

      609     2953    3               CALL BIN_CHAR(2,CURR_OWNER);

PL6.E3A0      #002=ZIU$PA_SORTIN File=ZIU$COMPACT.:ZIC0TSI                       FRI 09/05/97 13:10 Page:122
   2953  4 001565   000034 630400 5                  EPPR0   28
         4 001566   000006 631400 5                  EPPR1   6
         4 001567   000000 701000 xent               TSX1    BIN_CHAR
         4 001570   000000 011000                    NOP     0

      610     2954    3               CALL ERROR_MSG(DBU#PABADOWNR,SC_TBL.NAME(SC_PTR),COMMAND_TEXT);

   2954  4 001571   000040 236000 5                  LDQ     32
         4 001572   000270 756000 0                  STQ     @FIND_TYPE+5
         4 001573   000000 236000 xsym               LDQ     SC_PTR
         4 001574   000014 402000 5                  MPY     12
         4 001575   000013 036000 5                  ADLQ    11
         4 001576   000041 235000 5                  LDA     33
         4 001577   000266 757000 0                  STAQ    @FIND_TYPE+3
         4 001600   000266 630400 0                  EPPR0   @FIND_TYPE+3
         4 001601   000036 631400 5                  EPPR1   30
         4 001602   000000 701000 xent               TSX1    ERROR_MSG
         4 001603   000000 011000                    NOP     0

      611     2955    3               GOTO UN_WIND;

   2955  4 001604   001703 710000 4                  TRA     UN_WIND

      612     2956    3               END;
      613     2957         /* LOAD NEXT PTR OF OWNER,LATER TO CHECK IF NEED UPDATED */
      614     2958    2           IF ZI$DIR.CODE=#CONVERT THEN

   2958  4 001605   000125 236000 xsym               LDQ     ZI$DIR+85
         4 001606   000005 376000 5                  ANQ     5
         4 001607   000005 116003                    CMPQ    5,DU
         4 001610   001613 601000 4                  TNZ     s:2961

      615     2959    2               STK.NEXT(0)=0; /* WHEN CONVERTNG, OWNER MUST BE UPDATED */

   2959  4 001611   000000 450000 xsym               STZ     STK
         4 001612   001622 710000 4                  TRA     s:2962

PL6.E3A0      #002=ZIU$PA_SORTIN File=ZIU$COMPACT.:ZIC0TSI                       FRI 09/05/97 13:10 Page:123
      616     2960    2           ELSE
      617     2961    2               CALL GET_PTR(STK.NEXT(0),RC_TBL.NXPNT_EIS(RC_PTR));

   2961  4 001613   000000 236000 xsym               LDQ     RC_PTR
         4 001614   000003 402003                    MPY     3,DU
         4 001615   000022 036000 5                  ADLQ    18
         4 001616   000042 235000 5                  LDA     34
         4 001617   000252 757000 0                  STAQ    PAENT_STK_SIZE+2
         4 001620   000003 701000 4                  TSX1    GET_PTR
         4 001621   000000 011000                    NOP     0

      618     2962    2           KEY_LEN = SC_TBL.PA_KEYSIZE(SC_PTR); /* SETUP KEY_SIZE */

   2962  4 001622   000000 236000 xsym               LDQ     SC_PTR
         4 001623   000405 402007                    MPY     261,DL
         4 001624   000000 116003                    CMPQ    0,DU
         4 001625   001627 605000 4                  TPL     s:2962+5
         4 001626   000044 036003                    ADLQ    36,DU
         4 001627   003000 061406                    CSR     bolr='003'O
         4 001630   000004 050011 xsym               BDSC    SC_TBL+4,Q               by=0,bit=5,n=9
         4 001631   000000 000044 xsym               BDSC    KEY_LEN                  by=0,bit=0,n=36

      619     2963    2           PTR_LEN = SC_TBL.PA_PTRSIZE(SC_PTR);

   2963  4 001632   000000 236000 xsym               LDQ     SC_PTR
         4 001633   000405 402007                    MPY     261,DL
         4 001634   000000 116003                    CMPQ    0,DU
         4 001635   001637 605000 4                  TPL     s:2963+5
         4 001636   000044 036003                    ADLQ    36,DU
         4 001637   003000 061406                    CSR     bolr='003'O
         4 001640   000004 020003 xsym               BDSC    SC_TBL+4,Q               by=0,bit=2,n=3
         4 001641   000000 000044 xsym               BDSC    PTR_LEN                  by=0,bit=0,n=36

      620     2964    2           ENTRY_LEN=2+KEY_LEN+PTR_LEN;

   2964  4 001642   000000 236000 xsym               LDQ     KEY_LEN
         4 001643   000000 036000 xsym               ADLQ    PTR_LEN
PL6.E3A0      #002=ZIU$PA_SORTIN File=ZIU$COMPACT.:ZIC0TSI                       FRI 09/05/97 13:10 Page:124
         4 001644   000002 036007                    ADLQ    2,DL
         4 001645   000003 756000 0                  STQ     ENTRY_LEN

      621     2965    2           NO_OF_LEVELS=-1; /* REBUILD PA ,SO START FROM SCRATCH */

   2965  4 001646   000001 335007                    LCA     1,DL
         4 001647   000004 755000 0                  STA     NO_OF_LEVELS

      622     2966    2           LEVEL# = 0;

   2966  4 001650   000005 450000 0                  STZ     LEVEL#

      623     2967    2           IF ZI$DIR.INSERT_DUMMY THEN /* FOR GCOS PURPOSE */

   2967  4 001651   000126 236000 xsym               LDQ     ZI$DIR+86
         4 001652   100000 316003                    CANQ    32768,DU
         4 001653   001664 600000 4                  TZE     s:2975

      624     2968    3           DO;

      625     2969    3               STK.CURR(1)=CURR_OWNER; /* DUMMY POINT TO OWNER */

   2969  4 001654   000040 235000 0                  LDA     CURR_OWNER
         4 001655   000006 755000 xsym               STA     STK+6

      626     2970    3               STK.RC_PTR(1)=RC_PTR; /* PASS OWNER TYPE */

   2970  4 001656   000000 236000 xsym               LDQ     RC_PTR
         4 001657   000033 736000                    QLS     27
         4 001660   000007 552040 xsym               STBQ    STK+7,'40'O

      627     2971    3               CALL STORE_AN_ENTRY ALTRET(WRIT_ERR); /* AND USE IT AS FIRST KEY */

   2971  4 001661   000000 631400 5                  EPPR1   0
         4 001662   000000 701000 xent               TSX1    STORE_AN_ENTRY
         4 001663   004144 702000 4                  TSX2    WRIT_ERR

PL6.E3A0      #002=ZIU$PA_SORTIN File=ZIU$COMPACT.:ZIC0TSI                       FRI 09/05/97 13:10 Page:125
      628     2972    3               END;

      629     2973    2           END;

      630     2974
      631     2975    1       STK(1)=SORT_REC; /* PASS MEMBER'S INFO TO STORE_AN_ENTRY */

   2975  4 001664   000000 720000 xsym               LXL0    KEY_LEN
         4 001665   000023 621010                    EAX1    19,X0
         4 001666   000001 470400 0                  LDP0    @SORT_REC
         4 001667   000000 100540                    MLR     fill='000'O
         4 001670   000000 000011                    ADSC9   0,,PR0                   cn=0,n=*X1
         4 001671   000004 000016 xsym               ADSC9   STK+4                    cn=0,n=14

      632     2976
      633     2977    1       CALL STORE_AN_ENTRY(SORT_REC.KEY_LOC) ALTRET(WRIT_ERR);

   2977  4 001672   000001 236000 0                  LDQ     @SORT_REC
         4 001673   000023 036000 5                  ADLQ    19
         4 001674   000266 756000 0                  STQ     @FIND_TYPE+3
         4 001675   000266 630400 0                  EPPR0   @FIND_TYPE+3
         4 001676   000043 631400 5                  EPPR1   35
         4 001677   000000 701000 xent               TSX1    STORE_AN_ENTRY
         4 001700   004144 702000 4                  TSX2    WRIT_ERR

      634     2978
      635     2979    1       RETURN;

   2979  4 001701   000000 221200 0                  LDX1  ! 0
         4 001702   000001 702211                    TSX2  ! 1,X1

      636     2980
      637     2981    1   UN_WIND: UNWIND TO BREAK_CLEANUP;

   2981  4 001703   000000 100600       UN_WIND      MLR   ! fill='000'O
         4 001704   000007 000010 0                  ADSC9   BREAK_CLEANUP            cn=0,n=8
         4 001705   000266 000010 0                  ADSC9   @FIND_TYPE+3             cn=0,n=8
PL6.E3A0      #002=ZIU$PA_SORTIN File=ZIU$COMPACT.:ZIC0TSI                       FRI 09/05/97 13:10 Page:126
         4 001706   000266 237200 0                  LDAQ  ! @FIND_TYPE+3
         4 001707   000000 700200 xent               TSX0  ! X66_SUNWIND
         4 001710   000000 000200                    ZERO    0,128

      638     2982
      639     2983        /*E*  ERROR: ZIU-DBU#PABADOWNR-C
      640     2984        MESSAGE: Error: The type of the record at DBK# %U3 is not an owner
      641     2985                        for the set "%U1".  %U2 aborted.
      642     2986                        Broken set is suspected. Run REPAIR to have it fixed. */
      643     2987        %EJECT;
PL6.E3A0      #002=ZIU$PA_SORTIN File=ZIU$COMPACT.:ZIC0TSI                       FRI 09/05/97 13:10 Page:127
      644     2988        /*
      645     2989              ENTRY POINT IF COMMAND IS   COMPACT
      646     2990        */
      647     2991    1   ZIU$PA_PACK: ENTRY ALTRET;

   2991  4 001711   000000 700200 xent  ZIU$PA_PACK  TSX0  ! X66_STATIC_2
         4 001712   000000 000002 0                  ZERO    0,2

      648     2992
      649     2993    1       CALL INIT_CNTL_VARIABLES ALTRET(ALT_OPEN); /* INIT BUF CONTROL */

   2993  4 001713   000730 701000 4                  TSX1    INIT_CNTL_VARIABLES
         4 001714   004207 702000 4                  TSX2    ALT_OPEN

      650     2994    1       OSTK$ = ADDR(I_O_BUF(2*NBUFS));

   2994  4 001715   000000 236000 xsym               LDQ     NBUFS
         4 001716   000035 736000                    QLS     29
         4 001717   000000 036000 xsym               ADLQ    I_O_BUF$
         4 001720   000246 756000 0                  STQ     OSTK$

      651     2995         /*
      652     2996            I_O_BUF(0 UPTO 2*NBUFS) ARE USED BY BUFFER POOL
      653     2997            (2*NBUFS UPTO OWNER_CNT/1024+1) ARE USED TO SAVE ALL OWNER
      654     2998            (WHATEVER LEFT=2*KCNT-2*NBUFS) ARE USED TO SAVE PA ENTRIES
      655     2999         */
      656     3000    2       DO AC_PTR=0 TO NO_AREAS; /* FIRST LOOP, GO THRU AREAS */

   3000  4 001721   000000 450000 xsym               STZ     AC_PTR
         4 001722   002263 710000 4                  TRA     s:3065+1

      657     3001    2           IF AC_TBL.RANGE_HIGH(AC_PTR)>0 THEN /* OWNER IN AC */

   3001  4 001723   000000 236000 xsym               LDQ     AC_PTR
         4 001724   000014 402007                    MPY     12,DL
         4 001725   000002 235006 xsym               LDA     AC_TBL+2,QL
         4 001726   002262 604400 4                  TMOZ    s:3065
PL6.E3A0      #002=ZIU$PA_SORTIN File=ZIU$COMPACT.:ZIC0TSI                       FRI 09/05/97 13:10 Page:128

      658     3002    3           DO;

      659     3003    3               RB=AC_TBL.RANGE_LOW(AC_PTR); /* STARTING PAGE # TO SEARCH */

   3003  4 001727   000001 235006 xsym               LDA     AC_TBL+1,QL
         4 001730   000000 755000 xsym               STA     RB

      660     3004    4               DO WHILE(RB <= AC_TBL.RANGE_HIGH(AC_PTR));

   3004  4 001731   000002 236006 xsym               LDQ     AC_TBL+2,QL
         4 001732   002262 604000 4                  TMI     s:3065
         4 001733   000000 116000 xsym               CMPQ    RB
         4 001734   002262 602000 4                  TNC     s:3065

      661     3005    4                   DCBSF=AC_TBL.DCB#(AC_PTR);

   3005  4 001735   000000 236000 xsym               LDQ     AC_PTR
         4 001736   000014 402007                    MPY     12,DL
         4 001737   000013 720006 xsym               LXL0    AC_TBL+11,QL
         4 001740   000377 360003                    ANX0    255,DU
         4 001741   000000 740000 xsym               STX0    DCBSF

      662     3006    4                   OUT_INDX=AC_TBL.RANGE_HIGH(AC_PTR)-RB+1;

   3006  4 001742   000002 236006 xsym               LDQ     AC_TBL+2,QL
         4 001743   000000 136000 xsym               SBLQ    RB
         4 001744   000001 036007                    ADLQ    1,DL
         4 001745   000000 756000 xsym               STQ     OUT_INDX

      663     3007    4                   IF OUT_INDX>2*NBUFS THEN /* READ 2*NBUFS PAGES AT A TIME */

   3007  4 001746   000000 236000 xsym               LDQ     NBUFS
         4 001747   000001 736000                    QLS     1
         4 001750   000000 116000 xsym               CMPQ    OUT_INDX
         4 001751   001753 605000 4                  TPL     s:3009

PL6.E3A0      #002=ZIU$PA_SORTIN File=ZIU$COMPACT.:ZIC0TSI                       FRI 09/05/97 13:10 Page:129
      664     3008    4                       OUT_INDX=2*NBUFS;

   3008  4 001752   000000 756000 xsym               STQ     OUT_INDX

      665     3009    4                   CALL READ_DB(0,RB,OUT_INDX) ALTRET(UN_WIND);

   3009  4 001753   000044 630400 5                  EPPR0   36
         4 001754   000036 631400 5                  EPPR1   30
         4 001755   000000 701000 xent               TSX1    READ_DB
         4 001756   001703 702000 4                  TSX2    UN_WIND

      666     3010    4                   OWNER_CNT=-1; /* PUSH ALL OWNER FOUND */

   3010  4 001757   000001 335007                    LCA     1,DL
         4 001760   000036 755000 0                  STA     OWNER_CNT

      667     3011    5                   DO X=0 TO OUT_INDX-1; /* LOOP THRU PAGES */

   3011  4 001761   000000 450000 xsym               STZ     X
         4 001762   002207 710000 4                  TRA     s:3047+1

      668     3012    5                       DATA$=ADDR(I_O_BUF(X));

   3012  4 001763   000000 236000 xsym               LDQ     X
         4 001764   000034 736000                    QLS     28
         4 001765   000000 036000 xsym               ADLQ    I_O_BUF$
         4 001766   000000 756000 xsym               STQ     DATA$

      669     3013    5                       POOL.PAGE#(X)=RB+X; /* UPDATE BUF CONTROL TABLE */

   3013  4 001767   000000 236000 xsym               LDQ     RB
         4 001770   000000 036000 xsym               ADLQ    X
         4 001771   000000 720000 xsym               LXL0    X
         4 001772   000000 676010 xsym               ERQ     POOL,X0
         4 001773   000047 376000 5                  ANQ     39
         4 001774   000000 656010 xsym               ERSQ    POOL,X0

PL6.E3A0      #002=ZIU$PA_SORTIN File=ZIU$COMPACT.:ZIC0TSI                       FRI 09/05/97 13:10 Page:130
      670     3014    5                       POOL.LOCKS(X)=0;

   3014  4 001775   000050 236000 5                  LDQ     40
         4 001776   000000 356010 xsym               ANSQ    POOL,X0

      671     3015    5                       POOL.MUST_WRITE(X)='0'B;

   3015  4 001777   000051 236000 5                  LDQ     41
         4 002000   000000 356010 xsym               ANSQ    POOL,X0

      672     3016    6                       DO CURR_LN=0 TO DATA_PG.OFF_LN.SEC; /* LOOP THRU LINES */

   3016  4 002001   000037 450000 0                  STZ     CURR_LN
         4 002002   002201 710000 4                  TRA     s:3046+1

      673     3017    6                           IF DATA_PG.ACT_DATA_18(2035-CURR_LN)>=12 THEN

   3017  4 002003   000037 335000 0                  LCA     CURR_LN
         4 002004   000001 735000                    ALS     1
         4 002005   000000 470400 xsym               LDP0    DATA$
         4 002006   000000 100505                    MLR     fill='000'O
         4 002007   001777 400002                    ADSC9   1023,A,PR0               cn=2,n=2
         4 002010   000266 000004 0                  ADSC9   @FIND_TYPE+3             cn=0,n=4
         4 002011   000266 236000 0                  LDQ     @FIND_TYPE+3
         4 002012   000022 732000                    QRS     18
         4 002013   000014 116007                    CMPQ    12,DL
         4 002014   002200 604000 4                  TMI     s:3046

      674     3018    7                           DO; /* FIND A RECORD, CHECK RECORD TYPE */

      675     3019    7                               REC$=PINCRC(DATA$,DATA_PG.OFFSET(2035-CURR_LN)+12);

   3019  4 002015   000000 101505                    MRL     fill='000'O
         4 002016   001777 400002                    ADSC9   1023,A,PR0               cn=2,n=2
         4 002017   000266 000004 0                  ADSC9   @FIND_TYPE+3             cn=0,n=4
         4 002020   000266 236000 0                  LDQ     @FIND_TYPE+3
         4 002021   000020 736000                    QLS     16
PL6.E3A0      #002=ZIU$PA_SORTIN File=ZIU$COMPACT.:ZIC0TSI                       FRI 09/05/97 13:10 Page:131
         4 002022   000003 036003                    ADLQ    3,DU
         4 002023   000000 036000 xsym               ADLQ    DATA$
         4 002024   000000 756000 xsym               STQ     REC$

      676     3020    7                               IF ZI$DIR.CODE=#REVERT AND KEY_PTR>=0 THEN

   3020  4 002025   000125 236000 xsym               LDQ     ZI$DIR+85
         4 002026   000005 376000 5                  ANQ     5
         4 002027   000016 116000 5                  CMPQ    14
         4 002030   002134 601000 4                  TNZ     s:3038
         4 002031   000000 235000 xsym               LDA     KEY_PTR
         4 002032   002134 604000 4                  TMI     s:3038

      677     3021    8                               DO Y=0 TO KEY_PTR;

   3021  4 002033   000033 450000 0                  STZ     Y
         4 002034   002131 710000 4                  TRA     s:3037+1

      678     3022    8                                   RC_PTR=KEY_TBL.EIS(Y); /* ALL MANUAL RS */

   3022  4 002035   000033 720000 0                  LXL0    Y
         4 002036   000000 235010 xsym               LDA     KEY_TBL,X0
         4 002037   000000 755000 xsym               STA     RC_PTR

      679     3023    8                                   IF RC_TBL.TYPE(RC_PTR)=PA_REC.TYPE THEN

   3023  4 002040   000000 470400 xsym               LDP0    REC$
         4 002041   003000 061500                    CSR     bolr='003'O
         4 002042   000000 060014                    BDSC    0,,PR0                   by=0,bit=6,n=12
         4 002043   000266 000044 0                  BDSC    @FIND_TYPE+3             by=0,bit=0,n=36
         4 002044   000000 236000 xsym               LDQ     RC_PTR
         4 002045   000003 402007                    MPY     3,DL
         4 002046   000001 236006 xsym               LDQ     RC_TBL+1,QL
         4 002047   000022 772000                    QRL     18
         4 002050   000266 116000 0                  CMPQ    @FIND_TYPE+3
         4 002051   002130 601000 4                  TNZ     s:3037

PL6.E3A0      #002=ZIU$PA_SORTIN File=ZIU$COMPACT.:ZIC0TSI                       FRI 09/05/97 13:10 Page:132
      680     3024    9                                   DO;

      681     3025    9                                      CALL GET_PTR(STK.NEXT(1),RC_TBL.NXPNT_EIS(RC_PTR
              3025                                                ));

   3025  4 002052   000000 236000 xsym               LDQ     RC_PTR
         4 002053   000003 402003                    MPY     3,DU
         4 002054   000022 036000 5                  ADLQ    18
         4 002055   000052 235000 5                  LDA     42
         4 002056   000252 757000 0                  STAQ    PAENT_STK_SIZE+2
         4 002057   000003 701000 4                  TSX1    GET_PTR
         4 002060   000000 011000                    NOP     0

      682     3026    9                                       CALL GET_PTR2(STK.PRIOR(1));

   3026  4 002061   000053 236000 5                  LDQ     43
         4 002062   000252 756000 0                  STQ     PAENT_STK_SIZE+2
         4 002063   000017 701000 4                  TSX1    GET_PTR2
         4 002064   000000 011000                    NOP     0

      683     3027    9                                       IF STK.NEXT(1)=0 AND STK.PRIOR(1)=0 THEN

   3027  4 002065   000004 235000 xsym               LDA     STK+4
         4 002066   002130 601000 4                  TNZ     s:3037
         4 002067   000005 236000 xsym               LDQ     STK+5
         4 002070   002130 601000 4                  TNZ     s:3037

      684     3028   10                                       DO;

      685     3029   10                                           KEY.RC_PTR=RC_PTR;

   3029  4 002071   000000 236000 xsym               LDQ     RC_PTR
         4 002072   000022 736000                    QLS     18
         4 002073   000045 552020 0                  STBQ    KEY+1,'20'O

      686     3030   10                                           KEY.TXT=(RB+X-1)*AC_TBL.LPP(AC_PTR)

PL6.E3A0      #002=ZIU$PA_SORTIN File=ZIU$COMPACT.:ZIC0TSI                       FRI 09/05/97 13:10 Page:133
   3030  4 002074   000000 236000 xsym               LDQ     RB
         4 002075   000000 036000 xsym               ADLQ    X
         4 002076   000266 756000 0                  STQ     @FIND_TYPE+3
         4 002077   000000 236000 xsym               LDQ     AC_PTR
         4 002100   000014 402007                    MPY     12,DL
         4 002101   000013 236006 xsym               LDQ     AC_TBL+11,QL
         4 002102   000032 772000                    QRL     26
         4 002103   000267 756000 0                  STQ     @FIND_TYPE+4
         4 002104   000266 236000 0                  LDQ     @FIND_TYPE+3
         4 002105   000001 136007                    SBLQ    1,DL
         4 002106   000267 402000 0                  MPY     @FIND_TYPE+4
         4 002107   000270 756000 0                  STQ     @FIND_TYPE+5
         4 002110   000000 236000 xsym               LDQ     AC_PTR
         4 002111   000014 402007                    MPY     12,DL
         4 002112   000000 620006                    EAX0    0,QL
         4 002113   000270 236000 0                  LDQ     @FIND_TYPE+5
         4 002114   000000 036010 xsym               ADLQ    AC_TBL,X0
         4 002115   000037 036000 0                  ADLQ    CURR_LN
         4 002116   000001 036007                    ADLQ    1,DL
         4 002117   000271 756000 0                  STQ     @FIND_TYPE+6
         4 002120   000000 100400                    MLR     fill='000'O
         4 002121   000271 000004 0                  ADSC9   @FIND_TYPE+6             cn=0,n=4
         4 002122   000044 200004 0                  ADSC9   KEY                      cn=1,n=4

      687     3031   10                                              +AC_TBL.BASE_DBK(AC_PTR)
      688     3032   10                                              +CURR_LN+1;
      689     3033   10                                           CALL M$WRITE(WRITE_TEMP) ALTRET(WRIT_ERR);

   3033  4 002123   000012 630400 0                  EPPR0   WRITE_TEMP
         4 002124   440001 713400                    CLIMB   alt,write
         4 002125   401400 401760                    pmme    nvectors=4
         4 002126   004144 702000 4                  TSX2    WRIT_ERR

      690     3034   10                                           REC_CNT=REC_CNT+1;

   3034  4 002127   000000 054000 xsym               AOS     REC_CNT

PL6.E3A0      #002=ZIU$PA_SORTIN File=ZIU$COMPACT.:ZIC0TSI                       FRI 09/05/97 13:10 Page:134
      691     3035   10                                           END; /* PATCH RECORD FOR UNCONNECTED MEM */

      692     3036    9                                       END; /* CHK IF THIS IS MANUAL MEMBER */

      693     3037    8                                   END; /* IF ANY MANUAL MEMBER EXISTS */

   3037  4 002130   000033 054000 0                  AOS     Y
         4 002131   000033 236000 0                  LDQ     Y
         4 002132   000000 116000 xsym               CMPQ    KEY_PTR
         4 002133   002035 604400 4                  TMOZ    s:3022

      694     3038    7                               IF TYPE.MSTRINDX(PA_REC.TYPE) > 0 THEN

   3038  4 002134   000000 470400 xsym               LDP0    REC$
         4 002135   003000 061500                    CSR     bolr='003'O
         4 002136   000000 060014                    BDSC    0,,PR0                   by=0,bit=6,n=12
         4 002137   000266 000044 0                  BDSC    @FIND_TYPE+3             by=0,bit=0,n=36
         4 002140   000266 236000 0                  LDQ     @FIND_TYPE+3
         4 002141   000001 736000                    QLS     1
         4 002142   000000 100406                    MLR     fill='000'O
         4 002143   000000 000002 xsym               ADSC9   TYPE,Q                   cn=0,n=2
         4 002144   000267 000004 0                  ADSC9   @FIND_TYPE+4             cn=0,n=4
         4 002145   000267 236000 0                  LDQ     @FIND_TYPE+4
         4 002146   000022 732000                    QRS     18
         4 002147   000000 116003                    CMPQ    0,DU
         4 002150   002200 604400 4                  TMOZ    s:3046

      695     3039    8                               DO;

      696     3040    8                                   OWNER_CNT=OWNER_CNT+1; /* FIND A OWNER */

   3040  4 002151   000036 054000 0                  AOS     OWNER_CNT

      697     3041    8                                   OWNER_STK(OWNER_CNT)=(RB+X-1)*AC_TBL.LPP(AC_PTR)

   3041  4 002152   000000 236000 xsym               LDQ     RB
         4 002153   000000 036000 xsym               ADLQ    X
PL6.E3A0      #002=ZIU$PA_SORTIN File=ZIU$COMPACT.:ZIC0TSI                       FRI 09/05/97 13:10 Page:135
         4 002154   000266 756000 0                  STQ     @FIND_TYPE+3
         4 002155   000000 236000 xsym               LDQ     AC_PTR
         4 002156   000014 402007                    MPY     12,DL
         4 002157   000013 236006 xsym               LDQ     AC_TBL+11,QL
         4 002160   000032 772000                    QRL     26
         4 002161   000267 756000 0                  STQ     @FIND_TYPE+4
         4 002162   000266 236000 0                  LDQ     @FIND_TYPE+3
         4 002163   000001 136007                    SBLQ    1,DL
         4 002164   000267 402000 0                  MPY     @FIND_TYPE+4
         4 002165   000270 756000 0                  STQ     @FIND_TYPE+5
         4 002166   000000 236000 xsym               LDQ     AC_PTR
         4 002167   000014 402007                    MPY     12,DL
         4 002170   000000 620006                    EAX0    0,QL
         4 002171   000270 236000 0                  LDQ     @FIND_TYPE+5
         4 002172   000000 036010 xsym               ADLQ    AC_TBL,X0
         4 002173   000037 036000 0                  ADLQ    CURR_LN
         4 002174   000001 036007                    ADLQ    1,DL
         4 002175   000246 471400 0                  LDP1    OSTK$
         4 002176   000036 721000 0                  LXL1    OWNER_CNT
         4 002177   100000 756111                    STQ     0,X1,PR1

      698     3042    8                                      +AC_TBL.BASE_DBK(AC_PTR)
      699     3043    8                                      +CURR_LN+1;
      700     3044    8                                   END;

      701     3045    7                               END;

      702     3046    6                           END;

   3046  4 002200   000037 054000 0                  AOS     CURR_LN
         4 002201   000000 470400 xsym               LDP0    DATA$
         4 002202   000005 236100                    LDQ     5,,PR0
         4 002203   777777 376007                    ANQ     -1,DL
         4 002204   000037 116000 0                  CMPQ    CURR_LN
         4 002205   002003 605000 4                  TPL     s:3017

      703     3047    5                       END;
PL6.E3A0      #002=ZIU$PA_SORTIN File=ZIU$COMPACT.:ZIC0TSI                       FRI 09/05/97 13:10 Page:136

   3047  4 002206   000000 054000 xsym               AOS     X
         4 002207   000000 236000 xsym               LDQ     X
         4 002210   000000 116000 xsym               CMPQ    OUT_INDX
         4 002211   001763 604000 4                  TMI     s:3012

      704     3048    4                   POOL_MAX = OUT_INDX;

   3048  4 002212   000000 235000 xsym               LDA     OUT_INDX
         4 002213   000000 755000 xsym               STA     POOL_MAX

      705     3049    4                   PASTK$ = PINCRW(OSTK$,OWNER_CNT+1);

   3049  4 002214   000036 236000 0                  LDQ     OWNER_CNT
         4 002215   000022 736000                    QLS     18
         4 002216   000001 036003                    ADLQ    1,DU
         4 002217   000246 036000 0                  ADLQ    OSTK$
         4 002220   000247 756000 0                  STQ     PASTK$

      706     3050    5                   DO Y=0 TO OWNER_CNT; /* PROCESS EACH OWNER FOUND */

   3050  4 002221   000033 450000 0                  STZ     Y
         4 002222   002241 710000 4                  TRA     s:3059+1

      707     3051    5                       CURR_OWNER=OWNER_STK(Y); /* OWNER'S DBK */

   3051  4 002223   000246 470400 0                  LDP0    OSTK$
         4 002224   000033 720000 0                  LXL0    Y
         4 002225   000000 235110                    LDA     0,X0,PR0
         4 002226   000040 755000 0                  STA     CURR_OWNER

      708     3052
      709     3053    5                       IF ZI$DIR.CODE=#COMPACT THEN

   3053  4 002227   000125 236000 xsym               LDQ     ZI$DIR+85
         4 002230   000005 376000 5                  ANQ     5
         4 002231   000017 116000 5                  CMPQ    15
PL6.E3A0      #002=ZIU$PA_SORTIN File=ZIU$COMPACT.:ZIC0TSI                       FRI 09/05/97 13:10 Page:137
         4 002232   002236 601000 4                  TNZ     s:3057

      710     3054    5                           CALL COMPACT_AN_OWNER ALTRET(WRIT_ERR);

   3054  4 002233   002277 701000 4                  TSX1    COMPACT_AN_OWNER
         4 002234   004144 702000 4                  TSX2    WRIT_ERR
         4 002235   002240 710000 4                  TRA     s:3059

      711     3055         /* WRIT PATCH FILE */
      712     3056    5                       ELSE
      713     3057    5                           CALL REVERT_AN_OWNER ALTRET(WRIT_ERR);

   3057  4 002236   003144 701000 4                  TSX1    REVERT_AN_OWNER
         4 002237   004144 702000 4                  TSX2    WRIT_ERR

      714     3058
      715     3059    5                       END;

   3059  4 002240   000033 054000 0                  AOS     Y
         4 002241   000033 236000 0                  LDQ     Y
         4 002242   000036 116000 0                  CMPQ    OWNER_CNT
         4 002243   002223 604400 4                  TMOZ    s:3051

      716     3060    4                   RB = RB+OUT_INDX; /* READ NEXT BLOCK IF ANY */

   3060  4 002244   000000 236000 xsym               LDQ     RB
         4 002245   000000 036000 xsym               ADLQ    OUT_INDX
         4 002246   000000 756000 xsym               STQ     RB

      717     3061    4                   IF OWNER_CNT > 0 THEN /* IF ANY OWNER FOUND IN LAST BLOCK */

   3061  4 002247   000036 235000 0                  LDA     OWNER_CNT
         4 002250   002254 604400 4                  TMOZ    s:3063

      718     3062    4                       CALL FLUSH_PAGES; /* MAY HAVE UPDATED SOME BUF */

   3062  4 002251   000000 631400 5                  EPPR1   0
PL6.E3A0      #002=ZIU$PA_SORTIN File=ZIU$COMPACT.:ZIC0TSI                       FRI 09/05/97 13:10 Page:138
         4 002252   000000 701000 xent               TSX1    FLUSH_PAGES
         4 002253   000000 011000                    NOP     0

      719     3063    4                   END; /* DO WHILE END ALL PAGE IN AREA READ */

   3063  4 002254   000000 236000 xsym               LDQ     AC_PTR
         4 002255   000014 402007                    MPY     12,DL
         4 002256   000002 236006 xsym               LDQ     AC_TBL+2,QL
         4 002257   002262 604000 4                  TMI     s:3065
         4 002260   000000 116000 xsym               CMPQ    RB
         4 002261   001735 603000 4                  TRC     s:3005

      720     3064    3               END;

      721     3065    2           END; /* AREA LOOP DONE */

   3065  4 002262   000000 054000 xsym               AOS     AC_PTR
         4 002263   000000 236000 xsym               LDQ     AC_PTR
         4 002264   000000 116000 xsym               CMPQ    NO_AREAS
         4 002265   001723 604400 4                  TMOZ    s:3001

      722     3066
      723     3067    1   COMMON_RETURN: /* ALL GO THRU HERE TO RETURN TO ZIU$COMPACT */
      724     3068
      725     3069    1       IF REC_CNT > 0 THEN /* PATCH FILE EXISTS */

   3069  4 002266   000000 235000 xsym  COMMON_RETU* LDA     REC_CNT
         4 002267   002275 604400 4                  TMOZ    s:3074

      726     3070    2       DO;

      727     3071    2           DCBSF = DBKEY_SORT_DCB;

   3071  4 002270   000000 220000 xsym               LDX0    DBKEY_SORT_DCB
         4 002271   000000 740000 xsym               STX0    DCBSF

      728     3072    2           CALL SYS_FUNC_CLOS ALTRET(ALT_CLOS);
PL6.E3A0      #002=ZIU$PA_SORTIN File=ZIU$COMPACT.:ZIC0TSI                       FRI 09/05/97 13:10 Page:139

   3072  4 002272   000000 631400 5                  EPPR1   0
         4 002273   000000 701000 xent               TSX1    SYS_FUNC_CLOS
         4 002274   004207 702000 4                  TSX2    ALT_OPEN

      729     3073    2           END;

      730     3074    1       RETURN;

   3074  4 002275   000000 221200 0                  LDX1  ! 0
         4 002276   000001 702211                    TSX2  ! 1,X1

      731     3075        %EJECT;
PL6.E3A0      #002=ZIU$PA_SORTIN File=ZIU$COMPACT.:ZIC0TSI                       FRI 09/05/97 13:10 Page:140
      732     3076        /*
      733     3077              SUBR   COMPACT_A_OWNER  -  GO THRU ALL SC WHERE CURR OWNER
      734     3078                                         IS A OWNER RECORD.
      735     3079                                         FIND FIRST_PA IN LOWEST LEVEL
      736     3080                                         PUSH ALL ENTIES TO STACK THEN START
      737     3081                                         PLUG BACK IN
      738     3082        */
      739     3083    1   COMPACT_AN_OWNER: PROC ALTRET;

   3083  4 002277   000257 741200 0     COMPACT_AN_* STX1  ! PTR_TEMP+3

      740     3084
      741     3085    2       CALL FIND_DIRECT(CURR_OWNER,%DONT_LOCK); /* FIND OWNER */

   3085  4 002300   000031 630400 5                  EPPR0   25
         4 002301   000006 631400 5                  EPPR1   6
         4 002302   000000 701000 xent               TSX1    FIND_DIRECT
         4 002303   000000 011000                    NOP     0

      742     3086    2       RC_PTR=TYPE.MSTRINDX(PA_REC.TYPE); /* GET RO FOR OWNER */

   3086  4 002304   000000 470400 xsym               LDP0    REC$
         4 002305   003000 061500                    CSR     bolr='003'O
         4 002306   000000 060014                    BDSC    0,,PR0                   by=0,bit=6,n=12
         4 002307   000266 000044 0                  BDSC    @FIND_TYPE+3             by=0,bit=0,n=36
         4 002310   000266 236000 0                  LDQ     @FIND_TYPE+3
         4 002311   000001 736000                    QLS     1
         4 002312   000000 100406                    MLR     fill='000'O
         4 002313   000000 000002 xsym               ADSC9   TYPE,Q                   cn=0,n=2
         4 002314   000267 000004 0                  ADSC9   @FIND_TYPE+4             cn=0,n=4
         4 002315   000267 236000 0                  LDQ     @FIND_TYPE+4
         4 002316   000022 732000                    QRS     18
         4 002317   000000 756000 xsym               STQ     RC_PTR

      743     3087    3       DO WHILE(RC_PTR > 0); /* LOOP THRU ALL SC */

   3087  4 002320   002751 604400 4                  TMOZ    s:3178
PL6.E3A0      #002=ZIU$PA_SORTIN File=ZIU$COMPACT.:ZIC0TSI                       FRI 09/05/97 13:10 Page:141

      744     3088    3           SC_PTR = RC_TBL.SC_PTR(RC_PTR);

   3088  4 002321   000000 236000 xsym               LDQ     RC_PTR
         4 002322   000003 402007                    MPY     3,DL
         4 002323   000002 236006 xsym               LDQ     RC_TBL+2,QL
         4 002324   000022 772000                    QRL     18
         4 002325   000777 376007                    ANQ     511,DL
         4 002326   000000 756000 xsym               STQ     SC_PTR

      745     3089    3           IF SC_TBL.GLOBAL(SC_PTR)=0 THEN /* SET IS LOCAL */

   3089  4 002327   000405 402007                    MPY     261,DL
         4 002330   000000 116003                    CMPQ    0,DU
         4 002331   002333 605000 4                  TPL     s:3089+4
         4 002332   000044 036003                    ADLQ    36,DU
         4 002333   003000 061406                    CSR     bolr='003'O
         4 002334   000005 640001 xsym               BDSC    SC_TBL+5,Q               by=3,bit=4,n=1
         4 002335   000266 000044 0                  BDSC    @FIND_TYPE+3             by=0,bit=0,n=36
         4 002336   000266 236000 0                  LDQ     @FIND_TYPE+3
         4 002337   000000 116003                    CMPQ    0,DU
         4 002340   002346 601000 4                  TNZ     s:3092

      746     3090    3               BASE_DBK = AC_TBL.BASE_DBK(AC_PTR);

   3090  4 002341   000000 236000 xsym               LDQ     AC_PTR
         4 002342   000014 402007                    MPY     12,DL
         4 002343   000000 235006 xsym               LDA     AC_TBL,QL
         4 002344   000000 755000 xsym               STA     BASE_DBK
         4 002345   002347 710000 4                  TRA     s:3093

      747     3091    3           ELSE
      748     3092    3               BASE_DBK = 0; /* FOR GLOBAL SET DONT ADJUST POINTERS */

   3092  4 002346   000000 450000 xsym               STZ     BASE_DBK

      749     3093    3           CALL FIND_FIRST_PA(%LOCK_BUF) ALTRET(SET_EMPTY);
PL6.E3A0      #002=ZIU$PA_SORTIN File=ZIU$COMPACT.:ZIC0TSI                       FRI 09/05/97 13:10 Page:142
              3093                    /* GET 1ST PA IN LOWEST LEVEL */

   3093  4 002347   000034 236000 5                  LDQ     28
         4 002350   000263 756000 0                  STQ     PTR_TEMP+7
         4 002351   003531 701000 4                  TSX1    FIND_FIRST_PA
         4 002352   002735 702000 4                  TSX2    SET_EMPTY

      750     3094    3           KEY_LEN = SC_TBL.PA_KEYSIZE(SC_PTR);

   3094  4 002353   000000 236000 xsym               LDQ     SC_PTR
         4 002354   000405 402007                    MPY     261,DL
         4 002355   000000 116003                    CMPQ    0,DU
         4 002356   002360 605000 4                  TPL     s:3094+5
         4 002357   000044 036003                    ADLQ    36,DU
         4 002360   003000 061406                    CSR     bolr='003'O
         4 002361   000004 050011 xsym               BDSC    SC_TBL+4,Q               by=0,bit=5,n=9
         4 002362   000000 000044 xsym               BDSC    KEY_LEN                  by=0,bit=0,n=36

      751     3095    3           ENTRY_LEN = KEY_LEN+PTR_LEN+2;

   3095  4 002363   000000 236000 xsym               LDQ     KEY_LEN
         4 002364   000000 036000 xsym               ADLQ    PTR_LEN
         4 002365   000002 036007                    ADLQ    2,DL
         4 002366   000003 756000 0                  STQ     ENTRY_LEN

      752     3096    3           PAENT_STK_SIZE=(4096*(KCNT-NBUFS)*2- /* TOTAL SPARE BUF BYTES */

   3096  4 002367   000000 236000 xsym               LDQ     KCNT
         4 002370   000000 136000 xsym               SBLQ    NBUFS
         4 002371   000013 736000                    QLS     11
         4 002372   000002 676000 5                  ERQ     2
         4 002373   000001 036007                    ADLQ    1,DL
         4 002374   000036 036000 0                  ADLQ    OWNER_CNT
         4 002375   000003 235000 0                  LDA     ENTRY_LEN
         4 002376   000004 035007                    ADLA    4,DL
         4 002377   000266 755000 0                  STA     @FIND_TYPE+3
         4 002400   000002 736000                    QLS     2
PL6.E3A0      #002=ZIU$PA_SORTIN File=ZIU$COMPACT.:ZIC0TSI                       FRI 09/05/97 13:10 Page:143
         4 002401   000002 676000 5                  ERQ     2
         4 002402   000003 136007                    SBLQ    3,DL
         4 002403   000266 506000 0                  DIV     @FIND_TYPE+3
         4 002404   000001 136007                    SBLQ    1,DL
         4 002405   000250 756000 0                  STQ     PAENT_STK_SIZE

      753     3097    3              (OWNER_CNT+1)*4)/(ENTRY_LEN+4)-1;
      754     3098         /* LESS OWNER STK SIZE */
      755     3099    3           LOW_INDX=0; /* REINIT THE BOTTOM OF STACK */

   3099  4 002406   000034 450000 0                  STZ     LOW_INDX

      756     3100    3           HIGH_INDX=0; /* AND THE TOP OF STACK */

   3100  4 002407   000035 450000 0                  STZ     HIGH_INDX

      757     3101    3           CALL PUSH_PAENTRY(NEXT_DBK); /* PASS THE DBK OF PA */

   3101  4 002410   000054 630400 5                  EPPR0   44
         4 002411   000043 631400 5                  EPPR1   35
         4 002412   000000 701000 xent               TSX1    PUSH_PAENTRY
         4 002413   000000 011000                    NOP     0

      758     3102
      759     3103    3           REC2$=PINCRC(PASTK$,6); /* FIRST POINTER LOC IN STACK */

   3103  4 002414   000247 236000 0                  LDQ     PASTK$
         4 002415   000055 036000 5                  ADLQ    45
         4 002416   000000 756000 xsym               STQ     REC2$

      760     3104    3           CALL GET_PTR2(X); /* LOAD INTO X */

   3104  4 002417   000011 236000 5                  LDQ     9
         4 002420   000252 756000 0                  STQ     @POINTER
         4 002421   000017 701000 4                  TSX1    GET_PTR2
         4 002422   000000 011000                    NOP     0

PL6.E3A0      #002=ZIU$PA_SORTIN File=ZIU$COMPACT.:ZIC0TSI                       FRI 09/05/97 13:10 Page:144
      761     3105    3           IF ZI$DIR.INSERT_DUMMY='0'B AND X=CURR_OWNER THEN

   3105  4 002423   000126 236000 xsym               LDQ     ZI$DIR+86
         4 002424   100000 316003                    CANQ    32768,DU
         4 002425   002434 601000 4                  TNZ     s:3108
         4 002426   000000 236000 xsym               LDQ     X
         4 002427   000040 116000 0                  CMPQ    CURR_OWNER
         4 002430   002434 601000 4                  TNZ     s:3108

      762     3106    3               LOW_INDX = 1; /* SKIP STORING DUMMY */

   3106  4 002431   000001 235007                    LDA     1,DL
         4 002432   000034 755000 0                  STA     LOW_INDX
         4 002433   002454 710000 4                  TRA     s:3116

      763     3107    3           ELSE
      764     3108    3               IF ZI$DIR.INSERT_DUMMY AND X~=CURR_OWNER THEN

   3108  4 002434   000126 236000 xsym               LDQ     ZI$DIR+86
         4 002435   100000 316003                    CANQ    32768,DU
         4 002436   002454 600000 4                  TZE     s:3116
         4 002437   000000 236000 xsym               LDQ     X
         4 002440   000040 116000 0                  CMPQ    CURR_OWNER
         4 002441   002454 600000 4                  TZE     s:3116

      765     3109    4               DO;

      766     3110    4                   STK.CURR(1) = CURR_OWNER;

   3110  4 002442   000040 235000 0                  LDA     CURR_OWNER
         4 002443   000006 755000 xsym               STA     STK+6

      767     3111    4                   STK.RC_PTR(1) = RC_PTR; /* PASS OWNER'S RC FOR THAT ENTRY */

   3111  4 002444   000000 236000 xsym               LDQ     RC_PTR
         4 002445   000033 736000                    QLS     27
         4 002446   000007 552040 xsym               STBQ    STK+7,'40'O
PL6.E3A0      #002=ZIU$PA_SORTIN File=ZIU$COMPACT.:ZIC0TSI                       FRI 09/05/97 13:10 Page:145

      768     3112    4                   STK.NEXT(1) = NEXT_DBK; /* THE PA_REC CONTAINING THIS PTR */

   3112  4 002447   000043 236000 0                  LDQ     NEXT_DBK
         4 002450   000004 756000 xsym               STQ     STK+4

      769     3113    4                   CALL STORE_AN_ENTRY ALTRET(WRIT_ERR);

   3113  4 002451   000000 631400 5                  EPPR1   0
         4 002452   000000 701000 xent               TSX1    STORE_AN_ENTRY
         4 002453   002753 702000 4                  TSX2    WRIT_ERR

      770     3114    4                   END; /* DUMMY STORED IF WANTED */

      771     3115
      772     3116    3           FIRST_TIME_CALLED=2;

   3116  4 002454   000002 235007                    LDA     2,DL
         4 002455   000000 755000 xsym               STA     FIRST_TIME_CALLED

      773     3117    4           DO WHILE(FIRST_TIME_CALLED>0); /* UNTIL ALL ENTRIES RESTORED */

   3117  4 002456   002732 604400 4                  TMOZ    s:3172

      774     3118    4               IF LOW_INDX ~= HIGH_INDX THEN

   3118  4 002457   000034 236000 0                  LDQ     LOW_INDX
         4 002460   000035 116000 0                  CMPQ    HIGH_INDX
         4 002461   002643 600000 4                  TZE     s:3151

      775     3119    5               DO; /* STACK NOT EMPTY */

      776     3120    5                   REC2$=PINCRC(PASTK$,LOW_INDX*(4+ENTRY_LEN)+4);

   3120  4 002462   000003 236000 0                  LDQ     ENTRY_LEN
         4 002463   000004 036007                    ADLQ    4,DL
         4 002464   000034 402000 0                  MPY     LOW_INDX
PL6.E3A0      #002=ZIU$PA_SORTIN File=ZIU$COMPACT.:ZIC0TSI                       FRI 09/05/97 13:10 Page:146
         4 002465   000020 736000                    QLS     16
         4 002466   000001 036003                    ADLQ    1,DU
         4 002467   000247 036000 0                  ADLQ    PASTK$
         4 002470   000000 756000 xsym               STQ     REC2$

      777     3121    5                   PRFR = REC2$->PA_ENTRY.TYPE; /* TYPE OF MEMBER POINTED BY */

   3121  4 002471   000000 470400 xsym               LDP0    REC2$
         4 002472   003000 061500                    CSR     bolr='003'O
         4 002473   000000 060014                    BDSC    0,,PR0                   by=0,bit=6,n=12
         4 002474   000000 000044 xsym               BDSC    PRFR                     by=0,bit=0,n=36

      778     3122    5                   STK.NEXT(1)=PINCRC(REC2$,-4)->PAENT_STK.PA_DBK;

   3122  4 002475   000000 100500                    MLR     fill='000'O
         4 002476   077777 000004                    ADSC9   -1,,PR0                  cn=0,n=4
         4 002477   000004 000004 xsym               ADSC9   STK+4                    cn=0,n=4

      779     3123    5                   REC2$ = PINCRC(REC2$,2); /* POINT TO ENTRY.PTR */

   3123  4 002500   400000 036007                    ADLQ    -131072,DL
         4 002501   000000 756000 xsym               STQ     REC2$

      780     3124    5                   CALL GET_PTR2(STK.CURR(1)); /* LOAD IT INTO STK.CURR */

   3124  4 002502   000056 236000 5                  LDQ     46
         4 002503   000252 756000 0                  STQ     @POINTER
         4 002504   000017 701000 4                  TSX1    GET_PTR2
         4 002505   000000 011000                    NOP     0

      781     3125         /* NOW SEARCH THE RC AND THE AC FOR THE MEMBER
      782     3126            THAT IS POINTER BY THE PA_ENTRY */
      783     3127    5                   STK.RC_PTR(1)=SC_TBL.RC_PTR(SC_PTR)+1; /* FIRST SM */

   3127  4 002506   000000 236000 xsym               LDQ     SC_PTR
         4 002507   000405 402007                    MPY     261,DL
         4 002510   000000 116003                    CMPQ    0,DU
PL6.E3A0      #002=ZIU$PA_SORTIN File=ZIU$COMPACT.:ZIC0TSI                       FRI 09/05/97 13:10 Page:147
         4 002511   002513 605000 4                  TPL     s:3127+5
         4 002512   000044 036003                    ADLQ    36,DU
         4 002513   003000 061406                    CSR     bolr='003'O
         4 002514   000005 650011 xsym               BDSC    SC_TBL+5,Q               by=3,bit=5,n=9
         4 002515   000266 000044 0                  BDSC    @FIND_TYPE+3             by=0,bit=0,n=36
         4 002516   000266 236000 0                  LDQ     @FIND_TYPE+3
         4 002517   000001 036007                    ADLQ    1,DL
         4 002520   000033 736000                    QLS     27
         4 002521   000007 552040 xsym               STBQ    STK+7,'40'O

      784     3128    5                   X = 0; /* COUNTER */

   3128  4 002522   000000 450000 xsym               STZ     X

      785     3129    6                   DO WHILE(X<SC_TBL.NO_OF_SM(SC_PTR) AND

   3129  4 002523   002530 710000 4                  TRA     s:3133

      786     3130    6                      RC_TBL.TYPE(STK.RC_PTR(1))~=PRFR);
      787     3131    6                       X=X+1;

   3131  4 002524   000000 054000 xsym               AOS     X

      788     3132    6                       STK.RC_PTR(1)=STK.RC_PTR(1)+1;

   3132  4 002525   000007 236000 xsym               LDQ     STK+7
         4 002526   001000 036003                    ADLQ    512,DU
         4 002527   000007 552040 xsym               STBQ    STK+7,'40'O

      789     3133    6                       END;

   3133  4 002530   000000 236000 xsym               LDQ     SC_PTR
         4 002531   000405 402007                    MPY     261,DL
         4 002532   000000 116003                    CMPQ    0,DU
         4 002533   002535 605000 4                  TPL     s:3133+5
         4 002534   000044 036003                    ADLQ    36,DU
         4 002535   003000 061406                    CSR     bolr='003'O
PL6.E3A0      #002=ZIU$PA_SORTIN File=ZIU$COMPACT.:ZIC0TSI                       FRI 09/05/97 13:10 Page:148
         4 002536   000005 420006 xsym               BDSC    SC_TBL+5,Q               by=2,bit=2,n=6
         4 002537   000266 000044 0                  BDSC    @FIND_TYPE+3             by=0,bit=0,n=36
         4 002540   000266 236000 0                  LDQ     @FIND_TYPE+3
         4 002541   000000 116000 xsym               CMPQ    X
         4 002542   002552 604400 4                  TMOZ    s:3134
         4 002543   000007 236000 xsym               LDQ     STK+7
         4 002544   000033 772000                    QRL     27
         4 002545   000003 402007                    MPY     3,DL
         4 002546   000001 236006 xsym               LDQ     RC_TBL+1,QL
         4 002547   000022 772000                    QRL     18
         4 002550   000000 116000 xsym               CMPQ    PRFR
         4 002551   002524 601000 4                  TNZ     s:3131

      790     3134    5                   IF X>=SC_TBL.NO_OF_SM(SC_PTR) THEN

   3134  4 002552   000000 236000 xsym               LDQ     SC_PTR
         4 002553   000405 402007                    MPY     261,DL
         4 002554   000000 116003                    CMPQ    0,DU
         4 002555   002557 605000 4                  TPL     s:3134+5
         4 002556   000044 036003                    ADLQ    36,DU
         4 002557   003000 061406                    CSR     bolr='003'O
         4 002560   000005 420006 xsym               BDSC    SC_TBL+5,Q               by=2,bit=2,n=6
         4 002561   000266 000044 0                  BDSC    @FIND_TYPE+3             by=0,bit=0,n=36
         4 002562   000266 236000 0                  LDQ     @FIND_TYPE+3
         4 002563   000000 116000 xsym               CMPQ    X
         4 002564   002626 605400 4                  TPNZ    s:3145

      791     3135    6                   DO;

      792     3136    6                       IF LOW_INDX=0 AND STK.CURR(1)=CURR_OWNER THEN

   3136  4 002565   000034 235000 0                  LDA     LOW_INDX
         4 002566   002603 601000 4                  TNZ     s:3140
         4 002567   000006 236000 xsym               LDQ     STK+6
         4 002570   000040 116000 0                  CMPQ    CURR_OWNER
         4 002571   002603 601000 4                  TNZ     s:3140

PL6.E3A0      #002=ZIU$PA_SORTIN File=ZIU$COMPACT.:ZIC0TSI                       FRI 09/05/97 13:10 Page:149
      793     3137    6                           STK.RC_PTR(1)=SC_TBL.RC_PTR(SC_PTR); /* MUST BE DUMMY */

   3137  4 002572   000000 236000 xsym               LDQ     SC_PTR
         4 002573   000405 402007                    MPY     261,DL
         4 002574   000000 116003                    CMPQ    0,DU
         4 002575   002577 605000 4                  TPL     s:3137+5
         4 002576   000044 036003                    ADLQ    36,DU
         4 002577   003000 060406                    CSL     bolr='003'O
         4 002600   000005 650011 xsym               BDSC    SC_TBL+5,Q               by=3,bit=5,n=9
         4 002601   000007 000011 xsym               BDSC    STK+7                    by=0,bit=0,n=9
         4 002602   002626 710000 4                  TRA     s:3145

      794     3138    6                       ELSE
      795     3139    7                       DO;

      796     3140    7                           CALL BIN_CHAR(1,STK.NEXT(1));

   3140  4 002603   000057 630400 5                  EPPR0   47
         4 002604   000006 631400 5                  EPPR1   6
         4 002605   000000 701000 xent               TSX1    BIN_CHAR
         4 002606   000000 011000                    NOP     0

      797     3141    7                           CALL ERROR_MSG(DBU#PATYPER1,SC_TBL.NAME(SC_PTR));

   3141  4 002607   000000 236000 xsym               LDQ     SC_PTR
         4 002610   000014 402000 5                  MPY     12
         4 002611   000013 036000 5                  ADLQ    11
         4 002612   000062 235000 5                  LDA     50
         4 002613   000266 757000 0                  STAQ    @FIND_TYPE+3
         4 002614   000266 630400 0                  EPPR0   @FIND_TYPE+3
         4 002615   000006 631400 5                  EPPR1   6
         4 002616   000000 701000 xent               TSX1    ERROR_MSG
         4 002617   000000 011000                    NOP     0

      798     3142    7                           UNWIND TO BREAK_CLEANUP;

   3142  4 002620   000000 100600                    MLR   ! fill='000'O
PL6.E3A0      #002=ZIU$PA_SORTIN File=ZIU$COMPACT.:ZIC0TSI                       FRI 09/05/97 13:10 Page:150
         4 002621   000007 000010 0                  ADSC9   BREAK_CLEANUP            cn=0,n=8
         4 002622   000266 000010 0                  ADSC9   @FIND_TYPE+3             cn=0,n=8
         4 002623   000266 237200 0                  LDAQ  ! @FIND_TYPE+3
         4 002624   000000 700200 xent               TSX0  ! X66_SUNWIND
         4 002625   000000 000200                    ZERO    0,128

      799     3143    7                           END;
      800     3144    6                       END;
      801     3145    5                   CALL STORE_AN_ENTRY(REC2$->CHAR_V) ALTRET(WRIT_ERR);

   3145  4 002626   000000 630400 xsym               EPPR0   REC2$
         4 002627   000043 631400 5                  EPPR1   35
         4 002630   000000 701000 xent               TSX1    STORE_AN_ENTRY
         4 002631   002753 702000 4                  TSX2    WRIT_ERR

      802     3146         /* PASS KEY IN PASTK */
      803     3147    5                   LOW_INDX = MOD(LOW_INDX+1,PAENT_STK_SIZE);

   3147  4 002632   000034 236000 0                  LDQ     LOW_INDX
         4 002633   000001 036007                    ADLQ    1,DL
         4 002634   000250 235000 0                  LDA     PAENT_STK_SIZE
         4 002635   002640 605000 4                  TPL     s:3147+6
         4 002636   000044 737000                    LLS     36
         4 002637   002641 710000 4                  TRA     s:3147+7
         4 002640   000250 506000 0                  DIV     PAENT_STK_SIZE
         4 002641   000034 755000 0                  STA     LOW_INDX

      804     3148    5                   END;

   3148  4 002642   002730 710000 4                  TRA     s:3171

      805     3149    4               ELSE
      806     3150    5               DO; /* STK IS EMPTY */

      807     3151    5                   IF HIGH_INDX=0 THEN

   3151  4 002643   000035 235000 0                  LDA     HIGH_INDX
PL6.E3A0      #002=ZIU$PA_SORTIN File=ZIU$COMPACT.:ZIC0TSI                       FRI 09/05/97 13:10 Page:151
         4 002644   002651 601000 4                  TNZ     s:3154

      808     3152    5                       X=PAENT_STK_SIZE-1; /* GET LAST ENTRY INDX */

   3152  4 002645   000250 235000 0                  LDA     PAENT_STK_SIZE
         4 002646   000001 135007                    SBLA    1,DL
         4 002647   000000 755000 xsym               STA     X
         4 002650   002653 710000 4                  TRA     s:3155

      809     3153    5                   ELSE
      810     3154    5                       X=HIGH_INDX-1;

   3154  4 002651   000001 135007                    SBLA    1,DL
         4 002652   000000 755000 xsym               STA     X

      811     3155    5                   NEXT_DBK=PINCRC(PASTK$,X*(4+ENTRY_LEN))->PAENT_STK.PA_DBK;

   3155  4 002653   000003 236000 0                  LDQ     ENTRY_LEN
         4 002654   000004 036007                    ADLQ    4,DL
         4 002655   000000 402000 xsym               MPY     X
         4 002656   000247 470400 0                  LDP0    PASTK$
         4 002657   000000 100506                    MLR     fill='000'O
         4 002660   000000 000004                    ADSC9   0,Q,PR0                  cn=0,n=4
         4 002661   000043 000004 0                  ADSC9   NEXT_DBK                 cn=0,n=4

      812     3156    5                   CALL FIND_DIRECT(NEXT_DBK,%DONT_LOCK); /* GET IT */

   3156  4 002662   000063 630400 5                  EPPR0   51
         4 002663   000006 631400 5                  EPPR1   6
         4 002664   000000 701000 xent               TSX1    FIND_DIRECT
         4 002665   000000 011000                    NOP     0

      813     3157    6                   DO WHILE(LOW_INDX=HIGH_INDX AND FIRST_TIME_CALLED>0);

   3157  4 002666   002723 710000 4                  TRA     s:3169

      814     3158    6                       REC2$ = PINCRC(REC$,8); /* LOC OF NEXT PTR IN PA */
PL6.E3A0      #002=ZIU$PA_SORTIN File=ZIU$COMPACT.:ZIC0TSI                       FRI 09/05/97 13:10 Page:152

   3158  4 002667   000000 236000 xsym               LDQ     REC$
         4 002670   000002 036003                    ADLQ    2,DU
         4 002671   000000 756000 xsym               STQ     REC2$

      815     3159    6                       CALL GET_PTR2(NEXT_DBK); /* LOAD IT */

   3159  4 002672   000054 236000 5                  LDQ     44
         4 002673   000252 756000 0                  STQ     @POINTER
         4 002674   000017 701000 4                  TSX1    GET_PTR2
         4 002675   000000 011000                    NOP     0

      816     3160    6                       IF NEXT_DBK=CURR_LEVEL.FIRST_PA(NO_OF_LEVELS) OR

   3160  4 002676   000004 235000 0                  LDA     NO_OF_LEVELS
         4 002677   000002 735000                    ALS     2
         4 002700   000043 236000 0                  LDQ     NEXT_DBK
         4 002701   002704 604000 4                  TMI     s:3160+6
         4 002702   000047 116005 0                  CMPQ    CURR_LEVEL+1,AL
         4 002703   002711 600000 4                  TZE     s:3163
         4 002704   000004 235000 0                  LDA     NO_OF_LEVELS
         4 002705   002711 600000 4                  TZE     s:3163
         4 002706   000000 235000 xsym               LDA     FIRST_TIME_CALLED
         4 002707   000001 115007                    CMPA    1,DL
         4 002710   002713 601000 4                  TNZ     s:3166

      817     3161    6                          NO_OF_LEVELS=0 OR /* ONLY 1 PA EXIST */
      818     3162    6                          FIRST_TIME_CALLED=1 THEN /* ALL LOWEST PA PUSHED */
      819     3163    6                           FIRST_TIME_CALLED=0; /* ALL ENTRIES STORED */

   3163  4 002711   000000 450000 xsym               STZ     FIRST_TIME_CALLED
         4 002712   002723 710000 4                  TRA     s:3169

      820     3164    6                       ELSE
      821     3165    7                       DO;

      822     3166    7                           CALL FIND_DIRECT(NEXT_DBK,%MUST_WRITE); /* FIND NEXT */
PL6.E3A0      #002=ZIU$PA_SORTIN File=ZIU$COMPACT.:ZIC0TSI                       FRI 09/05/97 13:10 Page:153

   3166  4 002713   000065 630400 5                  EPPR0   53
         4 002714   000006 631400 5                  EPPR1   6
         4 002715   000000 701000 xent               TSX1    FIND_DIRECT
         4 002716   000000 011000                    NOP     0

      823     3167    7                           CALL PUSH_PAENTRY(NEXT_DBK); /* AND PUSH TO STK */

   3167  4 002717   000054 630400 5                  EPPR0   44
         4 002720   000043 631400 5                  EPPR1   35
         4 002721   000000 701000 xent               TSX1    PUSH_PAENTRY
         4 002722   000000 011000                    NOP     0

      824     3168    7                           END;

      825     3169    6                       END;

   3169  4 002723   000034 236000 0                  LDQ     LOW_INDX
         4 002724   000035 116000 0                  CMPQ    HIGH_INDX
         4 002725   002730 601000 4                  TNZ     s:3171
         4 002726   000000 235000 xsym               LDA     FIRST_TIME_CALLED
         4 002727   002667 605400 4                  TPNZ    s:3158

      826     3170    5                   END;

      827     3171    4               END;

   3171  4 002730   000000 235000 xsym               LDA     FIRST_TIME_CALLED
         4 002731   002457 605400 4                  TPNZ    s:3118

      828     3172    3           CALL PA_CLEANUP ALTRET(WRIT_ERR); /* DONE WITH A SC */

   3172  4 002732   000000 631400 5                  EPPR1   0
         4 002733   000000 701000 xent               TSX1    PA_CLEANUP
         4 002734   002753 702000 4                  TSX2    WRIT_ERR

      829     3173    3   SET_EMPTY:
PL6.E3A0      #002=ZIU$PA_SORTIN File=ZIU$COMPACT.:ZIC0TSI                       FRI 09/05/97 13:10 Page:154
      830     3174    3           RC_PTR=RC_TBL.RC_NEXT(RC_PTR);

   3174  4 002735   000000 236000 xsym  SET_EMPTY    LDQ     RC_PTR
         4 002736   000003 402007                    MPY     3,DL
         4 002737   000002 236006 xsym               LDQ     RC_TBL+2,QL
         4 002740   000033 772000                    QRL     27
         4 002741   000000 756000 xsym               STQ     RC_PTR

      831     3175    3           IF RC_PTR>0 THEN

   3175  4 002742   002747 604400 4                  TMOZ    s:3177

      832     3176    3               CALL FIND_DIRECT(CURR_OWNER,%DONT_LOCK);

   3176  4 002743   000031 630400 5                  EPPR0   25
         4 002744   000006 631400 5                  EPPR1   6
         4 002745   000000 701000 xent               TSX1    FIND_DIRECT
         4 002746   000000 011000                    NOP     0

      833     3177    3           END;

   3177  4 002747   000000 235000 xsym               LDA     RC_PTR
         4 002750   002321 605400 4                  TPNZ    s:3088

      834     3178    2       RETURN; /* ALL SC THRU A OWNER COMPACTED */

   3178  4 002751   000257 221200 0                  LDX1  ! PTR_TEMP+3
         4 002752   000001 702211                    TSX2  ! 1,X1

      835     3179
      836     3180    2   WRIT_ERR: ALTRETURN; /* ONLY HAPPEN ON IO ERROR WRITING PATCH FILE */

   3180  4 002753   000257 221200 0     WRIT_ERR     LDX1  ! PTR_TEMP+3
         4 002754   000000 702211                    TSX2  ! 0,X1

      837     3181
      838     3182        /*E*  ERROR: ZIU-DBU#PATYPER1-C
PL6.E3A0      #002=ZIU$PA_SORTIN File=ZIU$COMPACT.:ZIC0TSI                       FRI 09/05/97 13:10 Page:155
      839     3183        MESSAGE: Error: One of the entries in *PA_REC_%U1 at DBK# %U2
      840     3184                        has a non-member's TYPE. COMPACT/CONV_TO_CHAIN aborted.
      841     3185                        Run REBUILD PA utility to reconstruct this set. */
      842     3186    2   END COMPACT_AN_OWNER;
      843     3187        %EJECT;
PL6.E3A0      #002=ZIU$PA_SORTIN File=ZIU$COMPACT.:ZIC0TSI                       FRI 09/05/97 13:10 Page:156
      844     3188        /*
      845     3189              SUBR  CALLED BY  REVERT
      846     3190                    REVERT EXTRACTS EACH POINTER FROM LOWEST LEVEL OF PA
      847     3191                    THEN CALL THIS ROUTINE TO WRITE A PATCH RECORD
      848     3192                    FOR IT
      849     3193        */
      850     3194    1   WRITE_PATCH_RECORD: PROC ALTRET;

   3194  4 002755   000260 741200 0     WRITE_PATCH* STX1  ! PTR_TEMP+4

      851     3195
      852     3196    2       IF PRIOR_DBK=CURR_OWNER THEN /* 1ST POINTER IN LOWEST PA */

   3196  4 002756   000042 236000 0                  LDQ     PRIOR_DBK
         4 002757   000040 116000 0                  CMPQ    CURR_OWNER
         4 002760   002764 601000 4                  TNZ     s:3202

      853     3197    2           STK.NEXT(0)=CURR_DBK; /* THIS PTR IS THE NEXT PTR OF OWNER */

   3197  4 002761   000041 235000 0                  LDA     CURR_DBK
         4 002762   000000 755000 xsym               STA     STK
         4 002763   003130 710000 4                  TRA     s:3224

      854     3198    2       ELSE
      855     3199         /* NOTE: IF DUMMY EXISTS THEN CURR_DBK=CURR_OWNER,SO WILL BE SKIPPED */
      856     3200    3       DO;

      857     3201         /* SEARCH AC AND RC FOR THE MEMBER POINTED BY */
      858     3202    3           KEY.RC_PTR=SC_TBL.RC_PTR(SC_PTR)+1;

   3202  4 002764   000000 236000 xsym               LDQ     SC_PTR
         4 002765   000405 402007                    MPY     261,DL
         4 002766   000000 116003                    CMPQ    0,DU
         4 002767   002771 605000 4                  TPL     s:3202+5
         4 002770   000044 036003                    ADLQ    36,DU
         4 002771   003000 061406                    CSR     bolr='003'O
         4 002772   000005 650011 xsym               BDSC    SC_TBL+5,Q               by=3,bit=5,n=9
PL6.E3A0      #002=ZIU$PA_SORTIN File=ZIU$COMPACT.:ZIC0TSI                       FRI 09/05/97 13:10 Page:157
         4 002773   000266 000044 0                  BDSC    @FIND_TYPE+3             by=0,bit=0,n=36
         4 002774   000266 236000 0                  LDQ     @FIND_TYPE+3
         4 002775   000001 036007                    ADLQ    1,DL
         4 002776   000022 736000                    QLS     18
         4 002777   000045 552020 0                  STBQ    KEY+1,'20'O

      859     3203    3           X = 0;

   3203  4 003000   000000 450000 xsym               STZ     X

      860     3204    4           DO WHILE(X<SC_TBL.NO_OF_SM(SC_PTR) AND

   3204  4 003001   003006 710000 4                  TRA     s:3208

      861     3205    4              RC_TBL.TYPE(KEY.RC_PTR)~=STK.CURR(0));
      862     3206    4               X = X + 1;

   3206  4 003002   000000 054000 xsym               AOS     X

      863     3207    4               KEY.RC_PTR = KEY.RC_PTR + 1;

   3207  4 003003   000045 236000 0                  LDQ     KEY+1
         4 003004   000001 036003                    ADLQ    1,DU
         4 003005   000045 552020 0                  STBQ    KEY+1,'20'O

      864     3208    4               END;

   3208  4 003006   000000 236000 xsym               LDQ     SC_PTR
         4 003007   000405 402007                    MPY     261,DL
         4 003010   000000 116003                    CMPQ    0,DU
         4 003011   003013 605000 4                  TPL     s:3208+5
         4 003012   000044 036003                    ADLQ    36,DU
         4 003013   003000 061406                    CSR     bolr='003'O
         4 003014   000005 420006 xsym               BDSC    SC_TBL+5,Q               by=2,bit=2,n=6
         4 003015   000266 000044 0                  BDSC    @FIND_TYPE+3             by=0,bit=0,n=36
         4 003016   000266 236000 0                  LDQ     @FIND_TYPE+3
         4 003017   000000 116000 xsym               CMPQ    X
PL6.E3A0      #002=ZIU$PA_SORTIN File=ZIU$COMPACT.:ZIC0TSI                       FRI 09/05/97 13:10 Page:158
         4 003020   003031 604400 4                  TMOZ    s:3209
         4 003021   000045 236000 0                  LDQ     KEY+1
         4 003022   000022 772000                    QRL     18
         4 003023   000777 376007                    ANQ     511,DL
         4 003024   000003 402007                    MPY     3,DL
         4 003025   000001 236006 xsym               LDQ     RC_TBL+1,QL
         4 003026   000022 772000                    QRL     18
         4 003027   000002 116000 xsym               CMPQ    STK+2
         4 003030   003002 601000 4                  TNZ     s:3206

      865     3209    3           IF X>=SC_TBL.NO_OF_SM(SC_PTR) THEN

   3209  4 003031   000000 236000 xsym               LDQ     SC_PTR
         4 003032   000405 402007                    MPY     261,DL
         4 003033   000000 116003                    CMPQ    0,DU
         4 003034   003036 605000 4                  TPL     s:3209+5
         4 003035   000044 036003                    ADLQ    36,DU
         4 003036   003000 061406                    CSR     bolr='003'O
         4 003037   000005 420006 xsym               BDSC    SC_TBL+5,Q               by=2,bit=2,n=6
         4 003040   000266 000044 0                  BDSC    @FIND_TYPE+3             by=0,bit=0,n=36
         4 003041   000266 236000 0                  LDQ     @FIND_TYPE+3
         4 003042   000000 116000 xsym               CMPQ    X
         4 003043   003067 605400 4                  TPNZ    s:3215

      866     3210    4           DO;

      867     3211    4               CALL BIN_CHAR(1,NEXT_DBK); /* ERROR IN PAREC AT NEXT_DBK */

   3211  4 003044   000067 630400 5                  EPPR0   55
         4 003045   000006 631400 5                  EPPR1   6
         4 003046   000000 701000 xent               TSX1    BIN_CHAR
         4 003047   000000 011000                    NOP     0

      868     3212    4               CALL ERROR_MSG(DBU#PATYPER1,SC_TBL.NAME(SC_PTR));

   3212  4 003050   000000 236000 xsym               LDQ     SC_PTR
         4 003051   000014 402000 5                  MPY     12
PL6.E3A0      #002=ZIU$PA_SORTIN File=ZIU$COMPACT.:ZIC0TSI                       FRI 09/05/97 13:10 Page:159
         4 003052   000013 036000 5                  ADLQ    11
         4 003053   000062 235000 5                  LDA     50
         4 003054   000266 757000 0                  STAQ    @FIND_TYPE+3
         4 003055   000266 630400 0                  EPPR0   @FIND_TYPE+3
         4 003056   000006 631400 5                  EPPR1   6
         4 003057   000000 701000 xent               TSX1    ERROR_MSG
         4 003060   000000 011000                    NOP     0

      869     3213    4               UNWIND TO BREAK_CLEANUP;

   3213  4 003061   000000 100600                    MLR   ! fill='000'O
         4 003062   000007 000010 0                  ADSC9   BREAK_CLEANUP            cn=0,n=8
         4 003063   000266 000010 0                  ADSC9   @FIND_TYPE+3             cn=0,n=8
         4 003064   000266 237200 0                  LDAQ  ! @FIND_TYPE+3
         4 003065   000000 700200 xent               TSX0  ! X66_SUNWIND
         4 003066   000000 000200                    ZERO    0,128

      870     3214    4               END;
      871     3215    3           STK.CURR(1)=PRIOR_DBK;

   3215  4 003067   000042 235000 0                  LDA     PRIOR_DBK
         4 003070   000006 755000 xsym               STA     STK+6

      872     3216    3           STK.PRIOR(1)=STK.PRIOR(0);

   3216  4 003071   000001 235000 xsym               LDA     STK+1
         4 003072   000005 755000 xsym               STA     STK+5

      873     3217    3           STK.NEXT(1)=CURR_DBK;

   3217  4 003073   000041 235000 0                  LDA     CURR_DBK
         4 003074   000004 755000 xsym               STA     STK+4

      874     3218    3           KEY.TXT=PRIOR_DBK;

   3218  4 003075   000000 100400                    MLR     fill='000'O
         4 003076   000042 000004 0                  ADSC9   PRIOR_DBK                cn=0,n=4
PL6.E3A0      #002=ZIU$PA_SORTIN File=ZIU$COMPACT.:ZIC0TSI                       FRI 09/05/97 13:10 Page:160
         4 003077   000044 200004 0                  ADSC9   KEY                      cn=1,n=4

      875     3219    3           CALL M$WRITE(WRITE_TEMP) ALTRET(ALT);

   3219  4 003100   000012 630400 0                  EPPR0   WRITE_TEMP
         4 003101   440001 713400                    CLIMB   alt,write
         4 003102   401400 401760                    pmme    nvectors=4
         4 003103   003142 702000 4                  TSX2    ALT

      876     3220    3           REC_CNT=REC_CNT+1;

   3220  4 003104   000000 054000 xsym               AOS     REC_CNT

      877     3221    3           SC_TBL.COUNT2(SC_PTR)=SC_TBL.COUNT2(SC_PTR)+1;

   3221  4 003105   000000 236000 xsym               LDQ     SC_PTR
         4 003106   000405 402007                    MPY     261,DL
         4 003107   000000 116003                    CMPQ    0,DU
         4 003110   003112 605000 4                  TPL     s:3221+5
         4 003111   000044 036003                    ADLQ    36,DU
         4 003112   003000 061406                    CSR     bolr='003'O
         4 003113   000006 050022 xsym               BDSC    SC_TBL+6,Q               by=0,bit=5,n=18
         4 003114   000267 000044 0                  BDSC    @FIND_TYPE+4             by=0,bit=0,n=36
         4 003115   000267 236000 0                  LDQ     @FIND_TYPE+4
         4 003116   000001 036007                    ADLQ    1,DL
         4 003117   000266 756000 0                  STQ     @FIND_TYPE+3
         4 003120   000000 236000 xsym               LDQ     SC_PTR
         4 003121   000405 402007                    MPY     261,DL
         4 003122   000000 116003                    CMPQ    0,DU
         4 003123   003125 605000 4                  TPL     s:3221+16
         4 003124   000044 036003                    ADLQ    36,DU
         4 003125   003006 061400                    CSR     bolr='003'O
         4 003126   000266 000044 0                  BDSC    @FIND_TYPE+3             by=0,bit=0,n=36
         4 003127   000006 050022 xsym               BDSC    SC_TBL+6,Q               by=0,bit=5,n=18

      878     3222    3           END;

PL6.E3A0      #002=ZIU$PA_SORTIN File=ZIU$COMPACT.:ZIC0TSI                       FRI 09/05/97 13:10 Page:161
      879     3223         /* PUSH CURR INFO TO PRIOR */
      880     3224    2       STK.PRIOR(0)=PRIOR_DBK;

   3224  4 003130   000042 235000 0                  LDA     PRIOR_DBK
         4 003131   000001 755000 xsym               STA     STK+1

      881     3225    2       PRIOR_DBK = CURR_DBK;

   3225  4 003132   000041 236000 0                  LDQ     CURR_DBK
         4 003133   000042 756000 0                  STQ     PRIOR_DBK

      882     3226    2       STK.CURR(0)=PA_ENTRY.TYPE;

   3226  4 003134   000000 470400 xsym               LDP0    ENTRY$
         4 003135   003000 061500                    CSR     bolr='003'O
         4 003136   000000 060014                    BDSC    0,,PR0                   by=0,bit=6,n=12
         4 003137   000002 000044 xsym               BDSC    STK+2                    by=0,bit=0,n=36

      883     3227    2       RETURN;

   3227  4 003140   000260 221200 0                  LDX1  ! PTR_TEMP+4
         4 003141   000001 702211                    TSX2  ! 1,X1

      884     3228    2   ALT: ALTRETURN;

   3228  4 003142   000260 221200 0     ALT          LDX1  ! PTR_TEMP+4
         4 003143   000000 702211                    TSX2  ! 0,X1

      885     3229    2   END WRITE_PATCH_RECORD;
      886     3230        %EJECT;
PL6.E3A0      #002=ZIU$PA_SORTIN File=ZIU$COMPACT.:ZIC0TSI                       FRI 09/05/97 13:10 Page:162
      887     3231        /*
      888     3232              SUBR    REVERT_AN_OWNER - GO THRU ALL SC
      889     3233                                        FIND FIRST PA IN LOWEST LEVEL
      890     3234                                        GO THRU ALL POINTERS IN LOWEST LEVEL
      891     3235        */
      892     3236    1   REVERT_AN_OWNER: PROC ALTRET;

   3236  4 003144   000261 741200 0     REVERT_AN_O* STX1  ! PTR_TEMP+5

      893     3237
      894     3238
      895     3239    2       CALL FIND_DIRECT(CURR_OWNER,%DONT_LOCK); /* FIND OWNER */

   3239  4 003145   000031 630400 5                  EPPR0   25
         4 003146   000006 631400 5                  EPPR1   6
         4 003147   000000 701000 xent               TSX1    FIND_DIRECT
         4 003150   000000 011000                    NOP     0

      896     3240    2       RC_PTR=TYPE.MSTRINDX(PA_REC.TYPE); /* GET RECORD TYPE */

   3240  4 003151   000000 470400 xsym               LDP0    REC$
         4 003152   003000 061500                    CSR     bolr='003'O
         4 003153   000000 060014                    BDSC    0,,PR0                   by=0,bit=6,n=12
         4 003154   000266 000044 0                  BDSC    @FIND_TYPE+3             by=0,bit=0,n=36
         4 003155   000266 236000 0                  LDQ     @FIND_TYPE+3
         4 003156   000001 736000                    QLS     1
         4 003157   000000 100406                    MLR     fill='000'O
         4 003160   000000 000002 xsym               ADSC9   TYPE,Q                   cn=0,n=2
         4 003161   000267 000004 0                  ADSC9   @FIND_TYPE+4             cn=0,n=4
         4 003162   000267 236000 0                  LDQ     @FIND_TYPE+4
         4 003163   000022 732000                    QRS     18
         4 003164   000000 756000 xsym               STQ     RC_PTR

      897     3241    3       DO WHILE(RC_PTR>0); /* LOOP THRU SC */

   3241  4 003165   003525 604400 4                  TMOZ    s:3312

PL6.E3A0      #002=ZIU$PA_SORTIN File=ZIU$COMPACT.:ZIC0TSI                       FRI 09/05/97 13:10 Page:163
      898     3242    3           SC_PTR = RC_TBL.SC_PTR(RC_PTR);

   3242  4 003166   000000 236000 xsym               LDQ     RC_PTR
         4 003167   000003 402007                    MPY     3,DL
         4 003170   000002 236006 xsym               LDQ     RC_TBL+2,QL
         4 003171   000022 772000                    QRL     18
         4 003172   000777 376007                    ANQ     511,DL
         4 003173   000000 756000 xsym               STQ     SC_PTR

      899     3243    3           IF SC_TBL.GLOBAL(SC_PTR)=0 THEN /* SET IS LOCAL */

   3243  4 003174   000405 402007                    MPY     261,DL
         4 003175   000000 116003                    CMPQ    0,DU
         4 003176   003200 605000 4                  TPL     s:3243+4
         4 003177   000044 036003                    ADLQ    36,DU
         4 003200   003000 061406                    CSR     bolr='003'O
         4 003201   000005 640001 xsym               BDSC    SC_TBL+5,Q               by=3,bit=4,n=1
         4 003202   000266 000044 0                  BDSC    @FIND_TYPE+3             by=0,bit=0,n=36
         4 003203   000266 236000 0                  LDQ     @FIND_TYPE+3
         4 003204   000000 116003                    CMPQ    0,DU
         4 003205   003213 601000 4                  TNZ     s:3246

      900     3244    3               BASE_DBK = AC_TBL.BASE_DBK(AC_PTR);

   3244  4 003206   000000 236000 xsym               LDQ     AC_PTR
         4 003207   000014 402007                    MPY     12,DL
         4 003210   000000 235006 xsym               LDA     AC_TBL,QL
         4 003211   000000 755000 xsym               STA     BASE_DBK
         4 003212   003214 710000 4                  TRA     s:3247

      901     3245    3           ELSE
      902     3246    3               BASE_DBK = 0; /* FOR GLOBAL SET DONT ADJUST POINTERS */

   3246  4 003213   000000 450000 xsym               STZ     BASE_DBK

      903     3247    3           CALL FIND_FIRST_PA(%MUST_WRITE) ALTRET(SET_EMPTY);
              3247                    /* GET 1ST PA IN LOWEST */
PL6.E3A0      #002=ZIU$PA_SORTIN File=ZIU$COMPACT.:ZIC0TSI                       FRI 09/05/97 13:10 Page:164

   3247  4 003214   000010 236000 5                  LDQ     8
         4 003215   000263 756000 0                  STQ     PTR_TEMP+7
         4 003216   003531 701000 4                  TSX1    FIND_FIRST_PA
         4 003217   003511 702000 4                  TSX2    SET_EMPTY

      904     3248    3           ENTRY_LEN=2+PTR_LEN+SC_TBL.PA_KEYSIZE(SC_PTR);

   3248  4 003220   000000 236000 xsym               LDQ     SC_PTR
         4 003221   000405 402007                    MPY     261,DL
         4 003222   000000 116003                    CMPQ    0,DU
         4 003223   003225 605000 4                  TPL     s:3248+5
         4 003224   000044 036003                    ADLQ    36,DU
         4 003225   003000 061406                    CSR     bolr='003'O
         4 003226   000004 050011 xsym               BDSC    SC_TBL+4,Q               by=0,bit=5,n=9
         4 003227   000266 000044 0                  BDSC    @FIND_TYPE+3             by=0,bit=0,n=36
         4 003230   000266 236000 0                  LDQ     @FIND_TYPE+3
         4 003231   000000 036000 xsym               ADLQ    PTR_LEN
         4 003232   000002 036007                    ADLQ    2,DL
         4 003233   000003 756000 0                  STQ     ENTRY_LEN

      905     3249    3           PRIOR_DBK = CURR_OWNER;

   3249  4 003234   000040 235000 0                  LDA     CURR_OWNER
         4 003235   000042 755000 0                  STA     PRIOR_DBK

      906     3250    4           DO WHILE('1'B); /* LOOP THRU ALL LOWEST PA REC */

      907     3251    4               IF BREAK_FLAG>0 THEN /* BREAK HIT */

   3251  4 003236   000000 235000 xsym               LDA     BREAK_FLAG
         4 003237   003246 604400 4                  TMOZ    s:3253

      908     3252    4                   UNWIND TO BREAK_CLEANUP;

   3252  4 003240   000000 100600                    MLR   ! fill='000'O
         4 003241   000007 000010 0                  ADSC9   BREAK_CLEANUP            cn=0,n=8
PL6.E3A0      #002=ZIU$PA_SORTIN File=ZIU$COMPACT.:ZIC0TSI                       FRI 09/05/97 13:10 Page:165
         4 003242   000266 000010 0                  ADSC9   @FIND_TYPE+3             cn=0,n=8
         4 003243   000266 237200 0                  LDAQ  ! @FIND_TYPE+3
         4 003244   000000 700200 xent               TSX0  ! X66_SUNWIND
         4 003245   000000 000200                    ZERO    0,128

      909     3253    4               ENTRY$=PINCRC(REC$,8+3*PTR_LEN); /* FIRST ENTRY */

   3253  4 003246   000000 236000 xsym               LDQ     PTR_LEN
         4 003247   600000 402007                    MPY     -65536,DL
         4 003250   000002 036003                    ADLQ    2,DU
         4 003251   000000 036000 xsym               ADLQ    REC$
         4 003252   000000 756000 xsym               STQ     ENTRY$

      910     3254    5               DO LOW_INDX=1 TO PA_REC.ENTRIES;

   3254  4 003253   000001 235007                    LDA     1,DL
         4 003254   000034 755000 0                  STA     LOW_INDX
         4 003255   003346 710000 4                  TRA     s:3277+1

      911     3255    5                   REC2$ = PINCRC(ENTRY$,2);

   3255  4 003256   000000 236000 xsym               LDQ     ENTRY$
         4 003257   400000 036007                    ADLQ    -131072,DL
         4 003260   000000 756000 xsym               STQ     REC2$

      912     3256    5                   CURR_DBK = 0;

   3256  4 003261   000041 450000 0                  STZ     CURR_DBK

      913     3257    5                   PINCRC(ADDR(CURR_DBK),4-PTR_LEN)->CHAR_V=PA_ENTRY.PTRS;

   3257  4 003262   000000 335000 xsym               LCA     PTR_LEN
         4 003263   000000 470400 xsym               LDP0    ENTRY$
         4 003264   000000 720000 xsym               LXL0    PTR_LEN
         4 003265   040045 100540                    MLR     fill='040'O
         4 003266   000000 400010                    ADSC9   0,,PR0                   cn=2,n=*X0
         4 003267   000042 000010 0                  ADSC9   PRIOR_DBK,A              cn=0,n=*X0
PL6.E3A0      #002=ZIU$PA_SORTIN File=ZIU$COMPACT.:ZIC0TSI                       FRI 09/05/97 13:10 Page:166

      914     3258    5                   IF PA_ENTRY.C=0 THEN /* UNIQUE ENTRY */

   3258  4 003270   003000 061500                    CSR     bolr='003'O
         4 003271   000000 000001                    BDSC    0,,PR0                   by=0,bit=0,n=1
         4 003272   000266 000044 0                  BDSC    @FIND_TYPE+3             by=0,bit=0,n=36
         4 003273   000266 236000 0                  LDQ     @FIND_TYPE+3
         4 003274   000000 116003                    CMPQ    0,DU
         4 003275   003304 601000 4                  TNZ     s:3265

      915     3259    6                   DO;

      916     3260    6                       CURR_DBK = CURR_DBK + BASE_DBK; /* TO LOCAL IF LOCALSC */

   3260  4 003276   000041 236000 0                  LDQ     CURR_DBK
         4 003277   000000 036000 xsym               ADLQ    BASE_DBK
         4 003300   000041 756000 0                  STQ     CURR_DBK

      917     3261    6                       CALL WRITE_PATCH_RECORD ALTRET(WRIT_ERR);

   3261  4 003301   002755 701000 4                  TSX1    WRITE_PATCH_RECORD
         4 003302   003527 702000 4                  TSX2    WRIT_ERR

      918     3262    6                       END;

   3262  4 003303   003341 710000 4                  TRA     s:3276

      919     3263    5                   ELSE
      920     3264    6                   DO; /* POINTER GROUP PRESENT */

      921     3265    6                       GROUP$=PINCRC(REC$,CURR_DBK);

   3265  4 003304   000041 236000 0                  LDQ     CURR_DBK
         4 003305   000020 736000                    QLS     16
         4 003306   000000 036000 xsym               ADLQ    REC$
         4 003307   000000 756000 xsym               STQ     GROUP$

PL6.E3A0      #002=ZIU$PA_SORTIN File=ZIU$COMPACT.:ZIC0TSI                       FRI 09/05/97 13:10 Page:167
      922     3266    6                       HIGH_INDX = PA_GROUP.NO_GROUPS;

   3266  4 003310   000000 471400 xsym               LDP1    GROUP$
         4 003311   000000 101500                    MRL     fill='000'O
         4 003312   100000 000002                    ADSC9   0,,PR1                   cn=0,n=2
         4 003313   000035 000004 0                  ADSC9   HIGH_INDX                cn=0,n=4

      923     3267    6                       REC2$=PINCRC(GROUP$,2); /* SKIP PTR GROUP COUNT */

   3267  4 003314   400000 036007                    ADLQ    -131072,DL
         4 003315   000000 756000 xsym               STQ     REC2$

      924     3268    7                       DO WHILE(HIGH_INDX>0); /* LOOP THRU POINTER GROUP */

   3268  4 003316   000035 235000 0                  LDA     HIGH_INDX
         4 003317   003341 604400 4                  TMOZ    s:3276

      925     3269    7                           PA_ENTRY.TYPE=PINCRC(REC2$,-2)->PA_GROUP.TYPE;

   3269  4 003320   000000 470400 xsym               LDP0    REC2$
         4 003321   000000 471400 xsym               LDP1    ENTRY$
         4 003322   003100 061500                    CSR     bolr='003'O
         4 003323   000000 000022                    BDSC    0,,PR0                   by=0,bit=0,n=18
         4 003324   100000 060014                    BDSC    0,,PR1                   by=0,bit=6,n=12

      926     3270    7                           REC2$=PINCRC(REC2$,2);

   3270  4 003325   000000 236000 xsym               LDQ     REC2$
         4 003326   400000 036007                    ADLQ    -131072,DL
         4 003327   000000 756000 xsym               STQ     REC2$

      927     3271    7                           CALL GET_PTR2(CURR_DBK);

   3271  4 003330   000071 236000 5                  LDQ     57
         4 003331   000252 756000 0                  STQ     @POINTER
         4 003332   000017 701000 4                  TSX1    GET_PTR2
         4 003333   000000 011000                    NOP     0
PL6.E3A0      #002=ZIU$PA_SORTIN File=ZIU$COMPACT.:ZIC0TSI                       FRI 09/05/97 13:10 Page:168

      928     3272    7                           CALL WRITE_PATCH_RECORD ALTRET(WRIT_ERR);

   3272  4 003334   002755 701000 4                  TSX1    WRITE_PATCH_RECORD
         4 003335   003527 702000 4                  TSX2    WRIT_ERR

      929     3273    7                           HIGH_INDX = HIGH_INDX - 1;

   3273  4 003336   000001 336007                    LCQ     1,DL
         4 003337   000035 056000 0                  ASQ     HIGH_INDX

      930     3274    7                           END;

   3274  4 003340   003320 605400 4                  TPNZ    s:3269

      931     3275    6                       END;

      932     3276    5                   ENTRY$=PINCRC(ENTRY$,ENTRY_LEN);

   3276  4 003341   000003 236000 0                  LDQ     ENTRY_LEN
         4 003342   000020 736000                    QLS     16
         4 003343   000000 036000 xsym               ADLQ    ENTRY$
         4 003344   000000 756000 xsym               STQ     ENTRY$

      933     3277    5                   END;

   3277  4 003345   000034 054000 0                  AOS     LOW_INDX
         4 003346   000000 470400 xsym               LDP0    REC$
         4 003347   003000 061500                    CSR     bolr='003'O
         4 003350   000001 060014                    BDSC    1,,PR0                   by=0,bit=6,n=12
         4 003351   000266 000044 0                  BDSC    @FIND_TYPE+3             by=0,bit=0,n=36
         4 003352   000266 236000 0                  LDQ     @FIND_TYPE+3
         4 003353   000034 116000 0                  CMPQ    LOW_INDX
         4 003354   003256 605000 4                  TPL     s:3255

      934     3278    4               REC2$=PINCRC(REC$,8);

PL6.E3A0      #002=ZIU$PA_SORTIN File=ZIU$COMPACT.:ZIC0TSI                       FRI 09/05/97 13:10 Page:169
   3278  4 003355   000000 236000 xsym               LDQ     REC$
         4 003356   000002 036003                    ADLQ    2,DU
         4 003357   000000 756000 xsym               STQ     REC2$

      935     3279    4               CALL GET_PTR2(NEXT_DBK); /* GET NEXT PTR OF THE PA_REC */

   3279  4 003360   000054 236000 5                  LDQ     44
         4 003361   000252 756000 0                  STQ     @POINTER
         4 003362   000017 701000 4                  TSX1    GET_PTR2
         4 003363   000000 011000                    NOP     0

      936     3280    4               IF NEXT_DBK=CURR_LEVEL.FIRST_PA(NO_OF_LEVELS) OR

   3280  4 003364   000004 235000 0                  LDA     NO_OF_LEVELS
         4 003365   000002 735000                    ALS     2
         4 003366   000043 236000 0                  LDQ     NEXT_DBK
         4 003367   003372 604000 4                  TMI     s:3280+6
         4 003370   000047 116005 0                  CMPQ    CURR_LEVEL+1,AL
         4 003371   003401 600000 4                  TZE     ALL_PTR_EXTRACTED
         4 003372   000004 235000 0                  LDA     NO_OF_LEVELS
         4 003373   003401 600000 4                  TZE     ALL_PTR_EXTRACTED

      937     3281    4                  NO_OF_LEVELS=0 THEN /* OR ONLY ONE PA THERE */
      938     3282    4                   GOTO ALL_PTR_EXTRACTED;
      939     3283    4               CALL FIND_DIRECT(NEXT_DBK,%DONT_LOCK);

   3283  4 003374   000063 630400 5                  EPPR0   51
         4 003375   000006 631400 5                  EPPR1   6
         4 003376   000000 701000 xent               TSX1    FIND_DIRECT
         4 003377   000000 011000                    NOP     0

      940     3284    4               END;

   3284  4 003400   003236 710000 4                  TRA     s:3251

      941     3285        %EJECT;
PL6.E3A0      #002=ZIU$PA_SORTIN File=ZIU$COMPACT.:ZIC0TSI                       FRI 09/05/97 13:10 Page:170
      942     3286
      943     3287    3   ALL_PTR_EXTRACTED: /* WRITE PATCH RECORD FOR OWNER AND ERASE PA */
      944     3288    3           CALL FIND_DIRECT(CURR_OWNER,%MUST_WRITE);

   3288  4 003401   000072 630400 5     ALL_PTR_EXT* EPPR0   58
         4 003402   000006 631400 5                  EPPR1   6
         4 003403   000000 701000 xent               TSX1    FIND_DIRECT
         4 003404   000000 011000                    NOP     0

      945     3289    3           CALL STORE_PTR(STK.NEXT(0),RC_TBL.NXPNT_EIS(RC_PTR));

   3289  4 003405   000000 236000 xsym               LDQ     RC_PTR
         4 003406   000003 402003                    MPY     3,DU
         4 003407   000022 036000 5                  ADLQ    18
         4 003410   000042 235000 5                  LDA     34
         4 003411   000252 757000 0                  STAQ    @POINTER
         4 003412   000057 701000 4                  TSX1    STORE_PTR
         4 003413   000000 011000                    NOP     0

      946     3290    3           CALL STORE_PTR2(CURR_DBK);

   3290  4 003414   000071 236000 5                  LDQ     57
         4 003415   000252 756000 0                  STQ     @POINTER
         4 003416   000073 701000 4                  TSX1    STORE_PTR2
         4 003417   000000 011000                    NOP     0

      947     3291    3           CURR_DBK=CURR_OWNER; /* DONT FORGET ONE RECORD LEFT IN STK */

   3291  4 003420   000040 235000 0                  LDA     CURR_OWNER
         4 003421   000041 755000 0                  STA     CURR_DBK

      948     3292    3           CALL WRITE_PATCH_RECORD; /* DO CLEANUP */

   3292  4 003422   002755 701000 4                  TSX1    WRITE_PATCH_RECORD
         4 003423   000000 011000                    NOP     0

      949     3293         /* NOW ERASE ALL PA_REC FROM CURR OF OWNER */
PL6.E3A0      #002=ZIU$PA_SORTIN File=ZIU$COMPACT.:ZIC0TSI                       FRI 09/05/97 13:10 Page:171
      950     3294    4           DO LEVEL#=0 TO NO_OF_LEVELS;

   3294  4 003424   000005 450000 0                  STZ     LEVEL#
         4 003425   003506 710000 4                  TRA     s:3306+1

      951     3295    4               CALL FIND_DIRECT(CURR_LEVEL.FIRST_PA(LEVEL#),%MUST_WRITE);

   3295  4 003426   000010 236000 5                  LDQ     8
         4 003427   000267 756000 0                  STQ     @FIND_TYPE+4
         4 003430   000005 236000 0                  LDQ     LEVEL#
         4 003431   000024 736000                    QLS     20
         4 003432   000074 036000 5                  ADLQ    60
         4 003433   000266 756000 0                  STQ     @FIND_TYPE+3
         4 003434   000266 630400 0                  EPPR0   @FIND_TYPE+3
         4 003435   000006 631400 5                  EPPR1   6
         4 003436   000000 701000 xent               TSX1    FIND_DIRECT
         4 003437   000000 011000                    NOP     0

      952     3296    4               REC2$=PINCRC(REC$,8);

   3296  4 003440   000000 236000 xsym               LDQ     REC$
         4 003441   000002 036003                    ADLQ    2,DU
         4 003442   000000 756000 xsym               STQ     REC2$

      953     3297    4               CALL GET_PTR2(NEXT_DBK); /* LOAD NEXT PTR */

   3297  4 003443   000054 236000 5                  LDQ     44
         4 003444   000252 756000 0                  STQ     @POINTER
         4 003445   000017 701000 4                  TSX1    GET_PTR2
         4 003446   000000 011000                    NOP     0

      954     3298    4               CALL ERASE_PAREC;

   3298  4 003447   000000 631400 5                  EPPR1   0
         4 003450   000000 701000 xent               TSX1    ERASE_PAREC
         4 003451   000000 011000                    NOP     0

PL6.E3A0      #002=ZIU$PA_SORTIN File=ZIU$COMPACT.:ZIC0TSI                       FRI 09/05/97 13:10 Page:172
      955     3299    4               IF LEVEL#>0 THEN /* NOT HIGHEST LEVEL */

   3299  4 003452   000005 235000 0                  LDA     LEVEL#
         4 003453   003505 604400 4                  TMOZ    s:3306

      956     3300    5               DO WHILE (NEXT_DBK~=CURR_LEVEL.FIRST_PA(LEVEL#));

   3300  4 003454   000002 735000                    ALS     2
         4 003455   000043 236000 0                  LDQ     NEXT_DBK
         4 003456   003461 604000 4                  TMI     s:3301
         4 003457   000047 116005 0                  CMPQ    CURR_LEVEL+1,AL
         4 003460   003505 600000 4                  TZE     s:3306

      957     3301    5                   CALL FIND_DIRECT(NEXT_DBK,%MUST_WRITE);

   3301  4 003461   000065 630400 5                  EPPR0   53
         4 003462   000006 631400 5                  EPPR1   6
         4 003463   000000 701000 xent               TSX1    FIND_DIRECT
         4 003464   000000 011000                    NOP     0

      958     3302    5                   REC2$=PINCRC(REC$,8);

   3302  4 003465   000000 236000 xsym               LDQ     REC$
         4 003466   000002 036003                    ADLQ    2,DU
         4 003467   000000 756000 xsym               STQ     REC2$

      959     3303    5                   CALL GET_PTR2(NEXT_DBK);

   3303  4 003470   000054 236000 5                  LDQ     44
         4 003471   000252 756000 0                  STQ     @POINTER
         4 003472   000017 701000 4                  TSX1    GET_PTR2
         4 003473   000000 011000                    NOP     0

      960     3304    5                   CALL ERASE_PAREC;

   3304  4 003474   000000 631400 5                  EPPR1   0
         4 003475   000000 701000 xent               TSX1    ERASE_PAREC
PL6.E3A0      #002=ZIU$PA_SORTIN File=ZIU$COMPACT.:ZIC0TSI                       FRI 09/05/97 13:10 Page:173
         4 003476   000000 011000                    NOP     0

      961     3305    5                   END;

   3305  4 003477   000005 235000 0                  LDA     LEVEL#
         4 003500   000002 735000                    ALS     2
         4 003501   000043 236000 0                  LDQ     NEXT_DBK
         4 003502   003461 604000 4                  TMI     s:3301
         4 003503   000047 116005 0                  CMPQ    CURR_LEVEL+1,AL
         4 003504   003461 601000 4                  TNZ     s:3301

      962     3306    4               END;

   3306  4 003505   000005 054000 0                  AOS     LEVEL#
         4 003506   000005 236000 0                  LDQ     LEVEL#
         4 003507   000004 116000 0                  CMPQ    NO_OF_LEVELS
         4 003510   003426 604400 4                  TMOZ    s:3295

      963     3307    3   SET_EMPTY:
      964     3308    3           RC_PTR=RC_TBL.RC_NEXT(RC_PTR);

   3308  4 003511   000000 236000 xsym  SET_EMPTY    LDQ     RC_PTR
         4 003512   000003 402007                    MPY     3,DL
         4 003513   000002 236006 xsym               LDQ     RC_TBL+2,QL
         4 003514   000033 772000                    QRL     27
         4 003515   000000 756000 xsym               STQ     RC_PTR

      965     3309    3           IF RC_PTR>0 THEN

   3309  4 003516   003523 604400 4                  TMOZ    s:3311

      966     3310    3               CALL FIND_DIRECT(CURR_OWNER,%DONT_LOCK);

   3310  4 003517   000031 630400 5                  EPPR0   25
         4 003520   000006 631400 5                  EPPR1   6
         4 003521   000000 701000 xent               TSX1    FIND_DIRECT
         4 003522   000000 011000                    NOP     0
PL6.E3A0      #002=ZIU$PA_SORTIN File=ZIU$COMPACT.:ZIC0TSI                       FRI 09/05/97 13:10 Page:174

      967     3311    3           END;

   3311  4 003523   000000 235000 xsym               LDA     RC_PTR
         4 003524   003166 605400 4                  TPNZ    s:3242

      968     3312    2       RETURN;

   3312  4 003525   000261 221200 0                  LDX1  ! PTR_TEMP+5
         4 003526   000001 702211                    TSX2  ! 1,X1

      969     3313    2   WRIT_ERR: ALTRETURN;

   3313  4 003527   000261 221200 0     WRIT_ERR     LDX1  ! PTR_TEMP+5
         4 003530   000000 702211                    TSX2  ! 0,X1

      970     3314    2   END REVERT_AN_OWNER;
      971     3315        %EJECT;
PL6.E3A0      #002=ZIU$PA_SORTIN File=ZIU$COMPACT.:ZIC0TSI                       FRI 09/05/97 13:10 Page:175
      972     3316        /*
      973     3317              SUBR  FIND_FIRST_PA:  GO THRU PA INDEX STRUCTURE
      974     3318                                    UNTIL LOWEST_LEVEL_PA HIT
      975     3319                                    IF DIRECTIVE IS 'CONVERT' THEN
      976     3320                                      WE WILL CREATE ONE FOR IT
      977     3321        */
      978     3322    1   FIND_FIRST_PA: PROC(FIND_TYPE) ALTRET;

   3322  4 003531   000262 741200 0     FIND_FIRST_* STX1  ! PTR_TEMP+6

      979     3323
      980     3324    2   DCL FIND_TYPE SBIN ALIGNED;
      981     3325
      982     3326    2       CALL GET_PTR(NEXT_DBK,RC_TBL.NXPNT_EIS(RC_PTR));

   3326  4 003532   000000 236000 xsym               LDQ     RC_PTR
         4 003533   000003 402003                    MPY     3,DU
         4 003534   000022 036000 5                  ADLQ    18
         4 003535   000054 235000 5                  LDA     44
         4 003536   000252 757000 0                  STAQ    @POINTER
         4 003537   000003 701000 4                  TSX1    GET_PTR
         4 003540   000000 011000                    NOP     0

      983     3327    2       IF NEXT_DBK=CURR_OWNER THEN /* SET EMPTY, DO ALTRETURN */

   3327  4 003541   000043 236000 0                  LDQ     NEXT_DBK
         4 003542   000040 116000 0                  CMPQ    CURR_OWNER
         4 003543   003546 601000 4                  TNZ     s:3329

      984     3328    2           ALTRETURN;

   3328  4 003544   000262 221200 0                  LDX1  ! PTR_TEMP+6
         4 003545   000000 702211                    TSX2  ! 0,X1

      985     3329    2       CURR_LEVEL(0)='0'B;

   3329  4 003546   000000 100400                    MLR     fill='000'O
PL6.E3A0      #002=ZIU$PA_SORTIN File=ZIU$COMPACT.:ZIC0TSI                       FRI 09/05/97 13:10 Page:176
         4 003547   000000 000001 5                  ADSC9   0                        cn=0,n=1
         4 003550   000046 000020 0                  ADSC9   CURR_LEVEL               cn=0,n=16

      986     3330    2       CURR_LEVEL.DBK(0)=NEXT_DBK;

   3330  4 003551   000046 756000 0                  STQ     CURR_LEVEL

      987     3331    2       CURR_LEVEL.FIRST_PA(0)=NEXT_DBK; /* SAVE DBK OF FIRST_PA_IN_LEVEL */

   3331  4 003552   000047 756000 0                  STQ     CURR_LEVEL+1

      988     3332    2       STK.NEXT(0)=NEXT_DBK; /* SAVE THE NEXT PTR OF OWNER */

   3332  4 003553   000000 756000 xsym               STQ     STK

      989     3333    2       LEVEL#=0;

   3333  4 003554   000005 450000 0                  STZ     LEVEL#

      990     3334    2       CALL FIND_DIRECT(NEXT_DBK,FIND_TYPE);

   3334  4 003555   000263 236000 0                  LDQ     @FIND_TYPE
         4 003556   000054 235000 5                  LDA     44
         4 003557   000266 757000 0                  STAQ    @FIND_TYPE+3
         4 003560   000266 630400 0                  EPPR0   @FIND_TYPE+3
         4 003561   000006 631400 5                  EPPR1   6
         4 003562   000000 701000 xent               TSX1    FIND_DIRECT
         4 003563   000000 011000                    NOP     0

      991     3335    2       CURR_LEVEL.REC$(0)=REC$;

   3335  4 003564   000000 236000 xsym               LDQ     REC$
         4 003565   000051 756000 0                  STQ     CURR_LEVEL+3

      992     3336    3       DO WHILE(PA_REC.NOT_LOWEST_LEVEL);

   3336  4 003566   000000 470400 xsym               LDP0    REC$
PL6.E3A0      #002=ZIU$PA_SORTIN File=ZIU$COMPACT.:ZIC0TSI                       FRI 09/05/97 13:10 Page:177
         4 003567   000000 066500                    CMPB    filb='1'B
         4 003570   000001 000001                    BDSC    1,,PR0                   by=0,bit=0,n=1
         4 003571   000000 000022 5                  BDSC    0                        by=0,bit=0,n=18
         4 003572   003725 600000 4                  TZE     s:3361

      993     3337    3           PA_REC.FIRST_IN_LEVEL = '1'B; /* SET IT IN CASE NOT */

   3337  4 003573   000000 470400 xsym               LDP0    REC$
         4 003574   003100 060400                    CSL     bolr='003'O
         4 003575   000075 000001 5                  BDSC    61                       by=0,bit=0,n=1
         4 003576   000001 020001                    BDSC    1,,PR0                   by=0,bit=2,n=1

      994     3338    3           IF LEVEL#>=31 THEN /* GOING INTO 33 LEVELS */

   3338  4 003577   000005 235000 0                  LDA     LEVEL#
         4 003600   000037 115007                    CMPA    31,DL
         4 003601   003627 604000 4                  TMI     s:3344

      995     3339    4           DO; /* THIS IS JUST IMPOSIBLE TO HAVE THAT MANY LEVELS */

      996     3340    4               CALL BIN_CHAR(2,CURR_OWNER); /* MOST LIKELY, A BUG */

   3340  4 003602   000034 630400 5                  EPPR0   28
         4 003603   000006 631400 5                  EPPR1   6
         4 003604   000000 701000 xent               TSX1    BIN_CHAR
         4 003605   000000 011000                    NOP     0

      997     3341    4               CALL ERROR_MSG(DBU#PALEV33,SC_TBL.NAME(SC_PTR),COMMAND_TEXT);

   3341  4 003606   000040 236000 5                  LDQ     32
         4 003607   000270 756000 0                  STQ     @FIND_TYPE+5
         4 003610   000000 236000 xsym               LDQ     SC_PTR
         4 003611   000014 402000 5                  MPY     12
         4 003612   000013 036000 5                  ADLQ    11
         4 003613   000077 235000 5                  LDA     63
         4 003614   000266 757000 0                  STAQ    @FIND_TYPE+3
         4 003615   000266 630400 0                  EPPR0   @FIND_TYPE+3
PL6.E3A0      #002=ZIU$PA_SORTIN File=ZIU$COMPACT.:ZIC0TSI                       FRI 09/05/97 13:10 Page:178
         4 003616   000036 631400 5                  EPPR1   30
         4 003617   000000 701000 xent               TSX1    ERROR_MSG
         4 003620   000000 011000                    NOP     0

      998     3342    4               UNWIND TO BREAK_CLEANUP;

   3342  4 003621   000000 100600                    MLR   ! fill='000'O
         4 003622   000007 000010 0                  ADSC9   BREAK_CLEANUP            cn=0,n=8
         4 003623   000266 000010 0                  ADSC9   @FIND_TYPE+3             cn=0,n=8
         4 003624   000266 237200 0                  LDAQ  ! @FIND_TYPE+3
         4 003625   000000 700200 xent               TSX0  ! X66_SUNWIND
         4 003626   000000 000200                    ZERO    0,128

      999     3343    4               END;
     1000     3344    3           ENTRY$=PINCRC(REC$,2*4+3*PTR_LEN); /* POINT TO FIRST ENTRY */

   3344  4 003627   000000 236000 xsym               LDQ     PTR_LEN
         4 003630   600000 402007                    MPY     -65536,DL
         4 003631   000002 036003                    ADLQ    2,DU
         4 003632   000000 036000 xsym               ADLQ    REC$
         4 003633   000000 756000 xsym               STQ     ENTRY$

     1001     3345    3           NEXT_DBK=0;

   3345  4 003634   000043 450000 0                  STZ     NEXT_DBK

     1002     3346    3           PINCRC(ADDR(NEXT_DBK),4-PTR_LEN)->CHAR_V=PA_ENTRY.PTRS;

   3346  4 003635   000000 335000 xsym               LCA     PTR_LEN
         4 003636   000000 471400 xsym               LDP1    ENTRY$
         4 003637   000000 720000 xsym               LXL0    PTR_LEN
         4 003640   040045 100540                    MLR     fill='040'O
         4 003641   100000 400010                    ADSC9   0,,PR1                   cn=2,n=*X0
         4 003642   000044 000010 0                  ADSC9   KEY,A                    cn=0,n=*X0

     1003     3347    3           IF PA_ENTRY.C=1 THEN /* PTR GROUP PRESENT */

PL6.E3A0      #002=ZIU$PA_SORTIN File=ZIU$COMPACT.:ZIC0TSI                       FRI 09/05/97 13:10 Page:179
   3347  4 003643   003000 061500                    CSR     bolr='003'O
         4 003644   100000 000001                    BDSC    0,,PR1                   by=0,bit=0,n=1
         4 003645   000266 000044 0                  BDSC    @FIND_TYPE+3             by=0,bit=0,n=36
         4 003646   000266 236000 0                  LDQ     @FIND_TYPE+3
         4 003647   000001 116007                    CMPQ    1,DL
         4 003650   003661 601000 4                  TNZ     s:3352

     1004     3348    4           DO;

     1005     3349    4               GROUP$=PINCRC(REC$,NEXT_DBK); /* POINT TO PA_GROUP NOW */

   3349  4 003651   000043 236000 0                  LDQ     NEXT_DBK
         4 003652   000020 736000                    QLS     16
         4 003653   000000 036000 xsym               ADLQ    REC$
         4 003654   000000 756000 xsym               STQ     GROUP$

     1006     3350    4               PINCRC(ADDR(NEXT_DBK),4-PTR_LEN)->CHAR_V=PA_GROUP.PTRS;

   3350  4 003655   000000 473400 xsym               LDP3    GROUP$
         4 003656   040045 100540                    MLR     fill='040'O
         4 003657   300001 000010                    ADSC9   1,,PR3                   cn=0,n=*X0
         4 003660   000044 000010 0                  ADSC9   KEY,A                    cn=0,n=*X0

     1007     3351    4               END;

     1008     3352    3           NEXT_DBK = NEXT_DBK + BASE_DBK; /* ADJUST TO LOCAL IF LOCAL SC */

   3352  4 003661   000043 236000 0                  LDQ     NEXT_DBK
         4 003662   000000 036000 xsym               ADLQ    BASE_DBK
         4 003663   000043 756000 0                  STQ     NEXT_DBK

     1009     3353    3           LEVEL# = LEVEL# + 1;

   3353  4 003664   000005 054000 0                  AOS     LEVEL#

     1010     3354    3           CURR_LEVEL(LEVEL#)='0'B;

PL6.E3A0      #002=ZIU$PA_SORTIN File=ZIU$COMPACT.:ZIC0TSI                       FRI 09/05/97 13:10 Page:180
   3354  4 003665   000005 235000 0                  LDA     LEVEL#
         4 003666   000004 735000                    ALS     4
         4 003667   000005 100400                    MLR     fill='000'O
         4 003670   000000 000001 5                  ADSC9   0                        cn=0,n=1
         4 003671   000046 000020 0                  ADSC9   CURR_LEVEL,A             cn=0,n=16

     1011     3355    3           CURR_LEVEL.DBK(LEVEL#)=NEXT_DBK;

   3355  4 003672   000005 235000 0                  LDA     LEVEL#
         4 003673   000002 735000                    ALS     2
         4 003674   000043 236000 0                  LDQ     NEXT_DBK
         4 003675   000046 756005 0                  STQ     CURR_LEVEL,AL

     1012     3356    3           CURR_LEVEL.FIRST_PA(LEVEL#)=NEXT_DBK; /* SAVE DBK OF FIRST ONE */

   3356  4 003676   000005 235000 0                  LDA     LEVEL#
         4 003677   000002 735000                    ALS     2
         4 003700   000043 236000 0                  LDQ     NEXT_DBK
         4 003701   000047 756005 0                  STQ     CURR_LEVEL+1,AL

     1013     3357    3           CALL FIND_DIRECT(NEXT_DBK,FIND_TYPE);

   3357  4 003702   000263 236000 0                  LDQ     @FIND_TYPE
         4 003703   000054 235000 5                  LDA     44
         4 003704   000266 757000 0                  STAQ    @FIND_TYPE+3
         4 003705   000266 630400 0                  EPPR0   @FIND_TYPE+3
         4 003706   000006 631400 5                  EPPR1   6
         4 003707   000000 701000 xent               TSX1    FIND_DIRECT
         4 003710   000000 011000                    NOP     0

     1014     3358    3           CURR_LEVEL.REC$(LEVEL#)=REC$;

   3358  4 003711   000005 235000 0                  LDA     LEVEL#
         4 003712   000002 735000                    ALS     2
         4 003713   000000 236000 xsym               LDQ     REC$
         4 003714   000051 756005 0                  STQ     CURR_LEVEL+3,AL

PL6.E3A0      #002=ZIU$PA_SORTIN File=ZIU$COMPACT.:ZIC0TSI                       FRI 09/05/97 13:10 Page:181
     1015     3359    3           PA_REC.FIRST_IN_LEVEL = '1'B; /* IN CASE IT IS NOT SET */

   3359  4 003715   000000 470400 xsym               LDP0    REC$
         4 003716   003100 060400                    CSL     bolr='003'O
         4 003717   000075 000001 5                  BDSC    61                       by=0,bit=0,n=1
         4 003720   000001 020001                    BDSC    1,,PR0                   by=0,bit=2,n=1

     1016     3360    3           END;

   3360  4 003721   000000 066500                    CMPB    filb='0'B
         4 003722   000001 000001                    BDSC    1,,PR0                   by=0,bit=0,n=1
         4 003723   000000 000022 5                  BDSC    0                        by=0,bit=0,n=18
         4 003724   003573 601000 4                  TNZ     s:3337

     1017     3361    2       NO_OF_LEVELS = LEVEL#;

   3361  4 003725   000005 235000 0                  LDA     LEVEL#
         4 003726   000004 755000 0                  STA     NO_OF_LEVELS

     1018     3362    2       LEVEL# = LEVEL# + 1;

   3362  4 003727   000005 054000 0                  AOS     LEVEL#

     1019     3363
     1020     3364    2   END FIND_FIRST_PA;

   3364  4 003730   000262 221200 0                  LDX1  ! PTR_TEMP+6
         4 003731   000001 702211                    TSX2  ! 1,X1

     1021     3365        %EJECT;
PL6.E3A0      #002=ZIU$PA_SORTIN File=ZIU$COMPACT.:ZIC0TSI                       FRI 09/05/97 13:10 Page:182
     1022     3366        /*
     1023     3367              2ND SORT OUTPUT PROCESSING  ZIU$SC_RESORT
     1024     3368              WHEN DIRECTIVE IS TO RESORT A SORT SET
     1025     3369        */
     1026     3370    1   ZIU$SC_RESORT: ENTRY(SORT_REC,SORTREC_SIZE) ALTRET;

   3370  4 003732   000000 700200 xent  ZIU$SC_RESO* TSX0  ! X66_STATIC_2
         4 003733   000000 000002 0                  ZERO    0,2

     1027     3371
     1028     3372    1       IF SORTREC_SIZE > 0 THEN

   3372  4 003734   000002 470400 0                  LDP0    @SORTREC_SIZE
         4 003735   000000 235100                    LDA     0,,PR0
         4 003736   004107 600000 4                  TZE     s:3413

     1029     3373    2       DO;

     1030     3374    2           CURR_DBK = SORT_REC.MEMBER_DBK;

   3374  4 003737   000001 471400 0                  LDP1    @SORT_REC
         4 003740   000000 100500                    MLR     fill='000'O
         4 003741   100002 000004                    ADSC9   2,,PR1                   cn=0,n=4
         4 003742   000041 000004 0                  ADSC9   CURR_DBK                 cn=0,n=4

     1031     3375    2           IF CURR_OWNER = 0 THEN /* FIRST TIME CALLED */

   3375  4 003743   000040 235000 0                  LDA     CURR_OWNER
         4 003744   003777 601000 4                  TNZ     s:3388

     1032     3376    3           DO;

     1033     3377    3               CURR_OWNER = SORT_REC.O_PTR;

   3377  4 003745   000000 100500                    MLR     fill='000'O
         4 003746   100003 600004                    ADSC9   3,,PR1                   cn=3,n=4
         4 003747   000040 000004 0                  ADSC9   CURR_OWNER               cn=0,n=4
PL6.E3A0      #002=ZIU$PA_SORTIN File=ZIU$COMPACT.:ZIC0TSI                       FRI 09/05/97 13:10 Page:183

     1034     3378    3               SC_PTR = SORT_REC.SC_PTR;

   3378  4 003750   000000 101500                    MRL     fill='000'O
         4 003751   100003 400001                    ADSC9   3,,PR1                   cn=2,n=1
         4 003752   000000 000004 xsym               ADSC9   SC_PTR                   cn=0,n=4

     1035     3379    3               STK.CURR(0) = CURR_OWNER;

   3379  4 003753   000040 235000 0                  LDA     CURR_OWNER
         4 003754   000002 755000 xsym               STA     STK+2

     1036     3380    3               IF SORT_REC.P_PTR ~= CURR_OWNER THEN

   3380  4 003755   000000 100500                    MLR     fill='000'O
         4 003756   100001 000004                    ADSC9   1,,PR1                   cn=0,n=4
         4 003757   000266 000004 0                  ADSC9   @FIND_TYPE+3             cn=0,n=4
         4 003760   000266 236000 0                  LDQ     @FIND_TYPE+3
         4 003761   003764 604000 4                  TMI     s:3381
         4 003762   000040 116000 0                  CMPQ    CURR_OWNER
         4 003763   003770 600000 4                  TZE     s:3384

     1037     3381    3                   NEXT_DBK=SORT_REC.MEMBER_DBK;

   3381  4 003764   000000 100500                    MLR     fill='000'O
         4 003765   100002 000004                    ADSC9   2,,PR1                   cn=0,n=4
         4 003766   000043 000004 0                  ADSC9   NEXT_DBK                 cn=0,n=4
         4 003767   004100 710000 4                  TRA     s:3409

     1038     3382         /* FLAG OWNER NEEDS TO BE UPDATED */
     1039     3383    3               ELSE
     1040     3384    3                   NEXT_DBK=-1*SORT_REC.MEMBER_DBK;/* JUST REMEMBER IT */

   3384  4 003770   000000 100500                    MLR     fill='000'O
         4 003771   100002 000004                    ADSC9   2,,PR1                   cn=0,n=4
         4 003772   000266 000004 0                  ADSC9   @FIND_TYPE+3             cn=0,n=4
         4 003773   000000 236003                    LDQ     0,DU
PL6.E3A0      #002=ZIU$PA_SORTIN File=ZIU$COMPACT.:ZIC0TSI                       FRI 09/05/97 13:10 Page:184
         4 003774   000266 136000 0                  SBLQ    @FIND_TYPE+3
         4 003775   000043 756000 0                  STQ     NEXT_DBK

     1041     3385    3               END;

   3385  4 003776   004100 710000 4                  TRA     s:3409

     1042     3386    2           ELSE
     1043     3387    3           DO; /* NOT THE FIRST TIME ENTERED */

     1044     3388    3               IF BREAK_FLAG>0 THEN

   3388  4 003777   000000 236000 xsym               LDQ     BREAK_FLAG
         4 004000   004007 604400 4                  TMOZ    s:3390

     1045     3389    3                   UNWIND TO BREAK_CLEANUP; /* NO BETTER PLACE TO CHECK */

   3389  4 004001   000000 100600                    MLR   ! fill='000'O
         4 004002   000007 000010 0                  ADSC9   BREAK_CLEANUP            cn=0,n=8
         4 004003   000266 000010 0                  ADSC9   @FIND_TYPE+3             cn=0,n=8
         4 004004   000266 237200 0                  LDAQ  ! @FIND_TYPE+3
         4 004005   000000 700200 xent               TSX0  ! X66_SUNWIND
         4 004006   000000 000200                    ZERO    0,128

     1046     3390    3               IF CURR_OWNER=SORT_REC.O_PTR AND SC_PTR=SORT_REC.SC_PTR THEN

   3390  4 004007   000000 100500                    MLR     fill='000'O
         4 004010   100003 600004                    ADSC9   3,,PR1                   cn=3,n=4
         4 004011   000266 000004 0                  ADSC9   @FIND_TYPE+3             cn=0,n=4
         4 004012   000266 236000 0                  LDQ     @FIND_TYPE+3
         4 004013   004044 604000 4                  TMI     s:3399
         4 004014   000040 116000 0                  CMPQ    CURR_OWNER
         4 004015   004044 601000 4                  TNZ     s:3399
         4 004016   000000 101500                    MRL     fill='000'O
         4 004017   100003 400001                    ADSC9   3,,PR1                   cn=2,n=1
         4 004020   000267 000004 0                  ADSC9   @FIND_TYPE+4             cn=0,n=4
         4 004021   000267 236000 0                  LDQ     @FIND_TYPE+4
PL6.E3A0      #002=ZIU$PA_SORTIN File=ZIU$COMPACT.:ZIC0TSI                       FRI 09/05/97 13:10 Page:185
         4 004022   000000 116000 xsym               CMPQ    SC_PTR
         4 004023   004044 601000 4                  TNZ     s:3399

     1047     3391    4               DO; /* STILL PROCESSING THE SAME CHAIN SAME CIRCLE */

     1048     3392    4                   IF STK.PRIOR(1)~=STK.CURR(0) OR STK.NEXT(1)~=SORT_REC.MEMBER_DBK

   3392  4 004024   000005 236000 xsym               LDQ     STK+5
         4 004025   000002 116000 xsym               CMPQ    STK+2
         4 004026   004036 601000 4                  TNZ     s:3394
         4 004027   000000 100500                    MLR     fill='000'O
         4 004030   100002 000004                    ADSC9   2,,PR1                   cn=0,n=4
         4 004031   000266 000004 0                  ADSC9   @FIND_TYPE+3             cn=0,n=4
         4 004032   000266 236000 0                  LDQ     @FIND_TYPE+3
         4 004033   004036 604000 4                  TMI     s:3394
         4 004034   000004 116000 xsym               CMPQ    STK+4
         4 004035   004040 600000 4                  TZE     s:3395

     1049     3393    4                   THEN
     1050     3394    4                       CALL MEMBER_TO_BE_UPDATED ALTRET(WRIT_ERR);

   3394  4 004036   004245 701000 4                  TSX1    MEMBER_TO_BE_UPDATED
         4 004037   004144 702000 4                  TSX2    WRIT_ERR

     1051     3395    4                   STK(0) = STK(1); /* ROLL THE STK INFO UP */

   3395  4 004040   000000 100400                    MLR     fill='000'O
         4 004041   000004 000016 xsym               ADSC9   STK+4                    cn=0,n=14
         4 004042   000000 000016 xsym               ADSC9   STK                      cn=0,n=14

     1052     3396    4                   END;

   3396  4 004043   004100 710000 4                  TRA     s:3409

     1053     3397    3               ELSE
     1054     3398    4               DO;

PL6.E3A0      #002=ZIU$PA_SORTIN File=ZIU$COMPACT.:ZIC0TSI                       FRI 09/05/97 13:10 Page:186
     1055     3399    4                   CALL SC_CLEANUP; /* CLEANUP THE LEFTOVER IN STK */

   3399  4 004044   004116 701000 4                  TSX1    SC_CLEANUP
         4 004045   000000 011000                    NOP     0

     1056     3400    4                   CURR_OWNER=SORT_REC.O_PTR;

   3400  4 004046   000001 470400 0                  LDP0    @SORT_REC
         4 004047   000000 100500                    MLR     fill='000'O
         4 004050   000003 600004                    ADSC9   3,,PR0                   cn=3,n=4
         4 004051   000040 000004 0                  ADSC9   CURR_OWNER               cn=0,n=4

     1057     3401    4                   SC_PTR=SORT_REC.SC_PTR;

   3401  4 004052   000000 101500                    MRL     fill='000'O
         4 004053   000003 400001                    ADSC9   3,,PR0                   cn=2,n=1
         4 004054   000000 000004 xsym               ADSC9   SC_PTR                   cn=0,n=4

     1058     3402    4                   STK.CURR(0)=CURR_OWNER;

   3402  4 004055   000040 235000 0                  LDA     CURR_OWNER
         4 004056   000002 755000 xsym               STA     STK+2

     1059     3403    4                   IF SORT_REC.P_PTR~=CURR_OWNER THEN

   3403  4 004057   000000 100500                    MLR     fill='000'O
         4 004060   000001 000004                    ADSC9   1,,PR0                   cn=0,n=4
         4 004061   000266 000004 0                  ADSC9   @FIND_TYPE+3             cn=0,n=4
         4 004062   000266 236000 0                  LDQ     @FIND_TYPE+3
         4 004063   004066 604000 4                  TMI     s:3404
         4 004064   000040 116000 0                  CMPQ    CURR_OWNER
         4 004065   004072 600000 4                  TZE     s:3406

     1060     3404    4                       NEXT_DBK=SORT_REC.MEMBER_DBK; /* OWNER NEEDED UPDATED */

   3404  4 004066   000000 100500                    MLR     fill='000'O
         4 004067   000002 000004                    ADSC9   2,,PR0                   cn=0,n=4
PL6.E3A0      #002=ZIU$PA_SORTIN File=ZIU$COMPACT.:ZIC0TSI                       FRI 09/05/97 13:10 Page:187
         4 004070   000043 000004 0                  ADSC9   NEXT_DBK                 cn=0,n=4
         4 004071   004100 710000 4                  TRA     s:3409

     1061     3405    4                   ELSE
     1062     3406    4                       NEXT_DBK=-1*SORT_REC.MEMBER_DBK;/* JUST REMEMBER IT */

   3406  4 004072   000000 100500                    MLR     fill='000'O
         4 004073   000002 000004                    ADSC9   2,,PR0                   cn=0,n=4
         4 004074   000266 000004 0                  ADSC9   @FIND_TYPE+3             cn=0,n=4
         4 004075   000000 236003                    LDQ     0,DU
         4 004076   000266 136000 0                  SBLQ    @FIND_TYPE+3
         4 004077   000043 756000 0                  STQ     NEXT_DBK

     1063     3407    4                   END;

     1064     3408    3               END;

     1065     3409    2           STK(1)=SORT_REC; /* PUSH REC TO STACK */

   3409  4 004100   000000 720000 xsym               LXL0    KEY_LEN
         4 004101   000023 621010                    EAX1    19,X0
         4 004102   000001 470400 0                  LDP0    @SORT_REC
         4 004103   000000 100540                    MLR     fill='000'O
         4 004104   000000 000011                    ADSC9   0,,PR0                   cn=0,n=*X1
         4 004105   000004 000016 xsym               ADSC9   STK+4                    cn=0,n=14

     1066     3410    2           END;

   3410  4 004106   004114 710000 4                  TRA     s:3418

     1067     3411    1       ELSE
     1068     3412    2       DO; /* LAST RECORD FROM SORT */

     1069     3413    2           IF CURR_OWNER>0 THEN

   3413  4 004107   000040 236000 0                  LDQ     CURR_OWNER
         4 004110   004113 604400 4                  TMOZ    s:3415
PL6.E3A0      #002=ZIU$PA_SORTIN File=ZIU$COMPACT.:ZIC0TSI                       FRI 09/05/97 13:10 Page:188

     1070     3414    2               CALL SC_CLEANUP;

   3414  4 004111   004116 701000 4                  TSX1    SC_CLEANUP
         4 004112   000000 011000                    NOP     0

     1071     3415    2           GOTO COMMON_RETURN; /* CLOSE THE PATCH FILE */

   3415  4 004113   002266 710000 4                  TRA     COMMON_RETURN

     1072     3416    2           END;
     1073     3417
     1074     3418    1       RETURN;

   3418  4 004114   000000 221200 0                  LDX1  ! 0
         4 004115   000001 702211                    TSX2  ! 1,X1

     1075     3419        /*    SUBR SC_CLEANUP - THE SORT OUTPUT RECORD TO ZIU$SC_RESORT
     1076     3420                   IN THE ORDER OF  'OWNER_DBKEY' THEN 'SC_PTR'  THEN  'KEY'
     1077     3421                   WE HAVE PUSHED THE LAST TWO RECORDS IN THE STK,  AND NOW
     1078     3422                   THIS SUBR IS ENTERED WHEN EITHER 'END_OF_OUT_REC' OR
     1079     3423                   'CHANGE_OF_OWNER' OR 'CHANGE_OF_SC' OCCURS AND HENCE,
     1080     3424                   WE NEED TO CLEAN UP WHATEVER LEFT ON THE STK   */
     1081     3425    1   SC_CLEANUP: PROC;

   3425  4 004116   000264 741200 0     SC_CLEANUP   STX1  ! @FIND_TYPE+1

     1082     3426
     1083     3427    2       CURR_DBK = CURR_OWNER; /* THE EXPECTED NEXT PTR OF THE LAST MEM IN STK */

   3427  4 004117   000040 235000 0                  LDA     CURR_OWNER
         4 004120   000041 755000 0                  STA     CURR_DBK

     1084     3428    2       PRIOR_DBK = STK.NEXT(1); /* AND SAVE THE OLD NEXT PTR OF IT */

   3428  4 004121   000004 236000 xsym               LDQ     STK+4
         4 004122   000042 756000 0                  STQ     PRIOR_DBK
PL6.E3A0      #002=ZIU$PA_SORTIN File=ZIU$COMPACT.:ZIC0TSI                       FRI 09/05/97 13:10 Page:189

     1085     3429    2       IF STK.PRIOR(1)~=STK.CURR(0) OR STK.NEXT(1)~=CURR_OWNER THEN

   3429  4 004123   000005 236000 xsym               LDQ     STK+5
         4 004124   000002 116000 xsym               CMPQ    STK+2
         4 004125   004131 601000 4                  TNZ     s:3430
         4 004126   000004 236000 xsym               LDQ     STK+4
         4 004127   000040 116000 0                  CMPQ    CURR_OWNER
         4 004130   004133 600000 4                  TZE     s:3431

     1086     3430    2           CALL MEMBER_TO_BE_UPDATED; /* EITHER N/P IS BAD */

   3430  4 004131   004245 701000 4                  TSX1    MEMBER_TO_BE_UPDATED
         4 004132   000000 011000                    NOP     0

     1087     3431    2       IF PRIOR_DBK ~= CURR_OWNER OR NEXT_DBK > 0 THEN

   3431  4 004133   000042 236000 0                  LDQ     PRIOR_DBK
         4 004134   000040 116000 0                  CMPQ    CURR_OWNER
         4 004135   004140 601000 4                  TNZ     s:3432
         4 004136   000043 235000 0                  LDA     NEXT_DBK
         4 004137   004142 604400 4                  TMOZ    s:3433

     1088     3432    2           CALL OWNER_TO_BE_UPDATED; /* PTR OF THE OWNER IS BAD */

   3432  4 004140   004221 701000 4                  TSX1    OWNER_TO_BE_UPDATED
         4 004141   000000 011000                    NOP     0

     1089     3433    2   END SC_CLEANUP;

   3433  4 004142   000264 221200 0                  LDX1  ! @FIND_TYPE+1
         4 004143   000001 702211                    TSX2  ! 1,X1

     1090     3434        %EJECT;
PL6.E3A0      #002=ZIU$PA_SORTIN File=ZIU$COMPACT.:ZIC0TSI                       FRI 09/05/97 13:10 Page:190
     1091     3435    1   WRIT_ERR:
     1092     3436    1       MONITOR_ERR=B$TCB$->B$TCB.ALT$->B$EXCFR.ERR;

   3436  4 004144   000000 470400 xsym  WRIT_ERR     LDP0    B$TCB$
         4 004145   000000 471500                    LDP1    0,,PR0
         4 004146   100102 236100                    LDQ     66,,PR1
         4 004147   000000 756000 xsym               STQ     MSGCODE

     1093     3437    1       DCBSF = DBKEY_SORT_DCB;

   3437  4 004150   000000 220000 xsym               LDX0    DBKEY_SORT_DCB
         4 004151   000000 740000 xsym               STX0    DCBSF

     1094     3438    1       INCL_ERR=%YES#;

   3438  4 004152   400000 236003                    LDQ     -131072,DU
         4 004153   000000 756000 xsym               STQ     INCL_ERR

     1095     3439    1       CALL SYS_FUNC_ERRMSG;

   3439  4 004154   000000 631400 5                  EPPR1   0
         4 004155   000000 701000 xent               TSX1    SYS_FUNC_ERRMSG
         4 004156   000000 011000                    NOP     0

     1096     3440    1       CALL BIN_CHAR(1,KEY.TXT);

   3440  4 004157   000100 630400 5                  EPPR0   64
         4 004160   000006 631400 5                  EPPR1   6
         4 004161   000000 701000 xent               TSX1    BIN_CHAR
         4 004162   000000 011000                    NOP     0

     1097     3441    1       SC_PTR=RC_TBL.SC_PTR(KEY.RC_PTR);

   3441  4 004163   000045 236000 0                  LDQ     KEY+1
         4 004164   000022 772000                    QRL     18
         4 004165   000777 376007                    ANQ     511,DL
         4 004166   000003 402007                    MPY     3,DL
PL6.E3A0      #002=ZIU$PA_SORTIN File=ZIU$COMPACT.:ZIC0TSI                       FRI 09/05/97 13:10 Page:191
         4 004167   000002 236006 xsym               LDQ     RC_TBL+2,QL
         4 004170   000022 772000                    QRL     18
         4 004171   000777 376007                    ANQ     511,DL
         4 004172   000000 756000 xsym               STQ     SC_PTR

     1098     3442    1       CALL ERROR_MSG(DBU#PAPACH1,SC_TBL.NAME(SC_PTR),,COMMAND_TEXT);

   3442  4 004173   000040 236000 5                  LDQ     32
         4 004174   000030 235000 5                  LDA     24
         4 004175   000270 757000 0                  STAQ    @FIND_TYPE+5
         4 004176   000000 236000 xsym               LDQ     SC_PTR
         4 004177   000014 402000 5                  MPY     12
         4 004200   000013 036000 5                  ADLQ    11
         4 004201   000104 235000 5                  LDA     68
         4 004202   000266 757000 0                  STAQ    @FIND_TYPE+3
         4 004203   000266 630400 0                  EPPR0   @FIND_TYPE+3
         4 004204   000102 631400 5                  EPPR1   66
         4 004205   000000 701000 xent               TSX1    ERROR_MSG
         4 004206   000000 011000                    NOP     0

   3441  4 004207                       ALT_OPEN     null
     1099     3443         /* CLOSE THE DCB AND TYPE 1 MORE ERR_MSG */
     1100     3444    1   ALT_OPEN: ;
     1101     3445    1   ALT_CLOS: CALL SYS_FUNC_RELDCB; /* RELEASE TEMP FILE DCB */

   3445  4 004207   000000 631400 5     ALT_CLOS     EPPR1   0
         4 004210   000000 701000 xent               TSX1    SYS_FUNC_RELDCB
         4 004211   000000 011000                    NOP     0

     1102     3446    1       DBKEY_SORT_DCB = 0;

   3446  4 004212   000000 220003                    LDX0    0,DU
         4 004213   000000 740000 xsym               STX0    DBKEY_SORT_DCB

     1103     3447    1       CALL ERROR_MSG(DBU#PAERROR2,COMMAND_TEXT); /* INFORM USER, ABORTING */

   3447  4 004214   000106 630400 5                  EPPR0   70
PL6.E3A0      #002=ZIU$PA_SORTIN File=ZIU$COMPACT.:ZIC0TSI                       FRI 09/05/97 13:10 Page:192
         4 004215   000006 631400 5                  EPPR1   6
         4 004216   000000 701000 xent               TSX1    ERROR_MSG
         4 004217   000000 011000                    NOP     0

     1104     3448    1       GOTO UN_WIND;

   3448  4 004220   001703 710000 4                  TRA     UN_WIND

     1105     3449        /*E* ERROR: ZIU-DBU#PAERROR2-C
     1106     3450        MESSAGE: Error: OPEN/CLOSE/READ/WRITE the temporary patch file
     1107     3451                        used by this directive.  %U1 aborted. */
     1108     3452        %EJECT;
PL6.E3A0      #002=ZIU$PA_SORTIN File=ZIU$COMPACT.:ZIC0TSI                       FRI 09/05/97 13:10 Page:193
     1109     3453        /*
     1110     3454              SUBR OWNER_TO_BE_UPDATED/MEMBER_TO_BE_UPDATED
     1111     3455                   WRITE A RECORD TO A TEMP FILE CONTAINING
     1112     3456                   DBK OF THE RECORD WHICH HAS POINTERS TO BE UPDATED
     1113     3457                       AND PTR TO BE THE NEXT AND THE PRIOR AS WELL
     1114     3458                       AS THE AC_PTR,SC_PTR AND RC_PTR TO HELP LOCATING
     1115     3459                       THIS RECORD IN THE DATABASE
     1116     3460                   THIS SUBR IS ONLY CALLED BY 'RESORT' PROCESSOR
     1117     3461        */
     1118     3462    1   OWNER_TO_BE_UPDATED: PROC ALTRET;

   3462  4 004221   000265 741200 0     OWNER_TO_BE* STX1  ! @FIND_TYPE+2

     1119     3463
     1120     3464    2       IF NEXT_DBK>0 THEN

   3464  4 004222   000043 235000 0                  LDA     NEXT_DBK
         4 004223   004226 604400 4                  TMOZ    s:3467

     1121     3465    2           CURR_DBK = NEXT_DBK;

   3465  4 004224   000041 755000 0                  STA     CURR_DBK
         4 004225   004230 710000 4                  TRA     s:3468

     1122     3466    2       ELSE
     1123     3467    2           CURR_DBK = -1*NEXT_DBK;

   3467  4 004226   000000 531000                    NEG     0
         4 004227   000041 755000 0                  STA     CURR_DBK

     1124     3468    2       STK.RC_PTR(1)=SC_TBL.RC_PTR(SC_PTR); /* RC FOR THE OWNER */

   3468  4 004230   000000 236000 xsym               LDQ     SC_PTR
         4 004231   000405 402007                    MPY     261,DL
         4 004232   000000 116003                    CMPQ    0,DU
         4 004233   004235 605000 4                  TPL     s:3468+5
         4 004234   000044 036003                    ADLQ    36,DU
PL6.E3A0      #002=ZIU$PA_SORTIN File=ZIU$COMPACT.:ZIC0TSI                       FRI 09/05/97 13:10 Page:194
         4 004235   003000 060406                    CSL     bolr='003'O
         4 004236   000005 650011 xsym               BDSC    SC_TBL+5,Q               by=3,bit=5,n=9
         4 004237   000007 000011 xsym               BDSC    STK+7                    by=0,bit=0,n=9

     1125     3469    2       STK.CURR(0)=STK.CURR(1);

   3469  4 004240   000006 235000 xsym               LDA     STK+6
         4 004241   000002 755000 xsym               STA     STK+2

     1126     3470    2       STK.CURR(1)=CURR_OWNER;

   3470  4 004242   000040 236000 0                  LDQ     CURR_OWNER
         4 004243   000006 756000 xsym               STQ     STK+6
         4 004244   004246 710000 4                  TRA     s:3474

     1127     3471
     1128     3472    2   MEMBER_TO_BE_UPDATED: ENTRY ALTRET;

   3472  4 004245   000265 741200 0     MEMBER_TO_B* STX1  ! @FIND_TYPE+2

     1129     3473
     1130     3474    2       SC_TBL.COUNT(SC_PTR) = SC_TBL.COUNT(SC_PTR) + 1;

   3474  4 004246   000000 236000 xsym               LDQ     SC_PTR
         4 004247   000405 402007                    MPY     261,DL
         4 004250   000000 116003                    CMPQ    0,DU
         4 004251   004253 605000 4                  TPL     s:3474+5
         4 004252   000044 036003                    ADLQ    36,DU
         4 004253   003000 060406                    CSL     bolr='003'O
         4 004254   000006 450022 xsym               BDSC    SC_TBL+6,Q               by=2,bit=5,n=18
         4 004255   000267 000044 0                  BDSC    @FIND_TYPE+4             by=0,bit=0,n=36
         4 004256   000267 236000 0                  LDQ     @FIND_TYPE+4
         4 004257   000022 732000                    QRS     18
         4 004260   000001 036007                    ADLQ    1,DL
         4 004261   000266 756000 0                  STQ     @FIND_TYPE+3
         4 004262   000000 236000 xsym               LDQ     SC_PTR
         4 004263   000405 402007                    MPY     261,DL
PL6.E3A0      #002=ZIU$PA_SORTIN File=ZIU$COMPACT.:ZIC0TSI                       FRI 09/05/97 13:10 Page:195
         4 004264   000000 116003                    CMPQ    0,DU
         4 004265   004267 605000 4                  TPL     s:3474+17
         4 004266   000044 036003                    ADLQ    36,DU
         4 004267   003006 061400                    CSR     bolr='003'O
         4 004270   000266 000044 0                  BDSC    @FIND_TYPE+3             by=0,bit=0,n=36
         4 004271   000006 450022 xsym               BDSC    SC_TBL+6,Q               by=2,bit=5,n=18

     1131     3475    2       KEY.TXT = STK.CURR(1);

   3475  4 004272   000000 100400                    MLR     fill='000'O
         4 004273   000006 000004 xsym               ADSC9   STK+6                    cn=0,n=4
         4 004274   000044 200004 0                  ADSC9   KEY                      cn=1,n=4

     1132     3476    2       KEY.RC_PTR = STK.RC_PTR(1);

   3476  4 004275   000007 236000 xsym               LDQ     STK+7
         4 004276   000011 772000                    QRL     9
         4 004277   000045 552020 0                  STBQ    KEY+1,'20'O

     1133     3477    2       STK.NEXT(1) = CURR_DBK;

   3477  4 004300   000041 235000 0                  LDA     CURR_DBK
         4 004301   000004 755000 xsym               STA     STK+4

     1134     3478    2       STK.PRIOR(1) = STK.CURR(0);

   3478  4 004302   000002 236000 xsym               LDQ     STK+2
         4 004303   000005 756000 xsym               STQ     STK+5

     1135     3479
     1136     3480    2       CALL M$WRITE(WRITE_TEMP) ALTRET(ALT);

   3480  4 004304   000012 630400 0                  EPPR0   WRITE_TEMP
         4 004305   440001 713400                    CLIMB   alt,write
         4 004306   401400 401760                    pmme    nvectors=4
         4 004307   004313 702000 4                  TSX2    ALT

PL6.E3A0      #002=ZIU$PA_SORTIN File=ZIU$COMPACT.:ZIC0TSI                       FRI 09/05/97 13:10 Page:196
     1137     3481
     1138     3482    2       REC_CNT = REC_CNT + 1; /* ADD THE TOT NUMBER */

   3482  4 004310   000000 054000 xsym               AOS     REC_CNT

     1139     3483    2       RETURN;

   3483  4 004311   000265 221200 0                  LDX1  ! @FIND_TYPE+2
         4 004312   000001 702211                    TSX2  ! 1,X1

     1140     3484    2   ALT: ALTRETURN;

   3484  4 004313   000265 221200 0     ALT          LDX1  ! @FIND_TYPE+2
         4 004314   000000 702211                    TSX2  ! 0,X1

WRITE_TEMP
 Sect OctLoc
   0     012   000003 777640   000022 006000   000001 777640   000044 006000    .............$..
   0     016   000000 177640   000000 006014   000000 177640   000000 006014    ................
   0     022   000000 400200   000000 000000   000000 000000   000000 000000    ................

KEY
 Sect OctLoc
   0     044   005*** ******   ****** ******                                    ........

CURR_LEVEL
 Sect OctLoc
   0     046   ****** ******   ****** ******   ****** ******   ****** ******    ................

(unnamed)
 Sect OctLoc
   0     255   ****** ******   ****** ******   ****** ******   ****** ******    ................

(unnamed)
 Sect OctLoc
   0     264   ****** ******   ****** ******   ****** ******   ****** ******    ................

PL6.E3A0      #002=ZIU$PA_SORTIN File=ZIU$COMPACT.:ZIC0TSI                       FRI 09/05/97 13:10 Page:197
(unnamed)
 Sect OctLoc
   3     000   103117 116126                                                    CONV

(unnamed)
 Sect OctLoc
   5     000   000000 000000   000777 777777   777777 777777   000007 770000    ................
   5     004   001777 777640   000007 600000   000002 000000   000000 000001    ................
   5     010   000007 006000   000000 006000   000000 021762   000000 006000    ................
   5     014   000007 200000   000012 006000   000005 400000   000004 400000    ................
   5     020   000000 021753   000020 006000   000000 006000   000004 600000    ................
   5     024   000003 600000   000000 021712   000025 006000   040040 040040    ............
   5     030   000000 006014   000040 006000   000000 006000   000000 000002    ..... ..........
   5     034   000033 006000   000040 006000   000003 000000   000000 021761    ..... ..........
   5     040   000000 006000   000037 006000   000000 006000   000001 000000    ................
   5     044   000000 006000   000000 006000   000000 006000   000377 777777    ................
   5     050   400377 777777   377777 777777   000004 006000   000005 006000    ................
   5     054   000043 006000   000001 400000   000006 006000   000007 006000    .#..............
   5     060   000004 006000   000000 021767   000061 006000   000043 006000    .........1...#..
   5     064   000000 006000   000043 006000   000007 006000   000007 006000    .....#..........
   5     070   000043 006000   000041 006000   000040 006000   000007 006000    .#...!... ......
   5     074   000047 006000   400000 000000   000000 021765   000076 006000    .'...........>..
   5     100   000007 006000   000044 206000   000004 000000   000000 022006    .....$..........
   5     104   000103 006000   000000 021732   000105 006000   000000 006000    .C.......E......
     1141     3485    2   END OWNER_TO_BE_UPDATED;
     1142     3486
     1143     3487    1   END ZIU$PA_SORTIN;
     1144     3488        %EOD;

PL6.E3A0      #002=ZIU$PA_SORTIN File=ZIU$COMPACT.:ZIC0TSI                       FRI 09/05/97 13:10 Page:198
--  Include file information  --

   ZI_ERRORS_SUBS.:ZIC0TOU  is referenced.
   CP_6_SUBS.:LIB_E05  is referenced.
   CP_6.:LIB_E05  cannot be made into a system file and is referenced.
   ZI_PRSE_SUBS.:ZIC0TOU  is referenced.
   ZI$DIR.:ZIC0TOU  is referenced.
   ZI_GLOBAL_DBUTIL.:ZIC0TOU  is referenced.
   ZI_DBU_XREF.:ZIC0TOU  cannot be made into a system file and is referenced.
   ZI$PG_STRUCTS.:ZIC0TOU  is referenced.
   B$JIT_C.:E05TOU  was found in the system file and is never referenced.
   CP_6_C.:E05TOU  was found in the system file and is referenced.
      No diagnostics issued in procedure ZIU$PA_SORTIN.

   Procedure ZIU$PA_SORTIN requires 2253 words for executable code.
   Procedure ZIU$PA_SORTIN is declared NOAUTO and requires 186 words of local(STATIC) storage.
PL6.E3A0      #002=ZIU$PA_SORTIN File=ZIU$COMPACT.:ZIC0TSI                       FRI 09/05/97 13:10 Page:199
          *** CROSS REFERENCE LISTING ***
**     DENOTES     IDENTIFIER DEFINITION
<<                 IDENTIFIER'S VALUE SET
>>                 IDENTIFIER'S VALUE USED
<>                 IDENTIFIER SET AND/OR USED
--                 IDENTIFIER REFERENCED
PL6.E3A0      #002=ZIU$PA_SORTIN File=ZIU$COMPACT.:ZIC0TSI                       FRI 09/05/97 13:10 Page:200
          MINI XREF LISTING

AC_PTR
       516**DCL      2645<<ASSIGN   2674>>IF       2676>>ASSIGN   2757>>IF       2776>>ASSIGN   2776>>ASSIGN
      2846>>ASSIGN   2848>>ASSIGN   2858>>ASSIGN   2858>>ASSIGN   2935>>IF       2938<<ASSIGN   2939>>IF
      2946>>ASSIGN   3000<<DOINDEX  3001>>IF       3003>>ASSIGN   3004>>DOWHILE  3005>>ASSIGN   3006>>ASSIGN
      3030>>ASSIGN   3030>>ASSIGN   3041>>ASSIGN   3041>>ASSIGN   3090>>ASSIGN   3244>>ASSIGN
AC_TBL.BASE_DBK
       521**DCL      2776>>ASSIGN   2848>>ASSIGN   2858>>ASSIGN   2932>>DOWHILE  2946>>ASSIGN   3030>>ASSIGN
      3041>>ASSIGN   3090>>ASSIGN   3244>>ASSIGN
AC_TBL.CHECKSUM
       530**DCL      2757>>IF
AC_TBL.DCB#
       531**DCL      2660>>ASSIGN   2676>>ASSIGN   2699>>ASSIGN   2939>>IF       3005>>ASSIGN
AC_TBL.LPP
       526**DCL      2776>>ASSIGN   2858>>ASSIGN   3030>>ASSIGN   3041>>ASSIGN
AC_TBL.PAGE_WRITTEN
       527**DCL      2668<<ASSIGN
AC_TBL.RANGE_HIGH
       523**DCL      2686>>DOWHILE  2696>>ASSIGN   3001>>IF       3004>>DOWHILE  3006>>ASSIGN
AC_TBL.RANGE_LOW
       522**DCL      2696>>ASSIGN   2697>>ASSIGN   3003>>ASSIGN
ALL_DONE
      2787**LABEL    2735--CALLALT  2763--CALLALT
ALL_PTR_EXTRACTED IN PROCEDURE REVERT_AN_OWNER
      3288**LABEL    3282--GOTO
ALT IN PROCEDURE OWNER_TO_BE_UPDATED
      3484**LABEL    3480--CALLALT
ALT IN PROCEDURE READ_NEXT_BLOCK
      2722**LABEL    2669--CALLALT  2677--CALLALT  2719--CALLALT
ALT IN PROCEDURE WRITE_PATCH_RECORD
      3228**LABEL    3219--CALLALT
ALT_CLOS
      3445**LABEL    3072--CALLALT
PL6.E3A0      #002=ZIU$PA_SORTIN File=ZIU$COMPACT.:ZIC0TSI                       FRI 09/05/97 13:10 Page:201
ALT_OPEN
      3441**LABEL    2788--CALLALT  2993--CALLALT
AREA_KEY$
       430**DCL       433--IMP-PTR
ATBLK$
       151**DCL       152--IMP-PTR
ATBLK_PG.AREA_NM
       177**DCL       178--REDEF
ATBLK_PG.STATUS
       186**DCL       194--REDEF
B$EXCFR.ASL
      1962**DCL      1962--REDEF
B$EXCFR.ERR
      1976**DCL      3436>>ASSIGN
B$EXCFR.ERR.ERR#
      1976**DCL      1976--REDEF
B$EXCFR.EVID
      1975**DCL      1975--REDEF    1976--REDEF
B$EXCFR.IR
      1963**DCL      1963--REDEF
B$EXCFR.PREVSZ
      1962**DCL      1962--REDEF
B$EXCFR.SUBC
      1974**DCL      1974--REDEF    1975--REDEF    1975--REDEF
B$TCB.ALT$
      1980**DCL      3436>>ASSIGN
B$TCB$
       840**DCL      3436>>ASSIGN
BASE_DBK
       518**DCL      2623>>ASSIGN   2634>>ASSIGN   2848<<ASSIGN   2850<<ASSIGN   2946<<ASSIGN   2948<<ASSIGN
      3090<<ASSIGN   3092<<ASSIGN   3244<<ASSIGN   3246<<ASSIGN   3260>>ASSIGN   3352>>ASSIGN
BIN_CHAR
      2542**DCL-ENT  2777--CALL     2825--CALL     2873--CALL     2953--CALL     3140--CALL     3211--CALL
      3340--CALL     3440--CALL
BREAK_CLEANUP
        32**DCL      2681>>UNWIND   2722>>UNWIND   2981>>UNWIND   3142>>UNWIND   3213>>UNWIND   3252>>UNWIND
PL6.E3A0      #002=ZIU$PA_SORTIN File=ZIU$COMPACT.:ZIC0TSI                       FRI 09/05/97 13:10 Page:202
      3342>>UNWIND   3389>>UNWIND
BREAK_FLAG
       850**DCL      2680>>IF       3251>>IF       3388>>IF
BUFLNSF
       741**DCL      2661<<ASSIGN   2711<<ASSIGN
BUFSF
       742**DCL      2663<<ASSIGN   2717<<ASSIGN
BUF_PTR
      2557**DCL      2645>>ASSIGN   2646>>ASSIGN   2647>>ASSIGN   2647>>ASSIGN   2648>>ASSIGN   2650>>ASSIGN
      2653>>ASSIGN   2654<<ASSIGN   2654>>ASSIGN   2660>>ASSIGN   2661>>ASSIGN   2662>>ASSIGN   2662>>ASSIGN
      2668>>ASSIGN   2673>>ASSIGN   2695>>ASSIGN   2696>>ASSIGN   2697>>ASSIGN   2699>>ASSIGN   2701>>IF
      2703>>ASSIGN   2704>>ASSIGN   2704>>ASSIGN   2708>>ASSIGN   2708>>ASSIGN   2709>>ASSIGN   2711>>ASSIGN
      2714>>ASSIGN   2731<<ASSIGN
CHAR_V
        30**DCL      2620<<ASSIGN   2620>>ASSIGN   2635<<ASSIGN   2635>>ASSIGN   3145<>CALL     3257<<ASSIGN
      3346<<ASSIGN   3350<<ASSIGN
CHECK_REC_TYPE
      2741**LABEL    2755--GOTO     2877--GOTO
CHKSUM
      2540**DCL-ENT  2759--CALL
COMMAND_TEXT
      2582**DCL      2862>>IF       2954<>CALL     3341<>CALL     3442<>CALL     3447<>CALL
COMMON_RETURN
      3069**LABEL    2921--GOTO     3415--GOTO
COMPACT_AN_OWNER
      3083**PROC     3054--CALL
COUNTSF
       792**DCL       793--REDEF
CURR_DBK
      2567**DCL      3197>>ASSIGN   3217>>ASSIGN   3225>>ASSIGN   3256<<ASSIGN   3257--ASSIGN   3260<<ASSIGN
      3260>>ASSIGN   3265>>ASSIGN   3271<>CALL     3290<>CALL     3291<<ASSIGN   3374<<ASSIGN   3427<<ASSIGN
      3465<<ASSIGN   3467<<ASSIGN   3477>>ASSIGN
CURR_LEVEL
      2584**DCL      3329<<ASSIGN   3354<<ASSIGN
CURR_LEVEL.DBK
      2585**DCL      3330<<ASSIGN   3355<<ASSIGN
PL6.E3A0      #002=ZIU$PA_SORTIN File=ZIU$COMPACT.:ZIC0TSI                       FRI 09/05/97 13:10 Page:203
CURR_LEVEL.FIRST_PA
      2586**DCL      3160>>IF       3280>>IF       3295<>CALL     3300>>DOWHILE  3331<<ASSIGN   3356<<ASSIGN
CURR_LEVEL.REC$
      2590**DCL      3335<<ASSIGN   3358<<ASSIGN
CURR_LN
      2565**DCL      2649<<ASSIGN   2747<<ASSIGN   2747>>ASSIGN   2748>>IF       2750>>ASSIGN   2765<<ASSIGN
      2776>>ASSIGN   2858>>ASSIGN   3016<<DOINDEX  3017>>IF       3019>>ASSIGN   3030>>ASSIGN   3041>>ASSIGN
CURR_OWNER
      2566**DCL      2817<<ASSIGN   2918>>IF       2924>>IF       2926>>IF       2928>>IF       2930<<ASSIGN
      2932>>DOWHILE  2950<>CALL     2953<>CALL     2969>>ASSIGN   3051<<ASSIGN   3085<>CALL     3105>>IF
      3108>>IF       3110>>ASSIGN   3136>>IF       3176<>CALL     3196>>IF       3239<>CALL     3249>>ASSIGN
      3288<>CALL     3291>>ASSIGN   3310<>CALL     3327>>IF       3340<>CALL     3375>>IF       3377<<ASSIGN
      3379>>ASSIGN   3380>>IF       3390>>IF       3400<<ASSIGN   3402>>ASSIGN   3403>>IF       3413>>IF
      3427>>ASSIGN   3429>>IF       3431>>IF       3470>>ASSIGN
DATA$
       207**DCL       208--IMP-PTR  2651<<ASSIGN   2748>>IF       2750>>ASSIGN   2753>>ASSIGN   2760>>ASSIGN
      2767<<ASSIGN   2767>>ASSIGN   3012<<ASSIGN   3016>>DOINDEX  3017>>IF       3019>>ASSIGN   3019>>ASSIGN
DATA_PG.ACT_DATA
       220**DCL       221--REDEF     222--REDEF     223--REDEF
DATA_PG.ACT_DATA_18
       221**DCL      2750>>ASSIGN   3017>>IF
DATA_PG.CHKSUM_WD
       212**DCL      2760<<ASSIGN
DATA_PG.OFFSET
       222**DCL      3019>>ASSIGN
DATA_PG.OFF_LN.SEC
       219**DCL      2748>>IF       3016>>DOINDEX
DBKEY_SORT_DCB
      2568**DCL      3071>>ASSIGN   3437>>ASSIGN   3446<<ASSIGN
DCBSF
       721**DCL      2660<<ASSIGN   2676<<ASSIGN   2699<<ASSIGN   3005<<ASSIGN   3071<<ASSIGN   3437<<ASSIGN
EIS IN PROCEDURE GET_PTR
      2607**DCL      2604--PROC     2627--ENTRY
EIS.OFST IN PROCEDURE GET_PTR
      2609**DCL      2614>>ASSIGN   2629>>ASSIGN
EIS.SIZ IN PROCEDURE GET_PTR
PL6.E3A0      #002=ZIU$PA_SORTIN File=ZIU$COMPACT.:ZIC0TSI                       FRI 09/05/97 13:10 Page:204
      2611**DCL      2615>>ASSIGN   2630>>ASSIGN
ENCRP_SEEDSF
       750**DCL       751--REDEF
ENTRY$
       878**DCL       869--IMP-PTR  3226>>ASSIGN   3253<<ASSIGN   3255>>ASSIGN   3257>>ASSIGN   3258>>IF
      3269>>ASSIGN   3276<<ASSIGN   3276>>ASSIGN   3344<<ASSIGN   3346>>ASSIGN   3347>>IF
ENTRY_LEN
        24**DCL      2598--IMP-SIZ  2964<<ASSIGN   3095<<ASSIGN   3096>>ASSIGN   3120>>ASSIGN   3155>>ASSIGN
      3248<<ASSIGN   3276>>ASSIGN
ERASE_IT
      2773**LABEL    2745--GOTO
ERASE_PAREC
      2548**DCL-ENT  2781--CALL     3298--CALL     3304--CALL
ERRCODESF
       752**DCL       757--REDEF
ERROR_MSG
      2543**DCL-ENT  2778--CALL     2827--CALL     2874--CALL     2954--CALL     3141--CALL     3212--CALL
      3341--CALL     3442--CALL     3447--CALL
FIDSF_RD
       768**DCL       769--REDEF
FIND_A_MEMBER
      2843**LABEL    2744--GOTO
FIND_DIRECT
      2547**DCL-ENT  2950--CALL     3085--CALL     3156--CALL     3166--CALL     3176--CALL     3239--CALL
      3283--CALL     3288--CALL     3295--CALL     3301--CALL     3310--CALL     3334--CALL     3357--CALL
FIND_FIRST_PA
      3322**PROC     3093--CALL     3247--CALL
FIND_TYPE IN PROCEDURE FIND_FIRST_PA
      3324**DCL      3322--PROC     3334<>CALL     3357<>CALL
FIRST_TIME_CALLED
       517**DCL      2671>>IF       2691<<ASSIGN   2725>>IF       2727<<ASSIGN   3116<<ASSIGN   3117>>DOWHILE
      3157>>DOWHILE  3160>>IF       3163<<ASSIGN
FLUSH_PAGES
        40**DCL-ENT  2920--CALL     2937--CALL     3062--CALL
FULLSF
       739**DCL      2666<<ASSIGN   2715<<ASSIGN
PL6.E3A0      #002=ZIU$PA_SORTIN File=ZIU$COMPACT.:ZIC0TSI                       FRI 09/05/97 13:10 Page:205
GET_NEXT_LINE
      2747**LABEL    2737--GOTO     2742--GOTO     2752--GOTO     2770--GOTO     2784--GOTO
GET_NEXT_PAGE
      2757**LABEL    2749--GOTO
GET_PTR
      2604**PROC     2852--CALL     2961--CALL     3025--CALL     3326--CALL
GET_PTR2 IN PROCEDURE GET_PTR
      2617**ENTRY    2854--CALL     2855--CALL     3026--CALL     3104--CALL     3124--CALL     3159--CALL
      3271--CALL     3279--CALL     3297--CALL     3303--CALL
GROUP$
       879**DCL       874--IMP-PTR  3265<<ASSIGN   3266>>ASSIGN   3267>>ASSIGN   3349<<ASSIGN   3350>>ASSIGN
HELPCODE
       786**DCL       791--REDEF
HIGH_INDX
      2561**DCL      2562--REDEF    3100<<ASSIGN   3118>>IF       3151>>IF       3154>>ASSIGN   3157>>DOWHILE
      3266<<ASSIGN   3268>>DOWHILE  3273<<ASSIGN   3273>>ASSIGN
ICHKSUM
       851**DCL       852--REDEF    2760>>ASSIGN
INCL_ERR
       764**DCL      3438<<ASSIGN
INIT_CNTL_VARIABLES
      2813**PROC     2788--CALL     2993--CALL
I_O_BUF
       830**DCL      2651--ASSIGN   2663--ASSIGN   2717--ASSIGN   2994--ASSIGN   3012--ASSIGN
I_O_BUF$
       829**DCL       830--IMP-PTR  2651>>ASSIGN   2663>>ASSIGN   2717>>ASSIGN   2994>>ASSIGN   3012>>ASSIGN
KCNT
       822**DCL      3096>>ASSIGN
KEY
      2571**DCL      2005--DCLINIT
KEY.RC_PTR
      2574**DCL      2867<<ASSIGN   3029<<ASSIGN   3202<<ASSIGN   3204>>DOWHILE  3207<<ASSIGN   3207>>ASSIGN
      3441>>ASSIGN   3476<<ASSIGN
KEY.TXT
      2573**DCL      2866<<ASSIGN   3030<<ASSIGN   3218<<ASSIGN   3440<>CALL     3475<<ASSIGN
KEYSF
PL6.E3A0      #002=ZIU$PA_SORTIN File=ZIU$COMPACT.:ZIC0TSI                       FRI 09/05/97 13:10 Page:206
       723**DCL      2664<<ASSIGN   2712<<ASSIGN
KEYVSF
       724**DCL       729--REDEF
KEYVSF.IDSKEY
       727**DCL      2662<<ASSIGN   2714<<ASSIGN
KEYVSF.LEN
       725**DCL      2667<<ASSIGN   2713<<ASSIGN
KEYVSF.WD_ONE
       726**DCL       727--REDEF
KEY_LEN
       881**DCL        17--IMP-SIZ  2887<<ASSIGN   2890>>ASSIGN   2910>>ASSIGN   2962<<ASSIGN   2964>>ASSIGN
      2975>>ASSIGN   2977>>CALL     3094<<ASSIGN   3095>>ASSIGN   3409>>ASSIGN
KEY_PTR
       506**DCL      2886<<ASSIGN   2893>>ASSIGN   2896<<ASSIGN   2896>>ASSIGN   2903>>ASSIGN   2904>>ASSIGN
      2906<<ASSIGN   2906>>ASSIGN   3020>>IF       3021>>DOINDEX
KEY_PTR2
        29**DCL      2891<<ASSIGN   2894>>ASSIGN   2897<<ASSIGN   2897>>ASSIGN
KEY_TBL.EIS
       508**DCL       509--REDEF    2893>>ASSIGN   2894>>ASSIGN   2903>>ASSIGN   2904>>ASSIGN   3022>>ASSIGN
LAST
      2552**DCL      2673<<ASSIGN   2673>>ASSIGN
LAST.AC_PTR
      2553**DCL      2645>>ASSIGN   2660>>ASSIGN   2668>>ASSIGN   2685>>ASSIGN   2695<<ASSIGN   2699>>ASSIGN
      2733<<ASSIGN
LAST.PAGES_LEFT
      2556**DCL      2683>>IF       2696<<ASSIGN   2701>>IF       2704<<ASSIGN   2704>>ASSIGN   2708>>ASSIGN
      2709<<ASSIGN   2734<<ASSIGN
LAST.PAGES_READ
      2554**DCL      2647>>ASSIGN   2661>>ASSIGN   2662>>ASSIGN   2703<<ASSIGN   2708<<ASSIGN   2711>>ASSIGN
LAST.RB
      2555**DCL      2646>>ASSIGN   2647<<ASSIGN   2648>>ASSIGN   2662>>ASSIGN   2697<<ASSIGN   2714>>ASSIGN
LAST_BUF
      2564**DCL      2653<<ASSIGN   2673>>ASSIGN   2683>>IF       2685>>ASSIGN
LEVEL#
        26**DCL      2966<<ASSIGN   3294<<DOINDEX  3295>>CALL     3299>>IF       3300>>DOWHILE  3333<<ASSIGN
      3338>>IF       3353<<ASSIGN   3353>>ASSIGN   3354>>ASSIGN   3355>>ASSIGN   3356>>ASSIGN   3358>>ASSIGN
PL6.E3A0      #002=ZIU$PA_SORTIN File=ZIU$COMPACT.:ZIC0TSI                       FRI 09/05/97 13:10 Page:207
      3361>>ASSIGN   3362<<ASSIGN   3362>>ASSIGN
LOW_INDX
      2559**DCL      2560--REDEF    3099<<ASSIGN   3106<<ASSIGN   3118>>IF       3120>>ASSIGN   3136>>IF
      3147<<ASSIGN   3147>>ASSIGN   3157>>DOWHILE  3254<<DOINDEX
M$WRITE
      1350**DCL-ENT  2868--CALL     3033--CALL     3219--CALL     3480--CALL
MEMBER_TO_BE_UPDATED IN PROCEDURE OWNER_TO_BE_UPDATED
      3472**ENTRY    3394--CALL     3430--CALL
MONITOR_ERR
       759**DCL      3436<<ASSIGN
MSGCODE
       758**DCL       759--REDEF
MSTR$
       399**DCL       402--IMP-PTR
MSTR_REF.NXTHSH
       405**DCL       406--REDEF
MSTR_REF.PAENT
       411**DCL       412--REDEF
MSTR_REF.PAOFF
       408**DCL       409--REDEF
MUST_WRITE
      2560**DCL      2657>>IF       2659<<ASSIGN   2732<<ASSIGN   2782<<ASSIGN
NBUFS
        28**DCL      2650>>ASSIGN   2663>>ASSIGN   2701>>IF       2703>>ASSIGN   2704>>ASSIGN   2717>>ASSIGN
      2994>>ASSIGN   3007>>IF       3008>>ASSIGN   3096>>ASSIGN
NEXT_DBK
      2570**DCL      3101<>CALL     3112>>ASSIGN   3155<<ASSIGN   3156<>CALL     3159<>CALL     3160>>IF
      3166<>CALL     3167<>CALL     3211<>CALL     3279<>CALL     3280>>IF       3283<>CALL     3297<>CALL
      3300>>DOWHILE  3301<>CALL     3303<>CALL     3326<>CALL     3327>>IF       3330>>ASSIGN   3331>>ASSIGN
      3332>>ASSIGN   3334<>CALL     3345<<ASSIGN   3346--ASSIGN   3349>>ASSIGN   3350--ASSIGN   3352<<ASSIGN
      3352>>ASSIGN   3355>>ASSIGN   3356>>ASSIGN   3357<>CALL     3381<<ASSIGN   3384<<ASSIGN   3404<<ASSIGN
      3406<<ASSIGN   3431>>IF       3464>>IF       3465>>ASSIGN   3467>>ASSIGN
NO_AREAS
       441**DCL      2686>>DOWHILE  2689>>IF       2932>>DOWHILE  3000>>DOINDEX
NO_OF_LEVELS
        25**DCL      2965<<ASSIGN   3160>>IF       3160>>IF       3280>>IF       3280>>IF       3294>>DOINDEX
PL6.E3A0      #002=ZIU$PA_SORTIN File=ZIU$COMPACT.:ZIC0TSI                       FRI 09/05/97 13:10 Page:208
      3361<<ASSIGN
NO_SETS
       462**DCL      2728>>DOINDEX  2818>>DOINDEX
OPEN_AREA
      2544**DCL-ENT  2940--CALL
OSTK$
      2593**DCL      2595--IMP-PTR  2994<<ASSIGN   3041>>ASSIGN   3049>>ASSIGN   3051>>ASSIGN
OUT_INDX
       831**DCL      2650<<ASSIGN   2651>>ASSIGN   2663>>ASSIGN   2717>>ASSIGN   3006<<ASSIGN   3007>>IF
      3008<<ASSIGN   3009<>CALL     3011>>DOINDEX  3048>>ASSIGN   3060>>ASSIGN
OWNER_CNT
      2563**DCL      2564--REDEF    3010<<ASSIGN   3040<<ASSIGN   3040>>ASSIGN   3041>>ASSIGN   3049>>ASSIGN
      3050>>DOINDEX  3061>>IF       3096>>ASSIGN
OWNER_STK
      2595**DCL      3041<<ASSIGN   3051>>ASSIGN
OWNER_TO_BE_UPDATED
      3462**PROC     3432--CALL
PAENT_STK.PA_DBK
      2597**DCL      3122>>ASSIGN   3155>>ASSIGN
PAENT_STK_SIZE
      2599**DCL      3096<<ASSIGN   3147>>ASSIGN   3152>>ASSIGN
PAGE_MODIFIED
      2562**DCL      2656<<ASSIGN   2757>>IF       2769<<ASSIGN   2783<<ASSIGN
PASTK$
      2594**DCL      3049<<ASSIGN   3103>>ASSIGN   3120>>ASSIGN   3155>>ASSIGN
PA_CLEANUP
      2546**DCL-ENT  2919--CALL     2927--CALL     3172--CALL
PA_ENTRY.C
       870**DCL      3258>>IF       3347>>IF
PA_ENTRY.PTRS
       873**DCL      3257>>ASSIGN   3346>>ASSIGN
PA_ENTRY.TYPE
       872**DCL      3121>>ASSIGN   3226>>ASSIGN   3269<<ASSIGN
PA_GROUP.NO_GROUPS
       875**DCL      3266>>ASSIGN
PA_GROUP.PTRS
PL6.E3A0      #002=ZIU$PA_SORTIN File=ZIU$COMPACT.:ZIC0TSI                       FRI 09/05/97 13:10 Page:209
       877**DCL      3350>>ASSIGN
PA_GROUP.TYPE
       876**DCL      3269>>ASSIGN
PA_REC.ENTRIES
       867**DCL      3254>>DOINDEX
PA_REC.FIRST_IN_LEVEL
       863**DCL      3337<<ASSIGN   3359<<ASSIGN
PA_REC.NOT_LOWEST_LEVEL
       861**DCL      3336>>DOWHILE
PA_REC.TYPE
       859**DCL      2951>>IF       3023>>IF       3038>>IF       3086>>ASSIGN   3240>>ASSIGN
POINTER IN PROCEDURE GET_PTR
      2606**DCL      2604--PROC     2617--ENTRY    2619<<ASSIGN   2620--ASSIGN   2622>>IF       2623<<ASSIGN
      2623>>ASSIGN   2627--ENTRY    2632--ENTRY    2634>>ASSIGN
POOL.LOCKS
      2580**DCL      3014<<ASSIGN
POOL.MUST_WRITE
      2579**DCL      3015<<ASSIGN
POOL.PAGE#
      2581**DCL      3013<<ASSIGN
POOL_MAX
      2576**DCL      2815<<ASSIGN   3048<<ASSIGN
PRFR
        43**DCL      2893<<ASSIGN   2903<<ASSIGN   3121<<ASSIGN   3129>>DOWHILE
PRFR2
        44**DCL      2894<<ASSIGN   2904<<ASSIGN
PRIOR_DBK
      2569**DCL      3196>>IF       3215>>ASSIGN   3218>>ASSIGN   3224>>ASSIGN   3225<<ASSIGN   3249<<ASSIGN
      3428<<ASSIGN   3431>>IF
PTR_LEN
       880**DCL        30--IMP-SIZ   873--IMP-SIZ   877--IMP-SIZ  2615<<ASSIGN   2620>>ASSIGN   2620>>ASSIGN
      2620>>ASSIGN   2624>>ASSIGN   2630<<ASSIGN   2635>>ASSIGN   2635>>ASSIGN   2635>>ASSIGN   2636>>ASSIGN
      2963<<ASSIGN   2964>>ASSIGN   3095>>ASSIGN   3145>>CALL     3248>>ASSIGN   3253>>ASSIGN   3257>>ASSIGN
      3257>>ASSIGN   3257>>ASSIGN   3344>>ASSIGN   3346>>ASSIGN   3346>>ASSIGN   3346>>ASSIGN   3350>>ASSIGN
      3350>>ASSIGN   3350>>ASSIGN
PTR_TEMP IN PROCEDURE GET_PTR
PL6.E3A0      #002=ZIU$PA_SORTIN File=ZIU$COMPACT.:ZIC0TSI                       FRI 09/05/97 13:10 Page:210
      2612**DCL      2634<<ASSIGN   2635--ASSIGN
PUSH_PAENTRY
      2550**DCL-ENT  3101--CALL     3167--CALL
RB
       811**DCL      2646<<ASSIGN   2647>>ASSIGN   2762>>IF       2766<<ASSIGN   2766>>ASSIGN   2776>>ASSIGN
      2858>>ASSIGN   3003<<ASSIGN   3004>>DOWHILE  3006>>ASSIGN   3009<>CALL     3013>>ASSIGN   3030>>ASSIGN
      3041>>ASSIGN   3060<<ASSIGN   3060>>ASSIGN
RC_PTR
       489**DCL      2741>>IF       2743>>IF       2754<<ASSIGN   2773>>ASSIGN   2843>>ASSIGN   2844>>ASSIGN
      2852>>CALL     2867>>ASSIGN   2871>>IF       2876<<ASSIGN   2876>>ASSIGN   2886>>ASSIGN   2902>>DOINDEX
      2911<<ASSIGN   2911>>ASSIGN   2949<<ASSIGN   2951>>IF       2961>>CALL     2970>>ASSIGN   3022<<ASSIGN
      3023>>IF       3025>>CALL     3029>>ASSIGN   3086<<ASSIGN   3087>>DOWHILE  3088>>ASSIGN   3111>>ASSIGN
      3174<<ASSIGN   3174>>ASSIGN   3175>>IF       3240<<ASSIGN   3241>>DOWHILE  3242>>ASSIGN   3289>>CALL
      3308<<ASSIGN   3308>>ASSIGN   3309>>IF       3326>>CALL
RC_TBL.KEY_PTR
       504**DCL      2886>>ASSIGN
RC_TBL.MANUAL
       502**DCL      2871>>IF
RC_TBL.NO_OF_KEYS
       503**DCL      2902>>DOINDEX
RC_TBL.NXPNT_EIS
       491**DCL       492--REDEF    2852<>CALL     2961<>CALL     3025<>CALL     3289<>CALL     3326<>CALL
RC_TBL.RC_NEXT
       499**DCL      2876>>ASSIGN   2911>>ASSIGN   3174>>ASSIGN   3308>>ASSIGN
RC_TBL.SC_PTR
       500**DCL      2844>>ASSIGN   3088>>ASSIGN   3242>>ASSIGN   3441>>ASSIGN
RC_TBL.TYPE
       496**DCL      2951>>IF       3023>>IF       3129>>DOWHILE  3204>>DOWHILE
RE
       812**DCL      2648<<ASSIGN   2762>>IF
READ_DB
      2541**DCL-ENT  3009--CALL
READ_NEXT_BLOCK
      2643**PROC     2735--CALL     2736--CALL     2763--CALL
REC$
       810**DCL       833--IMP-PTR   857--IMP-PTR  2614>>ASSIGN   2629>>ASSIGN   2753<<ASSIGN   2754>>ASSIGN
PL6.E3A0      #002=ZIU$PA_SORTIN File=ZIU$COMPACT.:ZIC0TSI                       FRI 09/05/97 13:10 Page:211
      2951>>IF       3019<<ASSIGN   3023>>IF       3038>>IF       3086>>ASSIGN   3158>>ASSIGN   3240>>ASSIGN
      3253>>ASSIGN   3254>>DOINDEX  3265>>ASSIGN   3278>>ASSIGN   3296>>ASSIGN   3302>>ASSIGN   3335>>ASSIGN
      3336>>DOWHILE  3337>>ASSIGN   3344>>ASSIGN   3349>>ASSIGN   3358>>ASSIGN   3359>>ASSIGN
REC2$
        45**DCL      2614<<ASSIGN   2620>>ASSIGN   2624<<ASSIGN   2624>>ASSIGN   2629<<ASSIGN   2635>>ASSIGN
      2636<<ASSIGN   2636>>ASSIGN   2885<<ASSIGN   3103<<ASSIGN   3120<<ASSIGN   3121>>ASSIGN   3122>>ASSIGN
      3123<<ASSIGN   3123>>ASSIGN   3145>>CALL     3158<<ASSIGN   3255<<ASSIGN   3267<<ASSIGN   3269>>ASSIGN
      3270<<ASSIGN   3270>>ASSIGN   3278<<ASSIGN   3296<<ASSIGN   3302<<ASSIGN
REC_CNT
      2575**DCL      2869<<ASSIGN   2869>>ASSIGN   3034<<ASSIGN   3034>>ASSIGN   3069>>IF       3220<<ASSIGN
      3220>>ASSIGN   3482<<ASSIGN   3482>>ASSIGN
REC_DATA_LN
       838**DCL       837--IMP-SIZ
REC_FRMT.TYPE
       835**DCL      2754>>ASSIGN
REC_XREF$
       454**DCL       455--IMP-PTR
REVERT_AN_OWNER
      3236**PROC     3057--CALL
SC_CLEANUP
      3425**PROC     3399--CALL     3414--CALL
SC_PTR
       472**DCL      2773<<ASSIGN   2778>>CALL     2818<<DOINDEX  2820>>ASSIGN   2821>>ASSIGN   2824>>ASSIGN
      2827>>CALL     2844<<ASSIGN   2845>>ASSIGN   2847>>IF       2874>>CALL     2887>>ASSIGN   2888>>IF
      2891>>ASSIGN   2892>>DOINDEX  2924>>IF       2944<<ASSIGN   2945>>IF       2949>>ASSIGN   2954>>CALL
      2962>>ASSIGN   2963>>ASSIGN   3088<<ASSIGN   3089>>IF       3094>>ASSIGN   3127>>ASSIGN   3129>>DOWHILE
      3134>>IF       3137>>ASSIGN   3141>>CALL     3202>>ASSIGN   3204>>DOWHILE  3209>>IF       3212>>CALL
      3221>>ASSIGN   3221>>ASSIGN   3242<<ASSIGN   3243>>IF       3248>>ASSIGN   3341>>CALL     3378<<ASSIGN
      3390>>IF       3401<<ASSIGN   3441<<ASSIGN   3442>>CALL     3468>>ASSIGN   3474>>ASSIGN   3474>>ASSIGN
SC_TBL.COUNT
       487**DCL      2729<<ASSIGN   2821>>ASSIGN   2824<<ASSIGN   3474<<ASSIGN   3474>>ASSIGN
SC_TBL.COUNT2
       486**DCL      2820<<ASSIGN   3221<<ASSIGN   3221>>ASSIGN
SC_TBL.GLOBAL
       483**DCL      2847>>IF       2945>>IF       3089>>IF       3243>>IF
SC_TBL.KEY_PTR
PL6.E3A0      #002=ZIU$PA_SORTIN File=ZIU$COMPACT.:ZIC0TSI                       FRI 09/05/97 13:10 Page:212
       485**DCL       486--REDEF    2891>>ASSIGN
SC_TBL.NAME
       474**DCL      2778<>CALL     2827<>CALL     2874<>CALL     2954<>CALL     3141<>CALL     3212<>CALL
      3341<>CALL     3442<>CALL
SC_TBL.NO_OF_KEYS
       482**DCL      2892>>DOINDEX
SC_TBL.NO_OF_SM
       481**DCL      3129>>DOWHILE  3134>>IF       3204>>DOWHILE  3209>>IF
SC_TBL.PA_KEYSIZE
       477**DCL      2887>>ASSIGN   2962>>ASSIGN   3094>>ASSIGN   3248>>ASSIGN
SC_TBL.PA_PTRSIZE
       476**DCL      2963>>ASSIGN
SC_TBL.RC_PTR
       484**DCL      2949>>ASSIGN   3127>>ASSIGN   3137>>ASSIGN   3202>>ASSIGN   3468>>ASSIGN
SC_TBL.SETYPE
       475**DCL      2888>>IF
SET_EMPTY IN PROCEDURE COMPACT_AN_OWNER
      3174**LABEL    3093--CALLALT
SET_EMPTY IN PROCEDURE REVERT_AN_OWNER
      3308**LABEL    3247--CALLALT
SET_XREF$
       443**DCL       444--IMP-PTR
SORTREC_SIZE
         8**DCL         6--PROC     2787<<ASSIGN   2910<<ASSIGN   2914--ENTRY    2916>>IF       3370--ENTRY
      3372>>IF
SORT_REC
         9**DCL         6--PROC     2910--ASSIGN   2914--ENTRY    2975>>ASSIGN   3370--ENTRY    3409>>ASSIGN
SORT_REC.AC_PTR
        14**DCL      2846<<ASSIGN
SORT_REC.KEY_LOC
        17**DCL      2885--ASSIGN   2890<<ASSIGN   2977<>CALL
SORT_REC.MEMBER_DBK
        12**DCL      2858<<ASSIGN   2866>>ASSIGN   2873<>CALL     3374>>ASSIGN   3381>>ASSIGN   3384>>ASSIGN
      3392>>IF       3404>>ASSIGN   3406>>ASSIGN
SORT_REC.N_PTR
        10**DCL      2852<>CALL     2857<<ASSIGN
PL6.E3A0      #002=ZIU$PA_SORTIN File=ZIU$COMPACT.:ZIC0TSI                       FRI 09/05/97 13:10 Page:213
SORT_REC.O_PTR
        16**DCL      2855<>CALL     2860>>IF       2924>>IF       2928>>IF       2930>>ASSIGN   3377>>ASSIGN
      3390>>IF       3400>>ASSIGN
SORT_REC.P_PTR
        11**DCL      2854<>CALL     3380>>IF       3403>>IF
SORT_REC.RC_PTR
        13**DCL      2843<<ASSIGN
SORT_REC.SC_PTR
        15**DCL      2845<<ASSIGN   2924>>IF       2944>>ASSIGN   3378>>ASSIGN   3390>>IF       3401>>ASSIGN
STK
        18**DCL      2975<<ASSIGN   3395<<ASSIGN   3395>>ASSIGN   3409<<ASSIGN
STK.CURR
        21**DCL      2969<<ASSIGN   3110<<ASSIGN   3124<>CALL     3136>>IF       3204>>DOWHILE  3215<<ASSIGN
      3226<<ASSIGN   3379<<ASSIGN   3392>>IF       3402<<ASSIGN   3429>>IF       3469<<ASSIGN   3469>>ASSIGN
      3470<<ASSIGN   3475>>ASSIGN   3478>>ASSIGN
STK.NEXT
        19**DCL      2864<<ASSIGN   2959<<ASSIGN   2961<>CALL     3025<>CALL     3027>>IF       3112<<ASSIGN
      3122<<ASSIGN   3140<>CALL     3197<<ASSIGN   3217<<ASSIGN   3289<>CALL     3332<<ASSIGN   3392>>IF
      3428>>ASSIGN   3429>>IF       3477<<ASSIGN
STK.PRIOR
        20**DCL      2865<<ASSIGN   3026<>CALL     3027>>IF       3216<<ASSIGN   3216>>ASSIGN   3224<<ASSIGN
      3392>>IF       3429>>IF       3478<<ASSIGN
STK.RC_PTR
        22**DCL      2970<<ASSIGN   3111<<ASSIGN   3127<<ASSIGN   3129>>DOWHILE  3132<<ASSIGN   3132>>ASSIGN
      3137<<ASSIGN   3468<<ASSIGN   3476>>ASSIGN
STORE_AN_ENTRY
      2549**DCL-ENT  2971--CALL     2977--CALL     3113--CALL     3145--CALL
STORE_PTR IN PROCEDURE GET_PTR
      2627**ENTRY    3289--CALL
STORE_PTR2 IN PROCEDURE GET_PTR
      2632**ENTRY    3290--CALL
SWAP_PTR
      2577**DCL      2816<<ASSIGN
SYS_FUNC_CHECK
        37**DCL-ENT  2677--CALL
SYS_FUNC_CLOS
PL6.E3A0      #002=ZIU$PA_SORTIN File=ZIU$COMPACT.:ZIC0TSI                       FRI 09/05/97 13:10 Page:214
        35**DCL-ENT  3072--CALL
SYS_FUNC_ERRMSG
        34**DCL-ENT  3439--CALL
SYS_FUNC_READ
        33**DCL-ENT  2719--CALL
SYS_FUNC_RELDCB
        36**DCL-ENT  3445--CALL
SYS_FUNC_WRIT
        38**DCL-ENT  2669--CALL
TYPE.MSTRINDX
       391**DCL      2754>>ASSIGN   3038>>IF       3086>>ASSIGN   3240>>ASSIGN
UN_WIND
      2981**LABEL    2779--GOTO     2940--CALLALT  2955--GOTO     3009--CALLALT  3448--GOTO
WAITSF
       737**DCL      2665<<ASSIGN   2716<<ASSIGN
WRITE_PATCH_RECORD
      3194**PROC     3261--CALL     3272--CALL     3292--CALL
WRITE_TEMP
      2005**DCL      2868<>CALL     3033<>CALL     3219<>CALL     3480<>CALL
WRITE_TEMP.STATION_
      2007**DCL      2007--REDEF
WRITE_TEMP.V
      2008**DCL      2005--DCLINIT
WRITE_TEMP.V.DVBYTE.VFC#
      2014**DCL      2014--REDEF
WRIT_ERR
      3436**LABEL    2868--CALLALT  2919--CALLALT  2927--CALLALT  2971--CALLALT  2977--CALLALT  3033--CALLALT
      3054--CALLALT  3057--CALLALT  3394--CALLALT
WRIT_ERR IN PROCEDURE COMPACT_AN_OWNER
      3180**LABEL    3113--CALLALT  3145--CALLALT  3172--CALLALT
WRIT_ERR IN PROCEDURE REVERT_AN_OWNER
      3313**LABEL    3261--CALLALT  3272--CALLALT
X
       827**DCL      2685<<ASSIGN   2686>>DOWHILE  2686>>DOWHILE  2687<<ASSIGN   2687>>ASSIGN   2689>>IF
      2695>>ASSIGN   2696>>ASSIGN   2696>>ASSIGN   2697>>ASSIGN   2728<<DOINDEX  2729>>ASSIGN   2750<<ASSIGN
      2751>>IF       2753>>ASSIGN   2776<<ASSIGN   2777<>CALL     2821<<ASSIGN   2822>>IF       2825<>CALL
PL6.E3A0      #002=ZIU$PA_SORTIN File=ZIU$COMPACT.:ZIC0TSI                       FRI 09/05/97 13:10 Page:215
      2892<<DOINDEX  2902<<DOINDEX  2931<<ASSIGN   2932>>DOWHILE  2932>>DOWHILE  2933<<ASSIGN   2933>>ASSIGN
      2935>>IF       2938>>ASSIGN   3011<<DOINDEX  3012>>ASSIGN   3013>>ASSIGN   3013>>ASSIGN   3014>>ASSIGN
      3015>>ASSIGN   3030>>ASSIGN   3041>>ASSIGN   3104<>CALL     3105>>IF       3108>>IF       3128<<ASSIGN
      3129>>DOWHILE  3131<<ASSIGN   3131>>ASSIGN   3134>>IF       3152<<ASSIGN   3154<<ASSIGN   3155>>ASSIGN
      3203<<ASSIGN   3204>>DOWHILE  3206<<ASSIGN   3206>>ASSIGN   3209>>IF
Y
      2558**DCL      3021<<DOINDEX  3022>>ASSIGN   3050<<DOINDEX  3051>>ASSIGN
ZI$DIR.ALTKEY
      1112**DCL      1113--REDEF    1114--REDEF
ZI$DIR.AREAFID
      1078**DCL      1079--REDEF
ZI$DIR.CODE
      1094**DCL      2774>>IF       2819>>IF       2826>>IF       2826>>IF       2853>>IF       2856>>IF
      2958>>IF       3020>>IF       3053>>IF
ZI$DIR.DATE
      1117**DCL      1121--REDEF
ZI$DIR.DEST_SEED
      1073**DCL      1074--REDEF    1075--REDEF
ZI$DIR.ENCP_SEED
      1070**DCL      1071--REDEF    1072--REDEF
ZI$DIR.INSERT_DUMMY
      1114**DCL      2967>>IF       3105>>IF       3108>>IF
ZI$DIR.REPRT_ZERO
      1104**DCL      1105--REDEF
ZI$DIR.SCHFID
      1076**DCL      1077--REDEF
ZI$DIR.TIME
      1122**DCL      1127--REDEF
ZIU$DBAMP
        42**DCL-ENT  2895--CALL     2905--CALL

