
 13:11 09/05/97  FILE=ZIU$DBAMP.:ZIC0TSI                                                                 1    BMAP - B00
                                         1  *M*   ZIU$DBAMP - MODIFIED VERSION OF ZIM$DBAMP
                                         2  *T***********************************************************
                                         3  *T*                                                         *
                                         4  *T* Copyright (c) Bull HN Information Systems Inc., 1997    *
                                         5  *T*                                                         *
                                         6  *T***********************************************************

 13:11 09/05/97  FILE=ZIU$DBAMP.:ZIC0TSI      ZIU$DBAMP - MODIFIED VERSION OF ZIM$DBAMP                  2    BMAP - B00
                                         7        TTL     ZIU$DBAMP - MODIFIED VERSION OF ZIM$DBAMP
                                         8        CPR     1980
                                         9        PMC     OFF
                                        10        ENTDEF  ZIU$DBAMP           MOVE PA KEY FROM PAGE TO BUF
                                        11        ENTDEF  ZIU$DBPCF            COMPARE TWO SORT KEYS
                                        12
                                        13        ENTREF  X66_AUTO_0,X66_ARET
                                        14        SYMREF  PRFR                EIS - KEY SOURCE BASED ON REC$
                                        15        SYMREF  PRFR2               EIS - KEY DESTINATION BASED ON REC2$
                                        16        SYMREF  REC$                PTR TO MEMBER RECORD
                                        17        SYMREF  REC1$               PTR TO SORT_REC1.KEY_LOC
                                        18        SYMREF  REC2$               PTR TO SORT_REC2.KEY_LOC
             000000000003               19  PR3   EQU     3
             000000000004               20  PR4   EQU     4
             000000000001               21  X1    EQU     1
             000000000003               22  X3    EQU     3
             000000000002               23  X2    EQU     2
             000000000004               24  X4    EQU     4
                                        25

 13:11 09/05/97  FILE=ZIU$DBAMP.:ZIC0TSI      MOVE KEYS FROM DATAPAGE TO SORT_REC                        3    BMAP - B00
                                        26        TTL     MOVE KEYS FROM DATAPAGE TO SORT_REC
 0 000000                               27  ZIU$DBAMP NULL
                                        28
   000000  X 000000 4734 00             29        LDP     PR3,REC$            SOURCE PTR
   000001  X 000000 4744 00             30        LDP     PR4,REC2$           DESTINATION PTR
   000002  X 000000 2220 00             31          LDX     X2,PRFR2        Get compare code
   000003    070000 3620 03             32          ANX     X2,=O070000,DU  and isolate.
   000004  X 000000 2350 00             33          LDA     PRFR            Source EIS
   000005 (1)000000 3750 00             34          ANA     =O703777777777  Remove compare code and CTRLSEQ
   000006  X 000000 7550 00             35          STA     PRFR            and save.
   000007  X 000000 2360 00             36          LDQ     PRFR2           Dest EIS
   000010 (1)000000 3760 00             37          ANQ     =O703777777777  Remove compare code and CTRLSEQ
   000011    100000 0360 03             38          ADLQ    =O100000,DU     Use PR4 instead of PR3
   000012  X 000000 7560 00             39          STQ     PRFR2           and save.
   000013    010000 1020 03             40          CMPX2   =O010000,DU     Numeric data type.
   000014 (0)000021 6010 00             41          TNZ     ALPHM           No.  Branch.
                                        42  *  Must do numeric move
   000015    0 000 0 0 120 3005 20      43          MVN     (1,,1),(1,,1)   Move numeric
   000016  X 000000 0000 00             44          ARG     PRFR            Source EIS
   000017  X 000000 0000 00             45          ARG     PRFR2           Dest EIS
   000020    000001 7100 11             46          TRA     1,X1            RETURN
                                        47  *  Character move OK
   000021                               48  ALPHM   NULL
   000021    000 0 120 1005 20          49        MLR     (1,,1),(1,,1)
   000022  X 000000 0000 00             50        ARG     PRFR
   000023  X 000000 0000 00             51        ARG     PRFR2
   000024    000001 7100 11             52        TRA     1,X1
                                        53

 13:11 09/05/97  FILE=ZIU$DBAMP.:ZIC0TSI      COMPARE KEYS AND SETUP RESULT(0 =,1 <,2 >)                 4    BMAP - B00
                                        54        TTL     COMPARE KEYS AND SETUP RESULT(0 =,1 <,2 >)
   000025                               55  ZIU$DBPCF     NULL
   000025  X 000000 4734 00             56        LDP     PR3,REC1$
   000026  X 000000 4744 00             57        LDP     PR4,REC2$
   000027  X 000000 2350 00             58        LDA     PRFR
   000030 (1)000001 3750 00             59        ANA     =O070000000000
   000031  X 000000 2220 00             60        LDX     X2,PRFR
   000032    004000 3620 03             61        ANX     X2,=O004000,DU      X2 = 1 IF ORDER IS DESCENDING
   000033  X 000000 2360 00             62        LDQ     PRFR
   000034 (1)000000 3760 00             63        ANQ     =O703777777777      GET RID OF COMC AND DESCEND
   000035  X 000000 7560 00             64        STQ     PRFR
   000036    100000 0360 03             65        ADLQ    =O100000,DU         MAKE PR3 TO PR4
   000037  X 000000 7560 00             66        STQ     PRFR2
   000040    000014 7710 00             67        ARL     12                  AU HAS THE COMPARE CODE(COMC)
   000041 (0)000042 7100 01             68        TRA     *+1,AU
   000042 (0)000052 7100 00             69        TRA     ALPH                ALPHA 9 BIT COMPARE
   000043 (0)000060 7100 00             70        TRA     NUME                NUMERIC(9/4 BIT) COMPARE
   000044 (0)000066 7100 00             71        TRA     BINA                BINARY(HALF/WORD) COMPARE
   000045 (0)000101 7100 00             72        TRA     BCDD                BCD(6 BIT) COMPARE
   000046 (0)000103 7100 00             73        TRA     BITC                BIT COMPARE
   000047 (0)000111 7100 00             74        TRA     FLPT                FLOATING POINT COMPARE
   000050 (0)000101 7100 00             75        TRA     ILEGAL
   000051 (0)000101 7100 00             76        TRA     ILEGAL
                                        77
   000052                               78  ALPH  NULL
                                        79
   000052    040 0 120 1065 20          80        CMPC    (1,,1),(1,,1),040
   000053  X 000000 0000 00             81        ARG     PRFR
   000054  X 000000 0000 00             82        ARG     PRFR2
   000055 (0)000124 6000 00             83        TZE     TEQ
   000056 (0)000133 6030 00             84        TRC     TBG
   000057 (0)000126 7100 00             85        TRA     TBL
                                        86
   000060                               87  NUME  NULL
                                        88
   000060    0 000 0 0 120 3035 20      89        CMPN    (1,,1),(1,,1)
   000061  X 000000 0000 00             90        ARG     PRFR
 13:11 09/05/97  FILE=ZIU$DBAMP.:ZIC0TSI      COMPARE KEYS AND SETUP RESULT(0 =,1 <,2 >)                 5    BMAP - B00
   000062  X 000000 0000 00             91        ARG     PRFR2
   000063 (0)000124 6000 00             92        TZE     TEQ
   000064 (0)000133 6040 00             93        TMI     TBG
   000065 (0)000126 7100 00             94        TRA     TBL
                                        95
   000066                               96  BINA  NULL
                                        97
   000066    000 0 000 1005 20          98        MLR     (1,,1),,0
   000067  X 000000 0000 00             99        ARG     PRFR
   000070  X 000000 0 0 0 0004         100        ADSC9   PRFR,0,4            MOVE BINRAY NUMBER TO PRFR
   000071    000 0 000 1005 20         101        MLR     (1,,1),,0
   000072  X 000000 0000 00            102        ARG     PRFR2
   000073  X 000000 0 0 0 0004         103        ADSC9   PRFR2,0,4           MOVE 2ND BIN TO PRFR2
   000074  X 000000 2350 00            104        LDA     PRFR
   000075  X 000000 1150 00            105        CMPA    PRFR2
   000076 (0)000124 6000 00            106        TZE     TEQ
   000077 (0)000133 6050 00            107        TPL     TBG
   000100 (0)000126 7100 00            108        TRA     TBL
                                       109
   000101                              110  BCDD  NULL
                                       111
   000101                              112  ILEGAL NULL
   000101    000003 2350 07            113        LDA     3,DL                MAKE RESULT ILLEGAL SO SORT WILL ABORT
   000102 (0)000137 7100 00            114        TRA     RET
                                       115
   000103                              116  BITC  NULL
                                       117
   000103    0 000 120 0665 20         118        CMPB    (1,,1),(1,,1),0
   000104  X 000000 0000 00            119        ARG     PRFR
   000105  X 000000 0000 00            120        ARG     PRFR2
   000106 (0)000124 6000 00            121        TZE     TEQ
   000107 (0)000133 6030 00            122        TRC     TBG
   000110 (0)000126 7100 00            123        TRA     TBL
                                       124
   000111                              125  FLPT  NULL
                                       126
   000111    000 0 000 1005 20         127        MLR     (1,,1),,0
 13:11 09/05/97  FILE=ZIU$DBAMP.:ZIC0TSI      COMPARE KEYS AND SETUP RESULT(0 =,1 <,2 >)                 6    BMAP - B00
   000112  X 000000 0000 00            128        ARG     PRFR
   000113 (2)000000 0 0 0 0010         129        ADSC9   FLP1,0,8            MOVE FLOATING TO TEMP LOC
   000114    000 0 000 1005 20         130        MLR     (1,,1),,0
   000115  X 000000 0000 00            131        ARG     PRFR2
   000116 (2)000002 0 0 0 0010         132        ADSC9   FLP2,0,8            MOVE 2ND FLT NUMBER TO TEMP LOC2
   000117 (2)000000 4330 00            133        DFLD    FLP1                GET 1ST
   000120 (2)000002 5170 00            134        DFCMP   FLP2                COMPARE WITH 2ND
   000121 (0)000124 6000 00            135        TZE     TEQ
   000122 (0)000133 6050 00            136        TPL     TBG
   000123 (0)000126 7100 00            137        TRA     TBL
                                       138
   000124                              139  TEQ   NULL
   000124    000000 2350 07            140        LDA     0,DL
   000125 (0)000137 7100 00            141        TRA     RET
                                       142
   000126                              143  TBL   NULL
   000126    000001 2350 07            144        LDA     1,DL
   000127    000000 1020 03            145        CMPX    X2,0,DU             IS SET ASCENDING?
   000130 (0)000137 6000 00            146        TZE     RET                 YES - JUST RETURN
   000131    000002 2350 07            147        LDA     2,DL                SET IS DESCENDING,SO FLIP THE RESULT
   000132 (0)000137 7100 00            148        TRA     RET
                                       149
   000133                              150  TBG   NULL
   000133    000002 2350 07            151        LDA     2,DL
   000134    000000 1020 03            152        CMPX    X2,0,DU             IS SET ASCENDING
   000135 (0)000137 6000 00            153        TZE     RET                 YES
   000136    000001 2350 07            154        LDA     1,DL                NO - FLIP THE COMPARSION RESULT
                                       155
   000137  X 000000 7550 00            156  RET   STA     PRFR                RETURN RESULT IN PRFR
   000140    000001 7100 11            157        TRA     1,X1
 2 000000                              158        USE     ZIU$PA_DATA,0
   000000                              159  FLP1  BSS     2
   000002                              160  FLP2  BSS     2
                                       161        END
 1 000000    703777777777
   000001    070000000000

 13:11 09/05/97  FILE=ZIU$DBAMP.:ZIC0TSI      COMPARE KEYS AND SETUP RESULT(0 =,1 <,2 >)                 7    BMAP - B00
  CONTROL SECTION TABLE

   0 CODE   EVEN  000141
   1 RODATA EVEN  000002 LITERALS
   2 DATA   EVEN  000004 ZIU$PA_DATA

 13:11 09/05/97  FILE=ZIU$DBAMP.:ZIC0TSI      SYMBOL TABLE                                               8    BMAP - B00
 01101000 000000000052 ALPH            69       *78
 01101000 000000000021 ALPHM           41       *48
 01101000 000000000101 BCDD            72      *110
 01101000 000000000066 BINA            71       *96
 01101000 000000000103 BITC            73      *116
 01101002 000000000000 FLP1           129       133      *159
 01101002 000000000002 FLP2           132       134      *160
 01101000 000000000111 FLPT            74      *125
 01101000 000000000101 ILEGAL          75        76      *112
 01101000 000000000060 NUME            70       *87
 41000000 000000000003 PR3            *19        29        56
 41000000 000000000004 PR4            *20        30        57
 03301000 000000000000 PRFR           *14        33        35        44        50        58        60
                                       62        64        81        90        99       100       104
                                      119       128       156
 03301001 000000000000 PRFR2          *15        31        36        39        45        51        66
                                       82        91       102       103       105       120       131
 03301002 000000000000 REC$           *16        29
 03301003 000000000000 REC1$          *17        56
 03301004 000000000000 REC2$          *18        30        57
 01101000 000000000137 RET            114       141       146       148       153      *156
 01101000 000000000133 TBG             84        93       107       122       136      *150
 01101000 000000000126 TBL             85        94       108       123       137      *143
 01101000 000000000124 TEQ             83        92       106       121       135      *139
 40000000 000000000001 X1             *21
 41000000 000000000002 X2             *23        31        32        60        61       145       152
 40000000 000000000003 X3             *22
 40000000 000000000004 X4             *24
 02201001 000000000000 X66_ARET       *13
 02201000 000000000000 X66_AUTO_0     *13
 12101000 000000000000 ZIU$DBAMP       10       *27
 12101000 000000000025 ZIU$DBPCF       11       *55

      29 SYMBOLS

       0 MACROS

 13:11 09/05/97  FILE=ZIU$DBAMP.:ZIC0TSI      SYMBOL TABLE                                               9    BMAP - B00
    SYMBOL SPACE USED   430 WORDS
     MACRO SPACE USED     0 WORDS
   INPUT RECORDS READ   322
 STATEMENTS PROCESSED   157
         ELAPSED TIME  0:01.44
             CPU TIME     1.25 SEC.
        ASSEMBLY RATE  7536 STATEMENTS/CPU MIN.

      NO ERRORS

