
PL6.E3A0      #001=DB_FUNC_HIA File=ZIU$DBFC.:ZIC0TSI                            FRI 09/05/97 13:11 Page:1
        1        1        /*T***********************************************************/
        2        2        /*T*                                                         */
        3        3        /*T* Copyright (c) Bull HN Information Systems Inc., 1997    */
        4        4        /*T*                                                         */
        5        5        /*T***********************************************************/
        6        6        DB_FUNC_HIA: PROC(SCHNAM) ALTRET;
        7        7    1   DCL SCHNAM CHAR(30) ALIGNED;
        8        8        /**/
        9        9        %INCLUDE ZI_UWA_C;
       10      699        %ZI$UWAB;
       11     1039        %INCLUDE ZI_RVA_C;
       12     1720        %SET LISTMAC='1'B;
       13     1721        %CAN_RVA_REF;
              1722    1   DCL 1    CAN_RVA SYMREF DALIGNED,
              1723    1         2    NO_ENT_RV SBIN (18) UNAL,
              1724    1         2    *         SBIN (18) UNAL,
              1725    1         2 ACRA UNAL,
              1726    1           3 FIR     SBIN (18) UNAL,
              1727    1           3 SEC SBIN(18) UNAL,
              1728    1         2 ACCA UNAL,
              1729    1           3 FIR     SBIN (18) UNAL,
              1730    1           3 SEC SBIN(18) UNAL,
              1731    1         2 ASCA UNAL,
              1732    1           3 FIR     SBIN (18) UNAL,
              1733    1           3 SEC SBIN(18) UNAL,
              1734    1         2 ASPG UNAL,
              1735    1           3 FIR     SBIN (18) UNAL,
              1736    1           3 SEC SBIN(18) UNAL,
              1737    1         2 SNSI UNAL,
              1738    1           3 FIR     SBIN (18) UNAL,
              1739    1           3 SEC SBIN(18) UNAL,
              1740    1         2 ASSI UNAL,
              1741    1           3 FIR     SBIN (18) UNAL,
              1742    1           3 SEC SBIN(18) UNAL,
              1743    1         2 ASAL UNAL,
              1744    1           3 FIR     SBIN (18) UNAL,
              1745    1           3 SEC SBIN(18) UNAL,
PL6.E3A0      #001=DB_FUNC_HIA File=ZIU$DBFC.:ZIC0TSI                            FRI 09/05/97 13:11 Page:2
              1746    1         2 DALK UNAL,
              1747    1           3 FIR     SBIN (18) UNAL,
              1748    1           3 SEC SBIN(18) UNAL,
              1749    1         2 DAPN UNAL,
              1750    1           3 FIR     SBIN (18) UNAL,
              1751    1           3 SEC SBIN(18) UNAL,
              1752    1         2 DASN UNAL,
              1753    1           3 FIR     SBIN (18) UNAL,
              1754    1           3 SEC SBIN(18) UNAL,
              1755    1         2 FRCFR UNAL,
              1756    1           3 FIR     SBIN (18) UNAL,
              1757    1           3 SEC SBIN(18) UNAL,
              1758    1         2 FRCFS UNAL,
              1759    1           3 FIR     SBIN (18) UNAL,
              1760    1           3 SEC SBIN(18) UNAL,
              1761    1         2 LKLT UNAL,
              1762    1           3 FIR     SBIN (18) UNAL,
              1763    1           3 SEC SBIN(18) UNAL,
              1764    1         2 NRSNPT UNAL,
              1765    1           3 FIR     SBIN (18) UNAL,
              1766    1           3 SEC SBIN(18) UNAL,
              1767    1         2 SNTX UNAL,
              1768    1           3 FIR     SBIN (18) UNAL,
              1769    1           3 SEC SBIN(18) UNAL,
              1770    1         2 NRSE UNAL,
              1771    1           3 FIR     SBIN (18) UNAL,
              1772    1           3 SEC SBIN(18) UNAL,
              1773    1         2 OAAC UNAL,
              1774    1           3 FIR     SBIN (18) UNAL,
              1775    1           3 SEC SBIN(18) UNAL,
              1776    1         2 OARC UNAL,
              1777    1           3 FIR     SBIN (18) UNAL,
              1778    1           3 SEC SBIN(18) UNAL,
              1779    1         2 OASC UNAL,
              1780    1           3 FIR     SBIN (18) UNAL,
              1781    1           3 SEC SBIN(18) UNAL,
              1782    1         2 PGVB UNAL,
PL6.E3A0      #001=DB_FUNC_HIA File=ZIU$DBFC.:ZIC0TSI                            FRI 09/05/97 13:11 Page:3
              1783    1           3 FIR     SBIN (18) UNAL,
              1784    1           3 SEC SBIN(18) UNAL,
              1785    1         2 PNAG UNAL,
              1786    1           3 FIR     SBIN (18) UNAL,
              1787    1           3 SEC SBIN(18) UNAL,
              1788    1         2 PNNT UNAL,
              1789    1           3 FIR     SBIN (18) UNAL,
              1790    1           3 SEC SBIN(18) UNAL,
              1791    1         2 RCFR UNAL,
              1792    1           3 FIR     SBIN (18) UNAL,
              1793    1           3 SEC SBIN(18) UNAL,
              1794    1         2 RCRA UNAL,
              1795    1           3 FIR     SBIN (18) UNAL,
              1796    1           3 SEC SBIN(18) UNAL,
              1797    1         2 RCSOSM UNAL,
              1798    1           3 FIR     SBIN (18) UNAL,
              1799    1           3 SEC SBIN(18) UNAL,
              1800    1         2 SADD UNAL,
              1801    1           3 FIR     SBIN (18) UNAL,
              1802    1           3 SEC SBIN(18) UNAL,
              1803    1         2 SADM UNAL,
              1804    1           3 FIR     SBIN (18) UNAL,
              1805    1           3 SEC SBIN(18) UNAL,
              1806    1         2 SCSOSM UNAL,
              1807    1           3 FIR     SBIN (18) UNAL,
              1808    1           3 SEC SBIN(18) UNAL,
              1809    1         2 SFAD UNAL,
              1810    1           3 FIR     SBIN (18) UNAL,
              1811    1           3 SEC SBIN(18) UNAL,
              1812    1         2 SFAS UNAL,
              1813    1           3 FIR     SBIN (18) UNAL,
              1814    1           3 SEC SBIN(18) UNAL,
              1815    1         2 SFCA UNAL,
              1816    1           3 FIR     SBIN (18) UNAL,
              1817    1           3 SEC SBIN(18) UNAL,
              1818    1         2 SIVB UNAL,
              1819    1           3 FIR     SBIN (18) UNAL,
PL6.E3A0      #001=DB_FUNC_HIA File=ZIU$DBFC.:ZIC0TSI                            FRI 09/05/97 13:11 Page:4
              1820    1           3 SEC SBIN(18) UNAL,
              1821    1         2 SMSSCF UNAL,
              1822    1           3 FIR     SBIN (18) UNAL,
              1823    1           3 SEC SBIN(18) UNAL,
              1824    1         2 SMSS UNAL,
              1825    1           3 FIR     SBIN (18) UNAL,
              1826    1           3 SEC SBIN(18) UNAL,
              1827    1         2 SNNRPT UNAL,
              1828    1           3 FIR     SBIN (18) UNAL,
              1829    1           3 SEC SBIN(18) UNAL,
              1830    1         2 SNLT UNAL,
              1831    1           3 FIR     SBIN (18) UNAL,
              1832    1           3 SEC SBIN(18) UNAL,
              1833    1         2 SNNRCO UNAL,
              1834    1           3 FIR     SBIN (18) UNAL,
              1835    1           3 SEC SBIN(18) UNAL,
              1836    1         2 SNNRWU UNAL,
              1837    1           3 FIR     SBIN (18) UNAL,
              1838    1           3 SEC SBIN(18) UNAL,
              1839    1         2 SNSE UNAL,
              1840    1           3 FIR     SBIN (18) UNAL,
              1841    1           3 SEC SBIN(18) UNAL,
              1842    1         2 SSSMCF UNAL,
              1843    1           3 FIR     SBIN (18) UNAL,
              1844    1           3 SEC SBIN(18) UNAL,
              1845    1         2 TATOK UNAL,
              1846    1           3 FIR     SBIN (18) UNAL,
              1847    1           3 SEC SBIN(18) UNAL,
              1848    1         2 SFREC UNAL,
              1849    1           3 FIR       SBIN (18) UNAL,
              1850    1           3   SEC   SBIN (18) UNAL,
              1851    1         2 ASREC UNAL,
              1852    1           3 FIR       SBIN (18) UNAL,
              1853    1           3   SEC   SBIN (18) UNAL,
              1854    1         2 PGREC UNAL,
              1855    1           3 FIR       SBIN (18) UNAL,
              1856    1           3   SEC   SBIN (18) UNAL,
PL6.E3A0      #001=DB_FUNC_HIA File=ZIU$DBFC.:ZIC0TSI                            FRI 09/05/97 13:11 Page:5
              1857    1         2 CAREC UNAL,
              1858    1           3 FIR       SBIN (18) UNAL,
              1859    1           3   SEC   SBIN (18) UNAL,
              1860    1         2 SIREC UNAL,
              1861    1           3 FIR       SBIN (18) UNAL,
              1862    1           3   SEC   SBIN (18) UNAL,
              1863    1         2 ALREC UNAL,
              1864    1           3 FIR       SBIN (18) UNAL,
              1865    1           3   SEC   SBIN (18) UNAL,
              1866    1         2 VBREC UNAL,
              1867    1           3 FIR       SBIN (18) UNAL,
              1868    1           3   SEC   SBIN (18) UNAL,
              1869    1         2 ADREC UNAL,
              1870    1           3 FIR       SBIN (18) UNAL,
              1871    1           3   SEC   SBIN (18) UNAL,
              1872    1         2 OAREC UNAL,
              1873    1           3 FIR       SBIN (18) UNAL,
              1874    1           3   SEC   SBIN (18) UNAL,
              1875    1         2 ACREC UNAL,
              1876    1           3 FIR       SBIN (18) UNAL,
              1877    1           3   SEC   SBIN (18) UNAL,
              1878    1         2 RCREC UNAL,
              1879    1           3 FIR       SBIN (18) UNAL,
              1880    1           3   SEC   SBIN (18) UNAL,
              1881    1         2 SCREC UNAL,
              1882    1           3 FIR       SBIN (18) UNAL,
              1883    1           3   SEC   SBIN (18) UNAL,
              1884    1         2 RAREC UNAL,
              1885    1           3 FIR       SBIN (18) UNAL,
              1886    1           3   SEC   SBIN (18) UNAL,
              1887    1         2 FRREC UNAL,
              1888    1           3 FIR       SBIN (18) UNAL,
              1889    1           3   SEC   SBIN (18) UNAL,
              1890    1         2 SOREC UNAL,
              1891    1           3 FIR       SBIN (18) UNAL,
              1892    1           3   SEC   SBIN (18) UNAL,
              1893    1         2 SMREC UNAL,
PL6.E3A0      #001=DB_FUNC_HIA File=ZIU$DBFC.:ZIC0TSI                            FRI 09/05/97 13:11 Page:6
              1894    1           3 FIR       SBIN (18) UNAL,
              1895    1           3   SEC   SBIN (18) UNAL,
              1896    1         2 SSREC UNAL,
              1897    1           3 FIR       SBIN (18) UNAL,
              1898    1           3   SEC   SBIN (18) UNAL,
              1899    1         2 CFREC UNAL,
              1900    1           3 FIR       SBIN (18) UNAL,
              1901    1           3   SEC   SBIN (18) UNAL,
              1902    1         2 DAREC UNAL,
              1903    1           3 FIR       SBIN (18) UNAL,
              1904    1           3   SEC   SBIN (18) UNAL,
              1905    1         2 SNREC UNAL,
              1906    1           3 FIR       SBIN (18) UNAL,
              1907    1           3   SEC   SBIN (18) UNAL,
              1908    1         2 LKREC UNAL,
              1909    1           3 FIR       SBIN (18) UNAL,
              1910    1           3   SEC   SBIN (18) UNAL,
              1911    1         2 PNREC UNAL,
              1912    1           3 FIR       SBIN (18) UNAL,
              1913    1           3   SEC   SBIN (18) UNAL,
              1914    1         2 NRREC UNAL,
              1915    1           3 FIR       SBIN (18) UNAL,
              1916    1           3   SEC   SBIN (18) UNAL,
              1917    1         2 LTREC UNAL,
              1918    1           3 FIR       SBIN (18) UNAL,
              1919    1           3   SEC   SBIN (18) UNAL,
              1920    1         2 PTREC UNAL,
              1921    1           3 FIR       SBIN (18) UNAL,
              1922    1           3   SEC   SBIN (18) UNAL,
              1923    1         2 AGREC UNAL,
              1924    1           3 FIR       SBIN (18) UNAL,
              1925    1           3   SEC   SBIN (18) UNAL,
              1926    1         2  TXREC UNAL,
              1927    1           3 FIR       SBIN (18) UNAL,
              1928    1           3   SEC   SBIN (18) UNAL,
              1929    1         2 SAREC UNAL,
              1930    1           3 FIR       SBIN (18) UNAL,
PL6.E3A0      #001=DB_FUNC_HIA File=ZIU$DBFC.:ZIC0TSI                            FRI 09/05/97 13:11 Page:7
              1931    1           3   SEC   SBIN (18) UNAL,
              1932    1         2 DDREC UNAL,
              1933    1           3 FIR       SBIN (18) UNAL,
              1934    1           3   SEC   SBIN (18) UNAL,
              1935    1         2 DMREC UNAL,
              1936    1           3 FIR       SBIN (18) UNAL,
              1937    1           3   SEC   SBIN (18) UNAL,
              1938    1         2 DBPREC UNAL,
              1939    1           3 FIR       SBIN (18) UNAL,
              1940    1           3   SEC   SBIN (18) UNAL,
              1941    1         2 OSEREC UNAL,
              1942    1           3 FIR       SBIN (18) UNAL,
              1943    1           3   SEC   SBIN (18) UNAL,
              1944    1         2 OSNREC UNAL,
              1945    1           3 FIR       SBIN (18) UNAL,
              1946    1           3   SEC   SBIN (18) UNAL,
              1947    1         2 TAREC UNAL,
              1948    1           3 FIR       SBIN (18) UNAL,
              1949    1           3   SEC   SBIN (18) UNAL,
              1950    1         2 TOKREC UNAL,
              1951    1           3 FIR       SBIN (18) UNAL,
              1952    1           3   SEC   SBIN (18) UNAL,
              1953    1         2 VOAREC UNAL,
              1954    1           3 FIR       SBIN (18) UNAL,
              1955    1           3   SEC   SBIN (18) UNAL,
              1956    1         2 VACREC UNAL,
              1957    1           3 FIR       SBIN (18) UNAL,
              1958    1           3   SEC   SBIN (18) UNAL,
              1959    1         2 VRAREC UNAL,
              1960    1           3 FIR       SBIN (18) UNAL,
              1961    1           3   SEC   SBIN (18) UNAL,
              1962    1         2 VRCREC UNAL,
              1963    1           3 FIR       SBIN (18) UNAL,
              1964    1           3   SEC   SBIN (18) UNAL,
              1965    1         2 VFRREC UNAL,
              1966    1           3 FIR       SBIN (18) UNAL,
              1967    1           3   SEC   SBIN (18) UNAL,
PL6.E3A0      #001=DB_FUNC_HIA File=ZIU$DBFC.:ZIC0TSI                            FRI 09/05/97 13:11 Page:8
              1968    1         2 VSCREC UNAL,
              1969    1           3 FIR       SBIN (18) UNAL,
              1970    1           3   SEC   SBIN (18) UNAL,
              1971    1         2 VSOREC UNAL,
              1972    1           3 FIR       SBIN (18) UNAL,
              1973    1           3   SEC   SBIN (18) UNAL,
              1974    1         2 VSMREC UNAL,
              1975    1           3 FIR       SBIN (18) UNAL,
              1976    1           3   SEC   SBIN (18) UNAL,
              1977    1         2 VSSREC UNAL,
              1978    1           3 FIR       SBIN (18) UNAL,
              1979    1           3   SEC   SBIN (18) UNAL,
              1980    1         2 VCFREC UNAL,
              1981    1           3 FIR       SBIN (18) UNAL,
              1982    1           3   SEC   SBIN (18) UNAL,
              1983    1         2 VDAREC UNAL,
              1984    1           3 FIR       SBIN (18) UNAL,
              1985    1           3   SEC   SBIN (18) UNAL,
              1986    1         2 VSNREC UNAL,
              1987    1           3 FIR       SBIN (18) UNAL,
              1988    1           3   SEC   SBIN (18) UNAL,
              1989    1         2 VNRREC UNAL,
              1990    1           3 FIR       SBIN (18) UNAL,
              1991    1           3   SEC   SBIN (18) UNAL,
              1992    1         2 VLKREC UNAL,
              1993    1           3 FIR       SBIN (18) UNAL,
              1994    1           3   SEC   SBIN (18) UNAL,
              1995    1         2 VLTREC UNAL,
              1996    1           3 FIR       SBIN (18) UNAL,
              1997    1           3   SEC   SBIN (18) UNAL,
              1998    1         2 VPNREC UNAL,
              1999    1           3 FIR       SBIN (18) UNAL,
              2000    1           3   SEC   SBIN (18) UNAL,
              2001    1         2 VPTREC UNAL,
              2002    1           3 FIR       SBIN (18) UNAL,
              2003    1           3   SEC   SBIN (18) UNAL,
              2004    1         2 VAGREC UNAL,
PL6.E3A0      #001=DB_FUNC_HIA File=ZIU$DBFC.:ZIC0TSI                            FRI 09/05/97 13:11 Page:9
              2005    1           3 FIR       SBIN (18) UNAL,
              2006    1           3   SEC   SBIN (18) UNAL,
              2007    1         2 VTAREC UNAL,
              2008    1           3 FIR       SBIN (18) UNAL,
              2009    1           3   SEC   SBIN (18) UNAL,
              2010    1         2 VLMREC UNAL,
              2011    1           3 FIR       SBIN (18) UNAL,
              2012    1           3   SEC   SBIN (18) UNAL,
              2013    1         2 VMKREC UNAL,
              2014    1           3 FIR       SBIN (18) UNAL,
              2015    1           3   SEC   SBIN (18) UNAL,
              2016    1         2 VMDREC UNAL,
              2017    1           3 FIR       SBIN (18) UNAL,
              2018    1           3   SEC   SBIN (18) UNAL,
              2019    1         2 VKNREC UNAL,
              2020    1           3 FIR       SBIN (18) UNAL,
              2021    1           3   SEC   SBIN (18) UNAL,
              2022    1         2 VWIREC UNAL,
              2023    1           3 FIR       SBIN (18) UNAL,
              2024    1           3   SEC   SBIN (18) UNAL,
              2025    1         2 VSPREC UNAL,
              2026    1           3 FIR       SBIN (18) UNAL,
              2027    1           3   SEC   SBIN (18) UNAL,
              2028    1         2 VT2REC UNAL,
              2029    1           3 FIR       SBIN (18) UNAL,
              2030    1           3   SEC   SBIN (18) UNAL,
              2031    1         2 VCTKREC UNAL,
              2032    1           3 FIR       SBIN (18) UNAL,
              2033    1           3   SEC   SBIN (18) UNAL,
              2034    1         2 NULL UNAL,
              2035    1           3 FIR       SBIN (18) UNAL,
              2036    1           3 SEC      SBIN (18) UNAL,
              2037    1         2 *       SBIN (18) UNAL,
              2038    1         2 THISISATHIRTYCHARACTERDATANAME SBIN (18) UNAL;
       14     2040        %IA_MAC;
              2041    1   DCL 1 IA STATIC SYMDEF DALIGNED,
              2042    1         2 WORD1 SBIN (36) INIT (0) UNAL,
PL6.E3A0      #001=DB_FUNC_HIA File=ZIU$DBFC.:ZIC0TSI                            FRI 09/05/97 13:11 Page:10
              2043    1         2 UWA   PTR       INIT (ADDR(UWA)) UNAL,
              2044    1         2 WRD6 (0:5) BIT (36)  UNAL,
              2045    1         2 RVA   PTR       INIT (ADDR(CAN_RVA)) UNAL,
              2046    1         2 WORD9 SBIN (36) INIT (0) UNAL,
              2047    1         2 SCH CHAR (32) UNAL,
              2048    1         2 UTL CHAR (32) INIT ('SUB4') UNAL,
              2049    1         2 WRD20 (0:19) SBIN (36) INIT (0*17) UNAL;
       15     2051        %DB_MAC;
              2052    1   DCL RC_OFF SBIN(18) ALIGNED;
              2053    1   DCL SC_OFF SBIN(18) ALIGNED;
              2054    1   DCL DB_DBK UBIN(36) ALIGNED;
              2055    1   DCL RET_NUM UBIN(36) ALIGNED;
              2056    1   DCL RET_SET UBIN(36) ALIGNED;
       16     2058        %USEP_MAC;
              2059    1   DCL 1 USEP  STATIC  DALIGNED,
              2060    1         2 COUNT UBIN (18) UNAL INIT (1),
              2061    1         2 *   UBIN (18) UNAL INIT (0),
              2062    1         2 TYPE_CODE UBIN (9) UNAL INIT (3),
              2063    1         2 STATE_CODE UBIN (27) UNAL INIT (4000000),
              2064    1         2 *   UBIN (36) UNAL INIT (0);
       17     2066        %INCLUDE ZI_DBCS;
       18     2679        %ASL;
              2680        %EQU ASLFLAG=1;
              2681    1   DCL I$ROL ENTRY(1)CONV(2,2);DCL I$HIA ENTRY(1)CONV(2,5);DCL I$RDY ENTRY(1)CONV(2,5);
              2681            DCL I$FIN ENTRY(1)CONV(2,5);DCL I$STO ENTRY(1)
              2682    1   CONV(2,5);DCL I$ERS ENTRY(1)CONV(2,5);DCL I$MOD ENTRY(1)CONV(2,5);DCL I$CON ENTRY(1)
              2682            CONV(2,5);DCL I$DIS ENTRY(1)CONV(2,5);DCL I$ACN
              2683    1   ENTRY(1)CONV(2,7);DCL I$ACC ENTRY(1)CONV(2,6);DCL I$IFT ENTRY(1)CONV(2,5);DCL I$IST
              2683            ENTRY(1)CONV(2,5);DCL I$IFM ENTRY(1)CONV(2,5);
              2684    1   DCL I$FKY ENTRY(1)CONV(2,5);DCL I$FKC ENTRY(1)CONV(2,5);DCL I$FDP ENTRY(1)CONV(2,5);
              2684            DCL I$FDC ENTRY(1)CONV(2,5);DCL I$FCD ENTRY(1)
              2685    1   CONV(2,5);DCL I$FOR ENTRY(1)CONV(2,5);DCL I$FCT ENTRY(1)CONV(2,5);DCL I$FCR ENTRY(1)
              2685            CONV(2,5);DCL I$FAS ENTRY(1)CONV(2,5);DCL I$FAA
              2686    1   ENTRY(1)CONV(2,5);DCL I$FRS ENTRY(1)CONV(2,5);DCL I$FRA ENTRY(1)CONV(2,5);DCL I$FDR
              2686            ENTRY(1)CONV(2,6);DCL I$FUI ENTRY(1)CONV(2,5);
              2687    1   DCL I$FRI ENTRY(1)CONV(2,5);DCL I$GET ENTRY(1)CONV(2,5);DCL I$GTF ENTRY(1)CONV(2,5);
              2687            DCL I$CHK ENTRY(1)CONV(2,3);DCL I$TRON ENTRY(1)
PL6.E3A0      #001=DB_FUNC_HIA File=ZIU$DBFC.:ZIC0TSI                            FRI 09/05/97 13:11 Page:11
              2688    1   CONV(2,1);DCL I$TROFF ENTRY(1)CONV(2,1);DCL I$STON ENTRY(0)CONV(2,0);DCL I$STOFF
              2688            ENTRY(0)CONV(2,0);DCL I$SHIN ENTRY(0)CONV(2,0);DCL
              2689    1   I$SHALL ENTRY(0)CONV(2,0);DCL I$SHNO ENTRY(0)CONV(2,0);DCL I$SHANY ENTRY(0)CONV(2,0)
              2689            ;DCL I$SHCUR ENTRY(0)CONV(2,0);DCL I$SHINCUR
              2690    1   ENTRY(0)CONV(2,0);DCL I$KEEP ENTRY(1)CONV(2,1);DCL I$REDUCEQ ENTRY(1)CONV(2,1);DCL
              2690            I$CRPT ENTRY(1)CONV(2,1);DCL I$RPT ENTRY(0)CONV
              2691    1   (2,0);DCL I$NBF ENTRY(1)CONV(2,2);DCL I$ETC ENTRY(1)CONV(2,5);DCL I$INA ENTRY(1)CONV
              2691            (2,5);DCL I$CALC ENTRY(1)CONV(2,6);
       19     2693        %IPT_HIA (IAN=IA,UWAN=UWA,RVAN=CAN_RVA,USEPN=USEP);
              2694        %SET STR=CONCAT(TEXTCHAR(STCLASS),'        ');
              2695        %IF(SUBSTR(STR,0,6)='STATIC')OR(SUBSTR(STR,0,8)='CONSTANT')OR(SUBSTR(STR,0,3)='EXT')
              2695            ;
              2696        %SET INIT=CHARTEXT('INIT');
              2697        %ELSE;
              2699        %ENDIF;
              2700    1   DCL 1 NAME STCLASS DALIGNED,2 V_ VECTOR %INIT(VECTOR(NIL))%CHARTEXT('/**/'),2 IA_
              2700            VECTOR %INIT(VECTOR(IAN))%CHARTEXT('/**/'),2 UWA_
              2701    1   VECTOR %INIT(VECTOR(UWAN))%CHARTEXT('/**/'),2 RVA_ VECTOR %INIT(VECTOR(RVAN))%
              2701            CHARTEXT('/**/'),2 USEP_ VECTOR %INIT(VECTOR(USEPN)
              2702    1   )%CHARTEXT('/**/');
       20     2704        /**/
       21     2705    1       IA.SCH=SCHNAM;
       22     2706            %CLIMB(FCN=HIA);
              2707        %IF %ASLFLAG=1;
              2708        %SET X=%CHARTEXT(CONCAT('I$',TEXTCHAR(FCN)));
              2709        %ELSE;
              2711        %ENDIF;
              2712        %IF %TEXTCHAR(PARAMS)='1';
              2713    1   CALL
              2714    1   %X(%CHARTEXT(CONCAT('IPT_',TEXTCHAR(FCN))));
              2715        %ELSE;
              2718        %ENDIF;
       23     2720    1       IF UWA.DB_STATUS ~= '00000' THEN ALTRETURN;
       24     2721    1   END DB_FUNC_HIA;
       25     2722        %EOD;

PL6.E3A0      #001=DB_FUNC_HIA File=ZIU$DBFC.:ZIC0TSI                            FRI 09/05/97 13:11 Page:12
--  Include file information  --

   ZI_DBCS.:ZIC0TOU  is referenced.
   ZI_RVA_C.:ZIC0TOU  is referenced.
   ZI_UWA_C.:ZIC0TOU  is referenced.
   B$JIT_C.:E05TOU  was found in the system file and is never referenced.
   CP_6_C.:E05TOU  was found in the system file and is never referenced.
      No diagnostics issued in procedure DB_FUNC_HIA.

   Procedure DB_FUNC_HIA requires 15 words for executable code.
   Procedure DB_FUNC_HIA requires 10 words of local(AUTO) storage.

PL6.E3A0      #001=DB_FUNC_HIA File=ZIU$DBFC.:ZIC0TSI                            FRI 09/05/97 13:11 Page:13

 Object Unit name= DB_FUNC_HIA                                File name= ZIU$DBFC.:ZIC0TOU
 UTS= SEP 05 '97 13:11:46.64 FRI                              Compiler= PL-6/E31         Sev=      00
 SharedLib= :SHARED_SYSTEM                                    Alt SharedLib=


    ****  Control sections  ****

 Sect   Type Bound  Init  Size OctSiz  Section name(segment info)
    0   Data  even  none    60     74  DB_FUNC_HIA
    1  RoData even  UTS      2      2  DB_FUNC_HIA
    2   Proc  even  none    15     17  DB_FUNC_HIA

    ****  Entry defs  ****

                              Check   Calling
                             calling  sequence
  Sect OctLoc Primary Altret sequence   type   Parms  Name
     2      0   yes    yes     yes      Std        1  DB_FUNC_HIA

  ****  Data defs  ****

 Sect OctLoc  Name                           Sect OctLoc  Name
    0      0  IA

  ****  Entry refs  ****

         Check        Calling
        calling       sequence
Altret sequence SRef   type   Args  Name
                       nStd      0 X66_AUTO_1
                       nStd      0 X66_AALT
                       nStd      0 X66_ARET
PL6.E3A0      #001=DB_FUNC_HIA File=ZIU$DBFC.:ZIC0TSI                            FRI 09/05/97 13:11 Page:14

  ****  Data refs  ****

  Flags:  r = read only, s = secondary
Flgs Name                             Flgs Name                             Flgs Name
     I$HIA                                 UWA                                   CAN_RVA

  ****  Segment refs  ****

  Flags:  r = read only, s = secondary
Flgs Name                             Flgs Name                             Flgs Name
     ISSID                                 NULLSID                               ASLENTSID
PL6.E3A0      #001=DB_FUNC_HIA File=ZIU$DBFC.:ZIC0TSI                            FRI 09/05/97 13:11 Page:15


        1        1        /*T***********************************************************/
        2        2        /*T*                                                         */
        3        3        /*T* Copyright (c) Bull HN Information Systems Inc., 1997    */
        4        4        /*T*                                                         */
        5        5        /*T***********************************************************/
        6        6        DB_FUNC_HIA: PROC(SCHNAM) ALTRET;

      6  2 000000   000000 700200 xent  DB_FUNC_HIA  TSX0  ! X66_AUTO_1
         2 000001   000012 000001                    ZERO    10,1

        7        7    1   DCL SCHNAM CHAR(30) ALIGNED;
        8        8        /**/
        9        9        %INCLUDE ZI_UWA_C;
       10      699        %ZI$UWAB;
       11     1039        %INCLUDE ZI_RVA_C;
       12     1720        %SET LISTMAC='1'B;
       13     1721        %CAN_RVA_REF;
              1722    1   DCL 1    CAN_RVA SYMREF DALIGNED,
              1723    1         2    NO_ENT_RV SBIN (18) UNAL,
              1724    1         2    *         SBIN (18) UNAL,
              1725    1         2 ACRA UNAL,
              1726    1           3 FIR     SBIN (18) UNAL,
              1727    1           3 SEC SBIN(18) UNAL,
              1728    1         2 ACCA UNAL,
              1729    1           3 FIR     SBIN (18) UNAL,
              1730    1           3 SEC SBIN(18) UNAL,
              1731    1         2 ASCA UNAL,
              1732    1           3 FIR     SBIN (18) UNAL,
              1733    1           3 SEC SBIN(18) UNAL,
              1734    1         2 ASPG UNAL,
              1735    1           3 FIR     SBIN (18) UNAL,
              1736    1           3 SEC SBIN(18) UNAL,
              1737    1         2 SNSI UNAL,
              1738    1           3 FIR     SBIN (18) UNAL,
              1739    1           3 SEC SBIN(18) UNAL,
              1740    1         2 ASSI UNAL,
PL6.E3A0      #001=DB_FUNC_HIA File=ZIU$DBFC.:ZIC0TSI                            FRI 09/05/97 13:11 Page:16
              1741    1           3 FIR     SBIN (18) UNAL,
              1742    1           3 SEC SBIN(18) UNAL,
              1743    1         2 ASAL UNAL,
              1744    1           3 FIR     SBIN (18) UNAL,
              1745    1           3 SEC SBIN(18) UNAL,
              1746    1         2 DALK UNAL,
              1747    1           3 FIR     SBIN (18) UNAL,
              1748    1           3 SEC SBIN(18) UNAL,
              1749    1         2 DAPN UNAL,
              1750    1           3 FIR     SBIN (18) UNAL,
              1751    1           3 SEC SBIN(18) UNAL,
              1752    1         2 DASN UNAL,
              1753    1           3 FIR     SBIN (18) UNAL,
              1754    1           3 SEC SBIN(18) UNAL,
              1755    1         2 FRCFR UNAL,
              1756    1           3 FIR     SBIN (18) UNAL,
              1757    1           3 SEC SBIN(18) UNAL,
              1758    1         2 FRCFS UNAL,
              1759    1           3 FIR     SBIN (18) UNAL,
              1760    1           3 SEC SBIN(18) UNAL,
              1761    1         2 LKLT UNAL,
              1762    1           3 FIR     SBIN (18) UNAL,
              1763    1           3 SEC SBIN(18) UNAL,
              1764    1         2 NRSNPT UNAL,
              1765    1           3 FIR     SBIN (18) UNAL,
              1766    1           3 SEC SBIN(18) UNAL,
              1767    1         2 SNTX UNAL,
              1768    1           3 FIR     SBIN (18) UNAL,
              1769    1           3 SEC SBIN(18) UNAL,
              1770    1         2 NRSE UNAL,
              1771    1           3 FIR     SBIN (18) UNAL,
              1772    1           3 SEC SBIN(18) UNAL,
              1773    1         2 OAAC UNAL,
              1774    1           3 FIR     SBIN (18) UNAL,
              1775    1           3 SEC SBIN(18) UNAL,
              1776    1         2 OARC UNAL,
              1777    1           3 FIR     SBIN (18) UNAL,
PL6.E3A0      #001=DB_FUNC_HIA File=ZIU$DBFC.:ZIC0TSI                            FRI 09/05/97 13:11 Page:17
              1778    1           3 SEC SBIN(18) UNAL,
              1779    1         2 OASC UNAL,
              1780    1           3 FIR     SBIN (18) UNAL,
              1781    1           3 SEC SBIN(18) UNAL,
              1782    1         2 PGVB UNAL,
              1783    1           3 FIR     SBIN (18) UNAL,
              1784    1           3 SEC SBIN(18) UNAL,
              1785    1         2 PNAG UNAL,
              1786    1           3 FIR     SBIN (18) UNAL,
              1787    1           3 SEC SBIN(18) UNAL,
              1788    1         2 PNNT UNAL,
              1789    1           3 FIR     SBIN (18) UNAL,
              1790    1           3 SEC SBIN(18) UNAL,
              1791    1         2 RCFR UNAL,
              1792    1           3 FIR     SBIN (18) UNAL,
              1793    1           3 SEC SBIN(18) UNAL,
              1794    1         2 RCRA UNAL,
              1795    1           3 FIR     SBIN (18) UNAL,
              1796    1           3 SEC SBIN(18) UNAL,
              1797    1         2 RCSOSM UNAL,
              1798    1           3 FIR     SBIN (18) UNAL,
              1799    1           3 SEC SBIN(18) UNAL,
              1800    1         2 SADD UNAL,
              1801    1           3 FIR     SBIN (18) UNAL,
              1802    1           3 SEC SBIN(18) UNAL,
              1803    1         2 SADM UNAL,
              1804    1           3 FIR     SBIN (18) UNAL,
              1805    1           3 SEC SBIN(18) UNAL,
              1806    1         2 SCSOSM UNAL,
              1807    1           3 FIR     SBIN (18) UNAL,
              1808    1           3 SEC SBIN(18) UNAL,
              1809    1         2 SFAD UNAL,
              1810    1           3 FIR     SBIN (18) UNAL,
              1811    1           3 SEC SBIN(18) UNAL,
              1812    1         2 SFAS UNAL,
              1813    1           3 FIR     SBIN (18) UNAL,
              1814    1           3 SEC SBIN(18) UNAL,
PL6.E3A0      #001=DB_FUNC_HIA File=ZIU$DBFC.:ZIC0TSI                            FRI 09/05/97 13:11 Page:18
              1815    1         2 SFCA UNAL,
              1816    1           3 FIR     SBIN (18) UNAL,
              1817    1           3 SEC SBIN(18) UNAL,
              1818    1         2 SIVB UNAL,
              1819    1           3 FIR     SBIN (18) UNAL,
              1820    1           3 SEC SBIN(18) UNAL,
              1821    1         2 SMSSCF UNAL,
              1822    1           3 FIR     SBIN (18) UNAL,
              1823    1           3 SEC SBIN(18) UNAL,
              1824    1         2 SMSS UNAL,
              1825    1           3 FIR     SBIN (18) UNAL,
              1826    1           3 SEC SBIN(18) UNAL,
              1827    1         2 SNNRPT UNAL,
              1828    1           3 FIR     SBIN (18) UNAL,
              1829    1           3 SEC SBIN(18) UNAL,
              1830    1         2 SNLT UNAL,
              1831    1           3 FIR     SBIN (18) UNAL,
              1832    1           3 SEC SBIN(18) UNAL,
              1833    1         2 SNNRCO UNAL,
              1834    1           3 FIR     SBIN (18) UNAL,
              1835    1           3 SEC SBIN(18) UNAL,
              1836    1         2 SNNRWU UNAL,
              1837    1           3 FIR     SBIN (18) UNAL,
              1838    1           3 SEC SBIN(18) UNAL,
              1839    1         2 SNSE UNAL,
              1840    1           3 FIR     SBIN (18) UNAL,
              1841    1           3 SEC SBIN(18) UNAL,
              1842    1         2 SSSMCF UNAL,
              1843    1           3 FIR     SBIN (18) UNAL,
              1844    1           3 SEC SBIN(18) UNAL,
              1845    1         2 TATOK UNAL,
              1846    1           3 FIR     SBIN (18) UNAL,
              1847    1           3 SEC SBIN(18) UNAL,
              1848    1         2 SFREC UNAL,
              1849    1           3 FIR       SBIN (18) UNAL,
              1850    1           3   SEC   SBIN (18) UNAL,
              1851    1         2 ASREC UNAL,
PL6.E3A0      #001=DB_FUNC_HIA File=ZIU$DBFC.:ZIC0TSI                            FRI 09/05/97 13:11 Page:19
              1852    1           3 FIR       SBIN (18) UNAL,
              1853    1           3   SEC   SBIN (18) UNAL,
              1854    1         2 PGREC UNAL,
              1855    1           3 FIR       SBIN (18) UNAL,
              1856    1           3   SEC   SBIN (18) UNAL,
              1857    1         2 CAREC UNAL,
              1858    1           3 FIR       SBIN (18) UNAL,
              1859    1           3   SEC   SBIN (18) UNAL,
              1860    1         2 SIREC UNAL,
              1861    1           3 FIR       SBIN (18) UNAL,
              1862    1           3   SEC   SBIN (18) UNAL,
              1863    1         2 ALREC UNAL,
              1864    1           3 FIR       SBIN (18) UNAL,
              1865    1           3   SEC   SBIN (18) UNAL,
              1866    1         2 VBREC UNAL,
              1867    1           3 FIR       SBIN (18) UNAL,
              1868    1           3   SEC   SBIN (18) UNAL,
              1869    1         2 ADREC UNAL,
              1870    1           3 FIR       SBIN (18) UNAL,
              1871    1           3   SEC   SBIN (18) UNAL,
              1872    1         2 OAREC UNAL,
              1873    1           3 FIR       SBIN (18) UNAL,
              1874    1           3   SEC   SBIN (18) UNAL,
              1875    1         2 ACREC UNAL,
              1876    1           3 FIR       SBIN (18) UNAL,
              1877    1           3   SEC   SBIN (18) UNAL,
              1878    1         2 RCREC UNAL,
              1879    1           3 FIR       SBIN (18) UNAL,
              1880    1           3   SEC   SBIN (18) UNAL,
              1881    1         2 SCREC UNAL,
              1882    1           3 FIR       SBIN (18) UNAL,
              1883    1           3   SEC   SBIN (18) UNAL,
              1884    1         2 RAREC UNAL,
              1885    1           3 FIR       SBIN (18) UNAL,
              1886    1           3   SEC   SBIN (18) UNAL,
              1887    1         2 FRREC UNAL,
              1888    1           3 FIR       SBIN (18) UNAL,
PL6.E3A0      #001=DB_FUNC_HIA File=ZIU$DBFC.:ZIC0TSI                            FRI 09/05/97 13:11 Page:20
              1889    1           3   SEC   SBIN (18) UNAL,
              1890    1         2 SOREC UNAL,
              1891    1           3 FIR       SBIN (18) UNAL,
              1892    1           3   SEC   SBIN (18) UNAL,
              1893    1         2 SMREC UNAL,
              1894    1           3 FIR       SBIN (18) UNAL,
              1895    1           3   SEC   SBIN (18) UNAL,
              1896    1         2 SSREC UNAL,
              1897    1           3 FIR       SBIN (18) UNAL,
              1898    1           3   SEC   SBIN (18) UNAL,
              1899    1         2 CFREC UNAL,
              1900    1           3 FIR       SBIN (18) UNAL,
              1901    1           3   SEC   SBIN (18) UNAL,
              1902    1         2 DAREC UNAL,
              1903    1           3 FIR       SBIN (18) UNAL,
              1904    1           3   SEC   SBIN (18) UNAL,
              1905    1         2 SNREC UNAL,
              1906    1           3 FIR       SBIN (18) UNAL,
              1907    1           3   SEC   SBIN (18) UNAL,
              1908    1         2 LKREC UNAL,
              1909    1           3 FIR       SBIN (18) UNAL,
              1910    1           3   SEC   SBIN (18) UNAL,
              1911    1         2 PNREC UNAL,
              1912    1           3 FIR       SBIN (18) UNAL,
              1913    1           3   SEC   SBIN (18) UNAL,
              1914    1         2 NRREC UNAL,
              1915    1           3 FIR       SBIN (18) UNAL,
              1916    1           3   SEC   SBIN (18) UNAL,
              1917    1         2 LTREC UNAL,
              1918    1           3 FIR       SBIN (18) UNAL,
              1919    1           3   SEC   SBIN (18) UNAL,
              1920    1         2 PTREC UNAL,
              1921    1           3 FIR       SBIN (18) UNAL,
              1922    1           3   SEC   SBIN (18) UNAL,
              1923    1         2 AGREC UNAL,
              1924    1           3 FIR       SBIN (18) UNAL,
              1925    1           3   SEC   SBIN (18) UNAL,
PL6.E3A0      #001=DB_FUNC_HIA File=ZIU$DBFC.:ZIC0TSI                            FRI 09/05/97 13:11 Page:21
              1926    1         2  TXREC UNAL,
              1927    1           3 FIR       SBIN (18) UNAL,
              1928    1           3   SEC   SBIN (18) UNAL,
              1929    1         2 SAREC UNAL,
              1930    1           3 FIR       SBIN (18) UNAL,
              1931    1           3   SEC   SBIN (18) UNAL,
              1932    1         2 DDREC UNAL,
              1933    1           3 FIR       SBIN (18) UNAL,
              1934    1           3   SEC   SBIN (18) UNAL,
              1935    1         2 DMREC UNAL,
              1936    1           3 FIR       SBIN (18) UNAL,
              1937    1           3   SEC   SBIN (18) UNAL,
              1938    1         2 DBPREC UNAL,
              1939    1           3 FIR       SBIN (18) UNAL,
              1940    1           3   SEC   SBIN (18) UNAL,
              1941    1         2 OSEREC UNAL,
              1942    1           3 FIR       SBIN (18) UNAL,
              1943    1           3   SEC   SBIN (18) UNAL,
              1944    1         2 OSNREC UNAL,
              1945    1           3 FIR       SBIN (18) UNAL,
              1946    1           3   SEC   SBIN (18) UNAL,
              1947    1         2 TAREC UNAL,
              1948    1           3 FIR       SBIN (18) UNAL,
              1949    1           3   SEC   SBIN (18) UNAL,
              1950    1         2 TOKREC UNAL,
              1951    1           3 FIR       SBIN (18) UNAL,
              1952    1           3   SEC   SBIN (18) UNAL,
              1953    1         2 VOAREC UNAL,
              1954    1           3 FIR       SBIN (18) UNAL,
              1955    1           3   SEC   SBIN (18) UNAL,
              1956    1         2 VACREC UNAL,
              1957    1           3 FIR       SBIN (18) UNAL,
              1958    1           3   SEC   SBIN (18) UNAL,
              1959    1         2 VRAREC UNAL,
              1960    1           3 FIR       SBIN (18) UNAL,
              1961    1           3   SEC   SBIN (18) UNAL,
              1962    1         2 VRCREC UNAL,
PL6.E3A0      #001=DB_FUNC_HIA File=ZIU$DBFC.:ZIC0TSI                            FRI 09/05/97 13:11 Page:22
              1963    1           3 FIR       SBIN (18) UNAL,
              1964    1           3   SEC   SBIN (18) UNAL,
              1965    1         2 VFRREC UNAL,
              1966    1           3 FIR       SBIN (18) UNAL,
              1967    1           3   SEC   SBIN (18) UNAL,
              1968    1         2 VSCREC UNAL,
              1969    1           3 FIR       SBIN (18) UNAL,
              1970    1           3   SEC   SBIN (18) UNAL,
              1971    1         2 VSOREC UNAL,
              1972    1           3 FIR       SBIN (18) UNAL,
              1973    1           3   SEC   SBIN (18) UNAL,
              1974    1         2 VSMREC UNAL,
              1975    1           3 FIR       SBIN (18) UNAL,
              1976    1           3   SEC   SBIN (18) UNAL,
              1977    1         2 VSSREC UNAL,
              1978    1           3 FIR       SBIN (18) UNAL,
              1979    1           3   SEC   SBIN (18) UNAL,
              1980    1         2 VCFREC UNAL,
              1981    1           3 FIR       SBIN (18) UNAL,
              1982    1           3   SEC   SBIN (18) UNAL,
              1983    1         2 VDAREC UNAL,
              1984    1           3 FIR       SBIN (18) UNAL,
              1985    1           3   SEC   SBIN (18) UNAL,
              1986    1         2 VSNREC UNAL,
              1987    1           3 FIR       SBIN (18) UNAL,
              1988    1           3   SEC   SBIN (18) UNAL,
              1989    1         2 VNRREC UNAL,
              1990    1           3 FIR       SBIN (18) UNAL,
              1991    1           3   SEC   SBIN (18) UNAL,
              1992    1         2 VLKREC UNAL,
              1993    1           3 FIR       SBIN (18) UNAL,
              1994    1           3   SEC   SBIN (18) UNAL,
              1995    1         2 VLTREC UNAL,
              1996    1           3 FIR       SBIN (18) UNAL,
              1997    1           3   SEC   SBIN (18) UNAL,
              1998    1         2 VPNREC UNAL,
              1999    1           3 FIR       SBIN (18) UNAL,
PL6.E3A0      #001=DB_FUNC_HIA File=ZIU$DBFC.:ZIC0TSI                            FRI 09/05/97 13:11 Page:23
              2000    1           3   SEC   SBIN (18) UNAL,
              2001    1         2 VPTREC UNAL,
              2002    1           3 FIR       SBIN (18) UNAL,
              2003    1           3   SEC   SBIN (18) UNAL,
              2004    1         2 VAGREC UNAL,
              2005    1           3 FIR       SBIN (18) UNAL,
              2006    1           3   SEC   SBIN (18) UNAL,
              2007    1         2 VTAREC UNAL,
              2008    1           3 FIR       SBIN (18) UNAL,
              2009    1           3   SEC   SBIN (18) UNAL,
              2010    1         2 VLMREC UNAL,
              2011    1           3 FIR       SBIN (18) UNAL,
              2012    1           3   SEC   SBIN (18) UNAL,
              2013    1         2 VMKREC UNAL,
              2014    1           3 FIR       SBIN (18) UNAL,
              2015    1           3   SEC   SBIN (18) UNAL,
              2016    1         2 VMDREC UNAL,
              2017    1           3 FIR       SBIN (18) UNAL,
              2018    1           3   SEC   SBIN (18) UNAL,
              2019    1         2 VKNREC UNAL,
              2020    1           3 FIR       SBIN (18) UNAL,
              2021    1           3   SEC   SBIN (18) UNAL,
              2022    1         2 VWIREC UNAL,
              2023    1           3 FIR       SBIN (18) UNAL,
              2024    1           3   SEC   SBIN (18) UNAL,
              2025    1         2 VSPREC UNAL,
              2026    1           3 FIR       SBIN (18) UNAL,
              2027    1           3   SEC   SBIN (18) UNAL,
              2028    1         2 VT2REC UNAL,
              2029    1           3 FIR       SBIN (18) UNAL,
              2030    1           3   SEC   SBIN (18) UNAL,
              2031    1         2 VCTKREC UNAL,
              2032    1           3 FIR       SBIN (18) UNAL,
              2033    1           3   SEC   SBIN (18) UNAL,
              2034    1         2 NULL UNAL,
              2035    1           3 FIR       SBIN (18) UNAL,
              2036    1           3 SEC      SBIN (18) UNAL,
PL6.E3A0      #001=DB_FUNC_HIA File=ZIU$DBFC.:ZIC0TSI                            FRI 09/05/97 13:11 Page:24
              2037    1         2 *       SBIN (18) UNAL,
              2038    1         2 THISISATHIRTYCHARACTERDATANAME SBIN (18) UNAL;
       14     2040        %IA_MAC;
              2041    1   DCL 1 IA STATIC SYMDEF DALIGNED,
              2042    1         2 WORD1 SBIN (36) INIT (0) UNAL,
              2043    1         2 UWA   PTR       INIT (ADDR(UWA)) UNAL,
              2044    1         2 WRD6 (0:5) BIT (36)  UNAL,
              2045    1         2 RVA   PTR       INIT (ADDR(CAN_RVA)) UNAL,
              2046    1         2 WORD9 SBIN (36) INIT (0) UNAL,
              2047    1         2 SCH CHAR (32) UNAL,
              2048    1         2 UTL CHAR (32) INIT ('SUB4') UNAL,
              2049    1         2 WRD20 (0:19) SBIN (36) INIT (0*17) UNAL;
       15     2051        %DB_MAC;
              2052    1   DCL RC_OFF SBIN(18) ALIGNED;
              2053    1   DCL SC_OFF SBIN(18) ALIGNED;
              2054    1   DCL DB_DBK UBIN(36) ALIGNED;
              2055    1   DCL RET_NUM UBIN(36) ALIGNED;
              2056    1   DCL RET_SET UBIN(36) ALIGNED;
       16     2058        %USEP_MAC;
              2059    1   DCL 1 USEP  STATIC  DALIGNED,
              2060    1         2 COUNT UBIN (18) UNAL INIT (1),
              2061    1         2 *   UBIN (18) UNAL INIT (0),
              2062    1         2 TYPE_CODE UBIN (9) UNAL INIT (3),
              2063    1         2 STATE_CODE UBIN (27) UNAL INIT (4000000),
              2064    1         2 *   UBIN (36) UNAL INIT (0);
       17     2066        %INCLUDE ZI_DBCS;
       18     2679        %ASL;
              2680        %EQU ASLFLAG=1;
              2681    1  DCL I$ROL ENTRY(1)CONV(2,2);DCL I$HIA ENTRY(1)CONV(2,5);DCL I$RDY ENTRY(1)CONV(2,5);
              2681            DCL I$FIN ENTRY(1)CONV(2,5);DCL I$STO ENTRY(1)
              2682    1  CONV(2,5);DCL I$ERS ENTRY(1)CONV(2,5);DCL I$MOD ENTRY(1)CONV(2,5);DCL I$CON ENTRY(1)
              2682            CONV(2,5);DCL I$DIS ENTRY(1)CONV(2,5);DCL I$ACN
              2683    1   ENTRY(1)CONV(2,7);DCL I$ACC ENTRY(1)CONV(2,6);DCL I$IFT ENTRY(1)CONV(2,5);DCL I$IST
              2683            ENTRY(1)CONV(2,5);DCL I$IFM ENTRY(1)CONV(2,5);
              2684    1  DCL I$FKY ENTRY(1)CONV(2,5);DCL I$FKC ENTRY(1)CONV(2,5);DCL I$FDP ENTRY(1)CONV(2,5);
              2684            DCL I$FDC ENTRY(1)CONV(2,5);DCL I$FCD ENTRY(1)
              2685    1  CONV(2,5);DCL I$FOR ENTRY(1)CONV(2,5);DCL I$FCT ENTRY(1)CONV(2,5);DCL I$FCR ENTRY(1)
PL6.E3A0      #001=DB_FUNC_HIA File=ZIU$DBFC.:ZIC0TSI                            FRI 09/05/97 13:11 Page:25
              2685            CONV(2,5);DCL I$FAS ENTRY(1)CONV(2,5);DCL I$FAA
              2686    1   ENTRY(1)CONV(2,5);DCL I$FRS ENTRY(1)CONV(2,5);DCL I$FRA ENTRY(1)CONV(2,5);DCL I$FDR
              2686            ENTRY(1)CONV(2,6);DCL I$FUI ENTRY(1)CONV(2,5);
              2687    1  DCL I$FRI ENTRY(1)CONV(2,5);DCL I$GET ENTRY(1)CONV(2,5);DCL I$GTF ENTRY(1)CONV(2,5);
              2687            DCL I$CHK ENTRY(1)CONV(2,3);DCL I$TRON ENTRY(1)
              2688    1   CONV(2,1);DCL I$TROFF ENTRY(1)CONV(2,1);DCL I$STON ENTRY(0)CONV(2,0);DCL I$STOFF
              2688            ENTRY(0)CONV(2,0);DCL I$SHIN ENTRY(0)CONV(2,0);DCL
              2689    1  I$SHALL ENTRY(0)CONV(2,0);DCL I$SHNO ENTRY(0)CONV(2,0);DCL I$SHANY ENTRY(0)CONV(2,0)
              2689            ;DCL I$SHCUR ENTRY(0)CONV(2,0);DCL I$SHINCUR
              2690    1   ENTRY(0)CONV(2,0);DCL I$KEEP ENTRY(1)CONV(2,1);DCL I$REDUCEQ ENTRY(1)CONV(2,1);DCL
              2690            I$CRPT ENTRY(1)CONV(2,1);DCL I$RPT ENTRY(0)CONV
              2691    1  (2,0);DCL I$NBF ENTRY(1)CONV(2,2);DCL I$ETC ENTRY(1)CONV(2,5);DCL I$INA ENTRY(1)CONV
              2691            (2,5);DCL I$CALC ENTRY(1)CONV(2,6);
       19     2693        %IPT_HIA (IAN=IA,UWAN=UWA,RVAN=CAN_RVA,USEPN=USEP);
              2694        %SET STR=CONCAT(TEXTCHAR(STCLASS),'        ');
              2695       %IF(SUBSTR(STR,0,6)='STATIC')OR(SUBSTR(STR,0,8)='CONSTANT')OR(SUBSTR(STR,0,3)='EXT')
              2695            ;
              2696        %SET INIT=CHARTEXT('INIT');
              2697        %ELSE;
              2699        %ENDIF;
              2700    1   DCL 1 NAME STCLASS DALIGNED,2 V_ VECTOR %INIT(VECTOR(NIL))%CHARTEXT('/**/'),2 IA_
              2700            VECTOR %INIT(VECTOR(IAN))%CHARTEXT('/**/'),2 UWA_
              2701    1   VECTOR %INIT(VECTOR(UWAN))%CHARTEXT('/**/'),2 RVA_ VECTOR %INIT(VECTOR(RVAN))%
              2701            CHARTEXT('/**/'),2 USEP_ VECTOR %INIT(VECTOR(USEPN)
              2702    1   )%CHARTEXT('/**/');
       20     2704        /**/
       21     2705    1       IA.SCH=SCHNAM;

   2705  2 000002   200003 470500                    LDP0    @SCHNAM,,AUTO
         2 000003   040000 100500                    MLR     fill='040'O
         2 000004   000000 000036                    ADSC9   0,,PR0                   cn=0,n=30
         2 000005   000012 000040 0                  ADSC9   IA+10                    cn=0,n=32

       22     2706            %CLIMB(FCN=HIA);
              2707        %IF %ASLFLAG=1;
              2708        %SET X=%CHARTEXT(CONCAT('I$',TEXTCHAR(FCN)));
              2709        %ELSE;
PL6.E3A0      #001=DB_FUNC_HIA File=ZIU$DBFC.:ZIC0TSI                            FRI 09/05/97 13:11 Page:26
              2711        %ENDIF;
              2712        %IF %TEXTCHAR(PARAMS)='1';
              2713    1   CALL
              2714    1   %X(%CHARTEXT(CONCAT('IPT_',TEXTCHAR(FCN))));

   2714  2 000006   000062 630400 0                  EPPR0   IPT_HIA
         2 000007   000000 713400 xsym               CLIMB   I$HIA
         2 000010   402000 600000 xsid               climb   nvectors=         5

              2715        %ELSE;
              2718        %ENDIF;
       23     2720    1       IF UWA.DB_STATUS ~= '00000' THEN ALTRETURN;

   2720  2 000011   040000 106400                    CMPC    fill='040'O
         2 000012   000001 400005 xsym               ADSC9   UWA+1                    cn=2,n=5
         2 000013   000000 000005 1                  ADSC9   0                        cn=0,n=5
         2 000014   000016 600000 2                  TZE     s:2721

   2720  2 000015   000000 702200 xent               TSX2  ! X66_AALT

       24     2721    1   END DB_FUNC_HIA;

   2721  2 000016   000000 702200 xent               TSX2  ! X66_ARET

IA
 Sect OctLoc
   0     000   000000 000000   000000 006000   ****** ******   ****** ******    ................
   0     010*  000000 006000   000000 000000   ****** ******   ****** ******    ................
   0     020*  ****** ******   ****** ******   123125 102064   040040 040040    ........SUB4
   0     024   040040 040040   040040 040040   040040 040040   040040 040040
   0     030   040040 040040   040040 040040   000000 000000   000000 000000            ........
   0     034   000000 000000   000000 000000   000000 000000   000000 000000    ................
   0     050*  000000 000000   000000 000000   000000 000000   ****** ******    ................
   0     054   ****** ******   ****** ******                                    ........

USEP
 Sect OctLoc
PL6.E3A0      #001=DB_FUNC_HIA File=ZIU$DBFC.:ZIC0TSI                            FRI 09/05/97 13:11 Page:27
   0     056   000001 000000   003017 204400   000000 000000                    ............

IPT_HIA
 Sect OctLoc
   0     062   000000 177640   000000 006014   000055 777640   000000 006000    .........-......
   0     066   001217 777640   000000 006000   000151 777640   000000 006000    .........i......
   0     072   000003 777640   000056 006000                                    ........

(unnamed)
 Sect OctLoc
   1     000   060060 060060   060040 040040                                    00000
       25     2722        %EOD;

PL6.E3A0      #001=DB_FUNC_HIA File=ZIU$DBFC.:ZIC0TSI                            FRI 09/05/97 13:11 Page:28
--  Include file information  --

   ZI_DBCS.:ZIC0TOU  is referenced.
   ZI_RVA_C.:ZIC0TOU  is referenced.
   ZI_UWA_C.:ZIC0TOU  is referenced.
   B$JIT_C.:E05TOU  was found in the system file and is never referenced.
   CP_6_C.:E05TOU  was found in the system file and is never referenced.
      No diagnostics issued in procedure DB_FUNC_HIA.

   Procedure DB_FUNC_HIA requires 15 words for executable code.
   Procedure DB_FUNC_HIA requires 10 words of local(AUTO) storage.
PL6.E3A0      #001=DB_FUNC_HIA File=ZIU$DBFC.:ZIC0TSI                            FRI 09/05/97 13:11 Page:29
          *** CROSS REFERENCE LISTING ***
**     DENOTES     IDENTIFIER DEFINITION
<<                 IDENTIFIER'S VALUE SET
>>                 IDENTIFIER'S VALUE USED
<>                 IDENTIFIER SET AND/OR USED
--                 IDENTIFIER REFERENCED
PL6.E3A0      #001=DB_FUNC_HIA File=ZIU$DBFC.:ZIC0TSI                            FRI 09/05/97 13:11 Page:30
          MINI XREF LISTING

CAN_RVA
      1722**DCL      2045--DCLINIT  2701--DCLINIT
I$HIA
      2681**DCL-ENT  2714--CALL
IA
      2041**DCL      2700--DCLINIT
IA.SCH
      2047**DCL      2705<<ASSIGN
IPT_HIA
      2700**DCL      2714<>CALL
SCHNAM
         7**DCL         6--PROC     2705>>ASSIGN
USEP
      2059**DCL      2701--DCLINIT
UWA
       700**DCL      2043--DCLINIT  2701--DCLINIT
UWA.AC_REC.CALC_NEXT
       815**DCL       816--REDEF
UWA.AC_REC.CALC_PRIOR
       824**DCL       825--REDEF
UWA.AC_REC.DEFAULTS
       773**DCL       774--REDEF
UWA.AC_REC.FILE_CODE
       778**DCL       779--REDEF
UWA.AC_REC.FLAG1.ERROR_TYPE
       775**DCL       776--REDEF
UWA.AC_REC.PG_TYPE
       790**DCL       791--REDEF
UWA.AD_REC.ADDATE
       755**DCL       756--REDEF
UWA.DB_STATUS
       703**DCL      2720>>IF

PL6.E3A0      #002=DB_FUNC_READY File=ZIU$DBFC.:ZIC0TSI                          FRI 09/05/97 13:11 Page:31
       26        1        /*T***********************************************************/
       27        2        /*T*                                                         */
       28        3        /*T* Copyright (c) Bull HN Information Systems Inc., 1997    */
       29        4        /*T*                                                         */
       30        5        /*T***********************************************************/
       31        6        DB_FUNC_READY: PROC ALTRET;
       32        7        /**/
       33        8        %INCLUDE ZI_UWA_C;
       34      698        %ZI$UWAB;
       35     1038        %INCLUDE ZI_RVA_C;
       36     1719        %CAN_RVA_REF;
       37     2038        %IA$MAC;
       38     2049        %DB_MAC;
       39     2056        %USEP_MAC;
       40     2064        %INCLUDE ZI_DBCS;
       41     2677        %ASL;
       42     2691        %IPT_RDY (IAN=IA,UWAN=UWA,RVAN=CAN_RVA,USEPN=USEP,READY_OPTION=INPUT);
       43     2705        /**/
       44     2706         %CLIMB(FCN=RDY);
       45     2720    1       IF UWA.DB_STATUS ~= '00000' THEN ALTRETURN;
       46     2721    1   END DB_FUNC_READY;
       47     2722        %EOD;

PL6.E3A0      #002=DB_FUNC_READY File=ZIU$DBFC.:ZIC0TSI                          FRI 09/05/97 13:11 Page:32
--  Include file information  --

   ZI_DBCS.:ZIC0TOU  is referenced.
   ZI_RVA_C.:ZIC0TOU  is referenced.
   ZI_UWA_C.:ZIC0TOU  is referenced.
   B$JIT_C.:E05TOU  was found in the system file and is never referenced.
   CP_6_C.:E05TOU  was found in the system file and is never referenced.
      No diagnostics issued in procedure DB_FUNC_READY.

   Procedure DB_FUNC_READY requires 11 words for executable code.
   Procedure DB_FUNC_READY requires 8 words of local(AUTO) storage.

PL6.E3A0      #002=DB_FUNC_READY File=ZIU$DBFC.:ZIC0TSI                          FRI 09/05/97 13:11 Page:33

 Object Unit name= DB_FUNC_READY                              File name= ZIU$DBFC.:ZIC0TOU
 UTS= SEP 05 '97 13:11:55.68 FRI                              Compiler= PL-6/E31         Sev=      00
 SharedLib= :SHARED_SYSTEM                                    Alt SharedLib=


    ****  Control sections  ****

 Sect   Type Bound  Init  Size OctSiz  Section name(segment info)
    0   Data  even  none    16     20  DB_FUNC_READY
    1  RoData even  UTS      2      2  DB_FUNC_READY
    2   Proc  even  none    11     13  DB_FUNC_READY

    ****  Entry defs  ****

                              Check   Calling
                             calling  sequence
  Sect OctLoc Primary Altret sequence   type   Parms  Name
     2      0   yes    yes     yes      Std        0  DB_FUNC_READY

  ****  Entry refs  ****

         Check        Calling
        calling       sequence
Altret sequence SRef   type   Args  Name
                       nStd      0 X66_AUTO_0
                       nStd      0 X66_AALT
                       nStd      0 X66_ARET

  ****  Data refs  ****

  Flags:  r = read only, s = secondary
Flgs Name                             Flgs Name                             Flgs Name
     I$RDY                                 UWA                                   CAN_RVA
     IA
PL6.E3A0      #002=DB_FUNC_READY File=ZIU$DBFC.:ZIC0TSI                          FRI 09/05/97 13:11 Page:34

  ****  Segment refs  ****

  Flags:  r = read only, s = secondary
Flgs Name                             Flgs Name                             Flgs Name
     ISSID                                 ASLENTSID
PL6.E3A0      #002=DB_FUNC_READY File=ZIU$DBFC.:ZIC0TSI                          FRI 09/05/97 13:11 Page:35


       26        1        /*T***********************************************************/
       27        2        /*T*                                                         */
       28        3        /*T* Copyright (c) Bull HN Information Systems Inc., 1997    */
       29        4        /*T*                                                         */
       30        5        /*T***********************************************************/
       31        6        DB_FUNC_READY: PROC ALTRET;

      6  2 000000   000000 700200 xent  DB_FUNC_REA* TSX0  ! X66_AUTO_0
         2 000001   000010 000000                    ZERO    8,0

       32        7        /**/
       33        8        %INCLUDE ZI_UWA_C;
       34      698        %ZI$UWAB;
       35     1038        %INCLUDE ZI_RVA_C;
       36     1719        %CAN_RVA_REF;
       37     2038        %IA$MAC;
       38     2049        %DB_MAC;
       39     2056        %USEP_MAC;
       40     2064        %INCLUDE ZI_DBCS;
       41     2677        %ASL;
       42     2691        %IPT_RDY (IAN=IA,UWAN=UWA,RVAN=CAN_RVA,USEPN=USEP,READY_OPTION=INPUT);
       43     2705        /**/
       44     2706         %CLIMB(FCN=RDY);

   2714  2 000002   000004 630400 0                  EPPR0   IPT_RDY
         2 000003   000000 713400 xsym               CLIMB   I$RDY
         2 000004   402000 600000 xsid               climb   nvectors=         5

       45     2720    1       IF UWA.DB_STATUS ~= '00000' THEN ALTRETURN;

   2720  2 000005   040000 106400                    CMPC    fill='040'O
         2 000006   000001 400005 xsym               ADSC9   UWA+1                    cn=2,n=5
         2 000007   000000 000005 1                  ADSC9   0                        cn=0,n=5
         2 000010   000012 600000 2                  TZE     s:2721

   2720  2 000011   000000 702200 xent               TSX2  ! X66_AALT
PL6.E3A0      #002=DB_FUNC_READY File=ZIU$DBFC.:ZIC0TSI                          FRI 09/05/97 13:11 Page:36

       46     2721    1   END DB_FUNC_READY;

   2721  2 000012   000000 702200 xent               TSX2  ! X66_ARET

USEP
 Sect OctLoc
   0     000   000001 000000   003017 204400   000000 000000                    ............

IPT_RDY
 Sect OctLoc
   0     004   000001 777640   000016 006000   000055 777640   000000 006000    .........-......
   0     010   001217 777640   000000 006000   000151 777640   000000 006000    .........i......
   0     014   000003 777640   000000 006000   000020 000000   000000 000000    ................

(unnamed)
 Sect OctLoc
   1     000   060060 060060   060040 040040                                    00000
       47     2722        %EOD;

PL6.E3A0      #002=DB_FUNC_READY File=ZIU$DBFC.:ZIC0TSI                          FRI 09/05/97 13:11 Page:37
--  Include file information  --

   ZI_DBCS.:ZIC0TOU  is referenced.
   ZI_RVA_C.:ZIC0TOU  is referenced.
   ZI_UWA_C.:ZIC0TOU  is referenced.
   B$JIT_C.:E05TOU  was found in the system file and is never referenced.
   CP_6_C.:E05TOU  was found in the system file and is never referenced.
      No diagnostics issued in procedure DB_FUNC_READY.

   Procedure DB_FUNC_READY requires 11 words for executable code.
   Procedure DB_FUNC_READY requires 8 words of local(AUTO) storage.
PL6.E3A0      #002=DB_FUNC_READY File=ZIU$DBFC.:ZIC0TSI                          FRI 09/05/97 13:11 Page:38
          *** CROSS REFERENCE LISTING ***
**     DENOTES     IDENTIFIER DEFINITION
<<                 IDENTIFIER'S VALUE SET
>>                 IDENTIFIER'S VALUE USED
<>                 IDENTIFIER SET AND/OR USED
--                 IDENTIFIER REFERENCED
PL6.E3A0      #002=DB_FUNC_READY File=ZIU$DBFC.:ZIC0TSI                          FRI 09/05/97 13:11 Page:39
          MINI XREF LISTING

CAN_RVA
      1720**DCL      2699--DCLINIT
I$RDY
      2679**DCL-ENT  2714--CALL
IA
      2039**DCL      2698--DCLINIT
IPT_RDY
      2698**DCL      2714<>CALL
IPT_RDY.V
      2700**DCL      2698--DCLINIT
USEP
      2057**DCL      2699--DCLINIT
UWA
       699**DCL      2699--DCLINIT
UWA.AC_REC.CALC_NEXT
       814**DCL       815--REDEF
UWA.AC_REC.CALC_PRIOR
       823**DCL       824--REDEF
UWA.AC_REC.DEFAULTS
       772**DCL       773--REDEF
UWA.AC_REC.FILE_CODE
       777**DCL       778--REDEF
UWA.AC_REC.FLAG1.ERROR_TYPE
       774**DCL       775--REDEF
UWA.AC_REC.PG_TYPE
       789**DCL       790--REDEF
UWA.AD_REC.ADDATE
       754**DCL       755--REDEF
UWA.DB_STATUS
       702**DCL      2720>>IF

PL6.E3A0      #003=DB_FUNC_FDR File=ZIU$DBFC.:ZIC0TSI                            FRI 09/05/97 13:12 Page:40
       48        1        /*T***********************************************************/
       49        2        /*T*                                                         */
       50        3        /*T* Copyright (c) Bull HN Information Systems Inc., 1997    */
       51        4        /*T*                                                         */
       52        5        /*T***********************************************************/
       53        6        DB_FUNC_FDR: PROC(RC_OFF,DB_DBK) ALTRET;
       54        7        /**/
       55        8        %INCLUDE ZI_UWA_C;
       56      698        %ZI$UWAB;
       57     1038        %INCLUDE ZI_RVA_C;
       58     1719        %CAN_RVA_REF;
       59     2038        %IA$MAC;
       60     2049        %DB_MAC;
       61     2056        %USEP_MAC;
       62     2064        %INCLUDE ZI_DBCS;
       63     2677        %ASL;
       64     2691        %IPT_FDR (IAN=IA,UWAN=UWA,RVAN=CAN_RVA,USEPN=USEP);
       65     2707        /**/
       66     2708    1       IPT_FDR.V.RC.RC_OFFSET#=POFFW(ADDR(RC_OFF),ADDR(CAN_RVA));
       67     2709    1       IPT_FDR.DBK_=VECTOR(DB_DBK);
       68     2710            %CLIMB(FCN=FDR);
       69     2724    1       IF UWA.DB_STATUS ~= '00000' THEN ALTRETURN;
       70     2725    1   END DB_FUNC_FDR;
       71     2726        %EOD;

PL6.E3A0      #003=DB_FUNC_FDR File=ZIU$DBFC.:ZIC0TSI                            FRI 09/05/97 13:12 Page:41
--  Include file information  --

   ZI_DBCS.:ZIC0TOU  is referenced.
   ZI_RVA_C.:ZIC0TOU  is referenced.
   ZI_UWA_C.:ZIC0TOU  is referenced.
   B$JIT_C.:E05TOU  was found in the system file and is never referenced.
   CP_6_C.:E05TOU  was found in the system file and is never referenced.
      No diagnostics issued in procedure DB_FUNC_FDR.

   Procedure DB_FUNC_FDR requires 22 words for executable code.
   Procedure DB_FUNC_FDR requires 10 words of local(AUTO) storage.

PL6.E3A0      #003=DB_FUNC_FDR File=ZIU$DBFC.:ZIC0TSI                            FRI 09/05/97 13:12 Page:42

 Object Unit name= DB_FUNC_FDR                                File name= ZIU$DBFC.:ZIC0TOU
 UTS= SEP 05 '97 13:12:02.20 FRI                              Compiler= PL-6/E31         Sev=      00
 SharedLib= :SHARED_SYSTEM                                    Alt SharedLib=


    ****  Control sections  ****

 Sect   Type Bound  Init  Size OctSiz  Section name(segment info)
    0   Data  even  none    20     24  DB_FUNC_FDR
    1  RoData even  UTS      2      2  DB_FUNC_FDR
    2   Proc  even  none    22     26  DB_FUNC_FDR
    3  RoData even  none     1      1  DB_FUNC_FDR

    ****  Entry defs  ****

                              Check   Calling
                             calling  sequence
  Sect OctLoc Primary Altret sequence   type   Parms  Name
     2      0   yes    yes     yes      Std        2  DB_FUNC_FDR

  ****  Entry refs  ****

         Check        Calling
        calling       sequence
Altret sequence SRef   type   Args  Name
                       nStd      0 X66_AUTO_2
                       nStd      0 X66_AALT
                       nStd      0 X66_ARET

  ****  Data refs  ****

  Flags:  r = read only, s = secondary
Flgs Name                             Flgs Name                             Flgs Name
     I$FDR                                 UWA                                   CAN_RVA
     IA
PL6.E3A0      #003=DB_FUNC_FDR File=ZIU$DBFC.:ZIC0TSI                            FRI 09/05/97 13:12 Page:43

  ****  Segment refs  ****

  Flags:  r = read only, s = secondary
Flgs Name                             Flgs Name                             Flgs Name
     ISSID                                 NULLSID                               ASLENTSID
PL6.E3A0      #003=DB_FUNC_FDR File=ZIU$DBFC.:ZIC0TSI                            FRI 09/05/97 13:12 Page:44


       48        1        /*T***********************************************************/
       49        2        /*T*                                                         */
       50        3        /*T* Copyright (c) Bull HN Information Systems Inc., 1997    */
       51        4        /*T*                                                         */
       52        5        /*T***********************************************************/
       53        6        DB_FUNC_FDR: PROC(RC_OFF,DB_DBK) ALTRET;

      6  2 000000   000000 700200 xent  DB_FUNC_FDR  TSX0  ! X66_AUTO_2
         2 000001   000012 000002                    ZERO    10,2

       54        7        /**/
       55        8        %INCLUDE ZI_UWA_C;
       56      698        %ZI$UWAB;
       57     1038        %INCLUDE ZI_RVA_C;
       58     1719        %CAN_RVA_REF;
       59     2038        %IA$MAC;
       60     2049        %DB_MAC;
       61     2056        %USEP_MAC;
       62     2064        %INCLUDE ZI_DBCS;
       63     2677        %ASL;
       64     2691        %IPT_FDR (IAN=IA,UWAN=UWA,RVAN=CAN_RVA,USEPN=USEP);
       65     2707        /**/
       66     2708    1       IPT_FDR.V.RC.RC_OFFSET#=POFFW(ADDR(RC_OFF),ADDR(CAN_RVA));

   2708  2 000002   000000 236000 3                  LDQ     0
         2 000003   000022 772000                    QRL     18
         2 000004   200010 756100                    STQ     RET_SET+1,,AUTO
         2 000005   200003 236100                    LDQ     @RC_OFF,,AUTO
         2 000006   000022 772000                    QRL     18
         2 000007   200010 136100                    SBLQ    RET_SET+1,,AUTO
         2 000010   000000 620006                    EAX0    0,QL
         2 000011   000020 740000 0                  STX0    IPT_FDR+12

       67     2709    1       IPT_FDR.DBK_=VECTOR(DB_DBK);

   2709  2 000012   777640 235007                    LDA     -96,DL
PL6.E3A0      #003=DB_FUNC_FDR File=ZIU$DBFC.:ZIC0TSI                            FRI 09/05/97 13:12 Page:45
         2 000013   200004 236100                    LDQ     @DB_DBK,,AUTO
         2 000014   000016 757000 0                  STAQ    IPT_FDR+10

       68     2710            %CLIMB(FCN=FDR);

   2718  2 000015   000004 630400 0                  EPPR0   IPT_FDR
         2 000016   000000 713400 xsym               CLIMB   I$FDR
         2 000017   402400 600000 xsid               climb   nvectors=         6

       69     2724    1       IF UWA.DB_STATUS ~= '00000' THEN ALTRETURN;

   2724  2 000020   040000 106400                    CMPC    fill='040'O
         2 000021   000001 400005 xsym               ADSC9   UWA+1                    cn=2,n=5
         2 000022   000000 000005 1                  ADSC9   0                        cn=0,n=5
         2 000023   000025 600000 2                  TZE     s:2725

   2724  2 000024   000000 702200 xent               TSX2  ! X66_AALT

       70     2725    1   END DB_FUNC_FDR;

   2725  2 000025   000000 702200 xent               TSX2  ! X66_ARET

USEP
 Sect OctLoc
   0     000   000001 000000   003017 204400   000000 000000                    ............

IPT_FDR
 Sect OctLoc
   0     004   000003 777640   000020 006000   000055 777640   000000 006000    .........-......
   0     010   001217 777640   000000 006000   000151 777640   000000 006000    .........i......
   0     014   000003 777640   000000 006000   000000 177640   000000 006014    ................
   0     020   000000 000000   000000 000000   000000 000000   000000 000000    ................

(unnamed)
 Sect OctLoc
   1     000   060060 060060   060040 040040                                    00000

PL6.E3A0      #003=DB_FUNC_FDR File=ZIU$DBFC.:ZIC0TSI                            FRI 09/05/97 13:12 Page:46
(unnamed)
 Sect OctLoc
   3     000   000000 006000                                                    ....
       71     2726        %EOD;

PL6.E3A0      #003=DB_FUNC_FDR File=ZIU$DBFC.:ZIC0TSI                            FRI 09/05/97 13:12 Page:47
--  Include file information  --

   ZI_DBCS.:ZIC0TOU  is referenced.
   ZI_RVA_C.:ZIC0TOU  is referenced.
   ZI_UWA_C.:ZIC0TOU  is referenced.
   B$JIT_C.:E05TOU  was found in the system file and is never referenced.
   CP_6_C.:E05TOU  was found in the system file and is never referenced.
      No diagnostics issued in procedure DB_FUNC_FDR.

   Procedure DB_FUNC_FDR requires 22 words for executable code.
   Procedure DB_FUNC_FDR requires 10 words of local(AUTO) storage.
PL6.E3A0      #003=DB_FUNC_FDR File=ZIU$DBFC.:ZIC0TSI                            FRI 09/05/97 13:12 Page:48
          *** CROSS REFERENCE LISTING ***
**     DENOTES     IDENTIFIER DEFINITION
<<                 IDENTIFIER'S VALUE SET
>>                 IDENTIFIER'S VALUE USED
<>                 IDENTIFIER SET AND/OR USED
--                 IDENTIFIER REFERENCED
PL6.E3A0      #003=DB_FUNC_FDR File=ZIU$DBFC.:ZIC0TSI                            FRI 09/05/97 13:12 Page:49
          MINI XREF LISTING

CAN_RVA
      1720**DCL      2699--DCLINIT  2708--ASSIGN
DB_DBK
      2052**DCL         6--PROC     2709--ASSIGN
I$FDR
      2684**DCL-ENT  2718--CALL
IA
      2039**DCL      2698--DCLINIT
IPT_FDR
      2698**DCL      2718<>CALL
IPT_FDR.DBK_
      2700**DCL      2709<<ASSIGN
IPT_FDR.V
      2700**DCL      2698--DCLINIT
IPT_FDR.V.RC.RC_OFFSET#
      2700**DCL      2708<<ASSIGN
RC_OFF
      2050**DCL         6--PROC     2708--ASSIGN
USEP
      2057**DCL      2699--DCLINIT
UWA
       699**DCL      2699--DCLINIT
UWA.AC_REC.CALC_NEXT
       814**DCL       815--REDEF
UWA.AC_REC.CALC_PRIOR
       823**DCL       824--REDEF
UWA.AC_REC.DEFAULTS
       772**DCL       773--REDEF
UWA.AC_REC.FILE_CODE
       777**DCL       778--REDEF
UWA.AC_REC.FLAG1.ERROR_TYPE
       774**DCL       775--REDEF
PL6.E3A0      #003=DB_FUNC_FDR File=ZIU$DBFC.:ZIC0TSI                            FRI 09/05/97 13:12 Page:50
UWA.AC_REC.PG_TYPE
       789**DCL       790--REDEF
UWA.AD_REC.ADDATE
       754**DCL       755--REDEF
UWA.DB_STATUS
       702**DCL      2724>>IF

PL6.E3A0      #004=DB_FUNC_FRS File=ZIU$DBFC.:ZIC0TSI                            FRI 09/05/97 13:12 Page:51
       72        1        /*T***********************************************************/
       73        2        /*T*                                                         */
       74        3        /*T* Copyright (c) Bull HN Information Systems Inc., 1997    */
       75        4        /*T*                                                         */
       76        5        /*T***********************************************************/
       77        6        DB_FUNC_FRS: PROC(RC_OFF,SC_OFF) ALTRET;
       78        7        /**/
       79        8        %INCLUDE ZI_UWA_C;
       80      698        %ZI$UWAB;
       81     1038        %INCLUDE ZI_RVA_C;
       82     1719        %CAN_RVA_REF;
       83     2038        %IA$MAC;
       84     2049        %DB_MAC;
       85     2056        %USEP_MAC;
       86     2064        %INCLUDE ZI_DBCS;
       87     2677        %ASL;
       88     2691        %IPT_FRS (IAN=IA,UWAN=UWA,RVAN=CAN_RVA,USEPN=USEP,RECORD_LOCATION=NEXT);
       89     2708        %IPT_FRA (IAN=IA,UWAN=UWA,RVAN=CAN_RVA,USEPN=USEP,RECORD_LOCATION=NEXT);
       90     2725        /**/
       91     2726    1       IF RC_OFF = 0 THEN
       92     2727    1           IPT_FRS.V.RC.RC_OFFSET# = POFFW(ADDR(CAN_RVA.NULL),ADDR(CAN_RVA));
       93     2728    1       ELSE
       94     2729    1           IPT_FRS.V.RC.RC_OFFSET#=POFFW(ADDR(RC_OFF),ADDR(CAN_RVA));
       95     2730    1       IPT_FRS.V.SC.SC_OFFSET#=POFFW(ADDR(SC_OFF),ADDR(CAN_RVA));
       96     2731            %CLIMB(FCN=FRS);
       97     2745    1   CHK_ERR: IF UWA.DB_STATUS~='00000' AND UWA.DB_STATUS~='02100' THEN
       98     2746    1           ALTRETURN; /* OK FOR 02100 ON FRS */
       99     2747    1       RETURN;
      100     2748
      101     2749    1   DB_FUNC_FRA: ENTRY(RC_OFF) ALTRET;
      102     2750
      103     2751    1       IPT_FRA.V.RC.RC_OFFSET#= POFFW(ADDR(RC_OFF),ADDR(CAN_RVA));
      104     2752    1       IPT_FRA.V.AC.AC_OFFSET#=
      105     2753    1          POFFW(ADDR(CAN_RVA.THISISATHIRTYCHARACTERDATANAME),
      106     2754    1          ADDR(CAN_RVA));
      107     2755            %CLIMB(FCN=FRA);
      108     2769    1       GOTO CHK_ERR;
PL6.E3A0      #004=DB_FUNC_FRS File=ZIU$DBFC.:ZIC0TSI                            FRI 09/05/97 13:12 Page:52
      109     2770    1   END DB_FUNC_FRS;
      110     2771        %EOD;

PL6.E3A0      #004=DB_FUNC_FRS File=ZIU$DBFC.:ZIC0TSI                            FRI 09/05/97 13:12 Page:53
--  Include file information  --

   ZI_DBCS.:ZIC0TOU  is referenced.
   ZI_RVA_C.:ZIC0TOU  is referenced.
   ZI_UWA_C.:ZIC0TOU  is referenced.
   B$JIT_C.:E05TOU  was found in the system file and is never referenced.
   CP_6_C.:E05TOU  was found in the system file and is never referenced.
      No diagnostics issued in procedure DB_FUNC_FRS.

   Procedure DB_FUNC_FRS requires 65 words for executable code.
   Procedure DB_FUNC_FRS requires 10 words of local(AUTO) storage.

PL6.E3A0      #004=DB_FUNC_FRS File=ZIU$DBFC.:ZIC0TSI                            FRI 09/05/97 13:12 Page:54

 Object Unit name= DB_FUNC_FRS                                File name= ZIU$DBFC.:ZIC0TOU
 UTS= SEP 05 '97 13:12:08.92 FRI                              Compiler= PL-6/E31         Sev=      00
 SharedLib= :SHARED_SYSTEM                                    Alt SharedLib=


    ****  Control sections  ****

 Sect   Type Bound  Init  Size OctSiz  Section name(segment info)
    0   Data  even  none    36     44  DB_FUNC_FRS
    1  RoData even  UTS      4      4  DB_FUNC_FRS
    2   Proc  even  none    65    101  DB_FUNC_FRS
    3  RoData even  none     3      3  DB_FUNC_FRS

    ****  Entry defs  ****

                              Check   Calling
                             calling  sequence
  Sect OctLoc Primary Altret sequence   type   Parms  Name
     2      0   yes    yes     yes      Std        2  DB_FUNC_FRS
     2     53          yes     yes      Std        1  DB_FUNC_FRA

  ****  Entry refs  ****

         Check        Calling
        calling       sequence
Altret sequence SRef   type   Args  Name
                       nStd      0 X66_AUTO_2
                       nStd      0 X66_AALT
                       nStd      0 X66_ARET

  ****  Data refs  ****

  Flags:  r = read only, s = secondary
Flgs Name                             Flgs Name                             Flgs Name
     I$FRS                                 I$FRA                                 UWA
     CAN_RVA                               IA
PL6.E3A0      #004=DB_FUNC_FRS File=ZIU$DBFC.:ZIC0TSI                            FRI 09/05/97 13:12 Page:55

  ****  Segment refs  ****

  Flags:  r = read only, s = secondary
Flgs Name                             Flgs Name                             Flgs Name
     ISSID                                 ASLENTSID
PL6.E3A0      #004=DB_FUNC_FRS File=ZIU$DBFC.:ZIC0TSI                            FRI 09/05/97 13:12 Page:56


       72        1        /*T***********************************************************/
       73        2        /*T*                                                         */
       74        3        /*T* Copyright (c) Bull HN Information Systems Inc., 1997    */
       75        4        /*T*                                                         */
       76        5        /*T***********************************************************/
       77        6        DB_FUNC_FRS: PROC(RC_OFF,SC_OFF) ALTRET;

      6  2 000000   000000 700200 xent  DB_FUNC_FRS  TSX0  ! X66_AUTO_2
         2 000001   000012 000002                    ZERO    10,2

       78        7        /**/
       79        8        %INCLUDE ZI_UWA_C;
       80      698        %ZI$UWAB;
       81     1038        %INCLUDE ZI_RVA_C;
       82     1719        %CAN_RVA_REF;
       83     2038        %IA$MAC;
       84     2049        %DB_MAC;
       85     2056        %USEP_MAC;
       86     2064        %INCLUDE ZI_DBCS;
       87     2677        %ASL;
       88     2691        %IPT_FRS (IAN=IA,UWAN=UWA,RVAN=CAN_RVA,USEPN=USEP,RECORD_LOCATION=NEXT);
       89     2708        %IPT_FRA (IAN=IA,UWAN=UWA,RVAN=CAN_RVA,USEPN=USEP,RECORD_LOCATION=NEXT);
       90     2725        /**/
       91     2726    1       IF RC_OFF = 0 THEN

   2726  2 000002   200003 470500                    LDP0    @RC_OFF,,AUTO
         2 000003   000000 220100                    LDX0    0,,PR0
         2 000004   000016 601000 2                  TNZ     s:2729

       92     2727    1           IPT_FRS.V.RC.RC_OFFSET# = POFFW(ADDR(CAN_RVA.NULL),ADDR(CAN_RVA));

   2727  2 000005   000000 236000 3                  LDQ     0
         2 000006   000022 772000                    QRL     18
         2 000007   200010 756100                    STQ     RET_SET+1,,AUTO
         2 000010   000001 236000 3                  LDQ     1
         2 000011   000022 772000                    QRL     18
PL6.E3A0      #004=DB_FUNC_FRS File=ZIU$DBFC.:ZIC0TSI                            FRI 09/05/97 13:12 Page:57
         2 000012   200010 136100                    SBLQ    RET_SET+1,,AUTO
         2 000013   000000 620006                    EAX0    0,QL
         2 000014   000017 740000 0                  STX0    IPT_FRS+11
         2 000015   000026 710000 2                  TRA     s:2730

       93     2728    1       ELSE
       94     2729    1           IPT_FRS.V.RC.RC_OFFSET#=POFFW(ADDR(RC_OFF),ADDR(CAN_RVA));

   2729  2 000016   000000 236000 3                  LDQ     0
         2 000017   000022 772000                    QRL     18
         2 000020   200010 756100                    STQ     RET_SET+1,,AUTO
         2 000021   200003 236100                    LDQ     @RC_OFF,,AUTO
         2 000022   000022 772000                    QRL     18
         2 000023   200010 136100                    SBLQ    RET_SET+1,,AUTO
         2 000024   000000 620006                    EAX0    0,QL
         2 000025   000017 740000 0                  STX0    IPT_FRS+11

       95     2730    1       IPT_FRS.V.SC.SC_OFFSET#=POFFW(ADDR(SC_OFF),ADDR(CAN_RVA));

   2730  2 000026   000000 236000 3                  LDQ     0
         2 000027   000022 772000                    QRL     18
         2 000030   200010 756100                    STQ     RET_SET+1,,AUTO
         2 000031   200004 236100                    LDQ     @SC_OFF,,AUTO
         2 000032   000022 772000                    QRL     18
         2 000033   200010 136100                    SBLQ    RET_SET+1,,AUTO
         2 000034   000000 621006                    EAX1    0,QL
         2 000035   000020 741000 0                  STX1    IPT_FRS+12

       96     2731            %CLIMB(FCN=FRS);

   2739  2 000036   000004 630400 0                  EPPR0   IPT_FRS
         2 000037   000000 713400 xsym               CLIMB   I$FRS
         2 000040   402000 600000 xsid               climb   nvectors=         5

       97     2745    1   CHK_ERR: IF UWA.DB_STATUS~='00000' AND UWA.DB_STATUS~='02100' THEN

   2745  2 000041   040000 106400       CHK_ERR      CMPC    fill='040'O
PL6.E3A0      #004=DB_FUNC_FRS File=ZIU$DBFC.:ZIC0TSI                            FRI 09/05/97 13:12 Page:58
         2 000042   000001 400005 xsym               ADSC9   UWA+1                    cn=2,n=5
         2 000043   000000 000005 1                  ADSC9   0                        cn=0,n=5
         2 000044   000052 600000 2                  TZE     s:2747
         2 000045   040000 106400                    CMPC    fill='040'O
         2 000046   000001 400005 xsym               ADSC9   UWA+1                    cn=2,n=5
         2 000047   000002 000005 1                  ADSC9   2                        cn=0,n=5
         2 000050   000052 600000 2                  TZE     s:2747

       98     2746    1           ALTRETURN; /* OK FOR 02100 ON FRS */

   2746  2 000051   000000 702200 xent               TSX2  ! X66_AALT

       99     2747    1       RETURN;

   2747  2 000052   000000 702200 xent               TSX2  ! X66_ARET

      100     2748
      101     2749    1   DB_FUNC_FRA: ENTRY(RC_OFF) ALTRET;

   2749  2 000053   000000 700200 xent  DB_FUNC_FRA  TSX0  ! X66_AUTO_2
         2 000054   000012 000002                    ZERO    10,2

      102     2750
      103     2751    1       IPT_FRA.V.RC.RC_OFFSET#= POFFW(ADDR(RC_OFF),ADDR(CAN_RVA));

   2751  2 000055   000000 236000 3                  LDQ     0
         2 000056   000022 772000                    QRL     18
         2 000057   200010 756100                    STQ     RET_SET+1,,AUTO
         2 000060   200003 236100                    LDQ     @RC_OFF,,AUTO
         2 000061   000022 772000                    QRL     18
         2 000062   200010 136100                    SBLQ    RET_SET+1,,AUTO
         2 000063   000000 620006                    EAX0    0,QL
         2 000064   000037 740000 0                  STX0    IPT_FRA+11

      104     2752    1       IPT_FRA.V.AC.AC_OFFSET#=

   2752  2 000065   000000 236000 3                  LDQ     0
PL6.E3A0      #004=DB_FUNC_FRS File=ZIU$DBFC.:ZIC0TSI                            FRI 09/05/97 13:12 Page:59
         2 000066   000022 772000                    QRL     18
         2 000067   200010 756100                    STQ     RET_SET+1,,AUTO
         2 000070   000002 236000 3                  LDQ     2
         2 000071   000022 772000                    QRL     18
         2 000072   200010 136100                    SBLQ    RET_SET+1,,AUTO
         2 000073   000000 621006                    EAX1    0,QL
         2 000074   000040 741000 0                  STX1    IPT_FRA+12

      105     2753    1          POFFW(ADDR(CAN_RVA.THISISATHIRTYCHARACTERDATANAME),
      106     2754    1          ADDR(CAN_RVA));
      107     2755            %CLIMB(FCN=FRA);

   2763  2 000075   000024 630400 0                  EPPR0   IPT_FRA
         2 000076   000000 713400 xsym               CLIMB   I$FRA
         2 000077   402000 600000 xsid               climb   nvectors=         5

      108     2769    1       GOTO CHK_ERR;

   2769  2 000100   000041 710000 2                  TRA     CHK_ERR

USEP
 Sect OctLoc
   0     000   000001 000000   003017 204400   000000 000000                    ............

IPT_FRS
 Sect OctLoc
   0     004   000005 777640   000016 006000   000055 777640   000000 006000    .........-......
   0     010   001217 777640   000000 006000   000151 777640   000000 006000    .........i......
   0     014   000003 777640   000000 006000   000002 000000   000000 000000    ................
   0     020   000000 000000   000000 000000   000000 000000   ****** ******    ................

IPT_FRA
 Sect OctLoc
   0     024   000005 777640   000036 006000   000055 777640   000000 006000    .........-......
   0     030   001217 777640   000000 006000   000151 777640   000000 006000    .........i......
   0     034   000003 777640   000000 006000   000002 000000   000000 000000    ................
   0     040   000000 000000   000000 000000   000000 000000   ****** ******    ................
PL6.E3A0      #004=DB_FUNC_FRS File=ZIU$DBFC.:ZIC0TSI                            FRI 09/05/97 13:12 Page:60

(unnamed)
 Sect OctLoc
   1     000   060060 060060   060040 040040   060062 061060   060040 040040    00000   02100

(unnamed)
 Sect OctLoc
   3     000   000000 006000   000150 006000   000151 406000                    .....h...i..
      109     2770    1   END DB_FUNC_FRS;
      110     2771        %EOD;

PL6.E3A0      #004=DB_FUNC_FRS File=ZIU$DBFC.:ZIC0TSI                            FRI 09/05/97 13:12 Page:61
--  Include file information  --

   ZI_DBCS.:ZIC0TOU  is referenced.
   ZI_RVA_C.:ZIC0TOU  is referenced.
   ZI_UWA_C.:ZIC0TOU  is referenced.
   B$JIT_C.:E05TOU  was found in the system file and is never referenced.
   CP_6_C.:E05TOU  was found in the system file and is never referenced.
      No diagnostics issued in procedure DB_FUNC_FRS.

   Procedure DB_FUNC_FRS requires 65 words for executable code.
   Procedure DB_FUNC_FRS requires 10 words of local(AUTO) storage.
PL6.E3A0      #004=DB_FUNC_FRS File=ZIU$DBFC.:ZIC0TSI                            FRI 09/05/97 13:12 Page:62
          *** CROSS REFERENCE LISTING ***
**     DENOTES     IDENTIFIER DEFINITION
<<                 IDENTIFIER'S VALUE SET
>>                 IDENTIFIER'S VALUE USED
<>                 IDENTIFIER SET AND/OR USED
--                 IDENTIFIER REFERENCED
PL6.E3A0      #004=DB_FUNC_FRS File=ZIU$DBFC.:ZIC0TSI                            FRI 09/05/97 13:12 Page:63
          MINI XREF LISTING

CAN_RVA
      1720**DCL      2699--DCLINIT  2716--DCLINIT  2727--ASSIGN   2729--ASSIGN   2730--ASSIGN   2751--ASSIGN
      2752--ASSIGN
CAN_RVA.NULL
      2032**DCL      2727--ASSIGN
CAN_RVA.THISISATHIRTYCHARACTERDATANAME
      2036**DCL      2752--ASSIGN
CHK_ERR
      2745**LABEL    2769--GOTO
I$FRA
      2684**DCL-ENT  2763--CALL
I$FRS
      2684**DCL-ENT  2739--CALL
IA
      2039**DCL      2698--DCLINIT  2715--DCLINIT
IPT_FRA
      2715**DCL      2763<>CALL
IPT_FRA.V
      2717**DCL      2715--DCLINIT
IPT_FRA.V.AC.AC_OFFSET#
      2719**DCL      2752<<ASSIGN
IPT_FRA.V.RC.RC_OFFSET#
      2718**DCL      2751<<ASSIGN
IPT_FRS
      2698**DCL      2739<>CALL
IPT_FRS.V
      2700**DCL      2698--DCLINIT
IPT_FRS.V.RC.RC_OFFSET#
      2701**DCL      2727<<ASSIGN   2729<<ASSIGN
IPT_FRS.V.SC.SC_OFFSET#
      2702**DCL      2730<<ASSIGN
RC_OFF
PL6.E3A0      #004=DB_FUNC_FRS File=ZIU$DBFC.:ZIC0TSI                            FRI 09/05/97 13:12 Page:64
      2050**DCL         6--PROC     2726>>IF       2729--ASSIGN   2749--ENTRY    2751--ASSIGN
SC_OFF
      2051**DCL         6--PROC     2730--ASSIGN
USEP
      2057**DCL      2699--DCLINIT  2716--DCLINIT
UWA
       699**DCL      2699--DCLINIT  2716--DCLINIT
UWA.AC_REC.CALC_NEXT
       814**DCL       815--REDEF
UWA.AC_REC.CALC_PRIOR
       823**DCL       824--REDEF
UWA.AC_REC.DEFAULTS
       772**DCL       773--REDEF
UWA.AC_REC.FILE_CODE
       777**DCL       778--REDEF
UWA.AC_REC.FLAG1.ERROR_TYPE
       774**DCL       775--REDEF
UWA.AC_REC.PG_TYPE
       789**DCL       790--REDEF
UWA.AD_REC.ADDATE
       754**DCL       755--REDEF
UWA.DB_STATUS
       702**DCL      2745>>IF       2745>>IF

PL6.E3A0      #005=DB_FUNC_FOR File=ZIU$DBFC.:ZIC0TSI                            FRI 09/05/97 13:12 Page:65
      111        1        /*T***********************************************************/
      112        2        /*T*                                                         */
      113        3        /*T* Copyright (c) Bull HN Information Systems Inc., 1997    */
      114        4        /*T*                                                         */
      115        5        /*T***********************************************************/
      116        6        DB_FUNC_FOR: PROC(SC_OFF) ALTRET;
      117        7        /**/
      118        8        %INCLUDE ZI_UWA_C;
      119      698        %ZI$UWAB;
      120     1038        %INCLUDE ZI_RVA_C;
      121     1719        %CAN_RVA_REF;
      122     2038        %IA$MAC;
      123     2049        %DB_MAC;
      124     2056        %USEP_MAC;
      125     2064        %INCLUDE ZI_DBCS;
      126     2677        %ASL;
      127     2691        %IPT_FOR (IAN=IA,UWAN=UWA,RVAN=CAN_RVA,USEPN=USEP);
      128     2706        /**/
      129     2707    1       IPT_FOR.V.SC.SC_OFFSET#=POFFW(ADDR(SC_OFF),ADDR(CAN_RVA));
      130     2708            %CLIMB(FCN=FOR);
      131     2722    1       IF UWA.DB_STATUS ~= '00000' THEN ALTRETURN;
      132     2723    1   END DB_FUNC_FOR;
      133     2724        %EOD;

PL6.E3A0      #005=DB_FUNC_FOR File=ZIU$DBFC.:ZIC0TSI                            FRI 09/05/97 13:12 Page:66
--  Include file information  --

   ZI_DBCS.:ZIC0TOU  is referenced.
   ZI_RVA_C.:ZIC0TOU  is referenced.
   ZI_UWA_C.:ZIC0TOU  is referenced.
   B$JIT_C.:E05TOU  was found in the system file and is never referenced.
   CP_6_C.:E05TOU  was found in the system file and is never referenced.
      No diagnostics issued in procedure DB_FUNC_FOR.

   Procedure DB_FUNC_FOR requires 19 words for executable code.
   Procedure DB_FUNC_FOR requires 10 words of local(AUTO) storage.

PL6.E3A0      #005=DB_FUNC_FOR File=ZIU$DBFC.:ZIC0TSI                            FRI 09/05/97 13:12 Page:67

 Object Unit name= DB_FUNC_FOR                                File name= ZIU$DBFC.:ZIC0TOU
 UTS= SEP 05 '97 13:12:16.36 FRI                              Compiler= PL-6/E31         Sev=      00
 SharedLib= :SHARED_SYSTEM                                    Alt SharedLib=


    ****  Control sections  ****

 Sect   Type Bound  Init  Size OctSiz  Section name(segment info)
    0   Data  even  none    18     22  DB_FUNC_FOR
    1  RoData even  UTS      2      2  DB_FUNC_FOR
    2   Proc  even  none    19     23  DB_FUNC_FOR
    3  RoData even  none     1      1  DB_FUNC_FOR

    ****  Entry defs  ****

                              Check   Calling
                             calling  sequence
  Sect OctLoc Primary Altret sequence   type   Parms  Name
     2      0   yes    yes     yes      Std        1  DB_FUNC_FOR

  ****  Entry refs  ****

         Check        Calling
        calling       sequence
Altret sequence SRef   type   Args  Name
                       nStd      0 X66_AUTO_1
                       nStd      0 X66_AALT
                       nStd      0 X66_ARET

  ****  Data refs  ****

  Flags:  r = read only, s = secondary
Flgs Name                             Flgs Name                             Flgs Name
     I$FOR                                 UWA                                   CAN_RVA
     IA
PL6.E3A0      #005=DB_FUNC_FOR File=ZIU$DBFC.:ZIC0TSI                            FRI 09/05/97 13:12 Page:68

  ****  Segment refs  ****

  Flags:  r = read only, s = secondary
Flgs Name                             Flgs Name                             Flgs Name
     ISSID                                 ASLENTSID
PL6.E3A0      #005=DB_FUNC_FOR File=ZIU$DBFC.:ZIC0TSI                            FRI 09/05/97 13:12 Page:69


      111        1        /*T***********************************************************/
      112        2        /*T*                                                         */
      113        3        /*T* Copyright (c) Bull HN Information Systems Inc., 1997    */
      114        4        /*T*                                                         */
      115        5        /*T***********************************************************/
      116        6        DB_FUNC_FOR: PROC(SC_OFF) ALTRET;

      6  2 000000   000000 700200 xent  DB_FUNC_FOR  TSX0  ! X66_AUTO_1
         2 000001   000012 000001                    ZERO    10,1

      117        7        /**/
      118        8        %INCLUDE ZI_UWA_C;
      119      698        %ZI$UWAB;
      120     1038        %INCLUDE ZI_RVA_C;
      121     1719        %CAN_RVA_REF;
      122     2038        %IA$MAC;
      123     2049        %DB_MAC;
      124     2056        %USEP_MAC;
      125     2064        %INCLUDE ZI_DBCS;
      126     2677        %ASL;
      127     2691        %IPT_FOR (IAN=IA,UWAN=UWA,RVAN=CAN_RVA,USEPN=USEP);
      128     2706        /**/
      129     2707    1       IPT_FOR.V.SC.SC_OFFSET#=POFFW(ADDR(SC_OFF),ADDR(CAN_RVA));

   2707  2 000002   000000 236000 3                  LDQ     0
         2 000003   000022 772000                    QRL     18
         2 000004   200010 756100                    STQ     RET_SET+1,,AUTO
         2 000005   200003 236100                    LDQ     @SC_OFF,,AUTO
         2 000006   000022 772000                    QRL     18
         2 000007   200010 136100                    SBLQ    RET_SET+1,,AUTO
         2 000010   000000 620006                    EAX0    0,QL
         2 000011   000016 740000 0                  STX0    IPT_FOR+10

      130     2708            %CLIMB(FCN=FOR);

   2716  2 000012   000004 630400 0                  EPPR0   IPT_FOR
PL6.E3A0      #005=DB_FUNC_FOR File=ZIU$DBFC.:ZIC0TSI                            FRI 09/05/97 13:12 Page:70
         2 000013   000000 713400 xsym               CLIMB   I$FOR
         2 000014   402000 600000 xsid               climb   nvectors=         5

      131     2722    1       IF UWA.DB_STATUS ~= '00000' THEN ALTRETURN;

   2722  2 000015   040000 106400                    CMPC    fill='040'O
         2 000016   000001 400005 xsym               ADSC9   UWA+1                    cn=2,n=5
         2 000017   000000 000005 1                  ADSC9   0                        cn=0,n=5
         2 000020   000022 600000 2                  TZE     s:2723

   2722  2 000021   000000 702200 xent               TSX2  ! X66_AALT

      132     2723    1   END DB_FUNC_FOR;

   2723  2 000022   000000 702200 xent               TSX2  ! X66_ARET

USEP
 Sect OctLoc
   0     000   000001 000000   003017 204400   000000 000000                    ............

IPT_FOR
 Sect OctLoc
   0     004   000003 777640   000016 006000   000055 777640   000000 006000    .........-......
   0     010   001217 777640   000000 006000   000151 777640   000000 006000    .........i......
   0     014   000003 777640   000000 006000   000000 000000   000000 000000    ................
   0     020   000000 000000   ****** ******                                    ........

(unnamed)
 Sect OctLoc
   1     000   060060 060060   060040 040040                                    00000

(unnamed)
 Sect OctLoc
   3     000   000000 006000                                                    ....
      133     2724        %EOD;

PL6.E3A0      #005=DB_FUNC_FOR File=ZIU$DBFC.:ZIC0TSI                            FRI 09/05/97 13:12 Page:71
--  Include file information  --

   ZI_DBCS.:ZIC0TOU  is referenced.
   ZI_RVA_C.:ZIC0TOU  is referenced.
   ZI_UWA_C.:ZIC0TOU  is referenced.
   B$JIT_C.:E05TOU  was found in the system file and is never referenced.
   CP_6_C.:E05TOU  was found in the system file and is never referenced.
      No diagnostics issued in procedure DB_FUNC_FOR.

   Procedure DB_FUNC_FOR requires 19 words for executable code.
   Procedure DB_FUNC_FOR requires 10 words of local(AUTO) storage.
PL6.E3A0      #005=DB_FUNC_FOR File=ZIU$DBFC.:ZIC0TSI                            FRI 09/05/97 13:12 Page:72
          *** CROSS REFERENCE LISTING ***
**     DENOTES     IDENTIFIER DEFINITION
<<                 IDENTIFIER'S VALUE SET
>>                 IDENTIFIER'S VALUE USED
<>                 IDENTIFIER SET AND/OR USED
--                 IDENTIFIER REFERENCED
PL6.E3A0      #005=DB_FUNC_FOR File=ZIU$DBFC.:ZIC0TSI                            FRI 09/05/97 13:12 Page:73
          MINI XREF LISTING

CAN_RVA
      1720**DCL      2699--DCLINIT  2707--ASSIGN
I$FOR
      2683**DCL-ENT  2716--CALL
IA
      2039**DCL      2698--DCLINIT
IPT_FOR
      2698**DCL      2716<>CALL
IPT_FOR.V
      2700**DCL      2698--DCLINIT
IPT_FOR.V.SC.SC_OFFSET#
      2700**DCL      2707<<ASSIGN
SC_OFF
      2051**DCL         6--PROC     2707--ASSIGN
USEP
      2057**DCL      2699--DCLINIT
UWA
       699**DCL      2699--DCLINIT
UWA.AC_REC.CALC_NEXT
       814**DCL       815--REDEF
UWA.AC_REC.CALC_PRIOR
       823**DCL       824--REDEF
UWA.AC_REC.DEFAULTS
       772**DCL       773--REDEF
UWA.AC_REC.FILE_CODE
       777**DCL       778--REDEF
UWA.AC_REC.FLAG1.ERROR_TYPE
       774**DCL       775--REDEF
UWA.AC_REC.PG_TYPE
       789**DCL       790--REDEF
UWA.AD_REC.ADDATE
       754**DCL       755--REDEF
PL6.E3A0      #005=DB_FUNC_FOR File=ZIU$DBFC.:ZIC0TSI                            FRI 09/05/97 13:12 Page:74
UWA.DB_STATUS
       702**DCL      2722>>IF

PL6.E3A0      #006=DB_FUNC_FOR1 File=ZIU$DBFC.:ZIC0TSI                           FRI 09/05/97 13:12 Page:75
      134        1        /*T***********************************************************/
      135        2        /*T*                                                         */
      136        3        /*T* Copyright (c) Bull HN Information Systems Inc., 1997    */
      137        4        /*T*                                                         */
      138        5        /*T***********************************************************/
      139        6        DB_FUNC_FOR1: PROC(SC_OFF,NUM_SETS,RET_SETS) ALTRET;
      140        7    1   DCL NUM_SETS UBIN WORD ALIGNED;
      141        8    1   DCL RET_SETS UBIN(18) ALIGNED;
      142        9    1   DCL I UBIN(36) STATIC ALIGNED;
      143       10        %INCLUDE ZI_UWA_C;
      144      700        %ZI$UWAB;
      145     1040        %INCLUDE ZI_RVA_C;
      146     1721        %CAN_RVA_REF;
      147     2040        %IA$MAC;
      148     2051        %DB_MAC;
      149     2058        %USEP_MAC;
      150     2066        %INCLUDE ZI_DBCS;
      151     2679        %ASL;
      152     2693        %IPT_FOR (IAN=IA,UWAN=UWA,RVAN=CAN_RVA,USEPN=USEP);
      153     2708        /**/
      154     2709    1       IPT_FOR.V.SC.SC_OFFSET#=POFFW(ADDR(SC_OFF),ADDR(CAN_RVA));
      155     2710    1       IPT_FOR.V.RLCW.N_SETS#=NUM_SETS-1;
      156     2711    2       DO I=0 TO NUM_SETS-1 BY 1;
      157     2712    2           IPT_FOR.V.RETENTION_LIST.RVA_OFFSET#(I)=RET_SETS;
      158     2713    2           END;
      159     2714            %CLIMB(FCN=FOR);
      160     2728    1       IF UWA.DB_STATUS ~= '00000' THEN ALTRETURN;
      161     2729    1   END DB_FUNC_FOR1;
      162     2730        %EOD;

PL6.E3A0      #006=DB_FUNC_FOR1 File=ZIU$DBFC.:ZIC0TSI                           FRI 09/05/97 13:12 Page:76
--  Include file information  --

   ZI_DBCS.:ZIC0TOU  is referenced.
   ZI_RVA_C.:ZIC0TOU  is referenced.
   ZI_UWA_C.:ZIC0TOU  is referenced.
   B$JIT_C.:E05TOU  was found in the system file and is never referenced.
   CP_6_C.:E05TOU  was found in the system file and is never referenced.
      No diagnostics issued in procedure DB_FUNC_FOR1.

   Procedure DB_FUNC_FOR1 requires 38 words for executable code.
   Procedure DB_FUNC_FOR1 requires 12 words of local(AUTO) storage.

PL6.E3A0      #006=DB_FUNC_FOR1 File=ZIU$DBFC.:ZIC0TSI                           FRI 09/05/97 13:12 Page:77

 Object Unit name= DB_FUNC_FOR1                               File name= ZIU$DBFC.:ZIC0TOU
 UTS= SEP 05 '97 13:12:23.00 FRI                              Compiler= PL-6/E31         Sev=      00
 SharedLib= :SHARED_SYSTEM                                    Alt SharedLib=


    ****  Control sections  ****

 Sect   Type Bound  Init  Size OctSiz  Section name(segment info)
    0   Data  even  none    20     24  DB_FUNC_FOR1
    1  RoData even  UTS      2      2  DB_FUNC_FOR1
    2   Proc  even  none    38     46  DB_FUNC_FOR1
    3  RoData even  none     1      1  DB_FUNC_FOR1

    ****  Entry defs  ****

                              Check   Calling
                             calling  sequence
  Sect OctLoc Primary Altret sequence   type   Parms  Name
     2      0   yes    yes     yes      Std        3  DB_FUNC_FOR1

  ****  Entry refs  ****

         Check        Calling
        calling       sequence
Altret sequence SRef   type   Args  Name
                       nStd      0 X66_AUTO_3
                       nStd      0 X66_AALT
                       nStd      0 X66_ARET

  ****  Data refs  ****

  Flags:  r = read only, s = secondary
Flgs Name                             Flgs Name                             Flgs Name
     I$FOR                                 UWA                                   CAN_RVA
     IA
PL6.E3A0      #006=DB_FUNC_FOR1 File=ZIU$DBFC.:ZIC0TSI                           FRI 09/05/97 13:12 Page:78

  ****  Segment refs  ****

  Flags:  r = read only, s = secondary
Flgs Name                             Flgs Name                             Flgs Name
     ISSID                                 ASLENTSID
PL6.E3A0      #006=DB_FUNC_FOR1 File=ZIU$DBFC.:ZIC0TSI                           FRI 09/05/97 13:12 Page:79


      134        1        /*T***********************************************************/
      135        2        /*T*                                                         */
      136        3        /*T* Copyright (c) Bull HN Information Systems Inc., 1997    */
      137        4        /*T*                                                         */
      138        5        /*T***********************************************************/
      139        6        DB_FUNC_FOR1: PROC(SC_OFF,NUM_SETS,RET_SETS) ALTRET;

      6  2 000000   000000 700200 xent  DB_FUNC_FOR1 TSX0  ! X66_AUTO_3
         2 000001   000014 000003                    ZERO    12,3

      140        7    1   DCL NUM_SETS UBIN WORD ALIGNED;
      141        8    1   DCL RET_SETS UBIN(18) ALIGNED;
      142        9    1   DCL I UBIN(36) STATIC ALIGNED;
      143       10        %INCLUDE ZI_UWA_C;
      144      700        %ZI$UWAB;
      145     1040        %INCLUDE ZI_RVA_C;
      146     1721        %CAN_RVA_REF;
      147     2040        %IA$MAC;
      148     2051        %DB_MAC;
      149     2058        %USEP_MAC;
      150     2066        %INCLUDE ZI_DBCS;
      151     2679        %ASL;
      152     2693        %IPT_FOR (IAN=IA,UWAN=UWA,RVAN=CAN_RVA,USEPN=USEP);
      153     2708        /**/
      154     2709    1       IPT_FOR.V.SC.SC_OFFSET#=POFFW(ADDR(SC_OFF),ADDR(CAN_RVA));

   2709  2 000002   000000 236000 3                  LDQ     0
         2 000003   000022 772000                    QRL     18
         2 000004   200012 756100                    STQ     RET_SET+1,,AUTO
         2 000005   200003 236100                    LDQ     @SC_OFF,,AUTO
         2 000006   000022 772000                    QRL     18
         2 000007   200012 136100                    SBLQ    RET_SET+1,,AUTO
         2 000010   000000 620006                    EAX0    0,QL
         2 000011   000020 740000 0                  STX0    IPT_FOR+10

      155     2710    1       IPT_FOR.V.RLCW.N_SETS#=NUM_SETS-1;
PL6.E3A0      #006=DB_FUNC_FOR1 File=ZIU$DBFC.:ZIC0TSI                           FRI 09/05/97 13:12 Page:80

   2710  2 000012   200004 470500                    LDP0    @NUM_SETS,,AUTO
         2 000013   000000 236100                    LDQ     0,,PR0
         2 000014   000001 136007                    SBLQ    1,DL
         2 000015   000021 676000 0                  ERQ     IPT_FOR+11
         2 000016   000377 376007                    ANQ     255,DL
         2 000017   000021 656000 0                  ERSQ    IPT_FOR+11

      156     2711    2       DO I=0 TO NUM_SETS-1 BY 1;

   2711  2 000020   000000 450000 0                  STZ     I
         2 000021   000031 710000 2                  TRA     s:2713+3

      157     2712    2           IPT_FOR.V.RETENTION_LIST.RVA_OFFSET#(I)=RET_SETS;

   2712  2 000022   200005 470500                    LDP0    @RET_SETS,,AUTO
         2 000023   000000 220100                    LDX0    0,,PR0
         2 000024   000000 721000 0                  LXL1    I
         2 000025   000022 740011 0                  STX0    IPT_FOR+12,X1

      158     2713    2           END;

   2713  2 000026   000000 235000 0                  LDA     I
         2 000027   000001 035007                    ADLA    1,DL
         2 000030   000000 755000 0                  STA     I
         2 000031   200004 470500                    LDP0    @NUM_SETS,,AUTO
         2 000032   000000 236000 0                  LDQ     I
         2 000033   000000 116100                    CMPQ    0,,PR0
         2 000034   000022 602000 2                  TNC     s:2712

      159     2714            %CLIMB(FCN=FOR);

   2722  2 000035   000006 630400 0                  EPPR0   IPT_FOR
         2 000036   000000 713400 xsym               CLIMB   I$FOR
         2 000037   402000 600000 xsid               climb   nvectors=         5

      160     2728    1       IF UWA.DB_STATUS ~= '00000' THEN ALTRETURN;
PL6.E3A0      #006=DB_FUNC_FOR1 File=ZIU$DBFC.:ZIC0TSI                           FRI 09/05/97 13:12 Page:81

   2728  2 000040   040000 106400                    CMPC    fill='040'O
         2 000041   000001 400005 xsym               ADSC9   UWA+1                    cn=2,n=5
         2 000042   000000 000005 1                  ADSC9   0                        cn=0,n=5
         2 000043   000045 600000 2                  TZE     s:2729

   2728  2 000044   000000 702200 xent               TSX2  ! X66_AALT

      161     2729    1   END DB_FUNC_FOR1;

   2729  2 000045   000000 702200 xent               TSX2  ! X66_ARET

USEP
 Sect OctLoc
   0     002   000001 000000   003017 204400   000000 000000                    ............

IPT_FOR
 Sect OctLoc
   0     006   000003 777640   000020 006000   000055 777640   000000 006000    .........-......
   0     012   001217 777640   000000 006000   000151 777640   000000 006000    .........i......
   0     016   000003 777640   000002 006000   000000 000000   000000 000000    ................
   0     022   000000 000000   ****** ******                                    ........

(unnamed)
 Sect OctLoc
   1     000   060060 060060   060040 040040                                    00000

(unnamed)
 Sect OctLoc
   3     000   000000 006000                                                    ....
      162     2730        %EOD;

PL6.E3A0      #006=DB_FUNC_FOR1 File=ZIU$DBFC.:ZIC0TSI                           FRI 09/05/97 13:12 Page:82
--  Include file information  --

   ZI_DBCS.:ZIC0TOU  is referenced.
   ZI_RVA_C.:ZIC0TOU  is referenced.
   ZI_UWA_C.:ZIC0TOU  is referenced.
   B$JIT_C.:E05TOU  was found in the system file and is never referenced.
   CP_6_C.:E05TOU  was found in the system file and is never referenced.
      No diagnostics issued in procedure DB_FUNC_FOR1.

   Procedure DB_FUNC_FOR1 requires 38 words for executable code.
   Procedure DB_FUNC_FOR1 requires 12 words of local(AUTO) storage.
PL6.E3A0      #006=DB_FUNC_FOR1 File=ZIU$DBFC.:ZIC0TSI                           FRI 09/05/97 13:12 Page:83
          *** CROSS REFERENCE LISTING ***
**     DENOTES     IDENTIFIER DEFINITION
<<                 IDENTIFIER'S VALUE SET
>>                 IDENTIFIER'S VALUE USED
<>                 IDENTIFIER SET AND/OR USED
--                 IDENTIFIER REFERENCED
PL6.E3A0      #006=DB_FUNC_FOR1 File=ZIU$DBFC.:ZIC0TSI                           FRI 09/05/97 13:12 Page:84
          MINI XREF LISTING

CAN_RVA
      1722**DCL      2701--DCLINIT  2709--ASSIGN
I
         9**DCL      2711<<DOINDEX  2712>>ASSIGN
I$FOR
      2685**DCL-ENT  2722--CALL
IA
      2041**DCL      2700--DCLINIT
IPT_FOR
      2700**DCL      2722<>CALL
IPT_FOR.V
      2702**DCL      2700--DCLINIT
IPT_FOR.V.RETENTION_LIST.RVA_OFFSET#
      2705**DCL      2712<<ASSIGN
IPT_FOR.V.RLCW.N_SETS#
      2705**DCL      2710<<ASSIGN
IPT_FOR.V.SC.SC_OFFSET#
      2702**DCL      2709<<ASSIGN
NUM_SETS
         7**DCL         6--PROC     2710>>ASSIGN   2711>>DOINDEX
RET_SETS
         8**DCL         6--PROC     2712>>ASSIGN
SC_OFF
      2053**DCL         6--PROC     2709--ASSIGN
USEP
      2059**DCL      2701--DCLINIT
UWA
       701**DCL      2701--DCLINIT
UWA.AC_REC.CALC_NEXT
       816**DCL       817--REDEF
UWA.AC_REC.CALC_PRIOR
       825**DCL       826--REDEF
PL6.E3A0      #006=DB_FUNC_FOR1 File=ZIU$DBFC.:ZIC0TSI                           FRI 09/05/97 13:12 Page:85
UWA.AC_REC.DEFAULTS
       774**DCL       775--REDEF
UWA.AC_REC.FILE_CODE
       779**DCL       780--REDEF
UWA.AC_REC.FLAG1.ERROR_TYPE
       776**DCL       777--REDEF
UWA.AC_REC.PG_TYPE
       791**DCL       792--REDEF
UWA.AD_REC.ADDATE
       756**DCL       757--REDEF
UWA.DB_STATUS
       704**DCL      2728>>IF

PL6.E3A0      #007=DB_FUNC_GET File=ZIU$DBFC.:ZIC0TSI                            FRI 09/05/97 13:12 Page:86
      163        1        /*T***********************************************************/
      164        2        /*T*                                                         */
      165        3        /*T* Copyright (c) Bull HN Information Systems Inc., 1997    */
      166        4        /*T*                                                         */
      167        5        /*T***********************************************************/
      168        6        DB_FUNC_GET: PROC(RC_OFF) ALTRET;
      169        7        /**/
      170        8        %INCLUDE ZI_UWA_C;
      171      698        %ZI$UWAB;
      172     1038        %INCLUDE ZI_RVA_C;
      173     1719        %CAN_RVA_REF;
      174     2038        %IA$MAC;
      175     2049        %DB_MAC;
      176     2056        %USEP_MAC;
      177     2064        %INCLUDE ZI_DBCS;
      178     2677        %ASL;
      179     2691        %IPT_GET (IAN=IA,UWAN=UWA,RVAN=CAN_RVA,USEPN=USEP);
      180     2703        /**/
      181     2704    1       IF RC_OFF = 0 THEN
      182     2705    1           IPT_GET.V.RC.RC_OFFSET#=POFFW(ADDR(CAN_RVA.NULL),ADDR(CAN_RVA));
      183     2706    1       ELSE
      184     2707    1           IPT_GET.V.RC.RC_OFFSET#=POFFW(ADDR(RC_OFF),ADDR(CAN_RVA));
      185     2708            %CLIMB(FCN=GET);
      186     2722    1       IF UWA.DB_STATUS ~= '00000' THEN ALTRETURN;
      187     2723    1   END DB_FUNC_GET;
      188     2724        %EOD;

PL6.E3A0      #007=DB_FUNC_GET File=ZIU$DBFC.:ZIC0TSI                            FRI 09/05/97 13:12 Page:87
--  Include file information  --

   ZI_DBCS.:ZIC0TOU  is referenced.
   ZI_RVA_C.:ZIC0TOU  is referenced.
   ZI_UWA_C.:ZIC0TOU  is referenced.
   B$JIT_C.:E05TOU  was found in the system file and is never referenced.
   CP_6_C.:E05TOU  was found in the system file and is never referenced.
      No diagnostics issued in procedure DB_FUNC_GET.

   Procedure DB_FUNC_GET requires 31 words for executable code.
   Procedure DB_FUNC_GET requires 10 words of local(AUTO) storage.

PL6.E3A0      #007=DB_FUNC_GET File=ZIU$DBFC.:ZIC0TSI                            FRI 09/05/97 13:12 Page:88

 Object Unit name= DB_FUNC_GET                                File name= ZIU$DBFC.:ZIC0TOU
 UTS= SEP 05 '97 13:12:29.84 FRI                              Compiler= PL-6/E31         Sev=      00
 SharedLib= :SHARED_SYSTEM                                    Alt SharedLib=


    ****  Control sections  ****

 Sect   Type Bound  Init  Size OctSiz  Section name(segment info)
    0   Data  even  none    16     20  DB_FUNC_GET
    1  RoData even  UTS      2      2  DB_FUNC_GET
    2   Proc  even  none    31     37  DB_FUNC_GET
    3  RoData even  none     2      2  DB_FUNC_GET

    ****  Entry defs  ****

                              Check   Calling
                             calling  sequence
  Sect OctLoc Primary Altret sequence   type   Parms  Name
     2      0   yes    yes     yes      Std        1  DB_FUNC_GET

  ****  Entry refs  ****

         Check        Calling
        calling       sequence
Altret sequence SRef   type   Args  Name
                       nStd      0 X66_AUTO_1
                       nStd      0 X66_AALT
                       nStd      0 X66_ARET

  ****  Data refs  ****

  Flags:  r = read only, s = secondary
Flgs Name                             Flgs Name                             Flgs Name
     I$GET                                 UWA                                   CAN_RVA
     IA
PL6.E3A0      #007=DB_FUNC_GET File=ZIU$DBFC.:ZIC0TSI                            FRI 09/05/97 13:12 Page:89

  ****  Segment refs  ****

  Flags:  r = read only, s = secondary
Flgs Name                             Flgs Name                             Flgs Name
     ISSID                                 ASLENTSID
PL6.E3A0      #007=DB_FUNC_GET File=ZIU$DBFC.:ZIC0TSI                            FRI 09/05/97 13:12 Page:90


      163        1        /*T***********************************************************/
      164        2        /*T*                                                         */
      165        3        /*T* Copyright (c) Bull HN Information Systems Inc., 1997    */
      166        4        /*T*                                                         */
      167        5        /*T***********************************************************/
      168        6        DB_FUNC_GET: PROC(RC_OFF) ALTRET;

      6  2 000000   000000 700200 xent  DB_FUNC_GET  TSX0  ! X66_AUTO_1
         2 000001   000012 000001                    ZERO    10,1

      169        7        /**/
      170        8        %INCLUDE ZI_UWA_C;
      171      698        %ZI$UWAB;
      172     1038        %INCLUDE ZI_RVA_C;
      173     1719        %CAN_RVA_REF;
      174     2038        %IA$MAC;
      175     2049        %DB_MAC;
      176     2056        %USEP_MAC;
      177     2064        %INCLUDE ZI_DBCS;
      178     2677        %ASL;
      179     2691        %IPT_GET (IAN=IA,UWAN=UWA,RVAN=CAN_RVA,USEPN=USEP);
      180     2703        /**/
      181     2704    1       IF RC_OFF = 0 THEN

   2704  2 000002   200003 470500                    LDP0    @RC_OFF,,AUTO
         2 000003   000000 220100                    LDX0    0,,PR0
         2 000004   000016 601000 2                  TNZ     s:2707

      182     2705    1           IPT_GET.V.RC.RC_OFFSET#=POFFW(ADDR(CAN_RVA.NULL),ADDR(CAN_RVA));

   2705  2 000005   000000 236000 3                  LDQ     0
         2 000006   000022 772000                    QRL     18
         2 000007   200010 756100                    STQ     RET_SET+1,,AUTO
         2 000010   000001 236000 3                  LDQ     1
         2 000011   000022 772000                    QRL     18
         2 000012   200010 136100                    SBLQ    RET_SET+1,,AUTO
PL6.E3A0      #007=DB_FUNC_GET File=ZIU$DBFC.:ZIC0TSI                            FRI 09/05/97 13:12 Page:91
         2 000013   000000 620006                    EAX0    0,QL
         2 000014   000016 740000 0                  STX0    IPT_GET+10
         2 000015   000026 710000 2                  TRA     s:2716

      183     2706    1       ELSE
      184     2707    1           IPT_GET.V.RC.RC_OFFSET#=POFFW(ADDR(RC_OFF),ADDR(CAN_RVA));

   2707  2 000016   000000 236000 3                  LDQ     0
         2 000017   000022 772000                    QRL     18
         2 000020   200010 756100                    STQ     RET_SET+1,,AUTO
         2 000021   200003 236100                    LDQ     @RC_OFF,,AUTO
         2 000022   000022 772000                    QRL     18
         2 000023   200010 136100                    SBLQ    RET_SET+1,,AUTO
         2 000024   000000 620006                    EAX0    0,QL
         2 000025   000016 740000 0                  STX0    IPT_GET+10

      185     2708            %CLIMB(FCN=GET);

   2716  2 000026   000004 630400 0                  EPPR0   IPT_GET
         2 000027   000000 713400 xsym               CLIMB   I$GET
         2 000030   402000 600000 xsid               climb   nvectors=         5

      186     2722    1       IF UWA.DB_STATUS ~= '00000' THEN ALTRETURN;

   2722  2 000031   040000 106400                    CMPC    fill='040'O
         2 000032   000001 400005 xsym               ADSC9   UWA+1                    cn=2,n=5
         2 000033   000000 000005 1                  ADSC9   0                        cn=0,n=5
         2 000034   000036 600000 2                  TZE     s:2723

   2722  2 000035   000000 702200 xent               TSX2  ! X66_AALT

      187     2723    1   END DB_FUNC_GET;

   2723  2 000036   000000 702200 xent               TSX2  ! X66_ARET

USEP
 Sect OctLoc
PL6.E3A0      #007=DB_FUNC_GET File=ZIU$DBFC.:ZIC0TSI                            FRI 09/05/97 13:12 Page:92
   0     000   000001 000000   003017 204400   000000 000000                    ............

IPT_GET
 Sect OctLoc
   0     004   000001 777640   000016 006000   000055 777640   000000 006000    .........-......
   0     010   001217 777640   000000 006000   000151 777640   000000 006000    .........i......
   0     014   000003 777640   000000 006000   000000 000000   ****** ******    ................

(unnamed)
 Sect OctLoc
   1     000   060060 060060   060040 040040                                    00000

(unnamed)
 Sect OctLoc
   3     000   000000 006000   000150 006000                                    .....h..
      188     2724        %EOD;

PL6.E3A0      #007=DB_FUNC_GET File=ZIU$DBFC.:ZIC0TSI                            FRI 09/05/97 13:12 Page:93
--  Include file information  --

   ZI_DBCS.:ZIC0TOU  is referenced.
   ZI_RVA_C.:ZIC0TOU  is referenced.
   ZI_UWA_C.:ZIC0TOU  is referenced.
   B$JIT_C.:E05TOU  was found in the system file and is never referenced.
   CP_6_C.:E05TOU  was found in the system file and is never referenced.
      No diagnostics issued in procedure DB_FUNC_GET.

   Procedure DB_FUNC_GET requires 31 words for executable code.
   Procedure DB_FUNC_GET requires 10 words of local(AUTO) storage.
PL6.E3A0      #007=DB_FUNC_GET File=ZIU$DBFC.:ZIC0TSI                            FRI 09/05/97 13:12 Page:94
          *** CROSS REFERENCE LISTING ***
**     DENOTES     IDENTIFIER DEFINITION
<<                 IDENTIFIER'S VALUE SET
>>                 IDENTIFIER'S VALUE USED
<>                 IDENTIFIER SET AND/OR USED
--                 IDENTIFIER REFERENCED
PL6.E3A0      #007=DB_FUNC_GET File=ZIU$DBFC.:ZIC0TSI                            FRI 09/05/97 13:12 Page:95
          MINI XREF LISTING

CAN_RVA
      1720**DCL      2699--DCLINIT  2705--ASSIGN   2707--ASSIGN
CAN_RVA.NULL
      2032**DCL      2705--ASSIGN
I$GET
      2685**DCL-ENT  2716--CALL
IA
      2039**DCL      2698--DCLINIT
IPT_GET
      2698**DCL      2716<>CALL
IPT_GET.V
      2700**DCL      2698--DCLINIT
IPT_GET.V.RC.RC_OFFSET#
      2700**DCL      2705<<ASSIGN   2707<<ASSIGN
RC_OFF
      2050**DCL         6--PROC     2704>>IF       2707--ASSIGN
USEP
      2057**DCL      2699--DCLINIT
UWA
       699**DCL      2699--DCLINIT
UWA.AC_REC.CALC_NEXT
       814**DCL       815--REDEF
UWA.AC_REC.CALC_PRIOR
       823**DCL       824--REDEF
UWA.AC_REC.DEFAULTS
       772**DCL       773--REDEF
UWA.AC_REC.FILE_CODE
       777**DCL       778--REDEF
UWA.AC_REC.FLAG1.ERROR_TYPE
       774**DCL       775--REDEF
UWA.AC_REC.PG_TYPE
       789**DCL       790--REDEF
PL6.E3A0      #007=DB_FUNC_GET File=ZIU$DBFC.:ZIC0TSI                            FRI 09/05/97 13:12 Page:96
UWA.AD_REC.ADDATE
       754**DCL       755--REDEF
UWA.DB_STATUS
       702**DCL      2722>>IF

PL6.E3A0      #008=DB_FUNC_NBF File=ZIU$DBFC.:ZIC0TSI                            FRI 09/05/97 13:12 Page:97
      189        1        /*T***********************************************************/
      190        2        /*T*                                                         */
      191        3        /*T* Copyright (c) Bull HN Information Systems Inc., 1997    */
      192        4        /*T*                                                         */
      193        5        /*T***********************************************************/
      194        6        DB_FUNC_NBF: PROC (BUFF) ALTRET;
      195        7    1   DCL BUFF SBIN(36) ALIGNED;
      196        8    1   DCL BUFALOC SBIN(36) ALIGNED;
      197        9        /**/
      198       10        %INCLUDE ZI_UWA_C;
      199      700        %ZI$UWAB;
      200     1040        %INCLUDE ZI_RVA_C;
      201     1721        %CAN_RVA_REF;
      202     2040        %IA$MAC;
      203     2051        %INCLUDE ZI_DBCS;
      204     2664        %ASL;
      205     2678        %IPT_NBF;
      206     2688        /**/
      207     2689    1       IPT_NBF.BUFFS_REQ_ = VECTOR(BUFF);
      208     2690    1       IPT_NBF.BUFFS_ALLOC_ = VECTOR(BUFALOC);
      209     2691            %CLIMB(FCN=NBF);
      210     2705    1       IF UWA.DB_STATUS ~= '00000' THEN ALTRETURN;
      211     2706    1   END DB_FUNC_NBF;
      212     2707        %EOD;

PL6.E3A0      #008=DB_FUNC_NBF File=ZIU$DBFC.:ZIC0TSI                            FRI 09/05/97 13:12 Page:98
--  Include file information  --

   ZI_DBCS.:ZIC0TOU  is referenced.
   ZI_RVA_C.:ZIC0TOU  is referenced.
   ZI_UWA_C.:ZIC0TOU  is referenced.
   B$JIT_C.:E05TOU  was found in the system file and is never referenced.
   CP_6_C.:E05TOU  was found in the system file and is never referenced.
      No diagnostics issued in procedure DB_FUNC_NBF.

   Procedure DB_FUNC_NBF requires 19 words for executable code.
   Procedure DB_FUNC_NBF requires 8 words of local(AUTO) storage.

PL6.E3A0      #008=DB_FUNC_NBF File=ZIU$DBFC.:ZIC0TSI                            FRI 09/05/97 13:12 Page:99

 Object Unit name= DB_FUNC_NBF                                File name= ZIU$DBFC.:ZIC0TOU
 UTS= SEP 05 '97 13:12:37.08 FRI                              Compiler= PL-6/E31         Sev=      00
 SharedLib= :SHARED_SYSTEM                                    Alt SharedLib=


    ****  Control sections  ****

 Sect   Type Bound  Init  Size OctSiz  Section name(segment info)
    0   Data  even  none     4      4  DB_FUNC_NBF
    1  RoData even  UTS      2      2  DB_FUNC_NBF
    2   Proc  even  none    19     23  DB_FUNC_NBF

    ****  Entry defs  ****

                              Check   Calling
                             calling  sequence
  Sect OctLoc Primary Altret sequence   type   Parms  Name
     2      0   yes    yes     yes      Std        1  DB_FUNC_NBF

  ****  Entry refs  ****

         Check        Calling
        calling       sequence
Altret sequence SRef   type   Args  Name
                       nStd      0 X66_AUTO_1
                       nStd      0 X66_AALT
                       nStd      0 X66_ARET

  ****  Data refs  ****

  Flags:  r = read only, s = secondary
Flgs Name                             Flgs Name                             Flgs Name
     I$NBF                                 UWA                                   CAN_RVA
     IA
PL6.E3A0      #008=DB_FUNC_NBF File=ZIU$DBFC.:ZIC0TSI                            FRI 09/05/97 13:12 Page:100

  ****  Segment refs  ****

  Flags:  r = read only, s = secondary
Flgs Name                             Flgs Name                             Flgs Name
     NULLSID                               ASLENTSID
PL6.E3A0      #008=DB_FUNC_NBF File=ZIU$DBFC.:ZIC0TSI                            FRI 09/05/97 13:12 Page:101


      189        1        /*T***********************************************************/
      190        2        /*T*                                                         */
      191        3        /*T* Copyright (c) Bull HN Information Systems Inc., 1997    */
      192        4        /*T*                                                         */
      193        5        /*T***********************************************************/
      194        6        DB_FUNC_NBF: PROC (BUFF) ALTRET;

      6  2 000000   000000 700200 xent  DB_FUNC_NBF  TSX0  ! X66_AUTO_1
         2 000001   000010 000001                    ZERO    8,1

      195        7    1   DCL BUFF SBIN(36) ALIGNED;
      196        8    1   DCL BUFALOC SBIN(36) ALIGNED;
      197        9        /**/
      198       10        %INCLUDE ZI_UWA_C;
      199      700        %ZI$UWAB;
      200     1040        %INCLUDE ZI_RVA_C;
      201     1721        %CAN_RVA_REF;
      202     2040        %IA$MAC;
      203     2051        %INCLUDE ZI_DBCS;
      204     2664        %ASL;
      205     2678        %IPT_NBF;
      206     2688        /**/
      207     2689    1       IPT_NBF.BUFFS_REQ_ = VECTOR(BUFF);

   2689  2 000002   777640 235007                    LDA     -96,DL
         2 000003   200003 236100                    LDQ     @BUFF,,AUTO
         2 000004   000000 757000 0                  STAQ    IPT_NBF

      208     2690    1       IPT_NBF.BUFFS_ALLOC_ = VECTOR(BUFALOC);

   2690  2 000005   777640 235007                    LDA     -96,DL
         2 000006   200006 452500                    STP2    BUFALOC+2,,AUTO
         2 000007   200006 236100                    LDQ     BUFALOC+2,,AUTO
         2 000010   000004 036003                    ADLQ    4,DU
         2 000011   000002 757000 0                  STAQ    IPT_NBF+2

PL6.E3A0      #008=DB_FUNC_NBF File=ZIU$DBFC.:ZIC0TSI                            FRI 09/05/97 13:12 Page:102
      209     2691            %CLIMB(FCN=NBF);

   2699  2 000012   000000 630400 0                  EPPR0   IPT_NBF
         2 000013   000000 713400 xsym               CLIMB   I$NBF
         2 000014   400400 600000 xsid               climb   nvectors=         2

      210     2705    1       IF UWA.DB_STATUS ~= '00000' THEN ALTRETURN;

   2705  2 000015   040000 106400                    CMPC    fill='040'O
         2 000016   000001 400005 xsym               ADSC9   UWA+1                    cn=2,n=5
         2 000017   000000 000005 1                  ADSC9   0                        cn=0,n=5
         2 000020   000022 600000 2                  TZE     s:2706

   2705  2 000021   000000 702200 xent               TSX2  ! X66_AALT

      211     2706    1   END DB_FUNC_NBF;

   2706  2 000022   000000 702200 xent               TSX2  ! X66_ARET

IPT_NBF
 Sect OctLoc
   0     000   000000 177640   000000 006014   000000 177640   000000 006014    ................

(unnamed)
 Sect OctLoc
   1     000   060060 060060   060040 040040                                    00000
      212     2707        %EOD;

PL6.E3A0      #008=DB_FUNC_NBF File=ZIU$DBFC.:ZIC0TSI                            FRI 09/05/97 13:12 Page:103
--  Include file information  --

   ZI_DBCS.:ZIC0TOU  is referenced.
   ZI_RVA_C.:ZIC0TOU  is referenced.
   ZI_UWA_C.:ZIC0TOU  is referenced.
   B$JIT_C.:E05TOU  was found in the system file and is never referenced.
   CP_6_C.:E05TOU  was found in the system file and is never referenced.
      No diagnostics issued in procedure DB_FUNC_NBF.

   Procedure DB_FUNC_NBF requires 19 words for executable code.
   Procedure DB_FUNC_NBF requires 8 words of local(AUTO) storage.
PL6.E3A0      #008=DB_FUNC_NBF File=ZIU$DBFC.:ZIC0TSI                            FRI 09/05/97 13:12 Page:104
          *** CROSS REFERENCE LISTING ***
**     DENOTES     IDENTIFIER DEFINITION
<<                 IDENTIFIER'S VALUE SET
>>                 IDENTIFIER'S VALUE USED
<>                 IDENTIFIER SET AND/OR USED
--                 IDENTIFIER REFERENCED
PL6.E3A0      #008=DB_FUNC_NBF File=ZIU$DBFC.:ZIC0TSI                            FRI 09/05/97 13:12 Page:105
          MINI XREF LISTING

BUFALOC
         8**DCL      2690--ASSIGN
BUFF
         7**DCL         6--PROC     2689--ASSIGN
I$NBF
      2676**DCL-ENT  2699--CALL
IPT_NBF
      2685**DCL      2699<>CALL
IPT_NBF.BUFFS_ALLOC_
      2685**DCL      2690<<ASSIGN
IPT_NBF.BUFFS_REQ_
      2685**DCL      2689<<ASSIGN
UWA.AC_REC.CALC_NEXT
       816**DCL       817--REDEF
UWA.AC_REC.CALC_PRIOR
       825**DCL       826--REDEF
UWA.AC_REC.DEFAULTS
       774**DCL       775--REDEF
UWA.AC_REC.FILE_CODE
       779**DCL       780--REDEF
UWA.AC_REC.FLAG1.ERROR_TYPE
       776**DCL       777--REDEF
UWA.AC_REC.PG_TYPE
       791**DCL       792--REDEF
UWA.AD_REC.ADDATE
       756**DCL       757--REDEF
UWA.DB_STATUS
       704**DCL      2705>>IF

PL6.E3A0      #009=DB_FUNC_FIN File=ZIU$DBFC.:ZIC0TSI                            FRI 09/05/97 13:12 Page:106
      213        1        /*T***********************************************************/
      214        2        /*T*                                                         */
      215        3        /*T* Copyright (c) Bull HN Information Systems Inc., 1997    */
      216        4        /*T*                                                         */
      217        5        /*T***********************************************************/
      218        6        DB_FUNC_FIN: PROC ALTRET;
      219        7        /**/
      220        8        %INCLUDE ZI_UWA_C;
      221      698        %ZI$UWAB;
      222     1038        %INCLUDE ZI_RVA_C;
      223     1719        %CAN_RVA_REF;
      224     2038        %IA$MAC;
      225     2049        %DB_MAC;
      226     2056        %USEP_MAC;
      227     2064        %INCLUDE ZI_DBCS;
      228     2677        %ASL;
      229     2691        %IPT_FIN (IAN=IA,UWAN=UWA,RVAN=CAN_RVA,USEPN=USEP);
      230     2704        /**/
      231     2705         %CLIMB(FCN=FIN);
      232     2719    1       IF UWA.DB_STATUS ~= '00000' THEN ALTRETURN;
      233     2720    1   END DB_FUNC_FIN;
      234     2721        %EOD;

PL6.E3A0      #009=DB_FUNC_FIN File=ZIU$DBFC.:ZIC0TSI                            FRI 09/05/97 13:12 Page:107
--  Include file information  --

   ZI_DBCS.:ZIC0TOU  is referenced.
   ZI_RVA_C.:ZIC0TOU  is referenced.
   ZI_UWA_C.:ZIC0TOU  is referenced.
   B$JIT_C.:E05TOU  was found in the system file and is never referenced.
   CP_6_C.:E05TOU  was found in the system file and is never referenced.
      No diagnostics issued in procedure DB_FUNC_FIN.

   Procedure DB_FUNC_FIN requires 11 words for executable code.
   Procedure DB_FUNC_FIN requires 8 words of local(AUTO) storage.

PL6.E3A0      #009=DB_FUNC_FIN File=ZIU$DBFC.:ZIC0TSI                            FRI 09/05/97 13:12 Page:108

 Object Unit name= DB_FUNC_FIN                                File name= ZIU$DBFC.:ZIC0TOU
 UTS= SEP 05 '97 13:12:43.56 FRI                              Compiler= PL-6/E31         Sev=      00
 SharedLib= :SHARED_SYSTEM                                    Alt SharedLib=


    ****  Control sections  ****

 Sect   Type Bound  Init  Size OctSiz  Section name(segment info)
    0   Data  even  none    16     20  DB_FUNC_FIN
    1  RoData even  UTS      2      2  DB_FUNC_FIN
    2   Proc  even  none    11     13  DB_FUNC_FIN

    ****  Entry defs  ****

                              Check   Calling
                             calling  sequence
  Sect OctLoc Primary Altret sequence   type   Parms  Name
     2      0   yes    yes     yes      Std        0  DB_FUNC_FIN

  ****  Entry refs  ****

         Check        Calling
        calling       sequence
Altret sequence SRef   type   Args  Name
                       nStd      0 X66_AUTO_0
                       nStd      0 X66_AALT
                       nStd      0 X66_ARET

  ****  Data refs  ****

  Flags:  r = read only, s = secondary
Flgs Name                             Flgs Name                             Flgs Name
     I$FIN                                 UWA                                   CAN_RVA
     IA
PL6.E3A0      #009=DB_FUNC_FIN File=ZIU$DBFC.:ZIC0TSI                            FRI 09/05/97 13:12 Page:109

  ****  Segment refs  ****

  Flags:  r = read only, s = secondary
Flgs Name                             Flgs Name                             Flgs Name
     ISSID                                 ASLENTSID
PL6.E3A0      #009=DB_FUNC_FIN File=ZIU$DBFC.:ZIC0TSI                            FRI 09/05/97 13:12 Page:110


      213        1        /*T***********************************************************/
      214        2        /*T*                                                         */
      215        3        /*T* Copyright (c) Bull HN Information Systems Inc., 1997    */
      216        4        /*T*                                                         */
      217        5        /*T***********************************************************/
      218        6        DB_FUNC_FIN: PROC ALTRET;

      6  2 000000   000000 700200 xent  DB_FUNC_FIN  TSX0  ! X66_AUTO_0
         2 000001   000010 000000                    ZERO    8,0

      219        7        /**/
      220        8        %INCLUDE ZI_UWA_C;
      221      698        %ZI$UWAB;
      222     1038        %INCLUDE ZI_RVA_C;
      223     1719        %CAN_RVA_REF;
      224     2038        %IA$MAC;
      225     2049        %DB_MAC;
      226     2056        %USEP_MAC;
      227     2064        %INCLUDE ZI_DBCS;
      228     2677        %ASL;
      229     2691        %IPT_FIN (IAN=IA,UWAN=UWA,RVAN=CAN_RVA,USEPN=USEP);
      230     2704        /**/
      231     2705         %CLIMB(FCN=FIN);

   2713  2 000002   000004 630400 0                  EPPR0   IPT_FIN
         2 000003   000000 713400 xsym               CLIMB   I$FIN
         2 000004   402000 600000 xsid               climb   nvectors=         5

      232     2719    1       IF UWA.DB_STATUS ~= '00000' THEN ALTRETURN;

   2719  2 000005   040000 106400                    CMPC    fill='040'O
         2 000006   000001 400005 xsym               ADSC9   UWA+1                    cn=2,n=5
         2 000007   000000 000005 1                  ADSC9   0                        cn=0,n=5
         2 000010   000012 600000 2                  TZE     s:2720

   2719  2 000011   000000 702200 xent               TSX2  ! X66_AALT
PL6.E3A0      #009=DB_FUNC_FIN File=ZIU$DBFC.:ZIC0TSI                            FRI 09/05/97 13:12 Page:111

      233     2720    1   END DB_FUNC_FIN;

   2720  2 000012   000000 702200 xent               TSX2  ! X66_ARET

USEP
 Sect OctLoc
   0     000   000001 000000   003017 204400   000000 000000                    ............

IPT_FIN
 Sect OctLoc
   0     004   000001 777640   000016 006000   000055 777640   000000 006000    .........-......
   0     010   001217 777640   000000 006000   000151 777640   000000 006000    .........i......
   0     014   000003 777640   000000 006000   000000 000000   000000 000000    ................

(unnamed)
 Sect OctLoc
   1     000   060060 060060   060040 040040                                    00000
      234     2721        %EOD;

PL6.E3A0      #009=DB_FUNC_FIN File=ZIU$DBFC.:ZIC0TSI                            FRI 09/05/97 13:12 Page:112
--  Include file information  --

   ZI_DBCS.:ZIC0TOU  is referenced.
   ZI_RVA_C.:ZIC0TOU  is referenced.
   ZI_UWA_C.:ZIC0TOU  is referenced.
   B$JIT_C.:E05TOU  was found in the system file and is never referenced.
   CP_6_C.:E05TOU  was found in the system file and is never referenced.
      No diagnostics issued in procedure DB_FUNC_FIN.

   Procedure DB_FUNC_FIN requires 11 words for executable code.
   Procedure DB_FUNC_FIN requires 8 words of local(AUTO) storage.
PL6.E3A0      #009=DB_FUNC_FIN File=ZIU$DBFC.:ZIC0TSI                            FRI 09/05/97 13:12 Page:113
          *** CROSS REFERENCE LISTING ***
**     DENOTES     IDENTIFIER DEFINITION
<<                 IDENTIFIER'S VALUE SET
>>                 IDENTIFIER'S VALUE USED
<>                 IDENTIFIER SET AND/OR USED
--                 IDENTIFIER REFERENCED
PL6.E3A0      #009=DB_FUNC_FIN File=ZIU$DBFC.:ZIC0TSI                            FRI 09/05/97 13:12 Page:114
          MINI XREF LISTING

CAN_RVA
      1720**DCL      2699--DCLINIT
I$FIN
      2679**DCL-ENT  2713--CALL
IA
      2039**DCL      2698--DCLINIT
IPT_FIN
      2698**DCL      2713<>CALL
IPT_FIN.V
      2700**DCL      2698--DCLINIT
USEP
      2057**DCL      2699--DCLINIT
UWA
       699**DCL      2699--DCLINIT
UWA.AC_REC.CALC_NEXT
       814**DCL       815--REDEF
UWA.AC_REC.CALC_PRIOR
       823**DCL       824--REDEF
UWA.AC_REC.DEFAULTS
       772**DCL       773--REDEF
UWA.AC_REC.FILE_CODE
       777**DCL       778--REDEF
UWA.AC_REC.FLAG1.ERROR_TYPE
       774**DCL       775--REDEF
UWA.AC_REC.PG_TYPE
       789**DCL       790--REDEF
UWA.AD_REC.ADDATE
       754**DCL       755--REDEF
UWA.DB_STATUS
       702**DCL      2719>>IF

PL6.E3A0      #010=ZIU$RVABDER File=ZIU$DBFC.:ZIC0TSI                            FRI 09/05/97 13:12 Page:115
      235        1        /*T***********************************************************/
      236        2        /*T*                                                         */
      237        3        /*T* Copyright (c) Bull HN Information Systems Inc., 1997    */
      238        4        /*T*                                                         */
      239        5        /*T***********************************************************/
      240        6        ZIU$RVABDER: PROC;
      241        7        %INCLUDE ZI_RVA_C;
      242      688        %CAN_RVA_REF;
      243     1007        %INCLUDE ZI_UWA_C;
      244     1697        %ZI$UWAB;
      245     2037    1   ZIC$RVABDER: ENTRY;
      246     2038        /* the above satisfies calls from the conversion routines */
      247     2039        /****************************************************************************/
      248     2040    1       CAN_RVA.SFREC.SEC = POFFW(ADDR(UWA.SF_REC.DBKOA),ADDR(UWA)) * 8;
      249     2041    1       CAN_RVA.ADREC.SEC = POFFW(ADDR(UWA.AD_REC.ADFUNC),ADDR(UWA)) * 8;
      250     2042    1       CAN_RVA.OAREC.SEC = POFFW(ADDR(UWA.OA_REC.CVOEX),ADDR(UWA)) * 8;
      251     2043    1       CAN_RVA.ACREC.SEC = POFFW(ADDR(UWA.AC_REC.SWS.CHECKSUM),ADDR(UWA)) * 8;
      252     2044    1       CAN_RVA.RCREC.SEC = POFFW(ADDR(UWA.RC_REC.RTYPE),ADDR(UWA)) * 8;
      253     2045    1       CAN_RVA.RAREC.SEC = POFFW(ADDR(UWA.RA_REC.LDBK),ADDR(UWA)) * 8;
      254     2046    1       CAN_RVA.FRREC.SEC = POFFW(ADDR(UWA.FR_REC.SYN),ADDR(UWA)) * 8;
      255     2047    1       CAN_RVA.SMREC.SEC = POFFW(ADDR(UWA.SM_REC.INSTYPE),ADDR(UWA)) * 8;
      256     2048    1       CAN_RVA.CFREC.SEC = POFFW(ADDR(UWA.CF_REC.SYN),ADDR(UWA)) * 8 ;
      257     2049    1       CAN_RVA.SNREC.SEC = POFFW(ADDR(UWA.SN_REC.SETYPE),ADDR(UWA)) * 8 ;
      258     2050    1       CAN_RVA.SOREC.SEC = POFFW(ADDR(UWA.SO_REC.PSEQ),ADDR(UWA)) * 8 ;
      259     2051    1       CAN_RVA.SCREC.SEC = POFFW(ADDR(UWA.SC_REC.SETTYPE),ADDR(UWA)) * 8 ;
      260     2052    1   END ZIU$RVABDER;

PL6.E3A0      #010=ZIU$RVABDER File=ZIU$DBFC.:ZIC0TSI                            FRI 09/05/97 13:12 Page:116
--  Include file information  --

   ZI_UWA_C.:ZIC0TOU  is referenced.
   ZI_RVA_C.:ZIC0TOU  is referenced.
   B$JIT_C.:E05TOU  was found in the system file and is never referenced.
   CP_6_C.:E05TOU  was found in the system file and is never referenced.
      No diagnostics issued in procedure ZIU$RVABDER.

   Procedure ZIU$RVABDER requires 114 words for executable code.
   Procedure ZIU$RVABDER requires 6 words of local(AUTO) storage.

    No errors detected in file ZIU$DBFC.:ZIC0TSI    .

PL6.E3A0      #010=ZIU$RVABDER File=ZIU$DBFC.:ZIC0TSI                            FRI 09/05/97 13:12 Page:117

 Object Unit name= ZIU$RVABDER                                File name= ZIU$DBFC.:ZIC0TOU
 UTS= SEP 05 '97 13:12:50.12 FRI                              Compiler= PL-6/E31         Sev=      00
 SharedLib= :SHARED_SYSTEM                                    Alt SharedLib=


    ****  Control sections  ****

 Sect   Type Bound  Init  Size OctSiz  Section name(segment info)
    0   Proc  even  none   114    162  ZIU$RVABDER
    1  RoData even  none    13     15  ZIU$RVABDER

    ****  Entry defs  ****

                              Check   Calling
                             calling  sequence
  Sect OctLoc Primary Altret sequence   type   Parms  Name
     0      0   yes            yes      Std        0  ZIU$RVABDER
     0      3                  yes      Std        0  ZIC$RVABDER

  ****  Entry refs  ****

         Check        Calling
        calling       sequence
Altret sequence SRef   type   Args  Name
                       nStd      0 X66_AUTO_0
                       nStd      0 X66_ARET

  ****  Data refs  ****

  Flags:  r = read only, s = secondary
Flgs Name                             Flgs Name                             Flgs Name
     CAN_RVA                               UWA
PL6.E3A0      #010=ZIU$RVABDER File=ZIU$DBFC.:ZIC0TSI                            FRI 09/05/97 13:12 Page:118

  ****  Segment refs  ****

  Flags:  r = read only, s = secondary
Flgs Name                             Flgs Name                             Flgs Name
     ISSID
PL6.E3A0      #010=ZIU$RVABDER File=ZIU$DBFC.:ZIC0TSI                            FRI 09/05/97 13:12 Page:119


      235        1        /*T***********************************************************/
      236        2        /*T*                                                         */
      237        3        /*T* Copyright (c) Bull HN Information Systems Inc., 1997    */
      238        4        /*T*                                                         */
      239        5        /*T***********************************************************/
      240        6        ZIU$RVABDER: PROC;

      6  0 000000   000000 700200 xent  ZIU$RVABDER  TSX0  ! X66_AUTO_0
         0 000001   000006 000000                    ZERO    6,0
         0 000002   000005 710000 0                  TRA     s:2040

      241        7        %INCLUDE ZI_RVA_C;
      242      688        %CAN_RVA_REF;
      243     1007        %INCLUDE ZI_UWA_C;
      244     1697        %ZI$UWAB;
      245     2037    1   ZIC$RVABDER: ENTRY;

   2037  0 000003   000000 700200 xent  ZIC$RVABDER  TSX0  ! X66_AUTO_0
         0 000004   000006 000000                    ZERO    6,0

      246     2038        /* the above satisfies calls from the conversion routines */
      247     2039        /****************************************************************************/
      248     2040    1       CAN_RVA.SFREC.SEC = POFFW(ADDR(UWA.SF_REC.DBKOA),ADDR(UWA)) * 8;

   2040  0 000005   000000 236000 1                  LDQ     0
         0 000006   000022 772000                    QRL     18
         0 000007   200004 756100                    STQ     4,,AUTO
         0 000010   000001 236000 1                  LDQ     1
         0 000011   000022 772000                    QRL     18
         0 000012   200004 136100                    SBLQ    4,,AUTO
         0 000013   000003 736000                    QLS     3
         0 000014   000000 620006                    EAX0    0,QL
         0 000015   000052 440000 xsym               SXL0    CAN_RVA+42

      249     2041    1       CAN_RVA.ADREC.SEC = POFFW(ADDR(UWA.AD_REC.ADFUNC),ADDR(UWA)) * 8;

PL6.E3A0      #010=ZIU$RVABDER File=ZIU$DBFC.:ZIC0TSI                            FRI 09/05/97 13:12 Page:120
   2041  0 000016   000000 236000 1                  LDQ     0
         0 000017   000022 772000                    QRL     18
         0 000020   200004 756100                    STQ     4,,AUTO
         0 000021   000002 236000 1                  LDQ     2
         0 000022   000022 772000                    QRL     18
         0 000023   200004 136100                    SBLQ    4,,AUTO
         0 000024   000003 736000                    QLS     3
         0 000025   000000 621006                    EAX1    0,QL
         0 000026   000061 441000 xsym               SXL1    CAN_RVA+49

      250     2042    1       CAN_RVA.OAREC.SEC = POFFW(ADDR(UWA.OA_REC.CVOEX),ADDR(UWA)) * 8;

   2042  0 000027   000000 236000 1                  LDQ     0
         0 000030   000022 772000                    QRL     18
         0 000031   200004 756100                    STQ     4,,AUTO
         0 000032   000003 236000 1                  LDQ     3
         0 000033   000022 772000                    QRL     18
         0 000034   200004 136100                    SBLQ    4,,AUTO
         0 000035   000003 736000                    QLS     3
         0 000036   000000 622006                    EAX2    0,QL
         0 000037   000062 442000 xsym               SXL2    CAN_RVA+50

      251     2043    1       CAN_RVA.ACREC.SEC = POFFW(ADDR(UWA.AC_REC.SWS.CHECKSUM),ADDR(UWA)) * 8;

   2043  0 000040   000000 236000 1                  LDQ     0
         0 000041   000022 772000                    QRL     18
         0 000042   200004 756100                    STQ     4,,AUTO
         0 000043   000004 236000 1                  LDQ     4
         0 000044   000022 772000                    QRL     18
         0 000045   200004 136100                    SBLQ    4,,AUTO
         0 000046   000003 736000                    QLS     3
         0 000047   000000 623006                    EAX3    0,QL
         0 000050   000063 443000 xsym               SXL3    CAN_RVA+51

      252     2044    1       CAN_RVA.RCREC.SEC = POFFW(ADDR(UWA.RC_REC.RTYPE),ADDR(UWA)) * 8;

   2044  0 000051   000000 236000 1                  LDQ     0
PL6.E3A0      #010=ZIU$RVABDER File=ZIU$DBFC.:ZIC0TSI                            FRI 09/05/97 13:12 Page:121
         0 000052   000022 772000                    QRL     18
         0 000053   200004 756100                    STQ     4,,AUTO
         0 000054   000005 236000 1                  LDQ     5
         0 000055   000022 772000                    QRL     18
         0 000056   200004 136100                    SBLQ    4,,AUTO
         0 000057   000003 736000                    QLS     3
         0 000060   000000 624006                    EAX4    0,QL
         0 000061   000064 444000 xsym               SXL4    CAN_RVA+52

      253     2045    1       CAN_RVA.RAREC.SEC = POFFW(ADDR(UWA.RA_REC.LDBK),ADDR(UWA)) * 8;

   2045  0 000062   000000 236000 1                  LDQ     0
         0 000063   000022 772000                    QRL     18
         0 000064   200004 756100                    STQ     4,,AUTO
         0 000065   000006 236000 1                  LDQ     6
         0 000066   000022 772000                    QRL     18
         0 000067   200004 136100                    SBLQ    4,,AUTO
         0 000070   000003 736000                    QLS     3
         0 000071   000000 625006                    EAX5    0,QL
         0 000072   000066 445000 xsym               SXL5    CAN_RVA+54

      254     2046    1       CAN_RVA.FRREC.SEC = POFFW(ADDR(UWA.FR_REC.SYN),ADDR(UWA)) * 8;

   2046  0 000073   000000 236000 1                  LDQ     0
         0 000074   000022 772000                    QRL     18
         0 000075   200004 756100                    STQ     4,,AUTO
         0 000076   000007 236000 1                  LDQ     7
         0 000077   000022 772000                    QRL     18
         0 000100   200004 136100                    SBLQ    4,,AUTO
         0 000101   000003 736000                    QLS     3
         0 000102   000000 626006                    EAX6    0,QL
         0 000103   000067 446000 xsym               SXL6    CAN_RVA+55

      255     2047    1       CAN_RVA.SMREC.SEC = POFFW(ADDR(UWA.SM_REC.INSTYPE),ADDR(UWA)) * 8;

   2047  0 000104   000000 236000 1                  LDQ     0
         0 000105   000022 772000                    QRL     18
PL6.E3A0      #010=ZIU$RVABDER File=ZIU$DBFC.:ZIC0TSI                            FRI 09/05/97 13:12 Page:122
         0 000106   200004 756100                    STQ     4,,AUTO
         0 000107   000010 236000 1                  LDQ     8
         0 000110   000022 772000                    QRL     18
         0 000111   200004 136100                    SBLQ    4,,AUTO
         0 000112   000003 736000                    QLS     3
         0 000113   000000 627006                    EAX7    0,QL
         0 000114   000071 447000 xsym               SXL7    CAN_RVA+57

      256     2048    1       CAN_RVA.CFREC.SEC = POFFW(ADDR(UWA.CF_REC.SYN),ADDR(UWA)) * 8 ;

   2048  0 000115   000000 236000 1                  LDQ     0
         0 000116   000022 772000                    QRL     18
         0 000117   200004 756100                    STQ     4,,AUTO
         0 000120   000011 236000 1                  LDQ     9
         0 000121   000022 772000                    QRL     18
         0 000122   200004 136100                    SBLQ    4,,AUTO
         0 000123   000003 736000                    QLS     3
         0 000124   000000 620006                    EAX0    0,QL
         0 000125   000073 440000 xsym               SXL0    CAN_RVA+59

      257     2049    1       CAN_RVA.SNREC.SEC = POFFW(ADDR(UWA.SN_REC.SETYPE),ADDR(UWA)) * 8 ;

   2049  0 000126   000000 236000 1                  LDQ     0
         0 000127   000022 772000                    QRL     18
         0 000130   200004 756100                    STQ     4,,AUTO
         0 000131   000012 236000 1                  LDQ     10
         0 000132   000022 772000                    QRL     18
         0 000133   200004 136100                    SBLQ    4,,AUTO
         0 000134   000003 736000                    QLS     3
         0 000135   000000 620006                    EAX0    0,QL
         0 000136   000075 440000 xsym               SXL0    CAN_RVA+61

      258     2050    1       CAN_RVA.SOREC.SEC = POFFW(ADDR(UWA.SO_REC.PSEQ),ADDR(UWA)) * 8 ;

   2050  0 000137   000000 236000 1                  LDQ     0
         0 000140   000022 772000                    QRL     18
         0 000141   200004 756100                    STQ     4,,AUTO
PL6.E3A0      #010=ZIU$RVABDER File=ZIU$DBFC.:ZIC0TSI                            FRI 09/05/97 13:12 Page:123
         0 000142   000013 236000 1                  LDQ     11
         0 000143   000022 772000                    QRL     18
         0 000144   200004 136100                    SBLQ    4,,AUTO
         0 000145   000003 736000                    QLS     3
         0 000146   000000 620006                    EAX0    0,QL
         0 000147   000070 440000 xsym               SXL0    CAN_RVA+56

      259     2051    1       CAN_RVA.SCREC.SEC = POFFW(ADDR(UWA.SC_REC.SETTYPE),ADDR(UWA)) * 8 ;

   2051  0 000150   000000 236000 1                  LDQ     0
         0 000151   000022 772000                    QRL     18
         0 000152   200004 756100                    STQ     4,,AUTO
         0 000153   000014 236000 1                  LDQ     12
         0 000154   000022 772000                    QRL     18
         0 000155   200004 136100                    SBLQ    4,,AUTO
         0 000156   000003 736000                    QLS     3
         0 000157   000000 620006                    EAX0    0,QL
         0 000160   000065 440000 xsym               SXL0    CAN_RVA+53

      260     2052    1   END ZIU$RVABDER;

   2052  0 000161   000000 702200 xent               TSX2  ! X66_ARET

(unnamed)
 Sect OctLoc
   1     000   000000 006000   000063 006000   000170 006000   000225 006000    .....3...x......
   1     004   000233 006000   000270 006000   000326 006000   000332 006000    ................
   1     010   000360 006000   000400 006000   000424 006000   000354 006000    ................
   1     014   000310 006000                                                    ....

PL6.E3A0      #010=ZIU$RVABDER File=ZIU$DBFC.:ZIC0TSI                            FRI 09/05/97 13:12 Page:124
--  Include file information  --

   ZI_UWA_C.:ZIC0TOU  is referenced.
   ZI_RVA_C.:ZIC0TOU  is referenced.
   B$JIT_C.:E05TOU  was found in the system file and is never referenced.
   CP_6_C.:E05TOU  was found in the system file and is never referenced.
      No diagnostics issued in procedure ZIU$RVABDER.

   Procedure ZIU$RVABDER requires 114 words for executable code.
   Procedure ZIU$RVABDER requires 6 words of local(AUTO) storage.

    No errors detected in file ZIU$DBFC.:ZIC0TSI    .
PL6.E3A0      #010=ZIU$RVABDER File=ZIU$DBFC.:ZIC0TSI                            FRI 09/05/97 13:12 Page:125
          *** CROSS REFERENCE LISTING ***
**     DENOTES     IDENTIFIER DEFINITION
<<                 IDENTIFIER'S VALUE SET
>>                 IDENTIFIER'S VALUE USED
<>                 IDENTIFIER SET AND/OR USED
--                 IDENTIFIER REFERENCED
PL6.E3A0      #010=ZIU$RVABDER File=ZIU$DBFC.:ZIC0TSI                            FRI 09/05/97 13:12 Page:126
          MINI XREF LISTING

CAN_RVA.ACREC.SEC
       844**DCL      2043<<ASSIGN
CAN_RVA.ADREC.SEC
       838**DCL      2041<<ASSIGN
CAN_RVA.CFREC.SEC
       868**DCL      2048<<ASSIGN
CAN_RVA.FRREC.SEC
       856**DCL      2046<<ASSIGN
CAN_RVA.OAREC.SEC
       841**DCL      2042<<ASSIGN
CAN_RVA.RAREC.SEC
       853**DCL      2045<<ASSIGN
CAN_RVA.RCREC.SEC
       847**DCL      2044<<ASSIGN
CAN_RVA.SCREC.SEC
       850**DCL      2051<<ASSIGN
CAN_RVA.SFREC.SEC
       817**DCL      2040<<ASSIGN
CAN_RVA.SMREC.SEC
       862**DCL      2047<<ASSIGN
CAN_RVA.SNREC.SEC
       874**DCL      2049<<ASSIGN
CAN_RVA.SOREC.SEC
       859**DCL      2050<<ASSIGN
UWA
      1698**DCL      2040--ASSIGN   2041--ASSIGN   2042--ASSIGN   2043--ASSIGN   2044--ASSIGN   2045--ASSIGN
      2046--ASSIGN   2047--ASSIGN   2048--ASSIGN   2049--ASSIGN   2050--ASSIGN   2051--ASSIGN
UWA.AC_REC.CALC_NEXT
      1813**DCL      1814--REDEF
UWA.AC_REC.CALC_PRIOR
      1822**DCL      1823--REDEF
UWA.AC_REC.DEFAULTS
PL6.E3A0      #010=ZIU$RVABDER File=ZIU$DBFC.:ZIC0TSI                            FRI 09/05/97 13:12 Page:127
      1771**DCL      1772--REDEF
UWA.AC_REC.FILE_CODE
      1776**DCL      1777--REDEF
UWA.AC_REC.FLAG1.ERROR_TYPE
      1773**DCL      1774--REDEF
UWA.AC_REC.PG_TYPE
      1788**DCL      1789--REDEF
UWA.AC_REC.SWS.CHECKSUM
      1778**DCL      2043--ASSIGN
UWA.AD_REC.ADDATE
      1753**DCL      1754--REDEF
UWA.AD_REC.ADFUNC
      1752**DCL      2041--ASSIGN
UWA.CF_REC.SYN
      1908**DCL      2048--ASSIGN
UWA.FR_REC.SYN
      1868**DCL      2046--ASSIGN
UWA.OA_REC.CVOEX
      1766**DCL      2042--ASSIGN
UWA.RA_REC.LDBK
      1863**DCL      2045--ASSIGN
UWA.RC_REC.RTYPE
      1832**DCL      2044--ASSIGN
UWA.SC_REC.SETTYPE
      1849**DCL      2051--ASSIGN
UWA.SF_REC.DBKOA
      1719**DCL      2040--ASSIGN
UWA.SM_REC.INSTYPE
      1890**DCL      2047--ASSIGN
UWA.SN_REC.SETYPE
      1929**DCL      2049--ASSIGN
UWA.SO_REC.PSEQ
      1886**DCL      2050--ASSIGN
