
PL6.E3A0      #001=DB_FUNC_HIA File=ZIU$DBFC_USER.:ZIC0TSI                       FRI 09/05/97 13:13 Page:1
        1        1        /*T***********************************************************/
        2        2        /*T*                                                         */
        3        3        /*T* Copyright (c) Bull HN Information Systems Inc., 1997    */
        4        4        /*T*                                                         */
        5        5        /*T***********************************************************/
        6        6        DB_FUNC_HIA: PROC(SCHNAM) ALTRET;
        7        7    1   DCL STAT_CHK ENTRY(1) ALTRET;
        8        8    1   DCL SCHNAM CHAR(30) ALIGNED;
        9        9        /**/
       10       10        %INCLUDE ZI_UWA_C;
       11      700        %ZI$UWAB;
       12     1040        %INCLUDE ZI_RVA_C;
       13     1721        %CAN_RVA_REF;
       14     2040        %IA_MAC;
       15     2051        %DB_MAC;
       16     2058        %USEP_MAC;
       17     2066        %INCLUDE ZI_DBCS;
       18     2679        %USER;
       19     2690        %IPT_HIA (IAN=IA,UWAN=UWA,RVAN=CAN_RVA,USEPN=USEP);
       20     2701        /**/
       21     2702    1       IA.SCH=SCHNAM;
       22     2703            %CLIMB(FCN=HIA);
       23     2717    1       CALL STAT_CHK(UWA.DB_STATUS) ALTRET(ALT_HIA);
       24     2718    1       RETURN;
       25     2719    1   ALT_HIA:
       26     2720    1       ALTRETURN;
       27     2721    1   END DB_FUNC_HIA;
       28     2722        %EOD;

PL6.E3A0      #001=DB_FUNC_HIA File=ZIU$DBFC_USER.:ZIC0TSI                       FRI 09/05/97 13:13 Page:2
--  Include file information  --

   ZI_DBCS.:ZIC0TOU  is referenced.
   ZI_RVA_C.:ZIC0TOU  is referenced.
   ZI_UWA_C.:ZIC0TOU  is referenced.
   B$JIT_C.:E05TOU  was found in the system file and is never referenced.
   CP_6_C.:E05TOU  was found in the system file and is never referenced.
      No diagnostics issued in procedure DB_FUNC_HIA.

   Procedure DB_FUNC_HIA requires 16 words for executable code.
   Procedure DB_FUNC_HIA requires 10 words of local(AUTO) storage.

PL6.E3A0      #001=DB_FUNC_HIA File=ZIU$DBFC_USER.:ZIC0TSI                       FRI 09/05/97 13:13 Page:3

 Object Unit name= DB_FUNC_HIA                                File name= ZIU$DBFC_USER.:ZIC0TOU
 UTS= SEP 05 '97 13:13:04.72 FRI                              Compiler= PL-6/E31         Sev=      00
 SharedLib= :SHARED_SYSTEM                                    Alt SharedLib=


    ****  Control sections  ****

 Sect   Type Bound  Init  Size OctSiz  Section name(segment info)
    0   Data  even  none    60     74  DB_FUNC_HIA
    1   Proc  even  none    16     20  DB_FUNC_HIA
    2  RoData even  none     3      3  DB_FUNC_HIA

    ****  Entry defs  ****

                              Check   Calling
                             calling  sequence
  Sect OctLoc Primary Altret sequence   type   Parms  Name
     1      0   yes    yes     yes      Std        1  DB_FUNC_HIA

  ****  Data defs  ****

 Sect OctLoc  Name                           Sect OctLoc  Name
    0      0  IA

  ****  Entry refs  ****

         Check        Calling
        calling       sequence
Altret sequence SRef   type   Args  Name
         yes           Std       1 U$HIA
 yes     yes           Std       1 STAT_CHK
                       nStd      0 X66_AUTO_1
                       nStd      0 X66_ARET
                       nStd      0 X66_AALT
PL6.E3A0      #001=DB_FUNC_HIA File=ZIU$DBFC_USER.:ZIC0TSI                       FRI 09/05/97 13:13 Page:4

  ****  Data refs  ****

  Flags:  r = read only, s = secondary
Flgs Name                             Flgs Name                             Flgs Name
     UWA                                   CAN_RVA

  ****  Segment refs  ****

  Flags:  r = read only, s = secondary
Flgs Name                             Flgs Name                             Flgs Name
     ISSID                                 NULLSID
PL6.E3A0      #001=DB_FUNC_HIA File=ZIU$DBFC_USER.:ZIC0TSI                       FRI 09/05/97 13:13 Page:5


        1        1        /*T***********************************************************/
        2        2        /*T*                                                         */
        3        3        /*T* Copyright (c) Bull HN Information Systems Inc., 1997    */
        4        4        /*T*                                                         */
        5        5        /*T***********************************************************/
        6        6        DB_FUNC_HIA: PROC(SCHNAM) ALTRET;

      6  1 000000   000000 700200 xent  DB_FUNC_HIA  TSX0  ! X66_AUTO_1
         1 000001   000012 000001                    ZERO    10,1

        7        7    1   DCL STAT_CHK ENTRY(1) ALTRET;
        8        8    1   DCL SCHNAM CHAR(30) ALIGNED;
        9        9        /**/
       10       10        %INCLUDE ZI_UWA_C;
       11      700        %ZI$UWAB;
       12     1040        %INCLUDE ZI_RVA_C;
       13     1721        %CAN_RVA_REF;
       14     2040        %IA_MAC;
       15     2051        %DB_MAC;
       16     2058        %USEP_MAC;
       17     2066        %INCLUDE ZI_DBCS;
       18     2679        %USER;
       19     2690        %IPT_HIA (IAN=IA,UWAN=UWA,RVAN=CAN_RVA,USEPN=USEP);
       20     2701        /**/
       21     2702    1       IA.SCH=SCHNAM;

   2702  1 000002   200003 470500                    LDP0    @SCHNAM,,AUTO
         1 000003   040000 100500                    MLR     fill='040'O
         1 000004   000000 000036                    ADSC9   0,,PR0                   cn=0,n=30
         1 000005   000012 000040 0                  ADSC9   IA+10                    cn=0,n=32

       22     2703            %CLIMB(FCN=HIA);

   2711  1 000006   000001 630400 2                  EPPR0   1
         1 000007   000000 631400 2                  EPPR1   0
         1 000010   000000 701000 xent               TSX1    U$HIA
PL6.E3A0      #001=DB_FUNC_HIA File=ZIU$DBFC_USER.:ZIC0TSI                       FRI 09/05/97 13:13 Page:6
         1 000011   000000 011000                    NOP     0

       23     2717    1       CALL STAT_CHK(UWA.DB_STATUS) ALTRET(ALT_HIA);

   2717  1 000012   000002 630400 2                  EPPR0   2
         1 000013   000000 631400 2                  EPPR1   0
         1 000014   000000 701000 xent               TSX1    STAT_CHK
         1 000015   000017 702000 1                  TSX2    ALT_HIA

       24     2718    1       RETURN;

   2718  1 000016   000000 702200 xent               TSX2  ! X66_ARET

       25     2719    1   ALT_HIA:
       26     2720    1       ALTRETURN;

   2720  1 000017   000000 702200 xent  ALT_HIA      TSX2  ! X66_AALT

IA
 Sect OctLoc
   0     000   000000 000000   000000 006000   ****** ******   ****** ******    ................
   0     010*  000000 006000   000000 000000   ****** ******   ****** ******    ................
   0     020*  ****** ******   ****** ******   123125 102064   040040 040040    ........SUB4
   0     024   040040 040040   040040 040040   040040 040040   040040 040040
   0     030   040040 040040   040040 040040   000000 000000   000000 000000            ........
   0     034   000000 000000   000000 000000   000000 000000   000000 000000    ................
   0     050*  000000 000000   000000 000000   000000 000000   ****** ******    ................
   0     054   ****** ******   ****** ******                                    ........

USEP
 Sect OctLoc
   0     056   000001 000000   003017 204400   000000 000000                    ............

IPT_HIA
 Sect OctLoc
   0     062   000000 177640   000000 006014   000055 777640   000000 006000    .........-......
   0     066   001217 777640   000000 006000   000151 777640   000000 006000    .........i......
PL6.E3A0      #001=DB_FUNC_HIA File=ZIU$DBFC_USER.:ZIC0TSI                       FRI 09/05/97 13:13 Page:7
   0     072   000003 777640   000056 006000                                    ........

(unnamed)
 Sect OctLoc
   2     000   000001 000000   000062 006000   000001 406000                    .....2......
       27     2721    1   END DB_FUNC_HIA;
       28     2722        %EOD;

PL6.E3A0      #001=DB_FUNC_HIA File=ZIU$DBFC_USER.:ZIC0TSI                       FRI 09/05/97 13:13 Page:8
--  Include file information  --

   ZI_DBCS.:ZIC0TOU  is referenced.
   ZI_RVA_C.:ZIC0TOU  is referenced.
   ZI_UWA_C.:ZIC0TOU  is referenced.
   B$JIT_C.:E05TOU  was found in the system file and is never referenced.
   CP_6_C.:E05TOU  was found in the system file and is never referenced.
      No diagnostics issued in procedure DB_FUNC_HIA.

   Procedure DB_FUNC_HIA requires 16 words for executable code.
   Procedure DB_FUNC_HIA requires 10 words of local(AUTO) storage.
PL6.E3A0      #001=DB_FUNC_HIA File=ZIU$DBFC_USER.:ZIC0TSI                       FRI 09/05/97 13:13 Page:9
          *** CROSS REFERENCE LISTING ***
**     DENOTES     IDENTIFIER DEFINITION
<<                 IDENTIFIER'S VALUE SET
>>                 IDENTIFIER'S VALUE USED
<>                 IDENTIFIER SET AND/OR USED
--                 IDENTIFIER REFERENCED
PL6.E3A0      #001=DB_FUNC_HIA File=ZIU$DBFC_USER.:ZIC0TSI                       FRI 09/05/97 13:13 Page:10
          MINI XREF LISTING

ALT_HIA
      2720**LABEL    2717--CALLALT
CAN_RVA
      1722**DCL      2045--DCLINIT  2698--DCLINIT
IA
      2041**DCL      2697--DCLINIT
IA.SCH
      2047**DCL      2702<<ASSIGN
IPT_HIA
      2697**DCL      2711<>CALL
SCHNAM
         8**DCL         6--PROC     2702>>ASSIGN
STAT_CHK
         7**DCL-ENT  2717--CALL
U$HIA
      2681**DCL-ENT  2711--CALL
USEP
      2059**DCL      2698--DCLINIT
UWA
       701**DCL      2043--DCLINIT  2698--DCLINIT
UWA.AC_REC.CALC_NEXT
       816**DCL       817--REDEF
UWA.AC_REC.CALC_PRIOR
       825**DCL       826--REDEF
UWA.AC_REC.DEFAULTS
       774**DCL       775--REDEF
UWA.AC_REC.FILE_CODE
       779**DCL       780--REDEF
UWA.AC_REC.FLAG1.ERROR_TYPE
       776**DCL       777--REDEF
UWA.AC_REC.PG_TYPE
       791**DCL       792--REDEF
PL6.E3A0      #001=DB_FUNC_HIA File=ZIU$DBFC_USER.:ZIC0TSI                       FRI 09/05/97 13:13 Page:11
UWA.AD_REC.ADDATE
       756**DCL       757--REDEF
UWA.DB_STATUS
       704**DCL      2717<>CALL

PL6.E3A0      #002=DB_FUNC_READY File=ZIU$DBFC_USER.:ZIC0TSI                     FRI 09/05/97 13:13 Page:12
       29        1        /*T***********************************************************/
       30        2        /*T*                                                         */
       31        3        /*T* Copyright (c) Bull HN Information Systems Inc., 1997    */
       32        4        /*T*                                                         */
       33        5        /*T***********************************************************/
       34        6        DB_FUNC_READY: PROC ALTRET;
       35        7    1   DCL STAT_CHK ENTRY(1) ALTRET;
       36        8        /**/
       37        9        %INCLUDE ZI_UWA_C;
       38      699        %ZI$UWAB;
       39     1039        %INCLUDE ZI_RVA_C;
       40     1720        %CAN_RVA_REF;
       41     2039        %IA$MAC;
       42     2050        %DB_MAC;
       43     2057        %USEP_MAC;
       44     2065        %INCLUDE ZI_DBCS;
       45     2678        %USER;
       46     2689        %IPT_RDY (IAN=IA,UWAN=UWA,RVAN=CAN_RVA,USEPN=USEP,READY_OPTION=INPUT);
       47     2703        /**/
       48     2704         %CLIMB(FCN=RDY);
       49     2718    1       CALL STAT_CHK(UWA.DB_STATUS) ALTRET(ALT_RDY);
       50     2719    1       RETURN;
       51     2720    1   ALT_RDY:
       52     2721    1       ALTRETURN;
       53     2722    1   END DB_FUNC_READY;
       54     2723        %EOD;

PL6.E3A0      #002=DB_FUNC_READY File=ZIU$DBFC_USER.:ZIC0TSI                     FRI 09/05/97 13:13 Page:13
--  Include file information  --

   ZI_DBCS.:ZIC0TOU  is referenced.
   ZI_RVA_C.:ZIC0TOU  is referenced.
   ZI_UWA_C.:ZIC0TOU  is referenced.
   B$JIT_C.:E05TOU  was found in the system file and is never referenced.
   CP_6_C.:E05TOU  was found in the system file and is never referenced.
      No diagnostics issued in procedure DB_FUNC_READY.

   Procedure DB_FUNC_READY requires 12 words for executable code.
   Procedure DB_FUNC_READY requires 8 words of local(AUTO) storage.

PL6.E3A0      #002=DB_FUNC_READY File=ZIU$DBFC_USER.:ZIC0TSI                     FRI 09/05/97 13:13 Page:14

 Object Unit name= DB_FUNC_READY                              File name= ZIU$DBFC_USER.:ZIC0TOU
 UTS= SEP 05 '97 13:13:11.36 FRI                              Compiler= PL-6/E31         Sev=      00
 SharedLib= :SHARED_SYSTEM                                    Alt SharedLib=


    ****  Control sections  ****

 Sect   Type Bound  Init  Size OctSiz  Section name(segment info)
    0   Data  even  none    16     20  DB_FUNC_READY
    1   Proc  even  none    12     14  DB_FUNC_READY
    2  RoData even  none     3      3  DB_FUNC_READY

    ****  Entry defs  ****

                              Check   Calling
                             calling  sequence
  Sect OctLoc Primary Altret sequence   type   Parms  Name
     1      0   yes    yes     yes      Std        0  DB_FUNC_READY

  ****  Entry refs  ****

         Check        Calling
        calling       sequence
Altret sequence SRef   type   Args  Name
         yes           Std       1 U$RDY
 yes     yes           Std       1 STAT_CHK
                       nStd      0 X66_AUTO_0
                       nStd      0 X66_ARET
                       nStd      0 X66_AALT

  ****  Data refs  ****

  Flags:  r = read only, s = secondary
Flgs Name                             Flgs Name                             Flgs Name
     UWA                                   CAN_RVA                               IA
PL6.E3A0      #002=DB_FUNC_READY File=ZIU$DBFC_USER.:ZIC0TSI                     FRI 09/05/97 13:13 Page:15

  ****  Segment refs  ****

  Flags:  r = read only, s = secondary
Flgs Name                             Flgs Name                             Flgs Name
     ISSID
PL6.E3A0      #002=DB_FUNC_READY File=ZIU$DBFC_USER.:ZIC0TSI                     FRI 09/05/97 13:13 Page:16


       29        1        /*T***********************************************************/
       30        2        /*T*                                                         */
       31        3        /*T* Copyright (c) Bull HN Information Systems Inc., 1997    */
       32        4        /*T*                                                         */
       33        5        /*T***********************************************************/
       34        6        DB_FUNC_READY: PROC ALTRET;

      6  1 000000   000000 700200 xent  DB_FUNC_REA* TSX0  ! X66_AUTO_0
         1 000001   000010 000000                    ZERO    8,0

       35        7    1   DCL STAT_CHK ENTRY(1) ALTRET;
       36        8        /**/
       37        9        %INCLUDE ZI_UWA_C;
       38      699        %ZI$UWAB;
       39     1039        %INCLUDE ZI_RVA_C;
       40     1720        %CAN_RVA_REF;
       41     2039        %IA$MAC;
       42     2050        %DB_MAC;
       43     2057        %USEP_MAC;
       44     2065        %INCLUDE ZI_DBCS;
       45     2678        %USER;
       46     2689        %IPT_RDY (IAN=IA,UWAN=UWA,RVAN=CAN_RVA,USEPN=USEP,READY_OPTION=INPUT);
       47     2703        /**/
       48     2704         %CLIMB(FCN=RDY);

   2712  1 000002   000001 630400 2                  EPPR0   1
         1 000003   000000 631400 2                  EPPR1   0
         1 000004   000000 701000 xent               TSX1    U$RDY
         1 000005   000000 011000                    NOP     0

       49     2718    1       CALL STAT_CHK(UWA.DB_STATUS) ALTRET(ALT_RDY);

   2718  1 000006   000002 630400 2                  EPPR0   2
         1 000007   000000 631400 2                  EPPR1   0
         1 000010   000000 701000 xent               TSX1    STAT_CHK
         1 000011   000013 702000 1                  TSX2    ALT_RDY
PL6.E3A0      #002=DB_FUNC_READY File=ZIU$DBFC_USER.:ZIC0TSI                     FRI 09/05/97 13:13 Page:17

       50     2719    1       RETURN;

   2719  1 000012   000000 702200 xent               TSX2  ! X66_ARET

       51     2720    1   ALT_RDY:
       52     2721    1       ALTRETURN;

   2721  1 000013   000000 702200 xent  ALT_RDY      TSX2  ! X66_AALT

USEP
 Sect OctLoc
   0     000   000001 000000   003017 204400   000000 000000                    ............

IPT_RDY
 Sect OctLoc
   0     004   000001 777640   000016 006000   000055 777640   000000 006000    .........-......
   0     010   001217 777640   000000 006000   000151 777640   000000 006000    .........i......
   0     014   000003 777640   000000 006000   000020 000000   000000 000000    ................

(unnamed)
 Sect OctLoc
   2     000   000001 000000   000004 006000   000001 406000                    ............
       53     2722    1   END DB_FUNC_READY;
       54     2723        %EOD;

PL6.E3A0      #002=DB_FUNC_READY File=ZIU$DBFC_USER.:ZIC0TSI                     FRI 09/05/97 13:13 Page:18
--  Include file information  --

   ZI_DBCS.:ZIC0TOU  is referenced.
   ZI_RVA_C.:ZIC0TOU  is referenced.
   ZI_UWA_C.:ZIC0TOU  is referenced.
   B$JIT_C.:E05TOU  was found in the system file and is never referenced.
   CP_6_C.:E05TOU  was found in the system file and is never referenced.
      No diagnostics issued in procedure DB_FUNC_READY.

   Procedure DB_FUNC_READY requires 12 words for executable code.
   Procedure DB_FUNC_READY requires 8 words of local(AUTO) storage.
PL6.E3A0      #002=DB_FUNC_READY File=ZIU$DBFC_USER.:ZIC0TSI                     FRI 09/05/97 13:13 Page:19
          *** CROSS REFERENCE LISTING ***
**     DENOTES     IDENTIFIER DEFINITION
<<                 IDENTIFIER'S VALUE SET
>>                 IDENTIFIER'S VALUE USED
<>                 IDENTIFIER SET AND/OR USED
--                 IDENTIFIER REFERENCED
PL6.E3A0      #002=DB_FUNC_READY File=ZIU$DBFC_USER.:ZIC0TSI                     FRI 09/05/97 13:13 Page:20
          MINI XREF LISTING

ALT_RDY
      2721**LABEL    2718--CALLALT
CAN_RVA
      1721**DCL      2697--DCLINIT
IA
      2040**DCL      2696--DCLINIT
IPT_RDY
      2696**DCL      2712<>CALL
IPT_RDY.V
      2698**DCL      2696--DCLINIT
STAT_CHK
         7**DCL-ENT  2718--CALL
U$RDY
      2680**DCL-ENT  2712--CALL
USEP
      2058**DCL      2697--DCLINIT
UWA
       700**DCL      2697--DCLINIT
UWA.AC_REC.CALC_NEXT
       815**DCL       816--REDEF
UWA.AC_REC.CALC_PRIOR
       824**DCL       825--REDEF
UWA.AC_REC.DEFAULTS
       773**DCL       774--REDEF
UWA.AC_REC.FILE_CODE
       778**DCL       779--REDEF
UWA.AC_REC.FLAG1.ERROR_TYPE
       775**DCL       776--REDEF
UWA.AC_REC.PG_TYPE
       790**DCL       791--REDEF
UWA.AD_REC.ADDATE
       755**DCL       756--REDEF
PL6.E3A0      #002=DB_FUNC_READY File=ZIU$DBFC_USER.:ZIC0TSI                     FRI 09/05/97 13:13 Page:21
UWA.DB_STATUS
       703**DCL      2718<>CALL

PL6.E3A0      #003=DB_FUNC_FDR File=ZIU$DBFC_USER.:ZIC0TSI                       FRI 09/05/97 13:13 Page:22
       55        1        /*T***********************************************************/
       56        2        /*T*                                                         */
       57        3        /*T* Copyright (c) Bull HN Information Systems Inc., 1997    */
       58        4        /*T*                                                         */
       59        5        /*T***********************************************************/
       60        6        DB_FUNC_FDR: PROC(RC_OFF,DB_DBK) ALTRET;
       61        7    1   DCL STAT_CHK ENTRY(1) ALTRET;
       62        8        /**/
       63        9        %INCLUDE ZI_UWA_C;
       64      699        %ZI$UWAB;
       65     1039        %INCLUDE ZI_RVA_C;
       66     1720        %CAN_RVA_REF;
       67     2039        %IA$MAC;
       68     2050        %DB_MAC;
       69     2057        %USEP_MAC;
       70     2065        %INCLUDE ZI_DBCS;
       71     2678        %USER;
       72     2689        %IPT_FDR (IAN=IA,UWAN=UWA,RVAN=CAN_RVA,USEPN=USEP);
       73     2705        /**/
       74     2706    1       IPT_FDR.V.RC.RC_OFFSET#=POFFW(ADDR(RC_OFF),ADDR(CAN_RVA));
       75     2707    1       IPT_FDR.DBK_=VECTOR(DB_DBK);
       76     2708            %CLIMB(FCN=FDR);
       77     2722    1       CALL STAT_CHK(UWA.DB_STATUS) ALTRET(ALT_FDR);
       78     2723    1       RETURN;
       79     2724    1   ALT_FDR:
       80     2725    1       ALTRETURN;
       81     2726    1   END DB_FUNC_FDR;
       82     2727        %EOD;

PL6.E3A0      #003=DB_FUNC_FDR File=ZIU$DBFC_USER.:ZIC0TSI                       FRI 09/05/97 13:13 Page:23
--  Include file information  --

   ZI_DBCS.:ZIC0TOU  is referenced.
   ZI_RVA_C.:ZIC0TOU  is referenced.
   ZI_UWA_C.:ZIC0TOU  is referenced.
   B$JIT_C.:E05TOU  was found in the system file and is never referenced.
   CP_6_C.:E05TOU  was found in the system file and is never referenced.
      No diagnostics issued in procedure DB_FUNC_FDR.

   Procedure DB_FUNC_FDR requires 23 words for executable code.
   Procedure DB_FUNC_FDR requires 10 words of local(AUTO) storage.

PL6.E3A0      #003=DB_FUNC_FDR File=ZIU$DBFC_USER.:ZIC0TSI                       FRI 09/05/97 13:13 Page:24

 Object Unit name= DB_FUNC_FDR                                File name= ZIU$DBFC_USER.:ZIC0TOU
 UTS= SEP 05 '97 13:13:18.04 FRI                              Compiler= PL-6/E31         Sev=      00
 SharedLib= :SHARED_SYSTEM                                    Alt SharedLib=


    ****  Control sections  ****

 Sect   Type Bound  Init  Size OctSiz  Section name(segment info)
    0   Data  even  none    20     24  DB_FUNC_FDR
    1   Proc  even  none    23     27  DB_FUNC_FDR
    2  RoData even  none     4      4  DB_FUNC_FDR

    ****  Entry defs  ****

                              Check   Calling
                             calling  sequence
  Sect OctLoc Primary Altret sequence   type   Parms  Name
     1      0   yes    yes     yes      Std        2  DB_FUNC_FDR

  ****  Entry refs  ****

         Check        Calling
        calling       sequence
Altret sequence SRef   type   Args  Name
         yes           Std       1 U$FDR
 yes     yes           Std       1 STAT_CHK
                       nStd      0 X66_AUTO_2
                       nStd      0 X66_ARET
                       nStd      0 X66_AALT

  ****  Data refs  ****

  Flags:  r = read only, s = secondary
Flgs Name                             Flgs Name                             Flgs Name
     UWA                                   CAN_RVA                               IA
PL6.E3A0      #003=DB_FUNC_FDR File=ZIU$DBFC_USER.:ZIC0TSI                       FRI 09/05/97 13:13 Page:25

  ****  Segment refs  ****

  Flags:  r = read only, s = secondary
Flgs Name                             Flgs Name                             Flgs Name
     ISSID                                 NULLSID
PL6.E3A0      #003=DB_FUNC_FDR File=ZIU$DBFC_USER.:ZIC0TSI                       FRI 09/05/97 13:13 Page:26


       55        1        /*T***********************************************************/
       56        2        /*T*                                                         */
       57        3        /*T* Copyright (c) Bull HN Information Systems Inc., 1997    */
       58        4        /*T*                                                         */
       59        5        /*T***********************************************************/
       60        6        DB_FUNC_FDR: PROC(RC_OFF,DB_DBK) ALTRET;

      6  1 000000   000000 700200 xent  DB_FUNC_FDR  TSX0  ! X66_AUTO_2
         1 000001   000012 000002                    ZERO    10,2

       61        7    1   DCL STAT_CHK ENTRY(1) ALTRET;
       62        8        /**/
       63        9        %INCLUDE ZI_UWA_C;
       64      699        %ZI$UWAB;
       65     1039        %INCLUDE ZI_RVA_C;
       66     1720        %CAN_RVA_REF;
       67     2039        %IA$MAC;
       68     2050        %DB_MAC;
       69     2057        %USEP_MAC;
       70     2065        %INCLUDE ZI_DBCS;
       71     2678        %USER;
       72     2689        %IPT_FDR (IAN=IA,UWAN=UWA,RVAN=CAN_RVA,USEPN=USEP);
       73     2705        /**/
       74     2706    1       IPT_FDR.V.RC.RC_OFFSET#=POFFW(ADDR(RC_OFF),ADDR(CAN_RVA));

   2706  1 000002   000000 236000 2                  LDQ     0
         1 000003   000022 772000                    QRL     18
         1 000004   200010 756100                    STQ     RET_SET+1,,AUTO
         1 000005   200003 236100                    LDQ     @RC_OFF,,AUTO
         1 000006   000022 772000                    QRL     18
         1 000007   200010 136100                    SBLQ    RET_SET+1,,AUTO
         1 000010   000000 620006                    EAX0    0,QL
         1 000011   000020 740000 0                  STX0    IPT_FDR+12

       75     2707    1       IPT_FDR.DBK_=VECTOR(DB_DBK);

PL6.E3A0      #003=DB_FUNC_FDR File=ZIU$DBFC_USER.:ZIC0TSI                       FRI 09/05/97 13:13 Page:27
   2707  1 000012   777640 235007                    LDA     -96,DL
         1 000013   200004 236100                    LDQ     @DB_DBK,,AUTO
         1 000014   000016 757000 0                  STAQ    IPT_FDR+10

       76     2708            %CLIMB(FCN=FDR);

   2716  1 000015   000002 630400 2                  EPPR0   2
         1 000016   000001 631400 2                  EPPR1   1
         1 000017   000000 701000 xent               TSX1    U$FDR
         1 000020   000000 011000                    NOP     0

       77     2722    1       CALL STAT_CHK(UWA.DB_STATUS) ALTRET(ALT_FDR);

   2722  1 000021   000003 630400 2                  EPPR0   3
         1 000022   000001 631400 2                  EPPR1   1
         1 000023   000000 701000 xent               TSX1    STAT_CHK
         1 000024   000026 702000 1                  TSX2    ALT_FDR

       78     2723    1       RETURN;

   2723  1 000025   000000 702200 xent               TSX2  ! X66_ARET

       79     2724    1   ALT_FDR:
       80     2725    1       ALTRETURN;

   2725  1 000026   000000 702200 xent  ALT_FDR      TSX2  ! X66_AALT

USEP
 Sect OctLoc
   0     000   000001 000000   003017 204400   000000 000000                    ............

IPT_FDR
 Sect OctLoc
   0     004   000003 777640   000020 006000   000055 777640   000000 006000    .........-......
   0     010   001217 777640   000000 006000   000151 777640   000000 006000    .........i......
   0     014   000003 777640   000000 006000   000000 177640   000000 006014    ................
   0     020   000000 000000   000000 000000   000000 000000   000000 000000    ................
PL6.E3A0      #003=DB_FUNC_FDR File=ZIU$DBFC_USER.:ZIC0TSI                       FRI 09/05/97 13:13 Page:28

(unnamed)
 Sect OctLoc
   2     000   000000 006000   000001 000000   000004 006000   000001 406000    ................
       81     2726    1   END DB_FUNC_FDR;
       82     2727        %EOD;

PL6.E3A0      #003=DB_FUNC_FDR File=ZIU$DBFC_USER.:ZIC0TSI                       FRI 09/05/97 13:13 Page:29
--  Include file information  --

   ZI_DBCS.:ZIC0TOU  is referenced.
   ZI_RVA_C.:ZIC0TOU  is referenced.
   ZI_UWA_C.:ZIC0TOU  is referenced.
   B$JIT_C.:E05TOU  was found in the system file and is never referenced.
   CP_6_C.:E05TOU  was found in the system file and is never referenced.
      No diagnostics issued in procedure DB_FUNC_FDR.

   Procedure DB_FUNC_FDR requires 23 words for executable code.
   Procedure DB_FUNC_FDR requires 10 words of local(AUTO) storage.
PL6.E3A0      #003=DB_FUNC_FDR File=ZIU$DBFC_USER.:ZIC0TSI                       FRI 09/05/97 13:13 Page:30
          *** CROSS REFERENCE LISTING ***
**     DENOTES     IDENTIFIER DEFINITION
<<                 IDENTIFIER'S VALUE SET
>>                 IDENTIFIER'S VALUE USED
<>                 IDENTIFIER SET AND/OR USED
--                 IDENTIFIER REFERENCED
PL6.E3A0      #003=DB_FUNC_FDR File=ZIU$DBFC_USER.:ZIC0TSI                       FRI 09/05/97 13:13 Page:31
          MINI XREF LISTING

ALT_FDR
      2725**LABEL    2722--CALLALT
CAN_RVA
      1721**DCL      2697--DCLINIT  2706--ASSIGN
DB_DBK
      2053**DCL         6--PROC     2707--ASSIGN
IA
      2040**DCL      2696--DCLINIT
IPT_FDR
      2696**DCL      2716<>CALL
IPT_FDR.DBK_
      2698**DCL      2707<<ASSIGN
IPT_FDR.V
      2698**DCL      2696--DCLINIT
IPT_FDR.V.RC.RC_OFFSET#
      2698**DCL      2706<<ASSIGN
RC_OFF
      2051**DCL         6--PROC     2706--ASSIGN
STAT_CHK
         7**DCL-ENT  2722--CALL
U$FDR
      2683**DCL-ENT  2716--CALL
USEP
      2058**DCL      2697--DCLINIT
UWA
       700**DCL      2697--DCLINIT
UWA.AC_REC.CALC_NEXT
       815**DCL       816--REDEF
UWA.AC_REC.CALC_PRIOR
       824**DCL       825--REDEF
UWA.AC_REC.DEFAULTS
       773**DCL       774--REDEF
PL6.E3A0      #003=DB_FUNC_FDR File=ZIU$DBFC_USER.:ZIC0TSI                       FRI 09/05/97 13:13 Page:32
UWA.AC_REC.FILE_CODE
       778**DCL       779--REDEF
UWA.AC_REC.FLAG1.ERROR_TYPE
       775**DCL       776--REDEF
UWA.AC_REC.PG_TYPE
       790**DCL       791--REDEF
UWA.AD_REC.ADDATE
       755**DCL       756--REDEF
UWA.DB_STATUS
       703**DCL      2722<>CALL

PL6.E3A0      #004=DB_FUNC_FRS File=ZIU$DBFC_USER.:ZIC0TSI                       FRI 09/05/97 13:13 Page:33
       83        1        /*T***********************************************************/
       84        2        /*T*                                                         */
       85        3        /*T* Copyright (c) Bull HN Information Systems Inc., 1997    */
       86        4        /*T*                                                         */
       87        5        /*T***********************************************************/
       88        6        DB_FUNC_FRS: PROC(RC_OFF,SC_OFF) ALTRET;
       89        7    1   DCL STAT_CHK ENTRY(1) ALTRET;
       90        8        /**/
       91        9        %INCLUDE ZI_UWA_C;
       92      699        %ZI$UWAB;
       93     1039        %INCLUDE ZI_RVA_C;
       94     1720        %CAN_RVA_REF;
       95     2039        %IA$MAC;
       96     2050        %DB_MAC;
       97     2057        %USEP_MAC;
       98     2065        %INCLUDE ZI_DBCS;
       99     2678        %USER;
      100     2689        %IPT_FRS (IAN=IA,UWAN=UWA,RVAN=CAN_RVA,USEPN=USEP,RECORD_LOCATION=NEXT);
      101     2706        %IPT_FRA (IAN=IA,UWAN=UWA,RVAN=CAN_RVA,USEPN=USEP,RECORD_LOCATION=NEXT);
      102     2723        /**/
      103     2724    1       IF RC_OFF = 0 THEN
      104     2725    1           IPT_FRS.V.RC.RC_OFFSET#=POFFW(ADDR(CAN_RVA.NULL),ADDR(CAN_RVA));
      105     2726    1       ELSE
      106     2727    1           IPT_FRS.V.RC.RC_OFFSET#=POFFW(ADDR(RC_OFF),ADDR(CAN_RVA));
      107     2728    1       IPT_FRS.V.SC.SC_OFFSET#=POFFW(ADDR(SC_OFF),ADDR(CAN_RVA));
      108     2729            %CLIMB(FCN=FRS);
      109     2743    1       CALL STAT_CHK(UWA.DB_STATUS) ALTRET(ALT_FRS);
      110     2744    1       RETURN;
      111     2745    1   ALT_FRS:
      112     2746    1       ALTRETURN;
      113     2747
      114     2748    1   DB_FUNC_FRA: ENTRY(RC_OFF) ALTRET;
      115     2749
      116     2750    1       IPT_FRA.V.RC.RC_OFFSET#= POFFW(ADDR(RC_OFF),ADDR(CAN_RVA));
      117     2751    1       IPT_FRA.V.AC.AC_OFFSET#=
      118     2752    1          POFFW(ADDR(CAN_RVA.THISISATHIRTYCHARACTERDATANAME),
      119     2753    1          ADDR(CAN_RVA));
PL6.E3A0      #004=DB_FUNC_FRS File=ZIU$DBFC_USER.:ZIC0TSI                       FRI 09/05/97 13:13 Page:34
      120     2754            %CLIMB(FCN=FRA);
      121     2768    1       CALL STAT_CHK(UWA.DB_STATUS) ALTRET(ALT_FRA);
      122     2769    1       RETURN;
      123     2770    1   ALT_FRA:
      124     2771    1       ALTRETURN;
      125     2772    1   END DB_FUNC_FRS;
      126     2773        %EOD;

PL6.E3A0      #004=DB_FUNC_FRS File=ZIU$DBFC_USER.:ZIC0TSI                       FRI 09/05/97 13:13 Page:35
--  Include file information  --

   ZI_DBCS.:ZIC0TOU  is referenced.
   ZI_RVA_C.:ZIC0TOU  is referenced.
   ZI_UWA_C.:ZIC0TOU  is referenced.
   B$JIT_C.:E05TOU  was found in the system file and is never referenced.
   CP_6_C.:E05TOU  was found in the system file and is never referenced.
      No diagnostics issued in procedure DB_FUNC_FRS.

   Procedure DB_FUNC_FRS requires 68 words for executable code.
   Procedure DB_FUNC_FRS requires 10 words of local(AUTO) storage.

PL6.E3A0      #004=DB_FUNC_FRS File=ZIU$DBFC_USER.:ZIC0TSI                       FRI 09/05/97 13:13 Page:36

 Object Unit name= DB_FUNC_FRS                                File name= ZIU$DBFC_USER.:ZIC0TOU
 UTS= SEP 05 '97 13:13:24.72 FRI                              Compiler= PL-6/E31         Sev=      00
 SharedLib= :SHARED_SYSTEM                                    Alt SharedLib=


    ****  Control sections  ****

 Sect   Type Bound  Init  Size OctSiz  Section name(segment info)
    0   Data  even  none    36     44  DB_FUNC_FRS
    1   Proc  even  none    68    104  DB_FUNC_FRS
    2  RoData even  none     7      7  DB_FUNC_FRS

    ****  Entry defs  ****

                              Check   Calling
                             calling  sequence
  Sect OctLoc Primary Altret sequence   type   Parms  Name
     1      0   yes    yes     yes      Std        2  DB_FUNC_FRS
     1     50          yes     yes      Std        1  DB_FUNC_FRA

  ****  Entry refs  ****

         Check        Calling
        calling       sequence
Altret sequence SRef   type   Args  Name
         yes           Std       1 U$FRS
 yes     yes           Std       1 STAT_CHK
         yes           Std       1 U$FRA
                       nStd      0 X66_AUTO_2
                       nStd      0 X66_ARET
                       nStd      0 X66_AALT
PL6.E3A0      #004=DB_FUNC_FRS File=ZIU$DBFC_USER.:ZIC0TSI                       FRI 09/05/97 13:13 Page:37

  ****  Data refs  ****

  Flags:  r = read only, s = secondary
Flgs Name                             Flgs Name                             Flgs Name
     UWA                                   CAN_RVA                               IA

  ****  Segment refs  ****

  Flags:  r = read only, s = secondary
Flgs Name                             Flgs Name                             Flgs Name
     ISSID
PL6.E3A0      #004=DB_FUNC_FRS File=ZIU$DBFC_USER.:ZIC0TSI                       FRI 09/05/97 13:13 Page:38


       83        1        /*T***********************************************************/
       84        2        /*T*                                                         */
       85        3        /*T* Copyright (c) Bull HN Information Systems Inc., 1997    */
       86        4        /*T*                                                         */
       87        5        /*T***********************************************************/
       88        6        DB_FUNC_FRS: PROC(RC_OFF,SC_OFF) ALTRET;

      6  1 000000   000000 700200 xent  DB_FUNC_FRS  TSX0  ! X66_AUTO_2
         1 000001   000012 000002                    ZERO    10,2

       89        7    1   DCL STAT_CHK ENTRY(1) ALTRET;
       90        8        /**/
       91        9        %INCLUDE ZI_UWA_C;
       92      699        %ZI$UWAB;
       93     1039        %INCLUDE ZI_RVA_C;
       94     1720        %CAN_RVA_REF;
       95     2039        %IA$MAC;
       96     2050        %DB_MAC;
       97     2057        %USEP_MAC;
       98     2065        %INCLUDE ZI_DBCS;
       99     2678        %USER;
      100     2689        %IPT_FRS (IAN=IA,UWAN=UWA,RVAN=CAN_RVA,USEPN=USEP,RECORD_LOCATION=NEXT);
      101     2706        %IPT_FRA (IAN=IA,UWAN=UWA,RVAN=CAN_RVA,USEPN=USEP,RECORD_LOCATION=NEXT);
      102     2723        /**/
      103     2724    1       IF RC_OFF = 0 THEN

   2724  1 000002   200003 470500                    LDP0    @RC_OFF,,AUTO
         1 000003   000000 220100                    LDX0    0,,PR0
         1 000004   000016 601000 1                  TNZ     s:2727

      104     2725    1           IPT_FRS.V.RC.RC_OFFSET#=POFFW(ADDR(CAN_RVA.NULL),ADDR(CAN_RVA));

   2725  1 000005   000000 236000 2                  LDQ     0
         1 000006   000022 772000                    QRL     18
         1 000007   200010 756100                    STQ     RET_SET+1,,AUTO
         1 000010   000001 236000 2                  LDQ     1
PL6.E3A0      #004=DB_FUNC_FRS File=ZIU$DBFC_USER.:ZIC0TSI                       FRI 09/05/97 13:13 Page:39
         1 000011   000022 772000                    QRL     18
         1 000012   200010 136100                    SBLQ    RET_SET+1,,AUTO
         1 000013   000000 620006                    EAX0    0,QL
         1 000014   000017 740000 0                  STX0    IPT_FRS+11
         1 000015   000026 710000 1                  TRA     s:2728

      105     2726    1       ELSE
      106     2727    1           IPT_FRS.V.RC.RC_OFFSET#=POFFW(ADDR(RC_OFF),ADDR(CAN_RVA));

   2727  1 000016   000000 236000 2                  LDQ     0
         1 000017   000022 772000                    QRL     18
         1 000020   200010 756100                    STQ     RET_SET+1,,AUTO
         1 000021   200003 236100                    LDQ     @RC_OFF,,AUTO
         1 000022   000022 772000                    QRL     18
         1 000023   200010 136100                    SBLQ    RET_SET+1,,AUTO
         1 000024   000000 620006                    EAX0    0,QL
         1 000025   000017 740000 0                  STX0    IPT_FRS+11

      107     2728    1       IPT_FRS.V.SC.SC_OFFSET#=POFFW(ADDR(SC_OFF),ADDR(CAN_RVA));

   2728  1 000026   000000 236000 2                  LDQ     0
         1 000027   000022 772000                    QRL     18
         1 000030   200010 756100                    STQ     RET_SET+1,,AUTO
         1 000031   200004 236100                    LDQ     @SC_OFF,,AUTO
         1 000032   000022 772000                    QRL     18
         1 000033   200010 136100                    SBLQ    RET_SET+1,,AUTO
         1 000034   000000 621006                    EAX1    0,QL
         1 000035   000020 741000 0                  STX1    IPT_FRS+12

      108     2729            %CLIMB(FCN=FRS);

   2737  1 000036   000003 630400 2                  EPPR0   3
         1 000037   000002 631400 2                  EPPR1   2
         1 000040   000000 701000 xent               TSX1    U$FRS
         1 000041   000000 011000                    NOP     0

      109     2743    1       CALL STAT_CHK(UWA.DB_STATUS) ALTRET(ALT_FRS);
PL6.E3A0      #004=DB_FUNC_FRS File=ZIU$DBFC_USER.:ZIC0TSI                       FRI 09/05/97 13:13 Page:40

   2743  1 000042   000004 630400 2                  EPPR0   4
         1 000043   000002 631400 2                  EPPR1   2
         1 000044   000000 701000 xent               TSX1    STAT_CHK
         1 000045   000047 702000 1                  TSX2    ALT_FRS

      110     2744    1       RETURN;

   2744  1 000046   000000 702200 xent               TSX2  ! X66_ARET

      111     2745    1   ALT_FRS:
      112     2746    1       ALTRETURN;

   2746  1 000047   000000 702200 xent  ALT_FRS      TSX2  ! X66_AALT

      113     2747
      114     2748    1   DB_FUNC_FRA: ENTRY(RC_OFF) ALTRET;

   2748  1 000050   000000 700200 xent  DB_FUNC_FRA  TSX0  ! X66_AUTO_2
         1 000051   000012 000002                    ZERO    10,2

      115     2749
      116     2750    1       IPT_FRA.V.RC.RC_OFFSET#= POFFW(ADDR(RC_OFF),ADDR(CAN_RVA));

   2750  1 000052   000000 236000 2                  LDQ     0
         1 000053   000022 772000                    QRL     18
         1 000054   200010 756100                    STQ     RET_SET+1,,AUTO
         1 000055   200003 236100                    LDQ     @RC_OFF,,AUTO
         1 000056   000022 772000                    QRL     18
         1 000057   200010 136100                    SBLQ    RET_SET+1,,AUTO
         1 000060   000000 620006                    EAX0    0,QL
         1 000061   000037 740000 0                  STX0    IPT_FRA+11

      117     2751    1       IPT_FRA.V.AC.AC_OFFSET#=

   2751  1 000062   000000 236000 2                  LDQ     0
         1 000063   000022 772000                    QRL     18
PL6.E3A0      #004=DB_FUNC_FRS File=ZIU$DBFC_USER.:ZIC0TSI                       FRI 09/05/97 13:13 Page:41
         1 000064   200010 756100                    STQ     RET_SET+1,,AUTO
         1 000065   000005 236000 2                  LDQ     5
         1 000066   000022 772000                    QRL     18
         1 000067   200010 136100                    SBLQ    RET_SET+1,,AUTO
         1 000070   000000 621006                    EAX1    0,QL
         1 000071   000040 741000 0                  STX1    IPT_FRA+12

      118     2752    1          POFFW(ADDR(CAN_RVA.THISISATHIRTYCHARACTERDATANAME),
      119     2753    1          ADDR(CAN_RVA));
      120     2754            %CLIMB(FCN=FRA);

   2762  1 000072   000006 630400 2                  EPPR0   6
         1 000073   000002 631400 2                  EPPR1   2
         1 000074   000000 701000 xent               TSX1    U$FRA
         1 000075   000000 011000                    NOP     0

      121     2768    1       CALL STAT_CHK(UWA.DB_STATUS) ALTRET(ALT_FRA);

   2768  1 000076   000004 630400 2                  EPPR0   4
         1 000077   000002 631400 2                  EPPR1   2
         1 000100   000000 701000 xent               TSX1    STAT_CHK
         1 000101   000103 702000 1                  TSX2    ALT_FRA

      122     2769    1       RETURN;

   2769  1 000102   000000 702200 xent               TSX2  ! X66_ARET

      123     2770    1   ALT_FRA:
      124     2771    1       ALTRETURN;

   2771  1 000103   000000 702200 xent  ALT_FRA      TSX2  ! X66_AALT

USEP
 Sect OctLoc
   0     000   000001 000000   003017 204400   000000 000000                    ............

IPT_FRS
PL6.E3A0      #004=DB_FUNC_FRS File=ZIU$DBFC_USER.:ZIC0TSI                       FRI 09/05/97 13:13 Page:42
 Sect OctLoc
   0     004   000005 777640   000016 006000   000055 777640   000000 006000    .........-......
   0     010   001217 777640   000000 006000   000151 777640   000000 006000    .........i......
   0     014   000003 777640   000000 006000   000002 000000   000000 000000    ................
   0     020   000000 000000   000000 000000   000000 000000   ****** ******    ................

IPT_FRA
 Sect OctLoc
   0     024   000005 777640   000036 006000   000055 777640   000000 006000    .........-......
   0     030   001217 777640   000000 006000   000151 777640   000000 006000    .........i......
   0     034   000003 777640   000000 006000   000002 000000   000000 000000    ................
   0     040   000000 000000   000000 000000   000000 000000   ****** ******    ................

(unnamed)
 Sect OctLoc
   2     000   000000 006000   000150 006000   000001 000000   000004 006000    .....h..........
   2     004   000001 406000   000151 406000   000024 006000                    .....i......
      125     2772    1   END DB_FUNC_FRS;
      126     2773        %EOD;

PL6.E3A0      #004=DB_FUNC_FRS File=ZIU$DBFC_USER.:ZIC0TSI                       FRI 09/05/97 13:13 Page:43
--  Include file information  --

   ZI_DBCS.:ZIC0TOU  is referenced.
   ZI_RVA_C.:ZIC0TOU  is referenced.
   ZI_UWA_C.:ZIC0TOU  is referenced.
   B$JIT_C.:E05TOU  was found in the system file and is never referenced.
   CP_6_C.:E05TOU  was found in the system file and is never referenced.
      No diagnostics issued in procedure DB_FUNC_FRS.

   Procedure DB_FUNC_FRS requires 68 words for executable code.
   Procedure DB_FUNC_FRS requires 10 words of local(AUTO) storage.
PL6.E3A0      #004=DB_FUNC_FRS File=ZIU$DBFC_USER.:ZIC0TSI                       FRI 09/05/97 13:13 Page:44
          *** CROSS REFERENCE LISTING ***
**     DENOTES     IDENTIFIER DEFINITION
<<                 IDENTIFIER'S VALUE SET
>>                 IDENTIFIER'S VALUE USED
<>                 IDENTIFIER SET AND/OR USED
--                 IDENTIFIER REFERENCED
PL6.E3A0      #004=DB_FUNC_FRS File=ZIU$DBFC_USER.:ZIC0TSI                       FRI 09/05/97 13:13 Page:45
          MINI XREF LISTING

ALT_FRA
      2771**LABEL    2768--CALLALT
ALT_FRS
      2746**LABEL    2743--CALLALT
CAN_RVA
      1721**DCL      2697--DCLINIT  2714--DCLINIT  2725--ASSIGN   2727--ASSIGN   2728--ASSIGN   2750--ASSIGN
      2751--ASSIGN
CAN_RVA.NULL
      2033**DCL      2725--ASSIGN
CAN_RVA.THISISATHIRTYCHARACTERDATANAME
      2037**DCL      2751--ASSIGN
IA
      2040**DCL      2696--DCLINIT  2713--DCLINIT
IPT_FRA
      2713**DCL      2762<>CALL
IPT_FRA.V
      2715**DCL      2713--DCLINIT
IPT_FRA.V.AC.AC_OFFSET#
      2717**DCL      2751<<ASSIGN
IPT_FRA.V.RC.RC_OFFSET#
      2716**DCL      2750<<ASSIGN
IPT_FRS
      2696**DCL      2737<>CALL
IPT_FRS.V
      2698**DCL      2696--DCLINIT
IPT_FRS.V.RC.RC_OFFSET#
      2699**DCL      2725<<ASSIGN   2727<<ASSIGN
IPT_FRS.V.SC.SC_OFFSET#
      2700**DCL      2728<<ASSIGN
RC_OFF
      2051**DCL         6--PROC     2724>>IF       2727--ASSIGN   2748--ENTRY    2750--ASSIGN
SC_OFF
PL6.E3A0      #004=DB_FUNC_FRS File=ZIU$DBFC_USER.:ZIC0TSI                       FRI 09/05/97 13:13 Page:46
      2052**DCL         6--PROC     2728--ASSIGN
STAT_CHK
         7**DCL-ENT  2743--CALL     2768--CALL
U$FRA
      2683**DCL-ENT  2762--CALL
U$FRS
      2683**DCL-ENT  2737--CALL
USEP
      2058**DCL      2697--DCLINIT  2714--DCLINIT
UWA
       700**DCL      2697--DCLINIT  2714--DCLINIT
UWA.AC_REC.CALC_NEXT
       815**DCL       816--REDEF
UWA.AC_REC.CALC_PRIOR
       824**DCL       825--REDEF
UWA.AC_REC.DEFAULTS
       773**DCL       774--REDEF
UWA.AC_REC.FILE_CODE
       778**DCL       779--REDEF
UWA.AC_REC.FLAG1.ERROR_TYPE
       775**DCL       776--REDEF
UWA.AC_REC.PG_TYPE
       790**DCL       791--REDEF
UWA.AD_REC.ADDATE
       755**DCL       756--REDEF
UWA.DB_STATUS
       703**DCL      2743<>CALL     2768<>CALL

PL6.E3A0      #005=DB_FUNC_FOR File=ZIU$DBFC_USER.:ZIC0TSI                       FRI 09/05/97 13:13 Page:47
      127        1        /*T***********************************************************/
      128        2        /*T*                                                         */
      129        3        /*T* Copyright (c) Bull HN Information Systems Inc., 1997    */
      130        4        /*T*                                                         */
      131        5        /*T***********************************************************/
      132        6        DB_FUNC_FOR: PROC(SC_OFF) ALTRET;
      133        7    1   DCL STAT_CHK ENTRY(1) ALTRET;
      134        8        /**/
      135        9        %INCLUDE ZI_UWA_C;
      136      699        %ZI$UWAB;
      137     1039        %INCLUDE ZI_RVA_C;
      138     1720        %CAN_RVA_REF;
      139     2039        %IA$MAC;
      140     2050        %DB_MAC;
      141     2057        %USEP_MAC;
      142     2065        %INCLUDE ZI_DBCS;
      143     2678        %USER;
      144     2689        %IPT_FOR (IAN=IA,UWAN=UWA,RVAN=CAN_RVA,USEPN=USEP);
      145     2704        /**/
      146     2705    1       IPT_FOR.V.SC.SC_OFFSET#=POFFW(ADDR(SC_OFF),ADDR(CAN_RVA));
      147     2706            %CLIMB(FCN=FOR);
      148     2720    1       CALL STAT_CHK(UWA.DB_STATUS) ALTRET(ALT_FOR);
      149     2721    1       RETURN;
      150     2722    1   ALT_FOR:
      151     2723    1       ALTRETURN;
      152     2724    1   END DB_FUNC_FOR;
      153     2725        %EOD;

PL6.E3A0      #005=DB_FUNC_FOR File=ZIU$DBFC_USER.:ZIC0TSI                       FRI 09/05/97 13:13 Page:48
--  Include file information  --

   ZI_DBCS.:ZIC0TOU  is referenced.
   ZI_RVA_C.:ZIC0TOU  is referenced.
   ZI_UWA_C.:ZIC0TOU  is referenced.
   B$JIT_C.:E05TOU  was found in the system file and is never referenced.
   CP_6_C.:E05TOU  was found in the system file and is never referenced.
      No diagnostics issued in procedure DB_FUNC_FOR.

   Procedure DB_FUNC_FOR requires 20 words for executable code.
   Procedure DB_FUNC_FOR requires 10 words of local(AUTO) storage.

PL6.E3A0      #005=DB_FUNC_FOR File=ZIU$DBFC_USER.:ZIC0TSI                       FRI 09/05/97 13:13 Page:49

 Object Unit name= DB_FUNC_FOR                                File name= ZIU$DBFC_USER.:ZIC0TOU
 UTS= SEP 05 '97 13:13:32.20 FRI                              Compiler= PL-6/E31         Sev=      00
 SharedLib= :SHARED_SYSTEM                                    Alt SharedLib=


    ****  Control sections  ****

 Sect   Type Bound  Init  Size OctSiz  Section name(segment info)
    0   Data  even  none    18     22  DB_FUNC_FOR
    1   Proc  even  none    20     24  DB_FUNC_FOR
    2  RoData even  none     4      4  DB_FUNC_FOR

    ****  Entry defs  ****

                              Check   Calling
                             calling  sequence
  Sect OctLoc Primary Altret sequence   type   Parms  Name
     1      0   yes    yes     yes      Std        1  DB_FUNC_FOR

  ****  Entry refs  ****

         Check        Calling
        calling       sequence
Altret sequence SRef   type   Args  Name
         yes           Std       1 U$FOR
 yes     yes           Std       1 STAT_CHK
                       nStd      0 X66_AUTO_1
                       nStd      0 X66_ARET
                       nStd      0 X66_AALT

  ****  Data refs  ****

  Flags:  r = read only, s = secondary
Flgs Name                             Flgs Name                             Flgs Name
     UWA                                   CAN_RVA                               IA
PL6.E3A0      #005=DB_FUNC_FOR File=ZIU$DBFC_USER.:ZIC0TSI                       FRI 09/05/97 13:13 Page:50

  ****  Segment refs  ****

  Flags:  r = read only, s = secondary
Flgs Name                             Flgs Name                             Flgs Name
     ISSID
PL6.E3A0      #005=DB_FUNC_FOR File=ZIU$DBFC_USER.:ZIC0TSI                       FRI 09/05/97 13:13 Page:51


      127        1        /*T***********************************************************/
      128        2        /*T*                                                         */
      129        3        /*T* Copyright (c) Bull HN Information Systems Inc., 1997    */
      130        4        /*T*                                                         */
      131        5        /*T***********************************************************/
      132        6        DB_FUNC_FOR: PROC(SC_OFF) ALTRET;

      6  1 000000   000000 700200 xent  DB_FUNC_FOR  TSX0  ! X66_AUTO_1
         1 000001   000012 000001                    ZERO    10,1

      133        7    1   DCL STAT_CHK ENTRY(1) ALTRET;
      134        8        /**/
      135        9        %INCLUDE ZI_UWA_C;
      136      699        %ZI$UWAB;
      137     1039        %INCLUDE ZI_RVA_C;
      138     1720        %CAN_RVA_REF;
      139     2039        %IA$MAC;
      140     2050        %DB_MAC;
      141     2057        %USEP_MAC;
      142     2065        %INCLUDE ZI_DBCS;
      143     2678        %USER;
      144     2689        %IPT_FOR (IAN=IA,UWAN=UWA,RVAN=CAN_RVA,USEPN=USEP);
      145     2704        /**/
      146     2705    1       IPT_FOR.V.SC.SC_OFFSET#=POFFW(ADDR(SC_OFF),ADDR(CAN_RVA));

   2705  1 000002   000000 236000 2                  LDQ     0
         1 000003   000022 772000                    QRL     18
         1 000004   200010 756100                    STQ     RET_SET+1,,AUTO
         1 000005   200003 236100                    LDQ     @SC_OFF,,AUTO
         1 000006   000022 772000                    QRL     18
         1 000007   200010 136100                    SBLQ    RET_SET+1,,AUTO
         1 000010   000000 620006                    EAX0    0,QL
         1 000011   000016 740000 0                  STX0    IPT_FOR+10

      147     2706            %CLIMB(FCN=FOR);

PL6.E3A0      #005=DB_FUNC_FOR File=ZIU$DBFC_USER.:ZIC0TSI                       FRI 09/05/97 13:13 Page:52
   2714  1 000012   000002 630400 2                  EPPR0   2
         1 000013   000001 631400 2                  EPPR1   1
         1 000014   000000 701000 xent               TSX1    U$FOR
         1 000015   000000 011000                    NOP     0

      148     2720    1       CALL STAT_CHK(UWA.DB_STATUS) ALTRET(ALT_FOR);

   2720  1 000016   000003 630400 2                  EPPR0   3
         1 000017   000001 631400 2                  EPPR1   1
         1 000020   000000 701000 xent               TSX1    STAT_CHK
         1 000021   000023 702000 1                  TSX2    ALT_FOR

      149     2721    1       RETURN;

   2721  1 000022   000000 702200 xent               TSX2  ! X66_ARET

      150     2722    1   ALT_FOR:
      151     2723    1       ALTRETURN;

   2723  1 000023   000000 702200 xent  ALT_FOR      TSX2  ! X66_AALT

USEP
 Sect OctLoc
   0     000   000001 000000   003017 204400   000000 000000                    ............

IPT_FOR
 Sect OctLoc
   0     004   000003 777640   000016 006000   000055 777640   000000 006000    .........-......
   0     010   001217 777640   000000 006000   000151 777640   000000 006000    .........i......
   0     014   000003 777640   000000 006000   000000 000000   000000 000000    ................
   0     020   000000 000000   ****** ******                                    ........

(unnamed)
 Sect OctLoc
   2     000   000000 006000   000001 000000   000004 006000   000001 406000    ................
      152     2724    1   END DB_FUNC_FOR;
      153     2725        %EOD;
PL6.E3A0      #005=DB_FUNC_FOR File=ZIU$DBFC_USER.:ZIC0TSI                       FRI 09/05/97 13:13 Page:53

PL6.E3A0      #005=DB_FUNC_FOR File=ZIU$DBFC_USER.:ZIC0TSI                       FRI 09/05/97 13:13 Page:54
--  Include file information  --

   ZI_DBCS.:ZIC0TOU  is referenced.
   ZI_RVA_C.:ZIC0TOU  is referenced.
   ZI_UWA_C.:ZIC0TOU  is referenced.
   B$JIT_C.:E05TOU  was found in the system file and is never referenced.
   CP_6_C.:E05TOU  was found in the system file and is never referenced.
      No diagnostics issued in procedure DB_FUNC_FOR.

   Procedure DB_FUNC_FOR requires 20 words for executable code.
   Procedure DB_FUNC_FOR requires 10 words of local(AUTO) storage.
PL6.E3A0      #005=DB_FUNC_FOR File=ZIU$DBFC_USER.:ZIC0TSI                       FRI 09/05/97 13:13 Page:55
          *** CROSS REFERENCE LISTING ***
**     DENOTES     IDENTIFIER DEFINITION
<<                 IDENTIFIER'S VALUE SET
>>                 IDENTIFIER'S VALUE USED
<>                 IDENTIFIER SET AND/OR USED
--                 IDENTIFIER REFERENCED
PL6.E3A0      #005=DB_FUNC_FOR File=ZIU$DBFC_USER.:ZIC0TSI                       FRI 09/05/97 13:13 Page:56
          MINI XREF LISTING

ALT_FOR
      2723**LABEL    2720--CALLALT
CAN_RVA
      1721**DCL      2697--DCLINIT  2705--ASSIGN
IA
      2040**DCL      2696--DCLINIT
IPT_FOR
      2696**DCL      2714<>CALL
IPT_FOR.V
      2698**DCL      2696--DCLINIT
IPT_FOR.V.SC.SC_OFFSET#
      2698**DCL      2705<<ASSIGN
SC_OFF
      2052**DCL         6--PROC     2705--ASSIGN
STAT_CHK
         7**DCL-ENT  2720--CALL
U$FOR
      2682**DCL-ENT  2714--CALL
USEP
      2058**DCL      2697--DCLINIT
UWA
       700**DCL      2697--DCLINIT
UWA.AC_REC.CALC_NEXT
       815**DCL       816--REDEF
UWA.AC_REC.CALC_PRIOR
       824**DCL       825--REDEF
UWA.AC_REC.DEFAULTS
       773**DCL       774--REDEF
UWA.AC_REC.FILE_CODE
       778**DCL       779--REDEF
UWA.AC_REC.FLAG1.ERROR_TYPE
       775**DCL       776--REDEF
PL6.E3A0      #005=DB_FUNC_FOR File=ZIU$DBFC_USER.:ZIC0TSI                       FRI 09/05/97 13:13 Page:57
UWA.AC_REC.PG_TYPE
       790**DCL       791--REDEF
UWA.AD_REC.ADDATE
       755**DCL       756--REDEF
UWA.DB_STATUS
       703**DCL      2720<>CALL

PL6.E3A0      #006=DB_FUNC_FOR1 File=ZIU$DBFC_USER.:ZIC0TSI                      FRI 09/05/97 13:13 Page:58
      154        1        /*T***********************************************************/
      155        2        /*T*                                                         */
      156        3        /*T* Copyright (c) Bull HN Information Systems Inc., 1997    */
      157        4        /*T*                                                         */
      158        5        /*T***********************************************************/
      159        6        DB_FUNC_FOR1: PROC(SC_OFF,NUM_SETS,RET_SETS) ALTRET;
      160        7    1   DCL STAT_CHK ENTRY(1) ALTRET;
      161        8    1   DCL NUM_SETS UBIN WORD ALIGNED;
      162        9    1   DCL RET_SETS UBIN(18) ALIGNED;
      163       10    1   DCL I UBIN(36) STATIC ALIGNED;
      164       11        %INCLUDE ZI_UWA_C;
      165      701        %ZI$UWAB;
      166     1041        %INCLUDE ZI_RVA_C;
      167     1722        %CAN_RVA_REF;
      168     2041        %IA$MAC;
      169     2052        %DB_MAC;
      170     2059        %USEP_MAC;
      171     2067        %INCLUDE ZI_DBCS;
      172     2680        %USER;
      173     2691        %IPT_FOR (IAN=IA,UWAN=UWA,RVAN=CAN_RVA,USEPN=USEP);
      174     2706        /**/
      175     2707    1       IPT_FOR.V.SC.SC_OFFSET#=POFFW(ADDR(SC_OFF),ADDR(CAN_RVA));
      176     2708    1       IPT_FOR.V.RLCW.N_SETS#=NUM_SETS-1;
      177     2709    2       DO I=0 TO NUM_SETS-1 BY 1;
      178     2710    2           IPT_FOR.V.RETENTION_LIST.RVA_OFFSET#(I)=RET_SETS;
      179     2711    2           END;
      180     2712            %CLIMB(FCN=FOR);
      181     2726    1       CALL STAT_CHK(UWA.DB_STATUS) ALTRET(ALT_FOR);
      182     2727    1       RETURN;
      183     2728    1   ALT_FOR:
      184     2729    1       ALTRETURN;
      185     2730    1   END DB_FUNC_FOR1;
      186     2731        %EOD;

PL6.E3A0      #006=DB_FUNC_FOR1 File=ZIU$DBFC_USER.:ZIC0TSI                      FRI 09/05/97 13:13 Page:59
--  Include file information  --

   ZI_DBCS.:ZIC0TOU  is referenced.
   ZI_RVA_C.:ZIC0TOU  is referenced.
   ZI_UWA_C.:ZIC0TOU  is referenced.
   B$JIT_C.:E05TOU  was found in the system file and is never referenced.
   CP_6_C.:E05TOU  was found in the system file and is never referenced.
      No diagnostics issued in procedure DB_FUNC_FOR1.

   Procedure DB_FUNC_FOR1 requires 39 words for executable code.
   Procedure DB_FUNC_FOR1 requires 12 words of local(AUTO) storage.

PL6.E3A0      #006=DB_FUNC_FOR1 File=ZIU$DBFC_USER.:ZIC0TSI                      FRI 09/05/97 13:13 Page:60

 Object Unit name= DB_FUNC_FOR1                               File name= ZIU$DBFC_USER.:ZIC0TOU
 UTS= SEP 05 '97 13:13:38.80 FRI                              Compiler= PL-6/E31         Sev=      00
 SharedLib= :SHARED_SYSTEM                                    Alt SharedLib=


    ****  Control sections  ****

 Sect   Type Bound  Init  Size OctSiz  Section name(segment info)
    0   Data  even  none    20     24  DB_FUNC_FOR1
    1   Proc  even  none    39     47  DB_FUNC_FOR1
    2  RoData even  none     4      4  DB_FUNC_FOR1

    ****  Entry defs  ****

                              Check   Calling
                             calling  sequence
  Sect OctLoc Primary Altret sequence   type   Parms  Name
     1      0   yes    yes     yes      Std        3  DB_FUNC_FOR1

  ****  Entry refs  ****

         Check        Calling
        calling       sequence
Altret sequence SRef   type   Args  Name
         yes           Std       1 U$FOR
 yes     yes           Std       1 STAT_CHK
                       nStd      0 X66_AUTO_3
                       nStd      0 X66_ARET
                       nStd      0 X66_AALT

  ****  Data refs  ****

  Flags:  r = read only, s = secondary
Flgs Name                             Flgs Name                             Flgs Name
     UWA                                   CAN_RVA                               IA
PL6.E3A0      #006=DB_FUNC_FOR1 File=ZIU$DBFC_USER.:ZIC0TSI                      FRI 09/05/97 13:13 Page:61

  ****  Segment refs  ****

  Flags:  r = read only, s = secondary
Flgs Name                             Flgs Name                             Flgs Name
     ISSID
PL6.E3A0      #006=DB_FUNC_FOR1 File=ZIU$DBFC_USER.:ZIC0TSI                      FRI 09/05/97 13:13 Page:62


      154        1        /*T***********************************************************/
      155        2        /*T*                                                         */
      156        3        /*T* Copyright (c) Bull HN Information Systems Inc., 1997    */
      157        4        /*T*                                                         */
      158        5        /*T***********************************************************/
      159        6        DB_FUNC_FOR1: PROC(SC_OFF,NUM_SETS,RET_SETS) ALTRET;

      6  1 000000   000000 700200 xent  DB_FUNC_FOR1 TSX0  ! X66_AUTO_3
         1 000001   000014 000003                    ZERO    12,3

      160        7    1   DCL STAT_CHK ENTRY(1) ALTRET;
      161        8    1   DCL NUM_SETS UBIN WORD ALIGNED;
      162        9    1   DCL RET_SETS UBIN(18) ALIGNED;
      163       10    1   DCL I UBIN(36) STATIC ALIGNED;
      164       11        %INCLUDE ZI_UWA_C;
      165      701        %ZI$UWAB;
      166     1041        %INCLUDE ZI_RVA_C;
      167     1722        %CAN_RVA_REF;
      168     2041        %IA$MAC;
      169     2052        %DB_MAC;
      170     2059        %USEP_MAC;
      171     2067        %INCLUDE ZI_DBCS;
      172     2680        %USER;
      173     2691        %IPT_FOR (IAN=IA,UWAN=UWA,RVAN=CAN_RVA,USEPN=USEP);
      174     2706        /**/
      175     2707    1       IPT_FOR.V.SC.SC_OFFSET#=POFFW(ADDR(SC_OFF),ADDR(CAN_RVA));

   2707  1 000002   000000 236000 2                  LDQ     0
         1 000003   000022 772000                    QRL     18
         1 000004   200012 756100                    STQ     RET_SET+1,,AUTO
         1 000005   200003 236100                    LDQ     @SC_OFF,,AUTO
         1 000006   000022 772000                    QRL     18
         1 000007   200012 136100                    SBLQ    RET_SET+1,,AUTO
         1 000010   000000 620006                    EAX0    0,QL
         1 000011   000020 740000 0                  STX0    IPT_FOR+10

PL6.E3A0      #006=DB_FUNC_FOR1 File=ZIU$DBFC_USER.:ZIC0TSI                      FRI 09/05/97 13:13 Page:63
      176     2708    1       IPT_FOR.V.RLCW.N_SETS#=NUM_SETS-1;

   2708  1 000012   200004 470500                    LDP0    @NUM_SETS,,AUTO
         1 000013   000000 236100                    LDQ     0,,PR0
         1 000014   000001 136007                    SBLQ    1,DL
         1 000015   000021 676000 0                  ERQ     IPT_FOR+11
         1 000016   000377 376007                    ANQ     255,DL
         1 000017   000021 656000 0                  ERSQ    IPT_FOR+11

      177     2709    2       DO I=0 TO NUM_SETS-1 BY 1;

   2709  1 000020   000000 450000 0                  STZ     I
         1 000021   000031 710000 1                  TRA     s:2711+3

      178     2710    2           IPT_FOR.V.RETENTION_LIST.RVA_OFFSET#(I)=RET_SETS;

   2710  1 000022   200005 470500                    LDP0    @RET_SETS,,AUTO
         1 000023   000000 220100                    LDX0    0,,PR0
         1 000024   000000 721000 0                  LXL1    I
         1 000025   000022 740011 0                  STX0    IPT_FOR+12,X1

      179     2711    2           END;

   2711  1 000026   000000 235000 0                  LDA     I
         1 000027   000001 035007                    ADLA    1,DL
         1 000030   000000 755000 0                  STA     I
         1 000031   200004 470500                    LDP0    @NUM_SETS,,AUTO
         1 000032   000000 236000 0                  LDQ     I
         1 000033   000000 116100                    CMPQ    0,,PR0
         1 000034   000022 602000 1                  TNC     s:2710

      180     2712            %CLIMB(FCN=FOR);

   2720  1 000035   000002 630400 2                  EPPR0   2
         1 000036   000001 631400 2                  EPPR1   1
         1 000037   000000 701000 xent               TSX1    U$FOR
         1 000040   000000 011000                    NOP     0
PL6.E3A0      #006=DB_FUNC_FOR1 File=ZIU$DBFC_USER.:ZIC0TSI                      FRI 09/05/97 13:13 Page:64

      181     2726    1       CALL STAT_CHK(UWA.DB_STATUS) ALTRET(ALT_FOR);

   2726  1 000041   000003 630400 2                  EPPR0   3
         1 000042   000001 631400 2                  EPPR1   1
         1 000043   000000 701000 xent               TSX1    STAT_CHK
         1 000044   000046 702000 1                  TSX2    ALT_FOR

      182     2727    1       RETURN;

   2727  1 000045   000000 702200 xent               TSX2  ! X66_ARET

      183     2728    1   ALT_FOR:
      184     2729    1       ALTRETURN;

   2729  1 000046   000000 702200 xent  ALT_FOR      TSX2  ! X66_AALT

USEP
 Sect OctLoc
   0     002   000001 000000   003017 204400   000000 000000                    ............

IPT_FOR
 Sect OctLoc
   0     006   000003 777640   000020 006000   000055 777640   000000 006000    .........-......
   0     012   001217 777640   000000 006000   000151 777640   000000 006000    .........i......
   0     016   000003 777640   000002 006000   000000 000000   000000 000000    ................
   0     022   000000 000000   ****** ******                                    ........

(unnamed)
 Sect OctLoc
   2     000   000000 006000   000001 000000   000006 006000   000001 406000    ................
      185     2730    1   END DB_FUNC_FOR1;
      186     2731        %EOD;

PL6.E3A0      #006=DB_FUNC_FOR1 File=ZIU$DBFC_USER.:ZIC0TSI                      FRI 09/05/97 13:13 Page:65
--  Include file information  --

   ZI_DBCS.:ZIC0TOU  is referenced.
   ZI_RVA_C.:ZIC0TOU  is referenced.
   ZI_UWA_C.:ZIC0TOU  is referenced.
   B$JIT_C.:E05TOU  was found in the system file and is never referenced.
   CP_6_C.:E05TOU  was found in the system file and is never referenced.
      No diagnostics issued in procedure DB_FUNC_FOR1.

   Procedure DB_FUNC_FOR1 requires 39 words for executable code.
   Procedure DB_FUNC_FOR1 requires 12 words of local(AUTO) storage.
PL6.E3A0      #006=DB_FUNC_FOR1 File=ZIU$DBFC_USER.:ZIC0TSI                      FRI 09/05/97 13:13 Page:66
          *** CROSS REFERENCE LISTING ***
**     DENOTES     IDENTIFIER DEFINITION
<<                 IDENTIFIER'S VALUE SET
>>                 IDENTIFIER'S VALUE USED
<>                 IDENTIFIER SET AND/OR USED
--                 IDENTIFIER REFERENCED
PL6.E3A0      #006=DB_FUNC_FOR1 File=ZIU$DBFC_USER.:ZIC0TSI                      FRI 09/05/97 13:13 Page:67
          MINI XREF LISTING

ALT_FOR
      2729**LABEL    2726--CALLALT
CAN_RVA
      1723**DCL      2699--DCLINIT  2707--ASSIGN
I
        10**DCL      2709<<DOINDEX  2710>>ASSIGN
IA
      2042**DCL      2698--DCLINIT
IPT_FOR
      2698**DCL      2720<>CALL
IPT_FOR.V
      2700**DCL      2698--DCLINIT
IPT_FOR.V.RETENTION_LIST.RVA_OFFSET#
      2703**DCL      2710<<ASSIGN
IPT_FOR.V.RLCW.N_SETS#
      2703**DCL      2708<<ASSIGN
IPT_FOR.V.SC.SC_OFFSET#
      2700**DCL      2707<<ASSIGN
NUM_SETS
         8**DCL         6--PROC     2708>>ASSIGN   2709>>DOINDEX
RET_SETS
         9**DCL         6--PROC     2710>>ASSIGN
SC_OFF
      2054**DCL         6--PROC     2707--ASSIGN
STAT_CHK
         7**DCL-ENT  2726--CALL
U$FOR
      2684**DCL-ENT  2720--CALL
USEP
      2060**DCL      2699--DCLINIT
UWA
       702**DCL      2699--DCLINIT
PL6.E3A0      #006=DB_FUNC_FOR1 File=ZIU$DBFC_USER.:ZIC0TSI                      FRI 09/05/97 13:13 Page:68
UWA.AC_REC.CALC_NEXT
       817**DCL       818--REDEF
UWA.AC_REC.CALC_PRIOR
       826**DCL       827--REDEF
UWA.AC_REC.DEFAULTS
       775**DCL       776--REDEF
UWA.AC_REC.FILE_CODE
       780**DCL       781--REDEF
UWA.AC_REC.FLAG1.ERROR_TYPE
       777**DCL       778--REDEF
UWA.AC_REC.PG_TYPE
       792**DCL       793--REDEF
UWA.AD_REC.ADDATE
       757**DCL       758--REDEF
UWA.DB_STATUS
       705**DCL      2726<>CALL

PL6.E3A0      #007=DB_FUNC_GET File=ZIU$DBFC_USER.:ZIC0TSI                       FRI 09/05/97 13:13 Page:69
      187        1        /*T***********************************************************/
      188        2        /*T*                                                         */
      189        3        /*T* Copyright (c) Bull HN Information Systems Inc., 1997    */
      190        4        /*T*                                                         */
      191        5        /*T***********************************************************/
      192        6        DB_FUNC_GET: PROC(RC_OFF) ALTRET;
      193        7    1   DCL STAT_CHK ENTRY(1) ALTRET;
      194        8        /**/
      195        9        %INCLUDE ZI_UWA_C;
      196      699        %ZI$UWAB;
      197     1039        %INCLUDE ZI_RVA_C;
      198     1720        %CAN_RVA_REF;
      199     2039        %IA$MAC;
      200     2050        %DB_MAC;
      201     2057        %USEP_MAC;
      202     2065        %INCLUDE ZI_DBCS;
      203     2678        %USER;
      204     2689        %IPT_GET (IAN=IA,UWAN=UWA,RVAN=CAN_RVA,USEPN=USEP);
      205     2701        /**/
      206     2702    1       IF RC_OFF = 0 THEN
      207     2703    1           IPT_GET.V.RC.RC_OFFSET#=POFFW(ADDR(CAN_RVA.NULL),ADDR(CAN_RVA));
      208     2704    1       ELSE
      209     2705    1           IPT_GET.V.RC.RC_OFFSET#=POFFW(ADDR(RC_OFF),ADDR(CAN_RVA));
      210     2706            %CLIMB(FCN=GET);
      211     2720    1       CALL STAT_CHK(UWA.DB_STATUS) ALTRET(ALT_GET);
      212     2721    1       RETURN;
      213     2722    1   ALT_GET:
      214     2723    1       ALTRETURN;
      215     2724    1   END DB_FUNC_GET;
      216     2725        %EOD;

PL6.E3A0      #007=DB_FUNC_GET File=ZIU$DBFC_USER.:ZIC0TSI                       FRI 09/05/97 13:13 Page:70
--  Include file information  --

   ZI_DBCS.:ZIC0TOU  is referenced.
   ZI_RVA_C.:ZIC0TOU  is referenced.
   ZI_UWA_C.:ZIC0TOU  is referenced.
   B$JIT_C.:E05TOU  was found in the system file and is never referenced.
   CP_6_C.:E05TOU  was found in the system file and is never referenced.
      No diagnostics issued in procedure DB_FUNC_GET.

   Procedure DB_FUNC_GET requires 32 words for executable code.
   Procedure DB_FUNC_GET requires 10 words of local(AUTO) storage.

PL6.E3A0      #007=DB_FUNC_GET File=ZIU$DBFC_USER.:ZIC0TSI                       FRI 09/05/97 13:13 Page:71

 Object Unit name= DB_FUNC_GET                                File name= ZIU$DBFC_USER.:ZIC0TOU
 UTS= SEP 05 '97 13:13:45.72 FRI                              Compiler= PL-6/E31         Sev=      00
 SharedLib= :SHARED_SYSTEM                                    Alt SharedLib=


    ****  Control sections  ****

 Sect   Type Bound  Init  Size OctSiz  Section name(segment info)
    0   Data  even  none    16     20  DB_FUNC_GET
    1   Proc  even  none    32     40  DB_FUNC_GET
    2  RoData even  none     5      5  DB_FUNC_GET

    ****  Entry defs  ****

                              Check   Calling
                             calling  sequence
  Sect OctLoc Primary Altret sequence   type   Parms  Name
     1      0   yes    yes     yes      Std        1  DB_FUNC_GET

  ****  Entry refs  ****

         Check        Calling
        calling       sequence
Altret sequence SRef   type   Args  Name
         yes           Std       1 U$GET
 yes     yes           Std       1 STAT_CHK
                       nStd      0 X66_AUTO_1
                       nStd      0 X66_ARET
                       nStd      0 X66_AALT

  ****  Data refs  ****

  Flags:  r = read only, s = secondary
Flgs Name                             Flgs Name                             Flgs Name
     UWA                                   CAN_RVA                               IA
PL6.E3A0      #007=DB_FUNC_GET File=ZIU$DBFC_USER.:ZIC0TSI                       FRI 09/05/97 13:13 Page:72

  ****  Segment refs  ****

  Flags:  r = read only, s = secondary
Flgs Name                             Flgs Name                             Flgs Name
     ISSID
PL6.E3A0      #007=DB_FUNC_GET File=ZIU$DBFC_USER.:ZIC0TSI                       FRI 09/05/97 13:13 Page:73


      187        1        /*T***********************************************************/
      188        2        /*T*                                                         */
      189        3        /*T* Copyright (c) Bull HN Information Systems Inc., 1997    */
      190        4        /*T*                                                         */
      191        5        /*T***********************************************************/
      192        6        DB_FUNC_GET: PROC(RC_OFF) ALTRET;

      6  1 000000   000000 700200 xent  DB_FUNC_GET  TSX0  ! X66_AUTO_1
         1 000001   000012 000001                    ZERO    10,1

      193        7    1   DCL STAT_CHK ENTRY(1) ALTRET;
      194        8        /**/
      195        9        %INCLUDE ZI_UWA_C;
      196      699        %ZI$UWAB;
      197     1039        %INCLUDE ZI_RVA_C;
      198     1720        %CAN_RVA_REF;
      199     2039        %IA$MAC;
      200     2050        %DB_MAC;
      201     2057        %USEP_MAC;
      202     2065        %INCLUDE ZI_DBCS;
      203     2678        %USER;
      204     2689        %IPT_GET (IAN=IA,UWAN=UWA,RVAN=CAN_RVA,USEPN=USEP);
      205     2701        /**/
      206     2702    1       IF RC_OFF = 0 THEN

   2702  1 000002   200003 470500                    LDP0    @RC_OFF,,AUTO
         1 000003   000000 220100                    LDX0    0,,PR0
         1 000004   000016 601000 1                  TNZ     s:2705

      207     2703    1           IPT_GET.V.RC.RC_OFFSET#=POFFW(ADDR(CAN_RVA.NULL),ADDR(CAN_RVA));

   2703  1 000005   000000 236000 2                  LDQ     0
         1 000006   000022 772000                    QRL     18
         1 000007   200010 756100                    STQ     RET_SET+1,,AUTO
         1 000010   000001 236000 2                  LDQ     1
         1 000011   000022 772000                    QRL     18
PL6.E3A0      #007=DB_FUNC_GET File=ZIU$DBFC_USER.:ZIC0TSI                       FRI 09/05/97 13:13 Page:74
         1 000012   200010 136100                    SBLQ    RET_SET+1,,AUTO
         1 000013   000000 620006                    EAX0    0,QL
         1 000014   000016 740000 0                  STX0    IPT_GET+10
         1 000015   000026 710000 1                  TRA     s:2714

      208     2704    1       ELSE
      209     2705    1           IPT_GET.V.RC.RC_OFFSET#=POFFW(ADDR(RC_OFF),ADDR(CAN_RVA));

   2705  1 000016   000000 236000 2                  LDQ     0
         1 000017   000022 772000                    QRL     18
         1 000020   200010 756100                    STQ     RET_SET+1,,AUTO
         1 000021   200003 236100                    LDQ     @RC_OFF,,AUTO
         1 000022   000022 772000                    QRL     18
         1 000023   200010 136100                    SBLQ    RET_SET+1,,AUTO
         1 000024   000000 620006                    EAX0    0,QL
         1 000025   000016 740000 0                  STX0    IPT_GET+10

      210     2706            %CLIMB(FCN=GET);

   2714  1 000026   000003 630400 2                  EPPR0   3
         1 000027   000002 631400 2                  EPPR1   2
         1 000030   000000 701000 xent               TSX1    U$GET
         1 000031   000000 011000                    NOP     0

      211     2720    1       CALL STAT_CHK(UWA.DB_STATUS) ALTRET(ALT_GET);

   2720  1 000032   000004 630400 2                  EPPR0   4
         1 000033   000002 631400 2                  EPPR1   2
         1 000034   000000 701000 xent               TSX1    STAT_CHK
         1 000035   000037 702000 1                  TSX2    ALT_GET

      212     2721    1       RETURN;

   2721  1 000036   000000 702200 xent               TSX2  ! X66_ARET

      213     2722    1   ALT_GET:
      214     2723    1       ALTRETURN;
PL6.E3A0      #007=DB_FUNC_GET File=ZIU$DBFC_USER.:ZIC0TSI                       FRI 09/05/97 13:13 Page:75

   2723  1 000037   000000 702200 xent  ALT_GET      TSX2  ! X66_AALT

USEP
 Sect OctLoc
   0     000   000001 000000   003017 204400   000000 000000                    ............

IPT_GET
 Sect OctLoc
   0     004   000001 777640   000016 006000   000055 777640   000000 006000    .........-......
   0     010   001217 777640   000000 006000   000151 777640   000000 006000    .........i......
   0     014   000003 777640   000000 006000   000000 000000   ****** ******    ................

(unnamed)
 Sect OctLoc
   2     000   000000 006000   000150 006000   000001 000000   000004 006000    .....h..........
   2     004   000001 406000                                                    ....
      215     2724    1   END DB_FUNC_GET;
      216     2725        %EOD;

PL6.E3A0      #007=DB_FUNC_GET File=ZIU$DBFC_USER.:ZIC0TSI                       FRI 09/05/97 13:13 Page:76
--  Include file information  --

   ZI_DBCS.:ZIC0TOU  is referenced.
   ZI_RVA_C.:ZIC0TOU  is referenced.
   ZI_UWA_C.:ZIC0TOU  is referenced.
   B$JIT_C.:E05TOU  was found in the system file and is never referenced.
   CP_6_C.:E05TOU  was found in the system file and is never referenced.
      No diagnostics issued in procedure DB_FUNC_GET.

   Procedure DB_FUNC_GET requires 32 words for executable code.
   Procedure DB_FUNC_GET requires 10 words of local(AUTO) storage.
PL6.E3A0      #007=DB_FUNC_GET File=ZIU$DBFC_USER.:ZIC0TSI                       FRI 09/05/97 13:13 Page:77
          *** CROSS REFERENCE LISTING ***
**     DENOTES     IDENTIFIER DEFINITION
<<                 IDENTIFIER'S VALUE SET
>>                 IDENTIFIER'S VALUE USED
<>                 IDENTIFIER SET AND/OR USED
--                 IDENTIFIER REFERENCED
PL6.E3A0      #007=DB_FUNC_GET File=ZIU$DBFC_USER.:ZIC0TSI                       FRI 09/05/97 13:13 Page:78
          MINI XREF LISTING

ALT_GET
      2723**LABEL    2720--CALLALT
CAN_RVA
      1721**DCL      2697--DCLINIT  2703--ASSIGN   2705--ASSIGN
CAN_RVA.NULL
      2033**DCL      2703--ASSIGN
IA
      2040**DCL      2696--DCLINIT
IPT_GET
      2696**DCL      2714<>CALL
IPT_GET.V
      2698**DCL      2696--DCLINIT
IPT_GET.V.RC.RC_OFFSET#
      2698**DCL      2703<<ASSIGN   2705<<ASSIGN
RC_OFF
      2051**DCL         6--PROC     2702>>IF       2705--ASSIGN
STAT_CHK
         7**DCL-ENT  2720--CALL
U$GET
      2684**DCL-ENT  2714--CALL
USEP
      2058**DCL      2697--DCLINIT
UWA
       700**DCL      2697--DCLINIT
UWA.AC_REC.CALC_NEXT
       815**DCL       816--REDEF
UWA.AC_REC.CALC_PRIOR
       824**DCL       825--REDEF
UWA.AC_REC.DEFAULTS
       773**DCL       774--REDEF
UWA.AC_REC.FILE_CODE
       778**DCL       779--REDEF
PL6.E3A0      #007=DB_FUNC_GET File=ZIU$DBFC_USER.:ZIC0TSI                       FRI 09/05/97 13:13 Page:79
UWA.AC_REC.FLAG1.ERROR_TYPE
       775**DCL       776--REDEF
UWA.AC_REC.PG_TYPE
       790**DCL       791--REDEF
UWA.AD_REC.ADDATE
       755**DCL       756--REDEF
UWA.DB_STATUS
       703**DCL      2720<>CALL

PL6.E3A0      #008=DB_FUNC_NBF File=ZIU$DBFC_USER.:ZIC0TSI                       FRI 09/05/97 13:13 Page:80
      217        1        /*T***********************************************************/
      218        2        /*T*                                                         */
      219        3        /*T* Copyright (c) Bull HN Information Systems Inc., 1997    */
      220        4        /*T*                                                         */
      221        5        /*T***********************************************************/
      222        6        DB_FUNC_NBF: PROC (BUFF) ALTRET;
      223        7    1   DCL STAT_CHK ENTRY(1) ALTRET;
      224        8    1   DCL BUFF SBIN(36) ALIGNED;
      225        9    1   DCL BUFALOC SBIN(36) ALIGNED;
      226       10        /**/
      227       11        %INCLUDE ZI_UWA_C;
      228      701        %ZI$UWAB;
      229     1041        %INCLUDE ZI_RVA_C;
      230     1722        %CAN_RVA_REF;
      231     2041        %IA$MAC;
      232     2052        %INCLUDE ZI_DBCS;
      233     2665        %USER;
      234     2676        %IPT_NBF;
      235     2686        /**/
      236     2687    1       IPT_NBF.BUFFS_REQ_ = VECTOR(BUFF);
      237     2688    1       IPT_NBF.BUFFS_ALLOC_ = VECTOR(BUFALOC);
      238     2689            %CLIMB(FCN=NBF);
      239     2703    1       CALL STAT_CHK(UWA.DB_STATUS) ALTRET(ALT_NBF);
      240     2704    1       RETURN;
      241     2705    1   ALT_NBF:
      242     2706    1       ALTRETURN;
      243     2707    1   END DB_FUNC_NBF;
      244     2708        %EOD;

PL6.E3A0      #008=DB_FUNC_NBF File=ZIU$DBFC_USER.:ZIC0TSI                       FRI 09/05/97 13:13 Page:81
--  Include file information  --

   ZI_DBCS.:ZIC0TOU  is referenced.
   ZI_RVA_C.:ZIC0TOU  is referenced.
   ZI_UWA_C.:ZIC0TOU  is referenced.
   B$JIT_C.:E05TOU  was found in the system file and is never referenced.
   CP_6_C.:E05TOU  was found in the system file and is never referenced.
      No diagnostics issued in procedure DB_FUNC_NBF.

   Procedure DB_FUNC_NBF requires 20 words for executable code.
   Procedure DB_FUNC_NBF requires 8 words of local(AUTO) storage.

PL6.E3A0      #008=DB_FUNC_NBF File=ZIU$DBFC_USER.:ZIC0TSI                       FRI 09/05/97 13:13 Page:82

 Object Unit name= DB_FUNC_NBF                                File name= ZIU$DBFC_USER.:ZIC0TOU
 UTS= SEP 05 '97 13:13:52.40 FRI                              Compiler= PL-6/E31         Sev=      00
 SharedLib= :SHARED_SYSTEM                                    Alt SharedLib=


    ****  Control sections  ****

 Sect   Type Bound  Init  Size OctSiz  Section name(segment info)
    0   Data  even  none     4      4  DB_FUNC_NBF
    1   Proc  even  none    20     24  DB_FUNC_NBF
    2  RoData even  none     3      3  DB_FUNC_NBF

    ****  Entry defs  ****

                              Check   Calling
                             calling  sequence
  Sect OctLoc Primary Altret sequence   type   Parms  Name
     1      0   yes    yes     yes      Std        1  DB_FUNC_NBF

  ****  Entry refs  ****

         Check        Calling
        calling       sequence
Altret sequence SRef   type   Args  Name
         yes           Std       1 U$NBF
 yes     yes           Std       1 STAT_CHK
                       nStd      0 X66_AUTO_1
                       nStd      0 X66_ARET
                       nStd      0 X66_AALT

  ****  Data refs  ****

  Flags:  r = read only, s = secondary
Flgs Name                             Flgs Name                             Flgs Name
     UWA                                   CAN_RVA                               IA
PL6.E3A0      #008=DB_FUNC_NBF File=ZIU$DBFC_USER.:ZIC0TSI                       FRI 09/05/97 13:13 Page:83

  ****  Segment refs  ****

  Flags:  r = read only, s = secondary
Flgs Name                             Flgs Name                             Flgs Name
     NULLSID                               ISSID
PL6.E3A0      #008=DB_FUNC_NBF File=ZIU$DBFC_USER.:ZIC0TSI                       FRI 09/05/97 13:13 Page:84


      217        1        /*T***********************************************************/
      218        2        /*T*                                                         */
      219        3        /*T* Copyright (c) Bull HN Information Systems Inc., 1997    */
      220        4        /*T*                                                         */
      221        5        /*T***********************************************************/
      222        6        DB_FUNC_NBF: PROC (BUFF) ALTRET;

      6  1 000000   000000 700200 xent  DB_FUNC_NBF  TSX0  ! X66_AUTO_1
         1 000001   000010 000001                    ZERO    8,1

      223        7    1   DCL STAT_CHK ENTRY(1) ALTRET;
      224        8    1   DCL BUFF SBIN(36) ALIGNED;
      225        9    1   DCL BUFALOC SBIN(36) ALIGNED;
      226       10        /**/
      227       11        %INCLUDE ZI_UWA_C;
      228      701        %ZI$UWAB;
      229     1041        %INCLUDE ZI_RVA_C;
      230     1722        %CAN_RVA_REF;
      231     2041        %IA$MAC;
      232     2052        %INCLUDE ZI_DBCS;
      233     2665        %USER;
      234     2676        %IPT_NBF;
      235     2686        /**/
      236     2687    1       IPT_NBF.BUFFS_REQ_ = VECTOR(BUFF);

   2687  1 000002   777640 235007                    LDA     -96,DL
         1 000003   200003 236100                    LDQ     @BUFF,,AUTO
         1 000004   000000 757000 0                  STAQ    IPT_NBF

      237     2688    1       IPT_NBF.BUFFS_ALLOC_ = VECTOR(BUFALOC);

   2688  1 000005   777640 235007                    LDA     -96,DL
         1 000006   200006 452500                    STP2    BUFALOC+2,,AUTO
         1 000007   200006 236100                    LDQ     BUFALOC+2,,AUTO
         1 000010   000004 036003                    ADLQ    4,DU
         1 000011   000002 757000 0                  STAQ    IPT_NBF+2
PL6.E3A0      #008=DB_FUNC_NBF File=ZIU$DBFC_USER.:ZIC0TSI                       FRI 09/05/97 13:13 Page:85

      238     2689            %CLIMB(FCN=NBF);

   2697  1 000012   000001 630400 2                  EPPR0   1
         1 000013   000000 631400 2                  EPPR1   0
         1 000014   000000 701000 xent               TSX1    U$NBF
         1 000015   000000 011000                    NOP     0

      239     2703    1       CALL STAT_CHK(UWA.DB_STATUS) ALTRET(ALT_NBF);

   2703  1 000016   000002 630400 2                  EPPR0   2
         1 000017   000000 631400 2                  EPPR1   0
         1 000020   000000 701000 xent               TSX1    STAT_CHK
         1 000021   000023 702000 1                  TSX2    ALT_NBF

      240     2704    1       RETURN;

   2704  1 000022   000000 702200 xent               TSX2  ! X66_ARET

      241     2705    1   ALT_NBF:
      242     2706    1       ALTRETURN;

   2706  1 000023   000000 702200 xent  ALT_NBF      TSX2  ! X66_AALT

IPT_NBF
 Sect OctLoc
   0     000   000000 177640   000000 006014   000000 177640   000000 006014    ................

(unnamed)
 Sect OctLoc
   2     000   000001 000000   000000 006000   000001 406000                    ............
      243     2707    1   END DB_FUNC_NBF;
      244     2708        %EOD;

PL6.E3A0      #008=DB_FUNC_NBF File=ZIU$DBFC_USER.:ZIC0TSI                       FRI 09/05/97 13:13 Page:86
--  Include file information  --

   ZI_DBCS.:ZIC0TOU  is referenced.
   ZI_RVA_C.:ZIC0TOU  is referenced.
   ZI_UWA_C.:ZIC0TOU  is referenced.
   B$JIT_C.:E05TOU  was found in the system file and is never referenced.
   CP_6_C.:E05TOU  was found in the system file and is never referenced.
      No diagnostics issued in procedure DB_FUNC_NBF.

   Procedure DB_FUNC_NBF requires 20 words for executable code.
   Procedure DB_FUNC_NBF requires 8 words of local(AUTO) storage.
PL6.E3A0      #008=DB_FUNC_NBF File=ZIU$DBFC_USER.:ZIC0TSI                       FRI 09/05/97 13:13 Page:87
          *** CROSS REFERENCE LISTING ***
**     DENOTES     IDENTIFIER DEFINITION
<<                 IDENTIFIER'S VALUE SET
>>                 IDENTIFIER'S VALUE USED
<>                 IDENTIFIER SET AND/OR USED
--                 IDENTIFIER REFERENCED
PL6.E3A0      #008=DB_FUNC_NBF File=ZIU$DBFC_USER.:ZIC0TSI                       FRI 09/05/97 13:13 Page:88
          MINI XREF LISTING

ALT_NBF
      2706**LABEL    2703--CALLALT
BUFALOC
         9**DCL      2688--ASSIGN
BUFF
         8**DCL         6--PROC     2687--ASSIGN
IPT_NBF
      2683**DCL      2697<>CALL
IPT_NBF.BUFFS_ALLOC_
      2683**DCL      2688<<ASSIGN
IPT_NBF.BUFFS_REQ_
      2683**DCL      2687<<ASSIGN
STAT_CHK
         7**DCL-ENT  2703--CALL
U$NBF
      2673**DCL-ENT  2697--CALL
UWA.AC_REC.CALC_NEXT
       817**DCL       818--REDEF
UWA.AC_REC.CALC_PRIOR
       826**DCL       827--REDEF
UWA.AC_REC.DEFAULTS
       775**DCL       776--REDEF
UWA.AC_REC.FILE_CODE
       780**DCL       781--REDEF
UWA.AC_REC.FLAG1.ERROR_TYPE
       777**DCL       778--REDEF
UWA.AC_REC.PG_TYPE
       792**DCL       793--REDEF
UWA.AD_REC.ADDATE
       757**DCL       758--REDEF
UWA.DB_STATUS
       705**DCL      2703<>CALL

PL6.E3A0      #009=DB_FUNC_FIN File=ZIU$DBFC_USER.:ZIC0TSI                       FRI 09/05/97 13:13 Page:89
      245        1        /*T***********************************************************/
      246        2        /*T*                                                         */
      247        3        /*T* Copyright (c) Bull HN Information Systems Inc., 1997    */
      248        4        /*T*                                                         */
      249        5        /*T***********************************************************/
      250        6        DB_FUNC_FIN: PROC ALTRET;
      251        7    1   DCL STAT_CHK ENTRY(1) ALTRET;
      252        8        /**/
      253        9        %INCLUDE ZI_UWA_C;
      254      699        %ZI$UWAB;
      255     1039        %INCLUDE ZI_RVA_C;
      256     1720        %CAN_RVA_REF;
      257     2039        %IA$MAC;
      258     2050        %DB_MAC;
      259     2057        %USEP_MAC;
      260     2065        %INCLUDE ZI_DBCS;
      261     2678        %USER;
      262     2689        %IPT_FIN (IAN=IA,UWAN=UWA,RVAN=CAN_RVA,USEPN=USEP);
      263     2702        /**/
      264     2703         %CLIMB(FCN=FIN);
      265     2717    1       CALL STAT_CHK(UWA.DB_STATUS) ALTRET(ALT_FIN);
      266     2718    1       RETURN;
      267     2719    1   ALT_FIN:
      268     2720    1       ALTRETURN;
      269     2721    1   END DB_FUNC_FIN;
      270     2722        %EOD;

PL6.E3A0      #009=DB_FUNC_FIN File=ZIU$DBFC_USER.:ZIC0TSI                       FRI 09/05/97 13:13 Page:90
--  Include file information  --

   ZI_DBCS.:ZIC0TOU  is referenced.
   ZI_RVA_C.:ZIC0TOU  is referenced.
   ZI_UWA_C.:ZIC0TOU  is referenced.
   B$JIT_C.:E05TOU  was found in the system file and is never referenced.
   CP_6_C.:E05TOU  was found in the system file and is never referenced.
      No diagnostics issued in procedure DB_FUNC_FIN.

   Procedure DB_FUNC_FIN requires 12 words for executable code.
   Procedure DB_FUNC_FIN requires 8 words of local(AUTO) storage.

PL6.E3A0      #009=DB_FUNC_FIN File=ZIU$DBFC_USER.:ZIC0TSI                       FRI 09/05/97 13:13 Page:91

 Object Unit name= DB_FUNC_FIN                                File name= ZIU$DBFC_USER.:ZIC0TOU
 UTS= SEP 05 '97 13:13:58.88 FRI                              Compiler= PL-6/E31         Sev=      00
 SharedLib= :SHARED_SYSTEM                                    Alt SharedLib=


    ****  Control sections  ****

 Sect   Type Bound  Init  Size OctSiz  Section name(segment info)
    0   Data  even  none    16     20  DB_FUNC_FIN
    1   Proc  even  none    12     14  DB_FUNC_FIN
    2  RoData even  none     3      3  DB_FUNC_FIN

    ****  Entry defs  ****

                              Check   Calling
                             calling  sequence
  Sect OctLoc Primary Altret sequence   type   Parms  Name
     1      0   yes    yes     yes      Std        0  DB_FUNC_FIN

  ****  Entry refs  ****

         Check        Calling
        calling       sequence
Altret sequence SRef   type   Args  Name
         yes           Std       1 U$FIN
 yes     yes           Std       1 STAT_CHK
                       nStd      0 X66_AUTO_0
                       nStd      0 X66_ARET
                       nStd      0 X66_AALT

  ****  Data refs  ****

  Flags:  r = read only, s = secondary
Flgs Name                             Flgs Name                             Flgs Name
     UWA                                   CAN_RVA                               IA
PL6.E3A0      #009=DB_FUNC_FIN File=ZIU$DBFC_USER.:ZIC0TSI                       FRI 09/05/97 13:13 Page:92

  ****  Segment refs  ****

  Flags:  r = read only, s = secondary
Flgs Name                             Flgs Name                             Flgs Name
     ISSID
PL6.E3A0      #009=DB_FUNC_FIN File=ZIU$DBFC_USER.:ZIC0TSI                       FRI 09/05/97 13:13 Page:93


      245        1        /*T***********************************************************/
      246        2        /*T*                                                         */
      247        3        /*T* Copyright (c) Bull HN Information Systems Inc., 1997    */
      248        4        /*T*                                                         */
      249        5        /*T***********************************************************/
      250        6        DB_FUNC_FIN: PROC ALTRET;

      6  1 000000   000000 700200 xent  DB_FUNC_FIN  TSX0  ! X66_AUTO_0
         1 000001   000010 000000                    ZERO    8,0

      251        7    1   DCL STAT_CHK ENTRY(1) ALTRET;
      252        8        /**/
      253        9        %INCLUDE ZI_UWA_C;
      254      699        %ZI$UWAB;
      255     1039        %INCLUDE ZI_RVA_C;
      256     1720        %CAN_RVA_REF;
      257     2039        %IA$MAC;
      258     2050        %DB_MAC;
      259     2057        %USEP_MAC;
      260     2065        %INCLUDE ZI_DBCS;
      261     2678        %USER;
      262     2689        %IPT_FIN (IAN=IA,UWAN=UWA,RVAN=CAN_RVA,USEPN=USEP);
      263     2702        /**/
      264     2703         %CLIMB(FCN=FIN);

   2711  1 000002   000001 630400 2                  EPPR0   1
         1 000003   000000 631400 2                  EPPR1   0
         1 000004   000000 701000 xent               TSX1    U$FIN
         1 000005   000000 011000                    NOP     0

      265     2717    1       CALL STAT_CHK(UWA.DB_STATUS) ALTRET(ALT_FIN);

   2717  1 000006   000002 630400 2                  EPPR0   2
         1 000007   000000 631400 2                  EPPR1   0
         1 000010   000000 701000 xent               TSX1    STAT_CHK
         1 000011   000013 702000 1                  TSX2    ALT_FIN
PL6.E3A0      #009=DB_FUNC_FIN File=ZIU$DBFC_USER.:ZIC0TSI                       FRI 09/05/97 13:13 Page:94

      266     2718    1       RETURN;

   2718  1 000012   000000 702200 xent               TSX2  ! X66_ARET

      267     2719    1   ALT_FIN:
      268     2720    1       ALTRETURN;

   2720  1 000013   000000 702200 xent  ALT_FIN      TSX2  ! X66_AALT

USEP
 Sect OctLoc
   0     000   000001 000000   003017 204400   000000 000000                    ............

IPT_FIN
 Sect OctLoc
   0     004   000001 777640   000016 006000   000055 777640   000000 006000    .........-......
   0     010   001217 777640   000000 006000   000151 777640   000000 006000    .........i......
   0     014   000003 777640   000000 006000   000000 000000   000000 000000    ................

(unnamed)
 Sect OctLoc
   2     000   000001 000000   000004 006000   000001 406000                    ............
      269     2721    1   END DB_FUNC_FIN;
      270     2722        %EOD;

PL6.E3A0      #009=DB_FUNC_FIN File=ZIU$DBFC_USER.:ZIC0TSI                       FRI 09/05/97 13:13 Page:95
--  Include file information  --

   ZI_DBCS.:ZIC0TOU  is referenced.
   ZI_RVA_C.:ZIC0TOU  is referenced.
   ZI_UWA_C.:ZIC0TOU  is referenced.
   B$JIT_C.:E05TOU  was found in the system file and is never referenced.
   CP_6_C.:E05TOU  was found in the system file and is never referenced.
      No diagnostics issued in procedure DB_FUNC_FIN.

   Procedure DB_FUNC_FIN requires 12 words for executable code.
   Procedure DB_FUNC_FIN requires 8 words of local(AUTO) storage.
PL6.E3A0      #009=DB_FUNC_FIN File=ZIU$DBFC_USER.:ZIC0TSI                       FRI 09/05/97 13:13 Page:96
          *** CROSS REFERENCE LISTING ***
**     DENOTES     IDENTIFIER DEFINITION
<<                 IDENTIFIER'S VALUE SET
>>                 IDENTIFIER'S VALUE USED
<>                 IDENTIFIER SET AND/OR USED
--                 IDENTIFIER REFERENCED
PL6.E3A0      #009=DB_FUNC_FIN File=ZIU$DBFC_USER.:ZIC0TSI                       FRI 09/05/97 13:13 Page:97
          MINI XREF LISTING

ALT_FIN
      2720**LABEL    2717--CALLALT
CAN_RVA
      1721**DCL      2697--DCLINIT
IA
      2040**DCL      2696--DCLINIT
IPT_FIN
      2696**DCL      2711<>CALL
IPT_FIN.V
      2698**DCL      2696--DCLINIT
STAT_CHK
         7**DCL-ENT  2717--CALL
U$FIN
      2680**DCL-ENT  2711--CALL
USEP
      2058**DCL      2697--DCLINIT
UWA
       700**DCL      2697--DCLINIT
UWA.AC_REC.CALC_NEXT
       815**DCL       816--REDEF
UWA.AC_REC.CALC_PRIOR
       824**DCL       825--REDEF
UWA.AC_REC.DEFAULTS
       773**DCL       774--REDEF
UWA.AC_REC.FILE_CODE
       778**DCL       779--REDEF
UWA.AC_REC.FLAG1.ERROR_TYPE
       775**DCL       776--REDEF
UWA.AC_REC.PG_TYPE
       790**DCL       791--REDEF
UWA.AD_REC.ADDATE
       755**DCL       756--REDEF
PL6.E3A0      #009=DB_FUNC_FIN File=ZIU$DBFC_USER.:ZIC0TSI                       FRI 09/05/97 13:13 Page:98
UWA.DB_STATUS
       703**DCL      2717<>CALL

PL6.E3A0      #010=STAT_CHK File=ZIU$DBFC_USER.:ZIC0TSI                          FRI 09/05/97 13:14 Page:99
      271        1        /*T***********************************************************/
      272        2        /*T*                                                         */
      273        3        /*T* Copyright (c) Bull HN Information Systems Inc., 1997    */
      274        4        /*T*                                                         */
      275        5        /*T***********************************************************/
      276        6        STAT_CHK: PROC(STATUS) ALTRET;
      277        7    1   DCL STATUS CHAR(5) ALIGNED;
      278        8    1       IF STATUS='00000' THEN RETURN;
      279        9    1       IF STATUS='02100' THEN RETURN;
      280       10    1       ALTRETURN;
      281       11    1   END STAT_CHK;
      282       12        %EOD;

PL6.E3A0      #010=STAT_CHK File=ZIU$DBFC_USER.:ZIC0TSI                          FRI 09/05/97 13:14 Page:100
--  Include file information  --

   B$JIT_C.:E05TOU  was found in the system file and is never referenced.
   CP_6_C.:E05TOU  was found in the system file and is never referenced.
      No diagnostics issued in procedure STAT_CHK.

   Procedure STAT_CHK requires 14 words for executable code.
   Procedure STAT_CHK requires 4 words of local(AUTO) storage.

PL6.E3A0      #010=STAT_CHK File=ZIU$DBFC_USER.:ZIC0TSI                          FRI 09/05/97 13:14 Page:101

 Object Unit name= STAT_CHK                                   File name= ZIU$DBFC_USER.:ZIC0TOU
 UTS= SEP 05 '97 13:14:05.36 FRI                              Compiler= PL-6/E31         Sev=      00
 SharedLib= :SHARED_SYSTEM                                    Alt SharedLib=


    ****  Control sections  ****

 Sect   Type Bound  Init  Size OctSiz  Section name(segment info)
    0  RoData even  UTS      4      4  STAT_CHK
    1   Proc  even  none    14     16  STAT_CHK

    ****  Entry defs  ****

                              Check   Calling
                             calling  sequence
  Sect OctLoc Primary Altret sequence   type   Parms  Name
     1      0   yes    yes     yes      Std        1  STAT_CHK

  ****  Entry refs  ****

         Check        Calling
        calling       sequence
Altret sequence SRef   type   Args  Name
                       nStd      0 X66_AUTO_1
                       nStd      0 X66_ARET
                       nStd      0 X66_AALT
PL6.E3A0      #010=STAT_CHK File=ZIU$DBFC_USER.:ZIC0TSI                          FRI 09/05/97 13:14 Page:102


      271        1        /*T***********************************************************/
      272        2        /*T*                                                         */
      273        3        /*T* Copyright (c) Bull HN Information Systems Inc., 1997    */
      274        4        /*T*                                                         */
      275        5        /*T***********************************************************/
      276        6        STAT_CHK: PROC(STATUS) ALTRET;

      6  1 000000   000000 700200 xent  STAT_CHK     TSX0  ! X66_AUTO_1
         1 000001   000004 000001                    ZERO    4,1

      277        7    1   DCL STATUS CHAR(5) ALIGNED;
      278        8    1       IF STATUS='00000' THEN RETURN;

      8  1 000002   200003 470500                    LDP0    @STATUS,,AUTO
         1 000003   040000 106500                    CMPC    fill='040'O
         1 000004   000000 000005                    ADSC9   0,,PR0                   cn=0,n=5
         1 000005   000000 000005 0                  ADSC9   0                        cn=0,n=5
         1 000006   000010 601000 1                  TNZ     s:9

      8  1 000007   000000 702200 xent               TSX2  ! X66_ARET

      279        9    1       IF STATUS='02100' THEN RETURN;

      9  1 000010   040000 106500                    CMPC    fill='040'O
         1 000011   000000 000005                    ADSC9   0,,PR0                   cn=0,n=5
         1 000012   000002 000005 0                  ADSC9   2                        cn=0,n=5
         1 000013   000015 601000 1                  TNZ     s:10

      9  1 000014   000000 702200 xent               TSX2  ! X66_ARET

      280       10    1       ALTRETURN;

     10  1 000015   000000 702200 xent               TSX2  ! X66_AALT

(unnamed)
 Sect OctLoc
PL6.E3A0      #010=STAT_CHK File=ZIU$DBFC_USER.:ZIC0TSI                          FRI 09/05/97 13:14 Page:103
   0     000   060060 060060   060040 040040   060062 061060   060040 040040    00000   02100
      281       11    1   END STAT_CHK;
      282       12        %EOD;

PL6.E3A0      #010=STAT_CHK File=ZIU$DBFC_USER.:ZIC0TSI                          FRI 09/05/97 13:14 Page:104
--  Include file information  --

   B$JIT_C.:E05TOU  was found in the system file and is never referenced.
   CP_6_C.:E05TOU  was found in the system file and is never referenced.
      No diagnostics issued in procedure STAT_CHK.

   Procedure STAT_CHK requires 14 words for executable code.
   Procedure STAT_CHK requires 4 words of local(AUTO) storage.
PL6.E3A0      #010=STAT_CHK File=ZIU$DBFC_USER.:ZIC0TSI                          FRI 09/05/97 13:14 Page:105
          *** CROSS REFERENCE LISTING ***
**     DENOTES     IDENTIFIER DEFINITION
<<                 IDENTIFIER'S VALUE SET
>>                 IDENTIFIER'S VALUE USED
<>                 IDENTIFIER SET AND/OR USED
--                 IDENTIFIER REFERENCED
PL6.E3A0      #010=STAT_CHK File=ZIU$DBFC_USER.:ZIC0TSI                          FRI 09/05/97 13:14 Page:106
          MINI XREF LISTING

STATUS
         7**DCL         6--PROC        8>>IF          9>>IF

PL6.E3A0      #011=ZIU$RVABDER File=ZIU$DBFC_USER.:ZIC0TSI                       FRI 09/05/97 13:14 Page:107
      283        1        /*T***********************************************************/
      284        2        /*T*                                                         */
      285        3        /*T* Copyright (c) Bull HN Information Systems Inc., 1997    */
      286        4        /*T*                                                         */
      287        5        /*T***********************************************************/
      288        6        ZIU$RVABDER: PROC;
      289        7        %INCLUDE ZI_RVA_C;
      290      688        %CAN_RVA_REF;
      291     1007        %INCLUDE ZI_UWA_C;
      292     1697        %ZI$UWAB;
      293     2037    1   ZIC$RVABDER: ENTRY;
      294     2038        /****************************************************************************/
      295     2039    1       CAN_RVA.SFREC.SEC = POFFW(ADDR(UWA.SF_REC.DBKOA),ADDR(UWA)) * 8;
      296     2040    1       CAN_RVA.ADREC.SEC = POFFW(ADDR(UWA.AD_REC.ADFUNC),ADDR(UWA)) * 8;
      297     2041    1       CAN_RVA.OAREC.SEC = POFFW(ADDR(UWA.OA_REC.CVOEX),ADDR(UWA)) * 8;
      298     2042    1       CAN_RVA.ACREC.SEC = POFFW(ADDR(UWA.AC_REC.SWS.CHECKSUM),ADDR(UWA)) * 8;
      299     2043    1       CAN_RVA.RCREC.SEC = POFFW(ADDR(UWA.RC_REC.RTYPE),ADDR(UWA)) * 8;
      300     2044    1       CAN_RVA.RAREC.SEC = POFFW(ADDR(UWA.RA_REC.LDBK),ADDR(UWA)) * 8;
      301     2045    1       CAN_RVA.FRREC.SEC = POFFW(ADDR(UWA.FR_REC.SYN),ADDR(UWA)) * 8;
      302     2046    1       CAN_RVA.SMREC.SEC = POFFW(ADDR(UWA.SM_REC.INSTYPE),ADDR(UWA)) * 8;
      303     2047    1       CAN_RVA.CFREC.SEC = POFFW(ADDR(UWA.CF_REC.SYN),ADDR(UWA)) * 8 ;
      304     2048    1       CAN_RVA.SNREC.SEC = POFFW(ADDR(UWA.SN_REC.SETYPE),ADDR(UWA)) * 8 ;
      305     2049    1       CAN_RVA.SOREC.SEC = POFFW(ADDR(UWA.SO_REC.PSEQ),ADDR(UWA)) * 8 ;
      306     2050    1       CAN_RVA.SCREC.SEC = POFFW(ADDR(UWA.SC_REC.SETTYPE),ADDR(UWA)) * 8 ;
      307     2051    1   END ZIU$RVABDER;

PL6.E3A0      #011=ZIU$RVABDER File=ZIU$DBFC_USER.:ZIC0TSI                       FRI 09/05/97 13:14 Page:108
--  Include file information  --

   ZI_UWA_C.:ZIC0TOU  is referenced.
   ZI_RVA_C.:ZIC0TOU  is referenced.
   B$JIT_C.:E05TOU  was found in the system file and is never referenced.
   CP_6_C.:E05TOU  was found in the system file and is never referenced.
      No diagnostics issued in procedure ZIU$RVABDER.

   Procedure ZIU$RVABDER requires 114 words for executable code.
   Procedure ZIU$RVABDER requires 6 words of local(AUTO) storage.

    No errors detected in file ZIU$DBFC_USER.:ZIC0TSI    .

PL6.E3A0      #011=ZIU$RVABDER File=ZIU$DBFC_USER.:ZIC0TSI                       FRI 09/05/97 13:14 Page:109

 Object Unit name= ZIU$RVABDER                                File name= ZIU$DBFC_USER.:ZIC0TOU
 UTS= SEP 05 '97 13:14:06.76 FRI                              Compiler= PL-6/E31         Sev=      00
 SharedLib= :SHARED_SYSTEM                                    Alt SharedLib=


    ****  Control sections  ****

 Sect   Type Bound  Init  Size OctSiz  Section name(segment info)
    0   Proc  even  none   114    162  ZIU$RVABDER
    1  RoData even  none    13     15  ZIU$RVABDER

    ****  Entry defs  ****

                              Check   Calling
                             calling  sequence
  Sect OctLoc Primary Altret sequence   type   Parms  Name
     0      0   yes            yes      Std        0  ZIU$RVABDER
     0      3                  yes      Std        0  ZIC$RVABDER

  ****  Entry refs  ****

         Check        Calling
        calling       sequence
Altret sequence SRef   type   Args  Name
                       nStd      0 X66_AUTO_0
                       nStd      0 X66_ARET

  ****  Data refs  ****

  Flags:  r = read only, s = secondary
Flgs Name                             Flgs Name                             Flgs Name
     CAN_RVA                               UWA
PL6.E3A0      #011=ZIU$RVABDER File=ZIU$DBFC_USER.:ZIC0TSI                       FRI 09/05/97 13:14 Page:110

  ****  Segment refs  ****

  Flags:  r = read only, s = secondary
Flgs Name                             Flgs Name                             Flgs Name
     ISSID
PL6.E3A0      #011=ZIU$RVABDER File=ZIU$DBFC_USER.:ZIC0TSI                       FRI 09/05/97 13:14 Page:111


      283        1        /*T***********************************************************/
      284        2        /*T*                                                         */
      285        3        /*T* Copyright (c) Bull HN Information Systems Inc., 1997    */
      286        4        /*T*                                                         */
      287        5        /*T***********************************************************/
      288        6        ZIU$RVABDER: PROC;

      6  0 000000   000000 700200 xent  ZIU$RVABDER  TSX0  ! X66_AUTO_0
         0 000001   000006 000000                    ZERO    6,0
         0 000002   000005 710000 0                  TRA     s:2039

      289        7        %INCLUDE ZI_RVA_C;
      290      688        %CAN_RVA_REF;
      291     1007        %INCLUDE ZI_UWA_C;
      292     1697        %ZI$UWAB;
      293     2037    1   ZIC$RVABDER: ENTRY;

   2037  0 000003   000000 700200 xent  ZIC$RVABDER  TSX0  ! X66_AUTO_0
         0 000004   000006 000000                    ZERO    6,0

      294     2038        /****************************************************************************/
      295     2039    1       CAN_RVA.SFREC.SEC = POFFW(ADDR(UWA.SF_REC.DBKOA),ADDR(UWA)) * 8;

   2039  0 000005   000000 236000 1                  LDQ     0
         0 000006   000022 772000                    QRL     18
         0 000007   200004 756100                    STQ     4,,AUTO
         0 000010   000001 236000 1                  LDQ     1
         0 000011   000022 772000                    QRL     18
         0 000012   200004 136100                    SBLQ    4,,AUTO
         0 000013   000003 736000                    QLS     3
         0 000014   000000 620006                    EAX0    0,QL
         0 000015   000052 440000 xsym               SXL0    CAN_RVA+42

      296     2040    1       CAN_RVA.ADREC.SEC = POFFW(ADDR(UWA.AD_REC.ADFUNC),ADDR(UWA)) * 8;

   2040  0 000016   000000 236000 1                  LDQ     0
PL6.E3A0      #011=ZIU$RVABDER File=ZIU$DBFC_USER.:ZIC0TSI                       FRI 09/05/97 13:14 Page:112
         0 000017   000022 772000                    QRL     18
         0 000020   200004 756100                    STQ     4,,AUTO
         0 000021   000002 236000 1                  LDQ     2
         0 000022   000022 772000                    QRL     18
         0 000023   200004 136100                    SBLQ    4,,AUTO
         0 000024   000003 736000                    QLS     3
         0 000025   000000 621006                    EAX1    0,QL
         0 000026   000061 441000 xsym               SXL1    CAN_RVA+49

      297     2041    1       CAN_RVA.OAREC.SEC = POFFW(ADDR(UWA.OA_REC.CVOEX),ADDR(UWA)) * 8;

   2041  0 000027   000000 236000 1                  LDQ     0
         0 000030   000022 772000                    QRL     18
         0 000031   200004 756100                    STQ     4,,AUTO
         0 000032   000003 236000 1                  LDQ     3
         0 000033   000022 772000                    QRL     18
         0 000034   200004 136100                    SBLQ    4,,AUTO
         0 000035   000003 736000                    QLS     3
         0 000036   000000 622006                    EAX2    0,QL
         0 000037   000062 442000 xsym               SXL2    CAN_RVA+50

      298     2042    1       CAN_RVA.ACREC.SEC = POFFW(ADDR(UWA.AC_REC.SWS.CHECKSUM),ADDR(UWA)) * 8;

   2042  0 000040   000000 236000 1                  LDQ     0
         0 000041   000022 772000                    QRL     18
         0 000042   200004 756100                    STQ     4,,AUTO
         0 000043   000004 236000 1                  LDQ     4
         0 000044   000022 772000                    QRL     18
         0 000045   200004 136100                    SBLQ    4,,AUTO
         0 000046   000003 736000                    QLS     3
         0 000047   000000 623006                    EAX3    0,QL
         0 000050   000063 443000 xsym               SXL3    CAN_RVA+51

      299     2043    1       CAN_RVA.RCREC.SEC = POFFW(ADDR(UWA.RC_REC.RTYPE),ADDR(UWA)) * 8;

   2043  0 000051   000000 236000 1                  LDQ     0
         0 000052   000022 772000                    QRL     18
PL6.E3A0      #011=ZIU$RVABDER File=ZIU$DBFC_USER.:ZIC0TSI                       FRI 09/05/97 13:14 Page:113
         0 000053   200004 756100                    STQ     4,,AUTO
         0 000054   000005 236000 1                  LDQ     5
         0 000055   000022 772000                    QRL     18
         0 000056   200004 136100                    SBLQ    4,,AUTO
         0 000057   000003 736000                    QLS     3
         0 000060   000000 624006                    EAX4    0,QL
         0 000061   000064 444000 xsym               SXL4    CAN_RVA+52

      300     2044    1       CAN_RVA.RAREC.SEC = POFFW(ADDR(UWA.RA_REC.LDBK),ADDR(UWA)) * 8;

   2044  0 000062   000000 236000 1                  LDQ     0
         0 000063   000022 772000                    QRL     18
         0 000064   200004 756100                    STQ     4,,AUTO
         0 000065   000006 236000 1                  LDQ     6
         0 000066   000022 772000                    QRL     18
         0 000067   200004 136100                    SBLQ    4,,AUTO
         0 000070   000003 736000                    QLS     3
         0 000071   000000 625006                    EAX5    0,QL
         0 000072   000066 445000 xsym               SXL5    CAN_RVA+54

      301     2045    1       CAN_RVA.FRREC.SEC = POFFW(ADDR(UWA.FR_REC.SYN),ADDR(UWA)) * 8;

   2045  0 000073   000000 236000 1                  LDQ     0
         0 000074   000022 772000                    QRL     18
         0 000075   200004 756100                    STQ     4,,AUTO
         0 000076   000007 236000 1                  LDQ     7
         0 000077   000022 772000                    QRL     18
         0 000100   200004 136100                    SBLQ    4,,AUTO
         0 000101   000003 736000                    QLS     3
         0 000102   000000 626006                    EAX6    0,QL
         0 000103   000067 446000 xsym               SXL6    CAN_RVA+55

      302     2046    1       CAN_RVA.SMREC.SEC = POFFW(ADDR(UWA.SM_REC.INSTYPE),ADDR(UWA)) * 8;

   2046  0 000104   000000 236000 1                  LDQ     0
         0 000105   000022 772000                    QRL     18
         0 000106   200004 756100                    STQ     4,,AUTO
PL6.E3A0      #011=ZIU$RVABDER File=ZIU$DBFC_USER.:ZIC0TSI                       FRI 09/05/97 13:14 Page:114
         0 000107   000010 236000 1                  LDQ     8
         0 000110   000022 772000                    QRL     18
         0 000111   200004 136100                    SBLQ    4,,AUTO
         0 000112   000003 736000                    QLS     3
         0 000113   000000 627006                    EAX7    0,QL
         0 000114   000071 447000 xsym               SXL7    CAN_RVA+57

      303     2047    1       CAN_RVA.CFREC.SEC = POFFW(ADDR(UWA.CF_REC.SYN),ADDR(UWA)) * 8 ;

   2047  0 000115   000000 236000 1                  LDQ     0
         0 000116   000022 772000                    QRL     18
         0 000117   200004 756100                    STQ     4,,AUTO
         0 000120   000011 236000 1                  LDQ     9
         0 000121   000022 772000                    QRL     18
         0 000122   200004 136100                    SBLQ    4,,AUTO
         0 000123   000003 736000                    QLS     3
         0 000124   000000 620006                    EAX0    0,QL
         0 000125   000073 440000 xsym               SXL0    CAN_RVA+59

      304     2048    1       CAN_RVA.SNREC.SEC = POFFW(ADDR(UWA.SN_REC.SETYPE),ADDR(UWA)) * 8 ;

   2048  0 000126   000000 236000 1                  LDQ     0
         0 000127   000022 772000                    QRL     18
         0 000130   200004 756100                    STQ     4,,AUTO
         0 000131   000012 236000 1                  LDQ     10
         0 000132   000022 772000                    QRL     18
         0 000133   200004 136100                    SBLQ    4,,AUTO
         0 000134   000003 736000                    QLS     3
         0 000135   000000 620006                    EAX0    0,QL
         0 000136   000075 440000 xsym               SXL0    CAN_RVA+61

      305     2049    1       CAN_RVA.SOREC.SEC = POFFW(ADDR(UWA.SO_REC.PSEQ),ADDR(UWA)) * 8 ;

   2049  0 000137   000000 236000 1                  LDQ     0
         0 000140   000022 772000                    QRL     18
         0 000141   200004 756100                    STQ     4,,AUTO
         0 000142   000013 236000 1                  LDQ     11
PL6.E3A0      #011=ZIU$RVABDER File=ZIU$DBFC_USER.:ZIC0TSI                       FRI 09/05/97 13:14 Page:115
         0 000143   000022 772000                    QRL     18
         0 000144   200004 136100                    SBLQ    4,,AUTO
         0 000145   000003 736000                    QLS     3
         0 000146   000000 620006                    EAX0    0,QL
         0 000147   000070 440000 xsym               SXL0    CAN_RVA+56

      306     2050    1       CAN_RVA.SCREC.SEC = POFFW(ADDR(UWA.SC_REC.SETTYPE),ADDR(UWA)) * 8 ;

   2050  0 000150   000000 236000 1                  LDQ     0
         0 000151   000022 772000                    QRL     18
         0 000152   200004 756100                    STQ     4,,AUTO
         0 000153   000014 236000 1                  LDQ     12
         0 000154   000022 772000                    QRL     18
         0 000155   200004 136100                    SBLQ    4,,AUTO
         0 000156   000003 736000                    QLS     3
         0 000157   000000 620006                    EAX0    0,QL
         0 000160   000065 440000 xsym               SXL0    CAN_RVA+53

      307     2051    1   END ZIU$RVABDER;

   2051  0 000161   000000 702200 xent               TSX2  ! X66_ARET

(unnamed)
 Sect OctLoc
   1     000   000000 006000   000063 006000   000170 006000   000225 006000    .....3...x......
   1     004   000233 006000   000270 006000   000326 006000   000332 006000    ................
   1     010   000360 006000   000400 006000   000424 006000   000354 006000    ................
   1     014   000310 006000                                                    ....

PL6.E3A0      #011=ZIU$RVABDER File=ZIU$DBFC_USER.:ZIC0TSI                       FRI 09/05/97 13:14 Page:116
--  Include file information  --

   ZI_UWA_C.:ZIC0TOU  is referenced.
   ZI_RVA_C.:ZIC0TOU  is referenced.
   B$JIT_C.:E05TOU  was found in the system file and is never referenced.
   CP_6_C.:E05TOU  was found in the system file and is never referenced.
      No diagnostics issued in procedure ZIU$RVABDER.

   Procedure ZIU$RVABDER requires 114 words for executable code.
   Procedure ZIU$RVABDER requires 6 words of local(AUTO) storage.

    No errors detected in file ZIU$DBFC_USER.:ZIC0TSI    .
PL6.E3A0      #011=ZIU$RVABDER File=ZIU$DBFC_USER.:ZIC0TSI                       FRI 09/05/97 13:14 Page:117
          *** CROSS REFERENCE LISTING ***
**     DENOTES     IDENTIFIER DEFINITION
<<                 IDENTIFIER'S VALUE SET
>>                 IDENTIFIER'S VALUE USED
<>                 IDENTIFIER SET AND/OR USED
--                 IDENTIFIER REFERENCED
PL6.E3A0      #011=ZIU$RVABDER File=ZIU$DBFC_USER.:ZIC0TSI                       FRI 09/05/97 13:14 Page:118
          MINI XREF LISTING

CAN_RVA.ACREC.SEC
       844**DCL      2042<<ASSIGN
CAN_RVA.ADREC.SEC
       838**DCL      2040<<ASSIGN
CAN_RVA.CFREC.SEC
       868**DCL      2047<<ASSIGN
CAN_RVA.FRREC.SEC
       856**DCL      2045<<ASSIGN
CAN_RVA.OAREC.SEC
       841**DCL      2041<<ASSIGN
CAN_RVA.RAREC.SEC
       853**DCL      2044<<ASSIGN
CAN_RVA.RCREC.SEC
       847**DCL      2043<<ASSIGN
CAN_RVA.SCREC.SEC
       850**DCL      2050<<ASSIGN
CAN_RVA.SFREC.SEC
       817**DCL      2039<<ASSIGN
CAN_RVA.SMREC.SEC
       862**DCL      2046<<ASSIGN
CAN_RVA.SNREC.SEC
       874**DCL      2048<<ASSIGN
CAN_RVA.SOREC.SEC
       859**DCL      2049<<ASSIGN
UWA
      1698**DCL      2039--ASSIGN   2040--ASSIGN   2041--ASSIGN   2042--ASSIGN   2043--ASSIGN   2044--ASSIGN
      2045--ASSIGN   2046--ASSIGN   2047--ASSIGN   2048--ASSIGN   2049--ASSIGN   2050--ASSIGN
UWA.AC_REC.CALC_NEXT
      1813**DCL      1814--REDEF
UWA.AC_REC.CALC_PRIOR
      1822**DCL      1823--REDEF
UWA.AC_REC.DEFAULTS
PL6.E3A0      #011=ZIU$RVABDER File=ZIU$DBFC_USER.:ZIC0TSI                       FRI 09/05/97 13:14 Page:119
      1771**DCL      1772--REDEF
UWA.AC_REC.FILE_CODE
      1776**DCL      1777--REDEF
UWA.AC_REC.FLAG1.ERROR_TYPE
      1773**DCL      1774--REDEF
UWA.AC_REC.PG_TYPE
      1788**DCL      1789--REDEF
UWA.AC_REC.SWS.CHECKSUM
      1778**DCL      2042--ASSIGN
UWA.AD_REC.ADDATE
      1753**DCL      1754--REDEF
UWA.AD_REC.ADFUNC
      1752**DCL      2040--ASSIGN
UWA.CF_REC.SYN
      1908**DCL      2047--ASSIGN
UWA.FR_REC.SYN
      1868**DCL      2045--ASSIGN
UWA.OA_REC.CVOEX
      1766**DCL      2041--ASSIGN
UWA.RA_REC.LDBK
      1863**DCL      2044--ASSIGN
UWA.RC_REC.RTYPE
      1832**DCL      2043--ASSIGN
UWA.SC_REC.SETTYPE
      1849**DCL      2050--ASSIGN
UWA.SF_REC.DBKOA
      1719**DCL      2039--ASSIGN
UWA.SM_REC.INSTYPE
      1890**DCL      2046--ASSIGN
UWA.SN_REC.SETYPE
      1929**DCL      2048--ASSIGN
UWA.SO_REC.PSEQ
      1886**DCL      2049--ASSIGN
