
PL6.E3A0      #001=PAGE_RANGE File=ZIU$PGRG.:ZIC0TSI                             FRI 09/05/97 13:19 Page:1
        1        1        /*T***********************************************************/
        2        2        /*T*                                                         */
        3        3        /*T* Copyright (c) Bull HN Information Systems Inc., 1997    */
        4        4        /*T*                                                         */
        5        5        /*T***********************************************************/
        6        6        /****************************************************************/
        7        7        /*   PROC:  ZIU$PGRG
        8        8             PURPOSE:  To get page ranges initialized by the user in the
        9        9                       driver program, and return those ranges to calling
       10       10                       programs with the following conditions:
       11       11             MAX_PAGE: All error checking on page ranges are done by this
       12       12                       routine, therefore a max page variable is needed to
       13       13                       check the high range against. If this value is not
       14       14                       known, an arbitrarily high value may be used.
       15       15         INTRVL_SIZE:  If you desire to have a page range limited to a certain
       16       16                       interval size by breaking it up into smaller ranges,
       17       17                       pass that interval size as the third parameter.
       18       18                       Ex:
       19       19                           If the next range was to be a low range of 1 and
       20       20                       a high range of 10 but you would like that passed to
       21       21                       you as two smaller ranges of 1 to 5 and 6 to 10, you
       22       22                       would pass a INTRVL_SIZE of 5. The first call will
       23       23                       return 1 and 5, the second call will return 6 and 10.
       24       24          ACT_INTRVL: This will return the actual interval size of present
       25       25                        range.
       26       26          Last RANGE:  If this routine is called and there are no more ranges,
       27       27                       the altreturn will be taken.
       28       28        */
       29       29        /*****************************************************************/
       30       30        PAGE_RANGE: PROC(LOW,HIGH,INTRVL_SIZE,ACT_INTRVL,MAX_PAGE,FINISHED) NOAUTO;
       31       31    1   DCL LOW UBIN(36) CALIGNED;
       32       32    1   DCL HIGH UBIN(36) CALIGNED;
       33       33    1   DCL TEMP UBIN(36) UNAL;
       34       34    1   DCL INDX SBIN(36) STATIC INIT(0);
       35       35    1   DCL INTRVL_SIZE UBIN(36) CALIGNED;
       36       36    1   DCL ACT_INTRVL UBIN(36) CALIGNED;
       37       37    1   DCL NUM_INTRVLS UBIN(36) UNAL;
PL6.E3A0      #001=PAGE_RANGE File=ZIU$PGRG.:ZIC0TSI                             FRI 09/05/97 13:19 Page:2
       38       38    1   DCL MAX_PAGE UBIN(36) ALIGNED;
       39       39    1   DCL TEMP_LOW SBIN(36) STATIC INIT(-1);
       40       40    1   DCL TEMP_ICNT SBIN(36) STATIC;
       41       41    1   DCL FINISHED BIT(1);
       42       42        /**/
       43       43    1   DCL SYS_FUNC_ERRMSG ENTRY ALTRET;
       44       44        /**/
       45       45        %INCLUDE ZI$DIR;
       46      202         %DIR;
       47      346        %INCLUDE ZI_GLOBAL_DBUTIL;
       48      524         %MISC_DCLS;
       49      577         %SYS_FUNC;
       50      669        /*
       51      670              If user did not specify a page range, we will make a
       52      671              page range to cover the complete file size.
       53      672        */
       54      673    1       IF ZI$DIR.RNG_LIST = '0'B THEN
       55      674    2       DO;
       56      675    2           INIT_RG.FIRNG(0) = 1;
       57      676    2           INIT_RG.SECRNG(0) = MAX_PAGE;
       58      677    2           END;
       59      678    2       IF ZI$DIR.PGRG_RESET THEN DO; /* Reset each new directive */
       60      679    2           TEMP_ICNT = 0; /* Zero means one level of ranges */
       61      680    2           TEMP_LOW = -1;
       62      681    2           INDX = 0;
       63      682    2           ZI$DIR.PGRG_RESET = '0'B;
       64      683    2           END;
       65      684        /*
       66      685               Set low and high values to values recieved by driver.
       67      686        */
       68      687    1       IF TEMP_LOW = -1 THEN
       69      688    2       DO;
       70      689    2           LOW = INIT_RG.FIRNG(0);
       71      690    2           IF ICNT >= 0 THEN
       72      691    2               TEMP_ICNT = ICNT;
       73      692    2           END;
       74      693    1       ELSE
PL6.E3A0      #001=PAGE_RANGE File=ZIU$PGRG.:ZIC0TSI                             FRI 09/05/97 13:19 Page:3
       75      694    1           LOW = TEMP_LOW;
       76      695    1       HIGH = INIT_RG.SECRNG(INDX);
       77      696    1       IF INDX > TEMP_ICNT THEN
       78      697    2       DO;
       79      698    2           FINISHED = '1'B;
       80      699    2           ACT_INTRVL = 1;
       81      700    2           TEMP_LOW = -1; /* Reset flags and counters */
       82      701    2           INDX = 0;
       83      702    2           RETURN; /* Page ranges are all done */
       84      703    2           END;
       85      704        /*
       86      705               Examine interval size option. 0,1 or nil turns option off.
       87      706        */
       88      707    1       IF INTRVL_SIZE < 1 THEN INTRVL_SIZE = 1;
       89      708    1       IF ADDR(INTRVL_SIZE) = ADDR(NIL) THEN
       90      709    1           INTRVL_SIZE = 1;
       91      710        /*
       92      711               Check for possible range specification errors.
       93      712        */
       94      713    1       CALL CHK_RNG_ERR;
       95      714        /**/
       96      715    1       ACT_INTRVL = HIGH - LOW + 1;
       97      716        /*
       98      717               Calculate the number of intervals of INTRVL_SIZE that
       99      718               this page range will make
      100      719        */
      101      720    1       NUM_INTRVLS = (ACT_INTRVL + INTRVL_SIZE -1)/INTRVL_SIZE;
      102      721        /*
      103      722               If calling routine asked for interval sizes greater than
      104      723               1, and this range is greater than interval size asked for
      105      724               then reduce the range to interval size but don't incriment
      106      725               indx pointer and do bump up low range for next call.
      107      726        */
      108      727    1       IF NUM_INTRVLS > 1 AND INTRVL_SIZE > 1 THEN
      109      728    2       DO;
      110      729    2           TEMP_LOW = LOW + INTRVL_SIZE;
      111      730    2           HIGH = LOW + INTRVL_SIZE -1;
PL6.E3A0      #001=PAGE_RANGE File=ZIU$PGRG.:ZIC0TSI                             FRI 09/05/97 13:19 Page:4
      112      731    2           ACT_INTRVL = INTRVL_SIZE;
      113      732    2           RETURN;
      114      733    2           END;
      115      734        /*
      116      735               If the above was not the case then just return the low
      117      736               and high values of page range and incriment indx.
      118      737        */
      119      738    1       INDX = INDX + 1;
      120      739    1       TEMP_LOW = INIT_RG.FIRNG(INDX);
      121      740    1       RETURN;
      122      741        /*
      123      742        --------------------- CHK_RN_ERR ----------------------------
      124      743        */
      125      744    1   CHK_RNG_ERR: PROC;
      126      745    2       IF LOW > MAX_PAGE THEN
      127      746    3       DO;
      128      747    3           LOW = 0;
      129      748    3           ERRCODESF.ERR# = 1001;
      130      749    3           MSGCODE = ERRCODE_RDEF;
      131      750    3           CALL SYS_FUNC_ERRMSG;
      132      751         /*E* ERROR: ZIU-01001-C
      133      752                             MESSAGE: ...Pick another page please - that one is a bit large.
      134      753                               */
      135      754    3           UNWIND TO RESTART;
      136      755    3           END;
      137      756    2       ELSE
      138      757    2           IF LOW < 1 THEN
      139      758    3           DO;
      140      759    3               IF ZI$DIR.LOAD OR ZI$DIR.UNLOAD
      141      760    3               THEN LOW = 1;
      142      761    3               END;
      143      762        /**/
      144      763    2       IF HIGH > MAX_PAGE THEN
      145      764    3       DO;
      146      765    3           HIGH = MAX_PAGE;
      147      766    3           INIT_RG.SECRNG(INDX) = HIGH;
      148      767    3           ERRCODESF.ERR# = 1002;
PL6.E3A0      #001=PAGE_RANGE File=ZIU$PGRG.:ZIC0TSI                             FRI 09/05/97 13:19 Page:5
      149      768    3           MSGCODE = ERRCODE_RDEF;
      150      769    3           CALL SYS_FUNC_ERRMSG;
      151      770         /*E* ERROR: ZIU-01002-C
      152      771                          MESSAGE: ...Adjusting high range to end of file.
      153      772                       */
      154      773    3           END;
      155      774    2       ELSE
      156      775    2           IF HIGH < 1 THEN
      157      776    3           DO;
      158      777    3               IF ZI$DIR.LOAD OR ZI$DIR.UNLOAD
      159      778    3               THEN HIGH = 1;
      160      779    3               END;
      161      780        /**/
      162      781    2       IF LOW > HIGH THEN
      163      782    3       DO;
      164      783    3           TEMP = HIGH;
      165      784    3           HIGH = LOW;
      166      785    3           LOW = TEMP;
      167      786    3           INIT_RG.FIRNG(INDX) = LOW;
      168      787    3           INIT_RG.SECRNG(INDX) = HIGH;
      169      788    3           ERRCODESF.ERR# = 1003;
      170      789    3           MSGCODE = ERRCODE_RDEF;
      171      790    3           CALL SYS_FUNC_ERRMSG;
      172      791         /*E* ERROR: ZIU-01003-C
      173      792                   MESSAGE: ...Error in range specification - ranges reversed.
      174      793                   */
      175      794    3           END;
      176      795    2   END CHK_RNG_ERR;
      177      796    1   END PAGE_RANGE;

PL6.E3A0      #001=PAGE_RANGE File=ZIU$PGRG.:ZIC0TSI                             FRI 09/05/97 13:19 Page:6
--  Include file information  --

   ZI_GLOBAL_DBUTIL.:ZIC0TOU  is referenced.
   ZI$DIR.:ZIC0TOU  is referenced.
   B$JIT_C.:E05TOU  was found in the system file and is never referenced.
   CP_6_C.:E05TOU  was found in the system file and is never referenced.
      No diagnostics issued in procedure PAGE_RANGE.

   Procedure PAGE_RANGE requires 273 words for executable code.
   Procedure PAGE_RANGE is declared NOAUTO and requires 18 words of local(STATIC) storage.

    No errors detected in file ZIU$PGRG.:ZIC0TSI    .

PL6.E3A0      #001=PAGE_RANGE File=ZIU$PGRG.:ZIC0TSI                             FRI 09/05/97 13:19 Page:7

 Object Unit name= PAGE_RANGE                                 File name= ZIU$PGRG.:ZIC0TOU
 UTS= SEP 05 '97 13:19:30.92 FRI                              Compiler= PL-6/E31         Sev=      00
 SharedLib= :SHARED_SYSTEM                                    Alt SharedLib=


    ****  Control sections  ****

 Sect   Type Bound  Init  Size OctSiz  Section name(segment info)
    0   Data  even  none    18     22  PAGE_RANGE
    1   DCB   even  none     0      0  M$LO
    2   Proc  even  none   273    421  PAGE_RANGE
    3  RoData even  none     7      7  PAGE_RANGE

    ****  Entry defs  ****

                              Check   Calling
                             calling  sequence
  Sect OctLoc Primary Altret sequence   type   Parms  Name
     2      0   yes            yes      Std        6  PAGE_RANGE

  ****  Entry refs  ****

         Check        Calling
        calling       sequence
Altret sequence SRef   type   Args  Name
 yes     yes           Std       0 SYS_FUNC_ERRMSG
                       nStd      0 X66_STATIC_N
                       nStd      0 X66_SUNWIND
PL6.E3A0      #001=PAGE_RANGE File=ZIU$PGRG.:ZIC0TSI                             FRI 09/05/97 13:19 Page:8

  ****  Data refs  ****

  Flags:  r = read only, s = secondary
Flgs Name                             Flgs Name                             Flgs Name
     ZI$DIR                                SCHEMA_ACTIVE                         RECORD_LIST
     SET_LIST                              RETAIN_LIST                           DUMP_FID
     ALTKY                                 INIT_RG                               KEY_RNG
     ITEM_LIST                             REC$                                  RB
     RE                                    IE                                    IB
     CNT                                   ICNT                                  RCNT
     SCNT                                  FIRST_SET                             RETCNT
     DMPCNT                                KCNT                                  ACNT_IDX
     I                                     J                                     K
     X                                     STEPCC                                I_O_BUF$
     OUT_INDX                              I_O_SIZE                              REC_DATA_LN
     M$LO                                  B$TCB$                                B$ROS$
     B$JIT$                                KEYFID                                I_O_KEY
     RESTART                               BREAK_FLAG                            ICHKSUM
     ITMCNT                                GAP1                                  BLKLSF
     KEYLSF                                KEYXSF                                DCBSF
     ORGSF                                 KEYSF                                 KEYVSF
     ACSSF                                 NOTIMESF                              FUNSF
     ASNSF                                 TESTSF                                XTENSIZESF
     DISPSF                                WAITSF                                VFCSF
     FULLSF                                BKUPSF                                BUFLNSF
     BUFSF                                 SOURCESF                              DESTSF
     DATESF                                TIMESF                                UTSSF
     DAYSF                                 TSTAMPSF                              ENCRP_SEEDSF
     ERRCODESF                             MSGCODE                               INCL_ERR
     ERR_INSERT                            FIDSF_RD                              ACNT
     EXISTSF                               SHARESF                               DCBNMSF
     KEYRSF                                NO_KEYSF                              REASGNSF
     CARRY_ATTRIBUTESF                     SUBMESSF                              SPKY_OPNSF
     POSSF                                 ERRFLGSF                              MERGESF
     FSA_FLAG                              RELGSF                                UNUSED
     HELPCODE                              COUNTSF                               INDEXSF
     GAP                                   PSNSF                                 ACNTSF
PL6.E3A0      #001=PAGE_RANGE File=ZIU$PGRG.:ZIC0TSI                             FRI 09/05/97 13:19 Page:9
     KEY_SHADWSF

  ****  Segment refs  ****

  Flags:  r = read only, s = secondary
Flgs Name                             Flgs Name                             Flgs Name
     NULLSID
PL6.E3A0      #001=PAGE_RANGE File=ZIU$PGRG.:ZIC0TSI                             FRI 09/05/97 13:19 Page:10


        1        1        /*T***********************************************************/
        2        2        /*T*                                                         */
        3        3        /*T* Copyright (c) Bull HN Information Systems Inc., 1997    */
        4        4        /*T*                                                         */
        5        5        /*T***********************************************************/
        6        6        /****************************************************************/
        7        7        /*   PROC:  ZIU$PGRG
        8        8             PURPOSE:  To get page ranges initialized by the user in the
        9        9                       driver program, and return those ranges to calling
       10       10                       programs with the following conditions:
       11       11             MAX_PAGE: All error checking on page ranges are done by this
       12       12                       routine, therefore a max page variable is needed to
       13       13                       check the high range against. If this value is not
       14       14                       known, an arbitrarily high value may be used.
       15       15         INTRVL_SIZE:  If you desire to have a page range limited to a certain
       16       16                       interval size by breaking it up into smaller ranges,
       17       17                       pass that interval size as the third parameter.
       18       18                       Ex:
       19       19                           If the next range was to be a low range of 1 and
       20       20                       a high range of 10 but you would like that passed to
       21       21                       you as two smaller ranges of 1 to 5 and 6 to 10, you
       22       22                       would pass a INTRVL_SIZE of 5. The first call will
       23       23                       return 1 and 5, the second call will return 6 and 10.
       24       24          ACT_INTRVL: This will return the actual interval size of present
       25       25                        range.
       26       26          Last RANGE:  If this routine is called and there are no more ranges,
       27       27                       the altreturn will be taken.
       28       28        */
       29       29        /*****************************************************************/
       30       30        PAGE_RANGE: PROC(LOW,HIGH,INTRVL_SIZE,ACT_INTRVL,MAX_PAGE,FINISHED) NOAUTO;

     30  2 000000   000000 700200 xent  PAGE_RANGE   TSX0  ! X66_STATIC_N
         2 000001   000000 000006 0                  ZERO    0,6

       31       31    1   DCL LOW UBIN(36) CALIGNED;
       32       32    1   DCL HIGH UBIN(36) CALIGNED;
PL6.E3A0      #001=PAGE_RANGE File=ZIU$PGRG.:ZIC0TSI                             FRI 09/05/97 13:19 Page:11
       33       33    1   DCL TEMP UBIN(36) UNAL;
       34       34    1   DCL INDX SBIN(36) STATIC INIT(0);
       35       35    1   DCL INTRVL_SIZE UBIN(36) CALIGNED;
       36       36    1   DCL ACT_INTRVL UBIN(36) CALIGNED;
       37       37    1   DCL NUM_INTRVLS UBIN(36) UNAL;
       38       38    1   DCL MAX_PAGE UBIN(36) ALIGNED;
       39       39    1   DCL TEMP_LOW SBIN(36) STATIC INIT(-1);
       40       40    1   DCL TEMP_ICNT SBIN(36) STATIC;
       41       41    1   DCL FINISHED BIT(1);
       42       42        /**/
       43       43    1   DCL SYS_FUNC_ERRMSG ENTRY ALTRET;
       44       44        /**/
       45       45        %INCLUDE ZI$DIR;
       46      202         %DIR;
       47      346        %INCLUDE ZI_GLOBAL_DBUTIL;
       48      524         %MISC_DCLS;
       49      577         %SYS_FUNC;
       50      669        /*
       51      670              If user did not specify a page range, we will make a
       52      671              page range to cover the complete file size.
       53      672        */
       54      673    1       IF ZI$DIR.RNG_LIST = '0'B THEN

    673  2 000002   000000 234000 xsym               SZN     ZI$DIR
         2 000003   000011 604000 2                  TMI     s:678

       55      674    2       DO;

       56      675    2           INIT_RG.FIRNG(0) = 1;

    675  2 000004   000001 235007                    LDA     1,DL
         2 000005   000000 755000 xsym               STA     INIT_RG

       57      676    2           INIT_RG.SECRNG(0) = MAX_PAGE;

    676  2 000006   000005 470400 0                  LDP0    @MAX_PAGE
         2 000007   000000 235100                    LDA     0,,PR0
PL6.E3A0      #001=PAGE_RANGE File=ZIU$PGRG.:ZIC0TSI                             FRI 09/05/97 13:19 Page:12
         2 000010   000001 755000 xsym               STA     INIT_RG+1

       58      677    2           END;

       59      678    2       IF ZI$DIR.PGRG_RESET THEN DO; /* Reset each new directive */

    678  2 000011   000125 236000 xsym               LDQ     ZI$DIR+85
         2 000012   010000 316003                    CANQ    4096,DU
         2 000013   000022 600000 2                  TZE     s:687

       60      679    2           TEMP_ICNT = 0; /* Zero means one level of ranges */

    679  2 000014   000013 450000 0                  STZ     TEMP_ICNT

       61      680    2           TEMP_LOW = -1;

    680  2 000015   000001 335007                    LCA     1,DL
         2 000016   000012 755000 0                  STA     TEMP_LOW

       62      681    2           INDX = 0;

    681  2 000017   000010 450000 0                  STZ     INDX

       63      682    2           ZI$DIR.PGRG_RESET = '0'B;

    682  2 000020   000000 236000 3                  LDQ     0
         2 000021   000125 356000 xsym               ANSQ    ZI$DIR+85

       64      683    2           END;

       65      684        /*
       66      685               Set low and high values to values recieved by driver.
       67      686        */
       68      687    1       IF TEMP_LOW = -1 THEN

    687  2 000022   000012 235000 0                  LDA     TEMP_LOW
         2 000023   000001 115000 3                  CMPA    1
PL6.E3A0      #001=PAGE_RANGE File=ZIU$PGRG.:ZIC0TSI                             FRI 09/05/97 13:19 Page:13
         2 000024   000035 601000 2                  TNZ     s:694

       69      688    2       DO;

       70      689    2           LOW = INIT_RG.FIRNG(0);

    689  2 000025   000001 470400 0                  LDP0    @LOW
         2 000026   000100 100400                    MLR     fill='000'O
         2 000027   000000 000004 xsym               ADSC9   INIT_RG                  cn=0,n=4
         2 000030   000000 000004                    ADSC9   0,,PR0                   cn=0,n=4

       71      690    2           IF ICNT >= 0 THEN

    690  2 000031   000000 236000 xsym               LDQ     ICNT
         2 000032   000041 604000 2                  TMI     s:695

       72      691    2               TEMP_ICNT = ICNT;

    691  2 000033   000013 756000 0                  STQ     TEMP_ICNT

       73      692    2           END;

    692  2 000034   000041 710000 2                  TRA     s:695

       74      693    1       ELSE
       75      694    1           LOW = TEMP_LOW;

    694  2 000035   000001 470400 0                  LDP0    @LOW
         2 000036   000100 100400                    MLR     fill='000'O
         2 000037   000012 000004 0                  ADSC9   TEMP_LOW                 cn=0,n=4
         2 000040   000000 000004                    ADSC9   0,,PR0                   cn=0,n=4

       76      695    1       HIGH = INIT_RG.SECRNG(INDX);

    695  2 000041   000010 236000 0                  LDQ     INDX
         2 000042   000003 736000                    QLS     3
         2 000043   000002 471400 0                  LDP1    @HIGH
PL6.E3A0      #001=PAGE_RANGE File=ZIU$PGRG.:ZIC0TSI                             FRI 09/05/97 13:19 Page:14
         2 000044   000100 100406                    MLR     fill='000'O
         2 000045   000001 000004 xsym               ADSC9   INIT_RG+1,Q              cn=0,n=4
         2 000046   100000 000004                    ADSC9   0,,PR1                   cn=0,n=4

       77      696    1       IF INDX > TEMP_ICNT THEN

    696  2 000047   000010 236000 0                  LDQ     INDX
         2 000050   000013 116000 0                  CMPQ    TEMP_ICNT
         2 000051   000067 604400 2                  TMOZ    s:707

       78      697    2       DO;

       79      698    2           FINISHED = '1'B;

    698  2 000052   000006 473400 0                  LDP3    @FINISHED
         2 000053   003100 060400                    CSL     bolr='003'O
         2 000054   000002 000001 3                  BDSC    2                        by=0,bit=0,n=1
         2 000055   300000 000001                    BDSC    0,,PR3                   by=0,bit=0,n=1

       80      699    2           ACT_INTRVL = 1;

    699  2 000056   000004 474400 0                  LDP4    @ACT_INTRVL
         2 000057   000100 100400                    MLR     fill='000'O
         2 000060   000003 000004 3                  ADSC9   3                        cn=0,n=4
         2 000061   400000 000004                    ADSC9   0,,PR4                   cn=0,n=4

       81      700    2           TEMP_LOW = -1; /* Reset flags and counters */

    700  2 000062   000001 335007                    LCA     1,DL
         2 000063   000012 755000 0                  STA     TEMP_LOW

       82      701    2           INDX = 0;

    701  2 000064   000010 450000 0                  STZ     INDX

       83      702    2           RETURN; /* Page ranges are all done */

PL6.E3A0      #001=PAGE_RANGE File=ZIU$PGRG.:ZIC0TSI                             FRI 09/05/97 13:19 Page:15
    702  2 000065   000000 221200 0                  LDX1  ! 0
         2 000066   000001 702211                    TSX2  ! 1,X1

       84      703    2           END;
       85      704        /*
       86      705               Examine interval size option. 0,1 or nil turns option off.
       87      706        */
       88      707    1       IF INTRVL_SIZE < 1 THEN INTRVL_SIZE = 1;

    707  2 000067   000003 473400 0                  LDP3    @INTRVL_SIZE
         2 000070   000000 100500                    MLR     fill='000'O
         2 000071   300000 000004                    ADSC9   0,,PR3                   cn=0,n=4
         2 000072   000016 000004 0                  ADSC9   TEMP_ICNT+3              cn=0,n=4
         2 000073   000016 236000 0                  LDQ     TEMP_ICNT+3
         2 000074   000000 116003                    CMPQ    0,DU
         2 000075   000101 601000 2                  TNZ     s:708

    707  2 000076   000100 100400                    MLR     fill='000'O
         2 000077   000003 000004 3                  ADSC9   3                        cn=0,n=4
         2 000100   300000 000004                    ADSC9   0,,PR3                   cn=0,n=4

       89      708    1       IF ADDR(INTRVL_SIZE) = ADDR(NIL) THEN

    708  2 000101   000003 236000 0                  LDQ     @INTRVL_SIZE
         2 000102   000004 116000 3                  CMPQ    4
         2 000103   000107 601000 2                  TNZ     s:713

       90      709    1           INTRVL_SIZE = 1;

    709  2 000104   000100 100400                    MLR     fill='000'O
         2 000105   000003 000004 3                  ADSC9   3                        cn=0,n=4
         2 000106   300000 000004                    ADSC9   0,,PR3                   cn=0,n=4

       91      710        /*
       92      711               Check for possible range specification errors.
       93      712        */
       94      713    1       CALL CHK_RNG_ERR;
PL6.E3A0      #001=PAGE_RANGE File=ZIU$PGRG.:ZIC0TSI                             FRI 09/05/97 13:19 Page:16

    713  2 000107   000226 701000 2                  TSX1    CHK_RNG_ERR
         2 000110   000000 011000                    NOP     0

       95      714        /**/
       96      715    1       ACT_INTRVL = HIGH - LOW + 1;

    715  2 000111   000001 470400 0                  LDP0    @LOW
         2 000112   000000 100500                    MLR     fill='000'O
         2 000113   000000 000004                    ADSC9   0,,PR0                   cn=0,n=4
         2 000114   000016 000004 0                  ADSC9   TEMP_ICNT+3              cn=0,n=4
         2 000115   000002 471400 0                  LDP1    @HIGH
         2 000116   000000 100500                    MLR     fill='000'O
         2 000117   100000 000004                    ADSC9   0,,PR1                   cn=0,n=4
         2 000120   000017 000004 0                  ADSC9   TEMP_ICNT+4              cn=0,n=4
         2 000121   000017 236000 0                  LDQ     TEMP_ICNT+4
         2 000122   000016 136000 0                  SBLQ    TEMP_ICNT+3
         2 000123   000001 036007                    ADLQ    1,DL
         2 000124   000020 756000 0                  STQ     TEMP_ICNT+5
         2 000125   000004 473400 0                  LDP3    @ACT_INTRVL
         2 000126   000100 100400                    MLR     fill='000'O
         2 000127   000020 000004 0                  ADSC9   TEMP_ICNT+5              cn=0,n=4
         2 000130   300000 000004                    ADSC9   0,,PR3                   cn=0,n=4

       97      716        /*
       98      717               Calculate the number of intervals of INTRVL_SIZE that
       99      718               this page range will make
      100      719        */
      101      720    1       NUM_INTRVLS = (ACT_INTRVL + INTRVL_SIZE -1)/INTRVL_SIZE;

    720  2 000131   000003 474400 0                  LDP4    @INTRVL_SIZE
         2 000132   000000 100500                    MLR     fill='000'O
         2 000133   400000 000004                    ADSC9   0,,PR4                   cn=0,n=4
         2 000134   000016 000004 0                  ADSC9   TEMP_ICNT+3              cn=0,n=4
         2 000135   000000 100500                    MLR     fill='000'O
         2 000136   300000 000004                    ADSC9   0,,PR3                   cn=0,n=4
         2 000137   000017 000004 0                  ADSC9   TEMP_ICNT+4              cn=0,n=4
PL6.E3A0      #001=PAGE_RANGE File=ZIU$PGRG.:ZIC0TSI                             FRI 09/05/97 13:19 Page:17
         2 000140   000017 236000 0                  LDQ     TEMP_ICNT+4
         2 000141   000016 036000 0                  ADLQ    TEMP_ICNT+3
         2 000142   000000 100500                    MLR     fill='000'O
         2 000143   400000 000004                    ADSC9   0,,PR4                   cn=0,n=4
         2 000144   000020 000004 0                  ADSC9   TEMP_ICNT+5              cn=0,n=4
         2 000145   000001 136007                    SBLQ    1,DL
         2 000146   000020 235000 0                  LDA     TEMP_ICNT+5
         2 000147   000152 605000 2                  TPL     s:720+17
         2 000150   000000 236003                    LDQ     0,DU
         2 000151   000153 710000 2                  TRA     s:720+18
         2 000152   000020 506000 0                  DIV     TEMP_ICNT+5
         2 000153   000011 756000 0                  STQ     NUM_INTRVLS

      102      721        /*
      103      722               If calling routine asked for interval sizes greater than
      104      723               1, and this range is greater than interval size asked for
      105      724               then reduce the range to interval size but don't incriment
      106      725               indx pointer and do bump up low range for next call.
      107      726        */
      108      727    1       IF NUM_INTRVLS > 1 AND INTRVL_SIZE > 1 THEN

    727  2 000154   000002 116007                    CMPQ    2,DL
         2 000155   000217 602000 2                  TNC     s:738
         2 000156   000000 100500                    MLR     fill='000'O
         2 000157   400000 000004                    ADSC9   0,,PR4                   cn=0,n=4
         2 000160   000016 000004 0                  ADSC9   TEMP_ICNT+3              cn=0,n=4
         2 000161   000016 236000 0                  LDQ     TEMP_ICNT+3
         2 000162   000002 116007                    CMPQ    2,DL
         2 000163   000217 602000 2                  TNC     s:738

      109      728    2       DO;

      110      729    2           TEMP_LOW = LOW + INTRVL_SIZE;

    729  2 000164   000000 100500                    MLR     fill='000'O
         2 000165   400000 000004                    ADSC9   0,,PR4                   cn=0,n=4
         2 000166   000016 000004 0                  ADSC9   TEMP_ICNT+3              cn=0,n=4
PL6.E3A0      #001=PAGE_RANGE File=ZIU$PGRG.:ZIC0TSI                             FRI 09/05/97 13:19 Page:18
         2 000167   000000 100500                    MLR     fill='000'O
         2 000170   000000 000004                    ADSC9   0,,PR0                   cn=0,n=4
         2 000171   000017 000004 0                  ADSC9   TEMP_ICNT+4              cn=0,n=4
         2 000172   000017 236000 0                  LDQ     TEMP_ICNT+4
         2 000173   000016 036000 0                  ADLQ    TEMP_ICNT+3
         2 000174   000012 756000 0                  STQ     TEMP_LOW

      111      730    2           HIGH = LOW + INTRVL_SIZE -1;

    730  2 000175   000000 100500                    MLR     fill='000'O
         2 000176   400000 000004                    ADSC9   0,,PR4                   cn=0,n=4
         2 000177   000016 000004 0                  ADSC9   TEMP_ICNT+3              cn=0,n=4
         2 000200   000000 100500                    MLR     fill='000'O
         2 000201   000000 000004                    ADSC9   0,,PR0                   cn=0,n=4
         2 000202   000017 000004 0                  ADSC9   TEMP_ICNT+4              cn=0,n=4
         2 000203   000017 236000 0                  LDQ     TEMP_ICNT+4
         2 000204   000016 036000 0                  ADLQ    TEMP_ICNT+3
         2 000205   000001 136007                    SBLQ    1,DL
         2 000206   000020 756000 0                  STQ     TEMP_ICNT+5
         2 000207   000100 100400                    MLR     fill='000'O
         2 000210   000020 000004 0                  ADSC9   TEMP_ICNT+5              cn=0,n=4
         2 000211   100000 000004                    ADSC9   0,,PR1                   cn=0,n=4

      112      731    2           ACT_INTRVL = INTRVL_SIZE;

    731  2 000212   000100 100500                    MLR     fill='000'O
         2 000213   400000 000004                    ADSC9   0,,PR4                   cn=0,n=4
         2 000214   300000 000004                    ADSC9   0,,PR3                   cn=0,n=4

      113      732    2           RETURN;

    732  2 000215   000000 221200 0                  LDX1  ! 0
         2 000216   000001 702211                    TSX2  ! 1,X1

      114      733    2           END;
      115      734        /*
      116      735               If the above was not the case then just return the low
PL6.E3A0      #001=PAGE_RANGE File=ZIU$PGRG.:ZIC0TSI                             FRI 09/05/97 13:19 Page:19
      117      736               and high values of page range and incriment indx.
      118      737        */
      119      738    1       INDX = INDX + 1;

    738  2 000217   000010 054000 0                  AOS     INDX

      120      739    1       TEMP_LOW = INIT_RG.FIRNG(INDX);

    739  2 000220   000010 235000 0                  LDA     INDX
         2 000221   000001 735000                    ALS     1
         2 000222   000000 235005 xsym               LDA     INIT_RG,AL
         2 000223   000012 755000 0                  STA     TEMP_LOW

      121      740    1       RETURN;

    740  2 000224   000000 221200 0                  LDX1  ! 0
         2 000225   000001 702211                    TSX2  ! 1,X1

      122      741        /*
      123      742        --------------------- CHK_RN_ERR ----------------------------
      124      743        */
      125      744    1   CHK_RNG_ERR: PROC;

    744  2 000226   000014 741200 0     CHK_RNG_ERR  STX1  ! TEMP_ICNT+1

      126      745    2       IF LOW > MAX_PAGE THEN

    745  2 000227   000005 470400 0                  LDP0    @MAX_PAGE
         2 000230   000001 471400 0                  LDP1    @LOW
         2 000231   000000 100500                    MLR     fill='000'O
         2 000232   100000 000004                    ADSC9   0,,PR1                   cn=0,n=4
         2 000233   000016 000004 0                  ADSC9   TEMP_ICNT+3              cn=0,n=4
         2 000234   000016 236000 0                  LDQ     TEMP_ICNT+3
         2 000235   000000 116100                    CMPQ    0,,PR0
         2 000236   000261 602000 2                  TNC     s:757
         2 000237   000261 600000 2                  TZE     s:757

PL6.E3A0      #001=PAGE_RANGE File=ZIU$PGRG.:ZIC0TSI                             FRI 09/05/97 13:19 Page:20
      127      746    3       DO;

      128      747    3           LOW = 0;

    747  2 000240   000100 100400                    MLR     fill='000'O
         2 000241   000005 000004 3                  ADSC9   5                        cn=0,n=4
         2 000242   100000 000004                    ADSC9   0,,PR1                   cn=0,n=4

      129      748    3           ERRCODESF.ERR# = 1001;

    748  2 000243   000000 236000 xsym               LDQ     ERRCODESF
         2 000244   000006 376000 3                  ANQ     6
         2 000245   017510 276007                    ORQ     8008,DL
         2 000246   000000 756000 xsym               STQ     ERRCODESF

      130      749    3           MSGCODE = ERRCODE_RDEF;

    749  2 000247   000000 756000 xsym               STQ     MSGCODE

      131      750    3           CALL SYS_FUNC_ERRMSG;

    750  2 000250   000005 631400 3                  EPPR1   5
         2 000251   000000 701000 xent               TSX1    SYS_FUNC_ERRMSG
         2 000252   000000 011000                    NOP     0

      132      751         /*E* ERROR: ZIU-01001-C
      133      752                            MESSAGE: ...Pick another page please - that one is a bit large.
      134      753                               */
      135      754    3           UNWIND TO RESTART;

    754  2 000253   000000 100600                    MLR   ! fill='000'O
         2 000254   000000 000010 xsym               ADSC9   RESTART                  cn=0,n=8
         2 000255   000016 000010 0                  ADSC9   TEMP_ICNT+3              cn=0,n=8
         2 000256   000016 237200 0                  LDAQ  ! TEMP_ICNT+3
         2 000257   000000 700200 xent               TSX0  ! X66_SUNWIND
         2 000260   000000 000200                    ZERO    0,128

PL6.E3A0      #001=PAGE_RANGE File=ZIU$PGRG.:ZIC0TSI                             FRI 09/05/97 13:19 Page:21
      136      755    3           END;
      137      756    2       ELSE
      138      757    2           IF LOW < 1 THEN

    757  2 000261   000000 100500                    MLR     fill='000'O
         2 000262   100000 000004                    ADSC9   0,,PR1                   cn=0,n=4
         2 000263   000016 000004 0                  ADSC9   TEMP_ICNT+3              cn=0,n=4
         2 000264   000016 236000 0                  LDQ     TEMP_ICNT+3
         2 000265   000000 116003                    CMPQ    0,DU
         2 000266   000277 601000 2                  TNZ     s:763

      139      758    3           DO;

      140      759    3               IF ZI$DIR.LOAD OR ZI$DIR.UNLOAD

    759  2 000267   000000 236000 xsym               LDQ     ZI$DIR
         2 000270   040000 316003                    CANQ    16384,DU
         2 000271   000274 601000 2                  TNZ     s:760
         2 000272   020000 316003                    CANQ    8192,DU
         2 000273   000277 600000 2                  TZE     s:763

      141      760    3               THEN LOW = 1;

    760  2 000274   000100 100400                    MLR     fill='000'O
         2 000275   000003 000004 3                  ADSC9   3                        cn=0,n=4
         2 000276   100000 000004                    ADSC9   0,,PR1                   cn=0,n=4

      142      761    3               END;

      143      762        /**/
      144      763    2       IF HIGH > MAX_PAGE THEN

    763  2 000277   000002 473400 0                  LDP3    @HIGH
         2 000300   000000 100500                    MLR     fill='000'O
         2 000301   300000 000004                    ADSC9   0,,PR3                   cn=0,n=4
         2 000302   000016 000004 0                  ADSC9   TEMP_ICNT+3              cn=0,n=4
         2 000303   000016 236000 0                  LDQ     TEMP_ICNT+3
PL6.E3A0      #001=PAGE_RANGE File=ZIU$PGRG.:ZIC0TSI                             FRI 09/05/97 13:19 Page:22
         2 000304   000000 116100                    CMPQ    0,,PR0
         2 000305   000331 602000 2                  TNC     s:775
         2 000306   000331 600000 2                  TZE     s:775

      145      764    3       DO;

      146      765    3           HIGH = MAX_PAGE;

    765  2 000307   000100 100500                    MLR     fill='000'O
         2 000310   000000 000004                    ADSC9   0,,PR0                   cn=0,n=4
         2 000311   300000 000004                    ADSC9   0,,PR3                   cn=0,n=4

      147      766    3           INIT_RG.SECRNG(INDX) = HIGH;

    766  2 000312   000010 235000 0                  LDA     INDX
         2 000313   000001 735000                    ALS     1
         2 000314   000002 735000                    ALS     2
         2 000315   000005 100500                    MLR     fill='000'O
         2 000316   300000 000004                    ADSC9   0,,PR3                   cn=0,n=4
         2 000317   000001 000004 xsym               ADSC9   INIT_RG+1,A              cn=0,n=4

      148      767    3           ERRCODESF.ERR# = 1002;

    767  2 000320   000000 236000 xsym               LDQ     ERRCODESF
         2 000321   000006 376000 3                  ANQ     6
         2 000322   017520 276007                    ORQ     8016,DL
         2 000323   000000 756000 xsym               STQ     ERRCODESF

      149      768    3           MSGCODE = ERRCODE_RDEF;

    768  2 000324   000000 756000 xsym               STQ     MSGCODE

      150      769    3           CALL SYS_FUNC_ERRMSG;

    769  2 000325   000005 631400 3                  EPPR1   5
         2 000326   000000 701000 xent               TSX1    SYS_FUNC_ERRMSG
         2 000327   000000 011000                    NOP     0
PL6.E3A0      #001=PAGE_RANGE File=ZIU$PGRG.:ZIC0TSI                             FRI 09/05/97 13:19 Page:23

      151      770         /*E* ERROR: ZIU-01002-C
      152      771                          MESSAGE: ...Adjusting high range to end of file.
      153      772                       */
      154      773    3           END;

    773  2 000330   000347 710000 2                  TRA     s:781

      155      774    2       ELSE
      156      775    2           IF HIGH < 1 THEN

    775  2 000331   000000 100500                    MLR     fill='000'O
         2 000332   300000 000004                    ADSC9   0,,PR3                   cn=0,n=4
         2 000333   000016 000004 0                  ADSC9   TEMP_ICNT+3              cn=0,n=4
         2 000334   000016 236000 0                  LDQ     TEMP_ICNT+3
         2 000335   000000 116003                    CMPQ    0,DU
         2 000336   000347 601000 2                  TNZ     s:781

      157      776    3           DO;

      158      777    3               IF ZI$DIR.LOAD OR ZI$DIR.UNLOAD

    777  2 000337   000000 236000 xsym               LDQ     ZI$DIR
         2 000340   040000 316003                    CANQ    16384,DU
         2 000341   000344 601000 2                  TNZ     s:778
         2 000342   020000 316003                    CANQ    8192,DU
         2 000343   000347 600000 2                  TZE     s:781

      159      778    3               THEN HIGH = 1;

    778  2 000344   000100 100400                    MLR     fill='000'O
         2 000345   000003 000004 3                  ADSC9   3                        cn=0,n=4
         2 000346   300000 000004                    ADSC9   0,,PR3                   cn=0,n=4

      160      779    3               END;

      161      780        /**/
PL6.E3A0      #001=PAGE_RANGE File=ZIU$PGRG.:ZIC0TSI                             FRI 09/05/97 13:19 Page:24
      162      781    2       IF LOW > HIGH THEN

    781  2 000347   000001 470400 0                  LDP0    @LOW
         2 000350   000000 100500                    MLR     fill='000'O
         2 000351   000000 000004                    ADSC9   0,,PR0                   cn=0,n=4
         2 000352   000016 000004 0                  ADSC9   TEMP_ICNT+3              cn=0,n=4
         2 000353   000002 471400 0                  LDP1    @HIGH
         2 000354   000000 100500                    MLR     fill='000'O
         2 000355   100000 000004                    ADSC9   0,,PR1                   cn=0,n=4
         2 000356   000017 000004 0                  ADSC9   TEMP_ICNT+4              cn=0,n=4
         2 000357   000017 236000 0                  LDQ     TEMP_ICNT+4
         2 000360   000016 116000 0                  CMPQ    TEMP_ICNT+3
         2 000361   000417 603000 2                  TRC     s:795

      163      782    3       DO;

      164      783    3           TEMP = HIGH;

    783  2 000362   000000 100500                    MLR     fill='000'O
         2 000363   100000 000004                    ADSC9   0,,PR1                   cn=0,n=4
         2 000364   000007 000004 0                  ADSC9   TEMP                     cn=0,n=4

      165      784    3           HIGH = LOW;

    784  2 000365   000100 100500                    MLR     fill='000'O
         2 000366   000000 000004                    ADSC9   0,,PR0                   cn=0,n=4
         2 000367   100000 000004                    ADSC9   0,,PR1                   cn=0,n=4

      166      785    3           LOW = TEMP;

    785  2 000370   000100 100400                    MLR     fill='000'O
         2 000371   000007 000004 0                  ADSC9   TEMP                     cn=0,n=4
         2 000372   000000 000004                    ADSC9   0,,PR0                   cn=0,n=4

      167      786    3           INIT_RG.FIRNG(INDX) = LOW;

    786  2 000373   000010 235000 0                  LDA     INDX
PL6.E3A0      #001=PAGE_RANGE File=ZIU$PGRG.:ZIC0TSI                             FRI 09/05/97 13:19 Page:25
         2 000374   000001 735000                    ALS     1
         2 000375   000002 735000                    ALS     2
         2 000376   000005 100500                    MLR     fill='000'O
         2 000377   000000 000004                    ADSC9   0,,PR0                   cn=0,n=4
         2 000400   000000 000004 xsym               ADSC9   INIT_RG,A                cn=0,n=4

      168      787    3           INIT_RG.SECRNG(INDX) = HIGH;

    787  2 000401   000010 235000 0                  LDA     INDX
         2 000402   000001 735000                    ALS     1
         2 000403   000002 735000                    ALS     2
         2 000404   000005 100500                    MLR     fill='000'O
         2 000405   100000 000004                    ADSC9   0,,PR1                   cn=0,n=4
         2 000406   000001 000004 xsym               ADSC9   INIT_RG+1,A              cn=0,n=4

      169      788    3           ERRCODESF.ERR# = 1003;

    788  2 000407   000000 236000 xsym               LDQ     ERRCODESF
         2 000410   000006 376000 3                  ANQ     6
         2 000411   017530 276007                    ORQ     8024,DL
         2 000412   000000 756000 xsym               STQ     ERRCODESF

      170      789    3           MSGCODE = ERRCODE_RDEF;

    789  2 000413   000000 756000 xsym               STQ     MSGCODE

      171      790    3           CALL SYS_FUNC_ERRMSG;

    790  2 000414   000005 631400 3                  EPPR1   5
         2 000415   000000 701000 xent               TSX1    SYS_FUNC_ERRMSG
         2 000416   000000 011000                    NOP     0

      172      791         /*E* ERROR: ZIU-01003-C
      173      792                   MESSAGE: ...Error in range specification - ranges reversed.
      174      793                   */
      175      794    3           END;

PL6.E3A0      #001=PAGE_RANGE File=ZIU$PGRG.:ZIC0TSI                             FRI 09/05/97 13:19 Page:26
      176      795    2   END CHK_RNG_ERR;

    795  2 000417   000014 221200 0                  LDX1  ! TEMP_ICNT+1
         2 000420   000001 702211                    TSX2  ! 1,X1

INDX
 Sect OctLoc
   0     010   000000 000000                                                    ....

TEMP_LOW
 Sect OctLoc
   0     012   777777 777777                                                    ....

(unnamed)
 Sect OctLoc
   0     014   ****** ******   ****** ******   ****** ******   ****** ******    ................

(unnamed)
 Sect OctLoc
   3     000   767777 777777   777777 777777   400000 000000   000000 000001    ................
   3     004   000000 006014   000000 000000   777777 400007                    ............
      177      796    1   END PAGE_RANGE;

PL6.E3A0      #001=PAGE_RANGE File=ZIU$PGRG.:ZIC0TSI                             FRI 09/05/97 13:19 Page:27
--  Include file information  --

   ZI_GLOBAL_DBUTIL.:ZIC0TOU  is referenced.
   ZI$DIR.:ZIC0TOU  is referenced.
   B$JIT_C.:E05TOU  was found in the system file and is never referenced.
   CP_6_C.:E05TOU  was found in the system file and is never referenced.
      No diagnostics issued in procedure PAGE_RANGE.

   Procedure PAGE_RANGE requires 273 words for executable code.
   Procedure PAGE_RANGE is declared NOAUTO and requires 18 words of local(STATIC) storage.

    No errors detected in file ZIU$PGRG.:ZIC0TSI    .
PL6.E3A0      #001=PAGE_RANGE File=ZIU$PGRG.:ZIC0TSI                             FRI 09/05/97 13:19 Page:28
          *** CROSS REFERENCE LISTING ***
**     DENOTES     IDENTIFIER DEFINITION
<<                 IDENTIFIER'S VALUE SET
>>                 IDENTIFIER'S VALUE USED
<>                 IDENTIFIER SET AND/OR USED
--                 IDENTIFIER REFERENCED
PL6.E3A0      #001=PAGE_RANGE File=ZIU$PGRG.:ZIC0TSI                             FRI 09/05/97 13:19 Page:29
          MINI XREF LISTING

ACT_INTRVL
        36**DCL        30--PROC      699<<ASSIGN    715<<ASSIGN    720>>ASSIGN    731<<ASSIGN
CHK_RNG_ERR
       744**PROC      713--CALL
COUNTSF
       658**DCL       659--REDEF
ENCRP_SEEDSF
       616**DCL       617--REDEF
ERRCODESF
       618**DCL       623--REDEF
ERRCODESF.ERR#
       621**DCL       748<<ASSIGN    767<<ASSIGN    788<<ASSIGN
ERRCODE_RDEF
       623**DCL       749>>ASSIGN    768>>ASSIGN    789>>ASSIGN
FIDSF_RD
       634**DCL       635--REDEF
FINISHED
        41**DCL        30--PROC      698<<ASSIGN
HELPCODE
       652**DCL       657--REDEF
HIGH
        32**DCL        30--PROC      695<<ASSIGN    715>>ASSIGN    730<<ASSIGN    763>>IF        765<<ASSIGN
       766>>ASSIGN    775>>IF        778<<ASSIGN    781>>IF        783>>ASSIGN    784<<ASSIGN    787>>ASSIGN
ICHKSUM
       572**DCL       573--REDEF
ICNT
       537**DCL       690>>IF        691>>ASSIGN
INDX
        34**DCL       681<<ASSIGN    695>>ASSIGN    696>>IF        701<<ASSIGN    738<<ASSIGN    738>>ASSIGN
       739>>ASSIGN    766>>ASSIGN    786>>ASSIGN    787>>ASSIGN
INIT_RG.FIRNG
       336**DCL       675<<ASSIGN    689>>ASSIGN    739>>ASSIGN    786<<ASSIGN
PL6.E3A0      #001=PAGE_RANGE File=ZIU$PGRG.:ZIC0TSI                             FRI 09/05/97 13:19 Page:30
INIT_RG.SECRNG
       337**DCL       676<<ASSIGN    695>>ASSIGN    766<<ASSIGN    787<<ASSIGN
INTRVL_SIZE
        35**DCL        30--PROC      707>>IF        707<<ASSIGN    708--IF        709<<ASSIGN    720>>ASSIGN
       720>>ASSIGN    727>>IF        729>>ASSIGN    730>>ASSIGN    731>>ASSIGN
I_O_BUF$
       550**DCL       551--IMP-PTR
KEYVSF
       590**DCL       595--REDEF
KEYVSF.WD_ONE
       592**DCL       593--REDEF
LOW
        31**DCL        30--PROC      689<<ASSIGN    694<<ASSIGN    715>>ASSIGN    729>>ASSIGN    730>>ASSIGN
       745>>IF        747<<ASSIGN    757>>IF        760<<ASSIGN    781>>IF        784>>ASSIGN    785<<ASSIGN
       786>>ASSIGN
MAX_PAGE
        38**DCL        30--PROC      676>>ASSIGN    745>>IF        763>>IF        765>>ASSIGN
MSGCODE
       624**DCL       625--REDEF     749<<ASSIGN    768<<ASSIGN    789<<ASSIGN
NUM_INTRVLS
        37**DCL       720<<ASSIGN    727>>IF
REC$
       531**DCL       554--IMP-PTR
REC_DATA_LN
       559**DCL       558--IMP-SIZ
RESTART
       570**DCL       754>>UNWIND
SYS_FUNC_ERRMSG
        43**DCL-ENT   750--CALL      769--CALL      790--CALL
TEMP
        33**DCL       783<<ASSIGN    785>>ASSIGN
TEMP_ICNT
        40**DCL       679<<ASSIGN    691<<ASSIGN    696>>IF
TEMP_LOW
        39**DCL       680<<ASSIGN    687>>IF        694>>ASSIGN    700<<ASSIGN    729<<ASSIGN    739<<ASSIGN
ZI$DIR.ALTKEY
PL6.E3A0      #001=PAGE_RANGE File=ZIU$PGRG.:ZIC0TSI                             FRI 09/05/97 13:19 Page:31
       274**DCL       275--REDEF     276--REDEF
ZI$DIR.AREAFID
       240**DCL       241--REDEF
ZI$DIR.DATE
       279**DCL       283--REDEF
ZI$DIR.DEST_SEED
       235**DCL       236--REDEF     237--REDEF
ZI$DIR.ENCP_SEED
       232**DCL       233--REDEF     234--REDEF
ZI$DIR.LOAD
       214**DCL       759>>IF        777>>IF
ZI$DIR.PGRG_RESET
       246**DCL       678>>IF        682<<ASSIGN
ZI$DIR.REPRT_ZERO
       266**DCL       267--REDEF
ZI$DIR.RNG_LIST
       209**DCL       673>>IF
ZI$DIR.SCHFID
       238**DCL       239--REDEF
ZI$DIR.TIME
       284**DCL       289--REDEF
ZI$DIR.UNLOAD
       215**DCL       759>>IF        777>>IF
