
PL6.E3A0      #001=EXCTN_REPRT_SETUP File=ZIU$Q2ER.:ZIC0TSI                      FRI 09/05/97 13:21 Page:1
        1        1        /*T***********************************************************/
        2        2        /*T*                                                         */
        3        3        /*T* Copyright (c) Bull HN Information Systems Inc., 1997    */
        4        4        /*T*                                                         */
        5        5        /*T***********************************************************/
        6        6        EXCTN_REPRT_SETUP: PROC;
        7        7    1   DCL ZERO_SUP ENTRY(3);
        8        8    1   DCL SYS_FUNC_WRIT ENTRY ALTRET;
        9        9    1   DCL SYS_FUNC_TSTAMP ENTRY ALTRET;
       10       10    1   DCL SYS_FUNC_OPEN ENTRY ALTRET;
       11       11    1   DCL SYS_FUNC_CLOS ENTRY ALTRET;
       12       12    1   DCL GET_FILESZ ENTRY ALTRET;
       13       13    1   DCL 1 TIMBUF STATIC,
       14       14    1         2 HOUR_MIN CHAR(5) UNAL,
       15       15    1         2 * CHAR(6) UNAL;
       16       16    1   DCL BUF1 CHAR(10) STATIC;
       17       17    1   DCL BUF2 CHAR(10) STATIC;
       18       18    1   DCL V1 SBIN STATIC ALIGNED;
       19       19    1   DCL V2 SBIN STATIC ALIGNED;
       20       20    1   DCL V3 SBIN STATIC ALIGNED;
       21       21    1   DCL P1$ PTR STATIC INIT(ADDR(BUF1));
       22       22    1   DCL P2$ PTR STATIC INIT(ADDR(BUF2));
       23       23    1   DCL CV1 CHAR(V1) BASED(P1$);
       24       24    1   DCL CV2 CHAR(V2) BASED(P2$);
       25       25    1   DCL AREA_DCB_SIZE UBIN STATIC;
       26       26    1   DCL AREA_DCB$ PTR STATIC;
       27       27    1   DCL AREA_DCB CHAR(AREA_DCB_SIZE) BASED(AREA_DCB$);
       28       28    1   DCL AREA_FILE$ PTR STATIC;
       29       29    1   DCL AREA_FILE CHAR(AREA_FILE_SIZE) BASED(AREA_FILE$);
       30       30    1   DCL AREA_FILE_SIZE UBIN STATIC;
       31       31    1   DCL TOT_DBK SBIN STATIC ALIGNED;
       32       32    1   DCL P$ PTR STATIC;
       33       33    1   DCL P_CNT SBIN BYTE BASED(P$) CALIGNED;
       34       34    1   DCL 1 ER STATIC,
       35       35    1         2 PRINT1 UNAL,
       36       36    1           3 * UBIN BYTE INIT(3) UNAL,
       37       37    1           3 * CHAR(2) INIT('P ') UNAL, /* SPACE THEN TOP OF PAGE */
PL6.E3A0      #001=EXCTN_REPRT_SETUP File=ZIU$Q2ER.:ZIC0TSI                      FRI 09/05/97 13:21 Page:2
       38       38    1         2 PRINT2 UNAL,
       39       39    1           3 * SBIN BYTE INIT(LENGTHC(ER.PRINT2)) UNAL, /* CNT */
       40       40    1           3 * CHAR(1) INIT('D') UNAL,
       41       41    1           3 * CHAR (0) INIT ('DATA BASE ATTRIBUTE INFORMATION FOR AREA ') UNAL,
       42       42    1           3 P_AREA CHAR(32) UNAL,
       43       43    1         2 PRINT3 UNAL,
       44       44    1           3 * SBIN BYTE INIT(LENGTHC(ER.PRINT3)) UNAL,
       45       45    1           3 * CHAR(1) INIT('B') UNAL,
       46       46    1           3 * CHAR (0) INIT ('DERIVED FROM SCHEMA DMCL DATE ') UNAL,
       47       47    1           3 MON CHAR(2) UNAL,
       48       48    1           3 * CHAR(1) INIT('/') UNAL,
       49       49    1           3 DAY CHAR(2) UNAL,
       50       50    1           3 * CHAR(1) INIT('/') UNAL,
       51       51    1           3 YEAR CHAR(2) UNAL,
       52       52    1         2 PRINT4 UNAL,
       53       53    1           3 * SBIN BYTE INIT(LENGTHC(ER.PRINT4)) UNAL,
       54       54    1           3 * CHAR(1) INIT('A') UNAL,
       55       55    1           3 * CHAR (5) INIT ('AREA ') UNAL,
       56       56    1           3 P_AREA CHAR(60) UNAL,
       57       57    1         2 PRINT45 UNAL,
       58       58    1           3 CNT SBIN BYTE INIT(LENGTHC(ER.PRINT45)) UNAL,
       59       59    1           3 * CHAR(1) INIT('A') UNAL,
       60       60    1           3 * CHAR(0) INIT('     FILE NAME IS SET TO ') UNAL,
       61       61    1           3 P_AREA CHAR(30) INIT(' ') UNAL,
       62       62    1         2 PRINT5 UNAL,
       63       63    1           3 * SBIN BYTE INIT(LENGTHC(ER.PRINT5)) UNAL,
       64       64    1           3 * CHAR(1) INIT('A') UNAL,
       65       65    1           3 * CHAR(0) INIT('     FILE SIZE IS ') UNAL,
       66       66    1           3 P_GRAN CHAR(40) UNAL,
       67       67    1         2 PRINT9 UNAL,
       68       68    1           3 * SBIN BYTE INIT(LENGTHC(ER.PRINT9)) UNAL,
       69       69    1           3 * CHAR(1) INIT('B') UNAL,
       70       70    1           3 * CHAR(0) INIT('THE  AREA ATTRIBUTES INITIALIZED ON ') UNAL,
       71       71    1           3 TIME CHAR(6) UNAL,
       72       72    1           3 DATE CHAR(10) UNAL,
       73       73    1           3 * CHAR(0) INIT(' ARE:') UNAL,
       74       74    1         2 PRINT10 UNAL,
PL6.E3A0      #001=EXCTN_REPRT_SETUP File=ZIU$Q2ER.:ZIC0TSI                      FRI 09/05/97 13:21 Page:3
       75       75    1           3 * SBIN BYTE INIT(LENGTHC(ER.PRINT10)) UNAL,
       76       76    1           3 * CHAR(1) INIT('A') UNAL,
       77       77    1           3 * CHAR(0) INIT('     NUMBER OF DATA PAGES:  ') UNAL,
       78       78    1           3 P_PAGE CHAR(10) UNAL,
       79       79    1         2 PRINT11 UNAL,
       80       80    1           3 * SBIN BYTE INIT(LENGTHC(ER.PRINT11)) UNAL,
       81       81    1           3 * CHAR(1) INIT('A') UNAL,
       82       82    1           3 * CHAR(0) INIT('     NUMBER OF INVENTORY PAGES:  ') UNAL,
       83       83    1           3 P_PAGE CHAR(10) UNAL,
       84       84    1         2 PRINT13 UNAL,
       85       85    1           3 CNT SBIN BYTE INIT(LENGTHC(ER.PRINT13)) UNAL,
       86       86    1           3 * CHAR(1) INIT('A') UNAL,
       87       87    1           3 * CHAR(0) INIT('     INVENTORY PAGE RANGE:  ') UNAL,
       88       88    1           3 P_RANGE CHAR(20) INIT(' ') UNAL,
       89       89    1         2 PRINT14 UNAL,
       90       90    1           3 CNT SBIN BYTE INIT(LENGTHC(ER.PRINT14)) UNAL,
       91       91    1           3 * CHAR(1) INIT('A') UNAL,
       92       92    1           3 * CHAR(0) INIT('     INVENTORY PERCENTAGE:  ') UNAL,
       93       93    1           3 INV_PER_CENT CHAR(4) UNAL,
       94       94    1         2 PRINT15 UNAL,
       95       95    1           3 * SBIN BYTE INIT(LENGTHC(ER.PRINT15)) UNAL,
       96       96    1           3 * CHAR(1) INIT('A') UNAL,
       97       97    1           3 * CHAR(0) INIT('     NUMBER OF DATA BASE KEYS:  ') UNAL,
       98       98    1           3 P_KEY CHAR(10) UNAL,
       99       99    1         2 PRINT16 UNAL,
      100      100    1           3 * SBIN BYTE INIT(LENGTHC(ER.PRINT16)) UNAL,
      101      101    1           3 * CHAR(1) INIT('A') UNAL,
      102      102    1           3 * CHAR(0) INIT('     NUMBER OF CALC HEADERS:  ') UNAL,
      103      103    1           3 P_HEADER CHAR(10) UNAL,
      104      104    1         2 PRINT17 UNAL,
      105      105    1           3 * SBIN BYTE INIT(LENGTHC(ER.PRINT17)) UNAL,
      106      106    1           3 * CHAR(1) INIT('A') UNAL,
      107      107    1           3 * CHAR(0) INIT('     DATA BASE KEY RANGE:  ') UNAL,
      108      108    1           3 P_RANGE CHAR(20) UNAL,
      109      109    1         2 PRINT18 UNAL,
      110      110    1           3 * SBIN BYTE INIT(LENGTHC(ER.PRINT18)) UNAL,
      111      111    1           3 * CHAR(1) INIT('A') UNAL,
PL6.E3A0      #001=EXCTN_REPRT_SETUP File=ZIU$Q2ER.:ZIC0TSI                      FRI 09/05/97 13:21 Page:4
      112      112    1           3 * CHAR(0) INIT('     DATA BASE KEYS PER PAGE:  ') UNAL,
      113      113    1           3 P_KEY CHAR(10) UNAL,
      114      114    1         2 PRINT19 UNAL,
      115      115    1           3 * SBIN BYTE INIT(LENGTHC(ER.PRINT19)) UNAL,
      116      116    1           3 * CHAR(1) INIT('A') UNAL,
      117      117    1           3 * CHAR(0) INIT('     DATA BASE KEYS PER CALC HEADER:  ') UNAL,
      118      118    1           3 P_KEY CHAR(10) UNAL,
      119      119    1         2 PRINT20 UNAL,
      120      120    1           3 * SBIN BYTE INIT(LENGTHC(ER.PRINT20)) UNAL,
      121      121    1           3 * CHAR(1) INIT('A') UNAL,
      122      122    1           3 * CHAR(0) INIT('     GLOBAL POINTER SIZE:  ') UNAL,
      123      123    1           3 P_PTR_SIZE CHAR(1) UNAL,
      124      124    1           3 * CHAR(0) INIT(' BYTES') UNAL,
      125      125    1         2 PRINT21 UNAL,
      126      126    1           3 * SBIN BYTE INIT(LENGTHC(ER.PRINT21)) UNAL,
      127      127    1           3 * CHAR(1) INIT('A') UNAL,
      128      128    1           3 * CHAR(0) INIT('     LOCAL POINTER SIZE:  ') UNAL,
      129      129    1           3 P_PTR_SIZE CHAR(1) UNAL,
      130      130    1           3 * CHAR(0) INIT(' BYTES') UNAL,
      131      131    1         2 PRINT22 UNAL,
      132      132    1           3 * SBIN BYTE INIT(LENGTHC(ER.PRINT22)) UNAL,
      133      133    1           3 * CHAR(1) INIT('A') UNAL,
      134      134    1           3 * CHAR(0) INIT('     THIS AREA IS ') UNAL,
      135      135    1           3 P_CHKSUM CHAR(20) UNAL,
      136      136    1         2 PRINT23 UNAL,
      137      137    1           3 * SBIN BYTE INIT(LENGTHC(ER.PRINT23)) UNAL,
      138      138    1           3 * CHAR(1) INIT('A') UNAL,
      139      139    1           3 * CHAR(0) INIT('               IS ') UNAL,
      140      140    1           3 P_ENCRP CHAR(20) UNAL,
      141      141    1         2 PRINT24 UNAL,
      142      142    1           3 * SBIN BYTE INIT(LENGTHC(ER.PRINT24)) UNAL,
      143      143    1           3 * CHAR(1) INIT('A') UNAL,
      144      144    1           3 * CHAR(0) INIT('               IS ') UNAL,
      145      145    1           3 P_TEMPL CHAR(20) UNAL,
      146      146    1         2 PRINT25 UNAL,
      147      147    1           3 * SBIN BYTE INIT(LENGTHC(ER.PRINT25)) UNAL,
      148      148    1           3 * CHAR(1) INIT('C') UNAL,
PL6.E3A0      #001=EXCTN_REPRT_SETUP File=ZIU$Q2ER.:ZIC0TSI                      FRI 09/05/97 13:21 Page:5
      149      149    1           3 * CHAR(5) INIT(' ') UNAL,
      150      150    1           3 P_SECOND CHAR(70) UNAL,
      151      151    1         2 END_OF_LINE UBIN BYTE INIT(0) UNAL, /* END OF IDS REPRT */
      152      152
      153      153    1         2 INDX1 UNAL,
      154      154    1           3 * SBIN BYTE INIT(LENGTHC(ER.INDX1)) UNAL,
      155      155    1           3 * CHAR(1) INIT('A') UNAL,
      156      156    1           3 * CHAR(0) INIT('     KEY  TYPE   OFFSET   LENGTH   DUP  AND  NAME') UNAL,
      157      157    1         2 INDX3 UNAL,
      158      158    1           3 * UBIN BYTE INIT(LENGTHC(ER.INDX3)) UNAL,
      159      159    1           3 * CHAR(1) INIT('A') UNAL,
      160      160    1           3 * CHAR(0) INIT('          ----   ------   ------   ---       ----') UNAL,
      161      161    1         2 INDX4 UNAL,
      162      162    1           3 * UBIN BYTE INIT(LENGTHC(ER.INDX4)) UNAL,
      163      163    1           3 * CHAR(1) INIT('A') UNAL,
      164      164    1           3 * CHAR(0) INIT('     ') UNAL,
      165      165    1           3 P_TYPE CHAR(9) UNAL,
      166      166    1           3 P_TYP2 REDEF P_TYPE UNAL,
      167      167    1             4 ALT CHAR(5) UNAL,
      168      168    1             4 N CHAR(4) UNAL,
      169      169    1           3 P_OFFSET CHAR(7) UNAL,
      170      170    1           3 P_LENGTH CHAR(9) UNAL,
      171      171    1           3 P_DUP CHAR(8) UNAL,
      172      172    1           3 * CHAR(7) INIT(' ') UNAL,
      173      173    1           3 P_NAME CHAR(31) UNAL,
      174      174    1         2 INDX45 UNAL,
      175      175    1           3 * UBIN BYTE INIT(LENGTHC(ER.INDX45)) UNAL,
      176      176    1           3 * CHAR(2) INIT('A ') UNAL,
      177      177    1         2 INDX5 UNAL,
      178      178    1           3 * UBIN BYTE INIT(LENGTHC(ER.INDX5)) UNAL,
      179      179    1           3 * CHAR(1) INIT('C') UNAL,
      180      180    1           3 * CHAR(0) INIT('     THIS AREA IS ') UNAL,
      181      181    1           3 P_ENCRP CHAR(0) INIT('NOT ENCRYPTED.') UNAL,
      182      182    1         2 END_OF_INEX UBIN BYTE INIT(0) UNAL;
      183      183        /**/
      184      184        /**/
      185      185        %INCLUDE CP_6;
PL6.E3A0      #001=EXCTN_REPRT_SETUP File=ZIU$Q2ER.:ZIC0TSI                      FRI 09/05/97 13:21 Page:6
      186      266        %INCLUDE CP_6_SUBS;
      187      806        %INCLUDE ZI$DIR;
      188      963        %DIR;
      189     1107        %INCLUDE ZI_UWA_C;
      190     1797        %ZI$UWAB;
      191     2137        %INCLUDE ZI_GLOBAL_DBUTIL;
      192     2315         %SYS_FUNC;
      193     2407         %MISC_DCLS;
      194     2460        %INCLUDE ZI$PG_STRUCTS;
      195     2563        %ATBLK_PG;
      196     2619        %VLP_ALTKEYS(STCLASS=SYMREF);
      197     2634        %F$DCB;
      198     2691        %EJECT;
PL6.E3A0      #001=EXCTN_REPRT_SETUP File=ZIU$Q2ER.:ZIC0TSI                      FRI 09/05/97 13:21 Page:7
      199     2692    1   BIN_CHAR: PROC(CHAR10,INDX);
      200     2693
      201     2694    2   DCL CHAR10 CHAR(10) CALIGNED;
      202     2695    2   DCL INDX UBIN;
      203     2696
      204     2697    2       CALL BINCHAR(CHAR10,INDX);
      205     2698    2       CALL ZERO_SUP(CHAR10,10,'1'B); /* LEFT JUSTIFIED */
      206     2699    2       CALL INDEX1(INDX,' ',CHAR10);
      207     2700    2   END BIN_CHAR;
      208     2701
      209     2702        /*
      210     2703                 SETUP BEGINS HERE
      211     2704        */
      212     2705    1       CALL INDEX1(AREA_DCB_SIZE,' ',ZI$DIR.AREA_NM.NAME.TEXT);
      213     2706    1       AREA_DCB$=ADDR(ZI$DIR.AREA_NM.NAME.TEXT); /* AREA DCB NAME */
      214     2707    1       AREA_FILE_SIZE=DCBADDR(DCBSF)->F$DCB.NAME#.L;
      215     2708    1       AREA_FILE$=ADDR(DCBADDR(DCBSF)->F$DCB.NAME#.C);
      216     2709    1       ER.PRINT3.YEAR=SUBSTR(UWA.AD_REC.ADDATE_RD,0,2);
      217     2710    1       ER.PRINT3.MON=SUBSTR(UWA.AD_REC.ADDATE_RD,2,2);
      218     2711    1       ER.PRINT3.DAY=SUBSTR(UWA.AD_REC.ADDATE_RD,4,2);
      219     2712    1       ER.PRINT2.P_AREA=ZI$DIR.AREA_NM.NAME.TEXT;
      220     2713    1       IF AREA_DCB=AREA_FILE THEN /* FILE NAME IS SET BY DEFAULT */
      221     2714    1           ER.PRINT45.CNT=-1*LENGTHC(ER.PRINT45); /* DONT PRINT DEFAULT */
      222     2715    1       ELSE
      223     2716    1           CALL CONCAT(ER.PRINT45.P_AREA,'"',AREA_FILE,'"');
      224     2717    1       SOURCESF=%UTS#; /* CONVERT UTS OF INIT TIME */
      225     2718    1       DESTSF=%EXT#; /* TO EXT FORMAT */
      226     2719    1       DATESF=VECTOR(ER.PRINT9.DATE);
      227     2720    1       TIMESF=VECTOR(TIMBUF);
      228     2721    1       IF UWA.AC_REC.PERMTYPE=1 THEN
      229     2722    1           BUF1='TEMPORARY';
      230     2723    1       ELSE
      231     2724    1           BUF1='PERMANENT';
      232     2725    1       IF UWA.AC_REC.PG_TYPE=0 THEN
      233     2726    2       DO; /* SETUP FOR IDS FILE INIT REPORT */
      234     2727    2           CALL CONCAT(ER.PRINT4.P_AREA,AREA_DCB,' IS A RANDOM ',BUF1,'FILE');
      235     2728    2           TSTAMPSF=VECTOR(ATBLK_PG.DATE_INIT);
PL6.E3A0      #001=EXCTN_REPRT_SETUP File=ZIU$Q2ER.:ZIC0TSI                      FRI 09/05/97 13:21 Page:8
      236     2729    2           CALL SYS_FUNC_TSTAMP; /* CONVET INIT UTS TIME */
      237     2730    2           ER.PRINT9.TIME=TIMBUF.HOUR_MIN;
      238     2731    2           V2=ATBLK_PG.NUM_DBPG+1; /* GET FILE SIZE FROM ATBLK */
      239     2732    2           CALL BIN_CHAR(BUF2,V2);
      240     2733    2           CALL CONCAT(ER.PRINT5.P_GRAN,CV2,' GRANULES.');
      241     2734    2           END;
      242     2735    1       ELSE
      243     2736    1           IF UWA.AC_REC.PG_TYPE=2 OR UWA.AC_REC.PG_TYPE=3 THEN
      244     2737    2           DO; /* REPORT OF INDEX AREA INIT */
      245     2738    2               SOURCESF=%CLOCK#;
      246     2739    2               TSTAMPSF=VECTOR(NIL); /* DONT RETURN UTS */
      247     2740    2               CALL SYS_FUNC_TSTAMP; /* GET CURRENT DATE AND TIME */
      248     2741    2               ER.PRINT9.TIME=TIMBUF.HOUR_MIN; /* HH:MM */
      249     2742    2               CALL CONCAT(ER.PRINT4.P_AREA,AREA_DCB,' IS AN INDEXED ',BUF1,'FILE');
      250     2743    2    /**/       FUNSF = %IN#; /* REOPEN THE INDEX FILE */
      251     2744    2               CALL SYS_FUNC_OPEN;
      252     2745    2               CALL SYS_FUNC_CLOS;
      253     2746    2               CALL GET_FILESZ;
      254     2747    2               V2=XTENSIZESF; /* GET INIT FILE SIZE */
      255     2748    2               CALL BIN_CHAR(BUF2,V2);
      256     2749    2               CALL CONCAT(ER.PRINT5.P_GRAN,'INITIALLY ',CV2,' GRANULES.');
      257     2750    2               ER.INDX4.P_TYPE='  PRIMARY';
      258     2751    2               ER.INDX4.P_DUP='      NO';
      259     2752    2               ER.INDX4.P_NAME=RECORD_LIST.NAME(0);
      260     2753    2               CALL BINCHAR(ER.INDX4.P_OFFSET,KEYXSF);
      261     2754    2               CALL ZERO_SUP(ER.INDX4.P_OFFSET,LENGTHC(ER.INDX4.P_OFFSET),'0'B);
      262     2755    2               CALL BINCHAR(ER.INDX4.P_LENGTH,KEYLSF);
      263     2756    2               CALL ZERO_SUP(ER.INDX4.P_LENGTH,LENGTHC(ER.INDX4.P_LENGTH),'0'B);
      264     2757    2               IF UWA.AC_REC.SWS.ENCRYP THEN
      265     2758    2                   ER.INDX5.P_ENCRP='ENCRYPTED.';
      266     2759    2               ELSE
      267     2760    2                   ER.INDX5.P_ENCRP='NOT ENCRYPTED.';
      268     2761    2               ER.PRINT21.P_PTR_SIZE='0'; /* MARK A FLAG FOR INDEX FILE */
      269     2762    2               RETURN;
      270     2763    2               END;
      271     2764    1       IF ATBLK_PG.DB_INFO.PRCNT_INV>0 THEN /* INVENTORY EXIST */
      272     2765    2       DO;
PL6.E3A0      #001=EXCTN_REPRT_SETUP File=ZIU$Q2ER.:ZIC0TSI                      FRI 09/05/97 13:21 Page:9
      273     2766    2           V1=ATBLK_PG.DB_INFO.PRCNT_INV;
      274     2767    2           CALL BIN_CHAR(BUF1,V1);
      275     2768    2           CALL CONCAT(ER.PRINT14.INV_PER_CENT,CV1,'%');
      276     2769    2           V1=ATBLK_PG.FIR_INV_PGNO; /* FIRST INV PAGE # */
      277     2770    2           CALL BIN_CHAR(BUF1,V1);
      278     2771    2           V2=ATBLK_PG.NUM_DBPG; /* LAST PAGE NUMBER */
      279     2772    2           CALL BIN_CHAR(BUF2,V2);
      280     2773    2           CALL CONCAT(ER.PRINT13.P_RANGE,CV1,'-',CV2);
      281     2774    2           V1=ATBLK_PG.FIR_INV_PGNO-1;
      282     2775    2           V2=ATBLK_PG.NUM_DBPG-V1; /* # OF INV PAGES */
      283     2776    2           CALL BIN_CHAR(ER.PRINT11.P_PAGE,V2);
      284     2777    2           END;
      285     2778    1       ELSE
      286     2779    2       DO;
      287     2780    2           V1=ATBLK_PG.NUM_DBPG; /* ALL DATA PGGES */
      288     2781    2           V2=0;
      289     2782    2           ER.PRINT11.P_PAGE='-NONE-';
      290     2783    2           ER.PRINT13.CNT=-1*ER.PRINT13.CNT; /* SET TO NO PRINT */
      291     2784    2           ER.PRINT14.CNT=-1*ER.PRINT14.CNT; /* SET TO NO PRINT */
      292     2785    2           END;
      293     2786    1       V3 = V1; /* SAVE NUMBER OF DATA PAGES IN V3 */
      294     2787    1       CALL BIN_CHAR(ER.PRINT10.P_PAGE,V1);
      295     2788    1       V1=ATBLK_PG.HIGH_DBK-ATBLK_PG.LOW_DBK+1;
      296     2789    1       CALL BIN_CHAR(ER.PRINT15.P_KEY,V1);
      297     2790    1       V1=ATBLK_PG.HIGH_DBK;
      298     2791    1       V2=ATBLK_PG.LOW_DBK;
      299     2792    1       CALL BIN_CHAR(BUF1,V1);
      300     2793    1       CALL BIN_CHAR(BUF2,V2);
      301     2794    1       CALL CONCAT(ER.PRINT17.P_RANGE,CV2,'-',CV1);
      302     2795    1       TOT_DBK=ATBLK_PG.HIGH_DBK-UWA.AC_REC.BASE_DBK;
      303     2796    1       V1=ATBLK_PG.LINE_INFO.LPP; /* PAGE_INTERVAL */
      304     2797    1       V2=ATBLK_PG.CALC_INFO.IDB; /* CALC_INTERVAL */
      305     2798         /* V3 = NUMBER OF DATA PAGES */
      306     2799    1       IF UWA.AC_REC.CALC_NULL=1 THEN
      307     2800    1           ER.PRINT16.P_HEADER='-NONE-';
      308     2801    1       ELSE
      309     2802    2       DO; /* CALCULATE NUMBER OF HRDS STORED */
PL6.E3A0      #001=EXCTN_REPRT_SETUP File=ZIU$Q2ER.:ZIC0TSI                      FRI 09/05/97 13:21 Page:10
      310     2803    2           IF V1 < V2 THEN /* 1 HDR PER SOME PAGES */
      311     2804    2               IF MOD(V3,V2/V1)>0 THEN
      312     2805    2                   V3=V3/(V2-V1)+1;
      313     2806    2               ELSE
      314     2807    2                   V3=V3/(V2/V1);
      315     2808    2           ELSE
      316     2809    3           DO; /* MORE THAN 1 HDRS IN A PAGE */
      317     2810    3               V3=(V3-1)*(V1/V2);
      318     2811    3               V3=V3+(MOD(TOT_DBK-1,V1)+V2)/V2; /* ADD HDRS IN LAST PG */
      319     2812    3               END;
      320     2813    2           CALL BIN_CHAR(ER.PRINT16.P_HEADER,V3);
      321     2814    2           END;
      322     2815    1       CALL BIN_CHAR(ER.PRINT18.P_KEY,V1);
      323     2816    1       CALL BIN_CHAR(ER.PRINT19.P_KEY,V2);
      324     2817    1       V1=ATBLK_PG.DB_INFO.DBK_SZ; /* SIZE OF GLOBAL PTR */
      325     2818    1       CALL BINCHAR(ER.PRINT20.P_PTR_SIZE,V1); /* GLOBAL PTR */
      326     2819    1       IF TOT_DBK < %BITBIN('1000000'O) THEN
      327     2820    1           ER.PRINT21.P_PTR_SIZE='2';
      328     2821    1       ELSE
      329     2822    1           IF TOT_DBK < %BITBIN('1000000000'O) THEN
      330     2823    1               ER.PRINT21.P_PTR_SIZE='3';
      331     2824    1           ELSE
      332     2825    1               ER.PRINT21.P_PTR_SIZE='4'; /* LOCAL PTR SIZE */
      333     2826    1       IF ATBLK_PG.MISC_INFO.CHKSM THEN
      334     2827    1           ER.PRINT22.P_CHKSUM='CHECKSUMMED';
      335     2828    1       ELSE
      336     2829    1           ER.PRINT22.P_CHKSUM='NOT CHECKSUMMED';
      337     2830    1       IF UWA.AC_REC.SWS.ENCRYP THEN
      338     2831    1           ER.PRINT23.P_ENCRP='ENCRYPTED';
      339     2832    1       ELSE
      340     2833    1           ER.PRINT23.P_ENCRP='NOT ENCRYPTED';
      341     2834    1       IF UWA.AC_REC.SWS.TEMPLAT THEN
      342     2835    1           ER.PRINT24.P_TEMPL='TEMPLATE';
      343     2836    1       ELSE
      344     2837    1           ER.PRINT24.P_TEMPL='NOT TEMPLATE';
      345     2838    1       IF ATBLK_PG.MISC_INFO.KEY_FILE_BLT THEN
      346     2839    1           CALL CONCAT(ER.PRINT25.P_SECOND,'SECONDARY KEY FILE "',
PL6.E3A0      #001=EXCTN_REPRT_SETUP File=ZIU$Q2ER.:ZIC0TSI                      FRI 09/05/97 13:21 Page:11
      347     2840    1              AREA_FILE,':" IS ASSOCIATED WITH THIS AREA.');
      348     2841    1       ELSE
      349     2842    1           ER.PRINT25.P_SECOND='NO SECONDARY KEY FILE ASSOCIATED WITH THIS AREA.';
      350     2843    1       RETURN;
      351     2844        /****/
      352     2845    1   EXECUTION_OUTPUT: ENTRY; /* DO CALLS TO SYS_FUNC_WRIT */
      353     2846        /****/
      354     2847    1       P$=ADDR(ER);
      355     2848    1       DCBSF = DCBNUM(M$LO);
      356     2849    1       V1=0; /* KEEP TRACK # OF ALTKEYS PRINTED WHEN INDEX AREA */
      357     2850    2       DO WHILE(P_CNT ~= 0);
      358     2851    2           IF BREAK_FLAG>0 THEN RETURN;
      359     2852    2           V2=P_CNT;
      360     2853    2           IF V2<0 THEN
      361     2854    2               P_CNT=-1*P_CNT; /* RESET DONT PRINT FLAG */
      362     2855    2           BUFLNSF=P_CNT-1;
      363     2856    2           BUFSF=VECTOR(PINCRC(P$,1)->CV1);
      364     2857    2           P$=PINCRC(P$,P_CNT);
      365     2858    2           IF V2>0 THEN
      366     2859    2               CALL SYS_FUNC_WRIT;
      367     2860    2           IF ER.PRINT21.P_PTR_SIZE='0' AND P$=ADDR(ER.PRINT10) THEN
      368     2861    2               P$=ADDR(ER.INDX1); /* SWITHC TO PRINT INDEX ATTR */
      369     2862    2           IF P$=ADDR(ER.INDX45) AND V1<VLP_ALTKEYS.SIZ# THEN
      370     2863    3           DO;
      371     2864    3               P$=ADDR(ER.INDX4); /* LOOP THRU ALTKEY */
      372     2865    3               CALL BINCHAR(ER.INDX4.P_OFFSET,VLP_ALTKEYS.K.KEYX#(V1));
      373     2866    3               CALL ZERO_SUP(ER.INDX4.P_OFFSET,LENGTHC(ER.INDX4.P_OFFSET),'0'B);
      374     2867    3               CALL BINCHAR(ER.INDX4.P_LENGTH,VLP_ALTKEYS.K.KEYL#(V1));
      375     2868    3               CALL ZERO_SUP(ER.INDX4.P_LENGTH,LENGTHC(ER.INDX4.P_LENGTH),'0'B);
      376     2869    3               IF VLP_ALTKEYS.K.UNIQUE#(V1) THEN
      377     2870    3                   ER.INDX4.P_DUP='      NO';
      378     2871    3               ELSE
      379     2872    3                   ER.INDX4.P_DUP='      OK';
      380     2873    3               ER.INDX4.P_NAME=RECORD_LIST.NAME(V1+1);
      381     2874    3               V1=V1+1;
      382     2875    3               CALL BINCHAR(ER.INDX4.P_TYP2.N,V1);
      383     2876    3               CALL ZERO_SUP(ER.INDX4.P_TYP2.N,LENGTHC(ER.INDX4.P_TYP2.N),'0'B);
PL6.E3A0      #001=EXCTN_REPRT_SETUP File=ZIU$Q2ER.:ZIC0TSI                      FRI 09/05/97 13:21 Page:12
      384     2877    3               ER.INDX4.P_TYP2.ALT='  ALT';
      385     2878    3               END;
      386     2879    2           END;
      387     2880    1   END EXCTN_REPRT_SETUP;

PL6.E3A0      #001=EXCTN_REPRT_SETUP File=ZIU$Q2ER.:ZIC0TSI                      FRI 09/05/97 13:21 Page:13
--  Include file information  --

   ZI$PG_STRUCTS.:ZIC0TOU  is referenced.
   ZI_GLOBAL_DBUTIL.:ZIC0TOU  is referenced.
   ZI_UWA_C.:ZIC0TOU  is referenced.
   ZI$DIR.:ZIC0TOU  is referenced.
   CP_6_SUBS.:LIB_E05  is referenced.
   CP_6.:LIB_E05  cannot be made into a system file and is referenced.
   B$JIT_C.:E05TOU  was found in the system file and is never referenced.
   CP_6_C.:E05TOU  was found in the system file and is referenced.
      No diagnostics issued in procedure EXCTN_REPRT_SETUP.

   Procedure EXCTN_REPRT_SETUP requires 729 words for executable code.
   Procedure EXCTN_REPRT_SETUP requires 12 words of local(AUTO) storage.

    No errors detected in file ZIU$Q2ER.:ZIC0TSI    .

PL6.E3A0      #001=EXCTN_REPRT_SETUP File=ZIU$Q2ER.:ZIC0TSI                      FRI 09/05/97 13:21 Page:14

 Object Unit name= EXCTN_REPRT_SETUP                          File name= ZIU$Q2ER.:ZIC0TOU
 UTS= SEP 05 '97 13:21:29.72 FRI                              Compiler= PL-6/E31         Sev=      00
 SharedLib= :SHARED_SYSTEM                                    Alt SharedLib=


    ****  Control sections  ****

 Sect   Type Bound  Init  Size OctSiz  Section name(segment info)
    0   Data  even  none   332    514  EXCTN_REPRT_SETUP
    1   DCB   even  none     0      0  M$UC
    2   DCB   even  none     0      0  M$LO
    3  RoData even  UTS     76    114  EXCTN_REPRT_SETUP
    4   Proc  even  none   729   1331  EXCTN_REPRT_SETUP
    5  RoData even  none    49     61  EXCTN_REPRT_SETUP

    ****  Entry defs  ****

                              Check   Calling
                             calling  sequence
  Sect OctLoc Primary Altret sequence   type   Parms  Name
     4      0   yes            yes      Std        0  EXCTN_REPRT_SETUP
     4   1112                  yes      Std        0  EXECUTION_OUTPUT

  ****  Entry refs  ****

         Check        Calling
        calling       sequence
Altret sequence SRef   type   Args  Name
 yes     yes           Std       0 SYS_FUNC_TSTAMP
 yes     yes           Std       0 SYS_FUNC_OPEN
 yes     yes           Std       0 GET_FILESZ
 yes     yes           Std       0 SYS_FUNC_CLOS
         yes           Std       3 ZERO_SUP
 yes     yes           Std       0 SYS_FUNC_WRIT
                       nStd      0 X66_AUTO_0
                       nStd      0 X66_ARET
PL6.E3A0      #001=EXCTN_REPRT_SETUP File=ZIU$Q2ER.:ZIC0TSI                      FRI 09/05/97 13:21 Page:15

  ****  Data refs  ****

  Flags:  r = read only, s = secondary
Flgs Name                             Flgs Name                             Flgs Name
     M$UC                                  ZI$DIR                                SCHEMA_ACTIVE
     RECORD_LIST                           SET_LIST                              RETAIN_LIST
     DUMP_FID                              ALTKY                                 INIT_RG
     KEY_RNG                               ITEM_LIST                             UWA
     BLKLSF                                KEYLSF                                KEYXSF
     DCBSF                                 ORGSF                                 KEYSF
     KEYVSF                                ACSSF                                 NOTIMESF
     FUNSF                                 ASNSF                                 TESTSF
     XTENSIZESF                            DISPSF                                WAITSF
     VFCSF                                 FULLSF                                BKUPSF
     BUFLNSF                               BUFSF                                 SOURCESF
     DESTSF                                DATESF                                TIMESF
     UTSSF                                 DAYSF                                 TSTAMPSF
     ENCRP_SEEDSF                          ERRCODESF                             MSGCODE
     INCL_ERR                              ERR_INSERT                            FIDSF_RD
     ACNT                                  EXISTSF                               SHARESF
     DCBNMSF                               KEYRSF                                NO_KEYSF
     REASGNSF                              CARRY_ATTRIBUTESF                     SUBMESSF
     SPKY_OPNSF                            POSSF                                 ERRFLGSF
     MERGESF                               FSA_FLAG                              RELGSF
     UNUSED                                HELPCODE                              COUNTSF
     INDEXSF                               GAP                                   PSNSF
     ACNTSF                                KEY_SHADWSF                           REC$
     RB                                    RE                                    IE
     IB                                    CNT                                   ICNT
     RCNT                                  SCNT                                  FIRST_SET
     RETCNT                                DMPCNT                                KCNT
     ACNT_IDX                              I                                     J
     K                                     X                                     STEPCC
     I_O_BUF$                              OUT_INDX                              I_O_SIZE
     REC_DATA_LN                           M$LO                                  B$TCB$
     B$ROS$                                B$JIT$                                KEYFID
     I_O_KEY                               RESTART                               BREAK_FLAG
PL6.E3A0      #001=EXCTN_REPRT_SETUP File=ZIU$Q2ER.:ZIC0TSI                      FRI 09/05/97 13:21 Page:16
     ICHKSUM                               ITMCNT                                GAP1
     ATBLK$                                VLP_ALTKEYS

  ****  Segment refs  ****

  Flags:  r = read only, s = secondary
Flgs Name                             Flgs Name                             Flgs Name
     ISSID                                 ROSID                                 NULLSID
PL6.E3A0      #001=EXCTN_REPRT_SETUP File=ZIU$Q2ER.:ZIC0TSI                      FRI 09/05/97 13:21 Page:17


        1        1        /*T***********************************************************/
        2        2        /*T*                                                         */
        3        3        /*T* Copyright (c) Bull HN Information Systems Inc., 1997    */
        4        4        /*T*                                                         */
        5        5        /*T***********************************************************/
        6        6        EXCTN_REPRT_SETUP: PROC;

      6  4 000000   000000 700200 xent  EXCTN_REPRT* TSX0  ! X66_AUTO_0
         4 000001   000014 000000                    ZERO    12,0
         4 000002   000035 710000 4                  TRA     s:2705

        7        7    1   DCL ZERO_SUP ENTRY(3);
        8        8    1   DCL SYS_FUNC_WRIT ENTRY ALTRET;
        9        9    1   DCL SYS_FUNC_TSTAMP ENTRY ALTRET;
       10       10    1   DCL SYS_FUNC_OPEN ENTRY ALTRET;
       11       11    1   DCL SYS_FUNC_CLOS ENTRY ALTRET;
       12       12    1   DCL GET_FILESZ ENTRY ALTRET;
       13       13    1   DCL 1 TIMBUF STATIC,
       14       14    1         2 HOUR_MIN CHAR(5) UNAL,
       15       15    1         2 * CHAR(6) UNAL;
       16       16    1   DCL BUF1 CHAR(10) STATIC;
       17       17    1   DCL BUF2 CHAR(10) STATIC;
       18       18    1   DCL V1 SBIN STATIC ALIGNED;
       19       19    1   DCL V2 SBIN STATIC ALIGNED;
       20       20    1   DCL V3 SBIN STATIC ALIGNED;
       21       21    1   DCL P1$ PTR STATIC INIT(ADDR(BUF1));
       22       22    1   DCL P2$ PTR STATIC INIT(ADDR(BUF2));
       23       23    1   DCL CV1 CHAR(V1) BASED(P1$);
       24       24    1   DCL CV2 CHAR(V2) BASED(P2$);
       25       25    1   DCL AREA_DCB_SIZE UBIN STATIC;
       26       26    1   DCL AREA_DCB$ PTR STATIC;
       27       27    1   DCL AREA_DCB CHAR(AREA_DCB_SIZE) BASED(AREA_DCB$);
       28       28    1   DCL AREA_FILE$ PTR STATIC;
       29       29    1   DCL AREA_FILE CHAR(AREA_FILE_SIZE) BASED(AREA_FILE$);
       30       30    1   DCL AREA_FILE_SIZE UBIN STATIC;
       31       31    1   DCL TOT_DBK SBIN STATIC ALIGNED;
PL6.E3A0      #001=EXCTN_REPRT_SETUP File=ZIU$Q2ER.:ZIC0TSI                      FRI 09/05/97 13:21 Page:18
       32       32    1   DCL P$ PTR STATIC;
       33       33    1   DCL P_CNT SBIN BYTE BASED(P$) CALIGNED;
       34       34    1   DCL 1 ER STATIC,
       35       35    1         2 PRINT1 UNAL,
       36       36    1           3 * UBIN BYTE INIT(3) UNAL,
       37       37    1           3 * CHAR(2) INIT('P ') UNAL, /* SPACE THEN TOP OF PAGE */
       38       38    1         2 PRINT2 UNAL,
       39       39    1           3 * SBIN BYTE INIT(LENGTHC(ER.PRINT2)) UNAL, /* CNT */
       40       40    1           3 * CHAR(1) INIT('D') UNAL,
       41       41    1           3 * CHAR (0) INIT ('DATA BASE ATTRIBUTE INFORMATION FOR AREA ') UNAL,
       42       42    1           3 P_AREA CHAR(32) UNAL,
       43       43    1         2 PRINT3 UNAL,
       44       44    1           3 * SBIN BYTE INIT(LENGTHC(ER.PRINT3)) UNAL,
       45       45    1           3 * CHAR(1) INIT('B') UNAL,
       46       46    1           3 * CHAR (0) INIT ('DERIVED FROM SCHEMA DMCL DATE ') UNAL,
       47       47    1           3 MON CHAR(2) UNAL,
       48       48    1           3 * CHAR(1) INIT('/') UNAL,
       49       49    1           3 DAY CHAR(2) UNAL,
       50       50    1           3 * CHAR(1) INIT('/') UNAL,
       51       51    1           3 YEAR CHAR(2) UNAL,
       52       52    1         2 PRINT4 UNAL,
       53       53    1           3 * SBIN BYTE INIT(LENGTHC(ER.PRINT4)) UNAL,
       54       54    1           3 * CHAR(1) INIT('A') UNAL,
       55       55    1           3 * CHAR (5) INIT ('AREA ') UNAL,
       56       56    1           3 P_AREA CHAR(60) UNAL,
       57       57    1         2 PRINT45 UNAL,
       58       58    1           3 CNT SBIN BYTE INIT(LENGTHC(ER.PRINT45)) UNAL,
       59       59    1           3 * CHAR(1) INIT('A') UNAL,
       60       60    1           3 * CHAR(0) INIT('     FILE NAME IS SET TO ') UNAL,
       61       61    1           3 P_AREA CHAR(30) INIT(' ') UNAL,
       62       62    1         2 PRINT5 UNAL,
       63       63    1           3 * SBIN BYTE INIT(LENGTHC(ER.PRINT5)) UNAL,
       64       64    1           3 * CHAR(1) INIT('A') UNAL,
       65       65    1           3 * CHAR(0) INIT('     FILE SIZE IS ') UNAL,
       66       66    1           3 P_GRAN CHAR(40) UNAL,
       67       67    1         2 PRINT9 UNAL,
       68       68    1           3 * SBIN BYTE INIT(LENGTHC(ER.PRINT9)) UNAL,
PL6.E3A0      #001=EXCTN_REPRT_SETUP File=ZIU$Q2ER.:ZIC0TSI                      FRI 09/05/97 13:21 Page:19
       69       69    1           3 * CHAR(1) INIT('B') UNAL,
       70       70    1           3 * CHAR(0) INIT('THE  AREA ATTRIBUTES INITIALIZED ON ') UNAL,
       71       71    1           3 TIME CHAR(6) UNAL,
       72       72    1           3 DATE CHAR(10) UNAL,
       73       73    1           3 * CHAR(0) INIT(' ARE:') UNAL,
       74       74    1         2 PRINT10 UNAL,
       75       75    1           3 * SBIN BYTE INIT(LENGTHC(ER.PRINT10)) UNAL,
       76       76    1           3 * CHAR(1) INIT('A') UNAL,
       77       77    1           3 * CHAR(0) INIT('     NUMBER OF DATA PAGES:  ') UNAL,
       78       78    1           3 P_PAGE CHAR(10) UNAL,
       79       79    1         2 PRINT11 UNAL,
       80       80    1           3 * SBIN BYTE INIT(LENGTHC(ER.PRINT11)) UNAL,
       81       81    1           3 * CHAR(1) INIT('A') UNAL,
       82       82    1           3 * CHAR(0) INIT('     NUMBER OF INVENTORY PAGES:  ') UNAL,
       83       83    1           3 P_PAGE CHAR(10) UNAL,
       84       84    1         2 PRINT13 UNAL,
       85       85    1           3 CNT SBIN BYTE INIT(LENGTHC(ER.PRINT13)) UNAL,
       86       86    1           3 * CHAR(1) INIT('A') UNAL,
       87       87    1           3 * CHAR(0) INIT('     INVENTORY PAGE RANGE:  ') UNAL,
       88       88    1           3 P_RANGE CHAR(20) INIT(' ') UNAL,
       89       89    1         2 PRINT14 UNAL,
       90       90    1           3 CNT SBIN BYTE INIT(LENGTHC(ER.PRINT14)) UNAL,
       91       91    1           3 * CHAR(1) INIT('A') UNAL,
       92       92    1           3 * CHAR(0) INIT('     INVENTORY PERCENTAGE:  ') UNAL,
       93       93    1           3 INV_PER_CENT CHAR(4) UNAL,
       94       94    1         2 PRINT15 UNAL,
       95       95    1           3 * SBIN BYTE INIT(LENGTHC(ER.PRINT15)) UNAL,
       96       96    1           3 * CHAR(1) INIT('A') UNAL,
       97       97    1           3 * CHAR(0) INIT('     NUMBER OF DATA BASE KEYS:  ') UNAL,
       98       98    1           3 P_KEY CHAR(10) UNAL,
       99       99    1         2 PRINT16 UNAL,
      100      100    1           3 * SBIN BYTE INIT(LENGTHC(ER.PRINT16)) UNAL,
      101      101    1           3 * CHAR(1) INIT('A') UNAL,
      102      102    1           3 * CHAR(0) INIT('     NUMBER OF CALC HEADERS:  ') UNAL,
      103      103    1           3 P_HEADER CHAR(10) UNAL,
      104      104    1         2 PRINT17 UNAL,
      105      105    1           3 * SBIN BYTE INIT(LENGTHC(ER.PRINT17)) UNAL,
PL6.E3A0      #001=EXCTN_REPRT_SETUP File=ZIU$Q2ER.:ZIC0TSI                      FRI 09/05/97 13:21 Page:20
      106      106    1           3 * CHAR(1) INIT('A') UNAL,
      107      107    1           3 * CHAR(0) INIT('     DATA BASE KEY RANGE:  ') UNAL,
      108      108    1           3 P_RANGE CHAR(20) UNAL,
      109      109    1         2 PRINT18 UNAL,
      110      110    1           3 * SBIN BYTE INIT(LENGTHC(ER.PRINT18)) UNAL,
      111      111    1           3 * CHAR(1) INIT('A') UNAL,
      112      112    1           3 * CHAR(0) INIT('     DATA BASE KEYS PER PAGE:  ') UNAL,
      113      113    1           3 P_KEY CHAR(10) UNAL,
      114      114    1         2 PRINT19 UNAL,
      115      115    1           3 * SBIN BYTE INIT(LENGTHC(ER.PRINT19)) UNAL,
      116      116    1           3 * CHAR(1) INIT('A') UNAL,
      117      117    1           3 * CHAR(0) INIT('     DATA BASE KEYS PER CALC HEADER:  ') UNAL,
      118      118    1           3 P_KEY CHAR(10) UNAL,
      119      119    1         2 PRINT20 UNAL,
      120      120    1           3 * SBIN BYTE INIT(LENGTHC(ER.PRINT20)) UNAL,
      121      121    1           3 * CHAR(1) INIT('A') UNAL,
      122      122    1           3 * CHAR(0) INIT('     GLOBAL POINTER SIZE:  ') UNAL,
      123      123    1           3 P_PTR_SIZE CHAR(1) UNAL,
      124      124    1           3 * CHAR(0) INIT(' BYTES') UNAL,
      125      125    1         2 PRINT21 UNAL,
      126      126    1           3 * SBIN BYTE INIT(LENGTHC(ER.PRINT21)) UNAL,
      127      127    1           3 * CHAR(1) INIT('A') UNAL,
      128      128    1           3 * CHAR(0) INIT('     LOCAL POINTER SIZE:  ') UNAL,
      129      129    1           3 P_PTR_SIZE CHAR(1) UNAL,
      130      130    1           3 * CHAR(0) INIT(' BYTES') UNAL,
      131      131    1         2 PRINT22 UNAL,
      132      132    1           3 * SBIN BYTE INIT(LENGTHC(ER.PRINT22)) UNAL,
      133      133    1           3 * CHAR(1) INIT('A') UNAL,
      134      134    1           3 * CHAR(0) INIT('     THIS AREA IS ') UNAL,
      135      135    1           3 P_CHKSUM CHAR(20) UNAL,
      136      136    1         2 PRINT23 UNAL,
      137      137    1           3 * SBIN BYTE INIT(LENGTHC(ER.PRINT23)) UNAL,
      138      138    1           3 * CHAR(1) INIT('A') UNAL,
      139      139    1           3 * CHAR(0) INIT('               IS ') UNAL,
      140      140    1           3 P_ENCRP CHAR(20) UNAL,
      141      141    1         2 PRINT24 UNAL,
      142      142    1           3 * SBIN BYTE INIT(LENGTHC(ER.PRINT24)) UNAL,
PL6.E3A0      #001=EXCTN_REPRT_SETUP File=ZIU$Q2ER.:ZIC0TSI                      FRI 09/05/97 13:21 Page:21
      143      143    1           3 * CHAR(1) INIT('A') UNAL,
      144      144    1           3 * CHAR(0) INIT('               IS ') UNAL,
      145      145    1           3 P_TEMPL CHAR(20) UNAL,
      146      146    1         2 PRINT25 UNAL,
      147      147    1           3 * SBIN BYTE INIT(LENGTHC(ER.PRINT25)) UNAL,
      148      148    1           3 * CHAR(1) INIT('C') UNAL,
      149      149    1           3 * CHAR(5) INIT(' ') UNAL,
      150      150    1           3 P_SECOND CHAR(70) UNAL,
      151      151    1         2 END_OF_LINE UBIN BYTE INIT(0) UNAL, /* END OF IDS REPRT */
      152      152
      153      153    1         2 INDX1 UNAL,
      154      154    1           3 * SBIN BYTE INIT(LENGTHC(ER.INDX1)) UNAL,
      155      155    1           3 * CHAR(1) INIT('A') UNAL,
      156      156    1           3 * CHAR(0) INIT('     KEY  TYPE   OFFSET   LENGTH   DUP  AND  NAME') UNAL,
      157      157    1         2 INDX3 UNAL,
      158      158    1           3 * UBIN BYTE INIT(LENGTHC(ER.INDX3)) UNAL,
      159      159    1           3 * CHAR(1) INIT('A') UNAL,
      160      160    1           3 * CHAR(0) INIT('          ----   ------   ------   ---       ----') UNAL,
      161      161    1         2 INDX4 UNAL,
      162      162    1           3 * UBIN BYTE INIT(LENGTHC(ER.INDX4)) UNAL,
      163      163    1           3 * CHAR(1) INIT('A') UNAL,
      164      164    1           3 * CHAR(0) INIT('     ') UNAL,
      165      165    1           3 P_TYPE CHAR(9) UNAL,
      166      166    1           3 P_TYP2 REDEF P_TYPE UNAL,
      167      167    1             4 ALT CHAR(5) UNAL,
      168      168    1             4 N CHAR(4) UNAL,
      169      169    1           3 P_OFFSET CHAR(7) UNAL,
      170      170    1           3 P_LENGTH CHAR(9) UNAL,
      171      171    1           3 P_DUP CHAR(8) UNAL,
      172      172    1           3 * CHAR(7) INIT(' ') UNAL,
      173      173    1           3 P_NAME CHAR(31) UNAL,
      174      174    1         2 INDX45 UNAL,
      175      175    1           3 * UBIN BYTE INIT(LENGTHC(ER.INDX45)) UNAL,
      176      176    1           3 * CHAR(2) INIT('A ') UNAL,
      177      177    1         2 INDX5 UNAL,
      178      178    1           3 * UBIN BYTE INIT(LENGTHC(ER.INDX5)) UNAL,
      179      179    1           3 * CHAR(1) INIT('C') UNAL,
PL6.E3A0      #001=EXCTN_REPRT_SETUP File=ZIU$Q2ER.:ZIC0TSI                      FRI 09/05/97 13:21 Page:22
      180      180    1           3 * CHAR(0) INIT('     THIS AREA IS ') UNAL,
      181      181    1           3 P_ENCRP CHAR(0) INIT('NOT ENCRYPTED.') UNAL,
      182      182    1         2 END_OF_INEX UBIN BYTE INIT(0) UNAL;
      183      183        /**/
      184      184        /**/
      185      185        %INCLUDE CP_6;
      186      266        %INCLUDE CP_6_SUBS;
      187      806        %INCLUDE ZI$DIR;
      188      963        %DIR;
      189     1107        %INCLUDE ZI_UWA_C;
      190     1797        %ZI$UWAB;
      191     2137        %INCLUDE ZI_GLOBAL_DBUTIL;
      192     2315         %SYS_FUNC;
      193     2407         %MISC_DCLS;
      194     2460        %INCLUDE ZI$PG_STRUCTS;
      195     2563        %ATBLK_PG;
      196     2619        %VLP_ALTKEYS(STCLASS=SYMREF);
      197     2634        %F$DCB;
      198     2691        %EJECT;
PL6.E3A0      #001=EXCTN_REPRT_SETUP File=ZIU$Q2ER.:ZIC0TSI                      FRI 09/05/97 13:21 Page:23
      199     2692    1   BIN_CHAR: PROC(CHAR10,INDX);

   2692  4 000003   200004 741300       BIN_CHAR     STX1  ! 4,,AUTO

      200     2693
      201     2694    2   DCL CHAR10 CHAR(10) CALIGNED;
      202     2695    2   DCL INDX UBIN;
      203     2696
      204     2697    2       CALL BINCHAR(CHAR10,INDX);

   2697  4 000004   200006 470500                    LDP0    @INDX,,AUTO
         4 000005   000000 235100                    LDA     0,,PR0
         4 000006   000044 773000                    LRL     36
         4 000007   200010 757100                    STAQ    @INDX+2,,AUTO
         4 000010   200005 471500                    LDP1    @CHAR10,,AUTO
         4 000011   000100 301500                    BTD
         4 000012   200010 000010                    NDSC9   @INDX+2,,AUTO            cn=0,s=lsgnf,sf=0,n=8
         4 000013   100000 030012                    NDSC9   0,,PR1                   cn=0,s=nosgn,sf=0,n=10

      205     2698    2       CALL ZERO_SUP(CHAR10,10,'1'B); /* LEFT JUSTIFIED */

   2698  4 000014   000003 236000 5                  LDQ     3
         4 000015   200012 756100                    STQ     @INDX+4,,AUTO
         4 000016   000004 236000 5                  LDQ     4
         4 000017   200005 235100                    LDA     @CHAR10,,AUTO
         4 000020   200010 757100                    STAQ    @INDX+2,,AUTO
         4 000021   200010 630500                    EPPR0   @INDX+2,,AUTO
         4 000022   000000 631400 5                  EPPR1   0
         4 000023   000000 701000 xent               TSX1    ZERO_SUP
         4 000024   000000 011000                    NOP     0

      206     2699    2       CALL INDEX1(INDX,' ',CHAR10);

   2699  4 000025   200006 470500                    LDP0    @INDX,,AUTO
         4 000026   200005 471500                    LDP1    @CHAR10,,AUTO
         4 000027   000000 124500                    SCM     mask='000'O
         4 000030   100000 000012                    ADSC9   0,,PR1                   cn=0,n=10
PL6.E3A0      #001=EXCTN_REPRT_SETUP File=ZIU$Q2ER.:ZIC0TSI                      FRI 09/05/97 13:21 Page:24
         4 000031   000005 000001 5                  ADSC9   5                        cn=0,n=1
         4 000032   000000 000100                    ARG     0,,PR0

      207     2700    2   END BIN_CHAR;

   2700  4 000033   200004 221300                    LDX1  ! 4,,AUTO
         4 000034   000001 702211                    TSX2  ! 1,X1

      208     2701
      209     2702        /*
      210     2703                 SETUP BEGINS HERE
      211     2704        */
      212     2705    1       CALL INDEX1(AREA_DCB_SIZE,' ',ZI$DIR.AREA_NM.NAME.TEXT);

   2705  4 000035   000000 124400                    SCM     mask='000'O
         4 000036   000234 200036 xsym               ADSC9   ZI$DIR+156               cn=1,n=30
         4 000037   000005 000001 5                  ADSC9   5                        cn=0,n=1
         4 000040   000016 000000 0                  ARG     AREA_DCB_SIZE

      213     2706    1       AREA_DCB$=ADDR(ZI$DIR.AREA_NM.NAME.TEXT); /* AREA DCB NAME */

   2706  4 000041   000006 236000 5                  LDQ     6
         4 000042   000017 756000 0                  STQ     AREA_DCB$

      214     2707    1       AREA_FILE_SIZE=DCBADDR(DCBSF)->F$DCB.NAME#.L;

   2707  4 000043   000007 470400 5                  LDP0    7
         4 000044   000000 471500                    LDP1    0,,PR0
         4 000045   000000 220000 xsym               LDX0    DCBSF
         4 000046   100000 473510                    LDP3    0,X0,PR1
         4 000047   300010 236100                    LDQ     8,,PR3
         4 000050   000033 772000                    QRL     27
         4 000051   000021 756000 0                  STQ     AREA_FILE_SIZE

      215     2708    1       AREA_FILE$=ADDR(DCBADDR(DCBSF)->F$DCB.NAME#.C);

   2708  4 000052   200010 453500                    STP3    @INDX+2,,AUTO
PL6.E3A0      #001=EXCTN_REPRT_SETUP File=ZIU$Q2ER.:ZIC0TSI                      FRI 09/05/97 13:21 Page:25
         4 000053   200010 236100                    LDQ     @INDX+2,,AUTO
         4 000054   000010 036000 5                  ADLQ    8
         4 000055   000020 756000 0                  STQ     AREA_FILE$

      216     2709    1       ER.PRINT3.YEAR=SUBSTR(UWA.AD_REC.ADDATE_RD,0,2);

   2709  4 000056   000171 221000 xsym               LDX1    UWA+121
         4 000057   000061 741000 0                  STX1    ER+29

      217     2710    1       ER.PRINT3.MON=SUBSTR(UWA.AD_REC.ADDATE_RD,2,2);

   2710  4 000060   000171 722000 xsym               LXL2    UWA+121
         4 000061   000057 442000 0                  SXL2    ER+27

      218     2711    1       ER.PRINT3.DAY=SUBSTR(UWA.AD_REC.ADDATE_RD,4,2);

   2711  4 000062   000172 236000 xsym               LDQ     UWA+122
         4 000063   000011 772000                    QRL     9
         4 000064   000060 552030 0                  STBQ    ER+28,'30'O

      219     2712    1       ER.PRINT2.P_AREA=ZI$DIR.AREA_NM.NAME.TEXT;

   2712  4 000065   040000 100400                    MLR     fill='040'O
         4 000066   000234 200036 xsym               ADSC9   ZI$DIR+156               cn=1,n=30
         4 000067   000037 400040 0                  ADSC9   ER+11                    cn=2,n=32

      220     2713    1       IF AREA_DCB=AREA_FILE THEN /* FILE NAME IS SET BY DEFAULT */

   2713  4 000070   000017 474400 0                  LDP4    AREA_DCB$
         4 000071   000016 723000 0                  LXL3    AREA_DCB_SIZE
         4 000072   000020 475400 0                  LDP5    AREA_FILE$
         4 000073   000021 724000 0                  LXL4    AREA_FILE_SIZE
         4 000074   040140 106540                    CMPC    fill='040'O
         4 000075   400000 000013                    ADSC9   0,,PR4                   cn=0,n=*X3
         4 000076   500000 000014                    ADSC9   0,,PR5                   cn=0,n=*X4
         4 000077   000103 601000 4                  TNZ     s:2716

PL6.E3A0      #001=EXCTN_REPRT_SETUP File=ZIU$Q2ER.:ZIC0TSI                      FRI 09/05/97 13:21 Page:26
      221     2714    1           ER.PRINT45.CNT=-1*LENGTHC(ER.PRINT45); /* DONT PRINT DEFAULT */

   2714  4 000100   000707 236003                    LDQ     455,DU
         4 000101   000102 552020 0                  STBQ    ER+46,'20'O
         4 000102   000120 710000 4                  TRA     s:2717

      222     2715    1       ELSE
      223     2716    1           CALL CONCAT(ER.PRINT45.P_AREA,'"',AREA_FILE,'"');

   2716  4 000103   042000 236003                    LDQ     17408,DU
         4 000104   000111 552040 0                  STBQ    ER+53,'40'O
         4 000105   040000 100540                    MLR     fill='040'O
         4 000106   500000 000014                    ADSC9   0,,PR5                   cn=0,n=*X4
         4 000107   000111 200035 0                  ADSC9   ER+53                    cn=1,n=29
         4 000110   000021 236000 0                  LDQ     AREA_FILE_SIZE
         4 000111   000035 116007                    CMPQ    29,DL
         4 000112   000120 603000 4                  TRC     s:2717
         4 000113   777742 625006                    EAX5    -30,QL
         4 000114   777777 665003                    ERX5    -1,DU
         4 000115   040046 100400                    MLR     fill='040'O
         4 000116   000011 000001 5                  ADSC9   9                        cn=0,n=1
         4 000117   000111 200015 0                  ADSC9   ER+53,Q                  cn=1,n=*X5

      224     2717    1       SOURCESF=%UTS#; /* CONVERT UTS OF INIT TIME */

   2717  4 000120   000004 235007                    LDA     4,DL
         4 000121   000000 755000 xsym               STA     SOURCESF

      225     2718    1       DESTSF=%EXT#; /* TO EXT FORMAT */

   2718  4 000122   000001 236007                    LDQ     1,DL
         4 000123   000000 756000 xsym               STQ     DESTSF

      226     2719    1       DATESF=VECTOR(ER.PRINT9.DATE);

   2719  4 000124   000012 237000 5                  LDAQ    10
         4 000125   000000 755000 xsym               STA     DATESF
PL6.E3A0      #001=EXCTN_REPRT_SETUP File=ZIU$Q2ER.:ZIC0TSI                      FRI 09/05/97 13:21 Page:27
         4 000126   000001 756000 xsym               STQ     DATESF+1

      227     2720    1       TIMESF=VECTOR(TIMBUF);

   2720  4 000127   000014 237000 5                  LDAQ    12
         4 000130   000000 755000 xsym               STA     TIMESF
         4 000131   000001 756000 xsym               STQ     TIMESF+1

      228     2721    1       IF UWA.AC_REC.PERMTYPE=1 THEN

   2721  4 000132   000236 235000 xsym               LDA     UWA+158
         4 000133   000001 115007                    CMPA    1,DL
         4 000134   000141 601000 4                  TNZ     s:2724

      229     2722    1           BUF1='TEMPORARY';

   2722  4 000135   040000 100400                    MLR     fill='040'O
         4 000136   000000 000011 3                  ADSC9   0                        cn=0,n=9
         4 000137   000003 000012 0                  ADSC9   BUF1                     cn=0,n=10
         4 000140   000144 710000 4                  TRA     s:2725

      230     2723    1       ELSE
      231     2724    1           BUF1='PERMANENT';

   2724  4 000141   040000 100400                    MLR     fill='040'O
         4 000142   000003 000011 3                  ADSC9   3                        cn=0,n=9
         4 000143   000003 000012 0                  ADSC9   BUF1                     cn=0,n=10

      232     2725    1       IF UWA.AC_REC.PG_TYPE=0 THEN

   2725  4 000144   000237 235000 xsym               LDA     UWA+159
         4 000145   000242 601000 4                  TNZ     s:2736

      233     2726    2       DO; /* SETUP FOR IDS FILE INIT REPORT */

      234     2727    2           CALL CONCAT(ER.PRINT4.P_AREA,AREA_DCB,' IS A RANDOM ',BUF1,'FILE');

PL6.E3A0      #001=EXCTN_REPRT_SETUP File=ZIU$Q2ER.:ZIC0TSI                      FRI 09/05/97 13:21 Page:28
   2727  4 000146   040000 100540                    MLR     fill='040'O
         4 000147   400000 000013                    ADSC9   0,,PR4                   cn=0,n=*X3
         4 000150   000063 200074 0                  ADSC9   ER+31                    cn=1,n=60
         4 000151   000016 236000 0                  LDQ     AREA_DCB_SIZE
         4 000152   000074 116007                    CMPQ    60,DL
         4 000153   000177 603000 4                  TRC     s:2728
         4 000154   777703 625006                    EAX5    -61,QL
         4 000155   777777 665003                    ERX5    -1,DU
         4 000156   040046 100400                    MLR     fill='040'O
         4 000157   000006 000015 3                  ADSC9   6                        cn=0,n=13
         4 000160   000063 200015 0                  ADSC9   ER+31,Q                  cn=1,n=*X5
         4 000161   000057 116007                    CMPQ    47,DL
         4 000162   000177 603000 4                  TRC     s:2728
         4 000163   777720 626006                    EAX6    -48,QL
         4 000164   777777 666003                    ERX6    -1,DU
         4 000165   040046 100400                    MLR     fill='040'O
         4 000166   000003 000012 0                  ADSC9   BUF1                     cn=0,n=10
         4 000167   000066 400016 0                  ADSC9   ER+34,Q                  cn=2,n=*X6
         4 000170   000045 116007                    CMPQ    37,DL
         4 000171   000177 603000 4                  TRC     s:2728
         4 000172   777732 627006                    EAX7    -38,QL
         4 000173   777777 667003                    ERX7    -1,DU
         4 000174   040046 100400                    MLR     fill='040'O
         4 000175   000012 000004 3                  ADSC9   10                       cn=0,n=4
         4 000176   000071 000017 0                  ADSC9   ER+37,Q                  cn=0,n=*X7

      235     2728    2           TSTAMPSF=VECTOR(ATBLK_PG.DATE_INIT);

   2728  4 000177   777640 235007                    LDA     -96,DL
         4 000200   000000 236000 xsym               LDQ     ATBLK$
         4 000201   000027 036003                    ADLQ    23,DU
         4 000202   000000 755000 xsym               STA     TSTAMPSF
         4 000203   000001 756000 xsym               STQ     TSTAMPSF+1

      236     2729    2           CALL SYS_FUNC_TSTAMP; /* CONVET INIT UTS TIME */

   2729  4 000204   000016 631400 5                  EPPR1   14
PL6.E3A0      #001=EXCTN_REPRT_SETUP File=ZIU$Q2ER.:ZIC0TSI                      FRI 09/05/97 13:21 Page:29
         4 000205   000000 701000 xent               TSX1    SYS_FUNC_TSTAMP
         4 000206   000000 011000                    NOP     0

      237     2730    2           ER.PRINT9.TIME=TIMBUF.HOUR_MIN;

   2730  4 000207   040000 100400                    MLR     fill='040'O
         4 000210   000000 000005 0                  ADSC9   TIMBUF                   cn=0,n=5
         4 000211   000151 000006 0                  ADSC9   ER+85                    cn=0,n=6

      238     2731    2           V2=ATBLK_PG.NUM_DBPG+1; /* GET FILE SIZE FROM ATBLK */

   2731  4 000212   000000 470400 xsym               LDP0    ATBLK$
         4 000213   000005 235100                    LDA     5,,PR0
         4 000214   000001 035007                    ADLA    1,DL
         4 000215   000012 755000 0                  STA     V2

      239     2732    2           CALL BIN_CHAR(BUF2,V2);

   2732  4 000216   000017 236000 5                  LDQ     15
         4 000217   200006 756100                    STQ     @CHAR10+1,,AUTO
         4 000220   000020 236000 5                  LDQ     16
         4 000221   200005 756100                    STQ     5,,AUTO
         4 000222   000003 701000 4                  TSX1    BIN_CHAR
         4 000223   000000 011000                    NOP     0

      240     2733    2           CALL CONCAT(ER.PRINT5.P_GRAN,CV2,' GRANULES.');

   2733  4 000224   000015 470400 0                  LDP0    P2$
         4 000225   000012 720000 0                  LXL0    V2
         4 000226   040000 100540                    MLR     fill='040'O
         4 000227   000000 000010                    ADSC9   0,,PR0                   cn=0,n=*X0
         4 000230   000125 400050 0                  ADSC9   ER+65                    cn=2,n=40
         4 000231   000012 236000 0                  LDQ     V2
         4 000232   000050 116007                    CMPQ    40,DL
         4 000233   000241 605000 4                  TPL     s:2734
         4 000234   777727 621006                    EAX1    -41,QL
         4 000235   777777 661003                    ERX1    -1,DU
PL6.E3A0      #001=EXCTN_REPRT_SETUP File=ZIU$Q2ER.:ZIC0TSI                      FRI 09/05/97 13:21 Page:30
         4 000236   040046 100400                    MLR     fill='040'O
         4 000237   000013 000012 3                  ADSC9   11                       cn=0,n=10
         4 000240   000125 400011 0                  ADSC9   ER+65,Q                  cn=2,n=*X1

      241     2734    2           END;

   2734  4 000241   000430 710000 4                  TRA     s:2764

      242     2735    1       ELSE
      243     2736    1           IF UWA.AC_REC.PG_TYPE=2 OR UWA.AC_REC.PG_TYPE=3 THEN

   2736  4 000242   000002 115007                    CMPA    2,DL
         4 000243   000246 600000 4                  TZE     s:2738
         4 000244   000003 115007                    CMPA    3,DL
         4 000245   000430 601000 4                  TNZ     s:2764

      244     2737    2           DO; /* REPORT OF INDEX AREA INIT */

      245     2738    2               SOURCESF=%CLOCK#;

   2738  4 000246   000000 450000 xsym               STZ     SOURCESF

      246     2739    2               TSTAMPSF=VECTOR(NIL); /* DONT RETURN UTS */

   2739  4 000247   000022 237000 5                  LDAQ    18
         4 000250   000000 755000 xsym               STA     TSTAMPSF
         4 000251   000001 756000 xsym               STQ     TSTAMPSF+1

      247     2740    2               CALL SYS_FUNC_TSTAMP; /* GET CURRENT DATE AND TIME */

   2740  4 000252   000016 631400 5                  EPPR1   14
         4 000253   000000 701000 xent               TSX1    SYS_FUNC_TSTAMP
         4 000254   000000 011000                    NOP     0

      248     2741    2               ER.PRINT9.TIME=TIMBUF.HOUR_MIN; /* HH:MM */

   2741  4 000255   040000 100400                    MLR     fill='040'O
PL6.E3A0      #001=EXCTN_REPRT_SETUP File=ZIU$Q2ER.:ZIC0TSI                      FRI 09/05/97 13:21 Page:31
         4 000256   000000 000005 0                  ADSC9   TIMBUF                   cn=0,n=5
         4 000257   000151 000006 0                  ADSC9   ER+85                    cn=0,n=6

      249     2742    2               CALL CONCAT(ER.PRINT4.P_AREA,AREA_DCB,' IS AN INDEXED ',BUF1,'FILE');

   2742  4 000260   000017 470400 0                  LDP0    AREA_DCB$
         4 000261   000016 720000 0                  LXL0    AREA_DCB_SIZE
         4 000262   040000 100540                    MLR     fill='040'O
         4 000263   000000 000010                    ADSC9   0,,PR0                   cn=0,n=*X0
         4 000264   000063 200074 0                  ADSC9   ER+31                    cn=1,n=60
         4 000265   000016 236000 0                  LDQ     AREA_DCB_SIZE
         4 000266   000074 116007                    CMPQ    60,DL
         4 000267   000313 603000 4                  TRC     s:2743
         4 000270   777703 621006                    EAX1    -61,QL
         4 000271   777777 661003                    ERX1    -1,DU
         4 000272   040046 100400                    MLR     fill='040'O
         4 000273   000016 000017 3                  ADSC9   14                       cn=0,n=15
         4 000274   000063 200011 0                  ADSC9   ER+31,Q                  cn=1,n=*X1
         4 000275   000055 116007                    CMPQ    45,DL
         4 000276   000313 603000 4                  TRC     s:2743
         4 000277   777722 622006                    EAX2    -46,QL
         4 000300   777777 662003                    ERX2    -1,DU
         4 000301   040046 100400                    MLR     fill='040'O
         4 000302   000003 000012 0                  ADSC9   BUF1                     cn=0,n=10
         4 000303   000067 000012 0                  ADSC9   ER+35,Q                  cn=0,n=*X2
         4 000304   000043 116007                    CMPQ    35,DL
         4 000305   000313 603000 4                  TRC     s:2743
         4 000306   777734 623006                    EAX3    -36,QL
         4 000307   777777 663003                    ERX3    -1,DU
         4 000310   040046 100400                    MLR     fill='040'O
         4 000311   000012 000004 3                  ADSC9   10                       cn=0,n=4
         4 000312   000071 400013 0                  ADSC9   ER+37,Q                  cn=2,n=*X3

      250     2743    2    /**/       FUNSF = %IN#; /* REOPEN THE INDEX FILE */

   2743  4 000313   000002 235007                    LDA     2,DL
         4 000314   000000 755000 xsym               STA     FUNSF
PL6.E3A0      #001=EXCTN_REPRT_SETUP File=ZIU$Q2ER.:ZIC0TSI                      FRI 09/05/97 13:21 Page:32

      251     2744    2               CALL SYS_FUNC_OPEN;

   2744  4 000315   000016 631400 5                  EPPR1   14
         4 000316   000000 701000 xent               TSX1    SYS_FUNC_OPEN
         4 000317   000000 011000                    NOP     0

      252     2745    2               CALL SYS_FUNC_CLOS;

   2745  4 000320   000016 631400 5                  EPPR1   14
         4 000321   000000 701000 xent               TSX1    SYS_FUNC_CLOS
         4 000322   000000 011000                    NOP     0

      253     2746    2               CALL GET_FILESZ;

   2746  4 000323   000016 631400 5                  EPPR1   14
         4 000324   000000 701000 xent               TSX1    GET_FILESZ
         4 000325   000000 011000                    NOP     0

      254     2747    2               V2=XTENSIZESF; /* GET INIT FILE SIZE */

   2747  4 000326   000000 235000 xsym               LDA     XTENSIZESF
         4 000327   000012 755000 0                  STA     V2

      255     2748    2               CALL BIN_CHAR(BUF2,V2);

   2748  4 000330   000017 236000 5                  LDQ     15
         4 000331   200006 756100                    STQ     @CHAR10+1,,AUTO
         4 000332   000020 236000 5                  LDQ     16
         4 000333   200005 756100                    STQ     5,,AUTO
         4 000334   000003 701000 4                  TSX1    BIN_CHAR
         4 000335   000000 011000                    NOP     0

      256     2749    2               CALL CONCAT(ER.PRINT5.P_GRAN,'INITIALLY ',CV2,' GRANULES.');

   2749  4 000336   040000 100400                    MLR     fill='040'O
         4 000337   000022 000012 3                  ADSC9   18                       cn=0,n=10
PL6.E3A0      #001=EXCTN_REPRT_SETUP File=ZIU$Q2ER.:ZIC0TSI                      FRI 09/05/97 13:21 Page:33
         4 000340   000125 400012 0                  ADSC9   ER+65                    cn=2,n=10
         4 000341   000015 470400 0                  LDP0    P2$
         4 000342   000012 720000 0                  LXL0    V2
         4 000343   040000 100540                    MLR     fill='040'O
         4 000344   000000 000010                    ADSC9   0,,PR0                   cn=0,n=*X0
         4 000345   000130 000036 0                  ADSC9   ER+68                    cn=0,n=30
         4 000346   000012 236000 0                  LDQ     V2
         4 000347   000036 116007                    CMPQ    30,DL
         4 000350   000356 605000 4                  TPL     s:2750
         4 000351   777741 621006                    EAX1    -31,QL
         4 000352   777777 661003                    ERX1    -1,DU
         4 000353   040046 100400                    MLR     fill='040'O
         4 000354   000013 000012 3                  ADSC9   11                       cn=0,n=10
         4 000355   000130 000011 0                  ADSC9   ER+68,Q                  cn=0,n=*X1

      257     2750    2               ER.INDX4.P_TYPE='  PRIMARY';

   2750  4 000356   040000 100400                    MLR     fill='040'O
         4 000357   000025 000011 3                  ADSC9   21                       cn=0,n=9
         4 000360   000460 000011 0                  ADSC9   ER+284                   cn=0,n=9

      258     2751    2               ER.INDX4.P_DUP='      NO';

   2751  4 000361   040000 100400                    MLR     fill='040'O
         4 000362   000030 000010 3                  ADSC9   24                       cn=0,n=8
         4 000363   000466 200010 0                  ADSC9   ER+290                   cn=1,n=8

      259     2752    2               ER.INDX4.P_NAME=RECORD_LIST.NAME(0);

   2752  4 000364   040000 100400                    MLR     fill='040'O
         4 000365   000000 000036 xsym               ADSC9   RECORD_LIST              cn=0,n=30
         4 000366   000472 000037 0                  ADSC9   ER+294                   cn=0,n=31

      260     2753    2               CALL BINCHAR(ER.INDX4.P_OFFSET,KEYXSF);

   2753  4 000367   000000 235000 xsym               LDA     KEYXSF
         4 000370   000044 773000                    LRL     36
PL6.E3A0      #001=EXCTN_REPRT_SETUP File=ZIU$Q2ER.:ZIC0TSI                      FRI 09/05/97 13:21 Page:34
         4 000371   200010 757100                    STAQ    @INDX+2,,AUTO
         4 000372   000000 301500                    BTD
         4 000373   200010 000010                    NDSC9   @INDX+2,,AUTO            cn=0,s=lsgnf,sf=0,n=8
         4 000374   000462 230007 0                  NDSC9   ER+286                   cn=1,s=nosgn,sf=0,n=7

      261     2754    2               CALL ZERO_SUP(ER.INDX4.P_OFFSET,LENGTHC(ER.INDX4.P_OFFSET),'0'B);

   2754  4 000375   000025 630400 5                  EPPR0   21
         4 000376   000000 631400 5                  EPPR1   0
         4 000377   000000 701000 xent               TSX1    ZERO_SUP
         4 000400   000000 011000                    NOP     0

      262     2755    2               CALL BINCHAR(ER.INDX4.P_LENGTH,KEYLSF);

   2755  4 000401   000000 235000 xsym               LDA     KEYLSF
         4 000402   000044 773000                    LRL     36
         4 000403   200010 757100                    STAQ    @INDX+2,,AUTO
         4 000404   000000 301500                    BTD
         4 000405   200010 000010                    NDSC9   @INDX+2,,AUTO            cn=0,s=lsgnf,sf=0,n=8
         4 000406   000464 030011 0                  NDSC9   ER+288                   cn=0,s=nosgn,sf=0,n=9

      263     2756    2               CALL ZERO_SUP(ER.INDX4.P_LENGTH,LENGTHC(ER.INDX4.P_LENGTH),'0'B);

   2756  4 000407   000031 630400 5                  EPPR0   25
         4 000410   000000 631400 5                  EPPR1   0
         4 000411   000000 701000 xent               TSX1    ZERO_SUP
         4 000412   000000 011000                    NOP     0

      264     2757    2               IF UWA.AC_REC.SWS.ENCRYP THEN

   2757  4 000413   000233 236000 xsym               LDQ     UWA+155
         4 000414   200000 316003                    CANQ    65536,DU
         4 000415   000422 600000 4                  TZE     s:2760

      265     2758    2                   ER.INDX5.P_ENCRP='ENCRYPTED.';

   2758  4 000416   040000 100400                    MLR     fill='040'O
PL6.E3A0      #001=EXCTN_REPRT_SETUP File=ZIU$Q2ER.:ZIC0TSI                      FRI 09/05/97 13:21 Page:35
         4 000417   000032 000012 3                  ADSC9   26                       cn=0,n=10
         4 000420   000507 400016 0                  ADSC9   ER+307                   cn=2,n=14
         4 000421   000425 710000 4                  TRA     s:2761

      266     2759    2               ELSE
      267     2760    2                   ER.INDX5.P_ENCRP='NOT ENCRYPTED.';

   2760  4 000422   040000 100400                    MLR     fill='040'O
         4 000423   000035 000016 3                  ADSC9   29                       cn=0,n=14
         4 000424   000507 400016 0                  ADSC9   ER+307                   cn=2,n=14

      268     2761    2               ER.PRINT21.P_PTR_SIZE='0'; /* MARK A FLAG FOR INDEX FILE */

   2761  4 000425   060000 236007                    LDQ     24576,DL
         4 000426   000341 552010 0                  STBQ    ER+205,'10'O

      269     2762    2               RETURN;

   2762  4 000427   000000 702200 xent               TSX2  ! X66_ARET

      270     2763    2               END;
      271     2764    1       IF ATBLK_PG.DB_INFO.PRCNT_INV>0 THEN /* INVENTORY EXIST */

   2764  4 000430   000000 470400 xsym               LDP0    ATBLK$
         4 000431   000010 236100                    LDQ     8,,PR0
         4 000432   777000 316007                    CANQ    -512,DL
         4 000433   000552 600000 4                  TZE     s:2780

      272     2765    2       DO;

      273     2766    2           V1=ATBLK_PG.DB_INFO.PRCNT_INV;

   2766  4 000434   000010 236100                    LDQ     8,,PR0
         4 000435   000011 772000                    QRL     9
         4 000436   000777 376007                    ANQ     511,DL
         4 000437   000011 756000 0                  STQ     V1

PL6.E3A0      #001=EXCTN_REPRT_SETUP File=ZIU$Q2ER.:ZIC0TSI                      FRI 09/05/97 13:21 Page:36
      274     2767    2           CALL BIN_CHAR(BUF1,V1);

   2767  4 000440   000034 236000 5                  LDQ     28
         4 000441   200006 756100                    STQ     @CHAR10+1,,AUTO
         4 000442   000035 236000 5                  LDQ     29
         4 000443   200005 756100                    STQ     5,,AUTO
         4 000444   000003 701000 4                  TSX1    BIN_CHAR
         4 000445   000000 011000                    NOP     0

      275     2768    2           CALL CONCAT(ER.PRINT14.INV_PER_CENT,CV1,'%');

   2768  4 000446   000014 470400 0                  LDP0    P1$
         4 000447   000011 720000 0                  LXL0    V1
         4 000450   040000 100540                    MLR     fill='040'O
         4 000451   000000 000010                    ADSC9   0,,PR0                   cn=0,n=*X0
         4 000452   000227 400004 0                  ADSC9   ER+131                   cn=2,n=4
         4 000453   000011 236000 0                  LDQ     V1
         4 000454   000004 116007                    CMPQ    4,DL
         4 000455   000463 605000 4                  TPL     s:2769
         4 000456   777773 621006                    EAX1    -5,QL
         4 000457   777777 661003                    ERX1    -1,DU
         4 000460   040046 100400                    MLR     fill='040'O
         4 000461   000036 000001 5                  ADSC9   30                       cn=0,n=1
         4 000462   000227 400011 0                  ADSC9   ER+131,Q                 cn=2,n=*X1

      276     2769    2           V1=ATBLK_PG.FIR_INV_PGNO; /* FIRST INV PAGE # */

   2769  4 000463   000000 471400 xsym               LDP1    ATBLK$
         4 000464   100014 235100                    LDA     12,,PR1
         4 000465   000011 755000 0                  STA     V1

      277     2770    2           CALL BIN_CHAR(BUF1,V1);

   2770  4 000466   000034 236000 5                  LDQ     28
         4 000467   200006 756100                    STQ     @CHAR10+1,,AUTO
         4 000470   000035 236000 5                  LDQ     29
         4 000471   200005 756100                    STQ     5,,AUTO
PL6.E3A0      #001=EXCTN_REPRT_SETUP File=ZIU$Q2ER.:ZIC0TSI                      FRI 09/05/97 13:21 Page:37
         4 000472   000003 701000 4                  TSX1    BIN_CHAR
         4 000473   000000 011000                    NOP     0

      278     2771    2           V2=ATBLK_PG.NUM_DBPG; /* LAST PAGE NUMBER */

   2771  4 000474   000000 470400 xsym               LDP0    ATBLK$
         4 000475   000005 235100                    LDA     5,,PR0
         4 000476   000012 755000 0                  STA     V2

      279     2772    2           CALL BIN_CHAR(BUF2,V2);

   2772  4 000477   000017 236000 5                  LDQ     15
         4 000500   200006 756100                    STQ     @CHAR10+1,,AUTO
         4 000501   000020 236000 5                  LDQ     16
         4 000502   200005 756100                    STQ     5,,AUTO
         4 000503   000003 701000 4                  TSX1    BIN_CHAR
         4 000504   000000 011000                    NOP     0

      280     2773    2           CALL CONCAT(ER.PRINT13.P_RANGE,CV1,'-',CV2);

   2773  4 000505   000014 470400 0                  LDP0    P1$
         4 000506   000011 720000 0                  LXL0    V1
         4 000507   040000 100540                    MLR     fill='040'O
         4 000510   000000 000010                    ADSC9   0,,PR0                   cn=0,n=*X0
         4 000511   000213 000024 0                  ADSC9   ER+119                   cn=0,n=20
         4 000512   000011 236000 0                  LDQ     V1
         4 000513   000024 116007                    CMPQ    20,DL
         4 000514   000534 605000 4                  TPL     s:2774
         4 000515   777753 621006                    EAX1    -21,QL
         4 000516   777777 661003                    ERX1    -1,DU
         4 000517   040046 100400                    MLR     fill='040'O
         4 000520   000037 000001 5                  ADSC9   31                       cn=0,n=1
         4 000521   000213 000011 0                  ADSC9   ER+119,Q                 cn=0,n=*X1
         4 000522   000011 236000 0                  LDQ     V1
         4 000523   000023 116007                    CMPQ    19,DL
         4 000524   000534 605000 4                  TPL     s:2774
         4 000525   777754 620006                    EAX0    -20,QL
PL6.E3A0      #001=EXCTN_REPRT_SETUP File=ZIU$Q2ER.:ZIC0TSI                      FRI 09/05/97 13:21 Page:38
         4 000526   777777 660003                    ERX0    -1,DU
         4 000527   000015 471400 0                  LDP1    P2$
         4 000530   000012 721000 0                  LXL1    V2
         4 000531   040046 100540                    MLR     fill='040'O
         4 000532   100000 000011                    ADSC9   0,,PR1                   cn=0,n=*X1
         4 000533   000213 200010 0                  ADSC9   ER+119,Q                 cn=1,n=*X0

      281     2774    2           V1=ATBLK_PG.FIR_INV_PGNO-1;

   2774  4 000534   000000 471400 xsym               LDP1    ATBLK$
         4 000535   100014 235100                    LDA     12,,PR1
         4 000536   000001 135007                    SBLA    1,DL
         4 000537   000011 755000 0                  STA     V1

      282     2775    2           V2=ATBLK_PG.NUM_DBPG-V1; /* # OF INV PAGES */

   2775  4 000540   100005 236100                    LDQ     5,,PR1
         4 000541   000011 136000 0                  SBLQ    V1
         4 000542   000012 756000 0                  STQ     V2

      283     2776    2           CALL BIN_CHAR(ER.PRINT11.P_PAGE,V2);

   2776  4 000543   000017 236000 5                  LDQ     15
         4 000544   200006 756100                    STQ     @CHAR10+1,,AUTO
         4 000545   000040 236000 5                  LDQ     32
         4 000546   200005 756100                    STQ     5,,AUTO
         4 000547   000003 701000 4                  TSX1    BIN_CHAR
         4 000550   000000 011000                    NOP     0

      284     2777    2           END;

   2777  4 000551   000575 710000 4                  TRA     s:2786

      285     2778    1       ELSE
      286     2779    2       DO;

      287     2780    2           V1=ATBLK_PG.NUM_DBPG; /* ALL DATA PGGES */
PL6.E3A0      #001=EXCTN_REPRT_SETUP File=ZIU$Q2ER.:ZIC0TSI                      FRI 09/05/97 13:21 Page:39

   2780  4 000552   000005 235100                    LDA     5,,PR0
         4 000553   000011 755000 0                  STA     V1

      288     2781    2           V2=0;

   2781  4 000554   000012 450000 0                  STZ     V2

      289     2782    2           ER.PRINT11.P_PAGE='-NONE-';

   2782  4 000555   040000 100400                    MLR     fill='040'O
         4 000556   000041 000006 3                  ADSC9   33                       cn=0,n=6
         4 000557   000201 000012 0                  ADSC9   ER+109                   cn=0,n=10

      290     2783    2           ER.PRINT13.CNT=-1*ER.PRINT13.CNT; /* SET TO NO PRINT */

   2783  4 000560   000203 236000 0                  LDQ     ER+111
         4 000561   000022 736000                    QLS     18
         4 000562   000033 732000                    QRS     27
         4 000563   000041 676000 5                  ERQ     33
         4 000564   000001 036007                    ADLQ    1,DL
         4 000565   000011 736000                    QLS     9
         4 000566   000203 552010 0                  STBQ    ER+111,'10'O

      291     2784    2           ER.PRINT14.CNT=-1*ER.PRINT14.CNT; /* SET TO NO PRINT */

   2784  4 000567   000220 236000 0                  LDQ     ER+124
         4 000570   000033 732000                    QRS     27
         4 000571   000041 676000 5                  ERQ     33
         4 000572   000001 036007                    ADLQ    1,DL
         4 000573   000033 736000                    QLS     27
         4 000574   000220 552040 0                  STBQ    ER+124,'40'O

      292     2785    2           END;

      293     2786    1       V3 = V1; /* SAVE NUMBER OF DATA PAGES IN V3 */

PL6.E3A0      #001=EXCTN_REPRT_SETUP File=ZIU$Q2ER.:ZIC0TSI                      FRI 09/05/97 13:21 Page:40
   2786  4 000575   000011 235000 0                  LDA     V1
         4 000576   000013 755000 0                  STA     V3

      294     2787    1       CALL BIN_CHAR(ER.PRINT10.P_PAGE,V1);

   2787  4 000577   000034 236000 5                  LDQ     28
         4 000600   200006 756100                    STQ     @CHAR10+1,,AUTO
         4 000601   000042 236000 5                  LDQ     34
         4 000602   200005 756100                    STQ     5,,AUTO
         4 000603   000003 701000 4                  TSX1    BIN_CHAR
         4 000604   000000 011000                    NOP     0

      295     2788    1       V1=ATBLK_PG.HIGH_DBK-ATBLK_PG.LOW_DBK+1;

   2788  4 000605   000000 470400 xsym               LDP0    ATBLK$
         4 000606   000016 236100                    LDQ     14,,PR0
         4 000607   000015 136100                    SBLQ    13,,PR0
         4 000610   000001 036007                    ADLQ    1,DL
         4 000611   000011 756000 0                  STQ     V1

      296     2789    1       CALL BIN_CHAR(ER.PRINT15.P_KEY,V1);

   2789  4 000612   000034 236000 5                  LDQ     28
         4 000613   200006 756100                    STQ     @CHAR10+1,,AUTO
         4 000614   000043 236000 5                  LDQ     35
         4 000615   200005 756100                    STQ     5,,AUTO
         4 000616   000003 701000 4                  TSX1    BIN_CHAR
         4 000617   000000 011000                    NOP     0

      297     2790    1       V1=ATBLK_PG.HIGH_DBK;

   2790  4 000620   000000 470400 xsym               LDP0    ATBLK$
         4 000621   000016 235100                    LDA     14,,PR0
         4 000622   000011 755000 0                  STA     V1

      298     2791    1       V2=ATBLK_PG.LOW_DBK;

PL6.E3A0      #001=EXCTN_REPRT_SETUP File=ZIU$Q2ER.:ZIC0TSI                      FRI 09/05/97 13:21 Page:41
   2791  4 000623   000015 235100                    LDA     13,,PR0
         4 000624   000012 755000 0                  STA     V2

      299     2792    1       CALL BIN_CHAR(BUF1,V1);

   2792  4 000625   000034 236000 5                  LDQ     28
         4 000626   200006 756100                    STQ     @CHAR10+1,,AUTO
         4 000627   000035 236000 5                  LDQ     29
         4 000630   200005 756100                    STQ     5,,AUTO
         4 000631   000003 701000 4                  TSX1    BIN_CHAR
         4 000632   000000 011000                    NOP     0

      300     2793    1       CALL BIN_CHAR(BUF2,V2);

   2793  4 000633   000017 236000 5                  LDQ     15
         4 000634   200006 756100                    STQ     @CHAR10+1,,AUTO
         4 000635   000020 236000 5                  LDQ     16
         4 000636   200005 756100                    STQ     5,,AUTO
         4 000637   000003 701000 4                  TSX1    BIN_CHAR
         4 000640   000000 011000                    NOP     0

      301     2794    1       CALL CONCAT(ER.PRINT17.P_RANGE,CV2,'-',CV1);

   2794  4 000641   000015 470400 0                  LDP0    P2$
         4 000642   000012 720000 0                  LXL0    V2
         4 000643   040000 100540                    MLR     fill='040'O
         4 000644   000000 000010                    ADSC9   0,,PR0                   cn=0,n=*X0
         4 000645   000265 200024 0                  ADSC9   ER+161                   cn=1,n=20
         4 000646   000012 236000 0                  LDQ     V2
         4 000647   000024 116007                    CMPQ    20,DL
         4 000650   000670 605000 4                  TPL     s:2795
         4 000651   777753 621006                    EAX1    -21,QL
         4 000652   777777 661003                    ERX1    -1,DU
         4 000653   040046 100400                    MLR     fill='040'O
         4 000654   000037 000001 5                  ADSC9   31                       cn=0,n=1
         4 000655   000265 200011 0                  ADSC9   ER+161,Q                 cn=1,n=*X1
         4 000656   000012 236000 0                  LDQ     V2
PL6.E3A0      #001=EXCTN_REPRT_SETUP File=ZIU$Q2ER.:ZIC0TSI                      FRI 09/05/97 13:21 Page:42
         4 000657   000023 116007                    CMPQ    19,DL
         4 000660   000670 605000 4                  TPL     s:2795
         4 000661   777754 620006                    EAX0    -20,QL
         4 000662   777777 660003                    ERX0    -1,DU
         4 000663   000014 471400 0                  LDP1    P1$
         4 000664   000011 721000 0                  LXL1    V1
         4 000665   040046 100540                    MLR     fill='040'O
         4 000666   100000 000011                    ADSC9   0,,PR1                   cn=0,n=*X1
         4 000667   000265 400010 0                  ADSC9   ER+161,Q                 cn=2,n=*X0

      302     2795    1       TOT_DBK=ATBLK_PG.HIGH_DBK-UWA.AC_REC.BASE_DBK;

   2795  4 000670   000000 471400 xsym               LDP1    ATBLK$
         4 000671   100016 236100                    LDQ     14,,PR1
         4 000672   000242 136000 xsym               SBLQ    UWA+162
         4 000673   000022 756000 0                  STQ     TOT_DBK

      303     2796    1       V1=ATBLK_PG.LINE_INFO.LPP; /* PAGE_INTERVAL */

   2796  4 000674   100012 236100                    LDQ     10,,PR1
         4 000675   777777 376007                    ANQ     -1,DL
         4 000676   000011 756000 0                  STQ     V1

      304     2797    1       V2=ATBLK_PG.CALC_INFO.IDB; /* CALC_INTERVAL */

   2797  4 000677   100011 236100                    LDQ     9,,PR1
         4 000700   777777 376007                    ANQ     -1,DL
         4 000701   000012 756000 0                  STQ     V2

      305     2798         /* V3 = NUMBER OF DATA PAGES */
      306     2799    1       IF UWA.AC_REC.CALC_NULL=1 THEN

   2799  4 000702   000241 235000 xsym               LDA     UWA+161
         4 000703   000001 115007                    CMPA    1,DL
         4 000704   000711 601000 4                  TNZ     s:2803

      307     2800    1           ER.PRINT16.P_HEADER='-NONE-';
PL6.E3A0      #001=EXCTN_REPRT_SETUP File=ZIU$Q2ER.:ZIC0TSI                      FRI 09/05/97 13:21 Page:43

   2800  4 000705   040000 100400                    MLR     fill='040'O
         4 000706   000041 000006 3                  ADSC9   33                       cn=0,n=6
         4 000707   000253 400012 0                  ADSC9   ER+151                   cn=2,n=10
         4 000710   000766 710000 4                  TRA     s:2815

      308     2801    1       ELSE
      309     2802    2       DO; /* CALCULATE NUMBER OF HRDS STORED */

      310     2803    2           IF V1 < V2 THEN /* 1 HDR PER SOME PAGES */

   2803  4 000711   000011 116000 0                  CMPQ    V1
         4 000712   000741 604400 4                  TMOZ    s:2810

      311     2804    2               IF MOD(V3,V2/V1)>0 THEN

   2804  4 000713   000011 506000 0                  DIV     V1
         4 000714   200010 756100                    STQ     @INDX+2,,AUTO
         4 000715   000013 236000 0                  LDQ     V3
         4 000716   200010 506100                    DIV     @INDX+2,,AUTO
         4 000717   000044 733000                    LRS     36
         4 000720   000000 116003                    CMPQ    0,DU
         4 000721   000732 604400 4                  TMOZ    s:2807

      312     2805    2                   V3=V3/(V2-V1)+1;

   2805  4 000722   000012 236000 0                  LDQ     V2
         4 000723   000011 136000 0                  SBLQ    V1
         4 000724   200010 756100                    STQ     @INDX+2,,AUTO
         4 000725   000013 236000 0                  LDQ     V3
         4 000726   200010 506100                    DIV     @INDX+2,,AUTO
         4 000727   000001 036007                    ADLQ    1,DL
         4 000730   000013 756000 0                  STQ     V3
         4 000731   000760 710000 4                  TRA     s:2813

      313     2806    2               ELSE
      314     2807    2                   V3=V3/(V2/V1);
PL6.E3A0      #001=EXCTN_REPRT_SETUP File=ZIU$Q2ER.:ZIC0TSI                      FRI 09/05/97 13:21 Page:44

   2807  4 000732   000012 236000 0                  LDQ     V2
         4 000733   000011 506000 0                  DIV     V1
         4 000734   200010 756100                    STQ     @INDX+2,,AUTO
         4 000735   000013 236000 0                  LDQ     V3
         4 000736   200010 506100                    DIV     @INDX+2,,AUTO
         4 000737   000013 756000 0                  STQ     V3
         4 000740   000760 710000 4                  TRA     s:2813

      315     2808    2           ELSE
      316     2809    3           DO; /* MORE THAN 1 HDRS IN A PAGE */

      317     2810    3               V3=(V3-1)*(V1/V2);

   2810  4 000741   000011 236000 0                  LDQ     V1
         4 000742   000012 506000 0                  DIV     V2
         4 000743   200010 756100                    STQ     @INDX+2,,AUTO
         4 000744   000013 236000 0                  LDQ     V3
         4 000745   000001 136007                    SBLQ    1,DL
         4 000746   200010 402100                    MPY     @INDX+2,,AUTO
         4 000747   000013 756000 0                  STQ     V3

      318     2811    3               V3=V3+(MOD(TOT_DBK-1,V1)+V2)/V2; /* ADD HDRS IN LAST PG */

   2811  4 000750   000022 236000 0                  LDQ     TOT_DBK
         4 000751   000001 136007                    SBLQ    1,DL
         4 000752   000011 506000 0                  DIV     V1
         4 000753   000044 733000                    LRS     36
         4 000754   000012 036000 0                  ADLQ    V2
         4 000755   000012 506000 0                  DIV     V2
         4 000756   000013 036000 0                  ADLQ    V3
         4 000757   000013 756000 0                  STQ     V3

      319     2812    3               END;

      320     2813    2           CALL BIN_CHAR(ER.PRINT16.P_HEADER,V3);

PL6.E3A0      #001=EXCTN_REPRT_SETUP File=ZIU$Q2ER.:ZIC0TSI                      FRI 09/05/97 13:21 Page:45
   2813  4 000760   000044 236000 5                  LDQ     36
         4 000761   200006 756100                    STQ     @CHAR10+1,,AUTO
         4 000762   000045 236000 5                  LDQ     37
         4 000763   200005 756100                    STQ     5,,AUTO
         4 000764   000003 701000 4                  TSX1    BIN_CHAR
         4 000765   000000 011000                    NOP     0

      321     2814    2           END;

      322     2815    1       CALL BIN_CHAR(ER.PRINT18.P_KEY,V1);

   2815  4 000766   000034 236000 5                  LDQ     28
         4 000767   200006 756100                    STQ     @CHAR10+1,,AUTO
         4 000770   000046 236000 5                  LDQ     38
         4 000771   200005 756100                    STQ     5,,AUTO
         4 000772   000003 701000 4                  TSX1    BIN_CHAR
         4 000773   000000 011000                    NOP     0

      323     2816    1       CALL BIN_CHAR(ER.PRINT19.P_KEY,V2);

   2816  4 000774   000017 236000 5                  LDQ     15
         4 000775   200006 756100                    STQ     @CHAR10+1,,AUTO
         4 000776   000047 236000 5                  LDQ     39
         4 000777   200005 756100                    STQ     5,,AUTO
         4 001000   000003 701000 4                  TSX1    BIN_CHAR
         4 001001   000000 011000                    NOP     0

      324     2817    1       V1=ATBLK_PG.DB_INFO.DBK_SZ; /* SIZE OF GLOBAL PTR */

   2817  4 001002   000000 470400 xsym               LDP0    ATBLK$
         4 001003   000010 236100                    LDQ     8,,PR0
         4 001004   000022 772000                    QRL     18
         4 001005   000011 756000 0                  STQ     V1

      325     2818    1       CALL BINCHAR(ER.PRINT20.P_PTR_SIZE,V1); /* GLOBAL PTR */

   2818  4 001006   000000 301400                    BTD
PL6.E3A0      #001=EXCTN_REPRT_SETUP File=ZIU$Q2ER.:ZIC0TSI                      FRI 09/05/97 13:21 Page:46
         4 001007   000011 000004 0                  NDSC9   V1                       cn=0,s=lsgnf,sf=0,n=4
         4 001010   000330 630001 0                  NDSC9   ER+196                   cn=3,s=nosgn,sf=0,n=1

      326     2819    1       IF TOT_DBK < %BITBIN('1000000'O) THEN

   2819  4 001011   000022 235000 0                  LDA     TOT_DBK
         4 001012   000001 115003                    CMPA    1,DU
         4 001013   001017 605000 4                  TPL     s:2822

      327     2820    1           ER.PRINT21.P_PTR_SIZE='2';

   2820  4 001014   062000 236007                    LDQ     25600,DL
         4 001015   000341 552010 0                  STBQ    ER+205,'10'O
         4 001016   001026 710000 4                  TRA     s:2826

      328     2821    1       ELSE
      329     2822    1           IF TOT_DBK < %BITBIN('1000000000'O) THEN

   2822  4 001017   001000 115003                    CMPA    512,DU
         4 001020   001024 605000 4                  TPL     s:2825

      330     2823    1               ER.PRINT21.P_PTR_SIZE='3';

   2823  4 001021   063000 236007                    LDQ     26112,DL
         4 001022   000341 552010 0                  STBQ    ER+205,'10'O
         4 001023   001026 710000 4                  TRA     s:2826

      331     2824    1           ELSE
      332     2825    1               ER.PRINT21.P_PTR_SIZE='4'; /* LOCAL PTR SIZE */

   2825  4 001024   064000 236007                    LDQ     26624,DL
         4 001025   000341 552010 0                  STBQ    ER+205,'10'O

      333     2826    1       IF ATBLK_PG.MISC_INFO.CHKSM THEN

   2826  4 001026   000030 236100                    LDQ     24,,PR0
         4 001027   200000 316003                    CANQ    65536,DU
PL6.E3A0      #001=EXCTN_REPRT_SETUP File=ZIU$Q2ER.:ZIC0TSI                      FRI 09/05/97 13:21 Page:47
         4 001030   001035 600000 4                  TZE     s:2829

      334     2827    1           ER.PRINT22.P_CHKSUM='CHECKSUMMED';

   2827  4 001031   040000 100400                    MLR     fill='040'O
         4 001032   000043 000013 3                  ADSC9   35                       cn=0,n=11
         4 001033   000350 200024 0                  ADSC9   ER+212                   cn=1,n=20
         4 001034   001040 710000 4                  TRA     s:2830

      335     2828    1       ELSE
      336     2829    1           ER.PRINT22.P_CHKSUM='NOT CHECKSUMMED';

   2829  4 001035   040000 100400                    MLR     fill='040'O
         4 001036   000046 000017 3                  ADSC9   38                       cn=0,n=15
         4 001037   000350 200024 0                  ADSC9   ER+212                   cn=1,n=20

      337     2830    1       IF UWA.AC_REC.SWS.ENCRYP THEN

   2830  4 001040   000233 236000 xsym               LDQ     UWA+155
         4 001041   200000 316003                    CANQ    65536,DU
         4 001042   001047 600000 4                  TZE     s:2833

      338     2831    1           ER.PRINT23.P_ENCRP='ENCRYPTED';

   2831  4 001043   040000 100400                    MLR     fill='040'O
         4 001044   000032 000011 3                  ADSC9   26                       cn=0,n=9
         4 001045   000362 200024 0                  ADSC9   ER+222                   cn=1,n=20
         4 001046   001052 710000 4                  TRA     s:2834

      339     2832    1       ELSE
      340     2833    1           ER.PRINT23.P_ENCRP='NOT ENCRYPTED';

   2833  4 001047   040000 100400                    MLR     fill='040'O
         4 001050   000035 000015 3                  ADSC9   29                       cn=0,n=13
         4 001051   000362 200024 0                  ADSC9   ER+222                   cn=1,n=20

      341     2834    1       IF UWA.AC_REC.SWS.TEMPLAT THEN
PL6.E3A0      #001=EXCTN_REPRT_SETUP File=ZIU$Q2ER.:ZIC0TSI                      FRI 09/05/97 13:21 Page:48

   2834  4 001052   040000 316003                    CANQ    16384,DU
         4 001053   001060 600000 4                  TZE     s:2837

      342     2835    1           ER.PRINT24.P_TEMPL='TEMPLATE';

   2835  4 001054   040000 100400                    MLR     fill='040'O
         4 001055   000052 000010 3                  ADSC9   42                       cn=0,n=8
         4 001056   000374 200024 0                  ADSC9   ER+232                   cn=1,n=20
         4 001057   001063 710000 4                  TRA     s:2838

      343     2836    1       ELSE
      344     2837    1           ER.PRINT24.P_TEMPL='NOT TEMPLATE';

   2837  4 001060   040000 100400                    MLR     fill='040'O
         4 001061   000054 000014 3                  ADSC9   44                       cn=0,n=12
         4 001062   000374 200024 0                  ADSC9   ER+232                   cn=1,n=20

      345     2838    1       IF ATBLK_PG.MISC_INFO.KEY_FILE_BLT THEN

   2838  4 001063   000030 234100                    SZN     24,,PR0
         4 001064   001106 605000 4                  TPL     s:2842

      346     2839    1           CALL CONCAT(ER.PRINT25.P_SECOND,'SECONDARY KEY FILE "',

   2839  4 001065   040000 100400                    MLR     fill='040'O
         4 001066   000057 000024 3                  ADSC9   47                       cn=0,n=20
         4 001067   000403 000024 0                  ADSC9   ER+239                   cn=0,n=20
         4 001070   000020 471400 0                  LDP1    AREA_FILE$
         4 001071   000021 720000 0                  LXL0    AREA_FILE_SIZE
         4 001072   040000 100540                    MLR     fill='040'O
         4 001073   100000 000010                    ADSC9   0,,PR1                   cn=0,n=*X0
         4 001074   000410 000062 0                  ADSC9   ER+244                   cn=0,n=50
         4 001075   000021 236000 0                  LDQ     AREA_FILE_SIZE
         4 001076   000062 116007                    CMPQ    50,DL
         4 001077   001105 603000 4                  TRC     s:2839+16
         4 001100   777715 621006                    EAX1    -51,QL
PL6.E3A0      #001=EXCTN_REPRT_SETUP File=ZIU$Q2ER.:ZIC0TSI                      FRI 09/05/97 13:21 Page:49
         4 001101   777777 661003                    ERX1    -1,DU
         4 001102   040046 100400                    MLR     fill='040'O
         4 001103   000064 000040 3                  ADSC9   52                       cn=0,n=32
         4 001104   000410 000011 0                  ADSC9   ER+244,Q                 cn=0,n=*X1
         4 001105   001111 710000 4                  TRA     s:2843

      347     2840    1              AREA_FILE,':" IS ASSOCIATED WITH THIS AREA.');
      348     2841    1       ELSE
      349     2842    1           ER.PRINT25.P_SECOND='NO SECONDARY KEY FILE ASSOCIATED WITH THIS AREA.';

   2842  4 001106   040000 100400                    MLR     fill='040'O
         4 001107   000074 000060 3                  ADSC9   60                       cn=0,n=48
         4 001110   000403 000106 0                  ADSC9   ER+239                   cn=0,n=70

      350     2843    1       RETURN;

   2843  4 001111   000000 702200 xent               TSX2  ! X66_ARET

      351     2844        /****/
      352     2845    1   EXECUTION_OUTPUT: ENTRY; /* DO CALLS TO SYS_FUNC_WRIT */

   2845  4 001112   000000 700200 xent  EXECUTION_O* TSX0  ! X66_AUTO_0
         4 001113   000014 000000                    ZERO    12,0

      353     2846        /****/
      354     2847    1       P$=ADDR(ER);

   2847  4 001114   000050 236000 5                  LDQ     40
         4 001115   000023 756000 0                  STQ     P$

      355     2848    1       DCBSF = DCBNUM(M$LO);

   2848  4 001116   000000 236007 xsym               LDQ     M$LO,DL
         4 001117   000000 620006                    EAX0    0,QL
         4 001120   000000 740000 xsym               STX0    DCBSF

      356     2849    1       V1=0; /* KEEP TRACK # OF ALTKEYS PRINTED WHEN INDEX AREA */
PL6.E3A0      #001=EXCTN_REPRT_SETUP File=ZIU$Q2ER.:ZIC0TSI                      FRI 09/05/97 13:21 Page:50

   2849  4 001121   000011 450000 0                  STZ     V1

      357     2850    2       DO WHILE(P_CNT ~= 0);

   2850  4 001122   000023 470400 0                  LDP0    P$
         4 001123   000100 100500                    MLR     fill='000'O
         4 001124   000000 000001                    ADSC9   0,,PR0                   cn=0,n=1
         4 001125   200010 000004                    ADSC9   @INDX+2,,AUTO            cn=0,n=4
         4 001126   200010 236100                    LDQ     @INDX+2,,AUTO
         4 001127   000033 732000                    QRS     27
         4 001130   000000 116003                    CMPQ    0,DU
         4 001131   001330 600000 4                  TZE     s:2880

      358     2851    2           IF BREAK_FLAG>0 THEN RETURN;

   2851  4 001132   000000 235000 xsym               LDA     BREAK_FLAG
         4 001133   001135 604400 4                  TMOZ    s:2852

   2851  4 001134   000000 702200 xent               TSX2  ! X66_ARET

      359     2852    2           V2=P_CNT;

   2852  4 001135   000023 470400 0                  LDP0    P$
         4 001136   000100 100500                    MLR     fill='000'O
         4 001137   000000 000001                    ADSC9   0,,PR0                   cn=0,n=1
         4 001140   200010 000004                    ADSC9   @INDX+2,,AUTO            cn=0,n=4
         4 001141   200010 236100                    LDQ     @INDX+2,,AUTO
         4 001142   000033 732000                    QRS     27
         4 001143   000012 756000 0                  STQ     V2

      360     2853    2           IF V2<0 THEN

   2853  4 001144   001160 605000 4                  TPL     s:2855

      361     2854    2               P_CNT=-1*P_CNT; /* RESET DONT PRINT FLAG */

PL6.E3A0      #001=EXCTN_REPRT_SETUP File=ZIU$Q2ER.:ZIC0TSI                      FRI 09/05/97 13:21 Page:51
   2854  4 001145   000100 100500                    MLR     fill='000'O
         4 001146   000000 000001                    ADSC9   0,,PR0                   cn=0,n=1
         4 001147   200011 000004                    ADSC9   @INDX+3,,AUTO            cn=0,n=4
         4 001150   200011 236100                    LDQ     @INDX+3,,AUTO
         4 001151   000033 732000                    QRS     27
         4 001152   000041 676000 5                  ERQ     33
         4 001153   000001 036007                    ADLQ    1,DL
         4 001154   200010 756100                    STQ     @INDX+2,,AUTO
         4 001155   000100 101500                    MRL     fill='000'O
         4 001156   200010 000004                    ADSC9   @INDX+2,,AUTO            cn=0,n=4
         4 001157   000000 000001                    ADSC9   0,,PR0                   cn=0,n=1

      362     2855    2           BUFLNSF=P_CNT-1;

   2855  4 001160   000100 100500                    MLR     fill='000'O
         4 001161   000000 000001                    ADSC9   0,,PR0                   cn=0,n=1
         4 001162   200010 000004                    ADSC9   @INDX+2,,AUTO            cn=0,n=4
         4 001163   200010 236100                    LDQ     @INDX+2,,AUTO
         4 001164   000033 732000                    QRS     27
         4 001165   000001 136007                    SBLQ    1,DL
         4 001166   000000 756000 xsym               STQ     BUFLNSF

      363     2856    2           BUFSF=VECTOR(PINCRC(P$,1)->CV1);

   2856  4 001167   000011 235000 0                  LDA     V1
         4 001170   000020 735000                    ALS     16
         4 001171   000140 135007                    SBLA    96,DL
         4 001172   000023 236000 0                  LDQ     P$
         4 001173   200000 036007                    ADLQ    65536,DL
         4 001174   000000 755000 xsym               STA     BUFSF
         4 001175   000001 756000 xsym               STQ     BUFSF+1

      364     2857    2           P$=PINCRC(P$,P_CNT);

   2857  4 001176   000100 100500                    MLR     fill='000'O
         4 001177   000000 000001                    ADSC9   0,,PR0                   cn=0,n=1
         4 001200   200010 000004                    ADSC9   @INDX+2,,AUTO            cn=0,n=4
PL6.E3A0      #001=EXCTN_REPRT_SETUP File=ZIU$Q2ER.:ZIC0TSI                      FRI 09/05/97 13:21 Page:52
         4 001201   200010 236100                    LDQ     @INDX+2,,AUTO
         4 001202   000033 732000                    QRS     27
         4 001203   000020 736000                    QLS     16
         4 001204   000023 036000 0                  ADLQ    P$
         4 001205   000023 756000 0                  STQ     P$

      365     2858    2           IF V2>0 THEN

   2858  4 001206   000012 235000 0                  LDA     V2
         4 001207   001213 604400 4                  TMOZ    s:2860

      366     2859    2               CALL SYS_FUNC_WRIT;

   2859  4 001210   000016 631400 5                  EPPR1   14
         4 001211   000000 701000 xent               TSX1    SYS_FUNC_WRIT
         4 001212   000000 011000                    NOP     0

      367     2860    2           IF ER.PRINT21.P_PTR_SIZE='0' AND P$=ADDR(ER.PRINT10) THEN

   2860  4 001213   000341 236000 0                  LDQ     ER+205
         4 001214   777000 376007                    ANQ     -512,DL
         4 001215   060000 116007                    CMPQ    24576,DL
         4 001216   001224 601000 4                  TNZ     s:2862
         4 001217   000051 236000 5                  LDQ     41
         4 001220   000023 116000 0                  CMPQ    P$
         4 001221   001224 601000 4                  TNZ     s:2862

      368     2861    2               P$=ADDR(ER.INDX1); /* SWITHC TO PRINT INDEX ATTR */

   2861  4 001222   000052 236000 5                  LDQ     42
         4 001223   000023 756000 0                  STQ     P$

      369     2862    2           IF P$=ADDR(ER.INDX45) AND V1<VLP_ALTKEYS.SIZ# THEN

   2862  4 001224   000053 236000 5                  LDQ     43
         4 001225   000023 116000 0                  CMPQ    P$
         4 001226   001320 601000 4                  TNZ     s:2879
PL6.E3A0      #001=EXCTN_REPRT_SETUP File=ZIU$Q2ER.:ZIC0TSI                      FRI 09/05/97 13:21 Page:53
         4 001227   000011 236000 0                  LDQ     V1
         4 001230   001233 604000 4                  TMI     s:2864
         4 001231   000000 116000 xsym               CMPQ    VLP_ALTKEYS
         4 001232   001320 603000 4                  TRC     s:2879

      370     2863    3           DO;

      371     2864    3               P$=ADDR(ER.INDX4); /* LOOP THRU ALTKEY */

   2864  4 001233   000054 236000 5                  LDQ     44
         4 001234   000023 756000 0                  STQ     P$

      372     2865    3               CALL BINCHAR(ER.INDX4.P_OFFSET,VLP_ALTKEYS.K.KEYX#(V1));

   2865  4 001235   000011 720000 0                  LXL0    V1
         4 001236   000001 236010 xsym               LDQ     VLP_ALTKEYS+1,X0
         4 001237   777777 376007                    ANQ     -1,DL
         4 001240   000000 235003                    LDA     0,DU
         4 001241   200010 757100                    STAQ    @INDX+2,,AUTO
         4 001242   000000 301500                    BTD
         4 001243   200010 000010                    NDSC9   @INDX+2,,AUTO            cn=0,s=lsgnf,sf=0,n=8
         4 001244   000462 230007 0                  NDSC9   ER+286                   cn=1,s=nosgn,sf=0,n=7

      373     2866    3               CALL ZERO_SUP(ER.INDX4.P_OFFSET,LENGTHC(ER.INDX4.P_OFFSET),'0'B);

   2866  4 001245   000025 630400 5                  EPPR0   21
         4 001246   000000 631400 5                  EPPR1   0
         4 001247   000000 701000 xent               TSX1    ZERO_SUP
         4 001250   000000 011000                    NOP     0

      374     2867    3               CALL BINCHAR(ER.INDX4.P_LENGTH,VLP_ALTKEYS.K.KEYL#(V1));

   2867  4 001251   000011 720000 0                  LXL0    V1
         4 001252   000001 236010 xsym               LDQ     VLP_ALTKEYS+1,X0
         4 001253   000022 772000                    QRL     18
         4 001254   000777 376007                    ANQ     511,DL
         4 001255   000000 235003                    LDA     0,DU
PL6.E3A0      #001=EXCTN_REPRT_SETUP File=ZIU$Q2ER.:ZIC0TSI                      FRI 09/05/97 13:21 Page:54
         4 001256   200010 757100                    STAQ    @INDX+2,,AUTO
         4 001257   000000 301500                    BTD
         4 001260   200010 000010                    NDSC9   @INDX+2,,AUTO            cn=0,s=lsgnf,sf=0,n=8
         4 001261   000464 030011 0                  NDSC9   ER+288                   cn=0,s=nosgn,sf=0,n=9

      375     2868    3               CALL ZERO_SUP(ER.INDX4.P_LENGTH,LENGTHC(ER.INDX4.P_LENGTH),'0'B);

   2868  4 001262   000031 630400 5                  EPPR0   25
         4 001263   000000 631400 5                  EPPR1   0
         4 001264   000000 701000 xent               TSX1    ZERO_SUP
         4 001265   000000 011000                    NOP     0

      376     2869    3               IF VLP_ALTKEYS.K.UNIQUE#(V1) THEN

   2869  4 001266   000011 720000 0                  LXL0    V1
         4 001267   000001 234010 xsym               SZN     VLP_ALTKEYS+1,X0
         4 001270   001275 605000 4                  TPL     s:2872

      377     2870    3                   ER.INDX4.P_DUP='      NO';

   2870  4 001271   040000 100400                    MLR     fill='040'O
         4 001272   000030 000010 3                  ADSC9   24                       cn=0,n=8
         4 001273   000466 200010 0                  ADSC9   ER+290                   cn=1,n=8
         4 001274   001300 710000 4                  TRA     s:2873

      378     2871    3               ELSE
      379     2872    3                   ER.INDX4.P_DUP='      OK';

   2872  4 001275   040000 100400                    MLR     fill='040'O
         4 001276   000110 000010 3                  ADSC9   72                       cn=0,n=8
         4 001277   000466 200010 0                  ADSC9   ER+290                   cn=1,n=8

      380     2873    3               ER.INDX4.P_NAME=RECORD_LIST.NAME(V1+1);

   2873  4 001300   000011 235000 0                  LDA     V1
         4 001301   000005 735000                    ALS     5
         4 001302   040000 100405                    MLR     fill='040'O
PL6.E3A0      #001=EXCTN_REPRT_SETUP File=ZIU$Q2ER.:ZIC0TSI                      FRI 09/05/97 13:21 Page:55
         4 001303   000010 000036 xsym               ADSC9   RECORD_LIST+8,A          cn=0,n=30
         4 001304   000472 000037 0                  ADSC9   ER+294                   cn=0,n=31

      381     2874    3               V1=V1+1;

   2874  4 001305   000011 054000 0                  AOS     V1

      382     2875    3               CALL BINCHAR(ER.INDX4.P_TYP2.N,V1);

   2875  4 001306   000000 301400                    BTD
         4 001307   000011 000004 0                  NDSC9   V1                       cn=0,s=lsgnf,sf=0,n=4
         4 001310   000461 230004 0                  NDSC9   ER+285                   cn=1,s=nosgn,sf=0,n=4

      383     2876    3               CALL ZERO_SUP(ER.INDX4.P_TYP2.N,LENGTHC(ER.INDX4.P_TYP2.N),'0'B);

   2876  4 001311   000056 630400 5                  EPPR0   46
         4 001312   000000 631400 5                  EPPR1   0
         4 001313   000000 701000 xent               TSX1    ZERO_SUP
         4 001314   000000 011000                    NOP     0

      384     2877    3               ER.INDX4.P_TYP2.ALT='  ALT';

   2877  4 001315   040000 100400                    MLR     fill='040'O
         4 001316   000112 000005 3                  ADSC9   74                       cn=0,n=5
         4 001317   000460 000005 0                  ADSC9   ER+284                   cn=0,n=5

      385     2878    3               END;

      386     2879    2           END;

   2879  4 001320   000023 470400 0                  LDP0    P$
         4 001321   000100 100500                    MLR     fill='000'O
         4 001322   000000 000001                    ADSC9   0,,PR0                   cn=0,n=1
         4 001323   200010 000004                    ADSC9   @INDX+2,,AUTO            cn=0,n=4
         4 001324   200010 236100                    LDQ     @INDX+2,,AUTO
         4 001325   000033 732000                    QRS     27
         4 001326   000000 116003                    CMPQ    0,DU
PL6.E3A0      #001=EXCTN_REPRT_SETUP File=ZIU$Q2ER.:ZIC0TSI                      FRI 09/05/97 13:21 Page:56
         4 001327   001132 601000 4                  TNZ     s:2851

      387     2880    1   END EXCTN_REPRT_SETUP;

   2880  4 001330   000000 702200 xent               TSX2  ! X66_ARET

P1$
 Sect OctLoc
   0     014   000003 006000                                                    ....

P2$
 Sect OctLoc
   0     015   000006 006000                                                    ....

ER
 Sect OctLoc
   0     024   003120 040113   104104 101124   101040 102101   123105 040101    .P KDDATA BASE A
   0     030   124124 122111   102125 124105   040111 116106   117122 115101    TTRIBUTE INFORMA
   0     034   124111 117116   040106 117122   040101 122105   101040 ******    TION FOR AREA ..
   0     044*  ****** ******   ****** ******   ****** ******   ****** 050102    ..............(B
   0     050   104105 122111   126105 104040   106122 117115   040123 103110    DERIVED FROM SCH
   0     054   105115 101040   104115 103114   040104 101124   105040 ******    EMA DMCL DATE ..
   0     060   057*** ***057   ****** 103101   101122 105101   040*** ******    /../..CAAREA ...
   0     100*  ****** ******   ****** ******   ***071 101040   040040 040040    .........9A
   0     104   106111 114105   040116 101115   105040 111123   040123 105124    FILE NAME IS SET
   0     110   040124 117040   040040 040040   040040 040040   040040 040040     TO
   0     114   040040 040040   040040 040040   040040 040040   040040 040040
   0     120   040040 074101   040040 040040   040106 111114   105040 123111      <A     FILE SI
   0     124   132105 040111   123040 ******   ****** ******   ****** ******    ZE IS ..........
   0     134*  ****** ******   ****** ******   ****** ******   ****** 073102    ..............;B
   0     140   124110 105040   040101 122105   101040 101124   124122 111102    THE  AREA ATTRIB
   0     144   125124 105123   040111 116111   124111 101114   111132 105104    UTES INITIALIZED
   0     150   040117 116040   ****** ******   ****** ******   ****** ******     ON ............
   0     154   ****** ******   040101 122105   072050 101040   040040 040040    .... ARE:(A
   0     160   116125 115102   105122 040117   106040 104101   124101 040120    NUMBER OF DATA P
   0     164   101107 105123   072040 040***   ****** ******   ****** ******    AGES:  .........
   0     170   ***055 101040   040040 040040   116125 115102   105122 040117    .-A     NUMBER O
PL6.E3A0      #001=EXCTN_REPRT_SETUP File=ZIU$Q2ER.:ZIC0TSI                      FRI 09/05/97 13:21 Page:57
   0     174   106040 111116   126105 116124   117122 131040   120101 107105    F INVENTORY PAGE
   0     200   123072 040040   ****** ******   ****** ******   ****** 062101    S:  ..........2A
   0     204   040040 040040   040111 116126   105116 124117   122131 040120         INVENTORY P
   0     210   101107 105040   122101 116107   105072 040040   040040 040040    AGE RANGE:
   0     214   040040 040040   040040 040040   040040 040040   040040 040040
   0     220   042101 040040   040040 040111   116126 105116   124117 122131    "A     INVENTORY
   0     224   040120 105122   103105 116124   101107 105072   040040 ******     PERCENTAGE:  ..
   0     230   ****** 054101   040040 040040   040116 125115   102105 122040    ..,A     NUMBER
   0     234   117106 040104   101124 101040   102101 123105   040113 105131    OF DATA BASE KEY
   0     240   123072 040040   ****** ******   ****** ******   ****** 052101    S:  ..........*A
   0     244   040040 040040   040116 125115   102105 122040   117106 040103         NUMBER OF C
   0     250   101114 103040   110105 101104   105122 123072   040040 ******    ALC HEADERS:  ..
   0     254   ****** ******   ****** ******   061101 040040   040040 040104    ........1A     D
   0     260   101124 101040   102101 123105   040113 105131   040122 101116    ATA BASE KEY RAN
   0     264   107105 072040   040*** ******   ****** ******   ****** ******    GE:  ...........
   0     270   ****** ******   ****** ******   ***053 101040   040040 040040    .........+A
   0     274   104101 124101   040102 101123   105040 113105   131123 040120    DATA BASE KEYS P
   0     300   105122 040120   101107 105072   040040 ******   ****** ******    ER PAGE:  ......
   0     304   ****** ******   062101 040040   040040 040104   101124 101040    ....2A     DATA
   0     310   102101 123105   040113 105131   123040 120105   122040 103101    BASE KEYS PER CA
   0     314   114103 040110   105101 104105   122072 040040   ****** ******    LC HEADER:  ....
   0     320   ****** ******   ****** 044101   040040 040040   040107 114117    ......$A     GLO
   0     324   102101 114040   120117 111116   124105 122040   123111 132105    BAL POINTER SIZE
   0     330   072040 040***   040102 131124   105123 043101   040040 040040    :  . BYTES#A
   0     334   040114 117103   101114 040120   117111 116124   105122 040123     LOCAL POINTER S
   0     340   111132 105072   040040 ***040   102131 124105   123050 101040    IZE:  . BYTES(A
   0     344   040040 040040   124110 111123   040101 122105   101040 111123        THIS AREA IS
   0     350   040*** ******   ****** ******   ****** ******   ****** ******     ...............
   0     354   ****** ******   ***050 101040   040040 040040   040040 040040    .....(A
   0     360   040040 040040   040040 111123   040*** ******   ****** ******          IS .......
   0     364   ****** ******   ****** ******   ****** ******   ***050 101040    .............(A
   0     370   040040 040040   040040 040040   040040 040040   040040 111123                  IS
   0     374   040*** ******   ****** ******   ****** ******   ****** ******     ...............
   0     400   ****** ******   ***115 103040   040040 040040   ****** ******    .....MC     ....
   0     424*  ****** 000063   101040 040040   040040 113105   131040 040124    ...3A     KEY  T
   0     430   131120 105040   040040 117106   106123 105124   040040 040114    YPE   OFFSET   L
   0     434   105116 107124   110040 040040   104125 120040   040101 116104    ENGTH   DUP  AND
PL6.E3A0      #001=EXCTN_REPRT_SETUP File=ZIU$Q2ER.:ZIC0TSI                      FRI 09/05/97 13:21 Page:58
   0     440   040040 116101   115105 063101   040040 040040   040040 040040      NAME3A
   0     444   040040 055055   055055 040040   040055 055055   055055 055040      ----   ------
   0     450   040040 055055   055055 055055   040040 040055   055055 040040      ------   ---
   0     454   040040 040040   040055 055055   055116 101040   040040 040040         ----NA
   0     470*  ***040 040040   040040 040040   ****** ******   ****** ******    .       ........
   0     500*  ****** ******   ****** ***003   101040 042103   040040 040040    ........A "C
   0     504   040124 110111   123040 101122   105101 040111   123040 116117     THIS AREA IS NO
   0     510   124040 105116   103122 131120   124105 104056   000*** ******    T ENCRYPTED.....

(unnamed)
 Sect OctLoc
   3     000   124105 115120   117122 101122   131040 040040   120105 122115    TEMPORARY   PERM
   3     004   101116 105116   124040 040040   040111 123040   101040 122101    ANENT    IS A RA
   3     010   116104 117115   040040 040040   106111 114105   040107 122101    NDOM    FILE GRA
   3     014   116125 114105   123056 040040   040111 123040   101116 040111    NULES.   IS AN I
   3     020   116104 105130   105104 040040   111116 111124   111101 114114    NDEXED  INITIALL
   3     024   131040 040040   040040 120122   111115 101122   131040 040040    Y     PRIMARY
   3     030   040040 040040   040040 116117   105116 103122   131120 124105          NOENCRYPTE
   3     034   104056 040040   116117 124040   105116 103122   131120 124105    D.  NOT ENCRYPTE
   3     040   104056 040040   055116 117116   105055 040040   103110 105103    D.  -NONE-  CHEC
   3     044   113123 125115   115105 104040   116117 124040   103110 105103    KSUMMED NOT CHEC
   3     050   113123 125115   115105 104040   124105 115120   114101 124105    KSUMMED TEMPLATE
   3     054   116117 124040   124105 115120   114101 124105   123105 103117    NOT TEMPLATESECO
   3     060   116104 101122   131040 113105   131040 106111   114105 040042    NDARY KEY FILE "
   3     064   072042 040111   123040 101123   123117 103111   101124 105104    :" IS ASSOCIATED
   3     070   040127 111124   110040 124110   111123 040101   122105 101056     WITH THIS AREA.
   3     074   116117 040123   105103 117116   104101 122131   040113 105131    NO SECONDARY KEY
   3     100   040106 111114   105040 101123   123117 103111   101124 105104     FILE ASSOCIATED
   3     104   040127 111124   110040 124110   111123 040101   122105 101056     WITH THIS AREA.
   3     110   040040 040040   040040 117113   040040 101114   124040 040040          OK  ALT

(unnamed)
 Sect OctLoc
   5     000   000003 000000   000000 000012   400000 000000   000002 006000    ................
   5     004   000001 006000   040040 040040   000234 206000   000000 006003    ....    ........
   5     010   000010 200000   042040 040040   000002 377640   000152 406000    ...."   .....j..
   5     014   000002 577640   000000 006000   000000 000000   000012 006000    ................
PL6.E3A0      #001=EXCTN_REPRT_SETUP File=ZIU$Q2ER.:ZIC0TSI                      FRI 09/05/97 13:21 Page:59
   5     020   000006 006000   000000 000000   000000 177640   000000 006014    ................
   5     024   000000 000007   000462 206000   000024 006000   000016 006000    ................
   5     030   000000 000011   000464 006000   000030 006000   000016 006000    ................
   5     034   000011 006000   000003 006000   045040 040040   055040 040040    ........%   -
   5     040   000201 006000   777777 777777   000165 606000   000241 006000    .........u......
   5     044   000013 006000   000253 406000   000302 406000   000317 006000    ................
   5     050   000024 006000   000156 206000   000424 606000   000501 606000    .....n..........
   5     054   000456 206000   000000 000004   000461 206000   000055 006000    .............-..
   5     060   000016 006000                                                    ....

PL6.E3A0      #001=EXCTN_REPRT_SETUP File=ZIU$Q2ER.:ZIC0TSI                      FRI 09/05/97 13:21 Page:60
--  Include file information  --

   ZI$PG_STRUCTS.:ZIC0TOU  is referenced.
   ZI_GLOBAL_DBUTIL.:ZIC0TOU  is referenced.
   ZI_UWA_C.:ZIC0TOU  is referenced.
   ZI$DIR.:ZIC0TOU  is referenced.
   CP_6_SUBS.:LIB_E05  is referenced.
   CP_6.:LIB_E05  cannot be made into a system file and is referenced.
   B$JIT_C.:E05TOU  was found in the system file and is never referenced.
   CP_6_C.:E05TOU  was found in the system file and is referenced.
      No diagnostics issued in procedure EXCTN_REPRT_SETUP.

   Procedure EXCTN_REPRT_SETUP requires 729 words for executable code.
   Procedure EXCTN_REPRT_SETUP requires 12 words of local(AUTO) storage.

    No errors detected in file ZIU$Q2ER.:ZIC0TSI    .
PL6.E3A0      #001=EXCTN_REPRT_SETUP File=ZIU$Q2ER.:ZIC0TSI                      FRI 09/05/97 13:21 Page:61
          *** CROSS REFERENCE LISTING ***
**     DENOTES     IDENTIFIER DEFINITION
<<                 IDENTIFIER'S VALUE SET
>>                 IDENTIFIER'S VALUE USED
<>                 IDENTIFIER SET AND/OR USED
--                 IDENTIFIER REFERENCED
PL6.E3A0      #001=EXCTN_REPRT_SETUP File=ZIU$Q2ER.:ZIC0TSI                      FRI 09/05/97 13:21 Page:62
          MINI XREF LISTING

AREA_DCB
        27**DCL      2713>>IF       2727>>CALLBLT  2742>>CALLBLT
AREA_DCB$
        26**DCL        27--IMP-PTR  2706<<ASSIGN   2713>>IF       2727>>CALLBLT  2742>>CALLBLT
AREA_DCB_SIZE
        25**DCL        27--IMP-SIZ  2705<<CALLBLT  2713>>IF       2727>>CALLBLT  2742>>CALLBLT
AREA_FILE
        29**DCL      2713>>IF       2716>>CALLBLT  2839>>CALLBLT
AREA_FILE$
        28**DCL        29--IMP-PTR  2708<<ASSIGN   2713>>IF       2716>>CALLBLT  2839>>CALLBLT
AREA_FILE_SIZE
        30**DCL        29--IMP-SIZ  2707<<ASSIGN   2713>>IF       2716>>CALLBLT  2839>>CALLBLT
ATBLK$
      2564**DCL      2565--IMP-PTR  2728>>ASSIGN   2731>>ASSIGN   2764>>IF       2766>>ASSIGN   2769>>ASSIGN
      2771>>ASSIGN   2774>>ASSIGN   2775>>ASSIGN   2780>>ASSIGN   2788>>ASSIGN   2788>>ASSIGN   2790>>ASSIGN
      2791>>ASSIGN   2795>>ASSIGN   2796>>ASSIGN   2797>>ASSIGN   2817>>ASSIGN   2826>>IF       2838>>IF
ATBLK_PG.AREA_NM
      2590**DCL      2591--REDEF
ATBLK_PG.CALC_INFO.IDB
      2582**DCL      2797>>ASSIGN
ATBLK_PG.DATE_INIT
      2592**DCL      2728--ASSIGN
ATBLK_PG.DB_INFO.DBK_SZ
      2575**DCL      2817>>ASSIGN
ATBLK_PG.DB_INFO.PRCNT_INV
      2576**DCL      2764>>IF       2766>>ASSIGN
ATBLK_PG.FIR_INV_PGNO
      2587**DCL      2769>>ASSIGN   2774>>ASSIGN
ATBLK_PG.HIGH_DBK
      2589**DCL      2788>>ASSIGN   2790>>ASSIGN   2795>>ASSIGN
ATBLK_PG.LINE_INFO.LPP
      2585**DCL      2796>>ASSIGN
PL6.E3A0      #001=EXCTN_REPRT_SETUP File=ZIU$Q2ER.:ZIC0TSI                      FRI 09/05/97 13:21 Page:63
ATBLK_PG.LOW_DBK
      2588**DCL      2788>>ASSIGN   2791>>ASSIGN
ATBLK_PG.MISC_INFO.CHKSM
      2595**DCL      2826>>IF
ATBLK_PG.MISC_INFO.KEY_FILE_BLT
      2594**DCL      2838>>IF
ATBLK_PG.NUM_DBPG
      2572**DCL      2731>>ASSIGN   2771>>ASSIGN   2775>>ASSIGN   2780>>ASSIGN
ATBLK_PG.STATUS
      2599**DCL      2607--REDEF
BIN_CHAR
      2692**PROC     2732--CALL     2748--CALL     2767--CALL     2770--CALL     2772--CALL     2776--CALL
      2787--CALL     2789--CALL     2792--CALL     2793--CALL     2813--CALL     2815--CALL     2816--CALL
BREAK_FLAG
      2454**DCL      2851>>IF
BUF1
        16**DCL        21--DCLINIT  2722<<ASSIGN   2724<<ASSIGN   2727>>CALLBLT  2742>>CALLBLT  2767<>CALL
      2770<>CALL     2792<>CALL
BUF2
        17**DCL        22--DCLINIT  2732<>CALL     2748<>CALL     2772<>CALL     2793<>CALL
BUFLNSF
      2345**DCL      2855<<ASSIGN
BUFSF
      2346**DCL      2856<<ASSIGN
CHAR10 IN PROCEDURE BIN_CHAR
      2694**DCL      2692--PROC     2697<<CALLBLT  2698<>CALL     2699>>CALLBLT
COUNTSF
      2396**DCL      2397--REDEF
CV1
        23**DCL      2768>>CALLBLT  2773>>CALLBLT  2794>>CALLBLT  2856--ASSIGN
CV2
        24**DCL      2733>>CALLBLT  2749>>CALLBLT  2773>>CALLBLT  2794>>CALLBLT
DATESF
      2349**DCL      2719<<ASSIGN
DCBSF
      2325**DCL      2707--ASSIGN   2708--ASSIGN   2848<<ASSIGN
PL6.E3A0      #001=EXCTN_REPRT_SETUP File=ZIU$Q2ER.:ZIC0TSI                      FRI 09/05/97 13:21 Page:64
DESTSF
      2348**DCL      2718<<ASSIGN
ENCRP_SEEDSF
      2354**DCL      2355--REDEF
ER
        34**DCL      2847--ASSIGN
ER.INDX1
       153**DCL       154--DCLINIT  2861--ASSIGN
ER.INDX3
       157**DCL       158--DCLINIT
ER.INDX4
       161**DCL       162--DCLINIT  2864--ASSIGN
ER.INDX4.P_DUP
       171**DCL      2751<<ASSIGN   2870<<ASSIGN   2872<<ASSIGN
ER.INDX4.P_LENGTH
       170**DCL      2755<<CALLBLT  2756<>CALL     2756--CALL     2867<<CALLBLT  2868<>CALL     2868--CALL
ER.INDX4.P_NAME
       173**DCL      2752<<ASSIGN   2873<<ASSIGN
ER.INDX4.P_OFFSET
       169**DCL      2753<<CALLBLT  2754<>CALL     2754--CALL     2865<<CALLBLT  2866<>CALL     2866--CALL
ER.INDX4.P_TYP2.ALT
       167**DCL      2877<<ASSIGN
ER.INDX4.P_TYP2.N
       168**DCL      2875<<CALLBLT  2876<>CALL     2876--CALL
ER.INDX4.P_TYPE
       165**DCL       166--REDEF    2750<<ASSIGN
ER.INDX45
       174**DCL       175--DCLINIT  2862--IF
ER.INDX5
       177**DCL       178--DCLINIT
ER.INDX5.P_ENCRP
       181**DCL      2758<<ASSIGN   2760<<ASSIGN
ER.PRINT10
        74**DCL        75--DCLINIT  2860--IF
ER.PRINT10.P_PAGE
        78**DCL      2787<>CALL
PL6.E3A0      #001=EXCTN_REPRT_SETUP File=ZIU$Q2ER.:ZIC0TSI                      FRI 09/05/97 13:21 Page:65
ER.PRINT11
        79**DCL        80--DCLINIT
ER.PRINT11.P_PAGE
        83**DCL      2776<>CALL     2782<<ASSIGN
ER.PRINT13
        84**DCL        85--DCLINIT
ER.PRINT13.CNT
        85**DCL      2783<<ASSIGN   2783>>ASSIGN
ER.PRINT13.P_RANGE
        88**DCL      2773<<CALLBLT
ER.PRINT14
        89**DCL        90--DCLINIT
ER.PRINT14.CNT
        90**DCL      2784<<ASSIGN   2784>>ASSIGN
ER.PRINT14.INV_PER_CENT
        93**DCL      2768<<CALLBLT
ER.PRINT15
        94**DCL        95--DCLINIT
ER.PRINT15.P_KEY
        98**DCL      2789<>CALL
ER.PRINT16
        99**DCL       100--DCLINIT
ER.PRINT16.P_HEADER
       103**DCL      2800<<ASSIGN   2813<>CALL
ER.PRINT17
       104**DCL       105--DCLINIT
ER.PRINT17.P_RANGE
       108**DCL      2794<<CALLBLT
ER.PRINT18
       109**DCL       110--DCLINIT
ER.PRINT18.P_KEY
       113**DCL      2815<>CALL
ER.PRINT19
       114**DCL       115--DCLINIT
ER.PRINT19.P_KEY
       118**DCL      2816<>CALL
PL6.E3A0      #001=EXCTN_REPRT_SETUP File=ZIU$Q2ER.:ZIC0TSI                      FRI 09/05/97 13:21 Page:66
ER.PRINT2
        38**DCL        39--DCLINIT
ER.PRINT2.P_AREA
        42**DCL      2712<<ASSIGN
ER.PRINT20
       119**DCL       120--DCLINIT
ER.PRINT20.P_PTR_SIZE
       123**DCL      2818<<CALLBLT
ER.PRINT21
       125**DCL       126--DCLINIT
ER.PRINT21.P_PTR_SIZE
       129**DCL      2761<<ASSIGN   2820<<ASSIGN   2823<<ASSIGN   2825<<ASSIGN   2860>>IF
ER.PRINT22
       131**DCL       132--DCLINIT
ER.PRINT22.P_CHKSUM
       135**DCL      2827<<ASSIGN   2829<<ASSIGN
ER.PRINT23
       136**DCL       137--DCLINIT
ER.PRINT23.P_ENCRP
       140**DCL      2831<<ASSIGN   2833<<ASSIGN
ER.PRINT24
       141**DCL       142--DCLINIT
ER.PRINT24.P_TEMPL
       145**DCL      2835<<ASSIGN   2837<<ASSIGN
ER.PRINT25
       146**DCL       147--DCLINIT
ER.PRINT25.P_SECOND
       150**DCL      2839<<CALLBLT  2842<<ASSIGN
ER.PRINT3
        43**DCL        44--DCLINIT
ER.PRINT3.DAY
        49**DCL      2711<<ASSIGN
ER.PRINT3.MON
        47**DCL      2710<<ASSIGN
ER.PRINT3.YEAR
        51**DCL      2709<<ASSIGN
PL6.E3A0      #001=EXCTN_REPRT_SETUP File=ZIU$Q2ER.:ZIC0TSI                      FRI 09/05/97 13:21 Page:67
ER.PRINT4
        52**DCL        53--DCLINIT
ER.PRINT4.P_AREA
        56**DCL      2727<<CALLBLT  2742<<CALLBLT
ER.PRINT45
        57**DCL        58--DCLINIT  2714--ASSIGN
ER.PRINT45.CNT
        58**DCL      2714<<ASSIGN
ER.PRINT45.P_AREA
        61**DCL      2716<<CALLBLT
ER.PRINT5
        62**DCL        63--DCLINIT
ER.PRINT5.P_GRAN
        66**DCL      2733<<CALLBLT  2749<<CALLBLT
ER.PRINT9
        67**DCL        68--DCLINIT
ER.PRINT9.DATE
        72**DCL      2719--ASSIGN
ER.PRINT9.TIME
        71**DCL      2730<<ASSIGN   2741<<ASSIGN
ERRCODESF
      2356**DCL      2361--REDEF
F$DCB.ACTPOS
      2667**DCL      2667--REDEF
F$DCB.ARS#
      2641**DCL      2641--REDEF
F$DCB.ATTR
      2660**DCL      2661--REDEF
F$DCB.BORROW
      2675**DCL      2675--REDEF    2675--REDEF    2675--REDEF
F$DCB.DCBNAME.L
      2689**DCL      2689--IMP-SIZ
F$DCB.EOMCHAR#
      2645**DCL      2645--REDEF
F$DCB.FLDID
      2670**DCL      2670--REDEF
PL6.E3A0      #001=EXCTN_REPRT_SETUP File=ZIU$Q2ER.:ZIC0TSI                      FRI 09/05/97 13:21 Page:68
F$DCB.FORM$
      2664**DCL      2664--REDEF
F$DCB.FSECT
      2680**DCL      2680--REDEF
F$DCB.FSN#
      2657**DCL      2657--REDEF    2657--REDEF    2658--REDEF
F$DCB.HEADER$
      2663**DCL      2663--REDEF
F$DCB.IXTNSIZE#
      2661**DCL      2661--REDEF
F$DCB.LASTSTA$
      2650**DCL      2650--REDEF
F$DCB.LVL
      2676**DCL      2676--REDEF
F$DCB.NAME#.C
      2651**DCL      2651--REDEF    2708--ASSIGN
F$DCB.NAME#.L
      2651**DCL      2707>>ASSIGN
F$DCB.NOEOF
      2673**DCL      2673--REDEF
F$DCB.NRECS#
      2662**DCL      2662--REDEF
F$DCB.NRECX
      2681**DCL      2681--REDEF
F$DCB.OHDR
      2673**DCL      2673--REDEF
F$DCB.ORG#
      2656**DCL      2656--REDEF
F$DCB.PRECNO
      2679**DCL      2679--REDEF
F$DCB.RCSZ
      2685**DCL      2685--REDEF
F$DCB.RES#
      2652**DCL      2652--REDEF
F$DCB.SETX
      2664**DCL      2664--REDEF
PL6.E3A0      #001=EXCTN_REPRT_SETUP File=ZIU$Q2ER.:ZIC0TSI                      FRI 09/05/97 13:21 Page:69
F$DCB.TAB$
      2664**DCL      2664--REDEF
F$DCB.TDA
      2678**DCL      2679--REDEF
F$DCB.WSN#
      2652**DCL      2652--REDEF
FIDSF_RD
      2372**DCL      2373--REDEF
FUNSF
      2336**DCL      2743<<ASSIGN
GET_FILESZ
        12**DCL-ENT  2746--CALL
HELPCODE
      2390**DCL      2395--REDEF
ICHKSUM
      2455**DCL      2456--REDEF
INDX IN PROCEDURE BIN_CHAR
      2695**DCL      2692--PROC     2697>>CALLBLT  2699<<CALLBLT
I_O_BUF$
      2433**DCL      2434--IMP-PTR
KEYLSF
      2323**DCL      2755>>CALLBLT
KEYVSF
      2328**DCL      2333--REDEF
KEYVSF.WD_ONE
      2330**DCL      2331--REDEF
KEYXSF
      2324**DCL      2753>>CALLBLT
M$LO
      2443**DCL      2848>>ASSIGN
MSGCODE
      2362**DCL      2363--REDEF
P$
        32**DCL        33--IMP-PTR  2847<<ASSIGN   2850>>DOWHILE  2852>>ASSIGN   2854>>ASSIGN   2854>>ASSIGN
      2855>>ASSIGN   2856>>ASSIGN   2857<<ASSIGN   2857>>ASSIGN   2857>>ASSIGN   2860>>IF       2861<<ASSIGN
      2862>>IF       2864<<ASSIGN
PL6.E3A0      #001=EXCTN_REPRT_SETUP File=ZIU$Q2ER.:ZIC0TSI                      FRI 09/05/97 13:21 Page:70
P1$
        21**DCL        23--IMP-PTR  2768>>CALLBLT  2773>>CALLBLT  2794>>CALLBLT
P2$
        22**DCL        24--IMP-PTR  2733>>CALLBLT  2749>>CALLBLT  2773>>CALLBLT  2794>>CALLBLT
P_CNT
        33**DCL      2850>>DOWHILE  2852>>ASSIGN   2854<<ASSIGN   2854>>ASSIGN   2855>>ASSIGN   2857>>ASSIGN
REC$
      2414**DCL      2437--IMP-PTR
RECORD_LIST.NAME
      1082**DCL      2752>>ASSIGN   2873>>ASSIGN
REC_DATA_LN
      2442**DCL      2441--IMP-SIZ
SOURCESF
      2347**DCL      2717<<ASSIGN   2738<<ASSIGN
SYS_FUNC_CLOS
        11**DCL-ENT  2745--CALL
SYS_FUNC_OPEN
        10**DCL-ENT  2744--CALL
SYS_FUNC_TSTAMP
         9**DCL-ENT  2729--CALL     2740--CALL
SYS_FUNC_WRIT
         8**DCL-ENT  2859--CALL
TIMBUF
        13**DCL      2720--ASSIGN
TIMBUF.HOUR_MIN
        14**DCL      2730>>ASSIGN   2741>>ASSIGN
TIMESF
      2350**DCL      2720<<ASSIGN
TOT_DBK
        31**DCL      2795<<ASSIGN   2811>>ASSIGN   2819>>IF       2822>>IF
TSTAMPSF
      2353**DCL      2728<<ASSIGN   2739<<ASSIGN
UWA.AC_REC.BASE_DBK
      1894**DCL      2795>>ASSIGN
UWA.AC_REC.CALC_NEXT
      1913**DCL      1914--REDEF
PL6.E3A0      #001=EXCTN_REPRT_SETUP File=ZIU$Q2ER.:ZIC0TSI                      FRI 09/05/97 13:21 Page:71
UWA.AC_REC.CALC_NULL
      1893**DCL      2799>>IF
UWA.AC_REC.CALC_PRIOR
      1922**DCL      1923--REDEF
UWA.AC_REC.DEFAULTS
      1871**DCL      1872--REDEF
UWA.AC_REC.FILE_CODE
      1876**DCL      1877--REDEF
UWA.AC_REC.FLAG1.ERROR_TYPE
      1873**DCL      1874--REDEF
UWA.AC_REC.PERMTYPE
      1887**DCL      2721>>IF
UWA.AC_REC.PG_TYPE
      1888**DCL      1889--REDEF    2725>>IF       2736>>IF       2736>>IF
UWA.AC_REC.SWS.ENCRYP
      1879**DCL      2757>>IF       2830>>IF
UWA.AC_REC.SWS.TEMPLAT
      1881**DCL      2834>>IF
UWA.AD_REC.ADDATE
      1853**DCL      1854--REDEF
UWA.AD_REC.ADDATE_RD
      1854**DCL      2709>>ASSIGN   2710>>ASSIGN   2711>>ASSIGN
V1
        18**DCL        23--IMP-SIZ  2766<<ASSIGN   2767<>CALL     2768>>CALLBLT  2769<<ASSIGN   2770<>CALL
      2773>>CALLBLT  2774<<ASSIGN   2775>>ASSIGN   2780<<ASSIGN   2786>>ASSIGN   2787<>CALL     2788<<ASSIGN
      2789<>CALL     2790<<ASSIGN   2792<>CALL     2794>>CALLBLT  2796<<ASSIGN   2803>>IF       2804>>IF
      2805>>ASSIGN   2807>>ASSIGN   2810>>ASSIGN   2811>>ASSIGN   2815<>CALL     2817<<ASSIGN   2818>>CALLBLT
      2849<<ASSIGN   2856>>ASSIGN   2862>>IF       2865>>CALLBLT  2867>>CALLBLT  2869>>IF       2873>>ASSIGN
      2874<<ASSIGN   2874>>ASSIGN   2875>>CALLBLT
V2
        19**DCL        24--IMP-SIZ  2731<<ASSIGN   2732<>CALL     2733>>CALLBLT  2747<<ASSIGN   2748<>CALL
      2749>>CALLBLT  2771<<ASSIGN   2772<>CALL     2773>>CALLBLT  2775<<ASSIGN   2776<>CALL     2781<<ASSIGN
      2791<<ASSIGN   2793<>CALL     2794>>CALLBLT  2797<<ASSIGN   2803>>IF       2804>>IF       2805>>ASSIGN
      2807>>ASSIGN   2810>>ASSIGN   2811>>ASSIGN   2811>>ASSIGN   2816<>CALL     2852<<ASSIGN   2853>>IF
      2858>>IF
V3
PL6.E3A0      #001=EXCTN_REPRT_SETUP File=ZIU$Q2ER.:ZIC0TSI                      FRI 09/05/97 13:21 Page:72
        20**DCL      2786<<ASSIGN   2804>>IF       2805<<ASSIGN   2805>>ASSIGN   2807<<ASSIGN   2807>>ASSIGN
      2810<<ASSIGN   2810>>ASSIGN   2811<<ASSIGN   2811>>ASSIGN   2813<>CALL
VLP_ALTKEYS.K.KEYL#
      2631**DCL      2867>>CALLBLT
VLP_ALTKEYS.K.KEYX#
      2631**DCL      2865>>CALLBLT
VLP_ALTKEYS.K.UNIQUE#
      2630**DCL      2869>>IF
VLP_ALTKEYS.SIZ#
      2630**DCL      2862>>IF
XTENSIZESF
      2339**DCL      2747>>ASSIGN
ZERO_SUP
         7**DCL-ENT  2698--CALL     2754--CALL     2756--CALL     2866--CALL     2868--CALL     2876--CALL
ZI$DIR.ALTKEY
      1035**DCL      1036--REDEF    1037--REDEF
ZI$DIR.AREAFID
      1001**DCL      1002--REDEF
ZI$DIR.AREA_NM.NAME.TEXT
      1067**DCL      2705>>CALLBLT  2706--ASSIGN   2712>>ASSIGN
ZI$DIR.DATE
      1040**DCL      1044--REDEF
ZI$DIR.DEST_SEED
       996**DCL       997--REDEF     998--REDEF
ZI$DIR.ENCP_SEED
       993**DCL       994--REDEF     995--REDEF
ZI$DIR.REPRT_ZERO
      1027**DCL      1028--REDEF
ZI$DIR.SCHFID
       999**DCL      1000--REDEF
ZI$DIR.TIME
      1045**DCL      1050--REDEF
