PL6.E3A0      #002=CHK_NODE File=ZIU$Q2RP.:ZIC0TSI                               FRI 09/05/97 13:25 Page:228
     1141        1        /*T***********************************************************/
     1142        2        /*T*                                                         */
     1143        3        /*T* Copyright (c) Bull HN Information Systems Inc., 1997    */
     1144        4        /*T*                                                         */
     1145        5        /*T***********************************************************/
     1146        6        %EJECT;
PL6.E3A0      #002=CHK_NODE File=ZIU$Q2RP.:ZIC0TSI                               FRI 09/05/97 13:25 Page:229
     1147        7        /*M*   CHK_NODE     PARSER INTERPRTER FOR
     1148        8                            REPAIR COMMAND IN DBUTIL          */
     1149        9        CHK_NODE: PROC(NODE$) ALTRET;
     1150       10
     1151       11    1   DCL INDX SBIN;
     1152       12    1   DCL NODE$ PTR;
     1153       13    1   DCL JJJ SBIN SYMREF;
     1154       14    1   DCL KKK SBIN SYMREF;
     1155       15    1   DCL 1 PA_DBK(0:0) SYMREF,
     1156       16    1         2 FIR UBIN UNAL,
     1157       17    1         2 SEC UBIN UNAL;
     1158       18
     1159       19        %INCLUDE XU_MACRO_C;
     1160     3125
     1161     3126        %PARSE$OUT(NAME=OUT$BLK,STCLASS="BASED(NODE$)");
     1162     3171        %PARSE$SYM(NAME=OUT$SYM,STCLASS="BASED(NODE$)");
     1163     3209
     1164     3210        %INCLUDE ZI$DIR;
     1165     3367        %DIR;
     1166     3511
     1167     3512        %INCLUDE ZI_GLOBAL_DBUTIL;
     1168     3690        %MISC_DCLS;
     1169     3743
     1170     3744        %INCLUDE XU_SUBS_C;
     1171     3836        %INCLUDE ZI_PRSE_SUBS;
     1172     3992
     1173     3993    1   DCL PRINT_OPT UBIN BYTE SYMREF UNAL;
     1174     3994    1   DCL WALK_OPT UBIN BYTE SYMREF UNAL;
     1175     3995    1   DCL N_OR_P UBIN SYMREF;
     1176     3996    1   DCL R_CNT SBIN BYTE SYMREF UNAL;
     1177     3997    1   DCL S_CNT SBIN BYTE SYMREF UNAL;
     1178     3998    1   DCL K_CNT SBIN SYMREF;
     1179     3999    1   DCL DASH_ON SBIN BYTE SYMREF UNAL;
     1180     4000
     1181     4001    2       DO CASE(OUT$BLK.CODE);
     1182     4002
     1183     4003    2       CASE(#DBK2);
PL6.E3A0      #002=CHK_NODE File=ZIU$Q2RP.:ZIC0TSI                               FRI 09/05/97 13:25 Page:230
     1184     4004    2           K_CNT=K_CNT+1;
     1185     4005    2           PA_DBK.FIR(K_CNT)=0;
     1186     4006    2           PA_DBK.SEC(K_CNT)=0;
     1187     4007    3           DO JJJ=1 TO OUT$BLK.NSUBLKS;
     1188     4008    3               CALL CHARBIN(KKK,OUT$BLK.SUBLK$(JJJ-1)->OUT$SYM.TEXT);
     1189     4009    3               IF JJJ=1 THEN
     1190     4010    4               DO;
     1191     4011    4                   KEY_RNG.FIR(K_CNT)=KKK;
     1192     4012    4                   KEY_RNG.SEC(K_CNT)=KKK;
     1193     4013    4                   END;
     1194     4014    3               ELSE
     1195     4015    3                   IF JJJ=2 THEN
     1196     4016    3                       PA_DBK.FIR(K_CNT)=KKK;
     1197     4017    3                   ELSE
     1198     4018    3                       PA_DBK.SEC(K_CNT)=KKK;
     1199     4019    3               END;
     1200     4020    2           RETURN;
     1201     4021    2       CASE(#SET_NAME2);
     1202     4022    2           S_CNT=S_CNT+1;
     1203     4023    2           ITEM_LIST.NAME(S_CNT)=OUT$SYM.TEXT;
     1204     4024    2       CASE(#REC_NAME2);
     1205     4025    2           R_CNT=R_CNT+1;
     1206     4026    2           RECORD_LIST.NAME(R_CNT)=OUT$SYM.TEXT;
     1207     4027    2       CASE(#NEXT2,#PRIOR2);
     1208     4028    2           N_OR_P=OUT$BLK.CODE;
     1209     4029    2       CASE(#MEMBER2,#OWNER2,#ALL2);
     1210     4030    2           WALK_OPT=OUT$BLK.CODE;
     1211     4031    2           PRINT_OPT=OUT$BLK.CODE;
     1212     4032    2           IF OUT$BLK.CODE=#OWNER2 THEN N_OR_P=#OWNER2;
     1213     4033    2       CASE(#SETS2);
     1214     4034    2           PRINT_OPT=OUT$BLK.CODE;
     1215     4035    2       CASE(#DASH2);
     1216     4036    2           DASH_ON = 1;
     1217     4037    2           END;
     1218     4038
     1219     4039    2       DO CASE(OUT$BLK.NDTYPE);
     1220     4040
PL6.E3A0      #002=CHK_NODE File=ZIU$Q2RP.:ZIC0TSI                               FRI 09/05/97 13:25 Page:231
     1221     4041    2       CASE(%OCT#);
     1222     4042    3           DO INDX=0 TO OUT$SYM.COUNT-1;
     1223     4043    3               CALL INDEX1(JJJ,SUBSTR(OUT$SYM.TEXT,INDX,1),'01234567');
     1224     4044    3               KEY_RNG.FIR(0)=KEY_RNG.FIR(0)*8+JJJ;
     1225     4045    3               END;
     1226     4046    2       CASE(%DSTRING#,%NULL#,%DEC#,%ALPHA#,%ALNUM#,%SYM#,%ASYM#,%FID#);
     1227     4047    2       CASE(ELSE);
     1228     4048    3           DO INDX=0 TO OUT$BLK.NSUBLKS - 1;
     1229     4049    3               CALL CHK_NODE(OUT$BLK.SUBLK$(INDX));
     1230     4050    3               END;
     1231     4051    2           END;
     1232     4052    1   END CHK_NODE;
     1233     4053
     1234     4054
     1235     4055
     1236     4056
     1237     4057
     1238     4058
     1239     4059
     1240     4060
     1241     4061
     1242     4062
     1243     4063

PL6.E3A0      #002=CHK_NODE File=ZIU$Q2RP.:ZIC0TSI                               FRI 09/05/97 13:25 Page:232
--  Include file information  --

   ZI_PRSE_SUBS.:ZIC0TOU  is referenced.
   XU_SUBS_C.:LIB_E05  is referenced.
   ZI_GLOBAL_DBUTIL.:ZIC0TOU  is referenced.
   ZI$DIR.:ZIC0TOU  is referenced.
   XU_MACRO_C.:LIB_E05  is referenced.
   B$JIT_C.:E05TOU  was found in the system file and is never referenced.
   CP_6_C.:E05TOU  was found in the system file and is never referenced.
      No diagnostics issued in procedure CHK_NODE.

   Procedure CHK_NODE requires 192 words for executable code.
   Procedure CHK_NODE requires 8 words of local(AUTO) storage.

    No errors detected in file ZIU$Q2RP.:ZIC0TSI    .

PL6.E3A0      #002=CHK_NODE File=ZIU$Q2RP.:ZIC0TSI                               FRI 09/05/97 13:25 Page:233

 Object Unit name= CHK_NODE                                   File name= ZIU$Q2RP.:ZIC0TOU
 UTS= SEP 05 '97 13:25:40.96 FRI                              Compiler= PL-6/E31         Sev=      00
 SharedLib= :SHARED_SYSTEM                                    Alt SharedLib=


    ****  Control sections  ****

 Sect   Type Bound  Init  Size OctSiz  Section name(segment info)
    0   DCB   even  none     0      0  M$LO
    1  RoData even  UTS      2      2  CHK_NODE
    2   Proc  even  none   192    300  CHK_NODE
    3  RoData even  none     2      2  CHK_NODE

    ****  Entry defs  ****

                              Check   Calling
                             calling  sequence
  Sect OctLoc Primary Altret sequence   type   Parms  Name
     2      0   yes    yes     yes      Std        1  CHK_NODE

  ****  Entry refs  ****

         Check        Calling
        calling       sequence
Altret sequence SRef   type   Args  Name
                       nStd      0 X66_AUTO_1
                       nStd      0 X66_ARET
PL6.E3A0      #002=CHK_NODE File=ZIU$Q2RP.:ZIC0TSI                               FRI 09/05/97 13:25 Page:234

  ****  Data refs  ****

  Flags:  r = read only, s = secondary
Flgs Name                             Flgs Name                             Flgs Name
     JJJ                                   KKK                                   PA_DBK
     ZI$DIR                                SCHEMA_ACTIVE                         RECORD_LIST
     SET_LIST                              RETAIN_LIST                           DUMP_FID
     ALTKY                                 INIT_RG                               KEY_RNG
     ITEM_LIST                             REC$                                  RB
     RE                                    IE                                    IB
     CNT                                   ICNT                                  RCNT
     SCNT                                  FIRST_SET                             RETCNT
     DMPCNT                                KCNT                                  ACNT_IDX
     I                                     J                                     K
     X                                     STEPCC                                I_O_BUF$
     OUT_INDX                              I_O_SIZE                              REC_DATA_LN
     M$LO                                  B$TCB$                                B$ROS$
     B$JIT$                                KEYFID                                I_O_KEY
     RESTART                               BREAK_FLAG                            ICHKSUM
     ITMCNT                                GAP1                                  PRINT_OPT
     WALK_OPT                              N_OR_P                                R_CNT
     S_CNT                                 K_CNT                                 DASH_ON
PL6.E3A0      #002=CHK_NODE File=ZIU$Q2RP.:ZIC0TSI                               FRI 09/05/97 13:25 Page:235


     1141        1        /*T***********************************************************/
     1142        2        /*T*                                                         */
     1143        3        /*T* Copyright (c) Bull HN Information Systems Inc., 1997    */
     1144        4        /*T*                                                         */
     1145        5        /*T***********************************************************/
     1146        6        %EJECT;
PL6.E3A0      #002=CHK_NODE File=ZIU$Q2RP.:ZIC0TSI                               FRI 09/05/97 13:25 Page:236
     1147        7        /*M*   CHK_NODE     PARSER INTERPRTER FOR
     1148        8                            REPAIR COMMAND IN DBUTIL          */
     1149        9        CHK_NODE: PROC(NODE$) ALTRET;

      9  2 000000   000000 700200 xent  CHK_NODE     TSX0  ! X66_AUTO_1
         2 000001   000010 000001                    ZERO    8,1

     1150       10
     1151       11    1   DCL INDX SBIN;
     1152       12    1   DCL NODE$ PTR;
     1153       13    1   DCL JJJ SBIN SYMREF;
     1154       14    1   DCL KKK SBIN SYMREF;
     1155       15    1   DCL 1 PA_DBK(0:0) SYMREF,
     1156       16    1         2 FIR UBIN UNAL,
     1157       17    1         2 SEC UBIN UNAL;
     1158       18
     1159       19        %INCLUDE XU_MACRO_C;
     1160     3125
     1161     3126        %PARSE$OUT(NAME=OUT$BLK,STCLASS="BASED(NODE$)");
     1162     3171        %PARSE$SYM(NAME=OUT$SYM,STCLASS="BASED(NODE$)");
     1163     3209
     1164     3210        %INCLUDE ZI$DIR;
     1165     3367        %DIR;
     1166     3511
     1167     3512        %INCLUDE ZI_GLOBAL_DBUTIL;
     1168     3690        %MISC_DCLS;
     1169     3743
     1170     3744        %INCLUDE XU_SUBS_C;
     1171     3836        %INCLUDE ZI_PRSE_SUBS;
     1172     3992
     1173     3993    1   DCL PRINT_OPT UBIN BYTE SYMREF UNAL;
     1174     3994    1   DCL WALK_OPT UBIN BYTE SYMREF UNAL;
     1175     3995    1   DCL N_OR_P UBIN SYMREF;
     1176     3996    1   DCL R_CNT SBIN BYTE SYMREF UNAL;
     1177     3997    1   DCL S_CNT SBIN BYTE SYMREF UNAL;
     1178     3998    1   DCL K_CNT SBIN SYMREF;
     1179     3999    1   DCL DASH_ON SBIN BYTE SYMREF UNAL;
PL6.E3A0      #002=CHK_NODE File=ZIU$Q2RP.:ZIC0TSI                               FRI 09/05/97 13:25 Page:237
     1180     4000
     1181     4001    2       DO CASE(OUT$BLK.CODE);

   4001  2 000002   200003 470500                    LDP0    @NODE$,,AUTO
         2 000003   000000 471500                    LDP1    0,,PR0
         2 000004   100000 236100                    LDQ     0,,PR1
         2 000005   777777 376007                    ANQ     -1,DL
         2 000006   000012 136007                    SBLQ    10,DL
         2 000007   000012 116007                    CMPQ    10,DL
         2 000010   000012 602006 2                  TNC     s:4001+8,QL
         2 000011   000174 710000 2                  TRA     s:4039
         2 000012   000024 710000 2                  TRA     s:4004
         2 000013   000165 710000 2                  TRA     s:4034
         2 000014   000145 710000 2                  TRA     s:4030
         2 000015   000101 710000 2                  TRA     s:4022
         2 000016   000141 710000 2                  TRA     s:4028
         2 000017   000141 710000 2                  TRA     s:4028
         2 000020   000145 710000 2                  TRA     s:4030
         2 000021   000145 710000 2                  TRA     s:4030
         2 000022   000121 710000 2                  TRA     s:4025
         2 000023   000172 710000 2                  TRA     s:4036

     1182     4002
     1183     4003    2       CASE(#DBK2);

     1184     4004    2           K_CNT=K_CNT+1;

   4004  2 000024   000000 054000 xsym               AOS     K_CNT

     1185     4005    2           PA_DBK.FIR(K_CNT)=0;

   4005  2 000025   000000 235000 xsym               LDA     K_CNT
         2 000026   000001 735000                    ALS     1
         2 000027   000000 450005 xsym               STZ     PA_DBK,AL

     1186     4006    2           PA_DBK.SEC(K_CNT)=0;

PL6.E3A0      #002=CHK_NODE File=ZIU$Q2RP.:ZIC0TSI                               FRI 09/05/97 13:25 Page:238
   4006  2 000030   000001 450005 xsym               STZ     PA_DBK+1,AL

     1187     4007    3           DO JJJ=1 TO OUT$BLK.NSUBLKS;

   4007  2 000031   000001 236007                    LDQ     1,DL
         2 000032   000000 756000 xsym               STQ     JJJ
         2 000033   000073 710000 2                  TRA     s:4019+1

     1188     4008    3               CALL CHARBIN(KKK,OUT$BLK.SUBLK$(JJJ-1)->OUT$SYM.TEXT);

   4008  2 000034   200003 470500                    LDP0    @NODE$,,AUTO
         2 000035   000000 471500                    LDP1    0,,PR0
         2 000036   000000 720000 xsym               LXL0    JJJ
         2 000037   100002 473510                    LDP3    2,X0,PR1
         2 000040   300004 236100                    LDQ     4,,PR3
         2 000041   000033 772000                    QRL     27
         2 000042   000000 621006                    EAX1    0,QL
         2 000043   000000 305540                    DTB
         2 000044   300004 230011                    NDSC9   4,,PR3                   cn=1,s=nosgn,sf=0,n=*X1
         2 000045   000000 000004 xsym               NDSC9   KKK                      cn=0,s=lsgnf,sf=0,n=4

     1189     4009    3               IF JJJ=1 THEN

   4009  2 000046   000000 235000 xsym               LDA     JJJ
         2 000047   000001 115007                    CMPA    1,DL
         2 000050   000057 601000 2                  TNZ     s:4015

     1190     4010    4               DO;

     1191     4011    4                   KEY_RNG.FIR(K_CNT)=KKK;

   4011  2 000051   000000 236000 xsym               LDQ     K_CNT
         2 000052   000001 736000                    QLS     1
         2 000053   000000 235000 xsym               LDA     KKK
         2 000054   000000 755006 xsym               STA     KEY_RNG,QL

     1192     4012    4                   KEY_RNG.SEC(K_CNT)=KKK;
PL6.E3A0      #002=CHK_NODE File=ZIU$Q2RP.:ZIC0TSI                               FRI 09/05/97 13:25 Page:239

   4012  2 000055   000001 755006 xsym               STA     KEY_RNG+1,QL

     1193     4013    4                   END;

   4013  2 000056   000072 710000 2                  TRA     s:4019

     1194     4014    3               ELSE
     1195     4015    3                   IF JJJ=2 THEN

   4015  2 000057   000002 115007                    CMPA    2,DL
         2 000060   000066 601000 2                  TNZ     s:4018

     1196     4016    3                       PA_DBK.FIR(K_CNT)=KKK;

   4016  2 000061   000000 236000 xsym               LDQ     K_CNT
         2 000062   000001 736000                    QLS     1
         2 000063   000000 235000 xsym               LDA     KKK
         2 000064   000000 755006 xsym               STA     PA_DBK,QL
         2 000065   000072 710000 2                  TRA     s:4019

     1197     4017    3                   ELSE
     1198     4018    3                       PA_DBK.SEC(K_CNT)=KKK;

   4018  2 000066   000000 236000 xsym               LDQ     K_CNT
         2 000067   000001 736000                    QLS     1
         2 000070   000000 235000 xsym               LDA     KKK
         2 000071   000001 755006 xsym               STA     PA_DBK+1,QL

     1199     4019    3               END;

   4019  2 000072   000000 054000 xsym               AOS     JJJ
         2 000073   000000 471500                    LDP1    0,,PR0
         2 000074   100001 236100                    LDQ     1,,PR1
         2 000075   000022 772000                    QRL     18
         2 000076   000000 116000 xsym               CMPQ    JJJ
         2 000077   000034 605000 2                  TPL     s:4008
PL6.E3A0      #002=CHK_NODE File=ZIU$Q2RP.:ZIC0TSI                               FRI 09/05/97 13:25 Page:240

     1200     4020    2           RETURN;

   4020  2 000100   000000 702200 xent               TSX2  ! X66_ARET

     1201     4021    2       CASE(#SET_NAME2);

     1202     4022    2           S_CNT=S_CNT+1;

   4022  2 000101   001000 236003                    LDQ     512,DU
         2 000102   000000 056000 xsym               ASQ     S_CNT

     1203     4023    2           ITEM_LIST.NAME(S_CNT)=OUT$SYM.TEXT;

   4023  2 000103   000000 236000 xsym               LDQ     S_CNT
         2 000104   000030 732000                    QRS     24
         2 000105   000000 376000 3                  ANQ     0
         2 000106   000000 471500                    LDP1    0,,PR0
         2 000107   000000 620006                    EAX0    0,QL
         2 000110   100004 236100                    LDQ     4,,PR1
         2 000111   000033 772000                    QRL     27
         2 000112   000000 635010                    EAA     0,X0
         2 000113   000020 771000                    ARL     16
         2 000114   000000 620006                    EAX0    0,QL
         2 000115   040005 100540                    MLR     fill='040'O
         2 000116   100004 200010                    ADSC9   4,,PR1                   cn=1,n=*X0
         2 000117   000000 000036 xsym               ADSC9   ITEM_LIST,A              cn=0,n=30
         2 000120   000174 710000 2                  TRA     s:4039

     1204     4024    2       CASE(#REC_NAME2);

     1205     4025    2           R_CNT=R_CNT+1;

   4025  2 000121   001000 236003                    LDQ     512,DU
         2 000122   000000 056000 xsym               ASQ     R_CNT

     1206     4026    2           RECORD_LIST.NAME(R_CNT)=OUT$SYM.TEXT;
PL6.E3A0      #002=CHK_NODE File=ZIU$Q2RP.:ZIC0TSI                               FRI 09/05/97 13:25 Page:241

   4026  2 000123   000000 236000 xsym               LDQ     R_CNT
         2 000124   000030 732000                    QRS     24
         2 000125   000000 376000 3                  ANQ     0
         2 000126   000000 471500                    LDP1    0,,PR0
         2 000127   000000 620006                    EAX0    0,QL
         2 000130   100004 236100                    LDQ     4,,PR1
         2 000131   000033 772000                    QRL     27
         2 000132   000000 635010                    EAA     0,X0
         2 000133   000020 771000                    ARL     16
         2 000134   000000 620006                    EAX0    0,QL
         2 000135   040005 100540                    MLR     fill='040'O
         2 000136   100004 200010                    ADSC9   4,,PR1                   cn=1,n=*X0
         2 000137   000000 000036 xsym               ADSC9   RECORD_LIST,A            cn=0,n=30
         2 000140   000174 710000 2                  TRA     s:4039

     1207     4027    2       CASE(#NEXT2,#PRIOR2);

     1208     4028    2           N_OR_P=OUT$BLK.CODE;

   4028  2 000141   100000 236100                    LDQ     0,,PR1
         2 000142   777777 376007                    ANQ     -1,DL
         2 000143   000000 756000 xsym               STQ     N_OR_P
         2 000144   000174 710000 2                  TRA     s:4039

     1209     4029    2       CASE(#MEMBER2,#OWNER2,#ALL2);

     1210     4030    2           WALK_OPT=OUT$BLK.CODE;

   4030  2 000145   100000 236100                    LDQ     0,,PR1
         2 000146   777777 376007                    ANQ     -1,DL
         2 000147   000033 736000                    QLS     27
         2 000150   000000 756000 xsym               STQ     WALK_OPT

     1211     4031    2           PRINT_OPT=OUT$BLK.CODE;

   4031  2 000151   000000 471500                    LDP1    0,,PR0
PL6.E3A0      #002=CHK_NODE File=ZIU$Q2RP.:ZIC0TSI                               FRI 09/05/97 13:25 Page:242
         2 000152   100000 236100                    LDQ     0,,PR1
         2 000153   777777 376007                    ANQ     -1,DL
         2 000154   000033 736000                    QLS     27
         2 000155   000000 756000 xsym               STQ     PRINT_OPT

     1212     4032    2           IF OUT$BLK.CODE=#OWNER2 THEN N_OR_P=#OWNER2;

   4032  2 000156   000000 471500                    LDP1    0,,PR0
         2 000157   100000 720100                    LXL0    0,,PR1
         2 000160   000020 100003                    CMPX0   16,DU
         2 000161   000174 601000 2                  TNZ     s:4039

   4032  2 000162   000020 235007                    LDA     16,DL
         2 000163   000000 755000 xsym               STA     N_OR_P
         2 000164   000174 710000 2                  TRA     s:4039

     1213     4033    2       CASE(#SETS2);

     1214     4034    2           PRINT_OPT=OUT$BLK.CODE;

   4034  2 000165   100000 236100                    LDQ     0,,PR1
         2 000166   777777 376007                    ANQ     -1,DL
         2 000167   000033 736000                    QLS     27
         2 000170   000000 756000 xsym               STQ     PRINT_OPT
         2 000171   000174 710000 2                  TRA     s:4039

     1215     4035    2       CASE(#DASH2);

     1216     4036    2           DASH_ON = 1;

   4036  2 000172   001000 236003                    LDQ     512,DU
         2 000173   000000 756000 xsym               STQ     DASH_ON

     1217     4037    2           END;

     1218     4038
     1219     4039    2       DO CASE(OUT$BLK.NDTYPE);
PL6.E3A0      #002=CHK_NODE File=ZIU$Q2RP.:ZIC0TSI                               FRI 09/05/97 13:25 Page:243

   4039  2 000174   000000 471500                    LDP1    0,,PR0
         2 000175   100000 236100                    LDQ     0,,PR1
         2 000176   000022 772000                    QRL     18
         2 000177   000077 376007                    ANQ     63,DL
         2 000200   000005 136007                    SBLQ    5,DL
         2 000201   000023 116007                    CMPQ    19,DL
         2 000202   000204 602006 2                  TNC     s:4039+8,QL
         2 000203   000255 710000 2                  TRA     s:4048
         2 000204   000277 710000 2                  TRA     s:4052
         2 000205   000255 710000 2                  TRA     s:4048
         2 000206   000255 710000 2                  TRA     s:4048
         2 000207   000255 710000 2                  TRA     s:4048
         2 000210   000255 710000 2                  TRA     s:4048
         2 000211   000255 710000 2                  TRA     s:4048
         2 000212   000255 710000 2                  TRA     s:4048
         2 000213   000255 710000 2                  TRA     s:4048
         2 000214   000255 710000 2                  TRA     s:4048
         2 000215   000255 710000 2                  TRA     s:4048
         2 000216   000255 710000 2                  TRA     s:4048
         2 000217   000277 710000 2                  TRA     s:4052
         2 000220   000227 710000 2                  TRA     s:4042
         2 000221   000277 710000 2                  TRA     s:4052
         2 000222   000277 710000 2                  TRA     s:4052
         2 000223   000277 710000 2                  TRA     s:4052
         2 000224   000277 710000 2                  TRA     s:4052
         2 000225   000277 710000 2                  TRA     s:4052
         2 000226   000277 710000 2                  TRA     s:4052

     1220     4040
     1221     4041    2       CASE(%OCT#);

     1222     4042    3           DO INDX=0 TO OUT$SYM.COUNT-1;

   4042  2 000227   200004 450100                    STZ     INDX,,AUTO
         2 000230   000247 710000 2                  TRA     s:4045+1

PL6.E3A0      #002=CHK_NODE File=ZIU$Q2RP.:ZIC0TSI                               FRI 09/05/97 13:25 Page:244
     1223     4043    3               CALL INDEX1(JJJ,SUBSTR(OUT$SYM.TEXT,INDX,1),'01234567');

   4043  2 000231   200003 470500                    LDP0    @NODE$,,AUTO
         2 000232   000000 471500                    LDP1    0,,PR0
         2 000233   100004 236100                    LDQ     4,,PR1
         2 000234   000033 772000                    QRL     27
         2 000235   200004 235100                    LDA     INDX,,AUTO
         2 000236   000105 124400                    SCM     mask='000'O
         2 000237   000000 000010 1                  ADSC9   0                        cn=0,n=8
         2 000240   100004 200001                    ADSC9   4,A,PR1                  cn=1,n=1
         2 000241   000000 000000 xsym               ARG     JJJ

     1224     4044    3               KEY_RNG.FIR(0)=KEY_RNG.FIR(0)*8+JJJ;

   4044  2 000242   000000 236000 xsym               LDQ     KEY_RNG
         2 000243   000003 736000                    QLS     3
         2 000244   000000 036000 xsym               ADLQ    JJJ
         2 000245   000000 756000 xsym               STQ     KEY_RNG

     1225     4045    3               END;

   4045  2 000246   200004 054100                    AOS     INDX,,AUTO
         2 000247   000000 471500                    LDP1    0,,PR0
         2 000250   100004 236100                    LDQ     4,,PR1
         2 000251   000033 772000                    QRL     27
         2 000252   200004 116100                    CMPQ    INDX,,AUTO
         2 000253   000231 605400 2                  TPNZ    s:4043
         2 000254   000277 710000 2                  TRA     s:4052

     1226     4046    2       CASE(%DSTRING#,%NULL#,%DEC#,%ALPHA#,%ALNUM#,%SYM#,%ASYM#,%FID#);

     1227     4047    2       CASE(ELSE);

     1228     4048    3           DO INDX=0 TO OUT$BLK.NSUBLKS - 1;

   4048  2 000255   200004 450100                    STZ     INDX,,AUTO
         2 000256   000271 710000 2                  TRA     s:4050+1
PL6.E3A0      #002=CHK_NODE File=ZIU$Q2RP.:ZIC0TSI                               FRI 09/05/97 13:25 Page:245

     1229     4049    3               CALL CHK_NODE(OUT$BLK.SUBLK$(INDX));

   4049  2 000257   200003 470500                    LDP0    @NODE$,,AUTO
         2 000260   000000 471500                    LDP1    0,,PR0
         2 000261   200004 720100                    LXL0    INDX,,AUTO
         2 000262   100003 633510                    EPPR3   3,X0,PR1
         2 000263   200006 453500                    STP3    INDX+2,,AUTO
         2 000264   200006 630500                    EPPR0   INDX+2,,AUTO
         2 000265   000001 631400 3                  EPPR1   1
         2 000266   000000 701000 2                  TSX1    s:9
         2 000267   000000 011000                    NOP     0

     1230     4050    3               END;

   4050  2 000270   200004 054100                    AOS     INDX,,AUTO
         2 000271   200003 470500                    LDP0    @NODE$,,AUTO
         2 000272   000000 471500                    LDP1    0,,PR0
         2 000273   100001 236100                    LDQ     1,,PR1
         2 000274   000022 772000                    QRL     18
         2 000275   200004 116100                    CMPQ    INDX,,AUTO
         2 000276   000257 605400 2                  TPNZ    s:4049

     1231     4051    2           END;

     1232     4052    1   END CHK_NODE;

   4052  2 000277   000000 702200 xent               TSX2  ! X66_ARET

(unnamed)
 Sect OctLoc
   1     000   060061 062063   064065 066067                                    01234567

(unnamed)
 Sect OctLoc
   3     000   777777 777770   000001 000000                                    ........
     1233     4053
PL6.E3A0      #002=CHK_NODE File=ZIU$Q2RP.:ZIC0TSI                               FRI 09/05/97 13:25 Page:246
     1234     4054
     1235     4055
     1236     4056
     1237     4057
     1238     4058
     1239     4059
     1240     4060
     1241     4061
     1242     4062
     1243     4063

PL6.E3A0      #002=CHK_NODE File=ZIU$Q2RP.:ZIC0TSI                               FRI 09/05/97 13:25 Page:247
--  Include file information  --

   ZI_PRSE_SUBS.:ZIC0TOU  is referenced.
   XU_SUBS_C.:LIB_E05  is referenced.
   ZI_GLOBAL_DBUTIL.:ZIC0TOU  is referenced.
   ZI$DIR.:ZIC0TOU  is referenced.
   XU_MACRO_C.:LIB_E05  is referenced.
   B$JIT_C.:E05TOU  was found in the system file and is never referenced.
   CP_6_C.:E05TOU  was found in the system file and is never referenced.
      No diagnostics issued in procedure CHK_NODE.

   Procedure CHK_NODE requires 192 words for executable code.
   Procedure CHK_NODE requires 8 words of local(AUTO) storage.

    No errors detected in file ZIU$Q2RP.:ZIC0TSI    .
PL6.E3A0      #002=CHK_NODE File=ZIU$Q2RP.:ZIC0TSI                               FRI 09/05/97 13:25 Page:248
          *** CROSS REFERENCE LISTING ***
**     DENOTES     IDENTIFIER DEFINITION
<<                 IDENTIFIER'S VALUE SET
>>                 IDENTIFIER'S VALUE USED
<>                 IDENTIFIER SET AND/OR USED
--                 IDENTIFIER REFERENCED
PL6.E3A0      #002=CHK_NODE File=ZIU$Q2RP.:ZIC0TSI                               FRI 09/05/97 13:25 Page:249
          MINI XREF LISTING

CHK_NODE
         9**PROC     4049--CALL
DASH_ON
      3999**DCL      4036<<ASSIGN
ICHKSUM
      3738**DCL      3739--REDEF
INDX
        11**DCL      4042<<DOINDEX  4043>>CALLBLT  4048<<DOINDEX  4049>>CALL
ITEM_LIST.NAME
      3507**DCL      4023<<ASSIGN
I_O_BUF$
      3716**DCL      3717--IMP-PTR
JJJ
        13**DCL      4007<<DOINDEX  4008>>CALLBLT  4008>>CALLBLT  4009>>IF       4015>>IF       4043<<CALLBLT
      4044>>ASSIGN
KEY_RNG.FIR
      3504**DCL      4011<<ASSIGN   4044<<ASSIGN   4044>>ASSIGN
KEY_RNG.SEC
      3505**DCL      4012<<ASSIGN
KKK
        14**DCL      4008<<CALLBLT  4011>>ASSIGN   4012>>ASSIGN   4016>>ASSIGN   4018>>ASSIGN
K_CNT
      3998**DCL      4004<<ASSIGN   4004>>ASSIGN   4005>>ASSIGN   4006>>ASSIGN   4011>>ASSIGN   4012>>ASSIGN
      4016>>ASSIGN   4018>>ASSIGN
NODE$
        12**DCL         9--PROC     3132--IMP-PTR  3178--IMP-PTR  4001>>DOCASE   4007>>DOINDEX  4008>>CALLBLT
      4008>>CALLBLT  4023>>ASSIGN   4023>>ASSIGN   4026>>ASSIGN   4026>>ASSIGN   4028>>ASSIGN   4030>>ASSIGN
      4031>>ASSIGN   4032>>IF       4034>>ASSIGN   4039>>DOCASE   4042>>DOINDEX  4043>>CALLBLT  4043>>CALLBLT
      4048>>DOINDEX  4049>>CALL
N_OR_P
      3995**DCL      4028<<ASSIGN   4032<<ASSIGN
OUT$BLK.CODE
PL6.E3A0      #002=CHK_NODE File=ZIU$Q2RP.:ZIC0TSI                               FRI 09/05/97 13:25 Page:250
      3140**DCL      4001>>DOCASE   4028>>ASSIGN   4030>>ASSIGN   4031>>ASSIGN   4032>>IF       4034>>ASSIGN
OUT$BLK.NDTYPE
      3135**DCL      4039>>DOCASE
OUT$BLK.NSUBLKS
      3144**DCL      4007>>DOINDEX  4048>>DOINDEX
OUT$BLK.SUBLK$
      3165**DCL      4008>>CALLBLT  4008>>CALLBLT  4049<>CALL
OUT$SYM.COUNT
      3201**DCL      3204--IMP-SIZ  4008>>CALLBLT  4023>>ASSIGN   4026>>ASSIGN   4042>>DOINDEX  4043>>CALLBLT
OUT$SYM.TEXT
      3204**DCL      4008>>CALLBLT  4023>>ASSIGN   4026>>ASSIGN   4043>>CALLBLT
PA_DBK.FIR
        16**DCL      4005<<ASSIGN   4016<<ASSIGN
PA_DBK.SEC
        17**DCL      4006<<ASSIGN   4018<<ASSIGN
PRINT_OPT
      3993**DCL      4031<<ASSIGN   4034<<ASSIGN
REC$
      3697**DCL      3720--IMP-PTR
RECORD_LIST.NAME
      3486**DCL      4026<<ASSIGN
REC_DATA_LN
      3725**DCL      3724--IMP-SIZ
R_CNT
      3996**DCL      4025<<ASSIGN   4025>>ASSIGN   4026>>ASSIGN
S_CNT
      3997**DCL      4022<<ASSIGN   4022>>ASSIGN   4023>>ASSIGN
WALK_OPT
      3994**DCL      4030<<ASSIGN
ZI$DIR.ALTKEY
      3439**DCL      3440--REDEF    3441--REDEF
ZI$DIR.AREAFID
      3405**DCL      3406--REDEF
ZI$DIR.DATE
      3444**DCL      3448--REDEF
ZI$DIR.DEST_SEED
PL6.E3A0      #002=CHK_NODE File=ZIU$Q2RP.:ZIC0TSI                               FRI 09/05/97 13:25 Page:251
      3400**DCL      3401--REDEF    3402--REDEF
ZI$DIR.ENCP_SEED
      3397**DCL      3398--REDEF    3399--REDEF
ZI$DIR.REPRT_ZERO
      3431**DCL      3432--REDEF
ZI$DIR.SCHFID
      3403**DCL      3404--REDEF
ZI$DIR.TIME
      3449**DCL      3454--REDEF
