PL6.E3A0      #011=SYS_FUNC_CHECK File=ZIU$Q2SF.:ZIC0TSI                         FRI 09/05/97 13:27 Page:210
      851        1        /*T***********************************************************/
      852        2        /*T*                                                         */
      853        3        /*T* Copyright (c) Bull HN Information Systems Inc., 1997    */
      854        4        /*T*                                                         */
      855        5        /*T***********************************************************/
      856        6        SYS_FUNC_CHECK: PROC ALTRET;
      857        7    1   DCL B$TCB$ PTR SYMREF ALIGNED;
      858        8    1   DCL SYS_FUNC_ERRMSG ENTRY ALTRET;
      859        9        %INCLUDE CP_6;
      860       90        %INCLUDE CP_6_SUBS;
      861      630        %B$TCB;
      862      633        %B$EXCFR;
      863      651        %INCLUDE B_ERRORS_C;
      864     1778        %FPT_CHECK;
      865     1792        %INCLUDE ZI_GLOBAL_DBUTIL;
      866     1970         %SYS_FUNC;
      867     2062    1       FPT_CHECK.V.DCB# = DCBSF;
      868     2063    1       CALL M$CHECK(FPT_CHECK) ALTRET (CHECK_ERR);
      869     2064    1       RETURN;
      870     2065    1   CHECK_ERR:
      871     2066    1       IF B$TCB$->B$TCB.ALT$->B$EXCFR.ERR.ERR# = %E$EOF THEN
      872     2067    1           ALTRETURN; /* DONT PRINT ERRMSG ON END-OFOFILE */
      873     2068    1       MONITOR_ERR = B$TCB$->B$TCB.ALT$->B$EXCFR.ERR;
      874     2069    1       INCL_ERR = %YES#;
      875     2070    1       CALL SYS_FUNC_ERRMSG;
      876     2071    1       ALTRETURN;
      877     2072    1   END SYS_FUNC_CHECK;
      878     2073        %EOD;

PL6.E3A0      #011=SYS_FUNC_CHECK File=ZIU$Q2SF.:ZIC0TSI                         FRI 09/05/97 13:27 Page:211
--  Include file information  --

   ZI_GLOBAL_DBUTIL.:ZIC0TOU  is referenced.
   B_ERRORS_C.:LIB_E05  is referenced.
   CP_6_SUBS.:LIB_E05  is referenced.
   CP_6.:LIB_E05  cannot be made into a system file and is referenced.
   B$JIT_C.:E05TOU  was found in the system file and is never referenced.
   CP_6_C.:E05TOU  was found in the system file and is referenced.
      No diagnostics issued in procedure SYS_FUNC_CHECK.

   Procedure SYS_FUNC_CHECK requires 24 words for executable code.
   Procedure SYS_FUNC_CHECK requires 4 words of local(AUTO) storage.

PL6.E3A0      #011=SYS_FUNC_CHECK File=ZIU$Q2SF.:ZIC0TSI                         FRI 09/05/97 13:27 Page:212

 Object Unit name= SYS_FUNC_CHECK                             File name= ZIU$Q2SF.:ZIC0TOU
 UTS= SEP 05 '97 13:27:53.16 FRI                              Compiler= PL-6/E31         Sev=      00
 SharedLib= :SHARED_SYSTEM                                    Alt SharedLib=


    ****  Control sections  ****

 Sect   Type Bound  Init  Size OctSiz  Section name(segment info)
    0   DCB   even  none     0      0  M$UC
    1   Data  even  none     4      4  SYS_FUNC_CHECK
    2   Proc  even  none    24     30  SYS_FUNC_CHECK
    3  RoData even  none     1      1  SYS_FUNC_CHECK

    ****  Entry defs  ****

                              Check   Calling
                             calling  sequence
  Sect OctLoc Primary Altret sequence   type   Parms  Name
     2      0   yes    yes     yes      Std        0  SYS_FUNC_CHECK

  ****  Entry refs  ****

         Check        Calling
        calling       sequence
Altret sequence SRef   type   Args  Name
 yes     yes           Std       0 SYS_FUNC_ERRMSG
                       nStd      0 X66_AUTO_0
                       nStd      0 X66_ARET
                       nStd      0 X66_AALT
PL6.E3A0      #011=SYS_FUNC_CHECK File=ZIU$Q2SF.:ZIC0TSI                         FRI 09/05/97 13:27 Page:213

  ****  Data refs  ****

  Flags:  r = read only, s = secondary
Flgs Name                             Flgs Name                             Flgs Name
     B$TCB$                                M$UC                                  BLKLSF
     KEYLSF                                KEYXSF                                DCBSF
     ORGSF                                 KEYSF                                 KEYVSF
     ACSSF                                 NOTIMESF                              FUNSF
     ASNSF                                 TESTSF                                XTENSIZESF
     DISPSF                                WAITSF                                VFCSF
     FULLSF                                BKUPSF                                BUFLNSF
     BUFSF                                 SOURCESF                              DESTSF
     DATESF                                TIMESF                                UTSSF
     DAYSF                                 TSTAMPSF                              ENCRP_SEEDSF
     ERRCODESF                             MSGCODE                               INCL_ERR
     ERR_INSERT                            FIDSF_RD                              ACNT
     EXISTSF                               SHARESF                               DCBNMSF
     KEYRSF                                NO_KEYSF                              REASGNSF
     CARRY_ATTRIBUTESF                     SUBMESSF                              SPKY_OPNSF
     POSSF                                 ERRFLGSF                              MERGESF
     FSA_FLAG                              RELGSF                                UNUSED
     HELPCODE                              COUNTSF                               INDEXSF
     GAP                                   PSNSF                                 ACNTSF
     KEY_SHADWSF

  ****  Segment refs  ****

  Flags:  r = read only, s = secondary
Flgs Name                             Flgs Name                             Flgs Name
     ISSID
PL6.E3A0      #011=SYS_FUNC_CHECK File=ZIU$Q2SF.:ZIC0TSI                         FRI 09/05/97 13:27 Page:214


      851        1        /*T***********************************************************/
      852        2        /*T*                                                         */
      853        3        /*T* Copyright (c) Bull HN Information Systems Inc., 1997    */
      854        4        /*T*                                                         */
      855        5        /*T***********************************************************/
      856        6        SYS_FUNC_CHECK: PROC ALTRET;

      6  2 000000   000000 700200 xent  SYS_FUNC_CH* TSX0  ! X66_AUTO_0
         2 000001   000004 000000                    ZERO    4,0

      857        7    1   DCL B$TCB$ PTR SYMREF ALIGNED;
      858        8    1   DCL SYS_FUNC_ERRMSG ENTRY ALTRET;
      859        9        %INCLUDE CP_6;
      860       90        %INCLUDE CP_6_SUBS;
      861      630        %B$TCB;
      862      633        %B$EXCFR;
      863      651        %INCLUDE B_ERRORS_C;
      864     1778        %FPT_CHECK;
      865     1792        %INCLUDE ZI_GLOBAL_DBUTIL;
      866     1970         %SYS_FUNC;
      867     2062    1       FPT_CHECK.V.DCB# = DCBSF;

   2062  2 000002   000000 220000 xsym               LDX0    DCBSF
         2 000003   000002 740000 1                  STX0    FPT_CHECK+2

      868     2063    1       CALL M$CHECK(FPT_CHECK) ALTRET (CHECK_ERR);

   2063  2 000004   000000 630400 1                  EPPR0   FPT_CHECK
         2 000005   450002 713400                    CLIMB   alt,+20482
         2 000006   400000 401760                    pmme    nvectors=1
         2 000007   000011 702000 2                  TSX2    CHECK_ERR

      869     2064    1       RETURN;

   2064  2 000010   000000 702200 xent               TSX2  ! X66_ARET

PL6.E3A0      #011=SYS_FUNC_CHECK File=ZIU$Q2SF.:ZIC0TSI                         FRI 09/05/97 13:27 Page:215
      870     2065    1   CHECK_ERR:
      871     2066    1       IF B$TCB$->B$TCB.ALT$->B$EXCFR.ERR.ERR# = %E$EOF THEN

   2066  2 000011   000000 470400 xsym  CHECK_ERR    LDP0    B$TCB$
         2 000012   000000 471500                    LDP1    0,,PR0
         2 000013   100102 236100                    LDQ     66,,PR1
         2 000014   377770 376007                    ANQ     131064,DL
         2 000015   000060 116007                    CMPQ    48,DL
         2 000016   000020 601000 2                  TNZ     s:2068

      872     2067    1           ALTRETURN; /* DONT PRINT ERRMSG ON END-OFOFILE */

   2067  2 000017   000000 702200 xent               TSX2  ! X66_AALT

      873     2068    1       MONITOR_ERR = B$TCB$->B$TCB.ALT$->B$EXCFR.ERR;

   2068  2 000020   100102 236100                    LDQ     66,,PR1
         2 000021   000000 756000 xsym               STQ     MSGCODE

      874     2069    1       INCL_ERR = %YES#;

   2069  2 000022   400000 236003                    LDQ     -131072,DU
         2 000023   000000 756000 xsym               STQ     INCL_ERR

      875     2070    1       CALL SYS_FUNC_ERRMSG;

   2070  2 000024   000000 631400 3                  EPPR1   0
         2 000025   000000 701000 xent               TSX1    SYS_FUNC_ERRMSG
         2 000026   000000 011000                    NOP     0

      876     2071    1       ALTRETURN;

   2071  2 000027   000000 702200 xent               TSX2  ! X66_AALT

FPT_CHECK
 Sect OctLoc
   1     000   000001 777640   000002 006000   000000 000000   000000 000000    ................
PL6.E3A0      #011=SYS_FUNC_CHECK File=ZIU$Q2SF.:ZIC0TSI                         FRI 09/05/97 13:27 Page:216

(unnamed)
 Sect OctLoc
   3     000   000000 000000                                                    ....
      877     2072    1   END SYS_FUNC_CHECK;
      878     2073        %EOD;

PL6.E3A0      #011=SYS_FUNC_CHECK File=ZIU$Q2SF.:ZIC0TSI                         FRI 09/05/97 13:27 Page:217
--  Include file information  --

   ZI_GLOBAL_DBUTIL.:ZIC0TOU  is referenced.
   B_ERRORS_C.:LIB_E05  is referenced.
   CP_6_SUBS.:LIB_E05  is referenced.
   CP_6.:LIB_E05  cannot be made into a system file and is referenced.
   B$JIT_C.:E05TOU  was found in the system file and is never referenced.
   CP_6_C.:E05TOU  was found in the system file and is referenced.
      No diagnostics issued in procedure SYS_FUNC_CHECK.

   Procedure SYS_FUNC_CHECK requires 24 words for executable code.
   Procedure SYS_FUNC_CHECK requires 4 words of local(AUTO) storage.
PL6.E3A0      #011=SYS_FUNC_CHECK File=ZIU$Q2SF.:ZIC0TSI                         FRI 09/05/97 13:27 Page:218
          *** CROSS REFERENCE LISTING ***
**     DENOTES     IDENTIFIER DEFINITION
<<                 IDENTIFIER'S VALUE SET
>>                 IDENTIFIER'S VALUE USED
<>                 IDENTIFIER SET AND/OR USED
--                 IDENTIFIER REFERENCED
PL6.E3A0      #011=SYS_FUNC_CHECK File=ZIU$Q2SF.:ZIC0TSI                         FRI 09/05/97 13:27 Page:219
          MINI XREF LISTING

B$EXCFR.ASL
       634**DCL       634--REDEF
B$EXCFR.ERR
       648**DCL      2068>>ASSIGN
B$EXCFR.ERR.ERR#
       648**DCL       648--REDEF    2066>>IF
B$EXCFR.EVID
       647**DCL       647--REDEF     648--REDEF
B$EXCFR.IR
       635**DCL       635--REDEF
B$EXCFR.PREVSZ
       634**DCL       634--REDEF
B$EXCFR.SUBC
       646**DCL       646--REDEF     647--REDEF     647--REDEF
B$TCB.ALT$
       631**DCL      2066>>IF       2068>>ASSIGN
B$TCB$
         7**DCL      2066>>IF       2068>>ASSIGN
CHECK_ERR
      2066**LABEL    2063--CALLALT
COUNTSF
      2051**DCL      2052--REDEF
DCBSF
      1980**DCL      2062>>ASSIGN
ENCRP_SEEDSF
      2009**DCL      2010--REDEF
ERRCODESF
      2011**DCL      2016--REDEF
FIDSF_RD
      2027**DCL      2028--REDEF
FPT_CHECK
      1789**DCL      2063<>CALL
PL6.E3A0      #011=SYS_FUNC_CHECK File=ZIU$Q2SF.:ZIC0TSI                         FRI 09/05/97 13:27 Page:220
FPT_CHECK.V
      1789**DCL      1789--DCLINIT
FPT_CHECK.V.DCB#
      1789**DCL      2062<<ASSIGN
HELPCODE
      2045**DCL      2050--REDEF
INCL_ERR
      2023**DCL      2069<<ASSIGN
KEYVSF
      1983**DCL      1988--REDEF
KEYVSF.WD_ONE
      1985**DCL      1986--REDEF
M$CHECK
        20**DCL-ENT  2063--CALL
MONITOR_ERR
      2018**DCL      2068<<ASSIGN
MSGCODE
      2017**DCL      2018--REDEF
SYS_FUNC_ERRMSG
         8**DCL-ENT  2070--CALL

PL6.E3A0      #012=SYS_FUNC_PREC File=ZIU$Q2SF.:ZIC0TSI                          FRI 09/05/97 13:27 Page:221
      879        1        /*T***********************************************************/
      880        2        /*T*                                                         */
      881        3        /*T* Copyright (c) Bull HN Information Systems Inc., 1997    */
      882        4        /*T*                                                         */
      883        5        /*T***********************************************************/
      884        6        SYS_FUNC_PREC: PROC ALTRET;
      885        7    1   DCL SYS_FUNC_ERRMSG ENTRY ALTRET;
      886        8        %INCLUDE ZI_GLOBAL_DBUTIL;
      887      186         %SYS_FUNC;
      888      278         %MISC_DCLS;
      889      331        %INCLUDE CP_6;
      890      412        %INCLUDE CP_6_SUBS;
      891      952        %B$TCB;
      892      955        %B$EXCFR;
      893      973        %INCLUDE B_ERRORS_C;
      894     2100        %F$DCB;
      895     2157        %FPT_PRECORD(FPTN=PREC_FPT);
      896     2178        %VLP_VECTOR(FPTN=IKEY,
      897     2179         STCLASS="BASED(IKEY$) ");
      898     2194    1   DCL IKEY$ PTR;
      899     2195
      900     2196    1       PREC_FPT.V.DCB#=DCBSF;
      901     2197    1       PREC_FPT.V.KEYS#=%YES#;
      902     2198    1       NO_KEYSF = %NO#; /* Reset non existant key flag */
      903     2199    1       PREC_FPT.V.N# = COUNTSF;
      904     2200    1       PREC_FPT.V.KEYR# = %YES#;
      905     2201    1       PREC_FPT.KEY_ = VECTOR(KEYVSF);
      906     2202    1       IF DCBADDR(DCBSF) -> F$DCB.ORG# = %INDEXED# THEN
      907     2203    2       DO;
      908     2204    2           IKEY$ = ADDR(PREC_FPT.KEY_);
      909     2205    2           IKEY.W1.VSIZE# = BUFLNSF; /* Adjust size of indexed key */
      910     2206    2           PREC_FPT.V.INDX# = INDEXSF;
      911     2207    2           END;
      912     2208    1       ELSE
      913     2209    1           PREC_FPT.V.INDX# = 0;
      914     2210    1       CALL M$PRECORD(PREC_FPT) ALTRET(PREC_ERR);
      915     2211    1       RETURN;
PL6.E3A0      #012=SYS_FUNC_PREC File=ZIU$Q2SF.:ZIC0TSI                          FRI 09/05/97 13:27 Page:222
      916     2212    1   PREC_ERR:
      917     2213    1       IF B$TCB$->B$TCB.ALT$->B$EXCFR.ERR.ERR# = %E$NOKEY THEN
      918     2214    2       DO;
      919     2215    2           NO_KEYSF = %YES#;
      920     2216    2           RETURN;
      921     2217    2           END;
      922     2218    1       IF KEYVSF.LEN = 0 /* end of file */
      923     2219    1       THEN RETURN;
      924     2220    2       ELSE DO;
      925     2221    2           MONITOR_ERR = B$TCB$->B$TCB.ALT$->B$EXCFR.ERR;
      926     2222    2           INCL_ERR = %YES#;
      927     2223    2           CALL SYS_FUNC_ERRMSG;
      928     2224    2           END;
      929     2225    1       ALTRETURN;
      930     2226    1   END SYS_FUNC_PREC;
      931     2227        %EOD;

PL6.E3A0      #012=SYS_FUNC_PREC File=ZIU$Q2SF.:ZIC0TSI                          FRI 09/05/97 13:27 Page:223
--  Include file information  --

   B_ERRORS_C.:LIB_E05  is referenced.
   CP_6_SUBS.:LIB_E05  is referenced.
   CP_6.:LIB_E05  cannot be made into a system file and is referenced.
   ZI_GLOBAL_DBUTIL.:ZIC0TOU  is referenced.
   B$JIT_C.:E05TOU  was found in the system file and is never referenced.
   CP_6_C.:E05TOU  was found in the system file and is referenced.
      No diagnostics issued in procedure SYS_FUNC_PREC.

   Procedure SYS_FUNC_PREC requires 59 words for executable code.
   Procedure SYS_FUNC_PREC requires 4 words of local(AUTO) storage.

PL6.E3A0      #012=SYS_FUNC_PREC File=ZIU$Q2SF.:ZIC0TSI                          FRI 09/05/97 13:27 Page:224

 Object Unit name= SYS_FUNC_PREC                              File name= ZIU$Q2SF.:ZIC0TOU
 UTS= SEP 05 '97 13:27:59.52 FRI                              Compiler= PL-6/E31         Sev=      00
 SharedLib= :SHARED_SYSTEM                                    Alt SharedLib=


    ****  Control sections  ****

 Sect   Type Bound  Init  Size OctSiz  Section name(segment info)
    0   DCB   even  none     0      0  M$LO
    1   DCB   even  none     0      0  M$UC
    2   Data  even  none    10     12  SYS_FUNC_PREC
    3   Proc  even  none    59     73  SYS_FUNC_PREC
    4  RoData even  none     6      6  SYS_FUNC_PREC

    ****  Entry defs  ****

                              Check   Calling
                             calling  sequence
  Sect OctLoc Primary Altret sequence   type   Parms  Name
     3      0   yes    yes     yes      Std        0  SYS_FUNC_PREC

  ****  Entry refs  ****

         Check        Calling
        calling       sequence
Altret sequence SRef   type   Args  Name
 yes     yes           Std       0 SYS_FUNC_ERRMSG
                       nStd      0 X66_AUTO_0
                       nStd      0 X66_ARET
                       nStd      0 X66_AALT
PL6.E3A0      #012=SYS_FUNC_PREC File=ZIU$Q2SF.:ZIC0TSI                          FRI 09/05/97 13:27 Page:225

  ****  Data refs  ****

  Flags:  r = read only, s = secondary
Flgs Name                             Flgs Name                             Flgs Name
     BLKLSF                                KEYLSF                                KEYXSF
     DCBSF                                 ORGSF                                 KEYSF
     KEYVSF                                ACSSF                                 NOTIMESF
     FUNSF                                 ASNSF                                 TESTSF
     XTENSIZESF                            DISPSF                                WAITSF
     VFCSF                                 FULLSF                                BKUPSF
     BUFLNSF                               BUFSF                                 SOURCESF
     DESTSF                                DATESF                                TIMESF
     UTSSF                                 DAYSF                                 TSTAMPSF
     ENCRP_SEEDSF                          ERRCODESF                             MSGCODE
     INCL_ERR                              ERR_INSERT                            FIDSF_RD
     ACNT                                  EXISTSF                               SHARESF
     DCBNMSF                               KEYRSF                                NO_KEYSF
     REASGNSF                              CARRY_ATTRIBUTESF                     SUBMESSF
     SPKY_OPNSF                            POSSF                                 ERRFLGSF
     MERGESF                               FSA_FLAG                              RELGSF
     UNUSED                                HELPCODE                              COUNTSF
     INDEXSF                               GAP                                   PSNSF
     ACNTSF                                KEY_SHADWSF                           REC$
     RB                                    RE                                    IE
     IB                                    CNT                                   ICNT
     RCNT                                  SCNT                                  FIRST_SET
     RETCNT                                DMPCNT                                KCNT
     ACNT_IDX                              I                                     J
     K                                     X                                     STEPCC
     I_O_BUF$                              OUT_INDX                              I_O_SIZE
     REC_DATA_LN                           M$LO                                  B$TCB$
     B$ROS$                                B$JIT$                                KEYFID
     I_O_KEY                               RESTART                               BREAK_FLAG
     ICHKSUM                               ITMCNT                                GAP1
     M$UC
PL6.E3A0      #012=SYS_FUNC_PREC File=ZIU$Q2SF.:ZIC0TSI                          FRI 09/05/97 13:27 Page:226

  ****  Segment refs  ****

  Flags:  r = read only, s = secondary
Flgs Name                             Flgs Name                             Flgs Name
     ISSID                                 NULLSID                               ROSID
PL6.E3A0      #012=SYS_FUNC_PREC File=ZIU$Q2SF.:ZIC0TSI                          FRI 09/05/97 13:27 Page:227


      879        1        /*T***********************************************************/
      880        2        /*T*                                                         */
      881        3        /*T* Copyright (c) Bull HN Information Systems Inc., 1997    */
      882        4        /*T*                                                         */
      883        5        /*T***********************************************************/
      884        6        SYS_FUNC_PREC: PROC ALTRET;

      6  3 000000   000000 700200 xent  SYS_FUNC_PR* TSX0  ! X66_AUTO_0
         3 000001   000004 000000                    ZERO    4,0

      885        7    1   DCL SYS_FUNC_ERRMSG ENTRY ALTRET;
      886        8        %INCLUDE ZI_GLOBAL_DBUTIL;
      887      186         %SYS_FUNC;
      888      278         %MISC_DCLS;
      889      331        %INCLUDE CP_6;
      890      412        %INCLUDE CP_6_SUBS;
      891      952        %B$TCB;
      892      955        %B$EXCFR;
      893      973        %INCLUDE B_ERRORS_C;
      894     2100        %F$DCB;
      895     2157        %FPT_PRECORD(FPTN=PREC_FPT);
      896     2178        %VLP_VECTOR(FPTN=IKEY,
      897     2179         STCLASS="BASED(IKEY$) ");
      898     2194    1   DCL IKEY$ PTR;
      899     2195
      900     2196    1       PREC_FPT.V.DCB#=DCBSF;

   2196  3 000002   000000 220000 xsym               LDX0    DCBSF
         3 000003   000006 740000 2                  STX0    PREC_FPT+6

      901     2197    1       PREC_FPT.V.KEYS#=%YES#;

   2197  3 000004   400000 236007                    LDQ     -131072,DL
         3 000005   000006 256000 2                  ORSQ    PREC_FPT+6

      902     2198    1       NO_KEYSF = %NO#; /* Reset non existant key flag */
PL6.E3A0      #012=SYS_FUNC_PREC File=ZIU$Q2SF.:ZIC0TSI                          FRI 09/05/97 13:27 Page:228

   2198  3 000006   000000 450000 xsym               STZ     NO_KEYSF

      903     2199    1       PREC_FPT.V.N# = COUNTSF;

   2199  3 000007   000000 235000 xsym               LDA     COUNTSF
         3 000010   000007 755000 2                  STA     PREC_FPT+7

      904     2200    1       PREC_FPT.V.KEYR# = %YES#;

   2200  3 000011   200000 236007                    LDQ     65536,DL
         3 000012   000006 256000 2                  ORSQ    PREC_FPT+6

      905     2201    1       PREC_FPT.KEY_ = VECTOR(KEYVSF);

   2201  3 000013   000000 237000 4                  LDAQ    0
         3 000014   000002 757000 2                  STAQ    PREC_FPT+2

      906     2202    1       IF DCBADDR(DCBSF) -> F$DCB.ORG# = %INDEXED# THEN

   2202  3 000015   000002 470400 4                  LDP0    2
         3 000016   000000 471500                    LDP1    0,,PR0
         3 000017   100000 473510                    LDP3    0,X0,PR1
         3 000020   300032 236100                    LDQ     26,,PR3
         3 000021   777000 376003                    ANQ     -512,DU
         3 000022   006000 116003                    CMPQ    3072,DU
         3 000023   000037 601000 3                  TNZ     s:2209

      907     2203    2       DO;

      908     2204    2           IKEY$ = ADDR(PREC_FPT.KEY_);

   2204  3 000024   000003 236000 4                  LDQ     3
         3 000025   200003 756100                    STQ     IKEY$,,AUTO

      909     2205    2           IKEY.W1.VSIZE# = BUFLNSF; /* Adjust size of indexed key */

PL6.E3A0      #012=SYS_FUNC_PREC File=ZIU$Q2SF.:ZIC0TSI                          FRI 09/05/97 13:27 Page:229
   2205  3 000026   200003 474500                    LDP4    IKEY$,,AUTO
         3 000027   000000 236000 xsym               LDQ     BUFLNSF
         3 000030   000020 736000                    QLS     16
         3 000031   400000 676100                    ERQ     0,,PR4
         3 000032   000004 376000 4                  ANQ     4
         3 000033   400000 656100                    ERSQ    0,,PR4

      910     2206    2           PREC_FPT.V.INDX# = INDEXSF;

   2206  3 000034   000000 236000 xsym               LDQ     INDEXSF
         3 000035   000006 552004 2                  STBQ    PREC_FPT+6,'04'O

      911     2207    2           END;

   2207  3 000036   000041 710000 3                  TRA     s:2210

      912     2208    1       ELSE
      913     2209    1           PREC_FPT.V.INDX# = 0;

   2209  3 000037   000000 236003                    LDQ     0,DU
         3 000040   000006 552004 2                  STBQ    PREC_FPT+6,'04'O

      914     2210    1       CALL M$PRECORD(PREC_FPT) ALTRET(PREC_ERR);

   2210  3 000041   000000 630400 2                  EPPR0   PREC_FPT
         3 000042   440003 713400                    CLIMB   alt,+16387
         3 000043   401000 401760                    pmme    nvectors=3
         3 000044   000046 702000 3                  TSX2    PREC_ERR

      915     2211    1       RETURN;

   2211  3 000045   000000 702200 xent               TSX2  ! X66_ARET

      916     2212    1   PREC_ERR:
      917     2213    1       IF B$TCB$->B$TCB.ALT$->B$EXCFR.ERR.ERR# = %E$NOKEY THEN

   2213  3 000046   000000 470400 xsym  PREC_ERR     LDP0    B$TCB$
PL6.E3A0      #012=SYS_FUNC_PREC File=ZIU$Q2SF.:ZIC0TSI                          FRI 09/05/97 13:27 Page:230
         3 000047   000000 471500                    LDP1    0,,PR0
         3 000050   100102 236100                    LDQ     66,,PR1
         3 000051   377770 376007                    ANQ     131064,DL
         3 000052   001020 116007                    CMPQ    528,DL
         3 000053   000057 601000 3                  TNZ     s:2218

      918     2214    2       DO;

      919     2215    2           NO_KEYSF = %YES#;

   2215  3 000054   400000 236003                    LDQ     -131072,DU
         3 000055   000000 756000 xsym               STQ     NO_KEYSF

      920     2216    2           RETURN;

   2216  3 000056   000000 702200 xent               TSX2  ! X66_ARET

      921     2217    2           END;
      922     2218    1       IF KEYVSF.LEN = 0 /* end of file */

   2218  3 000057   000000 236000 xsym               LDQ     KEYVSF
         3 000060   777000 316003                    CANQ    -512,DU
         3 000061   000063 601000 3                  TNZ     s:2221

      923     2219    1       THEN RETURN;

   2219  3 000062   000000 702200 xent               TSX2  ! X66_ARET

      924     2220    2       ELSE DO;

      925     2221    2           MONITOR_ERR = B$TCB$->B$TCB.ALT$->B$EXCFR.ERR;

   2221  3 000063   100102 236100                    LDQ     66,,PR1
         3 000064   000000 756000 xsym               STQ     MSGCODE

      926     2222    2           INCL_ERR = %YES#;

PL6.E3A0      #012=SYS_FUNC_PREC File=ZIU$Q2SF.:ZIC0TSI                          FRI 09/05/97 13:27 Page:231
   2222  3 000065   400000 236003                    LDQ     -131072,DU
         3 000066   000000 756000 xsym               STQ     INCL_ERR

      927     2223    2           CALL SYS_FUNC_ERRMSG;

   2223  3 000067   000005 631400 4                  EPPR1   5
         3 000070   000000 701000 xent               TSX1    SYS_FUNC_ERRMSG
         3 000071   000000 011000                    NOP     0

      928     2224    2           END;

      929     2225    1       ALTRETURN;

   2225  3 000072   000000 702200 xent               TSX2  ! X66_AALT

PREC_FPT
 Sect OctLoc
   2     000   000003 777640   000006 006000   000000 177640   000000 006014    ................
   2     004   000000 177640   000000 006014   000000 000000   000000 000000    ................
   2     010   000000 000000   0***** ******                                    ........

(unnamed)
 Sect OctLoc
   4     000   000077 777640   000000 006000   000000 006003   000002 006000    .?..............
   4     004   777777 600000   000000 000000                                    ........
      930     2226    1   END SYS_FUNC_PREC;
      931     2227        %EOD;

PL6.E3A0      #012=SYS_FUNC_PREC File=ZIU$Q2SF.:ZIC0TSI                          FRI 09/05/97 13:27 Page:232
--  Include file information  --

   B_ERRORS_C.:LIB_E05  is referenced.
   CP_6_SUBS.:LIB_E05  is referenced.
   CP_6.:LIB_E05  cannot be made into a system file and is referenced.
   ZI_GLOBAL_DBUTIL.:ZIC0TOU  is referenced.
   B$JIT_C.:E05TOU  was found in the system file and is never referenced.
   CP_6_C.:E05TOU  was found in the system file and is referenced.
      No diagnostics issued in procedure SYS_FUNC_PREC.

   Procedure SYS_FUNC_PREC requires 59 words for executable code.
   Procedure SYS_FUNC_PREC requires 4 words of local(AUTO) storage.
PL6.E3A0      #012=SYS_FUNC_PREC File=ZIU$Q2SF.:ZIC0TSI                          FRI 09/05/97 13:27 Page:233
          *** CROSS REFERENCE LISTING ***
**     DENOTES     IDENTIFIER DEFINITION
<<                 IDENTIFIER'S VALUE SET
>>                 IDENTIFIER'S VALUE USED
<>                 IDENTIFIER SET AND/OR USED
--                 IDENTIFIER REFERENCED
PL6.E3A0      #012=SYS_FUNC_PREC File=ZIU$Q2SF.:ZIC0TSI                          FRI 09/05/97 13:27 Page:234
          MINI XREF LISTING

B$EXCFR.ASL
       956**DCL       956--REDEF
B$EXCFR.ERR
       970**DCL      2221>>ASSIGN
B$EXCFR.ERR.ERR#
       970**DCL       970--REDEF    2213>>IF
B$EXCFR.EVID
       969**DCL       969--REDEF     970--REDEF
B$EXCFR.IR
       957**DCL       957--REDEF
B$EXCFR.PREVSZ
       956**DCL       956--REDEF
B$EXCFR.SUBC
       968**DCL       968--REDEF     969--REDEF     969--REDEF
B$TCB.ALT$
       953**DCL      2213>>IF       2221>>ASSIGN
B$TCB$
       315**DCL      2213>>IF       2221>>ASSIGN
BUFLNSF
       216**DCL      2205>>ASSIGN
COUNTSF
       267**DCL       268--REDEF    2199>>ASSIGN
DCBSF
       196**DCL      2196>>ASSIGN   2202--IF
ENCRP_SEEDSF
       225**DCL       226--REDEF
ERRCODESF
       227**DCL       232--REDEF
F$DCB.ACTPOS
      2133**DCL      2133--REDEF
F$DCB.ARS#
      2107**DCL      2107--REDEF
PL6.E3A0      #012=SYS_FUNC_PREC File=ZIU$Q2SF.:ZIC0TSI                          FRI 09/05/97 13:27 Page:235
F$DCB.ATTR
      2126**DCL      2127--REDEF
F$DCB.BORROW
      2141**DCL      2141--REDEF    2141--REDEF    2141--REDEF
F$DCB.DCBNAME.L
      2155**DCL      2155--IMP-SIZ
F$DCB.EOMCHAR#
      2111**DCL      2111--REDEF
F$DCB.FLDID
      2136**DCL      2136--REDEF
F$DCB.FORM$
      2130**DCL      2130--REDEF
F$DCB.FSECT
      2146**DCL      2146--REDEF
F$DCB.FSN#
      2123**DCL      2123--REDEF    2123--REDEF    2124--REDEF
F$DCB.HEADER$
      2129**DCL      2129--REDEF
F$DCB.IXTNSIZE#
      2127**DCL      2127--REDEF
F$DCB.LASTSTA$
      2116**DCL      2116--REDEF
F$DCB.LVL
      2142**DCL      2142--REDEF
F$DCB.NAME#.C
      2117**DCL      2117--REDEF
F$DCB.NOEOF
      2139**DCL      2139--REDEF
F$DCB.NRECS#
      2128**DCL      2128--REDEF
F$DCB.NRECX
      2147**DCL      2147--REDEF
F$DCB.OHDR
      2139**DCL      2139--REDEF
F$DCB.ORG#
      2122**DCL      2122--REDEF    2202>>IF
PL6.E3A0      #012=SYS_FUNC_PREC File=ZIU$Q2SF.:ZIC0TSI                          FRI 09/05/97 13:27 Page:236
F$DCB.PRECNO
      2145**DCL      2145--REDEF
F$DCB.RCSZ
      2151**DCL      2151--REDEF
F$DCB.RES#
      2118**DCL      2118--REDEF
F$DCB.SETX
      2130**DCL      2130--REDEF
F$DCB.TAB$
      2130**DCL      2130--REDEF
F$DCB.TDA
      2144**DCL      2145--REDEF
F$DCB.WSN#
      2118**DCL      2118--REDEF
FIDSF_RD
       243**DCL       244--REDEF
HELPCODE
       261**DCL       266--REDEF
ICHKSUM
       326**DCL       327--REDEF
IKEY.W1.VSIZE#
      2190**DCL      2205<<ASSIGN
IKEY.W2
      2191**DCL      2192--REDEF
IKEY$
      2194**DCL      2190--IMP-PTR  2204<<ASSIGN   2205>>ASSIGN
INCL_ERR
       239**DCL      2222<<ASSIGN
INDEXSF
       269**DCL      2206>>ASSIGN
I_O_BUF$
       304**DCL       305--IMP-PTR
KEYVSF
       199**DCL       204--REDEF    2201--ASSIGN
KEYVSF.LEN
       200**DCL      2218>>IF
PL6.E3A0      #012=SYS_FUNC_PREC File=ZIU$Q2SF.:ZIC0TSI                          FRI 09/05/97 13:27 Page:237
KEYVSF.WD_ONE
       201**DCL       202--REDEF
M$PRECORD
       344**DCL-ENT  2210--CALL
MONITOR_ERR
       234**DCL      2221<<ASSIGN
MSGCODE
       233**DCL       234--REDEF
NO_KEYSF
       250**DCL      2198<<ASSIGN   2215<<ASSIGN
PREC_ERR
      2213**LABEL    2210--CALLALT
PREC_FPT
      2168**DCL      2210<>CALL
PREC_FPT.KEY_
      2168**DCL      2201<<ASSIGN   2204--ASSIGN
PREC_FPT.V
      2170**DCL      2168--DCLINIT
PREC_FPT.V.DCB#
      2170**DCL      2196<<ASSIGN
PREC_FPT.V.INDX#
      2173**DCL      2206<<ASSIGN   2209<<ASSIGN
PREC_FPT.V.KEYR#
      2171**DCL      2200<<ASSIGN
PREC_FPT.V.KEYS#
      2171**DCL      2197<<ASSIGN
PREC_FPT.V.N#
      2174**DCL      2199<<ASSIGN
REC$
       285**DCL       308--IMP-PTR
REC_DATA_LN
       313**DCL       312--IMP-SIZ
SYS_FUNC_ERRMSG
         7**DCL-ENT  2223--CALL

PL6.E3A0      #013=SYS_FUNC_DELREC File=ZIU$Q2SF.:ZIC0TSI                        FRI 09/05/97 13:28 Page:238
      932        1        /*T***********************************************************/
      933        2        /*T*                                                         */
      934        3        /*T* Copyright (c) Bull HN Information Systems Inc., 1997    */
      935        4        /*T*                                                         */
      936        5        /*T***********************************************************/
      937        6        SYS_FUNC_DELREC: PROC ALTRET;
      938        7    1   DCL SYS_FUNC_ERRMSG ENTRY ALTRET;
      939        8        %INCLUDE ZI_GLOBAL_DBUTIL;
      940      186         %SYS_FUNC;
      941      278         %MISC_DCLS;
      942      331        %INCLUDE CP_6;
      943      412        %INCLUDE CP_6_SUBS;
      944      952        %B$TCB;
      945      955        %F$DCB;
      946     1012        %B$EXCFR;
      947     1030        %FPT_DELREC;
      948     1049        %VLP_VECTOR(FPTN=IKEY,
      949     1050         STCLASS="BASED(IKEY$) ");
      950     1065    1   DCL IKEY$ PTR;
      951     1066
      952     1067    1       FPT_DELREC.V.DCB# = DCBSF;
      953     1068    1       FPT_DELREC.LKEY_ = VECTOR(NIL);
      954     1069    1       FPT_DELREC.KEY_ = VECTOR(KEYVSF);
      955     1070    1       IF DCBADDR(DCBSF) -> F$DCB.ORG# = %INDEXED# THEN
      956     1071    2       DO;
      957     1072    2           IKEY$ = ADDR(FPT_DELREC.KEY_);
      958     1073    2           IKEY.W1.VSIZE# = BUFLNSF; /* Adjust size of indexed key */
      959     1074    2           FPT_DELREC.V.INDX# = INDEXSF;
      960     1075    2           END;
      961     1076    1       ELSE
      962     1077    1           FPT_DELREC.V.INDX# = 0;
      963     1078    1       CALL M$DELREC(FPT_DELREC) ALTRET(ALTRTN);
      964     1079    1       RETURN;
      965     1080
      966     1081    1   ALTRTN:
      967     1082    1       MONITOR_ERR = B$TCB$->B$TCB.ALT$->B$EXCFR.ERR;
      968     1083    1       CALL SYS_FUNC_ERRMSG;
PL6.E3A0      #013=SYS_FUNC_DELREC File=ZIU$Q2SF.:ZIC0TSI                        FRI 09/05/97 13:28 Page:239
      969     1084    1       ALTRETURN;
      970     1085    1   END SYS_FUNC_DELREC;

PL6.E3A0      #013=SYS_FUNC_DELREC File=ZIU$Q2SF.:ZIC0TSI                        FRI 09/05/97 13:28 Page:240
--  Include file information  --

   CP_6_SUBS.:LIB_E05  is referenced.
   CP_6.:LIB_E05  cannot be made into a system file and is referenced.
   ZI_GLOBAL_DBUTIL.:ZIC0TOU  is referenced.
   B$JIT_C.:E05TOU  was found in the system file and is never referenced.
   CP_6_C.:E05TOU  was found in the system file and is referenced.
      No diagnostics issued in procedure SYS_FUNC_DELREC.

   Procedure SYS_FUNC_DELREC requires 41 words for executable code.
   Procedure SYS_FUNC_DELREC requires 4 words of local(AUTO) storage.

    No errors detected in file ZIU$Q2SF.:ZIC0TSI    .

PL6.E3A0      #013=SYS_FUNC_DELREC File=ZIU$Q2SF.:ZIC0TSI                        FRI 09/05/97 13:28 Page:241

 Object Unit name= SYS_FUNC_DELREC                            File name= ZIU$Q2SF.:ZIC0TOU
 UTS= SEP 05 '97 13:28:11.36 FRI                              Compiler= PL-6/E31         Sev=      00
 SharedLib= :SHARED_SYSTEM                                    Alt SharedLib=


    ****  Control sections  ****

 Sect   Type Bound  Init  Size OctSiz  Section name(segment info)
    0   DCB   even  none     0      0  M$LO
    1   DCB   even  none     0      0  M$UC
    2   Data  even  none    10     12  SYS_FUNC_DELREC
    3   Proc  even  none    41     51  SYS_FUNC_DELREC
    4  RoData even  none     8     10  SYS_FUNC_DELREC

    ****  Entry defs  ****

                              Check   Calling
                             calling  sequence
  Sect OctLoc Primary Altret sequence   type   Parms  Name
     3      0   yes    yes     yes      Std        0  SYS_FUNC_DELREC

  ****  Entry refs  ****

         Check        Calling
        calling       sequence
Altret sequence SRef   type   Args  Name
 yes     yes           Std       0 SYS_FUNC_ERRMSG
                       nStd      0 X66_AUTO_0
                       nStd      0 X66_ARET
                       nStd      0 X66_AALT
PL6.E3A0      #013=SYS_FUNC_DELREC File=ZIU$Q2SF.:ZIC0TSI                        FRI 09/05/97 13:28 Page:242

  ****  Data refs  ****

  Flags:  r = read only, s = secondary
Flgs Name                             Flgs Name                             Flgs Name
     BLKLSF                                KEYLSF                                KEYXSF
     DCBSF                                 ORGSF                                 KEYSF
     KEYVSF                                ACSSF                                 NOTIMESF
     FUNSF                                 ASNSF                                 TESTSF
     XTENSIZESF                            DISPSF                                WAITSF
     VFCSF                                 FULLSF                                BKUPSF
     BUFLNSF                               BUFSF                                 SOURCESF
     DESTSF                                DATESF                                TIMESF
     UTSSF                                 DAYSF                                 TSTAMPSF
     ENCRP_SEEDSF                          ERRCODESF                             MSGCODE
     INCL_ERR                              ERR_INSERT                            FIDSF_RD
     ACNT                                  EXISTSF                               SHARESF
     DCBNMSF                               KEYRSF                                NO_KEYSF
     REASGNSF                              CARRY_ATTRIBUTESF                     SUBMESSF
     SPKY_OPNSF                            POSSF                                 ERRFLGSF
     MERGESF                               FSA_FLAG                              RELGSF
     UNUSED                                HELPCODE                              COUNTSF
     INDEXSF                               GAP                                   PSNSF
     ACNTSF                                KEY_SHADWSF                           REC$
     RB                                    RE                                    IE
     IB                                    CNT                                   ICNT
     RCNT                                  SCNT                                  FIRST_SET
     RETCNT                                DMPCNT                                KCNT
     ACNT_IDX                              I                                     J
     K                                     X                                     STEPCC
     I_O_BUF$                              OUT_INDX                              I_O_SIZE
     REC_DATA_LN                           M$LO                                  B$TCB$
     B$ROS$                                B$JIT$                                KEYFID
     I_O_KEY                               RESTART                               BREAK_FLAG
     ICHKSUM                               ITMCNT                                GAP1
     M$UC
PL6.E3A0      #013=SYS_FUNC_DELREC File=ZIU$Q2SF.:ZIC0TSI                        FRI 09/05/97 13:28 Page:243

  ****  Segment refs  ****

  Flags:  r = read only, s = secondary
Flgs Name                             Flgs Name                             Flgs Name
     ISSID                                 NULLSID                               ROSID
PL6.E3A0      #013=SYS_FUNC_DELREC File=ZIU$Q2SF.:ZIC0TSI                        FRI 09/05/97 13:28 Page:244


      932        1        /*T***********************************************************/
      933        2        /*T*                                                         */
      934        3        /*T* Copyright (c) Bull HN Information Systems Inc., 1997    */
      935        4        /*T*                                                         */
      936        5        /*T***********************************************************/
      937        6        SYS_FUNC_DELREC: PROC ALTRET;

      6  3 000000   000000 700200 xent  SYS_FUNC_DE* TSX0  ! X66_AUTO_0
         3 000001   000004 000000                    ZERO    4,0

      938        7    1   DCL SYS_FUNC_ERRMSG ENTRY ALTRET;
      939        8        %INCLUDE ZI_GLOBAL_DBUTIL;
      940      186         %SYS_FUNC;
      941      278         %MISC_DCLS;
      942      331        %INCLUDE CP_6;
      943      412        %INCLUDE CP_6_SUBS;
      944      952        %B$TCB;
      945      955        %F$DCB;
      946     1012        %B$EXCFR;
      947     1030        %FPT_DELREC;
      948     1049        %VLP_VECTOR(FPTN=IKEY,
      949     1050         STCLASS="BASED(IKEY$) ");
      950     1065    1   DCL IKEY$ PTR;
      951     1066
      952     1067    1       FPT_DELREC.V.DCB# = DCBSF;

   1067  3 000002   000000 220000 xsym               LDX0    DCBSF
         3 000003   000010 740000 2                  STX0    FPT_DELREC+8

      953     1068    1       FPT_DELREC.LKEY_ = VECTOR(NIL);

   1068  3 000004   000000 237000 4                  LDAQ    0
         3 000005   000004 757000 2                  STAQ    FPT_DELREC+4

      954     1069    1       FPT_DELREC.KEY_ = VECTOR(KEYVSF);

PL6.E3A0      #013=SYS_FUNC_DELREC File=ZIU$Q2SF.:ZIC0TSI                        FRI 09/05/97 13:28 Page:245
   1069  3 000006   000002 237000 4                  LDAQ    2
         3 000007   000002 757000 2                  STAQ    FPT_DELREC+2

      955     1070    1       IF DCBADDR(DCBSF) -> F$DCB.ORG# = %INDEXED# THEN

   1070  3 000010   000004 470400 4                  LDP0    4
         3 000011   000000 471500                    LDP1    0,,PR0
         3 000012   100000 473510                    LDP3    0,X0,PR1
         3 000013   300032 236100                    LDQ     26,,PR3
         3 000014   777000 376003                    ANQ     -512,DU
         3 000015   006000 116003                    CMPQ    3072,DU
         3 000016   000032 601000 3                  TNZ     s:1077

      956     1071    2       DO;

      957     1072    2           IKEY$ = ADDR(FPT_DELREC.KEY_);

   1072  3 000017   000005 236000 4                  LDQ     5
         3 000020   200003 756100                    STQ     IKEY$,,AUTO

      958     1073    2           IKEY.W1.VSIZE# = BUFLNSF; /* Adjust size of indexed key */

   1073  3 000021   200003 474500                    LDP4    IKEY$,,AUTO
         3 000022   000000 236000 xsym               LDQ     BUFLNSF
         3 000023   000020 736000                    QLS     16
         3 000024   400000 676100                    ERQ     0,,PR4
         3 000025   000006 376000 4                  ANQ     6
         3 000026   400000 656100                    ERSQ    0,,PR4

      959     1074    2           FPT_DELREC.V.INDX# = INDEXSF;

   1074  3 000027   000000 236000 xsym               LDQ     INDEXSF
         3 000030   000010 552004 2                  STBQ    FPT_DELREC+8,'04'O

      960     1075    2           END;

   1075  3 000031   000034 710000 3                  TRA     s:1078
PL6.E3A0      #013=SYS_FUNC_DELREC File=ZIU$Q2SF.:ZIC0TSI                        FRI 09/05/97 13:28 Page:246

      961     1076    1       ELSE
      962     1077    1           FPT_DELREC.V.INDX# = 0;

   1077  3 000032   000000 236003                    LDQ     0,DU
         3 000033   000010 552004 2                  STBQ    FPT_DELREC+8,'04'O

      963     1078    1       CALL M$DELREC(FPT_DELREC) ALTRET(ALTRTN);

   1078  3 000034   000000 630400 2                  EPPR0   FPT_DELREC
         3 000035   440002 713400                    CLIMB   alt,+16386
         3 000036   401400 401760                    pmme    nvectors=4
         3 000037   000041 702000 3                  TSX2    ALTRTN

      964     1079    1       RETURN;

   1079  3 000040   000000 702200 xent               TSX2  ! X66_ARET

      965     1080
      966     1081    1   ALTRTN:
      967     1082    1       MONITOR_ERR = B$TCB$->B$TCB.ALT$->B$EXCFR.ERR;

   1082  3 000041   000000 470400 xsym  ALTRTN       LDP0    B$TCB$
         3 000042   000000 471500                    LDP1    0,,PR0
         3 000043   100102 236100                    LDQ     66,,PR1
         3 000044   000000 756000 xsym               STQ     MSGCODE

      968     1083    1       CALL SYS_FUNC_ERRMSG;

   1083  3 000045   000007 631400 4                  EPPR1   7
         3 000046   000000 701000 xent               TSX1    SYS_FUNC_ERRMSG
         3 000047   000000 011000                    NOP     0

      969     1084    1       ALTRETURN;

   1084  3 000050   000000 702200 xent               TSX2  ! X66_AALT

PL6.E3A0      #013=SYS_FUNC_DELREC File=ZIU$Q2SF.:ZIC0TSI                        FRI 09/05/97 13:28 Page:247
FPT_DELREC
 Sect OctLoc
   2     000   000001 777640   000010 006000   000000 177640   000000 006014    ................
   2     004   000000 177640   000000 006014   000000 177640   000000 006014    ................
   2     010   000000 000000   000000 000000                                    ........

(unnamed)
 Sect OctLoc
   4     000   000000 177640   000000 006014   000077 777640   000000 006000    .........?......
   4     004   000000 006003   000002 006000   777777 600000   000000 000000    ................
      970     1085    1   END SYS_FUNC_DELREC;

PL6.E3A0      #013=SYS_FUNC_DELREC File=ZIU$Q2SF.:ZIC0TSI                        FRI 09/05/97 13:28 Page:248
--  Include file information  --

   CP_6_SUBS.:LIB_E05  is referenced.
   CP_6.:LIB_E05  cannot be made into a system file and is referenced.
   ZI_GLOBAL_DBUTIL.:ZIC0TOU  is referenced.
   B$JIT_C.:E05TOU  was found in the system file and is never referenced.
   CP_6_C.:E05TOU  was found in the system file and is referenced.
      No diagnostics issued in procedure SYS_FUNC_DELREC.

   Procedure SYS_FUNC_DELREC requires 41 words for executable code.
   Procedure SYS_FUNC_DELREC requires 4 words of local(AUTO) storage.

    No errors detected in file ZIU$Q2SF.:ZIC0TSI    .
PL6.E3A0      #013=SYS_FUNC_DELREC File=ZIU$Q2SF.:ZIC0TSI                        FRI 09/05/97 13:28 Page:249
          *** CROSS REFERENCE LISTING ***
**     DENOTES     IDENTIFIER DEFINITION
<<                 IDENTIFIER'S VALUE SET
>>                 IDENTIFIER'S VALUE USED
<>                 IDENTIFIER SET AND/OR USED
--                 IDENTIFIER REFERENCED
PL6.E3A0      #013=SYS_FUNC_DELREC File=ZIU$Q2SF.:ZIC0TSI                        FRI 09/05/97 13:28 Page:250
          MINI XREF LISTING

ALTRTN
      1082**LABEL    1078--CALLALT
B$EXCFR.ASL
      1013**DCL      1013--REDEF
B$EXCFR.ERR
      1027**DCL      1082>>ASSIGN
B$EXCFR.ERR.ERR#
      1027**DCL      1027--REDEF
B$EXCFR.EVID
      1026**DCL      1026--REDEF    1027--REDEF
B$EXCFR.IR
      1014**DCL      1014--REDEF
B$EXCFR.PREVSZ
      1013**DCL      1013--REDEF
B$EXCFR.SUBC
      1025**DCL      1025--REDEF    1026--REDEF    1026--REDEF
B$TCB.ALT$
       953**DCL      1082>>ASSIGN
B$TCB$
       315**DCL      1082>>ASSIGN
BUFLNSF
       216**DCL      1073>>ASSIGN
COUNTSF
       267**DCL       268--REDEF
DCBSF
       196**DCL      1067>>ASSIGN   1070--IF
ENCRP_SEEDSF
       225**DCL       226--REDEF
ERRCODESF
       227**DCL       232--REDEF
F$DCB.ACTPOS
       988**DCL       988--REDEF
PL6.E3A0      #013=SYS_FUNC_DELREC File=ZIU$Q2SF.:ZIC0TSI                        FRI 09/05/97 13:28 Page:251
F$DCB.ARS#
       962**DCL       962--REDEF
F$DCB.ATTR
       981**DCL       982--REDEF
F$DCB.BORROW
       996**DCL       996--REDEF     996--REDEF     996--REDEF
F$DCB.DCBNAME.L
      1010**DCL      1010--IMP-SIZ
F$DCB.EOMCHAR#
       966**DCL       966--REDEF
F$DCB.FLDID
       991**DCL       991--REDEF
F$DCB.FORM$
       985**DCL       985--REDEF
F$DCB.FSECT
      1001**DCL      1001--REDEF
F$DCB.FSN#
       978**DCL       978--REDEF     978--REDEF     979--REDEF
F$DCB.HEADER$
       984**DCL       984--REDEF
F$DCB.IXTNSIZE#
       982**DCL       982--REDEF
F$DCB.LASTSTA$
       971**DCL       971--REDEF
F$DCB.LVL
       997**DCL       997--REDEF
F$DCB.NAME#.C
       972**DCL       972--REDEF
F$DCB.NOEOF
       994**DCL       994--REDEF
F$DCB.NRECS#
       983**DCL       983--REDEF
F$DCB.NRECX
      1002**DCL      1002--REDEF
F$DCB.OHDR
       994**DCL       994--REDEF
PL6.E3A0      #013=SYS_FUNC_DELREC File=ZIU$Q2SF.:ZIC0TSI                        FRI 09/05/97 13:28 Page:252
F$DCB.ORG#
       977**DCL       977--REDEF    1070>>IF
F$DCB.PRECNO
      1000**DCL      1000--REDEF
F$DCB.RCSZ
      1006**DCL      1006--REDEF
F$DCB.RES#
       973**DCL       973--REDEF
F$DCB.SETX
       985**DCL       985--REDEF
F$DCB.TAB$
       985**DCL       985--REDEF
F$DCB.TDA
       999**DCL      1000--REDEF
F$DCB.WSN#
       973**DCL       973--REDEF
FIDSF_RD
       243**DCL       244--REDEF
FPT_DELREC
      1041**DCL      1078<>CALL
FPT_DELREC.KEY_
      1041**DCL      1069<<ASSIGN   1072--ASSIGN
FPT_DELREC.LKEY_
      1043**DCL      1068<<ASSIGN
FPT_DELREC.V
      1044**DCL      1041--DCLINIT
FPT_DELREC.V.DCB#
      1045**DCL      1067<<ASSIGN
FPT_DELREC.V.INDX#
      1045**DCL      1074<<ASSIGN   1077<<ASSIGN
HELPCODE
       261**DCL       266--REDEF
ICHKSUM
       326**DCL       327--REDEF
IKEY.W1.VSIZE#
      1061**DCL      1073<<ASSIGN
PL6.E3A0      #013=SYS_FUNC_DELREC File=ZIU$Q2SF.:ZIC0TSI                        FRI 09/05/97 13:28 Page:253
IKEY.W2
      1062**DCL      1063--REDEF
IKEY$
      1065**DCL      1061--IMP-PTR  1072<<ASSIGN   1073>>ASSIGN
INDEXSF
       269**DCL      1074>>ASSIGN
I_O_BUF$
       304**DCL       305--IMP-PTR
KEYVSF
       199**DCL       204--REDEF    1069--ASSIGN
KEYVSF.WD_ONE
       201**DCL       202--REDEF
M$DELREC
       342**DCL-ENT  1078--CALL
MONITOR_ERR
       234**DCL      1082<<ASSIGN
MSGCODE
       233**DCL       234--REDEF
REC$
       285**DCL       308--IMP-PTR
REC_DATA_LN
       313**DCL       312--IMP-SIZ
SYS_FUNC_ERRMSG
         7**DCL-ENT  1083--CALL
