
PL6.E3A0      #001=ZIU$QUEMGR File=ZIU$QUEMGR.:ZIC0TSI                           FRI 09/05/97 13:29 Page:1
        1        1        /*M* ZIU$QUEMGR   IDSII   LINK FIDS IN A DCB QUEUE FOR ROLL UTILITY */
        2        2        /*T***********************************************************/
        3        3        /*T*                                                         */
        4        4        /*T* Copyright (c) Bull HN Information Systems Inc., 1997    */
        5        5        /*T*                                                         */
        6        6        /*T***********************************************************/
        7        7        ZIU$QUEMGR: PROC(INDX);
        8        8    1   DCL INDX SBIN;
        9        9
       10       10         %INCLUDE ZI_DBU_ROLL;
       11       94         %ROLL_LIST;
       12      153         %ROLL_SUBS;
       13      172         %SUB ITEM = "FIDLIST.QUE";
       14      173
       15      174    1   QUE_UP: ENTRY(INDX);
       16      175         /*
       17      176            Enters FIDLIST(INDX) FID  into the queue in the last position
       18      177         */
       19      178    1       IF FIDLIST.QUE.NXT(INDX) ~= -1 THEN
       20      179    1           GOTO QUEUELAST; /* This fid is already a member in the queue
       21      180         instead of err- just insure its last */
       22      181    1       LAST = ITEM.PRI(0);
       23      182    1       FIRST = ITEM.NXT(0);
       24      183    1       ITEM.NXT(INDX) = 0;
       25      184    1       ITEM.PRI(INDX) = LAST;
       26      185    1       ITEM.PRI(0) = INDX;
       27      186    1       ITEM.NXT(LAST) = INDX;
       28      187    1       RETURN;
       29      188
       30      189    1   DE_QUE: ENTRY(INDX);
       31      190         /*
       32      191            Removes FIDLIST(INDX) FID  from the dcb queue.
       33      192         */
       34      193    1       IF FIDLIST.QUE.NXT(INDX) = -1 THEN
       35      194    1           RETURN; /* This fid is not currently a member-
       36      195         ie. has already been DE-QUEUED */
       37      196    1       ITEM.PRI(ITEM.NXT(INDX)) = ITEM.PRI(INDX);
PL6.E3A0      #001=ZIU$QUEMGR File=ZIU$QUEMGR.:ZIC0TSI                           FRI 09/05/97 13:29 Page:2
       38      197    1       ITEM.NXT(ITEM.PRI(INDX)) = ITEM.NXT(INDX);
       39      198    1       ITEM.PRI(INDX) = -1;
       40      199    1       ITEM.NXT(INDX) = -1;
       41      200    1       RETURN;
       42      201
       43      202    1   QUEUELAST: /* Entry point for putting a fid last in the dcb queue */;
       44      203    1   QUE_LAST: ENTRY(INDX);
       45      204         /*
       46      205            Relocates FIDLIST(INDX) FID to the last spot in the queue.
       47      206         */
       48      207    1       LAST = ITEM.PRI(0);
       49      208    1       IF LAST = INDX THEN
       50      209    1           RETURN; /* RETURN- Item is already queued last */
       51      210    1       FIRST = ITEM.NXT(0);
       52      211    1       ITEM.PRI(ITEM.NXT(INDX)) = ITEM.PRI(INDX);
       53      212    1       ITEM.NXT(ITEM.PRI(INDX)) = ITEM.NXT(INDX);
       54      213    1       ITEM.PRI(INDX) = LAST;
       55      214    1       ITEM.NXT(INDX) = 0;
       56      215    1       ITEM.NXT(LAST) = INDX;
       57      216    1       ITEM.PRI(0) = INDX;
       58      217    1       RETURN;
       59      218
       60      219    1   END ZIU$QUEMGR;

PL6.E3A0      #001=ZIU$QUEMGR File=ZIU$QUEMGR.:ZIC0TSI                           FRI 09/05/97 13:29 Page:3
--  Include file information  --

   ZI_DBU_ROLL.:ZIC0TOU  is referenced.
   B$JIT_C.:E05TOU  was found in the system file and is never referenced.
   CP_6_C.:E05TOU  was found in the system file and is never referenced.
      No diagnostics issued in procedure ZIU$QUEMGR.

   Procedure ZIU$QUEMGR requires 138 words for executable code.
   Procedure ZIU$QUEMGR requires 6 words of local(AUTO) storage.

    No errors detected in file ZIU$QUEMGR.:ZIC0TSI    .

PL6.E3A0      #001=ZIU$QUEMGR File=ZIU$QUEMGR.:ZIC0TSI                           FRI 09/05/97 13:29 Page:4

 Object Unit name= ZIU$QUEMGR                                 File name= ZIU$QUEMGR.:ZIC0TOU
 UTS= SEP 05 '97 13:29:04.00 FRI                              Compiler= PL-6/E31         Sev=      00
 SharedLib= :SHARED_SYSTEM                                    Alt SharedLib=


    ****  Control sections  ****

 Sect   Type Bound  Init  Size OctSiz  Section name(segment info)
    0   Proc  even  none   138    212  ZIU$QUEMGR

    ****  Entry defs  ****

                              Check   Calling
                             calling  sequence
  Sect OctLoc Primary Altret sequence   type   Parms  Name
     0      0   yes            yes      Std        1  ZIU$QUEMGR
     0      3                  yes      Std        1  QUE_UP
     0     44                  yes      Std        1  DE_QUE
     0    121                  yes      Std        1  QUE_LAST

  ****  Entry refs  ****

         Check        Calling
        calling       sequence
Altret sequence SRef   type   Args  Name
                       nStd      0 X66_AUTO_1
                       nStd      0 X66_ARET
PL6.E3A0      #001=ZIU$QUEMGR File=ZIU$QUEMGR.:ZIC0TSI                           FRI 09/05/97 13:29 Page:5

  ****  Data refs  ****

  Flags:  r = read only, s = secondary
Flgs Name                             Flgs Name                             Flgs Name
     FID$                                  DCBLIST$                              USER$
     FID_INDXS$                            FID_INDXS                             NXT_AVIL_FIDSLOT
     NXT_AVIL_DCBSLOT                      LAST_UNUSED_DCBSLOT                   USER
     NO                                    FIRST                                 LAST
     MAX_DCBINDX                           MAX_FIDINDX                           FIDX
     DCBX                                  BRK_ROLL
PL6.E3A0      #001=ZIU$QUEMGR File=ZIU$QUEMGR.:ZIC0TSI                           FRI 09/05/97 13:29 Page:6


        1        1        /*M* ZIU$QUEMGR   IDSII   LINK FIDS IN A DCB QUEUE FOR ROLL UTILITY */
        2        2        /*T***********************************************************/
        3        3        /*T*                                                         */
        4        4        /*T* Copyright (c) Bull HN Information Systems Inc., 1997    */
        5        5        /*T*                                                         */
        6        6        /*T***********************************************************/
        7        7        ZIU$QUEMGR: PROC(INDX);

      7  0 000000   000000 700200 xent  ZIU$QUEMGR   TSX0  ! X66_AUTO_1
         0 000001   000006 000001                    ZERO    6,1
         0 000002   000005 710000 0                  TRA     s:178

        8        8    1   DCL INDX SBIN;
        9        9
       10       10         %INCLUDE ZI_DBU_ROLL;
       11       94         %ROLL_LIST;
       12      153         %ROLL_SUBS;
       13      172         %SUB ITEM = "FIDLIST.QUE";
       14      173
       15      174    1   QUE_UP: ENTRY(INDX);

    174  0 000003   000000 700200 xent  QUE_UP       TSX0  ! X66_AUTO_1
         0 000004   000006 000001                    ZERO    6,1

       16      175         /*
       17      176            Enters FIDLIST(INDX) FID  into the queue in the last position
       18      177         */
       19      178    1       IF FIDLIST.QUE.NXT(INDX) ~= -1 THEN

    178  0 000005   200003 470500                    LDP0    @INDX,,AUTO
         0 000006   000000 236100                    LDQ     0,,PR0
         0 000007   000021 402007                    MPY     17,DL
         0 000010   000000 471400 xsym               LDP1    FID$
         0 000011   100020 220106                    LDX0    16,QL,PR1
         0 000012   777777 100003                    CMPX0   -1,DU
         0 000013   000120 601000 0                  TNZ     QUEUELAST
PL6.E3A0      #001=ZIU$QUEMGR File=ZIU$QUEMGR.:ZIC0TSI                           FRI 09/05/97 13:29 Page:7

       20      179    1           GOTO QUEUELAST; /* This fid is already a member in the queue
       21      180         instead of err- just insure its last */
       22      181    1       LAST = ITEM.PRI(0);

    181  0 000014   100017 236100                    LDQ     15,,PR1
         0 000015   000022 736000                    QLS     18
         0 000016   000022 732000                    QRS     18
         0 000017   000000 756000 xsym               STQ     LAST

       23      182    1       FIRST = ITEM.NXT(0);

    182  0 000020   100020 236100                    LDQ     16,,PR1
         0 000021   000022 732000                    QRS     18
         0 000022   000000 756000 xsym               STQ     FIRST

       24      183    1       ITEM.NXT(INDX) = 0;

    183  0 000023   000000 236100                    LDQ     0,,PR0
         0 000024   000021 402007                    MPY     17,DL
         0 000025   000000 220003                    LDX0    0,DU
         0 000026   100020 740106                    STX0    16,QL,PR1

       25      184    1       ITEM.PRI(INDX) = LAST;

    184  0 000027   000000 236100                    LDQ     0,,PR0
         0 000030   000021 402007                    MPY     17,DL
         0 000031   000000 721000 xsym               LXL1    LAST
         0 000032   000000 471400 xsym               LDP1    FID$
         0 000033   100017 441106                    SXL1    15,QL,PR1

       26      185    1       ITEM.PRI(0) = INDX;

    185  0 000034   000000 721100                    LXL1    0,,PR0
         0 000035   000000 471400 xsym               LDP1    FID$
         0 000036   100017 441100                    SXL1    15,,PR1

PL6.E3A0      #001=ZIU$QUEMGR File=ZIU$QUEMGR.:ZIC0TSI                           FRI 09/05/97 13:29 Page:8
       27      186    1       ITEM.NXT(LAST) = INDX;

    186  0 000037   000000 236000 xsym               LDQ     LAST
         0 000040   000021 402007                    MPY     17,DL
         0 000041   000000 722100                    LXL2    0,,PR0
         0 000042   100020 742106                    STX2    16,QL,PR1

       28      187    1       RETURN;

    187  0 000043   000000 702200 xent               TSX2  ! X66_ARET

       29      188
       30      189    1   DE_QUE: ENTRY(INDX);

    189  0 000044   000000 700200 xent  DE_QUE       TSX0  ! X66_AUTO_1
         0 000045   000006 000001                    ZERO    6,1

       31      190         /*
       32      191            Removes FIDLIST(INDX) FID  from the dcb queue.
       33      192         */
       34      193    1       IF FIDLIST.QUE.NXT(INDX) = -1 THEN

    193  0 000046   200003 470500                    LDP0    @INDX,,AUTO
         0 000047   000000 236100                    LDQ     0,,PR0
         0 000050   000021 402007                    MPY     17,DL
         0 000051   000000 471400 xsym               LDP1    FID$
         0 000052   100020 220106                    LDX0    16,QL,PR1
         0 000053   777777 100003                    CMPX0   -1,DU
         0 000054   000056 601000 0                  TNZ     s:196

       35      194    1           RETURN; /* This fid is not currently a member-

    194  0 000055   000000 702200 xent               TSX2  ! X66_ARET

       36      195         ie. has already been DE-QUEUED */
       37      196    1       ITEM.PRI(ITEM.NXT(INDX)) = ITEM.PRI(INDX);

PL6.E3A0      #001=ZIU$QUEMGR File=ZIU$QUEMGR.:ZIC0TSI                           FRI 09/05/97 13:29 Page:9
    196  0 000056   000000 236100                    LDQ     0,,PR0
         0 000057   000021 402007                    MPY     17,DL
         0 000060   100020 236106                    LDQ     16,QL,PR1
         0 000061   000022 732000                    QRS     18
         0 000062   000021 402007                    MPY     17,DL
         0 000063   200004 756100                    STQ     @INDX+1,,AUTO
         0 000064   000000 236100                    LDQ     0,,PR0
         0 000065   000021 402007                    MPY     17,DL
         0 000066   100017 720106                    LXL0    15,QL,PR1
         0 000067   200004 721100                    LXL1    @INDX+1,,AUTO
         0 000070   100017 440111                    SXL0    15,X1,PR1

       38      197    1       ITEM.NXT(ITEM.PRI(INDX)) = ITEM.NXT(INDX);

    197  0 000071   000000 236100                    LDQ     0,,PR0
         0 000072   000021 402007                    MPY     17,DL
         0 000073   000000 471400 xsym               LDP1    FID$
         0 000074   100017 236106                    LDQ     15,QL,PR1
         0 000075   000022 736000                    QLS     18
         0 000076   000022 732000                    QRS     18
         0 000077   000021 402007                    MPY     17,DL
         0 000100   200004 756100                    STQ     @INDX+1,,AUTO
         0 000101   000000 236100                    LDQ     0,,PR0
         0 000102   000021 402007                    MPY     17,DL
         0 000103   100020 220106                    LDX0    16,QL,PR1
         0 000104   200004 721100                    LXL1    @INDX+1,,AUTO
         0 000105   100020 740111                    STX0    16,X1,PR1

       39      198    1       ITEM.PRI(INDX) = -1;

    198  0 000106   000000 236100                    LDQ     0,,PR0
         0 000107   000021 402007                    MPY     17,DL
         0 000110   777777 220003                    LDX0    -1,DU
         0 000111   000000 471400 xsym               LDP1    FID$
         0 000112   100017 440106                    SXL0    15,QL,PR1

       40      199    1       ITEM.NXT(INDX) = -1;
PL6.E3A0      #001=ZIU$QUEMGR File=ZIU$QUEMGR.:ZIC0TSI                           FRI 09/05/97 13:29 Page:10

    199  0 000113   000000 236100                    LDQ     0,,PR0
         0 000114   000021 402007                    MPY     17,DL
         0 000115   000000 471400 xsym               LDP1    FID$
         0 000116   100020 740106                    STX0    16,QL,PR1

       41      200    1       RETURN;

    200  0 000117   000000 702200 xent               TSX2  ! X66_ARET

    199  0 000120   000123 710000 0     QUEUELAST    TRA     s:207

       42      201
       43      202    1   QUEUELAST: /* Entry point for putting a fid last in the dcb queue */;
       44      203    1   QUE_LAST: ENTRY(INDX);

    203  0 000121   000000 700200 xent  QUE_LAST     TSX0  ! X66_AUTO_1
         0 000122   000006 000001                    ZERO    6,1

       45      204         /*
       46      205            Relocates FIDLIST(INDX) FID to the last spot in the queue.
       47      206         */
       48      207    1       LAST = ITEM.PRI(0);

    207  0 000123   000000 470400 xsym               LDP0    FID$
         0 000124   000017 236100                    LDQ     15,,PR0
         0 000125   000022 736000                    QLS     18
         0 000126   000022 732000                    QRS     18
         0 000127   000000 756000 xsym               STQ     LAST

       49      208    1       IF LAST = INDX THEN

    208  0 000130   200003 471500                    LDP1    @INDX,,AUTO
         0 000131   100000 116100                    CMPQ    0,,PR1
         0 000132   000134 601000 0                  TNZ     s:210

       50      209    1           RETURN; /* RETURN- Item is already queued last */
PL6.E3A0      #001=ZIU$QUEMGR File=ZIU$QUEMGR.:ZIC0TSI                           FRI 09/05/97 13:29 Page:11

    209  0 000133   000000 702200 xent               TSX2  ! X66_ARET

       51      210    1       FIRST = ITEM.NXT(0);

    210  0 000134   000020 236100                    LDQ     16,,PR0
         0 000135   000022 732000                    QRS     18
         0 000136   000000 756000 xsym               STQ     FIRST

       52      211    1       ITEM.PRI(ITEM.NXT(INDX)) = ITEM.PRI(INDX);

    211  0 000137   100000 236100                    LDQ     0,,PR1
         0 000140   000021 402007                    MPY     17,DL
         0 000141   000020 236106                    LDQ     16,QL,PR0
         0 000142   000022 732000                    QRS     18
         0 000143   000021 402007                    MPY     17,DL
         0 000144   200004 756100                    STQ     @INDX+1,,AUTO
         0 000145   100000 236100                    LDQ     0,,PR1
         0 000146   000021 402007                    MPY     17,DL
         0 000147   000017 720106                    LXL0    15,QL,PR0
         0 000150   200004 721100                    LXL1    @INDX+1,,AUTO
         0 000151   000017 440111                    SXL0    15,X1,PR0

       53      212    1       ITEM.NXT(ITEM.PRI(INDX)) = ITEM.NXT(INDX);

    212  0 000152   100000 236100                    LDQ     0,,PR1
         0 000153   000021 402007                    MPY     17,DL
         0 000154   000000 470400 xsym               LDP0    FID$
         0 000155   000017 236106                    LDQ     15,QL,PR0
         0 000156   000022 736000                    QLS     18
         0 000157   000022 732000                    QRS     18
         0 000160   000021 402007                    MPY     17,DL
         0 000161   200004 756100                    STQ     @INDX+1,,AUTO
         0 000162   100000 236100                    LDQ     0,,PR1
         0 000163   000021 402007                    MPY     17,DL
         0 000164   000020 220106                    LDX0    16,QL,PR0
         0 000165   200004 721100                    LXL1    @INDX+1,,AUTO
PL6.E3A0      #001=ZIU$QUEMGR File=ZIU$QUEMGR.:ZIC0TSI                           FRI 09/05/97 13:29 Page:12
         0 000166   000020 740111                    STX0    16,X1,PR0

       54      213    1       ITEM.PRI(INDX) = LAST;

    213  0 000167   100000 236100                    LDQ     0,,PR1
         0 000170   000021 402007                    MPY     17,DL
         0 000171   000000 720000 xsym               LXL0    LAST
         0 000172   000000 470400 xsym               LDP0    FID$
         0 000173   000017 440106                    SXL0    15,QL,PR0

       55      214    1       ITEM.NXT(INDX) = 0;

    214  0 000174   100000 236100                    LDQ     0,,PR1
         0 000175   000021 402007                    MPY     17,DL
         0 000176   000000 220003                    LDX0    0,DU
         0 000177   000000 470400 xsym               LDP0    FID$
         0 000200   000020 740106                    STX0    16,QL,PR0

       56      215    1       ITEM.NXT(LAST) = INDX;

    215  0 000201   000000 236000 xsym               LDQ     LAST
         0 000202   000021 402007                    MPY     17,DL
         0 000203   100000 721100                    LXL1    0,,PR1
         0 000204   000000 470400 xsym               LDP0    FID$
         0 000205   000020 741106                    STX1    16,QL,PR0

       57      216    1       ITEM.PRI(0) = INDX;

    216  0 000206   100000 721100                    LXL1    0,,PR1
         0 000207   000000 470400 xsym               LDP0    FID$
         0 000210   000017 441100                    SXL1    15,,PR0

       58      217    1       RETURN;

    217  0 000211   000000 702200 xent               TSX2  ! X66_ARET
       59      218
       60      219    1   END ZIU$QUEMGR;
PL6.E3A0      #001=ZIU$QUEMGR File=ZIU$QUEMGR.:ZIC0TSI                           FRI 09/05/97 13:29 Page:13

PL6.E3A0      #001=ZIU$QUEMGR File=ZIU$QUEMGR.:ZIC0TSI                           FRI 09/05/97 13:29 Page:14
--  Include file information  --

   ZI_DBU_ROLL.:ZIC0TOU  is referenced.
   B$JIT_C.:E05TOU  was found in the system file and is never referenced.
   CP_6_C.:E05TOU  was found in the system file and is never referenced.
      No diagnostics issued in procedure ZIU$QUEMGR.

   Procedure ZIU$QUEMGR requires 138 words for executable code.
   Procedure ZIU$QUEMGR requires 6 words of local(AUTO) storage.

    No errors detected in file ZIU$QUEMGR.:ZIC0TSI    .
PL6.E3A0      #001=ZIU$QUEMGR File=ZIU$QUEMGR.:ZIC0TSI                           FRI 09/05/97 13:29 Page:15
          *** CROSS REFERENCE LISTING ***
**     DENOTES     IDENTIFIER DEFINITION
<<                 IDENTIFIER'S VALUE SET
>>                 IDENTIFIER'S VALUE USED
<>                 IDENTIFIER SET AND/OR USED
--                 IDENTIFIER REFERENCED
PL6.E3A0      #001=ZIU$QUEMGR File=ZIU$QUEMGR.:ZIC0TSI                           FRI 09/05/97 13:29 Page:16
          MINI XREF LISTING

DCBLIST$
       102**DCL       125--IMP-PTR
FID$
       101**DCL       105--IMP-PTR   178>>IF        181>>ASSIGN    182>>ASSIGN    183>>ASSIGN    184>>ASSIGN
       185>>ASSIGN    186>>ASSIGN    193>>IF        196>>ASSIGN    196>>ASSIGN    196>>ASSIGN    197>>ASSIGN
       197>>ASSIGN    197>>ASSIGN    198>>ASSIGN    199>>ASSIGN    207>>ASSIGN    210>>ASSIGN    211>>ASSIGN
       211>>ASSIGN    211>>ASSIGN    212>>ASSIGN    212>>ASSIGN    212>>ASSIGN    213>>ASSIGN    214>>ASSIGN
       215>>ASSIGN    216>>ASSIGN
FIDLIST.CRPT
       114**DCL       115--REDEF
FIDLIST.QUE.NXT
       119**DCL       178>>IF        182>>ASSIGN    183<<ASSIGN    186<<ASSIGN    193>>IF        196>>ASSIGN
       197<<ASSIGN    197>>ASSIGN    199<<ASSIGN    210>>ASSIGN    211>>ASSIGN    212<<ASSIGN    212>>ASSIGN
       214<<ASSIGN    215<<ASSIGN
FIDLIST.QUE.PRI
       118**DCL       181>>ASSIGN    184<<ASSIGN    185<<ASSIGN    196<<ASSIGN    196>>ASSIGN    197>>ASSIGN
       198<<ASSIGN    207>>ASSIGN    211<<ASSIGN    211>>ASSIGN    212>>ASSIGN    213<<ASSIGN    216<<ASSIGN
FIRST
       141**DCL       182<<ASSIGN    210<<ASSIGN
INDX
         8**DCL         7--PROC      174--ENTRY     178>>IF        183>>ASSIGN    184>>ASSIGN    185>>ASSIGN
       186>>ASSIGN    189--ENTRY     193>>IF        196>>ASSIGN    196>>ASSIGN    197>>ASSIGN    197>>ASSIGN
       198>>ASSIGN    199>>ASSIGN    203--ENTRY     208>>IF        211>>ASSIGN    211>>ASSIGN    212>>ASSIGN
       212>>ASSIGN    213>>ASSIGN    214>>ASSIGN    215>>ASSIGN    216>>ASSIGN
LAST
       143**DCL       181<<ASSIGN    184>>ASSIGN    186>>ASSIGN    207<<ASSIGN    208>>IF        213>>ASSIGN
       215>>ASSIGN
QUEUELAST
       199**LABEL     179--GOTO
