PL6.E3A0      #002=OPEN_FID File=ZIU$RPLY.:ZIC0TSI                               FRI 09/05/97 13:31 Page:192
      991        1        /*T***********************************************************/
      992        2        /*T*                                                         */
      993        3        /*T* Copyright (c) Bull HN Information Systems Inc., 1997    */
      994        4        /*T*                                                         */
      995        5        /*T***********************************************************/
      996        6
      997        7        /*
      998        8                 OPEN FILE IN FIDLIST(FIDX)
      999        9        */
     1000       10        OPEN_FID: PROC ALTRET;
     1001       11
     1002       12    1   DCL REC$ PTR SYMREF;
     1003       13    1   DCL 1 FD BASED(REC$),
     1004       14    1         2 NAME CHAR(32) UNAL,
     1005       15    1         2 ACNT CHAR(8) UNAL,
     1006       16    1         2 PASS CHAR(8) UNAL,
     1007       17    1         2 PSN CHAR(6) UNAL,
     1008       18    1         2 ORG# UBIN BYTE UNAL,
     1009       19    1         2 * CHAR(5) UNAL,
     1010       20    1         2 DCB# UBIN HALF UNAL;
     1011       21    1   DCL B$TCB$ PTR SYMREF;
     1012       22
     1013       23
     1014       24         %INCLUDE ZI_DBU_ROLL;
     1015      108         %ROLL_SUBS;
     1016      127         %ROLL_LIST;
     1017      186         %INCLUDE ZI_GLOBAL_DBUTIL;
     1018      364         %SYS_FUNC;
     1019      456         %INCLUDE CP_6_SUBS;
     1020      996         %INCLUDE ZI_ERRORS_SUBS;
     1021     1516         %INCLUDE CP_6;
     1022     1597         %F$DCB;
     1023     1654         %B$TCB;
     1024     1657         %B$EXCFR;
     1025     1675         %FPT_OPEN;
     1026     1784         %VLP_SN(FPTN=PSN,N=1);
     1027     1797         %INCLUDE B_ERRORS_C;
PL6.E3A0      #002=OPEN_FID File=ZIU$RPLY.:ZIC0TSI                               FRI 09/05/97 13:31 Page:193
     1028     2924
     1029     2925    1   DCL DE_QUE ENTRY(1);
     1030     2926    1   DCL SYS_FUNC_ERRMSG ENTRY ALTRET;
     1031     2927    1   DCL SYS_FUNC_RELDCB ENTRY ALTRET;
     1032     2928    1   DCL XSF$LOCCODT ENTRY(2) ALTRET;
     1033     2929    1   DCL FIT$ PTR SYMREF ALIGNED;
     1034     2930    1   DCL CODE7 UBIN SYMREF ALIGNED;
     1035     2931    1   DCL FILE_INFO(0:1023) UBIN SYMREF ALIGNED;
     1036     2932         %INCLUDE FM$FIT;
     1037     3153         %CODE07(BASED="BASED(FIT$)");
     1038     3156
     1039     3157    1       REC$ = ADDR(FIDLIST(FIDX));
     1040     3158
     1041     3159    1       DCBSF = FD.DCB#;
     1042     3160    1       IF DCBADDR(DCBSF) -> F$DCB.FCD# = %YES# THEN
     1043     3161    1           RETURN; /* File is open already */
     1044     3162
     1045     3163    1       PSN.SN#(0) = FD.PSN;
     1046     3164    1       FPT_OPEN.IFPARAM_ = VECTOR(NIL);
     1047     3165    1       FPT_OPEN.FPARAM_ = VECTOR(FILE_INFO);
     1048     3166    1       FPT_OPEN.V.OPER.TEST# = TESTSF;
     1049     3167    1       FPT_OPEN.NAME_ = VECTOR(FD.NAME);
     1050     3168    1       FPT_OPEN.PASS_ = VECTOR(FD.PASS);
     1051     3169    1       FPT_OPEN.ACCT_ = VECTOR(FD.ACNT);
     1052     3170    1       FPT_OPEN.SN_ = VECTOR(PSN);
     1053     3171    1       FPT_OPEN.V.DCB#= FD.DCB#;
     1054     3172    1       FPT_OPEN.V.ORG#= FD.ORG#;
     1055     3173    1       FPT_OPEN.V.FUN#= %UPDATE#;
     1056     3174    1       FPT_OPEN.V.ASN#= %FILE#;
     1057     3175    1       FPT_OPEN.V.ACS#= %DIRECT#;
     1058     3176
     1059     3177    1       CALL M$OPEN(FPT_OPEN) ALTRET(ALTOPEN);
     1060     3178    1       RETURN;
     1061     3179    1   ALTOPEN:
     1062     3180    1       IF FD.PASS ~= ' ' THEN
     1063     3181    2       DO;
     1064     3182    2           FIT$=ADDR(FILE_INFO);
PL6.E3A0      #002=OPEN_FID File=ZIU$RPLY.:ZIC0TSI                               FRI 09/05/97 13:31 Page:194
     1065     3183    2           CALL XSF$LOCCODT(FIT$, CODE7) ALTRET(ALT_ERR);
     1066     3184    2           CODE07.PASS = FD.PASS;
     1067     3185    2           CALL M$OPEN(FPT_OPEN) ALTRET(ALT_ERR);
     1068     3186    2           RETURN;
     1069     3187    2           END;
     1070     3188    1   ALT_ERR:
     1071     3189    1       MONITOR_ERR = B$TCB$->B$TCB.ALT$->B$EXCFR.ERR;
     1072     3190    1       INCL_ERR = %YES#;
     1073     3191    1       CALL SYS_FUNC_ERRMSG;
     1074     3192    1       CALL DE_QUE(FIDX);
     1075     3193    1       FIDLIST.DCB#(FIDX) = 0;
     1076     3194    1       CALL SYS_FUNC_RELDCB;
     1077     3195    1       ALTRETURN;
     1078     3196    1   END OPEN_FID;
     1079     3197        %EOD;

PL6.E3A0      #002=OPEN_FID File=ZIU$RPLY.:ZIC0TSI                               FRI 09/05/97 13:31 Page:195
--  Include file information  --

   FM$FIT.:LIB_E05  is referenced.
   B_ERRORS_C.:LIB_E05  is referenced.
   CP_6.:LIB_E05  cannot be made into a system file and is referenced.
   ZI_ERRORS_SUBS.:ZIC0TOU  is referenced.
   CP_6_SUBS.:LIB_E05  is referenced.
   ZI_GLOBAL_DBUTIL.:ZIC0TOU  is referenced.
   ZI_DBU_ROLL.:ZIC0TOU  is referenced.
   B$JIT_C.:E05TOU  was found in the system file and is never referenced.
   CP_6_C.:E05TOU  was found in the system file and is referenced.
      No diagnostics issued in procedure OPEN_FID.

   Procedure OPEN_FID requires 103 words for executable code.
   Procedure OPEN_FID requires 4 words of local(AUTO) storage.

PL6.E3A0      #002=OPEN_FID File=ZIU$RPLY.:ZIC0TSI                               FRI 09/05/97 13:31 Page:196

 Object Unit name= OPEN_FID                                   File name= ZIU$RPLY.:ZIC0TOU
 UTS= SEP 05 '97 13:31:43.08 FRI                              Compiler= PL-6/E31         Sev=      00
 SharedLib= :SHARED_SYSTEM                                    Alt SharedLib=


    ****  Control sections  ****

 Sect   Type Bound  Init  Size OctSiz  Section name(segment info)
    0   DCB   even  none     0      0  M$UC
    1   Data  even  none    62     76  OPEN_FID
    2   Proc  even  none   103    147  OPEN_FID
    3  RoData even  none    17     21  OPEN_FID

    ****  Entry defs  ****

                              Check   Calling
                             calling  sequence
  Sect OctLoc Primary Altret sequence   type   Parms  Name
     2      0   yes    yes     yes      Std        0  OPEN_FID

  ****  Entry refs  ****

         Check        Calling
        calling       sequence
Altret sequence SRef   type   Args  Name
 yes     yes           Std       2 XSF$LOCCODT
         yes           Std       1 DE_QUE
 yes     yes           Std       0 SYS_FUNC_RELDCB
 yes     yes           Std       0 SYS_FUNC_ERRMSG
                       nStd      0 X66_AUTO_0
                       nStd      0 X66_ARET
                       nStd      0 X66_AALT
PL6.E3A0      #002=OPEN_FID File=ZIU$RPLY.:ZIC0TSI                               FRI 09/05/97 13:31 Page:197

  ****  Data refs  ****

  Flags:  r = read only, s = secondary
Flgs Name                             Flgs Name                             Flgs Name
     REC$                                  B$TCB$                                FID$
     DCBLIST$                              USER$                                 FID_INDXS$
     FID_INDXS                             NXT_AVIL_FIDSLOT                      NXT_AVIL_DCBSLOT
     LAST_UNUSED_DCBSLOT                   USER                                  NO
     FIRST                                 LAST                                  MAX_DCBINDX
     MAX_FIDINDX                           FIDX                                  DCBX
     BRK_ROLL                              BLKLSF                                KEYLSF
     KEYXSF                                DCBSF                                 ORGSF
     KEYSF                                 KEYVSF                                ACSSF
     NOTIMESF                              FUNSF                                 ASNSF
     TESTSF                                XTENSIZESF                            DISPSF
     WAITSF                                VFCSF                                 FULLSF
     BKUPSF                                BUFLNSF                               BUFSF
     SOURCESF                              DESTSF                                DATESF
     TIMESF                                UTSSF                                 DAYSF
     TSTAMPSF                              ENCRP_SEEDSF                          ERRCODESF
     MSGCODE                               INCL_ERR                              ERR_INSERT
     FIDSF_RD                              ACNT                                  EXISTSF
     SHARESF                               DCBNMSF                               KEYRSF
     NO_KEYSF                              REASGNSF                              CARRY_ATTRIBUTESF
     SUBMESSF                              SPKY_OPNSF                            POSSF
     ERRFLGSF                              MERGESF                               FSA_FLAG
     RELGSF                                UNUSED                                HELPCODE
     COUNTSF                               INDEXSF                               GAP
     PSNSF                                 ACNTSF                                KEY_SHADWSF
     M$UC                                  FIT$                                  CODE7
     FILE_INFO
PL6.E3A0      #002=OPEN_FID File=ZIU$RPLY.:ZIC0TSI                               FRI 09/05/97 13:31 Page:198

  ****  Segment refs  ****

  Flags:  r = read only, s = secondary
Flgs Name                             Flgs Name                             Flgs Name
     ISSID                                 NULLSID                               ROSID
PL6.E3A0      #002=OPEN_FID File=ZIU$RPLY.:ZIC0TSI                               FRI 09/05/97 13:31 Page:199


      991        1        /*T***********************************************************/
      992        2        /*T*                                                         */
      993        3        /*T* Copyright (c) Bull HN Information Systems Inc., 1997    */
      994        4        /*T*                                                         */
      995        5        /*T***********************************************************/
      996        6
      997        7        /*
      998        8                 OPEN FILE IN FIDLIST(FIDX)
      999        9        */
     1000       10        OPEN_FID: PROC ALTRET;

     10  2 000000   000000 700200 xent  OPEN_FID     TSX0  ! X66_AUTO_0
         2 000001   000004 000000                    ZERO    4,0

     1001       11
     1002       12    1   DCL REC$ PTR SYMREF;
     1003       13    1   DCL 1 FD BASED(REC$),
     1004       14    1         2 NAME CHAR(32) UNAL,
     1005       15    1         2 ACNT CHAR(8) UNAL,
     1006       16    1         2 PASS CHAR(8) UNAL,
     1007       17    1         2 PSN CHAR(6) UNAL,
     1008       18    1         2 ORG# UBIN BYTE UNAL,
     1009       19    1         2 * CHAR(5) UNAL,
     1010       20    1         2 DCB# UBIN HALF UNAL;
     1011       21    1   DCL B$TCB$ PTR SYMREF;
     1012       22
     1013       23
     1014       24         %INCLUDE ZI_DBU_ROLL;
     1015      108         %ROLL_SUBS;
     1016      127         %ROLL_LIST;
     1017      186         %INCLUDE ZI_GLOBAL_DBUTIL;
     1018      364         %SYS_FUNC;
     1019      456         %INCLUDE CP_6_SUBS;
     1020      996         %INCLUDE ZI_ERRORS_SUBS;
     1021     1516         %INCLUDE CP_6;
     1022     1597         %F$DCB;
PL6.E3A0      #002=OPEN_FID File=ZIU$RPLY.:ZIC0TSI                               FRI 09/05/97 13:31 Page:200
     1023     1654         %B$TCB;
     1024     1657         %B$EXCFR;
     1025     1675         %FPT_OPEN;
     1026     1784         %VLP_SN(FPTN=PSN,N=1);
     1027     1797         %INCLUDE B_ERRORS_C;
     1028     2924
     1029     2925    1   DCL DE_QUE ENTRY(1);
     1030     2926    1   DCL SYS_FUNC_ERRMSG ENTRY ALTRET;
     1031     2927    1   DCL SYS_FUNC_RELDCB ENTRY ALTRET;
     1032     2928    1   DCL XSF$LOCCODT ENTRY(2) ALTRET;
     1033     2929    1   DCL FIT$ PTR SYMREF ALIGNED;
     1034     2930    1   DCL CODE7 UBIN SYMREF ALIGNED;
     1035     2931    1   DCL FILE_INFO(0:1023) UBIN SYMREF ALIGNED;
     1036     2932         %INCLUDE FM$FIT;
     1037     3153         %CODE07(BASED="BASED(FIT$)");
     1038     3156
     1039     3157    1       REC$ = ADDR(FIDLIST(FIDX));

   3157  2 000002   000000 236000 xsym               LDQ     FIDX
         2 000003   000021 402003                    MPY     17,DU
         2 000004   000000 036000 xsym               ADLQ    FID$
         2 000005   000000 756000 xsym               STQ     REC$

     1040     3158
     1041     3159    1       DCBSF = FD.DCB#;

   3159  2 000006   000000 470400 xsym               LDP0    REC$
         2 000007   000000 100500                    MLR     fill='000'O
         2 000010   000017 000002                    ADSC9   15,,PR0                  cn=0,n=2
         2 000011   000000 000002 xsym               ADSC9   DCBSF                    cn=0,n=2

     1042     3160    1       IF DCBADDR(DCBSF) -> F$DCB.FCD# = %YES# THEN

   3160  2 000012   000000 471400 3                  LDP1    0
         2 000013   100000 473500                    LDP3    0,,PR1
         2 000014   000000 220000 xsym               LDX0    DCBSF
         2 000015   300000 474510                    LDP4    0,X0,PR3
PL6.E3A0      #002=OPEN_FID File=ZIU$RPLY.:ZIC0TSI                               FRI 09/05/97 13:31 Page:201
         2 000016   400031 236100                    LDQ     25,,PR4
         2 000017   020000 316007                    CANQ    8192,DL
         2 000020   000022 600000 2                  TZE     s:3163

     1043     3161    1           RETURN; /* File is open already */

   3161  2 000021   000000 702200 xent               TSX2  ! X66_ARET

     1044     3162
     1045     3163    1       PSN.SN#(0) = FD.PSN;

   3163  2 000022   040000 100500                    MLR     fill='040'O
         2 000023   000014 000006                    ADSC9   12,,PR0                  cn=0,n=6
         2 000024   000073 000006 1                  ADSC9   PSN+1                    cn=0,n=6

     1046     3164    1       FPT_OPEN.IFPARAM_ = VECTOR(NIL);

   3164  2 000025   000002 237000 3                  LDAQ    2
         2 000026   000026 757000 1                  STAQ    FPT_OPEN+22

     1047     3165    1       FPT_OPEN.FPARAM_ = VECTOR(FILE_INFO);

   3165  2 000027   000004 237000 3                  LDAQ    4
         2 000030   000030 757000 1                  STAQ    FPT_OPEN+24

     1048     3166    1       FPT_OPEN.V.OPER.TEST# = TESTSF;

   3166  2 000031   000000 236000 xsym               LDQ     TESTSF
         2 000032   000026 772000                    QRL     22
         2 000033   000044 676000 1                  ERQ     FPT_OPEN+36
         2 000034   020000 376007                    ANQ     8192,DL
         2 000035   000044 656000 1                  ERSQ    FPT_OPEN+36

     1049     3167    1       FPT_OPEN.NAME_ = VECTOR(FD.NAME);

   3167  2 000036   000006 235000 3                  LDA     6
         2 000037   000000 236000 xsym               LDQ     REC$
PL6.E3A0      #002=OPEN_FID File=ZIU$RPLY.:ZIC0TSI                               FRI 09/05/97 13:31 Page:202
         2 000040   000006 757000 1                  STAQ    FPT_OPEN+6

     1050     3168    1       FPT_OPEN.PASS_ = VECTOR(FD.PASS);

   3168  2 000041   000007 235000 3                  LDA     7
         2 000042   000000 236000 xsym               LDQ     REC$
         2 000043   000012 036003                    ADLQ    10,DU
         2 000044   000010 757000 1                  STAQ    FPT_OPEN+8

     1051     3169    1       FPT_OPEN.ACCT_ = VECTOR(FD.ACNT);

   3169  2 000045   000007 235000 3                  LDA     7
         2 000046   000000 236000 xsym               LDQ     REC$
         2 000047   000010 036003                    ADLQ    8,DU
         2 000050   000024 757000 1                  STAQ    FPT_OPEN+20

     1052     3170    1       FPT_OPEN.SN_ = VECTOR(PSN);

   3170  2 000051   000010 237000 3                  LDAQ    8
         2 000052   000002 757000 1                  STAQ    FPT_OPEN+2

     1053     3171    1       FPT_OPEN.V.DCB#= FD.DCB#;

   3171  2 000053   000000 100500                    MLR     fill='000'O
         2 000054   000017 000002                    ADSC9   15,,PR0                  cn=0,n=2
         2 000055   000044 000002 1                  ADSC9   FPT_OPEN+36              cn=0,n=2

     1054     3172    1       FPT_OPEN.V.ORG#= FD.ORG#;

   3172  2 000056   000000 100500                    MLR     fill='000'O
         2 000057   000015 400001                    ADSC9   13,,PR0                  cn=2,n=1
         2 000060   000046 400001 1                  ADSC9   FPT_OPEN+38              cn=2,n=1

     1055     3173    1       FPT_OPEN.V.FUN#= %UPDATE#;

   3173  2 000061   001000 236007                    LDQ     512,DL
         2 000062   000045 552010 1                  STBQ    FPT_OPEN+37,'10'O
PL6.E3A0      #002=OPEN_FID File=ZIU$RPLY.:ZIC0TSI                               FRI 09/05/97 13:31 Page:203

     1056     3174    1       FPT_OPEN.V.ASN#= %FILE#;

   3174  2 000063   000001 236007                    LDQ     1,DL
         2 000064   000045 552004 1                  STBQ    FPT_OPEN+37,'04'O

     1057     3175    1       FPT_OPEN.V.ACS#= %DIRECT#;

   3175  2 000065   000002 236007                    LDQ     2,DL
         2 000066   000046 552004 1                  STBQ    FPT_OPEN+38,'04'O

     1058     3176
     1059     3177    1       CALL M$OPEN(FPT_OPEN) ALTRET(ALTOPEN);

   3177  2 000067   000000 630400 1                  EPPR0   FPT_OPEN
         2 000070   450000 713400                    CLIMB   alt,open
         2 000071   410400 401760                    pmme    nvectors=18
         2 000072   000074 702000 2                  TSX2    ALTOPEN

     1060     3178    1       RETURN;

   3178  2 000073   000000 702200 xent               TSX2  ! X66_ARET

     1061     3179    1   ALTOPEN:
     1062     3180    1       IF FD.PASS ~= ' ' THEN

   3180  2 000074   000000 470400 xsym  ALTOPEN      LDP0    REC$
         2 000075   040000 106500                    CMPC    fill='040'O
         2 000076   000012 000010                    ADSC9   10,,PR0                  cn=0,n=8
         2 000077   000012 000001 3                  ADSC9   10                       cn=0,n=1
         2 000100   000121 600000 2                  TZE     ALT_ERR

     1063     3181    2       DO;

     1064     3182    2           FIT$=ADDR(FILE_INFO);

   3182  2 000101   000005 236000 3                  LDQ     5
PL6.E3A0      #002=OPEN_FID File=ZIU$RPLY.:ZIC0TSI                               FRI 09/05/97 13:31 Page:204
         2 000102   000000 756000 xsym               STQ     FIT$

     1065     3183    2           CALL XSF$LOCCODT(FIT$, CODE7) ALTRET(ALT_ERR);

   3183  2 000103   000014 630400 3                  EPPR0   12
         2 000104   000013 631400 3                  EPPR1   11
         2 000105   000000 701000 xent               TSX1    XSF$LOCCODT
         2 000106   000121 702000 2                  TSX2    ALT_ERR

     1066     3184    2           CODE07.PASS = FD.PASS;

   3184  2 000107   000000 470400 xsym               LDP0    REC$
         2 000110   000000 471400 xsym               LDP1    FIT$
         2 000111   040100 100500                    MLR     fill='040'O
         2 000112   000012 000010                    ADSC9   10,,PR0                  cn=0,n=8
         2 000113   100000 000010                    ADSC9   0,,PR1                   cn=0,n=8

     1067     3185    2           CALL M$OPEN(FPT_OPEN) ALTRET(ALT_ERR);

   3185  2 000114   000000 630400 1                  EPPR0   FPT_OPEN
         2 000115   450000 713400                    CLIMB   alt,open
         2 000116   410400 401760                    pmme    nvectors=18
         2 000117   000121 702000 2                  TSX2    ALT_ERR

     1068     3186    2           RETURN;

   3186  2 000120   000000 702200 xent               TSX2  ! X66_ARET

     1069     3187    2           END;
     1070     3188    1   ALT_ERR:
     1071     3189    1       MONITOR_ERR = B$TCB$->B$TCB.ALT$->B$EXCFR.ERR;

   3189  2 000121   000000 470400 xsym  ALT_ERR      LDP0    B$TCB$
         2 000122   000000 471500                    LDP1    0,,PR0
         2 000123   100102 236100                    LDQ     66,,PR1
         2 000124   000000 756000 xsym               STQ     MSGCODE

PL6.E3A0      #002=OPEN_FID File=ZIU$RPLY.:ZIC0TSI                               FRI 09/05/97 13:31 Page:205
     1072     3190    1       INCL_ERR = %YES#;

   3190  2 000125   400000 236003                    LDQ     -131072,DU
         2 000126   000000 756000 xsym               STQ     INCL_ERR

     1073     3191    1       CALL SYS_FUNC_ERRMSG;

   3191  2 000127   000016 631400 3                  EPPR1   14
         2 000130   000000 701000 xent               TSX1    SYS_FUNC_ERRMSG
         2 000131   000000 011000                    NOP     0

     1074     3192    1       CALL DE_QUE(FIDX);

   3192  2 000132   000020 630400 3                  EPPR0   16
         2 000133   000017 631400 3                  EPPR1   15
         2 000134   000000 701000 xent               TSX1    DE_QUE
         2 000135   000000 011000                    NOP     0

     1075     3193    1       FIDLIST.DCB#(FIDX) = 0;

   3193  2 000136   000000 236000 xsym               LDQ     FIDX
         2 000137   000021 402007                    MPY     17,DL
         2 000140   000000 220003                    LDX0    0,DU
         2 000141   000000 470400 xsym               LDP0    FID$
         2 000142   000017 740106                    STX0    15,QL,PR0

     1076     3194    1       CALL SYS_FUNC_RELDCB;

   3194  2 000143   000016 631400 3                  EPPR1   14
         2 000144   000000 701000 xent               TSX1    SYS_FUNC_RELDCB
         2 000145   000000 011000                    NOP     0

     1077     3195    1       ALTRETURN;

   3195  2 000146   000000 702200 xent               TSX2  ! X66_AALT

FPT_OPEN
PL6.E3A0      #002=OPEN_FID File=ZIU$RPLY.:ZIC0TSI                               FRI 09/05/97 13:31 Page:206
 Sect OctLoc
   1     000   000025 777640   000044 006000   000000 177640   000000 006014    .....$..........
   1     004   000000 177640   000000 006014   000000 177640   000000 006014    ................
   1     044*  000000 000042   000000 000000   252525 000000   000040 252520    ..."......... ..
   1     050   000040 040040   000000 000000   000000 777777   000000 000000    .   ............
   1     054   000000 000000   000000 000000   000000 000000   000000 000000    ................
   1     060   251000 622000   000000 000000   000000 000000   111250 000000    ............I...
   1     064   040040 040040   000000 000000   000000 000000   000000 000000        ............
   1     070   000000 000000   ****** ******                                    ........

PSN
 Sect OctLoc
   1     072   000000 000001   040040 040040   040040 ******                    ....      ..

(unnamed)
 Sect OctLoc
   3     000   000000 006003   000000 000000   000000 177640   000000 006014    ................
   3     004   001777 777640   000000 006000   000007 777640   000001 777640    ................
   3     010   000003 777640   000072 006000   040040 040040   000002 000000    .....:..    ....
   3     014   000000 006000   000000 006000   000000 000000   000001 000000    ................
   3     020   000000 006000                                                    ....
     1078     3196    1   END OPEN_FID;
     1079     3197        %EOD;

PL6.E3A0      #002=OPEN_FID File=ZIU$RPLY.:ZIC0TSI                               FRI 09/05/97 13:31 Page:207
--  Include file information  --

   FM$FIT.:LIB_E05  is referenced.
   B_ERRORS_C.:LIB_E05  is referenced.
   CP_6.:LIB_E05  cannot be made into a system file and is referenced.
   ZI_ERRORS_SUBS.:ZIC0TOU  is referenced.
   CP_6_SUBS.:LIB_E05  is referenced.
   ZI_GLOBAL_DBUTIL.:ZIC0TOU  is referenced.
   ZI_DBU_ROLL.:ZIC0TOU  is referenced.
   B$JIT_C.:E05TOU  was found in the system file and is never referenced.
   CP_6_C.:E05TOU  was found in the system file and is referenced.
      No diagnostics issued in procedure OPEN_FID.

   Procedure OPEN_FID requires 103 words for executable code.
   Procedure OPEN_FID requires 4 words of local(AUTO) storage.
PL6.E3A0      #002=OPEN_FID File=ZIU$RPLY.:ZIC0TSI                               FRI 09/05/97 13:31 Page:208
          *** CROSS REFERENCE LISTING ***
**     DENOTES     IDENTIFIER DEFINITION
<<                 IDENTIFIER'S VALUE SET
>>                 IDENTIFIER'S VALUE USED
<>                 IDENTIFIER SET AND/OR USED
--                 IDENTIFIER REFERENCED
PL6.E3A0      #002=OPEN_FID File=ZIU$RPLY.:ZIC0TSI                               FRI 09/05/97 13:31 Page:209
          MINI XREF LISTING

ALTOPEN
      3180**LABEL    3177--CALLALT
ALT_ERR
      3189**LABEL    3183--CALLALT  3185--CALLALT
B$EXCFR.ASL
      1658**DCL      1658--REDEF
B$EXCFR.ERR
      1672**DCL      3189>>ASSIGN
B$EXCFR.ERR.ERR#
      1672**DCL      1672--REDEF
B$EXCFR.EVID
      1671**DCL      1671--REDEF    1672--REDEF
B$EXCFR.IR
      1659**DCL      1659--REDEF
B$EXCFR.PREVSZ
      1658**DCL      1658--REDEF
B$EXCFR.SUBC
      1670**DCL      1670--REDEF    1671--REDEF    1671--REDEF
B$TCB.ALT$
      1655**DCL      3189>>ASSIGN
B$TCB$
        21**DCL      3189>>ASSIGN
CODE07.PASS
      3154**DCL      3184<<ASSIGN
CODE7
      2930**DCL      3183<>CALL
COUNTSF
       445**DCL       446--REDEF
DCBLIST$
       135**DCL       158--IMP-PTR
DCBSF
       374**DCL      3159<<ASSIGN   3160--IF
PL6.E3A0      #002=OPEN_FID File=ZIU$RPLY.:ZIC0TSI                               FRI 09/05/97 13:31 Page:210
DE_QUE
      2925**DCL-ENT  3192--CALL
ENCRP_SEEDSF
       403**DCL       404--REDEF
ERRCODESF
       405**DCL       410--REDEF
F$DCB.ACTPOS
      1630**DCL      1630--REDEF
F$DCB.ARS#
      1604**DCL      1604--REDEF
F$DCB.ATTR
      1623**DCL      1624--REDEF
F$DCB.BORROW
      1638**DCL      1638--REDEF    1638--REDEF    1638--REDEF
F$DCB.DCBNAME.L
      1652**DCL      1652--IMP-SIZ
F$DCB.EOMCHAR#
      1608**DCL      1608--REDEF
F$DCB.FCD#
      1617**DCL      3160>>IF
F$DCB.FLDID
      1633**DCL      1633--REDEF
F$DCB.FORM$
      1627**DCL      1627--REDEF
F$DCB.FSECT
      1643**DCL      1643--REDEF
F$DCB.FSN#
      1620**DCL      1620--REDEF    1620--REDEF    1621--REDEF
F$DCB.HEADER$
      1626**DCL      1626--REDEF
F$DCB.IXTNSIZE#
      1624**DCL      1624--REDEF
F$DCB.LASTSTA$
      1613**DCL      1613--REDEF
F$DCB.LVL
      1639**DCL      1639--REDEF
PL6.E3A0      #002=OPEN_FID File=ZIU$RPLY.:ZIC0TSI                               FRI 09/05/97 13:31 Page:211
F$DCB.NAME#.C
      1614**DCL      1614--REDEF
F$DCB.NOEOF
      1636**DCL      1636--REDEF
F$DCB.NRECS#
      1625**DCL      1625--REDEF
F$DCB.NRECX
      1644**DCL      1644--REDEF
F$DCB.OHDR
      1636**DCL      1636--REDEF
F$DCB.ORG#
      1619**DCL      1619--REDEF
F$DCB.PRECNO
      1642**DCL      1642--REDEF
F$DCB.RCSZ
      1648**DCL      1648--REDEF
F$DCB.RES#
      1615**DCL      1615--REDEF
F$DCB.SETX
      1627**DCL      1627--REDEF
F$DCB.TAB$
      1627**DCL      1627--REDEF
F$DCB.TDA
      1641**DCL      1642--REDEF
F$DCB.WSN#
      1615**DCL      1615--REDEF
FD.ACNT
        15**DCL      3169--ASSIGN
FD.DCB#
        20**DCL      3159>>ASSIGN   3171>>ASSIGN
FD.NAME
        14**DCL      3167--ASSIGN
FD.ORG#
        18**DCL      3172>>ASSIGN
FD.PASS
        16**DCL      3168--ASSIGN   3180>>IF       3184>>ASSIGN
PL6.E3A0      #002=OPEN_FID File=ZIU$RPLY.:ZIC0TSI                               FRI 09/05/97 13:31 Page:212
FD.PSN
        17**DCL      3163>>ASSIGN
FID$
       134**DCL       138--IMP-PTR  3157>>ASSIGN   3193>>ASSIGN
FIDLIST
       138**DCL      3157--ASSIGN
FIDLIST.CRPT
       147**DCL       148--REDEF
FIDLIST.DCB#
       149**DCL      3193<<ASSIGN
FIDSF_RD
       421**DCL       422--REDEF
FIDX
       182**DCL      3157>>ASSIGN   3192<>CALL     3193>>ASSIGN
FILE_INFO
      2931**DCL      3165--ASSIGN   3182--ASSIGN
FIT$
      2929**DCL      3154--IMP-PTR  3182<<ASSIGN   3183<>CALL     3184>>ASSIGN
FPT_OPEN
      1740**DCL      3177<>CALL     3185<>CALL
FPT_OPEN.ACCT_
      1744**DCL      3169<<ASSIGN
FPT_OPEN.ACSVEH_
      1742**DCL      1743--REDEF
FPT_OPEN.ALTKEYS_
      1748**DCL      1749--REDEF    1749--REDEF
FPT_OPEN.FPARAM_
      1745**DCL      3165<<ASSIGN
FPT_OPEN.HDR_
      1747**DCL      1748--REDEF
FPT_OPEN.IFPARAM_
      1745**DCL      3164<<ASSIGN
FPT_OPEN.NAME_
      1741**DCL      3167<<ASSIGN
FPT_OPEN.PASS_
      1742**DCL      3168<<ASSIGN
PL6.E3A0      #002=OPEN_FID File=ZIU$RPLY.:ZIC0TSI                               FRI 09/05/97 13:31 Page:213
FPT_OPEN.SN_
      1740**DCL      3170<<ASSIGN
FPT_OPEN.TAB_
      1746**DCL      1747--REDEF
FPT_OPEN.UHL_
      1740**DCL      1741--REDEF    1741--REDEF
FPT_OPEN.V
      1749**DCL      1740--DCLINIT
FPT_OPEN.V.ACS#
      1760**DCL      3175<<ASSIGN
FPT_OPEN.V.ASN#
      1759**DCL      3174<<ASSIGN
FPT_OPEN.V.DCB#
      1749**DCL      3171<<ASSIGN
FPT_OPEN.V.FSN#
      1780**DCL      1780--REDEF    1780--REDEF
FPT_OPEN.V.FUN#
      1759**DCL      3173<<ASSIGN
FPT_OPEN.V.OPER.TEST#
      1751**DCL      3166<<ASSIGN
FPT_OPEN.V.ORG#
      1760**DCL      3172<<ASSIGN
FPT_OPEN.WSN_
      1746**DCL      1746--REDEF
HELPCODE
       439**DCL       444--REDEF
INCL_ERR
       417**DCL      3190<<ASSIGN
KEYVSF
       377**DCL       382--REDEF
KEYVSF.WD_ONE
       379**DCL       380--REDEF
M$OPEN
      1525**DCL-ENT  3177--CALL     3185--CALL
MONITOR_ERR
       412**DCL      3189<<ASSIGN
PL6.E3A0      #002=OPEN_FID File=ZIU$RPLY.:ZIC0TSI                               FRI 09/05/97 13:31 Page:214
MSGCODE
       411**DCL       412--REDEF
PSN
      1795**DCL      3170--ASSIGN
PSN.SN#
      1795**DCL      3163<<ASSIGN
REC$
        12**DCL        13--IMP-PTR  3157<<ASSIGN   3159>>ASSIGN   3163>>ASSIGN   3167>>ASSIGN   3168>>ASSIGN
      3169>>ASSIGN   3171>>ASSIGN   3172>>ASSIGN   3180>>IF       3184>>ASSIGN
SYS_FUNC_ERRMSG
      2926**DCL-ENT  3191--CALL
SYS_FUNC_RELDCB
      2927**DCL-ENT  3194--CALL
TESTSF
       387**DCL      3166>>ASSIGN
XSF$LOCCODT
      2928**DCL-ENT  3183--CALL

PL6.E3A0      #003=ZIU$EVENT File=ZIU$RPLY.:ZIC0TSI                              FRI 09/05/97 13:31 Page:215
     1080        1        /*M* ZIU$EVENT   IDSII  NOWAIT I-O  EVENT CONTROL    */
     1081        2        /*T***********************************************************/
     1082        3        /*T*                                                         */
     1083        4        /*T* Copyright (c) Bull HN Information Systems Inc., 1997    */
     1084        5        /*T*                                                         */
     1085        6        /*T***********************************************************/
     1086        7        ZIU$EVENT: PROC ASYNC;
     1087        8
     1088        9    1   DCL 1 BUFTBL (0:255) SYMREF UNAL,
     1089       10    1         2 PTR$ PTR UNAL,
     1090       11    1         2 PGNO UBIN WORD UNAL,
     1091       12    1         2 FIDX SBIN HALF UNAL,
     1092       13    1         2 NXTHSH SBIN BYTE UNAL,
     1093       14    1         2 BUSY BIT(1) UNAL,
     1094       15    1         2 * BIT(8) UNAL,
     1095       16    1         2 Q,
     1096       17    1           3 PRI SBIN HALF UNAL,
     1097       18    1           3 NXT SBIN HALF UNAL;
     1098       19
     1099       20         %INCLUDE CP_6;
     1100      101         %B$EVNT;
     1101      114         %B$EXCFR;
     1102      132         %B$TCB;
     1103      135         %B$ECCB;
     1104      143         %B$NWIO;
     1105      228         %SUB_EXC;
     1106      275         %INCLUDE CP_6_SUBS;
     1107      815         %INCLUDE ZI_GLOBAL_DBUTIL;
     1108      993         %SYS_FUNC;
     1109     1085         %MISC_DCLS;
     1110     1138
     1111     1139    1   DCL SYS_FUNC_ERRMSG ENTRY ALTRET;
     1112     1140    1   DCL B$ECCB$ PTR SYMREF;
     1113     1141    1   DCL STK$ PTR STATIC;
     1114     1142
     1115     1143    1       STK$ = B$TCB$ -> B$TCB.STK$;
     1116     1144
PL6.E3A0      #003=ZIU$EVENT File=ZIU$RPLY.:ZIC0TSI                              FRI 09/05/97 13:31 Page:216
     1117     1145    2       DO INHIBIT;
     1118     1146    3           DO CASE(STK$->B$EXCFR.ECC); /* EXECP COND FRAME SHOULD BE I-O EVENT */
     1119     1147    3           CASE(%ECC_EVENT#);
     1120     1148    3               IF STK$ -> B$NWIO.EVID <= 255 AND
     1121     1149    3                  STK$ -> B$NWIO.ERR.CODE = 0 THEN
     1122     1150    4               DO;
     1123     1151    4                   BUFTBL.BUSY(STK$ -> B$NWIO.EVID) = %NO#;
     1124     1152    4                   END;
     1125     1153    4               ELSE DO;
     1126     1154         /*E* ERROR: ZIU-DBU#NWIO-C
     1127     1155                            MESSAGE: NO WAIT I/O ERROR - condition code %U1 */
     1128     1156    4                   CALL BINCHAR(ERR_INSERT.TEXT(0),STK$->B$NWIO.ERR.CODE);
     1129     1157    4                   ERR_INSERT.CNT(0) = 10;
     1130     1158    4                   CALL SYS_FUNC_ERRMSG;
     1131     1159    4                   END;
     1132     1160    3               RETURN;
     1133     1161
     1134     1162    3           CASE(ELSE);
     1135     1163
     1136     1164    3               END; /*CASE */
     1137     1165    2           END; /* INHIBIT */
     1138     1166    1   END ZIU$EVENT;

PL6.E3A0      #003=ZIU$EVENT File=ZIU$RPLY.:ZIC0TSI                              FRI 09/05/97 13:31 Page:217
--  Include file information  --

   ZI_GLOBAL_DBUTIL.:ZIC0TOU  is referenced.
   CP_6_SUBS.:LIB_E05  is referenced.
   CP_6.:LIB_E05  cannot be made into a system file and is referenced.
   B$JIT_C.:E05TOU  was found in the system file and is never referenced.
   CP_6_C.:E05TOU  was found in the system file and is referenced.
      No diagnostics issued in procedure ZIU$EVENT.

   Procedure ZIU$EVENT requires 38 words for executable code.
   Procedure ZIU$EVENT requires 6 words of local(AUTO) storage.

    No errors detected in file ZIU$RPLY.:ZIC0TSI    .

PL6.E3A0      #003=ZIU$EVENT File=ZIU$RPLY.:ZIC0TSI                              FRI 09/05/97 13:31 Page:218

 Object Unit name= ZIU$EVENT                                  File name= ZIU$RPLY.:ZIC0TOU
 UTS= SEP 05 '97 13:31:55.32 FRI                              Compiler= PL-6/E31         Sev=      00
 SharedLib= :SHARED_SYSTEM                                    Alt SharedLib=


    ****  Control sections  ****

 Sect   Type Bound  Init  Size OctSiz  Section name(segment info)
    0   DCB   even  none     0      0  M$UC
    1   DCB   even  none     0      0  M$LO
    2   Data  even  none     1      1  ZIU$EVENT
    3   Proc  even  none    38     46  ZIU$EVENT
    4  RoData even  none     2      2  ZIU$EVENT

    ****  Entry defs  ****

                              Check   Calling
                             calling  sequence
  Sect OctLoc Primary Altret sequence   type   Parms  Name
     3      0   yes            yes     Async       0  ZIU$EVENT

  ****  Entry refs  ****

         Check        Calling
        calling       sequence
Altret sequence SRef   type   Args  Name
 yes     yes           Std       0 SYS_FUNC_ERRMSG
                       nStd      0 X66_AAUTO
                       nStd      0 X66_AARET
PL6.E3A0      #003=ZIU$EVENT File=ZIU$RPLY.:ZIC0TSI                              FRI 09/05/97 13:31 Page:219

  ****  Data refs  ****

  Flags:  r = read only, s = secondary
Flgs Name                             Flgs Name                             Flgs Name
     BUFTBL                                M$UC                                  BLKLSF
     KEYLSF                                KEYXSF                                DCBSF
     ORGSF                                 KEYSF                                 KEYVSF
     ACSSF                                 NOTIMESF                              FUNSF
     ASNSF                                 TESTSF                                XTENSIZESF
     DISPSF                                WAITSF                                VFCSF
     FULLSF                                BKUPSF                                BUFLNSF
     BUFSF                                 SOURCESF                              DESTSF
     DATESF                                TIMESF                                UTSSF
     DAYSF                                 TSTAMPSF                              ENCRP_SEEDSF
     ERRCODESF                             MSGCODE                               INCL_ERR
     ERR_INSERT                            FIDSF_RD                              ACNT
     EXISTSF                               SHARESF                               DCBNMSF
     KEYRSF                                NO_KEYSF                              REASGNSF
     CARRY_ATTRIBUTESF                     SUBMESSF                              SPKY_OPNSF
     POSSF                                 ERRFLGSF                              MERGESF
     FSA_FLAG                              RELGSF                                UNUSED
     HELPCODE                              COUNTSF                               INDEXSF
     GAP                                   PSNSF                                 ACNTSF
     KEY_SHADWSF                           REC$                                  RB
     RE                                    IE                                    IB
     CNT                                   ICNT                                  RCNT
     SCNT                                  FIRST_SET                             RETCNT
     DMPCNT                                KCNT                                  ACNT_IDX
     I                                     J                                     K
     X                                     STEPCC                                I_O_BUF$
     OUT_INDX                              I_O_SIZE                              REC_DATA_LN
     M$LO                                  B$TCB$                                B$ROS$
     B$JIT$                                KEYFID                                I_O_KEY
     RESTART                               BREAK_FLAG                            ICHKSUM
     ITMCNT                                GAP1                                  B$ECCB$
PL6.E3A0      #003=ZIU$EVENT File=ZIU$RPLY.:ZIC0TSI                              FRI 09/05/97 13:31 Page:220


     1080        1        /*M* ZIU$EVENT   IDSII  NOWAIT I-O  EVENT CONTROL    */
     1081        2        /*T***********************************************************/
     1082        3        /*T*                                                         */
     1083        4        /*T* Copyright (c) Bull HN Information Systems Inc., 1997    */
     1084        5        /*T*                                                         */
     1085        6        /*T***********************************************************/
     1086        7        ZIU$EVENT: PROC ASYNC;

      7  3 000000   000000 700200 xent  ZIU$EVENT    TSX0  ! X66_AAUTO
         3 000001   000006 000000                    ZERO    6,0

     1087        8
     1088        9    1   DCL 1 BUFTBL (0:255) SYMREF UNAL,
     1089       10    1         2 PTR$ PTR UNAL,
     1090       11    1         2 PGNO UBIN WORD UNAL,
     1091       12    1         2 FIDX SBIN HALF UNAL,
     1092       13    1         2 NXTHSH SBIN BYTE UNAL,
     1093       14    1         2 BUSY BIT(1) UNAL,
     1094       15    1         2 * BIT(8) UNAL,
     1095       16    1         2 Q,
     1096       17    1           3 PRI SBIN HALF UNAL,
     1097       18    1           3 NXT SBIN HALF UNAL;
     1098       19
     1099       20         %INCLUDE CP_6;
     1100      101         %B$EVNT;
     1101      114         %B$EXCFR;
     1102      132         %B$TCB;
     1103      135         %B$ECCB;
     1104      143         %B$NWIO;
     1105      228         %SUB_EXC;
     1106      275         %INCLUDE CP_6_SUBS;
     1107      815         %INCLUDE ZI_GLOBAL_DBUTIL;
     1108      993         %SYS_FUNC;
     1109     1085         %MISC_DCLS;
     1110     1138
     1111     1139    1   DCL SYS_FUNC_ERRMSG ENTRY ALTRET;
PL6.E3A0      #003=ZIU$EVENT File=ZIU$RPLY.:ZIC0TSI                              FRI 09/05/97 13:31 Page:221
     1112     1140    1   DCL B$ECCB$ PTR SYMREF;
     1113     1141    1   DCL STK$ PTR STATIC;
     1114     1142
     1115     1143    1       STK$ = B$TCB$ -> B$TCB.STK$;

   1143  3 000002   000000 470400 xsym               LDP0    B$TCB$
         3 000003   000001 236100                    LDQ     1,,PR0
         3 000004   000000 756000 2                  STQ     STK$

     1116     1144
     1117     1145    2       DO INHIBIT;

     1118     1146    3           DO CASE(STK$->B$EXCFR.ECC); /* EXECP COND FRAME SHOULD BE I-O EVENT */

   1146  3 000005   000000 471600 2                  LDP1  ! STK$
         3 000006   100000 720300                    LXL0  ! 0,,PR1
         3 000007   000002 100203                    CMPX0 ! 2,DU
         3 000010   000012 602210 3                  TNC   ! s:1146+5,X0
         3 000011   000045 710200 3                  TRA   ! s:1166
         3 000012   000045 710200 3                  TRA   ! s:1166
         3 000013   000014 710200 3                  TRA   ! s:1148

     1119     1147    3           CASE(%ECC_EVENT#);

     1120     1148    3               IF STK$ -> B$NWIO.EVID <= 255 AND

   1148  3 000014   100101 235300                    LDA   ! 65,,PR1
         3 000015   000400 115207                    CMPA  ! 256,DL
         3 000016   000027 603200 3                  TRC   ! s:1156
         3 000017   100102 236300                    LDQ   ! 66,,PR1
         3 000020   377770 316207                    CANQ  ! 131064,DL
         3 000021   000027 601200 3                  TNZ   ! s:1156

     1121     1149    3                  STK$ -> B$NWIO.ERR.CODE = 0 THEN
     1122     1150    4               DO;

     1123     1151    4                   BUFTBL.BUSY(STK$ -> B$NWIO.EVID) = %NO#;
PL6.E3A0      #003=ZIU$EVENT File=ZIU$RPLY.:ZIC0TSI                              FRI 09/05/97 13:31 Page:222

   1151  3 000022   100101 235300                    LDA   ! 65,,PR1
         3 000023   000002 735200                    ALS   ! 2
         3 000024   000000 236200 4                  LDQ   ! 0
         3 000025   000002 356205 xsym               ANSQ  ! BUFTBL+2,AL

     1124     1152    4                   END;

   1152  3 000026   000044 710200 3                  TRA   ! s:1160

     1125     1153    4               ELSE DO;

     1126     1154         /*E* ERROR: ZIU-DBU#NWIO-C
     1127     1155                            MESSAGE: NO WAIT I/O ERROR - condition code %U1 */
     1128     1156    4                   CALL BINCHAR(ERR_INSERT.TEXT(0),STK$->B$NWIO.ERR.CODE);

   1156  3 000027   100102 236300                    LDQ   ! 66,,PR1
         3 000030   000003 772200                    QRL   ! 3
         3 000031   037777 376207                    ANQ   ! 16383,DL
         3 000032   000000 235203                    LDA   ! 0,DU
         3 000033   200004 757300                    STAQ  ! 4,,AUTO
         3 000034   000000 301700                    BTD   !
         3 000035   200004 000010                    NDSC9   4,,AUTO                  cn=0,s=lsgnf,sf=0,n=8
         3 000036   000000 230036 xsym               NDSC9   ERR_INSERT               cn=1,s=nosgn,sf=0,n=30

     1129     1157    4                   ERR_INSERT.CNT(0) = 10;

   1157  3 000037   012000 236203                    LDQ   ! 5120,DU
         3 000040   000000 552240 xsym               STBQ  ! ERR_INSERT,'40'O

     1130     1158    4                   CALL SYS_FUNC_ERRMSG;

   1158  3 000041   000001 631600 4                  EPPR1 ! 1
         3 000042   000000 701200 xent               TSX1  ! SYS_FUNC_ERRMSG
         3 000043   000000 011200                    NOP   ! 0

     1131     1159    4                   END;
PL6.E3A0      #003=ZIU$EVENT File=ZIU$RPLY.:ZIC0TSI                              FRI 09/05/97 13:31 Page:223

     1132     1160    3               RETURN;

   1160  3 000044   000000 702200 xent               TSX2  ! X66_AARET

     1133     1161
     1134     1162    3           CASE(ELSE);

     1135     1163
     1136     1164    3               END; /*CASE */

     1137     1165    2           END; /* INHIBIT */

     1138     1166    1   END ZIU$EVENT;

   1166  3 000045   000000 702200 xent               TSX2  ! X66_AARET

(unnamed)
 Sect OctLoc
   4     000   777777 777377   000000 000000                                    ........

PL6.E3A0      #003=ZIU$EVENT File=ZIU$RPLY.:ZIC0TSI                              FRI 09/05/97 13:31 Page:224
--  Include file information  --

   ZI_GLOBAL_DBUTIL.:ZIC0TOU  is referenced.
   CP_6_SUBS.:LIB_E05  is referenced.
   CP_6.:LIB_E05  cannot be made into a system file and is referenced.
   B$JIT_C.:E05TOU  was found in the system file and is never referenced.
   CP_6_C.:E05TOU  was found in the system file and is referenced.
      No diagnostics issued in procedure ZIU$EVENT.

   Procedure ZIU$EVENT requires 38 words for executable code.
   Procedure ZIU$EVENT requires 6 words of local(AUTO) storage.

    No errors detected in file ZIU$RPLY.:ZIC0TSI    .
PL6.E3A0      #003=ZIU$EVENT File=ZIU$RPLY.:ZIC0TSI                              FRI 09/05/97 13:31 Page:225
          *** CROSS REFERENCE LISTING ***
**     DENOTES     IDENTIFIER DEFINITION
<<                 IDENTIFIER'S VALUE SET
>>                 IDENTIFIER'S VALUE USED
<>                 IDENTIFIER SET AND/OR USED
--                 IDENTIFIER REFERENCED
PL6.E3A0      #003=ZIU$EVENT File=ZIU$RPLY.:ZIC0TSI                              FRI 09/05/97 13:31 Page:226
          MINI XREF LISTING

B$EVNT.CODE
       103**DCL       103--REDEF     104--REDEF     104--REDEF
B$EVNT.ERR.ERR#
       105**DCL       105--REDEF
B$EVNT.EVID
       104**DCL       104--REDEF     104--REDEF
B$EXCFR.ASL
       115**DCL       115--REDEF
B$EXCFR.ECC
       115**DCL      1146>>DOCASE
B$EXCFR.ERR.ERR#
       129**DCL       129--REDEF
B$EXCFR.EVID
       128**DCL       128--REDEF     129--REDEF
B$EXCFR.IR
       116**DCL       116--REDEF
B$EXCFR.PREVSZ
       115**DCL       115--REDEF
B$EXCFR.SUBC
       127**DCL       127--REDEF     128--REDEF     128--REDEF
B$NWIO.CGPARM.MSGIDXT
       177**DCL       180--REDEF
B$NWIO.CODE
       146**DCL       146--REDEF     147--REDEF     147--REDEF
B$NWIO.ERR.CODE
       148**DCL      1148>>IF       1156>>CALLBLT
B$NWIO.ERR.ERR#
       148**DCL       148--REDEF
B$NWIO.EVID
       147**DCL       147--REDEF     147--REDEF    1148>>IF       1151>>ASSIGN
B$TCB.STK$
       133**DCL      1143>>ASSIGN
PL6.E3A0      #003=ZIU$EVENT File=ZIU$RPLY.:ZIC0TSI                              FRI 09/05/97 13:31 Page:227
B$TCB$
      1122**DCL      1143>>ASSIGN
BUFTBL.BUSY
        14**DCL      1151<<ASSIGN
COUNTSF
      1074**DCL      1075--REDEF
ENCRP_SEEDSF
      1032**DCL      1033--REDEF
ERRCODESF
      1034**DCL      1039--REDEF
ERR_INSERT.CNT
      1048**DCL      1157<<ASSIGN
ERR_INSERT.TEXT
      1049**DCL      1156<<CALLBLT
FIDSF_RD
      1050**DCL      1051--REDEF
HELPCODE
      1068**DCL      1073--REDEF
ICHKSUM
      1133**DCL      1134--REDEF
I_O_BUF$
      1111**DCL      1112--IMP-PTR
KEYVSF
      1006**DCL      1011--REDEF
KEYVSF.WD_ONE
      1008**DCL      1009--REDEF
MSGCODE
      1040**DCL      1041--REDEF
REC$
      1092**DCL      1115--IMP-PTR
REC_DATA_LN
      1120**DCL      1119--IMP-SIZ
STK$
      1141**DCL      1143<<ASSIGN   1146>>DOCASE   1148>>IF       1148>>IF       1151>>ASSIGN   1156>>CALLBLT
SYS_FUNC_ERRMSG
      1139**DCL-ENT  1158--CALL
