PL6.E3A0      #004=ZIU$VALDTE File=ZIU$VALSET.:ZIC0TSI                           FRI 09/05/97 13:34 Page:224
     1267        1        /*M*  ZIU$VALDTE  IDSII  UTILITIES  SET VALIDATION OUTPUT PROC */
     1268        2        /*T***********************************************************/
     1269        3        /*T*                                                         */
     1270        4        /*T* Copyright (c) Bull HN Information Systems Inc., 1997    */
     1271        5        /*T*                                                         */
     1272        6        /*T***********************************************************/
     1273        7        ZIU$VALDTE: PROC(PT,PT_SIZE) ALTRET;
     1274        8
     1275        9    1   DCL 1 PT CHAR(PT_SIZE);
     1276       10    1   DCL PT_SIZE UBIN WORD;
     1277       11
     1278       12    1   DCL RETURN_CODE SBIN WORD STATIC INIT(0); /* Reentry code */
     1279       13    1   DCL LASTEG SBIN WORD STATIC INIT(0);
     1280       14    1   DCL LASTPT SBIN WORD STATIC INIT(0);
     1281       15    1   DCL PRINTPT SBIN WORD STATIC INIT(0);
     1282       16
     1283       17    1   DCL 1 PTFILE SYMREF,
     1284       18    1         2 * CHAR(5) UNAL,
     1285       19    1         2 DCB# UBIN HALF UNAL;
     1286       20
     1287       21    1   DCL 1 NXTPT STATIC CALIGNED,
     1288       22    1         2 NEXT UBIN WORD UNAL,
     1289       23    1         2 SETYP SBIN HALF UNAL,
     1290       24    1         2 RECTYPE SBIN HALF UNAL,
     1291       25    1         2 DBK UBIN WORD UNAL,
     1292       26    1         2 OWNER UBIN WORD UNAL;
     1293       27    1   DCL 1 PTREDF REDEF NXTPT CHAR(16) CALIGNED;
     1294       28    1   DCL PTSIZE UBIN WORD UNAL STATIC;
     1295       29
     1296       30    1   DCL 1 PTSAVE (0:9) STATIC SYMDEF ALIGNED,
     1297       31    1         2 NEXT UBIN WORD UNAL,
     1298       32    1         2 SETYP SBIN HALF UNAL,
     1299       33    1         2 RECTYP SBIN HALF UNAL,
     1300       34    1         2 DBK UBIN WORD UNAL,
     1301       35    1         2 OWNER UBIN WORD UNAL;
     1302       36    1   DCL PTSVCNT SBIN WORD STATIC SYMDEF ALIGNED;
     1303       37
PL6.E3A0      #004=ZIU$VALDTE File=ZIU$VALSET.:ZIC0TSI                           FRI 09/05/97 13:34 Page:225
     1304       38    1   DCL CASE# SBIN WORD STATIC ALIGNED;
     1305       39    1   DCL PPTSTY SBIN WORD STATIC ALIGNED INIT(0);
     1306       40    1   DCL NEXTEG SBIN WORD STATIC ALIGNED;
     1307       41
     1308       42         %INCLUDE CP_6_SUBS;
     1309      582         %INCLUDE ZI_GLOBAL_DBUTIL;
     1310      760         %SYS_FUNC;
     1311      852         %MISC_DCLS;
     1312      905         %INCLUDE ZI_DBU_VALDTE;
     1313     1173         %VALID_LIST;
     1314     1313         %INCLUDE ZI_DBU_XREF;
     1315     1480         %XREF_TBLS;
     1316     1555         %INCLUDE ZI$DIR;
     1317     1712         %DIR;
     1318     1856
     1319     1857         %EQU PTINIT# = 1;
     1320     1858         %EQU NXTPT# = 2;
     1321     1859
     1322     1860        /*
     1323     1861                 DECISION TABLE FLAGS FOR PT AND EG RECORDS.
     1324     1862        */
     1325     1863    1   DCL EGRECNO SBIN WORD STATIC INIT(0); /* Curr eg recs processed */
     1326     1864    1   DCL PTRECNO SBIN WORD STATIC INIT(0); /* Curr pt recs processed */
     1327     1865    1   DCL EGLIDBK BIT(1) STATIC UNAL; /* EG is last in DBK */
     1328     1866    1   DCL PTLIDBK BIT(1) STATIC UNAL; /* PT is last in DBK */
     1329     1867    1   DCL EGLSTR BIT(1) STATIC UNAL; /* Next EG is last record */
     1330     1868    1   DCL PTLSTR BIT(1) STATIC UNAL; /* Next PT is last record */
     1331     1869    1   DCL EGEOD BIT(1) STATIC UNAL; /* Next DBK has diff value */
     1332     1870    1   DCL PTEOD BIT(1) STATIC UNAL; /* Next DBK has diff value */
     1333     1871    1   DCL EGEOF BIT(1) STATIC UNAL; /* End of file on EG */
     1334     1872    1   DCL PTEOF BIT(1) STATIC UNAL; /* End of file on PT */
     1335     1873
     1336     1874    1   DCL INTERACT BIT(1) STATIC UNAL; /* Rec and Set interact */
     1337     1875    1   DCL OWNER BIT(1) STATIC UNAL;
     1338     1876
     1339     1877    1   DCL HASNXT BIT(1) STATIC UNAL;
     1340     1878    1   DCL MLTNXT BIT(1) STATIC UNAL;
PL6.E3A0      #004=ZIU$VALDTE File=ZIU$VALSET.:ZIC0TSI                           FRI 09/05/97 13:34 Page:226
     1341     1879
     1342     1880
     1343     1881    1   DCL SYS_FUNC_WRIT ENTRY ALTRET;
     1344     1882    1   DCL SYS_FUNC_CLOS ENTRY ALTRET;
     1345     1883    1   DCL SYS_FUNC_OPEN ENTRY ALTRET;
     1346     1884    1   DCL SYS_FUNC_READ ENTRY ALTRET;
     1347     1885    1   DCL ZIU$INTERACT ENTRY(4);
     1348     1886
     1349     1887
     1350     1888    1       PTREDF = PT;
     1351     1889    1       PTSIZE = PT_SIZE;
     1352     1890    1   /**/ DCBSF = PTFILE.DCB#;
     1353     1891
     1354     1892    1       IF PT_SIZE = 0 THEN
     1355     1893    2       DO;
     1356     1894    2           PTLSTR = %TRUE#; /* No more records after the current */
     1357     1895    2           PTLIDBK = %TRUE#; /* Current is the last in the DBK */
     1358     1896    2           CALL SYS_FUNC_CLOS;
     1359     1897    2           END;
     1360     1898
     1361     1899    1       ELSE IF PRINTPT= 1 THEN
     1362     1900    2           DO;
     1363     1901    2               BUFSF = VECTOR(PT);
     1364     1902    2               BUFLNSF = 16;
     1365     1903    2               VFCSF = %NO#;
     1366     1904    2               KEYSF = %NO#;
     1367     1905    2               CALL SYS_FUNC_WRIT ALTRET(ALT_VALDTE);
     1368     1906    2               END;
     1369     1907    1       IF RETURN_CODE = %NXTPT# THEN
     1370     1908    1           GOTO NXTPT;
     1371     1909    1       ELSE
     1372     1910    1           IF RETURN_CODE = %PTINIT# THEN
     1373     1911    1               GOTO PTINIT;
     1374     1912        /*
     1375     1913                 Initialize  EGbuffer and PTbuffer with first record of each
     1376     1914                 and set the proper data flags for decision table.
     1377     1915        */
PL6.E3A0      #004=ZIU$VALDTE File=ZIU$VALSET.:ZIC0TSI                           FRI 09/05/97 13:34 Page:227
     1378     1916
     1379     1917    1       HASNXT = %FALSE#; /* CURR PT NEXT COUNTED FOR AGAINST EG */
     1380     1918    1       MLTNXT= %FALSE#;
     1381     1919    1       CALL INIT_EG ALTRET(ALT_VALDTE);
     1382     1920    1       CALL INIT_PT;
     1383     1921    1       NO_ERRORS = 0;
     1384     1922    1       RETURN_CODE = %PTINIT#;
     1385     1923    1       RETURN;
     1386     1924    1   PTINIT:
     1387     1925    1       IF CURRPT.NEXT ~= NXTPT.NEXT THEN
     1388     1926    1           PTLIDBK = %TRUE#;
     1389     1927
     1390     1928    1       CALL CHECK_CASE(CASE#); /* Call decision table routine
     1391     1929         to examine the records. */
     1392     1930    2       DO WHILE(CASE# ~= %PT_AND_EG_EOF);
     1393     1931
     1394     1932    2           IF BREAK_FLAG > 0 THEN
     1395     1933    2               UNWIND TO BREAK_LOCAT;
     1396     1934
     1397     1935
     1398     1936    3           DO CASE(CASE#);
     1399     1937    3           CASE(%EOF_EG,%EGDBK_GT_PTNXT);
     1400     1938    3               CALL WRITE_VALERR(%GRBGNXT#);
     1401     1939    3               PPTSTY = 0;
     1402     1940    3               RETURN_CODE = %NXTPT#;
     1403     1941    3               CALL RDPTREC ALTRET(REREAD);
     1404     1942    3               RETURN;
     1405     1943
     1406     1944    3           CASE(%EOF_PT,%EGDBK_LT_PTNXT);
     1407     1945    3               IF MLTNXT THEN /* Multiple next pointers = true*/
     1408     1946    4               DO;
     1409     1947    4                   CALL WRITE_VALERR(%MULTNXT#);
     1410     1948    4                   MLTNXT = %FALSE#; /* Clear multnxt flag */
     1411     1949    4                   END;
     1412     1950    3               PPTSTY = 0;
     1413     1951    3               IF ~HASNXT THEN
     1414     1952    3                   CALL WRITE_VALERR(%MISGNXT#) ALTRET(ALT_VALDTE);
PL6.E3A0      #004=ZIU$VALDTE File=ZIU$VALSET.:ZIC0TSI                           FRI 09/05/97 13:34 Page:228
     1415     1953    3               CALL RDEGREC ALTRET(ALT_VALDTE);
     1416     1954    3               IF EGEOD = %TRUE# THEN /* Lst dbk in set on read */
     1417     1955    3                   CALL RDEGREC ALTRET(ALT_VALDTE);
     1418     1956    3               HASNXT = %NO#;
     1419     1957
     1420     1958
     1421     1959    3           CASE(%CHNG_PT_DBK,%EGSET_LT_PTSET);
     1422     1960    3               IF MLTNXT THEN /* Multiple next pointers = true*/
     1423     1961    4               DO;
     1424     1962    4                   CALL WRITE_VALERR(%MULTNXT#);
     1425     1963    4                   MLTNXT = %FALSE#; /* Clear multnxt flag */
     1426     1964    4                   END;
     1427     1965    3               IF ~HASNXT THEN
     1428     1966    4               DO;
     1429     1967    4                   CALL WRITE_VALERR(%MISGNXT#) ALTRET(ALT_VALDTE);
     1430     1968    4                   END;
     1431     1969    3               CALL RDEGREC ALTRET(ALT_VALDTE);
     1432     1970    3               HASNXT = EGEOD;
     1433     1971
     1434     1972    3           CASE(%CHNG_EG_PT_DBK);
     1435     1973    3               PPTSTY = 0;
     1436     1974    3               RETURN_CODE = %NXTPT#;
     1437     1975    3               CALL RDPTREC ALTRET(NOREAD);
     1438     1976    3               RETURN;
     1439     1977
     1440     1978    3           CASE(%CHNG_EG_DBK,%EGSET_GT_PTSET);
     1441     1979    3               CALL WRITE_VALERR(%DANGNXT#) ALTRET(ALT_VALDTE);
     1442     1980    3               RETURN_CODE = %NXTPT#;
     1443     1981    3               CALL RDPTREC ALTRET(NOREAD);
     1444     1982    3               RETURN;
     1445     1983
     1446     1984    3           CASE(%MULTNXT);
     1447     1985    3               MLTNXT = %TRUE#;
     1448     1986    3               HASNXT = %TRUE#;
     1449     1987    3               PTSVCNT = PTSVCNT+1;
     1450     1988    3               PTSAVE(PTSVCNT) = CURRPT; /* Save the current pt */
     1451     1989    3               PPTSTY = CURRPT.SETYP;
PL6.E3A0      #004=ZIU$VALDTE File=ZIU$VALSET.:ZIC0TSI                           FRI 09/05/97 13:34 Page:229
     1452     1990    3               CALL CHECK_PTRS ALTRET(ALT_VALDTE);
     1453     1991    3               RETURN_CODE = %NXTPT#;
     1454     1992    3               CALL RDPTREC ALTRET(NOREAD);
     1455     1993    3               RETURN;
     1456     1994
     1457     1995    3           CASE(ELSE);
     1458     1996    3               IF MLTNXT = %TRUE# THEN
     1459     1997    4               DO;
     1460     1998    4                   CALL WRITE_VALERR(%MULTNXT#);
     1461     1999    4                   MLTNXT = %FALSE#;
     1462     2000    4                   END;
     1463     2001    3               PTSVCNT = 0;
     1464     2002    3               HASNXT = %TRUE#;
     1465     2003    3               PTSAVE(0) = CURRPT;
     1466     2004    3               PPTSTY = CURRPT.SETYP;
     1467     2005    3               CALL CHECK_PTRS ALTRET(ALT_VALDTE);
     1468     2006    3               RETURN_CODE = %NXTPT#;
     1469     2007    3               CALL RDPTREC ALTRET(NOREAD);
     1470     2008    3               RETURN;
     1471     2009
     1472     2010
     1473     2011    3               END; /* END CASE */
     1474     2012
     1475     2013    2   REREAD:
     1476     2014    2           IF PTEOD = %YES# THEN
     1477     2015    3           DO;
     1478     2016    3               CALL RDPTREC ALTRET(NOREAD);
     1479     2017    3               RETURN;
     1480     2018    3               END;
     1481     2019
     1482     2020    2   NXTPT:
     1483     2021    2           IF CURRPT.NEXT ~= NXTPT.NEXT THEN
     1484     2022    2               PTLIDBK = %TRUE#;
     1485     2023    2   NOREAD:
     1486     2024         /* No reading of a PT rec was required */
     1487     2025
     1488     2026    2           CALL CHECK_CASE(CASE#);
PL6.E3A0      #004=ZIU$VALDTE File=ZIU$VALSET.:ZIC0TSI                           FRI 09/05/97 13:34 Page:230
     1489     2027
     1490     2028    2           END; /* END DO WHILE */
     1491     2029
     1492     2030    1       DCBSF = EGFILE.DCB#; /* CLOSE *EGFILE */
     1493     2031    1       CALL SYS_FUNC_CLOS;
     1494     2032    1       RETURN_CODE = 0;
     1495     2033    1       RETURN;
     1496     2034         %EJECT;
PL6.E3A0      #004=ZIU$VALDTE File=ZIU$VALSET.:ZIC0TSI                           FRI 09/05/97 13:34 Page:231
     1497     2035    1   CHECK_CASE: PROC(CASE#);
     1498     2036    2   DCL CASE# SBIN;
     1499     2037
     1500     2038    2       IF EGEOF AND PTEOF THEN
     1501     2039    2           CASE# = %PT_AND_EG_EOF;
     1502     2040    2       ELSE
     1503     2041    2           IF EGEOF THEN
     1504     2042    2               CASE# = %EOF_EG;
     1505     2043    2           ELSE
     1506     2044    2               IF PTEOF THEN
     1507     2045    2                   CASE# = %EOF_PT;
     1508     2046    2               ELSE
     1509     2047    2                   IF CURREG.DBK > CURRPT.NEXT THEN
     1510     2048    2                       CASE# = %EGDBK_GT_PTNXT;
     1511     2049    2                   ELSE
     1512     2050    2                       IF CURREG.DBK < CURRPT.NEXT THEN
     1513     2051    2                           CASE# = %EGDBK_LT_PTNXT;
     1514     2052    2                       ELSE
     1515     2053    2                           IF EGEOD = %TRUE# AND /* Last set in curr eg dbk */
     1516     2054    2                              PTEOD = %TRUE# THEN /* Last set in curr pt dbk */
     1517     2055    2                               CASE# = %CHNG_EG_PT_DBK;
     1518     2056    2                           ELSE
     1519     2057    2                               IF EGEOD = %TRUE# THEN
     1520     2058    2                                   CASE# = %CHNG_EG_DBK;
     1521     2059    2                               ELSE
     1522     2060    2                                   IF PTEOD = %TRUE# THEN
     1523     2061    2                                       CASE# = %CHNG_PT_DBK;
     1524     2062    2                                   ELSE
     1525     2063    2                                       IF CURREG.SETYP < CURRPT.SETYP THEN
     1526     2064    2                                           CASE# = %EGSET_LT_PTSET;
     1527     2065    2                                       ELSE
     1528     2066    2                                           IF CURREG.SETYP > CURRPT.SETYP THEN
     1529     2067    2                                               CASE# = %EGSET_GT_PTSET;
     1530     2068    2                                           ELSE
     1531     2069    2                                               IF CURRPT.SETYP = PPTSTY THEN
     1532     2070    2                                                   CASE# = %MULTNXT;
     1533     2071    2                                               ELSE
PL6.E3A0      #004=ZIU$VALDTE File=ZIU$VALSET.:ZIC0TSI                           FRI 09/05/97 13:34 Page:232
     1534     2072    2                                                   CASE# = 0;
     1535     2073
     1536     2074    2       RETURN;
     1537     2075
     1538     2076    2   END CHECK_CASE;
     1539     2077        %EJECT;
PL6.E3A0      #004=ZIU$VALDTE File=ZIU$VALSET.:ZIC0TSI                           FRI 09/05/97 13:34 Page:233
     1540     2078        /*
     1541     2079              Check pointers routine.
     1542     2080        */
     1543     2081    1   CHECK_PTRS: PROC ALTRET;
     1544     2082    2       HASNXT = %YES#;
     1545     2083    2       CALL ZIU$INTERACT(CURREG.RECTYP,CURREG.SETYP,INTERACT,OWNER);
     1546     2084    2       IF CASE# ~= %MULTNXT THEN
     1547     2085    3       DO;
     1548     2086    3           CALL CHKPRI ALTRET(ALT_PTRS);
     1549     2087    3           CALL CHKOWN ALTRET(ALT_PTRS);
     1550     2088    3           END;
     1551     2089    2       CALL CHKNXT ALTRET(ALT_PTRS);
     1552     2090    2       RETURN;
     1553     2091
     1554     2092    2   ALT_PTRS:
     1555     2093    2       ALTRETURN;
     1556     2094    2   END CHECK_PTRS;
     1557     2095
     1558     2096
     1559     2097    1   CHKNXT: PROC ALTRET;
     1560     2098        /*
     1561     2099           Does record point to itself? if so it better be the set owner.
     1562     2100        */
     1563     2101    2       IF CURREG.DBK ~= CURRPT.DBK THEN
     1564     2102    2           RETURN;
     1565     2103    2       IF OWNER = %YES# THEN
     1566     2104    2           RETURN;
     1567     2105    2       CALL WRITE_VALERR(%MMBRNXT#) ALTRET(ALTNXT);
     1568     2106    2       RETURN;
     1569     2107    2   ALTNXT:
     1570     2108    2       LASTEG = NO_EGRECS;
     1571     2109    2       LASTPT = PTRECNO;
     1572     2110    2       ALTRETURN;
     1573     2111    2   END CHKNXT;
     1574     2112
     1575     2113
     1576     2114    1   CHKPRI: PROC ALTRET;
PL6.E3A0      #004=ZIU$VALDTE File=ZIU$VALSET.:ZIC0TSI                           FRI 09/05/97 13:34 Page:234
     1577     2115
     1578     2116    2       IF CURREG.PRIOR = CURREG.DBK THEN
     1579     2117    3       DO;
     1580     2118    3           IF OWNER = %NO# THEN
     1581     2119    3               CALL WRITE_VALERR(%MMBRPRI#) ALTRET(ALTPRI);
     1582     2120    3           END;
     1583     2121
     1584     2122    2       IF CURREG.PRIOR ~= CURRPT.DBK THEN
     1585     2123    2           CALL WRITE_VALERR(%DBKPRIOR#);
     1586     2124    2       RETURN;
     1587     2125    2   ALTPRI:
     1588     2126    2       ALTRETURN;
     1589     2127    2   END CHKPRI;
     1590     2128
     1591     2129
     1592     2130    1   CHKOWN: PROC ALTRET;
     1593     2131
     1594     2132    2       IF CURREG.SETYP < 5000 OR CURRPT.SETYP < 5000 THEN
     1595     2133    2           RETURN; /*  Special PA -> PA pointers (no owner ptrs )*/
     1596     2134
     1597     2135    2       IF MSTR_REF.NAME(CURREG.SETYP-5000+NO_RECS) = '*CALC' THEN
     1598     2136    2           RETURN; /* Calc recs have no owners */
     1599     2137
     1600     2138    2       IF CURREG.OWNER ~= CURRPT.OWNER AND
     1601     2139    2          CURREG.OWNER ~= 0 AND CURRPT.OWNER ~= 0 THEN
     1602     2140    2           IF MSTR_REF.SET.PATYPE(CURREG.SETYP-5000+NO_RECS) ~= '1'B THEN
     1603     2141    2               CALL WRITE_VALERR(%INCNOWN#) ALTRET(ALTOWN);
     1604     2142    2       IF CURRPT.OWNER = 0 AND CURRPT.NEXT ~= 0 THEN
     1605     2143    2           CALL WRITE_VALERR(%GRBGOWN#) ALTRET(ALTOWN);
     1606     2144
     1607     2145    2       RETURN;
     1608     2146    2   ALTOWN:
     1609     2147    2       ALTRETURN;
     1610     2148    2   END CHKOWN;
     1611     2149        %EJECT;
PL6.E3A0      #004=ZIU$VALDTE File=ZIU$VALSET.:ZIC0TSI                           FRI 09/05/97 13:34 Page:235
     1612     2150
     1613     2151    1   INIT_EG: PROC ALTRET;
     1614     2152
     1615     2153    2       EGRECNO = 0;
     1616     2154    2       EGLIDBK = %FALSE#;
     1617     2155    2       EGLSTR = %FALSE#;
     1618     2156    2       EGEOD = %FALSE#;
     1619     2157    2       EGEOF = %FALSE#;
     1620     2158
     1621     2159    2       IF NO_EGRECS = 0 THEN
     1622     2160    3       DO;
     1623     2161    3           EGEOF = %YES#;
     1624     2162    3           RETURN;
     1625     2163    3           END;
     1626     2164
     1627     2165         /*       Close and reopen EGFILE for input. */
     1628     2166    2   /**/ DCBSF = EGFILE.DCB#;
     1629     2167    2       CALL SYS_FUNC_CLOS;
     1630     2168    2       FUNSF = %IN#;
     1631     2169    2       ACSSF = %SEQUEN#;
     1632     2170    2       ORGSF = %CONSEC#;
     1633     2171    2       ASNSF = %FILE#;
     1634     2172    2       FIDSF = '*EGFILE';
     1635     2173    2       CALL SYS_FUNC_OPEN ALTRET(ALT_EGINIT);
     1636     2174
     1637     2175
     1638     2176    2       CALL RDEGBUF ALTRET(ALT_EGINIT);
     1639     2177
     1640     2178    2       CURREG = EGREC(0);
     1641     2179    2       NEXTEG = 1;
     1642     2180
     1643     2181    2       IF NO_EGRECS = 1 THEN
     1644     2182    3       DO;
     1645     2183    3           EGLSTR = %TRUE#;
     1646     2184    3           EGLIDBK= %TRUE#;
     1647     2185    3           RETURN;
     1648     2186    3           END;
PL6.E3A0      #004=ZIU$VALDTE File=ZIU$VALSET.:ZIC0TSI                           FRI 09/05/97 13:34 Page:236
     1649     2187
     1650     2188    2       IF CURREG.DBK ~= EGREC.DBK(NEXTEG) THEN
     1651     2189    2           EGLIDBK = %TRUE#;
     1652     2190
     1653     2191    2       RETURN;
     1654     2192
     1655     2193    2   ALT_EGINIT:
     1656     2194    2       ALTRETURN;
     1657     2195    2   END INIT_EG;
     1658     2196        %EJECT;
PL6.E3A0      #004=ZIU$VALDTE File=ZIU$VALSET.:ZIC0TSI                           FRI 09/05/97 13:34 Page:237
     1659     2197        /*
     1660     2198                     Read EG file and set flags
     1661     2199        */
     1662     2200    1   RDEGREC: PROC ALTRET;
     1663     2201
     1664     2202    2       EGEOD = %NO#;
     1665     2203    2       EGEOF = %NO#;
     1666     2204
     1667     2205    2       IF EGLIDBK = %TRUE# THEN
     1668     2206    3       DO;
     1669     2207    3           EGLIDBK = %FALSE#;
     1670     2208    3           EGEOD = %TRUE#;
     1671     2209    3           RETURN;
     1672     2210    3           END;
     1673     2211
     1674     2212    2       CURREG = EGREC(NEXTEG);
     1675     2213    2       EGRECNO = EGRECNO +1;
     1676     2214    2       NEXTEG = NEXTEG +1;
     1677     2215
     1678     2216    2       IF EGLSTR = %TRUE# THEN /* This is the last record in EG file */
     1679     2217    3       DO;
     1680     2218    3           EGEOF = %TRUE#;
     1681     2219    3           RETURN;
     1682     2220    3           END;
     1683     2221
     1684     2222    2       IF NEXTEG > 4095 AND EGRECNO < NO_EGRECS THEN
     1685     2223    3       DO;
     1686     2224    3           CALL RDEGBUF ALTRET(ALT_RDEG);
     1687     2225    3           NEXTEG = 0;
     1688     2226    3           END;
     1689     2227
     1690     2228    2       IF EGRECNO+1 = NO_EGRECS THEN
     1691     2229    3       DO;
     1692     2230    3           EGLSTR = %TRUE#;
     1693     2231    3           EGLIDBK = %TRUE#;
     1694     2232    3           END;
     1695     2233
PL6.E3A0      #004=ZIU$VALDTE File=ZIU$VALSET.:ZIC0TSI                           FRI 09/05/97 13:34 Page:238
     1696     2234    2       IF CURREG.DBK ~= EGREC.DBK(NEXTEG) THEN
     1697     2235    2           EGLIDBK = %TRUE#;
     1698     2236
     1699     2237    2       RETURN;
     1700     2238
     1701     2239    2   ALT_RDEG:
     1702     2240    2       ALTRETURN;
     1703     2241    2   END RDEGREC;
     1704     2242        %EJECT;
PL6.E3A0      #004=ZIU$VALDTE File=ZIU$VALSET.:ZIC0TSI                           FRI 09/05/97 13:34 Page:239
     1705     2243        /*
     1706     2244                     PHYSICAL READ OF EG FILE
     1707     2245        */
     1708     2246    1   RDEGBUF: PROC ALTRET;
     1709     2247
     1710     2248    2   /**/ DCBSF = EGFILE.DCB#;
     1711     2249    2       BUFSF = VECTOR(EGREC);
     1712     2250    2       BUFLNSF = 16*4096;
     1713     2251    2       KEYSF = %NO#;
     1714     2252    2       FULLSF = %NO#;
     1715     2253    2       CALL SYS_FUNC_READ ALTRET(ALT_READ);
     1716     2254    2       RETURN;
     1717     2255    2   ALT_READ:
     1718     2256    2       ALTRETURN;
     1719     2257    2   END RDEGBUF;
     1720     2258        %EJECT;
PL6.E3A0      #004=ZIU$VALDTE File=ZIU$VALSET.:ZIC0TSI                           FRI 09/05/97 13:34 Page:240
     1721     2259
     1722     2260        /*
     1723     2261                         P T    I N I T
     1724     2262        */
     1725     2263    1   INIT_PT: PROC ALTRET;
     1726     2264
     1727     2265    2       PTLIDBK = %NO#;
     1728     2266    2       PTLSTR = %NO#;
     1729     2267    2       PTEOD = %FALSE#;
     1730     2268    2       PTEOF = %FALSE#;
     1731     2269    2       PTRECNO = 0;
     1732     2270    2       PTSVCNT = -1; /* Index for PTSAVE used for MULTNXT error */
     1733     2271
     1734     2272    2       IF PTSIZE = 0 THEN
     1735     2273    3       DO;
     1736     2274    3           PTEOF = %YES#;
     1737     2275    3           ALTRETURN;
     1738     2276    3           END;
     1739     2277
     1740     2278    2       CURRPT = NXTPT;
     1741     2279
     1742     2280    2       IF NO_EGRECS = 1 THEN
     1743     2281    3       DO;
     1744     2282    3           PTLSTR = %TRUE#;
     1745     2283    3           PTLIDBK= %TRUE#;
     1746     2284    3           RETURN;
     1747     2285    3           END;
     1748     2286
     1749     2287    2       RETURN;
     1750     2288
     1751     2289    2   END INIT_PT;
     1752     2290        %EJECT;
PL6.E3A0      #004=ZIU$VALDTE File=ZIU$VALSET.:ZIC0TSI                           FRI 09/05/97 13:34 Page:241
     1753     2291        /*
     1754     2292                      READ   PT   RECORD
     1755     2293           This procedure will altreturn if it is found that no real read
     1756     2294           is to take place. This is how the calling location will no
     1757     2295           wether or not to return to sort.
     1758     2296        */
     1759     2297    1   RDPTREC: PROC ALTRET;
     1760     2298
     1761     2299    2       PTEOF = %FALSE#;
     1762     2300    2       PTEOD = %FALSE#;
     1763     2301
     1764     2302    2       IF PTLIDBK = %YES# THEN
     1765     2303    3       DO;
     1766     2304    3           PTLIDBK = %NO#;
     1767     2305    3           PTEOD = %YES#;
     1768     2306    3           ALTRETURN;
     1769     2307    3           END;
     1770     2308
     1771     2309    2       CURRPT = NXTPT;
     1772     2310
     1773     2311    2       IF PTLSTR = %TRUE# THEN
     1774     2312    3       DO;
     1775     2313    3           PTEOF = %TRUE#;
     1776     2314    3           ALTRETURN;
     1777     2315    3           END;
     1778     2316
     1779     2317    2       PTRECNO = PTRECNO +1;
     1780     2318
     1781     2319    2       RETURN;
     1782     2320    2   END RDPTREC;
     1783     2321        %EJECT;
PL6.E3A0      #004=ZIU$VALDTE File=ZIU$VALSET.:ZIC0TSI                           FRI 09/05/97 13:34 Page:242
     1784     2322
     1785     2323        /*
     1786     2324           This routine writes to the errfile the errors found by the
     1787     2325           set validation routine. The type of error is identified by
     1788     2326           ERRCODE which is used by the error reporting routine for
     1789     2327           displaying the error. The error file may and will be sorted
     1790     2328           to get problems with common dbks together.
     1791     2329        */
     1792     2330    1   WRITE_VALERR: PROC(ERRCODE) ALTRET;
     1793     2331
     1794     2332    2   DCL ERRCODE SBIN WORD ALIGNED;
     1795     2333
     1796     2334    2       NO_ERRORS = NO_ERRORS+1;
     1797     2335    3       DO CASE(ERRCODE);
     1798     2336
     1799     2337    3       CASE(%GRBGNXT#,%GRBGOWN#);
     1800     2338    3           GRBGNXT.CODE = ERRCODE;
     1801     2339    3           GRBGNXT.BADDBK = CURRPT.DBK;
     1802     2340    3           GRBGNXT.SETYP = CURRPT.SETYP;
     1803     2341    3           GRBGNXT.RECTYP = CURRPT.RECTYP;
     1804     2342    3           GRBGNXT.NXTVAL = CURRPT.NEXT;
     1805     2343    3           GRBGNXT.OWNER = CURRPT.OWNER;
     1806     2344    3           IF ERRCODE = %GRBGOWN# THEN
     1807     2345    3               GRBGNXT.NXTVAL = CURRPT.OWNER;
     1808     2346    3           BUFLNSF = 17;
     1809     2347
     1810     2348    3       CASE(%MULTNXT#);
     1811     2349    4           DO I = 0 TO PTSVCNT;
     1812     2350    4               MULTNXT.CODE = ERRCODE;
     1813     2351    4               MULTNXT.BADNXT = PTSAVE.NEXT(I);
     1814     2352    4               MULTNXT.SETYP = PTSAVE.SETYP(I);
     1815     2353    4               MULTNXT.BADDBK = PTSAVE.DBK(I);
     1816     2354    4               MULTNXT.RECTYP = PTSAVE.RECTYP(I);
     1817     2355    4               MULTNXT.PTCNT = PTSVCNT;
     1818     2356    4               MULTNXT.OWNER = PTSAVE.OWNER(I);
     1819     2357    4               BUFLNSF = 18;
     1820     2358
PL6.E3A0      #004=ZIU$VALDTE File=ZIU$VALSET.:ZIC0TSI                           FRI 09/05/97 13:34 Page:243
     1821     2359
     1822     2360         /*   Since the PA -> PA  record set pointers had 5000 subtracted
     1823     2361            off thier set values make the decision table think there
     1824     2362            are two separate sets (to avoid mult next ptr conflicts) -
     1825     2363            we will now restore the values. */
     1826     2364    4               IF ERROR.SETYP < 5000 THEN
     1827     2365    4                   ERROR.SETYP = ERROR.SETYP + 5000;
     1828     2366    4    /**/       DCBSF = ERRFILE.DCB#;
     1829     2367    4    /**/       DCBSF = ERRFILE.DCB#;
     1830     2368    4               BUFSF = VECTOR(ERROR_BUF);
     1831     2369    4               VFCSF = %NO#;
     1832     2370    4               FULLSF =%NO#;
     1833     2371    4               CALL SYS_FUNC_WRIT ALTRET(ALT_ERR);
     1834     2372    4               END;
     1835     2373    3           PTSVCNT = -1;
     1836     2374    3           RETURN;
     1837     2375
     1838     2376    3       CASE(%MMBRNXT#);
     1839     2377    3           MMBR.BADDBK = CURRPT.DBK;
     1840     2378    3           MMBR.SETYP = CURRPT.SETYP;
     1841     2379    3           MMBR.CODE = ERRCODE;
     1842     2380    3           MMBR.RECTYP = CURRPT.RECTYP;
     1843     2381    3           MMBR.OWNER = CURRPT.OWNER;
     1844     2382    3           BUFLNSF = 13;
     1845     2383
     1846     2384    3       CASE(%MMBRPRI#);
     1847     2385    3           MMBR.BADDBK = CURREG.DBK;
     1848     2386    3           MMBR.SETYP = CURREG.SETYP;
     1849     2387    3           MMBR.CODE = ERRCODE;
     1850     2388    3           MMBR.RECTYP = CURREG.RECTYP;
     1851     2389    3           BUFLNSF = 9;
     1852     2390
     1853     2391    3       CASE(%MISGNXT#);
     1854     2392    3           MISGNXT.BADDBK = CURREG.DBK;
     1855     2393    3           MISGNXT.SETYP = CURREG.SETYP;
     1856     2394    3           MISGNXT.CODE = ERRCODE;
     1857     2395    3           MISGNXT.RECTYP = CURREG.RECTYP;
PL6.E3A0      #004=ZIU$VALDTE File=ZIU$VALSET.:ZIC0TSI                           FRI 09/05/97 13:34 Page:244
     1858     2396    3           MISGNXT.PRI_VAL = CURREG.PRIOR;
     1859     2397    3           BUFLNSF = 13;
     1860     2398
     1861     2399    3       CASE(%DANGNXT#);
     1862     2400    3           DANGNXT.BADDBK = CURRPT.DBK;
     1863     2401    3           DANGNXT.SETYP = CURRPT.SETYP;
     1864     2402    3           DANGNXT.CODE = ERRCODE;
     1865     2403    3           DANGNXT.RECTYP = CURRPT.RECTYP;
     1866     2404    3           DANGNXT.BADPRI = CURREG.DBK;
     1867     2405    3           DANGNXT.PRI_RECTYP = CURREG.RECTYP;
     1868     2406    3           DANGNXT.OWNER = CURRPT.OWNER;
     1869     2407    3           BUFLNSF = 19;
     1870     2408
     1871     2409    3       CASE(%INCNOWN#);
     1872     2410    3           INCNOWN.DBK1 = CURREG.DBK;
     1873     2411    3           INCNOWN.SETYP = CURREG.SETYP;
     1874     2412    3           INCNOWN.CODE = ERRCODE;
     1875     2413    3           INCNOWN.RECTYP1= CURREG.RECTYP;
     1876     2414    3           INCNOWN.OWNDBK1= CURREG.OWNER;
     1877     2415    3           INCNOWN.DBK2 = CURRPT.DBK;
     1878     2416    3           INCNOWN.OWNDBK2= CURRPT.OWNER;
     1879     2417    3           INCNOWN.RECTYP2= CURRPT.RECTYP;
     1880     2418    3           BUFLNSF = 23;
     1881     2419
     1882     2420    3       CASE(%DBKPRIOR#);
     1883     2421    3           DBKPRIOR.BADDBK = CURREG.DBK;
     1884     2422    3           DBKPRIOR.SETYP = CURREG.SETYP;
     1885     2423    3           DBKPRIOR.CODE = ERRCODE;
     1886     2424    3           DBKPRIOR.RECTYP = CURREG.RECTYP;
     1887     2425    3           DBKPRIOR.EXP_PRI = CURRPT.DBK;
     1888     2426    3           DBKPRIOR.PRI_VAL = CURREG.PRIOR;
     1889     2427    3           BUFLNSF = 17;
     1890     2428
     1891     2429    3           END; /* CASE */
     1892     2430
     1893     2431         /*   Since the PA -> PA  record set pointers had 5000 subtracted
     1894     2432            off their set values make the decision table think there
PL6.E3A0      #004=ZIU$VALDTE File=ZIU$VALSET.:ZIC0TSI                           FRI 09/05/97 13:34 Page:245
     1895     2433            are two separate sets (to avoid mult next ptr conflicts) -
     1896     2434            we will now restore the values. */
     1897     2435    2       IF ERROR.SETYP < 5000 THEN
     1898     2436    2           ERROR.SETYP = ERROR.SETYP + 5000;
     1899     2437
     1900     2438    2   /**/ DCBSF = ERRFILE.DCB#;
     1901     2439    2       BUFSF = VECTOR(ERROR_BUF);
     1902     2440    2       VFCSF = %NO#;
     1903     2441    2       FULLSF =%NO#;
     1904     2442    2       CALL SYS_FUNC_WRIT ALTRET(ALT_ERR);
     1905     2443
     1906     2444
     1907     2445    2       RETURN;
     1908     2446    2   ALT_ERR:
     1909     2447    2       ALTRETURN;
     1910     2448    2   END WRITE_VALERR;
     1911     2449
     1912     2450    1   ALT_VALDTE:
     1913     2451    1       ALTRETURN;
     1914     2452
     1915     2453    1   END ZIU$VALDTE;
     1916     2454        %EOD;

PL6.E3A0      #004=ZIU$VALDTE File=ZIU$VALSET.:ZIC0TSI                           FRI 09/05/97 13:34 Page:246
--  Include file information  --

   ZI$DIR.:ZIC0TOU  is referenced.
   ZI_DBU_XREF.:ZIC0TOU  cannot be made into a system file and is referenced.
   ZI_DBU_VALDTE.:ZIC0TOU  is referenced.
   ZI_GLOBAL_DBUTIL.:ZIC0TOU  is referenced.
   CP_6_SUBS.:LIB_E05  is referenced.
   B$JIT_C.:E05TOU  was found in the system file and is never referenced.
   CP_6_C.:E05TOU  was found in the system file and is never referenced.
      No diagnostics issued in procedure ZIU$VALDTE.

   Procedure ZIU$VALDTE requires 854 words for executable code.
   Procedure ZIU$VALDTE requires 14 words of local(AUTO) storage.

PL6.E3A0      #004=ZIU$VALDTE File=ZIU$VALSET.:ZIC0TSI                           FRI 09/05/97 13:34 Page:247

 Object Unit name= ZIU$VALDTE                                 File name= ZIU$VALSET.:ZIC0TOU
 UTS= SEP 05 '97 13:34:21.04 FRI                              Compiler= PL-6/E31         Sev=      00
 SharedLib= :SHARED_SYSTEM                                    Alt SharedLib=


    ****  Control sections  ****

 Sect   Type Bound  Init  Size OctSiz  Section name(segment info)
    0   Data  even  none    67    103  ZIU$VALDTE
    1   DCB   even  none     0      0  M$LO
    2  RoData even  UTS      4      4  ZIU$VALDTE
    3   Proc  even  none   854   1526  ZIU$VALDTE
    4  RoData even  none    28     34  ZIU$VALDTE

    ****  Entry defs  ****

                              Check   Calling
                             calling  sequence
  Sect OctLoc Primary Altret sequence   type   Parms  Name
     3      0   yes    yes     yes      Std        2  ZIU$VALDTE

  ****  Data defs  ****

 Sect OctLoc  Name                           Sect OctLoc  Name
    0     11  PTSAVE                             0     61  PTSVCNT
PL6.E3A0      #004=ZIU$VALDTE File=ZIU$VALSET.:ZIC0TSI                           FRI 09/05/97 13:34 Page:248

  ****  Entry refs  ****

         Check        Calling
        calling       sequence
Altret sequence SRef   type   Args  Name
 yes     yes           Std       0 SYS_FUNC_CLOS
 yes     yes           Std       0 SYS_FUNC_WRIT
         yes           Std       4 ZIU$INTERACT
 yes     yes           Std       0 SYS_FUNC_OPEN
 yes     yes           Std       0 SYS_FUNC_READ
                       nStd      0 X66_AUTO_2
                       nStd      0 X66_ARET
                       nStd      0 X66_AUNWIND
                       nStd      0 X66_AALT

  ****  Data refs  ****

  Flags:  r = read only, s = secondary
Flgs Name                             Flgs Name                             Flgs Name
     PTFILE                                BLKLSF                                KEYLSF
     KEYXSF                                DCBSF                                 ORGSF
     KEYSF                                 KEYVSF                                ACSSF
     NOTIMESF                              FUNSF                                 ASNSF
     TESTSF                                XTENSIZESF                            DISPSF
     WAITSF                                VFCSF                                 FULLSF
     BKUPSF                                BUFLNSF                               BUFSF
     SOURCESF                              DESTSF                                DATESF
     TIMESF                                UTSSF                                 DAYSF
     TSTAMPSF                              ENCRP_SEEDSF                          ERRCODESF
     MSGCODE                               INCL_ERR                              ERR_INSERT
     FIDSF_RD                              ACNT                                  EXISTSF
     SHARESF                               DCBNMSF                               KEYRSF
     NO_KEYSF                              REASGNSF                              CARRY_ATTRIBUTESF
     SUBMESSF                              SPKY_OPNSF                            POSSF
     ERRFLGSF                              MERGESF                               FSA_FLAG
     RELGSF                                UNUSED                                HELPCODE
     COUNTSF                               INDEXSF                               GAP
PL6.E3A0      #004=ZIU$VALDTE File=ZIU$VALSET.:ZIC0TSI                           FRI 09/05/97 13:34 Page:249
     PSNSF                                 ACNTSF                                KEY_SHADWSF
     REC$                                  RB                                    RE
     IE                                    IB                                    CNT
     ICNT                                  RCNT                                  SCNT
     FIRST_SET                             RETCNT                                DMPCNT
     KCNT                                  ACNT_IDX                              I
     J                                     K                                     X
     STEPCC                                I_O_BUF$                              OUT_INDX
     I_O_SIZE                              REC_DATA_LN                           M$LO
     B$TCB$                                B$ROS$                                B$JIT$
     KEYFID                                I_O_KEY                               RESTART
     BREAK_FLAG                            ICHKSUM                               ITMCNT
     GAP1                                  BREAK_LOCAT                           RECLIST
     SETLIST                               SETINDX                               RECINDX
     HIGH_RECINDX                          EGREC$                                EGINDX
     NO_EGRECS                             NO_EGBUFS                             LAST_EGINDX
     CURREG                                CURRPT                                EGFILE
     ERRFILE                               NO_ERRORS                             ERROR_BUF
     ERRBUF$                               TYPE                                  MSTR$
     NXT_MSLOT                             MAX_MSLOT                             MSTR_INDX
     HASHTBL                               HASHINDX                              LOC_MODE
     AREA_KEY$                             NO_AREAS                              GLBL_PTR_SZ
     SET_XREF$                             NXT_SSLOT                             MAX_SSLOT
     REC_XREF$                             NXT_RSLOT                             MAX_RSLOT
     NO_RECS                               NO_SETS                               XREF_BUILT
     TYPESET                               TYPEREC                               ZI$DIR
     SCHEMA_ACTIVE                         RECORD_LIST                           SET_LIST
     RETAIN_LIST                           DUMP_FID                              ALTKY
     INIT_RG                               KEY_RNG                               ITEM_LIST

  ****  Segment refs  ****

  Flags:  r = read only, s = secondary
Flgs Name                             Flgs Name                             Flgs Name
     ISSID
PL6.E3A0      #004=ZIU$VALDTE File=ZIU$VALSET.:ZIC0TSI                           FRI 09/05/97 13:34 Page:250


     1267        1        /*M*  ZIU$VALDTE  IDSII  UTILITIES  SET VALIDATION OUTPUT PROC */
     1268        2        /*T***********************************************************/
     1269        3        /*T*                                                         */
     1270        4        /*T* Copyright (c) Bull HN Information Systems Inc., 1997    */
     1271        5        /*T*                                                         */
     1272        6        /*T***********************************************************/
     1273        7        ZIU$VALDTE: PROC(PT,PT_SIZE) ALTRET;

      7  3 000000   000000 700200 xent  ZIU$VALDTE   TSX0  ! X66_AUTO_2
         3 000001   000016 000002                    ZERO    14,2

     1274        8
     1275        9    1   DCL 1 PT CHAR(PT_SIZE);
     1276       10    1   DCL PT_SIZE UBIN WORD;
     1277       11
     1278       12    1   DCL RETURN_CODE SBIN WORD STATIC INIT(0); /* Reentry code */
     1279       13    1   DCL LASTEG SBIN WORD STATIC INIT(0);
     1280       14    1   DCL LASTPT SBIN WORD STATIC INIT(0);
     1281       15    1   DCL PRINTPT SBIN WORD STATIC INIT(0);
     1282       16
     1283       17    1   DCL 1 PTFILE SYMREF,
     1284       18    1         2 * CHAR(5) UNAL,
     1285       19    1         2 DCB# UBIN HALF UNAL;
     1286       20
     1287       21    1   DCL 1 NXTPT STATIC CALIGNED,
     1288       22    1         2 NEXT UBIN WORD UNAL,
     1289       23    1         2 SETYP SBIN HALF UNAL,
     1290       24    1         2 RECTYPE SBIN HALF UNAL,
     1291       25    1         2 DBK UBIN WORD UNAL,
     1292       26    1         2 OWNER UBIN WORD UNAL;
     1293       27    1   DCL 1 PTREDF REDEF NXTPT CHAR(16) CALIGNED;
     1294       28    1   DCL PTSIZE UBIN WORD UNAL STATIC;
     1295       29
     1296       30    1   DCL 1 PTSAVE (0:9) STATIC SYMDEF ALIGNED,
     1297       31    1         2 NEXT UBIN WORD UNAL,
     1298       32    1         2 SETYP SBIN HALF UNAL,
PL6.E3A0      #004=ZIU$VALDTE File=ZIU$VALSET.:ZIC0TSI                           FRI 09/05/97 13:34 Page:251
     1299       33    1         2 RECTYP SBIN HALF UNAL,
     1300       34    1         2 DBK UBIN WORD UNAL,
     1301       35    1         2 OWNER UBIN WORD UNAL;
     1302       36    1   DCL PTSVCNT SBIN WORD STATIC SYMDEF ALIGNED;
     1303       37
     1304       38    1   DCL CASE# SBIN WORD STATIC ALIGNED;
     1305       39    1   DCL PPTSTY SBIN WORD STATIC ALIGNED INIT(0);
     1306       40    1   DCL NEXTEG SBIN WORD STATIC ALIGNED;
     1307       41
     1308       42         %INCLUDE CP_6_SUBS;
     1309      582         %INCLUDE ZI_GLOBAL_DBUTIL;
     1310      760         %SYS_FUNC;
     1311      852         %MISC_DCLS;
     1312      905         %INCLUDE ZI_DBU_VALDTE;
     1313     1173         %VALID_LIST;
     1314     1313         %INCLUDE ZI_DBU_XREF;
     1315     1480         %XREF_TBLS;
     1316     1555         %INCLUDE ZI$DIR;
     1317     1712         %DIR;
     1318     1856
     1319     1857         %EQU PTINIT# = 1;
     1320     1858         %EQU NXTPT# = 2;
     1321     1859
     1322     1860        /*
     1323     1861                 DECISION TABLE FLAGS FOR PT AND EG RECORDS.
     1324     1862        */
     1325     1863    1   DCL EGRECNO SBIN WORD STATIC INIT(0); /* Curr eg recs processed */
     1326     1864    1   DCL PTRECNO SBIN WORD STATIC INIT(0); /* Curr pt recs processed */
     1327     1865    1   DCL EGLIDBK BIT(1) STATIC UNAL; /* EG is last in DBK */
     1328     1866    1   DCL PTLIDBK BIT(1) STATIC UNAL; /* PT is last in DBK */
     1329     1867    1   DCL EGLSTR BIT(1) STATIC UNAL; /* Next EG is last record */
     1330     1868    1   DCL PTLSTR BIT(1) STATIC UNAL; /* Next PT is last record */
     1331     1869    1   DCL EGEOD BIT(1) STATIC UNAL; /* Next DBK has diff value */
     1332     1870    1   DCL PTEOD BIT(1) STATIC UNAL; /* Next DBK has diff value */
     1333     1871    1   DCL EGEOF BIT(1) STATIC UNAL; /* End of file on EG */
     1334     1872    1   DCL PTEOF BIT(1) STATIC UNAL; /* End of file on PT */
     1335     1873
PL6.E3A0      #004=ZIU$VALDTE File=ZIU$VALSET.:ZIC0TSI                           FRI 09/05/97 13:34 Page:252
     1336     1874    1   DCL INTERACT BIT(1) STATIC UNAL; /* Rec and Set interact */
     1337     1875    1   DCL OWNER BIT(1) STATIC UNAL;
     1338     1876
     1339     1877    1   DCL HASNXT BIT(1) STATIC UNAL;
     1340     1878    1   DCL MLTNXT BIT(1) STATIC UNAL;
     1341     1879
     1342     1880
     1343     1881    1   DCL SYS_FUNC_WRIT ENTRY ALTRET;
     1344     1882    1   DCL SYS_FUNC_CLOS ENTRY ALTRET;
     1345     1883    1   DCL SYS_FUNC_OPEN ENTRY ALTRET;
     1346     1884    1   DCL SYS_FUNC_READ ENTRY ALTRET;
     1347     1885    1   DCL ZIU$INTERACT ENTRY(4);
     1348     1886
     1349     1887
     1350     1888    1       PTREDF = PT;

   1888  3 000002   200004 470500                    LDP0    @PT_SIZE,,AUTO
         3 000003   000000 720100                    LXL0    0,,PR0
         3 000004   200003 471500                    LDP1    @PT,,AUTO
         3 000005   040000 100540                    MLR     fill='040'O
         3 000006   100000 000010                    ADSC9   0,,PR1                   cn=0,n=*X0
         3 000007   000004 000020 0                  ADSC9   NXTPT                    cn=0,n=16

     1351     1889    1       PTSIZE = PT_SIZE;

   1889  3 000010   000000 235100                    LDA     0,,PR0
         3 000011   000010 755000 0                  STA     PTSIZE

     1352     1890    1   /**/ DCBSF = PTFILE.DCB#;

   1890  3 000012   000001 236000 xsym               LDQ     PTFILE+1
         3 000013   000011 772000                    QRL     9
         3 000014   777777 376007                    ANQ     -1,DL
         3 000015   000000 621006                    EAX1    0,QL
         3 000016   000000 741000 xsym               STX1    DCBSF

     1353     1891
PL6.E3A0      #004=ZIU$VALDTE File=ZIU$VALSET.:ZIC0TSI                           FRI 09/05/97 13:34 Page:253
     1354     1892    1       IF PT_SIZE = 0 THEN

   1892  3 000017   000000 235100                    LDA     0,,PR0
         3 000020   000030 601000 3                  TNZ     s:1899

     1355     1893    2       DO;

     1356     1894    2           PTLSTR = %TRUE#; /* No more records after the current */

   1894  3 000021   400000 236003                    LDQ     -131072,DU
         3 000022   000072 756000 0                  STQ     PTLSTR

     1357     1895    2           PTLIDBK = %TRUE#; /* Current is the last in the DBK */

   1895  3 000023   000070 756000 0                  STQ     PTLIDBK

     1358     1896    2           CALL SYS_FUNC_CLOS;

   1896  3 000024   000000 631400 4                  EPPR1   0
         3 000025   000000 701000 xent               TSX1    SYS_FUNC_CLOS
         3 000026   000000 011000                    NOP     0

     1359     1897    2           END;

   1897  3 000027   000051 710000 3                  TRA     s:1907

     1360     1898
     1361     1899    1       ELSE IF PRINTPT= 1 THEN

   1899  3 000030   000003 235000 0                  LDA     PRINTPT
         3 000031   000001 115007                    CMPA    1,DL
         3 000032   000051 601000 3                  TNZ     s:1907

     1362     1900    2           DO;

     1363     1901    2               BUFSF = VECTOR(PT);

PL6.E3A0      #004=ZIU$VALDTE File=ZIU$VALSET.:ZIC0TSI                           FRI 09/05/97 13:34 Page:254
   1901  3 000033   000000 722100                    LXL2    0,,PR0
         3 000034   000000 635012                    EAA     0,X2
         3 000035   000002 771000                    ARL     2
         3 000036   000140 135007                    SBLA    96,DL
         3 000037   200003 236100                    LDQ     @PT,,AUTO
         3 000040   000000 755000 xsym               STA     BUFSF
         3 000041   000001 756000 xsym               STQ     BUFSF+1

     1364     1902    2               BUFLNSF = 16;

   1902  3 000042   000020 235007                    LDA     16,DL
         3 000043   000000 755000 xsym               STA     BUFLNSF

     1365     1903    2               VFCSF = %NO#;

   1903  3 000044   000000 450000 xsym               STZ     VFCSF

     1366     1904    2               KEYSF = %NO#;

   1904  3 000045   000000 450000 xsym               STZ     KEYSF

     1367     1905    2               CALL SYS_FUNC_WRIT ALTRET(ALT_VALDTE);

   1905  3 000046   000000 631400 4                  EPPR1   0
         3 000047   000000 701000 xent               TSX1    SYS_FUNC_WRIT
         3 000050   001525 702000 3                  TSX2    ALT_VALDTE

     1368     1906    2               END;

     1369     1907    1       IF RETURN_CODE = %NXTPT# THEN

   1907  3 000051   000000 235000 0                  LDA     RETURN_CODE
         3 000052   000002 115007                    CMPA    2,DL
         3 000053   000321 600000 3                  TZE     NXTPT

     1370     1908    1           GOTO NXTPT;
     1371     1909    1       ELSE
PL6.E3A0      #004=ZIU$VALDTE File=ZIU$VALSET.:ZIC0TSI                           FRI 09/05/97 13:34 Page:255
     1372     1910    1           IF RETURN_CODE = %PTINIT# THEN

   1910  3 000054   000001 115007                    CMPA    1,DL
         3 000055   000070 600000 3                  TZE     PTINIT

     1373     1911    1               GOTO PTINIT;
     1374     1912        /*
     1375     1913                 Initialize  EGbuffer and PTbuffer with first record of each
     1376     1914                 and set the proper data flags for decision table.
     1377     1915        */
     1378     1916
     1379     1917    1       HASNXT = %FALSE#; /* CURR PT NEXT COUNTED FOR AGAINST EG */

   1917  3 000056   000101 450000 0                  STZ     HASNXT

     1380     1918    1       MLTNXT= %FALSE#;

   1918  3 000057   000102 450000 0                  STZ     MLTNXT

     1381     1919    1       CALL INIT_EG ALTRET(ALT_VALDTE);

   1919  3 000060   000644 701000 3                  TSX1    INIT_EG
         3 000061   001525 702000 3                  TSX2    ALT_VALDTE

     1382     1920    1       CALL INIT_PT;

   1920  3 000062   001044 701000 3                  TSX1    INIT_PT
         3 000063   000000 011000                    NOP     0

     1383     1921    1       NO_ERRORS = 0;

   1921  3 000064   000000 450000 xsym               STZ     NO_ERRORS

     1384     1922    1       RETURN_CODE = %PTINIT#;

   1922  3 000065   000001 235007                    LDA     1,DL
         3 000066   000000 755000 0                  STA     RETURN_CODE
PL6.E3A0      #004=ZIU$VALDTE File=ZIU$VALSET.:ZIC0TSI                           FRI 09/05/97 13:34 Page:256

     1385     1923    1       RETURN;

   1923  3 000067   000000 702200 xent               TSX2  ! X66_ARET

     1386     1924    1   PTINIT:
     1387     1925    1       IF CURRPT.NEXT ~= NXTPT.NEXT THEN

   1925  3 000070   000000 236000 xsym  PTINIT       LDQ     CURRPT
         3 000071   000004 116000 0                  CMPQ    NXTPT
         3 000072   000075 600000 3                  TZE     s:1928

     1388     1926    1           PTLIDBK = %TRUE#;

   1926  3 000073   400000 236003                    LDQ     -131072,DU
         3 000074   000070 756000 0                  STQ     PTLIDBK

     1389     1927
     1390     1928    1       CALL CHECK_CASE(CASE#); /* Call decision table routine

   1928  3 000075   000001 236000 4                  LDQ     1
         3 000076   200007 756100                    STQ     @PT_SIZE+3,,AUTO
         3 000077   000347 701000 3                  TSX1    CHECK_CASE
         3 000100   000000 011000                    NOP     0

     1391     1929         to examine the records. */
     1392     1930    2       DO WHILE(CASE# ~= %PT_AND_EG_EOF);

   1930  3 000101   000062 235000 0                  LDA     CASE#
         3 000102   000001 115007                    CMPA    1,DL
         3 000103   000335 600000 3                  TZE     s:2030

     1393     1931
     1394     1932    2           IF BREAK_FLAG > 0 THEN

   1932  3 000104   000000 235000 xsym               LDA     BREAK_FLAG
         3 000105   000114 604400 3                  TMOZ    s:1936
PL6.E3A0      #004=ZIU$VALDTE File=ZIU$VALSET.:ZIC0TSI                           FRI 09/05/97 13:34 Page:257

     1395     1933    2               UNWIND TO BREAK_LOCAT;

   1933  3 000106   000100 100600                    MLR   ! fill='000'O
         3 000107   000000 000010 xsym               ADSC9   BREAK_LOCAT              cn=0,n=8
         3 000110   200014 000010                    ADSC9   @ERRCODE+1,,AUTO         cn=0,n=8
         3 000111   200014 237300                    LDAQ  ! @ERRCODE+1,,AUTO
         3 000112   000000 700200 xent               TSX0  ! X66_AUNWIND
         3 000113   000000 000200                    ZERO    0,128

     1396     1934
     1397     1935
     1398     1936    3           DO CASE(CASE#);

   1936  3 000114   000062 236000 0                  LDQ     CASE#
         3 000115   000014 116007                    CMPQ    12,DL
         3 000116   000120 602006 3                  TNC     s:1936+4,QL
         3 000117   000265 710000 3                  TRA     s:1996
         3 000120   000265 710000 3                  TRA     s:1996
         3 000121   000265 710000 3                  TRA     s:1996
         3 000122   000134 710000 3                  TRA     s:1938
         3 000123   000134 710000 3                  TRA     s:1938
         3 000124   000146 710000 3                  TRA     s:1945
         3 000125   000146 710000 3                  TRA     s:1945
         3 000126   000231 710000 3                  TRA     s:1979
         3 000127   000176 710000 3                  TRA     s:1960
         3 000130   000231 710000 3                  TRA     s:1979
         3 000131   000223 710000 3                  TRA     s:1973
         3 000132   000176 710000 3                  TRA     s:1960
         3 000133   000242 710000 3                  TRA     s:1985

     1399     1937    3           CASE(%EOF_EG,%EGDBK_GT_PTNXT);

     1400     1938    3               CALL WRITE_VALERR(%GRBGNXT#);

   1938  3 000134   000003 236000 4                  LDQ     3
         3 000135   200013 756100                    STQ     @CASE#+4,,AUTO
PL6.E3A0      #004=ZIU$VALDTE File=ZIU$VALSET.:ZIC0TSI                           FRI 09/05/97 13:34 Page:258
         3 000136   001117 701000 3                  TSX1    WRITE_VALERR
         3 000137   000000 011000                    NOP     0

     1401     1939    3               PPTSTY = 0;

   1939  3 000140   000063 450000 0                  STZ     PPTSTY

     1402     1940    3               RETURN_CODE = %NXTPT#;

   1940  3 000141   000002 235007                    LDA     2,DL
         3 000142   000000 755000 0                  STA     RETURN_CODE

     1403     1941    3               CALL RDPTREC ALTRET(REREAD);

   1941  3 000143   001074 701000 3                  TSX1    RDPTREC
         3 000144   000314 702000 3                  TSX2    REREAD

     1404     1942    3               RETURN;

   1942  3 000145   000000 702200 xent               TSX2  ! X66_ARET

     1405     1943
     1406     1944    3           CASE(%EOF_PT,%EGDBK_LT_PTNXT);

     1407     1945    3               IF MLTNXT THEN /* Multiple next pointers = true*/

   1945  3 000146   000102 234000 0                  SZN     MLTNXT
         3 000147   000155 605000 3                  TPL     s:1950

     1408     1946    4               DO;

     1409     1947    4                   CALL WRITE_VALERR(%MULTNXT#);

   1947  3 000150   000005 236000 4                  LDQ     5
         3 000151   200013 756100                    STQ     @CASE#+4,,AUTO
         3 000152   001117 701000 3                  TSX1    WRITE_VALERR
         3 000153   000000 011000                    NOP     0
PL6.E3A0      #004=ZIU$VALDTE File=ZIU$VALSET.:ZIC0TSI                           FRI 09/05/97 13:34 Page:259

     1410     1948    4                   MLTNXT = %FALSE#; /* Clear multnxt flag */

   1948  3 000154   000102 450000 0                  STZ     MLTNXT

     1411     1949    4                   END;

     1412     1950    3               PPTSTY = 0;

   1950  3 000155   000063 450000 0                  STZ     PPTSTY

     1413     1951    3               IF ~HASNXT THEN

   1951  3 000156   000101 236000 0                  LDQ     HASNXT
         3 000157   400000 376003                    ANQ     -131072,DU
         3 000160   400000 676003                    ERQ     -131072,DU
         3 000161   000166 600000 3                  TZE     s:1953

     1414     1952    3                   CALL WRITE_VALERR(%MISGNXT#) ALTRET(ALT_VALDTE);

   1952  3 000162   000007 236000 4                  LDQ     7
         3 000163   200013 756100                    STQ     @CASE#+4,,AUTO
         3 000164   001117 701000 3                  TSX1    WRITE_VALERR
         3 000165   001525 702000 3                  TSX2    ALT_VALDTE

     1415     1953    3               CALL RDEGREC ALTRET(ALT_VALDTE);

   1953  3 000166   000735 701000 3                  TSX1    RDEGREC
         3 000167   001525 702000 3                  TSX2    ALT_VALDTE

     1416     1954    3               IF EGEOD = %TRUE# THEN /* Lst dbk in set on read */

   1954  3 000170   000073 234000 0                  SZN     EGEOD
         3 000171   000174 605000 3                  TPL     s:1956

     1417     1955    3                   CALL RDEGREC ALTRET(ALT_VALDTE);

PL6.E3A0      #004=ZIU$VALDTE File=ZIU$VALSET.:ZIC0TSI                           FRI 09/05/97 13:34 Page:260
   1955  3 000172   000735 701000 3                  TSX1    RDEGREC
         3 000173   001525 702000 3                  TSX2    ALT_VALDTE

     1418     1956    3               HASNXT = %NO#;

   1956  3 000174   000101 450000 0                  STZ     HASNXT
         3 000175   000314 710000 3                  TRA     REREAD

     1419     1957
     1420     1958
     1421     1959    3           CASE(%CHNG_PT_DBK,%EGSET_LT_PTSET);

     1422     1960    3               IF MLTNXT THEN /* Multiple next pointers = true*/

   1960  3 000176   000102 234000 0                  SZN     MLTNXT
         3 000177   000205 605000 3                  TPL     s:1965

     1423     1961    4               DO;

     1424     1962    4                   CALL WRITE_VALERR(%MULTNXT#);

   1962  3 000200   000005 236000 4                  LDQ     5
         3 000201   200013 756100                    STQ     @CASE#+4,,AUTO
         3 000202   001117 701000 3                  TSX1    WRITE_VALERR
         3 000203   000000 011000                    NOP     0

     1425     1963    4                   MLTNXT = %FALSE#; /* Clear multnxt flag */

   1963  3 000204   000102 450000 0                  STZ     MLTNXT

     1426     1964    4                   END;

     1427     1965    3               IF ~HASNXT THEN

   1965  3 000205   000101 236000 0                  LDQ     HASNXT
         3 000206   400000 376003                    ANQ     -131072,DU
         3 000207   400000 676003                    ERQ     -131072,DU
PL6.E3A0      #004=ZIU$VALDTE File=ZIU$VALSET.:ZIC0TSI                           FRI 09/05/97 13:34 Page:261
         3 000210   000215 600000 3                  TZE     s:1969

     1428     1966    4               DO;

     1429     1967    4                   CALL WRITE_VALERR(%MISGNXT#) ALTRET(ALT_VALDTE);

   1967  3 000211   000007 236000 4                  LDQ     7
         3 000212   200013 756100                    STQ     @CASE#+4,,AUTO
         3 000213   001117 701000 3                  TSX1    WRITE_VALERR
         3 000214   001525 702000 3                  TSX2    ALT_VALDTE

     1430     1968    4                   END;

     1431     1969    3               CALL RDEGREC ALTRET(ALT_VALDTE);

   1969  3 000215   000735 701000 3                  TSX1    RDEGREC
         3 000216   001525 702000 3                  TSX2    ALT_VALDTE

     1432     1970    3               HASNXT = EGEOD;

   1970  3 000217   000073 236000 0                  LDQ     EGEOD
         3 000220   400000 376003                    ANQ     -131072,DU
         3 000221   000101 756000 0                  STQ     HASNXT
         3 000222   000314 710000 3                  TRA     REREAD

     1433     1971
     1434     1972    3           CASE(%CHNG_EG_PT_DBK);

     1435     1973    3               PPTSTY = 0;

   1973  3 000223   000063 450000 0                  STZ     PPTSTY

     1436     1974    3               RETURN_CODE = %NXTPT#;

   1974  3 000224   000002 235007                    LDA     2,DL
         3 000225   000000 755000 0                  STA     RETURN_CODE

PL6.E3A0      #004=ZIU$VALDTE File=ZIU$VALSET.:ZIC0TSI                           FRI 09/05/97 13:34 Page:262
     1437     1975    3               CALL RDPTREC ALTRET(NOREAD);

   1975  3 000226   001074 701000 3                  TSX1    RDPTREC
         3 000227   000326 702000 3                  TSX2    NOREAD

     1438     1976    3               RETURN;

   1976  3 000230   000000 702200 xent               TSX2  ! X66_ARET

     1439     1977
     1440     1978    3           CASE(%CHNG_EG_DBK,%EGSET_GT_PTSET);

     1441     1979    3               CALL WRITE_VALERR(%DANGNXT#) ALTRET(ALT_VALDTE);

   1979  3 000231   000011 236000 4                  LDQ     9
         3 000232   200013 756100                    STQ     @CASE#+4,,AUTO
         3 000233   001117 701000 3                  TSX1    WRITE_VALERR
         3 000234   001525 702000 3                  TSX2    ALT_VALDTE

     1442     1980    3               RETURN_CODE = %NXTPT#;

   1980  3 000235   000002 235007                    LDA     2,DL
         3 000236   000000 755000 0                  STA     RETURN_CODE

     1443     1981    3               CALL RDPTREC ALTRET(NOREAD);

   1981  3 000237   001074 701000 3                  TSX1    RDPTREC
         3 000240   000326 702000 3                  TSX2    NOREAD

     1444     1982    3               RETURN;

   1982  3 000241   000000 702200 xent               TSX2  ! X66_ARET

     1445     1983
     1446     1984    3           CASE(%MULTNXT);

     1447     1985    3               MLTNXT = %TRUE#;
PL6.E3A0      #004=ZIU$VALDTE File=ZIU$VALSET.:ZIC0TSI                           FRI 09/05/97 13:34 Page:263

   1985  3 000242   400000 236003                    LDQ     -131072,DU
         3 000243   000102 756000 0                  STQ     MLTNXT

     1448     1986    3               HASNXT = %TRUE#;

   1986  3 000244   000101 756000 0                  STQ     HASNXT

     1449     1987    3               PTSVCNT = PTSVCNT+1;

   1987  3 000245   000061 054000 0                  AOS     PTSVCNT

     1450     1988    3               PTSAVE(PTSVCNT) = CURRPT; /* Save the current pt */

   1988  3 000246   000061 235000 0                  LDA     PTSVCNT
         3 000247   000004 735000                    ALS     4
         3 000250   000005 100400                    MLR     fill='000'O
         3 000251   000000 000020 xsym               ADSC9   CURRPT                   cn=0,n=16
         3 000252   000011 000020 0                  ADSC9   PTSAVE,A                 cn=0,n=16

     1451     1989    3               PPTSTY = CURRPT.SETYP;

   1989  3 000253   000001 235000 xsym               LDA     CURRPT+1
         3 000254   000022 731000                    ARS     18
         3 000255   000063 755000 0                  STA     PPTSTY

     1452     1990    3               CALL CHECK_PTRS ALTRET(ALT_VALDTE);

   1990  3 000256   000465 701000 3                  TSX1    CHECK_PTRS
         3 000257   001525 702000 3                  TSX2    ALT_VALDTE

     1453     1991    3               RETURN_CODE = %NXTPT#;

   1991  3 000260   000002 235007                    LDA     2,DL
         3 000261   000000 755000 0                  STA     RETURN_CODE

     1454     1992    3               CALL RDPTREC ALTRET(NOREAD);
PL6.E3A0      #004=ZIU$VALDTE File=ZIU$VALSET.:ZIC0TSI                           FRI 09/05/97 13:34 Page:264

   1992  3 000262   001074 701000 3                  TSX1    RDPTREC
         3 000263   000326 702000 3                  TSX2    NOREAD

     1455     1993    3               RETURN;

   1993  3 000264   000000 702200 xent               TSX2  ! X66_ARET

     1456     1994
     1457     1995    3           CASE(ELSE);

     1458     1996    3               IF MLTNXT = %TRUE# THEN

   1996  3 000265   000102 234000 0                  SZN     MLTNXT
         3 000266   000274 605000 3                  TPL     s:2001

     1459     1997    4               DO;

     1460     1998    4                   CALL WRITE_VALERR(%MULTNXT#);

   1998  3 000267   000005 236000 4                  LDQ     5
         3 000270   200013 756100                    STQ     @CASE#+4,,AUTO
         3 000271   001117 701000 3                  TSX1    WRITE_VALERR
         3 000272   000000 011000                    NOP     0

     1461     1999    4                   MLTNXT = %FALSE#;

   1999  3 000273   000102 450000 0                  STZ     MLTNXT

     1462     2000    4                   END;

     1463     2001    3               PTSVCNT = 0;

   2001  3 000274   000061 450000 0                  STZ     PTSVCNT

     1464     2002    3               HASNXT = %TRUE#;

PL6.E3A0      #004=ZIU$VALDTE File=ZIU$VALSET.:ZIC0TSI                           FRI 09/05/97 13:34 Page:265
   2002  3 000275   400000 236003                    LDQ     -131072,DU
         3 000276   000101 756000 0                  STQ     HASNXT

     1465     2003    3               PTSAVE(0) = CURRPT;

   2003  3 000277   000000 100400                    MLR     fill='000'O
         3 000300   000000 000020 xsym               ADSC9   CURRPT                   cn=0,n=16
         3 000301   000011 000020 0                  ADSC9   PTSAVE                   cn=0,n=16

     1466     2004    3               PPTSTY = CURRPT.SETYP;

   2004  3 000302   000001 235000 xsym               LDA     CURRPT+1
         3 000303   000022 731000                    ARS     18
         3 000304   000063 755000 0                  STA     PPTSTY

     1467     2005    3               CALL CHECK_PTRS ALTRET(ALT_VALDTE);

   2005  3 000305   000465 701000 3                  TSX1    CHECK_PTRS
         3 000306   001525 702000 3                  TSX2    ALT_VALDTE

     1468     2006    3               RETURN_CODE = %NXTPT#;

   2006  3 000307   000002 235007                    LDA     2,DL
         3 000310   000000 755000 0                  STA     RETURN_CODE

     1469     2007    3               CALL RDPTREC ALTRET(NOREAD);

   2007  3 000311   001074 701000 3                  TSX1    RDPTREC
         3 000312   000326 702000 3                  TSX2    NOREAD

     1470     2008    3               RETURN;

   2008  3 000313   000000 702200 xent               TSX2  ! X66_ARET

     1471     2009
     1472     2010
     1473     2011    3               END; /* END CASE */
PL6.E3A0      #004=ZIU$VALDTE File=ZIU$VALSET.:ZIC0TSI                           FRI 09/05/97 13:34 Page:266

     1474     2012
     1475     2013    2   REREAD:
     1476     2014    2           IF PTEOD = %YES# THEN

   2014  3 000314   000074 234000 0     REREAD       SZN     PTEOD
         3 000315   000321 605000 3                  TPL     NXTPT

     1477     2015    3           DO;

     1478     2016    3               CALL RDPTREC ALTRET(NOREAD);

   2016  3 000316   001074 701000 3                  TSX1    RDPTREC
         3 000317   000326 702000 3                  TSX2    NOREAD

     1479     2017    3               RETURN;

   2017  3 000320   000000 702200 xent               TSX2  ! X66_ARET

     1480     2018    3               END;
     1481     2019
     1482     2020    2   NXTPT:
     1483     2021    2           IF CURRPT.NEXT ~= NXTPT.NEXT THEN

   2021  3 000321   000000 236000 xsym  NXTPT        LDQ     CURRPT
         3 000322   000004 116000 0                  CMPQ    NXTPT
         3 000323   000326 600000 3                  TZE     NOREAD

     1484     2022    2               PTLIDBK = %TRUE#;

   2022  3 000324   400000 236003                    LDQ     -131072,DU
         3 000325   000070 756000 0                  STQ     PTLIDBK

     1485     2023    2   NOREAD:
     1486     2024         /* No reading of a PT rec was required */
     1487     2025
     1488     2026    2           CALL CHECK_CASE(CASE#);
PL6.E3A0      #004=ZIU$VALDTE File=ZIU$VALSET.:ZIC0TSI                           FRI 09/05/97 13:34 Page:267

   2026  3 000326   000001 236000 4     NOREAD       LDQ     1
         3 000327   200007 756100                    STQ     @PT_SIZE+3,,AUTO
         3 000330   000347 701000 3                  TSX1    CHECK_CASE
         3 000331   000000 011000                    NOP     0

     1489     2027
     1490     2028    2           END; /* END DO WHILE */

   2028  3 000332   000062 235000 0                  LDA     CASE#
         3 000333   000001 115007                    CMPA    1,DL
         3 000334   000104 601000 3                  TNZ     s:1932

     1491     2029
     1492     2030    1       DCBSF = EGFILE.DCB#; /* CLOSE *EGFILE */

   2030  3 000335   000001 236000 xsym               LDQ     EGFILE+1
         3 000336   000011 772000                    QRL     9
         3 000337   777777 376007                    ANQ     -1,DL
         3 000340   000000 620006                    EAX0    0,QL
         3 000341   000000 740000 xsym               STX0    DCBSF

     1493     2031    1       CALL SYS_FUNC_CLOS;

   2031  3 000342   000000 631400 4                  EPPR1   0
         3 000343   000000 701000 xent               TSX1    SYS_FUNC_CLOS
         3 000344   000000 011000                    NOP     0

     1494     2032    1       RETURN_CODE = 0;

   2032  3 000345   000000 450000 0                  STZ     RETURN_CODE

     1495     2033    1       RETURN;

   2033  3 000346   000000 702200 xent               TSX2  ! X66_ARET

     1496     2034         %EJECT;
PL6.E3A0      #004=ZIU$VALDTE File=ZIU$VALSET.:ZIC0TSI                           FRI 09/05/97 13:34 Page:268
     1497     2035    1   CHECK_CASE: PROC(CASE#);

   2035  3 000347   200006 741300       CHECK_CASE   STX1  ! @PT_SIZE+2,,AUTO

     1498     2036    2   DCL CASE# SBIN;
     1499     2037
     1500     2038    2       IF EGEOF AND PTEOF THEN

   2038  3 000350   000075 234000 0                  SZN     EGEOF
         3 000351   000360 605000 3                  TPL     s:2041
         3 000352   000076 234000 0                  SZN     PTEOF
         3 000353   000360 605000 3                  TPL     s:2041

     1501     2039    2           CASE# = %PT_AND_EG_EOF;

   2039  3 000354   000001 235007                    LDA     1,DL
         3 000355   200007 470500                    LDP0    @CASE#,,AUTO
         3 000356   000000 755100                    STA     0,,PR0
         3 000357   000463 710000 3                  TRA     s:2074

     1502     2040    2       ELSE
     1503     2041    2           IF EGEOF THEN

   2041  3 000360   000075 234000 0                  SZN     EGEOF
         3 000361   000366 605000 3                  TPL     s:2044

     1504     2042    2               CASE# = %EOF_EG;

   2042  3 000362   000002 235007                    LDA     2,DL
         3 000363   200007 470500                    LDP0    @CASE#,,AUTO
         3 000364   000000 755100                    STA     0,,PR0
         3 000365   000463 710000 3                  TRA     s:2074

     1505     2043    2           ELSE
     1506     2044    2               IF PTEOF THEN

   2044  3 000366   000076 234000 0                  SZN     PTEOF
PL6.E3A0      #004=ZIU$VALDTE File=ZIU$VALSET.:ZIC0TSI                           FRI 09/05/97 13:34 Page:269
         3 000367   000374 605000 3                  TPL     s:2047

     1507     2045    2                   CASE# = %EOF_PT;

   2045  3 000370   000004 235007                    LDA     4,DL
         3 000371   200007 470500                    LDP0    @CASE#,,AUTO
         3 000372   000000 755100                    STA     0,,PR0
         3 000373   000463 710000 3                  TRA     s:2074

     1508     2046    2               ELSE
     1509     2047    2                   IF CURREG.DBK > CURRPT.NEXT THEN

   2047  3 000374   000000 236000 xsym               LDQ     CURRPT
         3 000375   000000 116000 xsym               CMPQ    CURREG
         3 000376   000403 603000 3                  TRC     s:2050

     1510     2048    2                       CASE# = %EGDBK_GT_PTNXT;

   2048  3 000377   000003 235007                    LDA     3,DL
         3 000400   200007 470500                    LDP0    @CASE#,,AUTO
         3 000401   000000 755100                    STA     0,,PR0
         3 000402   000463 710000 3                  TRA     s:2074

     1511     2049    2                   ELSE
     1512     2050    2                       IF CURREG.DBK < CURRPT.NEXT THEN

   2050  3 000403   000411 602000 3                  TNC     s:2053
         3 000404   000411 600000 3                  TZE     s:2053

     1513     2051    2                           CASE# = %EGDBK_LT_PTNXT;

   2051  3 000405   000005 235007                    LDA     5,DL
         3 000406   200007 470500                    LDP0    @CASE#,,AUTO
         3 000407   000000 755100                    STA     0,,PR0
         3 000410   000463 710000 3                  TRA     s:2074

     1514     2052    2                       ELSE
PL6.E3A0      #004=ZIU$VALDTE File=ZIU$VALSET.:ZIC0TSI                           FRI 09/05/97 13:34 Page:270
     1515     2053    2                           IF EGEOD = %TRUE# AND /* Last set in curr eg dbk */

   2053  3 000411   000073 234000 0                  SZN     EGEOD
         3 000412   000421 605000 3                  TPL     s:2057
         3 000413   000074 234000 0                  SZN     PTEOD
         3 000414   000421 605000 3                  TPL     s:2057

     1516     2054    2                              PTEOD = %TRUE# THEN /* Last set in curr pt dbk */
     1517     2055    2                               CASE# = %CHNG_EG_PT_DBK;

   2055  3 000415   000011 235007                    LDA     9,DL
         3 000416   200007 470500                    LDP0    @CASE#,,AUTO
         3 000417   000000 755100                    STA     0,,PR0
         3 000420   000463 710000 3                  TRA     s:2074

     1518     2056    2                           ELSE
     1519     2057    2                               IF EGEOD = %TRUE# THEN

   2057  3 000421   000073 234000 0                  SZN     EGEOD
         3 000422   000427 605000 3                  TPL     s:2060

     1520     2058    2                                   CASE# = %CHNG_EG_DBK;

   2058  3 000423   000006 235007                    LDA     6,DL
         3 000424   200007 470500                    LDP0    @CASE#,,AUTO
         3 000425   000000 755100                    STA     0,,PR0
         3 000426   000463 710000 3                  TRA     s:2074

     1521     2059    2                               ELSE
     1522     2060    2                                   IF PTEOD = %TRUE# THEN

   2060  3 000427   000074 234000 0                  SZN     PTEOD
         3 000430   000435 605000 3                  TPL     s:2063

     1523     2061    2                                       CASE# = %CHNG_PT_DBK;

   2061  3 000431   000012 235007                    LDA     10,DL
PL6.E3A0      #004=ZIU$VALDTE File=ZIU$VALSET.:ZIC0TSI                           FRI 09/05/97 13:34 Page:271
         3 000432   200007 470500                    LDP0    @CASE#,,AUTO
         3 000433   000000 755100                    STA     0,,PR0
         3 000434   000463 710000 3                  TRA     s:2074

     1524     2062    2                                   ELSE
     1525     2063    2                                       IF CURREG.SETYP < CURRPT.SETYP THEN

   2063  3 000435   000001 220000 xsym               LDX0    CURREG+1
         3 000436   000001 100000 xsym               CMPX0   CURRPT+1
         3 000437   000444 605000 3                  TPL     s:2066

     1526     2064    2                                           CASE# = %EGSET_LT_PTSET;

   2064  3 000440   000007 235007                    LDA     7,DL
         3 000441   200007 470500                    LDP0    @CASE#,,AUTO
         3 000442   000000 755100                    STA     0,,PR0
         3 000443   000463 710000 3                  TRA     s:2074

     1527     2065    2                                       ELSE
     1528     2066    2                                           IF CURREG.SETYP > CURRPT.SETYP THEN

   2066  3 000444   000451 604400 3                  TMOZ    s:2069

     1529     2067    2                                               CASE# = %EGSET_GT_PTSET;

   2067  3 000445   000010 235007                    LDA     8,DL
         3 000446   200007 470500                    LDP0    @CASE#,,AUTO
         3 000447   000000 755100                    STA     0,,PR0
         3 000450   000463 710000 3                  TRA     s:2074

     1530     2068    2                                           ELSE
     1531     2069    2                                               IF CURRPT.SETYP = PPTSTY THEN

   2069  3 000451   000001 236000 xsym               LDQ     CURRPT+1
         3 000452   000022 732000                    QRS     18
         3 000453   000063 116000 0                  CMPQ    PPTSTY
         3 000454   000461 601000 3                  TNZ     s:2072
PL6.E3A0      #004=ZIU$VALDTE File=ZIU$VALSET.:ZIC0TSI                           FRI 09/05/97 13:34 Page:272

     1532     2070    2                                                   CASE# = %MULTNXT;

   2070  3 000455   000013 235007                    LDA     11,DL
         3 000456   200007 470500                    LDP0    @CASE#,,AUTO
         3 000457   000000 755100                    STA     0,,PR0
         3 000460   000463 710000 3                  TRA     s:2074

     1533     2071    2                                               ELSE
     1534     2072    2                                                   CASE# = 0;

   2072  3 000461   200007 470500                    LDP0    @CASE#,,AUTO
         3 000462   000000 450100                    STZ     0,,PR0

     1535     2073
     1536     2074    2       RETURN;

   2074  3 000463   200006 221300                    LDX1  ! @PT_SIZE+2,,AUTO
         3 000464   000001 702211                    TSX2  ! 1,X1

     1537     2075
     1538     2076    2   END CHECK_CASE;
     1539     2077        %EJECT;
PL6.E3A0      #004=ZIU$VALDTE File=ZIU$VALSET.:ZIC0TSI                           FRI 09/05/97 13:34 Page:273
     1540     2078        /*
     1541     2079              Check pointers routine.
     1542     2080        */
     1543     2081    1   CHECK_PTRS: PROC ALTRET;

   2081  3 000465   200006 741300       CHECK_PTRS   STX1  ! @PT_SIZE+2,,AUTO

     1544     2082    2       HASNXT = %YES#;

   2082  3 000466   400000 236003                    LDQ     -131072,DU
         3 000467   000101 756000 0                  STQ     HASNXT

     1545     2083    2       CALL ZIU$INTERACT(CURREG.RECTYP,CURREG.SETYP,INTERACT,OWNER);

   2083  3 000470   000013 630400 4                  EPPR0   11
         3 000471   000012 631400 4                  EPPR1   10
         3 000472   000000 701000 xent               TSX1    ZIU$INTERACT
         3 000473   000000 011000                    NOP     0

     1546     2084    2       IF CASE# ~= %MULTNXT THEN

   2084  3 000474   000062 235000 0                  LDA     CASE#
         3 000475   000013 115007                    CMPA    11,DL
         3 000476   000503 600000 3                  TZE     s:2089

     1547     2085    3       DO;

     1548     2086    3           CALL CHKPRI ALTRET(ALT_PTRS);

   2086  3 000477   000535 701000 3                  TSX1    CHKPRI
         3 000500   000507 702000 3                  TSX2    ALT_PTRS

     1549     2087    3           CALL CHKOWN ALTRET(ALT_PTRS);

   2087  3 000501   000562 701000 3                  TSX1    CHKOWN
         3 000502   000507 702000 3                  TSX2    ALT_PTRS

PL6.E3A0      #004=ZIU$VALDTE File=ZIU$VALSET.:ZIC0TSI                           FRI 09/05/97 13:34 Page:274
     1550     2088    3           END;

     1551     2089    2       CALL CHKNXT ALTRET(ALT_PTRS);

   2089  3 000503   000511 701000 3                  TSX1    CHKNXT
         3 000504   000507 702000 3                  TSX2    ALT_PTRS

     1552     2090    2       RETURN;

   2090  3 000505   200006 221300                    LDX1  ! @PT_SIZE+2,,AUTO
         3 000506   000001 702211                    TSX2  ! 1,X1

     1553     2091
     1554     2092    2   ALT_PTRS:
     1555     2093    2       ALTRETURN;

   2093  3 000507   200006 221300       ALT_PTRS     LDX1  ! @PT_SIZE+2,,AUTO
         3 000510   000000 702211                    TSX2  ! 0,X1

     1556     2094    2   END CHECK_PTRS;
     1557     2095
     1558     2096
     1559     2097    1   CHKNXT: PROC ALTRET;

   2097  3 000511   200010 741300       CHKNXT       STX1  ! @CASE#+1,,AUTO

     1560     2098        /*
     1561     2099           Does record point to itself? if so it better be the set owner.
     1562     2100        */
     1563     2101    2       IF CURREG.DBK ~= CURRPT.DBK THEN

   2101  3 000512   000000 236000 xsym               LDQ     CURREG
         3 000513   000002 116000 xsym               CMPQ    CURRPT+2
         3 000514   000516 600000 3                  TZE     s:2103

     1564     2102    2           RETURN;

PL6.E3A0      #004=ZIU$VALDTE File=ZIU$VALSET.:ZIC0TSI                           FRI 09/05/97 13:34 Page:275
   2102  3 000515   000001 702211                    TSX2  ! 1,X1

     1565     2103    2       IF OWNER = %YES# THEN

   2103  3 000516   000100 234000 0                  SZN     OWNER
         3 000517   000521 605000 3                  TPL     s:2105

     1566     2104    2           RETURN;

   2104  3 000520   000001 702211                    TSX2  ! 1,X1

     1567     2105    2       CALL WRITE_VALERR(%MMBRNXT#) ALTRET(ALTNXT);

   2105  3 000521   000020 236000 4                  LDQ     16
         3 000522   200013 756100                    STQ     @CASE#+4,,AUTO
         3 000523   001117 701000 3                  TSX1    WRITE_VALERR
         3 000524   000527 702000 3                  TSX2    ALTNXT

     1568     2106    2       RETURN;

   2106  3 000525   200010 221300                    LDX1  ! @CASE#+1,,AUTO
         3 000526   000001 702211                    TSX2  ! 1,X1

     1569     2107    2   ALTNXT:
     1570     2108    2       LASTEG = NO_EGRECS;

   2108  3 000527   000000 235000 xsym  ALTNXT       LDA     NO_EGRECS
         3 000530   000001 755000 0                  STA     LASTEG

     1571     2109    2       LASTPT = PTRECNO;

   2109  3 000531   000066 236000 0                  LDQ     PTRECNO
         3 000532   000002 756000 0                  STQ     LASTPT

     1572     2110    2       ALTRETURN;

   2110  3 000533   200010 221300                    LDX1  ! @CASE#+1,,AUTO
PL6.E3A0      #004=ZIU$VALDTE File=ZIU$VALSET.:ZIC0TSI                           FRI 09/05/97 13:34 Page:276
         3 000534   000000 702211                    TSX2  ! 0,X1

     1573     2111    2   END CHKNXT;
     1574     2112
     1575     2113
     1576     2114    1   CHKPRI: PROC ALTRET;

   2114  3 000535   200010 741300       CHKPRI       STX1  ! @CASE#+1,,AUTO

     1577     2115
     1578     2116    2       IF CURREG.PRIOR = CURREG.DBK THEN

   2116  3 000536   000002 236000 xsym               LDQ     CURREG+2
         3 000537   000000 116000 xsym               CMPQ    CURREG
         3 000540   000547 601000 3                  TNZ     s:2122

     1579     2117    3       DO;

     1580     2118    3           IF OWNER = %NO# THEN

   2118  3 000541   000100 234000 0                  SZN     OWNER
         3 000542   000547 604000 3                  TMI     s:2122

     1581     2119    3               CALL WRITE_VALERR(%MMBRPRI#) ALTRET(ALTPRI);

   2119  3 000543   000022 236000 4                  LDQ     18
         3 000544   200013 756100                    STQ     @CASE#+4,,AUTO
         3 000545   001117 701000 3                  TSX1    WRITE_VALERR
         3 000546   000560 702000 3                  TSX2    ALTPRI

     1582     2120    3           END;

     1583     2121
     1584     2122    2       IF CURREG.PRIOR ~= CURRPT.DBK THEN

   2122  3 000547   000002 236000 xsym               LDQ     CURREG+2
         3 000550   000002 116000 xsym               CMPQ    CURRPT+2
PL6.E3A0      #004=ZIU$VALDTE File=ZIU$VALSET.:ZIC0TSI                           FRI 09/05/97 13:34 Page:277
         3 000551   000556 600000 3                  TZE     s:2124

     1585     2123    2           CALL WRITE_VALERR(%DBKPRIOR#);

   2123  3 000552   000024 236000 4                  LDQ     20
         3 000553   200013 756100                    STQ     @CASE#+4,,AUTO
         3 000554   001117 701000 3                  TSX1    WRITE_VALERR
         3 000555   000000 011000                    NOP     0

     1586     2124    2       RETURN;

   2124  3 000556   200010 221300                    LDX1  ! @CASE#+1,,AUTO
         3 000557   000001 702211                    TSX2  ! 1,X1

     1587     2125    2   ALTPRI:
     1588     2126    2       ALTRETURN;

   2126  3 000560   200010 221300       ALTPRI       LDX1  ! @CASE#+1,,AUTO
         3 000561   000000 702211                    TSX2  ! 0,X1

     1589     2127    2   END CHKPRI;
     1590     2128
     1591     2129
     1592     2130    1   CHKOWN: PROC ALTRET;

   2130  3 000562   200010 741300       CHKOWN       STX1  ! @CASE#+1,,AUTO

     1593     2131
     1594     2132    2       IF CURREG.SETYP < 5000 OR CURRPT.SETYP < 5000 THEN

   2132  3 000563   000001 220000 xsym               LDX0    CURREG+1
         3 000564   011610 100003                    CMPX0   5000,DU
         3 000565   000571 604000 3                  TMI     s:2133
         3 000566   000001 222000 xsym               LDX2    CURRPT+1
         3 000567   011610 102003                    CMPX2   5000,DU
         3 000570   000572 605000 3                  TPL     s:2135

PL6.E3A0      #004=ZIU$VALDTE File=ZIU$VALSET.:ZIC0TSI                           FRI 09/05/97 13:34 Page:278
     1595     2133    2           RETURN; /*  Special PA -> PA pointers (no owner ptrs )*/

   2133  3 000571   000001 702211                    TSX2  ! 1,X1

     1596     2134
     1597     2135    2       IF MSTR_REF.NAME(CURREG.SETYP-5000+NO_RECS) = '*CALC' THEN

   2135  3 000572   000001 236000 xsym               LDQ     CURREG+1
         3 000573   000022 732000                    QRS     18
         3 000574   000000 036000 xsym               ADLQ    NO_RECS
         3 000575   000050 402007                    MPY     40,DL
         3 000576   000000 470400 xsym               LDP0    MSTR$
         3 000577   600000 136007                    SBLQ    -65536,DL
         3 000600   040000 106506                    CMPC    fill='040'O
         3 000601   076261 400036                    ADSC9   -847,Q,PR0               cn=2,n=30
         3 000602   000000 000005 2                  ADSC9   0                        cn=0,n=5
         3 000603   000605 601000 3                  TNZ     s:2138

     1598     2136    2           RETURN; /* Calc recs have no owners */

   2136  3 000604   000001 702211                    TSX2  ! 1,X1

     1599     2137
     1600     2138    2       IF CURREG.OWNER ~= CURRPT.OWNER AND

   2138  3 000605   000003 236000 xsym               LDQ     CURREG+3
         3 000606   000003 116000 xsym               CMPQ    CURRPT+3
         3 000607   000630 600000 3                  TZE     s:2142
         3 000610   000000 116003                    CMPQ    0,DU
         3 000611   000630 600000 3                  TZE     s:2142
         3 000612   000003 235000 xsym               LDA     CURRPT+3
         3 000613   000630 600000 3                  TZE     s:2142

     1601     2139    2          CURREG.OWNER ~= 0 AND CURRPT.OWNER ~= 0 THEN
     1602     2140    2           IF MSTR_REF.SET.PATYPE(CURREG.SETYP-5000+NO_RECS) ~= '1'B THEN

   2140  3 000614   000001 236000 xsym               LDQ     CURREG+1
PL6.E3A0      #004=ZIU$VALDTE File=ZIU$VALSET.:ZIC0TSI                           FRI 09/05/97 13:34 Page:279
         3 000615   000022 732000                    QRS     18
         3 000616   000000 036000 xsym               ADLQ    NO_RECS
         3 000617   000012 402007                    MPY     10,DL
         3 000620   640000 623006                    EAX3    -49152,QL
         3 000621   076271 236113                    LDQ     -839,X3,PR0
         3 000622   000002 316003                    CANQ    2,DU
         3 000623   000630 601000 3                  TNZ     s:2142

     1603     2141    2               CALL WRITE_VALERR(%INCNOWN#) ALTRET(ALTOWN);

   2141  3 000624   000026 236000 4                  LDQ     22
         3 000625   200013 756100                    STQ     @CASE#+4,,AUTO
         3 000626   001117 701000 3                  TSX1    WRITE_VALERR
         3 000627   000642 702000 3                  TSX2    ALTOWN

     1604     2142    2       IF CURRPT.OWNER = 0 AND CURRPT.NEXT ~= 0 THEN

   2142  3 000630   000003 235000 xsym               LDA     CURRPT+3
         3 000631   000640 601000 3                  TNZ     s:2145
         3 000632   000000 236000 xsym               LDQ     CURRPT
         3 000633   000640 600000 3                  TZE     s:2145

     1605     2143    2           CALL WRITE_VALERR(%GRBGOWN#) ALTRET(ALTOWN);

   2143  3 000634   000030 236000 4                  LDQ     24
         3 000635   200013 756100                    STQ     @CASE#+4,,AUTO
         3 000636   001117 701000 3                  TSX1    WRITE_VALERR
         3 000637   000642 702000 3                  TSX2    ALTOWN

     1606     2144
     1607     2145    2       RETURN;

   2145  3 000640   200010 221300                    LDX1  ! @CASE#+1,,AUTO
         3 000641   000001 702211                    TSX2  ! 1,X1

     1608     2146    2   ALTOWN:
     1609     2147    2       ALTRETURN;
PL6.E3A0      #004=ZIU$VALDTE File=ZIU$VALSET.:ZIC0TSI                           FRI 09/05/97 13:34 Page:280

   2147  3 000642   200010 221300       ALTOWN       LDX1  ! @CASE#+1,,AUTO
         3 000643   000000 702211                    TSX2  ! 0,X1

     1610     2148    2   END CHKOWN;
     1611     2149        %EJECT;
PL6.E3A0      #004=ZIU$VALDTE File=ZIU$VALSET.:ZIC0TSI                           FRI 09/05/97 13:34 Page:281
     1612     2150
     1613     2151    1   INIT_EG: PROC ALTRET;

   2151  3 000644   200006 741300       INIT_EG      STX1  ! @PT_SIZE+2,,AUTO

     1614     2152
     1615     2153    2       EGRECNO = 0;

   2153  3 000645   000065 450000 0                  STZ     EGRECNO

     1616     2154    2       EGLIDBK = %FALSE#;

   2154  3 000646   000067 450000 0                  STZ     EGLIDBK

     1617     2155    2       EGLSTR = %FALSE#;

   2155  3 000647   000071 450000 0                  STZ     EGLSTR

     1618     2156    2       EGEOD = %FALSE#;

   2156  3 000650   000073 450000 0                  STZ     EGEOD

     1619     2157    2       EGEOF = %FALSE#;

   2157  3 000651   000075 450000 0                  STZ     EGEOF

     1620     2158
     1621     2159    2       IF NO_EGRECS = 0 THEN

   2159  3 000652   000000 235000 xsym               LDA     NO_EGRECS
         3 000653   000657 601000 3                  TNZ     s:2166

     1622     2160    3       DO;

     1623     2161    3           EGEOF = %YES#;

   2161  3 000654   400000 236003                    LDQ     -131072,DU
PL6.E3A0      #004=ZIU$VALDTE File=ZIU$VALSET.:ZIC0TSI                           FRI 09/05/97 13:34 Page:282
         3 000655   000075 756000 0                  STQ     EGEOF

     1624     2162    3           RETURN;

   2162  3 000656   000001 702211                    TSX2  ! 1,X1

     1625     2163    3           END;
     1626     2164
     1627     2165         /*       Close and reopen EGFILE for input. */
     1628     2166    2   /**/ DCBSF = EGFILE.DCB#;

   2166  3 000657   000001 236000 xsym               LDQ     EGFILE+1
         3 000660   000011 772000                    QRL     9
         3 000661   777777 376007                    ANQ     -1,DL
         3 000662   000000 620006                    EAX0    0,QL
         3 000663   000000 740000 xsym               STX0    DCBSF

     1629     2167    2       CALL SYS_FUNC_CLOS;

   2167  3 000664   000000 631400 4                  EPPR1   0
         3 000665   000000 701000 xent               TSX1    SYS_FUNC_CLOS
         3 000666   000000 011000                    NOP     0

     1630     2168    2       FUNSF = %IN#;

   2168  3 000667   000002 235007                    LDA     2,DL
         3 000670   000000 755000 xsym               STA     FUNSF

     1631     2169    2       ACSSF = %SEQUEN#;

   2169  3 000671   000001 236007                    LDQ     1,DL
         3 000672   000000 756000 xsym               STQ     ACSSF

     1632     2170    2       ORGSF = %CONSEC#;

   2170  3 000673   000000 756000 xsym               STQ     ORGSF

PL6.E3A0      #004=ZIU$VALDTE File=ZIU$VALSET.:ZIC0TSI                           FRI 09/05/97 13:34 Page:283
     1633     2171    2       ASNSF = %FILE#;

   2171  3 000674   000000 756000 xsym               STQ     ASNSF

     1634     2172    2       FIDSF = '*EGFILE';

   2172  3 000675   040000 100400                    MLR     fill='040'O
         3 000676   000002 000007 2                  ADSC9   2                        cn=0,n=7
         3 000677   000000 000036 xsym               ADSC9   FIDSF_RD                 cn=0,n=30

     1635     2173    2       CALL SYS_FUNC_OPEN ALTRET(ALT_EGINIT);

   2173  3 000700   000000 631400 4                  EPPR1   0
         3 000701   000000 701000 xent               TSX1    SYS_FUNC_OPEN
         3 000702   000733 702000 3                  TSX2    ALT_EGINIT

     1636     2174
     1637     2175
     1638     2176    2       CALL RDEGBUF ALTRET(ALT_EGINIT);

   2176  3 000703   001017 701000 3                  TSX1    RDEGBUF
         3 000704   000733 702000 3                  TSX2    ALT_EGINIT

     1639     2177
     1640     2178    2       CURREG = EGREC(0);

   2178  3 000705   000000 470400 xsym               LDP0    EGREC$
         3 000706   000000 100500                    MLR     fill='000'O
         3 000707   000000 000020                    ADSC9   0,,PR0                   cn=0,n=16
         3 000710   000000 000020 xsym               ADSC9   CURREG                   cn=0,n=16

     1641     2179    2       NEXTEG = 1;

   2179  3 000711   000001 235007                    LDA     1,DL
         3 000712   000064 755000 0                  STA     NEXTEG

     1642     2180
PL6.E3A0      #004=ZIU$VALDTE File=ZIU$VALSET.:ZIC0TSI                           FRI 09/05/97 13:34 Page:284
     1643     2181    2       IF NO_EGRECS = 1 THEN

   2181  3 000713   000000 236000 xsym               LDQ     NO_EGRECS
         3 000714   000001 116007                    CMPQ    1,DL
         3 000715   000723 601000 3                  TNZ     s:2188

     1644     2182    3       DO;

     1645     2183    3           EGLSTR = %TRUE#;

   2183  3 000716   400000 236003                    LDQ     -131072,DU
         3 000717   000071 756000 0                  STQ     EGLSTR

     1646     2184    3           EGLIDBK= %TRUE#;

   2184  3 000720   000067 756000 0                  STQ     EGLIDBK

     1647     2185    3           RETURN;

   2185  3 000721   200006 221300                    LDX1  ! @PT_SIZE+2,,AUTO
         3 000722   000001 702211                    TSX2  ! 1,X1

     1648     2186    3           END;
     1649     2187
     1650     2188    2       IF CURREG.DBK ~= EGREC.DBK(NEXTEG) THEN

   2188  3 000723   000002 735000                    ALS     2
         3 000724   000000 236000 xsym               LDQ     CURREG
         3 000725   000000 116105                    CMPQ    0,AL,PR0
         3 000726   000731 600000 3                  TZE     s:2191

     1651     2189    2           EGLIDBK = %TRUE#;

   2189  3 000727   400000 236003                    LDQ     -131072,DU
         3 000730   000067 756000 0                  STQ     EGLIDBK

     1652     2190
PL6.E3A0      #004=ZIU$VALDTE File=ZIU$VALSET.:ZIC0TSI                           FRI 09/05/97 13:34 Page:285
     1653     2191    2       RETURN;

   2191  3 000731   200006 221300                    LDX1  ! @PT_SIZE+2,,AUTO
         3 000732   000001 702211                    TSX2  ! 1,X1

     1654     2192
     1655     2193    2   ALT_EGINIT:
     1656     2194    2       ALTRETURN;

   2194  3 000733   200006 221300       ALT_EGINIT   LDX1  ! @PT_SIZE+2,,AUTO
         3 000734   000000 702211                    TSX2  ! 0,X1

     1657     2195    2   END INIT_EG;
     1658     2196        %EJECT;
PL6.E3A0      #004=ZIU$VALDTE File=ZIU$VALSET.:ZIC0TSI                           FRI 09/05/97 13:34 Page:286
     1659     2197        /*
     1660     2198                     Read EG file and set flags
     1661     2199        */
     1662     2200    1   RDEGREC: PROC ALTRET;

   2200  3 000735   200006 741300       RDEGREC      STX1  ! @PT_SIZE+2,,AUTO

     1663     2201
     1664     2202    2       EGEOD = %NO#;

   2202  3 000736   000073 450000 0                  STZ     EGEOD

     1665     2203    2       EGEOF = %NO#;

   2203  3 000737   000075 450000 0                  STZ     EGEOF

     1666     2204
     1667     2205    2       IF EGLIDBK = %TRUE# THEN

   2205  3 000740   000067 234000 0                  SZN     EGLIDBK
         3 000741   000746 605000 3                  TPL     s:2212

     1668     2206    3       DO;

     1669     2207    3           EGLIDBK = %FALSE#;

   2207  3 000742   000067 450000 0                  STZ     EGLIDBK

     1670     2208    3           EGEOD = %TRUE#;

   2208  3 000743   400000 236003                    LDQ     -131072,DU
         3 000744   000073 756000 0                  STQ     EGEOD

     1671     2209    3           RETURN;

   2209  3 000745   000001 702211                    TSX2  ! 1,X1

PL6.E3A0      #004=ZIU$VALDTE File=ZIU$VALSET.:ZIC0TSI                           FRI 09/05/97 13:34 Page:287
     1672     2210    3           END;
     1673     2211
     1674     2212    2       CURREG = EGREC(NEXTEG);

   2212  3 000746   000064 235000 0                  LDA     NEXTEG
         3 000747   000004 735000                    ALS     4
         3 000750   000000 470400 xsym               LDP0    EGREC$
         3 000751   000000 100505                    MLR     fill='000'O
         3 000752   000000 000020                    ADSC9   0,A,PR0                  cn=0,n=16
         3 000753   000000 000020 xsym               ADSC9   CURREG                   cn=0,n=16

     1675     2213    2       EGRECNO = EGRECNO +1;

   2213  3 000754   000065 054000 0                  AOS     EGRECNO

     1676     2214    2       NEXTEG = NEXTEG +1;

   2214  3 000755   000064 054000 0                  AOS     NEXTEG

     1677     2215
     1678     2216    2       IF EGLSTR = %TRUE# THEN /* This is the last record in EG file */

   2216  3 000756   000071 234000 0                  SZN     EGLSTR
         3 000757   000763 605000 3                  TPL     s:2222

     1679     2217    3       DO;

     1680     2218    3           EGEOF = %TRUE#;

   2218  3 000760   400000 236003                    LDQ     -131072,DU
         3 000761   000075 756000 0                  STQ     EGEOF

     1681     2219    3           RETURN;

   2219  3 000762   000001 702211                    TSX2  ! 1,X1

     1682     2220    3           END;
PL6.E3A0      #004=ZIU$VALDTE File=ZIU$VALSET.:ZIC0TSI                           FRI 09/05/97 13:34 Page:288
     1683     2221
     1684     2222    2       IF NEXTEG > 4095 AND EGRECNO < NO_EGRECS THEN

   2222  3 000763   000064 235000 0                  LDA     NEXTEG
         3 000764   007777 115007                    CMPA    4095,DL
         3 000765   000774 604400 3                  TMOZ    s:2228
         3 000766   000065 236000 0                  LDQ     EGRECNO
         3 000767   000000 116000 xsym               CMPQ    NO_EGRECS
         3 000770   000774 605000 3                  TPL     s:2228

     1685     2223    3       DO;

     1686     2224    3           CALL RDEGBUF ALTRET(ALT_RDEG);

   2224  3 000771   001017 701000 3                  TSX1    RDEGBUF
         3 000772   001015 702000 3                  TSX2    ALT_RDEG

     1687     2225    3           NEXTEG = 0;

   2225  3 000773   000064 450000 0                  STZ     NEXTEG

     1688     2226    3           END;

     1689     2227
     1690     2228    2       IF EGRECNO+1 = NO_EGRECS THEN

   2228  3 000774   000065 236000 0                  LDQ     EGRECNO
         3 000775   000001 036007                    ADLQ    1,DL
         3 000776   000000 116000 xsym               CMPQ    NO_EGRECS
         3 000777   001003 601000 3                  TNZ     s:2234

     1691     2229    3       DO;

     1692     2230    3           EGLSTR = %TRUE#;

   2230  3 001000   400000 236003                    LDQ     -131072,DU
         3 001001   000071 756000 0                  STQ     EGLSTR
PL6.E3A0      #004=ZIU$VALDTE File=ZIU$VALSET.:ZIC0TSI                           FRI 09/05/97 13:34 Page:289

     1693     2231    3           EGLIDBK = %TRUE#;

   2231  3 001002   000067 756000 0                  STQ     EGLIDBK

     1694     2232    3           END;

     1695     2233
     1696     2234    2       IF CURREG.DBK ~= EGREC.DBK(NEXTEG) THEN

   2234  3 001003   000064 235000 0                  LDA     NEXTEG
         3 001004   000002 735000                    ALS     2
         3 001005   000000 470400 xsym               LDP0    EGREC$
         3 001006   000000 236000 xsym               LDQ     CURREG
         3 001007   000000 116105                    CMPQ    0,AL,PR0
         3 001010   001013 600000 3                  TZE     s:2237

     1697     2235    2           EGLIDBK = %TRUE#;

   2235  3 001011   400000 236003                    LDQ     -131072,DU
         3 001012   000067 756000 0                  STQ     EGLIDBK

     1698     2236
     1699     2237    2       RETURN;

   2237  3 001013   200006 221300                    LDX1  ! @PT_SIZE+2,,AUTO
         3 001014   000001 702211                    TSX2  ! 1,X1

     1700     2238
     1701     2239    2   ALT_RDEG:
     1702     2240    2       ALTRETURN;

   2240  3 001015   200006 221300       ALT_RDEG     LDX1  ! @PT_SIZE+2,,AUTO
         3 001016   000000 702211                    TSX2  ! 0,X1

     1703     2241    2   END RDEGREC;
     1704     2242        %EJECT;
PL6.E3A0      #004=ZIU$VALDTE File=ZIU$VALSET.:ZIC0TSI                           FRI 09/05/97 13:34 Page:290
     1705     2243        /*
     1706     2244                     PHYSICAL READ OF EG FILE
     1707     2245        */
     1708     2246    1   RDEGBUF: PROC ALTRET;

   2246  3 001017   200010 741300       RDEGBUF      STX1  ! @CASE#+1,,AUTO

     1709     2247
     1710     2248    2   /**/ DCBSF = EGFILE.DCB#;

   2248  3 001020   000001 236000 xsym               LDQ     EGFILE+1
         3 001021   000011 772000                    QRL     9
         3 001022   777777 376007                    ANQ     -1,DL
         3 001023   000000 620006                    EAX0    0,QL
         3 001024   000000 740000 xsym               STX0    DCBSF

     1711     2249    2       BUFSF = VECTOR(EGREC);

   2249  3 001025   000031 235000 4                  LDA     25
         3 001026   000000 236000 xsym               LDQ     EGREC$
         3 001027   000000 755000 xsym               STA     BUFSF
         3 001030   000001 756000 xsym               STQ     BUFSF+1

     1712     2250    2       BUFLNSF = 16*4096;

   2250  3 001031   200000 235007                    LDA     65536,DL
         3 001032   000000 755000 xsym               STA     BUFLNSF

     1713     2251    2       KEYSF = %NO#;

   2251  3 001033   000000 450000 xsym               STZ     KEYSF

     1714     2252    2       FULLSF = %NO#;

   2252  3 001034   000000 450000 xsym               STZ     FULLSF

     1715     2253    2       CALL SYS_FUNC_READ ALTRET(ALT_READ);
PL6.E3A0      #004=ZIU$VALDTE File=ZIU$VALSET.:ZIC0TSI                           FRI 09/05/97 13:34 Page:291

   2253  3 001035   000000 631400 4                  EPPR1   0
         3 001036   000000 701000 xent               TSX1    SYS_FUNC_READ
         3 001037   001042 702000 3                  TSX2    ALT_READ

     1716     2254    2       RETURN;

   2254  3 001040   200010 221300                    LDX1  ! @CASE#+1,,AUTO
         3 001041   000001 702211                    TSX2  ! 1,X1

     1717     2255    2   ALT_READ:
     1718     2256    2       ALTRETURN;

   2256  3 001042   200010 221300       ALT_READ     LDX1  ! @CASE#+1,,AUTO
         3 001043   000000 702211                    TSX2  ! 0,X1

     1719     2257    2   END RDEGBUF;
     1720     2258        %EJECT;
PL6.E3A0      #004=ZIU$VALDTE File=ZIU$VALSET.:ZIC0TSI                           FRI 09/05/97 13:34 Page:292
     1721     2259
     1722     2260        /*
     1723     2261                         P T    I N I T
     1724     2262        */
     1725     2263    1   INIT_PT: PROC ALTRET;

   2263  3 001044   200006 741300       INIT_PT      STX1  ! @PT_SIZE+2,,AUTO

     1726     2264
     1727     2265    2       PTLIDBK = %NO#;

   2265  3 001045   000070 450000 0                  STZ     PTLIDBK

     1728     2266    2       PTLSTR = %NO#;

   2266  3 001046   000072 450000 0                  STZ     PTLSTR

     1729     2267    2       PTEOD = %FALSE#;

   2267  3 001047   000074 450000 0                  STZ     PTEOD

     1730     2268    2       PTEOF = %FALSE#;

   2268  3 001050   000076 450000 0                  STZ     PTEOF

     1731     2269    2       PTRECNO = 0;

   2269  3 001051   000066 450000 0                  STZ     PTRECNO

     1732     2270    2       PTSVCNT = -1; /* Index for PTSAVE used for MULTNXT error */

   2270  3 001052   000001 335007                    LCA     1,DL
         3 001053   000061 755000 0                  STA     PTSVCNT

     1733     2271
     1734     2272    2       IF PTSIZE = 0 THEN

PL6.E3A0      #004=ZIU$VALDTE File=ZIU$VALSET.:ZIC0TSI                           FRI 09/05/97 13:34 Page:293
   2272  3 001054   000010 236000 0                  LDQ     PTSIZE
         3 001055   001061 601000 3                  TNZ     s:2278

     1735     2273    3       DO;

     1736     2274    3           PTEOF = %YES#;

   2274  3 001056   400000 236003                    LDQ     -131072,DU
         3 001057   000076 756000 0                  STQ     PTEOF

     1737     2275    3           ALTRETURN;

   2275  3 001060   000000 702211                    TSX2  ! 0,X1

     1738     2276    3           END;
     1739     2277
     1740     2278    2       CURRPT = NXTPT;

   2278  3 001061   000000 100400                    MLR     fill='000'O
         3 001062   000004 000020 0                  ADSC9   NXTPT                    cn=0,n=16
         3 001063   000000 000020 xsym               ADSC9   CURRPT                   cn=0,n=16

     1741     2279
     1742     2280    2       IF NO_EGRECS = 1 THEN

   2280  3 001064   000000 235000 xsym               LDA     NO_EGRECS
         3 001065   000001 115007                    CMPA    1,DL
         3 001066   001073 601000 3                  TNZ     s:2287

     1743     2281    3       DO;

     1744     2282    3           PTLSTR = %TRUE#;

   2282  3 001067   400000 236003                    LDQ     -131072,DU
         3 001070   000072 756000 0                  STQ     PTLSTR

     1745     2283    3           PTLIDBK= %TRUE#;
PL6.E3A0      #004=ZIU$VALDTE File=ZIU$VALSET.:ZIC0TSI                           FRI 09/05/97 13:34 Page:294

   2283  3 001071   000070 756000 0                  STQ     PTLIDBK

     1746     2284    3           RETURN;

   2284  3 001072   000001 702211                    TSX2  ! 1,X1

     1747     2285    3           END;
     1748     2286
     1749     2287    2       RETURN;

   2287  3 001073   000001 702211                    TSX2  ! 1,X1

     1750     2288
     1751     2289    2   END INIT_PT;
     1752     2290        %EJECT;
PL6.E3A0      #004=ZIU$VALDTE File=ZIU$VALSET.:ZIC0TSI                           FRI 09/05/97 13:34 Page:295
     1753     2291        /*
     1754     2292                      READ   PT   RECORD
     1755     2293           This procedure will altreturn if it is found that no real read
     1756     2294           is to take place. This is how the calling location will no
     1757     2295           wether or not to return to sort.
     1758     2296        */
     1759     2297    1   RDPTREC: PROC ALTRET;

   2297  3 001074   200006 741300       RDPTREC      STX1  ! @PT_SIZE+2,,AUTO

     1760     2298
     1761     2299    2       PTEOF = %FALSE#;

   2299  3 001075   000076 450000 0                  STZ     PTEOF

     1762     2300    2       PTEOD = %FALSE#;

   2300  3 001076   000074 450000 0                  STZ     PTEOD

     1763     2301
     1764     2302    2       IF PTLIDBK = %YES# THEN

   2302  3 001077   000070 234000 0                  SZN     PTLIDBK
         3 001100   001105 605000 3                  TPL     s:2309

     1765     2303    3       DO;

     1766     2304    3           PTLIDBK = %NO#;

   2304  3 001101   000070 450000 0                  STZ     PTLIDBK

     1767     2305    3           PTEOD = %YES#;

   2305  3 001102   400000 236003                    LDQ     -131072,DU
         3 001103   000074 756000 0                  STQ     PTEOD

     1768     2306    3           ALTRETURN;
PL6.E3A0      #004=ZIU$VALDTE File=ZIU$VALSET.:ZIC0TSI                           FRI 09/05/97 13:34 Page:296

   2306  3 001104   000000 702211                    TSX2  ! 0,X1

     1769     2307    3           END;
     1770     2308
     1771     2309    2       CURRPT = NXTPT;

   2309  3 001105   000000 100400                    MLR     fill='000'O
         3 001106   000004 000020 0                  ADSC9   NXTPT                    cn=0,n=16
         3 001107   000000 000020 xsym               ADSC9   CURRPT                   cn=0,n=16

     1772     2310
     1773     2311    2       IF PTLSTR = %TRUE# THEN

   2311  3 001110   000072 234000 0                  SZN     PTLSTR
         3 001111   001115 605000 3                  TPL     s:2317

     1774     2312    3       DO;

     1775     2313    3           PTEOF = %TRUE#;

   2313  3 001112   400000 236003                    LDQ     -131072,DU
         3 001113   000076 756000 0                  STQ     PTEOF

     1776     2314    3           ALTRETURN;

   2314  3 001114   000000 702211                    TSX2  ! 0,X1

     1777     2315    3           END;
     1778     2316
     1779     2317    2       PTRECNO = PTRECNO +1;

   2317  3 001115   000066 054000 0                  AOS     PTRECNO

     1780     2318
     1781     2319    2       RETURN;

PL6.E3A0      #004=ZIU$VALDTE File=ZIU$VALSET.:ZIC0TSI                           FRI 09/05/97 13:34 Page:297
   2319  3 001116   000001 702211                    TSX2  ! 1,X1

     1782     2320    2   END RDPTREC;
     1783     2321        %EJECT;
PL6.E3A0      #004=ZIU$VALDTE File=ZIU$VALSET.:ZIC0TSI                           FRI 09/05/97 13:34 Page:298
     1784     2322
     1785     2323        /*
     1786     2324           This routine writes to the errfile the errors found by the
     1787     2325           set validation routine. The type of error is identified by
     1788     2326           ERRCODE which is used by the error reporting routine for
     1789     2327           displaying the error. The error file may and will be sorted
     1790     2328           to get problems with common dbks together.
     1791     2329        */
     1792     2330    1   WRITE_VALERR: PROC(ERRCODE) ALTRET;

   2330  3 001117   200012 741300       WRITE_VALERR STX1  ! @CASE#+3,,AUTO

     1793     2331
     1794     2332    2   DCL ERRCODE SBIN WORD ALIGNED;
     1795     2333
     1796     2334    2       NO_ERRORS = NO_ERRORS+1;

   2334  3 001120   000000 054000 xsym               AOS     NO_ERRORS

     1797     2335    3       DO CASE(ERRCODE);

   2335  3 001121   200013 470500                    LDP0    @ERRCODE,,AUTO
         3 001122   000000 235100                    LDA     0,,PR0
         3 001123   000012 115007                    CMPA    10,DL
         3 001124   001126 602005 3                  TNC     s:2335+5,AL
         3 001125   001476 710000 3                  TRA     s:2435
         3 001126   001476 710000 3                  TRA     s:2435
         3 001127   001140 710000 3                  TRA     s:2338
         3 001130   001174 710000 3                  TRA     s:2349
         3 001131   001276 710000 3                  TRA     s:2377
         3 001132   001341 710000 3                  TRA     s:2392
         3 001133   001364 710000 3                  TRA     s:2400
         3 001134   001415 710000 3                  TRA     s:2410
         3 001135   001451 710000 3                  TRA     s:2421
         3 001136   001321 710000 3                  TRA     s:2385
         3 001137   001140 710000 3                  TRA     s:2338

PL6.E3A0      #004=ZIU$VALDTE File=ZIU$VALSET.:ZIC0TSI                           FRI 09/05/97 13:34 Page:299
     1798     2336
     1799     2337    3       CASE(%GRBGNXT#,%GRBGOWN#);

     1800     2338    3           GRBGNXT.CODE = ERRCODE;

   2338  3 001140   000000 471400 xsym               LDP1    ERRBUF$
         3 001141   000000 236100                    LDQ     0,,PR0
         3 001142   000033 736000                    QLS     27
         3 001143   100002 552140                    STBQ    2,'40'O,PR1

     1801     2339    3           GRBGNXT.BADDBK = CURRPT.DBK;

   2339  3 001144   000100 100400                    MLR     fill='000'O
         3 001145   000002 000004 xsym               ADSC9   CURRPT+2                 cn=0,n=4
         3 001146   100000 400004                    ADSC9   0,,PR1                   cn=2,n=4

     1802     2340    3           GRBGNXT.SETYP = CURRPT.SETYP;

   2340  3 001147   000001 220000 xsym               LDX0    CURRPT+1
         3 001150   000000 471400 xsym               LDP1    ERRBUF$
         3 001151   100000 740100                    STX0    0,,PR1

     1803     2341    3           GRBGNXT.RECTYP = CURRPT.RECTYP;

   2341  3 001152   000001 720000 xsym               LXL0    CURRPT+1
         3 001153   000000 471400 xsym               LDP1    ERRBUF$
         3 001154   100001 440100                    SXL0    1,,PR1

     1804     2342    3           GRBGNXT.NXTVAL = CURRPT.NEXT;

   2342  3 001155   000100 100400                    MLR     fill='000'O
         3 001156   000000 000004 xsym               ADSC9   CURRPT                   cn=0,n=4
         3 001157   100002 200004                    ADSC9   2,,PR1                   cn=1,n=4

     1805     2343    3           GRBGNXT.OWNER = CURRPT.OWNER;

   2343  3 001160   000100 100400                    MLR     fill='000'O
PL6.E3A0      #004=ZIU$VALDTE File=ZIU$VALSET.:ZIC0TSI                           FRI 09/05/97 13:34 Page:300
         3 001161   000003 000004 xsym               ADSC9   CURRPT+3                 cn=0,n=4
         3 001162   100003 200004                    ADSC9   3,,PR1                   cn=1,n=4

     1806     2344    3           IF ERRCODE = %GRBGOWN# THEN

   2344  3 001163   000000 235100                    LDA     0,,PR0
         3 001164   000011 115007                    CMPA    9,DL
         3 001165   001171 601000 3                  TNZ     s:2346

     1807     2345    3               GRBGNXT.NXTVAL = CURRPT.OWNER;

   2345  3 001166   000100 100400                    MLR     fill='000'O
         3 001167   000003 000004 xsym               ADSC9   CURRPT+3                 cn=0,n=4
         3 001170   100002 200004                    ADSC9   2,,PR1                   cn=1,n=4

     1808     2346    3           BUFLNSF = 17;

   2346  3 001171   000021 235007                    LDA     17,DL
         3 001172   000000 755000 xsym               STA     BUFLNSF
         3 001173   001476 710000 3                  TRA     s:2435

     1809     2347
     1810     2348    3       CASE(%MULTNXT#);

     1811     2349    4           DO I = 0 TO PTSVCNT;

   2349  3 001174   000000 450000 xsym               STZ     I
         3 001175   001267 710000 3                  TRA     s:2372+1

     1812     2350    4               MULTNXT.CODE = ERRCODE;

   2350  3 001176   000000 470400 xsym               LDP0    ERRBUF$
         3 001177   200013 471500                    LDP1    @ERRCODE,,AUTO
         3 001200   100000 236100                    LDQ     0,,PR1
         3 001201   000033 736000                    QLS     27
         3 001202   000002 552140                    STBQ    2,'40'O,PR0

PL6.E3A0      #004=ZIU$VALDTE File=ZIU$VALSET.:ZIC0TSI                           FRI 09/05/97 13:34 Page:301
     1813     2351    4               MULTNXT.BADNXT = PTSAVE.NEXT(I);

   2351  3 001203   000000 235000 xsym               LDA     I
         3 001204   000002 735000                    ALS     2
         3 001205   000002 735000                    ALS     2
         3 001206   000100 100405                    MLR     fill='000'O
         3 001207   000011 000004 0                  ADSC9   PTSAVE,A                 cn=0,n=4
         3 001210   000000 400004                    ADSC9   0,,PR0                   cn=2,n=4

     1814     2352    4               MULTNXT.SETYP = PTSAVE.SETYP(I);

   2352  3 001211   000000 235000 xsym               LDA     I
         3 001212   000002 735000                    ALS     2
         3 001213   000012 220005 0                  LDX0    PTSAVE+1,AL
         3 001214   000000 470400 xsym               LDP0    ERRBUF$
         3 001215   000000 740100                    STX0    0,,PR0

     1815     2353    4               MULTNXT.BADDBK = PTSAVE.DBK(I);

   2353  3 001216   000000 235000 xsym               LDA     I
         3 001217   000002 735000                    ALS     2
         3 001220   000000 470400 xsym               LDP0    ERRBUF$
         3 001221   000002 735000                    ALS     2
         3 001222   000100 100405                    MLR     fill='000'O
         3 001223   000013 000004 0                  ADSC9   PTSAVE+2,A               cn=0,n=4
         3 001224   000002 200004                    ADSC9   2,,PR0                   cn=1,n=4

     1816     2354    4               MULTNXT.RECTYP = PTSAVE.RECTYP(I);

   2354  3 001225   000000 235000 xsym               LDA     I
         3 001226   000002 735000                    ALS     2
         3 001227   000012 720005 0                  LXL0    PTSAVE+1,AL
         3 001230   000001 440100                    SXL0    1,,PR0

     1817     2355    4               MULTNXT.PTCNT = PTSVCNT;

   2355  3 001231   000061 236000 0                  LDQ     PTSVCNT
PL6.E3A0      #004=ZIU$VALDTE File=ZIU$VALSET.:ZIC0TSI                           FRI 09/05/97 13:34 Page:302
         3 001232   000022 736000                    QLS     18
         3 001233   000003 552120                    STBQ    3,'20'O,PR0

     1818     2356    4               MULTNXT.OWNER = PTSAVE.OWNER(I);

   2356  3 001234   000000 236000 xsym               LDQ     I
         3 001235   000004 736000                    QLS     4
         3 001236   000100 100406                    MLR     fill='000'O
         3 001237   000014 000004 0                  ADSC9   PTSAVE+3,Q               cn=0,n=4
         3 001240   000003 400004                    ADSC9   3,,PR0                   cn=2,n=4

     1819     2357    4               BUFLNSF = 18;

   2357  3 001241   000022 235007                    LDA     18,DL
         3 001242   000000 755000 xsym               STA     BUFLNSF

     1820     2358
     1821     2359
     1822     2360         /*   Since the PA -> PA  record set pointers had 5000 subtracted
     1823     2361            off thier set values make the decision table think there
     1824     2362            are two separate sets (to avoid mult next ptr conflicts) -
     1825     2363            we will now restore the values. */
     1826     2364    4               IF ERROR.SETYP < 5000 THEN

   2364  3 001243   000000 221100                    LDX1    0,,PR0
         3 001244   011610 101003                    CMPX1   5000,DU
         3 001245   001250 605000 3                  TPL     s:2366

     1827     2365    4                   ERROR.SETYP = ERROR.SETYP + 5000;

   2365  3 001246   011610 622011                    EAX2    5000,X1
         3 001247   000000 742100                    STX2    0,,PR0

     1828     2366    4    /**/       DCBSF = ERRFILE.DCB#;

   2366  3 001250   000001 236000 xsym               LDQ     ERRFILE+1
         3 001251   000011 772000                    QRL     9
PL6.E3A0      #004=ZIU$VALDTE File=ZIU$VALSET.:ZIC0TSI                           FRI 09/05/97 13:34 Page:303
         3 001252   777777 376007                    ANQ     -1,DL
         3 001253   000000 620006                    EAX0    0,QL
         3 001254   000000 740000 xsym               STX0    DCBSF

     1829     2367    4    /**/       DCBSF = ERRFILE.DCB#;

   2367  3 001255   000000 740000 xsym               STX0    DCBSF

     1830     2368    4               BUFSF = VECTOR(ERROR_BUF);

   2368  3 001256   000032 237000 4                  LDAQ    26
         3 001257   000000 755000 xsym               STA     BUFSF
         3 001260   000001 756000 xsym               STQ     BUFSF+1

     1831     2369    4               VFCSF = %NO#;

   2369  3 001261   000000 450000 xsym               STZ     VFCSF

     1832     2370    4               FULLSF =%NO#;

   2370  3 001262   000000 450000 xsym               STZ     FULLSF

     1833     2371    4               CALL SYS_FUNC_WRIT ALTRET(ALT_ERR);

   2371  3 001263   000000 631400 4                  EPPR1   0
         3 001264   000000 701000 xent               TSX1    SYS_FUNC_WRIT
         3 001265   001523 702000 3                  TSX2    ALT_ERR

     1834     2372    4               END;

   2372  3 001266   000000 054000 xsym               AOS     I
         3 001267   000000 236000 xsym               LDQ     I
         3 001270   000061 116000 0                  CMPQ    PTSVCNT
         3 001271   001176 604400 3                  TMOZ    s:2350

     1835     2373    3           PTSVCNT = -1;

PL6.E3A0      #004=ZIU$VALDTE File=ZIU$VALSET.:ZIC0TSI                           FRI 09/05/97 13:34 Page:304
   2373  3 001272   000001 335007                    LCA     1,DL
         3 001273   000061 755000 0                  STA     PTSVCNT

     1836     2374    3           RETURN;

   2374  3 001274   200012 221300                    LDX1  ! @CASE#+3,,AUTO
         3 001275   000001 702211                    TSX2  ! 1,X1

     1837     2375
     1838     2376    3       CASE(%MMBRNXT#);

     1839     2377    3           MMBR.BADDBK = CURRPT.DBK;

   2377  3 001276   000000 471400 xsym               LDP1    ERRBUF$
         3 001277   000100 100400                    MLR     fill='000'O
         3 001300   000002 000004 xsym               ADSC9   CURRPT+2                 cn=0,n=4
         3 001301   100000 400004                    ADSC9   0,,PR1                   cn=2,n=4

     1840     2378    3           MMBR.SETYP = CURRPT.SETYP;

   2378  3 001302   000001 220000 xsym               LDX0    CURRPT+1
         3 001303   000000 471400 xsym               LDP1    ERRBUF$
         3 001304   100000 740100                    STX0    0,,PR1

     1841     2379    3           MMBR.CODE = ERRCODE;

   2379  3 001305   000000 471400 xsym               LDP1    ERRBUF$
         3 001306   000000 236100                    LDQ     0,,PR0
         3 001307   000033 736000                    QLS     27
         3 001310   100002 552140                    STBQ    2,'40'O,PR1

     1842     2380    3           MMBR.RECTYP = CURRPT.RECTYP;

   2380  3 001311   000001 720000 xsym               LXL0    CURRPT+1
         3 001312   100001 440100                    SXL0    1,,PR1

     1843     2381    3           MMBR.OWNER = CURRPT.OWNER;
PL6.E3A0      #004=ZIU$VALDTE File=ZIU$VALSET.:ZIC0TSI                           FRI 09/05/97 13:34 Page:305

   2381  3 001313   000100 100400                    MLR     fill='000'O
         3 001314   000003 000004 xsym               ADSC9   CURRPT+3                 cn=0,n=4
         3 001315   100002 200004                    ADSC9   2,,PR1                   cn=1,n=4

     1844     2382    3           BUFLNSF = 13;

   2382  3 001316   000015 235007                    LDA     13,DL
         3 001317   000000 755000 xsym               STA     BUFLNSF
         3 001320   001476 710000 3                  TRA     s:2435

     1845     2383
     1846     2384    3       CASE(%MMBRPRI#);

     1847     2385    3           MMBR.BADDBK = CURREG.DBK;

   2385  3 001321   000000 471400 xsym               LDP1    ERRBUF$
         3 001322   000100 100400                    MLR     fill='000'O
         3 001323   000000 000004 xsym               ADSC9   CURREG                   cn=0,n=4
         3 001324   100000 400004                    ADSC9   0,,PR1                   cn=2,n=4

     1848     2386    3           MMBR.SETYP = CURREG.SETYP;

   2386  3 001325   000001 220000 xsym               LDX0    CURREG+1
         3 001326   000000 471400 xsym               LDP1    ERRBUF$
         3 001327   100000 740100                    STX0    0,,PR1

     1849     2387    3           MMBR.CODE = ERRCODE;

   2387  3 001330   000000 471400 xsym               LDP1    ERRBUF$
         3 001331   000000 236100                    LDQ     0,,PR0
         3 001332   000033 736000                    QLS     27
         3 001333   100002 552140                    STBQ    2,'40'O,PR1

     1850     2388    3           MMBR.RECTYP = CURREG.RECTYP;

   2388  3 001334   000001 720000 xsym               LXL0    CURREG+1
PL6.E3A0      #004=ZIU$VALDTE File=ZIU$VALSET.:ZIC0TSI                           FRI 09/05/97 13:34 Page:306
         3 001335   100001 440100                    SXL0    1,,PR1

     1851     2389    3           BUFLNSF = 9;

   2389  3 001336   000011 235007                    LDA     9,DL
         3 001337   000000 755000 xsym               STA     BUFLNSF
         3 001340   001476 710000 3                  TRA     s:2435

     1852     2390
     1853     2391    3       CASE(%MISGNXT#);

     1854     2392    3           MISGNXT.BADDBK = CURREG.DBK;

   2392  3 001341   000000 471400 xsym               LDP1    ERRBUF$
         3 001342   000100 100400                    MLR     fill='000'O
         3 001343   000000 000004 xsym               ADSC9   CURREG                   cn=0,n=4
         3 001344   100000 400004                    ADSC9   0,,PR1                   cn=2,n=4

     1855     2393    3           MISGNXT.SETYP = CURREG.SETYP;

   2393  3 001345   000001 220000 xsym               LDX0    CURREG+1
         3 001346   000000 471400 xsym               LDP1    ERRBUF$
         3 001347   100000 740100                    STX0    0,,PR1

     1856     2394    3           MISGNXT.CODE = ERRCODE;

   2394  3 001350   000000 471400 xsym               LDP1    ERRBUF$
         3 001351   000000 236100                    LDQ     0,,PR0
         3 001352   000033 736000                    QLS     27
         3 001353   100002 552140                    STBQ    2,'40'O,PR1

     1857     2395    3           MISGNXT.RECTYP = CURREG.RECTYP;

   2395  3 001354   000001 720000 xsym               LXL0    CURREG+1
         3 001355   100001 440100                    SXL0    1,,PR1

     1858     2396    3           MISGNXT.PRI_VAL = CURREG.PRIOR;
PL6.E3A0      #004=ZIU$VALDTE File=ZIU$VALSET.:ZIC0TSI                           FRI 09/05/97 13:34 Page:307

   2396  3 001356   000100 100400                    MLR     fill='000'O
         3 001357   000002 000004 xsym               ADSC9   CURREG+2                 cn=0,n=4
         3 001360   100002 200004                    ADSC9   2,,PR1                   cn=1,n=4

     1859     2397    3           BUFLNSF = 13;

   2397  3 001361   000015 235007                    LDA     13,DL
         3 001362   000000 755000 xsym               STA     BUFLNSF
         3 001363   001476 710000 3                  TRA     s:2435

     1860     2398
     1861     2399    3       CASE(%DANGNXT#);

     1862     2400    3           DANGNXT.BADDBK = CURRPT.DBK;

   2400  3 001364   000000 471400 xsym               LDP1    ERRBUF$
         3 001365   000100 100400                    MLR     fill='000'O
         3 001366   000002 000004 xsym               ADSC9   CURRPT+2                 cn=0,n=4
         3 001367   100000 400004                    ADSC9   0,,PR1                   cn=2,n=4

     1863     2401    3           DANGNXT.SETYP = CURRPT.SETYP;

   2401  3 001370   000001 220000 xsym               LDX0    CURRPT+1
         3 001371   000000 471400 xsym               LDP1    ERRBUF$
         3 001372   100000 740100                    STX0    0,,PR1

     1864     2402    3           DANGNXT.CODE = ERRCODE;

   2402  3 001373   000000 471400 xsym               LDP1    ERRBUF$
         3 001374   000000 236100                    LDQ     0,,PR0
         3 001375   000033 736000                    QLS     27
         3 001376   100002 552140                    STBQ    2,'40'O,PR1

     1865     2403    3           DANGNXT.RECTYP = CURRPT.RECTYP;

   2403  3 001377   000001 720000 xsym               LXL0    CURRPT+1
PL6.E3A0      #004=ZIU$VALDTE File=ZIU$VALSET.:ZIC0TSI                           FRI 09/05/97 13:34 Page:308
         3 001400   100001 440100                    SXL0    1,,PR1

     1866     2404    3           DANGNXT.BADPRI = CURREG.DBK;

   2404  3 001401   000100 100400                    MLR     fill='000'O
         3 001402   000000 000004 xsym               ADSC9   CURREG                   cn=0,n=4
         3 001403   100002 200004                    ADSC9   2,,PR1                   cn=1,n=4

     1867     2405    3           DANGNXT.PRI_RECTYP = CURREG.RECTYP;

   2405  3 001404   000001 236000 xsym               LDQ     CURREG+1
         3 001405   000011 736000                    QLS     9
         3 001406   100003 552130                    STBQ    3,'30'O,PR1

     1868     2406    3           DANGNXT.OWNER = CURRPT.OWNER;

   2406  3 001407   000100 100400                    MLR     fill='000'O
         3 001410   000003 000004 xsym               ADSC9   CURRPT+3                 cn=0,n=4
         3 001411   100003 600004                    ADSC9   3,,PR1                   cn=3,n=4

     1869     2407    3           BUFLNSF = 19;

   2407  3 001412   000023 235007                    LDA     19,DL
         3 001413   000000 755000 xsym               STA     BUFLNSF
         3 001414   001476 710000 3                  TRA     s:2435

     1870     2408
     1871     2409    3       CASE(%INCNOWN#);

     1872     2410    3           INCNOWN.DBK1 = CURREG.DBK;

   2410  3 001415   000000 471400 xsym               LDP1    ERRBUF$
         3 001416   000100 100400                    MLR     fill='000'O
         3 001417   000000 000004 xsym               ADSC9   CURREG                   cn=0,n=4
         3 001420   100000 400004                    ADSC9   0,,PR1                   cn=2,n=4

     1873     2411    3           INCNOWN.SETYP = CURREG.SETYP;
PL6.E3A0      #004=ZIU$VALDTE File=ZIU$VALSET.:ZIC0TSI                           FRI 09/05/97 13:34 Page:309

   2411  3 001421   000001 220000 xsym               LDX0    CURREG+1
         3 001422   000000 471400 xsym               LDP1    ERRBUF$
         3 001423   100000 740100                    STX0    0,,PR1

     1874     2412    3           INCNOWN.CODE = ERRCODE;

   2412  3 001424   000000 471400 xsym               LDP1    ERRBUF$
         3 001425   000000 236100                    LDQ     0,,PR0
         3 001426   000033 736000                    QLS     27
         3 001427   100002 552140                    STBQ    2,'40'O,PR1

     1875     2413    3           INCNOWN.RECTYP1= CURREG.RECTYP;

   2413  3 001430   000001 720000 xsym               LXL0    CURREG+1
         3 001431   100001 440100                    SXL0    1,,PR1

     1876     2414    3           INCNOWN.OWNDBK1= CURREG.OWNER;

   2414  3 001432   000100 100400                    MLR     fill='000'O
         3 001433   000003 000004 xsym               ADSC9   CURREG+3                 cn=0,n=4
         3 001434   100002 200004                    ADSC9   2,,PR1                   cn=1,n=4

     1877     2415    3           INCNOWN.DBK2 = CURRPT.DBK;

   2415  3 001435   000100 100400                    MLR     fill='000'O
         3 001436   000002 000004 xsym               ADSC9   CURRPT+2                 cn=0,n=4
         3 001437   100003 600004                    ADSC9   3,,PR1                   cn=3,n=4

     1878     2416    3           INCNOWN.OWNDBK2= CURRPT.OWNER;

   2416  3 001440   000100 100400                    MLR     fill='000'O
         3 001441   000003 000004 xsym               ADSC9   CURRPT+3                 cn=0,n=4
         3 001442   100004 600004                    ADSC9   4,,PR1                   cn=3,n=4

     1879     2417    3           INCNOWN.RECTYP2= CURRPT.RECTYP;

PL6.E3A0      #004=ZIU$VALDTE File=ZIU$VALSET.:ZIC0TSI                           FRI 09/05/97 13:34 Page:310
   2417  3 001443   000100 100400                    MLR     fill='000'O
         3 001444   000001 400002 xsym               ADSC9   CURRPT+1                 cn=2,n=2
         3 001445   100005 600002                    ADSC9   5,,PR1                   cn=3,n=2

     1880     2418    3           BUFLNSF = 23;

   2418  3 001446   000027 235007                    LDA     23,DL
         3 001447   000000 755000 xsym               STA     BUFLNSF
         3 001450   001476 710000 3                  TRA     s:2435

     1881     2419
     1882     2420    3       CASE(%DBKPRIOR#);

     1883     2421    3           DBKPRIOR.BADDBK = CURREG.DBK;

   2421  3 001451   000000 471400 xsym               LDP1    ERRBUF$
         3 001452   000100 100400                    MLR     fill='000'O
         3 001453   000000 000004 xsym               ADSC9   CURREG                   cn=0,n=4
         3 001454   100000 400004                    ADSC9   0,,PR1                   cn=2,n=4

     1884     2422    3           DBKPRIOR.SETYP = CURREG.SETYP;

   2422  3 001455   000001 220000 xsym               LDX0    CURREG+1
         3 001456   000000 471400 xsym               LDP1    ERRBUF$
         3 001457   100000 740100                    STX0    0,,PR1

     1885     2423    3           DBKPRIOR.CODE = ERRCODE;

   2423  3 001460   000000 471400 xsym               LDP1    ERRBUF$
         3 001461   000000 236100                    LDQ     0,,PR0
         3 001462   000033 736000                    QLS     27
         3 001463   100002 552140                    STBQ    2,'40'O,PR1

     1886     2424    3           DBKPRIOR.RECTYP = CURREG.RECTYP;

   2424  3 001464   000001 720000 xsym               LXL0    CURREG+1
         3 001465   100001 440100                    SXL0    1,,PR1
PL6.E3A0      #004=ZIU$VALDTE File=ZIU$VALSET.:ZIC0TSI                           FRI 09/05/97 13:34 Page:311

     1887     2425    3           DBKPRIOR.EXP_PRI = CURRPT.DBK;

   2425  3 001466   000100 100400                    MLR     fill='000'O
         3 001467   000002 000004 xsym               ADSC9   CURRPT+2                 cn=0,n=4
         3 001470   100002 200004                    ADSC9   2,,PR1                   cn=1,n=4

     1888     2426    3           DBKPRIOR.PRI_VAL = CURREG.PRIOR;

   2426  3 001471   000100 100400                    MLR     fill='000'O
         3 001472   000002 000004 xsym               ADSC9   CURREG+2                 cn=0,n=4
         3 001473   100003 200004                    ADSC9   3,,PR1                   cn=1,n=4

     1889     2427    3           BUFLNSF = 17;

   2427  3 001474   000021 235007                    LDA     17,DL
         3 001475   000000 755000 xsym               STA     BUFLNSF

     1890     2428
     1891     2429    3           END; /* CASE */

     1892     2430
     1893     2431         /*   Since the PA -> PA  record set pointers had 5000 subtracted
     1894     2432            off their set values make the decision table think there
     1895     2433            are two separate sets (to avoid mult next ptr conflicts) -
     1896     2434            we will now restore the values. */
     1897     2435    2       IF ERROR.SETYP < 5000 THEN

   2435  3 001476   000000 471400 xsym               LDP1    ERRBUF$
         3 001477   100000 220100                    LDX0    0,,PR1
         3 001500   011610 100003                    CMPX0   5000,DU
         3 001501   001504 605000 3                  TPL     s:2438

     1898     2436    2           ERROR.SETYP = ERROR.SETYP + 5000;

   2436  3 001502   011610 621010                    EAX1    5000,X0
         3 001503   100000 741100                    STX1    0,,PR1
PL6.E3A0      #004=ZIU$VALDTE File=ZIU$VALSET.:ZIC0TSI                           FRI 09/05/97 13:34 Page:312

     1899     2437
     1900     2438    2   /**/ DCBSF = ERRFILE.DCB#;

   2438  3 001504   000001 236000 xsym               LDQ     ERRFILE+1
         3 001505   000011 772000                    QRL     9
         3 001506   777777 376007                    ANQ     -1,DL
         3 001507   000000 620006                    EAX0    0,QL
         3 001510   000000 740000 xsym               STX0    DCBSF

     1901     2439    2       BUFSF = VECTOR(ERROR_BUF);

   2439  3 001511   000032 237000 4                  LDAQ    26
         3 001512   000000 755000 xsym               STA     BUFSF
         3 001513   000001 756000 xsym               STQ     BUFSF+1

     1902     2440    2       VFCSF = %NO#;

   2440  3 001514   000000 450000 xsym               STZ     VFCSF

     1903     2441    2       FULLSF =%NO#;

   2441  3 001515   000000 450000 xsym               STZ     FULLSF

     1904     2442    2       CALL SYS_FUNC_WRIT ALTRET(ALT_ERR);

   2442  3 001516   000000 631400 4                  EPPR1   0
         3 001517   000000 701000 xent               TSX1    SYS_FUNC_WRIT
         3 001520   001523 702000 3                  TSX2    ALT_ERR

     1905     2443
     1906     2444
     1907     2445    2       RETURN;

   2445  3 001521   200012 221300                    LDX1  ! @CASE#+3,,AUTO
         3 001522   000001 702211                    TSX2  ! 1,X1

PL6.E3A0      #004=ZIU$VALDTE File=ZIU$VALSET.:ZIC0TSI                           FRI 09/05/97 13:34 Page:313
     1908     2446    2   ALT_ERR:
     1909     2447    2       ALTRETURN;

   2447  3 001523   200012 221300       ALT_ERR      LDX1  ! @CASE#+3,,AUTO
         3 001524   000000 702211                    TSX2  ! 0,X1

     1910     2448    2   END WRITE_VALERR;
     1911     2449
     1912     2450    1   ALT_VALDTE:
     1913     2451    1       ALTRETURN;

   2451  3 001525   000000 702200 xent  ALT_VALDTE   TSX2  ! X66_AALT

RETURN_CODE
 Sect OctLoc
   0     000   000000 000000                                                    ....

LASTEG
 Sect OctLoc
   0     001   000000 000000                                                    ....

LASTPT
 Sect OctLoc
   0     002   000000 000000                                                    ....

PRINTPT
 Sect OctLoc
   0     003   000000 000000                                                    ....

PTSAVE
 Sect OctLoc
   0     011   ****** ******   ****** ******   ****** ******   ****** ******    ................

PPTSTY
 Sect OctLoc
   0     063   000000 000000                                                    ....

PL6.E3A0      #004=ZIU$VALDTE File=ZIU$VALSET.:ZIC0TSI                           FRI 09/05/97 13:34 Page:314
EGRECNO
 Sect OctLoc
   0     065   000000 000000                                                    ....

PTRECNO
 Sect OctLoc
   0     066   000000 000000                                                    ....

(unnamed)
 Sect OctLoc
   2     000   052103 101114   103040 040040   052105 107106   111114 105040    *CALC   *EGFILE

(unnamed)
 Sect OctLoc
   4     000   000000 000000   000062 006000   000000 000001   000002 006000    .....2..........
   4     004   000000 000002   000004 006000   000000 000004   000006 006000    ................
   4     010   000000 000005   000010 006000   000004 000000   000001 406000    ................
   4     014   000001 006000   000077 006000   000100 006000   000000 000003    .....?...@......
   4     020   000017 006000   000000 000010   000021 006000   000000 000007    ................
   4     024   000023 006000   000000 000006   000025 006000   000000 000011    ................
   4     030   000027 006000   000003 777640   000007 777640   000000 006000    ................
     1914     2452
     1915     2453    1   END ZIU$VALDTE;
     1916     2454        %EOD;

PL6.E3A0      #004=ZIU$VALDTE File=ZIU$VALSET.:ZIC0TSI                           FRI 09/05/97 13:34 Page:315
--  Include file information  --

   ZI$DIR.:ZIC0TOU  is referenced.
   ZI_DBU_XREF.:ZIC0TOU  cannot be made into a system file and is referenced.
   ZI_DBU_VALDTE.:ZIC0TOU  is referenced.
   ZI_GLOBAL_DBUTIL.:ZIC0TOU  is referenced.
   CP_6_SUBS.:LIB_E05  is referenced.
   B$JIT_C.:E05TOU  was found in the system file and is never referenced.
   CP_6_C.:E05TOU  was found in the system file and is never referenced.
      No diagnostics issued in procedure ZIU$VALDTE.

   Procedure ZIU$VALDTE requires 854 words for executable code.
   Procedure ZIU$VALDTE requires 14 words of local(AUTO) storage.
PL6.E3A0      #004=ZIU$VALDTE File=ZIU$VALSET.:ZIC0TSI                           FRI 09/05/97 13:34 Page:316
          *** CROSS REFERENCE LISTING ***
**     DENOTES     IDENTIFIER DEFINITION
<<                 IDENTIFIER'S VALUE SET
>>                 IDENTIFIER'S VALUE USED
<>                 IDENTIFIER SET AND/OR USED
--                 IDENTIFIER REFERENCED
PL6.E3A0      #004=ZIU$VALDTE File=ZIU$VALSET.:ZIC0TSI                           FRI 09/05/97 13:34 Page:317
          MINI XREF LISTING

ACSSF
       779**DCL      2169<<ASSIGN
ALTNXT IN PROCEDURE CHKNXT
      2108**LABEL    2105--CALLALT
ALTOWN IN PROCEDURE CHKOWN
      2147**LABEL    2141--CALLALT  2143--CALLALT
ALTPRI IN PROCEDURE CHKPRI
      2126**LABEL    2119--CALLALT
ALT_EGINIT IN PROCEDURE INIT_EG
      2194**LABEL    2173--CALLALT  2176--CALLALT
ALT_ERR IN PROCEDURE WRITE_VALERR
      2447**LABEL    2371--CALLALT  2442--CALLALT
ALT_PTRS IN PROCEDURE CHECK_PTRS
      2093**LABEL    2086--CALLALT  2087--CALLALT  2089--CALLALT
ALT_RDEG IN PROCEDURE RDEGREC
      2240**LABEL    2224--CALLALT
ALT_READ IN PROCEDURE RDEGBUF
      2256**LABEL    2253--CALLALT
ALT_VALDTE
      2451**LABEL    1905--CALLALT  1919--CALLALT  1952--CALLALT  1953--CALLALT  1955--CALLALT  1967--CALLALT
      1969--CALLALT  1979--CALLALT  1990--CALLALT  2005--CALLALT
AREA_KEY$
      1518**DCL      1521--IMP-PTR
ASNSF
       782**DCL      2171<<ASSIGN
BREAK_FLAG
       899**DCL      1932>>IF
BREAK_LOCAT
      1180**DCL      1933>>UNWIND
BUFLNSF
       790**DCL      1902<<ASSIGN   2250<<ASSIGN   2346<<ASSIGN   2357<<ASSIGN   2382<<ASSIGN   2389<<ASSIGN
      2397<<ASSIGN   2407<<ASSIGN   2418<<ASSIGN   2427<<ASSIGN
PL6.E3A0      #004=ZIU$VALDTE File=ZIU$VALSET.:ZIC0TSI                           FRI 09/05/97 13:34 Page:318
BUFSF
       791**DCL      1901<<ASSIGN   2249<<ASSIGN   2368<<ASSIGN   2439<<ASSIGN
CASE#
        38**DCL      1928<>CALL     1930>>DOWHILE  1936>>DOCASE   2026<>CALL     2084>>IF
CASE# IN PROCEDURE CHECK_CASE
      2036**DCL      2035--PROC     2039<<ASSIGN   2042<<ASSIGN   2045<<ASSIGN   2048<<ASSIGN   2051<<ASSIGN
      2055<<ASSIGN   2058<<ASSIGN   2061<<ASSIGN   2064<<ASSIGN   2067<<ASSIGN   2070<<ASSIGN   2072<<ASSIGN
CHECK_CASE
      2035**PROC     1928--CALL     2026--CALL
CHECK_PTRS
      2081**PROC     1990--CALL     2005--CALL
CHKNXT
      2097**PROC     2089--CALL
CHKOWN
      2130**PROC     2087--CALL
CHKPRI
      2114**PROC     2086--CALL
COUNTSF
       841**DCL       842--REDEF
CURREG
      1200**DCL      2178<<ASSIGN   2212<<ASSIGN
CURREG.DBK
      1201**DCL      2047>>IF       2050>>IF       2101>>IF       2116>>IF       2188>>IF       2234>>IF
      2385>>ASSIGN   2392>>ASSIGN   2404>>ASSIGN   2410>>ASSIGN   2421>>ASSIGN
CURREG.OWNER
      1205**DCL      2138>>IF       2138>>IF       2414>>ASSIGN
CURREG.PRIOR
      1204**DCL      2116>>IF       2122>>IF       2396>>ASSIGN   2426>>ASSIGN
CURREG.RECTYP
      1203**DCL      2083<>CALL     2388>>ASSIGN   2395>>ASSIGN   2405>>ASSIGN   2413>>ASSIGN   2424>>ASSIGN
CURREG.SETYP
      1202**DCL      2063>>IF       2066>>IF       2083<>CALL     2132>>IF       2135>>IF       2140>>IF
      2386>>ASSIGN   2393>>ASSIGN   2411>>ASSIGN   2422>>ASSIGN
CURRPT
      1206**DCL      1988>>ASSIGN   2003>>ASSIGN   2278<<ASSIGN   2309<<ASSIGN
CURRPT.DBK
PL6.E3A0      #004=ZIU$VALDTE File=ZIU$VALSET.:ZIC0TSI                           FRI 09/05/97 13:34 Page:319
      1210**DCL      2101>>IF       2122>>IF       2339>>ASSIGN   2377>>ASSIGN   2400>>ASSIGN   2415>>ASSIGN
      2425>>ASSIGN
CURRPT.NEXT
      1207**DCL      1925>>IF       2021>>IF       2047>>IF       2050>>IF       2142>>IF       2342>>ASSIGN
CURRPT.OWNER
      1211**DCL      1212--REDEF    2138>>IF       2138>>IF       2142>>IF       2343>>ASSIGN   2345>>ASSIGN
      2381>>ASSIGN   2406>>ASSIGN   2416>>ASSIGN
CURRPT.RECTYP
      1209**DCL      2341>>ASSIGN   2380>>ASSIGN   2403>>ASSIGN   2417>>ASSIGN
CURRPT.SETYP
      1208**DCL      1989>>ASSIGN   2004>>ASSIGN   2063>>IF       2066>>IF       2069>>IF       2132>>IF
      2340>>ASSIGN   2378>>ASSIGN   2401>>ASSIGN
DANGNXT.BADDBK
      1262**DCL      2400<<ASSIGN
DANGNXT.BADPRI
      1265**DCL      2404<<ASSIGN
DANGNXT.CODE
      1264**DCL      2402<<ASSIGN
DANGNXT.OWNER
      1267**DCL      2406<<ASSIGN
DANGNXT.PRI_RECTYP
      1266**DCL      2405<<ASSIGN
DANGNXT.RECTYP
      1263**DCL      2403<<ASSIGN
DANGNXT.SETYP
      1261**DCL      2401<<ASSIGN
DBKPRIOR.BADDBK
      1281**DCL      2421<<ASSIGN
DBKPRIOR.CODE
      1283**DCL      2423<<ASSIGN
DBKPRIOR.EXP_PRI
      1284**DCL      2425<<ASSIGN
DBKPRIOR.PRI_VAL
      1285**DCL      2426<<ASSIGN
DBKPRIOR.RECTYP
      1282**DCL      2424<<ASSIGN
PL6.E3A0      #004=ZIU$VALDTE File=ZIU$VALSET.:ZIC0TSI                           FRI 09/05/97 13:34 Page:320
DBKPRIOR.SETYP
      1280**DCL      2422<<ASSIGN
DCBSF
       770**DCL      1890<<ASSIGN   2030<<ASSIGN   2166<<ASSIGN   2248<<ASSIGN   2366<<ASSIGN   2367<<ASSIGN
      2438<<ASSIGN
EGEOD
      1869**DCL      1954>>IF       1970>>ASSIGN   2053>>IF       2057>>IF       2156<<ASSIGN   2202<<ASSIGN
      2208<<ASSIGN
EGEOF
      1871**DCL      2038>>IF       2041>>IF       2157<<ASSIGN   2161<<ASSIGN   2203<<ASSIGN   2218<<ASSIGN
EGFILE.DCB#
      1219**DCL      2030>>ASSIGN   2166>>ASSIGN   2248>>ASSIGN
EGLIDBK
      1865**DCL      2154<<ASSIGN   2184<<ASSIGN   2189<<ASSIGN   2205>>IF       2207<<ASSIGN   2231<<ASSIGN
      2235<<ASSIGN
EGLSTR
      1867**DCL      2155<<ASSIGN   2183<<ASSIGN   2216>>IF       2230<<ASSIGN
EGREC
      1194**DCL      2178>>ASSIGN   2212>>ASSIGN   2249--ASSIGN
EGREC.DBK
      1195**DCL      2188>>IF       2234>>IF
EGREC$
      1189**DCL      1194--IMP-PTR  2178>>ASSIGN   2188>>IF       2212>>ASSIGN   2234>>IF       2249>>ASSIGN
EGRECNO
      1863**DCL      2153<<ASSIGN   2213<<ASSIGN   2213>>ASSIGN   2222>>IF       2228>>IF
ENCRP_SEEDSF
       799**DCL       800--REDEF
ERRBUF$
      1227**DCL      1228--IMP-PTR  1233--IMP-PTR  1240--IMP-PTR  1248--IMP-PTR  1254--IMP-PTR  1260--IMP-PTR
      1268--IMP-PTR  1279--IMP-PTR  2338>>ASSIGN   2339>>ASSIGN   2340>>ASSIGN   2341>>ASSIGN   2342>>ASSIGN
      2343>>ASSIGN   2345>>ASSIGN   2350>>ASSIGN   2351>>ASSIGN   2352>>ASSIGN   2353>>ASSIGN   2354>>ASSIGN
      2355>>ASSIGN   2356>>ASSIGN   2364>>IF       2365>>ASSIGN   2365>>ASSIGN   2377>>ASSIGN   2378>>ASSIGN
      2379>>ASSIGN   2380>>ASSIGN   2381>>ASSIGN   2385>>ASSIGN   2386>>ASSIGN   2387>>ASSIGN   2388>>ASSIGN
      2392>>ASSIGN   2393>>ASSIGN   2394>>ASSIGN   2395>>ASSIGN   2396>>ASSIGN   2400>>ASSIGN   2401>>ASSIGN
      2402>>ASSIGN   2403>>ASSIGN   2404>>ASSIGN   2405>>ASSIGN   2406>>ASSIGN   2410>>ASSIGN   2411>>ASSIGN
      2412>>ASSIGN   2413>>ASSIGN   2414>>ASSIGN   2415>>ASSIGN   2416>>ASSIGN   2417>>ASSIGN   2421>>ASSIGN
PL6.E3A0      #004=ZIU$VALDTE File=ZIU$VALSET.:ZIC0TSI                           FRI 09/05/97 13:34 Page:321
      2422>>ASSIGN   2423>>ASSIGN   2424>>ASSIGN   2425>>ASSIGN   2426>>ASSIGN   2435>>IF       2436>>ASSIGN
      2436>>ASSIGN
ERRCODE IN PROCEDURE WRITE_VALERR
      2332**DCL      2330--PROC     2335>>DOCASE   2338>>ASSIGN   2344>>IF       2350>>ASSIGN   2379>>ASSIGN
      2387>>ASSIGN   2394>>ASSIGN   2402>>ASSIGN   2412>>ASSIGN   2423>>ASSIGN
ERRCODESF
       801**DCL       806--REDEF
ERRFILE.DCB#
      1224**DCL      2366>>ASSIGN   2367>>ASSIGN   2438>>ASSIGN
ERROR.SETYP
      1229**DCL      2364>>IF       2365<<ASSIGN   2365>>ASSIGN   2435>>IF       2436<<ASSIGN   2436>>ASSIGN
ERROR_BUF
      1226**DCL      2368--ASSIGN   2439--ASSIGN
FIDSF
       818**DCL      2172<<ASSIGN
FIDSF_RD
       817**DCL       818--REDEF
FULLSF
       788**DCL      2252<<ASSIGN   2370<<ASSIGN   2441<<ASSIGN
FUNSF
       781**DCL      2168<<ASSIGN
GRBGNXT.BADDBK
      1235**DCL      2339<<ASSIGN
GRBGNXT.CODE
      1237**DCL      2338<<ASSIGN
GRBGNXT.NXTVAL
      1238**DCL      2342<<ASSIGN   2345<<ASSIGN
GRBGNXT.OWNER
      1239**DCL      2343<<ASSIGN
GRBGNXT.RECTYP
      1236**DCL      2341<<ASSIGN
GRBGNXT.SETYP
      1234**DCL      2340<<ASSIGN
HASNXT
      1877**DCL      1917<<ASSIGN   1951>>IF       1956<<ASSIGN   1965>>IF       1970<<ASSIGN   1986<<ASSIGN
      2002<<ASSIGN   2082<<ASSIGN
PL6.E3A0      #004=ZIU$VALDTE File=ZIU$VALSET.:ZIC0TSI                           FRI 09/05/97 13:34 Page:322
HELPCODE
       835**DCL       840--REDEF
I
       873**DCL      2349<<DOINDEX  2351>>ASSIGN   2352>>ASSIGN   2353>>ASSIGN   2354>>ASSIGN   2356>>ASSIGN
ICHKSUM
       900**DCL       901--REDEF
INCNOWN.CODE
      1272**DCL      2412<<ASSIGN
INCNOWN.DBK1
      1270**DCL      2410<<ASSIGN
INCNOWN.DBK2
      1275**DCL      2415<<ASSIGN
INCNOWN.OWNDBK1
      1273**DCL      2414<<ASSIGN
INCNOWN.OWNDBK2
      1276**DCL      2416<<ASSIGN
INCNOWN.RECTYP1
      1271**DCL      2413<<ASSIGN
INCNOWN.RECTYP2
      1277**DCL      2417<<ASSIGN
INCNOWN.SETYP
      1269**DCL      2411<<ASSIGN
INIT_EG
      2151**PROC     1919--CALL
INIT_PT
      2263**PROC     1920--CALL
INTERACT
      1874**DCL      2083<>CALL
I_O_BUF$
       878**DCL       879--IMP-PTR
KEYSF
       772**DCL      1904<<ASSIGN   2251<<ASSIGN
KEYVSF
       773**DCL       778--REDEF
KEYVSF.WD_ONE
       775**DCL       776--REDEF
PL6.E3A0      #004=ZIU$VALDTE File=ZIU$VALSET.:ZIC0TSI                           FRI 09/05/97 13:34 Page:323
LASTEG
        13**DCL      2108<<ASSIGN
LASTPT
        14**DCL      2109<<ASSIGN
MISGNXT.BADDBK
      1256**DCL      2392<<ASSIGN
MISGNXT.CODE
      1258**DCL      2394<<ASSIGN
MISGNXT.PRI_VAL
      1259**DCL      2396<<ASSIGN
MISGNXT.RECTYP
      1257**DCL      2395<<ASSIGN
MISGNXT.SETYP
      1255**DCL      2393<<ASSIGN
MLTNXT
      1878**DCL      1918<<ASSIGN   1945>>IF       1948<<ASSIGN   1960>>IF       1963<<ASSIGN   1985<<ASSIGN
      1996>>IF       1999<<ASSIGN
MMBR.BADDBK
      1250**DCL      2377<<ASSIGN   2385<<ASSIGN
MMBR.CODE
      1252**DCL      2379<<ASSIGN   2387<<ASSIGN
MMBR.OWNER
      1253**DCL      2381<<ASSIGN
MMBR.RECTYP
      1251**DCL      2380<<ASSIGN   2388<<ASSIGN
MMBR.SETYP
      1249**DCL      2378<<ASSIGN   2386<<ASSIGN
MSGCODE
       807**DCL       808--REDEF
MSTR$
      1487**DCL      1490--IMP-PTR  2135>>IF       2140>>IF
MSTR_REF.NAME
      1495**DCL      2135>>IF
MSTR_REF.NXTHSH
      1493**DCL      1494--REDEF
MSTR_REF.PAENT
PL6.E3A0      #004=ZIU$VALDTE File=ZIU$VALSET.:ZIC0TSI                           FRI 09/05/97 13:34 Page:324
      1499**DCL      1500--REDEF
MSTR_REF.PAOFF
      1496**DCL      1497--REDEF
MSTR_REF.SET.PATYPE
      1505**DCL      2140>>IF
MULTNXT.BADDBK
      1245**DCL      2353<<ASSIGN
MULTNXT.BADNXT
      1242**DCL      2351<<ASSIGN
MULTNXT.CODE
      1244**DCL      2350<<ASSIGN
MULTNXT.OWNER
      1247**DCL      2356<<ASSIGN
MULTNXT.PTCNT
      1246**DCL      2355<<ASSIGN
MULTNXT.RECTYP
      1243**DCL      2354<<ASSIGN
MULTNXT.SETYP
      1241**DCL      2352<<ASSIGN
NEXTEG
        40**DCL      2179<<ASSIGN   2188>>IF       2212>>ASSIGN   2214<<ASSIGN   2214>>ASSIGN   2222>>IF
      2225<<ASSIGN   2234>>IF
NOREAD
      2026**LABEL    1975--CALLALT  1981--CALLALT  1992--CALLALT  2007--CALLALT  2016--CALLALT
NO_EGRECS
      1191**DCL      2108>>ASSIGN   2159>>IF       2181>>IF       2222>>IF       2228>>IF       2280>>IF
NO_ERRORS
      1225**DCL      1921<<ASSIGN   2334<<ASSIGN   2334>>ASSIGN
NO_RECS
      1549**DCL      2135>>IF       2140>>IF
NXTPT
      2021**LABEL      27--REDEF    1908--GOTO     2278>>ASSIGN   2309>>ASSIGN
NXTPT.NEXT
        22**DCL      1925>>IF       2021>>IF
ORGSF
       771**DCL      2170<<ASSIGN
PL6.E3A0      #004=ZIU$VALDTE File=ZIU$VALSET.:ZIC0TSI                           FRI 09/05/97 13:34 Page:325
OWNER
      1875**DCL      2083<>CALL     2103>>IF       2118>>IF
PPTSTY
        39**DCL      1939<<ASSIGN   1950<<ASSIGN   1973<<ASSIGN   1989<<ASSIGN   2004<<ASSIGN   2069>>IF
PRINTPT
        15**DCL      1899>>IF
PT
         9**DCL         7--PROC     1888>>ASSIGN   1901--ASSIGN
PTEOD
      1870**DCL      2014>>IF       2053>>IF       2060>>IF       2267<<ASSIGN   2300<<ASSIGN   2305<<ASSIGN
PTEOF
      1872**DCL      2038>>IF       2044>>IF       2268<<ASSIGN   2274<<ASSIGN   2299<<ASSIGN   2313<<ASSIGN
PTFILE.DCB#
        19**DCL      1890>>ASSIGN
PTINIT
      1925**LABEL    1911--GOTO
PTLIDBK
      1866**DCL      1895<<ASSIGN   1926<<ASSIGN   2022<<ASSIGN   2265<<ASSIGN   2283<<ASSIGN   2302>>IF
      2304<<ASSIGN
PTLSTR
      1868**DCL      1894<<ASSIGN   2266<<ASSIGN   2282<<ASSIGN   2311>>IF
PTRECNO
      1864**DCL      2109>>ASSIGN   2269<<ASSIGN   2317<<ASSIGN   2317>>ASSIGN
PTREDF
        27**DCL      1888<<ASSIGN
PTSAVE
        30**DCL      1988<<ASSIGN   2003<<ASSIGN
PTSAVE.DBK
        34**DCL      2353>>ASSIGN
PTSAVE.NEXT
        31**DCL      2351>>ASSIGN
PTSAVE.OWNER
        35**DCL      2356>>ASSIGN
PTSAVE.RECTYP
        33**DCL      2354>>ASSIGN
PTSAVE.SETYP
PL6.E3A0      #004=ZIU$VALDTE File=ZIU$VALSET.:ZIC0TSI                           FRI 09/05/97 13:34 Page:326
        32**DCL      2352>>ASSIGN
PTSIZE
        28**DCL      1889<<ASSIGN   2272>>IF
PTSVCNT
        36**DCL      1987<<ASSIGN   1987>>ASSIGN   1988>>ASSIGN   2001<<ASSIGN   2270<<ASSIGN   2349>>DOINDEX
      2355>>ASSIGN   2373<<ASSIGN
PT_SIZE
        10**DCL         7--PROC        9--IMP-SIZ  1888>>ASSIGN   1889>>ASSIGN   1892>>IF       1901>>ASSIGN
RDEGBUF
      2246**PROC     2176--CALL     2224--CALL
RDEGREC
      2200**PROC     1953--CALL     1955--CALL     1969--CALL
RDPTREC
      2297**PROC     1941--CALL     1975--CALL     1981--CALL     1992--CALL     2007--CALL     2016--CALL
REC$
       859**DCL       882--IMP-PTR
REC_DATA_LN
       887**DCL       886--IMP-SIZ
REC_XREF$
      1542**DCL      1543--IMP-PTR
REREAD
      2014**LABEL    1941--CALLALT
RETURN_CODE
        12**DCL      1907>>IF       1910>>IF       1922<<ASSIGN   1940<<ASSIGN   1974<<ASSIGN   1980<<ASSIGN
      1991<<ASSIGN   2006<<ASSIGN   2032<<ASSIGN
SET_XREF$
      1531**DCL      1532--IMP-PTR
SYS_FUNC_CLOS
      1882**DCL-ENT  1896--CALL     2031--CALL     2167--CALL
SYS_FUNC_OPEN
      1883**DCL-ENT  2173--CALL
SYS_FUNC_READ
      1884**DCL-ENT  2253--CALL
SYS_FUNC_WRIT
      1881**DCL-ENT  1905--CALL     2371--CALL     2442--CALL
VFCSF
PL6.E3A0      #004=ZIU$VALDTE File=ZIU$VALSET.:ZIC0TSI                           FRI 09/05/97 13:34 Page:327
       787**DCL      1903<<ASSIGN   2369<<ASSIGN   2440<<ASSIGN
WRITE_VALERR
      2330**PROC     1938--CALL     1947--CALL     1952--CALL     1962--CALL     1967--CALL     1979--CALL
      1998--CALL     2105--CALL     2119--CALL     2123--CALL     2141--CALL     2143--CALL
ZI$DIR.ALTKEY
      1784**DCL      1785--REDEF    1786--REDEF
ZI$DIR.AREAFID
      1750**DCL      1751--REDEF
ZI$DIR.DATE
      1789**DCL      1793--REDEF
ZI$DIR.DEST_SEED
      1745**DCL      1746--REDEF    1747--REDEF
ZI$DIR.ENCP_SEED
      1742**DCL      1743--REDEF    1744--REDEF
ZI$DIR.REPRT_ZERO
      1776**DCL      1777--REDEF
ZI$DIR.SCHFID
      1748**DCL      1749--REDEF
ZI$DIR.TIME
      1794**DCL      1799--REDEF
ZIU$INTERACT
      1885**DCL-ENT  2083--CALL

