PL6.E3A0      #005=ZIU$RPTVAL File=ZIU$VALSET.:ZIC0TSI                           FRI 09/05/97 13:34 Page:328
     1917        1        /*M* ZIU$RPTVAL   IDSII    UTILITIES SET VALIDATION REPORT         */
     1918        2        /*T***********************************************************/
     1919        3        /*T*                                                         */
     1920        4        /*T* Copyright (c) Bull HN Information Systems Inc., 1997    */
     1921        5        /*T*                                                         */
     1922        6        /*T***********************************************************/
     1923        7        ZIU$RPTVAL: PROC ALTRET;
     1924        8
     1925        9
     1926       10    1   DCL ERRCODE SBIN WORD STATIC ALIGNED;
     1927       11    1   DCL PAPTRS BIT(1) STATIC ALIGNED;
     1928       12    1   DCL PTSVCNT SBIN WORD SYMREF ALIGNED;
     1929       13
     1930       14    1   DCL PA_ENTRY CHAR(3) STATIC ALIGNED;
     1931       15    1   DCL PA_GROUP CHAR(3) STATIC ALIGNED;
     1932       16    1   DCL PA_INFO CHAR(7) STATIC ALIGNED;
     1933       17
     1934       18         %INCLUDE CP_6_SUBS;
     1935      558         %INCLUDE ZI_GLOBAL_DBUTIL;
     1936      736         %MISC_DCLS;
     1937      789         %SYS_FUNC;
     1938      881         %INCLUDE ZI_DBU_VALDTE;
     1939     1149         %VALID_LIST;
     1940     1289         %VALID_REPT(STCLASS="STATIC SYMDEF");
     1941     1373         %INCLUDE ZI_DBU_XREF;
     1942     1540         %XREF_TBLS;
     1943     1615         %INCLUDE ZI$DIR;
     1944     1772         %DIR;
     1945     1916
     1946     1917
     1947     1918         %SUB FOREVER = "WHILE('1'B)";
     1948     1919    1   DCL SYS_FUNC_OPEN ENTRY ALTRET;
     1949     1920    1   DCL SYS_FUNC_CLOS ENTRY ALTRET;
     1950     1921    1   DCL SYS_FUNC_READ ENTRY ALTRET;
     1951     1922    1   DCL SYS_FUNC_WRIT ENTRY ALTRET;
     1952     1923    1   DCL SYS_FUNC_GETDCB ENTRY ALTRET;
     1953     1924    1   DCL ZERO_SUP ENTRY(3);
PL6.E3A0      #005=ZIU$RPTVAL File=ZIU$VALSET.:ZIC0TSI                           FRI 09/05/97 13:34 Page:329
     1954     1925
     1955     1926    1       CALL OPEN_ERRFILE ALTRET(ALT_REPT);
     1956     1927    1       CALL WRITE_HEADER ALTRET(EOF); /* IF NO ERRORS,RETURN */
     1957     1928
     1958     1929
     1959     1930    2       DO FOREVER;
     1960     1931
     1961     1932    2           IF BREAK_FLAG > 0 THEN
     1962     1933    3           DO;
     1963     1934    3               DCBSF = ERRFILE.DCB#;
     1964     1935    3               CALL SYS_FUNC_CLOS;
     1965     1936    3               ALTRETURN;
     1966     1937    3               END;
     1967     1938    2           CALL READ_ERRFILE ALTRET(EOF);
     1968     1939
     1969     1940    2           CALL BINCHAR(ERR.DBK,ERROR.DBK);
     1970     1941    2           CALL ZERO_SUP(ERR.DBK,12,'1'B);
     1971     1942
     1972     1943    2           IF ERROR.RECTYP < 0 THEN
     1973     1944    3           DO; /* PA INFO IN OWNER PNTR */
     1974     1945    3               ERROR.RECTYP = ERROR.RECTYP * -1;
     1975     1946    3               PAPTRS = %YES#;
     1976     1947    3               END;
     1977     1948    2           ELSE
     1978     1949    2               PAPTRS = %NO#;
     1979     1950    2           CALL FILL_RECNAME(ERR.RECNME,ERROR.RECTYP);
     1980     1951    2           ERR.SETNME = MSTR_REF.NAME(ERROR.SETYP-5000+NO_RECS);
     1981     1952
     1982     1953    3           DO CASE(ERRCODE);
     1983     1954    3           CASE(%GRBGNXT#,%GRBGOWN#);
     1984     1955    3               CALL REPT_GRBG;
     1985     1956    3           CASE(%MULTNXT#);
     1986     1957    3               CALL REPT_MULT ALTRET(EOF);
     1987     1958
     1988     1959    3           CASE(%MMBRNXT#,%MMBRPRI#);
     1989     1960    3               CALL REPT_MMBR;
     1990     1961
PL6.E3A0      #005=ZIU$RPTVAL File=ZIU$VALSET.:ZIC0TSI                           FRI 09/05/97 13:34 Page:330
     1991     1962    3           CASE(%MISGNXT#);
     1992     1963    3               CALL REPT_MISG;
     1993     1964
     1994     1965    3           CASE(%DANGNXT#);
     1995     1966    3               CALL REPT_DANG;
     1996     1967
     1997     1968    3           CASE(%INCNOWN#);
     1998     1969    3               CALL REPT_OWN;
     1999     1970
     2000     1971    3           CASE(%DBKPRIOR#);
     2001     1972    3               CALL REPT_DBK;
     2002     1973
     2003     1974    3               END;
     2004     1975    2           END;
     2005     1976
     2006     1977    1   EOF:
     2007     1978    1       DCBSF = ERRFILE.DCB#;
     2008     1979    1       CALL SYS_FUNC_CLOS;
     2009     1980    1       RETURN;
     2010     1981
     2011     1982    1   ALT_REPT:
     2012     1983    1       ALTRETURN;
     2013     1984        /*
     2014     1985              FILL IN PA POINTER INFORMATION IN THE POINTER SLOT
     2015     1986        */
     2016     1987    1   FILL_PAINFO: PROC(PAPTR);
     2017     1988
     2018     1989    2   DCL 1 PAPTR,
     2019     1990    2         2 ENT UBIN HALF UNAL,
     2020     1991    2         2 GRP UBIN HALF UNAL;
     2021     1992    2   DCL V1 SBIN STATIC ALIGNED;
     2022     1993    2   DCL CV1 CHAR(V1) BASED CALIGNED;
     2023     1994
     2024     1995    2       CALL BINCHAR(PA_ENTRY,PAPTR.ENT);
     2025     1996    2       CALL ZERO_SUP(PA_ENTRY,3,'1'B); /* CONVERT ENTRY NUMBER TO TEXT */
     2026     1997    2       IF PAPTR.GRP=0 THEN /* NO PA GROUP PROSENTS */
     2027     1998    2           CALL CONCAT(PA_INFO,'.',PA_ENTRY);
PL6.E3A0      #005=ZIU$RPTVAL File=ZIU$VALSET.:ZIC0TSI                           FRI 09/05/97 13:34 Page:331
     2028     1999    2       ELSE
     2029     2000    3       DO; /* PA_GROUP PRESENTS, TYPE AS   .ENTNO.GRPNO */
     2030     2001    3           CALL INDEX1(V1,' ',PA_ENTRY); /* GET LENGTHC ENTRYNO */
     2031     2002    3           CALL BINCHAR(PA_GROUP,PAPTR.GRP);
     2032     2003    3           CALL ZERO_SUP(PA_GROUP,3,'1'B);
     2033     2004    3           CALL CONCAT(PA_INFO,'.',ADDR(PA_ENTRY)->CV1,'.',PA_GROUP);
     2034     2005    3           END;
     2035     2006    2   END FILL_PAINFO;
     2036     2007        %EJECT;
PL6.E3A0      #005=ZIU$RPTVAL File=ZIU$VALSET.:ZIC0TSI                           FRI 09/05/97 13:34 Page:332
     2037     2008        /*
     2038     2009                    ERRFILE HANDLING ROUTINES
     2039     2010        */
     2040     2011    1   OPEN_ERRFILE: PROC ALTRET;
     2041     2012
     2042     2013    2   /**/ DCBNMSF = VECTOR(ERRFILE.N);
     2043     2014    2       CALL SYS_FUNC_GETDCB ALTRET(ALT);
     2044     2015    2       ERRFILE.DCB# = DCBSF;
     2045     2016
     2046     2017    2       ORGSF = %CONSEC#;
     2047     2018    2       ACSSF = %SEQUEN#;
     2048     2019    2       FUNSF = %IN#;
     2049     2020    2       FIDSF = '*ERRFILE';
     2050     2021    2       CALL SYS_FUNC_OPEN ALTRET(ALT);
     2051     2022    2       RETURN;
     2052     2023    2   ALT:
     2053     2024    2       ALTRETURN;
     2054     2025    2   END OPEN_ERRFILE;
     2055     2026
     2056     2027    1   READ_ERRFILE: PROC ALTRET;
     2057     2028
     2058     2029    2       ERROR_BUF = ' ';
     2059     2030    2   /**/ DCBSF = ERRFILE.DCB#;
     2060     2031    2       BUFSF = VECTOR(ERROR_BUF);
     2061     2032    2       BUFLNSF = 31;
     2062     2033    2       KEYSF = %NO#;
     2063     2034    2       CALL SYS_FUNC_READ ALTRET(ALTRD);
     2064     2035    2       ERRCODE = GRBGNXT.CODE; /* Code is the 7th Byte in buf */
     2065     2036
     2066     2037    2       RETURN;
     2067     2038    2   ALTRD:
     2068     2039    2       ALTRETURN;
     2069     2040    2   END READ_ERRFILE;
     2070     2041        %EJECT;
PL6.E3A0      #005=ZIU$RPTVAL File=ZIU$VALSET.:ZIC0TSI                           FRI 09/05/97 13:34 Page:333
     2071     2042        /*
     2072     2043                    WRITE OUT HEADER FOR REPORT
     2073     2044        */
     2074     2045    1   WRITE_HEADER: PROC ALTRET;
     2075     2046
     2076     2047    2   /**/ DCBSF = DCBNUM(M$LO);
     2077     2048    2       VFCSF = %YES#;
     2078     2049    2       BUFLNSF = 30;
     2079     2050    2       BUFSF = VECTOR(VALHDR);
     2080     2051
     2081     2052    2       IF NO_ERRORS = 0 AND ZI$DIR.REPRT_ERRS = %NO# THEN
     2082     2053    3       DO;
     2083     2054    3           VALHDR.REPT = '   No  Validation  Errors';
     2084     2055    3           CALL SYS_FUNC_WRIT ALTRET(ALTWRT);
     2085     2056    3           ALTRETURN;
     2086     2057    3           END;
     2087     2058
     2088     2059    2       CALL SYS_FUNC_WRIT ALTRET(ALTWRT);
     2089     2060
     2090     2061    2       BUFSF = VECTOR(HDR);
     2091     2062    2       BUFLNSF = 81;
     2092     2063    2       CALL SYS_FUNC_WRIT;
     2093     2064
     2094     2065    2       BUFSF = VECTOR(UNDR);
     2095     2066    2       CALL SYS_FUNC_WRIT;
     2096     2067
     2097     2068    2       RETURN;
     2098     2069
     2099     2070    2   ALTWRT:
     2100     2071    2       ALTRETURN;
     2101     2072    2   END WRITE_HEADER;
     2102     2073        %EJECT;
PL6.E3A0      #005=ZIU$RPTVAL File=ZIU$VALSET.:ZIC0TSI                           FRI 09/05/97 13:34 Page:334
     2103     2074    1   REPT_MULT: PROC ALTRET;
     2104     2075
     2105     2076    2       DCBSF = DCBNUM(M$LO);
     2106     2077    2       PTSVCNT = MULTNXT.PTCNT;
     2107     2078    3       DO I = 0 TO PTSVCNT;
     2108     2079
     2109     2080    3           CALL BINCHAR(ERR.DBK,MULTNXT.BADDBK);
     2110     2081    3           CALL ZERO_SUP(ERR.DBK,12,'1'B);
     2111     2082    3           CALL FILL_RECNAME(ERR.RECNME,MULTNXT.RECTYP);
     2112     2083    3           ERR.SETNME = MSTR_REF.NAME(MULTNXT.SETYP-5000+NO_RECS);
     2113     2084    3           IF PAPTRS = %YES# THEN
     2114     2085    4           DO; /*  GET PA INFO */
     2115     2086    4               CALL FILL_PAINFO(MULTNXT.OWNER);
     2116     2087    4               IF MULTNXT.RECTYP < 0 THEN
     2117     2088    5               DO;
     2118     2089    5                   MULTNXT.RECTYP = MULTNXT.RECTYP * -1;
     2119     2090    5                   CALL FILL_RECNAME(ERR.RECNME,MULTNXT.RECTYP);
     2120     2091    5                   END;
     2121     2092    4               ERR.PNTR = PA_INFO;
     2122     2093    4               END;
     2123     2094    3           ELSE
     2124     2095    3               ERR.PNTR = 'NEXT';
     2125     2096
     2126     2097    3           BUFSF = VECTOR(ERR);
     2127     2098    3           BUFLNSF = 81;
     2128     2099    3           CALL SYS_FUNC_WRIT ALTRET(LSTREC);
     2129     2100    3           IF I < PTSVCNT THEN /* Dont read next error yet */
     2130     2101    3               CALL READ_ERRFILE ALTRET(LASTREC);
     2131     2102    3           DCBSF = DCBNUM(M$LO);
     2132     2103    3           END;
     2133     2104    2   LASTREC:
     2134     2105    2       CALL FILL_VAL(ERRMULT.VAL,MULTNXT.BADNXT);
     2135     2106    2       DCBSF = DCBNUM(M$LO);
     2136     2107    2       BUFSF = VECTOR(ERRMULT);
     2137     2108    2       BUFLNSF = 70;
     2138     2109    2       CALL SYS_FUNC_WRIT;
     2139     2110
PL6.E3A0      #005=ZIU$RPTVAL File=ZIU$VALSET.:ZIC0TSI                           FRI 09/05/97 13:34 Page:335
     2140     2111    2       RETURN;
     2141     2112    2   LSTREC:
     2142     2113    2       CALL FILL_VAL(ERRMULT.VAL,MULTNXT.BADDBK);
     2143     2114    2       DCBSF = DCBNUM(M$LO);
     2144     2115    2       BUFSF = VECTOR(ERRMULT);
     2145     2116    2       BUFLNSF = 70;
     2146     2117    2       CALL SYS_FUNC_WRIT;
     2147     2118
     2148     2119    2       ALTRETURN;
     2149     2120    2   END REPT_MULT;
     2150     2121        %EJECT;
PL6.E3A0      #005=ZIU$RPTVAL File=ZIU$VALSET.:ZIC0TSI                           FRI 09/05/97 13:34 Page:336
     2151     2122    1   REPT_MISG: PROC;
     2152     2123
     2153     2124    2       ERR.PNTR = '****';
     2154     2125
     2155     2126    2       DCBSF = DCBNUM(M$LO);
     2156     2127    2       BUFSF = VECTOR(ERR);
     2157     2128    2       BUFLNSF = 81;
     2158     2129    2       CALL SYS_FUNC_WRIT;
     2159     2130
     2160     2131    2       BUFSF = VECTOR(ERRMISG);
     2161     2132    2       BUFLNSF = 63;
     2162     2133    2       CALL SYS_FUNC_WRIT;
     2163     2134
     2164     2135    2       CALL BINCHAR(ERRMISG2.VAL,MISGNXT.PRI_VAL);
     2165     2136    2       CALL ZERO_SUP(ERRMISG2.VAL,12,'1'B);
     2166     2137
     2167     2138    2       BUFSF = VECTOR(ERRMISG2);
     2168     2139    2       BUFLNSF = 59;
     2169     2140    2       CALL SYS_FUNC_WRIT;
     2170     2141
     2171     2142    2       RETURN;
     2172     2143    2   END REPT_MISG;
     2173     2144        %EJECT;
PL6.E3A0      #005=ZIU$RPTVAL File=ZIU$VALSET.:ZIC0TSI                           FRI 09/05/97 13:34 Page:337
     2174     2145        /*
     2175     2146                    REPORT PRIOR POINTER DISAGREES WITH THE PT POINTER
     2176     2147        */
     2177     2148    1   REPT_DBK: PROC;
     2178     2149
     2179     2150    2       IF PAPTRS = %YES# THEN
     2180     2151    3       DO; /*  GET PA INFO */
     2181     2152    3           CALL FILL_PAINFO(DBKPRIOR.OWNER);
     2182     2153    3           ERR.PNTR = PA_INFO;
     2183     2154    3           END;
     2184     2155    2       ELSE
     2185     2156    2           ERR.PNTR = 'PRIOR';
     2186     2157
     2187     2158    2       DCBSF = DCBNUM(M$LO);
     2188     2159    2       BUFSF = VECTOR(ERR);
     2189     2160    2       BUFLNSF = 81;
     2190     2161    2       CALL SYS_FUNC_WRIT;
     2191     2162
     2192     2163    2       CALL BINCHAR(BADPRI.VAL,DBKPRIOR.PRI_VAL);
     2193     2164    2       CALL ZERO_SUP(BADPRI.VAL,12,'1'B);
     2194     2165    2       BUFSF = VECTOR(BADPRI);
     2195     2166    2       BUFLNSF = 72;
     2196     2167    2       CALL SYS_FUNC_WRIT;
     2197     2168
     2198     2169    2       CALL BINCHAR(BADPRI2.VAL,DBKPRIOR.EXP_PRI);
     2199     2170    2       CALL ZERO_SUP(BADPRI2.VAL,12,'1'B);
     2200     2171    2       BUFSF = VECTOR(BADPRI2);
     2201     2172    2       BUFLNSF = 65;
     2202     2173    2       CALL SYS_FUNC_WRIT;
     2203     2174
     2204     2175    2       RETURN;
     2205     2176    2   END REPT_DBK;
     2206     2177        %EJECT;
PL6.E3A0      #005=ZIU$RPTVAL File=ZIU$VALSET.:ZIC0TSI                           FRI 09/05/97 13:34 Page:338
     2207     2178
     2208     2179        /*
     2209     2180           Report inconsistant owner pointers.
     2210     2181        */
     2211     2182    1   REPT_OWN: PROC;
     2212     2183
     2213     2184    2       ERR.PNTR = 'OWNER';
     2214     2185
     2215     2186    2       DCBSF = DCBNUM(M$LO);
     2216     2187    2       BUFSF = VECTOR(ERR);
     2217     2188    2       BUFLNSF = 81;
     2218     2189    2       CALL SYS_FUNC_WRIT;
     2219     2190
     2220     2191    2       BUFSF = VECTOR(ERROWN);
     2221     2192    2       BUFLNSF = 64;
     2222     2193    2       CALL SYS_FUNC_WRIT;
     2223     2194
     2224     2195    2       CALL FILL_OWNTEXT(INCNOWN.DBK1,INCNOWN.OWNDBK1);
     2225     2196    2       ERROWN2.VFC = SKIP1;
     2226     2197    2       BUFSF = VECTOR(ERROWN2);
     2227     2198    2       BUFLNSF = 83;
     2228     2199    2       CALL SYS_FUNC_WRIT;
     2229     2200
     2230     2201    2       ERROWN2.VFC = SKIP2;
     2231     2202    2       CALL FILL_OWNTEXT(INCNOWN.DBK2,INCNOWN.OWNDBK2);
     2232     2203    2       CALL SYS_FUNC_WRIT;
     2233     2204
     2234     2205    2       RETURN;
     2235     2206    2   END REPT_OWN;
     2236     2207        %EJECT;
PL6.E3A0      #005=ZIU$RPTVAL File=ZIU$VALSET.:ZIC0TSI                           FRI 09/05/97 13:34 Page:339
     2237     2208
     2238     2209        /*
     2239     2210                 REPORT A NEXT POINTER WHICH APPEARS TO BE GARBAGE
     2240     2211        */
     2241     2212    1   REPT_GRBG: PROC;
     2242     2213
     2243     2214    2       IF PAPTRS = %YES# THEN
     2244     2215    3       DO; /*  GET PA INFO */
     2245     2216    3           CALL FILL_PAINFO(GRBGNXT.OWNER);
     2246     2217    3           ERR.PNTR = PA_INFO;
     2247     2218    3           END;
     2248     2219    2       ELSE
     2249     2220    2           ERR.PNTR = 'NEXT';
     2250     2221    2       IF ERRCODE = %GRBGOWN# THEN
     2251     2222    2           ERR.PNTR = 'OWNER';
     2252     2223    2       DCBSF = DCBNUM(M$LO);
     2253     2224    2       BUFSF = VECTOR(ERR);
     2254     2225    2       BUFLNSF = 81;
     2255     2226    2       CALL SYS_FUNC_WRIT;
     2256     2227
     2257     2228    2       CALL FILL_VAL(ERRGRBG.VAL,GRBGNXT.NXTVAL);
     2258     2229    2       BUFSF = VECTOR(ERRGRBG);
     2259     2230    2       BUFLNSF = 71;
     2260     2231    2       CALL SYS_FUNC_WRIT;
     2261     2232
     2262     2233    2       RETURN;
     2263     2234    2   END REPT_GRBG;
     2264     2235         %EJECT;
PL6.E3A0      #005=ZIU$RPTVAL File=ZIU$VALSET.:ZIC0TSI                           FRI 09/05/97 13:34 Page:340
     2265     2236        /*
     2266     2237                 REPORT  DANGLING NEXT POINTER.
     2267     2238        */
     2268     2239    1   REPT_DANG: PROC;
     2269     2240
     2270     2241    2       IF PAPTRS = %YES# THEN
     2271     2242    3       DO; /*  GET PA INFO */
     2272     2243    3           CALL FILL_PAINFO(DANGNXT.OWNER);
     2273     2244    3           ERR.PNTR = PA_INFO;
     2274     2245    3           END;
     2275     2246    2       ELSE
     2276     2247    2           ERR.PNTR = 'NEXT';
     2277     2248    2       DCBSF = DCBNUM(M$LO);
     2278     2249    2       BUFSF = VECTOR(ERR);
     2279     2250    2       BUFLNSF = 81;
     2280     2251    2       CALL SYS_FUNC_WRIT;
     2281     2252
     2282     2253    2       CALL FILL_RECKEY(ERRDANG.VAL,DANGNXT.PRI_RECTYP,DANGNXT.BADPRI);
     2283     2254    2       BUFSF = VECTOR(ERRDANG);
     2284     2255    2       BUFLNSF = 83;
     2285     2256    2       CALL SYS_FUNC_WRIT;
     2286     2257
     2287     2258    2       RETURN;
     2288     2259    2   END REPT_DANG;
     2289     2260        %EJECT;
PL6.E3A0      #005=ZIU$RPTVAL File=ZIU$VALSET.:ZIC0TSI                           FRI 09/05/97 13:34 Page:341
     2290     2261
     2291     2262        /*
     2292     2263              Report a member record pointing to itself thry prior or next.
     2293     2264        */
     2294     2265    1   REPT_MMBR: PROC;
     2295     2266
     2296     2267    2       IF PAPTRS = %YES# THEN
     2297     2268    3       DO; /*  GET PA INFO */
     2298     2269    3           CALL FILL_PAINFO(MMBR.OWNER);
     2299     2270    3           ERR.PNTR = PA_INFO;
     2300     2271    3           END;
     2301     2272    3       ELSE DO;
     2302     2273    3           IF ERRCODE = %MMBRNXT# THEN
     2303     2274    3               ERR.PNTR = 'NEXT';
     2304     2275    3           ELSE
     2305     2276    3               ERR.PNTR = 'PRIOR';
     2306     2277    3           END;
     2307     2278    2       DCBSF = DCBNUM(M$LO);
     2308     2279    2       BUFSF = VECTOR(ERR);
     2309     2280    2       BUFLNSF = 81;
     2310     2281    2       CALL SYS_FUNC_WRIT;
     2311     2282
     2312     2283    2       BUFSF = VECTOR(ERRMMBR);
     2313     2284    2       BUFLNSF = 51;
     2314     2285    2       CALL SYS_FUNC_WRIT;
     2315     2286
     2316     2287    2       RETURN;
     2317     2288    2   END REPT_MMBR;
     2318     2289        %EJECT;
PL6.E3A0      #005=ZIU$RPTVAL File=ZIU$VALSET.:ZIC0TSI                           FRI 09/05/97 13:34 Page:342
     2319     2290
     2320     2291
     2321     2292    1   FILL_RECNAME: PROC(NAME,TYPE);
     2322     2293
     2323     2294    2   DCL NAME CHAR(30) CALIGNED;
     2324     2295    2   DCL TYPE SBIN HALF CALIGNED;
     2325     2296
     2326     2297    2       X=0;
     2327     2298    3       DO WHILE(MSTR_REF.TYPE(X) ~= TYPE AND X < NO_RECS);
     2328     2299    3           X = X+1;
     2329     2300    3           END;
     2330     2301
     2331     2302    2       IF X < NO_RECS THEN
     2332     2303    2           NAME = MSTR_REF.NAME(X);
     2333     2304    2       ELSE
     2334     2305    2           NAME = '*********';
     2335     2306
     2336     2307    2       RETURN;
     2337     2308    2   END FILL_RECNAME;
     2338     2309        %EJECT;
PL6.E3A0      #005=ZIU$RPTVAL File=ZIU$VALSET.:ZIC0TSI                           FRI 09/05/97 13:34 Page:343
     2339     2310    1   FILL_VAL: PROC(BUF,KEY);
     2340     2311
     2341     2312    2   DCL BUF CHAR(20) CALIGNED;
     2342     2313    2   DCL KEY UBIN WORD CALIGNED;
     2343     2314
     2344     2315    2   DCL TMP CHAR(12) STATIC ALIGNED;
     2345     2316    2   DCL FIL$ PTR STATIC INIT(ADDR(TMP));
     2346     2317    2   DCL FILL BASED(FIL$) CHAR(J);
     2347     2318
     2348     2319    2       CALL BINCHAR(TMP,KEY);
     2349     2320    2       CALL ZERO_SUP(TMP,12,'1'B);
     2350     2321    2       CALL INDEX(J,' ',TMP);
     2351     2322
     2352     2323
     2353     2324    2       CALL CONCAT(BUF,'(DBK# ',FILL,')');
     2354     2325
     2355     2326    2       RETURN;
     2356     2327    2   END FILL_VAL;
     2357     2328
     2358     2329        %EJECT;
PL6.E3A0      #005=ZIU$RPTVAL File=ZIU$VALSET.:ZIC0TSI                           FRI 09/05/97 13:34 Page:344
     2359     2330    1   FILL_RECKEY: PROC(BUF,RECTYPE,KEY);
     2360     2331
     2361     2332    2   DCL BUF CHAR(60) CALIGNED;
     2362     2333    2   DCL RECTYPE SBIN HALF CALIGNED;
     2363     2334    2   DCL KEY UBIN WORD CALIGNED;
     2364     2335    2   DCL BUF$ PTR STATIC ALIGNED;
     2365     2336    2   DCL BUFER CHAR(J) BASED(BUF$);
     2366     2337
     2367     2338    2       J= 60;
     2368     2339    2       BUF$ = ADDR(BUF);
     2369     2340    2       BUFER = ' ';
     2370     2341    2       J= 30; /* SIZE OF POSSIBLE NAME FIELD */
     2371     2342    2       CALL FILL_RECNAME(BUFER,RECTYPE);
     2372     2343    2       CALL INDEX(J,' ',BUFER);
     2373     2344    2       BUF$ = PINCRC(BUF$,J+1);
     2374     2345
     2375     2346    2       J = 7;
     2376     2347    2       BUF$ -> BUFER = 'RECORD ';
     2377     2348    2       BUF$ = PINCRC(BUF$,7);
     2378     2349
     2379     2350    2       J = 20; /* SIZE REQUIRED FOR FILL_VAL */
     2380     2351    2       CALL FILL_VAL(BUF$ -> BUFER,KEY);
     2381     2352
     2382     2353    2       RETURN;
     2383     2354    2   END FILL_RECKEY;
     2384     2355        %EJECT;
PL6.E3A0      #005=ZIU$RPTVAL File=ZIU$VALSET.:ZIC0TSI                           FRI 09/05/97 13:34 Page:345
     2385     2356        /*
     2386     2357              Concat key info for reporting inconsistant owners.
     2387     2358        */
     2388     2359    1   FILL_OWNTEXT: PROC(KEY1,KEY2);
     2389     2360
     2390     2361    2   DCL KEY1 UBIN WORD CALIGNED;
     2391     2362    2   DCL KEY2 UBIN WORD CALIGNED;
     2392     2363
     2393     2364    2   DCL STRING BASED(STR$) CHAR(J) CALIGNED;
     2394     2365    2   DCL STR$ PTR STATIC ALIGNED;
     2395     2366    2   DCL TMP CHAR(12) STATIC CALIGNED;
     2396     2367
     2397     2368    2       ERROWN2.TEXT = '  ';
     2398     2369    2       J=5;
     2399     2370    2       STR$ = ADDR(ERROWN2.TEXT);
     2400     2371    2       STR$->STRING = 'DBK# ';
     2401     2372    2       STR$ = PINCRC(STR$,5);
     2402     2373
     2403     2374    2       CALL BINCHAR(TMP,KEY1);
     2404     2375    2       CALL ZERO_SUP(TMP,12,'1'B);
     2405     2376    2       CALL INDEX(J,' ',TMP); /* FIND SIZE OF DBK IN CHAR FORMAT */
     2406     2377    2       J = J+1;
     2407     2378    2       STR$->STRING = TMP;
     2408     2379
     2409     2380    2       STR$ = PINCRC(STR$,J);
     2410     2381    2       J = 18;
     2411     2382    2       STR$->STRING = ' IS OWNED BY DBK# ';
     2412     2383    2       STR$ = PINCRC(STR$,18);
     2413     2384
     2414     2385    2       CALL BINCHAR(TMP,KEY2);
     2415     2386    2       CALL ZERO_SUP(TMP,12,'1'B);
     2416     2387    2       CALL INDEX(J,' ',TMP);
     2417     2388    2       J = J+1;
     2418     2389    2       STR$->STRING = TMP;
     2419     2390
     2420     2391    2       RETURN;
     2421     2392    2   END FILL_OWNTEXT;
PL6.E3A0      #005=ZIU$RPTVAL File=ZIU$VALSET.:ZIC0TSI                           FRI 09/05/97 13:34 Page:346
     2422     2393        %EJECT;
PL6.E3A0      #005=ZIU$RPTVAL File=ZIU$VALSET.:ZIC0TSI                           FRI 09/05/97 13:34 Page:347
     2423     2394
     2424     2395
     2425     2396    1   END ZIU$RPTVAL;

PL6.E3A0      #005=ZIU$RPTVAL File=ZIU$VALSET.:ZIC0TSI                           FRI 09/05/97 13:34 Page:348
--  Include file information  --

   ZI$DIR.:ZIC0TOU  is referenced.
   ZI_DBU_XREF.:ZIC0TOU  cannot be made into a system file and is referenced.
   ZI_DBU_VALDTE.:ZIC0TOU  is referenced.
   ZI_GLOBAL_DBUTIL.:ZIC0TOU  is referenced.
   CP_6_SUBS.:LIB_E05  is referenced.
   B$JIT_C.:E05TOU  was found in the system file and is never referenced.
   CP_6_C.:E05TOU  was found in the system file and is never referenced.
      No diagnostics issued in procedure ZIU$RPTVAL.

   Procedure ZIU$RPTVAL requires 906 words for executable code.
   Procedure ZIU$RPTVAL requires 18 words of local(AUTO) storage.

    No errors detected in file ZIU$VALSET.:ZIC0TSI    .

PL6.E3A0      #005=ZIU$RPTVAL File=ZIU$VALSET.:ZIC0TSI                           FRI 09/05/97 13:34 Page:349

 Object Unit name= ZIU$RPTVAL                                 File name= ZIU$VALSET.:ZIC0TOU
 UTS= SEP 05 '97 13:34:43.72 FRI                              Compiler= PL-6/E31         Sev=      00
 SharedLib= :SHARED_SYSTEM                                    Alt SharedLib=


    ****  Control sections  ****

 Sect   Type Bound  Init  Size OctSiz  Section name(segment info)
    0   Data  even  none   265    411  ZIU$RPTVAL
    1   DCB   even  none     0      0  M$LO
    2  RoData even  UTS     29     35  ZIU$RPTVAL
    3   Proc  even  none   906   1612  ZIU$RPTVAL
    4  RoData even  none    83    123  ZIU$RPTVAL

    ****  Entry defs  ****

                              Check   Calling
                             calling  sequence
  Sect OctLoc Primary Altret sequence   type   Parms  Name
     3      0   yes    yes     yes      Std        0  ZIU$RPTVAL
PL6.E3A0      #005=ZIU$RPTVAL File=ZIU$VALSET.:ZIC0TSI                           FRI 09/05/97 13:34 Page:350

  ****  Data defs  ****

 Sect OctLoc  Name                           Sect OctLoc  Name
    0      6  VALHDR                             0     16  HDR
    0     43  UNDR                               0     70  ERR
    0    115  ERRGRBG                            0    137  ERRDANG
    0    171  ERRMULT                            0    213  ERRMMBR
    0    230  ERRMISG                            0    250  ERRMISG2
    0    267  BADPRI                             0    311  BADPRI2
    0    332  ERROWN                             0    352  ERROWN2

  ****  Entry refs  ****

         Check        Calling
        calling       sequence
Altret sequence SRef   type   Args  Name
 yes     yes           Std       0 SYS_FUNC_CLOS
         yes           Std       3 ZERO_SUP
 yes     yes           Std       0 SYS_FUNC_GETDCB
 yes     yes           Std       0 SYS_FUNC_OPEN
 yes     yes           Std       0 SYS_FUNC_READ
 yes     yes           Std       0 SYS_FUNC_WRIT
                       nStd      0 X66_AUTO_0
                       nStd      0 X66_AALT
                       nStd      0 X66_ARET
PL6.E3A0      #005=ZIU$RPTVAL File=ZIU$VALSET.:ZIC0TSI                           FRI 09/05/97 13:34 Page:351

  ****  Data refs  ****

  Flags:  r = read only, s = secondary
Flgs Name                             Flgs Name                             Flgs Name
     PTSVCNT                               REC$                                  RB
     RE                                    IE                                    IB
     CNT                                   ICNT                                  RCNT
     SCNT                                  FIRST_SET                             RETCNT
     DMPCNT                                KCNT                                  ACNT_IDX
     I                                     J                                     K
     X                                     STEPCC                                I_O_BUF$
     OUT_INDX                              I_O_SIZE                              REC_DATA_LN
     M$LO                                  B$TCB$                                B$ROS$
     B$JIT$                                KEYFID                                I_O_KEY
     RESTART                               BREAK_FLAG                            ICHKSUM
     ITMCNT                                GAP1                                  BLKLSF
     KEYLSF                                KEYXSF                                DCBSF
     ORGSF                                 KEYSF                                 KEYVSF
     ACSSF                                 NOTIMESF                              FUNSF
     ASNSF                                 TESTSF                                XTENSIZESF
     DISPSF                                WAITSF                                VFCSF
     FULLSF                                BKUPSF                                BUFLNSF
     BUFSF                                 SOURCESF                              DESTSF
     DATESF                                TIMESF                                UTSSF
     DAYSF                                 TSTAMPSF                              ENCRP_SEEDSF
     ERRCODESF                             MSGCODE                               INCL_ERR
     ERR_INSERT                            FIDSF_RD                              ACNT
     EXISTSF                               SHARESF                               DCBNMSF
     KEYRSF                                NO_KEYSF                              REASGNSF
     CARRY_ATTRIBUTESF                     SUBMESSF                              SPKY_OPNSF
     POSSF                                 ERRFLGSF                              MERGESF
     FSA_FLAG                              RELGSF                                UNUSED
     HELPCODE                              COUNTSF                               INDEXSF
     GAP                                   PSNSF                                 ACNTSF
     KEY_SHADWSF                           BREAK_LOCAT                           RECLIST
     SETLIST                               SETINDX                               RECINDX
     HIGH_RECINDX                          EGREC$                                EGINDX
PL6.E3A0      #005=ZIU$RPTVAL File=ZIU$VALSET.:ZIC0TSI                           FRI 09/05/97 13:34 Page:352
     NO_EGRECS                             NO_EGBUFS                             LAST_EGINDX
     CURREG                                CURRPT                                EGFILE
     ERRFILE                               NO_ERRORS                             ERROR_BUF
     ERRBUF$                               TYPE                                  MSTR$
     NXT_MSLOT                             MAX_MSLOT                             MSTR_INDX
     HASHTBL                               HASHINDX                              LOC_MODE
     AREA_KEY$                             NO_AREAS                              GLBL_PTR_SZ
     SET_XREF$                             NXT_SSLOT                             MAX_SSLOT
     REC_XREF$                             NXT_RSLOT                             MAX_RSLOT
     NO_RECS                               NO_SETS                               XREF_BUILT
     TYPESET                               TYPEREC                               ZI$DIR
     SCHEMA_ACTIVE                         RECORD_LIST                           SET_LIST
     RETAIN_LIST                           DUMP_FID                              ALTKY
     INIT_RG                               KEY_RNG                               ITEM_LIST

  ****  Segment refs  ****

  Flags:  r = read only, s = secondary
Flgs Name                             Flgs Name                             Flgs Name
     ISSID
PL6.E3A0      #005=ZIU$RPTVAL File=ZIU$VALSET.:ZIC0TSI                           FRI 09/05/97 13:34 Page:353


     1917        1        /*M* ZIU$RPTVAL   IDSII    UTILITIES SET VALIDATION REPORT         */
     1918        2        /*T***********************************************************/
     1919        3        /*T*                                                         */
     1920        4        /*T* Copyright (c) Bull HN Information Systems Inc., 1997    */
     1921        5        /*T*                                                         */
     1922        6        /*T***********************************************************/
     1923        7        ZIU$RPTVAL: PROC ALTRET;

      7  3 000000   000000 700200 xent  ZIU$RPTVAL   TSX0  ! X66_AUTO_0
         3 000001   000022 000000                    ZERO    18,0

     1924        8
     1925        9
     1926       10    1   DCL ERRCODE SBIN WORD STATIC ALIGNED;
     1927       11    1   DCL PAPTRS BIT(1) STATIC ALIGNED;
     1928       12    1   DCL PTSVCNT SBIN WORD SYMREF ALIGNED;
     1929       13
     1930       14    1   DCL PA_ENTRY CHAR(3) STATIC ALIGNED;
     1931       15    1   DCL PA_GROUP CHAR(3) STATIC ALIGNED;
     1932       16    1   DCL PA_INFO CHAR(7) STATIC ALIGNED;
     1933       17
     1934       18         %INCLUDE CP_6_SUBS;
     1935      558         %INCLUDE ZI_GLOBAL_DBUTIL;
     1936      736         %MISC_DCLS;
     1937      789         %SYS_FUNC;
     1938      881         %INCLUDE ZI_DBU_VALDTE;
     1939     1149         %VALID_LIST;
     1940     1289         %VALID_REPT(STCLASS="STATIC SYMDEF");
     1941     1373         %INCLUDE ZI_DBU_XREF;
     1942     1540         %XREF_TBLS;
     1943     1615         %INCLUDE ZI$DIR;
     1944     1772         %DIR;
     1945     1916
     1946     1917
     1947     1918         %SUB FOREVER = "WHILE('1'B)";
     1948     1919    1   DCL SYS_FUNC_OPEN ENTRY ALTRET;
PL6.E3A0      #005=ZIU$RPTVAL File=ZIU$VALSET.:ZIC0TSI                           FRI 09/05/97 13:34 Page:354
     1949     1920    1   DCL SYS_FUNC_CLOS ENTRY ALTRET;
     1950     1921    1   DCL SYS_FUNC_READ ENTRY ALTRET;
     1951     1922    1   DCL SYS_FUNC_WRIT ENTRY ALTRET;
     1952     1923    1   DCL SYS_FUNC_GETDCB ENTRY ALTRET;
     1953     1924    1   DCL ZERO_SUP ENTRY(3);
     1954     1925
     1955     1926    1       CALL OPEN_ERRFILE ALTRET(ALT_REPT);

   1926  3 000002   000254 701000 3                  TSX1    OPEN_ERRFILE
         3 000003   000147 702000 3                  TSX2    ALT_REPT

     1956     1927    1       CALL WRITE_HEADER ALTRET(EOF); /* IF NO ERRORS,RETURN */

   1927  3 000004   000337 701000 3                  TSX1    WRITE_HEADER
         3 000005   000136 702000 3                  TSX2    EOF

     1957     1928
     1958     1929
     1959     1930    2       DO FOREVER;

     1960     1931
     1961     1932    2           IF BREAK_FLAG > 0 THEN

   1932  3 000006   000000 235000 xsym               LDA     BREAK_FLAG
         3 000007   000021 604400 3                  TMOZ    s:1938

     1962     1933    3           DO;

     1963     1934    3               DCBSF = ERRFILE.DCB#;

   1934  3 000010   000001 236000 xsym               LDQ     ERRFILE+1
         3 000011   000011 772000                    QRL     9
         3 000012   777777 376007                    ANQ     -1,DL
         3 000013   000000 620006                    EAX0    0,QL
         3 000014   000000 740000 xsym               STX0    DCBSF

     1964     1935    3               CALL SYS_FUNC_CLOS;
PL6.E3A0      #005=ZIU$RPTVAL File=ZIU$VALSET.:ZIC0TSI                           FRI 09/05/97 13:34 Page:355

   1935  3 000015   000000 631400 4                  EPPR1   0
         3 000016   000000 701000 xent               TSX1    SYS_FUNC_CLOS
         3 000017   000000 011000                    NOP     0

     1965     1936    3               ALTRETURN;

   1936  3 000020   000000 702200 xent               TSX2  ! X66_AALT

     1966     1937    3               END;
     1967     1938    2           CALL READ_ERRFILE ALTRET(EOF);

   1938  3 000021   000305 701000 3                  TSX1    READ_ERRFILE
         3 000022   000136 702000 3                  TSX2    EOF

     1968     1939
     1969     1940    2           CALL BINCHAR(ERR.DBK,ERROR.DBK);

   1940  3 000023   000000 470400 xsym               LDP0    ERRBUF$
         3 000024   000000 235100                    LDA     0,,PR0
         3 000025   000001 236100                    LDQ     1,,PR0
         3 000026   000022 773000                    LRL     18
         3 000027   000000 235003                    LDA     0,DU
         3 000030   200016 757100                    STAQ    @KEY+2,,AUTO
         3 000031   000000 301500                    BTD
         3 000032   200016 000010                    NDSC9   @KEY+2,,AUTO             cn=0,s=lsgnf,sf=0,n=8
         3 000033   000070 230014 0                  NDSC9   ERR                      cn=1,s=nosgn,sf=0,n=12

     1970     1941    2           CALL ZERO_SUP(ERR.DBK,12,'1'B);

   1941  3 000034   000004 630400 4                  EPPR0   4
         3 000035   000001 631400 4                  EPPR1   1
         3 000036   000000 701000 xent               TSX1    ZERO_SUP
         3 000037   000000 011000                    NOP     0

     1971     1942
     1972     1943    2           IF ERROR.RECTYP < 0 THEN
PL6.E3A0      #005=ZIU$RPTVAL File=ZIU$VALSET.:ZIC0TSI                           FRI 09/05/97 13:34 Page:356

   1943  3 000040   000000 470400 xsym               LDP0    ERRBUF$
         3 000041   000001 720100                    LXL0    1,,PR0
         3 000042   000051 605000 3                  TPL     s:1949

     1973     1944    3           DO; /* PA INFO IN OWNER PNTR */

     1974     1945    3               ERROR.RECTYP = ERROR.RECTYP * -1;

   1945  3 000043   777777 620010                    EAX0    -1,X0
         3 000044   777777 660003                    ERX0    -1,DU
         3 000045   000001 440100                    SXL0    1,,PR0

     1975     1946    3               PAPTRS = %YES#;

   1946  3 000046   400000 236003                    LDQ     -131072,DU
         3 000047   000001 756000 0                  STQ     PAPTRS

     1976     1947    3               END;

   1947  3 000050   000052 710000 3                  TRA     s:1950

     1977     1948    2           ELSE
     1978     1949    2               PAPTRS = %NO#;

   1949  3 000051   000001 450000 0                  STZ     PAPTRS

     1979     1950    2           CALL FILL_RECNAME(ERR.RECNME,ERROR.RECTYP);

   1950  3 000052   000000 236000 xsym               LDQ     ERRBUF$
         3 000053   000007 036000 4                  ADLQ    7
         3 000054   200014 756100                    STQ     @BUF+1,,AUTO
         3 000055   000010 236000 4                  LDQ     8
         3 000056   200013 756100                    STQ     @KEY+2,,AUTO
         3 000057   001302 701000 3                  TSX1    FILL_RECNAME
         3 000060   000000 011000                    NOP     0

PL6.E3A0      #005=ZIU$RPTVAL File=ZIU$VALSET.:ZIC0TSI                           FRI 09/05/97 13:34 Page:357
     1980     1951    2           ERR.SETNME = MSTR_REF.NAME(ERROR.SETYP-5000+NO_RECS);

   1951  3 000061   000000 470400 xsym               LDP0    ERRBUF$
         3 000062   000000 236100                    LDQ     0,,PR0
         3 000063   000022 732000                    QRS     18
         3 000064   000000 036000 xsym               ADLQ    NO_RECS
         3 000065   000050 402007                    MPY     40,DL
         3 000066   000000 471400 xsym               LDP1    MSTR$
         3 000067   600000 136007                    SBLQ    -65536,DL
         3 000070   040000 100506                    MLR     fill='040'O
         3 000071   176261 400036                    ADSC9   -847,Q,PR1               cn=2,n=30
         3 000072   000104 600036 0                  ADSC9   ERR+12                   cn=3,n=30

     1981     1952
     1982     1953    3           DO CASE(ERRCODE);

   1953  3 000073   000000 235000 0                  LDA     ERRCODE
         3 000074   000012 115007                    CMPA    10,DL
         3 000075   000077 602005 3                  TNC     s:1953+4,AL
         3 000076   000006 710000 3                  TRA     s:1932
         3 000077   000135 710000 3                  TRA     s:1975
         3 000100   000111 710000 3                  TRA     s:1955
         3 000101   000114 710000 3                  TRA     s:1957
         3 000102   000117 710000 3                  TRA     s:1960
         3 000103   000122 710000 3                  TRA     s:1963
         3 000104   000125 710000 3                  TRA     s:1966
         3 000105   000130 710000 3                  TRA     s:1969
         3 000106   000133 710000 3                  TRA     s:1972
         3 000107   000117 710000 3                  TRA     s:1960
         3 000110   000111 710000 3                  TRA     s:1955

     1983     1954    3           CASE(%GRBGNXT#,%GRBGOWN#);

     1984     1955    3               CALL REPT_GRBG;

   1955  3 000111   001070 701000 3                  TSX1    REPT_GRBG
         3 000112   000000 011000                    NOP     0
PL6.E3A0      #005=ZIU$RPTVAL File=ZIU$VALSET.:ZIC0TSI                           FRI 09/05/97 13:34 Page:358
         3 000113   000006 710000 3                  TRA     s:1932

     1985     1956    3           CASE(%MULTNXT#);

     1986     1957    3               CALL REPT_MULT ALTRET(EOF);

   1957  3 000114   000414 701000 3                  TSX1    REPT_MULT
         3 000115   000136 702000 3                  TSX2    EOF
         3 000116   000006 710000 3                  TRA     s:1932

     1987     1958
     1988     1959    3           CASE(%MMBRNXT#,%MMBRPRI#);

     1989     1960    3               CALL REPT_MMBR;

   1960  3 000117   001227 701000 3                  TSX1    REPT_MMBR
         3 000120   000000 011000                    NOP     0
         3 000121   000006 710000 3                  TRA     s:1932

     1990     1961
     1991     1962    3           CASE(%MISGNXT#);

     1992     1963    3               CALL REPT_MISG;

   1963  3 000122   000614 701000 3                  TSX1    REPT_MISG
         3 000123   000000 011000                    NOP     0
         3 000124   000006 710000 3                  TRA     s:1932

     1993     1964
     1994     1965    3           CASE(%DANGNXT#);

     1995     1966    3               CALL REPT_DANG;

   1966  3 000125   001151 701000 3                  TSX1    REPT_DANG
         3 000126   000000 011000                    NOP     0
         3 000127   000006 710000 3                  TRA     s:1932

PL6.E3A0      #005=ZIU$RPTVAL File=ZIU$VALSET.:ZIC0TSI                           FRI 09/05/97 13:34 Page:359
     1996     1967
     1997     1968    3           CASE(%INCNOWN#);

     1998     1969    3               CALL REPT_OWN;

   1969  3 000130   001000 701000 3                  TSX1    REPT_OWN
         3 000131   000000 011000                    NOP     0
         3 000132   000006 710000 3                  TRA     s:1932

     1999     1970
     2000     1971    3           CASE(%DBKPRIOR#);

     2001     1972    3               CALL REPT_DBK;

   1972  3 000133   000672 701000 3                  TSX1    REPT_DBK
         3 000134   000000 011000                    NOP     0

     2002     1973
     2003     1974    3               END;

     2004     1975    2           END;

   1975  3 000135   000006 710000 3                  TRA     s:1932

     2005     1976
     2006     1977    1   EOF:
     2007     1978    1       DCBSF = ERRFILE.DCB#;

   1978  3 000136   000001 236000 xsym  EOF          LDQ     ERRFILE+1
         3 000137   000011 772000                    QRL     9
         3 000140   777777 376007                    ANQ     -1,DL
         3 000141   000000 620006                    EAX0    0,QL
         3 000142   000000 740000 xsym               STX0    DCBSF

     2008     1979    1       CALL SYS_FUNC_CLOS;

   1979  3 000143   000000 631400 4                  EPPR1   0
PL6.E3A0      #005=ZIU$RPTVAL File=ZIU$VALSET.:ZIC0TSI                           FRI 09/05/97 13:34 Page:360
         3 000144   000000 701000 xent               TSX1    SYS_FUNC_CLOS
         3 000145   000000 011000                    NOP     0

     2009     1980    1       RETURN;

   1980  3 000146   000000 702200 xent               TSX2  ! X66_ARET

     2010     1981
     2011     1982    1   ALT_REPT:
     2012     1983    1       ALTRETURN;

   1983  3 000147   000000 702200 xent  ALT_REPT     TSX2  ! X66_AALT

     2013     1984        /*
     2014     1985              FILL IN PA POINTER INFORMATION IN THE POINTER SLOT
     2015     1986        */
     2016     1987    1   FILL_PAINFO: PROC(PAPTR);

   1987  3 000150   200006 741300       FILL_PAINFO  STX1  ! 6,,AUTO

     2017     1988
     2018     1989    2   DCL 1 PAPTR,
     2019     1990    2         2 ENT UBIN HALF UNAL,
     2020     1991    2         2 GRP UBIN HALF UNAL;
     2021     1992    2   DCL V1 SBIN STATIC ALIGNED;
     2022     1993    2   DCL CV1 CHAR(V1) BASED CALIGNED;
     2023     1994
     2024     1995    2       CALL BINCHAR(PA_ENTRY,PAPTR.ENT);

   1995  3 000151   200007 470500                    LDP0    @PAPTR,,AUTO
         3 000152   003100 061500                    CSR     bolr='003'O
         3 000153   000000 000022                    BDSC    0,,PR0                   by=0,bit=0,n=18
         3 000154   200016 000044                    BDSC    @KEY+2,,AUTO             by=0,bit=0,n=36
         3 000155   200016 236100                    LDQ     @KEY+2,,AUTO
         3 000156   000000 235003                    LDA     0,DU
         3 000157   200020 757100                    STAQ    @KEY+4,,AUTO
         3 000160   000000 301500                    BTD
PL6.E3A0      #005=ZIU$RPTVAL File=ZIU$VALSET.:ZIC0TSI                           FRI 09/05/97 13:34 Page:361
         3 000161   200020 000010                    NDSC9   @KEY+4,,AUTO             cn=0,s=lsgnf,sf=0,n=8
         3 000162   000002 030003 0                  NDSC9   PA_ENTRY                 cn=0,s=nosgn,sf=0,n=3

     2025     1996    2       CALL ZERO_SUP(PA_ENTRY,3,'1'B); /* CONVERT ENTRY NUMBER TO TEXT */

   1996  3 000163   000012 630400 4                  EPPR0   10
         3 000164   000001 631400 4                  EPPR1   1
         3 000165   000000 701000 xent               TSX1    ZERO_SUP
         3 000166   000000 011000                    NOP     0

     2026     1997    2       IF PAPTR.GRP=0 THEN /* NO PA GROUP PROSENTS */

   1997  3 000167   200007 470500                    LDP0    @PAPTR,,AUTO
         3 000170   003100 061500                    CSR     bolr='003'O
         3 000171   000000 400022                    BDSC    0,,PR0                   by=2,bit=0,n=18
         3 000172   200016 000044                    BDSC    @KEY+2,,AUTO             by=0,bit=0,n=36
         3 000173   200016 236100                    LDQ     @KEY+2,,AUTO
         3 000174   000000 116003                    CMPQ    0,DU
         3 000175   000204 601000 3                  TNZ     s:2001

     2027     1998    2           CALL CONCAT(PA_INFO,'.',PA_ENTRY);

   1998  3 000176   056000 236003                    LDQ     23552,DU
         3 000177   000004 756000 0                  STQ     PA_INFO
         3 000200   040000 100400                    MLR     fill='040'O
         3 000201   000002 000003 0                  ADSC9   PA_ENTRY                 cn=0,n=3
         3 000202   000004 200006 0                  ADSC9   PA_INFO                  cn=1,n=6
         3 000203   000252 710000 3                  TRA     s:2006

     2028     1999    2       ELSE
     2029     2000    3       DO; /* PA_GROUP PRESENTS, TYPE AS   .ENTNO.GRPNO */

     2030     2001    3           CALL INDEX1(V1,' ',PA_ENTRY); /* GET LENGTHC ENTRYNO */

   2001  3 000204   000000 124400                    SCM     mask='000'O
         3 000205   000002 000003 0                  ADSC9   PA_ENTRY                 cn=0,n=3
         3 000206   000015 000001 4                  ADSC9   13                       cn=0,n=1
PL6.E3A0      #005=ZIU$RPTVAL File=ZIU$VALSET.:ZIC0TSI                           FRI 09/05/97 13:34 Page:362
         3 000207   000377 000000 0                  ARG     V1

     2031     2002    3           CALL BINCHAR(PA_GROUP,PAPTR.GRP);

   2002  3 000210   003100 061500                    CSR     bolr='003'O
         3 000211   000000 400022                    BDSC    0,,PR0                   by=2,bit=0,n=18
         3 000212   200016 000044                    BDSC    @KEY+2,,AUTO             by=0,bit=0,n=36
         3 000213   200016 236100                    LDQ     @KEY+2,,AUTO
         3 000214   000000 235003                    LDA     0,DU
         3 000215   200020 757100                    STAQ    @KEY+4,,AUTO
         3 000216   000000 301500                    BTD
         3 000217   200020 000010                    NDSC9   @KEY+4,,AUTO             cn=0,s=lsgnf,sf=0,n=8
         3 000220   000003 030003 0                  NDSC9   PA_GROUP                 cn=0,s=nosgn,sf=0,n=3

     2032     2003    3           CALL ZERO_SUP(PA_GROUP,3,'1'B);

   2003  3 000221   000016 630400 4                  EPPR0   14
         3 000222   000001 631400 4                  EPPR1   1
         3 000223   000000 701000 xent               TSX1    ZERO_SUP
         3 000224   000000 011000                    NOP     0

     2033     2004    3           CALL CONCAT(PA_INFO,'.',ADDR(PA_ENTRY)->CV1,'.',PA_GROUP);

   2004  3 000225   056000 236003                    LDQ     23552,DU
         3 000226   000004 756000 0                  STQ     PA_INFO
         3 000227   000377 720000 0                  LXL0    V1
         3 000230   040000 100440                    MLR     fill='040'O
         3 000231   000002 000010 0                  ADSC9   PA_ENTRY                 cn=0,n=*X0
         3 000232   000004 200006 0                  ADSC9   PA_INFO                  cn=1,n=6
         3 000233   000377 236000 0                  LDQ     V1
         3 000234   000006 116007                    CMPQ    6,DL
         3 000235   000252 605000 3                  TPL     s:2006
         3 000236   777771 621006                    EAX1    -7,QL
         3 000237   777777 661003                    ERX1    -1,DU
         3 000240   040046 100400                    MLR     fill='040'O
         3 000241   000021 000001 4                  ADSC9   17                       cn=0,n=1
         3 000242   000004 200011 0                  ADSC9   PA_INFO,Q                cn=1,n=*X1
PL6.E3A0      #005=ZIU$RPTVAL File=ZIU$VALSET.:ZIC0TSI                           FRI 09/05/97 13:34 Page:363
         3 000243   000005 116007                    CMPQ    5,DL
         3 000244   000252 605000 3                  TPL     s:2006
         3 000245   777772 622006                    EAX2    -6,QL
         3 000246   777777 662003                    ERX2    -1,DU
         3 000247   040046 100400                    MLR     fill='040'O
         3 000250   000003 000003 0                  ADSC9   PA_GROUP                 cn=0,n=3
         3 000251   000004 400012 0                  ADSC9   PA_INFO,Q                cn=2,n=*X2

     2034     2005    3           END;

     2035     2006    2   END FILL_PAINFO;

   2006  3 000252   200006 221300                    LDX1  ! 6,,AUTO
         3 000253   000001 702211                    TSX2  ! 1,X1

     2036     2007        %EJECT;
PL6.E3A0      #005=ZIU$RPTVAL File=ZIU$VALSET.:ZIC0TSI                           FRI 09/05/97 13:34 Page:364
     2037     2008        /*
     2038     2009                    ERRFILE HANDLING ROUTINES
     2039     2010        */
     2040     2011    1   OPEN_ERRFILE: PROC ALTRET;

   2011  3 000254   200004 741300       OPEN_ERRFILE STX1  ! 4,,AUTO

     2041     2012
     2042     2013    2   /**/ DCBNMSF = VECTOR(ERRFILE.N);

   2013  3 000255   000022 237000 4                  LDAQ    18
         3 000256   000000 755000 xsym               STA     DCBNMSF
         3 000257   000001 756000 xsym               STQ     DCBNMSF+1

     2043     2014    2       CALL SYS_FUNC_GETDCB ALTRET(ALT);

   2014  3 000260   000000 631400 4                  EPPR1   0
         3 000261   000000 701000 xent               TSX1    SYS_FUNC_GETDCB
         3 000262   000303 702000 3                  TSX2    ALT

     2044     2015    2       ERRFILE.DCB# = DCBSF;

   2015  3 000263   000000 236000 xsym               LDQ     DCBSF
         3 000264   000011 772000                    QRL     9
         3 000265   000001 552030 xsym               STBQ    ERRFILE+1,'30'O

     2045     2016
     2046     2017    2       ORGSF = %CONSEC#;

   2017  3 000266   000001 235007                    LDA     1,DL
         3 000267   000000 755000 xsym               STA     ORGSF

     2047     2018    2       ACSSF = %SEQUEN#;

   2018  3 000270   000000 755000 xsym               STA     ACSSF

     2048     2019    2       FUNSF = %IN#;
PL6.E3A0      #005=ZIU$RPTVAL File=ZIU$VALSET.:ZIC0TSI                           FRI 09/05/97 13:34 Page:365

   2019  3 000271   000002 236007                    LDQ     2,DL
         3 000272   000000 756000 xsym               STQ     FUNSF

     2049     2020    2       FIDSF = '*ERRFILE';

   2020  3 000273   040000 100400                    MLR     fill='040'O
         3 000274   000000 000010 2                  ADSC9   0                        cn=0,n=8
         3 000275   000000 000036 xsym               ADSC9   FIDSF_RD                 cn=0,n=30

     2050     2021    2       CALL SYS_FUNC_OPEN ALTRET(ALT);

   2021  3 000276   000000 631400 4                  EPPR1   0
         3 000277   000000 701000 xent               TSX1    SYS_FUNC_OPEN
         3 000300   000303 702000 3                  TSX2    ALT

     2051     2022    2       RETURN;

   2022  3 000301   200004 221300                    LDX1  ! 4,,AUTO
         3 000302   000001 702211                    TSX2  ! 1,X1

     2052     2023    2   ALT:
     2053     2024    2       ALTRETURN;

   2024  3 000303   200004 221300       ALT          LDX1  ! 4,,AUTO
         3 000304   000000 702211                    TSX2  ! 0,X1

     2054     2025    2   END OPEN_ERRFILE;
     2055     2026
     2056     2027    1   READ_ERRFILE: PROC ALTRET;

   2027  3 000305   200006 741300       READ_ERRFILE STX1  ! 6,,AUTO

     2057     2028
     2058     2029    2       ERROR_BUF = ' ';

   2029  3 000306   040000 100400                    MLR     fill='040'O
PL6.E3A0      #005=ZIU$RPTVAL File=ZIU$VALSET.:ZIC0TSI                           FRI 09/05/97 13:34 Page:366
         3 000307   000015 000001 4                  ADSC9   13                       cn=0,n=1
         3 000310   000000 000036 xsym               ADSC9   ERROR_BUF                cn=0,n=30

     2059     2030    2   /**/ DCBSF = ERRFILE.DCB#;

   2030  3 000311   000001 236000 xsym               LDQ     ERRFILE+1
         3 000312   000011 772000                    QRL     9
         3 000313   777777 376007                    ANQ     -1,DL
         3 000314   000000 620006                    EAX0    0,QL
         3 000315   000000 740000 xsym               STX0    DCBSF

     2060     2031    2       BUFSF = VECTOR(ERROR_BUF);

   2031  3 000316   000024 237000 4                  LDAQ    20
         3 000317   000000 755000 xsym               STA     BUFSF
         3 000320   000001 756000 xsym               STQ     BUFSF+1

     2061     2032    2       BUFLNSF = 31;

   2032  3 000321   000037 235007                    LDA     31,DL
         3 000322   000000 755000 xsym               STA     BUFLNSF

     2062     2033    2       KEYSF = %NO#;

   2033  3 000323   000000 450000 xsym               STZ     KEYSF

     2063     2034    2       CALL SYS_FUNC_READ ALTRET(ALTRD);

   2034  3 000324   000000 631400 4                  EPPR1   0
         3 000325   000000 701000 xent               TSX1    SYS_FUNC_READ
         3 000326   000335 702000 3                  TSX2    ALTRD

     2064     2035    2       ERRCODE = GRBGNXT.CODE; /* Code is the 7th Byte in buf */

   2035  3 000327   000000 470400 xsym               LDP0    ERRBUF$
         3 000330   000002 236100                    LDQ     2,,PR0
         3 000331   000033 772000                    QRL     27
PL6.E3A0      #005=ZIU$RPTVAL File=ZIU$VALSET.:ZIC0TSI                           FRI 09/05/97 13:34 Page:367
         3 000332   000000 756000 0                  STQ     ERRCODE

     2065     2036
     2066     2037    2       RETURN;

   2037  3 000333   200006 221300                    LDX1  ! 6,,AUTO
         3 000334   000001 702211                    TSX2  ! 1,X1

     2067     2038    2   ALTRD:
     2068     2039    2       ALTRETURN;

   2039  3 000335   200006 221300       ALTRD        LDX1  ! 6,,AUTO
         3 000336   000000 702211                    TSX2  ! 0,X1

     2069     2040    2   END READ_ERRFILE;
     2070     2041        %EJECT;
PL6.E3A0      #005=ZIU$RPTVAL File=ZIU$VALSET.:ZIC0TSI                           FRI 09/05/97 13:34 Page:368
     2071     2042        /*
     2072     2043                    WRITE OUT HEADER FOR REPORT
     2073     2044        */
     2074     2045    1   WRITE_HEADER: PROC ALTRET;

   2045  3 000337   200004 741300       WRITE_HEADER STX1  ! 4,,AUTO

     2075     2046
     2076     2047    2   /**/ DCBSF = DCBNUM(M$LO);

   2047  3 000340   000000 236007 xsym               LDQ     M$LO,DL
         3 000341   000000 620006                    EAX0    0,QL
         3 000342   000000 740000 xsym               STX0    DCBSF

     2077     2048    2       VFCSF = %YES#;

   2048  3 000343   400000 236003                    LDQ     -131072,DU
         3 000344   000000 756000 xsym               STQ     VFCSF

     2078     2049    2       BUFLNSF = 30;

   2049  3 000345   000036 235007                    LDA     30,DL
         3 000346   000000 755000 xsym               STA     BUFLNSF

     2079     2050    2       BUFSF = VECTOR(VALHDR);

   2050  3 000347   000026 237000 4                  LDAQ    22
         3 000350   000000 755000 xsym               STA     BUFSF
         3 000351   000001 756000 xsym               STQ     BUFSF+1

     2080     2051
     2081     2052    2       IF NO_ERRORS = 0 AND ZI$DIR.REPRT_ERRS = %NO# THEN

   2052  3 000352   000000 235000 xsym               LDA     NO_ERRORS
         3 000353   000367 601000 3                  TNZ     s:2059
         3 000354   000125 236000 xsym               LDQ     ZI$DIR+85
         3 000355   000040 316007                    CANQ    32,DL
PL6.E3A0      #005=ZIU$RPTVAL File=ZIU$VALSET.:ZIC0TSI                           FRI 09/05/97 13:34 Page:369
         3 000356   000367 601000 3                  TNZ     s:2059

     2082     2053    3       DO;

     2083     2054    3           VALHDR.REPT = '   No  Validation  Errors';

   2054  3 000357   040000 100400                    MLR     fill='040'O
         3 000360   000002 000031 2                  ADSC9   2                        cn=0,n=25
         3 000361   000006 200035 0                  ADSC9   VALHDR                   cn=1,n=29

     2084     2055    3           CALL SYS_FUNC_WRIT ALTRET(ALTWRT);

   2055  3 000362   000000 631400 4                  EPPR1   0
         3 000363   000000 701000 xent               TSX1    SYS_FUNC_WRIT
         3 000364   000412 702000 3                  TSX2    ALTWRT

     2085     2056    3           ALTRETURN;

   2056  3 000365   200004 221300                    LDX1  ! 4,,AUTO
         3 000366   000000 702211                    TSX2  ! 0,X1

     2086     2057    3           END;
     2087     2058
     2088     2059    2       CALL SYS_FUNC_WRIT ALTRET(ALTWRT);

   2059  3 000367   000000 631400 4                  EPPR1   0
         3 000370   000000 701000 xent               TSX1    SYS_FUNC_WRIT
         3 000371   000412 702000 3                  TSX2    ALTWRT

     2089     2060
     2090     2061    2       BUFSF = VECTOR(HDR);

   2061  3 000372   000030 237000 4                  LDAQ    24
         3 000373   000000 755000 xsym               STA     BUFSF
         3 000374   000001 756000 xsym               STQ     BUFSF+1

     2091     2062    2       BUFLNSF = 81;
PL6.E3A0      #005=ZIU$RPTVAL File=ZIU$VALSET.:ZIC0TSI                           FRI 09/05/97 13:34 Page:370

   2062  3 000375   000121 235007                    LDA     81,DL
         3 000376   000000 755000 xsym               STA     BUFLNSF

     2092     2063    2       CALL SYS_FUNC_WRIT;

   2063  3 000377   000000 631400 4                  EPPR1   0
         3 000400   000000 701000 xent               TSX1    SYS_FUNC_WRIT
         3 000401   000000 011000                    NOP     0

     2093     2064
     2094     2065    2       BUFSF = VECTOR(UNDR);

   2065  3 000402   000032 237000 4                  LDAQ    26
         3 000403   000000 755000 xsym               STA     BUFSF
         3 000404   000001 756000 xsym               STQ     BUFSF+1

     2095     2066    2       CALL SYS_FUNC_WRIT;

   2066  3 000405   000000 631400 4                  EPPR1   0
         3 000406   000000 701000 xent               TSX1    SYS_FUNC_WRIT
         3 000407   000000 011000                    NOP     0

     2096     2067
     2097     2068    2       RETURN;

   2068  3 000410   200004 221300                    LDX1  ! 4,,AUTO
         3 000411   000001 702211                    TSX2  ! 1,X1

     2098     2069
     2099     2070    2   ALTWRT:
     2100     2071    2       ALTRETURN;

   2071  3 000412   200004 221300       ALTWRT       LDX1  ! 4,,AUTO
         3 000413   000000 702211                    TSX2  ! 0,X1

     2101     2072    2   END WRITE_HEADER;
PL6.E3A0      #005=ZIU$RPTVAL File=ZIU$VALSET.:ZIC0TSI                           FRI 09/05/97 13:34 Page:371
     2102     2073        %EJECT;
PL6.E3A0      #005=ZIU$RPTVAL File=ZIU$VALSET.:ZIC0TSI                           FRI 09/05/97 13:34 Page:372
     2103     2074    1   REPT_MULT: PROC ALTRET;

   2074  3 000414   200004 741300       REPT_MULT    STX1  ! 4,,AUTO

     2104     2075
     2105     2076    2       DCBSF = DCBNUM(M$LO);

   2076  3 000415   000000 236007 xsym               LDQ     M$LO,DL
         3 000416   000000 620006                    EAX0    0,QL
         3 000417   000000 740000 xsym               STX0    DCBSF

     2106     2077    2       PTSVCNT = MULTNXT.PTCNT;

   2077  3 000420   000000 470400 xsym               LDP0    ERRBUF$
         3 000421   000003 236100                    LDQ     3,,PR0
         3 000422   000011 736000                    QLS     9
         3 000423   000033 732000                    QRS     27
         3 000424   000000 756000 xsym               STQ     PTSVCNT

     2107     2078    3       DO I = 0 TO PTSVCNT;

   2078  3 000425   000000 450000 xsym               STZ     I
         3 000426   000541 710000 3                  TRA     s:2103+1

     2108     2079
     2109     2080    3           CALL BINCHAR(ERR.DBK,MULTNXT.BADDBK);

   2080  3 000427   000000 470400 xsym               LDP0    ERRBUF$
         3 000430   000002 235100                    LDA     2,,PR0
         3 000431   000003 236100                    LDQ     3,,PR0
         3 000432   000033 773000                    LRL     27
         3 000433   000000 235003                    LDA     0,DU
         3 000434   200016 757100                    STAQ    @KEY+2,,AUTO
         3 000435   000000 301500                    BTD
         3 000436   200016 000010                    NDSC9   @KEY+2,,AUTO             cn=0,s=lsgnf,sf=0,n=8
         3 000437   000070 230014 0                  NDSC9   ERR                      cn=1,s=nosgn,sf=0,n=12

PL6.E3A0      #005=ZIU$RPTVAL File=ZIU$VALSET.:ZIC0TSI                           FRI 09/05/97 13:34 Page:373
     2110     2081    3           CALL ZERO_SUP(ERR.DBK,12,'1'B);

   2081  3 000440   000004 630400 4                  EPPR0   4
         3 000441   000001 631400 4                  EPPR1   1
         3 000442   000000 701000 xent               TSX1    ZERO_SUP
         3 000443   000000 011000                    NOP     0

     2111     2082    3           CALL FILL_RECNAME(ERR.RECNME,MULTNXT.RECTYP);

   2082  3 000444   000000 236000 xsym               LDQ     ERRBUF$
         3 000445   000007 036000 4                  ADLQ    7
         3 000446   200014 756100                    STQ     @BUF+1,,AUTO
         3 000447   000010 236000 4                  LDQ     8
         3 000450   200013 756100                    STQ     @KEY+2,,AUTO
         3 000451   001302 701000 3                  TSX1    FILL_RECNAME
         3 000452   000000 011000                    NOP     0

     2112     2083    3           ERR.SETNME = MSTR_REF.NAME(MULTNXT.SETYP-5000+NO_RECS);

   2083  3 000453   000000 470400 xsym               LDP0    ERRBUF$
         3 000454   000000 236100                    LDQ     0,,PR0
         3 000455   000022 732000                    QRS     18
         3 000456   000000 036000 xsym               ADLQ    NO_RECS
         3 000457   000050 402007                    MPY     40,DL
         3 000460   000000 471400 xsym               LDP1    MSTR$
         3 000461   600000 136007                    SBLQ    -65536,DL
         3 000462   040000 100506                    MLR     fill='040'O
         3 000463   176261 400036                    ADSC9   -847,Q,PR1               cn=2,n=30
         3 000464   000104 600036 0                  ADSC9   ERR+12                   cn=3,n=30

     2113     2084    3           IF PAPTRS = %YES# THEN

   2084  3 000465   000001 234000 0                  SZN     PAPTRS
         3 000466   000515 605000 3                  TPL     s:2095

     2114     2085    4           DO; /*  GET PA INFO */

PL6.E3A0      #005=ZIU$RPTVAL File=ZIU$VALSET.:ZIC0TSI                           FRI 09/05/97 13:34 Page:374
     2115     2086    4               CALL FILL_PAINFO(MULTNXT.OWNER);

   2086  3 000467   000000 236000 xsym               LDQ     ERRBUF$
         3 000470   000034 036000 4                  ADLQ    28
         3 000471   200007 756100                    STQ     @PAPTR,,AUTO
         3 000472   000150 701000 3                  TSX1    FILL_PAINFO
         3 000473   000000 011000                    NOP     0

     2116     2087    4               IF MULTNXT.RECTYP < 0 THEN

   2087  3 000474   000000 470400 xsym               LDP0    ERRBUF$
         3 000475   000001 720100                    LXL0    1,,PR0
         3 000476   000511 605000 3                  TPL     s:2092

     2117     2088    5               DO;

     2118     2089    5                   MULTNXT.RECTYP = MULTNXT.RECTYP * -1;

   2089  3 000477   777777 620010                    EAX0    -1,X0
         3 000500   777777 660003                    ERX0    -1,DU
         3 000501   000001 440100                    SXL0    1,,PR0

     2119     2090    5                   CALL FILL_RECNAME(ERR.RECNME,MULTNXT.RECTYP);

   2090  3 000502   000000 236000 xsym               LDQ     ERRBUF$
         3 000503   000007 036000 4                  ADLQ    7
         3 000504   200014 756100                    STQ     @BUF+1,,AUTO
         3 000505   000010 236000 4                  LDQ     8
         3 000506   200013 756100                    STQ     @KEY+2,,AUTO
         3 000507   001302 701000 3                  TSX1    FILL_RECNAME
         3 000510   000000 011000                    NOP     0

     2120     2091    5                   END;

     2121     2092    4               ERR.PNTR = PA_INFO;

   2092  3 000511   040000 100400                    MLR     fill='040'O
PL6.E3A0      #005=ZIU$RPTVAL File=ZIU$VALSET.:ZIC0TSI                           FRI 09/05/97 13:34 Page:375
         3 000512   000004 000007 0                  ADSC9   PA_INFO                  cn=0,n=7
         3 000513   000073 200010 0                  ADSC9   ERR+3                    cn=1,n=8

     2122     2093    4               END;

   2093  3 000514   000520 710000 3                  TRA     s:2097

     2123     2094    3           ELSE
     2124     2095    3               ERR.PNTR = 'NEXT';

   2095  3 000515   040000 100400                    MLR     fill='040'O
         3 000516   000011 000004 2                  ADSC9   9                        cn=0,n=4
         3 000517   000073 200010 0                  ADSC9   ERR+3                    cn=1,n=8

     2125     2096
     2126     2097    3           BUFSF = VECTOR(ERR);

   2097  3 000520   000036 237000 4                  LDAQ    30
         3 000521   000000 755000 xsym               STA     BUFSF
         3 000522   000001 756000 xsym               STQ     BUFSF+1

     2127     2098    3           BUFLNSF = 81;

   2098  3 000523   000121 235007                    LDA     81,DL
         3 000524   000000 755000 xsym               STA     BUFLNSF

     2128     2099    3           CALL SYS_FUNC_WRIT ALTRET(LSTREC);

   2099  3 000525   000000 631400 4                  EPPR1   0
         3 000526   000000 701000 xent               TSX1    SYS_FUNC_WRIT
         3 000527   000570 702000 3                  TSX2    LSTREC

     2129     2100    3           IF I < PTSVCNT THEN /* Dont read next error yet */

   2100  3 000530   000000 236000 xsym               LDQ     I
         3 000531   000000 116000 xsym               CMPQ    PTSVCNT
         3 000532   000535 605000 3                  TPL     s:2102
PL6.E3A0      #005=ZIU$RPTVAL File=ZIU$VALSET.:ZIC0TSI                           FRI 09/05/97 13:34 Page:376

     2130     2101    3               CALL READ_ERRFILE ALTRET(LASTREC);

   2101  3 000533   000305 701000 3                  TSX1    READ_ERRFILE
         3 000534   000544 702000 3                  TSX2    LASTREC

     2131     2102    3           DCBSF = DCBNUM(M$LO);

   2102  3 000535   000000 236007 xsym               LDQ     M$LO,DL
         3 000536   000000 620006                    EAX0    0,QL
         3 000537   000000 740000 xsym               STX0    DCBSF

     2132     2103    3           END;

   2103  3 000540   000000 054000 xsym               AOS     I
         3 000541   000000 236000 xsym               LDQ     I
         3 000542   000000 116000 xsym               CMPQ    PTSVCNT
         3 000543   000427 604400 3                  TMOZ    s:2080

     2133     2104    2   LASTREC:
     2134     2105    2       CALL FILL_VAL(ERRMULT.VAL,MULTNXT.BADNXT);

   2105  3 000544   000000 236000 xsym  LASTREC      LDQ     ERRBUF$
         3 000545   400000 036007                    ADLQ    -131072,DL
         3 000546   200014 756100                    STQ     @BUF+1,,AUTO
         3 000547   000035 236000 4                  LDQ     29
         3 000550   200013 756100                    STQ     @KEY+2,,AUTO
         3 000551   001346 701000 3                  TSX1    FILL_VAL
         3 000552   000000 011000                    NOP     0

     2135     2106    2       DCBSF = DCBNUM(M$LO);

   2106  3 000553   000000 236007 xsym               LDQ     M$LO,DL
         3 000554   000000 620006                    EAX0    0,QL
         3 000555   000000 740000 xsym               STX0    DCBSF

     2136     2107    2       BUFSF = VECTOR(ERRMULT);
PL6.E3A0      #005=ZIU$RPTVAL File=ZIU$VALSET.:ZIC0TSI                           FRI 09/05/97 13:34 Page:377

   2107  3 000556   000040 237000 4                  LDAQ    32
         3 000557   000000 755000 xsym               STA     BUFSF
         3 000560   000001 756000 xsym               STQ     BUFSF+1

     2137     2108    2       BUFLNSF = 70;

   2108  3 000561   000106 235007                    LDA     70,DL
         3 000562   000000 755000 xsym               STA     BUFLNSF

     2138     2109    2       CALL SYS_FUNC_WRIT;

   2109  3 000563   000000 631400 4                  EPPR1   0
         3 000564   000000 701000 xent               TSX1    SYS_FUNC_WRIT
         3 000565   000000 011000                    NOP     0

     2139     2110
     2140     2111    2       RETURN;

   2111  3 000566   200004 221300                    LDX1  ! 4,,AUTO
         3 000567   000001 702211                    TSX2  ! 1,X1

     2141     2112    2   LSTREC:
     2142     2113    2       CALL FILL_VAL(ERRMULT.VAL,MULTNXT.BADDBK);

   2113  3 000570   000000 236000 xsym  LSTREC       LDQ     ERRBUF$
         3 000571   000042 036000 4                  ADLQ    34
         3 000572   200014 756100                    STQ     @BUF+1,,AUTO
         3 000573   000035 236000 4                  LDQ     29
         3 000574   200013 756100                    STQ     @KEY+2,,AUTO
         3 000575   001346 701000 3                  TSX1    FILL_VAL
         3 000576   000000 011000                    NOP     0

     2143     2114    2       DCBSF = DCBNUM(M$LO);

   2114  3 000577   000000 236007 xsym               LDQ     M$LO,DL
         3 000600   000000 620006                    EAX0    0,QL
PL6.E3A0      #005=ZIU$RPTVAL File=ZIU$VALSET.:ZIC0TSI                           FRI 09/05/97 13:34 Page:378
         3 000601   000000 740000 xsym               STX0    DCBSF

     2144     2115    2       BUFSF = VECTOR(ERRMULT);

   2115  3 000602   000040 237000 4                  LDAQ    32
         3 000603   000000 755000 xsym               STA     BUFSF
         3 000604   000001 756000 xsym               STQ     BUFSF+1

     2145     2116    2       BUFLNSF = 70;

   2116  3 000605   000106 235007                    LDA     70,DL
         3 000606   000000 755000 xsym               STA     BUFLNSF

     2146     2117    2       CALL SYS_FUNC_WRIT;

   2117  3 000607   000000 631400 4                  EPPR1   0
         3 000610   000000 701000 xent               TSX1    SYS_FUNC_WRIT
         3 000611   000000 011000                    NOP     0

     2147     2118
     2148     2119    2       ALTRETURN;

   2119  3 000612   200004 221300                    LDX1  ! 4,,AUTO
         3 000613   000000 702211                    TSX2  ! 0,X1

     2149     2120    2   END REPT_MULT;
     2150     2121        %EJECT;
PL6.E3A0      #005=ZIU$RPTVAL File=ZIU$VALSET.:ZIC0TSI                           FRI 09/05/97 13:34 Page:379
     2151     2122    1   REPT_MISG: PROC;

   2122  3 000614   200004 741300       REPT_MISG    STX1  ! 4,,AUTO

     2152     2123
     2153     2124    2       ERR.PNTR = '****';

   2124  3 000615   040000 100400                    MLR     fill='040'O
         3 000616   000012 000004 2                  ADSC9   10                       cn=0,n=4
         3 000617   000073 200010 0                  ADSC9   ERR+3                    cn=1,n=8

     2154     2125
     2155     2126    2       DCBSF = DCBNUM(M$LO);

   2126  3 000620   000000 236007 xsym               LDQ     M$LO,DL
         3 000621   000000 620006                    EAX0    0,QL
         3 000622   000000 740000 xsym               STX0    DCBSF

     2156     2127    2       BUFSF = VECTOR(ERR);

   2127  3 000623   000036 237000 4                  LDAQ    30
         3 000624   000000 755000 xsym               STA     BUFSF
         3 000625   000001 756000 xsym               STQ     BUFSF+1

     2157     2128    2       BUFLNSF = 81;

   2128  3 000626   000121 235007                    LDA     81,DL
         3 000627   000000 755000 xsym               STA     BUFLNSF

     2158     2129    2       CALL SYS_FUNC_WRIT;

   2129  3 000630   000000 631400 4                  EPPR1   0
         3 000631   000000 701000 xent               TSX1    SYS_FUNC_WRIT
         3 000632   000000 011000                    NOP     0

     2159     2130
     2160     2131    2       BUFSF = VECTOR(ERRMISG);
PL6.E3A0      #005=ZIU$RPTVAL File=ZIU$VALSET.:ZIC0TSI                           FRI 09/05/97 13:34 Page:380

   2131  3 000633   000044 237000 4                  LDAQ    36
         3 000634   000000 755000 xsym               STA     BUFSF
         3 000635   000001 756000 xsym               STQ     BUFSF+1

     2161     2132    2       BUFLNSF = 63;

   2132  3 000636   000077 235007                    LDA     63,DL
         3 000637   000000 755000 xsym               STA     BUFLNSF

     2162     2133    2       CALL SYS_FUNC_WRIT;

   2133  3 000640   000000 631400 4                  EPPR1   0
         3 000641   000000 701000 xent               TSX1    SYS_FUNC_WRIT
         3 000642   000000 011000                    NOP     0

     2163     2134
     2164     2135    2       CALL BINCHAR(ERRMISG2.VAL,MISGNXT.PRI_VAL);

   2135  3 000643   000000 470400 xsym               LDP0    ERRBUF$
         3 000644   000002 235100                    LDA     2,,PR0
         3 000645   000003 236100                    LDQ     3,,PR0
         3 000646   000033 773000                    LRL     27
         3 000647   000000 235003                    LDA     0,DU
         3 000650   200016 757100                    STAQ    @KEY+2,,AUTO
         3 000651   000000 301500                    BTD
         3 000652   200016 000010                    NDSC9   @KEY+2,,AUTO             cn=0,s=lsgnf,sf=0,n=8
         3 000653   000263 630014 0                  NDSC9   ERRMISG2+11              cn=3,s=nosgn,sf=0,n=12

     2165     2136    2       CALL ZERO_SUP(ERRMISG2.VAL,12,'1'B);

   2136  3 000654   000046 630400 4                  EPPR0   38
         3 000655   000001 631400 4                  EPPR1   1
         3 000656   000000 701000 xent               TSX1    ZERO_SUP
         3 000657   000000 011000                    NOP     0

     2166     2137
PL6.E3A0      #005=ZIU$RPTVAL File=ZIU$VALSET.:ZIC0TSI                           FRI 09/05/97 13:34 Page:381
     2167     2138    2       BUFSF = VECTOR(ERRMISG2);

   2138  3 000660   000052 237000 4                  LDAQ    42
         3 000661   000000 755000 xsym               STA     BUFSF
         3 000662   000001 756000 xsym               STQ     BUFSF+1

     2168     2139    2       BUFLNSF = 59;

   2139  3 000663   000073 235007                    LDA     59,DL
         3 000664   000000 755000 xsym               STA     BUFLNSF

     2169     2140    2       CALL SYS_FUNC_WRIT;

   2140  3 000665   000000 631400 4                  EPPR1   0
         3 000666   000000 701000 xent               TSX1    SYS_FUNC_WRIT
         3 000667   000000 011000                    NOP     0

     2170     2141
     2171     2142    2       RETURN;

   2142  3 000670   200004 221300                    LDX1  ! 4,,AUTO
         3 000671   000001 702211                    TSX2  ! 1,X1

     2172     2143    2   END REPT_MISG;
     2173     2144        %EJECT;
PL6.E3A0      #005=ZIU$RPTVAL File=ZIU$VALSET.:ZIC0TSI                           FRI 09/05/97 13:34 Page:382
     2174     2145        /*
     2175     2146                    REPORT PRIOR POINTER DISAGREES WITH THE PT POINTER
     2176     2147        */
     2177     2148    1   REPT_DBK: PROC;

   2148  3 000672   200004 741300       REPT_DBK     STX1  ! 4,,AUTO

     2178     2149
     2179     2150    2       IF PAPTRS = %YES# THEN

   2150  3 000673   000001 234000 0                  SZN     PAPTRS
         3 000674   000706 605000 3                  TPL     s:2156

     2180     2151    3       DO; /*  GET PA INFO */

     2181     2152    3           CALL FILL_PAINFO(DBKPRIOR.OWNER);

   2152  3 000675   000000 236000 xsym               LDQ     ERRBUF$
         3 000676   000043 036000 4                  ADLQ    35
         3 000677   200007 756100                    STQ     @PAPTR,,AUTO
         3 000700   000150 701000 3                  TSX1    FILL_PAINFO
         3 000701   000000 011000                    NOP     0

     2182     2153    3           ERR.PNTR = PA_INFO;

   2153  3 000702   040000 100400                    MLR     fill='040'O
         3 000703   000004 000007 0                  ADSC9   PA_INFO                  cn=0,n=7
         3 000704   000073 200010 0                  ADSC9   ERR+3                    cn=1,n=8

     2183     2154    3           END;

   2154  3 000705   000711 710000 3                  TRA     s:2158

     2184     2155    2       ELSE
     2185     2156    2           ERR.PNTR = 'PRIOR';

   2156  3 000706   040000 100400                    MLR     fill='040'O
PL6.E3A0      #005=ZIU$RPTVAL File=ZIU$VALSET.:ZIC0TSI                           FRI 09/05/97 13:34 Page:383
         3 000707   000013 000005 2                  ADSC9   11                       cn=0,n=5
         3 000710   000073 200010 0                  ADSC9   ERR+3                    cn=1,n=8

     2186     2157
     2187     2158    2       DCBSF = DCBNUM(M$LO);

   2158  3 000711   000000 236007 xsym               LDQ     M$LO,DL
         3 000712   000000 620006                    EAX0    0,QL
         3 000713   000000 740000 xsym               STX0    DCBSF

     2188     2159    2       BUFSF = VECTOR(ERR);

   2159  3 000714   000036 237000 4                  LDAQ    30
         3 000715   000000 755000 xsym               STA     BUFSF
         3 000716   000001 756000 xsym               STQ     BUFSF+1

     2189     2160    2       BUFLNSF = 81;

   2160  3 000717   000121 235007                    LDA     81,DL
         3 000720   000000 755000 xsym               STA     BUFLNSF

     2190     2161    2       CALL SYS_FUNC_WRIT;

   2161  3 000721   000000 631400 4                  EPPR1   0
         3 000722   000000 701000 xent               TSX1    SYS_FUNC_WRIT
         3 000723   000000 011000                    NOP     0

     2191     2162
     2192     2163    2       CALL BINCHAR(BADPRI.VAL,DBKPRIOR.PRI_VAL);

   2163  3 000724   000000 470400 xsym               LDP0    ERRBUF$
         3 000725   000003 235100                    LDA     3,,PR0
         3 000726   000004 236100                    LDQ     4,,PR0
         3 000727   000033 773000                    LRL     27
         3 000730   000000 235003                    LDA     0,DU
         3 000731   200016 757100                    STAQ    @KEY+2,,AUTO
         3 000732   000000 301500                    BTD
PL6.E3A0      #005=ZIU$RPTVAL File=ZIU$VALSET.:ZIC0TSI                           FRI 09/05/97 13:34 Page:384
         3 000733   200016 000010                    NDSC9   @KEY+2,,AUTO             cn=0,s=lsgnf,sf=0,n=8
         3 000734   000306 030014 0                  NDSC9   BADPRI+15                cn=0,s=nosgn,sf=0,n=12

     2193     2164    2       CALL ZERO_SUP(BADPRI.VAL,12,'1'B);

   2164  3 000735   000054 630400 4                  EPPR0   44
         3 000736   000001 631400 4                  EPPR1   1
         3 000737   000000 701000 xent               TSX1    ZERO_SUP
         3 000740   000000 011000                    NOP     0

     2194     2165    2       BUFSF = VECTOR(BADPRI);

   2165  3 000741   000060 237000 4                  LDAQ    48
         3 000742   000000 755000 xsym               STA     BUFSF
         3 000743   000001 756000 xsym               STQ     BUFSF+1

     2195     2166    2       BUFLNSF = 72;

   2166  3 000744   000110 235007                    LDA     72,DL
         3 000745   000000 755000 xsym               STA     BUFLNSF

     2196     2167    2       CALL SYS_FUNC_WRIT;

   2167  3 000746   000000 631400 4                  EPPR1   0
         3 000747   000000 701000 xent               TSX1    SYS_FUNC_WRIT
         3 000750   000000 011000                    NOP     0

     2197     2168
     2198     2169    2       CALL BINCHAR(BADPRI2.VAL,DBKPRIOR.EXP_PRI);

   2169  3 000751   000000 470400 xsym               LDP0    ERRBUF$
         3 000752   000002 235100                    LDA     2,,PR0
         3 000753   000003 236100                    LDQ     3,,PR0
         3 000754   000033 773000                    LRL     27
         3 000755   000000 235003                    LDA     0,DU
         3 000756   200016 757100                    STAQ    @KEY+2,,AUTO
         3 000757   000000 301500                    BTD
PL6.E3A0      #005=ZIU$RPTVAL File=ZIU$VALSET.:ZIC0TSI                           FRI 09/05/97 13:34 Page:385
         3 000760   200016 000010                    NDSC9   @KEY+2,,AUTO             cn=0,s=lsgnf,sf=0,n=8
         3 000761   000326 230014 0                  NDSC9   BADPRI2+13               cn=1,s=nosgn,sf=0,n=12

     2199     2170    2       CALL ZERO_SUP(BADPRI2.VAL,12,'1'B);

   2170  3 000762   000062 630400 4                  EPPR0   50
         3 000763   000001 631400 4                  EPPR1   1
         3 000764   000000 701000 xent               TSX1    ZERO_SUP
         3 000765   000000 011000                    NOP     0

     2200     2171    2       BUFSF = VECTOR(BADPRI2);

   2171  3 000766   000066 237000 4                  LDAQ    54
         3 000767   000000 755000 xsym               STA     BUFSF
         3 000770   000001 756000 xsym               STQ     BUFSF+1

     2201     2172    2       BUFLNSF = 65;

   2172  3 000771   000101 235007                    LDA     65,DL
         3 000772   000000 755000 xsym               STA     BUFLNSF

     2202     2173    2       CALL SYS_FUNC_WRIT;

   2173  3 000773   000000 631400 4                  EPPR1   0
         3 000774   000000 701000 xent               TSX1    SYS_FUNC_WRIT
         3 000775   000000 011000                    NOP     0

     2203     2174
     2204     2175    2       RETURN;

   2175  3 000776   200004 221300                    LDX1  ! 4,,AUTO
         3 000777   000001 702211                    TSX2  ! 1,X1

     2205     2176    2   END REPT_DBK;
     2206     2177        %EJECT;
PL6.E3A0      #005=ZIU$RPTVAL File=ZIU$VALSET.:ZIC0TSI                           FRI 09/05/97 13:34 Page:386
     2207     2178
     2208     2179        /*
     2209     2180           Report inconsistant owner pointers.
     2210     2181        */
     2211     2182    1   REPT_OWN: PROC;

   2182  3 001000   200004 741300       REPT_OWN     STX1  ! 4,,AUTO

     2212     2183
     2213     2184    2       ERR.PNTR = 'OWNER';

   2184  3 001001   040000 100400                    MLR     fill='040'O
         3 001002   000015 000005 2                  ADSC9   13                       cn=0,n=5
         3 001003   000073 200010 0                  ADSC9   ERR+3                    cn=1,n=8

     2214     2185
     2215     2186    2       DCBSF = DCBNUM(M$LO);

   2186  3 001004   000000 236007 xsym               LDQ     M$LO,DL
         3 001005   000000 620006                    EAX0    0,QL
         3 001006   000000 740000 xsym               STX0    DCBSF

     2216     2187    2       BUFSF = VECTOR(ERR);

   2187  3 001007   000036 237000 4                  LDAQ    30
         3 001010   000000 755000 xsym               STA     BUFSF
         3 001011   000001 756000 xsym               STQ     BUFSF+1

     2217     2188    2       BUFLNSF = 81;

   2188  3 001012   000121 235007                    LDA     81,DL
         3 001013   000000 755000 xsym               STA     BUFLNSF

     2218     2189    2       CALL SYS_FUNC_WRIT;

   2189  3 001014   000000 631400 4                  EPPR1   0
         3 001015   000000 701000 xent               TSX1    SYS_FUNC_WRIT
PL6.E3A0      #005=ZIU$RPTVAL File=ZIU$VALSET.:ZIC0TSI                           FRI 09/05/97 13:34 Page:387
         3 001016   000000 011000                    NOP     0

     2219     2190
     2220     2191    2       BUFSF = VECTOR(ERROWN);

   2191  3 001017   000070 237000 4                  LDAQ    56
         3 001020   000000 755000 xsym               STA     BUFSF
         3 001021   000001 756000 xsym               STQ     BUFSF+1

     2221     2192    2       BUFLNSF = 64;

   2192  3 001022   000100 235007                    LDA     64,DL
         3 001023   000000 755000 xsym               STA     BUFLNSF

     2222     2193    2       CALL SYS_FUNC_WRIT;

   2193  3 001024   000000 631400 4                  EPPR1   0
         3 001025   000000 701000 xent               TSX1    SYS_FUNC_WRIT
         3 001026   000000 011000                    NOP     0

     2223     2194
     2224     2195    2       CALL FILL_OWNTEXT(INCNOWN.DBK1,INCNOWN.OWNDBK1);

   2195  3 001027   000000 236000 xsym               LDQ     ERRBUF$
         3 001030   000042 036000 4                  ADLQ    34
         3 001031   200010 756100                    STQ     @KEY1+1,,AUTO
         3 001032   000000 236000 xsym               LDQ     ERRBUF$
         3 001033   400000 036007                    ADLQ    -131072,DL
         3 001034   200007 756100                    STQ     @PAPTR,,AUTO
         3 001035   001474 701000 3                  TSX1    FILL_OWNTEXT
         3 001036   000000 011000                    NOP     0

     2225     2196    2       ERROWN2.VFC = SKIP1;

   2196  3 001037   101000 236003                    LDQ     33280,DU
         3 001040   000352 552040 0                  STBQ    ERROWN2,'40'O

PL6.E3A0      #005=ZIU$RPTVAL File=ZIU$VALSET.:ZIC0TSI                           FRI 09/05/97 13:34 Page:388
     2226     2197    2       BUFSF = VECTOR(ERROWN2);

   2197  3 001041   000072 237000 4                  LDAQ    58
         3 001042   000000 755000 xsym               STA     BUFSF
         3 001043   000001 756000 xsym               STQ     BUFSF+1

     2227     2198    2       BUFLNSF = 83;

   2198  3 001044   000123 235007                    LDA     83,DL
         3 001045   000000 755000 xsym               STA     BUFLNSF

     2228     2199    2       CALL SYS_FUNC_WRIT;

   2199  3 001046   000000 631400 4                  EPPR1   0
         3 001047   000000 701000 xent               TSX1    SYS_FUNC_WRIT
         3 001050   000000 011000                    NOP     0

     2229     2200
     2230     2201    2       ERROWN2.VFC = SKIP2;

   2201  3 001051   102000 236003                    LDQ     33792,DU
         3 001052   000352 552040 0                  STBQ    ERROWN2,'40'O

     2231     2202    2       CALL FILL_OWNTEXT(INCNOWN.DBK2,INCNOWN.OWNDBK2);

   2202  3 001053   000000 236000 xsym               LDQ     ERRBUF$
         3 001054   000074 036000 4                  ADLQ    60
         3 001055   200010 756100                    STQ     @KEY1+1,,AUTO
         3 001056   000000 236000 xsym               LDQ     ERRBUF$
         3 001057   000075 036000 4                  ADLQ    61
         3 001060   200007 756100                    STQ     @PAPTR,,AUTO
         3 001061   001474 701000 3                  TSX1    FILL_OWNTEXT
         3 001062   000000 011000                    NOP     0

     2232     2203    2       CALL SYS_FUNC_WRIT;

   2203  3 001063   000000 631400 4                  EPPR1   0
PL6.E3A0      #005=ZIU$RPTVAL File=ZIU$VALSET.:ZIC0TSI                           FRI 09/05/97 13:34 Page:389
         3 001064   000000 701000 xent               TSX1    SYS_FUNC_WRIT
         3 001065   000000 011000                    NOP     0

     2233     2204
     2234     2205    2       RETURN;

   2205  3 001066   200004 221300                    LDX1  ! 4,,AUTO
         3 001067   000001 702211                    TSX2  ! 1,X1

     2235     2206    2   END REPT_OWN;
     2236     2207        %EJECT;
PL6.E3A0      #005=ZIU$RPTVAL File=ZIU$VALSET.:ZIC0TSI                           FRI 09/05/97 13:34 Page:390
     2237     2208
     2238     2209        /*
     2239     2210                 REPORT A NEXT POINTER WHICH APPEARS TO BE GARBAGE
     2240     2211        */
     2241     2212    1   REPT_GRBG: PROC;

   2212  3 001070   200004 741300       REPT_GRBG    STX1  ! 4,,AUTO

     2242     2213
     2243     2214    2       IF PAPTRS = %YES# THEN

   2214  3 001071   000001 234000 0                  SZN     PAPTRS
         3 001072   001104 605000 3                  TPL     s:2220

     2244     2215    3       DO; /*  GET PA INFO */

     2245     2216    3           CALL FILL_PAINFO(GRBGNXT.OWNER);

   2216  3 001073   000000 236000 xsym               LDQ     ERRBUF$
         3 001074   000076 036000 4                  ADLQ    62
         3 001075   200007 756100                    STQ     @PAPTR,,AUTO
         3 001076   000150 701000 3                  TSX1    FILL_PAINFO
         3 001077   000000 011000                    NOP     0

     2246     2217    3           ERR.PNTR = PA_INFO;

   2217  3 001100   040000 100400                    MLR     fill='040'O
         3 001101   000004 000007 0                  ADSC9   PA_INFO                  cn=0,n=7
         3 001102   000073 200010 0                  ADSC9   ERR+3                    cn=1,n=8

     2247     2218    3           END;

   2218  3 001103   001107 710000 3                  TRA     s:2221

     2248     2219    2       ELSE
     2249     2220    2           ERR.PNTR = 'NEXT';

PL6.E3A0      #005=ZIU$RPTVAL File=ZIU$VALSET.:ZIC0TSI                           FRI 09/05/97 13:34 Page:391
   2220  3 001104   040000 100400                    MLR     fill='040'O
         3 001105   000011 000004 2                  ADSC9   9                        cn=0,n=4
         3 001106   000073 200010 0                  ADSC9   ERR+3                    cn=1,n=8

     2250     2221    2       IF ERRCODE = %GRBGOWN# THEN

   2221  3 001107   000000 235000 0                  LDA     ERRCODE
         3 001110   000011 115007                    CMPA    9,DL
         3 001111   001115 601000 3                  TNZ     s:2223

     2251     2222    2           ERR.PNTR = 'OWNER';

   2222  3 001112   040000 100400                    MLR     fill='040'O
         3 001113   000015 000005 2                  ADSC9   13                       cn=0,n=5
         3 001114   000073 200010 0                  ADSC9   ERR+3                    cn=1,n=8

     2252     2223    2       DCBSF = DCBNUM(M$LO);

   2223  3 001115   000000 236007 xsym               LDQ     M$LO,DL
         3 001116   000000 620006                    EAX0    0,QL
         3 001117   000000 740000 xsym               STX0    DCBSF

     2253     2224    2       BUFSF = VECTOR(ERR);

   2224  3 001120   000036 237000 4                  LDAQ    30
         3 001121   000000 755000 xsym               STA     BUFSF
         3 001122   000001 756000 xsym               STQ     BUFSF+1

     2254     2225    2       BUFLNSF = 81;

   2225  3 001123   000121 235007                    LDA     81,DL
         3 001124   000000 755000 xsym               STA     BUFLNSF

     2255     2226    2       CALL SYS_FUNC_WRIT;

   2226  3 001125   000000 631400 4                  EPPR1   0
         3 001126   000000 701000 xent               TSX1    SYS_FUNC_WRIT
PL6.E3A0      #005=ZIU$RPTVAL File=ZIU$VALSET.:ZIC0TSI                           FRI 09/05/97 13:34 Page:392
         3 001127   000000 011000                    NOP     0

     2256     2227
     2257     2228    2       CALL FILL_VAL(ERRGRBG.VAL,GRBGNXT.NXTVAL);

   2228  3 001130   000000 236000 xsym               LDQ     ERRBUF$
         3 001131   000042 036000 4                  ADLQ    34
         3 001132   200014 756100                    STQ     @BUF+1,,AUTO
         3 001133   000077 236000 4                  LDQ     63
         3 001134   200013 756100                    STQ     @KEY+2,,AUTO
         3 001135   001346 701000 3                  TSX1    FILL_VAL
         3 001136   000000 011000                    NOP     0

     2258     2229    2       BUFSF = VECTOR(ERRGRBG);

   2229  3 001137   000100 237000 4                  LDAQ    64
         3 001140   000000 755000 xsym               STA     BUFSF
         3 001141   000001 756000 xsym               STQ     BUFSF+1

     2259     2230    2       BUFLNSF = 71;

   2230  3 001142   000107 235007                    LDA     71,DL
         3 001143   000000 755000 xsym               STA     BUFLNSF

     2260     2231    2       CALL SYS_FUNC_WRIT;

   2231  3 001144   000000 631400 4                  EPPR1   0
         3 001145   000000 701000 xent               TSX1    SYS_FUNC_WRIT
         3 001146   000000 011000                    NOP     0

     2261     2232
     2262     2233    2       RETURN;

   2233  3 001147   200004 221300                    LDX1  ! 4,,AUTO
         3 001150   000001 702211                    TSX2  ! 1,X1

     2263     2234    2   END REPT_GRBG;
PL6.E3A0      #005=ZIU$RPTVAL File=ZIU$VALSET.:ZIC0TSI                           FRI 09/05/97 13:34 Page:393
     2264     2235         %EJECT;
PL6.E3A0      #005=ZIU$RPTVAL File=ZIU$VALSET.:ZIC0TSI                           FRI 09/05/97 13:34 Page:394
     2265     2236        /*
     2266     2237                 REPORT  DANGLING NEXT POINTER.
     2267     2238        */
     2268     2239    1   REPT_DANG: PROC;

   2239  3 001151   200004 741300       REPT_DANG    STX1  ! 4,,AUTO

     2269     2240
     2270     2241    2       IF PAPTRS = %YES# THEN

   2241  3 001152   000001 234000 0                  SZN     PAPTRS
         3 001153   001165 605000 3                  TPL     s:2247

     2271     2242    3       DO; /*  GET PA INFO */

     2272     2243    3           CALL FILL_PAINFO(DANGNXT.OWNER);

   2243  3 001154   000000 236000 xsym               LDQ     ERRBUF$
         3 001155   000075 036000 4                  ADLQ    61
         3 001156   200007 756100                    STQ     @PAPTR,,AUTO
         3 001157   000150 701000 3                  TSX1    FILL_PAINFO
         3 001160   000000 011000                    NOP     0

     2273     2244    3           ERR.PNTR = PA_INFO;

   2244  3 001161   040000 100400                    MLR     fill='040'O
         3 001162   000004 000007 0                  ADSC9   PA_INFO                  cn=0,n=7
         3 001163   000073 200010 0                  ADSC9   ERR+3                    cn=1,n=8

     2274     2245    3           END;

   2245  3 001164   001170 710000 3                  TRA     s:2248

     2275     2246    2       ELSE
     2276     2247    2           ERR.PNTR = 'NEXT';

   2247  3 001165   040000 100400                    MLR     fill='040'O
PL6.E3A0      #005=ZIU$RPTVAL File=ZIU$VALSET.:ZIC0TSI                           FRI 09/05/97 13:34 Page:395
         3 001166   000011 000004 2                  ADSC9   9                        cn=0,n=4
         3 001167   000073 200010 0                  ADSC9   ERR+3                    cn=1,n=8

     2277     2248    2       DCBSF = DCBNUM(M$LO);

   2248  3 001170   000000 236007 xsym               LDQ     M$LO,DL
         3 001171   000000 620006                    EAX0    0,QL
         3 001172   000000 740000 xsym               STX0    DCBSF

     2278     2249    2       BUFSF = VECTOR(ERR);

   2249  3 001173   000036 237000 4                  LDAQ    30
         3 001174   000000 755000 xsym               STA     BUFSF
         3 001175   000001 756000 xsym               STQ     BUFSF+1

     2279     2250    2       BUFLNSF = 81;

   2250  3 001176   000121 235007                    LDA     81,DL
         3 001177   000000 755000 xsym               STA     BUFLNSF

     2280     2251    2       CALL SYS_FUNC_WRIT;

   2251  3 001200   000000 631400 4                  EPPR1   0
         3 001201   000000 701000 xent               TSX1    SYS_FUNC_WRIT
         3 001202   000000 011000                    NOP     0

     2281     2252
     2282     2253    2       CALL FILL_RECKEY(ERRDANG.VAL,DANGNXT.PRI_RECTYP,DANGNXT.BADPRI);

   2253  3 001203   000000 236000 xsym               LDQ     ERRBUF$
         3 001204   000042 036000 4                  ADLQ    34
         3 001205   200011 756100                    STQ     @KEY2+1,,AUTO
         3 001206   000000 236000 xsym               LDQ     ERRBUF$
         3 001207   000076 036000 4                  ADLQ    62
         3 001210   200010 756100                    STQ     @KEY1+1,,AUTO
         3 001211   000102 236000 4                  LDQ     66
         3 001212   200007 756100                    STQ     @PAPTR,,AUTO
PL6.E3A0      #005=ZIU$RPTVAL File=ZIU$VALSET.:ZIC0TSI                           FRI 09/05/97 13:34 Page:396
         3 001213   001414 701000 3                  TSX1    FILL_RECKEY
         3 001214   000000 011000                    NOP     0

     2283     2254    2       BUFSF = VECTOR(ERRDANG);

   2254  3 001215   000104 237000 4                  LDAQ    68
         3 001216   000000 755000 xsym               STA     BUFSF
         3 001217   000001 756000 xsym               STQ     BUFSF+1

     2284     2255    2       BUFLNSF = 83;

   2255  3 001220   000123 235007                    LDA     83,DL
         3 001221   000000 755000 xsym               STA     BUFLNSF

     2285     2256    2       CALL SYS_FUNC_WRIT;

   2256  3 001222   000000 631400 4                  EPPR1   0
         3 001223   000000 701000 xent               TSX1    SYS_FUNC_WRIT
         3 001224   000000 011000                    NOP     0

     2286     2257
     2287     2258    2       RETURN;

   2258  3 001225   200004 221300                    LDX1  ! 4,,AUTO
         3 001226   000001 702211                    TSX2  ! 1,X1

     2288     2259    2   END REPT_DANG;
     2289     2260        %EJECT;
PL6.E3A0      #005=ZIU$RPTVAL File=ZIU$VALSET.:ZIC0TSI                           FRI 09/05/97 13:34 Page:397
     2290     2261
     2291     2262        /*
     2292     2263              Report a member record pointing to itself thry prior or next.
     2293     2264        */
     2294     2265    1   REPT_MMBR: PROC;

   2265  3 001227   200004 741300       REPT_MMBR    STX1  ! 4,,AUTO

     2295     2266
     2296     2267    2       IF PAPTRS = %YES# THEN

   2267  3 001230   000001 234000 0                  SZN     PAPTRS
         3 001231   001243 605000 3                  TPL     s:2273

     2297     2268    3       DO; /*  GET PA INFO */

     2298     2269    3           CALL FILL_PAINFO(MMBR.OWNER);

   2269  3 001232   000000 236000 xsym               LDQ     ERRBUF$
         3 001233   000042 036000 4                  ADLQ    34
         3 001234   200007 756100                    STQ     @PAPTR,,AUTO
         3 001235   000150 701000 3                  TSX1    FILL_PAINFO
         3 001236   000000 011000                    NOP     0

     2299     2270    3           ERR.PNTR = PA_INFO;

   2270  3 001237   040000 100400                    MLR     fill='040'O
         3 001240   000004 000007 0                  ADSC9   PA_INFO                  cn=0,n=7
         3 001241   000073 200010 0                  ADSC9   ERR+3                    cn=1,n=8

     2300     2271    3           END;

   2271  3 001242   001255 710000 3                  TRA     s:2278

     2301     2272    3       ELSE DO;

     2302     2273    3           IF ERRCODE = %MMBRNXT# THEN
PL6.E3A0      #005=ZIU$RPTVAL File=ZIU$VALSET.:ZIC0TSI                           FRI 09/05/97 13:34 Page:398

   2273  3 001243   000000 235000 0                  LDA     ERRCODE
         3 001244   000003 115007                    CMPA    3,DL
         3 001245   001252 601000 3                  TNZ     s:2276

     2303     2274    3               ERR.PNTR = 'NEXT';

   2274  3 001246   040000 100400                    MLR     fill='040'O
         3 001247   000011 000004 2                  ADSC9   9                        cn=0,n=4
         3 001250   000073 200010 0                  ADSC9   ERR+3                    cn=1,n=8
         3 001251   001255 710000 3                  TRA     s:2278

     2304     2275    3           ELSE
     2305     2276    3               ERR.PNTR = 'PRIOR';

   2276  3 001252   040000 100400                    MLR     fill='040'O
         3 001253   000013 000005 2                  ADSC9   11                       cn=0,n=5
         3 001254   000073 200010 0                  ADSC9   ERR+3                    cn=1,n=8

     2306     2277    3           END;

     2307     2278    2       DCBSF = DCBNUM(M$LO);

   2278  3 001255   000000 236007 xsym               LDQ     M$LO,DL
         3 001256   000000 620006                    EAX0    0,QL
         3 001257   000000 740000 xsym               STX0    DCBSF

     2308     2279    2       BUFSF = VECTOR(ERR);

   2279  3 001260   000036 237000 4                  LDAQ    30
         3 001261   000000 755000 xsym               STA     BUFSF
         3 001262   000001 756000 xsym               STQ     BUFSF+1

     2309     2280    2       BUFLNSF = 81;

   2280  3 001263   000121 235007                    LDA     81,DL
         3 001264   000000 755000 xsym               STA     BUFLNSF
PL6.E3A0      #005=ZIU$RPTVAL File=ZIU$VALSET.:ZIC0TSI                           FRI 09/05/97 13:34 Page:399

     2310     2281    2       CALL SYS_FUNC_WRIT;

   2281  3 001265   000000 631400 4                  EPPR1   0
         3 001266   000000 701000 xent               TSX1    SYS_FUNC_WRIT
         3 001267   000000 011000                    NOP     0

     2311     2282
     2312     2283    2       BUFSF = VECTOR(ERRMMBR);

   2283  3 001270   000106 237000 4                  LDAQ    70
         3 001271   000000 755000 xsym               STA     BUFSF
         3 001272   000001 756000 xsym               STQ     BUFSF+1

     2313     2284    2       BUFLNSF = 51;

   2284  3 001273   000063 235007                    LDA     51,DL
         3 001274   000000 755000 xsym               STA     BUFLNSF

     2314     2285    2       CALL SYS_FUNC_WRIT;

   2285  3 001275   000000 631400 4                  EPPR1   0
         3 001276   000000 701000 xent               TSX1    SYS_FUNC_WRIT
         3 001277   000000 011000                    NOP     0

     2315     2286
     2316     2287    2       RETURN;

   2287  3 001300   200004 221300                    LDX1  ! 4,,AUTO
         3 001301   000001 702211                    TSX2  ! 1,X1

     2317     2288    2   END REPT_MMBR;
     2318     2289        %EJECT;
PL6.E3A0      #005=ZIU$RPTVAL File=ZIU$VALSET.:ZIC0TSI                           FRI 09/05/97 13:34 Page:400
     2319     2290
     2320     2291
     2321     2292    1   FILL_RECNAME: PROC(NAME,TYPE);

   2292  3 001302   200012 741300       FILL_RECNAME STX1  ! @KEY+1,,AUTO

     2322     2293
     2323     2294    2   DCL NAME CHAR(30) CALIGNED;
     2324     2295    2   DCL TYPE SBIN HALF CALIGNED;
     2325     2296
     2326     2297    2       X=0;

   2297  3 001303   000000 450000 xsym               STZ     X

     2327     2298    3       DO WHILE(MSTR_REF.TYPE(X) ~= TYPE AND X < NO_RECS);

   2298  3 001304   001306 710000 3                  TRA     s:2300

     2328     2299    3           X = X+1;

   2299  3 001305   000000 054000 xsym               AOS     X

     2329     2300    3           END;

   2300  3 001306   200014 470500                    LDP0    @TYPE,,AUTO
         3 001307   000100 100500                    MLR     fill='000'O
         3 001310   000000 000002                    ADSC9   0,,PR0                   cn=0,n=2
         3 001311   200016 000004                    ADSC9   @KEY+2,,AUTO             cn=0,n=4
         3 001312   200016 236100                    LDQ     @KEY+2,,AUTO
         3 001313   000022 732000                    QRS     18
         3 001314   200017 756100                    STQ     @KEY+3,,AUTO
         3 001315   000000 236000 xsym               LDQ     X
         3 001316   000012 402007                    MPY     10,DL
         3 001317   000000 471400 xsym               LDP1    MSTR$
         3 001320   100000 236106                    LDQ     0,QL,PR1
         3 001321   000022 732000                    QRS     18
         3 001322   200017 116100                    CMPQ    @KEY+3,,AUTO
PL6.E3A0      #005=ZIU$RPTVAL File=ZIU$VALSET.:ZIC0TSI                           FRI 09/05/97 13:34 Page:401
         3 001323   001327 600000 3                  TZE     s:2302
         3 001324   000000 236000 xsym               LDQ     X
         3 001325   000000 116000 xsym               CMPQ    NO_RECS
         3 001326   001305 604000 3                  TMI     s:2299

     2330     2301
     2331     2302    2       IF X < NO_RECS THEN

   2302  3 001327   000000 236000 xsym               LDQ     X
         3 001330   000000 116000 xsym               CMPQ    NO_RECS
         3 001331   001340 605000 3                  TPL     s:2305

     2332     2303    2           NAME = MSTR_REF.NAME(X);

   2303  3 001332   000050 402007                    MPY     40,DL
         3 001333   200013 473500                    LDP3    @NAME,,AUTO
         3 001334   040100 100506                    MLR     fill='040'O
         3 001335   100001 400036                    ADSC9   1,Q,PR1                  cn=2,n=30
         3 001336   300000 000036                    ADSC9   0,,PR3                   cn=0,n=30
         3 001337   001344 710000 3                  TRA     s:2307

     2333     2304    2       ELSE
     2334     2305    2           NAME = '*********';

   2305  3 001340   200013 473500                    LDP3    @NAME,,AUTO
         3 001341   040100 100400                    MLR     fill='040'O
         3 001342   000017 000011 2                  ADSC9   15                       cn=0,n=9
         3 001343   300000 000036                    ADSC9   0,,PR3                   cn=0,n=30

     2335     2306
     2336     2307    2       RETURN;

   2307  3 001344   200012 221300                    LDX1  ! @KEY+1,,AUTO
         3 001345   000001 702211                    TSX2  ! 1,X1

     2337     2308    2   END FILL_RECNAME;
     2338     2309        %EJECT;
PL6.E3A0      #005=ZIU$RPTVAL File=ZIU$VALSET.:ZIC0TSI                           FRI 09/05/97 13:34 Page:402
     2339     2310    1   FILL_VAL: PROC(BUF,KEY);

   2310  3 001346   200012 741300       FILL_VAL     STX1  ! @KEY+1,,AUTO

     2340     2311
     2341     2312    2   DCL BUF CHAR(20) CALIGNED;
     2342     2313    2   DCL KEY UBIN WORD CALIGNED;
     2343     2314
     2344     2315    2   DCL TMP CHAR(12) STATIC ALIGNED;
     2345     2316    2   DCL FIL$ PTR STATIC INIT(ADDR(TMP));
     2346     2317    2   DCL FILL BASED(FIL$) CHAR(J);
     2347     2318
     2348     2319    2       CALL BINCHAR(TMP,KEY);

   2319  3 001347   200014 470500                    LDP0    @KEY,,AUTO
         3 001350   000100 100500                    MLR     fill='000'O
         3 001351   000000 000004                    ADSC9   0,,PR0                   cn=0,n=4
         3 001352   200016 000004                    ADSC9   @KEY+2,,AUTO             cn=0,n=4
         3 001353   200016 236100                    LDQ     @KEY+2,,AUTO
         3 001354   000000 235003                    LDA     0,DU
         3 001355   200020 757100                    STAQ    @KEY+4,,AUTO
         3 001356   000000 301500                    BTD
         3 001357   200020 000010                    NDSC9   @KEY+4,,AUTO             cn=0,s=lsgnf,sf=0,n=8
         3 001360   000400 030014 0                  NDSC9   TMP                      cn=0,s=nosgn,sf=0,n=12

     2349     2320    2       CALL ZERO_SUP(TMP,12,'1'B);

   2320  3 001361   000110 630400 4                  EPPR0   72
         3 001362   000001 631400 4                  EPPR1   1
         3 001363   000000 701000 xent               TSX1    ZERO_SUP
         3 001364   000000 011000                    NOP     0

     2350     2321    2       CALL INDEX(J,' ',TMP);

   2321  3 001365   000000 124400                    SCM     mask='000'O
         3 001366   000400 000014 0                  ADSC9   TMP                      cn=0,n=12
         3 001367   000015 000001 4                  ADSC9   13                       cn=0,n=1
PL6.E3A0      #005=ZIU$RPTVAL File=ZIU$VALSET.:ZIC0TSI                           FRI 09/05/97 13:34 Page:403
         3 001370   000000 000000 xsym               ARG     J

     2351     2322
     2352     2323
     2353     2324    2       CALL CONCAT(BUF,'(DBK# ',FILL,')');

   2324  3 001371   200013 470500                    LDP0    @BUF,,AUTO
         3 001372   040100 100400                    MLR     fill='040'O
         3 001373   000022 000006 2                  ADSC9   18                       cn=0,n=6
         3 001374   000000 000006                    ADSC9   0,,PR0                   cn=0,n=6
         3 001375   000403 471400 0                  LDP1    FIL$
         3 001376   000000 720000 xsym               LXL0    J
         3 001377   040100 100540                    MLR     fill='040'O
         3 001400   100000 000010                    ADSC9   0,,PR1                   cn=0,n=*X0
         3 001401   000001 400016                    ADSC9   1,,PR0                   cn=2,n=14
         3 001402   000000 236000 xsym               LDQ     J
         3 001403   000016 116007                    CMPQ    14,DL
         3 001404   001412 605000 3                  TPL     s:2326
         3 001405   777761 621006                    EAX1    -15,QL
         3 001406   777777 661003                    ERX1    -1,DU
         3 001407   040146 100400                    MLR     fill='040'O
         3 001410   000113 000001 4                  ADSC9   75                       cn=0,n=1
         3 001411   000001 400011                    ADSC9   1,Q,PR0                  cn=2,n=*X1

     2354     2325
     2355     2326    2       RETURN;

   2326  3 001412   200012 221300                    LDX1  ! @KEY+1,,AUTO
         3 001413   000001 702211                    TSX2  ! 1,X1

     2356     2327    2   END FILL_VAL;
     2357     2328
     2358     2329        %EJECT;
PL6.E3A0      #005=ZIU$RPTVAL File=ZIU$VALSET.:ZIC0TSI                           FRI 09/05/97 13:34 Page:404
     2359     2330    1   FILL_RECKEY: PROC(BUF,RECTYPE,KEY);

   2330  3 001414   200006 741300       FILL_RECKEY  STX1  ! 6,,AUTO

     2360     2331
     2361     2332    2   DCL BUF CHAR(60) CALIGNED;
     2362     2333    2   DCL RECTYPE SBIN HALF CALIGNED;
     2363     2334    2   DCL KEY UBIN WORD CALIGNED;
     2364     2335    2   DCL BUF$ PTR STATIC ALIGNED;
     2365     2336    2   DCL BUFER CHAR(J) BASED(BUF$);
     2366     2337
     2367     2338    2       J= 60;

   2338  3 001415   000074 235007                    LDA     60,DL
         3 001416   000000 755000 xsym               STA     J

     2368     2339    2       BUF$ = ADDR(BUF);

   2339  3 001417   200007 236100                    LDQ     @BUF,,AUTO
         3 001420   000404 756000 0                  STQ     BUF$

     2369     2340    2       BUFER = ' ';

   2340  3 001421   000404 470400 0                  LDP0    BUF$
         3 001422   000000 620005                    EAX0    0,AL
         3 001423   040140 100400                    MLR     fill='040'O
         3 001424   000015 000001 4                  ADSC9   13                       cn=0,n=1
         3 001425   000000 000010                    ADSC9   0,,PR0                   cn=0,n=*X0

     2370     2341    2       J= 30; /* SIZE OF POSSIBLE NAME FIELD */

   2341  3 001426   000036 235007                    LDA     30,DL
         3 001427   000000 755000 xsym               STA     J

     2371     2342    2       CALL FILL_RECNAME(BUFER,RECTYPE);

   2342  3 001430   200010 236100                    LDQ     @RECTYPE,,AUTO
PL6.E3A0      #005=ZIU$RPTVAL File=ZIU$VALSET.:ZIC0TSI                           FRI 09/05/97 13:34 Page:405
         3 001431   200014 756100                    STQ     @KEY,,AUTO
         3 001432   000404 236000 0                  LDQ     BUF$
         3 001433   200013 756100                    STQ     @BUF,,AUTO
         3 001434   001302 701000 3                  TSX1    FILL_RECNAME
         3 001435   000000 011000                    NOP     0

     2372     2343    2       CALL INDEX(J,' ',BUFER);

   2343  3 001436   000404 470400 0                  LDP0    BUF$
         3 001437   000000 720000 xsym               LXL0    J
         3 001440   000000 124540                    SCM     mask='000'O
         3 001441   000000 000010                    ADSC9   0,,PR0                   cn=0,n=*X0
         3 001442   000015 000001 4                  ADSC9   13                       cn=0,n=1
         3 001443   000000 000000 xsym               ARG     J

     2373     2344    2       BUF$ = PINCRC(BUF$,J+1);

   2344  3 001444   000000 236000 xsym               LDQ     J
         3 001445   000020 736000                    QLS     16
         3 001446   200000 036007                    ADLQ    65536,DL
         3 001447   000404 036000 0                  ADLQ    BUF$
         3 001450   000404 756000 0                  STQ     BUF$

     2374     2345
     2375     2346    2       J = 7;

   2346  3 001451   000007 235007                    LDA     7,DL
         3 001452   000000 755000 xsym               STA     J

     2376     2347    2       BUF$ -> BUFER = 'RECORD ';

   2347  3 001453   000404 470400 0                  LDP0    BUF$
         3 001454   000000 620005                    EAX0    0,AL
         3 001455   040140 100400                    MLR     fill='040'O
         3 001456   000024 000007 2                  ADSC9   20                       cn=0,n=7
         3 001457   000000 000010                    ADSC9   0,,PR0                   cn=0,n=*X0

PL6.E3A0      #005=ZIU$RPTVAL File=ZIU$VALSET.:ZIC0TSI                           FRI 09/05/97 13:34 Page:406
     2377     2348    2       BUF$ = PINCRC(BUF$,7);

   2348  3 001460   000114 036000 4                  ADLQ    76
         3 001461   000404 756000 0                  STQ     BUF$

     2378     2349
     2379     2350    2       J = 20; /* SIZE REQUIRED FOR FILL_VAL */

   2350  3 001462   000024 235007                    LDA     20,DL
         3 001463   000000 755000 xsym               STA     J

     2380     2351    2       CALL FILL_VAL(BUF$ -> BUFER,KEY);

   2351  3 001464   200011 236100                    LDQ     @KEY,,AUTO
         3 001465   200014 756100                    STQ     @KEY,,AUTO
         3 001466   000404 236000 0                  LDQ     BUF$
         3 001467   200013 756100                    STQ     @BUF,,AUTO
         3 001470   001346 701000 3                  TSX1    FILL_VAL
         3 001471   000000 011000                    NOP     0

     2381     2352
     2382     2353    2       RETURN;

   2353  3 001472   200006 221300                    LDX1  ! 6,,AUTO
         3 001473   000001 702211                    TSX2  ! 1,X1

     2383     2354    2   END FILL_RECKEY;
     2384     2355        %EJECT;
PL6.E3A0      #005=ZIU$RPTVAL File=ZIU$VALSET.:ZIC0TSI                           FRI 09/05/97 13:34 Page:407
     2385     2356        /*
     2386     2357              Concat key info for reporting inconsistant owners.
     2387     2358        */
     2388     2359    1   FILL_OWNTEXT: PROC(KEY1,KEY2);

   2359  3 001474   200006 741300       FILL_OWNTEXT STX1  ! 6,,AUTO

     2389     2360
     2390     2361    2   DCL KEY1 UBIN WORD CALIGNED;
     2391     2362    2   DCL KEY2 UBIN WORD CALIGNED;
     2392     2363
     2393     2364    2   DCL STRING BASED(STR$) CHAR(J) CALIGNED;
     2394     2365    2   DCL STR$ PTR STATIC ALIGNED;
     2395     2366    2   DCL TMP CHAR(12) STATIC CALIGNED;
     2396     2367
     2397     2368    2       ERROWN2.TEXT = '  ';

   2368  3 001475   040000 100400                    MLR     fill='040'O
         3 001476   000002 000002 2                  ADSC9   2                        cn=0,n=2
         3 001477   000357 600074 0                  ADSC9   ERROWN2+5                cn=3,n=60

     2398     2369    2       J=5;

   2369  3 001500   000005 235007                    LDA     5,DL
         3 001501   000000 755000 xsym               STA     J

     2399     2370    2       STR$ = ADDR(ERROWN2.TEXT);

   2370  3 001502   000115 236000 4                  LDQ     77
         3 001503   000405 756000 0                  STQ     STR$

     2400     2371    2       STR$->STRING = 'DBK# ';

   2371  3 001504   000405 470400 0                  LDP0    STR$
         3 001505   000000 620005                    EAX0    0,AL
         3 001506   040140 100400                    MLR     fill='040'O
         3 001507   000026 000005 2                  ADSC9   22                       cn=0,n=5
PL6.E3A0      #005=ZIU$RPTVAL File=ZIU$VALSET.:ZIC0TSI                           FRI 09/05/97 13:34 Page:408
         3 001510   000000 000010                    ADSC9   0,,PR0                   cn=0,n=*X0

     2401     2372    2       STR$ = PINCRC(STR$,5);

   2372  3 001511   000116 036000 4                  ADLQ    78
         3 001512   000405 756000 0                  STQ     STR$

     2402     2373
     2403     2374    2       CALL BINCHAR(TMP,KEY1);

   2374  3 001513   200007 470500                    LDP0    @KEY1,,AUTO
         3 001514   000100 100500                    MLR     fill='000'O
         3 001515   000000 000004                    ADSC9   0,,PR0                   cn=0,n=4
         3 001516   200016 000004                    ADSC9   @KEY+2,,AUTO             cn=0,n=4
         3 001517   200016 236100                    LDQ     @KEY+2,,AUTO
         3 001520   000000 235003                    LDA     0,DU
         3 001521   200020 757100                    STAQ    @KEY+4,,AUTO
         3 001522   000000 301500                    BTD
         3 001523   200020 000010                    NDSC9   @KEY+4,,AUTO             cn=0,s=lsgnf,sf=0,n=8
         3 001524   000406 030014 0                  NDSC9   TMP                      cn=0,s=nosgn,sf=0,n=12

     2404     2375    2       CALL ZERO_SUP(TMP,12,'1'B);

   2375  3 001525   000117 630400 4                  EPPR0   79
         3 001526   000001 631400 4                  EPPR1   1
         3 001527   000000 701000 xent               TSX1    ZERO_SUP
         3 001530   000000 011000                    NOP     0

     2405     2376    2       CALL INDEX(J,' ',TMP); /* FIND SIZE OF DBK IN CHAR FORMAT */

   2376  3 001531   000000 124400                    SCM     mask='000'O
         3 001532   000406 000014 0                  ADSC9   TMP                      cn=0,n=12
         3 001533   000015 000001 4                  ADSC9   13                       cn=0,n=1
         3 001534   000000 000000 xsym               ARG     J

     2406     2377    2       J = J+1;

PL6.E3A0      #005=ZIU$RPTVAL File=ZIU$VALSET.:ZIC0TSI                           FRI 09/05/97 13:34 Page:409
   2377  3 001535   000000 054000 xsym               AOS     J

     2407     2378    2       STR$->STRING = TMP;

   2378  3 001536   000405 470400 0                  LDP0    STR$
         3 001537   000000 720000 xsym               LXL0    J
         3 001540   040140 100400                    MLR     fill='040'O
         3 001541   000406 000014 0                  ADSC9   TMP                      cn=0,n=12
         3 001542   000000 000010                    ADSC9   0,,PR0                   cn=0,n=*X0

     2408     2379
     2409     2380    2       STR$ = PINCRC(STR$,J);

   2380  3 001543   000000 236000 xsym               LDQ     J
         3 001544   000020 736000                    QLS     16
         3 001545   000405 036000 0                  ADLQ    STR$
         3 001546   000405 756000 0                  STQ     STR$

     2410     2381    2       J = 18;

   2381  3 001547   000022 235007                    LDA     18,DL
         3 001550   000000 755000 xsym               STA     J

     2411     2382    2       STR$->STRING = ' IS OWNED BY DBK# ';

   2382  3 001551   000405 470400 0                  LDP0    STR$
         3 001552   000000 620005                    EAX0    0,AL
         3 001553   040140 100400                    MLR     fill='040'O
         3 001554   000030 000022 2                  ADSC9   24                       cn=0,n=18
         3 001555   000000 000010                    ADSC9   0,,PR0                   cn=0,n=*X0

     2412     2383    2       STR$ = PINCRC(STR$,18);

   2383  3 001556   000122 036000 4                  ADLQ    82
         3 001557   000405 756000 0                  STQ     STR$

     2413     2384
PL6.E3A0      #005=ZIU$RPTVAL File=ZIU$VALSET.:ZIC0TSI                           FRI 09/05/97 13:34 Page:410
     2414     2385    2       CALL BINCHAR(TMP,KEY2);

   2385  3 001560   200010 470500                    LDP0    @KEY2,,AUTO
         3 001561   000100 100500                    MLR     fill='000'O
         3 001562   000000 000004                    ADSC9   0,,PR0                   cn=0,n=4
         3 001563   200016 000004                    ADSC9   @KEY+2,,AUTO             cn=0,n=4
         3 001564   200016 236100                    LDQ     @KEY+2,,AUTO
         3 001565   000000 235003                    LDA     0,DU
         3 001566   200020 757100                    STAQ    @KEY+4,,AUTO
         3 001567   000000 301500                    BTD
         3 001570   200020 000010                    NDSC9   @KEY+4,,AUTO             cn=0,s=lsgnf,sf=0,n=8
         3 001571   000406 030014 0                  NDSC9   TMP                      cn=0,s=nosgn,sf=0,n=12

     2415     2386    2       CALL ZERO_SUP(TMP,12,'1'B);

   2386  3 001572   000117 630400 4                  EPPR0   79
         3 001573   000001 631400 4                  EPPR1   1
         3 001574   000000 701000 xent               TSX1    ZERO_SUP
         3 001575   000000 011000                    NOP     0

     2416     2387    2       CALL INDEX(J,' ',TMP);

   2387  3 001576   000000 124400                    SCM     mask='000'O
         3 001577   000406 000014 0                  ADSC9   TMP                      cn=0,n=12
         3 001600   000015 000001 4                  ADSC9   13                       cn=0,n=1
         3 001601   000000 000000 xsym               ARG     J

     2417     2388    2       J = J+1;

   2388  3 001602   000000 054000 xsym               AOS     J

     2418     2389    2       STR$->STRING = TMP;

   2389  3 001603   000405 470400 0                  LDP0    STR$
         3 001604   000000 720000 xsym               LXL0    J
         3 001605   040140 100400                    MLR     fill='040'O
         3 001606   000406 000014 0                  ADSC9   TMP                      cn=0,n=12
PL6.E3A0      #005=ZIU$RPTVAL File=ZIU$VALSET.:ZIC0TSI                           FRI 09/05/97 13:34 Page:411
         3 001607   000000 000010                    ADSC9   0,,PR0                   cn=0,n=*X0

     2419     2390
     2420     2391    2       RETURN;

   2391  3 001610   200006 221300                    LDX1  ! 6,,AUTO
         3 001611   000001 702211                    TSX2  ! 1,X1

VALHDR
 Sect OctLoc
   0     006   162126 101114   111104 101124   111117 116040   104111 101107    rVALIDATION DIAG
   0     012   116117 123124   111103 040122   105120 117122   124040 ******    NOSTIC REPORT ..

HDR
 Sect OctLoc
   0     016   101104 102113   040040 040040   040040 040040   040120 117111    ADBK         POI
   0     022   116124 105122   040122 105103   117122 104040   116101 115105    NTER RECORD NAME
   0     026   040040 040040   040040 040040   040040 040040   040040 040040
   0     032   040040 040123   105124 040116   101115 105040   040040 040040       SET NAME
   0     036   040040 040040   040040 040040   040040 040040   040040 040040
   0     042   040*** ******                                                     ...

UNDR
 Sect OctLoc
   0     043   101055 055055   040040 040040   040040 040040   040055 055055    A---         ---
   0     047   055055 055055   040055 055055   055055 055055   055055 055055    ---- -----------
   0     053   040040 040040   040040 040040   040040 040040   040040 040040
   0     057   040040 040055   055055 055055   055055 055040   040040 040040       --------
   0     063   040040 040040   040040 040040   040040 040040   040040 040040
   0     067   040*** ******                                                     ...

ERR
 Sect OctLoc
   0     070   101*** ******   ****** ******   ****** ******   ****** ******    A...............
   0     114*  ****** ******                                                    ....

ERRGRBG
PL6.E3A0      #005=ZIU$RPTVAL File=ZIU$VALSET.:ZIC0TSI                           FRI 09/05/97 13:34 Page:412
 Sect OctLoc
   0     115   102040 040040   040040 040040   040040 040040   040040 040040    B
   0     121   040040 040040   040120 117111   116124 123040   124117 040116         POINTS TO N
   0     125   117116 055105   130111 123124   101116 124040   122105 103117    ON-EXISTANT RECO
   0     131   122104 040***   ****** ******   ****** ******   ****** ******    RD .............
   0     135   ****** ******   ****** ******                                    ........

ERRDANG
 Sect OctLoc
   0     137   102040 040040   040040 040040   040040 040040   040040 040040    B
   0     143   040040 040040   040104 101116   107114 111116   107040 116105         DANGLING NE
   0     147   130124 040120   124122 040124   117040 ******   ****** ******    XT PTR TO ......
   0     167*  ****** ******   ****** ******                                    ........

ERRMULT
 Sect OctLoc
   0     171   102040 040040   040040 040040   040040 040040   040040 040040    B
   0     175   040040 040040   040101 114114   040120 117111   116124 040124         ALL POINT T
   0     201   117040 124110   105040 123101   115105 040122   105103 117122    O THE SAME RECOR
   0     205   104040 ******   ****** ******   ****** ******   ****** ******    D ..............
   0     211   ****** ******   ****** ******                                    ........

ERRMMBR
 Sect OctLoc
   0     213   102040 040040   040040 040040   040040 040040   040040 040040    B
   0     217   040040 040040   040115 105115   102105 122040   122105 103117         MEMBER RECO
   0     223   122104 040120   117111 116124   123040 124117   040111 124123    RD POINTS TO ITS
   0     227   105114 106***                                                    ELF.

ERRMISG
 Sect OctLoc
   0     230   101040 040040   040040 040040   040040 040040   040040 040040    A
   0     234   040040 040040   040116 117040   122105 103117   122104 040117         NO RECORD O
   0     240   103103 125122   122105 116103   105040 120117   111116 124123    CCURRENCE POINTS
   0     244   040124 117040   124110 111123   040122 105103   117122 104***     TO THIS RECORD.

ERRMISG2
PL6.E3A0      #005=ZIU$RPTVAL File=ZIU$VALSET.:ZIC0TSI                           FRI 09/05/97 13:34 Page:413
 Sect OctLoc
   0     250   102040 040040   040040 040040   040040 040040   040040 040040    B
   0     254   040040 040040   040040 040040   120122 111117   122040 120117            PRIOR PO
   0     260   111116 124105   122040 126101   114125 105040   111123 040***    INTER VALUE IS .
   0     264   ****** ******   ****** ******   ****** ******                    ............

BADPRI
 Sect OctLoc
   0     267   101040 040040   040040 040040   040040 040040   040040 040040    A
   0     273   040040 040040   040102 101104   040120 122111   117122 040120         BAD PRIOR P
   0     277   117111 116124   105122 040055   040120 122111   117122 040126    OINTER - PRIOR V
   0     303   101114 125105   040075 040104   102113 043040   ****** ******    ALUE = DBK# ....
   0     307   ****** ******   ****** ******                                    ........

BADPRI2
 Sect OctLoc
   0     311   102040 040040   040040 040040   040040 040040   040040 040040    B
   0     315   040040 040040   040040 040040   040105 130120   105103 124105             EXPECTE
   0     321   104040 120122   111117 122040   126101 114125   105040 075040    D PRIOR VALUE =
   0     325   104102 113043   040*** ******   ****** ******   ****** ******    DBK# ...........
   0     331   ****** ******                                                    ....

ERROWN
 Sect OctLoc
   0     332   101040 040040   040040 040040   040040 040040   040040 040040    A
   0     336   040040 040040   040111 116103   117116 123111   123124 101116         INCONSISTAN
   0     342   124040 117127   116105 122123   040127 111124   110111 116040    T OWNERS WITHIN
   0     346   101040 123105   124040 117103   103125 122122   105116 103105    A SET OCCURRENCE

ERROWN2
 Sect OctLoc
   0     352   101040 040040   040040 040040   040040 040040   040040 040040    A
   0     356   040040 040040   040040 040***   ****** ******   ****** ******           .........
   0     376*  ****** ******                                                    ....

FIL$
 Sect OctLoc
PL6.E3A0      #005=ZIU$RPTVAL File=ZIU$VALSET.:ZIC0TSI                           FRI 09/05/97 13:34 Page:414
   0     403   000400 006000                                                    ....

(unnamed)
 Sect OctLoc
   2     000   052105 122122   106111 114105   040040 040116   157040 040126    *ERRFILE   No  V
   2     004   141154 151144   141164 151157   156040 040105   162162 157162    alidation  Error
   2     010   163040 040040   116105 130124   052052 052052   120122 111117    s   NEXT****PRIO
   2     014   122040 040040   117127 116105   122040 040040   052052 052052    R   OWNER   ****
   2     020   052052 052052   052040 040040   050104 102113   043040 040040    *****   (DBK#
   2     024   122105 103117   122104 040040   104102 113043   040040 040040    RECORD  DBK#
   2     030   040111 123040   117127 116105   104040 102131   040104 102113     IS OWNED BY DBK
   2     034   043040 040040                                                    #

(unnamed)
 Sect OctLoc
   4     000   000000 000000   000003 000000   000000 000014   400000 000000    ................
   4     004   000070 206000   000002 006000   000003 006000   000001 400000    .8..............
   4     010   000075 206000   000000 000003   000002 006000   000011 006000    .=..............
   4     014   000003 006000   040040 040040   000003 006000   000011 006000    ....    ........
   4     020   000003 006000   056040 040040   000001 177640   000000 006000    .....   ........
   4     024   000007 777640   000000 006000   000007 377640   000006 006000    ................
   4     030   000024 177640   000016 006000   000024 177640   000043 006000    .............#..
   4     034   000003 400000   000205 406000   000024 177640   000070 006000    .............8..
   4     040   000021 377640   000171 006000   000002 200000   000004 200000    .....y..........
   4     044   000017 577640   000230 006000   000263 606000   000002 006000    ................
   4     050   000003 006000   000000 000000   000016 577640   000250 006000    ................
   4     054   000306 006000   000002 006000   000003 006000   000000 000000    ................
   4     060   000021 777640   000267 006000   000326 206000   000002 006000    ................
   4     064   000003 006000   000000 000000   000020 177640   000311 006000    ................
   4     070   000017 777640   000332 006000   000024 577640   000352 006000    ................
   4     074   000004 600000   000003 600000   000003 200000   000131 606000    .............Y..
   4     100   000021 577640   000115 006000   000151 406000   000000 000000    .....M...i......
   4     104   000031 377640   000137 006000   000014 577640   000213 006000    ....._..........
   4     110   000400 006000   000002 006000   000003 006000   051040 040040    ............)
   4     114   000001 600000   000357 606000   000001 200000   000406 006000    ................
   4     120   000002 006000   000003 006000   000004 400000                    ............
     2421     2392    2   END FILL_OWNTEXT;
PL6.E3A0      #005=ZIU$RPTVAL File=ZIU$VALSET.:ZIC0TSI                           FRI 09/05/97 13:34 Page:415
     2422     2393        %EJECT;
PL6.E3A0      #005=ZIU$RPTVAL File=ZIU$VALSET.:ZIC0TSI                           FRI 09/05/97 13:34 Page:416
     2423     2394
     2424     2395
     2425     2396    1   END ZIU$RPTVAL;

PL6.E3A0      #005=ZIU$RPTVAL File=ZIU$VALSET.:ZIC0TSI                           FRI 09/05/97 13:34 Page:417
--  Include file information  --

   ZI$DIR.:ZIC0TOU  is referenced.
   ZI_DBU_XREF.:ZIC0TOU  cannot be made into a system file and is referenced.
   ZI_DBU_VALDTE.:ZIC0TOU  is referenced.
   ZI_GLOBAL_DBUTIL.:ZIC0TOU  is referenced.
   CP_6_SUBS.:LIB_E05  is referenced.
   B$JIT_C.:E05TOU  was found in the system file and is never referenced.
   CP_6_C.:E05TOU  was found in the system file and is never referenced.
      No diagnostics issued in procedure ZIU$RPTVAL.

   Procedure ZIU$RPTVAL requires 906 words for executable code.
   Procedure ZIU$RPTVAL requires 18 words of local(AUTO) storage.

    No errors detected in file ZIU$VALSET.:ZIC0TSI    .
PL6.E3A0      #005=ZIU$RPTVAL File=ZIU$VALSET.:ZIC0TSI                           FRI 09/05/97 13:34 Page:418
          *** CROSS REFERENCE LISTING ***
**     DENOTES     IDENTIFIER DEFINITION
<<                 IDENTIFIER'S VALUE SET
>>                 IDENTIFIER'S VALUE USED
<>                 IDENTIFIER SET AND/OR USED
--                 IDENTIFIER REFERENCED
PL6.E3A0      #005=ZIU$RPTVAL File=ZIU$VALSET.:ZIC0TSI                           FRI 09/05/97 13:34 Page:419
          MINI XREF LISTING

ACSSF
       808**DCL      2018<<ASSIGN
ALT IN PROCEDURE OPEN_ERRFILE
      2024**LABEL    2014--CALLALT  2021--CALLALT
ALTRD IN PROCEDURE READ_ERRFILE
      2039**LABEL    2034--CALLALT
ALTWRT IN PROCEDURE WRITE_HEADER
      2071**LABEL    2055--CALLALT  2059--CALLALT
ALT_REPT
      1983**LABEL    1926--CALLALT
AREA_KEY$
      1578**DCL      1581--IMP-PTR
BADPRI
      1351**DCL      2165--ASSIGN
BADPRI.VAL
      1356**DCL      2163<<CALLBLT  2164<>CALL
BADPRI2
      1357**DCL      2171--ASSIGN
BADPRI2.VAL
      1362**DCL      2169<<CALLBLT  2170<>CALL
BREAK_FLAG
       783**DCL      1932>>IF
BUF IN PROCEDURE FILL_RECKEY
      2332**DCL      2330--PROC     2339--ASSIGN
BUF IN PROCEDURE FILL_VAL
      2312**DCL      2310--PROC     2324<<CALLBLT
BUF$ IN PROCEDURE FILL_RECKEY
      2335**DCL      2336--IMP-PTR  2339<<ASSIGN   2340>>ASSIGN   2342>>CALL     2343>>CALLBLT  2344<<ASSIGN
      2344>>ASSIGN   2347>>ASSIGN   2348<<ASSIGN   2348>>ASSIGN   2351>>CALL
BUFER IN PROCEDURE FILL_RECKEY
      2336**DCL      2340<<ASSIGN   2342<>CALL     2343>>CALLBLT  2347<<ASSIGN   2351<>CALL
BUFLNSF
PL6.E3A0      #005=ZIU$RPTVAL File=ZIU$VALSET.:ZIC0TSI                           FRI 09/05/97 13:34 Page:420
       819**DCL      2032<<ASSIGN   2049<<ASSIGN   2062<<ASSIGN   2098<<ASSIGN   2108<<ASSIGN   2116<<ASSIGN
      2128<<ASSIGN   2132<<ASSIGN   2139<<ASSIGN   2160<<ASSIGN   2166<<ASSIGN   2172<<ASSIGN   2188<<ASSIGN
      2192<<ASSIGN   2198<<ASSIGN   2225<<ASSIGN   2230<<ASSIGN   2250<<ASSIGN   2255<<ASSIGN   2280<<ASSIGN
      2284<<ASSIGN
BUFSF
       820**DCL      2031<<ASSIGN   2050<<ASSIGN   2061<<ASSIGN   2065<<ASSIGN   2097<<ASSIGN   2107<<ASSIGN
      2115<<ASSIGN   2127<<ASSIGN   2131<<ASSIGN   2138<<ASSIGN   2159<<ASSIGN   2165<<ASSIGN   2171<<ASSIGN
      2187<<ASSIGN   2191<<ASSIGN   2197<<ASSIGN   2224<<ASSIGN   2229<<ASSIGN   2249<<ASSIGN   2254<<ASSIGN
      2279<<ASSIGN   2283<<ASSIGN
COUNTSF
       870**DCL       871--REDEF
CURRPT.OWNER
      1187**DCL      1188--REDEF
CV1 IN PROCEDURE FILL_PAINFO
      1993**DCL      2004>>CALLBLT
DANGNXT.BADPRI
      1241**DCL      2253<>CALL
DANGNXT.OWNER
      1243**DCL      2243<>CALL
DANGNXT.PRI_RECTYP
      1242**DCL      2253<>CALL
DBKPRIOR.EXP_PRI
      1260**DCL      2169>>CALLBLT
DBKPRIOR.OWNER
      1262**DCL      2152<>CALL
DBKPRIOR.PRI_VAL
      1261**DCL      2163>>CALLBLT
DCBNMSF
       851**DCL      2013<<ASSIGN
DCBSF
       799**DCL      1934<<ASSIGN   1978<<ASSIGN   2015>>ASSIGN   2030<<ASSIGN   2047<<ASSIGN   2076<<ASSIGN
      2102<<ASSIGN   2106<<ASSIGN   2114<<ASSIGN   2126<<ASSIGN   2158<<ASSIGN   2186<<ASSIGN   2223<<ASSIGN
      2248<<ASSIGN   2278<<ASSIGN
EGREC$
      1165**DCL      1170--IMP-PTR
ENCRP_SEEDSF
PL6.E3A0      #005=ZIU$RPTVAL File=ZIU$VALSET.:ZIC0TSI                           FRI 09/05/97 13:34 Page:421
       828**DCL       829--REDEF
EOF
      1978**LABEL    1927--CALLALT  1938--CALLALT  1957--CALLALT
ERR
      1311**DCL      2097--ASSIGN   2127--ASSIGN   2159--ASSIGN   2187--ASSIGN   2224--ASSIGN   2249--ASSIGN
      2279--ASSIGN
ERR.DBK
      1313**DCL      1940<<CALLBLT  1941<>CALL     2080<<CALLBLT  2081<>CALL
ERR.PNTR
      1314**DCL      2092<<ASSIGN   2095<<ASSIGN   2124<<ASSIGN   2153<<ASSIGN   2156<<ASSIGN   2184<<ASSIGN
      2217<<ASSIGN   2220<<ASSIGN   2222<<ASSIGN   2244<<ASSIGN   2247<<ASSIGN   2270<<ASSIGN   2274<<ASSIGN
      2276<<ASSIGN
ERR.RECNME
      1315**DCL      1950<>CALL     2082<>CALL     2090<>CALL
ERR.SETNME
      1316**DCL      1951<<ASSIGN   2083<<ASSIGN
ERRBUF$
      1203**DCL      1204--IMP-PTR  1209--IMP-PTR  1216--IMP-PTR  1224--IMP-PTR  1230--IMP-PTR  1236--IMP-PTR
      1244--IMP-PTR  1255--IMP-PTR  1940>>CALLBLT  1943>>IF       1945>>ASSIGN   1945>>ASSIGN   1950>>CALL
      1951>>ASSIGN   2035>>ASSIGN   2077>>ASSIGN   2080>>CALLBLT  2082>>CALL     2083>>ASSIGN   2086>>CALL
      2087>>IF       2089>>ASSIGN   2089>>ASSIGN   2090>>CALL     2105>>CALL     2113>>CALL     2135>>CALLBLT
      2152>>CALL     2163>>CALLBLT  2169>>CALLBLT  2195>>CALL     2195>>CALL     2202>>CALL     2202>>CALL
      2216>>CALL     2228>>CALL     2243>>CALL     2253>>CALL     2253>>CALL     2269>>CALL
ERRCODE
        10**DCL      1953>>DOCASE   2035<<ASSIGN   2221>>IF       2273>>IF
ERRCODESF
       830**DCL       835--REDEF
ERRDANG
      1323**DCL      2254--ASSIGN
ERRDANG.VAL
      1328**DCL      2253<>CALL
ERRFILE.DCB#
      1200**DCL      1934>>ASSIGN   1978>>ASSIGN   2015<<ASSIGN   2030>>ASSIGN
ERRFILE.N
      1197**DCL      2013--ASSIGN
ERRGRBG
PL6.E3A0      #005=ZIU$RPTVAL File=ZIU$VALSET.:ZIC0TSI                           FRI 09/05/97 13:34 Page:422
      1317**DCL      2229--ASSIGN
ERRGRBG.VAL
      1322**DCL      2228<>CALL
ERRMISG
      1340**DCL      2131--ASSIGN
ERRMISG2
      1345**DCL      2138--ASSIGN
ERRMISG2.VAL
      1350**DCL      2135<<CALLBLT  2136<>CALL
ERRMMBR
      1335**DCL      2283--ASSIGN
ERRMULT
      1329**DCL      2107--ASSIGN   2115--ASSIGN
ERRMULT.VAL
      1334**DCL      2105<>CALL     2113<>CALL
ERROR.DBK
      1206**DCL      1940>>CALLBLT
ERROR.RECTYP
      1207**DCL      1943>>IF       1945<<ASSIGN   1945>>ASSIGN   1950<>CALL
ERROR.SETYP
      1205**DCL      1951>>ASSIGN
ERROR_BUF
      1202**DCL      2029<<ASSIGN   2031--ASSIGN
ERROWN
      1363**DCL      2191--ASSIGN
ERROWN2
      1368**DCL      2197--ASSIGN
ERROWN2.TEXT
      1371**DCL      2368<<ASSIGN   2370--ASSIGN
ERROWN2.VFC
      1369**DCL      2196<<ASSIGN   2201<<ASSIGN
FIDSF
       847**DCL      2020<<ASSIGN
FIDSF_RD
       846**DCL       847--REDEF
FIL$ IN PROCEDURE FILL_VAL
PL6.E3A0      #005=ZIU$RPTVAL File=ZIU$VALSET.:ZIC0TSI                           FRI 09/05/97 13:34 Page:423
      2316**DCL      2317--IMP-PTR  2324>>CALLBLT
FILL IN PROCEDURE FILL_VAL
      2317**DCL      2324>>CALLBLT
FILL_OWNTEXT
      2359**PROC     2195--CALL     2202--CALL
FILL_PAINFO
      1987**PROC     2086--CALL     2152--CALL     2216--CALL     2243--CALL     2269--CALL
FILL_RECKEY
      2330**PROC     2253--CALL
FILL_RECNAME
      2292**PROC     1950--CALL     2082--CALL     2090--CALL     2342--CALL
FILL_VAL
      2310**PROC     2105--CALL     2113--CALL     2228--CALL     2351--CALL
FUNSF
       810**DCL      2019<<ASSIGN
GRBGNXT.CODE
      1213**DCL      2035>>ASSIGN
GRBGNXT.NXTVAL
      1214**DCL      2228<>CALL
GRBGNXT.OWNER
      1215**DCL      2216<>CALL
HDR
      1303**DCL      2061--ASSIGN
HELPCODE
       864**DCL       869--REDEF
I
       757**DCL      2078<<DOINDEX  2100>>IF
ICHKSUM
       784**DCL       785--REDEF
INCNOWN.DBK1
      1246**DCL      2195<>CALL
INCNOWN.DBK2
      1251**DCL      2202<>CALL
INCNOWN.OWNDBK1
      1249**DCL      2195<>CALL
INCNOWN.OWNDBK2
PL6.E3A0      #005=ZIU$RPTVAL File=ZIU$VALSET.:ZIC0TSI                           FRI 09/05/97 13:34 Page:424
      1252**DCL      2202<>CALL
I_O_BUF$
       762**DCL       763--IMP-PTR
J
       758**DCL      2317--IMP-SIZ  2321<<CALLBLT  2324>>CALLBLT  2336--IMP-SIZ  2338<<ASSIGN   2340>>ASSIGN
      2341<<ASSIGN   2342>>CALL     2343<<CALLBLT  2343>>CALLBLT  2344>>ASSIGN   2346<<ASSIGN   2347>>ASSIGN
      2350<<ASSIGN   2351>>CALL     2364--IMP-SIZ  2369<<ASSIGN   2371>>ASSIGN   2376<<CALLBLT  2377<<ASSIGN
      2377>>ASSIGN   2378>>ASSIGN   2380>>ASSIGN   2381<<ASSIGN   2382>>ASSIGN   2387<<CALLBLT  2388<<ASSIGN
      2388>>ASSIGN   2389>>ASSIGN
KEY IN PROCEDURE FILL_RECKEY
      2334**DCL      2330--PROC     2351<>CALL
KEY IN PROCEDURE FILL_VAL
      2313**DCL      2310--PROC     2319>>CALLBLT
KEY1 IN PROCEDURE FILL_OWNTEXT
      2361**DCL      2359--PROC     2374>>CALLBLT
KEY2 IN PROCEDURE FILL_OWNTEXT
      2362**DCL      2359--PROC     2385>>CALLBLT
KEYSF
       801**DCL      2033<<ASSIGN
KEYVSF
       802**DCL       807--REDEF
KEYVSF.WD_ONE
       804**DCL       805--REDEF
LASTREC IN PROCEDURE REPT_MULT
      2105**LABEL    2101--CALLALT
LSTREC IN PROCEDURE REPT_MULT
      2113**LABEL    2099--CALLALT
M$LO
       772**DCL      2047>>ASSIGN   2076>>ASSIGN   2102>>ASSIGN   2106>>ASSIGN   2114>>ASSIGN   2126>>ASSIGN
      2158>>ASSIGN   2186>>ASSIGN   2223>>ASSIGN   2248>>ASSIGN   2278>>ASSIGN
MISGNXT.PRI_VAL
      1235**DCL      2135>>CALLBLT
MMBR.OWNER
      1229**DCL      2269<>CALL
MSGCODE
       836**DCL       837--REDEF
PL6.E3A0      #005=ZIU$RPTVAL File=ZIU$VALSET.:ZIC0TSI                           FRI 09/05/97 13:34 Page:425
MSTR$
      1547**DCL      1550--IMP-PTR  1951>>ASSIGN   2083>>ASSIGN   2298>>DOWHILE  2303>>ASSIGN
MSTR_REF.NAME
      1555**DCL      1951>>ASSIGN   2083>>ASSIGN   2303>>ASSIGN
MSTR_REF.NXTHSH
      1553**DCL      1554--REDEF
MSTR_REF.PAENT
      1559**DCL      1560--REDEF
MSTR_REF.PAOFF
      1556**DCL      1557--REDEF
MSTR_REF.TYPE
      1551**DCL      2298>>DOWHILE
MULTNXT.BADDBK
      1221**DCL      2080>>CALLBLT  2113<>CALL
MULTNXT.BADNXT
      1218**DCL      2105<>CALL
MULTNXT.OWNER
      1223**DCL      2086<>CALL
MULTNXT.PTCNT
      1222**DCL      2077>>ASSIGN
MULTNXT.RECTYP
      1219**DCL      2082<>CALL     2087>>IF       2089<<ASSIGN   2089>>ASSIGN   2090<>CALL
MULTNXT.SETYP
      1217**DCL      2083>>ASSIGN
NAME IN PROCEDURE FILL_RECNAME
      2294**DCL      2292--PROC     2303<<ASSIGN   2305<<ASSIGN
NO_ERRORS
      1201**DCL      2052>>IF
NO_RECS
      1609**DCL      1951>>ASSIGN   2083>>ASSIGN   2298>>DOWHILE  2302>>IF
OPEN_ERRFILE
      2011**PROC     1926--CALL
ORGSF
       800**DCL      2017<<ASSIGN
PAPTR IN PROCEDURE FILL_PAINFO
      1989**DCL      1987--PROC
PL6.E3A0      #005=ZIU$RPTVAL File=ZIU$VALSET.:ZIC0TSI                           FRI 09/05/97 13:34 Page:426
PAPTR.ENT IN PROCEDURE FILL_PAINFO
      1990**DCL      1995>>CALLBLT
PAPTR.GRP IN PROCEDURE FILL_PAINFO
      1991**DCL      1997>>IF       2002>>CALLBLT
PAPTRS
        11**DCL      1946<<ASSIGN   1949<<ASSIGN   2084>>IF       2150>>IF       2214>>IF       2241>>IF
      2267>>IF
PA_ENTRY
        14**DCL      1995<<CALLBLT  1996<>CALL     1998>>CALLBLT  2001>>CALLBLT  2004--CALLBLT
PA_GROUP
        15**DCL      2002<<CALLBLT  2003<>CALL     2004>>CALLBLT
PA_INFO
        16**DCL      1998<<CALLBLT  2004<<CALLBLT  2092>>ASSIGN   2153>>ASSIGN   2217>>ASSIGN   2244>>ASSIGN
      2270>>ASSIGN
PTSVCNT
        12**DCL      2077<<ASSIGN   2078>>DOINDEX  2100>>IF
READ_ERRFILE
      2027**PROC     1938--CALL     2101--CALL
REC$
       743**DCL       766--IMP-PTR
RECTYPE IN PROCEDURE FILL_RECKEY
      2333**DCL      2330--PROC     2342<>CALL
REC_DATA_LN
       771**DCL       770--IMP-SIZ
REC_XREF$
      1602**DCL      1603--IMP-PTR
REPT_DANG
      2239**PROC     1966--CALL
REPT_DBK
      2148**PROC     1972--CALL
REPT_GRBG
      2212**PROC     1955--CALL
REPT_MISG
      2122**PROC     1963--CALL
REPT_MMBR
      2265**PROC     1960--CALL
PL6.E3A0      #005=ZIU$RPTVAL File=ZIU$VALSET.:ZIC0TSI                           FRI 09/05/97 13:34 Page:427
REPT_MULT
      2074**PROC     1957--CALL
REPT_OWN
      2182**PROC     1969--CALL
SET_XREF$
      1591**DCL      1592--IMP-PTR
STR$ IN PROCEDURE FILL_OWNTEXT
      2365**DCL      2364--IMP-PTR  2370<<ASSIGN   2371>>ASSIGN   2372<<ASSIGN   2372>>ASSIGN   2378>>ASSIGN
      2380<<ASSIGN   2380>>ASSIGN   2382>>ASSIGN   2383<<ASSIGN   2383>>ASSIGN   2389>>ASSIGN
STRING IN PROCEDURE FILL_OWNTEXT
      2364**DCL      2371<<ASSIGN   2378<<ASSIGN   2382<<ASSIGN   2389<<ASSIGN
SYS_FUNC_CLOS
      1920**DCL-ENT  1935--CALL     1979--CALL
SYS_FUNC_GETDCB
      1923**DCL-ENT  2014--CALL
SYS_FUNC_OPEN
      1919**DCL-ENT  2021--CALL
SYS_FUNC_READ
      1921**DCL-ENT  2034--CALL
SYS_FUNC_WRIT
      1922**DCL-ENT  2055--CALL     2059--CALL     2063--CALL     2066--CALL     2099--CALL     2109--CALL
      2117--CALL     2129--CALL     2133--CALL     2140--CALL     2161--CALL     2167--CALL     2173--CALL
      2189--CALL     2193--CALL     2199--CALL     2203--CALL     2226--CALL     2231--CALL     2251--CALL
      2256--CALL     2281--CALL     2285--CALL
TMP IN PROCEDURE FILL_OWNTEXT
      2366**DCL      2374<<CALLBLT  2375<>CALL     2376>>CALLBLT  2378>>ASSIGN   2385<<CALLBLT  2386<>CALL
      2387>>CALLBLT  2389>>ASSIGN
TMP IN PROCEDURE FILL_VAL
      2315**DCL      2316--DCLINIT  2319<<CALLBLT  2320<>CALL     2321>>CALLBLT
TYPE IN PROCEDURE FILL_RECNAME
      2295**DCL      2292--PROC     2298>>DOWHILE
UNDR
      1307**DCL      2065--ASSIGN
V1 IN PROCEDURE FILL_PAINFO
      1992**DCL      1993--IMP-SIZ  2001<<CALLBLT  2004>>CALLBLT
VALHDR
PL6.E3A0      #005=ZIU$RPTVAL File=ZIU$VALSET.:ZIC0TSI                           FRI 09/05/97 13:34 Page:428
      1299**DCL      2050--ASSIGN
VALHDR.REPT
      1301**DCL      2054<<ASSIGN
VFCSF
       816**DCL      2048<<ASSIGN
WRITE_HEADER
      2045**PROC     1927--CALL
X
       760**DCL      2297<<ASSIGN   2298>>DOWHILE  2298>>DOWHILE  2299<<ASSIGN   2299>>ASSIGN   2302>>IF
      2303>>ASSIGN
ZERO_SUP
      1924**DCL-ENT  1941--CALL     1996--CALL     2003--CALL     2081--CALL     2136--CALL     2164--CALL
      2170--CALL     2320--CALL     2375--CALL     2386--CALL
ZI$DIR.ALTKEY
      1844**DCL      1845--REDEF    1846--REDEF
ZI$DIR.AREAFID
      1810**DCL      1811--REDEF
ZI$DIR.DATE
      1849**DCL      1853--REDEF
ZI$DIR.DEST_SEED
      1805**DCL      1806--REDEF    1807--REDEF
ZI$DIR.ENCP_SEED
      1802**DCL      1803--REDEF    1804--REDEF
ZI$DIR.REPRT_ERRS
      1835**DCL      2052>>IF
ZI$DIR.REPRT_ZERO
      1836**DCL      1837--REDEF
ZI$DIR.SCHFID
      1808**DCL      1809--REDEF
ZI$DIR.TIME
      1854**DCL      1859--REDEF
