
PL6.E3A0      #001=ZIU$VALSET File=ZIU$VALSET.:ZIC0TSI                           FRI 09/05/97 13:33 Page:1
        1        1        /*M* ZIU$VALSET   IDSII UTILITIES    DRIVER FOR SET VALIDATION */
        2        2        /*T***********************************************************/
        3        3        /*T*                                                         */
        4        4        /*T* Copyright (c) Bull HN Information Systems Inc., 1997    */
        5        5        /*T*                                                         */
        6        6        /*T***********************************************************/
        7        7        /*P*
        8        8           NAME: ZIU$VALSET
        9        9        PURPOSE: ZIU$VALSET Is driver for the validation of sets utility.
       10       10                 This utility checks for bad sets in the data base, builds
       11       11                 a list of bad sets within each record type, extracts
       12       12                 those records and their set pointers, sorts them and
       13       13                 applies a decision table to locate at what records the
       14       14                 sets were broken at.
       15       15
       16       16                    ZIU$VALID SPECIFICATIONS / EXPLANATION
       17       17
       18       18           The validate set processor is used to locate record occurrances in
       19       19        which set chains are somehow malformed. Broken sets are found using
       20       20        the check processor and validate is used to find out where the sets
       21       21        are broken.
       22       22
       23       23           The first process in validate is to invoke a check on the data
       24       24        base and mark all the sets that are bad. Then also mark and sets
       25       25        the user may have specified in addition to the results of check.
       26       26
       27       27           Now that the sets to be validated are known, we will create a
       28       28        list of records that are members of those sets and place that
       29       29        list in RECLIST indexed by RECINDX. Creation of this list is done
       30       30        by using the tables built by ZIU$XREF. The MSTR_REF table list
       31       31        record types/record names/PA rec info and a pointer to SET_XREF table
       32       32        where set EIS descriptors are stored for the sets in that record.
       33       33        MSTR_REF list immediately after the records - set names with assigned
       34       34        set types starting at 5000/ a set flag and a pointer to REC_XREF table
       35       35        which provides information about the records that are a member of
       36       36        the set.
       37       37
PL6.E3A0      #001=ZIU$VALSET File=ZIU$VALSET.:ZIC0TSI                           FRI 09/05/97 13:33 Page:2
       38       38           Now a new setlist is made. This list is strictly an array of
       39       39        indexes to the SET_XREF table to where the set information resides.
       40       40        Appended to each record in the reclist is a pointer to this set list,
       41       41        so that for any given record, one may quickly find all the sets that
       42       42        are to be extracted. Since more than one is possible the indexs
       43       43        are stored together and the end of the set chain is marked with a
       44       44        "-1". ie.
       45       45
       46       46                 RECLIST                 SETLIST
       47       47                 -----------             -----------
       48       48                 |mstr| set|             |set_xref |
       49       49                 | ref|    |             |---------|0
       50       50                 |---------|             |---------|1
       51       51         mstr <--| 10 |  2 | __________->|---------|2
       52       52         ref for |---------|             |     16  | -----
       53       53         record  | 12 |  5 |             |---------|3     ----> SET_XREF entry
       54       54                 |---------|             |     23  | -----
       55       55                 |    |    |             |---------|4
       56       56                 |---------|             |     -1  | --> end of set list for
       57       57                 |    |    |             |---------|5    this record
       58       58                 |---------|             |     15  |
       59       59                                         |---------|6
       60       60
       61       61        SORT PROCESS.
       62       62            The next process is accomplished by using X$SORT, with an input
       63       63        and an output procedure. The records to be sorted are records
       64       64        created as references to the physical data base records for validating
       65       65        purposes. The output procedure returns the sorted records and applies
       66       66        the validating descision process.
       67       67
       68       68        INPUT PROCEDURE.
       69       69
       70       70           The input procedure reads the data base cover to cover extracting
       71       71        each record that is listed in the RECLIST. Then, for each set within
       72       72        that record that is to be validated, two validating records are
       73       73        created. An EG record (Extract record) and a PT record (Pointer T0).
       74       74        The EG record contains the DBK, rec type, set type, prior and owner
PL6.E3A0      #001=ZIU$VALSET File=ZIU$VALSET.:ZIC0TSI                           FRI 09/05/97 13:33 Page:3
       75       75        pointer. The PT record contains the rec type,set type,DBK, owner and
       76       76        next pointer. Sort sorts the PT record file by next pointer and set
       77       77        such that after sorting, each record in the EG file will have the
       78       78        record logically before it in the data base, physically next to it in
       79       79        the PT file.
       80       80
       81       81        OUTPUT PROCEDURE.
       82       82
       83       83           This procedure reads the EG and PT files a record at a time and
       84       84        applies a descision table which will determine where any set
       85       85        problems occurr. IE. Several records may point to the same record
       86       86        within a set, some records may have no other records pointing to
       87       87        it, a prior pointer may not point back to the record that points
       88       88        to it, etc. A report of all such problems is printed through M$LO.
       89       89
       90       90
       91       91        PA RECORDS
       92       92
       93       93           The validation of pointer arrays (PA) records presents a couple of
       94       94        problems. With PA records it is common to have more than 1 next pointer
       95       95        pointing to the same record. One pointer from a PA entry to the next lower
       96       96        level PA record and also another PA record next pointer at the same level
       97       97        will point to the same record. To get around this problem I will make
       98       98        the decision table believe there are two different sets. During record
       99       99        generation, if a PA record points to a lower level PA record then I
      100      100        subtract 5000 off the set value (since the record types will start with
      101      101        the value of 5000, this ensures a unique set value). When to records
      102      102        pointing to the same PA record are encountered in the validation process,
      103      103        one will be treated as a different set.
      104      104
      105      105           Another problem with pointer arrays is that they are tree structured
      106      106        instead of network. Prior pointers do not exist for PA entries, only
      107      107        owner pointers, and these are not always pointing to the same record
      108      108        at a given level making what appeares to be inconsistant owner pointers
      109      109        to the validation decision tree. To get around this I use the owner pointer
      110      110        as the prior pointer and do not validate owner pointers at all, but instead
      111      111        but the PA record entry and group number in the owner pointer slot. If
PL6.E3A0      #001=ZIU$VALSET File=ZIU$VALSET.:ZIC0TSI                           FRI 09/05/97 13:33 Page:4
      112      112        an error occurrs with a PA entry pointer, I will find the exact entry pointer
      113      113        which is bad in the owner pointer slot. In order to know that I have this
      114      114        information in the owner pointer slot (as opposed to having an owner pointer)
      115      115        I will invert (multiply by -1) the record type as a flag. When reporting
      116      116        errors, if the record type is < 0 then I know I'm dealing with a PA entry
      117      117        pointer.
      118      118                                                                            */
      119      119        ZIU$VALSET: PROC ALTRET;
      120      120
      121      121
      122      122    1   DCL 1 PTREC STATIC SYMDEF CALIGNED,
      123      123    1         2 NEXT UBIN WORD UNAL,
      124      124    1         2 SETTYPE SBIN HALF UNAL,
      125      125    1         2 RECTYPE SBIN HALF UNAL,
      126      126    1         2 DBK UBIN WORD UNAL,
      127      127    1         2 OWNER UBIN WORD UNAL;
      128      128    1   DCL 1 PTSIZE UBIN WORD STATIC SYMDEF ALIGNED;
      129      129
      130      130
      131      131    1   DCL 1 SORT_PT STATIC ALIGNED,
      132      132    1         2 COUNT UBIN WORD INIT(1),
      133      133    1         2 ITEM (0:0),
      134      134    1           3 POSITION CHAR(2) UNAL INIT('01'),
      135      135    1           3 KEY_TYPE CHAR(2) UNAL INIT('AN'),
      136      136    1           3 STARTING UBIN WORD INIT(1),
      137      137    1           3 LENGTH UBIN WORD INIT(6),
      138      138    1           3 START_CODE UBIN(5) UNAL INIT(0),
      139      139    1           3 LENGTH_CODE UBIN(4) UNAL INIT(0),
      140      140    1           3 ORDERING CHAR(1) UNAL INIT('A'),
      141      141    1           3 TRANS_CODE CHAR(2) UNAL INIT('  ');
      142      142
      143      143    1   DCL 1 SORT_ERRS STATIC ALIGNED,
      144      144    1         2 COUNT UBIN WORD INIT(1),
      145      145    1         2 ITEM (0:0),
      146      146    1           3 POSITION CHAR(2) UNAL INIT('01'),
      147      147    1           3 KEY_TYPE CHAR(2) UNAL INIT('AN'),
      148      148    1           3 STARTING UBIN WORD INIT(1),
PL6.E3A0      #001=ZIU$VALSET File=ZIU$VALSET.:ZIC0TSI                           FRI 09/05/97 13:33 Page:5
      149      149    1           3 LENGTH UBIN WORD INIT(6),
      150      150    1           3 START_CODE UBIN(5) UNAL INIT(0),
      151      151    1           3 LENGTH_CODE UBIN(4) UNAL INIT(0),
      152      152    1           3 ORDERING CHAR(1) UNAL INIT('A'),
      153      153    1           3 TRANS_CODE CHAR(2) UNAL INIT('  ');
      154      154
      155      155    1   DCL RBUF CHAR(256) SYMREF; /* Used to pass set cmd to SYSCTL */
      156      156    1   DCL INITIAL_SORT_CALL BIT(1) STATIC SYMDEF UNAL;
      157      157
      158      158         %INCLUDE CP_6_SUBS;
      159      698         %INCLUDE CP_6;
      160      779         %F$DCB;
      161      836         %INCLUDE ZI$DIR;
      162      993         %DIR;
      163     1137         %INCLUDE ZI_DBU_XREF;
      164     1304         %XREF_TBLS;
      165     1379         %INCLUDE ZI_GLOBAL_DBUTIL;
      166     1557         %SYS_FUNC;
      167     1649         %MISC_DCLS;
      168     1702         %INCLUDE ZI_DBU_VALDTE;
      169     1970         %VALID_LIST(STCLASS="STATIC SYMDEF");
      170     2110         %INCLUDE ZL_MACRO_C;
      171     2760         %SORT_TABLE(FPTN=SORT_PTFILE,
      172     2761         INSIZ=16,
      173     2762         OUTSIZ=16,
      174     2763         PARTSIZ=6,
      175     2764         ICE=ZIU$GENRCD,
      176     2765         OCE=ZIU$VALDTE,
      177     2766         KEYS=SORT_PT,
      178     2767         STAT=YES,
      179     2768         DMP='D');
      180     2877
      181     2878         %SORT_TABLE(FPTN=SORT_ERRFILE,
      182     2879         INSIZ=30,
      183     2880         OUTSIZ=30,
      184     2881         PARTSIZ=9,
      185     2882         KEYS=SORT_ERRS,
PL6.E3A0      #001=ZIU$VALSET File=ZIU$VALSET.:ZIC0TSI                           FRI 09/05/97 13:33 Page:6
      186     2883         STAT=YES,
      187     2884         DMP='D');
      188     2993
      189     2994    1   DCL X$SORT ENTRY(1) ALTRET;
      190     2995    1   DCL ZIU$VALDTE ENTRY(2) ALTRET;
      191     2996    1   DCL ZIU$SRTDCB ENTRY; /* Set up a sort colliation dcb */
      192     2997    1   DCL ZIU$CHKVAL ENTRY ALTRET;
      193     2998    1   DCL ZIU$GENRCD ENTRY(2) ALTRET;
      194     2999    1   DCL SYS_FUNC_OPEN ENTRY ALTRET;
      195     3000    1   DCL SYS_FUNC_CLOS ENTRY ALTRET;
      196     3001    1   DCL SYS_FUNC_GETDCB ENTRY ALTRET;
      197     3002    1   DCL SYS_FUNC_RELDCB ENTRY ALTRET;
      198     3003    1   DCL SYS_FUNC_READ ENTRY ALTRET;
      199     3004    1   DCL SYS_FUNC_WRIT ENTRY ALTRET;
      200     3005    1   DCL ZIU$RPTVAL ENTRY ALTRET;
      201     3006    1   DCL BUILD_MSTR_TBL ENTRY ALTRET;
      202     3007    1   DCL BUILD_SETXREF ENTRY ALTRET;
      203     3008    1   DCL BUILD_RECXREF ENTRY ALTRET;
      204     3009    1   DCL ZIU$SYSCTL ENTRY ALTRET;
      205     3010    1   DCL SET_BUFS ENTRY(2) ALTRET;
      206     3011
      207     3012    1       REMEMBER VALID_BREAK IN BREAK_LOCAT;
      208     3013    1       CALL SET_BUFS(,32); /* Get rid of all but 32 buffers */
      209     3014
      210     3015    1       IF XREF_BUILT = %NO# THEN
      211     3016    2       DO;
      212     3017    2           CALL BUILD_MSTR_TBL ALTRET(ALT_VALID);
      213     3018    2           CALL BUILD_SETXREF ALTRET(ALT_VALID);
      214     3019    2           CALL BUILD_RECXREF ALTRET(ALT_VALID);
      215     3020    2           END;
      216     3021
      217     3022    1       IF ZI$DIR.REPRT_ERRS = %YES# THEN
      218     3023    1           GOTO RESULTS; /* Report error file only */
      219     3024
      220     3025    1       CALL ZIU$CHKVAL ALTRET(ALT_VALID);
      221     3026
      222     3027    1       CALL INIT_EG_FILE;
PL6.E3A0      #001=ZIU$VALSET File=ZIU$VALSET.:ZIC0TSI                           FRI 09/05/97 13:33 Page:7
      223     3028    1       CALL INIT_PT_FILE;
      224     3029    1       CALL ZIU$SRTDCB;
      225     3030    1       CALL OPEN_ERRFILE ALTRET(ALT_VALID);
      226     3031    1       INITIAL_SORT_CALL = %YES#;
      227     3032
      228     3033    1       IF SETINDX > 0 THEN /* Bad sets found or selected by user */
      229     3034    1           CALL X$SORT(SORT_PTFILE) ALTRET(ALT_VALID);
      230     3035
      231     3036    1       CALL CLOSE_ERRFILE;
      232     3037
      233     3038         /*     Set up sort dcbs and sort errfile - if any problems then
      234     3039            just go directly to printing the validation report. */
      235     3040    1       IF NO_ERRORS > 0 THEN /* Are there errors to be sorted */
      236     3041    2       DO;
      237     3042    2           CALL SET_SORT('F$SORTIN  ') ALTRET(RESULTS);
      238     3043    2           CALL SET_SORT('F$SORTOUT ') ALTRET(RESULTS);
      239     3044    2           CALL X$SORT(SORT_ERRFILE) ALTRET(RESULTS);
      240     3045    2           END;
      241     3046    1   RESULTS:
      242     3047    1       CALL ZIU$RPTVAL ALTRET(ALT_VALID); /* PRINT REPORT */
      243     3048    1       RETURN;
      244     3049        %EJECT;
PL6.E3A0      #001=ZIU$VALSET File=ZIU$VALSET.:ZIC0TSI                           FRI 09/05/97 13:33 Page:8
      245     3050        /*
      246     3051           This procedure initializes the EG dcb and opens the file, as
      247     3052           well as initializes the EG parameters.
      248     3053        */
      249     3054    1   INIT_EG_FILE: PROC ALTRET;
      250     3055
      251     3056    2   /**/ DCBNMSF = VECTOR(EGFILE);
      252     3057    2       CALL SYS_FUNC_GETDCB ALTRET(ALTRTN);
      253     3058    2       EGFILE.DCB# = DCBSF;
      254     3059
      255     3060    2   /**/ ORGSF = %CONSEC#;
      256     3061    2       ACSSF = %SEQUEN#;
      257     3062    2       FUNSF = %CREATE#;
      258     3063    2       ASNSF = %FILE#;
      259     3064    2       SHARESF = %NONE#;
      260     3065    2       FIDSF = '*EGFILE';
      261     3066    2       EXISTSF = %NEWFILE#;
      262     3067    2       CALL SYS_FUNC_OPEN ALTRET(ALTRTN);
      263     3068
      264     3069    2       EGREC$ = ADDR(I_O_BUF(16));
      265     3070    2       NO_EGRECS = 0;
      266     3071    2       NO_EGBUFS = 0;
      267     3072    2       EGINDX = 0;
      268     3073
      269     3074    2       RETURN;
      270     3075
      271     3076    2   ALTRTN:
      272     3077    2       ALTRETURN;
      273     3078    2   END INIT_EG_FILE;
      274     3079        %EJECT;
PL6.E3A0      #001=ZIU$VALSET File=ZIU$VALSET.:ZIC0TSI                           FRI 09/05/97 13:33 Page:9
      275     3080        /*
      276     3081           This procedure initializes the EG dcb and opens the file, as
      277     3082           well as initializes the EG parameters.
      278     3083        */
      279     3084    1   INIT_PT_FILE: PROC ALTRET;
      280     3085
      281     3086    2   DCL 1 PTFILE STATIC SYMDEF ALIGNED,
      282     3087    2         2 N,
      283     3088    2           3 C UBIN BYTE UNAL INIT(4),
      284     3089    2           3 L CHAR(4) UNAL INIT('M$PT'),
      285     3090    2         2 DCB# UBIN HALF UNAL;
      286     3091
      287     3092    2   /**/ DCBNMSF = VECTOR(PTFILE);
      288     3093    2       CALL SYS_FUNC_GETDCB ALTRET(ALTRTN);
      289     3094    2       PTFILE.DCB# = DCBSF;
      290     3095
      291     3096    2   /**/ ORGSF = %CONSEC#;
      292     3097    2       ACSSF = %SEQUEN#;
      293     3098    2       FUNSF = %CREATE#;
      294     3099    2       ASNSF = %FILE#;
      295     3100    2       SHARESF = %NONE#;
      296     3101    2       FIDSF = '*PTFILE';
      297     3102    2       EXISTSF = %NEWFILE#;
      298     3103    2       CALL SYS_FUNC_OPEN ALTRET(ALTRTN);
      299     3104
      300     3105
      301     3106    2       RETURN;
      302     3107
      303     3108    2   ALTRTN:
      304     3109    2       ALTRETURN;
      305     3110    2   END INIT_PT_FILE;
      306     3111        %EJECT;
PL6.E3A0      #001=ZIU$VALSET File=ZIU$VALSET.:ZIC0TSI                           FRI 09/05/97 13:33 Page:10
      307     3112    1   OPEN_ERRFILE: PROC ALTRET;
      308     3113
      309     3114    2   /**/ DCBNMSF = VECTOR(ERRFILE.N);
      310     3115    2       CALL SYS_FUNC_GETDCB ALTRET(ALTERR);
      311     3116    2       ERRFILE.DCB# = DCBSF;
      312     3117
      313     3118    2   /**/ ORGSF = %CONSEC#;
      314     3119    2       ACSSF = %SEQUEN#;
      315     3120    2       FUNSF = %CREATE#;
      316     3121    2       ASNSF = %FILE#;
      317     3122    2       EXISTSF = %NEWFILE#;
      318     3123    2       FIDSF = '*ERRFILE';
      319     3124    2       CALL SYS_FUNC_OPEN ALTRET(ALTERR);
      320     3125    2       RETURN;
      321     3126    2   ALTERR:
      322     3127    2       ALTRETURN;
      323     3128    2   END OPEN_ERRFILE;
      324     3129
      325     3130    1   CLOSE_ERRFILE: PROC;
      326     3131    2   /**/ DCBSF = ERRFILE.DCB#;
      327     3132    2       CALL SYS_FUNC_CLOS;
      328     3133    2       RETURN;
      329     3134    2   END CLOSE_ERRFILE;
      330     3135        %EJECT;
PL6.E3A0      #001=ZIU$VALSET File=ZIU$VALSET.:ZIC0TSI                           FRI 09/05/97 13:33 Page:11
      331     3136        /*
      332     3137              Set F$SORTIN AND F$SORTOUT for sorting the errfile.
      333     3138        */
      334     3139    1   SET_SORT: PROC(DCBNM) ALTRET;
      335     3140
      336     3141    2   DCL DCBNM CHAR(10);
      337     3142    2   DCL K SBIN;
      338     3143    2   DCL DCB$ PTR;
      339     3144
      340     3145    2       DCB$ = DCBADDR(ERRFILE.DCB#);
      341     3146    2       CALL CONCAT(RBUF,'SET ',DCBNM);
      342     3147    2       J = 14;
      343     3148    2       IF DCB$->F$DCB.PSN# ~= ' '
      344     3149    3       THEN DO;
      345     3150    3           CALL INDEX(K,' ',DCB$->F$DCB.PSN#);
      346     3151    3           CALL INSERT(RBUF,J,,'DP#',SUBSTR(DCB$->F$DCB.PSN#,0,K),'/');
      347     3152    3           J = J + K + 4;
      348     3153    3           END;
      349     3154    2       CALL INSERT(RBUF,J,,DCB$->F$DCB.NAME#.C);
      350     3155    2       J = J + DCB$->F$DCB.NAME#.L;
      351     3156    2       CALL INSERT(RBUF,J,,'.',DCB$->F$DCB.ACCT#);
      352     3157    2       CALL ZIU$SYSCTL ALTRET(ALTSET);
      353     3158    2       RETURN;
      354     3159    2   ALTSET:
      355     3160    2       ALTRETURN;
      356     3161    2   END SET_SORT;
      357     3162        %EJECT;
PL6.E3A0      #001=ZIU$VALSET File=ZIU$VALSET.:ZIC0TSI                           FRI 09/05/97 13:33 Page:12
      358     3163        /*
      359     3164                      BREAK CONTROL LOCATION TO CLOSE FILES
      360     3165        */
      361     3166    1   VALID_BREAK:
      362     3167    1       DCBSF = ZI$DIR.AREA_NM.DCB#;
      363     3168    1       IF DCBADDR(DCBSF) -> F$DCB.FCD# = %YES# THEN
      364     3169    2       DO;
      365     3170    2           CALL SYS_FUNC_CLOS;
      366     3171    2           CALL SYS_FUNC_RELDCB;
      367     3172    2           END;
      368     3173
      369     3174    1       DCBSF = ERRFILE.DCB#;
      370     3175    1       IF DCBSF < 100 THEN /* INIT'ED AT 1000 */
      371     3176    1           IF DCBADDR(DCBSF) -> F$DCB.FCD# = %YES# THEN
      372     3177    2           DO;
      373     3178    2               CALL SYS_FUNC_CLOS;
      374     3179    2               CALL SYS_FUNC_RELDCB;
      375     3180    2               END;
      376     3181
      377     3182    1       IF BREAK_FLAG>0 THEN /* IF ABORT BECAUSE BREAK HIT */
      378     3183    1           RETURN; /* RETURN NORMALLY */
      379     3184
      380     3185    1   ALT_VALID:
      381     3186    1       ALTRETURN;
      382     3187    1   END ZIU$VALSET;
      383     3188        %EOD;

PL6.E3A0      #001=ZIU$VALSET File=ZIU$VALSET.:ZIC0TSI                           FRI 09/05/97 13:33 Page:13
--  Include file information  --

   ZL_MACRO_C.:TOOLE05  is referenced.
   ZI_DBU_VALDTE.:ZIC0TOU  is referenced.
   ZI_GLOBAL_DBUTIL.:ZIC0TOU  is referenced.
   ZI_DBU_XREF.:ZIC0TOU  cannot be made into a system file and is referenced.
   ZI$DIR.:ZIC0TOU  is referenced.
   CP_6.:LIB_E05  cannot be made into a system file and is referenced.
   CP_6_SUBS.:LIB_E05  is referenced.
   B$JIT_C.:E05TOU  was found in the system file and is never referenced.
   CP_6_C.:E05TOU  was found in the system file and is referenced.
      No diagnostics issued in procedure ZIU$VALSET.

   Procedure ZIU$VALSET requires 291 words for executable code.
   Procedure ZIU$VALSET requires 10 words of local(AUTO) storage.

PL6.E3A0      #001=ZIU$VALSET File=ZIU$VALSET.:ZIC0TSI                           FRI 09/05/97 13:33 Page:14

 Object Unit name= ZIU$VALSET                                 File name= ZIU$VALSET.:ZIC0TOU
 UTS= SEP 05 '97 13:33:16.20 FRI                              Compiler= PL-6/E31         Sev=      00
 SharedLib= :SHARED_SYSTEM                                    Alt SharedLib=


    ****  Control sections  ****

 Sect   Type Bound  Init  Size OctSiz  Section name(segment info)
    0   Data  even  none   572   1074  ZIU$VALSET
    1   DCB   even  none     0      0  M$UC
    2   DCB   even  none     0      0  M$LO
    3  RoData even  UTS     14     16  ZIU$VALSET
    4   Proc  even  none   291    443  ZIU$VALSET
    5  RoData even  none    20     24  ZIU$VALSET

    ****  Entry defs  ****

                              Check   Calling
                             calling  sequence
  Sect OctLoc Primary Altret sequence   type   Parms  Name
     4      0   yes    yes     yes      Std        0  ZIU$VALSET
PL6.E3A0      #001=ZIU$VALSET File=ZIU$VALSET.:ZIC0TSI                           FRI 09/05/97 13:33 Page:15

  ****  Data defs  ****

 Sect OctLoc  Name                           Sect OctLoc  Name
    0      0  PTREC                              0      4  PTSIZE
    0     17  INITIAL_SORT_CALL                  0     20  BREAK_LOCAT
    0     22  RECLIST                            0    332  SETLIST
    0    724  SETINDX                            0    725  RECINDX
    0    726  HIGH_RECINDX                       0    727  EGREC$
    0    730  EGINDX                             0    731  NO_EGRECS
    0    732  NO_EGBUFS                          0    733  LAST_EGINDX
    0    734  CURREG                             0    740  CURRPT
    0    744  EGFILE                             0    746  ERRFILE
    0    750  NO_ERRORS                          0    751  ERROR_BUF
    0    761  ERRBUF$                            0   1072  PTFILE

  ****  Entry refs  ****

         Check        Calling
        calling       sequence
Altret sequence SRef   type   Args  Name
 yes     yes           Std       2 ZIU$GENRCD
 yes     yes           Std       2 ZIU$VALDTE
 yes     yes           Std       2 SET_BUFS
 yes     yes           Std       0 ZIU$RPTVAL
 yes     yes           Std       0 BUILD_MSTR_TBL
 yes     yes           Std       0 SYS_FUNC_RELDCB
 yes     yes           Std       0 BUILD_SETXREF
 yes     yes           Std       0 SYS_FUNC_CLOS
 yes     yes           Std       0 ZIU$CHKVAL
 yes     yes           Std       1 X$SORT
 yes     yes           Std       0 BUILD_RECXREF
         yes           Std       0 ZIU$SRTDCB
 yes     yes           Std       0 SYS_FUNC_GETDCB
 yes     yes           Std       0 SYS_FUNC_OPEN
 yes     yes           Std       0 ZIU$SYSCTL
                       nStd      0 X66_AUTO_0
                       nStd      0 X66_ARET
PL6.E3A0      #001=ZIU$VALSET File=ZIU$VALSET.:ZIC0TSI                           FRI 09/05/97 13:33 Page:16
                       nStd      0 X66_AALT

  ****  Data refs  ****

  Flags:  r = read only, s = secondary
Flgs Name                             Flgs Name                             Flgs Name
     RBUF                                  M$UC                                  ZI$DIR
     SCHEMA_ACTIVE                         RECORD_LIST                           SET_LIST
     RETAIN_LIST                           DUMP_FID                              ALTKY
     INIT_RG                               KEY_RNG                               ITEM_LIST
     TYPE                                  MSTR$                                 NXT_MSLOT
     MAX_MSLOT                             MSTR_INDX                             HASHTBL
     HASHINDX                              LOC_MODE                              AREA_KEY$
     NO_AREAS                              GLBL_PTR_SZ                           SET_XREF$
     NXT_SSLOT                             MAX_SSLOT                             REC_XREF$
     NXT_RSLOT                             MAX_RSLOT                             NO_RECS
     NO_SETS                               XREF_BUILT                            TYPESET
     TYPEREC                               BLKLSF                                KEYLSF
     KEYXSF                                DCBSF                                 ORGSF
     KEYSF                                 KEYVSF                                ACSSF
     NOTIMESF                              FUNSF                                 ASNSF
     TESTSF                                XTENSIZESF                            DISPSF
     WAITSF                                VFCSF                                 FULLSF
     BKUPSF                                BUFLNSF                               BUFSF
     SOURCESF                              DESTSF                                DATESF
     TIMESF                                UTSSF                                 DAYSF
     TSTAMPSF                              ENCRP_SEEDSF                          ERRCODESF
     MSGCODE                               INCL_ERR                              ERR_INSERT
     FIDSF_RD                              ACNT                                  EXISTSF
     SHARESF                               DCBNMSF                               KEYRSF
     NO_KEYSF                              REASGNSF                              CARRY_ATTRIBUTESF
     SUBMESSF                              SPKY_OPNSF                            POSSF
     ERRFLGSF                              MERGESF                               FSA_FLAG
     RELGSF                                UNUSED                                HELPCODE
     COUNTSF                               INDEXSF                               GAP
     PSNSF                                 ACNTSF                                KEY_SHADWSF
     REC$                                  RB                                    RE
PL6.E3A0      #001=ZIU$VALSET File=ZIU$VALSET.:ZIC0TSI                           FRI 09/05/97 13:33 Page:17
     IE                                    IB                                    CNT
     ICNT                                  RCNT                                  SCNT
     FIRST_SET                             RETCNT                                DMPCNT
     KCNT                                  ACNT_IDX                              I
     J                                     K                                     X
     STEPCC                                I_O_BUF$                              OUT_INDX
     I_O_SIZE                              REC_DATA_LN                           M$LO
     B$TCB$                                B$ROS$                                B$JIT$
     KEYFID                                I_O_KEY                               RESTART
     BREAK_FLAG                            ICHKSUM                               ITMCNT
     GAP1

  ****  Segment refs  ****

  Flags:  r = read only, s = secondary
Flgs Name                             Flgs Name                             Flgs Name
     ISSID                                 NULLSID                               ROSID
PL6.E3A0      #001=ZIU$VALSET File=ZIU$VALSET.:ZIC0TSI                           FRI 09/05/97 13:33 Page:18


        1        1        /*M* ZIU$VALSET   IDSII UTILITIES    DRIVER FOR SET VALIDATION */
        2        2        /*T***********************************************************/
        3        3        /*T*                                                         */
        4        4        /*T* Copyright (c) Bull HN Information Systems Inc., 1997    */
        5        5        /*T*                                                         */
        6        6        /*T***********************************************************/
        7        7        /*P*
        8        8           NAME: ZIU$VALSET
        9        9        PURPOSE: ZIU$VALSET Is driver for the validation of sets utility.
       10       10                 This utility checks for bad sets in the data base, builds
       11       11                 a list of bad sets within each record type, extracts
       12       12                 those records and their set pointers, sorts them and
       13       13                 applies a decision table to locate at what records the
       14       14                 sets were broken at.
       15       15
       16       16                    ZIU$VALID SPECIFICATIONS / EXPLANATION
       17       17
       18       18           The validate set processor is used to locate record occurrances in
       19       19        which set chains are somehow malformed. Broken sets are found using
       20       20        the check processor and validate is used to find out where the sets
       21       21        are broken.
       22       22
       23       23           The first process in validate is to invoke a check on the data
       24       24        base and mark all the sets that are bad. Then also mark and sets
       25       25        the user may have specified in addition to the results of check.
       26       26
       27       27           Now that the sets to be validated are known, we will create a
       28       28        list of records that are members of those sets and place that
       29       29        list in RECLIST indexed by RECINDX. Creation of this list is done
       30       30        by using the tables built by ZIU$XREF. The MSTR_REF table list
       31       31        record types/record names/PA rec info and a pointer to SET_XREF table
       32       32        where set EIS descriptors are stored for the sets in that record.
       33       33        MSTR_REF list immediately after the records - set names with assigned
       34       34        set types starting at 5000/ a set flag and a pointer to REC_XREF table
       35       35        which provides information about the records that are a member of
       36       36        the set.
PL6.E3A0      #001=ZIU$VALSET File=ZIU$VALSET.:ZIC0TSI                           FRI 09/05/97 13:33 Page:19
       37       37
       38       38           Now a new setlist is made. This list is strictly an array of
       39       39        indexes to the SET_XREF table to where the set information resides.
       40       40        Appended to each record in the reclist is a pointer to this set list,
       41       41        so that for any given record, one may quickly find all the sets that
       42       42        are to be extracted. Since more than one is possible the indexs
       43       43        are stored together and the end of the set chain is marked with a
       44       44        "-1". ie.
       45       45
       46       46                 RECLIST                 SETLIST
       47       47                 -----------             -----------
       48       48                 |mstr| set|             |set_xref |
       49       49                 | ref|    |             |---------|0
       50       50                 |---------|             |---------|1
       51       51         mstr <--| 10 |  2 | __________->|---------|2
       52       52         ref for |---------|             |     16  | -----
       53       53         record  | 12 |  5 |             |---------|3     ----> SET_XREF entry
       54       54                 |---------|             |     23  | -----
       55       55                 |    |    |             |---------|4
       56       56                 |---------|             |     -1  | --> end of set list for
       57       57                 |    |    |             |---------|5    this record
       58       58                 |---------|             |     15  |
       59       59                                         |---------|6
       60       60
       61       61        SORT PROCESS.
       62       62            The next process is accomplished by using X$SORT, with an input
       63       63        and an output procedure. The records to be sorted are records
       64       64        created as references to the physical data base records for validating
       65       65        purposes. The output procedure returns the sorted records and applies
       66       66        the validating descision process.
       67       67
       68       68        INPUT PROCEDURE.
       69       69
       70       70           The input procedure reads the data base cover to cover extracting
       71       71        each record that is listed in the RECLIST. Then, for each set within
       72       72        that record that is to be validated, two validating records are
       73       73        created. An EG record (Extract record) and a PT record (Pointer T0).
PL6.E3A0      #001=ZIU$VALSET File=ZIU$VALSET.:ZIC0TSI                           FRI 09/05/97 13:33 Page:20
       74       74        The EG record contains the DBK, rec type, set type, prior and owner
       75       75        pointer. The PT record contains the rec type,set type,DBK, owner and
       76       76        next pointer. Sort sorts the PT record file by next pointer and set
       77       77        such that after sorting, each record in the EG file will have the
       78       78        record logically before it in the data base, physically next to it in
       79       79        the PT file.
       80       80
       81       81        OUTPUT PROCEDURE.
       82       82
       83       83           This procedure reads the EG and PT files a record at a time and
       84       84        applies a descision table which will determine where any set
       85       85        problems occurr. IE. Several records may point to the same record
       86       86        within a set, some records may have no other records pointing to
       87       87        it, a prior pointer may not point back to the record that points
       88       88        to it, etc. A report of all such problems is printed through M$LO.
       89       89
       90       90
       91       91        PA RECORDS
       92       92
       93       93           The validation of pointer arrays (PA) records presents a couple of
       94       94        problems. With PA records it is common to have more than 1 next pointer
       95       95        pointing to the same record. One pointer from a PA entry to the next lower
       96       96        level PA record and also another PA record next pointer at the same level
       97       97        will point to the same record. To get around this problem I will make
       98       98        the decision table believe there are two different sets. During record
       99       99        generation, if a PA record points to a lower level PA record then I
      100      100        subtract 5000 off the set value (since the record types will start with
      101      101        the value of 5000, this ensures a unique set value). When to records
      102      102        pointing to the same PA record are encountered in the validation process,
      103      103        one will be treated as a different set.
      104      104
      105      105           Another problem with pointer arrays is that they are tree structured
      106      106        instead of network. Prior pointers do not exist for PA entries, only
      107      107        owner pointers, and these are not always pointing to the same record
      108      108        at a given level making what appeares to be inconsistant owner pointers
      109      109        to the validation decision tree. To get around this I use the owner pointer
      110      110        as the prior pointer and do not validate owner pointers at all, but instead
PL6.E3A0      #001=ZIU$VALSET File=ZIU$VALSET.:ZIC0TSI                           FRI 09/05/97 13:33 Page:21
      111      111        but the PA record entry and group number in the owner pointer slot. If
      112      112        an error occurrs with a PA entry pointer, I will find the exact entry pointer
      113      113        which is bad in the owner pointer slot. In order to know that I have this
      114      114        information in the owner pointer slot (as opposed to having an owner pointer)
      115      115        I will invert (multiply by -1) the record type as a flag. When reporting
      116      116        errors, if the record type is < 0 then I know I'm dealing with a PA entry
      117      117        pointer.
      118      118                                                                            */
      119      119        ZIU$VALSET: PROC ALTRET;

    119  4 000000   000000 700200 xent  ZIU$VALSET   TSX0  ! X66_AUTO_0
         4 000001   000012 000000                    ZERO    10,0

      120      120
      121      121
      122      122    1   DCL 1 PTREC STATIC SYMDEF CALIGNED,
      123      123    1         2 NEXT UBIN WORD UNAL,
      124      124    1         2 SETTYPE SBIN HALF UNAL,
      125      125    1         2 RECTYPE SBIN HALF UNAL,
      126      126    1         2 DBK UBIN WORD UNAL,
      127      127    1         2 OWNER UBIN WORD UNAL;
      128      128    1   DCL 1 PTSIZE UBIN WORD STATIC SYMDEF ALIGNED;
      129      129
      130      130
      131      131    1   DCL 1 SORT_PT STATIC ALIGNED,
      132      132    1         2 COUNT UBIN WORD INIT(1),
      133      133    1         2 ITEM (0:0),
      134      134    1           3 POSITION CHAR(2) UNAL INIT('01'),
      135      135    1           3 KEY_TYPE CHAR(2) UNAL INIT('AN'),
      136      136    1           3 STARTING UBIN WORD INIT(1),
      137      137    1           3 LENGTH UBIN WORD INIT(6),
      138      138    1           3 START_CODE UBIN(5) UNAL INIT(0),
      139      139    1           3 LENGTH_CODE UBIN(4) UNAL INIT(0),
      140      140    1           3 ORDERING CHAR(1) UNAL INIT('A'),
      141      141    1           3 TRANS_CODE CHAR(2) UNAL INIT('  ');
      142      142
      143      143    1   DCL 1 SORT_ERRS STATIC ALIGNED,
PL6.E3A0      #001=ZIU$VALSET File=ZIU$VALSET.:ZIC0TSI                           FRI 09/05/97 13:33 Page:22
      144      144    1         2 COUNT UBIN WORD INIT(1),
      145      145    1         2 ITEM (0:0),
      146      146    1           3 POSITION CHAR(2) UNAL INIT('01'),
      147      147    1           3 KEY_TYPE CHAR(2) UNAL INIT('AN'),
      148      148    1           3 STARTING UBIN WORD INIT(1),
      149      149    1           3 LENGTH UBIN WORD INIT(6),
      150      150    1           3 START_CODE UBIN(5) UNAL INIT(0),
      151      151    1           3 LENGTH_CODE UBIN(4) UNAL INIT(0),
      152      152    1           3 ORDERING CHAR(1) UNAL INIT('A'),
      153      153    1           3 TRANS_CODE CHAR(2) UNAL INIT('  ');
      154      154
      155      155    1   DCL RBUF CHAR(256) SYMREF; /* Used to pass set cmd to SYSCTL */
      156      156    1   DCL INITIAL_SORT_CALL BIT(1) STATIC SYMDEF UNAL;
      157      157
      158      158         %INCLUDE CP_6_SUBS;
      159      698         %INCLUDE CP_6;
      160      779         %F$DCB;
      161      836         %INCLUDE ZI$DIR;
      162      993         %DIR;
      163     1137         %INCLUDE ZI_DBU_XREF;
      164     1304         %XREF_TBLS;
      165     1379         %INCLUDE ZI_GLOBAL_DBUTIL;
      166     1557         %SYS_FUNC;
      167     1649         %MISC_DCLS;
      168     1702         %INCLUDE ZI_DBU_VALDTE;
      169     1970         %VALID_LIST(STCLASS="STATIC SYMDEF");
      170     2110         %INCLUDE ZL_MACRO_C;
      171     2760         %SORT_TABLE(FPTN=SORT_PTFILE,
      172     2761         INSIZ=16,
      173     2762         OUTSIZ=16,
      174     2763         PARTSIZ=6,
      175     2764         ICE=ZIU$GENRCD,
      176     2765         OCE=ZIU$VALDTE,
      177     2766         KEYS=SORT_PT,
      178     2767         STAT=YES,
      179     2768         DMP='D');
      180     2877
PL6.E3A0      #001=ZIU$VALSET File=ZIU$VALSET.:ZIC0TSI                           FRI 09/05/97 13:33 Page:23
      181     2878         %SORT_TABLE(FPTN=SORT_ERRFILE,
      182     2879         INSIZ=30,
      183     2880         OUTSIZ=30,
      184     2881         PARTSIZ=9,
      185     2882         KEYS=SORT_ERRS,
      186     2883         STAT=YES,
      187     2884         DMP='D');
      188     2993
      189     2994    1   DCL X$SORT ENTRY(1) ALTRET;
      190     2995    1   DCL ZIU$VALDTE ENTRY(2) ALTRET;
      191     2996    1   DCL ZIU$SRTDCB ENTRY; /* Set up a sort colliation dcb */
      192     2997    1   DCL ZIU$CHKVAL ENTRY ALTRET;
      193     2998    1   DCL ZIU$GENRCD ENTRY(2) ALTRET;
      194     2999    1   DCL SYS_FUNC_OPEN ENTRY ALTRET;
      195     3000    1   DCL SYS_FUNC_CLOS ENTRY ALTRET;
      196     3001    1   DCL SYS_FUNC_GETDCB ENTRY ALTRET;
      197     3002    1   DCL SYS_FUNC_RELDCB ENTRY ALTRET;
      198     3003    1   DCL SYS_FUNC_READ ENTRY ALTRET;
      199     3004    1   DCL SYS_FUNC_WRIT ENTRY ALTRET;
      200     3005    1   DCL ZIU$RPTVAL ENTRY ALTRET;
      201     3006    1   DCL BUILD_MSTR_TBL ENTRY ALTRET;
      202     3007    1   DCL BUILD_SETXREF ENTRY ALTRET;
      203     3008    1   DCL BUILD_RECXREF ENTRY ALTRET;
      204     3009    1   DCL ZIU$SYSCTL ENTRY ALTRET;
      205     3010    1   DCL SET_BUFS ENTRY(2) ALTRET;
      206     3011
      207     3012    1       REMEMBER VALID_BREAK IN BREAK_LOCAT;

   3012  4 000002   000376 635000 4                  EAA     VALID_BREAK
         4 000003   000020 452400 0                  STP2    BREAK_LOCAT
         4 000004   000021 755000 0                  STA     BREAK_LOCAT+1

      208     3013    1       CALL SET_BUFS(,32); /* Get rid of all but 32 buffers */

   3013  4 000005   000003 236000 5                  LDQ     3
         4 000006   000001 235000 5                  LDA     1
         4 000007   200010 757100                    STAQ    DCB$+1,,AUTO
PL6.E3A0      #001=ZIU$VALSET File=ZIU$VALSET.:ZIC0TSI                           FRI 09/05/97 13:33 Page:24
         4 000010   200010 630500                    EPPR0   DCB$+1,,AUTO
         4 000011   000000 631400 5                  EPPR1   0
         4 000012   000000 701000 xent               TSX1    SET_BUFS
         4 000013   000000 011000                    NOP     0

      209     3014
      210     3015    1       IF XREF_BUILT = %NO# THEN

   3015  4 000014   000000 234000 xsym               SZN     XREF_BUILT
         4 000015   000027 604000 4                  TMI     s:3022

      211     3016    2       DO;

      212     3017    2           CALL BUILD_MSTR_TBL ALTRET(ALT_VALID);

   3017  4 000016   000004 631400 5                  EPPR1   4
         4 000017   000000 701000 xent               TSX1    BUILD_MSTR_TBL
         4 000020   000442 702000 4                  TSX2    ALT_VALID

      213     3018    2           CALL BUILD_SETXREF ALTRET(ALT_VALID);

   3018  4 000021   000004 631400 5                  EPPR1   4
         4 000022   000000 701000 xent               TSX1    BUILD_SETXREF
         4 000023   000442 702000 4                  TSX2    ALT_VALID

      214     3019    2           CALL BUILD_RECXREF ALTRET(ALT_VALID);

   3019  4 000024   000004 631400 5                  EPPR1   4
         4 000025   000000 701000 xent               TSX1    BUILD_RECXREF
         4 000026   000442 702000 4                  TSX2    ALT_VALID

      215     3020    2           END;

      216     3021
      217     3022    1       IF ZI$DIR.REPRT_ERRS = %YES# THEN

   3022  4 000027   000125 236000 xsym               LDQ     ZI$DIR+85
PL6.E3A0      #001=ZIU$VALSET File=ZIU$VALSET.:ZIC0TSI                           FRI 09/05/97 13:33 Page:25
         4 000030   000040 316007                    CANQ    32,DL
         4 000031   000076 601000 4                  TNZ     RESULTS

      218     3023    1           GOTO RESULTS; /* Report error file only */
      219     3024
      220     3025    1       CALL ZIU$CHKVAL ALTRET(ALT_VALID);

   3025  4 000032   000004 631400 5                  EPPR1   4
         4 000033   000000 701000 xent               TSX1    ZIU$CHKVAL
         4 000034   000442 702000 4                  TSX2    ALT_VALID

      221     3026
      222     3027    1       CALL INIT_EG_FILE;

   3027  4 000035   000102 701000 4                  TSX1    INIT_EG_FILE
         4 000036   000000 011000                    NOP     0

      223     3028    1       CALL INIT_PT_FILE;

   3028  4 000037   000145 701000 4                  TSX1    INIT_PT_FILE
         4 000040   000000 011000                    NOP     0

      224     3029    1       CALL ZIU$SRTDCB;

   3029  4 000041   000004 631400 5                  EPPR1   4
         4 000042   000000 701000 xent               TSX1    ZIU$SRTDCB
         4 000043   000000 011000                    NOP     0

      225     3030    1       CALL OPEN_ERRFILE ALTRET(ALT_VALID);

   3030  4 000044   000202 701000 4                  TSX1    OPEN_ERRFILE
         4 000045   000442 702000 4                  TSX2    ALT_VALID

      226     3031    1       INITIAL_SORT_CALL = %YES#;

   3031  4 000046   400000 236003                    LDQ     -131072,DU
         4 000047   000017 756000 0                  STQ     INITIAL_SORT_CALL
PL6.E3A0      #001=ZIU$VALSET File=ZIU$VALSET.:ZIC0TSI                           FRI 09/05/97 13:33 Page:26

      227     3032
      228     3033    1       IF SETINDX > 0 THEN /* Bad sets found or selected by user */

   3033  4 000050   000724 235000 0                  LDA     SETINDX
         4 000051   000056 604400 4                  TMOZ    s:3036

      229     3034    1           CALL X$SORT(SORT_PTFILE) ALTRET(ALT_VALID);

   3034  4 000052   000006 630400 5                  EPPR0   6
         4 000053   000005 631400 5                  EPPR1   5
         4 000054   000000 701000 xent               TSX1    X$SORT
         4 000055   000442 702000 4                  TSX2    ALT_VALID

      230     3035
      231     3036    1       CALL CLOSE_ERRFILE;

   3036  4 000056   000236 701000 4                  TSX1    CLOSE_ERRFILE
         4 000057   000000 011000                    NOP     0

      232     3037
      233     3038         /*     Set up sort dcbs and sort errfile - if any problems then
      234     3039            just go directly to printing the validation report. */
      235     3040    1       IF NO_ERRORS > 0 THEN /* Are there errors to be sorted */

   3040  4 000060   000750 235000 0                  LDA     NO_ERRORS
         4 000061   000076 604400 4                  TMOZ    RESULTS

      236     3041    2       DO;

      237     3042    2           CALL SET_SORT('F$SORTIN  ') ALTRET(RESULTS);

   3042  4 000062   000007 236000 5                  LDQ     7
         4 000063   200005 756100                    STQ     5,,AUTO
         4 000064   000251 701000 4                  TSX1    SET_SORT
         4 000065   000076 702000 4                  TSX2    RESULTS

PL6.E3A0      #001=ZIU$VALSET File=ZIU$VALSET.:ZIC0TSI                           FRI 09/05/97 13:33 Page:27
      238     3043    2           CALL SET_SORT('F$SORTOUT ') ALTRET(RESULTS);

   3043  4 000066   000010 236000 5                  LDQ     8
         4 000067   200005 756100                    STQ     5,,AUTO
         4 000070   000251 701000 4                  TSX1    SET_SORT
         4 000071   000076 702000 4                  TSX2    RESULTS

      239     3044    2           CALL X$SORT(SORT_ERRFILE) ALTRET(RESULTS);

   3044  4 000072   000011 630400 5                  EPPR0   9
         4 000073   000005 631400 5                  EPPR1   5
         4 000074   000000 701000 xent               TSX1    X$SORT
         4 000075   000076 702000 4                  TSX2    RESULTS

      240     3045    2           END;

      241     3046    1   RESULTS:
      242     3047    1       CALL ZIU$RPTVAL ALTRET(ALT_VALID); /* PRINT REPORT */

   3047  4 000076   000004 631400 5     RESULTS      EPPR1   4
         4 000077   000000 701000 xent               TSX1    ZIU$RPTVAL
         4 000100   000442 702000 4                  TSX2    ALT_VALID

      243     3048    1       RETURN;

   3048  4 000101   000000 702200 xent               TSX2  ! X66_ARET

      244     3049        %EJECT;
PL6.E3A0      #001=ZIU$VALSET File=ZIU$VALSET.:ZIC0TSI                           FRI 09/05/97 13:33 Page:28
      245     3050        /*
      246     3051           This procedure initializes the EG dcb and opens the file, as
      247     3052           well as initializes the EG parameters.
      248     3053        */
      249     3054    1   INIT_EG_FILE: PROC ALTRET;

   3054  4 000102   200004 741300       INIT_EG_FILE STX1  ! 4,,AUTO

      250     3055
      251     3056    2   /**/ DCBNMSF = VECTOR(EGFILE);

   3056  4 000103   000012 237000 5                  LDAQ    10
         4 000104   000000 755000 xsym               STA     DCBNMSF
         4 000105   000001 756000 xsym               STQ     DCBNMSF+1

      252     3057    2       CALL SYS_FUNC_GETDCB ALTRET(ALTRTN);

   3057  4 000106   000004 631400 5                  EPPR1   4
         4 000107   000000 701000 xent               TSX1    SYS_FUNC_GETDCB
         4 000110   000143 702000 4                  TSX2    ALTRTN

      253     3058    2       EGFILE.DCB# = DCBSF;

   3058  4 000111   000000 236000 xsym               LDQ     DCBSF
         4 000112   000011 772000                    QRL     9
         4 000113   000745 552030 0                  STBQ    EGFILE+1,'30'O

      254     3059
      255     3060    2   /**/ ORGSF = %CONSEC#;

   3060  4 000114   000001 235007                    LDA     1,DL
         4 000115   000000 755000 xsym               STA     ORGSF

      256     3061    2       ACSSF = %SEQUEN#;

   3061  4 000116   000000 755000 xsym               STA     ACSSF

PL6.E3A0      #001=ZIU$VALSET File=ZIU$VALSET.:ZIC0TSI                           FRI 09/05/97 13:33 Page:29
      257     3062    2       FUNSF = %CREATE#;

   3062  4 000117   000003 236007                    LDQ     3,DL
         4 000120   000000 756000 xsym               STQ     FUNSF

      258     3063    2       ASNSF = %FILE#;

   3063  4 000121   000000 755000 xsym               STA     ASNSF

      259     3064    2       SHARESF = %NONE#;

   3064  4 000122   600000 236003                    LDQ     -65536,DU
         4 000123   000000 756000 xsym               STQ     SHARESF

      260     3065    2       FIDSF = '*EGFILE';

   3065  4 000124   040000 100400                    MLR     fill='040'O
         4 000125   000006 000007 3                  ADSC9   6                        cn=0,n=7
         4 000126   000000 000036 xsym               ADSC9   FIDSF_RD                 cn=0,n=30

      261     3066    2       EXISTSF = %NEWFILE#;

   3066  4 000127   000000 756000 xsym               STQ     EXISTSF

      262     3067    2       CALL SYS_FUNC_OPEN ALTRET(ALTRTN);

   3067  4 000130   000004 631400 5                  EPPR1   4
         4 000131   000000 701000 xent               TSX1    SYS_FUNC_OPEN
         4 000132   000143 702000 4                  TSX2    ALTRTN

      263     3068
      264     3069    2       EGREC$ = ADDR(I_O_BUF(16));

   3069  4 000133   000000 236000 xsym               LDQ     I_O_BUF$
         4 000134   040000 036003                    ADLQ    16384,DU
         4 000135   000727 756000 0                  STQ     EGREC$

PL6.E3A0      #001=ZIU$VALSET File=ZIU$VALSET.:ZIC0TSI                           FRI 09/05/97 13:33 Page:30
      265     3070    2       NO_EGRECS = 0;

   3070  4 000136   000731 450000 0                  STZ     NO_EGRECS

      266     3071    2       NO_EGBUFS = 0;

   3071  4 000137   000732 450000 0                  STZ     NO_EGBUFS

      267     3072    2       EGINDX = 0;

   3072  4 000140   000730 450000 0                  STZ     EGINDX

      268     3073
      269     3074    2       RETURN;

   3074  4 000141   200004 221300                    LDX1  ! 4,,AUTO
         4 000142   000001 702211                    TSX2  ! 1,X1

      270     3075
      271     3076    2   ALTRTN:
      272     3077    2       ALTRETURN;

   3077  4 000143   200004 221300       ALTRTN       LDX1  ! 4,,AUTO
         4 000144   000000 702211                    TSX2  ! 0,X1

      273     3078    2   END INIT_EG_FILE;
      274     3079        %EJECT;
PL6.E3A0      #001=ZIU$VALSET File=ZIU$VALSET.:ZIC0TSI                           FRI 09/05/97 13:33 Page:31
      275     3080        /*
      276     3081           This procedure initializes the EG dcb and opens the file, as
      277     3082           well as initializes the EG parameters.
      278     3083        */
      279     3084    1   INIT_PT_FILE: PROC ALTRET;

   3084  4 000145   200004 741300       INIT_PT_FILE STX1  ! 4,,AUTO

      280     3085
      281     3086    2   DCL 1 PTFILE STATIC SYMDEF ALIGNED,
      282     3087    2         2 N,
      283     3088    2           3 C UBIN BYTE UNAL INIT(4),
      284     3089    2           3 L CHAR(4) UNAL INIT('M$PT'),
      285     3090    2         2 DCB# UBIN HALF UNAL;
      286     3091
      287     3092    2   /**/ DCBNMSF = VECTOR(PTFILE);

   3092  4 000146   000014 237000 5                  LDAQ    12
         4 000147   000000 755000 xsym               STA     DCBNMSF
         4 000150   000001 756000 xsym               STQ     DCBNMSF+1

      288     3093    2       CALL SYS_FUNC_GETDCB ALTRET(ALTRTN);

   3093  4 000151   000004 631400 5                  EPPR1   4
         4 000152   000000 701000 xent               TSX1    SYS_FUNC_GETDCB
         4 000153   000200 702000 4                  TSX2    ALTRTN

      289     3094    2       PTFILE.DCB# = DCBSF;

   3094  4 000154   000000 236000 xsym               LDQ     DCBSF
         4 000155   000011 772000                    QRL     9
         4 000156   001073 552030 0                  STBQ    PTFILE+1,'30'O

      290     3095
      291     3096    2   /**/ ORGSF = %CONSEC#;

   3096  4 000157   000001 235007                    LDA     1,DL
PL6.E3A0      #001=ZIU$VALSET File=ZIU$VALSET.:ZIC0TSI                           FRI 09/05/97 13:33 Page:32
         4 000160   000000 755000 xsym               STA     ORGSF

      292     3097    2       ACSSF = %SEQUEN#;

   3097  4 000161   000000 755000 xsym               STA     ACSSF

      293     3098    2       FUNSF = %CREATE#;

   3098  4 000162   000003 236007                    LDQ     3,DL
         4 000163   000000 756000 xsym               STQ     FUNSF

      294     3099    2       ASNSF = %FILE#;

   3099  4 000164   000000 755000 xsym               STA     ASNSF

      295     3100    2       SHARESF = %NONE#;

   3100  4 000165   600000 236003                    LDQ     -65536,DU
         4 000166   000000 756000 xsym               STQ     SHARESF

      296     3101    2       FIDSF = '*PTFILE';

   3101  4 000167   040000 100400                    MLR     fill='040'O
         4 000170   000010 000007 3                  ADSC9   8                        cn=0,n=7
         4 000171   000000 000036 xsym               ADSC9   FIDSF_RD                 cn=0,n=30

      297     3102    2       EXISTSF = %NEWFILE#;

   3102  4 000172   000000 756000 xsym               STQ     EXISTSF

      298     3103    2       CALL SYS_FUNC_OPEN ALTRET(ALTRTN);

   3103  4 000173   000004 631400 5                  EPPR1   4
         4 000174   000000 701000 xent               TSX1    SYS_FUNC_OPEN
         4 000175   000200 702000 4                  TSX2    ALTRTN

      299     3104
PL6.E3A0      #001=ZIU$VALSET File=ZIU$VALSET.:ZIC0TSI                           FRI 09/05/97 13:33 Page:33
      300     3105
      301     3106    2       RETURN;

   3106  4 000176   200004 221300                    LDX1  ! 4,,AUTO
         4 000177   000001 702211                    TSX2  ! 1,X1

      302     3107
      303     3108    2   ALTRTN:
      304     3109    2       ALTRETURN;

   3109  4 000200   200004 221300       ALTRTN       LDX1  ! 4,,AUTO
         4 000201   000000 702211                    TSX2  ! 0,X1

      305     3110    2   END INIT_PT_FILE;
      306     3111        %EJECT;
PL6.E3A0      #001=ZIU$VALSET File=ZIU$VALSET.:ZIC0TSI                           FRI 09/05/97 13:33 Page:34
      307     3112    1   OPEN_ERRFILE: PROC ALTRET;

   3112  4 000202   200004 741300       OPEN_ERRFILE STX1  ! 4,,AUTO

      308     3113
      309     3114    2   /**/ DCBNMSF = VECTOR(ERRFILE.N);

   3114  4 000203   000016 237000 5                  LDAQ    14
         4 000204   000000 755000 xsym               STA     DCBNMSF
         4 000205   000001 756000 xsym               STQ     DCBNMSF+1

      310     3115    2       CALL SYS_FUNC_GETDCB ALTRET(ALTERR);

   3115  4 000206   000004 631400 5                  EPPR1   4
         4 000207   000000 701000 xent               TSX1    SYS_FUNC_GETDCB
         4 000210   000234 702000 4                  TSX2    ALTERR

      311     3116    2       ERRFILE.DCB# = DCBSF;

   3116  4 000211   000000 236000 xsym               LDQ     DCBSF
         4 000212   000011 772000                    QRL     9
         4 000213   000747 552030 0                  STBQ    ERRFILE+1,'30'O

      312     3117
      313     3118    2   /**/ ORGSF = %CONSEC#;

   3118  4 000214   000001 235007                    LDA     1,DL
         4 000215   000000 755000 xsym               STA     ORGSF

      314     3119    2       ACSSF = %SEQUEN#;

   3119  4 000216   000000 755000 xsym               STA     ACSSF

      315     3120    2       FUNSF = %CREATE#;

   3120  4 000217   000003 236007                    LDQ     3,DL
         4 000220   000000 756000 xsym               STQ     FUNSF
PL6.E3A0      #001=ZIU$VALSET File=ZIU$VALSET.:ZIC0TSI                           FRI 09/05/97 13:33 Page:35

      316     3121    2       ASNSF = %FILE#;

   3121  4 000221   000000 755000 xsym               STA     ASNSF

      317     3122    2       EXISTSF = %NEWFILE#;

   3122  4 000222   600000 236003                    LDQ     -65536,DU
         4 000223   000000 756000 xsym               STQ     EXISTSF

      318     3123    2       FIDSF = '*ERRFILE';

   3123  4 000224   040000 100400                    MLR     fill='040'O
         4 000225   000012 000010 3                  ADSC9   10                       cn=0,n=8
         4 000226   000000 000036 xsym               ADSC9   FIDSF_RD                 cn=0,n=30

      319     3124    2       CALL SYS_FUNC_OPEN ALTRET(ALTERR);

   3124  4 000227   000004 631400 5                  EPPR1   4
         4 000230   000000 701000 xent               TSX1    SYS_FUNC_OPEN
         4 000231   000234 702000 4                  TSX2    ALTERR

      320     3125    2       RETURN;

   3125  4 000232   200004 221300                    LDX1  ! 4,,AUTO
         4 000233   000001 702211                    TSX2  ! 1,X1

      321     3126    2   ALTERR:
      322     3127    2       ALTRETURN;

   3127  4 000234   200004 221300       ALTERR       LDX1  ! 4,,AUTO
         4 000235   000000 702211                    TSX2  ! 0,X1

      323     3128    2   END OPEN_ERRFILE;
      324     3129
      325     3130    1   CLOSE_ERRFILE: PROC;

PL6.E3A0      #001=ZIU$VALSET File=ZIU$VALSET.:ZIC0TSI                           FRI 09/05/97 13:33 Page:36
   3130  4 000236   200004 741300       CLOSE_ERRFI* STX1  ! 4,,AUTO

      326     3131    2   /**/ DCBSF = ERRFILE.DCB#;

   3131  4 000237   000747 236000 0                  LDQ     ERRFILE+1
         4 000240   000011 772000                    QRL     9
         4 000241   777777 376007                    ANQ     -1,DL
         4 000242   000000 620006                    EAX0    0,QL
         4 000243   000000 740000 xsym               STX0    DCBSF

      327     3132    2       CALL SYS_FUNC_CLOS;

   3132  4 000244   000004 631400 5                  EPPR1   4
         4 000245   000000 701000 xent               TSX1    SYS_FUNC_CLOS
         4 000246   000000 011000                    NOP     0

      328     3133    2       RETURN;

   3133  4 000247   200004 221300                    LDX1  ! 4,,AUTO
         4 000250   000001 702211                    TSX2  ! 1,X1

      329     3134    2   END CLOSE_ERRFILE;
      330     3135        %EJECT;
PL6.E3A0      #001=ZIU$VALSET File=ZIU$VALSET.:ZIC0TSI                           FRI 09/05/97 13:33 Page:37
      331     3136        /*
      332     3137              Set F$SORTIN AND F$SORTOUT for sorting the errfile.
      333     3138        */
      334     3139    1   SET_SORT: PROC(DCBNM) ALTRET;

   3139  4 000251   200004 741300       SET_SORT     STX1  ! 4,,AUTO

      335     3140
      336     3141    2   DCL DCBNM CHAR(10);
      337     3142    2   DCL K SBIN;
      338     3143    2   DCL DCB$ PTR;
      339     3144
      340     3145    2       DCB$ = DCBADDR(ERRFILE.DCB#);

   3145  4 000252   000020 470400 5                  LDP0    16
         4 000253   000000 471500                    LDP1    0,,PR0
         4 000254   000747 236000 0                  LDQ     ERRFILE+1
         4 000255   000011 772000                    QRL     9
         4 000256   777777 376007                    ANQ     -1,DL
         4 000257   100000 236106                    LDQ     0,QL,PR1
         4 000260   200007 756100                    STQ     DCB$,,AUTO

      341     3146    2       CALL CONCAT(RBUF,'SET ',DCBNM);

   3146  4 000261   000014 236000 3                  LDQ     12
         4 000262   000000 756000 xsym               STQ     RBUF
         4 000263   200005 473500                    LDP3    @DCBNM,,AUTO
         4 000264   040000 100500                    MLR     fill='040'O
         4 000265   300000 000012                    ADSC9   0,,PR3                   cn=0,n=10
         4 000266   000001 000374 xsym               ADSC9   RBUF+1                   cn=0,n=252

      342     3147    2       J = 14;

   3147  4 000267   000016 235007                    LDA     14,DL
         4 000270   000000 755000 xsym               STA     J

      343     3148    2       IF DCB$->F$DCB.PSN# ~= ' '
PL6.E3A0      #001=ZIU$VALSET File=ZIU$VALSET.:ZIC0TSI                           FRI 09/05/97 13:33 Page:38

   3148  4 000271   200007 470500                    LDP0    DCB$,,AUTO
         4 000272   040000 106500                    CMPC    fill='040'O
         4 000273   000024 000006                    ADSC9   20,,PR0                  cn=0,n=6
         4 000274   000021 000001 5                  ADSC9   17                       cn=0,n=1
         4 000275   000340 600000 4                  TZE     s:3154

      344     3149    3       THEN DO;

      345     3150    3           CALL INDEX(K,' ',DCB$->F$DCB.PSN#);

   3150  4 000276   000000 124500                    SCM     mask='000'O
         4 000277   000024 000006                    ADSC9   20,,PR0                  cn=0,n=6
         4 000300   000021 000001 5                  ADSC9   17                       cn=0,n=1
         4 000301   200006 000100                    ARG     K,,AUTO

      346     3151    3           CALL INSERT(RBUF,J,,'DP#',SUBSTR(DCB$->F$DCB.PSN#,0,K),'/');

   3151  4 000302   777377 620005                    EAX0    -257,AL
         4 000303   777777 660003                    ERX0    -1,DU
         4 000304   040045 100400                    MLR     fill='040'O
         4 000305   000015 000003 3                  ADSC9   13                       cn=0,n=3
         4 000306   000000 000010 xsym               ADSC9   RBUF,A                   cn=0,n=*X0
         4 000307   000000 236000 xsym               LDQ     J
         4 000310   000375 116007                    CMPQ    253,DL
         4 000311   000334 605000 4                  TPL     s:3152
         4 000312   777402 621006                    EAX1    -254,QL
         4 000313   777777 661003                    ERX1    -1,DU
         4 000314   200006 722100                    LXL2    K,,AUTO
         4 000315   040046 100540                    MLR     fill='040'O
         4 000316   000024 000012                    ADSC9   20,,PR0                  cn=0,n=*X2
         4 000317   000000 600011 xsym               ADSC9   RBUF,Q                   cn=3,n=*X1
         4 000320   200006 036100                    ADLQ    K,,AUTO
         4 000321   000375 116007                    CMPQ    253,DL
         4 000322   000334 605000 4                  TPL     s:3152
         4 000323   200010 756100                    STQ     DCB$+1,,AUTO
         4 000324   000000 236000 xsym               LDQ     J
PL6.E3A0      #001=ZIU$VALSET File=ZIU$VALSET.:ZIC0TSI                           FRI 09/05/97 13:33 Page:39
         4 000325   200006 036100                    ADLQ    K,,AUTO
         4 000326   200010 723100                    LXL3    DCB$+1,,AUTO
         4 000327   777402 623013                    EAX3    -254,X3
         4 000330   777777 663003                    ERX3    -1,DU
         4 000331   040046 100400                    MLR     fill='040'O
         4 000332   000022 000001 5                  ADSC9   18                       cn=0,n=1
         4 000333   000000 600013 xsym               ADSC9   RBUF,Q                   cn=3,n=*X3

      347     3152    3           J = J + K + 4;

   3152  4 000334   000000 236000 xsym               LDQ     J
         4 000335   200006 036100                    ADLQ    K,,AUTO
         4 000336   000004 036007                    ADLQ    4,DL
         4 000337   000000 756000 xsym               STQ     J

      348     3153    3           END;

      349     3154    2       CALL INSERT(RBUF,J,,DCB$->F$DCB.NAME#.C);

   3154  4 000340   000000 720000 xsym               LXL0    J
         4 000341   777377 620010                    EAX0    -257,X0
         4 000342   777777 660003                    ERX0    -1,DU
         4 000343   000000 236000 xsym               LDQ     J
         4 000344   040046 100500                    MLR     fill='040'O
         4 000345   000010 200037                    ADSC9   8,,PR0                   cn=1,n=31
         4 000346   000000 000010 xsym               ADSC9   RBUF,Q                   cn=0,n=*X0

      350     3155    2       J = J + DCB$->F$DCB.NAME#.L;

   3155  4 000347   000010 236100                    LDQ     8,,PR0
         4 000350   000033 772000                    QRL     27
         4 000351   000000 036000 xsym               ADLQ    J
         4 000352   000000 756000 xsym               STQ     J

      351     3156    2       CALL INSERT(RBUF,J,,'.',DCB$->F$DCB.ACCT#);

   3156  4 000353   777377 620006                    EAX0    -257,QL
PL6.E3A0      #001=ZIU$VALSET File=ZIU$VALSET.:ZIC0TSI                           FRI 09/05/97 13:33 Page:40
         4 000354   777777 660003                    ERX0    -1,DU
         4 000355   040046 100400                    MLR     fill='040'O
         4 000356   000023 000001 5                  ADSC9   19                       cn=0,n=1
         4 000357   000000 000010 xsym               ADSC9   RBUF,Q                   cn=0,n=*X0
         4 000360   000377 116007                    CMPQ    255,DL
         4 000361   000367 605000 4                  TPL     s:3157
         4 000362   777400 621006                    EAX1    -256,QL
         4 000363   777777 661003                    ERX1    -1,DU
         4 000364   040046 100500                    MLR     fill='040'O
         4 000365   000020 000010                    ADSC9   16,,PR0                  cn=0,n=8
         4 000366   000000 200011 xsym               ADSC9   RBUF,Q                   cn=1,n=*X1

      352     3157    2       CALL ZIU$SYSCTL ALTRET(ALTSET);

   3157  4 000367   000004 631400 5                  EPPR1   4
         4 000370   000000 701000 xent               TSX1    ZIU$SYSCTL
         4 000371   000374 702000 4                  TSX2    ALTSET

      353     3158    2       RETURN;

   3158  4 000372   200004 221300                    LDX1  ! 4,,AUTO
         4 000373   000001 702211                    TSX2  ! 1,X1

      354     3159    2   ALTSET:
      355     3160    2       ALTRETURN;

   3160  4 000374   200004 221300       ALTSET       LDX1  ! 4,,AUTO
         4 000375   000000 702211                    TSX2  ! 0,X1

      356     3161    2   END SET_SORT;
      357     3162        %EJECT;
PL6.E3A0      #001=ZIU$VALSET File=ZIU$VALSET.:ZIC0TSI                           FRI 09/05/97 13:33 Page:41
      358     3163        /*
      359     3164                      BREAK CONTROL LOCATION TO CLOSE FILES
      360     3165        */
      361     3166    1   VALID_BREAK:
      362     3167    1       DCBSF = ZI$DIR.AREA_NM.DCB#;

   3167  4 000376   000244 220000 xsym  VALID_BREAK  LDX0    ZI$DIR+164
         4 000377   000000 740000 xsym               STX0    DCBSF

      363     3168    1       IF DCBADDR(DCBSF) -> F$DCB.FCD# = %YES# THEN

   3168  4 000400   000020 470400 5                  LDP0    16
         4 000401   000000 471500                    LDP1    0,,PR0
         4 000402   100000 473510                    LDP3    0,X0,PR1
         4 000403   300031 236100                    LDQ     25,,PR3
         4 000404   020000 316007                    CANQ    8192,DL
         4 000405   000414 600000 4                  TZE     s:3174

      364     3169    2       DO;

      365     3170    2           CALL SYS_FUNC_CLOS;

   3170  4 000406   000004 631400 5                  EPPR1   4
         4 000407   000000 701000 xent               TSX1    SYS_FUNC_CLOS
         4 000410   000000 011000                    NOP     0

      366     3171    2           CALL SYS_FUNC_RELDCB;

   3171  4 000411   000004 631400 5                  EPPR1   4
         4 000412   000000 701000 xent               TSX1    SYS_FUNC_RELDCB
         4 000413   000000 011000                    NOP     0

      367     3172    2           END;

      368     3173
      369     3174    1       DCBSF = ERRFILE.DCB#;

PL6.E3A0      #001=ZIU$VALSET File=ZIU$VALSET.:ZIC0TSI                           FRI 09/05/97 13:33 Page:42
   3174  4 000414   000747 236000 0                  LDQ     ERRFILE+1
         4 000415   000011 772000                    QRL     9
         4 000416   777777 376007                    ANQ     -1,DL
         4 000417   000000 620006                    EAX0    0,QL
         4 000420   000000 740000 xsym               STX0    DCBSF

      370     3175    1       IF DCBSF < 100 THEN /* INIT'ED AT 1000 */

   3175  4 000421   000144 100003                    CMPX0   100,DU
         4 000422   000437 603000 4                  TRC     s:3182

      371     3176    1           IF DCBADDR(DCBSF) -> F$DCB.FCD# = %YES# THEN

   3176  4 000423   000020 470400 5                  LDP0    16
         4 000424   000000 471500                    LDP1    0,,PR0
         4 000425   100000 473510                    LDP3    0,X0,PR1
         4 000426   300031 236100                    LDQ     25,,PR3
         4 000427   020000 316007                    CANQ    8192,DL
         4 000430   000437 600000 4                  TZE     s:3182

      372     3177    2           DO;

      373     3178    2               CALL SYS_FUNC_CLOS;

   3178  4 000431   000004 631400 5                  EPPR1   4
         4 000432   000000 701000 xent               TSX1    SYS_FUNC_CLOS
         4 000433   000000 011000                    NOP     0

      374     3179    2               CALL SYS_FUNC_RELDCB;

   3179  4 000434   000004 631400 5                  EPPR1   4
         4 000435   000000 701000 xent               TSX1    SYS_FUNC_RELDCB
         4 000436   000000 011000                    NOP     0

      375     3180    2               END;

      376     3181
PL6.E3A0      #001=ZIU$VALSET File=ZIU$VALSET.:ZIC0TSI                           FRI 09/05/97 13:33 Page:43
      377     3182    1       IF BREAK_FLAG>0 THEN /* IF ABORT BECAUSE BREAK HIT */

   3182  4 000437   000000 235000 xsym               LDA     BREAK_FLAG
         4 000440   000442 604400 4                  TMOZ    ALT_VALID

      378     3183    1           RETURN; /* RETURN NORMALLY */

   3183  4 000441   000000 702200 xent               TSX2  ! X66_ARET

      379     3184
      380     3185    1   ALT_VALID:
      381     3186    1       ALTRETURN;

   3186  4 000442   000000 702200 xent  ALT_VALID    TSX2  ! X66_AALT

SORT_PT
 Sect OctLoc
   0     005   000000 000001   060061 101116   000000 000001   000000 000006    ....01AN........
   0     011   000101 040040                                                    .A

SORT_ERRS
 Sect OctLoc
   0     012   000000 000001   060061 101116   000000 000001   000000 000006    ....01AN........
   0     016   000101 040040                                                    .A

RECLIST
 Sect OctLoc
   0     022   ****** ******   ****** ******   ****** ******   ****** ******    ................

SETLIST
 Sect OctLoc
   0     332   ****** ******   ****** ******   ****** ******   ****** ******    ................

EGFILE
 Sect OctLoc
   0     744   004115 044105   107001 750***                                    .M$EG...

PL6.E3A0      #001=ZIU$VALSET File=ZIU$VALSET.:ZIC0TSI                           FRI 09/05/97 13:33 Page:44
ERRFILE
 Sect OctLoc
   0     746   004115 044105   122001 750***                                    .M$ER...

NO_ERRORS
 Sect OctLoc
   0     750   000000 000000                                                    ....

ERROR_BUF
 Sect OctLoc
   0     751   ****** ******   ****** ******   ****** ******   ****** ******    ................

ERRBUF$
 Sect OctLoc
   0     761   000751 006000                                                    ....

SORT_PTFILE
 Sect OctLoc
   0     762   000000 000020   000000 000000   000000 000020   040000 104040    ............ .D
   0     766   000005 006000   000000 006014   000000 006014   000000 006014    ................
   0     772   000000 006014   000000 006014   000000 000000   000001 000000    ................
   0     776   000000 000006   000000 000000   000000 000000   000000 000000    ................
   0    1002   000000 000000   000000 000000   000000 000000   000000 000000    ................
   0    1022*  000000 000000   000000 000000   000000 000000   000000 000000    ................

SORT_ERRFILE
 Sect OctLoc
   0    1026   000000 000036   000000 000000   000000 000036   040000 104040    ............ .D
   0    1032   000012 006000   000000 006014   000000 006014   000000 006014    ................
   0    1036   000000 006014   000000 006014   000000 000000   000001 000000    ................
   0    1042   000000 000011   000000 000000   000000 000000   000000 000000    ................
   0    1046   000000 000000   000000 000000   000000 000000   000000 000000    ................
   0    1066*  000000 000000   000000 000000   000000 000000   000000 000000    ................

PTFILE
 Sect OctLoc
   0    1072   004115 044120   124*** ******                                    .M$PT...
PL6.E3A0      #001=ZIU$VALSET File=ZIU$VALSET.:ZIC0TSI                           FRI 09/05/97 13:33 Page:45

(unnamed)
 Sect OctLoc
   3     000   106044 123117   122124 111116   040040 040040   106044 123117    F$SORTIN    F$SO
   3     004   122124 117125   124040 040040   052105 107106   111114 105040    RTOUT   *EGFILE
   3     010   052120 124106   111114 105040   052105 122122   106111 114105    *PTFILE *ERRFILE
   3     014   123105 124040   104120 043040                                    SET DP#

(unnamed)
 Sect OctLoc
   5     000   000002 000000   000000 006014   000000 000040   000002 006000    ........... ....
   5     004   000000 000000   000001 000000   000762 006000   000000 006000    ................
   5     010   000003 006000   001026 006000   000001 777640   000744 006000    ................
   5     014   000001 777640   001072 006000   000001 177640   000746 006000    .....:..........
   5     020   000000 006003   040040 040040   057040 040040   056040 040040    ....    /   .
      382     3187    1   END ZIU$VALSET;
      383     3188        %EOD;

PL6.E3A0      #001=ZIU$VALSET File=ZIU$VALSET.:ZIC0TSI                           FRI 09/05/97 13:33 Page:46
--  Include file information  --

   ZL_MACRO_C.:TOOLE05  is referenced.
   ZI_DBU_VALDTE.:ZIC0TOU  is referenced.
   ZI_GLOBAL_DBUTIL.:ZIC0TOU  is referenced.
   ZI_DBU_XREF.:ZIC0TOU  cannot be made into a system file and is referenced.
   ZI$DIR.:ZIC0TOU  is referenced.
   CP_6.:LIB_E05  cannot be made into a system file and is referenced.
   CP_6_SUBS.:LIB_E05  is referenced.
   B$JIT_C.:E05TOU  was found in the system file and is never referenced.
   CP_6_C.:E05TOU  was found in the system file and is referenced.
      No diagnostics issued in procedure ZIU$VALSET.

   Procedure ZIU$VALSET requires 291 words for executable code.
   Procedure ZIU$VALSET requires 10 words of local(AUTO) storage.
PL6.E3A0      #001=ZIU$VALSET File=ZIU$VALSET.:ZIC0TSI                           FRI 09/05/97 13:33 Page:47
          *** CROSS REFERENCE LISTING ***
**     DENOTES     IDENTIFIER DEFINITION
<<                 IDENTIFIER'S VALUE SET
>>                 IDENTIFIER'S VALUE USED
<>                 IDENTIFIER SET AND/OR USED
--                 IDENTIFIER REFERENCED
PL6.E3A0      #001=ZIU$VALSET File=ZIU$VALSET.:ZIC0TSI                           FRI 09/05/97 13:33 Page:48
          MINI XREF LISTING

ACSSF
      1576**DCL      3061<<ASSIGN   3097<<ASSIGN   3119<<ASSIGN
ALTERR IN PROCEDURE OPEN_ERRFILE
      3127**LABEL    3115--CALLALT  3124--CALLALT
ALTRTN IN PROCEDURE INIT_EG_FILE
      3077**LABEL    3057--CALLALT  3067--CALLALT
ALTRTN IN PROCEDURE INIT_PT_FILE
      3109**LABEL    3093--CALLALT  3103--CALLALT
ALTSET IN PROCEDURE SET_SORT
      3160**LABEL    3157--CALLALT
ALT_VALID
      3186**LABEL    3017--CALLALT  3018--CALLALT  3019--CALLALT  3025--CALLALT  3030--CALLALT  3034--CALLALT
      3047--CALLALT
AREA_KEY$
      1342**DCL      1345--IMP-PTR
ASNSF
      1579**DCL      3063<<ASSIGN   3099<<ASSIGN   3121<<ASSIGN
BREAK_FLAG
      1696**DCL      3182>>IF
BREAK_LOCAT
      1977**DCL      3012<<REMEMBR
BUILD_MSTR_TBL
      3006**DCL-ENT  3017--CALL
BUILD_RECXREF
      3008**DCL-ENT  3019--CALL
BUILD_SETXREF
      3007**DCL-ENT  3018--CALL
CLOSE_ERRFILE
      3130**PROC     3036--CALL
COUNTSF
      1638**DCL      1639--REDEF
CURRPT.OWNER
PL6.E3A0      #001=ZIU$VALSET File=ZIU$VALSET.:ZIC0TSI                           FRI 09/05/97 13:33 Page:49
      2008**DCL      2009--REDEF
DCB$ IN PROCEDURE SET_SORT
      3143**DCL      3145<<ASSIGN   3148>>IF       3150>>CALLBLT  3151>>CALLBLT  3154>>CALLBLT  3155>>ASSIGN
      3156>>CALLBLT
DCBNM IN PROCEDURE SET_SORT
      3141**DCL      3139--PROC     3146>>CALLBLT
DCBNMSF
      1619**DCL      3056<<ASSIGN   3092<<ASSIGN   3114<<ASSIGN
DCBSF
      1567**DCL      3058>>ASSIGN   3094>>ASSIGN   3116>>ASSIGN   3131<<ASSIGN   3167<<ASSIGN   3168--IF
      3174<<ASSIGN   3175>>IF       3176--IF
EGFILE
      2012**DCL      3056--ASSIGN
EGFILE.DCB#
      2016**DCL      3058<<ASSIGN
EGINDX
      1987**DCL      3072<<ASSIGN
EGREC$
      1986**DCL      1991--IMP-PTR  3069<<ASSIGN
ENCRP_SEEDSF
      1596**DCL      1597--REDEF
ERRBUF$
      2024**DCL      2025--IMP-PTR  2030--IMP-PTR  2037--IMP-PTR  2045--IMP-PTR  2051--IMP-PTR  2057--IMP-PTR
      2065--IMP-PTR  2076--IMP-PTR
ERRCODESF
      1598**DCL      1603--REDEF
ERRFILE.DCB#
      2021**DCL      3116<<ASSIGN   3131>>ASSIGN   3145--ASSIGN   3174>>ASSIGN
ERRFILE.N
      2018**DCL      3114--ASSIGN
ERROR_BUF
      2023**DCL      2024--DCLINIT
EXISTSF
      1617**DCL      3066<<ASSIGN   3102<<ASSIGN   3122<<ASSIGN
F$DCB.ACCT#
       796**DCL      3156>>CALLBLT
PL6.E3A0      #001=ZIU$VALSET File=ZIU$VALSET.:ZIC0TSI                           FRI 09/05/97 13:33 Page:50
F$DCB.ACTPOS
       812**DCL       812--REDEF
F$DCB.ARS#
       786**DCL       786--REDEF
F$DCB.ATTR
       805**DCL       806--REDEF
F$DCB.BORROW
       820**DCL       820--REDEF     820--REDEF     820--REDEF
F$DCB.DCBNAME.L
       834**DCL       834--IMP-SIZ
F$DCB.EOMCHAR#
       790**DCL       790--REDEF
F$DCB.FCD#
       799**DCL      3168>>IF       3176>>IF
F$DCB.FLDID
       815**DCL       815--REDEF
F$DCB.FORM$
       809**DCL       809--REDEF
F$DCB.FSECT
       825**DCL       825--REDEF
F$DCB.FSN#
       802**DCL       802--REDEF     802--REDEF     803--REDEF
F$DCB.HEADER$
       808**DCL       808--REDEF
F$DCB.IXTNSIZE#
       806**DCL       806--REDEF
F$DCB.LASTSTA$
       795**DCL       795--REDEF
F$DCB.LVL
       821**DCL       821--REDEF
F$DCB.NAME#.C
       796**DCL       796--REDEF    3154>>CALLBLT
F$DCB.NAME#.L
       796**DCL      3155>>ASSIGN
F$DCB.NOEOF
       818**DCL       818--REDEF
PL6.E3A0      #001=ZIU$VALSET File=ZIU$VALSET.:ZIC0TSI                           FRI 09/05/97 13:33 Page:51
F$DCB.NRECS#
       807**DCL       807--REDEF
F$DCB.NRECX
       826**DCL       826--REDEF
F$DCB.OHDR
       818**DCL       818--REDEF
F$DCB.ORG#
       801**DCL       801--REDEF
F$DCB.PRECNO
       824**DCL       824--REDEF
F$DCB.PSN#
       796**DCL      3148>>IF       3150>>CALLBLT  3151>>CALLBLT
F$DCB.RCSZ
       830**DCL       830--REDEF
F$DCB.RES#
       797**DCL       797--REDEF
F$DCB.SETX
       809**DCL       809--REDEF
F$DCB.TAB$
       809**DCL       809--REDEF
F$DCB.TDA
       823**DCL       824--REDEF
F$DCB.WSN#
       797**DCL       797--REDEF
FIDSF
      1615**DCL      3065<<ASSIGN   3101<<ASSIGN   3123<<ASSIGN
FIDSF_RD
      1614**DCL      1615--REDEF
FUNSF
      1578**DCL      3062<<ASSIGN   3098<<ASSIGN   3120<<ASSIGN
HELPCODE
      1632**DCL      1637--REDEF
ICHKSUM
      1697**DCL      1698--REDEF
INITIAL_SORT_CALL
       156**DCL      3031<<ASSIGN
PL6.E3A0      #001=ZIU$VALSET File=ZIU$VALSET.:ZIC0TSI                           FRI 09/05/97 13:33 Page:52
INIT_EG_FILE
      3054**PROC     3027--CALL
INIT_PT_FILE
      3084**PROC     3028--CALL
I_O_BUF
      1676**DCL      3069--ASSIGN
I_O_BUF$
      1675**DCL      1676--IMP-PTR  3069>>ASSIGN
J
      1671**DCL      3147<<ASSIGN   3151>>CALLBLT  3152<<ASSIGN   3152>>ASSIGN   3154>>CALLBLT  3155<<ASSIGN
      3155>>ASSIGN   3156>>CALLBLT
K IN PROCEDURE SET_SORT
      3142**DCL      3150<<CALLBLT  3151>>CALLBLT  3152>>ASSIGN
KEYVSF
      1570**DCL      1575--REDEF
KEYVSF.WD_ONE
      1572**DCL      1573--REDEF
MSGCODE
      1604**DCL      1605--REDEF
MSTR$
      1311**DCL      1314--IMP-PTR
MSTR_REF.NXTHSH
      1317**DCL      1318--REDEF
MSTR_REF.PAENT
      1323**DCL      1324--REDEF
MSTR_REF.PAOFF
      1320**DCL      1321--REDEF
NO_EGBUFS
      1989**DCL      3071<<ASSIGN
NO_EGRECS
      1988**DCL      3070<<ASSIGN
NO_ERRORS
      2022**DCL      3040>>IF
OPEN_ERRFILE
      3112**PROC     3030--CALL
ORGSF
PL6.E3A0      #001=ZIU$VALSET File=ZIU$VALSET.:ZIC0TSI                           FRI 09/05/97 13:33 Page:53
      1568**DCL      3060<<ASSIGN   3096<<ASSIGN   3118<<ASSIGN
PTFILE IN PROCEDURE INIT_PT_FILE
      3086**DCL      3092--ASSIGN
PTFILE.DCB# IN PROCEDURE INIT_PT_FILE
      3090**DCL      3094<<ASSIGN
RBUF
       155**DCL      3146<<CALLBLT  3151<<CALLBLT  3154<<CALLBLT  3156<<CALLBLT
REC$
      1656**DCL      1679--IMP-PTR
REC_DATA_LN
      1684**DCL      1683--IMP-SIZ
REC_XREF$
      1366**DCL      1367--IMP-PTR
RESULTS
      3047**LABEL    3023--GOTO     3042--CALLALT  3043--CALLALT  3044--CALLALT
SETINDX
      1983**DCL      3033>>IF
SET_BUFS
      3010**DCL-ENT  3013--CALL
SET_SORT
      3139**PROC     3042--CALL     3043--CALL
SET_XREF$
      1355**DCL      1356--IMP-PTR
SHARESF
      1618**DCL      3064<<ASSIGN   3100<<ASSIGN
SORT_ERRFILE
      2895**DCL      3044<>CALL
SORT_ERRS
       143**DCL      2924--DCLINIT
SORT_PT
       131**DCL      2808--DCLINIT
SORT_PTFILE
      2779**DCL      3034<>CALL
SYS_FUNC_CLOS
      3000**DCL-ENT  3132--CALL     3170--CALL     3178--CALL
SYS_FUNC_GETDCB
PL6.E3A0      #001=ZIU$VALSET File=ZIU$VALSET.:ZIC0TSI                           FRI 09/05/97 13:33 Page:54
      3001**DCL-ENT  3057--CALL     3093--CALL     3115--CALL
SYS_FUNC_OPEN
      2999**DCL-ENT  3067--CALL     3103--CALL     3124--CALL
SYS_FUNC_RELDCB
      3002**DCL-ENT  3171--CALL     3179--CALL
VALID_BREAK
      3167**LABEL    3012--REMEMBR
X$SORT
      2994**DCL-ENT  3034--CALL     3044--CALL
XREF_BUILT
      1375**DCL      3015>>IF
ZI$DIR.ALTKEY
      1065**DCL      1066--REDEF    1067--REDEF
ZI$DIR.AREAFID
      1031**DCL      1032--REDEF
ZI$DIR.AREA_NM.DCB#
      1098**DCL      3167>>ASSIGN
ZI$DIR.DATE
      1070**DCL      1074--REDEF
ZI$DIR.DEST_SEED
      1026**DCL      1027--REDEF    1028--REDEF
ZI$DIR.ENCP_SEED
      1023**DCL      1024--REDEF    1025--REDEF
ZI$DIR.REPRT_ERRS
      1056**DCL      3022>>IF
ZI$DIR.REPRT_ZERO
      1057**DCL      1058--REDEF
ZI$DIR.SCHFID
      1029**DCL      1030--REDEF
ZI$DIR.TIME
      1075**DCL      1080--REDEF
ZIU$CHKVAL
      2997**DCL-ENT  3025--CALL
ZIU$GENRCD
      2998**DCL-ENT  2861--DCLINIT
ZIU$RPTVAL
PL6.E3A0      #001=ZIU$VALSET File=ZIU$VALSET.:ZIC0TSI                           FRI 09/05/97 13:33 Page:55
      3005**DCL-ENT  3047--CALL
ZIU$SRTDCB
      2996**DCL-ENT  3029--CALL
ZIU$SYSCTL
      3009**DCL-ENT  3157--CALL
ZIU$VALDTE
      2995**DCL-ENT  2863--DCLINIT

PL6.E3A0      #002=ZIU$CHKVAL File=ZIU$VALSET.:ZIC0TSI                           FRI 09/05/97 13:33 Page:56
      384        1        /*T***********************************************************/
      385        2        /*T*                                                         */
      386        3        /*T* Copyright (c) Bull HN Information Systems Inc., 1997    */
      387        4        /*T*                                                         */
      388        5        /*T***********************************************************/
      389        6        /*P*
      390        7           NAME: ZIU$CHKVAL
      391        8        PURPOSE: This routine figures out which sets need to be validated and
      392        9                 builds link list tables to connect those records to only the
      393       10                 sets to be validated.
      394       11        */
      395       12        ZIU$CHKVAL: PROC ALTRET;
      396       13
      397       14
      398       15    1   DCL AREANO SBIN WORD STATIC SYMDEF ALIGNED;
      399       16    1   DCL INDX SBIN WORD STATIC ALIGNED;
      400       17    1   DCL TEMP SBIN WORD STATIC ALIGNED;
      401       18
      402       19    1   DCL PRIVAL SBIN WORD SYMREF ALIGNED;
      403       20    1   DCL NXTVAL SBIN WORD SYMREF ALIGNED;
      404       21    1   DCL 1 SETCNT (0:499) SYMREF ALIGNED,
      405       22    1         2 PR UBIN WORD ALIGNED,
      406       23    1         2 NXT UBIN WORD ALIGNED,
      407       24    1         2 DBK UBIN WORD ALIGNED;
      408       25
      409       26    1   DCL TYPE_PA BIT(1) STATIC ALIGNED;
      410       27
      411       28         %INCLUDE ZI_DBU_VALDTE;
      412      296         %VALID_LIST;
      413      436         %INCLUDE ZI_GLOBAL_DBUTIL;
      414      614         %SYS_FUNC;
      415      706         %MISC_DCLS;
      416      759         %INCLUDE ZI$PG_STRUCTS;
      417      862         %ATBLK_PG;
      418      918         %DATA_PG;
      419      937         %INCLUDE ZI_DBU_XREF;
      420     1104         %XREF_TBLS;
PL6.E3A0      #002=ZIU$CHKVAL File=ZIU$VALSET.:ZIC0TSI                           FRI 09/05/97 13:33 Page:57
      421     1179         %INCLUDE ZI_ERRORS_SUBS;
      422     1699         %INCLUDE CP_6;
      423     1780         %F$DCB;
      424     1837         %INCLUDE CP_6_SUBS;
      425     2377         %INCLUDE ZI$DIR;
      426     2534         %DIR;
      427     2678
      428     2679
      429     2680    1   DCL BUILD_MSTR_TBL ENTRY ALTRET;
      430     2681    1   DCL BUILD_SETXREF ENTRY ALTRET;
      431     2682    1   DCL BUILD_RECXREF ENTRY ALTRET;
      432     2683    1   DCL FIND_MSTR_ENTRY ENTRY(2);
      433     2684    1   DCL GET_DCB ENTRY(1) ALTRET;
      434     2685    1   DCL ZIU$CHECK ENTRY ALTRET;
      435     2686    1   DCL SYS_FUNC_WRIT ENTRY ALTRET;
      436     2687    1   DCL SYS_FUNC_ERRMSG ENTRY ALTRET;
      437     2688    1   DCL REPORT_CHK ENTRY ALTRET;
      438     2689
      439     2690        %EJECT;
PL6.E3A0      #002=ZIU$CHKVAL File=ZIU$VALSET.:ZIC0TSI                           FRI 09/05/97 13:33 Page:58
      440     2691
      441     2692    1       IF ZI$DIR.CHECK ~= %YES# THEN
      442     2693    2       DO;
      443     2694    2           ZI$DIR.CHECK = %YES#; /* Default a check on the area */
      444     2695    2           IF RCNT ~= -1 AND /* 'VAL' option was specified if true */
      445     2696    2              ITMCNT = -1 THEN /* 'NOVAL' option not used if true */
      446     2697    2               ZI$DIR.CHECK = %NO#;
      447     2698    2           END;
      448     2699
      449     2700        /*
      450     2701           Check area for broken chains and mark the mastr table with the
      451     2702           sets that don't check ok.
      452     2703        */
      453     2704
      454     2705    2       DO I = NO_RECS TO (NO_RECS+NO_SETS-1);
      455     2706    2           MSTR_REF.SET.FLG(I) = %NO#;
      456     2707    2           END;
      457     2708
      458     2709    1       IF ZI$DIR.CHECK = %YES# THEN
      459     2710    2       DO;
      460     2711    3           DO AREANO = 0 TO NO_AREAS-1;
      461     2712    3               ZI$DIR.AREA_NM.NAME.TEXT = AREA_KEY_XREF.NAME(AREANO);
      462     2713    3               ZI$DIR.CHECK_ALL = '1'B;
      463     2714    3               CALL GET_DCB(ZI$DIR.AREA_NM) ALTRET(ALT_CHK);
      464     2715    3               CALL ZIU$CHECK ALTRET(ALT_CHK);
      465     2716    3               END;
      466     2717
      467     2718    3           DO I = NO_RECS TO (NO_RECS+NO_SETS-1); /* Mark bad sets */
      468     2719    3               PRIVAL = SETCNT.PR(I-NO_RECS) - SETCNT.DBK(I-NO_RECS);
      469     2720    3               NXTVAL = SETCNT.NXT(I-NO_RECS) - SETCNT.DBK(I-NO_RECS);
      470     2721    3               IF PRIVAL ~= 0 OR NXTVAL ~= 0 THEN
      471     2722    3                   IF (MSTR_REF.SET.INMODE(I) OR MSTR_REF.SET.RETYPE(I)) AND
      472     2723    3                      PRIVAL=NXTVAL THEN; /* disconnected member; just a warning */
      473     2724    3                   ELSE MSTR_REF.SET.FLG(I) = '1'B;
      474     2725    3               IF MSTR_REF.SET.PATYPE(I) = '1'B AND NXTVAL ~= 0 THEN
      475     2726    3                   MSTR_REF.SET.FLG(I) = '1'B;
      476     2727    3               END;
PL6.E3A0      #002=ZIU$CHKVAL File=ZIU$VALSET.:ZIC0TSI                           FRI 09/05/97 13:33 Page:59
      477     2728         /* Print report of bad sets found by check */
      478     2729    2           CALL REPORT_CHK ALTRET(ALT_CHK);
      479     2730    2           END;
      480     2731        /*
      481     2732           Merge in set selection from the 'VAL' option in the directive.
      482     2733        */
      483     2734    2       DO I = 0 TO RCNT; /* RECORD_LIST used to store validate set list */
      484     2735    2           CALL FIND_MSTR_ENTRY(RECORD_LIST.NAME(I),MSTR_INDX);
      485     2736    2           IF MSTR_INDX ~= -1 THEN
      486     2737    3           DO;
      487     2738    3               MSTR_REF.SET.FLG(MSTR_INDX) = '1'B;
      488     2739    3               END;
      489     2740    3           ELSE DO;
      490     2741    3               CALL SET_ERROR(RECORD_LIST.NAME(I));
      491     2742    3               ALTRETURN;
      492     2743    3               END;
      493     2744    2           END;
      494     2745        /*
      495     2746           Merge in set selection from the 'NOVAL' option in directive.
      496     2747        */
      497     2748    2       DO I = 0 TO ITMCNT; /* ITEM_LIST used to store noval set list*/
      498     2749    2           CALL FIND_MSTR_ENTRY(ITEM_LIST.NAME(I),MSTR_INDX);
      499     2750    2           IF MSTR_INDX ~= -1 THEN
      500     2751    3           DO;
      501     2752    3               MSTR_REF.SET.FLG(MSTR_INDX) = '0'B;
      502     2753    3               END;
      503     2754    3           ELSE DO;
      504     2755    3               CALL SET_ERROR(ITEM_LIST.NAME(I));
      505     2756    3               ALTRETURN;
      506     2757    3               END;
      507     2758    2           END;
      508     2759        %EJECT;
PL6.E3A0      #002=ZIU$CHKVAL File=ZIU$VALSET.:ZIC0TSI                           FRI 09/05/97 13:33 Page:60
      509     2760        /*
      510     2761           Build a list of records that are participants in the sets to
      511     2762           be validated.
      512     2763        */
      513     2764    1       RECINDX = -1;
      514     2765    2       DO I = NO_RECS TO (NO_RECS + NO_SETS -1);
      515     2766    2           IF MSTR_REF.SET.FLG(I) = %YES# THEN /* validate = yes */
      516     2767    3           DO;
      517     2768    3               INDX = MSTR_REF.NEXT(I); /* Follow record chain */
      518     2769    4               DO WHILE(INDX ~= -1);
      519     2770         /* Add rec's mstrindx to reclist unless previously done */
      520     2771    4                   X = 0;
      521     2772    5                   DO WHILE(X <= RECINDX AND
      522     2773    5                      RECLIST.MSTRINDX(X) ~= REC_XREF.MSTRINDX(INDX));
      523     2774    5                       X = X+1;
      524     2775    5                       END;
      525     2776    4                   IF X > RECINDX THEN
      526     2777    5                   DO; /* Rec not prev entered in list */
      527     2778    5                       RECINDX = RECINDX + 1;
      528     2779    5                       RECLIST.MSTRINDX(RECINDX) = REC_XREF.MSTRINDX(INDX);
      529     2780    5                       END;
      530     2781    4                   INDX = REC_XREF.NEXT(INDX);
      531     2782    4                   END;
      532     2783    3               END;
      533     2784    2           END;
      534     2785        %EJECT;
PL6.E3A0      #002=ZIU$CHKVAL File=ZIU$VALSET.:ZIC0TSI                           FRI 09/05/97 13:33 Page:61
      535     2786        /*
      536     2787           Now that a list of records has been made - create a link list
      537     2788           of records to set members for each record type. Each record entry
      538     2789           will point to a list of sets the record is owner or member and
      539     2790           are also being validated. The sets must be linked in sorted (by
      540     2791           set number) order for proper application of EG-PT decision table.
      541     2792        */
      542     2793    1       SETINDX = 0;
      543     2794    1       HIGH_RECINDX = RECINDX;
      544     2795    2       DO I = 0 TO RECINDX;
      545     2796    2           RECLIST.SETINDX(I) = SETINDX;
      546     2797         /*   Determine if this record is a PA record and if so
      547     2798            only accept one set description from the tables. */
      548     2799    2           INDX = RECLIST.MSTRINDX(I);
      549     2800    2           IF MSTR_REF.PAOFF(INDX)>0 THEN /* PA_REC */
      550     2801    2               TYPE_PA = %YES#;
      551     2802    2           ELSE
      552     2803    2               TYPE_PA = %NO#;
      553     2804    2           INDX = MSTR_REF.NEXT(INDX);
      554     2805    3           DO WHILE(INDX ~= -1);
      555     2806    3               IF MSTR_REF.SET.FLG(SET_XREF.MSTRINDX(INDX)) = %YES# THEN
      556     2807    4               DO;
      557     2808    4                   SETLIST(SETINDX) = INDX;
      558     2809    4                   SETINDX = SETINDX + 1;
      559     2810    4                   END;
      560     2811    3               IF TYPE_PA = %YES# THEN
      561     2812    3                   INDX = -1; /* Terminate set extractions to */
      562     2813    3               ELSE /* avoid duplicate PA entries. */
      563     2814    3                   INDX = SET_XREF.NEXT(INDX);
      564     2815    3               END;
      565     2816         /*
      566     2817            Sort the set indexs in assending order.
      567     2818         */
      568     2819    2           J = RECLIST.SETINDX(I);
      569     2820    2   STRTSORT:
      570     2821    2           IF SETINDX - J = 1 THEN /* Only 1 set entry (no sort needed) */
      571     2822    2               GOTO CMPLTSORT;
PL6.E3A0      #002=ZIU$CHKVAL File=ZIU$VALSET.:ZIC0TSI                           FRI 09/05/97 13:33 Page:62
      572     2823    2           IF SET_XREF.MSTRINDX(SETLIST(J)) > SET_XREF.MSTRINDX(SETLIST(J+1)) THEN
      573     2824    3           DO;
      574     2825    3               TEMP = SETLIST(J);
      575     2826    3               SETLIST(J) = SETLIST(J+1);
      576     2827    3               SETLIST(J+1) = TEMP;
      577     2828    3               J = RECLIST.SETINDX(I);
      578     2829    3               END;
      579     2830    3           ELSE DO;
      580     2831    3               J = J+1;
      581     2832    3               IF J = SETINDX -1 THEN
      582     2833    3                   GOTO CMPLTSORT;
      583     2834    3               END;
      584     2835    2           GOTO STRTSORT;
      585     2836    2   CMPLTSORT:
      586     2837    2           SETLIST(SETINDX) = -1;
      587     2838    2           SETINDX = SETINDX +1;
      588     2839    2           END;
      589     2840
      590     2841    1       IF SETINDX > 0 THEN /* Bad sets found or selected by CHKVAL */
      591     2842    1           CALL PRINT_REPORT ALTRET(ALT_CHK);
      592     2843
      593     2844    1       RETURN;
      594     2845        %EJECT;
PL6.E3A0      #002=ZIU$CHKVAL File=ZIU$VALSET.:ZIC0TSI                           FRI 09/05/97 13:33 Page:63
      595     2846        /*
      596     2847           Print a report on sets and records to be validated.
      597     2848        */
      598     2849    1   PRINT_REPORT: PROC ALTRET;
      599     2850
      600     2851    2   DCL
      601     2852    2    1 REPRTHEAD STATIC CALIGNED,
      602     2853    2    2 VFC CHAR(1) CALIGNED INIT('A'),
      603     2854    2    2 * CHAR(69) CALIGNED INIT
      604     2855    2    ('The following records will participate in this validation process:');
      605     2856    2   DCL
      606     2857    2    1 REPRTHEAD2 STATIC CALIGNED,
      607     2858    2    2 VFC CHAR(1) CALIGNED INIT('A'),
      608     2859    2    2 * CHAR(60) CALIGNED INIT
      609     2860    2    ('            RECORD NAME                    SET NAME');
      610     2861    2   DCL
      611     2862    2    1 REPRTHEAD3 STATIC CALIGNED,
      612     2863    2    2 VFC CHAR(1) CALIGNED INIT('A'),
      613     2864    2    2 * CHAR(60) CALIGNED INIT
      614     2865    2    ('            -----------                    --------');
      615     2866    2   DCL
      616     2867    2    1 DETAILINE STATIC CALIGNED,
      617     2868    2    2 VFC CHAR(1) CALIGNED INIT('A'),
      618     2869    2    2 FIL CHAR(12) CALIGNED INIT(' '),
      619     2870    2    2 REC CHAR(31) CALIGNED,
      620     2871    2    2 SET CHAR(31) CALIGNED;
      621     2872
      622     2873    2       DCBSF = DCBNUM(M$LO);
      623     2874    2       BUFLNSF = 67;
      624     2875    2       BUFSF = VECTOR(REPRTHEAD);
      625     2876    2       CALL SYS_FUNC_WRIT;
      626     2877    2       BUFLNSF = 1;
      627     2878    2       CALL SYS_FUNC_WRIT; /* Write a blank link */
      628     2879
      629     2880    2       BUFLNSF = 60;
      630     2881    2       BUFSF = VECTOR(REPRTHEAD2);
      631     2882    2       CALL SYS_FUNC_WRIT;
PL6.E3A0      #002=ZIU$CHKVAL File=ZIU$VALSET.:ZIC0TSI                           FRI 09/05/97 13:33 Page:64
      632     2883
      633     2884    2       BUFSF = VECTOR(REPRTHEAD3);
      634     2885    2       CALL SYS_FUNC_WRIT;
      635     2886
      636     2887    3       DO I = 0 TO RECINDX;
      637     2888    3           DETAILINE.REC = MSTR_REF.NAME(RECLIST.MSTRINDX(I));
      638     2889    3           DETAILINE.SET =
      639     2890    3              MSTR_REF.NAME(SET_XREF.MSTRINDX(SETLIST(RECLIST.SETINDX(I))));
      640     2891
      641     2892    3           BUFLNSF = 72;
      642     2893    3           BUFSF = VECTOR(DETAILINE);
      643     2894    3           CALL SYS_FUNC_WRIT;
      644     2895    3           DETAILINE.REC = ' ';
      645     2896    3           INDX = RECLIST.SETINDX(I) + 1;
      646     2897
      647     2898    4           DO WHILE(SETLIST(INDX) ~= -1);
      648     2899    4               DETAILINE.SET = MSTR_REF.NAME(SET_XREF.MSTRINDX(SETLIST(INDX)));
      649     2900    4               CALL SYS_FUNC_WRIT;
      650     2901    4               INDX = INDX +1;
      651     2902    4               END;
      652     2903
      653     2904    3           BUFLNSF = 60;
      654     2905    3           BUFSF = VECTOR(REPRTHEAD3);
      655     2906    3           CALL SYS_FUNC_WRIT;
      656     2907    3           END;
      657     2908
      658     2909    2       RETURN;
      659     2910
      660     2911    2   END PRINT_REPORT;
      661     2912
      662     2913        %EJECT;
PL6.E3A0      #002=ZIU$CHKVAL File=ZIU$VALSET.:ZIC0TSI                           FRI 09/05/97 13:33 Page:65
      663     2914    1   SET_ERROR: PROC(SETNAME);
      664     2915    2   DCL SETNAME CHAR(30);
      665     2916
      666     2917         /*E* ERROR: ZIU-DBU#NSETNM-C
      667     2918              MESSAGE: Set name "%U1" does not exist.     */
      668     2919    2       ERR_INSERT.TEXT(0) = SETNAME;
      669     2920    2       CALL INDEX(INDX,' ',SETNAME);
      670     2921    2       ERR_INSERT.CNT(0) = INDX;
      671     2922    2       ERRCODESF.ERR# = DBU#NSETNM;
      672     2923    2       MSGCODE = ERRCODE_RDEF;
      673     2924    2       CALL SYS_FUNC_ERRMSG;
      674     2925    2       RETURN;
      675     2926
      676     2927    2   END SET_ERROR;
      677     2928    1   ALT_CHK:
      678     2929    1       ALTRETURN;
      679     2930    1   END ZIU$CHKVAL;
      680     2931        %EOD;

PL6.E3A0      #002=ZIU$CHKVAL File=ZIU$VALSET.:ZIC0TSI                           FRI 09/05/97 13:33 Page:66
--  Include file information  --

   ZI$DIR.:ZIC0TOU  is referenced.
   CP_6_SUBS.:LIB_E05  is referenced.
   CP_6.:LIB_E05  cannot be made into a system file and is referenced.
   ZI_ERRORS_SUBS.:ZIC0TOU  is referenced.
   ZI_DBU_XREF.:ZIC0TOU  cannot be made into a system file and is referenced.
   ZI$PG_STRUCTS.:ZIC0TOU  is referenced.
   ZI_GLOBAL_DBUTIL.:ZIC0TOU  is referenced.
   ZI_DBU_VALDTE.:ZIC0TOU  is referenced.
   B$JIT_C.:E05TOU  was found in the system file and is never referenced.
   CP_6_C.:E05TOU  was found in the system file and is referenced.
      No diagnostics issued in procedure ZIU$CHKVAL.

   Procedure ZIU$CHKVAL requires 516 words for executable code.
   Procedure ZIU$CHKVAL requires 8 words of local(AUTO) storage.

PL6.E3A0      #002=ZIU$CHKVAL File=ZIU$VALSET.:ZIC0TSI                           FRI 09/05/97 13:33 Page:67

 Object Unit name= ZIU$CHKVAL                                 File name= ZIU$VALSET.:ZIC0TOU
 UTS= SEP 05 '97 13:33:31.88 FRI                              Compiler= PL-6/E31         Sev=      00
 SharedLib= :SHARED_SYSTEM                                    Alt SharedLib=


    ****  Control sections  ****

 Sect   Type Bound  Init  Size OctSiz  Section name(segment info)
    0   Data  even  none    73    111  ZIU$CHKVAL
    1   DCB   even  none     0      0  M$LO
    2   DCB   even  none     0      0  M$UC
    3   Proc  even  none   516   1004  ZIU$CHKVAL
    4  RoData even  none    20     24  ZIU$CHKVAL

    ****  Entry defs  ****

                              Check   Calling
                             calling  sequence
  Sect OctLoc Primary Altret sequence   type   Parms  Name
     3      0   yes    yes     yes      Std        0  ZIU$CHKVAL

  ****  Data defs  ****

 Sect OctLoc  Name                           Sect OctLoc  Name
    0      0  AREANO
PL6.E3A0      #002=ZIU$CHKVAL File=ZIU$VALSET.:ZIC0TSI                           FRI 09/05/97 13:33 Page:68

  ****  Entry refs  ****

         Check        Calling
        calling       sequence
Altret sequence SRef   type   Args  Name
 yes     yes           Std       1 GET_DCB
 yes     yes           Std       0 ZIU$CHECK
         yes           Std       2 FIND_MSTR_ENTRY
 yes     yes           Std       0 REPORT_CHK
 yes     yes           Std       0 SYS_FUNC_WRIT
 yes     yes           Std       0 SYS_FUNC_ERRMSG
                       nStd      0 X66_AUTO_0
                       nStd      0 X66_AALT
                       nStd      0 X66_ARET

  ****  Data refs  ****

  Flags:  r = read only, s = secondary
Flgs Name                             Flgs Name                             Flgs Name
     PRIVAL                                NXTVAL                                SETCNT
     BREAK_LOCAT                           RECLIST                               SETLIST
     SETINDX                               RECINDX                               HIGH_RECINDX
     EGREC$                                EGINDX                                NO_EGRECS
     NO_EGBUFS                             LAST_EGINDX                           CURREG
     CURRPT                                EGFILE                                ERRFILE
     NO_ERRORS                             ERROR_BUF                             ERRBUF$
     BLKLSF                                KEYLSF                                KEYXSF
     DCBSF                                 ORGSF                                 KEYSF
     KEYVSF                                ACSSF                                 NOTIMESF
     FUNSF                                 ASNSF                                 TESTSF
     XTENSIZESF                            DISPSF                                WAITSF
     VFCSF                                 FULLSF                                BKUPSF
     BUFLNSF                               BUFSF                                 SOURCESF
     DESTSF                                DATESF                                TIMESF
     UTSSF                                 DAYSF                                 TSTAMPSF
     ENCRP_SEEDSF                          ERRCODESF                             MSGCODE
     INCL_ERR                              ERR_INSERT                            FIDSF_RD
PL6.E3A0      #002=ZIU$CHKVAL File=ZIU$VALSET.:ZIC0TSI                           FRI 09/05/97 13:33 Page:69
     ACNT                                  EXISTSF                               SHARESF
     DCBNMSF                               KEYRSF                                NO_KEYSF
     REASGNSF                              CARRY_ATTRIBUTESF                     SUBMESSF
     SPKY_OPNSF                            POSSF                                 ERRFLGSF
     MERGESF                               FSA_FLAG                              RELGSF
     UNUSED                                HELPCODE                              COUNTSF
     INDEXSF                               GAP                                   PSNSF
     ACNTSF                                KEY_SHADWSF                           REC$
     RB                                    RE                                    IE
     IB                                    CNT                                   ICNT
     RCNT                                  SCNT                                  FIRST_SET
     RETCNT                                DMPCNT                                KCNT
     ACNT_IDX                              I                                     J
     K                                     X                                     STEPCC
     I_O_BUF$                              OUT_INDX                              I_O_SIZE
     REC_DATA_LN                           M$LO                                  B$TCB$
     B$ROS$                                B$JIT$                                KEYFID
     I_O_KEY                               RESTART                               BREAK_FLAG
     ICHKSUM                               ITMCNT                                GAP1
     ATBLK$                                DATA$                                 TYPE
     MSTR$                                 NXT_MSLOT                             MAX_MSLOT
     MSTR_INDX                             HASHTBL                               HASHINDX
     LOC_MODE                              AREA_KEY$                             NO_AREAS
     GLBL_PTR_SZ                           SET_XREF$                             NXT_SSLOT
     MAX_SSLOT                             REC_XREF$                             NXT_RSLOT
     MAX_RSLOT                             NO_RECS                               NO_SETS
     XREF_BUILT                            TYPESET                               TYPEREC
     M$UC                                  ZI$DIR                                SCHEMA_ACTIVE
     RECORD_LIST                           SET_LIST                              RETAIN_LIST
     DUMP_FID                              ALTKY                                 INIT_RG
     KEY_RNG                               ITEM_LIST
PL6.E3A0      #002=ZIU$CHKVAL File=ZIU$VALSET.:ZIC0TSI                           FRI 09/05/97 13:33 Page:70

  ****  Segment refs  ****

  Flags:  r = read only, s = secondary
Flgs Name                             Flgs Name                             Flgs Name
     ISSID
PL6.E3A0      #002=ZIU$CHKVAL File=ZIU$VALSET.:ZIC0TSI                           FRI 09/05/97 13:33 Page:71


      384        1        /*T***********************************************************/
      385        2        /*T*                                                         */
      386        3        /*T* Copyright (c) Bull HN Information Systems Inc., 1997    */
      387        4        /*T*                                                         */
      388        5        /*T***********************************************************/
      389        6        /*P*
      390        7           NAME: ZIU$CHKVAL
      391        8        PURPOSE: This routine figures out which sets need to be validated and
      392        9                 builds link list tables to connect those records to only the
      393       10                 sets to be validated.
      394       11        */
      395       12        ZIU$CHKVAL: PROC ALTRET;

     12  3 000000   000000 700200 xent  ZIU$CHKVAL   TSX0  ! X66_AUTO_0
         3 000001   000010 000000                    ZERO    8,0

      396       13
      397       14
      398       15    1   DCL AREANO SBIN WORD STATIC SYMDEF ALIGNED;
      399       16    1   DCL INDX SBIN WORD STATIC ALIGNED;
      400       17    1   DCL TEMP SBIN WORD STATIC ALIGNED;
      401       18
      402       19    1   DCL PRIVAL SBIN WORD SYMREF ALIGNED;
      403       20    1   DCL NXTVAL SBIN WORD SYMREF ALIGNED;
      404       21    1   DCL 1 SETCNT (0:499) SYMREF ALIGNED,
      405       22    1         2 PR UBIN WORD ALIGNED,
      406       23    1         2 NXT UBIN WORD ALIGNED,
      407       24    1         2 DBK UBIN WORD ALIGNED;
      408       25
      409       26    1   DCL TYPE_PA BIT(1) STATIC ALIGNED;
      410       27
      411       28         %INCLUDE ZI_DBU_VALDTE;
      412      296         %VALID_LIST;
      413      436         %INCLUDE ZI_GLOBAL_DBUTIL;
      414      614         %SYS_FUNC;
      415      706         %MISC_DCLS;
PL6.E3A0      #002=ZIU$CHKVAL File=ZIU$VALSET.:ZIC0TSI                           FRI 09/05/97 13:33 Page:72
      416      759         %INCLUDE ZI$PG_STRUCTS;
      417      862         %ATBLK_PG;
      418      918         %DATA_PG;
      419      937         %INCLUDE ZI_DBU_XREF;
      420     1104         %XREF_TBLS;
      421     1179         %INCLUDE ZI_ERRORS_SUBS;
      422     1699         %INCLUDE CP_6;
      423     1780         %F$DCB;
      424     1837         %INCLUDE CP_6_SUBS;
      425     2377         %INCLUDE ZI$DIR;
      426     2534         %DIR;
      427     2678
      428     2679
      429     2680    1   DCL BUILD_MSTR_TBL ENTRY ALTRET;
      430     2681    1   DCL BUILD_SETXREF ENTRY ALTRET;
      431     2682    1   DCL BUILD_RECXREF ENTRY ALTRET;
      432     2683    1   DCL FIND_MSTR_ENTRY ENTRY(2);
      433     2684    1   DCL GET_DCB ENTRY(1) ALTRET;
      434     2685    1   DCL ZIU$CHECK ENTRY ALTRET;
      435     2686    1   DCL SYS_FUNC_WRIT ENTRY ALTRET;
      436     2687    1   DCL SYS_FUNC_ERRMSG ENTRY ALTRET;
      437     2688    1   DCL REPORT_CHK ENTRY ALTRET;
      438     2689
      439     2690        %EJECT;
PL6.E3A0      #002=ZIU$CHKVAL File=ZIU$VALSET.:ZIC0TSI                           FRI 09/05/97 13:33 Page:73
      440     2691
      441     2692    1       IF ZI$DIR.CHECK ~= %YES# THEN

   2692  3 000002   000125 430000 xsym               FSZN    ZI$DIR+85
         3 000003   000016 604000 3                  TMI     s:2705

      442     2693    2       DO;

      443     2694    2           ZI$DIR.CHECK = %YES#; /* Default a check on the area */

   2694  3 000004   001000 236003                    LDQ     512,DU
         3 000005   000125 256000 xsym               ORSQ    ZI$DIR+85

      444     2695    2           IF RCNT ~= -1 AND /* 'VAL' option was specified if true */

   2695  3 000006   000000 235000 xsym               LDA     RCNT
         3 000007   000000 115000 4                  CMPA    0
         3 000010   000016 600000 3                  TZE     s:2705
         3 000011   000000 235000 xsym               LDA     ITMCNT
         3 000012   000000 115000 4                  CMPA    0
         3 000013   000016 601000 3                  TNZ     s:2705

      445     2696    2              ITMCNT = -1 THEN /* 'NOVAL' option not used if true */
      446     2697    2               ZI$DIR.CHECK = %NO#;

   2697  3 000014   000001 236000 4                  LDQ     1
         3 000015   000125 356000 xsym               ANSQ    ZI$DIR+85

      447     2698    2           END;

      448     2699
      449     2700        /*
      450     2701           Check area for broken chains and mark the mastr table with the
      451     2702           sets that don't check ok.
      452     2703        */
      453     2704
      454     2705    2       DO I = NO_RECS TO (NO_RECS+NO_SETS-1);
PL6.E3A0      #002=ZIU$CHKVAL File=ZIU$VALSET.:ZIC0TSI                           FRI 09/05/97 13:33 Page:74

   2705  3 000016   000000 235000 xsym               LDA     NO_RECS
         3 000017   000000 755000 xsym               STA     I
         3 000020   000030 710000 3                  TRA     s:2707+1

      455     2706    2           MSTR_REF.SET.FLG(I) = %NO#;

   2706  3 000021   000000 236000 xsym               LDQ     I
         3 000022   000012 402007                    MPY     10,DL
         3 000023   000000 470400 xsym               LDP0    MSTR$
         3 000024   000000 620006                    EAX0    0,QL
         3 000025   000002 236000 4                  LDQ     2
         3 000026   000011 356110                    ANSQ    9,X0,PR0

      456     2707    2           END;

   2707  3 000027   000000 054000 xsym               AOS     I
         3 000030   000000 236000 xsym               LDQ     NO_RECS
         3 000031   000000 036000 xsym               ADLQ    NO_SETS
         3 000032   000000 116000 xsym               CMPQ    I
         3 000033   000021 605400 3                  TPNZ    s:2706

      457     2708
      458     2709    1       IF ZI$DIR.CHECK = %YES# THEN

   2709  3 000034   000125 430000 xsym               FSZN    ZI$DIR+85
         3 000035   000172 605000 3                  TPL     s:2734

      459     2710    2       DO;

      460     2711    3           DO AREANO = 0 TO NO_AREAS-1;

   2711  3 000036   000000 450000 0                  STZ     AREANO
         3 000037   000060 710000 3                  TRA     s:2716+1

      461     2712    3               ZI$DIR.AREA_NM.NAME.TEXT = AREA_KEY_XREF.NAME(AREANO);

PL6.E3A0      #002=ZIU$CHKVAL File=ZIU$VALSET.:ZIC0TSI                           FRI 09/05/97 13:33 Page:75
   2712  3 000040   000000 236000 0                  LDQ     AREANO
         3 000041   000050 402007                    MPY     40,DL
         3 000042   000000 470400 xsym               LDP0    AREA_KEY$
         3 000043   040000 100506                    MLR     fill='040'O
         3 000044   000001 400036                    ADSC9   1,Q,PR0                  cn=2,n=30
         3 000045   000234 200036 xsym               ADSC9   ZI$DIR+156               cn=1,n=30

      462     2713    3               ZI$DIR.CHECK_ALL = '1'B;

   2713  3 000046   400000 236007                    LDQ     -131072,DL
         3 000047   000141 256000 xsym               ORSQ    ZI$DIR+97

      463     2714    3               CALL GET_DCB(ZI$DIR.AREA_NM) ALTRET(ALT_CHK);

   2714  3 000050   000004 630400 4                  EPPR0   4
         3 000051   000003 631400 4                  EPPR1   3
         3 000052   000000 701000 xent               TSX1    GET_DCB
         3 000053   001003 702000 3                  TSX2    ALT_CHK

      464     2715    3               CALL ZIU$CHECK ALTRET(ALT_CHK);

   2715  3 000054   000005 631400 4                  EPPR1   5
         3 000055   000000 701000 xent               TSX1    ZIU$CHECK
         3 000056   001003 702000 3                  TSX2    ALT_CHK

      465     2716    3               END;

   2716  3 000057   000000 054000 0                  AOS     AREANO
         3 000060   000000 236000 0                  LDQ     AREANO
         3 000061   000000 116000 xsym               CMPQ    NO_AREAS
         3 000062   000040 604000 3                  TMI     s:2712

      466     2717
      467     2718    3           DO I = NO_RECS TO (NO_RECS+NO_SETS-1); /* Mark bad sets */

   2718  3 000063   000000 235000 xsym               LDA     NO_RECS
         3 000064   000000 755000 xsym               STA     I
PL6.E3A0      #002=ZIU$CHKVAL File=ZIU$VALSET.:ZIC0TSI                           FRI 09/05/97 13:33 Page:76
         3 000065   000163 710000 3                  TRA     s:2727+1

      468     2719    3               PRIVAL = SETCNT.PR(I-NO_RECS) - SETCNT.DBK(I-NO_RECS);

   2719  3 000066   000000 236000 xsym               LDQ     I
         3 000067   000000 136000 xsym               SBLQ    NO_RECS
         3 000070   200006 756100                    STQ     @SETNAME+1,,AUTO
         3 000071   000000 236000 xsym               LDQ     I
         3 000072   000000 136000 xsym               SBLQ    NO_RECS
         3 000073   000003 402007                    MPY     3,DL
         3 000074   000000 620006                    EAX0    0,QL
         3 000075   200006 236100                    LDQ     @SETNAME+1,,AUTO
         3 000076   000003 402007                    MPY     3,DL
         3 000077   000000 236006 xsym               LDQ     SETCNT,QL
         3 000100   000002 136010 xsym               SBLQ    SETCNT+2,X0
         3 000101   000000 756000 xsym               STQ     PRIVAL

      469     2720    3               NXTVAL = SETCNT.NXT(I-NO_RECS) - SETCNT.DBK(I-NO_RECS);

   2720  3 000102   000000 236000 xsym               LDQ     I
         3 000103   000000 136000 xsym               SBLQ    NO_RECS
         3 000104   200006 756100                    STQ     @SETNAME+1,,AUTO
         3 000105   000000 236000 xsym               LDQ     I
         3 000106   000000 136000 xsym               SBLQ    NO_RECS
         3 000107   000003 402007                    MPY     3,DL
         3 000110   000000 620006                    EAX0    0,QL
         3 000111   200006 236100                    LDQ     @SETNAME+1,,AUTO
         3 000112   000003 402007                    MPY     3,DL
         3 000113   000001 236006 xsym               LDQ     SETCNT+1,QL
         3 000114   000002 136010 xsym               SBLQ    SETCNT+2,X0
         3 000115   000000 756000 xsym               STQ     NXTVAL

      470     2721    3               IF PRIVAL ~= 0 OR NXTVAL ~= 0 THEN

   2721  3 000116   000000 235000 xsym               LDA     PRIVAL
         3 000117   000122 601000 3                  TNZ     s:2722
         3 000120   000000 116003                    CMPQ    0,DU
PL6.E3A0      #002=ZIU$CHKVAL File=ZIU$VALSET.:ZIC0TSI                           FRI 09/05/97 13:33 Page:77
         3 000121   000145 600000 3                  TZE     s:2725

      471     2722    3                   IF (MSTR_REF.SET.INMODE(I) OR MSTR_REF.SET.RETYPE(I)) AND

   2722  3 000122   000000 236000 xsym               LDQ     I
         3 000123   000012 402007                    MPY     10,DL
         3 000124   000000 470400 xsym               LDP0    MSTR$
         3 000125   000011 236106                    LDQ     9,QL,PR0
         3 000126   000010 316003                    CANQ    8,DU
         3 000127   000135 601000 3                  TNZ     s:2722+11
         3 000130   000000 236000 xsym               LDQ     I
         3 000131   000012 402007                    MPY     10,DL
         3 000132   000011 236106                    LDQ     9,QL,PR0
         3 000133   000004 316003                    CANQ    4,DU
         3 000134   000140 600000 3                  TZE     s:2724
         3 000135   000000 236000 xsym               LDQ     PRIVAL
         3 000136   000000 116000 xsym               CMPQ    NXTVAL
         3 000137   000145 600000 3                  TZE     s:2725

      472     2723    3                      PRIVAL=NXTVAL THEN; /* disconnected member; just a warning */
      473     2724    3                   ELSE MSTR_REF.SET.FLG(I) = '1'B;

   2724  3 000140   000000 236000 xsym               LDQ     I
         3 000141   000012 402007                    MPY     10,DL
         3 000142   000000 620006                    EAX0    0,QL
         3 000143   000040 236003                    LDQ     32,DU
         3 000144   000011 256110                    ORSQ    9,X0,PR0

      474     2725    3               IF MSTR_REF.SET.PATYPE(I) = '1'B AND NXTVAL ~= 0 THEN

   2725  3 000145   000000 236000 xsym               LDQ     I
         3 000146   000012 402007                    MPY     10,DL
         3 000147   000000 470400 xsym               LDP0    MSTR$
         3 000150   000011 236106                    LDQ     9,QL,PR0
         3 000151   000002 316003                    CANQ    2,DU
         3 000152   000162 600000 3                  TZE     s:2727
         3 000153   000000 235000 xsym               LDA     NXTVAL
PL6.E3A0      #002=ZIU$CHKVAL File=ZIU$VALSET.:ZIC0TSI                           FRI 09/05/97 13:33 Page:78
         3 000154   000162 600000 3                  TZE     s:2727

      475     2726    3                   MSTR_REF.SET.FLG(I) = '1'B;

   2726  3 000155   000000 236000 xsym               LDQ     I
         3 000156   000012 402007                    MPY     10,DL
         3 000157   000000 620006                    EAX0    0,QL
         3 000160   000040 236003                    LDQ     32,DU
         3 000161   000011 256110                    ORSQ    9,X0,PR0

      476     2727    3               END;

   2727  3 000162   000000 054000 xsym               AOS     I
         3 000163   000000 236000 xsym               LDQ     NO_RECS
         3 000164   000000 036000 xsym               ADLQ    NO_SETS
         3 000165   000000 116000 xsym               CMPQ    I
         3 000166   000066 605400 3                  TPNZ    s:2719

      477     2728         /* Print report of bad sets found by check */
      478     2729    2           CALL REPORT_CHK ALTRET(ALT_CHK);

   2729  3 000167   000005 631400 4                  EPPR1   5
         3 000170   000000 701000 xent               TSX1    REPORT_CHK
         3 000171   001003 702000 3                  TSX2    ALT_CHK

      479     2730    2           END;

      480     2731        /*
      481     2732           Merge in set selection from the 'VAL' option in the directive.
      482     2733        */
      483     2734    2       DO I = 0 TO RCNT; /* RECORD_LIST used to store validate set list */

   2734  3 000172   000000 450000 xsym               STZ     I
         3 000173   000230 710000 3                  TRA     s:2744+1

      484     2735    2           CALL FIND_MSTR_ENTRY(RECORD_LIST.NAME(I),MSTR_INDX);

PL6.E3A0      #002=ZIU$CHKVAL File=ZIU$VALSET.:ZIC0TSI                           FRI 09/05/97 13:33 Page:79
   2735  3 000174   000007 236000 4                  LDQ     7
         3 000175   200007 756100                    STQ     @SETNAME+2,,AUTO
         3 000176   000000 236000 xsym               LDQ     I
         3 000177   000025 736000                    QLS     21
         3 000200   000010 036000 4                  ADLQ    8
         3 000201   200006 756100                    STQ     @SETNAME+1,,AUTO
         3 000202   200006 630500                    EPPR0   @SETNAME+1,,AUTO
         3 000203   000006 631400 4                  EPPR1   6
         3 000204   000000 701000 xent               TSX1    FIND_MSTR_ENTRY
         3 000205   000000 011000                    NOP     0

      485     2736    2           IF MSTR_INDX ~= -1 THEN

   2736  3 000206   000000 235000 xsym               LDA     MSTR_INDX
         3 000207   000000 115000 4                  CMPA    0
         3 000210   000220 600000 3                  TZE     s:2741

      486     2737    3           DO;

      487     2738    3               MSTR_REF.SET.FLG(MSTR_INDX) = '1'B;

   2738  3 000211   000000 236000 xsym               LDQ     MSTR_INDX
         3 000212   000012 402007                    MPY     10,DL
         3 000213   000000 470400 xsym               LDP0    MSTR$
         3 000214   000000 620006                    EAX0    0,QL
         3 000215   000040 236003                    LDQ     32,DU
         3 000216   000011 256110                    ORSQ    9,X0,PR0

      488     2739    3               END;

   2739  3 000217   000227 710000 3                  TRA     s:2744

      489     2740    3           ELSE DO;

      490     2741    3               CALL SET_ERROR(RECORD_LIST.NAME(I));

   2741  3 000220   000000 236000 xsym               LDQ     I
PL6.E3A0      #002=ZIU$CHKVAL File=ZIU$VALSET.:ZIC0TSI                           FRI 09/05/97 13:33 Page:80
         3 000221   000025 736000                    QLS     21
         3 000222   000010 036000 4                  ADLQ    8
         3 000223   200005 756100                    STQ     5,,AUTO
         3 000224   000755 701000 3                  TSX1    SET_ERROR
         3 000225   000000 011000                    NOP     0

      491     2742    3               ALTRETURN;

   2742  3 000226   000000 702200 xent               TSX2  ! X66_AALT

      492     2743    3               END;
      493     2744    2           END;

   2744  3 000227   000000 054000 xsym               AOS     I
         3 000230   000000 236000 xsym               LDQ     I
         3 000231   000000 116000 xsym               CMPQ    RCNT
         3 000232   000174 604400 3                  TMOZ    s:2735

      494     2745        /*
      495     2746           Merge in set selection from the 'NOVAL' option in directive.
      496     2747        */
      497     2748    2       DO I = 0 TO ITMCNT; /* ITEM_LIST used to store noval set list*/

   2748  3 000233   000000 450000 xsym               STZ     I
         3 000234   000271 710000 3                  TRA     s:2758+1

      498     2749    2           CALL FIND_MSTR_ENTRY(ITEM_LIST.NAME(I),MSTR_INDX);

   2749  3 000235   000007 236000 4                  LDQ     7
         3 000236   200007 756100                    STQ     @SETNAME+2,,AUTO
         3 000237   000000 236000 xsym               LDQ     I
         3 000240   000025 736000                    QLS     21
         3 000241   000011 036000 4                  ADLQ    9
         3 000242   200006 756100                    STQ     @SETNAME+1,,AUTO
         3 000243   200006 630500                    EPPR0   @SETNAME+1,,AUTO
         3 000244   000006 631400 4                  EPPR1   6
         3 000245   000000 701000 xent               TSX1    FIND_MSTR_ENTRY
PL6.E3A0      #002=ZIU$CHKVAL File=ZIU$VALSET.:ZIC0TSI                           FRI 09/05/97 13:33 Page:81
         3 000246   000000 011000                    NOP     0

      499     2750    2           IF MSTR_INDX ~= -1 THEN

   2750  3 000247   000000 235000 xsym               LDA     MSTR_INDX
         3 000250   000000 115000 4                  CMPA    0
         3 000251   000261 600000 3                  TZE     s:2755

      500     2751    3           DO;

      501     2752    3               MSTR_REF.SET.FLG(MSTR_INDX) = '0'B;

   2752  3 000252   000000 236000 xsym               LDQ     MSTR_INDX
         3 000253   000012 402007                    MPY     10,DL
         3 000254   000000 470400 xsym               LDP0    MSTR$
         3 000255   000000 620006                    EAX0    0,QL
         3 000256   000002 236000 4                  LDQ     2
         3 000257   000011 356110                    ANSQ    9,X0,PR0

      502     2753    3               END;

   2753  3 000260   000270 710000 3                  TRA     s:2758

      503     2754    3           ELSE DO;

      504     2755    3               CALL SET_ERROR(ITEM_LIST.NAME(I));

   2755  3 000261   000000 236000 xsym               LDQ     I
         3 000262   000025 736000                    QLS     21
         3 000263   000011 036000 4                  ADLQ    9
         3 000264   200005 756100                    STQ     5,,AUTO
         3 000265   000755 701000 3                  TSX1    SET_ERROR
         3 000266   000000 011000                    NOP     0

      505     2756    3               ALTRETURN;

   2756  3 000267   000000 702200 xent               TSX2  ! X66_AALT
PL6.E3A0      #002=ZIU$CHKVAL File=ZIU$VALSET.:ZIC0TSI                           FRI 09/05/97 13:33 Page:82

      506     2757    3               END;
      507     2758    2           END;

   2758  3 000270   000000 054000 xsym               AOS     I
         3 000271   000000 236000 xsym               LDQ     I
         3 000272   000000 116000 xsym               CMPQ    ITMCNT
         3 000273   000235 604400 3                  TMOZ    s:2749

      508     2759        %EJECT;
PL6.E3A0      #002=ZIU$CHKVAL File=ZIU$VALSET.:ZIC0TSI                           FRI 09/05/97 13:33 Page:83
      509     2760        /*
      510     2761           Build a list of records that are participants in the sets to
      511     2762           be validated.
      512     2763        */
      513     2764    1       RECINDX = -1;

   2764  3 000274   000001 335007                    LCA     1,DL
         3 000275   000000 755000 xsym               STA     RECINDX

      514     2765    2       DO I = NO_RECS TO (NO_RECS + NO_SETS -1);

   2765  3 000276   000000 235000 xsym               LDA     NO_RECS
         3 000277   000000 755000 xsym               STA     I
         3 000300   000363 710000 3                  TRA     s:2784+1

      515     2766    2           IF MSTR_REF.SET.FLG(I) = %YES# THEN /* validate = yes */

   2766  3 000301   000000 236000 xsym               LDQ     I
         3 000302   000012 402007                    MPY     10,DL
         3 000303   000000 470400 xsym               LDP0    MSTR$
         3 000304   000011 236106                    LDQ     9,QL,PR0
         3 000305   000040 316003                    CANQ    32,DU
         3 000306   000362 600000 3                  TZE     s:2784

      516     2767    3           DO;

      517     2768    3               INDX = MSTR_REF.NEXT(I); /* Follow record chain */

   2768  3 000307   000000 236000 xsym               LDQ     I
         3 000310   000012 402007                    MPY     10,DL
         3 000311   000000 236106                    LDQ     0,QL,PR0
         3 000312   000022 736000                    QLS     18
         3 000313   000022 732000                    QRS     18
         3 000314   000001 756000 0                  STQ     INDX

      518     2769    4               DO WHILE(INDX ~= -1);

PL6.E3A0      #002=ZIU$CHKVAL File=ZIU$VALSET.:ZIC0TSI                           FRI 09/05/97 13:33 Page:84
   2769  3 000315   000360 710000 3                  TRA     s:2782

      519     2770         /* Add rec's mstrindx to reclist unless previously done */
      520     2771    4                   X = 0;

   2771  3 000316   000000 450000 xsym               STZ     X

      521     2772    5                   DO WHILE(X <= RECINDX AND

   2772  3 000317   000321 710000 3                  TRA     s:2775

      522     2773    5                      RECLIST.MSTRINDX(X) ~= REC_XREF.MSTRINDX(INDX));
      523     2774    5                       X = X+1;

   2774  3 000320   000000 054000 xsym               AOS     X

      524     2775    5                       END;

   2775  3 000321   000000 236000 xsym               LDQ     X
         3 000322   000000 116000 xsym               CMPQ    RECINDX
         3 000323   000337 605400 3                  TPNZ    s:2776
         3 000324   000000 470400 xsym               LDP0    REC_XREF$
         3 000325   000001 720000 0                  LXL0    INDX
         3 000326   000000 236110                    LDQ     0,X0,PR0
         3 000327   000001 772000                    QRL     1
         3 000330   377777 376007                    ANQ     131071,DL
         3 000331   200006 756100                    STQ     @SETNAME+1,,AUTO
         3 000332   000000 721000 xsym               LXL1    X
         3 000333   000000 236011 xsym               LDQ     RECLIST,X1
         3 000334   000022 732000                    QRS     18
         3 000335   200006 116100                    CMPQ    @SETNAME+1,,AUTO
         3 000336   000320 601000 3                  TNZ     s:2774

      525     2776    4                   IF X > RECINDX THEN

   2776  3 000337   000000 236000 xsym               LDQ     X
         3 000340   000000 116000 xsym               CMPQ    RECINDX
PL6.E3A0      #002=ZIU$CHKVAL File=ZIU$VALSET.:ZIC0TSI                           FRI 09/05/97 13:33 Page:85
         3 000341   000353 604400 3                  TMOZ    s:2781

      526     2777    5                   DO; /* Rec not prev entered in list */

      527     2778    5                       RECINDX = RECINDX + 1;

   2778  3 000342   000000 054000 xsym               AOS     RECINDX

      528     2779    5                       RECLIST.MSTRINDX(RECINDX) = REC_XREF.MSTRINDX(INDX);

   2779  3 000343   000000 470400 xsym               LDP0    REC_XREF$
         3 000344   000001 720000 0                  LXL0    INDX
         3 000345   000000 236110                    LDQ     0,X0,PR0
         3 000346   000001 772000                    QRL     1
         3 000347   377777 376007                    ANQ     131071,DL
         3 000350   000000 621006                    EAX1    0,QL
         3 000351   000000 722000 xsym               LXL2    RECINDX
         3 000352   000000 741012 xsym               STX1    RECLIST,X2

      529     2780    5                       END;

      530     2781    4                   INDX = REC_XREF.NEXT(INDX);

   2781  3 000353   000000 470400 xsym               LDP0    REC_XREF$
         3 000354   000001 720000 0                  LXL0    INDX
         3 000355   000000 236110                    LDQ     0,X0,PR0
         3 000356   000022 732000                    QRS     18
         3 000357   000001 756000 0                  STQ     INDX

      531     2782    4                   END;

   2782  3 000360   000000 116000 4                  CMPQ    0
         3 000361   000316 601000 3                  TNZ     s:2771

      532     2783    3               END;

      533     2784    2           END;
PL6.E3A0      #002=ZIU$CHKVAL File=ZIU$VALSET.:ZIC0TSI                           FRI 09/05/97 13:33 Page:86

   2784  3 000362   000000 054000 xsym               AOS     I
         3 000363   000000 236000 xsym               LDQ     NO_RECS
         3 000364   000000 036000 xsym               ADLQ    NO_SETS
         3 000365   000000 116000 xsym               CMPQ    I
         3 000366   000301 605400 3                  TPNZ    s:2766

      534     2785        %EJECT;
PL6.E3A0      #002=ZIU$CHKVAL File=ZIU$VALSET.:ZIC0TSI                           FRI 09/05/97 13:33 Page:87
      535     2786        /*
      536     2787           Now that a list of records has been made - create a link list
      537     2788           of records to set members for each record type. Each record entry
      538     2789           will point to a list of sets the record is owner or member and
      539     2790           are also being validated. The sets must be linked in sorted (by
      540     2791           set number) order for proper application of EG-PT decision table.
      541     2792        */
      542     2793    1       SETINDX = 0;

   2793  3 000367   000000 450000 xsym               STZ     SETINDX

      543     2794    1       HIGH_RECINDX = RECINDX;

   2794  3 000370   000000 235000 xsym               LDA     RECINDX
         3 000371   000000 755000 xsym               STA     HIGH_RECINDX

      544     2795    2       DO I = 0 TO RECINDX;

   2795  3 000372   000000 450000 xsym               STZ     I
         3 000373   000553 710000 3                  TRA     s:2839+1

      545     2796    2           RECLIST.SETINDX(I) = SETINDX;

   2796  3 000374   000000 720000 xsym               LXL0    SETINDX
         3 000375   000000 721000 xsym               LXL1    I
         3 000376   000000 440011 xsym               SXL0    RECLIST,X1

      546     2797         /*   Determine if this record is a PA record and if so
      547     2798            only accept one set description from the tables. */
      548     2799    2           INDX = RECLIST.MSTRINDX(I);

   2799  3 000377   000000 236011 xsym               LDQ     RECLIST,X1
         3 000400   000022 732000                    QRS     18
         3 000401   000001 756000 0                  STQ     INDX

      549     2800    2           IF MSTR_REF.PAOFF(INDX)>0 THEN /* PA_REC */

PL6.E3A0      #002=ZIU$CHKVAL File=ZIU$VALSET.:ZIC0TSI                           FRI 09/05/97 13:33 Page:88
   2800  3 000402   000012 402007                    MPY     10,DL
         3 000403   000000 470400 xsym               LDP0    MSTR$
         3 000404   000011 236106                    LDQ     9,QL,PR0
         3 000405   777000 316003                    CANQ    -512,DU
         3 000406   000412 600000 3                  TZE     s:2803

      550     2801    2               TYPE_PA = %YES#;

   2801  3 000407   400000 236003                    LDQ     -131072,DU
         3 000410   000003 756000 0                  STQ     TYPE_PA
         3 000411   000413 710000 3                  TRA     s:2804

      551     2802    2           ELSE
      552     2803    2               TYPE_PA = %NO#;

   2803  3 000412   000003 450000 0                  STZ     TYPE_PA

      553     2804    2           INDX = MSTR_REF.NEXT(INDX);

   2804  3 000413   000001 236000 0                  LDQ     INDX
         3 000414   000012 402007                    MPY     10,DL
         3 000415   000000 236106                    LDQ     0,QL,PR0
         3 000416   000022 736000                    QLS     18
         3 000417   000022 732000                    QRS     18
         3 000420   000001 756000 0                  STQ     INDX

      554     2805    3           DO WHILE(INDX ~= -1);

   2805  3 000421   000455 710000 3                  TRA     s:2815

      555     2806    3               IF MSTR_REF.SET.FLG(SET_XREF.MSTRINDX(INDX)) = %YES# THEN

   2806  3 000422   000001 235000 0                  LDA     INDX
         3 000423   000002 735000                    ALS     2
         3 000424   000000 470400 xsym               LDP0    SET_XREF$
         3 000425   000000 236105                    LDQ     0,AL,PR0
         3 000426   000022 732000                    QRS     18
PL6.E3A0      #002=ZIU$CHKVAL File=ZIU$VALSET.:ZIC0TSI                           FRI 09/05/97 13:33 Page:89
         3 000427   000012 402007                    MPY     10,DL
         3 000430   000000 471400 xsym               LDP1    MSTR$
         3 000431   100011 236106                    LDQ     9,QL,PR1
         3 000432   000040 316003                    CANQ    32,DU
         3 000433   000442 600000 3                  TZE     s:2811

      556     2807    4               DO;

      557     2808    4                   SETLIST(SETINDX) = INDX;

   2808  3 000434   000000 235000 xsym               LDA     SETINDX
         3 000435   000001 735000                    ALS     1
         3 000436   000005 101400                    MRL     fill='000'O
         3 000437   000001 000004 0                  ADSC9   INDX                     cn=0,n=4
         3 000440   000000 000002 xsym               ADSC9   SETLIST,A                cn=0,n=2

      558     2809    4                   SETINDX = SETINDX + 1;

   2809  3 000441   000000 054000 xsym               AOS     SETINDX

      559     2810    4                   END;

      560     2811    3               IF TYPE_PA = %YES# THEN

   2811  3 000442   000003 234000 0                  SZN     TYPE_PA
         3 000443   000447 605000 3                  TPL     s:2814

      561     2812    3                   INDX = -1; /* Terminate set extractions to */

   2812  3 000444   000001 335007                    LCA     1,DL
         3 000445   000001 755000 0                  STA     INDX
         3 000446   000455 710000 3                  TRA     s:2815

      562     2813    3               ELSE /* avoid duplicate PA entries. */
      563     2814    3                   INDX = SET_XREF.NEXT(INDX);

   2814  3 000447   000001 235000 0                  LDA     INDX
PL6.E3A0      #002=ZIU$CHKVAL File=ZIU$VALSET.:ZIC0TSI                           FRI 09/05/97 13:33 Page:90
         3 000450   000002 735000                    ALS     2
         3 000451   000000 236105                    LDQ     0,AL,PR0
         3 000452   000022 736000                    QLS     18
         3 000453   000022 732000                    QRS     18
         3 000454   000001 756000 0                  STQ     INDX

      564     2815    3               END;

   2815  3 000455   000001 235000 0                  LDA     INDX
         3 000456   000000 115000 4                  CMPA    0
         3 000457   000422 601000 3                  TNZ     s:2806

      565     2816         /*
      566     2817            Sort the set indexs in assending order.
      567     2818         */
      568     2819    2           J = RECLIST.SETINDX(I);

   2819  3 000460   000000 720000 xsym               LXL0    I
         3 000461   000000 236010 xsym               LDQ     RECLIST,X0
         3 000462   000022 736000                    QLS     18
         3 000463   000022 732000                    QRS     18
         3 000464   000000 756000 xsym               STQ     J

      569     2820    2   STRTSORT:
      570     2821    2           IF SETINDX - J = 1 THEN /* Only 1 set entry (no sort needed) */

   2821  3 000465   000000 236000 xsym  STRTSORT     LDQ     SETINDX
         3 000466   000000 136000 xsym               SBLQ    J
         3 000467   000001 116007                    CMPQ    1,DL
         3 000470   000544 600000 3                  TZE     CMPLTSORT

      571     2822    2               GOTO CMPLTSORT;
      572     2823    2           IF SET_XREF.MSTRINDX(SETLIST(J)) > SET_XREF.MSTRINDX(SETLIST(J+1)) THEN

   2823  3 000471   000000 235000 xsym               LDA     J
         3 000472   000001 735000                    ALS     1
         3 000473   000100 100405                    MLR     fill='000'O
PL6.E3A0      #002=ZIU$CHKVAL File=ZIU$VALSET.:ZIC0TSI                           FRI 09/05/97 13:33 Page:91
         3 000474   000000 000002 xsym               ADSC9   SETLIST,A                cn=0,n=2
         3 000475   200006 000004                    ADSC9   @SETNAME+1,,AUTO         cn=0,n=4
         3 000476   200006 236100                    LDQ     @SETNAME+1,,AUTO
         3 000477   000022 732000                    QRS     18
         3 000500   000002 736000                    QLS     2
         3 000501   000100 100405                    MLR     fill='000'O
         3 000502   000000 400002 xsym               ADSC9   SETLIST,A                cn=2,n=2
         3 000503   200007 000004                    ADSC9   @SETNAME+2,,AUTO         cn=0,n=4
         3 000504   000000 620006                    EAX0    0,QL
         3 000505   200007 236100                    LDQ     @SETNAME+2,,AUTO
         3 000506   000022 732000                    QRS     18
         3 000507   000002 736000                    QLS     2
         3 000510   000000 470400 xsym               LDP0    SET_XREF$
         3 000511   000000 221110                    LDX1    0,X0,PR0
         3 000512   000000 101106                    CMPX1   0,QL,PR0
         3 000513   000536 604400 3                  TMOZ    s:2831

      573     2824    3           DO;

      574     2825    3               TEMP = SETLIST(J);

   2825  3 000514   000100 100405                    MLR     fill='000'O
         3 000515   000000 000002 xsym               ADSC9   SETLIST,A                cn=0,n=2
         3 000516   200006 000004                    ADSC9   @SETNAME+1,,AUTO         cn=0,n=4
         3 000517   200006 236100                    LDQ     @SETNAME+1,,AUTO
         3 000520   000022 732000                    QRS     18
         3 000521   000002 756000 0                  STQ     TEMP

      575     2826    3               SETLIST(J) = SETLIST(J+1);

   2826  3 000522   000005 100405                    MLR     fill='000'O
         3 000523   000000 400002 xsym               ADSC9   SETLIST,A                cn=2,n=2
         3 000524   000000 000002 xsym               ADSC9   SETLIST,A                cn=0,n=2

      576     2827    3               SETLIST(J+1) = TEMP;

   2827  3 000525   000005 101400                    MRL     fill='000'O
PL6.E3A0      #002=ZIU$CHKVAL File=ZIU$VALSET.:ZIC0TSI                           FRI 09/05/97 13:33 Page:92
         3 000526   000002 000004 0                  ADSC9   TEMP                     cn=0,n=4
         3 000527   000000 400002 xsym               ADSC9   SETLIST,A                cn=2,n=2

      577     2828    3               J = RECLIST.SETINDX(I);

   2828  3 000530   000000 720000 xsym               LXL0    I
         3 000531   000000 236010 xsym               LDQ     RECLIST,X0
         3 000532   000022 736000                    QLS     18
         3 000533   000022 732000                    QRS     18
         3 000534   000000 756000 xsym               STQ     J

      578     2829    3               END;

   2829  3 000535   000543 710000 3                  TRA     s:2835

      579     2830    3           ELSE DO;

      580     2831    3               J = J+1;

   2831  3 000536   000000 054000 xsym               AOS     J

      581     2832    3               IF J = SETINDX -1 THEN

   2832  3 000537   000000 236000 xsym               LDQ     SETINDX
         3 000540   000001 136007                    SBLQ    1,DL
         3 000541   000000 116000 xsym               CMPQ    J
         3 000542   000544 600000 3                  TZE     CMPLTSORT

      582     2833    3                   GOTO CMPLTSORT;
      583     2834    3               END;

      584     2835    2           GOTO STRTSORT;

   2835  3 000543   000465 710000 3                  TRA     STRTSORT

      585     2836    2   CMPLTSORT:
      586     2837    2           SETLIST(SETINDX) = -1;
PL6.E3A0      #002=ZIU$CHKVAL File=ZIU$VALSET.:ZIC0TSI                           FRI 09/05/97 13:33 Page:93

   2837  3 000544   000000 235000 xsym  CMPLTSORT    LDA     SETINDX
         3 000545   000001 735000                    ALS     1
         3 000546   000005 101400                    MRL     fill='000'O
         3 000547   000000 000004 4                  ADSC9   0                        cn=0,n=4
         3 000550   000000 000002 xsym               ADSC9   SETLIST,A                cn=0,n=2

      587     2838    2           SETINDX = SETINDX +1;

   2838  3 000551   000000 054000 xsym               AOS     SETINDX

      588     2839    2           END;

   2839  3 000552   000000 054000 xsym               AOS     I
         3 000553   000000 236000 xsym               LDQ     I
         3 000554   000000 116000 xsym               CMPQ    RECINDX
         3 000555   000374 604400 3                  TMOZ    s:2796

      589     2840
      590     2841    1       IF SETINDX > 0 THEN /* Bad sets found or selected by CHKVAL */

   2841  3 000556   000000 235000 xsym               LDA     SETINDX
         3 000557   000562 604400 3                  TMOZ    s:2844

      591     2842    1           CALL PRINT_REPORT ALTRET(ALT_CHK);

   2842  3 000560   000563 701000 3                  TSX1    PRINT_REPORT
         3 000561   001003 702000 3                  TSX2    ALT_CHK

      592     2843
      593     2844    1       RETURN;

   2844  3 000562   000000 702200 xent               TSX2  ! X66_ARET

      594     2845        %EJECT;
PL6.E3A0      #002=ZIU$CHKVAL File=ZIU$VALSET.:ZIC0TSI                           FRI 09/05/97 13:33 Page:94
      595     2846        /*
      596     2847           Print a report on sets and records to be validated.
      597     2848        */
      598     2849    1   PRINT_REPORT: PROC ALTRET;

   2849  3 000563   200004 741300       PRINT_REPORT STX1  ! 4,,AUTO

      599     2850
      600     2851    2   DCL
      601     2852    2    1 REPRTHEAD STATIC CALIGNED,
      602     2853    2    2 VFC CHAR(1) CALIGNED INIT('A'),
      603     2854    2    2 * CHAR(69) CALIGNED INIT
      604     2855    2    ('The following records will participate in this validation process:');
      605     2856    2   DCL
      606     2857    2    1 REPRTHEAD2 STATIC CALIGNED,
      607     2858    2    2 VFC CHAR(1) CALIGNED INIT('A'),
      608     2859    2    2 * CHAR(60) CALIGNED INIT
      609     2860    2    ('            RECORD NAME                    SET NAME');
      610     2861    2   DCL
      611     2862    2    1 REPRTHEAD3 STATIC CALIGNED,
      612     2863    2    2 VFC CHAR(1) CALIGNED INIT('A'),
      613     2864    2    2 * CHAR(60) CALIGNED INIT
      614     2865    2    ('            -----------                    --------');
      615     2866    2   DCL
      616     2867    2    1 DETAILINE STATIC CALIGNED,
      617     2868    2    2 VFC CHAR(1) CALIGNED INIT('A'),
      618     2869    2    2 FIL CHAR(12) CALIGNED INIT(' '),
      619     2870    2    2 REC CHAR(31) CALIGNED,
      620     2871    2    2 SET CHAR(31) CALIGNED;
      621     2872
      622     2873    2       DCBSF = DCBNUM(M$LO);

   2873  3 000564   000000 236007 xsym               LDQ     M$LO,DL
         3 000565   000000 620006                    EAX0    0,QL
         3 000566   000000 740000 xsym               STX0    DCBSF

      623     2874    2       BUFLNSF = 67;
PL6.E3A0      #002=ZIU$CHKVAL File=ZIU$VALSET.:ZIC0TSI                           FRI 09/05/97 13:33 Page:95

   2874  3 000567   000103 235007                    LDA     67,DL
         3 000570   000000 755000 xsym               STA     BUFLNSF

      624     2875    2       BUFSF = VECTOR(REPRTHEAD);

   2875  3 000571   000012 237000 4                  LDAQ    10
         3 000572   000000 755000 xsym               STA     BUFSF
         3 000573   000001 756000 xsym               STQ     BUFSF+1

      625     2876    2       CALL SYS_FUNC_WRIT;

   2876  3 000574   000005 631400 4                  EPPR1   5
         3 000575   000000 701000 xent               TSX1    SYS_FUNC_WRIT
         3 000576   000000 011000                    NOP     0

      626     2877    2       BUFLNSF = 1;

   2877  3 000577   000001 235007                    LDA     1,DL
         3 000600   000000 755000 xsym               STA     BUFLNSF

      627     2878    2       CALL SYS_FUNC_WRIT; /* Write a blank link */

   2878  3 000601   000005 631400 4                  EPPR1   5
         3 000602   000000 701000 xent               TSX1    SYS_FUNC_WRIT
         3 000603   000000 011000                    NOP     0

      628     2879
      629     2880    2       BUFLNSF = 60;

   2880  3 000604   000074 235007                    LDA     60,DL
         3 000605   000000 755000 xsym               STA     BUFLNSF

      630     2881    2       BUFSF = VECTOR(REPRTHEAD2);

   2881  3 000606   000014 237000 4                  LDAQ    12
         3 000607   000000 755000 xsym               STA     BUFSF
PL6.E3A0      #002=ZIU$CHKVAL File=ZIU$VALSET.:ZIC0TSI                           FRI 09/05/97 13:33 Page:96
         3 000610   000001 756000 xsym               STQ     BUFSF+1

      631     2882    2       CALL SYS_FUNC_WRIT;

   2882  3 000611   000005 631400 4                  EPPR1   5
         3 000612   000000 701000 xent               TSX1    SYS_FUNC_WRIT
         3 000613   000000 011000                    NOP     0

      632     2883
      633     2884    2       BUFSF = VECTOR(REPRTHEAD3);

   2884  3 000614   000016 237000 4                  LDAQ    14
         3 000615   000000 755000 xsym               STA     BUFSF
         3 000616   000001 756000 xsym               STQ     BUFSF+1

      634     2885    2       CALL SYS_FUNC_WRIT;

   2885  3 000617   000005 631400 4                  EPPR1   5
         3 000620   000000 701000 xent               TSX1    SYS_FUNC_WRIT
         3 000621   000000 011000                    NOP     0

      635     2886
      636     2887    3       DO I = 0 TO RECINDX;

   2887  3 000622   000000 450000 xsym               STZ     I
         3 000623   000750 710000 3                  TRA     s:2907+1

      637     2888    3           DETAILINE.REC = MSTR_REF.NAME(RECLIST.MSTRINDX(I));

   2888  3 000624   000000 720000 xsym               LXL0    I
         3 000625   000000 236010 xsym               LDQ     RECLIST,X0
         3 000626   000022 732000                    QRS     18
         3 000627   000012 402007                    MPY     10,DL
         3 000630   000002 736000                    QLS     2
         3 000631   000000 470400 xsym               LDP0    MSTR$
         3 000632   040000 100506                    MLR     fill='040'O
         3 000633   000001 400036                    ADSC9   1,Q,PR0                  cn=2,n=30
PL6.E3A0      #002=ZIU$CHKVAL File=ZIU$VALSET.:ZIC0TSI                           FRI 09/05/97 13:33 Page:97
         3 000634   000071 200037 0                  ADSC9   DETAILINE+3              cn=1,n=31

      638     2889    3           DETAILINE.SET =

   2889  3 000635   000000 236010 xsym               LDQ     RECLIST,X0
         3 000636   000022 736000                    QLS     18
         3 000637   000022 732000                    QRS     18
         3 000640   000001 736000                    QLS     1
         3 000641   000100 100406                    MLR     fill='000'O
         3 000642   000000 000002 xsym               ADSC9   SETLIST,Q                cn=0,n=2
         3 000643   200006 000004                    ADSC9   @SETNAME+1,,AUTO         cn=0,n=4
         3 000644   200006 236100                    LDQ     @SETNAME+1,,AUTO
         3 000645   000022 732000                    QRS     18
         3 000646   000002 736000                    QLS     2
         3 000647   000000 471400 xsym               LDP1    SET_XREF$
         3 000650   100000 236106                    LDQ     0,QL,PR1
         3 000651   000022 732000                    QRS     18
         3 000652   000012 402007                    MPY     10,DL
         3 000653   000002 736000                    QLS     2
         3 000654   040000 100506                    MLR     fill='040'O
         3 000655   000001 400036                    ADSC9   1,Q,PR0                  cn=2,n=30
         3 000656   000101 000037 0                  ADSC9   DETAILINE+11             cn=0,n=31

      639     2890    3              MSTR_REF.NAME(SET_XREF.MSTRINDX(SETLIST(RECLIST.SETINDX(I))));
      640     2891
      641     2892    3           BUFLNSF = 72;

   2892  3 000657   000110 235007                    LDA     72,DL
         3 000660   000000 755000 xsym               STA     BUFLNSF

      642     2893    3           BUFSF = VECTOR(DETAILINE);

   2893  3 000661   000020 237000 4                  LDAQ    16
         3 000662   000000 755000 xsym               STA     BUFSF
         3 000663   000001 756000 xsym               STQ     BUFSF+1

      643     2894    3           CALL SYS_FUNC_WRIT;
PL6.E3A0      #002=ZIU$CHKVAL File=ZIU$VALSET.:ZIC0TSI                           FRI 09/05/97 13:33 Page:98

   2894  3 000664   000005 631400 4                  EPPR1   5
         3 000665   000000 701000 xent               TSX1    SYS_FUNC_WRIT
         3 000666   000000 011000                    NOP     0

      644     2895    3           DETAILINE.REC = ' ';

   2895  3 000667   040000 100400                    MLR     fill='040'O
         3 000670   000022 000001 4                  ADSC9   18                       cn=0,n=1
         3 000671   000071 200037 0                  ADSC9   DETAILINE+3              cn=1,n=31

      645     2896    3           INDX = RECLIST.SETINDX(I) + 1;

   2896  3 000672   000000 720000 xsym               LXL0    I
         3 000673   000000 236010 xsym               LDQ     RECLIST,X0
         3 000674   000022 736000                    QLS     18
         3 000675   000022 732000                    QRS     18
         3 000676   000001 036007                    ADLQ    1,DL
         3 000677   000001 756000 0                  STQ     INDX

      646     2897
      647     2898    4           DO WHILE(SETLIST(INDX) ~= -1);

   2898  3 000700   000726 710000 3                  TRA     s:2902

      648     2899    4               DETAILINE.SET = MSTR_REF.NAME(SET_XREF.MSTRINDX(SETLIST(INDX)));

   2899  3 000701   000001 235000 0                  LDA     INDX
         3 000702   000001 735000                    ALS     1
         3 000703   000100 100405                    MLR     fill='000'O
         3 000704   000000 000002 xsym               ADSC9   SETLIST,A                cn=0,n=2
         3 000705   200006 000004                    ADSC9   @SETNAME+1,,AUTO         cn=0,n=4
         3 000706   200006 236100                    LDQ     @SETNAME+1,,AUTO
         3 000707   000022 732000                    QRS     18
         3 000710   000002 736000                    QLS     2
         3 000711   000000 470400 xsym               LDP0    SET_XREF$
         3 000712   000000 236106                    LDQ     0,QL,PR0
PL6.E3A0      #002=ZIU$CHKVAL File=ZIU$VALSET.:ZIC0TSI                           FRI 09/05/97 13:33 Page:99
         3 000713   000022 732000                    QRS     18
         3 000714   000012 402007                    MPY     10,DL
         3 000715   000002 736000                    QLS     2
         3 000716   000000 471400 xsym               LDP1    MSTR$
         3 000717   040000 100506                    MLR     fill='040'O
         3 000720   100001 400036                    ADSC9   1,Q,PR1                  cn=2,n=30
         3 000721   000101 000037 0                  ADSC9   DETAILINE+11             cn=0,n=31

      649     2900    4               CALL SYS_FUNC_WRIT;

   2900  3 000722   000005 631400 4                  EPPR1   5
         3 000723   000000 701000 xent               TSX1    SYS_FUNC_WRIT
         3 000724   000000 011000                    NOP     0

      650     2901    4               INDX = INDX +1;

   2901  3 000725   000001 054000 0                  AOS     INDX

      651     2902    4               END;

   2902  3 000726   000001 235000 0                  LDA     INDX
         3 000727   000001 735000                    ALS     1
         3 000730   000100 100405                    MLR     fill='000'O
         3 000731   000000 000002 xsym               ADSC9   SETLIST,A                cn=0,n=2
         3 000732   200006 000004                    ADSC9   @SETNAME+1,,AUTO         cn=0,n=4
         3 000733   200006 236100                    LDQ     @SETNAME+1,,AUTO
         3 000734   000022 732000                    QRS     18
         3 000735   000000 116000 4                  CMPQ    0
         3 000736   000701 601000 3                  TNZ     s:2899

      652     2903
      653     2904    3           BUFLNSF = 60;

   2904  3 000737   000074 236007                    LDQ     60,DL
         3 000740   000000 756000 xsym               STQ     BUFLNSF

      654     2905    3           BUFSF = VECTOR(REPRTHEAD3);
PL6.E3A0      #002=ZIU$CHKVAL File=ZIU$VALSET.:ZIC0TSI                           FRI 09/05/97 13:33 Page:100

   2905  3 000741   000016 237000 4                  LDAQ    14
         3 000742   000000 755000 xsym               STA     BUFSF
         3 000743   000001 756000 xsym               STQ     BUFSF+1

      655     2906    3           CALL SYS_FUNC_WRIT;

   2906  3 000744   000005 631400 4                  EPPR1   5
         3 000745   000000 701000 xent               TSX1    SYS_FUNC_WRIT
         3 000746   000000 011000                    NOP     0

      656     2907    3           END;

   2907  3 000747   000000 054000 xsym               AOS     I
         3 000750   000000 236000 xsym               LDQ     I
         3 000751   000000 116000 xsym               CMPQ    RECINDX
         3 000752   000624 604400 3                  TMOZ    s:2888

      657     2908
      658     2909    2       RETURN;

   2909  3 000753   200004 221300                    LDX1  ! 4,,AUTO
         3 000754   000001 702211                    TSX2  ! 1,X1

      659     2910
      660     2911    2   END PRINT_REPORT;
      661     2912
      662     2913        %EJECT;
PL6.E3A0      #002=ZIU$CHKVAL File=ZIU$VALSET.:ZIC0TSI                           FRI 09/05/97 13:33 Page:101
      663     2914    1   SET_ERROR: PROC(SETNAME);

   2914  3 000755   200004 741300       SET_ERROR    STX1  ! 4,,AUTO

      664     2915    2   DCL SETNAME CHAR(30);
      665     2916
      666     2917         /*E* ERROR: ZIU-DBU#NSETNM-C
      667     2918              MESSAGE: Set name "%U1" does not exist.     */
      668     2919    2       ERR_INSERT.TEXT(0) = SETNAME;

   2919  3 000756   200005 470500                    LDP0    @SETNAME,,AUTO
         3 000757   040000 100500                    MLR     fill='040'O
         3 000760   000000 000036                    ADSC9   0,,PR0                   cn=0,n=30
         3 000761   000000 200036 xsym               ADSC9   ERR_INSERT               cn=1,n=30

      669     2920    2       CALL INDEX(INDX,' ',SETNAME);

   2920  3 000762   000000 124500                    SCM     mask='000'O
         3 000763   000000 000036                    ADSC9   0,,PR0                   cn=0,n=30
         3 000764   000022 000001 4                  ADSC9   18                       cn=0,n=1
         3 000765   000001 000000 0                  ARG     INDX

      670     2921    2       ERR_INSERT.CNT(0) = INDX;

   2921  3 000766   000001 236000 0                  LDQ     INDX
         3 000767   000033 736000                    QLS     27
         3 000770   000000 552040 xsym               STBQ    ERR_INSERT,'40'O

      671     2922    2       ERRCODESF.ERR# = DBU#NSETNM;

   2922  3 000771   000000 236000 xsym               LDQ     ERRCODESF
         3 000772   000023 376000 4                  ANQ     19
         3 000773   215560 276007                    ORQ     72560,DL
         3 000774   000000 756000 xsym               STQ     ERRCODESF

      672     2923    2       MSGCODE = ERRCODE_RDEF;

PL6.E3A0      #002=ZIU$CHKVAL File=ZIU$VALSET.:ZIC0TSI                           FRI 09/05/97 13:33 Page:102
   2923  3 000775   000000 756000 xsym               STQ     MSGCODE

      673     2924    2       CALL SYS_FUNC_ERRMSG;

   2924  3 000776   000005 631400 4                  EPPR1   5
         3 000777   000000 701000 xent               TSX1    SYS_FUNC_ERRMSG
         3 001000   000000 011000                    NOP     0

      674     2925    2       RETURN;

   2925  3 001001   200004 221300                    LDX1  ! 4,,AUTO
         3 001002   000001 702211                    TSX2  ! 1,X1

      675     2926
      676     2927    2   END SET_ERROR;
      677     2928    1   ALT_CHK:
      678     2929    1       ALTRETURN;

   2929  3 001003   000000 702200 xent  ALT_CHK      TSX2  ! X66_AALT

REPRTHEAD
 Sect OctLoc
   0     004   101124 150145   040146 157154   154157 167151   156147 040162    AThe following r
   0     010   145143 157162   144163 040167   151154 154040   160141 162164    ecords will part
   0     014   151143 151160   141164 145040   151156 040164   150151 163040    icipate in this
   0     020   166141 154151   144141 164151   157156 040160   162157 143145    validation proce
   0     024   163163 072040   040040 ******                                    ss:   ..

REPRTHEAD2
 Sect OctLoc
   0     026   101040 040040   040040 040040   040040 040040   040122 105103    A            REC
   0     032   117122 104040   116101 115105   040040 040040   040040 040040    ORD NAME
   0     036   040040 040040   040040 040040   040040 040040   123105 124040                SET
   0     042   116101 115105   040040 040040   040040 040040   040*** ******    NAME         ...

REPRTHEAD3
 Sect OctLoc
PL6.E3A0      #002=ZIU$CHKVAL File=ZIU$VALSET.:ZIC0TSI                           FRI 09/05/97 13:33 Page:103
   0     046   101040 040040   040040 040040   040040 040040   040055 055055    A            ---
   0     052   055055 055055   055055 055055   040040 040040   040040 040040    --------
   0     056   040040 040040   040040 040040   040040 040040   055055 055055                ----
   0     062   055055 055055   040040 040040   040040 040040   040*** ******    ----         ...

DETAILINE
 Sect OctLoc
   0     066   101040 040040   040040 040040   040040 040040   040*** ******    A            ...
   0     106*  ****** ******   ****** ******   ****** ******                    ............

(unnamed)
 Sect OctLoc
   4     000   777777 777777   776777 777777   777737 777777   000001 000000    ................
   4     004   000234 006000   000000 000000   000002 000000   000000 006000    ................
   4     010   000000 006000   000000 006000   000021 377640   000004 006000    ................
   4     014   000017 177640   000026 006000   000017 177640   000046 006000    .............&..
   4     020   000022 577640   000066 006000   040040 040040   777777 400007    .....6..    ....
      679     2930    1   END ZIU$CHKVAL;
      680     2931        %EOD;

PL6.E3A0      #002=ZIU$CHKVAL File=ZIU$VALSET.:ZIC0TSI                           FRI 09/05/97 13:33 Page:104
--  Include file information  --

   ZI$DIR.:ZIC0TOU  is referenced.
   CP_6_SUBS.:LIB_E05  is referenced.
   CP_6.:LIB_E05  cannot be made into a system file and is referenced.
   ZI_ERRORS_SUBS.:ZIC0TOU  is referenced.
   ZI_DBU_XREF.:ZIC0TOU  cannot be made into a system file and is referenced.
   ZI$PG_STRUCTS.:ZIC0TOU  is referenced.
   ZI_GLOBAL_DBUTIL.:ZIC0TOU  is referenced.
   ZI_DBU_VALDTE.:ZIC0TOU  is referenced.
   B$JIT_C.:E05TOU  was found in the system file and is never referenced.
   CP_6_C.:E05TOU  was found in the system file and is referenced.
      No diagnostics issued in procedure ZIU$CHKVAL.

   Procedure ZIU$CHKVAL requires 516 words for executable code.
   Procedure ZIU$CHKVAL requires 8 words of local(AUTO) storage.
PL6.E3A0      #002=ZIU$CHKVAL File=ZIU$VALSET.:ZIC0TSI                           FRI 09/05/97 13:33 Page:105
          *** CROSS REFERENCE LISTING ***
**     DENOTES     IDENTIFIER DEFINITION
<<                 IDENTIFIER'S VALUE SET
>>                 IDENTIFIER'S VALUE USED
<>                 IDENTIFIER SET AND/OR USED
--                 IDENTIFIER REFERENCED
PL6.E3A0      #002=ZIU$CHKVAL File=ZIU$VALSET.:ZIC0TSI                           FRI 09/05/97 13:33 Page:106
          MINI XREF LISTING

ALT_CHK
      2929**LABEL    2714--CALLALT  2715--CALLALT  2729--CALLALT  2842--CALLALT
AREANO
        15**DCL      2711<<DOINDEX  2712>>ASSIGN
AREA_KEY$
      1142**DCL      1145--IMP-PTR  2712>>ASSIGN
AREA_KEY_XREF.NAME
      1148**DCL      2712>>ASSIGN
ATBLK$
       863**DCL       864--IMP-PTR
ATBLK_PG.AREA_NM
       889**DCL       890--REDEF
ATBLK_PG.STATUS
       898**DCL       906--REDEF
BUFLNSF
       644**DCL      2874<<ASSIGN   2877<<ASSIGN   2880<<ASSIGN   2892<<ASSIGN   2904<<ASSIGN
BUFSF
       645**DCL      2875<<ASSIGN   2881<<ASSIGN   2884<<ASSIGN   2893<<ASSIGN   2905<<ASSIGN
CMPLTSORT
      2837**LABEL    2822--GOTO     2833--GOTO
COUNTSF
       695**DCL       696--REDEF
CURRPT.OWNER
       334**DCL       335--REDEF
DATA$
       919**DCL       920--IMP-PTR
DATA_PG.ACT_DATA
       932**DCL       933--REDEF     934--REDEF     935--REDEF
DCBSF
       624**DCL      2873<<ASSIGN
DETAILINE IN PROCEDURE PRINT_REPORT
      2866**DCL      2893--ASSIGN
PL6.E3A0      #002=ZIU$CHKVAL File=ZIU$VALSET.:ZIC0TSI                           FRI 09/05/97 13:33 Page:107
DETAILINE.REC IN PROCEDURE PRINT_REPORT
      2870**DCL      2888<<ASSIGN   2895<<ASSIGN
DETAILINE.SET IN PROCEDURE PRINT_REPORT
      2871**DCL      2889<<ASSIGN   2899<<ASSIGN
EGREC$
       312**DCL       317--IMP-PTR
ENCRP_SEEDSF
       653**DCL       654--REDEF
ERRBUF$
       350**DCL       351--IMP-PTR   356--IMP-PTR   363--IMP-PTR   371--IMP-PTR   377--IMP-PTR   383--IMP-PTR
       391--IMP-PTR   402--IMP-PTR
ERRCODESF
       655**DCL       660--REDEF
ERRCODESF.ERR#
       658**DCL      2922<<ASSIGN
ERRCODE_RDEF
       660**DCL      2923>>ASSIGN
ERR_INSERT.CNT
       669**DCL      2921<<ASSIGN
ERR_INSERT.TEXT
       670**DCL      2919<<ASSIGN
F$DCB.ACTPOS
      1813**DCL      1813--REDEF
F$DCB.ARS#
      1787**DCL      1787--REDEF
F$DCB.ATTR
      1806**DCL      1807--REDEF
F$DCB.BORROW
      1821**DCL      1821--REDEF    1821--REDEF    1821--REDEF
F$DCB.DCBNAME.L
      1835**DCL      1835--IMP-SIZ
F$DCB.EOMCHAR#
      1791**DCL      1791--REDEF
F$DCB.FLDID
      1816**DCL      1816--REDEF
F$DCB.FORM$
PL6.E3A0      #002=ZIU$CHKVAL File=ZIU$VALSET.:ZIC0TSI                           FRI 09/05/97 13:33 Page:108
      1810**DCL      1810--REDEF
F$DCB.FSECT
      1826**DCL      1826--REDEF
F$DCB.FSN#
      1803**DCL      1803--REDEF    1803--REDEF    1804--REDEF
F$DCB.HEADER$
      1809**DCL      1809--REDEF
F$DCB.IXTNSIZE#
      1807**DCL      1807--REDEF
F$DCB.LASTSTA$
      1796**DCL      1796--REDEF
F$DCB.LVL
      1822**DCL      1822--REDEF
F$DCB.NAME#.C
      1797**DCL      1797--REDEF
F$DCB.NOEOF
      1819**DCL      1819--REDEF
F$DCB.NRECS#
      1808**DCL      1808--REDEF
F$DCB.NRECX
      1827**DCL      1827--REDEF
F$DCB.OHDR
      1819**DCL      1819--REDEF
F$DCB.ORG#
      1802**DCL      1802--REDEF
F$DCB.PRECNO
      1825**DCL      1825--REDEF
F$DCB.RCSZ
      1831**DCL      1831--REDEF
F$DCB.RES#
      1798**DCL      1798--REDEF
F$DCB.SETX
      1810**DCL      1810--REDEF
F$DCB.TAB$
      1810**DCL      1810--REDEF
F$DCB.TDA
PL6.E3A0      #002=ZIU$CHKVAL File=ZIU$VALSET.:ZIC0TSI                           FRI 09/05/97 13:33 Page:109
      1824**DCL      1825--REDEF
F$DCB.WSN#
      1798**DCL      1798--REDEF
FIDSF_RD
       671**DCL       672--REDEF
FIND_MSTR_ENTRY
      2683**DCL-ENT  2735--CALL     2749--CALL
GET_DCB
      2684**DCL-ENT  2714--CALL
HELPCODE
       689**DCL       694--REDEF
HIGH_RECINDX
       311**DCL      2794<<ASSIGN
I
       727**DCL      2705<<DOINDEX  2706>>ASSIGN   2718<<DOINDEX  2719>>ASSIGN   2719>>ASSIGN   2720>>ASSIGN
      2720>>ASSIGN   2722>>IF       2722>>IF       2724>>ASSIGN   2725>>IF       2726>>ASSIGN   2734<<DOINDEX
      2735>>CALL     2741>>CALL     2748<<DOINDEX  2749>>CALL     2755>>CALL     2765<<DOINDEX  2766>>IF
      2768>>ASSIGN   2795<<DOINDEX  2796>>ASSIGN   2799>>ASSIGN   2819>>ASSIGN   2828>>ASSIGN   2887<<DOINDEX
      2888>>ASSIGN   2889>>ASSIGN   2896>>ASSIGN
ICHKSUM
       754**DCL       755--REDEF
INDX
        16**DCL      2768<<ASSIGN   2769>>DOWHILE  2772>>DOWHILE  2779>>ASSIGN   2781<<ASSIGN   2781>>ASSIGN
      2799<<ASSIGN   2800>>IF       2804<<ASSIGN   2804>>ASSIGN   2805>>DOWHILE  2806>>IF       2808>>ASSIGN
      2812<<ASSIGN   2814<<ASSIGN   2814>>ASSIGN   2896<<ASSIGN   2898>>DOWHILE  2899>>ASSIGN   2901<<ASSIGN
      2901>>ASSIGN   2920<<CALLBLT  2921>>ASSIGN
ITEM_LIST.NAME
      2674**DCL      2749<>CALL     2755<>CALL
ITMCNT
       756**DCL      2695>>IF       2748>>DOINDEX
I_O_BUF$
       732**DCL       733--IMP-PTR
J
       728**DCL      2819<<ASSIGN   2821>>IF       2823>>IF       2823>>IF       2825>>ASSIGN   2826>>ASSIGN
      2826>>ASSIGN   2827>>ASSIGN   2828<<ASSIGN   2831<<ASSIGN   2831>>ASSIGN   2832>>IF
KEYVSF
PL6.E3A0      #002=ZIU$CHKVAL File=ZIU$VALSET.:ZIC0TSI                           FRI 09/05/97 13:33 Page:110
       627**DCL       632--REDEF
KEYVSF.WD_ONE
       629**DCL       630--REDEF
M$LO
       742**DCL      2873>>ASSIGN
MSGCODE
       661**DCL       662--REDEF    2923<<ASSIGN
MSTR$
      1111**DCL      1114--IMP-PTR  2706>>ASSIGN   2722>>IF       2722>>IF       2724>>ASSIGN   2725>>IF
      2726>>ASSIGN   2738>>ASSIGN   2752>>ASSIGN   2766>>IF       2768>>ASSIGN   2800>>IF       2804>>ASSIGN
      2806>>IF       2888>>ASSIGN   2889>>ASSIGN   2899>>ASSIGN
MSTR_INDX
      1137**DCL      2735<>CALL     2736>>IF       2738>>ASSIGN   2749<>CALL     2750>>IF       2752>>ASSIGN
MSTR_REF.NAME
      1119**DCL      2888>>ASSIGN   2889>>ASSIGN   2899>>ASSIGN
MSTR_REF.NEXT
      1116**DCL      2768>>ASSIGN   2804>>ASSIGN
MSTR_REF.NXTHSH
      1117**DCL      1118--REDEF
MSTR_REF.PAENT
      1123**DCL      1124--REDEF
MSTR_REF.PAOFF
      1120**DCL      1121--REDEF    2800>>IF
MSTR_REF.SET.FLG
      1125**DCL      2706<<ASSIGN   2724<<ASSIGN   2726<<ASSIGN   2738<<ASSIGN   2752<<ASSIGN   2766>>IF
      2806>>IF
MSTR_REF.SET.INMODE
      1127**DCL      2722>>IF
MSTR_REF.SET.PATYPE
      1129**DCL      2725>>IF
MSTR_REF.SET.RETYPE
      1128**DCL      2722>>IF
NO_AREAS
      1153**DCL      2711>>DOINDEX
NO_RECS
      1173**DCL      2705>>DOINDEX  2705>>DOINDEX  2718>>DOINDEX  2718>>DOINDEX  2719>>ASSIGN   2719>>ASSIGN
PL6.E3A0      #002=ZIU$CHKVAL File=ZIU$VALSET.:ZIC0TSI                           FRI 09/05/97 13:33 Page:111
      2720>>ASSIGN   2720>>ASSIGN   2765>>DOINDEX  2765>>DOINDEX
NO_SETS
      1174**DCL      2705>>DOINDEX  2718>>DOINDEX  2765>>DOINDEX
NXTVAL
        20**DCL      2720<<ASSIGN   2721>>IF       2722>>IF       2725>>IF
PRINT_REPORT
      2849**PROC     2842--CALL
PRIVAL
        19**DCL      2719<<ASSIGN   2721>>IF       2722>>IF
RCNT
       720**DCL      2695>>IF       2734>>DOINDEX
REC$
       713**DCL       736--IMP-PTR
RECINDX
       310**DCL      2764<<ASSIGN   2772>>DOWHILE  2776>>IF       2778<<ASSIGN   2778>>ASSIGN   2779>>ASSIGN
      2794>>ASSIGN   2795>>DOINDEX  2887>>DOINDEX
RECLIST.MSTRINDX
       306**DCL      2772>>DOWHILE  2779<<ASSIGN   2799>>ASSIGN   2888>>ASSIGN
RECLIST.SETINDX
       307**DCL      2796<<ASSIGN   2819>>ASSIGN   2828>>ASSIGN   2889>>ASSIGN   2896>>ASSIGN
RECORD_LIST.NAME
      2653**DCL      2735<>CALL     2741<>CALL
REC_DATA_LN
       741**DCL       740--IMP-SIZ
REC_XREF.MSTRINDX
      1169**DCL      2772>>DOWHILE  2779>>ASSIGN
REC_XREF.NEXT
      1168**DCL      2781>>ASSIGN
REC_XREF$
      1166**DCL      1167--IMP-PTR  2772>>DOWHILE  2779>>ASSIGN   2781>>ASSIGN
REPORT_CHK
      2688**DCL-ENT  2729--CALL
REPRTHEAD IN PROCEDURE PRINT_REPORT
      2851**DCL      2875--ASSIGN
REPRTHEAD2 IN PROCEDURE PRINT_REPORT
      2856**DCL      2881--ASSIGN
PL6.E3A0      #002=ZIU$CHKVAL File=ZIU$VALSET.:ZIC0TSI                           FRI 09/05/97 13:33 Page:112
REPRTHEAD3 IN PROCEDURE PRINT_REPORT
      2861**DCL      2884--ASSIGN   2905--ASSIGN
SETCNT.DBK
        24**DCL      2719>>ASSIGN   2720>>ASSIGN
SETCNT.NXT
        23**DCL      2720>>ASSIGN
SETCNT.PR
        22**DCL      2719>>ASSIGN
SETINDX
       309**DCL      2793<<ASSIGN   2796>>ASSIGN   2808>>ASSIGN   2809<<ASSIGN   2809>>ASSIGN   2821>>IF
      2832>>IF       2837>>ASSIGN   2838<<ASSIGN   2838>>ASSIGN   2841>>IF
SETLIST
       308**DCL      2808<<ASSIGN   2823>>IF       2823>>IF       2825>>ASSIGN   2826<<ASSIGN   2826>>ASSIGN
      2827<<ASSIGN   2837<<ASSIGN   2889>>ASSIGN   2898>>DOWHILE  2899>>ASSIGN
SETNAME IN PROCEDURE SET_ERROR
      2915**DCL      2914--PROC     2919>>ASSIGN   2920>>CALLBLT
SET_ERROR
      2914**PROC     2741--CALL     2755--CALL
SET_XREF.MSTRINDX
      1157**DCL      2806>>IF       2823>>IF       2823>>IF       2889>>ASSIGN   2899>>ASSIGN
SET_XREF.NEXT
      1158**DCL      2814>>ASSIGN
SET_XREF$
      1155**DCL      1156--IMP-PTR  2806>>IF       2814>>ASSIGN   2823>>IF       2823>>IF       2889>>ASSIGN
      2899>>ASSIGN
STRTSORT
      2821**LABEL    2835--GOTO
SYS_FUNC_ERRMSG
      2687**DCL-ENT  2924--CALL
SYS_FUNC_WRIT
      2686**DCL-ENT  2876--CALL     2878--CALL     2882--CALL     2885--CALL     2894--CALL     2900--CALL
      2906--CALL
TEMP
        17**DCL      2825<<ASSIGN   2827>>ASSIGN
TYPE_PA
        26**DCL      2801<<ASSIGN   2803<<ASSIGN   2811>>IF
PL6.E3A0      #002=ZIU$CHKVAL File=ZIU$VALSET.:ZIC0TSI                           FRI 09/05/97 13:33 Page:113
X
       730**DCL      2771<<ASSIGN   2772>>DOWHILE  2772>>DOWHILE  2774<<ASSIGN   2774>>ASSIGN   2776>>IF
ZI$DIR.ALTKEY
      2606**DCL      2607--REDEF    2608--REDEF
ZI$DIR.AREAFID
      2572**DCL      2573--REDEF
ZI$DIR.AREA_NM
      2635**DCL      2714<>CALL
ZI$DIR.AREA_NM.NAME.TEXT
      2638**DCL      2712<<ASSIGN
ZI$DIR.CHECK
      2581**DCL      2692>>IF       2694<<ASSIGN   2697<<ASSIGN   2709>>IF
ZI$DIR.CHECK_ALL
      2624**DCL      2713<<ASSIGN
ZI$DIR.DATE
      2611**DCL      2615--REDEF
ZI$DIR.DEST_SEED
      2567**DCL      2568--REDEF    2569--REDEF
ZI$DIR.ENCP_SEED
      2564**DCL      2565--REDEF    2566--REDEF
ZI$DIR.REPRT_ZERO
      2598**DCL      2599--REDEF
ZI$DIR.SCHFID
      2570**DCL      2571--REDEF
ZI$DIR.TIME
      2616**DCL      2621--REDEF
ZIU$CHECK
      2685**DCL-ENT  2715--CALL

