PL6.E3A0      #003=ZIU$GENRCD File=ZIU$VALSET.:ZIC0TSI                           FRI 09/05/97 13:33 Page:114
      681        1        /*M*  ZIU$GENRCD  IDSII UTILITIES      SET VALIDATION RECORD GENERATION */
      682        2        /*T***********************************************************/
      683        3        /*T*                                                         */
      684        4        /*T* Copyright (c) Bull HN Information Systems Inc., 1997    */
      685        5        /*T*                                                         */
      686        6        /*T***********************************************************/
      687        7        /*P*
      688        8           NAME: ZIU$GENRCD
      689        9        PURPOSE: This procedure is the input routine for X$SORT used in the
      690       10                 set pointer validation routine. It generates special records
      691       11                 for each set in the data base data records to validate the
      692       12                 sets with.
      693       13        */
      694       14        ZIU$GENRCD: PROC(PTREC,PTSIZE) ALTRET;
      695       15
      696       16    1   DCL AREANO SBIN WORD SYMREF;
      697       17    1   DCL LOW_DBK UBIN WORD SYMREF; /* DEFED IN CHECK */
      698       18    1   DCL HIGH_DATA_PG UBIN WORD SYMREF;
      699       19    1   DCL LPP UBIN WORD SYMREF;
      700       20
      701       21    1   DCL I_O_INDX SBIN WORD STATIC ALIGNED;
      702       22    1   DCL LINE_NO SBIN WORD STATIC ALIGNED;
      703       23    1   DCL CURR_DBK UBIN WORD STATIC ALIGNED;
      704       24    1   DCL SET_LN SBIN WORD STATIC ALIGNED;
      705       25    1   DCL HIGH_LINE SBIN WORD STATIC ALIGNED;
      706       26    1   DCL ENTRYNO SBIN WORD STATIC ALIGNED;
      707       27    1   DCL NO_ENTRIES SBIN WORD STATIC ALIGNED;
      708       28    1   DCL NO_PTRS SBIN WORD STATIC ALIGNED;
      709       29    1   DCL RETURNCODE SBIN WORD STATIC ALIGNED;
      710       30    1   DCL SETNUM SBIN WORD STATIC ALIGNED;
      711       31    1   DCL SETVAL SBIN WORD STATIC ALIGNED;
      712       32    1   DCL CHARN CHAR(PTR_LEN) BASED;
      713       33
      714       34
      715       35
      716       36
      717       37
PL6.E3A0      #003=ZIU$GENRCD File=ZIU$VALSET.:ZIC0TSI                           FRI 09/05/97 13:33 Page:115
      718       38
      719       39    1   DCL 1 PTREC CALIGNED, /* PARAM */
      720       40    1         2 NEXT UBIN WORD UNAL, /* SORT FIELD */
      721       41    1         2 SETTYPE SBIN HALF UNAL, /* SORT FIELD */
      722       42    1         2 RECTYPE SBIN HALF UNAL,
      723       43    1         2 DBK UBIN WORD UNAL,
      724       44    1         2 OWNER UBIN WORD UNAL,
      725       45    1         2 PA REDEF OWNER,
      726       46    1           3 ENTRY# UBIN HALF UNAL,
      727       47    1           3 GROUP# UBIN HALF UNAL;
      728       48    1   DCL PTSIZE UBIN WORD; /* PARAM */
      729       49
      730       50    1   DCL SZ2 UBIN(18) BASED CALIGNED;
      731       51    1   DCL SZ3 UBIN(27) BASED CALIGNED;
      732       52    1   DCL SZ4 UBIN(36) BASED CALIGNED;
      733       53    1   DCL SETNXT$ PTR STATIC ALIGNED;
      734       54    1   DCL SETPR$ PTR STATIC ALIGNED;
      735       55    1   DCL SETOWN$ PTR STATIC ALIGNED;
      736       56
      737       57    1   DCL 1 REC STATIC ALIGNED,
      738       58    1         2 TYPE UBIN HALF HALIGNED,
      739       59    1         2 LEN UBIN HALF HALIGNED;
      740       60    1   DCL 1 RECSTUFF REDEF REC UBIN WORD ALIGNED;
      741       61    1   DCL EISOWN UBIN WORD STATIC ALIGNED;
      742       62    1   DCL 1 OWNPT REDEF EISOWN,
      743       63    1         2 * UBIN(3) UNAL,
      744       64    1         2 BYT_OFF UBIN(17) UNAL,
      745       65    1         2 TN UBIN(2) UNAL,
      746       66    1         2 SIGN UBIN(2) UNAL,
      747       67    1         2 SCAL UBIN(6) UNAL,
      748       68    1         2 SIZE UBIN(6) UNAL;
      749       69    1   DCL EISPR UBIN WORD STATIC ALIGNED;
      750       70    1   DCL 1 PRIPT REDEF EISPR ALIGNED,
      751       71    1         2 * UBIN(3) UNAL,
      752       72    1         2 BYT_OFF UBIN(17) UNAL,
      753       73    1         2 TN UBIN(2) UNAL,
      754       74    1         2 SIGN UBIN(2) UNAL,
PL6.E3A0      #003=ZIU$GENRCD File=ZIU$VALSET.:ZIC0TSI                           FRI 09/05/97 13:33 Page:116
      755       75    1         2 SCAL UBIN(6) UNAL,
      756       76    1         2 SIZE UBIN(6) UNAL;
      757       77    1   DCL EISNXT UBIN WORD STATIC ALIGNED;
      758       78    1   DCL 1 NXTPT REDEF EISNXT ALIGNED,
      759       79    1         2 * UBIN(3) UNAL,
      760       80    1         2 BYT_OFF UBIN(17) UNAL,
      761       81    1         2 TN UBIN(2) UNAL,
      762       82    1         2 SIGN UBIN(2) UNAL,
      763       83    1         2 SCAL UBIN(6) UNAL,
      764       84    1         2 SIZE UBIN(6) UNAL;
      765       85
      766       86    1   DCL LAST_PAGE BIT(1) STATIC UNAL;
      767       87    1   DCL INITIAL_SORT_CALL BIT(1) SYMREF UNAL;
      768       88    1   DCL TYPE_PA BIT(1) STATIC UNAL;
      769       89
      770       90         %SUB #BUFS = 16;
      771       91         %SUB OFFSET# = "2035 -";
      772       92         %EQU STANDRD = 0;
      773       93         %EQU PACODE1 = 1;
      774       94         %EQU PACODE2 = 2;
      775       95
      776       96         %INCLUDE ZI_DBU_VALDTE;
      777      364         %VALID_LIST;
      778      504         %INCLUDE ZI_GLOBAL_DBUTIL;
      779      682         %SYS_FUNC;
      780      774         %MISC_DCLS;
      781      827         %PAREC;
      782      854         %INCLUDE ZI$PG_STRUCTS;
      783      957         %ATBLK_PG;
      784     1013         %DATA_PG;
      785     1032         %INCLUDE ZI_DBU_XREF;
      786     1199         %XREF_TBLS;
      787     1274         %INCLUDE ZI_ERRORS_SUBS;
      788     1794         %INCLUDE CP_6;
      789     1875         %F$DCB;
      790     1932         %INCLUDE CP_6_SUBS;
      791     2472         %INCLUDE ZI$DIR;
PL6.E3A0      #003=ZIU$GENRCD File=ZIU$VALSET.:ZIC0TSI                           FRI 09/05/97 13:33 Page:117
      792     2629         %DIR;
      793     2773
      794     2774    1   DCL PAGE_RANGE ENTRY(6);
      795     2775    1   DCL ZERO_SUP ENTRY(3);
      796     2776    1   DCL SYS_FUNC_CLOS ENTRY ALTRET;
      797     2777    1   DCL SYS_FUNC_OPEN ENTRY ALTRET;
      798     2778    1   DCL SYS_FUNC_READ ENTRY ALTRET;
      799     2779    1   DCL SYS_FUNC_WRIT ENTRY ALTRET;
      800     2780    1   DCL SYS_FUNC_RELDCB ENTRY ALTRET;
      801     2781    1   DCL GET_DCB ENTRY(1) ALTRET;
      802     2782    1   DCL SYS_FUNC_ERRMSG ENTRY ALTRET;
      803     2783
      804     2784
      805     2785        %EJECT;
PL6.E3A0      #003=ZIU$GENRCD File=ZIU$VALSET.:ZIC0TSI                           FRI 09/05/97 13:33 Page:118
      806     2786        /*
      807     2787           Initial call to sort will start loops - reentries will continue
      808     2788           where left off. each normal return, returns a record to sort.
      809     2789        */
      810     2790    1       IF INITIAL_SORT_CALL THEN
      811     2791    2       DO;
      812     2792    2           PTSIZE = 16;
      813     2793    2           INITIAL_SORT_CALL = %NO#;
      814     2794    2           RETURNCODE = %STANDRD;
      815     2795    2           END;
      816     2796    1       ELSE
      817     2797    1           IF RETURNCODE = %STANDRD THEN GOTO RE_ENTRY;
      818     2798    1           ELSE
      819     2799    1               IF RETURNCODE = %PACODE1 THEN GOTO PA_RTN1;
      820     2800    1               ELSE
      821     2801    1                   GOTO PA_RTN2;
      822     2802
      823     2803
      824     2804    2       DO AREANO = 0 TO NO_AREAS - 1;
      825     2805    2           IF AREA_KEY_XREF.MAX_KEY(AREANO)=0 THEN GOTO NEXT_AREA; /* SKIP NON-IDS */
      826     2806    2           ZI$DIR.AREA_NM.NAME.TEXT = AREA_KEY_XREF.NAME(AREANO);
      827     2807    2           CALL OPEN_AREA ALTRET(ALT_GEN);
      828     2808
      829     2809    2           IF DCBADDR(DCBSF)->F$DCB.ORG# ~= %IDS# THEN
      830     2810    3           DO;
      831     2811    3               ERRCODESF.ERR# = DBU#CHKIDS;
      832     2812    3               MSGCODE = ERRCODE_RDEF;
      833     2813    3               ERRFLGSF = 3;
      834     2814    3               CALL SYS_FUNC_ERRMSG;
      835     2815    3               UNWIND TO BREAK_LOCAT; /* ABORT THE JOB, AND DO CLOSE DCBS */
      836     2816    3               END;
      837     2817
      838     2818    2           CALL GET_ATBLK ALTRET(ALT_GEN);
      839     2819    2           LAST_PAGE = %NO#;
      840     2820    2           CALL PAGE_RANGE(RB,RE,#BUFS,I_O_SIZE,HIGH_DATA_PG,LAST_PAGE);
      841     2821
      842     2822    3           DO WHILE(~LAST_PAGE);
PL6.E3A0      #003=ZIU$GENRCD File=ZIU$VALSET.:ZIC0TSI                           FRI 09/05/97 13:33 Page:119
      843     2823    3               I_O_INDX = 0;
      844     2824    3               CALL READ_DB ALTRET(ALT_GEN);
      845     2825    3               IF BREAK_FLAG>0 THEN UNWIND TO BREAK_LOCAT;
      846     2826
      847     2827    4               DO RB = RB TO RE;
      848     2828    4                   DATA$ = ADDR(I_O_BUF(I_O_INDX));
      849     2829    4                   HIGH_LINE = DATA_PG.OFF_LN.SEC;
      850     2830
      851     2831    5                   DO LINE_NO = 0 TO HIGH_LINE;
      852     2832
      853     2833    5                       IF DATA_PG.ACT_DATA_18(OFFSET# LINE_NO) > 0 THEN
      854     2834    6                       DO;
      855     2835         /*
      856     2836            Check if rec type is one which is being validated.
      857     2837            If so, set RECINDX to the RECLIST entry else altrtn.
      858     2838         */
      859     2839    6                           REC$ = PINCRC(DATA$,12+DATA_PG.ACT_DATA_18(OFFSET# LINE_NO))
              2839                                    ;
      860     2840    6                           RECSTUFF = REC$ -> SZ4; /* Set rec first word of record. */
      861     2841    6                           CALL FIND_REC_ENTRY ALTRET(NO_RECORD);
      862     2842         /*
      863     2843            Extract DBK and set pointers from this record.
      864     2844         */
      865     2845    6                           CURR_DBK = DATA_PG.CON_INTRVAL*LPP + LINE_NO + LOW_DBK - LPP
              2845                                    ;
      866     2846    6                           SETINDX = RECLIST.SETINDX(RECINDX);
      867     2847    6                           IF MSTR_REF.PAOFF(MSTR_INDX)>0 THEN /* PA REC */
      868     2848    6                               TYPE_PA = %YES#;
      869     2849    6                           ELSE
      870     2850    6                               TYPE_PA = %NO#;
      871     2851
      872     2852    7                           DO WHILE(SETLIST(SETINDX) ~= -1);
      873     2853
      874     2854    7                               SETNUM = SET_XREF.MSTRINDX(SETLIST(SETINDX));
              2854                                        /* MSTR_XREF index */
      875     2855    7                               CALL PULL_PTRS ALTRET(RE_ENTRY);
      876     2856    7                               CALL WRITE_EG;
PL6.E3A0      #003=ZIU$GENRCD File=ZIU$VALSET.:ZIC0TSI                           FRI 09/05/97 13:33 Page:120
      877     2857    7                               RETURN; /* Return PTREC to sort */
      878     2858    7   RE_ENTRY:                   ; IF TYPE_PA THEN
      879     2859    8                               DO; /* PTR_LEN,KEY_LEN & NO_ENTRIES already found */
      880     2860         /*  For this PA record - process entries */
      881     2861    8                                   PTREC.RECTYPE = REC.TYPE * -1;
      882     2862    8                                   PTREC.DBK = CURR_DBK;
      883     2863    8                                   PTREC.SETTYPE = MSTR_REF.TYPE(SETNUM);
      884     2864    8                                   IF PA_REC.NOT_LOWEST_LEVEL THEN
      885     2865    8                                       PTREC.SETTYPE = PTREC.SETTYPE - 5000;
      886     2866    8                                   ENTRY$ = PINCRC(REC$,MSTR_REF.PAOFF(MSTR_INDX));
      887     2867         /*  In processing the PA entry ptrs, I multiply the */
      888     2868         /*  record type by -1. This is to indicate latter */
      889     2869         /*  that these pointers refer to pa entries and that*/
      890     2870         /* the entry nmbr is stored in the ownr ptr position */
      891     2871    9                                   DO ENTRYNO = 1 TO NO_ENTRIES;
      892     2872    9                                       PTREC.PA.ENTRY# = ENTRYNO;
      893     2873    9                                       PTREC.PA.GROUP# = 0;
      894     2874    9                                       IF PA_ENTRY.C = 1 THEN
      895     2875   10                                       DO;
      896     2876   10                                           ENTRY$ = PINCRC(ENTRY$,2);
      897     2877   10                                           CALL GETPTR(SETVAL,ENTRY$);
      898     2878   10                                           IF MSTR_REF.GLOBAL(SETNUM) ~= 1 THEN
      899     2879   10                                               SETVAL = SETVAL - LOW_DBK +1;
      900     2880         /* Was not a real rec ptr so dont unexpand value */
      901     2881   10                                           GROUP$ = PINCRC(REC$,SETVAL);
      902     2882   10                                           NO_PTRS = PA_GROUP.NO_GROUPS;
      903     2883   10                                           GROUP$ = PINCRW(GROUP$,1);
      904     2884   11                                           DO X = 1 TO NO_PTRS;
      905     2885   11                                               CALL GETPTR(SETVAL,GROUP$);
      906     2886   11                                               PTREC.PA.GROUP# = X;
      907     2887   11                                               PTREC.NEXT = SETVAL;
      908     2888   11                                               RETURNCODE = %PACODE1;
      909     2889   11                                               RETURN; /* Return PT to sort */
      910     2890   11   PA_RTN1:                                    ; PTREC.PA.ENTRY# = ENTRYNO;
      911     2891   11                                               PTREC.SETTYPE = MSTR_REF.TYPE(SETNUM);
      912     2892   11                                               IF PA_REC.NOT_LOWEST_LEVEL THEN
      913     2893   11                                                   PTREC.SETTYPE = PTREC.SETTYPE - 5000
PL6.E3A0      #003=ZIU$GENRCD File=ZIU$VALSET.:ZIC0TSI                           FRI 09/05/97 13:33 Page:121
              2893                                                            ;
      914     2894   11                                               PTREC.RECTYPE = REC.TYPE * -1;
      915     2895   11                                               PTREC.DBK = CURR_DBK;
      916     2896   11                                               GROUP$ = PINCRC(GROUP$,2+PTR_LEN);
      917     2897   11                                               END;
      918     2898   10                                           END;
      919     2899   10                                       ELSE DO;
      920     2900   10                                           ENTRY$ = PINCRC(ENTRY$,2);
      921     2901   10                                           CALL GETPTR(SETVAL,ENTRY$);
      922     2902   10                                           PTREC.NEXT = SETVAL;
      923     2903   10                                           RETURNCODE = %PACODE2;
      924     2904   10                                           RETURN; /* Return PT to sort */
      925     2905   10   PA_RTN2:                                ; PTREC.PA.ENTRY# = ENTRYNO;
      926     2906   10                                           PTREC.SETTYPE = MSTR_REF.TYPE(SETNUM);
      927     2907   10                                           IF PA_REC.NOT_LOWEST_LEVEL THEN
      928     2908   10                                               PTREC.SETTYPE = PTREC.SETTYPE - 5000;
      929     2909   10                                           PTREC.RECTYPE = REC.TYPE * -1;
      930     2910   10                                           PTREC.DBK = CURR_DBK;
      931     2911   10                                           END;
      932     2912    9                                       ENTRY$ = PINCRC(ENTRY$,KEY_LEN + PTR_LEN);
      933     2913    9                                       END;
      934     2914    8                                   RETURNCODE = %STANDRD;
      935     2915    8                                   END;
      936     2916    7                               SETINDX = SETINDX + 1;
      937     2917    7                               END;
      938     2918    6   NO_RECORD:              END;
      939     2919    5                       END;
      940     2920    4                   I_O_INDX = I_O_INDX + 1;
      941     2921    4                   END;
      942     2922    3               CALL PAGE_RANGE(RB,RE,#BUFS,I_O_SIZE,HIGH_DATA_PG,LAST_PAGE);
      943     2923    3               END;
      944     2924
      945     2925    2   CLOSE_FILE:
      946     2926    2           DCBSF = ZI$DIR.AREA_NM.DCB#;
      947     2927    2           CALL SYS_FUNC_CLOS;
      948     2928    2           CALL SYS_FUNC_RELDCB;
      949     2929    2   NEXT_AREA:
PL6.E3A0      #003=ZIU$GENRCD File=ZIU$VALSET.:ZIC0TSI                           FRI 09/05/97 13:33 Page:122
      950     2930    2           END;
      951     2931
      952     2932    1       CALL FLUSH_EG ALTRET(ALT_GEN); /* Write remaining EG recs */
      953     2933    1       ALTRETURN; /* Indicate to sort completion */
      954     2934
      955     2935        %EJECT;
PL6.E3A0      #003=ZIU$GENRCD File=ZIU$VALSET.:ZIC0TSI                           FRI 09/05/97 13:33 Page:123
      956     2936        /*
      957     2937                    Data base I/O routines. (OPEN/READ ATBLK/READ #BUFS)
      958     2938        */
      959     2939    1   OPEN_AREA: PROC ALTRET;
      960     2940    2       CALL GET_DCB(ZI$DIR.AREA_NM) ALTRET(ALTRTN);
      961     2941
      962     2942    2   /**/ FIDSF = ZI$DIR.AREA_NM.NAME.TEXT;
      963     2943    2       FUNSF = %IN#;
      964     2944    2       SHARESF = %IN#;
      965     2945    2       ORGSF = %IDS#;
      966     2946    2       ACSSF = %DIRECT#;
      967     2947    2       ASNSF = %FILE#;
      968     2948    2       CALL SYS_FUNC_OPEN ALTRET(ALTRTN);
      969     2949    2       RETURN;
      970     2950    2   ALTRTN:
      971     2951    2       ALTRETURN;
      972     2952    2   END OPEN_AREA;
      973     2953
      974     2954    1   READ_DB: PROC ALTRET;
      975     2955
      976     2956    2   /**/ DCBSF = ZI$DIR.AREA_NM.DCB#;
      977     2957    2   /**/ BUFSF = VECTOR(I_O_BUF(0));
      978     2958    2   /**/ BUFLNSF = I_O_SIZE * 4096;
      979     2959    2   /**/ FULLSF = %YES#;
      980     2960    2   /**/ ENCRP_SEEDSF = ZI$DIR.ENCP_SEED;
      981     2961    2   /**/ KEYSF = %YES#;
      982     2962    2   /**/ KEYVSF.IDSKEY = RB;
      983     2963    2       CALL SYS_FUNC_READ ALTRET(ALTRTN);
      984     2964    2       RETURN;
      985     2965    2   ALTRTN:
      986     2966    2       ALTRETURN;
      987     2967
      988     2968    2   END READ_DB;
      989     2969
      990     2970        %EJECT;
PL6.E3A0      #003=ZIU$GENRCD File=ZIU$VALSET.:ZIC0TSI                           FRI 09/05/97 13:33 Page:124
      991     2971    1   GET_ATBLK: PROC ALTRET;
      992     2972        /*
      993     2973           Evaluate high data page and number of inventory pages according
      994     2974           to attribute block information.
      995     2975        */
      996     2976
      997     2977    2   /**/ DCBSF = ZI$DIR.AREA_NM.DCB#;
      998     2978    2   /**/ BUFSF = VECTOR(I_O_BUF(0));
      999     2979    2   /**/ BUFLNSF = 4096;
     1000     2980    2   /**/ FULLSF = %YES#;
     1001     2981    2   /**/ ENCRP_SEEDSF = ZI$DIR.ENCP_SEED;
     1002     2982    2   /**/ KEYSF = %YES#;
     1003     2983    2   /**/ KEYVSF.IDSKEY = 0;
     1004     2984    2       CALL SYS_FUNC_READ ALTRET(ALT_ATBLK);
     1005     2985    2       ATBLK$ = ADDR(I_O_BUF(0));
     1006     2986    2       IF ATBLK_PG.FIR_INV_PGNO = 0 THEN
     1007     2987    3       DO;
     1008     2988    3           HIGH_DATA_PG = ATBLK_PG.NUM_DBPG;
     1009     2989    3           END;
     1010     2990    3       ELSE DO;
     1011     2991    3           HIGH_DATA_PG = ATBLK_PG.NUM_DBPG - ((ATBLK_PG.NUM_DBPG -
     1012     2992    3              ATBLK_PG.FIR_INV_PGNO)+1);
     1013     2993    3           END;
     1014     2994    2       LOW_DBK = ATBLK_PG.LOW_DBK;
     1015     2995    2       LPP = ATBLK_PG.LINE_INFO.LPP;
     1016     2996    2       RETURN;
     1017     2997        /**/
     1018     2998    2   ALT_ATBLK:
     1019     2999    2       ALTRETURN;
     1020     3000    2   END GET_ATBLK;
     1021     3001        %EJECT;
PL6.E3A0      #003=ZIU$GENRCD File=ZIU$VALSET.:ZIC0TSI                           FRI 09/05/97 13:33 Page:125
     1022     3002        /*
     1023     3003           This routine looks at the record type pointed to by rec$ and
     1024     3004           searches RECLIST for that record entry. If found - RECINDX is
     1025     3005           set and normal return is taken. If no entry is found the altretun
     1026     3006           is taken.
     1027     3007        */
     1028     3008    1   FIND_REC_ENTRY: PROC ALTRET;
     1029     3009
     1030     3010    3       DO RECINDX = 0 TO HIGH_RECINDX;
     1031     3011    3           IF MSTR_REF.TYPE(RECLIST.MSTRINDX(RECINDX)) = REC.TYPE THEN
     1032     3012    4           DO;
     1033     3013    4               MSTR_INDX = RECLIST.MSTRINDX(RECINDX);
     1034     3014    4               RETURN;
     1035     3015    4               END;
     1036     3016    3           END;
     1037     3017    2       ALTRETURN;
     1038     3018    2   END FIND_REC_ENTRY;
     1039     3019        /*
     1040     3020              EXTRACT THE POINTER VALUE POINTED TO BY PTR$
     1041     3021        */
     1042     3022    1   GETPTR: PROC(VAL,PTR$);
     1043     3023    2   DCL VAL UBIN;
     1044     3024    2   DCL PTR$ PTR;
     1045     3025
     1046     3026    3       DO CASE(PTR_LEN);
     1047     3027    3       CASE(2);
     1048     3028    3           VAL = PTR$ -> SZ2;
     1049     3029    3       CASE(3);
     1050     3030    3           VAL = PTR$ -> SZ3;
     1051     3031    3       CASE(4);
     1052     3032    3           VAL = PTR$ -> SZ4;
     1053     3033    3           END;
     1054     3034    2       IF MSTR_REF.GLOBAL(SETNUM)=0 AND VAL~= 0 THEN
     1055     3035    2           VAL = VAL + LOW_DBK -1; /* PROCESS LOCAL POINTER */
     1056     3036
     1057     3037    2       RETURN;
     1058     3038    2   END GETPTR;
PL6.E3A0      #003=ZIU$GENRCD File=ZIU$VALSET.:ZIC0TSI                           FRI 09/05/97 13:33 Page:126
     1059     3039        %EJECT;
PL6.E3A0      #003=ZIU$GENRCD File=ZIU$VALSET.:ZIC0TSI                           FRI 09/05/97 13:33 Page:127
     1060     3040        /*
     1061     3041          This procedure removes the pointers of the current set (SET_XREF(I))
     1062     3042          and puts the pointer values into the proper PT/EG records.
     1063     3043        */
     1064     3044    1   PULL_PTRS: PROC ALTRET;
     1065     3045
     1066     3046    2   DCL MSGBUF CHAR(120) STATIC ALIGNED;
     1067     3047    2   DCL MSGHDR CHAR(0) STATIC CALIGNED INIT('e+  Record ');
     1068     3048    2   DCL R1 SBIN STATIC ALIGNED;
     1069     3049    2   DCL D1 SBIN STATIC ALIGNED;
     1070     3050    2   DCL S1 SBIN STATIC ALIGNED;
     1071     3051    2   DCL R_V CHAR(R1) BASED CALIGNED;
     1072     3052    2   DCL D_V CHAR(D1) BASED CALIGNED;
     1073     3053    2   DCL S_V CHAR(S1) BASED CALIGNED;
     1074     3054    2   DCL CHAR10 CHAR(10) STATIC ALIGNED;
     1075     3055
     1076     3056    2       EISNXT = SET_XREF.EIS.NEXT(SETLIST(SETINDX));
     1077     3057    2       EISPR = SET_XREF.EIS.PRIOR(SETLIST(SETINDX));
     1078     3058    2       EISOWN = SET_XREF.EIS.OWNR(SETLIST(SETINDX));
     1079     3059
     1080     3060    2       IF EISOWN ~= 0 THEN
     1081     3061    2           SETOWN$ = PINCRC(REC$,OWNPT.BYT_OFF);
     1082     3062    2       SETNXT$ = PINCRC(REC$,NXTPT.BYT_OFF);
     1083     3063    2       SETPR$ = PINCRC(REC$,PRIPT.BYT_OFF);
     1084     3064
     1085     3065    2       IF TYPE_PA THEN /* Check if this is a PA record */
     1086     3066    3       DO;
     1087     3067    3           PTR_LEN = (MSTR_REF.PAOFF(MSTR_INDX)-2*4)/3;
     1088     3068    3           KEY_LEN = MSTR_REF.PAENT(MSTR_INDX)-2-PTR_LEN;
     1089     3069    3           NO_ENTRIES = PA_REC.ENTRIES;
     1090     3070    3           IF SETOWN$ -> CHARN ~= SETNXT$ -> CHARN THEN
     1091     3071    4           DO; /* Not highest level PA record */
     1092     3072    4               CALL GETPTR(SETVAL,SETOWN$);
     1093     3073    4               EGREC.DBK(EGINDX) = CURR_DBK;
     1094     3074    4               EGREC.PRIOR(EGINDX) = SETVAL;
     1095     3075    4               EGREC.OWNER(EGINDX) = 0;
     1096     3076    4               EGREC.SETTYPE(EGINDX) = MSTR_REF.TYPE(SETNUM) - 5000;
PL6.E3A0      #003=ZIU$GENRCD File=ZIU$VALSET.:ZIC0TSI                           FRI 09/05/97 13:33 Page:128
     1097     3077    4               EGREC.RECTYPE(EGINDX) = REC.TYPE;
     1098     3078    4               CALL WRITE_EG;
     1099     3079    4               END;
     1100     3080    3           END;
     1101     3081    2       ELSE
     1102     3082    2           IF EISPR = 0 THEN /* NO PRIOR PTR -> PA MEMBERS */
     1103     3083    3           DO; /* Process PA membrs writing EG records only */
     1104     3084    3               PTR_LEN = NXTPT.SIZE;
     1105     3085    3               EGREC.DBK(EGINDX) = CURR_DBK;
     1106     3086    3               EGREC.OWNER(EGINDX) = 0;
     1107     3087    3               EGREC.SETTYPE(EGINDX) = MSTR_REF.TYPE(SETNUM);
     1108     3088    3               EGREC.RECTYPE(EGINDX) = REC.TYPE;
     1109     3089    3               CALL GETPTR(SETVAL,SETNXT$);
     1110     3090    3               IF SETVAL=0 THEN /* CHK IF IT IS UNCONNECT */
     1111     3091    4               DO;
     1112     3092    4                   SETNXT$=PINCRC(SETNXT$,PTR_LEN);
     1113     3093    4                   CALL GETPTR(SETVAL,SETNXT$);
     1114     3094    4                   IF SETVAL=0 AND (MSTR_REF.SET.INMODE(SETNUM) OR
     1115     3095    4                      MSTR_REF.SET.RETYPE(SETNUM)) THEN
     1116     3096    5                   DO; /* UNCONNECTED MEMBER FOUND */
     1117     3097    5                       IF ZI$DIR.REPRT_ZERO THEN
     1118     3098    5                           GOTO REPORT_ZERO;
     1119     3099    5                       ALTRETURN; /* DONT DO ANYTHING */
     1120     3100    5                       END;
     1121     3101    4                   SETVAL = 0; /* RESTORE NEXT PTR */
     1122     3102    4                   END;
     1123     3103    3               EGREC.PRIOR(EGINDX) = SETVAL; /* Use owner ptr for prior */
     1124     3104    3               CALL WRITE_EG;
     1125     3105    3               ALTRETURN; /* ALTRET so no PT record will be written */
     1126     3106    3               END;
     1127     3107        %EJECT;
PL6.E3A0      #003=ZIU$GENRCD File=ZIU$VALSET.:ZIC0TSI                           FRI 09/05/97 13:33 Page:129
     1128     3108        /*
     1129     3109                 PROCESS THE STANDARD  SET  POINTERS  FOR NON-PA RECORDS
     1130     3110        */
     1131     3111
     1132     3112
     1133     3113    2       SET_LN = NXTPT.SIZE;
     1134     3114    2       PTREC.OWNER = CURR_DBK; /* Init owner pointers to themselves */
     1135     3115    2       EGREC.OWNER(EGINDX) = CURR_DBK;
     1136     3116    2       PTREC.SETTYPE = MSTR_REF.TYPE(SETNUM);
     1137     3117    2       EGREC.SETTYPE(EGINDX) = MSTR_REF.TYPE(SETNUM);
     1138     3118    2       PTREC.DBK = CURR_DBK;
     1139     3119    2       EGREC.DBK(EGINDX) = CURR_DBK;
     1140     3120    2       PTREC.RECTYPE = REC.TYPE;
     1141     3121    2       EGREC.RECTYPE(EGINDX) = REC.TYPE;
     1142     3122
     1143     3123    3       DO CASE(SET_LN);
     1144     3124    3       CASE(2);
     1145     3125    3           PTREC.NEXT = SETNXT$ -> SZ2;
     1146     3126    3           EGREC.PRIOR(EGINDX) = SETPR$ -> SZ2;
     1147     3127    3           IF EISOWN ~= 0 THEN
     1148     3128    4           DO;
     1149     3129    4               PTREC.OWNER = SETOWN$ -> SZ2;
     1150     3130    4               EGREC.OWNER(EGINDX) = SETOWN$ -> SZ2;
     1151     3131    4               END;
     1152     3132
     1153     3133    3       CASE(3);
     1154     3134    3           PTREC.NEXT = SETNXT$ -> SZ3;
     1155     3135    3           EGREC.PRIOR(EGINDX) = SETPR$ -> SZ3;
     1156     3136    3           IF EISOWN ~= 0 THEN
     1157     3137    4           DO;
     1158     3138    4               PTREC.OWNER = SETOWN$ -> SZ3;
     1159     3139    4               EGREC.OWNER(EGINDX) = SETOWN$ -> SZ3;
     1160     3140    4               END;
     1161     3141
     1162     3142    3       CASE(4);
     1163     3143    3           PTREC.NEXT = SETNXT$ -> SZ4;
     1164     3144    3           EGREC.PRIOR(EGINDX) = SETPR$ -> SZ4;
PL6.E3A0      #003=ZIU$GENRCD File=ZIU$VALSET.:ZIC0TSI                           FRI 09/05/97 13:33 Page:130
     1165     3145    3           IF EISOWN ~= 0 THEN
     1166     3146    4           DO;
     1167     3147    4               PTREC.OWNER = SETOWN$ -> SZ4;
     1168     3148    4               EGREC.OWNER(EGINDX) = SETOWN$ -> SZ4;
     1169     3149    4               END;
     1170     3150
     1171     3151    3           END;
     1172     3152    2       IF PTREC.NEXT=0 AND PTREC.OWNER=0 AND EGREC.PRIOR(EGINDX)=0 THEN
     1173     3153    3       DO; /* UN-CONNECTED MEMBER FOUND */
     1174     3154    3           IF MSTR_REF.SET.INMODE(SETNUM) OR /* INSERTION MANUAL */
     1175     3155    3              MSTR_REF.SET.RETYPE(SETNUM) THEN /* RETENTION OPTIONAL */
     1176     3156    4           DO; /* THIS IS A LEGAL UNCONNECTED MEMBER */
     1177     3157    4               IF ZI$DIR.REPRT_ZERO THEN
     1178     3158    4                   GOTO REPORT_ZERO;
     1179     3159    4               ALTRETURN; /* NOT REPORT ZERO, SKIP THIS SET MEMBER */
     1180     3160    4               END;
     1181     3161    3           END;
     1182     3162    2       IF MSTR_REF.GLOBAL(SETNUM) = 0 THEN /* LOCAL SET */
     1183     3163    3       DO;
     1184     3164    3           IF EGREC.PRIOR(EGINDX)~=0 THEN
     1185     3165    3               EGREC.PRIOR(EGINDX) = EGREC.PRIOR(EGINDX) + LOW_DBK -1;
     1186     3166    3           IF PTREC.NEXT~=0 THEN
     1187     3167    3               PTREC.NEXT = PTREC.NEXT + LOW_DBK -1;
     1188     3168    3           IF EISOWN~=0 AND PTREC.OWNER~=0 THEN
     1189     3169    4           DO;
     1190     3170    4               EGREC.OWNER(EGINDX) = EGREC.OWNER(EGINDX) + LOW_DBK -1;
     1191     3171    4               PTREC.OWNER = PTREC.OWNER + LOW_DBK -1;
     1192     3172    4               END;
     1193     3173    3           END;
     1194     3174
     1195     3175    2       RETURN;
     1196     3176    2   REPORT_ZERO:
     1197     3177    2       CALL INDEX1(R1,' ',MSTR_REF.NAME(MSTR_INDX));
     1198     3178    2       CALL INDEX1(S1,' ',MSTR_REF.NAME(SETNUM));
     1199     3179    2       CALL BINCHAR(CHAR10,CURR_DBK);
     1200     3180    2       CALL ZERO_SUP(CHAR10,LENGTHC(CHAR10),'1'B);
     1201     3181    2       CALL INDEX1(D1,' ',CHAR10);
PL6.E3A0      #003=ZIU$GENRCD File=ZIU$VALSET.:ZIC0TSI                           FRI 09/05/97 13:33 Page:131
     1202     3182    2       CALL CONCAT(MSGBUF,MSGHDR,ADDR(MSTR_REF.NAME(MSTR_INDX))->R_V,
     1203     3183    2          ' at DBK ',ADDR(CHAR10)->D_V,
     1204     3184    2          ' is an unconnected member of ',
     1205     3185    2          ADDR(MSTR_REF.NAME(SETNUM))->S_V);
     1206     3186    2       DCBSF = DCBNUM(M$LO);
     1207     3187    2       BUFSF = VECTOR(MSGBUF);
     1208     3188    2       BUFLNSF = LENGTHC(MSGBUF);
     1209     3189    2       VFCSF = '1'B;
     1210     3190    2       CALL SYS_FUNC_WRIT;
     1211     3191    2       SUBSTR(MSGHDR,0,1)='a';
     1212     3192    2       ALTRETURN;
     1213     3193    2   END PULL_PTRS;
     1214     3194        %EJECT;
PL6.E3A0      #003=ZIU$GENRCD File=ZIU$VALSET.:ZIC0TSI                           FRI 09/05/97 13:33 Page:132
     1215     3195        /*
     1216     3196           This procedure does logical writes of up to 16k of 4 word EG
     1217     3197           records, then writes them out to the EG file. It uses half of
     1218     3198           the data base I_O_BUF area for buffering.
     1219     3199        */
     1220     3200    1   WRITE_EG: PROC ALTRET;
     1221     3201
     1222     3202    2       NO_EGRECS = NO_EGRECS + 1;
     1223     3203    2       IF EGINDX = 4095 THEN
     1224     3204    3       DO;
     1225     3205         /* EG buf full so write it out and restart filling buffer */
     1226     3206    3    /**/   DCBSF = EGFILE.DCB#;
     1227     3207    3           KEYSF = %NO#;
     1228     3208    3           BUFSF = VECTOR(EGREC);
     1229     3209    3           BUFLNSF = (EGINDX+1) * 16; /* 16 bytes per entry */
     1230     3210    3           VFCSF = %NO#;
     1231     3211    3           CALL SYS_FUNC_WRIT ALTRET(ALT_WREG);
     1232     3212    3           NO_EGBUFS = NO_EGBUFS + 1;
     1233     3213    3           EGINDX = -1;
     1234     3214    3           END;
     1235     3215    2       EGINDX = EGINDX + 1;
     1236     3216    2       RETURN;
     1237     3217
     1238     3218    2   ALT_WREG:
     1239     3219    2       ALTRETURN;
     1240     3220    2   END WRITE_EG;
     1241     3221
     1242     3222    1   FLUSH_EG: PROC ALTRET;
     1243     3223
     1244     3224    2       IF EGINDX ~= -1 THEN
     1245     3225    3       DO;
     1246     3226    3    /**/   DCBSF = EGFILE.DCB#;
     1247     3227    3           KEYSF = %NO#;
     1248     3228    3           BUFSF = VECTOR(EGREC);
     1249     3229    3           BUFLNSF = EGINDX * 16; /* 16 bytes per entry */
     1250     3230    3           VFCSF = %NO#;
     1251     3231    3           CALL SYS_FUNC_WRIT ALTRET(ALT_FLUSH);
PL6.E3A0      #003=ZIU$GENRCD File=ZIU$VALSET.:ZIC0TSI                           FRI 09/05/97 13:33 Page:133
     1252     3232    3           END;
     1253     3233
     1254     3234    2       CALL SYS_FUNC_CLOS ALTRET(ALT_FLUSH);
     1255     3235    2       LAST_EGINDX = EGINDX;
     1256     3236    2       RETURN;
     1257     3237
     1258     3238    2   ALT_FLUSH:
     1259     3239    2       ALTRETURN;
     1260     3240    2   END FLUSH_EG;
     1261     3241
     1262     3242    1   ALT_GEN:
     1263     3243    1       ALTRETURN;
     1264     3244
     1265     3245    1   END ZIU$GENRCD;
     1266     3246        %EOD;

PL6.E3A0      #003=ZIU$GENRCD File=ZIU$VALSET.:ZIC0TSI                           FRI 09/05/97 13:33 Page:134
--  Include file information  --

   ZI$DIR.:ZIC0TOU  is referenced.
   CP_6_SUBS.:LIB_E05  is referenced.
   CP_6.:LIB_E05  cannot be made into a system file and is referenced.
   ZI_ERRORS_SUBS.:ZIC0TOU  is referenced.
   ZI_DBU_XREF.:ZIC0TOU  cannot be made into a system file and is referenced.
   ZI$PG_STRUCTS.:ZIC0TOU  is referenced.
   ZI_GLOBAL_DBUTIL.:ZIC0TOU  is referenced.
   ZI_DBU_VALDTE.:ZIC0TOU  is referenced.
   B$JIT_C.:E05TOU  was found in the system file and is never referenced.
   CP_6_C.:E05TOU  was found in the system file and is referenced.
      No diagnostics issued in procedure ZIU$GENRCD.

   Procedure ZIU$GENRCD requires 1152 words for executable code.
   Procedure ZIU$GENRCD requires 14 words of local(AUTO) storage.

PL6.E3A0      #003=ZIU$GENRCD File=ZIU$VALSET.:ZIC0TSI                           FRI 09/05/97 13:33 Page:135

 Object Unit name= ZIU$GENRCD                                 File name= ZIU$VALSET.:ZIC0TOU
 UTS= SEP 05 '97 13:33:48.16 FRI                              Compiler= PL-6/E31         Sev=      00
 SharedLib= :SHARED_SYSTEM                                    Alt SharedLib=


    ****  Control sections  ****

 Sect   Type Bound  Init  Size OctSiz  Section name(segment info)
    0   Data  even  none    59     73  ZIU$GENRCD
    1   DCB   even  none     0      0  M$LO
    2   DCB   even  none     0      0  M$UC
    3  RoData even  UTS     10     12  ZIU$GENRCD
    4   Proc  even  none  1152   2200  ZIU$GENRCD
    5  RoData even  none    31     37  ZIU$GENRCD

    ****  Entry defs  ****

                              Check   Calling
                             calling  sequence
  Sect OctLoc Primary Altret sequence   type   Parms  Name
     4      0   yes    yes     yes      Std        2  ZIU$GENRCD
PL6.E3A0      #003=ZIU$GENRCD File=ZIU$VALSET.:ZIC0TSI                           FRI 09/05/97 13:33 Page:136

  ****  Entry refs  ****

         Check        Calling
        calling       sequence
Altret sequence SRef   type   Args  Name
 yes     yes           Std       0 SYS_FUNC_ERRMSG
         yes           Std       6 PAGE_RANGE
 yes     yes           Std       0 SYS_FUNC_RELDCB
 yes     yes           Std       0 SYS_FUNC_CLOS
 yes     yes           Std       1 GET_DCB
 yes     yes           Std       0 SYS_FUNC_OPEN
 yes     yes           Std       0 SYS_FUNC_READ
         yes           Std       3 ZERO_SUP
 yes     yes           Std       0 SYS_FUNC_WRIT
                       nStd      0 X66_AUTO_2
                       nStd      0 X66_AUNWIND
                       nStd      0 X66_ARET
                       nStd      0 X66_AALT
PL6.E3A0      #003=ZIU$GENRCD File=ZIU$VALSET.:ZIC0TSI                           FRI 09/05/97 13:33 Page:137

  ****  Data refs  ****

  Flags:  r = read only, s = secondary
Flgs Name                             Flgs Name                             Flgs Name
     AREANO                                LOW_DBK                               HIGH_DATA_PG
     LPP                                   INITIAL_SORT_CALL                     BREAK_LOCAT
     RECLIST                               SETLIST                               SETINDX
     RECINDX                               HIGH_RECINDX                          EGREC$
     EGINDX                                NO_EGRECS                             NO_EGBUFS
     LAST_EGINDX                           CURREG                                CURRPT
     EGFILE                                ERRFILE                               NO_ERRORS
     ERROR_BUF                             ERRBUF$                               BLKLSF
     KEYLSF                                KEYXSF                                DCBSF
     ORGSF                                 KEYSF                                 KEYVSF
     ACSSF                                 NOTIMESF                              FUNSF
     ASNSF                                 TESTSF                                XTENSIZESF
     DISPSF                                WAITSF                                VFCSF
     FULLSF                                BKUPSF                                BUFLNSF
     BUFSF                                 SOURCESF                              DESTSF
     DATESF                                TIMESF                                UTSSF
     DAYSF                                 TSTAMPSF                              ENCRP_SEEDSF
     ERRCODESF                             MSGCODE                               INCL_ERR
     ERR_INSERT                            FIDSF_RD                              ACNT
     EXISTSF                               SHARESF                               DCBNMSF
     KEYRSF                                NO_KEYSF                              REASGNSF
     CARRY_ATTRIBUTESF                     SUBMESSF                              SPKY_OPNSF
     POSSF                                 ERRFLGSF                              MERGESF
     FSA_FLAG                              RELGSF                                UNUSED
     HELPCODE                              COUNTSF                               INDEXSF
     GAP                                   PSNSF                                 ACNTSF
     KEY_SHADWSF                           REC$                                  RB
     RE                                    IE                                    IB
     CNT                                   ICNT                                  RCNT
     SCNT                                  FIRST_SET                             RETCNT
     DMPCNT                                KCNT                                  ACNT_IDX
     I                                     J                                     K
     X                                     STEPCC                                I_O_BUF$
PL6.E3A0      #003=ZIU$GENRCD File=ZIU$VALSET.:ZIC0TSI                           FRI 09/05/97 13:33 Page:138
     OUT_INDX                              I_O_SIZE                              REC_DATA_LN
     M$LO                                  B$TCB$                                B$ROS$
     B$JIT$                                KEYFID                                I_O_KEY
     RESTART                               BREAK_FLAG                            ICHKSUM
     ITMCNT                                GAP1                                  ENTRY$
     GROUP$                                PTR_LEN                               KEY_LEN
     ATBLK$                                DATA$                                 TYPE
     MSTR$                                 NXT_MSLOT                             MAX_MSLOT
     MSTR_INDX                             HASHTBL                               HASHINDX
     LOC_MODE                              AREA_KEY$                             NO_AREAS
     GLBL_PTR_SZ                           SET_XREF$                             NXT_SSLOT
     MAX_SSLOT                             REC_XREF$                             NXT_RSLOT
     MAX_RSLOT                             NO_RECS                               NO_SETS
     XREF_BUILT                            TYPESET                               TYPEREC
     M$UC                                  ZI$DIR                                SCHEMA_ACTIVE
     RECORD_LIST                           SET_LIST                              RETAIN_LIST
     DUMP_FID                              ALTKY                                 INIT_RG
     KEY_RNG                               ITEM_LIST

  ****  Segment refs  ****

  Flags:  r = read only, s = secondary
Flgs Name                             Flgs Name                             Flgs Name
     ROSID                                 ISSID
PL6.E3A0      #003=ZIU$GENRCD File=ZIU$VALSET.:ZIC0TSI                           FRI 09/05/97 13:33 Page:139


      681        1        /*M*  ZIU$GENRCD  IDSII UTILITIES      SET VALIDATION RECORD GENERATION */
      682        2        /*T***********************************************************/
      683        3        /*T*                                                         */
      684        4        /*T* Copyright (c) Bull HN Information Systems Inc., 1997    */
      685        5        /*T*                                                         */
      686        6        /*T***********************************************************/
      687        7        /*P*
      688        8           NAME: ZIU$GENRCD
      689        9        PURPOSE: This procedure is the input routine for X$SORT used in the
      690       10                 set pointer validation routine. It generates special records
      691       11                 for each set in the data base data records to validate the
      692       12                 sets with.
      693       13        */
      694       14        ZIU$GENRCD: PROC(PTREC,PTSIZE) ALTRET;

     14  4 000000   000000 700200 xent  ZIU$GENRCD   TSX0  ! X66_AUTO_2
         4 000001   000016 000002                    ZERO    14,2

      695       15
      696       16    1   DCL AREANO SBIN WORD SYMREF;
      697       17    1   DCL LOW_DBK UBIN WORD SYMREF; /* DEFED IN CHECK */
      698       18    1   DCL HIGH_DATA_PG UBIN WORD SYMREF;
      699       19    1   DCL LPP UBIN WORD SYMREF;
      700       20
      701       21    1   DCL I_O_INDX SBIN WORD STATIC ALIGNED;
      702       22    1   DCL LINE_NO SBIN WORD STATIC ALIGNED;
      703       23    1   DCL CURR_DBK UBIN WORD STATIC ALIGNED;
      704       24    1   DCL SET_LN SBIN WORD STATIC ALIGNED;
      705       25    1   DCL HIGH_LINE SBIN WORD STATIC ALIGNED;
      706       26    1   DCL ENTRYNO SBIN WORD STATIC ALIGNED;
      707       27    1   DCL NO_ENTRIES SBIN WORD STATIC ALIGNED;
      708       28    1   DCL NO_PTRS SBIN WORD STATIC ALIGNED;
      709       29    1   DCL RETURNCODE SBIN WORD STATIC ALIGNED;
      710       30    1   DCL SETNUM SBIN WORD STATIC ALIGNED;
      711       31    1   DCL SETVAL SBIN WORD STATIC ALIGNED;
      712       32    1   DCL CHARN CHAR(PTR_LEN) BASED;
PL6.E3A0      #003=ZIU$GENRCD File=ZIU$VALSET.:ZIC0TSI                           FRI 09/05/97 13:33 Page:140
      713       33
      714       34
      715       35
      716       36
      717       37
      718       38
      719       39    1   DCL 1 PTREC CALIGNED, /* PARAM */
      720       40    1         2 NEXT UBIN WORD UNAL, /* SORT FIELD */
      721       41    1         2 SETTYPE SBIN HALF UNAL, /* SORT FIELD */
      722       42    1         2 RECTYPE SBIN HALF UNAL,
      723       43    1         2 DBK UBIN WORD UNAL,
      724       44    1         2 OWNER UBIN WORD UNAL,
      725       45    1         2 PA REDEF OWNER,
      726       46    1           3 ENTRY# UBIN HALF UNAL,
      727       47    1           3 GROUP# UBIN HALF UNAL;
      728       48    1   DCL PTSIZE UBIN WORD; /* PARAM */
      729       49
      730       50    1   DCL SZ2 UBIN(18) BASED CALIGNED;
      731       51    1   DCL SZ3 UBIN(27) BASED CALIGNED;
      732       52    1   DCL SZ4 UBIN(36) BASED CALIGNED;
      733       53    1   DCL SETNXT$ PTR STATIC ALIGNED;
      734       54    1   DCL SETPR$ PTR STATIC ALIGNED;
      735       55    1   DCL SETOWN$ PTR STATIC ALIGNED;
      736       56
      737       57    1   DCL 1 REC STATIC ALIGNED,
      738       58    1         2 TYPE UBIN HALF HALIGNED,
      739       59    1         2 LEN UBIN HALF HALIGNED;
      740       60    1   DCL 1 RECSTUFF REDEF REC UBIN WORD ALIGNED;
      741       61    1   DCL EISOWN UBIN WORD STATIC ALIGNED;
      742       62    1   DCL 1 OWNPT REDEF EISOWN,
      743       63    1         2 * UBIN(3) UNAL,
      744       64    1         2 BYT_OFF UBIN(17) UNAL,
      745       65    1         2 TN UBIN(2) UNAL,
      746       66    1         2 SIGN UBIN(2) UNAL,
      747       67    1         2 SCAL UBIN(6) UNAL,
      748       68    1         2 SIZE UBIN(6) UNAL;
      749       69    1   DCL EISPR UBIN WORD STATIC ALIGNED;
PL6.E3A0      #003=ZIU$GENRCD File=ZIU$VALSET.:ZIC0TSI                           FRI 09/05/97 13:33 Page:141
      750       70    1   DCL 1 PRIPT REDEF EISPR ALIGNED,
      751       71    1         2 * UBIN(3) UNAL,
      752       72    1         2 BYT_OFF UBIN(17) UNAL,
      753       73    1         2 TN UBIN(2) UNAL,
      754       74    1         2 SIGN UBIN(2) UNAL,
      755       75    1         2 SCAL UBIN(6) UNAL,
      756       76    1         2 SIZE UBIN(6) UNAL;
      757       77    1   DCL EISNXT UBIN WORD STATIC ALIGNED;
      758       78    1   DCL 1 NXTPT REDEF EISNXT ALIGNED,
      759       79    1         2 * UBIN(3) UNAL,
      760       80    1         2 BYT_OFF UBIN(17) UNAL,
      761       81    1         2 TN UBIN(2) UNAL,
      762       82    1         2 SIGN UBIN(2) UNAL,
      763       83    1         2 SCAL UBIN(6) UNAL,
      764       84    1         2 SIZE UBIN(6) UNAL;
      765       85
      766       86    1   DCL LAST_PAGE BIT(1) STATIC UNAL;
      767       87    1   DCL INITIAL_SORT_CALL BIT(1) SYMREF UNAL;
      768       88    1   DCL TYPE_PA BIT(1) STATIC UNAL;
      769       89
      770       90         %SUB #BUFS = 16;
      771       91         %SUB OFFSET# = "2035 -";
      772       92         %EQU STANDRD = 0;
      773       93         %EQU PACODE1 = 1;
      774       94         %EQU PACODE2 = 2;
      775       95
      776       96         %INCLUDE ZI_DBU_VALDTE;
      777      364         %VALID_LIST;
      778      504         %INCLUDE ZI_GLOBAL_DBUTIL;
      779      682         %SYS_FUNC;
      780      774         %MISC_DCLS;
      781      827         %PAREC;
      782      854         %INCLUDE ZI$PG_STRUCTS;
      783      957         %ATBLK_PG;
      784     1013         %DATA_PG;
      785     1032         %INCLUDE ZI_DBU_XREF;
      786     1199         %XREF_TBLS;
PL6.E3A0      #003=ZIU$GENRCD File=ZIU$VALSET.:ZIC0TSI                           FRI 09/05/97 13:33 Page:142
      787     1274         %INCLUDE ZI_ERRORS_SUBS;
      788     1794         %INCLUDE CP_6;
      789     1875         %F$DCB;
      790     1932         %INCLUDE CP_6_SUBS;
      791     2472         %INCLUDE ZI$DIR;
      792     2629         %DIR;
      793     2773
      794     2774    1   DCL PAGE_RANGE ENTRY(6);
      795     2775    1   DCL ZERO_SUP ENTRY(3);
      796     2776    1   DCL SYS_FUNC_CLOS ENTRY ALTRET;
      797     2777    1   DCL SYS_FUNC_OPEN ENTRY ALTRET;
      798     2778    1   DCL SYS_FUNC_READ ENTRY ALTRET;
      799     2779    1   DCL SYS_FUNC_WRIT ENTRY ALTRET;
      800     2780    1   DCL SYS_FUNC_RELDCB ENTRY ALTRET;
      801     2781    1   DCL GET_DCB ENTRY(1) ALTRET;
      802     2782    1   DCL SYS_FUNC_ERRMSG ENTRY ALTRET;
      803     2783
      804     2784
      805     2785        %EJECT;
PL6.E3A0      #003=ZIU$GENRCD File=ZIU$VALSET.:ZIC0TSI                           FRI 09/05/97 13:33 Page:143
      806     2786        /*
      807     2787           Initial call to sort will start loops - reentries will continue
      808     2788           where left off. each normal return, returns a record to sort.
      809     2789        */
      810     2790    1       IF INITIAL_SORT_CALL THEN

   2790  4 000002   000000 234000 xsym               SZN     INITIAL_SORT_CALL
         4 000003   000012 605000 4                  TPL     s:2797

      811     2791    2       DO;

      812     2792    2           PTSIZE = 16;

   2792  4 000004   000020 235007                    LDA     16,DL
         4 000005   200004 470500                    LDP0    @PTSIZE,,AUTO
         4 000006   000000 755100                    STA     0,,PR0

      813     2793    2           INITIAL_SORT_CALL = %NO#;

   2793  4 000007   000000 450000 xsym               STZ     INITIAL_SORT_CALL

      814     2794    2           RETURNCODE = %STANDRD;

   2794  4 000010   000010 450000 0                  STZ     RETURNCODE

      815     2795    2           END;

   2795  4 000011   000017 710000 4                  TRA     s:2804

      816     2796    1       ELSE
      817     2797    1           IF RETURNCODE = %STANDRD THEN GOTO RE_ENTRY;

   2797  4 000012   000010 235000 0                  LDA     RETURNCODE
         4 000013   000227 600000 4                  TZE     RE_ENTRY

      818     2798    1           ELSE
      819     2799    1               IF RETURNCODE = %PACODE1 THEN GOTO PA_RTN1;
PL6.E3A0      #003=ZIU$GENRCD File=ZIU$VALSET.:ZIC0TSI                           FRI 09/05/97 13:33 Page:144

   2799  4 000014   000001 115007                    CMPA    1,DL
         4 000015   000403 600000 4                  TZE     PA_RTN1

      820     2800    1               ELSE
      821     2801    1                   GOTO PA_RTN2;

   2801  4 000016   000501 710000 4                  TRA     PA_RTN2

      822     2802
      823     2803
      824     2804    2       DO AREANO = 0 TO NO_AREAS - 1;

   2804  4 000017   000000 450000 xsym               STZ     AREANO
         4 000020   000625 710000 4                  TRA     NEXT_AREA+1

      825     2805    2           IF AREA_KEY_XREF.MAX_KEY(AREANO)=0 THEN GOTO NEXT_AREA; /* SKIP NON-IDS */

   2805  4 000021   000000 236000 xsym               LDQ     AREANO
         4 000022   000012 402007                    MPY     10,DL
         4 000023   000000 470400 xsym               LDP0    AREA_KEY$
         4 000024   000000 235106                    LDA     0,QL,PR0
         4 000025   000001 236106                    LDQ     1,QL,PR0
         4 000026   000022 773000                    LRL     18
         4 000027   000000 116003                    CMPQ    0,DU
         4 000030   000624 600000 4                  TZE     NEXT_AREA

      826     2806    2           ZI$DIR.AREA_NM.NAME.TEXT = AREA_KEY_XREF.NAME(AREANO);

   2806  4 000031   000000 236000 xsym               LDQ     AREANO
         4 000032   000050 402007                    MPY     40,DL
         4 000033   040000 100506                    MLR     fill='040'O
         4 000034   000001 400036                    ADSC9   1,Q,PR0                  cn=2,n=30
         4 000035   000234 200036 xsym               ADSC9   ZI$DIR+156               cn=1,n=30

      827     2807    2           CALL OPEN_AREA ALTRET(ALT_GEN);

PL6.E3A0      #003=ZIU$GENRCD File=ZIU$VALSET.:ZIC0TSI                           FRI 09/05/97 13:33 Page:145
   2807  4 000036   000633 701000 4                  TSX1    OPEN_AREA
         4 000037   002177 702000 4                  TSX2    ALT_GEN

      828     2808
      829     2809    2           IF DCBADDR(DCBSF)->F$DCB.ORG# ~= %IDS# THEN

   2809  4 000040   000000 470400 5                  LDP0    0
         4 000041   000000 471500                    LDP1    0,,PR0
         4 000042   000000 220000 xsym               LDX0    DCBSF
         4 000043   100000 473510                    LDP3    0,X0,PR1
         4 000044   300032 236100                    LDQ     26,,PR3
         4 000045   777000 376003                    ANQ     -512,DU
         4 000046   007000 116003                    CMPQ    3584,DU
         4 000047   000070 600000 4                  TZE     s:2818

      830     2810    3           DO;

      831     2811    3               ERRCODESF.ERR# = DBU#CHKIDS;

   2811  4 000050   000000 236000 xsym               LDQ     ERRCODESF
         4 000051   000001 376000 5                  ANQ     1
         4 000052   215460 276007                    ORQ     72496,DL
         4 000053   000000 756000 xsym               STQ     ERRCODESF

      832     2812    3               MSGCODE = ERRCODE_RDEF;

   2812  4 000054   000000 756000 xsym               STQ     MSGCODE

      833     2813    3               ERRFLGSF = 3;

   2813  4 000055   003000 236003                    LDQ     1536,DU
         4 000056   000000 756000 xsym               STQ     ERRFLGSF

      834     2814    3               CALL SYS_FUNC_ERRMSG;

   2814  4 000057   000002 631400 5                  EPPR1   2
         4 000060   000000 701000 xent               TSX1    SYS_FUNC_ERRMSG
PL6.E3A0      #003=ZIU$GENRCD File=ZIU$VALSET.:ZIC0TSI                           FRI 09/05/97 13:33 Page:146
         4 000061   000000 011000                    NOP     0

      835     2815    3               UNWIND TO BREAK_LOCAT; /* ABORT THE JOB, AND DO CLOSE DCBS */

   2815  4 000062   000100 100600                    MLR   ! fill='000'O
         4 000063   000000 000010 xsym               ADSC9   BREAK_LOCAT              cn=0,n=8
         4 000064   200014 000010                    ADSC9   @PTR$+2,,AUTO            cn=0,n=8
         4 000065   200014 237300                    LDAQ  ! @PTR$+2,,AUTO
         4 000066   000000 700200 xent               TSX0  ! X66_AUNWIND
         4 000067   000000 000200                    ZERO    0,128

      836     2816    3               END;
      837     2817
      838     2818    2           CALL GET_ATBLK ALTRET(ALT_GEN);

   2818  4 000070   000716 701000 4                  TSX1    GET_ATBLK
         4 000071   002177 702000 4                  TSX2    ALT_GEN

      839     2819    2           LAST_PAGE = %NO#;

   2819  4 000072   000022 450000 0                  STZ     LAST_PAGE

      840     2820    2           CALL PAGE_RANGE(RB,RE,#BUFS,I_O_SIZE,HIGH_DATA_PG,LAST_PAGE);

   2820  4 000073   000005 630400 5                  EPPR0   5
         4 000074   000003 631400 5                  EPPR1   3
         4 000075   000000 701000 xent               TSX1    PAGE_RANGE
         4 000076   000000 011000                    NOP     0

      841     2821
      842     2822    3           DO WHILE(~LAST_PAGE);

   2822  4 000077   000610 710000 4                  TRA     s:2923

      843     2823    3               I_O_INDX = 0;

   2823  4 000100   000000 450000 0                  STZ     I_O_INDX
PL6.E3A0      #003=ZIU$GENRCD File=ZIU$VALSET.:ZIC0TSI                           FRI 09/05/97 13:33 Page:147

      844     2824    3               CALL READ_DB ALTRET(ALT_GEN);

   2824  4 000101   000664 701000 4                  TSX1    READ_DB
         4 000102   002177 702000 4                  TSX2    ALT_GEN

      845     2825    3               IF BREAK_FLAG>0 THEN UNWIND TO BREAK_LOCAT;

   2825  4 000103   000000 235000 xsym               LDA     BREAK_FLAG
         4 000104   000113 604400 4                  TMOZ    s:2827

   2825  4 000105   000100 100600                    MLR   ! fill='000'O
         4 000106   000000 000010 xsym               ADSC9   BREAK_LOCAT              cn=0,n=8
         4 000107   200014 000010                    ADSC9   @PTR$+2,,AUTO            cn=0,n=8
         4 000110   200014 237300                    LDAQ  ! @PTR$+2,,AUTO
         4 000111   000000 700200 xent               TSX0  ! X66_AUNWIND
         4 000112   000000 000200                    ZERO    0,128

      846     2826
      847     2827    4               DO RB = RB TO RE;

   2827  4 000113   000601 710000 4                  TRA     s:2921+3

      848     2828    4                   DATA$ = ADDR(I_O_BUF(I_O_INDX));

   2828  4 000114   000000 236000 0                  LDQ     I_O_INDX
         4 000115   000034 736000                    QLS     28
         4 000116   000000 036000 xsym               ADLQ    I_O_BUF$
         4 000117   000000 756000 xsym               STQ     DATA$

      849     2829    4                   HIGH_LINE = DATA_PG.OFF_LN.SEC;

   2829  4 000120   000000 470400 xsym               LDP0    DATA$
         4 000121   000005 236100                    LDQ     5,,PR0
         4 000122   777777 376007                    ANQ     -1,DL
         4 000123   000004 756000 0                  STQ     HIGH_LINE

PL6.E3A0      #003=ZIU$GENRCD File=ZIU$VALSET.:ZIC0TSI                           FRI 09/05/97 13:33 Page:148
      850     2830
      851     2831    5                   DO LINE_NO = 0 TO HIGH_LINE;

   2831  4 000124   000001 450000 0                  STZ     LINE_NO
         4 000125   000572 710000 4                  TRA     NO_RECORD+1

      852     2832
      853     2833    5                       IF DATA_PG.ACT_DATA_18(OFFSET# LINE_NO) > 0 THEN

   2833  4 000126   000001 335000 0                  LCA     LINE_NO
         4 000127   000001 735000                    ALS     1
         4 000130   000000 470400 xsym               LDP0    DATA$
         4 000131   000100 100505                    MLR     fill='000'O
         4 000132   001777 400002                    ADSC9   1023,A,PR0               cn=2,n=2
         4 000133   200014 000004                    ADSC9   @PTR$+2,,AUTO            cn=0,n=4
         4 000134   200014 236100                    LDQ     @PTR$+2,,AUTO
         4 000135   000022 732000                    QRS     18
         4 000136   000000 116003                    CMPQ    0,DU
         4 000137   000571 604400 4                  TMOZ    NO_RECORD

      854     2834    6                       DO;

      855     2835         /*
      856     2836            Check if rec type is one which is being validated.
      857     2837            If so, set RECINDX to the RECLIST entry else altrtn.
      858     2838         */
      859     2839    6                          REC$ = PINCRC(DATA$,12+DATA_PG.ACT_DATA_18(OFFSET# LINE_NO))
              2839                                    ;

   2839  4 000140   000100 100505                    MLR     fill='000'O
         4 000141   001777 400002                    ADSC9   1023,A,PR0               cn=2,n=2
         4 000142   200014 000004                    ADSC9   @PTR$+2,,AUTO            cn=0,n=4
         4 000143   200014 236100                    LDQ     @PTR$+2,,AUTO
         4 000144   000022 732000                    QRS     18
         4 000145   000020 736000                    QLS     16
         4 000146   000003 036003                    ADLQ    3,DU
         4 000147   000000 036000 xsym               ADLQ    DATA$
PL6.E3A0      #003=ZIU$GENRCD File=ZIU$VALSET.:ZIC0TSI                           FRI 09/05/97 13:33 Page:149
         4 000150   000000 756000 xsym               STQ     REC$

      860     2840    6                           RECSTUFF = REC$ -> SZ4; /* Set rec first word of record. */

   2840  4 000151   000000 471400 xsym               LDP1    REC$
         4 000152   000000 100500                    MLR     fill='000'O
         4 000153   100000 000004                    ADSC9   0,,PR1                   cn=0,n=4
         4 000154   000016 000004 0                  ADSC9   REC                      cn=0,n=4

      861     2841    6                           CALL FIND_REC_ENTRY ALTRET(NO_RECORD);

   2841  4 000155   000773 701000 4                  TSX1    FIND_REC_ENTRY
         4 000156   000571 702000 4                  TSX2    NO_RECORD

      862     2842         /*
      863     2843            Extract DBK and set pointers from this record.
      864     2844         */
      865     2845    6                          CURR_DBK = DATA_PG.CON_INTRVAL*LPP + LINE_NO + LOW_DBK - LPP
              2845                                    ;

   2845  4 000157   000000 470400 xsym               LDP0    DATA$
         4 000160   000004 236100                    LDQ     4,,PR0
         4 000161   000000 402000 xsym               MPY     LPP
         4 000162   000001 036000 0                  ADLQ    LINE_NO
         4 000163   000000 036000 xsym               ADLQ    LOW_DBK
         4 000164   000000 136000 xsym               SBLQ    LPP
         4 000165   000002 756000 0                  STQ     CURR_DBK

      866     2846    6                           SETINDX = RECLIST.SETINDX(RECINDX);

   2846  4 000166   000000 720000 xsym               LXL0    RECINDX
         4 000167   000000 236010 xsym               LDQ     RECLIST,X0
         4 000170   000022 736000                    QLS     18
         4 000171   000022 732000                    QRS     18
         4 000172   000000 756000 xsym               STQ     SETINDX

      867     2847    6                           IF MSTR_REF.PAOFF(MSTR_INDX)>0 THEN /* PA REC */
PL6.E3A0      #003=ZIU$GENRCD File=ZIU$VALSET.:ZIC0TSI                           FRI 09/05/97 13:33 Page:150

   2847  4 000173   000000 236000 xsym               LDQ     MSTR_INDX
         4 000174   000012 402007                    MPY     10,DL
         4 000175   000000 471400 xsym               LDP1    MSTR$
         4 000176   100011 236106                    LDQ     9,QL,PR1
         4 000177   777000 316003                    CANQ    -512,DU
         4 000200   000204 600000 4                  TZE     s:2850

      868     2848    6                               TYPE_PA = %YES#;

   2848  4 000201   400000 236003                    LDQ     -131072,DU
         4 000202   000023 756000 0                  STQ     TYPE_PA
         4 000203   000205 710000 4                  TRA     s:2852

      869     2849    6                           ELSE
      870     2850    6                               TYPE_PA = %NO#;

   2850  4 000204   000023 450000 0                  STZ     TYPE_PA

      871     2851
      872     2852    7                           DO WHILE(SETLIST(SETINDX) ~= -1);

   2852  4 000205   000560 710000 4                  TRA     s:2917

      873     2853
      874     2854    7                               SETNUM = SET_XREF.MSTRINDX(SETLIST(SETINDX));
              2854                                        /* MSTR_XREF index */

   2854  4 000206   000000 235000 xsym               LDA     SETINDX
         4 000207   000001 735000                    ALS     1
         4 000210   000100 100405                    MLR     fill='000'O
         4 000211   000000 000002 xsym               ADSC9   SETLIST,A                cn=0,n=2
         4 000212   200014 000004                    ADSC9   @PTR$+2,,AUTO            cn=0,n=4
         4 000213   200014 236100                    LDQ     @PTR$+2,,AUTO
         4 000214   000022 732000                    QRS     18
         4 000215   000002 736000                    QLS     2
         4 000216   000000 470400 xsym               LDP0    SET_XREF$
PL6.E3A0      #003=ZIU$GENRCD File=ZIU$VALSET.:ZIC0TSI                           FRI 09/05/97 13:33 Page:151
         4 000217   000000 236106                    LDQ     0,QL,PR0
         4 000220   000022 732000                    QRS     18
         4 000221   000011 756000 0                  STQ     SETNUM

      875     2855    7                               CALL PULL_PTRS ALTRET(RE_ENTRY);

   2855  4 000222   001102 701000 4                  TSX1    PULL_PTRS
         4 000223   000227 702000 4                  TSX2    RE_ENTRY

      876     2856    7                               CALL WRITE_EG;

   2856  4 000224   002102 701000 4                  TSX1    WRITE_EG
         4 000225   000000 011000                    NOP     0

      877     2857    7                               RETURN; /* Return PTREC to sort */

   2857  4 000226   000000 702200 xent               TSX2  ! X66_ARET

   2854  4 000227                       RE_ENTRY     null
      878     2858    7   RE_ENTRY:                   ; IF TYPE_PA THEN

   2858  4 000227   000023 234000 0                  SZN     TYPE_PA
         4 000230   000557 605000 4                  TPL     s:2916

      879     2859    8                               DO; /* PTR_LEN,KEY_LEN & NO_ENTRIES already found */

      880     2860         /*  For this PA record - process entries */
      881     2861    8                                   PTREC.RECTYPE = REC.TYPE * -1;

   2861  4 000231   000016 236000 0                  LDQ     REC
         4 000232   000022 772000                    QRL     18
         4 000233   000013 676000 5                  ERQ     11
         4 000234   000001 036007                    ADLQ    1,DL
         4 000235   200014 756100                    STQ     @PTR$+2,,AUTO
         4 000236   200003 470500                    LDP0    @PTREC,,AUTO
         4 000237   000100 101500                    MRL     fill='000'O
         4 000240   200014 000004                    ADSC9   @PTR$+2,,AUTO            cn=0,n=4
PL6.E3A0      #003=ZIU$GENRCD File=ZIU$VALSET.:ZIC0TSI                           FRI 09/05/97 13:33 Page:152
         4 000241   000001 400002                    ADSC9   1,,PR0                   cn=2,n=2

      882     2862    8                                   PTREC.DBK = CURR_DBK;

   2862  4 000242   000100 100400                    MLR     fill='000'O
         4 000243   000002 000004 0                  ADSC9   CURR_DBK                 cn=0,n=4
         4 000244   000002 000004                    ADSC9   2,,PR0                   cn=0,n=4

      883     2863    8                                   PTREC.SETTYPE = MSTR_REF.TYPE(SETNUM);

   2863  4 000245   000011 236000 0                  LDQ     SETNUM
         4 000246   000050 402007                    MPY     40,DL
         4 000247   000000 471400 xsym               LDP1    MSTR$
         4 000250   000100 100506                    MLR     fill='000'O
         4 000251   100000 000002                    ADSC9   0,Q,PR1                  cn=0,n=2
         4 000252   000001 000002                    ADSC9   1,,PR0                   cn=0,n=2

      884     2864    8                                   IF PA_REC.NOT_LOWEST_LEVEL THEN

   2864  4 000253   000000 473400 xsym               LDP3    REC$
         4 000254   000000 066500                    CMPB    filb='1'B
         4 000255   300001 000001                    BDSC    1,,PR3                   by=0,bit=0,n=1
         4 000256   000002 000022 5                  BDSC    2                        by=0,bit=0,n=18
         4 000257   000272 600000 4                  TZE     s:2866

      885     2865    8                                       PTREC.SETTYPE = PTREC.SETTYPE - 5000;

   2865  4 000260   000100 100500                    MLR     fill='000'O
         4 000261   000001 000002                    ADSC9   1,,PR0                   cn=0,n=2
         4 000262   200015 000004                    ADSC9   @PTR$+3,,AUTO            cn=0,n=4
         4 000263   200015 236100                    LDQ     @PTR$+3,,AUTO
         4 000264   000022 732000                    QRS     18
         4 000265   011610 136007                    SBLQ    5000,DL
         4 000266   200014 756100                    STQ     @PTR$+2,,AUTO
         4 000267   000100 101500                    MRL     fill='000'O
         4 000270   200014 000004                    ADSC9   @PTR$+2,,AUTO            cn=0,n=4
         4 000271   000001 000002                    ADSC9   1,,PR0                   cn=0,n=2
PL6.E3A0      #003=ZIU$GENRCD File=ZIU$VALSET.:ZIC0TSI                           FRI 09/05/97 13:33 Page:153

      886     2866    8                                   ENTRY$ = PINCRC(REC$,MSTR_REF.PAOFF(MSTR_INDX));

   2866  4 000272   000000 236000 xsym               LDQ     MSTR_INDX
         4 000273   000012 402007                    MPY     10,DL
         4 000274   100011 236106                    LDQ     9,QL,PR1
         4 000275   000033 772000                    QRL     27
         4 000276   000020 736000                    QLS     16
         4 000277   000000 036000 xsym               ADLQ    REC$
         4 000300   000000 756000 xsym               STQ     ENTRY$

      887     2867         /*  In processing the PA entry ptrs, I multiply the */
      888     2868         /*  record type by -1. This is to indicate latter */
      889     2869         /*  that these pointers refer to pa entries and that*/
      890     2870         /* the entry nmbr is stored in the ownr ptr position */
      891     2871    9                                   DO ENTRYNO = 1 TO NO_ENTRIES;

   2871  4 000301   000001 235007                    LDA     1,DL
         4 000302   000005 755000 0                  STA     ENTRYNO
         4 000303   000553 710000 4                  TRA     s:2913+1

      892     2872    9                                       PTREC.PA.ENTRY# = ENTRYNO;

   2872  4 000304   200003 470500                    LDP0    @PTREC,,AUTO
         4 000305   000100 101400                    MRL     fill='000'O
         4 000306   000005 000004 0                  ADSC9   ENTRYNO                  cn=0,n=4
         4 000307   000003 000002                    ADSC9   3,,PR0                   cn=0,n=2

      893     2873    9                                       PTREC.PA.GROUP# = 0;

   2873  4 000310   000100 101400                    MRL     fill='000'O
         4 000311   000002 000004 5                  ADSC9   2                        cn=0,n=4
         4 000312   000003 400002                    ADSC9   3,,PR0                   cn=2,n=2

      894     2874    9                                       IF PA_ENTRY.C = 1 THEN

   2874  4 000313   000000 471400 xsym               LDP1    ENTRY$
PL6.E3A0      #003=ZIU$GENRCD File=ZIU$VALSET.:ZIC0TSI                           FRI 09/05/97 13:33 Page:154
         4 000314   003100 061500                    CSR     bolr='003'O
         4 000315   100000 000001                    BDSC    0,,PR1                   by=0,bit=0,n=1
         4 000316   200014 000044                    BDSC    @PTR$+2,,AUTO            by=0,bit=0,n=36
         4 000317   200014 236100                    LDQ     @PTR$+2,,AUTO
         4 000320   000001 116007                    CMPQ    1,DL
         4 000321   000461 601000 4                  TNZ     s:2900

      895     2875   10                                       DO;

      896     2876   10                                           ENTRY$ = PINCRC(ENTRY$,2);

   2876  4 000322   000000 236000 xsym               LDQ     ENTRY$
         4 000323   400000 036007                    ADLQ    -131072,DL
         4 000324   000000 756000 xsym               STQ     ENTRY$

      897     2877   10                                           CALL GETPTR(SETVAL,ENTRY$);

   2877  4 000325   000014 236000 5                  LDQ     12
         4 000326   200012 756100                    STQ     @VAL+1,,AUTO
         4 000327   000015 236000 5                  LDQ     13
         4 000330   200011 756100                    STQ     @PTSIZE+5,,AUTO
         4 000331   001025 701000 4                  TSX1    GETPTR
         4 000332   000000 011000                    NOP     0

      898     2878   10                                           IF MSTR_REF.GLOBAL(SETNUM) ~= 1 THEN

   2878  4 000333   000011 236000 0                  LDQ     SETNUM
         4 000334   000012 402007                    MPY     10,DL
         4 000335   000000 470400 xsym               LDP0    MSTR$
         4 000336   000011 236106                    LDQ     9,QL,PR0
         4 000337   777000 376003                    ANQ     -512,DU
         4 000340   001000 116003                    CMPQ    512,DU
         4 000341   000346 600000 4                  TZE     s:2881

      899     2879   10                                               SETVAL = SETVAL - LOW_DBK +1;

   2879  4 000342   000012 236000 0                  LDQ     SETVAL
PL6.E3A0      #003=ZIU$GENRCD File=ZIU$VALSET.:ZIC0TSI                           FRI 09/05/97 13:33 Page:155
         4 000343   000000 136000 xsym               SBLQ    LOW_DBK
         4 000344   000001 036007                    ADLQ    1,DL
         4 000345   000012 756000 0                  STQ     SETVAL

      900     2880         /* Was not a real rec ptr so dont unexpand value */
      901     2881   10                                           GROUP$ = PINCRC(REC$,SETVAL);

   2881  4 000346   000012 236000 0                  LDQ     SETVAL
         4 000347   000020 736000                    QLS     16
         4 000350   000000 036000 xsym               ADLQ    REC$
         4 000351   000000 756000 xsym               STQ     GROUP$

      902     2882   10                                           NO_PTRS = PA_GROUP.NO_GROUPS;

   2882  4 000352   000000 471400 xsym               LDP1    GROUP$
         4 000353   000000 101500                    MRL     fill='000'O
         4 000354   100000 000002                    ADSC9   0,,PR1                   cn=0,n=2
         4 000355   000007 000004 0                  ADSC9   NO_PTRS                  cn=0,n=4

      903     2883   10                                           GROUP$ = PINCRW(GROUP$,1);

   2883  4 000356   000001 036003                    ADLQ    1,DU
         4 000357   000000 756000 xsym               STQ     GROUP$

      904     2884   11                                           DO X = 1 TO NO_PTRS;

   2884  4 000360   000001 235007                    LDA     1,DL
         4 000361   000000 755000 xsym               STA     X
         4 000362   000455 710000 4                  TRA     s:2897+1

      905     2885   11                                               CALL GETPTR(SETVAL,GROUP$);

   2885  4 000363   000016 236000 5                  LDQ     14
         4 000364   200012 756100                    STQ     @VAL+1,,AUTO
         4 000365   000015 236000 5                  LDQ     13
         4 000366   200011 756100                    STQ     @PTSIZE+5,,AUTO
         4 000367   001025 701000 4                  TSX1    GETPTR
PL6.E3A0      #003=ZIU$GENRCD File=ZIU$VALSET.:ZIC0TSI                           FRI 09/05/97 13:33 Page:156
         4 000370   000000 011000                    NOP     0

      906     2886   11                                               PTREC.PA.GROUP# = X;

   2886  4 000371   200003 470500                    LDP0    @PTREC,,AUTO
         4 000372   000100 101400                    MRL     fill='000'O
         4 000373   000000 000004 xsym               ADSC9   X                        cn=0,n=4
         4 000374   000003 400002                    ADSC9   3,,PR0                   cn=2,n=2

      907     2887   11                                               PTREC.NEXT = SETVAL;

   2887  4 000375   000100 100400                    MLR     fill='000'O
         4 000376   000012 000004 0                  ADSC9   SETVAL                   cn=0,n=4
         4 000377   000000 000004                    ADSC9   0,,PR0                   cn=0,n=4

      908     2888   11                                               RETURNCODE = %PACODE1;

   2888  4 000400   000001 235007                    LDA     1,DL
         4 000401   000010 755000 0                  STA     RETURNCODE

      909     2889   11                                               RETURN; /* Return PT to sort */

   2889  4 000402   000000 702200 xent               TSX2  ! X66_ARET

   2888  4 000403                       PA_RTN1      null
      910     2890   11   PA_RTN1:                                    ; PTREC.PA.ENTRY# = ENTRYNO;

   2890  4 000403   200003 470500                    LDP0    @PTREC,,AUTO
         4 000404   000100 101400                    MRL     fill='000'O
         4 000405   000005 000004 0                  ADSC9   ENTRYNO                  cn=0,n=4
         4 000406   000003 000002                    ADSC9   3,,PR0                   cn=0,n=2

      911     2891   11                                               PTREC.SETTYPE = MSTR_REF.TYPE(SETNUM);

   2891  4 000407   000011 236000 0                  LDQ     SETNUM
         4 000410   000050 402007                    MPY     40,DL
         4 000411   000000 471400 xsym               LDP1    MSTR$
PL6.E3A0      #003=ZIU$GENRCD File=ZIU$VALSET.:ZIC0TSI                           FRI 09/05/97 13:33 Page:157
         4 000412   000100 100506                    MLR     fill='000'O
         4 000413   100000 000002                    ADSC9   0,Q,PR1                  cn=0,n=2
         4 000414   000001 000002                    ADSC9   1,,PR0                   cn=0,n=2

      912     2892   11                                               IF PA_REC.NOT_LOWEST_LEVEL THEN

   2892  4 000415   000000 473400 xsym               LDP3    REC$
         4 000416   000000 066500                    CMPB    filb='1'B
         4 000417   300001 000001                    BDSC    1,,PR3                   by=0,bit=0,n=1
         4 000420   000002 000022 5                  BDSC    2                        by=0,bit=0,n=18
         4 000421   000434 600000 4                  TZE     s:2894

      913     2893   11                                                  PTREC.SETTYPE = PTREC.SETTYPE - 5000
              2893                                                            ;

   2893  4 000422   000100 100500                    MLR     fill='000'O
         4 000423   000001 000002                    ADSC9   1,,PR0                   cn=0,n=2
         4 000424   200015 000004                    ADSC9   @PTR$+3,,AUTO            cn=0,n=4
         4 000425   200015 236100                    LDQ     @PTR$+3,,AUTO
         4 000426   000022 732000                    QRS     18
         4 000427   011610 136007                    SBLQ    5000,DL
         4 000430   200014 756100                    STQ     @PTR$+2,,AUTO
         4 000431   000100 101500                    MRL     fill='000'O
         4 000432   200014 000004                    ADSC9   @PTR$+2,,AUTO            cn=0,n=4
         4 000433   000001 000002                    ADSC9   1,,PR0                   cn=0,n=2

      914     2894   11                                               PTREC.RECTYPE = REC.TYPE * -1;

   2894  4 000434   000016 236000 0                  LDQ     REC
         4 000435   000022 772000                    QRL     18
         4 000436   000013 676000 5                  ERQ     11
         4 000437   000001 036007                    ADLQ    1,DL
         4 000440   200014 756100                    STQ     @PTR$+2,,AUTO
         4 000441   000100 101500                    MRL     fill='000'O
         4 000442   200014 000004                    ADSC9   @PTR$+2,,AUTO            cn=0,n=4
         4 000443   000001 400002                    ADSC9   1,,PR0                   cn=2,n=2

PL6.E3A0      #003=ZIU$GENRCD File=ZIU$VALSET.:ZIC0TSI                           FRI 09/05/97 13:33 Page:158
      915     2895   11                                               PTREC.DBK = CURR_DBK;

   2895  4 000444   000100 100400                    MLR     fill='000'O
         4 000445   000002 000004 0                  ADSC9   CURR_DBK                 cn=0,n=4
         4 000446   000002 000004                    ADSC9   2,,PR0                   cn=0,n=4

      916     2896   11                                               GROUP$ = PINCRC(GROUP$,2+PTR_LEN);

   2896  4 000447   000000 236000 xsym               LDQ     PTR_LEN
         4 000450   000020 736000                    QLS     16
         4 000451   400000 036007                    ADLQ    -131072,DL
         4 000452   000000 036000 xsym               ADLQ    GROUP$
         4 000453   000000 756000 xsym               STQ     GROUP$

      917     2897   11                                               END;

   2897  4 000454   000000 054000 xsym               AOS     X
         4 000455   000000 236000 xsym               LDQ     X
         4 000456   000007 116000 0                  CMPQ    NO_PTRS
         4 000457   000363 604400 4                  TMOZ    s:2885

      918     2898   10                                           END;

   2898  4 000460   000545 710000 4                  TRA     s:2912

      919     2899   10                                       ELSE DO;

      920     2900   10                                           ENTRY$ = PINCRC(ENTRY$,2);

   2900  4 000461   000000 236000 xsym               LDQ     ENTRY$
         4 000462   400000 036007                    ADLQ    -131072,DL
         4 000463   000000 756000 xsym               STQ     ENTRY$

      921     2901   10                                           CALL GETPTR(SETVAL,ENTRY$);

   2901  4 000464   000014 236000 5                  LDQ     12
         4 000465   200012 756100                    STQ     @VAL+1,,AUTO
PL6.E3A0      #003=ZIU$GENRCD File=ZIU$VALSET.:ZIC0TSI                           FRI 09/05/97 13:33 Page:159
         4 000466   000015 236000 5                  LDQ     13
         4 000467   200011 756100                    STQ     @PTSIZE+5,,AUTO
         4 000470   001025 701000 4                  TSX1    GETPTR
         4 000471   000000 011000                    NOP     0

      922     2902   10                                           PTREC.NEXT = SETVAL;

   2902  4 000472   200003 470500                    LDP0    @PTREC,,AUTO
         4 000473   000100 100400                    MLR     fill='000'O
         4 000474   000012 000004 0                  ADSC9   SETVAL                   cn=0,n=4
         4 000475   000000 000004                    ADSC9   0,,PR0                   cn=0,n=4

      923     2903   10                                           RETURNCODE = %PACODE2;

   2903  4 000476   000002 235007                    LDA     2,DL
         4 000477   000010 755000 0                  STA     RETURNCODE

      924     2904   10                                           RETURN; /* Return PT to sort */

   2904  4 000500   000000 702200 xent               TSX2  ! X66_ARET

   2903  4 000501                       PA_RTN2      null
      925     2905   10   PA_RTN2:                                ; PTREC.PA.ENTRY# = ENTRYNO;

   2905  4 000501   200003 470500                    LDP0    @PTREC,,AUTO
         4 000502   000100 101400                    MRL     fill='000'O
         4 000503   000005 000004 0                  ADSC9   ENTRYNO                  cn=0,n=4
         4 000504   000003 000002                    ADSC9   3,,PR0                   cn=0,n=2

      926     2906   10                                           PTREC.SETTYPE = MSTR_REF.TYPE(SETNUM);

   2906  4 000505   000011 236000 0                  LDQ     SETNUM
         4 000506   000050 402007                    MPY     40,DL
         4 000507   000000 471400 xsym               LDP1    MSTR$
         4 000510   000100 100506                    MLR     fill='000'O
         4 000511   100000 000002                    ADSC9   0,Q,PR1                  cn=0,n=2
         4 000512   000001 000002                    ADSC9   1,,PR0                   cn=0,n=2
PL6.E3A0      #003=ZIU$GENRCD File=ZIU$VALSET.:ZIC0TSI                           FRI 09/05/97 13:33 Page:160

      927     2907   10                                           IF PA_REC.NOT_LOWEST_LEVEL THEN

   2907  4 000513   000000 473400 xsym               LDP3    REC$
         4 000514   000000 066500                    CMPB    filb='1'B
         4 000515   300001 000001                    BDSC    1,,PR3                   by=0,bit=0,n=1
         4 000516   000002 000022 5                  BDSC    2                        by=0,bit=0,n=18
         4 000517   000532 600000 4                  TZE     s:2909

      928     2908   10                                               PTREC.SETTYPE = PTREC.SETTYPE - 5000;

   2908  4 000520   000100 100500                    MLR     fill='000'O
         4 000521   000001 000002                    ADSC9   1,,PR0                   cn=0,n=2
         4 000522   200015 000004                    ADSC9   @PTR$+3,,AUTO            cn=0,n=4
         4 000523   200015 236100                    LDQ     @PTR$+3,,AUTO
         4 000524   000022 732000                    QRS     18
         4 000525   011610 136007                    SBLQ    5000,DL
         4 000526   200014 756100                    STQ     @PTR$+2,,AUTO
         4 000527   000100 101500                    MRL     fill='000'O
         4 000530   200014 000004                    ADSC9   @PTR$+2,,AUTO            cn=0,n=4
         4 000531   000001 000002                    ADSC9   1,,PR0                   cn=0,n=2

      929     2909   10                                           PTREC.RECTYPE = REC.TYPE * -1;

   2909  4 000532   000016 236000 0                  LDQ     REC
         4 000533   000022 772000                    QRL     18
         4 000534   000013 676000 5                  ERQ     11
         4 000535   000001 036007                    ADLQ    1,DL
         4 000536   200014 756100                    STQ     @PTR$+2,,AUTO
         4 000537   000100 101500                    MRL     fill='000'O
         4 000540   200014 000004                    ADSC9   @PTR$+2,,AUTO            cn=0,n=4
         4 000541   000001 400002                    ADSC9   1,,PR0                   cn=2,n=2

      930     2910   10                                           PTREC.DBK = CURR_DBK;

   2910  4 000542   000100 100400                    MLR     fill='000'O
         4 000543   000002 000004 0                  ADSC9   CURR_DBK                 cn=0,n=4
PL6.E3A0      #003=ZIU$GENRCD File=ZIU$VALSET.:ZIC0TSI                           FRI 09/05/97 13:33 Page:161
         4 000544   000002 000004                    ADSC9   2,,PR0                   cn=0,n=4

      931     2911   10                                           END;

      932     2912    9                                       ENTRY$ = PINCRC(ENTRY$,KEY_LEN + PTR_LEN);

   2912  4 000545   000000 236000 xsym               LDQ     KEY_LEN
         4 000546   000000 036000 xsym               ADLQ    PTR_LEN
         4 000547   000020 736000                    QLS     16
         4 000550   000000 036000 xsym               ADLQ    ENTRY$
         4 000551   000000 756000 xsym               STQ     ENTRY$

      933     2913    9                                       END;

   2913  4 000552   000005 054000 0                  AOS     ENTRYNO
         4 000553   000005 236000 0                  LDQ     ENTRYNO
         4 000554   000006 116000 0                  CMPQ    NO_ENTRIES
         4 000555   000304 604400 4                  TMOZ    s:2872

      934     2914    8                                   RETURNCODE = %STANDRD;

   2914  4 000556   000010 450000 0                  STZ     RETURNCODE

      935     2915    8                                   END;

      936     2916    7                               SETINDX = SETINDX + 1;

   2916  4 000557   000000 054000 xsym               AOS     SETINDX

      937     2917    7                               END;

   2917  4 000560   000000 235000 xsym               LDA     SETINDX
         4 000561   000001 735000                    ALS     1
         4 000562   000100 100405                    MLR     fill='000'O
         4 000563   000000 000002 xsym               ADSC9   SETLIST,A                cn=0,n=2
         4 000564   200014 000004                    ADSC9   @PTR$+2,,AUTO            cn=0,n=4
         4 000565   200014 236100                    LDQ     @PTR$+2,,AUTO
PL6.E3A0      #003=ZIU$GENRCD File=ZIU$VALSET.:ZIC0TSI                           FRI 09/05/97 13:33 Page:162
         4 000566   000022 732000                    QRS     18
         4 000567   000013 116000 5                  CMPQ    11
         4 000570   000206 601000 4                  TNZ     s:2854

      938     2918    6   NO_RECORD:              END;

   2918  4 000571                       NO_RECORD    null
      939     2919    5                       END;

   2919  4 000571   000001 054000 0                  AOS     LINE_NO
         4 000572   000001 236000 0                  LDQ     LINE_NO
         4 000573   000004 116000 0                  CMPQ    HIGH_LINE
         4 000574   000126 604400 4                  TMOZ    s:2833

      940     2920    4                   I_O_INDX = I_O_INDX + 1;

   2920  4 000575   000000 054000 0                  AOS     I_O_INDX

      941     2921    4                   END;

   2921  4 000576   000000 235000 xsym               LDA     RB
         4 000577   000001 035007                    ADLA    1,DL
         4 000600   000000 755000 xsym               STA     RB
         4 000601   000000 236000 xsym               LDQ     RE
         4 000602   000000 116000 xsym               CMPQ    RB
         4 000603   000114 603000 4                  TRC     s:2828

      942     2922    3               CALL PAGE_RANGE(RB,RE,#BUFS,I_O_SIZE,HIGH_DATA_PG,LAST_PAGE);

   2922  4 000604   000005 630400 5                  EPPR0   5
         4 000605   000003 631400 5                  EPPR1   3
         4 000606   000000 701000 xent               TSX1    PAGE_RANGE
         4 000607   000000 011000                    NOP     0

      943     2923    3               END;

   2923  4 000610   000022 236000 0                  LDQ     LAST_PAGE
PL6.E3A0      #003=ZIU$GENRCD File=ZIU$VALSET.:ZIC0TSI                           FRI 09/05/97 13:33 Page:163
         4 000611   400000 376003                    ANQ     -131072,DU
         4 000612   400000 676003                    ERQ     -131072,DU
         4 000613   000100 601000 4                  TNZ     s:2823

      944     2924
      945     2925    2   CLOSE_FILE:
      946     2926    2           DCBSF = ZI$DIR.AREA_NM.DCB#;

   2926  4 000614   000244 220000 xsym  CLOSE_FILE   LDX0    ZI$DIR+164
         4 000615   000000 740000 xsym               STX0    DCBSF

      947     2927    2           CALL SYS_FUNC_CLOS;

   2927  4 000616   000002 631400 5                  EPPR1   2
         4 000617   000000 701000 xent               TSX1    SYS_FUNC_CLOS
         4 000620   000000 011000                    NOP     0

      948     2928    2           CALL SYS_FUNC_RELDCB;

   2928  4 000621   000002 631400 5                  EPPR1   2
         4 000622   000000 701000 xent               TSX1    SYS_FUNC_RELDCB
         4 000623   000000 011000                    NOP     0

      949     2929    2   NEXT_AREA:
      950     2930    2           END;

   2930  4 000624   000000 054000 xsym  NEXT_AREA    AOS     AREANO
         4 000625   000000 236000 xsym               LDQ     AREANO
         4 000626   000000 116000 xsym               CMPQ    NO_AREAS
         4 000627   000021 604000 4                  TMI     s:2805

      951     2931
      952     2932    1       CALL FLUSH_EG ALTRET(ALT_GEN); /* Write remaining EG recs */

   2932  4 000630   002141 701000 4                  TSX1    FLUSH_EG
         4 000631   002177 702000 4                  TSX2    ALT_GEN

PL6.E3A0      #003=ZIU$GENRCD File=ZIU$VALSET.:ZIC0TSI                           FRI 09/05/97 13:33 Page:164
      953     2933    1       ALTRETURN; /* Indicate to sort completion */

   2933  4 000632   000000 702200 xent               TSX2  ! X66_AALT

      954     2934
      955     2935        %EJECT;
PL6.E3A0      #003=ZIU$GENRCD File=ZIU$VALSET.:ZIC0TSI                           FRI 09/05/97 13:33 Page:165
      956     2936        /*
      957     2937                    Data base I/O routines. (OPEN/READ ATBLK/READ #BUFS)
      958     2938        */
      959     2939    1   OPEN_AREA: PROC ALTRET;

   2939  4 000633   200006 741300       OPEN_AREA    STX1  ! @PTSIZE+2,,AUTO

      960     2940    2       CALL GET_DCB(ZI$DIR.AREA_NM) ALTRET(ALTRTN);

   2940  4 000634   000020 630400 5                  EPPR0   16
         4 000635   000017 631400 5                  EPPR1   15
         4 000636   000000 701000 xent               TSX1    GET_DCB
         4 000637   000662 702000 4                  TSX2    ALTRTN

      961     2941
      962     2942    2   /**/ FIDSF = ZI$DIR.AREA_NM.NAME.TEXT;

   2942  4 000640   040000 100400                    MLR     fill='040'O
         4 000641   000234 200036 xsym               ADSC9   ZI$DIR+156               cn=1,n=30
         4 000642   000000 000036 xsym               ADSC9   FIDSF_RD                 cn=0,n=30

      963     2943    2       FUNSF = %IN#;

   2943  4 000643   000002 235007                    LDA     2,DL
         4 000644   000000 755000 xsym               STA     FUNSF

      964     2944    2       SHARESF = %IN#;

   2944  4 000645   400000 236003                    LDQ     -131072,DU
         4 000646   000000 756000 xsym               STQ     SHARESF

      965     2945    2       ORGSF = %IDS#;

   2945  4 000647   000007 235007                    LDA     7,DL
         4 000650   000000 755000 xsym               STA     ORGSF

      966     2946    2       ACSSF = %DIRECT#;
PL6.E3A0      #003=ZIU$GENRCD File=ZIU$VALSET.:ZIC0TSI                           FRI 09/05/97 13:33 Page:166

   2946  4 000651   000002 235007                    LDA     2,DL
         4 000652   000000 755000 xsym               STA     ACSSF

      967     2947    2       ASNSF = %FILE#;

   2947  4 000653   000001 235007                    LDA     1,DL
         4 000654   000000 755000 xsym               STA     ASNSF

      968     2948    2       CALL SYS_FUNC_OPEN ALTRET(ALTRTN);

   2948  4 000655   000002 631400 5                  EPPR1   2
         4 000656   000000 701000 xent               TSX1    SYS_FUNC_OPEN
         4 000657   000662 702000 4                  TSX2    ALTRTN

      969     2949    2       RETURN;

   2949  4 000660   200006 221300                    LDX1  ! @PTSIZE+2,,AUTO
         4 000661   000001 702211                    TSX2  ! 1,X1

      970     2950    2   ALTRTN:
      971     2951    2       ALTRETURN;

   2951  4 000662   200006 221300       ALTRTN       LDX1  ! @PTSIZE+2,,AUTO
         4 000663   000000 702211                    TSX2  ! 0,X1

      972     2952    2   END OPEN_AREA;
      973     2953
      974     2954    1   READ_DB: PROC ALTRET;

   2954  4 000664   200006 741300       READ_DB      STX1  ! @PTSIZE+2,,AUTO

      975     2955
      976     2956    2   /**/ DCBSF = ZI$DIR.AREA_NM.DCB#;

   2956  4 000665   000244 220000 xsym               LDX0    ZI$DIR+164
         4 000666   000000 740000 xsym               STX0    DCBSF
PL6.E3A0      #003=ZIU$GENRCD File=ZIU$VALSET.:ZIC0TSI                           FRI 09/05/97 13:33 Page:167

      977     2957    2   /**/ BUFSF = VECTOR(I_O_BUF(0));

   2957  4 000667   000021 235000 5                  LDA     17
         4 000670   000000 236000 xsym               LDQ     I_O_BUF$
         4 000671   000000 755000 xsym               STA     BUFSF
         4 000672   000001 756000 xsym               STQ     BUFSF+1

      978     2958    2   /**/ BUFLNSF = I_O_SIZE * 4096;

   2958  4 000673   000000 235000 xsym               LDA     I_O_SIZE
         4 000674   000014 735000                    ALS     12
         4 000675   000000 755000 xsym               STA     BUFLNSF

      979     2959    2   /**/ FULLSF = %YES#;

   2959  4 000676   400000 236003                    LDQ     -131072,DU
         4 000677   000000 756000 xsym               STQ     FULLSF

      980     2960    2   /**/ ENCRP_SEEDSF = ZI$DIR.ENCP_SEED;

   2960  4 000700   000027 236000 xsym               LDQ     ZI$DIR+23
         4 000701   000000 756000 xsym               STQ     ENCRP_SEEDSF

      981     2961    2   /**/ KEYSF = %YES#;

   2961  4 000702   400000 236003                    LDQ     -131072,DU
         4 000703   000000 756000 xsym               STQ     KEYSF

      982     2962    2   /**/ KEYVSF.IDSKEY = RB;

   2962  4 000704   000000 100400                    MLR     fill='000'O
         4 000705   000000 000004 xsym               ADSC9   RB                       cn=0,n=4
         4 000706   000000 200004 xsym               ADSC9   KEYVSF                   cn=1,n=4

      983     2963    2       CALL SYS_FUNC_READ ALTRET(ALTRTN);

PL6.E3A0      #003=ZIU$GENRCD File=ZIU$VALSET.:ZIC0TSI                           FRI 09/05/97 13:33 Page:168
   2963  4 000707   000002 631400 5                  EPPR1   2
         4 000710   000000 701000 xent               TSX1    SYS_FUNC_READ
         4 000711   000714 702000 4                  TSX2    ALTRTN

      984     2964    2       RETURN;

   2964  4 000712   200006 221300                    LDX1  ! @PTSIZE+2,,AUTO
         4 000713   000001 702211                    TSX2  ! 1,X1

      985     2965    2   ALTRTN:
      986     2966    2       ALTRETURN;

   2966  4 000714   200006 221300       ALTRTN       LDX1  ! @PTSIZE+2,,AUTO
         4 000715   000000 702211                    TSX2  ! 0,X1

      987     2967
      988     2968    2   END READ_DB;
      989     2969
      990     2970        %EJECT;
PL6.E3A0      #003=ZIU$GENRCD File=ZIU$VALSET.:ZIC0TSI                           FRI 09/05/97 13:33 Page:169
      991     2971    1   GET_ATBLK: PROC ALTRET;

   2971  4 000716   200006 741300       GET_ATBLK    STX1  ! @PTSIZE+2,,AUTO

      992     2972        /*
      993     2973           Evaluate high data page and number of inventory pages according
      994     2974           to attribute block information.
      995     2975        */
      996     2976
      997     2977    2   /**/ DCBSF = ZI$DIR.AREA_NM.DCB#;

   2977  4 000717   000244 220000 xsym               LDX0    ZI$DIR+164
         4 000720   000000 740000 xsym               STX0    DCBSF

      998     2978    2   /**/ BUFSF = VECTOR(I_O_BUF(0));

   2978  4 000721   000021 235000 5                  LDA     17
         4 000722   000000 236000 xsym               LDQ     I_O_BUF$
         4 000723   000000 755000 xsym               STA     BUFSF
         4 000724   000001 756000 xsym               STQ     BUFSF+1

      999     2979    2   /**/ BUFLNSF = 4096;

   2979  4 000725   010000 235007                    LDA     4096,DL
         4 000726   000000 755000 xsym               STA     BUFLNSF

     1000     2980    2   /**/ FULLSF = %YES#;

   2980  4 000727   400000 236003                    LDQ     -131072,DU
         4 000730   000000 756000 xsym               STQ     FULLSF

     1001     2981    2   /**/ ENCRP_SEEDSF = ZI$DIR.ENCP_SEED;

   2981  4 000731   000027 236000 xsym               LDQ     ZI$DIR+23
         4 000732   000000 756000 xsym               STQ     ENCRP_SEEDSF

     1002     2982    2   /**/ KEYSF = %YES#;
PL6.E3A0      #003=ZIU$GENRCD File=ZIU$VALSET.:ZIC0TSI                           FRI 09/05/97 13:33 Page:170

   2982  4 000733   400000 236003                    LDQ     -131072,DU
         4 000734   000000 756000 xsym               STQ     KEYSF

     1003     2983    2   /**/ KEYVSF.IDSKEY = 0;

   2983  4 000735   000000 100400                    MLR     fill='000'O
         4 000736   000002 000004 5                  ADSC9   2                        cn=0,n=4
         4 000737   000000 200004 xsym               ADSC9   KEYVSF                   cn=1,n=4

     1004     2984    2       CALL SYS_FUNC_READ ALTRET(ALT_ATBLK);

   2984  4 000740   000002 631400 5                  EPPR1   2
         4 000741   000000 701000 xent               TSX1    SYS_FUNC_READ
         4 000742   000771 702000 4                  TSX2    ALT_ATBLK

     1005     2985    2       ATBLK$ = ADDR(I_O_BUF(0));

   2985  4 000743   000000 236000 xsym               LDQ     I_O_BUF$
         4 000744   000000 756000 xsym               STQ     ATBLK$

     1006     2986    2       IF ATBLK_PG.FIR_INV_PGNO = 0 THEN

   2986  4 000745   000000 470400 xsym               LDP0    ATBLK$
         4 000746   000014 235100                    LDA     12,,PR0
         4 000747   000753 601000 4                  TNZ     s:2991

     1007     2987    3       DO;

     1008     2988    3           HIGH_DATA_PG = ATBLK_PG.NUM_DBPG;

   2988  4 000750   000005 235100                    LDA     5,,PR0
         4 000751   000000 755000 xsym               STA     HIGH_DATA_PG

     1009     2989    3           END;

   2989  4 000752   000762 710000 4                  TRA     s:2994
PL6.E3A0      #003=ZIU$GENRCD File=ZIU$VALSET.:ZIC0TSI                           FRI 09/05/97 13:33 Page:171

     1010     2990    3       ELSE DO;

     1011     2991    3           HIGH_DATA_PG = ATBLK_PG.NUM_DBPG - ((ATBLK_PG.NUM_DBPG -

   2991  4 000753   000005 236100                    LDQ     5,,PR0
         4 000754   000014 136100                    SBLQ    12,,PR0
         4 000755   200014 756100                    STQ     @PTR$+2,,AUTO
         4 000756   000005 236100                    LDQ     5,,PR0
         4 000757   200014 136100                    SBLQ    @PTR$+2,,AUTO
         4 000760   000001 136007                    SBLQ    1,DL
         4 000761   000000 756000 xsym               STQ     HIGH_DATA_PG

     1012     2992    3              ATBLK_PG.FIR_INV_PGNO)+1);
     1013     2993    3           END;

     1014     2994    2       LOW_DBK = ATBLK_PG.LOW_DBK;

   2994  4 000762   000015 235100                    LDA     13,,PR0
         4 000763   000000 755000 xsym               STA     LOW_DBK

     1015     2995    2       LPP = ATBLK_PG.LINE_INFO.LPP;

   2995  4 000764   000012 236100                    LDQ     10,,PR0
         4 000765   777777 376007                    ANQ     -1,DL
         4 000766   000000 756000 xsym               STQ     LPP

     1016     2996    2       RETURN;

   2996  4 000767   200006 221300                    LDX1  ! @PTSIZE+2,,AUTO
         4 000770   000001 702211                    TSX2  ! 1,X1

     1017     2997        /**/
     1018     2998    2   ALT_ATBLK:
     1019     2999    2       ALTRETURN;

   2999  4 000771   200006 221300       ALT_ATBLK    LDX1  ! @PTSIZE+2,,AUTO
PL6.E3A0      #003=ZIU$GENRCD File=ZIU$VALSET.:ZIC0TSI                           FRI 09/05/97 13:33 Page:172
         4 000772   000000 702211                    TSX2  ! 0,X1

     1020     3000    2   END GET_ATBLK;
     1021     3001        %EJECT;
PL6.E3A0      #003=ZIU$GENRCD File=ZIU$VALSET.:ZIC0TSI                           FRI 09/05/97 13:33 Page:173
     1022     3002        /*
     1023     3003           This routine looks at the record type pointed to by rec$ and
     1024     3004           searches RECLIST for that record entry. If found - RECINDX is
     1025     3005           set and normal return is taken. If no entry is found the altretun
     1026     3006           is taken.
     1027     3007        */
     1028     3008    1   FIND_REC_ENTRY: PROC ALTRET;

   3008  4 000773   200006 741300       FIND_REC_EN* STX1  ! @PTSIZE+2,,AUTO

     1029     3009
     1030     3010    3       DO RECINDX = 0 TO HIGH_RECINDX;

   3010  4 000774   000000 450000 xsym               STZ     RECINDX
         4 000775   001020 710000 4                  TRA     s:3016+1

     1031     3011    3           IF MSTR_REF.TYPE(RECLIST.MSTRINDX(RECINDX)) = REC.TYPE THEN

   3011  4 000776   000000 720000 xsym               LXL0    RECINDX
         4 000777   000000 236010 xsym               LDQ     RECLIST,X0
         4 001000   000022 732000                    QRS     18
         4 001001   000012 402007                    MPY     10,DL
         4 001002   000016 235000 0                  LDA     REC
         4 001003   000022 771000                    ARL     18
         4 001004   200014 755100                    STA     @PTR$+2,,AUTO
         4 001005   000000 470400 xsym               LDP0    MSTR$
         4 001006   000000 236106                    LDQ     0,QL,PR0
         4 001007   000022 732000                    QRS     18
         4 001010   200014 116100                    CMPQ    @PTR$+2,,AUTO
         4 001011   001017 601000 4                  TNZ     s:3016

     1032     3012    4           DO;

     1033     3013    4               MSTR_INDX = RECLIST.MSTRINDX(RECINDX);

   3013  4 001012   000000 236010 xsym               LDQ     RECLIST,X0
         4 001013   000022 732000                    QRS     18
PL6.E3A0      #003=ZIU$GENRCD File=ZIU$VALSET.:ZIC0TSI                           FRI 09/05/97 13:33 Page:174
         4 001014   000000 756000 xsym               STQ     MSTR_INDX

     1034     3014    4               RETURN;

   3014  4 001015   200006 221300                    LDX1  ! @PTSIZE+2,,AUTO
         4 001016   000001 702211                    TSX2  ! 1,X1

     1035     3015    4               END;
     1036     3016    3           END;

   3016  4 001017   000000 054000 xsym               AOS     RECINDX
         4 001020   000000 236000 xsym               LDQ     RECINDX
         4 001021   000000 116000 xsym               CMPQ    HIGH_RECINDX
         4 001022   000776 604400 4                  TMOZ    s:3011

     1037     3017    2       ALTRETURN;

   3017  4 001023   200006 221300                    LDX1  ! @PTSIZE+2,,AUTO
         4 001024   000000 702211                    TSX2  ! 0,X1

     1038     3018    2   END FIND_REC_ENTRY;
     1039     3019        /*
     1040     3020              EXTRACT THE POINTER VALUE POINTED TO BY PTR$
     1041     3021        */
     1042     3022    1   GETPTR: PROC(VAL,PTR$);

   3022  4 001025   200010 741300       GETPTR       STX1  ! @PTSIZE+4,,AUTO

     1043     3023    2   DCL VAL UBIN;
     1044     3024    2   DCL PTR$ PTR;
     1045     3025
     1046     3026    3       DO CASE(PTR_LEN);

   3026  4 001026   000000 235000 xsym               LDA     PTR_LEN
         4 001027   000005 115007                    CMPA    5,DL
         4 001030   001032 602005 4                  TNC     s:3026+4,AL
         4 001031   001063 710000 4                  TRA     s:3034
PL6.E3A0      #003=ZIU$GENRCD File=ZIU$VALSET.:ZIC0TSI                           FRI 09/05/97 13:33 Page:175
         4 001032   001063 710000 4                  TRA     s:3034
         4 001033   001063 710000 4                  TRA     s:3034
         4 001034   001037 710000 4                  TRA     s:3028
         4 001035   001046 710000 4                  TRA     s:3030
         4 001036   001055 710000 4                  TRA     s:3032

     1047     3027    3       CASE(2);

     1048     3028    3           VAL = PTR$ -> SZ2;

   3028  4 001037   200012 470500                    LDP0    @PTR$,,AUTO
         4 001040   000000 471500                    LDP1    0,,PR0
         4 001041   200011 473500                    LDP3    @VAL,,AUTO
         4 001042   000100 101500                    MRL     fill='000'O
         4 001043   100000 000002                    ADSC9   0,,PR1                   cn=0,n=2
         4 001044   300000 000004                    ADSC9   0,,PR3                   cn=0,n=4
         4 001045   001063 710000 4                  TRA     s:3034

     1049     3029    3       CASE(3);

     1050     3030    3           VAL = PTR$ -> SZ3;

   3030  4 001046   200012 470500                    LDP0    @PTR$,,AUTO
         4 001047   000000 471500                    LDP1    0,,PR0
         4 001050   200011 473500                    LDP3    @VAL,,AUTO
         4 001051   000100 101500                    MRL     fill='000'O
         4 001052   100000 000003                    ADSC9   0,,PR1                   cn=0,n=3
         4 001053   300000 000004                    ADSC9   0,,PR3                   cn=0,n=4
         4 001054   001063 710000 4                  TRA     s:3034

     1051     3031    3       CASE(4);

     1052     3032    3           VAL = PTR$ -> SZ4;

   3032  4 001055   200012 470500                    LDP0    @PTR$,,AUTO
         4 001056   000000 471500                    LDP1    0,,PR0
         4 001057   200011 473500                    LDP3    @VAL,,AUTO
PL6.E3A0      #003=ZIU$GENRCD File=ZIU$VALSET.:ZIC0TSI                           FRI 09/05/97 13:33 Page:176
         4 001060   000100 100500                    MLR     fill='000'O
         4 001061   100000 000004                    ADSC9   0,,PR1                   cn=0,n=4
         4 001062   300000 000004                    ADSC9   0,,PR3                   cn=0,n=4

     1053     3033    3           END;

     1054     3034    2       IF MSTR_REF.GLOBAL(SETNUM)=0 AND VAL~= 0 THEN

   3034  4 001063   000011 236000 0                  LDQ     SETNUM
         4 001064   000012 402007                    MPY     10,DL
         4 001065   000000 470400 xsym               LDP0    MSTR$
         4 001066   000011 236106                    LDQ     9,QL,PR0
         4 001067   777000 316003                    CANQ    -512,DU
         4 001070   001100 601000 4                  TNZ     s:3037
         4 001071   200011 471500                    LDP1    @VAL,,AUTO
         4 001072   100000 235100                    LDA     0,,PR1
         4 001073   001100 600000 4                  TZE     s:3037

     1055     3035    2           VAL = VAL + LOW_DBK -1; /* PROCESS LOCAL POINTER */

   3035  4 001074   100000 236100                    LDQ     0,,PR1
         4 001075   000000 036000 xsym               ADLQ    LOW_DBK
         4 001076   000001 136007                    SBLQ    1,DL
         4 001077   100000 756100                    STQ     0,,PR1

     1056     3036
     1057     3037    2       RETURN;

   3037  4 001100   200010 221300                    LDX1  ! @PTSIZE+4,,AUTO
         4 001101   000001 702211                    TSX2  ! 1,X1

     1058     3038    2   END GETPTR;
     1059     3039        %EJECT;
PL6.E3A0      #003=ZIU$GENRCD File=ZIU$VALSET.:ZIC0TSI                           FRI 09/05/97 13:33 Page:177
     1060     3040        /*
     1061     3041          This procedure removes the pointers of the current set (SET_XREF(I))
     1062     3042          and puts the pointer values into the proper PT/EG records.
     1063     3043        */
     1064     3044    1   PULL_PTRS: PROC ALTRET;

   3044  4 001102   200006 741300       PULL_PTRS    STX1  ! @PTSIZE+2,,AUTO

     1065     3045
     1066     3046    2   DCL MSGBUF CHAR(120) STATIC ALIGNED;
     1067     3047    2   DCL MSGHDR CHAR(0) STATIC CALIGNED INIT('e+  Record ');
     1068     3048    2   DCL R1 SBIN STATIC ALIGNED;
     1069     3049    2   DCL D1 SBIN STATIC ALIGNED;
     1070     3050    2   DCL S1 SBIN STATIC ALIGNED;
     1071     3051    2   DCL R_V CHAR(R1) BASED CALIGNED;
     1072     3052    2   DCL D_V CHAR(D1) BASED CALIGNED;
     1073     3053    2   DCL S_V CHAR(S1) BASED CALIGNED;
     1074     3054    2   DCL CHAR10 CHAR(10) STATIC ALIGNED;
     1075     3055
     1076     3056    2       EISNXT = SET_XREF.EIS.NEXT(SETLIST(SETINDX));

   3056  4 001103   000000 235000 xsym               LDA     SETINDX
         4 001104   000001 735000                    ALS     1
         4 001105   000100 100405                    MLR     fill='000'O
         4 001106   000000 000002 xsym               ADSC9   SETLIST,A                cn=0,n=2
         4 001107   200014 000004                    ADSC9   @PTR$+2,,AUTO            cn=0,n=4
         4 001110   200014 236100                    LDQ     @PTR$+2,,AUTO
         4 001111   000022 732000                    QRS     18
         4 001112   000002 736000                    QLS     2
         4 001113   000000 470400 xsym               LDP0    SET_XREF$
         4 001114   000003 235106                    LDA     3,QL,PR0
         4 001115   000021 755000 0                  STA     EISNXT

     1077     3057    2       EISPR = SET_XREF.EIS.PRIOR(SETLIST(SETINDX));

   3057  4 001116   000000 236000 xsym               LDQ     SETINDX
         4 001117   000001 736000                    QLS     1
PL6.E3A0      #003=ZIU$GENRCD File=ZIU$VALSET.:ZIC0TSI                           FRI 09/05/97 13:33 Page:178
         4 001120   000100 100406                    MLR     fill='000'O
         4 001121   000000 000002 xsym               ADSC9   SETLIST,Q                cn=0,n=2
         4 001122   200014 000004                    ADSC9   @PTR$+2,,AUTO            cn=0,n=4
         4 001123   200014 236100                    LDQ     @PTR$+2,,AUTO
         4 001124   000022 732000                    QRS     18
         4 001125   000002 736000                    QLS     2
         4 001126   000001 235106                    LDA     1,QL,PR0
         4 001127   000020 755000 0                  STA     EISPR

     1078     3058    2       EISOWN = SET_XREF.EIS.OWNR(SETLIST(SETINDX));

   3058  4 001130   000000 236000 xsym               LDQ     SETINDX
         4 001131   000001 736000                    QLS     1
         4 001132   000100 100406                    MLR     fill='000'O
         4 001133   000000 000002 xsym               ADSC9   SETLIST,Q                cn=0,n=2
         4 001134   200014 000004                    ADSC9   @PTR$+2,,AUTO            cn=0,n=4
         4 001135   200014 236100                    LDQ     @PTR$+2,,AUTO
         4 001136   000022 732000                    QRS     18
         4 001137   000002 736000                    QLS     2
         4 001140   000002 235106                    LDA     2,QL,PR0
         4 001141   000017 755000 0                  STA     EISOWN

     1079     3059
     1080     3060    2       IF EISOWN ~= 0 THEN

   3060  4 001142   001151 600000 4                  TZE     s:3062

     1081     3061    2           SETOWN$ = PINCRC(REC$,OWNPT.BYT_OFF);

   3061  4 001143   000017 236000 0                  LDQ     EISOWN
         4 001144   000020 772000                    QRL     16
         4 001145   377777 376007                    ANQ     131071,DL
         4 001146   000020 736000                    QLS     16
         4 001147   000000 036000 xsym               ADLQ    REC$
         4 001150   000015 756000 0                  STQ     SETOWN$

     1082     3062    2       SETNXT$ = PINCRC(REC$,NXTPT.BYT_OFF);
PL6.E3A0      #003=ZIU$GENRCD File=ZIU$VALSET.:ZIC0TSI                           FRI 09/05/97 13:33 Page:179

   3062  4 001151   000021 236000 0                  LDQ     EISNXT
         4 001152   000020 772000                    QRL     16
         4 001153   377777 376007                    ANQ     131071,DL
         4 001154   000020 736000                    QLS     16
         4 001155   000000 036000 xsym               ADLQ    REC$
         4 001156   000013 756000 0                  STQ     SETNXT$

     1083     3063    2       SETPR$ = PINCRC(REC$,PRIPT.BYT_OFF);

   3063  4 001157   000020 236000 0                  LDQ     EISPR
         4 001160   000020 772000                    QRL     16
         4 001161   377777 376007                    ANQ     131071,DL
         4 001162   000020 736000                    QLS     16
         4 001163   000000 036000 xsym               ADLQ    REC$
         4 001164   000014 756000 0                  STQ     SETPR$

     1084     3064
     1085     3065    2       IF TYPE_PA THEN /* Check if this is a PA record */

   3065  4 001165   000023 234000 0                  SZN     TYPE_PA
         4 001166   001267 605000 4                  TPL     s:3082

     1086     3066    3       DO;

     1087     3067    3           PTR_LEN = (MSTR_REF.PAOFF(MSTR_INDX)-2*4)/3;

   3067  4 001167   000000 236000 xsym               LDQ     MSTR_INDX
         4 001170   000012 402007                    MPY     10,DL
         4 001171   000000 471400 xsym               LDP1    MSTR$
         4 001172   100011 236106                    LDQ     9,QL,PR1
         4 001173   000033 772000                    QRL     27
         4 001174   000010 136007                    SBLQ    8,DL
         4 001175   000003 506007                    DIV     3,DL
         4 001176   000000 756000 xsym               STQ     PTR_LEN

     1088     3068    3           KEY_LEN = MSTR_REF.PAENT(MSTR_INDX)-2-PTR_LEN;
PL6.E3A0      #003=ZIU$GENRCD File=ZIU$VALSET.:ZIC0TSI                           FRI 09/05/97 13:33 Page:180

   3068  4 001177   000000 236000 xsym               LDQ     MSTR_INDX
         4 001200   000012 402007                    MPY     10,DL
         4 001201   100011 236106                    LDQ     9,QL,PR1
         4 001202   000022 376000 5                  ANQ     18
         4 001203   000000 136000 xsym               SBLQ    PTR_LEN
         4 001204   000002 136007                    SBLQ    2,DL
         4 001205   000000 756000 xsym               STQ     KEY_LEN

     1089     3069    3           NO_ENTRIES = PA_REC.ENTRIES;

   3069  4 001206   000000 473400 xsym               LDP3    REC$
         4 001207   003000 061500                    CSR     bolr='003'O
         4 001210   300001 060014                    BDSC    1,,PR3                   by=0,bit=6,n=12
         4 001211   000006 000044 0                  BDSC    NO_ENTRIES               by=0,bit=0,n=36

     1090     3070    3           IF SETOWN$ -> CHARN ~= SETNXT$ -> CHARN THEN

   3070  4 001212   000015 474400 0                  LDP4    SETOWN$
         4 001213   000000 720000 xsym               LXL0    PTR_LEN
         4 001214   000013 475400 0                  LDP5    SETNXT$
         4 001215   040140 106540                    CMPC    fill='040'O
         4 001216   400000 000010                    ADSC9   0,,PR4                   cn=0,n=*X0
         4 001217   500000 000010                    ADSC9   0,,PR5                   cn=0,n=*X0
         4 001220   001401 600000 4                  TZE     s:3113

     1091     3071    4           DO; /* Not highest level PA record */

     1092     3072    4               CALL GETPTR(SETVAL,SETOWN$);

   3072  4 001221   000023 236000 5                  LDQ     19
         4 001222   200012 756100                    STQ     @PTR$,,AUTO
         4 001223   000015 236000 5                  LDQ     13
         4 001224   200011 756100                    STQ     @VAL,,AUTO
         4 001225   001025 701000 4                  TSX1    GETPTR
         4 001226   000000 011000                    NOP     0

PL6.E3A0      #003=ZIU$GENRCD File=ZIU$VALSET.:ZIC0TSI                           FRI 09/05/97 13:33 Page:181
     1093     3073    4               EGREC.DBK(EGINDX) = CURR_DBK;

   3073  4 001227   000000 235000 xsym               LDA     EGINDX
         4 001230   000002 735000                    ALS     2
         4 001231   000000 470400 xsym               LDP0    EGREC$
         4 001232   000002 236000 0                  LDQ     CURR_DBK
         4 001233   000000 756105                    STQ     0,AL,PR0

     1094     3074    4               EGREC.PRIOR(EGINDX) = SETVAL;

   3074  4 001234   000000 235000 xsym               LDA     EGINDX
         4 001235   000002 735000                    ALS     2
         4 001236   000012 236000 0                  LDQ     SETVAL
         4 001237   000000 470400 xsym               LDP0    EGREC$
         4 001240   000002 756105                    STQ     2,AL,PR0

     1095     3075    4               EGREC.OWNER(EGINDX) = 0;

   3075  4 001241   000000 235000 xsym               LDA     EGINDX
         4 001242   000002 735000                    ALS     2
         4 001243   000000 470400 xsym               LDP0    EGREC$
         4 001244   000003 450105                    STZ     3,AL,PR0

     1096     3076    4               EGREC.SETTYPE(EGINDX) = MSTR_REF.TYPE(SETNUM) - 5000;

   3076  4 001245   000000 235000 xsym               LDA     EGINDX
         4 001246   000002 735000                    ALS     2
         4 001247   000011 236000 0                  LDQ     SETNUM
         4 001250   000000 620005                    EAX0    0,AL
         4 001251   000012 402007                    MPY     10,DL
         4 001252   000000 470400 xsym               LDP0    MSTR$
         4 001253   000000 221106                    LDX1    0,QL,PR0
         4 001254   766170 622011                    EAX2    -5000,X1
         4 001255   000000 471400 xsym               LDP1    EGREC$
         4 001256   100001 742110                    STX2    1,X0,PR1

     1097     3077    4               EGREC.RECTYPE(EGINDX) = REC.TYPE;
PL6.E3A0      #003=ZIU$GENRCD File=ZIU$VALSET.:ZIC0TSI                           FRI 09/05/97 13:33 Page:182

   3077  4 001257   000000 235000 xsym               LDA     EGINDX
         4 001260   000002 735000                    ALS     2
         4 001261   000016 220000 0                  LDX0    REC
         4 001262   000000 470400 xsym               LDP0    EGREC$
         4 001263   000001 440105                    SXL0    1,AL,PR0

     1098     3078    4               CALL WRITE_EG;

   3078  4 001264   002102 701000 4                  TSX1    WRITE_EG
         4 001265   000000 011000                    NOP     0

     1099     3079    4               END;

     1100     3080    3           END;

   3080  4 001266   001401 710000 4                  TRA     s:3113

     1101     3081    2       ELSE
     1102     3082    2           IF EISPR = 0 THEN /* NO PRIOR PTR -> PA MEMBERS */

   3082  4 001267   000020 235000 0                  LDA     EISPR
         4 001270   001401 601000 4                  TNZ     s:3113

     1103     3083    3           DO; /* Process PA membrs writing EG records only */

     1104     3084    3               PTR_LEN = NXTPT.SIZE;

   3084  4 001271   000021 236000 0                  LDQ     EISNXT
         4 001272   000077 376007                    ANQ     63,DL
         4 001273   000000 756000 xsym               STQ     PTR_LEN

     1105     3085    3               EGREC.DBK(EGINDX) = CURR_DBK;

   3085  4 001274   000000 235000 xsym               LDA     EGINDX
         4 001275   000002 735000                    ALS     2
         4 001276   000000 471400 xsym               LDP1    EGREC$
PL6.E3A0      #003=ZIU$GENRCD File=ZIU$VALSET.:ZIC0TSI                           FRI 09/05/97 13:33 Page:183
         4 001277   000002 236000 0                  LDQ     CURR_DBK
         4 001300   100000 756105                    STQ     0,AL,PR1

     1106     3086    3               EGREC.OWNER(EGINDX) = 0;

   3086  4 001301   000000 235000 xsym               LDA     EGINDX
         4 001302   000002 735000                    ALS     2
         4 001303   000000 470400 xsym               LDP0    EGREC$
         4 001304   000003 450105                    STZ     3,AL,PR0

     1107     3087    3               EGREC.SETTYPE(EGINDX) = MSTR_REF.TYPE(SETNUM);

   3087  4 001305   000000 235000 xsym               LDA     EGINDX
         4 001306   000002 735000                    ALS     2
         4 001307   000011 236000 0                  LDQ     SETNUM
         4 001310   000000 620005                    EAX0    0,AL
         4 001311   000012 402007                    MPY     10,DL
         4 001312   000000 470400 xsym               LDP0    MSTR$
         4 001313   000000 221106                    LDX1    0,QL,PR0
         4 001314   000000 471400 xsym               LDP1    EGREC$
         4 001315   100001 741110                    STX1    1,X0,PR1

     1108     3088    3               EGREC.RECTYPE(EGINDX) = REC.TYPE;

   3088  4 001316   000000 235000 xsym               LDA     EGINDX
         4 001317   000002 735000                    ALS     2
         4 001320   000016 220000 0                  LDX0    REC
         4 001321   000000 470400 xsym               LDP0    EGREC$
         4 001322   000001 440105                    SXL0    1,AL,PR0

     1109     3089    3               CALL GETPTR(SETVAL,SETNXT$);

   3089  4 001323   000024 236000 5                  LDQ     20
         4 001324   200012 756100                    STQ     @PTR$,,AUTO
         4 001325   000015 236000 5                  LDQ     13
         4 001326   200011 756100                    STQ     @VAL,,AUTO
         4 001327   001025 701000 4                  TSX1    GETPTR
PL6.E3A0      #003=ZIU$GENRCD File=ZIU$VALSET.:ZIC0TSI                           FRI 09/05/97 13:33 Page:184
         4 001330   000000 011000                    NOP     0

     1110     3090    3               IF SETVAL=0 THEN /* CHK IF IT IS UNCONNECT */

   3090  4 001331   000012 235000 0                  LDA     SETVAL
         4 001332   001370 601000 4                  TNZ     s:3103

     1111     3091    4               DO;

     1112     3092    4                   SETNXT$=PINCRC(SETNXT$,PTR_LEN);

   3092  4 001333   000000 236000 xsym               LDQ     PTR_LEN
         4 001334   000020 736000                    QLS     16
         4 001335   000013 036000 0                  ADLQ    SETNXT$
         4 001336   000013 756000 0                  STQ     SETNXT$

     1113     3093    4                   CALL GETPTR(SETVAL,SETNXT$);

   3093  4 001337   000024 236000 5                  LDQ     20
         4 001340   200012 756100                    STQ     @PTR$,,AUTO
         4 001341   000015 236000 5                  LDQ     13
         4 001342   200011 756100                    STQ     @VAL,,AUTO
         4 001343   001025 701000 4                  TSX1    GETPTR
         4 001344   000000 011000                    NOP     0

     1114     3094    4                   IF SETVAL=0 AND (MSTR_REF.SET.INMODE(SETNUM) OR

   3094  4 001345   000012 235000 0                  LDA     SETVAL
         4 001346   001367 601000 4                  TNZ     s:3101
         4 001347   000011 236000 0                  LDQ     SETNUM
         4 001350   000012 402007                    MPY     10,DL
         4 001351   000000 470400 xsym               LDP0    MSTR$
         4 001352   000011 236106                    LDQ     9,QL,PR0
         4 001353   000010 316003                    CANQ    8,DU
         4 001354   001362 601000 4                  TNZ     s:3097
         4 001355   000011 236000 0                  LDQ     SETNUM
         4 001356   000012 402007                    MPY     10,DL
PL6.E3A0      #003=ZIU$GENRCD File=ZIU$VALSET.:ZIC0TSI                           FRI 09/05/97 13:33 Page:185
         4 001357   000011 236106                    LDQ     9,QL,PR0
         4 001360   000004 316003                    CANQ    4,DU
         4 001361   001367 600000 4                  TZE     s:3101

     1115     3095    4                      MSTR_REF.SET.RETYPE(SETNUM)) THEN
     1116     3096    5                   DO; /* UNCONNECTED MEMBER FOUND */

     1117     3097    5                       IF ZI$DIR.REPRT_ZERO THEN

   3097  4 001362   000125 236000 xsym               LDQ     ZI$DIR+85
         4 001363   000020 316007                    CANQ    16,DL
         4 001364   001742 601000 4                  TNZ     REPORT_ZERO

     1118     3098    5                           GOTO REPORT_ZERO;
     1119     3099    5                       ALTRETURN; /* DONT DO ANYTHING */

   3099  4 001365   200006 221300                    LDX1  ! @PTSIZE+2,,AUTO
         4 001366   000000 702211                    TSX2  ! 0,X1

     1120     3100    5                       END;
     1121     3101    4                   SETVAL = 0; /* RESTORE NEXT PTR */

   3101  4 001367   000012 450000 0                  STZ     SETVAL

     1122     3102    4                   END;

     1123     3103    3               EGREC.PRIOR(EGINDX) = SETVAL; /* Use owner ptr for prior */

   3103  4 001370   000000 235000 xsym               LDA     EGINDX
         4 001371   000002 735000                    ALS     2
         4 001372   000012 236000 0                  LDQ     SETVAL
         4 001373   000000 470400 xsym               LDP0    EGREC$
         4 001374   000002 756105                    STQ     2,AL,PR0

     1124     3104    3               CALL WRITE_EG;

   3104  4 001375   002102 701000 4                  TSX1    WRITE_EG
PL6.E3A0      #003=ZIU$GENRCD File=ZIU$VALSET.:ZIC0TSI                           FRI 09/05/97 13:33 Page:186
         4 001376   000000 011000                    NOP     0

     1125     3105    3               ALTRETURN; /* ALTRET so no PT record will be written */

   3105  4 001377   200006 221300                    LDX1  ! @PTSIZE+2,,AUTO
         4 001400   000000 702211                    TSX2  ! 0,X1

     1126     3106    3               END;
     1127     3107        %EJECT;
PL6.E3A0      #003=ZIU$GENRCD File=ZIU$VALSET.:ZIC0TSI                           FRI 09/05/97 13:33 Page:187
     1128     3108        /*
     1129     3109                 PROCESS THE STANDARD  SET  POINTERS  FOR NON-PA RECORDS
     1130     3110        */
     1131     3111
     1132     3112
     1133     3113    2       SET_LN = NXTPT.SIZE;

   3113  4 001401   000021 236000 0                  LDQ     EISNXT
         4 001402   000077 376007                    ANQ     63,DL
         4 001403   000003 756000 0                  STQ     SET_LN

     1134     3114    2       PTREC.OWNER = CURR_DBK; /* Init owner pointers to themselves */

   3114  4 001404   200003 470500                    LDP0    @PTREC,,AUTO
         4 001405   000100 100400                    MLR     fill='000'O
         4 001406   000002 000004 0                  ADSC9   CURR_DBK                 cn=0,n=4
         4 001407   000003 000004                    ADSC9   3,,PR0                   cn=0,n=4

     1135     3115    2       EGREC.OWNER(EGINDX) = CURR_DBK;

   3115  4 001410   000000 235000 xsym               LDA     EGINDX
         4 001411   000002 735000                    ALS     2
         4 001412   000000 471400 xsym               LDP1    EGREC$
         4 001413   000002 236000 0                  LDQ     CURR_DBK
         4 001414   100003 756105                    STQ     3,AL,PR1

     1136     3116    2       PTREC.SETTYPE = MSTR_REF.TYPE(SETNUM);

   3116  4 001415   000011 236000 0                  LDQ     SETNUM
         4 001416   000050 402007                    MPY     40,DL
         4 001417   000000 471400 xsym               LDP1    MSTR$
         4 001420   000100 100506                    MLR     fill='000'O
         4 001421   100000 000002                    ADSC9   0,Q,PR1                  cn=0,n=2
         4 001422   000001 000002                    ADSC9   1,,PR0                   cn=0,n=2

     1137     3117    2       EGREC.SETTYPE(EGINDX) = MSTR_REF.TYPE(SETNUM);

PL6.E3A0      #003=ZIU$GENRCD File=ZIU$VALSET.:ZIC0TSI                           FRI 09/05/97 13:33 Page:188
   3117  4 001423   000000 235000 xsym               LDA     EGINDX
         4 001424   000002 735000                    ALS     2
         4 001425   000011 236000 0                  LDQ     SETNUM
         4 001426   000000 620005                    EAX0    0,AL
         4 001427   000012 402007                    MPY     10,DL
         4 001430   100000 221106                    LDX1    0,QL,PR1
         4 001431   000000 473400 xsym               LDP3    EGREC$
         4 001432   300001 741110                    STX1    1,X0,PR3

     1138     3118    2       PTREC.DBK = CURR_DBK;

   3118  4 001433   000100 100400                    MLR     fill='000'O
         4 001434   000002 000004 0                  ADSC9   CURR_DBK                 cn=0,n=4
         4 001435   000002 000004                    ADSC9   2,,PR0                   cn=0,n=4

     1139     3119    2       EGREC.DBK(EGINDX) = CURR_DBK;

   3119  4 001436   000000 235000 xsym               LDA     EGINDX
         4 001437   000002 735000                    ALS     2
         4 001440   000000 471400 xsym               LDP1    EGREC$
         4 001441   000002 236000 0                  LDQ     CURR_DBK
         4 001442   100000 756105                    STQ     0,AL,PR1

     1140     3120    2       PTREC.RECTYPE = REC.TYPE;

   3120  4 001443   000100 100400                    MLR     fill='000'O
         4 001444   000016 000002 0                  ADSC9   REC                      cn=0,n=2
         4 001445   000001 400002                    ADSC9   1,,PR0                   cn=2,n=2

     1141     3121    2       EGREC.RECTYPE(EGINDX) = REC.TYPE;

   3121  4 001446   000000 235000 xsym               LDA     EGINDX
         4 001447   000002 735000                    ALS     2
         4 001450   000016 220000 0                  LDX0    REC
         4 001451   000000 471400 xsym               LDP1    EGREC$
         4 001452   100001 440105                    SXL0    1,AL,PR1

PL6.E3A0      #003=ZIU$GENRCD File=ZIU$VALSET.:ZIC0TSI                           FRI 09/05/97 13:33 Page:189
     1142     3122
     1143     3123    3       DO CASE(SET_LN);

   3123  4 001453   000003 235000 0                  LDA     SET_LN
         4 001454   000005 115007                    CMPA    5,DL
         4 001455   001457 602005 4                  TNC     s:3123+4,AL
         4 001456   001604 710000 4                  TRA     s:3152
         4 001457   001604 710000 4                  TRA     s:3152
         4 001460   001604 710000 4                  TRA     s:3152
         4 001461   001464 710000 4                  TRA     s:3125
         4 001462   001517 710000 4                  TRA     s:3134
         4 001463   001552 710000 4                  TRA     s:3143

     1144     3124    3       CASE(2);

     1145     3125    3           PTREC.NEXT = SETNXT$ -> SZ2;

   3125  4 001464   000013 471400 0                  LDP1    SETNXT$
         4 001465   000100 101500                    MRL     fill='000'O
         4 001466   100000 000002                    ADSC9   0,,PR1                   cn=0,n=2
         4 001467   000000 000004                    ADSC9   0,,PR0                   cn=0,n=4

     1146     3126    3           EGREC.PRIOR(EGINDX) = SETPR$ -> SZ2;

   3126  4 001470   000000 235000 xsym               LDA     EGINDX
         4 001471   000002 735000                    ALS     2
         4 001472   000002 735000                    ALS     2
         4 001473   000014 471400 0                  LDP1    SETPR$
         4 001474   000000 473400 xsym               LDP3    EGREC$
         4 001475   000105 101500                    MRL     fill='000'O
         4 001476   100000 000002                    ADSC9   0,,PR1                   cn=0,n=2
         4 001477   300002 000004                    ADSC9   2,A,PR3                  cn=0,n=4

     1147     3127    3           IF EISOWN ~= 0 THEN

   3127  4 001500   000017 235000 0                  LDA     EISOWN
         4 001501   001604 600000 4                  TZE     s:3152
PL6.E3A0      #003=ZIU$GENRCD File=ZIU$VALSET.:ZIC0TSI                           FRI 09/05/97 13:33 Page:190

     1148     3128    4           DO;

     1149     3129    4               PTREC.OWNER = SETOWN$ -> SZ2;

   3129  4 001502   000015 473400 0                  LDP3    SETOWN$
         4 001503   000100 101500                    MRL     fill='000'O
         4 001504   300000 000002                    ADSC9   0,,PR3                   cn=0,n=2
         4 001505   000003 000004                    ADSC9   3,,PR0                   cn=0,n=4

     1150     3130    4               EGREC.OWNER(EGINDX) = SETOWN$ -> SZ2;

   3130  4 001506   000000 235000 xsym               LDA     EGINDX
         4 001507   000002 735000                    ALS     2
         4 001510   000002 735000                    ALS     2
         4 001511   000015 473400 0                  LDP3    SETOWN$
         4 001512   000000 474400 xsym               LDP4    EGREC$
         4 001513   000105 101500                    MRL     fill='000'O
         4 001514   300000 000002                    ADSC9   0,,PR3                   cn=0,n=2
         4 001515   400003 000004                    ADSC9   3,A,PR4                  cn=0,n=4

     1151     3131    4               END;

   3131  4 001516   001604 710000 4                  TRA     s:3152

     1152     3132
     1153     3133    3       CASE(3);

     1154     3134    3           PTREC.NEXT = SETNXT$ -> SZ3;

   3134  4 001517   000013 471400 0                  LDP1    SETNXT$
         4 001520   000100 101500                    MRL     fill='000'O
         4 001521   100000 000003                    ADSC9   0,,PR1                   cn=0,n=3
         4 001522   000000 000004                    ADSC9   0,,PR0                   cn=0,n=4

     1155     3135    3           EGREC.PRIOR(EGINDX) = SETPR$ -> SZ3;

PL6.E3A0      #003=ZIU$GENRCD File=ZIU$VALSET.:ZIC0TSI                           FRI 09/05/97 13:33 Page:191
   3135  4 001523   000000 235000 xsym               LDA     EGINDX
         4 001524   000002 735000                    ALS     2
         4 001525   000002 735000                    ALS     2
         4 001526   000014 471400 0                  LDP1    SETPR$
         4 001527   000000 473400 xsym               LDP3    EGREC$
         4 001530   000105 101500                    MRL     fill='000'O
         4 001531   100000 000003                    ADSC9   0,,PR1                   cn=0,n=3
         4 001532   300002 000004                    ADSC9   2,A,PR3                  cn=0,n=4

     1156     3136    3           IF EISOWN ~= 0 THEN

   3136  4 001533   000017 235000 0                  LDA     EISOWN
         4 001534   001604 600000 4                  TZE     s:3152

     1157     3137    4           DO;

     1158     3138    4               PTREC.OWNER = SETOWN$ -> SZ3;

   3138  4 001535   000015 473400 0                  LDP3    SETOWN$
         4 001536   000100 101500                    MRL     fill='000'O
         4 001537   300000 000003                    ADSC9   0,,PR3                   cn=0,n=3
         4 001540   000003 000004                    ADSC9   3,,PR0                   cn=0,n=4

     1159     3139    4               EGREC.OWNER(EGINDX) = SETOWN$ -> SZ3;

   3139  4 001541   000000 235000 xsym               LDA     EGINDX
         4 001542   000002 735000                    ALS     2
         4 001543   000002 735000                    ALS     2
         4 001544   000015 473400 0                  LDP3    SETOWN$
         4 001545   000000 474400 xsym               LDP4    EGREC$
         4 001546   000105 101500                    MRL     fill='000'O
         4 001547   300000 000003                    ADSC9   0,,PR3                   cn=0,n=3
         4 001550   400003 000004                    ADSC9   3,A,PR4                  cn=0,n=4

     1160     3140    4               END;

   3140  4 001551   001604 710000 4                  TRA     s:3152
PL6.E3A0      #003=ZIU$GENRCD File=ZIU$VALSET.:ZIC0TSI                           FRI 09/05/97 13:33 Page:192

     1161     3141
     1162     3142    3       CASE(4);

     1163     3143    3           PTREC.NEXT = SETNXT$ -> SZ4;

   3143  4 001552   000013 471400 0                  LDP1    SETNXT$
         4 001553   000100 100500                    MLR     fill='000'O
         4 001554   100000 000004                    ADSC9   0,,PR1                   cn=0,n=4
         4 001555   000000 000004                    ADSC9   0,,PR0                   cn=0,n=4

     1164     3144    3           EGREC.PRIOR(EGINDX) = SETPR$ -> SZ4;

   3144  4 001556   000000 235000 xsym               LDA     EGINDX
         4 001557   000002 735000                    ALS     2
         4 001560   000002 735000                    ALS     2
         4 001561   000014 471400 0                  LDP1    SETPR$
         4 001562   000000 473400 xsym               LDP3    EGREC$
         4 001563   000105 100500                    MLR     fill='000'O
         4 001564   100000 000004                    ADSC9   0,,PR1                   cn=0,n=4
         4 001565   300002 000004                    ADSC9   2,A,PR3                  cn=0,n=4

     1165     3145    3           IF EISOWN ~= 0 THEN

   3145  4 001566   000017 235000 0                  LDA     EISOWN
         4 001567   001604 600000 4                  TZE     s:3152

     1166     3146    4           DO;

     1167     3147    4               PTREC.OWNER = SETOWN$ -> SZ4;

   3147  4 001570   000015 473400 0                  LDP3    SETOWN$
         4 001571   000100 100500                    MLR     fill='000'O
         4 001572   300000 000004                    ADSC9   0,,PR3                   cn=0,n=4
         4 001573   000003 000004                    ADSC9   3,,PR0                   cn=0,n=4

     1168     3148    4               EGREC.OWNER(EGINDX) = SETOWN$ -> SZ4;
PL6.E3A0      #003=ZIU$GENRCD File=ZIU$VALSET.:ZIC0TSI                           FRI 09/05/97 13:33 Page:193

   3148  4 001574   000000 235000 xsym               LDA     EGINDX
         4 001575   000002 735000                    ALS     2
         4 001576   000002 735000                    ALS     2
         4 001577   000015 473400 0                  LDP3    SETOWN$
         4 001600   000000 474400 xsym               LDP4    EGREC$
         4 001601   000105 100500                    MLR     fill='000'O
         4 001602   300000 000004                    ADSC9   0,,PR3                   cn=0,n=4
         4 001603   400003 000004                    ADSC9   3,A,PR4                  cn=0,n=4

     1169     3149    4               END;

     1170     3150
     1171     3151    3           END;

     1172     3152    2       IF PTREC.NEXT=0 AND PTREC.OWNER=0 AND EGREC.PRIOR(EGINDX)=0 THEN

   3152  4 001604   000100 100500                    MLR     fill='000'O
         4 001605   000000 000004                    ADSC9   0,,PR0                   cn=0,n=4
         4 001606   200014 000004                    ADSC9   @PTR$+2,,AUTO            cn=0,n=4
         4 001607   200014 236100                    LDQ     @PTR$+2,,AUTO
         4 001610   000000 116003                    CMPQ    0,DU
         4 001611   001645 601000 4                  TNZ     s:3162
         4 001612   000100 100500                    MLR     fill='000'O
         4 001613   000003 000004                    ADSC9   3,,PR0                   cn=0,n=4
         4 001614   200015 000004                    ADSC9   @PTR$+3,,AUTO            cn=0,n=4
         4 001615   200015 236100                    LDQ     @PTR$+3,,AUTO
         4 001616   000000 116003                    CMPQ    0,DU
         4 001617   001645 601000 4                  TNZ     s:3162
         4 001620   000000 235000 xsym               LDA     EGINDX
         4 001621   000002 735000                    ALS     2
         4 001622   000000 471400 xsym               LDP1    EGREC$
         4 001623   100002 235105                    LDA     2,AL,PR1
         4 001624   001645 601000 4                  TNZ     s:3162

     1173     3153    3       DO; /* UN-CONNECTED MEMBER FOUND */

PL6.E3A0      #003=ZIU$GENRCD File=ZIU$VALSET.:ZIC0TSI                           FRI 09/05/97 13:33 Page:194
     1174     3154    3           IF MSTR_REF.SET.INMODE(SETNUM) OR /* INSERTION MANUAL */

   3154  4 001625   000011 236000 0                  LDQ     SETNUM
         4 001626   000012 402007                    MPY     10,DL
         4 001627   000000 473400 xsym               LDP3    MSTR$
         4 001630   300011 236106                    LDQ     9,QL,PR3
         4 001631   000010 316003                    CANQ    8,DU
         4 001632   001640 601000 4                  TNZ     s:3157
         4 001633   000011 236000 0                  LDQ     SETNUM
         4 001634   000012 402007                    MPY     10,DL
         4 001635   300011 236106                    LDQ     9,QL,PR3
         4 001636   000004 316003                    CANQ    4,DU
         4 001637   001645 600000 4                  TZE     s:3162

     1175     3155    3              MSTR_REF.SET.RETYPE(SETNUM) THEN /* RETENTION OPTIONAL */
     1176     3156    4           DO; /* THIS IS A LEGAL UNCONNECTED MEMBER */

     1177     3157    4               IF ZI$DIR.REPRT_ZERO THEN

   3157  4 001640   000125 236000 xsym               LDQ     ZI$DIR+85
         4 001641   000020 316007                    CANQ    16,DL
         4 001642   001742 601000 4                  TNZ     REPORT_ZERO

     1178     3158    4                   GOTO REPORT_ZERO;
     1179     3159    4               ALTRETURN; /* NOT REPORT ZERO, SKIP THIS SET MEMBER */

   3159  4 001643   200006 221300                    LDX1  ! @PTSIZE+2,,AUTO
         4 001644   000000 702211                    TSX2  ! 0,X1

     1180     3160    4               END;
     1181     3161    3           END;
     1182     3162    2       IF MSTR_REF.GLOBAL(SETNUM) = 0 THEN /* LOCAL SET */

   3162  4 001645   000011 236000 0                  LDQ     SETNUM
         4 001646   000012 402007                    MPY     10,DL
         4 001647   000000 471400 xsym               LDP1    MSTR$
         4 001650   100011 236106                    LDQ     9,QL,PR1
PL6.E3A0      #003=ZIU$GENRCD File=ZIU$VALSET.:ZIC0TSI                           FRI 09/05/97 13:33 Page:195
         4 001651   777000 316003                    CANQ    -512,DU
         4 001652   001740 601000 4                  TNZ     s:3175

     1183     3163    3       DO;

     1184     3164    3           IF EGREC.PRIOR(EGINDX)~=0 THEN

   3164  4 001653   000000 235000 xsym               LDA     EGINDX
         4 001654   000002 735000                    ALS     2
         4 001655   000000 473400 xsym               LDP3    EGREC$
         4 001656   300002 235105                    LDA     2,AL,PR3
         4 001657   001666 600000 4                  TZE     s:3166

     1185     3165    3               EGREC.PRIOR(EGINDX) = EGREC.PRIOR(EGINDX) + LOW_DBK -1;

   3165  4 001660   000000 235000 xsym               LDA     EGINDX
         4 001661   000002 735000                    ALS     2
         4 001662   300002 236105                    LDQ     2,AL,PR3
         4 001663   000000 036000 xsym               ADLQ    LOW_DBK
         4 001664   000001 136007                    SBLQ    1,DL
         4 001665   300002 756105                    STQ     2,AL,PR3

     1186     3166    3           IF PTREC.NEXT~=0 THEN

   3166  4 001666   000100 100500                    MLR     fill='000'O
         4 001667   000000 000004                    ADSC9   0,,PR0                   cn=0,n=4
         4 001670   200014 000004                    ADSC9   @PTR$+2,,AUTO            cn=0,n=4
         4 001671   200014 236100                    LDQ     @PTR$+2,,AUTO
         4 001672   000000 116003                    CMPQ    0,DU
         4 001673   001706 600000 4                  TZE     s:3168

     1187     3167    3               PTREC.NEXT = PTREC.NEXT + LOW_DBK -1;

   3167  4 001674   000100 100500                    MLR     fill='000'O
         4 001675   000000 000004                    ADSC9   0,,PR0                   cn=0,n=4
         4 001676   200014 000004                    ADSC9   @PTR$+2,,AUTO            cn=0,n=4
         4 001677   200014 236100                    LDQ     @PTR$+2,,AUTO
PL6.E3A0      #003=ZIU$GENRCD File=ZIU$VALSET.:ZIC0TSI                           FRI 09/05/97 13:33 Page:196
         4 001700   000000 036000 xsym               ADLQ    LOW_DBK
         4 001701   000001 136007                    SBLQ    1,DL
         4 001702   200015 756100                    STQ     @PTR$+3,,AUTO
         4 001703   000100 100500                    MLR     fill='000'O
         4 001704   200015 000004                    ADSC9   @PTR$+3,,AUTO            cn=0,n=4
         4 001705   000000 000004                    ADSC9   0,,PR0                   cn=0,n=4

     1188     3168    3           IF EISOWN~=0 AND PTREC.OWNER~=0 THEN

   3168  4 001706   000017 235000 0                  LDA     EISOWN
         4 001707   001740 600000 4                  TZE     s:3175
         4 001710   000100 100500                    MLR     fill='000'O
         4 001711   000003 000004                    ADSC9   3,,PR0                   cn=0,n=4
         4 001712   200014 000004                    ADSC9   @PTR$+2,,AUTO            cn=0,n=4
         4 001713   200014 236100                    LDQ     @PTR$+2,,AUTO
         4 001714   000000 116003                    CMPQ    0,DU
         4 001715   001740 600000 4                  TZE     s:3175

     1189     3169    4           DO;

     1190     3170    4               EGREC.OWNER(EGINDX) = EGREC.OWNER(EGINDX) + LOW_DBK -1;

   3170  4 001716   000000 236000 xsym               LDQ     EGINDX
         4 001717   000002 736000                    QLS     2
         4 001720   000000 471400 xsym               LDP1    EGREC$
         4 001721   000000 621006                    EAX1    0,QL
         4 001722   100003 236106                    LDQ     3,QL,PR1
         4 001723   000000 036000 xsym               ADLQ    LOW_DBK
         4 001724   000001 136007                    SBLQ    1,DL
         4 001725   100003 756111                    STQ     3,X1,PR1

     1191     3171    4               PTREC.OWNER = PTREC.OWNER + LOW_DBK -1;

   3171  4 001726   000100 100500                    MLR     fill='000'O
         4 001727   000003 000004                    ADSC9   3,,PR0                   cn=0,n=4
         4 001730   200014 000004                    ADSC9   @PTR$+2,,AUTO            cn=0,n=4
         4 001731   200014 236100                    LDQ     @PTR$+2,,AUTO
PL6.E3A0      #003=ZIU$GENRCD File=ZIU$VALSET.:ZIC0TSI                           FRI 09/05/97 13:33 Page:197
         4 001732   000000 036000 xsym               ADLQ    LOW_DBK
         4 001733   000001 136007                    SBLQ    1,DL
         4 001734   200015 756100                    STQ     @PTR$+3,,AUTO
         4 001735   000100 100500                    MLR     fill='000'O
         4 001736   200015 000004                    ADSC9   @PTR$+3,,AUTO            cn=0,n=4
         4 001737   000003 000004                    ADSC9   3,,PR0                   cn=0,n=4

     1192     3172    4               END;

     1193     3173    3           END;

     1194     3174
     1195     3175    2       RETURN;

   3175  4 001740   200006 221300                    LDX1  ! @PTSIZE+2,,AUTO
         4 001741   000001 702211                    TSX2  ! 1,X1

     1196     3176    2   REPORT_ZERO:
     1197     3177    2       CALL INDEX1(R1,' ',MSTR_REF.NAME(MSTR_INDX));

   3177  4 001742   000000 236000 xsym  REPORT_ZERO  LDQ     MSTR_INDX
         4 001743   000050 402007                    MPY     40,DL
         4 001744   000000 470400 xsym               LDP0    MSTR$
         4 001745   000000 124506                    SCM     mask='000'O
         4 001746   000001 400036                    ADSC9   1,Q,PR0                  cn=2,n=30
         4 001747   000025 000001 5                  ADSC9   21                       cn=0,n=1
         4 001750   000065 000000 0                  ARG     R1

     1198     3178    2       CALL INDEX1(S1,' ',MSTR_REF.NAME(SETNUM));

   3178  4 001751   000011 236000 0                  LDQ     SETNUM
         4 001752   000050 402007                    MPY     40,DL
         4 001753   000000 124506                    SCM     mask='000'O
         4 001754   000001 400036                    ADSC9   1,Q,PR0                  cn=2,n=30
         4 001755   000025 000001 5                  ADSC9   21                       cn=0,n=1
         4 001756   000067 000000 0                  ARG     S1

PL6.E3A0      #003=ZIU$GENRCD File=ZIU$VALSET.:ZIC0TSI                           FRI 09/05/97 13:33 Page:198
     1199     3179    2       CALL BINCHAR(CHAR10,CURR_DBK);

   3179  4 001757   000002 235000 0                  LDA     CURR_DBK
         4 001760   000044 773000                    LRL     36
         4 001761   200014 757100                    STAQ    @PTR$+2,,AUTO
         4 001762   000000 301500                    BTD
         4 001763   200014 000010                    NDSC9   @PTR$+2,,AUTO            cn=0,s=lsgnf,sf=0,n=8
         4 001764   000070 030012 0                  NDSC9   CHAR10                   cn=0,s=nosgn,sf=0,n=10

     1200     3180    2       CALL ZERO_SUP(CHAR10,LENGTHC(CHAR10),'1'B);

   3180  4 001765   000031 630400 5                  EPPR0   25
         4 001766   000026 631400 5                  EPPR1   22
         4 001767   000000 701000 xent               TSX1    ZERO_SUP
         4 001770   000000 011000                    NOP     0

     1201     3181    2       CALL INDEX1(D1,' ',CHAR10);

   3181  4 001771   000000 124400                    SCM     mask='000'O
         4 001772   000070 000012 0                  ADSC9   CHAR10                   cn=0,n=10
         4 001773   000025 000001 5                  ADSC9   21                       cn=0,n=1
         4 001774   000066 000000 0                  ARG     D1

     1202     3182    2       CALL CONCAT(MSGBUF,MSGHDR,ADDR(MSTR_REF.NAME(MSTR_INDX))->R_V,

   3182  4 001775   040000 100400                    MLR     fill='040'O
         4 001776   000062 000013 0                  ADSC9   MSGHDR                   cn=0,n=11
         4 001777   000024 000013 0                  ADSC9   MSGBUF                   cn=0,n=11
         4 002000   000000 236000 xsym               LDQ     MSTR_INDX
         4 002001   000050 402007                    MPY     40,DL
         4 002002   000000 470400 xsym               LDP0    MSTR$
         4 002003   000065 720000 0                  LXL0    R1
         4 002004   040000 100546                    MLR     fill='040'O
         4 002005   000001 400010                    ADSC9   1,Q,PR0                  cn=2,n=*X0
         4 002006   000026 600155 0                  ADSC9   MSGBUF+2                 cn=3,n=109
         4 002007   000065 236000 0                  LDQ     R1
         4 002010   000155 116007                    CMPQ    109,DL
PL6.E3A0      #003=ZIU$GENRCD File=ZIU$VALSET.:ZIC0TSI                           FRI 09/05/97 13:33 Page:199
         4 002011   002061 605000 4                  TPL     s:3186
         4 002012   777622 621006                    EAX1    -110,QL
         4 002013   777777 661003                    ERX1    -1,DU
         4 002014   040046 100400                    MLR     fill='040'O
         4 002015   000000 000010 3                  ADSC9   0                        cn=0,n=8
         4 002016   000026 600011 0                  ADSC9   MSGBUF+2,Q               cn=3,n=*X1
         4 002017   000145 116007                    CMPQ    101,DL
         4 002020   002061 605000 4                  TPL     s:3186
         4 002021   777632 622006                    EAX2    -102,QL
         4 002022   777777 662003                    ERX2    -1,DU
         4 002023   000066 723000 0                  LXL3    D1
         4 002024   040046 100440                    MLR     fill='040'O
         4 002025   000070 000013 0                  ADSC9   CHAR10                   cn=0,n=*X3
         4 002026   000030 600012 0                  ADSC9   MSGBUF+4,Q               cn=3,n=*X2
         4 002027   000066 036000 0                  ADLQ    D1
         4 002030   000145 116007                    CMPQ    101,DL
         4 002031   002061 605000 4                  TPL     s:3186
         4 002032   200014 756100                    STQ     @PTR$+2,,AUTO
         4 002033   000065 236000 0                  LDQ     R1
         4 002034   000066 036000 0                  ADLQ    D1
         4 002035   200014 724100                    LXL4    @PTR$+2,,AUTO
         4 002036   777632 624014                    EAX4    -102,X4
         4 002037   777777 664003                    ERX4    -1,DU
         4 002040   040046 100400                    MLR     fill='040'O
         4 002041   000002 000035 3                  ADSC9   2                        cn=0,n=29
         4 002042   000030 600014 0                  ADSC9   MSGBUF+4,Q               cn=3,n=*X4
         4 002043   200015 756100                    STQ     @PTR$+3,,AUTO
         4 002044   200014 236100                    LDQ     @PTR$+2,,AUTO
         4 002045   000110 116007                    CMPQ    72,DL
         4 002046   002061 605000 4                  TPL     s:3186
         4 002047   000011 236000 0                  LDQ     SETNUM
         4 002050   000050 402007                    MPY     40,DL
         4 002051   200014 725100                    LXL5    @PTR$+2,,AUTO
         4 002052   777667 625015                    EAX5    -73,X5
         4 002053   777777 665003                    ERX5    -1,DU
         4 002054   000067 726000 0                  LXL6    S1
         4 002055   200015 235100                    LDA     @PTR$+3,,AUTO
PL6.E3A0      #003=ZIU$GENRCD File=ZIU$VALSET.:ZIC0TSI                           FRI 09/05/97 13:33 Page:200
         4 002056   040045 100546                    MLR     fill='040'O
         4 002057   000001 400016                    ADSC9   1,Q,PR0                  cn=2,n=*X6
         4 002060   000040 000015 0                  ADSC9   MSGBUF+12,A              cn=0,n=*X5

     1203     3183    2          ' at DBK ',ADDR(CHAR10)->D_V,
     1204     3184    2          ' is an unconnected member of ',
     1205     3185    2          ADDR(MSTR_REF.NAME(SETNUM))->S_V);
     1206     3186    2       DCBSF = DCBNUM(M$LO);

   3186  4 002061   000000 236007 xsym               LDQ     M$LO,DL
         4 002062   000000 621006                    EAX1    0,QL
         4 002063   000000 741000 xsym               STX1    DCBSF

     1207     3187    2       BUFSF = VECTOR(MSGBUF);

   3187  4 002064   000034 237000 5                  LDAQ    28
         4 002065   000000 755000 xsym               STA     BUFSF
         4 002066   000001 756000 xsym               STQ     BUFSF+1

     1208     3188    2       BUFLNSF = LENGTHC(MSGBUF);

   3188  4 002067   000170 235007                    LDA     120,DL
         4 002070   000000 755000 xsym               STA     BUFLNSF

     1209     3189    2       VFCSF = '1'B;

   3189  4 002071   400000 236003                    LDQ     -131072,DU
         4 002072   000000 756000 xsym               STQ     VFCSF

     1210     3190    2       CALL SYS_FUNC_WRIT;

   3190  4 002073   000002 631400 5                  EPPR1   2
         4 002074   000000 701000 xent               TSX1    SYS_FUNC_WRIT
         4 002075   000000 011000                    NOP     0

     1211     3191    2       SUBSTR(MSGHDR,0,1)='a';

PL6.E3A0      #003=ZIU$GENRCD File=ZIU$VALSET.:ZIC0TSI                           FRI 09/05/97 13:33 Page:201
   3191  4 002076   141000 236003                    LDQ     49664,DU
         4 002077   000062 552040 0                  STBQ    MSGHDR,'40'O

     1212     3192    2       ALTRETURN;

   3192  4 002100   200006 221300                    LDX1  ! @PTSIZE+2,,AUTO
         4 002101   000000 702211                    TSX2  ! 0,X1

     1213     3193    2   END PULL_PTRS;
     1214     3194        %EJECT;
PL6.E3A0      #003=ZIU$GENRCD File=ZIU$VALSET.:ZIC0TSI                           FRI 09/05/97 13:33 Page:202
     1215     3195        /*
     1216     3196           This procedure does logical writes of up to 16k of 4 word EG
     1217     3197           records, then writes them out to the EG file. It uses half of
     1218     3198           the data base I_O_BUF area for buffering.
     1219     3199        */
     1220     3200    1   WRITE_EG: PROC ALTRET;

   3200  4 002102   200010 741300       WRITE_EG     STX1  ! @PTSIZE+4,,AUTO

     1221     3201
     1222     3202    2       NO_EGRECS = NO_EGRECS + 1;

   3202  4 002103   000000 054000 xsym               AOS     NO_EGRECS

     1223     3203    2       IF EGINDX = 4095 THEN

   3203  4 002104   000000 235000 xsym               LDA     EGINDX
         4 002105   007777 115007                    CMPA    4095,DL
         4 002106   002134 601000 4                  TNZ     s:3215

     1224     3204    3       DO;

     1225     3205         /* EG buf full so write it out and restart filling buffer */
     1226     3206    3    /**/   DCBSF = EGFILE.DCB#;

   3206  4 002107   000001 236000 xsym               LDQ     EGFILE+1
         4 002110   000011 772000                    QRL     9
         4 002111   777777 376007                    ANQ     -1,DL
         4 002112   000000 620006                    EAX0    0,QL
         4 002113   000000 740000 xsym               STX0    DCBSF

     1227     3207    3           KEYSF = %NO#;

   3207  4 002114   000000 450000 xsym               STZ     KEYSF

     1228     3208    3           BUFSF = VECTOR(EGREC);

PL6.E3A0      #003=ZIU$GENRCD File=ZIU$VALSET.:ZIC0TSI                           FRI 09/05/97 13:33 Page:203
   3208  4 002115   000036 235000 5                  LDA     30
         4 002116   000000 236000 xsym               LDQ     EGREC$
         4 002117   000000 755000 xsym               STA     BUFSF
         4 002120   000001 756000 xsym               STQ     BUFSF+1

     1229     3209    3           BUFLNSF = (EGINDX+1) * 16; /* 16 bytes per entry */

   3209  4 002121   000000 235000 xsym               LDA     EGINDX
         4 002122   000004 735000                    ALS     4
         4 002123   000020 035007                    ADLA    16,DL
         4 002124   000000 755000 xsym               STA     BUFLNSF

     1230     3210    3           VFCSF = %NO#;

   3210  4 002125   000000 450000 xsym               STZ     VFCSF

     1231     3211    3           CALL SYS_FUNC_WRIT ALTRET(ALT_WREG);

   3211  4 002126   000002 631400 5                  EPPR1   2
         4 002127   000000 701000 xent               TSX1    SYS_FUNC_WRIT
         4 002130   002137 702000 4                  TSX2    ALT_WREG

     1232     3212    3           NO_EGBUFS = NO_EGBUFS + 1;

   3212  4 002131   000000 054000 xsym               AOS     NO_EGBUFS

     1233     3213    3           EGINDX = -1;

   3213  4 002132   000001 335007                    LCA     1,DL
         4 002133   000000 755000 xsym               STA     EGINDX

     1234     3214    3           END;

     1235     3215    2       EGINDX = EGINDX + 1;

   3215  4 002134   000000 054000 xsym               AOS     EGINDX

PL6.E3A0      #003=ZIU$GENRCD File=ZIU$VALSET.:ZIC0TSI                           FRI 09/05/97 13:33 Page:204
     1236     3216    2       RETURN;

   3216  4 002135   200010 221300                    LDX1  ! @PTSIZE+4,,AUTO
         4 002136   000001 702211                    TSX2  ! 1,X1

     1237     3217
     1238     3218    2   ALT_WREG:
     1239     3219    2       ALTRETURN;

   3219  4 002137   200010 221300       ALT_WREG     LDX1  ! @PTSIZE+4,,AUTO
         4 002140   000000 702211                    TSX2  ! 0,X1

     1240     3220    2   END WRITE_EG;
     1241     3221
     1242     3222    1   FLUSH_EG: PROC ALTRET;

   3222  4 002141   200006 741300       FLUSH_EG     STX1  ! @PTSIZE+2,,AUTO

     1243     3223
     1244     3224    2       IF EGINDX ~= -1 THEN

   3224  4 002142   000000 235000 xsym               LDA     EGINDX
         4 002143   000013 115000 5                  CMPA    11
         4 002144   002166 600000 4                  TZE     s:3234

     1245     3225    3       DO;

     1246     3226    3    /**/   DCBSF = EGFILE.DCB#;

   3226  4 002145   000001 236000 xsym               LDQ     EGFILE+1
         4 002146   000011 772000                    QRL     9
         4 002147   777777 376007                    ANQ     -1,DL
         4 002150   000000 620006                    EAX0    0,QL
         4 002151   000000 740000 xsym               STX0    DCBSF

     1247     3227    3           KEYSF = %NO#;

PL6.E3A0      #003=ZIU$GENRCD File=ZIU$VALSET.:ZIC0TSI                           FRI 09/05/97 13:33 Page:205
   3227  4 002152   000000 450000 xsym               STZ     KEYSF

     1248     3228    3           BUFSF = VECTOR(EGREC);

   3228  4 002153   000036 235000 5                  LDA     30
         4 002154   000000 236000 xsym               LDQ     EGREC$
         4 002155   000000 755000 xsym               STA     BUFSF
         4 002156   000001 756000 xsym               STQ     BUFSF+1

     1249     3229    3           BUFLNSF = EGINDX * 16; /* 16 bytes per entry */

   3229  4 002157   000000 235000 xsym               LDA     EGINDX
         4 002160   000004 735000                    ALS     4
         4 002161   000000 755000 xsym               STA     BUFLNSF

     1250     3230    3           VFCSF = %NO#;

   3230  4 002162   000000 450000 xsym               STZ     VFCSF

     1251     3231    3           CALL SYS_FUNC_WRIT ALTRET(ALT_FLUSH);

   3231  4 002163   000002 631400 5                  EPPR1   2
         4 002164   000000 701000 xent               TSX1    SYS_FUNC_WRIT
         4 002165   002175 702000 4                  TSX2    ALT_FLUSH

     1252     3232    3           END;

     1253     3233
     1254     3234    2       CALL SYS_FUNC_CLOS ALTRET(ALT_FLUSH);

   3234  4 002166   000002 631400 5                  EPPR1   2
         4 002167   000000 701000 xent               TSX1    SYS_FUNC_CLOS
         4 002170   002175 702000 4                  TSX2    ALT_FLUSH

     1255     3235    2       LAST_EGINDX = EGINDX;

   3235  4 002171   000000 235000 xsym               LDA     EGINDX
PL6.E3A0      #003=ZIU$GENRCD File=ZIU$VALSET.:ZIC0TSI                           FRI 09/05/97 13:33 Page:206
         4 002172   000000 755000 xsym               STA     LAST_EGINDX

     1256     3236    2       RETURN;

   3236  4 002173   200006 221300                    LDX1  ! @PTSIZE+2,,AUTO
         4 002174   000001 702211                    TSX2  ! 1,X1

     1257     3237
     1258     3238    2   ALT_FLUSH:
     1259     3239    2       ALTRETURN;

   3239  4 002175   200006 221300       ALT_FLUSH    LDX1  ! @PTSIZE+2,,AUTO
         4 002176   000000 702211                    TSX2  ! 0,X1

     1260     3240    2   END FLUSH_EG;
     1261     3241
     1262     3242    1   ALT_GEN:
     1263     3243    1       ALTRETURN;

   3243  4 002177   000000 702200 xent  ALT_GEN      TSX2  ! X66_AALT

MSGBUF
 Sect OctLoc
   0     024   ****** ******   ****** ******   ****** ******   ****** ******    ................

MSGHDR
 Sect OctLoc
   0     062   145053 040040   122145 143157   162144 040***                    e+  Record .

(unnamed)
 Sect OctLoc
   3     000   040141 164040   104102 113040   040151 163040   141156 040165     at DBK  is an u
   3     004   156143 157156   156145 143164   145144 040155   145155 142145    nconnected membe
   3     010   162040 157146   040040 040040                                    r of

(unnamed)
 Sect OctLoc
PL6.E3A0      #003=ZIU$GENRCD File=ZIU$VALSET.:ZIC0TSI                           FRI 09/05/97 13:33 Page:207
   5     000   000000 006003   777777 400007   000000 000000   000006 000000    ................
   5     004   000000 000020   000000 006000   000000 006000   000004 006000    ................
   5     010   000000 006000   000000 006000   000022 006000   777777 777777    ................
   5     014   000000 006000   000012 006000   000000 006000   000001 000000    ................
   5     020   000234 006000   001777 777640   000077 777777   000015 006000    .........?......
   5     024   000013 006000   040040 040040   000003 000000   000000 000012    ....    ........
   5     030   400000 000000   000070 006000   000027 006000   000030 006000    .....8..........
   5     034   000035 777640   000024 006000   000003 777640                    ............
     1264     3244
     1265     3245    1   END ZIU$GENRCD;
     1266     3246        %EOD;

PL6.E3A0      #003=ZIU$GENRCD File=ZIU$VALSET.:ZIC0TSI                           FRI 09/05/97 13:33 Page:208
--  Include file information  --

   ZI$DIR.:ZIC0TOU  is referenced.
   CP_6_SUBS.:LIB_E05  is referenced.
   CP_6.:LIB_E05  cannot be made into a system file and is referenced.
   ZI_ERRORS_SUBS.:ZIC0TOU  is referenced.
   ZI_DBU_XREF.:ZIC0TOU  cannot be made into a system file and is referenced.
   ZI$PG_STRUCTS.:ZIC0TOU  is referenced.
   ZI_GLOBAL_DBUTIL.:ZIC0TOU  is referenced.
   ZI_DBU_VALDTE.:ZIC0TOU  is referenced.
   B$JIT_C.:E05TOU  was found in the system file and is never referenced.
   CP_6_C.:E05TOU  was found in the system file and is referenced.
      No diagnostics issued in procedure ZIU$GENRCD.

   Procedure ZIU$GENRCD requires 1152 words for executable code.
   Procedure ZIU$GENRCD requires 14 words of local(AUTO) storage.
PL6.E3A0      #003=ZIU$GENRCD File=ZIU$VALSET.:ZIC0TSI                           FRI 09/05/97 13:33 Page:209
          *** CROSS REFERENCE LISTING ***
**     DENOTES     IDENTIFIER DEFINITION
<<                 IDENTIFIER'S VALUE SET
>>                 IDENTIFIER'S VALUE USED
<>                 IDENTIFIER SET AND/OR USED
--                 IDENTIFIER REFERENCED
PL6.E3A0      #003=ZIU$GENRCD File=ZIU$VALSET.:ZIC0TSI                           FRI 09/05/97 13:33 Page:210
          MINI XREF LISTING

ACSSF
       701**DCL      2946<<ASSIGN
ALTRTN IN PROCEDURE OPEN_AREA
      2951**LABEL    2940--CALLALT  2948--CALLALT
ALTRTN IN PROCEDURE READ_DB
      2966**LABEL    2963--CALLALT
ALT_ATBLK IN PROCEDURE GET_ATBLK
      2999**LABEL    2984--CALLALT
ALT_FLUSH IN PROCEDURE FLUSH_EG
      3239**LABEL    3231--CALLALT  3234--CALLALT
ALT_GEN
      3243**LABEL    2807--CALLALT  2818--CALLALT  2824--CALLALT  2932--CALLALT
ALT_WREG IN PROCEDURE WRITE_EG
      3219**LABEL    3211--CALLALT
AREANO
        16**DCL      2804<<DOINDEX  2805>>IF       2806>>ASSIGN
AREA_KEY$
      1237**DCL      1240--IMP-PTR  2805>>IF       2806>>ASSIGN
AREA_KEY_XREF.MAX_KEY
      1242**DCL      2805>>IF
AREA_KEY_XREF.NAME
      1243**DCL      2806>>ASSIGN
ASNSF
       704**DCL      2947<<ASSIGN
ATBLK$
       958**DCL       959--IMP-PTR  2985<<ASSIGN   2986>>IF       2988>>ASSIGN   2991>>ASSIGN   2991>>ASSIGN
      2991>>ASSIGN   2994>>ASSIGN   2995>>ASSIGN
ATBLK_PG.AREA_NM
       984**DCL       985--REDEF
ATBLK_PG.FIR_INV_PGNO
       981**DCL      2986>>IF       2991>>ASSIGN
ATBLK_PG.LINE_INFO.LPP
PL6.E3A0      #003=ZIU$GENRCD File=ZIU$VALSET.:ZIC0TSI                           FRI 09/05/97 13:33 Page:211
       979**DCL      2995>>ASSIGN
ATBLK_PG.LOW_DBK
       982**DCL      2994>>ASSIGN
ATBLK_PG.NUM_DBPG
       966**DCL      2988>>ASSIGN   2991>>ASSIGN   2991>>ASSIGN
ATBLK_PG.STATUS
       993**DCL      1001--REDEF
BREAK_FLAG
       821**DCL      2825>>IF
BREAK_LOCAT
       371**DCL      2815>>UNWIND   2825>>UNWIND
BUFLNSF
       712**DCL      2958<<ASSIGN   2979<<ASSIGN   3188<<ASSIGN   3209<<ASSIGN   3229<<ASSIGN
BUFSF
       713**DCL      2957<<ASSIGN   2978<<ASSIGN   3187<<ASSIGN   3208<<ASSIGN   3228<<ASSIGN
CHAR10 IN PROCEDURE PULL_PTRS
      3054**DCL      3179<<CALLBLT  3180<>CALL     3180--CALL     3181>>CALLBLT  3182--CALLBLT
CHARN
        32**DCL      3070>>IF       3070>>IF
COUNTSF
       763**DCL       764--REDEF
CURRPT.OWNER
       402**DCL       403--REDEF
CURR_DBK
        23**DCL      2845<<ASSIGN   2862>>ASSIGN   2895>>ASSIGN   2910>>ASSIGN   3073>>ASSIGN   3085>>ASSIGN
      3114>>ASSIGN   3115>>ASSIGN   3118>>ASSIGN   3119>>ASSIGN   3179>>CALLBLT
D1 IN PROCEDURE PULL_PTRS
      3049**DCL      3052--IMP-SIZ  3181<<CALLBLT  3182>>CALLBLT
DATA$
      1014**DCL      1015--IMP-PTR  2828<<ASSIGN   2829>>ASSIGN   2833>>IF       2839>>ASSIGN   2839>>ASSIGN
      2845>>ASSIGN
DATA_PG.ACT_DATA
      1027**DCL      1028--REDEF    1029--REDEF    1030--REDEF
DATA_PG.ACT_DATA_18
      1028**DCL      2833>>IF       2839>>ASSIGN
DATA_PG.CON_INTRVAL
PL6.E3A0      #003=ZIU$GENRCD File=ZIU$VALSET.:ZIC0TSI                           FRI 09/05/97 13:33 Page:212
      1023**DCL      2845>>ASSIGN
DATA_PG.OFF_LN.SEC
      1026**DCL      2829>>ASSIGN
DCBSF
       692**DCL      2809--IF       2926<<ASSIGN   2956<<ASSIGN   2977<<ASSIGN   3186<<ASSIGN   3206<<ASSIGN
      3226<<ASSIGN
D_V IN PROCEDURE PULL_PTRS
      3052**DCL      3182>>CALLBLT
EGFILE.DCB#
       410**DCL      3206>>ASSIGN   3226>>ASSIGN
EGINDX
       381**DCL      3073>>ASSIGN   3074>>ASSIGN   3075>>ASSIGN   3076>>ASSIGN   3077>>ASSIGN   3085>>ASSIGN
      3086>>ASSIGN   3087>>ASSIGN   3088>>ASSIGN   3103>>ASSIGN   3115>>ASSIGN   3117>>ASSIGN   3119>>ASSIGN
      3121>>ASSIGN   3126>>ASSIGN   3130>>ASSIGN   3135>>ASSIGN   3139>>ASSIGN   3144>>ASSIGN   3148>>ASSIGN
      3152>>IF       3164>>IF       3165>>ASSIGN   3165>>ASSIGN   3170>>ASSIGN   3170>>ASSIGN   3203>>IF
      3209>>ASSIGN   3213<<ASSIGN   3215<<ASSIGN   3215>>ASSIGN   3224>>IF       3229>>ASSIGN   3235>>ASSIGN
EGREC
       385**DCL      3208--ASSIGN   3228--ASSIGN
EGREC.DBK
       386**DCL      3073<<ASSIGN   3085<<ASSIGN   3119<<ASSIGN
EGREC.OWNER
       390**DCL      3075<<ASSIGN   3086<<ASSIGN   3115<<ASSIGN   3130<<ASSIGN   3139<<ASSIGN   3148<<ASSIGN
      3170<<ASSIGN   3170>>ASSIGN
EGREC.PRIOR
       389**DCL      3074<<ASSIGN   3103<<ASSIGN   3126<<ASSIGN   3135<<ASSIGN   3144<<ASSIGN   3152>>IF
      3164>>IF       3165<<ASSIGN   3165>>ASSIGN
EGREC.RECTYPE
       388**DCL      3077<<ASSIGN   3088<<ASSIGN   3121<<ASSIGN
EGREC.SETTYPE
       387**DCL      3076<<ASSIGN   3087<<ASSIGN   3117<<ASSIGN
EGREC$
       380**DCL       385--IMP-PTR  3073>>ASSIGN   3074>>ASSIGN   3075>>ASSIGN   3076>>ASSIGN   3077>>ASSIGN
      3085>>ASSIGN   3086>>ASSIGN   3087>>ASSIGN   3088>>ASSIGN   3103>>ASSIGN   3115>>ASSIGN   3117>>ASSIGN
      3119>>ASSIGN   3121>>ASSIGN   3126>>ASSIGN   3130>>ASSIGN   3135>>ASSIGN   3139>>ASSIGN   3144>>ASSIGN
      3148>>ASSIGN   3152>>IF       3164>>IF       3165>>ASSIGN   3165>>ASSIGN   3170>>ASSIGN   3170>>ASSIGN
      3208>>ASSIGN   3228>>ASSIGN
PL6.E3A0      #003=ZIU$GENRCD File=ZIU$VALSET.:ZIC0TSI                           FRI 09/05/97 13:33 Page:213
EISNXT
        77**DCL        78--REDEF    3056<<ASSIGN
EISOWN
        61**DCL        62--REDEF    3058<<ASSIGN   3060>>IF       3127>>IF       3136>>IF       3145>>IF
      3168>>IF
EISPR
        69**DCL        70--REDEF    3057<<ASSIGN   3082>>IF
ENCRP_SEEDSF
       721**DCL       722--REDEF    2960<<ASSIGN   2981<<ASSIGN
ENTRY$
       849**DCL       840--IMP-PTR  2866<<ASSIGN   2874>>IF       2876<<ASSIGN   2876>>ASSIGN   2877<>CALL
      2900<<ASSIGN   2900>>ASSIGN   2901<>CALL     2912<<ASSIGN   2912>>ASSIGN
ENTRYNO
        26**DCL      2871<<DOINDEX  2872>>ASSIGN   2890>>ASSIGN   2905>>ASSIGN
ERRBUF$
       418**DCL       419--IMP-PTR   424--IMP-PTR   431--IMP-PTR   439--IMP-PTR   445--IMP-PTR   451--IMP-PTR
       459--IMP-PTR   470--IMP-PTR
ERRCODESF
       723**DCL       728--REDEF
ERRCODESF.ERR#
       726**DCL      2811<<ASSIGN
ERRCODE_RDEF
       728**DCL      2812>>ASSIGN
ERRFLGSF
       752**DCL      2813<<ASSIGN
F$DCB.ACTPOS
      1908**DCL      1908--REDEF
F$DCB.ARS#
      1882**DCL      1882--REDEF
F$DCB.ATTR
      1901**DCL      1902--REDEF
F$DCB.BORROW
      1916**DCL      1916--REDEF    1916--REDEF    1916--REDEF
F$DCB.DCBNAME.L
      1930**DCL      1930--IMP-SIZ
F$DCB.EOMCHAR#
PL6.E3A0      #003=ZIU$GENRCD File=ZIU$VALSET.:ZIC0TSI                           FRI 09/05/97 13:33 Page:214
      1886**DCL      1886--REDEF
F$DCB.FLDID
      1911**DCL      1911--REDEF
F$DCB.FORM$
      1905**DCL      1905--REDEF
F$DCB.FSECT
      1921**DCL      1921--REDEF
F$DCB.FSN#
      1898**DCL      1898--REDEF    1898--REDEF    1899--REDEF
F$DCB.HEADER$
      1904**DCL      1904--REDEF
F$DCB.IXTNSIZE#
      1902**DCL      1902--REDEF
F$DCB.LASTSTA$
      1891**DCL      1891--REDEF
F$DCB.LVL
      1917**DCL      1917--REDEF
F$DCB.NAME#.C
      1892**DCL      1892--REDEF
F$DCB.NOEOF
      1914**DCL      1914--REDEF
F$DCB.NRECS#
      1903**DCL      1903--REDEF
F$DCB.NRECX
      1922**DCL      1922--REDEF
F$DCB.OHDR
      1914**DCL      1914--REDEF
F$DCB.ORG#
      1897**DCL      1897--REDEF    2809>>IF
F$DCB.PRECNO
      1920**DCL      1920--REDEF
F$DCB.RCSZ
      1926**DCL      1926--REDEF
F$DCB.RES#
      1893**DCL      1893--REDEF
F$DCB.SETX
PL6.E3A0      #003=ZIU$GENRCD File=ZIU$VALSET.:ZIC0TSI                           FRI 09/05/97 13:33 Page:215
      1905**DCL      1905--REDEF
F$DCB.TAB$
      1905**DCL      1905--REDEF
F$DCB.TDA
      1919**DCL      1920--REDEF
F$DCB.WSN#
      1893**DCL      1893--REDEF
FIDSF
       740**DCL      2942<<ASSIGN
FIDSF_RD
       739**DCL       740--REDEF
FIND_REC_ENTRY
      3008**PROC     2841--CALL
FLUSH_EG
      3222**PROC     2932--CALL
FULLSF
       710**DCL      2959<<ASSIGN   2980<<ASSIGN
FUNSF
       703**DCL      2943<<ASSIGN
GETPTR
      3022**PROC     2877--CALL     2885--CALL     2901--CALL     3072--CALL     3089--CALL     3093--CALL
GET_ATBLK
      2971**PROC     2818--CALL
GET_DCB
      2781**DCL-ENT  2940--CALL
GROUP$
       850**DCL       845--IMP-PTR  2881<<ASSIGN   2882>>ASSIGN   2883<<ASSIGN   2883>>ASSIGN   2885<>CALL
      2896<<ASSIGN   2896>>ASSIGN
HELPCODE
       757**DCL       762--REDEF
HIGH_DATA_PG
        18**DCL      2820<>CALL     2922<>CALL     2988<<ASSIGN   2991<<ASSIGN
HIGH_LINE
        25**DCL      2829<<ASSIGN   2831>>DOINDEX
HIGH_RECINDX
       379**DCL      3010>>DOINDEX
PL6.E3A0      #003=ZIU$GENRCD File=ZIU$VALSET.:ZIC0TSI                           FRI 09/05/97 13:33 Page:216
ICHKSUM
       822**DCL       823--REDEF
INITIAL_SORT_CALL
        87**DCL      2790>>IF       2793<<ASSIGN
I_O_BUF
       801**DCL      2828--ASSIGN   2957--ASSIGN   2978--ASSIGN   2985--ASSIGN
I_O_BUF$
       800**DCL       801--IMP-PTR  2828>>ASSIGN   2957>>ASSIGN   2978>>ASSIGN   2985>>ASSIGN
I_O_INDX
        21**DCL      2823<<ASSIGN   2828>>ASSIGN   2920<<ASSIGN   2920>>ASSIGN
I_O_SIZE
       803**DCL      2820<>CALL     2922<>CALL     2958>>ASSIGN
KEYSF
       694**DCL      2961<<ASSIGN   2982<<ASSIGN   3207<<ASSIGN   3227<<ASSIGN
KEYVSF
       695**DCL       700--REDEF
KEYVSF.IDSKEY
       698**DCL      2962<<ASSIGN   2983<<ASSIGN
KEYVSF.WD_ONE
       697**DCL       698--REDEF
KEY_LEN
       852**DCL      2912>>ASSIGN   3068<<ASSIGN
LAST_EGINDX
       384**DCL      3235<<ASSIGN
LAST_PAGE
        86**DCL      2819<<ASSIGN   2820<>CALL     2822>>DOWHILE  2922<>CALL
LINE_NO
        22**DCL      2831<<DOINDEX  2833>>IF       2839>>ASSIGN   2845>>ASSIGN
LOW_DBK
        17**DCL      2845>>ASSIGN   2879>>ASSIGN   2994<<ASSIGN   3035>>ASSIGN   3165>>ASSIGN   3167>>ASSIGN
      3170>>ASSIGN   3171>>ASSIGN
LPP
        19**DCL      2845>>ASSIGN   2845>>ASSIGN   2995<<ASSIGN
M$LO
       810**DCL      3186>>ASSIGN
MSGBUF IN PROCEDURE PULL_PTRS
PL6.E3A0      #003=ZIU$GENRCD File=ZIU$VALSET.:ZIC0TSI                           FRI 09/05/97 13:33 Page:217
      3046**DCL      3182<<CALLBLT  3187--ASSIGN   3188--ASSIGN
MSGCODE
       729**DCL       730--REDEF    2812<<ASSIGN
MSGHDR IN PROCEDURE PULL_PTRS
      3047**DCL      3182>>CALLBLT  3191<<ASSIGN
MSTR$
      1206**DCL      1209--IMP-PTR  2847>>IF       2863>>ASSIGN   2866>>ASSIGN   2878>>IF       2891>>ASSIGN
      2906>>ASSIGN   3011>>IF       3034>>IF       3067>>ASSIGN   3068>>ASSIGN   3076>>ASSIGN   3087>>ASSIGN
      3094>>IF       3094>>IF       3116>>ASSIGN   3117>>ASSIGN   3154>>IF       3154>>IF       3162>>IF
      3177>>CALLBLT  3178>>CALLBLT  3182>>CALLBLT  3182>>CALLBLT
MSTR_INDX
      1232**DCL      2847>>IF       2866>>ASSIGN   3013<<ASSIGN   3067>>ASSIGN   3068>>ASSIGN   3177>>CALLBLT
      3182>>CALLBLT
MSTR_REF.GLOBAL
      1216**DCL      2878>>IF       3034>>IF       3162>>IF
MSTR_REF.NAME
      1214**DCL      3177>>CALLBLT  3178>>CALLBLT  3182--CALLBLT  3182--CALLBLT
MSTR_REF.NXTHSH
      1212**DCL      1213--REDEF
MSTR_REF.PAENT
      1218**DCL      1219--REDEF    3068>>ASSIGN
MSTR_REF.PAOFF
      1215**DCL      1216--REDEF    2847>>IF       2866>>ASSIGN   3067>>ASSIGN
MSTR_REF.SET.INMODE
      1222**DCL      3094>>IF       3154>>IF
MSTR_REF.SET.RETYPE
      1223**DCL      3094>>IF       3154>>IF
MSTR_REF.TYPE
      1210**DCL      2863>>ASSIGN   2891>>ASSIGN   2906>>ASSIGN   3011>>IF       3076>>ASSIGN   3087>>ASSIGN
      3116>>ASSIGN   3117>>ASSIGN
NEXT_AREA
      2930**LABEL    2805--GOTO
NO_AREAS
      1248**DCL      2804>>DOINDEX
NO_EGBUFS
       383**DCL      3212<<ASSIGN   3212>>ASSIGN
PL6.E3A0      #003=ZIU$GENRCD File=ZIU$VALSET.:ZIC0TSI                           FRI 09/05/97 13:33 Page:218
NO_EGRECS
       382**DCL      3202<<ASSIGN   3202>>ASSIGN
NO_ENTRIES
        27**DCL      2871>>DOINDEX  3069<<ASSIGN
NO_PTRS
        28**DCL      2882<<ASSIGN   2884>>DOINDEX
NO_RECORD
      2918**LABEL    2841--CALLALT
NXTPT.BYT_OFF
        80**DCL      3062>>ASSIGN
NXTPT.SIZE
        84**DCL      3084>>ASSIGN   3113>>ASSIGN
OPEN_AREA
      2939**PROC     2807--CALL
ORGSF
       693**DCL      2945<<ASSIGN
OWNPT.BYT_OFF
        64**DCL      3061>>ASSIGN
PAGE_RANGE
      2774**DCL-ENT  2820--CALL     2922--CALL
PA_ENTRY.C
       841**DCL      2874>>IF
PA_GROUP.NO_GROUPS
       846**DCL      2882>>ASSIGN
PA_REC.ENTRIES
       838**DCL      3069>>ASSIGN
PA_REC.NOT_LOWEST_LEVEL
       832**DCL      2864>>IF       2892>>IF       2907>>IF
PA_RTN1
      2888**LABEL    2799--GOTO
PA_RTN2
      2903**LABEL    2801--GOTO
PRIPT.BYT_OFF
        72**DCL      3063>>ASSIGN
PTR$ IN PROCEDURE GETPTR
      3024**DCL      3022--PROC     3028>>ASSIGN   3030>>ASSIGN   3032>>ASSIGN
PL6.E3A0      #003=ZIU$GENRCD File=ZIU$VALSET.:ZIC0TSI                           FRI 09/05/97 13:33 Page:219
PTREC
        39**DCL        14--PROC
PTREC.DBK
        43**DCL      2862<<ASSIGN   2895<<ASSIGN   2910<<ASSIGN   3118<<ASSIGN
PTREC.NEXT
        40**DCL      2887<<ASSIGN   2902<<ASSIGN   3125<<ASSIGN   3134<<ASSIGN   3143<<ASSIGN   3152>>IF
      3166>>IF       3167<<ASSIGN   3167>>ASSIGN
PTREC.OWNER
        44**DCL        45--REDEF    3114<<ASSIGN   3129<<ASSIGN   3138<<ASSIGN   3147<<ASSIGN   3152>>IF
      3168>>IF       3171<<ASSIGN   3171>>ASSIGN
PTREC.PA.ENTRY#
        46**DCL      2872<<ASSIGN   2890<<ASSIGN   2905<<ASSIGN
PTREC.PA.GROUP#
        47**DCL      2873<<ASSIGN   2886<<ASSIGN
PTREC.RECTYPE
        42**DCL      2861<<ASSIGN   2894<<ASSIGN   2909<<ASSIGN   3120<<ASSIGN
PTREC.SETTYPE
        41**DCL      2863<<ASSIGN   2865<<ASSIGN   2865>>ASSIGN   2891<<ASSIGN   2893<<ASSIGN   2893>>ASSIGN
      2906<<ASSIGN   2908<<ASSIGN   2908>>ASSIGN   3116<<ASSIGN
PTR_LEN
       851**DCL        32--IMP-SIZ   844--IMP-SIZ   848--IMP-SIZ  2896>>ASSIGN   2912>>ASSIGN   3026>>DOCASE
      3067<<ASSIGN   3068>>ASSIGN   3070>>IF       3070>>IF       3084<<ASSIGN   3092>>ASSIGN
PTSIZE
        48**DCL        14--PROC     2792<<ASSIGN
PULL_PTRS
      3044**PROC     2855--CALL
R1 IN PROCEDURE PULL_PTRS
      3048**DCL      3051--IMP-SIZ  3177<<CALLBLT  3182>>CALLBLT
RB
       782**DCL      2820<>CALL     2827<<DOINDEX  2827>>DOINDEX  2922<>CALL     2962>>ASSIGN
RE
       783**DCL      2820<>CALL     2827>>DOINDEX  2922<>CALL
READ_DB
      2954**PROC     2824--CALL
REC
        57**DCL        60--REDEF
PL6.E3A0      #003=ZIU$GENRCD File=ZIU$VALSET.:ZIC0TSI                           FRI 09/05/97 13:33 Page:220
REC.TYPE
        58**DCL      2861>>ASSIGN   2894>>ASSIGN   2909>>ASSIGN   3011>>IF       3077>>ASSIGN   3088>>ASSIGN
      3120>>ASSIGN   3121>>ASSIGN
REC$
       781**DCL       804--IMP-PTR   828--IMP-PTR  2839<<ASSIGN   2840>>ASSIGN   2864>>IF       2866>>ASSIGN
      2881>>ASSIGN   2892>>IF       2907>>IF       3061>>ASSIGN   3062>>ASSIGN   3063>>ASSIGN   3069>>ASSIGN
RECINDX
       378**DCL      2846>>ASSIGN   3010<<DOINDEX  3011>>IF       3013>>ASSIGN
RECLIST.MSTRINDX
       374**DCL      3011>>IF       3013>>ASSIGN
RECLIST.SETINDX
       375**DCL      2846>>ASSIGN
RECSTUFF
        60**DCL      2840<<ASSIGN
REC_DATA_LN
       809**DCL       808--IMP-SIZ
REC_XREF$
      1261**DCL      1262--IMP-PTR
REPORT_ZERO IN PROCEDURE PULL_PTRS
      3177**LABEL    3098--GOTO     3158--GOTO
RETURNCODE
        29**DCL      2794<<ASSIGN   2797>>IF       2799>>IF       2888<<ASSIGN   2903<<ASSIGN   2914<<ASSIGN
RE_ENTRY
      2854**LABEL    2797--GOTO     2855--CALLALT
R_V IN PROCEDURE PULL_PTRS
      3051**DCL      3182>>CALLBLT
S1 IN PROCEDURE PULL_PTRS
      3050**DCL      3053--IMP-SIZ  3178<<CALLBLT  3182>>CALLBLT
SETINDX
       377**DCL      2846<<ASSIGN   2852>>DOWHILE  2854>>ASSIGN   2916<<ASSIGN   2916>>ASSIGN   3056>>ASSIGN
      3057>>ASSIGN   3058>>ASSIGN
SETLIST
       376**DCL      2852>>DOWHILE  2854>>ASSIGN   3056>>ASSIGN   3057>>ASSIGN   3058>>ASSIGN
SETNUM
        30**DCL      2854<<ASSIGN   2863>>ASSIGN   2878>>IF       2891>>ASSIGN   2906>>ASSIGN   3034>>IF
      3076>>ASSIGN   3087>>ASSIGN   3094>>IF       3094>>IF       3116>>ASSIGN   3117>>ASSIGN   3154>>IF
PL6.E3A0      #003=ZIU$GENRCD File=ZIU$VALSET.:ZIC0TSI                           FRI 09/05/97 13:33 Page:221
      3154>>IF       3162>>IF       3178>>CALLBLT  3182>>CALLBLT
SETNXT$
        53**DCL      3062<<ASSIGN   3070>>IF       3089<>CALL     3092<<ASSIGN   3092>>ASSIGN   3093<>CALL
      3125>>ASSIGN   3134>>ASSIGN   3143>>ASSIGN
SETOWN$
        55**DCL      3061<<ASSIGN   3070>>IF       3072<>CALL     3129>>ASSIGN   3130>>ASSIGN   3138>>ASSIGN
      3139>>ASSIGN   3147>>ASSIGN   3148>>ASSIGN
SETPR$
        54**DCL      3063<<ASSIGN   3126>>ASSIGN   3135>>ASSIGN   3144>>ASSIGN
SETVAL
        31**DCL      2877<>CALL     2879<<ASSIGN   2879>>ASSIGN   2881>>ASSIGN   2885<>CALL     2887>>ASSIGN
      2901<>CALL     2902>>ASSIGN   3072<>CALL     3074>>ASSIGN   3089<>CALL     3090>>IF       3093<>CALL
      3094>>IF       3101<<ASSIGN   3103>>ASSIGN
SET_LN
        24**DCL      3113<<ASSIGN   3123>>DOCASE
SET_XREF.EIS.NEXT
      1257**DCL      3056>>ASSIGN
SET_XREF.EIS.OWNR
      1256**DCL      3058>>ASSIGN
SET_XREF.EIS.PRIOR
      1255**DCL      3057>>ASSIGN
SET_XREF.MSTRINDX
      1252**DCL      2854>>ASSIGN
SET_XREF$
      1250**DCL      1251--IMP-PTR  2854>>ASSIGN   3056>>ASSIGN   3057>>ASSIGN   3058>>ASSIGN
SHARESF
       743**DCL      2944<<ASSIGN
SYS_FUNC_CLOS
      2776**DCL-ENT  2927--CALL     3234--CALL
SYS_FUNC_ERRMSG
      2782**DCL-ENT  2814--CALL
SYS_FUNC_OPEN
      2777**DCL-ENT  2948--CALL
SYS_FUNC_READ
      2778**DCL-ENT  2963--CALL     2984--CALL
SYS_FUNC_RELDCB
PL6.E3A0      #003=ZIU$GENRCD File=ZIU$VALSET.:ZIC0TSI                           FRI 09/05/97 13:33 Page:222
      2780**DCL-ENT  2928--CALL
SYS_FUNC_WRIT
      2779**DCL-ENT  3190--CALL     3211--CALL     3231--CALL
SZ2
        50**DCL      3028>>ASSIGN   3125>>ASSIGN   3126>>ASSIGN   3129>>ASSIGN   3130>>ASSIGN
SZ3
        51**DCL      3030>>ASSIGN   3134>>ASSIGN   3135>>ASSIGN   3138>>ASSIGN   3139>>ASSIGN
SZ4
        52**DCL      2840>>ASSIGN   3032>>ASSIGN   3143>>ASSIGN   3144>>ASSIGN   3147>>ASSIGN   3148>>ASSIGN
S_V IN PROCEDURE PULL_PTRS
      3053**DCL      3182>>CALLBLT
TYPE_PA
        88**DCL      2848<<ASSIGN   2850<<ASSIGN   2858>>IF       3065>>IF
VAL IN PROCEDURE GETPTR
      3023**DCL      3022--PROC     3028<<ASSIGN   3030<<ASSIGN   3032<<ASSIGN   3034>>IF       3035<<ASSIGN
      3035>>ASSIGN
VFCSF
       709**DCL      3189<<ASSIGN   3210<<ASSIGN   3230<<ASSIGN
WRITE_EG
      3200**PROC     2856--CALL     3078--CALL     3104--CALL
X
       798**DCL      2884<<DOINDEX  2886>>ASSIGN
ZERO_SUP
      2775**DCL-ENT  3180--CALL
ZI$DIR.ALTKEY
      2701**DCL      2702--REDEF    2703--REDEF
ZI$DIR.AREAFID
      2667**DCL      2668--REDEF
ZI$DIR.AREA_NM
      2730**DCL      2940<>CALL
ZI$DIR.AREA_NM.DCB#
      2734**DCL      2926>>ASSIGN   2956>>ASSIGN   2977>>ASSIGN
ZI$DIR.AREA_NM.NAME.TEXT
      2733**DCL      2806<<ASSIGN   2942>>ASSIGN
ZI$DIR.DATE
      2706**DCL      2710--REDEF
PL6.E3A0      #003=ZIU$GENRCD File=ZIU$VALSET.:ZIC0TSI                           FRI 09/05/97 13:33 Page:223
ZI$DIR.DEST_SEED
      2662**DCL      2663--REDEF    2664--REDEF
ZI$DIR.ENCP_SEED
      2659**DCL      2660--REDEF    2661--REDEF    2960>>ASSIGN   2981>>ASSIGN
ZI$DIR.REPRT_ZERO
      2693**DCL      2694--REDEF    3097>>IF       3157>>IF
ZI$DIR.SCHFID
      2665**DCL      2666--REDEF
ZI$DIR.TIME
      2711**DCL      2716--REDEF

