
PL6.E3A0      #001=ZIU$WRTROL File=ZIU$WRTROL.:ZIC0TSI                           FRI 09/05/97 13:35 Page:1
        1        1        /*M* ZIU$WRTROL  OUTPUT ROUTINE FOR X$SORT IN ROLL UTILITY      */
        2        2        /*T***********************************************************/
        3        3        /*T*                                                         */
        4        4        /*T* Copyright (c) Bull HN Information Systems Inc., 1997    */
        5        5        /*T*                                                         */
        6        6        /*T***********************************************************/
        7        7        /********************************************************************
        8        8              WRITE ROLL RECORDS- OUTPUT ROUTINE TO X$SORT FOR ROLL        **
        9        9        ********************************************************************/
       10       10        ZIU$WRTROL: PROC(KEY,KEY_SIZE) NOAUTO ALTRET;
       11       11    1   DCL KEY CHAR(5) UNAL;
       12       12    1   DCL KEY_SIZE UBIN WORD;
       13       13    1   DCL 1 M_RLBK SYMREF ALIGNED,
       14       14    1         2 N,
       15       15    1           3 L UBIN BYTE UNAL,
       16       16    1           3 C CHAR(7) UNAL,
       17       17    1         2 DCB# UBIN HALF UNAL;
       18       18    1   DCL BRK_ROLL BIT(72) ALIGNED SYMREF;
       19       19
       20       20         %INCLUDE CP_6_SUBS;
       21      560         %INCLUDE ZI_GLOBAL_DBUTIL;
       22      738         %SYS_FUNC;
       23      830         %MISC_DCLS;
       24      883    1   DCL SYS_FUNC_ERRMSG ENTRY ALTRET;
       25      884    1   DCL ZERO_SUP ENTRY(3);
       26      885    1   DCL SYS_FUNC_WRIT ENTRY ALTRET;
       27      886         /* *       * *       * *       * *       * *       * *        * */
       28      887    1       IF KEY_SIZE = 0 THEN
       29      888    1           RETURN;
       30      889
       31      890    1       IF BREAK_FLAG > 0 THEN
       32      891    1           UNWIND TO BRK_ROLL;
       33      892
       34      893    1   /**/ DCBSF = M_RLBK.DCB#;
       35      894    1   /**/ BUFSF = VECTOR(KEY) ;
       36      895    1   /**/ BUFLNSF = 5;
       37      896    1   /**/ VFCSF = %NO# ;
PL6.E3A0      #001=ZIU$WRTROL File=ZIU$WRTROL.:ZIC0TSI                           FRI 09/05/97 13:35 Page:2
       38      897    1   /**/ NOTIMESF = %YES# ;
       39      898    1       CALL SYS_FUNC_WRIT ALTRET(ALT_WRTKEY);
       40      899    1       RETURN;
       41      900
       42      901
       43      902    1   ALT_WRTKEY:
       44      903    1       ERRCODESF.ERR# = 3009;
       45      904    1       MSGCODE = ERRCODE_RDEF;
       46      905    1       ERR_INSERT.CNT(0) = 10;
       47      906    1       ERR_INSERT.TEXT(0) = KEY;
       48      907    1   /**/ SUBMESSF = %YES#;
       49      908         /*   ERROR: ZIU-03009-C
       50      909         MESSAGE: Failure at key %U1. */
       51      910    1       CALL SYS_FUNC_ERRMSG;
       52      911    1       ALTRETURN;
       53      912    1   END ZIU$WRTROL;

PL6.E3A0      #001=ZIU$WRTROL File=ZIU$WRTROL.:ZIC0TSI                           FRI 09/05/97 13:35 Page:3
--  Include file information  --

   ZI_GLOBAL_DBUTIL.:ZIC0TOU  is referenced.
   CP_6_SUBS.:LIB_E05  is referenced.
   B$JIT_C.:E05TOU  was found in the system file and is never referenced.
   CP_6_C.:E05TOU  was found in the system file and is never referenced.
      No diagnostics issued in procedure ZIU$WRTROL.

   Procedure ZIU$WRTROL requires 49 words for executable code.
   Procedure ZIU$WRTROL is declared NOAUTO and requires 6 words of local(STATIC) storage.

    No errors detected in file ZIU$WRTROL.:ZIC0TSI    .

PL6.E3A0      #001=ZIU$WRTROL File=ZIU$WRTROL.:ZIC0TSI                           FRI 09/05/97 13:35 Page:4

 Object Unit name= ZIU$WRTROL                                 File name= ZIU$WRTROL.:ZIC0TOU
 UTS= SEP 05 '97 13:35:10.04 FRI                              Compiler= PL-6/E31         Sev=      00
 SharedLib= :SHARED_SYSTEM                                    Alt SharedLib=


    ****  Control sections  ****

 Sect   Type Bound  Init  Size OctSiz  Section name(segment info)
    0   Data  even  none     6      6  ZIU$WRTROL
    1   DCB   even  none     0      0  M$LO
    2   Proc  even  none    49     61  ZIU$WRTROL
    3  RoData even  none     3      3  ZIU$WRTROL

    ****  Entry defs  ****

                              Check   Calling
                             calling  sequence
  Sect OctLoc Primary Altret sequence   type   Parms  Name
     2      0   yes    yes     yes      Std        2  ZIU$WRTROL

  ****  Entry refs  ****

         Check        Calling
        calling       sequence
Altret sequence SRef   type   Args  Name
 yes     yes           Std       0 SYS_FUNC_WRIT
 yes     yes           Std       0 SYS_FUNC_ERRMSG
                       nStd      0 X66_STATIC_2
                       nStd      0 X66_SUNWIND
PL6.E3A0      #001=ZIU$WRTROL File=ZIU$WRTROL.:ZIC0TSI                           FRI 09/05/97 13:35 Page:5

  ****  Data refs  ****

  Flags:  r = read only, s = secondary
Flgs Name                             Flgs Name                             Flgs Name
     M_RLBK                                BRK_ROLL                              BLKLSF
     KEYLSF                                KEYXSF                                DCBSF
     ORGSF                                 KEYSF                                 KEYVSF
     ACSSF                                 NOTIMESF                              FUNSF
     ASNSF                                 TESTSF                                XTENSIZESF
     DISPSF                                WAITSF                                VFCSF
     FULLSF                                BKUPSF                                BUFLNSF
     BUFSF                                 SOURCESF                              DESTSF
     DATESF                                TIMESF                                UTSSF
     DAYSF                                 TSTAMPSF                              ENCRP_SEEDSF
     ERRCODESF                             MSGCODE                               INCL_ERR
     ERR_INSERT                            FIDSF_RD                              ACNT
     EXISTSF                               SHARESF                               DCBNMSF
     KEYRSF                                NO_KEYSF                              REASGNSF
     CARRY_ATTRIBUTESF                     SUBMESSF                              SPKY_OPNSF
     POSSF                                 ERRFLGSF                              MERGESF
     FSA_FLAG                              RELGSF                                UNUSED
     HELPCODE                              COUNTSF                               INDEXSF
     GAP                                   PSNSF                                 ACNTSF
     KEY_SHADWSF                           REC$                                  RB
     RE                                    IE                                    IB
     CNT                                   ICNT                                  RCNT
     SCNT                                  FIRST_SET                             RETCNT
     DMPCNT                                KCNT                                  ACNT_IDX
     I                                     J                                     K
     X                                     STEPCC                                I_O_BUF$
     OUT_INDX                              I_O_SIZE                              REC_DATA_LN
     M$LO                                  B$TCB$                                B$ROS$
     B$JIT$                                KEYFID                                I_O_KEY
     RESTART                               BREAK_FLAG                            ICHKSUM
     ITMCNT                                GAP1
PL6.E3A0      #001=ZIU$WRTROL File=ZIU$WRTROL.:ZIC0TSI                           FRI 09/05/97 13:35 Page:6


        1        1        /*M* ZIU$WRTROL  OUTPUT ROUTINE FOR X$SORT IN ROLL UTILITY      */
        2        2        /*T***********************************************************/
        3        3        /*T*                                                         */
        4        4        /*T* Copyright (c) Bull HN Information Systems Inc., 1997    */
        5        5        /*T*                                                         */
        6        6        /*T***********************************************************/
        7        7        /********************************************************************
        8        8              WRITE ROLL RECORDS- OUTPUT ROUTINE TO X$SORT FOR ROLL        **
        9        9        ********************************************************************/
       10       10        ZIU$WRTROL: PROC(KEY,KEY_SIZE) NOAUTO ALTRET;

     10  2 000000   000000 700200 xent  ZIU$WRTROL   TSX0  ! X66_STATIC_2
         2 000001   000000 000002 0                  ZERO    0,2

       11       11    1   DCL KEY CHAR(5) UNAL;
       12       12    1   DCL KEY_SIZE UBIN WORD;
       13       13    1   DCL 1 M_RLBK SYMREF ALIGNED,
       14       14    1         2 N,
       15       15    1           3 L UBIN BYTE UNAL,
       16       16    1           3 C CHAR(7) UNAL,
       17       17    1         2 DCB# UBIN HALF UNAL;
       18       18    1   DCL BRK_ROLL BIT(72) ALIGNED SYMREF;
       19       19
       20       20         %INCLUDE CP_6_SUBS;
       21      560         %INCLUDE ZI_GLOBAL_DBUTIL;
       22      738         %SYS_FUNC;
       23      830         %MISC_DCLS;
       24      883    1   DCL SYS_FUNC_ERRMSG ENTRY ALTRET;
       25      884    1   DCL ZERO_SUP ENTRY(3);
       26      885    1   DCL SYS_FUNC_WRIT ENTRY ALTRET;
       27      886         /* *       * *       * *       * *       * *       * *        * */
       28      887    1       IF KEY_SIZE = 0 THEN

    887  2 000002   000002 470400 0                  LDP0    @KEY_SIZE
         2 000003   000000 235100                    LDA     0,,PR0
         2 000004   000007 601000 2                  TNZ     s:890
PL6.E3A0      #001=ZIU$WRTROL File=ZIU$WRTROL.:ZIC0TSI                           FRI 09/05/97 13:35 Page:7

       29      888    1           RETURN;

    888  2 000005   000000 221200 0                  LDX1  ! 0
         2 000006   000001 702211                    TSX2  ! 1,X1

       30      889
       31      890    1       IF BREAK_FLAG > 0 THEN

    890  2 000007   000000 236000 xsym               LDQ     BREAK_FLAG
         2 000010   000017 604400 2                  TMOZ    s:893

       32      891    1           UNWIND TO BRK_ROLL;

    891  2 000011   000000 100600                    MLR   ! fill='000'O
         2 000012   000000 000010 xsym               ADSC9   BRK_ROLL                 cn=0,n=8
         2 000013   000004 000010 0                  ADSC9   @KEY_SIZE+2              cn=0,n=8
         2 000014   000004 237200 0                  LDAQ  ! @KEY_SIZE+2
         2 000015   000000 700200 xent               TSX0  ! X66_SUNWIND
         2 000016   000000 000200                    ZERO    0,128

       33      892
       34      893    1   /**/ DCBSF = M_RLBK.DCB#;

    893  2 000017   000002 220000 xsym               LDX0    M_RLBK+2
         2 000020   000000 740000 xsym               STX0    DCBSF

       35      894    1   /**/ BUFSF = VECTOR(KEY) ;

    894  2 000021   000000 235000 3                  LDA     0
         2 000022   000001 236000 0                  LDQ     @KEY
         2 000023   000000 755000 xsym               STA     BUFSF
         2 000024   000001 756000 xsym               STQ     BUFSF+1

       36      895    1   /**/ BUFLNSF = 5;

    895  2 000025   000005 235007                    LDA     5,DL
PL6.E3A0      #001=ZIU$WRTROL File=ZIU$WRTROL.:ZIC0TSI                           FRI 09/05/97 13:35 Page:8
         2 000026   000000 755000 xsym               STA     BUFLNSF

       37      896    1   /**/ VFCSF = %NO# ;

    896  2 000027   000000 450000 xsym               STZ     VFCSF

       38      897    1   /**/ NOTIMESF = %YES# ;

    897  2 000030   400000 236003                    LDQ     -131072,DU
         2 000031   000000 756000 xsym               STQ     NOTIMESF

       39      898    1       CALL SYS_FUNC_WRIT ALTRET(ALT_WRTKEY);

    898  2 000032   000001 631400 3                  EPPR1   1
         2 000033   000000 701000 xent               TSX1    SYS_FUNC_WRIT
         2 000034   000037 702000 2                  TSX2    ALT_WRTKEY

       40      899    1       RETURN;

    899  2 000035   000000 221200 0                  LDX1  ! 0
         2 000036   000001 702211                    TSX2  ! 1,X1

       41      900
       42      901
       43      902    1   ALT_WRTKEY:
       44      903    1       ERRCODESF.ERR# = 3009;

    903  2 000037   000000 236000 xsym  ALT_WRTKEY   LDQ     ERRCODESF
         2 000040   000002 376000 3                  ANQ     2
         2 000041   057010 276007                    ORQ     24072,DL
         2 000042   000000 756000 xsym               STQ     ERRCODESF

       45      904    1       MSGCODE = ERRCODE_RDEF;

    904  2 000043   000000 756000 xsym               STQ     MSGCODE

       46      905    1       ERR_INSERT.CNT(0) = 10;
PL6.E3A0      #001=ZIU$WRTROL File=ZIU$WRTROL.:ZIC0TSI                           FRI 09/05/97 13:35 Page:9

    905  2 000044   012000 236003                    LDQ     5120,DU
         2 000045   000000 552040 xsym               STBQ    ERR_INSERT,'40'O

       47      906    1       ERR_INSERT.TEXT(0) = KEY;

    906  2 000046   000001 470400 0                  LDP0    @KEY
         2 000047   040000 100500                    MLR     fill='040'O
         2 000050   000000 000005                    ADSC9   0,,PR0                   cn=0,n=5
         2 000051   000000 200036 xsym               ADSC9   ERR_INSERT               cn=1,n=30

       48      907    1   /**/ SUBMESSF = %YES#;

    907  2 000052   400000 236003                    LDQ     -131072,DU
         2 000053   000000 756000 xsym               STQ     SUBMESSF

       49      908         /*   ERROR: ZIU-03009-C
       50      909         MESSAGE: Failure at key %U1. */
       51      910    1       CALL SYS_FUNC_ERRMSG;

    910  2 000054   000001 631400 3                  EPPR1   1
         2 000055   000000 701000 xent               TSX1    SYS_FUNC_ERRMSG
         2 000056   000000 011000                    NOP     0

       52      911    1       ALTRETURN;

    911  2 000057   000000 221200 0                  LDX1  ! 0
         2 000060   000000 702211                    TSX2  ! 0,X1

(unnamed)
 Sect OctLoc
   3     000   000001 177640   000000 000000   777777 400007                    ............
       53      912    1   END ZIU$WRTROL;

PL6.E3A0      #001=ZIU$WRTROL File=ZIU$WRTROL.:ZIC0TSI                           FRI 09/05/97 13:35 Page:10
--  Include file information  --

   ZI_GLOBAL_DBUTIL.:ZIC0TOU  is referenced.
   CP_6_SUBS.:LIB_E05  is referenced.
   B$JIT_C.:E05TOU  was found in the system file and is never referenced.
   CP_6_C.:E05TOU  was found in the system file and is never referenced.
      No diagnostics issued in procedure ZIU$WRTROL.

   Procedure ZIU$WRTROL requires 49 words for executable code.
   Procedure ZIU$WRTROL is declared NOAUTO and requires 6 words of local(STATIC) storage.

    No errors detected in file ZIU$WRTROL.:ZIC0TSI    .
PL6.E3A0      #001=ZIU$WRTROL File=ZIU$WRTROL.:ZIC0TSI                           FRI 09/05/97 13:35 Page:11
          *** CROSS REFERENCE LISTING ***
**     DENOTES     IDENTIFIER DEFINITION
<<                 IDENTIFIER'S VALUE SET
>>                 IDENTIFIER'S VALUE USED
<>                 IDENTIFIER SET AND/OR USED
--                 IDENTIFIER REFERENCED
PL6.E3A0      #001=ZIU$WRTROL File=ZIU$WRTROL.:ZIC0TSI                           FRI 09/05/97 13:35 Page:12
          MINI XREF LISTING

ALT_WRTKEY
       903**LABEL     898--CALLALT
BREAK_FLAG
       877**DCL       890>>IF
BRK_ROLL
        18**DCL       891>>UNWIND
BUFLNSF
       768**DCL       895<<ASSIGN
BUFSF
       769**DCL       894<<ASSIGN
COUNTSF
       819**DCL       820--REDEF
DCBSF
       748**DCL       893<<ASSIGN
ENCRP_SEEDSF
       777**DCL       778--REDEF
ERRCODESF
       779**DCL       784--REDEF
ERRCODESF.ERR#
       782**DCL       903<<ASSIGN
ERRCODE_RDEF
       784**DCL       904>>ASSIGN
ERR_INSERT.CNT
       793**DCL       905<<ASSIGN
ERR_INSERT.TEXT
       794**DCL       906<<ASSIGN
FIDSF_RD
       795**DCL       796--REDEF
HELPCODE
       813**DCL       818--REDEF
ICHKSUM
       878**DCL       879--REDEF
PL6.E3A0      #001=ZIU$WRTROL File=ZIU$WRTROL.:ZIC0TSI                           FRI 09/05/97 13:35 Page:13
I_O_BUF$
       856**DCL       857--IMP-PTR
KEY
        11**DCL        10--PROC      894--ASSIGN    906>>ASSIGN
KEYVSF
       751**DCL       756--REDEF
KEYVSF.WD_ONE
       753**DCL       754--REDEF
KEY_SIZE
        12**DCL        10--PROC      887>>IF
MSGCODE
       785**DCL       786--REDEF     904<<ASSIGN
M_RLBK.DCB#
        17**DCL       893>>ASSIGN
NOTIMESF
       758**DCL       897<<ASSIGN
REC$
       837**DCL       860--IMP-PTR
REC_DATA_LN
       865**DCL       864--IMP-SIZ
SUBMESSF
       805**DCL       907<<ASSIGN
SYS_FUNC_ERRMSG
       883**DCL-ENT   910--CALL
SYS_FUNC_WRIT
       885**DCL-ENT   898--CALL
VFCSF
       765**DCL       896<<ASSIGN
