
r 22:47 11/20/97  FILE=MAKE_SIG16.:XSI                                                                    1    BMAP - B00
A                                         1  *M*  SEGSIZE  --    Return the segment size in bytes
A                                         2  *T***********************************************************
A                                         3  *T*                                                         *
A                                         4  *T* Copyright (c) Bull HN Information Systems Inc., 1989    *
A                                         5  *T*                                                         *
A                                         6  *T***********************************************************
A                                         7          ENTDEF   SEGSIZE
A                                         8          ENTDEF   C_RESTART
A                                         9  *
A                                        10  *D*     NAME:    SEGSIZE()
A                                        11  *,*     PURPOSE: To return the size in bytes of a segment.
A                                        12  *,*     DESCRIPTION:
A                                        13  *,*        The std instruction is used to obtain the bound of the
A                                        14  *,*        segment.  The bound is returned.
A                                        15  *,*
A                                        16          ENTREF   X66_MAUTO
A                                        17          ENTREF   X66_AUTO_2
A                                        18          ENTREF   X66_FARET
A                                        19          ENTREF   XBI_EXIT
A                                        20          SENTRF   MAIN
A                                        21          SENTRF   GENRU_HEAP
A                                        22          SEGREF   NULLSID
A                                        23          SEGREF   ISSID
A                                        24          SYMREF   B$JIT$
A                                        25  *
A 0 000000                               26  SEGSIZE NULL
A   000000  X 000000 7000 00             27          TSX0     X66_AUTO_2
A   000001    000010 000002              28          ZERO     8,2
A   000002    2 00006 6305 00            29          EPPR0    6,,2
A   000003    2 00004 2361 00            30          LDQ      4,,2
A   000004  X 000000 1160 07             31          CMPQ     NULLSID,DL
A   000005 (0)000007 6000 00             32          TZE      SKIP
A   000006    2 00004 4705 00            33          LDP0     4,,2
A   000007    2 00003 4715 00            34  SKIP    LDP1     3,,2
A   000010    2 00006 0515 00            35          STD1     6,,2
A   000011    2 00006 2361 00            36          LDQ      6,,2
A   000012    000020 7720 00             37          QRL      16
r 22:47 11/20/97  FILE=MAKE_SIG16.:XSI                                                                    2    BMAP - B00
A   000013    000001 0360 07             38          ADLQ     1,DL
A   000014    0 00000 7561 00            39          STQ      0,,0
A   000015  X 000000 7000 00             40          TSX0     X66_FARET
A                                        41  *
A                                        42  *
A                                        43  * C_RESTART   -- Restart a C run-unit when started from GENRU
A                                        44  *
A   000016                               45  C_RESTART NULL
A   000016  X 000000 7000 00             46          TSX0     X66_MAUTO
A   000017    000024 000000              47          ZERO     20,0
A   000020    2 00003 6305 00            48          EPPR0    3,,2
A   000021 (0)000042 6314 00             49          EPPR1    NOARG
A   000022  X 000000 7010 00             50          TSX1     GENRU_HEAP
A   000023    000000 0110 00             51          NOP      0
A   000024    2 00003 4501 00            52          STZ      3,,2
A   000025  X 000000 2360 07             53          LDQ      NULLSID,DL
A   000026    2 00005 7561 00            54          STQ      5,,2
A   000027    2 00005 6315 00            55          EPPR1    5,,2
A   000030    2 00004 4515 00            56          STP1     4,,2
A   000031    2 00003 6305 00            57          EPPR0    3,,2
A   000032 (0)000044 6314 00             58          EPPR1    TWOARG
A   000033  X 000000 7010 00             59          TSX1     MAIN
A   000034    000000 0110 00             60          NOP      0
A   000035    2 00003 4501 00            61          STZ      3,,2
A   000036    2 00003 6305 00            62          EPPR0    3,,2
A   000037 (0)000043 6314 00             63          EPPR1    ONEARG
A   000040  X 000000 7010 00             64          TSX1     XBI_EXIT
A   000041    000000 0110 00             65          NOP      0
A   000042    000000 000000              66  NOARG   ZERO     0,0
A   000043    000001 000000              67  ONEARG  ZERO     1,0
A   000044    000002 000000              68  TWOARG  ZERO     2,0
A                                        69          END
A
A  CONTROL SECTION TABLE
A
A   0 CODE   EVEN  000045
A   1 RODATA EVEN  000000 LITERALS
r 22:47 11/20/97  FILE=MAKE_SIG16.:XSI                                                                    3    BMAP - B00
A
A      15 SYMBOLS
A
A       0 MACROS
A
A    SYMBOL SPACE USED   113 WORDS
A     MACRO SPACE USED     0 WORDS
A   INPUT RECORDS READ   138
A STATEMENTS PROCESSED    54
A         ELAPSED TIME  0:00.68
A             CPU TIME     0.45 SEC.
A        ASSEMBLY RATE  7200 STATEMENTS/CPU MIN.
A
A      NO ERRORS

