VERSION E05

 08:24 07/29/97  FILE=:SYSLIB.:E05TSI                                                                    1    BMAP - B00
                                         1  *M*   MODULE: :SYSLIB
                                         2  *T***********************************************************
                                         3  *T*                                                         *
                                         4  *T* Copyright (c) Bull HN Information Systems Inc., 1997    *
                                         5  *T*                                                         *
                                         6  *T***********************************************************
                                         7        ENTDEF    6XSO$BREF$$$$$$$$$$$$$$$$$$$$$
                                         8        ENTREF    X66_REL_AUTO
                                         9        SEGREF    ROSID
                                        10        SEGREF    ISSID
                                        11  *
             000000000001               12  TREE.DISP            EQU  1
             000000000000               13  TREE.ENTRY.NAME$     EQU     0
             000000000003               14  TREE.ENTRY.PADDR     EQU     3   LH
             000000000003               15  TREE.ENTRY.PSIZE     EQU     3   RH
             000000000004               16  TREE.ENTRY.DADDR     EQU     4   LH
             000000000004               17  TREE.ENTRY.DSIZE     EQU     4   RH
             000000000005               18  TREE.ENTRY.ENTRY$    EQU     5
             000000000006               19  TREE.ENTRY.SIZE      EQU  6
             000000000003               20  TREE.HEADER.SIZE     EQU  3
             000000000000               21  TREE.HEADER.NODES    EQU     0   LH
                                        22  *
             000000000000               23  PR0   EQU  0
                                        24  *
 0 000000                               25        USE       6XSO$BREF$$$$$$$$$$$$$$$$$$$$$,1
          (0)000000000000               26  6XSO$BREF$$$$$$$$$$$$$$$$$$$$$ EQU  *
   000000 (2)000005 7540 00             27        STI       SAVEIND        SAVE INDICATORS
   000001 (2)000002 7570 00             28        STAQ      SAVEAQ         SAVE AQ
                                        29  *     TSX1      X66_REL_AUTO
   000002    000000 0110 00             30        NOP
   000003    000000 2360 10             31        LDQ       0,X0           GET BREF ENCODED WORD
   000004 (0)000042 3760 00             32        ANQ       ADR.MASK       STRIP NODE # INFORMATION FROM IT
   000005 (0)000041 2760 00             33        ORQ       TRA.SKEL       OR IN THE TRANSFER OP CODE
   000006 (2)000000 7560 00             34        STQ       RUN.TIME       AND STUFF IT AWAY
   000007    000000 2360 10             35        LDQ       0,X0           GET THE ENCODED WORD AGAIN
   000010    000010 7320 00             36        QRS       8              RIGHT JUSTIFY THE NODE #
   000011    001777 3760 07             37        ANQ       =O1777,DL      STRIP OFF THE LEFT ADDRESSING BITS
 08:24 07/29/97  FILE=:SYSLIB.:E05TSI                                                                    2    BMAP - B00
   000012 (2)000004 4504 00             38        STP0      SAVEPR0        SAVE PR0
   000013  X 000000 4704 07             39        LDP0      ROSID,DL       GET POINTER TO ROS
   000014    0 00001 4705 00            40        LDP0      TREE.DISP,,PR0 GET POINTER TO TREE TABLE
   000015    000006 4020 07             41        MPY       TREE.ENTRY.SIZE,DL  CALCULATE OFFSET IN ENTRIES
   000016    0 00004 2351 06            42        LDA       TREE.HEADER.SIZE+1,QL,PR0  GET FLAGS WORD
   000017 (0)000022 6050 00             43        TPL       DO.NODE.LOAD        >=0 => IT IS NOT NOW_IN
   000020 (0)000043 3750 00             44        ANA       PATH.MASK           CHECK IF ENTIRE PATH IS IN
   000021 (0)000035 6000 00             45        TZE       LEAVE               GO IF SO
          (0)000000000022               46  DO.NODE.LOAD    EQU  *
   000022    0 00003 4705 06            47        LDP0      TREE.HEADER.SIZE,QL,PR0  POINT AT NAME/TEXTC
   000023    0 00000 2361 00            48        LDQ       0,,PR0         GET FIRST WORD OF NAME
   000024    000033 7320 00             49        QRS       27             RIGHT JUSTIFY THE COUNT
   000025    000020 7360 00             50        QLS       16             POSITION COUNT INTO BOUND FIELD
   000026    135640 0760 07             51        ADQ       =O135640,DL    TURN IT INTO THE FIRST WORD OF THE VECTOR
   000027 (2)000010 7560 00             52        STQ       FPT.OLAY       STUFF IT AWAY
   000030 (2)000011 4504 00             53        STP0      FPT.NAME       PLACE POINTER PART OF THE NAME VECTOR
   000031 (2)000010 6304 00             54        EPPR0     FPT.OLAY       POINT AT THE FPT
   000032    000004 713400              55        VFD       18/4,O18/713400     CLIMB     4
   000033    400400401760               56        OCT       400400401760
   000034    000000 0110 00             57        NOP       0              ALTRET ADDRESS
          (0)000000000035               58  LEAVE EQU       *
   000035 (2)000004 4704 00             59        LDP0      SAVEPR0        RESTORE PR0
   000036 (2)000002 2370 00             60        LDAQ      SAVEAQ         RESTORE AQ
   000037 (2)000005 6340 00             61        LDI       SAVEIND        RESTORE INDICATORS
   000040 (2)000000 7100 00             62        TRA       RUN.TIME
          (0)000000000041               63  TRA.SKEL   EQU  *
   000041    000000 7100 00             64        TRA       0              SKELETON TRANSFER
                                        65  *
                                        66  *     MASKS
                                        67  *
          (0)000000000042               68  ADR.MASK   EQU  *
   000042    777777000377               69        OCT       777777000377
          (0)000000000043               70  PATH.MASK  EQU  *
   000043    000004000000               71        OCT       000004000000
                                        72        EVEN
          (0)000000000044               73  CANCEL     EQU  *
   000044    000000 000000              74        ZERO      0,0            V - CANCEL: '0'B
 08:24 07/29/97  FILE=:SYSLIB.:E05TSI                                                                    3    BMAP - B00
   000045    000000 000000              75        ZERO      0,0
                                        76  *
                                        77  *
                                        78  *

 08:24 07/29/97  FILE=:SYSLIB.:E05TSI                                                                    4    BMAP - B00
                                        79         EJECT
                                        80  *
                                        81  *D*    ROUTINE TO RETURN INFO ABOUT AN OVERLAY NODE.
                                        82  *D*    CALL XSO$NODEINFO (NODEP$,NODED$,NODEENT,NODEPSIZ,
                                        83  *D*            NODEDSIZ,NODENAME) ALTRET(NONODE);
                                        84  *
                                        85  *
                                        86         ENTDEF  XSO$NODEINFO
   000046                               87  XSO$NODEINFO NULL
   000046    1 00000 2201 00            88         LDX0    0,,1
   000047    000006 1000 03             89         CMPX0   6,DU
   000050    000000 6040 11             90         TMI     0,1             NOT ENUF ARGS, ALTRETURN
   000051  X 000000 4714 07             91         LDP1    ROSID,DL
   000052    1 00001 7201 00            92         LXL0    TREE.DISP,,1
   000053  X 000000 1000 03             93         CMPX0   ROSID,DU
   000054    000000 6010 11             94         TNZ     0,1             NO TREE, ALT
   000055    1 00001 4715 00            95         LDP1    TREE.DISP,,1    PTR TO TREE TABLE
   000056    1 00000 2201 00            96         LDX0    TREE.HEADER.NODES,,1   NUM OF NODES
   000057    1 00003 5075 00            97         AWD     TREE.HEADER.SIZE,,1   INC PAST HEADER
   000060                               98  NODELOOP NULL
   000060    000001 1200 03             99         SBLX0   1,DU
   000061    000000 6044 11            100         TMOZ    0,1             CAN'T FIND NODE, ALT
   000062    1 00006 5075 00           101         AWD     TREE.ENTRY.SIZE,,1   INC TO NEXT NODE
   000063    1 00000 4735 00           102         LDP3    TREE.ENTRY.NAME$,,1  PTR TO NAME
   000064    0 00005 4745 00           103         LDP4    5,,0            NODENAME DESIRED
   000065    3 00000 2361 00           104         LDQ     0,,3
   000066    000033 7720 00            105         QRL     27              SIZE OF NODENAME
   000067    000 0 000 1015 00         106         MRL     (1)
   000070    4 00000 0 0 0 0001        107         ADSC9   0,0,1,4
   000071 (2)000002 0 0 0 0002         108         ADSC9   SAVEAQ,0,2
   000072 (2)000002 2220 00            109         LDX2    SAVEAQ          SIZE OF DESIRED NODENAME
   000073    040 0 140 1065 40         110         CMPC    (1,1),(1,1),040 COMPARE NAMES
   000074    3 00000 2 0 0 0006        111         ADSC9   0,1,Q,3
   000075    4 00000 2 0 0 0012        112         ADSC9   0,1,X2,4
   000076 (0)000060 6010 00            113         TNZ     NODELOOP        NOT THIS ONE TRY NEXT
                                       114  *                              WE FOUND THE NODE
   000077    1 00003 2361 00           115         LDQ     TREE.ENTRY.PADDR,,1
 08:24 07/29/97  FILE=:SYSLIB.:E05TSI                                                                    5    BMAP - B00
   000100    000000 6334 02            116         EPPR3   0,QU
   000101    0 00000 4745 00           117         LDP4    0,,0            @NODEP$
   000102    4 00000 4535 00           118         STP3    0,,4
                                       119  *
   000103    0 00003 4745 00           120         LDP4    3,,0            @NODEPSIZ
   000104    777777 3760 07            121         ANQ     -1,DL
   000105    4 00000 7561 00           122         STQ     0,,4
                                       123  *
   000106    1 00004 2361 00           124         LDQ     TREE.ENTRY.DADDR,,1
   000107    000000 6334 02            125         EPPR3   0,QU
   000110    0 00001 4745 00           126         LDP4    1,,0            @NODED$
   000111    4 00000 4535 00           127         STP3    0,,4
                                       128  *
   000112    0 00004 4745 00           129         LDP4    4,,0            @NODEDSIZ
   000113    777777 3760 07            130         ANQ     -1,DL
   000114    4 00000 7561 00           131         STQ     0,,4
                                       132  *
   000115    1 00005 2361 00           133         LDQ     TREE.ENTRY.ENTRY$,,1
   000116    0 00002 4745 00           134         LDP4    2,,0            @NODEENT
   000117    4 00000 7561 00           135         STQ     0,,4
                                       136  *
   000120    000001 7100 11            137         TRA     1,1

 08:24 07/29/97  FILE=:SYSLIB.:E05TSI                                                                    6    BMAP - B00
                                       138         EJECT
 2 000000                              139        USE  IN.DATA,0
          (2)000000000000              140  RUN.TIME   EQU  *
   000000    000000 7100 00            141        TRA  0
   000001    000000 0110 00            142        EVEN
   000002
          (2)000000000002              143  SAVEAQ     EQU  *
   000002    000000 000000             144        ZERO      0,0
   000003    000000 000000             145        ZERO      0,0
          (2)000000000004              146  SAVEPR0    EQU  *
   000004    000000 000000             147        ZERO      0,0
          (2)000000000005              148  SAVEIND    EQU  *
   000005    000000 000000             149        ZERO      0,0
          (2)000000000006              150  PR0.TEMP   EQU  *
   000006    000000 000000             151        ZERO      0,0
   000007    000000 0110 00            152        EVEN
   000010
          (2)000000000010              153  FPT.OLAY   EQU  *
   000010    000000 000000             154        ZERO      0,0            WORD 0 OF NAME VECTOR
          (2)000000000011              155  FPT.NAME   EQU  *
   000011    000000 000000             156        ZERO      0,0            POINTER PART OF NAME VECTOR
                                       157  *
   000012    000001 777640             158        VFD       18/1,O18/777640     WORD 0 OF V VECTOR
   000013 (0)000044 X 000000           159        VFD       18/CANCEL,18/ISSID  POINTER PART OF V VECTOR
                                       160  *
                                       161        END

  CONTROL SECTION TABLE

   0 CODE   EVEN  000121 6XSO$BREF$$$$$$$$$$$$$$$$$$$$$
   1 RODATA EVEN  000000 LITERALS
   2 DATA   EVEN  000014 IN.DATA

 08:24 07/29/97  FILE=:SYSLIB.:E05TSI         SYMBOL TABLE                                               7    BMAP - B00
 52101000 000000000000 6XSO$BREF$$$$$$$$$$$$$$$$$$$$$       7       *26
 41101000 000000000042 ADR.MASK        32       *68
 41101000 000000000044 CANCEL         *73       159
 41101000 000000000022 DO.NODE.LOAD    43       *46
 41101002 000000000011 FPT.NAME        53      *155
 41101002 000000000010 FPT.OLAY        52        54      *153
 03601001 000000000000 ISSID          *10       159
 41101000 000000000035 LEAVE           45       *58
 01101000 000000000060 NODELOOP       *98       113
 41101000 000000000043 PATH.MASK       44       *70
 41000000 000000000000 PR0            *23        40        42        47        48
 40101002 000000000006 PR0.TEMP      *150
 03601000 000000000000 ROSID           *9        39        91        93
 41101002 000000000000 RUN.TIME        34        62      *140
 41101002 000000000002 SAVEAQ          28        60       108       109      *143
 41101002 000000000005 SAVEIND         27        61      *148
 41101002 000000000004 SAVEPR0         38        59      *146
 41101000 000000000041 TRA.SKEL        33       *63
 41000000 000000000001 TREE.DISP      *12        40        92        95
 41000000 000000000004 TREE.ENTRY.DADDR         *16       124
 40000000 000000000004 TREE.ENTRY.DSIZE         *17
 41000000 000000000005 TREE.ENTRY.ENTRY$        *18       133
 41000000 000000000000 TREE.ENTRY.NAME$         *13       102
 41000000 000000000003 TREE.ENTRY.PADDR         *14       115
 40000000 000000000003 TREE.ENTRY.PSIZE         *15
 41000000 000000000006 TREE.ENTRY.SIZE          *19        41       101
 41000000 000000000000 TREE.HEADER.NODES        *21        96
 41000000 000000000003 TREE.HEADER.SIZE         *20        42        47        97
 02201000 000000000000 X66_REL_AUTO    *8
 12101000 000000000046 XSO$NODEINFO    86       *87

      30 SYMBOLS

       0 MACROS

    SYMBOL SPACE USED   401 WORDS
     MACRO SPACE USED     0 WORDS
 08:24 07/29/97  FILE=:SYSLIB.:E05TSI         SYMBOL TABLE                                               8    BMAP - B00
   INPUT RECORDS READ   322
 STATEMENTS PROCESSED   170
         ELAPSED TIME  0:03.96
             CPU TIME     1.25 SEC.
        ASSEMBLY RATE  8160 STATEMENTS/CPU MIN.

      NO ERRORS

