VERSION E05

PL6.E3A0      #001=ALA$LOGON File=ALA$LOGON.:E05TSI                              TUE 07/29/97 08:27 Page:1
        1        1        /*M* ALA$LOGON   MAIN ROUTINE FOR LOGON.              */
        2        2        /*T***********************************************************/
        3        3        /*T*                                                         */
        4        4        /*T* Copyright (c) Bull HN Information Systems Inc., 1997    */
        5        5        /*T*                                                         */
        6        6        /*T***********************************************************/
        7        7        /*X*  DMC,DMR,PLM=6,IND=4,SDI=2,CTI=8,DCI=4,CSU=2,ECU=2,ENI=4,
        8        8              THI=0,DTI=0,IAD=0                              */
        9        9                                                              /**/
       10       10        ALA$LOGON: PROC MAIN ;
       11       11                                                              /**/
       12       12        %EJECT ;
PL6.E3A0      #001=ALA$LOGON File=ALA$LOGON.:E05TSI                              TUE 07/29/97 08:27 Page:2
       13       13        /*********************************************************************/
       14       14        /*   INCLUDE FILES   INCLUDE FILES   INCLUDE FILES   INCLUDE FILES   */
       15       15        /*********************************************************************/
       16       16                                                              /**/
       17       17              %INCLUDE AS_SUPER_C ;
       18      452              %INCLUDE KL_SUPER_C ;
       19     3354              %INCLUDE B$JIT ;
       20     3644              %INCLUDE B$TABLES_C;
       21     3752              %INCLUDE CP_6 ;
       22     3833              %INCLUDE CP_6_SUBS ;
       23     4373              %INCLUDE AL_SUBS_C ;
       24     4382              %INCLUDE AL_PERR_C ;
       25     4404              %INCLUDE AL_MACROS_C ;
       26     4430              %INCLUDE CP_MACROS_C ;
       27     5182              %INCLUDE AL_LOGON_R ;
       28     5214              %INCLUDE JG_GHOSTS_C ;
       29     5304        %EJECT ;
PL6.E3A0      #001=ALA$LOGON File=ALA$LOGON.:E05TSI                              TUE 07/29/97 08:27 Page:3
       30     5305        /*********************************************************************/
       31     5306        /*   CONSTANT DATA   CONSTANT DATA   CONSTANT DATA   CONSTANT DATA   */
       32     5307        /*********************************************************************/
       33     5308                                                              /**/
       34     5309    1   DCL FCG UBIN(18) CONSTANT INIT(4865) ;          /*  'ALA' IN SIXBIT.  */
       35     5310                                                            /*   SCRATCH :USERS RECORD.   */
       36     5311              %AS_USERS(  STR_NAME = DF_USERS ,
       37     5312                          STCLASS = CONSTANT ) ;
       38     5490    1   DCL SUSMES CHAR(0) CONSTANT INIT('aProgram held. Reconnect');
       39     5491    1   DCL SUSYNDMES CHAR(0) CONSTANT INIT('@(Y/N/D)? ') ;
       40     5492    1   DCL 1 NO_MACCOUNT ALIGNED CONSTANT,
       41     5493    1         2 CNT UBIN BYTE UNAL INIT(4),
       42     5494    1         2 ACCT CHAR(8) UNAL INIT('NONE'),
       43     5495    1         2 NAME CHAR(12) UNAL INIT( ' ' );
       44     5496        %VLP_ERRCODE(FPTN=ALA_E$ASUSER_ERR,FCG='AL',MID='A',MON='0'B,ERR#=E$ASUSER_ERR,SEV=0
              5496            ,STCLASS=CONSTANT);
       45     5541        %VLP_ERRCODE(FPTN=ALA_E$DSUSER_ERR,FCG='AL',MID='A',MON='0'B,ERR#=E$DSUSER_ERR,SEV=0
              5541            ,STCLASS=CONSTANT);
       46     5586        %VLP_ERRCODE(FPTN=ALA_E$USERS_FILE_ERR,FCG='AL',MID='A',MON='0'B,ERR#=
              5586            E$USERS_FILE_ERR,SEV=0,STCLASS=CONSTANT);
       47     5631        %VLP_ERRCODE(FPTN=ALA_E$WRITE_S_ERR,FCG='AL',MID='A',MON='0'B,ERR#=E$WRITE_S_ERR,SEV
              5631            =0,STCLASS=CONSTANT);
       48     5676        %VLP_ERRCODE(FPTN=ALA_E$MAXC_EXCEEDED,FCG='AL',MID='A',MON='0'B,ERR#=E$MAXC_EXCEEDED
              5676            ,SEV=0,STCLASS=CONSTANT);
       49     5721        %VLP_ERRCODE(FPTN=ALA_E$PMAXC_EXCEEDED,FCG='AL',MID='A',MON='0'B,ERR#=
              5721            E$PMAXC_EXCEEDED,SEV=0,STCLASS=CONSTANT);
       50     5766        %VLP_ERRCODE(FPTN=ALA_E$NO_MASTER,FCG='AL',MID='A',MON='0'B,ERR#=E$NO_MASTER,SEV=0,
              5766            STCLASS=CONSTANT);
       51     5811        %VLP_ERRCODE(FPTN=ALA_E$BLANK_ACCT_UNAME,FCG='AL',MID='A',MON='0'B,
       52     5812                      ERR#=E$BLANK_ACCT_UNAME,SEV=0,STCLASS=CONSTANT );
       53     5857        %VLP_ERRCODE(FPTN=ALA_E$SETUP_FORCED, FCG='AL', MID='A', MON='0'B,
       54     5858                      ERR#=E$SETUP_FORCED, SEV=0, STCLASS=CONSTANT );
       55     5903        %B$XL_LOWER_UR;
       56     5907        %B$SR_NON_ZERO;
       57     5911        %EJECT ;
PL6.E3A0      #001=ALA$LOGON File=ALA$LOGON.:E05TSI                              TUE 07/29/97 08:27 Page:4
       58     5912        /*********************************************************************/
       59     5913        /*   AUTO DATA       AUTO DATA       AUTO DATA       AUTO DATA       */
       60     5914        /*********************************************************************/
       61     5915                                                              /**/
       62     5916                                                              /*   :USERS RECORD.   */
       63     5917              %AS_USERS (STR_NAME = AS_USERS, STCLASS = AUTO) ;
       64     6095    1   DCL OUT_BUF CHAR(80) ;
       65     6096    1   DCL SUSMES_ANS CHAR(10);
       66     6097    1   DCL ARS UBIN ;
       67     6098    1   DCL 1 USERS_KEY ,
       68     6099    1         2 CNT UBIN(9) UNAL ,
       69     6100    1         2 TEXT CHAR(20) UNAL ;
       70     6101    1   DCL 1 LIMIT_KEY ,
       71     6102    1         2 CNT UBIN(9) UNAL ,
       72     6103    1         2 TEXT CHAR(20) UNAL ;
       73     6104    1   DCL TEXT$BUF(0:19) CHAR(1) BASED (TEXT$) UNAL ;
       74     6105    1   DCL 1 TEXT$C BASED,
       75     6106    1         2 L UBIN BYTE UNAL,
       76     6107    1         2 C CHAR(TEXT$C.L);
       77     6108    1   DCL DCB$ PTR ;
       78     6109    1   DCL KEY$ PTR ;
       79     6110    1   DCL TEXT$ PTR ;
       80     6111    1   DCL I UBIN ;
       81     6112    1   DCL UMAX SBIN ;                                 /*   MAXIMUM CHARGES.   */
       82     6113    1   DCL UACCUM UBIN ;                               /*   ACCUMULATED CHARGES.   */
       83     6114    1   DCL UBKACC BIT(1) ;                             /*   BANKRUPTCY ACCESS.   */
       84     6115    1   DCL TEMP_BIT BIT (1) ALIGNED;
       85     6116    1   DCL NOSETUP BIT(1) ALIGNED; /*BIT INDICATING IF NS WAS SET ON LOGON*/
       86     6117    1   DCL NOHEADER BIT(1) ALIGNED; /*BIT INDICATING IF NH WAS SET ON LOGON*/
       87     6118    1   DCL 1 MASTER_ACCT ,
       88     6119    1         2 CNT UBIN(9) UNAL ,
       89     6120    1         2 ACCT CHAR(8) UNAL ,
       90     6121    1         2 NAME CHAR(12) UNAL ;
       91     6122    1   DCL RE_BUDGET SBIN ;
       92     6123    1   DCL MODE UBIN WORD ;
       93     6124    1   DCL CP_SLEAZE_SET BIT(1) ;
              6124            /* Set to the Initial value of B$JIT.CPFLAGS1 & %CP_SLEAZE# */
PL6.E3A0      #001=ALA$LOGON File=ALA$LOGON.:E05TSI                              TUE 07/29/97 08:27 Page:5
       94     6125              %F$DCB( DCBN = F$DCB ) ;
       95     6182              %VLP_NAME(  FPTN = CP_NAME ,
       96     6183                          LEN = 31 ,
       97     6184                          STCLASS = AUTO ) ;
       98     6211    1   DCL CP_ACCT CHAR(8) ;
       99     6212    1   DCL CP_PASSW CHAR(8) ;
      100     6213    1   DCL 1 ERR_CODE AUTO ,
      101     6214    1         2 FCG_MID UBIN(18) UNAL ,
      102     6215    1         2 CODE UBIN(15) UNAL ,
      103     6216    1         2 SEV UBIN(3) UNAL ;
      104     6217    1   DCL AL_ACCT CHAR(8) ;
      105     6218    1   DCL SYS_GHOST BIT(1) ;
      106     6219        %LIST ;
      107     6220        %SET LISTSUB='1'B;
      108     6221                                                              /**/
      109     6222              %AL$TSTAMP ;
              6223                                                /*   TIME STAMP FOR B$JIT.LOGONTIME.  */
              6224    1         DCL 1 AL$TSTAMP AUTO ,
              6225    1               2 UTS UBIN WORD ,
              6226    1               2 TIME CHAR(11) UNAL ,
              6227    1               2 DAY  CHAR(3) UNAL ,
              6228    1               2 DATE CHAR(10) UNAL ;
      110     6230             /* The following is really for B$JIT.LAST_LOGON_TIME, ignore the comment. */
      111     6231              %AL$TSTAMP (STNAME=AL$LLT_TSTAMP);
              6232                                                /*   TIME STAMP FOR B$JIT.LOGONTIME.  */
              6233    1         DCL 1 AL$LLT_TSTAMP AUTO ,
              6234    1               2 UTS UBIN WORD ,
              6235    1               2 TIME CHAR(11) UNAL ,
              6236    1               2 DAY  CHAR(3) UNAL ,
              6237    1               2 DATE CHAR(10) UNAL ;
      112     6239              %CP_LIMREC( NAME = CP_LIMREC ,
      113     6240                          STCLASS =" ") ;
              6241    1   DCL 1 CP_LIMREC ALIGNED,
              6242    1         2 USER_MAX,                       /*JOB MAXIMUM*/
              6243    1           3 MAXCORE SBIN HALF UNAL,
              6244    1           3 FBUL SBIN HALF UNAL,
              6245    1           3 REMLO SBIN WORD,
PL6.E3A0      #001=ALA$LOGON File=ALA$LOGON.:E05TSI                              TUE 07/29/97 08:27 Page:6
              6246    1           3 REMCPO SBIN WORD,
              6247    1           3 REMDO SBIN WORD,
              6248    1           3 PRDPRM SBIN,
              6249    1           3 MAXTMPDP SBIN,
              6250    1           3 MRT SBIN,
              6251    1         2 CUR_MAX,                        /*CURRENT-DEFAULT MAXIMUM*/
              6252                                                /*= TO JIT @ LOGON TIME*/
              6253    1           3 MAXCORE SBIN HALF UNAL,
              6254    1           3 FBUL SBIN HALF UNAL,
              6255    1           3 REMLO SBIN WORD,
              6256    1           3 REMCPO SBIN WORD,
              6257    1           3 REMDO SBIN WORD,
              6258    1           3 PRDPRM SBIN,
              6259    1           3 MAXTMPDP SBIN,
              6260    1           3 MRT SBIN,
              6261    1         2 STEP_MAX,                       /*JOB STEP MAXIMUM*/
              6262    1           3 MAXCORE SBIN HALF UNAL,
              6263    1           3 FBUL SBIN HALF UNAL,
              6264    1           3 REMLO SBIN WORD,
              6265    1           3 REMCPO SBIN WORD,
              6266    1           3 REMDO SBIN WORD,
              6267    1           3 PRDPRM SBIN,
              6268    1           3 MAXTMPDP SBIN,
              6269    1           3 MRT SBIN,
              6270    1         2 CUMUL,                          /*JOB CUMULATIVE*/
              6271    1           3 REMLO SBIN WORD,
              6272    1           3 REMCPO SBIN WORD,
              6273    1           3 REMDO SBIN WORD,
              6274    1           3 MAXTMPDP SBIN,
              6275    1           3 PRDPRM SBIN,
              6276    1           3 MRT SBIN;
      114     6278                                                              /**/
      115     6279        %PLIST ;
      116     6280        %EJECT ;
PL6.E3A0      #001=ALA$LOGON File=ALA$LOGON.:E05TSI                              TUE 07/29/97 08:27 Page:7
      117     6281        /*********************************************************************/
      118     6282        /*   FPTS            FPTS            FPTS            FPTS            */
      119     6283        /*********************************************************************/
      120     6284                                                              /**/
      121     6285              %FPT_CPEXIT(  FPTN = FPT$CPEXIT ,
      122     6286                            STCLASS = AUTO ) ;
      123     6312            %FPT_CPEXIT(  FPTN = FPT_CPLOGOFF ,
      124     6313                          STCLASS ="CONSTANT SYMDEF");
      125     6339            %FPT_READ(FPTN = FPT_READ_SUSMES,
      126     6340                      DCB  = M$UC,
      127     6341                      STCLASS = CONSTANT);
      128     6380            %FPT_READ (FPTN = FPT$READ_SUSMES,
      129     6381                       STCLASS = AUTO);
      130     6420              %FPT_OPEN ( FPTN = FPT_OPEN_UC ,
      131     6421                          DCB = M$UC ,
      132     6422                          STCLASS = CONSTANT ) ;
      133     6531              %FPT_PROMPT(  FPTN = FPT_PROMPT_RESET, STCLASS = CONSTANT ) ;
      134     6559              %FPT_PROMPT(  FPTN = FPT_PROMPT_SUSYNDMES ,
      135     6560                            PROMPT = SUSYNDMES ,
      136     6561                            DCB = M$UC ,
      137     6562                            TRANS = NO ,
      138     6563                            VFC = YES ,
      139     6564                            STCLASS = CONSTANT ) ;
      140     6592              %FPT_WRITE( FPTN = FPT_WRITE_SUSMES ,
      141     6593                          BUF = SUSMES ,
      142     6594                          DCB = M$UC ,
      143     6595                          VFC = YES ,
      144     6596                          STCLASS = CONSTANT ) ;
      145     6627              %FPT_OCMSG (  FPTN = FPT_OCMSG ,
      146     6628                            MSG = USERS_NO_VAL ,
      147     6629                            OCTYPE = ADCOM ,
      148     6630                            STCLASS = CONSTANT ) ;
      149     6646         %FPT_TRAP ( ARITHMETIC=ALA$TRAP,ERRORS=ALA$TRAP,PROGRAMMED=ALA$TRAP,
      150     6647                    PMME=ALA$TRAP,DIVIDE_CHECK=TRAP,OVERFLOW=TRAP,COMMAND=TRAP,
      151     6648                    IPR=TRAP,LOCKUP=TRAP,MEMORY=TRAP,MISSING_PAGE=TRAP,
      152     6649                    MISSING_SEG=TRAP,SECURITY_1=TRAP,SECURITY_2=TRAP,
      153     6650                    DERAIL=TRAP,FAULT_TAG=TRAP,MME=TRAP,STCLASS=CONSTANT);
PL6.E3A0      #001=ALA$LOGON File=ALA$LOGON.:E05TSI                              TUE 07/29/97 08:27 Page:8
      154     6673        %EJECT ;
PL6.E3A0      #001=ALA$LOGON File=ALA$LOGON.:E05TSI                              TUE 07/29/97 08:27 Page:9
      155     6674        /*********************************************************************/
      156     6675        /*   ENTRIES         ENTRIES         ENTRIES         ENTRIES         */
      157     6676        /*********************************************************************/
      158     6677                                                              /**/
      159     6678    1   DCL ALA$OPEN_USERS ENTRY ALTRET ;
      160     6679    1   DCL ALA$BANNER2_STAR_S ENTRY (3) ALTRET ;
      161     6680    1   DCL ALA$CLOSE_USERS ENTRY ALTRET ;
      162     6681    1   DCL ALA$READ_USERS ENTRY(2) ALTRET ;
      163     6682    1   DCL ALA$GETUSERS ENTRY ALTRET ;
      164     6683    1   DCL ALA$LOG_ON ENTRY ;
      165     6684    1   DCL ALA$CPEXIT ENTRY(1) ;
      166     6685    1   DCL ALA$ERROR ENTRY(4) ;
      167     6686    1   DCL ALA$READ_SEQ_USERS ENTRY(2) ALTRET ;
      168     6687    1   DCL ALA$HEADING ENTRY(1) ;
      169     6688    1   DCL ALA$TIME ENTRY(1) ;
      170     6689    1   DCL ALA$OPEN_STAR_A ENTRY(1) ALTRET ;
      171     6690    1   DCL ALA$OPEN_STAR_S ENTRY(1) ALTRET ;
      172     6691    1   DCL ALA$CLOSE_STAR ENTRY ALTRET ;
      173     6692    1   DCL ALA$GETSTARS ENTRY ALTRET ;
      174     6693    1   DCL ALA$WRITE_STAR ENTRY(5) ALTRET ;
      175     6694    1   DCL ALA$WRITE_USERS ENTRY(2) ALTRET ;
      176     6695    1   DCL ALA$YESNOD ENTRY(2) ALTRET ;
      177     6696    1   DCL ALA$TRAP ENTRY ASYNC;
      178     6697    1   DCL ALA$SYS_ERROR ENTRY;
      179     6698        %EJECT ;
PL6.E3A0      #001=ALA$LOGON File=ALA$LOGON.:E05TSI                              TUE 07/29/97 08:27 Page:10
      180     6699        /*********************************************************************/
      181     6700        /*   SYS DEFAULTS    SYS DEFAULTS    SYS DEFAULTS    SYS DEFAULTS    */
      182     6701        /*********************************************************************/
      183     6702                                                              /**/
      184     6703    1   DCL SYS_UMAX SBIN WORD CONSTANT INIT(50000) ;
      185     6704        %EJECT ;
PL6.E3A0      #001=ALA$LOGON File=ALA$LOGON.:E05TSI                              TUE 07/29/97 08:27 Page:11
      186     6705        /*********************************************************************/
      187     6706        /*   PROCEDURE       PROCEDURE       PROCEDURE       PROCEDURE       */
      188     6707        /*********************************************************************/
      189     6708                                                              /**/
      190     6709    1   BEGIN: ;
      191     6710                                                     /**/
      192     6711    1         LIMIT_KEY.CNT = 5;
      193     6712    1         LIMIT_KEY.TEXT = 'LIMIT';
      194     6713    1         DCB$ = DCBADDR(DCBNUM(M$UC));
      195     6714    1         MODE = B$JIT.MODE;
      196     6715    1         AL_ACCT = B$JIT.ACCN;
      197     6716    2         CALL M$TRAP( FPT_TRAP ) WHENALTRETURN DO;
      198     6717    2             END;
      199     6718    1         AL$TSTAMP.UTS = B$JIT.LOGONTIME;
      200     6719    1         CALL ALA$TIME( AL$TSTAMP );
      201     6720                                                     /**/
      202     6721                                                     /* ASSOCIATE SUSPENDED PROGRAM   */
      203     6722                                                     /* IF DESIRED                    */
      204     6723    1         IF MODE=%M_INT# AND DCB$->F$DCB.ASN#=%DEVICE#
      205     6724    2         THEN DO;          /* ONLINE OR CONSOLE GHOST */
      206     6725    2             CALL M$FSUSER ALTRET(NOT_SUSPENDED);
      207     6726    2             CALL M$OPEN( FPT_OPEN_UC ) ALTRET( READ_ERR_MESS ) ;
      208     6727    2             CALL M$WRITE( FPT_WRITE_SUSMES ) ;
      209     6728    2             CALL M$PROMPT( FPT_PROMPT_SUSYNDMES ) ;
      210     6729    2             FPT$READ_SUSMES = FPT_READ_SUSMES;
      211     6730    2             FPT$READ_SUSMES.V_ = VECTOR(FPT$READ_SUSMES.V);
      212     6731    2             FPT$READ_SUSMES.BUF_ = VECTOR(SUSMES_ANS);
      213     6732    2   YESNOD_ALT: ;
      214     6733    2             SUSMES_ANS = AL_BLANK ;
      215     6734    2             CALL M$READ(FPT$READ_SUSMES) ALTRET(YESNOD_ALT);
      216     6735    2             ARS = DCB$ -> F$DCB.ARS# ;
      217     6736    2             CALL ALA$YESNOD( SUSMES_ANS, ARS ) ALTRET( YESNOD_ALT );
      218     6737    2             CALL M$PROMPT( FPT_PROMPT_RESET );       /* Reset to the default prompt */
      219     6738    2             IF SUSMES_ANS = 'Y'
      220     6739    2             THEN                            /* RECONNECT */
      221     6740    3             DO ;
      222     6741    3                 CALL M$ASUSER ALTRET( ASUSER_ALT ) ;
PL6.E3A0      #001=ALA$LOGON File=ALA$LOGON.:E05TSI                              TUE 07/29/97 08:27 Page:12
      223     6742    3                 CALL ALA$CPEXIT ;            /* LOG OFF THIS USER */
      224     6743    3                 END ; /* THEN DO */
      225     6744    2             ELSE
      226     6745    2                 IF SUSMES_ANS = 'D'
      227     6746    2                 THEN                    /* DELETE */
      228     6747    2                     CALL M$DSUSER ALTRET( DSUSER_ALT ) ;
      229     6748    3             DO WHILE( '0'B ) ;
      230     6749    3   ASUSER_ALT:   ;
      231     6750        /*E*  ERROR:    ALA-E$ASUSER_ERR-C
      232     6751              MESSAGE0: Image lost, no reconnect.
      233     6752        */
      234     6753    3                 CALL ALA$ERROR( ALA_E$ASUSER_ERR );
      235     6754    3                 END ; /* DO WHILE */
      236     6755    3             DO WHILE( '0'B ) ;
      237     6756    3   DSUSER_ALT:   ;
      238     6757        /*E*  ERROR:    ALA-E$DSUSER_ERR-C
      239     6758              MESSAGE0: Image already deleted.
      240     6759        */
      241     6760    3                 CALL ALA$ERROR( ALA_E$DSUSER_ERR );
      242     6761    3                 END ; /* DO WHILE */
      243     6762    2   NOT_SUSPENDED:
      244     6763    2             END;
      245     6764                                                              /**/
      246     6765    1         B$JIT.CPFLAGS1 = B$JIT.CPFLAGS1 | %CP_FIRSTCP# ;
      247     6766    1         FPT$CPEXIT = FPT_CPLOGOFF ;
      248     6767    1         FPT$CPEXIT.NAME_ = VECTOR(CP_NAME) ;
      249     6768    1         FPT$CPEXIT.ACCT_ = VECTOR(CP_ACCT) ;
      250     6769    1         FPT$CPEXIT.PASS_ = VECTOR(CP_PASSW) ;
      251     6770    1         FPT$CPEXIT.V_ = VECTOR(FPT$CPEXIT.V) ;
      252     6771    1         IF B$JIT$ -> B$JIT.USRERR.CODE ~= 0
      253     6772    1         THEN
      254     6773    1             CALL CP_NO_EXISTS ;
      255     6774              /*                               */
      256     6775                                                              /* IS THIS A SYSTEM GHOST? */
      257     6776    1         IF B$JIT.USER <= 15/*JG_MING#    */
      258     6777    1         THEN
      259     6778    1             SYS_GHOST = AL_TRUE ;
PL6.E3A0      #001=ALA$LOGON File=ALA$LOGON.:E05TSI                              TUE 07/29/97 08:27 Page:13
      260     6779    1         ELSE
      261     6780    1             SYS_GHOST = AL_FALSE ;
      262     6781              /*                               */
      263     6782    1         NOSETUP = B$JIT.BLINDACCTNG; /* SAVE THE FLAG */
      264     6783    1         NOHEADER = B$JIT.LOCK (0); /* SAVE THE FLAG */
      265     6784    1         CP_SLEAZE_SET = AL_FALSE;
      266     6785    1         IF (B$JIT.CPFLAGS1 & %CP_SLEAZE#) = %CP_SLEAZE#
      267     6786    2         THEN DO ;
      268     6787    2             B$JIT.CPFLAGS1 = B$JIT.CPFLAGS1 & ~%CP_SLEAZE#;
      269     6788    2             CP_SLEAZE_SET = AL_TRUE;
      270     6789    2             AS_USERS = DF_USERS ;
      271     6790    2             CP_NAME = DF_CP_NAME ;
      272     6791    2             CP_ACCT = DF_CP_ACCT ;
      273     6792    2             CP_PASSW = DF_CP_PASS ;
      274     6793    2             B$JIT.SSLEV = %AZ_NONE# ;
      275     6794    2             B$JIT.PSLEV = %AZ_NONE# ;
      276     6795    2             B$JIT.JSLEV = %AZ_NONE# ;
      277     6796    2             GOTO DO_STARS ;
      278     6797    2             END ;   /*   THEN DO   */
      279     6798                                                              /*   SET UP USERS_KEY  */
      280     6799    1         CALL CONCAT( USERS_KEY.TEXT, B$JIT.ACCN, B$JIT.UNAME );
      281     6800    2         IF USERS_KEY.TEXT = AL_BLANK THEN DO;
      282     6801        /*E*  ERROR:  ALA-E$BLANK_ACCT_UNAME-A
      283     6802              MESSAGE: B$JIT.ACCT and B$JIT.UNAME are blank.
      284     6803        */
      285     6804    2             CALL ALA$ERROR( ALA_E$BLANK_ACCT_UNAME );
      286     6805    2             CALL ALA$CPEXIT;
      287     6806    2             END;
      288     6807    1         CALL INDEX( I, AL_BLANK, B$JIT.UNAME );
      289     6808    1         USERS_KEY.CNT = 8 + I;
      290     6809                                                      /* READ IN A :USERS RECORD. */
      291     6810    1         CALL ALA$GETUSERS ;                     /* SET UP M$USERS DCB FOR READ. */
      292     6811    1         CALL ALA$OPEN_USERS ALTRET(OPEN_USERS_ERR) ;
      293     6812    1         CALL ALA$READ_USERS (USERS_KEY, AS_USERS) ALTRET(READ_USERS_ERR) ;
      294     6813                                                              /*   RECORD EXISTS.  */
      295     6814                        /*                                    */
      296     6815                        /*      CHECK BUDGET.                 */
PL6.E3A0      #001=ALA$LOGON File=ALA$LOGON.:E05TSI                              TUE 07/29/97 08:27 Page:14
      297     6816                        /*                                    */
      298     6817    1   USER_OK: ;
      299     6818                                                              /**/
      300     6819                                                              /*   SET ECHO IN JIT.   */
      301     6820    1         B$JIT.CPFLAGS1 = B$JIT.CPFLAGS1 | %CP_ECHO# | %CP_CFREAD#;
      302     6821    1         B$JIT.PRIV.AUTH = AS_USERS.PRIV(MODE-1) ;
      303     6822                                                              /*  SHUT OFF EFT AND BLK */
      304     6823    1         B$JIT.PRIV.AUTH = B$JIT.PRIV.AUTH & ~%PR_FMEFT# & ~%PR_FMBLK#;
      305     6824                                                          /* SET ACTIVE, JOB, PRC TO '0'B */
      306     6825    1         B$JIT.PRIV.ACTIVE = '0'B ;
      307     6826    1         B$JIT.PRIV.JOB = '0'B ;
      308     6827    1         B$JIT.PRIV.PRC = '0'B ;
      309     6828                                                              /* Set PROC. PRIV. */
      310     6829    1         B$JIT.PPRIV = AS_USERS.PPRIV(MODE-1) ;
      311     6830    1         B$JIT.PRIOB = AS_USERS.PRIOB(MODE-1) ;
      312     6831    1         B$JIT.QUAN = AS_USERS.QUAN(MODE-1) * 1000;
      313     6832    1         IF AS_USERS.MAXENQ(MODE-1)>0 THEN B$JIT.MAXENQ = AS_USERS.MAXENQ(MODE-1);
      314     6833                                                        /* Set misc. stuff. */
      315     6834    1         B$JIT.CSLEV = 0; /* Level count for nested XEQs. */
      316     6835                                                             /**/
      317     6836    1         CALL BUDGET ALTRET(BUDGET_ERR) ;
      318     6837                                                              /*   BUDGET OK.   */
      319     6838    1   BUDGET_OK: ;
      320     6839                                                      /* Set BLIND ACCOUNTING */
      321     6840    1         B$JIT.BLINDACCTNG = AS_USERS.BUDGET.BLINDACCTNG;
      322     6841                                                              /*  MOVE HOME PACK SET.  */
      323     6842    1         B$JIT.HPSN = AS_USERS.HPSN ;
      324     6843    1         IF (B$JIT.CPFLAGS1 & %CP_BUFFULL#) = '0'B THEN CALL FREECMD ;
      325     6844    1         CALL CPROC ;
      326     6845                                                              /* CHECK FOR LAST CPROC */
      327     6846    1         IF AS_USERS.LASTCPROC.NAME.CNT(MODE-1) > 0 THEN
      328     6847    1             B$JIT.CPFLAGS1 = B$JIT.CPFLAGS1 | %CP_LASTCPEXISTS#;
      329     6848                                                     /* Set limits in the JIT         */
      330     6849    1         B$JIT.REMLO = AS_USERS.DLO(MODE-1);
      331     6850    1         IF (AS_USERS.MLO(MODE-1) = 0) /*IF LO=0 ->DONT ALLOW LO OUTPUT*/
      332     6851    1         THEN B$JIT.NOLOEVER = '1'B;
      333     6852    1         ELSE B$JIT.NOLOEVER = '0'B;
PL6.E3A0      #001=ALA$LOGON File=ALA$LOGON.:E05TSI                              TUE 07/29/97 08:27 Page:15
      334     6853    1         B$JIT.REMDO = AS_USERS.DDO(MODE-1);
      335     6854    1         IF (AS_USERS.MDO(MODE-1) = 0) /*IF DO=0 ->DONT ALLOW DO OUTPUT*/
      336     6855    1         THEN B$JIT.NODOEVER = '1'B;
      337     6856    1         ELSE B$JIT.NODOEVER = '0'B;
      338     6857    1         B$JIT.REMCPO = AS_USERS.DPO(MODE-1);
      339     6858    1         IF (AS_USERS.MPO(MODE-1) = 0) /*IF PO=0 ->DONT ALLOW PO OUTPUT*/
      340     6859    1         THEN B$JIT.NOPOEVER = '1'B;
      341     6860    1         ELSE B$JIT.NOPOEVER = '0'B;
      342     6861    1         B$JIT.MAXTMPDP = AS_USERS.DTDIS(MODE-1);
      343     6862    1         B$JIT.FBUL = MAXIMUM( AS_USERS.DFPOOLS(MODE-1), 5 );
      344     6863    1         B$JIT.DEFEXP = AS_USERS.DEXP;
      345     6864    1         B$JIT.MAXEXP = AS_USERS.MEXP;
      346     6865    1         B$JIT.PRDPRM = AS_USERS.DPDIS(MODE-1);
      347     6866    1         B$JIT.DEFPRI = AS_USERS.DMPRIO( MODE-1 ) ;
      348     6867    1         B$JIT.MAXPRI = AS_USERS.MMPRIO( MODE-1 ) ;
      349     6868    1         B$JIT.LOCK = AS_USERS.KEY;
      350     6869    1         IF AS_USERS.STEPACCNT
      351     6870    1         THEN
      352     6871    1             B$JIT.CPFLAGS1 = B$JIT.CPFLAGS1 | %CP_STEPACCT# ;
      353     6872                                                              /* SET *S ACCOUNTING */
      354     6873    1         IF AS_USERS.FLAGS.STARSACC THEN
      355     6874    1             B$JIT.CPFLAGS1 = B$JIT.CPFLAGS1 | %CP_STARSACC# ;
      356     6875    1         B$JIT.SSLEV = %AZ_NONE# ;
      357     6876    1         B$JIT.PSLEV = %AZ_NONE# ;
      358     6877    1         B$JIT.LANG = AS_USERS.NAT_LANG ;
      359     6878    1         B$JIT.OUTPRIO = AS_USERS.OUTPUTPRIO ;
      360     6879    1         IF MODE=%M_BATCH#
      361     6880    2         THEN DO;
      362     6881    2             B$JIT.JSLEV = %AZ_ALL#;
      363     6882    2             B$JIT.OLTA = '00'B;
      364     6883    2             END;
      365     6884    2         ELSE DO;
      366     6885    3             DO CASE(MODE);
      367     6886    3               CASE(%M_INT#);
      368     6887    3                 B$JIT.JSLEV = %AZ_SUMMARY#;
      369     6888    3               CASE(%M_GHOST#);
      370     6889    3                 B$JIT.JSLEV = %AZ_ALL# ;
PL6.E3A0      #001=ALA$LOGON File=ALA$LOGON.:E05TSI                              TUE 07/29/97 08:27 Page:16
      371     6890    3               CASE(%M_TP#);
      372     6891    3                 B$JIT.JSLEV = %AZ_NONE# ;
      373     6892    3               END;
      374     6893    2             B$JIT.MRT = AS_USERS.DTIME(MODE-1);
      375     6894    2             B$JIT.MAXCORE = AS_USERS.DMEM(MODE-1);
      376     6895    2             B$JIT.RESCORE = B$JIT.MAXCORE ;
      377     6896    3             DO CASE(AS_USERS.RESL.OMAX(0));
      378     6897    3               CASE(0);
      379     6898    3                 B$JIT.OLTA = '00'B;
      380     6899    3               CASE(1);
      381     6900    3                 B$JIT.OLTA = '10'B;
      382     6901    3               CASE(ELSE);
      383     6902    3                 B$JIT.OLTA = '11'B;
      384     6903    3               END;
      385     6904    2             END;
      386     6905                                                             /**/
      387     6906    1         CALL CLRES;
      388     6907                                                              /* SET UP LIMIT
      389     6908                                                                 RECORD FOR '*S' */
      390     6909    1   DO_STARS: ;
      391     6910    1         CALL ALA$GETSTARS ;                             /*   SET UP M$STARS DCB.   */
      392     6911    1         CALL ALA$OPEN_STAR_A ( AL_ACCT ) ALTRET ( OPEN_A_ERR ) ;
      393     6912    1   OPEN_A_OK: ;
      394     6913    1         CALL ALA$CLOSE_STAR ALTRET ( CLOSE_A_ERR ) ;
      395     6914    1   CLOSE_A_OK: ;
      396     6915    1         CALL ALA$OPEN_STAR_S( AL_ACCT ) ALTRET ( OPEN_S_ERR ) ;
      397     6916    1   OPEN_S_OK: ;
      398     6917    1         CP_LIMREC = '0'B ;
      399     6918    1         CP_LIMREC.USER_MAX.MAXCORE = AS_USERS.MMEM(MODE-1) ;
      400     6919    1         CP_LIMREC.CUR_MAX.MAXCORE = B$JIT.MAXCORE ;
      401     6920    1         CP_LIMREC.USER_MAX.REMLO = AS_USERS.MLO(MODE-1) ;
      402     6921    1         CP_LIMREC.CUR_MAX.REMLO = B$JIT.REMLO ;
      403     6922    1         CP_LIMREC.USER_MAX.REMCPO = AS_USERS.MPO(MODE-1) ;
      404     6923    1         CP_LIMREC.CUR_MAX.REMCPO = B$JIT.REMCPO ;
      405     6924    1         CP_LIMREC.USER_MAX.REMDO = AS_USERS.MDO(MODE-1) ;
      406     6925    1         CP_LIMREC.CUR_MAX.REMDO = B$JIT.REMDO ;
      407     6926    1         CP_LIMREC.USER_MAX.MAXTMPDP = AS_USERS.MTDIS(MODE-1) ;
PL6.E3A0      #001=ALA$LOGON File=ALA$LOGON.:E05TSI                              TUE 07/29/97 08:27 Page:17
      408     6927    1         CP_LIMREC.CUR_MAX.MAXTMPDP = B$JIT.MAXTMPDP ;
      409     6928    1         CP_LIMREC.USER_MAX.PRDPRM = AS_USERS.MPDIS(MODE-1) ;
      410     6929    1         CP_LIMREC.CUR_MAX.PRDPRM = B$JIT.PRDPRM ;
      411     6930    1         CP_LIMREC.USER_MAX.FBUL = AS_USERS.MFPOOLS(MODE-1) ;
      412     6931    1         CP_LIMREC.CUR_MAX.FBUL = B$JIT.FBUL ;
      413     6932    1         CP_LIMREC.USER_MAX.MRT = B$JIT.MRT ;
      414     6933    1         CP_LIMREC.CUR_MAX.MRT = B$JIT.MRT ;
      415     6934                                                              /* OUTPUT RECORD */
      416     6935    1         ARS = LENGTHC( CP_LIMREC ) ;
      417     6936    1         TEXT$ = ADDR( CP_LIMREC ) ;
      418     6937    1         CALL ALA$WRITE_STAR( TEXT$, ARS, LIMIT_KEY, AL_DCB2#, ERR_CODE)
      419     6938    1                 ALTRET( WRITE_STAR_S_ERR ) ;
      420     6939                   /* Call the routine to put the bannertext record into
      421     6940                      *S file.
      422     6941                   */
      423     6942    1         IF ((B$JIT.CPFLAGS1 & %CP_SLEAZE#) ~= %CP_SLEAZE#)
      424     6943    2         THEN DO ;
      425     6944    2             KEY$ = ADDR (AS_USERS);
      426     6945    2             CALL ALA$BANNER2_STAR_S (KEY$, AL_DCB2#, ERR_CODE) ALTRET (
              6945                      WRITE_STAR_S_ERR);
      427     6946    2             END;
      428     6947                                                              /**/
      429     6948    1         CALL ALA$CLOSE_STAR ALTRET ( CLOSE_S_ERR ) ;
      430     6949    1   CLOSE_S_OK: ;
      431     6950    1         B$JIT.LOGONTIME = AL$TSTAMP.UTS ;
      432     6951    1         IF NOT CP_SLEAZE_SET
      433     6952    2         THEN DO;
      434     6953    2             CALL SET_LAST_LOGON_TIME;
      435     6954    2             CALL ALA$WRITE_USERS (USERS_KEY, AS_USERS) ALTRET(READ_USERS_ERR);
      436     6955    2             END;  /* Then Do */
      437     6956    1         B$JIT.BILL = AS_USERS.BILL( MODE-1 ) ;
      438     6957    1         TEMP_BIT = B$JIT.BLINDACCTNG;
      439     6958    1         B$JIT.BLINDACCTNG = NOHEADER;
      440     6959    1         CALL ALA$HEADING( AL$TSTAMP ) ;
      441     6960    1         B$JIT.BLINDACCTNG = TEMP_BIT;  /* RESTORE FROM TEMP. */
      442     6961    1         CALL ALA$CPEXIT(FPT$CPEXIT);
      443     6962                                                              /**/
PL6.E3A0      #001=ALA$LOGON File=ALA$LOGON.:E05TSI                              TUE 07/29/97 08:27 Page:18
      444     6963    1   READ_USERS_ERR: ;
      445     6964    1   READ_ERR_MESS: ;
      446     6965                                                              /**/
      447     6966        /*E*  ERROR:    ALA-E$USERS_FILE_ERR-C
      448     6967              MESSAGE:  Unable to logon -- see your SYSTEM MANAGER.
      449     6968
      450     6969        */
      451     6970    1         CALL ALA$SYS_ERROR;
      452     6971    1         CALL ALA$ERROR( ALA_E$USERS_FILE_ERR );
      453     6972                                                              /**/
      454     6973    1         IF SYS_GHOST
      455     6974    1         THEN
      456     6975    1             CALL ALA$CPEXIT( FPT$CPEXIT ) ;
      457     6976    1         ELSE
      458     6977    1             CALL ALA$CPEXIT ;
      459     6978                                                              /**/
      460     6979                                                              /*   OPEN :USERS ERROR.   */
      461     6980    1   OPEN_USERS_ERR: ;
      462     6981                                                              /**/
      463     6982    1         CALL ALA$SYS_ERROR;
      464     6983                                                       /*   OUTPUT MESSAGE TO OPERATOR.   */
      465     6984    1         CALL M$OCMSG ( FPT_OCMSG ) ;
      466     6985                                                              /**/
      467     6986    1   BUDGET_ERR: ;
      468     6987    1         IF SYS_GHOST
      469     6988    1         THEN
      470     6989    1             CALL ALA$CPEXIT( FPT$CPEXIT ) ;
      471     6990    1         ELSE
      472     6991    1             CALL ALA$CPEXIT ;
      473     6992                                                              /**/
      474     6993    1   OPEN_A_ERR: GOTO OPEN_A_OK ;
      475     6994    1   CLOSE_A_ERR: GOTO CLOSE_A_OK ;
      476     6995    1   OPEN_S_ERR: GOTO OPEN_S_OK ;
      477     6996    1   CLOSE_S_ERR: GOTO CLOSE_S_OK ;
      478     6997    1   WRITE_STAR_S_ERR: ;
      479     6998                                                              /**/
      480     6999        /*E*  ERROR:    ALA-E$WRITE_S_ERR-C
PL6.E3A0      #001=ALA$LOGON File=ALA$LOGON.:E05TSI                              TUE 07/29/97 08:27 Page:19
      481     7000              MESSAGE:  Unable to write to *S file -- see your SYSTEM MANAGER.
      482     7001        */
      483     7002    1         CALL ALA$ERROR( ALA_E$WRITE_S_ERR );
      484     7003    1         IF SYS_GHOST
      485     7004    1         THEN
      486     7005    1             CALL ALA$CPEXIT( FPT$CPEXIT ) ;
      487     7006    1         ELSE
      488     7007    1             CALL ALA$CPEXIT ;
      489     7008        %EJECT ;
PL6.E3A0      #001=ALA$LOGON File=ALA$LOGON.:E05TSI                              TUE 07/29/97 08:27 Page:20
      490     7009    1   BUDGET: PROC ALTRET ;
      491     7010                                                              /**/
      492     7011                    /*******************************/
      493     7012                    /*                             */
      494     7013                    /*          BUDGET             */
      495     7014                    /*                             */
      496     7015                    /*******************************/
      497     7016        %EJECT ;
PL6.E3A0      #001=ALA$LOGON File=ALA$LOGON.:E05TSI                              TUE 07/29/97 08:27 Page:21
      498     7017        /*********************************************************************/
      499     7018        /*   AUTO DATA       AUTO DATA       AUTO DATA       AUTO DATA       */
      500     7019        /*********************************************************************/
      501     7020                                                              /**/
      502     7021                                                              /*   :USERS RECORD.   */
      503     7022              %AS_USERS (STR_NAME = T$USERS, STCLASS = AUTO) ;
      504     7200    2   DCL TEMP SBIN ;
      505     7201    2   DCL FIRST BIT(1) ;
      506     7202    2   DCL 1 FIELD1,
      507     7203    2         2 CNT UBIN BYTE UNAL,
      508     7204    2         2 TXT CHAR(40) UNAL;
      509     7205    2   DCL 1 FIELD2,
      510     7206    2         2 CNT UBIN BYTE UNAL,
      511     7207    2         2 TXT CHAR(40) UNAL;
      512     7208        %EJECT ;
PL6.E3A0      #001=ALA$LOGON File=ALA$LOGON.:E05TSI                              TUE 07/29/97 08:27 Page:22
      513     7209        /*********************************************************************/
      514     7210        /*   PROCEDURE       PROCEDURE       PROCEDURE       PROCEDURE       */
      515     7211        /*********************************************************************/
      516     7212                                                              /**/
      517     7213    2         B$JIT.BUDLIM = 0;
      518     7214    2         UMAX = BITBIN('377777777777'O);
      519     7215    2         IF AS_USERS.BUDGET.ICHARGES  AND  AS_USERS.BUDGET.MAXC > -1
      520     7216    3         THEN DO;
      521     7217    3             TEMP = AS_USERS.BUDGET.MAXC - AS_USERS.BUDGET.ACCUM;
      522     7218    3             IF NOT AS_USERS.BUDGET.BKACC  AND  TEMP <= 0
      523     7219    4             THEN DO;
      524     7220        /*E* ERROR:   ALA-E$MAXC_EXCEEDED-C
      525     7221             MESSAGE: Individual budget exceeded -- unable to logon.
      526     7222        */
      527     7223    4                 CALL ALA$ERROR( ALA_E$MAXC_EXCEEDED );
      528     7224    4                 ALTRETURN;
      529     7225    4                 END;
      530     7226    3             IF AS_USERS.BUDGET.BUDLIM THEN UMAX = MINIMUM( UMAX, TEMP );
      531     7227    3             END;
      532     7228                                                      /*
      533     7229                                                         Do any project accounting
      534     7230                                                      */
      535     7231    2         T$USERS = AS_USERS;
      536     7232    2         MASTER_ACCT = AS_USERS.BUDGET.MACCT;
      537     7233    3         DO WHILE( T$USERS.BUDGET.PCHARGES  AND  MASTER_ACCT ~= NO_MACCOUNT );
      538     7234    3             CALL ALA$READ_USERS( MASTER_ACCT, T$USERS ) ALTRET(READ_USERS_ERR);
      539     7235    4             IF T$USERS.BUDGET.PMAXC > -1 THEN DO;
      540     7236    4                 TEMP = T$USERS.BUDGET.PMAXC - T$USERS.BUDGET.PACCUM;
      541     7237    5                 IF NOT T$USERS.BUDGET.BKACC AND TEMP <= 0 THEN DO;
      542     7238        /*E* ERROR:   ALA-E$PMAXC_EXCEEDED-C
      543     7239             MESSAGE: Unable to logon.  Budget for project "%U1,%U2" exceeded.
      544     7240        */
      545     7241    5   PROJECT_BUDGET_EXCEEDED:
      546     7242    5                     CALL INDEX( I, AL_BLANK, MASTER_ACCT.ACCT );
      547     7243    5                     FIELD1.CNT = I;
      548     7244    5                     FIELD1.TXT = MASTER_ACCT.ACCT;
      549     7245    5                     FIELD2.CNT = MASTER_ACCT.CNT - 8;
PL6.E3A0      #001=ALA$LOGON File=ALA$LOGON.:E05TSI                              TUE 07/29/97 08:27 Page:23
      550     7246    5                     FIELD2.TXT = MASTER_ACCT.NAME;
      551     7247    5                     CALL ALA$ERROR( ALA_E$PMAXC_EXCEEDED, FIELD1, FIELD2 );
      552     7248    5                     ALTRETURN;
      553     7249    5                     END;
      554     7250    4                 IF AS_USERS.BUDGET.BUDLIM THEN UMAX = MINIMUM( UMAX, TEMP );
      555     7251    4                 END;
      556     7252    3             MASTER_ACCT = T$USERS.BUDGET.MACCT;
      557     7253    3             END;
      558     7254    2         IF AS_USERS.BUDGET.BUDLIM THEN B$JIT.BUDLIM = MAXIMUM( 1, UMAX );
      559     7255    2         RETURN;
      560     7256
      561     7257    2   READ_USERS_ERR:
      562     7258                                                              /**/
      563     7259                                                              /**/
      564     7260        /*E*  ERROR:    ALA-E$NO_MASTER-C
      565     7261              MESSAGE:  PROJECT ADMINISTRATOR does not exist -- unable to logon.
      566     7262
      567     7263        */
      568     7264    2         CALL ALA$ERROR( ALA_E$NO_MASTER );
      569     7265                                                              /**/
      570     7266    2         ALTRETURN ;
      571     7267    2   END   BUDGET ;
      572     7268        %EJECT ;
PL6.E3A0      #001=ALA$LOGON File=ALA$LOGON.:E05TSI                              TUE 07/29/97 08:27 Page:24
      573     7269                                                              /**/
      574     7270    1   CPROC: PROC ;
      575     7271                                                                      /**/
      576     7272    2         IF AS_USERS.CPROC.NAME.CNT(MODE-1) ~= 0
      577     7273    2         THEN
      578     7274    3         DO ;
      579     7275    3             CP_NAME = AS_USERS.CPROC.NAME(MODE-1) ;
      580     7276    3             CP_ACCT = ':SYS' ;
      581     7277    3             CP_PASSW = ' ' ;
      582     7278    3             END ;   /*  THEN DO  */
      583     7279    2         ELSE
      584     7280    3         DO ;
      585     7281    3             CP_NAME = DF_CP_NAME ;
      586     7282    3             CP_ACCT = ':SYS' ;
      587     7283    3             CP_PASSW = ' ' ;
      588     7284    3             END ;   /*  ELSE DO  */
      589     7285                                                              /**/
      590     7286    2         RETURN ;
      591     7287                                                              /**/
      592     7288    2   END   CPROC ;
      593     7289        %EJECT ;
PL6.E3A0      #001=ALA$LOGON File=ALA$LOGON.:E05TSI                              TUE 07/29/97 08:27 Page:25
      594     7290                                                              /**/
      595     7291    1   FREECMD: PROC ;
      596     7292                                                                      /**/
      597     7293    2         IF AS_USERS.SETUP(MODE-1) = -1     /* Empty */
      598     7294    2         THEN
      599     7295                                                              /*  NO FREE COMMAND   */
      600     7296    2             B$JIT.CPFLAGS1 = B$JIT.CPFLAGS1 &~ %CP_BUFFULL#;
      601     7297    2         ELSE
      602     7298    3         DO ;
      603     7299                                                              /*   FREE COMMAND EXITS   */
      604     7300    3             TEXT$=PINCRC(ADDR(AS_USERS.SETUP_CHRA.TXT),AS_USERS.SETUP(MODE-1));
      605     7301    3             B$JIT$ -> B$JIT.CCARS = TEXT$ -> TEXT$C.L;
      606     7302    3             B$JIT$ -> B$JIT.CCDISP = TEXT$ -> TEXT$C.L;
      607     7303    3             B$JIT$ -> B$JIT.CCBUF = TEXT$ -> TEXT$C.C;
      608     7304    3             B$JIT.CPFLAGS1 = B$JIT.CPFLAGS1 | %CP_BUFFULL#;
      609     7305    3             IF NOSETUP
      610     7306    4             THEN DO;
      611     7307    4                 IF (AS_USERS.SETUP_FORCE (MODE - 1) )
      612     7308    5                 THEN DO;
      613     7309        /*E* ERROR:  ALA-E$SETUP_FORCED-C
      614     7310             MESSAGE0: NS option ignored, your authorization requires setup.
      615     7311             MESSAGE1: You specified NoSetup when logging on, but your system
      616     7312                       administrator wants the FORCE to be with you.
      617     7313             MESSAGE2: If you have the FORCE, then your setup command must
      618     7314                       be executed.
      619     7315        */
      620     7316    5                     CALL ALA$ERROR (ALA_E$SETUP_FORCED);
      621     7317    5                     END;
      622     7318    5                 ELSE DO;
      623     7319    5                     B$JIT.CPFLAGS1 = B$JIT.CPFLAGS1 &~ %CP_BUFFULL#;
      624     7320    5                     END;
      625     7321    4                 END;
      626     7322    3             END ;   /*  THEN DO  */
      627     7323                                                              /**/
      628     7324    2         RETURN ;
      629     7325                                                              /**/
      630     7326    2   END   FREECMD ;
PL6.E3A0      #001=ALA$LOGON File=ALA$LOGON.:E05TSI                              TUE 07/29/97 08:27 Page:26
      631     7327        %EJECT ;
PL6.E3A0      #001=ALA$LOGON File=ALA$LOGON.:E05TSI                              TUE 07/29/97 08:27 Page:27
      632     7328                                                              /**/
      633     7329    1   CP_NO_EXISTS: PROC ;
      634     7330                                                              /**/
      635     7331                                                              /**/
      636     7332        /*********************************************************************/
      637     7333        /*   AUTO DATA       AUTO DATA       AUTO DATA       AUTO DATA       */
      638     7334        /*********************************************************************/
      639     7335                                                              /**/
      640     7336    2   DCL 1 ERR_BUF ALIGNED ,
      641     7337    2         2 CNT UBIN(9) UNAL ,
      642     7338    2         2 TEXT CHAR(40) UNAL ;
      643     7339    2   DCL CNT UBIN WORD ;
      644     7340    2   DCL I UBIN WORD ;
      645     7341        %EJECT ;
PL6.E3A0      #001=ALA$LOGON File=ALA$LOGON.:E05TSI                              TUE 07/29/97 08:27 Page:28
      646     7342        /*********************************************************************/
      647     7343        /*   PROCEDURE       PROCEDURE       PROCEDURE       PROCEDURE       */
      648     7344        /*********************************************************************/
      649     7345                                                              /**/
      650     7346                                                             /*   PICK UP CP NAME.ACCT.   */
      651     7347    2         CP_NAME = DCBADDR(%M$LM#) -> F$DCB.NAME# ;
      652     7348    2         CP_ACCT = DCBADDR(%M$LM#) -> F$DCB.ACCT# ;
      653     7349                                                         /*   MOVE CP NAME TO ERR_BUFF.   */
      654     7350    2         ERR_BUF.TEXT = CP_NAME.NAME# ;
      655     7351                                                              /*   FIND SIZE OF ACCT.   */
      656     7352    2         CALL INDEX( CNT, AL_BLANK, CP_ACCT );
      657     7353                                                              /**/
      658     7354    2         ERR_BUF.CNT = CNT + CP_NAME.L# + 2 ;
      659     7355                                                             /*   MOVE ACCT TO ERR_BUF.   */
      660     7356    2         CALL INSERT(ERR_BUF.TEXT, CP_NAME.L#, 9, '.', CP_ACCT) ;
      661     7357                                                              /**/
      662     7358                                                              /*   CHECK FOR DEFAULT CP.  */
      663     7359    2         IF CP_NAME = DF_CP_NAME AND CP_ACCT = DF_CP_ACCT
      664     7360    2         THEN
      665     7361    3         DO ;
      666     7362    3             ERR_CODE.CODE = 1 /* DF_CP_MISSING */ ;
      667     7363    3             ERR_CODE.SEV = 7 ;
      668     7364    3             END ;   /*  THEN DO  */
      669     7365    2         ELSE
      670     7366    3         DO ;
      671     7367    3             ERR_CODE.CODE = 2 /* CP_MISSING */ ;
      672     7368    3             ERR_CODE.SEV = 0 ;
      673     7369    3             END ;   /*  ELSE DO  */
      674     7370    2         ERR_CODE.FCG_MID = FCG ;
      675     7371                                                              /**/
      676     7372        /*E*  ERROR:    ALA-E$DF_CP_MISSING-C
      677     7373              MESSAGE7: The default command processor %%U1%does not exist.
      678     7374                        See SYSTEM MANAGER.
      679     7375
      680     7376        */
      681     7377                                                              /**/
      682     7378        /*E*  ERROR:    ALA-E$CP_MISSING-C
PL6.E3A0      #001=ALA$LOGON File=ALA$LOGON.:E05TSI                              TUE 07/29/97 08:27 Page:29
      683     7379              MESSAGE:  Command processor %%U1 %does not exist.
      684     7380
      685     7381        */
      686     7382                                                              /**/
      687     7383    2         CALL ALA$ERROR(ERR_CODE, ERR_BUF.CNT) ;
      688     7384                                                             /*   IF DEFAULT CP LOG-OFF.  */
      689     7385    2         IF ERR_CODE.CODE = 1 /* DF_CP_MISSING */
      690     7386    2         THEN
      691     7387    2             IF SYS_GHOST
      692     7388    2             THEN
      693     7389    2                 CALL ALA$CPEXIT( FPT$CPEXIT ) ;
      694     7390    2             ELSE
      695     7391    2                 CALL ALA$CPEXIT ;
      696     7392                                                              /**/
      697     7393                                                              /*   CPEXIT TO DEFAULT CP. */
      698     7394    2         CP_NAME = DF_CP_NAME ;
      699     7395    2         CP_ACCT = DF_CP_ACCT ;
      700     7396    2         CP_PASSW = DF_CP_PASS ;
      701     7397    2         CALL ALA$CPEXIT(FPT$CPEXIT);
      702     7398                                                              /**/
      703     7399    2   END   CP_NO_EXISTS ;
      704     7400        %EJECT ;
PL6.E3A0      #001=ALA$LOGON File=ALA$LOGON.:E05TSI                              TUE 07/29/97 08:27 Page:30
      705     7401    1   CLRES: PROC;
      706     7402                                                              /**/
      707     7403        /*********************************************************************/
      708     7404        /*   AUTO DATA       AUTO DATA       AUTO DATA       AUTO DATA       */
      709     7405        /*********************************************************************/
      710     7406                                                              /**/
      711     7407    2   DCL I UBIN ;
      712     7408    2   DCL MAX UBIN;
      713     7409        %EJECT ;
PL6.E3A0      #001=ALA$LOGON File=ALA$LOGON.:E05TSI                              TUE 07/29/97 08:27 Page:31
      714     7410        /*********************************************************************/
      715     7411        /*   PROCEDURE       PROCEDURE       PROCEDURE       PROCEDURE       */
      716     7412        /*********************************************************************/
      717     7413                                                              /**/
      718     7414    2         B$JIT.CLRES = '0'B;
      719     7415    3         DO I = 0 TO AS_USERS.TOT_TYPES-1;
      720     7416    3             IF AS_USERS.RESL.RNAME(I) = 'CL'
      721     7417    3             THEN
      722     7418    4             DO;
      723     7419    5                 DO CASE(MODE);
      724     7420    5                   CASE(%M_INT#);
      725     7421    5                     MAX = AS_USERS.RESL.OMAX(I);
      726     7422    5                   CASE(%M_BATCH#);
      727     7423    5                     MAX = AS_USERS.RESL.BMAX(I);
      728     7424    5                   CASE(%M_GHOST#);
      729     7425    5                     MAX = AS_USERS.RESL.GMAX(I);
      730     7426    5                   CASE(%M_TP#);
      731     7427    5                     MAX = AS_USERS.RESL.TMAX(I);
      732     7428    5                   END; /* Do Case */
      733     7429    4                 IF MAX=1
      734     7430    4                 THEN
      735     7431    4                     B$JIT.CLRES(0) = '1'B;
      736     7432    4                 IF MAX=2
      737     7433    4                 THEN
      738     7434    5                 DO;
      739     7435    5                     B$JIT.CLRES(0) = '1'B;
      740     7436    5                     B$JIT.CLRES(1) = '1'B;
      741     7437    5                     END;  /* Then Do */
      742     7438    4                 IF MAX>2
      743     7439    4                 THEN
      744     7440    4                     B$JIT.CLRES(2) = '1'B;
      745     7441    4                 END; /* Then Do */
      746     7442    3             END; /* Do I */
      747     7443
      748     7444    2         RETURN;
      749     7445
      750     7446    2   END   CLRES;
PL6.E3A0      #001=ALA$LOGON File=ALA$LOGON.:E05TSI                              TUE 07/29/97 08:27 Page:32
      751     7447        %EJECT ;
PL6.E3A0      #001=ALA$LOGON File=ALA$LOGON.:E05TSI                              TUE 07/29/97 08:27 Page:33
      752     7448    1   SET_LAST_LOGON_TIME: PROC;
      753     7449                                                              /**/
      754     7450        /*********************************************************************/
      755     7451        /*   AUTO DATA       AUTO DATA       AUTO DATA       AUTO DATA       */
      756     7452        /*********************************************************************/
      757     7453                                                              /**/
      758     7454    2   DCL I UBIN ;
      759     7455    2   DCL POS UBIN;
      760     7456    2   DCL BAD_CNT_CHAR CHAR(10);
      761     7457    2   DCL 1 TMDATE ALIGNED ,
      762     7458    2         2 CNT UBIN(9) UNAL ,
      763     7459    2         2 BUFF UNAL ,
      764     7460    2           3 TIME CHAR(5) UNAL ,
      765     7461    2           3 * CHAR(1) UNAL ,
      766     7462    2           3 DAY CHAR(3) UNAL ,
      767     7463    2           3 * CHAR(1) UNAL ,
      768     7464    2           3 DATE CHAR(10) UNAL ,
      769     7465    2         2 RDEF_BUFF REDEF BUFF CHAR(20) ;
      770     7466    2   DCL 1 BAD_CNT_BUF,
      771     7467    2         2 CNT UBIN (9) UNAL,
      772     7468    2         2 TEXT CHAR(10);
      773     7469    2   DCL TBUF CHAR(6);
      774     7470                                                              /**/
      775     7471        /*********************************************************************/
      776     7472        /*   FPTs & VLPs     FPTs & VLPs     FPTs & VLPs     FPTs & VLPs     */
      777     7473        /*********************************************************************/
      778     7474                                                              /**/
      779     7475        %FPT_CMDVAR (FPTN = CFPT_CMDVAR,
      780     7476                     STCLASS = CONSTANT,
      781     7477                     FUN = STORE);
      782     7494        %FPT_CMDVAR (FPTN = FPT_CMDVAR,
      783     7495                     STCLASS = AUTO);
      784     7512        %VLP_NAME (FPTN=LLT_VLP,
      785     7513                   STCLASS = CONSTANT,
      786     7514                   LEN = 15,
      787     7515                   NAME = 'LAST_LOGON_TIME');
      788     7542        %VLP_NAME (FPTN=LFC_VLP,
PL6.E3A0      #001=ALA$LOGON File=ALA$LOGON.:E05TSI                              TUE 07/29/97 08:27 Page:34
      789     7543                   STCLASS = CONSTANT,
      790     7544                   LEN = 19,
      791     7545                   NAME = 'LOGON_FAILURE_COUNT');
      792     7572        %EJECT ;
PL6.E3A0      #001=ALA$LOGON File=ALA$LOGON.:E05TSI                              TUE 07/29/97 08:27 Page:35
      793     7573        /*********************************************************************/
      794     7574        /*   PROCEDURE       PROCEDURE       PROCEDURE       PROCEDURE       */
      795     7575        /*********************************************************************/
      796     7576                                                              /**/
      797     7577                                                              /* Setup Command variable
      798     7578                                                                 LAST_LOGON_TIME
      799     7579                                                              */
      800     7580    2         AL$LLT_TSTAMP.UTS = AS_USERS.LOGINS.LAST_LOGON_TIME(MODE-1);
      801     7581    2         CALL ALA$TIME (AL$LLT_TSTAMP);
      802     7582    2         TMDATE.RDEF_BUFF = AL_BLANK ;          /*   Blank fill time buffer. */
      803     7583    2         TMDATE.BUFF.TIME = SUBSTR (AL$LLT_TSTAMP.TIME, 0, 5);
      804     7584
      805     7585    2         TMDATE.BUFF.DAY  = AL$LLT_TSTAMP.DAY  ;
      806     7586    2         CALL XLATE (TBUF, B$XL_LOWER_UR, TMDATE.BUFF.DAY);
      807     7587    2         SUBSTR (TMDATE.BUFF.DAY, 1, 2) = SUBSTR (TBUF, 1, 2);
      808     7588
      809     7589    2         TMDATE.BUFF.DATE = AL$LLT_TSTAMP.DATE ;
      810     7590    2         CALL XLATE (TBUF, B$XL_LOWER_UR, TMDATE. BUFF.DATE);
      811     7591    2         SUBSTR (TMDATE.BUFF.DATE, 1, 2) = SUBSTR (TBUF, 1, 2);
      812     7592
      813     7593    2         TMDATE.CNT = 20;
      814     7594                                                                  /**/
      815     7595    2         FPT_CMDVAR = CFPT_CMDVAR;
      816     7596    2         FPT_CMDVAR.V_ = VECTOR(FPT_CMDVAR.V);
      817     7597    2         FPT_CMDVAR.NAME_ = VECTOR(LLT_VLP);
      818     7598    2         FPT_CMDVAR.VALUE_ = VECTOR(TMDATE);
      819     7599
      820     7600    3         CALL M$CMDVAR (FPT_CMDVAR) WHENALTRETURN DO;
      821     7601    3             END;
      822     7602                                                              /* Setup Command variable
      823     7603                                                                 LOGON_FAILURE_COUNT
      824     7604                                                              */
      825     7605    2         CALL BINCHAR(BAD_CNT_CHAR, AS_USERS.LOGINS.BAD_LOGON_CNT(MODE-1));
      826     7606    3         CALL SEARCH (POS, I, B$SR_NON_ZERO, BAD_CNT_CHAR) WHENALTRETURN DO;
      827     7607    3             POS = 9;
      828     7608    3             END;
      829     7609    2         BAD_CNT_BUF.CNT = 10 - POS;
PL6.E3A0      #001=ALA$LOGON File=ALA$LOGON.:E05TSI                              TUE 07/29/97 08:27 Page:36
      830     7610    2         BAD_CNT_BUF.TEXT = SUBSTR(BAD_CNT_CHAR, POS);
      831     7611                                                                  /**/
      832     7612    2         FPT_CMDVAR = CFPT_CMDVAR;
      833     7613    2         FPT_CMDVAR.V_ = VECTOR(FPT_CMDVAR.V);
      834     7614    2         FPT_CMDVAR.NAME_ = VECTOR(LFC_VLP);
      835     7615    2         FPT_CMDVAR.VALUE_ = VECTOR(BAD_CNT_BUF);
      836     7616
      837     7617    3         CALL M$CMDVAR (FPT_CMDVAR) WHENALTRETURN DO;
      838     7618    3             END;
      839     7619                                                              /* Set fields in :USERS record
      840     7620                                                              */
      841     7621    2         AS_USERS.LAST_LOGON_TIME = BINBIT(B$JIT.LOGONTIME,36);
      842     7622    2         AS_USERS.BAD_LOGON_CNT = 0;
      843     7623    2         AS_USERS.LOGINS.LAST_LOGON_TIME(MODE-1) = B$JIT.LOGONTIME;
      844     7624    2         AS_USERS.LOGINS.BAD_LOGON_CNT(MODE-1) = 0;
      845     7625
      846     7626    2         RETURN;
      847     7627
      848     7628    2   END   SET_LAST_LOGON_TIME;
      849     7629    1   END   ALA$LOGON ;
      850     7630        %EOD ;

PL6.E3A0      #001=ALA$LOGON File=ALA$LOGON.:E05TSI                              TUE 07/29/97 08:27 Page:37
--  Include file information  --

   JG_GHOSTS_C.:E05TOU  is referenced.
   AL_LOGON_R.:E05TOU  cannot be made into a system file and is referenced.
   CP_MACROS_C.:E05TOU  is referenced.
   AL_MACROS_C.:E05TOU  is referenced.
   AL_PERR_C.:E05TOU  is referenced.
   AL_SUBS_C.:E05TOU  is referenced.
   CP_6_SUBS.:E05TOU  is referenced.
   CP_6.:E05TOU  cannot be made into a system file and is referenced.
   B$TABLES_C.:E05TOU  cannot be made into a system file and is referenced.
   B$JIT.:E05TOU  cannot be made into a system file and is referenced.
   KL_SUPER_C.:E05TOU  is referenced.
   AS_SUPER_C.:E05TOU  is referenced.
   B$JIT_C.:E05TOU  was found in the system file and is referenced.
   CP_6_C.:E05TOU  was found in the system file and is referenced.
      No diagnostics issued in procedure ALA$LOGON.

   Procedure ALA$LOGON requires 1172 words for executable code.
   Procedure ALA$LOGON requires 1208 words of local(AUTO) storage.

PL6.E3A0      #001=ALA$LOGON File=ALA$LOGON.:E05TSI                              TUE 07/29/97 08:27 Page:38

 Object Unit name= ALA$LOGON                                  File name= ALA$LOGON.:E05TOU
 UTS= JUL 29 '97 08:27:16.60 TUE                              Compiler= PL-6/E31         Sev=      00
 SharedLib= :SHARED_SYSTEM                                    Alt SharedLib=


    ****  Control sections  ****

 Sect   Type Bound  Init  Size OctSiz  Section name(segment info)
    0   DCB   even  none     0      0  M$UC
    1  RoData even  UTS    714   1312  ALA$LOGON
    2   Proc  even  none  1172   2224  ALA$LOGON
    3  RoData even  none    32     40  ALA$LOGON

    ****  Entry defs  ****

                              Check   Calling
                             calling  sequence
  Sect OctLoc Primary Altret sequence   type   Parms  Name
     2      0   yes            yes      Main       0  ALA$LOGON

  ****  Data defs  ****

 Sect OctLoc  Name                           Sect OctLoc  Name
    1   1036  FPT_CPLOGOFF
PL6.E3A0      #001=ALA$LOGON File=ALA$LOGON.:E05TSI                              TUE 07/29/97 08:27 Page:39

  ****  Entry refs  ****

         Check        Calling
        calling       sequence
Altret sequence SRef   type   Args  Name
         yes          ~proc      0 B_POINTER
         yes           Std       1 ALA$TIME
         yes           Std       1 ALA$CPEXIT
 yes     yes           Std       1 ALA$OPEN_STAR_S
         yes          Async      0 ALA$TRAP
 yes     yes           Std       1 ALA$OPEN_STAR_A
 yes     yes           Std       2 ALA$WRITE_USERS
         yes           Std       1 ALA$HEADING
 yes     yes           Std       2 ALA$READ_USERS
         yes           Std       4 ALA$ERROR
 yes     yes           Std       0 ALA$CLOSE_STAR
 yes     yes           Std       5 ALA$WRITE_STAR
         yes           Std       0 ALA$SYS_ERROR
 yes     yes           Std       0 ALA$GETUSERS
 yes     yes           Std       0 ALA$GETSTARS
 yes     yes           Std       3 ALA$BANNER2_STAR_S
 yes     yes           Std       2 ALA$YESNOD
 yes     yes           Std       0 ALA$OPEN_USERS
                       Std       0 B_CONSPOOL_D
                       nStd      0 X66_MAUTO
                       nStd      0 X66_MARET

  ****  Data refs  ****

  Flags:  r = read only, s = secondary
Flgs Name                             Flgs Name                             Flgs Name
     M$UC                                  AL_BLANK                              AL_TRUE
     AL_FALSE                              DF_CP_NAME                            DF_CP_ACCT
     DF_CP_PASS                            AL_DCB2#                              B$JIT$
r    B$XL_LOWER_UR$                   r    B$SR_NON_ZERO$                        B_VECTNIL
PL6.E3A0      #001=ALA$LOGON File=ALA$LOGON.:E05TSI                              TUE 07/29/97 08:27 Page:40

  ****  Segment refs  ****

  Flags:  r = read only, s = secondary
Flgs Name                             Flgs Name                             Flgs Name
     NULLSID                               ISSID                                 ROSID
PL6.E3A0      #001=ALA$LOGON File=ALA$LOGON.:E05TSI                              TUE 07/29/97 08:27 Page:41


        1        1        /*M* ALA$LOGON   MAIN ROUTINE FOR LOGON.              */
        2        2        /*T***********************************************************/
        3        3        /*T*                                                         */
        4        4        /*T* Copyright (c) Bull HN Information Systems Inc., 1997    */
        5        5        /*T*                                                         */
        6        6        /*T***********************************************************/
        7        7        /*X*  DMC,DMR,PLM=6,IND=4,SDI=2,CTI=8,DCI=4,CSU=2,ECU=2,ENI=4,
        8        8              THI=0,DTI=0,IAD=0                              */
        9        9                                                              /**/
       10       10        ALA$LOGON: PROC MAIN ;

     10  2 000000   000000 700200 xent  ALA$LOGON    TSX0  ! X66_MAUTO
         2 000001   002270 000000                    ZERO    1208,0

       11       11                                                              /**/
       12       12        %EJECT ;
PL6.E3A0      #001=ALA$LOGON File=ALA$LOGON.:E05TSI                              TUE 07/29/97 08:27 Page:42
       13       13        /*********************************************************************/
       14       14        /*   INCLUDE FILES   INCLUDE FILES   INCLUDE FILES   INCLUDE FILES   */
       15       15        /*********************************************************************/
       16       16                                                              /**/
       17       17              %INCLUDE AS_SUPER_C ;
       18      452              %INCLUDE KL_SUPER_C ;
       19     3354              %INCLUDE B$JIT ;
       20     3644              %INCLUDE B$TABLES_C;
       21     3752              %INCLUDE CP_6 ;
       22     3833              %INCLUDE CP_6_SUBS ;
       23     4373              %INCLUDE AL_SUBS_C ;
       24     4382              %INCLUDE AL_PERR_C ;
       25     4404              %INCLUDE AL_MACROS_C ;
       26     4430              %INCLUDE CP_MACROS_C ;
       27     5182              %INCLUDE AL_LOGON_R ;
       28     5214              %INCLUDE JG_GHOSTS_C ;
       29     5304        %EJECT ;
PL6.E3A0      #001=ALA$LOGON File=ALA$LOGON.:E05TSI                              TUE 07/29/97 08:27 Page:43
       30     5305        /*********************************************************************/
       31     5306        /*   CONSTANT DATA   CONSTANT DATA   CONSTANT DATA   CONSTANT DATA   */
       32     5307        /*********************************************************************/
       33     5308                                                              /**/
       34     5309    1   DCL FCG UBIN(18) CONSTANT INIT(4865) ;          /*  'ALA' IN SIXBIT.  */
       35     5310                                                            /*   SCRATCH :USERS RECORD.  */
       36     5311              %AS_USERS(  STR_NAME = DF_USERS ,
       37     5312                          STCLASS = CONSTANT ) ;
       38     5490    1   DCL SUSMES CHAR(0) CONSTANT INIT('aProgram held. Reconnect');
       39     5491    1   DCL SUSYNDMES CHAR(0) CONSTANT INIT('@(Y/N/D)? ') ;
       40     5492    1   DCL 1 NO_MACCOUNT ALIGNED CONSTANT,
       41     5493    1         2 CNT UBIN BYTE UNAL INIT(4),
       42     5494    1         2 ACCT CHAR(8) UNAL INIT('NONE'),
       43     5495    1         2 NAME CHAR(12) UNAL INIT( ' ' );
       44     5496       %VLP_ERRCODE(FPTN=ALA_E$ASUSER_ERR,FCG='AL',MID='A',MON='0'B,ERR#=E$ASUSER_ERR,SEV=0
              5496            ,STCLASS=CONSTANT);
       45     5541       %VLP_ERRCODE(FPTN=ALA_E$DSUSER_ERR,FCG='AL',MID='A',MON='0'B,ERR#=E$DSUSER_ERR,SEV=0
              5541            ,STCLASS=CONSTANT);
       46     5586        %VLP_ERRCODE(FPTN=ALA_E$USERS_FILE_ERR,FCG='AL',MID='A',MON='0'B,ERR#=
              5586            E$USERS_FILE_ERR,SEV=0,STCLASS=CONSTANT);
       47     5631       %VLP_ERRCODE(FPTN=ALA_E$WRITE_S_ERR,FCG='AL',MID='A',MON='0'B,ERR#=E$WRITE_S_ERR,SEV
              5631            =0,STCLASS=CONSTANT);
       48     5676       %VLP_ERRCODE(FPTN=ALA_E$MAXC_EXCEEDED,FCG='AL',MID='A',MON='0'B,ERR#=E$MAXC_EXCEEDED
              5676            ,SEV=0,STCLASS=CONSTANT);
       49     5721        %VLP_ERRCODE(FPTN=ALA_E$PMAXC_EXCEEDED,FCG='AL',MID='A',MON='0'B,ERR#=
              5721            E$PMAXC_EXCEEDED,SEV=0,STCLASS=CONSTANT);
       50     5766        %VLP_ERRCODE(FPTN=ALA_E$NO_MASTER,FCG='AL',MID='A',MON='0'B,ERR#=E$NO_MASTER,SEV=0,
              5766            STCLASS=CONSTANT);
       51     5811        %VLP_ERRCODE(FPTN=ALA_E$BLANK_ACCT_UNAME,FCG='AL',MID='A',MON='0'B,
       52     5812                      ERR#=E$BLANK_ACCT_UNAME,SEV=0,STCLASS=CONSTANT );
       53     5857        %VLP_ERRCODE(FPTN=ALA_E$SETUP_FORCED, FCG='AL', MID='A', MON='0'B,
       54     5858                      ERR#=E$SETUP_FORCED, SEV=0, STCLASS=CONSTANT );
       55     5903        %B$XL_LOWER_UR;
       56     5907        %B$SR_NON_ZERO;
       57     5911        %EJECT ;
PL6.E3A0      #001=ALA$LOGON File=ALA$LOGON.:E05TSI                              TUE 07/29/97 08:27 Page:44
       58     5912        /*********************************************************************/
       59     5913        /*   AUTO DATA       AUTO DATA       AUTO DATA       AUTO DATA       */
       60     5914        /*********************************************************************/
       61     5915                                                              /**/
       62     5916                                                              /*   :USERS RECORD.   */
       63     5917              %AS_USERS (STR_NAME = AS_USERS, STCLASS = AUTO) ;
       64     6095    1   DCL OUT_BUF CHAR(80) ;
       65     6096    1   DCL SUSMES_ANS CHAR(10);
       66     6097    1   DCL ARS UBIN ;
       67     6098    1   DCL 1 USERS_KEY ,
       68     6099    1         2 CNT UBIN(9) UNAL ,
       69     6100    1         2 TEXT CHAR(20) UNAL ;
       70     6101    1   DCL 1 LIMIT_KEY ,
       71     6102    1         2 CNT UBIN(9) UNAL ,
       72     6103    1         2 TEXT CHAR(20) UNAL ;
       73     6104    1   DCL TEXT$BUF(0:19) CHAR(1) BASED (TEXT$) UNAL ;
       74     6105    1   DCL 1 TEXT$C BASED,
       75     6106    1         2 L UBIN BYTE UNAL,
       76     6107    1         2 C CHAR(TEXT$C.L);
       77     6108    1   DCL DCB$ PTR ;
       78     6109    1   DCL KEY$ PTR ;
       79     6110    1   DCL TEXT$ PTR ;
       80     6111    1   DCL I UBIN ;
       81     6112    1   DCL UMAX SBIN ;                                 /*   MAXIMUM CHARGES.   */
       82     6113    1   DCL UACCUM UBIN ;                               /*   ACCUMULATED CHARGES.   */
       83     6114    1   DCL UBKACC BIT(1) ;                             /*   BANKRUPTCY ACCESS.   */
       84     6115    1   DCL TEMP_BIT BIT (1) ALIGNED;
       85     6116    1   DCL NOSETUP BIT(1) ALIGNED; /*BIT INDICATING IF NS WAS SET ON LOGON*/
       86     6117    1   DCL NOHEADER BIT(1) ALIGNED; /*BIT INDICATING IF NH WAS SET ON LOGON*/
       87     6118    1   DCL 1 MASTER_ACCT ,
       88     6119    1         2 CNT UBIN(9) UNAL ,
       89     6120    1         2 ACCT CHAR(8) UNAL ,
       90     6121    1         2 NAME CHAR(12) UNAL ;
       91     6122    1   DCL RE_BUDGET SBIN ;
       92     6123    1   DCL MODE UBIN WORD ;
       93     6124    1   DCL CP_SLEAZE_SET BIT(1) ;
              6124            /* Set to the Initial value of B$JIT.CPFLAGS1 & %CP_SLEAZE# */
PL6.E3A0      #001=ALA$LOGON File=ALA$LOGON.:E05TSI                              TUE 07/29/97 08:27 Page:45
       94     6125              %F$DCB( DCBN = F$DCB ) ;
       95     6182              %VLP_NAME(  FPTN = CP_NAME ,
       96     6183                          LEN = 31 ,
       97     6184                          STCLASS = AUTO ) ;
       98     6211    1   DCL CP_ACCT CHAR(8) ;
       99     6212    1   DCL CP_PASSW CHAR(8) ;
      100     6213    1   DCL 1 ERR_CODE AUTO ,
      101     6214    1         2 FCG_MID UBIN(18) UNAL ,
      102     6215    1         2 CODE UBIN(15) UNAL ,
      103     6216    1         2 SEV UBIN(3) UNAL ;
      104     6217    1   DCL AL_ACCT CHAR(8) ;
      105     6218    1   DCL SYS_GHOST BIT(1) ;
      106     6219        %LIST ;
      107     6220        %SET LISTSUB='1'B;
      108     6221                                                              /**/
      109     6222              %AL$TSTAMP ;
              6223                                                /*   TIME STAMP FOR B$JIT.LOGONTIME.  */
              6224    1         DCL 1 AL$TSTAMP AUTO ,
              6225    1               2 UTS UBIN WORD ,
              6226    1               2 TIME CHAR(11) UNAL ,
              6227    1               2 DAY  CHAR(3) UNAL ,
              6228    1               2 DATE CHAR(10) UNAL ;
      110     6230             /* The following is really for B$JIT.LAST_LOGON_TIME, ignore the comment. */
      111     6231              %AL$TSTAMP (STNAME=AL$LLT_TSTAMP);
              6232                                                /*   TIME STAMP FOR B$JIT.LOGONTIME.  */
              6233    1         DCL 1 AL$LLT_TSTAMP AUTO ,
              6234    1               2 UTS UBIN WORD ,
              6235    1               2 TIME CHAR(11) UNAL ,
              6236    1               2 DAY  CHAR(3) UNAL ,
              6237    1               2 DATE CHAR(10) UNAL ;
      112     6239              %CP_LIMREC( NAME = CP_LIMREC ,
      113     6240                          STCLASS =" ") ;
              6241    1   DCL 1 CP_LIMREC ALIGNED,
              6242    1         2 USER_MAX,                       /*JOB MAXIMUM*/
              6243    1           3 MAXCORE SBIN HALF UNAL,
              6244    1           3 FBUL SBIN HALF UNAL,
              6245    1           3 REMLO SBIN WORD,
PL6.E3A0      #001=ALA$LOGON File=ALA$LOGON.:E05TSI                              TUE 07/29/97 08:27 Page:46
              6246    1           3 REMCPO SBIN WORD,
              6247    1           3 REMDO SBIN WORD,
              6248    1           3 PRDPRM SBIN,
              6249    1           3 MAXTMPDP SBIN,
              6250    1           3 MRT SBIN,
              6251    1         2 CUR_MAX,                        /*CURRENT-DEFAULT MAXIMUM*/
              6252                                                /*= TO JIT @ LOGON TIME*/
              6253    1           3 MAXCORE SBIN HALF UNAL,
              6254    1           3 FBUL SBIN HALF UNAL,
              6255    1           3 REMLO SBIN WORD,
              6256    1           3 REMCPO SBIN WORD,
              6257    1           3 REMDO SBIN WORD,
              6258    1           3 PRDPRM SBIN,
              6259    1           3 MAXTMPDP SBIN,
              6260    1           3 MRT SBIN,
              6261    1         2 STEP_MAX,                       /*JOB STEP MAXIMUM*/
              6262    1           3 MAXCORE SBIN HALF UNAL,
              6263    1           3 FBUL SBIN HALF UNAL,
              6264    1           3 REMLO SBIN WORD,
              6265    1           3 REMCPO SBIN WORD,
              6266    1           3 REMDO SBIN WORD,
              6267    1           3 PRDPRM SBIN,
              6268    1           3 MAXTMPDP SBIN,
              6269    1           3 MRT SBIN,
              6270    1         2 CUMUL,                          /*JOB CUMULATIVE*/
              6271    1           3 REMLO SBIN WORD,
              6272    1           3 REMCPO SBIN WORD,
              6273    1           3 REMDO SBIN WORD,
              6274    1           3 MAXTMPDP SBIN,
              6275    1           3 PRDPRM SBIN,
              6276    1           3 MRT SBIN;
      114     6278                                                              /**/
      115     6279        %PLIST ;
      116     6280        %EJECT ;
PL6.E3A0      #001=ALA$LOGON File=ALA$LOGON.:E05TSI                              TUE 07/29/97 08:27 Page:47
      117     6281        /*********************************************************************/
      118     6282        /*   FPTS            FPTS            FPTS            FPTS            */
      119     6283        /*********************************************************************/
      120     6284                                                              /**/
      121     6285              %FPT_CPEXIT(  FPTN = FPT$CPEXIT ,
      122     6286                            STCLASS = AUTO ) ;
      123     6312            %FPT_CPEXIT(  FPTN = FPT_CPLOGOFF ,
      124     6313                          STCLASS ="CONSTANT SYMDEF");
      125     6339            %FPT_READ(FPTN = FPT_READ_SUSMES,
      126     6340                      DCB  = M$UC,
      127     6341                      STCLASS = CONSTANT);
      128     6380            %FPT_READ (FPTN = FPT$READ_SUSMES,
      129     6381                       STCLASS = AUTO);
      130     6420              %FPT_OPEN ( FPTN = FPT_OPEN_UC ,
      131     6421                          DCB = M$UC ,
      132     6422                          STCLASS = CONSTANT ) ;
      133     6531              %FPT_PROMPT(  FPTN = FPT_PROMPT_RESET, STCLASS = CONSTANT ) ;
      134     6559              %FPT_PROMPT(  FPTN = FPT_PROMPT_SUSYNDMES ,
      135     6560                            PROMPT = SUSYNDMES ,
      136     6561                            DCB = M$UC ,
      137     6562                            TRANS = NO ,
      138     6563                            VFC = YES ,
      139     6564                            STCLASS = CONSTANT ) ;
      140     6592              %FPT_WRITE( FPTN = FPT_WRITE_SUSMES ,
      141     6593                          BUF = SUSMES ,
      142     6594                          DCB = M$UC ,
      143     6595                          VFC = YES ,
      144     6596                          STCLASS = CONSTANT ) ;
      145     6627              %FPT_OCMSG (  FPTN = FPT_OCMSG ,
      146     6628                            MSG = USERS_NO_VAL ,
      147     6629                            OCTYPE = ADCOM ,
      148     6630                            STCLASS = CONSTANT ) ;
      149     6646         %FPT_TRAP ( ARITHMETIC=ALA$TRAP,ERRORS=ALA$TRAP,PROGRAMMED=ALA$TRAP,
      150     6647                    PMME=ALA$TRAP,DIVIDE_CHECK=TRAP,OVERFLOW=TRAP,COMMAND=TRAP,
      151     6648                    IPR=TRAP,LOCKUP=TRAP,MEMORY=TRAP,MISSING_PAGE=TRAP,
      152     6649                    MISSING_SEG=TRAP,SECURITY_1=TRAP,SECURITY_2=TRAP,
      153     6650                    DERAIL=TRAP,FAULT_TAG=TRAP,MME=TRAP,STCLASS=CONSTANT);
PL6.E3A0      #001=ALA$LOGON File=ALA$LOGON.:E05TSI                              TUE 07/29/97 08:27 Page:48
      154     6673        %EJECT ;
PL6.E3A0      #001=ALA$LOGON File=ALA$LOGON.:E05TSI                              TUE 07/29/97 08:27 Page:49
      155     6674        /*********************************************************************/
      156     6675        /*   ENTRIES         ENTRIES         ENTRIES         ENTRIES         */
      157     6676        /*********************************************************************/
      158     6677                                                              /**/
      159     6678    1   DCL ALA$OPEN_USERS ENTRY ALTRET ;
      160     6679    1   DCL ALA$BANNER2_STAR_S ENTRY (3) ALTRET ;
      161     6680    1   DCL ALA$CLOSE_USERS ENTRY ALTRET ;
      162     6681    1   DCL ALA$READ_USERS ENTRY(2) ALTRET ;
      163     6682    1   DCL ALA$GETUSERS ENTRY ALTRET ;
      164     6683    1   DCL ALA$LOG_ON ENTRY ;
      165     6684    1   DCL ALA$CPEXIT ENTRY(1) ;
      166     6685    1   DCL ALA$ERROR ENTRY(4) ;
      167     6686    1   DCL ALA$READ_SEQ_USERS ENTRY(2) ALTRET ;
      168     6687    1   DCL ALA$HEADING ENTRY(1) ;
      169     6688    1   DCL ALA$TIME ENTRY(1) ;
      170     6689    1   DCL ALA$OPEN_STAR_A ENTRY(1) ALTRET ;
      171     6690    1   DCL ALA$OPEN_STAR_S ENTRY(1) ALTRET ;
      172     6691    1   DCL ALA$CLOSE_STAR ENTRY ALTRET ;
      173     6692    1   DCL ALA$GETSTARS ENTRY ALTRET ;
      174     6693    1   DCL ALA$WRITE_STAR ENTRY(5) ALTRET ;
      175     6694    1   DCL ALA$WRITE_USERS ENTRY(2) ALTRET ;
      176     6695    1   DCL ALA$YESNOD ENTRY(2) ALTRET ;
      177     6696    1   DCL ALA$TRAP ENTRY ASYNC;
      178     6697    1   DCL ALA$SYS_ERROR ENTRY;
      179     6698        %EJECT ;
PL6.E3A0      #001=ALA$LOGON File=ALA$LOGON.:E05TSI                              TUE 07/29/97 08:27 Page:50
      180     6699        /*********************************************************************/
      181     6700        /*   SYS DEFAULTS    SYS DEFAULTS    SYS DEFAULTS    SYS DEFAULTS    */
      182     6701        /*********************************************************************/
      183     6702                                                              /**/
      184     6703    1   DCL SYS_UMAX SBIN WORD CONSTANT INIT(50000) ;

   6703  2 000002                       BEGIN        null
      185     6704        %EJECT ;
PL6.E3A0      #001=ALA$LOGON File=ALA$LOGON.:E05TSI                              TUE 07/29/97 08:27 Page:51
      186     6705        /*********************************************************************/
      187     6706        /*   PROCEDURE       PROCEDURE       PROCEDURE       PROCEDURE       */
      188     6707        /*********************************************************************/
      189     6708                                                              /**/
      190     6709    1   BEGIN: ;
      191     6710                                                     /**/
      192     6711    1         LIMIT_KEY.CNT = 5;

   6711  2 000002   005000 236003                    LDQ     2560,DU
         2 000003   201045 552140                    STBQ    LIMIT_KEY,'40'O,AUTO

      193     6712    1         LIMIT_KEY.TEXT = 'LIMIT';

   6712  2 000004   040100 100400                    MLR     fill='040'O
         2 000005   001301 000005 1                  ADSC9   LFC_VLP+5                cn=0,n=5
         2 000006   201045 200024                    ADSC9   LIMIT_KEY,,AUTO          cn=1,n=20

      194     6713    1         DCB$ = DCBADDR(DCBNUM(M$UC));

   6713  2 000007   000000 236007 xsym               LDQ     M$UC,DL
         2 000010   000000 470400 3                  LDP0    0
         2 000011   000000 471500                    LDP1    0,,PR0
         2 000012   100000 236106                    LDQ     0,QL,PR1
         2 000013   201053 756100                    STQ     DCB$,,AUTO

      195     6714    1         MODE = B$JIT.MODE;

   6714  2 000014   000000 473400 xsym               LDP3    B$JIT$
         2 000015   300000 236100                    LDQ     0,,PR3
         2 000016   000040 772000                    QRL     32
         2 000017   201074 756100                    STQ     MODE,,AUTO

      196     6715    1         AL_ACCT = B$JIT.ACCN;

   6715  2 000020   040100 100500                    MLR     fill='040'O
         2 000021   300001 000010                    ADSC9   1,,PR3                   cn=0,n=8
         2 000022   201113 000010                    ADSC9   AL_ACCT,,AUTO            cn=0,n=8
PL6.E3A0      #001=ALA$LOGON File=ALA$LOGON.:E05TSI                              TUE 07/29/97 08:27 Page:52

      197     6716    2         CALL M$TRAP( FPT_TRAP ) WHENALTRETURN DO;

   6716  2 000023   001236 630400 1                  EPPR0   FPT_TRAP
         2 000024   410004 713400                    CLIMB   alt,+4100
         2 000025   400400 401760                    pmme    nvectors=2
         2 000026   000030 702000 2                  TSX2    s:6718
         2 000027   000030 710000 2                  TRA     s:6718

      198     6717    2             END;

      199     6718    1         AL$TSTAMP.UTS = B$JIT.LOGONTIME;

   6718  2 000030   000000 470400 xsym               LDP0    B$JIT$
         2 000031   000150 235100                    LDA     104,,PR0
         2 000032   201116 755100                    STA     AL$TSTAMP,,AUTO

      200     6719    1         CALL ALA$TIME( AL$TSTAMP );

   6719  2 000033   201116 631500                    EPPR1   AL$TSTAMP,,AUTO
         2 000034   202262 451500                    STP1    FIELD2+12,,AUTO
         2 000035   202262 630500                    EPPR0   FIELD2+12,,AUTO
         2 000036   000017 631400 xsym               EPPR1   B_VECTNIL+15
         2 000037   000000 701000 xent               TSX1    ALA$TIME
         2 000040   000000 011000                    NOP     0

      201     6720                                                     /**/
      202     6721                                                     /* ASSOCIATE SUSPENDED PROGRAM   */
      203     6722                                                     /* IF DESIRED                    */
      204     6723    1         IF MODE=%M_INT# AND DCB$->F$DCB.ASN#=%DEVICE#

   6723  2 000041   201074 235100                    LDA     MODE,,AUTO
         2 000042   000003 115007                    CMPA    3,DL
         2 000043   000164 601000 2                  TNZ     NOT_SUSPENDED
         2 000044   201053 470500                    LDP0    DCB$,,AUTO
         2 000045   000032 236100                    LDQ     26,,PR0
         2 000046   777000 376007                    ANQ     -512,DL
PL6.E3A0      #001=ALA$LOGON File=ALA$LOGON.:E05TSI                              TUE 07/29/97 08:27 Page:53
         2 000047   003000 116007                    CMPQ    1536,DL
         2 000050   000164 601000 2                  TNZ     NOT_SUSPENDED

      205     6724    2         THEN DO;          /* ONLINE OR CONSOLE GHOST */

      206     6725    2             CALL M$FSUSER ALTRET(NOT_SUSPENDED);

   6725  2 000051   400014 713400                    CLIMB   alt,+12
         2 000052   000000 401760                    pmme    nvectors=0
         2 000053   000164 702000 2                  TSX2    NOT_SUSPENDED

      207     6726    2             CALL M$OPEN( FPT_OPEN_UC ) ALTRET( READ_ERR_MESS ) ;

   6726  2 000054   001072 630400 1                  EPPR0   FPT_OPEN_UC
         2 000055   450000 713400                    CLIMB   alt,open
         2 000056   410400 401760                    pmme    nvectors=18
         2 000057   001141 702000 2                  TSX2    READ_USERS_ERR

      208     6727    2             CALL M$WRITE( FPT_WRITE_SUSMES ) ;

   6727  2 000060   001210 630400 1                  EPPR0   FPT_WRITE_SUSMES
         2 000061   040001 713400                    CLIMB   write
         2 000062   401400 401760                    pmme    nvectors=4

      209     6728    2             CALL M$PROMPT( FPT_PROMPT_SUSYNDMES ) ;

   6728  2 000063   001176 630400 1                  EPPR0   FPT_PROMPT_SUSYNDMES
         2 000064   160002 713400                    CLIMB   57346
         2 000065   401000 401760                    pmme    nvectors=3

      210     6729    2             FPT$READ_SUSMES = FPT_READ_SUSMES;

   6729  2 000066   000100 100400                    MLR     fill='000'O
         2 000067   001054 000070 1                  ADSC9   FPT_READ_SUSMES          cn=0,n=56
         2 000070   201206 000070                    ADSC9   FPT$READ_SUSMES,,AUTO    cn=0,n=56

      211     6730    2             FPT$READ_SUSMES.V_ = VECTOR(FPT$READ_SUSMES.V);
PL6.E3A0      #001=ALA$LOGON File=ALA$LOGON.:E05TSI                              TUE 07/29/97 08:27 Page:54

   6730  2 000071   000001 235000 3                  LDA     1
         2 000072   202262 452500                    STP2    FIELD2+12,,AUTO
         2 000073   202262 236100                    LDQ     FIELD2+12,,AUTO
         2 000074   001216 036003                    ADLQ    654,DU
         2 000075   201206 757100                    STAQ    FPT$READ_SUSMES,,AUTO

      212     6731    2             FPT$READ_SUSMES.BUF_ = VECTOR(SUSMES_ANS);

   6731  2 000076   000002 235000 3                  LDA     2
         2 000077   202262 452500                    STP2    FIELD2+12,,AUTO
         2 000100   202262 236100                    LDQ     FIELD2+12,,AUTO
         2 000101   001033 036003                    ADLQ    539,DU
         2 000102   201212 757100                    STAQ    FPT$READ_SUSMES+4,,AUTO

   6731  2 000103                       YESNOD_ALT   null
      213     6732    2   YESNOD_ALT: ;
      214     6733    2             SUSMES_ANS = AL_BLANK ;

   6733  2 000103   040100 100400                    MLR     fill='040'O
         2 000104   000000 000001 xsym               ADSC9   AL_BLANK                 cn=0,n=1
         2 000105   201033 000012                    ADSC9   SUSMES_ANS,,AUTO         cn=0,n=10

      215     6734    2             CALL M$READ(FPT$READ_SUSMES) ALTRET(YESNOD_ALT);

   6734  2 000106   201206 630500                    EPPR0   FPT$READ_SUSMES,,AUTO
         2 000107   440000 713400                    CLIMB   alt,read
         2 000110   401400 401760                    pmme    nvectors=4
         2 000111   000103 702000 2                  TSX2    YESNOD_ALT

      216     6735    2             ARS = DCB$ -> F$DCB.ARS# ;

   6735  2 000112   201053 470500                    LDP0    DCB$,,AUTO
         2 000113   000000 235100                    LDA     0,,PR0
         2 000114   201036 755100                    STA     ARS,,AUTO

      217     6736    2             CALL ALA$YESNOD( SUSMES_ANS, ARS ) ALTRET( YESNOD_ALT );
PL6.E3A0      #001=ALA$LOGON File=ALA$LOGON.:E05TSI                              TUE 07/29/97 08:27 Page:55

   6736  2 000115   201036 631500                    EPPR1   ARS,,AUTO
         2 000116   202263 451500                    STP1    FIELD2+13,,AUTO
         2 000117   201033 633500                    EPPR3   SUSMES_ANS,,AUTO
         2 000120   202262 453500                    STP3    FIELD2+12,,AUTO
         2 000121   202262 630500                    EPPR0   FIELD2+12,,AUTO
         2 000122   000020 631400 xsym               EPPR1   B_VECTNIL+16
         2 000123   000000 701000 xent               TSX1    ALA$YESNOD
         2 000124   000103 702000 2                  TSX2    YESNOD_ALT

      218     6737    2             CALL M$PROMPT( FPT_PROMPT_RESET );      /* Reset to the default prompt */

   6737  2 000125   001164 630400 1                  EPPR0   FPT_PROMPT_RESET
         2 000126   160002 713400                    CLIMB   57346
         2 000127   401000 401760                    pmme    nvectors=3

      219     6738    2             IF SUSMES_ANS = 'Y'

   6738  2 000130   040000 106500                    CMPC    fill='040'O
         2 000131   201033 000012                    ADSC9   SUSMES_ANS,,AUTO         cn=0,n=10
         2 000132   000003 000001 3                  ADSC9   3                        cn=0,n=1
         2 000133   000143 601000 2                  TNZ     s:6745

      220     6739    2             THEN                            /* RECONNECT */
      221     6740    3             DO ;

      222     6741    3                 CALL M$ASUSER ALTRET( ASUSER_ALT ) ;

   6741  2 000134   400015 713400                    CLIMB   alt,+13
         2 000135   000000 401760                    pmme    nvectors=0
         2 000136   000153 702000 2                  TSX2    ASUSER_ALT

      223     6742    3                 CALL ALA$CPEXIT ;            /* LOG OFF THIS USER */

   6742  2 000137   000002 631400 xsym               EPPR1   B_VECTNIL+2
         2 000140   000000 701000 xent               TSX1    ALA$CPEXIT
         2 000141   000000 011000                    NOP     0
PL6.E3A0      #001=ALA$LOGON File=ALA$LOGON.:E05TSI                              TUE 07/29/97 08:27 Page:56

      224     6743    3                 END ; /* THEN DO */

   6743  2 000142   000152 710000 2                  TRA     s:6748

      225     6744    2             ELSE
      226     6745    2                 IF SUSMES_ANS = 'D'

   6745  2 000143   040000 106500                    CMPC    fill='040'O
         2 000144   201033 000012                    ADSC9   SUSMES_ANS,,AUTO         cn=0,n=10
         2 000145   000004 000001 3                  ADSC9   4                        cn=0,n=1
         2 000146   000152 601000 2                  TNZ     s:6748

      227     6746    2                 THEN                    /* DELETE */
      228     6747    2                     CALL M$DSUSER ALTRET( DSUSER_ALT ) ;

   6747  2 000147   400016 713400                    CLIMB   alt,+14
         2 000150   000000 401760                    pmme    nvectors=0
         2 000151   000160 702000 2                  TSX2    DSUSER_ALT

      229     6748    3             DO WHILE( '0'B ) ;

   6748  2 000152   000157 710000 2                  TRA     s:6755

   6740  2 000153                       ASUSER_ALT   null
      230     6749    3   ASUSER_ALT:   ;
      231     6750        /*E*  ERROR:    ALA-E$ASUSER_ERR-C
      232     6751              MESSAGE0: Image lost, no reconnect.
      233     6752        */
      234     6753    3                 CALL ALA$ERROR( ALA_E$ASUSER_ERR );

   6753  2 000153   000005 630400 3                  EPPR0   5
         2 000154   000017 631400 xsym               EPPR1   B_VECTNIL+15
         2 000155   000000 701000 xent               TSX1    ALA$ERROR
         2 000156   000000 011000                    NOP     0

      235     6754    3                 END ; /* DO WHILE */
PL6.E3A0      #001=ALA$LOGON File=ALA$LOGON.:E05TSI                              TUE 07/29/97 08:27 Page:57

      236     6755    3             DO WHILE( '0'B ) ;

   6755  2 000157   000164 710000 2                  TRA     NOT_SUSPENDED

      237     6756    3   DSUSER_ALT:   ;

   6756  2 000160                       DSUSER_ALT   null
      238     6757        /*E*  ERROR:    ALA-E$DSUSER_ERR-C
      239     6758              MESSAGE0: Image already deleted.
      240     6759        */
      241     6760    3                 CALL ALA$ERROR( ALA_E$DSUSER_ERR );

   6760  2 000160   000006 630400 3                  EPPR0   6
         2 000161   000017 631400 xsym               EPPR1   B_VECTNIL+15
         2 000162   000000 701000 xent               TSX1    ALA$ERROR
         2 000163   000000 011000                    NOP     0

      242     6761    3                 END ; /* DO WHILE */

      243     6762    2   NOT_SUSPENDED:
      244     6763    2             END;

   6763  2 000164                       NOT_SUSPEND* null
      245     6764                                                              /**/
      246     6765    1         B$JIT.CPFLAGS1 = B$JIT.CPFLAGS1 | %CP_FIRSTCP# ;

   6765  2 000164   000000 470400 xsym               LDP0    B$JIT$
         2 000165   000143 236100                    LDQ     99,,PR0
         2 000166   000020 276000 xsym               ORQ     B_VECTNIL+16
         2 000167   000143 756100                    STQ     99,,PR0

      247     6766    1         FPT$CPEXIT = FPT_CPLOGOFF ;

   6766  2 000170   000100 100400                    MLR     fill='000'O
         2 000171   001036 000070 1                  ADSC9   FPT_CPLOGOFF             cn=0,n=56
         2 000172   201170 000070                    ADSC9   FPT$CPEXIT,,AUTO         cn=0,n=56
PL6.E3A0      #001=ALA$LOGON File=ALA$LOGON.:E05TSI                              TUE 07/29/97 08:27 Page:58

      248     6767    1         FPT$CPEXIT.NAME_ = VECTOR(CP_NAME) ;

   6767  2 000173   000007 235000 3                  LDA     7
         2 000174   202262 452500                    STP2    FIELD2+12,,AUTO
         2 000175   202262 236100                    LDQ     FIELD2+12,,AUTO
         2 000176   001076 036003                    ADLQ    574,DU
         2 000177   201170 757100                    STAQ    FPT$CPEXIT,,AUTO

      249     6768    1         FPT$CPEXIT.ACCT_ = VECTOR(CP_ACCT) ;

   6768  2 000200   000010 235000 3                  LDA     8
         2 000201   202262 452500                    STP2    FIELD2+12,,AUTO
         2 000202   202262 236100                    LDQ     FIELD2+12,,AUTO
         2 000203   001106 036003                    ADLQ    582,DU
         2 000204   201172 757100                    STAQ    FPT$CPEXIT+2,,AUTO

      250     6769    1         FPT$CPEXIT.PASS_ = VECTOR(CP_PASSW) ;

   6769  2 000205   000010 235000 3                  LDA     8
         2 000206   202262 452500                    STP2    FIELD2+12,,AUTO
         2 000207   202262 236100                    LDQ     FIELD2+12,,AUTO
         2 000210   001110 036003                    ADLQ    584,DU
         2 000211   201174 757100                    STAQ    FPT$CPEXIT+4,,AUTO

      251     6770    1         FPT$CPEXIT.V_ = VECTOR(FPT$CPEXIT.V) ;

   6770  2 000212   000010 235000 3                  LDA     8
         2 000213   202262 452500                    STP2    FIELD2+12,,AUTO
         2 000214   202262 236100                    LDQ     FIELD2+12,,AUTO
         2 000215   001204 036003                    ADLQ    644,DU
         2 000216   201202 757100                    STAQ    FPT$CPEXIT+10,,AUTO

      252     6771    1         IF B$JIT$ -> B$JIT.USRERR.CODE ~= 0

   6771  2 000217   000144 236100                    LDQ     100,,PR0
         2 000220   377770 316007                    CANQ    131064,DL
PL6.E3A0      #001=ALA$LOGON File=ALA$LOGON.:E05TSI                              TUE 07/29/97 08:27 Page:59
         2 000221   000224 600000 2                  TZE     s:6776

      253     6772    1         THEN
      254     6773    1             CALL CP_NO_EXISTS ;

   6773  2 000222   001562 701000 2                  TSX1    CP_NO_EXISTS
         2 000223   000000 011000                    NOP     0

      255     6774              /*                               */
      256     6775                                                              /* IS THIS A SYSTEM GHOST? */
      257     6776    1         IF B$JIT.USER <= 15/*JG_MING#    */

   6776  2 000224   000000 470400 xsym               LDP0    B$JIT$
         2 000225   000000 236100                    LDQ     0,,PR0
         2 000226   000777 376003                    ANQ     511,DU
         2 000227   000020 116003                    CMPQ    16,DU
         2 000230   000235 603000 2                  TRC     s:6780

      258     6777    1         THEN
      259     6778    1             SYS_GHOST = AL_TRUE ;

   6778  2 000231   000000 236000 xsym               LDQ     AL_TRUE
         2 000232   400000 376003                    ANQ     -131072,DU
         2 000233   201115 756100                    STQ     SYS_GHOST,,AUTO
         2 000234   000240 710000 2                  TRA     s:6782

      260     6779    1         ELSE
      261     6780    1             SYS_GHOST = AL_FALSE ;

   6780  2 000235   000000 236000 xsym               LDQ     AL_FALSE
         2 000236   400000 376003                    ANQ     -131072,DU
         2 000237   201115 756100                    STQ     SYS_GHOST,,AUTO

      262     6781              /*                               */
      263     6782    1         NOSETUP = B$JIT.BLINDACCTNG; /* SAVE THE FLAG */

   6782  2 000240   000153 236100                    LDQ     107,,PR0
PL6.E3A0      #001=ALA$LOGON File=ALA$LOGON.:E05TSI                              TUE 07/29/97 08:27 Page:60
         2 000241   000022 736000                    QLS     18
         2 000242   400000 376003                    ANQ     -131072,DU
         2 000243   201063 756100                    STQ     NOSETUP,,AUTO

      264     6783    1         NOHEADER = B$JIT.LOCK (0); /* SAVE THE FLAG */

   6783  2 000244   000154 236100                    LDQ     108,,PR0
         2 000245   400000 376003                    ANQ     -131072,DU
         2 000246   201064 756100                    STQ     NOHEADER,,AUTO

      265     6784    1         CP_SLEAZE_SET = AL_FALSE;

   6784  2 000247   000000 236000 xsym               LDQ     AL_FALSE
         2 000250   400000 376003                    ANQ     -131072,DU
         2 000251   201075 756100                    STQ     CP_SLEAZE_SET,,AUTO

      266     6785    1         IF (B$JIT.CPFLAGS1 & %CP_SLEAZE#) = %CP_SLEAZE#

   6785  2 000252   000143 236100                    LDQ     99,,PR0
         2 000253   000003 376000 xsym               ANQ     B_VECTNIL+3
         2 000254   000003 116000 xsym               CMPQ    B_VECTNIL+3
         2 000255   000316 601000 2                  TNZ     s:6799

      267     6786    2         THEN DO ;

      268     6787    2             B$JIT.CPFLAGS1 = B$JIT.CPFLAGS1 & ~%CP_SLEAZE#;

   6787  2 000256   000003 236000 xsym               LDQ     B_VECTNIL+3
         2 000257   000027 676000 xsym               ERQ     B_VECTNIL+23
         2 000260   000143 376100                    ANQ     99,,PR0
         2 000261   000143 756100                    STQ     99,,PR0

      269     6788    2             CP_SLEAZE_SET = AL_TRUE;

   6788  2 000262   000000 236000 xsym               LDQ     AL_TRUE
         2 000263   400000 376003                    ANQ     -131072,DU
         2 000264   201075 756100                    STQ     CP_SLEAZE_SET,,AUTO
PL6.E3A0      #001=ALA$LOGON File=ALA$LOGON.:E05TSI                              TUE 07/29/97 08:27 Page:61

      270     6789    2             AS_USERS = DF_USERS ;

   6789  2 000265   000100 100400                    MLR     fill='000'O
         2 000266   000001 004020 1                  ADSC9   DF_USERS                 cn=0,n=2064
         2 000267   200003 004020                    ADSC9   AS_USERS,,AUTO           cn=0,n=2064

      271     6790    2             CP_NAME = DF_CP_NAME ;

   6790  2 000270   000100 100400                    MLR     fill='000'O
         2 000271   000000 000040 xsym               ADSC9   DF_CP_NAME               cn=0,n=32
         2 000272   201076 000040                    ADSC9   CP_NAME,,AUTO            cn=0,n=32

      272     6791    2             CP_ACCT = DF_CP_ACCT ;

   6791  2 000273   040100 100400                    MLR     fill='040'O
         2 000274   000000 000010 xsym               ADSC9   DF_CP_ACCT               cn=0,n=8
         2 000275   201106 000010                    ADSC9   CP_ACCT,,AUTO            cn=0,n=8

      273     6792    2             CP_PASSW = DF_CP_PASS ;

   6792  2 000276   040100 100400                    MLR     fill='040'O
         2 000277   000000 000010 xsym               ADSC9   DF_CP_PASS               cn=0,n=8
         2 000300   201110 000010                    ADSC9   CP_PASSW,,AUTO           cn=0,n=8

      274     6793    2             B$JIT.SSLEV = %AZ_NONE# ;

   6793  2 000301   000151 236100                    LDQ     105,,PR0
         2 000302   000011 376000 3                  ANQ     9
         2 000303   003000 276003                    ORQ     1536,DU
         2 000304   000151 756100                    STQ     105,,PR0

      275     6794    2             B$JIT.PSLEV = %AZ_NONE# ;

   6794  2 000305   000151 236100                    LDQ     105,,PR0
         2 000306   000012 376000 3                  ANQ     10
         2 000307   030000 276003                    ORQ     12288,DU
PL6.E3A0      #001=ALA$LOGON File=ALA$LOGON.:E05TSI                              TUE 07/29/97 08:27 Page:62
         2 000310   000151 756100                    STQ     105,,PR0

      276     6795    2             B$JIT.JSLEV = %AZ_NONE# ;

   6795  2 000311   000151 236100                    LDQ     105,,PR0
         2 000312   000013 376000 3                  ANQ     11
         2 000313   300000 276003                    ORQ     98304,DU
         2 000314   000151 756100                    STQ     105,,PR0

      277     6796    2             GOTO DO_STARS ;

   6796  2 000315   000717 710000 2                  TRA     DO_STARS

      278     6797    2             END ;   /*   THEN DO   */
      279     6798                                                              /*   SET UP USERS_KEY  */
      280     6799    1         CALL CONCAT( USERS_KEY.TEXT, B$JIT.ACCN, B$JIT.UNAME );

   6799  2 000316   040100 100500                    MLR     fill='040'O
         2 000317   000001 000010                    ADSC9   1,,PR0                   cn=0,n=8
         2 000320   201037 200010                    ADSC9   USERS_KEY,,AUTO          cn=1,n=8
         2 000321   040100 100500                    MLR     fill='040'O
         2 000322   000003 000014                    ADSC9   3,,PR0                   cn=0,n=12
         2 000323   201041 200014                    ADSC9   USERS_KEY+2,,AUTO        cn=1,n=12

      281     6800    2         IF USERS_KEY.TEXT = AL_BLANK THEN DO;

   6800  2 000324   040000 106500                    CMPC    fill='040'O
         2 000325   201037 200024                    ADSC9   USERS_KEY,,AUTO          cn=1,n=20
         2 000326   000000 000001 xsym               ADSC9   AL_BLANK                 cn=0,n=1
         2 000327   000337 601000 2                  TNZ     s:6807

      282     6801        /*E*  ERROR:  ALA-E$BLANK_ACCT_UNAME-A
      283     6802              MESSAGE: B$JIT.ACCT and B$JIT.UNAME are blank.
      284     6803        */
      285     6804    2             CALL ALA$ERROR( ALA_E$BLANK_ACCT_UNAME );

   6804  2 000330   000014 630400 3                  EPPR0   12
PL6.E3A0      #001=ALA$LOGON File=ALA$LOGON.:E05TSI                              TUE 07/29/97 08:27 Page:63
         2 000331   000017 631400 xsym               EPPR1   B_VECTNIL+15
         2 000332   000000 701000 xent               TSX1    ALA$ERROR
         2 000333   000000 011000                    NOP     0

      286     6805    2             CALL ALA$CPEXIT;

   6805  2 000334   000002 631400 xsym               EPPR1   B_VECTNIL+2
         2 000335   000000 701000 xent               TSX1    ALA$CPEXIT
         2 000336   000000 011000                    NOP     0

      287     6806    2             END;

      288     6807    1         CALL INDEX( I, AL_BLANK, B$JIT.UNAME );

   6807  2 000337   000000 470400 xsym               LDP0    B$JIT$
         2 000340   000000 124500                    SCM     mask='000'O
         2 000341   000003 000014                    ADSC9   3,,PR0                   cn=0,n=12
         2 000342   000000 000001 xsym               ADSC9   AL_BLANK                 cn=0,n=1
         2 000343   201056 000100                    ARG     I,,AUTO

      289     6808    1         USERS_KEY.CNT = 8 + I;

   6808  2 000344   201056 236100                    LDQ     I,,AUTO
         2 000345   000010 036007                    ADLQ    8,DL
         2 000346   000033 736000                    QLS     27
         2 000347   201037 552140                    STBQ    USERS_KEY,'40'O,AUTO

      290     6809                                                      /* READ IN A :USERS RECORD. */
      291     6810    1         CALL ALA$GETUSERS ;                     /* SET UP M$USERS DCB FOR READ. */

   6810  2 000350   000002 631400 xsym               EPPR1   B_VECTNIL+2
         2 000351   000000 701000 xent               TSX1    ALA$GETUSERS
         2 000352   000000 011000                    NOP     0

      292     6811    1         CALL ALA$OPEN_USERS ALTRET(OPEN_USERS_ERR) ;

   6811  2 000353   000002 631400 xsym               EPPR1   B_VECTNIL+2
PL6.E3A0      #001=ALA$LOGON File=ALA$LOGON.:E05TSI                              TUE 07/29/97 08:27 Page:64
         2 000354   000000 701000 xent               TSX1    ALA$OPEN_USERS
         2 000355   001164 702000 2                  TSX2    OPEN_USERS_ERR

      293     6812    1         CALL ALA$READ_USERS (USERS_KEY, AS_USERS) ALTRET(READ_USERS_ERR) ;

   6812  2 000356   200003 630500                    EPPR0   AS_USERS,,AUTO
         2 000357   202263 450500                    STP0    FIELD2+13,,AUTO
         2 000360   201037 631500                    EPPR1   USERS_KEY,,AUTO
         2 000361   202262 451500                    STP1    FIELD2+12,,AUTO
         2 000362   202262 630500                    EPPR0   FIELD2+12,,AUTO
         2 000363   000020 631400 xsym               EPPR1   B_VECTNIL+16
         2 000364   000000 701000 xent               TSX1    ALA$READ_USERS
         2 000365   001141 702000 2                  TSX2    READ_USERS_ERR

   6808  2 000366                       USER_OK      null
      294     6813                                                              /*   RECORD EXISTS.  */
      295     6814                        /*                                    */
      296     6815                        /*      CHECK BUDGET.                 */
      297     6816                        /*                                    */
      298     6817    1   USER_OK: ;
      299     6818                                                              /**/
      300     6819                                                              /*   SET ECHO IN JIT.   */
      301     6820    1         B$JIT.CPFLAGS1 = B$JIT.CPFLAGS1 | %CP_ECHO# | %CP_CFREAD#;

   6820  2 000366   000000 470400 xsym               LDP0    B$JIT$
         2 000367   000143 236100                    LDQ     99,,PR0
         2 000370   000012 276000 xsym               ORQ     B_VECTNIL+10
         2 000371   001303 276000 1                  ORQ     LFC_VLP+7
         2 000372   000143 756100                    STQ     99,,PR0

      302     6821    1         B$JIT.PRIV.AUTH = AS_USERS.PRIV(MODE-1) ;

   6821  2 000373   201074 720100                    LXL0    MODE,,AUTO
         2 000374   200227 236110                    LDQ     AS_USERS+148,X0,AUTO
         2 000375   000014 756100                    STQ     12,,PR0

      303     6822                                                              /*  SHUT OFF EFT AND BLK */
PL6.E3A0      #001=ALA$LOGON File=ALA$LOGON.:E05TSI                              TUE 07/29/97 08:27 Page:65
      304     6823    1         B$JIT.PRIV.AUTH = B$JIT.PRIV.AUTH & ~%PR_FMEFT# & ~%PR_FMBLK#;

   6823  2 000376   000030 236000 xsym               LDQ     B_VECTNIL+24
         2 000377   000027 676000 xsym               ERQ     B_VECTNIL+23
         2 000400   000014 376100                    ANQ     12,,PR0
         2 000401   202262 756100                    STQ     FIELD2+12,,AUTO
         2 000402   001304 236000 1                  LDQ     LFC_VLP+8
         2 000403   000027 676000 xsym               ERQ     B_VECTNIL+23
         2 000404   202262 376100                    ANQ     FIELD2+12,,AUTO
         2 000405   000014 756100                    STQ     12,,PR0

      305     6824                                                         /* SET ACTIVE, JOB, PRC TO '0'B */
      306     6825    1         B$JIT.PRIV.ACTIVE = '0'B ;

   6825  2 000406   000013 450100                    STZ     11,,PR0

      307     6826    1         B$JIT.PRIV.JOB = '0'B ;

   6826  2 000407   000015 450100                    STZ     13,,PR0

      308     6827    1         B$JIT.PRIV.PRC = '0'B ;

   6827  2 000410   000016 450100                    STZ     14,,PR0

      309     6828                                                              /* Set PROC. PRIV. */
      310     6829    1         B$JIT.PPRIV = AS_USERS.PPRIV(MODE-1) ;

   6829  2 000411   200233 236110                    LDQ     AS_USERS+152,X0,AUTO
         2 000412   000020 756100                    STQ     16,,PR0

      311     6830    1         B$JIT.PRIOB = AS_USERS.PRIOB(MODE-1) ;

   6830  2 000413   201074 235100                    LDA     MODE,,AUTO
         2 000414   000100 100505                    MLR     fill='000'O
         2 000415   200243 600001                    ADSC9   AS_USERS+160,A,AUTO      cn=3,n=1
         2 000416   000260 400001                    ADSC9   176,,PR0                 cn=2,n=1

PL6.E3A0      #001=ALA$LOGON File=ALA$LOGON.:E05TSI                              TUE 07/29/97 08:27 Page:66
      312     6831    1         B$JIT.QUAN = AS_USERS.QUAN(MODE-1) * 1000;

   6831  2 000417   000001 735000                    ALS     1
         2 000420   000100 100505                    MLR     fill='000'O
         2 000421   200237 400002                    ADSC9   AS_USERS+156,A,AUTO      cn=2,n=2
         2 000422   202262 000004                    ADSC9   FIELD2+12,,AUTO          cn=0,n=4
         2 000423   202262 236100                    LDQ     FIELD2+12,,AUTO
         2 000424   000022 732000                    QRS     18
         2 000425   001750 402007                    MPY     1000,DL
         2 000426   000000 621006                    EAX1    0,QL
         2 000427   000260 741100                    STX1    176,,PR0

      313     6832    1         IF AS_USERS.MAXENQ(MODE-1)>0 THEN B$JIT.MAXENQ = AS_USERS.MAXENQ(MODE-1);

   6832  2 000430   201074 235100                    LDA     MODE,,AUTO
         2 000431   000001 735000                    ALS     1
         2 000432   000100 101505                    MRL     fill='000'O
         2 000433   200777 400002                    ADSC9   AS_USERS+508,A,AUTO      cn=2,n=2
         2 000434   202262 000004                    ADSC9   FIELD2+12,,AUTO          cn=0,n=4
         2 000435   202262 236100                    LDQ     FIELD2+12,,AUTO
         2 000436   000000 116003                    CMPQ    0,DU
         2 000437   000443 600000 2                  TZE     s:6834

   6832  2 000440   000100 100505                    MLR     fill='000'O
         2 000441   200777 400002                    ADSC9   AS_USERS+508,A,AUTO      cn=2,n=2
         2 000442   000363 000002                    ADSC9   243,,PR0                 cn=0,n=2

      314     6833                                                        /* Set misc. stuff. */
      315     6834    1         B$JIT.CSLEV = 0; /* Level count for nested XEQs. */

   6834  2 000443   000000 236003                    LDQ     0,DU
         2 000444   000170 552120                    STBQ    120,'20'O,PR0

      316     6835                                                             /**/
      317     6836    1         CALL BUDGET ALTRET(BUDGET_ERR) ;

   6836  2 000445   001233 701000 2                  TSX1    BUDGET
PL6.E3A0      #001=ALA$LOGON File=ALA$LOGON.:E05TSI                              TUE 07/29/97 08:27 Page:67
         2 000446   001172 702000 2                  TSX2    BUDGET_ERR

   6834  2 000447                       BUDGET_OK    null
      318     6837                                                              /*   BUDGET OK.   */
      319     6838    1   BUDGET_OK: ;
      320     6839                                                      /* Set BLIND ACCOUNTING */
      321     6840    1         B$JIT.BLINDACCTNG = AS_USERS.BUDGET.BLINDACCTNG;

   6840  2 000447   000000 470400 xsym               LDP0    B$JIT$
         2 000450   200022 236100                    LDQ     AS_USERS+15,,AUTO
         2 000451   000005 772000                    QRL     5
         2 000452   000153 676100                    ERQ     107,,PR0
         2 000453   400000 376007                    ANQ     -131072,DL
         2 000454   000153 656100                    ERSQ    107,,PR0

      322     6841                                                              /*  MOVE HOME PACK SET.  */
      323     6842    1         B$JIT.HPSN = AS_USERS.HPSN ;

   6842  2 000455   040100 100500                    MLR     fill='040'O
         2 000456   200126 000006                    ADSC9   AS_USERS+83,,AUTO        cn=0,n=6
         2 000457   000234 000006                    ADSC9   156,,PR0                 cn=0,n=6

      324     6843    1         IF (B$JIT.CPFLAGS1 & %CP_BUFFULL#) = '0'B THEN CALL FREECMD ;

   6843  2 000460   000143 236100                    LDQ     99,,PR0
         2 000461   001305 376000 1                  ANQ     LFC_VLP+9
         2 000462   000465 601000 2                  TNZ     s:6844

   6843  2 000463   001462 701000 2                  TSX1    FREECMD
         2 000464   000000 011000                    NOP     0

      325     6844    1         CALL CPROC ;

   6844  2 000465   001424 701000 2                  TSX1    CPROC
         2 000466   000000 011000                    NOP     0

      326     6845                                                              /* CHECK FOR LAST CPROC */
PL6.E3A0      #001=ALA$LOGON File=ALA$LOGON.:E05TSI                              TUE 07/29/97 08:27 Page:68
      327     6846    1         IF AS_USERS.LASTCPROC.NAME.CNT(MODE-1) > 0 THEN

   6846  2 000467   201074 235100                    LDA     MODE,,AUTO
         2 000470   000003 735000                    ALS     3
         2 000471   200160 236105                    LDQ     AS_USERS+109,AL,AUTO
         2 000472   777000 316003                    CANQ    -512,DU
         2 000473   000500 600000 2                  TZE     s:6849

      328     6847    1             B$JIT.CPFLAGS1 = B$JIT.CPFLAGS1 | %CP_LASTCPEXISTS#;

   6847  2 000474   000000 470400 xsym               LDP0    B$JIT$
         2 000475   000143 236100                    LDQ     99,,PR0
         2 000476   000026 276000 xsym               ORQ     B_VECTNIL+22
         2 000477   000143 756100                    STQ     99,,PR0

      329     6848                                                     /* Set limits in the JIT         */
      330     6849    1         B$JIT.REMLO = AS_USERS.DLO(MODE-1);

   6849  2 000500   201074 720100                    LXL0    MODE,,AUTO
         2 000501   200044 235110                    LDA     AS_USERS+33,X0,AUTO
         2 000502   000000 470400 xsym               LDP0    B$JIT$
         2 000503   000361 755100                    STA     241,,PR0

      331     6850    1         IF (AS_USERS.MLO(MODE-1) = 0) /*IF LO=0 ->DONT ALLOW LO OUTPUT*/

   6850  2 000504   200040 235110                    LDA     AS_USERS+29,X0,AUTO
         2 000505   000511 601000 2                  TNZ     s:6852

      332     6851    1         THEN B$JIT.NOLOEVER = '1'B;

   6851  2 000506   000100 236003                    LDQ     64,DU
         2 000507   000325 256100                    ORSQ    213,,PR0
         2 000510   000513 710000 2                  TRA     s:6853

      333     6852    1         ELSE B$JIT.NOLOEVER = '0'B;

   6852  2 000511   000015 236000 3                  LDQ     13
PL6.E3A0      #001=ALA$LOGON File=ALA$LOGON.:E05TSI                              TUE 07/29/97 08:27 Page:69
         2 000512   000325 356100                    ANSQ    213,,PR0

      334     6853    1         B$JIT.REMDO = AS_USERS.DDO(MODE-1);

   6853  2 000513   200054 235110                    LDA     AS_USERS+41,X0,AUTO
         2 000514   000362 755100                    STA     242,,PR0

      335     6854    1         IF (AS_USERS.MDO(MODE-1) = 0) /*IF DO=0 ->DONT ALLOW DO OUTPUT*/

   6854  2 000515   200050 235110                    LDA     AS_USERS+37,X0,AUTO
         2 000516   000522 601000 2                  TNZ     s:6856

      336     6855    1         THEN B$JIT.NODOEVER = '1'B;

   6855  2 000517   000040 236003                    LDQ     32,DU
         2 000520   000325 256100                    ORSQ    213,,PR0
         2 000521   000524 710000 2                  TRA     s:6857

      337     6856    1         ELSE B$JIT.NODOEVER = '0'B;

   6856  2 000522   000016 236000 3                  LDQ     14
         2 000523   000325 356100                    ANSQ    213,,PR0

      338     6857    1         B$JIT.REMCPO = AS_USERS.DPO(MODE-1);

   6857  2 000524   200064 235110                    LDA     AS_USERS+49,X0,AUTO
         2 000525   000360 755100                    STA     240,,PR0

      339     6858    1         IF (AS_USERS.MPO(MODE-1) = 0) /*IF PO=0 ->DONT ALLOW PO OUTPUT*/

   6858  2 000526   200060 235110                    LDA     AS_USERS+45,X0,AUTO
         2 000527   000533 601000 2                  TNZ     s:6860

      340     6859    1         THEN B$JIT.NOPOEVER = '1'B;

   6859  2 000530   000020 236003                    LDQ     16,DU
         2 000531   000325 256100                    ORSQ    213,,PR0
PL6.E3A0      #001=ALA$LOGON File=ALA$LOGON.:E05TSI                              TUE 07/29/97 08:27 Page:70
         2 000532   000535 710000 2                  TRA     s:6861

      341     6860    1         ELSE B$JIT.NOPOEVER = '0'B;

   6860  2 000533   000017 236000 3                  LDQ     15
         2 000534   000325 356100                    ANSQ    213,,PR0

      342     6861    1         B$JIT.MAXTMPDP = AS_USERS.DTDIS(MODE-1);

   6861  2 000535   200104 235110                    LDA     AS_USERS+65,X0,AUTO
         2 000536   000241 755100                    STA     161,,PR0

      343     6862    1         B$JIT.FBUL = MAXIMUM( AS_USERS.DFPOOLS(MODE-1), 5 );

   6862  2 000537   201074 236100                    LDQ     MODE,,AUTO
         2 000540   000100 101506                    MRL     fill='000'O
         2 000541   200111 600001                    ADSC9   AS_USERS+70,Q,AUTO       cn=3,n=1
         2 000542   202262 000004                    ADSC9   FIELD2+12,,AUTO          cn=0,n=4
         2 000543   202262 236100                    LDQ     FIELD2+12,,AUTO
         2 000544   000005 116007                    CMPQ    5,DL
         2 000545   000547 603000 2                  TRC     s:6862+8
         2 000546   000005 236007                    LDQ     5,DL
         2 000547   000000 621006                    EAX1    0,QL
         2 000550   000205 441100                    SXL1    133,,PR0

      344     6863    1         B$JIT.DEFEXP = AS_USERS.DEXP;

   6863  2 000551   200246 722100                    LXL2    AS_USERS+163,,AUTO
         2 000552   000221 742100                    STX2    145,,PR0

      345     6864    1         B$JIT.MAXEXP = AS_USERS.MEXP;

   6864  2 000553   200245 723100                    LXL3    AS_USERS+162,,AUTO
         2 000554   000221 443100                    SXL3    145,,PR0

      346     6865    1         B$JIT.PRDPRM = AS_USERS.DPDIS(MODE-1);

PL6.E3A0      #001=ALA$LOGON File=ALA$LOGON.:E05TSI                              TUE 07/29/97 08:27 Page:71
   6865  2 000555   200074 235110                    LDA     AS_USERS+57,X0,AUTO
         2 000556   000242 755100                    STA     162,,PR0

      347     6866    1         B$JIT.DEFPRI = AS_USERS.DMPRIO( MODE-1 ) ;

   6866  2 000557   201074 236100                    LDQ     MODE,,AUTO
         2 000560   000100 100506                    MLR     fill='000'O
         2 000561   200113 600001                    ADSC9   AS_USERS+72,Q,AUTO       cn=3,n=1
         2 000562   000153 000001                    ADSC9   107,,PR0                 cn=0,n=1

      348     6867    1         B$JIT.MAXPRI = AS_USERS.MMPRIO( MODE-1 ) ;

   6867  2 000563   000100 100506                    MLR     fill='000'O
         2 000564   200112 600001                    ADSC9   AS_USERS+71,Q,AUTO       cn=3,n=1
         2 000565   000153 200001                    ADSC9   107,,PR0                 cn=1,n=1

      349     6868    1         B$JIT.LOCK = AS_USERS.KEY;

   6868  2 000566   000100 100500                    MLR     fill='000'O
         2 000567   200031 000010                    ADSC9   AS_USERS+22,,AUTO        cn=0,n=8
         2 000570   000154 000010                    ADSC9   108,,PR0                 cn=0,n=8

      350     6869    1         IF AS_USERS.STEPACCNT

   6869  2 000571   200010 236100                    LDQ     AS_USERS+5,,AUTO
         2 000572   000400 316003                    CANQ    256,DU
         2 000573   000577 600000 2                  TZE     s:6873

      351     6870    1         THEN
      352     6871    1             B$JIT.CPFLAGS1 = B$JIT.CPFLAGS1 | %CP_STEPACCT# ;

   6871  2 000574   000143 236100                    LDQ     99,,PR0
         2 000575   001306 276000 1                  ORQ     LFC_VLP+10
         2 000576   000143 756100                    STQ     99,,PR0

      353     6872                                                              /* SET *S ACCOUNTING */
      354     6873    1         IF AS_USERS.FLAGS.STARSACC THEN
PL6.E3A0      #001=ALA$LOGON File=ALA$LOGON.:E05TSI                              TUE 07/29/97 08:27 Page:72

   6873  2 000577   200247 236100                    LDQ     AS_USERS+164,,AUTO
         2 000600   010000 316003                    CANQ    4096,DU
         2 000601   000605 600000 2                  TZE     s:6875

      355     6874    1             B$JIT.CPFLAGS1 = B$JIT.CPFLAGS1 | %CP_STARSACC# ;

   6874  2 000602   000143 236100                    LDQ     99,,PR0
         2 000603   001307 276000 1                  ORQ     LFC_VLP+11
         2 000604   000143 756100                    STQ     99,,PR0

      356     6875    1         B$JIT.SSLEV = %AZ_NONE# ;

   6875  2 000605   000151 236100                    LDQ     105,,PR0
         2 000606   000011 376000 3                  ANQ     9
         2 000607   003000 276003                    ORQ     1536,DU
         2 000610   000151 756100                    STQ     105,,PR0

      357     6876    1         B$JIT.PSLEV = %AZ_NONE# ;

   6876  2 000611   000151 236100                    LDQ     105,,PR0
         2 000612   000012 376000 3                  ANQ     10
         2 000613   030000 276003                    ORQ     12288,DU
         2 000614   000151 756100                    STQ     105,,PR0

      358     6877    1         B$JIT.LANG = AS_USERS.NAT_LANG ;

   6877  2 000615   200010 236100                    LDQ     AS_USERS+5,,AUTO
         2 000616   000033 772000                    QRL     27
         2 000617   000145 552104                    STBQ    101,'04'O,PR0

      359     6878    1         B$JIT.OUTPRIO = AS_USERS.OUTPUTPRIO ;

   6878  2 000620   200040 236100                    LDQ     AS_USERS+29,,AUTO
         2 000621   000011 736000                    QLS     9
         2 000622   000022 552110                    STBQ    18,'10'O,PR0

PL6.E3A0      #001=ALA$LOGON File=ALA$LOGON.:E05TSI                              TUE 07/29/97 08:27 Page:73
      360     6879    1         IF MODE=%M_BATCH#

   6879  2 000623   201074 236100                    LDQ     MODE,,AUTO
         2 000624   000001 116007                    CMPQ    1,DL
         2 000625   000635 601000 2                  TNZ     s:6885

      361     6880    2         THEN DO;

      362     6881    2             B$JIT.JSLEV = %AZ_ALL#;

   6881  2 000626   000151 236100                    LDQ     105,,PR0
         2 000627   000013 376000 3                  ANQ     11
         2 000630   100000 276003                    ORQ     32768,DU
         2 000631   000151 756100                    STQ     105,,PR0

      363     6882    2             B$JIT.OLTA = '00'B;

   6882  2 000632   000020 236000 3                  LDQ     16
         2 000633   000333 356100                    ANSQ    219,,PR0

      364     6883    2             END;

   6883  2 000634   000715 710000 2                  TRA     s:6906

      365     6884    2         ELSE DO;

      366     6885    3             DO CASE(MODE);

   6885  2 000635   000005 116007                    CMPQ    5,DL
         2 000636   000640 602006 2                  TNC     s:6885+3,QL
         2 000637   000663 710000 2                  TRA     s:6893
         2 000640   000663 710000 2                  TRA     s:6893
         2 000641   000663 710000 2                  TRA     s:6893
         2 000642   000652 710000 2                  TRA     s:6889
         2 000643   000645 710000 2                  TRA     s:6887
         2 000644   000657 710000 2                  TRA     s:6891

PL6.E3A0      #001=ALA$LOGON File=ALA$LOGON.:E05TSI                              TUE 07/29/97 08:27 Page:74
      367     6886    3               CASE(%M_INT#);

      368     6887    3                 B$JIT.JSLEV = %AZ_SUMMARY#;

   6887  2 000645   000151 236100                    LDQ     105,,PR0
         2 000646   000013 376000 3                  ANQ     11
         2 000647   200000 276003                    ORQ     65536,DU
         2 000650   000151 756100                    STQ     105,,PR0
         2 000651   000663 710000 2                  TRA     s:6893

      369     6888    3               CASE(%M_GHOST#);

      370     6889    3                 B$JIT.JSLEV = %AZ_ALL# ;

   6889  2 000652   000151 236100                    LDQ     105,,PR0
         2 000653   000013 376000 3                  ANQ     11
         2 000654   100000 276003                    ORQ     32768,DU
         2 000655   000151 756100                    STQ     105,,PR0
         2 000656   000663 710000 2                  TRA     s:6893

      371     6890    3               CASE(%M_TP#);

      372     6891    3                 B$JIT.JSLEV = %AZ_NONE# ;

   6891  2 000657   000151 236100                    LDQ     105,,PR0
         2 000660   000013 376000 3                  ANQ     11
         2 000661   300000 276003                    ORQ     98304,DU
         2 000662   000151 756100                    STQ     105,,PR0

      373     6892    3               END;

      374     6893    2             B$JIT.MRT = AS_USERS.DTIME(MODE-1);

   6893  2 000663   200257 235110                    LDA     AS_USERS+172,X0,AUTO
         2 000664   000276 755100                    STA     190,,PR0

      375     6894    2             B$JIT.MAXCORE = AS_USERS.DMEM(MODE-1);
PL6.E3A0      #001=ALA$LOGON File=ALA$LOGON.:E05TSI                              TUE 07/29/97 08:27 Page:75

   6894  2 000665   201074 236100                    LDQ     MODE,,AUTO
         2 000666   000001 736000                    QLS     1
         2 000667   000100 100506                    MLR     fill='000'O
         2 000670   200265 400002                    ADSC9   AS_USERS+178,Q,AUTO      cn=2,n=2
         2 000671   000210 000002                    ADSC9   136,,PR0                 cn=0,n=2

      376     6895    2             B$JIT.RESCORE = B$JIT.MAXCORE ;

   6895  2 000672   000210 236100                    LDQ     136,,PR0
         2 000673   000022 772000                    QRL     18
         2 000674   000336 756100                    STQ     222,,PR0

      377     6896    3             DO CASE(AS_USERS.RESL.OMAX(0));

   6896  2 000675   200332 224100                    LDX4    AS_USERS+215,,AUTO
         2 000676   000002 104003                    CMPX4   2,DU
         2 000677   000701 602014 2                  TNC     s:6896+4,X4
         2 000700   000713 710000 2                  TRA     s:6902
         2 000701   000703 710000 2                  TRA     s:6898
         2 000702   000706 710000 2                  TRA     s:6900

      378     6897    3               CASE(0);

      379     6898    3                 B$JIT.OLTA = '00'B;

   6898  2 000703   000020 236000 3                  LDQ     16
         2 000704   000333 356100                    ANSQ    219,,PR0
         2 000705   000715 710000 2                  TRA     s:6906

      380     6899    3               CASE(1);

      381     6900    3                 B$JIT.OLTA = '10'B;

   6900  2 000706   000333 236100                    LDQ     219,,PR0
         2 000707   000020 376000 3                  ANQ     16
         2 000710   400000 276007                    ORQ     -131072,DL
PL6.E3A0      #001=ALA$LOGON File=ALA$LOGON.:E05TSI                              TUE 07/29/97 08:27 Page:76
         2 000711   000333 756100                    STQ     219,,PR0
         2 000712   000715 710000 2                  TRA     s:6906

      382     6901    3               CASE(ELSE);

      383     6902    3                 B$JIT.OLTA = '11'B;

   6902  2 000713   600000 236007                    LDQ     -65536,DL
         2 000714   000333 256100                    ORSQ    219,,PR0

      384     6903    3               END;

      385     6904    2             END;

      386     6905                                                             /**/
      387     6906    1         CALL CLRES;

   6906  2 000715   001720 701000 2                  TSX1    CLRES
         2 000716   000000 011000                    NOP     0

      388     6907                                                              /* SET UP LIMIT
      389     6908                                                                 RECORD FOR '*S' */
      390     6909    1   DO_STARS: ;

   6909  2 000717                       DO_STARS     null
      391     6910    1         CALL ALA$GETSTARS ;                             /*   SET UP M$STARS DCB.   */

   6910  2 000717   000002 631400 xsym               EPPR1   B_VECTNIL+2
         2 000720   000000 701000 xent               TSX1    ALA$GETSTARS
         2 000721   000000 011000                    NOP     0

      392     6911    1         CALL ALA$OPEN_STAR_A ( AL_ACCT ) ALTRET ( OPEN_A_ERR ) ;

   6911  2 000722   201113 630500                    EPPR0   AL_ACCT,,AUTO
         2 000723   202262 450500                    STP0    FIELD2+12,,AUTO
         2 000724   202262 630500                    EPPR0   FIELD2+12,,AUTO
         2 000725   000017 631400 xsym               EPPR1   B_VECTNIL+15
PL6.E3A0      #001=ALA$LOGON File=ALA$LOGON.:E05TSI                              TUE 07/29/97 08:27 Page:77
         2 000726   000000 701000 xent               TSX1    ALA$OPEN_STAR_A
         2 000727   001206 702000 2                  TSX2    OPEN_A_ERR

   6909  2 000730                       OPEN_A_OK    null
      393     6912    1   OPEN_A_OK: ;
      394     6913    1         CALL ALA$CLOSE_STAR ALTRET ( CLOSE_A_ERR ) ;

   6913  2 000730   000002 631400 xsym               EPPR1   B_VECTNIL+2
         2 000731   000000 701000 xent               TSX1    ALA$CLOSE_STAR
         2 000732   001207 702000 2                  TSX2    CLOSE_A_ERR

   6909  2 000733                       CLOSE_A_OK   null
      395     6914    1   CLOSE_A_OK: ;
      396     6915    1         CALL ALA$OPEN_STAR_S( AL_ACCT ) ALTRET ( OPEN_S_ERR ) ;

   6915  2 000733   201113 630500                    EPPR0   AL_ACCT,,AUTO
         2 000734   202262 450500                    STP0    FIELD2+12,,AUTO
         2 000735   202262 630500                    EPPR0   FIELD2+12,,AUTO
         2 000736   000017 631400 xsym               EPPR1   B_VECTNIL+15
         2 000737   000000 701000 xent               TSX1    ALA$OPEN_STAR_S
         2 000740   001210 702000 2                  TSX2    OPEN_S_ERR

   6909  2 000741                       OPEN_S_OK    null
      397     6916    1   OPEN_S_OK: ;
      398     6917    1         CP_LIMREC = '0'B ;

   6917  2 000741   000100 100400                    MLR     fill='000'O
         2 000742   000002 000001 xsym               ADSC9   B_VECTNIL+2              cn=0,n=1
         2 000743   201134 000154                    ADSC9   CP_LIMREC,,AUTO          cn=0,n=108

      399     6918    1         CP_LIMREC.USER_MAX.MAXCORE = AS_USERS.MMEM(MODE-1) ;

   6918  2 000744   201074 235100                    LDA     MODE,,AUTO
         2 000745   000001 735000                    ALS     1
         2 000746   000100 100505                    MLR     fill='000'O
         2 000747   200263 400002                    ADSC9   AS_USERS+176,A,AUTO      cn=2,n=2
         2 000750   201134 000002                    ADSC9   CP_LIMREC,,AUTO          cn=0,n=2
PL6.E3A0      #001=ALA$LOGON File=ALA$LOGON.:E05TSI                              TUE 07/29/97 08:27 Page:78

      400     6919    1         CP_LIMREC.CUR_MAX.MAXCORE = B$JIT.MAXCORE ;

   6919  2 000751   000000 470400 xsym               LDP0    B$JIT$
         2 000752   000210 220100                    LDX0    136,,PR0
         2 000753   201143 740100                    STX0    CP_LIMREC+7,,AUTO

      401     6920    1         CP_LIMREC.USER_MAX.REMLO = AS_USERS.MLO(MODE-1) ;

   6920  2 000754   201074 721100                    LXL1    MODE,,AUTO
         2 000755   200040 235111                    LDA     AS_USERS+29,X1,AUTO
         2 000756   201135 755100                    STA     CP_LIMREC+1,,AUTO

      402     6921    1         CP_LIMREC.CUR_MAX.REMLO = B$JIT.REMLO ;

   6921  2 000757   000361 235100                    LDA     241,,PR0
         2 000760   201144 755100                    STA     CP_LIMREC+8,,AUTO

      403     6922    1         CP_LIMREC.USER_MAX.REMCPO = AS_USERS.MPO(MODE-1) ;

   6922  2 000761   200060 235111                    LDA     AS_USERS+45,X1,AUTO
         2 000762   201136 755100                    STA     CP_LIMREC+2,,AUTO

      404     6923    1         CP_LIMREC.CUR_MAX.REMCPO = B$JIT.REMCPO ;

   6923  2 000763   000360 235100                    LDA     240,,PR0
         2 000764   201145 755100                    STA     CP_LIMREC+9,,AUTO

      405     6924    1         CP_LIMREC.USER_MAX.REMDO = AS_USERS.MDO(MODE-1) ;

   6924  2 000765   200050 235111                    LDA     AS_USERS+37,X1,AUTO
         2 000766   201137 755100                    STA     CP_LIMREC+3,,AUTO

      406     6925    1         CP_LIMREC.CUR_MAX.REMDO = B$JIT.REMDO ;

   6925  2 000767   000362 235100                    LDA     242,,PR0
         2 000770   201146 755100                    STA     CP_LIMREC+10,,AUTO
PL6.E3A0      #001=ALA$LOGON File=ALA$LOGON.:E05TSI                              TUE 07/29/97 08:27 Page:79

      407     6926    1         CP_LIMREC.USER_MAX.MAXTMPDP = AS_USERS.MTDIS(MODE-1) ;

   6926  2 000771   200100 235111                    LDA     AS_USERS+61,X1,AUTO
         2 000772   201141 755100                    STA     CP_LIMREC+5,,AUTO

      408     6927    1         CP_LIMREC.CUR_MAX.MAXTMPDP = B$JIT.MAXTMPDP ;

   6927  2 000773   000241 235100                    LDA     161,,PR0
         2 000774   201150 755100                    STA     CP_LIMREC+12,,AUTO

      409     6928    1         CP_LIMREC.USER_MAX.PRDPRM = AS_USERS.MPDIS(MODE-1) ;

   6928  2 000775   200070 235111                    LDA     AS_USERS+53,X1,AUTO
         2 000776   201140 755100                    STA     CP_LIMREC+4,,AUTO

      410     6929    1         CP_LIMREC.CUR_MAX.PRDPRM = B$JIT.PRDPRM ;

   6929  2 000777   000242 235100                    LDA     162,,PR0
         2 001000   201147 755100                    STA     CP_LIMREC+11,,AUTO

      411     6930    1         CP_LIMREC.USER_MAX.FBUL = AS_USERS.MFPOOLS(MODE-1) ;

   6930  2 001001   201074 236100                    LDQ     MODE,,AUTO
         2 001002   000100 101506                    MRL     fill='000'O
         2 001003   200110 600001                    ADSC9   AS_USERS+69,Q,AUTO       cn=3,n=1
         2 001004   201134 400002                    ADSC9   CP_LIMREC,,AUTO          cn=2,n=2

      412     6931    1         CP_LIMREC.CUR_MAX.FBUL = B$JIT.FBUL ;

   6931  2 001005   000205 722100                    LXL2    133,,PR0
         2 001006   201143 442100                    SXL2    CP_LIMREC+7,,AUTO

      413     6932    1         CP_LIMREC.USER_MAX.MRT = B$JIT.MRT ;

   6932  2 001007   000276 235100                    LDA     190,,PR0
         2 001010   201142 755100                    STA     CP_LIMREC+6,,AUTO
PL6.E3A0      #001=ALA$LOGON File=ALA$LOGON.:E05TSI                              TUE 07/29/97 08:27 Page:80

      414     6933    1         CP_LIMREC.CUR_MAX.MRT = B$JIT.MRT ;

   6933  2 001011   000276 235100                    LDA     190,,PR0
         2 001012   201151 755100                    STA     CP_LIMREC+13,,AUTO

      415     6934                                                              /* OUTPUT RECORD */
      416     6935    1         ARS = LENGTHC( CP_LIMREC ) ;

   6935  2 001013   000154 235007                    LDA     108,DL
         2 001014   201036 755100                    STA     ARS,,AUTO

      417     6936    1         TEXT$ = ADDR( CP_LIMREC ) ;

   6936  2 001015   201134 631500                    EPPR1   CP_LIMREC,,AUTO
         2 001016   201055 451500                    STP1    TEXT$,,AUTO

      418     6937    1         CALL ALA$WRITE_STAR( TEXT$, ARS, LIMIT_KEY, AL_DCB2#, ERR_CODE)

   6937  2 001017   201112 633500                    EPPR3   ERR_CODE,,AUTO
         2 001020   202266 453500                    STP3    FIELD2+16,,AUTO
         2 001021   000021 236000 3                  LDQ     17
         2 001022   202265 756100                    STQ     FIELD2+15,,AUTO
         2 001023   201045 634500                    EPPR4   LIMIT_KEY,,AUTO
         2 001024   202264 454500                    STP4    FIELD2+14,,AUTO
         2 001025   201036 635500                    EPPR5   ARS,,AUTO
         2 001026   202263 455500                    STP5    FIELD2+13,,AUTO
         2 001027   201055 636500                    EPPR6   TEXT$,,AUTO
         2 001030   202262 456500                    STP6    FIELD2+12,,AUTO
         2 001031   202262 630500                    EPPR0   FIELD2+12,,AUTO
         2 001032   000023 631400 xsym               EPPR1   B_VECTNIL+19
         2 001033   000000 701000 xent               TSX1    ALA$WRITE_STAR
         2 001034   001212 702000 2                  TSX2    WRITE_STAR_S_ERR

      419     6938    1                 ALTRET( WRITE_STAR_S_ERR ) ;
      420     6939                   /* Call the routine to put the bannertext record into
      421     6940                      *S file.
PL6.E3A0      #001=ALA$LOGON File=ALA$LOGON.:E05TSI                              TUE 07/29/97 08:27 Page:81
      422     6941                   */
      423     6942    1         IF ((B$JIT.CPFLAGS1 & %CP_SLEAZE#) ~= %CP_SLEAZE#)

   6942  2 001035   000000 470400 xsym               LDP0    B$JIT$
         2 001036   000143 236100                    LDQ     99,,PR0
         2 001037   000003 376000 xsym               ANQ     B_VECTNIL+3
         2 001040   000003 116000 xsym               CMPQ    B_VECTNIL+3
         2 001041   001056 600000 2                  TZE     s:6948

      424     6943    2         THEN DO ;

      425     6944    2             KEY$ = ADDR (AS_USERS);

   6944  2 001042   200003 631500                    EPPR1   AS_USERS,,AUTO
         2 001043   201054 451500                    STP1    KEY$,,AUTO

      426     6945    2             CALL ALA$BANNER2_STAR_S (KEY$, AL_DCB2#, ERR_CODE) ALTRET (
              6945                      WRITE_STAR_S_ERR);

   6945  2 001044   201112 633500                    EPPR3   ERR_CODE,,AUTO
         2 001045   202264 453500                    STP3    FIELD2+14,,AUTO
         2 001046   000021 236000 3                  LDQ     17
         2 001047   202263 756100                    STQ     FIELD2+13,,AUTO
         2 001050   201054 634500                    EPPR4   KEY$,,AUTO
         2 001051   202262 454500                    STP4    FIELD2+12,,AUTO
         2 001052   202262 630500                    EPPR0   FIELD2+12,,AUTO
         2 001053   000021 631400 xsym               EPPR1   B_VECTNIL+17
         2 001054   000000 701000 xent               TSX1    ALA$BANNER2_STAR_S
         2 001055   001212 702000 2                  TSX2    WRITE_STAR_S_ERR

      427     6946    2             END;

      428     6947                                                              /**/
      429     6948    1         CALL ALA$CLOSE_STAR ALTRET ( CLOSE_S_ERR ) ;

   6948  2 001056   000002 631400 xsym               EPPR1   B_VECTNIL+2
         2 001057   000000 701000 xent               TSX1    ALA$CLOSE_STAR
PL6.E3A0      #001=ALA$LOGON File=ALA$LOGON.:E05TSI                              TUE 07/29/97 08:27 Page:82
         2 001060   001211 702000 2                  TSX2    CLOSE_S_ERR

   6942  2 001061                       CLOSE_S_OK   null
      430     6949    1   CLOSE_S_OK: ;
      431     6950    1         B$JIT.LOGONTIME = AL$TSTAMP.UTS ;

   6950  2 001061   000000 470400 xsym               LDP0    B$JIT$
         2 001062   201116 235100                    LDA     AL$TSTAMP,,AUTO
         2 001063   000150 755100                    STA     104,,PR0

      432     6951    1         IF NOT CP_SLEAZE_SET

   6951  2 001064   201075 234100                    SZN     CP_SLEAZE_SET,,AUTO
         2 001065   001100 604000 2                  TMI     s:6956

      433     6952    2         THEN DO;

      434     6953    2             CALL SET_LAST_LOGON_TIME;

   6953  2 001066   002020 701000 2                  TSX1    SET_LAST_LOGON_TIME
         2 001067   000000 011000                    NOP     0

      435     6954    2             CALL ALA$WRITE_USERS (USERS_KEY, AS_USERS) ALTRET(READ_USERS_ERR);

   6954  2 001070   200003 630500                    EPPR0   AS_USERS,,AUTO
         2 001071   202263 450500                    STP0    FIELD2+13,,AUTO
         2 001072   201037 631500                    EPPR1   USERS_KEY,,AUTO
         2 001073   202262 451500                    STP1    FIELD2+12,,AUTO
         2 001074   202262 630500                    EPPR0   FIELD2+12,,AUTO
         2 001075   000020 631400 xsym               EPPR1   B_VECTNIL+16
         2 001076   000000 701000 xent               TSX1    ALA$WRITE_USERS
         2 001077   001141 702000 2                  TSX2    READ_USERS_ERR

      436     6955    2             END;  /* Then Do */

      437     6956    1         B$JIT.BILL = AS_USERS.BILL( MODE-1 ) ;

PL6.E3A0      #001=ALA$LOGON File=ALA$LOGON.:E05TSI                              TUE 07/29/97 08:27 Page:83
   6956  2 001100   201074 236100                    LDQ     MODE,,AUTO
         2 001101   000006 402007                    MPY     6,DL
         2 001102   000000 470400 xsym               LDP0    B$JIT$
         2 001103   040100 100506                    MLR     fill='040'O
         2 001104   200021 400006                    ADSC9   AS_USERS+14,Q,AUTO       cn=2,n=6
         2 001105   000151 400006                    ADSC9   105,,PR0                 cn=2,n=6

      438     6957    1         TEMP_BIT = B$JIT.BLINDACCTNG;

   6957  2 001106   000153 236100                    LDQ     107,,PR0
         2 001107   000022 736000                    QLS     18
         2 001110   400000 376003                    ANQ     -131072,DU
         2 001111   201062 756100                    STQ     TEMP_BIT,,AUTO

      439     6958    1         B$JIT.BLINDACCTNG = NOHEADER;

   6958  2 001112   201064 236100                    LDQ     NOHEADER,,AUTO
         2 001113   000022 772000                    QRL     18
         2 001114   000153 676100                    ERQ     107,,PR0
         2 001115   400000 376007                    ANQ     -131072,DL
         2 001116   000153 656100                    ERSQ    107,,PR0

      440     6959    1         CALL ALA$HEADING( AL$TSTAMP ) ;

   6959  2 001117   201116 631500                    EPPR1   AL$TSTAMP,,AUTO
         2 001120   202262 451500                    STP1    FIELD2+12,,AUTO
         2 001121   202262 630500                    EPPR0   FIELD2+12,,AUTO
         2 001122   000017 631400 xsym               EPPR1   B_VECTNIL+15
         2 001123   000000 701000 xent               TSX1    ALA$HEADING
         2 001124   000000 011000                    NOP     0

      441     6960    1         B$JIT.BLINDACCTNG = TEMP_BIT;  /* RESTORE FROM TEMP. */

   6960  2 001125   000000 470400 xsym               LDP0    B$JIT$
         2 001126   201062 236100                    LDQ     TEMP_BIT,,AUTO
         2 001127   000022 772000                    QRL     18
         2 001130   000153 676100                    ERQ     107,,PR0
PL6.E3A0      #001=ALA$LOGON File=ALA$LOGON.:E05TSI                              TUE 07/29/97 08:27 Page:84
         2 001131   400000 376007                    ANQ     -131072,DL
         2 001132   000153 656100                    ERSQ    107,,PR0

      442     6961    1         CALL ALA$CPEXIT(FPT$CPEXIT);

   6961  2 001133   201170 631500                    EPPR1   FPT$CPEXIT,,AUTO
         2 001134   202262 451500                    STP1    FIELD2+12,,AUTO
         2 001135   202262 630500                    EPPR0   FIELD2+12,,AUTO
         2 001136   000017 631400 xsym               EPPR1   B_VECTNIL+15
         2 001137   000000 701000 xent               TSX1    ALA$CPEXIT
         2 001140   000000 011000                    NOP     0

   6960  2 001141                       READ_USERS_* null
   6960  2 001141                       READ_ERR_ME* null
      443     6962                                                              /**/
      444     6963    1   READ_USERS_ERR: ;
      445     6964    1   READ_ERR_MESS: ;
      446     6965                                                              /**/
      447     6966        /*E*  ERROR:    ALA-E$USERS_FILE_ERR-C
      448     6967              MESSAGE:  Unable to logon -- see your SYSTEM MANAGER.
      449     6968
      450     6969        */
      451     6970    1         CALL ALA$SYS_ERROR;

   6970  2 001141   000002 631400 xsym               EPPR1   B_VECTNIL+2
         2 001142   000000 701000 xent               TSX1    ALA$SYS_ERROR
         2 001143   000000 011000                    NOP     0

      452     6971    1         CALL ALA$ERROR( ALA_E$USERS_FILE_ERR );

   6971  2 001144   000022 630400 3                  EPPR0   18
         2 001145   000017 631400 xsym               EPPR1   B_VECTNIL+15
         2 001146   000000 701000 xent               TSX1    ALA$ERROR
         2 001147   000000 011000                    NOP     0

      453     6972                                                              /**/
      454     6973    1         IF SYS_GHOST
PL6.E3A0      #001=ALA$LOGON File=ALA$LOGON.:E05TSI                              TUE 07/29/97 08:27 Page:85

   6973  2 001150   201115 234100                    SZN     SYS_GHOST,,AUTO
         2 001151   001161 605000 2                  TPL     s:6977

      455     6974    1         THEN
      456     6975    1             CALL ALA$CPEXIT( FPT$CPEXIT ) ;

   6975  2 001152   201170 630500                    EPPR0   FPT$CPEXIT,,AUTO
         2 001153   202262 450500                    STP0    FIELD2+12,,AUTO
         2 001154   202262 630500                    EPPR0   FIELD2+12,,AUTO
         2 001155   000017 631400 xsym               EPPR1   B_VECTNIL+15
         2 001156   000000 701000 xent               TSX1    ALA$CPEXIT
         2 001157   000000 011000                    NOP     0
         2 001160   001164 710000 2                  TRA     OPEN_USERS_ERR

      457     6976    1         ELSE
      458     6977    1             CALL ALA$CPEXIT ;

   6977  2 001161   000002 631400 xsym               EPPR1   B_VECTNIL+2
         2 001162   000000 701000 xent               TSX1    ALA$CPEXIT
         2 001163   000000 011000                    NOP     0

   6973  2 001164                       OPEN_USERS_* null
      459     6978                                                              /**/
      460     6979                                                              /*   OPEN :USERS ERROR.   */
      461     6980    1   OPEN_USERS_ERR: ;
      462     6981                                                              /**/
      463     6982    1         CALL ALA$SYS_ERROR;

   6982  2 001164   000002 631400 xsym               EPPR1   B_VECTNIL+2
         2 001165   000000 701000 xent               TSX1    ALA$SYS_ERROR
         2 001166   000000 011000                    NOP     0

      464     6983                                                       /*   OUTPUT MESSAGE TO OPERATOR.  */
      465     6984    1         CALL M$OCMSG ( FPT_OCMSG ) ;

   6984  2 001167   001224 630400 1                  EPPR0   FPT_OCMSG
PL6.E3A0      #001=ALA$LOGON File=ALA$LOGON.:E05TSI                              TUE 07/29/97 08:27 Page:86
         2 001170   120001 713400                    CLIMB   40961
         2 001171   401000 401760                    pmme    nvectors=3

   6973  2 001172                       BUDGET_ERR   null
      466     6985                                                              /**/
      467     6986    1   BUDGET_ERR: ;
      468     6987    1         IF SYS_GHOST

   6987  2 001172   201115 234100                    SZN     SYS_GHOST,,AUTO
         2 001173   001203 605000 2                  TPL     s:6991

      469     6988    1         THEN
      470     6989    1             CALL ALA$CPEXIT( FPT$CPEXIT ) ;

   6989  2 001174   201170 630500                    EPPR0   FPT$CPEXIT,,AUTO
         2 001175   202262 450500                    STP0    FIELD2+12,,AUTO
         2 001176   202262 630500                    EPPR0   FIELD2+12,,AUTO
         2 001177   000017 631400 xsym               EPPR1   B_VECTNIL+15
         2 001200   000000 701000 xent               TSX1    ALA$CPEXIT
         2 001201   000000 011000                    NOP     0
         2 001202   001206 710000 2                  TRA     OPEN_A_ERR

      471     6990    1         ELSE
      472     6991    1             CALL ALA$CPEXIT ;

   6991  2 001203   000002 631400 xsym               EPPR1   B_VECTNIL+2
         2 001204   000000 701000 xent               TSX1    ALA$CPEXIT
         2 001205   000000 011000                    NOP     0

      473     6992                                                              /**/
      474     6993    1   OPEN_A_ERR: GOTO OPEN_A_OK ;

   6993  2 001206   000730 710000 2     OPEN_A_ERR   TRA     OPEN_A_OK

      475     6994    1   CLOSE_A_ERR: GOTO CLOSE_A_OK ;

   6994  2 001207   000733 710000 2     CLOSE_A_ERR  TRA     CLOSE_A_OK
PL6.E3A0      #001=ALA$LOGON File=ALA$LOGON.:E05TSI                              TUE 07/29/97 08:27 Page:87

      476     6995    1   OPEN_S_ERR: GOTO OPEN_S_OK ;

   6995  2 001210   000741 710000 2     OPEN_S_ERR   TRA     OPEN_S_OK

      477     6996    1   CLOSE_S_ERR: GOTO CLOSE_S_OK ;

   6996  2 001211   001061 710000 2     CLOSE_S_ERR  TRA     CLOSE_S_OK

   6987  2 001212                       WRITE_STAR_* null
      478     6997    1   WRITE_STAR_S_ERR: ;
      479     6998                                                              /**/
      480     6999        /*E*  ERROR:    ALA-E$WRITE_S_ERR-C
      481     7000              MESSAGE:  Unable to write to *S file -- see your SYSTEM MANAGER.
      482     7001        */
      483     7002    1         CALL ALA$ERROR( ALA_E$WRITE_S_ERR );

   7002  2 001212   000023 630400 3                  EPPR0   19
         2 001213   000017 631400 xsym               EPPR1   B_VECTNIL+15
         2 001214   000000 701000 xent               TSX1    ALA$ERROR
         2 001215   000000 011000                    NOP     0

      484     7003    1         IF SYS_GHOST

   7003  2 001216   201115 234100                    SZN     SYS_GHOST,,AUTO
         2 001217   001227 605000 2                  TPL     s:7007

      485     7004    1         THEN
      486     7005    1             CALL ALA$CPEXIT( FPT$CPEXIT ) ;

   7005  2 001220   201170 630500                    EPPR0   FPT$CPEXIT,,AUTO
         2 001221   202262 450500                    STP0    FIELD2+12,,AUTO
         2 001222   202262 630500                    EPPR0   FIELD2+12,,AUTO
         2 001223   000017 631400 xsym               EPPR1   B_VECTNIL+15
         2 001224   000000 701000 xent               TSX1    ALA$CPEXIT
         2 001225   000000 011000                    NOP     0
         2 001226   001232 710000 2                  TRA     s:7007+3
PL6.E3A0      #001=ALA$LOGON File=ALA$LOGON.:E05TSI                              TUE 07/29/97 08:27 Page:88

      487     7006    1         ELSE
      488     7007    1             CALL ALA$CPEXIT ;

   7007  2 001227   000002 631400 xsym               EPPR1   B_VECTNIL+2
         2 001230   000000 701000 xent               TSX1    ALA$CPEXIT
         2 001231   000000 011000                    NOP     0
         2 001232   002223 710000 2                  TRA     s:7629

      489     7008        %EJECT ;
PL6.E3A0      #001=ALA$LOGON File=ALA$LOGON.:E05TSI                              TUE 07/29/97 08:27 Page:89
      490     7009    1   BUDGET: PROC ALTRET ;

   7009  2 001233   201224 741300       BUDGET       STX1  ! FPT$READ_SUSMES+14,,AUTO

      491     7010                                                              /**/
      492     7011                    /*******************************/
      493     7012                    /*                             */
      494     7013                    /*          BUDGET             */
      495     7014                    /*                             */
      496     7015                    /*******************************/
      497     7016        %EJECT ;
PL6.E3A0      #001=ALA$LOGON File=ALA$LOGON.:E05TSI                              TUE 07/29/97 08:27 Page:90
      498     7017        /*********************************************************************/
      499     7018        /*   AUTO DATA       AUTO DATA       AUTO DATA       AUTO DATA       */
      500     7019        /*********************************************************************/
      501     7020                                                              /**/
      502     7021                                                              /*   :USERS RECORD.   */
      503     7022              %AS_USERS (STR_NAME = T$USERS, STCLASS = AUTO) ;
      504     7200    2   DCL TEMP SBIN ;
      505     7201    2   DCL FIRST BIT(1) ;
      506     7202    2   DCL 1 FIELD1,
      507     7203    2         2 CNT UBIN BYTE UNAL,
      508     7204    2         2 TXT CHAR(40) UNAL;
      509     7205    2   DCL 1 FIELD2,
      510     7206    2         2 CNT UBIN BYTE UNAL,
      511     7207    2         2 TXT CHAR(40) UNAL;
      512     7208        %EJECT ;
PL6.E3A0      #001=ALA$LOGON File=ALA$LOGON.:E05TSI                              TUE 07/29/97 08:27 Page:91
      513     7209        /*********************************************************************/
      514     7210        /*   PROCEDURE       PROCEDURE       PROCEDURE       PROCEDURE       */
      515     7211        /*********************************************************************/
      516     7212                                                              /**/
      517     7213    2         B$JIT.BUDLIM = 0;

   7213  2 001234   000000 470400 xsym               LDP0    B$JIT$
         2 001235   000147 450100                    STZ     103,,PR0

      518     7214    2         UMAX = BITBIN('377777777777'O);

   7214  2 001236   000031 235000 xsym               LDA     B_VECTNIL+25
         2 001237   201057 755100                    STA     UMAX,,AUTO

      519     7215    2         IF AS_USERS.BUDGET.ICHARGES  AND  AS_USERS.BUDGET.MAXC > -1

   7215  2 001240   200022 236100                    LDQ     AS_USERS+15,,AUTO
         2 001241   000040 316003                    CANQ    32,DU
         2 001242   001272 600000 2                  TZE     s:7231
         2 001243   200011 235100                    LDA     AS_USERS+6,,AUTO
         2 001244   001272 604000 2                  TMI     s:7231

      520     7216    3         THEN DO;

      521     7217    3             TEMP = AS_USERS.BUDGET.MAXC - AS_USERS.BUDGET.ACCUM;

   7217  2 001245   200011 236100                    LDQ     AS_USERS+6,,AUTO
         2 001246   200012 136100                    SBLQ    AS_USERS+7,,AUTO
         2 001247   202231 756100                    STQ     TEMP,,AUTO

      522     7218    3             IF NOT AS_USERS.BUDGET.BKACC  AND  TEMP <= 0

   7218  2 001250   200022 236100                    LDQ     AS_USERS+15,,AUTO
         2 001251   000400 316003                    CANQ    256,DU
         2 001252   001263 601000 2                  TNZ     s:7226
         2 001253   202231 235100                    LDA     TEMP,,AUTO
         2 001254   001263 605400 2                  TPNZ    s:7226
PL6.E3A0      #001=ALA$LOGON File=ALA$LOGON.:E05TSI                              TUE 07/29/97 08:27 Page:92

      523     7219    4             THEN DO;

      524     7220        /*E* ERROR:   ALA-E$MAXC_EXCEEDED-C
      525     7221             MESSAGE: Individual budget exceeded -- unable to logon.
      526     7222        */
      527     7223    4                 CALL ALA$ERROR( ALA_E$MAXC_EXCEEDED );

   7223  2 001255   000024 630400 3                  EPPR0   20
         2 001256   000017 631400 xsym               EPPR1   B_VECTNIL+15
         2 001257   000000 701000 xent               TSX1    ALA$ERROR
         2 001260   000000 011000                    NOP     0

      528     7224    4                 ALTRETURN;

   7224  2 001261   201224 221300                    LDX1  ! FPT$READ_SUSMES+14,,AUTO
         2 001262   000000 702211                    TSX2  ! 0,X1

      529     7225    4                 END;
      530     7226    3             IF AS_USERS.BUDGET.BUDLIM THEN UMAX = MINIMUM( UMAX, TEMP );

   7226  2 001263   000200 316003                    CANQ    128,DU
         2 001264   001272 600000 2                  TZE     s:7231

   7226  2 001265   202231 236100                    LDQ     TEMP,,AUTO
         2 001266   201057 116100                    CMPQ    UMAX,,AUTO
         2 001267   001271 604400 2                  TMOZ    s:7226+6
         2 001270   201057 236100                    LDQ     UMAX,,AUTO
         2 001271   201057 756100                    STQ     UMAX,,AUTO

      531     7227    3             END;

      532     7228                                                      /*
      533     7229                                                         Do any project accounting
      534     7230                                                      */
      535     7231    2         T$USERS = AS_USERS;

PL6.E3A0      #001=ALA$LOGON File=ALA$LOGON.:E05TSI                              TUE 07/29/97 08:27 Page:93
   7231  2 001272   000100 100500                    MLR     fill='000'O
         2 001273   200003 004020                    ADSC9   AS_USERS,,AUTO           cn=0,n=2064
         2 001274   201225 004020                    ADSC9   T$USERS,,AUTO            cn=0,n=2064

      536     7232    2         MASTER_ACCT = AS_USERS.BUDGET.MACCT;

   7232  2 001275   000100 100500                    MLR     fill='000'O
         2 001276   200015 000025                    ADSC9   AS_USERS+10,,AUTO        cn=0,n=21
         2 001277   201065 000025                    ADSC9   MASTER_ACCT,,AUTO        cn=0,n=21

      537     7233    3         DO WHILE( T$USERS.BUDGET.PCHARGES  AND  MASTER_ACCT ~= NO_MACCOUNT );

   7233  2 001300   001374 710000 2                  TRA     s:7253

      538     7234    3             CALL ALA$READ_USERS( MASTER_ACCT, T$USERS ) ALTRET(READ_USERS_ERR);

   7234  2 001301   201225 630500                    EPPR0   T$USERS,,AUTO
         2 001302   202263 450500                    STP0    FIELD2+13,,AUTO
         2 001303   201065 631500                    EPPR1   MASTER_ACCT,,AUTO
         2 001304   202262 451500                    STP1    FIELD2+12,,AUTO
         2 001305   202262 630500                    EPPR0   FIELD2+12,,AUTO
         2 001306   000020 631400 xsym               EPPR1   B_VECTNIL+16
         2 001307   000000 701000 xent               TSX1    ALA$READ_USERS
         2 001310   001416 702000 2                  TSX2    READ_USERS_ERR

      539     7235    4             IF T$USERS.BUDGET.PMAXC > -1 THEN DO;

   7235  2 001311   201235 235100                    LDA     TMDATE+3,,AUTO
         2 001312   001371 604000 2                  TMI     s:7252

      540     7236    4                 TEMP = T$USERS.BUDGET.PMAXC - T$USERS.BUDGET.PACCUM;

   7236  2 001313   201235 236100                    LDQ     TMDATE+3,,AUTO
         2 001314   201236 136100                    SBLQ    TMDATE+4,,AUTO
         2 001315   202231 756100                    STQ     TEMP,,AUTO

      541     7237    5                 IF NOT T$USERS.BUDGET.BKACC AND TEMP <= 0 THEN DO;
PL6.E3A0      #001=ALA$LOGON File=ALA$LOGON.:E05TSI                              TUE 07/29/97 08:27 Page:94

   7237  2 001316   201244 236100                    LDQ     TBUF+1,,AUTO
         2 001317   000400 316003                    CANQ    256,DU
         2 001320   001361 601000 2                  TNZ     s:7250
         2 001321   202231 235100                    LDA     TEMP,,AUTO
         2 001322   001361 605400 2                  TPNZ    s:7250

      542     7238        /*E* ERROR:   ALA-E$PMAXC_EXCEEDED-C
      543     7239             MESSAGE: Unable to logon.  Budget for project "%U1,%U2" exceeded.
      544     7240        */
      545     7241    5   PROJECT_BUDGET_EXCEEDED:
      546     7242    5                     CALL INDEX( I, AL_BLANK, MASTER_ACCT.ACCT );

   7242  2 001323   000000 124500       PROJECT_BUD* SCM     mask='000'O
         2 001324   201065 200010                    ADSC9   MASTER_ACCT,,AUTO        cn=1,n=8
         2 001325   000000 000001 xsym               ADSC9   AL_BLANK                 cn=0,n=1
         2 001326   201056 000100                    ARG     I,,AUTO

      547     7243    5                     FIELD1.CNT = I;

   7243  2 001327   201056 236100                    LDQ     I,,AUTO
         2 001330   000033 736000                    QLS     27
         2 001331   202233 552140                    STBQ    FIELD1,'40'O,AUTO

      548     7244    5                     FIELD1.TXT = MASTER_ACCT.ACCT;

   7244  2 001332   040100 100500                    MLR     fill='040'O
         2 001333   201065 200010                    ADSC9   MASTER_ACCT,,AUTO        cn=1,n=8
         2 001334   202233 200050                    ADSC9   FIELD1,,AUTO             cn=1,n=40

      549     7245    5                     FIELD2.CNT = MASTER_ACCT.CNT - 8;

   7245  2 001335   201065 236100                    LDQ     MASTER_ACCT,,AUTO
         2 001336   000033 772000                    QRL     27
         2 001337   000010 136007                    SBLQ    8,DL
         2 001340   000033 736000                    QLS     27
         2 001341   202246 552140                    STBQ    FIELD2,'40'O,AUTO
PL6.E3A0      #001=ALA$LOGON File=ALA$LOGON.:E05TSI                              TUE 07/29/97 08:27 Page:95

      550     7246    5                     FIELD2.TXT = MASTER_ACCT.NAME;

   7246  2 001342   040100 100500                    MLR     fill='040'O
         2 001343   201067 200014                    ADSC9   MASTER_ACCT+2,,AUTO      cn=1,n=12
         2 001344   202246 200050                    ADSC9   FIELD2,,AUTO             cn=1,n=40

      551     7247    5                     CALL ALA$ERROR( ALA_E$PMAXC_EXCEEDED, FIELD1, FIELD2 );

   7247  2 001345   202246 630500                    EPPR0   FIELD2,,AUTO
         2 001346   202264 450500                    STP0    FIELD2+14,,AUTO
         2 001347   202233 631500                    EPPR1   FIELD1,,AUTO
         2 001350   202263 451500                    STP1    FIELD2+13,,AUTO
         2 001351   000025 236000 3                  LDQ     21
         2 001352   202262 756100                    STQ     FIELD2+12,,AUTO
         2 001353   202262 630500                    EPPR0   FIELD2+12,,AUTO
         2 001354   000021 631400 xsym               EPPR1   B_VECTNIL+17
         2 001355   000000 701000 xent               TSX1    ALA$ERROR
         2 001356   000000 011000                    NOP     0

      552     7248    5                     ALTRETURN;

   7248  2 001357   201224 221300                    LDX1  ! FPT$READ_SUSMES+14,,AUTO
         2 001360   000000 702211                    TSX2  ! 0,X1

      553     7249    5                     END;
      554     7250    4                 IF AS_USERS.BUDGET.BUDLIM THEN UMAX = MINIMUM( UMAX, TEMP );

   7250  2 001361   200022 236100                    LDQ     AS_USERS+15,,AUTO
         2 001362   000200 316003                    CANQ    128,DU
         2 001363   001371 600000 2                  TZE     s:7252

   7250  2 001364   202231 236100                    LDQ     TEMP,,AUTO
         2 001365   201057 116100                    CMPQ    UMAX,,AUTO
         2 001366   001370 604400 2                  TMOZ    s:7250+7
         2 001367   201057 236100                    LDQ     UMAX,,AUTO
         2 001370   201057 756100                    STQ     UMAX,,AUTO
PL6.E3A0      #001=ALA$LOGON File=ALA$LOGON.:E05TSI                              TUE 07/29/97 08:27 Page:96

      555     7251    4                 END;

      556     7252    3             MASTER_ACCT = T$USERS.BUDGET.MACCT;

   7252  2 001371   000100 100500                    MLR     fill='000'O
         2 001372   201237 000025                    ADSC9   TMDATE+5,,AUTO           cn=0,n=21
         2 001373   201065 000025                    ADSC9   MASTER_ACCT,,AUTO        cn=0,n=21

      557     7253    3             END;

   7253  2 001374   201244 236100                    LDQ     TBUF+1,,AUTO
         2 001375   000100 316003                    CANQ    64,DU
         2 001376   001403 600000 2                  TZE     s:7254
         2 001377   000000 106500                    CMPC    fill='000'O
         2 001400   201065 000025                    ADSC9   MASTER_ACCT,,AUTO        cn=0,n=21
         2 001401   001016 000025 1                  ADSC9   NO_MACCOUNT              cn=0,n=21
         2 001402   001301 601000 2                  TNZ     s:7234

      558     7254    2         IF AS_USERS.BUDGET.BUDLIM THEN B$JIT.BUDLIM = MAXIMUM( 1, UMAX );

   7254  2 001403   200022 236100                    LDQ     AS_USERS+15,,AUTO
         2 001404   000200 316003                    CANQ    128,DU
         2 001405   001414 600000 2                  TZE     s:7255

   7254  2 001406   201057 236100                    LDQ     UMAX,,AUTO
         2 001407   000001 116007                    CMPQ    1,DL
         2 001410   001412 605000 2                  TPL     s:7254+7
         2 001411   000001 236007                    LDQ     1,DL
         2 001412   000000 470400 xsym               LDP0    B$JIT$
         2 001413   000147 756100                    STQ     103,,PR0

      559     7255    2         RETURN;

   7255  2 001414   201224 221300                    LDX1  ! FPT$READ_SUSMES+14,,AUTO
         2 001415   000001 702211                    TSX2  ! 1,X1

PL6.E3A0      #001=ALA$LOGON File=ALA$LOGON.:E05TSI                              TUE 07/29/97 08:27 Page:97
      560     7256
      561     7257    2   READ_USERS_ERR:
      562     7258                                                              /**/
      563     7259                                                              /**/
      564     7260        /*E*  ERROR:    ALA-E$NO_MASTER-C
      565     7261              MESSAGE:  PROJECT ADMINISTRATOR does not exist -- unable to logon.
      566     7262
      567     7263        */
      568     7264    2         CALL ALA$ERROR( ALA_E$NO_MASTER );

   7264  2 001416   000026 630400 3     READ_USERS_* EPPR0   22
         2 001417   000017 631400 xsym               EPPR1   B_VECTNIL+15
         2 001420   000000 701000 xent               TSX1    ALA$ERROR
         2 001421   000000 011000                    NOP     0

      569     7265                                                              /**/
      570     7266    2         ALTRETURN ;

   7266  2 001422   201224 221300                    LDX1  ! FPT$READ_SUSMES+14,,AUTO
         2 001423   000000 702211                    TSX2  ! 0,X1

      571     7267    2   END   BUDGET ;
      572     7268        %EJECT ;
PL6.E3A0      #001=ALA$LOGON File=ALA$LOGON.:E05TSI                              TUE 07/29/97 08:27 Page:98
      573     7269                                                              /**/
      574     7270    1   CPROC: PROC ;

   7270  2 001424   201224 741300       CPROC        STX1  ! FPT$READ_SUSMES+14,,AUTO

      575     7271                                                                      /**/
      576     7272    2         IF AS_USERS.CPROC.NAME.CNT(MODE-1) ~= 0

   7272  2 001425   201074 235100                    LDA     MODE,,AUTO
         2 001426   000003 735000                    ALS     3
         2 001427   200120 236105                    LDQ     AS_USERS+77,AL,AUTO
         2 001430   777000 316003                    CANQ    -512,DU
         2 001431   001447 600000 2                  TZE     s:7281

      577     7273    2         THEN
      578     7274    3         DO ;

      579     7275    3             CP_NAME = AS_USERS.CPROC.NAME(MODE-1) ;

   7275  2 001432   201074 235100                    LDA     MODE,,AUTO
         2 001433   000005 735000                    ALS     5
         2 001434   000100 100505                    MLR     fill='000'O
         2 001435   200120 000040                    ADSC9   AS_USERS+77,A,AUTO       cn=0,n=32
         2 001436   201076 000040                    ADSC9   CP_NAME,,AUTO            cn=0,n=32

      580     7276    3             CP_ACCT = ':SYS' ;

   7276  2 001437   001310 236000 1                  LDQ     LFC_VLP+12
         2 001440   000044 737000                    LLS     36
         2 001441   000035 236000 xsym               LDQ     B_VECTNIL+29
         2 001442   201106 757100                    STAQ    CP_ACCT,,AUTO

      581     7277    3             CP_PASSW = ' ' ;

   7277  2 001443   000035 235000 xsym               LDA     B_VECTNIL+29
         2 001444   000035 236000 xsym               LDQ     B_VECTNIL+29
         2 001445   201110 757100                    STAQ    CP_PASSW,,AUTO
PL6.E3A0      #001=ALA$LOGON File=ALA$LOGON.:E05TSI                              TUE 07/29/97 08:27 Page:99

      582     7278    3             END ;   /*  THEN DO  */

   7278  2 001446   001461 710000 2                  TRA     s:7286

      583     7279    2         ELSE
      584     7280    3         DO ;

      585     7281    3             CP_NAME = DF_CP_NAME ;

   7281  2 001447   000100 100400                    MLR     fill='000'O
         2 001450   000000 000040 xsym               ADSC9   DF_CP_NAME               cn=0,n=32
         2 001451   201076 000040                    ADSC9   CP_NAME,,AUTO            cn=0,n=32

      586     7282    3             CP_ACCT = ':SYS' ;

   7282  2 001452   001310 236000 1                  LDQ     LFC_VLP+12
         2 001453   000044 737000                    LLS     36
         2 001454   000035 236000 xsym               LDQ     B_VECTNIL+29
         2 001455   201106 757100                    STAQ    CP_ACCT,,AUTO

      587     7283    3             CP_PASSW = ' ' ;

   7283  2 001456   000035 235000 xsym               LDA     B_VECTNIL+29
         2 001457   000035 236000 xsym               LDQ     B_VECTNIL+29
         2 001460   201110 757100                    STAQ    CP_PASSW,,AUTO

      588     7284    3             END ;   /*  ELSE DO  */

      589     7285                                                              /**/
      590     7286    2         RETURN ;

   7286  2 001461   000001 702211                    TSX2  ! 1,X1

      591     7287                                                              /**/
      592     7288    2   END   CPROC ;
      593     7289        %EJECT ;
PL6.E3A0      #001=ALA$LOGON File=ALA$LOGON.:E05TSI                              TUE 07/29/97 08:27 Page:100
      594     7290                                                              /**/
      595     7291    1   FREECMD: PROC ;

   7291  2 001462   201224 741300       FREECMD      STX1  ! FPT$READ_SUSMES+14,,AUTO

      596     7292                                                                      /**/
      597     7293    2         IF AS_USERS.SETUP(MODE-1) = -1     /* Empty */

   7293  2 001463   201074 235100                    LDA     MODE,,AUTO
         2 001464   000001 735000                    ALS     1
         2 001465   000100 100505                    MLR     fill='000'O
         2 001466   200354 400002                    ADSC9   AS_USERS+233,A,AUTO      cn=2,n=2
         2 001467   202262 000004                    ADSC9   FIELD2+12,,AUTO          cn=0,n=4
         2 001470   202262 236100                    LDQ     FIELD2+12,,AUTO
         2 001471   000022 732000                    QRS     18
         2 001472   000027 116000 xsym               CMPQ    B_VECTNIL+23
         2 001473   001502 601000 2                  TNZ     s:7300

      598     7294    2         THEN
      599     7295                                                              /*  NO FREE COMMAND   */
      600     7296    2             B$JIT.CPFLAGS1 = B$JIT.CPFLAGS1 &~ %CP_BUFFULL#;

   7296  2 001474   001305 236000 1                  LDQ     LFC_VLP+9
         2 001475   000027 676000 xsym               ERQ     B_VECTNIL+23
         2 001476   000000 470400 xsym               LDP0    B$JIT$
         2 001477   000143 376100                    ANQ     99,,PR0
         2 001500   000143 756100                    STQ     99,,PR0
         2 001501   001560 710000 2                  TRA     s:7324

      601     7297    2         ELSE
      602     7298    3         DO ;

      603     7299                                                              /*   FREE COMMAND EXITS   */
      604     7300    3             TEXT$=PINCRC(ADDR(AS_USERS.SETUP_CHRA.TXT),AS_USERS.SETUP(MODE-1));

   7300  2 001502   000100 100505                    MLR     fill='000'O
         2 001503   200354 400002                    ADSC9   AS_USERS+233,A,AUTO      cn=2,n=2
PL6.E3A0      #001=ALA$LOGON File=ALA$LOGON.:E05TSI                              TUE 07/29/97 08:27 Page:101
         2 001504   202262 000004                    ADSC9   FIELD2+12,,AUTO          cn=0,n=4
         2 001505   202262 236100                    LDQ     FIELD2+12,,AUTO
         2 001506   000022 732000                    QRS     18
         2 001507   202263 452500                    STP2    FIELD2+13,,AUTO
         2 001510   000020 736000                    QLS     16
         2 001511   000365 036003                    ADLQ    245,DU
         2 001512   202263 036100                    ADLQ    FIELD2+13,,AUTO
         2 001513   201055 756100                    STQ     TEXT$,,AUTO

      605     7301    3             B$JIT$ -> B$JIT.CCARS = TEXT$ -> TEXT$C.L;

   7301  2 001514   201055 470500                    LDP0    TEXT$,,AUTO
         2 001515   000000 471400 xsym               LDP1    B$JIT$
         2 001516   000100 101500                    MRL     fill='000'O
         2 001517   000000 000001                    ADSC9   0,,PR0                   cn=0,n=1
         2 001520   100032 000002                    ADSC9   26,,PR1                  cn=0,n=2

      606     7302    3             B$JIT$ -> B$JIT.CCDISP = TEXT$ -> TEXT$C.L;

   7302  2 001521   201055 470500                    LDP0    TEXT$,,AUTO
         2 001522   000100 101500                    MRL     fill='000'O
         2 001523   000000 000001                    ADSC9   0,,PR0                   cn=0,n=1
         2 001524   100032 400002                    ADSC9   26,,PR1                  cn=2,n=2

      607     7303    3             B$JIT$ -> B$JIT.CCBUF = TEXT$ -> TEXT$C.C;

   7303  2 001525   201055 470500                    LDP0    TEXT$,,AUTO
         2 001526   000100 101500                    MRL     fill='000'O
         2 001527   000000 000001                    ADSC9   0,,PR0                   cn=0,n=1
         2 001530   202262 000002                    ADSC9   FIELD2+12,,AUTO          cn=0,n=2
         2 001531   202262 220100                    LDX0    FIELD2+12,,AUTO
         2 001532   040100 100540                    MLR     fill='040'O
         2 001533   000000 200010                    ADSC9   0,,PR0                   cn=1,n=*X0
         2 001534   100033 000400                    ADSC9   27,,PR1                  cn=0,n=256

      608     7304    3             B$JIT.CPFLAGS1 = B$JIT.CPFLAGS1 | %CP_BUFFULL#;

PL6.E3A0      #001=ALA$LOGON File=ALA$LOGON.:E05TSI                              TUE 07/29/97 08:27 Page:102
   7304  2 001535   100143 236100                    LDQ     99,,PR1
         2 001536   001305 276000 1                  ORQ     LFC_VLP+9
         2 001537   100143 756100                    STQ     99,,PR1

      609     7305    3             IF NOSETUP

   7305  2 001540   201063 234100                    SZN     NOSETUP,,AUTO
         2 001541   001560 605000 2                  TPL     s:7324

      610     7306    4             THEN DO;

      611     7307    4                 IF (AS_USERS.SETUP_FORCE (MODE - 1) )

   7307  2 001542   201074 235100                    LDA     MODE,,AUTO
         2 001543   000000 066505                    CMPB    filb='0'B
         2 001544   200354 640001                    BDSC    AS_USERS+233,A,AUTO      by=3,bit=4,n=1
         2 001545   000002 000022 xsym               BDSC    B_VECTNIL+2              by=0,bit=0,n=18
         2 001546   001554 600000 2                  TZE     s:7319

      612     7308    5                 THEN DO;

      613     7309        /*E* ERROR:  ALA-E$SETUP_FORCED-C
      614     7310             MESSAGE0: NS option ignored, your authorization requires setup.
      615     7311             MESSAGE1: You specified NoSetup when logging on, but your system
      616     7312                       administrator wants the FORCE to be with you.
      617     7313             MESSAGE2: If you have the FORCE, then your setup command must
      618     7314                       be executed.
      619     7315        */
      620     7316    5                     CALL ALA$ERROR (ALA_E$SETUP_FORCED);

   7316  2 001547   000027 630400 3                  EPPR0   23
         2 001550   000017 631400 xsym               EPPR1   B_VECTNIL+15
         2 001551   000000 701000 xent               TSX1    ALA$ERROR
         2 001552   000000 011000                    NOP     0

      621     7317    5                     END;

PL6.E3A0      #001=ALA$LOGON File=ALA$LOGON.:E05TSI                              TUE 07/29/97 08:27 Page:103
   7317  2 001553   001560 710000 2                  TRA     s:7324

      622     7318    5                 ELSE DO;

      623     7319    5                     B$JIT.CPFLAGS1 = B$JIT.CPFLAGS1 &~ %CP_BUFFULL#;

   7319  2 001554   001305 236000 1                  LDQ     LFC_VLP+9
         2 001555   000027 676000 xsym               ERQ     B_VECTNIL+23
         2 001556   100143 376100                    ANQ     99,,PR1
         2 001557   100143 756100                    STQ     99,,PR1

      624     7320    5                     END;

      625     7321    4                 END;

      626     7322    3             END ;   /*  THEN DO  */

      627     7323                                                              /**/
      628     7324    2         RETURN ;

   7324  2 001560   201224 221300                    LDX1  ! FPT$READ_SUSMES+14,,AUTO
         2 001561   000001 702211                    TSX2  ! 1,X1

      629     7325                                                              /**/
      630     7326    2   END   FREECMD ;
      631     7327        %EJECT ;
PL6.E3A0      #001=ALA$LOGON File=ALA$LOGON.:E05TSI                              TUE 07/29/97 08:27 Page:104
      632     7328                                                              /**/
      633     7329    1   CP_NO_EXISTS: PROC ;

   7329  2 001562   201224 741300       CP_NO_EXISTS STX1  ! FPT$READ_SUSMES+14,,AUTO

      634     7330                                                              /**/
      635     7331                                                              /**/
      636     7332        /*********************************************************************/
      637     7333        /*   AUTO DATA       AUTO DATA       AUTO DATA       AUTO DATA       */
      638     7334        /*********************************************************************/
      639     7335                                                              /**/
      640     7336    2   DCL 1 ERR_BUF ALIGNED ,
      641     7337    2         2 CNT UBIN(9) UNAL ,
      642     7338    2         2 TEXT CHAR(40) UNAL ;
      643     7339    2   DCL CNT UBIN WORD ;
      644     7340    2   DCL I UBIN WORD ;
      645     7341        %EJECT ;
PL6.E3A0      #001=ALA$LOGON File=ALA$LOGON.:E05TSI                              TUE 07/29/97 08:27 Page:105
      646     7342        /*********************************************************************/
      647     7343        /*   PROCEDURE       PROCEDURE       PROCEDURE       PROCEDURE       */
      648     7344        /*********************************************************************/
      649     7345                                                              /**/
      650     7346                                                             /*   PICK UP CP NAME.ACCT.  */
      651     7347    2         CP_NAME = DCBADDR(%M$LM#) -> F$DCB.NAME# ;

   7347  2 001563   000000 470400 3                  LDP0    0
         2 001564   000000 471500                    LDP1    0,,PR0
         2 001565   100002 473500                    LDP3    2,,PR1
         2 001566   000100 100500                    MLR     fill='000'O
         2 001567   300010 000040                    ADSC9   8,,PR3                   cn=0,n=32
         2 001570   201076 000040                    ADSC9   CP_NAME,,AUTO            cn=0,n=32

      652     7348    2         CP_ACCT = DCBADDR(%M$LM#) -> F$DCB.ACCT# ;

   7348  2 001571   300020 237100                    LDAQ    16,,PR3
         2 001572   201106 757100                    STAQ    CP_ACCT,,AUTO

      653     7349                                                         /*   MOVE CP NAME TO ERR_BUFF.  */
      654     7350    2         ERR_BUF.TEXT = CP_NAME.NAME# ;

   7350  2 001573   040100 100500                    MLR     fill='040'O
         2 001574   201076 200037                    ADSC9   CP_NAME,,AUTO            cn=1,n=31
         2 001575   201225 200050                    ADSC9   ERR_BUF,,AUTO            cn=1,n=40

      655     7351                                                              /*   FIND SIZE OF ACCT.   */
      656     7352    2         CALL INDEX( CNT, AL_BLANK, CP_ACCT );

   7352  2 001576   000000 124500                    SCM     mask='000'O
         2 001577   201106 000010                    ADSC9   CP_ACCT,,AUTO            cn=0,n=8
         2 001600   000000 000001 xsym               ADSC9   AL_BLANK                 cn=0,n=1
         2 001601   201240 000100                    ARG     CNT,,AUTO

      657     7353                                                              /**/
      658     7354    2         ERR_BUF.CNT = CNT + CP_NAME.L# + 2 ;

PL6.E3A0      #001=ALA$LOGON File=ALA$LOGON.:E05TSI                              TUE 07/29/97 08:27 Page:106
   7354  2 001602   201076 236100                    LDQ     CP_NAME,,AUTO
         2 001603   000033 772000                    QRL     27
         2 001604   201240 036100                    ADLQ    CNT,,AUTO
         2 001605   000002 036007                    ADLQ    2,DL
         2 001606   000033 736000                    QLS     27
         2 001607   201225 552140                    STBQ    ERR_BUF,'40'O,AUTO

      659     7355                                                             /*   MOVE ACCT TO ERR_BUF.  */
      660     7356    2         CALL INSERT(ERR_BUF.TEXT, CP_NAME.L#, 9, '.', CP_ACCT) ;

   7356  2 001610   201076 236100                    LDQ     CP_NAME,,AUTO
         2 001611   000033 772000                    QRL     27
         2 001612   040106 100400                    MLR     fill='040'O
         2 001613   000030 000001 3                  ADSC9   24                       cn=0,n=1
         2 001614   201225 200001                    ADSC9   ERR_BUF,Q,AUTO           cn=1,n=1
         2 001615   040106 100500                    MLR     fill='040'O
         2 001616   201106 000010                    ADSC9   CP_ACCT,,AUTO            cn=0,n=8
         2 001617   201225 400010                    ADSC9   ERR_BUF,Q,AUTO           cn=2,n=8

      661     7357                                                              /**/
      662     7358                                                              /*   CHECK FOR DEFAULT CP. */
      663     7359    2         IF CP_NAME = DF_CP_NAME AND CP_ACCT = DF_CP_ACCT

   7359  2 001620   000000 106500                    CMPC    fill='000'O
         2 001621   201076 000040                    ADSC9   CP_NAME,,AUTO            cn=0,n=32
         2 001622   000000 000040 xsym               ADSC9   DF_CP_NAME               cn=0,n=32
         2 001623   001637 601000 2                  TNZ     s:7367
         2 001624   040000 106500                    CMPC    fill='040'O
         2 001625   201106 000010                    ADSC9   CP_ACCT,,AUTO            cn=0,n=8
         2 001626   000000 000010 xsym               ADSC9   DF_CP_ACCT               cn=0,n=8
         2 001627   001637 601000 2                  TNZ     s:7367

      664     7360    2         THEN
      665     7361    3         DO ;

      666     7362    3             ERR_CODE.CODE = 1 /* DF_CP_MISSING */ ;

PL6.E3A0      #001=ALA$LOGON File=ALA$LOGON.:E05TSI                              TUE 07/29/97 08:27 Page:107
   7362  2 001630   201112 236100                    LDQ     ERR_CODE,,AUTO
         2 001631   000031 376000 3                  ANQ     25
         2 001632   000010 276007                    ORQ     8,DL
         2 001633   201112 756100                    STQ     ERR_CODE,,AUTO

      667     7363    3             ERR_CODE.SEV = 7 ;

   7363  2 001634   000007 236007                    LDQ     7,DL
         2 001635   201112 256100                    ORSQ    ERR_CODE,,AUTO

      668     7364    3             END ;   /*  THEN DO  */

   7364  2 001636   001645 710000 2                  TRA     s:7370

      669     7365    2         ELSE
      670     7366    3         DO ;

      671     7367    3             ERR_CODE.CODE = 2 /* CP_MISSING */ ;

   7367  2 001637   201112 236100                    LDQ     ERR_CODE,,AUTO
         2 001640   000031 376000 3                  ANQ     25
         2 001641   000020 276007                    ORQ     16,DL
         2 001642   201112 756100                    STQ     ERR_CODE,,AUTO

      672     7368    3             ERR_CODE.SEV = 0 ;

   7368  2 001643   000032 236000 3                  LDQ     26
         2 001644   201112 356100                    ANSQ    ERR_CODE,,AUTO

      673     7369    3             END ;   /*  ELSE DO  */

      674     7370    2         ERR_CODE.FCG_MID = FCG ;

   7370  2 001645   000000 220000 1                  LDX0    FCG
         2 001646   201112 740100                    STX0    ERR_CODE,,AUTO

      675     7371                                                              /**/
PL6.E3A0      #001=ALA$LOGON File=ALA$LOGON.:E05TSI                              TUE 07/29/97 08:27 Page:108
      676     7372        /*E*  ERROR:    ALA-E$DF_CP_MISSING-C
      677     7373              MESSAGE7: The default command processor %%U1%does not exist.
      678     7374                        See SYSTEM MANAGER.
      679     7375
      680     7376        */
      681     7377                                                              /**/
      682     7378        /*E*  ERROR:    ALA-E$CP_MISSING-C
      683     7379              MESSAGE:  Command processor %%U1 %does not exist.
      684     7380
      685     7381        */
      686     7382                                                              /**/
      687     7383    2         CALL ALA$ERROR(ERR_CODE, ERR_BUF.CNT) ;

   7383  2 001647   201225 630500                    EPPR0   ERR_BUF,,AUTO
         2 001650   202263 450500                    STP0    FIELD2+13,,AUTO
         2 001651   201112 631500                    EPPR1   ERR_CODE,,AUTO
         2 001652   202262 451500                    STP1    FIELD2+12,,AUTO
         2 001653   202262 630500                    EPPR0   FIELD2+12,,AUTO
         2 001654   000020 631400 xsym               EPPR1   B_VECTNIL+16
         2 001655   000000 701000 xent               TSX1    ALA$ERROR
         2 001656   000000 011000                    NOP     0

      688     7384                                                             /*   IF DEFAULT CP LOG-OFF. */
      689     7385    2         IF ERR_CODE.CODE = 1 /* DF_CP_MISSING */

   7385  2 001657   201112 236100                    LDQ     ERR_CODE,,AUTO
         2 001660   777770 376007                    ANQ     -8,DL
         2 001661   000010 116007                    CMPQ    8,DL
         2 001662   001677 601000 2                  TNZ     s:7394

      690     7386    2         THEN
      691     7387    2             IF SYS_GHOST

   7387  2 001663   201115 234100                    SZN     SYS_GHOST,,AUTO
         2 001664   001674 605000 2                  TPL     s:7391

      692     7388    2             THEN
PL6.E3A0      #001=ALA$LOGON File=ALA$LOGON.:E05TSI                              TUE 07/29/97 08:27 Page:109
      693     7389    2                 CALL ALA$CPEXIT( FPT$CPEXIT ) ;

   7389  2 001665   201170 630500                    EPPR0   FPT$CPEXIT,,AUTO
         2 001666   202262 450500                    STP0    FIELD2+12,,AUTO
         2 001667   202262 630500                    EPPR0   FIELD2+12,,AUTO
         2 001670   000017 631400 xsym               EPPR1   B_VECTNIL+15
         2 001671   000000 701000 xent               TSX1    ALA$CPEXIT
         2 001672   000000 011000                    NOP     0
         2 001673   001677 710000 2                  TRA     s:7394

      694     7390    2             ELSE
      695     7391    2                 CALL ALA$CPEXIT ;

   7391  2 001674   000002 631400 xsym               EPPR1   B_VECTNIL+2
         2 001675   000000 701000 xent               TSX1    ALA$CPEXIT
         2 001676   000000 011000                    NOP     0

      696     7392                                                              /**/
      697     7393                                                              /*   CPEXIT TO DEFAULT CP. */
      698     7394    2         CP_NAME = DF_CP_NAME ;

   7394  2 001677   000100 100400                    MLR     fill='000'O
         2 001700   000000 000040 xsym               ADSC9   DF_CP_NAME               cn=0,n=32
         2 001701   201076 000040                    ADSC9   CP_NAME,,AUTO            cn=0,n=32

      699     7395    2         CP_ACCT = DF_CP_ACCT ;

   7395  2 001702   040100 100400                    MLR     fill='040'O
         2 001703   000000 000010 xsym               ADSC9   DF_CP_ACCT               cn=0,n=8
         2 001704   201106 000010                    ADSC9   CP_ACCT,,AUTO            cn=0,n=8

      700     7396    2         CP_PASSW = DF_CP_PASS ;

   7396  2 001705   040100 100400                    MLR     fill='040'O
         2 001706   000000 000010 xsym               ADSC9   DF_CP_PASS               cn=0,n=8
         2 001707   201110 000010                    ADSC9   CP_PASSW,,AUTO           cn=0,n=8

PL6.E3A0      #001=ALA$LOGON File=ALA$LOGON.:E05TSI                              TUE 07/29/97 08:27 Page:110
      701     7397    2         CALL ALA$CPEXIT(FPT$CPEXIT);

   7397  2 001710   201170 630500                    EPPR0   FPT$CPEXIT,,AUTO
         2 001711   202262 450500                    STP0    FIELD2+12,,AUTO
         2 001712   202262 630500                    EPPR0   FIELD2+12,,AUTO
         2 001713   000017 631400 xsym               EPPR1   B_VECTNIL+15
         2 001714   000000 701000 xent               TSX1    ALA$CPEXIT
         2 001715   000000 011000                    NOP     0

      702     7398                                                              /**/
      703     7399    2   END   CP_NO_EXISTS ;

   7399  2 001716   201224 221300                    LDX1  ! FPT$READ_SUSMES+14,,AUTO
         2 001717   000001 702211                    TSX2  ! 1,X1

      704     7400        %EJECT ;
PL6.E3A0      #001=ALA$LOGON File=ALA$LOGON.:E05TSI                              TUE 07/29/97 08:27 Page:111
      705     7401    1   CLRES: PROC;

   7401  2 001720   201224 741300       CLRES        STX1  ! FPT$READ_SUSMES+14,,AUTO

      706     7402                                                              /**/
      707     7403        /*********************************************************************/
      708     7404        /*   AUTO DATA       AUTO DATA       AUTO DATA       AUTO DATA       */
      709     7405        /*********************************************************************/
      710     7406                                                              /**/
      711     7407    2   DCL I UBIN ;
      712     7408    2   DCL MAX UBIN;
      713     7409        %EJECT ;
PL6.E3A0      #001=ALA$LOGON File=ALA$LOGON.:E05TSI                              TUE 07/29/97 08:27 Page:112
      714     7410        /*********************************************************************/
      715     7411        /*   PROCEDURE       PROCEDURE       PROCEDURE       PROCEDURE       */
      716     7412        /*********************************************************************/
      717     7413                                                              /**/
      718     7414    2         B$JIT.CLRES = '0'B;

   7414  2 001721   000000 470400 xsym               LDP0    B$JIT$
         2 001722   000013 236000 3                  LDQ     11
         2 001723   000325 356100                    ANSQ    213,,PR0

      719     7415    3         DO I = 0 TO AS_USERS.TOT_TYPES-1;

   7415  2 001724   201225 450100                    STZ     I,,AUTO
         2 001725   002011 710000 2                  TRA     s:7442+3

      720     7416    3             IF AS_USERS.RESL.RNAME(I) = 'CL'

   7416  2 001726   201225 236100                    LDQ     I,,AUTO
         2 001727   000012 402007                    MPY     10,DL
         2 001730   040000 106506                    CMPC    fill='040'O
         2 001731   200330 400002                    ADSC9   AS_USERS+213,Q,AUTO      cn=2,n=2
         2 001732   001311 000002 1                  ADSC9   LFC_VLP+13               cn=0,n=2
         2 001733   002006 601000 2                  TNZ     s:7442

      721     7417    3             THEN
      722     7418    4             DO;

      723     7419    5                 DO CASE(MODE);

   7419  2 001734   201074 235100                    LDA     MODE,,AUTO
         2 001735   000005 115007                    CMPA    5,DL
         2 001736   001740 602005 2                  TNC     s:7419+4,AL
         2 001737   001764 710000 2                  TRA     s:7429
         2 001740   001764 710000 2                  TRA     s:7429
         2 001741   001751 710000 2                  TRA     s:7423
         2 001742   001755 710000 2                  TRA     s:7425
         2 001743   001745 710000 2                  TRA     s:7421
PL6.E3A0      #001=ALA$LOGON File=ALA$LOGON.:E05TSI                              TUE 07/29/97 08:27 Page:113
         2 001744   001761 710000 2                  TRA     s:7427

      724     7420    5                   CASE(%M_INT#);

      725     7421    5                     MAX = AS_USERS.RESL.OMAX(I);

   7421  2 001745   000100 101506                    MRL     fill='000'O
         2 001746   200332 000002                    ADSC9   AS_USERS+215,Q,AUTO      cn=0,n=2
         2 001747   201226 000004                    ADSC9   MAX,,AUTO                cn=0,n=4
         2 001750   001764 710000 2                  TRA     s:7429

      726     7422    5                   CASE(%M_BATCH#);

      727     7423    5                     MAX = AS_USERS.RESL.BMAX(I);

   7423  2 001751   000100 101506                    MRL     fill='000'O
         2 001752   200331 000002                    ADSC9   AS_USERS+214,Q,AUTO      cn=0,n=2
         2 001753   201226 000004                    ADSC9   MAX,,AUTO                cn=0,n=4
         2 001754   001764 710000 2                  TRA     s:7429

      728     7424    5                   CASE(%M_GHOST#);

      729     7425    5                     MAX = AS_USERS.RESL.GMAX(I);

   7425  2 001755   000100 101506                    MRL     fill='000'O
         2 001756   200331 400002                    ADSC9   AS_USERS+214,Q,AUTO      cn=2,n=2
         2 001757   201226 000004                    ADSC9   MAX,,AUTO                cn=0,n=4
         2 001760   001764 710000 2                  TRA     s:7429

      730     7426    5                   CASE(%M_TP#);

      731     7427    5                     MAX = AS_USERS.RESL.TMAX(I);

   7427  2 001761   000100 101506                    MRL     fill='000'O
         2 001762   200332 400002                    ADSC9   AS_USERS+215,Q,AUTO      cn=2,n=2
         2 001763   201226 000004                    ADSC9   MAX,,AUTO                cn=0,n=4

PL6.E3A0      #001=ALA$LOGON File=ALA$LOGON.:E05TSI                              TUE 07/29/97 08:27 Page:114
      732     7428    5                   END; /* Do Case */

      733     7429    4                 IF MAX=1

   7429  2 001764   201226 235100                    LDA     MAX,,AUTO
         2 001765   000001 115007                    CMPA    1,DL
         2 001766   001772 601000 2                  TNZ     s:7432

      734     7430    4                 THEN
      735     7431    4                     B$JIT.CLRES(0) = '1'B;

   7431  2 001767   000000 470400 xsym               LDP0    B$JIT$
         2 001770   400000 236003                    LDQ     -131072,DU
         2 001771   000325 256100                    ORSQ    213,,PR0

      736     7432    4                 IF MAX=2

   7432  2 001772   000002 115007                    CMPA    2,DL
         2 001773   002001 601000 2                  TNZ     s:7438

      737     7433    4                 THEN
      738     7434    5                 DO;

      739     7435    5                     B$JIT.CLRES(0) = '1'B;

   7435  2 001774   000000 470400 xsym               LDP0    B$JIT$
         2 001775   400000 236003                    LDQ     -131072,DU
         2 001776   000325 256100                    ORSQ    213,,PR0

      740     7436    5                     B$JIT.CLRES(1) = '1'B;

   7436  2 001777   200000 236003                    LDQ     65536,DU
         2 002000   000325 256100                    ORSQ    213,,PR0

      741     7437    5                     END;  /* Then Do */

      742     7438    4                 IF MAX>2
PL6.E3A0      #001=ALA$LOGON File=ALA$LOGON.:E05TSI                              TUE 07/29/97 08:27 Page:115

   7438  2 002001   000003 115007                    CMPA    3,DL
         2 002002   002006 602000 2                  TNC     s:7442

      743     7439    4                 THEN
      744     7440    4                     B$JIT.CLRES(2) = '1'B;

   7440  2 002003   000000 470400 xsym               LDP0    B$JIT$
         2 002004   100000 236003                    LDQ     32768,DU
         2 002005   000325 256100                    ORSQ    213,,PR0

      745     7441    4                 END; /* Then Do */

      746     7442    3             END; /* Do I */

   7442  2 002006   201225 235100                    LDA     I,,AUTO
         2 002007   000001 035007                    ADLA    1,DL
         2 002010   201225 755100                    STA     I,,AUTO
         2 002011   200330 236100                    LDQ     AS_USERS+213,,AUTO
         2 002012   000022 772000                    QRL     18
         2 002013   201225 116100                    CMPQ    I,,AUTO
         2 002014   002016 600000 2                  TZE     s:7444
         2 002015   001726 603000 2                  TRC     s:7416

      747     7443
      748     7444    2         RETURN;

   7444  2 002016   201224 221300                    LDX1  ! FPT$READ_SUSMES+14,,AUTO
         2 002017   000001 702211                    TSX2  ! 1,X1

      749     7445
      750     7446    2   END   CLRES;
      751     7447        %EJECT ;
PL6.E3A0      #001=ALA$LOGON File=ALA$LOGON.:E05TSI                              TUE 07/29/97 08:27 Page:116
      752     7448    1   SET_LAST_LOGON_TIME: PROC;

   7448  2 002020   201224 741300       SET_LAST_LO* STX1  ! FPT$READ_SUSMES+14,,AUTO

      753     7449                                                              /**/
      754     7450        /*********************************************************************/
      755     7451        /*   AUTO DATA       AUTO DATA       AUTO DATA       AUTO DATA       */
      756     7452        /*********************************************************************/
      757     7453                                                              /**/
      758     7454    2   DCL I UBIN ;
      759     7455    2   DCL POS UBIN;
      760     7456    2   DCL BAD_CNT_CHAR CHAR(10);
      761     7457    2   DCL 1 TMDATE ALIGNED ,
      762     7458    2         2 CNT UBIN(9) UNAL ,
      763     7459    2         2 BUFF UNAL ,
      764     7460    2           3 TIME CHAR(5) UNAL ,
      765     7461    2           3 * CHAR(1) UNAL ,
      766     7462    2           3 DAY CHAR(3) UNAL ,
      767     7463    2           3 * CHAR(1) UNAL ,
      768     7464    2           3 DATE CHAR(10) UNAL ,
      769     7465    2         2 RDEF_BUFF REDEF BUFF CHAR(20) ;
      770     7466    2   DCL 1 BAD_CNT_BUF,
      771     7467    2         2 CNT UBIN (9) UNAL,
      772     7468    2         2 TEXT CHAR(10);
      773     7469    2   DCL TBUF CHAR(6);
      774     7470                                                              /**/
      775     7471        /*********************************************************************/
      776     7472        /*   FPTs & VLPs     FPTs & VLPs     FPTs & VLPs     FPTs & VLPs     */
      777     7473        /*********************************************************************/
      778     7474                                                              /**/
      779     7475        %FPT_CMDVAR (FPTN = CFPT_CMDVAR,
      780     7476                     STCLASS = CONSTANT,
      781     7477                     FUN = STORE);
      782     7494        %FPT_CMDVAR (FPTN = FPT_CMDVAR,
      783     7495                     STCLASS = AUTO);
      784     7512        %VLP_NAME (FPTN=LLT_VLP,
      785     7513                   STCLASS = CONSTANT,
PL6.E3A0      #001=ALA$LOGON File=ALA$LOGON.:E05TSI                              TUE 07/29/97 08:27 Page:117
      786     7514                   LEN = 15,
      787     7515                   NAME = 'LAST_LOGON_TIME');
      788     7542        %VLP_NAME (FPTN=LFC_VLP,
      789     7543                   STCLASS = CONSTANT,
      790     7544                   LEN = 19,
      791     7545                   NAME = 'LOGON_FAILURE_COUNT');
      792     7572        %EJECT ;
PL6.E3A0      #001=ALA$LOGON File=ALA$LOGON.:E05TSI                              TUE 07/29/97 08:27 Page:118
      793     7573        /*********************************************************************/
      794     7574        /*   PROCEDURE       PROCEDURE       PROCEDURE       PROCEDURE       */
      795     7575        /*********************************************************************/
      796     7576                                                              /**/
      797     7577                                                              /* Setup Command variable
      798     7578                                                                 LAST_LOGON_TIME
      799     7579                                                              */
      800     7580    2         AL$LLT_TSTAMP.UTS = AS_USERS.LOGINS.LAST_LOGON_TIME(MODE-1);

   7580  2 002021   201074 235100                    LDA     MODE,,AUTO
         2 002022   000001 735000                    ALS     1
         2 002023   200765 235105                    LDA     AS_USERS+498,AL,AUTO
         2 002024   201125 755100                    STA     AL$LLT_TSTAMP,,AUTO

      801     7581    2         CALL ALA$TIME (AL$LLT_TSTAMP);

   7581  2 002025   201125 630500                    EPPR0   AL$LLT_TSTAMP,,AUTO
         2 002026   202262 450500                    STP0    FIELD2+12,,AUTO
         2 002027   202262 630500                    EPPR0   FIELD2+12,,AUTO
         2 002030   000017 631400 xsym               EPPR1   B_VECTNIL+15
         2 002031   000000 701000 xent               TSX1    ALA$TIME
         2 002032   000000 011000                    NOP     0

      802     7582    2         TMDATE.RDEF_BUFF = AL_BLANK ;          /*   Blank fill time buffer. */

   7582  2 002033   040100 100400                    MLR     fill='040'O
         2 002034   000000 000001 xsym               ADSC9   AL_BLANK                 cn=0,n=1
         2 002035   201232 200024                    ADSC9   TMDATE,,AUTO             cn=1,n=20

      803     7583    2         TMDATE.BUFF.TIME = SUBSTR (AL$LLT_TSTAMP.TIME, 0, 5);

   7583  2 002036   040100 100500                    MLR     fill='040'O
         2 002037   201126 000005                    ADSC9   AL$LLT_TSTAMP+1,,AUTO    cn=0,n=5
         2 002040   201232 200005                    ADSC9   TMDATE,,AUTO             cn=1,n=5

      804     7584
      805     7585    2         TMDATE.BUFF.DAY  = AL$LLT_TSTAMP.DAY  ;
PL6.E3A0      #001=ALA$LOGON File=ALA$LOGON.:E05TSI                              TUE 07/29/97 08:27 Page:119

   7585  2 002041   040100 100500                    MLR     fill='040'O
         2 002042   201130 600003                    ADSC9   AL$LLT_TSTAMP+3,,AUTO    cn=3,n=3
         2 002043   201233 600003                    ADSC9   TMDATE+1,,AUTO           cn=3,n=3

      806     7586    2         CALL XLATE (TBUF, B$XL_LOWER_UR, TMDATE.BUFF.DAY);

   7586  2 002044   000000 470400 xsym               LDP0    B$XL_LOWER_UR$
         2 002045   040100 160500                    MVT     fill='040'O
         2 002046   201233 600003                    ADSC9   TMDATE+1,,AUTO           cn=3,n=3
         2 002047   201243 000006                    ADSC9   TBUF,,AUTO               cn=0,n=6
         2 002050   000000 000100                    ARG     0,,PR0

      807     7587    2         SUBSTR (TMDATE.BUFF.DAY, 1, 2) = SUBSTR (TBUF, 1, 2);

   7587  2 002051   040100 100500                    MLR     fill='040'O
         2 002052   201243 200002                    ADSC9   TBUF,,AUTO               cn=1,n=2
         2 002053   202262 000004                    ADSC9   FIELD2+12,,AUTO          cn=0,n=4
         2 002054   202262 220100                    LDX0    FIELD2+12,,AUTO
         2 002055   201234 740100                    STX0    TMDATE+2,,AUTO

      808     7588
      809     7589    2         TMDATE.BUFF.DATE = AL$LLT_TSTAMP.DATE ;

   7589  2 002056   040100 100500                    MLR     fill='040'O
         2 002057   201131 400012                    ADSC9   AL$LLT_TSTAMP+4,,AUTO    cn=2,n=10
         2 002060   201234 600012                    ADSC9   TMDATE+2,,AUTO           cn=3,n=10

      810     7590    2         CALL XLATE (TBUF, B$XL_LOWER_UR, TMDATE. BUFF.DATE);

   7590  2 002061   040100 160500                    MVT     fill='040'O
         2 002062   201234 600012                    ADSC9   TMDATE+2,,AUTO           cn=3,n=10
         2 002063   201243 000006                    ADSC9   TBUF,,AUTO               cn=0,n=6
         2 002064   000000 000100                    ARG     0,,PR0

      811     7591    2         SUBSTR (TMDATE.BUFF.DATE, 1, 2) = SUBSTR (TBUF, 1, 2);

PL6.E3A0      #001=ALA$LOGON File=ALA$LOGON.:E05TSI                              TUE 07/29/97 08:27 Page:120
   7591  2 002065   040100 100500                    MLR     fill='040'O
         2 002066   201243 200002                    ADSC9   TBUF,,AUTO               cn=1,n=2
         2 002067   202262 000004                    ADSC9   FIELD2+12,,AUTO          cn=0,n=4
         2 002070   202262 221100                    LDX1    FIELD2+12,,AUTO
         2 002071   201235 741100                    STX1    TMDATE+3,,AUTO

      812     7592
      813     7593    2         TMDATE.CNT = 20;

   7593  2 002072   024000 236003                    LDQ     10240,DU
         2 002073   201232 552140                    STBQ    TMDATE,'40'O,AUTO

      814     7594                                                                  /**/
      815     7595    2         FPT_CMDVAR = CFPT_CMDVAR;

   7595  2 002074   000100 100400                    MLR     fill='000'O
         2 002075   001252 000070 1                  ADSC9   CFPT_CMDVAR              cn=0,n=56
         2 002076   201246 000070                    ADSC9   FPT_CMDVAR,,AUTO         cn=0,n=56

      816     7596    2         FPT_CMDVAR.V_ = VECTOR(FPT_CMDVAR.V);

   7596  2 002077   000010 235000 3                  LDA     8
         2 002100   202262 452500                    STP2    FIELD2+12,,AUTO
         2 002101   202262 236100                    LDQ     FIELD2+12,,AUTO
         2 002102   001262 036003                    ADLQ    690,DU
         2 002103   201246 757100                    STAQ    FPT_CMDVAR,,AUTO

      817     7597    2         FPT_CMDVAR.NAME_ = VECTOR(LLT_VLP);

   7597  2 002104   000034 237000 3                  LDAQ    28
         2 002105   201250 757100                    STAQ    FPT_CMDVAR+2,,AUTO

      818     7598    2         FPT_CMDVAR.VALUE_ = VECTOR(TMDATE);

   7598  2 002106   000001 235000 3                  LDA     1
         2 002107   202262 452500                    STP2    FIELD2+12,,AUTO
         2 002110   202262 236100                    LDQ     FIELD2+12,,AUTO
PL6.E3A0      #001=ALA$LOGON File=ALA$LOGON.:E05TSI                              TUE 07/29/97 08:27 Page:121
         2 002111   001232 036003                    ADLQ    666,DU
         2 002112   201252 757100                    STAQ    FPT_CMDVAR+4,,AUTO

      819     7599
      820     7600    3         CALL M$CMDVAR (FPT_CMDVAR) WHENALTRETURN DO;

   7600  2 002113   201246 630500                    EPPR0   FPT_CMDVAR,,AUTO
         2 002114   420025 713400                    CLIMB   alt,+8213
         2 002115   402400 401760                    pmme    nvectors=6
         2 002116   002120 702000 2                  TSX2    s:7605
         2 002117   002120 710000 2                  TRA     s:7605

      821     7601    3             END;

      822     7602                                                              /* Setup Command variable
      823     7603                                                                 LOGON_FAILURE_COUNT
      824     7604                                                              */
      825     7605    2         CALL BINCHAR(BAD_CNT_CHAR, AS_USERS.LOGINS.BAD_LOGON_CNT(MODE-1));

   7605  2 002120   201074 235100                    LDA     MODE,,AUTO
         2 002121   000001 735000                    ALS     1
         2 002122   200766 235105                    LDA     AS_USERS+499,AL,AUTO
         2 002123   000044 773000                    LRL     36
         2 002124   202262 757100                    STAQ    FIELD2+12,,AUTO
         2 002125   000100 301500                    BTD
         2 002126   202262 000010                    NDSC9   FIELD2+12,,AUTO          cn=0,s=lsgnf,sf=0,n=8
         2 002127   201227 030012                    NDSC9   BAD_CNT_CHAR,,AUTO       cn=0,s=nosgn,sf=0,n=10

      826     7606    3         CALL SEARCH (POS, I, B$SR_NON_ZERO, BAD_CNT_CHAR) WHENALTRETURN DO;

   7606  2 002130   000000 470400 xsym               LDP0    B$SR_NON_ZERO$
         2 002131   000000 164500                    TCT
         2 002132   201227 000012                    ADSC9   BAD_CNT_CHAR,,AUTO       cn=0,n=10
         2 002133   000000 000100                    ARG     0,,PR0
         2 002134   201226 000100                    ARG     POS,,AUTO
         2 002135   201226 235100                    LDA     POS,,AUTO
         2 002136   000033 771000                    ARL     27
PL6.E3A0      #001=ALA$LOGON File=ALA$LOGON.:E05TSI                              TUE 07/29/97 08:27 Page:122
         2 002137   201225 755100                    STA     I,,AUTO
         2 002140   201226 551140                    STBA    POS,'40'O,AUTO
         2 002141   002143 606400 2                  TTN     s:7607
         2 002142   002145 710000 2                  TRA     s:7609

      827     7607    3             POS = 9;

   7607  2 002143   000011 235007                    LDA     9,DL
         2 002144   201226 755100                    STA     POS,,AUTO

      828     7608    3             END;

      829     7609    2         BAD_CNT_BUF.CNT = 10 - POS;

   7609  2 002145   000012 236007                    LDQ     10,DL
         2 002146   201226 136100                    SBLQ    POS,,AUTO
         2 002147   000033 736000                    QLS     27
         2 002150   201240 552140                    STBQ    BAD_CNT_BUF,'40'O,AUTO

      830     7610    2         BAD_CNT_BUF.TEXT = SUBSTR(BAD_CNT_CHAR, POS);

   7610  2 002151   201226 720100                    LXL0    POS,,AUTO
         2 002152   777765 620010                    EAX0    -11,X0
         2 002153   777777 660003                    ERX0    -1,DU
         2 002154   201226 235100                    LDA     POS,,AUTO
         2 002155   040100 100545                    MLR     fill='040'O
         2 002156   201227 000010                    ADSC9   BAD_CNT_CHAR,A,AUTO      cn=0,n=*X0
         2 002157   201240 200012                    ADSC9   BAD_CNT_BUF,,AUTO        cn=1,n=10

      831     7611                                                                  /**/
      832     7612    2         FPT_CMDVAR = CFPT_CMDVAR;

   7612  2 002160   000100 100400                    MLR     fill='000'O
         2 002161   001252 000070 1                  ADSC9   CFPT_CMDVAR              cn=0,n=56
         2 002162   201246 000070                    ADSC9   FPT_CMDVAR,,AUTO         cn=0,n=56

      833     7613    2         FPT_CMDVAR.V_ = VECTOR(FPT_CMDVAR.V);
PL6.E3A0      #001=ALA$LOGON File=ALA$LOGON.:E05TSI                              TUE 07/29/97 08:27 Page:123

   7613  2 002163   000010 235000 3                  LDA     8
         2 002164   202262 452500                    STP2    FIELD2+12,,AUTO
         2 002165   202262 236100                    LDQ     FIELD2+12,,AUTO
         2 002166   001262 036003                    ADLQ    690,DU
         2 002167   201246 757100                    STAQ    FPT_CMDVAR,,AUTO

      834     7614    2         FPT_CMDVAR.NAME_ = VECTOR(LFC_VLP);

   7614  2 002170   000036 237000 3                  LDAQ    30
         2 002171   201250 757100                    STAQ    FPT_CMDVAR+2,,AUTO

      835     7615    2         FPT_CMDVAR.VALUE_ = VECTOR(BAD_CNT_BUF);

   7615  2 002172   000033 235000 3                  LDA     27
         2 002173   202262 452500                    STP2    FIELD2+12,,AUTO
         2 002174   202262 236100                    LDQ     FIELD2+12,,AUTO
         2 002175   001240 036003                    ADLQ    672,DU
         2 002176   201252 757100                    STAQ    FPT_CMDVAR+4,,AUTO

      836     7616
      837     7617    3         CALL M$CMDVAR (FPT_CMDVAR) WHENALTRETURN DO;

   7617  2 002177   201246 630500                    EPPR0   FPT_CMDVAR,,AUTO
         2 002200   420025 713400                    CLIMB   alt,+8213
         2 002201   402400 401760                    pmme    nvectors=6
         2 002202   002204 702000 2                  TSX2    s:7621
         2 002203   002204 710000 2                  TRA     s:7621

      838     7618    3             END;

      839     7619                                                             /* Set fields in :USERS record
      840     7620                                                              */
      841     7621    2         AS_USERS.LAST_LOGON_TIME = BINBIT(B$JIT.LOGONTIME,36);

   7621  2 002204   000000 470400 xsym               LDP0    B$JIT$
         2 002205   000150 236100                    LDQ     104,,PR0
PL6.E3A0      #001=ALA$LOGON File=ALA$LOGON.:E05TSI                              TUE 07/29/97 08:27 Page:124
         2 002206   200765 756100                    STQ     AS_USERS+498,,AUTO

      842     7622    2         AS_USERS.BAD_LOGON_CNT = 0;

   7622  2 002207   000000 220003                    LDX0    0,DU
         2 002210   200766 740100                    STX0    AS_USERS+499,,AUTO

      843     7623    2         AS_USERS.LOGINS.LAST_LOGON_TIME(MODE-1) = B$JIT.LOGONTIME;

   7623  2 002211   201074 235100                    LDA     MODE,,AUTO
         2 002212   000001 735000                    ALS     1
         2 002213   000000 621005                    EAX1    0,AL
         2 002214   000150 235100                    LDA     104,,PR0
         2 002215   200765 755111                    STA     AS_USERS+498,X1,AUTO

      844     7624    2         AS_USERS.LOGINS.BAD_LOGON_CNT(MODE-1) = 0;

   7624  2 002216   201074 235100                    LDA     MODE,,AUTO
         2 002217   000001 735000                    ALS     1
         2 002220   200766 450105                    STZ     AS_USERS+499,AL,AUTO

      845     7625
      846     7626    2         RETURN;

   7626  2 002221   201224 221300                    LDX1  ! FPT$READ_SUSMES+14,,AUTO
         2 002222   000001 702211                    TSX2  ! 1,X1

      847     7627
      848     7628    2   END   SET_LAST_LOGON_TIME;
      849     7629    1   END   ALA$LOGON ;

   7629  2 002223   000000 702200 xent               TSX2  ! X66_MARET
      850     7630        %EOD ;

PL6.E3A0      #001=ALA$LOGON File=ALA$LOGON.:E05TSI                              TUE 07/29/97 08:27 Page:125
--  Include file information  --

   JG_GHOSTS_C.:E05TOU  is referenced.
   AL_LOGON_R.:E05TOU  cannot be made into a system file and is referenced.
   CP_MACROS_C.:E05TOU  is referenced.
   AL_MACROS_C.:E05TOU  is referenced.
   AL_PERR_C.:E05TOU  is referenced.
   AL_SUBS_C.:E05TOU  is referenced.
   CP_6_SUBS.:E05TOU  is referenced.
   CP_6.:E05TOU  cannot be made into a system file and is referenced.
   B$TABLES_C.:E05TOU  cannot be made into a system file and is referenced.
   B$JIT.:E05TOU  cannot be made into a system file and is referenced.
   KL_SUPER_C.:E05TOU  is referenced.
   AS_SUPER_C.:E05TOU  is referenced.
   B$JIT_C.:E05TOU  was found in the system file and is referenced.
   CP_6_C.:E05TOU  was found in the system file and is referenced.
      No diagnostics issued in procedure ALA$LOGON.
PL6.E3A0      #001=ALA$LOGON File=ALA$LOGON.:E05TSI                              TUE 07/29/97 08:27 Page:126

 **** Variables and constants ****

  ****  Section 001 RoData ALA$LOGON

  ****  Scalars and arrays  ****
OctLoc.c.b A Datatyp(siz) R M Lvl/name                 OctLoc.c.b A Datatyp(siz) R M Lvl/name

  1024-0-0/w STRC        r     1 ALA_E$ASUSER_ERR
  1033-0-0/w STRC        r     1 ALA_E$BLANK_ACCT_UNAME
  1025-0-0/w STRC        r     1 ALA_E$DSUSER_ERR        1030-0-0/w STRC        r     1 ALA_E$MAXC_EXCEEDED
  1032-0-0/w STRC        r     1 ALA_E$NO_MASTER         1031-0-0/w STRC        r     1 ALA_E$PMAXC_EXCEEDED
  1034-0-0/w STRC        r     1 ALA_E$SETUP_FORCED      1026-0-0/w STRC        r     1 ALA_E$USERS_FILE_ERR
  1027-0-0/w STRC        r     1 ALA_E$WRITE_S_ERR       1252-0-0/d STRC(504)   r     1 CFPT_CMDVAR
     1-0-0/w STRC(18576) r     1 DF_USERS                   0-0-0/w UBIN(18)    r     1 FCG
  1036-0-0/d STRC(504)   r     1 FPT_CPLOGOFF            1224-0-0/d STRC(360)   r     1 FPT_OCMSG
  1072-0-0/d STRC(2088)  r     1 FPT_OPEN_UC             1164-0-0/d STRC(360)   r     1 FPT_PROMPT_RESET
  1176-0-0/d STRC(360)   r     1 FPT_PROMPT_SUSYNDMES    1054-0-0/d STRC(504)   r     1 FPT_READ_SUSMES
  1236-0-0/d STRC(360)   r     1 FPT_TRAP                1210-0-0/d STRC(432)   r     1 FPT_WRITE_SUSMES
  1274-0-0/c STRC(180)   r     1 LFC_VLP                 1270-0-0/c STRC(144)   r     1 LLT_VLP
  1016-0-0/w STRC(189)   r     1 NO_MACCOUNT             1005-0-0/c CHAR(24)    r     1 SUSMES
  1013-0-0/c CHAR(10)    r     1 SUSYNDMES

  ****  Auto variables  ****

  ****  Scalars and arrays  ****
OctLoc.c.b A Datatyp(siz) R M Lvl/name                 OctLoc.c.b A Datatyp(siz) R M Lvl/name

  1125-0-0/w STRC(252)   r     1 AL$LLT_TSTAMP           1116-0-0/w STRC(252)   r     1 AL$TSTAMP
  1113-0-0/c CHAR(8)     r     1 AL_ACCT                 1036-0-0/w UBIN        r     1 ARS
     3-0-0/w STRC(18576) r     1 AS_USERS                1240-0-0/c STRC(99)    r     1 BAD_CNT_BUF
  1227-0-0/c CHAR(10)    r     1 BAD_CNT_CHAR            1240-0-0/w UBIN        r     1 CNT
  1106-0-0/c CHAR(8)     r     1 CP_ACCT                 1134-0-0/w STRC(972)   r     1 CP_LIMREC
  1076-0-0/c STRC(288)   r     1 CP_NAME                 1110-0-0/c CHAR(8)     r     1 CP_PASSW
  1075-0-0/b BIT         r     1 CP_SLEAZE_SET           1053-0-0/w PTR         r     1 DCB$
  1225-0-0/w STRC(369)   r     1 ERR_BUF                 1112-0-0/b STRC        r     1 ERR_CODE
  2233-0-0/c STRC(369)   r     1 FIELD1                  2246-0-0/c STRC(369)   r     1 FIELD2
  1170-0-0/d STRC(504)   r     1 FPT$CPEXIT              1206-0-0/d STRC(504)   r     1 FPT$READ_SUSMES
PL6.E3A0      #001=ALA$LOGON File=ALA$LOGON.:E05TSI                              TUE 07/29/97 08:27 Page:127
  1246-0-0/d STRC(504)   r     1 FPT_CMDVAR              1056-0-0/w UBIN        r     1 I
  1225-0-0/w UBIN        r     1 I                       1225-0-0/w UBIN        r     1 I
  1054-0-0/w PTR         r     1 KEY$                    1045-0-0/c STRC(189)   r     1 LIMIT_KEY
  1065-0-0/c STRC(189)   r     1 MASTER_ACCT             1226-0-0/w UBIN        r     1 MAX
  1074-0-0/w UBIN        r     1 MODE                    1064-0-0/w BIT         r     1 NOHEADER
  1063-0-0/w BIT         r     1 NOSETUP                 1226-0-0/w UBIN        r     1 POS
  1033-0-0/c CHAR(10)    r     1 SUSMES_ANS              1115-0-0/b BIT         r     1 SYS_GHOST
  1225-0-0/w STRC(18576) r     1 T$USERS                 1243-0-0/c CHAR(6)     r     1 TBUF
  2231-0-0/w SBIN        r     1 TEMP                    1062-0-0/w BIT         r     1 TEMP_BIT
  1055-0-0/w PTR         r     1 TEXT$                   1232-0-0/w STRC(189)   r     1 TMDATE
  1057-0-0/w SBIN        r     1 UMAX                    1037-0-0/c STRC(189)   r     1 USERS_KEY

  ****  SYMREF variables  ****

  ****  Scalars and arrays  ****
OctLoc.c.b A Datatyp(siz) R M Lvl/name                 OctLoc.c.b A Datatyp(siz) R M Lvl/name

     0-0-0/c CHAR        r     1 AL_BLANK                   0-0-0/w UBIN        r     1 AL_DCB2#
     0-0-0/b BIT         r     1 AL_FALSE                   0-0-0/b BIT         r     1 AL_TRUE
     0-0-0/w PTR         r     1 B$JIT$                     0-0-0/w PTR         r     1 B$SR_NON_ZERO$
     0-0-0/w PTR         r     1 B$XL_LOWER_UR$             0-0-0/c CHAR(8)     r     1 DF_CP_ACCT
     0-0-0/c STRC(288)   r     1 DF_CP_NAME                 0-0-0/c CHAR(8)     r     1 DF_CP_PASS

  ****  BASED and DCB variables  ****

  ****  Scalars and arrays  ****
OctLoc.c.b A Datatyp(siz) R M Lvl/name                 OctLoc.c.b A Datatyp(siz) R M Lvl/name

     0-0-0/d STRC(8856)  r     1 B$JIT                      0-0-0/d STRC(4608)  r     1 B$SR_NON_ZERO
     0-0-0/d STRC(4608)  r     1 B$XL_LOWER_UR              0-0-0/d ASTR(3528)  r     1 F$DCB
     0-0-0N  NULL        r     1 M$UC                       0-0-0/c ASTR(9)     r     1 TEXT$C


   Procedure ALA$LOGON requires 1172 words for executable code.
   Procedure ALA$LOGON requires 1208 words of local(AUTO) storage.
PL6.E3A0      #001=ALA$LOGON File=ALA$LOGON.:E05TSI                              TUE 07/29/97 08:27 Page:128
          *** CROSS REFERENCE LISTING ***
**     DENOTES     IDENTIFIER DEFINITION
<<                 IDENTIFIER'S VALUE SET
>>                 IDENTIFIER'S VALUE USED
<>                 IDENTIFIER SET AND/OR USED
--                 IDENTIFIER REFERENCED
PL6.E3A0      #001=ALA$LOGON File=ALA$LOGON.:E05TSI                              TUE 07/29/97 08:27 Page:129
          MINI XREF LISTING

AL$LLT_TSTAMP
      6233**DCL      7581<>CALL
AL$LLT_TSTAMP.DATE
      6237**DCL      7589>>ASSIGN
AL$LLT_TSTAMP.DAY
      6236**DCL      7585>>ASSIGN
AL$LLT_TSTAMP.TIME
      6235**DCL      7583>>ASSIGN
AL$LLT_TSTAMP.UTS
      6234**DCL      7580<<ASSIGN
AL$TSTAMP
      6224**DCL      6719<>CALL     6959<>CALL
AL$TSTAMP.UTS
      6225**DCL      6718<<ASSIGN   6950>>ASSIGN
ALA$BANNER2_STAR_S
      6679**DCL-ENT  6945--CALL
ALA$CLOSE_STAR
      6691**DCL-ENT  6913--CALL     6948--CALL
ALA$CPEXIT
      6684**DCL-ENT  6742--CALL     6805--CALL     6961--CALL     6975--CALL     6977--CALL     6989--CALL
      6991--CALL     7005--CALL     7007--CALL     7389--CALL     7391--CALL     7397--CALL
ALA$ERROR
      6685**DCL-ENT  6753--CALL     6760--CALL     6804--CALL     6971--CALL     7002--CALL     7223--CALL
      7247--CALL     7264--CALL     7316--CALL     7383--CALL
ALA$GETSTARS
      6692**DCL-ENT  6910--CALL
ALA$GETUSERS
      6682**DCL-ENT  6810--CALL
ALA$HEADING
      6687**DCL-ENT  6959--CALL
ALA$OPEN_STAR_A
      6689**DCL-ENT  6911--CALL
PL6.E3A0      #001=ALA$LOGON File=ALA$LOGON.:E05TSI                              TUE 07/29/97 08:27 Page:130
ALA$OPEN_STAR_S
      6690**DCL-ENT  6915--CALL
ALA$OPEN_USERS
      6678**DCL-ENT  6811--CALL
ALA$READ_USERS
      6681**DCL-ENT  6812--CALL     7234--CALL
ALA$SYS_ERROR
      6697**DCL-ENT  6970--CALL     6982--CALL
ALA$TIME
      6688**DCL-ENT  6719--CALL     7581--CALL
ALA$TRAP
      6696**DCL-ENT  6662--DCLINIT  6662--DCLINIT  6663--DCLINIT  6663--DCLINIT
ALA$WRITE_STAR
      6693**DCL-ENT  6937--CALL
ALA$WRITE_USERS
      6694**DCL-ENT  6954--CALL
ALA$YESNOD
      6695**DCL-ENT  6736--CALL
ALA_E$ASUSER_ERR
      5508**DCL      6753<>CALL
ALA_E$BLANK_ACCT_UNAME
      5824**DCL      6804<>CALL
ALA_E$DSUSER_ERR
      5553**DCL      6760<>CALL
ALA_E$MAXC_EXCEEDED
      5688**DCL      7223<>CALL
ALA_E$NO_MASTER
      5778**DCL      7264<>CALL
ALA_E$PMAXC_EXCEEDED
      5733**DCL      7247<>CALL
ALA_E$SETUP_FORCED
      5870**DCL      7316<>CALL
ALA_E$USERS_FILE_ERR
      5598**DCL      6971<>CALL
ALA_E$WRITE_S_ERR
      5643**DCL      7002<>CALL
PL6.E3A0      #001=ALA$LOGON File=ALA$LOGON.:E05TSI                              TUE 07/29/97 08:27 Page:131
AL_ACCT
      6217**DCL      6715<<ASSIGN   6911<>CALL     6915<>CALL
AL_BLANK
      5196**DCL      6733>>ASSIGN   6800>>IF       6807>>CALLBLT  7242>>CALLBLT  7352>>CALLBLT  7582>>ASSIGN
AL_DCB2#
      5211**DCL      6937<>CALL     6945<>CALL
AL_FALSE
      5198**DCL      6780>>ASSIGN   6784>>ASSIGN
AL_TRUE
      5197**DCL      6778>>ASSIGN   6788>>ASSIGN
ARS
      6097**DCL      6735<<ASSIGN   6736<>CALL     6935<<ASSIGN   6937<>CALL
ASUSER_ALT
      6740**LABEL    6741--CALLALT
AS_USERS
      5930**DCL      6789<<ASSIGN   6812<>CALL     6944--ASSIGN   6954<>CALL     7231>>ASSIGN
AS_USERS.BAD_LOGON_CNT
      6072**DCL      7622<<ASSIGN
AS_USERS.BANNER_PERM
      6045**DCL      6046--REDEF
AS_USERS.BILL
      5969**DCL      6956>>ASSIGN
AS_USERS.BUDGET.ACCUM
      5940**DCL      7217>>ASSIGN
AS_USERS.BUDGET.BKACC
      5957**DCL      7218>>IF
AS_USERS.BUDGET.BLINDACCTNG
      5961**DCL      6840>>ASSIGN
AS_USERS.BUDGET.BUDLIM
      5958**DCL      7226>>IF       7250>>IF       7254>>IF
AS_USERS.BUDGET.ICHARGES
      5960**DCL      7215>>IF
AS_USERS.BUDGET.MACCT
      5950**DCL      5954--REDEF    7232>>ASSIGN
AS_USERS.BUDGET.MAXC
      5939**DCL      7215>>IF       7217>>ASSIGN
PL6.E3A0      #001=ALA$LOGON File=ALA$LOGON.:E05TSI                              TUE 07/29/97 08:27 Page:132
AS_USERS.BUDGET.MAX_PROJECTS
      5963**DCL      5966--REDEF
AS_USERS.BUDGET.PACCUM
      5946**DCL      5948--REDEF
AS_USERS.BUDGET.PMAXC
      5941**DCL      5943--REDEF
AS_USERS.CPROC.NAME
      5999**DCL      7275>>ASSIGN
AS_USERS.CPROC.NAME.CNT
      6000**DCL      7272>>IF
AS_USERS.DDO
      5982**DCL      6853>>ASSIGN
AS_USERS.DEXP
      6019**DCL      6863>>ASSIGN
AS_USERS.DFPOOLS
      5990**DCL      6862>>ASSIGN
AS_USERS.DLO
      5980**DCL      6849>>ASSIGN
AS_USERS.DMEM
      6030**DCL      6894>>ASSIGN
AS_USERS.DMPRIO
      5992**DCL      6866>>ASSIGN
AS_USERS.DPDIS
      5986**DCL      6865>>ASSIGN
AS_USERS.DPO
      5984**DCL      6857>>ASSIGN
AS_USERS.DTDIS
      5988**DCL      6861>>ASSIGN
AS_USERS.DTIME
      6027**DCL      6893>>ASSIGN
AS_USERS.FLAGS.STARSACC
      6022**DCL      6873>>IF
AS_USERS.HPSN
      5995**DCL      6842>>ASSIGN
AS_USERS.KEY
      5970**DCL      6868>>ASSIGN
PL6.E3A0      #001=ALA$LOGON File=ALA$LOGON.:E05TSI                              TUE 07/29/97 08:27 Page:133
AS_USERS.LASTCPROC.NAME.CNT
      6005**DCL      6846>>IF
AS_USERS.LAST_LOGON_TIME
      6070**DCL      7621<<ASSIGN
AS_USERS.LOGINS.BAD_LOGON_CNT
      6080**DCL      7605>>CALLBLT  7624<<ASSIGN
AS_USERS.LOGINS.LAST_LOGON_TIME
      6078**DCL      7580>>ASSIGN   7623<<ASSIGN
AS_USERS.MAXENQ
      6085**DCL      6832>>IF       6832>>ASSIGN
AS_USERS.MDO
      5981**DCL      6854>>IF       6924>>ASSIGN
AS_USERS.MEXP
      6018**DCL      6864>>ASSIGN
AS_USERS.MFPOOLS
      5989**DCL      6930>>ASSIGN
AS_USERS.MLO
      5979**DCL      6850>>IF       6920>>ASSIGN
AS_USERS.MMEM
      6029**DCL      6918>>ASSIGN
AS_USERS.MMPRIO
      5991**DCL      6867>>ASSIGN
AS_USERS.MPDIS
      5985**DCL      6928>>ASSIGN
AS_USERS.MPO
      5983**DCL      6858>>IF       6922>>ASSIGN
AS_USERS.MTDIS
      5987**DCL      6926>>ASSIGN
AS_USERS.NAT_LANG
      5933**DCL      6877>>ASSIGN
AS_USERS.OUTPUTPRIO
      5972**DCL      6878>>ASSIGN
AS_USERS.PPRIV
      6009**DCL      6829>>ASSIGN
AS_USERS.PRIOB
      6017**DCL      6830>>ASSIGN
PL6.E3A0      #001=ALA$LOGON File=ALA$LOGON.:E05TSI                              TUE 07/29/97 08:27 Page:134
AS_USERS.PRIV
      6008**DCL      6821>>ASSIGN
AS_USERS.QUAN
      6015**DCL      6831>>ASSIGN
AS_USERS.RESL.BMAX
      6040**DCL      7423>>ASSIGN
AS_USERS.RESL.GMAX
      6041**DCL      7425>>ASSIGN
AS_USERS.RESL.OMAX
      6042**DCL      6896>>DOCASE   7421>>ASSIGN
AS_USERS.RESL.RNAME
      6039**DCL      7416>>IF
AS_USERS.RESL.TMAX
      6043**DCL      7427>>ASSIGN
AS_USERS.SETUP
      6057**DCL      7293>>IF       7300>>ASSIGN
AS_USERS.SETUP_CHRA.TXT
      6061**DCL      6062--REDEF    6063--REDEF    7300--ASSIGN
AS_USERS.SETUP_FORCE
      6047**DCL      7307>>IF
AS_USERS.STEPACCNT
      5934**DCL      6869>>IF
AS_USERS.TOT_TYPES
      6037**DCL      7415>>DOINDEX
B$JIT.ACCN
      3368**DCL      6715>>ASSIGN   6799>>CALLBLT
B$JIT.BILL
      3516**DCL      6956<<ASSIGN
B$JIT.BLINDACCTNG
      3516**DCL      6782>>ASSIGN   6840<<ASSIGN   6957>>ASSIGN   6958<<ASSIGN   6960<<ASSIGN
B$JIT.BUDLIM
      3505**DCL      7213<<ASSIGN   7254<<ASSIGN
B$JIT.CCARS
      3456**DCL      7301<<ASSIGN
B$JIT.CCBUF
      3456**DCL      7303<<ASSIGN
PL6.E3A0      #001=ALA$LOGON File=ALA$LOGON.:E05TSI                              TUE 07/29/97 08:27 Page:135
B$JIT.CCDISP
      3456**DCL      7302<<ASSIGN
B$JIT.CLRES
      3635**DCL      7414<<ASSIGN   7431<<ASSIGN   7435<<ASSIGN   7436<<ASSIGN   7440<<ASSIGN
B$JIT.CPFLAGS1
      3457**DCL      6765<<ASSIGN   6765>>ASSIGN   6785>>IF       6787<<ASSIGN   6787>>ASSIGN   6820<<ASSIGN
      6820>>ASSIGN   6843>>IF       6847<<ASSIGN   6847>>ASSIGN   6871<<ASSIGN   6871>>ASSIGN   6874<<ASSIGN
      6874>>ASSIGN   6942>>IF       7296<<ASSIGN   7296>>ASSIGN   7304<<ASSIGN   7304>>ASSIGN   7319<<ASSIGN
      7319>>ASSIGN
B$JIT.CPFLAGS1.SLEAZE
      3462**DCL      3462--REDEF
B$JIT.CSLEV
      3523**DCL      6834<<ASSIGN
B$JIT.DEFEXP
      3536**DCL      6863<<ASSIGN
B$JIT.DEFPRI
      3516**DCL      6866<<ASSIGN
B$JIT.ERR.MID
      3369**DCL      3369--REDEF
B$JIT.FBUL
      3528**DCL      6862<<ASSIGN   6931>>ASSIGN
B$JIT.HPSN
      3536**DCL      6842<<ASSIGN
B$JIT.JRESPEAK
      3530**DCL      3531--REDEF
B$JIT.JSLEV
      3505**DCL      6795<<ASSIGN   6881<<ASSIGN   6887<<ASSIGN   6889<<ASSIGN   6891<<ASSIGN
B$JIT.LANG
      3504**DCL      6877<<ASSIGN
B$JIT.LOCK
      3517**DCL      6783>>ASSIGN   6868<<ASSIGN
B$JIT.LOGONTIME
      3505**DCL      6718>>ASSIGN   6950<<ASSIGN   7621>>ASSIGN   7623>>ASSIGN
B$JIT.MAXCORE
      3529**DCL      6894<<ASSIGN   6895>>ASSIGN   6919>>ASSIGN
B$JIT.MAXENQ
PL6.E3A0      #001=ALA$LOGON File=ALA$LOGON.:E05TSI                              TUE 07/29/97 08:27 Page:136
      3641**DCL      6832<<ASSIGN
B$JIT.MAXEXP
      3536**DCL      6864<<ASSIGN
B$JIT.MAXPRI
      3516**DCL      6867<<ASSIGN
B$JIT.MAXTMPDP
      3537**DCL      6861<<ASSIGN   6927>>ASSIGN
B$JIT.MODE
      3363**DCL      6714>>ASSIGN
B$JIT.MRT
      3542**DCL      6893<<ASSIGN   6932>>ASSIGN   6933>>ASSIGN
B$JIT.NODOEVER
      3635**DCL      6855<<ASSIGN   6856<<ASSIGN
B$JIT.NOLOEVER
      3635**DCL      6851<<ASSIGN   6852<<ASSIGN
B$JIT.NOPOEVER
      3635**DCL      6859<<ASSIGN   6860<<ASSIGN
B$JIT.OLTA
      3636**DCL      6882<<ASSIGN   6898<<ASSIGN   6900<<ASSIGN   6902<<ASSIGN
B$JIT.ORIGINATOR_PORT.FROM_CR
      3639**DCL      3639--REDEF    3640--REDEF
B$JIT.OUTPRIO
      3449**DCL      6878<<ASSIGN
B$JIT.PNR
      3543**DCL      3543--REDEF
B$JIT.PPRIV
      3424**DCL      6829<<ASSIGN
B$JIT.PRDPRM
      3537**DCL      6865<<ASSIGN   6929>>ASSIGN
B$JIT.PRIOB
      3541**DCL      6830<<ASSIGN
B$JIT.PRIV.ACTIVE
      3369**DCL      6825<<ASSIGN
B$JIT.PRIV.AUTH
      3409**DCL      6821<<ASSIGN   6823<<ASSIGN   6823>>ASSIGN
B$JIT.PRIV.JOB
PL6.E3A0      #001=ALA$LOGON File=ALA$LOGON.:E05TSI                              TUE 07/29/97 08:27 Page:137
      3412**DCL      6826<<ASSIGN
B$JIT.PRIV.PRC
      3416**DCL      6827<<ASSIGN
B$JIT.PSLEV
      3505**DCL      6794<<ASSIGN   6876<<ASSIGN
B$JIT.QUAN
      3541**DCL      6831<<ASSIGN
B$JIT.REMCPO
      3641**DCL      6857<<ASSIGN   6923>>ASSIGN
B$JIT.REMDO
      3641**DCL      6853<<ASSIGN   6925>>ASSIGN
B$JIT.REMLO
      3641**DCL      6849<<ASSIGN   6921>>ASSIGN
B$JIT.RESCORE
      3637**DCL      6895<<ASSIGN
B$JIT.SSLEV
      3505**DCL      6793<<ASSIGN   6875<<ASSIGN
B$JIT.TSLINE
      3637**DCL      3638--REDEF
B$JIT.UNAME
      3368**DCL      6799>>CALLBLT  6807>>CALLBLT
B$JIT.USER
      3368**DCL      6776>>IF
B$JIT.USRERR.CODE
      3504**DCL      6771>>IF
B$JIT$
      5212**DCL      3363--IMP-PTR  6714>>ASSIGN   6715>>ASSIGN   6718>>ASSIGN   6765>>ASSIGN   6765>>ASSIGN
      6771>>IF       6776>>IF       6782>>ASSIGN   6783>>ASSIGN   6785>>IF       6787>>ASSIGN   6787>>ASSIGN
      6793>>ASSIGN   6794>>ASSIGN   6795>>ASSIGN   6799>>CALLBLT  6799>>CALLBLT  6807>>CALLBLT  6820>>ASSIGN
      6820>>ASSIGN   6821>>ASSIGN   6823>>ASSIGN   6823>>ASSIGN   6825>>ASSIGN   6826>>ASSIGN   6827>>ASSIGN
      6829>>ASSIGN   6830>>ASSIGN   6831>>ASSIGN   6832>>ASSIGN   6834>>ASSIGN   6840>>ASSIGN   6842>>ASSIGN
      6843>>IF       6847>>ASSIGN   6847>>ASSIGN   6849>>ASSIGN   6851>>ASSIGN   6852>>ASSIGN   6853>>ASSIGN
      6855>>ASSIGN   6856>>ASSIGN   6857>>ASSIGN   6859>>ASSIGN   6860>>ASSIGN   6861>>ASSIGN   6862>>ASSIGN
      6863>>ASSIGN   6864>>ASSIGN   6865>>ASSIGN   6866>>ASSIGN   6867>>ASSIGN   6868>>ASSIGN   6871>>ASSIGN
      6871>>ASSIGN   6874>>ASSIGN   6874>>ASSIGN   6875>>ASSIGN   6876>>ASSIGN   6877>>ASSIGN   6878>>ASSIGN
      6881>>ASSIGN   6882>>ASSIGN   6887>>ASSIGN   6889>>ASSIGN   6891>>ASSIGN   6893>>ASSIGN   6894>>ASSIGN
PL6.E3A0      #001=ALA$LOGON File=ALA$LOGON.:E05TSI                              TUE 07/29/97 08:27 Page:138
      6895>>ASSIGN   6895>>ASSIGN   6898>>ASSIGN   6900>>ASSIGN   6902>>ASSIGN   6919>>ASSIGN   6921>>ASSIGN
      6923>>ASSIGN   6925>>ASSIGN   6927>>ASSIGN   6929>>ASSIGN   6931>>ASSIGN   6932>>ASSIGN   6933>>ASSIGN
      6942>>IF       6950>>ASSIGN   6956>>ASSIGN   6957>>ASSIGN   6958>>ASSIGN   6960>>ASSIGN   7213>>ASSIGN
      7254>>ASSIGN   7296>>ASSIGN   7296>>ASSIGN   7301>>ASSIGN   7302>>ASSIGN   7303>>ASSIGN   7304>>ASSIGN
      7304>>ASSIGN   7319>>ASSIGN   7319>>ASSIGN   7414>>ASSIGN   7431>>ASSIGN   7435>>ASSIGN   7436>>ASSIGN
      7440>>ASSIGN   7621>>ASSIGN   7623>>ASSIGN
B$SR_NON_ZERO
      5909**DCL      7606>>CALLBLT
B$SR_NON_ZERO$
      5908**DCL      5909--IMP-PTR  7606>>CALLBLT
B$XL_LOWER_UR
      5905**DCL      7586>>CALLBLT  7590>>CALLBLT
B$XL_LOWER_UR$
      5904**DCL      5905--IMP-PTR  7586>>CALLBLT  7590>>CALLBLT
BAD_CNT_BUF IN PROCEDURE SET_LAST_LOGON_TIME
      7466**DCL      7615--ASSIGN
BAD_CNT_BUF.CNT IN PROCEDURE SET_LAST_LOGON_TIME
      7467**DCL      7609<<ASSIGN
BAD_CNT_BUF.TEXT IN PROCEDURE SET_LAST_LOGON_TIME
      7468**DCL      7610<<ASSIGN
BAD_CNT_CHAR IN PROCEDURE SET_LAST_LOGON_TIME
      7456**DCL      7605<<CALLBLT  7606>>CALLBLT  7610>>ASSIGN
BUDGET
      7009**PROC     6836--CALL
BUDGET_ERR
      6973**LABEL    6836--CALLALT
CFPT_CMDVAR IN PROCEDURE SET_LAST_LOGON_TIME
      7488**DCL      7595>>ASSIGN   7612>>ASSIGN
CFPT_CMDVAR.V IN PROCEDURE SET_LAST_LOGON_TIME
      7490**DCL      7488--DCLINIT
CLOSE_A_ERR
      6994**LABEL    6913--CALLALT
CLOSE_A_OK
      6909**LABEL    6994--GOTO
CLOSE_S_ERR
      6996**LABEL    6948--CALLALT
PL6.E3A0      #001=ALA$LOGON File=ALA$LOGON.:E05TSI                              TUE 07/29/97 08:27 Page:139
CLOSE_S_OK
      6942**LABEL    6996--GOTO
CLRES
      7401**PROC     6906--CALL
CNT IN PROCEDURE CP_NO_EXISTS
      7339**DCL      7352<<CALLBLT  7354>>ASSIGN
CPROC
      7270**PROC     6844--CALL
CP_ACCT
      6211**DCL      6768--ASSIGN   6791<<ASSIGN   7276<<ASSIGN   7282<<ASSIGN   7348<<ASSIGN   7352>>CALLBLT
      7356>>CALLBLT  7359>>IF       7395<<ASSIGN
CP_LIMREC
      6241**DCL      6917<<ASSIGN   6935--ASSIGN   6936--ASSIGN
CP_LIMREC.CUR_MAX.FBUL
      6254**DCL      6931<<ASSIGN
CP_LIMREC.CUR_MAX.MAXCORE
      6253**DCL      6919<<ASSIGN
CP_LIMREC.CUR_MAX.MAXTMPDP
      6259**DCL      6927<<ASSIGN
CP_LIMREC.CUR_MAX.MRT
      6260**DCL      6933<<ASSIGN
CP_LIMREC.CUR_MAX.PRDPRM
      6258**DCL      6929<<ASSIGN
CP_LIMREC.CUR_MAX.REMCPO
      6256**DCL      6923<<ASSIGN
CP_LIMREC.CUR_MAX.REMDO
      6257**DCL      6925<<ASSIGN
CP_LIMREC.CUR_MAX.REMLO
      6255**DCL      6921<<ASSIGN
CP_LIMREC.USER_MAX.FBUL
      6244**DCL      6930<<ASSIGN
CP_LIMREC.USER_MAX.MAXCORE
      6243**DCL      6918<<ASSIGN
CP_LIMREC.USER_MAX.MAXTMPDP
      6249**DCL      6926<<ASSIGN
CP_LIMREC.USER_MAX.MRT
PL6.E3A0      #001=ALA$LOGON File=ALA$LOGON.:E05TSI                              TUE 07/29/97 08:27 Page:140
      6250**DCL      6932<<ASSIGN
CP_LIMREC.USER_MAX.PRDPRM
      6248**DCL      6928<<ASSIGN
CP_LIMREC.USER_MAX.REMCPO
      6246**DCL      6922<<ASSIGN
CP_LIMREC.USER_MAX.REMDO
      6247**DCL      6924<<ASSIGN
CP_LIMREC.USER_MAX.REMLO
      6245**DCL      6920<<ASSIGN
CP_NAME
      6209**DCL      6767--ASSIGN   6790<<ASSIGN   7275<<ASSIGN   7281<<ASSIGN   7347<<ASSIGN   7359>>IF
      7394<<ASSIGN
CP_NAME.L#
      6209**DCL      7354>>ASSIGN   7356>>CALLBLT
CP_NAME.NAME#
      6209**DCL      7350>>ASSIGN
CP_NO_EXISTS
      7329**PROC     6773--CALL
CP_PASSW
      6212**DCL      6769--ASSIGN   6792<<ASSIGN   7277<<ASSIGN   7283<<ASSIGN   7396<<ASSIGN
CP_SLEAZE_SET
      6124**DCL      6784<<ASSIGN   6788<<ASSIGN   6951>>IF
DCB$
      6108**DCL      6713<<ASSIGN   6723>>IF       6735>>ASSIGN
DF_CP_ACCT
      5204**DCL      6791>>ASSIGN   7359>>IF       7395>>ASSIGN
DF_CP_NAME
      5200**DCL      6790>>ASSIGN   7281>>ASSIGN   7359>>IF       7394>>ASSIGN
DF_CP_PASS
      5206**DCL      6792>>ASSIGN   7396>>ASSIGN
DF_USERS
      5325**DCL      6789>>ASSIGN
DF_USERS.BANNER_PERM
      5440**DCL      5441--REDEF
DF_USERS.BUDGET.MACCT
      5345**DCL      5349--REDEF
PL6.E3A0      #001=ALA$LOGON File=ALA$LOGON.:E05TSI                              TUE 07/29/97 08:27 Page:141
DF_USERS.BUDGET.MAX_PROJECTS
      5358**DCL      5361--REDEF
DF_USERS.BUDGET.PACCUM
      5341**DCL      5343--REDEF
DF_USERS.BUDGET.PMAXC
      5336**DCL      5338--REDEF
DF_USERS.SETUP_CHRA.TXT
      5456**DCL      5457--REDEF    5458--REDEF
DO_STARS
      6909**LABEL    6796--GOTO
DSUSER_ALT
      6756**LABEL    6747--CALLALT
ERR_BUF.CNT IN PROCEDURE CP_NO_EXISTS
      7337**DCL      7354<<ASSIGN   7383<>CALL
ERR_BUF.TEXT IN PROCEDURE CP_NO_EXISTS
      7338**DCL      7350<<ASSIGN   7356<<CALLBLT
ERR_CODE
      6213**DCL      6937<>CALL     6945<>CALL     7383<>CALL
ERR_CODE.CODE
      6215**DCL      7362<<ASSIGN   7367<<ASSIGN   7385>>IF
ERR_CODE.FCG_MID
      6214**DCL      7370<<ASSIGN
ERR_CODE.SEV
      6216**DCL      7363<<ASSIGN   7368<<ASSIGN
F$DCB.ACCT#
      6142**DCL      7348>>ASSIGN
F$DCB.ACTPOS
      6158**DCL      6158--REDEF
F$DCB.ARS#
      6132**DCL      6132--REDEF    6735>>ASSIGN
F$DCB.ASN#
      6147**DCL      6723>>IF
F$DCB.ATTR
      6151**DCL      6152--REDEF
F$DCB.BORROW
      6166**DCL      6166--REDEF    6166--REDEF    6166--REDEF
PL6.E3A0      #001=ALA$LOGON File=ALA$LOGON.:E05TSI                              TUE 07/29/97 08:27 Page:142
F$DCB.DCBNAME.L
      6180**DCL      6180--IMP-SIZ
F$DCB.EOMCHAR#
      6136**DCL      6136--REDEF
F$DCB.FLDID
      6161**DCL      6161--REDEF
F$DCB.FORM$
      6155**DCL      6155--REDEF
F$DCB.FSECT
      6171**DCL      6171--REDEF
F$DCB.FSN#
      6148**DCL      6148--REDEF    6148--REDEF    6149--REDEF
F$DCB.HEADER$
      6154**DCL      6154--REDEF
F$DCB.IXTNSIZE#
      6152**DCL      6152--REDEF
F$DCB.LASTSTA$
      6141**DCL      6141--REDEF
F$DCB.LVL
      6167**DCL      6167--REDEF
F$DCB.NAME#
      6142**DCL      7347>>ASSIGN
F$DCB.NAME#.C
      6142**DCL      6142--REDEF
F$DCB.NOEOF
      6164**DCL      6164--REDEF
F$DCB.NRECS#
      6153**DCL      6153--REDEF
F$DCB.NRECX
      6172**DCL      6172--REDEF
F$DCB.OHDR
      6164**DCL      6164--REDEF
F$DCB.ORG#
      6147**DCL      6147--REDEF
F$DCB.PRECNO
      6170**DCL      6170--REDEF
PL6.E3A0      #001=ALA$LOGON File=ALA$LOGON.:E05TSI                              TUE 07/29/97 08:27 Page:143
F$DCB.RCSZ
      6176**DCL      6176--REDEF
F$DCB.RES#
      6143**DCL      6143--REDEF
F$DCB.SETX
      6155**DCL      6155--REDEF
F$DCB.TAB$
      6155**DCL      6155--REDEF
F$DCB.TDA
      6169**DCL      6170--REDEF
F$DCB.WSN#
      6143**DCL      6143--REDEF
FCG
      5309**DCL      7370>>ASSIGN
FIELD1 IN PROCEDURE BUDGET
      7202**DCL      7247<>CALL
FIELD1.CNT IN PROCEDURE BUDGET
      7203**DCL      7243<<ASSIGN
FIELD1.TXT IN PROCEDURE BUDGET
      7204**DCL      7244<<ASSIGN
FIELD2 IN PROCEDURE BUDGET
      7205**DCL      7247<>CALL
FIELD2.CNT IN PROCEDURE BUDGET
      7206**DCL      7245<<ASSIGN
FIELD2.TXT IN PROCEDURE BUDGET
      7207**DCL      7246<<ASSIGN
FPT$CPEXIT
      6299**DCL      6766<<ASSIGN   6961<>CALL     6975<>CALL     6989<>CALL     7005<>CALL     7389<>CALL
      7397<>CALL
FPT$CPEXIT.ACCT_
      6301**DCL      6768<<ASSIGN
FPT$CPEXIT.NAME_
      6301**DCL      6767<<ASSIGN
FPT$CPEXIT.PASS_
      6301**DCL      6769<<ASSIGN
FPT$CPEXIT.V
PL6.E3A0      #001=ALA$LOGON File=ALA$LOGON.:E05TSI                              TUE 07/29/97 08:27 Page:144
      6302**DCL      6770--ASSIGN
FPT$CPEXIT.V_
      6302**DCL      6770<<ASSIGN
FPT$READ_SUSMES
      6398**DCL      6729<<ASSIGN   6734<>CALL
FPT$READ_SUSMES.BUF_
      6400**DCL      6731<<ASSIGN
FPT$READ_SUSMES.STATION_
      6401**DCL      6402--REDEF
FPT$READ_SUSMES.V
      6402**DCL      6730--ASSIGN
FPT$READ_SUSMES.V.DVBYTE.REREAD#
      6413**DCL      6413--REDEF
FPT$READ_SUSMES.V.INDX#
      6411**DCL      6411--REDEF
FPT$READ_SUSMES.V_
      6398**DCL      6730<<ASSIGN
FPT_CMDVAR IN PROCEDURE SET_LAST_LOGON_TIME
      7506**DCL      7595<<ASSIGN   7600<>CALL     7612<<ASSIGN   7617<>CALL
FPT_CMDVAR.NAME_ IN PROCEDURE SET_LAST_LOGON_TIME
      7506**DCL      7597<<ASSIGN   7614<<ASSIGN
FPT_CMDVAR.V IN PROCEDURE SET_LAST_LOGON_TIME
      7508**DCL      7596--ASSIGN   7613--ASSIGN
FPT_CMDVAR.VALUE_ IN PROCEDURE SET_LAST_LOGON_TIME
      7506**DCL      7598<<ASSIGN   7615<<ASSIGN
FPT_CMDVAR.V_ IN PROCEDURE SET_LAST_LOGON_TIME
      7506**DCL      7596<<ASSIGN   7613<<ASSIGN
FPT_CPLOGOFF
      6326**DCL      6766>>ASSIGN
FPT_CPLOGOFF.V
      6329**DCL      6329--DCLINIT
FPT_OCMSG
      6641**DCL      6984<>CALL
FPT_OCMSG.V
      6642**DCL      6641--DCLINIT
FPT_OPEN_UC
PL6.E3A0      #001=ALA$LOGON File=ALA$LOGON.:E05TSI                              TUE 07/29/97 08:27 Page:145
      6487**DCL      6726<>CALL
FPT_OPEN_UC.ACSVEH_
      6489**DCL      6490--REDEF
FPT_OPEN_UC.ALTKEYS_
      6495**DCL      6496--REDEF    6496--REDEF
FPT_OPEN_UC.HDR_
      6494**DCL      6495--REDEF
FPT_OPEN_UC.TAB_
      6493**DCL      6494--REDEF
FPT_OPEN_UC.UHL_
      6487**DCL      6488--REDEF    6488--REDEF
FPT_OPEN_UC.V
      6496**DCL      6487--DCLINIT
FPT_OPEN_UC.V.FSN#
      6527**DCL      6527--REDEF    6527--REDEF
FPT_OPEN_UC.WSN_
      6493**DCL      6493--REDEF
FPT_PROMPT_RESET
      6547**DCL      6737<>CALL
FPT_PROMPT_RESET.V
      6555**DCL      6549--DCLINIT
FPT_PROMPT_SUSYNDMES
      6580**DCL      6728<>CALL
FPT_PROMPT_SUSYNDMES.V
      6588**DCL      6582--DCLINIT
FPT_READ_SUSMES
      6358**DCL      6729>>ASSIGN
FPT_READ_SUSMES.STATION_
      6361**DCL      6362--REDEF
FPT_READ_SUSMES.V
      6362**DCL      6358--DCLINIT
FPT_READ_SUSMES.V.DVBYTE.REREAD#
      6373**DCL      6373--REDEF
FPT_READ_SUSMES.V.INDX#
      6371**DCL      6371--REDEF
FPT_TRAP
PL6.E3A0      #001=ALA$LOGON File=ALA$LOGON.:E05TSI                              TUE 07/29/97 08:27 Page:146
      6661**DCL      6716<>CALL
FPT_TRAP.V
      6661**DCL      6661--DCLINIT
FPT_WRITE_SUSMES
      6613**DCL      6727<>CALL
FPT_WRITE_SUSMES.STATION_
      6615**DCL      6615--REDEF
FPT_WRITE_SUSMES.V
      6616**DCL      6613--DCLINIT
FPT_WRITE_SUSMES.V.DVBYTE.VFC#
      6622**DCL      6622--REDEF
FREECMD
      7291**PROC     6843--CALL
I
      6111**DCL      6807<<CALLBLT  6808>>ASSIGN   7242<<CALLBLT  7243>>ASSIGN
I IN PROCEDURE CLRES
      7407**DCL      7415<<DOINDEX  7416>>IF       7421>>ASSIGN   7423>>ASSIGN   7425>>ASSIGN   7427>>ASSIGN
I IN PROCEDURE SET_LAST_LOGON_TIME
      7454**DCL      7606<<CALLBLT
KEY$
      6109**DCL      6944<<ASSIGN   6945<>CALL
LFC_VLP IN PROCEDURE SET_LAST_LOGON_TIME
      7570**DCL      7614--ASSIGN
LIMIT_KEY
      6101**DCL      6937<>CALL
LIMIT_KEY.CNT
      6102**DCL      6711<<ASSIGN
LIMIT_KEY.TEXT
      6103**DCL      6712<<ASSIGN
LLT_VLP IN PROCEDURE SET_LAST_LOGON_TIME
      7540**DCL      7597--ASSIGN
M$ASUSER
      3776**DCL-ENT  6741--CALL
M$CMDVAR
      3830**DCL-ENT  7600--CALL     7617--CALL
M$DSUSER
PL6.E3A0      #001=ALA$LOGON File=ALA$LOGON.:E05TSI                              TUE 07/29/97 08:27 Page:147
      3776**DCL-ENT  6747--CALL
M$FSUSER
      3776**DCL-ENT  6725--CALL
M$OCMSG
      3825**DCL-ENT  6984--CALL
M$OPEN
      3761**DCL-ENT  6726--CALL
M$PROMPT
      3785**DCL-ENT  6728--CALL     6737--CALL
M$READ
      3762**DCL-ENT  6734--CALL
M$TRAP
      3815**DCL-ENT  6716--CALL
M$UC
      3785**DCL      6713--ASSIGN
M$WRITE
      3762**DCL-ENT  6727--CALL
MASTER_ACCT
      6118**DCL      7232<<ASSIGN   7233>>DOWHILE  7234<>CALL     7252<<ASSIGN
MASTER_ACCT.ACCT
      6120**DCL      7242>>CALLBLT  7244>>ASSIGN
MASTER_ACCT.CNT
      6119**DCL      7245>>ASSIGN
MASTER_ACCT.NAME
      6121**DCL      7246>>ASSIGN
MAX IN PROCEDURE CLRES
      7408**DCL      7421<<ASSIGN   7423<<ASSIGN   7425<<ASSIGN   7427<<ASSIGN   7429>>IF       7432>>IF
      7438>>IF
MODE
      6123**DCL      6714<<ASSIGN   6723>>IF       6821>>ASSIGN   6829>>ASSIGN   6830>>ASSIGN   6831>>ASSIGN
      6832>>IF       6832>>ASSIGN   6846>>IF       6849>>ASSIGN   6850>>IF       6853>>ASSIGN   6854>>IF
      6857>>ASSIGN   6858>>IF       6861>>ASSIGN   6862>>ASSIGN   6865>>ASSIGN   6866>>ASSIGN   6867>>ASSIGN
      6879>>IF       6885>>DOCASE   6893>>ASSIGN   6894>>ASSIGN   6918>>ASSIGN   6920>>ASSIGN   6922>>ASSIGN
      6924>>ASSIGN   6926>>ASSIGN   6928>>ASSIGN   6930>>ASSIGN   6956>>ASSIGN   7272>>IF       7275>>ASSIGN
      7293>>IF       7300>>ASSIGN   7307>>IF       7419>>DOCASE   7580>>ASSIGN   7605>>CALLBLT  7623>>ASSIGN
      7624>>ASSIGN
PL6.E3A0      #001=ALA$LOGON File=ALA$LOGON.:E05TSI                              TUE 07/29/97 08:27 Page:148
NOHEADER
      6117**DCL      6783<<ASSIGN   6958>>ASSIGN
NOSETUP
      6116**DCL      6782<<ASSIGN   7305>>IF
NOT_SUSPENDED
      6763**LABEL    6725--CALLALT
NO_MACCOUNT
      5492**DCL      7233>>DOWHILE
OPEN_A_ERR
      6993**LABEL    6911--CALLALT
OPEN_A_OK
      6909**LABEL    6993--GOTO
OPEN_S_ERR
      6995**LABEL    6915--CALLALT
OPEN_S_OK
      6909**LABEL    6995--GOTO
OPEN_USERS_ERR
      6973**LABEL    6811--CALLALT
POS IN PROCEDURE SET_LAST_LOGON_TIME
      7455**DCL      7606<<CALLBLT  7607<<ASSIGN   7609>>ASSIGN   7610>>ASSIGN
READ_ERR_MESS
      6960**LABEL    6726--CALLALT
READ_USERS_ERR
      6960**LABEL    6812--CALLALT  6954--CALLALT
READ_USERS_ERR IN PROCEDURE BUDGET
      7264**LABEL    7234--CALLALT
SET_LAST_LOGON_TIME
      7448**PROC     6953--CALL
SUSMES
      5490**DCL      6614--DCLINIT  6615--DCLINIT
SUSMES_ANS
      6096**DCL      6731--ASSIGN   6733<<ASSIGN   6736<>CALL     6738>>IF       6745>>IF
SUSYNDMES
      5491**DCL      6586--DCLINIT
SYS_GHOST
      6218**DCL      6778<<ASSIGN   6780<<ASSIGN   6973>>IF       6987>>IF       7003>>IF       7387>>IF
PL6.E3A0      #001=ALA$LOGON File=ALA$LOGON.:E05TSI                              TUE 07/29/97 08:27 Page:149
T$USERS IN PROCEDURE BUDGET
      7035**DCL      7231<<ASSIGN   7234<>CALL
T$USERS.BANNER_PERM IN PROCEDURE BUDGET
      7150**DCL      7151--REDEF
T$USERS.BUDGET.BKACC IN PROCEDURE BUDGET
      7062**DCL      7237>>IF
T$USERS.BUDGET.MACCT IN PROCEDURE BUDGET
      7055**DCL      7059--REDEF    7252>>ASSIGN
T$USERS.BUDGET.MAX_PROJECTS IN PROCEDURE BUDGET
      7068**DCL      7071--REDEF
T$USERS.BUDGET.PACCUM IN PROCEDURE BUDGET
      7051**DCL      7053--REDEF    7236>>ASSIGN
T$USERS.BUDGET.PCHARGES IN PROCEDURE BUDGET
      7064**DCL      7233>>DOWHILE
T$USERS.BUDGET.PMAXC IN PROCEDURE BUDGET
      7046**DCL      7048--REDEF    7235>>IF       7236>>ASSIGN
T$USERS.SETUP_CHRA.TXT IN PROCEDURE BUDGET
      7166**DCL      7167--REDEF    7168--REDEF
TBUF IN PROCEDURE SET_LAST_LOGON_TIME
      7469**DCL      7586<<CALLBLT  7587>>ASSIGN   7590<<CALLBLT  7591>>ASSIGN
TEMP IN PROCEDURE BUDGET
      7200**DCL      7217<<ASSIGN   7218>>IF       7226>>ASSIGN   7236<<ASSIGN   7237>>IF       7250>>ASSIGN
TEMP_BIT
      6115**DCL      6957<<ASSIGN   6960>>ASSIGN
TEXT$
      6110**DCL      6104--IMP-PTR  6936<<ASSIGN   6937<>CALL     7300<<ASSIGN   7301>>ASSIGN   7302>>ASSIGN
      7303>>ASSIGN   7303>>ASSIGN
TEXT$C.C
      6107**DCL      7303>>ASSIGN
TEXT$C.L
      6106**DCL      6107--IMP-SIZ  7301>>ASSIGN   7302>>ASSIGN   7303>>ASSIGN
TMDATE IN PROCEDURE SET_LAST_LOGON_TIME
      7457**DCL      7598--ASSIGN
TMDATE.BUFF IN PROCEDURE SET_LAST_LOGON_TIME
      7459**DCL      7465--REDEF
TMDATE.BUFF.DATE IN PROCEDURE SET_LAST_LOGON_TIME
PL6.E3A0      #001=ALA$LOGON File=ALA$LOGON.:E05TSI                              TUE 07/29/97 08:27 Page:150
      7464**DCL      7589<<ASSIGN   7590>>CALLBLT  7591<<ASSIGN
TMDATE.BUFF.DAY IN PROCEDURE SET_LAST_LOGON_TIME
      7462**DCL      7585<<ASSIGN   7586>>CALLBLT  7587<<ASSIGN
TMDATE.BUFF.TIME IN PROCEDURE SET_LAST_LOGON_TIME
      7460**DCL      7583<<ASSIGN
TMDATE.CNT IN PROCEDURE SET_LAST_LOGON_TIME
      7458**DCL      7593<<ASSIGN
TMDATE.RDEF_BUFF IN PROCEDURE SET_LAST_LOGON_TIME
      7465**DCL      7582<<ASSIGN
UMAX
      6112**DCL      7214<<ASSIGN   7226<<ASSIGN   7226>>ASSIGN   7250<<ASSIGN   7250>>ASSIGN   7254>>ASSIGN
USERS_KEY
      6098**DCL      6812<>CALL     6954<>CALL
USERS_KEY.CNT
      6099**DCL      6808<<ASSIGN
USERS_KEY.TEXT
      6100**DCL      6799<<CALLBLT  6800>>IF
WRITE_STAR_S_ERR
      6987**LABEL    6937--CALLALT  6945--CALLALT
YESNOD_ALT
      6731**LABEL    6734--CALLALT  6736--CALLALT

PL6.E3A0      #002=ALA$CPEXIT File=ALA$LOGON.:E05TSI                             TUE 07/29/97 08:29 Page:151
      851        1        /*T***********************************************************/
      852        2        /*T*                                                         */
      853        3        /*T* Copyright (c) Bull HN Information Systems Inc., 1997    */
      854        4        /*T*                                                         */
      855        5        /*T***********************************************************/
      856        6        ALA$CPEXIT: PROC(FPT$CPEXIT) ;
      857        7                                                              /**/
      858        8        %INCLUDE CP_6;
      859       89        %INCLUDE CP_6_SUBS ;
      860      629        %INCLUDE B_ERRORS_C;
      861     1756        %INCLUDE AL_PERR_C;
      862     1778        %INCLUDE B$JIT;
      863     2068        %INCLUDE AL_LOGON_R;
      864     2100        %F$DCB(DCBN=F$DCB);
      865     2157        %B$TCB;
      866     2160        %B$ALT;
      867     2168    1   DCL 1 MEM_STR ALIGNED,
      868     2169    1         2 LEN UBIN BYTE UNAL,
      869     2170    1         2 STR CHAR(3);
      870     2171    1   DCL ALA$ERROR ENTRY(4);
      871     2172    1   DCL ALA$CLOSE_USERS ENTRY ALTRET ;
      872     2173    1   DCL ALA$RELUSERS ENTRY ALTRET ;
      873     2174    1   DCL ALA$RELSTARS ENTRY ALTRET ;
      874     2175    1   DCL ALA$CLOSE_HLP ENTRY ALTRET ;
      875     2176                                                              /**/
      876     2177        %FPT_CPEXIT(  FPTN = FPT$CPEXIT ,
      877     2178                      STCLASS=" ") ;
      878     2204        %FPT_CPEXIT(  FPTN = FPT_CPLOGOFF ,
      879     2205                      STCLASS = SYMREF);
      880     2231        %VLP_ERRCODE( FPTN=ALA_E$LESMEM_ERR, FCG='AL',MID='A',MON='0'B,
      881     2232                      ERR#=E$LESMEM_ERR, SEV=0, STCLASS=CONSTANT );
      882     2277        %VLP_ERRCODE( FPTN=ERRCODE, STCLASS=AUTO );
      883     2322                                                              /**/
      884     2323    1         IF DCBADDR( AL_DCB1# ) ~= ADDR( NIL )
      885     2324    1         THEN
      886     2325    2         DO ;                                    /*   DID GET DCB.   */
      887     2326    2             CALL ALA$CLOSE_USERS ;
PL6.E3A0      #002=ALA$CPEXIT File=ALA$LOGON.:E05TSI                             TUE 07/29/97 08:29 Page:152
      888     2327    2             CALL ALA$RELUSERS ;                 /*    RELEASE M$USERS DCB.   */
      889     2328    2             END ;     /*   END THEN DO   */
      890     2329    1         IF DCBADDR( AL_DCB2# ) ~= ADDR( NIL )
      891     2330    1         THEN
      892     2331    1             CALL ALA$RELSTARS ;                 /*   RELEASE M$STARS DCB.   */
      893     2332    1         IF ADDR(FPT$CPEXIT)~=ADDR(NIL)
      894     2333    2         THEN DO;
      895     2334    2             CALL M$RACST ALTRET(RACST_ALT);
      896     2335    3             DO WHILE('0'B);
      897     2336    3   RACST_ALT:    ERRCODE = B$TCB$->B$TCB.ALT$->B$ALT.ERR;
      898     2337    3                 IF ERRCODE.ERR#=%E$LESMEM
      899     2338    3                         AND (B$JIT.MODE=%M_INT#
      900     2339    3                         OR (B$JIT.MODE=%M_GHOST#
      901     2340    3                         AND DCBADDR(DCBNUM(M$UC))->F$DCB.ASN#~=%DEVICE#))
      902     2341    4                 THEN DO;
      903     2342    4                     MEM_STR.LEN = 3;
      904     2343    4                     CALL BINCHAR(MEM_STR.STR,B$JIT.MAXCORE);
      905     2344    4                     CALL ALA$ERROR( ALA_E$LESMEM_ERR, MEM_STR );
      906     2345        /*E* ERROR:   ALA-E$LESMEM_ERR-C
      907     2346             MESSAGE: Cannot reserve your memory - Running you with %U1K!
      908     2347        */
      909     2348    4                     END;
      910     2349    4                 ELSE DO;
      911     2350    4                     CALL ALA$ERROR( ERRCODE );
      912     2351    4                     CALL M$CPEXIT(FPT_CPLOGOFF);
      913     2352    4                     END;
      914     2353    3                 END;
      915     2354    2             CALL M$CPEXIT(FPT$CPEXIT);
      916     2355    2             END;
      917     2356    1         ELSE
      918     2357    1             CALL M$CPEXIT(FPT_CPLOGOFF);
      919     2358    1   END   ALA$CPEXIT ;
      920     2359        %EOD ;

PL6.E3A0      #002=ALA$CPEXIT File=ALA$LOGON.:E05TSI                             TUE 07/29/97 08:29 Page:153
--  Include file information  --

   AL_LOGON_R.:E05TOU  cannot be made into a system file and is referenced.
   B$JIT.:E05TOU  cannot be made into a system file and is referenced.
   AL_PERR_C.:E05TOU  is referenced.
   B_ERRORS_C.:E05TOU  is referenced.
   CP_6_SUBS.:E05TOU  is referenced.
   CP_6.:E05TOU  cannot be made into a system file and is referenced.
   B$JIT_C.:E05TOU  was found in the system file and is referenced.
   CP_6_C.:E05TOU  was found in the system file and is referenced.
      No diagnostics issued in procedure ALA$CPEXIT.

   Procedure ALA$CPEXIT requires 88 words for executable code.
   Procedure ALA$CPEXIT requires 8 words of local(AUTO) storage.

PL6.E3A0      #002=ALA$CPEXIT File=ALA$LOGON.:E05TSI                             TUE 07/29/97 08:29 Page:154

 Object Unit name= ALA$CPEXIT                                 File name= ALA$LOGON.:E05TOU
 UTS= JUL 29 '97 08:29:08.48 TUE                              Compiler= PL-6/E31         Sev=      00
 SharedLib= :SHARED_SYSTEM                                    Alt SharedLib=


    ****  Control sections  ****

 Sect   Type Bound  Init  Size OctSiz  Section name(segment info)
    0   DCB   even  none     0      0  M$UC
    1  RoData even  UTS      1      1  ALA$CPEXIT
    2   Proc  even  none    88    130  ALA$CPEXIT
    3  RoData even  none     2      2  ALA$CPEXIT

    ****  Entry defs  ****

                              Check   Calling
                             calling  sequence
  Sect OctLoc Primary Altret sequence   type   Parms  Name
     2      0   yes            yes      Std        1  ALA$CPEXIT

  ****  Entry refs  ****

         Check        Calling
        calling       sequence
Altret sequence SRef   type   Args  Name
 yes     yes           Std       0 ALA$CLOSE_USERS
 yes     yes           Std       0 ALA$RELUSERS
         yes           Std       4 ALA$ERROR
 yes     yes           Std       0 ALA$RELSTARS
                       nStd      0 X66_AUTO_1
                       Std       0 B_CONSPOOL_D
                       nStd      0 X66_ARET
PL6.E3A0      #002=ALA$CPEXIT File=ALA$LOGON.:E05TSI                             TUE 07/29/97 08:29 Page:155

  ****  Data refs  ****

  Flags:  r = read only, s = secondary
Flgs Name                             Flgs Name                             Flgs Name
     M$UC                                  AL_DCB1#                              AL_DCB2#
     B$JIT$                                B$TCB$                                FPT_CPLOGOFF
     B_VECTNIL

  ****  Segment refs  ****

  Flags:  r = read only, s = secondary
Flgs Name                             Flgs Name                             Flgs Name
     ROSID                                 ISSID
PL6.E3A0      #002=ALA$CPEXIT File=ALA$LOGON.:E05TSI                             TUE 07/29/97 08:29 Page:156


      851        1        /*T***********************************************************/
      852        2        /*T*                                                         */
      853        3        /*T* Copyright (c) Bull HN Information Systems Inc., 1997    */
      854        4        /*T*                                                         */
      855        5        /*T***********************************************************/
      856        6        ALA$CPEXIT: PROC(FPT$CPEXIT) ;

      6  2 000000   000000 700200 xent  ALA$CPEXIT   TSX0  ! X66_AUTO_1
         2 000001   000010 000001                    ZERO    8,1

      857        7                                                              /**/
      858        8        %INCLUDE CP_6;
      859       89        %INCLUDE CP_6_SUBS ;
      860      629        %INCLUDE B_ERRORS_C;
      861     1756        %INCLUDE AL_PERR_C;
      862     1778        %INCLUDE B$JIT;
      863     2068        %INCLUDE AL_LOGON_R;
      864     2100        %F$DCB(DCBN=F$DCB);
      865     2157        %B$TCB;
      866     2160        %B$ALT;
      867     2168    1   DCL 1 MEM_STR ALIGNED,
      868     2169    1         2 LEN UBIN BYTE UNAL,
      869     2170    1         2 STR CHAR(3);
      870     2171    1   DCL ALA$ERROR ENTRY(4);
      871     2172    1   DCL ALA$CLOSE_USERS ENTRY ALTRET ;
      872     2173    1   DCL ALA$RELUSERS ENTRY ALTRET ;
      873     2174    1   DCL ALA$RELSTARS ENTRY ALTRET ;
      874     2175    1   DCL ALA$CLOSE_HLP ENTRY ALTRET ;
      875     2176                                                              /**/
      876     2177        %FPT_CPEXIT(  FPTN = FPT$CPEXIT ,
      877     2178                      STCLASS=" ") ;
      878     2204        %FPT_CPEXIT(  FPTN = FPT_CPLOGOFF ,
      879     2205                      STCLASS = SYMREF);
      880     2231        %VLP_ERRCODE( FPTN=ALA_E$LESMEM_ERR, FCG='AL',MID='A',MON='0'B,
      881     2232                      ERR#=E$LESMEM_ERR, SEV=0, STCLASS=CONSTANT );
      882     2277        %VLP_ERRCODE( FPTN=ERRCODE, STCLASS=AUTO );
PL6.E3A0      #002=ALA$CPEXIT File=ALA$LOGON.:E05TSI                             TUE 07/29/97 08:29 Page:157
      883     2322                                                              /**/
      884     2323    1         IF DCBADDR( AL_DCB1# ) ~= ADDR( NIL )

   2323  2 000002   000000 470400 3                  LDP0    0
         2 000003   000000 471500                    LDP1    0,,PR0
         2 000004   000000 720000 xsym               LXL0    AL_DCB1#
         2 000005   100000 236110                    LDQ     0,X0,PR1
         2 000006   000001 116000 xsym               CMPQ    B_VECTNIL+1
         2 000007   000016 600000 2                  TZE     s:2329

      885     2324    1         THEN
      886     2325    2         DO ;                                    /*   DID GET DCB.   */

      887     2326    2             CALL ALA$CLOSE_USERS ;

   2326  2 000010   000002 631400 xsym               EPPR1   B_VECTNIL+2
         2 000011   000000 701000 xent               TSX1    ALA$CLOSE_USERS
         2 000012   000000 011000                    NOP     0

      888     2327    2             CALL ALA$RELUSERS ;                 /*    RELEASE M$USERS DCB.   */

   2327  2 000013   000002 631400 xsym               EPPR1   B_VECTNIL+2
         2 000014   000000 701000 xent               TSX1    ALA$RELUSERS
         2 000015   000000 011000                    NOP     0

      889     2328    2             END ;     /*   END THEN DO   */

      890     2329    1         IF DCBADDR( AL_DCB2# ) ~= ADDR( NIL )

   2329  2 000016   000000 470400 3                  LDP0    0
         2 000017   000000 471500                    LDP1    0,,PR0
         2 000020   000000 720000 xsym               LXL0    AL_DCB2#
         2 000021   100000 236110                    LDQ     0,X0,PR1
         2 000022   000001 116000 xsym               CMPQ    B_VECTNIL+1
         2 000023   000027 600000 2                  TZE     s:2332

      891     2330    1         THEN
PL6.E3A0      #002=ALA$CPEXIT File=ALA$LOGON.:E05TSI                             TUE 07/29/97 08:29 Page:158
      892     2331    1             CALL ALA$RELSTARS ;                 /*   RELEASE M$STARS DCB.   */

   2331  2 000024   000002 631400 xsym               EPPR1   B_VECTNIL+2
         2 000025   000000 701000 xent               TSX1    ALA$RELSTARS
         2 000026   000000 011000                    NOP     0

      893     2332    1         IF ADDR(FPT$CPEXIT)~=ADDR(NIL)

   2332  2 000027   200003 236100                    LDQ     @FPT$CPEXIT,,AUTO
         2 000030   000001 116000 xsym               CMPQ    B_VECTNIL+1
         2 000031   000124 600000 2                  TZE     s:2357

      894     2333    2         THEN DO;

      895     2334    2             CALL M$RACST ALTRET(RACST_ALT);

   2334  2 000032   550005 713400                    CLIMB   alt,+53253
         2 000033   000000 401760                    pmme    nvectors=0
         2 000034   000036 702000 2                  TSX2    RACST_ALT

      896     2335    3             DO WHILE('0'B);

   2335  2 000035   000120 710000 2                  TRA     s:2354

      897     2336    3   RACST_ALT:    ERRCODE = B$TCB$->B$TCB.ALT$->B$ALT.ERR;

   2336  2 000036   000000 470400 xsym  RACST_ALT    LDP0    B$TCB$
         2 000037   000000 471500                    LDP1    0,,PR0
         2 000040   100102 236100                    LDQ     66,,PR1
         2 000041   200005 756100                    STQ     ERRCODE,,AUTO

      898     2337    3                 IF ERRCODE.ERR#=%E$LESMEM

   2337  2 000042   200005 236100                    LDQ     ERRCODE,,AUTO
         2 000043   377770 376007                    ANQ     131064,DL
         2 000044   012340 116007                    CMPQ    5344,DL
         2 000045   000107 601000 2                  TNZ     s:2350
PL6.E3A0      #002=ALA$CPEXIT File=ALA$LOGON.:E05TSI                             TUE 07/29/97 08:29 Page:159
         2 000046   000000 471400 xsym               LDP1    B$JIT$
         2 000047   100000 236100                    LDQ     0,,PR1
         2 000050   740000 376003                    ANQ     -16384,DU
         2 000051   140000 116003                    CMPQ    49152,DU
         2 000052   000065 600000 2                  TZE     s:2342
         2 000053   100000 116003                    CMPQ    32768,DU
         2 000054   000107 601000 2                  TNZ     s:2350
         2 000055   000000 236007 xsym               LDQ     M$UC,DL
         2 000056   000000 473400 3                  LDP3    0
         2 000057   300000 474500                    LDP4    0,,PR3
         2 000060   400000 475506                    LDP5    0,QL,PR4
         2 000061   500032 236100                    LDQ     26,,PR5
         2 000062   777000 376007                    ANQ     -512,DL
         2 000063   003000 116007                    CMPQ    1536,DL
         2 000064   000107 600000 2                  TZE     s:2350

      899     2338    3                         AND (B$JIT.MODE=%M_INT#
      900     2339    3                         OR (B$JIT.MODE=%M_GHOST#
      901     2340    3                         AND DCBADDR(DCBNUM(M$UC))->F$DCB.ASN#~=%DEVICE#))
      902     2341    4                 THEN DO;

      903     2342    4                     MEM_STR.LEN = 3;

   2342  2 000065   003000 236003                    LDQ     1536,DU
         2 000066   200004 552140                    STBQ    MEM_STR,'40'O,AUTO

      904     2343    4                     CALL BINCHAR(MEM_STR.STR,B$JIT.MAXCORE);

   2343  2 000067   100210 236100                    LDQ     136,,PR1
         2 000070   000022 772000                    QRL     18
         2 000071   000000 235003                    LDA     0,DU
         2 000072   200006 757100                    STAQ    ERRCODE+1,,AUTO
         2 000073   000100 301500                    BTD
         2 000074   200006 000010                    NDSC9   ERRCODE+1,,AUTO          cn=0,s=lsgnf,sf=0,n=8
         2 000075   200004 230003                    NDSC9   MEM_STR,,AUTO            cn=1,s=nosgn,sf=0,n=3

      905     2344    4                     CALL ALA$ERROR( ALA_E$LESMEM_ERR, MEM_STR );
PL6.E3A0      #002=ALA$CPEXIT File=ALA$LOGON.:E05TSI                             TUE 07/29/97 08:29 Page:160

   2344  2 000076   200004 633500                    EPPR3   MEM_STR,,AUTO
         2 000077   200007 453500                    STP3    ERRCODE+2,,AUTO
         2 000100   000001 236000 3                  LDQ     1
         2 000101   200006 756100                    STQ     ERRCODE+1,,AUTO
         2 000102   200006 630500                    EPPR0   ERRCODE+1,,AUTO
         2 000103   000020 631400 xsym               EPPR1   B_VECTNIL+16
         2 000104   000000 701000 xent               TSX1    ALA$ERROR
         2 000105   000000 011000                    NOP     0

      906     2345        /*E* ERROR:   ALA-E$LESMEM_ERR-C
      907     2346             MESSAGE: Cannot reserve your memory - Running you with %U1K!
      908     2347        */
      909     2348    4                     END;

   2348  2 000106   000120 710000 2                  TRA     s:2354

      910     2349    4                 ELSE DO;

      911     2350    4                     CALL ALA$ERROR( ERRCODE );

   2350  2 000107   200005 631500                    EPPR1   ERRCODE,,AUTO
         2 000110   200006 451500                    STP1    ERRCODE+1,,AUTO
         2 000111   200006 630500                    EPPR0   ERRCODE+1,,AUTO
         2 000112   000017 631400 xsym               EPPR1   B_VECTNIL+15
         2 000113   000000 701000 xent               TSX1    ALA$ERROR
         2 000114   000000 011000                    NOP     0

      912     2351    4                     CALL M$CPEXIT(FPT_CPLOGOFF);

   2351  2 000115   000000 630400 xsym               EPPR0   FPT_CPLOGOFF
         2 000116   000012 713400                    CLIMB   10
         2 000117   402400 401760                    pmme    nvectors=6

      913     2352    4                     END;

      914     2353    3                 END;
PL6.E3A0      #002=ALA$CPEXIT File=ALA$LOGON.:E05TSI                             TUE 07/29/97 08:29 Page:161

      915     2354    2             CALL M$CPEXIT(FPT$CPEXIT);

   2354  2 000120   200003 470500                    LDP0    @FPT$CPEXIT,,AUTO
         2 000121   000012 713400                    CLIMB   10
         2 000122   402400 401760                    pmme    nvectors=6

      916     2355    2             END;

   2355  2 000123   000127 710000 2                  TRA     s:2358

      917     2356    1         ELSE
      918     2357    1             CALL M$CPEXIT(FPT_CPLOGOFF);

   2357  2 000124   000000 630400 xsym               EPPR0   FPT_CPLOGOFF
         2 000125   000012 713400                    CLIMB   10
         2 000126   402400 401760                    pmme    nvectors=6

      919     2358    1   END   ALA$CPEXIT ;

   2358  2 000127   000000 702200 xent               TSX2  ! X66_ARET
      920     2359        %EOD ;

PL6.E3A0      #002=ALA$CPEXIT File=ALA$LOGON.:E05TSI                             TUE 07/29/97 08:29 Page:162
--  Include file information  --

   AL_LOGON_R.:E05TOU  cannot be made into a system file and is referenced.
   B$JIT.:E05TOU  cannot be made into a system file and is referenced.
   AL_PERR_C.:E05TOU  is referenced.
   B_ERRORS_C.:E05TOU  is referenced.
   CP_6_SUBS.:E05TOU  is referenced.
   CP_6.:E05TOU  cannot be made into a system file and is referenced.
   B$JIT_C.:E05TOU  was found in the system file and is referenced.
   CP_6_C.:E05TOU  was found in the system file and is referenced.
      No diagnostics issued in procedure ALA$CPEXIT.
PL6.E3A0      #002=ALA$CPEXIT File=ALA$LOGON.:E05TSI                             TUE 07/29/97 08:29 Page:163

 **** Variables and constants ****

  ****  Section 001 RoData ALA$CPEXIT

  ****  Scalars and arrays  ****
OctLoc.c.b A Datatyp(siz) R M Lvl/name                 OctLoc.c.b A Datatyp(siz) R M Lvl/name

     0-0-0/w STRC        r     1 ALA_E$LESMEM_ERR

  ****  Auto variables  ****

  ****  Scalars and arrays  ****
OctLoc.c.b A Datatyp(siz) R M Lvl/name                 OctLoc.c.b A Datatyp(siz) R M Lvl/name

     3-0-0/w PTR         r     1 @FPT$CPEXIT                5-0-0/w STRC        r     1 ERRCODE
    *0-0-0/d STRC(504)   r     1 FPT$CPEXIT                 4-0-0/w STRC        r     1 MEM_STR

  ****  SYMREF variables  ****

  ****  Scalars and arrays  ****
OctLoc.c.b A Datatyp(siz) R M Lvl/name                 OctLoc.c.b A Datatyp(siz) R M Lvl/name

     0-0-0/w UBIN        r     1 AL_DCB1#                   0-0-0/w UBIN        r     1 AL_DCB2#
     0-0-0/w PTR         r     1 B$JIT$                     0-0-0/w PTR         r     1 B$TCB$
     0-0-0/d STRC(504)   r     1 FPT_CPLOGOFF

  ****  BASED and DCB variables  ****

  ****  Scalars and arrays  ****
OctLoc.c.b A Datatyp(siz) R M Lvl/name                 OctLoc.c.b A Datatyp(siz) R M Lvl/name

     0-0-0/w STRC(2448)  r     1 B$ALT                      0-0-0/d STRC(8856)  r     1 B$JIT
     0-0-0/w STRC(144)   r     1 B$TCB                      0-0-0/d ASTR(3528)  r     1 F$DCB
     0-0-0N  NULL        r     1 M$UC

PL6.E3A0      #002=ALA$CPEXIT File=ALA$LOGON.:E05TSI                             TUE 07/29/97 08:29 Page:164

   Procedure ALA$CPEXIT requires 88 words for executable code.
   Procedure ALA$CPEXIT requires 8 words of local(AUTO) storage.
PL6.E3A0      #002=ALA$CPEXIT File=ALA$LOGON.:E05TSI                             TUE 07/29/97 08:29 Page:165
          *** CROSS REFERENCE LISTING ***
**     DENOTES     IDENTIFIER DEFINITION
<<                 IDENTIFIER'S VALUE SET
>>                 IDENTIFIER'S VALUE USED
<>                 IDENTIFIER SET AND/OR USED
--                 IDENTIFIER REFERENCED
PL6.E3A0      #002=ALA$CPEXIT File=ALA$LOGON.:E05TSI                             TUE 07/29/97 08:29 Page:166
          MINI XREF LISTING

ALA$CLOSE_USERS
      2172**DCL-ENT  2326--CALL
ALA$ERROR
      2171**DCL-ENT  2344--CALL     2350--CALL
ALA$RELSTARS
      2174**DCL-ENT  2331--CALL
ALA$RELUSERS
      2173**DCL-ENT  2327--CALL
ALA_E$LESMEM_ERR
      2244**DCL      2344<>CALL
AL_DCB1#
      2096**DCL      2323--IF
AL_DCB2#
      2097**DCL      2329--IF
B$ALT.CODE
      2162**DCL      2162--REDEF    2163--REDEF    2163--REDEF
B$ALT.ERR
      2163**DCL      2336>>ASSIGN
B$ALT.ERR.ERR#
      2164**DCL      2164--REDEF
B$ALT.EVID
      2163**DCL      2163--REDEF    2163--REDEF
B$JIT.CPFLAGS1.SLEAZE
      1886**DCL      1886--REDEF
B$JIT.ERR.MID
      1793**DCL      1793--REDEF
B$JIT.JRESPEAK
      1954**DCL      1955--REDEF
B$JIT.MAXCORE
      1953**DCL      2343>>CALLBLT
B$JIT.MODE
      1787**DCL      2337>>IF       2337>>IF
PL6.E3A0      #002=ALA$CPEXIT File=ALA$LOGON.:E05TSI                             TUE 07/29/97 08:29 Page:167
B$JIT.ORIGINATOR_PORT.FROM_CR
      2063**DCL      2063--REDEF    2064--REDEF
B$JIT.PNR
      1967**DCL      1967--REDEF
B$JIT.TSLINE
      2061**DCL      2062--REDEF
B$JIT$
      2098**DCL      1787--IMP-PTR  2337>>IF       2337>>IF       2343>>CALLBLT
B$TCB.ALT$
      2158**DCL      2336>>ASSIGN
B$TCB$
      2099**DCL      2336>>ASSIGN
ERRCODE
      2289**DCL      2336<<ASSIGN   2350<>CALL
ERRCODE.ERR#
      2319**DCL      2337>>IF
F$DCB.ACTPOS
      2133**DCL      2133--REDEF
F$DCB.ARS#
      2107**DCL      2107--REDEF
F$DCB.ASN#
      2122**DCL      2337>>IF
F$DCB.ATTR
      2126**DCL      2127--REDEF
F$DCB.BORROW
      2141**DCL      2141--REDEF    2141--REDEF    2141--REDEF
F$DCB.DCBNAME.L
      2155**DCL      2155--IMP-SIZ
F$DCB.EOMCHAR#
      2111**DCL      2111--REDEF
F$DCB.FLDID
      2136**DCL      2136--REDEF
F$DCB.FORM$
      2130**DCL      2130--REDEF
F$DCB.FSECT
      2146**DCL      2146--REDEF
PL6.E3A0      #002=ALA$CPEXIT File=ALA$LOGON.:E05TSI                             TUE 07/29/97 08:29 Page:168
F$DCB.FSN#
      2123**DCL      2123--REDEF    2123--REDEF    2124--REDEF
F$DCB.HEADER$
      2129**DCL      2129--REDEF
F$DCB.IXTNSIZE#
      2127**DCL      2127--REDEF
F$DCB.LASTSTA$
      2116**DCL      2116--REDEF
F$DCB.LVL
      2142**DCL      2142--REDEF
F$DCB.NAME#.C
      2117**DCL      2117--REDEF
F$DCB.NOEOF
      2139**DCL      2139--REDEF
F$DCB.NRECS#
      2128**DCL      2128--REDEF
F$DCB.NRECX
      2147**DCL      2147--REDEF
F$DCB.OHDR
      2139**DCL      2139--REDEF
F$DCB.ORG#
      2122**DCL      2122--REDEF
F$DCB.PRECNO
      2145**DCL      2145--REDEF
F$DCB.RCSZ
      2151**DCL      2151--REDEF
F$DCB.RES#
      2118**DCL      2118--REDEF
F$DCB.SETX
      2130**DCL      2130--REDEF
F$DCB.TAB$
      2130**DCL      2130--REDEF
F$DCB.TDA
      2144**DCL      2145--REDEF
F$DCB.WSN#
      2118**DCL      2118--REDEF
PL6.E3A0      #002=ALA$CPEXIT File=ALA$LOGON.:E05TSI                             TUE 07/29/97 08:29 Page:169
FPT$CPEXIT
      2191**DCL         6--PROC     2332--IF       2354<>CALL
FPT_CPLOGOFF
      2218**DCL      2351<>CALL     2357<>CALL
M$CPEXIT
        31**DCL-ENT  2351--CALL     2354--CALL     2357--CALL
M$RACST
        25**DCL-ENT  2334--CALL
M$UC
        41**DCL      2337--IF
MEM_STR
      2168**DCL      2344<>CALL
MEM_STR.LEN
      2169**DCL      2342<<ASSIGN
MEM_STR.STR
      2170**DCL      2343<<CALLBLT
RACST_ALT
      2336**LABEL    2334--CALLALT

