PL6.E3A0      #003=ALA$READ_USERS File=ALA$LOGON.:E05TSI                         TUE 07/29/97 08:29 Page:170
      921        1        /*T***********************************************************/
      922        2        /*T*                                                         */
      923        3        /*T* Copyright (c) Bull HN Information Systems Inc., 1997    */
      924        4        /*T*                                                         */
      925        5        /*T***********************************************************/
      926        6                                                                                      /**/
      927        7        ALA$READ_USERS: PROC (USERS_KEY, RW$USERS) ALTRET ;
      928        8                  /***********************************************************/
      929        9                  /*                                                         */
      930       10                  /*      NAME:     ALA$READ_USERS                           */
      931       11                  /*                                                         */
      932       12                  /*      CALL:     CALL ALA$READ_USERS (USERS_KEY, RW$USERS) */
      933       13                  /*                                                         */
      934       14                  /*      INPUT:    USERS_KEY  is the KEY to the :USERS      */
      935       15                  /*                           record to be read.            */
      936       16                  /*                RW$USERS   is the buffer to read the     */
      937       17                  /*                           the USERS record into.        */
      938       18                  /*                                                         */
      939       19                  /*      OUTPUT:   Nothing is passed.                       */
      940       20                  /*                                                         */
      941       21                  /*      DESCRIPTION:  ALA$READ_USERS is the routine to     */
      942       22                  /*                read a users record from :USERS.         */
      943       23                  /*                                                         */
      944       24                  /*      ENTRIES:                                           */
      945       25                  /*                ALA$READ_USERS (USERS_KEY, RW$USERS)     */
      946       26                  /*                ALA$OPEN_USERS                           */
      947       27                  /*                ALA$CLOSE_USERS                          */
      948       28                  /*                                                         */
      949       29                  /***********************************************************/
      950       30                                                                                      /**/
      951       31        %EJECT;
PL6.E3A0      #003=ALA$READ_USERS File=ALA$LOGON.:E05TSI                         TUE 07/29/97 08:29 Page:171
      952       32        /*********************************************************************/
      953       33        /*   INCLUDE FILES   INCLUDE FILES   INCLUDE FILES   INCLUDE FILES   */
      954       34        /*********************************************************************/
      955       35                                                                                      /**/
      956       36              %INCLUDE CP_6 ;
      957      117              %INCLUDE CP_6_SUBS ;
      958      657              %INCLUDE AS_SUPER_C ;
      959     1092              %INCLUDE AL_LOGON_R ;
      960     1124                                                                                      /**/
      961     1125        %EJECT;
PL6.E3A0      #003=ALA$READ_USERS File=ALA$LOGON.:E05TSI                         TUE 07/29/97 08:29 Page:172
      962     1126        /*********************************************************************/
      963     1127        /*   CONSTANT DATA   CONSTANT DATA   CONSTANT DATA   CONSTANT DATA   */
      964     1128        /*********************************************************************/
      965     1129                                                                                      /**/
      966     1130    1   DCL 1 FILE_NAME CONSTANT ,
      967     1131    1         2 COUNT UBIN(9) UNAL INIT(6) ,
      968     1132    1         2 TEXT CHAR(31) UNAL INIT(':USERS') ;
      969     1133    1   DCL 1 FILE_ACCT CONSTANT SYMDEF,
      970     1134    1         2 TEXT CHAR(8) INIT(':SYS') ;
      971     1135                                                                                      /**/
      972     1136    1   DCL ALA$SYS_ERROR ENTRY;
      973     1137        %EJECT;
PL6.E3A0      #003=ALA$READ_USERS File=ALA$LOGON.:E05TSI                         TUE 07/29/97 08:29 Page:173
      974     1138        /*********************************************************************/
      975     1139        /*   PARAMETERS      PARAMETERS      PARAMETERS      PARAMETERS      */
      976     1140        /*********************************************************************/
      977     1141                                                                                      /**/
      978     1142              %AS_USERS (STR_NAME=RW$USERS, STCLASS=" ") ;
      979     1320    1   DCL 1 USERS_KEY ,
      980     1321    1         2 CNT UBIN(9) UNAL ,
      981     1322    1         2 TEXT CHAR(20) UNAL ;
      982     1323                                                                                      /**/
      983     1324        %EJECT;
PL6.E3A0      #003=ALA$READ_USERS File=ALA$LOGON.:E05TSI                         TUE 07/29/97 08:29 Page:174
      984     1325        /*********************************************************************/
      985     1326        /*   FPTS            FPTS            FPTS            FPTS            */
      986     1327        /*********************************************************************/
      987     1328                                                                                      /**/
      988     1329              %FPT_OPEN (FPTN=OPEN_USERS_FPT ,
      989     1330                          STCLASS = CONSTANT ,
      990     1331                          NAME = FILE_NAME ,
      991     1332                          ACCT = FILE_ACCT ,
      992     1333                          ASN  = FILE ,
      993     1334                          ACS = DIRECT ,
      994     1335                          ORG = KEYED ,
      995     1336                          FUN = UPDATE ,
      996     1337                          SHARE = ALL) ;
      997     1446              %FPT_OPEN ( FPTN=OPEN$USERS_FPT ,
      998     1447                          SCRUB = YES ,
      999     1448                          STCLASS = AUTO ) ;
     1000     1557              %FPT_CLOSE (FPTN = CLOSE_USERS_FPT ,
     1001     1558                          STCLASS = CONSTANT ,
     1002     1559                           DISP = SAVE) ;
     1003     1601              %FPT_CLOSE (  FPTN = CLOSE$USERS_FPT ,
     1004     1602                            STCLASS = AUTO ) ;
     1005     1644              %FPT_READ  (FPTN = READ_USERS_FPT ,
     1006     1645                          STCLASS = CONSTANT ,
     1007     1646                          KEYS = YES) ;
     1008     1685              %FPT_READ   (FPTN = FPT$READ ,
     1009     1686                            STCLASS = AUTO ) ;
     1010     1725              %FPT_READ     (FPTN = READ_SEQ_FPT ,
     1011     1726                              STCLASS = CONSTANT ,
     1012     1727                              KEYR = YES ,
     1013     1728                              KEYS = NO ) ;
     1014     1767              %FPT_READ     (FPTN = READ$SEQ_FPT ,
     1015     1768                              STCLASS = AUTO ) ;
     1016     1807              %FPT_WRITE ( FPTN = WRITE_USERS_FPT,
     1017     1808                            STCLASS = CONSTANT ) ;
     1018     1839              %FPT_WRITE ( FPTN = WRITE$USERS_FPT,
     1019     1840                            STCLASS = AUTO ) ;
     1020     1871              %VLP_NAME ( FPTN = VLP_USERSNAME ,
PL6.E3A0      #003=ALA$READ_USERS File=ALA$LOGON.:E05TSI                         TUE 07/29/97 08:29 Page:175
     1021     1872                          STCLASS = CONSTANT ,
     1022     1873                          NAME = 'M$USERS' ) ;
     1023     1900              %FPT_GETDCB ( FPTN = FPT_GETUSERS ,
     1024     1901                            STCLASS = CONSTANT ,
     1025     1902                            DCBNAME = VLP_USERSNAME ) ;
     1026     1917              %FPT_GETDCB ( FPTN = FPT$GETUSERS ,
     1027     1918                            STCLASS = AUTO ) ;
     1028     1933              %FPT_RELDCB ( FPTN = FPT_RELUSERS ,
     1029     1934                            STCLASS = CONSTANT ) ;
     1030     1948              %FPT_RELDCB ( FPTN = FPT$RELUSERS ,
     1031     1949                            STCLASS = AUTO ) ;
     1032     1963              %VLP_NAME ( FPTN = VLP_STARSNAME ,
     1033     1964                          STCLASS = CONSTANT ,
     1034     1965                          NAME = 'M$STARS' ) ;
     1035     1992              %FPT_GETDCB ( FPTN = FPT_GETSTARS ,
     1036     1993                            STCLASS = CONSTANT ,
     1037     1994                            DCBNAME = VLP_STARSNAME ) ;
     1038     2009              %FPT_GETDCB ( FPTN = FPT$GETSTARS ,
     1039     2010                            STCLASS = AUTO ) ;
     1040     2025              %FPT_RELDCB ( FPTN = FPT_RELSTARS ,
     1041     2026                            STCLASS = CONSTANT ) ;
     1042     2040              %FPT_RELDCB ( FPTN = FPT$RELSTARS ,
     1043     2041                            STCLASS = AUTO ) ;
     1044     2055              %FPT_ENQ ( FPTN = FPT_ENQ_USERS ,
     1045     2056                            STCLASS = CONSTANT ) ;
     1046     2074              %FPT_ENQ ( FPTN = FPT$ENQ_USERS ,
     1047     2075                            STCLASS = AUTO ) ;
     1048     2093              %FPT_DEQ ( FPTN = FPT_DEQ_USERS ,
     1049     2094                            STCLASS = CONSTANT ) ;
     1050     2111              %FPT_DEQ ( FPTN = FPT$DEQ_USERS ,
     1051     2112                            STCLASS = AUTO ) ;
     1052     2129                                                                                      /**/
     1053     2130        %EJECT;
PL6.E3A0      #003=ALA$READ_USERS File=ALA$LOGON.:E05TSI                         TUE 07/29/97 08:29 Page:176
     1054     2131        /********************************************************************/
     1055     2132        /*   PROCEDURE       PROCEDURE       PROCEDURE       PROCEDURE       */
     1056     2133        /*********************************************************************/
     1057     2134                                                              /**/
     1058     2135                                                              /*
     1059     2136                                                                   SET BUF$ IN READ FPT
     1060     2137                                                              */
     1061     2138    1         FPT$READ = READ_USERS_FPT ;
     1062     2139    1         FPT$READ.BUF_ = VECTOR(RW$USERS) ;
     1063     2140    1         FPT$READ.KEY_ = VECTOR(USERS_KEY) ;
     1064     2141    1         FPT$READ.V.DCB# = AL_DCB1# ;
     1065     2142    1         FPT$READ.V_ = VECTOR(FPT$READ.V) ;
     1066     2143                                                              /*
     1067     2144                                                                    ***** Init. Enq fpt
     1068     2145                                                              */
     1069     2146    1         FPT$ENQ_USERS = FPT_ENQ_USERS;
     1070     2147    1         FPT$ENQ_USERS.V_ = VECTOR(FPT$ENQ_USERS.V);
     1071     2148    1         FPT$ENQ_USERS.V.DCB# = AL_DCB1#;
     1072     2149    1         FPT$ENQ_USERS.RNAME_ = VECTOR(USERS_KEY);
     1073     2150    1         FPT$ENQ_USERS.V.SHARE# = %NONE#;
     1074     2151    1         CALL M$ENQ(FPT$ENQ_USERS) ALTRET(ENQ_DEQ_ERR);
     1075     2152    1         CALL M$READ (FPT$READ) ALTRET(READ_ERR) ;
     1076     2153    1         RETURN ;
     1077     2154    1   READ_ERR:
     1078     2155                                                              /*
     1079     2156                                                                    ***** Init. Deq fpt
     1080     2157                                                              */
     1081     2158    1         FPT$DEQ_USERS = FPT_DEQ_USERS;
     1082     2159    1         FPT$DEQ_USERS.V_ = VECTOR(FPT$DEQ_USERS.V);
     1083     2160    1         FPT$DEQ_USERS.V.DCB# = AL_DCB1#;
     1084     2161    1         FPT$DEQ_USERS.RNAME_ = VECTOR(USERS_KEY);
     1085     2162    1         CALL M$DEQ(FPT$DEQ_USERS) ALTRET(ENQ_DEQ_ERR);
     1086     2163    1   ENQ_DEQ_ERR: ALTRETURN ;
     1087     2164                                                              /**/
     1088     2165    1   ALA$READ_SEQ_USERS:
     1089     2166    1         ENTRY(USERS_KEY, RW$USERS) ALTRET ;
     1090     2167    1         READ$SEQ_FPT = READ_SEQ_FPT ;
PL6.E3A0      #003=ALA$READ_USERS File=ALA$LOGON.:E05TSI                         TUE 07/29/97 08:29 Page:177
     1091     2168    1         READ$SEQ_FPT.BUF_ = VECTOR(RW$USERS) ;
     1092     2169    1         READ$SEQ_FPT.KEY_ = VECTOR(USERS_KEY) ;
     1093     2170    1         READ$SEQ_FPT.V.DCB# = AL_DCB1# ;
     1094     2171    1         READ$SEQ_FPT.V_ = VECTOR(READ$SEQ_FPT.V) ;
     1095     2172    1         CALL M$READ( READ$SEQ_FPT ) ALTRET( READ_SEQ_ERR ) ;
     1096     2173    1         RETURN ;
     1097     2174    1   READ_SEQ_ERR: ALTRETURN ;
     1098     2175                                                              /**/
     1099     2176    1   ALA$OPEN_USERS:
     1100     2177    1         ENTRY     ALTRET ;
     1101     2178    1         OPEN$USERS_FPT = OPEN_USERS_FPT ;
     1102     2179    1         OPEN$USERS_FPT.V.DCB# = AL_DCB1# ;
     1103     2180    1         OPEN$USERS_FPT.V_ = VECTOR(OPEN$USERS_FPT.V) ;
     1104     2181    1         CALL M$OPEN (OPEN$USERS_FPT) ALTRET(OPEN_ERR) ;
     1105     2182    1         RETURN ;
     1106     2183    1   OPEN_ERR: ALTRETURN ;
     1107     2184                                                              /**/
     1108     2185    1   ALA$WRITE_USERS:
     1109     2186    1         ENTRY(USERS_KEY, RW$USERS) ALTRET ;
     1110     2187    1         WRITE$USERS_FPT = WRITE_USERS_FPT ;
     1111     2188    1         WRITE$USERS_FPT.V_ = VECTOR(WRITE$USERS_FPT.V) ;
     1112     2189    1         WRITE$USERS_FPT.V.DCB# = AL_DCB1# ;
     1113     2190    1         WRITE$USERS_FPT.BUF_ = VECTOR(RW$USERS);
     1114     2191    1         WRITE$USERS_FPT.KEY_ = VECTOR(USERS_KEY);
     1115     2192    1         CALL M$WRITE (WRITE$USERS_FPT) ALTRET(WRITE_ERR) ;
     1116     2193                                                              /*
     1117     2194                                                                    ***** Init. Deq fpt
     1118     2195                                                              */
     1119     2196    1         FPT$DEQ_USERS = FPT_DEQ_USERS;
     1120     2197    1         FPT$DEQ_USERS.V_ = VECTOR(FPT$DEQ_USERS.V);
     1121     2198    1         FPT$DEQ_USERS.V.DCB# = AL_DCB1#;
     1122     2199    1         FPT$DEQ_USERS.RNAME_ = VECTOR(USERS_KEY);
     1123     2200    1         CALL M$DEQ(FPT$DEQ_USERS) ALTRET(ENQ_DEQ_ERR);
     1124     2201    1         RETURN ;
     1125     2202    1   WRITE_ERR:
     1126     2203                                                              /*
     1127     2204                                                                    ***** Init. Deq fpt
PL6.E3A0      #003=ALA$READ_USERS File=ALA$LOGON.:E05TSI                         TUE 07/29/97 08:29 Page:178
     1128     2205                                                              */
     1129     2206    1         FPT$DEQ_USERS = FPT_DEQ_USERS;
     1130     2207    1         FPT$DEQ_USERS.V_ = VECTOR(FPT$DEQ_USERS.V);
     1131     2208    1         FPT$DEQ_USERS.V.DCB# = AL_DCB1#;
     1132     2209    1         FPT$DEQ_USERS.RNAME_ = VECTOR(USERS_KEY);
     1133     2210    1         CALL M$DEQ(FPT$DEQ_USERS) ALTRET(ENQ_DEQ_ERR);
     1134     2211    1         ALTRETURN ;
     1135     2212                                                              /**/
     1136     2213    1   ALA$CLOSE_USERS:
     1137     2214    1         ENTRY     ALTRET ;
     1138     2215    1         CLOSE$USERS_FPT = CLOSE_USERS_FPT ;
     1139     2216    1         CLOSE$USERS_FPT.V.DCB# = AL_DCB1# ;
     1140     2217    1         CLOSE$USERS_FPT.V_ = VECTOR( CLOSE$USERS_FPT.V ) ;
     1141     2218    1         CALL M$CLOSE (CLOSE$USERS_FPT) ALTRET (CLOSE_ERR) ;
     1142     2219    1         RETURN ;
     1143     2220    1   CLOSE_ERR: RETURN ;
     1144     2221                                                              /**/
     1145     2222    1   ALA$GETUSERS:
     1146     2223    1         ENTRY ALTRET ;
     1147     2224    1         FPT$GETUSERS = FPT_GETUSERS ;
     1148     2225    1         FPT$GETUSERS.V_ = VECTOR(FPT$GETUSERS.V) ;
     1149     2226    1         FPT$GETUSERS.V.DCB# = AL_DCB1# ;
     1150     2227    1         CALL M$GETDCB( FPT$GETUSERS ) ALTRET( NODCB ) ;
     1151     2228    1         RETURN ;
     1152     2229    1   NODCB: CALL ALA$SYS_ERROR;
     1153     2230    1         CALL M$XXX;
     1154     2231                                                              /**/
     1155     2232    1   ALA$GETSTARS:
     1156     2233    1         ENTRY ALTRET ;
     1157     2234    1         FPT$GETSTARS = FPT_GETSTARS ;
     1158     2235    1         FPT$GETSTARS.V_ = VECTOR(FPT$GETSTARS.V) ;
     1159     2236    1         FPT$GETSTARS.V.DCB# = AL_DCB2# ;
     1160     2237    1         CALL M$GETDCB( FPT$GETSTARS ) ALTRET( NODCB1 ) ;
     1161     2238    1         RETURN ;
     1162     2239    1   NODCB1: CALL ALA$SYS_ERROR;
     1163     2240    1         CALL M$XXX;
     1164     2241                                                              /**/
PL6.E3A0      #003=ALA$READ_USERS File=ALA$LOGON.:E05TSI                         TUE 07/29/97 08:29 Page:179
     1165     2242    1   ALA$RELUSERS:
     1166     2243    1         ENTRY ALTRET ;
     1167     2244    1         FPT$RELUSERS = FPT_RELUSERS ;
     1168     2245    1         FPT$RELUSERS.V.DCB# = AL_DCB1# ;
     1169     2246    1         FPT$RELUSERS.V_ = VECTOR( FPT$RELUSERS.V ) ;
     1170     2247    1         CALL M$RELDCB( FPT$RELUSERS ) ALTRET( NODCB2 ) ;
     1171     2248    1         RETURN ;
     1172     2249    1   NODCB2: RETURN ;
     1173     2250                                                              /**/
     1174     2251    1   ALA$RELSTARS:
     1175     2252    1         ENTRY ALTRET ;
     1176     2253    1         FPT$RELSTARS = FPT_RELSTARS ;
     1177     2254    1         FPT$RELSTARS.V.DCB# = AL_DCB2# ;
     1178     2255    1         FPT$RELSTARS.V_ = VECTOR( FPT$RELSTARS.V ) ;
     1179     2256    1         CALL M$RELDCB( FPT$RELSTARS ) ALTRET( NODCB3 ) ;
     1180     2257    1         RETURN ;
     1181     2258    1   NODCB3: RETURN ;
     1182     2259                                                              /**/
     1183     2260    1   END   ALA$READ_USERS ;
     1184     2261        %EOD ;

PL6.E3A0      #003=ALA$READ_USERS File=ALA$LOGON.:E05TSI                         TUE 07/29/97 08:29 Page:180
--  Include file information  --

   AL_LOGON_R.:E05TOU  cannot be made into a system file and is referenced.
   AS_SUPER_C.:E05TOU  is referenced.
   CP_6_SUBS.:E05TOU  is referenced.
   CP_6.:E05TOU  cannot be made into a system file and is referenced.
   B$JIT_C.:E05TOU  was found in the system file and is never referenced.
   CP_6_C.:E05TOU  was found in the system file and is referenced.
      No diagnostics issued in procedure ALA$READ_USERS.

   Procedure ALA$READ_USERS requires 259 words for executable code.
   Procedure ALA$READ_USERS requires 178 words of local(AUTO) storage.

PL6.E3A0      #003=ALA$READ_USERS File=ALA$LOGON.:E05TSI                         TUE 07/29/97 08:29 Page:181

 Object Unit name= ALA$READ_USERS                             File name= ALA$LOGON.:E05TOU
 UTS= JUL 29 '97 08:29:38.48 TUE                              Compiler= PL-6/E31         Sev=      00
 SharedLib= :SHARED_SYSTEM                                    Alt SharedLib=


    ****  Control sections  ****

 Sect   Type Bound  Init  Size OctSiz  Section name(segment info)
    0   DCB   even  none     0      0  M$UC
    1  RoData even  UTS    184    270  ALA$READ_USERS
    2   Proc  even  none   259    403  ALA$READ_USERS
    3  RoData even  none     6      6  ALA$READ_USERS

    ****  Entry defs  ****

                              Check   Calling
                             calling  sequence
  Sect OctLoc Primary Altret sequence   type   Parms  Name
     2      0   yes    yes     yes      Std        2  ALA$READ_USERS
     2     73          yes     yes      Std        2  ALA$READ_SEQ_USERS
     2    123          yes     yes      Std        0  ALA$OPEN_USERS
     2    145          yes     yes      Std        2  ALA$WRITE_USERS
     2    237          yes     yes      Std        0  ALA$CLOSE_USERS
     2    261          yes     yes      Std        0  ALA$GETUSERS
     2    310          yes     yes      Std        0  ALA$GETSTARS
     2    337          yes     yes      Std        0  ALA$RELUSERS
     2    361          yes     yes      Std        0  ALA$RELSTARS

  ****  Data defs  ****

 Sect OctLoc  Name                           Sect OctLoc  Name
    1     10  FILE_ACCT
PL6.E3A0      #003=ALA$READ_USERS File=ALA$LOGON.:E05TSI                         TUE 07/29/97 08:29 Page:182

  ****  Entry refs  ****

         Check        Calling
        calling       sequence
Altret sequence SRef   type   Args  Name
         yes           Std       0 ALA$SYS_ERROR
                       nStd      0 X66_AUTO_2
                       nStd      0 X66_ARET
                       nStd      0 X66_AALT
                       Std       0 B_CONSPOOL_D

  ****  Data refs  ****

  Flags:  r = read only, s = secondary
Flgs Name                             Flgs Name                             Flgs Name
     M$UC                                  AL_DCB1#                              AL_DCB2#
     B_VECTNIL

  ****  Segment refs  ****

  Flags:  r = read only, s = secondary
Flgs Name                             Flgs Name                             Flgs Name
     ISSID                                 NULLSID
PL6.E3A0      #003=ALA$READ_USERS File=ALA$LOGON.:E05TSI                         TUE 07/29/97 08:29 Page:183


      921        1        /*T***********************************************************/
      922        2        /*T*                                                         */
      923        3        /*T* Copyright (c) Bull HN Information Systems Inc., 1997    */
      924        4        /*T*                                                         */
      925        5        /*T***********************************************************/
      926        6                                                                                      /**/
      927        7        ALA$READ_USERS: PROC (USERS_KEY, RW$USERS) ALTRET ;

      7  2 000000   000000 700200 xent  ALA$READ_US* TSX0  ! X66_AUTO_2
         2 000001   000262 000002                    ZERO    178,2

      928        8                  /***********************************************************/
      929        9                  /*                                                         */
      930       10                  /*      NAME:     ALA$READ_USERS                           */
      931       11                  /*                                                         */
      932       12                  /*      CALL:     CALL ALA$READ_USERS (USERS_KEY, RW$USERS) */
      933       13                  /*                                                         */
      934       14                  /*      INPUT:    USERS_KEY  is the KEY to the :USERS      */
      935       15                  /*                           record to be read.            */
      936       16                  /*                RW$USERS   is the buffer to read the     */
      937       17                  /*                           the USERS record into.        */
      938       18                  /*                                                         */
      939       19                  /*      OUTPUT:   Nothing is passed.                       */
      940       20                  /*                                                         */
      941       21                  /*      DESCRIPTION:  ALA$READ_USERS is the routine to     */
      942       22                  /*                read a users record from :USERS.         */
      943       23                  /*                                                         */
      944       24                  /*      ENTRIES:                                           */
      945       25                  /*                ALA$READ_USERS (USERS_KEY, RW$USERS)     */
      946       26                  /*                ALA$OPEN_USERS                           */
      947       27                  /*                ALA$CLOSE_USERS                          */
      948       28                  /*                                                         */
      949       29                  /***********************************************************/
      950       30                                                                                      /**/
      951       31        %EJECT;
PL6.E3A0      #003=ALA$READ_USERS File=ALA$LOGON.:E05TSI                         TUE 07/29/97 08:29 Page:184
      952       32        /*********************************************************************/
      953       33        /*   INCLUDE FILES   INCLUDE FILES   INCLUDE FILES   INCLUDE FILES   */
      954       34        /*********************************************************************/
      955       35                                                                                      /**/
      956       36              %INCLUDE CP_6 ;
      957      117              %INCLUDE CP_6_SUBS ;
      958      657              %INCLUDE AS_SUPER_C ;
      959     1092              %INCLUDE AL_LOGON_R ;
      960     1124                                                                                      /**/
      961     1125        %EJECT;
PL6.E3A0      #003=ALA$READ_USERS File=ALA$LOGON.:E05TSI                         TUE 07/29/97 08:29 Page:185
      962     1126        /*********************************************************************/
      963     1127        /*   CONSTANT DATA   CONSTANT DATA   CONSTANT DATA   CONSTANT DATA   */
      964     1128        /*********************************************************************/
      965     1129                                                                                      /**/
      966     1130    1   DCL 1 FILE_NAME CONSTANT ,
      967     1131    1         2 COUNT UBIN(9) UNAL INIT(6) ,
      968     1132    1         2 TEXT CHAR(31) UNAL INIT(':USERS') ;
      969     1133    1   DCL 1 FILE_ACCT CONSTANT SYMDEF,
      970     1134    1         2 TEXT CHAR(8) INIT(':SYS') ;
      971     1135                                                                                      /**/
      972     1136    1   DCL ALA$SYS_ERROR ENTRY;
      973     1137        %EJECT;
PL6.E3A0      #003=ALA$READ_USERS File=ALA$LOGON.:E05TSI                         TUE 07/29/97 08:29 Page:186
      974     1138        /*********************************************************************/
      975     1139        /*   PARAMETERS      PARAMETERS      PARAMETERS      PARAMETERS      */
      976     1140        /*********************************************************************/
      977     1141                                                                                      /**/
      978     1142              %AS_USERS (STR_NAME=RW$USERS, STCLASS=" ") ;
      979     1320    1   DCL 1 USERS_KEY ,
      980     1321    1         2 CNT UBIN(9) UNAL ,
      981     1322    1         2 TEXT CHAR(20) UNAL ;
      982     1323                                                                                      /**/
      983     1324        %EJECT;
PL6.E3A0      #003=ALA$READ_USERS File=ALA$LOGON.:E05TSI                         TUE 07/29/97 08:29 Page:187
      984     1325        /*********************************************************************/
      985     1326        /*   FPTS            FPTS            FPTS            FPTS            */
      986     1327        /*********************************************************************/
      987     1328                                                                                      /**/
      988     1329              %FPT_OPEN (FPTN=OPEN_USERS_FPT ,
      989     1330                          STCLASS = CONSTANT ,
      990     1331                          NAME = FILE_NAME ,
      991     1332                          ACCT = FILE_ACCT ,
      992     1333                          ASN  = FILE ,
      993     1334                          ACS = DIRECT ,
      994     1335                          ORG = KEYED ,
      995     1336                          FUN = UPDATE ,
      996     1337                          SHARE = ALL) ;
      997     1446              %FPT_OPEN ( FPTN=OPEN$USERS_FPT ,
      998     1447                          SCRUB = YES ,
      999     1448                          STCLASS = AUTO ) ;
     1000     1557              %FPT_CLOSE (FPTN = CLOSE_USERS_FPT ,
     1001     1558                          STCLASS = CONSTANT ,
     1002     1559                           DISP = SAVE) ;
     1003     1601              %FPT_CLOSE (  FPTN = CLOSE$USERS_FPT ,
     1004     1602                            STCLASS = AUTO ) ;
     1005     1644              %FPT_READ  (FPTN = READ_USERS_FPT ,
     1006     1645                          STCLASS = CONSTANT ,
     1007     1646                          KEYS = YES) ;
     1008     1685              %FPT_READ   (FPTN = FPT$READ ,
     1009     1686                            STCLASS = AUTO ) ;
     1010     1725              %FPT_READ     (FPTN = READ_SEQ_FPT ,
     1011     1726                              STCLASS = CONSTANT ,
     1012     1727                              KEYR = YES ,
     1013     1728                              KEYS = NO ) ;
     1014     1767              %FPT_READ     (FPTN = READ$SEQ_FPT ,
     1015     1768                              STCLASS = AUTO ) ;
     1016     1807              %FPT_WRITE ( FPTN = WRITE_USERS_FPT,
     1017     1808                            STCLASS = CONSTANT ) ;
     1018     1839              %FPT_WRITE ( FPTN = WRITE$USERS_FPT,
     1019     1840                            STCLASS = AUTO ) ;
     1020     1871              %VLP_NAME ( FPTN = VLP_USERSNAME ,
PL6.E3A0      #003=ALA$READ_USERS File=ALA$LOGON.:E05TSI                         TUE 07/29/97 08:29 Page:188
     1021     1872                          STCLASS = CONSTANT ,
     1022     1873                          NAME = 'M$USERS' ) ;
     1023     1900              %FPT_GETDCB ( FPTN = FPT_GETUSERS ,
     1024     1901                            STCLASS = CONSTANT ,
     1025     1902                            DCBNAME = VLP_USERSNAME ) ;
     1026     1917              %FPT_GETDCB ( FPTN = FPT$GETUSERS ,
     1027     1918                            STCLASS = AUTO ) ;
     1028     1933              %FPT_RELDCB ( FPTN = FPT_RELUSERS ,
     1029     1934                            STCLASS = CONSTANT ) ;
     1030     1948              %FPT_RELDCB ( FPTN = FPT$RELUSERS ,
     1031     1949                            STCLASS = AUTO ) ;
     1032     1963              %VLP_NAME ( FPTN = VLP_STARSNAME ,
     1033     1964                          STCLASS = CONSTANT ,
     1034     1965                          NAME = 'M$STARS' ) ;
     1035     1992              %FPT_GETDCB ( FPTN = FPT_GETSTARS ,
     1036     1993                            STCLASS = CONSTANT ,
     1037     1994                            DCBNAME = VLP_STARSNAME ) ;
     1038     2009              %FPT_GETDCB ( FPTN = FPT$GETSTARS ,
     1039     2010                            STCLASS = AUTO ) ;
     1040     2025              %FPT_RELDCB ( FPTN = FPT_RELSTARS ,
     1041     2026                            STCLASS = CONSTANT ) ;
     1042     2040              %FPT_RELDCB ( FPTN = FPT$RELSTARS ,
     1043     2041                            STCLASS = AUTO ) ;
     1044     2055              %FPT_ENQ ( FPTN = FPT_ENQ_USERS ,
     1045     2056                            STCLASS = CONSTANT ) ;
     1046     2074              %FPT_ENQ ( FPTN = FPT$ENQ_USERS ,
     1047     2075                            STCLASS = AUTO ) ;
     1048     2093              %FPT_DEQ ( FPTN = FPT_DEQ_USERS ,
     1049     2094                            STCLASS = CONSTANT ) ;
     1050     2111              %FPT_DEQ ( FPTN = FPT$DEQ_USERS ,
     1051     2112                            STCLASS = AUTO ) ;
     1052     2129                                                                                      /**/
     1053     2130        %EJECT;
PL6.E3A0      #003=ALA$READ_USERS File=ALA$LOGON.:E05TSI                         TUE 07/29/97 08:29 Page:189
     1054     2131        /********************************************************************/
     1055     2132        /*   PROCEDURE       PROCEDURE       PROCEDURE       PROCEDURE       */
     1056     2133        /*********************************************************************/
     1057     2134                                                              /**/
     1058     2135                                                              /*
     1059     2136                                                                   SET BUF$ IN READ FPT
     1060     2137                                                              */
     1061     2138    1         FPT$READ = READ_USERS_FPT ;

   2138  2 000002   000100 100400                    MLR     fill='000'O
         2 000003   000142 000070 1                  ADSC9   READ_USERS_FPT           cn=0,n=56
         2 000004   200136 000070                    ADSC9   FPT$READ,,AUTO           cn=0,n=56

     1062     2139    1         FPT$READ.BUF_ = VECTOR(RW$USERS) ;

   2139  2 000005   000000 235000 3                  LDA     0
         2 000006   200004 236100                    LDQ     @RW$USERS,,AUTO
         2 000007   200142 757100                    STAQ    FPT$READ+4,,AUTO

     1063     2140    1         FPT$READ.KEY_ = VECTOR(USERS_KEY) ;

   2140  2 000010   000001 235000 3                  LDA     1
         2 000011   200003 236100                    LDQ     @USERS_KEY,,AUTO
         2 000012   200140 757100                    STAQ    FPT$READ+2,,AUTO

     1064     2141    1         FPT$READ.V.DCB# = AL_DCB1# ;

   2141  2 000013   000000 720000 xsym               LXL0    AL_DCB1#
         2 000014   200146 740100                    STX0    FPT$READ+8,,AUTO

     1065     2142    1         FPT$READ.V_ = VECTOR(FPT$READ.V) ;

   2142  2 000015   000002 235000 3                  LDA     2
         2 000016   200260 452500                    STP2    FPT$DEQ_USERS+8,,AUTO
         2 000017   200260 236100                    LDQ     FPT$DEQ_USERS+8,,AUTO
         2 000020   000146 036003                    ADLQ    102,DU
         2 000021   200136 757100                    STAQ    FPT$READ,,AUTO
PL6.E3A0      #003=ALA$READ_USERS File=ALA$LOGON.:E05TSI                         TUE 07/29/97 08:29 Page:190

     1066     2143                                                              /*
     1067     2144                                                                    ***** Init. Enq fpt
     1068     2145                                                              */
     1069     2146    1         FPT$ENQ_USERS = FPT_ENQ_USERS;

   2146  2 000022   000100 100400                    MLR     fill='000'O
         2 000023   000246 000050 1                  ADSC9   FPT_ENQ_USERS            cn=0,n=40
         2 000024   200236 000050                    ADSC9   FPT$ENQ_USERS,,AUTO      cn=0,n=40

     1070     2147    1         FPT$ENQ_USERS.V_ = VECTOR(FPT$ENQ_USERS.V);

   2147  2 000025   000003 235000 3                  LDA     3
         2 000026   200260 452500                    STP2    FPT$DEQ_USERS+8,,AUTO
         2 000027   200260 236100                    LDQ     FPT$DEQ_USERS+8,,AUTO
         2 000030   000244 036003                    ADLQ    164,DU
         2 000031   200236 757100                    STAQ    FPT$ENQ_USERS,,AUTO

     1071     2148    1         FPT$ENQ_USERS.V.DCB# = AL_DCB1#;

   2148  2 000032   200244 740100                    STX0    FPT$ENQ_USERS+6,,AUTO

     1072     2149    1         FPT$ENQ_USERS.RNAME_ = VECTOR(USERS_KEY);

   2149  2 000033   000001 235000 3                  LDA     1
         2 000034   200003 236100                    LDQ     @USERS_KEY,,AUTO
         2 000035   200240 757100                    STAQ    FPT$ENQ_USERS+2,,AUTO

     1073     2150    1         FPT$ENQ_USERS.V.SHARE# = %NONE#;

   2150  2 000036   140000 236007                    LDQ     49152,DL
         2 000037   200244 256100                    ORSQ    FPT$ENQ_USERS+6,,AUTO

     1074     2151    1         CALL M$ENQ(FPT$ENQ_USERS) ALTRET(ENQ_DEQ_ERR);

   2151  2 000040   200236 630500                    EPPR0   FPT$ENQ_USERS,,AUTO
         2 000041   420002 713400                    CLIMB   alt,+8194
PL6.E3A0      #003=ALA$READ_USERS File=ALA$LOGON.:E05TSI                         TUE 07/29/97 08:29 Page:191
         2 000042   401000 401760                    pmme    nvectors=3
         2 000043   000072 702000 2                  TSX2    ENQ_DEQ_ERR

     1075     2152    1         CALL M$READ (FPT$READ) ALTRET(READ_ERR) ;

   2152  2 000044   200136 630500                    EPPR0   FPT$READ,,AUTO
         2 000045   440000 713400                    CLIMB   alt,read
         2 000046   401400 401760                    pmme    nvectors=4
         2 000047   000051 702000 2                  TSX2    READ_ERR

     1076     2153    1         RETURN ;

   2153  2 000050   000000 702200 xent               TSX2  ! X66_ARET

     1077     2154    1   READ_ERR:
     1078     2155                                                              /*
     1079     2156                                                                    ***** Init. Deq fpt
     1080     2157                                                              */
     1081     2158    1         FPT$DEQ_USERS = FPT_DEQ_USERS;

   2158  2 000051   000100 100400       READ_ERR     MLR     fill='000'O
         2 000052   000260 000040 1                  ADSC9   FPT_DEQ_USERS            cn=0,n=32
         2 000053   200250 000040                    ADSC9   FPT$DEQ_USERS,,AUTO      cn=0,n=32

     1082     2159    1         FPT$DEQ_USERS.V_ = VECTOR(FPT$DEQ_USERS.V);

   2159  2 000054   000004 235000 3                  LDA     4
         2 000055   200260 452500                    STP2    FPT$DEQ_USERS+8,,AUTO
         2 000056   200260 236100                    LDQ     FPT$DEQ_USERS+8,,AUTO
         2 000057   000256 036003                    ADLQ    174,DU
         2 000060   200250 757100                    STAQ    FPT$DEQ_USERS,,AUTO

     1083     2160    1         FPT$DEQ_USERS.V.DCB# = AL_DCB1#;

   2160  2 000061   000000 720000 xsym               LXL0    AL_DCB1#
         2 000062   200256 740100                    STX0    FPT$DEQ_USERS+6,,AUTO

PL6.E3A0      #003=ALA$READ_USERS File=ALA$LOGON.:E05TSI                         TUE 07/29/97 08:29 Page:192
     1084     2161    1         FPT$DEQ_USERS.RNAME_ = VECTOR(USERS_KEY);

   2161  2 000063   000001 235000 3                  LDA     1
         2 000064   200003 236100                    LDQ     @USERS_KEY,,AUTO
         2 000065   200252 757100                    STAQ    FPT$DEQ_USERS+2,,AUTO

     1085     2162    1         CALL M$DEQ(FPT$DEQ_USERS) ALTRET(ENQ_DEQ_ERR);

   2162  2 000066   200250 630500                    EPPR0   FPT$DEQ_USERS,,AUTO
         2 000067   420003 713400                    CLIMB   alt,+8195
         2 000070   401000 401760                    pmme    nvectors=3
         2 000071   000072 702000 2                  TSX2    ENQ_DEQ_ERR

     1086     2163    1   ENQ_DEQ_ERR: ALTRETURN ;

   2163  2 000072   000000 702200 xent  ENQ_DEQ_ERR  TSX2  ! X66_AALT

     1087     2164                                                              /**/
     1088     2165    1   ALA$READ_SEQ_USERS:
     1089     2166    1         ENTRY(USERS_KEY, RW$USERS) ALTRET ;

   2166  2 000073   000000 700200 xent  ALA$READ_SE* TSX0  ! X66_AUTO_2
         2 000074   000262 000002                    ZERO    178,2

     1090     2167    1         READ$SEQ_FPT = READ_SEQ_FPT ;

   2167  2 000075   000100 100400                    MLR     fill='000'O
         2 000076   000160 000070 1                  ADSC9   READ_SEQ_FPT             cn=0,n=56
         2 000077   200154 000070                    ADSC9   READ$SEQ_FPT,,AUTO       cn=0,n=56

     1091     2168    1         READ$SEQ_FPT.BUF_ = VECTOR(RW$USERS) ;

   2168  2 000100   000000 235000 3                  LDA     0
         2 000101   200004 236100                    LDQ     @RW$USERS,,AUTO
         2 000102   200160 757100                    STAQ    READ$SEQ_FPT+4,,AUTO

     1092     2169    1         READ$SEQ_FPT.KEY_ = VECTOR(USERS_KEY) ;
PL6.E3A0      #003=ALA$READ_USERS File=ALA$LOGON.:E05TSI                         TUE 07/29/97 08:29 Page:193

   2169  2 000103   000001 235000 3                  LDA     1
         2 000104   200003 236100                    LDQ     @USERS_KEY,,AUTO
         2 000105   200156 757100                    STAQ    READ$SEQ_FPT+2,,AUTO

     1093     2170    1         READ$SEQ_FPT.V.DCB# = AL_DCB1# ;

   2170  2 000106   000000 720000 xsym               LXL0    AL_DCB1#
         2 000107   200164 740100                    STX0    READ$SEQ_FPT+8,,AUTO

     1094     2171    1         READ$SEQ_FPT.V_ = VECTOR(READ$SEQ_FPT.V) ;

   2171  2 000110   000002 235000 3                  LDA     2
         2 000111   200260 452500                    STP2    FPT$DEQ_USERS+8,,AUTO
         2 000112   200260 236100                    LDQ     FPT$DEQ_USERS+8,,AUTO
         2 000113   000164 036003                    ADLQ    116,DU
         2 000114   200154 757100                    STAQ    READ$SEQ_FPT,,AUTO

     1095     2172    1         CALL M$READ( READ$SEQ_FPT ) ALTRET( READ_SEQ_ERR ) ;

   2172  2 000115   200154 630500                    EPPR0   READ$SEQ_FPT,,AUTO
         2 000116   440000 713400                    CLIMB   alt,read
         2 000117   401400 401760                    pmme    nvectors=4
         2 000120   000122 702000 2                  TSX2    READ_SEQ_ERR

     1096     2173    1         RETURN ;

   2173  2 000121   000000 702200 xent               TSX2  ! X66_ARET

     1097     2174    1   READ_SEQ_ERR: ALTRETURN ;

   2174  2 000122   000000 702200 xent  READ_SEQ_ERR TSX2  ! X66_AALT

     1098     2175                                                              /**/
     1099     2176    1   ALA$OPEN_USERS:
     1100     2177    1         ENTRY     ALTRET ;

PL6.E3A0      #003=ALA$READ_USERS File=ALA$LOGON.:E05TSI                         TUE 07/29/97 08:29 Page:194
   2177  2 000123   000000 700200 xent  ALA$OPEN_US* TSX0  ! X66_AUTO_2
         2 000124   000262 000002                    ZERO    178,2

     1101     2178    1         OPEN$USERS_FPT = OPEN_USERS_FPT ;

   2178  2 000125   000100 100400                    MLR     fill='000'O
         2 000126   000012 000350 1                  ADSC9   OPEN_USERS_FPT           cn=0,n=232
         2 000127   200006 000350                    ADSC9   OPEN$USERS_FPT,,AUTO     cn=0,n=232

     1102     2179    1         OPEN$USERS_FPT.V.DCB# = AL_DCB1# ;

   2179  2 000130   000000 720000 xsym               LXL0    AL_DCB1#
         2 000131   200052 740100                    STX0    OPEN$USERS_FPT+36,,AUTO

     1103     2180    1         OPEN$USERS_FPT.V_ = VECTOR(OPEN$USERS_FPT.V) ;

   2180  2 000132   000005 235000 3                  LDA     5
         2 000133   200260 452500                    STP2    FPT$DEQ_USERS+8,,AUTO
         2 000134   200260 236100                    LDQ     FPT$DEQ_USERS+8,,AUTO
         2 000135   000052 036003                    ADLQ    42,DU
         2 000136   200006 757100                    STAQ    OPEN$USERS_FPT,,AUTO

     1104     2181    1         CALL M$OPEN (OPEN$USERS_FPT) ALTRET(OPEN_ERR) ;

   2181  2 000137   200006 630500                    EPPR0   OPEN$USERS_FPT,,AUTO
         2 000140   450000 713400                    CLIMB   alt,open
         2 000141   410400 401760                    pmme    nvectors=18
         2 000142   000144 702000 2                  TSX2    OPEN_ERR

     1105     2182    1         RETURN ;

   2182  2 000143   000000 702200 xent               TSX2  ! X66_ARET

     1106     2183    1   OPEN_ERR: ALTRETURN ;

   2183  2 000144   000000 702200 xent  OPEN_ERR     TSX2  ! X66_AALT

PL6.E3A0      #003=ALA$READ_USERS File=ALA$LOGON.:E05TSI                         TUE 07/29/97 08:29 Page:195
     1107     2184                                                              /**/
     1108     2185    1   ALA$WRITE_USERS:
     1109     2186    1         ENTRY(USERS_KEY, RW$USERS) ALTRET ;

   2186  2 000145   000000 700200 xent  ALA$WRITE_U* TSX0  ! X66_AUTO_2
         2 000146   000262 000002                    ZERO    178,2

     1110     2187    1         WRITE$USERS_FPT = WRITE_USERS_FPT ;

   2187  2 000147   000100 100400                    MLR     fill='000'O
         2 000150   000176 000060 1                  ADSC9   WRITE_USERS_FPT          cn=0,n=48
         2 000151   200172 000060                    ADSC9   WRITE$USERS_FPT,,AUTO    cn=0,n=48

     1111     2188    1         WRITE$USERS_FPT.V_ = VECTOR(WRITE$USERS_FPT.V) ;

   2188  2 000152   000003 235000 3                  LDA     3
         2 000153   200260 452500                    STP2    FPT$DEQ_USERS+8,,AUTO
         2 000154   200260 236100                    LDQ     FPT$DEQ_USERS+8,,AUTO
         2 000155   000202 036003                    ADLQ    130,DU
         2 000156   200172 757100                    STAQ    WRITE$USERS_FPT,,AUTO

     1112     2189    1         WRITE$USERS_FPT.V.DCB# = AL_DCB1# ;

   2189  2 000157   000000 720000 xsym               LXL0    AL_DCB1#
         2 000160   200202 740100                    STX0    WRITE$USERS_FPT+8,,AUTO

     1113     2190    1         WRITE$USERS_FPT.BUF_ = VECTOR(RW$USERS);

   2190  2 000161   000000 235000 3                  LDA     0
         2 000162   200004 236100                    LDQ     @RW$USERS,,AUTO
         2 000163   200176 757100                    STAQ    WRITE$USERS_FPT+4,,AUTO

     1114     2191    1         WRITE$USERS_FPT.KEY_ = VECTOR(USERS_KEY);

   2191  2 000164   000001 235000 3                  LDA     1
         2 000165   200003 236100                    LDQ     @USERS_KEY,,AUTO
         2 000166   200174 757100                    STAQ    WRITE$USERS_FPT+2,,AUTO
PL6.E3A0      #003=ALA$READ_USERS File=ALA$LOGON.:E05TSI                         TUE 07/29/97 08:29 Page:196

     1115     2192    1         CALL M$WRITE (WRITE$USERS_FPT) ALTRET(WRITE_ERR) ;

   2192  2 000167   200172 630500                    EPPR0   WRITE$USERS_FPT,,AUTO
         2 000170   440001 713400                    CLIMB   alt,write
         2 000171   401400 401760                    pmme    nvectors=4
         2 000172   000215 702000 2                  TSX2    WRITE_ERR

     1116     2193                                                              /*
     1117     2194                                                                    ***** Init. Deq fpt
     1118     2195                                                              */
     1119     2196    1         FPT$DEQ_USERS = FPT_DEQ_USERS;

   2196  2 000173   000100 100400                    MLR     fill='000'O
         2 000174   000260 000040 1                  ADSC9   FPT_DEQ_USERS            cn=0,n=32
         2 000175   200250 000040                    ADSC9   FPT$DEQ_USERS,,AUTO      cn=0,n=32

     1120     2197    1         FPT$DEQ_USERS.V_ = VECTOR(FPT$DEQ_USERS.V);

   2197  2 000176   000004 235000 3                  LDA     4
         2 000177   200260 452500                    STP2    FPT$DEQ_USERS+8,,AUTO
         2 000200   200260 236100                    LDQ     FPT$DEQ_USERS+8,,AUTO
         2 000201   000256 036003                    ADLQ    174,DU
         2 000202   200250 757100                    STAQ    FPT$DEQ_USERS,,AUTO

     1121     2198    1         FPT$DEQ_USERS.V.DCB# = AL_DCB1#;

   2198  2 000203   000000 720000 xsym               LXL0    AL_DCB1#
         2 000204   200256 740100                    STX0    FPT$DEQ_USERS+6,,AUTO

     1122     2199    1         FPT$DEQ_USERS.RNAME_ = VECTOR(USERS_KEY);

   2199  2 000205   000001 235000 3                  LDA     1
         2 000206   200003 236100                    LDQ     @USERS_KEY,,AUTO
         2 000207   200252 757100                    STAQ    FPT$DEQ_USERS+2,,AUTO

     1123     2200    1         CALL M$DEQ(FPT$DEQ_USERS) ALTRET(ENQ_DEQ_ERR);
PL6.E3A0      #003=ALA$READ_USERS File=ALA$LOGON.:E05TSI                         TUE 07/29/97 08:29 Page:197

   2200  2 000210   200250 630500                    EPPR0   FPT$DEQ_USERS,,AUTO
         2 000211   420003 713400                    CLIMB   alt,+8195
         2 000212   401000 401760                    pmme    nvectors=3
         2 000213   000072 702000 2                  TSX2    ENQ_DEQ_ERR

     1124     2201    1         RETURN ;

   2201  2 000214   000000 702200 xent               TSX2  ! X66_ARET

     1125     2202    1   WRITE_ERR:
     1126     2203                                                              /*
     1127     2204                                                                    ***** Init. Deq fpt
     1128     2205                                                              */
     1129     2206    1         FPT$DEQ_USERS = FPT_DEQ_USERS;

   2206  2 000215   000100 100400       WRITE_ERR    MLR     fill='000'O
         2 000216   000260 000040 1                  ADSC9   FPT_DEQ_USERS            cn=0,n=32
         2 000217   200250 000040                    ADSC9   FPT$DEQ_USERS,,AUTO      cn=0,n=32

     1130     2207    1         FPT$DEQ_USERS.V_ = VECTOR(FPT$DEQ_USERS.V);

   2207  2 000220   000004 235000 3                  LDA     4
         2 000221   200260 452500                    STP2    FPT$DEQ_USERS+8,,AUTO
         2 000222   200260 236100                    LDQ     FPT$DEQ_USERS+8,,AUTO
         2 000223   000256 036003                    ADLQ    174,DU
         2 000224   200250 757100                    STAQ    FPT$DEQ_USERS,,AUTO

     1131     2208    1         FPT$DEQ_USERS.V.DCB# = AL_DCB1#;

   2208  2 000225   000000 720000 xsym               LXL0    AL_DCB1#
         2 000226   200256 740100                    STX0    FPT$DEQ_USERS+6,,AUTO

     1132     2209    1         FPT$DEQ_USERS.RNAME_ = VECTOR(USERS_KEY);

   2209  2 000227   000001 235000 3                  LDA     1
         2 000230   200003 236100                    LDQ     @USERS_KEY,,AUTO
PL6.E3A0      #003=ALA$READ_USERS File=ALA$LOGON.:E05TSI                         TUE 07/29/97 08:29 Page:198
         2 000231   200252 757100                    STAQ    FPT$DEQ_USERS+2,,AUTO

     1133     2210    1         CALL M$DEQ(FPT$DEQ_USERS) ALTRET(ENQ_DEQ_ERR);

   2210  2 000232   200250 630500                    EPPR0   FPT$DEQ_USERS,,AUTO
         2 000233   420003 713400                    CLIMB   alt,+8195
         2 000234   401000 401760                    pmme    nvectors=3
         2 000235   000072 702000 2                  TSX2    ENQ_DEQ_ERR

     1134     2211    1         ALTRETURN ;

   2211  2 000236   000000 702200 xent               TSX2  ! X66_AALT

     1135     2212                                                              /**/
     1136     2213    1   ALA$CLOSE_USERS:
     1137     2214    1         ENTRY     ALTRET ;

   2214  2 000237   000000 700200 xent  ALA$CLOSE_U* TSX0  ! X66_AUTO_2
         2 000240   000262 000002                    ZERO    178,2

     1138     2215    1         CLOSE$USERS_FPT = CLOSE_USERS_FPT ;

   2215  2 000241   000100 100400                    MLR     fill='000'O
         2 000242   000104 000170 1                  ADSC9   CLOSE_USERS_FPT          cn=0,n=120
         2 000243   200100 000170                    ADSC9   CLOSE$USERS_FPT,,AUTO    cn=0,n=120

     1139     2216    1         CLOSE$USERS_FPT.V.DCB# = AL_DCB1# ;

   2216  2 000244   000000 720000 xsym               LXL0    AL_DCB1#
         2 000245   200132 740100                    STX0    CLOSE$USERS_FPT+26,,AUTO

     1140     2217    1         CLOSE$USERS_FPT.V_ = VECTOR( CLOSE$USERS_FPT.V ) ;

   2217  2 000246   000003 235000 3                  LDA     3
         2 000247   200260 452500                    STP2    FPT$DEQ_USERS+8,,AUTO
         2 000250   200260 236100                    LDQ     FPT$DEQ_USERS+8,,AUTO
         2 000251   000132 036003                    ADLQ    90,DU
PL6.E3A0      #003=ALA$READ_USERS File=ALA$LOGON.:E05TSI                         TUE 07/29/97 08:29 Page:199
         2 000252   200100 757100                    STAQ    CLOSE$USERS_FPT,,AUTO

     1141     2218    1         CALL M$CLOSE (CLOSE$USERS_FPT) ALTRET (CLOSE_ERR) ;

   2218  2 000253   200100 630500                    EPPR0   CLOSE$USERS_FPT,,AUTO
         2 000254   450001 713400                    CLIMB   alt,close
         2 000255   406000 401760                    pmme    nvectors=13
         2 000256   000260 702000 2                  TSX2    CLOSE_ERR

     1142     2219    1         RETURN ;

   2219  2 000257   000000 702200 xent               TSX2  ! X66_ARET

     1143     2220    1   CLOSE_ERR: RETURN ;

   2220  2 000260   000000 702200 xent  CLOSE_ERR    TSX2  ! X66_ARET

     1144     2221                                                              /**/
     1145     2222    1   ALA$GETUSERS:
     1146     2223    1         ENTRY ALTRET ;

   2223  2 000261   000000 700200 xent  ALA$GETUSERS TSX0  ! X66_AUTO_2
         2 000262   000262 000002                    ZERO    178,2

     1147     2224    1         FPT$GETUSERS = FPT_GETUSERS ;

   2224  2 000263   000100 100400                    MLR     fill='000'O
         2 000264   000214 000040 1                  ADSC9   FPT_GETUSERS             cn=0,n=32
         2 000265   200206 000040                    ADSC9   FPT$GETUSERS,,AUTO       cn=0,n=32

     1148     2225    1         FPT$GETUSERS.V_ = VECTOR(FPT$GETUSERS.V) ;

   2225  2 000266   000004 235000 3                  LDA     4
         2 000267   200260 452500                    STP2    FPT$DEQ_USERS+8,,AUTO
         2 000270   200260 236100                    LDQ     FPT$DEQ_USERS+8,,AUTO
         2 000271   000214 036003                    ADLQ    140,DU
         2 000272   200206 757100                    STAQ    FPT$GETUSERS,,AUTO
PL6.E3A0      #003=ALA$READ_USERS File=ALA$LOGON.:E05TSI                         TUE 07/29/97 08:29 Page:200

     1149     2226    1         FPT$GETUSERS.V.DCB# = AL_DCB1# ;

   2226  2 000273   000000 720000 xsym               LXL0    AL_DCB1#
         2 000274   200214 740100                    STX0    FPT$GETUSERS+6,,AUTO

     1150     2227    1         CALL M$GETDCB( FPT$GETUSERS ) ALTRET( NODCB ) ;

   2227  2 000275   200206 630500                    EPPR0   FPT$GETUSERS,,AUTO
         2 000276   460002 713400                    CLIMB   alt,+24578
         2 000277   401000 401760                    pmme    nvectors=3
         2 000300   000302 702000 2                  TSX2    NODCB

     1151     2228    1         RETURN ;

   2228  2 000301   000000 702200 xent               TSX2  ! X66_ARET

     1152     2229    1   NODCB: CALL ALA$SYS_ERROR;

   2229  2 000302   000002 631400 xsym  NODCB        EPPR1   B_VECTNIL+2
         2 000303   000000 701000 xent               TSX1    ALA$SYS_ERROR
         2 000304   000000 011000                    NOP     0

     1153     2230    1         CALL M$XXX;

   2230  2 000305   000003 713400                    CLIMB   3
         2 000306   000000 401760                    pmme    nvectors=0
         2 000307   000312 710000 2                  TRA     s:2234

     1154     2231                                                              /**/
     1155     2232    1   ALA$GETSTARS:
     1156     2233    1         ENTRY ALTRET ;

   2233  2 000310   000000 700200 xent  ALA$GETSTARS TSX0  ! X66_AUTO_2
         2 000311   000262 000002                    ZERO    178,2

     1157     2234    1         FPT$GETSTARS = FPT_GETSTARS ;
PL6.E3A0      #003=ALA$READ_USERS File=ALA$LOGON.:E05TSI                         TUE 07/29/97 08:29 Page:201

   2234  2 000312   000100 100400                    MLR     fill='000'O
         2 000313   000232 000040 1                  ADSC9   FPT_GETSTARS             cn=0,n=32
         2 000314   200222 000040                    ADSC9   FPT$GETSTARS,,AUTO       cn=0,n=32

     1158     2235    1         FPT$GETSTARS.V_ = VECTOR(FPT$GETSTARS.V) ;

   2235  2 000315   000004 235000 3                  LDA     4
         2 000316   200260 452500                    STP2    FPT$DEQ_USERS+8,,AUTO
         2 000317   200260 236100                    LDQ     FPT$DEQ_USERS+8,,AUTO
         2 000320   000230 036003                    ADLQ    152,DU
         2 000321   200222 757100                    STAQ    FPT$GETSTARS,,AUTO

     1159     2236    1         FPT$GETSTARS.V.DCB# = AL_DCB2# ;

   2236  2 000322   000000 720000 xsym               LXL0    AL_DCB2#
         2 000323   200230 740100                    STX0    FPT$GETSTARS+6,,AUTO

     1160     2237    1         CALL M$GETDCB( FPT$GETSTARS ) ALTRET( NODCB1 ) ;

   2237  2 000324   200222 630500                    EPPR0   FPT$GETSTARS,,AUTO
         2 000325   460002 713400                    CLIMB   alt,+24578
         2 000326   401000 401760                    pmme    nvectors=3
         2 000327   000331 702000 2                  TSX2    NODCB1

     1161     2238    1         RETURN ;

   2238  2 000330   000000 702200 xent               TSX2  ! X66_ARET

     1162     2239    1   NODCB1: CALL ALA$SYS_ERROR;

   2239  2 000331   000002 631400 xsym  NODCB1       EPPR1   B_VECTNIL+2
         2 000332   000000 701000 xent               TSX1    ALA$SYS_ERROR
         2 000333   000000 011000                    NOP     0

     1163     2240    1         CALL M$XXX;

PL6.E3A0      #003=ALA$READ_USERS File=ALA$LOGON.:E05TSI                         TUE 07/29/97 08:29 Page:202
   2240  2 000334   000003 713400                    CLIMB   3
         2 000335   000000 401760                    pmme    nvectors=0
         2 000336   000341 710000 2                  TRA     s:2244

     1164     2241                                                              /**/
     1165     2242    1   ALA$RELUSERS:
     1166     2243    1         ENTRY ALTRET ;

   2243  2 000337   000000 700200 xent  ALA$RELUSERS TSX0  ! X66_AUTO_2
         2 000340   000262 000002                    ZERO    178,2

     1167     2244    1         FPT$RELUSERS = FPT_RELUSERS ;

   2244  2 000341   000100 100400                    MLR     fill='000'O
         2 000342   000224 000020 1                  ADSC9   FPT_RELUSERS             cn=0,n=16
         2 000343   200216 000020                    ADSC9   FPT$RELUSERS,,AUTO       cn=0,n=16

     1168     2245    1         FPT$RELUSERS.V.DCB# = AL_DCB1# ;

   2245  2 000344   000000 720000 xsym               LXL0    AL_DCB1#
         2 000345   200220 740100                    STX0    FPT$RELUSERS+2,,AUTO

     1169     2246    1         FPT$RELUSERS.V_ = VECTOR( FPT$RELUSERS.V ) ;

   2246  2 000346   000004 235000 3                  LDA     4
         2 000347   200260 452500                    STP2    FPT$DEQ_USERS+8,,AUTO
         2 000350   200260 236100                    LDQ     FPT$DEQ_USERS+8,,AUTO
         2 000351   000220 036003                    ADLQ    144,DU
         2 000352   200216 757100                    STAQ    FPT$RELUSERS,,AUTO

     1170     2247    1         CALL M$RELDCB( FPT$RELUSERS ) ALTRET( NODCB2 ) ;

   2247  2 000353   200216 630500                    EPPR0   FPT$RELUSERS,,AUTO
         2 000354   460003 713400                    CLIMB   alt,+24579
         2 000355   400000 401760                    pmme    nvectors=1
         2 000356   000360 702000 2                  TSX2    NODCB2

PL6.E3A0      #003=ALA$READ_USERS File=ALA$LOGON.:E05TSI                         TUE 07/29/97 08:29 Page:203
     1171     2248    1         RETURN ;

   2248  2 000357   000000 702200 xent               TSX2  ! X66_ARET

     1172     2249    1   NODCB2: RETURN ;

   2249  2 000360   000000 702200 xent  NODCB2       TSX2  ! X66_ARET

     1173     2250                                                              /**/
     1174     2251    1   ALA$RELSTARS:
     1175     2252    1         ENTRY ALTRET ;

   2252  2 000361   000000 700200 xent  ALA$RELSTARS TSX0  ! X66_AUTO_2
         2 000362   000262 000002                    ZERO    178,2

     1176     2253    1         FPT$RELSTARS = FPT_RELSTARS ;

   2253  2 000363   000100 100400                    MLR     fill='000'O
         2 000364   000242 000020 1                  ADSC9   FPT_RELSTARS             cn=0,n=16
         2 000365   200232 000020                    ADSC9   FPT$RELSTARS,,AUTO       cn=0,n=16

     1177     2254    1         FPT$RELSTARS.V.DCB# = AL_DCB2# ;

   2254  2 000366   000000 720000 xsym               LXL0    AL_DCB2#
         2 000367   200234 740100                    STX0    FPT$RELSTARS+2,,AUTO

     1178     2255    1         FPT$RELSTARS.V_ = VECTOR( FPT$RELSTARS.V ) ;

   2255  2 000370   000004 235000 3                  LDA     4
         2 000371   200260 452500                    STP2    FPT$DEQ_USERS+8,,AUTO
         2 000372   200260 236100                    LDQ     FPT$DEQ_USERS+8,,AUTO
         2 000373   000234 036003                    ADLQ    156,DU
         2 000374   200232 757100                    STAQ    FPT$RELSTARS,,AUTO

     1179     2256    1         CALL M$RELDCB( FPT$RELSTARS ) ALTRET( NODCB3 ) ;

   2256  2 000375   200232 630500                    EPPR0   FPT$RELSTARS,,AUTO
PL6.E3A0      #003=ALA$READ_USERS File=ALA$LOGON.:E05TSI                         TUE 07/29/97 08:29 Page:204
         2 000376   460003 713400                    CLIMB   alt,+24579
         2 000377   400000 401760                    pmme    nvectors=1
         2 000400   000402 702000 2                  TSX2    NODCB3

     1180     2257    1         RETURN ;

   2257  2 000401   000000 702200 xent               TSX2  ! X66_ARET

     1181     2258    1   NODCB3: RETURN ;

   2258  2 000402   000000 702200 xent  NODCB3       TSX2  ! X66_ARET
     1182     2259                                                              /**/
     1183     2260    1   END   ALA$READ_USERS ;
     1184     2261        %EOD ;

PL6.E3A0      #003=ALA$READ_USERS File=ALA$LOGON.:E05TSI                         TUE 07/29/97 08:29 Page:205
--  Include file information  --

   AL_LOGON_R.:E05TOU  cannot be made into a system file and is referenced.
   AS_SUPER_C.:E05TOU  is referenced.
   CP_6_SUBS.:E05TOU  is referenced.
   CP_6.:E05TOU  cannot be made into a system file and is referenced.
   B$JIT_C.:E05TOU  was found in the system file and is never referenced.
   CP_6_C.:E05TOU  was found in the system file and is referenced.
      No diagnostics issued in procedure ALA$READ_USERS.
PL6.E3A0      #003=ALA$READ_USERS File=ALA$LOGON.:E05TSI                         TUE 07/29/97 08:29 Page:206

 **** Variables and constants ****

  ****  Section 001 RoData ALA$READ_USERS

  ****  Scalars and arrays  ****
OctLoc.c.b A Datatyp(siz) R M Lvl/name                 OctLoc.c.b A Datatyp(siz) R M Lvl/name

   104-0-0/d STRC(1080)  r     1 CLOSE_USERS_FPT           10-0-0/c STRC(72)    r     1 FILE_ACCT
     0-0-0/c STRC(288)   r     1 FILE_NAME                260-0-0/d STRC(288)   r     1 FPT_DEQ_USERS
   246-0-0/d STRC(360)   r     1 FPT_ENQ_USERS            232-0-0/d STRC(288)   r     1 FPT_GETSTARS
   214-0-0/d STRC(288)   r     1 FPT_GETUSERS             242-0-0/d STRC(144)   r     1 FPT_RELSTARS
   224-0-0/d STRC(144)   r     1 FPT_RELUSERS              12-0-0/d STRC(2088)  r     1 OPEN_USERS_FPT
   160-0-0/d STRC(504)   r     1 READ_SEQ_FPT             142-0-0/d STRC(504)   r     1 READ_USERS_FPT
   230-0-0/c STRC(72)    r     1 VLP_STARSNAME            212-0-0/c STRC(72)    r     1 VLP_USERSNAME
   176-0-0/d STRC(432)   r     1 WRITE_USERS_FPT

  ****  Auto variables  ****

  ****  Scalars and arrays  ****
OctLoc.c.b A Datatyp(siz) R M Lvl/name                 OctLoc.c.b A Datatyp(siz) R M Lvl/name

     4-0-0/w PTR         r     1 @RW$USERS                  3-0-0/w PTR         r     1 @USERS_KEY
   100-0-0/d STRC(1080)  r     1 CLOSE$USERS_FPT          250-0-0/d STRC(288)   r     1 FPT$DEQ_USERS
   236-0-0/d STRC(360)   r     1 FPT$ENQ_USERS            222-0-0/d STRC(288)   r     1 FPT$GETSTARS
   206-0-0/d STRC(288)   r     1 FPT$GETUSERS             136-0-0/d STRC(504)   r     1 FPT$READ
   232-0-0/d STRC(144)   r     1 FPT$RELSTARS             216-0-0/d STRC(144)   r     1 FPT$RELUSERS
     6-0-0/d STRC(2088)  r     1 OPEN$USERS_FPT           154-0-0/d STRC(504)   r     1 READ$SEQ_FPT
    *0-0-0/w STRC(18576) r     1 RW$USERS                  *0-0-0/c STRC(189)   r     1 USERS_KEY
   172-0-0/d STRC(432)   r     1 WRITE$USERS_FPT

  ****  SYMREF variables  ****

  ****  Scalars and arrays  ****
OctLoc.c.b A Datatyp(siz) R M Lvl/name                 OctLoc.c.b A Datatyp(siz) R M Lvl/name

     0-0-0/w UBIN        r     1 AL_DCB1#                   0-0-0/w UBIN        r     1 AL_DCB2#

PL6.E3A0      #003=ALA$READ_USERS File=ALA$LOGON.:E05TSI                         TUE 07/29/97 08:29 Page:207

   Procedure ALA$READ_USERS requires 259 words for executable code.
   Procedure ALA$READ_USERS requires 178 words of local(AUTO) storage.
PL6.E3A0      #003=ALA$READ_USERS File=ALA$LOGON.:E05TSI                         TUE 07/29/97 08:29 Page:208
          *** CROSS REFERENCE LISTING ***
**     DENOTES     IDENTIFIER DEFINITION
<<                 IDENTIFIER'S VALUE SET
>>                 IDENTIFIER'S VALUE USED
<>                 IDENTIFIER SET AND/OR USED
--                 IDENTIFIER REFERENCED
PL6.E3A0      #003=ALA$READ_USERS File=ALA$LOGON.:E05TSI                         TUE 07/29/97 08:29 Page:209
          MINI XREF LISTING

ALA$SYS_ERROR
      1136**DCL-ENT  2229--CALL     2239--CALL
AL_DCB1#
      1120**DCL      2141>>ASSIGN   2148>>ASSIGN   2160>>ASSIGN   2170>>ASSIGN   2179>>ASSIGN   2189>>ASSIGN
      2198>>ASSIGN   2208>>ASSIGN   2216>>ASSIGN   2226>>ASSIGN   2245>>ASSIGN
AL_DCB2#
      1121**DCL      2236>>ASSIGN   2254>>ASSIGN
CLOSE$USERS_FPT
      1625**DCL      2215<<ASSIGN   2218<>CALL
CLOSE$USERS_FPT.SN_
      1625**DCL      1625--REDEF
CLOSE$USERS_FPT.UTL_
      1626**DCL      1626--REDEF
CLOSE$USERS_FPT.V
      1630**DCL      2217--ASSIGN
CLOSE$USERS_FPT.V.DCB#
      1631**DCL      2216<<ASSIGN
CLOSE$USERS_FPT.V.EXPIRE#
      1640**DCL      1640--REDEF
CLOSE$USERS_FPT.V.TYPE#
      1638**DCL      1638--REDEF
CLOSE$USERS_FPT.V.XTNSIZE#
      1635**DCL      1635--REDEF    1637--REDEF
CLOSE$USERS_FPT.V_
      1625**DCL      2217<<ASSIGN
CLOSE_ERR
      2220**LABEL    2218--CALLALT
CLOSE_USERS_FPT
      1582**DCL      2215>>ASSIGN
CLOSE_USERS_FPT.SN_
      1582**DCL      1582--REDEF
CLOSE_USERS_FPT.UTL_
PL6.E3A0      #003=ALA$READ_USERS File=ALA$LOGON.:E05TSI                         TUE 07/29/97 08:29 Page:210
      1583**DCL      1583--REDEF
CLOSE_USERS_FPT.V
      1587**DCL      1582--DCLINIT
CLOSE_USERS_FPT.V.EXPIRE#
      1597**DCL      1597--REDEF
CLOSE_USERS_FPT.V.TYPE#
      1595**DCL      1595--REDEF
CLOSE_USERS_FPT.V.XTNSIZE#
      1592**DCL      1592--REDEF    1594--REDEF
ENQ_DEQ_ERR
      2163**LABEL    2151--CALLALT  2162--CALLALT  2200--CALLALT  2210--CALLALT
FILE_ACCT
      1133**DCL      1407--DCLINIT
FILE_NAME
      1130**DCL      1403--DCLINIT
FPT$DEQ_USERS
      2123**DCL      2158<<ASSIGN   2162<>CALL     2196<<ASSIGN   2200<>CALL     2206<<ASSIGN   2210<>CALL
FPT$DEQ_USERS.RNAME_
      2123**DCL      2161<<ASSIGN   2199<<ASSIGN   2209<<ASSIGN
FPT$DEQ_USERS.V
      2124**DCL      2159--ASSIGN   2197--ASSIGN   2207--ASSIGN
FPT$DEQ_USERS.V.DCB#
      2124**DCL      2160<<ASSIGN   2198<<ASSIGN   2208<<ASSIGN
FPT$DEQ_USERS.V_
      2123**DCL      2159<<ASSIGN   2197<<ASSIGN   2207<<ASSIGN
FPT$ENQ_USERS
      2086**DCL      2146<<ASSIGN   2151<>CALL
FPT$ENQ_USERS.RNAME_
      2086**DCL      2149<<ASSIGN
FPT$ENQ_USERS.V
      2087**DCL      2147--ASSIGN
FPT$ENQ_USERS.V.DCB#
      2087**DCL      2148<<ASSIGN
FPT$ENQ_USERS.V.SHARE#
      2088**DCL      2150<<ASSIGN
FPT$ENQ_USERS.V_
PL6.E3A0      #003=ALA$READ_USERS File=ALA$LOGON.:E05TSI                         TUE 07/29/97 08:29 Page:211
      2086**DCL      2147<<ASSIGN
FPT$GETSTARS
      2021**DCL      2234<<ASSIGN   2237<>CALL
FPT$GETSTARS.V
      2022**DCL      2235--ASSIGN
FPT$GETSTARS.V.DCB#
      2022**DCL      2236<<ASSIGN
FPT$GETSTARS.V_
      2021**DCL      2235<<ASSIGN
FPT$GETUSERS
      1929**DCL      2224<<ASSIGN   2227<>CALL
FPT$GETUSERS.V
      1930**DCL      2225--ASSIGN
FPT$GETUSERS.V.DCB#
      1930**DCL      2226<<ASSIGN
FPT$GETUSERS.V_
      1929**DCL      2225<<ASSIGN
FPT$READ
      1703**DCL      2138<<ASSIGN   2152<>CALL
FPT$READ.BUF_
      1705**DCL      2139<<ASSIGN
FPT$READ.KEY_
      1703**DCL      2140<<ASSIGN
FPT$READ.STATION_
      1706**DCL      1707--REDEF
FPT$READ.V
      1707**DCL      2142--ASSIGN
FPT$READ.V.DCB#
      1707**DCL      2141<<ASSIGN
FPT$READ.V.DVBYTE.REREAD#
      1718**DCL      1718--REDEF
FPT$READ.V.INDX#
      1716**DCL      1716--REDEF
FPT$READ.V_
      1703**DCL      2142<<ASSIGN
FPT$RELSTARS
PL6.E3A0      #003=ALA$READ_USERS File=ALA$LOGON.:E05TSI                         TUE 07/29/97 08:29 Page:212
      2052**DCL      2253<<ASSIGN   2256<>CALL
FPT$RELSTARS.V
      2052**DCL      2255--ASSIGN
FPT$RELSTARS.V.DCB#
      2052**DCL      2254<<ASSIGN
FPT$RELSTARS.V_
      2052**DCL      2255<<ASSIGN
FPT$RELUSERS
      1960**DCL      2244<<ASSIGN   2247<>CALL
FPT$RELUSERS.V
      1960**DCL      2246--ASSIGN
FPT$RELUSERS.V.DCB#
      1960**DCL      2245<<ASSIGN
FPT$RELUSERS.V_
      1960**DCL      2246<<ASSIGN
FPT_DEQ_USERS
      2105**DCL      2158>>ASSIGN   2196>>ASSIGN   2206>>ASSIGN
FPT_DEQ_USERS.V
      2106**DCL      2105--DCLINIT
FPT_ENQ_USERS
      2067**DCL      2146>>ASSIGN
FPT_ENQ_USERS.V
      2068**DCL      2067--DCLINIT
FPT_GETSTARS
      2005**DCL      2234>>ASSIGN
FPT_GETSTARS.V
      2006**DCL      2005--DCLINIT
FPT_GETUSERS
      1913**DCL      2224>>ASSIGN
FPT_GETUSERS.V
      1914**DCL      1913--DCLINIT
FPT_RELSTARS
      2037**DCL      2253>>ASSIGN
FPT_RELSTARS.V
      2037**DCL      2037--DCLINIT
FPT_RELUSERS
PL6.E3A0      #003=ALA$READ_USERS File=ALA$LOGON.:E05TSI                         TUE 07/29/97 08:29 Page:213
      1945**DCL      2244>>ASSIGN
FPT_RELUSERS.V
      1945**DCL      1945--DCLINIT
M$CLOSE
        45**DCL-ENT  2218--CALL
M$DEQ
       112**DCL-ENT  2162--CALL     2200--CALL     2210--CALL
M$ENQ
       111**DCL-ENT  2151--CALL
M$GETDCB
        51**DCL-ENT  2227--CALL     2237--CALL
M$OPEN
        45**DCL-ENT  2181--CALL
M$READ
        46**DCL-ENT  2152--CALL     2172--CALL
M$RELDCB
        51**DCL-ENT  2247--CALL     2256--CALL
M$WRITE
        46**DCL-ENT  2192--CALL
M$XXX
        57**DCL-ENT  2230--CALL     2240--CALL
NODCB
      2229**LABEL    2227--CALLALT
NODCB1
      2239**LABEL    2237--CALLALT
NODCB2
      2249**LABEL    2247--CALLALT
NODCB3
      2258**LABEL    2256--CALLALT
OPEN$USERS_FPT
      1513**DCL      2178<<ASSIGN   2181<>CALL
OPEN$USERS_FPT.ACSVEH_
      1515**DCL      1516--REDEF
OPEN$USERS_FPT.ALTKEYS_
      1521**DCL      1522--REDEF    1522--REDEF
OPEN$USERS_FPT.HDR_
PL6.E3A0      #003=ALA$READ_USERS File=ALA$LOGON.:E05TSI                         TUE 07/29/97 08:29 Page:214
      1520**DCL      1521--REDEF
OPEN$USERS_FPT.TAB_
      1519**DCL      1520--REDEF
OPEN$USERS_FPT.UHL_
      1513**DCL      1514--REDEF    1514--REDEF
OPEN$USERS_FPT.V
      1522**DCL      2180--ASSIGN
OPEN$USERS_FPT.V.DCB#
      1522**DCL      2179<<ASSIGN
OPEN$USERS_FPT.V.FSN#
      1553**DCL      1553--REDEF    1553--REDEF
OPEN$USERS_FPT.V_
      1513**DCL      2180<<ASSIGN
OPEN$USERS_FPT.WSN_
      1519**DCL      1519--REDEF
OPEN_ERR
      2183**LABEL    2181--CALLALT
OPEN_USERS_FPT
      1402**DCL      2178>>ASSIGN
OPEN_USERS_FPT.ACSVEH_
      1404**DCL      1405--REDEF
OPEN_USERS_FPT.ALTKEYS_
      1410**DCL      1411--REDEF    1411--REDEF
OPEN_USERS_FPT.HDR_
      1409**DCL      1410--REDEF
OPEN_USERS_FPT.TAB_
      1408**DCL      1409--REDEF
OPEN_USERS_FPT.UHL_
      1402**DCL      1403--REDEF    1403--REDEF
OPEN_USERS_FPT.V
      1411**DCL      1402--DCLINIT
OPEN_USERS_FPT.V.FSN#
      1442**DCL      1442--REDEF    1442--REDEF
OPEN_USERS_FPT.WSN_
      1408**DCL      1408--REDEF
READ$SEQ_FPT
PL6.E3A0      #003=ALA$READ_USERS File=ALA$LOGON.:E05TSI                         TUE 07/29/97 08:29 Page:215
      1785**DCL      2167<<ASSIGN   2172<>CALL
READ$SEQ_FPT.BUF_
      1787**DCL      2168<<ASSIGN
READ$SEQ_FPT.KEY_
      1785**DCL      2169<<ASSIGN
READ$SEQ_FPT.STATION_
      1788**DCL      1789--REDEF
READ$SEQ_FPT.V
      1789**DCL      2171--ASSIGN
READ$SEQ_FPT.V.DCB#
      1789**DCL      2170<<ASSIGN
READ$SEQ_FPT.V.DVBYTE.REREAD#
      1800**DCL      1800--REDEF
READ$SEQ_FPT.V.INDX#
      1798**DCL      1798--REDEF
READ$SEQ_FPT.V_
      1785**DCL      2171<<ASSIGN
READ_ERR
      2158**LABEL    2152--CALLALT
READ_SEQ_ERR
      2174**LABEL    2172--CALLALT
READ_SEQ_FPT
      1745**DCL      2167>>ASSIGN
READ_SEQ_FPT.STATION_
      1748**DCL      1749--REDEF
READ_SEQ_FPT.V
      1749**DCL      1745--DCLINIT
READ_SEQ_FPT.V.DVBYTE.REREAD#
      1760**DCL      1760--REDEF
READ_SEQ_FPT.V.INDX#
      1758**DCL      1758--REDEF
READ_USERS_FPT
      1663**DCL      2138>>ASSIGN
READ_USERS_FPT.STATION_
      1666**DCL      1667--REDEF
READ_USERS_FPT.V
PL6.E3A0      #003=ALA$READ_USERS File=ALA$LOGON.:E05TSI                         TUE 07/29/97 08:29 Page:216
      1667**DCL      1663--DCLINIT
READ_USERS_FPT.V.DVBYTE.REREAD#
      1678**DCL      1678--REDEF
READ_USERS_FPT.V.INDX#
      1676**DCL      1676--REDEF
RW$USERS
      1155**DCL         7--PROC     2139--ASSIGN   2165--ENTRY    2168--ASSIGN   2185--ENTRY    2190--ASSIGN
RW$USERS.BANNER_PERM
      1270**DCL      1271--REDEF
RW$USERS.BUDGET.MACCT
      1175**DCL      1179--REDEF
RW$USERS.BUDGET.MAX_PROJECTS
      1188**DCL      1191--REDEF
RW$USERS.BUDGET.PACCUM
      1171**DCL      1173--REDEF
RW$USERS.BUDGET.PMAXC
      1166**DCL      1168--REDEF
RW$USERS.SETUP_CHRA.TXT
      1286**DCL      1287--REDEF    1288--REDEF
USERS_KEY
      1320**DCL         7--PROC     2140--ASSIGN   2149--ASSIGN   2161--ASSIGN   2165--ENTRY    2169--ASSIGN
      2185--ENTRY    2191--ASSIGN   2199--ASSIGN   2209--ASSIGN
VLP_STARSNAME
      1990**DCL      2005--DCLINIT
VLP_USERSNAME
      1898**DCL      1913--DCLINIT
WRITE$USERS_FPT
      1857**DCL      2187<<ASSIGN   2192<>CALL
WRITE$USERS_FPT.BUF_
      1857**DCL      2190<<ASSIGN
WRITE$USERS_FPT.KEY_
      1857**DCL      2191<<ASSIGN
WRITE$USERS_FPT.STATION_
      1859**DCL      1859--REDEF
WRITE$USERS_FPT.V
      1860**DCL      2188--ASSIGN
PL6.E3A0      #003=ALA$READ_USERS File=ALA$LOGON.:E05TSI                         TUE 07/29/97 08:29 Page:217
WRITE$USERS_FPT.V.DCB#
      1860**DCL      2189<<ASSIGN
WRITE$USERS_FPT.V.DVBYTE.VFC#
      1866**DCL      1866--REDEF
WRITE$USERS_FPT.V_
      1857**DCL      2188<<ASSIGN
WRITE_ERR
      2206**LABEL    2192--CALLALT
WRITE_USERS_FPT
      1825**DCL      2187>>ASSIGN
WRITE_USERS_FPT.STATION_
      1827**DCL      1827--REDEF
WRITE_USERS_FPT.V
      1828**DCL      1825--DCLINIT
WRITE_USERS_FPT.V.DVBYTE.VFC#
      1834**DCL      1834--REDEF

PL6.E3A0      #004=ALA$ERROR File=ALA$LOGON.:E05TSI                              TUE 07/29/97 08:30 Page:218
     1185        1        /*T***********************************************************/
     1186        2        /*T*                                                         */
     1187        3        /*T* Copyright (c) Bull HN Information Systems Inc., 1997    */
     1188        4        /*T*                                                         */
     1189        5        /*T***********************************************************/
     1190        6                                                              /**/
     1191        7        ALA$ERROR: PROC(ERR_CODE, FIELD1, FIELD2, FIELD3) ;
     1192        8                                                              /**/
     1193        9        %EJECT ;
PL6.E3A0      #004=ALA$ERROR File=ALA$LOGON.:E05TSI                              TUE 07/29/97 08:30 Page:219
     1194       10        /*********************************************************************/
     1195       11        /*   PARAMETERS      PARAMETERS      PARAMETERS      PARAMETERS      */
     1196       12        /*********************************************************************/
     1197       13                                                              /**/
     1198       14    1   DCL 1 ERR_CODE ALIGNED ,
     1199       15    1         2 FCG_MID UBIN(18) UNAL ,
     1200       16    1         2 CODE UBIN(15) UNAL ,
     1201       17    1         2 SEV UBIN(3) UNAL ;
     1202       18    1   DCL 1 FIELD1 ALIGNED ,
     1203       19    1         2 CNT UBIN(9) UNAL ,
     1204       20    1         2 TEXT CHAR(40) UNAL ;
     1205       21    1   DCL 1 FIELD2 ALIGNED ,
     1206       22    1         2 CNT UBIN(9) UNAL ,
     1207       23    1         2 TEXT CHAR(40) UNAL ;
     1208       24    1   DCL 1 FIELD3 ALIGNED ,
     1209       25    1         2 CNT UBIN(9) UNAL ,
     1210       26    1         2 TEXT CHAR(40) UNAL ;
     1211       27        %EJECT ;
PL6.E3A0      #004=ALA$ERROR File=ALA$LOGON.:E05TSI                              TUE 07/29/97 08:30 Page:220
     1212       28        /*********************************************************************/
     1213       29        /*   INCLUDE FILES   INCLUDE FILES   INCLUDE FILES   INCLUDE FILES   */
     1214       30        /*********************************************************************/
     1215       31                                                              /**/
     1216       32              %INCLUDE CP_6 ;
     1217      113              %INCLUDE B$JIT ;
     1218      403              %INCLUDE AL_LOGON_R ;
     1219      435              %INCLUDE AL_PERR_C ;
     1220      457              %INCLUDE NK_VFC_C ;
     1221      531        %B$TCB;
     1222      534        %B$ALT;
     1223      542        %EJECT ;
PL6.E3A0      #004=ALA$ERROR File=ALA$LOGON.:E05TSI                              TUE 07/29/97 08:30 Page:221
     1224      543        /*********************************************************************/
     1225      544        /*   CONSTANT DATA   CONSTANT DATA   CONSTANT DATA   CONSTANT DATA   */
     1226      545        /*********************************************************************/
     1227      546                                                              /**/
     1228      547              %FPT_ERRMSG(FPTN = FPT_ERRMSG, STCLASS = CONSTANT ,
     1229      548                            SUBMESS = YES ,
     1230      549                            FILEACCT = FILE_ACCT ,
     1231      550                            INCLCODE = NO ,
     1232      551                            VFC = 'a' ,
     1233      552                            OUTDCB1 = M$DO ) ;
     1234      579    1   DCL M$DO DCB ;
     1235      580        %EJECT ;
PL6.E3A0      #004=ALA$ERROR File=ALA$LOGON.:E05TSI                              TUE 07/29/97 08:30 Page:222
     1236      581        /*********************************************************************/
     1237      582        /*   AUTO DATA       AUTO DATA       AUTO DATA       AUTO DATA       */
     1238      583        /*********************************************************************/
     1239      584                                                              /**/
     1240      585              %FPT_ERRMSG(FPTN = FPT$ERRMSG, STCLASS = AUTO ) ;
     1241      612    1   DCL ERR_BUF CHAR(120) ;
     1242      613    1   DCL FILE_ACCT CHAR (8) SYMREF;
     1243      614              %VLR_ERRMSG(FPTN = VLR$ERRMSG, STCLASS = AUTO ) ;
     1244      636              %VLP_ERRCODE( STCLASS=AUTO );
     1245      681        %EJECT ;
PL6.E3A0      #004=ALA$ERROR File=ALA$LOGON.:E05TSI                              TUE 07/29/97 08:30 Page:223
     1246      682        /*********************************************************************/
     1247      683        /*   PROCEDURE       PROCEDURE       PROCEDURE       PROCEDURE       */
     1248      684        /*********************************************************************/
     1249      685                                                              /**/
     1250      686    1         IF B$JIT.MODE = %M_TP# THEN RETURN;
     1251      687                                                              /*   SET UP FPT$ERRMSG.   */
     1252      688    1         FPT$ERRMSG = FPT_ERRMSG ;
     1253      689    1         VLP_ERRCODE = ERR_CODE;
     1254      690    1         IF ADDR(FIELD1.CNT)~=ADDR(NIL) THEN FPT$ERRMSG.FIELD1_ = VECTOR(FIELD1);
     1255      691    1         IF ADDR(FIELD2.CNT)~=ADDR(NIL) THEN FPT$ERRMSG.FIELD2_ = VECTOR(FIELD2);
     1256      692    1         IF ADDR(FIELD3.CNT)~=ADDR(NIL) THEN FPT$ERRMSG.FIELD3_ = VECTOR(FIELD3);
     1257      693    1         GOTO ERRMSG_COMMON;
     1258      694
     1259      695
     1260      696    1   ALA$SYS_ERROR: ENTRY;
     1261      697
     1262      698    1         IF B$JIT.MODE = %M_TP# THEN RETURN;
     1263      699
     1264      700    1         FPT$ERRMSG = FPT_ERRMSG;
     1265      701    1         VLP_ERRCODE = B$TCB$->B$TCB.ALT$->B$ALT.ERR;
     1266      702    1         FPT$ERRMSG.V.DCB# = B$TCB$->B$TCB.ALT$->B$ALT.DCB#;
     1267      703
     1268      704    1   ERRMSG_COMMON:
     1269      705    1         VLP_ERRCODE.SEV = 7;
     1270      706    1         FPT$ERRMSG.CODE_ = VECTOR(VLP_ERRCODE);
     1271      707    1         FPT$ERRMSG.BUF_ = VECTOR(ERR_BUF);
     1272      708    1         FPT$ERRMSG.V_ = VECTOR(FPT$ERRMSG.V);
     1273      709    1         CALL M$ERRMSG(FPT$ERRMSG) ALTRET(ERR_ALT1) ;
     1274      710    1         RETURN ;
     1275      711
     1276      712                                                              /**/
     1277      713    1   ERR_ALT1: ;
     1278      714    1         VLP_ERRCODE = B$TCB$->B$TCB.ALT$->B$ALT.ERR;
     1279      715    1         VLP_ERRCODE.SEV = 7;
     1280      716    1         FPT$ERRMSG.V.DCB# = B$TCB$->B$TCB.ALT$->B$ALT.DCB#;
     1281      717    1         CALL M$ERRMSG( FPT$ERRMSG ) ALTRET(ERR_ALT2);
     1282      718    1   ERR_ALT2:;
PL6.E3A0      #004=ALA$ERROR File=ALA$LOGON.:E05TSI                              TUE 07/29/97 08:30 Page:224
     1283      719    1         RETURN ;
     1284      720                                                              /**/
     1285      721    1   END   ALA$ERROR ;
     1286      722        %EOD ;

PL6.E3A0      #004=ALA$ERROR File=ALA$LOGON.:E05TSI                              TUE 07/29/97 08:30 Page:225
--  Include file information  --

   NK_VFC_C.:E05TOU  is referenced.
   AL_PERR_C.:E05TOU  is referenced.
   AL_LOGON_R.:E05TOU  cannot be made into a system file and is referenced.
   B$JIT.:E05TOU  cannot be made into a system file and is referenced.
   CP_6.:E05TOU  cannot be made into a system file and is referenced.
   B$JIT_C.:E05TOU  was found in the system file and is referenced.
   CP_6_C.:E05TOU  was found in the system file and is referenced.
      No diagnostics issued in procedure ALA$ERROR.

   Procedure ALA$ERROR requires 84 words for executable code.
   Procedure ALA$ERROR requires 72 words of local(AUTO) storage.

PL6.E3A0      #004=ALA$ERROR File=ALA$LOGON.:E05TSI                              TUE 07/29/97 08:30 Page:226

 Object Unit name= ALA$ERROR                                  File name= ALA$LOGON.:E05TOU
 UTS= JUL 29 '97 08:30:55.80 TUE                              Compiler= PL-6/E31         Sev=      00
 SharedLib= :SHARED_SYSTEM                                    Alt SharedLib=


    ****  Control sections  ****

 Sect   Type Bound  Init  Size OctSiz  Section name(segment info)
    0   DCB   even  none     0      0  M$UC
    1  RoData even  UTS     26     32  ALA$ERROR
    2   DCB   even  none     0      0  M$DO
    3   Proc  even  none    84    124  ALA$ERROR
    4  RoData even  none     3      3  ALA$ERROR

    ****  Entry defs  ****

                              Check   Calling
                             calling  sequence
  Sect OctLoc Primary Altret sequence   type   Parms  Name
     3      0   yes            yes      Std        4  ALA$ERROR
     3     36                  yes      Std        0  ALA$SYS_ERROR

  ****  Entry refs  ****

         Check        Calling
        calling       sequence
Altret sequence SRef   type   Args  Name
                       nStd      0 X66_AUTO_4
                       nStd      0 X66_ARET
                       Std       0 B_CONSPOOL_D
PL6.E3A0      #004=ALA$ERROR File=ALA$LOGON.:E05TSI                              TUE 07/29/97 08:30 Page:227

  ****  Data refs  ****

  Flags:  r = read only, s = secondary
Flgs Name                             Flgs Name                             Flgs Name
     M$UC                                  B$JIT$                                B$TCB$
     M$DO                                  FILE_ACCT                             B_VECTNIL

  ****  Segment refs  ****

  Flags:  r = read only, s = secondary
Flgs Name                             Flgs Name                             Flgs Name
     ISSID                                 NULLSID
PL6.E3A0      #004=ALA$ERROR File=ALA$LOGON.:E05TSI                              TUE 07/29/97 08:30 Page:228


     1185        1        /*T***********************************************************/
     1186        2        /*T*                                                         */
     1187        3        /*T* Copyright (c) Bull HN Information Systems Inc., 1997    */
     1188        4        /*T*                                                         */
     1189        5        /*T***********************************************************/
     1190        6                                                              /**/
     1191        7        ALA$ERROR: PROC(ERR_CODE, FIELD1, FIELD2, FIELD3) ;

      7  3 000000   000000 700200 xent  ALA$ERROR    TSX0  ! X66_AUTO_4
         3 000001   000110 000004                    ZERO    72,4

     1192        8                                                              /**/
     1193        9        %EJECT ;
PL6.E3A0      #004=ALA$ERROR File=ALA$LOGON.:E05TSI                              TUE 07/29/97 08:30 Page:229
     1194       10        /*********************************************************************/
     1195       11        /*   PARAMETERS      PARAMETERS      PARAMETERS      PARAMETERS      */
     1196       12        /*********************************************************************/
     1197       13                                                              /**/
     1198       14    1   DCL 1 ERR_CODE ALIGNED ,
     1199       15    1         2 FCG_MID UBIN(18) UNAL ,
     1200       16    1         2 CODE UBIN(15) UNAL ,
     1201       17    1         2 SEV UBIN(3) UNAL ;
     1202       18    1   DCL 1 FIELD1 ALIGNED ,
     1203       19    1         2 CNT UBIN(9) UNAL ,
     1204       20    1         2 TEXT CHAR(40) UNAL ;
     1205       21    1   DCL 1 FIELD2 ALIGNED ,
     1206       22    1         2 CNT UBIN(9) UNAL ,
     1207       23    1         2 TEXT CHAR(40) UNAL ;
     1208       24    1   DCL 1 FIELD3 ALIGNED ,
     1209       25    1         2 CNT UBIN(9) UNAL ,
     1210       26    1         2 TEXT CHAR(40) UNAL ;
     1211       27        %EJECT ;
PL6.E3A0      #004=ALA$ERROR File=ALA$LOGON.:E05TSI                              TUE 07/29/97 08:30 Page:230
     1212       28        /*********************************************************************/
     1213       29        /*   INCLUDE FILES   INCLUDE FILES   INCLUDE FILES   INCLUDE FILES   */
     1214       30        /*********************************************************************/
     1215       31                                                              /**/
     1216       32              %INCLUDE CP_6 ;
     1217      113              %INCLUDE B$JIT ;
     1218      403              %INCLUDE AL_LOGON_R ;
     1219      435              %INCLUDE AL_PERR_C ;
     1220      457              %INCLUDE NK_VFC_C ;
     1221      531        %B$TCB;
     1222      534        %B$ALT;
     1223      542        %EJECT ;
PL6.E3A0      #004=ALA$ERROR File=ALA$LOGON.:E05TSI                              TUE 07/29/97 08:30 Page:231
     1224      543        /*********************************************************************/
     1225      544        /*   CONSTANT DATA   CONSTANT DATA   CONSTANT DATA   CONSTANT DATA   */
     1226      545        /*********************************************************************/
     1227      546                                                              /**/
     1228      547              %FPT_ERRMSG(FPTN = FPT_ERRMSG, STCLASS = CONSTANT ,
     1229      548                            SUBMESS = YES ,
     1230      549                            FILEACCT = FILE_ACCT ,
     1231      550                            INCLCODE = NO ,
     1232      551                            VFC = 'a' ,
     1233      552                            OUTDCB1 = M$DO ) ;
     1234      579    1   DCL M$DO DCB ;
     1235      580        %EJECT ;
PL6.E3A0      #004=ALA$ERROR File=ALA$LOGON.:E05TSI                              TUE 07/29/97 08:30 Page:232
     1236      581        /*********************************************************************/
     1237      582        /*   AUTO DATA       AUTO DATA       AUTO DATA       AUTO DATA       */
     1238      583        /*********************************************************************/
     1239      584                                                              /**/
     1240      585              %FPT_ERRMSG(FPTN = FPT$ERRMSG, STCLASS = AUTO ) ;
     1241      612    1   DCL ERR_BUF CHAR(120) ;
     1242      613    1   DCL FILE_ACCT CHAR (8) SYMREF;
     1243      614              %VLR_ERRMSG(FPTN = VLR$ERRMSG, STCLASS = AUTO ) ;
     1244      636              %VLP_ERRCODE( STCLASS=AUTO );
     1245      681        %EJECT ;
PL6.E3A0      #004=ALA$ERROR File=ALA$LOGON.:E05TSI                              TUE 07/29/97 08:30 Page:233
     1246      682        /*********************************************************************/
     1247      683        /*   PROCEDURE       PROCEDURE       PROCEDURE       PROCEDURE       */
     1248      684        /*********************************************************************/
     1249      685                                                              /**/
     1250      686    1         IF B$JIT.MODE = %M_TP# THEN RETURN;

    686  3 000002   000000 470400 xsym               LDP0    B$JIT$
         3 000003   000000 236100                    LDQ     0,,PR0
         3 000004   740000 376003                    ANQ     -16384,DU
         3 000005   200000 116003                    CMPQ    65536,DU
         3 000006   000010 601000 3                  TNZ     s:688

    686  3 000007   000000 702200 xent               TSX2  ! X66_ARET

     1251      687                                                              /*   SET UP FPT$ERRMSG.   */
     1252      688    1         FPT$ERRMSG = FPT_ERRMSG ;

    688  3 000010   000100 100400                    MLR     fill='000'O
         3 000011   000000 000150 1                  ADSC9   FPT_ERRMSG               cn=0,n=104
         3 000012   200010 000150                    ADSC9   FPT$ERRMSG,,AUTO         cn=0,n=104

     1253      689    1         VLP_ERRCODE = ERR_CODE;

    689  3 000013   200003 471500                    LDP1    @ERR_CODE,,AUTO
         3 000014   100000 236100                    LDQ     0,,PR1
         3 000015   200104 756100                    STQ     VLP_ERRCODE,,AUTO

     1254      690    1         IF ADDR(FIELD1.CNT)~=ADDR(NIL) THEN FPT$ERRMSG.FIELD1_ = VECTOR(FIELD1);

    690  3 000016   200004 236100                    LDQ     @FIELD1,,AUTO
         3 000017   000001 116000 xsym               CMPQ    B_VECTNIL+1
         3 000020   000023 600000 3                  TZE     s:691

    690  3 000021   000000 235000 4                  LDA     0
         3 000022   200024 757100                    STAQ    FPT$ERRMSG+12,,AUTO

     1255      691    1         IF ADDR(FIELD2.CNT)~=ADDR(NIL) THEN FPT$ERRMSG.FIELD2_ = VECTOR(FIELD2);
PL6.E3A0      #004=ALA$ERROR File=ALA$LOGON.:E05TSI                              TUE 07/29/97 08:30 Page:234

    691  3 000023   200005 236100                    LDQ     @FIELD2,,AUTO
         3 000024   000001 116000 xsym               CMPQ    B_VECTNIL+1
         3 000025   000030 600000 3                  TZE     s:692

    691  3 000026   000000 235000 4                  LDA     0
         3 000027   200026 757100                    STAQ    FPT$ERRMSG+14,,AUTO

     1256      692    1         IF ADDR(FIELD3.CNT)~=ADDR(NIL) THEN FPT$ERRMSG.FIELD3_ = VECTOR(FIELD3);

    692  3 000030   200006 236100                    LDQ     @FIELD3,,AUTO
         3 000031   000001 116000 xsym               CMPQ    B_VECTNIL+1
         3 000032   000035 600000 3                  TZE     s:693

    692  3 000033   000000 235000 4                  LDA     0
         3 000034   200030 757100                    STAQ    FPT$ERRMSG+16,,AUTO

     1257      693    1         GOTO ERRMSG_COMMON;

    693  3 000035   000060 710000 3                  TRA     ERRMSG_COMMON

     1258      694
     1259      695
     1260      696    1   ALA$SYS_ERROR: ENTRY;

    696  3 000036   000000 700200 xent  ALA$SYS_ERR* TSX0  ! X66_AUTO_4
         3 000037   000110 000004                    ZERO    72,4

     1261      697
     1262      698    1         IF B$JIT.MODE = %M_TP# THEN RETURN;

    698  3 000040   000000 470400 xsym               LDP0    B$JIT$
         3 000041   000000 236100                    LDQ     0,,PR0
         3 000042   740000 376003                    ANQ     -16384,DU
         3 000043   200000 116003                    CMPQ    65536,DU
         3 000044   000046 601000 3                  TNZ     s:700

PL6.E3A0      #004=ALA$ERROR File=ALA$LOGON.:E05TSI                              TUE 07/29/97 08:30 Page:235
    698  3 000045   000000 702200 xent               TSX2  ! X66_ARET

     1263      699
     1264      700    1         FPT$ERRMSG = FPT_ERRMSG;

    700  3 000046   000100 100400                    MLR     fill='000'O
         3 000047   000000 000150 1                  ADSC9   FPT_ERRMSG               cn=0,n=104
         3 000050   200010 000150                    ADSC9   FPT$ERRMSG,,AUTO         cn=0,n=104

     1265      701    1         VLP_ERRCODE = B$TCB$->B$TCB.ALT$->B$ALT.ERR;

    701  3 000051   000000 471400 xsym               LDP1    B$TCB$
         3 000052   100000 473500                    LDP3    0,,PR1
         3 000053   300102 236100                    LDQ     66,,PR3
         3 000054   200104 756100                    STQ     VLP_ERRCODE,,AUTO

     1266      702    1         FPT$ERRMSG.V.DCB# = B$TCB$->B$TCB.ALT$->B$ALT.DCB#;

    702  3 000055   100000 473500                    LDP3    0,,PR1
         3 000056   300101 720100                    LXL0    65,,PR3
         3 000057   200036 740100                    STX0    FPT$ERRMSG+22,,AUTO

     1267      703
     1268      704    1   ERRMSG_COMMON:
     1269      705    1         VLP_ERRCODE.SEV = 7;

    705  3 000060   000007 236007       ERRMSG_COMM* LDQ     7,DL
         3 000061   200104 256100                    ORSQ    VLP_ERRCODE,,AUTO

     1270      706    1         FPT$ERRMSG.CODE_ = VECTOR(VLP_ERRCODE);

    706  3 000062   777640 235007                    LDA     -96,DL
         3 000063   200106 452500                    STP2    VLP_ERRCODE+2,,AUTO
         3 000064   200106 236100                    LDQ     VLP_ERRCODE+2,,AUTO
         3 000065   000104 036003                    ADLQ    68,DU
         3 000066   200012 757100                    STAQ    FPT$ERRMSG+2,,AUTO

PL6.E3A0      #004=ALA$ERROR File=ALA$LOGON.:E05TSI                              TUE 07/29/97 08:30 Page:236
     1271      707    1         FPT$ERRMSG.BUF_ = VECTOR(ERR_BUF);

    707  3 000067   000001 235000 4                  LDA     1
         3 000070   200106 452500                    STP2    VLP_ERRCODE+2,,AUTO
         3 000071   200106 236100                    LDQ     VLP_ERRCODE+2,,AUTO
         3 000072   000042 036003                    ADLQ    34,DU
         3 000073   200014 757100                    STAQ    FPT$ERRMSG+4,,AUTO

     1272      708    1         FPT$ERRMSG.V_ = VECTOR(FPT$ERRMSG.V);

    708  3 000074   000002 235000 4                  LDA     2
         3 000075   200106 452500                    STP2    VLP_ERRCODE+2,,AUTO
         3 000076   200106 236100                    LDQ     VLP_ERRCODE+2,,AUTO
         3 000077   000036 036003                    ADLQ    30,DU
         3 000100   200010 757100                    STAQ    FPT$ERRMSG,,AUTO

     1273      709    1         CALL M$ERRMSG(FPT$ERRMSG) ALTRET(ERR_ALT1) ;

    709  3 000101   200010 630500                    EPPR0   FPT$ERRMSG,,AUTO
         3 000102   420000 713400                    CLIMB   alt,+8192
         3 000103   405000 401760                    pmme    nvectors=11
         3 000104   000106 702000 3                  TSX2    ERR_ALT1

     1274      710    1         RETURN ;

    710  3 000105   000000 702200 xent               TSX2  ! X66_ARET

    708  3 000106                       ERR_ALT1     null
     1275      711
     1276      712                                                              /**/
     1277      713    1   ERR_ALT1: ;
     1278      714    1         VLP_ERRCODE = B$TCB$->B$TCB.ALT$->B$ALT.ERR;

    714  3 000106   000000 470400 xsym               LDP0    B$TCB$
         3 000107   000000 471500                    LDP1    0,,PR0
         3 000110   100102 236100                    LDQ     66,,PR1
         3 000111   200104 756100                    STQ     VLP_ERRCODE,,AUTO
PL6.E3A0      #004=ALA$ERROR File=ALA$LOGON.:E05TSI                              TUE 07/29/97 08:30 Page:237

     1279      715    1         VLP_ERRCODE.SEV = 7;

    715  3 000112   000007 236007                    LDQ     7,DL
         3 000113   200104 256100                    ORSQ    VLP_ERRCODE,,AUTO

     1280      716    1         FPT$ERRMSG.V.DCB# = B$TCB$->B$TCB.ALT$->B$ALT.DCB#;

    716  3 000114   000000 471500                    LDP1    0,,PR0
         3 000115   100101 720100                    LXL0    65,,PR1
         3 000116   200036 740100                    STX0    FPT$ERRMSG+22,,AUTO

     1281      717    1         CALL M$ERRMSG( FPT$ERRMSG ) ALTRET(ERR_ALT2);

    717  3 000117   200010 630500                    EPPR0   FPT$ERRMSG,,AUTO
         3 000120   420000 713400                    CLIMB   alt,+8192
         3 000121   405000 401760                    pmme    nvectors=11
         3 000122   000123 702000 3                  TSX2    ERR_ALT2

    716  3 000123                       ERR_ALT2     null
     1282      718    1   ERR_ALT2:;
     1283      719    1         RETURN ;

    719  3 000123   000000 702200 xent               TSX2  ! X66_ARET
     1284      720                                                              /**/
     1285      721    1   END   ALA$ERROR ;
     1286      722        %EOD ;

PL6.E3A0      #004=ALA$ERROR File=ALA$LOGON.:E05TSI                              TUE 07/29/97 08:30 Page:238
--  Include file information  --

   NK_VFC_C.:E05TOU  is referenced.
   AL_PERR_C.:E05TOU  is referenced.
   AL_LOGON_R.:E05TOU  cannot be made into a system file and is referenced.
   B$JIT.:E05TOU  cannot be made into a system file and is referenced.
   CP_6.:E05TOU  cannot be made into a system file and is referenced.
   B$JIT_C.:E05TOU  was found in the system file and is referenced.
   CP_6_C.:E05TOU  was found in the system file and is referenced.
      No diagnostics issued in procedure ALA$ERROR.
PL6.E3A0      #004=ALA$ERROR File=ALA$LOGON.:E05TSI                              TUE 07/29/97 08:30 Page:239

 **** Variables and constants ****

  ****  Section 001 RoData ALA$ERROR

  ****  Scalars and arrays  ****
OctLoc.c.b A Datatyp(siz) R M Lvl/name                 OctLoc.c.b A Datatyp(siz) R M Lvl/name

     0-0-0/d STRC(936)   r     1 FPT_ERRMSG

  ****  Auto variables  ****

  ****  Scalars and arrays  ****
OctLoc.c.b A Datatyp(siz) R M Lvl/name                 OctLoc.c.b A Datatyp(siz) R M Lvl/name

     3-0-0/w PTR         r     1 @ERR_CODE                  4-0-0/w PTR         r     1 @FIELD1
     5-0-0/w PTR         r     1 @FIELD2                    6-0-0/w PTR         r     1 @FIELD3
    42-0-0/c CHAR(120)   r     1 ERR_BUF                   *0-0-0/w STRC        r     1 ERR_CODE
    *0-0-0/w STRC(369)   r     1 FIELD1                    *0-0-0/w STRC(369)   r     1 FIELD2
    *0-0-0/w STRC(369)   r     1 FIELD3                    10-0-0/d STRC(936)   r     1 FPT$ERRMSG
   104-0-0/w STRC        r     1 VLP_ERRCODE

  ****  SYMREF variables  ****

  ****  Scalars and arrays  ****
OctLoc.c.b A Datatyp(siz) R M Lvl/name                 OctLoc.c.b A Datatyp(siz) R M Lvl/name

     0-0-0/w PTR         r     1 B$JIT$                     0-0-0/w PTR         r     1 B$TCB$
     0-0-0/c CHAR(8)     r     1 FILE_ACCT

  ****  BASED and DCB variables  ****

  ****  Scalars and arrays  ****
OctLoc.c.b A Datatyp(siz) R M Lvl/name                 OctLoc.c.b A Datatyp(siz) R M Lvl/name

     0-0-0/w STRC(2448)  r     1 B$ALT                      0-0-0/d STRC(8856)  r     1 B$JIT
     0-0-0/w STRC(144)   r     1 B$TCB                      0-0-0N  NULL        r     1 M$DO

PL6.E3A0      #004=ALA$ERROR File=ALA$LOGON.:E05TSI                              TUE 07/29/97 08:30 Page:240

   Procedure ALA$ERROR requires 84 words for executable code.
   Procedure ALA$ERROR requires 72 words of local(AUTO) storage.
PL6.E3A0      #004=ALA$ERROR File=ALA$LOGON.:E05TSI                              TUE 07/29/97 08:30 Page:241
          *** CROSS REFERENCE LISTING ***
**     DENOTES     IDENTIFIER DEFINITION
<<                 IDENTIFIER'S VALUE SET
>>                 IDENTIFIER'S VALUE USED
<>                 IDENTIFIER SET AND/OR USED
--                 IDENTIFIER REFERENCED
PL6.E3A0      #004=ALA$ERROR File=ALA$LOGON.:E05TSI                              TUE 07/29/97 08:30 Page:242
          MINI XREF LISTING

B$ALT.CODE
       536**DCL       536--REDEF     537--REDEF     537--REDEF
B$ALT.DCB#
       537**DCL       702>>ASSIGN    716>>ASSIGN
B$ALT.ERR
       537**DCL       701>>ASSIGN    714>>ASSIGN
B$ALT.ERR.ERR#
       538**DCL       538--REDEF
B$ALT.EVID
       537**DCL       537--REDEF     537--REDEF
B$JIT.CPFLAGS1.SLEAZE
       221**DCL       221--REDEF
B$JIT.ERR.MID
       128**DCL       128--REDEF
B$JIT.JRESPEAK
       289**DCL       290--REDEF
B$JIT.MODE
       122**DCL       686>>IF        698>>IF
B$JIT.ORIGINATOR_PORT.FROM_CR
       398**DCL       398--REDEF     399--REDEF
B$JIT.PNR
       302**DCL       302--REDEF
B$JIT.TSLINE
       396**DCL       397--REDEF
B$JIT$
       433**DCL       122--IMP-PTR   686>>IF        698>>IF
B$TCB.ALT$
       532**DCL       701>>ASSIGN    702>>ASSIGN    714>>ASSIGN    716>>ASSIGN
B$TCB$
       434**DCL       701>>ASSIGN    702>>ASSIGN    714>>ASSIGN    716>>ASSIGN
ERRMSG_COMMON
       705**LABEL     693--GOTO
PL6.E3A0      #004=ALA$ERROR File=ALA$LOGON.:E05TSI                              TUE 07/29/97 08:30 Page:243
ERR_ALT1
       708**LABEL     709--CALLALT
ERR_ALT2
       716**LABEL     717--CALLALT
ERR_BUF
       612**DCL       707--ASSIGN
ERR_CODE
        14**DCL         7--PROC      689>>ASSIGN
FIELD1
        18**DCL         7--PROC      690--ASSIGN
FIELD1.CNT
        19**DCL       690--IF
FIELD2
        21**DCL         7--PROC      691--ASSIGN
FIELD2.CNT
        22**DCL       691--IF
FIELD3
        24**DCL         7--PROC      692--ASSIGN
FIELD3.CNT
        25**DCL       692--IF
FILE_ACCT
       613**DCL       564--DCLINIT
FPT$ERRMSG
       596**DCL       688<<ASSIGN    700<<ASSIGN    709<>CALL      717<>CALL
FPT$ERRMSG.BUF_
       596**DCL       707<<ASSIGN
FPT$ERRMSG.CODE_
       596**DCL       706<<ASSIGN
FPT$ERRMSG.FIELD1_
       598**DCL       690<<ASSIGN
FPT$ERRMSG.FIELD2_
       599**DCL       691<<ASSIGN
FPT$ERRMSG.FIELD3_
       599**DCL       692<<ASSIGN
FPT$ERRMSG.V
       600**DCL       708--ASSIGN
PL6.E3A0      #004=ALA$ERROR File=ALA$LOGON.:E05TSI                              TUE 07/29/97 08:30 Page:244
FPT$ERRMSG.V.DCB#
       600**DCL       702<<ASSIGN    716<<ASSIGN
FPT$ERRMSG.V_
       596**DCL       708<<ASSIGN
FPT_ERRMSG
       563**DCL       688>>ASSIGN    700>>ASSIGN
FPT_ERRMSG.V
       567**DCL       563--DCLINIT
M$ERRMSG
       104**DCL-ENT   709--CALL      717--CALL
VLP_ERRCODE
       648**DCL       689<<ASSIGN    701<<ASSIGN    706--ASSIGN    714<<ASSIGN
VLP_ERRCODE.SEV
       678**DCL       705<<ASSIGN    715<<ASSIGN

PL6.E3A0      #005=ALA$HEADING File=ALA$LOGON.:E05TSI                            TUE 07/29/97 08:31 Page:245
     1287        1        /*T***********************************************************/
     1288        2        /*T*                                                         */
     1289        3        /*T* Copyright (c) Bull HN Information Systems Inc., 1997    */
     1290        4        /*T*                                                         */
     1291        5        /*T***********************************************************/
     1292        6                                                              /**/
     1293        7        ALA$HEADING: PROC( AL$TSTAMP ) ;
     1294        8                                                              /**/
     1295        9        %EJECT ;
PL6.E3A0      #005=ALA$HEADING File=ALA$LOGON.:E05TSI                            TUE 07/29/97 08:31 Page:246
     1296       10        /*********************************************************************/
     1297       11        /*   INCLUDE FILES   INCLUDE FILES   INCLUDE FILES   INCLUDE FILES   */
     1298       12        /*********************************************************************/
     1299       13              %INCLUDE CP_6 ;
     1300       94              %INCLUDE AL_SUBS_C ;
     1301      103              %INCLUDE B$JIT ;
     1302      393              %INCLUDE AL_PERR_C ;
     1303      415              %INCLUDE AL_LOGON_R ;
     1304      447              %INCLUDE AL_MACROS_C ;
     1305      473              %INCLUDE B$TABLES_C ;
     1306      581
     1307      582        %B$XL_LOWER_UR;
     1308      586                                                              /**/
     1309      587        %EJECT ;
PL6.E3A0      #005=ALA$HEADING File=ALA$LOGON.:E05TSI                            TUE 07/29/97 08:31 Page:247
     1310      588        /*********************************************************************/
     1311      589        /*   PARAMETERS      PARAMETERS      PARAMETERS      PARAMETERS      */
     1312      590        /*********************************************************************/
     1313      591                                                              /**/
     1314      592        %LIST ;
     1315      593                                                              /**/
     1316      594              %AL$TSTAMP (STCLASS=" ") ;
               595                                                /*   TIME STAMP FOR B$JIT.LOGONTIME.  */
               596    1         DCL 1 STNAME STCLASS ,
               597    1               2 UTS UBIN WORD ,
               598    1               2 TIME CHAR(11) UNAL ,
               599    1               2 DAY  CHAR(3) UNAL ,
               600    1               2 DATE CHAR(10) UNAL ;
     1317      602                                                              /**/
     1318      603        %PLIST ;
     1319      604        %EJECT ;
PL6.E3A0      #005=ALA$HEADING File=ALA$LOGON.:E05TSI                            TUE 07/29/97 08:31 Page:248
     1320      605        /*********************************************************************/
     1321      606        /*   AUTO DATA       AUTO DATA       AUTO DATA       AUTO DATA       */
     1322      607        /*********************************************************************/
     1323      608                                                              /**/
     1324      609    1   DCL 1 ERR_CODE AUTO ,
     1325      610    1         2 FCG_MID UBIN(18) UNAL ,
     1326      611    1         2 CODE UBIN(15) UNAL ,
     1327      612    1         2 SEV UBIN(3) UNAL ;
     1328      613    1   DCL 1 TMDATE ALIGNED ,
     1329      614    1         2 CNT UBIN(9) UNAL ,
     1330      615    1         2 BUFF UNAL ,
     1331      616    1           3 TIME CHAR(5) UNAL ,
     1332      617    1           3 * CHAR(1) UNAL ,
     1333      618    1           3 DAY CHAR(3) UNAL ,
     1334      619    1           3 * CHAR(1) UNAL ,
     1335      620    1           3 DATE CHAR(10) UNAL ,
     1336      621    1         2 RDEF_BUFF REDEF BUFF CHAR(20) ;
     1337      622    1   DCL 1 SYSID ALIGNED ,
     1338      623    1         2 CNT UBIN BYTE UNAL ,
     1339      624    1         2 TXT CHAR(6) UNAL ;
     1340      625    1   DCL TBUF CHAR(6) ;
     1341      626    1   DCL CNT UBIN WORD ;
     1342      627    1   DCL I UBIN WORD ;
     1343      628        %EJECT ;
PL6.E3A0      #005=ALA$HEADING File=ALA$LOGON.:E05TSI                            TUE 07/29/97 08:31 Page:249
     1344      629        /*********************************************************************/
     1345      630        /*   CONSTANT DATA   CONSTANT DATA   CONSTANT DATA   CONSTANT DATA   */
     1346      631        /*********************************************************************/
     1347      632                                                              /**/
     1348      633    1   DCL FCG UBIN(18) CONSTANT INIT(4865) ;          /*   'ALA' IN SIX-BIT.   */
     1349      634              %FPT_OCMSG (  FPTN = FPT_OCMSG ,
     1350      635                            MSG = ON_MESSAGE_VAL ,
     1351      636                            OCTYPE = ADCOM ,
     1352      637                            STCLASS = CONSTANT ) ;
     1353      653        %EJECT ;
PL6.E3A0      #005=ALA$HEADING File=ALA$LOGON.:E05TSI                            TUE 07/29/97 08:31 Page:250
     1354      654        /*********************************************************************/
     1355      655        /*   FPTs            FPTs            FPTs            FPTs            */
     1356      656        /*********************************************************************/
     1357      657                                                              /**/
     1358      658              %FPT_MONINFO( FPTN = FPT_MONINFO ,
     1359      659                            STCLASS = CONSTANT ) ;
     1360      674              %FPT_MONINFO( FPTN = FPT$MONINFO ,
     1361      675                            STCLASS = AUTO ) ;
     1362      690              %VLR_SITEINFO(  FPTN = VLR_SITEINFO ,
     1363      691                              STCLASS = AUTO ) ;
     1364      710        %EJECT ;
PL6.E3A0      #005=ALA$HEADING File=ALA$LOGON.:E05TSI                            TUE 07/29/97 08:31 Page:251
     1365      711        /*********************************************************************/
     1366      712        /*   ENTRIES         ENTRIES         ENTRIES         ENTRIES         */
     1367      713        /*********************************************************************/
     1368      714                                                              /**/
     1369      715    1   DCL ALA$ERROR ENTRY(4) ;
     1370      716        %EJECT ;
PL6.E3A0      #005=ALA$HEADING File=ALA$LOGON.:E05TSI                            TUE 07/29/97 08:31 Page:252
     1371      717        /*********************************************************************/
     1372      718        /*   PROCEDURE       PROCEDURE       PROCEDURE       PROCEDURE       */
     1373      719        /*********************************************************************/
     1374      720                                                              /**/
     1375      721    2         IF B$JIT.MODE = %M_INT# THEN DO;          /* Write heading */
     1376      722                                                              /**/
     1377      723    2             TMDATE.RDEF_BUFF = AL_BLANK ;          /*   Blank fill time buffer. */
     1378      724    2             TMDATE.BUFF.TIME = SUBSTR (AL$TSTAMP.TIME, 0, 5);
     1379      725
     1380      726    2             TMDATE.BUFF.DAY  = AL$TSTAMP.DAY  ;
     1381      727    2             CALL XLATE (TBUF, B$XL_LOWER_UR, TMDATE.BUFF.DAY);
     1382      728    2             SUBSTR (TMDATE.BUFF.DAY, 1, 2) = SUBSTR (TBUF, 1, 2);
     1383      729
     1384      730    2             TMDATE.BUFF.DATE = AL$TSTAMP.DATE ;
     1385      731    2             CALL XLATE (TBUF, B$XL_LOWER_UR, TMDATE. BUFF.DATE);
     1386      732    2             SUBSTR (TMDATE.BUFF.DATE, 1, 2) = SUBSTR (TBUF, 1, 2);
     1387      733
     1388      734    2             TMDATE.CNT = 20;
     1389      735                                                                  /**/
     1390      736    2             CALL BINCHAR( TBUF, B$JIT.SYSID ) ;
     1391      737    2             I = 0 ;
     1392      738    3             DO WHILE( I < 6  AND  SUBSTR(TBUF,I,1) = '0' ) ;
     1393      739    3                 I = I + 1 ;
     1394      740    3                 END ;
     1395      741                                                                  /**/
     1396      742    2             SYSID.CNT = 6 - I ;
     1397      743    2             SYSID.TXT = SUBSTR( TBUF, I ) ;
     1398      744                                                                 /* Pick up site info */
     1399      745    2             FPT$MONINFO = FPT_MONINFO ;
     1400      746    2             FPT$MONINFO.SITEINFO_ = VECTOR( VLR_SITEINFO ) ;
     1401      747    2             CALL M$MONINFO( FPT$MONINFO ) ALTRET( MONINFO_ERR ) ;
     1402      748    2   MONINFO_ERR: ;
     1403      749        /*E*  ERROR:    ALA-E$HEADING-C
     1404      750              MESSAGE:  *** %Sysid %U1% %on %U2% at %U3.
     1405      751
     1406      752        */
     1407      753    2             ERR_CODE.CODE = E$HEADING ;
PL6.E3A0      #005=ALA$HEADING File=ALA$LOGON.:E05TSI                            TUE 07/29/97 08:31 Page:253
     1408      754    2             ERR_CODE.FCG_MID = FCG ;
     1409      755    2             ERR_CODE.SEV = 0 ;
     1410      756    2             IF NOT B$JIT.BLINDACCTNG
     1411      757    3             THEN DO;  /* BLINDACCTNG is used to pass the NOHEADER option
     1412      758                               from the main routine for logon strings. */
     1413      759    3                 CALL ALA$ERROR( ERR_CODE, SYSID, VLR_SITEINFO.SITE_NAME#, TMDATE ) ;
     1414      760    3                 END;
     1415      761                                                              /**/
     1416      762        /*E*  ERROR:    ALA-E$SYS_MESSAGE-C
     1417      763              MESSAGE:
     1418      764        */
     1419      765    2             ERR_CODE.CODE = E$SYS_MESSAGE ;
     1420      766    2             IF NOT B$JIT.BLINDACCTNG
     1421      767    3             THEN DO;  /* See above */
     1422      768    3                 CALL ALA$ERROR( ERR_CODE ) ;
     1423      769    3                 B$JIT.RERUN = '0'B;
     1424      770    3                 END;
     1425      771    2             END;
     1426      772                                                          /* Write message to OC */
     1427      773    1         CALL M$OCMSG ( FPT_OCMSG ) ;
     1428      774                                                              /**/
     1429      775    1         RETURN ;
     1430      776    1   END   ALA$HEADING ;
     1431      777        %EOD ;

PL6.E3A0      #005=ALA$HEADING File=ALA$LOGON.:E05TSI                            TUE 07/29/97 08:31 Page:254
--  Include file information  --

   B$TABLES_C.:E05TOU  cannot be made into a system file and is referenced.
   AL_MACROS_C.:E05TOU  is referenced.
   AL_LOGON_R.:E05TOU  cannot be made into a system file and is referenced.
   AL_PERR_C.:E05TOU  is referenced.
   B$JIT.:E05TOU  cannot be made into a system file and is referenced.
   AL_SUBS_C.:E05TOU  is referenced.
   CP_6.:E05TOU  cannot be made into a system file and is referenced.
   B$JIT_C.:E05TOU  was found in the system file and is referenced.
   CP_6_C.:E05TOU  was found in the system file and is referenced.
      No diagnostics issued in procedure ALA$HEADING.

   Procedure ALA$HEADING requires 126 words for executable code.
   Procedure ALA$HEADING requires 96 words of local(AUTO) storage.

PL6.E3A0      #005=ALA$HEADING File=ALA$LOGON.:E05TSI                            TUE 07/29/97 08:31 Page:255

 Object Unit name= ALA$HEADING                                File name= ALA$LOGON.:E05TOU
 UTS= JUL 29 '97 08:31:26.44 TUE                              Compiler= PL-6/E31         Sev=      00
 SharedLib= :SHARED_SYSTEM                                    Alt SharedLib=


    ****  Control sections  ****

 Sect   Type Bound  Init  Size OctSiz  Section name(segment info)
    0   DCB   even  none     0      0  M$UC
    1  RoData even  UTS     24     30  ALA$HEADING
    2   Proc  even  none   126    176  ALA$HEADING
    3  RoData even  none     5      5  ALA$HEADING

    ****  Entry defs  ****

                              Check   Calling
                             calling  sequence
  Sect OctLoc Primary Altret sequence   type   Parms  Name
     2      0   yes            yes      Std        1  ALA$HEADING

  ****  Entry refs  ****

         Check        Calling
        calling       sequence
Altret sequence SRef   type   Args  Name
         yes          ~proc      0 B_POINTER
         yes           Std       4 ALA$ERROR
                       nStd      0 X66_AUTO_1
                       Std       0 B_CONSPOOL_D
                       nStd      0 X66_ARET
PL6.E3A0      #005=ALA$HEADING File=ALA$LOGON.:E05TSI                            TUE 07/29/97 08:31 Page:256

  ****  Data refs  ****

  Flags:  r = read only, s = secondary
Flgs Name                             Flgs Name                             Flgs Name
     M$UC                                  AL_BLANK                              B$JIT$
r    B$XL_LOWER_UR$                        B_VECTNIL

  ****  Segment refs  ****

  Flags:  r = read only, s = secondary
Flgs Name                             Flgs Name                             Flgs Name
     ISSID                                 NULLSID
PL6.E3A0      #005=ALA$HEADING File=ALA$LOGON.:E05TSI                            TUE 07/29/97 08:31 Page:257


     1287        1        /*T***********************************************************/
     1288        2        /*T*                                                         */
     1289        3        /*T* Copyright (c) Bull HN Information Systems Inc., 1997    */
     1290        4        /*T*                                                         */
     1291        5        /*T***********************************************************/
     1292        6                                                              /**/
     1293        7        ALA$HEADING: PROC( AL$TSTAMP ) ;

      7  2 000000   000000 700200 xent  ALA$HEADING  TSX0  ! X66_AUTO_1
         2 000001   000140 000001                    ZERO    96,1

     1294        8                                                              /**/
     1295        9        %EJECT ;
PL6.E3A0      #005=ALA$HEADING File=ALA$LOGON.:E05TSI                            TUE 07/29/97 08:31 Page:258
     1296       10        /*********************************************************************/
     1297       11        /*   INCLUDE FILES   INCLUDE FILES   INCLUDE FILES   INCLUDE FILES   */
     1298       12        /*********************************************************************/
     1299       13              %INCLUDE CP_6 ;
     1300       94              %INCLUDE AL_SUBS_C ;
     1301      103              %INCLUDE B$JIT ;
     1302      393              %INCLUDE AL_PERR_C ;
     1303      415              %INCLUDE AL_LOGON_R ;
     1304      447              %INCLUDE AL_MACROS_C ;
     1305      473              %INCLUDE B$TABLES_C ;
     1306      581
     1307      582        %B$XL_LOWER_UR;
     1308      586                                                              /**/
     1309      587        %EJECT ;
PL6.E3A0      #005=ALA$HEADING File=ALA$LOGON.:E05TSI                            TUE 07/29/97 08:31 Page:259
     1310      588        /*********************************************************************/
     1311      589        /*   PARAMETERS      PARAMETERS      PARAMETERS      PARAMETERS      */
     1312      590        /*********************************************************************/
     1313      591                                                              /**/
     1314      592        %LIST ;
     1315      593                                                              /**/
     1316      594              %AL$TSTAMP (STCLASS=" ") ;
               595                                                /*   TIME STAMP FOR B$JIT.LOGONTIME.  */
               596    1         DCL 1 STNAME STCLASS ,
               597    1               2 UTS UBIN WORD ,
               598    1               2 TIME CHAR(11) UNAL ,
               599    1               2 DAY  CHAR(3) UNAL ,
               600    1               2 DATE CHAR(10) UNAL ;
     1317      602                                                              /**/
     1318      603        %PLIST ;
     1319      604        %EJECT ;
PL6.E3A0      #005=ALA$HEADING File=ALA$LOGON.:E05TSI                            TUE 07/29/97 08:31 Page:260
     1320      605        /*********************************************************************/
     1321      606        /*   AUTO DATA       AUTO DATA       AUTO DATA       AUTO DATA       */
     1322      607        /*********************************************************************/
     1323      608                                                              /**/
     1324      609    1   DCL 1 ERR_CODE AUTO ,
     1325      610    1         2 FCG_MID UBIN(18) UNAL ,
     1326      611    1         2 CODE UBIN(15) UNAL ,
     1327      612    1         2 SEV UBIN(3) UNAL ;
     1328      613    1   DCL 1 TMDATE ALIGNED ,
     1329      614    1         2 CNT UBIN(9) UNAL ,
     1330      615    1         2 BUFF UNAL ,
     1331      616    1           3 TIME CHAR(5) UNAL ,
     1332      617    1           3 * CHAR(1) UNAL ,
     1333      618    1           3 DAY CHAR(3) UNAL ,
     1334      619    1           3 * CHAR(1) UNAL ,
     1335      620    1           3 DATE CHAR(10) UNAL ,
     1336      621    1         2 RDEF_BUFF REDEF BUFF CHAR(20) ;
     1337      622    1   DCL 1 SYSID ALIGNED ,
     1338      623    1         2 CNT UBIN BYTE UNAL ,
     1339      624    1         2 TXT CHAR(6) UNAL ;
     1340      625    1   DCL TBUF CHAR(6) ;
     1341      626    1   DCL CNT UBIN WORD ;
     1342      627    1   DCL I UBIN WORD ;
     1343      628        %EJECT ;
PL6.E3A0      #005=ALA$HEADING File=ALA$LOGON.:E05TSI                            TUE 07/29/97 08:31 Page:261
     1344      629        /*********************************************************************/
     1345      630        /*   CONSTANT DATA   CONSTANT DATA   CONSTANT DATA   CONSTANT DATA   */
     1346      631        /*********************************************************************/
     1347      632                                                              /**/
     1348      633    1   DCL FCG UBIN(18) CONSTANT INIT(4865) ;          /*   'ALA' IN SIX-BIT.   */
     1349      634              %FPT_OCMSG (  FPTN = FPT_OCMSG ,
     1350      635                            MSG = ON_MESSAGE_VAL ,
     1351      636                            OCTYPE = ADCOM ,
     1352      637                            STCLASS = CONSTANT ) ;
     1353      653        %EJECT ;
PL6.E3A0      #005=ALA$HEADING File=ALA$LOGON.:E05TSI                            TUE 07/29/97 08:31 Page:262
     1354      654        /*********************************************************************/
     1355      655        /*   FPTs            FPTs            FPTs            FPTs            */
     1356      656        /*********************************************************************/
     1357      657                                                              /**/
     1358      658              %FPT_MONINFO( FPTN = FPT_MONINFO ,
     1359      659                            STCLASS = CONSTANT ) ;
     1360      674              %FPT_MONINFO( FPTN = FPT$MONINFO ,
     1361      675                            STCLASS = AUTO ) ;
     1362      690              %VLR_SITEINFO(  FPTN = VLR_SITEINFO ,
     1363      691                              STCLASS = AUTO ) ;
     1364      710        %EJECT ;
PL6.E3A0      #005=ALA$HEADING File=ALA$LOGON.:E05TSI                            TUE 07/29/97 08:31 Page:263
     1365      711        /*********************************************************************/
     1366      712        /*   ENTRIES         ENTRIES         ENTRIES         ENTRIES         */
     1367      713        /*********************************************************************/
     1368      714                                                              /**/
     1369      715    1   DCL ALA$ERROR ENTRY(4) ;
     1370      716        %EJECT ;
PL6.E3A0      #005=ALA$HEADING File=ALA$LOGON.:E05TSI                            TUE 07/29/97 08:31 Page:264
     1371      717        /*********************************************************************/
     1372      718        /*   PROCEDURE       PROCEDURE       PROCEDURE       PROCEDURE       */
     1373      719        /*********************************************************************/
     1374      720                                                              /**/
     1375      721    2         IF B$JIT.MODE = %M_INT# THEN DO;          /* Write heading */

    721  2 000002   000000 470400 xsym               LDP0    B$JIT$
         2 000003   000000 236100                    LDQ     0,,PR0
         2 000004   740000 376003                    ANQ     -16384,DU
         2 000005   140000 116003                    CMPQ    49152,DU
         2 000006   000172 601000 2                  TNZ     s:773

     1376      722                                                              /**/
     1377      723    2             TMDATE.RDEF_BUFF = AL_BLANK ;          /*   Blank fill time buffer. */

    723  2 000007   040100 100400                    MLR     fill='040'O
         2 000010   000000 000001 xsym               ADSC9   AL_BLANK                 cn=0,n=1
         2 000011   200005 200024                    ADSC9   TMDATE,,AUTO             cn=1,n=20

     1378      724    2             TMDATE.BUFF.TIME = SUBSTR (AL$TSTAMP.TIME, 0, 5);

    724  2 000012   200003 471500                    LDP1    @AL$TSTAMP,,AUTO
         2 000013   040100 100500                    MLR     fill='040'O
         2 000014   100001 000005                    ADSC9   1,,PR1                   cn=0,n=5
         2 000015   200005 200005                    ADSC9   TMDATE,,AUTO             cn=1,n=5

     1379      725
     1380      726    2             TMDATE.BUFF.DAY  = AL$TSTAMP.DAY  ;

    726  2 000016   040100 100500                    MLR     fill='040'O
         2 000017   100003 600003                    ADSC9   3,,PR1                   cn=3,n=3
         2 000020   200006 600003                    ADSC9   TMDATE+1,,AUTO           cn=3,n=3

     1381      727    2             CALL XLATE (TBUF, B$XL_LOWER_UR, TMDATE.BUFF.DAY);

    727  2 000021   000000 473400 xsym               LDP3    B$XL_LOWER_UR$
         2 000022   040100 160500                    MVT     fill='040'O
PL6.E3A0      #005=ALA$HEADING File=ALA$LOGON.:E05TSI                            TUE 07/29/97 08:31 Page:265
         2 000023   200006 600003                    ADSC9   TMDATE+1,,AUTO           cn=3,n=3
         2 000024   200015 000006                    ADSC9   TBUF,,AUTO               cn=0,n=6
         2 000025   300000 000100                    ARG     0,,PR3

     1382      728    2             SUBSTR (TMDATE.BUFF.DAY, 1, 2) = SUBSTR (TBUF, 1, 2);

    728  2 000026   040100 100500                    MLR     fill='040'O
         2 000027   200015 200002                    ADSC9   TBUF,,AUTO               cn=1,n=2
         2 000030   200134 000004                    ADSC9   VLR_SITEINFO+62,,AUTO    cn=0,n=4
         2 000031   200134 220100                    LDX0    VLR_SITEINFO+62,,AUTO
         2 000032   200007 740100                    STX0    TMDATE+2,,AUTO

     1383      729
     1384      730    2             TMDATE.BUFF.DATE = AL$TSTAMP.DATE ;

    730  2 000033   040100 100500                    MLR     fill='040'O
         2 000034   100004 400012                    ADSC9   4,,PR1                   cn=2,n=10
         2 000035   200007 600012                    ADSC9   TMDATE+2,,AUTO           cn=3,n=10

     1385      731    2             CALL XLATE (TBUF, B$XL_LOWER_UR, TMDATE. BUFF.DATE);

    731  2 000036   040100 160500                    MVT     fill='040'O
         2 000037   200007 600012                    ADSC9   TMDATE+2,,AUTO           cn=3,n=10
         2 000040   200015 000006                    ADSC9   TBUF,,AUTO               cn=0,n=6
         2 000041   300000 000100                    ARG     0,,PR3

     1386      732    2             SUBSTR (TMDATE.BUFF.DATE, 1, 2) = SUBSTR (TBUF, 1, 2);

    732  2 000042   040100 100500                    MLR     fill='040'O
         2 000043   200015 200002                    ADSC9   TBUF,,AUTO               cn=1,n=2
         2 000044   200134 000004                    ADSC9   VLR_SITEINFO+62,,AUTO    cn=0,n=4
         2 000045   200134 221100                    LDX1    VLR_SITEINFO+62,,AUTO
         2 000046   200010 741100                    STX1    TMDATE+3,,AUTO

     1387      733
     1388      734    2             TMDATE.CNT = 20;

PL6.E3A0      #005=ALA$HEADING File=ALA$LOGON.:E05TSI                            TUE 07/29/97 08:31 Page:266
    734  2 000047   024000 236003                    LDQ     10240,DU
         2 000050   200005 552140                    STBQ    TMDATE,'40'O,AUTO

     1389      735                                                                  /**/
     1390      736    2             CALL BINCHAR( TBUF, B$JIT.SYSID ) ;

    736  2 000051   000000 236100                    LDQ     0,,PR0
         2 000052   777777 376007                    ANQ     -1,DL
         2 000053   000000 235003                    LDA     0,DU
         2 000054   200134 757100                    STAQ    VLR_SITEINFO+62,,AUTO
         2 000055   000100 301500                    BTD
         2 000056   200134 000010                    NDSC9   VLR_SITEINFO+62,,AUTO    cn=0,s=lsgnf,sf=0,n=8
         2 000057   200015 030006                    NDSC9   TBUF,,AUTO               cn=0,s=nosgn,sf=0,n=6

     1391      737    2             I = 0 ;

    737  2 000060   200020 450100                    STZ     I,,AUTO

     1392      738    3             DO WHILE( I < 6  AND  SUBSTR(TBUF,I,1) = '0' ) ;

    738  2 000061   000065 710000 2                  TRA     s:740

     1393      739    3                 I = I + 1 ;

    739  2 000062   200020 235100                    LDA     I,,AUTO
         2 000063   000001 035007                    ADLA    1,DL
         2 000064   200020 755100                    STA     I,,AUTO

     1394      740    3                 END ;

    740  2 000065   200020 235100                    LDA     I,,AUTO
         2 000066   000006 115007                    CMPA    6,DL
         2 000067   000074 603000 2                  TRC     s:742
         2 000070   040000 106505                    CMPC    fill='040'O
         2 000071   200015 000001                    ADSC9   TBUF,A,AUTO              cn=0,n=1
         2 000072   000000 000001 3                  ADSC9   0                        cn=0,n=1
         2 000073   000062 600000 2                  TZE     s:739
PL6.E3A0      #005=ALA$HEADING File=ALA$LOGON.:E05TSI                            TUE 07/29/97 08:31 Page:267

     1395      741                                                                  /**/
     1396      742    2             SYSID.CNT = 6 - I ;

    742  2 000074   000006 236007                    LDQ     6,DL
         2 000075   200020 136100                    SBLQ    I,,AUTO
         2 000076   000033 736000                    QLS     27
         2 000077   200013 552140                    STBQ    SYSID,'40'O,AUTO

     1397      743    2             SYSID.TXT = SUBSTR( TBUF, I ) ;

    743  2 000100   777771 620005                    EAX0    -7,AL
         2 000101   777777 660003                    ERX0    -1,DU
         2 000102   040100 100545                    MLR     fill='040'O
         2 000103   200015 000010                    ADSC9   TBUF,A,AUTO              cn=0,n=*X0
         2 000104   200013 200006                    ADSC9   SYSID,,AUTO              cn=1,n=6

     1398      744                                                                 /* Pick up site info */
     1399      745    2             FPT$MONINFO = FPT_MONINFO ;

    745  2 000105   000100 100400                    MLR     fill='000'O
         2 000106   000014 000060 1                  ADSC9   FPT_MONINFO              cn=0,n=48
         2 000107   200022 000060                    ADSC9   FPT$MONINFO,,AUTO        cn=0,n=48

     1400      746    2             FPT$MONINFO.SITEINFO_ = VECTOR( VLR_SITEINFO ) ;

    746  2 000110   000001 235000 3                  LDA     1
         2 000111   200134 452500                    STP2    VLR_SITEINFO+62,,AUTO
         2 000112   200134 236100                    LDQ     VLR_SITEINFO+62,,AUTO
         2 000113   000036 036003                    ADLQ    30,DU
         2 000114   200022 757100                    STAQ    FPT$MONINFO,,AUTO

     1401      747    2             CALL M$MONINFO( FPT$MONINFO ) ALTRET( MONINFO_ERR ) ;

    747  2 000115   200022 630500                    EPPR0   FPT$MONINFO,,AUTO
         2 000116   420023 713400                    CLIMB   alt,+8211
         2 000117   402400 401760                    pmme    nvectors=6
PL6.E3A0      #005=ALA$HEADING File=ALA$LOGON.:E05TSI                            TUE 07/29/97 08:31 Page:268
         2 000120   000121 702000 2                  TSX2    MONINFO_ERR

    746  2 000121                       MONINFO_ERR  null
     1402      748    2   MONINFO_ERR: ;
     1403      749        /*E*  ERROR:    ALA-E$HEADING-C
     1404      750              MESSAGE:  *** %Sysid %U1% %on %U2% at %U3.
     1405      751
     1406      752        */
     1407      753    2             ERR_CODE.CODE = E$HEADING ;

    753  2 000121   200004 236100                    LDQ     ERR_CODE,,AUTO
         2 000122   000002 376000 3                  ANQ     2
         2 000123   000030 276007                    ORQ     24,DL
         2 000124   200004 756100                    STQ     ERR_CODE,,AUTO

     1408      754    2             ERR_CODE.FCG_MID = FCG ;

    754  2 000125   000000 220000 1                  LDX0    FCG
         2 000126   200004 740100                    STX0    ERR_CODE,,AUTO

     1409      755    2             ERR_CODE.SEV = 0 ;

    755  2 000127   000003 236000 3                  LDQ     3
         2 000130   200004 356100                    ANSQ    ERR_CODE,,AUTO

     1410      756    2             IF NOT B$JIT.BLINDACCTNG

    756  2 000131   000000 470400 xsym               LDP0    B$JIT$
         2 000132   000153 236100                    LDQ     107,,PR0
         2 000133   400000 316007                    CANQ    -131072,DL
         2 000134   000151 601000 2                  TNZ     s:765

     1411      757    3             THEN DO;  /* BLINDACCTNG is used to pass the NOHEADER option

     1412      758                               from the main routine for logon strings. */
     1413      759    3                 CALL ALA$ERROR( ERR_CODE, SYSID, VLR_SITEINFO.SITE_NAME#, TMDATE ) ;

PL6.E3A0      #005=ALA$HEADING File=ALA$LOGON.:E05TSI                            TUE 07/29/97 08:31 Page:269
    759  2 000135   200005 631500                    EPPR1   TMDATE,,AUTO
         2 000136   200137 451500                    STP1    VLR_SITEINFO+65,,AUTO
         2 000137   200037 633500                    EPPR3   VLR_SITEINFO+1,,AUTO
         2 000140   200136 453500                    STP3    VLR_SITEINFO+64,,AUTO
         2 000141   200013 634500                    EPPR4   SYSID,,AUTO
         2 000142   200135 454500                    STP4    VLR_SITEINFO+63,,AUTO
         2 000143   200004 635500                    EPPR5   ERR_CODE,,AUTO
         2 000144   200134 455500                    STP5    VLR_SITEINFO+62,,AUTO
         2 000145   200134 630500                    EPPR0   VLR_SITEINFO+62,,AUTO
         2 000146   000022 631400 xsym               EPPR1   B_VECTNIL+18
         2 000147   000000 701000 xent               TSX1    ALA$ERROR
         2 000150   000000 011000                    NOP     0

     1414      760    3                 END;

     1415      761                                                              /**/
     1416      762        /*E*  ERROR:    ALA-E$SYS_MESSAGE-C
     1417      763              MESSAGE:
     1418      764        */
     1419      765    2             ERR_CODE.CODE = E$SYS_MESSAGE ;

    765  2 000151   200004 236100                    LDQ     ERR_CODE,,AUTO
         2 000152   000002 376000 3                  ANQ     2
         2 000153   000100 276007                    ORQ     64,DL
         2 000154   200004 756100                    STQ     ERR_CODE,,AUTO

     1420      766    2             IF NOT B$JIT.BLINDACCTNG

    766  2 000155   000000 470400 xsym               LDP0    B$JIT$
         2 000156   000153 236100                    LDQ     107,,PR0
         2 000157   400000 316007                    CANQ    -131072,DL
         2 000160   000172 601000 2                  TNZ     s:773

     1421      767    3             THEN DO;  /* See above */

     1422      768    3                 CALL ALA$ERROR( ERR_CODE ) ;

PL6.E3A0      #005=ALA$HEADING File=ALA$LOGON.:E05TSI                            TUE 07/29/97 08:31 Page:270
    768  2 000161   200004 631500                    EPPR1   ERR_CODE,,AUTO
         2 000162   200134 451500                    STP1    VLR_SITEINFO+62,,AUTO
         2 000163   200134 630500                    EPPR0   VLR_SITEINFO+62,,AUTO
         2 000164   000017 631400 xsym               EPPR1   B_VECTNIL+15
         2 000165   000000 701000 xent               TSX1    ALA$ERROR
         2 000166   000000 011000                    NOP     0

     1423      769    3                 B$JIT.RERUN = '0'B;

    769  2 000167   000000 470400 xsym               LDP0    B$JIT$
         2 000170   000004 236000 3                  LDQ     4
         2 000171   000302 356100                    ANSQ    194,,PR0

     1424      770    3                 END;

     1425      771    2             END;

     1426      772                                                          /* Write message to OC */
     1427      773    1         CALL M$OCMSG ( FPT_OCMSG ) ;

    773  2 000172   000002 630400 1                  EPPR0   FPT_OCMSG
         2 000173   120001 713400                    CLIMB   40961
         2 000174   401000 401760                    pmme    nvectors=3

     1428      774                                                              /**/
     1429      775    1         RETURN ;

    775  2 000175   000000 702200 xent               TSX2  ! X66_ARET
     1430      776    1   END   ALA$HEADING ;
     1431      777        %EOD ;

PL6.E3A0      #005=ALA$HEADING File=ALA$LOGON.:E05TSI                            TUE 07/29/97 08:31 Page:271
--  Include file information  --

   B$TABLES_C.:E05TOU  cannot be made into a system file and is referenced.
   AL_MACROS_C.:E05TOU  is referenced.
   AL_LOGON_R.:E05TOU  cannot be made into a system file and is referenced.
   AL_PERR_C.:E05TOU  is referenced.
   B$JIT.:E05TOU  cannot be made into a system file and is referenced.
   AL_SUBS_C.:E05TOU  is referenced.
   CP_6.:E05TOU  cannot be made into a system file and is referenced.
   B$JIT_C.:E05TOU  was found in the system file and is referenced.
   CP_6_C.:E05TOU  was found in the system file and is referenced.
      No diagnostics issued in procedure ALA$HEADING.
PL6.E3A0      #005=ALA$HEADING File=ALA$LOGON.:E05TSI                            TUE 07/29/97 08:31 Page:272

 **** Variables and constants ****

  ****  Section 001 RoData ALA$HEADING

  ****  Scalars and arrays  ****
OctLoc.c.b A Datatyp(siz) R M Lvl/name                 OctLoc.c.b A Datatyp(siz) R M Lvl/name

     0-0-0/w UBIN(18)    r     1 FCG                       14-0-0/d STRC(432)   r     1 FPT_MONINFO
     2-0-0/d STRC(360)   r     1 FPT_OCMSG

  ****  Auto variables  ****

  ****  Scalars and arrays  ****
OctLoc.c.b A Datatyp(siz) R M Lvl/name                 OctLoc.c.b A Datatyp(siz) R M Lvl/name

     3-0-0/w PTR         r     1 @AL$TSTAMP                *0-0-0/w STRC(252)   r     1 AL$TSTAMP
     4-0-0/b STRC        r     1 ERR_CODE                  22-0-0/d STRC(432)   r     1 FPT$MONINFO
    20-0-0/w UBIN        r     1 I                         13-0-0/w STRC(63)    r     1 SYSID
    15-0-0/c CHAR(6)     r     1 TBUF                       5-0-0/w STRC(189)   r     1 TMDATE
    36-0-0/d STRC(2232)  r     1 VLR_SITEINFO

  ****  SYMREF variables  ****

  ****  Scalars and arrays  ****
OctLoc.c.b A Datatyp(siz) R M Lvl/name                 OctLoc.c.b A Datatyp(siz) R M Lvl/name

     0-0-0/c CHAR        r     1 AL_BLANK                   0-0-0/w PTR         r     1 B$JIT$
     0-0-0/w PTR         r     1 B$XL_LOWER_UR$

  ****  BASED and DCB variables  ****

  ****  Scalars and arrays  ****
OctLoc.c.b A Datatyp(siz) R M Lvl/name                 OctLoc.c.b A Datatyp(siz) R M Lvl/name

     0-0-0/d STRC(8856)  r     1 B$JIT                      0-0-0/d STRC(4608)  r     1 B$XL_LOWER_UR

PL6.E3A0      #005=ALA$HEADING File=ALA$LOGON.:E05TSI                            TUE 07/29/97 08:31 Page:273

   Procedure ALA$HEADING requires 126 words for executable code.
   Procedure ALA$HEADING requires 96 words of local(AUTO) storage.
PL6.E3A0      #005=ALA$HEADING File=ALA$LOGON.:E05TSI                            TUE 07/29/97 08:31 Page:274
          *** CROSS REFERENCE LISTING ***
**     DENOTES     IDENTIFIER DEFINITION
<<                 IDENTIFIER'S VALUE SET
>>                 IDENTIFIER'S VALUE USED
<>                 IDENTIFIER SET AND/OR USED
--                 IDENTIFIER REFERENCED
PL6.E3A0      #005=ALA$HEADING File=ALA$LOGON.:E05TSI                            TUE 07/29/97 08:31 Page:275
          MINI XREF LISTING

AL$TSTAMP
       596**DCL         7--PROC
AL$TSTAMP.DATE
       600**DCL       730>>ASSIGN
AL$TSTAMP.DAY
       599**DCL       726>>ASSIGN
AL$TSTAMP.TIME
       598**DCL       724>>ASSIGN
ALA$ERROR
       715**DCL-ENT   759--CALL      768--CALL
AL_BLANK
       429**DCL       723>>ASSIGN
B$JIT.BLINDACCTNG
       265**DCL       756>>IF        766>>IF
B$JIT.CPFLAGS1.SLEAZE
       211**DCL       211--REDEF
B$JIT.ERR.MID
       118**DCL       118--REDEF
B$JIT.JRESPEAK
       279**DCL       280--REDEF
B$JIT.MODE
       112**DCL       721>>IF
B$JIT.ORIGINATOR_PORT.FROM_CR
       388**DCL       388--REDEF     389--REDEF
B$JIT.PNR
       292**DCL       292--REDEF
B$JIT.RERUN
       292**DCL       769<<ASSIGN
B$JIT.SYSID
       117**DCL       736>>CALLBLT
B$JIT.TSLINE
       386**DCL       387--REDEF
PL6.E3A0      #005=ALA$HEADING File=ALA$LOGON.:E05TSI                            TUE 07/29/97 08:31 Page:276
B$JIT$
       445**DCL       112--IMP-PTR   721>>IF        736>>CALLBLT   756>>IF        766>>IF        769>>ASSIGN
B$XL_LOWER_UR
       584**DCL       727>>CALLBLT   731>>CALLBLT
B$XL_LOWER_UR$
       583**DCL       584--IMP-PTR   727>>CALLBLT   731>>CALLBLT
ERR_CODE
       609**DCL       759<>CALL      768<>CALL
ERR_CODE.CODE
       611**DCL       753<<ASSIGN    765<<ASSIGN
ERR_CODE.FCG_MID
       610**DCL       754<<ASSIGN
ERR_CODE.SEV
       612**DCL       755<<ASSIGN
FCG
       633**DCL       754>>ASSIGN
FPT$MONINFO
       686**DCL       745<<ASSIGN    747<>CALL
FPT$MONINFO.SITEINFO_
       686**DCL       746<<ASSIGN
FPT_MONINFO
       670**DCL       745>>ASSIGN
FPT_OCMSG
       648**DCL       773<>CALL
FPT_OCMSG.V
       649**DCL       648--DCLINIT
I
       627**DCL       737<<ASSIGN    738>>DOWHILE   738>>DOWHILE   739<<ASSIGN    739>>ASSIGN    742>>ASSIGN
       743>>ASSIGN
M$MONINFO
        90**DCL-ENT   747--CALL
M$OCMSG
        86**DCL-ENT   773--CALL
MONINFO_ERR
       746**LABEL     747--CALLALT
SYSID
PL6.E3A0      #005=ALA$HEADING File=ALA$LOGON.:E05TSI                            TUE 07/29/97 08:31 Page:277
       622**DCL       759<>CALL
SYSID.CNT
       623**DCL       742<<ASSIGN
SYSID.TXT
       624**DCL       743<<ASSIGN
TBUF
       625**DCL       727<<CALLBLT   728>>ASSIGN    731<<CALLBLT   732>>ASSIGN    736<<CALLBLT   738>>DOWHILE
       743>>ASSIGN
TMDATE
       613**DCL       759<>CALL
TMDATE.BUFF
       615**DCL       621--REDEF
TMDATE.BUFF.DATE
       620**DCL       730<<ASSIGN    731>>CALLBLT   732<<ASSIGN
TMDATE.BUFF.DAY
       618**DCL       726<<ASSIGN    727>>CALLBLT   728<<ASSIGN
TMDATE.BUFF.TIME
       616**DCL       724<<ASSIGN
TMDATE.CNT
       614**DCL       734<<ASSIGN
TMDATE.RDEF_BUFF
       621**DCL       723<<ASSIGN
VLR_SITEINFO
       702**DCL       746--ASSIGN
VLR_SITEINFO.SITE_NAME#
       702**DCL       759<>CALL

PL6.E3A0      #006=ALA$TIME File=ALA$LOGON.:E05TSI                               TUE 07/29/97 08:31 Page:278
     1432        1        /*T***********************************************************/
     1433        2        /*T*                                                         */
     1434        3        /*T* Copyright (c) Bull HN Information Systems Inc., 1997    */
     1435        4        /*T*                                                         */
     1436        5        /*T***********************************************************/
     1437        6        ALA$TIME: PROC( AL$TSTAMP ) ;
     1438        7                                                              /**/
     1439        8        %EJECT ;
PL6.E3A0      #006=ALA$TIME File=ALA$LOGON.:E05TSI                               TUE 07/29/97 08:31 Page:279
     1440        9        /*********************************************************************/
     1441       10        /*   INCLUDE FILES   INCLUDE FILES   INCLUDE FILES   INCLUDE FILES   */
     1442       11        /*********************************************************************/
     1443       12                                                              /**/
     1444       13              %INCLUDE CP_6 ;
     1445       94              %INCLUDE AL_MACROS_C ;
     1446      120              %INCLUDE AL_LOGON_R ;
     1447      152              %INCLUDE CP_6_SUBS;
     1448      692        %EJECT ;
PL6.E3A0      #006=ALA$TIME File=ALA$LOGON.:E05TSI                               TUE 07/29/97 08:31 Page:280
     1449      693        /*********************************************************************/
     1450      694        /*   PARAMETERS      PARAMETERS      PARAMETERS      PARAMETERS      */
     1451      695        /*********************************************************************/
     1452      696                                                              /**/
     1453      697        %LIST ;
     1454      698                                                              /**/
     1455      699              %AL$TSTAMP (STNAME=AL$TSTAMP,STCLASS=" ") ;
               700                                                /*   TIME STAMP FOR B$JIT.LOGONTIME.  */
               701    1         DCL 1 STNAME STCLASS ,
               702    1               2 UTS UBIN WORD ,
               703    1               2 TIME CHAR(11) UNAL ,
               704    1               2 DAY  CHAR(3) UNAL ,
               705    1               2 DATE CHAR(10) UNAL ;
     1456      707                                                              /**/
     1457      708        %PLIST ;
     1458      709        %EJECT ;
PL6.E3A0      #006=ALA$TIME File=ALA$LOGON.:E05TSI                               TUE 07/29/97 08:31 Page:281
     1459      710        /*********************************************************************/
     1460      711        /*   FPTs            FPTs            FPTs            FPTs            */
     1461      712        /*********************************************************************/
     1462      713                                                              /**/
     1463      714              %FPT_TIME ( FPTN = FPT_TIME ,
     1464      715                          STCLASS = CONSTANT ) ;
     1465      734              %FPT_TIME ( FPTN = FPT$TIME ,
     1466      735                          STCLASS = AUTO ) ;
     1467      754        %EJECT ;
PL6.E3A0      #006=ALA$TIME File=ALA$LOGON.:E05TSI                               TUE 07/29/97 08:31 Page:282
     1468      755        /*********************************************************************/
     1469      756        /*   PROCEDURE       PROCEDURE       PROCEDURE       PROCEDURE       */
     1470      757        /*********************************************************************/
     1471      758                                                              /**/
     1472      759    1         AL$TSTAMP.TIME = AL_BLANK ;
     1473      760    1         AL$TSTAMP.DAY  = AL_BLANK ;
     1474      761    1         AL$TSTAMP.DATE = AL_BLANK ;
     1475      762                                                            /*   SET UP FPT FOR M$TIME.   */
     1476      763    1         FPT$TIME = FPT_TIME ;
     1477      764    1         FPT$TIME.TIME_ = VECTOR( AL$TSTAMP.TIME ) ;
     1478      765    1         FPT$TIME.DAY_  = VECTOR( AL$TSTAMP.DAY  ) ;
     1479      766    1         FPT$TIME.DATE_ = VECTOR( AL$TSTAMP.DATE ) ;
     1480      767    1         FPT$TIME.TSTAMP_ = VECTOR( AL$TSTAMP.UTS ) ;
     1481      768    1         FPT$TIME.V_    = VECTOR( FPT$TIME.V     ) ;
     1482      769    1         IF AL$TSTAMP.UTS ~= 0
     1483      770    1         THEN
     1484      771    1             FPT$TIME.V.SOURCE# = %UTS#;
     1485      772                                                              /*   GET THE TIME.   */
     1486      773    1         CALL M$TIME( FPT$TIME )  ALTRET( TIME_ERR ) ;
     1487      774                                                              /**/
     1488      775    1         RETURN ;
     1489      776    1   TIME_ERR: ;
     1490      777    1         RETURN ;
     1491      778                                                              /**/
     1492      779    1   END   ALA$TIME ;
     1493      780        %EOD ;

PL6.E3A0      #006=ALA$TIME File=ALA$LOGON.:E05TSI                               TUE 07/29/97 08:31 Page:283
--  Include file information  --

   CP_6_SUBS.:E05TOU  is referenced.
   AL_LOGON_R.:E05TOU  cannot be made into a system file and is referenced.
   AL_MACROS_C.:E05TOU  is referenced.
   CP_6.:E05TOU  cannot be made into a system file and is referenced.
   B$JIT_C.:E05TOU  was found in the system file and is never referenced.
   CP_6_C.:E05TOU  was found in the system file and is referenced.
      No diagnostics issued in procedure ALA$TIME.

   Procedure ALA$TIME requires 45 words for executable code.
   Procedure ALA$TIME requires 18 words of local(AUTO) storage.

PL6.E3A0      #006=ALA$TIME File=ALA$LOGON.:E05TSI                               TUE 07/29/97 08:31 Page:284

 Object Unit name= ALA$TIME                                   File name= ALA$LOGON.:E05TOU
 UTS= JUL 29 '97 08:31:55.24 TUE                              Compiler= PL-6/E31         Sev=      00
 SharedLib= :SHARED_SYSTEM                                    Alt SharedLib=


    ****  Control sections  ****

 Sect   Type Bound  Init  Size OctSiz  Section name(segment info)
    0   DCB   even  none     0      0  M$UC
    1  RoData even  UTS     12     14  ALA$TIME
    2   Proc  even  none    45     55  ALA$TIME
    3  RoData even  none     5      5  ALA$TIME

    ****  Entry defs  ****

                              Check   Calling
                             calling  sequence
  Sect OctLoc Primary Altret sequence   type   Parms  Name
     2      0   yes            yes      Std        1  ALA$TIME

  ****  Entry refs  ****

         Check        Calling
        calling       sequence
Altret sequence SRef   type   Args  Name
                       nStd      0 X66_AUTO_1
                       nStd      0 X66_ARET

  ****  Data refs  ****

  Flags:  r = read only, s = secondary
Flgs Name                             Flgs Name                             Flgs Name
     M$UC                                  AL_BLANK
PL6.E3A0      #006=ALA$TIME File=ALA$LOGON.:E05TSI                               TUE 07/29/97 08:31 Page:285

  ****  Segment refs  ****

  Flags:  r = read only, s = secondary
Flgs Name                             Flgs Name                             Flgs Name
     ISSID                                 NULLSID
PL6.E3A0      #006=ALA$TIME File=ALA$LOGON.:E05TSI                               TUE 07/29/97 08:31 Page:286


     1432        1        /*T***********************************************************/
     1433        2        /*T*                                                         */
     1434        3        /*T* Copyright (c) Bull HN Information Systems Inc., 1997    */
     1435        4        /*T*                                                         */
     1436        5        /*T***********************************************************/
     1437        6        ALA$TIME: PROC( AL$TSTAMP ) ;

      6  2 000000   000000 700200 xent  ALA$TIME     TSX0  ! X66_AUTO_1
         2 000001   000022 000001                    ZERO    18,1

     1438        7                                                              /**/
     1439        8        %EJECT ;
PL6.E3A0      #006=ALA$TIME File=ALA$LOGON.:E05TSI                               TUE 07/29/97 08:31 Page:287
     1440        9        /*********************************************************************/
     1441       10        /*   INCLUDE FILES   INCLUDE FILES   INCLUDE FILES   INCLUDE FILES   */
     1442       11        /*********************************************************************/
     1443       12                                                              /**/
     1444       13              %INCLUDE CP_6 ;
     1445       94              %INCLUDE AL_MACROS_C ;
     1446      120              %INCLUDE AL_LOGON_R ;
     1447      152              %INCLUDE CP_6_SUBS;
     1448      692        %EJECT ;
PL6.E3A0      #006=ALA$TIME File=ALA$LOGON.:E05TSI                               TUE 07/29/97 08:31 Page:288
     1449      693        /*********************************************************************/
     1450      694        /*   PARAMETERS      PARAMETERS      PARAMETERS      PARAMETERS      */
     1451      695        /*********************************************************************/
     1452      696                                                              /**/
     1453      697        %LIST ;
     1454      698                                                              /**/
     1455      699              %AL$TSTAMP (STNAME=AL$TSTAMP,STCLASS=" ") ;
               700                                                /*   TIME STAMP FOR B$JIT.LOGONTIME.  */
               701    1         DCL 1 STNAME STCLASS ,
               702    1               2 UTS UBIN WORD ,
               703    1               2 TIME CHAR(11) UNAL ,
               704    1               2 DAY  CHAR(3) UNAL ,
               705    1               2 DATE CHAR(10) UNAL ;
     1456      707                                                              /**/
     1457      708        %PLIST ;
     1458      709        %EJECT ;
PL6.E3A0      #006=ALA$TIME File=ALA$LOGON.:E05TSI                               TUE 07/29/97 08:31 Page:289
     1459      710        /*********************************************************************/
     1460      711        /*   FPTs            FPTs            FPTs            FPTs            */
     1461      712        /*********************************************************************/
     1462      713                                                              /**/
     1463      714              %FPT_TIME ( FPTN = FPT_TIME ,
     1464      715                          STCLASS = CONSTANT ) ;
     1465      734              %FPT_TIME ( FPTN = FPT$TIME ,
     1466      735                          STCLASS = AUTO ) ;
     1467      754        %EJECT ;
PL6.E3A0      #006=ALA$TIME File=ALA$LOGON.:E05TSI                               TUE 07/29/97 08:31 Page:290
     1468      755        /*********************************************************************/
     1469      756        /*   PROCEDURE       PROCEDURE       PROCEDURE       PROCEDURE       */
     1470      757        /*********************************************************************/
     1471      758                                                              /**/
     1472      759    1         AL$TSTAMP.TIME = AL_BLANK ;

    759  2 000002   200003 470500                    LDP0    @AL$TSTAMP,,AUTO
         2 000003   040100 100400                    MLR     fill='040'O
         2 000004   000000 000001 xsym               ADSC9   AL_BLANK                 cn=0,n=1
         2 000005   000001 000013                    ADSC9   1,,PR0                   cn=0,n=11

     1473      760    1         AL$TSTAMP.DAY  = AL_BLANK ;

    760  2 000006   040100 100400                    MLR     fill='040'O
         2 000007   000000 000001 xsym               ADSC9   AL_BLANK                 cn=0,n=1
         2 000010   000003 600003                    ADSC9   3,,PR0                   cn=3,n=3

     1474      761    1         AL$TSTAMP.DATE = AL_BLANK ;

    761  2 000011   040100 100400                    MLR     fill='040'O
         2 000012   000000 000001 xsym               ADSC9   AL_BLANK                 cn=0,n=1
         2 000013   000004 400012                    ADSC9   4,,PR0                   cn=2,n=10

     1475      762                                                            /*   SET UP FPT FOR M$TIME.  */
     1476      763    1         FPT$TIME = FPT_TIME ;

    763  2 000014   000100 100400                    MLR     fill='000'O
         2 000015   000000 000060 1                  ADSC9   FPT_TIME                 cn=0,n=48
         2 000016   200004 000060                    ADSC9   FPT$TIME,,AUTO           cn=0,n=48

     1477      764    1         FPT$TIME.TIME_ = VECTOR( AL$TSTAMP.TIME ) ;

    764  2 000017   000000 235000 3                  LDA     0
         2 000020   200003 236100                    LDQ     @AL$TSTAMP,,AUTO
         2 000021   000001 036003                    ADLQ    1,DU
         2 000022   200010 757100                    STAQ    FPT$TIME+4,,AUTO

PL6.E3A0      #006=ALA$TIME File=ALA$LOGON.:E05TSI                               TUE 07/29/97 08:31 Page:291
     1478      765    1         FPT$TIME.DAY_  = VECTOR( AL$TSTAMP.DAY  ) ;

    765  2 000023   577640 235007                    LDA     -65632,DL
         2 000024   200003 236100                    LDQ     @AL$TSTAMP,,AUTO
         2 000025   000001 036000 3                  ADLQ    1
         2 000026   200012 757100                    STAQ    FPT$TIME+6,,AUTO

     1479      766    1         FPT$TIME.DATE_ = VECTOR( AL$TSTAMP.DATE ) ;

    766  2 000027   000002 235000 3                  LDA     2
         2 000030   200003 236100                    LDQ     @AL$TSTAMP,,AUTO
         2 000031   000003 036000 3                  ADLQ    3
         2 000032   200006 757100                    STAQ    FPT$TIME+2,,AUTO

     1480      767    1         FPT$TIME.TSTAMP_ = VECTOR( AL$TSTAMP.UTS ) ;

    767  2 000033   777640 235007                    LDA     -96,DL
         2 000034   200003 236100                    LDQ     @AL$TSTAMP,,AUTO
         2 000035   200014 757100                    STAQ    FPT$TIME+8,,AUTO

     1481      768    1         FPT$TIME.V_    = VECTOR( FPT$TIME.V     ) ;

    768  2 000036   000004 235000 3                  LDA     4
         2 000037   200020 452500                    STP2    FPT$TIME+12,,AUTO
         2 000040   200020 236100                    LDQ     FPT$TIME+12,,AUTO
         2 000041   000016 036003                    ADLQ    14,DU
         2 000042   200004 757100                    STAQ    FPT$TIME,,AUTO

     1482      769    1         IF AL$TSTAMP.UTS ~= 0

    769  2 000043   000000 235100                    LDA     0,,PR0
         2 000044   000047 600000 2                  TZE     s:773

     1483      770    1         THEN
     1484      771    1             FPT$TIME.V.SOURCE# = %UTS#;

    771  2 000045   004000 236003                    LDQ     2048,DU
PL6.E3A0      #006=ALA$TIME File=ALA$LOGON.:E05TSI                               TUE 07/29/97 08:31 Page:292
         2 000046   200016 552140                    STBQ    FPT$TIME+10,'40'O,AUTO

     1485      772                                                              /*   GET THE TIME.   */
     1486      773    1         CALL M$TIME( FPT$TIME )  ALTRET( TIME_ERR ) ;

    773  2 000047   200004 630500                    EPPR0   FPT$TIME,,AUTO
         2 000050   420004 713400                    CLIMB   alt,+8196
         2 000051   402000 401760                    pmme    nvectors=5
         2 000052   000054 702000 2                  TSX2    TIME_ERR

     1487      774                                                              /**/
     1488      775    1         RETURN ;

    775  2 000053   000000 702200 xent               TSX2  ! X66_ARET

    769  2 000054                       TIME_ERR     null
     1489      776    1   TIME_ERR: ;
     1490      777    1         RETURN ;

    777  2 000054   000000 702200 xent               TSX2  ! X66_ARET
     1491      778                                                              /**/
     1492      779    1   END   ALA$TIME ;
     1493      780        %EOD ;

PL6.E3A0      #006=ALA$TIME File=ALA$LOGON.:E05TSI                               TUE 07/29/97 08:31 Page:293
--  Include file information  --

   CP_6_SUBS.:E05TOU  is referenced.
   AL_LOGON_R.:E05TOU  cannot be made into a system file and is referenced.
   AL_MACROS_C.:E05TOU  is referenced.
   CP_6.:E05TOU  cannot be made into a system file and is referenced.
   B$JIT_C.:E05TOU  was found in the system file and is never referenced.
   CP_6_C.:E05TOU  was found in the system file and is referenced.
      No diagnostics issued in procedure ALA$TIME.
PL6.E3A0      #006=ALA$TIME File=ALA$LOGON.:E05TSI                               TUE 07/29/97 08:31 Page:294

 **** Variables and constants ****

  ****  Section 001 RoData ALA$TIME

  ****  Scalars and arrays  ****
OctLoc.c.b A Datatyp(siz) R M Lvl/name                 OctLoc.c.b A Datatyp(siz) R M Lvl/name

     0-0-0/d STRC(432)   r     1 FPT_TIME

  ****  Auto variables  ****

  ****  Scalars and arrays  ****
OctLoc.c.b A Datatyp(siz) R M Lvl/name                 OctLoc.c.b A Datatyp(siz) R M Lvl/name

     3-0-0/w PTR         r     1 @AL$TSTAMP                *0-0-0/w STRC(252)   r     1 AL$TSTAMP
     4-0-0/d STRC(432)   r     1 FPT$TIME

  ****  SYMREF variables  ****

  ****  Scalars and arrays  ****
OctLoc.c.b A Datatyp(siz) R M Lvl/name                 OctLoc.c.b A Datatyp(siz) R M Lvl/name

     0-0-0/c CHAR        r     1 AL_BLANK


   Procedure ALA$TIME requires 45 words for executable code.
   Procedure ALA$TIME requires 18 words of local(AUTO) storage.
PL6.E3A0      #006=ALA$TIME File=ALA$LOGON.:E05TSI                               TUE 07/29/97 08:31 Page:295
          *** CROSS REFERENCE LISTING ***
**     DENOTES     IDENTIFIER DEFINITION
<<                 IDENTIFIER'S VALUE SET
>>                 IDENTIFIER'S VALUE USED
<>                 IDENTIFIER SET AND/OR USED
--                 IDENTIFIER REFERENCED
PL6.E3A0      #006=ALA$TIME File=ALA$LOGON.:E05TSI                               TUE 07/29/97 08:31 Page:296
          MINI XREF LISTING

AL$TSTAMP
       701**DCL         6--PROC
AL$TSTAMP.DATE
       705**DCL       761<<ASSIGN    766--ASSIGN
AL$TSTAMP.DAY
       704**DCL       760<<ASSIGN    765--ASSIGN
AL$TSTAMP.TIME
       703**DCL       759<<ASSIGN    764--ASSIGN
AL$TSTAMP.UTS
       702**DCL       767--ASSIGN    769>>IF
AL_BLANK
       134**DCL       759>>ASSIGN    760>>ASSIGN    761>>ASSIGN
FPT$TIME
       746**DCL       763<<ASSIGN    773<>CALL
FPT$TIME.DATE_
       746**DCL       766<<ASSIGN
FPT$TIME.DAY_
       749**DCL       765<<ASSIGN
FPT$TIME.TIME_
       748**DCL       764<<ASSIGN
FPT$TIME.TSTAMP_
       749**DCL       767<<ASSIGN
FPT$TIME.V
       750**DCL       768--ASSIGN
FPT$TIME.V.SOURCE#
       750**DCL       771<<ASSIGN
FPT$TIME.V_
       746**DCL       768<<ASSIGN
FPT_TIME
       726**DCL       763>>ASSIGN
FPT_TIME.V
       730**DCL       726--DCLINIT
PL6.E3A0      #006=ALA$TIME File=ALA$LOGON.:E05TSI                               TUE 07/29/97 08:31 Page:297
M$TIME
        89**DCL-ENT   773--CALL
TIME_ERR
       769**LABEL     773--CALLALT

PL6.E3A0      #007=ALA$OPEN_STAR_A File=ALA$LOGON.:E05TSI                        TUE 07/29/97 08:32 Page:298
     1494        1        /*T***********************************************************/
     1495        2        /*T*                                                         */
     1496        3        /*T* Copyright (c) Bull HN Information Systems Inc., 1997    */
     1497        4        /*T*                                                         */
     1498        5        /*T***********************************************************/
     1499        6        ALA$OPEN_STAR_A: PROC( ACCN ) ALTRET ;
     1500        7                                                              /**/
     1501        8        %EJECT ;
PL6.E3A0      #007=ALA$OPEN_STAR_A File=ALA$LOGON.:E05TSI                        TUE 07/29/97 08:32 Page:299
     1502        9        /*********************************************************************/
     1503       10        /*   PARAMETERS      PARAMETERS      PARAMETERS      PARAMETERS      */
     1504       11        /*********************************************************************/
     1505       12                                                              /**/
     1506       13    1   DCL ACCN CHAR(8) ;
     1507       14                                                              /**/
     1508       15        %EJECT ;
PL6.E3A0      #007=ALA$OPEN_STAR_A File=ALA$LOGON.:E05TSI                        TUE 07/29/97 08:32 Page:300
     1509       16        /*********************************************************************/
     1510       17        /*   INCLUDE FILES   INCLUDE FILES   INCLUDE FILES   INCLUDE FILES   */
     1511       18        /*********************************************************************/
     1512       19                                                              /**/
     1513       20              %INCLUDE CP_6 ;
     1514      101              %INCLUDE CP_6_SUBS ;
     1515      641              %INCLUDE AL_LOGON_R ;
     1516      673                                                              /**/
     1517      674        %EJECT ;
PL6.E3A0      #007=ALA$OPEN_STAR_A File=ALA$LOGON.:E05TSI                        TUE 07/29/97 08:32 Page:301
     1518      675        /*********************************************************************/
     1519      676        /*   CONSTANT DATA   CONSTANT DATA   CONSTANT DATA   CONSTANT DATA   */
     1520      677        /*********************************************************************/
     1521      678                                                              /**/
     1522      679                                                              /**/
     1523      680              %VLP_NAME(  FPTN = VLP_STAR_A ,
     1524      681                          NAME='*A',
     1525      682                          LEN  = 2 ,
     1526      683                          STCLASS = CONSTANT ) ;
     1527      710              %VLP_NAME(  FPTN = VLP_STAR_S ,
     1528      711                          NAME='*S',
     1529      712                          LEN = 2 ,
     1530      713                          STCLASS = CONSTANT ) ;
     1531      740        %EJECT ;
PL6.E3A0      #007=ALA$OPEN_STAR_A File=ALA$LOGON.:E05TSI                        TUE 07/29/97 08:32 Page:302
     1532      741        /*********************************************************************/
     1533      742        /*   FPTs            FPTs            FPTs            FPTs            */
     1534      743        /*********************************************************************/
     1535      744                                                              /**/
     1536      745              %FPT_OPEN ( FPTN = OPEN_STAR ,
     1537      746                          STCLASS = CONSTANT ,
     1538      747                          ASN = FILE ,
     1539      748                          ACS = DIRECT ,
     1540      749                          ORG = KEYED ,
     1541      750                          FUN = CREATE ,
     1542      751                          EXIST = OLDFILE ) ;
     1543      860              %FPT_OPEN ( FPTN = OPEN$STAR ,
     1544      861                          SCRUB = YES ,
     1545      862                          STCLASS = AUTO ) ;
     1546      971              %FPT_CLOSE (  FPTN = CLOSE_STAR ,
     1547      972                            STCLASS = CONSTANT ,
     1548      973                            DISP = SAVE ) ;
     1549     1015              %FPT_CLOSE (  FPTN = CLOSE$STAR ,
     1550     1016                            STCLASS = AUTO ) ;
     1551     1058        %EJECT ;
PL6.E3A0      #007=ALA$OPEN_STAR_A File=ALA$LOGON.:E05TSI                        TUE 07/29/97 08:32 Page:303
     1552     1059        /*********************************************************************/
     1553     1060        /*   PROCEDURE       PROCEDURE       PROCEDURE       PROCEDURE       */
     1554     1061        /*********************************************************************/
     1555     1062                                                              /**/
     1556     1063    1         OPEN$STAR = OPEN_STAR ;
     1557     1064    1         OPEN$STAR.NAME_ = VECTOR( VLP_STAR_A ) ;
     1558     1065    1         OPEN$STAR.ACCT_ = VECTOR( ACCN ) ;
     1559     1066    1         OPEN$STAR.V.DCB# = AL_DCB2# ;
     1560     1067    1         OPEN$STAR.V_ = VECTOR ( OPEN$STAR.V ) ;
     1561     1068                                                              /**/
     1562     1069    1         CALL M$OPEN( OPEN$STAR ) ALTRET( OPEN_A_ERR ) ;
     1563     1070                                                              /**/
     1564     1071    1         RETURN ;
     1565     1072                                                              /**/
     1566     1073    1   OPEN_A_ERR: ;
     1567     1074    1         ALTRETURN ;
     1568     1075                                                              /**/
     1569     1076    1   ALA$OPEN_STAR_S: ENTRY( ACCN ) ALTRET ;
     1570     1077                                                              /**/
     1571     1078    1         OPEN$STAR = OPEN_STAR ;
     1572     1079    1         OPEN$STAR.NAME_ = VECTOR( VLP_STAR_S ) ;
     1573     1080    1         OPEN$STAR.ACCT_ = VECTOR( ACCN ) ;
     1574     1081    1         OPEN$STAR.V.DCB# = AL_DCB2# ;
     1575     1082    1         OPEN$STAR.V_ = VECTOR ( OPEN$STAR.V ) ;
     1576     1083                                                              /**/
     1577     1084    1         CALL M$OPEN( OPEN$STAR ) ALTRET( OPEN_S_ERR ) ;
     1578     1085                                                              /**/
     1579     1086    1         RETURN ;
     1580     1087                                                              /**/
     1581     1088    1   OPEN_S_ERR: ;
     1582     1089    1         ALTRETURN ;
     1583     1090                                                              /**/
     1584     1091    1   ALA$CLOSE_STAR: ENTRY  ALTRET ;
     1585     1092                                                              /**/
     1586     1093    1         CLOSE$STAR = CLOSE_STAR ;
     1587     1094    1         CLOSE$STAR.V.DCB# = AL_DCB2# ;
     1588     1095    1         CLOSE$STAR.V_ = VECTOR( CLOSE$STAR.V ) ;
PL6.E3A0      #007=ALA$OPEN_STAR_A File=ALA$LOGON.:E05TSI                        TUE 07/29/97 08:32 Page:304
     1589     1096                                                              /**/
     1590     1097    1         CALL M$CLOSE( CLOSE$STAR ) ALTRET( CLOSE_ERR ) ;
     1591     1098                                                              /**/
     1592     1099    1         RETURN ;
     1593     1100                                                              /**/
     1594     1101    1   CLOSE_ERR: ;
     1595     1102    1         RETURN ;
     1596     1103                                                              /**/
     1597     1104    1   END   ALA$OPEN_STAR_A ;
     1598     1105        %EOD ;

PL6.E3A0      #007=ALA$OPEN_STAR_A File=ALA$LOGON.:E05TSI                        TUE 07/29/97 08:32 Page:305
--  Include file information  --

   AL_LOGON_R.:E05TOU  cannot be made into a system file and is referenced.
   CP_6_SUBS.:E05TOU  is referenced.
   CP_6.:E05TOU  cannot be made into a system file and is referenced.
   B$JIT_C.:E05TOU  was found in the system file and is never referenced.
   CP_6_C.:E05TOU  was found in the system file and is referenced.
      No diagnostics issued in procedure ALA$OPEN_STAR_A.

   Procedure ALA$OPEN_STAR_A requires 64 words for executable code.
   Procedure ALA$OPEN_STAR_A requires 94 words of local(AUTO) storage.

PL6.E3A0      #007=ALA$OPEN_STAR_A File=ALA$LOGON.:E05TSI                        TUE 07/29/97 08:32 Page:306

 Object Unit name= ALA$OPEN_STAR_A                            File name= ALA$LOGON.:E05TOU
 UTS= JUL 29 '97 08:32:12.60 TUE                              Compiler= PL-6/E31         Sev=      00
 SharedLib= :SHARED_SYSTEM                                    Alt SharedLib=


    ****  Control sections  ****

 Sect   Type Bound  Init  Size OctSiz  Section name(segment info)
    0   DCB   even  none     0      0  M$UC
    1  RoData even  UTS     90    132  ALA$OPEN_STAR_A
    2   Proc  even  none    64    100  ALA$OPEN_STAR_A
    3  RoData even  none     7      7  ALA$OPEN_STAR_A

    ****  Entry defs  ****

                              Check   Calling
                             calling  sequence
  Sect OctLoc Primary Altret sequence   type   Parms  Name
     2      0   yes    yes     yes      Std        1  ALA$OPEN_STAR_A
     2     27          yes     yes      Std        1  ALA$OPEN_STAR_S
     2     56          yes     yes      Std        0  ALA$CLOSE_STAR

  ****  Entry refs  ****

         Check        Calling
        calling       sequence
Altret sequence SRef   type   Args  Name
                       nStd      0 X66_AUTO_1
                       nStd      0 X66_ARET
                       nStd      0 X66_AALT

  ****  Data refs  ****

  Flags:  r = read only, s = secondary
Flgs Name                             Flgs Name                             Flgs Name
     M$UC                                  AL_DCB2#
PL6.E3A0      #007=ALA$OPEN_STAR_A File=ALA$LOGON.:E05TSI                        TUE 07/29/97 08:32 Page:307

  ****  Segment refs  ****

  Flags:  r = read only, s = secondary
Flgs Name                             Flgs Name                             Flgs Name
     ISSID                                 NULLSID
PL6.E3A0      #007=ALA$OPEN_STAR_A File=ALA$LOGON.:E05TSI                        TUE 07/29/97 08:32 Page:308


     1494        1        /*T***********************************************************/
     1495        2        /*T*                                                         */
     1496        3        /*T* Copyright (c) Bull HN Information Systems Inc., 1997    */
     1497        4        /*T*                                                         */
     1498        5        /*T***********************************************************/
     1499        6        ALA$OPEN_STAR_A: PROC( ACCN ) ALTRET ;

      6  2 000000   000000 700200 xent  ALA$OPEN_ST* TSX0  ! X66_AUTO_1
         2 000001   000136 000001                    ZERO    94,1

     1500        7                                                              /**/
     1501        8        %EJECT ;
PL6.E3A0      #007=ALA$OPEN_STAR_A File=ALA$LOGON.:E05TSI                        TUE 07/29/97 08:32 Page:309
     1502        9        /*********************************************************************/
     1503       10        /*   PARAMETERS      PARAMETERS      PARAMETERS      PARAMETERS      */
     1504       11        /*********************************************************************/
     1505       12                                                              /**/
     1506       13    1   DCL ACCN CHAR(8) ;
     1507       14                                                              /**/
     1508       15        %EJECT ;
PL6.E3A0      #007=ALA$OPEN_STAR_A File=ALA$LOGON.:E05TSI                        TUE 07/29/97 08:32 Page:310
     1509       16        /*********************************************************************/
     1510       17        /*   INCLUDE FILES   INCLUDE FILES   INCLUDE FILES   INCLUDE FILES   */
     1511       18        /*********************************************************************/
     1512       19                                                              /**/
     1513       20              %INCLUDE CP_6 ;
     1514      101              %INCLUDE CP_6_SUBS ;
     1515      641              %INCLUDE AL_LOGON_R ;
     1516      673                                                              /**/
     1517      674        %EJECT ;
PL6.E3A0      #007=ALA$OPEN_STAR_A File=ALA$LOGON.:E05TSI                        TUE 07/29/97 08:32 Page:311
     1518      675        /*********************************************************************/
     1519      676        /*   CONSTANT DATA   CONSTANT DATA   CONSTANT DATA   CONSTANT DATA   */
     1520      677        /*********************************************************************/
     1521      678                                                              /**/
     1522      679                                                              /**/
     1523      680              %VLP_NAME(  FPTN = VLP_STAR_A ,
     1524      681                          NAME='*A',
     1525      682                          LEN  = 2 ,
     1526      683                          STCLASS = CONSTANT ) ;
     1527      710              %VLP_NAME(  FPTN = VLP_STAR_S ,
     1528      711                          NAME='*S',
     1529      712                          LEN = 2 ,
     1530      713                          STCLASS = CONSTANT ) ;
     1531      740        %EJECT ;
PL6.E3A0      #007=ALA$OPEN_STAR_A File=ALA$LOGON.:E05TSI                        TUE 07/29/97 08:32 Page:312
     1532      741        /*********************************************************************/
     1533      742        /*   FPTs            FPTs            FPTs            FPTs            */
     1534      743        /*********************************************************************/
     1535      744                                                              /**/
     1536      745              %FPT_OPEN ( FPTN = OPEN_STAR ,
     1537      746                          STCLASS = CONSTANT ,
     1538      747                          ASN = FILE ,
     1539      748                          ACS = DIRECT ,
     1540      749                          ORG = KEYED ,
     1541      750                          FUN = CREATE ,
     1542      751                          EXIST = OLDFILE ) ;
     1543      860              %FPT_OPEN ( FPTN = OPEN$STAR ,
     1544      861                          SCRUB = YES ,
     1545      862                          STCLASS = AUTO ) ;
     1546      971              %FPT_CLOSE (  FPTN = CLOSE_STAR ,
     1547      972                            STCLASS = CONSTANT ,
     1548      973                            DISP = SAVE ) ;
     1549     1015              %FPT_CLOSE (  FPTN = CLOSE$STAR ,
     1550     1016                            STCLASS = AUTO ) ;
     1551     1058        %EJECT ;
PL6.E3A0      #007=ALA$OPEN_STAR_A File=ALA$LOGON.:E05TSI                        TUE 07/29/97 08:32 Page:313
     1552     1059        /*********************************************************************/
     1553     1060        /*   PROCEDURE       PROCEDURE       PROCEDURE       PROCEDURE       */
     1554     1061        /*********************************************************************/
     1555     1062                                                              /**/
     1556     1063    1         OPEN$STAR = OPEN_STAR ;

   1063  2 000002   000100 100400                    MLR     fill='000'O
         2 000003   000002 000350 1                  ADSC9   OPEN_STAR                cn=0,n=232
         2 000004   200004 000350                    ADSC9   OPEN$STAR,,AUTO          cn=0,n=232

     1557     1064    1         OPEN$STAR.NAME_ = VECTOR( VLP_STAR_A ) ;

   1064  2 000005   000000 237000 3                  LDAQ    0
         2 000006   200012 757100                    STAQ    OPEN$STAR+6,,AUTO

     1558     1065    1         OPEN$STAR.ACCT_ = VECTOR( ACCN ) ;

   1065  2 000007   000002 235000 3                  LDA     2
         2 000010   200003 236100                    LDQ     @ACCN,,AUTO
         2 000011   200030 757100                    STAQ    OPEN$STAR+20,,AUTO

     1559     1066    1         OPEN$STAR.V.DCB# = AL_DCB2# ;

   1066  2 000012   000000 720000 xsym               LXL0    AL_DCB2#
         2 000013   200050 740100                    STX0    OPEN$STAR+36,,AUTO

     1560     1067    1         OPEN$STAR.V_ = VECTOR ( OPEN$STAR.V ) ;

   1067  2 000014   000003 235000 3                  LDA     3
         2 000015   200134 452500                    STP2    CLOSE$STAR+30,,AUTO
         2 000016   200134 236100                    LDQ     CLOSE$STAR+30,,AUTO
         2 000017   000050 036003                    ADLQ    40,DU
         2 000020   200004 757100                    STAQ    OPEN$STAR,,AUTO

     1561     1068                                                              /**/
     1562     1069    1         CALL M$OPEN( OPEN$STAR ) ALTRET( OPEN_A_ERR ) ;

PL6.E3A0      #007=ALA$OPEN_STAR_A File=ALA$LOGON.:E05TSI                        TUE 07/29/97 08:32 Page:314
   1069  2 000021   200004 630500                    EPPR0   OPEN$STAR,,AUTO
         2 000022   450000 713400                    CLIMB   alt,open
         2 000023   410400 401760                    pmme    nvectors=18
         2 000024   000026 702000 2                  TSX2    OPEN_A_ERR

     1563     1070                                                              /**/
     1564     1071    1         RETURN ;

   1071  2 000025   000000 702200 xent               TSX2  ! X66_ARET

   1067  2 000026                       OPEN_A_ERR   null
     1565     1072                                                              /**/
     1566     1073    1   OPEN_A_ERR: ;
     1567     1074    1         ALTRETURN ;

   1074  2 000026   000000 702200 xent               TSX2  ! X66_AALT

     1568     1075                                                              /**/
     1569     1076    1   ALA$OPEN_STAR_S: ENTRY( ACCN ) ALTRET ;

   1076  2 000027   000000 700200 xent  ALA$OPEN_ST* TSX0  ! X66_AUTO_1
         2 000030   000136 000001                    ZERO    94,1

     1570     1077                                                              /**/
     1571     1078    1         OPEN$STAR = OPEN_STAR ;

   1078  2 000031   000100 100400                    MLR     fill='000'O
         2 000032   000002 000350 1                  ADSC9   OPEN_STAR                cn=0,n=232
         2 000033   200004 000350                    ADSC9   OPEN$STAR,,AUTO          cn=0,n=232

     1572     1079    1         OPEN$STAR.NAME_ = VECTOR( VLP_STAR_S ) ;

   1079  2 000034   000004 237000 3                  LDAQ    4
         2 000035   200012 757100                    STAQ    OPEN$STAR+6,,AUTO

     1573     1080    1         OPEN$STAR.ACCT_ = VECTOR( ACCN ) ;

PL6.E3A0      #007=ALA$OPEN_STAR_A File=ALA$LOGON.:E05TSI                        TUE 07/29/97 08:32 Page:315
   1080  2 000036   000002 235000 3                  LDA     2
         2 000037   200003 236100                    LDQ     @ACCN,,AUTO
         2 000040   200030 757100                    STAQ    OPEN$STAR+20,,AUTO

     1574     1081    1         OPEN$STAR.V.DCB# = AL_DCB2# ;

   1081  2 000041   000000 720000 xsym               LXL0    AL_DCB2#
         2 000042   200050 740100                    STX0    OPEN$STAR+36,,AUTO

     1575     1082    1         OPEN$STAR.V_ = VECTOR ( OPEN$STAR.V ) ;

   1082  2 000043   000003 235000 3                  LDA     3
         2 000044   200134 452500                    STP2    CLOSE$STAR+30,,AUTO
         2 000045   200134 236100                    LDQ     CLOSE$STAR+30,,AUTO
         2 000046   000050 036003                    ADLQ    40,DU
         2 000047   200004 757100                    STAQ    OPEN$STAR,,AUTO

     1576     1083                                                              /**/
     1577     1084    1         CALL M$OPEN( OPEN$STAR ) ALTRET( OPEN_S_ERR ) ;

   1084  2 000050   200004 630500                    EPPR0   OPEN$STAR,,AUTO
         2 000051   450000 713400                    CLIMB   alt,open
         2 000052   410400 401760                    pmme    nvectors=18
         2 000053   000055 702000 2                  TSX2    OPEN_S_ERR

     1578     1085                                                              /**/
     1579     1086    1         RETURN ;

   1086  2 000054   000000 702200 xent               TSX2  ! X66_ARET

   1082  2 000055                       OPEN_S_ERR   null
     1580     1087                                                              /**/
     1581     1088    1   OPEN_S_ERR: ;
     1582     1089    1         ALTRETURN ;

   1089  2 000055   000000 702200 xent               TSX2  ! X66_AALT

PL6.E3A0      #007=ALA$OPEN_STAR_A File=ALA$LOGON.:E05TSI                        TUE 07/29/97 08:32 Page:316
     1583     1090                                                              /**/
     1584     1091    1   ALA$CLOSE_STAR: ENTRY  ALTRET ;

   1091  2 000056   000000 700200 xent  ALA$CLOSE_S* TSX0  ! X66_AUTO_1
         2 000057   000136 000001                    ZERO    94,1

     1585     1092                                                              /**/
     1586     1093    1         CLOSE$STAR = CLOSE_STAR ;

   1093  2 000060   000100 100400                    MLR     fill='000'O
         2 000061   000074 000170 1                  ADSC9   CLOSE_STAR               cn=0,n=120
         2 000062   200076 000170                    ADSC9   CLOSE$STAR,,AUTO         cn=0,n=120

     1587     1094    1         CLOSE$STAR.V.DCB# = AL_DCB2# ;

   1094  2 000063   000000 720000 xsym               LXL0    AL_DCB2#
         2 000064   200130 740100                    STX0    CLOSE$STAR+26,,AUTO

     1588     1095    1         CLOSE$STAR.V_ = VECTOR( CLOSE$STAR.V ) ;

   1095  2 000065   000006 235000 3                  LDA     6
         2 000066   200134 452500                    STP2    CLOSE$STAR+30,,AUTO
         2 000067   200134 236100                    LDQ     CLOSE$STAR+30,,AUTO
         2 000070   000130 036003                    ADLQ    88,DU
         2 000071   200076 757100                    STAQ    CLOSE$STAR,,AUTO

     1589     1096                                                              /**/
     1590     1097    1         CALL M$CLOSE( CLOSE$STAR ) ALTRET( CLOSE_ERR ) ;

   1097  2 000072   200076 630500                    EPPR0   CLOSE$STAR,,AUTO
         2 000073   450001 713400                    CLIMB   alt,close
         2 000074   406000 401760                    pmme    nvectors=13
         2 000075   000077 702000 2                  TSX2    CLOSE_ERR

     1591     1098                                                              /**/
     1592     1099    1         RETURN ;

PL6.E3A0      #007=ALA$OPEN_STAR_A File=ALA$LOGON.:E05TSI                        TUE 07/29/97 08:32 Page:317
   1099  2 000076   000000 702200 xent               TSX2  ! X66_ARET

   1095  2 000077                       CLOSE_ERR    null
     1593     1100                                                              /**/
     1594     1101    1   CLOSE_ERR: ;
     1595     1102    1         RETURN ;

   1102  2 000077   000000 702200 xent               TSX2  ! X66_ARET
     1596     1103                                                              /**/
     1597     1104    1   END   ALA$OPEN_STAR_A ;
     1598     1105        %EOD ;

PL6.E3A0      #007=ALA$OPEN_STAR_A File=ALA$LOGON.:E05TSI                        TUE 07/29/97 08:32 Page:318
--  Include file information  --

   AL_LOGON_R.:E05TOU  cannot be made into a system file and is referenced.
   CP_6_SUBS.:E05TOU  is referenced.
   CP_6.:E05TOU  cannot be made into a system file and is referenced.
   B$JIT_C.:E05TOU  was found in the system file and is never referenced.
   CP_6_C.:E05TOU  was found in the system file and is referenced.
      No diagnostics issued in procedure ALA$OPEN_STAR_A.
PL6.E3A0      #007=ALA$OPEN_STAR_A File=ALA$LOGON.:E05TSI                        TUE 07/29/97 08:32 Page:319

 **** Variables and constants ****

  ****  Section 001 RoData ALA$OPEN_STAR_A

  ****  Scalars and arrays  ****
OctLoc.c.b A Datatyp(siz) R M Lvl/name                 OctLoc.c.b A Datatyp(siz) R M Lvl/name

    74-0-0/d STRC(1080)  r     1 CLOSE_STAR                 2-0-0/d STRC(2088)  r     1 OPEN_STAR
     0-0-0/c STRC(27)    r     1 VLP_STAR_A                 1-0-0/c STRC(27)    r     1 VLP_STAR_S

  ****  Auto variables  ****

  ****  Scalars and arrays  ****
OctLoc.c.b A Datatyp(siz) R M Lvl/name                 OctLoc.c.b A Datatyp(siz) R M Lvl/name

     3-0-0/w PTR         r     1 @ACCN                     *0-0-0/c CHAR(8)     r     1 ACCN
    76-0-0/d STRC(1080)  r     1 CLOSE$STAR                 4-0-0/d STRC(2088)  r     1 OPEN$STAR

  ****  SYMREF variables  ****

  ****  Scalars and arrays  ****
OctLoc.c.b A Datatyp(siz) R M Lvl/name                 OctLoc.c.b A Datatyp(siz) R M Lvl/name

     0-0-0/w UBIN        r     1 AL_DCB2#


   Procedure ALA$OPEN_STAR_A requires 64 words for executable code.
   Procedure ALA$OPEN_STAR_A requires 94 words of local(AUTO) storage.
PL6.E3A0      #007=ALA$OPEN_STAR_A File=ALA$LOGON.:E05TSI                        TUE 07/29/97 08:32 Page:320
          *** CROSS REFERENCE LISTING ***
**     DENOTES     IDENTIFIER DEFINITION
<<                 IDENTIFIER'S VALUE SET
>>                 IDENTIFIER'S VALUE USED
<>                 IDENTIFIER SET AND/OR USED
--                 IDENTIFIER REFERENCED
PL6.E3A0      #007=ALA$OPEN_STAR_A File=ALA$LOGON.:E05TSI                        TUE 07/29/97 08:32 Page:321
          MINI XREF LISTING

ACCN
        13**DCL         6--PROC     1065--ASSIGN   1076--ENTRY    1080--ASSIGN
AL_DCB2#
       670**DCL      1066>>ASSIGN   1081>>ASSIGN   1094>>ASSIGN
CLOSE$STAR
      1039**DCL      1093<<ASSIGN   1097<>CALL
CLOSE$STAR.SN_
      1039**DCL      1039--REDEF
CLOSE$STAR.UTL_
      1040**DCL      1040--REDEF
CLOSE$STAR.V
      1044**DCL      1095--ASSIGN
CLOSE$STAR.V.DCB#
      1045**DCL      1094<<ASSIGN
CLOSE$STAR.V.EXPIRE#
      1054**DCL      1054--REDEF
CLOSE$STAR.V.TYPE#
      1052**DCL      1052--REDEF
CLOSE$STAR.V.XTNSIZE#
      1049**DCL      1049--REDEF    1051--REDEF
CLOSE$STAR.V_
      1039**DCL      1095<<ASSIGN
CLOSE_ERR
      1095**LABEL    1097--CALLALT
CLOSE_STAR
       996**DCL      1093>>ASSIGN
CLOSE_STAR.SN_
       996**DCL       996--REDEF
CLOSE_STAR.UTL_
       997**DCL       997--REDEF
CLOSE_STAR.V
      1001**DCL       996--DCLINIT
PL6.E3A0      #007=ALA$OPEN_STAR_A File=ALA$LOGON.:E05TSI                        TUE 07/29/97 08:32 Page:322
CLOSE_STAR.V.EXPIRE#
      1011**DCL      1011--REDEF
CLOSE_STAR.V.TYPE#
      1009**DCL      1009--REDEF
CLOSE_STAR.V.XTNSIZE#
      1006**DCL      1006--REDEF    1008--REDEF
M$CLOSE
        29**DCL-ENT  1097--CALL
M$OPEN
        29**DCL-ENT  1069--CALL     1084--CALL
OPEN$STAR
       927**DCL      1063<<ASSIGN   1069<>CALL     1078<<ASSIGN   1084<>CALL
OPEN$STAR.ACCT_
       931**DCL      1065<<ASSIGN   1080<<ASSIGN
OPEN$STAR.ACSVEH_
       929**DCL       930--REDEF
OPEN$STAR.ALTKEYS_
       935**DCL       936--REDEF     936--REDEF
OPEN$STAR.HDR_
       934**DCL       935--REDEF
OPEN$STAR.NAME_
       928**DCL      1064<<ASSIGN   1079<<ASSIGN
OPEN$STAR.TAB_
       933**DCL       934--REDEF
OPEN$STAR.UHL_
       927**DCL       928--REDEF     928--REDEF
OPEN$STAR.V
       936**DCL      1067--ASSIGN   1082--ASSIGN
OPEN$STAR.V.DCB#
       936**DCL      1066<<ASSIGN   1081<<ASSIGN
OPEN$STAR.V.FSN#
       967**DCL       967--REDEF     967--REDEF
OPEN$STAR.V_
       927**DCL      1067<<ASSIGN   1082<<ASSIGN
OPEN$STAR.WSN_
       933**DCL       933--REDEF
PL6.E3A0      #007=ALA$OPEN_STAR_A File=ALA$LOGON.:E05TSI                        TUE 07/29/97 08:32 Page:323
OPEN_A_ERR
      1067**LABEL    1069--CALLALT
OPEN_STAR
       816**DCL      1063>>ASSIGN   1078>>ASSIGN
OPEN_STAR.ACSVEH_
       818**DCL       819--REDEF
OPEN_STAR.ALTKEYS_
       824**DCL       825--REDEF     825--REDEF
OPEN_STAR.HDR_
       823**DCL       824--REDEF
OPEN_STAR.TAB_
       822**DCL       823--REDEF
OPEN_STAR.UHL_
       816**DCL       817--REDEF     817--REDEF
OPEN_STAR.V
       825**DCL       816--DCLINIT
OPEN_STAR.V.FSN#
       856**DCL       856--REDEF     856--REDEF
OPEN_STAR.WSN_
       822**DCL       822--REDEF
OPEN_S_ERR
      1082**LABEL    1084--CALLALT
VLP_STAR_A
       708**DCL      1064--ASSIGN
VLP_STAR_S
       738**DCL      1079--ASSIGN

PL6.E3A0      #008=ALA$YESNOD File=ALA$LOGON.:E05TSI                             TUE 07/29/97 08:32 Page:324
     1599        1        /*T***********************************************************/
     1600        2        /*T*                                                         */
     1601        3        /*T* Copyright (c) Bull HN Information Systems Inc., 1997    */
     1602        4        /*T*                                                         */
     1603        5        /*T***********************************************************/
     1604        6        ALA$YESNOD: PROC( BUF, SIZE ) ALTRET ;
     1605        7        %EJECT ;
PL6.E3A0      #008=ALA$YESNOD File=ALA$LOGON.:E05TSI                             TUE 07/29/97 08:32 Page:325
     1606        8        /*********************************************************************/
     1607        9        /*   PARAMETERS      PARAMETERS      PARAMETERS      PARAMETERS      */
     1608       10        /*********************************************************************/
     1609       11                                                              /**/
     1610       12    1   DCL BUF CHAR(10) ;
     1611       13    1   DCL SIZE UBIN ;
     1612       14        %EJECT ;
PL6.E3A0      #008=ALA$YESNOD File=ALA$LOGON.:E05TSI                             TUE 07/29/97 08:32 Page:326
     1613       15        /*********************************************************************/
     1614       16        /*   CONSTANT DATA   CONSTANT DATA   CONSTANT DATA   CONSTANT DATA   */
     1615       17        /*********************************************************************/
     1616       18                                                              /**/
     1617       19    1   DCL RES_ARRY(0:5) CHAR(6) CONSTANT INIT(  'YES' ,
     1618       20    1                                                   'yes' ,
     1619       21    1                                                   'NO' ,
     1620       22    1                                                   'no' ,
     1621       23    1                                                   'DELETE' ,
     1622       24    1                                                   'delete' ) ;
     1623       25    1   DCL ANS_ARRY(0:5) CHAR(1) CONSTANT INIT(  'Y' ,
     1624       26    1                                                   'Y' ,
     1625       27    1                                                   'N' ,
     1626       28    1                                                   'N' ,
     1627       29    1                                                   'D' ,
     1628       30    1                                                   'D' ) ;
     1629       31        %EJECT ;
PL6.E3A0      #008=ALA$YESNOD File=ALA$LOGON.:E05TSI                             TUE 07/29/97 08:32 Page:327
     1630       32        /*********************************************************************/
     1631       33        /*   AUTO DATA       AUTO DATA       AUTO DATA       AUTO DATA       */
     1632       34        /*********************************************************************/
     1633       35    1   DCL I UBIN ;
     1634       36    1   DCL T_BUF CHAR(10) ;
     1635       37        %EJECT ;
PL6.E3A0      #008=ALA$YESNOD File=ALA$LOGON.:E05TSI                             TUE 07/29/97 08:32 Page:328
     1636       38        /*********************************************************************/
     1637       39        /*   PROCEDURE       PROCEDURE       PROCEDURE       PROCEDURE       */
     1638       40        /*********************************************************************/
     1639       41                                                              /**/
     1640       42    1         IF SIZE > 6
     1641       43    1         THEN
     1642       44    2         DO ;
     1643       45    2             ALTRETURN ;
     1644       46    2             END ; /* THEN DO */
     1645       47    2         DO I = 0 TO 5 ;
     1646       48    2             T_BUF = SUBSTR( RES_ARRY( I ), 0,  SIZE ) ;
     1647       49    2             IF BUF = T_BUF
     1648       50    2             THEN
     1649       51    3             DO ;
     1650       52    3                 BUF = ANS_ARRY( I ) ;
     1651       53    3                 RETURN ;
     1652       54    3                 END ; /* THEN DO */
     1653       55    2             END ; /* DO I */
     1654       56                                                              /* NO MATCH */
     1655       57    1         ALTRETURN ;
     1656       58                                                              /**/
     1657       59    1   END   ALA$YESNOD ;
     1658       60        %EOD;

PL6.E3A0      #008=ALA$YESNOD File=ALA$LOGON.:E05TSI                             TUE 07/29/97 08:32 Page:329
--  Include file information  --

   B$JIT_C.:E05TOU  was found in the system file and is never referenced.
   CP_6_C.:E05TOU  was found in the system file and is never referenced.
      No diagnostics issued in procedure ALA$YESNOD.

   Procedure ALA$YESNOD requires 31 words for executable code.
   Procedure ALA$YESNOD requires 10 words of local(AUTO) storage.

PL6.E3A0      #008=ALA$YESNOD File=ALA$LOGON.:E05TSI                             TUE 07/29/97 08:32 Page:330

 Object Unit name= ALA$YESNOD                                 File name= ALA$LOGON.:E05TOU
 UTS= JUL 29 '97 08:32:44.20 TUE                              Compiler= PL-6/E31         Sev=      00
 SharedLib= :SHARED_SYSTEM                                    Alt SharedLib=


    ****  Control sections  ****

 Sect   Type Bound  Init  Size OctSiz  Section name(segment info)
    0  RoData even  UTS     11     13  ALA$YESNOD
    1   Proc  even  none    31     37  ALA$YESNOD

    ****  Entry defs  ****

                              Check   Calling
                             calling  sequence
  Sect OctLoc Primary Altret sequence   type   Parms  Name
     1      0   yes    yes     yes      Std        2  ALA$YESNOD

  ****  Entry refs  ****

         Check        Calling
        calling       sequence
Altret sequence SRef   type   Args  Name
                       nStd      0 X66_AUTO_2
                       nStd      0 X66_AALT
                       nStd      0 X66_ARET
PL6.E3A0      #008=ALA$YESNOD File=ALA$LOGON.:E05TSI                             TUE 07/29/97 08:32 Page:331


     1599        1        /*T***********************************************************/
     1600        2        /*T*                                                         */
     1601        3        /*T* Copyright (c) Bull HN Information Systems Inc., 1997    */
     1602        4        /*T*                                                         */
     1603        5        /*T***********************************************************/
     1604        6        ALA$YESNOD: PROC( BUF, SIZE ) ALTRET ;

      6  1 000000   000000 700200 xent  ALA$YESNOD   TSX0  ! X66_AUTO_2
         1 000001   000012 000002                    ZERO    10,2

     1605        7        %EJECT ;
PL6.E3A0      #008=ALA$YESNOD File=ALA$LOGON.:E05TSI                             TUE 07/29/97 08:32 Page:332
     1606        8        /*********************************************************************/
     1607        9        /*   PARAMETERS      PARAMETERS      PARAMETERS      PARAMETERS      */
     1608       10        /*********************************************************************/
     1609       11                                                              /**/
     1610       12    1   DCL BUF CHAR(10) ;
     1611       13    1   DCL SIZE UBIN ;
     1612       14        %EJECT ;
PL6.E3A0      #008=ALA$YESNOD File=ALA$LOGON.:E05TSI                             TUE 07/29/97 08:32 Page:333
     1613       15        /*********************************************************************/
     1614       16        /*   CONSTANT DATA   CONSTANT DATA   CONSTANT DATA   CONSTANT DATA   */
     1615       17        /*********************************************************************/
     1616       18                                                              /**/
     1617       19    1   DCL RES_ARRY(0:5) CHAR(6) CONSTANT INIT(  'YES' ,
     1618       20    1                                                   'yes' ,
     1619       21    1                                                   'NO' ,
     1620       22    1                                                   'no' ,
     1621       23    1                                                   'DELETE' ,
     1622       24    1                                                   'delete' ) ;
     1623       25    1   DCL ANS_ARRY(0:5) CHAR(1) CONSTANT INIT(  'Y' ,
     1624       26    1                                                   'Y' ,
     1625       27    1                                                   'N' ,
     1626       28    1                                                   'N' ,
     1627       29    1                                                   'D' ,
     1628       30    1                                                   'D' ) ;
     1629       31        %EJECT ;
PL6.E3A0      #008=ALA$YESNOD File=ALA$LOGON.:E05TSI                             TUE 07/29/97 08:32 Page:334
     1630       32        /*********************************************************************/
     1631       33        /*   AUTO DATA       AUTO DATA       AUTO DATA       AUTO DATA       */
     1632       34        /*********************************************************************/
     1633       35    1   DCL I UBIN ;
     1634       36    1   DCL T_BUF CHAR(10) ;
     1635       37        %EJECT ;
PL6.E3A0      #008=ALA$YESNOD File=ALA$LOGON.:E05TSI                             TUE 07/29/97 08:32 Page:335
     1636       38        /*********************************************************************/
     1637       39        /*   PROCEDURE       PROCEDURE       PROCEDURE       PROCEDURE       */
     1638       40        /*********************************************************************/
     1639       41                                                              /**/
     1640       42    1         IF SIZE > 6

     42  1 000002   200004 470500                    LDP0    @SIZE,,AUTO
         1 000003   000000 235100                    LDA     0,,PR0
         1 000004   000007 115007                    CMPA    7,DL
         1 000005   000007 602000 1                  TNC     s:47

     1641       43    1         THEN
     1642       44    2         DO ;

     1643       45    2             ALTRETURN ;

     45  1 000006   000000 702200 xent               TSX2  ! X66_AALT

     1644       46    2             END ; /* THEN DO */
     1645       47    2         DO I = 0 TO 5 ;

     47  1 000007   200005 450100                    STZ     I,,AUTO

     1646       48    2             T_BUF = SUBSTR( RES_ARRY( I ), 0,  SIZE ) ;

     48  1 000010   200004 470500                    LDP0    @SIZE,,AUTO
         1 000011   000000 720100                    LXL0    0,,PR0
         1 000012   200005 236100                    LDQ     I,,AUTO
         1 000013   000006 402007                    MPY     6,DL
         1 000014   040100 100446                    MLR     fill='040'O
         1 000015   000000 000010 0                  ADSC9   RES_ARRY,Q               cn=0,n=*X0
         1 000016   200006 000012                    ADSC9   T_BUF,,AUTO              cn=0,n=10

     1647       49    2             IF BUF = T_BUF

     49  1 000017   200003 471500                    LDP1    @BUF,,AUTO
         1 000020   040100 106500                    CMPC    fill='040'O
PL6.E3A0      #008=ALA$YESNOD File=ALA$LOGON.:E05TSI                             TUE 07/29/97 08:32 Page:336
         1 000021   100000 000012                    ADSC9   0,,PR1                   cn=0,n=10
         1 000022   200006 000012                    ADSC9   T_BUF,,AUTO              cn=0,n=10
         1 000023   000031 601000 1                  TNZ     s:55

     1648       50    2             THEN
     1649       51    3             DO ;

     1650       52    3                 BUF = ANS_ARRY( I ) ;

     52  1 000024   200005 235100                    LDA     I,,AUTO
         1 000025   040100 100405                    MLR     fill='040'O
         1 000026   000011 000001 0                  ADSC9   ANS_ARRY,A               cn=0,n=1
         1 000027   100000 000012                    ADSC9   0,,PR1                   cn=0,n=10

     1651       53    3                 RETURN ;

     53  1 000030   000000 702200 xent               TSX2  ! X66_ARET

     1652       54    3                 END ; /* THEN DO */
     1653       55    2             END ; /* DO I */

     55  1 000031   200005 235100                    LDA     I,,AUTO
         1 000032   000001 035007                    ADLA    1,DL
         1 000033   200005 755100                    STA     I,,AUTO
         1 000034   000006 115007                    CMPA    6,DL
         1 000035   000010 602000 1                  TNC     s:48

     1654       56                                                              /* NO MATCH */
     1655       57    1         ALTRETURN ;

     57  1 000036   000000 702200 xent               TSX2  ! X66_AALT
     1656       58                                                              /**/
     1657       59    1   END   ALA$YESNOD ;
     1658       60        %EOD;

PL6.E3A0      #008=ALA$YESNOD File=ALA$LOGON.:E05TSI                             TUE 07/29/97 08:32 Page:337
--  Include file information  --

   B$JIT_C.:E05TOU  was found in the system file and is never referenced.
   CP_6_C.:E05TOU  was found in the system file and is never referenced.
      No diagnostics issued in procedure ALA$YESNOD.
PL6.E3A0      #008=ALA$YESNOD File=ALA$LOGON.:E05TSI                             TUE 07/29/97 08:32 Page:338

 **** Variables and constants ****

  ****  Section 000 RoData ALA$YESNOD

  ****  Scalars and arrays  ****
OctLoc.c.b A Datatyp(siz) R M Lvl/name                 OctLoc.c.b A Datatyp(siz) R M Lvl/name

    11-0-0/c CHAR        r     1 ANS_ARRY(0:5)
     0-0-0/c CHAR(6)     r     1 RES_ARRY(0:5)

  ****  Auto variables  ****

  ****  Scalars and arrays  ****
OctLoc.c.b A Datatyp(siz) R M Lvl/name                 OctLoc.c.b A Datatyp(siz) R M Lvl/name

     3-0-0/w PTR         r     1 @BUF                       4-0-0/w PTR         r     1 @SIZE
    *0-0-0/c CHAR(10)    r     1 BUF                        5-0-0/w UBIN        r     1 I
    *0-0-0/w UBIN        r     1 SIZE                       6-0-0/c CHAR(10)    r     1 T_BUF


   Procedure ALA$YESNOD requires 31 words for executable code.
   Procedure ALA$YESNOD requires 10 words of local(AUTO) storage.
PL6.E3A0      #008=ALA$YESNOD File=ALA$LOGON.:E05TSI                             TUE 07/29/97 08:32 Page:339
          *** CROSS REFERENCE LISTING ***
**     DENOTES     IDENTIFIER DEFINITION
<<                 IDENTIFIER'S VALUE SET
>>                 IDENTIFIER'S VALUE USED
<>                 IDENTIFIER SET AND/OR USED
--                 IDENTIFIER REFERENCED
PL6.E3A0      #008=ALA$YESNOD File=ALA$LOGON.:E05TSI                             TUE 07/29/97 08:32 Page:340
          MINI XREF LISTING

ANS_ARRY
        25**DCL        52>>ASSIGN
BUF
        12**DCL         6--PROC       49>>IF         52<<ASSIGN
I
        35**DCL        47<<DOINDEX    48>>ASSIGN     52>>ASSIGN
RES_ARRY
        19**DCL        48>>ASSIGN
SIZE
        13**DCL         6--PROC       42>>IF         48>>ASSIGN
T_BUF
        36**DCL        48<<ASSIGN     49>>IF

PL6.E3A0      #009=ALA$TRAP File=ALA$LOGON.:E05TSI                               TUE 07/29/97 08:32 Page:341
     1659        1        /*M* ALA$TRAP -- Trap handler for LOGON */
     1660        2        /*T***********************************************************/
     1661        3        /*T*                                                         */
     1662        4        /*T* Copyright (c) Bull HN Information Systems Inc., 1997    */
     1663        5        /*T*                                                         */
     1664        6        /*T***********************************************************/
     1665        7        ALA$TRAP: PROC ASYNC;
     1666        8         %INCLUDE CP_6;
     1667       89         %INCLUDE AL_PERR_C;
     1668      111    1   DCL B$TCB$ PTR SYMREF;
     1669      112         %B$TCB;
     1670      115         %B$EXCFR;
     1671      133         %FPT_TRAP (FPTN=NO_TRAP,ARITHMETIC=NIL,ERRORS=NIL,PROGRAMMED=NIL,PMME=NIL,
     1672      134                    DIVIDE_CHECK=ABORT,OVERFLOW=ABORT,COMMAND=ABORT,
     1673      135                    IPR=ABORT,LOCKUP=ABORT,MEMORY=ABORT,MISSING_PAGE=ABORT,
     1674      136                    MISSING_SEG=ABORT,SECURITY_1=ABORT,SECURITY_2=ABORT,
     1675      137                    DERAIL=ABORT,FAULT_TAG=ABORT,MME=ABORT,STCLASS=CONSTANT);
     1676      160        %VLP_ERRCODE(FPTN=ALA_E$LOGON_TRAP,FCG='AL',MID='A',MON='0'B,ERR#=E$LOGON_TRAP,SEV=0
               160            ,STCLASS=CONSTANT);
     1677      205    1   DCL ALA$ERROR ENTRY(4);
     1678      206    1   DCL ERR BIT(36) ALIGNED;
     1679      207    1   DCL 1 AT ALIGNED,
     1680      208    1         2 COUNT UBIN BYTE UNAL,
     1681      209    1         2 IC CHAR(6);
     1682      210
     1683      211    1         CALL M$TRAP( NO_TRAP ) ALTRET( IGNORE1 );
     1684      212    1   IGNORE1:;
     1685      213    1         ERR = B$TCB$->B$TCB.STK$->B$EXCFR.ERR;
     1686      214    1         CALL ALA$ERROR( ERR );
     1687      215        /*E*  ERROR:  ALA-E$LOGON_TRAP-A
     1688      216              MESSAGE: LOGON trapped at IC=%U1
     1689      217        */
     1690      218    1         AT.COUNT = LENGTHC(AT.IC);
     1691      219    1         CALL BINCHAR(AT.IC,B$TCB$->B$TCB.STK$->B$EXCFR.IC);
     1692      220    1         CALL ALA$ERROR( ALA_E$LOGON_TRAP, AT );
     1693      221    1         CALL M$XXX;
     1694      222    1   END ALA$TRAP;
PL6.E3A0      #009=ALA$TRAP File=ALA$LOGON.:E05TSI                               TUE 07/29/97 08:32 Page:342

PL6.E3A0      #009=ALA$TRAP File=ALA$LOGON.:E05TSI                               TUE 07/29/97 08:32 Page:343
--  Include file information  --

   AL_PERR_C.:E05TOU  is referenced.
   CP_6.:E05TOU  cannot be made into a system file and is referenced.
   B$JIT_C.:E05TOU  was found in the system file and is never referenced.
   CP_6_C.:E05TOU  was found in the system file and is referenced.
      No diagnostics issued in procedure ALA$TRAP.

   Procedure ALA$TRAP requires 38 words for executable code.
   Procedure ALA$TRAP requires 8 words of local(AUTO) storage.

    No errors detected in file ALA$LOGON.:E05TSI    .

PL6.E3A0      #009=ALA$TRAP File=ALA$LOGON.:E05TSI                               TUE 07/29/97 08:32 Page:344

 Object Unit name= ALA$TRAP                                   File name= ALA$LOGON.:E05TOU
 UTS= JUL 29 '97 08:32:48.84 TUE                              Compiler= PL-6/E31         Sev=      00
 SharedLib= :SHARED_SYSTEM                                    Alt SharedLib=


    ****  Control sections  ****

 Sect   Type Bound  Init  Size OctSiz  Section name(segment info)
    0   DCB   even  none     0      0  M$UC
    1  RoData even  UTS     11     13  ALA$TRAP
    2   Proc  even  none    38     46  ALA$TRAP
    3  RoData even  none     1      1  ALA$TRAP

    ****  Entry defs  ****

                              Check   Calling
                             calling  sequence
  Sect OctLoc Primary Altret sequence   type   Parms  Name
     2      0   yes            yes     Async       0  ALA$TRAP

  ****  Entry refs  ****

         Check        Calling
        calling       sequence
Altret sequence SRef   type   Args  Name
         yes           Std       4 ALA$ERROR
                       nStd      0 X66_AAUTO
                       Std       0 B_CONSPOOL_D
                       nStd      0 X66_AARET

  ****  Data refs  ****

  Flags:  r = read only, s = secondary
Flgs Name                             Flgs Name                             Flgs Name
     M$UC                                  B$TCB$                                B_VECTNIL
PL6.E3A0      #009=ALA$TRAP File=ALA$LOGON.:E05TSI                               TUE 07/29/97 08:32 Page:345

  ****  Segment refs  ****

  Flags:  r = read only, s = secondary
Flgs Name                             Flgs Name                             Flgs Name
     ISSID                                 NULLSID
PL6.E3A0      #009=ALA$TRAP File=ALA$LOGON.:E05TSI                               TUE 07/29/97 08:32 Page:346


     1659        1        /*M* ALA$TRAP -- Trap handler for LOGON */
     1660        2        /*T***********************************************************/
     1661        3        /*T*                                                         */
     1662        4        /*T* Copyright (c) Bull HN Information Systems Inc., 1997    */
     1663        5        /*T*                                                         */
     1664        6        /*T***********************************************************/
     1665        7        ALA$TRAP: PROC ASYNC;

      7  2 000000   000000 700200 xent  ALA$TRAP     TSX0  ! X66_AAUTO
         2 000001   000010 000000                    ZERO    8,0

     1666        8         %INCLUDE CP_6;
     1667       89         %INCLUDE AL_PERR_C;
     1668      111    1   DCL B$TCB$ PTR SYMREF;
     1669      112         %B$TCB;
     1670      115         %B$EXCFR;
     1671      133         %FPT_TRAP (FPTN=NO_TRAP,ARITHMETIC=NIL,ERRORS=NIL,PROGRAMMED=NIL,PMME=NIL,
     1672      134                    DIVIDE_CHECK=ABORT,OVERFLOW=ABORT,COMMAND=ABORT,
     1673      135                    IPR=ABORT,LOCKUP=ABORT,MEMORY=ABORT,MISSING_PAGE=ABORT,
     1674      136                    MISSING_SEG=ABORT,SECURITY_1=ABORT,SECURITY_2=ABORT,
     1675      137                    DERAIL=ABORT,FAULT_TAG=ABORT,MME=ABORT,STCLASS=CONSTANT);
     1676      160       %VLP_ERRCODE(FPTN=ALA_E$LOGON_TRAP,FCG='AL',MID='A',MON='0'B,ERR#=E$LOGON_TRAP,SEV=0
               160            ,STCLASS=CONSTANT);
     1677      205    1   DCL ALA$ERROR ENTRY(4);
     1678      206    1   DCL ERR BIT(36) ALIGNED;
     1679      207    1   DCL 1 AT ALIGNED,
     1680      208    1         2 COUNT UBIN BYTE UNAL,
     1681      209    1         2 IC CHAR(6);
     1682      210
     1683      211    1         CALL M$TRAP( NO_TRAP ) ALTRET( IGNORE1 );

    211  2 000002   000000 630400 1                  EPPR0   NO_TRAP
         2 000003   410004 713400                    CLIMB   alt,+4100
         2 000004   400400 401760                    pmme    nvectors=2
         2 000005   000006 702000 2                  TSX2    IGNORE1

PL6.E3A0      #009=ALA$TRAP File=ALA$LOGON.:E05TSI                               TUE 07/29/97 08:32 Page:347
    211  2 000006                       IGNORE1      null
     1684      212    1   IGNORE1:;
     1685      213    1         ERR = B$TCB$->B$TCB.STK$->B$EXCFR.ERR;

    213  2 000006   000000 470400 xsym               LDP0    B$TCB$
         2 000007   000001 471500                    LDP1    1,,PR0
         2 000010   100102 236100                    LDQ     66,,PR1
         2 000011   200003 756100                    STQ     ERR,,AUTO

     1686      214    1         CALL ALA$ERROR( ERR );

    214  2 000012   200003 631500                    EPPR1   ERR,,AUTO
         2 000013   200006 451500                    STP1    AT+2,,AUTO
         2 000014   200006 630500                    EPPR0   AT+2,,AUTO
         2 000015   000017 631400 xsym               EPPR1   B_VECTNIL+15
         2 000016   000000 701000 xent               TSX1    ALA$ERROR
         2 000017   000000 011000                    NOP     0

     1687      215        /*E*  ERROR:  ALA-E$LOGON_TRAP-A
     1688      216              MESSAGE: LOGON trapped at IC=%U1
     1689      217        */
     1690      218    1         AT.COUNT = LENGTHC(AT.IC);

    218  2 000020   006000 236003                    LDQ     3072,DU
         2 000021   200004 552140                    STBQ    AT,'40'O,AUTO

     1691      219    1         CALL BINCHAR(AT.IC,B$TCB$->B$TCB.STK$->B$EXCFR.IC);

    219  2 000022   000000 470400 xsym               LDP0    B$TCB$
         2 000023   000001 471500                    LDP1    1,,PR0
         2 000024   100004 236100                    LDQ     4,,PR1
         2 000025   000022 772000                    QRL     18
         2 000026   000000 235003                    LDA     0,DU
         2 000027   200006 757100                    STAQ    AT+2,,AUTO
         2 000030   000100 301500                    BTD
         2 000031   200006 000010                    NDSC9   AT+2,,AUTO               cn=0,s=lsgnf,sf=0,n=8
         2 000032   200004 230006                    NDSC9   AT,,AUTO                 cn=1,s=nosgn,sf=0,n=6
PL6.E3A0      #009=ALA$TRAP File=ALA$LOGON.:E05TSI                               TUE 07/29/97 08:32 Page:348

     1692      220    1         CALL ALA$ERROR( ALA_E$LOGON_TRAP, AT );

    220  2 000033   200004 631500                    EPPR1   AT,,AUTO
         2 000034   200007 451500                    STP1    AT+3,,AUTO
         2 000035   000000 236000 3                  LDQ     0
         2 000036   200006 756100                    STQ     AT+2,,AUTO
         2 000037   200006 630500                    EPPR0   AT+2,,AUTO
         2 000040   000020 631400 xsym               EPPR1   B_VECTNIL+16
         2 000041   000000 701000 xent               TSX1    ALA$ERROR
         2 000042   000000 011000                    NOP     0

     1693      221    1         CALL M$XXX;

    221  2 000043   000003 713400                    CLIMB   3
         2 000044   000000 401760                    pmme    nvectors=0

     1694      222    1   END ALA$TRAP;

    222  2 000045   000000 702200 xent               TSX2  ! X66_AARET

PL6.E3A0      #009=ALA$TRAP File=ALA$LOGON.:E05TSI                               TUE 07/29/97 08:32 Page:349
--  Include file information  --

   AL_PERR_C.:E05TOU  is referenced.
   CP_6.:E05TOU  cannot be made into a system file and is referenced.
   B$JIT_C.:E05TOU  was found in the system file and is never referenced.
   CP_6_C.:E05TOU  was found in the system file and is referenced.
      No diagnostics issued in procedure ALA$TRAP.
PL6.E3A0      #009=ALA$TRAP File=ALA$LOGON.:E05TSI                               TUE 07/29/97 08:32 Page:350

 **** Variables and constants ****

  ****  Section 001 RoData ALA$TRAP

  ****  Scalars and arrays  ****
OctLoc.c.b A Datatyp(siz) R M Lvl/name                 OctLoc.c.b A Datatyp(siz) R M Lvl/name

    12-0-0/w STRC        r     1 ALA_E$LOGON_TRAP           0-0-0/d STRC(360)   r     1 NO_TRAP

  ****  Auto variables  ****

  ****  Scalars and arrays  ****
OctLoc.c.b A Datatyp(siz) R M Lvl/name                 OctLoc.c.b A Datatyp(siz) R M Lvl/name

     4-0-0/w STRC(63)    r     1 AT                         3-0-0/w BIT         r     1 ERR

  ****  SYMREF variables  ****

  ****  Scalars and arrays  ****
OctLoc.c.b A Datatyp(siz) R M Lvl/name                 OctLoc.c.b A Datatyp(siz) R M Lvl/name

     0-0-0/w PTR         r     1 B$TCB$

  ****  BASED and DCB variables  ****

  ****  Scalars and arrays  ****
OctLoc.c.b A Datatyp(siz) R M Lvl/name                 OctLoc.c.b A Datatyp(siz) R M Lvl/name

     0-0-0/w STRC(2448)  r     1 B$EXCFR                    0-0-0/w STRC(144)   r     1 B$TCB


   Procedure ALA$TRAP requires 38 words for executable code.
   Procedure ALA$TRAP requires 8 words of local(AUTO) storage.

    No errors detected in file ALA$LOGON.:E05TSI    .
PL6.E3A0      #009=ALA$TRAP File=ALA$LOGON.:E05TSI                               TUE 07/29/97 08:32 Page:351
          *** CROSS REFERENCE LISTING ***
**     DENOTES     IDENTIFIER DEFINITION
<<                 IDENTIFIER'S VALUE SET
>>                 IDENTIFIER'S VALUE USED
<>                 IDENTIFIER SET AND/OR USED
--                 IDENTIFIER REFERENCED
PL6.E3A0      #009=ALA$TRAP File=ALA$LOGON.:E05TSI                               TUE 07/29/97 08:32 Page:352
          MINI XREF LISTING

ALA$ERROR
       205**DCL-ENT   214--CALL      220--CALL
ALA_E$LOGON_TRAP
       172**DCL       220<>CALL
AT
       207**DCL       220<>CALL
AT.COUNT
       208**DCL       218<<ASSIGN
AT.IC
       209**DCL       218--ASSIGN    219<<CALLBLT
B$EXCFR.ASL
       116**DCL       116--REDEF
B$EXCFR.ERR
       130**DCL       213>>ASSIGN
B$EXCFR.ERR.ERR#
       130**DCL       130--REDEF
B$EXCFR.EVID
       129**DCL       129--REDEF     130--REDEF
B$EXCFR.IC
       117**DCL       219>>CALLBLT
B$EXCFR.IR
       117**DCL       117--REDEF
B$EXCFR.PREVSZ
       116**DCL       116--REDEF
B$EXCFR.SUBC
       128**DCL       128--REDEF     129--REDEF     129--REDEF
B$TCB.STK$
       113**DCL       213>>ASSIGN    219>>CALLBLT
B$TCB$
       111**DCL       213>>ASSIGN    219>>CALLBLT
ERR
       206**DCL       213<<ASSIGN    214<>CALL
PL6.E3A0      #009=ALA$TRAP File=ALA$LOGON.:E05TSI                               TUE 07/29/97 08:32 Page:353
IGNORE1
       211**LABEL     211--CALLALT
M$TRAP
        71**DCL-ENT   211--CALL
M$XXX
        29**DCL-ENT   221--CALL
NO_TRAP
       148**DCL       211<>CALL
NO_TRAP.V
       148**DCL       148--DCLINIT
