VERSION E05

 08:33 07/29/97  FILE=ARB$MLSUBR.:E05TSI                                                                 1    BMAP - B00
                                         1  *M* ARB$MLSUBR BMAP code necessary for RATES floating point math.
                                         2  *T***********************************************************
                                         3  *T*                                                         *
                                         4  *T* Copyright (c) Bull HN Information Systems Inc., 1997    *
                                         5  *T*                                                         *
                                         6  *T***********************************************************
                                         7  ******************************************************************
                                         8  *
                                         9  *       ARB$MLSUBR
                                        10  *
                                        11  * THIS MODULE CONTAINS ROUTINES NECESSARY FOR RATES TO MANIPULATE
                                        12  * PACKED DECIMAL SIGNED FLOATING POINT NUMBERS
                                        13  *
                                        14  ******************************************************************
                                        15         ENTDEF  CONVPK
                                        16         ENTREF  X66_AUTO_3
                                        17         ENTREF  X66_ARET
             000000000001               18  P1     EQU     1
             000000000002               19  P2     EQU     2
             000000000003               20  P3     EQU     3
                                        21  *********************************************************************
                                        22  *
                                        23  *              CONVPK
                                        24  *
                                        25  * THIS ROUTINE IS CALLED BY:
                                        26  *      CALL CONVPK(DEC_STRING,STRING_LEN,PACKED_NUM);
                                        27  *
                                        28  * ITS PURPOSE IS TO CONVERT A SIGNED, FLOATING POINT, 9-BIT CHARACTER
                                        29  * DECIMAL NUMBER (DEC_STRING) TO A SIGNED FLOATING POINT PACKED DECIMAL
                                        30  * NUMBER (PACKED_NUM). THE LENGTH OF DEC_STRING IS CONTAINED IN A
                                        31  * SIGNED BINARY WORD (STRING_LEN) AND IS LENGTH IN 9-BIT BYTES.
                                        32  *
                                        33  ********************************************************************
 0 000000  X 000000 7000 00             34  CONVPK TSX0    X66_AUTO_3      RECEIVING SEQUENCE WITH
   000001    000006 000003              35         ZERO    6,3             6 WORDS OF AUTO AND 3 PARAMETERS
   000002    2 00003 4715 00            36         LDP1    3,,P2           DEC_STRING POINTER
   000003    2 00004 4735 00            37         LDP3    4,,P2           STRING_LEN POINTER
 08:33 07/29/97  FILE=ARB$MLSUBR.:E05TSI                                                                 2    BMAP - B00
   000004    3 00000 2351 00            38         LDA     0,,P3           STRING_LEN INTO A REG
   000005    2 00005 4735 00            39         LDP3    5,,P2           PACKED_NUM POINTER
   000006    0 000 0 0 100 3005 40      40         MVN     (1,1),(1)       MOVE DEC_STRING TO PACKED_NUM FORMAT
   000007    1 00000 0 0 0 00 05        41         NDSC9   0,0,A,0,0,P1    DESCRIPTOR FOR DEC_STRING
   000010    3 00000 0 1 0 00 20        42         NDSC4   0,0,16,0,0,P3   DESCRIPTOR FOR PACKED_NUM
   000011  X 000000 7100 00             43         TRA     X66_ARET        NORMAL RETURN
                                        44         END

  CONTROL SECTION TABLE

   0 CODE   EVEN  000012
   1 RODATA EVEN  000000 LITERALS

 08:33 07/29/97  FILE=ARB$MLSUBR.:E05TSI      SYMBOL TABLE                                               3    BMAP - B00
 12101000 000000000000 CONVPK          15       *34
 41000000 000000000001 P1             *18        41
 41000000 000000000002 P2             *19        36        37        39
 41000000 000000000003 P3             *20        38        42
 03201001 000000000000 X66_ARET       *17        43
 03201000 000000000000 X66_AUTO_3     *16        34

       6 SYMBOLS

       0 MACROS

    SYMBOL SPACE USED    74 WORDS
     MACRO SPACE USED     0 WORDS
   INPUT RECORDS READ    88
 STATEMENTS PROCESSED    21
         ELAPSED TIME  0:02.08
             CPU TIME     0.40 SEC.
        ASSEMBLY RATE  3150 STATEMENTS/CPU MIN.

      NO ERRORS

