VERSION E05

PL6.E3A0      #001=ARC$INIT File=ARC$INIT.:E05TSI                                TUE 07/29/97 08:33 Page:1
        1        1        /*M* ARC$INIT  Initial tables for B$RATE file.                                */
        2        2        /*T***********************************************************/
        3        3        /*T*                                                         */
        4        4        /*T* Copyright (c) Bull HN Information Systems Inc., 1997    */
        5        5        /*T*                                                         */
        6        6        /*T***********************************************************/
        7        7        ARC$INIT: PROC;
        8        8        %INCLUDE AR_TBLS_C;
        9      413        /* INITIAL STRUCTURE FOR FORM RATE TABLE                                      */
       10      414        %B$FORM_TBL(FPTN    = INIT_FORM_TBL,
       11      415                    STCLASS = CONSTANT SYMDEF);
       12      436        /**/
       13      437        /* INITIAL STRUCTURE FOR PROCESSOR RATE TABLE                                 */
       14      438        %B$PROC_TBL(FPTN    = INIT_PROC_TBL,RTABLE = '0',
       15      439                    STCLASS = CONSTANT SYMDEF);
       16      466        /**/
       17      467        /* INITIAL STRUCTURE FOR SCHEDULE RATE TABLE                                  */
       18      468        %B$SCHED_TBL(FPTN    = INIT_SCHED_TBL,RTABLE = '0',
       19      469                     STCLASS = CONSTANT SYMDEF);
       20      496        /**/
       21      497        /* INITIAL STRUCTURE FOR RATE RATE TABLE                                      */
       22      498        %B$RATE_TBL(FPTN    = INIT_RATE_TBL,
       23      499                    STCLASS = CONSTANT SYMDEF);
       24      614        /* INITIAL STRUCTURE FOR LCP6 COMM TABLE                                  */
       25      615        %B$LCP6_TBL(FPTN    = INIT_LCP6_TBL,
       26      616                     STCLASS = CONSTANT SYMDEF);
       27      777        /**/
       28      778        /* INITIAL STRUCTURE FOR COMM RATE TABLE                                      */
       29      779        %B$COMM_TBL(FPTN    = INIT_COMM_TBL,
       30      780                    STCLASS = CONSTANT SYMDEF);
       31      796    1   END ARC$INIT;

PL6.E3A0      #001=ARC$INIT File=ARC$INIT.:E05TSI                                TUE 07/29/97 08:33 Page:2
--  Include file information  --

   AR_TBLS_C.:E05TOU  is referenced.
      No diagnostics issued in procedure ARC$INIT.

   No code generated for procedure ARC$INIT .
   Procedure ARC$INIT requires 4 words of local(AUTO) storage.

    No errors detected in file ARC$INIT.:E05TSI    .

PL6.E3A0      #001=ARC$INIT File=ARC$INIT.:E05TSI                                TUE 07/29/97 08:33 Page:3

 Object Unit name= ARC$INIT                                   File name= ARC$INIT.:E05TOU
 UTS= JUL 29 '97 08:33:16.64 TUE                              Compiler= PL-6/E31         Sev=      00
 SharedLib= :SHARED_SYSTEM                                    Alt SharedLib=


    ****  Control sections  ****

 Sect   Type Bound  Init  Size OctSiz  Section name(segment info)
    0  RoData even  UTS    238    356  ARC$INIT
    1   Proc  even  none     0      0  ARC$INIT

    ****  Entry defs  ****

                              Check   Calling
                             calling  sequence
  Sect OctLoc Primary Altret sequence   type   Parms  Name
     1      0   yes            yes     ~proc       0  ARC$INIT

  ****  Data defs  ****

 Sect OctLoc  Name                           Sect OctLoc  Name
    0      0  INIT_FORM_TBL                      0     10  INIT_PROC_TBL
    0     26  INIT_SCHED_TBL                     0     44  INIT_RATE_TBL
    0    210  INIT_LCP6_TBL                      0    354  INIT_COMM_TBL
PL6.E3A0      #001=ARC$INIT File=ARC$INIT.:E05TSI                                TUE 07/29/97 08:33 Page:4

        1        1        /*M* ARC$INIT  Initial tables for B$RATE file.                                */
        2        2        /*T***********************************************************/
        3        3        /*T*                                                         */
        4        4        /*T* Copyright (c) Bull HN Information Systems Inc., 1997    */
        5        5        /*T*                                                         */
        6        6        /*T***********************************************************/
        7        7        ARC$INIT: PROC;
        8        8        %INCLUDE AR_TBLS_C;
        9      413        /* INITIAL STRUCTURE FOR FORM RATE TABLE                                      */
       10      414        %B$FORM_TBL(FPTN    = INIT_FORM_TBL,
       11      415                    STCLASS = CONSTANT SYMDEF);
       12      436        /**/
       13      437        /* INITIAL STRUCTURE FOR PROCESSOR RATE TABLE                                 */
       14      438        %B$PROC_TBL(FPTN    = INIT_PROC_TBL,RTABLE = '0',
       15      439                    STCLASS = CONSTANT SYMDEF);
       16      466        /**/
       17      467        /* INITIAL STRUCTURE FOR SCHEDULE RATE TABLE                                  */
       18      468        %B$SCHED_TBL(FPTN    = INIT_SCHED_TBL,RTABLE = '0',
       19      469                     STCLASS = CONSTANT SYMDEF);
       20      496        /**/
       21      497        /* INITIAL STRUCTURE FOR RATE RATE TABLE                                      */
       22      498        %B$RATE_TBL(FPTN    = INIT_RATE_TBL,
       23      499                    STCLASS = CONSTANT SYMDEF);
       24      614        /* INITIAL STRUCTURE FOR LCP6 COMM TABLE                                  */
       25      615        %B$LCP6_TBL(FPTN    = INIT_LCP6_TBL,
       26      616                     STCLASS = CONSTANT SYMDEF);
       27      777        /**/
       28      778        /* INITIAL STRUCTURE FOR COMM RATE TABLE                                      */
       29      779        %B$COMM_TBL(FPTN    = INIT_COMM_TBL,
       30      780                    STCLASS = CONSTANT SYMDEF);
       31      796    1   END ARC$INIT;

PL6.E3A0      #001=ARC$INIT File=ARC$INIT.:E05TSI                                TUE 07/29/97 08:33 Page:5
--  Include file information  --

   AR_TBLS_C.:E05TOU  is referenced.
      No diagnostics issued in procedure ARC$INIT.
PL6.E3A0      #001=ARC$INIT File=ARC$INIT.:E05TSI                                TUE 07/29/97 08:33 Page:6

 **** Variables and constants ****


   No code generated for procedure ARC$INIT .
   Procedure ARC$INIT requires 4 words of local(AUTO) storage.

    No errors detected in file ARC$INIT.:E05TSI    .
PL6.E3A0      #001=ARC$INIT File=ARC$INIT.:E05TSI                                TUE 07/29/97 08:33 Page:7
          *** CROSS REFERENCE LISTING ***
**     DENOTES     IDENTIFIER DEFINITION
<<                 IDENTIFIER'S VALUE SET
>>                 IDENTIFIER'S VALUE USED
<>                 IDENTIFIER SET AND/OR USED
--                 IDENTIFIER REFERENCED
PL6.E3A0      #001=ARC$INIT File=ARC$INIT.:E05TSI                                TUE 07/29/97 08:33 Page:8
          MINI XREF LISTING

