VERSION E05

PL6.E3A0      #001=ASA$CONSOLE File=ASA$CONSOLE.:E05TSI                          TUE 07/29/97 08:33 Page:1
        1        1        /*M* ASA$CONSOLE - Processes CREATE and MODIFY for CONSOLE. */
        2        2        /*T***********************************************************/
        3        3        /*T*                                                         */
        4        4        /*T* Copyright (c) Bull HN Information Systems Inc., 1997    */
        5        5        /*T*                                                         */
        6        6        /*T***********************************************************/
        7        7        /*X*  DMC,DMR,CCC,PLM=0,IND=3,CTI=5,DCI=6,IAD=0,DTI=0,IDT=0,ENI=3,
        8        8              ECU=3,CSU=3,SDI=3                                           */
        9        9
       10       10        /*   ASA$CONSOLE : This module consists of procedures:
       11       11                             ASA$CONSOLE
       12       12                             ASA$CON_OPTS
       13       13                                                               */
       14       14        /*P*  NAME: ASA$CONSOLE
       15       15              PURPOSE:  This module of SUPER processes the
       16       16                        'CREATE CONSOLE' and 'MODIFY CONSOLE' commands.
       17       17                        It calls ASA$CON_OPTS to process the options.
       18       18        */
       19       19        ASA$CONSOLE: PROC ;
       20       20                                                              /**/
       21       21        %SET LISTSUB = '1'B ;
       22       22        /*********************************************************************/
       23       23        /*   Include files   include files   include files   include files   */
       24       24        /*********************************************************************/
       25       25                                                              /**/
       26       26              %INCLUDE  AS_ENTRIES_M ;
       27     1076              %INCLUDE  AS_PERR_C    ;
       28     1678              %INCLUDE  AS_SSUBS_C   ;
       29     1770              %INCLUDE  AS_SUBS_C    ;
       30     3184              %INCLUDE  XU_FORMAT_C  ;
       31     3346              %INCLUDE  XU_MACRO_C   ;
       32     6452              %INCLUDE  KL_SUPER_C   ;
       33     9354              %INCLUDE  AS_SUPER_C   ;
       34     9789              %INCLUDE  AS_MAC_C     ;
       35     9869              %INCLUDE  AS_SUPER_R   ;
       36    12885              %INCLUDE  B_MACROS_C   ;
       37    12996              %INCLUDE  CP_6         ;
PL6.E3A0      #001=ASA$CONSOLE File=ASA$CONSOLE.:E05TSI                          TUE 07/29/97 08:33 Page:2
       38    13077              %INCLUDE  KC$CGBLK     ;
       39    13125              %INCLUDE  OC$INFO      ;
       40    13181              %INCLUDE  QQ_SUPER_C   ;
       41    13236        %EJECT ;
PL6.E3A0      #001=ASA$CONSOLE File=ASA$CONSOLE.:E05TSI                          TUE 07/29/97 08:33 Page:3
       42    13237        /*********************************************************************/
       43    13238        /*   Auto data       auto data       auto data       auto data       */
       44    13239        /*********************************************************************/
       45    13240                                                              /**/
       46    13241    1   DCL CREATE BIT(1) ;
       47    13242    1   DCL TYPE CHAR(2) ;
       48    13243    1   DCL SNAME CHAR(8);
       49    13244    1   DCL TWSNC CHAR(4) ;
       50    13245    1   DCL TWSN# UBIN WORD ;
       51    13246    1   DCL TWSN_INDEX UBIN WORD ;
       52    13247    1   DCL CON_ARS UBIN WORD ;
       53    13248    1   DCL TWSN_ARS UBIN WORD ;
       54    13249    1   DCL ARS UBIN WORD ;
       55    13250    1   DCL I UBIN WORD ;
       56    13251    1   DCL J UBIN WORD;
       57    13252    1   DCL LOCAL BIT(1) ;
       58    13253    1   DCL BLK$ PTR ;
       59    13254    1   DCL KLDREC CHAR(4096) ;
       60    13255    1   DCL DREC$ PTR ;
       61    13256    1   DCL TREC$ PTR ;
       62    13257    1   DCL WSNCVT$ PTR ;
       63    13258    1   DCL PRO$ PTR ;
       64    13259    1   DCL TWSNR$ PTR ;
       65    13260    1   DCL 1 CON_NAME,
       66    13261    1          2 COUNT UBIN BYTE UNAL,
       67    13262    1          2 TEXT CHAR(8) UNAL;
       68    13263        %EJECT ;
PL6.E3A0      #001=ASA$CONSOLE File=ASA$CONSOLE.:E05TSI                          TUE 07/29/97 08:33 Page:4
       69    13264        /*********************************************************************/
       70    13265        /*   Symref's        symref's        symref's        symref's        */
       71    13266        /*********************************************************************/
       72    13267                                                              /**/
       73    13268    1   DCL CONSOLE_CMD SYMREF UBIN WORD ;
       74    13269        %EJECT ;
PL6.E3A0      #001=ASA$CONSOLE File=ASA$CONSOLE.:E05TSI                          TUE 07/29/97 08:33 Page:5
       75    13270        /*********************************************************************/
       76    13271        /*   Static data     static data     static data     static data     */
       77    13272        /*********************************************************************/
       78    13273                                                              /**/
       79    13274    1   DCL 1 CON_KEY ALIGNED STATIC ,
       80    13275    1          2 CNT UBIN BYTE UNAL INIT( 9 ),
       81    13276    1          2 TXT UNAL ,
       82    13277    1             3 ACCT CHAR(8) UNAL INIT(' ') ,
       83    13278    1             3 ASTR CHAR(1) UNAL INIT('*') ;
       84    13279        %EJECT ;
PL6.E3A0      #001=ASA$CONSOLE File=ASA$CONSOLE.:E05TSI                          TUE 07/29/97 08:33 Page:6
       85    13280        /********************************************************************/
       86    13281        /*   Entry dcls      entry dcls      entry dcls      entry dcls      */
       87    13282        /*********************************************************************/
       88    13283                                                              /**/
       89    13284    1   DCL X$PARSE ENTRY(1) ALTRET ;
       90    13285        %ASA$CON_OPTS ;
       91    13288        %ASB$ENQ_HLP ;
       92    13291        %ASB$DEQ_HLP ;
       93    13294        %ASB$READ_HLP ;
       94    13297        %ASB$WRITE_HLP ;
       95    13300        %ASB$GETSEG ;
       96    13303        %ASB$FIND_TWSN_INDEX ;
       97    13306        %ASH$ERROR ;
       98    13309        %ASH$WARN ;
       99    13312        %ASB$WRITE_LO ;
      100    13315        %ASB$CHECK_TYPE ;
      101    13318        %EJECT ;
PL6.E3A0      #001=ASA$CONSOLE File=ASA$CONSOLE.:E05TSI                          TUE 07/29/97 08:33 Page:7
      102    13319        /*********************************************************************/
      103    13320        /*   Local based     local based     local based     local based     */
      104    13321        /*********************************************************************/
      105    13322                                                              /**/
      106    13323            %PARSE$OUT( NAME=P$NODE, STCLASS="BASED(NODE$)",
      107    13324                        NDTYPE=TYPE, NSUBLKS=SUBNODES) ;
      108    13369              %PARSE$SYM( NAME = OUT$SYM ,
      109    13370                          STCLASS="BASED(BLK$)") ;
      110    13408              %KL_DREC ( NAME = KL$TREC , LAST=";", STCLASS="BASED( TREC$ )" ) ;
      111    13521              %KL_DREC ( NAME = KL$DREC, STCLASS="BASED( DREC$ )" , LAST="," ) ;
      112    13634              %KC$CGID(FPTN=KC$CGID,
      113    13635                        STCLASS=STCLASS,
      114    13636                        LVL = 2 ,
      115    13637                        LAST = "," );
      116    13663              %OC$INFO (FPTN = OCINFO,
      117    13664                        LVL = 2 ) ;
      118    13701              %KL_TWSNREC(  NAME = KL$TWSNREC ,
      119    13702                            STCLASS="BASED( TWSNR$ )") ;
      120    13727        %EJECT ;
PL6.E3A0      #001=ASA$CONSOLE File=ASA$CONSOLE.:E05TSI                          TUE 07/29/97 08:33 Page:8
      121    13728        /*********************************************************************/
      122    13729        /*   Procedure       procedure       procedure       procedure       */
      123    13730        /*********************************************************************/
      124    13731                                                              /**/
      125    13732        /*
      126    13733            ***            Begin procedure                    ***
      127    13734        */
      128    13735    1   P_PCB.ROOT$ = ADDR( CONSOLE_CMD ) ;
      129    13736    2   CALL X$PARSE( P_PCB ) WHENALTRETURN DO;
      130    13737    2      CALL ASH$ERROR( P_PCB.ERROR ) ;
      131    13738    2      RETURN ;
      132    13739    2      END; /*  Whanaltreturn  */
      133    13740                                                              /**/
      134    13741                                                              /**/
      135    13742    1   NODE$ = P_PCB.OUT$ ;
      136    13743    1   IF P$NODE.CODE = 38 /* CR_CONSOLE */
      137    13744    1   THEN
      138    13745    1      CREATE = AS_TRUE ;
      139    13746    1   ELSE
      140    13747    1      CREATE = AS_FALSE ;
      141    13748                                                              /* Did we get data SEG.? */
      142    13749    1   IF NOT DSEG_FLG
      143    13750    1   THEN                                        /* No, get them. */
      144    13751    2      CALL ASB$GETSEG WHENALTRETURN DO;
      145    13752        /*E*  ERROR:  AS-E$GETSEGERR-C
      146    13753              MESSAGE:  Unable to get data segment memory.
      147    13754        */
      148    13755              %SCREAM( ERR#=%E$GETSEGERR, LEVEL=ERROR, MID='A' ) ;
      149    13770    2         RETURN ;
      150    13771    2         END; /* Whenaltreturn  */
      151    13772                                                              /**/
      152    13773                                                              /* Pick up acct.  */
      153    13774    1   BLK$ = P$NODE.SUBLK$(0) -> P$NODE.SUBLK$(0) ;
      154    13775    2   IF OUT$SYM.COUNT > 8 THEN DO;
      155    13776        /*E*  ERROR:    ASA-E$CNAMETOOBIG-C
      156    13777              MESSAGE:  Console name too long.
      157    13778              MESSAGE1: Console names can be at most 8 characters.
PL6.E3A0      #001=ASA$CONSOLE File=ASA$CONSOLE.:E05TSI                          TUE 07/29/97 08:33 Page:9
      158    13779        */
      159    13780           %SCREAM( ERR#=E$CNAMETOOBIG , LEVEL=ERROR, MID='A' );
      160    13795    2      RETURN ;
      161    13796    2      END ; /* Then do */
      162    13797    1   CON_NAME.COUNT = OUT$SYM.COUNT;
      163    13798    1   CON_NAME.TEXT  = OUT$SYM.TEXT;
      164    13799    1   CON_KEY.TXT.ACCT = OUT$SYM.TEXT ;
      165    13800                                                              /* See if console exists. */
      166    13801    1   USERS_KEY = CON_KEY ;
      167    13802    1   DREC$ = ADDR( KLDREC ) ;
      168    13803    1   ARS = LENGTHC( KLDREC ) ;
      169    13804    1   CALL ASB$ENQ_HLP ALTRET( ENQ_ERR2 ) ;
      170    13805    1   CALL ASB$READ_HLP( DREC$, ARS )
      171    13806    2   WHENRETURN DO;
      172    13807    2      CALL ASB$CHECK_TYPE( DREC$, ARS, 4 /* CONSOLE */, CREATE, CON_NAME ) ALTRET(EXIT#
             13807               );
      173    13808    3      IF CREATE THEN DO;                             /* Console exists */
      174    13809           /*E*  ERROR:    ASA-E$CONS_ALREADY_EXISTS-C
      175    13810                 MESSAGE:  Console exists.
      176    13811                 MESSAGE1: Console %"%U1" %already exists.
      177    13812           */
      178    13813    3         AS_FIELD1 = CON_NAME;
      179    13814              %SCREAM( ERR#=E$CONS_ALREADY_EXISTS, LEVEL=ERROR, MID='A' ) ;
      180    13829    3         RETURN ;
      181    13830    3         END ; /* Then do */
      182    13831    2      CON_ARS = ARS ;
      183    13832    2      TREC$ = DSEG1$ ;
      184    13833    2      END; /*  Whenreturn  */
      185    13834    2   WHENALTRETURN DO;
      186    13835    3      IF NOT CREATE THEN DO ;                 /* If create ok as is */
      187    13836           /*E*  ERROR:    ASA-E$CONS_DOESNT_EXIST-C
      188    13837                 MESSAGE:  ** Console does not exist. Switching to CREATE mode.
      189    13838           */
      190    13839              %SCREAM( ERR#=E$CONS_DOESNT_EXIST, LEVEL=WARN, MID='A' ) ;
      191    13854    3         CREATE = AS_TRUE ;
      192    13855    3         END; /*   If not create  */
      193    13856    2      END; /*   Whenaltreturn  */
PL6.E3A0      #001=ASA$CONSOLE File=ASA$CONSOLE.:E05TSI                          TUE 07/29/97 08:33 Page:10
      194    13857                                                              /* Check to see if
      195    13858                                                                 'FOR' was specified. */
      196    13859    1   IF P$NODE.SUBNODES > 2
      197    13860    1   THEN                                        /* Yes it was */
      198    13861    2   DO ;
      199    13862    2      BLK$ = P$NODE.SUBLK$(1) -> P$NODE.SUBLK$(0) ;
      200    13863    2      IF OUT$SYM.COUNT > 8
      201    13864    2      THEN
      202    13865    3      DO ;
      203    13866              %SCREAM( ERR#=E$CNAMETOOBIG, MID='A', LEVEL=ERROR );
      204    13881    3         RETURN ;
      205    13882    3         END ;        /* Then do */
      206    13883    2      SNAME = OUT$SYM.TEXT ;
      207    13884    2      IF NOT CREATE  AND  KL$DREC.SNAME ~= SNAME
      208    13885    3      THEN DO;
      209    13886        /*E* ERROR:   ASA-E$CON_FOR_WRONG-C
      210    13887             MESSAGE: Warning:  Console %U1 was created for %U2, not %U3.
      211    13888        */
      212    13889    3         AS_FIELD1 = CON_NAME;
      213    13890    3         CALL INDEX( I, AS_BLANK, KL$DREC.SNAME );
      214    13891    3         AS_FIELD2.COUNT = I;
      215    13892    3         AS_FIELD2.TEXT  = KL$DREC.SNAME ;
      216    13893    3         AS_FIELD3.COUNT = OUT$SYM.COUNT ;
      217    13894    3         AS_FIELD3.TEXT  = OUT$SYM.TEXT ;
      218    13895              %SCREAM( ERR#=E$CON_FOR_WRONG, MID='A', LEVEL=WARN );
      219    13910    3         SNAME = KL$DREC.SNAME;
      220    13911    3         END;
      221    13912    2      END ; /* Then do */
      222    13913    1   ELSE                                        /* No it wasn't */
      223    13914    1      IF CREATE
      224    13915    1      THEN SNAME = 'LOCAL';
      225    13916    1      ELSE SNAME = KL$DREC.SNAME ;
      226    13917
      227    13918    1   IF SNAME = 'LOCAL'
      228    13919    1   THEN
      229    13920    1      LOCAL = AS_TRUE ;
      230    13921    1   ELSE
PL6.E3A0      #001=ASA$CONSOLE File=ASA$CONSOLE.:E05TSI                          TUE 07/29/97 08:33 Page:11
      231    13922    1      LOCAL = AS_FALSE ;
      232    13923    1   CALL CONCAT( USERS_KEY.TXTC, SNAME, 'STATION' );
      233    13924    1   USERS_KEY.COUNT = 15;
      234    13925                                                              /* Pick up terminal record */
      235    13926    1   TREC$ = DSEG1$ ;
      236    13927    1   ARS = DSEG1SIZE ;
      237    13928    1   CALL ASB$READ_HLP( TREC$, ARS )
      238    13929    2   WHENALTRETURN DO;
      239    13930           /*E*  ERROR:    ASA-E$TERMINAL_NOEXIST-C
      240    13931                 MESSAGE:  %%U1 %does not exist.
      241    13932                 MESSAGE1: TERMINAL %%U1 %does not exist.
      242    13933           */
      243    13934    2      CALL INDEX( J, ' ', USERS_KEY.TXTC );
      244    13935    2      IF J <= 8
      245    13936    2      THEN AS_FIELD1.COUNT = J;
      246    13937    2      ELSE AS_FIELD1.COUNT = 8;
      247    13938    2      AS_FIELD1.TEXT = USERS_KEY.TXTC;
      248    13939           %SCREAM( ERR#=E$TERMINAL_NOEXIST, LEVEL=ERROR, MID='A' );
      249    13954    2      RETURN ;
      250    13955    2      END; /*  Whenaltreturn  */
      251    13956                                                                 /**/
      252    13957                                                              /* Get twsn number */
      253    13958    1   TWSNC = KL$TREC.TWSN# ;
      254    13959    1   CALL CHARBIN( TWSN#, TWSNC ) ;
      255    13960                                                              /* Pick up twsn record */
      256    13961    1   CALL CONCAT( USERS_KEY.TXTC, 'TWSN', TWSNC ) ;
      257    13962    1   USERS_KEY.COUNT = 8 ;
      258    13963    1   TWSNR$ = DSEG2$ ;
      259    13964    1   TWSN_ARS = DSEG2SIZE ;
      260    13965    1   CALL ASB$ENQ_HLP ALTRET( ENQ_ERR2 ) ;
      261    13966    1   CALL ASB$READ_HLP( TWSNR$, TWSN_ARS )
      262    13967    2   WHENALTRETURN DO;
      263    13968    2      AS_FIELD1 = USERS_KEY ;
      264    13969           %SCREAM( ERR#=E$TWSN_NO_EXIST, LEVEL=ERROR, MID='A' ) ;
      265    13984    2      RETURN ;
      266    13985    2      END; /*  Whenaltreturn  */
      267    13986                                                              /**/
PL6.E3A0      #001=ASA$CONSOLE File=ASA$CONSOLE.:E05TSI                          TUE 07/29/97 08:33 Page:12
      268    13987                                                       /* Get index in twsn record */
      269    13988    1   IF CREATE THEN
      270    13989    1      TWSN_INDEX = KL$TWSNREC.NDEV ;
      271    13990    1   ELSE
      272    13991    1      CALL ASB$FIND_TWSN_INDEX(TREC$,DREC$,TWSNR$,AS_FALSE,CON_KEY.TXT.ACCT,TWSN_INDEX)
             13991               ALTRET(EXIT#);
      273    13992                                                              /* Do options */
      274    13993                                                                   /**/
      275    13994    1   CALL ASA$CON_OPTS(DREC$,TWSNR$,TWSNC,CREATE,'0'B,'    ',LOCAL,TWSN_INDEX);
      276    13995                                                              /* Write twsn record */
      277    13996    2   IF CREATE THEN DO ;
      278    13997    2      KL$TWSNREC.NDEV = TWSN_INDEX + 1 ;
      279    13998    2      TWSN_ARS = TWSN_ARS + LENGTHC( KL$TWSNREC.DEVS(0) ) ;
      280    13999    2      END ;
      281    14000    1   KL$TWSNREC.DEVS.ACCT(TWSN_INDEX) = CON_KEY.TXT.ACCT ;
      282    14001    1   CALL CONCAT( USERS_KEY.TXTC, 'TWSN', TWSNC ) ;
      283    14002    1   USERS_KEY.COUNT = 8 ;
      284    14003    1   CALL ASB$WRITE_HLP( TWSNR$, TWSN_ARS ) ALTRET( WRITE_TWSNR_ERR ) ;
      285    14004                                                              /* Write out console rec */
      286    14005                                                                   /**/
      287    14006    1   IF CREATE THEN KL$DREC.SNAME = SNAME;
      288    14007    1   USERS_KEY = CON_KEY ;
      289    14008    1   CON_ARS = LENGTHC(KL_DREC_CNT) + (KL$DREC.NWINFO*4) ;
      290    14009    1   CALL ASB$ENQ_HLP ALTRET( ENQ_ERR2 ) ;
      291    14010    1   CALL ASB$WRITE_HLP( DREC$, CON_ARS )  ALTRET( WRITE_TWSNR_ERR ) ;
      292    14011    1   CALL ASB$DEQ_HLP ALTRET( DEQ_ERR2 ) ;
      293    14012                                                              /**/
      294    14013    1   IF CREATE THEN
      295    14014    1      CALL ASB$WRITE_LO( AS_CREATED_TEXT, LENGTHC(AS_CREATED_TEXT) ) ;
      296    14015
      297    14016    1   EXIT#: RETURN ;
      298    14017                                                              /* Errors */
      299    14018                                                              /**/
      300    14019    1   ENQ_ERR2: ;
      301    14020
      302    14021    1   DEQ_ERR2: ;
      303    14022                                                              /**/
PL6.E3A0      #001=ASA$CONSOLE File=ASA$CONSOLE.:E05TSI                          TUE 07/29/97 08:33 Page:13
      304    14023    1   RETURN ;
      305    14024                                                              /**/
      306    14025                                                              /**/
      307    14026    1   WRITE_TWSNR_ERR: ;
      308    14027    1   CALL ASH$ERROR( ERR_CODE ) ;
      309    14028    1   RETURN ;
      310    14029                                                              /**/
      311    14030                                                              /**/
      312    14031    1   END   ASA$CONSOLE ;
      313    14032        %EOD;

PL6.E3A0      #001=ASA$CONSOLE File=ASA$CONSOLE.:E05TSI                          TUE 07/29/97 08:33 Page:14
--  Include file information  --

   QQ_SUPER_C.:E05TOU  is referenced.
   OC$INFO.:E05TOU  is referenced.
   KC$CGBLK.:E05TOU  is referenced.
   CP_6.:E05TOU  cannot be made into a system file and is referenced.
   B_MACROS_C.:E05TOU  is referenced.
   AS_SUPER_R.:E05TOU  cannot be made into a system file and is referenced.
   AS_MAC_C.:E05TOU  cannot be made into a system file and is referenced.
   AS_SUPER_C.:E05TOU  is referenced.
   KL_SUPER_C.:E05TOU  is referenced.
   XU_MACRO_C.:E05TOU  is referenced.
   XU_FORMAT_C.:E05TOU  is referenced.
   AS_SUBS_C.:E05TOU  is referenced.
   AS_SSUBS_C.:E05TOU  is referenced.
   AS_PERR_C.:E05TOU  is referenced.
   AS_ENTRIES_M.:E05TOU  is referenced.
   B$JIT_C.:E05TOU  was found in the system file and is never referenced.
   CP_6_C.:E05TOU  was found in the system file and is referenced.
      No diagnostics issued in procedure ASA$CONSOLE.

   Procedure ASA$CONSOLE requires 398 words for executable code.
   Procedure ASA$CONSOLE requires 1058 words of local(AUTO) storage.

PL6.E3A0      #001=ASA$CONSOLE File=ASA$CONSOLE.:E05TSI                          TUE 07/29/97 08:33 Page:15

 Object Unit name= ASA$CONSOLE                                File name= ASA$CONSOLE.:E05TOU
 UTS= JUL 29 '97 08:33:48.56 TUE                              Compiler= PL-6/E31         Sev=      00
 SharedLib= :SHARED_SYSTEM                                    Alt SharedLib=


    ****  Control sections  ****

 Sect   Type Bound  Init  Size OctSiz  Section name(segment info)
    0   DCB   even  none     0      0  M$LO
    1   DCB   even  none     0      0  M$UC
    2   Data  even  none     3      3  ASA$CONSOLE
    3  RoData even  UTS     13     15  ASA$CONSOLE
    4   Proc  even  none   398    616  ASA$CONSOLE
    5  RoData even  none    20     24  ASA$CONSOLE

    ****  Entry defs  ****

                              Check   Calling
                             calling  sequence
  Sect OctLoc Primary Altret sequence   type   Parms  Name
     4      0   yes            yes      Std        0  ASA$CONSOLE
PL6.E3A0      #001=ASA$CONSOLE File=ASA$CONSOLE.:E05TSI                          TUE 07/29/97 08:33 Page:16

  ****  Entry refs  ****

         Check        Calling
        calling       sequence
Altret sequence SRef   type   Args  Name
         yes          ~proc      0 XU_OUTPUT_OPTIONS
 yes     yes           Std       6 ASB$FIND_TWSN_INDEX
 yes     yes           Std       2 ASB$WRITE_HLP
         yes           Std       2 ASB$WRITE_LO
 yes     yes           Std       1 X$PARSE
         yes           Std       2 ASH$ERROR
 yes     yes           Std       0 ASB$ENQ_HLP
 yes     yes           Std       3 ASB$READ_HLP
         yes           Std      10 ASA$CON_OPTS
 yes     yes           Std       0 ASB$GETSEG
         yes           Std       2 ASH$WARN
 yes     yes           Std       0 ASB$DEQ_HLP
 yes     yes           Std       5 ASB$CHECK_TYPE
                       nStd      0 X66_AUTO_0
                       Std       0 B_CONSPOOL_D
                       nStd      0 X66_ARET

  ****  Data refs  ****

  Flags:  r = read only, s = secondary
Flgs Name                             Flgs Name                             Flgs Name
r    AS_BLANK                         r    AS_TRUE                          r    AS_FALSE
r    AS_MODE                          r    AS_FE_MODE                            M$LO
     USERS_KEY                             AS_CREATED_TEXT                       NODE$
     ERR_CODE                              AS_FIELD1                             AS_FIELD2
     AS_FIELD3                             REMEM_VAR                             REM_FCMD
     ASA_BRKS_LOC                          DSEG_FLG                              DSEG1$
     DSEG1SIZE                             DSEG2$                                DSEG2SIZE
     P_PCB                                 KL_DREC_CNT                           M$UC
     CONSOLE_CMD                           B_VECTNIL
PL6.E3A0      #001=ASA$CONSOLE File=ASA$CONSOLE.:E05TSI                          TUE 07/29/97 08:33 Page:17

  ****  Segment refs  ****

  Flags:  r = read only, s = secondary
Flgs Name                             Flgs Name                             Flgs Name
     ISSID
PL6.E3A0      #001=ASA$CONSOLE File=ASA$CONSOLE.:E05TSI                          TUE 07/29/97 08:33 Page:18


        1        1        /*M* ASA$CONSOLE - Processes CREATE and MODIFY for CONSOLE. */
        2        2        /*T***********************************************************/
        3        3        /*T*                                                         */
        4        4        /*T* Copyright (c) Bull HN Information Systems Inc., 1997    */
        5        5        /*T*                                                         */
        6        6        /*T***********************************************************/
        7        7        /*X*  DMC,DMR,CCC,PLM=0,IND=3,CTI=5,DCI=6,IAD=0,DTI=0,IDT=0,ENI=3,
        8        8              ECU=3,CSU=3,SDI=3                                           */
        9        9
       10       10        /*   ASA$CONSOLE : This module consists of procedures:
       11       11                             ASA$CONSOLE
       12       12                             ASA$CON_OPTS
       13       13                                                               */
       14       14        /*P*  NAME: ASA$CONSOLE
       15       15              PURPOSE:  This module of SUPER processes the
       16       16                        'CREATE CONSOLE' and 'MODIFY CONSOLE' commands.
       17       17                        It calls ASA$CON_OPTS to process the options.
       18       18        */
       19       19        ASA$CONSOLE: PROC ;

     19  4 000000   000000 700200 xent  ASA$CONSOLE  TSX0  ! X66_AUTO_0
         4 000001   002042 000000                    ZERO    1058,0

       20       20                                                              /**/
       21       21        %SET LISTSUB = '1'B ;
       22       22        /*********************************************************************/
       23       23        /*   Include files   include files   include files   include files   */
       24       24        /*********************************************************************/
       25       25                                                              /**/
       26       26              %INCLUDE  AS_ENTRIES_M ;
       27     1076              %INCLUDE  AS_PERR_C    ;
       28     1678              %INCLUDE  AS_SSUBS_C   ;
       29     1770              %INCLUDE  AS_SUBS_C    ;
       30     3184              %INCLUDE  XU_FORMAT_C  ;
       31     3346              %INCLUDE  XU_MACRO_C   ;
       32     6452              %INCLUDE  KL_SUPER_C   ;
PL6.E3A0      #001=ASA$CONSOLE File=ASA$CONSOLE.:E05TSI                          TUE 07/29/97 08:33 Page:19
       33     9354              %INCLUDE  AS_SUPER_C   ;
       34     9789              %INCLUDE  AS_MAC_C     ;
       35     9869              %INCLUDE  AS_SUPER_R   ;
       36    12885              %INCLUDE  B_MACROS_C   ;
       37    12996              %INCLUDE  CP_6         ;
       38    13077              %INCLUDE  KC$CGBLK     ;
       39    13125              %INCLUDE  OC$INFO      ;
       40    13181              %INCLUDE  QQ_SUPER_C   ;
       41    13236        %EJECT ;
PL6.E3A0      #001=ASA$CONSOLE File=ASA$CONSOLE.:E05TSI                          TUE 07/29/97 08:33 Page:20
       42    13237        /*********************************************************************/
       43    13238        /*   Auto data       auto data       auto data       auto data       */
       44    13239        /*********************************************************************/
       45    13240                                                              /**/
       46    13241    1   DCL CREATE BIT(1) ;
       47    13242    1   DCL TYPE CHAR(2) ;
       48    13243    1   DCL SNAME CHAR(8);
       49    13244    1   DCL TWSNC CHAR(4) ;
       50    13245    1   DCL TWSN# UBIN WORD ;
       51    13246    1   DCL TWSN_INDEX UBIN WORD ;
       52    13247    1   DCL CON_ARS UBIN WORD ;
       53    13248    1   DCL TWSN_ARS UBIN WORD ;
       54    13249    1   DCL ARS UBIN WORD ;
       55    13250    1   DCL I UBIN WORD ;
       56    13251    1   DCL J UBIN WORD;
       57    13252    1   DCL LOCAL BIT(1) ;
       58    13253    1   DCL BLK$ PTR ;
       59    13254    1   DCL KLDREC CHAR(4096) ;
       60    13255    1   DCL DREC$ PTR ;
       61    13256    1   DCL TREC$ PTR ;
       62    13257    1   DCL WSNCVT$ PTR ;
       63    13258    1   DCL PRO$ PTR ;
       64    13259    1   DCL TWSNR$ PTR ;
       65    13260    1   DCL 1 CON_NAME,
       66    13261    1          2 COUNT UBIN BYTE UNAL,
       67    13262    1          2 TEXT CHAR(8) UNAL;
       68    13263        %EJECT ;
PL6.E3A0      #001=ASA$CONSOLE File=ASA$CONSOLE.:E05TSI                          TUE 07/29/97 08:33 Page:21
       69    13264        /*********************************************************************/
       70    13265        /*   Symref's        symref's        symref's        symref's        */
       71    13266        /*********************************************************************/
       72    13267                                                              /**/
       73    13268    1   DCL CONSOLE_CMD SYMREF UBIN WORD ;
       74    13269        %EJECT ;
PL6.E3A0      #001=ASA$CONSOLE File=ASA$CONSOLE.:E05TSI                          TUE 07/29/97 08:33 Page:22
       75    13270        /*********************************************************************/
       76    13271        /*   Static data     static data     static data     static data     */
       77    13272        /*********************************************************************/
       78    13273                                                              /**/
       79    13274    1   DCL 1 CON_KEY ALIGNED STATIC ,
       80    13275    1          2 CNT UBIN BYTE UNAL INIT( 9 ),
       81    13276    1          2 TXT UNAL ,
       82    13277    1             3 ACCT CHAR(8) UNAL INIT(' ') ,
       83    13278    1             3 ASTR CHAR(1) UNAL INIT('*') ;
       84    13279        %EJECT ;
PL6.E3A0      #001=ASA$CONSOLE File=ASA$CONSOLE.:E05TSI                          TUE 07/29/97 08:33 Page:23
       85    13280        /********************************************************************/
       86    13281        /*   Entry dcls      entry dcls      entry dcls      entry dcls      */
       87    13282        /*********************************************************************/
       88    13283                                                              /**/
       89    13284    1   DCL X$PARSE ENTRY(1) ALTRET ;
       90    13285        %ASA$CON_OPTS ;
       91    13288        %ASB$ENQ_HLP ;
       92    13291        %ASB$DEQ_HLP ;
       93    13294        %ASB$READ_HLP ;
       94    13297        %ASB$WRITE_HLP ;
       95    13300        %ASB$GETSEG ;
       96    13303        %ASB$FIND_TWSN_INDEX ;
       97    13306        %ASH$ERROR ;
       98    13309        %ASH$WARN ;
       99    13312        %ASB$WRITE_LO ;
      100    13315        %ASB$CHECK_TYPE ;
      101    13318        %EJECT ;
PL6.E3A0      #001=ASA$CONSOLE File=ASA$CONSOLE.:E05TSI                          TUE 07/29/97 08:33 Page:24
      102    13319        /*********************************************************************/
      103    13320        /*   Local based     local based     local based     local based     */
      104    13321        /*********************************************************************/
      105    13322                                                              /**/
      106    13323            %PARSE$OUT( NAME=P$NODE, STCLASS="BASED(NODE$)",
      107    13324                        NDTYPE=TYPE, NSUBLKS=SUBNODES) ;
      108    13369              %PARSE$SYM( NAME = OUT$SYM ,
      109    13370                          STCLASS="BASED(BLK$)") ;
      110    13408              %KL_DREC ( NAME = KL$TREC , LAST=";", STCLASS="BASED( TREC$ )" ) ;
      111    13521              %KL_DREC ( NAME = KL$DREC, STCLASS="BASED( DREC$ )" , LAST="," ) ;
      112    13634              %KC$CGID(FPTN=KC$CGID,
      113    13635                        STCLASS=STCLASS,
      114    13636                        LVL = 2 ,
      115    13637                        LAST = "," );
      116    13663              %OC$INFO (FPTN = OCINFO,
      117    13664                        LVL = 2 ) ;
      118    13701              %KL_TWSNREC(  NAME = KL$TWSNREC ,
      119    13702                            STCLASS="BASED( TWSNR$ )") ;
      120    13727        %EJECT ;
PL6.E3A0      #001=ASA$CONSOLE File=ASA$CONSOLE.:E05TSI                          TUE 07/29/97 08:33 Page:25
      121    13728        /*********************************************************************/
      122    13729        /*   Procedure       procedure       procedure       procedure       */
      123    13730        /*********************************************************************/
      124    13731                                                              /**/
      125    13732        /*
      126    13733            ***            Begin procedure                    ***
      127    13734        */
      128    13735    1   P_PCB.ROOT$ = ADDR( CONSOLE_CMD ) ;

  13735  4 000002   000000 236000 5                  LDQ     0
         4 000003   000001 756000 xsym               STQ     P_PCB+1

      129    13736    2   CALL X$PARSE( P_PCB ) WHENALTRETURN DO;

  13736  4 000004   000001 630400 5                  EPPR0   1
         4 000005   000017 631400 xsym               EPPR1   B_VECTNIL+15
         4 000006   000000 701000 xent               TSX1    X$PARSE
         4 000007   000011 702000 4                  TSX2    s:13737
         4 000010   000016 710000 4                  TRA     s:13742

      130    13737    2      CALL ASH$ERROR( P_PCB.ERROR ) ;

  13737  4 000011   000002 630400 5                  EPPR0   2
         4 000012   000017 631400 xsym               EPPR1   B_VECTNIL+15
         4 000013   000000 701000 xent               TSX1    ASH$ERROR
         4 000014   000000 011000                    NOP     0

      131    13738    2      RETURN ;

  13738  4 000015   000000 702200 xent               TSX2  ! X66_ARET

      132    13739    2      END; /*  Whanaltreturn  */
      133    13740                                                              /**/
      134    13741                                                              /**/
      135    13742    1   NODE$ = P_PCB.OUT$ ;

  13742  4 000016   000003 236000 xsym               LDQ     P_PCB+3
PL6.E3A0      #001=ASA$CONSOLE File=ASA$CONSOLE.:E05TSI                          TUE 07/29/97 08:33 Page:26
         4 000017   000000 756000 xsym               STQ     NODE$

      136    13743    1   IF P$NODE.CODE = 38 /* CR_CONSOLE */

  13743  4 000020   000000 470400 xsym               LDP0    NODE$
         4 000021   000000 720100                    LXL0    0,,PR0
         4 000022   000046 100003                    CMPX0   38,DU
         4 000023   000030 601000 4                  TNZ     s:13747

      137    13744    1   THEN
      138    13745    1      CREATE = AS_TRUE ;

  13745  4 000024   000000 236000 xsym               LDQ     AS_TRUE
         4 000025   400000 376003                    ANQ     -131072,DU
         4 000026   200003 756100                    STQ     CREATE,,AUTO
         4 000027   000033 710000 4                  TRA     s:13749

      139    13746    1   ELSE
      140    13747    1      CREATE = AS_FALSE ;

  13747  4 000030   000000 236000 xsym               LDQ     AS_FALSE
         4 000031   400000 376003                    ANQ     -131072,DU
         4 000032   200003 756100                    STQ     CREATE,,AUTO

      141    13748                                                              /* Did we get data SEG.? */
      142    13749    1   IF NOT DSEG_FLG

  13749  4 000033   000000 234000 xsym               SZN     DSEG_FLG
         4 000034   000046 604000 4                  TMI     s:13774

      143    13750    1   THEN                                        /* No, get them. */
      144    13751    2      CALL ASB$GETSEG WHENALTRETURN DO;

  13751  4 000035   000002 631400 xsym               EPPR1   B_VECTNIL+2
         4 000036   000000 701000 xent               TSX1    ASB$GETSEG
         4 000037   000041 702000 4                  TSX2    s:13767
         4 000040   000046 710000 4                  TRA     s:13774
PL6.E3A0      #001=ASA$CONSOLE File=ASA$CONSOLE.:E05TSI                          TUE 07/29/97 08:33 Page:27

      145    13752        /*E*  ERROR:  AS-E$GETSEGERR-C
      146    13753              MESSAGE:  Unable to get data segment memory.
      147    13754        */
      148    13755              %SCREAM( ERR#=%E$GETSEGERR, LEVEL=ERROR, MID='A' ) ;

  13767  4 000041   000003 630400 5                  EPPR0   3
         4 000042   000017 631400 xsym               EPPR1   B_VECTNIL+15
         4 000043   000000 701000 xent               TSX1    ASH$ERROR
         4 000044   000000 011000                    NOP     0

      149    13770    2         RETURN ;

  13770  4 000045   000000 702200 xent               TSX2  ! X66_ARET

      150    13771    2         END; /* Whenaltreturn  */
      151    13772                                                              /**/
      152    13773                                                              /* Pick up acct.  */
      153    13774    1   BLK$ = P$NODE.SUBLK$(0) -> P$NODE.SUBLK$(0) ;

  13774  4 000046   000000 470400 xsym               LDP0    NODE$
         4 000047   000003 471500                    LDP1    3,,PR0
         4 000050   100003 236100                    LDQ     3,,PR1
         4 000051   200020 756100                    STQ     BLK$,,AUTO

      154    13775    2   IF OUT$SYM.COUNT > 8 THEN DO;

  13775  4 000052   200020 473500                    LDP3    BLK$,,AUTO
         4 000053   300004 236100                    LDQ     4,,PR3
         4 000054   777000 376003                    ANQ     -512,DU
         4 000055   011000 116003                    CMPQ    4608,DU
         4 000056   000064 602000 4                  TNC     s:13797

      155    13776        /*E*  ERROR:    ASA-E$CNAMETOOBIG-C
      156    13777              MESSAGE:  Console name too long.
      157    13778              MESSAGE1: Console names can be at most 8 characters.
      158    13779        */
PL6.E3A0      #001=ASA$CONSOLE File=ASA$CONSOLE.:E05TSI                          TUE 07/29/97 08:33 Page:28
      159    13780           %SCREAM( ERR#=E$CNAMETOOBIG , LEVEL=ERROR, MID='A' );

  13792  4 000057   000004 630400 5                  EPPR0   4
         4 000060   000017 631400 xsym               EPPR1   B_VECTNIL+15
         4 000061   000000 701000 xent               TSX1    ASH$ERROR
         4 000062   000000 011000                    NOP     0

      160    13795    2      RETURN ;

  13795  4 000063   000000 702200 xent               TSX2  ! X66_ARET

      161    13796    2      END ; /* Then do */
      162    13797    1   CON_NAME.COUNT = OUT$SYM.COUNT;

  13797  4 000064   300004 236100                    LDQ     4,,PR3
         4 000065   202026 552140                    STBQ    CON_NAME,'40'O,AUTO

      163    13798    1   CON_NAME.TEXT  = OUT$SYM.TEXT;

  13798  4 000066   300004 236100                    LDQ     4,,PR3
         4 000067   000033 772000                    QRL     27
         4 000070   000000 620006                    EAX0    0,QL
         4 000071   040100 100540                    MLR     fill='040'O
         4 000072   300004 200010                    ADSC9   4,,PR3                   cn=1,n=*X0
         4 000073   202026 200010                    ADSC9   CON_NAME,,AUTO           cn=1,n=8

      164    13799    1   CON_KEY.TXT.ACCT = OUT$SYM.TEXT ;

  13799  4 000074   300004 236100                    LDQ     4,,PR3
         4 000075   000033 772000                    QRL     27
         4 000076   000000 620006                    EAX0    0,QL
         4 000077   040000 100540                    MLR     fill='040'O
         4 000100   300004 200010                    ADSC9   4,,PR3                   cn=1,n=*X0
         4 000101   000000 200010 2                  ADSC9   CON_KEY                  cn=1,n=8

      165    13800                                                              /* See if console exists. */
      166    13801    1   USERS_KEY = CON_KEY ;
PL6.E3A0      #001=ASA$CONSOLE File=ASA$CONSOLE.:E05TSI                          TUE 07/29/97 08:33 Page:29

  13801  4 000102   000000 100400                    MLR     fill='000'O
         4 000103   000000 000012 2                  ADSC9   CON_KEY                  cn=0,n=10
         4 000104   000000 000052 xsym               ADSC9   USERS_KEY                cn=0,n=42

      167    13802    1   DREC$ = ADDR( KLDREC ) ;

  13802  4 000105   200021 631500                    EPPR1   KLDREC,,AUTO
         4 000106   202021 451500                    STP1    DREC$,,AUTO

      168    13803    1   ARS = LENGTHC( KLDREC ) ;

  13803  4 000107   010000 235007                    LDA     4096,DL
         4 000110   200014 755100                    STA     ARS,,AUTO

      169    13804    1   CALL ASB$ENQ_HLP ALTRET( ENQ_ERR2 ) ;

  13804  4 000111   000002 631400 xsym               EPPR1   B_VECTNIL+2
         4 000112   000000 701000 xent               TSX1    ASB$ENQ_HLP
         4 000113   000610 702000 4                  TSX2    ENQ_ERR2

      170    13805    1   CALL ASB$READ_HLP( DREC$, ARS )

  13805  4 000114   200014 630500                    EPPR0   ARS,,AUTO
         4 000115   202033 450500                    STP0    CON_NAME+5,,AUTO
         4 000116   202021 631500                    EPPR1   DREC$,,AUTO
         4 000117   202032 451500                    STP1    CON_NAME+4,,AUTO
         4 000120   202032 630500                    EPPR0   CON_NAME+4,,AUTO
         4 000121   000020 631400 xsym               EPPR1   B_VECTNIL+16
         4 000122   000000 701000 xent               TSX1    ASB$READ_HLP
         4 000123   000161 702000 4                  TSX2    s:13835

      171    13806    2   WHENRETURN DO;

      172    13807    2     CALL ASB$CHECK_TYPE( DREC$, ARS, 4 /* CONSOLE */, CREATE, CON_NAME ) ALTRET(EXIT#
             13807               );

PL6.E3A0      #001=ASA$CONSOLE File=ASA$CONSOLE.:E05TSI                          TUE 07/29/97 08:33 Page:30
  13807  4 000124   202026 630500                    EPPR0   CON_NAME,,AUTO
         4 000125   202036 450500                    STP0    CON_NAME+8,,AUTO
         4 000126   200003 631500                    EPPR1   CREATE,,AUTO
         4 000127   202035 451500                    STP1    CON_NAME+7,,AUTO
         4 000130   000005 236000 5                  LDQ     5
         4 000131   202034 756100                    STQ     CON_NAME+6,,AUTO
         4 000132   200014 633500                    EPPR3   ARS,,AUTO
         4 000133   202033 453500                    STP3    CON_NAME+5,,AUTO
         4 000134   202021 634500                    EPPR4   DREC$,,AUTO
         4 000135   202032 454500                    STP4    CON_NAME+4,,AUTO
         4 000136   202032 630500                    EPPR0   CON_NAME+4,,AUTO
         4 000137   000023 631400 xsym               EPPR1   B_VECTNIL+19
         4 000140   000000 701000 xent               TSX1    ASB$CHECK_TYPE
         4 000141   000607 702000 4                  TSX2    EXIT#

      173    13808    3      IF CREATE THEN DO;                             /* Console exists */

  13808  4 000142   200003 234100                    SZN     CREATE,,AUTO
         4 000143   000154 605000 4                  TPL     s:13831

      174    13809           /*E*  ERROR:    ASA-E$CONS_ALREADY_EXISTS-C
      175    13810                 MESSAGE:  Console exists.
      176    13811                 MESSAGE1: Console %"%U1" %already exists.
      177    13812           */
      178    13813    3         AS_FIELD1 = CON_NAME;

  13813  4 000144   000000 100500                    MLR     fill='000'O
         4 000145   202026 000011                    ADSC9   CON_NAME,,AUTO           cn=0,n=9
         4 000146   000000 000051 xsym               ADSC9   AS_FIELD1                cn=0,n=41

      179    13814              %SCREAM( ERR#=E$CONS_ALREADY_EXISTS, LEVEL=ERROR, MID='A' ) ;

  13826  4 000147   000006 630400 5                  EPPR0   6
         4 000150   000017 631400 xsym               EPPR1   B_VECTNIL+15
         4 000151   000000 701000 xent               TSX1    ASH$ERROR
         4 000152   000000 011000                    NOP     0

PL6.E3A0      #001=ASA$CONSOLE File=ASA$CONSOLE.:E05TSI                          TUE 07/29/97 08:33 Page:31
      180    13829    3         RETURN ;

  13829  4 000153   000000 702200 xent               TSX2  ! X66_ARET

      181    13830    3         END ; /* Then do */
      182    13831    2      CON_ARS = ARS ;

  13831  4 000154   200014 235100                    LDA     ARS,,AUTO
         4 000155   200012 755100                    STA     CON_ARS,,AUTO

      183    13832    2      TREC$ = DSEG1$ ;

  13832  4 000156   000000 236000 xsym               LDQ     DSEG1$
         4 000157   202022 756100                    STQ     TREC$,,AUTO

      184    13833    2      END; /*  Whenreturn  */

  13833  4 000160   000172 710000 4                  TRA     s:13859

      185    13834    2   WHENALTRETURN DO;

      186    13835    3      IF NOT CREATE THEN DO ;                 /* If create ok as is */

  13835  4 000161   200003 234100                    SZN     CREATE,,AUTO
         4 000162   000172 604000 4                  TMI     s:13859

      187    13836           /*E*  ERROR:    ASA-E$CONS_DOESNT_EXIST-C
      188    13837                 MESSAGE:  ** Console does not exist. Switching to CREATE mode.
      189    13838           */
      190    13839              %SCREAM( ERR#=E$CONS_DOESNT_EXIST, LEVEL=WARN, MID='A' ) ;

  13849  4 000163   000007 630400 5                  EPPR0   7
         4 000164   000017 631400 xsym               EPPR1   B_VECTNIL+15
         4 000165   000000 701000 xent               TSX1    ASH$WARN
         4 000166   000000 011000                    NOP     0

      191    13854    3         CREATE = AS_TRUE ;
PL6.E3A0      #001=ASA$CONSOLE File=ASA$CONSOLE.:E05TSI                          TUE 07/29/97 08:33 Page:32

  13854  4 000167   000000 236000 xsym               LDQ     AS_TRUE
         4 000170   400000 376003                    ANQ     -131072,DU
         4 000171   200003 756100                    STQ     CREATE,,AUTO

      192    13855    3         END; /*   If not create  */

      193    13856    2      END; /*   Whenaltreturn  */

      194    13857                                                              /* Check to see if
      195    13858                                                                 'FOR' was specified. */
      196    13859    1   IF P$NODE.SUBNODES > 2

  13859  4 000172   000000 470400 xsym               LDP0    NODE$
         4 000173   000001 220100                    LDX0    1,,PR0
         4 000174   000003 100003                    CMPX0   3,DU
         4 000175   000266 602000 4                  TNC     s:13914

      197    13860    1   THEN                                        /* Yes it was */
      198    13861    2   DO ;

      199    13862    2      BLK$ = P$NODE.SUBLK$(1) -> P$NODE.SUBLK$(0) ;

  13862  4 000176   000004 471500                    LDP1    4,,PR0
         4 000177   100003 236100                    LDQ     3,,PR1
         4 000200   200020 756100                    STQ     BLK$,,AUTO

      200    13863    2      IF OUT$SYM.COUNT > 8

  13863  4 000201   200020 473500                    LDP3    BLK$,,AUTO
         4 000202   300004 236100                    LDQ     4,,PR3
         4 000203   777000 376003                    ANQ     -512,DU
         4 000204   011000 116003                    CMPQ    4608,DU
         4 000205   000213 602000 4                  TNC     s:13883

      201    13864    2      THEN
      202    13865    3      DO ;
PL6.E3A0      #001=ASA$CONSOLE File=ASA$CONSOLE.:E05TSI                          TUE 07/29/97 08:33 Page:33

      203    13866              %SCREAM( ERR#=E$CNAMETOOBIG, MID='A', LEVEL=ERROR );

  13878  4 000206   000004 630400 5                  EPPR0   4
         4 000207   000017 631400 xsym               EPPR1   B_VECTNIL+15
         4 000210   000000 701000 xent               TSX1    ASH$ERROR
         4 000211   000000 011000                    NOP     0

      204    13881    3         RETURN ;

  13881  4 000212   000000 702200 xent               TSX2  ! X66_ARET

      205    13882    3         END ;        /* Then do */
      206    13883    2      SNAME = OUT$SYM.TEXT ;

  13883  4 000213   300004 236100                    LDQ     4,,PR3
         4 000214   000033 772000                    QRL     27
         4 000215   000000 621006                    EAX1    0,QL
         4 000216   040100 100540                    MLR     fill='040'O
         4 000217   300004 200011                    ADSC9   4,,PR3                   cn=1,n=*X1
         4 000220   200005 000010                    ADSC9   SNAME,,AUTO              cn=0,n=8

      207    13884    2      IF NOT CREATE  AND  KL$DREC.SNAME ~= SNAME

  13884  4 000221   200003 234100                    SZN     CREATE,,AUTO
         4 000222   000300 604000 4                  TMI     s:13918
         4 000223   202021 474500                    LDP4    DREC$,,AUTO
         4 000224   040100 106500                    CMPC    fill='040'O
         4 000225   400015 000010                    ADSC9   13,,PR4                  cn=0,n=8
         4 000226   200005 000010                    ADSC9   SNAME,,AUTO              cn=0,n=8
         4 000227   000300 600000 4                  TZE     s:13918

      208    13885    3      THEN DO;

      209    13886        /*E* ERROR:   ASA-E$CON_FOR_WRONG-C
      210    13887             MESSAGE: Warning:  Console %U1 was created for %U2, not %U3.
      211    13888        */
PL6.E3A0      #001=ASA$CONSOLE File=ASA$CONSOLE.:E05TSI                          TUE 07/29/97 08:33 Page:34
      212    13889    3         AS_FIELD1 = CON_NAME;

  13889  4 000230   000000 100500                    MLR     fill='000'O
         4 000231   202026 000011                    ADSC9   CON_NAME,,AUTO           cn=0,n=9
         4 000232   000000 000051 xsym               ADSC9   AS_FIELD1                cn=0,n=41

      213    13890    3         CALL INDEX( I, AS_BLANK, KL$DREC.SNAME );

  13890  4 000233   000000 124500                    SCM     mask='000'O
         4 000234   400015 000010                    ADSC9   13,,PR4                  cn=0,n=8
         4 000235   000000 000001 xsym               ADSC9   AS_BLANK                 cn=0,n=1
         4 000236   200015 000100                    ARG     I,,AUTO

      214    13891    3         AS_FIELD2.COUNT = I;

  13891  4 000237   200015 236100                    LDQ     I,,AUTO
         4 000240   000033 736000                    QLS     27
         4 000241   000000 552040 xsym               STBQ    AS_FIELD2,'40'O

      215    13892    3         AS_FIELD2.TEXT  = KL$DREC.SNAME ;

  13892  4 000242   040000 100500                    MLR     fill='040'O
         4 000243   400015 000010                    ADSC9   13,,PR4                  cn=0,n=8
         4 000244   000000 200050 xsym               ADSC9   AS_FIELD2                cn=1,n=40

      216    13893    3         AS_FIELD3.COUNT = OUT$SYM.COUNT ;

  13893  4 000245   300004 236100                    LDQ     4,,PR3
         4 000246   000000 552040 xsym               STBQ    AS_FIELD3,'40'O

      217    13894    3         AS_FIELD3.TEXT  = OUT$SYM.TEXT ;

  13894  4 000247   300004 236100                    LDQ     4,,PR3
         4 000250   000033 772000                    QRL     27
         4 000251   000000 620006                    EAX0    0,QL
         4 000252   040000 100540                    MLR     fill='040'O
         4 000253   300004 200010                    ADSC9   4,,PR3                   cn=1,n=*X0
PL6.E3A0      #001=ASA$CONSOLE File=ASA$CONSOLE.:E05TSI                          TUE 07/29/97 08:33 Page:35
         4 000254   000000 200050 xsym               ADSC9   AS_FIELD3                cn=1,n=40

      218    13895              %SCREAM( ERR#=E$CON_FOR_WRONG, MID='A', LEVEL=WARN );

  13905  4 000255   000010 630400 5                  EPPR0   8
         4 000256   000017 631400 xsym               EPPR1   B_VECTNIL+15
         4 000257   000000 701000 xent               TSX1    ASH$WARN
         4 000260   000000 011000                    NOP     0

      219    13910    3         SNAME = KL$DREC.SNAME;

  13910  4 000261   202021 470500                    LDP0    DREC$,,AUTO
         4 000262   040100 100500                    MLR     fill='040'O
         4 000263   000015 000010                    ADSC9   13,,PR0                  cn=0,n=8
         4 000264   200005 000010                    ADSC9   SNAME,,AUTO              cn=0,n=8

      220    13911    3         END;

      221    13912    2      END ; /* Then do */

  13912  4 000265   000300 710000 4                  TRA     s:13918

      222    13913    1   ELSE                                        /* No it wasn't */
      223    13914    1      IF CREATE

  13914  4 000266   200003 234100                    SZN     CREATE,,AUTO
         4 000267   000274 605000 4                  TPL     s:13916

      224    13915    1      THEN SNAME = 'LOCAL';

  13915  4 000270   040100 100400                    MLR     fill='040'O
         4 000271   000005 000005 3                  ADSC9   5                        cn=0,n=5
         4 000272   200005 000010                    ADSC9   SNAME,,AUTO              cn=0,n=8
         4 000273   000300 710000 4                  TRA     s:13918

      225    13916    1      ELSE SNAME = KL$DREC.SNAME ;

PL6.E3A0      #001=ASA$CONSOLE File=ASA$CONSOLE.:E05TSI                          TUE 07/29/97 08:33 Page:36
  13916  4 000274   202021 471500                    LDP1    DREC$,,AUTO
         4 000275   040100 100500                    MLR     fill='040'O
         4 000276   100015 000010                    ADSC9   13,,PR1                  cn=0,n=8
         4 000277   200005 000010                    ADSC9   SNAME,,AUTO              cn=0,n=8

      226    13917
      227    13918    1   IF SNAME = 'LOCAL'

  13918  4 000300   040000 106500                    CMPC    fill='040'O
         4 000301   200005 000010                    ADSC9   SNAME,,AUTO              cn=0,n=8
         4 000302   000005 000005 3                  ADSC9   5                        cn=0,n=5
         4 000303   000310 601000 4                  TNZ     s:13922

      228    13919    1   THEN
      229    13920    1      LOCAL = AS_TRUE ;

  13920  4 000304   000000 236000 xsym               LDQ     AS_TRUE
         4 000305   400000 376003                    ANQ     -131072,DU
         4 000306   200017 756100                    STQ     LOCAL,,AUTO
         4 000307   000313 710000 4                  TRA     s:13923

      230    13921    1   ELSE
      231    13922    1      LOCAL = AS_FALSE ;

  13922  4 000310   000000 236000 xsym               LDQ     AS_FALSE
         4 000311   400000 376003                    ANQ     -131072,DU
         4 000312   200017 756100                    STQ     LOCAL,,AUTO

      232    13923    1   CALL CONCAT( USERS_KEY.TXTC, SNAME, 'STATION' );

  13923  4 000313   040000 100500                    MLR     fill='040'O
         4 000314   200005 000010                    ADSC9   SNAME,,AUTO              cn=0,n=8
         4 000315   000000 200010 xsym               ADSC9   USERS_KEY                cn=1,n=8
         4 000316   040000 100400                    MLR     fill='040'O
         4 000317   000007 000007 3                  ADSC9   7                        cn=0,n=7
         4 000320   000002 200041 xsym               ADSC9   USERS_KEY+2              cn=1,n=33

PL6.E3A0      #001=ASA$CONSOLE File=ASA$CONSOLE.:E05TSI                          TUE 07/29/97 08:33 Page:37
      233    13924    1   USERS_KEY.COUNT = 15;

  13924  4 000321   017000 236003                    LDQ     7680,DU
         4 000322   000000 552040 xsym               STBQ    USERS_KEY,'40'O

      234    13925                                                              /* Pick up terminal record */
      235    13926    1   TREC$ = DSEG1$ ;

  13926  4 000323   000000 236000 xsym               LDQ     DSEG1$
         4 000324   202022 756100                    STQ     TREC$,,AUTO

      236    13927    1   ARS = DSEG1SIZE ;

  13927  4 000325   000000 235000 xsym               LDA     DSEG1SIZE
         4 000326   200014 755100                    STA     ARS,,AUTO

      237    13928    1   CALL ASB$READ_HLP( TREC$, ARS )

  13928  4 000327   200014 630500                    EPPR0   ARS,,AUTO
         4 000330   202033 450500                    STP0    CON_NAME+5,,AUTO
         4 000331   202022 631500                    EPPR1   TREC$,,AUTO
         4 000332   202032 451500                    STP1    CON_NAME+4,,AUTO
         4 000333   202032 630500                    EPPR0   CON_NAME+4,,AUTO
         4 000334   000020 631400 xsym               EPPR1   B_VECTNIL+16
         4 000335   000000 701000 xent               TSX1    ASB$READ_HLP
         4 000336   000340 702000 4                  TSX2    s:13934
         4 000337   000365 710000 4                  TRA     s:13958

      238    13929    2   WHENALTRETURN DO;

      239    13930           /*E*  ERROR:    ASA-E$TERMINAL_NOEXIST-C
      240    13931                 MESSAGE:  %%U1 %does not exist.
      241    13932                 MESSAGE1: TERMINAL %%U1 %does not exist.
      242    13933           */
      243    13934    2      CALL INDEX( J, ' ', USERS_KEY.TXTC );

  13934  4 000340   000000 124400                    SCM     mask='000'O
PL6.E3A0      #001=ASA$CONSOLE File=ASA$CONSOLE.:E05TSI                          TUE 07/29/97 08:33 Page:38
         4 000341   000000 200051 xsym               ADSC9   USERS_KEY                cn=1,n=41
         4 000342   000035 000001 xsym               ADSC9   B_VECTNIL+29             cn=0,n=1
         4 000343   200016 000100                    ARG     J,,AUTO

      244    13935    2      IF J <= 8

  13935  4 000344   200016 235100                    LDA     J,,AUTO
         4 000345   000011 115007                    CMPA    9,DL
         4 000346   000353 603000 4                  TRC     s:13937

      245    13936    2      THEN AS_FIELD1.COUNT = J;

  13936  4 000347   200016 236100                    LDQ     J,,AUTO
         4 000350   000033 736000                    QLS     27
         4 000351   000000 552040 xsym               STBQ    AS_FIELD1,'40'O
         4 000352   000355 710000 4                  TRA     s:13938

      246    13937    2      ELSE AS_FIELD1.COUNT = 8;

  13937  4 000353   010000 236003                    LDQ     4096,DU
         4 000354   000000 552040 xsym               STBQ    AS_FIELD1,'40'O

      247    13938    2      AS_FIELD1.TEXT = USERS_KEY.TXTC;

  13938  4 000355   040000 100400                    MLR     fill='040'O
         4 000356   000000 200050 xsym               ADSC9   USERS_KEY                cn=1,n=40
         4 000357   000000 200050 xsym               ADSC9   AS_FIELD1                cn=1,n=40

      248    13939           %SCREAM( ERR#=E$TERMINAL_NOEXIST, LEVEL=ERROR, MID='A' );

  13951  4 000360   000011 630400 5                  EPPR0   9
         4 000361   000017 631400 xsym               EPPR1   B_VECTNIL+15
         4 000362   000000 701000 xent               TSX1    ASH$ERROR
         4 000363   000000 011000                    NOP     0

      249    13954    2      RETURN ;

PL6.E3A0      #001=ASA$CONSOLE File=ASA$CONSOLE.:E05TSI                          TUE 07/29/97 08:33 Page:39
  13954  4 000364   000000 702200 xent               TSX2  ! X66_ARET

      250    13955    2      END; /*  Whenaltreturn  */
      251    13956                                                                 /**/
      252    13957                                                              /* Get twsn number */
      253    13958    1   TWSNC = KL$TREC.TWSN# ;

  13958  4 000365   202022 470500                    LDP0    TREC$,,AUTO
         4 000366   000001 236100                    LDQ     1,,PR0
         4 000367   200007 756100                    STQ     TWSNC,,AUTO

      254    13959    1   CALL CHARBIN( TWSN#, TWSNC ) ;

  13959  4 000370   000100 305500                    DTB
         4 000371   200007 030004                    NDSC9   TWSNC,,AUTO              cn=0,s=nosgn,sf=0,n=4
         4 000372   202032 000010                    NDSC9   CON_NAME+4,,AUTO         cn=0,s=lsgnf,sf=0,n=8
         4 000373   202033 235100                    LDA     CON_NAME+5,,AUTO
         4 000374   200010 755100                    STA     TWSN#,,AUTO

      255    13960                                                              /* Pick up twsn record */
      256    13961    1   CALL CONCAT( USERS_KEY.TXTC, 'TWSN', TWSNC ) ;

  13961  4 000375   040000 100400                    MLR     fill='040'O
         4 000376   000012 000004 3                  ADSC9   10                       cn=0,n=4
         4 000377   000000 200004 xsym               ADSC9   USERS_KEY                cn=1,n=4
         4 000400   040000 100500                    MLR     fill='040'O
         4 000401   200007 000004                    ADSC9   TWSNC,,AUTO              cn=0,n=4
         4 000402   000001 200045 xsym               ADSC9   USERS_KEY+1              cn=1,n=37

      257    13962    1   USERS_KEY.COUNT = 8 ;

  13962  4 000403   010000 236003                    LDQ     4096,DU
         4 000404   000000 552040 xsym               STBQ    USERS_KEY,'40'O

      258    13963    1   TWSNR$ = DSEG2$ ;

  13963  4 000405   000000 236000 xsym               LDQ     DSEG2$
PL6.E3A0      #001=ASA$CONSOLE File=ASA$CONSOLE.:E05TSI                          TUE 07/29/97 08:33 Page:40
         4 000406   202025 756100                    STQ     TWSNR$,,AUTO

      259    13964    1   TWSN_ARS = DSEG2SIZE ;

  13964  4 000407   000000 235000 xsym               LDA     DSEG2SIZE
         4 000410   200013 755100                    STA     TWSN_ARS,,AUTO

      260    13965    1   CALL ASB$ENQ_HLP ALTRET( ENQ_ERR2 ) ;

  13965  4 000411   000002 631400 xsym               EPPR1   B_VECTNIL+2
         4 000412   000000 701000 xent               TSX1    ASB$ENQ_HLP
         4 000413   000610 702000 4                  TSX2    ENQ_ERR2

      261    13966    1   CALL ASB$READ_HLP( TWSNR$, TWSN_ARS )

  13966  4 000414   200013 630500                    EPPR0   TWSN_ARS,,AUTO
         4 000415   202033 450500                    STP0    CON_NAME+5,,AUTO
         4 000416   202025 631500                    EPPR1   TWSNR$,,AUTO
         4 000417   202032 451500                    STP1    CON_NAME+4,,AUTO
         4 000420   202032 630500                    EPPR0   CON_NAME+4,,AUTO
         4 000421   000020 631400 xsym               EPPR1   B_VECTNIL+16
         4 000422   000000 701000 xent               TSX1    ASB$READ_HLP
         4 000423   000425 702000 4                  TSX2    s:13968
         4 000424   000435 710000 4                  TRA     s:13988

      262    13967    2   WHENALTRETURN DO;

      263    13968    2      AS_FIELD1 = USERS_KEY ;

  13968  4 000425   000000 100400                    MLR     fill='000'O
         4 000426   000000 000051 xsym               ADSC9   USERS_KEY                cn=0,n=41
         4 000427   000000 000051 xsym               ADSC9   AS_FIELD1                cn=0,n=41

      264    13969           %SCREAM( ERR#=E$TWSN_NO_EXIST, LEVEL=ERROR, MID='A' ) ;

  13981  4 000430   000012 630400 5                  EPPR0   10
         4 000431   000017 631400 xsym               EPPR1   B_VECTNIL+15
PL6.E3A0      #001=ASA$CONSOLE File=ASA$CONSOLE.:E05TSI                          TUE 07/29/97 08:33 Page:41
         4 000432   000000 701000 xent               TSX1    ASH$ERROR
         4 000433   000000 011000                    NOP     0

      265    13984    2      RETURN ;

  13984  4 000434   000000 702200 xent               TSX2  ! X66_ARET

      266    13985    2      END; /*  Whenaltreturn  */
      267    13986                                                              /**/
      268    13987                                                       /* Get index in twsn record */
      269    13988    1   IF CREATE THEN

  13988  4 000435   200003 234100                    SZN     CREATE,,AUTO
         4 000436   000443 605000 4                  TPL     s:13991

      270    13989    1      TWSN_INDEX = KL$TWSNREC.NDEV ;

  13989  4 000437   202025 470500                    LDP0    TWSNR$,,AUTO
         4 000440   000004 235100                    LDA     4,,PR0
         4 000441   200011 755100                    STA     TWSN_INDEX,,AUTO
         4 000442   000463 710000 4                  TRA     s:13994

      271    13990    1   ELSE
      272    13991    1     CALL ASB$FIND_TWSN_INDEX(TREC$,DREC$,TWSNR$,AS_FALSE,CON_KEY.TXT.ACCT,TWSN_INDEX)
             13991               ALTRET(EXIT#);

  13991  4 000443   200011 630500                    EPPR0   TWSN_INDEX,,AUTO
         4 000444   202037 450500                    STP0    CON_NAME+9,,AUTO
         4 000445   000013 236000 5                  LDQ     11
         4 000446   202036 756100                    STQ     CON_NAME+8,,AUTO
         4 000447   000014 236000 5                  LDQ     12
         4 000450   202035 756100                    STQ     CON_NAME+7,,AUTO
         4 000451   202025 631500                    EPPR1   TWSNR$,,AUTO
         4 000452   202034 451500                    STP1    CON_NAME+6,,AUTO
         4 000453   202021 633500                    EPPR3   DREC$,,AUTO
         4 000454   202033 453500                    STP3    CON_NAME+5,,AUTO
         4 000455   202022 634500                    EPPR4   TREC$,,AUTO
PL6.E3A0      #001=ASA$CONSOLE File=ASA$CONSOLE.:E05TSI                          TUE 07/29/97 08:33 Page:42
         4 000456   202032 454500                    STP4    CON_NAME+4,,AUTO
         4 000457   202032 630500                    EPPR0   CON_NAME+4,,AUTO
         4 000460   000024 631400 xsym               EPPR1   B_VECTNIL+20
         4 000461   000000 701000 xent               TSX1    ASB$FIND_TWSN_INDEX
         4 000462   000607 702000 4                  TSX2    EXIT#

      273    13992                                                              /* Do options */
      274    13993                                                                   /**/
      275    13994    1   CALL ASA$CON_OPTS(DREC$,TWSNR$,TWSNC,CREATE,'0'B,'    ',LOCAL,TWSN_INDEX);

  13994  4 000463   200011 630500                    EPPR0   TWSN_INDEX,,AUTO
         4 000464   202041 450500                    STP0    CON_NAME+11,,AUTO
         4 000465   200017 631500                    EPPR1   LOCAL,,AUTO
         4 000466   202040 451500                    STP1    CON_NAME+10,,AUTO
         4 000467   000016 237000 5                  LDAQ    14
         4 000470   202036 757100                    STAQ    CON_NAME+8,,AUTO
         4 000471   200003 633500                    EPPR3   CREATE,,AUTO
         4 000472   202035 453500                    STP3    CON_NAME+7,,AUTO
         4 000473   200007 634500                    EPPR4   TWSNC,,AUTO
         4 000474   202034 454500                    STP4    CON_NAME+6,,AUTO
         4 000475   202025 635500                    EPPR5   TWSNR$,,AUTO
         4 000476   202033 455500                    STP5    CON_NAME+5,,AUTO
         4 000477   202021 636500                    EPPR6   DREC$,,AUTO
         4 000500   202032 456500                    STP6    CON_NAME+4,,AUTO
         4 000501   202032 630500                    EPPR0   CON_NAME+4,,AUTO
         4 000502   000026 631400 xsym               EPPR1   B_VECTNIL+22
         4 000503   000000 701000 xent               TSX1    ASA$CON_OPTS
         4 000504   000000 011000                    NOP     0

      276    13995                                                              /* Write twsn record */
      277    13996    2   IF CREATE THEN DO ;

  13996  4 000505   200003 234100                    SZN     CREATE,,AUTO
         4 000506   000516 605000 4                  TPL     s:14000

      278    13997    2      KL$TWSNREC.NDEV = TWSN_INDEX + 1 ;

PL6.E3A0      #001=ASA$CONSOLE File=ASA$CONSOLE.:E05TSI                          TUE 07/29/97 08:33 Page:43
  13997  4 000507   202025 470500                    LDP0    TWSNR$,,AUTO
         4 000510   200011 235100                    LDA     TWSN_INDEX,,AUTO
         4 000511   000001 035007                    ADLA    1,DL
         4 000512   000004 755100                    STA     4,,PR0

      279    13998    2      TWSN_ARS = TWSN_ARS + LENGTHC( KL$TWSNREC.DEVS(0) ) ;

  13998  4 000513   200013 235100                    LDA     TWSN_ARS,,AUTO
         4 000514   000054 035007                    ADLA    44,DL
         4 000515   200013 755100                    STA     TWSN_ARS,,AUTO

      280    13999    2      END ;

      281    14000    1   KL$TWSNREC.DEVS.ACCT(TWSN_INDEX) = CON_KEY.TXT.ACCT ;

  14000  4 000516   200011 236100                    LDQ     TWSN_INDEX,,AUTO
         4 000517   000013 402007                    MPY     11,DL
         4 000520   000002 736000                    QLS     2
         4 000521   202025 470500                    LDP0    TWSNR$,,AUTO
         4 000522   040106 100400                    MLR     fill='040'O
         4 000523   000000 200010 2                  ADSC9   CON_KEY                  cn=1,n=8
         4 000524   000011 000010                    ADSC9   9,Q,PR0                  cn=0,n=8

      282    14001    1   CALL CONCAT( USERS_KEY.TXTC, 'TWSN', TWSNC ) ;

  14001  4 000525   040000 100400                    MLR     fill='040'O
         4 000526   000012 000004 3                  ADSC9   10                       cn=0,n=4
         4 000527   000000 200004 xsym               ADSC9   USERS_KEY                cn=1,n=4
         4 000530   040000 100500                    MLR     fill='040'O
         4 000531   200007 000004                    ADSC9   TWSNC,,AUTO              cn=0,n=4
         4 000532   000001 200045 xsym               ADSC9   USERS_KEY+1              cn=1,n=37

      283    14002    1   USERS_KEY.COUNT = 8 ;

  14002  4 000533   010000 236003                    LDQ     4096,DU
         4 000534   000000 552040 xsym               STBQ    USERS_KEY,'40'O

PL6.E3A0      #001=ASA$CONSOLE File=ASA$CONSOLE.:E05TSI                          TUE 07/29/97 08:33 Page:44
      284    14003    1   CALL ASB$WRITE_HLP( TWSNR$, TWSN_ARS ) ALTRET( WRITE_TWSNR_ERR ) ;

  14003  4 000535   200013 630500                    EPPR0   TWSN_ARS,,AUTO
         4 000536   202033 450500                    STP0    CON_NAME+5,,AUTO
         4 000537   202025 631500                    EPPR1   TWSNR$,,AUTO
         4 000540   202032 451500                    STP1    CON_NAME+4,,AUTO
         4 000541   202032 630500                    EPPR0   CON_NAME+4,,AUTO
         4 000542   000020 631400 xsym               EPPR1   B_VECTNIL+16
         4 000543   000000 701000 xent               TSX1    ASB$WRITE_HLP
         4 000544   000611 702000 4                  TSX2    WRITE_TWSNR_ERR

      285    14004                                                              /* Write out console rec */
      286    14005                                                                   /**/
      287    14006    1   IF CREATE THEN KL$DREC.SNAME = SNAME;

  14006  4 000545   200003 234100                    SZN     CREATE,,AUTO
         4 000546   000553 605000 4                  TPL     s:14007

  14006  4 000547   202021 470500                    LDP0    DREC$,,AUTO
         4 000550   040100 100500                    MLR     fill='040'O
         4 000551   200005 000010                    ADSC9   SNAME,,AUTO              cn=0,n=8
         4 000552   000015 000010                    ADSC9   13,,PR0                  cn=0,n=8

      288    14007    1   USERS_KEY = CON_KEY ;

  14007  4 000553   000000 100400                    MLR     fill='000'O
         4 000554   000000 000012 2                  ADSC9   CON_KEY                  cn=0,n=10
         4 000555   000000 000052 xsym               ADSC9   USERS_KEY                cn=0,n=42

      289    14008    1   CON_ARS = LENGTHC(KL_DREC_CNT) + (KL$DREC.NWINFO*4) ;

  14008  4 000556   202021 470500                    LDP0    DREC$,,AUTO
         4 000557   000017 235100                    LDA     15,,PR0
         4 000560   000002 735000                    ALS     2
         4 000561   000100 035007                    ADLA    64,DL
         4 000562   200012 755100                    STA     CON_ARS,,AUTO

PL6.E3A0      #001=ASA$CONSOLE File=ASA$CONSOLE.:E05TSI                          TUE 07/29/97 08:33 Page:45
      290    14009    1   CALL ASB$ENQ_HLP ALTRET( ENQ_ERR2 ) ;

  14009  4 000563   000002 631400 xsym               EPPR1   B_VECTNIL+2
         4 000564   000000 701000 xent               TSX1    ASB$ENQ_HLP
         4 000565   000610 702000 4                  TSX2    ENQ_ERR2

      291    14010    1   CALL ASB$WRITE_HLP( DREC$, CON_ARS )  ALTRET( WRITE_TWSNR_ERR ) ;

  14010  4 000566   200012 630500                    EPPR0   CON_ARS,,AUTO
         4 000567   202033 450500                    STP0    CON_NAME+5,,AUTO
         4 000570   202021 631500                    EPPR1   DREC$,,AUTO
         4 000571   202032 451500                    STP1    CON_NAME+4,,AUTO
         4 000572   202032 630500                    EPPR0   CON_NAME+4,,AUTO
         4 000573   000020 631400 xsym               EPPR1   B_VECTNIL+16
         4 000574   000000 701000 xent               TSX1    ASB$WRITE_HLP
         4 000575   000611 702000 4                  TSX2    WRITE_TWSNR_ERR

      292    14011    1   CALL ASB$DEQ_HLP ALTRET( DEQ_ERR2 ) ;

  14011  4 000576   000002 631400 xsym               EPPR1   B_VECTNIL+2
         4 000577   000000 701000 xent               TSX1    ASB$DEQ_HLP
         4 000600   000610 702000 4                  TSX2    ENQ_ERR2

      293    14012                                                              /**/
      294    14013    1   IF CREATE THEN

  14013  4 000601   200003 234100                    SZN     CREATE,,AUTO
         4 000602   000607 605000 4                  TPL     EXIT#

      295    14014    1      CALL ASB$WRITE_LO( AS_CREATED_TEXT, LENGTHC(AS_CREATED_TEXT) ) ;

  14014  4 000603   000021 630400 5                  EPPR0   17
         4 000604   000020 631400 xsym               EPPR1   B_VECTNIL+16
         4 000605   000000 701000 xent               TSX1    ASB$WRITE_LO
         4 000606   000000 011000                    NOP     0

      296    14015
PL6.E3A0      #001=ASA$CONSOLE File=ASA$CONSOLE.:E05TSI                          TUE 07/29/97 08:33 Page:46
      297    14016    1   EXIT#: RETURN ;

  14016  4 000607   000000 702200 xent  EXIT#        TSX2  ! X66_ARET

  14013  4 000610                       ENQ_ERR2     null
  14013  4 000610                       DEQ_ERR2     null
      298    14017                                                              /* Errors */
      299    14018                                                              /**/
      300    14019    1   ENQ_ERR2: ;
      301    14020
      302    14021    1   DEQ_ERR2: ;
      303    14022                                                              /**/
      304    14023    1   RETURN ;

  14023  4 000610   000000 702200 xent               TSX2  ! X66_ARET

  14013  4 000611                       WRITE_TWSNR* null
      305    14024                                                              /**/
      306    14025                                                              /**/
      307    14026    1   WRITE_TWSNR_ERR: ;
      308    14027    1   CALL ASH$ERROR( ERR_CODE ) ;

  14027  4 000611   000023 630400 5                  EPPR0   19
         4 000612   000017 631400 xsym               EPPR1   B_VECTNIL+15
         4 000613   000000 701000 xent               TSX1    ASH$ERROR
         4 000614   000000 011000                    NOP     0

      309    14028    1   RETURN ;

  14028  4 000615   000000 702200 xent               TSX2  ! X66_ARET
      310    14029                                                              /**/
      311    14030                                                              /**/
      312    14031    1   END   ASA$CONSOLE ;
      313    14032        %EOD;

PL6.E3A0      #001=ASA$CONSOLE File=ASA$CONSOLE.:E05TSI                          TUE 07/29/97 08:33 Page:47
--  Include file information  --

   QQ_SUPER_C.:E05TOU  is referenced.
   OC$INFO.:E05TOU  is referenced.
   KC$CGBLK.:E05TOU  is referenced.
   CP_6.:E05TOU  cannot be made into a system file and is referenced.
   B_MACROS_C.:E05TOU  is referenced.
   AS_SUPER_R.:E05TOU  cannot be made into a system file and is referenced.
   AS_MAC_C.:E05TOU  cannot be made into a system file and is referenced.
   AS_SUPER_C.:E05TOU  is referenced.
   KL_SUPER_C.:E05TOU  is referenced.
   XU_MACRO_C.:E05TOU  is referenced.
   XU_FORMAT_C.:E05TOU  is referenced.
   AS_SUBS_C.:E05TOU  is referenced.
   AS_SSUBS_C.:E05TOU  is referenced.
   AS_PERR_C.:E05TOU  is referenced.
   AS_ENTRIES_M.:E05TOU  is referenced.
   B$JIT_C.:E05TOU  was found in the system file and is never referenced.
   CP_6_C.:E05TOU  was found in the system file and is referenced.
      No diagnostics issued in procedure ASA$CONSOLE.
PL6.E3A0      #001=ASA$CONSOLE File=ASA$CONSOLE.:E05TSI                          TUE 07/29/97 08:33 Page:48

 **** Variables and constants ****

  ****  Section 002  Data  ASA$CONSOLE

  ****  Scalars and arrays  ****
OctLoc.c.b A Datatyp(siz) R M Lvl/name                 OctLoc.c.b A Datatyp(siz) R M Lvl/name

     0-0-0/w STRC(90)    r     1 CON_KEY

  ****  Auto variables  ****

  ****  Scalars and arrays  ****
OctLoc.c.b A Datatyp(siz) R M Lvl/name                 OctLoc.c.b A Datatyp(siz) R M Lvl/name

    14-0-0/w UBIN        r     1 ARS                       20-0-0/w PTR         r     1 BLK$
    12-0-0/w UBIN        r     1 CON_ARS                 2026-0-0/c STRC(81)    r     1 CON_NAME
     3-0-0/b BIT         r     1 CREATE                  2021-0-0/w PTR         r     1 DREC$
    15-0-0/w UBIN        r     1 I                         16-0-0/w UBIN        r     1 J
    21-0-0/c CHAR(4096)  r     1 KLDREC                    17-0-0/b BIT         r     1 LOCAL
     5-0-0/c CHAR(8)     r     1 SNAME                   2022-0-0/w PTR         r     1 TREC$
    10-0-0/w UBIN        r     1 TWSN#                      7-0-0/c CHAR(4)     r     1 TWSNC
  2025-0-0/w PTR         r     1 TWSNR$                    13-0-0/w UBIN        r     1 TWSN_ARS
    11-0-0/w UBIN        r     1 TWSN_INDEX

  ****  SYMREF variables  ****

  ****  Scalars and arrays  ****
OctLoc.c.b A Datatyp(siz) R M Lvl/name                 OctLoc.c.b A Datatyp(siz) R M Lvl/name

     0-0-0/c CHAR        r     1 AS_BLANK                   0-0-0/c CHAR(20)    r     1 AS_CREATED_TEXT
     0-0-0/b BIT         r     1 AS_FALSE                   0-0-0/w STRC(369)   r     1 AS_FIELD1
     0-0-0/w STRC(369)   r     1 AS_FIELD2                  0-0-0/w STRC(369)   r     1 AS_FIELD3
     0-0-0/b BIT         r     1 AS_TRUE                    0-0-0/w UBIN        r     1 CONSOLE_CMD
     0-0-0/w PTR         r     1 DSEG1$                     0-0-0/w UBIN        r     1 DSEG1SIZE
     0-0-0/w PTR         r     1 DSEG2$                     0-0-0/w UBIN        r     1 DSEG2SIZE
     0-0-0/b BIT         r     1 DSEG_FLG                   0-0-0/b STRC        r     1 ERR_CODE
     0-0-0/w STRC(576)   r     1 KL_DREC_CNT                0-0-0/w PTR         r     1 NODE$
PL6.E3A0      #001=ASA$CONSOLE File=ASA$CONSOLE.:E05TSI                          TUE 07/29/97 08:33 Page:49
     0-0-0/w STRC(504)   r     1 P_PCB                      0-0-0/c STRC(378)   r     1 USERS_KEY

  ****  BASED and DCB variables  ****

  ****  Scalars and arrays  ****
OctLoc.c.b A Datatyp(siz) R M Lvl/name                 OctLoc.c.b A Datatyp(siz) R M Lvl/name

     0-0-0/w STRC(2016)  r     1 KL$DREC                    0-0-0/w STRC(576)   r     1 KL$TREC
     0-0-0/w STRC(576)   r     1 KL$TWSNREC                 0-0-0/w ASTR(153)   r     1 OUT$SYM
     0-0-0/w STRC(144)   r     1 P$NODE


   Procedure ASA$CONSOLE requires 398 words for executable code.
   Procedure ASA$CONSOLE requires 1058 words of local(AUTO) storage.
PL6.E3A0      #001=ASA$CONSOLE File=ASA$CONSOLE.:E05TSI                          TUE 07/29/97 08:33 Page:50
          *** CROSS REFERENCE LISTING ***
**     DENOTES     IDENTIFIER DEFINITION
<<                 IDENTIFIER'S VALUE SET
>>                 IDENTIFIER'S VALUE USED
<>                 IDENTIFIER SET AND/OR USED
--                 IDENTIFIER REFERENCED
PL6.E3A0      #001=ASA$CONSOLE File=ASA$CONSOLE.:E05TSI                          TUE 07/29/97 08:33 Page:51
          MINI XREF LISTING

ARS
     13249**DCL     13803<<ASSIGN  13805<>CALL    13807<>CALL    13831>>ASSIGN  13927<<ASSIGN  13928<>CALL
ASA$CON_OPTS
     13286**DCL-ENT 13994--CALL
ASA_BRKS_LOC
     10033**DCL     10033--REDEF
ASB$CHECK_TYPE
     13316**DCL-ENT 13807--CALL
ASB$DEQ_HLP
     13292**DCL-ENT 14011--CALL
ASB$ENQ_HLP
     13289**DCL-ENT 13804--CALL    13965--CALL    14009--CALL
ASB$FIND_TWSN_INDEX
     13304**DCL-ENT 13991--CALL
ASB$GETSEG
     13301**DCL-ENT 13751--CALL
ASB$READ_HLP
     13295**DCL-ENT 13805--CALL    13928--CALL    13966--CALL
ASB$WRITE_HLP
     13298**DCL-ENT 14003--CALL    14010--CALL
ASB$WRITE_LO
     13313**DCL-ENT 14014--CALL
ASH$ERROR
     13307**DCL-ENT 13737--CALL    13767--CALL    13792--CALL    13826--CALL    13878--CALL    13951--CALL
     13981--CALL    14027--CALL
ASH$WARN
     13310**DCL-ENT 13849--CALL    13905--CALL
AS_BLANK
      9893**DCL     13890>>CALLBLT
AS_CREATED_TEXT
      9907**DCL     14014<>CALL    14014--CALL
AS_DEFAULT.BANNER_PERM
PL6.E3A0      #001=ASA$CONSOLE File=ASA$CONSOLE.:E05TSI                          TUE 07/29/97 08:33 Page:52
     10726**DCL     10727--REDEF
AS_DEFAULT.BUDGET.MACCT
     10631**DCL     10635--REDEF
AS_DEFAULT.BUDGET.MAX_PROJECTS
     10644**DCL     10647--REDEF
AS_DEFAULT.BUDGET.PACCUM
     10627**DCL     10629--REDEF
AS_DEFAULT.BUDGET.PMAXC
     10622**DCL     10624--REDEF
AS_DEFAULT.SETUP_CHRA.TXT
     10742**DCL     10743--REDEF   10744--REDEF
AS_DEFAULT_DREC.PASSWORD
     11996**DCL     12000--REDEF
AS_DEFAULT_DREC.RENAME
     12019**DCL     12020--REDEF
AS_DFLT.BANNER_PERM
     10548**DCL     10549--REDEF
AS_DFLT.BUDGET.MACCT
     10453**DCL     10457--REDEF
AS_DFLT.BUDGET.MAX_PROJECTS
     10466**DCL     10469--REDEF
AS_DFLT.BUDGET.PACCUM
     10449**DCL     10451--REDEF
AS_DFLT.BUDGET.PMAXC
     10444**DCL     10446--REDEF
AS_DFLT.SETUP_CHRA.TXT
     10564**DCL     10565--REDEF   10566--REDEF
AS_FALSE
      9893**DCL     13747>>ASSIGN  13922>>ASSIGN  13991<>CALL
AS_FE_MODE
      9899**DCL      9900--REDEF
AS_FIELD1
     10029**DCL     13813<<ASSIGN  13889<<ASSIGN  13968<<ASSIGN
AS_FIELD1.COUNT
     10030**DCL     13936<<ASSIGN  13937<<ASSIGN
AS_FIELD1.TEXT
PL6.E3A0      #001=ASA$CONSOLE File=ASA$CONSOLE.:E05TSI                          TUE 07/29/97 08:33 Page:53
     10030**DCL     13938<<ASSIGN
AS_FIELD2.COUNT
     10030**DCL     13891<<ASSIGN
AS_FIELD2.TEXT
     10030**DCL     13892<<ASSIGN
AS_FIELD3.COUNT
     10031**DCL     13893<<ASSIGN
AS_FIELD3.TEXT
     10031**DCL     13894<<ASSIGN
AS_MODE
      9896**DCL      9898--REDEF
AS_MOD_USER.ACCESS
     12761**DCL     12762--REDEF
AS_MOD_USER.BANNER
     12748**DCL     12749--REDEF
AS_MOD_USER.BANNER_PERM
     12750**DCL     12751--REDEF
AS_MOD_USER.BILL
     12756**DCL     12757--REDEF
AS_MOD_USER.CPROC
     12752**DCL     12753--REDEF
AS_MOD_USER.FEBILL
     12832**DCL     12833--REDEF
AS_MOD_USER.FECXTMEM
     12849**DCL     12850--REDEF
AS_MOD_USER.FEMINTS
     12834**DCL     12835--REDEF
AS_MOD_USER.FEMMEM
     12845**DCL     12846--REDEF
AS_MOD_USER.FEMTIME
     12843**DCL     12844--REDEF
AS_MOD_USER.FEPPRIV
     12840**DCL     12842--REDEF
AS_MOD_USER.FEPRIV
     12837**DCL     12839--REDEF
AS_MOD_USER.FORCE_BIT
PL6.E3A0      #001=ASA$CONSOLE File=ASA$CONSOLE.:E05TSI                          TUE 07/29/97 08:33 Page:54
     12746**DCL     12747--REDEF
AS_MOD_USER.KEY
     12828**DCL     12830--REDEF
AS_MOD_USER.LASTCPROC
     12754**DCL     12755--REDEF
AS_MOD_USER.LIMITS.DO_
     12802**DCL     12803--REDEF
AS_MOD_USER.LIMITS.FPOOLS
     12818**DCL     12819--REDEF
AS_MOD_USER.LIMITS.LO
     12798**DCL     12799--REDEF
AS_MOD_USER.LIMITS.MEM
     12794**DCL     12795--REDEF
AS_MOD_USER.LIMITS.MPRIO
     12822**DCL     12823--REDEF
AS_MOD_USER.LIMITS.PDIS
     12810**DCL     12811--REDEF
AS_MOD_USER.LIMITS.PO
     12806**DCL     12807--REDEF
AS_MOD_USER.LIMITS.TDIS
     12814**DCL     12815--REDEF
AS_MOD_USER.LIMITS.TIME
     12790**DCL     12791--REDEF
AS_MOD_USER.MAXENQ
     12771**DCL     12772--REDEF
AS_MOD_USER.PERM_BIT
     12744**DCL     12745--REDEF
AS_MOD_USER.PPRIV
     12766**DCL     12768--REDEF
AS_MOD_USER.PRIOB
     12773**DCL     12774--REDEF
AS_MOD_USER.PRIV
     12763**DCL     12765--REDEF
AS_MOD_USER.QUAN
     12769**DCL     12770--REDEF
AS_MOD_USER.SETUP
PL6.E3A0      #001=ASA$CONSOLE File=ASA$CONSOLE.:E05TSI                          TUE 07/29/97 08:33 Page:55
     12742**DCL     12743--REDEF
AS_PROJECT.BANNER_PERM
     11082**DCL     11083--REDEF
AS_PROJECT.BUDGET.MACCT
     10987**DCL     10991--REDEF
AS_PROJECT.BUDGET.MAX_PROJECTS
     11000**DCL     11003--REDEF
AS_PROJECT.BUDGET.PACCUM
     10983**DCL     10985--REDEF
AS_PROJECT.BUDGET.PMAXC
     10978**DCL     10980--REDEF
AS_PROJECT.SETUP_CHRA.TXT
     11098**DCL     11099--REDEF   11100--REDEF
AS_PROJECT_DFLT.BANNER_PERM
     11260**DCL     11261--REDEF
AS_PROJECT_DFLT.BUDGET.MACCT
     11165**DCL     11169--REDEF
AS_PROJECT_DFLT.BUDGET.MAX_PROJECTS
     11178**DCL     11181--REDEF
AS_PROJECT_DFLT.BUDGET.PACCUM
     11161**DCL     11163--REDEF
AS_PROJECT_DFLT.BUDGET.PMAXC
     11156**DCL     11158--REDEF
AS_PROJECT_DFLT.SETUP_CHRA.TXT
     11276**DCL     11277--REDEF   11278--REDEF
AS_PROJECT_DFLT_DREC.PASSWORD
     12482**DCL     12486--REDEF
AS_PROJECT_DFLT_DREC.RENAME
     12505**DCL     12506--REDEF
AS_PROJECT_DREC.PASSWORD
     12320**DCL     12324--REDEF
AS_PROJECT_DREC.RENAME
     12343**DCL     12344--REDEF
AS_PROJ_ADMIN.BANNER_PERM
     10904**DCL     10905--REDEF
AS_PROJ_ADMIN.BUDGET.MACCT
PL6.E3A0      #001=ASA$CONSOLE File=ASA$CONSOLE.:E05TSI                          TUE 07/29/97 08:33 Page:56
     10809**DCL     10813--REDEF
AS_PROJ_ADMIN.BUDGET.MAX_PROJECTS
     10822**DCL     10825--REDEF
AS_PROJ_ADMIN.BUDGET.PACCUM
     10805**DCL     10807--REDEF
AS_PROJ_ADMIN.BUDGET.PMAXC
     10800**DCL     10802--REDEF
AS_PROJ_ADMIN.SETUP_CHRA.TXT
     10920**DCL     10921--REDEF   10922--REDEF
AS_PROJ_ADMIN_DREC.PASSWORD
     12158**DCL     12162--REDEF
AS_PROJ_ADMIN_DREC.RENAME
     12181**DCL     12182--REDEF
AS_TRUE
      9893**DCL     13745>>ASSIGN  13854>>ASSIGN  13920>>ASSIGN
AS_USERS.BANNER_PERM
     10370**DCL     10371--REDEF
AS_USERS.BUDGET.MACCT
     10275**DCL     10279--REDEF
AS_USERS.BUDGET.MAX_PROJECTS
     10288**DCL     10291--REDEF
AS_USERS.BUDGET.PACCUM
     10271**DCL     10273--REDEF
AS_USERS.BUDGET.PMAXC
     10266**DCL     10268--REDEF
AS_USERS.SETUP_CHRA.TXT
     10386**DCL     10387--REDEF   10388--REDEF
AS_USERS_CONSTANT.BANNER_PERM
     11438**DCL     11439--REDEF
AS_USERS_CONSTANT.BUDGET.MACCT
     11343**DCL     11347--REDEF
AS_USERS_CONSTANT.BUDGET.MAX_PROJECTS
     11356**DCL     11359--REDEF
AS_USERS_CONSTANT.BUDGET.PACCUM
     11339**DCL     11341--REDEF
AS_USERS_CONSTANT.BUDGET.PMAXC
PL6.E3A0      #001=ASA$CONSOLE File=ASA$CONSOLE.:E05TSI                          TUE 07/29/97 08:33 Page:57
     11334**DCL     11336--REDEF
AS_USERS_CONSTANT.SETUP_CHRA.TXT
     11454**DCL     11455--REDEF   11456--REDEF
BLK$
     13253**DCL     13377--IMP-PTR 13774<<ASSIGN  13775>>IF      13797>>ASSIGN  13798>>ASSIGN  13798>>ASSIGN
     13799>>ASSIGN  13799>>ASSIGN  13862<<ASSIGN  13863>>IF      13883>>ASSIGN  13883>>ASSIGN  13893>>ASSIGN
     13894>>ASSIGN  13894>>ASSIGN
CONSOLE_CMD
     13268**DCL     13735--ASSIGN
CON_ARS
     13247**DCL     13831<<ASSIGN  14008<<ASSIGN  14010<>CALL
CON_KEY
     13274**DCL     13801>>ASSIGN  14007>>ASSIGN
CON_KEY.TXT.ACCT
     13277**DCL     13799<<ASSIGN  13991<>CALL    14000>>ASSIGN
CON_NAME
     13260**DCL     13807<>CALL    13813>>ASSIGN  13889>>ASSIGN
CON_NAME.COUNT
     13261**DCL     13797<<ASSIGN
CON_NAME.TEXT
     13262**DCL     13798<<ASSIGN
CREATE
     13241**DCL     13745<<ASSIGN  13747<<ASSIGN  13807<>CALL    13808>>IF      13835>>IF      13854<<ASSIGN
     13884>>IF      13914>>IF      13988>>IF      13994<>CALL    13996>>IF      14006>>IF      14013>>IF
DEQ_ERR2
     14013**LABEL   14011--CALLALT
DREC$
     13255**DCL     13534--IMP-PTR 13802<<ASSIGN  13805<>CALL    13807<>CALL    13884>>IF      13890>>CALLBLT
     13892>>ASSIGN  13910>>ASSIGN  13916>>ASSIGN  13991<>CALL    13994<>CALL    14006>>ASSIGN  14008>>ASSIGN
     14010<>CALL
DSEG1$
     10034**DCL     13832>>ASSIGN  13926>>ASSIGN
DSEG1SIZE
     10035**DCL     13927>>ASSIGN
DSEG2$
     10035**DCL     13963>>ASSIGN
PL6.E3A0      #001=ASA$CONSOLE File=ASA$CONSOLE.:E05TSI                          TUE 07/29/97 08:33 Page:58
DSEG2SIZE
     10035**DCL     13964>>ASSIGN
DSEG_FLG
     10034**DCL     13749>>IF
ENQ_ERR2
     14013**LABEL   13804--CALLALT 13965--CALLALT 14009--CALLALT
ERR_CODE
     10028**DCL     10029--REDEF   14027<>CALL
EXIT#
     14016**LABEL   13807--CALLALT 13991--CALLALT
I
     13250**DCL     13890<<CALLBLT 13891>>ASSIGN
J
     13251**DCL     13934<<CALLBLT 13935>>IF      13936>>ASSIGN
KL$DREC.NWINFO
     13632**DCL     14008>>ASSIGN
KL$DREC.PASSWORD
     13592**DCL     13596--REDEF
KL$DREC.RENAME
     13615**DCL     13616--REDEF
KL$DREC.SNAME
     13629**DCL     13884>>IF      13890>>CALLBLT 13892>>ASSIGN  13910>>ASSIGN  13916>>ASSIGN  14006<<ASSIGN
KL$TREC.PASSWORD
     13479**DCL     13483--REDEF
KL$TREC.RENAME
     13502**DCL     13503--REDEF
KL$TREC.TWSN#
     13476**DCL     13958>>ASSIGN
KL$TWSNREC.DEVS
     13707**DCL     13998--ASSIGN
KL$TWSNREC.DEVS.ACCT
     13721**DCL     14000<<ASSIGN
KL$TWSNREC.NDEV
     13706**DCL     13989>>ASSIGN  13997<<ASSIGN
KLDREC
     13254**DCL     13802--ASSIGN  13803--ASSIGN
PL6.E3A0      #001=ASA$CONSOLE File=ASA$CONSOLE.:E05TSI                          TUE 07/29/97 08:33 Page:59
KL_DEFAULT.PASSWORD
     12644**DCL     12648--REDEF
KL_DEFAULT.RENAME
     12667**DCL     12668--REDEF
KL_DFLT.PASSWORD
     11834**DCL     11838--REDEF
KL_DFLT.RENAME
     11857**DCL     11858--REDEF
KL_DREC.PASSWORD
     11672**DCL     11676--REDEF
KL_DREC.RENAME
     11695**DCL     11696--REDEF
KL_DREC_CNT
     11501**DCL     14008--ASSIGN
KL_DREC_CNT.PASSWORD
     11559**DCL     11563--REDEF
KL_DREC_CNT.RENAME
     11582**DCL     11583--REDEF
LOCAL
     13252**DCL     13920<<ASSIGN  13922<<ASSIGN  13994<>CALL
NODE$
     10026**DCL     13330--IMP-PTR 13742<<ASSIGN  13743>>IF      13774>>ASSIGN  13859>>IF      13862>>ASSIGN
OUT$SYM.COUNT
     13400**DCL     13403--IMP-SIZ 13775>>IF      13797>>ASSIGN  13798>>ASSIGN  13799>>ASSIGN  13863>>IF
     13883>>ASSIGN  13893>>ASSIGN  13894>>ASSIGN
OUT$SYM.TEXT
     13403**DCL     13798>>ASSIGN  13799>>ASSIGN  13883>>ASSIGN  13894>>ASSIGN
P$NODE.CODE
     13338**DCL     13743>>IF
P$NODE.SUBLK$
     13363**DCL     13774>>ASSIGN  13774>>ASSIGN  13862>>ASSIGN  13862>>ASSIGN
P$NODE.SUBNODES
     13342**DCL     13859>>IF
PROJ_KEY.TEXT
      9906**DCL      9906--REDEF
PROJ_KEY.TXT.PROJECT
PL6.E3A0      #001=ASA$CONSOLE File=ASA$CONSOLE.:E05TSI                          TUE 07/29/97 08:33 Page:60
      9906**DCL      9906--REDEF
P_PCB
     10061**DCL     13736<>CALL
P_PCB.ERROR
     10165**DCL     13737<>CALL
P_PCB.OUT$
     10074**DCL     13742>>ASSIGN
P_PCB.ROOT$
     10066**DCL     13735<<ASSIGN
REMEM_VAR
     10032**DCL     10032--REDEF
REM_FCMD
     10032**DCL     10033--REDEF
SNAME
     13243**DCL     13883<<ASSIGN  13884>>IF      13910<<ASSIGN  13915<<ASSIGN  13916<<ASSIGN  13918>>IF
     13923>>CALLBLT 14006>>ASSIGN
TREC$
     13256**DCL     13421--IMP-PTR 13832<<ASSIGN  13926<<ASSIGN  13928<>CALL    13958>>ASSIGN  13991<>CALL
TWSN#
     13245**DCL     13959<<CALLBLT
TWSNC
     13244**DCL     13958<<ASSIGN  13959>>CALLBLT 13961>>CALLBLT 13994<>CALL    14001>>CALLBLT
TWSNR$
     13259**DCL     13703--IMP-PTR 13963<<ASSIGN  13966<>CALL    13989>>ASSIGN  13991<>CALL    13994<>CALL
     13997>>ASSIGN  14000>>ASSIGN  14003<>CALL
TWSN_ARS
     13248**DCL     13964<<ASSIGN  13966<>CALL    13998<<ASSIGN  13998>>ASSIGN  14003<>CALL
TWSN_INDEX
     13246**DCL     13989<<ASSIGN  13991<>CALL    13994<>CALL    13997>>ASSIGN  14000>>ASSIGN
USERS_KEY
      9903**DCL     13801<<ASSIGN  13968>>ASSIGN  14007<<ASSIGN
USERS_KEY.COUNT
      9903**DCL     13924<<ASSIGN  13962<<ASSIGN  14002<<ASSIGN
USERS_KEY.TEXT
      9903**DCL      9904--REDEF    9904--REDEF    9904--REDEF    9905--REDEF
USERS_KEY.TXTC
PL6.E3A0      #001=ASA$CONSOLE File=ASA$CONSOLE.:E05TSI                          TUE 07/29/97 08:33 Page:61
      9904**DCL     13923<<CALLBLT 13934>>CALLBLT 13938>>ASSIGN  13961<<CALLBLT 14001<<CALLBLT
WRITE_TWSNR_ERR
     14013**LABEL   14003--CALLALT 14010--CALLALT
X$PARSE
     13284**DCL-ENT 13736--CALL

