VERSION E05

PL6.E3A0      #001=ASA$DEVICE File=ASA$DEVICE.:E05TSI                            TUE 07/29/97 08:34 Page:1
        1        1        /*M*  ASA$DEVICE - Processes CREATE and MODIFY for DEVICE. */
        2        2        /*T***********************************************************/
        3        3        /*T*                                                         */
        4        4        /*T* Copyright (c) Bull HN Information Systems Inc., 1997    */
        5        5        /*T*                                                         */
        6        6        /*T***********************************************************/
        7        7        /*X*  DMC,DMR,CCC,PLM=0,IND=3,CTI=5,DCI=6,IAD=0,DTI=0,IDT=0,ENI=3,
        8        8              ECU=3,CSU=3,SDI=3                                           */
        9        9        /**/
       10       10        /*   ASA$DEVICE : This module consists of procedures:
       11       11                             ASA$DEVICE
       12       12                             ASA$DEV_OPTS
       13       13                                                                */
       14       14        /*P*   NAME: ASA$DEVICE
       15       15               PURPOSE:  This module  of SUPER processes the 'CREATE DEVICE'
       16       16                         and the 'MODIFY DEVICE' commands.  It calls
       17       17                         ASA$DEV_OPTS to process the options.
       18       18        */
       19       19        ASA$DEVICE: PROC ;
       20       20                                                       /**/
       21       21        %SET LISTSUB = '1'B ;
       22       22        /*********************************************************************/
       23       23        /*   Include files   include files   include files   include files   */
       24       24        /*********************************************************************/
       25       25                                                                                    /**/
       26       26              %INCLUDE  AS_ENTRIES_M ;
       27     1076              %INCLUDE  AS_PERR_C    ;
       28     1678              %INCLUDE  AS_SSUBS_C   ;
       29     1770              %INCLUDE  AS_SUBS_C    ;
       30     3184              %INCLUDE  KL_SUPER_C   ;
       31     6086              %INCLUDE  XU_FORMAT_C  ;
       32     6248              %INCLUDE  XU_MACRO_C   ;
       33     9354              %INCLUDE  AS_SUPER_C   ;
       34     9789              %INCLUDE  AS_MAC_C     ;
       35     9869              %INCLUDE  AS_SUPER_R   ;
       36    12885              %INCLUDE  CP_6         ;
       37    12966              %INCLUDE  B_MACROS_C   ;
PL6.E3A0      #001=ASA$DEVICE File=ASA$DEVICE.:E05TSI                            TUE 07/29/97 08:34 Page:2
       38    13077              %INCLUDE  KC$CGBLK     ;
       39    13125        %EJECT ;
PL6.E3A0      #001=ASA$DEVICE File=ASA$DEVICE.:E05TSI                            TUE 07/29/97 08:34 Page:3
       40    13126        /*********************************************************************/
       41    13127        /*   Auto data       auto data       auto data       auto data       */
       42    13128        /*********************************************************************/
       43    13129                                                                                    /**/
       44    13130    1   DCL CREATE BIT(1) ALIGNED;
       45    13131    1   DCL TYPE CHAR(2) ;
       46    13132    1   DCL KLDREC CHAR(4096) ;
       47    13133    1   DCL SNAME CHAR(8);
       48    13134    1   DCL TWSNC CHAR(4) ;
       49    13135    1   DCL TWSN# UBIN WORD ;
       50    13136    1   DCL TWSN_INDEX UBIN WORD ;
       51    13137    1   DCL DEV_ARS UBIN WORD ;
       52    13138    1   DCL TWSN_ARS UBIN WORD ;
       53    13139    1   DCL ARS UBIN WORD ;
       54    13140    1   DCL I UBIN WORD ALIGNED;
       55    13141    1   DCL 1 TP_DEV BASED (DSEG3$),
       56    13142    1          2 DEV_TYPE UBIN WORD,
       57    13143    1          2 SNAME CHAR (8);
       58    13144    1   DCL ACCT CHAR (8) ALIGNED;
       59    13145    1   DCL UNAME CHAR (12) ALIGNED;
       60    13146    1   DCL SUBNODES UBIN WORD;
       61    13147    1   DCL UNAME_LEN UBIN;
       62    13148    1   DCL BLK$ PTR ;
       63    13149    1   DCL TREC$ PTR ;
       64    13150    1   DCL DREC$ PTR ;
       65    13151    1   DCL PRO$ PTR ;
       66    13152    1   DCL TWSNR$ PTR ;
       67    13153    1   DCL 1 DEV_NAME,
       68    13154    1          2 COUNT UBIN BYTE UNAL,
       69    13155    1          2 TEXT CHAR(8) UNAL;
       70    13156        %KL_TWSNREC( NAME=TWSN_REC, STCLASS=AUTO );
       71    13181        %EJECT ;
PL6.E3A0      #001=ASA$DEVICE File=ASA$DEVICE.:E05TSI                            TUE 07/29/97 08:34 Page:4
       72    13182        /*********************************************************************/
       73    13183        /*   Symref's        symref's        symref's        symref's        */
       74    13184        /*********************************************************************/
       75    13185                                                                                    /**/
       76    13186    1   DCL DEVICE_CMD SYMREF UBIN WORD ;
       77    13187    1   DCL TP_DEVICE_CMD SYMREF UBIN WORD ;
       78    13188        %EJECT ;
PL6.E3A0      #001=ASA$DEVICE File=ASA$DEVICE.:E05TSI                            TUE 07/29/97 08:34 Page:5
       79    13189        /*********************************************************************/
       80    13190        /*   Static data     static data     static data     static data     */
       81    13191        /*********************************************************************/
       82    13192                                                                                    /**/
       83    13193    1   DCL 1 DEV_KEY ALIGNED STATIC ,
       84    13194    1          2 CNT UBIN BYTE UNAL INIT( 9 ),
       85    13195    1          2 TXT UNAL ,
       86    13196    1             3 ACCT CHAR(8) UNAL INIT(' ') ,
       87    13197    1             3 UNAME CHAR(12) UNAL INIT(' ') ;
       88    13198        %EJECT ;
PL6.E3A0      #001=ASA$DEVICE File=ASA$DEVICE.:E05TSI                            TUE 07/29/97 08:34 Page:6
       89    13199        /********************************************************************/
       90    13200        /*   Entry dcls      entry dcls      entry dcls      entry dcls      */
       91    13201        /*********************************************************************/
       92    13202                                                                                    /**/
       93    13203    1   DCL X$PARSE ENTRY(1) ALTRET ;
       94    13204        %ASA$DEV_OPTS ;
       95    13207        %ASB$FIND_TWSN_INDEX ;
       96    13210        %ASB$ENQ_HLP ;
       97    13213        %ASB$DEQ_HLP ;
       98    13216        %ASB$READ_HLP ;
       99    13219        %ASB$WRITE_HLP ;
      100    13222        %ASB$GETSEG ;
      101    13225        %ASH$ERROR ;
      102    13228        %ASH$WARN ;
      103    13231        %ASB$WRITE_LO ;
      104    13234        %ASB$CHECK_TYPE ;
      105    13237        %EJECT ;
PL6.E3A0      #001=ASA$DEVICE File=ASA$DEVICE.:E05TSI                            TUE 07/29/97 08:34 Page:7
      106    13238        /*********************************************************************/
      107    13239        /*   Local based     local based     local based     local based     */
      108    13240        /*********************************************************************/
      109    13241                                                                                    /**/
      110    13242            %PARSE$OUT( NAME=P$NODE, STCLASS="BASED(NODE$)",
      111    13243                        NDTYPE=TYPE, NSUBLKS=SUBNODES) ;
      112    13288              %PARSE$SYM( NAME = OUT$SYM ,
      113    13289                          STCLASS="BASED(BLK$)") ;
      114    13327              %KL_DREC ( NAME = KL$TREC , LAST=";", STCLASS="BASED( TREC$ )" ) ;
      115    13440              %KL_DREC( NAME=KL$DREC, STCLASS="BASED( DREC$ )", LAST="," ) ;
      116    13553              %KC$CGID(FPTN=KC$CGID,
      117    13554                        LVL = 2 ,
      118    13555                        LAST = ";" );
      119    13581              %KL_TWSNREC(  NAME = KL$TWSNREC ,
      120    13582                            STCLASS="BASED( TWSNR$ )") ;
      121    13607        %EJECT ;
PL6.E3A0      #001=ASA$DEVICE File=ASA$DEVICE.:E05TSI                            TUE 07/29/97 08:34 Page:8
      122    13608        /*********************************************************************/
      123    13609        /*   Procedure       procedure       procedure       procedure       */
      124    13610        /*********************************************************************/
      125    13611                                                                                    /**/
      126    13612        /*
      127    13613            ***            Begin procedure                    ***
      128    13614        */
      129    13615    1   IF NOT DSEG_FLG
      130    13616    2   THEN DO;   /* Get the data segments since we will actually use a word */
      131    13617    2      CALL ASB$GETSEG
      132    13618    3      WHENALTRETURN DO;
      133    13619              %SCREAM( ERR#=%E$GETSEGERR, LEVEL=ERROR, MID='A' ) ;
      134    13634    3         RETURN ;
      135    13635    3         END; /*  Whenaltreturn  */
      136    13636                                                                    /**/
      137    13637    2      END;
      138    13638    1   P_PCB.ROOT$ = ADDR( DEVICE_CMD ) ;
      139    13639    1   CALL X$PARSE( P_PCB )
      140    13640    2   WHENRETURN DO;
      141    13641    2      TP_DEV.DEV_TYPE = 0;
      142    13642                                                                                    /**/
      143    13643    2      NODE$ = P_PCB.OUT$ ;
      144    13644    2      IF P$NODE.CODE = 38 /* CR_DEVICE */
      145    13645    2      THEN
      146    13646    2         CREATE = AS_TRUE ;
      147    13647    2      ELSE
      148    13648    2         CREATE = AS_FALSE ;
      149    13649                                                /* Did we get data SEG.?              */
      150    13650                                                /* Pick up acct.                      */
      151    13651    2      BLK$ = P$NODE.SUBLK$(0) -> P$NODE.SUBLK$(0) ;
      152    13652    3      IF OUT$SYM.COUNT > 8 THEN DO;
      153    13653        /*E*  ERROR:    ASA-E$DNAMETOOBIG-C
      154    13654              MESSAGE:  Device name too long.
      155    13655              MESSAGE1: Device names can be at most 8 characters.
      156    13656        */
      157    13657              %SCREAM( ERR#=E$DNAMETOOBIG , LEVEL=ERROR, MID='A' );
      158    13672    3         RETURN ;
PL6.E3A0      #001=ASA$DEVICE File=ASA$DEVICE.:E05TSI                            TUE 07/29/97 08:34 Page:9
      159    13673    3         END ; /* Then do */
      160    13674    2      DEV_NAME.COUNT = OUT$SYM.COUNT;
      161    13675    2      DEV_NAME.TEXT = OUT$SYM.TEXT;
      162    13676    2      DEV_KEY.TXT.UNAME = '*';
      163    13677    2      DEV_KEY.TXT.ACCT = DEV_NAME.TEXT;
      164    13678    2      DEV_KEY.CNT = 9;
      165    13679    2      SUBNODES = 2;
      166    13680    2      USERS_KEY = DEV_KEY;
      167    13681
      168    13682    2      END;
      169    13683    2   WHENALTRETURN DO;
      170    13684        /* There are 2 forms of the special cr tp command.  The first is-
      171    13685           cr tp account (this will be refered to as type 1).
      172    13686           the second is ct tp account,uname (this will be called type 2).
      173    13687
      174    13688           If the user specifies cr tp as opposed to cr dev then the following
      175    13689           will happen.
      176    13690
      177    13691           We set the DEV_TYPE to 1 (0 is used for the regular cr dev command)
      178    13692           we create the key 'account (padded to 8 chars) *'.
      179    13693           we see if a comma was used (this will denote type 2)
      180    13694           if comma then set DEV_TYPE to 2, put the uname into the sname field
      181    13695            and make the key 'account (to 8 chars) uname'.
      182    13696
      183    13697           Data segment 3 (DSEG3) is used to pass the dev_type and sname
      184    13698           fields to the DEV_OPTS routine.  DEV_OPTS will check the DEV_TYPE,
      185    13699           if it's > 0 then use=tp will be simulated.  If the DEV_TYPE is 2
      186    13700           then the sname=uname option will be simulated.
      187    13701        */
      188    13702    2      P_PCB.ROOT$ = ADDR (TP_DEVICE_CMD);
      189    13703    2      CALL X$PARSE (P_PCB)
      190    13704    3      WHENALTRETURN DO;
      191    13705    3         CALL ASH$ERROR( P_PCB.ERROR ) ;
      192    13706    3         RETURN ;
      193    13707    3         END; /*  Whenaltreturn  */
      194    13708                                                                    /**/
      195    13709    2      SUBNODES = 3;
PL6.E3A0      #001=ASA$DEVICE File=ASA$DEVICE.:E05TSI                            TUE 07/29/97 08:34 Page:10
      196    13710    2      NODE$ = P_PCB.OUT$;
      197    13711    2      IF P$NODE.CODE = 38 /* CR_DEVICE */
      198    13712    2      THEN
      199    13713    2         CREATE = AS_TRUE ;
      200    13714    2      ELSE
      201    13715    2         CREATE = AS_FALSE ;
      202    13716    2      TP_DEV.DEV_TYPE = 1;
      203    13717    2      ACCT = NODE$->P$NODE.SUBLK$(0)->P$NODE.SUBLK$(0)->OUT$SYM.TEXT;
      204    13718    2      DEV_KEY.TXT.ACCT = ACCT;
      205    13719    2      DEV_KEY.TXT.UNAME = '*';
      206    13720    2      DEV_KEY.CNT = 9;
      207    13721    2      IF P$NODE.SUBNODES > 1
      208    13722    3      THEN DO;
      209    13723    3         IF P$NODE.SUBLK$(1)->P$NODE.CODE = 56 /* TPDEV_ACCT2_VAL */
      210    13724    4         THEN DO;
      211    13725    4            SUBNODES = 3;
      212    13726    4            TP_DEV.DEV_TYPE = 2;
      213    13727    4            UNAME = NODE$->P$NODE.SUBLK$(1)->P$NODE.SUBLK$(0)->OUT$SYM.TEXT;
      214    13728    4            UNAME_LEN = NODE$->P$NODE.SUBLK$(1)->P$NODE.SUBLK$(0)->OUT$SYM.COUNT;
      215    13729    4            DEV_KEY.CNT = 8 + UNAME_LEN;
      216    13730    4            IF UNAME_LEN > 8
      217    13731    5            THEN DO;
      218    13732        /*E*    ERROR: ASA-E$TPDEVSNAMETOOBIG-C
      219    13733              MESSAGE: Max size of a TP SNAME is 8 characters, UNAME will be truncated to 8.
      220    13734                MESSAGE1: The UNAME is used as the SNAME also, there is an 8 character
      221    13735                         limit on the SNAME which will cause truncation of the
      222    13736                         UNAME to 8 characters.
      223    13737        */
      224    13738                    %SCREAM (ERR#=E$TPDEVSNAMETOOBIG, LEVEL=WARN, MID='A');
      225    13753    5               UNAME_LEN = 8;
      226    13754    5               END;
      227    13755    4            IF (SUBSTR( UNAME, 1, 2) = '$$')
      228    13756    5            THEN DO;
      229    13757        /*      ERROR: ASA-E$NO$$ONSNAME-0
      230    13758                MESSAGE1: The sname of a cg type device cannot start with '$$'.
      231    13759                MESSAGE2: Comgroups do not allow '$$' as the first 2 characters
      232    13760                          of a name.
PL6.E3A0      #001=ASA$DEVICE File=ASA$DEVICE.:E05TSI                            TUE 07/29/97 08:34 Page:11
      233    13761                DESCRIPTION: You tried to specify an sname with '$$' as the
      234    13762                         first two characters, this is a no-no!
      235    13763        */
      236    13764                    %SCREAM (ERR#=E$NO$$ONSNAME, LEVEL=ERROR, MID='A');
      237    13779    5               RETURN;
      238    13780    5               END;
      239    13781    4            TP_DEV.SNAME = UNAME;
      240    13782    4            DEV_KEY.TXT.UNAME = UNAME;
      241    13783    4            END;
      242    13784    4         ELSE DO; /* No uname specified */
      243    13785    4            UNAME_LEN = 1;
      244    13786    4            UNAME = '*';
      245    13787    4            DEV_KEY.CNT = 9;
      246    13788    4            END;
      247    13789    3         END;
      248    13790    2      USERS_KEY.COUNT = DEV_KEY.CNT;
      249    13791    2      CALL CONCAT (USERS_KEY.TXTC, ACCT, UNAME);
      250    13792    2      DEV_NAME = USERS_KEY;
      251    13793    2      END;
      252    13794    1   DREC$ = ADDR( KLDREC ) ;
      253    13795    1   ARS = LENGTHC( KLDREC ) ;
      254    13796    1   CALL ASB$ENQ_HLP ALTRET( ENQ_ERR2 ) ;
      255    13797    1   CALL ASB$READ_HLP( DREC$, ARS )
      256    13798    2   WHENRETURN DO;
      257    13799                                              /* Device exists                      */
      258    13800    2      CALL ASB$CHECK_TYPE(DREC$,ARS, 11 /* CG DEVICE */, CREATE, DEV_NAME) ALTRET(EXIT#
             13800               );
      259    13801    3      IF CREATE THEN DO ;
      260    13802           /*E*  ERROR:    ASA-E$DEVEXISTS-C
      261    13803                 MESSAGE:  Device exists.
      262    13804                 MESSAGE1: Device %"%U1" %already exists.
      263    13805           */
      264    13806    3         AS_FIELD1 = DEV_NAME;
      265    13807              %SCREAM( ERR#=E$DEVEXISTS, LEVEL=ERROR, MID='A' ) ;
      266    13822    3         RETURN ;
      267    13823    3         END ;                        /* Then do                            */
      268    13824    2      DEV_ARS = ARS ;
PL6.E3A0      #001=ASA$DEVICE File=ASA$DEVICE.:E05TSI                            TUE 07/29/97 08:34 Page:12
      269    13825    2      END; /*  Whenreturn  */
      270    13826    2   WHENALTRETURN DO;
      271    13827                                                                    /**/
      272    13828    3      IF NOT CREATE THEN DO;       /* If create then ok as is     */
      273    13829           /*E*  ERROR:    ASA-E$DEVSWITCH-C
      274    13830                 MESSAGE:  ** Device does not exist. Switching to CREATE mode.
      275    13831           */
      276    13832              %SCREAM( ERR#=E$DEVSWITCH, LEVEL=ERROR, MID='A' ) ;
      277    13847    3         CREATE = AS_TRUE ;
      278    13848    3         END; /*  If not create  */
      279    13849    2      END; /*  Whenaltreturn  */
      280    13850                                                              /* Check to see if
      281    13851                                                                 'FOR' was specified. */
      282    13852    1   IF P$NODE.SUBNODES > SUBNODES
      283    13853    1   THEN                            /* Yes it was                         */
      284    13854    2   DO ;
      285    13855    2      BLK$ = P$NODE.SUBLK$(SUBNODES-1) -> P$NODE.SUBLK$(0) ;
      286    13856    2      IF OUT$SYM.COUNT > 8
      287    13857    2      THEN
      288    13858    3      DO ;
      289    13859              %SCREAM( ERR#=E$DNAMETOOBIG, MID='A', LEVEL=ERROR );
      290    13874    3         RETURN ;
      291    13875    3         END ;                     /* Then do                            */
      292    13876    2      SNAME = OUT$SYM.TEXT ;
      293    13877    3      IF NOT CREATE AND KL$DREC.SNAME ~= SNAME THEN DO;
      294    13878    4         IF KL$DREC.SNAME = ' *NOTRM*' THEN DO;
      295    13879        /*E*  ERROR:  ASA-E$TERM_NOT_MEANINGFUL-C
      296    13880        MESSAGE: FOR TERMINAL or STATION is not meaningful for USE=CG or USE=TP devices.
      297    13881        MESSAGE1: USE=CG or USE=TP devices are not created for a terminal or a station.
      298    13882        */
      299    13883                 %SCREAM( ERR#=E$TERM_NOT_MEANINGFUL, LEVEL=WARN, MID='A' );
      300    13898    4            END;
      301    13899    4         ELSE DO;
      302    13900        /*E* ERROR:   ASA-E$DEV_FOR_WRONG-C
      303    13901             MESSAGE: Warning:  Device %U1 was created for %U2, not %U3.
      304    13902        */
      305    13903    4            AS_FIELD1 = DEV_NAME;
PL6.E3A0      #001=ASA$DEVICE File=ASA$DEVICE.:E05TSI                            TUE 07/29/97 08:34 Page:13
      306    13904    4            CALL INDEX( I, AS_BLANK, KL$DREC.SNAME );
      307    13905    4            AS_FIELD2.COUNT = I;
      308    13906    4            AS_FIELD2.TEXT  = KL$DREC.SNAME ;
      309    13907    4            AS_FIELD3.COUNT = OUT$SYM.COUNT ;
      310    13908    4            AS_FIELD3.TEXT  = OUT$SYM.TEXT ;
      311    13909                 %SCREAM( ERR#=E$DEV_FOR_WRONG, MID='A', LEVEL=WARN );
      312    13924    4            END;
      313    13925    3         SNAME = KL$DREC.SNAME;
      314    13926    3         END;
      315    13927    2      END ;                        /* Then do                            */
      316    13928    1   ELSE                            /* No it wasn't                       */
      317    13929    1      IF CREATE
      318    13930    1      THEN SNAME = 'LOCAL';
      319    13931    1      ELSE SNAME = KL$DREC.SNAME ;
      320    13932    2   IF SNAME = ' *NOTRM*' THEN DO;
      321    13933    2      TWSN_INDEX = 0;
      322    13934    2      TWSNR$ = ADDR(TWSN_REC);
      323    13935    2      END;
      324    13936    2   ELSE DO;
      325    13937    2      CALL CONCAT( USERS_KEY.TXTC, SNAME, 'STATION' );
      326    13938    2      USERS_KEY.COUNT = 15;
      327    13939                                                /* Pick up terminal record            */
      328    13940    2      TREC$ = DSEG1$ ;
      329    13941    2      ARS = DSEG1SIZE ;
      330    13942    2      CALL ASB$READ_HLP( TREC$, ARS )
      331    13943    3      WHENALTRETURN DO;
      332    13944    3         AS_FIELD1 = USERS_KEY;
      333    13945              %SCREAM( ERR#=E$TERMINAL_NOEXIST, MID='A', LEVEL=ERROR ) ;
      334    13960    3         RETURN ;
      335    13961    3         END; /*  Whenaltreturn  */
      336    13962                                                                    /**/
      337    13963                                                /* Get twsn number                    */
      338    13964    2      TWSNC = KL$TREC.TWSN# ;
      339    13965    2      CALL CHARBIN( TWSN#, TWSNC ) ;
      340    13966                                                /* Pick up twsn record                */
      341    13967    2      CALL CONCAT( USERS_KEY.TXTC, 'TWSN', TWSNC ) ;
      342    13968    2      USERS_KEY.COUNT = 8 ;
PL6.E3A0      #001=ASA$DEVICE File=ASA$DEVICE.:E05TSI                            TUE 07/29/97 08:34 Page:14
      343    13969    2      TWSNR$ = DSEG2$ ;
      344    13970    2      TWSN_ARS = DSEG2SIZE ;
      345    13971    2      CALL ASB$ENQ_HLP ALTRET( ENQ_ERR2 ) ;
      346    13972    2      CALL ASB$READ_HLP( TWSNR$, TWSN_ARS )
      347    13973    3      WHENALTRETURN DO;
      348    13974    3         AS_FIELD1 = USERS_KEY ;
      349    13975              %SCREAM( ERR#=E$TERM_NO_EXIST, LEVEL=ERROR, MID='A' ) ;
      350    13990    3         RETURN ;
      351    13991    3         END; /*  Whenaltreturn  */
      352    13992                                                                    /**/
      353    13993                                                /* Get twsn record index for device */
      354    13994    2      IF CREATE THEN
      355    13995    2         TWSN_INDEX = KL$TWSNREC.NDEV ;
      356    13996    2      ELSE
      357    13997    2         CALL ASB$FIND_TWSN_INDEX( TREC$, DREC$, TWSNR$, AS_FALSE, DEV_KEY.TXT.ACCT,
             13997                  TWSN_INDEX ) ALTRET(EXIT#) ;
      358    13998    2      END;
      359    13999
      360    14000                                                /* Do options                         */
      361    14001    1   FROM_KEY.TEXT = DEV_KEY.TXT.ACCT ;
      362    14002    1   CALL ASA$DEV_OPTS(DREC$, TWSNR$, TWSNC, CREATE, '0'B, '    ', TWSN_INDEX)
      363    14003    2   WHENRETURN DO;
      364    14004    2      IF KL$DREC.SUPER = 5 /* INSYM DEVICE */ OR KL$DREC.SUPER = 6 /* OUTSYM DEVICE */
      365    14005    3           OR KL$DREC.SUPER = 12 /* RES DEVICE */ THEN DO ;
      366    14006    4         IF CREATE THEN DO ;
      367    14007    4            KL$TWSNREC.NDEV = TWSN_INDEX + 1 ;
      368    14008    4            TWSN_ARS = TWSN_ARS + LENGTHC(KL$TWSNREC.DEVS(0)) ;
      369    14009    4            END ;
      370    14010                                                /* Write twsn record                 */
      371    14011    3         CALL CONCAT( USERS_KEY.TXTC, 'TWSN', TWSNC ) ;
      372    14012    3         USERS_KEY.COUNT = 8 ;
      373    14013    3         CALL ASB$WRITE_HLP( TWSNR$, TWSN_ARS ) ALTRET( WRITE_TWSNR_ERR ) ;
      374    14014    3         IF CREATE THEN KL$DREC.SNAME = SNAME ;
      375    14015    3         END;
      376    14016    2      ELSE
      377    14017    2         IF CREATE THEN KL$DREC.SNAME = ' *NOTRM*';
      378    14018    2   WRITE_DEV_REC: ;
PL6.E3A0      #001=ASA$DEVICE File=ASA$DEVICE.:E05TSI                            TUE 07/29/97 08:34 Page:15
      379    14019                                                                                    /**/
      380    14020    2      DEV_ARS = LENGTHC( KL_DREC_CNT ) + KL$DREC.NWINFO*4 ;
      381    14021    2      USERS_KEY = DEV_KEY ;
      382    14022    2      CALL ASB$ENQ_HLP ALTRET( ENQ_ERR2 ) ;
      383    14023    2      CALL ASB$WRITE_HLP( DREC$, DEV_ARS ) ALTRET( WRITE_TWSNR_ERR ) ;
      384    14024    2      CALL ASB$DEQ_HLP ALTRET( DEQ_ERR2 ) ;
      385    14025                                                                                    /**/
      386    14026    2      IF CREATE THEN
      387    14027    2         CALL ASB$WRITE_LO( AS_CREATED_TEXT, LENGTHC(AS_CREATED_TEXT) ) ;
      388    14028
      389    14029    2      RETURN ;
      390    14030    2      END; /* Whenreturn */
      391    14031
      392    14032                                                /* Errors                             */
      393    14033    1   ENQ_ERR2: ;
      394    14034
      395    14035    1   DEQ_ERR2: ;
      396    14036    1   EXIT#: ;
      397    14037                                                                                    /**/
      398    14038    1   RETURN ;
      399    14039                                                                                    /**/
      400    14040    1   WRITE_TWSNR_ERR: ;
      401    14041    1   CALL ASH$ERROR( ERR_CODE ) ;
      402    14042    1   RETURN ;
      403    14043                                                                                    /**/
      404    14044                                                                                    /**/
      405    14045    1   END   ASA$DEVICE ;
      406    14046        %EOD;

PL6.E3A0      #001=ASA$DEVICE File=ASA$DEVICE.:E05TSI                            TUE 07/29/97 08:34 Page:16
--  Include file information  --

   KC$CGBLK.:E05TOU  is referenced.
   B_MACROS_C.:E05TOU  is referenced.
   CP_6.:E05TOU  cannot be made into a system file and is referenced.
   AS_SUPER_R.:E05TOU  cannot be made into a system file and is referenced.
   AS_MAC_C.:E05TOU  cannot be made into a system file and is referenced.
   AS_SUPER_C.:E05TOU  is referenced.
   XU_MACRO_C.:E05TOU  is referenced.
   XU_FORMAT_C.:E05TOU  is referenced.
   KL_SUPER_C.:E05TOU  is referenced.
   AS_SUBS_C.:E05TOU  is referenced.
   AS_SSUBS_C.:E05TOU  is referenced.
   AS_PERR_C.:E05TOU  is referenced.
   AS_ENTRIES_M.:E05TOU  is referenced.
   B$JIT_C.:E05TOU  was found in the system file and is never referenced.
   CP_6_C.:E05TOU  was found in the system file and is referenced.
      No diagnostics issued in procedure ASA$DEVICE.

   Procedure ASA$DEVICE requires 515 words for executable code.
   Procedure ASA$DEVICE requires 1078 words of local(AUTO) storage.

PL6.E3A0      #001=ASA$DEVICE File=ASA$DEVICE.:E05TSI                            TUE 07/29/97 08:34 Page:17

 Object Unit name= ASA$DEVICE                                 File name= ASA$DEVICE.:E05TOU
 UTS= JUL 29 '97 08:34:04.92 TUE                              Compiler= PL-6/E31         Sev=      00
 SharedLib= :SHARED_SYSTEM                                    Alt SharedLib=


    ****  Control sections  ****

 Sect   Type Bound  Init  Size OctSiz  Section name(segment info)
    0   DCB   even  none     0      0  M$LO
    1   DCB   even  none     0      0  M$UC
    2   Data  even  none     6      6  ASA$DEVICE
    3  RoData even  UTS     19     23  ASA$DEVICE
    4   Proc  even  none   515   1003  ASA$DEVICE
    5  RoData even  none    24     30  ASA$DEVICE

    ****  Entry defs  ****

                              Check   Calling
                             calling  sequence
  Sect OctLoc Primary Altret sequence   type   Parms  Name
     4      0   yes            yes      Std        0  ASA$DEVICE
PL6.E3A0      #001=ASA$DEVICE File=ASA$DEVICE.:E05TSI                            TUE 07/29/97 08:34 Page:18

  ****  Entry refs  ****

         Check        Calling
        calling       sequence
Altret sequence SRef   type   Args  Name
         yes          ~proc      0 XU_OUTPUT_OPTIONS
 yes     yes           Std       6 ASB$FIND_TWSN_INDEX
 yes     yes           Std       2 ASB$WRITE_HLP
         yes           Std       2 ASB$WRITE_LO
 yes     yes           Std       0 ASB$GETSEG
         yes           Std       2 ASH$ERROR
 yes     yes           Std       0 ASB$ENQ_HLP
 yes     yes           Std       3 ASB$READ_HLP
         yes           Std       2 ASH$WARN
 yes     yes           Std       0 ASB$DEQ_HLP
 yes     yes           Std       1 X$PARSE
 yes     yes           Std       9 ASA$DEV_OPTS
 yes     yes           Std       5 ASB$CHECK_TYPE
                       nStd      0 X66_AUTO_0
                       Std       0 B_CONSPOOL_D
                       nStd      0 X66_ARET

  ****  Data refs  ****

  Flags:  r = read only, s = secondary
Flgs Name                             Flgs Name                             Flgs Name
r    AS_BLANK                         r    AS_TRUE                          r    AS_FALSE
r    AS_MODE                          r    AS_FE_MODE                            M$LO
     USERS_KEY                             AS_CREATED_TEXT                       FROM_KEY
     NODE$                                 ERR_CODE                              AS_FIELD1
     AS_FIELD2                             AS_FIELD3                             REMEM_VAR
     REM_FCMD                              ASA_BRKS_LOC                          DSEG_FLG
     DSEG1$                                DSEG1SIZE                             DSEG2$
     DSEG2SIZE                             DSEG3$                                P_PCB
     KL_DREC_CNT                           M$UC                                  DEVICE_CMD
     TP_DEVICE_CMD                         B_VECTNIL
PL6.E3A0      #001=ASA$DEVICE File=ASA$DEVICE.:E05TSI                            TUE 07/29/97 08:34 Page:19

  ****  Segment refs  ****

  Flags:  r = read only, s = secondary
Flgs Name                             Flgs Name                             Flgs Name
     ISSID
PL6.E3A0      #001=ASA$DEVICE File=ASA$DEVICE.:E05TSI                            TUE 07/29/97 08:34 Page:20


        1        1        /*M*  ASA$DEVICE - Processes CREATE and MODIFY for DEVICE. */
        2        2        /*T***********************************************************/
        3        3        /*T*                                                         */
        4        4        /*T* Copyright (c) Bull HN Information Systems Inc., 1997    */
        5        5        /*T*                                                         */
        6        6        /*T***********************************************************/
        7        7        /*X*  DMC,DMR,CCC,PLM=0,IND=3,CTI=5,DCI=6,IAD=0,DTI=0,IDT=0,ENI=3,
        8        8              ECU=3,CSU=3,SDI=3                                           */
        9        9        /**/
       10       10        /*   ASA$DEVICE : This module consists of procedures:
       11       11                             ASA$DEVICE
       12       12                             ASA$DEV_OPTS
       13       13                                                                */
       14       14        /*P*   NAME: ASA$DEVICE
       15       15               PURPOSE:  This module  of SUPER processes the 'CREATE DEVICE'
       16       16                         and the 'MODIFY DEVICE' commands.  It calls
       17       17                         ASA$DEV_OPTS to process the options.
       18       18        */
       19       19        ASA$DEVICE: PROC ;

     19  4 000000   000000 700200 xent  ASA$DEVICE   TSX0  ! X66_AUTO_0
         4 000001   002066 000000                    ZERO    1078,0

       20       20                                                       /**/
       21       21        %SET LISTSUB = '1'B ;
       22       22        /*********************************************************************/
       23       23        /*   Include files   include files   include files   include files   */
       24       24        /*********************************************************************/
       25       25                                                                                    /**/
       26       26              %INCLUDE  AS_ENTRIES_M ;
       27     1076              %INCLUDE  AS_PERR_C    ;
       28     1678              %INCLUDE  AS_SSUBS_C   ;
       29     1770              %INCLUDE  AS_SUBS_C    ;
       30     3184              %INCLUDE  KL_SUPER_C   ;
       31     6086              %INCLUDE  XU_FORMAT_C  ;
       32     6248              %INCLUDE  XU_MACRO_C   ;
PL6.E3A0      #001=ASA$DEVICE File=ASA$DEVICE.:E05TSI                            TUE 07/29/97 08:34 Page:21
       33     9354              %INCLUDE  AS_SUPER_C   ;
       34     9789              %INCLUDE  AS_MAC_C     ;
       35     9869              %INCLUDE  AS_SUPER_R   ;
       36    12885              %INCLUDE  CP_6         ;
       37    12966              %INCLUDE  B_MACROS_C   ;
       38    13077              %INCLUDE  KC$CGBLK     ;
       39    13125        %EJECT ;
PL6.E3A0      #001=ASA$DEVICE File=ASA$DEVICE.:E05TSI                            TUE 07/29/97 08:34 Page:22
       40    13126        /*********************************************************************/
       41    13127        /*   Auto data       auto data       auto data       auto data       */
       42    13128        /*********************************************************************/
       43    13129                                                                                    /**/
       44    13130    1   DCL CREATE BIT(1) ALIGNED;
       45    13131    1   DCL TYPE CHAR(2) ;
       46    13132    1   DCL KLDREC CHAR(4096) ;
       47    13133    1   DCL SNAME CHAR(8);
       48    13134    1   DCL TWSNC CHAR(4) ;
       49    13135    1   DCL TWSN# UBIN WORD ;
       50    13136    1   DCL TWSN_INDEX UBIN WORD ;
       51    13137    1   DCL DEV_ARS UBIN WORD ;
       52    13138    1   DCL TWSN_ARS UBIN WORD ;
       53    13139    1   DCL ARS UBIN WORD ;
       54    13140    1   DCL I UBIN WORD ALIGNED;
       55    13141    1   DCL 1 TP_DEV BASED (DSEG3$),
       56    13142    1          2 DEV_TYPE UBIN WORD,
       57    13143    1          2 SNAME CHAR (8);
       58    13144    1   DCL ACCT CHAR (8) ALIGNED;
       59    13145    1   DCL UNAME CHAR (12) ALIGNED;
       60    13146    1   DCL SUBNODES UBIN WORD;
       61    13147    1   DCL UNAME_LEN UBIN;
       62    13148    1   DCL BLK$ PTR ;
       63    13149    1   DCL TREC$ PTR ;
       64    13150    1   DCL DREC$ PTR ;
       65    13151    1   DCL PRO$ PTR ;
       66    13152    1   DCL TWSNR$ PTR ;
       67    13153    1   DCL 1 DEV_NAME,
       68    13154    1          2 COUNT UBIN BYTE UNAL,
       69    13155    1          2 TEXT CHAR(8) UNAL;
       70    13156        %KL_TWSNREC( NAME=TWSN_REC, STCLASS=AUTO );
       71    13181        %EJECT ;
PL6.E3A0      #001=ASA$DEVICE File=ASA$DEVICE.:E05TSI                            TUE 07/29/97 08:34 Page:23
       72    13182        /*********************************************************************/
       73    13183        /*   Symref's        symref's        symref's        symref's        */
       74    13184        /*********************************************************************/
       75    13185                                                                                    /**/
       76    13186    1   DCL DEVICE_CMD SYMREF UBIN WORD ;
       77    13187    1   DCL TP_DEVICE_CMD SYMREF UBIN WORD ;
       78    13188        %EJECT ;
PL6.E3A0      #001=ASA$DEVICE File=ASA$DEVICE.:E05TSI                            TUE 07/29/97 08:34 Page:24
       79    13189        /*********************************************************************/
       80    13190        /*   Static data     static data     static data     static data     */
       81    13191        /*********************************************************************/
       82    13192                                                                                    /**/
       83    13193    1   DCL 1 DEV_KEY ALIGNED STATIC ,
       84    13194    1          2 CNT UBIN BYTE UNAL INIT( 9 ),
       85    13195    1          2 TXT UNAL ,
       86    13196    1             3 ACCT CHAR(8) UNAL INIT(' ') ,
       87    13197    1             3 UNAME CHAR(12) UNAL INIT(' ') ;
       88    13198        %EJECT ;
PL6.E3A0      #001=ASA$DEVICE File=ASA$DEVICE.:E05TSI                            TUE 07/29/97 08:34 Page:25
       89    13199        /********************************************************************/
       90    13200        /*   Entry dcls      entry dcls      entry dcls      entry dcls      */
       91    13201        /*********************************************************************/
       92    13202                                                                                    /**/
       93    13203    1   DCL X$PARSE ENTRY(1) ALTRET ;
       94    13204        %ASA$DEV_OPTS ;
       95    13207        %ASB$FIND_TWSN_INDEX ;
       96    13210        %ASB$ENQ_HLP ;
       97    13213        %ASB$DEQ_HLP ;
       98    13216        %ASB$READ_HLP ;
       99    13219        %ASB$WRITE_HLP ;
      100    13222        %ASB$GETSEG ;
      101    13225        %ASH$ERROR ;
      102    13228        %ASH$WARN ;
      103    13231        %ASB$WRITE_LO ;
      104    13234        %ASB$CHECK_TYPE ;
      105    13237        %EJECT ;
PL6.E3A0      #001=ASA$DEVICE File=ASA$DEVICE.:E05TSI                            TUE 07/29/97 08:34 Page:26
      106    13238        /*********************************************************************/
      107    13239        /*   Local based     local based     local based     local based     */
      108    13240        /*********************************************************************/
      109    13241                                                                                    /**/
      110    13242            %PARSE$OUT( NAME=P$NODE, STCLASS="BASED(NODE$)",
      111    13243                        NDTYPE=TYPE, NSUBLKS=SUBNODES) ;
      112    13288              %PARSE$SYM( NAME = OUT$SYM ,
      113    13289                          STCLASS="BASED(BLK$)") ;
      114    13327              %KL_DREC ( NAME = KL$TREC , LAST=";", STCLASS="BASED( TREC$ )" ) ;
      115    13440              %KL_DREC( NAME=KL$DREC, STCLASS="BASED( DREC$ )", LAST="," ) ;
      116    13553              %KC$CGID(FPTN=KC$CGID,
      117    13554                        LVL = 2 ,
      118    13555                        LAST = ";" );
      119    13581              %KL_TWSNREC(  NAME = KL$TWSNREC ,
      120    13582                            STCLASS="BASED( TWSNR$ )") ;
      121    13607        %EJECT ;
PL6.E3A0      #001=ASA$DEVICE File=ASA$DEVICE.:E05TSI                            TUE 07/29/97 08:34 Page:27
      122    13608        /*********************************************************************/
      123    13609        /*   Procedure       procedure       procedure       procedure       */
      124    13610        /*********************************************************************/
      125    13611                                                                                    /**/
      126    13612        /*
      127    13613            ***            Begin procedure                    ***
      128    13614        */
      129    13615    1   IF NOT DSEG_FLG

  13615  4 000002   000000 234000 xsym               SZN     DSEG_FLG
         4 000003   000015 604000 4                  TMI     s:13638

      130    13616    2   THEN DO;   /* Get the data segments since we will actually use a word */

      131    13617    2      CALL ASB$GETSEG

  13617  4 000004   000002 631400 xsym               EPPR1   B_VECTNIL+2
         4 000005   000000 701000 xent               TSX1    ASB$GETSEG
         4 000006   000010 702000 4                  TSX2    s:13631
         4 000007   000015 710000 4                  TRA     s:13638

      132    13618    3      WHENALTRETURN DO;

      133    13619              %SCREAM( ERR#=%E$GETSEGERR, LEVEL=ERROR, MID='A' ) ;

  13631  4 000010   000000 630400 5                  EPPR0   0
         4 000011   000017 631400 xsym               EPPR1   B_VECTNIL+15
         4 000012   000000 701000 xent               TSX1    ASH$ERROR
         4 000013   000000 011000                    NOP     0

      134    13634    3         RETURN ;

  13634  4 000014   000000 702200 xent               TSX2  ! X66_ARET

      135    13635    3         END; /*  Whenaltreturn  */
      136    13636                                                                    /**/
      137    13637    2      END;
PL6.E3A0      #001=ASA$DEVICE File=ASA$DEVICE.:E05TSI                            TUE 07/29/97 08:34 Page:28

      138    13638    1   P_PCB.ROOT$ = ADDR( DEVICE_CMD ) ;

  13638  4 000015   000001 236000 5                  LDQ     1
         4 000016   000001 756000 xsym               STQ     P_PCB+1

      139    13639    1   CALL X$PARSE( P_PCB )

  13639  4 000017   000002 630400 5                  EPPR0   2
         4 000020   000017 631400 xsym               EPPR1   B_VECTNIL+15
         4 000021   000000 701000 xent               TSX1    X$PARSE
         4 000022   000105 702000 4                  TSX2    s:13702

      140    13640    2   WHENRETURN DO;

      141    13641    2      TP_DEV.DEV_TYPE = 0;

  13641  4 000023   000000 470400 xsym               LDP0    DSEG3$
         4 000024   000000 450100                    STZ     0,,PR0

      142    13642                                                                                    /**/
      143    13643    2      NODE$ = P_PCB.OUT$ ;

  13643  4 000025   000003 236000 xsym               LDQ     P_PCB+3
         4 000026   000000 756000 xsym               STQ     NODE$

      144    13644    2      IF P$NODE.CODE = 38 /* CR_DEVICE */

  13644  4 000027   000000 470400 xsym               LDP0    NODE$
         4 000030   000000 720100                    LXL0    0,,PR0
         4 000031   000046 100003                    CMPX0   38,DU
         4 000032   000037 601000 4                  TNZ     s:13648

      145    13645    2      THEN
      146    13646    2         CREATE = AS_TRUE ;

  13646  4 000033   000000 236000 xsym               LDQ     AS_TRUE
PL6.E3A0      #001=ASA$DEVICE File=ASA$DEVICE.:E05TSI                            TUE 07/29/97 08:34 Page:29
         4 000034   400000 376003                    ANQ     -131072,DU
         4 000035   200003 756100                    STQ     CREATE,,AUTO
         4 000036   000042 710000 4                  TRA     s:13651

      147    13647    2      ELSE
      148    13648    2         CREATE = AS_FALSE ;

  13648  4 000037   000000 236000 xsym               LDQ     AS_FALSE
         4 000040   400000 376003                    ANQ     -131072,DU
         4 000041   200003 756100                    STQ     CREATE,,AUTO

      149    13649                                                /* Did we get data SEG.?              */
      150    13650                                                /* Pick up acct.                      */
      151    13651    2      BLK$ = P$NODE.SUBLK$(0) -> P$NODE.SUBLK$(0) ;

  13651  4 000042   000003 471500                    LDP1    3,,PR0
         4 000043   100003 236100                    LDQ     3,,PR1
         4 000044   202025 756100                    STQ     BLK$,,AUTO

      152    13652    3      IF OUT$SYM.COUNT > 8 THEN DO;

  13652  4 000045   202025 473500                    LDP3    BLK$,,AUTO
         4 000046   300004 236100                    LDQ     4,,PR3
         4 000047   777000 376003                    ANQ     -512,DU
         4 000050   011000 116003                    CMPQ    4608,DU
         4 000051   000057 602000 4                  TNC     s:13674

      153    13653        /*E*  ERROR:    ASA-E$DNAMETOOBIG-C
      154    13654              MESSAGE:  Device name too long.
      155    13655              MESSAGE1: Device names can be at most 8 characters.
      156    13656        */
      157    13657              %SCREAM( ERR#=E$DNAMETOOBIG , LEVEL=ERROR, MID='A' );

  13669  4 000052   000003 630400 5                  EPPR0   3
         4 000053   000017 631400 xsym               EPPR1   B_VECTNIL+15
         4 000054   000000 701000 xent               TSX1    ASH$ERROR
         4 000055   000000 011000                    NOP     0
PL6.E3A0      #001=ASA$DEVICE File=ASA$DEVICE.:E05TSI                            TUE 07/29/97 08:34 Page:30

      158    13672    3         RETURN ;

  13672  4 000056   000000 702200 xent               TSX2  ! X66_ARET

      159    13673    3         END ; /* Then do */
      160    13674    2      DEV_NAME.COUNT = OUT$SYM.COUNT;

  13674  4 000057   300004 236100                    LDQ     4,,PR3
         4 000060   202032 552140                    STBQ    DEV_NAME,'40'O,AUTO

      161    13675    2      DEV_NAME.TEXT = OUT$SYM.TEXT;

  13675  4 000061   300004 236100                    LDQ     4,,PR3
         4 000062   000033 772000                    QRL     27
         4 000063   000000 620006                    EAX0    0,QL
         4 000064   040100 100540                    MLR     fill='040'O
         4 000065   300004 200010                    ADSC9   4,,PR3                   cn=1,n=*X0
         4 000066   202032 200010                    ADSC9   DEV_NAME,,AUTO           cn=1,n=8

      162    13676    2      DEV_KEY.TXT.UNAME = '*';

  13676  4 000067   040000 100400                    MLR     fill='040'O
         4 000070   000004 000001 5                  ADSC9   4                        cn=0,n=1
         4 000071   000002 200014 2                  ADSC9   DEV_KEY+2                cn=1,n=12

      163    13677    2      DEV_KEY.TXT.ACCT = DEV_NAME.TEXT;

  13677  4 000072   040000 100500                    MLR     fill='040'O
         4 000073   202032 200010                    ADSC9   DEV_NAME,,AUTO           cn=1,n=8
         4 000074   000000 200010 2                  ADSC9   DEV_KEY                  cn=1,n=8

      164    13678    2      DEV_KEY.CNT = 9;

  13678  4 000075   011000 236003                    LDQ     4608,DU
         4 000076   000000 552040 2                  STBQ    DEV_KEY,'40'O

PL6.E3A0      #001=ASA$DEVICE File=ASA$DEVICE.:E05TSI                            TUE 07/29/97 08:34 Page:31
      165    13679    2      SUBNODES = 2;

  13679  4 000077   000002 235007                    LDA     2,DL
         4 000100   202023 755100                    STA     SUBNODES,,AUTO

      166    13680    2      USERS_KEY = DEV_KEY;

  13680  4 000101   000000 100400                    MLR     fill='000'O
         4 000102   000000 000025 2                  ADSC9   DEV_KEY                  cn=0,n=21
         4 000103   000000 000052 xsym               ADSC9   USERS_KEY                cn=0,n=42

      167    13681
      168    13682    2      END;

  13682  4 000104   000267 710000 4                  TRA     s:13794

      169    13683    2   WHENALTRETURN DO;

      170    13684        /* There are 2 forms of the special cr tp command.  The first is-
      171    13685           cr tp account (this will be refered to as type 1).
      172    13686           the second is ct tp account,uname (this will be called type 2).
      173    13687
      174    13688           If the user specifies cr tp as opposed to cr dev then the following
      175    13689           will happen.
      176    13690
      177    13691           We set the DEV_TYPE to 1 (0 is used for the regular cr dev command)
      178    13692           we create the key 'account (padded to 8 chars) *'.
      179    13693           we see if a comma was used (this will denote type 2)
      180    13694           if comma then set DEV_TYPE to 2, put the uname into the sname field
      181    13695            and make the key 'account (to 8 chars) uname'.
      182    13696
      183    13697           Data segment 3 (DSEG3) is used to pass the dev_type and sname
      184    13698           fields to the DEV_OPTS routine.  DEV_OPTS will check the DEV_TYPE,
      185    13699           if it's > 0 then use=tp will be simulated.  If the DEV_TYPE is 2
      186    13700           then the sname=uname option will be simulated.
      187    13701        */
      188    13702    2      P_PCB.ROOT$ = ADDR (TP_DEVICE_CMD);
PL6.E3A0      #001=ASA$DEVICE File=ASA$DEVICE.:E05TSI                            TUE 07/29/97 08:34 Page:32

  13702  4 000105   000005 236000 5                  LDQ     5
         4 000106   000001 756000 xsym               STQ     P_PCB+1

      189    13703    2      CALL X$PARSE (P_PCB)

  13703  4 000107   000002 630400 5                  EPPR0   2
         4 000110   000017 631400 xsym               EPPR1   B_VECTNIL+15
         4 000111   000000 701000 xent               TSX1    X$PARSE
         4 000112   000114 702000 4                  TSX2    s:13705
         4 000113   000121 710000 4                  TRA     s:13709

      190    13704    3      WHENALTRETURN DO;

      191    13705    3         CALL ASH$ERROR( P_PCB.ERROR ) ;

  13705  4 000114   000006 630400 5                  EPPR0   6
         4 000115   000017 631400 xsym               EPPR1   B_VECTNIL+15
         4 000116   000000 701000 xent               TSX1    ASH$ERROR
         4 000117   000000 011000                    NOP     0

      192    13706    3         RETURN ;

  13706  4 000120   000000 702200 xent               TSX2  ! X66_ARET

      193    13707    3         END; /*  Whenaltreturn  */
      194    13708                                                                    /**/
      195    13709    2      SUBNODES = 3;

  13709  4 000121   000003 235007                    LDA     3,DL
         4 000122   202023 755100                    STA     SUBNODES,,AUTO

      196    13710    2      NODE$ = P_PCB.OUT$;

  13710  4 000123   000003 236000 xsym               LDQ     P_PCB+3
         4 000124   000000 756000 xsym               STQ     NODE$

PL6.E3A0      #001=ASA$DEVICE File=ASA$DEVICE.:E05TSI                            TUE 07/29/97 08:34 Page:33
      197    13711    2      IF P$NODE.CODE = 38 /* CR_DEVICE */

  13711  4 000125   000000 470400 xsym               LDP0    NODE$
         4 000126   000000 720100                    LXL0    0,,PR0
         4 000127   000046 100003                    CMPX0   38,DU
         4 000130   000135 601000 4                  TNZ     s:13715

      198    13712    2      THEN
      199    13713    2         CREATE = AS_TRUE ;

  13713  4 000131   000000 236000 xsym               LDQ     AS_TRUE
         4 000132   400000 376003                    ANQ     -131072,DU
         4 000133   200003 756100                    STQ     CREATE,,AUTO
         4 000134   000140 710000 4                  TRA     s:13716

      200    13714    2      ELSE
      201    13715    2         CREATE = AS_FALSE ;

  13715  4 000135   000000 236000 xsym               LDQ     AS_FALSE
         4 000136   400000 376003                    ANQ     -131072,DU
         4 000137   200003 756100                    STQ     CREATE,,AUTO

      202    13716    2      TP_DEV.DEV_TYPE = 1;

  13716  4 000140   000001 235007                    LDA     1,DL
         4 000141   000000 471400 xsym               LDP1    DSEG3$
         4 000142   100000 755100                    STA     0,,PR1

      203    13717    2      ACCT = NODE$->P$NODE.SUBLK$(0)->P$NODE.SUBLK$(0)->OUT$SYM.TEXT;

  13717  4 000143   000000 470400 xsym               LDP0    NODE$
         4 000144   000003 471500                    LDP1    3,,PR0
         4 000145   100003 473500                    LDP3    3,,PR1
         4 000146   300004 236100                    LDQ     4,,PR3
         4 000147   000033 772000                    QRL     27
         4 000150   000000 620006                    EAX0    0,QL
         4 000151   040100 100540                    MLR     fill='040'O
PL6.E3A0      #001=ASA$DEVICE File=ASA$DEVICE.:E05TSI                            TUE 07/29/97 08:34 Page:34
         4 000152   300004 200010                    ADSC9   4,,PR3                   cn=1,n=*X0
         4 000153   202016 000010                    ADSC9   ACCT,,AUTO               cn=0,n=8

      204    13718    2      DEV_KEY.TXT.ACCT = ACCT;

  13718  4 000154   040000 100500                    MLR     fill='040'O
         4 000155   202016 000010                    ADSC9   ACCT,,AUTO               cn=0,n=8
         4 000156   000000 200010 2                  ADSC9   DEV_KEY                  cn=1,n=8

      205    13719    2      DEV_KEY.TXT.UNAME = '*';

  13719  4 000157   040000 100400                    MLR     fill='040'O
         4 000160   000004 000001 5                  ADSC9   4                        cn=0,n=1
         4 000161   000002 200014 2                  ADSC9   DEV_KEY+2                cn=1,n=12

      206    13720    2      DEV_KEY.CNT = 9;

  13720  4 000162   011000 236003                    LDQ     4608,DU
         4 000163   000000 552040 2                  STBQ    DEV_KEY,'40'O

      207    13721    2      IF P$NODE.SUBNODES > 1

  13721  4 000164   000001 220100                    LDX0    1,,PR0
         4 000165   000002 100003                    CMPX0   2,DU
         4 000166   000254 602000 4                  TNC     s:13790

      208    13722    3      THEN DO;

      209    13723    3         IF P$NODE.SUBLK$(1)->P$NODE.CODE = 56 /* TPDEV_ACCT2_VAL */

  13723  4 000167   000004 471500                    LDP1    4,,PR0
         4 000170   100000 721100                    LXL1    0,,PR1
         4 000171   000070 101003                    CMPX1   56,DU
         4 000172   000247 601000 4                  TNZ     s:13785

      210    13724    4         THEN DO;

PL6.E3A0      #001=ASA$DEVICE File=ASA$DEVICE.:E05TSI                            TUE 07/29/97 08:34 Page:35
      211    13725    4            SUBNODES = 3;

  13725  4 000173   000003 235007                    LDA     3,DL
         4 000174   202023 755100                    STA     SUBNODES,,AUTO

      212    13726    4            TP_DEV.DEV_TYPE = 2;

  13726  4 000175   000002 235007                    LDA     2,DL
         4 000176   000000 473400 xsym               LDP3    DSEG3$
         4 000177   300000 755100                    STA     0,,PR3

      213    13727    4            UNAME = NODE$->P$NODE.SUBLK$(1)->P$NODE.SUBLK$(0)->OUT$SYM.TEXT;

  13727  4 000200   000000 470400 xsym               LDP0    NODE$
         4 000201   000004 471500                    LDP1    4,,PR0
         4 000202   100003 473500                    LDP3    3,,PR1
         4 000203   300004 236100                    LDQ     4,,PR3
         4 000204   000033 772000                    QRL     27
         4 000205   000000 620006                    EAX0    0,QL
         4 000206   040100 100540                    MLR     fill='040'O
         4 000207   300004 200010                    ADSC9   4,,PR3                   cn=1,n=*X0
         4 000210   202020 000014                    ADSC9   UNAME,,AUTO              cn=0,n=12

      214    13728    4            UNAME_LEN = NODE$->P$NODE.SUBLK$(1)->P$NODE.SUBLK$(0)->OUT$SYM.COUNT;

  13728  4 000211   202024 756100                    STQ     UNAME_LEN,,AUTO

      215    13729    4            DEV_KEY.CNT = 8 + UNAME_LEN;

  13729  4 000212   000010 036007                    ADLQ    8,DL
         4 000213   000033 736000                    QLS     27
         4 000214   000000 552040 2                  STBQ    DEV_KEY,'40'O

      216    13730    4            IF UNAME_LEN > 8

  13730  4 000215   202024 236100                    LDQ     UNAME_LEN,,AUTO
         4 000216   000011 116007                    CMPQ    9,DL
PL6.E3A0      #001=ASA$DEVICE File=ASA$DEVICE.:E05TSI                            TUE 07/29/97 08:34 Page:36
         4 000217   000226 602000 4                  TNC     s:13755

      217    13731    5            THEN DO;

      218    13732        /*E*    ERROR: ASA-E$TPDEVSNAMETOOBIG-C
      219    13733             MESSAGE: Max size of a TP SNAME is 8 characters, UNAME will be truncated to 8.
      220    13734                MESSAGE1: The UNAME is used as the SNAME also, there is an 8 character
      221    13735                         limit on the SNAME which will cause truncation of the
      222    13736                         UNAME to 8 characters.
      223    13737        */
      224    13738                    %SCREAM (ERR#=E$TPDEVSNAMETOOBIG, LEVEL=WARN, MID='A');

  13748  4 000220   000007 630400 5                  EPPR0   7
         4 000221   000017 631400 xsym               EPPR1   B_VECTNIL+15
         4 000222   000000 701000 xent               TSX1    ASH$WARN
         4 000223   000000 011000                    NOP     0

      225    13753    5               UNAME_LEN = 8;

  13753  4 000224   000010 235007                    LDA     8,DL
         4 000225   202024 755100                    STA     UNAME_LEN,,AUTO

      226    13754    5               END;

      227    13755    4            IF (SUBSTR( UNAME, 1, 2) = '$$')

  13755  4 000226   040000 106500                    CMPC    fill='040'O
         4 000227   202020 200002                    ADSC9   UNAME,,AUTO              cn=1,n=2
         4 000230   000003 000002 3                  ADSC9   3                        cn=0,n=2
         4 000231   000237 601000 4                  TNZ     s:13781

      228    13756    5            THEN DO;

      229    13757        /*      ERROR: ASA-E$NO$$ONSNAME-0
      230    13758                MESSAGE1: The sname of a cg type device cannot start with '$$'.
      231    13759                MESSAGE2: Comgroups do not allow '$$' as the first 2 characters
      232    13760                          of a name.
PL6.E3A0      #001=ASA$DEVICE File=ASA$DEVICE.:E05TSI                            TUE 07/29/97 08:34 Page:37
      233    13761                DESCRIPTION: You tried to specify an sname with '$$' as the
      234    13762                         first two characters, this is a no-no!
      235    13763        */
      236    13764                    %SCREAM (ERR#=E$NO$$ONSNAME, LEVEL=ERROR, MID='A');

  13776  4 000232   000010 630400 5                  EPPR0   8
         4 000233   000017 631400 xsym               EPPR1   B_VECTNIL+15
         4 000234   000000 701000 xent               TSX1    ASH$ERROR
         4 000235   000000 011000                    NOP     0

      237    13779    5               RETURN;

  13779  4 000236   000000 702200 xent               TSX2  ! X66_ARET

      238    13780    5               END;
      239    13781    4            TP_DEV.SNAME = UNAME;

  13781  4 000237   000000 470400 xsym               LDP0    DSEG3$
         4 000240   202020 237100                    LDAQ    UNAME,,AUTO
         4 000241   000001 755100                    STA     1,,PR0
         4 000242   000002 756100                    STQ     2,,PR0

      240    13782    4            DEV_KEY.TXT.UNAME = UNAME;

  13782  4 000243   040000 100500                    MLR     fill='040'O
         4 000244   202020 000014                    ADSC9   UNAME,,AUTO              cn=0,n=12
         4 000245   000002 200014 2                  ADSC9   DEV_KEY+2                cn=1,n=12

      241    13783    4            END;

  13783  4 000246   000254 710000 4                  TRA     s:13790

      242    13784    4         ELSE DO; /* No uname specified */

      243    13785    4            UNAME_LEN = 1;

  13785  4 000247   202024 755100                    STA     UNAME_LEN,,AUTO
PL6.E3A0      #001=ASA$DEVICE File=ASA$DEVICE.:E05TSI                            TUE 07/29/97 08:34 Page:38

      244    13786    4            UNAME = '*';

  13786  4 000250   040100 100400                    MLR     fill='040'O
         4 000251   000004 000001 5                  ADSC9   4                        cn=0,n=1
         4 000252   202020 000014                    ADSC9   UNAME,,AUTO              cn=0,n=12

      245    13787    4            DEV_KEY.CNT = 9;

  13787  4 000253   000000 552040 2                  STBQ    DEV_KEY,'40'O

      246    13788    4            END;

      247    13789    3         END;

      248    13790    2      USERS_KEY.COUNT = DEV_KEY.CNT;

  13790  4 000254   000000 236000 2                  LDQ     DEV_KEY
         4 000255   000000 552040 xsym               STBQ    USERS_KEY,'40'O

      249    13791    2      CALL CONCAT (USERS_KEY.TXTC, ACCT, UNAME);

  13791  4 000256   040000 100500                    MLR     fill='040'O
         4 000257   202016 000010                    ADSC9   ACCT,,AUTO               cn=0,n=8
         4 000260   000000 200010 xsym               ADSC9   USERS_KEY                cn=1,n=8
         4 000261   040000 100500                    MLR     fill='040'O
         4 000262   202020 000014                    ADSC9   UNAME,,AUTO              cn=0,n=12
         4 000263   000002 200041 xsym               ADSC9   USERS_KEY+2              cn=1,n=33

      250    13792    2      DEV_NAME = USERS_KEY;

  13792  4 000264   000100 100400                    MLR     fill='000'O
         4 000265   000000 000011 xsym               ADSC9   USERS_KEY                cn=0,n=9
         4 000266   202032 000011                    ADSC9   DEV_NAME,,AUTO           cn=0,n=9

      251    13793    2      END;

PL6.E3A0      #001=ASA$DEVICE File=ASA$DEVICE.:E05TSI                            TUE 07/29/97 08:34 Page:39
      252    13794    1   DREC$ = ADDR( KLDREC ) ;

  13794  4 000267   200005 630500                    EPPR0   KLDREC,,AUTO
         4 000270   202027 450500                    STP0    DREC$,,AUTO

      253    13795    1   ARS = LENGTHC( KLDREC ) ;

  13795  4 000271   010000 235007                    LDA     4096,DL
         4 000272   202014 755100                    STA     ARS,,AUTO

      254    13796    1   CALL ASB$ENQ_HLP ALTRET( ENQ_ERR2 ) ;

  13796  4 000273   000002 631400 xsym               EPPR1   B_VECTNIL+2
         4 000274   000000 701000 xent               TSX1    ASB$ENQ_HLP
         4 000275   000775 702000 4                  TSX2    ENQ_ERR2

      255    13797    1   CALL ASB$READ_HLP( DREC$, ARS )

  13797  4 000276   202014 630500                    EPPR0   ARS,,AUTO
         4 000277   202057 450500                    STP0    TWSN_REC+18,,AUTO
         4 000300   202027 631500                    EPPR1   DREC$,,AUTO
         4 000301   202056 451500                    STP1    TWSN_REC+17,,AUTO
         4 000302   202056 630500                    EPPR0   TWSN_REC+17,,AUTO
         4 000303   000020 631400 xsym               EPPR1   B_VECTNIL+16
         4 000304   000000 701000 xent               TSX1    ASB$READ_HLP
         4 000305   000341 702000 4                  TSX2    s:13828

      256    13798    2   WHENRETURN DO;

      257    13799                                              /* Device exists                      */
      258    13800    2     CALL ASB$CHECK_TYPE(DREC$,ARS, 11 /* CG DEVICE */, CREATE, DEV_NAME) ALTRET(EXIT#
             13800               );

  13800  4 000306   202032 630500                    EPPR0   DEV_NAME,,AUTO
         4 000307   202062 450500                    STP0    TWSN_REC+21,,AUTO
         4 000310   200003 631500                    EPPR1   CREATE,,AUTO
         4 000311   202061 451500                    STP1    TWSN_REC+20,,AUTO
PL6.E3A0      #001=ASA$DEVICE File=ASA$DEVICE.:E05TSI                            TUE 07/29/97 08:34 Page:40
         4 000312   000011 236000 5                  LDQ     9
         4 000313   202060 756100                    STQ     TWSN_REC+19,,AUTO
         4 000314   202014 633500                    EPPR3   ARS,,AUTO
         4 000315   202057 453500                    STP3    TWSN_REC+18,,AUTO
         4 000316   202027 634500                    EPPR4   DREC$,,AUTO
         4 000317   202056 454500                    STP4    TWSN_REC+17,,AUTO
         4 000320   202056 630500                    EPPR0   TWSN_REC+17,,AUTO
         4 000321   000023 631400 xsym               EPPR1   B_VECTNIL+19
         4 000322   000000 701000 xent               TSX1    ASB$CHECK_TYPE
         4 000323   000775 702000 4                  TSX2    ENQ_ERR2

      259    13801    3      IF CREATE THEN DO ;

  13801  4 000324   200003 234100                    SZN     CREATE,,AUTO
         4 000325   000336 605000 4                  TPL     s:13824

      260    13802           /*E*  ERROR:    ASA-E$DEVEXISTS-C
      261    13803                 MESSAGE:  Device exists.
      262    13804                 MESSAGE1: Device %"%U1" %already exists.
      263    13805           */
      264    13806    3         AS_FIELD1 = DEV_NAME;

  13806  4 000326   000000 100500                    MLR     fill='000'O
         4 000327   202032 000011                    ADSC9   DEV_NAME,,AUTO           cn=0,n=9
         4 000330   000000 000051 xsym               ADSC9   AS_FIELD1                cn=0,n=41

      265    13807              %SCREAM( ERR#=E$DEVEXISTS, LEVEL=ERROR, MID='A' ) ;

  13819  4 000331   000012 630400 5                  EPPR0   10
         4 000332   000017 631400 xsym               EPPR1   B_VECTNIL+15
         4 000333   000000 701000 xent               TSX1    ASH$ERROR
         4 000334   000000 011000                    NOP     0

      266    13822    3         RETURN ;

  13822  4 000335   000000 702200 xent               TSX2  ! X66_ARET

PL6.E3A0      #001=ASA$DEVICE File=ASA$DEVICE.:E05TSI                            TUE 07/29/97 08:34 Page:41
      267    13823    3         END ;                        /* Then do                            */
      268    13824    2      DEV_ARS = ARS ;

  13824  4 000336   202014 235100                    LDA     ARS,,AUTO
         4 000337   202012 755100                    STA     DEV_ARS,,AUTO

      269    13825    2      END; /*  Whenreturn  */

  13825  4 000340   000352 710000 4                  TRA     s:13852

      270    13826    2   WHENALTRETURN DO;

      271    13827                                                                    /**/
      272    13828    3      IF NOT CREATE THEN DO;       /* If create then ok as is     */

  13828  4 000341   200003 234100                    SZN     CREATE,,AUTO
         4 000342   000352 604000 4                  TMI     s:13852

      273    13829           /*E*  ERROR:    ASA-E$DEVSWITCH-C
      274    13830                 MESSAGE:  ** Device does not exist. Switching to CREATE mode.
      275    13831           */
      276    13832              %SCREAM( ERR#=E$DEVSWITCH, LEVEL=ERROR, MID='A' ) ;

  13844  4 000343   000013 630400 5                  EPPR0   11
         4 000344   000017 631400 xsym               EPPR1   B_VECTNIL+15
         4 000345   000000 701000 xent               TSX1    ASH$ERROR
         4 000346   000000 011000                    NOP     0

      277    13847    3         CREATE = AS_TRUE ;

  13847  4 000347   000000 236000 xsym               LDQ     AS_TRUE
         4 000350   400000 376003                    ANQ     -131072,DU
         4 000351   200003 756100                    STQ     CREATE,,AUTO

      278    13848    3         END; /*  If not create  */

      279    13849    2      END; /*  Whenaltreturn  */
PL6.E3A0      #001=ASA$DEVICE File=ASA$DEVICE.:E05TSI                            TUE 07/29/97 08:34 Page:42

      280    13850                                                              /* Check to see if
      281    13851                                                                 'FOR' was specified. */
      282    13852    1   IF P$NODE.SUBNODES > SUBNODES

  13852  4 000352   000000 470400 xsym               LDP0    NODE$
         4 000353   000001 236100                    LDQ     1,,PR0
         4 000354   000022 772000                    QRL     18
         4 000355   202023 116100                    CMPQ    SUBNODES,,AUTO
         4 000356   000462 602000 4                  TNC     s:13929
         4 000357   000462 600000 4                  TZE     s:13929

      283    13853    1   THEN                            /* Yes it was                         */
      284    13854    2   DO ;

      285    13855    2      BLK$ = P$NODE.SUBLK$(SUBNODES-1) -> P$NODE.SUBLK$(0) ;

  13855  4 000360   202023 720100                    LXL0    SUBNODES,,AUTO
         4 000361   000002 471510                    LDP1    2,X0,PR0
         4 000362   100003 236100                    LDQ     3,,PR1
         4 000363   202025 756100                    STQ     BLK$,,AUTO

      286    13856    2      IF OUT$SYM.COUNT > 8

  13856  4 000364   202025 473500                    LDP3    BLK$,,AUTO
         4 000365   300004 236100                    LDQ     4,,PR3
         4 000366   777000 376003                    ANQ     -512,DU
         4 000367   011000 116003                    CMPQ    4608,DU
         4 000370   000376 602000 4                  TNC     s:13876

      287    13857    2      THEN
      288    13858    3      DO ;

      289    13859              %SCREAM( ERR#=E$DNAMETOOBIG, MID='A', LEVEL=ERROR );

  13871  4 000371   000003 630400 5                  EPPR0   3
         4 000372   000017 631400 xsym               EPPR1   B_VECTNIL+15
PL6.E3A0      #001=ASA$DEVICE File=ASA$DEVICE.:E05TSI                            TUE 07/29/97 08:34 Page:43
         4 000373   000000 701000 xent               TSX1    ASH$ERROR
         4 000374   000000 011000                    NOP     0

      290    13874    3         RETURN ;

  13874  4 000375   000000 702200 xent               TSX2  ! X66_ARET

      291    13875    3         END ;                     /* Then do                            */
      292    13876    2      SNAME = OUT$SYM.TEXT ;

  13876  4 000376   300004 236100                    LDQ     4,,PR3
         4 000377   000033 772000                    QRL     27
         4 000400   000000 621006                    EAX1    0,QL
         4 000401   040100 100540                    MLR     fill='040'O
         4 000402   300004 200011                    ADSC9   4,,PR3                   cn=1,n=*X1
         4 000403   202005 000010                    ADSC9   SNAME,,AUTO              cn=0,n=8

      293    13877    3      IF NOT CREATE AND KL$DREC.SNAME ~= SNAME THEN DO;

  13877  4 000404   200003 234100                    SZN     CREATE,,AUTO
         4 000405   000474 604000 4                  TMI     s:13932
         4 000406   202027 474500                    LDP4    DREC$,,AUTO
         4 000407   040100 106500                    CMPC    fill='040'O
         4 000410   400015 000010                    ADSC9   13,,PR4                  cn=0,n=8
         4 000411   202005 000010                    ADSC9   SNAME,,AUTO              cn=0,n=8
         4 000412   000474 600000 4                  TZE     s:13932

      294    13878    4         IF KL$DREC.SNAME = ' *NOTRM*' THEN DO;

  13878  4 000413   040000 106500                    CMPC    fill='040'O
         4 000414   400015 000010                    ADSC9   13,,PR4                  cn=0,n=8
         4 000415   000007 000010 3                  ADSC9   7                        cn=0,n=8
         4 000416   000424 601000 4                  TNZ     s:13903

      295    13879        /*E*  ERROR:  ASA-E$TERM_NOT_MEANINGFUL-C
      296    13880        MESSAGE: FOR TERMINAL or STATION is not meaningful for USE=CG or USE=TP devices.
      297    13881        MESSAGE1: USE=CG or USE=TP devices are not created for a terminal or a station.
PL6.E3A0      #001=ASA$DEVICE File=ASA$DEVICE.:E05TSI                            TUE 07/29/97 08:34 Page:44
      298    13882        */
      299    13883                 %SCREAM( ERR#=E$TERM_NOT_MEANINGFUL, LEVEL=WARN, MID='A' );

  13893  4 000417   000014 630400 5                  EPPR0   12
         4 000420   000017 631400 xsym               EPPR1   B_VECTNIL+15
         4 000421   000000 701000 xent               TSX1    ASH$WARN
         4 000422   000000 011000                    NOP     0

      300    13898    4            END;

  13898  4 000423   000455 710000 4                  TRA     s:13925

      301    13899    4         ELSE DO;

      302    13900        /*E* ERROR:   ASA-E$DEV_FOR_WRONG-C
      303    13901             MESSAGE: Warning:  Device %U1 was created for %U2, not %U3.
      304    13902        */
      305    13903    4            AS_FIELD1 = DEV_NAME;

  13903  4 000424   000000 100500                    MLR     fill='000'O
         4 000425   202032 000011                    ADSC9   DEV_NAME,,AUTO           cn=0,n=9
         4 000426   000000 000051 xsym               ADSC9   AS_FIELD1                cn=0,n=41

      306    13904    4            CALL INDEX( I, AS_BLANK, KL$DREC.SNAME );

  13904  4 000427   000000 124500                    SCM     mask='000'O
         4 000430   400015 000010                    ADSC9   13,,PR4                  cn=0,n=8
         4 000431   000000 000001 xsym               ADSC9   AS_BLANK                 cn=0,n=1
         4 000432   202015 000100                    ARG     I,,AUTO

      307    13905    4            AS_FIELD2.COUNT = I;

  13905  4 000433   202015 236100                    LDQ     I,,AUTO
         4 000434   000033 736000                    QLS     27
         4 000435   000000 552040 xsym               STBQ    AS_FIELD2,'40'O

      308    13906    4            AS_FIELD2.TEXT  = KL$DREC.SNAME ;
PL6.E3A0      #001=ASA$DEVICE File=ASA$DEVICE.:E05TSI                            TUE 07/29/97 08:34 Page:45

  13906  4 000436   040000 100500                    MLR     fill='040'O
         4 000437   400015 000010                    ADSC9   13,,PR4                  cn=0,n=8
         4 000440   000000 200050 xsym               ADSC9   AS_FIELD2                cn=1,n=40

      309    13907    4            AS_FIELD3.COUNT = OUT$SYM.COUNT ;

  13907  4 000441   300004 236100                    LDQ     4,,PR3
         4 000442   000000 552040 xsym               STBQ    AS_FIELD3,'40'O

      310    13908    4            AS_FIELD3.TEXT  = OUT$SYM.TEXT ;

  13908  4 000443   300004 236100                    LDQ     4,,PR3
         4 000444   000033 772000                    QRL     27
         4 000445   000000 621006                    EAX1    0,QL
         4 000446   040000 100540                    MLR     fill='040'O
         4 000447   300004 200011                    ADSC9   4,,PR3                   cn=1,n=*X1
         4 000450   000000 200050 xsym               ADSC9   AS_FIELD3                cn=1,n=40

      311    13909                 %SCREAM( ERR#=E$DEV_FOR_WRONG, MID='A', LEVEL=WARN );

  13919  4 000451   000015 630400 5                  EPPR0   13
         4 000452   000017 631400 xsym               EPPR1   B_VECTNIL+15
         4 000453   000000 701000 xent               TSX1    ASH$WARN
         4 000454   000000 011000                    NOP     0

      312    13924    4            END;

      313    13925    3         SNAME = KL$DREC.SNAME;

  13925  4 000455   202027 470500                    LDP0    DREC$,,AUTO
         4 000456   040100 100500                    MLR     fill='040'O
         4 000457   000015 000010                    ADSC9   13,,PR0                  cn=0,n=8
         4 000460   202005 000010                    ADSC9   SNAME,,AUTO              cn=0,n=8

      314    13926    3         END;

PL6.E3A0      #001=ASA$DEVICE File=ASA$DEVICE.:E05TSI                            TUE 07/29/97 08:34 Page:46
      315    13927    2      END ;                        /* Then do                            */

  13927  4 000461   000474 710000 4                  TRA     s:13932

      316    13928    1   ELSE                            /* No it wasn't                       */
      317    13929    1      IF CREATE

  13929  4 000462   200003 234100                    SZN     CREATE,,AUTO
         4 000463   000470 605000 4                  TPL     s:13931

      318    13930    1      THEN SNAME = 'LOCAL';

  13930  4 000464   040100 100400                    MLR     fill='040'O
         4 000465   000013 000005 3                  ADSC9   11                       cn=0,n=5
         4 000466   202005 000010                    ADSC9   SNAME,,AUTO              cn=0,n=8
         4 000467   000474 710000 4                  TRA     s:13932

      319    13931    1      ELSE SNAME = KL$DREC.SNAME ;

  13931  4 000470   202027 471500                    LDP1    DREC$,,AUTO
         4 000471   040100 100500                    MLR     fill='040'O
         4 000472   100015 000010                    ADSC9   13,,PR1                  cn=0,n=8
         4 000473   202005 000010                    ADSC9   SNAME,,AUTO              cn=0,n=8

      320    13932    2   IF SNAME = ' *NOTRM*' THEN DO;

  13932  4 000474   040000 106500                    CMPC    fill='040'O
         4 000475   202005 000010                    ADSC9   SNAME,,AUTO              cn=0,n=8
         4 000476   000007 000010 3                  ADSC9   7                        cn=0,n=8
         4 000477   000504 601000 4                  TNZ     s:13937

      321    13933    2      TWSN_INDEX = 0;

  13933  4 000500   202011 450100                    STZ     TWSN_INDEX,,AUTO

      322    13934    2      TWSNR$ = ADDR(TWSN_REC);

PL6.E3A0      #001=ASA$DEVICE File=ASA$DEVICE.:E05TSI                            TUE 07/29/97 08:34 Page:47
  13934  4 000501   202035 630500                    EPPR0   TWSN_REC,,AUTO
         4 000502   202031 450500                    STP0    TWSNR$,,AUTO

      323    13935    2      END;

  13935  4 000503   000637 710000 4                  TRA     s:14001

      324    13936    2   ELSE DO;

      325    13937    2      CALL CONCAT( USERS_KEY.TXTC, SNAME, 'STATION' );

  13937  4 000504   040000 100500                    MLR     fill='040'O
         4 000505   202005 000010                    ADSC9   SNAME,,AUTO              cn=0,n=8
         4 000506   000000 200010 xsym               ADSC9   USERS_KEY                cn=1,n=8
         4 000507   040000 100400                    MLR     fill='040'O
         4 000510   000015 000007 3                  ADSC9   13                       cn=0,n=7
         4 000511   000002 200041 xsym               ADSC9   USERS_KEY+2              cn=1,n=33

      326    13938    2      USERS_KEY.COUNT = 15;

  13938  4 000512   017000 236003                    LDQ     7680,DU
         4 000513   000000 552040 xsym               STBQ    USERS_KEY,'40'O

      327    13939                                                /* Pick up terminal record            */
      328    13940    2      TREC$ = DSEG1$ ;

  13940  4 000514   000000 236000 xsym               LDQ     DSEG1$
         4 000515   202026 756100                    STQ     TREC$,,AUTO

      329    13941    2      ARS = DSEG1SIZE ;

  13941  4 000516   000000 235000 xsym               LDA     DSEG1SIZE
         4 000517   202014 755100                    STA     ARS,,AUTO

      330    13942    2      CALL ASB$READ_HLP( TREC$, ARS )

  13942  4 000520   202014 630500                    EPPR0   ARS,,AUTO
PL6.E3A0      #001=ASA$DEVICE File=ASA$DEVICE.:E05TSI                            TUE 07/29/97 08:34 Page:48
         4 000521   202057 450500                    STP0    TWSN_REC+18,,AUTO
         4 000522   202026 631500                    EPPR1   TREC$,,AUTO
         4 000523   202056 451500                    STP1    TWSN_REC+17,,AUTO
         4 000524   202056 630500                    EPPR0   TWSN_REC+17,,AUTO
         4 000525   000020 631400 xsym               EPPR1   B_VECTNIL+16
         4 000526   000000 701000 xent               TSX1    ASB$READ_HLP
         4 000527   000531 702000 4                  TSX2    s:13944
         4 000530   000541 710000 4                  TRA     s:13964

      331    13943    3      WHENALTRETURN DO;

      332    13944    3         AS_FIELD1 = USERS_KEY;

  13944  4 000531   000000 100400                    MLR     fill='000'O
         4 000532   000000 000051 xsym               ADSC9   USERS_KEY                cn=0,n=41
         4 000533   000000 000051 xsym               ADSC9   AS_FIELD1                cn=0,n=41

      333    13945              %SCREAM( ERR#=E$TERMINAL_NOEXIST, MID='A', LEVEL=ERROR ) ;

  13957  4 000534   000016 630400 5                  EPPR0   14
         4 000535   000017 631400 xsym               EPPR1   B_VECTNIL+15
         4 000536   000000 701000 xent               TSX1    ASH$ERROR
         4 000537   000000 011000                    NOP     0

      334    13960    3         RETURN ;

  13960  4 000540   000000 702200 xent               TSX2  ! X66_ARET

      335    13961    3         END; /*  Whenaltreturn  */
      336    13962                                                                    /**/
      337    13963                                                /* Get twsn number                    */
      338    13964    2      TWSNC = KL$TREC.TWSN# ;

  13964  4 000541   202026 470500                    LDP0    TREC$,,AUTO
         4 000542   000001 236100                    LDQ     1,,PR0
         4 000543   202007 756100                    STQ     TWSNC,,AUTO

PL6.E3A0      #001=ASA$DEVICE File=ASA$DEVICE.:E05TSI                            TUE 07/29/97 08:34 Page:49
      339    13965    2      CALL CHARBIN( TWSN#, TWSNC ) ;

  13965  4 000544   000100 305500                    DTB
         4 000545   202007 030004                    NDSC9   TWSNC,,AUTO              cn=0,s=nosgn,sf=0,n=4
         4 000546   202056 000010                    NDSC9   TWSN_REC+17,,AUTO        cn=0,s=lsgnf,sf=0,n=8
         4 000547   202057 235100                    LDA     TWSN_REC+18,,AUTO
         4 000550   202010 755100                    STA     TWSN#,,AUTO

      340    13966                                                /* Pick up twsn record                */
      341    13967    2      CALL CONCAT( USERS_KEY.TXTC, 'TWSN', TWSNC ) ;

  13967  4 000551   040000 100400                    MLR     fill='040'O
         4 000552   000020 000004 3                  ADSC9   16                       cn=0,n=4
         4 000553   000000 200004 xsym               ADSC9   USERS_KEY                cn=1,n=4
         4 000554   040000 100500                    MLR     fill='040'O
         4 000555   202007 000004                    ADSC9   TWSNC,,AUTO              cn=0,n=4
         4 000556   000001 200045 xsym               ADSC9   USERS_KEY+1              cn=1,n=37

      342    13968    2      USERS_KEY.COUNT = 8 ;

  13968  4 000557   010000 236003                    LDQ     4096,DU
         4 000560   000000 552040 xsym               STBQ    USERS_KEY,'40'O

      343    13969    2      TWSNR$ = DSEG2$ ;

  13969  4 000561   000000 236000 xsym               LDQ     DSEG2$
         4 000562   202031 756100                    STQ     TWSNR$,,AUTO

      344    13970    2      TWSN_ARS = DSEG2SIZE ;

  13970  4 000563   000000 235000 xsym               LDA     DSEG2SIZE
         4 000564   202013 755100                    STA     TWSN_ARS,,AUTO

      345    13971    2      CALL ASB$ENQ_HLP ALTRET( ENQ_ERR2 ) ;

  13971  4 000565   000002 631400 xsym               EPPR1   B_VECTNIL+2
         4 000566   000000 701000 xent               TSX1    ASB$ENQ_HLP
PL6.E3A0      #001=ASA$DEVICE File=ASA$DEVICE.:E05TSI                            TUE 07/29/97 08:34 Page:50
         4 000567   000775 702000 4                  TSX2    ENQ_ERR2

      346    13972    2      CALL ASB$READ_HLP( TWSNR$, TWSN_ARS )

  13972  4 000570   202013 630500                    EPPR0   TWSN_ARS,,AUTO
         4 000571   202057 450500                    STP0    TWSN_REC+18,,AUTO
         4 000572   202031 631500                    EPPR1   TWSNR$,,AUTO
         4 000573   202056 451500                    STP1    TWSN_REC+17,,AUTO
         4 000574   202056 630500                    EPPR0   TWSN_REC+17,,AUTO
         4 000575   000020 631400 xsym               EPPR1   B_VECTNIL+16
         4 000576   000000 701000 xent               TSX1    ASB$READ_HLP
         4 000577   000601 702000 4                  TSX2    s:13974
         4 000600   000611 710000 4                  TRA     s:13994

      347    13973    3      WHENALTRETURN DO;

      348    13974    3         AS_FIELD1 = USERS_KEY ;

  13974  4 000601   000000 100400                    MLR     fill='000'O
         4 000602   000000 000051 xsym               ADSC9   USERS_KEY                cn=0,n=41
         4 000603   000000 000051 xsym               ADSC9   AS_FIELD1                cn=0,n=41

      349    13975              %SCREAM( ERR#=E$TERM_NO_EXIST, LEVEL=ERROR, MID='A' ) ;

  13987  4 000604   000017 630400 5                  EPPR0   15
         4 000605   000017 631400 xsym               EPPR1   B_VECTNIL+15
         4 000606   000000 701000 xent               TSX1    ASH$ERROR
         4 000607   000000 011000                    NOP     0

      350    13990    3         RETURN ;

  13990  4 000610   000000 702200 xent               TSX2  ! X66_ARET

      351    13991    3         END; /*  Whenaltreturn  */
      352    13992                                                                    /**/
      353    13993                                                /* Get twsn record index for device */
      354    13994    2      IF CREATE THEN
PL6.E3A0      #001=ASA$DEVICE File=ASA$DEVICE.:E05TSI                            TUE 07/29/97 08:34 Page:51

  13994  4 000611   200003 234100                    SZN     CREATE,,AUTO
         4 000612   000617 605000 4                  TPL     s:13997

      355    13995    2         TWSN_INDEX = KL$TWSNREC.NDEV ;

  13995  4 000613   202031 470500                    LDP0    TWSNR$,,AUTO
         4 000614   000004 235100                    LDA     4,,PR0
         4 000615   202011 755100                    STA     TWSN_INDEX,,AUTO
         4 000616   000637 710000 4                  TRA     s:14001

      356    13996    2      ELSE
      357    13997    2         CALL ASB$FIND_TWSN_INDEX( TREC$, DREC$, TWSNR$, AS_FALSE, DEV_KEY.TXT.ACCT,
             13997                  TWSN_INDEX ) ALTRET(EXIT#) ;

  13997  4 000617   202011 630500                    EPPR0   TWSN_INDEX,,AUTO
         4 000620   202063 450500                    STP0    TWSN_REC+22,,AUTO
         4 000621   000020 236000 5                  LDQ     16
         4 000622   202062 756100                    STQ     TWSN_REC+21,,AUTO
         4 000623   000021 236000 5                  LDQ     17
         4 000624   202061 756100                    STQ     TWSN_REC+20,,AUTO
         4 000625   202031 631500                    EPPR1   TWSNR$,,AUTO
         4 000626   202060 451500                    STP1    TWSN_REC+19,,AUTO
         4 000627   202027 633500                    EPPR3   DREC$,,AUTO
         4 000630   202057 453500                    STP3    TWSN_REC+18,,AUTO
         4 000631   202026 634500                    EPPR4   TREC$,,AUTO
         4 000632   202056 454500                    STP4    TWSN_REC+17,,AUTO
         4 000633   202056 630500                    EPPR0   TWSN_REC+17,,AUTO
         4 000634   000024 631400 xsym               EPPR1   B_VECTNIL+20
         4 000635   000000 701000 xent               TSX1    ASB$FIND_TWSN_INDEX
         4 000636   000775 702000 4                  TSX2    ENQ_ERR2

      358    13998    2      END;

      359    13999
      360    14000                                                /* Do options                         */
      361    14001    1   FROM_KEY.TEXT = DEV_KEY.TXT.ACCT ;
PL6.E3A0      #001=ASA$DEVICE File=ASA$DEVICE.:E05TSI                            TUE 07/29/97 08:34 Page:52

  14001  4 000637   040000 100400                    MLR     fill='040'O
         4 000640   000000 200010 2                  ADSC9   DEV_KEY                  cn=1,n=8
         4 000641   000000 200024 xsym               ADSC9   FROM_KEY                 cn=1,n=20

      362    14002    1   CALL ASA$DEV_OPTS(DREC$, TWSNR$, TWSNC, CREATE, '0'B, '    ', TWSN_INDEX)

  14002  4 000642   202011 630500                    EPPR0   TWSN_INDEX,,AUTO
         4 000643   202064 450500                    STP0    TWSN_REC+23,,AUTO
         4 000644   000022 237000 5                  LDAQ    18
         4 000645   202062 757100                    STAQ    TWSN_REC+21,,AUTO
         4 000646   200003 631500                    EPPR1   CREATE,,AUTO
         4 000647   202061 451500                    STP1    TWSN_REC+20,,AUTO
         4 000650   202007 633500                    EPPR3   TWSNC,,AUTO
         4 000651   202060 453500                    STP3    TWSN_REC+19,,AUTO
         4 000652   202031 634500                    EPPR4   TWSNR$,,AUTO
         4 000653   202057 454500                    STP4    TWSN_REC+18,,AUTO
         4 000654   202027 635500                    EPPR5   DREC$,,AUTO
         4 000655   202056 455500                    STP5    TWSN_REC+17,,AUTO
         4 000656   202056 630500                    EPPR0   TWSN_REC+17,,AUTO
         4 000657   000025 631400 xsym               EPPR1   B_VECTNIL+21
         4 000660   000000 701000 xent               TSX1    ASA$DEV_OPTS
         4 000661   000775 702000 4                  TSX2    ENQ_ERR2

      363    14003    2   WHENRETURN DO;

      364    14004    2      IF KL$DREC.SUPER = 5 /* INSYM DEVICE */ OR KL$DREC.SUPER = 6 /* OUTSYM DEVICE */

  14004  4 000662   202027 470500                    LDP0    DREC$,,AUTO
         4 000663   000000 236100                    LDQ     0,,PR0
         4 000664   000777 376007                    ANQ     511,DL
         4 000665   000005 116007                    CMPQ    5,DL
         4 000666   000673 600000 4                  TZE     s:14006
         4 000667   000006 116007                    CMPQ    6,DL
         4 000670   000673 600000 4                  TZE     s:14006
         4 000671   000014 116007                    CMPQ    12,DL
         4 000672   000733 601000 4                  TNZ     s:14017
PL6.E3A0      #001=ASA$DEVICE File=ASA$DEVICE.:E05TSI                            TUE 07/29/97 08:34 Page:53

      365    14005    3           OR KL$DREC.SUPER = 12 /* RES DEVICE */ THEN DO ;

      366    14006    4         IF CREATE THEN DO ;

  14006  4 000673   200003 234100                    SZN     CREATE,,AUTO
         4 000674   000704 605000 4                  TPL     s:14011

      367    14007    4            KL$TWSNREC.NDEV = TWSN_INDEX + 1 ;

  14007  4 000675   202031 471500                    LDP1    TWSNR$,,AUTO
         4 000676   202011 235100                    LDA     TWSN_INDEX,,AUTO
         4 000677   000001 035007                    ADLA    1,DL
         4 000700   100004 755100                    STA     4,,PR1

      368    14008    4            TWSN_ARS = TWSN_ARS + LENGTHC(KL$TWSNREC.DEVS(0)) ;

  14008  4 000701   202013 235100                    LDA     TWSN_ARS,,AUTO
         4 000702   000054 035007                    ADLA    44,DL
         4 000703   202013 755100                    STA     TWSN_ARS,,AUTO

      369    14009    4            END ;

      370    14010                                                /* Write twsn record                 */
      371    14011    3         CALL CONCAT( USERS_KEY.TXTC, 'TWSN', TWSNC ) ;

  14011  4 000704   040000 100400                    MLR     fill='040'O
         4 000705   000020 000004 3                  ADSC9   16                       cn=0,n=4
         4 000706   000000 200004 xsym               ADSC9   USERS_KEY                cn=1,n=4
         4 000707   040000 100500                    MLR     fill='040'O
         4 000710   202007 000004                    ADSC9   TWSNC,,AUTO              cn=0,n=4
         4 000711   000001 200045 xsym               ADSC9   USERS_KEY+1              cn=1,n=37

      372    14012    3         USERS_KEY.COUNT = 8 ;

  14012  4 000712   010000 236003                    LDQ     4096,DU
         4 000713   000000 552040 xsym               STBQ    USERS_KEY,'40'O
PL6.E3A0      #001=ASA$DEVICE File=ASA$DEVICE.:E05TSI                            TUE 07/29/97 08:34 Page:54

      373    14013    3         CALL ASB$WRITE_HLP( TWSNR$, TWSN_ARS ) ALTRET( WRITE_TWSNR_ERR ) ;

  14013  4 000714   202013 630500                    EPPR0   TWSN_ARS,,AUTO
         4 000715   202057 450500                    STP0    TWSN_REC+18,,AUTO
         4 000716   202031 631500                    EPPR1   TWSNR$,,AUTO
         4 000717   202056 451500                    STP1    TWSN_REC+17,,AUTO
         4 000720   202056 630500                    EPPR0   TWSN_REC+17,,AUTO
         4 000721   000020 631400 xsym               EPPR1   B_VECTNIL+16
         4 000722   000000 701000 xent               TSX1    ASB$WRITE_HLP
         4 000723   000776 702000 4                  TSX2    WRITE_TWSNR_ERR

      374    14014    3         IF CREATE THEN KL$DREC.SNAME = SNAME ;

  14014  4 000724   200003 234100                    SZN     CREATE,,AUTO
         4 000725   000740 605000 4                  TPL     WRITE_DEV_REC

  14014  4 000726   202027 470500                    LDP0    DREC$,,AUTO
         4 000727   040100 100500                    MLR     fill='040'O
         4 000730   202005 000010                    ADSC9   SNAME,,AUTO              cn=0,n=8
         4 000731   000015 000010                    ADSC9   13,,PR0                  cn=0,n=8

      375    14015    3         END;

  14015  4 000732   000740 710000 4                  TRA     WRITE_DEV_REC

      376    14016    2      ELSE
      377    14017    2         IF CREATE THEN KL$DREC.SNAME = ' *NOTRM*';

  14017  4 000733   200003 234100                    SZN     CREATE,,AUTO
         4 000734   000740 605000 4                  TPL     WRITE_DEV_REC

  14017  4 000735   040100 100400                    MLR     fill='040'O
         4 000736   000007 000010 3                  ADSC9   7                        cn=0,n=8
         4 000737   000015 000010                    ADSC9   13,,PR0                  cn=0,n=8

  14013  4 000740                       WRITE_DEV_R* null
PL6.E3A0      #001=ASA$DEVICE File=ASA$DEVICE.:E05TSI                            TUE 07/29/97 08:34 Page:55
      378    14018    2   WRITE_DEV_REC: ;
      379    14019                                                                                    /**/
      380    14020    2      DEV_ARS = LENGTHC( KL_DREC_CNT ) + KL$DREC.NWINFO*4 ;

  14020  4 000740   202027 470500                    LDP0    DREC$,,AUTO
         4 000741   000017 235100                    LDA     15,,PR0
         4 000742   000002 735000                    ALS     2
         4 000743   000100 035007                    ADLA    64,DL
         4 000744   202012 755100                    STA     DEV_ARS,,AUTO

      381    14021    2      USERS_KEY = DEV_KEY ;

  14021  4 000745   000000 100400                    MLR     fill='000'O
         4 000746   000000 000025 2                  ADSC9   DEV_KEY                  cn=0,n=21
         4 000747   000000 000052 xsym               ADSC9   USERS_KEY                cn=0,n=42

      382    14022    2      CALL ASB$ENQ_HLP ALTRET( ENQ_ERR2 ) ;

  14022  4 000750   000002 631400 xsym               EPPR1   B_VECTNIL+2
         4 000751   000000 701000 xent               TSX1    ASB$ENQ_HLP
         4 000752   000775 702000 4                  TSX2    ENQ_ERR2

      383    14023    2      CALL ASB$WRITE_HLP( DREC$, DEV_ARS ) ALTRET( WRITE_TWSNR_ERR ) ;

  14023  4 000753   202012 630500                    EPPR0   DEV_ARS,,AUTO
         4 000754   202057 450500                    STP0    TWSN_REC+18,,AUTO
         4 000755   202027 631500                    EPPR1   DREC$,,AUTO
         4 000756   202056 451500                    STP1    TWSN_REC+17,,AUTO
         4 000757   202056 630500                    EPPR0   TWSN_REC+17,,AUTO
         4 000760   000020 631400 xsym               EPPR1   B_VECTNIL+16
         4 000761   000000 701000 xent               TSX1    ASB$WRITE_HLP
         4 000762   000776 702000 4                  TSX2    WRITE_TWSNR_ERR

      384    14024    2      CALL ASB$DEQ_HLP ALTRET( DEQ_ERR2 ) ;

  14024  4 000763   000002 631400 xsym               EPPR1   B_VECTNIL+2
         4 000764   000000 701000 xent               TSX1    ASB$DEQ_HLP
PL6.E3A0      #001=ASA$DEVICE File=ASA$DEVICE.:E05TSI                            TUE 07/29/97 08:34 Page:56
         4 000765   000775 702000 4                  TSX2    ENQ_ERR2

      385    14025                                                                                    /**/
      386    14026    2      IF CREATE THEN

  14026  4 000766   200003 234100                    SZN     CREATE,,AUTO
         4 000767   000774 605000 4                  TPL     s:14029

      387    14027    2         CALL ASB$WRITE_LO( AS_CREATED_TEXT, LENGTHC(AS_CREATED_TEXT) ) ;

  14027  4 000770   000025 630400 5                  EPPR0   21
         4 000771   000020 631400 xsym               EPPR1   B_VECTNIL+16
         4 000772   000000 701000 xent               TSX1    ASB$WRITE_LO
         4 000773   000000 011000                    NOP     0

      388    14028
      389    14029    2      RETURN ;

  14029  4 000774   000000 702200 xent               TSX2  ! X66_ARET

  14022  4 000775                       ENQ_ERR2     null
  14022  4 000775                       DEQ_ERR2     null
  14022  4 000775                       EXIT#        null
      390    14030    2      END; /* Whenreturn */
      391    14031
      392    14032                                                /* Errors                             */
      393    14033    1   ENQ_ERR2: ;
      394    14034
      395    14035    1   DEQ_ERR2: ;
      396    14036    1   EXIT#: ;
      397    14037                                                                                    /**/
      398    14038    1   RETURN ;

  14038  4 000775   000000 702200 xent               TSX2  ! X66_ARET

      399    14039                                                                                    /**/
      400    14040    1   WRITE_TWSNR_ERR: ;
PL6.E3A0      #001=ASA$DEVICE File=ASA$DEVICE.:E05TSI                            TUE 07/29/97 08:34 Page:57

  14040  4 000776                       WRITE_TWSNR* null
      401    14041    1   CALL ASH$ERROR( ERR_CODE ) ;

  14041  4 000776   000027 630400 5                  EPPR0   23
         4 000777   000017 631400 xsym               EPPR1   B_VECTNIL+15
         4 001000   000000 701000 xent               TSX1    ASH$ERROR
         4 001001   000000 011000                    NOP     0

      402    14042    1   RETURN ;

  14042  4 001002   000000 702200 xent               TSX2  ! X66_ARET
      403    14043                                                                                    /**/
      404    14044                                                                                    /**/
      405    14045    1   END   ASA$DEVICE ;
      406    14046        %EOD;

PL6.E3A0      #001=ASA$DEVICE File=ASA$DEVICE.:E05TSI                            TUE 07/29/97 08:34 Page:58
--  Include file information  --

   KC$CGBLK.:E05TOU  is referenced.
   B_MACROS_C.:E05TOU  is referenced.
   CP_6.:E05TOU  cannot be made into a system file and is referenced.
   AS_SUPER_R.:E05TOU  cannot be made into a system file and is referenced.
   AS_MAC_C.:E05TOU  cannot be made into a system file and is referenced.
   AS_SUPER_C.:E05TOU  is referenced.
   XU_MACRO_C.:E05TOU  is referenced.
   XU_FORMAT_C.:E05TOU  is referenced.
   KL_SUPER_C.:E05TOU  is referenced.
   AS_SUBS_C.:E05TOU  is referenced.
   AS_SSUBS_C.:E05TOU  is referenced.
   AS_PERR_C.:E05TOU  is referenced.
   AS_ENTRIES_M.:E05TOU  is referenced.
   B$JIT_C.:E05TOU  was found in the system file and is never referenced.
   CP_6_C.:E05TOU  was found in the system file and is referenced.
      No diagnostics issued in procedure ASA$DEVICE.
PL6.E3A0      #001=ASA$DEVICE File=ASA$DEVICE.:E05TSI                            TUE 07/29/97 08:34 Page:59

 **** Variables and constants ****

  ****  Section 002  Data  ASA$DEVICE

  ****  Scalars and arrays  ****
OctLoc.c.b A Datatyp(siz) R M Lvl/name                 OctLoc.c.b A Datatyp(siz) R M Lvl/name

     0-0-0/w STRC(189)   r     1 DEV_KEY

  ****  Auto variables  ****

  ****  Scalars and arrays  ****
OctLoc.c.b A Datatyp(siz) R M Lvl/name                 OctLoc.c.b A Datatyp(siz) R M Lvl/name

  2016-0-0/w CHAR(8)     r     1 ACCT                    2014-0-0/w UBIN        r     1 ARS
  2025-0-0/w PTR         r     1 BLK$                       3-0-0/w BIT         r     1 CREATE
  2012-0-0/w UBIN        r     1 DEV_ARS                 2032-0-0/c STRC(81)    r     1 DEV_NAME
  2027-0-0/w PTR         r     1 DREC$                   2015-0-0/w UBIN        r     1 I
     5-0-0/c CHAR(4096)  r     1 KLDREC                  2005-0-0/c CHAR(8)     r     1 SNAME
  2023-0-0/w UBIN        r     1 SUBNODES                2026-0-0/w PTR         r     1 TREC$
  2010-0-0/w UBIN        r     1 TWSN#                   2007-0-0/c CHAR(4)     r     1 TWSNC
  2031-0-0/w PTR         r     1 TWSNR$                  2013-0-0/w UBIN        r     1 TWSN_ARS
  2011-0-0/w UBIN        r     1 TWSN_INDEX              2035-0-0/w STRC(576)   r     1 TWSN_REC
  2020-0-0/w CHAR(12)    r     1 UNAME                   2024-0-0/w UBIN        r     1 UNAME_LEN

  ****  SYMREF variables  ****

  ****  Scalars and arrays  ****
OctLoc.c.b A Datatyp(siz) R M Lvl/name                 OctLoc.c.b A Datatyp(siz) R M Lvl/name

     0-0-0/c CHAR        r     1 AS_BLANK                   0-0-0/c CHAR(20)    r     1 AS_CREATED_TEXT
     0-0-0/b BIT         r     1 AS_FALSE                   0-0-0/w STRC(369)   r     1 AS_FIELD1
     0-0-0/w STRC(369)   r     1 AS_FIELD2                  0-0-0/w STRC(369)   r     1 AS_FIELD3
     0-0-0/b BIT         r     1 AS_TRUE                    0-0-0/w UBIN        r     1 DEVICE_CMD
     0-0-0/w PTR         r     1 DSEG1$                     0-0-0/w UBIN        r     1 DSEG1SIZE
     0-0-0/w PTR         r     1 DSEG2$                     0-0-0/w UBIN        r     1 DSEG2SIZE
     0-0-0/w PTR         r     1 DSEG3$                     0-0-0/b BIT         r     1 DSEG_FLG
PL6.E3A0      #001=ASA$DEVICE File=ASA$DEVICE.:E05TSI                            TUE 07/29/97 08:34 Page:60
     0-0-0/b STRC        r     1 ERR_CODE                   0-0-0/c STRC(189)   r     1 FROM_KEY
     0-0-0/w STRC(576)   r     1 KL_DREC_CNT                0-0-0/w PTR         r     1 NODE$
     0-0-0/w STRC(504)   r     1 P_PCB                      0-0-0/w UBIN        r     1 TP_DEVICE_CMD
     0-0-0/c STRC(378)   r     1 USERS_KEY

  ****  BASED and DCB variables  ****

  ****  Scalars and arrays  ****
OctLoc.c.b A Datatyp(siz) R M Lvl/name                 OctLoc.c.b A Datatyp(siz) R M Lvl/name

     0-0-0/w STRC(1008)  r     1 KL$DREC                    0-0-0/w STRC(576)   r     1 KL$TREC
     0-0-0/w STRC(576)   r     1 KL$TWSNREC                 0-0-0/w ASTR(153)   r     1 OUT$SYM
     0-0-0/w STRC(144)   r     1 P$NODE                     0-0-0/w STRC(108)   r     1 TP_DEV


   Procedure ASA$DEVICE requires 515 words for executable code.
   Procedure ASA$DEVICE requires 1078 words of local(AUTO) storage.
PL6.E3A0      #001=ASA$DEVICE File=ASA$DEVICE.:E05TSI                            TUE 07/29/97 08:34 Page:61
          *** CROSS REFERENCE LISTING ***
**     DENOTES     IDENTIFIER DEFINITION
<<                 IDENTIFIER'S VALUE SET
>>                 IDENTIFIER'S VALUE USED
<>                 IDENTIFIER SET AND/OR USED
--                 IDENTIFIER REFERENCED
PL6.E3A0      #001=ASA$DEVICE File=ASA$DEVICE.:E05TSI                            TUE 07/29/97 08:34 Page:62
          MINI XREF LISTING

ACCT
     13144**DCL     13717<<ASSIGN  13718>>ASSIGN  13791>>CALLBLT
ARS
     13139**DCL     13795<<ASSIGN  13797<>CALL    13800<>CALL    13824>>ASSIGN  13941<<ASSIGN  13942<>CALL
ASA$DEV_OPTS
     13205**DCL-ENT 14002--CALL
ASA_BRKS_LOC
     10033**DCL     10033--REDEF
ASB$CHECK_TYPE
     13235**DCL-ENT 13800--CALL
ASB$DEQ_HLP
     13214**DCL-ENT 14024--CALL
ASB$ENQ_HLP
     13211**DCL-ENT 13796--CALL    13971--CALL    14022--CALL
ASB$FIND_TWSN_INDEX
     13208**DCL-ENT 13997--CALL
ASB$GETSEG
     13223**DCL-ENT 13617--CALL
ASB$READ_HLP
     13217**DCL-ENT 13797--CALL    13942--CALL    13972--CALL
ASB$WRITE_HLP
     13220**DCL-ENT 14013--CALL    14023--CALL
ASB$WRITE_LO
     13232**DCL-ENT 14027--CALL
ASH$ERROR
     13226**DCL-ENT 13631--CALL    13669--CALL    13705--CALL    13776--CALL    13819--CALL    13844--CALL
     13871--CALL    13957--CALL    13987--CALL    14041--CALL
ASH$WARN
     13229**DCL-ENT 13748--CALL    13893--CALL    13919--CALL
AS_BLANK
      9893**DCL     13904>>CALLBLT
AS_CREATED_TEXT
PL6.E3A0      #001=ASA$DEVICE File=ASA$DEVICE.:E05TSI                            TUE 07/29/97 08:34 Page:63
      9907**DCL     14027<>CALL    14027--CALL
AS_DEFAULT.BANNER_PERM
     10726**DCL     10727--REDEF
AS_DEFAULT.BUDGET.MACCT
     10631**DCL     10635--REDEF
AS_DEFAULT.BUDGET.MAX_PROJECTS
     10644**DCL     10647--REDEF
AS_DEFAULT.BUDGET.PACCUM
     10627**DCL     10629--REDEF
AS_DEFAULT.BUDGET.PMAXC
     10622**DCL     10624--REDEF
AS_DEFAULT.SETUP_CHRA.TXT
     10742**DCL     10743--REDEF   10744--REDEF
AS_DEFAULT_DREC.PASSWORD
     11996**DCL     12000--REDEF
AS_DEFAULT_DREC.RENAME
     12019**DCL     12020--REDEF
AS_DFLT.BANNER_PERM
     10548**DCL     10549--REDEF
AS_DFLT.BUDGET.MACCT
     10453**DCL     10457--REDEF
AS_DFLT.BUDGET.MAX_PROJECTS
     10466**DCL     10469--REDEF
AS_DFLT.BUDGET.PACCUM
     10449**DCL     10451--REDEF
AS_DFLT.BUDGET.PMAXC
     10444**DCL     10446--REDEF
AS_DFLT.SETUP_CHRA.TXT
     10564**DCL     10565--REDEF   10566--REDEF
AS_FALSE
      9893**DCL     13648>>ASSIGN  13715>>ASSIGN  13997<>CALL
AS_FE_MODE
      9899**DCL      9900--REDEF
AS_FIELD1
     10029**DCL     13806<<ASSIGN  13903<<ASSIGN  13944<<ASSIGN  13974<<ASSIGN
AS_FIELD2.COUNT
PL6.E3A0      #001=ASA$DEVICE File=ASA$DEVICE.:E05TSI                            TUE 07/29/97 08:34 Page:64
     10030**DCL     13905<<ASSIGN
AS_FIELD2.TEXT
     10030**DCL     13906<<ASSIGN
AS_FIELD3.COUNT
     10031**DCL     13907<<ASSIGN
AS_FIELD3.TEXT
     10031**DCL     13908<<ASSIGN
AS_MODE
      9896**DCL      9898--REDEF
AS_MOD_USER.ACCESS
     12761**DCL     12762--REDEF
AS_MOD_USER.BANNER
     12748**DCL     12749--REDEF
AS_MOD_USER.BANNER_PERM
     12750**DCL     12751--REDEF
AS_MOD_USER.BILL
     12756**DCL     12757--REDEF
AS_MOD_USER.CPROC
     12752**DCL     12753--REDEF
AS_MOD_USER.FEBILL
     12832**DCL     12833--REDEF
AS_MOD_USER.FECXTMEM
     12849**DCL     12850--REDEF
AS_MOD_USER.FEMINTS
     12834**DCL     12835--REDEF
AS_MOD_USER.FEMMEM
     12845**DCL     12846--REDEF
AS_MOD_USER.FEMTIME
     12843**DCL     12844--REDEF
AS_MOD_USER.FEPPRIV
     12840**DCL     12842--REDEF
AS_MOD_USER.FEPRIV
     12837**DCL     12839--REDEF
AS_MOD_USER.FORCE_BIT
     12746**DCL     12747--REDEF
AS_MOD_USER.KEY
PL6.E3A0      #001=ASA$DEVICE File=ASA$DEVICE.:E05TSI                            TUE 07/29/97 08:34 Page:65
     12828**DCL     12830--REDEF
AS_MOD_USER.LASTCPROC
     12754**DCL     12755--REDEF
AS_MOD_USER.LIMITS.DO_
     12802**DCL     12803--REDEF
AS_MOD_USER.LIMITS.FPOOLS
     12818**DCL     12819--REDEF
AS_MOD_USER.LIMITS.LO
     12798**DCL     12799--REDEF
AS_MOD_USER.LIMITS.MEM
     12794**DCL     12795--REDEF
AS_MOD_USER.LIMITS.MPRIO
     12822**DCL     12823--REDEF
AS_MOD_USER.LIMITS.PDIS
     12810**DCL     12811--REDEF
AS_MOD_USER.LIMITS.PO
     12806**DCL     12807--REDEF
AS_MOD_USER.LIMITS.TDIS
     12814**DCL     12815--REDEF
AS_MOD_USER.LIMITS.TIME
     12790**DCL     12791--REDEF
AS_MOD_USER.MAXENQ
     12771**DCL     12772--REDEF
AS_MOD_USER.PERM_BIT
     12744**DCL     12745--REDEF
AS_MOD_USER.PPRIV
     12766**DCL     12768--REDEF
AS_MOD_USER.PRIOB
     12773**DCL     12774--REDEF
AS_MOD_USER.PRIV
     12763**DCL     12765--REDEF
AS_MOD_USER.QUAN
     12769**DCL     12770--REDEF
AS_MOD_USER.SETUP
     12742**DCL     12743--REDEF
AS_PROJECT.BANNER_PERM
PL6.E3A0      #001=ASA$DEVICE File=ASA$DEVICE.:E05TSI                            TUE 07/29/97 08:34 Page:66
     11082**DCL     11083--REDEF
AS_PROJECT.BUDGET.MACCT
     10987**DCL     10991--REDEF
AS_PROJECT.BUDGET.MAX_PROJECTS
     11000**DCL     11003--REDEF
AS_PROJECT.BUDGET.PACCUM
     10983**DCL     10985--REDEF
AS_PROJECT.BUDGET.PMAXC
     10978**DCL     10980--REDEF
AS_PROJECT.SETUP_CHRA.TXT
     11098**DCL     11099--REDEF   11100--REDEF
AS_PROJECT_DFLT.BANNER_PERM
     11260**DCL     11261--REDEF
AS_PROJECT_DFLT.BUDGET.MACCT
     11165**DCL     11169--REDEF
AS_PROJECT_DFLT.BUDGET.MAX_PROJECTS
     11178**DCL     11181--REDEF
AS_PROJECT_DFLT.BUDGET.PACCUM
     11161**DCL     11163--REDEF
AS_PROJECT_DFLT.BUDGET.PMAXC
     11156**DCL     11158--REDEF
AS_PROJECT_DFLT.SETUP_CHRA.TXT
     11276**DCL     11277--REDEF   11278--REDEF
AS_PROJECT_DFLT_DREC.PASSWORD
     12482**DCL     12486--REDEF
AS_PROJECT_DFLT_DREC.RENAME
     12505**DCL     12506--REDEF
AS_PROJECT_DREC.PASSWORD
     12320**DCL     12324--REDEF
AS_PROJECT_DREC.RENAME
     12343**DCL     12344--REDEF
AS_PROJ_ADMIN.BANNER_PERM
     10904**DCL     10905--REDEF
AS_PROJ_ADMIN.BUDGET.MACCT
     10809**DCL     10813--REDEF
AS_PROJ_ADMIN.BUDGET.MAX_PROJECTS
PL6.E3A0      #001=ASA$DEVICE File=ASA$DEVICE.:E05TSI                            TUE 07/29/97 08:34 Page:67
     10822**DCL     10825--REDEF
AS_PROJ_ADMIN.BUDGET.PACCUM
     10805**DCL     10807--REDEF
AS_PROJ_ADMIN.BUDGET.PMAXC
     10800**DCL     10802--REDEF
AS_PROJ_ADMIN.SETUP_CHRA.TXT
     10920**DCL     10921--REDEF   10922--REDEF
AS_PROJ_ADMIN_DREC.PASSWORD
     12158**DCL     12162--REDEF
AS_PROJ_ADMIN_DREC.RENAME
     12181**DCL     12182--REDEF
AS_TRUE
      9893**DCL     13646>>ASSIGN  13713>>ASSIGN  13847>>ASSIGN
AS_USERS.BANNER_PERM
     10370**DCL     10371--REDEF
AS_USERS.BUDGET.MACCT
     10275**DCL     10279--REDEF
AS_USERS.BUDGET.MAX_PROJECTS
     10288**DCL     10291--REDEF
AS_USERS.BUDGET.PACCUM
     10271**DCL     10273--REDEF
AS_USERS.BUDGET.PMAXC
     10266**DCL     10268--REDEF
AS_USERS.SETUP_CHRA.TXT
     10386**DCL     10387--REDEF   10388--REDEF
AS_USERS_CONSTANT.BANNER_PERM
     11438**DCL     11439--REDEF
AS_USERS_CONSTANT.BUDGET.MACCT
     11343**DCL     11347--REDEF
AS_USERS_CONSTANT.BUDGET.MAX_PROJECTS
     11356**DCL     11359--REDEF
AS_USERS_CONSTANT.BUDGET.PACCUM
     11339**DCL     11341--REDEF
AS_USERS_CONSTANT.BUDGET.PMAXC
     11334**DCL     11336--REDEF
AS_USERS_CONSTANT.SETUP_CHRA.TXT
PL6.E3A0      #001=ASA$DEVICE File=ASA$DEVICE.:E05TSI                            TUE 07/29/97 08:34 Page:68
     11454**DCL     11455--REDEF   11456--REDEF
BLK$
     13148**DCL     13296--IMP-PTR 13651<<ASSIGN  13652>>IF      13674>>ASSIGN  13675>>ASSIGN  13675>>ASSIGN
     13855<<ASSIGN  13856>>IF      13876>>ASSIGN  13876>>ASSIGN  13907>>ASSIGN  13908>>ASSIGN  13908>>ASSIGN
CREATE
     13130**DCL     13646<<ASSIGN  13648<<ASSIGN  13713<<ASSIGN  13715<<ASSIGN  13800<>CALL    13801>>IF
     13828>>IF      13847<<ASSIGN  13877>>IF      13929>>IF      13994>>IF      14002<>CALL    14006>>IF
     14014>>IF      14017>>IF      14026>>IF
DEQ_ERR2
     14022**LABEL   14024--CALLALT
DEVICE_CMD
     13186**DCL     13638--ASSIGN
DEV_ARS
     13137**DCL     13824<<ASSIGN  14020<<ASSIGN  14023<>CALL
DEV_KEY
     13193**DCL     13680>>ASSIGN  14021>>ASSIGN
DEV_KEY.CNT
     13194**DCL     13678<<ASSIGN  13720<<ASSIGN  13729<<ASSIGN  13787<<ASSIGN  13790>>ASSIGN
DEV_KEY.TXT.ACCT
     13196**DCL     13677<<ASSIGN  13718<<ASSIGN  13997<>CALL    14001>>ASSIGN
DEV_KEY.TXT.UNAME
     13197**DCL     13676<<ASSIGN  13719<<ASSIGN  13782<<ASSIGN
DEV_NAME
     13153**DCL     13792<<ASSIGN  13800<>CALL    13806>>ASSIGN  13903>>ASSIGN
DEV_NAME.COUNT
     13154**DCL     13674<<ASSIGN
DEV_NAME.TEXT
     13155**DCL     13675<<ASSIGN  13677>>ASSIGN
DREC$
     13150**DCL     13453--IMP-PTR 13794<<ASSIGN  13797<>CALL    13800<>CALL    13877>>IF      13878>>IF
     13904>>CALLBLT 13906>>ASSIGN  13925>>ASSIGN  13931>>ASSIGN  13997<>CALL    14002<>CALL    14004>>IF
     14004>>IF      14004>>IF      14014>>ASSIGN  14017>>ASSIGN  14020>>ASSIGN  14023<>CALL
DSEG1$
     10034**DCL     13940>>ASSIGN
DSEG1SIZE
     10035**DCL     13941>>ASSIGN
PL6.E3A0      #001=ASA$DEVICE File=ASA$DEVICE.:E05TSI                            TUE 07/29/97 08:34 Page:69
DSEG2$
     10035**DCL     13969>>ASSIGN
DSEG2SIZE
     10035**DCL     13970>>ASSIGN
DSEG3$
     10035**DCL     13141--IMP-PTR 13641>>ASSIGN  13716>>ASSIGN  13726>>ASSIGN  13781>>ASSIGN
DSEG_FLG
     10034**DCL     13615>>IF
ENQ_ERR2
     14022**LABEL   13796--CALLALT 13971--CALLALT 14022--CALLALT
ERR_CODE
     10028**DCL     10029--REDEF   14041<>CALL
EXIT#
     14022**LABEL   13800--CALLALT 13997--CALLALT
FROM_KEY.TEXT
      9907**DCL     14001<<ASSIGN
I
     13140**DCL     13904<<CALLBLT 13905>>ASSIGN
KL$DREC.NWINFO
     13551**DCL     14020>>ASSIGN
KL$DREC.PASSWORD
     13511**DCL     13515--REDEF
KL$DREC.RENAME
     13534**DCL     13535--REDEF
KL$DREC.SNAME
     13548**DCL     13877>>IF      13878>>IF      13904>>CALLBLT 13906>>ASSIGN  13925>>ASSIGN  13931>>ASSIGN
     14014<<ASSIGN  14017<<ASSIGN
KL$DREC.SUPER
     13505**DCL     14004>>IF      14004>>IF      14004>>IF
KL$TREC.PASSWORD
     13398**DCL     13402--REDEF
KL$TREC.RENAME
     13421**DCL     13422--REDEF
KL$TREC.TWSN#
     13395**DCL     13964>>ASSIGN
KL$TWSNREC.DEVS
PL6.E3A0      #001=ASA$DEVICE File=ASA$DEVICE.:E05TSI                            TUE 07/29/97 08:34 Page:70
     13587**DCL     14008--ASSIGN
KL$TWSNREC.NDEV
     13586**DCL     13995>>ASSIGN  14007<<ASSIGN
KLDREC
     13132**DCL     13794--ASSIGN  13795--ASSIGN
KL_DEFAULT.PASSWORD
     12644**DCL     12648--REDEF
KL_DEFAULT.RENAME
     12667**DCL     12668--REDEF
KL_DFLT.PASSWORD
     11834**DCL     11838--REDEF
KL_DFLT.RENAME
     11857**DCL     11858--REDEF
KL_DREC.PASSWORD
     11672**DCL     11676--REDEF
KL_DREC.RENAME
     11695**DCL     11696--REDEF
KL_DREC_CNT
     11501**DCL     14020--ASSIGN
KL_DREC_CNT.PASSWORD
     11559**DCL     11563--REDEF
KL_DREC_CNT.RENAME
     11582**DCL     11583--REDEF
NODE$
     10026**DCL     13249--IMP-PTR 13643<<ASSIGN  13644>>IF      13651>>ASSIGN  13710<<ASSIGN  13711>>IF
     13717>>ASSIGN  13717>>ASSIGN  13721>>IF      13723>>IF      13727>>ASSIGN  13727>>ASSIGN  13728>>ASSIGN
     13852>>IF      13855>>ASSIGN
OUT$SYM.COUNT
     13319**DCL     13322--IMP-SIZ 13652>>IF      13674>>ASSIGN  13675>>ASSIGN  13717>>ASSIGN  13727>>ASSIGN
     13728>>ASSIGN  13856>>IF      13876>>ASSIGN  13907>>ASSIGN  13908>>ASSIGN
OUT$SYM.TEXT
     13322**DCL     13675>>ASSIGN  13717>>ASSIGN  13727>>ASSIGN  13876>>ASSIGN  13908>>ASSIGN
P$NODE.CODE
     13257**DCL     13644>>IF      13711>>IF      13723>>IF
P$NODE.SUBLK$
     13282**DCL     13651>>ASSIGN  13651>>ASSIGN  13717>>ASSIGN  13717>>ASSIGN  13717>>ASSIGN  13717>>ASSIGN
PL6.E3A0      #001=ASA$DEVICE File=ASA$DEVICE.:E05TSI                            TUE 07/29/97 08:34 Page:71
     13723>>IF      13727>>ASSIGN  13727>>ASSIGN  13727>>ASSIGN  13727>>ASSIGN  13728>>ASSIGN  13728>>ASSIGN
     13855>>ASSIGN  13855>>ASSIGN
P$NODE.SUBNODES
     13261**DCL     13721>>IF      13852>>IF
PROJ_KEY.TEXT
      9906**DCL      9906--REDEF
PROJ_KEY.TXT.PROJECT
      9906**DCL      9906--REDEF
P_PCB
     10061**DCL     13639<>CALL    13703<>CALL
P_PCB.ERROR
     10165**DCL     13705<>CALL
P_PCB.OUT$
     10074**DCL     13643>>ASSIGN  13710>>ASSIGN
P_PCB.ROOT$
     10066**DCL     13638<<ASSIGN  13702<<ASSIGN
REMEM_VAR
     10032**DCL     10032--REDEF
REM_FCMD
     10032**DCL     10033--REDEF
SNAME
     13133**DCL     13876<<ASSIGN  13877>>IF      13925<<ASSIGN  13930<<ASSIGN  13931<<ASSIGN  13932>>IF
     13937>>CALLBLT 14014>>ASSIGN
SUBNODES
     13146**DCL     13679<<ASSIGN  13709<<ASSIGN  13725<<ASSIGN  13852>>IF      13855>>ASSIGN
TP_DEV.DEV_TYPE
     13142**DCL     13641<<ASSIGN  13716<<ASSIGN  13726<<ASSIGN
TP_DEV.SNAME
     13143**DCL     13781<<ASSIGN
TP_DEVICE_CMD
     13187**DCL     13702--ASSIGN
TREC$
     13149**DCL     13340--IMP-PTR 13940<<ASSIGN  13942<>CALL    13964>>ASSIGN  13997<>CALL
TWSN#
     13135**DCL     13965<<CALLBLT
TWSNC
PL6.E3A0      #001=ASA$DEVICE File=ASA$DEVICE.:E05TSI                            TUE 07/29/97 08:34 Page:72
     13134**DCL     13964<<ASSIGN  13965>>CALLBLT 13967>>CALLBLT 14002<>CALL    14011>>CALLBLT
TWSNR$
     13152**DCL     13583--IMP-PTR 13934<<ASSIGN  13969<<ASSIGN  13972<>CALL    13995>>ASSIGN  13997<>CALL
     14002<>CALL    14007>>ASSIGN  14013<>CALL
TWSN_ARS
     13138**DCL     13970<<ASSIGN  13972<>CALL    14008<<ASSIGN  14008>>ASSIGN  14013<>CALL
TWSN_INDEX
     13136**DCL     13933<<ASSIGN  13995<<ASSIGN  13997<>CALL    14002<>CALL    14007>>ASSIGN
TWSN_REC
     13157**DCL     13934--ASSIGN
UNAME
     13145**DCL     13727<<ASSIGN  13755>>IF      13781>>ASSIGN  13782>>ASSIGN  13786<<ASSIGN  13791>>CALLBLT
UNAME_LEN
     13147**DCL     13728<<ASSIGN  13729>>ASSIGN  13730>>IF      13753<<ASSIGN  13785<<ASSIGN
USERS_KEY
      9903**DCL     13680<<ASSIGN  13792>>ASSIGN  13944>>ASSIGN  13974>>ASSIGN  14021<<ASSIGN
USERS_KEY.COUNT
      9903**DCL     13790<<ASSIGN  13938<<ASSIGN  13968<<ASSIGN  14012<<ASSIGN
USERS_KEY.TEXT
      9903**DCL      9904--REDEF    9904--REDEF    9904--REDEF    9905--REDEF
USERS_KEY.TXTC
      9904**DCL     13791<<CALLBLT 13937<<CALLBLT 13967<<CALLBLT 14011<<CALLBLT
WRITE_TWSNR_ERR
     14040**LABEL   14013--CALLALT 14023--CALLALT
X$PARSE
     13203**DCL-ENT 13639--CALL    13703--CALL

