VERSION E05

PL6.E3A0      #001=ASA$PROJECT File=ASA$PROJ.:E05TSI                             TUE 07/29/97 08:41 Page:1
        1        1        /*M* ASA$PROJ - ROUTINE TO HANDLE PROJECT COMMAND. */
        2        2        /*T***********************************************************/
        3        3        /*T*                                                         */
        4        4        /*T* Copyright (c) Bull HN Information Systems Inc., 1997    */
        5        5        /*T*                                                         */
        6        6        /*T***********************************************************/
        7        7        /*X*  DMC,DMR,CCC,PLM=0,IND=3,CTI=5,DCI=6,IAD=0,DTI=0,IDT=0,ENI=3,
        8        8              ECU=3,CSU=3,SDI=3                                           */
        9        9
       10       10        /*   ASA$PROJ : This module consists of procedures:
       11       11                             ASA$PROJECT
       12       12                             ASA$PACKSET_OPTS                      */
       13       13        /*M* ASA$PROJECT - external procedure for CREATE/MODIFY PROJECT options */
       14       14                                                              /**/
       15       15        /********************************************************************/
       16       16        /*                                                                   */
       17       17        /*                   ASA$PROJECT         proc                        */
       18       18        /*                                                                   */
       19       19        /*********************************************************************/
       20       20                                                              /**/
       21       21        ASA$PROJECT: PROC( CR_MOD_KEY );
       22       22                                                              /**/
       23       23        %SET LISTSUB = '1'B ;
       24       24        %EJECT ;
PL6.E3A0      #001=ASA$PROJECT File=ASA$PROJ.:E05TSI                             TUE 07/29/97 08:41 Page:2
       25       25        /********************************************************************/
       26       26        /*   Parameters      parameters      parameters      parameters      */
       27       27        /*********************************************************************/
       28       28                                                              /**/
       29       29    1   DCL 1 CR_MOD_KEY ALIGNED ,
       30       30    1          2 CNT UBIN(9) UNAL ,
       31       31    1          2 TEXT CHAR(20) UNAL ;
       32       32                                                              /**/
       33       33        %EJECT ;
PL6.E3A0      #001=ASA$PROJECT File=ASA$PROJ.:E05TSI                             TUE 07/29/97 08:41 Page:3
       34       34        /********************************************************************/
       35       35        /*   Include files   include files   include files   include files   */
       36       36        /*********************************************************************/
       37       37                                                              /**/
       38       38        %INCLUDE AS_ENTRIES_M ;
       39     1088        %INCLUDE AS_SUBS_C    ;
       40     2502        %INCLUDE AS_PERR_C    ;
       41     3104        %INCLUDE AS_MAC_C     ;
       42     3184        %INCLUDE AS_SUPER_C   ;
       43     3619        %INCLUDE XU_MACRO_C   ;
       44     6725        %INCLUDE XU_FORMAT_C  ;
       45     6887        %INCLUDE KL_SUPER_C   ;
       46     9789        %INCLUDE AS_SUPER_R   ;
       47    12805        %INCLUDE CP_6         ;
       48    12886        %INCLUDE B_ERRORS_C   ;
       49    14013                                                              /**/
       50    14014        %EJECT ;
PL6.E3A0      #001=ASA$PROJECT File=ASA$PROJ.:E05TSI                             TUE 07/29/97 08:41 Page:4
       51    14015        /********************************************************************/
       52    14016        /*   Constant & static data          constant & statc data           */
       53    14017        /*********************************************************************/
       54    14018                                                              /**/
       55    14019    1   DCL MORE BIT(1) STATIC ;
       56    14020                                                              /**/
       57    14021        %EJECT ;
PL6.E3A0      #001=ASA$PROJECT File=ASA$PROJ.:E05TSI                             TUE 07/29/97 08:41 Page:5
       58    14022        /********************************************************************/
       59    14023        /*   Local based     local based     local based     local based     */
       60    14024        /*********************************************************************/
       61    14025                                                              /**/
       62    14026        %PARSE$OUT( NAME=P$NODE, STCLASS="BASED(NODE$)",
       63    14027                    NDTYPE=TYPE, NSUBLKS=SUBNODES) ;
       64    14072        %PARSE$SYM( NAME = OUT$SYM ,
       65    14073                    STCLASS="BASED(BLK$)") ;
       66    14111    1   DCL 1 VARY$STR BASED(STR$) ALIGNED ,
       67    14112    1          2 CNT UBIN(9) UNAL ,
       68    14113    1          2 TEXT CHAR(VARY$STR.CNT) ;
       69    14114                                                              /**/
       70    14115        %EJECT ;
PL6.E3A0      #001=ASA$PROJECT File=ASA$PROJ.:E05TSI                             TUE 07/29/97 08:41 Page:6
       71    14116        /********************************************************************/
       72    14117        /*   Entry dcls      entry dcls      entry dcls      entry dcls      */
       73    14118        /*********************************************************************/
       74    14119                                                              /**/
       75    14120    1   DCL X$PARSE ENTRY(1) ALTRET ;
       76    14121        %ASB$READ_SI ;
       77    14124        %ASB$SET_PROMPT ;
       78    14127        %ASB$WRITE_LO ;
       79    14130        %ASC$CM_OPTS ;
       80    14133        %ASH$HELP ;
       81    14136        %ASH$DQUEST ;
       82    14139        %ASH$QUEST ;
       83    14142        %ASH$ERROR ;
       84    14145        %ASH$WARN ;
       85    14148        %ASB$READ_PROJ ;
       86    14151        %ASB$PREC_PROJ ;
       87    14154        %ASB$DELREC_PROJ ;
       88    14157        %ASA$KEYCONV ;
       89    14160        %ASB$GETSEG ;
       90    14163        %ASA$PACKSET_OPTS ;
       91    14166        %ASB$ENQ_USERS ;
       92    14169        %ASB$READ_USERS ;
       93    14172        %ASB$WRITE_USERS ;
       94    14175        %ASA$ERROR ;
       95    14178                                                              /**/
       96    14179                                                              /**/
       97    14180        %EJECT ;
PL6.E3A0      #001=ASA$PROJECT File=ASA$PROJ.:E05TSI                             TUE 07/29/97 08:41 Page:7
       98    14181        /********************************************************************/
       99    14182        /*   Auto data       auto data       auto data       auto data       */
      100    14183        /*********************************************************************/
      101    14184                                                              /**/
      102    14185    1   DCL ARS SBIN ;
      103    14186    1   DCL DELTA SBIN;
      104    14187    1   DCL VAL SBIN ;
      105    14188    1   DCL UBIN_VAL UBIN;
      106    14189    1   DCL DOLLAR SBIN;
      107    14190    1   DCL CENTS  SBIN;
      108    14191    1   DCL SIGN SBIN;
      109    14192    1   DCL PRIO UBIN WORD ;
      110    14193    1   DCL SUBNODES SBIN ;
      111    14194    1   DCL SUBND$ PTR ;
      112    14195    1   DCL BLK$ PTR ;
      113    14196    1   DCL STR$ PTR ;
      114    14197    1   DCL I SBIN ;
      115    14198    1   DCL J SBIN ;
      116    14199    1   DCL 1 PACKSET,
      117    14200    1          2 CNT UBIN BYTE UNAL,
      118    14201    1          2 TXT CHAR(6) UNAL;
      119    14202        %AS$PROJ_HEADER( NAME=PROJ_HEADER, STCLASS=AUTO );
      120    14231                                                              /**/
      121    14232        %EJECT ;
PL6.E3A0      #001=ASA$PROJECT File=ASA$PROJ.:E05TSI                             TUE 07/29/97 08:41 Page:8
      122    14233        /********************************************************************/
      123    14234        /*   Procedure       procedure       procedure       procedure       */
      124    14235        /*********************************************************************/
      125    14236                                                              /**/
      126    14237        /*
      127    14238            ***            Begin procedure                    ***
      128    14239        */
      129    14240    1   MORE = AS_TRUE ;
      130    14241                                                              /**/
      131    14242    1   CM_LOOP: ;
      132    14243    2   DO WHILE (MORE) ;
      133    14244    2      REMEMBER CM_LOOP IN REMEM_VAR ;
      134    14245    2      P_PCB.ROOT$ = ADDR(CR_MOD_PROJ_OPTS);
      135    14246                                                                  /*  Set prompt  */
      136    14247    2      CALL ASB$SET_PROMPT ( %PROMPT_PROJ ) ;
      137    14248                                                                  /**/
      138    14249    2      CALL ASB$READ_SI(IN_BUF,ARS) ;             /* Read option line */
      139    14250    2      P_PCB.NCHARS = ARS ;
      140    14251    2      CALL X$PARSE(P_PCB) ALTRET (OPTION_ERR) ;
      141    14252                                                              /**/
      142    14253    2      NODE$ = P_PCB.OUT$ ;
      143    14254                                                              /**/
      144    14255                                                              /**/
      145    14256    2      CODE = P$NODE.CODE ;
      146    14257    2      SUBNODES = P$NODE.SUBNODES ;
      147    14258                                                              /**/
      148    14259    3      DO I = 0 TO SUBNODES-1 ;
      149    14260    3         SUBND$ = P$NODE.SUBLK$(I) ;
      150    14261    3         CODE = SUBND$ -> P$NODE.CODE ;
      151    14262                                                              /**/
      152    14263    4         DO SELECT (CODE) ;
      153    14264                                                              /**/
      154    14265    4            SELECT(12   /*  END_VAL  */, 26   /*  BLANK_LINE_VAL */) ;
      155    14266    4            USERS_KEY = CR_MOD_KEY;         /* End or blank input */
      156    14267    4            IF CR_MOD_KEY.TEXT = 'DEFAULTP' THEN RETURN;
      157    14268    4            PROJ_KEY.TXT.PROJECT = CR_MOD_KEY.TEXT;
      158    14269    4            PROJ_KEY.TXT.PACKSET = AS_PROJECT.HPSN;
PL6.E3A0      #001=ASA$PROJECT File=ASA$PROJ.:E05TSI                             TUE 07/29/97 08:41 Page:9
      159    14270    4            CALL INDEX( J, AS_BLANK, AS_PROJECT.HPSN );
      160    14271    4            PROJ_KEY.COUNT = 20 + J;
      161    14272    4            J = SIZEC(PROJ_HEADER);
      162    14273    4            CALL ASB$READ_PROJ(ADDR(PROJ_HEADER),J) ALTRET(READ_PROJ_ERR);
      163    14274    4            IF AS_PROJECT.HPSN = AS_PROJECT_DFLT.HPSN THEN RETURN;
      164    14275    4            PROJ_KEY.TXT.PACKSET = AS_PROJECT_DFLT.HPSN;
      165    14276    4            CALL INDEX( J, AS_BLANK, AS_PROJECT_DFLT.HPSN );
      166    14277    4            PROJ_KEY.COUNT = 20 + J;
      167    14278    4            J = SIZEC(PROJ_HEADER);
      168    14279    4            CALL ASB$READ_PROJ(ADDR(PROJ_HEADER),J) ALTRET(READ_PROJ_ERR);
      169    14280    4            RETURN;
      170    14281    4   READ_PROJ_ERR:
      171    14282    4            AS_FIELD1.COUNT = PROJ_KEY.COUNT - 20;
      172    14283    4            AS_FIELD1.TEXT = PROJ_KEY.TXT.PACKSET;
      173    14284    5            IF PROJ_KEY.TXT.PACKSET = AS_PROJECT.HPSN THEN DO;
      174    14285        /*E*  ERROR:  ASA-E$MISSING_PACKSET1-C
      175    14286        MESSAGE: The home packset for the project administrator of this project is DP#%U1.
      176    14287                 PACKSET = DP#%U1 must be specified for this project.
      177    14288        MESSAGE1: You must specify a PACKSET option for the packset that was
      178    14289                  specified as the home packset for the project administrator
      179    14290                  of this project.
      180    14291        */
      181    14292                    %SCREAM( ERR#=E$MISSING_PACKSET1, LEVEL=ERROR,MID='A' );
      182    14307    5               END;
      183    14308    5            ELSE DO;
      184    14309        /*E*  ERROR:  ASA-E$MISSING_PACKSET2-C
      185    14310        MESSAGE: The default home packset for users in this project is DP#%U1.
      186    14311                 PACKSET = DP#%U1 must be specified for this project.
      187    14312        MESSAGE1: You must specify a PACKSET option for the packset that was
      188    14313                  specified as the default home packset for users in the project.
      189    14314        */
      190    14315                    %SCREAM( ERR#=E$MISSING_PACKSET2, LEVEL=ERROR, MID='A' );
      191    14330    5               END;
      192    14331                                                              /**/
      193    14332    4            SELECT(302 /* HELP_VAL */) ;
      194    14333    4            CALL ASH$HELP ;
      195    14334                                                              /**/
PL6.E3A0      #001=ASA$PROJECT File=ASA$PROJ.:E05TSI                             TUE 07/29/97 08:41 Page:10
      196    14335    4            SELECT(300 /* DQUESTION_VAL */) ;
      197    14336    4            CALL ASH$DQUEST ;
      198    14337                                                              /**/
      199    14338    4            SELECT(301 /* QUESTION_VAL */) ;
      200    14339    4            CALL ASH$QUEST ;
      201    14340                                                              /**/
      202    14341    4            SELECT( 1 /* PROJ_ADMIN_VAL */ );
      203    14342    4            AS_USERS = AS_PROJECT;
      204    14343    4            KL_DREC  = AS_PROJECT_DREC;
      205    14344    4            IF AS_CR_MOD_PROJ > 0
      206    14345    5            THEN DO;
      207    14346    5               AS_CR_MOD_PROJ = %CR_PROJECT;
      208    14347    5               AS_DFLT = AS_PROJ_ADMIN;
      209    14348    5               KL_DFLT = AS_PROJ_ADMIN_DREC;
      210    14349    5               END;
      211    14350    4            ELSE AS_CR_MOD_PROJ = - %CR_PROJECT;
      212    14351    4            CALL ASC$CM_OPTS( CR_MOD_KEY );
      213    14352    4            AS_PROJECT = AS_USERS;
      214    14353    4            AS_PROJECT_DREC = KL_DREC;
      215    14354                                                              /**/
      216    14355    4            SELECT( 2 /* PROJ_DFLT_VAL */ );
      217    14356    4            AS_USERS = AS_PROJECT_DFLT;
      218    14357    4            KL_DREC  = AS_PROJECT_DFLT_DREC;
      219    14358    4            IF AS_CR_MOD_PROJ > 0
      220    14359    5            THEN DO;
      221    14360    5               AS_CR_MOD_PROJ = %CR_PROJ_DEFAULT;
      222    14361    5               AS_DFLT = AS_DEFAULT;
      223    14362    5               KL_DFLT = AS_DEFAULT_DREC;
      224    14363    5               END;
      225    14364    4            ELSE AS_CR_MOD_PROJ = - %CR_PROJ_DEFAULT;
      226    14365    4            CALL ASC$CM_OPTS( CR_MOD_KEY );
      227    14366    4            AS_PROJECT_DFLT = AS_USERS;
      228    14367    4            AS_PROJECT_DFLT_DREC = KL_DREC;
      229    14368                                                              /**/
      230    14369    4            SELECT( 5 /* PROJ_CHARGES_VAL */ );
      231    14370                                                              /**/
      232    14371        /*
PL6.E3A0      #001=ASA$PROJECT File=ASA$PROJ.:E05TSI                             TUE 07/29/97 08:41 Page:11
      233    14372            If the value input on the mcharges option line has a sign
      234    14373            associated with it,  the value is treated relative to the
      235    14374            current maxc value, or the default maxc value.  If the input
      236    14375            value does not have a sign it is treated as an absolute
      237    14376            replacement value for either the current maxc, if there is
      238    14377            one, or it replaces the default maxc.
      239    14378        */
      240    14379    4            IF SUBND$ -> P$NODE.SUBLK$(0) -> P$NODE.CODE = 7   /*  NONE_VAL  */
      241    14380    5            THEN DO;
      242    14381    5               AS_PROJECT.BUDGET.PMAXC = -1;
      243    14382    5               END;
      244    14383    5            ELSE DO;
      245    14384    6               IF SUBND$ -> P$NODE.SUBNODES = 1 THEN DO;
      246    14385    6                  SIGN = 0; /*  no sign on the input  */
      247    14386    6                  BLK$ = SUBND$ -> P$NODE.SUBLK$(0);
      248    14387    6                  END;
      249    14388    6               ELSE DO; /*  we have a sign  */
      250    14389    6                  BLK$ = SUBND$ -> P$NODE.SUBLK$(1); /* pts to mcharges value node */
      251    14390    6                  IF SUBND$-> P$NODE.SUBLK$(0) -> P$NODE.SUBLK$(0) -> P$NODE.CODE = 1
             14390                           /* MINUS_VAL */
      252    14391    6                  THEN SIGN = -1;
      253    14392    6                  ELSE SIGN = 1;
      254    14393    6                  END;
      255    14394    5               CALL CHARBIN( DOLLAR, BLK$->P$NODE.SUBLK$(0)->OUT$SYM.TEXT );
      256    14395    5               IF BLK$ -> P$NODE.SUBNODES = 1 THEN
      257    14396    5                  CENTS = 0;
      258    14397    6               ELSE DO;
      259    14398    6                  IF BLK$->P$NODE.SUBLK$(1)->OUT$SYM.COUNT = 1
      260    14399    7                  THEN DO;
      261    14400    7                     CALL CHARBIN( CENTS, BLK$->P$NODE.SUBLK$(1)->OUT$SYM.TEXT);
      262    14401    7                     CENTS = CENTS * 10;
      263    14402    7                     END;
      264    14403    6                  ELSE
      265    14404    6                     CALL CHARBIN(CENTS,SUBSTR(BLK$->P$NODE.SUBLK$(1)->OUT$SYM.TEXT,0,2
             14404                              ));
      266    14405    6                  END;
      267    14406    5               UBIN_VAL = DOLLAR * 10000 + CENTS * 100 ;
PL6.E3A0      #001=ASA$PROJECT File=ASA$PROJ.:E05TSI                             TUE 07/29/97 08:41 Page:12
      268    14407    5               IF SIGN ~= 0 THEN
      269    14408    6                  IF UBIN_VAL > 34359738300 THEN DO;
      270    14409    7                     IF SIGN = -1 THEN DO;
      271    14410        /*E*   ERROR: ASA-E$MCHARGES_TOO_SML-C
      272    14411             MESSAGE: Mcharges too small.
      273    14412             MESSAGE1: Mcharges cannot be less than -3435973.83.
      274    14413        */
      275    14414                             %SCREAM( ERR#=E$MCHARGES_TOO_SML, LEVEL=ERROR, MID='A' );
      276    14429    7                        END;
      277    14430    7                     ELSE DO;
      278    14431        /*E*   ERROR: ASA-E$MCHARGES_TOO_BIG-C
      279    14432             MESSAGE: Mcharges too large.
      280    14433             MESSAGE1: Mcharges cannot be greater than 3435973.83.
      281    14434        */
      282    14435                             %SCREAM( ERR#=E$MCHARGES_TOO_BIG, LEVEL=ERROR, MID='A' );
      283    14450    7                        END;
      284    14451    6                     GOTO CM_LOOP;
      285    14452    6                     END;
      286    14453    5               IF AS_PROJECT.BUDGET.PMAXC = -1 AND SIGN = -1
      287    14454    6               THEN DO;
      288    14455        /*E* ERROR: ASA-E$MCHARGES_ILL_VAL-C
      289    14456             MESSAGE: MCHARGES cannot be negative.
      290    14457             MESSAGE1: MCHARGES cannot be negative when previously set to NONE.
      291    14458        */
      292    14459                       %SCREAM( ERR#=E$MCHARGES_ILL_VAL,LEVEL=ERROR,MID='A');
      293    14474    6                  GOTO CM_LOOP;
      294    14475    6                  END;
      295    14476    5               IF SIGN = 0 THEN
      296    14477    5                  AS_PROJECT.BUDGET.PMAXC = UBIN_VAL ;
      297    14478    5               IF AS_PROJECT.BUDGET.PMAXC = -1 AND SIGN = 1
      298    14479    5               THEN AS_PROJECT.BUDGET.PMAXC = UBIN_VAL;
      299    14480    6               ELSE DO;
      300    14481    6                  VAL = (SIGN * UBIN_VAL) + AS_PROJECT.BUDGET.PMAXC ;
      301    14482    6                  IF VAL >= 0 THEN
      302    14483    6                     AS_PROJECT.BUDGET.PMAXC = VAL ;
      303    14484    7                  ELSE DO;
      304    14485        /*E*  ERROR: ASA-E$MCHARGES_NEG_VAL-C
PL6.E3A0      #001=ASA$PROJECT File=ASA$PROJ.:E05TSI                             TUE 07/29/97 08:41 Page:13
      305    14486              MESSAGE: MCHARGES is a negative value.
      306    14487              MESSAGE1: MCHARGES cannot have a negative value.
      307    14488        */
      308    14489                          %SCREAM(ERR#=E$MCHARGES_NEG_VAL,LEVEL=ERROR,MID='A') ;
      309    14504    7                     END;
      310    14505    6                  END;
      311    14506    5               END;
      312    14507
      313    14508        /*
      314    14509        If AS_CR_MOD_PROJ > 0  and  AS_DFLT.BUDGET.MAXC > 0
      315    14510        then
      316    14511           if AS_PROJECT.BUDGET.PMAXC > AS_DFLT.BUDGET.MAXC
      317    14512           then do;
      318    14513        */
      319    14514        /*E* ERROR:   ASA-E$MCHARGES_TOO_LARGE-C
      320    14515             MESSAGE: MCHARGES greater than the maximum allowed for a %U1 you create.
      321    14516             MESSAGE1: MCHARGES = %U2.%U3 is the maximum allowed for a %U1 you create.
      322    14517                       Setting MCHARGE to %U2.%U3.
      323    14518        */
      324    14519        /*
      325    14520              AS_FIELD1 = TEXTC(AS_CR_MOD_PROJ-1);
      326    14521              dollar = AS_DFLT.BUDGET.MAXC / 10000;
      327    14522              cents = mod( AS_DFLT.BUDGET.MAXC, 10000 ) / 100;
      328    14523              %NUMBER( NUM2="DOLLAR", NUM3="CENTS" );
      329    14524              if AS_FIELD3.COUNT = 1
      330    14525              then do;
      331    14526                 AS_FIELD3.COUNT = 2;
      332    14527                 call insert( AS_FIELD3.TEXT, 1, 1, '0' );
      333    14528                 end;
      334    14529              %SCREAM( ERR#=E$MCHARGES_TOO_LARGE, level=error, mid='a' );
      335    14530              AS_PROJECT.BUDGET.PMAXC = AS_DFLT.BUDGET.MAXC;
      336    14531              end;
      337    14532
      338    14533        */
      339    14534    4            SELECT( 7 /* PROJECT ACHARGES */ );
      340    14535    5            IF NOT SUPERAUTH THEN DO;
      341    14536        /*E* ERROR:   ASA-E$ACHARGES_NOT_ALLOWED-C
PL6.E3A0      #001=ASA$PROJECT File=ASA$PROJ.:E05TSI                             TUE 07/29/97 08:41 Page:14
      342    14537        MESSAGE: The SUPERAUTH pprivilege is required to use the ACHARGES option.
      343    14538        */
      344    14539                    %SCREAM( ERR#=E$ACHARGES_NOT_ALLOWED,LEVEL=ERROR,MID='A');
      345    14554    5               GOTO CM_LOOP;
      346    14555    5               END;
      347    14556    5            IF SUBND$ -> P$NODE.SUBNODES = 1 THEN DO;
      348    14557    5               SIGN = 1;
      349    14558    5               BLK$ = SUBND$ -> P$NODE.SUBLK$(0);
      350    14559    5               END;
      351    14560    5            ELSE DO;
      352    14561    5               IF SUBND$ -> P$NODE.SUBLK$(0) -> P$NODE.SUBLK$(0) -> P$NODE.CODE = 1
             14561                        /* MINUS_VAL */
      353    14562    5               THEN SIGN = -1;
      354    14563    5               ELSE SIGN = 1;
      355    14564    5               BLK$ = SUBND$ -> P$NODE.SUBLK$(1);
      356    14565    5               END;
      357    14566    4            CALL CHARBIN( DOLLAR, BLK$->P$NODE.SUBLK$(0)->OUT$SYM.TEXT );
      358    14567    4            IF BLK$ -> P$NODE.SUBNODES = 1 THEN
      359    14568    4               CENTS = 0;
      360    14569    5            ELSE DO;
      361    14570    5               IF BLK$->P$NODE.SUBLK$(1)->OUT$SYM.COUNT = 1
      362    14571    6               THEN DO;
      363    14572    6                  CALL CHARBIN( CENTS, BLK$->P$NODE.SUBLK$(1)->OUT$SYM.TEXT);
      364    14573    6                  CENTS = CENTS * 10;
      365    14574    6                  END;
      366    14575    5               ELSE
      367    14576    5                  CALL CHARBIN( CENTS, SUBSTR(BLK$->P$NODE.SUBLK$(1)->OUT$SYM.TEXT,0,2)
             14576                           );
      368    14577    5               END;
      369    14578    4            UBIN_VAL = DOLLAR * 10000 + CENTS * 100 ;
      370    14579    5            IF UBIN_VAL > 34359738300 THEN DO;
      371    14580    6               IF SIGN = -1 THEN DO;
      372    14581        /*   ERROR: ASC-E$ACCUM_TOO_SMALL-C
      373    14582             MESSAGE: Acharges too small.
      374    14583             MESSAGE1: Acharges cannot be less than -3435973.83.
      375    14584        */
      376    14585                       %SCREAM( ERR#=E$ACCUM_TOO_SMALL, LEVEL=ERROR, MID='C' );
PL6.E3A0      #001=ASA$PROJECT File=ASA$PROJ.:E05TSI                             TUE 07/29/97 08:41 Page:15
      377    14600    6                  END;
      378    14601    6               ELSE DO;
      379    14602        /*   ERROR: ASC-E$ACCUM_TOO_BIG-C
      380    14603             MESSAGE: Acharges too large.
      381    14604             MESSAGE1: Acharges cannot be greater than 3435973.83.
      382    14605        */
      383    14606                       %SCREAM( ERR#=E$ACCUM_TOO_BIG, LEVEL=ERROR, MID='C' );
      384    14621    6                  END;
      385    14622    5               GOTO CM_LOOP;
      386    14623    5               END;
      387    14624    4            VAL = SIGN * UBIN_VAL;
      388    14625    4            DELTA = VAL - AS_PROJECT.BUDGET.PACCUM;
      389    14626    4            AS_PROJECT.BUDGET.PACCUM = VAL;
      390    14627    4            AS_USERS = AS_PROJECT;
      391    14628    5            DO WHILE(AS_USERS.BUDGET.PCHARGES AND AS_USERS.BUDGET.MACCT ~= AS_NONE);
      392    14629    5               USERS_KEY = AS_USERS.BUDGET.MACCT;
      393    14630    5               CALL ASB$ENQ_USERS ALTRET(ENQ_ERR);
      394    14631    5               CALL ASB$READ_USERS( AS_USERS ) ALTRET(READ_ERR);
      395    14632    5               AS_USERS.BUDGET.PACCUM = AS_USERS.BUDGET.PACCUM + DELTA;
      396    14633    5               CALL ASB$WRITE_USERS( AS_USERS );
      397    14634    5               END;
      398    14635    5            DO WHILE( '0'B );
      399    14636    5   READ_ERR:
      400    14637    5               CALL ASA$ERROR( USERS_KEY, 307 /* UNABLE TO READ :USERS */ );
      401    14638    5               END;
      402    14639    5            DO WHILE( '0'B );
      403    14640    5   ENQ_ERR:
      404    14641    5               CALL ASH$ERROR( ERR_CODE );
      405    14642    5               END;
      406    14643                                                              /**/
      407    14644    4            SELECT( 3 /* PROJ_ACCTS_VAL */ );
      408    14645    4            CALL CHARBIN( VAL, SUBND$->P$NODE.SUBLK$(0)->OUT$SYM.TEXT );
      409    14646    4            IF CR_MOD_FLG  AND  VAL < AS_PROJECT_DFLT.BUDGET.PROJ_CREATED
      410    14647    5            THEN DO;
      411    14648        /*E* ERROR: ASA-E$P_ACCTS_TOO_SMALL-C
      412    14649        MESSAGE: ACCOUNTS cannot be set less than the number of accounts already
      413    14650                 accumulated by this project.  Setting ACCOUNTS to %U1.
PL6.E3A0      #001=ASA$PROJECT File=ASA$PROJ.:E05TSI                             TUE 07/29/97 08:41 Page:16
      414    14651        MESSAGE1: %U1 accounts have already been accumulated by this project.
      415    14652                  You cannot set ACCOUNTS to a value which is less than the number of
      416    14653                  accounts already accumulated by the project.  ACCOUNTS is set to %U1.
      417    14654        */
      418    14655    5               VAL = AS_PROJECT_DFLT.BUDGET.PROJ_CREATED;
      419    14656                    %NUMBER( NUM1=VAL );
             14664    5         CALL ASB$BINCHAR( AS_FIELD1.TEXT, 0, -1, VAL );
      420    14686                    %SCREAM( ERR#=E$P_ACCTS_TOO_SMALL, MID='A', LEVEL=ERROR );
      421    14701    5               END;
      422    14702    5            IF AS_CR_MOD_PROJ > 0 THEN DO;
      423    14703    5               IF AS_PROJECT_DFLT.BUDGET.PMAXC > 0 THEN
      424    14704    5                  DELTA = VAL - AS_PROJECT_DFLT.BUDGET.PROJ_ALLOWED;
      425    14705    5               ELSE
      426    14706    5                  DELTA = VAL;
      427    14707    5               IF AS_DEFAULT.BUDGET.PROJ_CREATED + DELTA > AS_DEFAULT.BUDGET.
             14707                        PROJ_ALLOWED
      428    14708    6               THEN DO;
      429    14709        /*E* ERROR: ASA-E$TOO_MANY_P_ACCTS-C
      430    14710        MESSAGE: Maximum number of accounts exceeded for project %U1.
      431    14711                 ACCOUNTS = %U2 is the most that can be specified.
      432    14712        */
      433    14713    6                  CALL INDEX( J, AS_BLANK, AS_PROJECT_ADMIN.TEXT );
      434    14714    6                  CALL CONCAT( AS_FIELD1.TEXT,
      435    14715    6                       SUBSTR(AS_PROJECT_ADMIN.TEXT,0,J), ',',
      436    14716    6                       SUBSTR(AS_PROJECT_ADMIN.TEXT,8,AS_PROJECT_ADMIN.COUNT-8) );
      437    14717    6                  AS_FIELD1.COUNT = AS_PROJECT_ADMIN.COUNT - 7 + J;
      438    14718    6                  DELTA = AS_DEFAULT.BUDGET.PROJ_ALLOWED - AS_DEFAULT.BUDGET.
             14718                           PROJ_CREATED + AS_PROJECT_DFLT.BUDGET.PROJ_ALLOWED;
      439    14719                       %NUMBER( NUM2=DELTA );
             14735    6         CALL ASB$BINCHAR( AS_FIELD2.TEXT, 0, -2, DELTA );
      440    14749                       %SCREAM( ERR#=E$TOO_MANY_P_ACCTS,MID='A',LEVEL=ERROR);
      441    14764    6                  GOTO CM_LOOP;
      442    14765    6                  END;
      443    14766    5               AS_DEFAULT.BUDGET.PROJ_CREATED = AS_DEFAULT.BUDGET.PROJ_CREATED + DELTA;
      444    14767    5               END;
      445    14768    4            AS_PROJECT_DFLT.BUDGET.PROJ_ALLOWED = VAL;
      446    14769                                                              /**/
PL6.E3A0      #001=ASA$PROJECT File=ASA$PROJ.:E05TSI                             TUE 07/29/97 08:41 Page:17
      447    14770    4            SELECT( 4 /* PROJ_PACK_VAL */ );
      448    14771                                                      /*  Get packset name */
      449    14772    4            BLK$ = SUBND$ -> P$NODE.SUBLK$(0);
      450    14773    4            PACKSET.TXT = OUT$SYM.TEXT;
      451    14774    4            PACKSET.CNT = OUT$SYM.COUNT;
      452    14775                                                      /*  Process packset options */
      453    14776    4            CALL ASA$PACKSET_OPTS( CR_MOD_KEY, PACKSET );
      454    14777    4            GOTO CM_LOOP;
      455    14778                                                              /**/
      456    14779    4            SELECT( 8 /* REMOVE PACKSET */ );
      457    14780                                                      /*  Get packset name */
      458    14781    4            BLK$ = SUBND$ -> P$NODE.SUBLK$(0);
      459    14782    4            PACKSET.TXT = OUT$SYM.TEXT;
      460    14783    4            PACKSET.CNT = OUT$SYM.COUNT;
      461    14784                                                      /* See if :PROJ record exists */
      462    14785    4            PROJ_KEY.COUNT = PACKSET.CNT + 20;
      463    14786    4            CALL CONCAT( PROJ_KEY.TEXT, CR_MOD_KEY.TEXT, PACKSET.TXT );
      464    14787    4            CALL ASB$PREC_PROJ ALTRET(PACK_NO_EXIST);
      465    14788    5            DO WHILE( '0'B );
      466    14789        /*E*  ERROR:  ASA-E$PACK_NO_EXIST_FOR_PROJ-C
      467    14790              MESSAGE: Packset DP#%U1 does not exist for project "%U2".
      468    14791        */
      469    14792    5   PACK_NO_EXIST: AS_FIELD1 = PACKSET;
      470    14793    5               CALL ASA$KEYCONV( CR_MOD_KEY, AS_FIELD2 );
      471    14794                    %SCREAM(ERR#=E$PACK_NO_EXIST_FOR_PROJ,LEVEL=ERROR,MID='A');
      472    14809    5               GOTO CM_LOOP;
      473    14810    5               END;
      474    14811                                                          /* Read the :PROJ record */
      475    14812    4            I = SIZEC(PROJ_HEADER);
      476    14813    4            CALL ASB$READ_PROJ( ADDR(PROJ_HEADER), I ) ALTRET(PROJ_READ_ERR);
      477    14814    5            DO WHILE( '0'B );
      478    14815    5   PROJ_READ_ERR: CALL ASH$ERROR( ERR_CODE );
      479    14816    5               GOTO CM_LOOP;
      480    14817    5               END;
      481    14818    5            IF PROJ_HEADER.NUM_ACCTS > 0 THEN DO;
      482    14819        /*E*  ERROR:  ASA-E$ACCTS_STILL_ON_PACK-C
      483    14820              MESSAGE: Accounts still exist on packset DP#%U1.
PL6.E3A0      #001=ASA$PROJECT File=ASA$PROJ.:E05TSI                             TUE 07/29/97 08:41 Page:18
      484    14821              MESSAGE1: Packset DP#%U1 cannot be removed while there are still
      485    14822                        accounts on it for project "%U2".
      486    14823        */
      487    14824    5               AS_FIELD1 = PACKSET;
      488    14825    5               CALL ASA$KEYCONV( CR_MOD_KEY, AS_FIELD2 );
      489    14826                    %SCREAM( ERR#=E$ACCTS_STILL_ON_PACK,LEVEL=ERROR,MID='A' );
      490    14841    5               GOTO CM_LOOP;
      491    14842    5               END;
      492    14843    5            IF PROJ_HEADER.SUB_PROJ_ACCTS > 0 THEN DO;
      493    14844        /*E*  ERROR:  ASA-E$STILL_SUB_PROJS_ON_PACK-C
      494    14845              MESSAGE: Sub-projects accounts are still allocated on DP#%U1.
      495    14846              MESSAGE1: Packset DP#%U1 cannot removed while accounts are still
      496    14847                        allocated for sub-projects of project "%U2".
      497    14848        */
      498    14849    5               AS_FIELD1 = PACKSET;
      499    14850    5               CALL ASA$KEYCONV( CR_MOD_KEY, AS_FIELD2 );
      500    14851    5               GOTO CM_LOOP;
      501    14852    5               END;
      502    14853                                                          /* Delete the :PROJ record */
      503    14854    4            CALL ASB$DELREC_PROJ;
      504    14855
      505    14856    4            SELECT( 6 /* PROJ_PROJ_OPT_VAL */ );
      506    14857    4            CALL CHARBIN( VAL, SUBND$->P$NODE.SUBLK$(0)->OUT$SYM.TEXT );
      507    14858    4            IF CR_MOD_FLG  AND  VAL < AS_PROJECT_DFLT.BUDGET.SUB_PROJS
      508    14859    5            THEN DO;
      509    14860        /*E* ERROR: ASA-E$P_PROJ_TOO_SMALL-C
      510    14861        MESSAGE: PROJECTS cannot be set less than the number of projects already
      511    14862                 accumulated by this project.  Setting PROJECTS to %U1.
      512    14863        MESSAGE1: %U1 sub-projects have already been accumulated by this project.
      513    14864                  You cannot set PROJECTS to a value which is less than the number of
      514    14865                  sub-projects already accumulated by the project.
      515    14866                  PROJECTS is set to %U1.
      516    14867        */
      517    14868    5               VAL = AS_PROJECT_DFLT.BUDGET.SUB_PROJS;
      518    14869                    %NUMBER( NUM1=VAL );
             14877    5         CALL ASB$BINCHAR( AS_FIELD1.TEXT, 0, -1, VAL );
      519    14899                    %SCREAM( ERR#=E$P_PROJ_TOO_SMALL, MID='A', LEVEL=ERROR );
PL6.E3A0      #001=ASA$PROJECT File=ASA$PROJ.:E05TSI                             TUE 07/29/97 08:41 Page:19
      520    14914    5               END;
      521    14915    5            IF AS_CR_MOD_PROJ > 0 THEN DO;
      522    14916    5               IF AS_PROJECT.BUDGET.MAX_PROJECTS > 0 THEN
      523    14917    5                  DELTA = VAL - AS_PROJECT.BUDGET.MAX_PROJECTS;
      524    14918    5               ELSE
      525    14919    5                  DELTA = VAL;
      526    14920    5               IF AS_DEFAULT.BUDGET.SUB_PROJS + DELTA > AS_PROJ_ADMIN.BUDGET.
             14920                        MAX_PROJECTS
      527    14921    6               THEN DO;
      528    14922        /*E* ERROR: ASA-E$TOO_MANY_P_PROJS-C
      529    14923        MESSAGE: Maximum number of projects exceeded for project %U1.
      530    14924                 PROJECTS = %U2 is the most that can be specified.
      531    14925        */
      532    14926    6                  CALL INDEX( J, AS_BLANK, AS_PROJECT_ADMIN.TEXT );
      533    14927    6                  CALL CONCAT( AS_FIELD1.TEXT,
      534    14928    6                       SUBSTR(AS_PROJECT_ADMIN.TEXT,0,J), ',',
      535    14929    6                       SUBSTR(AS_PROJECT_ADMIN.TEXT,8,AS_PROJECT_ADMIN.COUNT-8) );
      536    14930    6                  AS_FIELD1.COUNT = AS_PROJECT_ADMIN.COUNT - 7 + J;
      537    14931    6                  DELTA = AS_PROJ_ADMIN.BUDGET.MAX_PROJECTS - AS_DEFAULT.BUDGET.
             14931                           SUB_PROJS + AS_PROJECT.BUDGET.MAX_PROJECTS;
      538    14932                       %NUMBER( NUM2=DELTA );
             14948    6         CALL ASB$BINCHAR( AS_FIELD2.TEXT, 0, -2, DELTA );
      539    14962                       %SCREAM( ERR#=E$TOO_MANY_P_PROJS,MID='A',LEVEL=ERROR);
      540    14977    6                  GOTO CM_LOOP;
      541    14978    6                  END;
      542    14979    5               AS_DEFAULT.BUDGET.SUB_PROJS = AS_DEFAULT.BUDGET.SUB_PROJS + DELTA;
      543    14980    5               END;
      544    14981    4            AS_PROJECT.BUDGET.MAX_PROJECTS = VAL;
      545    14982    4            END;          /* Do case(code); */
      546    14983    3         END;            /* Do i = 0 to SUBNODES-1; */
      547    14984    2      END;                /* Do while(more); */
      548    14985    1   OPTION_ERR: ;
      549    14986    1   CALL ASH$ERROR( P_PCB.ERROR );
      550    14987    1   GOTO CM_LOOP;
      551    14988                                                              /**/
      552    14989
      553    14990    1   END ASA$PROJECT ;
PL6.E3A0      #001=ASA$PROJECT File=ASA$PROJ.:E05TSI                             TUE 07/29/97 08:41 Page:20
      554    14991        %EOD;

PL6.E3A0      #001=ASA$PROJECT File=ASA$PROJ.:E05TSI                             TUE 07/29/97 08:41 Page:21
--  Include file information  --

   B_ERRORS_C.:E05TOU  is referenced.
   CP_6.:E05TOU  cannot be made into a system file and is referenced.
   AS_SUPER_R.:E05TOU  cannot be made into a system file and is referenced.
   KL_SUPER_C.:E05TOU  is referenced.
   XU_FORMAT_C.:E05TOU  is referenced.
   XU_MACRO_C.:E05TOU  is referenced.
   AS_SUPER_C.:E05TOU  is referenced.
   AS_MAC_C.:E05TOU  cannot be made into a system file and is referenced.
   AS_PERR_C.:E05TOU  is referenced.
   AS_SUBS_C.:E05TOU  is referenced.
   AS_ENTRIES_M.:E05TOU  is referenced.
   B$JIT_C.:E05TOU  was found in the system file and is never referenced.
   CP_6_C.:E05TOU  was found in the system file and is referenced.
      No diagnostics issued in procedure ASA$PROJECT.

   Procedure ASA$PROJECT requires 834 words for executable code.
   Procedure ASA$PROJECT requires 36 words of local(AUTO) storage.

PL6.E3A0      #001=ASA$PROJECT File=ASA$PROJ.:E05TSI                             TUE 07/29/97 08:41 Page:22

 Object Unit name= ASA$PROJECT                                File name= ASA$PROJ.:E05TOU
 UTS= JUL 29 '97 08:41:28.24 TUE                              Compiler= PL-6/E31         Sev=      00
 SharedLib= :SHARED_SYSTEM                                    Alt SharedLib=


    ****  Control sections  ****

 Sect   Type Bound  Init  Size OctSiz  Section name(segment info)
    0   DCB   even  none     0      0  M$LO
    1   DCB   even  none     0      0  M$UC
    2   Data  even  none     1      1  ASA$PROJECT
    3  RoData even  UTS     17     21  ASA$PROJECT
    4   Proc  even  none   834   1502  ASA$PROJECT
    5  RoData even  none    35     43  ASA$PROJECT

    ****  Entry defs  ****

                              Check   Calling
                             calling  sequence
  Sect OctLoc Primary Altret sequence   type   Parms  Name
     4      0   yes            yes      Std        1  ASA$PROJECT
PL6.E3A0      #001=ASA$PROJECT File=ASA$PROJ.:E05TSI                             TUE 07/29/97 08:41 Page:23

  ****  Entry refs  ****

         Check        Calling
        calling       sequence
Altret sequence SRef   type   Args  Name
         yes          ~proc      0 XU_OUTPUT_OPTIONS
         yes           Std       2 ASB$READ_SI
         yes           Std       1 ASC$CM_OPTS
 yes     yes           Std       0 ASB$ENQ_USERS
 yes     yes           Std       1 ASB$WRITE_USERS
         yes           Std       4 ASB$BINCHAR
 yes     yes           Std       1 ASB$READ_USERS
 yes     yes           Std       0 ASB$PREC_PROJ
 yes     yes           Std       0 ASB$DELREC_PROJ
 yes     yes           Std       3 ASB$SET_PROMPT
 yes     yes           Std       3 ASB$READ_PROJ
         yes           Std       0 ASH$HELP
         yes           Std       2 ASH$ERROR
         yes           Std       0 ASH$QUEST
         yes           Std       2 ASA$PACKSET_OPTS
         yes           Std       3 ASA$ERROR
         yes           Std       2 ASA$KEYCONV
 yes     yes           Std       1 X$PARSE
         yes           Std       0 ASH$DQUEST
                       nStd      0 X66_AUTO_1
                       Std       0 B_CONSPOOL_D
                       nStd      0 X66_ARET
PL6.E3A0      #001=ASA$PROJECT File=ASA$PROJ.:E05TSI                             TUE 07/29/97 08:41 Page:24

  ****  Data refs  ****

  Flags:  r = read only, s = secondary
Flgs Name                             Flgs Name                             Flgs Name
     CR_MOD_PROJ_OPTS                 r    AS_BLANK                         r    AS_TRUE
r    AS_NONE                          r    AS_MODE                          r    AS_FE_MODE
     M$LO                                  USERS_KEY                             PROJ_KEY
     IN_BUF                                NODE$                                 CODE
     SUPERAUTH                             ERR_CODE                              AS_FIELD1
     AS_FIELD2                             REMEM_VAR                             REM_FCMD
     ASA_BRKS_LOC                          AS_PROJECT_ADMIN                      AS_CR_MOD_PROJ
     CR_MOD_FLG                            P_PCB                                 AS_USERS
     AS_DFLT                               AS_DEFAULT                            AS_PROJ_ADMIN
     AS_PROJECT                            AS_PROJECT_DFLT                       KL_DREC
     KL_DFLT                               AS_DEFAULT_DREC                       AS_PROJ_ADMIN_DREC
     AS_PROJECT_DREC                       AS_PROJECT_DFLT_DREC                  M$UC
     B_VECTNIL

  ****  Segment refs  ****

  Flags:  r = read only, s = secondary
Flgs Name                             Flgs Name                             Flgs Name
     ISSID
PL6.E3A0      #001=ASA$PROJECT File=ASA$PROJ.:E05TSI                             TUE 07/29/97 08:41 Page:25


        1        1        /*M* ASA$PROJ - ROUTINE TO HANDLE PROJECT COMMAND. */
        2        2        /*T***********************************************************/
        3        3        /*T*                                                         */
        4        4        /*T* Copyright (c) Bull HN Information Systems Inc., 1997    */
        5        5        /*T*                                                         */
        6        6        /*T***********************************************************/
        7        7        /*X*  DMC,DMR,CCC,PLM=0,IND=3,CTI=5,DCI=6,IAD=0,DTI=0,IDT=0,ENI=3,
        8        8              ECU=3,CSU=3,SDI=3                                           */
        9        9
       10       10        /*   ASA$PROJ : This module consists of procedures:
       11       11                             ASA$PROJECT
       12       12                             ASA$PACKSET_OPTS                      */
       13       13        /*M* ASA$PROJECT - external procedure for CREATE/MODIFY PROJECT options */
       14       14                                                              /**/
       15       15        /********************************************************************/
       16       16        /*                                                                   */
       17       17        /*                   ASA$PROJECT         proc                        */
       18       18        /*                                                                   */
       19       19        /*********************************************************************/
       20       20                                                              /**/
       21       21        ASA$PROJECT: PROC( CR_MOD_KEY );

     21  4 000000   000000 700200 xent  ASA$PROJECT  TSX0  ! X66_AUTO_1
         4 000001   000044 000001                    ZERO    36,1

       22       22                                                              /**/
       23       23        %SET LISTSUB = '1'B ;
       24       24        %EJECT ;
PL6.E3A0      #001=ASA$PROJECT File=ASA$PROJ.:E05TSI                             TUE 07/29/97 08:41 Page:26
       25       25        /********************************************************************/
       26       26        /*   Parameters      parameters      parameters      parameters      */
       27       27        /*********************************************************************/
       28       28                                                              /**/
       29       29    1   DCL 1 CR_MOD_KEY ALIGNED ,
       30       30    1          2 CNT UBIN(9) UNAL ,
       31       31    1          2 TEXT CHAR(20) UNAL ;
       32       32                                                              /**/
       33       33        %EJECT ;
PL6.E3A0      #001=ASA$PROJECT File=ASA$PROJ.:E05TSI                             TUE 07/29/97 08:41 Page:27
       34       34        /********************************************************************/
       35       35        /*   Include files   include files   include files   include files   */
       36       36        /*********************************************************************/
       37       37                                                              /**/
       38       38        %INCLUDE AS_ENTRIES_M ;
       39     1088        %INCLUDE AS_SUBS_C    ;
       40     2502        %INCLUDE AS_PERR_C    ;
       41     3104        %INCLUDE AS_MAC_C     ;
       42     3184        %INCLUDE AS_SUPER_C   ;
       43     3619        %INCLUDE XU_MACRO_C   ;
       44     6725        %INCLUDE XU_FORMAT_C  ;
       45     6887        %INCLUDE KL_SUPER_C   ;
       46     9789        %INCLUDE AS_SUPER_R   ;
       47    12805        %INCLUDE CP_6         ;
       48    12886        %INCLUDE B_ERRORS_C   ;
       49    14013                                                              /**/
       50    14014        %EJECT ;
PL6.E3A0      #001=ASA$PROJECT File=ASA$PROJ.:E05TSI                             TUE 07/29/97 08:41 Page:28
       51    14015        /********************************************************************/
       52    14016        /*   Constant & static data          constant & statc data           */
       53    14017        /*********************************************************************/
       54    14018                                                              /**/
       55    14019    1   DCL MORE BIT(1) STATIC ;
       56    14020                                                              /**/
       57    14021        %EJECT ;
PL6.E3A0      #001=ASA$PROJECT File=ASA$PROJ.:E05TSI                             TUE 07/29/97 08:41 Page:29
       58    14022        /********************************************************************/
       59    14023        /*   Local based     local based     local based     local based     */
       60    14024        /*********************************************************************/
       61    14025                                                              /**/
       62    14026        %PARSE$OUT( NAME=P$NODE, STCLASS="BASED(NODE$)",
       63    14027                    NDTYPE=TYPE, NSUBLKS=SUBNODES) ;
       64    14072        %PARSE$SYM( NAME = OUT$SYM ,
       65    14073                    STCLASS="BASED(BLK$)") ;
       66    14111    1   DCL 1 VARY$STR BASED(STR$) ALIGNED ,
       67    14112    1          2 CNT UBIN(9) UNAL ,
       68    14113    1          2 TEXT CHAR(VARY$STR.CNT) ;
       69    14114                                                              /**/
       70    14115        %EJECT ;
PL6.E3A0      #001=ASA$PROJECT File=ASA$PROJ.:E05TSI                             TUE 07/29/97 08:41 Page:30
       71    14116        /********************************************************************/
       72    14117        /*   Entry dcls      entry dcls      entry dcls      entry dcls      */
       73    14118        /*********************************************************************/
       74    14119                                                              /**/
       75    14120    1   DCL X$PARSE ENTRY(1) ALTRET ;
       76    14121        %ASB$READ_SI ;
       77    14124        %ASB$SET_PROMPT ;
       78    14127        %ASB$WRITE_LO ;
       79    14130        %ASC$CM_OPTS ;
       80    14133        %ASH$HELP ;
       81    14136        %ASH$DQUEST ;
       82    14139        %ASH$QUEST ;
       83    14142        %ASH$ERROR ;
       84    14145        %ASH$WARN ;
       85    14148        %ASB$READ_PROJ ;
       86    14151        %ASB$PREC_PROJ ;
       87    14154        %ASB$DELREC_PROJ ;
       88    14157        %ASA$KEYCONV ;
       89    14160        %ASB$GETSEG ;
       90    14163        %ASA$PACKSET_OPTS ;
       91    14166        %ASB$ENQ_USERS ;
       92    14169        %ASB$READ_USERS ;
       93    14172        %ASB$WRITE_USERS ;
       94    14175        %ASA$ERROR ;
       95    14178                                                              /**/
       96    14179                                                              /**/
       97    14180        %EJECT ;
PL6.E3A0      #001=ASA$PROJECT File=ASA$PROJ.:E05TSI                             TUE 07/29/97 08:41 Page:31
       98    14181        /********************************************************************/
       99    14182        /*   Auto data       auto data       auto data       auto data       */
      100    14183        /*********************************************************************/
      101    14184                                                              /**/
      102    14185    1   DCL ARS SBIN ;
      103    14186    1   DCL DELTA SBIN;
      104    14187    1   DCL VAL SBIN ;
      105    14188    1   DCL UBIN_VAL UBIN;
      106    14189    1   DCL DOLLAR SBIN;
      107    14190    1   DCL CENTS  SBIN;
      108    14191    1   DCL SIGN SBIN;
      109    14192    1   DCL PRIO UBIN WORD ;
      110    14193    1   DCL SUBNODES SBIN ;
      111    14194    1   DCL SUBND$ PTR ;
      112    14195    1   DCL BLK$ PTR ;
      113    14196    1   DCL STR$ PTR ;
      114    14197    1   DCL I SBIN ;
      115    14198    1   DCL J SBIN ;
      116    14199    1   DCL 1 PACKSET,
      117    14200    1          2 CNT UBIN BYTE UNAL,
      118    14201    1          2 TXT CHAR(6) UNAL;
      119    14202        %AS$PROJ_HEADER( NAME=PROJ_HEADER, STCLASS=AUTO );
      120    14231                                                              /**/
      121    14232        %EJECT ;
PL6.E3A0      #001=ASA$PROJECT File=ASA$PROJ.:E05TSI                             TUE 07/29/97 08:41 Page:32
      122    14233        /********************************************************************/
      123    14234        /*   Procedure       procedure       procedure       procedure       */
      124    14235        /*********************************************************************/
      125    14236                                                              /**/
      126    14237        /*
      127    14238            ***            Begin procedure                    ***
      128    14239        */
      129    14240    1   MORE = AS_TRUE ;

  14240  4 000002   000000 236000 xsym               LDQ     AS_TRUE
         4 000003   400000 376003                    ANQ     -131072,DU
         4 000004   000000 756000 2                  STQ     MORE

  14240  4 000005                       CM_LOOP      null
      130    14241                                                              /**/
      131    14242    1   CM_LOOP: ;
      132    14243    2   DO WHILE (MORE) ;

  14243  4 000005   000000 234000 2                  SZN     MORE
         4 000006   001475 605000 4                  TPL     OPTION_ERR

      133    14244    2      REMEMBER CM_LOOP IN REMEM_VAR ;

  14244  4 000007   000005 635000 4                  EAA     CM_LOOP
         4 000010   000000 452400 xsym               STP2    REMEM_VAR
         4 000011   000001 755000 xsym               STA     REMEM_VAR+1

      134    14245    2      P_PCB.ROOT$ = ADDR(CR_MOD_PROJ_OPTS);

  14245  4 000012   000000 236000 5                  LDQ     0
         4 000013   000001 756000 xsym               STQ     P_PCB+1

      135    14246                                                                  /*  Set prompt  */
      136    14247    2      CALL ASB$SET_PROMPT ( %PROMPT_PROJ ) ;

  14247  4 000014   000001 630400 5                  EPPR0   1
         4 000015   000017 631400 xsym               EPPR1   B_VECTNIL+15
PL6.E3A0      #001=ASA$PROJECT File=ASA$PROJ.:E05TSI                             TUE 07/29/97 08:41 Page:33
         4 000016   000000 701000 xent               TSX1    ASB$SET_PROMPT
         4 000017   000000 011000                    NOP     0

      137    14248                                                                  /**/
      138    14249    2      CALL ASB$READ_SI(IN_BUF,ARS) ;             /* Read option line */

  14249  4 000020   200004 630500                    EPPR0   ARS,,AUTO
         4 000021   200041 450500                    STP0    PROJ_HEADER+13,,AUTO
         4 000022   000002 236000 5                  LDQ     2
         4 000023   200040 756100                    STQ     PROJ_HEADER+12,,AUTO
         4 000024   200040 630500                    EPPR0   PROJ_HEADER+12,,AUTO
         4 000025   000020 631400 xsym               EPPR1   B_VECTNIL+16
         4 000026   000000 701000 xent               TSX1    ASB$READ_SI
         4 000027   000000 011000                    NOP     0

      139    14250    2      P_PCB.NCHARS = ARS ;

  14250  4 000030   200004 235100                    LDA     ARS,,AUTO
         4 000031   000011 755000 xsym               STA     P_PCB+9

      140    14251    2      CALL X$PARSE(P_PCB) ALTRET (OPTION_ERR) ;

  14251  4 000032   000003 630400 5                  EPPR0   3
         4 000033   000017 631400 xsym               EPPR1   B_VECTNIL+15
         4 000034   000000 701000 xent               TSX1    X$PARSE
         4 000035   001475 702000 4                  TSX2    OPTION_ERR

      141    14252                                                              /**/
      142    14253    2      NODE$ = P_PCB.OUT$ ;

  14253  4 000036   000003 236000 xsym               LDQ     P_PCB+3
         4 000037   000000 756000 xsym               STQ     NODE$

      143    14254                                                              /**/
      144    14255                                                              /**/
      145    14256    2      CODE = P$NODE.CODE ;

PL6.E3A0      #001=ASA$PROJECT File=ASA$PROJ.:E05TSI                             TUE 07/29/97 08:41 Page:34
  14256  4 000040   000000 470400 xsym               LDP0    NODE$
         4 000041   000000 236100                    LDQ     0,,PR0
         4 000042   777777 376007                    ANQ     -1,DL
         4 000043   000000 756000 xsym               STQ     CODE

      146    14257    2      SUBNODES = P$NODE.SUBNODES ;

  14257  4 000044   000001 236100                    LDQ     1,,PR0
         4 000045   000022 772000                    QRL     18
         4 000046   200014 756100                    STQ     SUBNODES,,AUTO

      147    14258                                                              /**/
      148    14259    3      DO I = 0 TO SUBNODES-1 ;

  14259  4 000047   200020 450100                    STZ     I,,AUTO
         4 000050   001470 710000 4                  TRA     s:14983+1

      149    14260    3         SUBND$ = P$NODE.SUBLK$(I) ;

  14260  4 000051   000000 470400 xsym               LDP0    NODE$
         4 000052   200020 720100                    LXL0    I,,AUTO
         4 000053   000003 236110                    LDQ     3,X0,PR0
         4 000054   200015 756100                    STQ     SUBND$,,AUTO

      150    14261    3         CODE = SUBND$ -> P$NODE.CODE ;

  14261  4 000055   200015 471500                    LDP1    SUBND$,,AUTO
         4 000056   100000 236100                    LDQ     0,,PR1
         4 000057   777777 376007                    ANQ     -1,DL
         4 000060   000000 756000 xsym               STQ     CODE

      151    14262                                                              /**/
      152    14263    4         DO SELECT (CODE) ;

  14263  4 000061   000005 116007                    CMPQ    5,DL
         4 000062   000115 602000 4                  TNC     s:14263+28
         4 000063   000367 600000 4                  TZE     s:14379
PL6.E3A0      #001=ASA$PROJECT File=ASA$PROJ.:E05TSI                             TUE 07/29/97 08:41 Page:35
         4 000064   000032 116007                    CMPQ    26,DL
         4 000065   000100 602000 4                  TNC     s:14263+15
         4 000066   000131 600000 4                  TZE     s:14266
         4 000067   000455 116007                    CMPQ    301,DL
         4 000070   000075 602000 4                  TNC     s:14263+12
         4 000071   000267 600000 4                  TZE     s:14339
         4 000072   000456 116007                    CMPQ    302,DL
         4 000073   001467 601000 4                  TNZ     s:14983
         4 000074   000257 710000 4                  TRA     s:14333
         4 000075   000454 116007                    CMPQ    300,DL
         4 000076   001467 601000 4                  TNZ     s:14983
         4 000077   000263 710000 4                  TRA     s:14336
         4 000100   000010 116007                    CMPQ    8,DL
         4 000101   000106 602000 4                  TNC     s:14263+21
         4 000102   001133 600000 4                  TZE     s:14781
         4 000103   000014 116007                    CMPQ    12,DL
         4 000104   001467 601000 4                  TNZ     s:14983
         4 000105   000131 710000 4                  TRA     s:14266
         4 000106   000007 116007                    CMPQ    7,DL
         4 000107   000112 602000 4                  TNC     s:14263+25
         4 000110   000547 600000 4                  TZE     s:14535
         4 000111   001467 710000 4                  TRA     s:14983
         4 000112   000006 116007                    CMPQ    6,DL
         4 000113   001467 601000 4                  TNZ     s:14983
         4 000114   001271 710000 4                  TRA     s:14857
         4 000115   000002 116007                    CMPQ    2,DL
         4 000116   000126 602000 4                  TNC     s:14263+37
         4 000117   000331 600000 4                  TZE     s:14356
         4 000120   000003 116007                    CMPQ    3,DL
         4 000121   001467 602000 4                  TNC     s:14983
         4 000122   000744 600000 4                  TZE     s:14645
         4 000123   000004 116007                    CMPQ    4,DL
         4 000124   001467 601000 4                  TNZ     s:14983
         4 000125   001107 710000 4                  TRA     s:14772
         4 000126   000001 116007                    CMPQ    1,DL
         4 000127   001467 601000 4                  TNZ     s:14983
         4 000130   000273 710000 4                  TRA     s:14342
PL6.E3A0      #001=ASA$PROJECT File=ASA$PROJ.:E05TSI                             TUE 07/29/97 08:41 Page:36

      153    14264                                                              /**/
      154    14265    4            SELECT(12   /*  END_VAL  */, 26   /*  BLANK_LINE_VAL */) ;

      155    14266    4            USERS_KEY = CR_MOD_KEY;         /* End or blank input */

  14266  4 000131   200003 473500                    LDP3    @CR_MOD_KEY,,AUTO
         4 000132   000000 100500                    MLR     fill='000'O
         4 000133   300000 000025                    ADSC9   0,,PR3                   cn=0,n=21
         4 000134   000000 000052 xsym               ADSC9   USERS_KEY                cn=0,n=42

      156    14267    4            IF CR_MOD_KEY.TEXT = 'DEFAULTP' THEN RETURN;

  14267  4 000135   040000 106500                    CMPC    fill='040'O
         4 000136   300000 200024                    ADSC9   0,,PR3                   cn=1,n=20
         4 000137   000000 000010 3                  ADSC9   0                        cn=0,n=8
         4 000140   000142 601000 4                  TNZ     s:14268

  14267  4 000141   000000 702200 xent               TSX2  ! X66_ARET

      157    14268    4            PROJ_KEY.TXT.PROJECT = CR_MOD_KEY.TEXT;

  14268  4 000142   040000 100500                    MLR     fill='040'O
         4 000143   300000 200024                    ADSC9   0,,PR3                   cn=1,n=20
         4 000144   000000 200024 xsym               ADSC9   PROJ_KEY                 cn=1,n=20

      158    14269    4            PROJ_KEY.TXT.PACKSET = AS_PROJECT.HPSN;

  14269  4 000145   040000 100400                    MLR     fill='040'O
         4 000146   000123 000006 xsym               ADSC9   AS_PROJECT+83            cn=0,n=6
         4 000147   000005 200006 xsym               ADSC9   PROJ_KEY+5               cn=1,n=6

      159    14270    4            CALL INDEX( J, AS_BLANK, AS_PROJECT.HPSN );

  14270  4 000150   000000 124400                    SCM     mask='000'O
         4 000151   000123 000006 xsym               ADSC9   AS_PROJECT+83            cn=0,n=6
         4 000152   000000 000001 xsym               ADSC9   AS_BLANK                 cn=0,n=1
PL6.E3A0      #001=ASA$PROJECT File=ASA$PROJ.:E05TSI                             TUE 07/29/97 08:41 Page:37
         4 000153   200021 000100                    ARG     J,,AUTO

      160    14271    4            PROJ_KEY.COUNT = 20 + J;

  14271  4 000154   200021 236100                    LDQ     J,,AUTO
         4 000155   000024 036007                    ADLQ    20,DL
         4 000156   000033 736000                    QLS     27
         4 000157   000000 552040 xsym               STBQ    PROJ_KEY,'40'O

      161    14272    4            J = SIZEC(PROJ_HEADER);

  14272  4 000160   000060 235007                    LDA     48,DL
         4 000161   200021 755100                    STA     J,,AUTO

      162    14273    4            CALL ASB$READ_PROJ(ADDR(PROJ_HEADER),J) ALTRET(READ_PROJ_ERR);

  14273  4 000162   200024 634500                    EPPR4   PROJ_HEADER,,AUTO
         4 000163   200040 454500                    STP4    PROJ_HEADER+12,,AUTO
         4 000164   200021 635500                    EPPR5   J,,AUTO
         4 000165   200043 455500                    STP5    PROJ_HEADER+15,,AUTO
         4 000166   200040 636500                    EPPR6   PROJ_HEADER+12,,AUTO
         4 000167   200042 456500                    STP6    PROJ_HEADER+14,,AUTO
         4 000170   200042 630500                    EPPR0   PROJ_HEADER+14,,AUTO
         4 000171   000020 631400 xsym               EPPR1   B_VECTNIL+16
         4 000172   000000 701000 xent               TSX1    ASB$READ_PROJ
         4 000173   000231 702000 4                  TSX2    READ_PROJ_ERR

      163    14274    4            IF AS_PROJECT.HPSN = AS_PROJECT_DFLT.HPSN THEN RETURN;

  14274  4 000174   040000 106400                    CMPC    fill='040'O
         4 000175   000123 000006 xsym               ADSC9   AS_PROJECT+83            cn=0,n=6
         4 000176   000123 000006 xsym               ADSC9   AS_PROJECT_DFLT+83       cn=0,n=6
         4 000177   000201 601000 4                  TNZ     s:14275

  14274  4 000200   000000 702200 xent               TSX2  ! X66_ARET

      164    14275    4            PROJ_KEY.TXT.PACKSET = AS_PROJECT_DFLT.HPSN;
PL6.E3A0      #001=ASA$PROJECT File=ASA$PROJ.:E05TSI                             TUE 07/29/97 08:41 Page:38

  14275  4 000201   040000 100400                    MLR     fill='040'O
         4 000202   000123 000006 xsym               ADSC9   AS_PROJECT_DFLT+83       cn=0,n=6
         4 000203   000005 200006 xsym               ADSC9   PROJ_KEY+5               cn=1,n=6

      165    14276    4            CALL INDEX( J, AS_BLANK, AS_PROJECT_DFLT.HPSN );

  14276  4 000204   000000 124400                    SCM     mask='000'O
         4 000205   000123 000006 xsym               ADSC9   AS_PROJECT_DFLT+83       cn=0,n=6
         4 000206   000000 000001 xsym               ADSC9   AS_BLANK                 cn=0,n=1
         4 000207   200021 000100                    ARG     J,,AUTO

      166    14277    4            PROJ_KEY.COUNT = 20 + J;

  14277  4 000210   200021 236100                    LDQ     J,,AUTO
         4 000211   000024 036007                    ADLQ    20,DL
         4 000212   000033 736000                    QLS     27
         4 000213   000000 552040 xsym               STBQ    PROJ_KEY,'40'O

      167    14278    4            J = SIZEC(PROJ_HEADER);

  14278  4 000214   000060 235007                    LDA     48,DL
         4 000215   200021 755100                    STA     J,,AUTO

      168    14279    4            CALL ASB$READ_PROJ(ADDR(PROJ_HEADER),J) ALTRET(READ_PROJ_ERR);

  14279  4 000216   200024 630500                    EPPR0   PROJ_HEADER,,AUTO
         4 000217   200040 450500                    STP0    PROJ_HEADER+12,,AUTO
         4 000220   200021 631500                    EPPR1   J,,AUTO
         4 000221   200043 451500                    STP1    PROJ_HEADER+15,,AUTO
         4 000222   200040 633500                    EPPR3   PROJ_HEADER+12,,AUTO
         4 000223   200042 453500                    STP3    PROJ_HEADER+14,,AUTO
         4 000224   200042 630500                    EPPR0   PROJ_HEADER+14,,AUTO
         4 000225   000020 631400 xsym               EPPR1   B_VECTNIL+16
         4 000226   000000 701000 xent               TSX1    ASB$READ_PROJ
         4 000227   000231 702000 4                  TSX2    READ_PROJ_ERR

PL6.E3A0      #001=ASA$PROJECT File=ASA$PROJ.:E05TSI                             TUE 07/29/97 08:41 Page:39
      169    14280    4            RETURN;

  14280  4 000230   000000 702200 xent               TSX2  ! X66_ARET

      170    14281    4   READ_PROJ_ERR:
      171    14282    4            AS_FIELD1.COUNT = PROJ_KEY.COUNT - 20;

  14282  4 000231   000000 236000 xsym  READ_PROJ_E* LDQ     PROJ_KEY
         4 000232   000033 772000                    QRL     27
         4 000233   000024 136007                    SBLQ    20,DL
         4 000234   000033 736000                    QLS     27
         4 000235   000000 552040 xsym               STBQ    AS_FIELD1,'40'O

      172    14283    4            AS_FIELD1.TEXT = PROJ_KEY.TXT.PACKSET;

  14283  4 000236   040000 100400                    MLR     fill='040'O
         4 000237   000005 200006 xsym               ADSC9   PROJ_KEY+5               cn=1,n=6
         4 000240   000000 200050 xsym               ADSC9   AS_FIELD1                cn=1,n=40

      173    14284    5            IF PROJ_KEY.TXT.PACKSET = AS_PROJECT.HPSN THEN DO;

  14284  4 000241   040000 106400                    CMPC    fill='040'O
         4 000242   000005 200006 xsym               ADSC9   PROJ_KEY+5               cn=1,n=6
         4 000243   000123 000006 xsym               ADSC9   AS_PROJECT+83            cn=0,n=6
         4 000244   000252 601000 4                  TNZ     s:14327

      174    14285        /*E*  ERROR:  ASA-E$MISSING_PACKSET1-C
      175    14286        MESSAGE: The home packset for the project administrator of this project is DP#%U1.
      176    14287                 PACKSET = DP#%U1 must be specified for this project.
      177    14288        MESSAGE1: You must specify a PACKSET option for the packset that was
      178    14289                  specified as the home packset for the project administrator
      179    14290                  of this project.
      180    14291        */
      181    14292                    %SCREAM( ERR#=E$MISSING_PACKSET1, LEVEL=ERROR,MID='A' );

  14304  4 000245   000004 630400 5                  EPPR0   4
         4 000246   000017 631400 xsym               EPPR1   B_VECTNIL+15
PL6.E3A0      #001=ASA$PROJECT File=ASA$PROJ.:E05TSI                             TUE 07/29/97 08:41 Page:40
         4 000247   000000 701000 xent               TSX1    ASH$ERROR
         4 000250   000000 011000                    NOP     0

      182    14307    5               END;

  14307  4 000251   001467 710000 4                  TRA     s:14983

      183    14308    5            ELSE DO;

      184    14309        /*E*  ERROR:  ASA-E$MISSING_PACKSET2-C
      185    14310        MESSAGE: The default home packset for users in this project is DP#%U1.
      186    14311                 PACKSET = DP#%U1 must be specified for this project.
      187    14312        MESSAGE1: You must specify a PACKSET option for the packset that was
      188    14313                  specified as the default home packset for users in the project.
      189    14314        */
      190    14315                    %SCREAM( ERR#=E$MISSING_PACKSET2, LEVEL=ERROR, MID='A' );

  14327  4 000252   000005 630400 5                  EPPR0   5
         4 000253   000017 631400 xsym               EPPR1   B_VECTNIL+15
         4 000254   000000 701000 xent               TSX1    ASH$ERROR
         4 000255   000000 011000                    NOP     0

      191    14330    5               END;

  14330  4 000256   001467 710000 4                  TRA     s:14983

      192    14331                                                              /**/
      193    14332    4            SELECT(302 /* HELP_VAL */) ;

      194    14333    4            CALL ASH$HELP ;

  14333  4 000257   000002 631400 xsym               EPPR1   B_VECTNIL+2
         4 000260   000000 701000 xent               TSX1    ASH$HELP
         4 000261   000000 011000                    NOP     0
         4 000262   001467 710000 4                  TRA     s:14983

      195    14334                                                              /**/
PL6.E3A0      #001=ASA$PROJECT File=ASA$PROJ.:E05TSI                             TUE 07/29/97 08:41 Page:41
      196    14335    4            SELECT(300 /* DQUESTION_VAL */) ;

      197    14336    4            CALL ASH$DQUEST ;

  14336  4 000263   000002 631400 xsym               EPPR1   B_VECTNIL+2
         4 000264   000000 701000 xent               TSX1    ASH$DQUEST
         4 000265   000000 011000                    NOP     0
         4 000266   001467 710000 4                  TRA     s:14983

      198    14337                                                              /**/
      199    14338    4            SELECT(301 /* QUESTION_VAL */) ;

      200    14339    4            CALL ASH$QUEST ;

  14339  4 000267   000002 631400 xsym               EPPR1   B_VECTNIL+2
         4 000270   000000 701000 xent               TSX1    ASH$QUEST
         4 000271   000000 011000                    NOP     0
         4 000272   001467 710000 4                  TRA     s:14983

      201    14340                                                              /**/
      202    14341    4            SELECT( 1 /* PROJ_ADMIN_VAL */ );

      203    14342    4            AS_USERS = AS_PROJECT;

  14342  4 000273   000000 100400                    MLR     fill='000'O
         4 000274   000000 004020 xsym               ADSC9   AS_PROJECT               cn=0,n=2064
         4 000275   000000 004020 xsym               ADSC9   AS_USERS                 cn=0,n=2064

      204    14343    4            KL_DREC  = AS_PROJECT_DREC;

  14343  4 000276   000000 100400                    MLR     fill='000'O
         4 000277   000000 001244 xsym               ADSC9   AS_PROJECT_DREC          cn=0,n=676
         4 000300   000000 001244 xsym               ADSC9   KL_DREC                  cn=0,n=676

      205    14344    4            IF AS_CR_MOD_PROJ > 0

  14344  4 000301   000000 235000 xsym               LDA     AS_CR_MOD_PROJ
PL6.E3A0      #001=ASA$PROJECT File=ASA$PROJ.:E05TSI                             TUE 07/29/97 08:41 Page:42
         4 000302   000314 604400 4                  TMOZ    s:14350

      206    14345    5            THEN DO;

      207    14346    5               AS_CR_MOD_PROJ = %CR_PROJECT;

  14346  4 000303   000002 235007                    LDA     2,DL
         4 000304   000000 755000 xsym               STA     AS_CR_MOD_PROJ

      208    14347    5               AS_DFLT = AS_PROJ_ADMIN;

  14347  4 000305   000000 100400                    MLR     fill='000'O
         4 000306   000000 004020 xsym               ADSC9   AS_PROJ_ADMIN            cn=0,n=2064
         4 000307   000000 004020 xsym               ADSC9   AS_DFLT                  cn=0,n=2064

      209    14348    5               KL_DFLT = AS_PROJ_ADMIN_DREC;

  14348  4 000310   000000 100400                    MLR     fill='000'O
         4 000311   000000 001244 xsym               ADSC9   AS_PROJ_ADMIN_DREC       cn=0,n=676
         4 000312   000000 001244 xsym               ADSC9   KL_DFLT                  cn=0,n=676

      210    14349    5               END;

  14349  4 000313   000316 710000 4                  TRA     s:14351

      211    14350    4            ELSE AS_CR_MOD_PROJ = - %CR_PROJECT;

  14350  4 000314   000002 335007                    LCA     2,DL
         4 000315   000000 755000 xsym               STA     AS_CR_MOD_PROJ

      212    14351    4            CALL ASC$CM_OPTS( CR_MOD_KEY );

  14351  4 000316   200003 630500                    EPPR0   @CR_MOD_KEY,,AUTO
         4 000317   000017 631400 xsym               EPPR1   B_VECTNIL+15
         4 000320   000000 701000 xent               TSX1    ASC$CM_OPTS
         4 000321   000000 011000                    NOP     0

PL6.E3A0      #001=ASA$PROJECT File=ASA$PROJ.:E05TSI                             TUE 07/29/97 08:41 Page:43
      213    14352    4            AS_PROJECT = AS_USERS;

  14352  4 000322   000000 100400                    MLR     fill='000'O
         4 000323   000000 004020 xsym               ADSC9   AS_USERS                 cn=0,n=2064
         4 000324   000000 004020 xsym               ADSC9   AS_PROJECT               cn=0,n=2064

      214    14353    4            AS_PROJECT_DREC = KL_DREC;

  14353  4 000325   000000 100400                    MLR     fill='000'O
         4 000326   000000 001244 xsym               ADSC9   KL_DREC                  cn=0,n=676
         4 000327   000000 001244 xsym               ADSC9   AS_PROJECT_DREC          cn=0,n=676
         4 000330   001467 710000 4                  TRA     s:14983

      215    14354                                                              /**/
      216    14355    4            SELECT( 2 /* PROJ_DFLT_VAL */ );

      217    14356    4            AS_USERS = AS_PROJECT_DFLT;

  14356  4 000331   000000 100400                    MLR     fill='000'O
         4 000332   000000 004020 xsym               ADSC9   AS_PROJECT_DFLT          cn=0,n=2064
         4 000333   000000 004020 xsym               ADSC9   AS_USERS                 cn=0,n=2064

      218    14357    4            KL_DREC  = AS_PROJECT_DFLT_DREC;

  14357  4 000334   000000 100400                    MLR     fill='000'O
         4 000335   000000 001244 xsym               ADSC9   AS_PROJECT_DFLT_DREC     cn=0,n=676
         4 000336   000000 001244 xsym               ADSC9   KL_DREC                  cn=0,n=676

      219    14358    4            IF AS_CR_MOD_PROJ > 0

  14358  4 000337   000000 235000 xsym               LDA     AS_CR_MOD_PROJ
         4 000340   000352 604400 4                  TMOZ    s:14364

      220    14359    5            THEN DO;

      221    14360    5               AS_CR_MOD_PROJ = %CR_PROJ_DEFAULT;

PL6.E3A0      #001=ASA$PROJECT File=ASA$PROJ.:E05TSI                             TUE 07/29/97 08:41 Page:44
  14360  4 000341   000003 235007                    LDA     3,DL
         4 000342   000000 755000 xsym               STA     AS_CR_MOD_PROJ

      222    14361    5               AS_DFLT = AS_DEFAULT;

  14361  4 000343   000000 100400                    MLR     fill='000'O
         4 000344   000000 004020 xsym               ADSC9   AS_DEFAULT               cn=0,n=2064
         4 000345   000000 004020 xsym               ADSC9   AS_DFLT                  cn=0,n=2064

      223    14362    5               KL_DFLT = AS_DEFAULT_DREC;

  14362  4 000346   000000 100400                    MLR     fill='000'O
         4 000347   000000 001244 xsym               ADSC9   AS_DEFAULT_DREC          cn=0,n=676
         4 000350   000000 001244 xsym               ADSC9   KL_DFLT                  cn=0,n=676

      224    14363    5               END;

  14363  4 000351   000354 710000 4                  TRA     s:14365

      225    14364    4            ELSE AS_CR_MOD_PROJ = - %CR_PROJ_DEFAULT;

  14364  4 000352   000003 335007                    LCA     3,DL
         4 000353   000000 755000 xsym               STA     AS_CR_MOD_PROJ

      226    14365    4            CALL ASC$CM_OPTS( CR_MOD_KEY );

  14365  4 000354   200003 630500                    EPPR0   @CR_MOD_KEY,,AUTO
         4 000355   000017 631400 xsym               EPPR1   B_VECTNIL+15
         4 000356   000000 701000 xent               TSX1    ASC$CM_OPTS
         4 000357   000000 011000                    NOP     0

      227    14366    4            AS_PROJECT_DFLT = AS_USERS;

  14366  4 000360   000000 100400                    MLR     fill='000'O
         4 000361   000000 004020 xsym               ADSC9   AS_USERS                 cn=0,n=2064
         4 000362   000000 004020 xsym               ADSC9   AS_PROJECT_DFLT          cn=0,n=2064

PL6.E3A0      #001=ASA$PROJECT File=ASA$PROJ.:E05TSI                             TUE 07/29/97 08:41 Page:45
      228    14367    4            AS_PROJECT_DFLT_DREC = KL_DREC;

  14367  4 000363   000000 100400                    MLR     fill='000'O
         4 000364   000000 001244 xsym               ADSC9   KL_DREC                  cn=0,n=676
         4 000365   000000 001244 xsym               ADSC9   AS_PROJECT_DFLT_DREC     cn=0,n=676
         4 000366   001467 710000 4                  TRA     s:14983

      229    14368                                                              /**/
      230    14369    4            SELECT( 5 /* PROJ_CHARGES_VAL */ );

      231    14370                                                              /**/
      232    14371        /*
      233    14372            If the value input on the mcharges option line has a sign
      234    14373            associated with it,  the value is treated relative to the
      235    14374            current maxc value, or the default maxc value.  If the input
      236    14375            value does not have a sign it is treated as an absolute
      237    14376            replacement value for either the current maxc, if there is
      238    14377            one, or it replaces the default maxc.
      239    14378        */
      240    14379    4            IF SUBND$ -> P$NODE.SUBLK$(0) -> P$NODE.CODE = 7   /*  NONE_VAL  */

  14379  4 000367   100003 473500                    LDP3    3,,PR1
         4 000370   300000 721100                    LXL1    0,,PR3
         4 000371   000007 101003                    CMPX1   7,DU
         4 000372   000376 601000 4                  TNZ     s:14384

      241    14380    5            THEN DO;

      242    14381    5               AS_PROJECT.BUDGET.PMAXC = -1;

  14381  4 000373   000001 335007                    LCA     1,DL
         4 000374   000010 755000 xsym               STA     AS_PROJECT+8

      243    14382    5               END;

  14382  4 000375   001467 710000 4                  TRA     s:14983

PL6.E3A0      #001=ASA$PROJECT File=ASA$PROJ.:E05TSI                             TUE 07/29/97 08:41 Page:46
      244    14383    5            ELSE DO;

      245    14384    6               IF SUBND$ -> P$NODE.SUBNODES = 1 THEN DO;

  14384  4 000376   100001 222100                    LDX2    1,,PR1
         4 000377   000001 102003                    CMPX2   1,DU
         4 000400   000405 601000 4                  TNZ     s:14389

      246    14385    6                  SIGN = 0; /*  no sign on the input  */

  14385  4 000401   200012 450100                    STZ     SIGN,,AUTO

      247    14386    6                  BLK$ = SUBND$ -> P$NODE.SUBLK$(0);

  14386  4 000402   100003 236100                    LDQ     3,,PR1
         4 000403   200016 756100                    STQ     BLK$,,AUTO

      248    14387    6                  END;

  14387  4 000404   000420 710000 4                  TRA     s:14394

      249    14388    6               ELSE DO; /*  we have a sign  */

      250    14389    6                  BLK$ = SUBND$ -> P$NODE.SUBLK$(1); /* pts to mcharges value node */

  14389  4 000405   100004 236100                    LDQ     4,,PR1
         4 000406   200016 756100                    STQ     BLK$,,AUTO

      251    14390    6                  IF SUBND$-> P$NODE.SUBLK$(0) -> P$NODE.SUBLK$(0) -> P$NODE.CODE = 1
             14390                           /* MINUS_VAL */

  14390  4 000407   300003 474500                    LDP4    3,,PR3
         4 000410   400000 723100                    LXL3    0,,PR4
         4 000411   000001 103003                    CMPX3   1,DU
         4 000412   000416 601000 4                  TNZ     s:14392

      252    14391    6                  THEN SIGN = -1;
PL6.E3A0      #001=ASA$PROJECT File=ASA$PROJ.:E05TSI                             TUE 07/29/97 08:41 Page:47

  14391  4 000413   000001 335007                    LCA     1,DL
         4 000414   200012 755100                    STA     SIGN,,AUTO
         4 000415   000420 710000 4                  TRA     s:14394

      253    14392    6                  ELSE SIGN = 1;

  14392  4 000416   000001 235007                    LDA     1,DL
         4 000417   200012 755100                    STA     SIGN,,AUTO

      254    14393    6                  END;

      255    14394    5               CALL CHARBIN( DOLLAR, BLK$->P$NODE.SUBLK$(0)->OUT$SYM.TEXT );

  14394  4 000420   200016 474500                    LDP4    BLK$,,AUTO
         4 000421   400003 475500                    LDP5    3,,PR4
         4 000422   500004 236100                    LDQ     4,,PR5
         4 000423   000033 772000                    QRL     27
         4 000424   000000 623006                    EAX3    0,QL
         4 000425   000100 305540                    DTB
         4 000426   500004 230013                    NDSC9   4,,PR5                   cn=1,s=nosgn,sf=0,n=*X3
         4 000427   200010 000004                    NDSC9   DOLLAR,,AUTO             cn=0,s=lsgnf,sf=0,n=4

      256    14395    5               IF BLK$ -> P$NODE.SUBNODES = 1 THEN

  14395  4 000430   400001 224100                    LDX4    1,,PR4
         4 000431   000001 104003                    CMPX4   1,DU
         4 000432   000435 601000 4                  TNZ     s:14398

      257    14396    5                  CENTS = 0;

  14396  4 000433   200011 450100                    STZ     CENTS,,AUTO
         4 000434   000461 710000 4                  TRA     s:14406

      258    14397    6               ELSE DO;

      259    14398    6                  IF BLK$->P$NODE.SUBLK$(1)->OUT$SYM.COUNT = 1
PL6.E3A0      #001=ASA$PROJECT File=ASA$PROJ.:E05TSI                             TUE 07/29/97 08:41 Page:48

  14398  4 000435   400004 476500                    LDP6    4,,PR4
         4 000436   600004 236100                    LDQ     4,,PR6
         4 000437   777000 376003                    ANQ     -512,DU
         4 000440   001000 116003                    CMPQ    512,DU
         4 000441   000454 601000 4                  TNZ     s:14404

      260    14399    7                  THEN DO;

      261    14400    7                     CALL CHARBIN( CENTS, BLK$->P$NODE.SUBLK$(1)->OUT$SYM.TEXT);

  14400  4 000442   600004 236100                    LDQ     4,,PR6
         4 000443   000033 772000                    QRL     27
         4 000444   000000 625006                    EAX5    0,QL
         4 000445   000100 305540                    DTB
         4 000446   600004 230015                    NDSC9   4,,PR6                   cn=1,s=nosgn,sf=0,n=*X5
         4 000447   200011 000004                    NDSC9   CENTS,,AUTO              cn=0,s=lsgnf,sf=0,n=4

      262    14401    7                     CENTS = CENTS * 10;

  14401  4 000450   200011 236100                    LDQ     CENTS,,AUTO
         4 000451   000012 402007                    MPY     10,DL
         4 000452   200011 756100                    STQ     CENTS,,AUTO

      263    14402    7                     END;

  14402  4 000453   000461 710000 4                  TRA     s:14406

      264    14403    6                  ELSE
      265    14404    6                    CALL CHARBIN(CENTS,SUBSTR(BLK$->P$NODE.SUBLK$(1)->OUT$SYM.TEXT,0,2
             14404                              ));

  14404  4 000454   600004 236100                    LDQ     4,,PR6
         4 000455   000033 772000                    QRL     27
         4 000456   000100 305500                    DTB
         4 000457   600004 230002                    NDSC9   4,,PR6                   cn=1,s=nosgn,sf=0,n=2
         4 000460   200011 000004                    NDSC9   CENTS,,AUTO              cn=0,s=lsgnf,sf=0,n=4
PL6.E3A0      #001=ASA$PROJECT File=ASA$PROJ.:E05TSI                             TUE 07/29/97 08:41 Page:49

      266    14405    6                  END;

      267    14406    5               UBIN_VAL = DOLLAR * 10000 + CENTS * 100 ;

  14406  4 000461   200010 236100                    LDQ     DOLLAR,,AUTO
         4 000462   000144 402007                    MPY     100,DL
         4 000463   200011 036100                    ADLQ    CENTS,,AUTO
         4 000464   000144 402007                    MPY     100,DL
         4 000465   200007 756100                    STQ     UBIN_VAL,,AUTO

      268    14407    5               IF SIGN ~= 0 THEN

  14407  4 000466   200012 235100                    LDA     SIGN,,AUTO
         4 000467   000506 600000 4                  TZE     s:14453

      269    14408    6                  IF UBIN_VAL > 34359738300 THEN DO;

  14408  4 000470   000006 116000 5                  CMPQ    6
         4 000471   000506 602000 4                  TNC     s:14453

      270    14409    7                     IF SIGN = -1 THEN DO;

  14409  4 000472   000027 115000 xsym               CMPA    B_VECTNIL+23
         4 000473   000501 601000 4                  TNZ     s:14447

      271    14410        /*E*   ERROR: ASA-E$MCHARGES_TOO_SML-C
      272    14411             MESSAGE: Mcharges too small.
      273    14412             MESSAGE1: Mcharges cannot be less than -3435973.83.
      274    14413        */
      275    14414                             %SCREAM( ERR#=E$MCHARGES_TOO_SML, LEVEL=ERROR, MID='A' );

  14426  4 000474   000007 630400 5                  EPPR0   7
         4 000475   000017 631400 xsym               EPPR1   B_VECTNIL+15
         4 000476   000000 701000 xent               TSX1    ASH$ERROR
         4 000477   000000 011000                    NOP     0

PL6.E3A0      #001=ASA$PROJECT File=ASA$PROJ.:E05TSI                             TUE 07/29/97 08:41 Page:50
      276    14429    7                        END;

  14429  4 000500   000505 710000 4                  TRA     s:14451

      277    14430    7                     ELSE DO;

      278    14431        /*E*   ERROR: ASA-E$MCHARGES_TOO_BIG-C
      279    14432             MESSAGE: Mcharges too large.
      280    14433             MESSAGE1: Mcharges cannot be greater than 3435973.83.
      281    14434        */
      282    14435                             %SCREAM( ERR#=E$MCHARGES_TOO_BIG, LEVEL=ERROR, MID='A' );

  14447  4 000501   000010 630400 5                  EPPR0   8
         4 000502   000017 631400 xsym               EPPR1   B_VECTNIL+15
         4 000503   000000 701000 xent               TSX1    ASH$ERROR
         4 000504   000000 011000                    NOP     0

      283    14450    7                        END;

      284    14451    6                     GOTO CM_LOOP;

  14451  4 000505   000005 710000 4                  TRA     CM_LOOP

      285    14452    6                     END;
      286    14453    5               IF AS_PROJECT.BUDGET.PMAXC = -1 AND SIGN = -1

  14453  4 000506   000010 235000 xsym               LDA     AS_PROJECT+8
         4 000507   000027 115000 xsym               CMPA    B_VECTNIL+23
         4 000510   000521 601000 4                  TNZ     s:14476
         4 000511   200012 235100                    LDA     SIGN,,AUTO
         4 000512   000027 115000 xsym               CMPA    B_VECTNIL+23
         4 000513   000521 601000 4                  TNZ     s:14476

      287    14454    6               THEN DO;

      288    14455        /*E* ERROR: ASA-E$MCHARGES_ILL_VAL-C
      289    14456             MESSAGE: MCHARGES cannot be negative.
PL6.E3A0      #001=ASA$PROJECT File=ASA$PROJ.:E05TSI                             TUE 07/29/97 08:41 Page:51
      290    14457             MESSAGE1: MCHARGES cannot be negative when previously set to NONE.
      291    14458        */
      292    14459                       %SCREAM( ERR#=E$MCHARGES_ILL_VAL,LEVEL=ERROR,MID='A');

  14471  4 000514   000011 630400 5                  EPPR0   9
         4 000515   000017 631400 xsym               EPPR1   B_VECTNIL+15
         4 000516   000000 701000 xent               TSX1    ASH$ERROR
         4 000517   000000 011000                    NOP     0

      293    14474    6                  GOTO CM_LOOP;

  14474  4 000520   000005 710000 4                  TRA     CM_LOOP

      294    14475    6                  END;
      295    14476    5               IF SIGN = 0 THEN

  14476  4 000521   200012 235100                    LDA     SIGN,,AUTO
         4 000522   000524 601000 4                  TNZ     s:14478

      296    14477    5                  AS_PROJECT.BUDGET.PMAXC = UBIN_VAL ;

  14477  4 000523   000010 756000 xsym               STQ     AS_PROJECT+8

      297    14478    5               IF AS_PROJECT.BUDGET.PMAXC = -1 AND SIGN = 1

  14478  4 000524   000010 235000 xsym               LDA     AS_PROJECT+8
         4 000525   000027 115000 xsym               CMPA    B_VECTNIL+23
         4 000526   000534 601000 4                  TNZ     s:14481
         4 000527   200012 235100                    LDA     SIGN,,AUTO
         4 000530   000001 115007                    CMPA    1,DL
         4 000531   000534 601000 4                  TNZ     s:14481

      298    14479    5               THEN AS_PROJECT.BUDGET.PMAXC = UBIN_VAL;

  14479  4 000532   000010 756000 xsym               STQ     AS_PROJECT+8
         4 000533   001467 710000 4                  TRA     s:14983

PL6.E3A0      #001=ASA$PROJECT File=ASA$PROJ.:E05TSI                             TUE 07/29/97 08:41 Page:52
      299    14480    6               ELSE DO;

      300    14481    6                  VAL = (SIGN * UBIN_VAL) + AS_PROJECT.BUDGET.PMAXC ;

  14481  4 000534   200012 402100                    MPY     SIGN,,AUTO
         4 000535   000010 036000 xsym               ADLQ    AS_PROJECT+8
         4 000536   200006 756100                    STQ     VAL,,AUTO

      301    14482    6                  IF VAL >= 0 THEN

  14482  4 000537   000542 604000 4                  TMI     s:14501

      302    14483    6                     AS_PROJECT.BUDGET.PMAXC = VAL ;

  14483  4 000540   000010 756000 xsym               STQ     AS_PROJECT+8
         4 000541   001467 710000 4                  TRA     s:14983

      303    14484    7                  ELSE DO;

      304    14485        /*E*  ERROR: ASA-E$MCHARGES_NEG_VAL-C
      305    14486              MESSAGE: MCHARGES is a negative value.
      306    14487              MESSAGE1: MCHARGES cannot have a negative value.
      307    14488        */
      308    14489                          %SCREAM(ERR#=E$MCHARGES_NEG_VAL,LEVEL=ERROR,MID='A') ;

  14501  4 000542   000012 630400 5                  EPPR0   10
         4 000543   000017 631400 xsym               EPPR1   B_VECTNIL+15
         4 000544   000000 701000 xent               TSX1    ASH$ERROR
         4 000545   000000 011000                    NOP     0

      309    14504    7                     END;

      310    14505    6                  END;

      311    14506    5               END;

  14506  4 000546   001467 710000 4                  TRA     s:14983
PL6.E3A0      #001=ASA$PROJECT File=ASA$PROJ.:E05TSI                             TUE 07/29/97 08:41 Page:53

      312    14507
      313    14508        /*
      314    14509        If AS_CR_MOD_PROJ > 0  and  AS_DFLT.BUDGET.MAXC > 0
      315    14510        then
      316    14511           if AS_PROJECT.BUDGET.PMAXC > AS_DFLT.BUDGET.MAXC
      317    14512           then do;
      318    14513        */
      319    14514        /*E* ERROR:   ASA-E$MCHARGES_TOO_LARGE-C
      320    14515             MESSAGE: MCHARGES greater than the maximum allowed for a %U1 you create.
      321    14516             MESSAGE1: MCHARGES = %U2.%U3 is the maximum allowed for a %U1 you create.
      322    14517                       Setting MCHARGE to %U2.%U3.
      323    14518        */
      324    14519        /*
      325    14520              AS_FIELD1 = TEXTC(AS_CR_MOD_PROJ-1);
      326    14521              dollar = AS_DFLT.BUDGET.MAXC / 10000;
      327    14522              cents = mod( AS_DFLT.BUDGET.MAXC, 10000 ) / 100;
      328    14523              %NUMBER( NUM2="DOLLAR", NUM3="CENTS" );
      329    14524              if AS_FIELD3.COUNT = 1
      330    14525              then do;
      331    14526                 AS_FIELD3.COUNT = 2;
      332    14527                 call insert( AS_FIELD3.TEXT, 1, 1, '0' );
      333    14528                 end;
      334    14529              %SCREAM( ERR#=E$MCHARGES_TOO_LARGE, level=error, mid='a' );
      335    14530              AS_PROJECT.BUDGET.PMAXC = AS_DFLT.BUDGET.MAXC;
      336    14531              end;
      337    14532
      338    14533        */
      339    14534    4            SELECT( 7 /* PROJECT ACHARGES */ );

      340    14535    5            IF NOT SUPERAUTH THEN DO;

  14535  4 000547   000000 234000 xsym               SZN     SUPERAUTH
         4 000550   000556 604000 4                  TMI     s:14556

      341    14536        /*E* ERROR:   ASA-E$ACHARGES_NOT_ALLOWED-C
      342    14537        MESSAGE: The SUPERAUTH pprivilege is required to use the ACHARGES option.
PL6.E3A0      #001=ASA$PROJECT File=ASA$PROJ.:E05TSI                             TUE 07/29/97 08:41 Page:54
      343    14538        */
      344    14539                    %SCREAM( ERR#=E$ACHARGES_NOT_ALLOWED,LEVEL=ERROR,MID='A');

  14551  4 000551   000013 630400 5                  EPPR0   11
         4 000552   000017 631400 xsym               EPPR1   B_VECTNIL+15
         4 000553   000000 701000 xent               TSX1    ASH$ERROR
         4 000554   000000 011000                    NOP     0

      345    14554    5               GOTO CM_LOOP;

  14554  4 000555   000005 710000 4                  TRA     CM_LOOP

      346    14555    5               END;
      347    14556    5            IF SUBND$ -> P$NODE.SUBNODES = 1 THEN DO;

  14556  4 000556   100001 221100                    LDX1    1,,PR1
         4 000557   000001 101003                    CMPX1   1,DU
         4 000560   000566 601000 4                  TNZ     s:14561

      348    14557    5               SIGN = 1;

  14557  4 000561   000001 235007                    LDA     1,DL
         4 000562   200012 755100                    STA     SIGN,,AUTO

      349    14558    5               BLK$ = SUBND$ -> P$NODE.SUBLK$(0);

  14558  4 000563   100003 236100                    LDQ     3,,PR1
         4 000564   200016 756100                    STQ     BLK$,,AUTO

      350    14559    5               END;

  14559  4 000565   000602 710000 4                  TRA     s:14566

      351    14560    5            ELSE DO;

      352    14561    5               IF SUBND$ -> P$NODE.SUBLK$(0) -> P$NODE.SUBLK$(0) -> P$NODE.CODE = 1
             14561                        /* MINUS_VAL */
PL6.E3A0      #001=ASA$PROJECT File=ASA$PROJ.:E05TSI                             TUE 07/29/97 08:41 Page:55

  14561  4 000566   100003 473500                    LDP3    3,,PR1
         4 000567   300003 474500                    LDP4    3,,PR3
         4 000570   400000 722100                    LXL2    0,,PR4
         4 000571   000001 102003                    CMPX2   1,DU
         4 000572   000576 601000 4                  TNZ     s:14563

      353    14562    5               THEN SIGN = -1;

  14562  4 000573   000001 335007                    LCA     1,DL
         4 000574   200012 755100                    STA     SIGN,,AUTO
         4 000575   000600 710000 4                  TRA     s:14564

      354    14563    5               ELSE SIGN = 1;

  14563  4 000576   000001 235007                    LDA     1,DL
         4 000577   200012 755100                    STA     SIGN,,AUTO

      355    14564    5               BLK$ = SUBND$ -> P$NODE.SUBLK$(1);

  14564  4 000600   100004 236100                    LDQ     4,,PR1
         4 000601   200016 756100                    STQ     BLK$,,AUTO

      356    14565    5               END;

      357    14566    4            CALL CHARBIN( DOLLAR, BLK$->P$NODE.SUBLK$(0)->OUT$SYM.TEXT );

  14566  4 000602   200016 473500                    LDP3    BLK$,,AUTO
         4 000603   300003 474500                    LDP4    3,,PR3
         4 000604   400004 236100                    LDQ     4,,PR4
         4 000605   000033 772000                    QRL     27
         4 000606   000000 622006                    EAX2    0,QL
         4 000607   000100 305540                    DTB
         4 000610   400004 230012                    NDSC9   4,,PR4                   cn=1,s=nosgn,sf=0,n=*X2
         4 000611   200010 000004                    NDSC9   DOLLAR,,AUTO             cn=0,s=lsgnf,sf=0,n=4

      358    14567    4            IF BLK$ -> P$NODE.SUBNODES = 1 THEN
PL6.E3A0      #001=ASA$PROJECT File=ASA$PROJ.:E05TSI                             TUE 07/29/97 08:41 Page:56

  14567  4 000612   300001 223100                    LDX3    1,,PR3
         4 000613   000001 103003                    CMPX3   1,DU
         4 000614   000617 601000 4                  TNZ     s:14570

      359    14568    4               CENTS = 0;

  14568  4 000615   200011 450100                    STZ     CENTS,,AUTO
         4 000616   000643 710000 4                  TRA     s:14578

      360    14569    5            ELSE DO;

      361    14570    5               IF BLK$->P$NODE.SUBLK$(1)->OUT$SYM.COUNT = 1

  14570  4 000617   300004 475500                    LDP5    4,,PR3
         4 000620   500004 236100                    LDQ     4,,PR5
         4 000621   777000 376003                    ANQ     -512,DU
         4 000622   001000 116003                    CMPQ    512,DU
         4 000623   000636 601000 4                  TNZ     s:14576

      362    14571    6               THEN DO;

      363    14572    6                  CALL CHARBIN( CENTS, BLK$->P$NODE.SUBLK$(1)->OUT$SYM.TEXT);

  14572  4 000624   500004 236100                    LDQ     4,,PR5
         4 000625   000033 772000                    QRL     27
         4 000626   000000 624006                    EAX4    0,QL
         4 000627   000100 305540                    DTB
         4 000630   500004 230014                    NDSC9   4,,PR5                   cn=1,s=nosgn,sf=0,n=*X4
         4 000631   200011 000004                    NDSC9   CENTS,,AUTO              cn=0,s=lsgnf,sf=0,n=4

      364    14573    6                  CENTS = CENTS * 10;

  14573  4 000632   200011 236100                    LDQ     CENTS,,AUTO
         4 000633   000012 402007                    MPY     10,DL
         4 000634   200011 756100                    STQ     CENTS,,AUTO

PL6.E3A0      #001=ASA$PROJECT File=ASA$PROJ.:E05TSI                             TUE 07/29/97 08:41 Page:57
      365    14574    6                  END;

  14574  4 000635   000643 710000 4                  TRA     s:14578

      366    14575    5               ELSE
      367    14576    5                 CALL CHARBIN( CENTS, SUBSTR(BLK$->P$NODE.SUBLK$(1)->OUT$SYM.TEXT,0,2)
             14576                           );

  14576  4 000636   500004 236100                    LDQ     4,,PR5
         4 000637   000033 772000                    QRL     27
         4 000640   000100 305500                    DTB
         4 000641   500004 230002                    NDSC9   4,,PR5                   cn=1,s=nosgn,sf=0,n=2
         4 000642   200011 000004                    NDSC9   CENTS,,AUTO              cn=0,s=lsgnf,sf=0,n=4

      368    14577    5               END;

      369    14578    4            UBIN_VAL = DOLLAR * 10000 + CENTS * 100 ;

  14578  4 000643   200010 236100                    LDQ     DOLLAR,,AUTO
         4 000644   000144 402007                    MPY     100,DL
         4 000645   200011 036100                    ADLQ    CENTS,,AUTO
         4 000646   000144 402007                    MPY     100,DL
         4 000647   200007 756100                    STQ     UBIN_VAL,,AUTO

      370    14579    5            IF UBIN_VAL > 34359738300 THEN DO;

  14579  4 000650   000006 116000 5                  CMPQ    6
         4 000651   000667 602000 4                  TNC     s:14624

      371    14580    6               IF SIGN = -1 THEN DO;

  14580  4 000652   200012 235100                    LDA     SIGN,,AUTO
         4 000653   000027 115000 xsym               CMPA    B_VECTNIL+23
         4 000654   000662 601000 4                  TNZ     s:14618

      372    14581        /*   ERROR: ASC-E$ACCUM_TOO_SMALL-C
      373    14582             MESSAGE: Acharges too small.
PL6.E3A0      #001=ASA$PROJECT File=ASA$PROJ.:E05TSI                             TUE 07/29/97 08:41 Page:58
      374    14583             MESSAGE1: Acharges cannot be less than -3435973.83.
      375    14584        */
      376    14585                       %SCREAM( ERR#=E$ACCUM_TOO_SMALL, LEVEL=ERROR, MID='C' );

  14597  4 000655   000014 630400 5                  EPPR0   12
         4 000656   000017 631400 xsym               EPPR1   B_VECTNIL+15
         4 000657   000000 701000 xent               TSX1    ASH$ERROR
         4 000660   000000 011000                    NOP     0

      377    14600    6                  END;

  14600  4 000661   000666 710000 4                  TRA     s:14622

      378    14601    6               ELSE DO;

      379    14602        /*   ERROR: ASC-E$ACCUM_TOO_BIG-C
      380    14603             MESSAGE: Acharges too large.
      381    14604             MESSAGE1: Acharges cannot be greater than 3435973.83.
      382    14605        */
      383    14606                       %SCREAM( ERR#=E$ACCUM_TOO_BIG, LEVEL=ERROR, MID='C' );

  14618  4 000662   000015 630400 5                  EPPR0   13
         4 000663   000017 631400 xsym               EPPR1   B_VECTNIL+15
         4 000664   000000 701000 xent               TSX1    ASH$ERROR
         4 000665   000000 011000                    NOP     0

      384    14621    6                  END;

      385    14622    5               GOTO CM_LOOP;

  14622  4 000666   000005 710000 4                  TRA     CM_LOOP

      386    14623    5               END;
      387    14624    4            VAL = SIGN * UBIN_VAL;

  14624  4 000667   200012 402100                    MPY     SIGN,,AUTO
         4 000670   200006 756100                    STQ     VAL,,AUTO
PL6.E3A0      #001=ASA$PROJECT File=ASA$PROJ.:E05TSI                             TUE 07/29/97 08:41 Page:59

      388    14625    4            DELTA = VAL - AS_PROJECT.BUDGET.PACCUM;

  14625  4 000671   000011 136000 xsym               SBLQ    AS_PROJECT+9
         4 000672   200005 756100                    STQ     DELTA,,AUTO

      389    14626    4            AS_PROJECT.BUDGET.PACCUM = VAL;

  14626  4 000673   200006 235100                    LDA     VAL,,AUTO
         4 000674   000011 755000 xsym               STA     AS_PROJECT+9

      390    14627    4            AS_USERS = AS_PROJECT;

  14627  4 000675   000000 100400                    MLR     fill='000'O
         4 000676   000000 004020 xsym               ADSC9   AS_PROJECT               cn=0,n=2064
         4 000677   000000 004020 xsym               ADSC9   AS_USERS                 cn=0,n=2064

      391    14628    5            DO WHILE(AS_USERS.BUDGET.PCHARGES AND AS_USERS.BUDGET.MACCT ~= AS_NONE);

  14628  4 000700   000722 710000 4                  TRA     s:14634

      392    14629    5               USERS_KEY = AS_USERS.BUDGET.MACCT;

  14629  4 000701   000000 100400                    MLR     fill='000'O
         4 000702   000012 000025 xsym               ADSC9   AS_USERS+10              cn=0,n=21
         4 000703   000000 000052 xsym               ADSC9   USERS_KEY                cn=0,n=42

      393    14630    5               CALL ASB$ENQ_USERS ALTRET(ENQ_ERR);

  14630  4 000704   000002 631400 xsym               EPPR1   B_VECTNIL+2
         4 000705   000000 701000 xent               TSX1    ASB$ENQ_USERS
         4 000706   000737 702000 4                  TSX2    ENQ_ERR

      394    14631    5               CALL ASB$READ_USERS( AS_USERS ) ALTRET(READ_ERR);

  14631  4 000707   000016 630400 5                  EPPR0   14
         4 000710   000017 631400 xsym               EPPR1   B_VECTNIL+15
PL6.E3A0      #001=ASA$PROJECT File=ASA$PROJ.:E05TSI                             TUE 07/29/97 08:41 Page:60
         4 000711   000000 701000 xent               TSX1    ASB$READ_USERS
         4 000712   000732 702000 4                  TSX2    READ_ERR

      395    14632    5               AS_USERS.BUDGET.PACCUM = AS_USERS.BUDGET.PACCUM + DELTA;

  14632  4 000713   000011 236000 xsym               LDQ     AS_USERS+9
         4 000714   200005 036100                    ADLQ    DELTA,,AUTO
         4 000715   000011 756000 xsym               STQ     AS_USERS+9

      396    14633    5               CALL ASB$WRITE_USERS( AS_USERS );

  14633  4 000716   000016 630400 5                  EPPR0   14
         4 000717   000017 631400 xsym               EPPR1   B_VECTNIL+15
         4 000720   000000 701000 xent               TSX1    ASB$WRITE_USERS
         4 000721   000000 011000                    NOP     0

      397    14634    5               END;

  14634  4 000722   000017 236000 xsym               LDQ     AS_USERS+15
         4 000723   000100 316003                    CANQ    64,DU
         4 000724   000731 600000 4                  TZE     s:14635
         4 000725   000000 106400                    CMPC    fill='000'O
         4 000726   000012 000025 xsym               ADSC9   AS_USERS+10              cn=0,n=21
         4 000727   000000 000025 xsym               ADSC9   AS_NONE                  cn=0,n=21
         4 000730   000701 601000 4                  TNZ     s:14629

      398    14635    5            DO WHILE( '0'B );

  14635  4 000731   000736 710000 4                  TRA     s:14639

      399    14636    5   READ_ERR:
      400    14637    5               CALL ASA$ERROR( USERS_KEY, 307 /* UNABLE TO READ :USERS */ );

  14637  4 000732   000020 630400 5     READ_ERR     EPPR0   16
         4 000733   000020 631400 xsym               EPPR1   B_VECTNIL+16
         4 000734   000000 701000 xent               TSX1    ASA$ERROR
         4 000735   000000 011000                    NOP     0
PL6.E3A0      #001=ASA$PROJECT File=ASA$PROJ.:E05TSI                             TUE 07/29/97 08:41 Page:61

      401    14638    5               END;

      402    14639    5            DO WHILE( '0'B );

  14639  4 000736   001467 710000 4                  TRA     s:14983

      403    14640    5   ENQ_ERR:
      404    14641    5               CALL ASH$ERROR( ERR_CODE );

  14641  4 000737   000022 630400 5     ENQ_ERR      EPPR0   18
         4 000740   000017 631400 xsym               EPPR1   B_VECTNIL+15
         4 000741   000000 701000 xent               TSX1    ASH$ERROR
         4 000742   000000 011000                    NOP     0

      405    14642    5               END;

  14642  4 000743   001467 710000 4                  TRA     s:14983

      406    14643                                                              /**/
      407    14644    4            SELECT( 3 /* PROJ_ACCTS_VAL */ );

      408    14645    4            CALL CHARBIN( VAL, SUBND$->P$NODE.SUBLK$(0)->OUT$SYM.TEXT );

  14645  4 000744   100003 473500                    LDP3    3,,PR1
         4 000745   300004 236100                    LDQ     4,,PR3
         4 000746   000033 772000                    QRL     27
         4 000747   000000 621006                    EAX1    0,QL
         4 000750   000100 305540                    DTB
         4 000751   300004 230011                    NDSC9   4,,PR3                   cn=1,s=nosgn,sf=0,n=*X1
         4 000752   200006 000004                    NDSC9   VAL,,AUTO                cn=0,s=lsgnf,sf=0,n=4

      409    14646    4            IF CR_MOD_FLG  AND  VAL < AS_PROJECT_DFLT.BUDGET.PROJ_CREATED

  14646  4 000753   000000 234000 xsym               SZN     CR_MOD_FLG
         4 000754   001000 605000 4                  TPL     s:14702
         4 000755   200006 236100                    LDQ     VAL,,AUTO
PL6.E3A0      #001=ASA$PROJECT File=ASA$PROJ.:E05TSI                             TUE 07/29/97 08:41 Page:62
         4 000756   000011 116000 xsym               CMPQ    AS_PROJECT_DFLT+9
         4 000757   001000 605000 4                  TPL     s:14702

      410    14647    5            THEN DO;

      411    14648        /*E* ERROR: ASA-E$P_ACCTS_TOO_SMALL-C
      412    14649        MESSAGE: ACCOUNTS cannot be set less than the number of accounts already
      413    14650                 accumulated by this project.  Setting ACCOUNTS to %U1.
      414    14651        MESSAGE1: %U1 accounts have already been accumulated by this project.
      415    14652                  You cannot set ACCOUNTS to a value which is less than the number of
      416    14653                  accounts already accumulated by the project.  ACCOUNTS is set to %U1.
      417    14654        */
      418    14655    5               VAL = AS_PROJECT_DFLT.BUDGET.PROJ_CREATED;

  14655  4 000760   000011 235000 xsym               LDA     AS_PROJECT_DFLT+9
         4 000761   200006 755100                    STA     VAL,,AUTO

      419    14656                    %NUMBER( NUM1=VAL );
             14664    5         CALL ASB$BINCHAR( AS_FIELD1.TEXT, 0, -1, VAL );

  14664  4 000762   200006 633500                    EPPR3   VAL,,AUTO
         4 000763   200043 453500                    STP3    PROJ_HEADER+15,,AUTO
         4 000764   000023 236000 5                  LDQ     19
         4 000765   200042 756100                    STQ     PROJ_HEADER+14,,AUTO
         4 000766   000024 237000 5                  LDAQ    20
         4 000767   200040 757100                    STAQ    PROJ_HEADER+12,,AUTO
         4 000770   200040 630500                    EPPR0   PROJ_HEADER+12,,AUTO
         4 000771   000022 631400 xsym               EPPR1   B_VECTNIL+18
         4 000772   000000 701000 xent               TSX1    ASB$BINCHAR
         4 000773   000000 011000                    NOP     0

      420    14686                    %SCREAM( ERR#=E$P_ACCTS_TOO_SMALL, MID='A', LEVEL=ERROR );

  14698  4 000774   000026 630400 5                  EPPR0   22
         4 000775   000017 631400 xsym               EPPR1   B_VECTNIL+15
         4 000776   000000 701000 xent               TSX1    ASH$ERROR
         4 000777   000000 011000                    NOP     0
PL6.E3A0      #001=ASA$PROJECT File=ASA$PROJ.:E05TSI                             TUE 07/29/97 08:41 Page:63

      421    14701    5               END;

      422    14702    5            IF AS_CR_MOD_PROJ > 0 THEN DO;

  14702  4 001000   000000 235000 xsym               LDA     AS_CR_MOD_PROJ
         4 001001   001104 604400 4                  TMOZ    s:14768

      423    14703    5               IF AS_PROJECT_DFLT.BUDGET.PMAXC > 0 THEN

  14703  4 001002   000010 236000 xsym               LDQ     AS_PROJECT_DFLT+8
         4 001003   001010 604400 4                  TMOZ    s:14706

      424    14704    5                  DELTA = VAL - AS_PROJECT_DFLT.BUDGET.PROJ_ALLOWED;

  14704  4 001004   200006 236100                    LDQ     VAL,,AUTO
         4 001005   000010 136000 xsym               SBLQ    AS_PROJECT_DFLT+8
         4 001006   200005 756100                    STQ     DELTA,,AUTO
         4 001007   001012 710000 4                  TRA     s:14707

      425    14705    5               ELSE
      426    14706    5                  DELTA = VAL;

  14706  4 001010   200006 235100                    LDA     VAL,,AUTO
         4 001011   200005 755100                    STA     DELTA,,AUTO

      427    14707    5               IF AS_DEFAULT.BUDGET.PROJ_CREATED + DELTA > AS_DEFAULT.BUDGET.
             14707                        PROJ_ALLOWED

  14707  4 001012   000011 236000 xsym               LDQ     AS_DEFAULT+9
         4 001013   200005 036100                    ADLQ    DELTA,,AUTO
         4 001014   000010 116000 xsym               CMPQ    AS_DEFAULT+8
         4 001015   001101 604400 4                  TMOZ    s:14766

      428    14708    6               THEN DO;

      429    14709        /*E* ERROR: ASA-E$TOO_MANY_P_ACCTS-C
PL6.E3A0      #001=ASA$PROJECT File=ASA$PROJ.:E05TSI                             TUE 07/29/97 08:41 Page:64
      430    14710        MESSAGE: Maximum number of accounts exceeded for project %U1.
      431    14711                 ACCOUNTS = %U2 is the most that can be specified.
      432    14712        */
      433    14713    6                  CALL INDEX( J, AS_BLANK, AS_PROJECT_ADMIN.TEXT );

  14713  4 001016   000000 124400                    SCM     mask='000'O
         4 001017   000000 200024 xsym               ADSC9   AS_PROJECT_ADMIN         cn=1,n=20
         4 001020   000000 000001 xsym               ADSC9   AS_BLANK                 cn=0,n=1
         4 001021   200021 000100                    ARG     J,,AUTO

      434    14714    6                  CALL CONCAT( AS_FIELD1.TEXT,

  14714  4 001022   000000 236000 xsym               LDQ     AS_PROJECT_ADMIN
         4 001023   000033 772000                    QRL     27
         4 001024   777770 620006                    EAX0    -8,QL
         4 001025   200021 721100                    LXL1    J,,AUTO
         4 001026   040000 100440                    MLR     fill='040'O
         4 001027   000000 200011 xsym               ADSC9   AS_PROJECT_ADMIN         cn=1,n=*X1
         4 001030   000000 200050 xsym               ADSC9   AS_FIELD1                cn=1,n=40
         4 001031   200021 236100                    LDQ     J,,AUTO
         4 001032   000050 116007                    CMPQ    40,DL
         4 001033   001050 605000 4                  TPL     s:14717
         4 001034   777727 622006                    EAX2    -41,QL
         4 001035   777777 662003                    ERX2    -1,DU
         4 001036   040046 100400                    MLR     fill='040'O
         4 001037   000027 000001 5                  ADSC9   23                       cn=0,n=1
         4 001040   000000 200012 xsym               ADSC9   AS_FIELD1,Q              cn=1,n=*X2
         4 001041   000047 116007                    CMPQ    39,DL
         4 001042   001050 605000 4                  TPL     s:14717
         4 001043   777730 623006                    EAX3    -40,QL
         4 001044   777777 663003                    ERX3    -1,DU
         4 001045   040046 100440                    MLR     fill='040'O
         4 001046   000002 200010 xsym               ADSC9   AS_PROJECT_ADMIN+2       cn=1,n=*X0
         4 001047   000000 400013 xsym               ADSC9   AS_FIELD1,Q              cn=2,n=*X3

      435    14715    6                       SUBSTR(AS_PROJECT_ADMIN.TEXT,0,J), ',',
      436    14716    6                       SUBSTR(AS_PROJECT_ADMIN.TEXT,8,AS_PROJECT_ADMIN.COUNT-8) );
PL6.E3A0      #001=ASA$PROJECT File=ASA$PROJ.:E05TSI                             TUE 07/29/97 08:41 Page:65
      437    14717    6                  AS_FIELD1.COUNT = AS_PROJECT_ADMIN.COUNT - 7 + J;

  14717  4 001050   000000 236000 xsym               LDQ     AS_PROJECT_ADMIN
         4 001051   000033 772000                    QRL     27
         4 001052   200021 036100                    ADLQ    J,,AUTO
         4 001053   000007 136007                    SBLQ    7,DL
         4 001054   000033 736000                    QLS     27
         4 001055   000000 552040 xsym               STBQ    AS_FIELD1,'40'O

      438    14718    6                  DELTA = AS_DEFAULT.BUDGET.PROJ_ALLOWED - AS_DEFAULT.BUDGET.
             14718                           PROJ_CREATED + AS_PROJECT_DFLT.BUDGET.PROJ_ALLOWED;

  14718  4 001056   000010 236000 xsym               LDQ     AS_DEFAULT+8
         4 001057   000011 136000 xsym               SBLQ    AS_DEFAULT+9
         4 001060   000010 036000 xsym               ADLQ    AS_PROJECT_DFLT+8
         4 001061   200005 756100                    STQ     DELTA,,AUTO

      439    14719                       %NUMBER( NUM2=DELTA );
             14735    6         CALL ASB$BINCHAR( AS_FIELD2.TEXT, 0, -2, DELTA );

  14735  4 001062   200005 630500                    EPPR0   DELTA,,AUTO
         4 001063   200043 450500                    STP0    PROJ_HEADER+15,,AUTO
         4 001064   000031 236000 5                  LDQ     25
         4 001065   200042 756100                    STQ     PROJ_HEADER+14,,AUTO
         4 001066   000032 237000 5                  LDAQ    26
         4 001067   200040 757100                    STAQ    PROJ_HEADER+12,,AUTO
         4 001070   200040 630500                    EPPR0   PROJ_HEADER+12,,AUTO
         4 001071   000022 631400 xsym               EPPR1   B_VECTNIL+18
         4 001072   000000 701000 xent               TSX1    ASB$BINCHAR
         4 001073   000000 011000                    NOP     0

      440    14749                       %SCREAM( ERR#=E$TOO_MANY_P_ACCTS,MID='A',LEVEL=ERROR);

  14761  4 001074   000034 630400 5                  EPPR0   28
         4 001075   000017 631400 xsym               EPPR1   B_VECTNIL+15
         4 001076   000000 701000 xent               TSX1    ASH$ERROR
         4 001077   000000 011000                    NOP     0
PL6.E3A0      #001=ASA$PROJECT File=ASA$PROJ.:E05TSI                             TUE 07/29/97 08:41 Page:66

      441    14764    6                  GOTO CM_LOOP;

  14764  4 001100   000005 710000 4                  TRA     CM_LOOP

      442    14765    6                  END;
      443    14766    5              AS_DEFAULT.BUDGET.PROJ_CREATED = AS_DEFAULT.BUDGET.PROJ_CREATED + DELTA;

  14766  4 001101   000011 236000 xsym               LDQ     AS_DEFAULT+9
         4 001102   200005 036100                    ADLQ    DELTA,,AUTO
         4 001103   000011 756000 xsym               STQ     AS_DEFAULT+9

      444    14767    5               END;

      445    14768    4            AS_PROJECT_DFLT.BUDGET.PROJ_ALLOWED = VAL;

  14768  4 001104   200006 235100                    LDA     VAL,,AUTO
         4 001105   000010 755000 xsym               STA     AS_PROJECT_DFLT+8
         4 001106   001467 710000 4                  TRA     s:14983

      446    14769                                                              /**/
      447    14770    4            SELECT( 4 /* PROJ_PACK_VAL */ );

      448    14771                                                      /*  Get packset name */
      449    14772    4            BLK$ = SUBND$ -> P$NODE.SUBLK$(0);

  14772  4 001107   100003 236100                    LDQ     3,,PR1
         4 001110   200016 756100                    STQ     BLK$,,AUTO

      450    14773    4            PACKSET.TXT = OUT$SYM.TEXT;

  14773  4 001111   200016 473500                    LDP3    BLK$,,AUTO
         4 001112   300004 236100                    LDQ     4,,PR3
         4 001113   000033 772000                    QRL     27
         4 001114   000000 621006                    EAX1    0,QL
         4 001115   040100 100540                    MLR     fill='040'O
         4 001116   300004 200011                    ADSC9   4,,PR3                   cn=1,n=*X1
PL6.E3A0      #001=ASA$PROJECT File=ASA$PROJ.:E05TSI                             TUE 07/29/97 08:41 Page:67
         4 001117   200022 200006                    ADSC9   PACKSET,,AUTO            cn=1,n=6

      451    14774    4            PACKSET.CNT = OUT$SYM.COUNT;

  14774  4 001120   300004 236100                    LDQ     4,,PR3
         4 001121   200022 552140                    STBQ    PACKSET,'40'O,AUTO

      452    14775                                                      /*  Process packset options */
      453    14776    4            CALL ASA$PACKSET_OPTS( CR_MOD_KEY, PACKSET );

  14776  4 001122   200022 634500                    EPPR4   PACKSET,,AUTO
         4 001123   200041 454500                    STP4    PROJ_HEADER+13,,AUTO
         4 001124   200003 236100                    LDQ     @CR_MOD_KEY,,AUTO
         4 001125   200040 756100                    STQ     PROJ_HEADER+12,,AUTO
         4 001126   200040 630500                    EPPR0   PROJ_HEADER+12,,AUTO
         4 001127   000020 631400 xsym               EPPR1   B_VECTNIL+16
         4 001130   000000 701000 xent               TSX1    ASA$PACKSET_OPTS
         4 001131   000000 011000                    NOP     0

      454    14777    4            GOTO CM_LOOP;

  14777  4 001132   000005 710000 4                  TRA     CM_LOOP

      455    14778                                                              /**/
      456    14779    4            SELECT( 8 /* REMOVE PACKSET */ );

      457    14780                                                      /*  Get packset name */
      458    14781    4            BLK$ = SUBND$ -> P$NODE.SUBLK$(0);

  14781  4 001133   100003 236100                    LDQ     3,,PR1
         4 001134   200016 756100                    STQ     BLK$,,AUTO

      459    14782    4            PACKSET.TXT = OUT$SYM.TEXT;

  14782  4 001135   200016 473500                    LDP3    BLK$,,AUTO
         4 001136   300004 236100                    LDQ     4,,PR3
         4 001137   000033 772000                    QRL     27
PL6.E3A0      #001=ASA$PROJECT File=ASA$PROJ.:E05TSI                             TUE 07/29/97 08:41 Page:68
         4 001140   000000 621006                    EAX1    0,QL
         4 001141   040100 100540                    MLR     fill='040'O
         4 001142   300004 200011                    ADSC9   4,,PR3                   cn=1,n=*X1
         4 001143   200022 200006                    ADSC9   PACKSET,,AUTO            cn=1,n=6

      460    14783    4            PACKSET.CNT = OUT$SYM.COUNT;

  14783  4 001144   300004 236100                    LDQ     4,,PR3
         4 001145   200022 552140                    STBQ    PACKSET,'40'O,AUTO

      461    14784                                                      /* See if :PROJ record exists */
      462    14785    4            PROJ_KEY.COUNT = PACKSET.CNT + 20;

  14785  4 001146   200022 236100                    LDQ     PACKSET,,AUTO
         4 001147   000033 772000                    QRL     27
         4 001150   000024 036007                    ADLQ    20,DL
         4 001151   000033 736000                    QLS     27
         4 001152   000000 552040 xsym               STBQ    PROJ_KEY,'40'O

      463    14786    4            CALL CONCAT( PROJ_KEY.TEXT, CR_MOD_KEY.TEXT, PACKSET.TXT );

  14786  4 001153   200003 474500                    LDP4    @CR_MOD_KEY,,AUTO
         4 001154   040000 100500                    MLR     fill='040'O
         4 001155   400000 200024                    ADSC9   0,,PR4                   cn=1,n=20
         4 001156   000000 200024 xsym               ADSC9   PROJ_KEY                 cn=1,n=20
         4 001157   040000 100500                    MLR     fill='040'O
         4 001160   200022 200006                    ADSC9   PACKSET,,AUTO            cn=1,n=6
         4 001161   000005 200006 xsym               ADSC9   PROJ_KEY+5               cn=1,n=6

      464    14787    4            CALL ASB$PREC_PROJ ALTRET(PACK_NO_EXIST);

  14787  4 001162   000002 631400 xsym               EPPR1   B_VECTNIL+2
         4 001163   000000 701000 xent               TSX1    ASB$PREC_PROJ
         4 001164   001166 702000 4                  TSX2    PACK_NO_EXIST

      465    14788    5            DO WHILE( '0'B );

PL6.E3A0      #001=ASA$PROJECT File=ASA$PROJ.:E05TSI                             TUE 07/29/97 08:41 Page:69
  14788  4 001165   001205 710000 4                  TRA     s:14812

      466    14789        /*E*  ERROR:  ASA-E$PACK_NO_EXIST_FOR_PROJ-C
      467    14790              MESSAGE: Packset DP#%U1 does not exist for project "%U2".
      468    14791        */
      469    14792    5   PACK_NO_EXIST: AS_FIELD1 = PACKSET;

  14792  4 001166   000000 100500       PACK_NO_EXI* MLR     fill='000'O
         4 001167   200022 000007                    ADSC9   PACKSET,,AUTO            cn=0,n=7
         4 001170   000000 000051 xsym               ADSC9   AS_FIELD1                cn=0,n=41

      470    14793    5               CALL ASA$KEYCONV( CR_MOD_KEY, AS_FIELD2 );

  14793  4 001171   000035 236000 5                  LDQ     29
         4 001172   200003 235100                    LDA     @CR_MOD_KEY,,AUTO
         4 001173   200040 757100                    STAQ    PROJ_HEADER+12,,AUTO
         4 001174   200040 630500                    EPPR0   PROJ_HEADER+12,,AUTO
         4 001175   000020 631400 xsym               EPPR1   B_VECTNIL+16
         4 001176   000000 701000 xent               TSX1    ASA$KEYCONV
         4 001177   000000 011000                    NOP     0

      471    14794                    %SCREAM(ERR#=E$PACK_NO_EXIST_FOR_PROJ,LEVEL=ERROR,MID='A');

  14806  4 001200   000036 630400 5                  EPPR0   30
         4 001201   000017 631400 xsym               EPPR1   B_VECTNIL+15
         4 001202   000000 701000 xent               TSX1    ASH$ERROR
         4 001203   000000 011000                    NOP     0

      472    14809    5               GOTO CM_LOOP;

  14809  4 001204   000005 710000 4                  TRA     CM_LOOP

      473    14810    5               END;

      474    14811                                                          /* Read the :PROJ record */
      475    14812    4            I = SIZEC(PROJ_HEADER);

PL6.E3A0      #001=ASA$PROJECT File=ASA$PROJ.:E05TSI                             TUE 07/29/97 08:41 Page:70
  14812  4 001205   000060 235007                    LDA     48,DL
         4 001206   200020 755100                    STA     I,,AUTO

      476    14813    4            CALL ASB$READ_PROJ( ADDR(PROJ_HEADER), I ) ALTRET(PROJ_READ_ERR);

  14813  4 001207   200024 630500                    EPPR0   PROJ_HEADER,,AUTO
         4 001210   200040 450500                    STP0    PROJ_HEADER+12,,AUTO
         4 001211   200020 631500                    EPPR1   I,,AUTO
         4 001212   200043 451500                    STP1    PROJ_HEADER+15,,AUTO
         4 001213   200040 633500                    EPPR3   PROJ_HEADER+12,,AUTO
         4 001214   200042 453500                    STP3    PROJ_HEADER+14,,AUTO
         4 001215   200042 630500                    EPPR0   PROJ_HEADER+14,,AUTO
         4 001216   000020 631400 xsym               EPPR1   B_VECTNIL+16
         4 001217   000000 701000 xent               TSX1    ASB$READ_PROJ
         4 001220   001222 702000 4                  TSX2    PROJ_READ_ERR

      477    14814    5            DO WHILE( '0'B );

  14814  4 001221   001227 710000 4                  TRA     s:14818

      478    14815    5   PROJ_READ_ERR: CALL ASH$ERROR( ERR_CODE );

  14815  4 001222   000022 630400 5     PROJ_READ_E* EPPR0   18
         4 001223   000017 631400 xsym               EPPR1   B_VECTNIL+15
         4 001224   000000 701000 xent               TSX1    ASH$ERROR
         4 001225   000000 011000                    NOP     0

      479    14816    5               GOTO CM_LOOP;

  14816  4 001226   000005 710000 4                  TRA     CM_LOOP

      480    14817    5               END;

      481    14818    5            IF PROJ_HEADER.NUM_ACCTS > 0 THEN DO;

  14818  4 001227   200037 235100                    LDA     PROJ_HEADER+11,,AUTO
         4 001230   001250 604400 4                  TMOZ    s:14843
PL6.E3A0      #001=ASA$PROJECT File=ASA$PROJ.:E05TSI                             TUE 07/29/97 08:41 Page:71

      482    14819        /*E*  ERROR:  ASA-E$ACCTS_STILL_ON_PACK-C
      483    14820              MESSAGE: Accounts still exist on packset DP#%U1.
      484    14821              MESSAGE1: Packset DP#%U1 cannot be removed while there are still
      485    14822                        accounts on it for project "%U2".
      486    14823        */
      487    14824    5               AS_FIELD1 = PACKSET;

  14824  4 001231   000000 100500                    MLR     fill='000'O
         4 001232   200022 000007                    ADSC9   PACKSET,,AUTO            cn=0,n=7
         4 001233   000000 000051 xsym               ADSC9   AS_FIELD1                cn=0,n=41

      488    14825    5               CALL ASA$KEYCONV( CR_MOD_KEY, AS_FIELD2 );

  14825  4 001234   000035 236000 5                  LDQ     29
         4 001235   200003 235100                    LDA     @CR_MOD_KEY,,AUTO
         4 001236   200040 757100                    STAQ    PROJ_HEADER+12,,AUTO
         4 001237   200040 630500                    EPPR0   PROJ_HEADER+12,,AUTO
         4 001240   000020 631400 xsym               EPPR1   B_VECTNIL+16
         4 001241   000000 701000 xent               TSX1    ASA$KEYCONV
         4 001242   000000 011000                    NOP     0

      489    14826                    %SCREAM( ERR#=E$ACCTS_STILL_ON_PACK,LEVEL=ERROR,MID='A' );

  14838  4 001243   000037 630400 5                  EPPR0   31
         4 001244   000017 631400 xsym               EPPR1   B_VECTNIL+15
         4 001245   000000 701000 xent               TSX1    ASH$ERROR
         4 001246   000000 011000                    NOP     0

      490    14841    5               GOTO CM_LOOP;

  14841  4 001247   000005 710000 4                  TRA     CM_LOOP

      491    14842    5               END;
      492    14843    5            IF PROJ_HEADER.SUB_PROJ_ACCTS > 0 THEN DO;

  14843  4 001250   200031 720100                    LXL0    PROJ_HEADER+5,,AUTO
PL6.E3A0      #001=ASA$PROJECT File=ASA$PROJ.:E05TSI                             TUE 07/29/97 08:41 Page:72
         4 001251   001265 600000 4                  TZE     s:14854

      493    14844        /*E*  ERROR:  ASA-E$STILL_SUB_PROJS_ON_PACK-C
      494    14845              MESSAGE: Sub-projects accounts are still allocated on DP#%U1.
      495    14846              MESSAGE1: Packset DP#%U1 cannot removed while accounts are still
      496    14847                        allocated for sub-projects of project "%U2".
      497    14848        */
      498    14849    5               AS_FIELD1 = PACKSET;

  14849  4 001252   000000 100500                    MLR     fill='000'O
         4 001253   200022 000007                    ADSC9   PACKSET,,AUTO            cn=0,n=7
         4 001254   000000 000051 xsym               ADSC9   AS_FIELD1                cn=0,n=41

      499    14850    5               CALL ASA$KEYCONV( CR_MOD_KEY, AS_FIELD2 );

  14850  4 001255   000035 236000 5                  LDQ     29
         4 001256   200003 235100                    LDA     @CR_MOD_KEY,,AUTO
         4 001257   200040 757100                    STAQ    PROJ_HEADER+12,,AUTO
         4 001260   200040 630500                    EPPR0   PROJ_HEADER+12,,AUTO
         4 001261   000020 631400 xsym               EPPR1   B_VECTNIL+16
         4 001262   000000 701000 xent               TSX1    ASA$KEYCONV
         4 001263   000000 011000                    NOP     0

      500    14851    5               GOTO CM_LOOP;

  14851  4 001264   000005 710000 4                  TRA     CM_LOOP

      501    14852    5               END;
      502    14853                                                          /* Delete the :PROJ record */
      503    14854    4            CALL ASB$DELREC_PROJ;

  14854  4 001265   000002 631400 xsym               EPPR1   B_VECTNIL+2
         4 001266   000000 701000 xent               TSX1    ASB$DELREC_PROJ
         4 001267   000000 011000                    NOP     0
         4 001270   001467 710000 4                  TRA     s:14983

      504    14855
PL6.E3A0      #001=ASA$PROJECT File=ASA$PROJ.:E05TSI                             TUE 07/29/97 08:41 Page:73
      505    14856    4            SELECT( 6 /* PROJ_PROJ_OPT_VAL */ );

      506    14857    4            CALL CHARBIN( VAL, SUBND$->P$NODE.SUBLK$(0)->OUT$SYM.TEXT );

  14857  4 001271   100003 473500                    LDP3    3,,PR1
         4 001272   300004 236100                    LDQ     4,,PR3
         4 001273   000033 772000                    QRL     27
         4 001274   000000 621006                    EAX1    0,QL
         4 001275   000100 305540                    DTB
         4 001276   300004 230011                    NDSC9   4,,PR3                   cn=1,s=nosgn,sf=0,n=*X1
         4 001277   200006 000004                    NDSC9   VAL,,AUTO                cn=0,s=lsgnf,sf=0,n=4

      507    14858    4            IF CR_MOD_FLG  AND  VAL < AS_PROJECT_DFLT.BUDGET.SUB_PROJS

  14858  4 001300   000000 234000 xsym               SZN     CR_MOD_FLG
         4 001301   001326 605000 4                  TPL     s:14915
         4 001302   000017 236000 xsym               LDQ     AS_PROJECT_DFLT+15
         4 001303   000022 736000                    QLS     18
         4 001304   000022 732000                    QRS     18
         4 001305   200006 116100                    CMPQ    VAL,,AUTO
         4 001306   001326 604400 4                  TMOZ    s:14915

      508    14859    5            THEN DO;

      509    14860        /*E* ERROR: ASA-E$P_PROJ_TOO_SMALL-C
      510    14861        MESSAGE: PROJECTS cannot be set less than the number of projects already
      511    14862                 accumulated by this project.  Setting PROJECTS to %U1.
      512    14863        MESSAGE1: %U1 sub-projects have already been accumulated by this project.
      513    14864                  You cannot set PROJECTS to a value which is less than the number of
      514    14865                  sub-projects already accumulated by the project.
      515    14866                  PROJECTS is set to %U1.
      516    14867        */
      517    14868    5               VAL = AS_PROJECT_DFLT.BUDGET.SUB_PROJS;

  14868  4 001307   200006 756100                    STQ     VAL,,AUTO

      518    14869                    %NUMBER( NUM1=VAL );
PL6.E3A0      #001=ASA$PROJECT File=ASA$PROJ.:E05TSI                             TUE 07/29/97 08:41 Page:74
             14877    5         CALL ASB$BINCHAR( AS_FIELD1.TEXT, 0, -1, VAL );

  14877  4 001310   200006 633500                    EPPR3   VAL,,AUTO
         4 001311   200043 453500                    STP3    PROJ_HEADER+15,,AUTO
         4 001312   000023 236000 5                  LDQ     19
         4 001313   200042 756100                    STQ     PROJ_HEADER+14,,AUTO
         4 001314   000024 237000 5                  LDAQ    20
         4 001315   200040 757100                    STAQ    PROJ_HEADER+12,,AUTO
         4 001316   200040 630500                    EPPR0   PROJ_HEADER+12,,AUTO
         4 001317   000022 631400 xsym               EPPR1   B_VECTNIL+18
         4 001320   000000 701000 xent               TSX1    ASB$BINCHAR
         4 001321   000000 011000                    NOP     0

      519    14899                    %SCREAM( ERR#=E$P_PROJ_TOO_SMALL, MID='A', LEVEL=ERROR );

  14911  4 001322   000040 630400 5                  EPPR0   32
         4 001323   000017 631400 xsym               EPPR1   B_VECTNIL+15
         4 001324   000000 701000 xent               TSX1    ASH$ERROR
         4 001325   000000 011000                    NOP     0

      520    14914    5               END;

      521    14915    5            IF AS_CR_MOD_PROJ > 0 THEN DO;

  14915  4 001326   000000 235000 xsym               LDA     AS_CR_MOD_PROJ
         4 001327   001465 604400 4                  TMOZ    s:14981

      522    14916    5               IF AS_PROJECT.BUDGET.MAX_PROJECTS > 0 THEN

  14916  4 001330   000017 720000 xsym               LXL0    AS_PROJECT+15
         4 001331   001342 604400 4                  TMOZ    s:14919

      523    14917    5                  DELTA = VAL - AS_PROJECT.BUDGET.MAX_PROJECTS;

  14917  4 001332   000017 236000 xsym               LDQ     AS_PROJECT+15
         4 001333   000022 736000                    QLS     18
         4 001334   000022 732000                    QRS     18
PL6.E3A0      #001=ASA$PROJECT File=ASA$PROJ.:E05TSI                             TUE 07/29/97 08:41 Page:75
         4 001335   200040 756100                    STQ     PROJ_HEADER+12,,AUTO
         4 001336   200006 236100                    LDQ     VAL,,AUTO
         4 001337   200040 136100                    SBLQ    PROJ_HEADER+12,,AUTO
         4 001340   200005 756100                    STQ     DELTA,,AUTO
         4 001341   001344 710000 4                  TRA     s:14920

      524    14918    5               ELSE
      525    14919    5                  DELTA = VAL;

  14919  4 001342   200006 236100                    LDQ     VAL,,AUTO
         4 001343   200005 756100                    STQ     DELTA,,AUTO

      526    14920    5               IF AS_DEFAULT.BUDGET.SUB_PROJS + DELTA > AS_PROJ_ADMIN.BUDGET.
             14920                        MAX_PROJECTS

  14920  4 001344   000017 236000 xsym               LDQ     AS_DEFAULT+15
         4 001345   000022 736000                    QLS     18
         4 001346   000022 732000                    QRS     18
         4 001347   200005 036100                    ADLQ    DELTA,,AUTO
         4 001350   200040 756100                    STQ     PROJ_HEADER+12,,AUTO
         4 001351   000017 236000 xsym               LDQ     AS_PROJ_ADMIN+15
         4 001352   000022 736000                    QLS     18
         4 001353   000022 732000                    QRS     18
         4 001354   200041 756100                    STQ     PROJ_HEADER+13,,AUTO
         4 001355   200040 236100                    LDQ     PROJ_HEADER+12,,AUTO
         4 001356   200041 116100                    CMPQ    PROJ_HEADER+13,,AUTO
         4 001357   001457 604400 4                  TMOZ    s:14979

      527    14921    6               THEN DO;

      528    14922        /*E* ERROR: ASA-E$TOO_MANY_P_PROJS-C
      529    14923        MESSAGE: Maximum number of projects exceeded for project %U1.
      530    14924                 PROJECTS = %U2 is the most that can be specified.
      531    14925        */
      532    14926    6                  CALL INDEX( J, AS_BLANK, AS_PROJECT_ADMIN.TEXT );

  14926  4 001360   000000 124400                    SCM     mask='000'O
PL6.E3A0      #001=ASA$PROJECT File=ASA$PROJ.:E05TSI                             TUE 07/29/97 08:41 Page:76
         4 001361   000000 200024 xsym               ADSC9   AS_PROJECT_ADMIN         cn=1,n=20
         4 001362   000000 000001 xsym               ADSC9   AS_BLANK                 cn=0,n=1
         4 001363   200021 000100                    ARG     J,,AUTO

      533    14927    6                  CALL CONCAT( AS_FIELD1.TEXT,

  14927  4 001364   000000 236000 xsym               LDQ     AS_PROJECT_ADMIN
         4 001365   000033 772000                    QRL     27
         4 001366   777770 621006                    EAX1    -8,QL
         4 001367   200021 722100                    LXL2    J,,AUTO
         4 001370   040000 100440                    MLR     fill='040'O
         4 001371   000000 200012 xsym               ADSC9   AS_PROJECT_ADMIN         cn=1,n=*X2
         4 001372   000000 200050 xsym               ADSC9   AS_FIELD1                cn=1,n=40
         4 001373   200021 236100                    LDQ     J,,AUTO
         4 001374   000050 116007                    CMPQ    40,DL
         4 001375   001412 605000 4                  TPL     s:14930
         4 001376   777727 623006                    EAX3    -41,QL
         4 001377   777777 663003                    ERX3    -1,DU
         4 001400   040046 100400                    MLR     fill='040'O
         4 001401   000027 000001 5                  ADSC9   23                       cn=0,n=1
         4 001402   000000 200013 xsym               ADSC9   AS_FIELD1,Q              cn=1,n=*X3
         4 001403   000047 116007                    CMPQ    39,DL
         4 001404   001412 605000 4                  TPL     s:14930
         4 001405   777730 624006                    EAX4    -40,QL
         4 001406   777777 664003                    ERX4    -1,DU
         4 001407   040046 100440                    MLR     fill='040'O
         4 001410   000002 200011 xsym               ADSC9   AS_PROJECT_ADMIN+2       cn=1,n=*X1
         4 001411   000000 400014 xsym               ADSC9   AS_FIELD1,Q              cn=2,n=*X4

      534    14928    6                       SUBSTR(AS_PROJECT_ADMIN.TEXT,0,J), ',',
      535    14929    6                       SUBSTR(AS_PROJECT_ADMIN.TEXT,8,AS_PROJECT_ADMIN.COUNT-8) );
      536    14930    6                  AS_FIELD1.COUNT = AS_PROJECT_ADMIN.COUNT - 7 + J;

  14930  4 001412   000000 236000 xsym               LDQ     AS_PROJECT_ADMIN
         4 001413   000033 772000                    QRL     27
         4 001414   200021 036100                    ADLQ    J,,AUTO
         4 001415   000007 136007                    SBLQ    7,DL
PL6.E3A0      #001=ASA$PROJECT File=ASA$PROJ.:E05TSI                             TUE 07/29/97 08:41 Page:77
         4 001416   000033 736000                    QLS     27
         4 001417   000000 552040 xsym               STBQ    AS_FIELD1,'40'O

      537    14931    6                  DELTA = AS_PROJ_ADMIN.BUDGET.MAX_PROJECTS - AS_DEFAULT.BUDGET.
             14931                           SUB_PROJS + AS_PROJECT.BUDGET.MAX_PROJECTS;

  14931  4 001420   000017 236000 xsym               LDQ     AS_DEFAULT+15
         4 001421   000022 736000                    QLS     18
         4 001422   000022 732000                    QRS     18
         4 001423   200040 756100                    STQ     PROJ_HEADER+12,,AUTO
         4 001424   000017 236000 xsym               LDQ     AS_PROJ_ADMIN+15
         4 001425   000022 736000                    QLS     18
         4 001426   000022 732000                    QRS     18
         4 001427   200040 136100                    SBLQ    PROJ_HEADER+12,,AUTO
         4 001430   200041 756100                    STQ     PROJ_HEADER+13,,AUTO
         4 001431   000017 236000 xsym               LDQ     AS_PROJECT+15
         4 001432   000022 736000                    QLS     18
         4 001433   000022 732000                    QRS     18
         4 001434   200042 756100                    STQ     PROJ_HEADER+14,,AUTO
         4 001435   200041 236100                    LDQ     PROJ_HEADER+13,,AUTO
         4 001436   200042 036100                    ADLQ    PROJ_HEADER+14,,AUTO
         4 001437   200005 756100                    STQ     DELTA,,AUTO

      538    14932                       %NUMBER( NUM2=DELTA );
             14948    6         CALL ASB$BINCHAR( AS_FIELD2.TEXT, 0, -2, DELTA );

  14948  4 001440   200005 630500                    EPPR0   DELTA,,AUTO
         4 001441   200043 450500                    STP0    PROJ_HEADER+15,,AUTO
         4 001442   000031 236000 5                  LDQ     25
         4 001443   200042 756100                    STQ     PROJ_HEADER+14,,AUTO
         4 001444   000032 237000 5                  LDAQ    26
         4 001445   200040 757100                    STAQ    PROJ_HEADER+12,,AUTO
         4 001446   200040 630500                    EPPR0   PROJ_HEADER+12,,AUTO
         4 001447   000022 631400 xsym               EPPR1   B_VECTNIL+18
         4 001450   000000 701000 xent               TSX1    ASB$BINCHAR
         4 001451   000000 011000                    NOP     0

PL6.E3A0      #001=ASA$PROJECT File=ASA$PROJ.:E05TSI                             TUE 07/29/97 08:41 Page:78
      539    14962                       %SCREAM( ERR#=E$TOO_MANY_P_PROJS,MID='A',LEVEL=ERROR);

  14974  4 001452   000041 630400 5                  EPPR0   33
         4 001453   000017 631400 xsym               EPPR1   B_VECTNIL+15
         4 001454   000000 701000 xent               TSX1    ASH$ERROR
         4 001455   000000 011000                    NOP     0

      540    14977    6                  GOTO CM_LOOP;

  14977  4 001456   000005 710000 4                  TRA     CM_LOOP

      541    14978    6                  END;
      542    14979    5               AS_DEFAULT.BUDGET.SUB_PROJS = AS_DEFAULT.BUDGET.SUB_PROJS + DELTA;

  14979  4 001457   000017 236000 xsym               LDQ     AS_DEFAULT+15
         4 001460   000022 736000                    QLS     18
         4 001461   000022 732000                    QRS     18
         4 001462   200005 036100                    ADLQ    DELTA,,AUTO
         4 001463   000000 621006                    EAX1    0,QL
         4 001464   000017 441000 xsym               SXL1    AS_DEFAULT+15

      543    14980    5               END;

      544    14981    4            AS_PROJECT.BUDGET.MAX_PROJECTS = VAL;

  14981  4 001465   200006 720100                    LXL0    VAL,,AUTO
         4 001466   000017 440000 xsym               SXL0    AS_PROJECT+15

      545    14982    4            END;          /* Do case(code); */

      546    14983    3         END;            /* Do i = 0 to SUBNODES-1; */

  14983  4 001467   200020 054100                    AOS     I,,AUTO
         4 001470   200020 236100                    LDQ     I,,AUTO
         4 001471   200014 116100                    CMPQ    SUBNODES,,AUTO
         4 001472   000051 604000 4                  TMI     s:14260

PL6.E3A0      #001=ASA$PROJECT File=ASA$PROJ.:E05TSI                             TUE 07/29/97 08:41 Page:79
      547    14984    2      END;                /* Do while(more); */

  14984  4 001473   000000 234000 2                  SZN     MORE
         4 001474   000007 604000 4                  TMI     s:14244

  14948  4 001475                       OPTION_ERR   null
      548    14985    1   OPTION_ERR: ;
      549    14986    1   CALL ASH$ERROR( P_PCB.ERROR );

  14986  4 001475   000042 630400 5                  EPPR0   34
         4 001476   000017 631400 xsym               EPPR1   B_VECTNIL+15
         4 001477   000000 701000 xent               TSX1    ASH$ERROR
         4 001500   000000 011000                    NOP     0

      550    14987    1   GOTO CM_LOOP;

  14987  4 001501   000005 710000 4                  TRA     CM_LOOP
      551    14988                                                              /**/
      552    14989
      553    14990    1   END ASA$PROJECT ;
      554    14991        %EOD;

PL6.E3A0      #001=ASA$PROJECT File=ASA$PROJ.:E05TSI                             TUE 07/29/97 08:41 Page:80
--  Include file information  --

   B_ERRORS_C.:E05TOU  is referenced.
   CP_6.:E05TOU  cannot be made into a system file and is referenced.
   AS_SUPER_R.:E05TOU  cannot be made into a system file and is referenced.
   KL_SUPER_C.:E05TOU  is referenced.
   XU_FORMAT_C.:E05TOU  is referenced.
   XU_MACRO_C.:E05TOU  is referenced.
   AS_SUPER_C.:E05TOU  is referenced.
   AS_MAC_C.:E05TOU  cannot be made into a system file and is referenced.
   AS_PERR_C.:E05TOU  is referenced.
   AS_SUBS_C.:E05TOU  is referenced.
   AS_ENTRIES_M.:E05TOU  is referenced.
   B$JIT_C.:E05TOU  was found in the system file and is never referenced.
   CP_6_C.:E05TOU  was found in the system file and is referenced.
      No diagnostics issued in procedure ASA$PROJECT.
PL6.E3A0      #001=ASA$PROJECT File=ASA$PROJ.:E05TSI                             TUE 07/29/97 08:41 Page:81

 **** Variables and constants ****

  ****  Section 002  Data  ASA$PROJECT

  ****  Scalars and arrays  ****
OctLoc.c.b A Datatyp(siz) R M Lvl/name                 OctLoc.c.b A Datatyp(siz) R M Lvl/name

     0-0-0/b BIT         r     1 MORE

  ****  Auto variables  ****

  ****  Scalars and arrays  ****
OctLoc.c.b A Datatyp(siz) R M Lvl/name                 OctLoc.c.b A Datatyp(siz) R M Lvl/name

     3-0-0/w PTR         r     1 @CR_MOD_KEY                4-0-0/w SBIN        r     1 ARS
    16-0-0/w PTR         r     1 BLK$                      11-0-0/w SBIN        r     1 CENTS
    *0-0-0/w STRC(189)   r     1 CR_MOD_KEY                 5-0-0/w SBIN        r     1 DELTA
    10-0-0/w SBIN        r     1 DOLLAR                    20-0-0/w SBIN        r     1 I
    21-0-0/w SBIN        r     1 J                         22-0-0/c STRC(63)    r     1 PACKSET
    24-0-0/w STRC(432)   r     1 PROJ_HEADER               12-0-0/w SBIN        r     1 SIGN
    17-0-0/w PTR         r     1 STR$                      15-0-0/w PTR         r     1 SUBND$
    14-0-0/w SBIN        r     1 SUBNODES                   7-0-0/w UBIN        r     1 UBIN_VAL
     6-0-0/w SBIN        r     1 VAL

  ****  SYMREF variables  ****

  ****  Scalars and arrays  ****
OctLoc.c.b A Datatyp(siz) R M Lvl/name                 OctLoc.c.b A Datatyp(siz) R M Lvl/name

     0-0-0/c CHAR        r     1 AS_BLANK                   0-0-0/w SBIN        r     1 AS_CR_MOD_PROJ
     0-0-0/w STRC(18576) r     1 AS_DEFAULT                 0-0-0/w STRC(6084)  r     1 AS_DEFAULT_DREC
     0-0-0/w STRC(18576) r     1 AS_DFLT                    0-0-0/w STRC(369)   r     1 AS_FIELD1
     0-0-0/w STRC(369)   r     1 AS_FIELD2                  0-0-0/c STRC(189)   r     1 AS_NONE
     0-0-0/w STRC(18576) r     1 AS_PROJECT                 0-0-0/c STRC(189)   r     1 AS_PROJECT_ADMIN
     0-0-0/w STRC(18576) r     1 AS_PROJECT_DFLT            0-0-0/w STRC(6084)  r     1 AS_PROJECT_DFLT_DREC
     0-0-0/w STRC(6084)  r     1 AS_PROJECT_DREC            0-0-0/w STRC(18576) r     1 AS_PROJ_ADMIN
     0-0-0/w STRC(6084)  r     1 AS_PROJ_ADMIN_DREC         0-0-0/b BIT         r     1 AS_TRUE
PL6.E3A0      #001=ASA$PROJECT File=ASA$PROJ.:E05TSI                             TUE 07/29/97 08:41 Page:82
     0-0-0/w STRC(18576) r     1 AS_USERS                   0-0-0/w UBIN        r     1 CODE
     0-0-0/b BIT         r     1 CR_MOD_FLG                 0-0-0/w SBIN        r     1 CR_MOD_PROJ_OPTS
     0-0-0/b STRC        r     1 ERR_CODE                   0-0-0/c CHAR(255)   r     1 IN_BUF
     0-0-0/w STRC(6084)  r     1 KL_DFLT                    0-0-0/w STRC(6084)  r     1 KL_DREC
     0-0-0/w PTR         r     1 NODE$                      0-0-0/c STRC(243)   r     1 PROJ_KEY
     0-0-0/w STRC(504)   r     1 P_PCB                      0-0-0/d REMB        r     1 REMEM_VAR
     0-0-0/b BIT         r     1 SUPERAUTH                  0-0-0/c STRC(378)   r     1 USERS_KEY

  ****  BASED and DCB variables  ****

  ****  Scalars and arrays  ****
OctLoc.c.b A Datatyp(siz) R M Lvl/name                 OctLoc.c.b A Datatyp(siz) R M Lvl/name

     0-0-0/w ASTR(153)   r     1 OUT$SYM                    0-0-0/w STRC(144)   r     1 P$NODE
     0-0-0/w ASTR(9)     r     1 VARY$STR


   Procedure ASA$PROJECT requires 834 words for executable code.
   Procedure ASA$PROJECT requires 36 words of local(AUTO) storage.
PL6.E3A0      #001=ASA$PROJECT File=ASA$PROJ.:E05TSI                             TUE 07/29/97 08:41 Page:83
          *** CROSS REFERENCE LISTING ***
**     DENOTES     IDENTIFIER DEFINITION
<<                 IDENTIFIER'S VALUE SET
>>                 IDENTIFIER'S VALUE USED
<>                 IDENTIFIER SET AND/OR USED
--                 IDENTIFIER REFERENCED
PL6.E3A0      #001=ASA$PROJECT File=ASA$PROJ.:E05TSI                             TUE 07/29/97 08:41 Page:84
          MINI XREF LISTING

ARS
     14185**DCL     14249<>CALL    14250>>ASSIGN
ASA$ERROR
     14176**DCL-ENT 14637--CALL
ASA$KEYCONV
     14158**DCL-ENT 14793--CALL    14825--CALL    14850--CALL
ASA$PACKSET_OPTS
     14164**DCL-ENT 14776--CALL
ASA_BRKS_LOC
      9953**DCL      9953--REDEF
ASB$BINCHAR
      3182**DCL-ENT 14664--CALL    14735--CALL    14877--CALL    14948--CALL
ASB$DELREC_PROJ
     14155**DCL-ENT 14854--CALL
ASB$ENQ_USERS
     14167**DCL-ENT 14630--CALL
ASB$PREC_PROJ
     14152**DCL-ENT 14787--CALL
ASB$READ_PROJ
     14149**DCL-ENT 14273--CALL    14279--CALL    14813--CALL
ASB$READ_SI
     14122**DCL-ENT 14249--CALL
ASB$READ_USERS
     14170**DCL-ENT 14631--CALL
ASB$SET_PROMPT
     14125**DCL-ENT 14247--CALL
ASB$WRITE_USERS
     14173**DCL-ENT 14633--CALL
ASC$CM_OPTS
     14131**DCL-ENT 14351--CALL    14365--CALL
ASH$DQUEST
     14137**DCL-ENT 14336--CALL
PL6.E3A0      #001=ASA$PROJECT File=ASA$PROJ.:E05TSI                             TUE 07/29/97 08:41 Page:85
ASH$ERROR
     14143**DCL-ENT 14304--CALL    14327--CALL    14426--CALL    14447--CALL    14471--CALL    14501--CALL
     14551--CALL    14597--CALL    14618--CALL    14641--CALL    14698--CALL    14761--CALL    14806--CALL
     14815--CALL    14838--CALL    14911--CALL    14974--CALL    14986--CALL
ASH$HELP
     14134**DCL-ENT 14333--CALL
ASH$QUEST
     14140**DCL-ENT 14339--CALL
AS_BLANK
      9813**DCL     14270>>CALLBLT 14276>>CALLBLT 14713>>CALLBLT 14926>>CALLBLT
AS_CR_MOD_PROJ
      9961**DCL     14344>>IF      14346<<ASSIGN  14350<<ASSIGN  14358>>IF      14360<<ASSIGN  14364<<ASSIGN
     14702>>IF      14915>>IF
AS_DEFAULT
     10531**DCL     14361>>ASSIGN
AS_DEFAULT.BANNER_PERM
     10646**DCL     10647--REDEF
AS_DEFAULT.BUDGET.MACCT
     10551**DCL     10555--REDEF
AS_DEFAULT.BUDGET.MAX_PROJECTS
     10564**DCL     10567--REDEF
AS_DEFAULT.BUDGET.PACCUM
     10547**DCL     10549--REDEF
AS_DEFAULT.BUDGET.PMAXC
     10542**DCL     10544--REDEF
AS_DEFAULT.BUDGET.PROJ_ALLOWED
     10544**DCL     14707>>IF      14718>>ASSIGN
AS_DEFAULT.BUDGET.PROJ_CREATED
     10549**DCL     14707>>IF      14718>>ASSIGN  14766<<ASSIGN  14766>>ASSIGN
AS_DEFAULT.BUDGET.SUB_PROJS
     10567**DCL     14920>>IF      14931>>ASSIGN  14979<<ASSIGN  14979>>ASSIGN
AS_DEFAULT.SETUP_CHRA.TXT
     10662**DCL     10663--REDEF   10664--REDEF
AS_DEFAULT_DREC
     11858**DCL     14362>>ASSIGN
AS_DEFAULT_DREC.PASSWORD
PL6.E3A0      #001=ASA$PROJECT File=ASA$PROJ.:E05TSI                             TUE 07/29/97 08:41 Page:86
     11916**DCL     11920--REDEF
AS_DEFAULT_DREC.RENAME
     11939**DCL     11940--REDEF
AS_DFLT
     10353**DCL     14347<<ASSIGN  14361<<ASSIGN
AS_DFLT.BANNER_PERM
     10468**DCL     10469--REDEF
AS_DFLT.BUDGET.MACCT
     10373**DCL     10377--REDEF
AS_DFLT.BUDGET.MAX_PROJECTS
     10386**DCL     10389--REDEF
AS_DFLT.BUDGET.PACCUM
     10369**DCL     10371--REDEF
AS_DFLT.BUDGET.PMAXC
     10364**DCL     10366--REDEF
AS_DFLT.SETUP_CHRA.TXT
     10484**DCL     10485--REDEF   10486--REDEF
AS_FE_MODE
      9819**DCL      9820--REDEF
AS_FIELD1
      9949**DCL     14792<<ASSIGN  14824<<ASSIGN  14849<<ASSIGN
AS_FIELD1.COUNT
      9950**DCL     14282<<ASSIGN  14717<<ASSIGN  14930<<ASSIGN
AS_FIELD1.TEXT
      9950**DCL     14283<<ASSIGN  14664<>CALL    14714<<CALLBLT 14877<>CALL    14927<<CALLBLT
AS_FIELD2
      9950**DCL     14793<>CALL    14825<>CALL    14850<>CALL
AS_FIELD2.TEXT
      9950**DCL     14735<>CALL    14948<>CALL
AS_MODE
      9816**DCL      9818--REDEF
AS_MOD_USER.ACCESS
     12681**DCL     12682--REDEF
AS_MOD_USER.BANNER
     12668**DCL     12669--REDEF
AS_MOD_USER.BANNER_PERM
PL6.E3A0      #001=ASA$PROJECT File=ASA$PROJ.:E05TSI                             TUE 07/29/97 08:41 Page:87
     12670**DCL     12671--REDEF
AS_MOD_USER.BILL
     12676**DCL     12677--REDEF
AS_MOD_USER.CPROC
     12672**DCL     12673--REDEF
AS_MOD_USER.FEBILL
     12752**DCL     12753--REDEF
AS_MOD_USER.FECXTMEM
     12769**DCL     12770--REDEF
AS_MOD_USER.FEMINTS
     12754**DCL     12755--REDEF
AS_MOD_USER.FEMMEM
     12765**DCL     12766--REDEF
AS_MOD_USER.FEMTIME
     12763**DCL     12764--REDEF
AS_MOD_USER.FEPPRIV
     12760**DCL     12762--REDEF
AS_MOD_USER.FEPRIV
     12757**DCL     12759--REDEF
AS_MOD_USER.FORCE_BIT
     12666**DCL     12667--REDEF
AS_MOD_USER.KEY
     12748**DCL     12750--REDEF
AS_MOD_USER.LASTCPROC
     12674**DCL     12675--REDEF
AS_MOD_USER.LIMITS.DO_
     12722**DCL     12723--REDEF
AS_MOD_USER.LIMITS.FPOOLS
     12738**DCL     12739--REDEF
AS_MOD_USER.LIMITS.LO
     12718**DCL     12719--REDEF
AS_MOD_USER.LIMITS.MEM
     12714**DCL     12715--REDEF
AS_MOD_USER.LIMITS.MPRIO
     12742**DCL     12743--REDEF
AS_MOD_USER.LIMITS.PDIS
PL6.E3A0      #001=ASA$PROJECT File=ASA$PROJ.:E05TSI                             TUE 07/29/97 08:41 Page:88
     12730**DCL     12731--REDEF
AS_MOD_USER.LIMITS.PO
     12726**DCL     12727--REDEF
AS_MOD_USER.LIMITS.TDIS
     12734**DCL     12735--REDEF
AS_MOD_USER.LIMITS.TIME
     12710**DCL     12711--REDEF
AS_MOD_USER.MAXENQ
     12691**DCL     12692--REDEF
AS_MOD_USER.PERM_BIT
     12664**DCL     12665--REDEF
AS_MOD_USER.PPRIV
     12686**DCL     12688--REDEF
AS_MOD_USER.PRIOB
     12693**DCL     12694--REDEF
AS_MOD_USER.PRIV
     12683**DCL     12685--REDEF
AS_MOD_USER.QUAN
     12689**DCL     12690--REDEF
AS_MOD_USER.SETUP
     12662**DCL     12663--REDEF
AS_NONE
      9814**DCL     14628>>DOWHILE
AS_PROJECT
     10887**DCL     14342>>ASSIGN  14352<<ASSIGN  14627>>ASSIGN
AS_PROJECT.BANNER_PERM
     11002**DCL     11003--REDEF
AS_PROJECT.BUDGET.MACCT
     10907**DCL     10911--REDEF
AS_PROJECT.BUDGET.MAX_PROJECTS
     10920**DCL     10923--REDEF   14916>>IF      14917>>ASSIGN  14931>>ASSIGN  14981<<ASSIGN
AS_PROJECT.BUDGET.PACCUM
     10903**DCL     10905--REDEF   14625>>ASSIGN  14626<<ASSIGN
AS_PROJECT.BUDGET.PMAXC
     10898**DCL     10900--REDEF   14381<<ASSIGN  14453>>IF      14477<<ASSIGN  14478>>IF      14479<<ASSIGN
     14481>>ASSIGN  14483<<ASSIGN
PL6.E3A0      #001=ASA$PROJECT File=ASA$PROJ.:E05TSI                             TUE 07/29/97 08:41 Page:89
AS_PROJECT.HPSN
     10952**DCL     14269>>ASSIGN  14270>>CALLBLT 14274>>IF      14284>>IF
AS_PROJECT.SETUP_CHRA.TXT
     11018**DCL     11019--REDEF   11020--REDEF
AS_PROJECT_ADMIN.COUNT
      9957**DCL     14714>>CALLBLT 14717>>ASSIGN  14927>>CALLBLT 14930>>ASSIGN
AS_PROJECT_ADMIN.TEXT
      9957**DCL     14713>>CALLBLT 14714>>CALLBLT 14714>>CALLBLT 14926>>CALLBLT 14927>>CALLBLT 14927>>CALLBLT
AS_PROJECT_DFLT
     11065**DCL     14356>>ASSIGN  14366<<ASSIGN
AS_PROJECT_DFLT.BANNER_PERM
     11180**DCL     11181--REDEF
AS_PROJECT_DFLT.BUDGET.MACCT
     11085**DCL     11089--REDEF
AS_PROJECT_DFLT.BUDGET.MAX_PROJECTS
     11098**DCL     11101--REDEF
AS_PROJECT_DFLT.BUDGET.PACCUM
     11081**DCL     11083--REDEF
AS_PROJECT_DFLT.BUDGET.PMAXC
     11076**DCL     11078--REDEF   14703>>IF
AS_PROJECT_DFLT.BUDGET.PROJ_ALLOWED
     11078**DCL     14704>>ASSIGN  14718>>ASSIGN  14768<<ASSIGN
AS_PROJECT_DFLT.BUDGET.PROJ_CREATED
     11083**DCL     14646>>IF      14655>>ASSIGN
AS_PROJECT_DFLT.BUDGET.SUB_PROJS
     11101**DCL     14858>>IF      14868>>ASSIGN
AS_PROJECT_DFLT.HPSN
     11130**DCL     14274>>IF      14275>>ASSIGN  14276>>CALLBLT
AS_PROJECT_DFLT.SETUP_CHRA.TXT
     11196**DCL     11197--REDEF   11198--REDEF
AS_PROJECT_DFLT_DREC
     12344**DCL     14357>>ASSIGN  14367<<ASSIGN
AS_PROJECT_DFLT_DREC.PASSWORD
     12402**DCL     12406--REDEF
AS_PROJECT_DFLT_DREC.RENAME
     12425**DCL     12426--REDEF
PL6.E3A0      #001=ASA$PROJECT File=ASA$PROJ.:E05TSI                             TUE 07/29/97 08:41 Page:90
AS_PROJECT_DREC
     12182**DCL     14343>>ASSIGN  14353<<ASSIGN
AS_PROJECT_DREC.PASSWORD
     12240**DCL     12244--REDEF
AS_PROJECT_DREC.RENAME
     12263**DCL     12264--REDEF
AS_PROJ_ADMIN
     10709**DCL     14347>>ASSIGN
AS_PROJ_ADMIN.BANNER_PERM
     10824**DCL     10825--REDEF
AS_PROJ_ADMIN.BUDGET.MACCT
     10729**DCL     10733--REDEF
AS_PROJ_ADMIN.BUDGET.MAX_PROJECTS
     10742**DCL     10745--REDEF   14920>>IF      14931>>ASSIGN
AS_PROJ_ADMIN.BUDGET.PACCUM
     10725**DCL     10727--REDEF
AS_PROJ_ADMIN.BUDGET.PMAXC
     10720**DCL     10722--REDEF
AS_PROJ_ADMIN.SETUP_CHRA.TXT
     10840**DCL     10841--REDEF   10842--REDEF
AS_PROJ_ADMIN_DREC
     12020**DCL     14348>>ASSIGN
AS_PROJ_ADMIN_DREC.PASSWORD
     12078**DCL     12082--REDEF
AS_PROJ_ADMIN_DREC.RENAME
     12101**DCL     12102--REDEF
AS_TRUE
      9813**DCL     14240>>ASSIGN
AS_USERS
     10175**DCL     14342<<ASSIGN  14352>>ASSIGN  14356<<ASSIGN  14366>>ASSIGN  14627<<ASSIGN  14631<>CALL
     14633<>CALL
AS_USERS.BANNER_PERM
     10290**DCL     10291--REDEF
AS_USERS.BUDGET.MACCT
     10195**DCL     10199--REDEF   14628>>DOWHILE 14629>>ASSIGN
AS_USERS.BUDGET.MAX_PROJECTS
PL6.E3A0      #001=ASA$PROJECT File=ASA$PROJ.:E05TSI                             TUE 07/29/97 08:41 Page:91
     10208**DCL     10211--REDEF
AS_USERS.BUDGET.PACCUM
     10191**DCL     10193--REDEF   14632<<ASSIGN  14632>>ASSIGN
AS_USERS.BUDGET.PCHARGES
     10204**DCL     14628>>DOWHILE
AS_USERS.BUDGET.PMAXC
     10186**DCL     10188--REDEF
AS_USERS.SETUP_CHRA.TXT
     10306**DCL     10307--REDEF   10308--REDEF
AS_USERS_CONSTANT.BANNER_PERM
     11358**DCL     11359--REDEF
AS_USERS_CONSTANT.BUDGET.MACCT
     11263**DCL     11267--REDEF
AS_USERS_CONSTANT.BUDGET.MAX_PROJECTS
     11276**DCL     11279--REDEF
AS_USERS_CONSTANT.BUDGET.PACCUM
     11259**DCL     11261--REDEF
AS_USERS_CONSTANT.BUDGET.PMAXC
     11254**DCL     11256--REDEF
AS_USERS_CONSTANT.SETUP_CHRA.TXT
     11374**DCL     11375--REDEF   11376--REDEF
BLK$
     14195**DCL     14080--IMP-PTR 14386<<ASSIGN  14389<<ASSIGN  14394>>CALLBLT 14394>>CALLBLT 14395>>IF
     14398>>IF      14400>>CALLBLT 14400>>CALLBLT 14404>>CALLBLT 14404>>CALLBLT 14558<<ASSIGN  14564<<ASSIGN
     14566>>CALLBLT 14566>>CALLBLT 14567>>IF      14570>>IF      14572>>CALLBLT 14572>>CALLBLT 14576>>CALLBLT
     14576>>CALLBLT 14772<<ASSIGN  14773>>ASSIGN  14773>>ASSIGN  14774>>ASSIGN  14781<<ASSIGN  14782>>ASSIGN
     14782>>ASSIGN  14783>>ASSIGN
CENTS
     14190**DCL     14396<<ASSIGN  14400<<CALLBLT 14401<<ASSIGN  14401>>ASSIGN  14404<<CALLBLT 14406>>ASSIGN
     14568<<ASSIGN  14572<<CALLBLT 14573<<ASSIGN  14573>>ASSIGN  14576<<CALLBLT 14578>>ASSIGN
CM_LOOP
     14240**LABEL   14244--REMEMBR 14451--GOTO    14474--GOTO    14554--GOTO    14622--GOTO    14764--GOTO
     14777--GOTO    14809--GOTO    14816--GOTO    14841--GOTO    14851--GOTO    14977--GOTO    14987--GOTO
CODE
      9946**DCL     14256<<ASSIGN  14261<<ASSIGN  14263>>DOSELCT
CR_MOD_FLG
PL6.E3A0      #001=ASA$PROJECT File=ASA$PROJ.:E05TSI                             TUE 07/29/97 08:41 Page:92
      9962**DCL     14646>>IF      14858>>IF
CR_MOD_KEY
        29**DCL        21--PROC    14266>>ASSIGN  14351<>CALL    14365<>CALL    14776<>CALL    14793<>CALL
     14825<>CALL    14850<>CALL
CR_MOD_KEY.TEXT
        31**DCL     14267>>IF      14268>>ASSIGN  14786>>CALLBLT
CR_MOD_PROJ_OPTS
      9805**DCL     14245--ASSIGN
DELTA
     14186**DCL     14625<<ASSIGN  14632>>ASSIGN  14704<<ASSIGN  14706<<ASSIGN  14707>>IF      14718<<ASSIGN
     14735<>CALL    14766>>ASSIGN  14917<<ASSIGN  14919<<ASSIGN  14920>>IF      14931<<ASSIGN  14948<>CALL
     14979>>ASSIGN
DOLLAR
     14189**DCL     14394<<CALLBLT 14406>>ASSIGN  14566<<CALLBLT 14578>>ASSIGN
ENQ_ERR
     14641**LABEL   14630--CALLALT
ERR_CODE
      9948**DCL      9949--REDEF   14641<>CALL    14815<>CALL
I
     14197**DCL     14259<<DOINDEX 14260>>ASSIGN  14812<<ASSIGN  14813<>CALL
IN_BUF
      9944**DCL     14249<>CALL
J
     14198**DCL     14270<<CALLBLT 14271>>ASSIGN  14272<<ASSIGN  14273<>CALL    14276<<CALLBLT 14277>>ASSIGN
     14278<<ASSIGN  14279<>CALL    14713<<CALLBLT 14714>>CALLBLT 14717>>ASSIGN  14926<<CALLBLT 14927>>CALLBLT
     14930>>ASSIGN
KL_DEFAULT.PASSWORD
     12564**DCL     12568--REDEF
KL_DEFAULT.RENAME
     12587**DCL     12588--REDEF
KL_DFLT
     11696**DCL     14348<<ASSIGN  14362<<ASSIGN
KL_DFLT.PASSWORD
     11754**DCL     11758--REDEF
KL_DFLT.RENAME
     11777**DCL     11778--REDEF
PL6.E3A0      #001=ASA$PROJECT File=ASA$PROJ.:E05TSI                             TUE 07/29/97 08:41 Page:93
KL_DREC
     11534**DCL     14343<<ASSIGN  14353>>ASSIGN  14357<<ASSIGN  14367>>ASSIGN
KL_DREC.PASSWORD
     11592**DCL     11596--REDEF
KL_DREC.RENAME
     11615**DCL     11616--REDEF
KL_DREC_CNT.PASSWORD
     11479**DCL     11483--REDEF
KL_DREC_CNT.RENAME
     11502**DCL     11503--REDEF
MORE
     14019**DCL     14240<<ASSIGN  14243>>DOWHILE
NODE$
      9946**DCL     14033--IMP-PTR 14253<<ASSIGN  14256>>ASSIGN  14257>>ASSIGN  14260>>ASSIGN
OPTION_ERR
     14948**LABEL   14251--CALLALT
OUT$SYM.COUNT
     14103**DCL     14106--IMP-SIZ 14394>>CALLBLT 14398>>IF      14400>>CALLBLT 14404>>CALLBLT 14566>>CALLBLT
     14570>>IF      14572>>CALLBLT 14576>>CALLBLT 14645>>CALLBLT 14773>>ASSIGN  14774>>ASSIGN  14782>>ASSIGN
     14783>>ASSIGN  14857>>CALLBLT
OUT$SYM.TEXT
     14106**DCL     14394>>CALLBLT 14400>>CALLBLT 14404>>CALLBLT 14566>>CALLBLT 14572>>CALLBLT 14576>>CALLBLT
     14645>>CALLBLT 14773>>ASSIGN  14782>>ASSIGN  14857>>CALLBLT
P$NODE.CODE
     14041**DCL     14256>>ASSIGN  14261>>ASSIGN  14379>>IF      14390>>IF      14561>>IF
P$NODE.SUBLK$
     14066**DCL     14260>>ASSIGN  14379>>IF      14386>>ASSIGN  14389>>ASSIGN  14390>>IF      14390>>IF
     14394>>CALLBLT 14394>>CALLBLT 14398>>IF      14400>>CALLBLT 14400>>CALLBLT 14404>>CALLBLT 14404>>CALLBLT
     14558>>ASSIGN  14561>>IF      14561>>IF      14564>>ASSIGN  14566>>CALLBLT 14566>>CALLBLT 14570>>IF
     14572>>CALLBLT 14572>>CALLBLT 14576>>CALLBLT 14576>>CALLBLT 14645>>CALLBLT 14645>>CALLBLT 14772>>ASSIGN
     14781>>ASSIGN  14857>>CALLBLT 14857>>CALLBLT
P$NODE.SUBNODES
     14045**DCL     14257>>ASSIGN  14384>>IF      14395>>IF      14556>>IF      14567>>IF
PACKSET
     14199**DCL     14776<>CALL    14792>>ASSIGN  14824>>ASSIGN  14849>>ASSIGN
PACKSET.CNT
PL6.E3A0      #001=ASA$PROJECT File=ASA$PROJ.:E05TSI                             TUE 07/29/97 08:41 Page:94
     14200**DCL     14774<<ASSIGN  14783<<ASSIGN  14785>>ASSIGN
PACKSET.TXT
     14201**DCL     14773<<ASSIGN  14782<<ASSIGN  14786>>CALLBLT
PACK_NO_EXIST
     14792**LABEL   14787--CALLALT
PROJ_HEADER
     14212**DCL     14272--ASSIGN  14273--CALL    14278--ASSIGN  14279--CALL    14812--ASSIGN  14813--CALL
PROJ_HEADER.NUM_ACCTS
     14229**DCL     14818>>IF
PROJ_HEADER.SUB_PROJ_ACCTS
     14219**DCL     14843>>IF
PROJ_KEY.COUNT
      9826**DCL     14271<<ASSIGN  14277<<ASSIGN  14282>>ASSIGN  14785<<ASSIGN
PROJ_KEY.TEXT
      9826**DCL      9826--REDEF   14786<<CALLBLT
PROJ_KEY.TXT.PACKSET
      9827**DCL     14269<<ASSIGN  14275<<ASSIGN  14283>>ASSIGN  14284>>IF
PROJ_KEY.TXT.PROJECT
      9826**DCL      9826--REDEF   14268<<ASSIGN
PROJ_READ_ERR
     14815**LABEL   14813--CALLALT
P_PCB
      9981**DCL     14251<>CALL
P_PCB.ERROR
     10085**DCL     14986<>CALL
P_PCB.NCHARS
     10128**DCL     14250<<ASSIGN
P_PCB.OUT$
      9994**DCL     14253>>ASSIGN
P_PCB.ROOT$
      9986**DCL     14245<<ASSIGN
READ_ERR
     14637**LABEL   14631--CALLALT
READ_PROJ_ERR
     14282**LABEL   14273--CALLALT 14279--CALLALT
REMEM_VAR
PL6.E3A0      #001=ASA$PROJECT File=ASA$PROJ.:E05TSI                             TUE 07/29/97 08:41 Page:95
      9952**DCL      9952--REDEF   14244<<REMEMBR
REM_FCMD
      9952**DCL      9953--REDEF
SIGN
     14191**DCL     14385<<ASSIGN  14391<<ASSIGN  14392<<ASSIGN  14407>>IF      14409>>IF      14453>>IF
     14476>>IF      14478>>IF      14481>>ASSIGN  14557<<ASSIGN  14562<<ASSIGN  14563<<ASSIGN  14580>>IF
     14624>>ASSIGN
STR$
     14196**DCL     14111--IMP-PTR
SUBND$
     14194**DCL     14260<<ASSIGN  14261>>ASSIGN  14379>>IF      14384>>IF      14386>>ASSIGN  14389>>ASSIGN
     14390>>IF      14556>>IF      14558>>ASSIGN  14561>>IF      14564>>ASSIGN  14645>>CALLBLT 14645>>CALLBLT
     14772>>ASSIGN  14781>>ASSIGN  14857>>CALLBLT 14857>>CALLBLT
SUBNODES
     14193**DCL     14257<<ASSIGN  14259>>DOINDEX
SUPERAUTH
      9947**DCL     14535>>IF
UBIN_VAL
     14188**DCL     14406<<ASSIGN  14408>>IF      14477>>ASSIGN  14479>>ASSIGN  14481>>ASSIGN  14578<<ASSIGN
     14579>>IF      14624>>ASSIGN
USERS_KEY
      9823**DCL     14266<<ASSIGN  14629<<ASSIGN  14637<>CALL
USERS_KEY.TEXT
      9823**DCL      9824--REDEF    9824--REDEF    9824--REDEF    9825--REDEF
VAL
     14187**DCL     14481<<ASSIGN  14482>>IF      14483>>ASSIGN  14624<<ASSIGN  14625>>ASSIGN  14626>>ASSIGN
     14645<<CALLBLT 14646>>IF      14655<<ASSIGN  14664<>CALL    14704>>ASSIGN  14706>>ASSIGN  14768>>ASSIGN
     14857<<CALLBLT 14858>>IF      14868<<ASSIGN  14877<>CALL    14917>>ASSIGN  14919>>ASSIGN  14981>>ASSIGN
VARY$STR.CNT
     14112**DCL     14113--IMP-SIZ
X$PARSE
     14120**DCL-ENT 14251--CALL

