PL6.E3A0      #002=ASA$ERROR File=ASA$SUPER.:E05TSI                              TUE 07/29/97 08:52 Page:473
     2669        1        /*M* ASA$ERROR - special purpose error reporting rountine.      */
     2670        2        /*T***********************************************************/
     2671        3        /*T*                                                         */
     2672        4        /*T* Copyright (c) Bull HN Information Systems Inc., 1997    */
     2673        5        /*T*                                                         */
     2674        6        /*T***********************************************************/
     2675        7        ASA$ERROR: PROC ( KEY, ERRCODE, PROJ_FLAG );
     2676        8                                                                   /**/
     2677        9        /********************************************************************/
     2678       10        /*    Parameters      parameters      parameters      parameters    */
     2679       11        /********************************************************************/
     2680       12
     2681       13    1   DCL 1 KEY ALIGNED ,
     2682       14    1          2 CNT UBIN(9) UNAL ,
     2683       15    1          2 TEXT CHAR(20) UNAL ;
     2684       16    1   DCL ERRCODE   UBIN;
     2685       17    1   DCL PROJ_FLAG BIT(1) ALIGNED;
     2686       18                                                                 /**/
     2687       19        /********************************************************************/
     2688       20        /*    Include files   include files   include files   include files */
     2689       21        /********************************************************************/
     2690       22
     2691       23        %INCLUDE           AS_ENTRIES_M ;
     2692     1073        %INCLUDE           AS_MAC_C     ;
     2693     1153        %INCLUDE           AS_SUPER_C   ;
     2694     1588        %INCLUDE           XU_MACRO_C   ;
     2695     4694        %INCLUDE           XU_FORMAT_C  ;
     2696     4856        %INCLUDE           KL_SUPER_C   ;
     2697     7758        %INCLUDE           AS_SUBS_C    ;
     2698     9172        %INCLUDE           AS_PERR_C    ;
     2699     9774        %INCLUDE           B_ERRORS_C   ;
     2700    10901        %INCLUDE           AS_SUPER_R   ;
     2701    13917
     2702    13918        /*******************************************************************/
     2703    13919        /*    Constant data   constant data   constant data   constant data*/
     2704    13920        /*******************************************************************/
     2705    13921
PL6.E3A0      #002=ASA$ERROR File=ASA$SUPER.:E05TSI                              TUE 07/29/97 08:52 Page:474
     2706    13922    1   DCL ERRORS(0:9) CHAR(1) CONSTANT INIT( BINASC(E$ALREADY_EXISTS),
     2707    13923    1             BINASC(E$DOESNT_EXIST), BINASC(E$WRONG_TYPE),
     2708    13924    1             BINASC(E$FROM_HLP_NO_EXIST), BINASC(E$UNABLE_TO_READ_USERS),
     2709    13925    1             BINASC(E$UNABLE_TO_READ_HLP), BINASC(E$NOT_IN_PROJ),
     2710    13926    1             BINASC(E$EXISTS_AND_NOT), BINASC(E$NOT_BELOW),
     2711    13927    1             BINASC(E$CANT_UNTIE) ) ;
     2712    13928    1   DCL ERROR_CODES REDEF ERRORS CHAR(10) ;
     2713    13929
     2714    13930    1   DCL 1 PROJECT_TEXTC ALIGNED CONSTANT,
     2715    13931    1          2 * UBIN BYTE UNAL INIT( LENGTHC('project') ),
     2716    13932    1          2 * CHAR(0) INIT('project');
     2717    13933    1   DCL 1 USER_TEXTC ALIGNED CONSTANT,
     2718    13934    1          2 * UBIN BYTE UNAL INIT( LENGTHC('user') ),
     2719    13935    1          2 * CHAR(0) INIT('user');
     2720    13936
     2721    13937        /********************************************************************/
     2722    13938        /*    Auto data   auto data   auto data   auto data   auto data     */
     2723    13939        /********************************************************************/
     2724    13940
     2725    13941    1   DCL J SBIN ;
     2726    13942    1   DCL I SBIN;
     2727    13943    1   DCL TYPE UBIN;
     2728    13944    1   DCL T_ERR_CODE BIT(36);
     2729    13945    1   DCL T_DCBNUM#  UBIN;
     2730    13946                                                                   /**/
     2731    13947        /********************************************************************/
     2732    13948        /*    Entry dcls  entry dcls  entry dcls  entry dcls  entry dcls    */
     2733    13949        /********************************************************************/
     2734    13950
     2735    13951        %ASH$ERROR ;
     2736    13954        %ASH$WARN ;
     2737    13957        %ASA$KEYCONV ;
     2738    13960
     2739    13961        /********************************************************************/
     2740    13962        /*    Procedure   procedure   procedure   procedure   procedure     */
     2741    13963        /********************************************************************/
     2742    13964
PL6.E3A0      #002=ASA$ERROR File=ASA$SUPER.:E05TSI                              TUE 07/29/97 08:52 Page:475
     2743    13965
     2744    13966
     2745    13967    1   CALL INDEX( TYPE, BINASC(ERRCODE), ERROR_CODES ) ;
     2746    13968    2   DO SELECT( TYPE );
     2747    13969    2      SELECT( 1 );
     2748    13970    3      IF MERR_CODE.CODE ~= %E$NOKEY THEN DO;
     2749    13971    3         TYPE = 4;
     2750    13972    3         GOTO SAVE_ERR_CODE;
     2751    13973    3         END;
     2752    13974    2      SELECT( 3 );
     2753    13975    3      IF MERR_CODE.CODE ~= %E$NOKEY THEN DO;
     2754    13976    3         TYPE = 5;
     2755    13977    3         GOTO SAVE_ERR_CODE;
     2756    13978    3         END;
     2757    13979    2      SELECT( 4, 5 );
     2758    13980    2   SAVE_ERR_CODE:
     2759    13981    2      T_ERR_CODE = MERR_CODE;
     2760    13982    2      T_DCBNUM#  = AS_DCBNUM#;
     2761    13983    2      SELECT( 6, 8, 9 );
     2762    13984    2      CALL ASA$KEYCONV( AS_PROJECT_ADMIN, AS_FIELD3 );
     2763    13985    2      END;
     2764    13986
     2765    13987    1   CALL ASA$KEYCONV( KEY, AS_FIELD1 );
     2766    13988    1   IF ADDR(PROJ_FLAG) ~= ADDR(NIL) THEN
     2767    13989    1      IF PROJ_FLAG
     2768    13990    1      THEN AS_FIELD2 = PROJECT_TEXTC;
     2769    13991    1      ELSE AS_FIELD2 = USER_TEXTC;
     2770    13992                                                              /**/
     2771    13993    2   DO SELECT( TYPE );
     2772    13994    2      SELECT( 0 );
     2773    13995        /*E*  ERROR:    ASA-E$ALREADY_EXISTS-C
     2774    13996              MESSAGE:  The %U2 "%U1" already exists.
     2775    13997        */
     2776    13998                                                              /**/
     2777    13999           %SCREAM( ERR#=E$ALREADY_EXISTS, LEVEL=ERROR, MID='A' );
     2778    14014
     2779    14015    2      SELECT( 1 );
PL6.E3A0      #002=ASA$ERROR File=ASA$SUPER.:E05TSI                              TUE 07/29/97 08:52 Page:476
     2780    14016                                                              /**/
     2781    14017        /*E*  ERROR:    ASA-E$DOESNT_EXIST-C
     2782    14018              MESSAGE:  The %U2 "%U1" does not exist.
     2783    14019        */
     2784    14020           %SCREAM( ERR#=E$DOESNT_EXIST, LEVEL=WARN, MID='A' );
     2785    14035
     2786    14036    2      SELECT( 2 );
     2787    14037        /*E* ERROR:   ASA-E$WRONG_TYPE-C
     2788    14038             MESSAGE: "%U1" is a %U3, not a %U2.
     2789    14039        */
     2790    14040    2      IF PROJ_FLAG
     2791    14041    2      THEN AS_FIELD3 = USER_TEXTC ;
     2792    14042    2      ELSE AS_FIELD3 = PROJECT_TEXTC ;
     2793    14043           %SCREAM( ERR#=E$WRONG_TYPE, LEVEL=ERROR, MID='A' );
     2794    14058
     2795    14059    2      SELECT( 3 );
     2796    14060        /*E*  ERROR:    ASA-E$FROM_HLP_NO_EXIST-C
     2797    14061              MESSAGE:  Record "%U1" does not exist in :HLP.
     2798    14062                        Creating a record from default.
     2799    14063        */
     2800    14064           %SCREAM( ERR#=E$FROM_HLP_NO_EXIST, LEVEL=ERROR, MID='A' );
     2801    14079
     2802    14080
     2803    14081    2      SELECT( 4 );
     2804    14082        /*E*  ERROR:    ASA-E$UNABLE_TO_READ_USERS-C
     2805    14083              MESSAGE: Unable to read the record "%U1" from the :USERS file.
     2806    14084        */
     2807    14085           %SCREAM( ERR#=E$UNABLE_TO_READ_USERS, LEVEL=ERROR, MID='A' );
     2808    14100    2      AS_DCBNUM# = T_DCBNUM#;
     2809    14101    2      CALL ASH$ERROR( T_ERR_CODE );
     2810    14102
     2811    14103    2      SELECT( 5 );
     2812    14104        /*E*  ERROR:    ASA-E$UNABLE_TO_READ_HLP-C
     2813    14105              MESSAGE: Unable to read the record "%U1" from the :HLP file.
     2814    14106        */
     2815    14107           %SCREAM( ERR#=E$UNABLE_TO_READ_HLP, LEVEL=ERROR, MID='A' );
     2816    14122    2      AS_DCBNUM# = T_DCBNUM#;
PL6.E3A0      #002=ASA$ERROR File=ASA$SUPER.:E05TSI                              TUE 07/29/97 08:52 Page:477
     2817    14123    2      CALL ASH$ERROR( T_ERR_CODE );
     2818    14124
     2819    14125    2      SELECT( 6 );
     2820    14126        /*E*  ERROR:    ASA-E$NOT_IN_PROJ-C
     2821    14127              MESSAGE: The %U2 "%U1" is not a member of project "%U3".
     2822    14128        */
     2823    14129           %SCREAM( ERR#=E$NOT_IN_PROJ, LEVEL=ERROR, MID='A' );
     2824    14144
     2825    14145    2      SELECT( 7 );
     2826    14146        /*E*  ERROR:      ASA-E$EXISTS_AND_NOT-C
     2827    14147              MESSAGE: "%U1" already exists and is a %U3, not a %U2.
     2828    14148        */
     2829    14149    2      IF PROJ_FLAG
     2830    14150    2      THEN AS_FIELD3 = USER_TEXTC;
     2831    14151    2      ELSE AS_FIELD3 = PROJECT_TEXTC;
     2832    14152           %SCREAM( ERR#=E$EXISTS_AND_NOT, LEVEL=ERROR, MID='A' );
     2833    14167
     2834    14168    2      SELECT( 8 );
     2835    14169        /*E*  ERROR:      ASA-E$NOT_BELOW-C
     2836    14170              MESSAGE: The %U2 "%U1" is not a member of project "%U3" or
     2837    14171                       any of its sub-projects.
     2838    14172        */
     2839    14173           %SCREAM( ERR#=E$NOT_BELOW, LEVEL=ERROR, MID='A' );
     2840    14188
     2841    14189    2      SELECT( 9 );
     2842    14190        /*E*  ERROR:      ASA-E$CANT_UNTIE-C
     2843    14191              MESSAGE: Project "%U3" cannot UNTIE a %U2 from project "%U3".
     2844    14192              MESSAGE1: A project administrator can only untie users or projects
     2845    14193                        that are in sub-projects below him. "%U1" is a %U2 in
     2846    14194                        project "%U3".
     2847    14195        */
     2848    14196           %SCREAM( ERR#=E$CANT_UNTIE, LEVEL=ERROR, MID='A' );
     2849    14211
     2850    14212    2      END;
     2851    14213    1   RETURN ;
     2852    14214    1   END ASA$ERROR ;
     2853    14215        %EOD ;
PL6.E3A0      #002=ASA$ERROR File=ASA$SUPER.:E05TSI                              TUE 07/29/97 08:52 Page:478

PL6.E3A0      #002=ASA$ERROR File=ASA$SUPER.:E05TSI                              TUE 07/29/97 08:52 Page:479
--  Include file information  --

   AS_SUPER_R.:E05TOU  cannot be made into a system file and is referenced.
   B_ERRORS_C.:E05TOU  is referenced.
   AS_PERR_C.:E05TOU  is referenced.
   AS_SUBS_C.:E05TOU  is referenced.
   KL_SUPER_C.:E05TOU  is referenced.
   XU_FORMAT_C.:E05TOU  is referenced.
   XU_MACRO_C.:E05TOU  is referenced.
   AS_SUPER_C.:E05TOU  is referenced.
   AS_MAC_C.:E05TOU  cannot be made into a system file and is referenced.
   AS_ENTRIES_M.:E05TOU  is referenced.
   B$JIT_C.:E05TOU  was found in the system file and is never referenced.
   CP_6_C.:E05TOU  was found in the system file and is never referenced.
      No diagnostics issued in procedure ASA$ERROR.

   Procedure ASA$ERROR requires 193 words for executable code.
   Procedure ASA$ERROR requires 14 words of local(AUTO) storage.

PL6.E3A0      #002=ASA$ERROR File=ASA$SUPER.:E05TSI                              TUE 07/29/97 08:52 Page:480

 Object Unit name= ASA$ERROR                                  File name= ASA$SUPER.:E05TOU
 UTS= JUL 29 '97 08:52:18.32 TUE                              Compiler= PL-6/E31         Sev=      00
 SharedLib= :SHARED_SYSTEM                                    Alt SharedLib=


    ****  Control sections  ****

 Sect   Type Bound  Init  Size OctSiz  Section name(segment info)
    0   DCB   even  none     0      0  M$LO
    1  RoData even  UTS     17     21  ASA$ERROR
    2   Proc  even  none   193    301  ASA$ERROR
    3  RoData even  none    14     16  ASA$ERROR

    ****  Entry defs  ****

                              Check   Calling
                             calling  sequence
  Sect OctLoc Primary Altret sequence   type   Parms  Name
     2      0   yes            yes      Std        3  ASA$ERROR

  ****  Entry refs  ****

         Check        Calling
        calling       sequence
Altret sequence SRef   type   Args  Name
         yes          ~proc      0 XU_OUTPUT_OPTIONS
         yes           Std       2 ASA$KEYCONV
         yes           Std       2 ASH$ERROR
         yes           Std       2 ASH$WARN
                       nStd      0 X66_AUTO_3
                       Std       0 B_CONSPOOL_D
                       nStd      0 X66_ARET
PL6.E3A0      #002=ASA$ERROR File=ASA$SUPER.:E05TSI                              TUE 07/29/97 08:52 Page:481

  ****  Data refs  ****

  Flags:  r = read only, s = secondary
Flgs Name                             Flgs Name                             Flgs Name
r    AS_MODE                          r    AS_FE_MODE                            M$LO
     ERR_CODE                              AS_FIELD1                             AS_FIELD2
     AS_FIELD3                             REMEM_VAR                             REM_FCMD
     ASA_BRKS_LOC                          AS_PROJECT_ADMIN                      AS_DCBNUM#
     B_VECTNIL

  ****  Segment refs  ****

  Flags:  r = read only, s = secondary
Flgs Name                             Flgs Name                             Flgs Name
     ISSID
PL6.E3A0      #002=ASA$ERROR File=ASA$SUPER.:E05TSI                              TUE 07/29/97 08:52 Page:482


     2669        1        /*M* ASA$ERROR - special purpose error reporting rountine.      */
     2670        2        /*T***********************************************************/
     2671        3        /*T*                                                         */
     2672        4        /*T* Copyright (c) Bull HN Information Systems Inc., 1997    */
     2673        5        /*T*                                                         */
     2674        6        /*T***********************************************************/
     2675        7        ASA$ERROR: PROC ( KEY, ERRCODE, PROJ_FLAG );

      7  2 000000   000000 700200 xent  ASA$ERROR    TSX0  ! X66_AUTO_3
         2 000001   000016 000003                    ZERO    14,3

     2676        8                                                                   /**/
     2677        9        /********************************************************************/
     2678       10        /*    Parameters      parameters      parameters      parameters    */
     2679       11        /********************************************************************/
     2680       12
     2681       13    1   DCL 1 KEY ALIGNED ,
     2682       14    1          2 CNT UBIN(9) UNAL ,
     2683       15    1          2 TEXT CHAR(20) UNAL ;
     2684       16    1   DCL ERRCODE   UBIN;
     2685       17    1   DCL PROJ_FLAG BIT(1) ALIGNED;
     2686       18                                                                 /**/
     2687       19        /********************************************************************/
     2688       20        /*    Include files   include files   include files   include files */
     2689       21        /********************************************************************/
     2690       22
     2691       23        %INCLUDE           AS_ENTRIES_M ;
     2692     1073        %INCLUDE           AS_MAC_C     ;
     2693     1153        %INCLUDE           AS_SUPER_C   ;
     2694     1588        %INCLUDE           XU_MACRO_C   ;
     2695     4694        %INCLUDE           XU_FORMAT_C  ;
     2696     4856        %INCLUDE           KL_SUPER_C   ;
     2697     7758        %INCLUDE           AS_SUBS_C    ;
     2698     9172        %INCLUDE           AS_PERR_C    ;
     2699     9774        %INCLUDE           B_ERRORS_C   ;
     2700    10901        %INCLUDE           AS_SUPER_R   ;
PL6.E3A0      #002=ASA$ERROR File=ASA$SUPER.:E05TSI                              TUE 07/29/97 08:52 Page:483
     2701    13917
     2702    13918        /*******************************************************************/
     2703    13919        /*    Constant data   constant data   constant data   constant data*/
     2704    13920        /*******************************************************************/
     2705    13921
     2706    13922    1   DCL ERRORS(0:9) CHAR(1) CONSTANT INIT( BINASC(E$ALREADY_EXISTS),
     2707    13923    1             BINASC(E$DOESNT_EXIST), BINASC(E$WRONG_TYPE),
     2708    13924    1             BINASC(E$FROM_HLP_NO_EXIST), BINASC(E$UNABLE_TO_READ_USERS),
     2709    13925    1             BINASC(E$UNABLE_TO_READ_HLP), BINASC(E$NOT_IN_PROJ),
     2710    13926    1             BINASC(E$EXISTS_AND_NOT), BINASC(E$NOT_BELOW),
     2711    13927    1             BINASC(E$CANT_UNTIE) ) ;
     2712    13928    1   DCL ERROR_CODES REDEF ERRORS CHAR(10) ;
     2713    13929
     2714    13930    1   DCL 1 PROJECT_TEXTC ALIGNED CONSTANT,
     2715    13931    1          2 * UBIN BYTE UNAL INIT( LENGTHC('project') ),
     2716    13932    1          2 * CHAR(0) INIT('project');
     2717    13933    1   DCL 1 USER_TEXTC ALIGNED CONSTANT,
     2718    13934    1          2 * UBIN BYTE UNAL INIT( LENGTHC('user') ),
     2719    13935    1          2 * CHAR(0) INIT('user');
     2720    13936
     2721    13937        /********************************************************************/
     2722    13938        /*    Auto data   auto data   auto data   auto data   auto data     */
     2723    13939        /********************************************************************/
     2724    13940
     2725    13941    1   DCL J SBIN ;
     2726    13942    1   DCL I SBIN;
     2727    13943    1   DCL TYPE UBIN;
     2728    13944    1   DCL T_ERR_CODE BIT(36);
     2729    13945    1   DCL T_DCBNUM#  UBIN;
     2730    13946                                                                   /**/
     2731    13947        /********************************************************************/
     2732    13948        /*    Entry dcls  entry dcls  entry dcls  entry dcls  entry dcls    */
     2733    13949        /********************************************************************/
     2734    13950
     2735    13951        %ASH$ERROR ;
     2736    13954        %ASH$WARN ;
     2737    13957        %ASA$KEYCONV ;
PL6.E3A0      #002=ASA$ERROR File=ASA$SUPER.:E05TSI                              TUE 07/29/97 08:52 Page:484
     2738    13960
     2739    13961        /********************************************************************/
     2740    13962        /*    Procedure   procedure   procedure   procedure   procedure     */
     2741    13963        /********************************************************************/
     2742    13964
     2743    13965
     2744    13966
     2745    13967    1   CALL INDEX( TYPE, BINASC(ERRCODE), ERROR_CODES ) ;

  13967  2 000002   200004 470500                    LDP0    @ERRCODE,,AUTO
         2 000003   000000 236100                    LDQ     0,,PR0
         2 000004   000033 736000                    QLS     27
         2 000005   000000 276000 3                  ORQ     0
         2 000006   200014 756100                    STQ     T_DCBNUM#+2,,AUTO
         2 000007   000100 124400                    SCM     mask='000'O
         2 000010   000000 000012 1                  ADSC9   ERRORS                   cn=0,n=10
         2 000011   200014 000001                    ADSC9   T_DCBNUM#+2,,AUTO        cn=0,n=1
         2 000012   200010 000100                    ARG     TYPE,,AUTO

     2746    13968    2   DO SELECT( TYPE );

  13968  2 000013   200010 236100                    LDQ     TYPE,,AUTO
         2 000014   000005 116007                    CMPQ    5,DL
         2 000015   000030 602000 2                  TNC     s:13968+13
         2 000016   000057 600000 2                  TZE     SAVE_ERR_CODE
         2 000017   000010 116007                    CMPQ    8,DL
         2 000020   000025 602000 2                  TNC     s:13968+10
         2 000021   000064 600000 2                  TZE     s:13984
         2 000022   000011 116007                    CMPQ    9,DL
         2 000023   000070 601000 2                  TNZ     s:13987
         2 000024   000064 710000 2                  TRA     s:13984
         2 000025   000006 116007                    CMPQ    6,DL
         2 000026   000070 601000 2                  TNZ     s:13987
         2 000027   000064 710000 2                  TRA     s:13984
         2 000030   000003 116007                    CMPQ    3,DL
         2 000031   000036 602000 2                  TNC     s:13968+19
         2 000032   000050 600000 2                  TZE     s:13975
PL6.E3A0      #002=ASA$ERROR File=ASA$SUPER.:E05TSI                              TUE 07/29/97 08:52 Page:485
         2 000033   000004 116007                    CMPQ    4,DL
         2 000034   000070 601000 2                  TNZ     s:13987
         2 000035   000057 710000 2                  TRA     SAVE_ERR_CODE
         2 000036   000001 116007                    CMPQ    1,DL
         2 000037   000070 601000 2                  TNZ     s:13987
         2 000040   000041 710000 2                  TRA     s:13970

     2747    13969    2      SELECT( 1 );

     2748    13970    3      IF MERR_CODE.CODE ~= %E$NOKEY THEN DO;

  13970  2 000041   000000 236000 xsym               LDQ     ERR_CODE
         2 000042   377770 376007                    ANQ     131064,DL
         2 000043   001020 116007                    CMPQ    528,DL
         2 000044   000070 600000 2                  TZE     s:13987

     2749    13971    3         TYPE = 4;

  13971  2 000045   000004 235007                    LDA     4,DL
         2 000046   200010 755100                    STA     TYPE,,AUTO

     2750    13972    3         GOTO SAVE_ERR_CODE;

  13972  2 000047   000057 710000 2                  TRA     SAVE_ERR_CODE

     2751    13973    3         END;
     2752    13974    2      SELECT( 3 );

     2753    13975    3      IF MERR_CODE.CODE ~= %E$NOKEY THEN DO;

  13975  2 000050   000000 236000 xsym               LDQ     ERR_CODE
         2 000051   377770 376007                    ANQ     131064,DL
         2 000052   001020 116007                    CMPQ    528,DL
         2 000053   000070 600000 2                  TZE     s:13987

     2754    13976    3         TYPE = 5;

PL6.E3A0      #002=ASA$ERROR File=ASA$SUPER.:E05TSI                              TUE 07/29/97 08:52 Page:486
  13976  2 000054   000005 235007                    LDA     5,DL
         2 000055   200010 755100                    STA     TYPE,,AUTO

     2755    13977    3         GOTO SAVE_ERR_CODE;

  13977  2 000056   000057 710000 2                  TRA     SAVE_ERR_CODE

     2756    13978    3         END;
     2757    13979    2      SELECT( 4, 5 );

     2758    13980    2   SAVE_ERR_CODE:
     2759    13981    2      T_ERR_CODE = MERR_CODE;

  13981  2 000057   000000 236000 xsym  SAVE_ERR_CO* LDQ     ERR_CODE
         2 000060   200011 756100                    STQ     T_ERR_CODE,,AUTO

     2760    13982    2      T_DCBNUM#  = AS_DCBNUM#;

  13982  2 000061   000000 235000 xsym               LDA     AS_DCBNUM#
         2 000062   200012 755100                    STA     T_DCBNUM#,,AUTO
         2 000063   000070 710000 2                  TRA     s:13987

     2761    13983    2      SELECT( 6, 8, 9 );

     2762    13984    2      CALL ASA$KEYCONV( AS_PROJECT_ADMIN, AS_FIELD3 );

  13984  2 000064   000001 630400 3                  EPPR0   1
         2 000065   000020 631400 xsym               EPPR1   B_VECTNIL+16
         2 000066   000000 701000 xent               TSX1    ASA$KEYCONV
         2 000067   000000 011000                    NOP     0

     2763    13985    2      END;

     2764    13986
     2765    13987    1   CALL ASA$KEYCONV( KEY, AS_FIELD1 );

  13987  2 000070   000003 236000 3                  LDQ     3
PL6.E3A0      #002=ASA$ERROR File=ASA$SUPER.:E05TSI                              TUE 07/29/97 08:52 Page:487
         2 000071   200003 235100                    LDA     @KEY,,AUTO
         2 000072   200014 757100                    STAQ    T_DCBNUM#+2,,AUTO
         2 000073   200014 630500                    EPPR0   T_DCBNUM#+2,,AUTO
         2 000074   000020 631400 xsym               EPPR1   B_VECTNIL+16
         2 000075   000000 701000 xent               TSX1    ASA$KEYCONV
         2 000076   000000 011000                    NOP     0

     2766    13988    1   IF ADDR(PROJ_FLAG) ~= ADDR(NIL) THEN

  13988  2 000077   200005 236100                    LDQ     @PROJ_FLAG,,AUTO
         2 000100   000001 116000 xsym               CMPQ    B_VECTNIL+1
         2 000101   000114 600000 2                  TZE     s:13993

     2767    13989    1      IF PROJ_FLAG

  13989  2 000102   200005 470500                    LDP0    @PROJ_FLAG,,AUTO
         2 000103   000000 234100                    SZN     0,,PR0
         2 000104   000111 605000 2                  TPL     s:13991

     2768    13990    1      THEN AS_FIELD2 = PROJECT_TEXTC;

  13990  2 000105   000000 100400                    MLR     fill='000'O
         2 000106   000003 000010 1                  ADSC9   PROJECT_TEXTC            cn=0,n=8
         2 000107   000000 000051 xsym               ADSC9   AS_FIELD2                cn=0,n=41
         2 000110   000114 710000 2                  TRA     s:13993

     2769    13991    1      ELSE AS_FIELD2 = USER_TEXTC;

  13991  2 000111   000000 100400                    MLR     fill='000'O
         2 000112   000005 000005 1                  ADSC9   USER_TEXTC               cn=0,n=5
         2 000113   000000 000051 xsym               ADSC9   AS_FIELD2                cn=0,n=41

     2770    13992                                                              /**/
     2771    13993    2   DO SELECT( TYPE );

  13993  2 000114   200010 236100                    LDQ     TYPE,,AUTO
         2 000115   000003 116007                    CMPQ    3,DL
PL6.E3A0      #002=ASA$ERROR File=ASA$SUPER.:E05TSI                              TUE 07/29/97 08:52 Page:488
         2 000116   000142 602000 2                  TNC     s:13993+22
         2 000117   000204 600000 2                  TZE     s:14076
         2 000120   000007 116007                    CMPQ    7,DL
         2 000121   000131 602000 2                  TNC     s:13993+13
         2 000122   000250 600000 2                  TZE     s:14149
         2 000123   000010 116007                    CMPQ    8,DL
         2 000124   000300 602000 2                  TNC     s:14213
         2 000125   000267 600000 2                  TZE     s:14185
         2 000126   000011 116007                    CMPQ    9,DL
         2 000127   000300 601000 2                  TNZ     s:14213
         2 000130   000274 710000 2                  TRA     s:14208
         2 000131   000005 116007                    CMPQ    5,DL
         2 000132   000137 602000 2                  TNC     s:13993+19
         2 000133   000226 600000 2                  TZE     s:14119
         2 000134   000006 116007                    CMPQ    6,DL
         2 000135   000300 601000 2                  TNZ     s:14213
         2 000136   000243 710000 2                  TRA     s:14141
         2 000137   000004 116007                    CMPQ    4,DL
         2 000140   000300 601000 2                  TNZ     s:14213
         2 000141   000211 710000 2                  TRA     s:14097
         2 000142   000001 116007                    CMPQ    1,DL
         2 000143   000150 602000 2                  TNC     s:13993+28
         2 000144   000160 600000 2                  TZE     s:14030
         2 000145   000002 116007                    CMPQ    2,DL
         2 000146   000300 601000 2                  TNZ     s:14213
         2 000147   000165 710000 2                  TRA     s:14040
         2 000150   000000 116003                    CMPQ    0,DU
         2 000151   000153 600000 2                  TZE     s:14011
         2 000152   000300 710000 2                  TRA     s:14213

     2772    13994    2      SELECT( 0 );

     2773    13995        /*E*  ERROR:    ASA-E$ALREADY_EXISTS-C
     2774    13996              MESSAGE:  The %U2 "%U1" already exists.
     2775    13997        */
     2776    13998                                                              /**/
     2777    13999           %SCREAM( ERR#=E$ALREADY_EXISTS, LEVEL=ERROR, MID='A' );
PL6.E3A0      #002=ASA$ERROR File=ASA$SUPER.:E05TSI                              TUE 07/29/97 08:52 Page:489

  14011  2 000153   000004 630400 3                  EPPR0   4
         2 000154   000017 631400 xsym               EPPR1   B_VECTNIL+15
         2 000155   000000 701000 xent               TSX1    ASH$ERROR
         2 000156   000000 011000                    NOP     0
         2 000157   000300 710000 2                  TRA     s:14213

     2778    14014
     2779    14015    2      SELECT( 1 );

     2780    14016                                                              /**/
     2781    14017        /*E*  ERROR:    ASA-E$DOESNT_EXIST-C
     2782    14018              MESSAGE:  The %U2 "%U1" does not exist.
     2783    14019        */
     2784    14020           %SCREAM( ERR#=E$DOESNT_EXIST, LEVEL=WARN, MID='A' );

  14030  2 000160   000005 630400 3                  EPPR0   5
         2 000161   000017 631400 xsym               EPPR1   B_VECTNIL+15
         2 000162   000000 701000 xent               TSX1    ASH$WARN
         2 000163   000000 011000                    NOP     0
         2 000164   000300 710000 2                  TRA     s:14213

     2785    14035
     2786    14036    2      SELECT( 2 );

     2787    14037        /*E* ERROR:   ASA-E$WRONG_TYPE-C
     2788    14038             MESSAGE: "%U1" is a %U3, not a %U2.
     2789    14039        */
     2790    14040    2      IF PROJ_FLAG

  14040  2 000165   200005 470500                    LDP0    @PROJ_FLAG,,AUTO
         2 000166   000000 234100                    SZN     0,,PR0
         2 000167   000174 605000 2                  TPL     s:14042

     2791    14041    2      THEN AS_FIELD3 = USER_TEXTC ;

  14041  2 000170   000000 100400                    MLR     fill='000'O
PL6.E3A0      #002=ASA$ERROR File=ASA$SUPER.:E05TSI                              TUE 07/29/97 08:52 Page:490
         2 000171   000005 000005 1                  ADSC9   USER_TEXTC               cn=0,n=5
         2 000172   000000 000051 xsym               ADSC9   AS_FIELD3                cn=0,n=41
         2 000173   000177 710000 2                  TRA     s:14055

     2792    14042    2      ELSE AS_FIELD3 = PROJECT_TEXTC ;

  14042  2 000174   000000 100400                    MLR     fill='000'O
         2 000175   000003 000010 1                  ADSC9   PROJECT_TEXTC            cn=0,n=8
         2 000176   000000 000051 xsym               ADSC9   AS_FIELD3                cn=0,n=41

     2793    14043           %SCREAM( ERR#=E$WRONG_TYPE, LEVEL=ERROR, MID='A' );

  14055  2 000177   000006 630400 3                  EPPR0   6
         2 000200   000017 631400 xsym               EPPR1   B_VECTNIL+15
         2 000201   000000 701000 xent               TSX1    ASH$ERROR
         2 000202   000000 011000                    NOP     0
         2 000203   000300 710000 2                  TRA     s:14213

     2794    14058
     2795    14059    2      SELECT( 3 );

     2796    14060        /*E*  ERROR:    ASA-E$FROM_HLP_NO_EXIST-C
     2797    14061              MESSAGE:  Record "%U1" does not exist in :HLP.
     2798    14062                        Creating a record from default.
     2799    14063        */
     2800    14064           %SCREAM( ERR#=E$FROM_HLP_NO_EXIST, LEVEL=ERROR, MID='A' );

  14076  2 000204   000007 630400 3                  EPPR0   7
         2 000205   000017 631400 xsym               EPPR1   B_VECTNIL+15
         2 000206   000000 701000 xent               TSX1    ASH$ERROR
         2 000207   000000 011000                    NOP     0
         2 000210   000300 710000 2                  TRA     s:14213

     2801    14079
     2802    14080
     2803    14081    2      SELECT( 4 );

PL6.E3A0      #002=ASA$ERROR File=ASA$SUPER.:E05TSI                              TUE 07/29/97 08:52 Page:491
     2804    14082        /*E*  ERROR:    ASA-E$UNABLE_TO_READ_USERS-C
     2805    14083              MESSAGE: Unable to read the record "%U1" from the :USERS file.
     2806    14084        */
     2807    14085           %SCREAM( ERR#=E$UNABLE_TO_READ_USERS, LEVEL=ERROR, MID='A' );

  14097  2 000211   000010 630400 3                  EPPR0   8
         2 000212   000017 631400 xsym               EPPR1   B_VECTNIL+15
         2 000213   000000 701000 xent               TSX1    ASH$ERROR
         2 000214   000000 011000                    NOP     0

     2808    14100    2      AS_DCBNUM# = T_DCBNUM#;

  14100  2 000215   200012 235100                    LDA     T_DCBNUM#,,AUTO
         2 000216   000000 755000 xsym               STA     AS_DCBNUM#

     2809    14101    2      CALL ASH$ERROR( T_ERR_CODE );

  14101  2 000217   200011 630500                    EPPR0   T_ERR_CODE,,AUTO
         2 000220   200014 450500                    STP0    T_DCBNUM#+2,,AUTO
         2 000221   200014 630500                    EPPR0   T_DCBNUM#+2,,AUTO
         2 000222   000017 631400 xsym               EPPR1   B_VECTNIL+15
         2 000223   000000 701000 xent               TSX1    ASH$ERROR
         2 000224   000000 011000                    NOP     0
         2 000225   000300 710000 2                  TRA     s:14213

     2810    14102
     2811    14103    2      SELECT( 5 );

     2812    14104        /*E*  ERROR:    ASA-E$UNABLE_TO_READ_HLP-C
     2813    14105              MESSAGE: Unable to read the record "%U1" from the :HLP file.
     2814    14106        */
     2815    14107           %SCREAM( ERR#=E$UNABLE_TO_READ_HLP, LEVEL=ERROR, MID='A' );

  14119  2 000226   000011 630400 3                  EPPR0   9
         2 000227   000017 631400 xsym               EPPR1   B_VECTNIL+15
         2 000230   000000 701000 xent               TSX1    ASH$ERROR
         2 000231   000000 011000                    NOP     0
PL6.E3A0      #002=ASA$ERROR File=ASA$SUPER.:E05TSI                              TUE 07/29/97 08:52 Page:492

     2816    14122    2      AS_DCBNUM# = T_DCBNUM#;

  14122  2 000232   200012 235100                    LDA     T_DCBNUM#,,AUTO
         2 000233   000000 755000 xsym               STA     AS_DCBNUM#

     2817    14123    2      CALL ASH$ERROR( T_ERR_CODE );

  14123  2 000234   200011 630500                    EPPR0   T_ERR_CODE,,AUTO
         2 000235   200014 450500                    STP0    T_DCBNUM#+2,,AUTO
         2 000236   200014 630500                    EPPR0   T_DCBNUM#+2,,AUTO
         2 000237   000017 631400 xsym               EPPR1   B_VECTNIL+15
         2 000240   000000 701000 xent               TSX1    ASH$ERROR
         2 000241   000000 011000                    NOP     0
         2 000242   000300 710000 2                  TRA     s:14213

     2818    14124
     2819    14125    2      SELECT( 6 );

     2820    14126        /*E*  ERROR:    ASA-E$NOT_IN_PROJ-C
     2821    14127              MESSAGE: The %U2 "%U1" is not a member of project "%U3".
     2822    14128        */
     2823    14129           %SCREAM( ERR#=E$NOT_IN_PROJ, LEVEL=ERROR, MID='A' );

  14141  2 000243   000012 630400 3                  EPPR0   10
         2 000244   000017 631400 xsym               EPPR1   B_VECTNIL+15
         2 000245   000000 701000 xent               TSX1    ASH$ERROR
         2 000246   000000 011000                    NOP     0
         2 000247   000300 710000 2                  TRA     s:14213

     2824    14144
     2825    14145    2      SELECT( 7 );

     2826    14146        /*E*  ERROR:      ASA-E$EXISTS_AND_NOT-C
     2827    14147              MESSAGE: "%U1" already exists and is a %U3, not a %U2.
     2828    14148        */
     2829    14149    2      IF PROJ_FLAG
PL6.E3A0      #002=ASA$ERROR File=ASA$SUPER.:E05TSI                              TUE 07/29/97 08:52 Page:493

  14149  2 000250   200005 470500                    LDP0    @PROJ_FLAG,,AUTO
         2 000251   000000 234100                    SZN     0,,PR0
         2 000252   000257 605000 2                  TPL     s:14151

     2830    14150    2      THEN AS_FIELD3 = USER_TEXTC;

  14150  2 000253   000000 100400                    MLR     fill='000'O
         2 000254   000005 000005 1                  ADSC9   USER_TEXTC               cn=0,n=5
         2 000255   000000 000051 xsym               ADSC9   AS_FIELD3                cn=0,n=41
         2 000256   000262 710000 2                  TRA     s:14164

     2831    14151    2      ELSE AS_FIELD3 = PROJECT_TEXTC;

  14151  2 000257   000000 100400                    MLR     fill='000'O
         2 000260   000003 000010 1                  ADSC9   PROJECT_TEXTC            cn=0,n=8
         2 000261   000000 000051 xsym               ADSC9   AS_FIELD3                cn=0,n=41

     2832    14152           %SCREAM( ERR#=E$EXISTS_AND_NOT, LEVEL=ERROR, MID='A' );

  14164  2 000262   000013 630400 3                  EPPR0   11
         2 000263   000017 631400 xsym               EPPR1   B_VECTNIL+15
         2 000264   000000 701000 xent               TSX1    ASH$ERROR
         2 000265   000000 011000                    NOP     0
         2 000266   000300 710000 2                  TRA     s:14213

     2833    14167
     2834    14168    2      SELECT( 8 );

     2835    14169        /*E*  ERROR:      ASA-E$NOT_BELOW-C
     2836    14170              MESSAGE: The %U2 "%U1" is not a member of project "%U3" or
     2837    14171                       any of its sub-projects.
     2838    14172        */
     2839    14173           %SCREAM( ERR#=E$NOT_BELOW, LEVEL=ERROR, MID='A' );

  14185  2 000267   000014 630400 3                  EPPR0   12
         2 000270   000017 631400 xsym               EPPR1   B_VECTNIL+15
PL6.E3A0      #002=ASA$ERROR File=ASA$SUPER.:E05TSI                              TUE 07/29/97 08:52 Page:494
         2 000271   000000 701000 xent               TSX1    ASH$ERROR
         2 000272   000000 011000                    NOP     0
         2 000273   000300 710000 2                  TRA     s:14213

     2840    14188
     2841    14189    2      SELECT( 9 );

     2842    14190        /*E*  ERROR:      ASA-E$CANT_UNTIE-C
     2843    14191              MESSAGE: Project "%U3" cannot UNTIE a %U2 from project "%U3".
     2844    14192              MESSAGE1: A project administrator can only untie users or projects
     2845    14193                        that are in sub-projects below him. "%U1" is a %U2 in
     2846    14194                        project "%U3".
     2847    14195        */
     2848    14196           %SCREAM( ERR#=E$CANT_UNTIE, LEVEL=ERROR, MID='A' );

  14208  2 000274   000015 630400 3                  EPPR0   13
         2 000275   000017 631400 xsym               EPPR1   B_VECTNIL+15
         2 000276   000000 701000 xent               TSX1    ASH$ERROR
         2 000277   000000 011000                    NOP     0

     2849    14211
     2850    14212    2      END;

     2851    14213    1   RETURN ;

  14213  2 000300   000000 702200 xent               TSX2  ! X66_ARET
     2852    14214    1   END ASA$ERROR ;
     2853    14215        %EOD ;

PL6.E3A0      #002=ASA$ERROR File=ASA$SUPER.:E05TSI                              TUE 07/29/97 08:52 Page:495
--  Include file information  --

   AS_SUPER_R.:E05TOU  cannot be made into a system file and is referenced.
   B_ERRORS_C.:E05TOU  is referenced.
   AS_PERR_C.:E05TOU  is referenced.
   AS_SUBS_C.:E05TOU  is referenced.
   KL_SUPER_C.:E05TOU  is referenced.
   XU_FORMAT_C.:E05TOU  is referenced.
   XU_MACRO_C.:E05TOU  is referenced.
   AS_SUPER_C.:E05TOU  is referenced.
   AS_MAC_C.:E05TOU  cannot be made into a system file and is referenced.
   AS_ENTRIES_M.:E05TOU  is referenced.
   B$JIT_C.:E05TOU  was found in the system file and is never referenced.
   CP_6_C.:E05TOU  was found in the system file and is never referenced.
      No diagnostics issued in procedure ASA$ERROR.
PL6.E3A0      #002=ASA$ERROR File=ASA$SUPER.:E05TSI                              TUE 07/29/97 08:52 Page:496

 **** Variables and constants ****

  ****  Section 001 RoData ASA$ERROR

  ****  Scalars and arrays  ****
OctLoc.c.b A Datatyp(siz) R M Lvl/name                 OctLoc.c.b A Datatyp(siz) R M Lvl/name

     0-0-0/c CHAR        r     1 ERRORS(0:9)                0-0-0/c CHAR(10)    r     1 ERROR_CODES
     3-0-0/w STRC(72)    r     1 PROJECT_TEXTC              5-0-0/w STRC(45)    r     1 USER_TEXTC

  ****  Auto variables  ****

  ****  Scalars and arrays  ****
OctLoc.c.b A Datatyp(siz) R M Lvl/name                 OctLoc.c.b A Datatyp(siz) R M Lvl/name

     4-0-0/w PTR         r     1 @ERRCODE                   3-0-0/w PTR         r     1 @KEY
     5-0-0/w PTR         r     1 @PROJ_FLAG                *0-0-0/w UBIN        r     1 ERRCODE
    *0-0-0/w STRC(189)   r     1 KEY                       *0-0-0/w BIT         r     1 PROJ_FLAG
    10-0-0/w UBIN        r     1 TYPE                      12-0-0/w UBIN        r     1 T_DCBNUM#
    11-0-0/b BIT         r     1 T_ERR_CODE

  ****  SYMREF variables  ****

  ****  Scalars and arrays  ****
OctLoc.c.b A Datatyp(siz) R M Lvl/name                 OctLoc.c.b A Datatyp(siz) R M Lvl/name

     0-0-0/w UBIN        r     1 AS_DCBNUM#                 0-0-0/w STRC(369)   r     1 AS_FIELD1
     0-0-0/w STRC(369)   r     1 AS_FIELD2                  0-0-0/w STRC(369)   r     1 AS_FIELD3
     0-0-0/c STRC(189)   r     1 AS_PROJECT_ADMIN           0-0-0/b STRC        r     1 ERR_CODE
     0-0-0/b STRC        r     1 MERR_CODE


   Procedure ASA$ERROR requires 193 words for executable code.
   Procedure ASA$ERROR requires 14 words of local(AUTO) storage.
PL6.E3A0      #002=ASA$ERROR File=ASA$SUPER.:E05TSI                              TUE 07/29/97 08:52 Page:497
          *** CROSS REFERENCE LISTING ***
**     DENOTES     IDENTIFIER DEFINITION
<<                 IDENTIFIER'S VALUE SET
>>                 IDENTIFIER'S VALUE USED
<>                 IDENTIFIER SET AND/OR USED
--                 IDENTIFIER REFERENCED
PL6.E3A0      #002=ASA$ERROR File=ASA$SUPER.:E05TSI                              TUE 07/29/97 08:52 Page:498
          MINI XREF LISTING

ASA$KEYCONV
     13958**DCL-ENT 13984--CALL    13987--CALL
ASA_BRKS_LOC
     11065**DCL     11065--REDEF
ASH$ERROR
     13952**DCL-ENT 14011--CALL    14055--CALL    14076--CALL    14097--CALL    14101--CALL    14119--CALL
     14123--CALL    14141--CALL    14164--CALL    14185--CALL    14208--CALL
ASH$WARN
     13955**DCL-ENT 14030--CALL
AS_DCBNUM#
     11072**DCL     13982>>ASSIGN  14100<<ASSIGN  14122<<ASSIGN
AS_DEFAULT.BANNER_PERM
     11758**DCL     11759--REDEF
AS_DEFAULT.BUDGET.MACCT
     11663**DCL     11667--REDEF
AS_DEFAULT.BUDGET.MAX_PROJECTS
     11676**DCL     11679--REDEF
AS_DEFAULT.BUDGET.PACCUM
     11659**DCL     11661--REDEF
AS_DEFAULT.BUDGET.PMAXC
     11654**DCL     11656--REDEF
AS_DEFAULT.SETUP_CHRA.TXT
     11774**DCL     11775--REDEF   11776--REDEF
AS_DEFAULT_DREC.PASSWORD
     13028**DCL     13032--REDEF
AS_DEFAULT_DREC.RENAME
     13051**DCL     13052--REDEF
AS_DFLT.BANNER_PERM
     11580**DCL     11581--REDEF
AS_DFLT.BUDGET.MACCT
     11485**DCL     11489--REDEF
AS_DFLT.BUDGET.MAX_PROJECTS
PL6.E3A0      #002=ASA$ERROR File=ASA$SUPER.:E05TSI                              TUE 07/29/97 08:52 Page:499
     11498**DCL     11501--REDEF
AS_DFLT.BUDGET.PACCUM
     11481**DCL     11483--REDEF
AS_DFLT.BUDGET.PMAXC
     11476**DCL     11478--REDEF
AS_DFLT.SETUP_CHRA.TXT
     11596**DCL     11597--REDEF   11598--REDEF
AS_FE_MODE
     10931**DCL     10932--REDEF
AS_FIELD1
     11061**DCL     13987<>CALL
AS_FIELD2
     11062**DCL     13990<<ASSIGN  13991<<ASSIGN
AS_FIELD3
     11062**DCL     13984<>CALL    14041<<ASSIGN  14042<<ASSIGN  14150<<ASSIGN  14151<<ASSIGN
AS_MODE
     10928**DCL     10930--REDEF
AS_MOD_USER.ACCESS
     13793**DCL     13794--REDEF
AS_MOD_USER.BANNER
     13780**DCL     13781--REDEF
AS_MOD_USER.BANNER_PERM
     13782**DCL     13783--REDEF
AS_MOD_USER.BILL
     13788**DCL     13789--REDEF
AS_MOD_USER.CPROC
     13784**DCL     13785--REDEF
AS_MOD_USER.FEBILL
     13864**DCL     13865--REDEF
AS_MOD_USER.FECXTMEM
     13881**DCL     13882--REDEF
AS_MOD_USER.FEMINTS
     13866**DCL     13867--REDEF
AS_MOD_USER.FEMMEM
     13877**DCL     13878--REDEF
AS_MOD_USER.FEMTIME
PL6.E3A0      #002=ASA$ERROR File=ASA$SUPER.:E05TSI                              TUE 07/29/97 08:52 Page:500
     13875**DCL     13876--REDEF
AS_MOD_USER.FEPPRIV
     13872**DCL     13874--REDEF
AS_MOD_USER.FEPRIV
     13869**DCL     13871--REDEF
AS_MOD_USER.FORCE_BIT
     13778**DCL     13779--REDEF
AS_MOD_USER.KEY
     13860**DCL     13862--REDEF
AS_MOD_USER.LASTCPROC
     13786**DCL     13787--REDEF
AS_MOD_USER.LIMITS.DO_
     13834**DCL     13835--REDEF
AS_MOD_USER.LIMITS.FPOOLS
     13850**DCL     13851--REDEF
AS_MOD_USER.LIMITS.LO
     13830**DCL     13831--REDEF
AS_MOD_USER.LIMITS.MEM
     13826**DCL     13827--REDEF
AS_MOD_USER.LIMITS.MPRIO
     13854**DCL     13855--REDEF
AS_MOD_USER.LIMITS.PDIS
     13842**DCL     13843--REDEF
AS_MOD_USER.LIMITS.PO
     13838**DCL     13839--REDEF
AS_MOD_USER.LIMITS.TDIS
     13846**DCL     13847--REDEF
AS_MOD_USER.LIMITS.TIME
     13822**DCL     13823--REDEF
AS_MOD_USER.MAXENQ
     13803**DCL     13804--REDEF
AS_MOD_USER.PERM_BIT
     13776**DCL     13777--REDEF
AS_MOD_USER.PPRIV
     13798**DCL     13800--REDEF
AS_MOD_USER.PRIOB
PL6.E3A0      #002=ASA$ERROR File=ASA$SUPER.:E05TSI                              TUE 07/29/97 08:52 Page:501
     13805**DCL     13806--REDEF
AS_MOD_USER.PRIV
     13795**DCL     13797--REDEF
AS_MOD_USER.QUAN
     13801**DCL     13802--REDEF
AS_MOD_USER.SETUP
     13774**DCL     13775--REDEF
AS_PROJECT.BANNER_PERM
     12114**DCL     12115--REDEF
AS_PROJECT.BUDGET.MACCT
     12019**DCL     12023--REDEF
AS_PROJECT.BUDGET.MAX_PROJECTS
     12032**DCL     12035--REDEF
AS_PROJECT.BUDGET.PACCUM
     12015**DCL     12017--REDEF
AS_PROJECT.BUDGET.PMAXC
     12010**DCL     12012--REDEF
AS_PROJECT.SETUP_CHRA.TXT
     12130**DCL     12131--REDEF   12132--REDEF
AS_PROJECT_ADMIN
     11069**DCL     13984<>CALL
AS_PROJECT_DFLT.BANNER_PERM
     12292**DCL     12293--REDEF
AS_PROJECT_DFLT.BUDGET.MACCT
     12197**DCL     12201--REDEF
AS_PROJECT_DFLT.BUDGET.MAX_PROJECTS
     12210**DCL     12213--REDEF
AS_PROJECT_DFLT.BUDGET.PACCUM
     12193**DCL     12195--REDEF
AS_PROJECT_DFLT.BUDGET.PMAXC
     12188**DCL     12190--REDEF
AS_PROJECT_DFLT.SETUP_CHRA.TXT
     12308**DCL     12309--REDEF   12310--REDEF
AS_PROJECT_DFLT_DREC.PASSWORD
     13514**DCL     13518--REDEF
AS_PROJECT_DFLT_DREC.RENAME
PL6.E3A0      #002=ASA$ERROR File=ASA$SUPER.:E05TSI                              TUE 07/29/97 08:52 Page:502
     13537**DCL     13538--REDEF
AS_PROJECT_DREC.PASSWORD
     13352**DCL     13356--REDEF
AS_PROJECT_DREC.RENAME
     13375**DCL     13376--REDEF
AS_PROJ_ADMIN.BANNER_PERM
     11936**DCL     11937--REDEF
AS_PROJ_ADMIN.BUDGET.MACCT
     11841**DCL     11845--REDEF
AS_PROJ_ADMIN.BUDGET.MAX_PROJECTS
     11854**DCL     11857--REDEF
AS_PROJ_ADMIN.BUDGET.PACCUM
     11837**DCL     11839--REDEF
AS_PROJ_ADMIN.BUDGET.PMAXC
     11832**DCL     11834--REDEF
AS_PROJ_ADMIN.SETUP_CHRA.TXT
     11952**DCL     11953--REDEF   11954--REDEF
AS_PROJ_ADMIN_DREC.PASSWORD
     13190**DCL     13194--REDEF
AS_PROJ_ADMIN_DREC.RENAME
     13213**DCL     13214--REDEF
AS_USERS.BANNER_PERM
     11402**DCL     11403--REDEF
AS_USERS.BUDGET.MACCT
     11307**DCL     11311--REDEF
AS_USERS.BUDGET.MAX_PROJECTS
     11320**DCL     11323--REDEF
AS_USERS.BUDGET.PACCUM
     11303**DCL     11305--REDEF
AS_USERS.BUDGET.PMAXC
     11298**DCL     11300--REDEF
AS_USERS.SETUP_CHRA.TXT
     11418**DCL     11419--REDEF   11420--REDEF
AS_USERS_CONSTANT.BANNER_PERM
     12470**DCL     12471--REDEF
AS_USERS_CONSTANT.BUDGET.MACCT
PL6.E3A0      #002=ASA$ERROR File=ASA$SUPER.:E05TSI                              TUE 07/29/97 08:52 Page:503
     12375**DCL     12379--REDEF
AS_USERS_CONSTANT.BUDGET.MAX_PROJECTS
     12388**DCL     12391--REDEF
AS_USERS_CONSTANT.BUDGET.PACCUM
     12371**DCL     12373--REDEF
AS_USERS_CONSTANT.BUDGET.PMAXC
     12366**DCL     12368--REDEF
AS_USERS_CONSTANT.SETUP_CHRA.TXT
     12486**DCL     12487--REDEF   12488--REDEF
ERRCODE
        16**DCL         7--PROC    13967>>CALLBLT
ERRORS
     13922**DCL     13928--REDEF
ERROR_CODES
     13928**DCL     13967>>CALLBLT
ERR_CODE
     11060**DCL     11061--REDEF
KEY
        13**DCL         7--PROC    13987<>CALL
KL_DEFAULT.PASSWORD
     13676**DCL     13680--REDEF
KL_DEFAULT.RENAME
     13699**DCL     13700--REDEF
KL_DFLT.PASSWORD
     12866**DCL     12870--REDEF
KL_DFLT.RENAME
     12889**DCL     12890--REDEF
KL_DREC.PASSWORD
     12704**DCL     12708--REDEF
KL_DREC.RENAME
     12727**DCL     12728--REDEF
KL_DREC_CNT.PASSWORD
     12591**DCL     12595--REDEF
KL_DREC_CNT.RENAME
     12614**DCL     12615--REDEF
MERR_CODE
PL6.E3A0      #002=ASA$ERROR File=ASA$SUPER.:E05TSI                              TUE 07/29/97 08:52 Page:504
     11061**DCL     13981>>ASSIGN
MERR_CODE.CODE
     11061**DCL     13970>>IF      13975>>IF
PROJECT_TEXTC
     13930**DCL     13990>>ASSIGN  14042>>ASSIGN  14151>>ASSIGN
PROJ_FLAG
        17**DCL         7--PROC    13988--IF      13989>>IF      14040>>IF      14149>>IF
PROJ_KEY.TEXT
     10938**DCL     10938--REDEF
PROJ_KEY.TXT.PROJECT
     10938**DCL     10938--REDEF
REMEM_VAR
     11064**DCL     11064--REDEF
REM_FCMD
     11064**DCL     11065--REDEF
SAVE_ERR_CODE
     13981**LABEL   13972--GOTO    13977--GOTO
TYPE
     13943**DCL     13967<<CALLBLT 13968>>DOSELCT 13971<<ASSIGN  13976<<ASSIGN  13993>>DOSELCT
T_DCBNUM#
     13945**DCL     13982<<ASSIGN  14100>>ASSIGN  14122>>ASSIGN
T_ERR_CODE
     13944**DCL     13981<<ASSIGN  14101<>CALL    14123<>CALL
USERS_KEY.TEXT
     10935**DCL     10936--REDEF   10936--REDEF   10936--REDEF   10937--REDEF
USER_TEXTC
     13933**DCL     13991>>ASSIGN  14041>>ASSIGN  14150>>ASSIGN

PL6.E3A0      #003=ASA$KEYCONV File=ASA$SUPER.:E05TSI                            TUE 07/29/97 08:53 Page:505
     2854        1        /*T***********************************************************/
     2855        2        /*T*                                                         */
     2856        3        /*T* Copyright (c) Bull HN Information Systems Inc., 1997    */
     2857        4        /*T*                                                         */
     2858        5        /*T***********************************************************/
     2859        6        ASA$KEYCONV: PROC ( KEY, FIELD );
     2860        7
     2861        8
     2862        9    1   DCL 1 KEY ALIGNED ,
     2863       10    1          2 CNT UBIN(9) UNAL ,
     2864       11    1          2 TEXT CHAR(20) UNAL ;
     2865       12    1   DCL 1 FIELD ALIGNED,
     2866       13    1          2 CNT UBIN(9) UNAL ,
     2867       14    1          2 TEXT CHAR(40) UNAL ;
     2868       15
     2869       16    1   DCL I SBIN;
     2870       17
     2871       18
     2872       19    1   IF KEY.CNT <= 8
     2873       20    1   THEN FIELD = KEY;
     2874       21    2   ELSE DO;
     2875       22    2      CALL INDEX( I, ' ', SUBSTR( KEY.TEXT,0,8) );
     2876       23    2      CALL CONCAT(FIELD.TEXT, SUBSTR(KEY.TEXT,0,I), ',',SUBSTR(KEY.TEXT,8));
     2877       24    2      FIELD.CNT = I + KEY.CNT - 7;
     2878       25    2      END;
     2879       26
     2880       27    1   END ASA$KEYCONV;

PL6.E3A0      #003=ASA$KEYCONV File=ASA$SUPER.:E05TSI                            TUE 07/29/97 08:53 Page:506
--  Include file information  --

   B$JIT_C.:E05TOU  was found in the system file and is never referenced.
   CP_6_C.:E05TOU  was found in the system file and is never referenced.
      No diagnostics issued in procedure ASA$KEYCONV.

   Procedure ASA$KEYCONV requires 43 words for executable code.
   Procedure ASA$KEYCONV requires 6 words of local(AUTO) storage.

    No errors detected in file ASA$SUPER.:E05TSI    .

PL6.E3A0      #003=ASA$KEYCONV File=ASA$SUPER.:E05TSI                            TUE 07/29/97 08:53 Page:507

 Object Unit name= ASA$KEYCONV                                File name= ASA$SUPER.:E05TOU
 UTS= JUL 29 '97 08:53:42.92 TUE                              Compiler= PL-6/E31         Sev=      00
 SharedLib= :SHARED_SYSTEM                                    Alt SharedLib=


    ****  Control sections  ****

 Sect   Type Bound  Init  Size OctSiz  Section name(segment info)
    0   Proc  even  none    43     53  ASA$KEYCONV
    1  RoData even  none     1      1  ASA$KEYCONV

    ****  Entry defs  ****

                              Check   Calling
                             calling  sequence
  Sect OctLoc Primary Altret sequence   type   Parms  Name
     0      0   yes            yes      Std        2  ASA$KEYCONV

  ****  Entry refs  ****

         Check        Calling
        calling       sequence
Altret sequence SRef   type   Args  Name
                       nStd      0 X66_AUTO_2
                       Std       0 B_CONSPOOL_D
                       nStd      0 X66_ARET

  ****  Data refs  ****

  Flags:  r = read only, s = secondary
Flgs Name                             Flgs Name                             Flgs Name
     B_VECTNIL
PL6.E3A0      #003=ASA$KEYCONV File=ASA$SUPER.:E05TSI                            TUE 07/29/97 08:53 Page:508


     2854        1        /*T***********************************************************/
     2855        2        /*T*                                                         */
     2856        3        /*T* Copyright (c) Bull HN Information Systems Inc., 1997    */
     2857        4        /*T*                                                         */
     2858        5        /*T***********************************************************/
     2859        6        ASA$KEYCONV: PROC ( KEY, FIELD );

      6  0 000000   000000 700200 xent  ASA$KEYCONV  TSX0  ! X66_AUTO_2
         0 000001   000006 000002                    ZERO    6,2

     2860        7
     2861        8
     2862        9    1   DCL 1 KEY ALIGNED ,
     2863       10    1          2 CNT UBIN(9) UNAL ,
     2864       11    1          2 TEXT CHAR(20) UNAL ;
     2865       12    1   DCL 1 FIELD ALIGNED,
     2866       13    1          2 CNT UBIN(9) UNAL ,
     2867       14    1          2 TEXT CHAR(40) UNAL ;
     2868       15
     2869       16    1   DCL I SBIN;
     2870       17
     2871       18
     2872       19    1   IF KEY.CNT <= 8

     19  0 000002   200003 470500                    LDP0    @KEY,,AUTO
         0 000003   000000 236100                    LDQ     0,,PR0
         0 000004   777000 376003                    ANQ     -512,DU
         0 000005   011000 116003                    CMPQ    4608,DU
         0 000006   000014 603000 0                  TRC     s:22

     2873       20    1   THEN FIELD = KEY;

     20  0 000007   200004 471500                    LDP1    @FIELD,,AUTO
         0 000010   000100 100500                    MLR     fill='000'O
         0 000011   000000 000025                    ADSC9   0,,PR0                   cn=0,n=21
         0 000012   100000 000051                    ADSC9   0,,PR1                   cn=0,n=41
PL6.E3A0      #003=ASA$KEYCONV File=ASA$SUPER.:E05TSI                            TUE 07/29/97 08:53 Page:509
         0 000013   000052 710000 0                  TRA     s:27

     2874       21    2   ELSE DO;

     2875       22    2      CALL INDEX( I, ' ', SUBSTR( KEY.TEXT,0,8) );

     22  0 000014   000000 124500                    SCM     mask='000'O
         0 000015   000000 200010                    ADSC9   0,,PR0                   cn=1,n=8
         0 000016   000035 000001 xsym               ADSC9   B_VECTNIL+29             cn=0,n=1
         0 000017   200005 000100                    ARG     I,,AUTO

     2876       23    2      CALL CONCAT(FIELD.TEXT, SUBSTR(KEY.TEXT,0,I), ',',SUBSTR(KEY.TEXT,8));

     23  0 000020   200005 720100                    LXL0    I,,AUTO
         0 000021   200004 471500                    LDP1    @FIELD,,AUTO
         0 000022   040100 100540                    MLR     fill='040'O
         0 000023   000000 200010                    ADSC9   0,,PR0                   cn=1,n=*X0
         0 000024   100000 200050                    ADSC9   0,,PR1                   cn=1,n=40
         0 000025   200005 236100                    LDQ     I,,AUTO
         0 000026   000050 116007                    CMPQ    40,DL
         0 000027   000044 605000 0                  TPL     s:24
         0 000030   777727 621006                    EAX1    -41,QL
         0 000031   777777 661003                    ERX1    -1,DU
         0 000032   040146 100400                    MLR     fill='040'O
         0 000033   000000 000001 1                  ADSC9   0                        cn=0,n=1
         0 000034   100000 200011                    ADSC9   0,Q,PR1                  cn=1,n=*X1
         0 000035   000047 116007                    CMPQ    39,DL
         0 000036   000044 605000 0                  TPL     s:24
         0 000037   777730 622006                    EAX2    -40,QL
         0 000040   777777 662003                    ERX2    -1,DU
         0 000041   040146 100500                    MLR     fill='040'O
         0 000042   000002 200014                    ADSC9   2,,PR0                   cn=1,n=12
         0 000043   100000 400012                    ADSC9   0,Q,PR1                  cn=2,n=*X2

     2877       24    2      FIELD.CNT = I + KEY.CNT - 7;

     24  0 000044   000000 236100                    LDQ     0,,PR0
PL6.E3A0      #003=ASA$KEYCONV File=ASA$SUPER.:E05TSI                            TUE 07/29/97 08:53 Page:510
         0 000045   000033 772000                    QRL     27
         0 000046   200005 036100                    ADLQ    I,,AUTO
         0 000047   000007 136007                    SBLQ    7,DL
         0 000050   000033 736000                    QLS     27
         0 000051   100000 552140                    STBQ    0,'40'O,PR1

     2878       25    2      END;

     2879       26
     2880       27    1   END ASA$KEYCONV;

     27  0 000052   000000 702200 xent               TSX2  ! X66_ARET

PL6.E3A0      #003=ASA$KEYCONV File=ASA$SUPER.:E05TSI                            TUE 07/29/97 08:53 Page:511
--  Include file information  --

   B$JIT_C.:E05TOU  was found in the system file and is never referenced.
   CP_6_C.:E05TOU  was found in the system file and is never referenced.
      No diagnostics issued in procedure ASA$KEYCONV.
PL6.E3A0      #003=ASA$KEYCONV File=ASA$SUPER.:E05TSI                            TUE 07/29/97 08:53 Page:512

 **** Variables and constants ****

  ****  Auto variables  ****

  ****  Scalars and arrays  ****
OctLoc.c.b A Datatyp(siz) R M Lvl/name                 OctLoc.c.b A Datatyp(siz) R M Lvl/name

     4-0-0/w PTR         r     1 @FIELD                     3-0-0/w PTR         r     1 @KEY
    *0-0-0/w STRC(369)   r     1 FIELD                      5-0-0/w SBIN        r     1 I
    *0-0-0/w STRC(189)   r     1 KEY


   Procedure ASA$KEYCONV requires 43 words for executable code.
   Procedure ASA$KEYCONV requires 6 words of local(AUTO) storage.

    No errors detected in file ASA$SUPER.:E05TSI    .
PL6.E3A0      #003=ASA$KEYCONV File=ASA$SUPER.:E05TSI                            TUE 07/29/97 08:53 Page:513
          *** CROSS REFERENCE LISTING ***
**     DENOTES     IDENTIFIER DEFINITION
<<                 IDENTIFIER'S VALUE SET
>>                 IDENTIFIER'S VALUE USED
<>                 IDENTIFIER SET AND/OR USED
--                 IDENTIFIER REFERENCED
PL6.E3A0      #003=ASA$KEYCONV File=ASA$SUPER.:E05TSI                            TUE 07/29/97 08:53 Page:514
          MINI XREF LISTING

FIELD
        12**DCL         6--PROC       20<<ASSIGN
FIELD.CNT
        13**DCL        24<<ASSIGN
FIELD.TEXT
        14**DCL        23<<CALLBLT
I
        16**DCL        22<<CALLBLT    23>>CALLBLT    24>>ASSIGN
KEY
         9**DCL         6--PROC       20>>ASSIGN
KEY.CNT
        10**DCL        19>>IF         24>>ASSIGN
KEY.TEXT
        11**DCL        22>>CALLBLT    23>>CALLBLT    23>>CALLBLT
