PL6.E3A0      #002=ASB$VALID_TDEVICE File=ASA$TERMINAL.:E05TSI                   TUE 07/29/97 08:49 Page:169
      957        1        /*T***********************************************************/
      958        2        /*T*                                                         */
      959        3        /*T* Copyright (c) Bull HN Information Systems Inc., 1997    */
      960        4        /*T*                                                         */
      961        5        /*T***********************************************************/
      962        6        %EJECT;
PL6.E3A0      #002=ASB$VALID_TDEVICE File=ASA$TERMINAL.:E05TSI                   TUE 07/29/97 08:49 Page:170
      963        7        /*M* ASB$VALID_TDEVICE - validates a terminal device name. */
      964        8        /*P*  NAME:   ASB$VALID_TDEVICE
      965        9              PURPOSE: To validate a terminal device name.
      966       10              DESCRIPTION:
      967       11                  A terminal device name is of the form "ddnn" where
      968       12                  "dd" is the device type and "nn" are 2 decimal digits.
      969       13                  The character set for a device type consists of uppercase
      970       14                  letters (A-Z) and digits (0-9).
      971       15        */
      972       16
      973       17        ASB$VALID_TDEVICE: PROC( OUT_SYM ) ALTRET;
      974       18
      975       19        /********************************************************************/
      976       20        /*    Include files       include files       include files         */
      977       21        /********************************************************************/
      978       22
      979       23        %INCLUDE           AS_ENTRIES_M   ;
      980     1073        %INCLUDE           AS_SUPER_C     ;
      981     1508        %INCLUDE           AS_PERR_C      ;
      982     2110        %INCLUDE           AS_SUBS_C      ;
      983     3524        %INCLUDE           AS_MAC_C       ;
      984     3604        %INCLUDE           KL_SUPER_C     ;
      985     6506        %INCLUDE           XU_MACRO_C     ;
      986     9612        %INCLUDE           XU_FORMAT_C    ;
      987     9774        %INCLUDE           AS_SUPER_R     ;
      988    12790
      989    12791        /********************************************************************/
      990    12792        /*    Parameter           parameter           parameter             */
      991    12793        /********************************************************************/
      992    12794
      993    12795        %PARSE$SYM( NAME=OUT_SYM, STCLASS=" " );
      994    12833
      995    12834        /********************************************************************/
      996    12835        /*    Auto data           auto data           auto data             */
      997    12836        /********************************************************************/
      998    12837
      999    12838    1   DCL I SBIN;
PL6.E3A0      #002=ASB$VALID_TDEVICE File=ASA$TERMINAL.:E05TSI                   TUE 07/29/97 08:49 Page:171
     1000    12839    1   DCL J SBIN;
     1001    12840    1   DCL DDNN CHAR(4);
     1002    12841    1   DCL DDNN_A(0:3) REDEF DDNN CHAR(1);
     1003    12842
     1004    12843        /********************************************************************/
     1005    12844        /*    Entry dcls          entry dcls          entry dcls            */
     1006    12845        /********************************************************************/
     1007    12846
     1008    12847        %ASH$ERROR ;
     1009    12850
     1010    12851        %EJECT;
PL6.E3A0      #002=ASB$VALID_TDEVICE File=ASA$TERMINAL.:E05TSI                   TUE 07/29/97 08:49 Page:172
     1011    12852    2   IF OUT_SYM.COUNT ~= 4 THEN DO;
     1012    12853        /*E*  ERROR:    ASA-E$BAD_M_DEV_CON-C
     1013    12854              MESSAGE0: A terminal device name must be 4 characters.
     1014    12855              MESSAGE1: A terminal device name must have a 2 character device type
     1015    12856                        and 2 decimal digits.
     1016    12857        */
     1017    12858           %SCREAM( ERR#=E$BAD_M_DEV_CON, LEVEL=ERROR, MID='A') ;
     1018    12873    2      ALTRETURN;
     1019    12874    2      END ; /* Then do */
     1020    12875    1   DDNN = OUT_SYM.TEXT ;
     1021    12876    2   DO I = 0 TO 1 ;
     1022    12877    2      CALL INDEX( J, DDNN_A(I), AS_VALID_DEVICE_TYPE_CHARS ) ALTRET(
             12877               BAD_DEVICE_TYPE_CHAR ) ;
     1023    12878    3      DO WHILE( '0'B );
     1024    12879    3   BAD_DEVICE_TYPE_CHAR:
     1025    12880        /*E*  ERROR:    ASA-E$INVALID_DEV_TYPE_CHAR-C
     1026    12881              MESSAGE0: "%U1" is an invalid character for a device type.
     1027    12882              MESSAGE1: The character set for a device type consists of uppercase
     1028    12883                        letters (A-Z) and digits (0-9).
     1029    12884        */
     1030    12885    3         AS_FIELD1.COUNT = 1 ;
     1031    12886    3         AS_FIELD1.TEXT  = DDNN_A(I) ;
     1032    12887              %SCREAM( ERR#=E$INVALID_DEV_TYPE_CHAR, LEVEL=ERROR, MID='A') ;
     1033    12902    3         ALTRETURN;
     1034    12903    3         END ;
     1035    12904    2      END ; /* Do i */
     1036    12905    2   DO I = 2 TO 3 ;
     1037    12906    2      CALL INDEX( J, DDNN_A(I), SUBSTR(AS_VALID_DEVICE_TYPE_CHARS,0,10) )  ALTRET(
             12906               NOT_DECIMAL ) ;
     1038    12907    3      DO WHILE( '0'B );
     1039    12908    3   NOT_DECIMAL:
     1040    12909        /*E*  ERROR:    ASA-E$MUST_BE_DECIMAL-C
     1041    12910              MESSAGE0: Two decimal digits must follow the device type (e.g., %U101).
     1042    12911        */
     1043    12912    3         AS_FIELD1.COUNT = 2 ;
     1044    12913    3         AS_FIELD1.TEXT = OUT_SYM.TEXT ;
     1045    12914              %SCREAM( ERR#=E$MUST_BE_DECIMAL, LEVEL=ERROR,MID='A');
PL6.E3A0      #002=ASB$VALID_TDEVICE File=ASA$TERMINAL.:E05TSI                   TUE 07/29/97 08:49 Page:173
     1046    12929    3         ALTRETURN;
     1047    12930    3         END;
     1048    12931    2      END ; /* Do i */
     1049    12932
     1050    12933    1   END ASB$VALID_TDEVICE;

PL6.E3A0      #002=ASB$VALID_TDEVICE File=ASA$TERMINAL.:E05TSI                   TUE 07/29/97 08:49 Page:174
--  Include file information  --

   AS_SUPER_R.:E05TOU  cannot be made into a system file and is referenced.
   XU_FORMAT_C.:E05TOU  is referenced.
   XU_MACRO_C.:E05TOU  is referenced.
   KL_SUPER_C.:E05TOU  is referenced.
   AS_MAC_C.:E05TOU  cannot be made into a system file and is referenced.
   AS_SUBS_C.:E05TOU  is referenced.
   AS_PERR_C.:E05TOU  is referenced.
   AS_SUPER_C.:E05TOU  is referenced.
   AS_ENTRIES_M.:E05TOU  is referenced.
   B$JIT_C.:E05TOU  was found in the system file and is never referenced.
   CP_6_C.:E05TOU  was found in the system file and is never referenced.
      No diagnostics issued in procedure ASB$VALID_TDEVICE.

   Procedure ASB$VALID_TDEVICE requires 69 words for executable code.
   Procedure ASB$VALID_TDEVICE requires 8 words of local(AUTO) storage.

    No errors detected in file ASA$TERMINAL.:E05TSI    .

PL6.E3A0      #002=ASB$VALID_TDEVICE File=ASA$TERMINAL.:E05TSI                   TUE 07/29/97 08:49 Page:175

 Object Unit name= ASB$VALID_TDEVICE                          File name= ASA$TERMINAL.:E05TOU
 UTS= JUL 29 '97 08:49:59.24 TUE                              Compiler= PL-6/E31         Sev=      00
 SharedLib= :SHARED_SYSTEM                                    Alt SharedLib=


    ****  Control sections  ****

 Sect   Type Bound  Init  Size OctSiz  Section name(segment info)
    0   DCB   even  none     0      0  M$LO
    1  RoData even  UTS      3      3  ASB$VALID_TDEVICE
    2   Proc  even  none    69    105  ASB$VALID_TDEVICE
    3  RoData even  none     3      3  ASB$VALID_TDEVICE

    ****  Entry defs  ****

                              Check   Calling
                             calling  sequence
  Sect OctLoc Primary Altret sequence   type   Parms  Name
     2      0   yes    yes     yes      Std        1  ASB$VALID_TDEVICE

  ****  Entry refs  ****

         Check        Calling
        calling       sequence
Altret sequence SRef   type   Args  Name
         yes          ~proc      0 XU_OUTPUT_OPTIONS
         yes           Std       2 ASH$ERROR
                       nStd      0 X66_AUTO_1
                       Std       0 B_CONSPOOL_D
                       nStd      0 X66_AALT
                       nStd      0 X66_ARET
PL6.E3A0      #002=ASB$VALID_TDEVICE File=ASA$TERMINAL.:E05TSI                   TUE 07/29/97 08:49 Page:176

  ****  Data refs  ****

  Flags:  r = read only, s = secondary
Flgs Name                             Flgs Name                             Flgs Name
r    AS_VALID_DEVICE_TYPE_CHARS       r    AS_MODE                          r    AS_FE_MODE
     M$LO                                  ERR_CODE                              AS_FIELD1
     REMEM_VAR                             REM_FCMD                              ASA_BRKS_LOC
     B_VECTNIL

  ****  Segment refs  ****

  Flags:  r = read only, s = secondary
Flgs Name                             Flgs Name                             Flgs Name
     ISSID
PL6.E3A0      #002=ASB$VALID_TDEVICE File=ASA$TERMINAL.:E05TSI                   TUE 07/29/97 08:49 Page:177


      957        1        /*T***********************************************************/
      958        2        /*T*                                                         */
      959        3        /*T* Copyright (c) Bull HN Information Systems Inc., 1997    */
      960        4        /*T*                                                         */
      961        5        /*T***********************************************************/
      962        6        %EJECT;
PL6.E3A0      #002=ASB$VALID_TDEVICE File=ASA$TERMINAL.:E05TSI                   TUE 07/29/97 08:49 Page:178
      963        7        /*M* ASB$VALID_TDEVICE - validates a terminal device name. */
      964        8        /*P*  NAME:   ASB$VALID_TDEVICE
      965        9              PURPOSE: To validate a terminal device name.
      966       10              DESCRIPTION:
      967       11                  A terminal device name is of the form "ddnn" where
      968       12                  "dd" is the device type and "nn" are 2 decimal digits.
      969       13                  The character set for a device type consists of uppercase
      970       14                  letters (A-Z) and digits (0-9).
      971       15        */
      972       16
      973       17        ASB$VALID_TDEVICE: PROC( OUT_SYM ) ALTRET;

     17  2 000000   000000 700200 xent  ASB$VALID_T* TSX0  ! X66_AUTO_1
         2 000001   000010 000001                    ZERO    8,1

      974       18
      975       19        /********************************************************************/
      976       20        /*    Include files       include files       include files         */
      977       21        /********************************************************************/
      978       22
      979       23        %INCLUDE           AS_ENTRIES_M   ;
      980     1073        %INCLUDE           AS_SUPER_C     ;
      981     1508        %INCLUDE           AS_PERR_C      ;
      982     2110        %INCLUDE           AS_SUBS_C      ;
      983     3524        %INCLUDE           AS_MAC_C       ;
      984     3604        %INCLUDE           KL_SUPER_C     ;
      985     6506        %INCLUDE           XU_MACRO_C     ;
      986     9612        %INCLUDE           XU_FORMAT_C    ;
      987     9774        %INCLUDE           AS_SUPER_R     ;
      988    12790
      989    12791        /********************************************************************/
      990    12792        /*    Parameter           parameter           parameter             */
      991    12793        /********************************************************************/
      992    12794
      993    12795        %PARSE$SYM( NAME=OUT_SYM, STCLASS=" " );
      994    12833
      995    12834        /********************************************************************/
PL6.E3A0      #002=ASB$VALID_TDEVICE File=ASA$TERMINAL.:E05TSI                   TUE 07/29/97 08:49 Page:179
      996    12835        /*    Auto data           auto data           auto data             */
      997    12836        /********************************************************************/
      998    12837
      999    12838    1   DCL I SBIN;
     1000    12839    1   DCL J SBIN;
     1001    12840    1   DCL DDNN CHAR(4);
     1002    12841    1   DCL DDNN_A(0:3) REDEF DDNN CHAR(1);
     1003    12842
     1004    12843        /********************************************************************/
     1005    12844        /*    Entry dcls          entry dcls          entry dcls            */
     1006    12845        /********************************************************************/
     1007    12846
     1008    12847        %ASH$ERROR ;
     1009    12850
     1010    12851        %EJECT;
PL6.E3A0      #002=ASB$VALID_TDEVICE File=ASA$TERMINAL.:E05TSI                   TUE 07/29/97 08:49 Page:180
     1011    12852    2   IF OUT_SYM.COUNT ~= 4 THEN DO;

  12852  2 000002   200003 470500                    LDP0    @OUT_SYM,,AUTO
         2 000003   000004 236100                    LDQ     4,,PR0
         2 000004   777000 376003                    ANQ     -512,DU
         2 000005   004000 116003                    CMPQ    2048,DU
         2 000006   000014 600000 2                  TZE     s:12875

     1012    12853        /*E*  ERROR:    ASA-E$BAD_M_DEV_CON-C
     1013    12854              MESSAGE0: A terminal device name must be 4 characters.
     1014    12855              MESSAGE1: A terminal device name must have a 2 character device type
     1015    12856                        and 2 decimal digits.
     1016    12857        */
     1017    12858           %SCREAM( ERR#=E$BAD_M_DEV_CON, LEVEL=ERROR, MID='A') ;

  12870  2 000007   000000 630400 3                  EPPR0   0
         2 000010   000017 631400 xsym               EPPR1   B_VECTNIL+15
         2 000011   000000 701000 xent               TSX1    ASH$ERROR
         2 000012   000000 011000                    NOP     0

     1018    12873    2      ALTRETURN;

  12873  2 000013   000000 702200 xent               TSX2  ! X66_AALT

     1019    12874    2      END ; /* Then do */
     1020    12875    1   DDNN = OUT_SYM.TEXT ;

  12875  2 000014   000004 236100                    LDQ     4,,PR0
         2 000015   000033 772000                    QRL     27
         2 000016   000000 620006                    EAX0    0,QL
         2 000017   040100 100540                    MLR     fill='040'O
         2 000020   000004 200010                    ADSC9   4,,PR0                   cn=1,n=*X0
         2 000021   200006 000004                    ADSC9   DDNN,,AUTO               cn=0,n=4

     1021    12876    2   DO I = 0 TO 1 ;

  12876  2 000022   200004 450100                    STZ     I,,AUTO
PL6.E3A0      #002=ASB$VALID_TDEVICE File=ASA$TERMINAL.:E05TSI                   TUE 07/29/97 08:49 Page:181

     1022    12877    2      CALL INDEX( J, DDNN_A(I), AS_VALID_DEVICE_TYPE_CHARS ) ALTRET(
             12877               BAD_DEVICE_TYPE_CHAR ) ;

  12877  2 000023   200004 235100                    LDA     I,,AUTO
         2 000024   000105 124400                    SCM     mask='000'O
         2 000025   000000 000044 xsym               ADSC9   AS_VALID_DEVICE_TYPE_CHARS cn=0,n=36
         2 000026   200006 000001                    ADSC9   DDNN,A,AUTO              cn=0,n=1
         2 000027   200005 000100                    ARG     J,,AUTO
         2 000030   000032 606400 2                  TTN     BAD_DEVICE_TYPE_CHAR

     1023    12878    3      DO WHILE( '0'B );

  12878  2 000031   000045 710000 2                  TRA     s:12904

     1024    12879    3   BAD_DEVICE_TYPE_CHAR:
     1025    12880        /*E*  ERROR:    ASA-E$INVALID_DEV_TYPE_CHAR-C
     1026    12881              MESSAGE0: "%U1" is an invalid character for a device type.
     1027    12882              MESSAGE1: The character set for a device type consists of uppercase
     1028    12883                        letters (A-Z) and digits (0-9).
     1029    12884        */
     1030    12885    3         AS_FIELD1.COUNT = 1 ;

  12885  2 000032   001000 236003       BAD_DEVICE_* LDQ     512,DU
         2 000033   000000 552040 xsym               STBQ    AS_FIELD1,'40'O

     1031    12886    3         AS_FIELD1.TEXT  = DDNN_A(I) ;

  12886  2 000034   200004 235100                    LDA     I,,AUTO
         2 000035   040000 100505                    MLR     fill='040'O
         2 000036   200006 000001                    ADSC9   DDNN,A,AUTO              cn=0,n=1
         2 000037   000000 200050 xsym               ADSC9   AS_FIELD1                cn=1,n=40

     1032    12887              %SCREAM( ERR#=E$INVALID_DEV_TYPE_CHAR, LEVEL=ERROR, MID='A') ;

  12899  2 000040   000001 630400 3                  EPPR0   1
         2 000041   000017 631400 xsym               EPPR1   B_VECTNIL+15
PL6.E3A0      #002=ASB$VALID_TDEVICE File=ASA$TERMINAL.:E05TSI                   TUE 07/29/97 08:49 Page:182
         2 000042   000000 701000 xent               TSX1    ASH$ERROR
         2 000043   000000 011000                    NOP     0

     1033    12902    3         ALTRETURN;

  12902  2 000044   000000 702200 xent               TSX2  ! X66_AALT

     1034    12903    3         END ;

     1035    12904    2      END ; /* Do i */

  12904  2 000045   200004 054100                    AOS     I,,AUTO
         2 000046   200004 235100                    LDA     I,,AUTO
         2 000047   000001 115007                    CMPA    1,DL
         2 000050   000023 604400 2                  TMOZ    s:12877

     1036    12905    2   DO I = 2 TO 3 ;

  12905  2 000051   000002 236007                    LDQ     2,DL
         2 000052   200004 756100                    STQ     I,,AUTO

     1037    12906    2      CALL INDEX( J, DDNN_A(I), SUBSTR(AS_VALID_DEVICE_TYPE_CHARS,0,10) )  ALTRET(
             12906               NOT_DECIMAL ) ;

  12906  2 000053   200004 235100                    LDA     I,,AUTO
         2 000054   000105 124400                    SCM     mask='000'O
         2 000055   000000 000012 xsym               ADSC9   AS_VALID_DEVICE_TYPE_CHARS cn=0,n=10
         2 000056   200006 000001                    ADSC9   DDNN,A,AUTO              cn=0,n=1
         2 000057   200005 000100                    ARG     J,,AUTO
         2 000060   000062 606400 2                  TTN     NOT_DECIMAL

     1038    12907    3      DO WHILE( '0'B );

  12907  2 000061   000100 710000 2                  TRA     s:12931

     1039    12908    3   NOT_DECIMAL:
     1040    12909        /*E*  ERROR:    ASA-E$MUST_BE_DECIMAL-C
PL6.E3A0      #002=ASB$VALID_TDEVICE File=ASA$TERMINAL.:E05TSI                   TUE 07/29/97 08:49 Page:183
     1041    12910              MESSAGE0: Two decimal digits must follow the device type (e.g., %U101).
     1042    12911        */
     1043    12912    3         AS_FIELD1.COUNT = 2 ;

  12912  2 000062   002000 236003       NOT_DECIMAL  LDQ     1024,DU
         2 000063   000000 552040 xsym               STBQ    AS_FIELD1,'40'O

     1044    12913    3         AS_FIELD1.TEXT = OUT_SYM.TEXT ;

  12913  2 000064   200003 470500                    LDP0    @OUT_SYM,,AUTO
         2 000065   000004 236100                    LDQ     4,,PR0
         2 000066   000033 772000                    QRL     27
         2 000067   000000 620006                    EAX0    0,QL
         2 000070   040000 100540                    MLR     fill='040'O
         2 000071   000004 200010                    ADSC9   4,,PR0                   cn=1,n=*X0
         2 000072   000000 200050 xsym               ADSC9   AS_FIELD1                cn=1,n=40

     1045    12914              %SCREAM( ERR#=E$MUST_BE_DECIMAL, LEVEL=ERROR,MID='A');

  12926  2 000073   000002 630400 3                  EPPR0   2
         2 000074   000017 631400 xsym               EPPR1   B_VECTNIL+15
         2 000075   000000 701000 xent               TSX1    ASH$ERROR
         2 000076   000000 011000                    NOP     0

     1046    12929    3         ALTRETURN;

  12929  2 000077   000000 702200 xent               TSX2  ! X66_AALT

     1047    12930    3         END;

     1048    12931    2      END ; /* Do i */

  12931  2 000100   200004 054100                    AOS     I,,AUTO
         2 000101   200004 235100                    LDA     I,,AUTO
         2 000102   000003 115007                    CMPA    3,DL
         2 000103   000053 604400 2                  TMOZ    s:12906

PL6.E3A0      #002=ASB$VALID_TDEVICE File=ASA$TERMINAL.:E05TSI                   TUE 07/29/97 08:49 Page:184
     1049    12932
     1050    12933    1   END ASB$VALID_TDEVICE;

  12933  2 000104   000000 702200 xent               TSX2  ! X66_ARET

PL6.E3A0      #002=ASB$VALID_TDEVICE File=ASA$TERMINAL.:E05TSI                   TUE 07/29/97 08:49 Page:185
--  Include file information  --

   AS_SUPER_R.:E05TOU  cannot be made into a system file and is referenced.
   XU_FORMAT_C.:E05TOU  is referenced.
   XU_MACRO_C.:E05TOU  is referenced.
   KL_SUPER_C.:E05TOU  is referenced.
   AS_MAC_C.:E05TOU  cannot be made into a system file and is referenced.
   AS_SUBS_C.:E05TOU  is referenced.
   AS_PERR_C.:E05TOU  is referenced.
   AS_SUPER_C.:E05TOU  is referenced.
   AS_ENTRIES_M.:E05TOU  is referenced.
   B$JIT_C.:E05TOU  was found in the system file and is never referenced.
   CP_6_C.:E05TOU  was found in the system file and is never referenced.
      No diagnostics issued in procedure ASB$VALID_TDEVICE.
PL6.E3A0      #002=ASB$VALID_TDEVICE File=ASA$TERMINAL.:E05TSI                   TUE 07/29/97 08:49 Page:186

 **** Variables and constants ****

  ****  Auto variables  ****

  ****  Scalars and arrays  ****
OctLoc.c.b A Datatyp(siz) R M Lvl/name                 OctLoc.c.b A Datatyp(siz) R M Lvl/name

     3-0-0/w PTR         r     1 @OUT_SYM                   6-0-0/c CHAR(4)     r     1 DDNN
     6-0-0/c CHAR        r     1 DDNN_A(0:3)                4-0-0/w SBIN        r     1 I
     5-0-0/w SBIN        r     1 J                         *0-0-0/w ASTR(153)   r     1 OUT_SYM

  ****  SYMREF variables  ****

  ****  Scalars and arrays  ****
OctLoc.c.b A Datatyp(siz) R M Lvl/name                 OctLoc.c.b A Datatyp(siz) R M Lvl/name

     0-0-0/w STRC(369)   r     1 AS_FIELD1
     0-0-0/c CHAR        r     1 AS_VALID_DEVICE_TYPE_CHARS


   Procedure ASB$VALID_TDEVICE requires 69 words for executable code.
   Procedure ASB$VALID_TDEVICE requires 8 words of local(AUTO) storage.

    No errors detected in file ASA$TERMINAL.:E05TSI    .
PL6.E3A0      #002=ASB$VALID_TDEVICE File=ASA$TERMINAL.:E05TSI                   TUE 07/29/97 08:49 Page:187
          *** CROSS REFERENCE LISTING ***
**     DENOTES     IDENTIFIER DEFINITION
<<                 IDENTIFIER'S VALUE SET
>>                 IDENTIFIER'S VALUE USED
<>                 IDENTIFIER SET AND/OR USED
--                 IDENTIFIER REFERENCED
PL6.E3A0      #002=ASB$VALID_TDEVICE File=ASA$TERMINAL.:E05TSI                   TUE 07/29/97 08:49 Page:188
          MINI XREF LISTING

ASA_BRKS_LOC
      9938**DCL      9938--REDEF
ASH$ERROR
     12848**DCL-ENT 12870--CALL    12899--CALL    12926--CALL
AS_DEFAULT.BANNER_PERM
     10631**DCL     10632--REDEF
AS_DEFAULT.BUDGET.MACCT
     10536**DCL     10540--REDEF
AS_DEFAULT.BUDGET.MAX_PROJECTS
     10549**DCL     10552--REDEF
AS_DEFAULT.BUDGET.PACCUM
     10532**DCL     10534--REDEF
AS_DEFAULT.BUDGET.PMAXC
     10527**DCL     10529--REDEF
AS_DEFAULT.SETUP_CHRA.TXT
     10647**DCL     10648--REDEF   10649--REDEF
AS_DEFAULT_DREC.PASSWORD
     11901**DCL     11905--REDEF
AS_DEFAULT_DREC.RENAME
     11924**DCL     11925--REDEF
AS_DFLT.BANNER_PERM
     10453**DCL     10454--REDEF
AS_DFLT.BUDGET.MACCT
     10358**DCL     10362--REDEF
AS_DFLT.BUDGET.MAX_PROJECTS
     10371**DCL     10374--REDEF
AS_DFLT.BUDGET.PACCUM
     10354**DCL     10356--REDEF
AS_DFLT.BUDGET.PMAXC
     10349**DCL     10351--REDEF
AS_DFLT.SETUP_CHRA.TXT
     10469**DCL     10470--REDEF   10471--REDEF
PL6.E3A0      #002=ASB$VALID_TDEVICE File=ASA$TERMINAL.:E05TSI                   TUE 07/29/97 08:49 Page:189
AS_FE_MODE
      9804**DCL      9805--REDEF
AS_FIELD1.COUNT
      9935**DCL     12885<<ASSIGN  12912<<ASSIGN
AS_FIELD1.TEXT
      9935**DCL     12886<<ASSIGN  12913<<ASSIGN
AS_MODE
      9801**DCL      9803--REDEF
AS_MOD_USER.ACCESS
     12666**DCL     12667--REDEF
AS_MOD_USER.BANNER
     12653**DCL     12654--REDEF
AS_MOD_USER.BANNER_PERM
     12655**DCL     12656--REDEF
AS_MOD_USER.BILL
     12661**DCL     12662--REDEF
AS_MOD_USER.CPROC
     12657**DCL     12658--REDEF
AS_MOD_USER.FEBILL
     12737**DCL     12738--REDEF
AS_MOD_USER.FECXTMEM
     12754**DCL     12755--REDEF
AS_MOD_USER.FEMINTS
     12739**DCL     12740--REDEF
AS_MOD_USER.FEMMEM
     12750**DCL     12751--REDEF
AS_MOD_USER.FEMTIME
     12748**DCL     12749--REDEF
AS_MOD_USER.FEPPRIV
     12745**DCL     12747--REDEF
AS_MOD_USER.FEPRIV
     12742**DCL     12744--REDEF
AS_MOD_USER.FORCE_BIT
     12651**DCL     12652--REDEF
AS_MOD_USER.KEY
     12733**DCL     12735--REDEF
PL6.E3A0      #002=ASB$VALID_TDEVICE File=ASA$TERMINAL.:E05TSI                   TUE 07/29/97 08:49 Page:190
AS_MOD_USER.LASTCPROC
     12659**DCL     12660--REDEF
AS_MOD_USER.LIMITS.DO_
     12707**DCL     12708--REDEF
AS_MOD_USER.LIMITS.FPOOLS
     12723**DCL     12724--REDEF
AS_MOD_USER.LIMITS.LO
     12703**DCL     12704--REDEF
AS_MOD_USER.LIMITS.MEM
     12699**DCL     12700--REDEF
AS_MOD_USER.LIMITS.MPRIO
     12727**DCL     12728--REDEF
AS_MOD_USER.LIMITS.PDIS
     12715**DCL     12716--REDEF
AS_MOD_USER.LIMITS.PO
     12711**DCL     12712--REDEF
AS_MOD_USER.LIMITS.TDIS
     12719**DCL     12720--REDEF
AS_MOD_USER.LIMITS.TIME
     12695**DCL     12696--REDEF
AS_MOD_USER.MAXENQ
     12676**DCL     12677--REDEF
AS_MOD_USER.PERM_BIT
     12649**DCL     12650--REDEF
AS_MOD_USER.PPRIV
     12671**DCL     12673--REDEF
AS_MOD_USER.PRIOB
     12678**DCL     12679--REDEF
AS_MOD_USER.PRIV
     12668**DCL     12670--REDEF
AS_MOD_USER.QUAN
     12674**DCL     12675--REDEF
AS_MOD_USER.SETUP
     12647**DCL     12648--REDEF
AS_PROJECT.BANNER_PERM
     10987**DCL     10988--REDEF
PL6.E3A0      #002=ASB$VALID_TDEVICE File=ASA$TERMINAL.:E05TSI                   TUE 07/29/97 08:49 Page:191
AS_PROJECT.BUDGET.MACCT
     10892**DCL     10896--REDEF
AS_PROJECT.BUDGET.MAX_PROJECTS
     10905**DCL     10908--REDEF
AS_PROJECT.BUDGET.PACCUM
     10888**DCL     10890--REDEF
AS_PROJECT.BUDGET.PMAXC
     10883**DCL     10885--REDEF
AS_PROJECT.SETUP_CHRA.TXT
     11003**DCL     11004--REDEF   11005--REDEF
AS_PROJECT_DFLT.BANNER_PERM
     11165**DCL     11166--REDEF
AS_PROJECT_DFLT.BUDGET.MACCT
     11070**DCL     11074--REDEF
AS_PROJECT_DFLT.BUDGET.MAX_PROJECTS
     11083**DCL     11086--REDEF
AS_PROJECT_DFLT.BUDGET.PACCUM
     11066**DCL     11068--REDEF
AS_PROJECT_DFLT.BUDGET.PMAXC
     11061**DCL     11063--REDEF
AS_PROJECT_DFLT.SETUP_CHRA.TXT
     11181**DCL     11182--REDEF   11183--REDEF
AS_PROJECT_DFLT_DREC.PASSWORD
     12387**DCL     12391--REDEF
AS_PROJECT_DFLT_DREC.RENAME
     12410**DCL     12411--REDEF
AS_PROJECT_DREC.PASSWORD
     12225**DCL     12229--REDEF
AS_PROJECT_DREC.RENAME
     12248**DCL     12249--REDEF
AS_PROJ_ADMIN.BANNER_PERM
     10809**DCL     10810--REDEF
AS_PROJ_ADMIN.BUDGET.MACCT
     10714**DCL     10718--REDEF
AS_PROJ_ADMIN.BUDGET.MAX_PROJECTS
     10727**DCL     10730--REDEF
PL6.E3A0      #002=ASB$VALID_TDEVICE File=ASA$TERMINAL.:E05TSI                   TUE 07/29/97 08:49 Page:192
AS_PROJ_ADMIN.BUDGET.PACCUM
     10710**DCL     10712--REDEF
AS_PROJ_ADMIN.BUDGET.PMAXC
     10705**DCL     10707--REDEF
AS_PROJ_ADMIN.SETUP_CHRA.TXT
     10825**DCL     10826--REDEF   10827--REDEF
AS_PROJ_ADMIN_DREC.PASSWORD
     12063**DCL     12067--REDEF
AS_PROJ_ADMIN_DREC.RENAME
     12086**DCL     12087--REDEF
AS_USERS.BANNER_PERM
     10275**DCL     10276--REDEF
AS_USERS.BUDGET.MACCT
     10180**DCL     10184--REDEF
AS_USERS.BUDGET.MAX_PROJECTS
     10193**DCL     10196--REDEF
AS_USERS.BUDGET.PACCUM
     10176**DCL     10178--REDEF
AS_USERS.BUDGET.PMAXC
     10171**DCL     10173--REDEF
AS_USERS.SETUP_CHRA.TXT
     10291**DCL     10292--REDEF   10293--REDEF
AS_USERS_CONSTANT.BANNER_PERM
     11343**DCL     11344--REDEF
AS_USERS_CONSTANT.BUDGET.MACCT
     11248**DCL     11252--REDEF
AS_USERS_CONSTANT.BUDGET.MAX_PROJECTS
     11261**DCL     11264--REDEF
AS_USERS_CONSTANT.BUDGET.PACCUM
     11244**DCL     11246--REDEF
AS_USERS_CONSTANT.BUDGET.PMAXC
     11239**DCL     11241--REDEF
AS_USERS_CONSTANT.SETUP_CHRA.TXT
     11359**DCL     11360--REDEF   11361--REDEF
AS_VALID_DEVICE_TYPE_CHARS
      9799**DCL     12877>>CALLBLT 12906>>CALLBLT
PL6.E3A0      #002=ASB$VALID_TDEVICE File=ASA$TERMINAL.:E05TSI                   TUE 07/29/97 08:49 Page:193
BAD_DEVICE_TYPE_CHAR
     12885**LABEL   12877--CALLALT
DDNN
     12840**DCL     12841--REDEF   12875<<ASSIGN
DDNN_A
     12841**DCL     12877>>CALLBLT 12886>>ASSIGN  12906>>CALLBLT
ERR_CODE
      9933**DCL      9934--REDEF
I
     12838**DCL     12876<<DOINDEX 12877>>CALLBLT 12886>>ASSIGN  12905<<DOINDEX 12906>>CALLBLT
J
     12839**DCL     12877<<CALLBLT 12906<<CALLBLT
KL_DEFAULT.PASSWORD
     12549**DCL     12553--REDEF
KL_DEFAULT.RENAME
     12572**DCL     12573--REDEF
KL_DFLT.PASSWORD
     11739**DCL     11743--REDEF
KL_DFLT.RENAME
     11762**DCL     11763--REDEF
KL_DREC.PASSWORD
     11577**DCL     11581--REDEF
KL_DREC.RENAME
     11600**DCL     11601--REDEF
KL_DREC_CNT.PASSWORD
     11464**DCL     11468--REDEF
KL_DREC_CNT.RENAME
     11487**DCL     11488--REDEF
NOT_DECIMAL
     12912**LABEL   12906--CALLALT
OUT_SYM
     12802**DCL        17--PROC
OUT_SYM.COUNT
     12825**DCL     12828--IMP-SIZ 12852>>IF      12875>>ASSIGN  12913>>ASSIGN
OUT_SYM.TEXT
     12828**DCL     12875>>ASSIGN  12913>>ASSIGN
PL6.E3A0      #002=ASB$VALID_TDEVICE File=ASA$TERMINAL.:E05TSI                   TUE 07/29/97 08:49 Page:194
PROJ_KEY.TEXT
      9811**DCL      9811--REDEF
PROJ_KEY.TXT.PROJECT
      9811**DCL      9811--REDEF
REMEM_VAR
      9937**DCL      9937--REDEF
REM_FCMD
      9937**DCL      9938--REDEF
USERS_KEY.TEXT
      9808**DCL      9809--REDEF    9809--REDEF    9809--REDEF    9810--REDEF
