VERSION E05

PL6.E3A0      #001=ASA$TIE_PROJECT File=ASA$TIE_PROJECT.:E05TSI                  TUE 07/29/97 08:51 Page:1
        1        1        /*M* ASA$TIE_PROJECT - ties a project to another project as a sub-project. */
        2        2        /*T***********************************************************/
        3        3        /*T*                                                         */
        4        4        /*T* Copyright (c) Bull HN Information Systems Inc., 1997    */
        5        5        /*T*                                                         */
        6        6        /*T***********************************************************/
        7        7        ASA$TIE_PROJECT: PROC( TIE_PROJ, PROJECT, PSET_COUNT, REPORT );
        8        8
        9        9
       10       10        %INCLUDE AS_ENTRIES_M ;
       11     1060        %INCLUDE AS_SUBS_C    ;
       12     2474        %INCLUDE AS_PERR_C    ;
       13     3076        %INCLUDE AS_MAC_C     ;
       14     3156        %INCLUDE AS_SUPER_C   ;
       15     3591        %INCLUDE XU_MACRO_C   ;
       16     6697        %INCLUDE XU_FORMAT_C  ;
       17     6859        %INCLUDE KL_SUPER_C   ;
       18     9761        %INCLUDE AS_SUPER_R   ;
       19    12777
       20    12778    1   DCL 1 TIE_PROJ,
       21    12779    1          2 COUNT UBIN BYTE UNAL,
       22    12780    1          2 TEXT CHAR(20);
       23    12781    1   DCL 1 PROJECT,
       24    12782    1          2 COUNT UBIN BYTE UNAL,
       25    12783    1          2 TEXT CHAR(20);
       26    12784    1   DCL PSET_COUNT SBIN;
       27    12785    1   DCL REPORT BIT(1) ALIGNED;
       28    12786
       29    12787        %AS$PROJ_HEADER( NAME="PSET$LIST(0:0)", STCLASS="BASED(DSEG1$)", LAST="," );
       30    12816    1          2 PSN CHAR(8);
       31    12817        %AS$PROJ( STCLASS="BASED(DSEG2$)" );
       32    12851
       33    12852        %ASB$GET ;
       34    12855        %ASB$WRITE_USERS ;
       35    12858        %ASB$WRITE_USERS_KEY ;
       36    12861        %ASB$READ_PROJ ;
       37    12864        %ASB$WRITE_PROJ ;
PL6.E3A0      #001=ASA$TIE_PROJECT File=ASA$TIE_PROJECT.:E05TSI                  TUE 07/29/97 08:51 Page:2
       38    12867        %ASH$ERROR ;
       39    12870        %ASH$INFO ;
       40    12873        %ASA$KEYCONV ;
       41    12876
       42    12877    1   DCL I SBIN;
       43    12878    1   DCL J SBIN;
       44    12879    1   DCL ARS SBIN;
       45    12880
       46    12881    1   AS_PROJECT.BUDGET.MACCT = PROJECT;
       47    12882    1   AS_DEFAULT.BUDGET.SUB_PROJS = AS_DEFAULT.BUDGET.SUB_PROJS
       48    12883    1        + AS_PROJECT.BUDGET.MAX_PROJECTS + 1;
       49    12884    1   AS_DEFAULT.BUDGET.PROJ_CREATED = AS_DEFAULT.BUDGET.PROJ_CREATED
       50    12885    1        + AS_PROJECT_DFLT.BUDGET.PROJ_ALLOWED;
       51    12886    1   USERS_KEY = PROJECT;
       52    12887    1   USERS_KEY.UKEY.S = 'S';
       53    12888    1   USERS_KEY.COUNT = 21;
       54    12889    1   CALL ASB$WRITE_USERS( AS_DEFAULT );
       55    12890    1   USERS_KEY = TIE_PROJ;
       56    12891    1   CALL ASB$WRITE_USERS( AS_PROJECT );
       57    12892    1   CALL CONCAT( USERS_KEY.TXTC, BINASC(1), PROJECT.TEXT, TIE_PROJ.TEXT );
       58    12893    1   CALL INDEX( I, AS_BLANK, USERS_KEY.TXTC, 29 );
       59    12894    1   USERS_KEY.COUNT = I;
       60    12895    1   CALL ASB$WRITE_USERS_KEY;
       61    12896    2   IF REPORT THEN DO;
       62    12897        /*E*  ERROR:      ASA-E$PROJ_TIED-C
       63    12898              MESSAGE:.. Project "%U1" tied to project "%U2".
       64    12899        */
       65    12900    2      CALL ASA$KEYCONV( TIE_PROJ, AS_FIELD1 );
       66    12901    2      CALL ASA$KEYCONV( PROJECT,  AS_FIELD2 );
       67    12902           %SCREAM( ERR#=E$PROJ_TIED, LEVEL=INFO, MID='A' );
       68    12917    2      END;
       69    12918
       70    12919    1   PROJ_KEY = PROJECT;
       71    12920    2   DO I = 0 TO PSET_COUNT-1;
       72    12921    2      PROJ_KEY.TXT.PACKSET = PSET$LIST.PSN(I);
       73    12922    2      CALL INDEX( J, AS_BLANK, PROJ_KEY.TEXT, 20 );
       74    12923    2      PROJ_KEY.COUNT = J;
PL6.E3A0      #001=ASA$TIE_PROJECT File=ASA$TIE_PROJECT.:E05TSI                  TUE 07/29/97 08:51 Page:3
       75    12924    2      ARS = DSEG2SIZE;
       76    12925    2      CALL ASB$READ_PROJ( DSEG2$, ARS, 2 ) ALTRET(IO_ERR);
       77    12926    2      AS$PROJ.SUB_PROJ_ACCTS = AS$PROJ.SUB_PROJ_ACCTS + PSET$LIST.MAX_NUM_ACCTS(I);
       78    12927    2      AS$PROJ.GRANS_ACCUM= AS$PROJ.GRANS_ACCUM + PSET$LIST.MAX_NUM_GRANS(I);
       79    12928    2      CALL ASB$WRITE_PROJ( DSEG2$, ARS ) ALTRET(IO_ERR);
       80    12929    3      DO WHILE('0'B);
       81    12930    3   IO_ERR: CALL ASH$ERROR( ERR_CODE );
       82    12931    3         END;
       83    12932    2      END;
       84    12933
       85    12934    1   EXIT#: RETURN;
       86    12935
       87    12936    1   END ASA$TIE_PROJECT;

PL6.E3A0      #001=ASA$TIE_PROJECT File=ASA$TIE_PROJECT.:E05TSI                  TUE 07/29/97 08:51 Page:4
--  Include file information  --

   AS_SUPER_R.:E05TOU  cannot be made into a system file and is referenced.
   KL_SUPER_C.:E05TOU  is referenced.
   XU_FORMAT_C.:E05TOU  is referenced.
   XU_MACRO_C.:E05TOU  is referenced.
   AS_SUPER_C.:E05TOU  is referenced.
   AS_MAC_C.:E05TOU  cannot be made into a system file and is referenced.
   AS_PERR_C.:E05TOU  is referenced.
   AS_SUBS_C.:E05TOU  is referenced.
   AS_ENTRIES_M.:E05TOU  is referenced.
      No diagnostics issued in procedure ASA$TIE_PROJECT.

   Procedure ASA$TIE_PROJECT requires 146 words for executable code.
   Procedure ASA$TIE_PROJECT requires 14 words of local(AUTO) storage.

    No errors detected in file ASA$TIE_PROJECT.:E05TSI    .

PL6.E3A0      #001=ASA$TIE_PROJECT File=ASA$TIE_PROJECT.:E05TSI                  TUE 07/29/97 08:51 Page:5

 Object Unit name= ASA$TIE_PROJECT                            File name= ASA$TIE_PROJECT.:E05TOU
 UTS= JUL 29 '97 08:51:42.80 TUE                              Compiler= PL-6/E31         Sev=      00
 SharedLib= :SHARED_SYSTEM                                    Alt SharedLib=


    ****  Control sections  ****

 Sect   Type Bound  Init  Size OctSiz  Section name(segment info)
    0   DCB   even  none     0      0  M$LO
    1  RoData even  UTS      1      1  ASA$TIE_PROJECT
    2   Proc  even  none   146    222  ASA$TIE_PROJECT
    3  RoData even  none     8     10  ASA$TIE_PROJECT

    ****  Entry defs  ****

                              Check   Calling
                             calling  sequence
  Sect OctLoc Primary Altret sequence   type   Parms  Name
     2      0   yes            yes      Std        4  ASA$TIE_PROJECT

  ****  Entry refs  ****

         Check        Calling
        calling       sequence
Altret sequence SRef   type   Args  Name
         yes          ~proc      0 XU_OUTPUT_OPTIONS
 yes     yes           Std       1 ASB$WRITE_USERS
 yes     yes           Std       0 ASB$WRITE_USERS_KEY
         yes           Std       2 ASA$KEYCONV
         yes           Std       2 ASH$INFO
 yes     yes           Std       3 ASB$READ_PROJ
 yes     yes           Std       2 ASB$WRITE_PROJ
         yes           Std       2 ASH$ERROR
                       nStd      0 X66_AUTO_4
                       Std       0 B_CONSPOOL_D
                       nStd      0 X66_ARET
PL6.E3A0      #001=ASA$TIE_PROJECT File=ASA$TIE_PROJECT.:E05TSI                  TUE 07/29/97 08:51 Page:6

  ****  Data refs  ****

  Flags:  r = read only, s = secondary
Flgs Name                             Flgs Name                             Flgs Name
r    AS_BLANK                         r    AS_MODE                          r    AS_FE_MODE
     M$LO                                  USERS_KEY                             PROJ_KEY
     ERR_CODE                              AS_FIELD1                             AS_FIELD2
     REMEM_VAR                             REM_FCMD                              ASA_BRKS_LOC
     DSEG1$                                DSEG2$                                DSEG2SIZE
     AS_DEFAULT                            AS_PROJECT                            AS_PROJECT_DFLT
     B_VECTNIL

  ****  Segment refs  ****

  Flags:  r = read only, s = secondary
Flgs Name                             Flgs Name                             Flgs Name
     ISSID
PL6.E3A0      #001=ASA$TIE_PROJECT File=ASA$TIE_PROJECT.:E05TSI                  TUE 07/29/97 08:51 Page:7


        1        1        /*M* ASA$TIE_PROJECT - ties a project to another project as a sub-project. */
        2        2        /*T***********************************************************/
        3        3        /*T*                                                         */
        4        4        /*T* Copyright (c) Bull HN Information Systems Inc., 1997    */
        5        5        /*T*                                                         */
        6        6        /*T***********************************************************/
        7        7        ASA$TIE_PROJECT: PROC( TIE_PROJ, PROJECT, PSET_COUNT, REPORT );

      7  2 000000   000000 700200 xent  ASA$TIE_PRO* TSX0  ! X66_AUTO_4
         2 000001   000016 000004                    ZERO    14,4

        8        8
        9        9
       10       10        %INCLUDE AS_ENTRIES_M ;
       11     1060        %INCLUDE AS_SUBS_C    ;
       12     2474        %INCLUDE AS_PERR_C    ;
       13     3076        %INCLUDE AS_MAC_C     ;
       14     3156        %INCLUDE AS_SUPER_C   ;
       15     3591        %INCLUDE XU_MACRO_C   ;
       16     6697        %INCLUDE XU_FORMAT_C  ;
       17     6859        %INCLUDE KL_SUPER_C   ;
       18     9761        %INCLUDE AS_SUPER_R   ;
       19    12777
       20    12778    1   DCL 1 TIE_PROJ,
       21    12779    1          2 COUNT UBIN BYTE UNAL,
       22    12780    1          2 TEXT CHAR(20);
       23    12781    1   DCL 1 PROJECT,
       24    12782    1          2 COUNT UBIN BYTE UNAL,
       25    12783    1          2 TEXT CHAR(20);
       26    12784    1   DCL PSET_COUNT SBIN;
       27    12785    1   DCL REPORT BIT(1) ALIGNED;
       28    12786
       29    12787        %AS$PROJ_HEADER( NAME="PSET$LIST(0:0)", STCLASS="BASED(DSEG1$)", LAST="," );
       30    12816    1          2 PSN CHAR(8);
       31    12817        %AS$PROJ( STCLASS="BASED(DSEG2$)" );
       32    12851
PL6.E3A0      #001=ASA$TIE_PROJECT File=ASA$TIE_PROJECT.:E05TSI                  TUE 07/29/97 08:51 Page:8
       33    12852        %ASB$GET ;
       34    12855        %ASB$WRITE_USERS ;
       35    12858        %ASB$WRITE_USERS_KEY ;
       36    12861        %ASB$READ_PROJ ;
       37    12864        %ASB$WRITE_PROJ ;
       38    12867        %ASH$ERROR ;
       39    12870        %ASH$INFO ;
       40    12873        %ASA$KEYCONV ;
       41    12876
       42    12877    1   DCL I SBIN;
       43    12878    1   DCL J SBIN;
       44    12879    1   DCL ARS SBIN;
       45    12880
       46    12881    1   AS_PROJECT.BUDGET.MACCT = PROJECT;

  12881  2 000002   200004 470500                    LDP0    @PROJECT,,AUTO
         2 000003   000000 100500                    MLR     fill='000'O
         2 000004   000000 000025                    ADSC9   0,,PR0                   cn=0,n=21
         2 000005   000012 000025 xsym               ADSC9   AS_PROJECT+10            cn=0,n=21

       47    12882    1   AS_DEFAULT.BUDGET.SUB_PROJS = AS_DEFAULT.BUDGET.SUB_PROJS

  12882  2 000006   000017 236000 xsym               LDQ     AS_PROJECT+15
         2 000007   000022 736000                    QLS     18
         2 000010   000022 732000                    QRS     18
         2 000011   200012 756100                    STQ     ARS+1,,AUTO
         2 000012   000017 236000 xsym               LDQ     AS_DEFAULT+15
         2 000013   000022 736000                    QLS     18
         2 000014   000022 732000                    QRS     18
         2 000015   200012 036100                    ADLQ    ARS+1,,AUTO
         2 000016   000001 620006                    EAX0    1,QL
         2 000017   000017 440000 xsym               SXL0    AS_DEFAULT+15

       48    12883    1        + AS_PROJECT.BUDGET.MAX_PROJECTS + 1;
       49    12884    1   AS_DEFAULT.BUDGET.PROJ_CREATED = AS_DEFAULT.BUDGET.PROJ_CREATED

  12884  2 000020   000011 236000 xsym               LDQ     AS_DEFAULT+9
PL6.E3A0      #001=ASA$TIE_PROJECT File=ASA$TIE_PROJECT.:E05TSI                  TUE 07/29/97 08:51 Page:9
         2 000021   000010 036000 xsym               ADLQ    AS_PROJECT_DFLT+8
         2 000022   000011 756000 xsym               STQ     AS_DEFAULT+9

       50    12885    1        + AS_PROJECT_DFLT.BUDGET.PROJ_ALLOWED;
       51    12886    1   USERS_KEY = PROJECT;

  12886  2 000023   000000 100500                    MLR     fill='000'O
         2 000024   000000 000025                    ADSC9   0,,PR0                   cn=0,n=21
         2 000025   000000 000052 xsym               ADSC9   USERS_KEY                cn=0,n=42

       52    12887    1   USERS_KEY.UKEY.S = 'S';

  12887  2 000026   000123 236003                    LDQ     83,DU
         2 000027   000005 552020 xsym               STBQ    USERS_KEY+5,'20'O

       53    12888    1   USERS_KEY.COUNT = 21;

  12888  2 000030   025000 236003                    LDQ     10752,DU
         2 000031   000000 552040 xsym               STBQ    USERS_KEY,'40'O

       54    12889    1   CALL ASB$WRITE_USERS( AS_DEFAULT );

  12889  2 000032   000000 630400 3                  EPPR0   0
         2 000033   000017 631400 xsym               EPPR1   B_VECTNIL+15
         2 000034   000000 701000 xent               TSX1    ASB$WRITE_USERS
         2 000035   000000 011000                    NOP     0

       55    12890    1   USERS_KEY = TIE_PROJ;

  12890  2 000036   200003 470500                    LDP0    @TIE_PROJ,,AUTO
         2 000037   000000 100500                    MLR     fill='000'O
         2 000040   000000 000025                    ADSC9   0,,PR0                   cn=0,n=21
         2 000041   000000 000052 xsym               ADSC9   USERS_KEY                cn=0,n=42

       56    12891    1   CALL ASB$WRITE_USERS( AS_PROJECT );

  12891  2 000042   000001 630400 3                  EPPR0   1
PL6.E3A0      #001=ASA$TIE_PROJECT File=ASA$TIE_PROJECT.:E05TSI                  TUE 07/29/97 08:51 Page:10
         2 000043   000017 631400 xsym               EPPR1   B_VECTNIL+15
         2 000044   000000 701000 xent               TSX1    ASB$WRITE_USERS
         2 000045   000000 011000                    NOP     0

       57    12892    1   CALL CONCAT( USERS_KEY.TXTC, BINASC(1), PROJECT.TEXT, TIE_PROJ.TEXT );

  12892  2 000046   000001 236003                    LDQ     1,DU
         2 000047   000000 552020 xsym               STBQ    USERS_KEY,'20'O
         2 000050   200004 470500                    LDP0    @PROJECT,,AUTO
         2 000051   040000 100500                    MLR     fill='040'O
         2 000052   000000 200024                    ADSC9   0,,PR0                   cn=1,n=20
         2 000053   000000 400024 xsym               ADSC9   USERS_KEY                cn=2,n=20
         2 000054   200003 471500                    LDP1    @TIE_PROJ,,AUTO
         2 000055   040000 100500                    MLR     fill='040'O
         2 000056   100000 200024                    ADSC9   0,,PR1                   cn=1,n=20
         2 000057   000005 400024 xsym               ADSC9   USERS_KEY+5              cn=2,n=20

       58    12893    1   CALL INDEX( I, AS_BLANK, USERS_KEY.TXTC, 29 );

  12893  2 000060   000000 124400                    SCM     mask='000'O
         2 000061   000007 400014 xsym               ADSC9   USERS_KEY+7              cn=2,n=12
         2 000062   000000 000001 xsym               ADSC9   AS_BLANK                 cn=0,n=1
         2 000063   200007 000100                    ARG     I,,AUTO
         2 000064   000035 236007                    LDQ     29,DL
         2 000065   200007 056100                    ASQ     I,,AUTO

       59    12894    1   USERS_KEY.COUNT = I;

  12894  2 000066   200007 236100                    LDQ     I,,AUTO
         2 000067   000033 736000                    QLS     27
         2 000070   000000 552040 xsym               STBQ    USERS_KEY,'40'O

       60    12895    1   CALL ASB$WRITE_USERS_KEY;

  12895  2 000071   000002 631400 xsym               EPPR1   B_VECTNIL+2
         2 000072   000000 701000 xent               TSX1    ASB$WRITE_USERS_KEY
         2 000073   000000 011000                    NOP     0
PL6.E3A0      #001=ASA$TIE_PROJECT File=ASA$TIE_PROJECT.:E05TSI                  TUE 07/29/97 08:51 Page:11

       61    12896    2   IF REPORT THEN DO;

  12896  2 000074   200006 470500                    LDP0    @REPORT,,AUTO
         2 000075   000000 234100                    SZN     0,,PR0
         2 000076   000121 605000 2                  TPL     s:12919

       62    12897        /*E*  ERROR:      ASA-E$PROJ_TIED-C
       63    12898              MESSAGE:.. Project "%U1" tied to project "%U2".
       64    12899        */
       65    12900    2      CALL ASA$KEYCONV( TIE_PROJ, AS_FIELD1 );

  12900  2 000077   000002 236000 3                  LDQ     2
         2 000100   200003 235100                    LDA     @TIE_PROJ,,AUTO
         2 000101   200012 757100                    STAQ    ARS+1,,AUTO
         2 000102   200012 630500                    EPPR0   ARS+1,,AUTO
         2 000103   000020 631400 xsym               EPPR1   B_VECTNIL+16
         2 000104   000000 701000 xent               TSX1    ASA$KEYCONV
         2 000105   000000 011000                    NOP     0

       66    12901    2      CALL ASA$KEYCONV( PROJECT,  AS_FIELD2 );

  12901  2 000106   000003 236000 3                  LDQ     3
         2 000107   200004 235100                    LDA     @PROJECT,,AUTO
         2 000110   200012 757100                    STAQ    ARS+1,,AUTO
         2 000111   200012 630500                    EPPR0   ARS+1,,AUTO
         2 000112   000020 631400 xsym               EPPR1   B_VECTNIL+16
         2 000113   000000 701000 xent               TSX1    ASA$KEYCONV
         2 000114   000000 011000                    NOP     0

       67    12902           %SCREAM( ERR#=E$PROJ_TIED, LEVEL=INFO, MID='A' );

  12910  2 000115   000004 630400 3                  EPPR0   4
         2 000116   000017 631400 xsym               EPPR1   B_VECTNIL+15
         2 000117   000000 701000 xent               TSX1    ASH$INFO
         2 000120   000000 011000                    NOP     0

PL6.E3A0      #001=ASA$TIE_PROJECT File=ASA$TIE_PROJECT.:E05TSI                  TUE 07/29/97 08:51 Page:12
       68    12917    2      END;

       69    12918
       70    12919    1   PROJ_KEY = PROJECT;

  12919  2 000121   200004 470500                    LDP0    @PROJECT,,AUTO
         2 000122   000000 100500                    MLR     fill='000'O
         2 000123   000000 000025                    ADSC9   0,,PR0                   cn=0,n=21
         2 000124   000000 000033 xsym               ADSC9   PROJ_KEY                 cn=0,n=27

       71    12920    2   DO I = 0 TO PSET_COUNT-1;

  12920  2 000125   200007 450100                    STZ     I,,AUTO
         2 000126   000215 710000 2                  TRA     s:12932+1

       72    12921    2      PROJ_KEY.TXT.PACKSET = PSET$LIST.PSN(I);

  12921  2 000127   200007 236100                    LDQ     I,,AUTO
         2 000130   000070 402007                    MPY     56,DL
         2 000131   000000 470400 xsym               LDP0    DSEG1$
         2 000132   040000 100506                    MLR     fill='040'O
         2 000133   000014 000006                    ADSC9   12,Q,PR0                 cn=0,n=6
         2 000134   000005 200006 xsym               ADSC9   PROJ_KEY+5               cn=1,n=6

       73    12922    2      CALL INDEX( J, AS_BLANK, PROJ_KEY.TEXT, 20 );

  12922  2 000135   000000 124400                    SCM     mask='000'O
         2 000136   000005 200006 xsym               ADSC9   PROJ_KEY+5               cn=1,n=6
         2 000137   000000 000001 xsym               ADSC9   AS_BLANK                 cn=0,n=1
         2 000140   200010 000100                    ARG     J,,AUTO
         2 000141   000024 236007                    LDQ     20,DL
         2 000142   200010 056100                    ASQ     J,,AUTO

       74    12923    2      PROJ_KEY.COUNT = J;

  12923  2 000143   200010 236100                    LDQ     J,,AUTO
         2 000144   000033 736000                    QLS     27
PL6.E3A0      #001=ASA$TIE_PROJECT File=ASA$TIE_PROJECT.:E05TSI                  TUE 07/29/97 08:51 Page:13
         2 000145   000000 552040 xsym               STBQ    PROJ_KEY,'40'O

       75    12924    2      ARS = DSEG2SIZE;

  12924  2 000146   000000 235000 xsym               LDA     DSEG2SIZE
         2 000147   200011 755100                    STA     ARS,,AUTO

       76    12925    2      CALL ASB$READ_PROJ( DSEG2$, ARS, 2 ) ALTRET(IO_ERR);

  12925  2 000150   000005 236000 3                  LDQ     5
         2 000151   200014 756100                    STQ     ARS+3,,AUTO
         2 000152   200011 631500                    EPPR1   ARS,,AUTO
         2 000153   200013 451500                    STP1    ARS+2,,AUTO
         2 000154   000006 236000 3                  LDQ     6
         2 000155   200012 756100                    STQ     ARS+1,,AUTO
         2 000156   200012 630500                    EPPR0   ARS+1,,AUTO
         2 000157   000021 631400 xsym               EPPR1   B_VECTNIL+17
         2 000160   000000 701000 xent               TSX1    ASB$READ_PROJ
         2 000161   000210 702000 2                  TSX2    IO_ERR

       77    12926    2      AS$PROJ.SUB_PROJ_ACCTS = AS$PROJ.SUB_PROJ_ACCTS + PSET$LIST.MAX_NUM_ACCTS(I);

  12926  2 000162   200007 236100                    LDQ     I,,AUTO
         2 000163   000016 402007                    MPY     14,DL
         2 000164   000000 470400 xsym               LDP0    DSEG1$
         2 000165   000000 620006                    EAX0    0,QL
         2 000166   000000 471400 xsym               LDP1    DSEG2$
         2 000167   100005 236100                    LDQ     5,,PR1
         2 000170   777777 376007                    ANQ     -1,DL
         2 000171   000012 036110                    ADLQ    10,X0,PR0
         2 000172   000000 621006                    EAX1    0,QL
         2 000173   100005 441100                    SXL1    5,,PR1

       78    12927    2      AS$PROJ.GRANS_ACCUM= AS$PROJ.GRANS_ACCUM + PSET$LIST.MAX_NUM_GRANS(I);

  12927  2 000174   000006 236110                    LDQ     6,X0,PR0
         2 000175   100007 036100                    ADLQ    7,,PR1
PL6.E3A0      #001=ASA$TIE_PROJECT File=ASA$TIE_PROJECT.:E05TSI                  TUE 07/29/97 08:51 Page:14
         2 000176   100007 756100                    STQ     7,,PR1

       79    12928    2      CALL ASB$WRITE_PROJ( DSEG2$, ARS ) ALTRET(IO_ERR);

  12928  2 000177   200011 633500                    EPPR3   ARS,,AUTO
         2 000200   200013 453500                    STP3    ARS+2,,AUTO
         2 000201   000006 236000 3                  LDQ     6
         2 000202   200012 756100                    STQ     ARS+1,,AUTO
         2 000203   200012 630500                    EPPR0   ARS+1,,AUTO
         2 000204   000020 631400 xsym               EPPR1   B_VECTNIL+16
         2 000205   000000 701000 xent               TSX1    ASB$WRITE_PROJ
         2 000206   000210 702000 2                  TSX2    IO_ERR

       80    12929    3      DO WHILE('0'B);

  12929  2 000207   000214 710000 2                  TRA     s:12932

       81    12930    3   IO_ERR: CALL ASH$ERROR( ERR_CODE );

  12930  2 000210   000007 630400 3     IO_ERR       EPPR0   7
         2 000211   000017 631400 xsym               EPPR1   B_VECTNIL+15
         2 000212   000000 701000 xent               TSX1    ASH$ERROR
         2 000213   000000 011000                    NOP     0

       82    12931    3         END;

       83    12932    2      END;

  12932  2 000214   200007 054100                    AOS     I,,AUTO
         2 000215   200005 470500                    LDP0    @PSET_COUNT,,AUTO
         2 000216   200007 236100                    LDQ     I,,AUTO
         2 000217   000000 116100                    CMPQ    0,,PR0
         2 000220   000127 604000 2                  TMI     s:12921

       84    12933
       85    12934    1   EXIT#: RETURN;

PL6.E3A0      #001=ASA$TIE_PROJECT File=ASA$TIE_PROJECT.:E05TSI                  TUE 07/29/97 08:51 Page:15
  12934  2 000221   000000 702200 xent  EXIT#        TSX2  ! X66_ARET
       86    12935
       87    12936    1   END ASA$TIE_PROJECT;

PL6.E3A0      #001=ASA$TIE_PROJECT File=ASA$TIE_PROJECT.:E05TSI                  TUE 07/29/97 08:51 Page:16
--  Include file information  --

   AS_SUPER_R.:E05TOU  cannot be made into a system file and is referenced.
   KL_SUPER_C.:E05TOU  is referenced.
   XU_FORMAT_C.:E05TOU  is referenced.
   XU_MACRO_C.:E05TOU  is referenced.
   AS_SUPER_C.:E05TOU  is referenced.
   AS_MAC_C.:E05TOU  cannot be made into a system file and is referenced.
   AS_PERR_C.:E05TOU  is referenced.
   AS_SUBS_C.:E05TOU  is referenced.
   AS_ENTRIES_M.:E05TOU  is referenced.
      No diagnostics issued in procedure ASA$TIE_PROJECT.
PL6.E3A0      #001=ASA$TIE_PROJECT File=ASA$TIE_PROJECT.:E05TSI                  TUE 07/29/97 08:51 Page:17

 **** Variables and constants ****

  ****  Auto variables  ****

  ****  Scalars and arrays  ****
OctLoc.c.b A Datatyp(siz) R M Lvl/name                 OctLoc.c.b A Datatyp(siz) R M Lvl/name

     4-0-0/w PTR         r     1 @PROJECT                   5-0-0/w PTR         r     1 @PSET_COUNT
     6-0-0/w PTR         r     1 @REPORT                    3-0-0/w PTR         r     1 @TIE_PROJ
    11-0-0/w SBIN        r     1 ARS                        7-0-0/w SBIN        r     1 I
    10-0-0/w SBIN        r     1 J                         *0-0-0/c STRC(189)   r     1 PROJECT
    *0-0-0/w SBIN        r     1 PSET_COUNT                *0-0-0/w BIT         r     1 REPORT
    *0-0-0/c STRC(189)   r     1 TIE_PROJ

  ****  SYMREF variables  ****

  ****  Scalars and arrays  ****
OctLoc.c.b A Datatyp(siz) R M Lvl/name                 OctLoc.c.b A Datatyp(siz) R M Lvl/name

     0-0-0/c CHAR        r     1 AS_BLANK                   0-0-0/w STRC(18576) r     1 AS_DEFAULT
     0-0-0/w STRC(369)   r     1 AS_FIELD1                  0-0-0/w STRC(369)   r     1 AS_FIELD2
     0-0-0/w STRC(18576) r     1 AS_PROJECT                 0-0-0/w STRC(18576) r     1 AS_PROJECT_DFLT
     0-0-0/w PTR         r     1 DSEG1$                     0-0-0/w PTR         r     1 DSEG2$
     0-0-0/w UBIN        r     1 DSEG2SIZE                  0-0-0/b STRC        r     1 ERR_CODE
     0-0-0/c STRC(243)   r     1 PROJ_KEY                   0-0-0/c STRC(378)   r     1 USERS_KEY

  ****  BASED and DCB variables  ****

  ****  Scalars and arrays  ****
OctLoc.c.b A Datatyp(siz) R M Lvl/name                 OctLoc.c.b A Datatyp(siz) R M Lvl/name

     0-0-0/w ASTR(468)   r     1 AS$PROJ
     0-0-0/w STRC(504)   r     1 PSET$LIST(0:0)


   Procedure ASA$TIE_PROJECT requires 146 words for executable code.
PL6.E3A0      #001=ASA$TIE_PROJECT File=ASA$TIE_PROJECT.:E05TSI                  TUE 07/29/97 08:51 Page:18
   Procedure ASA$TIE_PROJECT requires 14 words of local(AUTO) storage.

    No errors detected in file ASA$TIE_PROJECT.:E05TSI    .
PL6.E3A0      #001=ASA$TIE_PROJECT File=ASA$TIE_PROJECT.:E05TSI                  TUE 07/29/97 08:51 Page:19
          *** CROSS REFERENCE LISTING ***
**     DENOTES     IDENTIFIER DEFINITION
<<                 IDENTIFIER'S VALUE SET
>>                 IDENTIFIER'S VALUE USED
<>                 IDENTIFIER SET AND/OR USED
--                 IDENTIFIER REFERENCED
PL6.E3A0      #001=ASA$TIE_PROJECT File=ASA$TIE_PROJECT.:E05TSI                  TUE 07/29/97 08:51 Page:20
          MINI XREF LISTING

ARS
     12879**DCL     12924<<ASSIGN  12925<>CALL    12928<>CALL
AS$PROJ.ATTRIBUTES.COUNT
     12848**DCL     12849--IMP-SIZ
AS$PROJ.GRANS_ACCUM
     12839**DCL     12927<<ASSIGN  12927>>ASSIGN
AS$PROJ.SUB_PROJ_ACCTS
     12835**DCL     12926<<ASSIGN  12926>>ASSIGN
ASA$KEYCONV
     12874**DCL-ENT 12900--CALL    12901--CALL
ASA_BRKS_LOC
      9925**DCL      9925--REDEF
ASB$READ_PROJ
     12862**DCL-ENT 12925--CALL
ASB$WRITE_PROJ
     12865**DCL-ENT 12928--CALL
ASB$WRITE_USERS
     12856**DCL-ENT 12889--CALL    12891--CALL
ASB$WRITE_USERS_KEY
     12859**DCL-ENT 12895--CALL
ASH$ERROR
     12868**DCL-ENT 12930--CALL
ASH$INFO
     12871**DCL-ENT 12910--CALL
AS_BLANK
      9785**DCL     12893>>CALLBLT 12922>>CALLBLT
AS_DEFAULT
     10503**DCL     12889<>CALL
AS_DEFAULT.BANNER_PERM
     10618**DCL     10619--REDEF
AS_DEFAULT.BUDGET.MACCT
     10523**DCL     10527--REDEF
PL6.E3A0      #001=ASA$TIE_PROJECT File=ASA$TIE_PROJECT.:E05TSI                  TUE 07/29/97 08:51 Page:21
AS_DEFAULT.BUDGET.MAX_PROJECTS
     10536**DCL     10539--REDEF
AS_DEFAULT.BUDGET.PACCUM
     10519**DCL     10521--REDEF
AS_DEFAULT.BUDGET.PMAXC
     10514**DCL     10516--REDEF
AS_DEFAULT.BUDGET.PROJ_CREATED
     10521**DCL     12884<<ASSIGN  12884>>ASSIGN
AS_DEFAULT.BUDGET.SUB_PROJS
     10539**DCL     12882<<ASSIGN  12882>>ASSIGN
AS_DEFAULT.SETUP_CHRA.TXT
     10634**DCL     10635--REDEF   10636--REDEF
AS_DEFAULT_DREC.PASSWORD
     11888**DCL     11892--REDEF
AS_DEFAULT_DREC.RENAME
     11911**DCL     11912--REDEF
AS_DFLT.BANNER_PERM
     10440**DCL     10441--REDEF
AS_DFLT.BUDGET.MACCT
     10345**DCL     10349--REDEF
AS_DFLT.BUDGET.MAX_PROJECTS
     10358**DCL     10361--REDEF
AS_DFLT.BUDGET.PACCUM
     10341**DCL     10343--REDEF
AS_DFLT.BUDGET.PMAXC
     10336**DCL     10338--REDEF
AS_DFLT.SETUP_CHRA.TXT
     10456**DCL     10457--REDEF   10458--REDEF
AS_FE_MODE
      9791**DCL      9792--REDEF
AS_FIELD1
      9921**DCL     12900<>CALL
AS_FIELD2
      9922**DCL     12901<>CALL
AS_MODE
      9788**DCL      9790--REDEF
PL6.E3A0      #001=ASA$TIE_PROJECT File=ASA$TIE_PROJECT.:E05TSI                  TUE 07/29/97 08:51 Page:22
AS_MOD_USER.ACCESS
     12653**DCL     12654--REDEF
AS_MOD_USER.BANNER
     12640**DCL     12641--REDEF
AS_MOD_USER.BANNER_PERM
     12642**DCL     12643--REDEF
AS_MOD_USER.BILL
     12648**DCL     12649--REDEF
AS_MOD_USER.CPROC
     12644**DCL     12645--REDEF
AS_MOD_USER.FEBILL
     12724**DCL     12725--REDEF
AS_MOD_USER.FECXTMEM
     12741**DCL     12742--REDEF
AS_MOD_USER.FEMINTS
     12726**DCL     12727--REDEF
AS_MOD_USER.FEMMEM
     12737**DCL     12738--REDEF
AS_MOD_USER.FEMTIME
     12735**DCL     12736--REDEF
AS_MOD_USER.FEPPRIV
     12732**DCL     12734--REDEF
AS_MOD_USER.FEPRIV
     12729**DCL     12731--REDEF
AS_MOD_USER.FORCE_BIT
     12638**DCL     12639--REDEF
AS_MOD_USER.KEY
     12720**DCL     12722--REDEF
AS_MOD_USER.LASTCPROC
     12646**DCL     12647--REDEF
AS_MOD_USER.LIMITS.DO_
     12694**DCL     12695--REDEF
AS_MOD_USER.LIMITS.FPOOLS
     12710**DCL     12711--REDEF
AS_MOD_USER.LIMITS.LO
     12690**DCL     12691--REDEF
PL6.E3A0      #001=ASA$TIE_PROJECT File=ASA$TIE_PROJECT.:E05TSI                  TUE 07/29/97 08:51 Page:23
AS_MOD_USER.LIMITS.MEM
     12686**DCL     12687--REDEF
AS_MOD_USER.LIMITS.MPRIO
     12714**DCL     12715--REDEF
AS_MOD_USER.LIMITS.PDIS
     12702**DCL     12703--REDEF
AS_MOD_USER.LIMITS.PO
     12698**DCL     12699--REDEF
AS_MOD_USER.LIMITS.TDIS
     12706**DCL     12707--REDEF
AS_MOD_USER.LIMITS.TIME
     12682**DCL     12683--REDEF
AS_MOD_USER.MAXENQ
     12663**DCL     12664--REDEF
AS_MOD_USER.PERM_BIT
     12636**DCL     12637--REDEF
AS_MOD_USER.PPRIV
     12658**DCL     12660--REDEF
AS_MOD_USER.PRIOB
     12665**DCL     12666--REDEF
AS_MOD_USER.PRIV
     12655**DCL     12657--REDEF
AS_MOD_USER.QUAN
     12661**DCL     12662--REDEF
AS_MOD_USER.SETUP
     12634**DCL     12635--REDEF
AS_PROJECT
     10859**DCL     12891<>CALL
AS_PROJECT.BANNER_PERM
     10974**DCL     10975--REDEF
AS_PROJECT.BUDGET.MACCT
     10879**DCL     10883--REDEF   12881<<ASSIGN
AS_PROJECT.BUDGET.MAX_PROJECTS
     10892**DCL     10895--REDEF   12882>>ASSIGN
AS_PROJECT.BUDGET.PACCUM
     10875**DCL     10877--REDEF
PL6.E3A0      #001=ASA$TIE_PROJECT File=ASA$TIE_PROJECT.:E05TSI                  TUE 07/29/97 08:51 Page:24
AS_PROJECT.BUDGET.PMAXC
     10870**DCL     10872--REDEF
AS_PROJECT.SETUP_CHRA.TXT
     10990**DCL     10991--REDEF   10992--REDEF
AS_PROJECT_DFLT.BANNER_PERM
     11152**DCL     11153--REDEF
AS_PROJECT_DFLT.BUDGET.MACCT
     11057**DCL     11061--REDEF
AS_PROJECT_DFLT.BUDGET.MAX_PROJECTS
     11070**DCL     11073--REDEF
AS_PROJECT_DFLT.BUDGET.PACCUM
     11053**DCL     11055--REDEF
AS_PROJECT_DFLT.BUDGET.PMAXC
     11048**DCL     11050--REDEF
AS_PROJECT_DFLT.BUDGET.PROJ_ALLOWED
     11050**DCL     12884>>ASSIGN
AS_PROJECT_DFLT.SETUP_CHRA.TXT
     11168**DCL     11169--REDEF   11170--REDEF
AS_PROJECT_DFLT_DREC.PASSWORD
     12374**DCL     12378--REDEF
AS_PROJECT_DFLT_DREC.RENAME
     12397**DCL     12398--REDEF
AS_PROJECT_DREC.PASSWORD
     12212**DCL     12216--REDEF
AS_PROJECT_DREC.RENAME
     12235**DCL     12236--REDEF
AS_PROJ_ADMIN.BANNER_PERM
     10796**DCL     10797--REDEF
AS_PROJ_ADMIN.BUDGET.MACCT
     10701**DCL     10705--REDEF
AS_PROJ_ADMIN.BUDGET.MAX_PROJECTS
     10714**DCL     10717--REDEF
AS_PROJ_ADMIN.BUDGET.PACCUM
     10697**DCL     10699--REDEF
AS_PROJ_ADMIN.BUDGET.PMAXC
     10692**DCL     10694--REDEF
PL6.E3A0      #001=ASA$TIE_PROJECT File=ASA$TIE_PROJECT.:E05TSI                  TUE 07/29/97 08:51 Page:25
AS_PROJ_ADMIN.SETUP_CHRA.TXT
     10812**DCL     10813--REDEF   10814--REDEF
AS_PROJ_ADMIN_DREC.PASSWORD
     12050**DCL     12054--REDEF
AS_PROJ_ADMIN_DREC.RENAME
     12073**DCL     12074--REDEF
AS_USERS.BANNER_PERM
     10262**DCL     10263--REDEF
AS_USERS.BUDGET.MACCT
     10167**DCL     10171--REDEF
AS_USERS.BUDGET.MAX_PROJECTS
     10180**DCL     10183--REDEF
AS_USERS.BUDGET.PACCUM
     10163**DCL     10165--REDEF
AS_USERS.BUDGET.PMAXC
     10158**DCL     10160--REDEF
AS_USERS.SETUP_CHRA.TXT
     10278**DCL     10279--REDEF   10280--REDEF
AS_USERS_CONSTANT.BANNER_PERM
     11330**DCL     11331--REDEF
AS_USERS_CONSTANT.BUDGET.MACCT
     11235**DCL     11239--REDEF
AS_USERS_CONSTANT.BUDGET.MAX_PROJECTS
     11248**DCL     11251--REDEF
AS_USERS_CONSTANT.BUDGET.PACCUM
     11231**DCL     11233--REDEF
AS_USERS_CONSTANT.BUDGET.PMAXC
     11226**DCL     11228--REDEF
AS_USERS_CONSTANT.SETUP_CHRA.TXT
     11346**DCL     11347--REDEF   11348--REDEF
DSEG1$
      9926**DCL     12797--IMP-PTR 12921>>ASSIGN  12926>>ASSIGN  12927>>ASSIGN
DSEG2$
      9927**DCL     12828--IMP-PTR 12925<>CALL    12926>>ASSIGN  12926>>ASSIGN  12927>>ASSIGN  12927>>ASSIGN
     12928<>CALL
DSEG2SIZE
PL6.E3A0      #001=ASA$TIE_PROJECT File=ASA$TIE_PROJECT.:E05TSI                  TUE 07/29/97 08:51 Page:26
      9927**DCL     12924>>ASSIGN
ERR_CODE
      9920**DCL      9921--REDEF   12930<>CALL
I
     12877**DCL     12893<<CALLBLT 12894>>ASSIGN  12920<<DOINDEX 12921>>ASSIGN  12926>>ASSIGN  12927>>ASSIGN
IO_ERR
     12930**LABEL   12925--CALLALT 12928--CALLALT
J
     12878**DCL     12922<<CALLBLT 12923>>ASSIGN
KL_DEFAULT.PASSWORD
     12536**DCL     12540--REDEF
KL_DEFAULT.RENAME
     12559**DCL     12560--REDEF
KL_DFLT.PASSWORD
     11726**DCL     11730--REDEF
KL_DFLT.RENAME
     11749**DCL     11750--REDEF
KL_DREC.PASSWORD
     11564**DCL     11568--REDEF
KL_DREC.RENAME
     11587**DCL     11588--REDEF
KL_DREC_CNT.PASSWORD
     11451**DCL     11455--REDEF
KL_DREC_CNT.RENAME
     11474**DCL     11475--REDEF
PROJECT
     12781**DCL         7--PROC    12881>>ASSIGN  12886>>ASSIGN  12901<>CALL    12919>>ASSIGN
PROJECT.TEXT
     12783**DCL     12892>>CALLBLT
PROJ_KEY
      9797**DCL     12919<<ASSIGN
PROJ_KEY.COUNT
      9798**DCL     12923<<ASSIGN
PROJ_KEY.TEXT
      9798**DCL      9798--REDEF   12922>>CALLBLT
PROJ_KEY.TXT.PACKSET
PL6.E3A0      #001=ASA$TIE_PROJECT File=ASA$TIE_PROJECT.:E05TSI                  TUE 07/29/97 08:51 Page:27
      9799**DCL     12921<<ASSIGN
PROJ_KEY.TXT.PROJECT
      9798**DCL      9798--REDEF
PSET$LIST.MAX_NUM_ACCTS
     12812**DCL     12926>>ASSIGN
PSET$LIST.MAX_NUM_GRANS
     12806**DCL     12927>>ASSIGN
PSET$LIST.PSN
     12816**DCL     12921>>ASSIGN
PSET_COUNT
     12784**DCL         7--PROC    12920>>DOINDEX
REMEM_VAR
      9924**DCL      9924--REDEF
REM_FCMD
      9924**DCL      9925--REDEF
REPORT
     12785**DCL         7--PROC    12896>>IF
TIE_PROJ
     12778**DCL         7--PROC    12890>>ASSIGN  12900<>CALL
TIE_PROJ.TEXT
     12780**DCL     12892>>CALLBLT
USERS_KEY
      9795**DCL     12886<<ASSIGN  12890<<ASSIGN
USERS_KEY.COUNT
      9795**DCL     12888<<ASSIGN  12894<<ASSIGN
USERS_KEY.TEXT
      9795**DCL      9796--REDEF    9796--REDEF    9796--REDEF    9797--REDEF
USERS_KEY.TXTC
      9796**DCL     12892<<CALLBLT 12893>>CALLBLT
USERS_KEY.UKEY.S
      9797**DCL     12887<<ASSIGN
