VERSION E05

PL6.E3A0      #001=ASA$UNTIE_PROJECT File=ASA$UNTIE_PROJECT.:E05TSI              TUE 07/29/97 08:53 Page:1
        1        1        /*T***********************************************************/
        2        2        /*T*                                                         */
        3        3        /*T* Copyright (c) Bull HN Information Systems Inc., 1997    */
        4        4        /*T*                                                         */
        5        5        /*T***********************************************************/
        6        6        /*   ASA$UNTIE_PROJECT - unties a sub-project from a project. */
        7        7        ASA$UNTIE_PROJECT: PROC( UNTIE_PROJ, PSET_COUNT, REPORT );
        8        8
        9        9
       10       10        %INCLUDE AS_ENTRIES_M ;
       11     1060        %INCLUDE AS_SUBS_C    ;
       12     2474        %INCLUDE AS_PERR_C    ;
       13     3076        %INCLUDE AS_MAC_C     ;
       14     3156        %INCLUDE AS_SUPER_C   ;
       15     3591        %INCLUDE XU_MACRO_C   ;
       16     6697        %INCLUDE XU_FORMAT_C  ;
       17     6859        %INCLUDE KL_SUPER_C   ;
       18     9761        %INCLUDE AS_SUPER_R   ;
       19    12777
       20    12778    1   DCL 1 UNTIE_PROJ,
       21    12779    1          2 COUNT UBIN BYTE UNAL,
       22    12780    1          2 TEXT CHAR(20);
       23    12781    1   DCL PSET_COUNT SBIN;
       24    12782    1   DCL REPORT BIT(1) ALIGNED;
       25    12783
       26    12784        %AS$PROJ_HEADER( NAME="PSET$LIST(0:0)", STCLASS="BASED(DSEG1$)", LAST="," );
       27    12813    1          2 PSN CHAR(8);
       28    12814        %AS$PROJ( STCLASS="BASED(DSEG2$)" );
       29    12848
       30    12849        %ASB$GET ;
       31    12852        %ASB$WRITE_USERS ;
       32    12855        %ASB$DELREC_USERS ;
       33    12858        %ASB$WRITE_USERS_KEY ;
       34    12861        %ASB$READ_PROJ ;
       35    12864        %ASB$SET_PROMPT ;
       36    12867        %ASB$WRITE_PROJ ;
       37    12870        %ASH$ERROR ;
PL6.E3A0      #001=ASA$UNTIE_PROJECT File=ASA$UNTIE_PROJECT.:E05TSI              TUE 07/29/97 08:53 Page:2
       38    12873        %ASH$INFO ;
       39    12876        %ASA$KEYCONV ;
       40    12879
       41    12880    1   DCL 1 PROJECT,
       42    12881    1          2 COUNT UBIN BYTE UNAL,
       43    12882    1          2 TEXT CHAR(20);
       44    12883    1   DCL I SBIN;
       45    12884    1   DCL J SBIN;
       46    12885    1   DCL ARS SBIN;
       47    12886
       48    12887    1   PROJECT = AS_PROJECT.BUDGET.MACCT;
       49    12888    1   AS_PROJECT.BUDGET.MACCT = AS_PROJECT_ADMIN;
       50    12889    1   AS_DEFAULT.BUDGET.SUB_PROJS = AS_DEFAULT.BUDGET.SUB_PROJS
       51    12890    1        - AS_PROJECT.BUDGET.MAX_PROJECTS - 1;
       52    12891    1   AS_DEFAULT.BUDGET.PROJ_CREATED = AS_DEFAULT.BUDGET.PROJ_CREATED
       53    12892    1        - AS_PROJECT_DFLT.BUDGET.PROJ_ALLOWED;
       54    12893    1   USERS_KEY = PROJECT;
       55    12894    2   IF AS_PROJECT.BUDGET.PCHARGES THEN DO;
       56    12895    2      AS_PROJ_ADMIN.BUDGET.PACCUM = AS_PROJ_ADMIN.BUDGET.PACCUM
       57    12896    2           - AS_PROJECT.BUDGET.PACCUM;
       58    12897    2      CALL ASB$WRITE_USERS( AS_PROJ_ADMIN );
       59    12898    2      END;
       60    12899    1   USERS_KEY.UKEY.S = 'S';
       61    12900    1   USERS_KEY.COUNT = 21;
       62    12901    1   CALL ASB$WRITE_USERS( AS_DEFAULT );
       63    12902    1   CALL CONCAT( USERS_KEY.TXTC, BINASC(1), PROJECT.TEXT, UNTIE_PROJ.TEXT );
       64    12903    1   CALL INDEX( I, AS_BLANK, USERS_KEY.TXTC, 29 );
       65    12904    1   USERS_KEY.COUNT = I;
       66    12905    1   CALL ASB$DELREC_USERS;
       67    12906    2   IF REPORT THEN DO;
       68    12907        /*E*  ERROR:      ASA-E$PROJ_UNTIED-C
       69    12908              MESSAGE:.. Project "%U1" untied from project "%U2".
       70    12909        */
       71    12910    2      CALL ASA$KEYCONV( UNTIE_PROJ, AS_FIELD1 );
       72    12911    2      CALL ASA$KEYCONV( PROJECT,    AS_FIELD2 );
       73    12912           %SCREAM( ERR#=E$PROJ_UNTIED, LEVEL=INFO, MID='A' );
       74    12927    2      END;
PL6.E3A0      #001=ASA$UNTIE_PROJECT File=ASA$UNTIE_PROJECT.:E05TSI              TUE 07/29/97 08:53 Page:3
       75    12928
       76    12929    1   PROJ_KEY = PROJECT;
       77    12930    2   DO I = 0 TO PSET_COUNT-1;
       78    12931    2      PROJ_KEY.TXT.PACKSET = PSET$LIST.PSN(I);
       79    12932    2      CALL INDEX( J, AS_BLANK, PROJ_KEY.TEXT, 20 );
       80    12933    2      PROJ_KEY.COUNT = J;
       81    12934    2      ARS = DSEG2SIZE;
       82    12935    2      CALL ASB$READ_PROJ( DSEG2$, ARS, 2 ) ALTRET(IO_ERR);
       83    12936    2      AS$PROJ.SUB_PROJ_ACCTS = AS$PROJ.SUB_PROJ_ACCTS - PSET$LIST.MAX_NUM_ACCTS(I);
       84    12937    2      AS$PROJ.GRANS_ACCUM= AS$PROJ.GRANS_ACCUM - PSET$LIST.MAX_NUM_GRANS(I);
       85    12938    2      CALL ASB$WRITE_PROJ( DSEG2$, ARS ) ALTRET(IO_ERR);
       86    12939    3      DO WHILE('0'B);
       87    12940    3   IO_ERR: CALL ASH$ERROR( ERR_CODE );
       88    12941    3         END;
       89    12942    2      END;
       90    12943
       91    12944    1   EXIT#: RETURN;
       92    12945
       93    12946    1   END ASA$UNTIE_PROJECT;

PL6.E3A0      #001=ASA$UNTIE_PROJECT File=ASA$UNTIE_PROJECT.:E05TSI              TUE 07/29/97 08:53 Page:4
--  Include file information  --

   AS_SUPER_R.:E05TOU  cannot be made into a system file and is referenced.
   KL_SUPER_C.:E05TOU  is referenced.
   XU_FORMAT_C.:E05TOU  is referenced.
   XU_MACRO_C.:E05TOU  is referenced.
   AS_SUPER_C.:E05TOU  is referenced.
   AS_MAC_C.:E05TOU  cannot be made into a system file and is referenced.
   AS_PERR_C.:E05TOU  is referenced.
   AS_SUBS_C.:E05TOU  is referenced.
   AS_ENTRIES_M.:E05TOU  is referenced.
      No diagnostics issued in procedure ASA$UNTIE_PROJECT.

   Procedure ASA$UNTIE_PROJECT requires 149 words for executable code.
   Procedure ASA$UNTIE_PROJECT requires 20 words of local(AUTO) storage.

    No errors detected in file ASA$UNTIE_PROJECT.:E05TSI    .

PL6.E3A0      #001=ASA$UNTIE_PROJECT File=ASA$UNTIE_PROJECT.:E05TSI              TUE 07/29/97 08:53 Page:5

 Object Unit name= ASA$UNTIE_PROJECT                          File name= ASA$UNTIE_PROJECT.:E05TOU
 UTS= JUL 29 '97 08:53:24.44 TUE                              Compiler= PL-6/E31         Sev=      00
 SharedLib= :SHARED_SYSTEM                                    Alt SharedLib=


    ****  Control sections  ****

 Sect   Type Bound  Init  Size OctSiz  Section name(segment info)
    0   DCB   even  none     0      0  M$LO
    1  RoData even  UTS      1      1  ASA$UNTIE_PROJECT
    2   Proc  even  none   149    225  ASA$UNTIE_PROJECT
    3  RoData even  none     8     10  ASA$UNTIE_PROJECT

    ****  Entry defs  ****

                              Check   Calling
                             calling  sequence
  Sect OctLoc Primary Altret sequence   type   Parms  Name
     2      0   yes            yes      Std        3  ASA$UNTIE_PROJECT

  ****  Entry refs  ****

         Check        Calling
        calling       sequence
Altret sequence SRef   type   Args  Name
         yes          ~proc      0 XU_OUTPUT_OPTIONS
 yes     yes           Std       1 ASB$WRITE_USERS
 yes     yes           Std       0 ASB$DELREC_USERS
         yes           Std       2 ASA$KEYCONV
         yes           Std       2 ASH$INFO
 yes     yes           Std       3 ASB$READ_PROJ
 yes     yes           Std       2 ASB$WRITE_PROJ
         yes           Std       2 ASH$ERROR
                       nStd      0 X66_AUTO_3
                       Std       0 B_CONSPOOL_D
                       nStd      0 X66_ARET
PL6.E3A0      #001=ASA$UNTIE_PROJECT File=ASA$UNTIE_PROJECT.:E05TSI              TUE 07/29/97 08:53 Page:6

  ****  Data refs  ****

  Flags:  r = read only, s = secondary
Flgs Name                             Flgs Name                             Flgs Name
r    AS_BLANK                         r    AS_MODE                          r    AS_FE_MODE
     M$LO                                  USERS_KEY                             PROJ_KEY
     ERR_CODE                              AS_FIELD1                             AS_FIELD2
     REMEM_VAR                             REM_FCMD                              ASA_BRKS_LOC
     DSEG1$                                DSEG2$                                DSEG2SIZE
     AS_PROJECT_ADMIN                      AS_DEFAULT                            AS_PROJ_ADMIN
     AS_PROJECT                            AS_PROJECT_DFLT                       B_VECTNIL

  ****  Segment refs  ****

  Flags:  r = read only, s = secondary
Flgs Name                             Flgs Name                             Flgs Name
     ISSID
PL6.E3A0      #001=ASA$UNTIE_PROJECT File=ASA$UNTIE_PROJECT.:E05TSI              TUE 07/29/97 08:53 Page:7


        1        1        /*T***********************************************************/
        2        2        /*T*                                                         */
        3        3        /*T* Copyright (c) Bull HN Information Systems Inc., 1997    */
        4        4        /*T*                                                         */
        5        5        /*T***********************************************************/
        6        6        /*   ASA$UNTIE_PROJECT - unties a sub-project from a project. */
        7        7        ASA$UNTIE_PROJECT: PROC( UNTIE_PROJ, PSET_COUNT, REPORT );

      7  2 000000   000000 700200 xent  ASA$UNTIE_P* TSX0  ! X66_AUTO_3
         2 000001   000024 000003                    ZERO    20,3

        8        8
        9        9
       10       10        %INCLUDE AS_ENTRIES_M ;
       11     1060        %INCLUDE AS_SUBS_C    ;
       12     2474        %INCLUDE AS_PERR_C    ;
       13     3076        %INCLUDE AS_MAC_C     ;
       14     3156        %INCLUDE AS_SUPER_C   ;
       15     3591        %INCLUDE XU_MACRO_C   ;
       16     6697        %INCLUDE XU_FORMAT_C  ;
       17     6859        %INCLUDE KL_SUPER_C   ;
       18     9761        %INCLUDE AS_SUPER_R   ;
       19    12777
       20    12778    1   DCL 1 UNTIE_PROJ,
       21    12779    1          2 COUNT UBIN BYTE UNAL,
       22    12780    1          2 TEXT CHAR(20);
       23    12781    1   DCL PSET_COUNT SBIN;
       24    12782    1   DCL REPORT BIT(1) ALIGNED;
       25    12783
       26    12784        %AS$PROJ_HEADER( NAME="PSET$LIST(0:0)", STCLASS="BASED(DSEG1$)", LAST="," );
       27    12813    1          2 PSN CHAR(8);
       28    12814        %AS$PROJ( STCLASS="BASED(DSEG2$)" );
       29    12848
       30    12849        %ASB$GET ;
       31    12852        %ASB$WRITE_USERS ;
       32    12855        %ASB$DELREC_USERS ;
PL6.E3A0      #001=ASA$UNTIE_PROJECT File=ASA$UNTIE_PROJECT.:E05TSI              TUE 07/29/97 08:53 Page:8
       33    12858        %ASB$WRITE_USERS_KEY ;
       34    12861        %ASB$READ_PROJ ;
       35    12864        %ASB$SET_PROMPT ;
       36    12867        %ASB$WRITE_PROJ ;
       37    12870        %ASH$ERROR ;
       38    12873        %ASH$INFO ;
       39    12876        %ASA$KEYCONV ;
       40    12879
       41    12880    1   DCL 1 PROJECT,
       42    12881    1          2 COUNT UBIN BYTE UNAL,
       43    12882    1          2 TEXT CHAR(20);
       44    12883    1   DCL I SBIN;
       45    12884    1   DCL J SBIN;
       46    12885    1   DCL ARS SBIN;
       47    12886
       48    12887    1   PROJECT = AS_PROJECT.BUDGET.MACCT;

  12887  2 000002   000100 100400                    MLR     fill='000'O
         2 000003   000012 000025 xsym               ADSC9   AS_PROJECT+10            cn=0,n=21
         2 000004   200006 000025                    ADSC9   PROJECT,,AUTO            cn=0,n=21

       49    12888    1   AS_PROJECT.BUDGET.MACCT = AS_PROJECT_ADMIN;

  12888  2 000005   000000 100400                    MLR     fill='000'O
         2 000006   000000 000025 xsym               ADSC9   AS_PROJECT_ADMIN         cn=0,n=21
         2 000007   000012 000025 xsym               ADSC9   AS_PROJECT+10            cn=0,n=21

       50    12889    1   AS_DEFAULT.BUDGET.SUB_PROJS = AS_DEFAULT.BUDGET.SUB_PROJS

  12889  2 000010   000017 236000 xsym               LDQ     AS_PROJECT+15
         2 000011   000022 736000                    QLS     18
         2 000012   000022 732000                    QRS     18
         2 000013   200020 756100                    STQ     ARS+2,,AUTO
         2 000014   000017 236000 xsym               LDQ     AS_DEFAULT+15
         2 000015   000022 736000                    QLS     18
         2 000016   000022 732000                    QRS     18
         2 000017   200020 136100                    SBLQ    ARS+2,,AUTO
PL6.E3A0      #001=ASA$UNTIE_PROJECT File=ASA$UNTIE_PROJECT.:E05TSI              TUE 07/29/97 08:53 Page:9
         2 000020   777777 620006                    EAX0    -1,QL
         2 000021   000017 440000 xsym               SXL0    AS_DEFAULT+15

       51    12890    1        - AS_PROJECT.BUDGET.MAX_PROJECTS - 1;
       52    12891    1   AS_DEFAULT.BUDGET.PROJ_CREATED = AS_DEFAULT.BUDGET.PROJ_CREATED

  12891  2 000022   000011 236000 xsym               LDQ     AS_DEFAULT+9
         2 000023   000010 136000 xsym               SBLQ    AS_PROJECT_DFLT+8
         2 000024   000011 756000 xsym               STQ     AS_DEFAULT+9

       53    12892    1        - AS_PROJECT_DFLT.BUDGET.PROJ_ALLOWED;
       54    12893    1   USERS_KEY = PROJECT;

  12893  2 000025   000000 100500                    MLR     fill='000'O
         2 000026   200006 000025                    ADSC9   PROJECT,,AUTO            cn=0,n=21
         2 000027   000000 000052 xsym               ADSC9   USERS_KEY                cn=0,n=42

       55    12894    2   IF AS_PROJECT.BUDGET.PCHARGES THEN DO;

  12894  2 000030   000017 236000 xsym               LDQ     AS_PROJECT+15
         2 000031   000100 316003                    CANQ    64,DU
         2 000032   000042 600000 2                  TZE     s:12899

       56    12895    2      AS_PROJ_ADMIN.BUDGET.PACCUM = AS_PROJ_ADMIN.BUDGET.PACCUM

  12895  2 000033   000011 236000 xsym               LDQ     AS_PROJ_ADMIN+9
         2 000034   000011 136000 xsym               SBLQ    AS_PROJECT+9
         2 000035   000011 756000 xsym               STQ     AS_PROJ_ADMIN+9

       57    12896    2           - AS_PROJECT.BUDGET.PACCUM;
       58    12897    2      CALL ASB$WRITE_USERS( AS_PROJ_ADMIN );

  12897  2 000036   000000 630400 3                  EPPR0   0
         2 000037   000017 631400 xsym               EPPR1   B_VECTNIL+15
         2 000040   000000 701000 xent               TSX1    ASB$WRITE_USERS
         2 000041   000000 011000                    NOP     0

PL6.E3A0      #001=ASA$UNTIE_PROJECT File=ASA$UNTIE_PROJECT.:E05TSI              TUE 07/29/97 08:53 Page:10
       59    12898    2      END;

       60    12899    1   USERS_KEY.UKEY.S = 'S';

  12899  2 000042   000123 236003                    LDQ     83,DU
         2 000043   000005 552020 xsym               STBQ    USERS_KEY+5,'20'O

       61    12900    1   USERS_KEY.COUNT = 21;

  12900  2 000044   025000 236003                    LDQ     10752,DU
         2 000045   000000 552040 xsym               STBQ    USERS_KEY,'40'O

       62    12901    1   CALL ASB$WRITE_USERS( AS_DEFAULT );

  12901  2 000046   000001 630400 3                  EPPR0   1
         2 000047   000017 631400 xsym               EPPR1   B_VECTNIL+15
         2 000050   000000 701000 xent               TSX1    ASB$WRITE_USERS
         2 000051   000000 011000                    NOP     0

       63    12902    1   CALL CONCAT( USERS_KEY.TXTC, BINASC(1), PROJECT.TEXT, UNTIE_PROJ.TEXT );

  12902  2 000052   000001 236003                    LDQ     1,DU
         2 000053   000000 552020 xsym               STBQ    USERS_KEY,'20'O
         2 000054   040000 100500                    MLR     fill='040'O
         2 000055   200006 200024                    ADSC9   PROJECT,,AUTO            cn=1,n=20
         2 000056   000000 400024 xsym               ADSC9   USERS_KEY                cn=2,n=20
         2 000057   200003 470500                    LDP0    @UNTIE_PROJ,,AUTO
         2 000060   040000 100500                    MLR     fill='040'O
         2 000061   000000 200024                    ADSC9   0,,PR0                   cn=1,n=20
         2 000062   000005 400024 xsym               ADSC9   USERS_KEY+5              cn=2,n=20

       64    12903    1   CALL INDEX( I, AS_BLANK, USERS_KEY.TXTC, 29 );

  12903  2 000063   000000 124400                    SCM     mask='000'O
         2 000064   000007 400014 xsym               ADSC9   USERS_KEY+7              cn=2,n=12
         2 000065   000000 000001 xsym               ADSC9   AS_BLANK                 cn=0,n=1
         2 000066   200014 000100                    ARG     I,,AUTO
PL6.E3A0      #001=ASA$UNTIE_PROJECT File=ASA$UNTIE_PROJECT.:E05TSI              TUE 07/29/97 08:53 Page:11
         2 000067   000035 236007                    LDQ     29,DL
         2 000070   200014 056100                    ASQ     I,,AUTO

       65    12904    1   USERS_KEY.COUNT = I;

  12904  2 000071   200014 236100                    LDQ     I,,AUTO
         2 000072   000033 736000                    QLS     27
         2 000073   000000 552040 xsym               STBQ    USERS_KEY,'40'O

       66    12905    1   CALL ASB$DELREC_USERS;

  12905  2 000074   000002 631400 xsym               EPPR1   B_VECTNIL+2
         2 000075   000000 701000 xent               TSX1    ASB$DELREC_USERS
         2 000076   000000 011000                    NOP     0

       67    12906    2   IF REPORT THEN DO;

  12906  2 000077   200005 470500                    LDP0    @REPORT,,AUTO
         2 000100   000000 234100                    SZN     0,,PR0
         2 000101   000125 605000 2                  TPL     s:12929

       68    12907        /*E*  ERROR:      ASA-E$PROJ_UNTIED-C
       69    12908              MESSAGE:.. Project "%U1" untied from project "%U2".
       70    12909        */
       71    12910    2      CALL ASA$KEYCONV( UNTIE_PROJ, AS_FIELD1 );

  12910  2 000102   000002 236000 3                  LDQ     2
         2 000103   200003 235100                    LDA     @UNTIE_PROJ,,AUTO
         2 000104   200020 757100                    STAQ    ARS+2,,AUTO
         2 000105   200020 630500                    EPPR0   ARS+2,,AUTO
         2 000106   000020 631400 xsym               EPPR1   B_VECTNIL+16
         2 000107   000000 701000 xent               TSX1    ASA$KEYCONV
         2 000110   000000 011000                    NOP     0

       72    12911    2      CALL ASA$KEYCONV( PROJECT,    AS_FIELD2 );

  12911  2 000111   000003 236000 3                  LDQ     3
PL6.E3A0      #001=ASA$UNTIE_PROJECT File=ASA$UNTIE_PROJECT.:E05TSI              TUE 07/29/97 08:53 Page:12
         2 000112   200021 756100                    STQ     ARS+3,,AUTO
         2 000113   200006 630500                    EPPR0   PROJECT,,AUTO
         2 000114   200020 450500                    STP0    ARS+2,,AUTO
         2 000115   200020 630500                    EPPR0   ARS+2,,AUTO
         2 000116   000020 631400 xsym               EPPR1   B_VECTNIL+16
         2 000117   000000 701000 xent               TSX1    ASA$KEYCONV
         2 000120   000000 011000                    NOP     0

       73    12912           %SCREAM( ERR#=E$PROJ_UNTIED, LEVEL=INFO, MID='A' );

  12920  2 000121   000004 630400 3                  EPPR0   4
         2 000122   000017 631400 xsym               EPPR1   B_VECTNIL+15
         2 000123   000000 701000 xent               TSX1    ASH$INFO
         2 000124   000000 011000                    NOP     0

       74    12927    2      END;

       75    12928
       76    12929    1   PROJ_KEY = PROJECT;

  12929  2 000125   000000 100500                    MLR     fill='000'O
         2 000126   200006 000025                    ADSC9   PROJECT,,AUTO            cn=0,n=21
         2 000127   000000 000033 xsym               ADSC9   PROJ_KEY                 cn=0,n=27

       77    12930    2   DO I = 0 TO PSET_COUNT-1;

  12930  2 000130   200014 450100                    STZ     I,,AUTO
         2 000131   000220 710000 2                  TRA     s:12942+1

       78    12931    2      PROJ_KEY.TXT.PACKSET = PSET$LIST.PSN(I);

  12931  2 000132   200014 236100                    LDQ     I,,AUTO
         2 000133   000070 402007                    MPY     56,DL
         2 000134   000000 470400 xsym               LDP0    DSEG1$
         2 000135   040000 100506                    MLR     fill='040'O
         2 000136   000014 000006                    ADSC9   12,Q,PR0                 cn=0,n=6
         2 000137   000005 200006 xsym               ADSC9   PROJ_KEY+5               cn=1,n=6
PL6.E3A0      #001=ASA$UNTIE_PROJECT File=ASA$UNTIE_PROJECT.:E05TSI              TUE 07/29/97 08:53 Page:13

       79    12932    2      CALL INDEX( J, AS_BLANK, PROJ_KEY.TEXT, 20 );

  12932  2 000140   000000 124400                    SCM     mask='000'O
         2 000141   000005 200006 xsym               ADSC9   PROJ_KEY+5               cn=1,n=6
         2 000142   000000 000001 xsym               ADSC9   AS_BLANK                 cn=0,n=1
         2 000143   200015 000100                    ARG     J,,AUTO
         2 000144   000024 236007                    LDQ     20,DL
         2 000145   200015 056100                    ASQ     J,,AUTO

       80    12933    2      PROJ_KEY.COUNT = J;

  12933  2 000146   200015 236100                    LDQ     J,,AUTO
         2 000147   000033 736000                    QLS     27
         2 000150   000000 552040 xsym               STBQ    PROJ_KEY,'40'O

       81    12934    2      ARS = DSEG2SIZE;

  12934  2 000151   000000 235000 xsym               LDA     DSEG2SIZE
         2 000152   200016 755100                    STA     ARS,,AUTO

       82    12935    2      CALL ASB$READ_PROJ( DSEG2$, ARS, 2 ) ALTRET(IO_ERR);

  12935  2 000153   000005 236000 3                  LDQ     5
         2 000154   200022 756100                    STQ     ARS+4,,AUTO
         2 000155   200016 631500                    EPPR1   ARS,,AUTO
         2 000156   200021 451500                    STP1    ARS+3,,AUTO
         2 000157   000006 236000 3                  LDQ     6
         2 000160   200020 756100                    STQ     ARS+2,,AUTO
         2 000161   200020 630500                    EPPR0   ARS+2,,AUTO
         2 000162   000021 631400 xsym               EPPR1   B_VECTNIL+17
         2 000163   000000 701000 xent               TSX1    ASB$READ_PROJ
         2 000164   000213 702000 2                  TSX2    IO_ERR

       83    12936    2      AS$PROJ.SUB_PROJ_ACCTS = AS$PROJ.SUB_PROJ_ACCTS - PSET$LIST.MAX_NUM_ACCTS(I);

  12936  2 000165   200014 236100                    LDQ     I,,AUTO
PL6.E3A0      #001=ASA$UNTIE_PROJECT File=ASA$UNTIE_PROJECT.:E05TSI              TUE 07/29/97 08:53 Page:14
         2 000166   000016 402007                    MPY     14,DL
         2 000167   000000 470400 xsym               LDP0    DSEG1$
         2 000170   000000 620006                    EAX0    0,QL
         2 000171   000000 471400 xsym               LDP1    DSEG2$
         2 000172   100005 236100                    LDQ     5,,PR1
         2 000173   777777 376007                    ANQ     -1,DL
         2 000174   000012 136110                    SBLQ    10,X0,PR0
         2 000175   000000 621006                    EAX1    0,QL
         2 000176   100005 441100                    SXL1    5,,PR1

       84    12937    2      AS$PROJ.GRANS_ACCUM= AS$PROJ.GRANS_ACCUM - PSET$LIST.MAX_NUM_GRANS(I);

  12937  2 000177   100007 236100                    LDQ     7,,PR1
         2 000200   000006 136110                    SBLQ    6,X0,PR0
         2 000201   100007 756100                    STQ     7,,PR1

       85    12938    2      CALL ASB$WRITE_PROJ( DSEG2$, ARS ) ALTRET(IO_ERR);

  12938  2 000202   200016 633500                    EPPR3   ARS,,AUTO
         2 000203   200021 453500                    STP3    ARS+3,,AUTO
         2 000204   000006 236000 3                  LDQ     6
         2 000205   200020 756100                    STQ     ARS+2,,AUTO
         2 000206   200020 630500                    EPPR0   ARS+2,,AUTO
         2 000207   000020 631400 xsym               EPPR1   B_VECTNIL+16
         2 000210   000000 701000 xent               TSX1    ASB$WRITE_PROJ
         2 000211   000213 702000 2                  TSX2    IO_ERR

       86    12939    3      DO WHILE('0'B);

  12939  2 000212   000217 710000 2                  TRA     s:12942

       87    12940    3   IO_ERR: CALL ASH$ERROR( ERR_CODE );

  12940  2 000213   000007 630400 3     IO_ERR       EPPR0   7
         2 000214   000017 631400 xsym               EPPR1   B_VECTNIL+15
         2 000215   000000 701000 xent               TSX1    ASH$ERROR
         2 000216   000000 011000                    NOP     0
PL6.E3A0      #001=ASA$UNTIE_PROJECT File=ASA$UNTIE_PROJECT.:E05TSI              TUE 07/29/97 08:53 Page:15

       88    12941    3         END;

       89    12942    2      END;

  12942  2 000217   200014 054100                    AOS     I,,AUTO
         2 000220   200004 470500                    LDP0    @PSET_COUNT,,AUTO
         2 000221   200014 236100                    LDQ     I,,AUTO
         2 000222   000000 116100                    CMPQ    0,,PR0
         2 000223   000132 604000 2                  TMI     s:12931

       90    12943
       91    12944    1   EXIT#: RETURN;

  12944  2 000224   000000 702200 xent  EXIT#        TSX2  ! X66_ARET
       92    12945
       93    12946    1   END ASA$UNTIE_PROJECT;

PL6.E3A0      #001=ASA$UNTIE_PROJECT File=ASA$UNTIE_PROJECT.:E05TSI              TUE 07/29/97 08:53 Page:16
--  Include file information  --

   AS_SUPER_R.:E05TOU  cannot be made into a system file and is referenced.
   KL_SUPER_C.:E05TOU  is referenced.
   XU_FORMAT_C.:E05TOU  is referenced.
   XU_MACRO_C.:E05TOU  is referenced.
   AS_SUPER_C.:E05TOU  is referenced.
   AS_MAC_C.:E05TOU  cannot be made into a system file and is referenced.
   AS_PERR_C.:E05TOU  is referenced.
   AS_SUBS_C.:E05TOU  is referenced.
   AS_ENTRIES_M.:E05TOU  is referenced.
      No diagnostics issued in procedure ASA$UNTIE_PROJECT.
PL6.E3A0      #001=ASA$UNTIE_PROJECT File=ASA$UNTIE_PROJECT.:E05TSI              TUE 07/29/97 08:53 Page:17

 **** Variables and constants ****

  ****  Auto variables  ****

  ****  Scalars and arrays  ****
OctLoc.c.b A Datatyp(siz) R M Lvl/name                 OctLoc.c.b A Datatyp(siz) R M Lvl/name

     4-0-0/w PTR         r     1 @PSET_COUNT                5-0-0/w PTR         r     1 @REPORT
     3-0-0/w PTR         r     1 @UNTIE_PROJ               16-0-0/w SBIN        r     1 ARS
    14-0-0/w SBIN        r     1 I                         15-0-0/w SBIN        r     1 J
     6-0-0/c STRC(189)   r     1 PROJECT                   *0-0-0/w SBIN        r     1 PSET_COUNT
    *0-0-0/w BIT         r     1 REPORT                    *0-0-0/c STRC(189)   r     1 UNTIE_PROJ

  ****  SYMREF variables  ****

  ****  Scalars and arrays  ****
OctLoc.c.b A Datatyp(siz) R M Lvl/name                 OctLoc.c.b A Datatyp(siz) R M Lvl/name

     0-0-0/c CHAR        r     1 AS_BLANK                   0-0-0/w STRC(18576) r     1 AS_DEFAULT
     0-0-0/w STRC(369)   r     1 AS_FIELD1                  0-0-0/w STRC(369)   r     1 AS_FIELD2
     0-0-0/w STRC(18576) r     1 AS_PROJECT                 0-0-0/c STRC(189)   r     1 AS_PROJECT_ADMIN
     0-0-0/w STRC(18576) r     1 AS_PROJECT_DFLT            0-0-0/w STRC(18576) r     1 AS_PROJ_ADMIN
     0-0-0/w PTR         r     1 DSEG1$                     0-0-0/w PTR         r     1 DSEG2$
     0-0-0/w UBIN        r     1 DSEG2SIZE                  0-0-0/b STRC        r     1 ERR_CODE
     0-0-0/c STRC(243)   r     1 PROJ_KEY                   0-0-0/c STRC(378)   r     1 USERS_KEY

  ****  BASED and DCB variables  ****

  ****  Scalars and arrays  ****
OctLoc.c.b A Datatyp(siz) R M Lvl/name                 OctLoc.c.b A Datatyp(siz) R M Lvl/name

     0-0-0/w ASTR(468)   r     1 AS$PROJ
     0-0-0/w STRC(504)   r     1 PSET$LIST(0:0)


   Procedure ASA$UNTIE_PROJECT requires 149 words for executable code.
PL6.E3A0      #001=ASA$UNTIE_PROJECT File=ASA$UNTIE_PROJECT.:E05TSI              TUE 07/29/97 08:53 Page:18
   Procedure ASA$UNTIE_PROJECT requires 20 words of local(AUTO) storage.

    No errors detected in file ASA$UNTIE_PROJECT.:E05TSI    .
PL6.E3A0      #001=ASA$UNTIE_PROJECT File=ASA$UNTIE_PROJECT.:E05TSI              TUE 07/29/97 08:53 Page:19
          *** CROSS REFERENCE LISTING ***
**     DENOTES     IDENTIFIER DEFINITION
<<                 IDENTIFIER'S VALUE SET
>>                 IDENTIFIER'S VALUE USED
<>                 IDENTIFIER SET AND/OR USED
--                 IDENTIFIER REFERENCED
PL6.E3A0      #001=ASA$UNTIE_PROJECT File=ASA$UNTIE_PROJECT.:E05TSI              TUE 07/29/97 08:53 Page:20
          MINI XREF LISTING

ARS
     12885**DCL     12934<<ASSIGN  12935<>CALL    12938<>CALL
AS$PROJ.ATTRIBUTES.COUNT
     12845**DCL     12846--IMP-SIZ
AS$PROJ.GRANS_ACCUM
     12836**DCL     12937<<ASSIGN  12937>>ASSIGN
AS$PROJ.SUB_PROJ_ACCTS
     12832**DCL     12936<<ASSIGN  12936>>ASSIGN
ASA$KEYCONV
     12877**DCL-ENT 12910--CALL    12911--CALL
ASA_BRKS_LOC
      9925**DCL      9925--REDEF
ASB$DELREC_USERS
     12856**DCL-ENT 12905--CALL
ASB$READ_PROJ
     12862**DCL-ENT 12935--CALL
ASB$WRITE_PROJ
     12868**DCL-ENT 12938--CALL
ASB$WRITE_USERS
     12853**DCL-ENT 12897--CALL    12901--CALL
ASH$ERROR
     12871**DCL-ENT 12940--CALL
ASH$INFO
     12874**DCL-ENT 12920--CALL
AS_BLANK
      9785**DCL     12903>>CALLBLT 12932>>CALLBLT
AS_DEFAULT
     10503**DCL     12901<>CALL
AS_DEFAULT.BANNER_PERM
     10618**DCL     10619--REDEF
AS_DEFAULT.BUDGET.MACCT
     10523**DCL     10527--REDEF
PL6.E3A0      #001=ASA$UNTIE_PROJECT File=ASA$UNTIE_PROJECT.:E05TSI              TUE 07/29/97 08:53 Page:21
AS_DEFAULT.BUDGET.MAX_PROJECTS
     10536**DCL     10539--REDEF
AS_DEFAULT.BUDGET.PACCUM
     10519**DCL     10521--REDEF
AS_DEFAULT.BUDGET.PMAXC
     10514**DCL     10516--REDEF
AS_DEFAULT.BUDGET.PROJ_CREATED
     10521**DCL     12891<<ASSIGN  12891>>ASSIGN
AS_DEFAULT.BUDGET.SUB_PROJS
     10539**DCL     12889<<ASSIGN  12889>>ASSIGN
AS_DEFAULT.SETUP_CHRA.TXT
     10634**DCL     10635--REDEF   10636--REDEF
AS_DEFAULT_DREC.PASSWORD
     11888**DCL     11892--REDEF
AS_DEFAULT_DREC.RENAME
     11911**DCL     11912--REDEF
AS_DFLT.BANNER_PERM
     10440**DCL     10441--REDEF
AS_DFLT.BUDGET.MACCT
     10345**DCL     10349--REDEF
AS_DFLT.BUDGET.MAX_PROJECTS
     10358**DCL     10361--REDEF
AS_DFLT.BUDGET.PACCUM
     10341**DCL     10343--REDEF
AS_DFLT.BUDGET.PMAXC
     10336**DCL     10338--REDEF
AS_DFLT.SETUP_CHRA.TXT
     10456**DCL     10457--REDEF   10458--REDEF
AS_FE_MODE
      9791**DCL      9792--REDEF
AS_FIELD1
      9921**DCL     12910<>CALL
AS_FIELD2
      9922**DCL     12911<>CALL
AS_MODE
      9788**DCL      9790--REDEF
PL6.E3A0      #001=ASA$UNTIE_PROJECT File=ASA$UNTIE_PROJECT.:E05TSI              TUE 07/29/97 08:53 Page:22
AS_MOD_USER.ACCESS
     12653**DCL     12654--REDEF
AS_MOD_USER.BANNER
     12640**DCL     12641--REDEF
AS_MOD_USER.BANNER_PERM
     12642**DCL     12643--REDEF
AS_MOD_USER.BILL
     12648**DCL     12649--REDEF
AS_MOD_USER.CPROC
     12644**DCL     12645--REDEF
AS_MOD_USER.FEBILL
     12724**DCL     12725--REDEF
AS_MOD_USER.FECXTMEM
     12741**DCL     12742--REDEF
AS_MOD_USER.FEMINTS
     12726**DCL     12727--REDEF
AS_MOD_USER.FEMMEM
     12737**DCL     12738--REDEF
AS_MOD_USER.FEMTIME
     12735**DCL     12736--REDEF
AS_MOD_USER.FEPPRIV
     12732**DCL     12734--REDEF
AS_MOD_USER.FEPRIV
     12729**DCL     12731--REDEF
AS_MOD_USER.FORCE_BIT
     12638**DCL     12639--REDEF
AS_MOD_USER.KEY
     12720**DCL     12722--REDEF
AS_MOD_USER.LASTCPROC
     12646**DCL     12647--REDEF
AS_MOD_USER.LIMITS.DO_
     12694**DCL     12695--REDEF
AS_MOD_USER.LIMITS.FPOOLS
     12710**DCL     12711--REDEF
AS_MOD_USER.LIMITS.LO
     12690**DCL     12691--REDEF
PL6.E3A0      #001=ASA$UNTIE_PROJECT File=ASA$UNTIE_PROJECT.:E05TSI              TUE 07/29/97 08:53 Page:23
AS_MOD_USER.LIMITS.MEM
     12686**DCL     12687--REDEF
AS_MOD_USER.LIMITS.MPRIO
     12714**DCL     12715--REDEF
AS_MOD_USER.LIMITS.PDIS
     12702**DCL     12703--REDEF
AS_MOD_USER.LIMITS.PO
     12698**DCL     12699--REDEF
AS_MOD_USER.LIMITS.TDIS
     12706**DCL     12707--REDEF
AS_MOD_USER.LIMITS.TIME
     12682**DCL     12683--REDEF
AS_MOD_USER.MAXENQ
     12663**DCL     12664--REDEF
AS_MOD_USER.PERM_BIT
     12636**DCL     12637--REDEF
AS_MOD_USER.PPRIV
     12658**DCL     12660--REDEF
AS_MOD_USER.PRIOB
     12665**DCL     12666--REDEF
AS_MOD_USER.PRIV
     12655**DCL     12657--REDEF
AS_MOD_USER.QUAN
     12661**DCL     12662--REDEF
AS_MOD_USER.SETUP
     12634**DCL     12635--REDEF
AS_PROJECT.BANNER_PERM
     10974**DCL     10975--REDEF
AS_PROJECT.BUDGET.MACCT
     10879**DCL     10883--REDEF   12887>>ASSIGN  12888<<ASSIGN
AS_PROJECT.BUDGET.MAX_PROJECTS
     10892**DCL     10895--REDEF   12889>>ASSIGN
AS_PROJECT.BUDGET.PACCUM
     10875**DCL     10877--REDEF   12895>>ASSIGN
AS_PROJECT.BUDGET.PCHARGES
     10888**DCL     12894>>IF
PL6.E3A0      #001=ASA$UNTIE_PROJECT File=ASA$UNTIE_PROJECT.:E05TSI              TUE 07/29/97 08:53 Page:24
AS_PROJECT.BUDGET.PMAXC
     10870**DCL     10872--REDEF
AS_PROJECT.SETUP_CHRA.TXT
     10990**DCL     10991--REDEF   10992--REDEF
AS_PROJECT_ADMIN
      9929**DCL     12888>>ASSIGN
AS_PROJECT_DFLT.BANNER_PERM
     11152**DCL     11153--REDEF
AS_PROJECT_DFLT.BUDGET.MACCT
     11057**DCL     11061--REDEF
AS_PROJECT_DFLT.BUDGET.MAX_PROJECTS
     11070**DCL     11073--REDEF
AS_PROJECT_DFLT.BUDGET.PACCUM
     11053**DCL     11055--REDEF
AS_PROJECT_DFLT.BUDGET.PMAXC
     11048**DCL     11050--REDEF
AS_PROJECT_DFLT.BUDGET.PROJ_ALLOWED
     11050**DCL     12891>>ASSIGN
AS_PROJECT_DFLT.SETUP_CHRA.TXT
     11168**DCL     11169--REDEF   11170--REDEF
AS_PROJECT_DFLT_DREC.PASSWORD
     12374**DCL     12378--REDEF
AS_PROJECT_DFLT_DREC.RENAME
     12397**DCL     12398--REDEF
AS_PROJECT_DREC.PASSWORD
     12212**DCL     12216--REDEF
AS_PROJECT_DREC.RENAME
     12235**DCL     12236--REDEF
AS_PROJ_ADMIN
     10681**DCL     12897<>CALL
AS_PROJ_ADMIN.BANNER_PERM
     10796**DCL     10797--REDEF
AS_PROJ_ADMIN.BUDGET.MACCT
     10701**DCL     10705--REDEF
AS_PROJ_ADMIN.BUDGET.MAX_PROJECTS
     10714**DCL     10717--REDEF
PL6.E3A0      #001=ASA$UNTIE_PROJECT File=ASA$UNTIE_PROJECT.:E05TSI              TUE 07/29/97 08:53 Page:25
AS_PROJ_ADMIN.BUDGET.PACCUM
     10697**DCL     10699--REDEF   12895<<ASSIGN  12895>>ASSIGN
AS_PROJ_ADMIN.BUDGET.PMAXC
     10692**DCL     10694--REDEF
AS_PROJ_ADMIN.SETUP_CHRA.TXT
     10812**DCL     10813--REDEF   10814--REDEF
AS_PROJ_ADMIN_DREC.PASSWORD
     12050**DCL     12054--REDEF
AS_PROJ_ADMIN_DREC.RENAME
     12073**DCL     12074--REDEF
AS_USERS.BANNER_PERM
     10262**DCL     10263--REDEF
AS_USERS.BUDGET.MACCT
     10167**DCL     10171--REDEF
AS_USERS.BUDGET.MAX_PROJECTS
     10180**DCL     10183--REDEF
AS_USERS.BUDGET.PACCUM
     10163**DCL     10165--REDEF
AS_USERS.BUDGET.PMAXC
     10158**DCL     10160--REDEF
AS_USERS.SETUP_CHRA.TXT
     10278**DCL     10279--REDEF   10280--REDEF
AS_USERS_CONSTANT.BANNER_PERM
     11330**DCL     11331--REDEF
AS_USERS_CONSTANT.BUDGET.MACCT
     11235**DCL     11239--REDEF
AS_USERS_CONSTANT.BUDGET.MAX_PROJECTS
     11248**DCL     11251--REDEF
AS_USERS_CONSTANT.BUDGET.PACCUM
     11231**DCL     11233--REDEF
AS_USERS_CONSTANT.BUDGET.PMAXC
     11226**DCL     11228--REDEF
AS_USERS_CONSTANT.SETUP_CHRA.TXT
     11346**DCL     11347--REDEF   11348--REDEF
DSEG1$
      9926**DCL     12794--IMP-PTR 12931>>ASSIGN  12936>>ASSIGN  12937>>ASSIGN
PL6.E3A0      #001=ASA$UNTIE_PROJECT File=ASA$UNTIE_PROJECT.:E05TSI              TUE 07/29/97 08:53 Page:26
DSEG2$
      9927**DCL     12825--IMP-PTR 12935<>CALL    12936>>ASSIGN  12936>>ASSIGN  12937>>ASSIGN  12937>>ASSIGN
     12938<>CALL
DSEG2SIZE
      9927**DCL     12934>>ASSIGN
ERR_CODE
      9920**DCL      9921--REDEF   12940<>CALL
I
     12883**DCL     12903<<CALLBLT 12904>>ASSIGN  12930<<DOINDEX 12931>>ASSIGN  12936>>ASSIGN  12937>>ASSIGN
IO_ERR
     12940**LABEL   12935--CALLALT 12938--CALLALT
J
     12884**DCL     12932<<CALLBLT 12933>>ASSIGN
KL_DEFAULT.PASSWORD
     12536**DCL     12540--REDEF
KL_DEFAULT.RENAME
     12559**DCL     12560--REDEF
KL_DFLT.PASSWORD
     11726**DCL     11730--REDEF
KL_DFLT.RENAME
     11749**DCL     11750--REDEF
KL_DREC.PASSWORD
     11564**DCL     11568--REDEF
KL_DREC.RENAME
     11587**DCL     11588--REDEF
KL_DREC_CNT.PASSWORD
     11451**DCL     11455--REDEF
KL_DREC_CNT.RENAME
     11474**DCL     11475--REDEF
PROJECT
     12880**DCL     12887<<ASSIGN  12893>>ASSIGN  12911<>CALL    12929>>ASSIGN
PROJECT.TEXT
     12882**DCL     12902>>CALLBLT
PROJ_KEY
      9797**DCL     12929<<ASSIGN
PROJ_KEY.COUNT
PL6.E3A0      #001=ASA$UNTIE_PROJECT File=ASA$UNTIE_PROJECT.:E05TSI              TUE 07/29/97 08:53 Page:27
      9798**DCL     12933<<ASSIGN
PROJ_KEY.TEXT
      9798**DCL      9798--REDEF   12932>>CALLBLT
PROJ_KEY.TXT.PACKSET
      9799**DCL     12931<<ASSIGN
PROJ_KEY.TXT.PROJECT
      9798**DCL      9798--REDEF
PSET$LIST.MAX_NUM_ACCTS
     12809**DCL     12936>>ASSIGN
PSET$LIST.MAX_NUM_GRANS
     12803**DCL     12937>>ASSIGN
PSET$LIST.PSN
     12813**DCL     12931>>ASSIGN
PSET_COUNT
     12781**DCL         7--PROC    12930>>DOINDEX
REMEM_VAR
      9924**DCL      9924--REDEF
REM_FCMD
      9924**DCL      9925--REDEF
REPORT
     12782**DCL         7--PROC    12906>>IF
UNTIE_PROJ
     12778**DCL         7--PROC    12910<>CALL
UNTIE_PROJ.TEXT
     12780**DCL     12902>>CALLBLT
USERS_KEY
      9795**DCL     12893<<ASSIGN
USERS_KEY.COUNT
      9795**DCL     12900<<ASSIGN  12904<<ASSIGN
USERS_KEY.TEXT
      9795**DCL      9796--REDEF    9796--REDEF    9796--REDEF    9797--REDEF
USERS_KEY.TXTC
      9796**DCL     12902<<CALLBLT 12903>>CALLBLT
USERS_KEY.UKEY.S
      9797**DCL     12899<<ASSIGN
