PL6.E3A0      #002=ASC$BUILD_CHARSET File=ASB$BUILD_DEFAULT_FILES.:E05TSI        TUE 07/29/97 08:57 Page:69
      274        1        /*T***********************************************************/
      275        2        /*T*                                                         */
      276        3        /*T* Copyright (c) Bull HN Information Systems Inc., 1997    */
      277        4        /*T*                                                         */
      278        5        /*T***********************************************************/
      279        6        %EJECT;
PL6.E3A0      #002=ASC$BUILD_CHARSET File=ASB$BUILD_DEFAULT_FILES.:E05TSI        TUE 07/29/97 08:57 Page:70
      280        7        /*M* ASC$BUILD_CHARSET - Builds the default charsets... */
      281        8        ASC$BUILD_CHARSET: PROC;
      282        9        %INCLUDE AS_ENTRIES_M;
      283     1059        %INCLUDE CP_6;
      284     6618        %INCLUDE AS_SUBS_C;
      285     8032        %INCLUDE FS_SUPER_C;
      286     8795        %EQU QSTR = %BITASC ('042'O);
      287     8796
      288     8797    1   DCL M$FORM DCB;
      289     8798    1   DCL PTR$ PTR;
      290     8799    1   DCL BOUND UBIN;
      291     8800
      292     8801        %ASF$OPEN_FORM_CR ;
      293     8804        %ASF$WRITE_FORM ;
      294     8807        %LIST;
      295     8808        %SET LISTSUB='1'B;
      296     8809        %SET LISTEXP='1'B;
      297     8810
      298     8811        %FS$CHARSET (NAME=ASC64,             /* 500 image */
      299     8812                      STCLASS=CONSTANT,
      300     8813                      LP_OK='1'B,
      301     8814                      TS_OK='1'B,
      302     8815                      ELS_OK='1'B,
      303     8816                      ONE_OK='0'B,
      304     8817                      LTYPE = '  ',
      305     8818                      ATTRIBUTES='000040'O,
      306     8819                      CHARSET0="'=5678GHIJKL|0.-*/MNOPQR:'" ,
      307     8820                      CHARSET1="'&(9),STUVWX}01234YZ$`#+!'"  ,
      308     8821                      CHARSET2="'?5678ABCDEF~0.-*/GHIJKL<'" ,
      309     8822                      CHARSET3="'>(9),MNOPQR{01234STUVWX;'"  ,
      310     8823                      CHARSET4="%CONCAT ('''5678YZ$@#%_0.-*/ABCDEF',QSTR)" ,
      311     8824                      CHARSET5="'=(9),GHIJKL\01234MNOPQR:'"  ,
      312     8825                      CHARSET6="'&5678STUVWX]0.-*/YZ$@#+!'" ,
      313     8826                      CHARSET7="'?(9),ABCDEF^01234GHIJKL<'"  ,
      314     8827                      CHARSET8="'>5678MNOPQR[0.-*/STUVWX;'"  ,
      315     8828                      CHARSET9="%CONCAT ('''(9),YZ$@#%_01234ABCDEF',QSTR)" );
              8829        %LSET STR='CONSTANT        ';
PL6.E3A0      #002=ASC$BUILD_CHARSET File=ASB$BUILD_DEFAULT_FILES.:E05TSI        TUE 07/29/97 08:57 Page:71
              8830        %IF
              8832         '1'B;
              8833        %LSET INIT=INIT;
              8834        %ELSE;
              8836        %ENDIF;
              8837    1   DCL 1 ASC64 CONSTANT ALIGNED,
              8838    1         2 SETS (0:9) CHAR (24) INIT ('=5678GHIJKL|0.-*/MNOPQR:',
              8839    1                                    '&(9),STUVWX}01234YZ$`#+!',
              8840    1                                    '?5678ABCDEF~0.-*/GHIJKL<',
              8841    1                                    '>(9),MNOPQR{01234STUVWX;',
              8842    1                                    '''5678YZ$@#%_0.-*/ABCDEF"',
              8843    1                                    '=(9),GHIJKL\01234MNOPQR:',
              8844    1                                    '&5678STUVWX]0.-*/YZ$@#+!',
              8845    1                                    '?(9),ABCDEF^01234GHIJKL<',
              8846    1                                    '>5678MNOPQR[0.-*/STUVWX;',
              8847    1                                    '''(9),YZ$@#%_01234ABCDEF"') /**/,
              8848    1         2 CHAINIMAGE REDEF SETS CHAR (240) UNAL,
              8849    1         2 ATTRS BIT (18) INIT ('000040'O) /**/,
              8850    1         2 LGLTYPS,
              8851    1           3 LPOK BIT(1) INIT('1'B)/**/,
              8852    1           3 TSOK BIT(1) INIT('1'B)/**/,
              8853    1           3 ELSOK BIT(1) INIT('1'B)/**/,
              8854    1           3 ONEOK BIT(1) INIT('0'B)/**/,
              8855    1           3 * BIT(5) INIT('00000'B)/**/,
              8856    1           3 LTYP CHAR(2) INIT('  ')/**/,
              8857    1           3 * BIT(27) INIT('000000000'O)/**/;
      316     8859
      317     8860        %FS$CHARSET (NAME=ASC95,             /* 600 image */
      318     8861                      STCLASS=CONSTANT,
      319     8862                      LP_OK='1'B,
      320     8863                      TS_OK='1'B,
      321     8864                      ELS_OK='1'B,
      322     8865                      ONE_OK='0'B,
      323     8866                      LTYPE = '  ',
      324     8867                      ATTRIBUTES='000041'O,
      325     8868                      CHARSET0="'BDFGHJgS0ACEINORLTabcdef'"  ,
      326     8869                      CHARSET1="'KhijklmM0PQUVWXYZ:;?!%7x'"  ,
PL6.E3A0      #002=ASC$BUILD_CHARSET File=ASB$BUILD_DEFAULT_FILES.:E05TSI        TUE 07/29/97 08:57 Page:72
      327     8870                      CHARSET2="'ynoprstw0z123456#89.,()@'"  ,
      328     8871                      CHARSET3="%CONCAT ('$=&/''\^_0',QSTR,'<>[]gS~ACEINOR')" ,
      329     8872                      CHARSET4="'{Tabcdef0hijklm}|`-*+quv'"  ,
      330     8873                      CHARSET5="'BDFGHJ7x0noprstwLz123456'"  ,
      331     8874                      CHARSET6="'K89.,()M0PQUVWXYZ:;?!%gS'"  ,
      332     8875                      CHARSET7="'yACEINOR0Tabcdef#hijklm@'"  ,
      333     8876                      CHARSET8="%CONCAT ('$=&/''\^_0',QSTR,'<>[]7x~noprstw')" ,
      334     8877                      CHARSET9="'{z123456089.,()}|`-*+quv'"  ) ;
              8878        %LSET STR='CONSTANT        ';
              8879        %IF
              8881         '1'B;
              8882        %LSET INIT=INIT;
              8883        %ELSE;
              8885        %ENDIF;
              8886    1   DCL 1 ASC95 CONSTANT ALIGNED,
              8887    1         2 SETS (0:9) CHAR (24) INIT ('BDFGHJgS0ACEINORLTabcdef',
              8888    1                                    'KhijklmM0PQUVWXYZ:;?!%7x',
              8889    1                                    'ynoprstw0z123456#89.,()@',
              8890    1                                    '$=&/''\^_0"<>[]gS~ACEINOR',
              8891    1                                    '{Tabcdef0hijklm}|`-*+quv',
              8892    1                                    'BDFGHJ7x0noprstwLz123456',
              8893    1                                    'K89.,()M0PQUVWXYZ:;?!%gS',
              8894    1                                    'yACEINOR0Tabcdef#hijklm@',
              8895    1                                    '$=&/''\^_0"<>[]7x~noprstw',
              8896    1                                    '{z123456089.,()}|`-*+quv') /**/,
              8897    1         2 CHAINIMAGE REDEF SETS CHAR (240) UNAL,
              8898    1         2 ATTRS BIT (18) INIT ('000041'O) /**/,
              8899    1         2 LGLTYPS,
              8900    1           3 LPOK BIT(1) INIT('1'B)/**/,
              8901    1           3 TSOK BIT(1) INIT('1'B)/**/,
              8902    1           3 ELSOK BIT(1) INIT('1'B)/**/,
              8903    1           3 ONEOK BIT(1) INIT('0'B)/**/,
              8904    1           3 * BIT(5) INIT('00000'B)/**/,
              8905    1           3 LTYP CHAR(2) INIT('  ')/**/,
              8906    1           3 * BIT(27) INIT('000000000'O)/**/;
      335     8908
      336     8909        %FS$CHARSET (NAME=APLBF,             /* 600 image */
PL6.E3A0      #002=ASC$BUILD_CHARSET File=ASB$BUILD_DEFAULT_FILES.:E05TSI        TUE 07/29/97 08:57 Page:73
      337     8910                      STCLASS=CONSTANT,
      338     8911                      LP_OK='1'B,
      339     8912                      TS_OK='1'B,
      340     8913                      ELS_OK='1'B,
      341     8914                      ONE_OK='0'B,
      342     8915                      LTYPE = '  ',
      343     8916                      ATTRIBUTES='000041'O,
      344     8917                      CHARSET0="'BDFGHJgS0ACEINORLTabcdef'"  ,
      345     8918                      CHARSET1="'KhijklmM0PQUVWXYZ:;?!%7x'"  ,
      346     8919                      CHARSET2="'ynoprstw0z123456#89.,()@'"  ,
      347     8920                      CHARSET3="%CONCAT ('$=&/''\^_0',QSTR,'<>[]gS~ACEINOR')" ,
      348     8921                      CHARSET4="'{Tabcdef0hijklm}|`-*+quv'"  ,
      349     8922                      CHARSET5="'BDFGHJ7x0noprstwLz123456'"  ,
      350     8923                      CHARSET6="'K89.,()M0PQUVWXYZ:;?!%gS'"  ,
      351     8924                      CHARSET7="'yACEINOR0Tabcdef#hijklm@'"  ,
      352     8925                      CHARSET8="%CONCAT ('$=&/''\^_0',QSTR,'<>[]7x~noprstw')" ,
      353     8926                      CHARSET9="'{z123456089.,()}|`-*+quv'"  ) ;
              8927        %LSET STR='CONSTANT        ';
              8928        %IF
              8930         '1'B;
              8931        %LSET INIT=INIT;
              8932        %ELSE;
              8934        %ENDIF;
              8935    1   DCL 1 APLBF CONSTANT ALIGNED,
              8936    1         2 SETS (0:9) CHAR (24) INIT ('BDFGHJgS0ACEINORLTabcdef',
              8937    1                                    'KhijklmM0PQUVWXYZ:;?!%7x',
              8938    1                                    'ynoprstw0z123456#89.,()@',
              8939    1                                    '$=&/''\^_0"<>[]gS~ACEINOR',
              8940    1                                    '{Tabcdef0hijklm}|`-*+quv',
              8941    1                                    'BDFGHJ7x0noprstwLz123456',
              8942    1                                    'K89.,()M0PQUVWXYZ:;?!%gS',
              8943    1                                    'yACEINOR0Tabcdef#hijklm@',
              8944    1                                    '$=&/''\^_0"<>[]7x~noprstw',
              8945    1                                    '{z123456089.,()}|`-*+quv') /**/,
              8946    1         2 CHAINIMAGE REDEF SETS CHAR (240) UNAL,
              8947    1         2 ATTRS BIT (18) INIT ('000041'O) /**/,
              8948    1         2 LGLTYPS,
PL6.E3A0      #002=ASC$BUILD_CHARSET File=ASB$BUILD_DEFAULT_FILES.:E05TSI        TUE 07/29/97 08:57 Page:74
              8949    1           3 LPOK BIT(1) INIT('1'B)/**/,
              8950    1           3 TSOK BIT(1) INIT('1'B)/**/,
              8951    1           3 ELSOK BIT(1) INIT('1'B)/**/,
              8952    1           3 ONEOK BIT(1) INIT('0'B)/**/,
              8953    1           3 * BIT(5) INIT('00000'B)/**/,
              8954    1           3 LTYP CHAR(2) INIT('  ')/**/,
              8955    1           3 * BIT(27) INIT('000000000'O)/**/;
      354     8957
      355     8958        %FS$CHARSET (NAME=APLBP,             /* 600 image */
      356     8959                      STCLASS=CONSTANT,
      357     8960                      LP_OK='1'B,
      358     8961                      TS_OK='1'B,
      359     8962                      ELS_OK='1'B,
      360     8963                      ONE_OK='0'B,
      361     8964                      LTYPE = '  ',
      362     8965                      ATTRIBUTES='000041'O,
      363     8966                      CHARSET0="'BDFGHJgS0ACEINORLTabcdef'"  ,
      364     8967                      CHARSET1="'KhijklmM0PQUVWXYZ:;?!%7x'"  ,
      365     8968                      CHARSET2="'ynoprstw0z123456#89.,()@'"  ,
      366     8969                      CHARSET3="%CONCAT ('$=&/''\^_0',QSTR,'<>[]gS~ACEINOR')" ,
      367     8970                      CHARSET4="'{Tabcdef0hijklm}|`-*+quv'"  ,
      368     8971                      CHARSET5="'BDFGHJ7x0noprstwLz123456'"  ,
      369     8972                      CHARSET6="'K89.,()M0PQUVWXYZ:;?!%gS'"  ,
      370     8973                      CHARSET7="'yACEINOR0Tabcdef#hijklm@'"  ,
      371     8974                      CHARSET8="%CONCAT ('$=&/''\^_0',QSTR,'<>[]7x~noprstw')" ,
      372     8975                      CHARSET9="'{z123456089.,()}|`-*+quv'"  ) ;
              8976        %LSET STR='CONSTANT        ';
              8977        %IF
              8979         '1'B;
              8980        %LSET INIT=INIT;
              8981        %ELSE;
              8983        %ENDIF;
              8984    1   DCL 1 APLBP CONSTANT ALIGNED,
              8985    1         2 SETS (0:9) CHAR (24) INIT ('BDFGHJgS0ACEINORLTabcdef',
              8986    1                                    'KhijklmM0PQUVWXYZ:;?!%7x',
              8987    1                                    'ynoprstw0z123456#89.,()@',
              8988    1                                    '$=&/''\^_0"<>[]gS~ACEINOR',
PL6.E3A0      #002=ASC$BUILD_CHARSET File=ASB$BUILD_DEFAULT_FILES.:E05TSI        TUE 07/29/97 08:57 Page:75
              8989    1                                    '{Tabcdef0hijklm}|`-*+quv',
              8990    1                                    'BDFGHJ7x0noprstwLz123456',
              8991    1                                    'K89.,()M0PQUVWXYZ:;?!%gS',
              8992    1                                    'yACEINOR0Tabcdef#hijklm@',
              8993    1                                    '$=&/''\^_0"<>[]7x~noprstw',
              8994    1                                    '{z123456089.,()}|`-*+quv') /**/,
              8995    1         2 CHAINIMAGE REDEF SETS CHAR (240) UNAL,
              8996    1         2 ATTRS BIT (18) INIT ('000041'O) /**/,
              8997    1         2 LGLTYPS,
              8998    1           3 LPOK BIT(1) INIT('1'B)/**/,
              8999    1           3 TSOK BIT(1) INIT('1'B)/**/,
              9000    1           3 ELSOK BIT(1) INIT('1'B)/**/,
              9001    1           3 ONEOK BIT(1) INIT('0'B)/**/,
              9002    1           3 * BIT(5) INIT('00000'B)/**/,
              9003    1           3 LTYP CHAR(2) INIT('  ')/**/,
              9004    1           3 * BIT(27) INIT('000000000'O)/**/;
      373     9006
      374     9007        %FS$CHARSET (NAME=ASC8,              /* 600 image */
      375     9008                      STCLASS=CONSTANT,
      376     9009                      LP_OK='1'B,
      377     9010                      TS_OK='1'B,
      378     9011                      ELS_OK='1'B,
      379     9012                      ONE_OK='0'B,
      380     9013                      LTYPE = '  ',
      381     9014                      ATTRIBUTES='000041'O,
      382     9015                      CHARSET0="'BDFGHJgS0ACEINORLTabcdef'"  ,
      383     9016                      CHARSET1="'KhijklmM0PQUVWXYZ:;?!%7x'"  ,
      384     9017                      CHARSET2="'ynoprstw0z123456#89.,()@'"  ,
      385     9018                      CHARSET3="%CONCAT ('$=&/''\^_0',QSTR,'<>[]gS~ACEINOR')" ,
      386     9019                      CHARSET4="'{Tabcdef0hijklm}|`-*+quv'"  ,
      387     9020                      CHARSET5="'BDFGHJ7x0noprstwLz123456'"  ,
      388     9021                      CHARSET6="'K89.,()M0PQUVWXYZ:;?!%gS'"  ,
      389     9022                      CHARSET7="'yACEINOR0Tabcdef#hijklm@'"  ,
      390     9023                      CHARSET8="%CONCAT ('$=&/''\^_0',QSTR,'<>[]7x~noprstw')" ,
      391     9024                      CHARSET9="'{z123456089.,()}|`-*+quv'"  ) ;
              9025        %LSET STR='CONSTANT        ';
              9026        %IF
PL6.E3A0      #002=ASC$BUILD_CHARSET File=ASB$BUILD_DEFAULT_FILES.:E05TSI        TUE 07/29/97 08:57 Page:76
              9028         '1'B;
              9029        %LSET INIT=INIT;
              9030        %ELSE;
              9032        %ENDIF;
              9033    1   DCL 1 ASC8 CONSTANT ALIGNED,
              9034    1         2 SETS (0:9) CHAR (24) INIT ('BDFGHJgS0ACEINORLTabcdef',
              9035    1                                    'KhijklmM0PQUVWXYZ:;?!%7x',
              9036    1                                    'ynoprstw0z123456#89.,()@',
              9037    1                                    '$=&/''\^_0"<>[]gS~ACEINOR',
              9038    1                                    '{Tabcdef0hijklm}|`-*+quv',
              9039    1                                    'BDFGHJ7x0noprstwLz123456',
              9040    1                                    'K89.,()M0PQUVWXYZ:;?!%gS',
              9041    1                                    'yACEINOR0Tabcdef#hijklm@',
              9042    1                                    '$=&/''\^_0"<>[]7x~noprstw',
              9043    1                                    '{z123456089.,()}|`-*+quv') /**/,
              9044    1         2 CHAINIMAGE REDEF SETS CHAR (240) UNAL,
              9045    1         2 ATTRS BIT (18) INIT ('000041'O) /**/,
              9046    1         2 LGLTYPS,
              9047    1           3 LPOK BIT(1) INIT('1'B)/**/,
              9048    1           3 TSOK BIT(1) INIT('1'B)/**/,
              9049    1           3 ELSOK BIT(1) INIT('1'B)/**/,
              9050    1           3 ONEOK BIT(1) INIT('0'B)/**/,
              9051    1           3 * BIT(5) INIT('00000'B)/**/,
              9052    1           3 LTYP CHAR(2) INIT('  ')/**/,
              9053    1           3 * BIT(27) INIT('000000000'O)/**/;
      392     9055
      393     9056        %FS$CHARSET (NAME=A600,              /* 600 image */
      394     9057                      STCLASS=CONSTANT,
      395     9058                      LP_OK='1'B,
      396     9059                      TS_OK='1'B,
      397     9060                      ELS_OK='1'B,
      398     9061                      ONE_OK='0'B,
      399     9062                      LTYPE = '  ',
      400     9063                      ATTRIBUTES='000051'O,
      401     9064                      CHARSET0="'BDFGHJgS0ACEINORLTabcdef'"  ,
      402     9065                      CHARSET1="'KhijklmM0PQUVWXYZ:;?!%7x'"  ,
      403     9066                      CHARSET2="'ynoprstw0z123456#89.,()@'"  ,
PL6.E3A0      #002=ASC$BUILD_CHARSET File=ASB$BUILD_DEFAULT_FILES.:E05TSI        TUE 07/29/97 08:57 Page:77
      404     9067                      CHARSET3="%CONCAT ('$=&/''\^_0',QSTR,'<>[]gS~ACEINOR')" ,
      405     9068                      CHARSET4="'{Tabcdef0hijklm}|`-*+quv'"  ,
      406     9069                      CHARSET5="'BDFGHJ7x0noprstwLz123456'"  ,
      407     9070                      CHARSET6="'K89.,()M0PQUVWXYZ:;?!%gS'"  ,
      408     9071                      CHARSET7="'yACEINOR0Tabcdef#hijklm@'"  ,
      409     9072                      CHARSET8="%CONCAT ('$=&/''\^_0',QSTR,'<>[]7x~noprstw')" ,
      410     9073                      CHARSET9="'{z123456089.,()}|`-*+quv'"  ) ;
              9074        %LSET STR='CONSTANT        ';
              9075        %IF
              9077         '1'B;
              9078        %LSET INIT=INIT;
              9079        %ELSE;
              9081        %ENDIF;
              9082    1   DCL 1 A600 CONSTANT ALIGNED,
              9083    1         2 SETS (0:9) CHAR (24) INIT ('BDFGHJgS0ACEINORLTabcdef',
              9084    1                                    'KhijklmM0PQUVWXYZ:;?!%7x',
              9085    1                                    'ynoprstw0z123456#89.,()@',
              9086    1                                    '$=&/''\^_0"<>[]gS~ACEINOR',
              9087    1                                    '{Tabcdef0hijklm}|`-*+quv',
              9088    1                                    'BDFGHJ7x0noprstwLz123456',
              9089    1                                    'K89.,()M0PQUVWXYZ:;?!%gS',
              9090    1                                    'yACEINOR0Tabcdef#hijklm@',
              9091    1                                    '$=&/''\^_0"<>[]7x~noprstw',
              9092    1                                    '{z123456089.,()}|`-*+quv') /**/,
              9093    1         2 CHAINIMAGE REDEF SETS CHAR (240) UNAL,
              9094    1         2 ATTRS BIT (18) INIT ('000051'O) /**/,
              9095    1         2 LGLTYPS,
              9096    1           3 LPOK BIT(1) INIT('1'B)/**/,
              9097    1           3 TSOK BIT(1) INIT('1'B)/**/,
              9098    1           3 ELSOK BIT(1) INIT('1'B)/**/,
              9099    1           3 ONEOK BIT(1) INIT('0'B)/**/,
              9100    1           3 * BIT(5) INIT('00000'B)/**/,
              9101    1           3 LTYP CHAR(2) INIT('  ')/**/,
              9102    1           3 * BIT(27) INIT('000000000'O)/**/;
      411     9104
      412     9105        %FS$CHARSET (NAME=NATIVE,            /* National  */
      413     9106                      STCLASS=CONSTANT,
PL6.E3A0      #002=ASC$BUILD_CHARSET File=ASB$BUILD_DEFAULT_FILES.:E05TSI        TUE 07/29/97 08:57 Page:78
      414     9107                      LP_OK='1'B,
      415     9108                      TS_OK='1'B,
      416     9109                      ELS_OK='1'B,
      417     9110                      ONE_OK='0'B,
      418     9111                      LTYPE = '  ',
      419     9112                      ATTRIBUTES='000061'O,
      420     9113                      CHARSET0="'BDFGHJgS0ACEINORLTabcdef'"  ,
      421     9114                      CHARSET1="'KhijklmM0PQUVWXYZ:;?!%7x'"  ,
      422     9115                      CHARSET2="'ynoprstw0z123456#89.,()@'"  ,
      423     9116                      CHARSET3="%CONCAT ('$=&/''\^_0',QSTR,'<>[]gS~ACEINOR')" ,
      424     9117                      CHARSET4="'{Tabcdef0hijklm}|`-*+quv'"  ,
      425     9118                      CHARSET5="'BDFGHJ7x0noprstwLz123456'"  ,
      426     9119                      CHARSET6="'K89.,()M0PQUVWXYZ:;?!%gS'"  ,
      427     9120                      CHARSET7="'yACEINOR0Tabcdef#hijklm@'"  ,
      428     9121                      CHARSET8="%CONCAT ('$=&/''\^_0',QSTR,'<>[]7x~noprstw')" ,
      429     9122                      CHARSET9="'{z123456089.,()}|`-*+quv'"  ) ;
              9123        %LSET STR='CONSTANT        ';
              9124        %IF
              9126         '1'B;
              9127        %LSET INIT=INIT;
              9128        %ELSE;
              9130        %ENDIF;
              9131    1   DCL 1 NATIVE CONSTANT ALIGNED,
              9132    1         2 SETS (0:9) CHAR (24) INIT ('BDFGHJgS0ACEINORLTabcdef',
              9133    1                                    'KhijklmM0PQUVWXYZ:;?!%7x',
              9134    1                                    'ynoprstw0z123456#89.,()@',
              9135    1                                    '$=&/''\^_0"<>[]gS~ACEINOR',
              9136    1                                    '{Tabcdef0hijklm}|`-*+quv',
              9137    1                                    'BDFGHJ7x0noprstwLz123456',
              9138    1                                    'K89.,()M0PQUVWXYZ:;?!%gS',
              9139    1                                    'yACEINOR0Tabcdef#hijklm@',
              9140    1                                    '$=&/''\^_0"<>[]7x~noprstw',
              9141    1                                    '{z123456089.,()}|`-*+quv') /**/,
              9142    1         2 CHAINIMAGE REDEF SETS CHAR (240) UNAL,
              9143    1         2 ATTRS BIT (18) INIT ('000061'O) /**/,
              9144    1         2 LGLTYPS,
              9145    1           3 LPOK BIT(1) INIT('1'B)/**/,
PL6.E3A0      #002=ASC$BUILD_CHARSET File=ASB$BUILD_DEFAULT_FILES.:E05TSI        TUE 07/29/97 08:57 Page:79
              9146    1           3 TSOK BIT(1) INIT('1'B)/**/,
              9147    1           3 ELSOK BIT(1) INIT('1'B)/**/,
              9148    1           3 ONEOK BIT(1) INIT('0'B)/**/,
              9149    1           3 * BIT(5) INIT('00000'B)/**/,
              9150    1           3 LTYP CHAR(2) INIT('  ')/**/,
              9151    1           3 * BIT(27) INIT('000000000'O)/**/;
      430     9153
      431     9154        %FS$CHARSET (NAME=A500,              /* 500 image */
      432     9155                      STCLASS=CONSTANT,
      433     9156                      LP_OK='1'B,
      434     9157                      TS_OK='1'B,
      435     9158                      ELS_OK='1'B,
      436     9159                      ONE_OK='0'B,
      437     9160                      LTYPE = '  ',
      438     9161                      ATTRIBUTES='000050'O,
      439     9162                      CHARSET0="'=5678GHIJKL|0.-*/MNOPQR:'" ,
      440     9163                      CHARSET1="'&(9),STUVWX}01234YZ$`#+!'"  ,
      441     9164                      CHARSET2="'?5678ABCDEF~0.-*/GHIJKL<'" ,
      442     9165                      CHARSET3="'>(9),MNOPQR{01234STUVWX;'"  ,
      443     9166                      CHARSET4="%CONCAT ('''5678YZ$@#%_0.-*/ABCDEF',QSTR)" ,
      444     9167                      CHARSET5="'=(9),GHIJKL\01234MNOPQR:'"  ,
      445     9168                      CHARSET6="'&5678STUVWX]0.-*/YZ$@#+!'" ,
      446     9169                      CHARSET7="'?(9),ABCDEF^01234GHIJKL<'"  ,
      447     9170                      CHARSET8="'>5678MNOPQR[0.-*/STUVWX;'"  ,
      448     9171                      CHARSET9="%CONCAT ('''(9),YZ$@#%_01234ABCDEF',QSTR)" );
              9172        %LSET STR='CONSTANT        ';
              9173        %IF
              9175         '1'B;
              9176        %LSET INIT=INIT;
              9177        %ELSE;
              9179        %ENDIF;
              9180    1   DCL 1 A500 CONSTANT ALIGNED,
              9181    1         2 SETS (0:9) CHAR (24) INIT ('=5678GHIJKL|0.-*/MNOPQR:',
              9182    1                                    '&(9),STUVWX}01234YZ$`#+!',
              9183    1                                    '?5678ABCDEF~0.-*/GHIJKL<',
              9184    1                                    '>(9),MNOPQR{01234STUVWX;',
              9185    1                                    '''5678YZ$@#%_0.-*/ABCDEF"',
PL6.E3A0      #002=ASC$BUILD_CHARSET File=ASB$BUILD_DEFAULT_FILES.:E05TSI        TUE 07/29/97 08:57 Page:80
              9186    1                                    '=(9),GHIJKL\01234MNOPQR:',
              9187    1                                    '&5678STUVWX]0.-*/YZ$@#+!',
              9188    1                                    '?(9),ABCDEF^01234GHIJKL<',
              9189    1                                    '>5678MNOPQR[0.-*/STUVWX;',
              9190    1                                    '''(9),YZ$@#%_01234ABCDEF"') /**/,
              9191    1         2 CHAINIMAGE REDEF SETS CHAR (240) UNAL,
              9192    1         2 ATTRS BIT (18) INIT ('000050'O) /**/,
              9193    1         2 LGLTYPS,
              9194    1           3 LPOK BIT(1) INIT('1'B)/**/,
              9195    1           3 TSOK BIT(1) INIT('1'B)/**/,
              9196    1           3 ELSOK BIT(1) INIT('1'B)/**/,
              9197    1           3 ONEOK BIT(1) INIT('0'B)/**/,
              9198    1           3 * BIT(5) INIT('00000'B)/**/,
              9199    1           3 LTYP CHAR(2) INIT('  ')/**/,
              9200    1           3 * BIT(27) INIT('000000000'O)/**/;
      449     9202
      450     9203        %FS$CHARSET (NAME=A500LC,            /* 500 #3 alpha to lower */
      451     9204                      STCLASS=CONSTANT,
      452     9205                      LP_OK='1'B,
      453     9206                      TS_OK='1'B,
      454     9207                      ELS_OK='1'B,
      455     9208                      ONE_OK='0'B,
      456     9209                      LTYPE = '  ',
      457     9210                      ATTRIBUTES='000051'O,
      458     9211                      CHARSET0="'=5678GHIJKL|0.-*/MNOPQR:'" ,
      459     9212                      CHARSET1="'&(9),STUVWX}01234YZ$`#+!'"  ,
      460     9213                      CHARSET2="'?5678ABCDEF~0.-*/GHIJKL<'" ,
      461     9214                      CHARSET3="'>(9),MNOPQR{01234STUVWX;'"  ,
      462     9215                      CHARSET4="%CONCAT ('''5678YZ$@#%_0.-*/ABCDEF',QSTR)" ,
      463     9216                      CHARSET5="'=(9),GHIJKL\01234MNOPQR:'"  ,
      464     9217                      CHARSET6="'&5678STUVWX]0.-*/YZ$@#+!'" ,
      465     9218                      CHARSET7="'?(9),abcdef^01234ghijkl<'"  ,
      466     9219                      CHARSET8="'>5678mnopqr[0.-*/stuvwx;'"  ,
      467     9220                      CHARSET9="%CONCAT ('''(9),yz$@#%_01234ABCDEF',QSTR)" );
              9221        %LSET STR='CONSTANT        ';
              9222        %IF
              9224         '1'B;
PL6.E3A0      #002=ASC$BUILD_CHARSET File=ASB$BUILD_DEFAULT_FILES.:E05TSI        TUE 07/29/97 08:57 Page:81
              9225        %LSET INIT=INIT;
              9226        %ELSE;
              9228        %ENDIF;
              9229    1   DCL 1 A500LC CONSTANT ALIGNED,
              9230    1         2 SETS (0:9) CHAR (24) INIT ('=5678GHIJKL|0.-*/MNOPQR:',
              9231    1                                    '&(9),STUVWX}01234YZ$`#+!',
              9232    1                                    '?5678ABCDEF~0.-*/GHIJKL<',
              9233    1                                    '>(9),MNOPQR{01234STUVWX;',
              9234    1                                    '''5678YZ$@#%_0.-*/ABCDEF"',
              9235    1                                    '=(9),GHIJKL\01234MNOPQR:',
              9236    1                                    '&5678STUVWX]0.-*/YZ$@#+!',
              9237    1                                    '?(9),abcdef^01234ghijkl<',
              9238    1                                    '>5678mnopqr[0.-*/stuvwx;',
              9239    1                                    '''(9),yz$@#%_01234ABCDEF"') /**/,
              9240    1         2 CHAINIMAGE REDEF SETS CHAR (240) UNAL,
              9241    1         2 ATTRS BIT (18) INIT ('000051'O) /**/,
              9242    1         2 LGLTYPS,
              9243    1           3 LPOK BIT(1) INIT('1'B)/**/,
              9244    1           3 TSOK BIT(1) INIT('1'B)/**/,
              9245    1           3 ELSOK BIT(1) INIT('1'B)/**/,
              9246    1           3 ONEOK BIT(1) INIT('0'B)/**/,
              9247    1           3 * BIT(5) INIT('00000'B)/**/,
              9248    1           3 LTYP CHAR(2) INIT('  ')/**/,
              9249    1           3 * BIT(27) INIT('000000000'O)/**/;
      468     9251
      469     9252        %FS$CHARSET (NAME=A3300,             /* Opt ascii upper & lower */
      470     9253                      STCLASS=CONSTANT,
      471     9254                      LP_OK='1'B,
      472     9255                      TS_OK='1'B,
      473     9256                      ELS_OK='1'B,
      474     9257                      ONE_OK='0'B,
      475     9258                      LTYPE = '  ',
      476     9259                      ATTRIBUTES='000041'O,
      477     9260                      CHARSET0="%CONCAT ('!',QSTR,'#$%&''()0*+,-./01234567')" ,
      478     9261                      CHARSET1="'89:;<=>?@ABCDEFGHIJKLMNO'"  ,
      479     9262                      CHARSET2="'PQRSTUVWXYZ[\]^_`abcdefg'"  ,
      480     9263                      CHARSET3="'hijklmnopqrstuvwxyz0{|}~'"  ,
PL6.E3A0      #002=ASC$BUILD_CHARSET File=ASB$BUILD_DEFAULT_FILES.:E05TSI        TUE 07/29/97 08:57 Page:82
      481     9264                      CHARSET4="%CONCAT ('!',QSTR,'#$%&''()0*+,-./01234567')" ,
      482     9265                      CHARSET5="'89:;<=>?@ABCDEFGHIJKLMNO'"  ,
      483     9266                      CHARSET6="'PQRSTUVWXYZ[\]^_`abcdefg'"  ,
      484     9267                      CHARSET7="'hijklmnopqrstuvwxyz0{|}~'"  ,
      485     9268                      CHARSET8="%CONCAT ('!',QSTR,'#$%&''()0*+,-./01234567')" ,
      486     9269                      CHARSET9="'89:;<=>?@ABCDEFGHIJKLMNO'"  );
              9270        %LSET STR='CONSTANT        ';
              9271        %IF
              9273         '1'B;
              9274        %LSET INIT=INIT;
              9275        %ELSE;
              9277        %ENDIF;
              9278    1   DCL 1 A3300 CONSTANT ALIGNED,
              9279    1         2 SETS (0:9) CHAR (24) INIT ('!"#$%&''()0*+,-./01234567',
              9280    1                                    '89:;<=>?@ABCDEFGHIJKLMNO',
              9281    1                                    'PQRSTUVWXYZ[\]^_`abcdefg',
              9282    1                                    'hijklmnopqrstuvwxyz0{|}~',
              9283    1                                    '!"#$%&''()0*+,-./01234567',
              9284    1                                    '89:;<=>?@ABCDEFGHIJKLMNO',
              9285    1                                    'PQRSTUVWXYZ[\]^_`abcdefg',
              9286    1                                    'hijklmnopqrstuvwxyz0{|}~',
              9287    1                                    '!"#$%&''()0*+,-./01234567',
              9288    1                                    '89:;<=>?@ABCDEFGHIJKLMNO') /**/,
              9289    1         2 CHAINIMAGE REDEF SETS CHAR (240) UNAL,
              9290    1         2 ATTRS BIT (18) INIT ('000041'O) /**/,
              9291    1         2 LGLTYPS,
              9292    1           3 LPOK BIT(1) INIT('1'B)/**/,
              9293    1           3 TSOK BIT(1) INIT('1'B)/**/,
              9294    1           3 ELSOK BIT(1) INIT('1'B)/**/,
              9295    1           3 ONEOK BIT(1) INIT('0'B)/**/,
              9296    1           3 * BIT(5) INIT('00000'B)/**/,
              9297    1           3 LTYP CHAR(2) INIT('  ')/**/,
              9298    1           3 * BIT(27) INIT('000000000'O)/**/;
      487     9300
      488     9301        %FS$CHARSET (NAME=A3231,             /* Opt ascii upper only */
      489     9302                      STCLASS=CONSTANT,
      490     9303                      LP_OK='1'B,
PL6.E3A0      #002=ASC$BUILD_CHARSET File=ASB$BUILD_DEFAULT_FILES.:E05TSI        TUE 07/29/97 08:57 Page:83
      491     9304                      TS_OK='1'B,
      492     9305                      ELS_OK='1'B,
      493     9306                      ONE_OK='0'B,
      494     9307                      LTYPE = '  ',
      495     9308                      ATTRIBUTES='000040'O,
      496     9309                      CHARSET0="%CONCAT ('!',QSTR,'#$%&''()0*+,-./01234567')" ,
      497     9310                      CHARSET1="'89:;<=>?@ABCDEFGHIJKLMNO'"  ,
      498     9311                      CHARSET2="'PQRSTUVWXYZ[\]^_`ABCDEFG'"  ,
      499     9312                      CHARSET3="'HIJKLMNOPQRSTUVWXYZ0{|}~'"  ,
      500     9313                      CHARSET4="%CONCAT ('!',QSTR,'#$%&''()0*+,-./01234567')" ,
      501     9314                      CHARSET5="'89:;<=>?@ABCDEFGHIJKLMNO'"  ,
      502     9315                      CHARSET6="'PQRSTUVWXYZ[\]^_`ABCDEFG'"  ,
      503     9316                      CHARSET7="'HIJKLMNOPQRSTUVWXYZ0{|}~'"  ,
      504     9317                      CHARSET8="%CONCAT ('!',QSTR,'#$%&''()0*+,-./01234567')" ,
      505     9318                      CHARSET9="'89:;<=>?@ABCDEFGHIJKLMNO'"  );
              9319        %LSET STR='CONSTANT        ';
              9320        %IF
              9322         '1'B;
              9323        %LSET INIT=INIT;
              9324        %ELSE;
              9326        %ENDIF;
              9327    1   DCL 1 A3231 CONSTANT ALIGNED,
              9328    1         2 SETS (0:9) CHAR (24) INIT ('!"#$%&''()0*+,-./01234567',
              9329    1                                    '89:;<=>?@ABCDEFGHIJKLMNO',
              9330    1                                    'PQRSTUVWXYZ[\]^_`ABCDEFG',
              9331    1                                    'HIJKLMNOPQRSTUVWXYZ0{|}~',
              9332    1                                    '!"#$%&''()0*+,-./01234567',
              9333    1                                    '89:;<=>?@ABCDEFGHIJKLMNO',
              9334    1                                    'PQRSTUVWXYZ[\]^_`ABCDEFG',
              9335    1                                    'HIJKLMNOPQRSTUVWXYZ0{|}~',
              9336    1                                    '!"#$%&''()0*+,-./01234567',
              9337    1                                    '89:;<=>?@ABCDEFGHIJKLMNO') /**/,
              9338    1         2 CHAINIMAGE REDEF SETS CHAR (240) UNAL,
              9339    1         2 ATTRS BIT (18) INIT ('000040'O) /**/,
              9340    1         2 LGLTYPS,
              9341    1           3 LPOK BIT(1) INIT('1'B)/**/,
              9342    1           3 TSOK BIT(1) INIT('1'B)/**/,
PL6.E3A0      #002=ASC$BUILD_CHARSET File=ASB$BUILD_DEFAULT_FILES.:E05TSI        TUE 07/29/97 08:57 Page:84
              9343    1           3 ELSOK BIT(1) INIT('1'B)/**/,
              9344    1           3 ONEOK BIT(1) INIT('0'B)/**/,
              9345    1           3 * BIT(5) INIT('00000'B)/**/,
              9346    1           3 LTYP CHAR(2) INIT('  ')/**/,
              9347    1           3 * BIT(27) INIT('000000000'O)/**/;
      506     9349
      507     9350        %FS$CHARSET (NAME=EBCI,              /* Bisync */
      508     9351                      STCLASS=CONSTANT,
      509     9352                      LP_OK='1'B,
      510     9353                      TS_OK='1'B,
      511     9354                      ELS_OK='1'B,
      512     9355                      ONE_OK='0'B,
      513     9356                      LTYPE = '  ',
      514     9357                      ATTRIBUTES='000141'O,
      515     9358                      CHARSET0="'BDFGHJgS0ACEINORLTabcdef'"  ,
      516     9359                      CHARSET1="'KhijklmM0PQUVWXYZ:;?!%7x'"  ,
      517     9360                      CHARSET2="'ynoprstw0z123456#89.,()@'"  ,
      518     9361                      CHARSET3="%CONCAT ('$=&/''\^_0',QSTR,'<>[]gS~ACEINOR')" ,
      519     9362                      CHARSET4="'{Tabcdef0hijklm}|`-*+quv'"  ,
      520     9363                      CHARSET5="'BDFGHJ7x0noprstwLz123456'"  ,
      521     9364                      CHARSET6="'K89.,()M0PQUVWXYZ:;?!%gS'"  ,
      522     9365                      CHARSET7="'yACEINOR0Tabcdef#hijklm@'"  ,
      523     9366                      CHARSET8="%CONCAT ('$=&/''\^_0',QSTR,'<>[]7x~noprstw')" ,
      524     9367                      CHARSET9="'{z123456089.,()}|`-*+quv'"  ) ;
              9368        %LSET STR='CONSTANT        ';
              9369        %IF
              9371         '1'B;
              9372        %LSET INIT=INIT;
              9373        %ELSE;
              9375        %ENDIF;
              9376    1   DCL 1 EBCI CONSTANT ALIGNED,
              9377    1         2 SETS (0:9) CHAR (24) INIT ('BDFGHJgS0ACEINORLTabcdef',
              9378    1                                    'KhijklmM0PQUVWXYZ:;?!%7x',
              9379    1                                    'ynoprstw0z123456#89.,()@',
              9380    1                                    '$=&/''\^_0"<>[]gS~ACEINOR',
              9381    1                                    '{Tabcdef0hijklm}|`-*+quv',
              9382    1                                    'BDFGHJ7x0noprstwLz123456',
PL6.E3A0      #002=ASC$BUILD_CHARSET File=ASB$BUILD_DEFAULT_FILES.:E05TSI        TUE 07/29/97 08:57 Page:85
              9383    1                                    'K89.,()M0PQUVWXYZ:;?!%gS',
              9384    1                                    'yACEINOR0Tabcdef#hijklm@',
              9385    1                                    '$=&/''\^_0"<>[]7x~noprstw',
              9386    1                                    '{z123456089.,()}|`-*+quv') /**/,
              9387    1         2 CHAINIMAGE REDEF SETS CHAR (240) UNAL,
              9388    1         2 ATTRS BIT (18) INIT ('000141'O) /**/,
              9389    1         2 LGLTYPS,
              9390    1           3 LPOK BIT(1) INIT('1'B)/**/,
              9391    1           3 TSOK BIT(1) INIT('1'B)/**/,
              9392    1           3 ELSOK BIT(1) INIT('1'B)/**/,
              9393    1           3 ONEOK BIT(1) INIT('0'B)/**/,
              9394    1           3 * BIT(5) INIT('00000'B)/**/,
              9395    1           3 LTYP CHAR(2) INIT('  ')/**/,
              9396    1           3 * BIT(27) INIT('000000000'O)/**/;
      525     9398
      526     9399
      527     9400        %FS$CHARSET (NAME=EBCO,              /* Bisync */
      528     9401                      STCLASS=CONSTANT,
      529     9402                      LP_OK='1'B,
      530     9403                      TS_OK='1'B,
      531     9404                      ELS_OK='1'B,
      532     9405                      ONE_OK='0'B,
      533     9406                      LTYPE = '  ',
      534     9407                      ATTRIBUTES='000141'O,
      535     9408                      CHARSET0="'BDFGHJgS0ACEINORLTabcdef'"  ,
      536     9409                      CHARSET1="'KhijklmM0PQUVWXYZ:;?!%7x'"  ,
      537     9410                      CHARSET2="'ynoprstw0z123456#89.,()@'"  ,
      538     9411                      CHARSET3="%CONCAT ('$=&/''\^_0',QSTR,'<>[]gS~ACEINOR')" ,
      539     9412                      CHARSET4="'{Tabcdef0hijklm}|`-*+quv'"  ,
      540     9413                      CHARSET5="'BDFGHJ7x0noprstwLz123456'"  ,
      541     9414                      CHARSET6="'K89.,()M0PQUVWXYZ:;?!%gS'"  ,
      542     9415                      CHARSET7="'yACEINOR0Tabcdef#hijklm@'"  ,
      543     9416                      CHARSET8="%CONCAT ('$=&/''\^_0',QSTR,'<>[]7x~noprstw')" ,
      544     9417                      CHARSET9="'{z123456089.,()}|`-*+quv'"  ) ;
              9418        %LSET STR='CONSTANT        ';
              9419        %IF
              9421         '1'B;
PL6.E3A0      #002=ASC$BUILD_CHARSET File=ASB$BUILD_DEFAULT_FILES.:E05TSI        TUE 07/29/97 08:57 Page:86
              9422        %LSET INIT=INIT;
              9423        %ELSE;
              9425        %ENDIF;
              9426    1   DCL 1 EBCO CONSTANT ALIGNED,
              9427    1         2 SETS (0:9) CHAR (24) INIT ('BDFGHJgS0ACEINORLTabcdef',
              9428    1                                    'KhijklmM0PQUVWXYZ:;?!%7x',
              9429    1                                    'ynoprstw0z123456#89.,()@',
              9430    1                                    '$=&/''\^_0"<>[]gS~ACEINOR',
              9431    1                                    '{Tabcdef0hijklm}|`-*+quv',
              9432    1                                    'BDFGHJ7x0noprstwLz123456',
              9433    1                                    'K89.,()M0PQUVWXYZ:;?!%gS',
              9434    1                                    'yACEINOR0Tabcdef#hijklm@',
              9435    1                                    '$=&/''\^_0"<>[]7x~noprstw',
              9436    1                                    '{z123456089.,()}|`-*+quv') /**/,
              9437    1         2 CHAINIMAGE REDEF SETS CHAR (240) UNAL,
              9438    1         2 ATTRS BIT (18) INIT ('000141'O) /**/,
              9439    1         2 LGLTYPS,
              9440    1           3 LPOK BIT(1) INIT('1'B)/**/,
              9441    1           3 TSOK BIT(1) INIT('1'B)/**/,
              9442    1           3 ELSOK BIT(1) INIT('1'B)/**/,
              9443    1           3 ONEOK BIT(1) INIT('0'B)/**/,
              9444    1           3 * BIT(5) INIT('00000'B)/**/,
              9445    1           3 LTYP CHAR(2) INIT('  ')/**/,
              9446    1           3 * BIT(27) INIT('000000000'O)/**/;
      545     9448
      546     9449
      547     9450        %FS$CHARSET (NAME=XDSI,              /* Bisync */
      548     9451                      STCLASS=CONSTANT,
      549     9452                      LP_OK='1'B,
      550     9453                      TS_OK='1'B,
      551     9454                      ELS_OK='1'B,
      552     9455                      ONE_OK='0'B,
      553     9456                      LTYPE = '  ',
      554     9457                      ATTRIBUTES='000141'O,
      555     9458                      CHARSET0="'BDFGHJgS0ACEINORLTabcdef'"  ,
      556     9459                      CHARSET1="'KhijklmM0PQUVWXYZ:;?!%7x'"  ,
      557     9460                      CHARSET2="'ynoprstw0z123456#89.,()@'"  ,
PL6.E3A0      #002=ASC$BUILD_CHARSET File=ASB$BUILD_DEFAULT_FILES.:E05TSI        TUE 07/29/97 08:57 Page:87
      558     9461                      CHARSET3="%CONCAT ('$=&/''\^_0',QSTR,'<>[]gS~ACEINOR')" ,
      559     9462                      CHARSET4="'{Tabcdef0hijklm}|`-*+quv'"  ,
      560     9463                      CHARSET5="'BDFGHJ7x0noprstwLz123456'"  ,
      561     9464                      CHARSET6="'K89.,()M0PQUVWXYZ:;?!%gS'"  ,
      562     9465                      CHARSET7="'yACEINOR0Tabcdef#hijklm@'"  ,
      563     9466                      CHARSET8="%CONCAT ('$=&/''\^_0',QSTR,'<>[]7x~noprstw')" ,
      564     9467                      CHARSET9="'{z123456089.,()}|`-*+quv'"  ) ;
              9468        %LSET STR='CONSTANT        ';
              9469        %IF
              9471         '1'B;
              9472        %LSET INIT=INIT;
              9473        %ELSE;
              9475        %ENDIF;
              9476    1   DCL 1 XDSI CONSTANT ALIGNED,
              9477    1         2 SETS (0:9) CHAR (24) INIT ('BDFGHJgS0ACEINORLTabcdef',
              9478    1                                    'KhijklmM0PQUVWXYZ:;?!%7x',
              9479    1                                    'ynoprstw0z123456#89.,()@',
              9480    1                                    '$=&/''\^_0"<>[]gS~ACEINOR',
              9481    1                                    '{Tabcdef0hijklm}|`-*+quv',
              9482    1                                    'BDFGHJ7x0noprstwLz123456',
              9483    1                                    'K89.,()M0PQUVWXYZ:;?!%gS',
              9484    1                                    'yACEINOR0Tabcdef#hijklm@',
              9485    1                                    '$=&/''\^_0"<>[]7x~noprstw',
              9486    1                                    '{z123456089.,()}|`-*+quv') /**/,
              9487    1         2 CHAINIMAGE REDEF SETS CHAR (240) UNAL,
              9488    1         2 ATTRS BIT (18) INIT ('000141'O) /**/,
              9489    1         2 LGLTYPS,
              9490    1           3 LPOK BIT(1) INIT('1'B)/**/,
              9491    1           3 TSOK BIT(1) INIT('1'B)/**/,
              9492    1           3 ELSOK BIT(1) INIT('1'B)/**/,
              9493    1           3 ONEOK BIT(1) INIT('0'B)/**/,
              9494    1           3 * BIT(5) INIT('00000'B)/**/,
              9495    1           3 LTYP CHAR(2) INIT('  ')/**/,
              9496    1           3 * BIT(27) INIT('000000000'O)/**/;
      565     9498
      566     9499
      567     9500        %FS$CHARSET (NAME=XDSO,              /* Bisync */
PL6.E3A0      #002=ASC$BUILD_CHARSET File=ASB$BUILD_DEFAULT_FILES.:E05TSI        TUE 07/29/97 08:57 Page:88
      568     9501                      STCLASS=CONSTANT,
      569     9502                      LP_OK='1'B,
      570     9503                      TS_OK='1'B,
      571     9504                      ELS_OK='1'B,
      572     9505                      ONE_OK='0'B,
      573     9506                      LTYPE = '  ',
      574     9507                      ATTRIBUTES='000141'O,
      575     9508                      CHARSET0="'BDFGHJgS0ACEINORLTabcdef'"  ,
      576     9509                      CHARSET1="'KhijklmM0PQUVWXYZ:;?!%7x'"  ,
      577     9510                      CHARSET2="'ynoprstw0z123456#89.,()@'"  ,
      578     9511                      CHARSET3="%CONCAT ('$=&/''\^_0',QSTR,'<>[]gS~ACEINOR')" ,
      579     9512                      CHARSET4="'{Tabcdef0hijklm}|`-*+quv'"  ,
      580     9513                      CHARSET5="'BDFGHJ7x0noprstwLz123456'"  ,
      581     9514                      CHARSET6="'K89.,()M0PQUVWXYZ:;?!%gS'"  ,
      582     9515                      CHARSET7="'yACEINOR0Tabcdef#hijklm@'"  ,
      583     9516                      CHARSET8="%CONCAT ('$=&/''\^_0',QSTR,'<>[]7x~noprstw')" ,
      584     9517                      CHARSET9="'{z123456089.,()}|`-*+quv'"  ) ;
              9518        %LSET STR='CONSTANT        ';
              9519        %IF
              9521         '1'B;
              9522        %LSET INIT=INIT;
              9523        %ELSE;
              9525        %ENDIF;
              9526    1   DCL 1 XDSO CONSTANT ALIGNED,
              9527    1         2 SETS (0:9) CHAR (24) INIT ('BDFGHJgS0ACEINORLTabcdef',
              9528    1                                    'KhijklmM0PQUVWXYZ:;?!%7x',
              9529    1                                    'ynoprstw0z123456#89.,()@',
              9530    1                                    '$=&/''\^_0"<>[]gS~ACEINOR',
              9531    1                                    '{Tabcdef0hijklm}|`-*+quv',
              9532    1                                    'BDFGHJ7x0noprstwLz123456',
              9533    1                                    'K89.,()M0PQUVWXYZ:;?!%gS',
              9534    1                                    'yACEINOR0Tabcdef#hijklm@',
              9535    1                                    '$=&/''\^_0"<>[]7x~noprstw',
              9536    1                                    '{z123456089.,()}|`-*+quv') /**/,
              9537    1         2 CHAINIMAGE REDEF SETS CHAR (240) UNAL,
              9538    1         2 ATTRS BIT (18) INIT ('000141'O) /**/,
              9539    1         2 LGLTYPS,
PL6.E3A0      #002=ASC$BUILD_CHARSET File=ASB$BUILD_DEFAULT_FILES.:E05TSI        TUE 07/29/97 08:57 Page:89
              9540    1           3 LPOK BIT(1) INIT('1'B)/**/,
              9541    1           3 TSOK BIT(1) INIT('1'B)/**/,
              9542    1           3 ELSOK BIT(1) INIT('1'B)/**/,
              9543    1           3 ONEOK BIT(1) INIT('0'B)/**/,
              9544    1           3 * BIT(5) INIT('00000'B)/**/,
              9545    1           3 LTYP CHAR(2) INIT('  ')/**/,
              9546    1           3 * BIT(27) INIT('000000000'O)/**/;
      585     9548
      586     9549
      587     9550        %FS$CHARSET (NAME=SDS7012,           /* Bisync */
      588     9551                      STCLASS=CONSTANT,
      589     9552                      LP_OK='1'B,
      590     9553                      TS_OK='1'B,
      591     9554                      ELS_OK='1'B,
      592     9555                      ONE_OK='0'B,
      593     9556                      LTYPE = '  ',
      594     9557                      ATTRIBUTES='000141'O,
      595     9558                      CHARSET0="'BDFGHJgS0ACEINORLTabcdef'"  ,
      596     9559                      CHARSET1="'KhijklmM0PQUVWXYZ:;?!%7x'"  ,
      597     9560                      CHARSET2="'ynoprstw0z123456#89.,()@'"  ,
      598     9561                      CHARSET3="%CONCAT ('$=&/''\^_0',QSTR,'<>[]gS~ACEINOR')" ,
      599     9562                      CHARSET4="'{Tabcdef0hijklm}|`-*+quv'"  ,
      600     9563                      CHARSET5="'BDFGHJ7x0noprstwLz123456'"  ,
      601     9564                      CHARSET6="'K89.,()M0PQUVWXYZ:;?!%gS'"  ,
      602     9565                      CHARSET7="'yACEINOR0Tabcdef#hijklm@'"  ,
      603     9566                      CHARSET8="%CONCAT ('$=&/''\^_0',QSTR,'<>[]7x~noprstw')" ,
      604     9567                      CHARSET9="'{z123456089.,()}|`-*+quv'"  ) ;
              9568        %LSET STR='CONSTANT        ';
              9569        %IF
              9571         '1'B;
              9572        %LSET INIT=INIT;
              9573        %ELSE;
              9575        %ENDIF;
              9576    1   DCL 1 SDS7012 CONSTANT ALIGNED,
              9577    1         2 SETS (0:9) CHAR (24) INIT ('BDFGHJgS0ACEINORLTabcdef',
              9578    1                                    'KhijklmM0PQUVWXYZ:;?!%7x',
              9579    1                                    'ynoprstw0z123456#89.,()@',
PL6.E3A0      #002=ASC$BUILD_CHARSET File=ASB$BUILD_DEFAULT_FILES.:E05TSI        TUE 07/29/97 08:57 Page:90
              9580    1                                    '$=&/''\^_0"<>[]gS~ACEINOR',
              9581    1                                    '{Tabcdef0hijklm}|`-*+quv',
              9582    1                                    'BDFGHJ7x0noprstwLz123456',
              9583    1                                    'K89.,()M0PQUVWXYZ:;?!%gS',
              9584    1                                    'yACEINOR0Tabcdef#hijklm@',
              9585    1                                    '$=&/''\^_0"<>[]7x~noprstw',
              9586    1                                    '{z123456089.,()}|`-*+quv') /**/,
              9587    1         2 CHAINIMAGE REDEF SETS CHAR (240) UNAL,
              9588    1         2 ATTRS BIT (18) INIT ('000141'O) /**/,
              9589    1         2 LGLTYPS,
              9590    1           3 LPOK BIT(1) INIT('1'B)/**/,
              9591    1           3 TSOK BIT(1) INIT('1'B)/**/,
              9592    1           3 ELSOK BIT(1) INIT('1'B)/**/,
              9593    1           3 ONEOK BIT(1) INIT('0'B)/**/,
              9594    1           3 * BIT(5) INIT('00000'B)/**/,
              9595    1           3 LTYP CHAR(2) INIT('  ')/**/,
              9596    1           3 * BIT(27) INIT('000000000'O)/**/;
      605     9598
      606     9599        %FS$CHARSET (NAME=NONE,              /* Bisync */
      607     9600                      STCLASS=CONSTANT,
      608     9601                      LP_OK='1'B,
      609     9602                      TS_OK='1'B,
      610     9603                      ELS_OK='1'B,
      611     9604                      ONE_OK='0'B,
      612     9605                      LTYPE = '  ',
      613     9606                      ATTRIBUTES='000141'O,
      614     9607                      CHARSET0="'BDFGHJgS0ACEINORLTabcdef'"  ,
      615     9608                      CHARSET1="'KhijklmM0PQUVWXYZ:;?!%7x'"  ,
      616     9609                      CHARSET2="'ynoprstw0z123456#89.,()@'"  ,
      617     9610                      CHARSET3="%CONCAT ('$=&/''\^_0',QSTR,'<>[]gS~ACEINOR')" ,
      618     9611                      CHARSET4="'{Tabcdef0hijklm}|`-*+quv'"  ,
      619     9612                      CHARSET5="'BDFGHJ7x0noprstwLz123456'"  ,
      620     9613                      CHARSET6="'K89.,()M0PQUVWXYZ:;?!%gS'"  ,
      621     9614                      CHARSET7="'yACEINOR0Tabcdef#hijklm@'"  ,
      622     9615                      CHARSET8="%CONCAT ('$=&/''\^_0',QSTR,'<>[]7x~noprstw')" ,
      623     9616                      CHARSET9="'{z123456089.,()}|`-*+quv'"  ) ;
              9617        %LSET STR='CONSTANT        ';
PL6.E3A0      #002=ASC$BUILD_CHARSET File=ASB$BUILD_DEFAULT_FILES.:E05TSI        TUE 07/29/97 08:57 Page:91
              9618        %IF
              9620         '1'B;
              9621        %LSET INIT=INIT;
              9622        %ELSE;
              9624        %ENDIF;
              9625    1   DCL 1 NONE CONSTANT ALIGNED,
              9626    1         2 SETS (0:9) CHAR (24) INIT ('BDFGHJgS0ACEINORLTabcdef',
              9627    1                                    'KhijklmM0PQUVWXYZ:;?!%7x',
              9628    1                                    'ynoprstw0z123456#89.,()@',
              9629    1                                    '$=&/''\^_0"<>[]gS~ACEINOR',
              9630    1                                    '{Tabcdef0hijklm}|`-*+quv',
              9631    1                                    'BDFGHJ7x0noprstwLz123456',
              9632    1                                    'K89.,()M0PQUVWXYZ:;?!%gS',
              9633    1                                    'yACEINOR0Tabcdef#hijklm@',
              9634    1                                    '$=&/''\^_0"<>[]7x~noprstw',
              9635    1                                    '{z123456089.,()}|`-*+quv') /**/,
              9636    1         2 CHAINIMAGE REDEF SETS CHAR (240) UNAL,
              9637    1         2 ATTRS BIT (18) INIT ('000141'O) /**/,
              9638    1         2 LGLTYPS,
              9639    1           3 LPOK BIT(1) INIT('1'B)/**/,
              9640    1           3 TSOK BIT(1) INIT('1'B)/**/,
              9641    1           3 ELSOK BIT(1) INIT('1'B)/**/,
              9642    1           3 ONEOK BIT(1) INIT('0'B)/**/,
              9643    1           3 * BIT(5) INIT('00000'B)/**/,
              9644    1           3 LTYP CHAR(2) INIT('  ')/**/,
              9645    1           3 * BIT(27) INIT('000000000'O)/**/;
      624     9647
      625     9648
      626     9649        %VLP_NAME (FPTN=ASC64VLP,STCLASS=CONSTANT,NAME='~ASC64CHARSET');
              9650        %LSET LISTDIR='0'B;
              9674    1   DCL 1 ASC64VLP CONSTANT,2 L# UBIN(9)INIT(13)/**/ UNAL,2 NAME# CHAR(0)INIT(
              9674            '~ASC64CHARSET')/**/ ;
      627     9676        %VLP_NAME (FPTN=ASC95VLP,STCLASS=CONSTANT,NAME='~ASC95CHARSET');
              9677        %LSET LISTDIR='0'B;
              9701    1   DCL 1 ASC95VLP CONSTANT,2 L# UBIN(9)INIT(13)/**/ UNAL,2 NAME# CHAR(0)INIT(
              9701            '~ASC95CHARSET')/**/ ;
      628     9703        %VLP_NAME (FPTN=APLBFVLP,STCLASS=CONSTANT,NAME='~APLBFCHARSET');
PL6.E3A0      #002=ASC$BUILD_CHARSET File=ASB$BUILD_DEFAULT_FILES.:E05TSI        TUE 07/29/97 08:57 Page:92
              9704        %LSET LISTDIR='0'B;
              9728    1   DCL 1 APLBFVLP CONSTANT,2 L# UBIN(9)INIT(13)/**/ UNAL,2 NAME# CHAR(0)INIT(
              9728            '~APLBFCHARSET')/**/ ;
      629     9730        %VLP_NAME (FPTN=APLBPVLP,STCLASS=CONSTANT,NAME='~APLBPCHARSET');
              9731        %LSET LISTDIR='0'B;
              9755    1   DCL 1 APLBPVLP CONSTANT,2 L# UBIN(9)INIT(13)/**/ UNAL,2 NAME# CHAR(0)INIT(
              9755            '~APLBPCHARSET')/**/ ;
      630     9757        %VLP_NAME (FPTN=APLTFVLP,STCLASS=CONSTANT,NAME='~APLTFCHARSET');
              9758        %LSET LISTDIR='0'B;
              9782    1   DCL 1 APLTFVLP CONSTANT,2 L# UBIN(9)INIT(13)/**/ UNAL,2 NAME# CHAR(0)INIT(
              9782            '~APLTFCHARSET')/**/ ;
      631     9784        %VLP_NAME (FPTN=APLTPVLP,STCLASS=CONSTANT,NAME='~APLTPCHARSET');
              9785        %LSET LISTDIR='0'B;
              9809    1   DCL 1 APLTPVLP CONSTANT,2 L# UBIN(9)INIT(13)/**/ UNAL,2 NAME# CHAR(0)INIT(
              9809            '~APLTPCHARSET')/**/ ;
      632     9811        %VLP_NAME (FPTN=ASC8VLP,STCLASS=CONSTANT,NAME='~ASC8CHARSET');
              9812        %LSET LISTDIR='0'B;
              9836    1   DCL 1 ASC8VLP CONSTANT,2 L# UBIN(9)INIT(12)/**/ UNAL,2 NAME# CHAR(0)INIT(
              9836            '~ASC8CHARSET')/**/ ;
      633     9838        %VLP_NAME (FPTN=ASC64BVLP,STCLASS=CONSTANT,NAME='~ASC64BCHARSET');
              9839        %LSET LISTDIR='0'B;
              9863    1   DCL 1 ASC64BVLP CONSTANT,2 L# UBIN(9)INIT(14)/**/ UNAL,2 NAME# CHAR(0)INIT(
              9863            '~ASC64BCHARSET')/**/ ;
      634     9865        %VLP_NAME (FPTN=ASC64CVLP,STCLASS=CONSTANT,NAME='~ASC64CCHARSET');
              9866        %LSET LISTDIR='0'B;
              9890    1   DCL 1 ASC64CVLP CONSTANT,2 L# UBIN(9)INIT(14)/**/ UNAL,2 NAME# CHAR(0)INIT(
              9890            '~ASC64CCHARSET')/**/ ;
      635     9892        %VLP_NAME (FPTN=ASC95MVLP,STCLASS=CONSTANT,NAME='~ASC95MCHARSET');
              9893        %LSET LISTDIR='0'B;
              9917    1   DCL 1 ASC95MVLP CONSTANT,2 L# UBIN(9)INIT(14)/**/ UNAL,2 NAME# CHAR(0)INIT(
              9917            '~ASC95MCHARSET')/**/ ;
      636     9919        %VLP_NAME (FPTN=NATIVEVLP,STCLASS=CONSTANT,NAME='~NATIVECHARSET');
              9920        %LSET LISTDIR='0'B;
              9944    1   DCL 1 NATIVEVLP CONSTANT,2 L# UBIN(9)INIT(14)/**/ UNAL,2 NAME# CHAR(0)INIT(
              9944            '~NATIVECHARSET')/**/ ;
      637     9946        %VLP_NAME (FPTN=A500VLP,STCLASS=CONSTANT,NAME='~500CHARSET');
              9947        %LSET LISTDIR='0'B;
PL6.E3A0      #002=ASC$BUILD_CHARSET File=ASB$BUILD_DEFAULT_FILES.:E05TSI        TUE 07/29/97 08:57 Page:93
              9971    1   DCL 1 A500VLP CONSTANT,2 L# UBIN(9)INIT(11)/**/ UNAL,2 NAME# CHAR(0)INIT(
              9971            '~500CHARSET')/**/ ;
      638     9973        %VLP_NAME (FPTN=A500LCVLP,STCLASS=CONSTANT,NAME='~500LCCHARSET');
              9974        %LSET LISTDIR='0'B;
              9998    1   DCL 1 A500LCVLP CONSTANT,2 L# UBIN(9)INIT(13)/**/ UNAL,2 NAME# CHAR(0)INIT(
              9998            '~500LCCHARSET')/**/ ;
      639    10000        %VLP_NAME (FPTN=A600VLP,STCLASS=CONSTANT,NAME='~600CHARSET');
             10001        %LSET LISTDIR='0'B;
             10025    1   DCL 1 A600VLP CONSTANT,2 L# UBIN(9)INIT(11)/**/ UNAL,2 NAME# CHAR(0)INIT(
             10025            '~600CHARSET')/**/ ;
      640    10027        %VLP_NAME (FPTN=A3231VLP,STCLASS=CONSTANT,NAME='~3231CHARSET');
             10028        %LSET LISTDIR='0'B;
             10052    1   DCL 1 A3231VLP CONSTANT,2 L# UBIN(9)INIT(12)/**/ UNAL,2 NAME# CHAR(0)INIT(
             10052            '~3231CHARSET')/**/ ;
      641    10054        %VLP_NAME (FPTN=A3300VLP,STCLASS=CONSTANT,NAME='~3300CHARSET');
             10055        %LSET LISTDIR='0'B;
             10079    1   DCL 1 A3300VLP CONSTANT,2 L# UBIN(9)INIT(12)/**/ UNAL,2 NAME# CHAR(0)INIT(
             10079            '~3300CHARSET')/**/ ;
      642    10081        %VLP_NAME (FPTN=A513VLP,STCLASS=CONSTANT,NAME='~513CHARSET');
             10082        %LSET LISTDIR='0'B;
             10106    1   DCL 1 A513VLP CONSTANT,2 L# UBIN(9)INIT(11)/**/ UNAL,2 NAME# CHAR(0)INIT(
             10106            '~513CHARSET')/**/ ;
      643    10108        %VLP_NAME (FPTN=A524VLP,STCLASS=CONSTANT,NAME='~524CHARSET');
             10109        %LSET LISTDIR='0'B;
             10133    1   DCL 1 A524VLP CONSTANT,2 L# UBIN(9)INIT(11)/**/ UNAL,2 NAME# CHAR(0)INIT(
             10133            '~524CHARSET')/**/ ;
      644    10135        %VLP_NAME (FPTN=A3500VLP,STCLASS=CONSTANT,NAME='~3500CHARSET');
             10136        %LSET LISTDIR='0'B;
             10160    1   DCL 1 A3500VLP CONSTANT,2 L# UBIN(9)INIT(12)/**/ UNAL,2 NAME# CHAR(0)INIT(
             10160            '~3500CHARSET')/**/ ;
      645    10162        %VLP_NAME (FPTN=A3513VLP,STCLASS=CONSTANT,NAME='~3513CHARSET');
             10163        %LSET LISTDIR='0'B;
             10187    1   DCL 1 A3513VLP CONSTANT,2 L# UBIN(9)INIT(12)/**/ UNAL,2 NAME# CHAR(0)INIT(
             10187            '~3513CHARSET')/**/ ;
      646    10189        %VLP_NAME (FPTN=A3524VLP,STCLASS=CONSTANT,NAME='~3524CHARSET');
             10190        %LSET LISTDIR='0'B;
             10214    1   DCL 1 A3524VLP CONSTANT,2 L# UBIN(9)INIT(12)/**/ UNAL,2 NAME# CHAR(0)INIT(
PL6.E3A0      #002=ASC$BUILD_CHARSET File=ASB$BUILD_DEFAULT_FILES.:E05TSI        TUE 07/29/97 08:57 Page:94
             10214            '~3524CHARSET')/**/ ;
      647    10216        %VLP_NAME (FPTN=A3600VLP,STCLASS=CONSTANT,NAME='~3600CHARSET');
             10217        %LSET LISTDIR='0'B;
             10241    1   DCL 1 A3600VLP CONSTANT,2 L# UBIN(9)INIT(12)/**/ UNAL,2 NAME# CHAR(0)INIT(
             10241            '~3600CHARSET')/**/ ;
      648    10243        %VLP_NAME (FPTN=AEBCIVLP,STCLASS=CONSTANT,NAME='~EBCICHARSET');
             10244        %LSET LISTDIR='0'B;
             10268    1   DCL 1 AEBCIVLP CONSTANT,2 L# UBIN(9)INIT(12)/**/ UNAL,2 NAME# CHAR(0)INIT(
             10268            '~EBCICHARSET')/**/ ;
      649    10270        %VLP_NAME (FPTN=AEBCOVLP,STCLASS=CONSTANT,NAME='~EBCOCHARSET');
             10271        %LSET LISTDIR='0'B;
             10295    1   DCL 1 AEBCOVLP CONSTANT,2 L# UBIN(9)INIT(12)/**/ UNAL,2 NAME# CHAR(0)INIT(
             10295            '~EBCOCHARSET')/**/ ;
      650    10297        %VLP_NAME (FPTN=AXDSIVLP,STCLASS=CONSTANT,NAME='~XDSICHARSET');
             10298        %LSET LISTDIR='0'B;
             10322    1   DCL 1 AXDSIVLP CONSTANT,2 L# UBIN(9)INIT(12)/**/ UNAL,2 NAME# CHAR(0)INIT(
             10322            '~XDSICHARSET')/**/ ;
      651    10324        %VLP_NAME (FPTN=AXDSOVLP,STCLASS=CONSTANT,NAME='~XDSOCHARSET');
             10325        %LSET LISTDIR='0'B;
             10349    1   DCL 1 AXDSOVLP CONSTANT,2 L# UBIN(9)INIT(12)/**/ UNAL,2 NAME# CHAR(0)INIT(
             10349            '~XDSOCHARSET')/**/ ;
      652    10351        %VLP_NAME (FPTN=ASDS7VLP,STCLASS=CONSTANT,NAME='~SDS7CHARSET');
             10352        %LSET LISTDIR='0'B;
             10376    1   DCL 1 ASDS7VLP CONSTANT,2 L# UBIN(9)INIT(12)/**/ UNAL,2 NAME# CHAR(0)INIT(
             10376            '~SDS7CHARSET')/**/ ;
      653    10378        %VLP_NAME (FPTN=ANONEVLP,STCLASS=CONSTANT,NAME='~NONECHARSET');
             10379        %LSET LISTDIR='0'B;
             10403    1   DCL 1 ANONEVLP CONSTANT,2 L# UBIN(9)INIT(12)/**/ UNAL,2 NAME# CHAR(0)INIT(
             10403            '~NONECHARSET')/**/ ;
      654    10405        %PLIST;
      655    10406    1   CALL ASF$OPEN_FORM_CR
      656    10407    2   WHENALTRETURN DO;
      657    10408    2      CALL M$MERC;
      658    10409    2      END;
      659    10410        /*
      660    10411                 Here is the ASC64 record
      661    10412        */
PL6.E3A0      #002=ASC$BUILD_CHARSET File=ASB$BUILD_DEFAULT_FILES.:E05TSI        TUE 07/29/97 08:57 Page:95
      662    10413    1   PTR$ = ADDR (ASC64);
      663    10414    1   BOUND = SIZEC(ASC64);
      664    10415    1   CALL ASF$WRITE_FORM(ASC64VLP,PTR$,BOUND);
      665    10416        /*
      666    10417                 And here is the ASC95 record
      667    10418        */
      668    10419    1   PTR$ = ADDR (ASC95);
      669    10420    1   BOUND = SIZEC (ASC95);
      670    10421    1   CALL ASF$WRITE_FORM (ASC95VLP,PTR$,BOUND);
      671    10422        /*
      672    10423                 Here is the aplbf record
      673    10424        */
      674    10425    1   PTR$ = ADDR (APLBF);
      675    10426    1   BOUND = SIZEC (APLBF);
      676    10427    1   CALL ASF$WRITE_FORM (APLBFVLP,PTR$,BOUND);
      677    10428        /*
      678    10429                 And here is the aplbp record
      679    10430        */
      680    10431    1   PTR$ = ADDR (APLBP);
      681    10432    1   BOUND = SIZEC (APLBP);
      682    10433    1   CALL ASF$WRITE_FORM (APLBPVLP,PTR$,BOUND);
      683    10434        /*
      684    10435                 Here is the apltf record
      685    10436        */
      686    10437    1   PTR$ = ADDR (APLBF);
      687    10438    1   BOUND = SIZEC (APLBF);
      688    10439    1   CALL ASF$WRITE_FORM (APLTFVLP,PTR$,BOUND);
      689    10440        /*
      690    10441                 And here is the apltp record
      691    10442        */
      692    10443    1   PTR$ = ADDR (APLBP);
      693    10444    1   BOUND = SIZEC (APLBP);
      694    10445    1   CALL ASF$WRITE_FORM (APLTPVLP,PTR$,BOUND);
      695    10446        /*
      696    10447                 Here is the ASC8 record
      697    10448        */
      698    10449    1   PTR$ = ADDR (ASC8);
PL6.E3A0      #002=ASC$BUILD_CHARSET File=ASB$BUILD_DEFAULT_FILES.:E05TSI        TUE 07/29/97 08:57 Page:96
      699    10450    1   BOUND = SIZEC (ASC8);
      700    10451    1   CALL ASF$WRITE_FORM (ASC8VLP,PTR$,BOUND);
      701    10452        /*
      702    10453                 And here is the ASC64B record
      703    10454        */
      704    10455    1   PTR$ = ADDR (ASC64);
      705    10456    1   BOUND = SIZEC (ASC64);
      706    10457    1   CALL ASF$WRITE_FORM (ASC64BVLP,PTR$,BOUND);
      707    10458        /*
      708    10459                 Here is the ASC64C record
      709    10460        */
      710    10461    1   PTR$ = ADDR (ASC64);
      711    10462    1   BOUND = SIZEC (ASC64);
      712    10463    1   CALL ASF$WRITE_FORM (ASC64CVLP,PTR$,BOUND);
      713    10464        /*
      714    10465                 And here is the ASC95M record
      715    10466        */
      716    10467    1   PTR$ = ADDR (ASC95);
      717    10468    1   BOUND = SIZEC (ASC95);
      718    10469    1   CALL ASF$WRITE_FORM (ASC95MVLP,PTR$,BOUND);
      719    10470        /*
      720    10471                 Here is the native record
      721    10472        */
      722    10473    1   PTR$ = ADDR (NATIVE);
      723    10474    1   BOUND = SIZEC (NATIVE);
      724    10475    1   CALL ASF$WRITE_FORM (NATIVEVLP,PTR$,BOUND);
      725    10476        /*
      726    10477                 And here is the 500 record
      727    10478        */
      728    10479    1   PTR$ = ADDR (A500);
      729    10480    1   BOUND = SIZEC (A500);
      730    10481    1   CALL ASF$WRITE_FORM (A500VLP,PTR$,BOUND);
      731    10482        /*
      732    10483                 Here is the 500LC record
      733    10484        */
      734    10485    1   PTR$ = ADDR (A500LC);
      735    10486    1   BOUND = SIZEC (A500LC);
PL6.E3A0      #002=ASC$BUILD_CHARSET File=ASB$BUILD_DEFAULT_FILES.:E05TSI        TUE 07/29/97 08:57 Page:97
      736    10487    1   CALL ASF$WRITE_FORM (A500LCVLP,PTR$,BOUND);
      737    10488        /*
      738    10489                 And here is the 600 record
      739    10490        */
      740    10491    1   PTR$ = ADDR (A600);
      741    10492    1   BOUND = SIZEC (A600);
      742    10493    1   CALL ASF$WRITE_FORM (A600VLP,PTR$,BOUND);
      743    10494        /*
      744    10495                 And here is the 513 record
      745    10496        */
      746    10497    1   PTR$ = ADDR (A500LC);
      747    10498    1   BOUND = SIZEC (A500LC);
      748    10499    1   CALL ASF$WRITE_FORM (A513VLP,PTR$,BOUND);
      749    10500        /*
      750    10501                 Here is the 524 record
      751    10502        */
      752    10503    1   PTR$ = ADDR (A500);
      753    10504    1   BOUND = SIZEC (A500);
      754    10505    1   CALL ASF$WRITE_FORM (A524VLP,PTR$,BOUND);
      755    10506        /*
      756    10507                 And here is the 3500 record
      757    10508        */
      758    10509    1   PTR$ = ADDR (A500);
      759    10510    1   BOUND = SIZEC (A500);
      760    10511    1   CALL ASF$WRITE_FORM (A3500VLP,PTR$,BOUND);
      761    10512        /*
      762    10513                 Here is the 3513 record
      763    10514        */
      764    10515    1   PTR$ = ADDR (A500);
      765    10516    1   BOUND = SIZEC (A500);
      766    10517    1   CALL ASF$WRITE_FORM (A3513VLP,PTR$,BOUND);
      767    10518        /*
      768    10519                 And here is the 3524 record
      769    10520        */
      770    10521    1   PTR$ = ADDR (A500);
      771    10522    1   BOUND = SIZEC (A500);
      772    10523    1   CALL ASF$WRITE_FORM (A3524VLP,PTR$,BOUND);
PL6.E3A0      #002=ASC$BUILD_CHARSET File=ASB$BUILD_DEFAULT_FILES.:E05TSI        TUE 07/29/97 08:57 Page:98
      773    10524        /*
      774    10525                 Here is the 3600 record
      775    10526        */
      776    10527    1   PTR$ = ADDR (A600);
      777    10528    1   BOUND = SIZEC (A600);
      778    10529    1   CALL ASF$WRITE_FORM (A3600VLP,PTR$,BOUND);
      779    10530        /*
      780    10531                 Here is the 3231 record
      781    10532        */
      782    10533    1   PTR$ = ADDR (A3231);
      783    10534    1   BOUND = SIZEC (A3231);
      784    10535    1   CALL ASF$WRITE_FORM (A3231VLP,PTR$,BOUND);
      785    10536        /*
      786    10537                 And here is the 3300 record
      787    10538        */
      788    10539    1   PTR$ = ADDR (A3300);
      789    10540    1   BOUND = SIZEC (A3300);
      790    10541    1   CALL ASF$WRITE_FORM (A3300VLP,PTR$,BOUND);
      791    10542        /*
      792    10543                 Here is the EBCI record
      793    10544        */
      794    10545    1   PTR$ = ADDR (EBCI);
      795    10546    1   BOUND = SIZEC (EBCI);
      796    10547    1   CALL ASF$WRITE_FORM (AEBCIVLP,PTR$,BOUND);
      797    10548        /*
      798    10549                 Here is the EBCO record
      799    10550        */
      800    10551    1   PTR$ = ADDR (EBCO);
      801    10552    1   BOUND = SIZEC (EBCO);
      802    10553    1   CALL ASF$WRITE_FORM (AEBCOVLP,PTR$,BOUND);
      803    10554        /*
      804    10555                 Here is the XDSI record
      805    10556        */
      806    10557    1   PTR$ = ADDR (XDSI);
      807    10558    1   BOUND = SIZEC (XDSI);
      808    10559    1   CALL ASF$WRITE_FORM (AXDSIVLP,PTR$,BOUND);
      809    10560        /*
PL6.E3A0      #002=ASC$BUILD_CHARSET File=ASB$BUILD_DEFAULT_FILES.:E05TSI        TUE 07/29/97 08:57 Page:99
      810    10561                 Here is the XDSO record
      811    10562        */
      812    10563    1   PTR$ = ADDR (XDSO);
      813    10564    1   BOUND = SIZEC (XDSO);
      814    10565    1   CALL ASF$WRITE_FORM (AXDSOVLP,PTR$,BOUND);
      815    10566        /*
      816    10567                 Here is the SDS7012 record
      817    10568        */
      818    10569    1   PTR$ = ADDR (SDS7012);
      819    10570    1   BOUND = SIZEC (SDS7012);
      820    10571    1   CALL ASF$WRITE_FORM (ASDS7VLP,PTR$,BOUND);
      821    10572        /*
      822    10573                 Here is the NONE record
      823    10574        */
      824    10575    1   PTR$ = ADDR (NONE);
      825    10576    1   BOUND = SIZEC (NONE);
      826    10577    1   CALL ASF$WRITE_FORM (ANONEVLP,PTR$,BOUND);
      827    10578    1   RETURN;
      828    10579    1   END ASC$BUILD_CHARSET;
      829    10580        %EOD;

PL6.E3A0      #002=ASC$BUILD_CHARSET File=ASB$BUILD_DEFAULT_FILES.:E05TSI        TUE 07/29/97 08:57 Page:100
--  Include file information  --

   FS_SUPER_C.:E05TOU  is referenced.
   AS_SUBS_C.:E05TOU  is referenced.
   CP_6_C.:E05TOU  is referenced.
   CP_6.:E05TOU  cannot be made into a system file and is referenced.
   AS_ENTRIES_M.:E05TOU  is referenced.
      No diagnostics issued in procedure ASC$BUILD_CHARSET.

   Procedure ASC$BUILD_CHARSET requires 401 words for executable code.
   Procedure ASC$BUILD_CHARSET requires 10 words of local(AUTO) storage.

PL6.E3A0      #002=ASC$BUILD_CHARSET File=ASB$BUILD_DEFAULT_FILES.:E05TSI        TUE 07/29/97 08:57 Page:101

 Object Unit name= ASC$BUILD_CHARSET                          File name= ASB$BUILD_DEFAULT_FILES.:E05TOU
 UTS= JUL 29 '97 08:57:10.28 TUE                              Compiler= PL-6/E31         Sev=      00
 SharedLib= :SHARED_SYSTEM                                    Alt SharedLib=


    ****  Control sections  ****

 Sect   Type Bound  Init  Size OctSiz  Section name(segment info)
    0   DCB   even  none     0      0  M$UC
    1   DCB   even  none     0      0  M$FORM
    2  RoData even  UTS   1162   2212  ASC$BUILD_CHARSET
    3   Proc  even  none   401    621  ASC$BUILD_CHARSET
    4  RoData even  none    45     55  ASC$BUILD_CHARSET

    ****  Entry defs  ****

                              Check   Calling
                             calling  sequence
  Sect OctLoc Primary Altret sequence   type   Parms  Name
     3      0   yes            yes      Std        0  ASC$BUILD_CHARSET

  ****  Entry refs  ****

         Check        Calling
        calling       sequence
Altret sequence SRef   type   Args  Name
 yes     yes           Std       0 ASF$OPEN_FORM_CR
 yes     yes           Std       3 ASF$WRITE_FORM
                       nStd      0 X66_AUTO_0
                       Std       0 B_CONSPOOL_D
                       nStd      0 X66_ARET
PL6.E3A0      #002=ASC$BUILD_CHARSET File=ASB$BUILD_DEFAULT_FILES.:E05TSI        TUE 07/29/97 08:57 Page:102

  ****  Data refs  ****

  Flags:  r = read only, s = secondary
Flgs Name                             Flgs Name                             Flgs Name
     M$UC                                  M$FORM                                B_VECTNIL

  ****  Segment refs  ****

  Flags:  r = read only, s = secondary
Flgs Name                             Flgs Name                             Flgs Name
     ISSID
PL6.E3A0      #002=ASC$BUILD_CHARSET File=ASB$BUILD_DEFAULT_FILES.:E05TSI        TUE 07/29/97 08:57 Page:103


      274        1        /*T***********************************************************/
      275        2        /*T*                                                         */
      276        3        /*T* Copyright (c) Bull HN Information Systems Inc., 1997    */
      277        4        /*T*                                                         */
      278        5        /*T***********************************************************/
      279        6        %EJECT;
PL6.E3A0      #002=ASC$BUILD_CHARSET File=ASB$BUILD_DEFAULT_FILES.:E05TSI        TUE 07/29/97 08:57 Page:104
      280        7        /*M* ASC$BUILD_CHARSET - Builds the default charsets... */
      281        8        ASC$BUILD_CHARSET: PROC;

      8  3 000000   000000 700200 xent  ASC$BUILD_C* TSX0  ! X66_AUTO_0
         3 000001   000012 000000                    ZERO    10,0

      282        9        %INCLUDE AS_ENTRIES_M;
      283     1059        %INCLUDE CP_6;
      284     6618        %INCLUDE AS_SUBS_C;
      285     8032        %INCLUDE FS_SUPER_C;
      286     8795        %EQU QSTR = %BITASC ('042'O);
      287     8796
      288     8797    1   DCL M$FORM DCB;
      289     8798    1   DCL PTR$ PTR;
      290     8799    1   DCL BOUND UBIN;
      291     8800
      292     8801        %ASF$OPEN_FORM_CR ;
      293     8804        %ASF$WRITE_FORM ;
      294     8807        %LIST;
      295     8808        %SET LISTSUB='1'B;
      296     8809        %SET LISTEXP='1'B;
      297     8810
      298     8811        %FS$CHARSET (NAME=ASC64,             /* 500 image */
      299     8812                      STCLASS=CONSTANT,
      300     8813                      LP_OK='1'B,
      301     8814                      TS_OK='1'B,
      302     8815                      ELS_OK='1'B,
      303     8816                      ONE_OK='0'B,
      304     8817                      LTYPE = '  ',
      305     8818                      ATTRIBUTES='000040'O,
      306     8819                      CHARSET0="'=5678GHIJKL|0.-*/MNOPQR:'" ,
      307     8820                      CHARSET1="'&(9),STUVWX}01234YZ$`#+!'"  ,
      308     8821                      CHARSET2="'?5678ABCDEF~0.-*/GHIJKL<'" ,
      309     8822                      CHARSET3="'>(9),MNOPQR{01234STUVWX;'"  ,
      310     8823                      CHARSET4="%CONCAT ('''5678YZ$@#%_0.-*/ABCDEF',QSTR)" ,
      311     8824                      CHARSET5="'=(9),GHIJKL\01234MNOPQR:'"  ,
      312     8825                      CHARSET6="'&5678STUVWX]0.-*/YZ$@#+!'" ,
PL6.E3A0      #002=ASC$BUILD_CHARSET File=ASB$BUILD_DEFAULT_FILES.:E05TSI        TUE 07/29/97 08:57 Page:105
      313     8826                      CHARSET7="'?(9),ABCDEF^01234GHIJKL<'"  ,
      314     8827                      CHARSET8="'>5678MNOPQR[0.-*/STUVWX;'"  ,
      315     8828                      CHARSET9="%CONCAT ('''(9),YZ$@#%_01234ABCDEF',QSTR)" );
              8829        %LSET STR='CONSTANT        ';
              8830        %IF
              8832         '1'B;
              8833        %LSET INIT=INIT;
              8834        %ELSE;
              8836        %ENDIF;
              8837    1   DCL 1 ASC64 CONSTANT ALIGNED,
              8838    1         2 SETS (0:9) CHAR (24) INIT ('=5678GHIJKL|0.-*/MNOPQR:',
              8839    1                                    '&(9),STUVWX}01234YZ$`#+!',
              8840    1                                    '?5678ABCDEF~0.-*/GHIJKL<',
              8841    1                                    '>(9),MNOPQR{01234STUVWX;',
              8842    1                                    '''5678YZ$@#%_0.-*/ABCDEF"',
              8843    1                                    '=(9),GHIJKL\01234MNOPQR:',
              8844    1                                    '&5678STUVWX]0.-*/YZ$@#+!',
              8845    1                                    '?(9),ABCDEF^01234GHIJKL<',
              8846    1                                    '>5678MNOPQR[0.-*/STUVWX;',
              8847    1                                    '''(9),YZ$@#%_01234ABCDEF"') /**/,
              8848    1         2 CHAINIMAGE REDEF SETS CHAR (240) UNAL,
              8849    1         2 ATTRS BIT (18) INIT ('000040'O) /**/,
              8850    1         2 LGLTYPS,
              8851    1           3 LPOK BIT(1) INIT('1'B)/**/,
              8852    1           3 TSOK BIT(1) INIT('1'B)/**/,
              8853    1           3 ELSOK BIT(1) INIT('1'B)/**/,
              8854    1           3 ONEOK BIT(1) INIT('0'B)/**/,
              8855    1           3 * BIT(5) INIT('00000'B)/**/,
              8856    1           3 LTYP CHAR(2) INIT('  ')/**/,
              8857    1           3 * BIT(27) INIT('000000000'O)/**/;
      316     8859
      317     8860        %FS$CHARSET (NAME=ASC95,             /* 600 image */
      318     8861                      STCLASS=CONSTANT,
      319     8862                      LP_OK='1'B,
      320     8863                      TS_OK='1'B,
      321     8864                      ELS_OK='1'B,
      322     8865                      ONE_OK='0'B,
PL6.E3A0      #002=ASC$BUILD_CHARSET File=ASB$BUILD_DEFAULT_FILES.:E05TSI        TUE 07/29/97 08:57 Page:106
      323     8866                      LTYPE = '  ',
      324     8867                      ATTRIBUTES='000041'O,
      325     8868                      CHARSET0="'BDFGHJgS0ACEINORLTabcdef'"  ,
      326     8869                      CHARSET1="'KhijklmM0PQUVWXYZ:;?!%7x'"  ,
      327     8870                      CHARSET2="'ynoprstw0z123456#89.,()@'"  ,
      328     8871                      CHARSET3="%CONCAT ('$=&/''\^_0',QSTR,'<>[]gS~ACEINOR')" ,
      329     8872                      CHARSET4="'{Tabcdef0hijklm}|`-*+quv'"  ,
      330     8873                      CHARSET5="'BDFGHJ7x0noprstwLz123456'"  ,
      331     8874                      CHARSET6="'K89.,()M0PQUVWXYZ:;?!%gS'"  ,
      332     8875                      CHARSET7="'yACEINOR0Tabcdef#hijklm@'"  ,
      333     8876                      CHARSET8="%CONCAT ('$=&/''\^_0',QSTR,'<>[]7x~noprstw')" ,
      334     8877                      CHARSET9="'{z123456089.,()}|`-*+quv'"  ) ;
              8878        %LSET STR='CONSTANT        ';
              8879        %IF
              8881         '1'B;
              8882        %LSET INIT=INIT;
              8883        %ELSE;
              8885        %ENDIF;
              8886    1   DCL 1 ASC95 CONSTANT ALIGNED,
              8887    1         2 SETS (0:9) CHAR (24) INIT ('BDFGHJgS0ACEINORLTabcdef',
              8888    1                                    'KhijklmM0PQUVWXYZ:;?!%7x',
              8889    1                                    'ynoprstw0z123456#89.,()@',
              8890    1                                    '$=&/''\^_0"<>[]gS~ACEINOR',
              8891    1                                    '{Tabcdef0hijklm}|`-*+quv',
              8892    1                                    'BDFGHJ7x0noprstwLz123456',
              8893    1                                    'K89.,()M0PQUVWXYZ:;?!%gS',
              8894    1                                    'yACEINOR0Tabcdef#hijklm@',
              8895    1                                    '$=&/''\^_0"<>[]7x~noprstw',
              8896    1                                    '{z123456089.,()}|`-*+quv') /**/,
              8897    1         2 CHAINIMAGE REDEF SETS CHAR (240) UNAL,
              8898    1         2 ATTRS BIT (18) INIT ('000041'O) /**/,
              8899    1         2 LGLTYPS,
              8900    1           3 LPOK BIT(1) INIT('1'B)/**/,
              8901    1           3 TSOK BIT(1) INIT('1'B)/**/,
              8902    1           3 ELSOK BIT(1) INIT('1'B)/**/,
              8903    1           3 ONEOK BIT(1) INIT('0'B)/**/,
              8904    1           3 * BIT(5) INIT('00000'B)/**/,
PL6.E3A0      #002=ASC$BUILD_CHARSET File=ASB$BUILD_DEFAULT_FILES.:E05TSI        TUE 07/29/97 08:57 Page:107
              8905    1           3 LTYP CHAR(2) INIT('  ')/**/,
              8906    1           3 * BIT(27) INIT('000000000'O)/**/;
      335     8908
      336     8909        %FS$CHARSET (NAME=APLBF,             /* 600 image */
      337     8910                      STCLASS=CONSTANT,
      338     8911                      LP_OK='1'B,
      339     8912                      TS_OK='1'B,
      340     8913                      ELS_OK='1'B,
      341     8914                      ONE_OK='0'B,
      342     8915                      LTYPE = '  ',
      343     8916                      ATTRIBUTES='000041'O,
      344     8917                      CHARSET0="'BDFGHJgS0ACEINORLTabcdef'"  ,
      345     8918                      CHARSET1="'KhijklmM0PQUVWXYZ:;?!%7x'"  ,
      346     8919                      CHARSET2="'ynoprstw0z123456#89.,()@'"  ,
      347     8920                      CHARSET3="%CONCAT ('$=&/''\^_0',QSTR,'<>[]gS~ACEINOR')" ,
      348     8921                      CHARSET4="'{Tabcdef0hijklm}|`-*+quv'"  ,
      349     8922                      CHARSET5="'BDFGHJ7x0noprstwLz123456'"  ,
      350     8923                      CHARSET6="'K89.,()M0PQUVWXYZ:;?!%gS'"  ,
      351     8924                      CHARSET7="'yACEINOR0Tabcdef#hijklm@'"  ,
      352     8925                      CHARSET8="%CONCAT ('$=&/''\^_0',QSTR,'<>[]7x~noprstw')" ,
      353     8926                      CHARSET9="'{z123456089.,()}|`-*+quv'"  ) ;
              8927        %LSET STR='CONSTANT        ';
              8928        %IF
              8930         '1'B;
              8931        %LSET INIT=INIT;
              8932        %ELSE;
              8934        %ENDIF;
              8935    1   DCL 1 APLBF CONSTANT ALIGNED,
              8936    1         2 SETS (0:9) CHAR (24) INIT ('BDFGHJgS0ACEINORLTabcdef',
              8937    1                                    'KhijklmM0PQUVWXYZ:;?!%7x',
              8938    1                                    'ynoprstw0z123456#89.,()@',
              8939    1                                    '$=&/''\^_0"<>[]gS~ACEINOR',
              8940    1                                    '{Tabcdef0hijklm}|`-*+quv',
              8941    1                                    'BDFGHJ7x0noprstwLz123456',
              8942    1                                    'K89.,()M0PQUVWXYZ:;?!%gS',
              8943    1                                    'yACEINOR0Tabcdef#hijklm@',
              8944    1                                    '$=&/''\^_0"<>[]7x~noprstw',
PL6.E3A0      #002=ASC$BUILD_CHARSET File=ASB$BUILD_DEFAULT_FILES.:E05TSI        TUE 07/29/97 08:57 Page:108
              8945    1                                    '{z123456089.,()}|`-*+quv') /**/,
              8946    1         2 CHAINIMAGE REDEF SETS CHAR (240) UNAL,
              8947    1         2 ATTRS BIT (18) INIT ('000041'O) /**/,
              8948    1         2 LGLTYPS,
              8949    1           3 LPOK BIT(1) INIT('1'B)/**/,
              8950    1           3 TSOK BIT(1) INIT('1'B)/**/,
              8951    1           3 ELSOK BIT(1) INIT('1'B)/**/,
              8952    1           3 ONEOK BIT(1) INIT('0'B)/**/,
              8953    1           3 * BIT(5) INIT('00000'B)/**/,
              8954    1           3 LTYP CHAR(2) INIT('  ')/**/,
              8955    1           3 * BIT(27) INIT('000000000'O)/**/;
      354     8957
      355     8958        %FS$CHARSET (NAME=APLBP,             /* 600 image */
      356     8959                      STCLASS=CONSTANT,
      357     8960                      LP_OK='1'B,
      358     8961                      TS_OK='1'B,
      359     8962                      ELS_OK='1'B,
      360     8963                      ONE_OK='0'B,
      361     8964                      LTYPE = '  ',
      362     8965                      ATTRIBUTES='000041'O,
      363     8966                      CHARSET0="'BDFGHJgS0ACEINORLTabcdef'"  ,
      364     8967                      CHARSET1="'KhijklmM0PQUVWXYZ:;?!%7x'"  ,
      365     8968                      CHARSET2="'ynoprstw0z123456#89.,()@'"  ,
      366     8969                      CHARSET3="%CONCAT ('$=&/''\^_0',QSTR,'<>[]gS~ACEINOR')" ,
      367     8970                      CHARSET4="'{Tabcdef0hijklm}|`-*+quv'"  ,
      368     8971                      CHARSET5="'BDFGHJ7x0noprstwLz123456'"  ,
      369     8972                      CHARSET6="'K89.,()M0PQUVWXYZ:;?!%gS'"  ,
      370     8973                      CHARSET7="'yACEINOR0Tabcdef#hijklm@'"  ,
      371     8974                      CHARSET8="%CONCAT ('$=&/''\^_0',QSTR,'<>[]7x~noprstw')" ,
      372     8975                      CHARSET9="'{z123456089.,()}|`-*+quv'"  ) ;
              8976        %LSET STR='CONSTANT        ';
              8977        %IF
              8979         '1'B;
              8980        %LSET INIT=INIT;
              8981        %ELSE;
              8983        %ENDIF;
              8984    1   DCL 1 APLBP CONSTANT ALIGNED,
PL6.E3A0      #002=ASC$BUILD_CHARSET File=ASB$BUILD_DEFAULT_FILES.:E05TSI        TUE 07/29/97 08:57 Page:109
              8985    1         2 SETS (0:9) CHAR (24) INIT ('BDFGHJgS0ACEINORLTabcdef',
              8986    1                                    'KhijklmM0PQUVWXYZ:;?!%7x',
              8987    1                                    'ynoprstw0z123456#89.,()@',
              8988    1                                    '$=&/''\^_0"<>[]gS~ACEINOR',
              8989    1                                    '{Tabcdef0hijklm}|`-*+quv',
              8990    1                                    'BDFGHJ7x0noprstwLz123456',
              8991    1                                    'K89.,()M0PQUVWXYZ:;?!%gS',
              8992    1                                    'yACEINOR0Tabcdef#hijklm@',
              8993    1                                    '$=&/''\^_0"<>[]7x~noprstw',
              8994    1                                    '{z123456089.,()}|`-*+quv') /**/,
              8995    1         2 CHAINIMAGE REDEF SETS CHAR (240) UNAL,
              8996    1         2 ATTRS BIT (18) INIT ('000041'O) /**/,
              8997    1         2 LGLTYPS,
              8998    1           3 LPOK BIT(1) INIT('1'B)/**/,
              8999    1           3 TSOK BIT(1) INIT('1'B)/**/,
              9000    1           3 ELSOK BIT(1) INIT('1'B)/**/,
              9001    1           3 ONEOK BIT(1) INIT('0'B)/**/,
              9002    1           3 * BIT(5) INIT('00000'B)/**/,
              9003    1           3 LTYP CHAR(2) INIT('  ')/**/,
              9004    1           3 * BIT(27) INIT('000000000'O)/**/;
      373     9006
      374     9007        %FS$CHARSET (NAME=ASC8,              /* 600 image */
      375     9008                      STCLASS=CONSTANT,
      376     9009                      LP_OK='1'B,
      377     9010                      TS_OK='1'B,
      378     9011                      ELS_OK='1'B,
      379     9012                      ONE_OK='0'B,
      380     9013                      LTYPE = '  ',
      381     9014                      ATTRIBUTES='000041'O,
      382     9015                      CHARSET0="'BDFGHJgS0ACEINORLTabcdef'"  ,
      383     9016                      CHARSET1="'KhijklmM0PQUVWXYZ:;?!%7x'"  ,
      384     9017                      CHARSET2="'ynoprstw0z123456#89.,()@'"  ,
      385     9018                      CHARSET3="%CONCAT ('$=&/''\^_0',QSTR,'<>[]gS~ACEINOR')" ,
      386     9019                      CHARSET4="'{Tabcdef0hijklm}|`-*+quv'"  ,
      387     9020                      CHARSET5="'BDFGHJ7x0noprstwLz123456'"  ,
      388     9021                      CHARSET6="'K89.,()M0PQUVWXYZ:;?!%gS'"  ,
      389     9022                      CHARSET7="'yACEINOR0Tabcdef#hijklm@'"  ,
PL6.E3A0      #002=ASC$BUILD_CHARSET File=ASB$BUILD_DEFAULT_FILES.:E05TSI        TUE 07/29/97 08:57 Page:110
      390     9023                      CHARSET8="%CONCAT ('$=&/''\^_0',QSTR,'<>[]7x~noprstw')" ,
      391     9024                      CHARSET9="'{z123456089.,()}|`-*+quv'"  ) ;
              9025        %LSET STR='CONSTANT        ';
              9026        %IF
              9028         '1'B;
              9029        %LSET INIT=INIT;
              9030        %ELSE;
              9032        %ENDIF;
              9033    1   DCL 1 ASC8 CONSTANT ALIGNED,
              9034    1         2 SETS (0:9) CHAR (24) INIT ('BDFGHJgS0ACEINORLTabcdef',
              9035    1                                    'KhijklmM0PQUVWXYZ:;?!%7x',
              9036    1                                    'ynoprstw0z123456#89.,()@',
              9037    1                                    '$=&/''\^_0"<>[]gS~ACEINOR',
              9038    1                                    '{Tabcdef0hijklm}|`-*+quv',
              9039    1                                    'BDFGHJ7x0noprstwLz123456',
              9040    1                                    'K89.,()M0PQUVWXYZ:;?!%gS',
              9041    1                                    'yACEINOR0Tabcdef#hijklm@',
              9042    1                                    '$=&/''\^_0"<>[]7x~noprstw',
              9043    1                                    '{z123456089.,()}|`-*+quv') /**/,
              9044    1         2 CHAINIMAGE REDEF SETS CHAR (240) UNAL,
              9045    1         2 ATTRS BIT (18) INIT ('000041'O) /**/,
              9046    1         2 LGLTYPS,
              9047    1           3 LPOK BIT(1) INIT('1'B)/**/,
              9048    1           3 TSOK BIT(1) INIT('1'B)/**/,
              9049    1           3 ELSOK BIT(1) INIT('1'B)/**/,
              9050    1           3 ONEOK BIT(1) INIT('0'B)/**/,
              9051    1           3 * BIT(5) INIT('00000'B)/**/,
              9052    1           3 LTYP CHAR(2) INIT('  ')/**/,
              9053    1           3 * BIT(27) INIT('000000000'O)/**/;
      392     9055
      393     9056        %FS$CHARSET (NAME=A600,              /* 600 image */
      394     9057                      STCLASS=CONSTANT,
      395     9058                      LP_OK='1'B,
      396     9059                      TS_OK='1'B,
      397     9060                      ELS_OK='1'B,
      398     9061                      ONE_OK='0'B,
      399     9062                      LTYPE = '  ',
PL6.E3A0      #002=ASC$BUILD_CHARSET File=ASB$BUILD_DEFAULT_FILES.:E05TSI        TUE 07/29/97 08:57 Page:111
      400     9063                      ATTRIBUTES='000051'O,
      401     9064                      CHARSET0="'BDFGHJgS0ACEINORLTabcdef'"  ,
      402     9065                      CHARSET1="'KhijklmM0PQUVWXYZ:;?!%7x'"  ,
      403     9066                      CHARSET2="'ynoprstw0z123456#89.,()@'"  ,
      404     9067                      CHARSET3="%CONCAT ('$=&/''\^_0',QSTR,'<>[]gS~ACEINOR')" ,
      405     9068                      CHARSET4="'{Tabcdef0hijklm}|`-*+quv'"  ,
      406     9069                      CHARSET5="'BDFGHJ7x0noprstwLz123456'"  ,
      407     9070                      CHARSET6="'K89.,()M0PQUVWXYZ:;?!%gS'"  ,
      408     9071                      CHARSET7="'yACEINOR0Tabcdef#hijklm@'"  ,
      409     9072                      CHARSET8="%CONCAT ('$=&/''\^_0',QSTR,'<>[]7x~noprstw')" ,
      410     9073                      CHARSET9="'{z123456089.,()}|`-*+quv'"  ) ;
              9074        %LSET STR='CONSTANT        ';
              9075        %IF
              9077         '1'B;
              9078        %LSET INIT=INIT;
              9079        %ELSE;
              9081        %ENDIF;
              9082    1   DCL 1 A600 CONSTANT ALIGNED,
              9083    1         2 SETS (0:9) CHAR (24) INIT ('BDFGHJgS0ACEINORLTabcdef',
              9084    1                                    'KhijklmM0PQUVWXYZ:;?!%7x',
              9085    1                                    'ynoprstw0z123456#89.,()@',
              9086    1                                    '$=&/''\^_0"<>[]gS~ACEINOR',
              9087    1                                    '{Tabcdef0hijklm}|`-*+quv',
              9088    1                                    'BDFGHJ7x0noprstwLz123456',
              9089    1                                    'K89.,()M0PQUVWXYZ:;?!%gS',
              9090    1                                    'yACEINOR0Tabcdef#hijklm@',
              9091    1                                    '$=&/''\^_0"<>[]7x~noprstw',
              9092    1                                    '{z123456089.,()}|`-*+quv') /**/,
              9093    1         2 CHAINIMAGE REDEF SETS CHAR (240) UNAL,
              9094    1         2 ATTRS BIT (18) INIT ('000051'O) /**/,
              9095    1         2 LGLTYPS,
              9096    1           3 LPOK BIT(1) INIT('1'B)/**/,
              9097    1           3 TSOK BIT(1) INIT('1'B)/**/,
              9098    1           3 ELSOK BIT(1) INIT('1'B)/**/,
              9099    1           3 ONEOK BIT(1) INIT('0'B)/**/,
              9100    1           3 * BIT(5) INIT('00000'B)/**/,
              9101    1           3 LTYP CHAR(2) INIT('  ')/**/,
PL6.E3A0      #002=ASC$BUILD_CHARSET File=ASB$BUILD_DEFAULT_FILES.:E05TSI        TUE 07/29/97 08:57 Page:112
              9102    1           3 * BIT(27) INIT('000000000'O)/**/;
      411     9104
      412     9105        %FS$CHARSET (NAME=NATIVE,            /* National  */
      413     9106                      STCLASS=CONSTANT,
      414     9107                      LP_OK='1'B,
      415     9108                      TS_OK='1'B,
      416     9109                      ELS_OK='1'B,
      417     9110                      ONE_OK='0'B,
      418     9111                      LTYPE = '  ',
      419     9112                      ATTRIBUTES='000061'O,
      420     9113                      CHARSET0="'BDFGHJgS0ACEINORLTabcdef'"  ,
      421     9114                      CHARSET1="'KhijklmM0PQUVWXYZ:;?!%7x'"  ,
      422     9115                      CHARSET2="'ynoprstw0z123456#89.,()@'"  ,
      423     9116                      CHARSET3="%CONCAT ('$=&/''\^_0',QSTR,'<>[]gS~ACEINOR')" ,
      424     9117                      CHARSET4="'{Tabcdef0hijklm}|`-*+quv'"  ,
      425     9118                      CHARSET5="'BDFGHJ7x0noprstwLz123456'"  ,
      426     9119                      CHARSET6="'K89.,()M0PQUVWXYZ:;?!%gS'"  ,
      427     9120                      CHARSET7="'yACEINOR0Tabcdef#hijklm@'"  ,
      428     9121                      CHARSET8="%CONCAT ('$=&/''\^_0',QSTR,'<>[]7x~noprstw')" ,
      429     9122                      CHARSET9="'{z123456089.,()}|`-*+quv'"  ) ;
              9123        %LSET STR='CONSTANT        ';
              9124        %IF
              9126         '1'B;
              9127        %LSET INIT=INIT;
              9128        %ELSE;
              9130        %ENDIF;
              9131    1   DCL 1 NATIVE CONSTANT ALIGNED,
              9132    1         2 SETS (0:9) CHAR (24) INIT ('BDFGHJgS0ACEINORLTabcdef',
              9133    1                                    'KhijklmM0PQUVWXYZ:;?!%7x',
              9134    1                                    'ynoprstw0z123456#89.,()@',
              9135    1                                    '$=&/''\^_0"<>[]gS~ACEINOR',
              9136    1                                    '{Tabcdef0hijklm}|`-*+quv',
              9137    1                                    'BDFGHJ7x0noprstwLz123456',
              9138    1                                    'K89.,()M0PQUVWXYZ:;?!%gS',
              9139    1                                    'yACEINOR0Tabcdef#hijklm@',
              9140    1                                    '$=&/''\^_0"<>[]7x~noprstw',
              9141    1                                    '{z123456089.,()}|`-*+quv') /**/,
PL6.E3A0      #002=ASC$BUILD_CHARSET File=ASB$BUILD_DEFAULT_FILES.:E05TSI        TUE 07/29/97 08:57 Page:113
              9142    1         2 CHAINIMAGE REDEF SETS CHAR (240) UNAL,
              9143    1         2 ATTRS BIT (18) INIT ('000061'O) /**/,
              9144    1         2 LGLTYPS,
              9145    1           3 LPOK BIT(1) INIT('1'B)/**/,
              9146    1           3 TSOK BIT(1) INIT('1'B)/**/,
              9147    1           3 ELSOK BIT(1) INIT('1'B)/**/,
              9148    1           3 ONEOK BIT(1) INIT('0'B)/**/,
              9149    1           3 * BIT(5) INIT('00000'B)/**/,
              9150    1           3 LTYP CHAR(2) INIT('  ')/**/,
              9151    1           3 * BIT(27) INIT('000000000'O)/**/;
      430     9153
      431     9154        %FS$CHARSET (NAME=A500,              /* 500 image */
      432     9155                      STCLASS=CONSTANT,
      433     9156                      LP_OK='1'B,
      434     9157                      TS_OK='1'B,
      435     9158                      ELS_OK='1'B,
      436     9159                      ONE_OK='0'B,
      437     9160                      LTYPE = '  ',
      438     9161                      ATTRIBUTES='000050'O,
      439     9162                      CHARSET0="'=5678GHIJKL|0.-*/MNOPQR:'" ,
      440     9163                      CHARSET1="'&(9),STUVWX}01234YZ$`#+!'"  ,
      441     9164                      CHARSET2="'?5678ABCDEF~0.-*/GHIJKL<'" ,
      442     9165                      CHARSET3="'>(9),MNOPQR{01234STUVWX;'"  ,
      443     9166                      CHARSET4="%CONCAT ('''5678YZ$@#%_0.-*/ABCDEF',QSTR)" ,
      444     9167                      CHARSET5="'=(9),GHIJKL\01234MNOPQR:'"  ,
      445     9168                      CHARSET6="'&5678STUVWX]0.-*/YZ$@#+!'" ,
      446     9169                      CHARSET7="'?(9),ABCDEF^01234GHIJKL<'"  ,
      447     9170                      CHARSET8="'>5678MNOPQR[0.-*/STUVWX;'"  ,
      448     9171                      CHARSET9="%CONCAT ('''(9),YZ$@#%_01234ABCDEF',QSTR)" );
              9172        %LSET STR='CONSTANT        ';
              9173        %IF
              9175         '1'B;
              9176        %LSET INIT=INIT;
              9177        %ELSE;
              9179        %ENDIF;
              9180    1   DCL 1 A500 CONSTANT ALIGNED,
              9181    1         2 SETS (0:9) CHAR (24) INIT ('=5678GHIJKL|0.-*/MNOPQR:',
PL6.E3A0      #002=ASC$BUILD_CHARSET File=ASB$BUILD_DEFAULT_FILES.:E05TSI        TUE 07/29/97 08:57 Page:114
              9182    1                                    '&(9),STUVWX}01234YZ$`#+!',
              9183    1                                    '?5678ABCDEF~0.-*/GHIJKL<',
              9184    1                                    '>(9),MNOPQR{01234STUVWX;',
              9185    1                                    '''5678YZ$@#%_0.-*/ABCDEF"',
              9186    1                                    '=(9),GHIJKL\01234MNOPQR:',
              9187    1                                    '&5678STUVWX]0.-*/YZ$@#+!',
              9188    1                                    '?(9),ABCDEF^01234GHIJKL<',
              9189    1                                    '>5678MNOPQR[0.-*/STUVWX;',
              9190    1                                    '''(9),YZ$@#%_01234ABCDEF"') /**/,
              9191    1         2 CHAINIMAGE REDEF SETS CHAR (240) UNAL,
              9192    1         2 ATTRS BIT (18) INIT ('000050'O) /**/,
              9193    1         2 LGLTYPS,
              9194    1           3 LPOK BIT(1) INIT('1'B)/**/,
              9195    1           3 TSOK BIT(1) INIT('1'B)/**/,
              9196    1           3 ELSOK BIT(1) INIT('1'B)/**/,
              9197    1           3 ONEOK BIT(1) INIT('0'B)/**/,
              9198    1           3 * BIT(5) INIT('00000'B)/**/,
              9199    1           3 LTYP CHAR(2) INIT('  ')/**/,
              9200    1           3 * BIT(27) INIT('000000000'O)/**/;
      449     9202
      450     9203        %FS$CHARSET (NAME=A500LC,            /* 500 #3 alpha to lower */
      451     9204                      STCLASS=CONSTANT,
      452     9205                      LP_OK='1'B,
      453     9206                      TS_OK='1'B,
      454     9207                      ELS_OK='1'B,
      455     9208                      ONE_OK='0'B,
      456     9209                      LTYPE = '  ',
      457     9210                      ATTRIBUTES='000051'O,
      458     9211                      CHARSET0="'=5678GHIJKL|0.-*/MNOPQR:'" ,
      459     9212                      CHARSET1="'&(9),STUVWX}01234YZ$`#+!'"  ,
      460     9213                      CHARSET2="'?5678ABCDEF~0.-*/GHIJKL<'" ,
      461     9214                      CHARSET3="'>(9),MNOPQR{01234STUVWX;'"  ,
      462     9215                      CHARSET4="%CONCAT ('''5678YZ$@#%_0.-*/ABCDEF',QSTR)" ,
      463     9216                      CHARSET5="'=(9),GHIJKL\01234MNOPQR:'"  ,
      464     9217                      CHARSET6="'&5678STUVWX]0.-*/YZ$@#+!'" ,
      465     9218                      CHARSET7="'?(9),abcdef^01234ghijkl<'"  ,
      466     9219                      CHARSET8="'>5678mnopqr[0.-*/stuvwx;'"  ,
PL6.E3A0      #002=ASC$BUILD_CHARSET File=ASB$BUILD_DEFAULT_FILES.:E05TSI        TUE 07/29/97 08:57 Page:115
      467     9220                      CHARSET9="%CONCAT ('''(9),yz$@#%_01234ABCDEF',QSTR)" );
              9221        %LSET STR='CONSTANT        ';
              9222        %IF
              9224         '1'B;
              9225        %LSET INIT=INIT;
              9226        %ELSE;
              9228        %ENDIF;
              9229    1   DCL 1 A500LC CONSTANT ALIGNED,
              9230    1         2 SETS (0:9) CHAR (24) INIT ('=5678GHIJKL|0.-*/MNOPQR:',
              9231    1                                    '&(9),STUVWX}01234YZ$`#+!',
              9232    1                                    '?5678ABCDEF~0.-*/GHIJKL<',
              9233    1                                    '>(9),MNOPQR{01234STUVWX;',
              9234    1                                    '''5678YZ$@#%_0.-*/ABCDEF"',
              9235    1                                    '=(9),GHIJKL\01234MNOPQR:',
              9236    1                                    '&5678STUVWX]0.-*/YZ$@#+!',
              9237    1                                    '?(9),abcdef^01234ghijkl<',
              9238    1                                    '>5678mnopqr[0.-*/stuvwx;',
              9239    1                                    '''(9),yz$@#%_01234ABCDEF"') /**/,
              9240    1         2 CHAINIMAGE REDEF SETS CHAR (240) UNAL,
              9241    1         2 ATTRS BIT (18) INIT ('000051'O) /**/,
              9242    1         2 LGLTYPS,
              9243    1           3 LPOK BIT(1) INIT('1'B)/**/,
              9244    1           3 TSOK BIT(1) INIT('1'B)/**/,
              9245    1           3 ELSOK BIT(1) INIT('1'B)/**/,
              9246    1           3 ONEOK BIT(1) INIT('0'B)/**/,
              9247    1           3 * BIT(5) INIT('00000'B)/**/,
              9248    1           3 LTYP CHAR(2) INIT('  ')/**/,
              9249    1           3 * BIT(27) INIT('000000000'O)/**/;
      468     9251
      469     9252        %FS$CHARSET (NAME=A3300,             /* Opt ascii upper & lower */
      470     9253                      STCLASS=CONSTANT,
      471     9254                      LP_OK='1'B,
      472     9255                      TS_OK='1'B,
      473     9256                      ELS_OK='1'B,
      474     9257                      ONE_OK='0'B,
      475     9258                      LTYPE = '  ',
      476     9259                      ATTRIBUTES='000041'O,
PL6.E3A0      #002=ASC$BUILD_CHARSET File=ASB$BUILD_DEFAULT_FILES.:E05TSI        TUE 07/29/97 08:57 Page:116
      477     9260                      CHARSET0="%CONCAT ('!',QSTR,'#$%&''()0*+,-./01234567')" ,
      478     9261                      CHARSET1="'89:;<=>?@ABCDEFGHIJKLMNO'"  ,
      479     9262                      CHARSET2="'PQRSTUVWXYZ[\]^_`abcdefg'"  ,
      480     9263                      CHARSET3="'hijklmnopqrstuvwxyz0{|}~'"  ,
      481     9264                      CHARSET4="%CONCAT ('!',QSTR,'#$%&''()0*+,-./01234567')" ,
      482     9265                      CHARSET5="'89:;<=>?@ABCDEFGHIJKLMNO'"  ,
      483     9266                      CHARSET6="'PQRSTUVWXYZ[\]^_`abcdefg'"  ,
      484     9267                      CHARSET7="'hijklmnopqrstuvwxyz0{|}~'"  ,
      485     9268                      CHARSET8="%CONCAT ('!',QSTR,'#$%&''()0*+,-./01234567')" ,
      486     9269                      CHARSET9="'89:;<=>?@ABCDEFGHIJKLMNO'"  );
              9270        %LSET STR='CONSTANT        ';
              9271        %IF
              9273         '1'B;
              9274        %LSET INIT=INIT;
              9275        %ELSE;
              9277        %ENDIF;
              9278    1   DCL 1 A3300 CONSTANT ALIGNED,
              9279    1         2 SETS (0:9) CHAR (24) INIT ('!"#$%&''()0*+,-./01234567',
              9280    1                                    '89:;<=>?@ABCDEFGHIJKLMNO',
              9281    1                                    'PQRSTUVWXYZ[\]^_`abcdefg',
              9282    1                                    'hijklmnopqrstuvwxyz0{|}~',
              9283    1                                    '!"#$%&''()0*+,-./01234567',
              9284    1                                    '89:;<=>?@ABCDEFGHIJKLMNO',
              9285    1                                    'PQRSTUVWXYZ[\]^_`abcdefg',
              9286    1                                    'hijklmnopqrstuvwxyz0{|}~',
              9287    1                                    '!"#$%&''()0*+,-./01234567',
              9288    1                                    '89:;<=>?@ABCDEFGHIJKLMNO') /**/,
              9289    1         2 CHAINIMAGE REDEF SETS CHAR (240) UNAL,
              9290    1         2 ATTRS BIT (18) INIT ('000041'O) /**/,
              9291    1         2 LGLTYPS,
              9292    1           3 LPOK BIT(1) INIT('1'B)/**/,
              9293    1           3 TSOK BIT(1) INIT('1'B)/**/,
              9294    1           3 ELSOK BIT(1) INIT('1'B)/**/,
              9295    1           3 ONEOK BIT(1) INIT('0'B)/**/,
              9296    1           3 * BIT(5) INIT('00000'B)/**/,
              9297    1           3 LTYP CHAR(2) INIT('  ')/**/,
              9298    1           3 * BIT(27) INIT('000000000'O)/**/;
PL6.E3A0      #002=ASC$BUILD_CHARSET File=ASB$BUILD_DEFAULT_FILES.:E05TSI        TUE 07/29/97 08:57 Page:117
      487     9300
      488     9301        %FS$CHARSET (NAME=A3231,             /* Opt ascii upper only */
      489     9302                      STCLASS=CONSTANT,
      490     9303                      LP_OK='1'B,
      491     9304                      TS_OK='1'B,
      492     9305                      ELS_OK='1'B,
      493     9306                      ONE_OK='0'B,
      494     9307                      LTYPE = '  ',
      495     9308                      ATTRIBUTES='000040'O,
      496     9309                      CHARSET0="%CONCAT ('!',QSTR,'#$%&''()0*+,-./01234567')" ,
      497     9310                      CHARSET1="'89:;<=>?@ABCDEFGHIJKLMNO'"  ,
      498     9311                      CHARSET2="'PQRSTUVWXYZ[\]^_`ABCDEFG'"  ,
      499     9312                      CHARSET3="'HIJKLMNOPQRSTUVWXYZ0{|}~'"  ,
      500     9313                      CHARSET4="%CONCAT ('!',QSTR,'#$%&''()0*+,-./01234567')" ,
      501     9314                      CHARSET5="'89:;<=>?@ABCDEFGHIJKLMNO'"  ,
      502     9315                      CHARSET6="'PQRSTUVWXYZ[\]^_`ABCDEFG'"  ,
      503     9316                      CHARSET7="'HIJKLMNOPQRSTUVWXYZ0{|}~'"  ,
      504     9317                      CHARSET8="%CONCAT ('!',QSTR,'#$%&''()0*+,-./01234567')" ,
      505     9318                      CHARSET9="'89:;<=>?@ABCDEFGHIJKLMNO'"  );
              9319        %LSET STR='CONSTANT        ';
              9320        %IF
              9322         '1'B;
              9323        %LSET INIT=INIT;
              9324        %ELSE;
              9326        %ENDIF;
              9327    1   DCL 1 A3231 CONSTANT ALIGNED,
              9328    1         2 SETS (0:9) CHAR (24) INIT ('!"#$%&''()0*+,-./01234567',
              9329    1                                    '89:;<=>?@ABCDEFGHIJKLMNO',
              9330    1                                    'PQRSTUVWXYZ[\]^_`ABCDEFG',
              9331    1                                    'HIJKLMNOPQRSTUVWXYZ0{|}~',
              9332    1                                    '!"#$%&''()0*+,-./01234567',
              9333    1                                    '89:;<=>?@ABCDEFGHIJKLMNO',
              9334    1                                    'PQRSTUVWXYZ[\]^_`ABCDEFG',
              9335    1                                    'HIJKLMNOPQRSTUVWXYZ0{|}~',
              9336    1                                    '!"#$%&''()0*+,-./01234567',
              9337    1                                    '89:;<=>?@ABCDEFGHIJKLMNO') /**/,
              9338    1         2 CHAINIMAGE REDEF SETS CHAR (240) UNAL,
PL6.E3A0      #002=ASC$BUILD_CHARSET File=ASB$BUILD_DEFAULT_FILES.:E05TSI        TUE 07/29/97 08:57 Page:118
              9339    1         2 ATTRS BIT (18) INIT ('000040'O) /**/,
              9340    1         2 LGLTYPS,
              9341    1           3 LPOK BIT(1) INIT('1'B)/**/,
              9342    1           3 TSOK BIT(1) INIT('1'B)/**/,
              9343    1           3 ELSOK BIT(1) INIT('1'B)/**/,
              9344    1           3 ONEOK BIT(1) INIT('0'B)/**/,
              9345    1           3 * BIT(5) INIT('00000'B)/**/,
              9346    1           3 LTYP CHAR(2) INIT('  ')/**/,
              9347    1           3 * BIT(27) INIT('000000000'O)/**/;
      506     9349
      507     9350        %FS$CHARSET (NAME=EBCI,              /* Bisync */
      508     9351                      STCLASS=CONSTANT,
      509     9352                      LP_OK='1'B,
      510     9353                      TS_OK='1'B,
      511     9354                      ELS_OK='1'B,
      512     9355                      ONE_OK='0'B,
      513     9356                      LTYPE = '  ',
      514     9357                      ATTRIBUTES='000141'O,
      515     9358                      CHARSET0="'BDFGHJgS0ACEINORLTabcdef'"  ,
      516     9359                      CHARSET1="'KhijklmM0PQUVWXYZ:;?!%7x'"  ,
      517     9360                      CHARSET2="'ynoprstw0z123456#89.,()@'"  ,
      518     9361                      CHARSET3="%CONCAT ('$=&/''\^_0',QSTR,'<>[]gS~ACEINOR')" ,
      519     9362                      CHARSET4="'{Tabcdef0hijklm}|`-*+quv'"  ,
      520     9363                      CHARSET5="'BDFGHJ7x0noprstwLz123456'"  ,
      521     9364                      CHARSET6="'K89.,()M0PQUVWXYZ:;?!%gS'"  ,
      522     9365                      CHARSET7="'yACEINOR0Tabcdef#hijklm@'"  ,
      523     9366                      CHARSET8="%CONCAT ('$=&/''\^_0',QSTR,'<>[]7x~noprstw')" ,
      524     9367                      CHARSET9="'{z123456089.,()}|`-*+quv'"  ) ;
              9368        %LSET STR='CONSTANT        ';
              9369        %IF
              9371         '1'B;
              9372        %LSET INIT=INIT;
              9373        %ELSE;
              9375        %ENDIF;
              9376    1   DCL 1 EBCI CONSTANT ALIGNED,
              9377    1         2 SETS (0:9) CHAR (24) INIT ('BDFGHJgS0ACEINORLTabcdef',
              9378    1                                    'KhijklmM0PQUVWXYZ:;?!%7x',
PL6.E3A0      #002=ASC$BUILD_CHARSET File=ASB$BUILD_DEFAULT_FILES.:E05TSI        TUE 07/29/97 08:57 Page:119
              9379    1                                    'ynoprstw0z123456#89.,()@',
              9380    1                                    '$=&/''\^_0"<>[]gS~ACEINOR',
              9381    1                                    '{Tabcdef0hijklm}|`-*+quv',
              9382    1                                    'BDFGHJ7x0noprstwLz123456',
              9383    1                                    'K89.,()M0PQUVWXYZ:;?!%gS',
              9384    1                                    'yACEINOR0Tabcdef#hijklm@',
              9385    1                                    '$=&/''\^_0"<>[]7x~noprstw',
              9386    1                                    '{z123456089.,()}|`-*+quv') /**/,
              9387    1         2 CHAINIMAGE REDEF SETS CHAR (240) UNAL,
              9388    1         2 ATTRS BIT (18) INIT ('000141'O) /**/,
              9389    1         2 LGLTYPS,
              9390    1           3 LPOK BIT(1) INIT('1'B)/**/,
              9391    1           3 TSOK BIT(1) INIT('1'B)/**/,
              9392    1           3 ELSOK BIT(1) INIT('1'B)/**/,
              9393    1           3 ONEOK BIT(1) INIT('0'B)/**/,
              9394    1           3 * BIT(5) INIT('00000'B)/**/,
              9395    1           3 LTYP CHAR(2) INIT('  ')/**/,
              9396    1           3 * BIT(27) INIT('000000000'O)/**/;
      525     9398
      526     9399
      527     9400        %FS$CHARSET (NAME=EBCO,              /* Bisync */
      528     9401                      STCLASS=CONSTANT,
      529     9402                      LP_OK='1'B,
      530     9403                      TS_OK='1'B,
      531     9404                      ELS_OK='1'B,
      532     9405                      ONE_OK='0'B,
      533     9406                      LTYPE = '  ',
      534     9407                      ATTRIBUTES='000141'O,
      535     9408                      CHARSET0="'BDFGHJgS0ACEINORLTabcdef'"  ,
      536     9409                      CHARSET1="'KhijklmM0PQUVWXYZ:;?!%7x'"  ,
      537     9410                      CHARSET2="'ynoprstw0z123456#89.,()@'"  ,
      538     9411                      CHARSET3="%CONCAT ('$=&/''\^_0',QSTR,'<>[]gS~ACEINOR')" ,
      539     9412                      CHARSET4="'{Tabcdef0hijklm}|`-*+quv'"  ,
      540     9413                      CHARSET5="'BDFGHJ7x0noprstwLz123456'"  ,
      541     9414                      CHARSET6="'K89.,()M0PQUVWXYZ:;?!%gS'"  ,
      542     9415                      CHARSET7="'yACEINOR0Tabcdef#hijklm@'"  ,
      543     9416                      CHARSET8="%CONCAT ('$=&/''\^_0',QSTR,'<>[]7x~noprstw')" ,
PL6.E3A0      #002=ASC$BUILD_CHARSET File=ASB$BUILD_DEFAULT_FILES.:E05TSI        TUE 07/29/97 08:57 Page:120
      544     9417                      CHARSET9="'{z123456089.,()}|`-*+quv'"  ) ;
              9418        %LSET STR='CONSTANT        ';
              9419        %IF
              9421         '1'B;
              9422        %LSET INIT=INIT;
              9423        %ELSE;
              9425        %ENDIF;
              9426    1   DCL 1 EBCO CONSTANT ALIGNED,
              9427    1         2 SETS (0:9) CHAR (24) INIT ('BDFGHJgS0ACEINORLTabcdef',
              9428    1                                    'KhijklmM0PQUVWXYZ:;?!%7x',
              9429    1                                    'ynoprstw0z123456#89.,()@',
              9430    1                                    '$=&/''\^_0"<>[]gS~ACEINOR',
              9431    1                                    '{Tabcdef0hijklm}|`-*+quv',
              9432    1                                    'BDFGHJ7x0noprstwLz123456',
              9433    1                                    'K89.,()M0PQUVWXYZ:;?!%gS',
              9434    1                                    'yACEINOR0Tabcdef#hijklm@',
              9435    1                                    '$=&/''\^_0"<>[]7x~noprstw',
              9436    1                                    '{z123456089.,()}|`-*+quv') /**/,
              9437    1         2 CHAINIMAGE REDEF SETS CHAR (240) UNAL,
              9438    1         2 ATTRS BIT (18) INIT ('000141'O) /**/,
              9439    1         2 LGLTYPS,
              9440    1           3 LPOK BIT(1) INIT('1'B)/**/,
              9441    1           3 TSOK BIT(1) INIT('1'B)/**/,
              9442    1           3 ELSOK BIT(1) INIT('1'B)/**/,
              9443    1           3 ONEOK BIT(1) INIT('0'B)/**/,
              9444    1           3 * BIT(5) INIT('00000'B)/**/,
              9445    1           3 LTYP CHAR(2) INIT('  ')/**/,
              9446    1           3 * BIT(27) INIT('000000000'O)/**/;
      545     9448
      546     9449
      547     9450        %FS$CHARSET (NAME=XDSI,              /* Bisync */
      548     9451                      STCLASS=CONSTANT,
      549     9452                      LP_OK='1'B,
      550     9453                      TS_OK='1'B,
      551     9454                      ELS_OK='1'B,
      552     9455                      ONE_OK='0'B,
      553     9456                      LTYPE = '  ',
PL6.E3A0      #002=ASC$BUILD_CHARSET File=ASB$BUILD_DEFAULT_FILES.:E05TSI        TUE 07/29/97 08:57 Page:121
      554     9457                      ATTRIBUTES='000141'O,
      555     9458                      CHARSET0="'BDFGHJgS0ACEINORLTabcdef'"  ,
      556     9459                      CHARSET1="'KhijklmM0PQUVWXYZ:;?!%7x'"  ,
      557     9460                      CHARSET2="'ynoprstw0z123456#89.,()@'"  ,
      558     9461                      CHARSET3="%CONCAT ('$=&/''\^_0',QSTR,'<>[]gS~ACEINOR')" ,
      559     9462                      CHARSET4="'{Tabcdef0hijklm}|`-*+quv'"  ,
      560     9463                      CHARSET5="'BDFGHJ7x0noprstwLz123456'"  ,
      561     9464                      CHARSET6="'K89.,()M0PQUVWXYZ:;?!%gS'"  ,
      562     9465                      CHARSET7="'yACEINOR0Tabcdef#hijklm@'"  ,
      563     9466                      CHARSET8="%CONCAT ('$=&/''\^_0',QSTR,'<>[]7x~noprstw')" ,
      564     9467                      CHARSET9="'{z123456089.,()}|`-*+quv'"  ) ;
              9468        %LSET STR='CONSTANT        ';
              9469        %IF
              9471         '1'B;
              9472        %LSET INIT=INIT;
              9473        %ELSE;
              9475        %ENDIF;
              9476    1   DCL 1 XDSI CONSTANT ALIGNED,
              9477    1         2 SETS (0:9) CHAR (24) INIT ('BDFGHJgS0ACEINORLTabcdef',
              9478    1                                    'KhijklmM0PQUVWXYZ:;?!%7x',
              9479    1                                    'ynoprstw0z123456#89.,()@',
              9480    1                                    '$=&/''\^_0"<>[]gS~ACEINOR',
              9481    1                                    '{Tabcdef0hijklm}|`-*+quv',
              9482    1                                    'BDFGHJ7x0noprstwLz123456',
              9483    1                                    'K89.,()M0PQUVWXYZ:;?!%gS',
              9484    1                                    'yACEINOR0Tabcdef#hijklm@',
              9485    1                                    '$=&/''\^_0"<>[]7x~noprstw',
              9486    1                                    '{z123456089.,()}|`-*+quv') /**/,
              9487    1         2 CHAINIMAGE REDEF SETS CHAR (240) UNAL,
              9488    1         2 ATTRS BIT (18) INIT ('000141'O) /**/,
              9489    1         2 LGLTYPS,
              9490    1           3 LPOK BIT(1) INIT('1'B)/**/,
              9491    1           3 TSOK BIT(1) INIT('1'B)/**/,
              9492    1           3 ELSOK BIT(1) INIT('1'B)/**/,
              9493    1           3 ONEOK BIT(1) INIT('0'B)/**/,
              9494    1           3 * BIT(5) INIT('00000'B)/**/,
              9495    1           3 LTYP CHAR(2) INIT('  ')/**/,
PL6.E3A0      #002=ASC$BUILD_CHARSET File=ASB$BUILD_DEFAULT_FILES.:E05TSI        TUE 07/29/97 08:57 Page:122
              9496    1           3 * BIT(27) INIT('000000000'O)/**/;
      565     9498
      566     9499
      567     9500        %FS$CHARSET (NAME=XDSO,              /* Bisync */
      568     9501                      STCLASS=CONSTANT,
      569     9502                      LP_OK='1'B,
      570     9503                      TS_OK='1'B,
      571     9504                      ELS_OK='1'B,
      572     9505                      ONE_OK='0'B,
      573     9506                      LTYPE = '  ',
      574     9507                      ATTRIBUTES='000141'O,
      575     9508                      CHARSET0="'BDFGHJgS0ACEINORLTabcdef'"  ,
      576     9509                      CHARSET1="'KhijklmM0PQUVWXYZ:;?!%7x'"  ,
      577     9510                      CHARSET2="'ynoprstw0z123456#89.,()@'"  ,
      578     9511                      CHARSET3="%CONCAT ('$=&/''\^_0',QSTR,'<>[]gS~ACEINOR')" ,
      579     9512                      CHARSET4="'{Tabcdef0hijklm}|`-*+quv'"  ,
      580     9513                      CHARSET5="'BDFGHJ7x0noprstwLz123456'"  ,
      581     9514                      CHARSET6="'K89.,()M0PQUVWXYZ:;?!%gS'"  ,
      582     9515                      CHARSET7="'yACEINOR0Tabcdef#hijklm@'"  ,
      583     9516                      CHARSET8="%CONCAT ('$=&/''\^_0',QSTR,'<>[]7x~noprstw')" ,
      584     9517                      CHARSET9="'{z123456089.,()}|`-*+quv'"  ) ;
              9518        %LSET STR='CONSTANT        ';
              9519        %IF
              9521         '1'B;
              9522        %LSET INIT=INIT;
              9523        %ELSE;
              9525        %ENDIF;
              9526    1   DCL 1 XDSO CONSTANT ALIGNED,
              9527    1         2 SETS (0:9) CHAR (24) INIT ('BDFGHJgS0ACEINORLTabcdef',
              9528    1                                    'KhijklmM0PQUVWXYZ:;?!%7x',
              9529    1                                    'ynoprstw0z123456#89.,()@',
              9530    1                                    '$=&/''\^_0"<>[]gS~ACEINOR',
              9531    1                                    '{Tabcdef0hijklm}|`-*+quv',
              9532    1                                    'BDFGHJ7x0noprstwLz123456',
              9533    1                                    'K89.,()M0PQUVWXYZ:;?!%gS',
              9534    1                                    'yACEINOR0Tabcdef#hijklm@',
              9535    1                                    '$=&/''\^_0"<>[]7x~noprstw',
PL6.E3A0      #002=ASC$BUILD_CHARSET File=ASB$BUILD_DEFAULT_FILES.:E05TSI        TUE 07/29/97 08:57 Page:123
              9536    1                                    '{z123456089.,()}|`-*+quv') /**/,
              9537    1         2 CHAINIMAGE REDEF SETS CHAR (240) UNAL,
              9538    1         2 ATTRS BIT (18) INIT ('000141'O) /**/,
              9539    1         2 LGLTYPS,
              9540    1           3 LPOK BIT(1) INIT('1'B)/**/,
              9541    1           3 TSOK BIT(1) INIT('1'B)/**/,
              9542    1           3 ELSOK BIT(1) INIT('1'B)/**/,
              9543    1           3 ONEOK BIT(1) INIT('0'B)/**/,
              9544    1           3 * BIT(5) INIT('00000'B)/**/,
              9545    1           3 LTYP CHAR(2) INIT('  ')/**/,
              9546    1           3 * BIT(27) INIT('000000000'O)/**/;
      585     9548
      586     9549
      587     9550        %FS$CHARSET (NAME=SDS7012,           /* Bisync */
      588     9551                      STCLASS=CONSTANT,
      589     9552                      LP_OK='1'B,
      590     9553                      TS_OK='1'B,
      591     9554                      ELS_OK='1'B,
      592     9555                      ONE_OK='0'B,
      593     9556                      LTYPE = '  ',
      594     9557                      ATTRIBUTES='000141'O,
      595     9558                      CHARSET0="'BDFGHJgS0ACEINORLTabcdef'"  ,
      596     9559                      CHARSET1="'KhijklmM0PQUVWXYZ:;?!%7x'"  ,
      597     9560                      CHARSET2="'ynoprstw0z123456#89.,()@'"  ,
      598     9561                      CHARSET3="%CONCAT ('$=&/''\^_0',QSTR,'<>[]gS~ACEINOR')" ,
      599     9562                      CHARSET4="'{Tabcdef0hijklm}|`-*+quv'"  ,
      600     9563                      CHARSET5="'BDFGHJ7x0noprstwLz123456'"  ,
      601     9564                      CHARSET6="'K89.,()M0PQUVWXYZ:;?!%gS'"  ,
      602     9565                      CHARSET7="'yACEINOR0Tabcdef#hijklm@'"  ,
      603     9566                      CHARSET8="%CONCAT ('$=&/''\^_0',QSTR,'<>[]7x~noprstw')" ,
      604     9567                      CHARSET9="'{z123456089.,()}|`-*+quv'"  ) ;
              9568        %LSET STR='CONSTANT        ';
              9569        %IF
              9571         '1'B;
              9572        %LSET INIT=INIT;
              9573        %ELSE;
              9575        %ENDIF;
PL6.E3A0      #002=ASC$BUILD_CHARSET File=ASB$BUILD_DEFAULT_FILES.:E05TSI        TUE 07/29/97 08:57 Page:124
              9576    1   DCL 1 SDS7012 CONSTANT ALIGNED,
              9577    1         2 SETS (0:9) CHAR (24) INIT ('BDFGHJgS0ACEINORLTabcdef',
              9578    1                                    'KhijklmM0PQUVWXYZ:;?!%7x',
              9579    1                                    'ynoprstw0z123456#89.,()@',
              9580    1                                    '$=&/''\^_0"<>[]gS~ACEINOR',
              9581    1                                    '{Tabcdef0hijklm}|`-*+quv',
              9582    1                                    'BDFGHJ7x0noprstwLz123456',
              9583    1                                    'K89.,()M0PQUVWXYZ:;?!%gS',
              9584    1                                    'yACEINOR0Tabcdef#hijklm@',
              9585    1                                    '$=&/''\^_0"<>[]7x~noprstw',
              9586    1                                    '{z123456089.,()}|`-*+quv') /**/,
              9587    1         2 CHAINIMAGE REDEF SETS CHAR (240) UNAL,
              9588    1         2 ATTRS BIT (18) INIT ('000141'O) /**/,
              9589    1         2 LGLTYPS,
              9590    1           3 LPOK BIT(1) INIT('1'B)/**/,
              9591    1           3 TSOK BIT(1) INIT('1'B)/**/,
              9592    1           3 ELSOK BIT(1) INIT('1'B)/**/,
              9593    1           3 ONEOK BIT(1) INIT('0'B)/**/,
              9594    1           3 * BIT(5) INIT('00000'B)/**/,
              9595    1           3 LTYP CHAR(2) INIT('  ')/**/,
              9596    1           3 * BIT(27) INIT('000000000'O)/**/;
      605     9598
      606     9599        %FS$CHARSET (NAME=NONE,              /* Bisync */
      607     9600                      STCLASS=CONSTANT,
      608     9601                      LP_OK='1'B,
      609     9602                      TS_OK='1'B,
      610     9603                      ELS_OK='1'B,
      611     9604                      ONE_OK='0'B,
      612     9605                      LTYPE = '  ',
      613     9606                      ATTRIBUTES='000141'O,
      614     9607                      CHARSET0="'BDFGHJgS0ACEINORLTabcdef'"  ,
      615     9608                      CHARSET1="'KhijklmM0PQUVWXYZ:;?!%7x'"  ,
      616     9609                      CHARSET2="'ynoprstw0z123456#89.,()@'"  ,
      617     9610                      CHARSET3="%CONCAT ('$=&/''\^_0',QSTR,'<>[]gS~ACEINOR')" ,
      618     9611                      CHARSET4="'{Tabcdef0hijklm}|`-*+quv'"  ,
      619     9612                      CHARSET5="'BDFGHJ7x0noprstwLz123456'"  ,
      620     9613                      CHARSET6="'K89.,()M0PQUVWXYZ:;?!%gS'"  ,
PL6.E3A0      #002=ASC$BUILD_CHARSET File=ASB$BUILD_DEFAULT_FILES.:E05TSI        TUE 07/29/97 08:57 Page:125
      621     9614                      CHARSET7="'yACEINOR0Tabcdef#hijklm@'"  ,
      622     9615                      CHARSET8="%CONCAT ('$=&/''\^_0',QSTR,'<>[]7x~noprstw')" ,
      623     9616                      CHARSET9="'{z123456089.,()}|`-*+quv'"  ) ;
              9617        %LSET STR='CONSTANT        ';
              9618        %IF
              9620         '1'B;
              9621        %LSET INIT=INIT;
              9622        %ELSE;
              9624        %ENDIF;
              9625    1   DCL 1 NONE CONSTANT ALIGNED,
              9626    1         2 SETS (0:9) CHAR (24) INIT ('BDFGHJgS0ACEINORLTabcdef',
              9627    1                                    'KhijklmM0PQUVWXYZ:;?!%7x',
              9628    1                                    'ynoprstw0z123456#89.,()@',
              9629    1                                    '$=&/''\^_0"<>[]gS~ACEINOR',
              9630    1                                    '{Tabcdef0hijklm}|`-*+quv',
              9631    1                                    'BDFGHJ7x0noprstwLz123456',
              9632    1                                    'K89.,()M0PQUVWXYZ:;?!%gS',
              9633    1                                    'yACEINOR0Tabcdef#hijklm@',
              9634    1                                    '$=&/''\^_0"<>[]7x~noprstw',
              9635    1                                    '{z123456089.,()}|`-*+quv') /**/,
              9636    1         2 CHAINIMAGE REDEF SETS CHAR (240) UNAL,
              9637    1         2 ATTRS BIT (18) INIT ('000141'O) /**/,
              9638    1         2 LGLTYPS,
              9639    1           3 LPOK BIT(1) INIT('1'B)/**/,
              9640    1           3 TSOK BIT(1) INIT('1'B)/**/,
              9641    1           3 ELSOK BIT(1) INIT('1'B)/**/,
              9642    1           3 ONEOK BIT(1) INIT('0'B)/**/,
              9643    1           3 * BIT(5) INIT('00000'B)/**/,
              9644    1           3 LTYP CHAR(2) INIT('  ')/**/,
              9645    1           3 * BIT(27) INIT('000000000'O)/**/;
      624     9647
      625     9648
      626     9649        %VLP_NAME (FPTN=ASC64VLP,STCLASS=CONSTANT,NAME='~ASC64CHARSET');
              9650        %LSET LISTDIR='0'B;
              9674    1   DCL 1 ASC64VLP CONSTANT,2 L# UBIN(9)INIT(13)/**/ UNAL,2 NAME# CHAR(0)INIT(
              9674            '~ASC64CHARSET')/**/ ;
      627     9676        %VLP_NAME (FPTN=ASC95VLP,STCLASS=CONSTANT,NAME='~ASC95CHARSET');
PL6.E3A0      #002=ASC$BUILD_CHARSET File=ASB$BUILD_DEFAULT_FILES.:E05TSI        TUE 07/29/97 08:57 Page:126
              9677        %LSET LISTDIR='0'B;
              9701    1   DCL 1 ASC95VLP CONSTANT,2 L# UBIN(9)INIT(13)/**/ UNAL,2 NAME# CHAR(0)INIT(
              9701            '~ASC95CHARSET')/**/ ;
      628     9703        %VLP_NAME (FPTN=APLBFVLP,STCLASS=CONSTANT,NAME='~APLBFCHARSET');
              9704        %LSET LISTDIR='0'B;
              9728    1   DCL 1 APLBFVLP CONSTANT,2 L# UBIN(9)INIT(13)/**/ UNAL,2 NAME# CHAR(0)INIT(
              9728            '~APLBFCHARSET')/**/ ;
      629     9730        %VLP_NAME (FPTN=APLBPVLP,STCLASS=CONSTANT,NAME='~APLBPCHARSET');
              9731        %LSET LISTDIR='0'B;
              9755    1   DCL 1 APLBPVLP CONSTANT,2 L# UBIN(9)INIT(13)/**/ UNAL,2 NAME# CHAR(0)INIT(
              9755            '~APLBPCHARSET')/**/ ;
      630     9757        %VLP_NAME (FPTN=APLTFVLP,STCLASS=CONSTANT,NAME='~APLTFCHARSET');
              9758        %LSET LISTDIR='0'B;
              9782    1   DCL 1 APLTFVLP CONSTANT,2 L# UBIN(9)INIT(13)/**/ UNAL,2 NAME# CHAR(0)INIT(
              9782            '~APLTFCHARSET')/**/ ;
      631     9784        %VLP_NAME (FPTN=APLTPVLP,STCLASS=CONSTANT,NAME='~APLTPCHARSET');
              9785        %LSET LISTDIR='0'B;
              9809    1   DCL 1 APLTPVLP CONSTANT,2 L# UBIN(9)INIT(13)/**/ UNAL,2 NAME# CHAR(0)INIT(
              9809            '~APLTPCHARSET')/**/ ;
      632     9811        %VLP_NAME (FPTN=ASC8VLP,STCLASS=CONSTANT,NAME='~ASC8CHARSET');
              9812        %LSET LISTDIR='0'B;
              9836    1   DCL 1 ASC8VLP CONSTANT,2 L# UBIN(9)INIT(12)/**/ UNAL,2 NAME# CHAR(0)INIT(
              9836            '~ASC8CHARSET')/**/ ;
      633     9838        %VLP_NAME (FPTN=ASC64BVLP,STCLASS=CONSTANT,NAME='~ASC64BCHARSET');
              9839        %LSET LISTDIR='0'B;
              9863    1   DCL 1 ASC64BVLP CONSTANT,2 L# UBIN(9)INIT(14)/**/ UNAL,2 NAME# CHAR(0)INIT(
              9863            '~ASC64BCHARSET')/**/ ;
      634     9865        %VLP_NAME (FPTN=ASC64CVLP,STCLASS=CONSTANT,NAME='~ASC64CCHARSET');
              9866        %LSET LISTDIR='0'B;
              9890    1   DCL 1 ASC64CVLP CONSTANT,2 L# UBIN(9)INIT(14)/**/ UNAL,2 NAME# CHAR(0)INIT(
              9890            '~ASC64CCHARSET')/**/ ;
      635     9892        %VLP_NAME (FPTN=ASC95MVLP,STCLASS=CONSTANT,NAME='~ASC95MCHARSET');
              9893        %LSET LISTDIR='0'B;
              9917    1   DCL 1 ASC95MVLP CONSTANT,2 L# UBIN(9)INIT(14)/**/ UNAL,2 NAME# CHAR(0)INIT(
              9917            '~ASC95MCHARSET')/**/ ;
      636     9919        %VLP_NAME (FPTN=NATIVEVLP,STCLASS=CONSTANT,NAME='~NATIVECHARSET');
              9920        %LSET LISTDIR='0'B;
PL6.E3A0      #002=ASC$BUILD_CHARSET File=ASB$BUILD_DEFAULT_FILES.:E05TSI        TUE 07/29/97 08:57 Page:127
              9944    1   DCL 1 NATIVEVLP CONSTANT,2 L# UBIN(9)INIT(14)/**/ UNAL,2 NAME# CHAR(0)INIT(
              9944            '~NATIVECHARSET')/**/ ;
      637     9946        %VLP_NAME (FPTN=A500VLP,STCLASS=CONSTANT,NAME='~500CHARSET');
              9947        %LSET LISTDIR='0'B;
              9971    1   DCL 1 A500VLP CONSTANT,2 L# UBIN(9)INIT(11)/**/ UNAL,2 NAME# CHAR(0)INIT(
              9971            '~500CHARSET')/**/ ;
      638     9973        %VLP_NAME (FPTN=A500LCVLP,STCLASS=CONSTANT,NAME='~500LCCHARSET');
              9974        %LSET LISTDIR='0'B;
              9998    1   DCL 1 A500LCVLP CONSTANT,2 L# UBIN(9)INIT(13)/**/ UNAL,2 NAME# CHAR(0)INIT(
              9998            '~500LCCHARSET')/**/ ;
      639    10000        %VLP_NAME (FPTN=A600VLP,STCLASS=CONSTANT,NAME='~600CHARSET');
             10001        %LSET LISTDIR='0'B;
             10025    1   DCL 1 A600VLP CONSTANT,2 L# UBIN(9)INIT(11)/**/ UNAL,2 NAME# CHAR(0)INIT(
             10025            '~600CHARSET')/**/ ;
      640    10027        %VLP_NAME (FPTN=A3231VLP,STCLASS=CONSTANT,NAME='~3231CHARSET');
             10028        %LSET LISTDIR='0'B;
             10052    1   DCL 1 A3231VLP CONSTANT,2 L# UBIN(9)INIT(12)/**/ UNAL,2 NAME# CHAR(0)INIT(
             10052            '~3231CHARSET')/**/ ;
      641    10054        %VLP_NAME (FPTN=A3300VLP,STCLASS=CONSTANT,NAME='~3300CHARSET');
             10055        %LSET LISTDIR='0'B;
             10079    1   DCL 1 A3300VLP CONSTANT,2 L# UBIN(9)INIT(12)/**/ UNAL,2 NAME# CHAR(0)INIT(
             10079            '~3300CHARSET')/**/ ;
      642    10081        %VLP_NAME (FPTN=A513VLP,STCLASS=CONSTANT,NAME='~513CHARSET');
             10082        %LSET LISTDIR='0'B;
             10106    1   DCL 1 A513VLP CONSTANT,2 L# UBIN(9)INIT(11)/**/ UNAL,2 NAME# CHAR(0)INIT(
             10106            '~513CHARSET')/**/ ;
      643    10108        %VLP_NAME (FPTN=A524VLP,STCLASS=CONSTANT,NAME='~524CHARSET');
             10109        %LSET LISTDIR='0'B;
             10133    1   DCL 1 A524VLP CONSTANT,2 L# UBIN(9)INIT(11)/**/ UNAL,2 NAME# CHAR(0)INIT(
             10133            '~524CHARSET')/**/ ;
      644    10135        %VLP_NAME (FPTN=A3500VLP,STCLASS=CONSTANT,NAME='~3500CHARSET');
             10136        %LSET LISTDIR='0'B;
             10160    1   DCL 1 A3500VLP CONSTANT,2 L# UBIN(9)INIT(12)/**/ UNAL,2 NAME# CHAR(0)INIT(
             10160            '~3500CHARSET')/**/ ;
      645    10162        %VLP_NAME (FPTN=A3513VLP,STCLASS=CONSTANT,NAME='~3513CHARSET');
             10163        %LSET LISTDIR='0'B;
             10187    1   DCL 1 A3513VLP CONSTANT,2 L# UBIN(9)INIT(12)/**/ UNAL,2 NAME# CHAR(0)INIT(
PL6.E3A0      #002=ASC$BUILD_CHARSET File=ASB$BUILD_DEFAULT_FILES.:E05TSI        TUE 07/29/97 08:57 Page:128
             10187            '~3513CHARSET')/**/ ;
      646    10189        %VLP_NAME (FPTN=A3524VLP,STCLASS=CONSTANT,NAME='~3524CHARSET');
             10190        %LSET LISTDIR='0'B;
             10214    1   DCL 1 A3524VLP CONSTANT,2 L# UBIN(9)INIT(12)/**/ UNAL,2 NAME# CHAR(0)INIT(
             10214            '~3524CHARSET')/**/ ;
      647    10216        %VLP_NAME (FPTN=A3600VLP,STCLASS=CONSTANT,NAME='~3600CHARSET');
             10217        %LSET LISTDIR='0'B;
             10241    1   DCL 1 A3600VLP CONSTANT,2 L# UBIN(9)INIT(12)/**/ UNAL,2 NAME# CHAR(0)INIT(
             10241            '~3600CHARSET')/**/ ;
      648    10243        %VLP_NAME (FPTN=AEBCIVLP,STCLASS=CONSTANT,NAME='~EBCICHARSET');
             10244        %LSET LISTDIR='0'B;
             10268    1   DCL 1 AEBCIVLP CONSTANT,2 L# UBIN(9)INIT(12)/**/ UNAL,2 NAME# CHAR(0)INIT(
             10268            '~EBCICHARSET')/**/ ;
      649    10270        %VLP_NAME (FPTN=AEBCOVLP,STCLASS=CONSTANT,NAME='~EBCOCHARSET');
             10271        %LSET LISTDIR='0'B;
             10295    1   DCL 1 AEBCOVLP CONSTANT,2 L# UBIN(9)INIT(12)/**/ UNAL,2 NAME# CHAR(0)INIT(
             10295            '~EBCOCHARSET')/**/ ;
      650    10297        %VLP_NAME (FPTN=AXDSIVLP,STCLASS=CONSTANT,NAME='~XDSICHARSET');
             10298        %LSET LISTDIR='0'B;
             10322    1   DCL 1 AXDSIVLP CONSTANT,2 L# UBIN(9)INIT(12)/**/ UNAL,2 NAME# CHAR(0)INIT(
             10322            '~XDSICHARSET')/**/ ;
      651    10324        %VLP_NAME (FPTN=AXDSOVLP,STCLASS=CONSTANT,NAME='~XDSOCHARSET');
             10325        %LSET LISTDIR='0'B;
             10349    1   DCL 1 AXDSOVLP CONSTANT,2 L# UBIN(9)INIT(12)/**/ UNAL,2 NAME# CHAR(0)INIT(
             10349            '~XDSOCHARSET')/**/ ;
      652    10351        %VLP_NAME (FPTN=ASDS7VLP,STCLASS=CONSTANT,NAME='~SDS7CHARSET');
             10352        %LSET LISTDIR='0'B;
             10376    1   DCL 1 ASDS7VLP CONSTANT,2 L# UBIN(9)INIT(12)/**/ UNAL,2 NAME# CHAR(0)INIT(
             10376            '~SDS7CHARSET')/**/ ;
      653    10378        %VLP_NAME (FPTN=ANONEVLP,STCLASS=CONSTANT,NAME='~NONECHARSET');
             10379        %LSET LISTDIR='0'B;
             10403    1   DCL 1 ANONEVLP CONSTANT,2 L# UBIN(9)INIT(12)/**/ UNAL,2 NAME# CHAR(0)INIT(
             10403            '~NONECHARSET')/**/ ;
      654    10405        %PLIST;
      655    10406    1   CALL ASF$OPEN_FORM_CR

  10406  3 000002   000002 631400 xsym               EPPR1   B_VECTNIL+2
PL6.E3A0      #002=ASC$BUILD_CHARSET File=ASB$BUILD_DEFAULT_FILES.:E05TSI        TUE 07/29/97 08:57 Page:129
         3 000003   000000 701000 xent               TSX1    ASF$OPEN_FORM_CR
         3 000004   000006 702000 3                  TSX2    s:10408
         3 000005   000010 710000 3                  TRA     s:10413

      656    10407    2   WHENALTRETURN DO;

      657    10408    2      CALL M$MERC;

  10408  3 000006   010007 713400                    CLIMB   4103
         3 000007   000000 401760                    pmme    nvectors=0

      658    10409    2      END;

      659    10410        /*
      660    10411                 Here is the ASC64 record
      661    10412        */
      662    10413    1   PTR$ = ADDR (ASC64);

  10413  3 000010   000000 236000 4                  LDQ     0
         3 000011   200003 756100                    STQ     PTR$,,AUTO

      663    10414    1   BOUND = SIZEC(ASC64);

  10414  3 000012   000370 235007                    LDA     248,DL
         3 000013   200004 755100                    STA     BOUND,,AUTO

      664    10415    1   CALL ASF$WRITE_FORM(ASC64VLP,PTR$,BOUND);

  10415  3 000014   200004 630500                    EPPR0   BOUND,,AUTO
         3 000015   200010 450500                    STP0    BOUND+4,,AUTO
         3 000016   200003 631500                    EPPR1   PTR$,,AUTO
         3 000017   200007 451500                    STP1    BOUND+3,,AUTO
         3 000020   000001 236000 4                  LDQ     1
         3 000021   200006 756100                    STQ     BOUND+2,,AUTO
         3 000022   200006 630500                    EPPR0   BOUND+2,,AUTO
         3 000023   000021 631400 xsym               EPPR1   B_VECTNIL+17
         3 000024   000000 701000 xent               TSX1    ASF$WRITE_FORM
PL6.E3A0      #002=ASC$BUILD_CHARSET File=ASB$BUILD_DEFAULT_FILES.:E05TSI        TUE 07/29/97 08:57 Page:130
         3 000025   000000 011000                    NOP     0

      665    10416        /*
      666    10417                 And here is the ASC95 record
      667    10418        */
      668    10419    1   PTR$ = ADDR (ASC95);

  10419  3 000026   000002 236000 4                  LDQ     2
         3 000027   200003 756100                    STQ     PTR$,,AUTO

      669    10420    1   BOUND = SIZEC (ASC95);

  10420  3 000030   000370 235007                    LDA     248,DL
         3 000031   200004 755100                    STA     BOUND,,AUTO

      670    10421    1   CALL ASF$WRITE_FORM (ASC95VLP,PTR$,BOUND);

  10421  3 000032   200004 630500                    EPPR0   BOUND,,AUTO
         3 000033   200010 450500                    STP0    BOUND+4,,AUTO
         3 000034   200003 631500                    EPPR1   PTR$,,AUTO
         3 000035   200007 451500                    STP1    BOUND+3,,AUTO
         3 000036   000003 236000 4                  LDQ     3
         3 000037   200006 756100                    STQ     BOUND+2,,AUTO
         3 000040   200006 630500                    EPPR0   BOUND+2,,AUTO
         3 000041   000021 631400 xsym               EPPR1   B_VECTNIL+17
         3 000042   000000 701000 xent               TSX1    ASF$WRITE_FORM
         3 000043   000000 011000                    NOP     0

      671    10422        /*
      672    10423                 Here is the aplbf record
      673    10424        */
      674    10425    1   PTR$ = ADDR (APLBF);

  10425  3 000044   000004 236000 4                  LDQ     4
         3 000045   200003 756100                    STQ     PTR$,,AUTO

      675    10426    1   BOUND = SIZEC (APLBF);
PL6.E3A0      #002=ASC$BUILD_CHARSET File=ASB$BUILD_DEFAULT_FILES.:E05TSI        TUE 07/29/97 08:57 Page:131

  10426  3 000046   000370 235007                    LDA     248,DL
         3 000047   200004 755100                    STA     BOUND,,AUTO

      676    10427    1   CALL ASF$WRITE_FORM (APLBFVLP,PTR$,BOUND);

  10427  3 000050   200004 630500                    EPPR0   BOUND,,AUTO
         3 000051   200010 450500                    STP0    BOUND+4,,AUTO
         3 000052   200003 631500                    EPPR1   PTR$,,AUTO
         3 000053   200007 451500                    STP1    BOUND+3,,AUTO
         3 000054   000005 236000 4                  LDQ     5
         3 000055   200006 756100                    STQ     BOUND+2,,AUTO
         3 000056   200006 630500                    EPPR0   BOUND+2,,AUTO
         3 000057   000021 631400 xsym               EPPR1   B_VECTNIL+17
         3 000060   000000 701000 xent               TSX1    ASF$WRITE_FORM
         3 000061   000000 011000                    NOP     0

      677    10428        /*
      678    10429                 And here is the aplbp record
      679    10430        */
      680    10431    1   PTR$ = ADDR (APLBP);

  10431  3 000062   000006 236000 4                  LDQ     6
         3 000063   200003 756100                    STQ     PTR$,,AUTO

      681    10432    1   BOUND = SIZEC (APLBP);

  10432  3 000064   000370 235007                    LDA     248,DL
         3 000065   200004 755100                    STA     BOUND,,AUTO

      682    10433    1   CALL ASF$WRITE_FORM (APLBPVLP,PTR$,BOUND);

  10433  3 000066   200004 630500                    EPPR0   BOUND,,AUTO
         3 000067   200010 450500                    STP0    BOUND+4,,AUTO
         3 000070   200003 631500                    EPPR1   PTR$,,AUTO
         3 000071   200007 451500                    STP1    BOUND+3,,AUTO
         3 000072   000007 236000 4                  LDQ     7
PL6.E3A0      #002=ASC$BUILD_CHARSET File=ASB$BUILD_DEFAULT_FILES.:E05TSI        TUE 07/29/97 08:57 Page:132
         3 000073   200006 756100                    STQ     BOUND+2,,AUTO
         3 000074   200006 630500                    EPPR0   BOUND+2,,AUTO
         3 000075   000021 631400 xsym               EPPR1   B_VECTNIL+17
         3 000076   000000 701000 xent               TSX1    ASF$WRITE_FORM
         3 000077   000000 011000                    NOP     0

      683    10434        /*
      684    10435                 Here is the apltf record
      685    10436        */
      686    10437    1   PTR$ = ADDR (APLBF);

  10437  3 000100   000004 236000 4                  LDQ     4
         3 000101   200003 756100                    STQ     PTR$,,AUTO

      687    10438    1   BOUND = SIZEC (APLBF);

  10438  3 000102   000370 235007                    LDA     248,DL
         3 000103   200004 755100                    STA     BOUND,,AUTO

      688    10439    1   CALL ASF$WRITE_FORM (APLTFVLP,PTR$,BOUND);

  10439  3 000104   200004 630500                    EPPR0   BOUND,,AUTO
         3 000105   200010 450500                    STP0    BOUND+4,,AUTO
         3 000106   200003 631500                    EPPR1   PTR$,,AUTO
         3 000107   200007 451500                    STP1    BOUND+3,,AUTO
         3 000110   000010 236000 4                  LDQ     8
         3 000111   200006 756100                    STQ     BOUND+2,,AUTO
         3 000112   200006 630500                    EPPR0   BOUND+2,,AUTO
         3 000113   000021 631400 xsym               EPPR1   B_VECTNIL+17
         3 000114   000000 701000 xent               TSX1    ASF$WRITE_FORM
         3 000115   000000 011000                    NOP     0

      689    10440        /*
      690    10441                 And here is the apltp record
      691    10442        */
      692    10443    1   PTR$ = ADDR (APLBP);

PL6.E3A0      #002=ASC$BUILD_CHARSET File=ASB$BUILD_DEFAULT_FILES.:E05TSI        TUE 07/29/97 08:57 Page:133
  10443  3 000116   000006 236000 4                  LDQ     6
         3 000117   200003 756100                    STQ     PTR$,,AUTO

      693    10444    1   BOUND = SIZEC (APLBP);

  10444  3 000120   000370 235007                    LDA     248,DL
         3 000121   200004 755100                    STA     BOUND,,AUTO

      694    10445    1   CALL ASF$WRITE_FORM (APLTPVLP,PTR$,BOUND);

  10445  3 000122   200004 630500                    EPPR0   BOUND,,AUTO
         3 000123   200010 450500                    STP0    BOUND+4,,AUTO
         3 000124   200003 631500                    EPPR1   PTR$,,AUTO
         3 000125   200007 451500                    STP1    BOUND+3,,AUTO
         3 000126   000011 236000 4                  LDQ     9
         3 000127   200006 756100                    STQ     BOUND+2,,AUTO
         3 000130   200006 630500                    EPPR0   BOUND+2,,AUTO
         3 000131   000021 631400 xsym               EPPR1   B_VECTNIL+17
         3 000132   000000 701000 xent               TSX1    ASF$WRITE_FORM
         3 000133   000000 011000                    NOP     0

      695    10446        /*
      696    10447                 Here is the ASC8 record
      697    10448        */
      698    10449    1   PTR$ = ADDR (ASC8);

  10449  3 000134   000012 236000 4                  LDQ     10
         3 000135   200003 756100                    STQ     PTR$,,AUTO

      699    10450    1   BOUND = SIZEC (ASC8);

  10450  3 000136   000370 235007                    LDA     248,DL
         3 000137   200004 755100                    STA     BOUND,,AUTO

      700    10451    1   CALL ASF$WRITE_FORM (ASC8VLP,PTR$,BOUND);

  10451  3 000140   200004 630500                    EPPR0   BOUND,,AUTO
PL6.E3A0      #002=ASC$BUILD_CHARSET File=ASB$BUILD_DEFAULT_FILES.:E05TSI        TUE 07/29/97 08:57 Page:134
         3 000141   200010 450500                    STP0    BOUND+4,,AUTO
         3 000142   200003 631500                    EPPR1   PTR$,,AUTO
         3 000143   200007 451500                    STP1    BOUND+3,,AUTO
         3 000144   000013 236000 4                  LDQ     11
         3 000145   200006 756100                    STQ     BOUND+2,,AUTO
         3 000146   200006 630500                    EPPR0   BOUND+2,,AUTO
         3 000147   000021 631400 xsym               EPPR1   B_VECTNIL+17
         3 000150   000000 701000 xent               TSX1    ASF$WRITE_FORM
         3 000151   000000 011000                    NOP     0

      701    10452        /*
      702    10453                 And here is the ASC64B record
      703    10454        */
      704    10455    1   PTR$ = ADDR (ASC64);

  10455  3 000152   000000 236000 4                  LDQ     0
         3 000153   200003 756100                    STQ     PTR$,,AUTO

      705    10456    1   BOUND = SIZEC (ASC64);

  10456  3 000154   000370 235007                    LDA     248,DL
         3 000155   200004 755100                    STA     BOUND,,AUTO

      706    10457    1   CALL ASF$WRITE_FORM (ASC64BVLP,PTR$,BOUND);

  10457  3 000156   200004 630500                    EPPR0   BOUND,,AUTO
         3 000157   200010 450500                    STP0    BOUND+4,,AUTO
         3 000160   200003 631500                    EPPR1   PTR$,,AUTO
         3 000161   200007 451500                    STP1    BOUND+3,,AUTO
         3 000162   000014 236000 4                  LDQ     12
         3 000163   200006 756100                    STQ     BOUND+2,,AUTO
         3 000164   200006 630500                    EPPR0   BOUND+2,,AUTO
         3 000165   000021 631400 xsym               EPPR1   B_VECTNIL+17
         3 000166   000000 701000 xent               TSX1    ASF$WRITE_FORM
         3 000167   000000 011000                    NOP     0

      707    10458        /*
PL6.E3A0      #002=ASC$BUILD_CHARSET File=ASB$BUILD_DEFAULT_FILES.:E05TSI        TUE 07/29/97 08:57 Page:135
      708    10459                 Here is the ASC64C record
      709    10460        */
      710    10461    1   PTR$ = ADDR (ASC64);

  10461  3 000170   000000 236000 4                  LDQ     0
         3 000171   200003 756100                    STQ     PTR$,,AUTO

      711    10462    1   BOUND = SIZEC (ASC64);

  10462  3 000172   000370 235007                    LDA     248,DL
         3 000173   200004 755100                    STA     BOUND,,AUTO

      712    10463    1   CALL ASF$WRITE_FORM (ASC64CVLP,PTR$,BOUND);

  10463  3 000174   200004 630500                    EPPR0   BOUND,,AUTO
         3 000175   200010 450500                    STP0    BOUND+4,,AUTO
         3 000176   200003 631500                    EPPR1   PTR$,,AUTO
         3 000177   200007 451500                    STP1    BOUND+3,,AUTO
         3 000200   000015 236000 4                  LDQ     13
         3 000201   200006 756100                    STQ     BOUND+2,,AUTO
         3 000202   200006 630500                    EPPR0   BOUND+2,,AUTO
         3 000203   000021 631400 xsym               EPPR1   B_VECTNIL+17
         3 000204   000000 701000 xent               TSX1    ASF$WRITE_FORM
         3 000205   000000 011000                    NOP     0

      713    10464        /*
      714    10465                 And here is the ASC95M record
      715    10466        */
      716    10467    1   PTR$ = ADDR (ASC95);

  10467  3 000206   000002 236000 4                  LDQ     2
         3 000207   200003 756100                    STQ     PTR$,,AUTO

      717    10468    1   BOUND = SIZEC (ASC95);

  10468  3 000210   000370 235007                    LDA     248,DL
         3 000211   200004 755100                    STA     BOUND,,AUTO
PL6.E3A0      #002=ASC$BUILD_CHARSET File=ASB$BUILD_DEFAULT_FILES.:E05TSI        TUE 07/29/97 08:57 Page:136

      718    10469    1   CALL ASF$WRITE_FORM (ASC95MVLP,PTR$,BOUND);

  10469  3 000212   200004 630500                    EPPR0   BOUND,,AUTO
         3 000213   200010 450500                    STP0    BOUND+4,,AUTO
         3 000214   200003 631500                    EPPR1   PTR$,,AUTO
         3 000215   200007 451500                    STP1    BOUND+3,,AUTO
         3 000216   000016 236000 4                  LDQ     14
         3 000217   200006 756100                    STQ     BOUND+2,,AUTO
         3 000220   200006 630500                    EPPR0   BOUND+2,,AUTO
         3 000221   000021 631400 xsym               EPPR1   B_VECTNIL+17
         3 000222   000000 701000 xent               TSX1    ASF$WRITE_FORM
         3 000223   000000 011000                    NOP     0

      719    10470        /*
      720    10471                 Here is the native record
      721    10472        */
      722    10473    1   PTR$ = ADDR (NATIVE);

  10473  3 000224   000017 236000 4                  LDQ     15
         3 000225   200003 756100                    STQ     PTR$,,AUTO

      723    10474    1   BOUND = SIZEC (NATIVE);

  10474  3 000226   000370 235007                    LDA     248,DL
         3 000227   200004 755100                    STA     BOUND,,AUTO

      724    10475    1   CALL ASF$WRITE_FORM (NATIVEVLP,PTR$,BOUND);

  10475  3 000230   200004 630500                    EPPR0   BOUND,,AUTO
         3 000231   200010 450500                    STP0    BOUND+4,,AUTO
         3 000232   200003 631500                    EPPR1   PTR$,,AUTO
         3 000233   200007 451500                    STP1    BOUND+3,,AUTO
         3 000234   000020 236000 4                  LDQ     16
         3 000235   200006 756100                    STQ     BOUND+2,,AUTO
         3 000236   200006 630500                    EPPR0   BOUND+2,,AUTO
         3 000237   000021 631400 xsym               EPPR1   B_VECTNIL+17
PL6.E3A0      #002=ASC$BUILD_CHARSET File=ASB$BUILD_DEFAULT_FILES.:E05TSI        TUE 07/29/97 08:57 Page:137
         3 000240   000000 701000 xent               TSX1    ASF$WRITE_FORM
         3 000241   000000 011000                    NOP     0

      725    10476        /*
      726    10477                 And here is the 500 record
      727    10478        */
      728    10479    1   PTR$ = ADDR (A500);

  10479  3 000242   000021 236000 4                  LDQ     17
         3 000243   200003 756100                    STQ     PTR$,,AUTO

      729    10480    1   BOUND = SIZEC (A500);

  10480  3 000244   000370 235007                    LDA     248,DL
         3 000245   200004 755100                    STA     BOUND,,AUTO

      730    10481    1   CALL ASF$WRITE_FORM (A500VLP,PTR$,BOUND);

  10481  3 000246   200004 630500                    EPPR0   BOUND,,AUTO
         3 000247   200010 450500                    STP0    BOUND+4,,AUTO
         3 000250   200003 631500                    EPPR1   PTR$,,AUTO
         3 000251   200007 451500                    STP1    BOUND+3,,AUTO
         3 000252   000022 236000 4                  LDQ     18
         3 000253   200006 756100                    STQ     BOUND+2,,AUTO
         3 000254   200006 630500                    EPPR0   BOUND+2,,AUTO
         3 000255   000021 631400 xsym               EPPR1   B_VECTNIL+17
         3 000256   000000 701000 xent               TSX1    ASF$WRITE_FORM
         3 000257   000000 011000                    NOP     0

      731    10482        /*
      732    10483                 Here is the 500LC record
      733    10484        */
      734    10485    1   PTR$ = ADDR (A500LC);

  10485  3 000260   000023 236000 4                  LDQ     19
         3 000261   200003 756100                    STQ     PTR$,,AUTO

PL6.E3A0      #002=ASC$BUILD_CHARSET File=ASB$BUILD_DEFAULT_FILES.:E05TSI        TUE 07/29/97 08:57 Page:138
      735    10486    1   BOUND = SIZEC (A500LC);

  10486  3 000262   000370 235007                    LDA     248,DL
         3 000263   200004 755100                    STA     BOUND,,AUTO

      736    10487    1   CALL ASF$WRITE_FORM (A500LCVLP,PTR$,BOUND);

  10487  3 000264   200004 630500                    EPPR0   BOUND,,AUTO
         3 000265   200010 450500                    STP0    BOUND+4,,AUTO
         3 000266   200003 631500                    EPPR1   PTR$,,AUTO
         3 000267   200007 451500                    STP1    BOUND+3,,AUTO
         3 000270   000024 236000 4                  LDQ     20
         3 000271   200006 756100                    STQ     BOUND+2,,AUTO
         3 000272   200006 630500                    EPPR0   BOUND+2,,AUTO
         3 000273   000021 631400 xsym               EPPR1   B_VECTNIL+17
         3 000274   000000 701000 xent               TSX1    ASF$WRITE_FORM
         3 000275   000000 011000                    NOP     0

      737    10488        /*
      738    10489                 And here is the 600 record
      739    10490        */
      740    10491    1   PTR$ = ADDR (A600);

  10491  3 000276   000025 236000 4                  LDQ     21
         3 000277   200003 756100                    STQ     PTR$,,AUTO

      741    10492    1   BOUND = SIZEC (A600);

  10492  3 000300   000370 235007                    LDA     248,DL
         3 000301   200004 755100                    STA     BOUND,,AUTO

      742    10493    1   CALL ASF$WRITE_FORM (A600VLP,PTR$,BOUND);

  10493  3 000302   200004 630500                    EPPR0   BOUND,,AUTO
         3 000303   200010 450500                    STP0    BOUND+4,,AUTO
         3 000304   200003 631500                    EPPR1   PTR$,,AUTO
         3 000305   200007 451500                    STP1    BOUND+3,,AUTO
PL6.E3A0      #002=ASC$BUILD_CHARSET File=ASB$BUILD_DEFAULT_FILES.:E05TSI        TUE 07/29/97 08:57 Page:139
         3 000306   000026 236000 4                  LDQ     22
         3 000307   200006 756100                    STQ     BOUND+2,,AUTO
         3 000310   200006 630500                    EPPR0   BOUND+2,,AUTO
         3 000311   000021 631400 xsym               EPPR1   B_VECTNIL+17
         3 000312   000000 701000 xent               TSX1    ASF$WRITE_FORM
         3 000313   000000 011000                    NOP     0

      743    10494        /*
      744    10495                 And here is the 513 record
      745    10496        */
      746    10497    1   PTR$ = ADDR (A500LC);

  10497  3 000314   000023 236000 4                  LDQ     19
         3 000315   200003 756100                    STQ     PTR$,,AUTO

      747    10498    1   BOUND = SIZEC (A500LC);

  10498  3 000316   000370 235007                    LDA     248,DL
         3 000317   200004 755100                    STA     BOUND,,AUTO

      748    10499    1   CALL ASF$WRITE_FORM (A513VLP,PTR$,BOUND);

  10499  3 000320   200004 630500                    EPPR0   BOUND,,AUTO
         3 000321   200010 450500                    STP0    BOUND+4,,AUTO
         3 000322   200003 631500                    EPPR1   PTR$,,AUTO
         3 000323   200007 451500                    STP1    BOUND+3,,AUTO
         3 000324   000027 236000 4                  LDQ     23
         3 000325   200006 756100                    STQ     BOUND+2,,AUTO
         3 000326   200006 630500                    EPPR0   BOUND+2,,AUTO
         3 000327   000021 631400 xsym               EPPR1   B_VECTNIL+17
         3 000330   000000 701000 xent               TSX1    ASF$WRITE_FORM
         3 000331   000000 011000                    NOP     0

      749    10500        /*
      750    10501                 Here is the 524 record
      751    10502        */
      752    10503    1   PTR$ = ADDR (A500);
PL6.E3A0      #002=ASC$BUILD_CHARSET File=ASB$BUILD_DEFAULT_FILES.:E05TSI        TUE 07/29/97 08:57 Page:140

  10503  3 000332   000021 236000 4                  LDQ     17
         3 000333   200003 756100                    STQ     PTR$,,AUTO

      753    10504    1   BOUND = SIZEC (A500);

  10504  3 000334   000370 235007                    LDA     248,DL
         3 000335   200004 755100                    STA     BOUND,,AUTO

      754    10505    1   CALL ASF$WRITE_FORM (A524VLP,PTR$,BOUND);

  10505  3 000336   200004 630500                    EPPR0   BOUND,,AUTO
         3 000337   200010 450500                    STP0    BOUND+4,,AUTO
         3 000340   200003 631500                    EPPR1   PTR$,,AUTO
         3 000341   200007 451500                    STP1    BOUND+3,,AUTO
         3 000342   000030 236000 4                  LDQ     24
         3 000343   200006 756100                    STQ     BOUND+2,,AUTO
         3 000344   200006 630500                    EPPR0   BOUND+2,,AUTO
         3 000345   000021 631400 xsym               EPPR1   B_VECTNIL+17
         3 000346   000000 701000 xent               TSX1    ASF$WRITE_FORM
         3 000347   000000 011000                    NOP     0

      755    10506        /*
      756    10507                 And here is the 3500 record
      757    10508        */
      758    10509    1   PTR$ = ADDR (A500);

  10509  3 000350   000021 236000 4                  LDQ     17
         3 000351   200003 756100                    STQ     PTR$,,AUTO

      759    10510    1   BOUND = SIZEC (A500);

  10510  3 000352   000370 235007                    LDA     248,DL
         3 000353   200004 755100                    STA     BOUND,,AUTO

      760    10511    1   CALL ASF$WRITE_FORM (A3500VLP,PTR$,BOUND);

PL6.E3A0      #002=ASC$BUILD_CHARSET File=ASB$BUILD_DEFAULT_FILES.:E05TSI        TUE 07/29/97 08:57 Page:141
  10511  3 000354   200004 630500                    EPPR0   BOUND,,AUTO
         3 000355   200010 450500                    STP0    BOUND+4,,AUTO
         3 000356   200003 631500                    EPPR1   PTR$,,AUTO
         3 000357   200007 451500                    STP1    BOUND+3,,AUTO
         3 000360   000031 236000 4                  LDQ     25
         3 000361   200006 756100                    STQ     BOUND+2,,AUTO
         3 000362   200006 630500                    EPPR0   BOUND+2,,AUTO
         3 000363   000021 631400 xsym               EPPR1   B_VECTNIL+17
         3 000364   000000 701000 xent               TSX1    ASF$WRITE_FORM
         3 000365   000000 011000                    NOP     0

      761    10512        /*
      762    10513                 Here is the 3513 record
      763    10514        */
      764    10515    1   PTR$ = ADDR (A500);

  10515  3 000366   000021 236000 4                  LDQ     17
         3 000367   200003 756100                    STQ     PTR$,,AUTO

      765    10516    1   BOUND = SIZEC (A500);

  10516  3 000370   000370 235007                    LDA     248,DL
         3 000371   200004 755100                    STA     BOUND,,AUTO

      766    10517    1   CALL ASF$WRITE_FORM (A3513VLP,PTR$,BOUND);

  10517  3 000372   200004 630500                    EPPR0   BOUND,,AUTO
         3 000373   200010 450500                    STP0    BOUND+4,,AUTO
         3 000374   200003 631500                    EPPR1   PTR$,,AUTO
         3 000375   200007 451500                    STP1    BOUND+3,,AUTO
         3 000376   000032 236000 4                  LDQ     26
         3 000377   200006 756100                    STQ     BOUND+2,,AUTO
         3 000400   200006 630500                    EPPR0   BOUND+2,,AUTO
         3 000401   000021 631400 xsym               EPPR1   B_VECTNIL+17
         3 000402   000000 701000 xent               TSX1    ASF$WRITE_FORM
         3 000403   000000 011000                    NOP     0

PL6.E3A0      #002=ASC$BUILD_CHARSET File=ASB$BUILD_DEFAULT_FILES.:E05TSI        TUE 07/29/97 08:57 Page:142
      767    10518        /*
      768    10519                 And here is the 3524 record
      769    10520        */
      770    10521    1   PTR$ = ADDR (A500);

  10521  3 000404   000021 236000 4                  LDQ     17
         3 000405   200003 756100                    STQ     PTR$,,AUTO

      771    10522    1   BOUND = SIZEC (A500);

  10522  3 000406   000370 235007                    LDA     248,DL
         3 000407   200004 755100                    STA     BOUND,,AUTO

      772    10523    1   CALL ASF$WRITE_FORM (A3524VLP,PTR$,BOUND);

  10523  3 000410   200004 630500                    EPPR0   BOUND,,AUTO
         3 000411   200010 450500                    STP0    BOUND+4,,AUTO
         3 000412   200003 631500                    EPPR1   PTR$,,AUTO
         3 000413   200007 451500                    STP1    BOUND+3,,AUTO
         3 000414   000033 236000 4                  LDQ     27
         3 000415   200006 756100                    STQ     BOUND+2,,AUTO
         3 000416   200006 630500                    EPPR0   BOUND+2,,AUTO
         3 000417   000021 631400 xsym               EPPR1   B_VECTNIL+17
         3 000420   000000 701000 xent               TSX1    ASF$WRITE_FORM
         3 000421   000000 011000                    NOP     0

      773    10524        /*
      774    10525                 Here is the 3600 record
      775    10526        */
      776    10527    1   PTR$ = ADDR (A600);

  10527  3 000422   000025 236000 4                  LDQ     21
         3 000423   200003 756100                    STQ     PTR$,,AUTO

      777    10528    1   BOUND = SIZEC (A600);

  10528  3 000424   000370 235007                    LDA     248,DL
PL6.E3A0      #002=ASC$BUILD_CHARSET File=ASB$BUILD_DEFAULT_FILES.:E05TSI        TUE 07/29/97 08:57 Page:143
         3 000425   200004 755100                    STA     BOUND,,AUTO

      778    10529    1   CALL ASF$WRITE_FORM (A3600VLP,PTR$,BOUND);

  10529  3 000426   200004 630500                    EPPR0   BOUND,,AUTO
         3 000427   200010 450500                    STP0    BOUND+4,,AUTO
         3 000430   200003 631500                    EPPR1   PTR$,,AUTO
         3 000431   200007 451500                    STP1    BOUND+3,,AUTO
         3 000432   000034 236000 4                  LDQ     28
         3 000433   200006 756100                    STQ     BOUND+2,,AUTO
         3 000434   200006 630500                    EPPR0   BOUND+2,,AUTO
         3 000435   000021 631400 xsym               EPPR1   B_VECTNIL+17
         3 000436   000000 701000 xent               TSX1    ASF$WRITE_FORM
         3 000437   000000 011000                    NOP     0

      779    10530        /*
      780    10531                 Here is the 3231 record
      781    10532        */
      782    10533    1   PTR$ = ADDR (A3231);

  10533  3 000440   000035 236000 4                  LDQ     29
         3 000441   200003 756100                    STQ     PTR$,,AUTO

      783    10534    1   BOUND = SIZEC (A3231);

  10534  3 000442   000370 235007                    LDA     248,DL
         3 000443   200004 755100                    STA     BOUND,,AUTO

      784    10535    1   CALL ASF$WRITE_FORM (A3231VLP,PTR$,BOUND);

  10535  3 000444   200004 630500                    EPPR0   BOUND,,AUTO
         3 000445   200010 450500                    STP0    BOUND+4,,AUTO
         3 000446   200003 631500                    EPPR1   PTR$,,AUTO
         3 000447   200007 451500                    STP1    BOUND+3,,AUTO
         3 000450   000036 236000 4                  LDQ     30
         3 000451   200006 756100                    STQ     BOUND+2,,AUTO
         3 000452   200006 630500                    EPPR0   BOUND+2,,AUTO
PL6.E3A0      #002=ASC$BUILD_CHARSET File=ASB$BUILD_DEFAULT_FILES.:E05TSI        TUE 07/29/97 08:57 Page:144
         3 000453   000021 631400 xsym               EPPR1   B_VECTNIL+17
         3 000454   000000 701000 xent               TSX1    ASF$WRITE_FORM
         3 000455   000000 011000                    NOP     0

      785    10536        /*
      786    10537                 And here is the 3300 record
      787    10538        */
      788    10539    1   PTR$ = ADDR (A3300);

  10539  3 000456   000037 236000 4                  LDQ     31
         3 000457   200003 756100                    STQ     PTR$,,AUTO

      789    10540    1   BOUND = SIZEC (A3300);

  10540  3 000460   000370 235007                    LDA     248,DL
         3 000461   200004 755100                    STA     BOUND,,AUTO

      790    10541    1   CALL ASF$WRITE_FORM (A3300VLP,PTR$,BOUND);

  10541  3 000462   200004 630500                    EPPR0   BOUND,,AUTO
         3 000463   200010 450500                    STP0    BOUND+4,,AUTO
         3 000464   200003 631500                    EPPR1   PTR$,,AUTO
         3 000465   200007 451500                    STP1    BOUND+3,,AUTO
         3 000466   000040 236000 4                  LDQ     32
         3 000467   200006 756100                    STQ     BOUND+2,,AUTO
         3 000470   200006 630500                    EPPR0   BOUND+2,,AUTO
         3 000471   000021 631400 xsym               EPPR1   B_VECTNIL+17
         3 000472   000000 701000 xent               TSX1    ASF$WRITE_FORM
         3 000473   000000 011000                    NOP     0

      791    10542        /*
      792    10543                 Here is the EBCI record
      793    10544        */
      794    10545    1   PTR$ = ADDR (EBCI);

  10545  3 000474   000041 236000 4                  LDQ     33
         3 000475   200003 756100                    STQ     PTR$,,AUTO
PL6.E3A0      #002=ASC$BUILD_CHARSET File=ASB$BUILD_DEFAULT_FILES.:E05TSI        TUE 07/29/97 08:57 Page:145

      795    10546    1   BOUND = SIZEC (EBCI);

  10546  3 000476   000370 235007                    LDA     248,DL
         3 000477   200004 755100                    STA     BOUND,,AUTO

      796    10547    1   CALL ASF$WRITE_FORM (AEBCIVLP,PTR$,BOUND);

  10547  3 000500   200004 630500                    EPPR0   BOUND,,AUTO
         3 000501   200010 450500                    STP0    BOUND+4,,AUTO
         3 000502   200003 631500                    EPPR1   PTR$,,AUTO
         3 000503   200007 451500                    STP1    BOUND+3,,AUTO
         3 000504   000042 236000 4                  LDQ     34
         3 000505   200006 756100                    STQ     BOUND+2,,AUTO
         3 000506   200006 630500                    EPPR0   BOUND+2,,AUTO
         3 000507   000021 631400 xsym               EPPR1   B_VECTNIL+17
         3 000510   000000 701000 xent               TSX1    ASF$WRITE_FORM
         3 000511   000000 011000                    NOP     0

      797    10548        /*
      798    10549                 Here is the EBCO record
      799    10550        */
      800    10551    1   PTR$ = ADDR (EBCO);

  10551  3 000512   000043 236000 4                  LDQ     35
         3 000513   200003 756100                    STQ     PTR$,,AUTO

      801    10552    1   BOUND = SIZEC (EBCO);

  10552  3 000514   000370 235007                    LDA     248,DL
         3 000515   200004 755100                    STA     BOUND,,AUTO

      802    10553    1   CALL ASF$WRITE_FORM (AEBCOVLP,PTR$,BOUND);

  10553  3 000516   200004 630500                    EPPR0   BOUND,,AUTO
         3 000517   200010 450500                    STP0    BOUND+4,,AUTO
         3 000520   200003 631500                    EPPR1   PTR$,,AUTO
PL6.E3A0      #002=ASC$BUILD_CHARSET File=ASB$BUILD_DEFAULT_FILES.:E05TSI        TUE 07/29/97 08:57 Page:146
         3 000521   200007 451500                    STP1    BOUND+3,,AUTO
         3 000522   000044 236000 4                  LDQ     36
         3 000523   200006 756100                    STQ     BOUND+2,,AUTO
         3 000524   200006 630500                    EPPR0   BOUND+2,,AUTO
         3 000525   000021 631400 xsym               EPPR1   B_VECTNIL+17
         3 000526   000000 701000 xent               TSX1    ASF$WRITE_FORM
         3 000527   000000 011000                    NOP     0

      803    10554        /*
      804    10555                 Here is the XDSI record
      805    10556        */
      806    10557    1   PTR$ = ADDR (XDSI);

  10557  3 000530   000045 236000 4                  LDQ     37
         3 000531   200003 756100                    STQ     PTR$,,AUTO

      807    10558    1   BOUND = SIZEC (XDSI);

  10558  3 000532   000370 235007                    LDA     248,DL
         3 000533   200004 755100                    STA     BOUND,,AUTO

      808    10559    1   CALL ASF$WRITE_FORM (AXDSIVLP,PTR$,BOUND);

  10559  3 000534   200004 630500                    EPPR0   BOUND,,AUTO
         3 000535   200010 450500                    STP0    BOUND+4,,AUTO
         3 000536   200003 631500                    EPPR1   PTR$,,AUTO
         3 000537   200007 451500                    STP1    BOUND+3,,AUTO
         3 000540   000046 236000 4                  LDQ     38
         3 000541   200006 756100                    STQ     BOUND+2,,AUTO
         3 000542   200006 630500                    EPPR0   BOUND+2,,AUTO
         3 000543   000021 631400 xsym               EPPR1   B_VECTNIL+17
         3 000544   000000 701000 xent               TSX1    ASF$WRITE_FORM
         3 000545   000000 011000                    NOP     0

      809    10560        /*
      810    10561                 Here is the XDSO record
      811    10562        */
PL6.E3A0      #002=ASC$BUILD_CHARSET File=ASB$BUILD_DEFAULT_FILES.:E05TSI        TUE 07/29/97 08:57 Page:147
      812    10563    1   PTR$ = ADDR (XDSO);

  10563  3 000546   000047 236000 4                  LDQ     39
         3 000547   200003 756100                    STQ     PTR$,,AUTO

      813    10564    1   BOUND = SIZEC (XDSO);

  10564  3 000550   000370 235007                    LDA     248,DL
         3 000551   200004 755100                    STA     BOUND,,AUTO

      814    10565    1   CALL ASF$WRITE_FORM (AXDSOVLP,PTR$,BOUND);

  10565  3 000552   200004 630500                    EPPR0   BOUND,,AUTO
         3 000553   200010 450500                    STP0    BOUND+4,,AUTO
         3 000554   200003 631500                    EPPR1   PTR$,,AUTO
         3 000555   200007 451500                    STP1    BOUND+3,,AUTO
         3 000556   000050 236000 4                  LDQ     40
         3 000557   200006 756100                    STQ     BOUND+2,,AUTO
         3 000560   200006 630500                    EPPR0   BOUND+2,,AUTO
         3 000561   000021 631400 xsym               EPPR1   B_VECTNIL+17
         3 000562   000000 701000 xent               TSX1    ASF$WRITE_FORM
         3 000563   000000 011000                    NOP     0

      815    10566        /*
      816    10567                 Here is the SDS7012 record
      817    10568        */
      818    10569    1   PTR$ = ADDR (SDS7012);

  10569  3 000564   000051 236000 4                  LDQ     41
         3 000565   200003 756100                    STQ     PTR$,,AUTO

      819    10570    1   BOUND = SIZEC (SDS7012);

  10570  3 000566   000370 235007                    LDA     248,DL
         3 000567   200004 755100                    STA     BOUND,,AUTO

      820    10571    1   CALL ASF$WRITE_FORM (ASDS7VLP,PTR$,BOUND);
PL6.E3A0      #002=ASC$BUILD_CHARSET File=ASB$BUILD_DEFAULT_FILES.:E05TSI        TUE 07/29/97 08:57 Page:148

  10571  3 000570   200004 630500                    EPPR0   BOUND,,AUTO
         3 000571   200010 450500                    STP0    BOUND+4,,AUTO
         3 000572   200003 631500                    EPPR1   PTR$,,AUTO
         3 000573   200007 451500                    STP1    BOUND+3,,AUTO
         3 000574   000052 236000 4                  LDQ     42
         3 000575   200006 756100                    STQ     BOUND+2,,AUTO
         3 000576   200006 630500                    EPPR0   BOUND+2,,AUTO
         3 000577   000021 631400 xsym               EPPR1   B_VECTNIL+17
         3 000600   000000 701000 xent               TSX1    ASF$WRITE_FORM
         3 000601   000000 011000                    NOP     0

      821    10572        /*
      822    10573                 Here is the NONE record
      823    10574        */
      824    10575    1   PTR$ = ADDR (NONE);

  10575  3 000602   000053 236000 4                  LDQ     43
         3 000603   200003 756100                    STQ     PTR$,,AUTO

      825    10576    1   BOUND = SIZEC (NONE);

  10576  3 000604   000370 235007                    LDA     248,DL
         3 000605   200004 755100                    STA     BOUND,,AUTO

      826    10577    1   CALL ASF$WRITE_FORM (ANONEVLP,PTR$,BOUND);

  10577  3 000606   200004 630500                    EPPR0   BOUND,,AUTO
         3 000607   200010 450500                    STP0    BOUND+4,,AUTO
         3 000610   200003 631500                    EPPR1   PTR$,,AUTO
         3 000611   200007 451500                    STP1    BOUND+3,,AUTO
         3 000612   000054 236000 4                  LDQ     44
         3 000613   200006 756100                    STQ     BOUND+2,,AUTO
         3 000614   200006 630500                    EPPR0   BOUND+2,,AUTO
         3 000615   000021 631400 xsym               EPPR1   B_VECTNIL+17
         3 000616   000000 701000 xent               TSX1    ASF$WRITE_FORM
         3 000617   000000 011000                    NOP     0
PL6.E3A0      #002=ASC$BUILD_CHARSET File=ASB$BUILD_DEFAULT_FILES.:E05TSI        TUE 07/29/97 08:57 Page:149

      827    10578    1   RETURN;

  10578  3 000620   000000 702200 xent               TSX2  ! X66_ARET
      828    10579    1   END ASC$BUILD_CHARSET;
      829    10580        %EOD;

PL6.E3A0      #002=ASC$BUILD_CHARSET File=ASB$BUILD_DEFAULT_FILES.:E05TSI        TUE 07/29/97 08:57 Page:150
--  Include file information  --

   FS_SUPER_C.:E05TOU  is referenced.
   AS_SUBS_C.:E05TOU  is referenced.
   CP_6_C.:E05TOU  is referenced.
   CP_6.:E05TOU  cannot be made into a system file and is referenced.
   AS_ENTRIES_M.:E05TOU  is referenced.
      No diagnostics issued in procedure ASC$BUILD_CHARSET.
PL6.E3A0      #002=ASC$BUILD_CHARSET File=ASB$BUILD_DEFAULT_FILES.:E05TSI        TUE 07/29/97 08:57 Page:151

 **** Variables and constants ****

  ****  Section 002 RoData ASC$BUILD_CHARSET

  ****  Scalars and arrays  ****
OctLoc.c.b A Datatyp(siz) R M Lvl/name                 OctLoc.c.b A Datatyp(siz) R M Lvl/name

  1154-0-0/w STRC(2232)  r     1 A3231                   2124-0-0/c STRC(117)   r     1 A3231VLP
  1056-0-0/w STRC(2232)  r     1 A3300                   2130-0-0/c STRC(117)   r     1 A3300VLP
  2142-0-0/c STRC(117)   r     1 A3500VLP                2146-0-0/c STRC(117)   r     1 A3513VLP
  2152-0-0/c STRC(117)   r     1 A3524VLP                2156-0-0/c STRC(117)   r     1 A3600VLP
   662-0-0/w STRC(2232)  r     1 A500                     760-0-0/w STRC(2232)  r     1 A500LC
  2115-0-0/c STRC(126)   r     1 A500LCVLP               2112-0-0/c STRC(108)   r     1 A500VLP
  2134-0-0/c STRC(108)   r     1 A513VLP                 2137-0-0/c STRC(108)   r     1 A524VLP
   466-0-0/w STRC(2232)  r     1 A600                    2121-0-0/c STRC(108)   r     1 A600VLP
  2162-0-0/c STRC(117)   r     1 AEBCIVLP                2166-0-0/c STRC(117)   r     1 AEBCOVLP
  2206-0-0/c STRC(117)   r     1 ANONEVLP                 174-0-0/w STRC(2232)  r     1 APLBF
  2046-0-0/c STRC(126)   r     1 APLBFVLP                 272-0-0/w STRC(2232)  r     1 APLBP
  2052-0-0/c STRC(126)   r     1 APLBPVLP                2056-0-0/c STRC(126)   r     1 APLTFVLP
  2062-0-0/c STRC(126)   r     1 APLTPVLP                   0-0-0/w STRC(2232)  r     1 ASC64
  2072-0-0/c STRC(135)   r     1 ASC64BVLP               2076-0-0/c STRC(135)   r     1 ASC64CVLP
  2036-0-0/c STRC(126)   r     1 ASC64VLP                 370-0-0/w STRC(2232)  r     1 ASC8
  2066-0-0/c STRC(117)   r     1 ASC8VLP                   76-0-0/w STRC(2232)  r     1 ASC95
  2102-0-0/c STRC(135)   r     1 ASC95MVLP               2042-0-0/c STRC(126)   r     1 ASC95VLP
  2202-0-0/c STRC(117)   r     1 ASDS7VLP                2172-0-0/c STRC(117)   r     1 AXDSIVLP
  2176-0-0/c STRC(117)   r     1 AXDSOVLP                1252-0-0/w STRC(2232)  r     1 EBCI
  1350-0-0/w STRC(2232)  r     1 EBCO                     564-0-0/w STRC(2232)  r     1 NATIVE
  2106-0-0/c STRC(135)   r     1 NATIVEVLP               1740-0-0/w STRC(2232)  r     1 NONE
  1642-0-0/w STRC(2232)  r     1 SDS7012                 1446-0-0/w STRC(2232)  r     1 XDSI
  1544-0-0/w STRC(2232)  r     1 XDSO

  ****  Auto variables  ****

  ****  Scalars and arrays  ****
OctLoc.c.b A Datatyp(siz) R M Lvl/name                 OctLoc.c.b A Datatyp(siz) R M Lvl/name

     4-0-0/w UBIN        r     1 BOUND                      3-0-0/w PTR         r     1 PTR$
PL6.E3A0      #002=ASC$BUILD_CHARSET File=ASB$BUILD_DEFAULT_FILES.:E05TSI        TUE 07/29/97 08:57 Page:152


   Procedure ASC$BUILD_CHARSET requires 401 words for executable code.
   Procedure ASC$BUILD_CHARSET requires 10 words of local(AUTO) storage.
PL6.E3A0      #002=ASC$BUILD_CHARSET File=ASB$BUILD_DEFAULT_FILES.:E05TSI        TUE 07/29/97 08:57 Page:153
          *** CROSS REFERENCE LISTING ***
**     DENOTES     IDENTIFIER DEFINITION
<<                 IDENTIFIER'S VALUE SET
>>                 IDENTIFIER'S VALUE USED
<>                 IDENTIFIER SET AND/OR USED
--                 IDENTIFIER REFERENCED
PL6.E3A0      #002=ASC$BUILD_CHARSET File=ASB$BUILD_DEFAULT_FILES.:E05TSI        TUE 07/29/97 08:57 Page:154
          MINI XREF LISTING

A3231
      9327**DCL     10533--ASSIGN  10534--ASSIGN
A3231.SETS
      9328**DCL      9338--REDEF
A3231VLP
     10052**DCL     10535<>CALL
A3300
      9278**DCL     10539--ASSIGN  10540--ASSIGN
A3300.SETS
      9279**DCL      9289--REDEF
A3300VLP
     10079**DCL     10541<>CALL
A3500VLP
     10160**DCL     10511<>CALL
A3513VLP
     10187**DCL     10517<>CALL
A3524VLP
     10214**DCL     10523<>CALL
A3600VLP
     10241**DCL     10529<>CALL
A500
      9180**DCL     10479--ASSIGN  10480--ASSIGN  10503--ASSIGN  10504--ASSIGN  10509--ASSIGN  10510--ASSIGN
     10515--ASSIGN  10516--ASSIGN  10521--ASSIGN  10522--ASSIGN
A500.SETS
      9181**DCL      9191--REDEF
A500LC
      9229**DCL     10485--ASSIGN  10486--ASSIGN  10497--ASSIGN  10498--ASSIGN
A500LC.SETS
      9230**DCL      9240--REDEF
A500LCVLP
      9998**DCL     10487<>CALL
A500VLP
PL6.E3A0      #002=ASC$BUILD_CHARSET File=ASB$BUILD_DEFAULT_FILES.:E05TSI        TUE 07/29/97 08:57 Page:155
      9971**DCL     10481<>CALL
A513VLP
     10106**DCL     10499<>CALL
A524VLP
     10133**DCL     10505<>CALL
A600
      9082**DCL     10491--ASSIGN  10492--ASSIGN  10527--ASSIGN  10528--ASSIGN
A600.SETS
      9083**DCL      9093--REDEF
A600VLP
     10025**DCL     10493<>CALL
AEBCIVLP
     10268**DCL     10547<>CALL
AEBCOVLP
     10295**DCL     10553<>CALL
ANONEVLP
     10403**DCL     10577<>CALL
APLBF
      8935**DCL     10425--ASSIGN  10426--ASSIGN  10437--ASSIGN  10438--ASSIGN
APLBF.SETS
      8936**DCL      8946--REDEF
APLBFVLP
      9728**DCL     10427<>CALL
APLBP
      8984**DCL     10431--ASSIGN  10432--ASSIGN  10443--ASSIGN  10444--ASSIGN
APLBP.SETS
      8985**DCL      8995--REDEF
APLBPVLP
      9755**DCL     10433<>CALL
APLTFVLP
      9782**DCL     10439<>CALL
APLTPVLP
      9809**DCL     10445<>CALL
ASC64
      8837**DCL     10413--ASSIGN  10414--ASSIGN  10455--ASSIGN  10456--ASSIGN  10461--ASSIGN  10462--ASSIGN
ASC64.SETS
PL6.E3A0      #002=ASC$BUILD_CHARSET File=ASB$BUILD_DEFAULT_FILES.:E05TSI        TUE 07/29/97 08:57 Page:156
      8838**DCL      8848--REDEF
ASC64BVLP
      9863**DCL     10457<>CALL
ASC64CVLP
      9890**DCL     10463<>CALL
ASC64VLP
      9674**DCL     10415<>CALL
ASC8
      9033**DCL     10449--ASSIGN  10450--ASSIGN
ASC8.SETS
      9034**DCL      9044--REDEF
ASC8VLP
      9836**DCL     10451<>CALL
ASC95
      8886**DCL     10419--ASSIGN  10420--ASSIGN  10467--ASSIGN  10468--ASSIGN
ASC95.SETS
      8887**DCL      8897--REDEF
ASC95MVLP
      9917**DCL     10469<>CALL
ASC95VLP
      9701**DCL     10421<>CALL
ASDS7VLP
     10376**DCL     10571<>CALL
ASF$OPEN_FORM_CR
      8802**DCL-ENT 10406--CALL
ASF$WRITE_FORM
      8805**DCL-ENT 10415--CALL    10421--CALL    10427--CALL    10433--CALL    10439--CALL    10445--CALL
     10451--CALL    10457--CALL    10463--CALL    10469--CALL    10475--CALL    10481--CALL    10487--CALL
     10493--CALL    10499--CALL    10505--CALL    10511--CALL    10517--CALL    10523--CALL    10529--CALL
     10535--CALL    10541--CALL    10547--CALL    10553--CALL    10559--CALL    10565--CALL    10571--CALL
     10577--CALL
AXDSIVLP
     10322**DCL     10559<>CALL
AXDSOVLP
     10349**DCL     10565<>CALL
BOUND
PL6.E3A0      #002=ASC$BUILD_CHARSET File=ASB$BUILD_DEFAULT_FILES.:E05TSI        TUE 07/29/97 08:57 Page:157
      8799**DCL     10414<<ASSIGN  10415<>CALL    10420<<ASSIGN  10421<>CALL    10426<<ASSIGN  10427<>CALL
     10432<<ASSIGN  10433<>CALL    10438<<ASSIGN  10439<>CALL    10444<<ASSIGN  10445<>CALL    10450<<ASSIGN
     10451<>CALL    10456<<ASSIGN  10457<>CALL    10462<<ASSIGN  10463<>CALL    10468<<ASSIGN  10469<>CALL
     10474<<ASSIGN  10475<>CALL    10480<<ASSIGN  10481<>CALL    10486<<ASSIGN  10487<>CALL    10492<<ASSIGN
     10493<>CALL    10498<<ASSIGN  10499<>CALL    10504<<ASSIGN  10505<>CALL    10510<<ASSIGN  10511<>CALL
     10516<<ASSIGN  10517<>CALL    10522<<ASSIGN  10523<>CALL    10528<<ASSIGN  10529<>CALL    10534<<ASSIGN
     10535<>CALL    10540<<ASSIGN  10541<>CALL    10546<<ASSIGN  10547<>CALL    10552<<ASSIGN  10553<>CALL
     10558<<ASSIGN  10559<>CALL    10564<<ASSIGN  10565<>CALL    10570<<ASSIGN  10571<>CALL    10576<<ASSIGN
     10577<>CALL
EBCI
      9376**DCL     10545--ASSIGN  10546--ASSIGN
EBCI.SETS
      9377**DCL      9387--REDEF
EBCO
      9426**DCL     10551--ASSIGN  10552--ASSIGN
EBCO.SETS
      9427**DCL      9437--REDEF
M$MERC
      6602**DCL-ENT 10408--CALL
NATIVE
      9131**DCL     10473--ASSIGN  10474--ASSIGN
NATIVE.SETS
      9132**DCL      9142--REDEF
NATIVEVLP
      9944**DCL     10475<>CALL
NONE
      9625**DCL     10575--ASSIGN  10576--ASSIGN
NONE.SETS
      9626**DCL      9636--REDEF
PTR$
      8798**DCL     10413<<ASSIGN  10415<>CALL    10419<<ASSIGN  10421<>CALL    10425<<ASSIGN  10427<>CALL
     10431<<ASSIGN  10433<>CALL    10437<<ASSIGN  10439<>CALL    10443<<ASSIGN  10445<>CALL    10449<<ASSIGN
     10451<>CALL    10455<<ASSIGN  10457<>CALL    10461<<ASSIGN  10463<>CALL    10467<<ASSIGN  10469<>CALL
     10473<<ASSIGN  10475<>CALL    10479<<ASSIGN  10481<>CALL    10485<<ASSIGN  10487<>CALL    10491<<ASSIGN
     10493<>CALL    10497<<ASSIGN  10499<>CALL    10503<<ASSIGN  10505<>CALL    10509<<ASSIGN  10511<>CALL
     10515<<ASSIGN  10517<>CALL    10521<<ASSIGN  10523<>CALL    10527<<ASSIGN  10529<>CALL    10533<<ASSIGN
PL6.E3A0      #002=ASC$BUILD_CHARSET File=ASB$BUILD_DEFAULT_FILES.:E05TSI        TUE 07/29/97 08:57 Page:158
     10535<>CALL    10539<<ASSIGN  10541<>CALL    10545<<ASSIGN  10547<>CALL    10551<<ASSIGN  10553<>CALL
     10557<<ASSIGN  10559<>CALL    10563<<ASSIGN  10565<>CALL    10569<<ASSIGN  10571<>CALL    10575<<ASSIGN
     10577<>CALL
SDS7012
      9576**DCL     10569--ASSIGN  10570--ASSIGN
SDS7012.SETS
      9577**DCL      9587--REDEF
XDSI
      9476**DCL     10557--ASSIGN  10558--ASSIGN
XDSI.SETS
      9477**DCL      9487--REDEF
XDSO
      9526**DCL     10563--ASSIGN  10564--ASSIGN
XDSO.SETS
      9527**DCL      9537--REDEF

