VERSION E05

PL6.E3A0      #001=ASA$B_USERS_HLP File=ASB$BUILD_DEFAULT_FILES.:E05TSI          TUE 07/29/97 08:55 Page:1
        1        1        /*T***********************************************************/
        2        2        /*T*                                                         */
        3        3        /*T* Copyright (c) Bull HN Information Systems Inc., 1997    */
        4        4        /*T*                                                         */
        5        5        /*T***********************************************************/
        6        6        ASA$B_USERS_HLP: PROC ;
        7        7        %EJECT ;
PL6.E3A0      #001=ASA$B_USERS_HLP File=ASB$BUILD_DEFAULT_FILES.:E05TSI          TUE 07/29/97 08:55 Page:2
        8        8        /*********************************************************************/
        9        9        /*   Include files   include files   include files   include files   */
       10       10        /*********************************************************************/
       11       11                                                              /**/
       12       12        %INCLUDE AS_ENTRIES_M  ;
       13     1062        %INCLUDE AS_SUPER_C    ;
       14     1497        %INCLUDE AS_MAC_C      ;
       15     1577        %INCLUDE KL_SUPER_C    ;
       16     4479        %INCLUDE XU_FORMAT_C   ;
       17     4641        %INCLUDE XU_MACRO_C    ;
       18     7747        %INCLUDE AS_PERR_C     ;
       19     8349        %INCLUDE AS_SUBS_C     ;
       20     9763        %INCLUDE AS_SUPER_R    ;
       21    12779        %INCLUDE KC$CGBLK      ;
       22    12827        %INCLUDE FI_MAC_C      ;
       23    13197        %INCLUDE FOO_MAC_C     ;
       24    13945        %INCLUDE OC$INFO       ;
       25    14001        %INCLUDE B$JIT_C       ;
       26    14315             %B$JIT0 ;
       27    14404             %U$JIT1 ;
       28    14478             %M$JIT2 ;
       29    14488             %F$JIT3 ;
       30    14493             %S$JIT4 ;
       31    14499             %J$JIT5 ;
       32    14587             %A$JIT6 ;
       33    14597        %EJECT ;
PL6.E3A0      #001=ASA$B_USERS_HLP File=ASB$BUILD_DEFAULT_FILES.:E05TSI          TUE 07/29/97 08:55 Page:3
       34    14598        /*********************************************************************/
       35    14599        /*   Static data     static data     static data     static data     */
       36    14600        /*********************************************************************/
       37    14601                                                              /**/
       38    14602        %LIST;
       39    14603              %KL_DREC( NAME = KL_DEVICE ,
       40    14604                        TYP = %KLAT_CG# ,
       41    14605                        RN = '0'B ,
       42    14606                        GOK = '0'B ,
       43    14607                        WSN = 'OOPS' ,
       44    14608                        PASS = ' ' ,
       45    14609                        PRO = 'TTY' ,
       46    14610                        RNAME = ' ' ,
       47    14611                          STCLASS=STATIC,
       48    14612                          LAST = ","  ) ;
             14613         %LSET LISTDIR='0'B;
             14625    1   DCL 1 KL_DEVICE STATIC ALIGNED,
             14630    1         2 ATYP UBIN BYTE UNAL INIT(2)/**/,
             14633    1         2 FLAGS,
             14636    1           3 RNME BIT(1) UNAL INIT('0'B)/**/,
             14640    1           3 GHOSTOK BIT(1) UNAL INIT('0'B)/**/,
             14643    1           3 OLOK BIT(1) INIT('1'B)/**/,
             14647    1           3 BATOK BIT(1) INIT('1'B)/**/,
             14651    1           3 GJOB BIT(1) INIT('0'B)/**/,
             14654    1           3 USETP BIT(1) INIT('0'B)/**/,
             14659    1           3 NOCGREJ BIT(1) INIT('0'B)/**/,
             14664    1           3 NOCGINF BIT(1) INIT('0'B)/**/,
             14667    1           3 TPOK BIT(1) INIT('0'B)/**/,
             14671    1           3 FEOK BIT(1) INIT('0'B)/**/,
             14674    1         2 COS UBIN(8)  UNAL INIT(0)/**/,
             14677    1         2 SUPER UBIN(9) UNAL INIT(0)/**/,
             14680    1         2 TWSN# CHAR(4) INIT('OOPS')/**/,
             14683    1         2 PASSWORD CHAR(8) INIT(' ')/**/,
             14687    1         2 ENCODPW REDEF PASSWORD BIT(72),
             14689    1         2 PNAME,
             14697    1           3 CNT UBIN BYTE UNAL INIT(3)/**/,
             14700    1           3 TXT CHAR(11) UNAL INIT('TTY')/**/,
PL6.E3A0      #001=ASA$B_USERS_HLP File=ASB$BUILD_DEFAULT_FILES.:E05TSI          TUE 07/29/97 08:55 Page:4
             14703    1         2 WOO CHAR(8) INIT('LOCAL')/**/,
             14706    1         2 RENAME CHAR(8) INIT(' ')/**/,
             14707    1         2 HPS REDEF RENAME,
             14711    1           3 N CHAR(6) UNAL,
             14712    1           3 * CHAR(2) UNAL,
             14716    1         2 TNAME CHAR(8) INIT(' ')/**/,
             14720    1         2 SNAME CHAR(8) INIT('LOCAL')/**/,
             14723    1         2 NWINFO UBIN WORD INIT(0)/**/,
       49    14725              %KC$CGID(FPTN = KC_CGID,
       50    14726                          STCLASS= STCLASS,
       51    14727                          LAST = "," ,
       52    14728                          LVL = 2 ) ;
             14729         %LSET LISTDIR='0'B;
             14745    1         2 KC_CGID ALIGNED,
             14747    1         3 ACCT# CHAR(8) /*(':SYS')/**/,
             14748    1         3 PSN# CHAR(6) /*(' ')/**/,
             14749    1         3 * UBIN(18) UNAL /*(0)/**/,
             14750    1         3 NAME#,
             14751    1           4 CNT UBIN BYTE UNAL /*(LENGTHC(' '))/**/,
             14752    1           4 TXT CHAR(31) /*(' ')/**/,
       53    14754              %OC$INFO ( FPTN = OCINFO ,
       54    14755                         LVL = 2,
       55    14756                         LAST ="," ) ;
             14757         %LSET LISTDIR='0'B;
             14772    1         2 OCINFO ALIGNED,
             14774    1           3 CADDR BIT(18) /*('0'B)/**/,
             14776    1           3 LANG CHAR(1) /*(' ')/**/,
             14778    1           3 MXPRI UBIN(9) UNAL /*(7)/**/,
             14780    1           3 KCADDR BIT(18) /*('0'B)/**/,
             14782    1           3 * BIT(18) /*('0'B)/**/,
             14783    1           3 WSN CHAR(8) /*('LOCAL')/**/,
             14785    1           3 TNAME CHAR(8) /*('LOCAL')/**/,
             14787    1           3 * UBIN WORD /*(0)/**/,
             14788    1           3 CMDCNT UBIN WORD /*(0)/**/,
             14790    1           3 CMD CHAR(80) /*(' ')/**/ ,
       56    14793               %FO_CONINFO ( FPTN = OSINFO,
       57    14794                          LVL = 2,
PL6.E3A0      #001=ASA$B_USERS_HLP File=ASB$BUILD_DEFAULT_FILES.:E05TSI          TUE 07/29/97 08:55 Page:5
       58    14795                          LAST = "," ) ;
             14796         %LSET LISTDIR='0'B;
             14812    1       2 OSINFO ALIGNED,
             14815    1       3 UPLOCKED BIT(1) UNAL INIT('0'B)/**/,
             14817    1         3 * BIT(35) UNAL INIT('0'B)/**/,
             14818    1         3 FNAME CHAR(6) UNAL INIT(' ')/**/,
             14821    1         3 FORM REDEF FNAME CHAR(6) UNAL,
             14822    1         3 FORMR REDEF FNAME BIT(54) UNAL,
             14823    1         3 * CHAR(2) UNAL INIT(' ')/**/,
             14824    1         3 TNAME CHAR(8) INIT(' ')/**/ ,
       59    14826              %FI_CONINFO(FPTN = ISINFO,
       60    14827                          STCLASS=STCLASS,
       61    14828                          LVL = 2 ,
       62    14829                          LAST = ";" ) ;
             14830         %LSET LISTDIR='0'B;
             14846    1       2 ISINFO ALIGNED,
             14849    1       3 NCTL BIT(1) UNAL /*('0'B)/**/,
             14851    1         3 NCTLOK BIT(1) UNAL /*('1'B)/**/,
             14853    1         3 NCTLFID BIT(1) UNAL /*('0'B)/**/,
             14856    1         3 * BIT(15) UNAL /*('0'B)/**/,
             14858    1         3 DFLTPRI UBIN BYTE UNAL /*(7)/**/,
             14859    1         3 DFPRI REDEF DFLTPRI UBIN BYTE UNAL,
             14860    1         3 MXPRI UBIN BYTE UNAL /*(7)/**/,
             14862    1         3 NCACCT CHAR(8) UNAL /*(':NCTL')/**/,
             14865    1         3 NFID CHAR(80) UNAL /*(' ')/**/,
             14868    1         3 TNAME CHAR(8) UNAL /*(' ')/**/,
             14870    1         3 WSN CHAR(8) UNAL /*(' ')/**/ ;
       63    14873              %KL_DREC( NAME = KL_TSREC ,
       64    14874                        TYP = %KLAT_TS# ,
       65    14875                        RN = '0'B ,
       66    14876                        GOK = '0'B ,
       67    14877                        WSN = '0000' ,
       68    14878                        PASS = ' ' ,
       69    14879                        PRO = ' ' ,
       70    14880                        RNAME = 'SYS' ,
       71    14881                        STCLASS=STATIC,
       72    14882                        LAST=","  ) ;
PL6.E3A0      #001=ASA$B_USERS_HLP File=ASB$BUILD_DEFAULT_FILES.:E05TSI          TUE 07/29/97 08:55 Page:6
             14883         %LSET LISTDIR='0'B;
             14895    1   DCL 1 KL_TSREC STATIC ALIGNED,
             14900    1         2 ATYP UBIN BYTE UNAL INIT(1)/**/,
             14903    1         2 FLAGS,
             14906    1           3 RNME BIT(1) UNAL INIT('0'B)/**/,
             14910    1           3 GHOSTOK BIT(1) UNAL INIT('0'B)/**/,
             14913    1           3 OLOK BIT(1) INIT('1'B)/**/,
             14917    1           3 BATOK BIT(1) INIT('1'B)/**/,
             14921    1           3 GJOB BIT(1) INIT('0'B)/**/,
             14924    1           3 USETP BIT(1) INIT('0'B)/**/,
             14929    1           3 NOCGREJ BIT(1) INIT('0'B)/**/,
             14934    1           3 NOCGINF BIT(1) INIT('0'B)/**/,
             14937    1           3 TPOK BIT(1) INIT('0'B)/**/,
             14941    1           3 FEOK BIT(1) INIT('0'B)/**/,
             14944    1         2 COS UBIN(8)  UNAL INIT(0)/**/,
             14947    1         2 SUPER UBIN(9) UNAL INIT(0)/**/,
             14950    1         2 TWSN# CHAR(4) INIT('0000')/**/,
             14953    1         2 PASSWORD CHAR(8) INIT(' ')/**/,
             14957    1         2 ENCODPW REDEF PASSWORD BIT(72),
             14959    1         2 PNAME,
             14967    1           3 CNT UBIN BYTE UNAL INIT(0)/**/,
             14970    1           3 TXT CHAR(11) UNAL INIT(' ')/**/,
             14973    1         2 WOO CHAR(8) INIT('LOCAL')/**/,
             14976    1         2 RENAME CHAR(8) INIT('SYS')/**/,
             14977    1         2 HPS REDEF RENAME,
             14981    1           3 N CHAR(6) UNAL,
             14982    1           3 * CHAR(2) UNAL,
             14986    1         2 TNAME CHAR(8) INIT(' ')/**/,
             14990    1         2 SNAME CHAR(8) INIT('LOCAL')/**/,
             14993    1         2 NWINFO UBIN WORD INIT(0)/**/,
       73    14995              %KL_FEBLK (NAME = KL_FETS,
       74    14996                         LVL = 2 ,
       75    14997                         STCLASS = STATIC );
             14998         %LSET LISTDIR='0'B;
             15013    1         2 KL_FETS,
             15015    1           3 BILL(0:3) CHAR(6) UNAL INIT('1','1','1','1')/**/,
             15016    1           3 DBACCN CHAR(8) UNAL INIT(' ')/**/,
PL6.E3A0      #001=ASA$B_USERS_HLP File=ASB$BUILD_DEFAULT_FILES.:E05TSI          TUE 07/29/97 08:55 Page:7
             15017    1           3 MINTS(0:3) UBIN BYTE UNAL INIT(0*0)/**/,
             15018    1           3 MFPRG UBIN BYTE UNAL INIT(255)/**/,
             15019    1           3 MACCTMEM UBIN HALF UNAL INIT(9999)/**/,
             15020    1           3 FLAGS,
             15021    1           4 STEPACCT BIT(1) INIT('0'B)/**/,
             15022    1           4 * BIT(8) INIT('0'B*0)/**/,
             15023    1           3 PRIV(0:3) BIT(36) ALIGNED INIT('0'B*0)/**/,
             15024    1           3 PPRIV(0:3) BIT(36) ALIGNED INIT('0'B*0)/**/,
             15025    1           3 MTIME(0:3) SBIN WORD UNAL INIT(59999400, 59999400, 59999400, 59999400)/**/
             15025                    ,
             15026    1           3 MMEM(0:3) UBIN HALF UNAL INIT(128,128,128,128)/**/,
             15027    1           3 CXTMEM(0:7) ,
             15028    1           4 UMAX UBIN HALF UNAL INIT(0*0)/**/,
             15029    1           4 CMAX UBIN HALF UNAL INIT(0*0)/**/,
             15030    1           4 HMAX UBIN HALF UNAL INIT(0*0)/**/,
             15031    1           4 GMAX UBIN HALF UNAL INIT(0*0)/**/,
             15032    1           3 PSDOL(0:7) ,
             15033    1           4 PSDO_NAME CHAR(8) UNAL INIT(' '*0)/**/,
             15034    1           4 UMAX UBIN HALF UNAL INIT(0*0)/**/,
             15035    1           4 CMAX UBIN HALF UNAL INIT(0*0)/**/,
             15036    1           4 HMAX UBIN HALF UNAL INIT(0*0)/**/,
             15037    1           4 GMAX UBIN HALF UNAL INIT(0*0)/**/,
             15038    1           3 RESL_CNT UBIN HALF UNAL INIT(0)/**/,
             15039    1           3 RESL(0:0),
             15040    1           4 RNAME CHAR(2) UNAL INIT(' '*0)/**/,
             15041    1           4 UMAX UBIN HALF UNAL INIT(0*0)/**/,
             15042    1           4 CMAX UBIN HALF UNAL INIT(0*0)/**/,
             15043    1           4 HMAX UBIN HALF UNAL INIT(0*0)/**/,
             15044    1           4 GMAX UBIN HALF UNAL INIT(0*0)/**/;
       76    15046              %KL_DREC(   NAME = KL_TREC ,
       77    15047                          STCLASS = CONSTANT ,
       78    15048                          TYP = %KLAT_TRM# ,
       79    15049                          RNAME = ' ' ,
       80    15050                          PASS = ' ' ,
       81    15051                          PRO = ' ' ,
       82    15052                  WORG = ' ',
       83    15053                  LAST = ";" ) ;
PL6.E3A0      #001=ASA$B_USERS_HLP File=ASB$BUILD_DEFAULT_FILES.:E05TSI          TUE 07/29/97 08:55 Page:8
             15054         %LSET LISTDIR='0'B;
             15066    1   DCL 1 KL_TREC CONSTANT ALIGNED,
             15071    1         2 ATYP UBIN BYTE UNAL INIT(4)/**/,
             15074    1         2 FLAGS,
             15077    1           3 RNME BIT(1) UNAL INIT('0'B)/**/,
             15081    1           3 GHOSTOK BIT(1) UNAL INIT('0'B)/**/,
             15084    1           3 OLOK BIT(1) INIT('1'B)/**/,
             15088    1           3 BATOK BIT(1) INIT('1'B)/**/,
             15092    1           3 GJOB BIT(1) INIT('0'B)/**/,
             15095    1           3 USETP BIT(1) INIT('0'B)/**/,
             15100    1           3 NOCGREJ BIT(1) INIT('0'B)/**/,
             15105    1           3 NOCGINF BIT(1) INIT('0'B)/**/,
             15108    1           3 TPOK BIT(1) INIT('0'B)/**/,
             15112    1           3 FEOK BIT(1) INIT('0'B)/**/,
             15115    1         2 COS UBIN(8)  UNAL INIT(0)/**/,
             15118    1         2 SUPER UBIN(9) UNAL INIT(0)/**/,
             15121    1         2 TWSN# CHAR(4) INIT('0000')/**/,
             15124    1         2 PASSWORD CHAR(8) INIT(' ')/**/,
             15128    1         2 ENCODPW REDEF PASSWORD BIT(72),
             15130    1         2 PNAME,
             15138    1           3 CNT UBIN BYTE UNAL INIT(0)/**/,
             15141    1           3 TXT CHAR(11) UNAL INIT(' ')/**/,
             15144    1         2 WOO CHAR(8) INIT(' ')/**/,
             15147    1         2 RENAME CHAR(8) INIT(' ')/**/,
             15148    1         2 HPS REDEF RENAME,
             15152    1           3 N CHAR(6) UNAL,
             15153    1           3 * CHAR(2) UNAL,
             15157    1         2 TNAME CHAR(8) INIT(' ')/**/,
             15161    1         2 SNAME CHAR(8) INIT('LOCAL')/**/,
             15164    1         2 NWINFO UBIN WORD INIT(0)/**/;
       84    15166        %LIST ;
       85    15167        %PLIST ;
       86    15168        %EJECT ;
PL6.E3A0      #001=ASA$B_USERS_HLP File=ASB$BUILD_DEFAULT_FILES.:E05TSI          TUE 07/29/97 08:55 Page:9
       87    15169        /********************************************************************/
       88    15170        /*   Auto data       auto data       auto data       auto data       */
       89    15171        /*********************************************************************/
       90    15172                                                              /**/
       91    15173    1   DCL I UBIN WORD ;
       92    15174    1   DCL ARS UBIN WORD ;
       93    15175    1   DCL TEMP_PRIV(0:3) BIT(36) ;
       94    15176    1   DCL TEMP_FE_PRIV(0:3) BIT(36) ;
       95    15177    1   DCL PTR$ PTR ;
       96    15178    1   DCL TREC$ PTR ;
       97    15179    1   DCL TWSNR$ PTR ;
       98    15180    1   DCL WSNCVT$ PTR ;
       99    15181    1   DCL TS_BUF STATIC CHAR(1000) INIT(' ') ;
      100    15182        %EJECT ;
PL6.E3A0      #001=ASA$B_USERS_HLP File=ASB$BUILD_DEFAULT_FILES.:E05TSI          TUE 07/29/97 08:55 Page:10
      101    15183        /*********************************************************************/
      102    15184        /*   Local based     local based     local based     local based     */
      103    15185        /*********************************************************************/
      104    15186                                                              /**/
      105    15187        %LIST ;
      106    15188              %KL_DREC ( NAME = KL$TREC ,
      107    15189                        STCLASS="BASED( TREC$ )",
      108    15190                        LAST = "," ) ;
             15191         %LSET LISTDIR='0'B;
             15203    1   DCL 1 KL$TREC BASED( TREC$ ) ALIGNED,
             15208    1         2 ATYP UBIN BYTE UNAL /*(1)/**/,
             15211    1         2 FLAGS,
             15214    1           3 RNME BIT(1) UNAL /*('0'B)/**/,
             15218    1           3 GHOSTOK BIT(1) UNAL /*('0'B)/**/,
             15221    1           3 OLOK BIT(1) /*('1'B)/**/,
             15225    1           3 BATOK BIT(1) /*('1'B)/**/,
             15229    1           3 GJOB BIT(1) /*('0'B)/**/,
             15232    1           3 USETP BIT(1) /*('0'B)/**/,
             15237    1           3 NOCGREJ BIT(1) /*('0'B)/**/,
             15242    1           3 NOCGINF BIT(1) /*('0'B)/**/,
             15245    1           3 TPOK BIT(1) /*('0'B)/**/,
             15249    1           3 FEOK BIT(1) /*('0'B)/**/,
             15252    1         2 COS UBIN(8)  UNAL /*(0)/**/,
             15255    1         2 SUPER UBIN(9) UNAL /*(0)/**/,
             15258    1         2 TWSN# CHAR(4) /*('0000')/**/,
             15261    1         2 PASSWORD CHAR(8) /*(' ')/**/,
             15265    1         2 ENCODPW REDEF PASSWORD BIT(72),
             15267    1         2 PNAME,
             15275    1           3 CNT UBIN BYTE UNAL /*(0)/**/,
             15278    1           3 TXT CHAR(11) UNAL /*(' ')/**/,
             15281    1         2 WOO CHAR(8) /*('LOCAL')/**/,
             15284    1         2 RENAME CHAR(8) /*('SYS')/**/,
             15285    1         2 HPS REDEF RENAME,
             15289    1           3 N CHAR(6) UNAL,
             15290    1           3 * CHAR(2) UNAL,
             15294    1         2 TNAME CHAR(8) /*(' ')/**/,
             15298    1         2 SNAME CHAR(8) /*('LOCAL')/**/,
PL6.E3A0      #001=ASA$B_USERS_HLP File=ASB$BUILD_DEFAULT_FILES.:E05TSI          TUE 07/29/97 08:55 Page:11
             15301    1         2 NWINFO UBIN WORD /*(0)/**/,
      109    15303              %KL_FEBLK (NAME = KL$FETS,
      110    15304                         LVL = 2,
      111    15305                         STCLASS = BASED ) ;
             15306         %LSET LISTDIR='0'B;
             15321    1         2 KL$FETS,
             15323    1           3 BILL(0:3) CHAR(6) UNAL /*('1','1','1','1')/**/,
             15324    1           3 DBACCN CHAR(8) UNAL /*(' ')/**/,
             15325    1           3 MINTS(0:3) UBIN BYTE UNAL /*(0*0)/**/,
             15326    1           3 MFPRG UBIN BYTE UNAL /*(255)/**/,
             15327    1           3 MACCTMEM UBIN HALF UNAL /*(9999)/**/,
             15328    1           3 FLAGS,
             15329    1           4 STEPACCT BIT(1) /*('0'B)/**/,
             15330    1           4 * BIT(8) /*('0'B*0)/**/,
             15331    1           3 PRIV(0:3) BIT(36) ALIGNED /*('0'B*0)/**/,
             15332    1           3 PPRIV(0:3) BIT(36) ALIGNED /*('0'B*0)/**/,
             15333    1           3 MTIME(0:3) SBIN WORD UNAL /*(59999400, 59999400, 59999400, 59999400)/**/,
             15334    1           3 MMEM(0:3) UBIN HALF UNAL /*(128,128,128,128)/**/,
             15335    1           3 CXTMEM(0:7) ,
             15336    1           4 UMAX UBIN HALF UNAL /*(0*0)/**/,
             15337    1           4 CMAX UBIN HALF UNAL /*(0*0)/**/,
             15338    1           4 HMAX UBIN HALF UNAL /*(0*0)/**/,
             15339    1           4 GMAX UBIN HALF UNAL /*(0*0)/**/,
             15340    1           3 PSDOL(0:7) ,
             15341    1           4 PSDO_NAME CHAR(8) UNAL /*(' '*0)/**/,
             15342    1           4 UMAX UBIN HALF UNAL /*(0*0)/**/,
             15343    1           4 CMAX UBIN HALF UNAL /*(0*0)/**/,
             15344    1           4 HMAX UBIN HALF UNAL /*(0*0)/**/,
             15345    1           4 GMAX UBIN HALF UNAL /*(0*0)/**/,
             15346    1           3 RESL_CNT UBIN HALF UNAL /*(0)/**/,
             15347    1           3 RESL(0:0),
             15348    1           4 RNAME CHAR(2) UNAL /*(' '*0)/**/,
             15349    1           4 UMAX UBIN HALF UNAL /*(0*0)/**/,
             15350    1           4 CMAX UBIN HALF UNAL /*(0*0)/**/,
             15351    1           4 HMAX UBIN HALF UNAL /*(0*0)/**/,
             15352    1           4 GMAX UBIN HALF UNAL /*(0*0)/**/;
      112    15354              %KL_TWSNREC(  NAME = KL$TWSNREC ,
PL6.E3A0      #001=ASA$B_USERS_HLP File=ASB$BUILD_DEFAULT_FILES.:E05TSI          TUE 07/29/97 08:55 Page:12
      113    15355                            STCLASS="BASED( TWSNR$ )") ;
             15356    1   DCL 1 NAME STCLASS ALIGNED,
             15357    1         2 WSN CHAR(8),          /* WSN name if any assigned   */
             15358    1         2 STATION CHAR(8),      /* Station name */
             15359    1         2 NDEV UBIN WORD,         /* NUMBER OF DEVICES IN DEVS */
             15360    1         2 DEVS (0:0),             /* DEVICE INFORMATION */
             15361    1           3 TYP CHAR(2) UNAL,     /* DEVICE TYPE ('LP') */
             15362    1           3 NUM CHAR(2) UNAL,     /* NUMBER WITHIN TYPE ('01') */
             15363    1           3 ATTR BIT(18) UNAL,    /* ATTRS FROM PROFILE HEADER */
             15364    1           3 DDEV BIT(9) UNAL,     /* FROM PROFILE HEADER.DDEV */
             15365    1           3 IO,            /* FROM PROFILE HEADER.IO */
             15366    1             4 INPUT BIT(1),
             15367    1             4 OUTPUT BIT(1),
             15368    1           3 TDEV BIT(1),        /* IF SET, IT IS SUBDEV FOR TERMINAL */
             15369    1           3 IOM_CONNECTED BIT(1), /* This is an IOM connect device */
             15370    1           3 RESOUCE_DEVICE BIT(1),   /* This is a resource device */
             15371    1           3 * BIT(4),
             15372    1           3 FNAME CHAR(6),   /* FNAME FROM DREC.OSINFO OR BLANKS */
             15373    1           3 * CHAR(2),
             15374    1           3 ACCT CHAR(8) UNAL,    /* LOGON ACCOUNT IF ANY */
             15375    1           3 TERM CHAR(8) UNAL,   /* TERMINAL OR STATION NAME */
             15376    1           3 PNAME,                /* DEFAULT PROFILE */
             15377    1             4 CNT UBIN BYTE UNAL,
             15378    1             4 TXT CHAR(11) UNAL;
      114    15380              %KL_WSNCVT( NAME = KL$WSNCVT ,
      115    15381                          STCLASS="BASED( WSNCVT$ )") ;
             15382    1   DCL 1 NAME STCLASS ALIGNED ,
             15383    1         2 ATYPE UBIN (9) CALIGNED ,
             15384    1         2 * UBIN                                         (27) CALIGNED ,
             15385    1         2 LTWSN UBIN WORD ALIGNED ,  /* LARGEST TWSN USED */
             15386    1         2 WSN(0:0) CHAR(8) ALIGNED ;  /* WSN INDEXED BY CHARBIN(TWSN) */
      116    15388        %PLIST ;
      117    15389        %EJECT ;
PL6.E3A0      #001=ASA$B_USERS_HLP File=ASB$BUILD_DEFAULT_FILES.:E05TSI          TUE 07/29/97 08:55 Page:13
      118    15390        /*********************************************************************/
      119    15391        /*   Entry dcls      entry dcls      entry dcls      entry dcls      */
      120    15392        /*********************************************************************/
      121    15393                                                              /**/
      122    15394        %ASB$OPEN_USERS_CR ;
      123    15397        %ASB$OPEN_HLP_CR ;
      124    15400        %ASB$WRITE_USERS ;
      125    15403        %ASB$WRITE_HLP ;
      126    15406        %ASB$CLOSE_USERS ;
      127    15409        %ASB$CLOSE_HLP ;
      128    15412        %ASZ$SCRAMBLE ;
      129    15415        %ASB$WRITE_USERS_KEY ;
      130    15418        %EJECT ;
PL6.E3A0      #001=ASA$B_USERS_HLP File=ASB$BUILD_DEFAULT_FILES.:E05TSI          TUE 07/29/97 08:55 Page:14
      131    15419        /*********************************************************************/
      132    15420        /*   Procedure       procedure       procedure       procedure       */
      133    15421        /*********************************************************************/
      134    15422                                                              /**/
      135    15423        /*
      136    15424            ***            Begin procedure                    ***
      137    15425        */
      138    15426    1   BUILD_USERS_HLP: ;
      139    15427    1   CALL ASB$OPEN_USERS_CR ;
      140    15428    1   CALL ASB$OPEN_HLP_CR ;
      141    15429                                                              /*   Set up default.  */
      142    15430    1   USERS_KEY.COUNT = 7 ;
      143    15431    1   USERS_KEY.TXTC = 'DEFAULT' ;
      144    15432    1   AS_USERS.ACCT = 'DEFAULT' ;
      145    15433    1   AS_USERS.NAME = AS_BLANK ;
      146    15434    1   AS_USERS.SETUP_CHRA.SIZE = 0 ;
      147    15435    1   CALL ASB$WRITE_USERS( AS_USERS.ACCT ) ;
      148    15436    1   TREC$ = ADDR( TS_BUF ) ;
      149    15437    1   TS_BUF = ' ' ;
      150    15438    1   KL$TREC = KL_TSREC ;
      151    15439    1   KL$TREC.KL$FETS = KL_TSREC.KL_FETS ;
      152    15440    1   KL$TREC.NWINFO = SIZEW( KL$TREC.KL$FETS) ;
      153    15441    1   ARS = LENGTHC( KL_DREC_CNT ) + KL$TREC.NWINFO * 4 ;
      154    15442    1   KL$TREC.PASSWORD = AS_BLANK ;
      155    15443    1   CALL ASZ$SCRAMBLE( KL$TREC.PASSWORD ) ;
      156    15444    1   CALL ASB$WRITE_HLP( TREC$, ARS ) ;
      157    15445                                                  /* Setup default project */
      158    15446    1   USERS_KEY.COUNT = 21;
      159    15447    1   USERS_KEY.TEXT(7) = 'P';
      160    15448    1   USERS_KEY.TEXT(20) = 'S';
      161    15449    1   AS_DEFAULT.BUDGET.PROJ_ALLOWED = 0;
      162    15450    1   AS_DEFAULT.SETUP_CHRA.SIZE = 0;
      163    15451    1   CALL ASB$WRITE_USERS( AS_DEFAULT );
      164    15452    1   CALL ASB$WRITE_HLP( TREC$, ARS );
      165    15453    1   USERS_KEY.COUNT = 8;
      166    15454    2   DO I = 0 TO 2;
      167    15455    2      AS_USERS.PPRIV(I) = AS_USERS.PPRIV(I) | %PPR_PADMIN#;
PL6.E3A0      #001=ASA$B_USERS_HLP File=ASB$BUILD_DEFAULT_FILES.:E05TSI          TUE 07/29/97 08:55 Page:15
      168    15456    2      END;
      169    15457    2   DO I = 0 TO 3;
      170    15458    2      KL$TREC.KL$FETS.PPRIV(I) = KL$TREC.KL$FETS.PPRIV(I) | %PPR_PADMIN#;
      171    15459    2      END;
      172    15460    1   CALL ASB$WRITE_USERS( AS_USERS );
      173    15461    1   CALL ASB$WRITE_HLP( TREC$, ARS );
      174    15462    1   USERS_KEY.COUNT = 29;
      175    15463    1   USERS_KEY.SKEY.PROJ = 1;
      176    15464    1   USERS_KEY.SKEY.CREATOR = AS_NONE.TEXT;
      177    15465    1   USERS_KEY.SKEY.USER = 'DEFAULTP';
      178    15466    1   CALL ASB$WRITE_USERS_KEY;
      179    15467        /*********************************************************************/
      180    15468        /*********************************************************************/
      181    15469        /*
      182    15470
      183    15471                        Build :SYS,LJS account.
      184    15472
      185    15473                        This section of code should be
      186    15474                        removed by release 1.
      187    15475
      188    15476
      189    15477        */
      190    15478    1   AS_USERS.ACCT = ':SYS' ;
      191    15479    1   AS_USERS.NAME = 'LJS' ;
      192    15480                                                              /**/
      193    15481    2   DO I = 0 TO 3 ;
      194    15482    2      TEMP_PRIV(I) = AS_USERS.PRIV(I) ;
      195    15483    2      AS_USERS.PRIV(I) = '377777777777'O ;
      196    15484    2      AS_USERS.PPRIV(I) = %( '777777777777'O & ~(%PPR_PADMIN#) );
      197    15485                                                             /**/
      198    15486    2      TEMP_FE_PRIV(I) = KL$TREC.KL$FETS.PRIV(I) ;
      199    15487    2      KL$TREC.KL$FETS.PRIV(I) = '377777777777'O ;
      200    15488    2      KL$TREC.KL$FETS.PPRIV(I) = %( '777777777777'O & ~(%PPR_PADMIN#) );
      201    15489    2      END ; /*   Do i   */
      202    15490                                                              /**/
      203    15491    1   USERS_KEY.COUNT = 11 ;
      204    15492    1   USERS_KEY.TXTC = ':SYS    LJS' ;
PL6.E3A0      #001=ASA$B_USERS_HLP File=ASB$BUILD_DEFAULT_FILES.:E05TSI          TUE 07/29/97 08:55 Page:16
      205    15493    1   CALL ASB$WRITE_USERS( AS_USERS.ACCT ) ;
      206    15494    1   KL$TREC.FLAGS.GHOSTOK = AS_TRUE ;
      207    15495    1   KL$TREC.FLAGS.TPOK = AS_TRUE ;
      208    15496    1   KL$TREC.FLAGS.FEOK = AS_TRUE ;
      209    15497    1   KL$TREC.PASSWORD = AS_BLANK ;
      210    15498    1   CALL ASZ$SCRAMBLE( KL$TREC.PASSWORD ) ;
      211    15499    1   CALL ASB$WRITE_HLP( TREC$, ARS ) ;
      212    15500    1   USERS_KEY.COUNT = 12 ;
      213    15501    1   USERS_KEY.TXTC = ':SYSTAC LADC' ;
      214    15502    1   AS_USERS.ACCT = ':SYSTAC' ;
      215    15503    1   AS_USERS.NAME = 'LADC' ;
      216    15504    1   CALL ASB$WRITE_USERS( AS_USERS.ACCT ) ;
      217    15505    1   KL$TREC.PASSWORD = 'CP6' ;
      218    15506    1   CALL ASZ$SCRAMBLE( KL$TREC.PASSWORD ) ;
      219    15507    1   CALL ASB$WRITE_HLP( TREC$, ARS ) ;
      220    15508    1   KL$TREC.PASSWORD = AS_BLANK ;
      221    15509    1   CALL ASZ$SCRAMBLE( KL$TREC.PASSWORD ) ;
      222    15510                                                              /* Set :FED,SUPPORT */
      223    15511    1   AS_USERS.ACCT = ':FED' ;
      224    15512    1   AS_USERS.NAME = 'SUPPORT' ;
      225    15513                                                              /* Reset ppriv */
      226    15514                                                             /*  Reset ppriv  */
      227    15515                                                             /*  Set privs. */
      228    15516    2   DO I = 0 TO 3 ;
      229    15517    2      AS_USERS.PPRIV(I) = %PPR_EL#;
      230    15518    2      AS_USERS.PRIV(I) = %PR_SPCLMM# | %PR_TND# | %PR_PM# | %PR_MFEP# ;
      231    15519                                                               /**/
      232    15520    2      KL$TREC.KL$FETS.PPRIV(I) = %PPR_EL#;
      233    15521    2      KL$TREC.KL$FETS.PRIV(I) = %PR_SPCLMM# | %PR_TND# | %PR_PM# | %PR_MFEP# | %
             15521               PR_MSYS# ;
      234    15522    2      END ; /* Do i */
      235    15523    1   USERS_KEY.COUNT = 15 ;
      236    15524    1   USERS_KEY.TXTC = ':FED    SUPPORT' ;
      237    15525    1   CALL ASB$WRITE_USERS( AS_USERS.ACCT ) ;
      238    15526    1   KL$TREC.PASSWORD = AS_BLANK ;
      239    15527    1   CALL ASZ$SCRAMBLE( KL$TREC.PASSWORD ) ;
      240    15528    1   CALL ASB$WRITE_HLP( TREC$, ARS ) ;
PL6.E3A0      #001=ASA$B_USERS_HLP File=ASB$BUILD_DEFAULT_FILES.:E05TSI          TUE 07/29/97 08:55 Page:17
      241    15529    1   AS_USERS.ACCT = AS_BLANK ;
      242    15530    1   AS_USERS.NAME = AS_BLANK ;
      243    15531    1   KL$TREC.PASSWORD = AS_BLANK ;
      244    15532    1   CALL ASZ$SCRAMBLE( KL$TREC.PASSWORD ) ;
      245    15533    1   KL$TREC.FLAGS.GHOSTOK = AS_FALSE ;
      246    15534    1   KL$TREC.FLAGS.TPOK = AS_FALSE ;
      247    15535    1   KL$TREC.FLAGS.FEOK = AS_FALSE ;
      248    15536                                                              /**/
      249    15537    2   DO I = 0 TO 3 ;
      250    15538    2      AS_USERS.PRIV(I) = TEMP_PRIV(I) ;
      251    15539    2      KL$TREC.KL$FETS.PRIV(I) = TEMP_FE_PRIV(I) ;
      252    15540    2      END ; /*   Do i   */
      253    15541                                                              /**/
      254    15542    1   KL_DEVICE.KC_CGID.NAME#.TXT = 'OSCG' ;
      255    15543                                                              /* Create term/twsn
      256    15544                                                                 convert record */
      257    15545    1   WSNCVT$ = OUT_BUF$ ;
      258    15546    1   KL$WSNCVT = '0'B ;
      259    15547    1   KL$WSNCVT.WSN(0) = 'LOCAL' ;
      260    15548    1   KL$WSNCVT.LTWSN = 0 ;
      261    15549    1   KL$WSNCVT.ATYPE = %KLAT_NULL#;
      262    15550    1   ARS = LENGTHC( KL$WSNCVT ) ;
      263    15551    1   USERS_KEY.COUNT = 4 ;
      264    15552    1   USERS_KEY.TXTC = 'TERM' ;
      265    15553    1   CALL ASB$WRITE_HLP( WSNCVT$, ARS ) ;
      266    15554                                                              /**/
      267    15555    1   CALL ASB$CLOSE_USERS ;
      268    15556    1   CALL ASB$CLOSE_HLP ;
      269    15557                                                              /**/
      270    15558    1   RETURN ;
      271    15559                                                              /**/
      272    15560    1   END   ASA$B_USERS_HLP ;
      273    15561        %EOD;

PL6.E3A0      #001=ASA$B_USERS_HLP File=ASB$BUILD_DEFAULT_FILES.:E05TSI          TUE 07/29/97 08:55 Page:18
--  Include file information  --

   B$JIT_C.:E05TOU  is referenced.
   OC$INFO.:E05TOU  is referenced.
   FOO_MAC_C.:E05TOU  is referenced.
   FI_MAC_C.:E05TOU  is referenced.
   KC$CGBLK.:E05TOU  is referenced.
   AS_SUPER_R.:E05TOU  cannot be made into a system file and is referenced.
   AS_SUBS_C.:E05TOU  is referenced.
   AS_PERR_C.:E05TOU  is referenced.
   XU_MACRO_C.:E05TOU  is referenced.
   XU_FORMAT_C.:E05TOU  is referenced.
   KL_SUPER_C.:E05TOU  is referenced.
   AS_MAC_C.:E05TOU  cannot be made into a system file and is referenced.
   AS_SUPER_C.:E05TOU  is referenced.
   AS_ENTRIES_M.:E05TOU  is referenced.
      No diagnostics issued in procedure ASA$B_USERS_HLP.

   Procedure ASA$B_USERS_HLP requires 392 words for executable code.
   Procedure ASA$B_USERS_HLP requires 20 words of local(AUTO) storage.

PL6.E3A0      #001=ASA$B_USERS_HLP File=ASB$BUILD_DEFAULT_FILES.:E05TSI          TUE 07/29/97 08:55 Page:19

 Object Unit name= ASA$B_USERS_HLP                            File name= ASB$BUILD_DEFAULT_FILES.:E05TOU
 UTS= JUL 29 '97 08:55:17.36 TUE                              Compiler= PL-6/E31         Sev=      00
 SharedLib= :SHARED_SYSTEM                                    Alt SharedLib=


    ****  Control sections  ****

 Sect   Type Bound  Init  Size OctSiz  Section name(segment info)
    0   DCB   even  none     0      0  M$LO
    1   Data  even  none   429    655  ASA$B_USERS_HLP
    2  RoData even  UTS     45     55  ASA$B_USERS_HLP
    3   Proc  even  none   392    610  ASA$B_USERS_HLP
    4  RoData even  none     3      3  ASA$B_USERS_HLP

    ****  Entry defs  ****

                              Check   Calling
                             calling  sequence
  Sect OctLoc Primary Altret sequence   type   Parms  Name
     3      0   yes            yes      Std        0  ASA$B_USERS_HLP
PL6.E3A0      #001=ASA$B_USERS_HLP File=ASB$BUILD_DEFAULT_FILES.:E05TSI          TUE 07/29/97 08:55 Page:20

  ****  Entry refs  ****

         Check        Calling
        calling       sequence
Altret sequence SRef   type   Args  Name
         yes          ~proc      0 XU_OUTPUT_OPTIONS
 yes     yes           Std       0 ASB$OPEN_USERS_CR
 yes     yes           Std       1 ASB$WRITE_USERS
 yes     yes           Std       0 ASB$CLOSE_USERS
 yes     yes           Std       2 ASB$WRITE_HLP
 yes     yes           Std       0 ASB$WRITE_USERS_KEY
 yes     yes           Std       0 ASB$CLOSE_HLP
 yes     yes           Std       0 ASB$OPEN_HLP_CR
         yes           Std       1 ASZ$SCRAMBLE
                       Std       0 B_CONSPOOL_D
                       nStd      0 X66_AUTO_0
                       nStd      0 X66_ARET

  ****  Data refs  ****

  Flags:  r = read only, s = secondary
Flgs Name                             Flgs Name                             Flgs Name
     B$JIT$                           r    AS_BLANK                         r    AS_TRUE
r    AS_FALSE                         r    AS_NONE                          r    AS_MODE
r    AS_FE_MODE                            M$LO                                  USERS_KEY
     OUT_BUF$                              ERR_CODE                              REMEM_VAR
     REM_FCMD                              ASA_BRKS_LOC                          AS_USERS
     AS_DEFAULT                            KL_DREC_CNT                           B_VECTNIL

  ****  Segment refs  ****

  Flags:  r = read only, s = secondary
Flgs Name                             Flgs Name                             Flgs Name
     ISSID
PL6.E3A0      #001=ASA$B_USERS_HLP File=ASB$BUILD_DEFAULT_FILES.:E05TSI          TUE 07/29/97 08:55 Page:21


        1        1        /*T***********************************************************/
        2        2        /*T*                                                         */
        3        3        /*T* Copyright (c) Bull HN Information Systems Inc., 1997    */
        4        4        /*T*                                                         */
        5        5        /*T***********************************************************/
        6        6        ASA$B_USERS_HLP: PROC ;

      6  3 000000   000000 700200 xent  ASA$B_USERS* TSX0  ! X66_AUTO_0
         3 000001   000024 000000                    ZERO    20,0

        7        7        %EJECT ;
PL6.E3A0      #001=ASA$B_USERS_HLP File=ASB$BUILD_DEFAULT_FILES.:E05TSI          TUE 07/29/97 08:55 Page:22
        8        8        /*********************************************************************/
        9        9        /*   Include files   include files   include files   include files   */
       10       10        /*********************************************************************/
       11       11                                                              /**/
       12       12        %INCLUDE AS_ENTRIES_M  ;
       13     1062        %INCLUDE AS_SUPER_C    ;
       14     1497        %INCLUDE AS_MAC_C      ;
       15     1577        %INCLUDE KL_SUPER_C    ;
       16     4479        %INCLUDE XU_FORMAT_C   ;
       17     4641        %INCLUDE XU_MACRO_C    ;
       18     7747        %INCLUDE AS_PERR_C     ;
       19     8349        %INCLUDE AS_SUBS_C     ;
       20     9763        %INCLUDE AS_SUPER_R    ;
       21    12779        %INCLUDE KC$CGBLK      ;
       22    12827        %INCLUDE FI_MAC_C      ;
       23    13197        %INCLUDE FOO_MAC_C     ;
       24    13945        %INCLUDE OC$INFO       ;
       25    14001        %INCLUDE B$JIT_C       ;
       26    14315             %B$JIT0 ;
       27    14404             %U$JIT1 ;
       28    14478             %M$JIT2 ;
       29    14488             %F$JIT3 ;
       30    14493             %S$JIT4 ;
       31    14499             %J$JIT5 ;
       32    14587             %A$JIT6 ;
       33    14597        %EJECT ;
PL6.E3A0      #001=ASA$B_USERS_HLP File=ASB$BUILD_DEFAULT_FILES.:E05TSI          TUE 07/29/97 08:55 Page:23
       34    14598        /*********************************************************************/
       35    14599        /*   Static data     static data     static data     static data     */
       36    14600        /*********************************************************************/
       37    14601                                                              /**/
       38    14602        %LIST;
       39    14603              %KL_DREC( NAME = KL_DEVICE ,
       40    14604                        TYP = %KLAT_CG# ,
       41    14605                        RN = '0'B ,
       42    14606                        GOK = '0'B ,
       43    14607                        WSN = 'OOPS' ,
       44    14608                        PASS = ' ' ,
       45    14609                        PRO = 'TTY' ,
       46    14610                        RNAME = ' ' ,
       47    14611                          STCLASS=STATIC,
       48    14612                          LAST = ","  ) ;
             14613         %LSET LISTDIR='0'B;
             14625    1   DCL 1 KL_DEVICE STATIC ALIGNED,
             14630    1         2 ATYP UBIN BYTE UNAL INIT(2)/**/,
             14633    1         2 FLAGS,
             14636    1           3 RNME BIT(1) UNAL INIT('0'B)/**/,
             14640    1           3 GHOSTOK BIT(1) UNAL INIT('0'B)/**/,
             14643    1           3 OLOK BIT(1) INIT('1'B)/**/,
             14647    1           3 BATOK BIT(1) INIT('1'B)/**/,
             14651    1           3 GJOB BIT(1) INIT('0'B)/**/,
             14654    1           3 USETP BIT(1) INIT('0'B)/**/,
             14659    1           3 NOCGREJ BIT(1) INIT('0'B)/**/,
             14664    1           3 NOCGINF BIT(1) INIT('0'B)/**/,
             14667    1           3 TPOK BIT(1) INIT('0'B)/**/,
             14671    1           3 FEOK BIT(1) INIT('0'B)/**/,
             14674    1         2 COS UBIN(8)  UNAL INIT(0)/**/,
             14677    1         2 SUPER UBIN(9) UNAL INIT(0)/**/,
             14680    1         2 TWSN# CHAR(4) INIT('OOPS')/**/,
             14683    1         2 PASSWORD CHAR(8) INIT(' ')/**/,
             14687    1         2 ENCODPW REDEF PASSWORD BIT(72),
             14689    1         2 PNAME,
             14697    1           3 CNT UBIN BYTE UNAL INIT(3)/**/,
             14700    1           3 TXT CHAR(11) UNAL INIT('TTY')/**/,
PL6.E3A0      #001=ASA$B_USERS_HLP File=ASB$BUILD_DEFAULT_FILES.:E05TSI          TUE 07/29/97 08:55 Page:24
             14703    1         2 WOO CHAR(8) INIT('LOCAL')/**/,
             14706    1         2 RENAME CHAR(8) INIT(' ')/**/,
             14707    1         2 HPS REDEF RENAME,
             14711    1           3 N CHAR(6) UNAL,
             14712    1           3 * CHAR(2) UNAL,
             14716    1         2 TNAME CHAR(8) INIT(' ')/**/,
             14720    1         2 SNAME CHAR(8) INIT('LOCAL')/**/,
             14723    1         2 NWINFO UBIN WORD INIT(0)/**/,
       49    14725              %KC$CGID(FPTN = KC_CGID,
       50    14726                          STCLASS= STCLASS,
       51    14727                          LAST = "," ,
       52    14728                          LVL = 2 ) ;
             14729         %LSET LISTDIR='0'B;
             14745    1         2 KC_CGID ALIGNED,
             14747    1         3 ACCT# CHAR(8) /*(':SYS')/**/,
             14748    1         3 PSN# CHAR(6) /*(' ')/**/,
             14749    1         3 * UBIN(18) UNAL /*(0)/**/,
             14750    1         3 NAME#,
             14751    1           4 CNT UBIN BYTE UNAL /*(LENGTHC(' '))/**/,
             14752    1           4 TXT CHAR(31) /*(' ')/**/,
       53    14754              %OC$INFO ( FPTN = OCINFO ,
       54    14755                         LVL = 2,
       55    14756                         LAST ="," ) ;
             14757         %LSET LISTDIR='0'B;
             14772    1         2 OCINFO ALIGNED,
             14774    1           3 CADDR BIT(18) /*('0'B)/**/,
             14776    1           3 LANG CHAR(1) /*(' ')/**/,
             14778    1           3 MXPRI UBIN(9) UNAL /*(7)/**/,
             14780    1           3 KCADDR BIT(18) /*('0'B)/**/,
             14782    1           3 * BIT(18) /*('0'B)/**/,
             14783    1           3 WSN CHAR(8) /*('LOCAL')/**/,
             14785    1           3 TNAME CHAR(8) /*('LOCAL')/**/,
             14787    1           3 * UBIN WORD /*(0)/**/,
             14788    1           3 CMDCNT UBIN WORD /*(0)/**/,
             14790    1           3 CMD CHAR(80) /*(' ')/**/ ,
       56    14793               %FO_CONINFO ( FPTN = OSINFO,
       57    14794                          LVL = 2,
PL6.E3A0      #001=ASA$B_USERS_HLP File=ASB$BUILD_DEFAULT_FILES.:E05TSI          TUE 07/29/97 08:55 Page:25
       58    14795                          LAST = "," ) ;
             14796         %LSET LISTDIR='0'B;
             14812    1       2 OSINFO ALIGNED,
             14815    1       3 UPLOCKED BIT(1) UNAL INIT('0'B)/**/,
             14817    1         3 * BIT(35) UNAL INIT('0'B)/**/,
             14818    1         3 FNAME CHAR(6) UNAL INIT(' ')/**/,
             14821    1         3 FORM REDEF FNAME CHAR(6) UNAL,
             14822    1         3 FORMR REDEF FNAME BIT(54) UNAL,
             14823    1         3 * CHAR(2) UNAL INIT(' ')/**/,
             14824    1         3 TNAME CHAR(8) INIT(' ')/**/ ,
       59    14826              %FI_CONINFO(FPTN = ISINFO,
       60    14827                          STCLASS=STCLASS,
       61    14828                          LVL = 2 ,
       62    14829                          LAST = ";" ) ;
             14830         %LSET LISTDIR='0'B;
             14846    1       2 ISINFO ALIGNED,
             14849    1       3 NCTL BIT(1) UNAL /*('0'B)/**/,
             14851    1         3 NCTLOK BIT(1) UNAL /*('1'B)/**/,
             14853    1         3 NCTLFID BIT(1) UNAL /*('0'B)/**/,
             14856    1         3 * BIT(15) UNAL /*('0'B)/**/,
             14858    1         3 DFLTPRI UBIN BYTE UNAL /*(7)/**/,
             14859    1         3 DFPRI REDEF DFLTPRI UBIN BYTE UNAL,
             14860    1         3 MXPRI UBIN BYTE UNAL /*(7)/**/,
             14862    1         3 NCACCT CHAR(8) UNAL /*(':NCTL')/**/,
             14865    1         3 NFID CHAR(80) UNAL /*(' ')/**/,
             14868    1         3 TNAME CHAR(8) UNAL /*(' ')/**/,
             14870    1         3 WSN CHAR(8) UNAL /*(' ')/**/ ;
       63    14873              %KL_DREC( NAME = KL_TSREC ,
       64    14874                        TYP = %KLAT_TS# ,
       65    14875                        RN = '0'B ,
       66    14876                        GOK = '0'B ,
       67    14877                        WSN = '0000' ,
       68    14878                        PASS = ' ' ,
       69    14879                        PRO = ' ' ,
       70    14880                        RNAME = 'SYS' ,
       71    14881                        STCLASS=STATIC,
       72    14882                        LAST=","  ) ;
PL6.E3A0      #001=ASA$B_USERS_HLP File=ASB$BUILD_DEFAULT_FILES.:E05TSI          TUE 07/29/97 08:55 Page:26
             14883         %LSET LISTDIR='0'B;
             14895    1   DCL 1 KL_TSREC STATIC ALIGNED,
             14900    1         2 ATYP UBIN BYTE UNAL INIT(1)/**/,
             14903    1         2 FLAGS,
             14906    1           3 RNME BIT(1) UNAL INIT('0'B)/**/,
             14910    1           3 GHOSTOK BIT(1) UNAL INIT('0'B)/**/,
             14913    1           3 OLOK BIT(1) INIT('1'B)/**/,
             14917    1           3 BATOK BIT(1) INIT('1'B)/**/,
             14921    1           3 GJOB BIT(1) INIT('0'B)/**/,
             14924    1           3 USETP BIT(1) INIT('0'B)/**/,
             14929    1           3 NOCGREJ BIT(1) INIT('0'B)/**/,
             14934    1           3 NOCGINF BIT(1) INIT('0'B)/**/,
             14937    1           3 TPOK BIT(1) INIT('0'B)/**/,
             14941    1           3 FEOK BIT(1) INIT('0'B)/**/,
             14944    1         2 COS UBIN(8)  UNAL INIT(0)/**/,
             14947    1         2 SUPER UBIN(9) UNAL INIT(0)/**/,
             14950    1         2 TWSN# CHAR(4) INIT('0000')/**/,
             14953    1         2 PASSWORD CHAR(8) INIT(' ')/**/,
             14957    1         2 ENCODPW REDEF PASSWORD BIT(72),
             14959    1         2 PNAME,
             14967    1           3 CNT UBIN BYTE UNAL INIT(0)/**/,
             14970    1           3 TXT CHAR(11) UNAL INIT(' ')/**/,
             14973    1         2 WOO CHAR(8) INIT('LOCAL')/**/,
             14976    1         2 RENAME CHAR(8) INIT('SYS')/**/,
             14977    1         2 HPS REDEF RENAME,
             14981    1           3 N CHAR(6) UNAL,
             14982    1           3 * CHAR(2) UNAL,
             14986    1         2 TNAME CHAR(8) INIT(' ')/**/,
             14990    1         2 SNAME CHAR(8) INIT('LOCAL')/**/,
             14993    1         2 NWINFO UBIN WORD INIT(0)/**/,
       73    14995              %KL_FEBLK (NAME = KL_FETS,
       74    14996                         LVL = 2 ,
       75    14997                         STCLASS = STATIC );
             14998         %LSET LISTDIR='0'B;
             15013    1         2 KL_FETS,
             15015    1           3 BILL(0:3) CHAR(6) UNAL INIT('1','1','1','1')/**/,
             15016    1           3 DBACCN CHAR(8) UNAL INIT(' ')/**/,
PL6.E3A0      #001=ASA$B_USERS_HLP File=ASB$BUILD_DEFAULT_FILES.:E05TSI          TUE 07/29/97 08:55 Page:27
             15017    1           3 MINTS(0:3) UBIN BYTE UNAL INIT(0*0)/**/,
             15018    1           3 MFPRG UBIN BYTE UNAL INIT(255)/**/,
             15019    1           3 MACCTMEM UBIN HALF UNAL INIT(9999)/**/,
             15020    1           3 FLAGS,
             15021    1           4 STEPACCT BIT(1) INIT('0'B)/**/,
             15022    1           4 * BIT(8) INIT('0'B*0)/**/,
             15023    1           3 PRIV(0:3) BIT(36) ALIGNED INIT('0'B*0)/**/,
             15024    1           3 PPRIV(0:3) BIT(36) ALIGNED INIT('0'B*0)/**/,
             15025    1          3 MTIME(0:3) SBIN WORD UNAL INIT(59999400, 59999400, 59999400, 59999400)/**/
             15025                    ,
             15026    1           3 MMEM(0:3) UBIN HALF UNAL INIT(128,128,128,128)/**/,
             15027    1           3 CXTMEM(0:7) ,
             15028    1           4 UMAX UBIN HALF UNAL INIT(0*0)/**/,
             15029    1           4 CMAX UBIN HALF UNAL INIT(0*0)/**/,
             15030    1           4 HMAX UBIN HALF UNAL INIT(0*0)/**/,
             15031    1           4 GMAX UBIN HALF UNAL INIT(0*0)/**/,
             15032    1           3 PSDOL(0:7) ,
             15033    1           4 PSDO_NAME CHAR(8) UNAL INIT(' '*0)/**/,
             15034    1           4 UMAX UBIN HALF UNAL INIT(0*0)/**/,
             15035    1           4 CMAX UBIN HALF UNAL INIT(0*0)/**/,
             15036    1           4 HMAX UBIN HALF UNAL INIT(0*0)/**/,
             15037    1           4 GMAX UBIN HALF UNAL INIT(0*0)/**/,
             15038    1           3 RESL_CNT UBIN HALF UNAL INIT(0)/**/,
             15039    1           3 RESL(0:0),
             15040    1           4 RNAME CHAR(2) UNAL INIT(' '*0)/**/,
             15041    1           4 UMAX UBIN HALF UNAL INIT(0*0)/**/,
             15042    1           4 CMAX UBIN HALF UNAL INIT(0*0)/**/,
             15043    1           4 HMAX UBIN HALF UNAL INIT(0*0)/**/,
             15044    1           4 GMAX UBIN HALF UNAL INIT(0*0)/**/;
       76    15046              %KL_DREC(   NAME = KL_TREC ,
       77    15047                          STCLASS = CONSTANT ,
       78    15048                          TYP = %KLAT_TRM# ,
       79    15049                          RNAME = ' ' ,
       80    15050                          PASS = ' ' ,
       81    15051                          PRO = ' ' ,
       82    15052                  WORG = ' ',
       83    15053                  LAST = ";" ) ;
PL6.E3A0      #001=ASA$B_USERS_HLP File=ASB$BUILD_DEFAULT_FILES.:E05TSI          TUE 07/29/97 08:55 Page:28
             15054         %LSET LISTDIR='0'B;
             15066    1   DCL 1 KL_TREC CONSTANT ALIGNED,
             15071    1         2 ATYP UBIN BYTE UNAL INIT(4)/**/,
             15074    1         2 FLAGS,
             15077    1           3 RNME BIT(1) UNAL INIT('0'B)/**/,
             15081    1           3 GHOSTOK BIT(1) UNAL INIT('0'B)/**/,
             15084    1           3 OLOK BIT(1) INIT('1'B)/**/,
             15088    1           3 BATOK BIT(1) INIT('1'B)/**/,
             15092    1           3 GJOB BIT(1) INIT('0'B)/**/,
             15095    1           3 USETP BIT(1) INIT('0'B)/**/,
             15100    1           3 NOCGREJ BIT(1) INIT('0'B)/**/,
             15105    1           3 NOCGINF BIT(1) INIT('0'B)/**/,
             15108    1           3 TPOK BIT(1) INIT('0'B)/**/,
             15112    1           3 FEOK BIT(1) INIT('0'B)/**/,
             15115    1         2 COS UBIN(8)  UNAL INIT(0)/**/,
             15118    1         2 SUPER UBIN(9) UNAL INIT(0)/**/,
             15121    1         2 TWSN# CHAR(4) INIT('0000')/**/,
             15124    1         2 PASSWORD CHAR(8) INIT(' ')/**/,
             15128    1         2 ENCODPW REDEF PASSWORD BIT(72),
             15130    1         2 PNAME,
             15138    1           3 CNT UBIN BYTE UNAL INIT(0)/**/,
             15141    1           3 TXT CHAR(11) UNAL INIT(' ')/**/,
             15144    1         2 WOO CHAR(8) INIT(' ')/**/,
             15147    1         2 RENAME CHAR(8) INIT(' ')/**/,
             15148    1         2 HPS REDEF RENAME,
             15152    1           3 N CHAR(6) UNAL,
             15153    1           3 * CHAR(2) UNAL,
             15157    1         2 TNAME CHAR(8) INIT(' ')/**/,
             15161    1         2 SNAME CHAR(8) INIT('LOCAL')/**/,
             15164    1         2 NWINFO UBIN WORD INIT(0)/**/;
       84    15166        %LIST ;
       85    15167        %PLIST ;
       86    15168        %EJECT ;
PL6.E3A0      #001=ASA$B_USERS_HLP File=ASB$BUILD_DEFAULT_FILES.:E05TSI          TUE 07/29/97 08:55 Page:29
       87    15169        /********************************************************************/
       88    15170        /*   Auto data       auto data       auto data       auto data       */
       89    15171        /*********************************************************************/
       90    15172                                                              /**/
       91    15173    1   DCL I UBIN WORD ;
       92    15174    1   DCL ARS UBIN WORD ;
       93    15175    1   DCL TEMP_PRIV(0:3) BIT(36) ;
       94    15176    1   DCL TEMP_FE_PRIV(0:3) BIT(36) ;
       95    15177    1   DCL PTR$ PTR ;
       96    15178    1   DCL TREC$ PTR ;
       97    15179    1   DCL TWSNR$ PTR ;
       98    15180    1   DCL WSNCVT$ PTR ;
       99    15181    1   DCL TS_BUF STATIC CHAR(1000) INIT(' ') ;
      100    15182        %EJECT ;
PL6.E3A0      #001=ASA$B_USERS_HLP File=ASB$BUILD_DEFAULT_FILES.:E05TSI          TUE 07/29/97 08:55 Page:30
      101    15183        /*********************************************************************/
      102    15184        /*   Local based     local based     local based     local based     */
      103    15185        /*********************************************************************/
      104    15186                                                              /**/
      105    15187        %LIST ;
      106    15188              %KL_DREC ( NAME = KL$TREC ,
      107    15189                        STCLASS="BASED( TREC$ )",
      108    15190                        LAST = "," ) ;
             15191         %LSET LISTDIR='0'B;
             15203    1   DCL 1 KL$TREC BASED( TREC$ ) ALIGNED,
             15208    1         2 ATYP UBIN BYTE UNAL /*(1)/**/,
             15211    1         2 FLAGS,
             15214    1           3 RNME BIT(1) UNAL /*('0'B)/**/,
             15218    1           3 GHOSTOK BIT(1) UNAL /*('0'B)/**/,
             15221    1           3 OLOK BIT(1) /*('1'B)/**/,
             15225    1           3 BATOK BIT(1) /*('1'B)/**/,
             15229    1           3 GJOB BIT(1) /*('0'B)/**/,
             15232    1           3 USETP BIT(1) /*('0'B)/**/,
             15237    1           3 NOCGREJ BIT(1) /*('0'B)/**/,
             15242    1           3 NOCGINF BIT(1) /*('0'B)/**/,
             15245    1           3 TPOK BIT(1) /*('0'B)/**/,
             15249    1           3 FEOK BIT(1) /*('0'B)/**/,
             15252    1         2 COS UBIN(8)  UNAL /*(0)/**/,
             15255    1         2 SUPER UBIN(9) UNAL /*(0)/**/,
             15258    1         2 TWSN# CHAR(4) /*('0000')/**/,
             15261    1         2 PASSWORD CHAR(8) /*(' ')/**/,
             15265    1         2 ENCODPW REDEF PASSWORD BIT(72),
             15267    1         2 PNAME,
             15275    1           3 CNT UBIN BYTE UNAL /*(0)/**/,
             15278    1           3 TXT CHAR(11) UNAL /*(' ')/**/,
             15281    1         2 WOO CHAR(8) /*('LOCAL')/**/,
             15284    1         2 RENAME CHAR(8) /*('SYS')/**/,
             15285    1         2 HPS REDEF RENAME,
             15289    1           3 N CHAR(6) UNAL,
             15290    1           3 * CHAR(2) UNAL,
             15294    1         2 TNAME CHAR(8) /*(' ')/**/,
             15298    1         2 SNAME CHAR(8) /*('LOCAL')/**/,
PL6.E3A0      #001=ASA$B_USERS_HLP File=ASB$BUILD_DEFAULT_FILES.:E05TSI          TUE 07/29/97 08:55 Page:31
             15301    1         2 NWINFO UBIN WORD /*(0)/**/,
      109    15303              %KL_FEBLK (NAME = KL$FETS,
      110    15304                         LVL = 2,
      111    15305                         STCLASS = BASED ) ;
             15306         %LSET LISTDIR='0'B;
             15321    1         2 KL$FETS,
             15323    1           3 BILL(0:3) CHAR(6) UNAL /*('1','1','1','1')/**/,
             15324    1           3 DBACCN CHAR(8) UNAL /*(' ')/**/,
             15325    1           3 MINTS(0:3) UBIN BYTE UNAL /*(0*0)/**/,
             15326    1           3 MFPRG UBIN BYTE UNAL /*(255)/**/,
             15327    1           3 MACCTMEM UBIN HALF UNAL /*(9999)/**/,
             15328    1           3 FLAGS,
             15329    1           4 STEPACCT BIT(1) /*('0'B)/**/,
             15330    1           4 * BIT(8) /*('0'B*0)/**/,
             15331    1           3 PRIV(0:3) BIT(36) ALIGNED /*('0'B*0)/**/,
             15332    1           3 PPRIV(0:3) BIT(36) ALIGNED /*('0'B*0)/**/,
             15333    1           3 MTIME(0:3) SBIN WORD UNAL /*(59999400, 59999400, 59999400, 59999400)/**/,
             15334    1           3 MMEM(0:3) UBIN HALF UNAL /*(128,128,128,128)/**/,
             15335    1           3 CXTMEM(0:7) ,
             15336    1           4 UMAX UBIN HALF UNAL /*(0*0)/**/,
             15337    1           4 CMAX UBIN HALF UNAL /*(0*0)/**/,
             15338    1           4 HMAX UBIN HALF UNAL /*(0*0)/**/,
             15339    1           4 GMAX UBIN HALF UNAL /*(0*0)/**/,
             15340    1           3 PSDOL(0:7) ,
             15341    1           4 PSDO_NAME CHAR(8) UNAL /*(' '*0)/**/,
             15342    1           4 UMAX UBIN HALF UNAL /*(0*0)/**/,
             15343    1           4 CMAX UBIN HALF UNAL /*(0*0)/**/,
             15344    1           4 HMAX UBIN HALF UNAL /*(0*0)/**/,
             15345    1           4 GMAX UBIN HALF UNAL /*(0*0)/**/,
             15346    1           3 RESL_CNT UBIN HALF UNAL /*(0)/**/,
             15347    1           3 RESL(0:0),
             15348    1           4 RNAME CHAR(2) UNAL /*(' '*0)/**/,
             15349    1           4 UMAX UBIN HALF UNAL /*(0*0)/**/,
             15350    1           4 CMAX UBIN HALF UNAL /*(0*0)/**/,
             15351    1           4 HMAX UBIN HALF UNAL /*(0*0)/**/,
             15352    1           4 GMAX UBIN HALF UNAL /*(0*0)/**/;
      112    15354              %KL_TWSNREC(  NAME = KL$TWSNREC ,
PL6.E3A0      #001=ASA$B_USERS_HLP File=ASB$BUILD_DEFAULT_FILES.:E05TSI          TUE 07/29/97 08:55 Page:32
      113    15355                            STCLASS="BASED( TWSNR$ )") ;
             15356    1   DCL 1 NAME STCLASS ALIGNED,
             15357    1         2 WSN CHAR(8),          /* WSN name if any assigned   */
             15358    1         2 STATION CHAR(8),      /* Station name */
             15359    1         2 NDEV UBIN WORD,         /* NUMBER OF DEVICES IN DEVS */
             15360    1         2 DEVS (0:0),             /* DEVICE INFORMATION */
             15361    1           3 TYP CHAR(2) UNAL,     /* DEVICE TYPE ('LP') */
             15362    1           3 NUM CHAR(2) UNAL,     /* NUMBER WITHIN TYPE ('01') */
             15363    1           3 ATTR BIT(18) UNAL,    /* ATTRS FROM PROFILE HEADER */
             15364    1           3 DDEV BIT(9) UNAL,     /* FROM PROFILE HEADER.DDEV */
             15365    1           3 IO,            /* FROM PROFILE HEADER.IO */
             15366    1             4 INPUT BIT(1),
             15367    1             4 OUTPUT BIT(1),
             15368    1           3 TDEV BIT(1),        /* IF SET, IT IS SUBDEV FOR TERMINAL */
             15369    1           3 IOM_CONNECTED BIT(1), /* This is an IOM connect device */
             15370    1           3 RESOUCE_DEVICE BIT(1),   /* This is a resource device */
             15371    1           3 * BIT(4),
             15372    1           3 FNAME CHAR(6),   /* FNAME FROM DREC.OSINFO OR BLANKS */
             15373    1           3 * CHAR(2),
             15374    1           3 ACCT CHAR(8) UNAL,    /* LOGON ACCOUNT IF ANY */
             15375    1           3 TERM CHAR(8) UNAL,   /* TERMINAL OR STATION NAME */
             15376    1           3 PNAME,                /* DEFAULT PROFILE */
             15377    1             4 CNT UBIN BYTE UNAL,
             15378    1             4 TXT CHAR(11) UNAL;
      114    15380              %KL_WSNCVT( NAME = KL$WSNCVT ,
      115    15381                          STCLASS="BASED( WSNCVT$ )") ;
             15382    1   DCL 1 NAME STCLASS ALIGNED ,
             15383    1         2 ATYPE UBIN (9) CALIGNED ,
             15384    1         2 * UBIN                                         (27) CALIGNED ,
             15385    1         2 LTWSN UBIN WORD ALIGNED ,  /* LARGEST TWSN USED */
             15386    1         2 WSN(0:0) CHAR(8) ALIGNED ;  /* WSN INDEXED BY CHARBIN(TWSN) */
      116    15388        %PLIST ;
      117    15389        %EJECT ;
PL6.E3A0      #001=ASA$B_USERS_HLP File=ASB$BUILD_DEFAULT_FILES.:E05TSI          TUE 07/29/97 08:55 Page:33
      118    15390        /*********************************************************************/
      119    15391        /*   Entry dcls      entry dcls      entry dcls      entry dcls      */
      120    15392        /*********************************************************************/
      121    15393                                                              /**/
      122    15394        %ASB$OPEN_USERS_CR ;
      123    15397        %ASB$OPEN_HLP_CR ;
      124    15400        %ASB$WRITE_USERS ;
      125    15403        %ASB$WRITE_HLP ;
      126    15406        %ASB$CLOSE_USERS ;
      127    15409        %ASB$CLOSE_HLP ;
      128    15412        %ASZ$SCRAMBLE ;
      129    15415        %ASB$WRITE_USERS_KEY ;

  15416  3 000002                       BUILD_USERS* null
      130    15418        %EJECT ;
PL6.E3A0      #001=ASA$B_USERS_HLP File=ASB$BUILD_DEFAULT_FILES.:E05TSI          TUE 07/29/97 08:55 Page:34
      131    15419        /*********************************************************************/
      132    15420        /*   Procedure       procedure       procedure       procedure       */
      133    15421        /*********************************************************************/
      134    15422                                                              /**/
      135    15423        /*
      136    15424            ***            Begin procedure                    ***
      137    15425        */
      138    15426    1   BUILD_USERS_HLP: ;
      139    15427    1   CALL ASB$OPEN_USERS_CR ;

  15427  3 000002   000002 631400 xsym               EPPR1   B_VECTNIL+2
         3 000003   000000 701000 xent               TSX1    ASB$OPEN_USERS_CR
         3 000004   000000 011000                    NOP     0

      140    15428    1   CALL ASB$OPEN_HLP_CR ;

  15428  3 000005   000002 631400 xsym               EPPR1   B_VECTNIL+2
         3 000006   000000 701000 xent               TSX1    ASB$OPEN_HLP_CR
         3 000007   000000 011000                    NOP     0

      141    15429                                                              /*   Set up default.  */
      142    15430    1   USERS_KEY.COUNT = 7 ;

  15430  3 000010   007000 236003                    LDQ     3584,DU
         3 000011   000000 552040 xsym               STBQ    USERS_KEY,'40'O

      143    15431    1   USERS_KEY.TXTC = 'DEFAULT' ;

  15431  3 000012   040000 100400                    MLR     fill='040'O
         3 000013   000020 000007 2                  ADSC9   16                       cn=0,n=7
         3 000014   000000 200051 xsym               ADSC9   USERS_KEY                cn=1,n=41

      144    15432    1   AS_USERS.ACCT = 'DEFAULT' ;

  15432  3 000015   040000 100400                    MLR     fill='040'O
         3 000016   000020 000007 2                  ADSC9   16                       cn=0,n=7
         3 000017   000000 000010 xsym               ADSC9   AS_USERS                 cn=0,n=8
PL6.E3A0      #001=ASA$B_USERS_HLP File=ASB$BUILD_DEFAULT_FILES.:E05TSI          TUE 07/29/97 08:55 Page:35

      145    15433    1   AS_USERS.NAME = AS_BLANK ;

  15433  3 000020   040000 100400                    MLR     fill='040'O
         3 000021   000000 000001 xsym               ADSC9   AS_BLANK                 cn=0,n=1
         3 000022   000002 000014 xsym               ADSC9   AS_USERS+2               cn=0,n=12

      146    15434    1   AS_USERS.SETUP_CHRA.SIZE = 0 ;

  15434  3 000023   000361 450000 xsym               STZ     AS_USERS+241

      147    15435    1   CALL ASB$WRITE_USERS( AS_USERS.ACCT ) ;

  15435  3 000024   000000 630400 4                  EPPR0   0
         3 000025   000017 631400 xsym               EPPR1   B_VECTNIL+15
         3 000026   000000 701000 xent               TSX1    ASB$WRITE_USERS
         3 000027   000000 011000                    NOP     0

      148    15436    1   TREC$ = ADDR( TS_BUF ) ;

  15436  3 000030   000001 236000 4                  LDQ     1
         3 000031   200016 756100                    STQ     TREC$,,AUTO

      149    15437    1   TS_BUF = ' ' ;

  15437  3 000032   040000 100400                    MLR     fill='040'O
         3 000033   000035 000001 xsym               ADSC9   B_VECTNIL+29             cn=0,n=1
         3 000034   000263 001750 1                  ADSC9   TS_BUF                   cn=0,n=1000

      150    15438    1   KL$TREC = KL_TSREC ;

  15438  3 000035   200016 470500                    LDP0    TREC$,,AUTO
         3 000036   000100 100400                    MLR     fill='000'O
         3 000037   000130 000554 1                  ADSC9   KL_TSREC                 cn=0,n=364
         3 000040   000000 000554                    ADSC9   0,,PR0                   cn=0,n=364

      151    15439    1   KL$TREC.KL$FETS = KL_TSREC.KL_FETS ;
PL6.E3A0      #001=ASA$B_USERS_HLP File=ASB$BUILD_DEFAULT_FILES.:E05TSI          TUE 07/29/97 08:55 Page:36

  15439  3 000041   200016 470500                    LDP0    TREC$,,AUTO
         3 000042   000100 100400                    MLR     fill='000'O
         3 000043   000150 000454 1                  ADSC9   KL_TSREC+16              cn=0,n=300
         3 000044   000020 000454                    ADSC9   16,,PR0                  cn=0,n=300

      152    15440    1   KL$TREC.NWINFO = SIZEW( KL$TREC.KL$FETS) ;

  15440  3 000045   000113 235007                    LDA     75,DL
         3 000046   000017 755100                    STA     15,,PR0

      153    15441    1   ARS = LENGTHC( KL_DREC_CNT ) + KL$TREC.NWINFO * 4 ;

  15441  3 000047   000017 235100                    LDA     15,,PR0
         3 000050   000002 735000                    ALS     2
         3 000051   000100 035007                    ADLA    64,DL
         3 000052   200004 755100                    STA     ARS,,AUTO

      154    15442    1   KL$TREC.PASSWORD = AS_BLANK ;

  15442  3 000053   040100 100400                    MLR     fill='040'O
         3 000054   000000 000001 xsym               ADSC9   AS_BLANK                 cn=0,n=1
         3 000055   000002 000010                    ADSC9   2,,PR0                   cn=0,n=8

      155    15443    1   CALL ASZ$SCRAMBLE( KL$TREC.PASSWORD ) ;

  15443  3 000056   200016 236100                    LDQ     TREC$,,AUTO
         3 000057   000002 036003                    ADLQ    2,DU
         3 000060   200022 756100                    STQ     WSNCVT$+2,,AUTO
         3 000061   200022 630500                    EPPR0   WSNCVT$+2,,AUTO
         3 000062   000017 631400 xsym               EPPR1   B_VECTNIL+15
         3 000063   000000 701000 xent               TSX1    ASZ$SCRAMBLE
         3 000064   000000 011000                    NOP     0

      156    15444    1   CALL ASB$WRITE_HLP( TREC$, ARS ) ;

  15444  3 000065   200004 630500                    EPPR0   ARS,,AUTO
PL6.E3A0      #001=ASA$B_USERS_HLP File=ASB$BUILD_DEFAULT_FILES.:E05TSI          TUE 07/29/97 08:55 Page:37
         3 000066   200023 450500                    STP0    WSNCVT$+3,,AUTO
         3 000067   200016 631500                    EPPR1   TREC$,,AUTO
         3 000070   200022 451500                    STP1    WSNCVT$+2,,AUTO
         3 000071   200022 630500                    EPPR0   WSNCVT$+2,,AUTO
         3 000072   000020 631400 xsym               EPPR1   B_VECTNIL+16
         3 000073   000000 701000 xent               TSX1    ASB$WRITE_HLP
         3 000074   000000 011000                    NOP     0

      157    15445                                                  /* Setup default project */
      158    15446    1   USERS_KEY.COUNT = 21;

  15446  3 000075   025000 236003                    LDQ     10752,DU
         3 000076   000000 552040 xsym               STBQ    USERS_KEY,'40'O

      159    15447    1   USERS_KEY.TEXT(7) = 'P';

  15447  3 000077   120000 236003                    LDQ     40960,DU
         3 000100   000002 552040 xsym               STBQ    USERS_KEY+2,'40'O

      160    15448    1   USERS_KEY.TEXT(20) = 'S';

  15448  3 000101   000123 236003                    LDQ     83,DU
         3 000102   000005 552020 xsym               STBQ    USERS_KEY+5,'20'O

      161    15449    1   AS_DEFAULT.BUDGET.PROJ_ALLOWED = 0;

  15449  3 000103   000010 450000 xsym               STZ     AS_DEFAULT+8

      162    15450    1   AS_DEFAULT.SETUP_CHRA.SIZE = 0;

  15450  3 000104   000361 450000 xsym               STZ     AS_DEFAULT+241

      163    15451    1   CALL ASB$WRITE_USERS( AS_DEFAULT );

  15451  3 000105   000002 630400 4                  EPPR0   2
         3 000106   000017 631400 xsym               EPPR1   B_VECTNIL+15
         3 000107   000000 701000 xent               TSX1    ASB$WRITE_USERS
PL6.E3A0      #001=ASA$B_USERS_HLP File=ASB$BUILD_DEFAULT_FILES.:E05TSI          TUE 07/29/97 08:55 Page:38
         3 000110   000000 011000                    NOP     0

      164    15452    1   CALL ASB$WRITE_HLP( TREC$, ARS );

  15452  3 000111   200004 630500                    EPPR0   ARS,,AUTO
         3 000112   200023 450500                    STP0    WSNCVT$+3,,AUTO
         3 000113   200016 631500                    EPPR1   TREC$,,AUTO
         3 000114   200022 451500                    STP1    WSNCVT$+2,,AUTO
         3 000115   200022 630500                    EPPR0   WSNCVT$+2,,AUTO
         3 000116   000020 631400 xsym               EPPR1   B_VECTNIL+16
         3 000117   000000 701000 xent               TSX1    ASB$WRITE_HLP
         3 000120   000000 011000                    NOP     0

      165    15453    1   USERS_KEY.COUNT = 8;

  15453  3 000121   010000 236003                    LDQ     4096,DU
         3 000122   000000 552040 xsym               STBQ    USERS_KEY,'40'O

      166    15454    2   DO I = 0 TO 2;

  15454  3 000123   200003 450100                    STZ     I,,AUTO

      167    15455    2      AS_USERS.PPRIV(I) = AS_USERS.PPRIV(I) | %PPR_PADMIN#;

  15455  3 000124   200003 720100                    LXL0    I,,AUTO
         3 000125   000231 236010 xsym               LDQ     AS_USERS+153,X0
         3 000126   000026 276000 xsym               ORQ     B_VECTNIL+22
         3 000127   000231 756010 xsym               STQ     AS_USERS+153,X0

      168    15456    2      END;

  15456  3 000130   200003 235100                    LDA     I,,AUTO
         3 000131   000001 035007                    ADLA    1,DL
         3 000132   200003 755100                    STA     I,,AUTO
         3 000133   000003 115007                    CMPA    3,DL
         3 000134   000124 602000 3                  TNC     s:15455

PL6.E3A0      #001=ASA$B_USERS_HLP File=ASB$BUILD_DEFAULT_FILES.:E05TSI          TUE 07/29/97 08:55 Page:39
      169    15457    2   DO I = 0 TO 3;

  15457  3 000135   200003 450100                    STZ     I,,AUTO

      170    15458    2      KL$TREC.KL$FETS.PPRIV(I) = KL$TREC.KL$FETS.PPRIV(I) | %PPR_PADMIN#;

  15458  3 000136   200016 470500                    LDP0    TREC$,,AUTO
         3 000137   200003 720100                    LXL0    I,,AUTO
         3 000140   000036 236110                    LDQ     30,X0,PR0
         3 000141   000026 276000 xsym               ORQ     B_VECTNIL+22
         3 000142   000036 756110                    STQ     30,X0,PR0

      171    15459    2      END;

  15459  3 000143   200003 235100                    LDA     I,,AUTO
         3 000144   000001 035007                    ADLA    1,DL
         3 000145   200003 755100                    STA     I,,AUTO
         3 000146   000004 115007                    CMPA    4,DL
         3 000147   000136 602000 3                  TNC     s:15458

      172    15460    1   CALL ASB$WRITE_USERS( AS_USERS );

  15460  3 000150   000000 630400 4                  EPPR0   0
         3 000151   000017 631400 xsym               EPPR1   B_VECTNIL+15
         3 000152   000000 701000 xent               TSX1    ASB$WRITE_USERS
         3 000153   000000 011000                    NOP     0

      173    15461    1   CALL ASB$WRITE_HLP( TREC$, ARS );

  15461  3 000154   200004 630500                    EPPR0   ARS,,AUTO
         3 000155   200023 450500                    STP0    WSNCVT$+3,,AUTO
         3 000156   200016 631500                    EPPR1   TREC$,,AUTO
         3 000157   200022 451500                    STP1    WSNCVT$+2,,AUTO
         3 000160   200022 630500                    EPPR0   WSNCVT$+2,,AUTO
         3 000161   000020 631400 xsym               EPPR1   B_VECTNIL+16
         3 000162   000000 701000 xent               TSX1    ASB$WRITE_HLP
         3 000163   000000 011000                    NOP     0
PL6.E3A0      #001=ASA$B_USERS_HLP File=ASB$BUILD_DEFAULT_FILES.:E05TSI          TUE 07/29/97 08:55 Page:40

      174    15462    1   USERS_KEY.COUNT = 29;

  15462  3 000164   035000 236003                    LDQ     14848,DU
         3 000165   000000 552040 xsym               STBQ    USERS_KEY,'40'O

      175    15463    1   USERS_KEY.SKEY.PROJ = 1;

  15463  3 000166   000001 236003                    LDQ     1,DU
         3 000167   000000 552020 xsym               STBQ    USERS_KEY,'20'O

      176    15464    1   USERS_KEY.SKEY.CREATOR = AS_NONE.TEXT;

  15464  3 000170   040000 100400                    MLR     fill='040'O
         3 000171   000000 200024 xsym               ADSC9   AS_NONE                  cn=1,n=20
         3 000172   000000 400024 xsym               ADSC9   USERS_KEY                cn=2,n=20

      177    15465    1   USERS_KEY.SKEY.USER = 'DEFAULTP';

  15465  3 000173   040000 100400                    MLR     fill='040'O
         3 000174   000022 000010 2                  ADSC9   18                       cn=0,n=8
         3 000175   000005 400024 xsym               ADSC9   USERS_KEY+5              cn=2,n=20

      178    15466    1   CALL ASB$WRITE_USERS_KEY;

  15466  3 000176   000002 631400 xsym               EPPR1   B_VECTNIL+2
         3 000177   000000 701000 xent               TSX1    ASB$WRITE_USERS_KEY
         3 000200   000000 011000                    NOP     0

      179    15467        /*********************************************************************/
      180    15468        /*********************************************************************/
      181    15469        /*
      182    15470
      183    15471                        Build :SYS,LJS account.
      184    15472
      185    15473                        This section of code should be
      186    15474                        removed by release 1.
PL6.E3A0      #001=ASA$B_USERS_HLP File=ASB$BUILD_DEFAULT_FILES.:E05TSI          TUE 07/29/97 08:55 Page:41
      187    15475
      188    15476
      189    15477        */
      190    15478    1   AS_USERS.ACCT = ':SYS' ;

  15478  3 000201   040000 100400                    MLR     fill='040'O
         3 000202   000024 000004 2                  ADSC9   20                       cn=0,n=4
         3 000203   000000 000010 xsym               ADSC9   AS_USERS                 cn=0,n=8

      191    15479    1   AS_USERS.NAME = 'LJS' ;

  15479  3 000204   040000 100400                    MLR     fill='040'O
         3 000205   000025 000003 2                  ADSC9   21                       cn=0,n=3
         3 000206   000002 000014 xsym               ADSC9   AS_USERS+2               cn=0,n=12

      192    15480                                                              /**/
      193    15481    2   DO I = 0 TO 3 ;

  15481  3 000207   200003 450100                    STZ     I,,AUTO

      194    15482    2      TEMP_PRIV(I) = AS_USERS.PRIV(I) ;

  15482  3 000210   200003 720100                    LXL0    I,,AUTO
         3 000211   000225 236010 xsym               LDQ     AS_USERS+149,X0
         3 000212   200005 756110                    STQ     TEMP_PRIV,X0,AUTO

      195    15483    2      AS_USERS.PRIV(I) = '377777777777'O ;

  15483  3 000213   000031 236000 xsym               LDQ     B_VECTNIL+25
         3 000214   000225 756010 xsym               STQ     AS_USERS+149,X0

      196    15484    2      AS_USERS.PPRIV(I) = %( '777777777777'O & ~(%PPR_PADMIN#) );

  15484  3 000215   000026 236000 2                  LDQ     22
         3 000216   000231 756010 xsym               STQ     AS_USERS+153,X0

      197    15485                                                             /**/
PL6.E3A0      #001=ASA$B_USERS_HLP File=ASB$BUILD_DEFAULT_FILES.:E05TSI          TUE 07/29/97 08:55 Page:42
      198    15486    2      TEMP_FE_PRIV(I) = KL$TREC.KL$FETS.PRIV(I) ;

  15486  3 000217   200016 470500                    LDP0    TREC$,,AUTO
         3 000220   000032 236110                    LDQ     26,X0,PR0
         3 000221   200011 756110                    STQ     TEMP_FE_PRIV,X0,AUTO

      199    15487    2      KL$TREC.KL$FETS.PRIV(I) = '377777777777'O ;

  15487  3 000222   000031 236000 xsym               LDQ     B_VECTNIL+25
         3 000223   000032 756110                    STQ     26,X0,PR0

      200    15488    2      KL$TREC.KL$FETS.PPRIV(I) = %( '777777777777'O & ~(%PPR_PADMIN#) );

  15488  3 000224   000026 236000 2                  LDQ     22
         3 000225   200016 470500                    LDP0    TREC$,,AUTO
         3 000226   000036 756110                    STQ     30,X0,PR0

      201    15489    2      END ; /*   Do i   */

  15489  3 000227   200003 235100                    LDA     I,,AUTO
         3 000230   000001 035007                    ADLA    1,DL
         3 000231   200003 755100                    STA     I,,AUTO
         3 000232   000004 115007                    CMPA    4,DL
         3 000233   000210 602000 3                  TNC     s:15482

      202    15490                                                              /**/
      203    15491    1   USERS_KEY.COUNT = 11 ;

  15491  3 000234   013000 236003                    LDQ     5632,DU
         3 000235   000000 552040 xsym               STBQ    USERS_KEY,'40'O

      204    15492    1   USERS_KEY.TXTC = ':SYS    LJS' ;

  15492  3 000236   040000 100400                    MLR     fill='040'O
         3 000237   000027 000013 2                  ADSC9   23                       cn=0,n=11
         3 000240   000000 200051 xsym               ADSC9   USERS_KEY                cn=1,n=41

PL6.E3A0      #001=ASA$B_USERS_HLP File=ASB$BUILD_DEFAULT_FILES.:E05TSI          TUE 07/29/97 08:55 Page:43
      205    15493    1   CALL ASB$WRITE_USERS( AS_USERS.ACCT ) ;

  15493  3 000241   000000 630400 4                  EPPR0   0
         3 000242   000017 631400 xsym               EPPR1   B_VECTNIL+15
         3 000243   000000 701000 xent               TSX1    ASB$WRITE_USERS
         3 000244   000000 011000                    NOP     0

      206    15494    1   KL$TREC.FLAGS.GHOSTOK = AS_TRUE ;

  15494  3 000245   200016 470500                    LDP0    TREC$,,AUTO
         3 000246   000000 236000 xsym               LDQ     AS_TRUE
         3 000247   000012 772000                    QRL     10
         3 000250   000000 676100                    ERQ     0,,PR0
         3 000251   000200 376003                    ANQ     128,DU
         3 000252   000000 656100                    ERSQ    0,,PR0

      207    15495    1   KL$TREC.FLAGS.TPOK = AS_TRUE ;

  15495  3 000253   200016 470500                    LDP0    TREC$,,AUTO
         3 000254   000000 236000 xsym               LDQ     AS_TRUE
         3 000255   000021 772000                    QRL     17
         3 000256   000000 676100                    ERQ     0,,PR0
         3 000257   000001 376003                    ANQ     1,DU
         3 000260   000000 656100                    ERSQ    0,,PR0

      208    15496    1   KL$TREC.FLAGS.FEOK = AS_TRUE ;

  15496  3 000261   200016 470500                    LDP0    TREC$,,AUTO
         3 000262   000000 236000 xsym               LDQ     AS_TRUE
         3 000263   000022 772000                    QRL     18
         3 000264   000000 676100                    ERQ     0,,PR0
         3 000265   400000 376007                    ANQ     -131072,DL
         3 000266   000000 656100                    ERSQ    0,,PR0

      209    15497    1   KL$TREC.PASSWORD = AS_BLANK ;

  15497  3 000267   200016 470500                    LDP0    TREC$,,AUTO
PL6.E3A0      #001=ASA$B_USERS_HLP File=ASB$BUILD_DEFAULT_FILES.:E05TSI          TUE 07/29/97 08:55 Page:44
         3 000270   040100 100400                    MLR     fill='040'O
         3 000271   000000 000001 xsym               ADSC9   AS_BLANK                 cn=0,n=1
         3 000272   000002 000010                    ADSC9   2,,PR0                   cn=0,n=8

      210    15498    1   CALL ASZ$SCRAMBLE( KL$TREC.PASSWORD ) ;

  15498  3 000273   200016 236100                    LDQ     TREC$,,AUTO
         3 000274   000002 036003                    ADLQ    2,DU
         3 000275   200022 756100                    STQ     WSNCVT$+2,,AUTO
         3 000276   200022 630500                    EPPR0   WSNCVT$+2,,AUTO
         3 000277   000017 631400 xsym               EPPR1   B_VECTNIL+15
         3 000300   000000 701000 xent               TSX1    ASZ$SCRAMBLE
         3 000301   000000 011000                    NOP     0

      211    15499    1   CALL ASB$WRITE_HLP( TREC$, ARS ) ;

  15499  3 000302   200004 630500                    EPPR0   ARS,,AUTO
         3 000303   200023 450500                    STP0    WSNCVT$+3,,AUTO
         3 000304   200016 631500                    EPPR1   TREC$,,AUTO
         3 000305   200022 451500                    STP1    WSNCVT$+2,,AUTO
         3 000306   200022 630500                    EPPR0   WSNCVT$+2,,AUTO
         3 000307   000020 631400 xsym               EPPR1   B_VECTNIL+16
         3 000310   000000 701000 xent               TSX1    ASB$WRITE_HLP
         3 000311   000000 011000                    NOP     0

      212    15500    1   USERS_KEY.COUNT = 12 ;

  15500  3 000312   014000 236003                    LDQ     6144,DU
         3 000313   000000 552040 xsym               STBQ    USERS_KEY,'40'O

      213    15501    1   USERS_KEY.TXTC = ':SYSTAC LADC' ;

  15501  3 000314   040000 100400                    MLR     fill='040'O
         3 000315   000032 000014 2                  ADSC9   26                       cn=0,n=12
         3 000316   000000 200051 xsym               ADSC9   USERS_KEY                cn=1,n=41

      214    15502    1   AS_USERS.ACCT = ':SYSTAC' ;
PL6.E3A0      #001=ASA$B_USERS_HLP File=ASB$BUILD_DEFAULT_FILES.:E05TSI          TUE 07/29/97 08:55 Page:45

  15502  3 000317   040000 100400                    MLR     fill='040'O
         3 000320   000032 000007 2                  ADSC9   26                       cn=0,n=7
         3 000321   000000 000010 xsym               ADSC9   AS_USERS                 cn=0,n=8

      215    15503    1   AS_USERS.NAME = 'LADC' ;

  15503  3 000322   040000 100400                    MLR     fill='040'O
         3 000323   000034 000004 2                  ADSC9   28                       cn=0,n=4
         3 000324   000002 000014 xsym               ADSC9   AS_USERS+2               cn=0,n=12

      216    15504    1   CALL ASB$WRITE_USERS( AS_USERS.ACCT ) ;

  15504  3 000325   000000 630400 4                  EPPR0   0
         3 000326   000017 631400 xsym               EPPR1   B_VECTNIL+15
         3 000327   000000 701000 xent               TSX1    ASB$WRITE_USERS
         3 000330   000000 011000                    NOP     0

      217    15505    1   KL$TREC.PASSWORD = 'CP6' ;

  15505  3 000331   200016 470500                    LDP0    TREC$,,AUTO
         3 000332   040100 100400                    MLR     fill='040'O
         3 000333   000035 000003 2                  ADSC9   29                       cn=0,n=3
         3 000334   000002 000010                    ADSC9   2,,PR0                   cn=0,n=8

      218    15506    1   CALL ASZ$SCRAMBLE( KL$TREC.PASSWORD ) ;

  15506  3 000335   200016 236100                    LDQ     TREC$,,AUTO
         3 000336   000002 036003                    ADLQ    2,DU
         3 000337   200022 756100                    STQ     WSNCVT$+2,,AUTO
         3 000340   200022 630500                    EPPR0   WSNCVT$+2,,AUTO
         3 000341   000017 631400 xsym               EPPR1   B_VECTNIL+15
         3 000342   000000 701000 xent               TSX1    ASZ$SCRAMBLE
         3 000343   000000 011000                    NOP     0

      219    15507    1   CALL ASB$WRITE_HLP( TREC$, ARS ) ;

PL6.E3A0      #001=ASA$B_USERS_HLP File=ASB$BUILD_DEFAULT_FILES.:E05TSI          TUE 07/29/97 08:55 Page:46
  15507  3 000344   200004 630500                    EPPR0   ARS,,AUTO
         3 000345   200023 450500                    STP0    WSNCVT$+3,,AUTO
         3 000346   200016 631500                    EPPR1   TREC$,,AUTO
         3 000347   200022 451500                    STP1    WSNCVT$+2,,AUTO
         3 000350   200022 630500                    EPPR0   WSNCVT$+2,,AUTO
         3 000351   000020 631400 xsym               EPPR1   B_VECTNIL+16
         3 000352   000000 701000 xent               TSX1    ASB$WRITE_HLP
         3 000353   000000 011000                    NOP     0

      220    15508    1   KL$TREC.PASSWORD = AS_BLANK ;

  15508  3 000354   200016 470500                    LDP0    TREC$,,AUTO
         3 000355   040100 100400                    MLR     fill='040'O
         3 000356   000000 000001 xsym               ADSC9   AS_BLANK                 cn=0,n=1
         3 000357   000002 000010                    ADSC9   2,,PR0                   cn=0,n=8

      221    15509    1   CALL ASZ$SCRAMBLE( KL$TREC.PASSWORD ) ;

  15509  3 000360   200016 236100                    LDQ     TREC$,,AUTO
         3 000361   000002 036003                    ADLQ    2,DU
         3 000362   200022 756100                    STQ     WSNCVT$+2,,AUTO
         3 000363   200022 630500                    EPPR0   WSNCVT$+2,,AUTO
         3 000364   000017 631400 xsym               EPPR1   B_VECTNIL+15
         3 000365   000000 701000 xent               TSX1    ASZ$SCRAMBLE
         3 000366   000000 011000                    NOP     0

      222    15510                                                              /* Set :FED,SUPPORT */
      223    15511    1   AS_USERS.ACCT = ':FED' ;

  15511  3 000367   040000 100400                    MLR     fill='040'O
         3 000370   000036 000004 2                  ADSC9   30                       cn=0,n=4
         3 000371   000000 000010 xsym               ADSC9   AS_USERS                 cn=0,n=8

      224    15512    1   AS_USERS.NAME = 'SUPPORT' ;

  15512  3 000372   040000 100400                    MLR     fill='040'O
         3 000373   000037 000007 2                  ADSC9   31                       cn=0,n=7
PL6.E3A0      #001=ASA$B_USERS_HLP File=ASB$BUILD_DEFAULT_FILES.:E05TSI          TUE 07/29/97 08:55 Page:47
         3 000374   000002 000014 xsym               ADSC9   AS_USERS+2               cn=0,n=12

      225    15513                                                              /* Reset ppriv */
      226    15514                                                             /*  Reset ppriv  */
      227    15515                                                             /*  Set privs. */
      228    15516    2   DO I = 0 TO 3 ;

  15516  3 000375   200003 450100                    STZ     I,,AUTO

      229    15517    2      AS_USERS.PPRIV(I) = %PPR_EL#;

  15517  3 000376   000041 236000 2                  LDQ     33
         3 000377   200003 720100                    LXL0    I,,AUTO
         3 000400   000231 756010 xsym               STQ     AS_USERS+153,X0

      230    15518    2      AS_USERS.PRIV(I) = %PR_SPCLMM# | %PR_TND# | %PR_PM# | %PR_MFEP# ;

  15518  3 000401   000003 236000 xsym               LDQ     B_VECTNIL+3
         3 000402   000042 276000 2                  ORQ     34
         3 000403   000043 276000 2                  ORQ     35
         3 000404   000044 276000 2                  ORQ     36
         3 000405   000225 756010 xsym               STQ     AS_USERS+149,X0

      231    15519                                                               /**/
      232    15520    2      KL$TREC.KL$FETS.PPRIV(I) = %PPR_EL#;

  15520  3 000406   000041 236000 2                  LDQ     33
         3 000407   200016 470500                    LDP0    TREC$,,AUTO
         3 000410   000036 756110                    STQ     30,X0,PR0

      233    15521    2      KL$TREC.KL$FETS.PRIV(I) = %PR_SPCLMM# | %PR_TND# | %PR_PM# | %PR_MFEP# | %
             15521               PR_MSYS# ;

  15521  3 000411   000003 236000 xsym               LDQ     B_VECTNIL+3
         3 000412   000042 276000 2                  ORQ     34
         3 000413   000043 276000 2                  ORQ     35
         3 000414   000044 276000 2                  ORQ     36
PL6.E3A0      #001=ASA$B_USERS_HLP File=ASB$BUILD_DEFAULT_FILES.:E05TSI          TUE 07/29/97 08:55 Page:48
         3 000415   000012 276000 xsym               ORQ     B_VECTNIL+10
         3 000416   200016 470500                    LDP0    TREC$,,AUTO
         3 000417   000032 756110                    STQ     26,X0,PR0

      234    15522    2      END ; /* Do i */

  15522  3 000420   200003 235100                    LDA     I,,AUTO
         3 000421   000001 035007                    ADLA    1,DL
         3 000422   200003 755100                    STA     I,,AUTO
         3 000423   000004 115007                    CMPA    4,DL
         3 000424   000376 602000 3                  TNC     s:15517

      235    15523    1   USERS_KEY.COUNT = 15 ;

  15523  3 000425   017000 236003                    LDQ     7680,DU
         3 000426   000000 552040 xsym               STBQ    USERS_KEY,'40'O

      236    15524    1   USERS_KEY.TXTC = ':FED    SUPPORT' ;

  15524  3 000427   040000 100400                    MLR     fill='040'O
         3 000430   000045 000017 2                  ADSC9   37                       cn=0,n=15
         3 000431   000000 200051 xsym               ADSC9   USERS_KEY                cn=1,n=41

      237    15525    1   CALL ASB$WRITE_USERS( AS_USERS.ACCT ) ;

  15525  3 000432   000000 630400 4                  EPPR0   0
         3 000433   000017 631400 xsym               EPPR1   B_VECTNIL+15
         3 000434   000000 701000 xent               TSX1    ASB$WRITE_USERS
         3 000435   000000 011000                    NOP     0

      238    15526    1   KL$TREC.PASSWORD = AS_BLANK ;

  15526  3 000436   200016 470500                    LDP0    TREC$,,AUTO
         3 000437   040100 100400                    MLR     fill='040'O
         3 000440   000000 000001 xsym               ADSC9   AS_BLANK                 cn=0,n=1
         3 000441   000002 000010                    ADSC9   2,,PR0                   cn=0,n=8

PL6.E3A0      #001=ASA$B_USERS_HLP File=ASB$BUILD_DEFAULT_FILES.:E05TSI          TUE 07/29/97 08:55 Page:49
      239    15527    1   CALL ASZ$SCRAMBLE( KL$TREC.PASSWORD ) ;

  15527  3 000442   200016 236100                    LDQ     TREC$,,AUTO
         3 000443   000002 036003                    ADLQ    2,DU
         3 000444   200022 756100                    STQ     WSNCVT$+2,,AUTO
         3 000445   200022 630500                    EPPR0   WSNCVT$+2,,AUTO
         3 000446   000017 631400 xsym               EPPR1   B_VECTNIL+15
         3 000447   000000 701000 xent               TSX1    ASZ$SCRAMBLE
         3 000450   000000 011000                    NOP     0

      240    15528    1   CALL ASB$WRITE_HLP( TREC$, ARS ) ;

  15528  3 000451   200004 630500                    EPPR0   ARS,,AUTO
         3 000452   200023 450500                    STP0    WSNCVT$+3,,AUTO
         3 000453   200016 631500                    EPPR1   TREC$,,AUTO
         3 000454   200022 451500                    STP1    WSNCVT$+2,,AUTO
         3 000455   200022 630500                    EPPR0   WSNCVT$+2,,AUTO
         3 000456   000020 631400 xsym               EPPR1   B_VECTNIL+16
         3 000457   000000 701000 xent               TSX1    ASB$WRITE_HLP
         3 000460   000000 011000                    NOP     0

      241    15529    1   AS_USERS.ACCT = AS_BLANK ;

  15529  3 000461   040000 100400                    MLR     fill='040'O
         3 000462   000000 000001 xsym               ADSC9   AS_BLANK                 cn=0,n=1
         3 000463   000000 000010 xsym               ADSC9   AS_USERS                 cn=0,n=8

      242    15530    1   AS_USERS.NAME = AS_BLANK ;

  15530  3 000464   040000 100400                    MLR     fill='040'O
         3 000465   000000 000001 xsym               ADSC9   AS_BLANK                 cn=0,n=1
         3 000466   000002 000014 xsym               ADSC9   AS_USERS+2               cn=0,n=12

      243    15531    1   KL$TREC.PASSWORD = AS_BLANK ;

  15531  3 000467   200016 470500                    LDP0    TREC$,,AUTO
         3 000470   040100 100400                    MLR     fill='040'O
PL6.E3A0      #001=ASA$B_USERS_HLP File=ASB$BUILD_DEFAULT_FILES.:E05TSI          TUE 07/29/97 08:55 Page:50
         3 000471   000000 000001 xsym               ADSC9   AS_BLANK                 cn=0,n=1
         3 000472   000002 000010                    ADSC9   2,,PR0                   cn=0,n=8

      244    15532    1   CALL ASZ$SCRAMBLE( KL$TREC.PASSWORD ) ;

  15532  3 000473   200016 236100                    LDQ     TREC$,,AUTO
         3 000474   000002 036003                    ADLQ    2,DU
         3 000475   200022 756100                    STQ     WSNCVT$+2,,AUTO
         3 000476   200022 630500                    EPPR0   WSNCVT$+2,,AUTO
         3 000477   000017 631400 xsym               EPPR1   B_VECTNIL+15
         3 000500   000000 701000 xent               TSX1    ASZ$SCRAMBLE
         3 000501   000000 011000                    NOP     0

      245    15533    1   KL$TREC.FLAGS.GHOSTOK = AS_FALSE ;

  15533  3 000502   200016 470500                    LDP0    TREC$,,AUTO
         3 000503   000000 236000 xsym               LDQ     AS_FALSE
         3 000504   000012 772000                    QRL     10
         3 000505   000000 676100                    ERQ     0,,PR0
         3 000506   000200 376003                    ANQ     128,DU
         3 000507   000000 656100                    ERSQ    0,,PR0

      246    15534    1   KL$TREC.FLAGS.TPOK = AS_FALSE ;

  15534  3 000510   200016 470500                    LDP0    TREC$,,AUTO
         3 000511   000000 236000 xsym               LDQ     AS_FALSE
         3 000512   000021 772000                    QRL     17
         3 000513   000000 676100                    ERQ     0,,PR0
         3 000514   000001 376003                    ANQ     1,DU
         3 000515   000000 656100                    ERSQ    0,,PR0

      247    15535    1   KL$TREC.FLAGS.FEOK = AS_FALSE ;

  15535  3 000516   200016 470500                    LDP0    TREC$,,AUTO
         3 000517   000000 236000 xsym               LDQ     AS_FALSE
         3 000520   000022 772000                    QRL     18
         3 000521   000000 676100                    ERQ     0,,PR0
PL6.E3A0      #001=ASA$B_USERS_HLP File=ASB$BUILD_DEFAULT_FILES.:E05TSI          TUE 07/29/97 08:55 Page:51
         3 000522   400000 376007                    ANQ     -131072,DL
         3 000523   000000 656100                    ERSQ    0,,PR0

      248    15536                                                              /**/
      249    15537    2   DO I = 0 TO 3 ;

  15537  3 000524   200003 450100                    STZ     I,,AUTO

      250    15538    2      AS_USERS.PRIV(I) = TEMP_PRIV(I) ;

  15538  3 000525   200003 720100                    LXL0    I,,AUTO
         3 000526   200005 236110                    LDQ     TEMP_PRIV,X0,AUTO
         3 000527   000225 756010 xsym               STQ     AS_USERS+149,X0

      251    15539    2      KL$TREC.KL$FETS.PRIV(I) = TEMP_FE_PRIV(I) ;

  15539  3 000530   200011 236110                    LDQ     TEMP_FE_PRIV,X0,AUTO
         3 000531   200016 470500                    LDP0    TREC$,,AUTO
         3 000532   000032 756110                    STQ     26,X0,PR0

      252    15540    2      END ; /*   Do i   */

  15540  3 000533   200003 235100                    LDA     I,,AUTO
         3 000534   000001 035007                    ADLA    1,DL
         3 000535   200003 755100                    STA     I,,AUTO
         3 000536   000004 115007                    CMPA    4,DL
         3 000537   000525 602000 3                  TNC     s:15538

      253    15541                                                              /**/
      254    15542    1   KL_DEVICE.KC_CGID.NAME#.TXT = 'OSCG' ;

  15542  3 000540   040000 100400                    MLR     fill='040'O
         3 000541   000051 000004 2                  ADSC9   41                       cn=0,n=4
         3 000542   000024 200037 1                  ADSC9   KL_DEVICE+20             cn=1,n=31

      255    15543                                                              /* Create term/twsn
      256    15544                                                                 convert record */
PL6.E3A0      #001=ASA$B_USERS_HLP File=ASB$BUILD_DEFAULT_FILES.:E05TSI          TUE 07/29/97 08:55 Page:52
      257    15545    1   WSNCVT$ = OUT_BUF$ ;

  15545  3 000543   000000 236000 xsym               LDQ     OUT_BUF$
         3 000544   200020 756100                    STQ     WSNCVT$,,AUTO

      258    15546    1   KL$WSNCVT = '0'B ;

  15546  3 000545   200020 470500                    LDP0    WSNCVT$,,AUTO
         3 000546   000100 100400                    MLR     fill='000'O
         3 000547   000002 000001 xsym               ADSC9   B_VECTNIL+2              cn=0,n=1
         3 000550   000000 000020                    ADSC9   0,,PR0                   cn=0,n=16

      259    15547    1   KL$WSNCVT.WSN(0) = 'LOCAL' ;

  15547  3 000551   200020 470500                    LDP0    WSNCVT$,,AUTO
         3 000552   040100 100400                    MLR     fill='040'O
         3 000553   000052 000005 2                  ADSC9   42                       cn=0,n=5
         3 000554   000002 000010                    ADSC9   2,,PR0                   cn=0,n=8

      260    15548    1   KL$WSNCVT.LTWSN = 0 ;

  15548  3 000555   200020 470500                    LDP0    WSNCVT$,,AUTO
         3 000556   000001 450100                    STZ     1,,PR0

      261    15549    1   KL$WSNCVT.ATYPE = %KLAT_NULL#;

  15549  3 000557   200020 470500                    LDP0    WSNCVT$,,AUTO
         3 000560   777000 236003                    LDQ     -512,DU
         3 000561   000000 552140                    STBQ    0,'40'O,PR0

      262    15550    1   ARS = LENGTHC( KL$WSNCVT ) ;

  15550  3 000562   000020 235007                    LDA     16,DL
         3 000563   200004 755100                    STA     ARS,,AUTO

      263    15551    1   USERS_KEY.COUNT = 4 ;

PL6.E3A0      #001=ASA$B_USERS_HLP File=ASB$BUILD_DEFAULT_FILES.:E05TSI          TUE 07/29/97 08:55 Page:53
  15551  3 000564   004000 236003                    LDQ     2048,DU
         3 000565   000000 552040 xsym               STBQ    USERS_KEY,'40'O

      264    15552    1   USERS_KEY.TXTC = 'TERM' ;

  15552  3 000566   040000 100400                    MLR     fill='040'O
         3 000567   000054 000004 2                  ADSC9   44                       cn=0,n=4
         3 000570   000000 200051 xsym               ADSC9   USERS_KEY                cn=1,n=41

      265    15553    1   CALL ASB$WRITE_HLP( WSNCVT$, ARS ) ;

  15553  3 000571   200004 630500                    EPPR0   ARS,,AUTO
         3 000572   200023 450500                    STP0    WSNCVT$+3,,AUTO
         3 000573   200020 631500                    EPPR1   WSNCVT$,,AUTO
         3 000574   200022 451500                    STP1    WSNCVT$+2,,AUTO
         3 000575   200022 630500                    EPPR0   WSNCVT$+2,,AUTO
         3 000576   000020 631400 xsym               EPPR1   B_VECTNIL+16
         3 000577   000000 701000 xent               TSX1    ASB$WRITE_HLP
         3 000600   000000 011000                    NOP     0

      266    15554                                                              /**/
      267    15555    1   CALL ASB$CLOSE_USERS ;

  15555  3 000601   000002 631400 xsym               EPPR1   B_VECTNIL+2
         3 000602   000000 701000 xent               TSX1    ASB$CLOSE_USERS
         3 000603   000000 011000                    NOP     0

      268    15556    1   CALL ASB$CLOSE_HLP ;

  15556  3 000604   000002 631400 xsym               EPPR1   B_VECTNIL+2
         3 000605   000000 701000 xent               TSX1    ASB$CLOSE_HLP
         3 000606   000000 011000                    NOP     0

      269    15557                                                              /**/
      270    15558    1   RETURN ;

  15558  3 000607   000000 702200 xent               TSX2  ! X66_ARET
PL6.E3A0      #001=ASA$B_USERS_HLP File=ASB$BUILD_DEFAULT_FILES.:E05TSI          TUE 07/29/97 08:55 Page:54
      271    15559                                                              /**/
      272    15560    1   END   ASA$B_USERS_HLP ;
      273    15561        %EOD;

PL6.E3A0      #001=ASA$B_USERS_HLP File=ASB$BUILD_DEFAULT_FILES.:E05TSI          TUE 07/29/97 08:55 Page:55
--  Include file information  --

   B$JIT_C.:E05TOU  is referenced.
   OC$INFO.:E05TOU  is referenced.
   FOO_MAC_C.:E05TOU  is referenced.
   FI_MAC_C.:E05TOU  is referenced.
   KC$CGBLK.:E05TOU  is referenced.
   AS_SUPER_R.:E05TOU  cannot be made into a system file and is referenced.
   AS_SUBS_C.:E05TOU  is referenced.
   AS_PERR_C.:E05TOU  is referenced.
   XU_MACRO_C.:E05TOU  is referenced.
   XU_FORMAT_C.:E05TOU  is referenced.
   KL_SUPER_C.:E05TOU  is referenced.
   AS_MAC_C.:E05TOU  cannot be made into a system file and is referenced.
   AS_SUPER_C.:E05TOU  is referenced.
   AS_ENTRIES_M.:E05TOU  is referenced.
      No diagnostics issued in procedure ASA$B_USERS_HLP.
PL6.E3A0      #001=ASA$B_USERS_HLP File=ASB$BUILD_DEFAULT_FILES.:E05TSI          TUE 07/29/97 08:55 Page:56

 **** Variables and constants ****

  ****  Section 001  Data  ASA$B_USERS_HLP

  ****  Scalars and arrays  ****
OctLoc.c.b A Datatyp(siz) R M Lvl/name                 OctLoc.c.b A Datatyp(siz) R M Lvl/name

     0-0-0/w STRC(3168)  r     1 KL_DEVICE                130-0-0/w STRC(3276)  r     1 KL_TSREC
   263-0-0/c CHAR(1000)  r     1 TS_BUF

  ****  Auto variables  ****

  ****  Scalars and arrays  ****
OctLoc.c.b A Datatyp(siz) R M Lvl/name                 OctLoc.c.b A Datatyp(siz) R M Lvl/name

     4-0-0/w UBIN        r     1 ARS                        3-0-0/w UBIN        r     1 I
    11-0-0/b BIT         r     1 TEMP_FE_PRIV(0:3)
     5-0-0/b BIT         r     1 TEMP_PRIV(0:3)
    16-0-0/w PTR         r     1 TREC$                     17-0-0/w PTR         r     1 TWSNR$
    20-0-0/w PTR         r     1 WSNCVT$

  ****  SYMREF variables  ****

  ****  Scalars and arrays  ****
OctLoc.c.b A Datatyp(siz) R M Lvl/name                 OctLoc.c.b A Datatyp(siz) R M Lvl/name

     0-0-0/c CHAR        r     1 AS_BLANK                   0-0-0/w STRC(18576) r     1 AS_DEFAULT
     0-0-0/b BIT         r     1 AS_FALSE                   0-0-0/c STRC(189)   r     1 AS_NONE
     0-0-0/b BIT         r     1 AS_TRUE                    0-0-0/w STRC(18576) r     1 AS_USERS
     0-0-0/w PTR         r     1 B$JIT$                     0-0-0/w STRC(576)   r     1 KL_DREC_CNT
     0-0-0/w PTR         r     1 OUT_BUF$                   0-0-0/c STRC(378)   r     1 USERS_KEY

  ****  BASED and DCB variables  ****

  ****  Scalars and arrays  ****
OctLoc.c.b A Datatyp(siz) R M Lvl/name                 OctLoc.c.b A Datatyp(siz) R M Lvl/name

PL6.E3A0      #001=ASA$B_USERS_HLP File=ASB$BUILD_DEFAULT_FILES.:E05TSI          TUE 07/29/97 08:55 Page:57
     0-0-0/w STRC(3276)  r     1 KL$TREC                    0-0-0/w STRC(144)   r     1 KL$WSNCVT


   Procedure ASA$B_USERS_HLP requires 392 words for executable code.
   Procedure ASA$B_USERS_HLP requires 20 words of local(AUTO) storage.
PL6.E3A0      #001=ASA$B_USERS_HLP File=ASB$BUILD_DEFAULT_FILES.:E05TSI          TUE 07/29/97 08:55 Page:58
          *** CROSS REFERENCE LISTING ***
**     DENOTES     IDENTIFIER DEFINITION
<<                 IDENTIFIER'S VALUE SET
>>                 IDENTIFIER'S VALUE USED
<>                 IDENTIFIER SET AND/OR USED
--                 IDENTIFIER REFERENCED
PL6.E3A0      #001=ASA$B_USERS_HLP File=ASB$BUILD_DEFAULT_FILES.:E05TSI          TUE 07/29/97 08:55 Page:59
          MINI XREF LISTING

ARS
     15174**DCL     15441<<ASSIGN  15444<>CALL    15452<>CALL    15461<>CALL    15499<>CALL    15507<>CALL
     15528<>CALL    15550<<ASSIGN  15553<>CALL
ASA_BRKS_LOC
      9927**DCL      9927--REDEF
ASB$CLOSE_HLP
     15410**DCL-ENT 15556--CALL
ASB$CLOSE_USERS
     15407**DCL-ENT 15555--CALL
ASB$OPEN_HLP_CR
     15398**DCL-ENT 15428--CALL
ASB$OPEN_USERS_CR
     15395**DCL-ENT 15427--CALL
ASB$WRITE_HLP
     15404**DCL-ENT 15444--CALL    15452--CALL    15461--CALL    15499--CALL    15507--CALL    15528--CALL
     15553--CALL
ASB$WRITE_USERS
     15401**DCL-ENT 15435--CALL    15451--CALL    15460--CALL    15493--CALL    15504--CALL    15525--CALL
ASB$WRITE_USERS_KEY
     15416**DCL-ENT 15466--CALL
ASZ$SCRAMBLE
     15413**DCL-ENT 15443--CALL    15498--CALL    15506--CALL    15509--CALL    15527--CALL    15532--CALL
AS_BLANK
      9787**DCL     15433>>ASSIGN  15442>>ASSIGN  15497>>ASSIGN  15508>>ASSIGN  15526>>ASSIGN  15529>>ASSIGN
     15530>>ASSIGN  15531>>ASSIGN
AS_DEFAULT
     10505**DCL     15451<>CALL
AS_DEFAULT.BANNER_PERM
     10620**DCL     10621--REDEF
AS_DEFAULT.BUDGET.MACCT
     10525**DCL     10529--REDEF
AS_DEFAULT.BUDGET.MAX_PROJECTS
PL6.E3A0      #001=ASA$B_USERS_HLP File=ASB$BUILD_DEFAULT_FILES.:E05TSI          TUE 07/29/97 08:55 Page:60
     10538**DCL     10541--REDEF
AS_DEFAULT.BUDGET.PACCUM
     10521**DCL     10523--REDEF
AS_DEFAULT.BUDGET.PMAXC
     10516**DCL     10518--REDEF
AS_DEFAULT.BUDGET.PROJ_ALLOWED
     10518**DCL     15449<<ASSIGN
AS_DEFAULT.SETUP_CHRA.SIZE
     10635**DCL     15450<<ASSIGN
AS_DEFAULT.SETUP_CHRA.TXT
     10636**DCL     10637--REDEF   10638--REDEF
AS_DEFAULT_DREC.PASSWORD
     11890**DCL     11894--REDEF
AS_DEFAULT_DREC.RENAME
     11913**DCL     11914--REDEF
AS_DFLT.BANNER_PERM
     10442**DCL     10443--REDEF
AS_DFLT.BUDGET.MACCT
     10347**DCL     10351--REDEF
AS_DFLT.BUDGET.MAX_PROJECTS
     10360**DCL     10363--REDEF
AS_DFLT.BUDGET.PACCUM
     10343**DCL     10345--REDEF
AS_DFLT.BUDGET.PMAXC
     10338**DCL     10340--REDEF
AS_DFLT.SETUP_CHRA.TXT
     10458**DCL     10459--REDEF   10460--REDEF
AS_FALSE
      9787**DCL     15533>>ASSIGN  15534>>ASSIGN  15535>>ASSIGN
AS_FE_MODE
      9793**DCL      9794--REDEF
AS_MODE
      9790**DCL      9792--REDEF
AS_MOD_USER.ACCESS
     12655**DCL     12656--REDEF
AS_MOD_USER.BANNER
PL6.E3A0      #001=ASA$B_USERS_HLP File=ASB$BUILD_DEFAULT_FILES.:E05TSI          TUE 07/29/97 08:55 Page:61
     12642**DCL     12643--REDEF
AS_MOD_USER.BANNER_PERM
     12644**DCL     12645--REDEF
AS_MOD_USER.BILL
     12650**DCL     12651--REDEF
AS_MOD_USER.CPROC
     12646**DCL     12647--REDEF
AS_MOD_USER.FEBILL
     12726**DCL     12727--REDEF
AS_MOD_USER.FECXTMEM
     12743**DCL     12744--REDEF
AS_MOD_USER.FEMINTS
     12728**DCL     12729--REDEF
AS_MOD_USER.FEMMEM
     12739**DCL     12740--REDEF
AS_MOD_USER.FEMTIME
     12737**DCL     12738--REDEF
AS_MOD_USER.FEPPRIV
     12734**DCL     12736--REDEF
AS_MOD_USER.FEPRIV
     12731**DCL     12733--REDEF
AS_MOD_USER.FORCE_BIT
     12640**DCL     12641--REDEF
AS_MOD_USER.KEY
     12722**DCL     12724--REDEF
AS_MOD_USER.LASTCPROC
     12648**DCL     12649--REDEF
AS_MOD_USER.LIMITS.DO_
     12696**DCL     12697--REDEF
AS_MOD_USER.LIMITS.FPOOLS
     12712**DCL     12713--REDEF
AS_MOD_USER.LIMITS.LO
     12692**DCL     12693--REDEF
AS_MOD_USER.LIMITS.MEM
     12688**DCL     12689--REDEF
AS_MOD_USER.LIMITS.MPRIO
PL6.E3A0      #001=ASA$B_USERS_HLP File=ASB$BUILD_DEFAULT_FILES.:E05TSI          TUE 07/29/97 08:55 Page:62
     12716**DCL     12717--REDEF
AS_MOD_USER.LIMITS.PDIS
     12704**DCL     12705--REDEF
AS_MOD_USER.LIMITS.PO
     12700**DCL     12701--REDEF
AS_MOD_USER.LIMITS.TDIS
     12708**DCL     12709--REDEF
AS_MOD_USER.LIMITS.TIME
     12684**DCL     12685--REDEF
AS_MOD_USER.MAXENQ
     12665**DCL     12666--REDEF
AS_MOD_USER.PERM_BIT
     12638**DCL     12639--REDEF
AS_MOD_USER.PPRIV
     12660**DCL     12662--REDEF
AS_MOD_USER.PRIOB
     12667**DCL     12668--REDEF
AS_MOD_USER.PRIV
     12657**DCL     12659--REDEF
AS_MOD_USER.QUAN
     12663**DCL     12664--REDEF
AS_MOD_USER.SETUP
     12636**DCL     12637--REDEF
AS_NONE.TEXT
      9788**DCL     15464>>ASSIGN
AS_PROJECT.BANNER_PERM
     10976**DCL     10977--REDEF
AS_PROJECT.BUDGET.MACCT
     10881**DCL     10885--REDEF
AS_PROJECT.BUDGET.MAX_PROJECTS
     10894**DCL     10897--REDEF
AS_PROJECT.BUDGET.PACCUM
     10877**DCL     10879--REDEF
AS_PROJECT.BUDGET.PMAXC
     10872**DCL     10874--REDEF
AS_PROJECT.SETUP_CHRA.TXT
PL6.E3A0      #001=ASA$B_USERS_HLP File=ASB$BUILD_DEFAULT_FILES.:E05TSI          TUE 07/29/97 08:55 Page:63
     10992**DCL     10993--REDEF   10994--REDEF
AS_PROJECT_DFLT.BANNER_PERM
     11154**DCL     11155--REDEF
AS_PROJECT_DFLT.BUDGET.MACCT
     11059**DCL     11063--REDEF
AS_PROJECT_DFLT.BUDGET.MAX_PROJECTS
     11072**DCL     11075--REDEF
AS_PROJECT_DFLT.BUDGET.PACCUM
     11055**DCL     11057--REDEF
AS_PROJECT_DFLT.BUDGET.PMAXC
     11050**DCL     11052--REDEF
AS_PROJECT_DFLT.SETUP_CHRA.TXT
     11170**DCL     11171--REDEF   11172--REDEF
AS_PROJECT_DFLT_DREC.PASSWORD
     12376**DCL     12380--REDEF
AS_PROJECT_DFLT_DREC.RENAME
     12399**DCL     12400--REDEF
AS_PROJECT_DREC.PASSWORD
     12214**DCL     12218--REDEF
AS_PROJECT_DREC.RENAME
     12237**DCL     12238--REDEF
AS_PROJ_ADMIN.BANNER_PERM
     10798**DCL     10799--REDEF
AS_PROJ_ADMIN.BUDGET.MACCT
     10703**DCL     10707--REDEF
AS_PROJ_ADMIN.BUDGET.MAX_PROJECTS
     10716**DCL     10719--REDEF
AS_PROJ_ADMIN.BUDGET.PACCUM
     10699**DCL     10701--REDEF
AS_PROJ_ADMIN.BUDGET.PMAXC
     10694**DCL     10696--REDEF
AS_PROJ_ADMIN.SETUP_CHRA.TXT
     10814**DCL     10815--REDEF   10816--REDEF
AS_PROJ_ADMIN_DREC.PASSWORD
     12052**DCL     12056--REDEF
AS_PROJ_ADMIN_DREC.RENAME
PL6.E3A0      #001=ASA$B_USERS_HLP File=ASB$BUILD_DEFAULT_FILES.:E05TSI          TUE 07/29/97 08:55 Page:64
     12075**DCL     12076--REDEF
AS_TRUE
      9787**DCL     15494>>ASSIGN  15495>>ASSIGN  15496>>ASSIGN
AS_USERS
     10149**DCL     15460<>CALL
AS_USERS.ACCT
     10150**DCL     15432<<ASSIGN  15435<>CALL    15478<<ASSIGN  15493<>CALL    15502<<ASSIGN  15504<>CALL
     15511<<ASSIGN  15525<>CALL    15529<<ASSIGN
AS_USERS.BANNER_PERM
     10264**DCL     10265--REDEF
AS_USERS.BUDGET.MACCT
     10169**DCL     10173--REDEF
AS_USERS.BUDGET.MAX_PROJECTS
     10182**DCL     10185--REDEF
AS_USERS.BUDGET.PACCUM
     10165**DCL     10167--REDEF
AS_USERS.BUDGET.PMAXC
     10160**DCL     10162--REDEF
AS_USERS.NAME
     10151**DCL     15433<<ASSIGN  15479<<ASSIGN  15503<<ASSIGN  15512<<ASSIGN  15530<<ASSIGN
AS_USERS.PPRIV
     10228**DCL     15455<<ASSIGN  15455>>ASSIGN  15484<<ASSIGN  15517<<ASSIGN
AS_USERS.PRIV
     10227**DCL     15482>>ASSIGN  15483<<ASSIGN  15518<<ASSIGN  15538<<ASSIGN
AS_USERS.SETUP_CHRA.SIZE
     10279**DCL     15434<<ASSIGN
AS_USERS.SETUP_CHRA.TXT
     10280**DCL     10281--REDEF   10282--REDEF
AS_USERS_CONSTANT.BANNER_PERM
     11332**DCL     11333--REDEF
AS_USERS_CONSTANT.BUDGET.MACCT
     11237**DCL     11241--REDEF
AS_USERS_CONSTANT.BUDGET.MAX_PROJECTS
     11250**DCL     11253--REDEF
AS_USERS_CONSTANT.BUDGET.PACCUM
     11233**DCL     11235--REDEF
PL6.E3A0      #001=ASA$B_USERS_HLP File=ASB$BUILD_DEFAULT_FILES.:E05TSI          TUE 07/29/97 08:55 Page:65
AS_USERS_CONSTANT.BUDGET.PMAXC
     11228**DCL     11230--REDEF
AS_USERS_CONSTANT.SETUP_CHRA.TXT
     11348**DCL     11349--REDEF   11350--REDEF
B$JIT.CPFLAGS1.SLEAZE
     14415**DCL     14415--REDEF
B$JIT.ERR.MID
     14322**DCL     14322--REDEF
B$JIT.JRESPEAK
     14483**DCL     14484--REDEF
B$JIT.ORIGINATOR_PORT.FROM_CR
     14592**DCL     14592--REDEF   14593--REDEF
B$JIT.PNR
     14496**DCL     14496--REDEF
B$JIT.TSLINE
     14590**DCL     14591--REDEF
B$JIT$
      9782**DCL     14316--IMP-PTR
ERR_CODE
      9922**DCL      9923--REDEF
I
     15173**DCL     15454<<DOINDEX 15455>>ASSIGN  15455>>ASSIGN  15457<<DOINDEX 15458>>ASSIGN  15458>>ASSIGN
     15481<<DOINDEX 15482>>ASSIGN  15482>>ASSIGN  15483>>ASSIGN  15484>>ASSIGN  15486>>ASSIGN  15486>>ASSIGN
     15487>>ASSIGN  15488>>ASSIGN  15516<<DOINDEX 15517>>ASSIGN  15518>>ASSIGN  15520>>ASSIGN  15521>>ASSIGN
     15537<<DOINDEX 15538>>ASSIGN  15538>>ASSIGN  15539>>ASSIGN  15539>>ASSIGN
KL$TREC
     15203**DCL     15438<<ASSIGN
KL$TREC.FLAGS.FEOK
     15249**DCL     15496<<ASSIGN  15535<<ASSIGN
KL$TREC.FLAGS.GHOSTOK
     15218**DCL     15494<<ASSIGN  15533<<ASSIGN
KL$TREC.FLAGS.TPOK
     15245**DCL     15495<<ASSIGN  15534<<ASSIGN
KL$TREC.KL$FETS
     15321**DCL     15439<<ASSIGN  15440--ASSIGN
KL$TREC.KL$FETS.PPRIV
PL6.E3A0      #001=ASA$B_USERS_HLP File=ASB$BUILD_DEFAULT_FILES.:E05TSI          TUE 07/29/97 08:55 Page:66
     15332**DCL     15458<<ASSIGN  15458>>ASSIGN  15488<<ASSIGN  15520<<ASSIGN
KL$TREC.KL$FETS.PRIV
     15331**DCL     15486>>ASSIGN  15487<<ASSIGN  15521<<ASSIGN  15539<<ASSIGN
KL$TREC.NWINFO
     15301**DCL     15440<<ASSIGN  15441>>ASSIGN
KL$TREC.PASSWORD
     15261**DCL     15265--REDEF   15442<<ASSIGN  15443<>CALL    15497<<ASSIGN  15498<>CALL    15505<<ASSIGN
     15506<>CALL    15508<<ASSIGN  15509<>CALL    15526<<ASSIGN  15527<>CALL    15531<<ASSIGN  15532<>CALL
KL$TREC.RENAME
     15284**DCL     15285--REDEF
KL$WSNCVT
     15382**DCL     15546<<ASSIGN  15550--ASSIGN
KL$WSNCVT.ATYPE
     15383**DCL     15549<<ASSIGN
KL$WSNCVT.LTWSN
     15385**DCL     15548<<ASSIGN
KL$WSNCVT.WSN
     15386**DCL     15547<<ASSIGN
KL_DEFAULT.PASSWORD
     12538**DCL     12542--REDEF
KL_DEFAULT.RENAME
     12561**DCL     12562--REDEF
KL_DEVICE.ISINFO.DFLTPRI
     14858**DCL     14859--REDEF
KL_DEVICE.KC_CGID.NAME#.TXT
     14752**DCL     15542<<ASSIGN
KL_DEVICE.OSINFO.FNAME
     14818**DCL     14821--REDEF   14822--REDEF
KL_DEVICE.PASSWORD
     14683**DCL     14687--REDEF
KL_DEVICE.RENAME
     14706**DCL     14707--REDEF
KL_DFLT.PASSWORD
     11728**DCL     11732--REDEF
KL_DFLT.RENAME
     11751**DCL     11752--REDEF
PL6.E3A0      #001=ASA$B_USERS_HLP File=ASB$BUILD_DEFAULT_FILES.:E05TSI          TUE 07/29/97 08:55 Page:67
KL_DREC.PASSWORD
     11566**DCL     11570--REDEF
KL_DREC.RENAME
     11589**DCL     11590--REDEF
KL_DREC_CNT
     11395**DCL     15441--ASSIGN
KL_DREC_CNT.PASSWORD
     11453**DCL     11457--REDEF
KL_DREC_CNT.RENAME
     11476**DCL     11477--REDEF
KL_TREC.PASSWORD
     15124**DCL     15128--REDEF
KL_TREC.RENAME
     15147**DCL     15148--REDEF
KL_TSREC
     14895**DCL     15438>>ASSIGN
KL_TSREC.KL_FETS
     15013**DCL     15439>>ASSIGN
KL_TSREC.PASSWORD
     14953**DCL     14957--REDEF
KL_TSREC.RENAME
     14976**DCL     14977--REDEF
OUT_BUF$
      9919**DCL     15545>>ASSIGN
PROJ_KEY.TEXT
      9800**DCL      9800--REDEF
PROJ_KEY.TXT.PROJECT
      9800**DCL      9800--REDEF
REMEM_VAR
      9926**DCL      9926--REDEF
REM_FCMD
      9926**DCL      9927--REDEF
TEMP_FE_PRIV
     15176**DCL     15486<<ASSIGN  15539>>ASSIGN
TEMP_PRIV
     15175**DCL     15482<<ASSIGN  15538>>ASSIGN
PL6.E3A0      #001=ASA$B_USERS_HLP File=ASB$BUILD_DEFAULT_FILES.:E05TSI          TUE 07/29/97 08:55 Page:68
TREC$
     15178**DCL     15203--IMP-PTR 15436<<ASSIGN  15438>>ASSIGN  15439>>ASSIGN  15440>>ASSIGN  15441>>ASSIGN
     15442>>ASSIGN  15443>>CALL    15444<>CALL    15452<>CALL    15458>>ASSIGN  15458>>ASSIGN  15461<>CALL
     15486>>ASSIGN  15487>>ASSIGN  15488>>ASSIGN  15494>>ASSIGN  15495>>ASSIGN  15496>>ASSIGN  15497>>ASSIGN
     15498>>CALL    15499<>CALL    15505>>ASSIGN  15506>>CALL    15507<>CALL    15508>>ASSIGN  15509>>CALL
     15520>>ASSIGN  15521>>ASSIGN  15526>>ASSIGN  15527>>CALL    15528<>CALL    15531>>ASSIGN  15532>>CALL
     15533>>ASSIGN  15534>>ASSIGN  15535>>ASSIGN  15539>>ASSIGN
TS_BUF
     15181**DCL     15436--ASSIGN  15437<<ASSIGN
TWSNR$
     15179**DCL     15356--IMP-PTR
USERS_KEY.COUNT
      9797**DCL     15430<<ASSIGN  15446<<ASSIGN  15453<<ASSIGN  15462<<ASSIGN  15491<<ASSIGN  15500<<ASSIGN
     15523<<ASSIGN  15551<<ASSIGN
USERS_KEY.SKEY.CREATOR
      9799**DCL     15464<<ASSIGN
USERS_KEY.SKEY.PROJ
      9799**DCL     15463<<ASSIGN
USERS_KEY.SKEY.USER
      9799**DCL     15465<<ASSIGN
USERS_KEY.TEXT
      9797**DCL      9798--REDEF    9798--REDEF    9798--REDEF    9799--REDEF   15447<<ASSIGN  15448<<ASSIGN
USERS_KEY.TXTC
      9798**DCL     15431<<ASSIGN  15492<<ASSIGN  15501<<ASSIGN  15524<<ASSIGN  15552<<ASSIGN
WSNCVT$
     15180**DCL     15382--IMP-PTR 15545<<ASSIGN  15546>>ASSIGN  15547>>ASSIGN  15548>>ASSIGN  15549>>ASSIGN
     15553<>CALL

