PL6.E3A0      #003=ASF$BUILD_FORM File=ASB$BUILD_DEFAULT_FILES.:E05TSI           TUE 07/29/97 08:58 Page:159
      830        1        /*T***********************************************************/
      831        2        /*T*                                                         */
      832        3        /*T* Copyright (c) Bull HN Information Systems Inc., 1997    */
      833        4        /*T*                                                         */
      834        5        /*T***********************************************************/
      835        6        %EJECT;
PL6.E3A0      #003=ASF$BUILD_FORM File=ASB$BUILD_DEFAULT_FILES.:E05TSI           TUE 07/29/97 08:58 Page:160
      836        7        ASF$BUILD_FORM: PROC;
      837        8        %INCLUDE AS_ENTRIES_M;
      838     1058        %INCLUDE CP_6;
      839     6617        %INCLUDE CP_6_SUBS;
      840     7157        %INCLUDE AS_SUPER_C;
      841     7592        %INCLUDE FS_SUPER_C;
      842     8355        %INCLUDE KL_SUPER_C;
      843    11257        %INCLUDE AS_SUBS_C;
      844    12671        %INCLUDE AS_MAC_C;
      845    12751        %INCLUDE AS_PERR_C;
      846    13353        %INCLUDE B_ERRORS_C;
      847    14480        %INCLUDE XU_MACRO_C;
      848    17586        %INCLUDE XU_FORMAT_C;
      849    17748        %INCLUDE AS_SUPER_R;
      850    20764        %INCLUDE XG_SUBS_C;
      851    21258        %LIST;
      852    21259        %SET LISTSUB='1'B;
      853    21260        %SET LISTEXP='1'B;
      854    21261    1   DCL M$FORM DCB;
      855    21262        %ASF$WRITE_FORM ;
             21263    1   DCL ASF$WRITE_FORM ENTRY(3) ALTRET;
      856    21265        %ASF$READ_FORM ;
             21266    1   DCL ASF$READ_FORM ENTRY(3) ALTRET;
      857    21268        %ASH$ERROR ;
             21269    1   DCL ASH$ERROR ENTRY(2) ;
      858    21271        %GET_CONFIGS_LP01_ATTRS ;
             21272    1   DCL GET_CONFIGS_LP01_ATTRS ENTRY(1) ALTRET;
      859    21274        %ASF$PREC_FORM ;
             21275    1   DCL ASF$PREC_FORM ENTRY(1) ALTRET;
      860    21277        %ASF$READ_FORM_SEQ ;
             21278    1   DCL  ASF$READ_FORM_SEQ                ENTRY ( 3 ) ALTRET;
      861    21280        %FS$GFORMREC (NAME = STDGR,
      862    21281                      FRMNAME = 'STDGR ',
      863    21282                      CHNAME='600',
      864    21283                      STCLASS = CONSTANT);
             21284        %LSET STR='CONSTANT        ';
             21285        %IF
PL6.E3A0      #003=ASF$BUILD_FORM File=ASB$BUILD_DEFAULT_FILES.:E05TSI           TUE 07/29/97 08:58 Page:161
             21287         '1'B;
             21288        %LSET INIT=INIT;
             21289        %ELSE;
             21291        %ENDIF;
             21292    1   DCL 1 STDGR CONSTANT ALIGNED,
             21293    1         2 FNAME CHAR(6) INIT('STDGR ')/**/, /* GRAPHIC FORM NAME   */
             21294    1         2 ACCTDISP UBIN HALF UNAL INIT(0)/**/,
             21295    1         2 SETUPDISP UBIN HALF UNAL INIT(0)/**/, /* WD DISP TO SETUP */
             21296    1         2 ACCSDISP UBIN HALF UNAL INIT(0)/**/, /* DISP TO ACCESS */
             21297    1         2 BANRDISP UBIN HALF UNAL INIT(0)/**/, /* DISP TO BANNER */
             21298    1         2 ALGNDISP UBIN HALF UNAL INIT(0)/**/, /* DISP TO ALGNMENT */
             21299    1         2 * BIT(7) INIT('0000000'B)/**/,
             21300    1         2 TRANSLGL BIT(1) INIT('0'B)/**/, /* TRANSPARENT LEGAL */
             21301    1         2 GRAPHIC BIT(1) INIT('1'B)/**/, /* GRAPHIC FORM   */
             21302        /*   The LGLTYPS field here is duplicated in the FS$CHARSET record
             21303             and when that structure is changed, this one should be checked!
             21304            CHAIN is specified in the form definition to bring in the
             21305           attributes and the legal devices list...
             21306        */
             21307        /*  LEGAL TYPE OF DEVICES FOR THIS GRAPHIC FORM */
             21308    1         2 LGLTYPS,
             21309    1           3 LPOK BIT(1) INIT('0'B)/**/, /* LEGAL ON LP           */
             21310    1           3 TSOK BIT(1) INIT('0'B)/**/, /* LEGAL ON TS           */
             21311    1           3 ELSOK BIT(1) INIT('0'B)/**/, /* LEGAL ON ALL BUT TS+LP */
             21312    1           3 ONEOK BIT(1) INIT('1'B)/**/, /* LEGAL ON TYP=LTYP   */
             21313    1           3 * BIT(5) INIT('00000'B)/**/,
             21314    1           3 LTYP CHAR(2) INIT('GR')/**/, /* LEGAL IF ONEOK=YES   */
             21315    1         2 ATTR BIT(18) UNAL INIT('000002'O) /**/,
             21316    1         2 CHAIN_NAME CHAR(8) INIT('600')/**/,
             21317    1         2 X_SIZE UBIN (18) UNAL INIT (0) /**/,
             21318    1         2 Y_SIZE UBIN (18) UNAL INIT (0) /**/,
             21319    1         2 Z_SIZE UBIN (18) UNAL INIT (0) /**/,
             21320    1         2 X_OFFSET UBIN (18) UNAL INIT(0) /**/,
             21321    1         2 Y_OFFSET UBIN (18) UNAL INIT(0) /**/,
             21322    1         2 Z_OFFSET UBIN (18) UNAL INIT(0) /**/,
             21323    1         2 SET_DEV_LIM,
             21324    1           3 DEV_LIM_OPCODE,
PL6.E3A0      #003=ASF$BUILD_FORM File=ASB$BUILD_DEFAULT_FILES.:E05TSI           TUE 07/29/97 08:58 Page:162
             21325    1             4 CLASS UBIN (9) UNAL INIT(148) /**/,
             21326    1             4 INDX UBIN (9) UNAL INIT(17) /**/,
             21327    1           3 X_SIZE BIT (18) UNAL INIT('000000'O) /**/,
             21328    1           3 Y_SIZE BIT (18) UNAL INIT('000000'O) /**/,
             21329    1           3 Z_SIZE BIT (18) UNAL INIT('000000'O) /**/,
             21330    1           3 X_OFFSET BIT (18) UNAL INIT('000000'O) /**/,
             21331    1           3 Y_OFFSET BIT (18) UNAL INIT('000000'O) /**/,
             21332    1           3 Z_OFFSET BIT (18) UNAL INIT('000000'O) /**/,
             21333    1           3 SPARAM6 BIT (18) UNAL INIT('000000'O) /**/,
             21334    1           3 SPARAM7 BIT (18) UNAL INIT('000000'O) /**/,
             21335    1           3 SPARAM8 BIT (18) UNAL INIT('000000'O) /**/,
             21336    1           3 SPARAM9 BIT (18) UNAL INIT('000000'O) /**/,
             21337    1           3 UPARAM (0:9) BIT (18) UNAL INIT('000000'O,'000000'O,
             21338    1                      '000000'O,'000000'O,'000000'O,'000000'O,'000000'O,
             21339    1                      '000000'O,'000000'O,'000000'O) /**/,
             21340    1         2 SET_DEV_LIM_CMD REDEF SET_DEV_LIM CHAR (42) UNAL;
      865    21342        %FS$GFORMREC (NAME = FS$GFORMREC,
      866    21343                      STCLASS = "BASED (PTR$)");
             21344        %LSET STR='BASED (PTR$)        ';
             21345        %IF
             21347         '0'B;
             21349        %ELSE;
             21350        %LSET INIT=/*;
             21351        %ENDIF;
             21352    1   DCL 1 FS$GFORMREC BASED (PTR$) ALIGNED,
             21353    1         2 FNAME CHAR(6) /*('  ')/**/, /* GRAPHIC FORM NAME   */
             21354    1         2 ACCTDISP UBIN HALF UNAL /*(0)/**/,
             21355    1         2 SETUPDISP UBIN HALF UNAL /*(0)/**/, /* WD DISP TO SETUP */
             21356    1         2 ACCSDISP UBIN HALF UNAL /*(0)/**/, /* DISP TO ACCESS */
             21357    1         2 BANRDISP UBIN HALF UNAL /*(0)/**/, /* DISP TO BANNER */
             21358    1         2 ALGNDISP UBIN HALF UNAL /*(0)/**/, /* DISP TO ALGNMENT */
             21359    1         2 * BIT(7) /*('0000000'B)/**/,
             21360    1         2 TRANSLGL BIT(1) /*('0'B)/**/, /* TRANSPARENT LEGAL */
             21361    1         2 GRAPHIC BIT(1) /*('1'B)/**/, /* GRAPHIC FORM   */
             21362        /*   The LGLTYPS field here is duplicated in the FS$CHARSET record
             21363             and when that structure is changed, this one should be checked!
             21364            CHAIN is specified in the form definition to bring in the
PL6.E3A0      #003=ASF$BUILD_FORM File=ASB$BUILD_DEFAULT_FILES.:E05TSI           TUE 07/29/97 08:58 Page:163
             21365           attributes and the legal devices list...
             21366        */
             21367        /*  LEGAL TYPE OF DEVICES FOR THIS GRAPHIC FORM */
             21368    1         2 LGLTYPS,
             21369    1           3 LPOK BIT(1) /*('0'B)/**/, /* LEGAL ON LP           */
             21370    1           3 TSOK BIT(1) /*('0'B)/**/, /* LEGAL ON TS           */
             21371    1           3 ELSOK BIT(1) /*('0'B)/**/, /* LEGAL ON ALL BUT TS+LP */
             21372    1           3 ONEOK BIT(1) /*('1'B)/**/, /* LEGAL ON TYP=LTYP   */
             21373    1           3 * BIT(5) /*('00000'B)/**/,
             21374    1           3 LTYP CHAR(2) /*('GR')/**/, /* LEGAL IF ONEOK=YES   */
             21375    1         2 ATTR BIT(18) UNAL /*('000002'O) /**/,
             21376    1         2 CHAIN_NAME CHAR(8) /*('NONE')/**/,
             21377    1         2 X_SIZE UBIN (18) UNAL /* (0) /**/,
             21378    1         2 Y_SIZE UBIN (18) UNAL /* (0) /**/,
             21379    1         2 Z_SIZE UBIN (18) UNAL /* (0) /**/,
             21380    1         2 X_OFFSET UBIN (18) UNAL /*(0) /**/,
             21381    1         2 Y_OFFSET UBIN (18) UNAL /*(0) /**/,
             21382    1         2 Z_OFFSET UBIN (18) UNAL /*(0) /**/,
             21383    1         2 SET_DEV_LIM,
             21384    1           3 DEV_LIM_OPCODE,
             21385    1             4 CLASS UBIN (9) UNAL /*(148) /**/,
             21386    1             4 INDX UBIN (9) UNAL /*(17) /**/,
             21387    1           3 X_SIZE BIT (18) UNAL /*('000000'O) /**/,
             21388    1           3 Y_SIZE BIT (18) UNAL /*('000000'O) /**/,
             21389    1           3 Z_SIZE BIT (18) UNAL /*('000000'O) /**/,
             21390    1           3 X_OFFSET BIT (18) UNAL /*('000000'O) /**/,
             21391    1           3 Y_OFFSET BIT (18) UNAL /*('000000'O) /**/,
             21392    1           3 Z_OFFSET BIT (18) UNAL /*('000000'O) /**/,
             21393    1           3 SPARAM6 BIT (18) UNAL /*('000000'O) /**/,
             21394    1           3 SPARAM7 BIT (18) UNAL /*('000000'O) /**/,
             21395    1           3 SPARAM8 BIT (18) UNAL /*('000000'O) /**/,
             21396    1           3 SPARAM9 BIT (18) UNAL /*('000000'O) /**/,
             21397    1           3 UPARAM (0:9) BIT (18) UNAL /*('000000'O,'000000'O,
             21398    1                      '000000'O,'000000'O,'000000'O,'000000'O,'000000'O,
             21399    1                      '000000'O,'000000'O,'000000'O) /**/,
             21400    1         2 SET_DEV_LIM_CMD REDEF SET_DEV_LIM CHAR (42) UNAL;
      867    21402        %FS$FORMREC(NAME=STDLP,
PL6.E3A0      #003=ASF$BUILD_FORM File=ASB$BUILD_DEFAULT_FILES.:E05TSI           TUE 07/29/97 08:58 Page:164
      868    21403                      FRMNAME='STDLP ',
      869    21404                      STCLASS=CONSTANT,
      870    21405                      WDTH=132,
      871    21406                      LNGTH=39,
      872    21407                      LMBO=6,
      873    21408                      FLINE=6,
      874    21409                      LP_OK=YES,
      875    21410                      TS_OK=YES
      876    21411                           );
             21412        %LSET STR='CONSTANT        ';
             21413        %IF
             21415         '1'B;
             21416        %LSET INIT=INIT;
             21417        %ELSE;
             21419        %ENDIF;
             21420        /*
             21421        */
             21422    1   DCL 1 STDLP CONSTANT ALIGNED,
             21423    1         2 FNAME CHAR(6) INIT('STDLP ')/**/, /* FORM NAME           */
             21424    1         2 ACCTDISP UBIN HALF UNAL INIT(0)/**/,
             21425    1         2 SETUPDISP UBIN HALF UNAL INIT(0)/**/, /* WD DISP TO SETUP */
             21426    1         2 ACCSDISP UBIN HALF UNAL INIT(0)/**/, /* DISP TO ACCESS */
             21427    1         2 BANRDISP UBIN HALF UNAL INIT(0)/**/, /* DISP TO BANNER */
             21428    1         2 ALGNDISP UBIN HALF UNAL INIT(0)/**/, /* DISP TO ALGNMENT */
             21429    1         2 FLAGS BIT(7) INIT('0000000'B) /**/, /* SETABLE BUT NOT USED */
             21430    1         2 * BIT(1) INIT('0'B)/**/, /* THIS BIT IS FREE            */
             21431    1         2 GRAPHIC BIT(1) INIT('0'B)/**/, /* GRAPHIC FORM   */
             21432        /**/
             21433        /*  LEGAL TYPE OF DEVICES FOR THIS FORM */
             21434        /*   The LGLTYPS field here is duplicated in the FS$CHARSET record
             21435             and when this macro is changed, this one should be checked!
             21436        */
             21437        /**/
             21438    1         2 LGLTYPS,
             21439    1           3 LPOK BIT(1) INIT('1'B)/**/, /* LEGAL ON LP           */
             21440    1           3 TSOK BIT(1) INIT('1'B)/**/, /* LEGAL ON TS           */
             21441    1           3 ELSOK BIT(1) INIT('0'B)/**/, /* LEGAL ON ALL BUT TS+LP */
PL6.E3A0      #003=ASF$BUILD_FORM File=ASB$BUILD_DEFAULT_FILES.:E05TSI           TUE 07/29/97 08:58 Page:165
             21442    1           3 ONEOK BIT(1) INIT('0'B)/**/, /* LEGAL ON TYP=LTYP   */
             21443    1           3 * BIT(5) INIT('00000'B)/**/,
             21444    1           3 LTYP CHAR(2) INIT(' ')/**/, /* LEGAL IF ONEOK=YES   */
             21445    1         2 ATTR BIT(18) UNAL INIT('000006'O) /**/,
             21446    1         2 SOFTFORM,                       /*SOFT VFU/PLATEN INFO                */
             21447        /**/
             21448        /*  WRITE SOFTFORM WITH VFC_VFU AND BP ON IN DVBYTE */
             21449        /**/
             21450    1           3 VLPPLATEN,                    /* SEE KI_CP6_C FOR DESC              */
             21451    1             4 TL,
             21452    1               5 T UBIN BYTE UNAL INIT(8)/**/,
             21453    1               5 L UBIN BYTE UNAL INIT(16)/**/,
             21454    1             4 WIDTH UBIN BYTE UNAL INIT(132)/**/,
             21455    1             4 LENGTH UBIN BYTE UNAL INIT(39)/**/,
             21456    1             4 LIMBO UBIN BYTE UNAL INIT(6)/**/,
             21457    1             4 FIRSTLINE UBIN BYTE UNAL INIT(6)/**/,
             21458    1             4 * BIT(8) INIT('00000000'B)/**/,
             21459    1             4 EXTWID BIT(1) INIT('0'B)/**/,
             21460    1             4 LPI UBIN BYTE UNAL INIT(6)/**/,
             21461    1             4 * (0:9) UBIN BYTE UNAL INIT(0*0)/**/,
             21462    1           3 VFUIM,                        /* TED AND PAULS SOFT VFU IMAGE       */
             21463    1             4 TL,
             21464    1               5 T UBIN BYTE UNAL INIT(18)/**/,
             21465    1               5 L UBIN BYTE UNAL INIT(64)/**/,
             21466    1             4 V,
             21467    1               5 LINE(0:31) UBIN BYTE UNAL INIT(0*0)/**/,
             21468    1               5 NEXT(0:31) UBIN BYTE UNAL INIT(0*0)/**/,
             21469    1         2 CHAIN_NAME CHAR(8) UNAL INIT('600')/**/,
             21470    1         2 CHAINS(0:5) CHAR(40) UNAL INIT(
             21471                %C600;
             21472    1             'BDFGHJgS0ACEINORLTabcdefKhijklmM0PQUVWXY',
             21473    1             'Z:;?!%7xynoprstw0z123456#89.,()@$=&/''\^_',
             21474    1             '0"<>[]gS~ACEINOR{Tabcdef0hijklm}|`-*+quv',
             21475    1             'BDFGHJ7x0noprstwLz123456K89.,()M0PQUVWXY',
             21476    1             'Z:;?!%gSyACEINOR0Tabcdef#hijklm@$=&/''\^_',
             21477    1             '0"<>[]7x~noprstw{z123456089.,()}|`-*+quv')
             21479    1           /**/,
PL6.E3A0      #003=ASF$BUILD_FORM File=ASB$BUILD_DEFAULT_FILES.:E05TSI           TUE 07/29/97 08:58 Page:166
             21480    1         2 CHAINIMAGE REDEF CHAINS CHAR(240) UNAL;
      877    21482        %FS$BAN_INIT (NAME = FS$BANNER,
      878    21483                      STCLASS = "BASED");
             21484        %LSET STR='BASED        ';
             21485        %IF
             21486         '1'B;
             21487    1   DCL 1 FS$BANNER BASED,
             21488    1         2 CHARGE UBIN BYTE UNAL,          /* DO WE CHARGE FOR BANNER            */
             21489    1         2 ALIGNCTL REDEF CHARGE UNAL,
             21490    1           3 EVERY BIT(1) UNAL,
             21491    1           3 * BIT(8) UNAL,
             21492    1         2 REPEATS UBIN BYTE UNAL,         /* NUM OF TIMES TO PRINT THIS BANNER  */
             21493    1         2 INTR UBIN BYTE UNAL,            /* ARE INTRINSICS  ALLOWED            */
             21494    1         2 NUM_ENTRIES UBIN BYTE UNAL,     /* NUM OF ENTRIES IN THE TABLE        */
             21495    1         2 ENTRIES(0:0),
             21496    1           3 ROW UBIN BYTE UNAL,           /* START ROW                          */
             21497    1           3 COL UBIN BYTE UNAL,           /* START COL                          */
             21498    1           3 FONT UBIN BYTE UNAL,          /* FONT TO BE USED                    */
             21499    1           3 STRIKES UBIN BYTE UNAL,       /* NUMBER OF PRINT STRIKES            */
             21500    1           3 ICSH UBIN BYTE UNAL,          /* INTER CHAR SPACING HORZ.           */
             21501    1           3 REPS UBIN BYTE UNAL,          /* NUM OF TIME TO PRINT THIS ENTRY    */
             21502    1           3 RINC UBIN BYTE UNAL,          /* ROW INCERMENT PER REPEAT           */
             21503    1           3 CINC UBIN BYTE UNAL,          /* COL INCERMENT PER REPEAT           */
             21504    1           3 TYPE UBIN BYTE UNAL,     /* TYPE OF ENTRY(PLAIN TEXT, INTRINIC)     */
             21505    1           3 DISP UBIN HALF UNAL,          /* DISP(IN WORDS) TO TEXT(IF ANY)     */
             21506    1           3 B REDEF DISP,
             21507    1             4 START UBIN BYTE UNAL,
             21508    1             4 LEN UBIN BYTE UNAL,
             21509    1           3 COUNT UBIN BYTE UNAL,         /* COUNT OF TEXT(IF ANY)              */
             21510    1           3 CHR REDEF COUNT CHAR(1),      /* OR CHAR TO BE REPEATED ACROSS PAGE */
             21511    1           3 TOTLEN UBIN(27) UNAL,         /* TOTLEN OF ENTRY(INTERNAL)          */
             21512    1           3 MARK UBIN BYTE UNAL;          /* MARK(INTERNAL)                     */
             21513        %ELSE;
             21538        %ENDIF;
      879    21540        %FS$FORMREC (NAME = FS$FORM,
      880    21541                     STCLASS = "BASED");
             21542        %LSET STR='BASED        ';
PL6.E3A0      #003=ASF$BUILD_FORM File=ASB$BUILD_DEFAULT_FILES.:E05TSI           TUE 07/29/97 08:58 Page:167
             21543        %IF
             21545         '0'B;
             21547        %ELSE;
             21548        %LSET INIT=/*;
             21549        %ENDIF;
             21550        /*
             21551        */
             21552    1   DCL 1 FS$FORM BASED ALIGNED,
             21553    1         2 FNAME CHAR(6) /*('  ')/**/, /* FORM NAME           */
             21554    1         2 ACCTDISP UBIN HALF UNAL /*(0)/**/,
             21555    1         2 SETUPDISP UBIN HALF UNAL /*(0)/**/, /* WD DISP TO SETUP */
             21556    1         2 ACCSDISP UBIN HALF UNAL /*(0)/**/, /* DISP TO ACCESS */
             21557    1         2 BANRDISP UBIN HALF UNAL /*(0)/**/, /* DISP TO BANNER */
             21558    1         2 ALGNDISP UBIN HALF UNAL /*(0)/**/, /* DISP TO ALGNMENT */
             21559    1         2 FLAGS BIT(7) /*('0000000'B) /**/, /* SETABLE BUT NOT USED */
             21560    1         2 * BIT(1) /*('0'B)/**/, /* THIS BIT IS FREE            */
             21561    1         2 GRAPHIC BIT(1) /*('0'B)/**/, /* GRAPHIC FORM   */
             21562        /**/
             21563        /*  LEGAL TYPE OF DEVICES FOR THIS FORM */
             21564        /*   The LGLTYPS field here is duplicated in the FS$CHARSET record
             21565             and when this macro is changed, this one should be checked!
             21566        */
             21567        /**/
             21568    1         2 LGLTYPS,
             21569    1           3 LPOK BIT(1) /*('0'B)/**/, /* LEGAL ON LP           */
             21570    1           3 TSOK BIT(1) /*('0'B)/**/, /* LEGAL ON TS           */
             21571    1           3 ELSOK BIT(1) /*('0'B)/**/, /* LEGAL ON ALL BUT TS+LP */
             21572    1           3 ONEOK BIT(1) /*('0'B)/**/, /* LEGAL ON TYP=LTYP   */
             21573    1           3 * BIT(5) /*('00000'B)/**/,
             21574    1           3 LTYP CHAR(2) /*(' ')/**/, /* LEGAL IF ONEOK=YES   */
             21575    1         2 ATTR BIT(18) UNAL /*('000006'O) /**/,
             21576    1         2 SOFTFORM,                       /*SOFT VFU/PLATEN INFO                */
             21577        /**/
             21578        /*  WRITE SOFTFORM WITH VFC_VFU AND BP ON IN DVBYTE */
             21579        /**/
             21580    1           3 VLPPLATEN,                    /* SEE KI_CP6_C FOR DESC              */
             21581    1             4 TL,
PL6.E3A0      #003=ASF$BUILD_FORM File=ASB$BUILD_DEFAULT_FILES.:E05TSI           TUE 07/29/97 08:58 Page:168
             21582    1               5 T UBIN BYTE UNAL /*(8)/**/,
             21583    1               5 L UBIN BYTE UNAL /*(16)/**/,
             21584    1             4 WIDTH UBIN BYTE UNAL /*(0)/**/,
             21585    1             4 LENGTH UBIN BYTE UNAL /*(0)/**/,
             21586    1             4 LIMBO UBIN BYTE UNAL /*(0)/**/,
             21587    1             4 FIRSTLINE UBIN BYTE UNAL /*(0)/**/,
             21588    1             4 * BIT(8) /*('00000000'B)/**/,
             21589    1             4 EXTWID BIT(1) /*('0'B)/**/,
             21590    1             4 LPI UBIN BYTE UNAL /*(6)/**/,
             21591    1             4 * (0:9) UBIN BYTE UNAL /*(0*0)/**/,
             21592    1           3 VFUIM,                        /* TED AND PAULS SOFT VFU IMAGE       */
             21593    1             4 TL,
             21594    1               5 T UBIN BYTE UNAL /*(18)/**/,
             21595    1               5 L UBIN BYTE UNAL /*(64)/**/,
             21596    1             4 V,
             21597    1               5 LINE(0:31) UBIN BYTE UNAL /*(0*0)/**/,
             21598    1               5 NEXT(0:31) UBIN BYTE UNAL /*(0*0)/**/,
             21599    1         2 CHAIN_NAME CHAR(8) UNAL /*('600')/**/,
             21600    1         2 CHAINS(0:5) CHAR(40) UNAL /*(
             21601                %C600;
             21602    1             'BDFGHJgS0ACEINORLTabcdefKhijklmM0PQUVWXY',
             21603    1             'Z:;?!%7xynoprstw0z123456#89.,()@$=&/''\^_',
             21604    1             '0"<>[]gS~ACEINOR{Tabcdef0hijklm}|`-*+quv',
             21605    1             'BDFGHJ7x0noprstwLz123456K89.,()M0PQUVWXY',
             21606    1             'Z:;?!%gSyACEINOR0Tabcdef#hijklm@$=&/''\^_',
             21607    1             '0"<>[]7x~noprstw{z123456089.,()}|`-*+quv')
             21609    1           /**/,
             21610    1         2 CHAINIMAGE REDEF CHAINS CHAR(240) UNAL;
      881    21612        %FS$BAN_INIT(NAME=STDLP_BAN,
      882    21613                      STCLASS=CONSTANT,
      883    21614                      CNT=13,
      884    21615                      REPTS=2,
      885    21616                      INR=1
      886    21617                           );
             21618        %LSET STR='CONSTANT        ';
             21619        %IF
             21620         '0'B;
PL6.E3A0      #003=ASF$BUILD_FORM File=ASB$BUILD_DEFAULT_FILES.:E05TSI           TUE 07/29/97 08:58 Page:169
             21647        %ELSE;
             21648    1   DCL 1 STDLP_BAN CONSTANT,
             21649    1         2 CHARGE UBIN BYTE INIT (0) UNAL,
             21650    1         2 ALIGNCTL REDEF CHARGE UNAL,
             21651    1           3 EVERY BIT(1) UNAL,
             21652    1           3 * BIT(8) UNAL,
             21653    1         2 REPEATS UBIN BYTE INIT (2) UNAL,
             21654    1         2 INTR UBIN BYTE INIT (1) UNAL,
             21655    1         2 NUM_ENTRIES UBIN BYTE INIT (13) UNAL,
             21656        %SET BCNT=12;
             21657    1         2 ENTRIES(0:12),
             21658        %SET BROW='';
             21659        %SET BCOL='';
             21660        %SET BFONT='';
             21661        %SET BSTRIKES='';
             21662        %SET BICSH='';
             21663        %SET BREPS='';
             21664        %SET BRINC='';
             21665        %SET BCINC='';
             21666        %SET BTYPE='';
             21667        %SET BDISP='';
             21668        %SET BCOUNT='';
             21669        %SET BTEXT='';
             21670        %SET DISP#=53;
             21671        %SET TEXT_LEN#=0;
             21672        %ENDIF;
      887    21674        %FS$BAN_ENT(ROW=1,COL=1,TYPE=FS_DATE_INT);
             21675        %SET BROW='1,';
             21676        %SET BCOL='1,';
             21677        %SET BFONT='0,';
             21678        %SET BSTRIKES='1,';
             21679        %SET BICSH='0,';
             21680        %SET BREPS='1,';
             21681        %SET BRINC='0,';
             21682        %SET BCINC='0,';
             21683        %SET BTYPE='7,';
             21684        %IF '0'B;
PL6.E3A0      #003=ASF$BUILD_FORM File=ASB$BUILD_DEFAULT_FILES.:E05TSI           TUE 07/29/97 08:58 Page:170
             21688        %ELSEIF '1'B;
             21689        %SET BCOUNT='0,';
             21690        %SET BDISP='0,';
             21691        %ELSE;
             21709        %ENDIF;
      888    21711        %FS$BAN_ENT(ROW=1,COL=10,TYPE=FS_TIME_INT);
             21712        %SET BROW='1,1,';
             21713        %SET BCOL='1,10,';
             21714        %SET BFONT='0,0,';
             21715        %SET BSTRIKES='1,1,';
             21716        %SET BICSH='0,0,';
             21717        %SET BREPS='1,1,';
             21718        %SET BRINC='0,0,';
             21719        %SET BCINC='0,0,';
             21720        %SET BTYPE='7,6,';
             21721        %IF '0'B;
             21725        %ELSEIF '1'B;
             21726        %SET BCOUNT='0,0,';
             21727        %SET BDISP='0,0,';
             21728        %ELSE;
             21746        %ENDIF;
      889    21748        %FS$BAN_ENT(ROW=1,COL=18,TYPE=FS_ACCN_INT);
             21749        %SET BROW='1,1,1,';
             21750        %SET BCOL='1,10,18,';
             21751        %SET BFONT='0,0,0,';
             21752        %SET BSTRIKES='1,1,1,';
             21753        %SET BICSH='0,0,0,';
             21754        %SET BREPS='1,1,1,';
             21755        %SET BRINC='0,0,0,';
             21756        %SET BCINC='0,0,0,';
             21757        %SET BTYPE='7,6,2,';
             21758        %IF '0'B;
             21762        %ELSEIF '1'B;
             21763        %SET BCOUNT='0,0,0,';
             21764        %SET BDISP='0,0,0,';
             21765        %ELSE;
             21783        %ENDIF;
PL6.E3A0      #003=ASF$BUILD_FORM File=ASB$BUILD_DEFAULT_FILES.:E05TSI           TUE 07/29/97 08:58 Page:171
      890    21785        %FS$BAN_ENT(ROW=1,COL=27,TYPE=FS_UNAME_INT);
             21786        %SET BROW='1,1,1,1,';
             21787        %SET BCOL='1,10,18,27,';
             21788        %SET BFONT='0,0,0,0,';
             21789        %SET BSTRIKES='1,1,1,1,';
             21790        %SET BICSH='0,0,0,0,';
             21791        %SET BREPS='1,1,1,1,';
             21792        %SET BRINC='0,0,0,0,';
             21793        %SET BCINC='0,0,0,0,';
             21794        %SET BTYPE='7,6,2,3,';
             21795        %IF '0'B;
             21799        %ELSEIF '1'B;
             21800        %SET BCOUNT='0,0,0,0,';
             21801        %SET BDISP='0,0,0,0,';
             21802        %ELSE;
             21820        %ENDIF;
      891    21822        %FS$BAN_ENT(ROW=1,COL=40,TYPE=FS_WOO_INT);
             21823        %SET BROW='1,1,1,1,1,';
             21824        %SET BCOL='1,10,18,27,40,';
             21825        %SET BFONT='0,0,0,0,0,';
             21826        %SET BSTRIKES='1,1,1,1,1,';
             21827        %SET BICSH='0,0,0,0,0,';
             21828        %SET BREPS='1,1,1,1,1,';
             21829        %SET BRINC='0,0,0,0,0,';
             21830        %SET BCINC='0,0,0,0,0,';
             21831        %SET BTYPE='7,6,2,3,4,';
             21832        %IF '0'B;
             21836        %ELSEIF '1'B;
             21837        %SET BCOUNT='0,0,0,0,0,';
             21838        %SET BDISP='0,0,0,0,0,';
             21839        %ELSE;
             21857        %ENDIF;
      892    21859        %FS$BAN_ENT(ROW=1,COL=50,TYPE=FS_SYSID_INT);
             21860        %SET BROW='1,1,1,1,1,1,';
             21861        %SET BCOL='1,10,18,27,40,50,';
             21862        %SET BFONT='0,0,0,0,0,0,';
             21863        %SET BSTRIKES='1,1,1,1,1,1,';
PL6.E3A0      #003=ASF$BUILD_FORM File=ASB$BUILD_DEFAULT_FILES.:E05TSI           TUE 07/29/97 08:58 Page:172
             21864        %SET BICSH='0,0,0,0,0,0,';
             21865        %SET BREPS='1,1,1,1,1,1,';
             21866        %SET BRINC='0,0,0,0,0,0,';
             21867        %SET BCINC='0,0,0,0,0,0,';
             21868        %SET BTYPE='7,6,2,3,4,1,';
             21869        %IF '0'B;
             21873        %ELSEIF '1'B;
             21874        %SET BCOUNT='0,0,0,0,0,0,';
             21875        %SET BDISP='0,0,0,0,0,0,';
             21876        %ELSE;
             21894        %ENDIF;
      893    21896        %FS$BAN_ENT(ROW=3,COL=1,FONT=1,STRIKES=2,ICSH=1,TYPE=FS_PLAIN_TEXT,TEXT=
             21896            'Honeywell Bull');
             21897        %SET BROW='1,1,1,1,1,1,3,';
             21898        %SET BCOL='1,10,18,27,40,50,1,';
             21899        %SET BFONT='0,0,0,0,0,0,1,';
             21900        %SET BSTRIKES='1,1,1,1,1,1,2,';
             21901        %SET BICSH='0,0,0,0,0,0,1,';
             21902        %SET BREPS='1,1,1,1,1,1,1,';
             21903        %SET BRINC='0,0,0,0,0,0,0,';
             21904        %SET BCINC='0,0,0,0,0,0,0,';
             21905        %SET BTYPE='7,6,2,3,4,1,0,';
             21906        %IF '0'B;
             21910        %ELSEIF '0'B;
             21913        %ELSE;
             21914        %SET TEXT_LEN=14;
             21915        %SET TOT_LEN=4;
             21916        %SET BCOUNT='0,0,0,0,0,0,014,';
             21917        %SET BDISP='0,0,0,0,0,0,0053,';
             21918        %SET DISP#=57;
             21919        %SET TEXT_LEN#=16;
             21920        %SET DIFF=2;
             21921        %IF '0'B;
             21923        %ENDIF;
             21924        %IF'1'B;
             21925        %SET TEXT_VAL='Honeywell Bull  ';
             21926        %ENDIF;
PL6.E3A0      #003=ASF$BUILD_FORM File=ASB$BUILD_DEFAULT_FILES.:E05TSI           TUE 07/29/97 08:58 Page:173
             21927        %IF'0'B;
             21929        %ENDIF;
             21930        %SET BTEXT='Honeywell Bull  ';
             21931        %ENDIF;
      894    21933        %FS$BAN_ENT(ROW=3,COL=80,STRIKES=2,TYPE=FS_LOGO_INT);
             21934        %SET BROW='1,1,1,1,1,1,3,3,';
             21935        %SET BCOL='1,10,18,27,40,50,1,80,';
             21936        %SET BFONT='0,0,0,0,0,0,1,0,';
             21937        %SET BSTRIKES='1,1,1,1,1,1,2,2,';
             21938        %SET BICSH='0,0,0,0,0,0,1,0,';
             21939        %SET BREPS='1,1,1,1,1,1,1,1,';
             21940        %SET BRINC='0,0,0,0,0,0,0,0,';
             21941        %SET BCINC='0,0,0,0,0,0,0,0,';
             21942        %SET BTYPE='7,6,2,3,4,1,0,10,';
             21943        %IF '0'B;
             21947        %ELSEIF '1'B;
             21948        %SET BCOUNT='0,0,0,0,0,0,014,0,';
             21949        %SET BDISP='0,0,0,0,0,0,0053,0,';
             21950        %ELSE;
             21968        %ENDIF;
      895    21970        %FS$BAN_ENT(ROW=15,COL=1,TYPE=FS_PLAIN_TEXT,TEXT='VERSION',REPS=3,RINC=2);
             21971        %SET BROW='1,1,1,1,1,1,3,3,15,';
             21972        %SET BCOL='1,10,18,27,40,50,1,80,1,';
             21973        %SET BFONT='0,0,0,0,0,0,1,0,0,';
             21974        %SET BSTRIKES='1,1,1,1,1,1,2,2,1,';
             21975        %SET BICSH='0,0,0,0,0,0,1,0,0,';
             21976        %SET BREPS='1,1,1,1,1,1,1,1,3,';
             21977        %SET BRINC='0,0,0,0,0,0,0,0,2,';
             21978        %SET BCINC='0,0,0,0,0,0,0,0,0,';
             21979        %SET BTYPE='7,6,2,3,4,1,0,10,0,';
             21980        %IF '0'B;
             21984        %ELSEIF '0'B;
             21987        %ELSE;
             21988        %SET TEXT_LEN=7;
             21989        %SET TOT_LEN=2;
             21990        %SET BCOUNT='0,0,0,0,0,0,014,0,007,';
             21991        %SET BDISP='0,0,0,0,0,0,0053,0,0057,';
PL6.E3A0      #003=ASF$BUILD_FORM File=ASB$BUILD_DEFAULT_FILES.:E05TSI           TUE 07/29/97 08:58 Page:174
             21992        %SET DISP#=59;
             21993        %SET TEXT_LEN#=24;
             21994        %SET DIFF=1;
             21995        %IF '1'B;
             21996        %SET TEXT_VAL='VERSION ';
             21997        %ENDIF;
             21998        %IF'0'B;
             22000        %ENDIF;
             22001        %IF'0'B;
             22003        %ENDIF;
             22004        %SET BTEXT='Honeywell Bull  VERSION ';
             22005        %ENDIF;
      896    22007        %FS$BAN_ENT(ROW=15,COL=9,TYPE=FS_VERSION_INT,REPS=3,RINC=2);
             22008        %SET BROW='1,1,1,1,1,1,3,3,15,15,';
             22009        %SET BCOL='1,10,18,27,40,50,1,80,1,9,';
             22010        %SET BFONT='0,0,0,0,0,0,1,0,0,0,';
             22011        %SET BSTRIKES='1,1,1,1,1,1,2,2,1,1,';
             22012        %SET BICSH='0,0,0,0,0,0,1,0,0,0,';
             22013        %SET BREPS='1,1,1,1,1,1,1,1,3,3,';
             22014        %SET BRINC='0,0,0,0,0,0,0,0,2,2,';
             22015        %SET BCINC='0,0,0,0,0,0,0,0,0,0,';
             22016        %SET BTYPE='7,6,2,3,4,1,0,10,0,8,';
             22017        %IF '0'B;
             22021        %ELSEIF '1'B;
             22022        %SET BCOUNT='0,0,0,0,0,0,014,0,007,0,';
             22023        %SET BDISP='0,0,0,0,0,0,0053,0,0057,0,';
             22024        %ELSE;
             22042        %ENDIF;
      897    22044        %FS$BAN_ENT(ROW=15,COL=20,TYPE=FS_SYSID_INT,FONT=1,STRIKES=2,ICSH=1);
             22045        %SET BROW='1,1,1,1,1,1,3,3,15,15,15,';
             22046        %SET BCOL='1,10,18,27,40,50,1,80,1,9,20,';
             22047        %SET BFONT='0,0,0,0,0,0,1,0,0,0,1,';
             22048        %SET BSTRIKES='1,1,1,1,1,1,2,2,1,1,2,';
             22049        %SET BICSH='0,0,0,0,0,0,1,0,0,0,1,';
             22050        %SET BREPS='1,1,1,1,1,1,1,1,3,3,1,';
             22051        %SET BRINC='0,0,0,0,0,0,0,0,2,2,0,';
             22052        %SET BCINC='0,0,0,0,0,0,0,0,0,0,0,';
PL6.E3A0      #003=ASF$BUILD_FORM File=ASB$BUILD_DEFAULT_FILES.:E05TSI           TUE 07/29/97 08:58 Page:175
             22053        %SET BTYPE='7,6,2,3,4,1,0,10,0,8,1,';
             22054        %IF '0'B;
             22058        %ELSEIF '1'B;
             22059        %SET BCOUNT='0,0,0,0,0,0,014,0,007,0,0,';
             22060        %SET BDISP='0,0,0,0,0,0,0053,0,0057,0,0,';
             22061        %ELSE;
             22079        %ENDIF;
      898    22081        %FS$BAN_ENT(ROW=26,COL=10,FONT=1,STRIKES=3,ICSH=1,TYPE=FS_UNAME_INT);
             22082        %SET BROW='1,1,1,1,1,1,3,3,15,15,15,26,';
             22083        %SET BCOL='1,10,18,27,40,50,1,80,1,9,20,10,';
             22084        %SET BFONT='0,0,0,0,0,0,1,0,0,0,1,1,';
             22085        %SET BSTRIKES='1,1,1,1,1,1,2,2,1,1,2,3,';
             22086        %SET BICSH='0,0,0,0,0,0,1,0,0,0,1,1,';
             22087        %SET BREPS='1,1,1,1,1,1,1,1,3,3,1,1,';
             22088        %SET BRINC='0,0,0,0,0,0,0,0,2,2,0,0,';
             22089        %SET BCINC='0,0,0,0,0,0,0,0,0,0,0,0,';
             22090        %SET BTYPE='7,6,2,3,4,1,0,10,0,8,1,3,';
             22091        %IF '0'B;
             22095        %ELSEIF '1'B;
             22096        %SET BCOUNT='0,0,0,0,0,0,014,0,007,0,0,0,';
             22097        %SET BDISP='0,0,0,0,0,0,0053,0,0057,0,0,0,';
             22098        %ELSE;
             22116        %ENDIF;
      899    22118        %FS$BAN_ENT(ROW=45,COL=1,REPS=2,TYPE=FS_X_INT,TEXT='*');
             22119        %SET BROW='1,1,1,1,1,1,3,3,15,15,15,26,45,';
             22120        %SET BCOL='1,10,18,27,40,50,1,80,1,9,20,10,1,';
             22121        %SET BFONT='0,0,0,0,0,0,1,0,0,0,1,1,0,';
             22122        %SET BSTRIKES='1,1,1,1,1,1,2,2,1,1,2,3,1,';
             22123        %SET BICSH='0,0,0,0,0,0,1,0,0,0,1,1,0,';
             22124        %SET BREPS='1,1,1,1,1,1,1,1,3,3,1,1,2,';
             22125        %SET BRINC='0,0,0,0,0,0,0,0,2,2,0,0,0,';
             22126        %SET BCINC='0,0,0,0,0,0,0,0,0,0,0,0,0,';
             22127        %SET BTYPE='7,6,2,3,4,1,0,10,0,8,1,3,11,';
             22128        %IF '1'B;
             22129        %SET QUOTE='''';
             22130        %SET BCOUNT='0,0,0,0,0,0,014,0,007,0,0,0,ASCBIN(''*''),';
             22131        %SET BDISP='0,0,0,0,0,0,0053,0,0057,0,0,0,0,';
PL6.E3A0      #003=ASF$BUILD_FORM File=ASB$BUILD_DEFAULT_FILES.:E05TSI           TUE 07/29/97 08:58 Page:176
             22132        %ELSEIF (TYPE~=FS_PLAIN_TEXT);
             22153        %ENDIF;
      900    22155        %FS$BAN_GEN;
             22156    1           3 ROW UBIN BYTE UNAL INIT(1,1,1,1,1,1,3,3,15,15,15,26,45),
             22157    1             3 COL UBIN BYTE UNAL INIT(1,10,18,27,40,50,1,80,1,9,20,10,1),
             22158    1             3 FONT UBIN BYTE UNAL INIT(0,0,0,0,0,0,1,0,0,0,1,1,0),
             22159    1             3 STRIKES UBIN BYTE UNAL INIT(1,1,1,1,1,1,2,2,1,1,2,3,1),
             22160    1             3 ICSH UBIN BYTE UNAL INIT(0,0,0,0,0,0,1,0,0,0,1,1,0),
             22161    1             3 REPS UBIN BYTE UNAL INIT(1,1,1,1,1,1,1,1,3,3,1,1,2),
             22162    1             3 RINC UBIN BYTE UNAL INIT(0,0,0,0,0,0,0,0,2,2,0,0,0),
             22163    1             3 CINC UBIN BYTE UNAL INIT(0,0,0,0,0,0,0,0,0,0,0,0,0),
             22164    1             3 TYPE UBIN BYTE UNAL INIT(7,6,2,3,4,1,0,10,0,8,1,3,11),
             22165    1             3 DISP UBIN HALF UNAL INIT(0,0,0,0,0,0,0053,0,0057,0,0,0,0),
             22166    1             3 B REDEF DISP,
             22167    1             4 START UBIN BYTE UNAL,
             22168    1             4 LEN UBIN BYTE UNAL,
             22169    1             3 COUNT UBIN BYTE UNAL INIT(0,0,0,0,0,0,014,0,007,0,0,0,ASCBIN('*')),
             22170    1             3 TOTLEN UBIN(27) UNAL INIT(0*0),
             22171    1             3 MARK UBIN BYTE UNAL INIT(0*0),
             22172    1             2 TEXT CHAR(24) INIT ('Honeywell Bull  VERSION ');
      901    22174        %FS$FORMREC(NAME=STDXX,
      902    22175                      STCLASS=CONSTANT,
      903    22176                      FRMNAME='STD** ',
      904    22177                      WDTH=80,
      905    22178                      ELS_OK=YES
      906    22179                           );
             22180        %LSET STR='CONSTANT        ';
             22181        %IF
             22183         '1'B;
             22184        %LSET INIT=INIT;
             22185        %ELSE;
             22187        %ENDIF;
             22188        /*
             22189        */
             22190    1   DCL 1 STDXX CONSTANT ALIGNED,
             22191    1         2 FNAME CHAR(6) INIT('STD** ')/**/, /* FORM NAME           */
             22192    1         2 ACCTDISP UBIN HALF UNAL INIT(0)/**/,
PL6.E3A0      #003=ASF$BUILD_FORM File=ASB$BUILD_DEFAULT_FILES.:E05TSI           TUE 07/29/97 08:58 Page:177
             22193    1         2 SETUPDISP UBIN HALF UNAL INIT(0)/**/, /* WD DISP TO SETUP */
             22194    1         2 ACCSDISP UBIN HALF UNAL INIT(0)/**/, /* DISP TO ACCESS */
             22195    1         2 BANRDISP UBIN HALF UNAL INIT(0)/**/, /* DISP TO BANNER */
             22196    1         2 ALGNDISP UBIN HALF UNAL INIT(0)/**/, /* DISP TO ALGNMENT */
             22197    1         2 FLAGS BIT(7) INIT('0000000'B) /**/, /* SETABLE BUT NOT USED */
             22198    1         2 * BIT(1) INIT('0'B)/**/, /* THIS BIT IS FREE            */
             22199    1         2 GRAPHIC BIT(1) INIT('0'B)/**/, /* GRAPHIC FORM   */
             22200        /**/
             22201        /*  LEGAL TYPE OF DEVICES FOR THIS FORM */
             22202        /*   The LGLTYPS field here is duplicated in the FS$CHARSET record
             22203             and when this macro is changed, this one should be checked!
             22204        */
             22205        /**/
             22206    1         2 LGLTYPS,
             22207    1           3 LPOK BIT(1) INIT('0'B)/**/, /* LEGAL ON LP           */
             22208    1           3 TSOK BIT(1) INIT('0'B)/**/, /* LEGAL ON TS           */
             22209    1           3 ELSOK BIT(1) INIT('1'B)/**/, /* LEGAL ON ALL BUT TS+LP */
             22210    1           3 ONEOK BIT(1) INIT('0'B)/**/, /* LEGAL ON TYP=LTYP   */
             22211    1           3 * BIT(5) INIT('00000'B)/**/,
             22212    1           3 LTYP CHAR(2) INIT(' ')/**/, /* LEGAL IF ONEOK=YES   */
             22213    1         2 ATTR BIT(18) UNAL INIT('000006'O) /**/,
             22214    1         2 SOFTFORM,                       /*SOFT VFU/PLATEN INFO                */
             22215        /**/
             22216        /*  WRITE SOFTFORM WITH VFC_VFU AND BP ON IN DVBYTE */
             22217        /**/
             22218    1           3 VLPPLATEN,                    /* SEE KI_CP6_C FOR DESC              */
             22219    1             4 TL,
             22220    1               5 T UBIN BYTE UNAL INIT(8)/**/,
             22221    1               5 L UBIN BYTE UNAL INIT(16)/**/,
             22222    1             4 WIDTH UBIN BYTE UNAL INIT(80)/**/,
             22223    1             4 LENGTH UBIN BYTE UNAL INIT(0)/**/,
             22224    1             4 LIMBO UBIN BYTE UNAL INIT(0)/**/,
             22225    1             4 FIRSTLINE UBIN BYTE UNAL INIT(0)/**/,
             22226    1             4 * BIT(8) INIT('00000000'B)/**/,
             22227    1             4 EXTWID BIT(1) INIT('0'B)/**/,
             22228    1             4 LPI UBIN BYTE UNAL INIT(6)/**/,
             22229    1             4 * (0:9) UBIN BYTE UNAL INIT(0*0)/**/,
PL6.E3A0      #003=ASF$BUILD_FORM File=ASB$BUILD_DEFAULT_FILES.:E05TSI           TUE 07/29/97 08:58 Page:178
             22230    1           3 VFUIM,                        /* TED AND PAULS SOFT VFU IMAGE       */
             22231    1             4 TL,
             22232    1               5 T UBIN BYTE UNAL INIT(18)/**/,
             22233    1               5 L UBIN BYTE UNAL INIT(64)/**/,
             22234    1             4 V,
             22235    1               5 LINE(0:31) UBIN BYTE UNAL INIT(0*0)/**/,
             22236    1               5 NEXT(0:31) UBIN BYTE UNAL INIT(0*0)/**/,
             22237    1         2 CHAIN_NAME CHAR(8) UNAL INIT('600')/**/,
             22238    1         2 CHAINS(0:5) CHAR(40) UNAL INIT(
             22239                %C600;
             22240    1             'BDFGHJgS0ACEINORLTabcdefKhijklmM0PQUVWXY',
             22241    1             'Z:;?!%7xynoprstw0z123456#89.,()@$=&/''\^_',
             22242    1             '0"<>[]gS~ACEINOR{Tabcdef0hijklm}|`-*+quv',
             22243    1             'BDFGHJ7x0noprstwLz123456K89.,()M0PQUVWXY',
             22244    1             'Z:;?!%gSyACEINOR0Tabcdef#hijklm@$=&/''\^_',
             22245    1             '0"<>[]7x~noprstw{z123456089.,()}|`-*+quv')
             22247    1           /**/,
             22248    1         2 CHAINIMAGE REDEF CHAINS CHAR(240) UNAL;
      907    22250        %FS$BAN_INIT(NAME=STDXX_BAN,
      908    22251                      STCLASS=CONSTANT,
      909    22252                      CNT=8,
      910    22253                      REPTS=1,
      911    22254                      INR=1
      912    22255                           );
             22256        %LSET STR='CONSTANT        ';
             22257        %IF
             22258         '0'B;
             22285        %ELSE;
             22286    1   DCL 1 STDXX_BAN CONSTANT,
             22287    1         2 CHARGE UBIN BYTE INIT (0) UNAL,
             22288    1         2 ALIGNCTL REDEF CHARGE UNAL,
             22289    1           3 EVERY BIT(1) UNAL,
             22290    1           3 * BIT(8) UNAL,
             22291    1         2 REPEATS UBIN BYTE INIT (1) UNAL,
             22292    1         2 INTR UBIN BYTE INIT (1) UNAL,
             22293    1         2 NUM_ENTRIES UBIN BYTE INIT (8) UNAL,
             22294        %SET BCNT=7;
PL6.E3A0      #003=ASF$BUILD_FORM File=ASB$BUILD_DEFAULT_FILES.:E05TSI           TUE 07/29/97 08:58 Page:179
             22295    1         2 ENTRIES(0:7),
             22296        %SET BROW='';
             22297        %SET BCOL='';
             22298        %SET BFONT='';
             22299        %SET BSTRIKES='';
             22300        %SET BICSH='';
             22301        %SET BREPS='';
             22302        %SET BRINC='';
             22303        %SET BCINC='';
             22304        %SET BTYPE='';
             22305        %SET BDISP='';
             22306        %SET BCOUNT='';
             22307        %SET BTEXT='';
             22308        %SET DISP#=33;
             22309        %SET TEXT_LEN#=0;
             22310        %ENDIF;
      913    22312        %FS$BAN_ENT(ROW=1,COL=1,TYPE=FS_PLAIN_TEXT,TEXT='jklmnopqr');
             22313        %SET BROW='1,';
             22314        %SET BCOL='1,';
             22315        %SET BFONT='0,';
             22316        %SET BSTRIKES='1,';
             22317        %SET BICSH='0,';
             22318        %SET BREPS='1,';
             22319        %SET BRINC='0,';
             22320        %SET BCINC='0,';
             22321        %SET BTYPE='0,';
             22322        %IF '0'B;
             22326        %ELSEIF '0'B;
             22329        %ELSE;
             22330        %SET TEXT_LEN=9;
             22331        %SET TOT_LEN=3;
             22332        %SET BCOUNT='009,';
             22333        %SET BDISP='0033,';
             22334        %SET DISP#=36;
             22335        %SET TEXT_LEN#=12;
             22336        %SET DIFF=3;
             22337        %IF '0'B;
PL6.E3A0      #003=ASF$BUILD_FORM File=ASB$BUILD_DEFAULT_FILES.:E05TSI           TUE 07/29/97 08:58 Page:180
             22339        %ENDIF;
             22340        %IF'0'B;
             22342        %ENDIF;
             22343        %IF'1'B;
             22344        %SET TEXT_VAL='jklmnopqr   ';
             22345        %ENDIF;
             22346        %SET BTEXT='jklmnopqr   ';
             22347        %ENDIF;
      914    22349        %FS$BAN_ENT(ROW=1,COL=72,TYPE=FS_PLAIN_TEXT,TEXT='rqponmlkj');
             22350        %SET BROW='1,1,';
             22351        %SET BCOL='1,72,';
             22352        %SET BFONT='0,0,';
             22353        %SET BSTRIKES='1,1,';
             22354        %SET BICSH='0,0,';
             22355        %SET BREPS='1,1,';
             22356        %SET BRINC='0,0,';
             22357        %SET BCINC='0,0,';
             22358        %SET BTYPE='0,0,';
             22359        %IF '0'B;
             22363        %ELSEIF '0'B;
             22366        %ELSE;
             22367        %SET TEXT_LEN=9;
             22368        %SET TOT_LEN=3;
             22369        %SET BCOUNT='009,009,';
             22370        %SET BDISP='0033,0036,';
             22371        %SET DISP#=39;
             22372        %SET TEXT_LEN#=24;
             22373        %SET DIFF=3;
             22374        %IF '0'B;
             22376        %ENDIF;
             22377        %IF'0'B;
             22379        %ENDIF;
             22380        %IF'1'B;
             22381        %SET TEXT_VAL='rqponmlkj   ';
             22382        %ENDIF;
             22383        %SET BTEXT='jklmnopqr   rqponmlkj   ';
             22384        %ENDIF;
PL6.E3A0      #003=ASF$BUILD_FORM File=ASB$BUILD_DEFAULT_FILES.:E05TSI           TUE 07/29/97 08:58 Page:181
      915    22386        %FS$BAN_ENT(ROW=1,COL=63,TYPE=FS_SYSID_INT);
             22387        %SET BROW='1,1,1,';
             22388        %SET BCOL='1,72,63,';
             22389        %SET BFONT='0,0,0,';
             22390        %SET BSTRIKES='1,1,1,';
             22391        %SET BICSH='0,0,0,';
             22392        %SET BREPS='1,1,1,';
             22393        %SET BRINC='0,0,0,';
             22394        %SET BCINC='0,0,0,';
             22395        %SET BTYPE='0,0,1,';
             22396        %IF '0'B;
             22400        %ELSEIF '1'B;
             22401        %SET BCOUNT='009,009,0,';
             22402        %SET BDISP='0033,0036,0,';
             22403        %ELSE;
             22421        %ENDIF;
      916    22423        %FS$BAN_ENT(ROW=1,COL=14,TYPE=FS_DATE_INT);
             22424        %SET BROW='1,1,1,1,';
             22425        %SET BCOL='1,72,63,14,';
             22426        %SET BFONT='0,0,0,0,';
             22427        %SET BSTRIKES='1,1,1,1,';
             22428        %SET BICSH='0,0,0,0,';
             22429        %SET BREPS='1,1,1,1,';
             22430        %SET BRINC='0,0,0,0,';
             22431        %SET BCINC='0,0,0,0,';
             22432        %SET BTYPE='0,0,1,7,';
             22433        %IF '0'B;
             22437        %ELSEIF '1'B;
             22438        %SET BCOUNT='009,009,0,0,';
             22439        %SET BDISP='0033,0036,0,0,';
             22440        %ELSE;
             22458        %ENDIF;
      917    22460        %FS$BAN_ENT(ROW=1,COL=23,TYPE=FS_TIME_INT);
             22461        %SET BROW='1,1,1,1,1,';
             22462        %SET BCOL='1,72,63,14,23,';
             22463        %SET BFONT='0,0,0,0,0,';
             22464        %SET BSTRIKES='1,1,1,1,1,';
PL6.E3A0      #003=ASF$BUILD_FORM File=ASB$BUILD_DEFAULT_FILES.:E05TSI           TUE 07/29/97 08:58 Page:182
             22465        %SET BICSH='0,0,0,0,0,';
             22466        %SET BREPS='1,1,1,1,1,';
             22467        %SET BRINC='0,0,0,0,0,';
             22468        %SET BCINC='0,0,0,0,0,';
             22469        %SET BTYPE='0,0,1,7,6,';
             22470        %IF '0'B;
             22474        %ELSEIF '1'B;
             22475        %SET BCOUNT='009,009,0,0,0,';
             22476        %SET BDISP='0033,0036,0,0,0,';
             22477        %ELSE;
             22495        %ENDIF;
      918    22497        %FS$BAN_ENT(ROW=1,COL=31,TYPE=FS_ACCN_INT);
             22498        %SET BROW='1,1,1,1,1,1,';
             22499        %SET BCOL='1,72,63,14,23,31,';
             22500        %SET BFONT='0,0,0,0,0,0,';
             22501        %SET BSTRIKES='1,1,1,1,1,1,';
             22502        %SET BICSH='0,0,0,0,0,0,';
             22503        %SET BREPS='1,1,1,1,1,1,';
             22504        %SET BRINC='0,0,0,0,0,0,';
             22505        %SET BCINC='0,0,0,0,0,0,';
             22506        %SET BTYPE='0,0,1,7,6,2,';
             22507        %IF '0'B;
             22511        %ELSEIF '1'B;
             22512        %SET BCOUNT='009,009,0,0,0,0,';
             22513        %SET BDISP='0033,0036,0,0,0,0,';
             22514        %ELSE;
             22532        %ENDIF;
      919    22534        %FS$BAN_ENT(ROW=1,COL=40,TYPE=FS_UNAME_INT);
             22535        %SET BROW='1,1,1,1,1,1,1,';
             22536        %SET BCOL='1,72,63,14,23,31,40,';
             22537        %SET BFONT='0,0,0,0,0,0,0,';
             22538        %SET BSTRIKES='1,1,1,1,1,1,1,';
             22539        %SET BICSH='0,0,0,0,0,0,0,';
             22540        %SET BREPS='1,1,1,1,1,1,1,';
             22541        %SET BRINC='0,0,0,0,0,0,0,';
             22542        %SET BCINC='0,0,0,0,0,0,0,';
             22543        %SET BTYPE='0,0,1,7,6,2,3,';
PL6.E3A0      #003=ASF$BUILD_FORM File=ASB$BUILD_DEFAULT_FILES.:E05TSI           TUE 07/29/97 08:58 Page:183
             22544        %IF '0'B;
             22548        %ELSEIF '1'B;
             22549        %SET BCOUNT='009,009,0,0,0,0,0,';
             22550        %SET BDISP='0033,0036,0,0,0,0,0,';
             22551        %ELSE;
             22569        %ENDIF;
      920    22571        %FS$BAN_ENT(ROW=1,COL=53,TYPE=FS_WOO_INT);
             22572        %SET BROW='1,1,1,1,1,1,1,1,';
             22573        %SET BCOL='1,72,63,14,23,31,40,53,';
             22574        %SET BFONT='0,0,0,0,0,0,0,0,';
             22575        %SET BSTRIKES='1,1,1,1,1,1,1,1,';
             22576        %SET BICSH='0,0,0,0,0,0,0,0,';
             22577        %SET BREPS='1,1,1,1,1,1,1,1,';
             22578        %SET BRINC='0,0,0,0,0,0,0,0,';
             22579        %SET BCINC='0,0,0,0,0,0,0,0,';
             22580        %SET BTYPE='0,0,1,7,6,2,3,4,';
             22581        %IF '0'B;
             22585        %ELSEIF '1'B;
             22586        %SET BCOUNT='009,009,0,0,0,0,0,0,';
             22587        %SET BDISP='0033,0036,0,0,0,0,0,0,';
             22588        %ELSE;
             22606        %ENDIF;
      921    22608        %FS$BAN_GEN;
             22609    1           3 ROW UBIN BYTE UNAL INIT(1,1,1,1,1,1,1,1),
             22610    1             3 COL UBIN BYTE UNAL INIT(1,72,63,14,23,31,40,53),
             22611    1             3 FONT UBIN BYTE UNAL INIT(0,0,0,0,0,0,0,0),
             22612    1             3 STRIKES UBIN BYTE UNAL INIT(1,1,1,1,1,1,1,1),
             22613    1             3 ICSH UBIN BYTE UNAL INIT(0,0,0,0,0,0,0,0),
             22614    1             3 REPS UBIN BYTE UNAL INIT(1,1,1,1,1,1,1,1),
             22615    1             3 RINC UBIN BYTE UNAL INIT(0,0,0,0,0,0,0,0),
             22616    1             3 CINC UBIN BYTE UNAL INIT(0,0,0,0,0,0,0,0),
             22617    1             3 TYPE UBIN BYTE UNAL INIT(0,0,1,7,6,2,3,4),
             22618    1             3 DISP UBIN HALF UNAL INIT(0033,0036,0,0,0,0,0,0),
             22619    1             3 B REDEF DISP,
             22620    1             4 START UBIN BYTE UNAL,
             22621    1             4 LEN UBIN BYTE UNAL,
             22622    1             3 COUNT UBIN BYTE UNAL INIT(009,009,0,0,0,0,0,0),
PL6.E3A0      #003=ASF$BUILD_FORM File=ASB$BUILD_DEFAULT_FILES.:E05TSI           TUE 07/29/97 08:58 Page:184
             22623    1             3 TOTLEN UBIN(27) UNAL INIT(0*0),
             22624    1             3 MARK UBIN BYTE UNAL INIT(0*0),
             22625    1             2 TEXT CHAR(24) INIT ('jklmnopqr   rqponmlkj   ');
      922    22627        %FS$SET_INIT(NAME=SETUPSTDLP,CNT=4,STCLASS=CONSTANT);
             22628        %LSET STR='CONSTANT        ';
             22629        %IF
             22630            '0'B;
             22636        %ELSE;
             22637    1   DCL 1 SETUPSTDLP CONSTANT,
             22638    1         2 LINES UBIN BYTE UNAL INIT(4), /* NUM OF LINES                       */
             22639    1         2 * UBIN BYTE UNAL INIT(0),
             22640    1         2 * UBIN HALF UNAL INIT(0),
             22641        %SET BCNT=3;
             22642    1         2 TXT(0:3) CHAR(72) INIT(
             22643        %ENDIF;
      923    22645        %FS$SET_ENT(TXT=
             22645            '************************************************************************');
             22646    1           '************************************************************************',
      924    22648        %FS$SET_ENT(TXT=
             22648            '*** SET UP STANDARD LP PAPER 8 1/2 BY 11 GREEN BAR                    **');
             22649    1           '*** SET UP STANDARD LP PAPER 8 1/2 BY 11 GREEN BAR                    **',
      925    22651        %FS$SET_ENT(TXT=
             22651            '***             WITH HONEYWELL BULL LOGO                              **');
             22652    1           '***             WITH HONEYWELL BULL LOGO                              **',
      926    22654        %FS$SET_ENT(TXT=
             22654            '************************************************************************');
             22655    1           '************************************************************************',
      927    22657        %FS$SET_GEN;
             22658    1             ' '*0);
      928    22660        %FS$FORMREC (STCLASS="BASED(PTR$)");
             22661        %LSET STR='BASED(PTR$)        ';
             22662        %IF
             22664         '0'B;
             22666        %ELSE;
             22667        %LSET INIT=/*;
             22668        %ENDIF;
             22669        /*
PL6.E3A0      #003=ASF$BUILD_FORM File=ASB$BUILD_DEFAULT_FILES.:E05TSI           TUE 07/29/97 08:58 Page:185
             22670        */
             22671    1   DCL 1 FS$FORMREC BASED(PTR$) ALIGNED,
             22672    1         2 FNAME CHAR(6) /*('  ')/**/, /* FORM NAME           */
             22673    1         2 ACCTDISP UBIN HALF UNAL /*(0)/**/,
             22674    1         2 SETUPDISP UBIN HALF UNAL /*(0)/**/, /* WD DISP TO SETUP */
             22675    1         2 ACCSDISP UBIN HALF UNAL /*(0)/**/, /* DISP TO ACCESS */
             22676    1         2 BANRDISP UBIN HALF UNAL /*(0)/**/, /* DISP TO BANNER */
             22677    1         2 ALGNDISP UBIN HALF UNAL /*(0)/**/, /* DISP TO ALGNMENT */
             22678    1         2 FLAGS BIT(7) /*('0000000'B) /**/, /* SETABLE BUT NOT USED */
             22679    1         2 * BIT(1) /*('0'B)/**/, /* THIS BIT IS FREE            */
             22680    1         2 GRAPHIC BIT(1) /*('0'B)/**/, /* GRAPHIC FORM   */
             22681        /**/
             22682        /*  LEGAL TYPE OF DEVICES FOR THIS FORM */
             22683        /*   The LGLTYPS field here is duplicated in the FS$CHARSET record
             22684             and when this macro is changed, this one should be checked!
             22685        */
             22686        /**/
             22687    1         2 LGLTYPS,
             22688    1           3 LPOK BIT(1) /*('0'B)/**/, /* LEGAL ON LP           */
             22689    1           3 TSOK BIT(1) /*('0'B)/**/, /* LEGAL ON TS           */
             22690    1           3 ELSOK BIT(1) /*('0'B)/**/, /* LEGAL ON ALL BUT TS+LP */
             22691    1           3 ONEOK BIT(1) /*('0'B)/**/, /* LEGAL ON TYP=LTYP   */
             22692    1           3 * BIT(5) /*('00000'B)/**/,
             22693    1           3 LTYP CHAR(2) /*(' ')/**/, /* LEGAL IF ONEOK=YES   */
             22694    1         2 ATTR BIT(18) UNAL /*('000006'O) /**/,
             22695    1         2 SOFTFORM,                       /*SOFT VFU/PLATEN INFO                */
             22696        /**/
             22697        /*  WRITE SOFTFORM WITH VFC_VFU AND BP ON IN DVBYTE */
             22698        /**/
             22699    1           3 VLPPLATEN,                    /* SEE KI_CP6_C FOR DESC              */
             22700    1             4 TL,
             22701    1               5 T UBIN BYTE UNAL /*(8)/**/,
             22702    1               5 L UBIN BYTE UNAL /*(16)/**/,
             22703    1             4 WIDTH UBIN BYTE UNAL /*(0)/**/,
             22704    1             4 LENGTH UBIN BYTE UNAL /*(0)/**/,
             22705    1             4 LIMBO UBIN BYTE UNAL /*(0)/**/,
             22706    1             4 FIRSTLINE UBIN BYTE UNAL /*(0)/**/,
PL6.E3A0      #003=ASF$BUILD_FORM File=ASB$BUILD_DEFAULT_FILES.:E05TSI           TUE 07/29/97 08:58 Page:186
             22707    1             4 * BIT(8) /*('00000000'B)/**/,
             22708    1             4 EXTWID BIT(1) /*('0'B)/**/,
             22709    1             4 LPI UBIN BYTE UNAL /*(6)/**/,
             22710    1             4 * (0:9) UBIN BYTE UNAL /*(0*0)/**/,
             22711    1           3 VFUIM,                        /* TED AND PAULS SOFT VFU IMAGE       */
             22712    1             4 TL,
             22713    1               5 T UBIN BYTE UNAL /*(18)/**/,
             22714    1               5 L UBIN BYTE UNAL /*(64)/**/,
             22715    1             4 V,
             22716    1               5 LINE(0:31) UBIN BYTE UNAL /*(0*0)/**/,
             22717    1               5 NEXT(0:31) UBIN BYTE UNAL /*(0*0)/**/,
             22718    1         2 CHAIN_NAME CHAR(8) UNAL /*('600')/**/,
             22719    1         2 CHAINS(0:5) CHAR(40) UNAL /*(
             22720                %C600;
             22721    1             'BDFGHJgS0ACEINORLTabcdefKhijklmM0PQUVWXY',
             22722    1             'Z:;?!%7xynoprstw0z123456#89.,()@$=&/''\^_',
             22723    1             '0"<>[]gS~ACEINOR{Tabcdef0hijklm}|`-*+quv',
             22724    1             'BDFGHJ7x0noprstwLz123456K89.,()M0PQUVWXY',
             22725    1             'Z:;?!%gSyACEINOR0Tabcdef#hijklm@$=&/''\^_',
             22726    1             '0"<>[]7x~noprstw{z123456089.,()}|`-*+quv')
             22728    1           /**/,
             22729    1         2 CHAINIMAGE REDEF CHAINS CHAR(240) UNAL;
      929    22731        %FS$CHARSET (NAME=CHARSET,
      930    22732                     STCLASS="BASED(CHARSET$)");
             22733        %LSET STR='BASED(CHARSET$)        ';
             22734        %IF
             22736         '0'B;
             22738        %ELSE;
             22739        %LSET INIT=/*;
             22740        %ENDIF;
             22741    1   DCL 1 CHARSET BASED(CHARSET$) ALIGNED,
             22742    1         2 SETS (0:9) CHAR (24) /* ('BDFGHJgS0ACEINORLTabcdef',
             22743    1                                    'KhijklmM0PQUVWXYZ:;?!%7x',
             22744    1                                    'ynoprstw0z123456#89.,()@',
             22745    1                                    '$=&/''\^_0"<>[]gS~ACEINOR',
             22746    1                                    '{Tabcdef0hijklm}|`-*+quv',
             22747    1                                    'BDFGHJ7x0noprstwLz123456',
PL6.E3A0      #003=ASF$BUILD_FORM File=ASB$BUILD_DEFAULT_FILES.:E05TSI           TUE 07/29/97 08:58 Page:187
             22748    1                                    'K89.,()M0PQUVWXYZ:;?!%gS',
             22749    1                                    'yACEINOR0Tabcdef#hijklm@',
             22750    1                                    '$=&/''\^_0"<>[]7x~noprstw',
             22751    1                                    '{z123456089.,()}|`-*+quv') /**/,
             22752    1         2 CHAINIMAGE REDEF SETS CHAR (240) UNAL,
             22753    1         2 ATTRS BIT (18) /* ('000001'O) /**/,
             22754    1         2 LGLTYPS,
             22755    1           3 LPOK BIT(1) /*('0'B)/**/,
             22756    1           3 TSOK BIT(1) /*('0'B)/**/,
             22757    1           3 ELSOK BIT(1) /*('0'B)/**/,
             22758    1           3 ONEOK BIT(1) /*('0'B)/**/,
             22759    1           3 * BIT(5) /*('00000'B)/**/,
             22760    1           3 LTYP CHAR(2) /*('  ')/**/,
             22761    1           3 * BIT(27) /*('000000000'O)/**/;
      931    22763            %FPT_GDS(FPTN=GET_MEM,
      932    22764                      COMMON=YES,
      933    22765                      FREE=YES,
      934    22766                      RESULTS=MEM_VEC,
      935    22767                      SEGSIZE=2048);
             22768        %LSET LISTDIR='0'B;
             22778    1   DCL 1 GET_MEM STATIC,2 V_ BIT(72)INIT(VECTOR(GET_MEM.V))/**/,2 RESULTS_ BIT(72)INIT(
             22778            VECTOR(MEM_VEC))/**/,2 V
             22779    1   DALIGNED,3 AUTOSEG# BIT(1)INIT('0'B)/**/ ,3 COMMON# BIT(1)INIT('1'B)/**/ ,3 FREE#
             22779            BIT(1)INIT('1'B
             22780    1   )/**/,3 VIRTONLY# BIT(1)INIT('0'B)/**/,3 * BIT(5)INIT('0'B)/**/,3 PROTECTION# BIT(9
             22781    1   )INIT('600'O)/**/,3 SEGSIZE# UBIN HALF UNAL INIT(2048)/**/;
      936    22783            %FPT_FDS(FPTN=FREE_MEM,
      937    22784                      COMMON=YES,
      938    22785                      RESULTS=MEM_VEC,
      939    22786                      SEGSIZE=2048);
             22787        %LSET LISTDIR='0'B;
             22797    1   DCL 1 FREE_MEM STATIC,2 V_ BIT(72)INIT(VECTOR(FREE_MEM.V))/**/,2 RESULTS_ BIT(72)
             22797            INIT(VECTOR(MEM_VEC))/**/,2 V
             22798    1   DALIGNED,3 AUTOSEG# BIT(1)INIT('0'B)/**/ ,3 COMMON# BIT(1)INIT('1'B)/**/ ,3 * BIT(16
             22798            )INIT('0'B
             22799    1   )/**/,3 SEGSIZE# UBIN HALF UNAL INIT(2048)/**/;
      940    22801            %VLP_VECTOR(FPTN=MEM_VEC);
PL6.E3A0      #003=ASF$BUILD_FORM File=ASB$BUILD_DEFAULT_FILES.:E05TSI           TUE 07/29/97 08:58 Page:188
             22802        %LSET LISTDIR='0'B;
             22812    1   DCL 1 MEM_VEC STATIC DALIGNED,2 W1,3 VSIZE# UBIN(20)UNAL INIT(0)/**/,3 FLAGS# BIT(9)
             22812            INIT('777'O)/**/,3
             22813    1   TYP# BIT(2)INIT('01'B)/**/,3 * UBIN(5)UNAL INIT(0)/**/,2 W2,3 BASE# UBIN(20)UNAL
             22813            INIT(0)
             22814    1   /**/,3 * UBIN(4)UNAL INIT(0)/**/,3 SEGID# BIT(12)INIT('6014'O)/**/,2 PTR$ REDEF W2
             22814            PTR;
      941    22816    1   DCL PTR$ PTR;
      942    22817    1   DCL CHARSET$ PTR;
      943    22818    1   DCL ARS UBIN;
      944    22819    1   DCL BOUND UBIN WORD;
      945    22820    1   DCL CHARS CHAR(BOUND) BASED UNAL;
      946    22821        /**/
      947    22822        /**/
      948    22823        %VLP_NAME (FPTN=STLP,STCLASS=CONSTANT,NAME='STDLP ');
             22824        %LSET LISTDIR='0'B;
             22848    1   DCL 1 STLP CONSTANT,2 L# UBIN(9)INIT(6)/**/ UNAL,2 NAME# CHAR(0)INIT('STDLP ')/**/ ;
      949    22850        %VLP_NAME (FPTN=STGR,STCLASS=CONSTANT,NAME='STDGR ');
             22851        %LSET LISTDIR='0'B;
             22875    1   DCL 1 STGR CONSTANT,2 L# UBIN(9)INIT(6)/**/ UNAL,2 NAME# CHAR(0)INIT('STDGR ')/**/ ;
      950    22877        %VLP_NAME (FPTN=STXX,STCLASS=CONSTANT,NAME='STD** ');
             22878        %LSET LISTDIR='0'B;
             22902    1   DCL 1 STXX CONSTANT,2 L# UBIN(9)INIT(6)/**/ UNAL,2 NAME# CHAR(0)INIT('STD** ')/**/ ;
      951    22904        %VLP_NAME (FPTN=KEY_600,STCLASS=CONSTANT,NAME='~600CHARSET');
             22905        %LSET LISTDIR='0'B;
             22929    1   DCL 1 KEY_600 CONSTANT,2 L# UBIN(9)INIT(11)/**/ UNAL,2 NAME# CHAR(0)INIT(
             22929            '~600CHARSET')/**/ ;
      952    22931        %VLP_NAME (FPTN=KEY_513,STCLASS=CONSTANT,NAME='~513CHARSET');
             22932        %LSET LISTDIR='0'B;
             22956    1   DCL 1 KEY_513 CONSTANT,2 L# UBIN(9)INIT(11)/**/ UNAL,2 NAME# CHAR(0)INIT(
             22956            '~513CHARSET')/**/ ;
      953    22958        %PLIST;
      954    22959        %EJECT;
PL6.E3A0      #003=ASF$BUILD_FORM File=ASB$BUILD_DEFAULT_FILES.:E05TSI           TUE 07/29/97 08:58 Page:189
      955    22960    1   CALL M$GDS(GET_MEM)
      956    22961    2   WHENALTRETURN DO;
      957    22962    2      CALL M$XXX;
      958    22963    2      END;
      959    22964        /*
      960    22965                 Here is the stdlp record
      961    22966        */
      962    22967    1   PTR$=MEM_VEC.PTR$;
      963    22968    1   FS$FORMREC=STDLP;
      964    22969    1   PTR$=PINCRC(PTR$,SIZEC(STDLP));
      965    22970    1   BOUND=SIZEC(STDLP_BAN);
      966    22971    1   PTR$->CHARS=ADDR(STDLP_BAN)->CHARS;
      967    22972    1   PTR$=PINCRC(PTR$,BOUND);
      968    22973    1   BOUND=SIZEC(SETUPSTDLP);
      969    22974    1   PTR$->CHARS=ADDR(SETUPSTDLP)->CHARS;
      970    22975    1   PTR$=MEM_VEC.PTR$;
      971    22976    1   FS$FORMREC.BANRDISP=SIZEW(STDLP);
      972    22977    1   FS$FORMREC.SETUPDISP=SIZEW(STDLP)+SIZEW(STDLP_BAN);
      973    22978    1   BOUND = (SIZEW(STDLP) + SIZEW(STDLP_BAN) + SIZEW(SETUPSTDLP))*4;
      974    22979    1   CHARSET$ = PINCRW (PTR$,((BOUND+3)/4));
      975    22980    1   CALL INSERT_CHARSET;
      976    22981    1   CALL REVERSE_BANNER_TEXT;
      977    22982    1   CALL ASF$WRITE_FORM(STLP,PTR$,BOUND);
      978    22983        /*
      979    22984                 Here is the stdgr record
      980    22985        */
      981    22986    1   PTR$=MEM_VEC.PTR$;
      982    22987    1   FS$GFORMREC=STDGR;
      983    22988    1   FS$GFORMREC.GRAPHIC = '1'B;
      984    22989    1   FS$GFORMREC.TRANSLGL = '1'B;
      985    22990    1   FS$GFORMREC.X_SIZE = 2159;
      986    22991    1   FS$GFORMREC.Y_SIZE = 2794;
      987    22992    1   FS$GFORMREC.SET_DEV_LIM.X_SIZE = '010157'O;
      988    22993    1   FS$GFORMREC.SET_DEV_LIM.Y_SIZE = '012352'O;
      989    22994    1   BOUND = SIZEW (STDGR) * 4;
      990    22995    1   CHARSET$ = PINCRW (PTR$,((BOUND+3)/4));
      991    22996    1   CALL INSERT_CHARSET;
PL6.E3A0      #003=ASF$BUILD_FORM File=ASB$BUILD_DEFAULT_FILES.:E05TSI           TUE 07/29/97 08:58 Page:190
      992    22997    1   CALL ASF$WRITE_FORM(STGR,PTR$,BOUND);
      993    22998        /*
      994    22999                 And here is the STD** Record
      995    23000        */
      996    23001    1   PTR$=MEM_VEC.PTR$;
      997    23002    1   FS$FORMREC=STDXX;
      998    23003    1   PTR$=PINCRC(PTR$,SIZEC(STDXX));
      999    23004    1   BOUND=SIZEC(STDXX_BAN);
     1000    23005    1   PTR$->CHARS=ADDR(STDXX_BAN)->CHARS;
     1001    23006    1   PTR$=MEM_VEC.PTR$;
     1002    23007    1   FS$FORMREC.BANRDISP=SIZEW(STDXX);
     1003    23008    1   BOUND = (SIZEW(STDXX) + SIZEW(STDXX_BAN)) * 4;
     1004    23009    1   CHARSET$ = PINCRW (PTR$,((BOUND+3)/4));
     1005    23010    1   CALL INSERT_CHARSET;
     1006    23011    1   CALL REVERSE_BANNER_TEXT;
     1007    23012    1   CALL ASF$WRITE_FORM(STXX,PTR$,BOUND);
     1008    23013    1   CALL M$FDS(FREE_MEM)
     1009    23014    2   WHENALTRETURN DO;
     1010    23015    2      CALL M$XXX;
     1011    23016    2      END;
     1012    23017    1   RETURN;
     1013    23018        /* Routine to read in a charset and place it in the form record
     1014    23019             for either stdlp or STD**.  For STD** Place the 513 chain
     1015    23020             and attributes in it.  For stdlp, get the attributes of the
     1016    23021             LP01 out of the :CONFIG file, find a chain with the same
     1017    23022             attributes and place that chains info into stdlp.  If no
     1018    23023             chain matches the attributes for LP@LOCAL, the default is
     1019    23024             600.
     1020    23025        */
     1021    23026
     1022    23027    1   INSERT_CHARSET: PROC;
     1023    23028
     1024    23029    2   DCL LP_ATTRS BIT (18) ALIGNED;
     1025    23030
     1026    23031    2   IF FS$FORMREC.FNAME = 'STD**'
     1027    23032    3   THEN DO;
     1028    23033    3      ARS = SIZEB(CHARSET);
PL6.E3A0      #003=ASF$BUILD_FORM File=ASB$BUILD_DEFAULT_FILES.:E05TSI           TUE 07/29/97 08:58 Page:191
     1029    23034    3      CALL ASF$READ_FORM (KEY_513, CHARSET$, ARS)
     1030    23035    4      WHENRETURN DO;
     1031    23036    4         FS$FORMREC.LGLTYPS = CHARSET.LGLTYPS;
     1032    23037    4         FS$FORMREC.ATTR = CHARSET.ATTRS;
     1033    23038    4         FS$FORMREC.CHAINIMAGE = CHARSET.CHAINIMAGE;
     1034    23039    4         FS$FORMREC.CHAIN_NAME = '513';
     1035    23040    4         END;
     1036    23041    4      WHENALTRETURN DO;
     1037    23042    4         IF MERR_CODE.CODE ~= 86
     1038    23043    5         THEN DO;
     1039    23044        /*E* ERROR: ASF-E$513CHAINNOTTHERE-C
     1040    23045             MESSAGE: STD** cannot be build - Charset 513 does not exist.
     1041    23046             MESSAGE1: When STD** is built, it uses as default the 513 charset,
     1042    23047                       if 513 is not there (it is built as a default) STD**
     1043    23048                       cannot be build.
     1044    23049        */
     1045    23050                 %SCREAM(ERR#=E$513CHAINNOTTHERE, MID='F', LEVEL=ERROR);
     1046    23065    5            END;
     1047    23066    5         ELSE DO;
     1048    23067    5            CALL ASH$ERROR (P_PCB.ERROR);
     1049    23068    5            RETURN;
     1050    23069    5            END;
     1051    23070    4         END;
     1052    23071    3      END; /* STD** */
     1053    23072    2   IF FS$FORMREC.FNAME = 'STDGR'
     1054    23073    3   THEN DO;
     1055    23074    3      ARS = SIZEB(CHARSET);
     1056    23075    3      CALL ASF$READ_FORM (KEY_600, CHARSET$, ARS)
     1057    23076    4      WHENRETURN DO;
     1058    23077    4         FS$GFORMREC.LGLTYPS = CHARSET.LGLTYPS;
     1059    23078    4         FS$GFORMREC.ATTR = CHARSET.ATTRS;
     1060    23079    4         FS$GFORMREC.ATTR = FS$GFORMREC.ATTR | '000200'O;
     1061    23080    4         FS$GFORMREC.ATTR = FS$GFORMREC.ATTR | '000400'O;
     1062    23081    4         END;
     1063    23082    4      WHENALTRETURN DO;
     1064    23083    4         IF MERR_CODE.CODE ~= 86
     1065    23084    5         THEN DO;
PL6.E3A0      #003=ASF$BUILD_FORM File=ASB$BUILD_DEFAULT_FILES.:E05TSI           TUE 07/29/97 08:58 Page:192
     1066    23085    5            AS_FIELD1 = STGR;
     1067    23086                 %SCREAM(ERR#=E$600CHAINNOTTHERE, MID='F', LEVEL=ERROR);
     1068    23101    5            END;
     1069    23102    5         ELSE DO;
     1070    23103    5            CALL ASH$ERROR (P_PCB.ERROR);
     1071    23104    5            RETURN;
     1072    23105    5            END;
     1073    23106    4         END;
     1074    23107    3      END; /* Stdgr */
     1075    23108    2   IF FS$FORMREC.FNAME = 'STDLP'
     1076    23109    3   THEN DO;
     1077    23110    3      ARS = SIZEB(CHARSET);
     1078    23111    3      CALL GET_CONFIGS_LP01_ATTRS (LP_ATTRS)
     1079    23112    4      WHENRETURN DO;
     1080    23113    4         USERS_KEY.COUNT = 16;
     1081    23114    4         USERS_KEY.TXTC = '~        CHARSET';
     1082    23115             /* This is to assure us that the next record read will be a
     1083    23116              charset record.
     1084    23117             */
     1085    23118    4         CALL ASF$PREC_FORM (USERS_KEY) ALTRET (GO_ON);
     1086    23119    4   GO_ON: ;
     1087    23120
     1088    23121             /* Start the loop.  Just keep reading in charset records until
     1089    23122              the attrs match,  then we have a valid charset.
     1090    23123              If we get an end of file on a read, we
     1091    23124              go back to the 600 charset.  Any other altret does this too.
     1092    23125             */
     1093    23126    5         DO UNTIL ( LP_ATTRS = CHARSET.ATTRS );
     1094    23127    5            CALL ASF$READ_FORM_SEQ (USERS_KEY, CHARSET$, ARS) ALTRET (USE_600);
     1095    23128    5            END;
     1096    23129    4         END;
     1097    23130    4      WHENALTRETURN DO;
     1098    23131    4   USE_600: ;
     1099    23132    4         USERS_KEY = KEY_600;
     1100    23133    4         CALL ASF$READ_FORM (KEY_600, CHARSET$, ARS)
     1101    23134    5         WHENALTRETURN DO;
     1102    23135    5            IF MERR_CODE.CODE ~= 86
PL6.E3A0      #003=ASF$BUILD_FORM File=ASB$BUILD_DEFAULT_FILES.:E05TSI           TUE 07/29/97 08:58 Page:193
     1103    23136    6            THEN DO;
     1104    23137                   /*E* ERROR: ASF-E$600CHAINNOTTHERE-C
     1105    23138                        MESSAGE: %U1 cannot be build - Charset 600 does not exist.
     1106    23139                        MESSAGE1: When %U1 is built, it uses as default the 600 charset,
     1107    23140                                  if 600 is not there (600 is built as a default) %U1
     1108    23141                                  cannot be build.
     1109    23142        */
     1110    23143    6               AS_FIELD1 = STLP;
     1111    23144                    %SCREAM(ERR#=E$600CHAINNOTTHERE, MID='F', LEVEL=ERROR);
     1112    23159    6               END;
     1113    23160    6            ELSE DO;
     1114    23161    6               CALL ASH$ERROR (P_PCB.ERROR);
     1115    23162    6               RETURN;
     1116    23163    6               END;
     1117    23164    5            END;
     1118    23165    4         END;
     1119    23166          /* Now CHARSET$ is pointing at the charset to use, just stick it in!*/
     1120    23167    3      FS$FORMREC.LGLTYPS = CHARSET.LGLTYPS;
     1121    23168    3      FS$FORMREC.ATTR = CHARSET.ATTRS;
     1122    23169    3      FS$FORMREC.CHAINIMAGE = CHARSET.CHAINIMAGE;
     1123    23170    3      FS$FORMREC.CHAIN_NAME = SUBSTR (USERS_KEY.TXTC,1,USERS_KEY.COUNT-8);
     1124    23171    3      END; /* Stdlp */
     1125    23172    2   RETURN;
     1126    23173    2   END INSERT_CHARSET;
     1127    23174    1   REVERSE_BANNER_TEXT: PROC;
     1128    23175    2   DCL BNR$ PTR;
     1129    23176    2   DCL SPARE CHAR (240) ALIGNED; /* Hope the text of a banner never
     1130    23177                                         exceeds 240 chars. */
     1131    23178    2   DCL ENTRIES UBIN;
     1132    23179    2   DCL TEXT$ PTR;
     1133    23180    2   DCL I SBIN ALIGNED;
     1134    23181    2   DCL J UBIN ALIGNED;
     1135    23182    2   DCL FIRST UBIN ALIGNED;
     1136    23183    2   DCL LAST UBIN ALIGNED;
     1137    23184    2   DCL F UBIN ALIGNED;
     1138    23185    2   DCL L UBIN ALIGNED;
     1139    23186    2   DCL MODIFIER UBIN ALIGNED;  /* Offset to first element */
PL6.E3A0      #003=ASF$BUILD_FORM File=ASB$BUILD_DEFAULT_FILES.:E05TSI           TUE 07/29/97 08:58 Page:194
     1140    23187    2   DCL CHRTEXT CHAR (240) BASED;
     1141    23188
     1142    23189    2   BNR$ = PINCRW (PTR$, PTR$->FS$FORMREC.BANRDISP);
     1143    23190    2   ENTRIES = BNR$-> FS$BANNER.NUM_ENTRIES - 1; /* Make it 0 based */
     1144    23191
     1145    23192    3   DO I = 0 TO ENTRIES;
     1146    23193    3      IF (BNR$->FS$BANNER.ENTRIES.TYPE (I) = 0/*TEXT*/)
     1147    23194    4      THEN DO;
     1148    23195    4         TEXT$ = PINCRW (BNR$, BNR$->FS$BANNER.ENTRIES.DISP (I));
     1149    23196    4         MODIFIER = BNR$->FS$BANNER.ENTRIES.DISP (I);
     1150    23197    4         I = ENTRIES + 1; /* Force us out of the loop */
     1151    23198    4         END;
     1152    23199    3      END;
     1153    23200
     1154    23201        /* We now have the text, we must reverse the order of the entries */
     1155    23202    2   J = 0;  /* J will indicate where to insert the text into spare */
     1156    23203    2   LAST = 0; /* Last will track our new disp values */
     1157    23204    2   FIRST = 0; /* First will track the new entry to get the count fixed.*/
     1158    23205    2   SPARE = ' ';
     1159    23206    3   DO I = ENTRIES DOWNTO 0;
     1160    23207    3      IF (BNR$->FS$BANNER.ENTRIES.TYPE (I) = 0/*TEXT*/)
     1161    23208    4      THEN DO;
     1162    23209              /* Must move whole words */
     1163    23210    4         L = BNR$->FS$BANNER.ENTRIES.COUNT(I);
     1164    23211    5         DO WHILE (MOD (L,4) ~= 0);
     1165    23212    5            L = L + 1;
     1166    23213    5            END;
     1167    23214    4         F = (BNR$->FS$BANNER.ENTRIES.DISP (I) - MODIFIER) * 4;
     1168    23215
     1169    23216    4         SUBSTR (SPARE, J, L) = SUBSTR (TEXT$->CHRTEXT, F, L);
     1170    23217    4         J = J + L;
     1171    23218
     1172    23219    4         IF (LAST = 0)
     1173    23220    5         THEN DO;
     1174    23221    5            BNR$-> FS$BANNER.ENTRIES.DISP (I) = MODIFIER;
     1175    23222    5            LAST = BNR$-> FS$BANNER.ENTRIES.COUNT (I);
     1176    23223    5            END;
PL6.E3A0      #003=ASF$BUILD_FORM File=ASB$BUILD_DEFAULT_FILES.:E05TSI           TUE 07/29/97 08:58 Page:195
     1177    23224    5         ELSE DO;
     1178    23225    6            DO WHILE (MOD (LAST,4) ~= 0);
     1179    23226    6               LAST = LAST + 1;
     1180    23227    6               END;
     1181    23228    5            BNR$-> FS$BANNER.ENTRIES.DISP (I) = MODIFIER + (LAST/4);
     1182    23229    5            LAST = LAST + BNR$-> FS$BANNER.ENTRIES.COUNT (I);
     1183    23230    5            END;
     1184    23231
     1185    23232    4         END;
     1186    23233    3      END;
     1187    23234    2   J = J - 1;  /* J has the count of text that has to be moved */
     1188    23235    2   SUBSTR (TEXT$->CHRTEXT, 0, J) = SUBSTR (SPARE, 0, J);
     1189    23236
     1190    23237    2   RETURN;
     1191    23238    2   END REVERSE_BANNER_TEXT;
     1192    23239    1   END ASF$BUILD_FORM;
     1193    23240        %EOD;

PL6.E3A0      #003=ASF$BUILD_FORM File=ASB$BUILD_DEFAULT_FILES.:E05TSI           TUE 07/29/97 08:58 Page:196
--  Include file information  --

   XG_SUBS_C.:E05TOU  is referenced.
   AS_SUPER_R.:E05TOU  cannot be made into a system file and is referenced.
   XU_FORMAT_C.:E05TOU  is referenced.
   XU_MACRO_C.:E05TOU  is referenced.
   B_ERRORS_C.:E05TOU  is referenced.
   AS_PERR_C.:E05TOU  is referenced.
   AS_MAC_C.:E05TOU  cannot be made into a system file and is referenced.
   AS_SUBS_C.:E05TOU  is referenced.
   KL_SUPER_C.:E05TOU  is referenced.
   FS_SUPER_C.:E05TOU  is referenced.
   AS_SUPER_C.:E05TOU  is referenced.
   CP_6_SUBS.:E05TOU  is referenced.
   CP_6_C.:E05TOU  is referenced.
   CP_6.:E05TOU  cannot be made into a system file and is referenced.
   AS_ENTRIES_M.:E05TOU  is referenced.
      No diagnostics issued in procedure ASF$BUILD_FORM.

   Procedure ASF$BUILD_FORM requires 489 words for executable code.
   Procedure ASF$BUILD_FORM requires 84 words of local(AUTO) storage.

PL6.E3A0      #003=ASF$BUILD_FORM File=ASB$BUILD_DEFAULT_FILES.:E05TSI           TUE 07/29/97 08:58 Page:197

 Object Unit name= ASF$BUILD_FORM                             File name= ASB$BUILD_DEFAULT_FILES.:E05TOU
 UTS= JUL 29 '97 08:58:38.04 TUE                              Compiler= PL-6/E31         Sev=      00
 SharedLib= :SHARED_SYSTEM                                    Alt SharedLib=


    ****  Control sections  ****

 Sect   Type Bound  Init  Size OctSiz  Section name(segment info)
    0   DCB   even  none     0      0  M$UC
    1   DCB   even  none     0      0  M$LO
    2   DCB   even  none     0      0  M$FORM
    3  RoData even  UTS    395    613  ASF$BUILD_FORM
    4   Data  even  none    14     16  ASF$BUILD_FORM
    5   Proc  even  none   489    751  ASF$BUILD_FORM
    6  RoData even  none    10     12  ASF$BUILD_FORM

    ****  Entry defs  ****

                              Check   Calling
                             calling  sequence
  Sect OctLoc Primary Altret sequence   type   Parms  Name
     5      0   yes            yes      Std        0  ASF$BUILD_FORM
PL6.E3A0      #003=ASF$BUILD_FORM File=ASB$BUILD_DEFAULT_FILES.:E05TSI           TUE 07/29/97 08:58 Page:198

  ****  Entry refs  ****

         Check        Calling
        calling       sequence
Altret sequence SRef   type   Args  Name
         yes          ~proc      0 XU_OUTPUT_OPTIONS
 yes     yes           Std       3 ASF$WRITE_FORM
 yes     yes           Std       3 ASF$READ_FORM
         yes           Std       2 ASH$ERROR
 yes     yes           Std       1 GET_CONFIGS_LP01_ATTRS
 yes     yes           Std       3 ASF$READ_FORM_SEQ
 yes     yes           Std       1 ASF$PREC_FORM
                       nStd      0 X66_AUTO_0
                       Std       0 B_CONSPOOL_D
                       nStd      0 X66_ARET

  ****  Data refs  ****

  Flags:  r = read only, s = secondary
Flgs Name                             Flgs Name                             Flgs Name
     M$UC                             r    AS_MODE                          r    AS_FE_MODE
     M$LO                                  USERS_KEY                             ERR_CODE
     AS_FIELD1                             REMEM_VAR                             REM_FCMD
     ASA_BRKS_LOC                          P_PCB                                 M$FORM
     B_VECTNIL

  ****  Segment refs  ****

  Flags:  r = read only, s = secondary
Flgs Name                             Flgs Name                             Flgs Name
     ISSID
PL6.E3A0      #003=ASF$BUILD_FORM File=ASB$BUILD_DEFAULT_FILES.:E05TSI           TUE 07/29/97 08:58 Page:199


      830        1        /*T***********************************************************/
      831        2        /*T*                                                         */
      832        3        /*T* Copyright (c) Bull HN Information Systems Inc., 1997    */
      833        4        /*T*                                                         */
      834        5        /*T***********************************************************/
      835        6        %EJECT;
PL6.E3A0      #003=ASF$BUILD_FORM File=ASB$BUILD_DEFAULT_FILES.:E05TSI           TUE 07/29/97 08:58 Page:200
      836        7        ASF$BUILD_FORM: PROC;

      7  5 000000   000000 700200 xent  ASF$BUILD_F* TSX0  ! X66_AUTO_0
         5 000001   000124 000000                    ZERO    84,0

      837        8        %INCLUDE AS_ENTRIES_M;
      838     1058        %INCLUDE CP_6;
      839     6617        %INCLUDE CP_6_SUBS;
      840     7157        %INCLUDE AS_SUPER_C;
      841     7592        %INCLUDE FS_SUPER_C;
      842     8355        %INCLUDE KL_SUPER_C;
      843    11257        %INCLUDE AS_SUBS_C;
      844    12671        %INCLUDE AS_MAC_C;
      845    12751        %INCLUDE AS_PERR_C;
      846    13353        %INCLUDE B_ERRORS_C;
      847    14480        %INCLUDE XU_MACRO_C;
      848    17586        %INCLUDE XU_FORMAT_C;
      849    17748        %INCLUDE AS_SUPER_R;
      850    20764        %INCLUDE XG_SUBS_C;
      851    21258        %LIST;
      852    21259        %SET LISTSUB='1'B;
      853    21260        %SET LISTEXP='1'B;
      854    21261    1   DCL M$FORM DCB;
      855    21262        %ASF$WRITE_FORM ;
             21263    1   DCL ASF$WRITE_FORM ENTRY(3) ALTRET;
      856    21265        %ASF$READ_FORM ;
             21266    1   DCL ASF$READ_FORM ENTRY(3) ALTRET;
      857    21268        %ASH$ERROR ;
             21269    1   DCL ASH$ERROR ENTRY(2) ;
      858    21271        %GET_CONFIGS_LP01_ATTRS ;
             21272    1   DCL GET_CONFIGS_LP01_ATTRS ENTRY(1) ALTRET;
      859    21274        %ASF$PREC_FORM ;
             21275    1   DCL ASF$PREC_FORM ENTRY(1) ALTRET;
      860    21277        %ASF$READ_FORM_SEQ ;
             21278    1   DCL  ASF$READ_FORM_SEQ                ENTRY ( 3 ) ALTRET;
      861    21280        %FS$GFORMREC (NAME = STDGR,
      862    21281                      FRMNAME = 'STDGR ',
PL6.E3A0      #003=ASF$BUILD_FORM File=ASB$BUILD_DEFAULT_FILES.:E05TSI           TUE 07/29/97 08:58 Page:201
      863    21282                      CHNAME='600',
      864    21283                      STCLASS = CONSTANT);
             21284        %LSET STR='CONSTANT        ';
             21285        %IF
             21287         '1'B;
             21288        %LSET INIT=INIT;
             21289        %ELSE;
             21291        %ENDIF;
             21292    1   DCL 1 STDGR CONSTANT ALIGNED,
             21293    1         2 FNAME CHAR(6) INIT('STDGR ')/**/, /* GRAPHIC FORM NAME   */
             21294    1         2 ACCTDISP UBIN HALF UNAL INIT(0)/**/,
             21295    1         2 SETUPDISP UBIN HALF UNAL INIT(0)/**/, /* WD DISP TO SETUP */
             21296    1         2 ACCSDISP UBIN HALF UNAL INIT(0)/**/, /* DISP TO ACCESS */
             21297    1         2 BANRDISP UBIN HALF UNAL INIT(0)/**/, /* DISP TO BANNER */
             21298    1         2 ALGNDISP UBIN HALF UNAL INIT(0)/**/, /* DISP TO ALGNMENT */
             21299    1         2 * BIT(7) INIT('0000000'B)/**/,
             21300    1         2 TRANSLGL BIT(1) INIT('0'B)/**/, /* TRANSPARENT LEGAL */
             21301    1         2 GRAPHIC BIT(1) INIT('1'B)/**/, /* GRAPHIC FORM   */
             21302        /*   The LGLTYPS field here is duplicated in the FS$CHARSET record
             21303             and when that structure is changed, this one should be checked!
             21304            CHAIN is specified in the form definition to bring in the
             21305           attributes and the legal devices list...
             21306        */
             21307        /*  LEGAL TYPE OF DEVICES FOR THIS GRAPHIC FORM */
             21308    1         2 LGLTYPS,
             21309    1           3 LPOK BIT(1) INIT('0'B)/**/, /* LEGAL ON LP           */
             21310    1           3 TSOK BIT(1) INIT('0'B)/**/, /* LEGAL ON TS           */
             21311    1           3 ELSOK BIT(1) INIT('0'B)/**/, /* LEGAL ON ALL BUT TS+LP */
             21312    1           3 ONEOK BIT(1) INIT('1'B)/**/, /* LEGAL ON TYP=LTYP   */
             21313    1           3 * BIT(5) INIT('00000'B)/**/,
             21314    1           3 LTYP CHAR(2) INIT('GR')/**/, /* LEGAL IF ONEOK=YES   */
             21315    1         2 ATTR BIT(18) UNAL INIT('000002'O) /**/,
             21316    1         2 CHAIN_NAME CHAR(8) INIT('600')/**/,
             21317    1         2 X_SIZE UBIN (18) UNAL INIT (0) /**/,
             21318    1         2 Y_SIZE UBIN (18) UNAL INIT (0) /**/,
             21319    1         2 Z_SIZE UBIN (18) UNAL INIT (0) /**/,
             21320    1         2 X_OFFSET UBIN (18) UNAL INIT(0) /**/,
PL6.E3A0      #003=ASF$BUILD_FORM File=ASB$BUILD_DEFAULT_FILES.:E05TSI           TUE 07/29/97 08:58 Page:202
             21321    1         2 Y_OFFSET UBIN (18) UNAL INIT(0) /**/,
             21322    1         2 Z_OFFSET UBIN (18) UNAL INIT(0) /**/,
             21323    1         2 SET_DEV_LIM,
             21324    1           3 DEV_LIM_OPCODE,
             21325    1             4 CLASS UBIN (9) UNAL INIT(148) /**/,
             21326    1             4 INDX UBIN (9) UNAL INIT(17) /**/,
             21327    1           3 X_SIZE BIT (18) UNAL INIT('000000'O) /**/,
             21328    1           3 Y_SIZE BIT (18) UNAL INIT('000000'O) /**/,
             21329    1           3 Z_SIZE BIT (18) UNAL INIT('000000'O) /**/,
             21330    1           3 X_OFFSET BIT (18) UNAL INIT('000000'O) /**/,
             21331    1           3 Y_OFFSET BIT (18) UNAL INIT('000000'O) /**/,
             21332    1           3 Z_OFFSET BIT (18) UNAL INIT('000000'O) /**/,
             21333    1           3 SPARAM6 BIT (18) UNAL INIT('000000'O) /**/,
             21334    1           3 SPARAM7 BIT (18) UNAL INIT('000000'O) /**/,
             21335    1           3 SPARAM8 BIT (18) UNAL INIT('000000'O) /**/,
             21336    1           3 SPARAM9 BIT (18) UNAL INIT('000000'O) /**/,
             21337    1           3 UPARAM (0:9) BIT (18) UNAL INIT('000000'O,'000000'O,
             21338    1                      '000000'O,'000000'O,'000000'O,'000000'O,'000000'O,
             21339    1                      '000000'O,'000000'O,'000000'O) /**/,
             21340    1         2 SET_DEV_LIM_CMD REDEF SET_DEV_LIM CHAR (42) UNAL;
      865    21342        %FS$GFORMREC (NAME = FS$GFORMREC,
      866    21343                      STCLASS = "BASED (PTR$)");
             21344        %LSET STR='BASED (PTR$)        ';
             21345        %IF
             21347         '0'B;
             21349        %ELSE;
             21350        %LSET INIT=/*;
             21351        %ENDIF;
             21352    1   DCL 1 FS$GFORMREC BASED (PTR$) ALIGNED,
             21353    1         2 FNAME CHAR(6) /*('  ')/**/, /* GRAPHIC FORM NAME   */
             21354    1         2 ACCTDISP UBIN HALF UNAL /*(0)/**/,
             21355    1         2 SETUPDISP UBIN HALF UNAL /*(0)/**/, /* WD DISP TO SETUP */
             21356    1         2 ACCSDISP UBIN HALF UNAL /*(0)/**/, /* DISP TO ACCESS */
             21357    1         2 BANRDISP UBIN HALF UNAL /*(0)/**/, /* DISP TO BANNER */
             21358    1         2 ALGNDISP UBIN HALF UNAL /*(0)/**/, /* DISP TO ALGNMENT */
             21359    1         2 * BIT(7) /*('0000000'B)/**/,
             21360    1         2 TRANSLGL BIT(1) /*('0'B)/**/, /* TRANSPARENT LEGAL */
PL6.E3A0      #003=ASF$BUILD_FORM File=ASB$BUILD_DEFAULT_FILES.:E05TSI           TUE 07/29/97 08:58 Page:203
             21361    1         2 GRAPHIC BIT(1) /*('1'B)/**/, /* GRAPHIC FORM   */
             21362        /*   The LGLTYPS field here is duplicated in the FS$CHARSET record
             21363             and when that structure is changed, this one should be checked!
             21364            CHAIN is specified in the form definition to bring in the
             21365           attributes and the legal devices list...
             21366        */
             21367        /*  LEGAL TYPE OF DEVICES FOR THIS GRAPHIC FORM */
             21368    1         2 LGLTYPS,
             21369    1           3 LPOK BIT(1) /*('0'B)/**/, /* LEGAL ON LP           */
             21370    1           3 TSOK BIT(1) /*('0'B)/**/, /* LEGAL ON TS           */
             21371    1           3 ELSOK BIT(1) /*('0'B)/**/, /* LEGAL ON ALL BUT TS+LP */
             21372    1           3 ONEOK BIT(1) /*('1'B)/**/, /* LEGAL ON TYP=LTYP   */
             21373    1           3 * BIT(5) /*('00000'B)/**/,
             21374    1           3 LTYP CHAR(2) /*('GR')/**/, /* LEGAL IF ONEOK=YES   */
             21375    1         2 ATTR BIT(18) UNAL /*('000002'O) /**/,
             21376    1         2 CHAIN_NAME CHAR(8) /*('NONE')/**/,
             21377    1         2 X_SIZE UBIN (18) UNAL /* (0) /**/,
             21378    1         2 Y_SIZE UBIN (18) UNAL /* (0) /**/,
             21379    1         2 Z_SIZE UBIN (18) UNAL /* (0) /**/,
             21380    1         2 X_OFFSET UBIN (18) UNAL /*(0) /**/,
             21381    1         2 Y_OFFSET UBIN (18) UNAL /*(0) /**/,
             21382    1         2 Z_OFFSET UBIN (18) UNAL /*(0) /**/,
             21383    1         2 SET_DEV_LIM,
             21384    1           3 DEV_LIM_OPCODE,
             21385    1             4 CLASS UBIN (9) UNAL /*(148) /**/,
             21386    1             4 INDX UBIN (9) UNAL /*(17) /**/,
             21387    1           3 X_SIZE BIT (18) UNAL /*('000000'O) /**/,
             21388    1           3 Y_SIZE BIT (18) UNAL /*('000000'O) /**/,
             21389    1           3 Z_SIZE BIT (18) UNAL /*('000000'O) /**/,
             21390    1           3 X_OFFSET BIT (18) UNAL /*('000000'O) /**/,
             21391    1           3 Y_OFFSET BIT (18) UNAL /*('000000'O) /**/,
             21392    1           3 Z_OFFSET BIT (18) UNAL /*('000000'O) /**/,
             21393    1           3 SPARAM6 BIT (18) UNAL /*('000000'O) /**/,
             21394    1           3 SPARAM7 BIT (18) UNAL /*('000000'O) /**/,
             21395    1           3 SPARAM8 BIT (18) UNAL /*('000000'O) /**/,
             21396    1           3 SPARAM9 BIT (18) UNAL /*('000000'O) /**/,
             21397    1           3 UPARAM (0:9) BIT (18) UNAL /*('000000'O,'000000'O,
PL6.E3A0      #003=ASF$BUILD_FORM File=ASB$BUILD_DEFAULT_FILES.:E05TSI           TUE 07/29/97 08:58 Page:204
             21398    1                      '000000'O,'000000'O,'000000'O,'000000'O,'000000'O,
             21399    1                      '000000'O,'000000'O,'000000'O) /**/,
             21400    1         2 SET_DEV_LIM_CMD REDEF SET_DEV_LIM CHAR (42) UNAL;
      867    21402        %FS$FORMREC(NAME=STDLP,
      868    21403                      FRMNAME='STDLP ',
      869    21404                      STCLASS=CONSTANT,
      870    21405                      WDTH=132,
      871    21406                      LNGTH=39,
      872    21407                      LMBO=6,
      873    21408                      FLINE=6,
      874    21409                      LP_OK=YES,
      875    21410                      TS_OK=YES
      876    21411                           );
             21412        %LSET STR='CONSTANT        ';
             21413        %IF
             21415         '1'B;
             21416        %LSET INIT=INIT;
             21417        %ELSE;
             21419        %ENDIF;
             21420        /*
             21421        */
             21422    1   DCL 1 STDLP CONSTANT ALIGNED,
             21423    1         2 FNAME CHAR(6) INIT('STDLP ')/**/, /* FORM NAME           */
             21424    1         2 ACCTDISP UBIN HALF UNAL INIT(0)/**/,
             21425    1         2 SETUPDISP UBIN HALF UNAL INIT(0)/**/, /* WD DISP TO SETUP */
             21426    1         2 ACCSDISP UBIN HALF UNAL INIT(0)/**/, /* DISP TO ACCESS */
             21427    1         2 BANRDISP UBIN HALF UNAL INIT(0)/**/, /* DISP TO BANNER */
             21428    1         2 ALGNDISP UBIN HALF UNAL INIT(0)/**/, /* DISP TO ALGNMENT */
             21429    1         2 FLAGS BIT(7) INIT('0000000'B) /**/, /* SETABLE BUT NOT USED */
             21430    1         2 * BIT(1) INIT('0'B)/**/, /* THIS BIT IS FREE            */
             21431    1         2 GRAPHIC BIT(1) INIT('0'B)/**/, /* GRAPHIC FORM   */
             21432        /**/
             21433        /*  LEGAL TYPE OF DEVICES FOR THIS FORM */
             21434        /*   The LGLTYPS field here is duplicated in the FS$CHARSET record
             21435             and when this macro is changed, this one should be checked!
             21436        */
             21437        /**/
PL6.E3A0      #003=ASF$BUILD_FORM File=ASB$BUILD_DEFAULT_FILES.:E05TSI           TUE 07/29/97 08:58 Page:205
             21438    1         2 LGLTYPS,
             21439    1           3 LPOK BIT(1) INIT('1'B)/**/, /* LEGAL ON LP           */
             21440    1           3 TSOK BIT(1) INIT('1'B)/**/, /* LEGAL ON TS           */
             21441    1           3 ELSOK BIT(1) INIT('0'B)/**/, /* LEGAL ON ALL BUT TS+LP */
             21442    1           3 ONEOK BIT(1) INIT('0'B)/**/, /* LEGAL ON TYP=LTYP   */
             21443    1           3 * BIT(5) INIT('00000'B)/**/,
             21444    1           3 LTYP CHAR(2) INIT(' ')/**/, /* LEGAL IF ONEOK=YES   */
             21445    1         2 ATTR BIT(18) UNAL INIT('000006'O) /**/,
             21446    1         2 SOFTFORM,                       /*SOFT VFU/PLATEN INFO                */
             21447        /**/
             21448        /*  WRITE SOFTFORM WITH VFC_VFU AND BP ON IN DVBYTE */
             21449        /**/
             21450    1           3 VLPPLATEN,                    /* SEE KI_CP6_C FOR DESC              */
             21451    1             4 TL,
             21452    1               5 T UBIN BYTE UNAL INIT(8)/**/,
             21453    1               5 L UBIN BYTE UNAL INIT(16)/**/,
             21454    1             4 WIDTH UBIN BYTE UNAL INIT(132)/**/,
             21455    1             4 LENGTH UBIN BYTE UNAL INIT(39)/**/,
             21456    1             4 LIMBO UBIN BYTE UNAL INIT(6)/**/,
             21457    1             4 FIRSTLINE UBIN BYTE UNAL INIT(6)/**/,
             21458    1             4 * BIT(8) INIT('00000000'B)/**/,
             21459    1             4 EXTWID BIT(1) INIT('0'B)/**/,
             21460    1             4 LPI UBIN BYTE UNAL INIT(6)/**/,
             21461    1             4 * (0:9) UBIN BYTE UNAL INIT(0*0)/**/,
             21462    1           3 VFUIM,                        /* TED AND PAULS SOFT VFU IMAGE       */
             21463    1             4 TL,
             21464    1               5 T UBIN BYTE UNAL INIT(18)/**/,
             21465    1               5 L UBIN BYTE UNAL INIT(64)/**/,
             21466    1             4 V,
             21467    1               5 LINE(0:31) UBIN BYTE UNAL INIT(0*0)/**/,
             21468    1               5 NEXT(0:31) UBIN BYTE UNAL INIT(0*0)/**/,
             21469    1         2 CHAIN_NAME CHAR(8) UNAL INIT('600')/**/,
             21470    1         2 CHAINS(0:5) CHAR(40) UNAL INIT(
             21471                %C600;
             21472    1             'BDFGHJgS0ACEINORLTabcdefKhijklmM0PQUVWXY',
             21473    1             'Z:;?!%7xynoprstw0z123456#89.,()@$=&/''\^_',
             21474    1             '0"<>[]gS~ACEINOR{Tabcdef0hijklm}|`-*+quv',
PL6.E3A0      #003=ASF$BUILD_FORM File=ASB$BUILD_DEFAULT_FILES.:E05TSI           TUE 07/29/97 08:58 Page:206
             21475    1             'BDFGHJ7x0noprstwLz123456K89.,()M0PQUVWXY',
             21476    1             'Z:;?!%gSyACEINOR0Tabcdef#hijklm@$=&/''\^_',
             21477    1             '0"<>[]7x~noprstw{z123456089.,()}|`-*+quv')
             21479    1           /**/,
             21480    1         2 CHAINIMAGE REDEF CHAINS CHAR(240) UNAL;
      877    21482        %FS$BAN_INIT (NAME = FS$BANNER,
      878    21483                      STCLASS = "BASED");
             21484        %LSET STR='BASED        ';
             21485        %IF
             21486         '1'B;
             21487    1   DCL 1 FS$BANNER BASED,
             21488    1         2 CHARGE UBIN BYTE UNAL,          /* DO WE CHARGE FOR BANNER            */
             21489    1         2 ALIGNCTL REDEF CHARGE UNAL,
             21490    1           3 EVERY BIT(1) UNAL,
             21491    1           3 * BIT(8) UNAL,
             21492    1         2 REPEATS UBIN BYTE UNAL,         /* NUM OF TIMES TO PRINT THIS BANNER  */
             21493    1         2 INTR UBIN BYTE UNAL,            /* ARE INTRINSICS  ALLOWED            */
             21494    1         2 NUM_ENTRIES UBIN BYTE UNAL,     /* NUM OF ENTRIES IN THE TABLE        */
             21495    1         2 ENTRIES(0:0),
             21496    1           3 ROW UBIN BYTE UNAL,           /* START ROW                          */
             21497    1           3 COL UBIN BYTE UNAL,           /* START COL                          */
             21498    1           3 FONT UBIN BYTE UNAL,          /* FONT TO BE USED                    */
             21499    1           3 STRIKES UBIN BYTE UNAL,       /* NUMBER OF PRINT STRIKES            */
             21500    1           3 ICSH UBIN BYTE UNAL,          /* INTER CHAR SPACING HORZ.           */
             21501    1           3 REPS UBIN BYTE UNAL,          /* NUM OF TIME TO PRINT THIS ENTRY    */
             21502    1           3 RINC UBIN BYTE UNAL,          /* ROW INCERMENT PER REPEAT           */
             21503    1           3 CINC UBIN BYTE UNAL,          /* COL INCERMENT PER REPEAT           */
             21504    1           3 TYPE UBIN BYTE UNAL,     /* TYPE OF ENTRY(PLAIN TEXT, INTRINIC)     */
             21505    1           3 DISP UBIN HALF UNAL,          /* DISP(IN WORDS) TO TEXT(IF ANY)     */
             21506    1           3 B REDEF DISP,
             21507    1             4 START UBIN BYTE UNAL,
             21508    1             4 LEN UBIN BYTE UNAL,
             21509    1           3 COUNT UBIN BYTE UNAL,         /* COUNT OF TEXT(IF ANY)              */
             21510    1           3 CHR REDEF COUNT CHAR(1),      /* OR CHAR TO BE REPEATED ACROSS PAGE */
             21511    1           3 TOTLEN UBIN(27) UNAL,         /* TOTLEN OF ENTRY(INTERNAL)          */
             21512    1           3 MARK UBIN BYTE UNAL;          /* MARK(INTERNAL)                     */
             21513        %ELSE;
PL6.E3A0      #003=ASF$BUILD_FORM File=ASB$BUILD_DEFAULT_FILES.:E05TSI           TUE 07/29/97 08:58 Page:207
             21538        %ENDIF;
      879    21540        %FS$FORMREC (NAME = FS$FORM,
      880    21541                     STCLASS = "BASED");
             21542        %LSET STR='BASED        ';
             21543        %IF
             21545         '0'B;
             21547        %ELSE;
             21548        %LSET INIT=/*;
             21549        %ENDIF;
             21550        /*
             21551        */
             21552    1   DCL 1 FS$FORM BASED ALIGNED,
             21553    1         2 FNAME CHAR(6) /*('  ')/**/, /* FORM NAME           */
             21554    1         2 ACCTDISP UBIN HALF UNAL /*(0)/**/,
             21555    1         2 SETUPDISP UBIN HALF UNAL /*(0)/**/, /* WD DISP TO SETUP */
             21556    1         2 ACCSDISP UBIN HALF UNAL /*(0)/**/, /* DISP TO ACCESS */
             21557    1         2 BANRDISP UBIN HALF UNAL /*(0)/**/, /* DISP TO BANNER */
             21558    1         2 ALGNDISP UBIN HALF UNAL /*(0)/**/, /* DISP TO ALGNMENT */
             21559    1         2 FLAGS BIT(7) /*('0000000'B) /**/, /* SETABLE BUT NOT USED */
             21560    1         2 * BIT(1) /*('0'B)/**/, /* THIS BIT IS FREE            */
             21561    1         2 GRAPHIC BIT(1) /*('0'B)/**/, /* GRAPHIC FORM   */
             21562        /**/
             21563        /*  LEGAL TYPE OF DEVICES FOR THIS FORM */
             21564        /*   The LGLTYPS field here is duplicated in the FS$CHARSET record
             21565             and when this macro is changed, this one should be checked!
             21566        */
             21567        /**/
             21568    1         2 LGLTYPS,
             21569    1           3 LPOK BIT(1) /*('0'B)/**/, /* LEGAL ON LP           */
             21570    1           3 TSOK BIT(1) /*('0'B)/**/, /* LEGAL ON TS           */
             21571    1           3 ELSOK BIT(1) /*('0'B)/**/, /* LEGAL ON ALL BUT TS+LP */
             21572    1           3 ONEOK BIT(1) /*('0'B)/**/, /* LEGAL ON TYP=LTYP   */
             21573    1           3 * BIT(5) /*('00000'B)/**/,
             21574    1           3 LTYP CHAR(2) /*(' ')/**/, /* LEGAL IF ONEOK=YES   */
             21575    1         2 ATTR BIT(18) UNAL /*('000006'O) /**/,
             21576    1         2 SOFTFORM,                       /*SOFT VFU/PLATEN INFO                */
             21577        /**/
PL6.E3A0      #003=ASF$BUILD_FORM File=ASB$BUILD_DEFAULT_FILES.:E05TSI           TUE 07/29/97 08:58 Page:208
             21578        /*  WRITE SOFTFORM WITH VFC_VFU AND BP ON IN DVBYTE */
             21579        /**/
             21580    1           3 VLPPLATEN,                    /* SEE KI_CP6_C FOR DESC              */
             21581    1             4 TL,
             21582    1               5 T UBIN BYTE UNAL /*(8)/**/,
             21583    1               5 L UBIN BYTE UNAL /*(16)/**/,
             21584    1             4 WIDTH UBIN BYTE UNAL /*(0)/**/,
             21585    1             4 LENGTH UBIN BYTE UNAL /*(0)/**/,
             21586    1             4 LIMBO UBIN BYTE UNAL /*(0)/**/,
             21587    1             4 FIRSTLINE UBIN BYTE UNAL /*(0)/**/,
             21588    1             4 * BIT(8) /*('00000000'B)/**/,
             21589    1             4 EXTWID BIT(1) /*('0'B)/**/,
             21590    1             4 LPI UBIN BYTE UNAL /*(6)/**/,
             21591    1             4 * (0:9) UBIN BYTE UNAL /*(0*0)/**/,
             21592    1           3 VFUIM,                        /* TED AND PAULS SOFT VFU IMAGE       */
             21593    1             4 TL,
             21594    1               5 T UBIN BYTE UNAL /*(18)/**/,
             21595    1               5 L UBIN BYTE UNAL /*(64)/**/,
             21596    1             4 V,
             21597    1               5 LINE(0:31) UBIN BYTE UNAL /*(0*0)/**/,
             21598    1               5 NEXT(0:31) UBIN BYTE UNAL /*(0*0)/**/,
             21599    1         2 CHAIN_NAME CHAR(8) UNAL /*('600')/**/,
             21600    1         2 CHAINS(0:5) CHAR(40) UNAL /*(
             21601                %C600;
             21602    1             'BDFGHJgS0ACEINORLTabcdefKhijklmM0PQUVWXY',
             21603    1             'Z:;?!%7xynoprstw0z123456#89.,()@$=&/''\^_',
             21604    1             '0"<>[]gS~ACEINOR{Tabcdef0hijklm}|`-*+quv',
             21605    1             'BDFGHJ7x0noprstwLz123456K89.,()M0PQUVWXY',
             21606    1             'Z:;?!%gSyACEINOR0Tabcdef#hijklm@$=&/''\^_',
             21607    1             '0"<>[]7x~noprstw{z123456089.,()}|`-*+quv')
             21609    1           /**/,
             21610    1         2 CHAINIMAGE REDEF CHAINS CHAR(240) UNAL;
      881    21612        %FS$BAN_INIT(NAME=STDLP_BAN,
      882    21613                      STCLASS=CONSTANT,
      883    21614                      CNT=13,
      884    21615                      REPTS=2,
      885    21616                      INR=1
PL6.E3A0      #003=ASF$BUILD_FORM File=ASB$BUILD_DEFAULT_FILES.:E05TSI           TUE 07/29/97 08:58 Page:209
      886    21617                           );
             21618        %LSET STR='CONSTANT        ';
             21619        %IF
             21620         '0'B;
             21647        %ELSE;
             21648    1   DCL 1 STDLP_BAN CONSTANT,
             21649    1         2 CHARGE UBIN BYTE INIT (0) UNAL,
             21650    1         2 ALIGNCTL REDEF CHARGE UNAL,
             21651    1           3 EVERY BIT(1) UNAL,
             21652    1           3 * BIT(8) UNAL,
             21653    1         2 REPEATS UBIN BYTE INIT (2) UNAL,
             21654    1         2 INTR UBIN BYTE INIT (1) UNAL,
             21655    1         2 NUM_ENTRIES UBIN BYTE INIT (13) UNAL,
             21656        %SET BCNT=12;
             21657    1         2 ENTRIES(0:12),
             21658        %SET BROW='';
             21659        %SET BCOL='';
             21660        %SET BFONT='';
             21661        %SET BSTRIKES='';
             21662        %SET BICSH='';
             21663        %SET BREPS='';
             21664        %SET BRINC='';
             21665        %SET BCINC='';
             21666        %SET BTYPE='';
             21667        %SET BDISP='';
             21668        %SET BCOUNT='';
             21669        %SET BTEXT='';
             21670        %SET DISP#=53;
             21671        %SET TEXT_LEN#=0;
             21672        %ENDIF;
      887    21674        %FS$BAN_ENT(ROW=1,COL=1,TYPE=FS_DATE_INT);
             21675        %SET BROW='1,';
             21676        %SET BCOL='1,';
             21677        %SET BFONT='0,';
             21678        %SET BSTRIKES='1,';
             21679        %SET BICSH='0,';
             21680        %SET BREPS='1,';
PL6.E3A0      #003=ASF$BUILD_FORM File=ASB$BUILD_DEFAULT_FILES.:E05TSI           TUE 07/29/97 08:58 Page:210
             21681        %SET BRINC='0,';
             21682        %SET BCINC='0,';
             21683        %SET BTYPE='7,';
             21684        %IF '0'B;
             21688        %ELSEIF '1'B;
             21689        %SET BCOUNT='0,';
             21690        %SET BDISP='0,';
             21691        %ELSE;
             21709        %ENDIF;
      888    21711        %FS$BAN_ENT(ROW=1,COL=10,TYPE=FS_TIME_INT);
             21712        %SET BROW='1,1,';
             21713        %SET BCOL='1,10,';
             21714        %SET BFONT='0,0,';
             21715        %SET BSTRIKES='1,1,';
             21716        %SET BICSH='0,0,';
             21717        %SET BREPS='1,1,';
             21718        %SET BRINC='0,0,';
             21719        %SET BCINC='0,0,';
             21720        %SET BTYPE='7,6,';
             21721        %IF '0'B;
             21725        %ELSEIF '1'B;
             21726        %SET BCOUNT='0,0,';
             21727        %SET BDISP='0,0,';
             21728        %ELSE;
             21746        %ENDIF;
      889    21748        %FS$BAN_ENT(ROW=1,COL=18,TYPE=FS_ACCN_INT);
             21749        %SET BROW='1,1,1,';
             21750        %SET BCOL='1,10,18,';
             21751        %SET BFONT='0,0,0,';
             21752        %SET BSTRIKES='1,1,1,';
             21753        %SET BICSH='0,0,0,';
             21754        %SET BREPS='1,1,1,';
             21755        %SET BRINC='0,0,0,';
             21756        %SET BCINC='0,0,0,';
             21757        %SET BTYPE='7,6,2,';
             21758        %IF '0'B;
             21762        %ELSEIF '1'B;
PL6.E3A0      #003=ASF$BUILD_FORM File=ASB$BUILD_DEFAULT_FILES.:E05TSI           TUE 07/29/97 08:58 Page:211
             21763        %SET BCOUNT='0,0,0,';
             21764        %SET BDISP='0,0,0,';
             21765        %ELSE;
             21783        %ENDIF;
      890    21785        %FS$BAN_ENT(ROW=1,COL=27,TYPE=FS_UNAME_INT);
             21786        %SET BROW='1,1,1,1,';
             21787        %SET BCOL='1,10,18,27,';
             21788        %SET BFONT='0,0,0,0,';
             21789        %SET BSTRIKES='1,1,1,1,';
             21790        %SET BICSH='0,0,0,0,';
             21791        %SET BREPS='1,1,1,1,';
             21792        %SET BRINC='0,0,0,0,';
             21793        %SET BCINC='0,0,0,0,';
             21794        %SET BTYPE='7,6,2,3,';
             21795        %IF '0'B;
             21799        %ELSEIF '1'B;
             21800        %SET BCOUNT='0,0,0,0,';
             21801        %SET BDISP='0,0,0,0,';
             21802        %ELSE;
             21820        %ENDIF;
      891    21822        %FS$BAN_ENT(ROW=1,COL=40,TYPE=FS_WOO_INT);
             21823        %SET BROW='1,1,1,1,1,';
             21824        %SET BCOL='1,10,18,27,40,';
             21825        %SET BFONT='0,0,0,0,0,';
             21826        %SET BSTRIKES='1,1,1,1,1,';
             21827        %SET BICSH='0,0,0,0,0,';
             21828        %SET BREPS='1,1,1,1,1,';
             21829        %SET BRINC='0,0,0,0,0,';
             21830        %SET BCINC='0,0,0,0,0,';
             21831        %SET BTYPE='7,6,2,3,4,';
             21832        %IF '0'B;
             21836        %ELSEIF '1'B;
             21837        %SET BCOUNT='0,0,0,0,0,';
             21838        %SET BDISP='0,0,0,0,0,';
             21839        %ELSE;
             21857        %ENDIF;
      892    21859        %FS$BAN_ENT(ROW=1,COL=50,TYPE=FS_SYSID_INT);
PL6.E3A0      #003=ASF$BUILD_FORM File=ASB$BUILD_DEFAULT_FILES.:E05TSI           TUE 07/29/97 08:58 Page:212
             21860        %SET BROW='1,1,1,1,1,1,';
             21861        %SET BCOL='1,10,18,27,40,50,';
             21862        %SET BFONT='0,0,0,0,0,0,';
             21863        %SET BSTRIKES='1,1,1,1,1,1,';
             21864        %SET BICSH='0,0,0,0,0,0,';
             21865        %SET BREPS='1,1,1,1,1,1,';
             21866        %SET BRINC='0,0,0,0,0,0,';
             21867        %SET BCINC='0,0,0,0,0,0,';
             21868        %SET BTYPE='7,6,2,3,4,1,';
             21869        %IF '0'B;
             21873        %ELSEIF '1'B;
             21874        %SET BCOUNT='0,0,0,0,0,0,';
             21875        %SET BDISP='0,0,0,0,0,0,';
             21876        %ELSE;
             21894        %ENDIF;
      893    21896        %FS$BAN_ENT(ROW=3,COL=1,FONT=1,STRIKES=2,ICSH=1,TYPE=FS_PLAIN_TEXT,TEXT=
             21896            'Honeywell Bull');
             21897        %SET BROW='1,1,1,1,1,1,3,';
             21898        %SET BCOL='1,10,18,27,40,50,1,';
             21899        %SET BFONT='0,0,0,0,0,0,1,';
             21900        %SET BSTRIKES='1,1,1,1,1,1,2,';
             21901        %SET BICSH='0,0,0,0,0,0,1,';
             21902        %SET BREPS='1,1,1,1,1,1,1,';
             21903        %SET BRINC='0,0,0,0,0,0,0,';
             21904        %SET BCINC='0,0,0,0,0,0,0,';
             21905        %SET BTYPE='7,6,2,3,4,1,0,';
             21906        %IF '0'B;
             21910        %ELSEIF '0'B;
             21913        %ELSE;
             21914        %SET TEXT_LEN=14;
             21915        %SET TOT_LEN=4;
             21916        %SET BCOUNT='0,0,0,0,0,0,014,';
             21917        %SET BDISP='0,0,0,0,0,0,0053,';
             21918        %SET DISP#=57;
             21919        %SET TEXT_LEN#=16;
             21920        %SET DIFF=2;
             21921        %IF '0'B;
PL6.E3A0      #003=ASF$BUILD_FORM File=ASB$BUILD_DEFAULT_FILES.:E05TSI           TUE 07/29/97 08:58 Page:213
             21923        %ENDIF;
             21924        %IF'1'B;
             21925        %SET TEXT_VAL='Honeywell Bull  ';
             21926        %ENDIF;
             21927        %IF'0'B;
             21929        %ENDIF;
             21930        %SET BTEXT='Honeywell Bull  ';
             21931        %ENDIF;
      894    21933        %FS$BAN_ENT(ROW=3,COL=80,STRIKES=2,TYPE=FS_LOGO_INT);
             21934        %SET BROW='1,1,1,1,1,1,3,3,';
             21935        %SET BCOL='1,10,18,27,40,50,1,80,';
             21936        %SET BFONT='0,0,0,0,0,0,1,0,';
             21937        %SET BSTRIKES='1,1,1,1,1,1,2,2,';
             21938        %SET BICSH='0,0,0,0,0,0,1,0,';
             21939        %SET BREPS='1,1,1,1,1,1,1,1,';
             21940        %SET BRINC='0,0,0,0,0,0,0,0,';
             21941        %SET BCINC='0,0,0,0,0,0,0,0,';
             21942        %SET BTYPE='7,6,2,3,4,1,0,10,';
             21943        %IF '0'B;
             21947        %ELSEIF '1'B;
             21948        %SET BCOUNT='0,0,0,0,0,0,014,0,';
             21949        %SET BDISP='0,0,0,0,0,0,0053,0,';
             21950        %ELSE;
             21968        %ENDIF;
      895    21970        %FS$BAN_ENT(ROW=15,COL=1,TYPE=FS_PLAIN_TEXT,TEXT='VERSION',REPS=3,RINC=2);
             21971        %SET BROW='1,1,1,1,1,1,3,3,15,';
             21972        %SET BCOL='1,10,18,27,40,50,1,80,1,';
             21973        %SET BFONT='0,0,0,0,0,0,1,0,0,';
             21974        %SET BSTRIKES='1,1,1,1,1,1,2,2,1,';
             21975        %SET BICSH='0,0,0,0,0,0,1,0,0,';
             21976        %SET BREPS='1,1,1,1,1,1,1,1,3,';
             21977        %SET BRINC='0,0,0,0,0,0,0,0,2,';
             21978        %SET BCINC='0,0,0,0,0,0,0,0,0,';
             21979        %SET BTYPE='7,6,2,3,4,1,0,10,0,';
             21980        %IF '0'B;
             21984        %ELSEIF '0'B;
             21987        %ELSE;
PL6.E3A0      #003=ASF$BUILD_FORM File=ASB$BUILD_DEFAULT_FILES.:E05TSI           TUE 07/29/97 08:58 Page:214
             21988        %SET TEXT_LEN=7;
             21989        %SET TOT_LEN=2;
             21990        %SET BCOUNT='0,0,0,0,0,0,014,0,007,';
             21991        %SET BDISP='0,0,0,0,0,0,0053,0,0057,';
             21992        %SET DISP#=59;
             21993        %SET TEXT_LEN#=24;
             21994        %SET DIFF=1;
             21995        %IF '1'B;
             21996        %SET TEXT_VAL='VERSION ';
             21997        %ENDIF;
             21998        %IF'0'B;
             22000        %ENDIF;
             22001        %IF'0'B;
             22003        %ENDIF;
             22004        %SET BTEXT='Honeywell Bull  VERSION ';
             22005        %ENDIF;
      896    22007        %FS$BAN_ENT(ROW=15,COL=9,TYPE=FS_VERSION_INT,REPS=3,RINC=2);
             22008        %SET BROW='1,1,1,1,1,1,3,3,15,15,';
             22009        %SET BCOL='1,10,18,27,40,50,1,80,1,9,';
             22010        %SET BFONT='0,0,0,0,0,0,1,0,0,0,';
             22011        %SET BSTRIKES='1,1,1,1,1,1,2,2,1,1,';
             22012        %SET BICSH='0,0,0,0,0,0,1,0,0,0,';
             22013        %SET BREPS='1,1,1,1,1,1,1,1,3,3,';
             22014        %SET BRINC='0,0,0,0,0,0,0,0,2,2,';
             22015        %SET BCINC='0,0,0,0,0,0,0,0,0,0,';
             22016        %SET BTYPE='7,6,2,3,4,1,0,10,0,8,';
             22017        %IF '0'B;
             22021        %ELSEIF '1'B;
             22022        %SET BCOUNT='0,0,0,0,0,0,014,0,007,0,';
             22023        %SET BDISP='0,0,0,0,0,0,0053,0,0057,0,';
             22024        %ELSE;
             22042        %ENDIF;
      897    22044        %FS$BAN_ENT(ROW=15,COL=20,TYPE=FS_SYSID_INT,FONT=1,STRIKES=2,ICSH=1);
             22045        %SET BROW='1,1,1,1,1,1,3,3,15,15,15,';
             22046        %SET BCOL='1,10,18,27,40,50,1,80,1,9,20,';
             22047        %SET BFONT='0,0,0,0,0,0,1,0,0,0,1,';
             22048        %SET BSTRIKES='1,1,1,1,1,1,2,2,1,1,2,';
PL6.E3A0      #003=ASF$BUILD_FORM File=ASB$BUILD_DEFAULT_FILES.:E05TSI           TUE 07/29/97 08:58 Page:215
             22049        %SET BICSH='0,0,0,0,0,0,1,0,0,0,1,';
             22050        %SET BREPS='1,1,1,1,1,1,1,1,3,3,1,';
             22051        %SET BRINC='0,0,0,0,0,0,0,0,2,2,0,';
             22052        %SET BCINC='0,0,0,0,0,0,0,0,0,0,0,';
             22053        %SET BTYPE='7,6,2,3,4,1,0,10,0,8,1,';
             22054        %IF '0'B;
             22058        %ELSEIF '1'B;
             22059        %SET BCOUNT='0,0,0,0,0,0,014,0,007,0,0,';
             22060        %SET BDISP='0,0,0,0,0,0,0053,0,0057,0,0,';
             22061        %ELSE;
             22079        %ENDIF;
      898    22081        %FS$BAN_ENT(ROW=26,COL=10,FONT=1,STRIKES=3,ICSH=1,TYPE=FS_UNAME_INT);
             22082        %SET BROW='1,1,1,1,1,1,3,3,15,15,15,26,';
             22083        %SET BCOL='1,10,18,27,40,50,1,80,1,9,20,10,';
             22084        %SET BFONT='0,0,0,0,0,0,1,0,0,0,1,1,';
             22085        %SET BSTRIKES='1,1,1,1,1,1,2,2,1,1,2,3,';
             22086        %SET BICSH='0,0,0,0,0,0,1,0,0,0,1,1,';
             22087        %SET BREPS='1,1,1,1,1,1,1,1,3,3,1,1,';
             22088        %SET BRINC='0,0,0,0,0,0,0,0,2,2,0,0,';
             22089        %SET BCINC='0,0,0,0,0,0,0,0,0,0,0,0,';
             22090        %SET BTYPE='7,6,2,3,4,1,0,10,0,8,1,3,';
             22091        %IF '0'B;
             22095        %ELSEIF '1'B;
             22096        %SET BCOUNT='0,0,0,0,0,0,014,0,007,0,0,0,';
             22097        %SET BDISP='0,0,0,0,0,0,0053,0,0057,0,0,0,';
             22098        %ELSE;
             22116        %ENDIF;
      899    22118        %FS$BAN_ENT(ROW=45,COL=1,REPS=2,TYPE=FS_X_INT,TEXT='*');
             22119        %SET BROW='1,1,1,1,1,1,3,3,15,15,15,26,45,';
             22120        %SET BCOL='1,10,18,27,40,50,1,80,1,9,20,10,1,';
             22121        %SET BFONT='0,0,0,0,0,0,1,0,0,0,1,1,0,';
             22122        %SET BSTRIKES='1,1,1,1,1,1,2,2,1,1,2,3,1,';
             22123        %SET BICSH='0,0,0,0,0,0,1,0,0,0,1,1,0,';
             22124        %SET BREPS='1,1,1,1,1,1,1,1,3,3,1,1,2,';
             22125        %SET BRINC='0,0,0,0,0,0,0,0,2,2,0,0,0,';
             22126        %SET BCINC='0,0,0,0,0,0,0,0,0,0,0,0,0,';
             22127        %SET BTYPE='7,6,2,3,4,1,0,10,0,8,1,3,11,';
PL6.E3A0      #003=ASF$BUILD_FORM File=ASB$BUILD_DEFAULT_FILES.:E05TSI           TUE 07/29/97 08:58 Page:216
             22128        %IF '1'B;
             22129        %SET QUOTE='''';
             22130        %SET BCOUNT='0,0,0,0,0,0,014,0,007,0,0,0,ASCBIN(''*''),';
             22131        %SET BDISP='0,0,0,0,0,0,0053,0,0057,0,0,0,0,';
             22132        %ELSEIF (TYPE~=FS_PLAIN_TEXT);
             22153        %ENDIF;
      900    22155        %FS$BAN_GEN;
             22156    1           3 ROW UBIN BYTE UNAL INIT(1,1,1,1,1,1,3,3,15,15,15,26,45),
             22157    1             3 COL UBIN BYTE UNAL INIT(1,10,18,27,40,50,1,80,1,9,20,10,1),
             22158    1             3 FONT UBIN BYTE UNAL INIT(0,0,0,0,0,0,1,0,0,0,1,1,0),
             22159    1             3 STRIKES UBIN BYTE UNAL INIT(1,1,1,1,1,1,2,2,1,1,2,3,1),
             22160    1             3 ICSH UBIN BYTE UNAL INIT(0,0,0,0,0,0,1,0,0,0,1,1,0),
             22161    1             3 REPS UBIN BYTE UNAL INIT(1,1,1,1,1,1,1,1,3,3,1,1,2),
             22162    1             3 RINC UBIN BYTE UNAL INIT(0,0,0,0,0,0,0,0,2,2,0,0,0),
             22163    1             3 CINC UBIN BYTE UNAL INIT(0,0,0,0,0,0,0,0,0,0,0,0,0),
             22164    1             3 TYPE UBIN BYTE UNAL INIT(7,6,2,3,4,1,0,10,0,8,1,3,11),
             22165    1             3 DISP UBIN HALF UNAL INIT(0,0,0,0,0,0,0053,0,0057,0,0,0,0),
             22166    1             3 B REDEF DISP,
             22167    1             4 START UBIN BYTE UNAL,
             22168    1             4 LEN UBIN BYTE UNAL,
             22169    1             3 COUNT UBIN BYTE UNAL INIT(0,0,0,0,0,0,014,0,007,0,0,0,ASCBIN('*')),
             22170    1             3 TOTLEN UBIN(27) UNAL INIT(0*0),
             22171    1             3 MARK UBIN BYTE UNAL INIT(0*0),
             22172    1             2 TEXT CHAR(24) INIT ('Honeywell Bull  VERSION ');
      901    22174        %FS$FORMREC(NAME=STDXX,
      902    22175                      STCLASS=CONSTANT,
      903    22176                      FRMNAME='STD** ',
      904    22177                      WDTH=80,
      905    22178                      ELS_OK=YES
      906    22179                           );
             22180        %LSET STR='CONSTANT        ';
             22181        %IF
             22183         '1'B;
             22184        %LSET INIT=INIT;
             22185        %ELSE;
             22187        %ENDIF;
             22188        /*
PL6.E3A0      #003=ASF$BUILD_FORM File=ASB$BUILD_DEFAULT_FILES.:E05TSI           TUE 07/29/97 08:58 Page:217
             22189        */
             22190    1   DCL 1 STDXX CONSTANT ALIGNED,
             22191    1         2 FNAME CHAR(6) INIT('STD** ')/**/, /* FORM NAME           */
             22192    1         2 ACCTDISP UBIN HALF UNAL INIT(0)/**/,
             22193    1         2 SETUPDISP UBIN HALF UNAL INIT(0)/**/, /* WD DISP TO SETUP */
             22194    1         2 ACCSDISP UBIN HALF UNAL INIT(0)/**/, /* DISP TO ACCESS */
             22195    1         2 BANRDISP UBIN HALF UNAL INIT(0)/**/, /* DISP TO BANNER */
             22196    1         2 ALGNDISP UBIN HALF UNAL INIT(0)/**/, /* DISP TO ALGNMENT */
             22197    1         2 FLAGS BIT(7) INIT('0000000'B) /**/, /* SETABLE BUT NOT USED */
             22198    1         2 * BIT(1) INIT('0'B)/**/, /* THIS BIT IS FREE            */
             22199    1         2 GRAPHIC BIT(1) INIT('0'B)/**/, /* GRAPHIC FORM   */
             22200        /**/
             22201        /*  LEGAL TYPE OF DEVICES FOR THIS FORM */
             22202        /*   The LGLTYPS field here is duplicated in the FS$CHARSET record
             22203             and when this macro is changed, this one should be checked!
             22204        */
             22205        /**/
             22206    1         2 LGLTYPS,
             22207    1           3 LPOK BIT(1) INIT('0'B)/**/, /* LEGAL ON LP           */
             22208    1           3 TSOK BIT(1) INIT('0'B)/**/, /* LEGAL ON TS           */
             22209    1           3 ELSOK BIT(1) INIT('1'B)/**/, /* LEGAL ON ALL BUT TS+LP */
             22210    1           3 ONEOK BIT(1) INIT('0'B)/**/, /* LEGAL ON TYP=LTYP   */
             22211    1           3 * BIT(5) INIT('00000'B)/**/,
             22212    1           3 LTYP CHAR(2) INIT(' ')/**/, /* LEGAL IF ONEOK=YES   */
             22213    1         2 ATTR BIT(18) UNAL INIT('000006'O) /**/,
             22214    1         2 SOFTFORM,                       /*SOFT VFU/PLATEN INFO                */
             22215        /**/
             22216        /*  WRITE SOFTFORM WITH VFC_VFU AND BP ON IN DVBYTE */
             22217        /**/
             22218    1           3 VLPPLATEN,                    /* SEE KI_CP6_C FOR DESC              */
             22219    1             4 TL,
             22220    1               5 T UBIN BYTE UNAL INIT(8)/**/,
             22221    1               5 L UBIN BYTE UNAL INIT(16)/**/,
             22222    1             4 WIDTH UBIN BYTE UNAL INIT(80)/**/,
             22223    1             4 LENGTH UBIN BYTE UNAL INIT(0)/**/,
             22224    1             4 LIMBO UBIN BYTE UNAL INIT(0)/**/,
             22225    1             4 FIRSTLINE UBIN BYTE UNAL INIT(0)/**/,
PL6.E3A0      #003=ASF$BUILD_FORM File=ASB$BUILD_DEFAULT_FILES.:E05TSI           TUE 07/29/97 08:58 Page:218
             22226    1             4 * BIT(8) INIT('00000000'B)/**/,
             22227    1             4 EXTWID BIT(1) INIT('0'B)/**/,
             22228    1             4 LPI UBIN BYTE UNAL INIT(6)/**/,
             22229    1             4 * (0:9) UBIN BYTE UNAL INIT(0*0)/**/,
             22230    1           3 VFUIM,                        /* TED AND PAULS SOFT VFU IMAGE       */
             22231    1             4 TL,
             22232    1               5 T UBIN BYTE UNAL INIT(18)/**/,
             22233    1               5 L UBIN BYTE UNAL INIT(64)/**/,
             22234    1             4 V,
             22235    1               5 LINE(0:31) UBIN BYTE UNAL INIT(0*0)/**/,
             22236    1               5 NEXT(0:31) UBIN BYTE UNAL INIT(0*0)/**/,
             22237    1         2 CHAIN_NAME CHAR(8) UNAL INIT('600')/**/,
             22238    1         2 CHAINS(0:5) CHAR(40) UNAL INIT(
             22239                %C600;
             22240    1             'BDFGHJgS0ACEINORLTabcdefKhijklmM0PQUVWXY',
             22241    1             'Z:;?!%7xynoprstw0z123456#89.,()@$=&/''\^_',
             22242    1             '0"<>[]gS~ACEINOR{Tabcdef0hijklm}|`-*+quv',
             22243    1             'BDFGHJ7x0noprstwLz123456K89.,()M0PQUVWXY',
             22244    1             'Z:;?!%gSyACEINOR0Tabcdef#hijklm@$=&/''\^_',
             22245    1             '0"<>[]7x~noprstw{z123456089.,()}|`-*+quv')
             22247    1           /**/,
             22248    1         2 CHAINIMAGE REDEF CHAINS CHAR(240) UNAL;
      907    22250        %FS$BAN_INIT(NAME=STDXX_BAN,
      908    22251                      STCLASS=CONSTANT,
      909    22252                      CNT=8,
      910    22253                      REPTS=1,
      911    22254                      INR=1
      912    22255                           );
             22256        %LSET STR='CONSTANT        ';
             22257        %IF
             22258         '0'B;
             22285        %ELSE;
             22286    1   DCL 1 STDXX_BAN CONSTANT,
             22287    1         2 CHARGE UBIN BYTE INIT (0) UNAL,
             22288    1         2 ALIGNCTL REDEF CHARGE UNAL,
             22289    1           3 EVERY BIT(1) UNAL,
             22290    1           3 * BIT(8) UNAL,
PL6.E3A0      #003=ASF$BUILD_FORM File=ASB$BUILD_DEFAULT_FILES.:E05TSI           TUE 07/29/97 08:58 Page:219
             22291    1         2 REPEATS UBIN BYTE INIT (1) UNAL,
             22292    1         2 INTR UBIN BYTE INIT (1) UNAL,
             22293    1         2 NUM_ENTRIES UBIN BYTE INIT (8) UNAL,
             22294        %SET BCNT=7;
             22295    1         2 ENTRIES(0:7),
             22296        %SET BROW='';
             22297        %SET BCOL='';
             22298        %SET BFONT='';
             22299        %SET BSTRIKES='';
             22300        %SET BICSH='';
             22301        %SET BREPS='';
             22302        %SET BRINC='';
             22303        %SET BCINC='';
             22304        %SET BTYPE='';
             22305        %SET BDISP='';
             22306        %SET BCOUNT='';
             22307        %SET BTEXT='';
             22308        %SET DISP#=33;
             22309        %SET TEXT_LEN#=0;
             22310        %ENDIF;
      913    22312        %FS$BAN_ENT(ROW=1,COL=1,TYPE=FS_PLAIN_TEXT,TEXT='jklmnopqr');
             22313        %SET BROW='1,';
             22314        %SET BCOL='1,';
             22315        %SET BFONT='0,';
             22316        %SET BSTRIKES='1,';
             22317        %SET BICSH='0,';
             22318        %SET BREPS='1,';
             22319        %SET BRINC='0,';
             22320        %SET BCINC='0,';
             22321        %SET BTYPE='0,';
             22322        %IF '0'B;
             22326        %ELSEIF '0'B;
             22329        %ELSE;
             22330        %SET TEXT_LEN=9;
             22331        %SET TOT_LEN=3;
             22332        %SET BCOUNT='009,';
             22333        %SET BDISP='0033,';
PL6.E3A0      #003=ASF$BUILD_FORM File=ASB$BUILD_DEFAULT_FILES.:E05TSI           TUE 07/29/97 08:58 Page:220
             22334        %SET DISP#=36;
             22335        %SET TEXT_LEN#=12;
             22336        %SET DIFF=3;
             22337        %IF '0'B;
             22339        %ENDIF;
             22340        %IF'0'B;
             22342        %ENDIF;
             22343        %IF'1'B;
             22344        %SET TEXT_VAL='jklmnopqr   ';
             22345        %ENDIF;
             22346        %SET BTEXT='jklmnopqr   ';
             22347        %ENDIF;
      914    22349        %FS$BAN_ENT(ROW=1,COL=72,TYPE=FS_PLAIN_TEXT,TEXT='rqponmlkj');
             22350        %SET BROW='1,1,';
             22351        %SET BCOL='1,72,';
             22352        %SET BFONT='0,0,';
             22353        %SET BSTRIKES='1,1,';
             22354        %SET BICSH='0,0,';
             22355        %SET BREPS='1,1,';
             22356        %SET BRINC='0,0,';
             22357        %SET BCINC='0,0,';
             22358        %SET BTYPE='0,0,';
             22359        %IF '0'B;
             22363        %ELSEIF '0'B;
             22366        %ELSE;
             22367        %SET TEXT_LEN=9;
             22368        %SET TOT_LEN=3;
             22369        %SET BCOUNT='009,009,';
             22370        %SET BDISP='0033,0036,';
             22371        %SET DISP#=39;
             22372        %SET TEXT_LEN#=24;
             22373        %SET DIFF=3;
             22374        %IF '0'B;
             22376        %ENDIF;
             22377        %IF'0'B;
             22379        %ENDIF;
             22380        %IF'1'B;
PL6.E3A0      #003=ASF$BUILD_FORM File=ASB$BUILD_DEFAULT_FILES.:E05TSI           TUE 07/29/97 08:58 Page:221
             22381        %SET TEXT_VAL='rqponmlkj   ';
             22382        %ENDIF;
             22383        %SET BTEXT='jklmnopqr   rqponmlkj   ';
             22384        %ENDIF;
      915    22386        %FS$BAN_ENT(ROW=1,COL=63,TYPE=FS_SYSID_INT);
             22387        %SET BROW='1,1,1,';
             22388        %SET BCOL='1,72,63,';
             22389        %SET BFONT='0,0,0,';
             22390        %SET BSTRIKES='1,1,1,';
             22391        %SET BICSH='0,0,0,';
             22392        %SET BREPS='1,1,1,';
             22393        %SET BRINC='0,0,0,';
             22394        %SET BCINC='0,0,0,';
             22395        %SET BTYPE='0,0,1,';
             22396        %IF '0'B;
             22400        %ELSEIF '1'B;
             22401        %SET BCOUNT='009,009,0,';
             22402        %SET BDISP='0033,0036,0,';
             22403        %ELSE;
             22421        %ENDIF;
      916    22423        %FS$BAN_ENT(ROW=1,COL=14,TYPE=FS_DATE_INT);
             22424        %SET BROW='1,1,1,1,';
             22425        %SET BCOL='1,72,63,14,';
             22426        %SET BFONT='0,0,0,0,';
             22427        %SET BSTRIKES='1,1,1,1,';
             22428        %SET BICSH='0,0,0,0,';
             22429        %SET BREPS='1,1,1,1,';
             22430        %SET BRINC='0,0,0,0,';
             22431        %SET BCINC='0,0,0,0,';
             22432        %SET BTYPE='0,0,1,7,';
             22433        %IF '0'B;
             22437        %ELSEIF '1'B;
             22438        %SET BCOUNT='009,009,0,0,';
             22439        %SET BDISP='0033,0036,0,0,';
             22440        %ELSE;
             22458        %ENDIF;
      917    22460        %FS$BAN_ENT(ROW=1,COL=23,TYPE=FS_TIME_INT);
PL6.E3A0      #003=ASF$BUILD_FORM File=ASB$BUILD_DEFAULT_FILES.:E05TSI           TUE 07/29/97 08:58 Page:222
             22461        %SET BROW='1,1,1,1,1,';
             22462        %SET BCOL='1,72,63,14,23,';
             22463        %SET BFONT='0,0,0,0,0,';
             22464        %SET BSTRIKES='1,1,1,1,1,';
             22465        %SET BICSH='0,0,0,0,0,';
             22466        %SET BREPS='1,1,1,1,1,';
             22467        %SET BRINC='0,0,0,0,0,';
             22468        %SET BCINC='0,0,0,0,0,';
             22469        %SET BTYPE='0,0,1,7,6,';
             22470        %IF '0'B;
             22474        %ELSEIF '1'B;
             22475        %SET BCOUNT='009,009,0,0,0,';
             22476        %SET BDISP='0033,0036,0,0,0,';
             22477        %ELSE;
             22495        %ENDIF;
      918    22497        %FS$BAN_ENT(ROW=1,COL=31,TYPE=FS_ACCN_INT);
             22498        %SET BROW='1,1,1,1,1,1,';
             22499        %SET BCOL='1,72,63,14,23,31,';
             22500        %SET BFONT='0,0,0,0,0,0,';
             22501        %SET BSTRIKES='1,1,1,1,1,1,';
             22502        %SET BICSH='0,0,0,0,0,0,';
             22503        %SET BREPS='1,1,1,1,1,1,';
             22504        %SET BRINC='0,0,0,0,0,0,';
             22505        %SET BCINC='0,0,0,0,0,0,';
             22506        %SET BTYPE='0,0,1,7,6,2,';
             22507        %IF '0'B;
             22511        %ELSEIF '1'B;
             22512        %SET BCOUNT='009,009,0,0,0,0,';
             22513        %SET BDISP='0033,0036,0,0,0,0,';
             22514        %ELSE;
             22532        %ENDIF;
      919    22534        %FS$BAN_ENT(ROW=1,COL=40,TYPE=FS_UNAME_INT);
             22535        %SET BROW='1,1,1,1,1,1,1,';
             22536        %SET BCOL='1,72,63,14,23,31,40,';
             22537        %SET BFONT='0,0,0,0,0,0,0,';
             22538        %SET BSTRIKES='1,1,1,1,1,1,1,';
             22539        %SET BICSH='0,0,0,0,0,0,0,';
PL6.E3A0      #003=ASF$BUILD_FORM File=ASB$BUILD_DEFAULT_FILES.:E05TSI           TUE 07/29/97 08:58 Page:223
             22540        %SET BREPS='1,1,1,1,1,1,1,';
             22541        %SET BRINC='0,0,0,0,0,0,0,';
             22542        %SET BCINC='0,0,0,0,0,0,0,';
             22543        %SET BTYPE='0,0,1,7,6,2,3,';
             22544        %IF '0'B;
             22548        %ELSEIF '1'B;
             22549        %SET BCOUNT='009,009,0,0,0,0,0,';
             22550        %SET BDISP='0033,0036,0,0,0,0,0,';
             22551        %ELSE;
             22569        %ENDIF;
      920    22571        %FS$BAN_ENT(ROW=1,COL=53,TYPE=FS_WOO_INT);
             22572        %SET BROW='1,1,1,1,1,1,1,1,';
             22573        %SET BCOL='1,72,63,14,23,31,40,53,';
             22574        %SET BFONT='0,0,0,0,0,0,0,0,';
             22575        %SET BSTRIKES='1,1,1,1,1,1,1,1,';
             22576        %SET BICSH='0,0,0,0,0,0,0,0,';
             22577        %SET BREPS='1,1,1,1,1,1,1,1,';
             22578        %SET BRINC='0,0,0,0,0,0,0,0,';
             22579        %SET BCINC='0,0,0,0,0,0,0,0,';
             22580        %SET BTYPE='0,0,1,7,6,2,3,4,';
             22581        %IF '0'B;
             22585        %ELSEIF '1'B;
             22586        %SET BCOUNT='009,009,0,0,0,0,0,0,';
             22587        %SET BDISP='0033,0036,0,0,0,0,0,0,';
             22588        %ELSE;
             22606        %ENDIF;
      921    22608        %FS$BAN_GEN;
             22609    1           3 ROW UBIN BYTE UNAL INIT(1,1,1,1,1,1,1,1),
             22610    1             3 COL UBIN BYTE UNAL INIT(1,72,63,14,23,31,40,53),
             22611    1             3 FONT UBIN BYTE UNAL INIT(0,0,0,0,0,0,0,0),
             22612    1             3 STRIKES UBIN BYTE UNAL INIT(1,1,1,1,1,1,1,1),
             22613    1             3 ICSH UBIN BYTE UNAL INIT(0,0,0,0,0,0,0,0),
             22614    1             3 REPS UBIN BYTE UNAL INIT(1,1,1,1,1,1,1,1),
             22615    1             3 RINC UBIN BYTE UNAL INIT(0,0,0,0,0,0,0,0),
             22616    1             3 CINC UBIN BYTE UNAL INIT(0,0,0,0,0,0,0,0),
             22617    1             3 TYPE UBIN BYTE UNAL INIT(0,0,1,7,6,2,3,4),
             22618    1             3 DISP UBIN HALF UNAL INIT(0033,0036,0,0,0,0,0,0),
PL6.E3A0      #003=ASF$BUILD_FORM File=ASB$BUILD_DEFAULT_FILES.:E05TSI           TUE 07/29/97 08:58 Page:224
             22619    1             3 B REDEF DISP,
             22620    1             4 START UBIN BYTE UNAL,
             22621    1             4 LEN UBIN BYTE UNAL,
             22622    1             3 COUNT UBIN BYTE UNAL INIT(009,009,0,0,0,0,0,0),
             22623    1             3 TOTLEN UBIN(27) UNAL INIT(0*0),
             22624    1             3 MARK UBIN BYTE UNAL INIT(0*0),
             22625    1             2 TEXT CHAR(24) INIT ('jklmnopqr   rqponmlkj   ');
      922    22627        %FS$SET_INIT(NAME=SETUPSTDLP,CNT=4,STCLASS=CONSTANT);
             22628        %LSET STR='CONSTANT        ';
             22629        %IF
             22630            '0'B;
             22636        %ELSE;
             22637    1   DCL 1 SETUPSTDLP CONSTANT,
             22638    1         2 LINES UBIN BYTE UNAL INIT(4), /* NUM OF LINES                       */
             22639    1         2 * UBIN BYTE UNAL INIT(0),
             22640    1         2 * UBIN HALF UNAL INIT(0),
             22641        %SET BCNT=3;
             22642    1         2 TXT(0:3) CHAR(72) INIT(
             22643        %ENDIF;
      923    22645        %FS$SET_ENT(TXT=
             22645            '************************************************************************');
             22646    1           '************************************************************************',
      924    22648        %FS$SET_ENT(TXT=
             22648            '*** SET UP STANDARD LP PAPER 8 1/2 BY 11 GREEN BAR                    **');
             22649    1           '*** SET UP STANDARD LP PAPER 8 1/2 BY 11 GREEN BAR                    **',
      925    22651        %FS$SET_ENT(TXT=
             22651            '***             WITH HONEYWELL BULL LOGO                              **');
             22652    1           '***             WITH HONEYWELL BULL LOGO                              **',
      926    22654        %FS$SET_ENT(TXT=
             22654            '************************************************************************');
             22655    1           '************************************************************************',
      927    22657        %FS$SET_GEN;
             22658    1             ' '*0);
      928    22660        %FS$FORMREC (STCLASS="BASED(PTR$)");
             22661        %LSET STR='BASED(PTR$)        ';
             22662        %IF
             22664         '0'B;
PL6.E3A0      #003=ASF$BUILD_FORM File=ASB$BUILD_DEFAULT_FILES.:E05TSI           TUE 07/29/97 08:58 Page:225
             22666        %ELSE;
             22667        %LSET INIT=/*;
             22668        %ENDIF;
             22669        /*
             22670        */
             22671    1   DCL 1 FS$FORMREC BASED(PTR$) ALIGNED,
             22672    1         2 FNAME CHAR(6) /*('  ')/**/, /* FORM NAME           */
             22673    1         2 ACCTDISP UBIN HALF UNAL /*(0)/**/,
             22674    1         2 SETUPDISP UBIN HALF UNAL /*(0)/**/, /* WD DISP TO SETUP */
             22675    1         2 ACCSDISP UBIN HALF UNAL /*(0)/**/, /* DISP TO ACCESS */
             22676    1         2 BANRDISP UBIN HALF UNAL /*(0)/**/, /* DISP TO BANNER */
             22677    1         2 ALGNDISP UBIN HALF UNAL /*(0)/**/, /* DISP TO ALGNMENT */
             22678    1         2 FLAGS BIT(7) /*('0000000'B) /**/, /* SETABLE BUT NOT USED */
             22679    1         2 * BIT(1) /*('0'B)/**/, /* THIS BIT IS FREE            */
             22680    1         2 GRAPHIC BIT(1) /*('0'B)/**/, /* GRAPHIC FORM   */
             22681        /**/
             22682        /*  LEGAL TYPE OF DEVICES FOR THIS FORM */
             22683        /*   The LGLTYPS field here is duplicated in the FS$CHARSET record
             22684             and when this macro is changed, this one should be checked!
             22685        */
             22686        /**/
             22687    1         2 LGLTYPS,
             22688    1           3 LPOK BIT(1) /*('0'B)/**/, /* LEGAL ON LP           */
             22689    1           3 TSOK BIT(1) /*('0'B)/**/, /* LEGAL ON TS           */
             22690    1           3 ELSOK BIT(1) /*('0'B)/**/, /* LEGAL ON ALL BUT TS+LP */
             22691    1           3 ONEOK BIT(1) /*('0'B)/**/, /* LEGAL ON TYP=LTYP   */
             22692    1           3 * BIT(5) /*('00000'B)/**/,
             22693    1           3 LTYP CHAR(2) /*(' ')/**/, /* LEGAL IF ONEOK=YES   */
             22694    1         2 ATTR BIT(18) UNAL /*('000006'O) /**/,
             22695    1         2 SOFTFORM,                       /*SOFT VFU/PLATEN INFO                */
             22696        /**/
             22697        /*  WRITE SOFTFORM WITH VFC_VFU AND BP ON IN DVBYTE */
             22698        /**/
             22699    1           3 VLPPLATEN,                    /* SEE KI_CP6_C FOR DESC              */
             22700    1             4 TL,
             22701    1               5 T UBIN BYTE UNAL /*(8)/**/,
             22702    1               5 L UBIN BYTE UNAL /*(16)/**/,
PL6.E3A0      #003=ASF$BUILD_FORM File=ASB$BUILD_DEFAULT_FILES.:E05TSI           TUE 07/29/97 08:58 Page:226
             22703    1             4 WIDTH UBIN BYTE UNAL /*(0)/**/,
             22704    1             4 LENGTH UBIN BYTE UNAL /*(0)/**/,
             22705    1             4 LIMBO UBIN BYTE UNAL /*(0)/**/,
             22706    1             4 FIRSTLINE UBIN BYTE UNAL /*(0)/**/,
             22707    1             4 * BIT(8) /*('00000000'B)/**/,
             22708    1             4 EXTWID BIT(1) /*('0'B)/**/,
             22709    1             4 LPI UBIN BYTE UNAL /*(6)/**/,
             22710    1             4 * (0:9) UBIN BYTE UNAL /*(0*0)/**/,
             22711    1           3 VFUIM,                        /* TED AND PAULS SOFT VFU IMAGE       */
             22712    1             4 TL,
             22713    1               5 T UBIN BYTE UNAL /*(18)/**/,
             22714    1               5 L UBIN BYTE UNAL /*(64)/**/,
             22715    1             4 V,
             22716    1               5 LINE(0:31) UBIN BYTE UNAL /*(0*0)/**/,
             22717    1               5 NEXT(0:31) UBIN BYTE UNAL /*(0*0)/**/,
             22718    1         2 CHAIN_NAME CHAR(8) UNAL /*('600')/**/,
             22719    1         2 CHAINS(0:5) CHAR(40) UNAL /*(
             22720                %C600;
             22721    1             'BDFGHJgS0ACEINORLTabcdefKhijklmM0PQUVWXY',
             22722    1             'Z:;?!%7xynoprstw0z123456#89.,()@$=&/''\^_',
             22723    1             '0"<>[]gS~ACEINOR{Tabcdef0hijklm}|`-*+quv',
             22724    1             'BDFGHJ7x0noprstwLz123456K89.,()M0PQUVWXY',
             22725    1             'Z:;?!%gSyACEINOR0Tabcdef#hijklm@$=&/''\^_',
             22726    1             '0"<>[]7x~noprstw{z123456089.,()}|`-*+quv')
             22728    1           /**/,
             22729    1         2 CHAINIMAGE REDEF CHAINS CHAR(240) UNAL;
      929    22731        %FS$CHARSET (NAME=CHARSET,
      930    22732                     STCLASS="BASED(CHARSET$)");
             22733        %LSET STR='BASED(CHARSET$)        ';
             22734        %IF
             22736         '0'B;
             22738        %ELSE;
             22739        %LSET INIT=/*;
             22740        %ENDIF;
             22741    1   DCL 1 CHARSET BASED(CHARSET$) ALIGNED,
             22742    1         2 SETS (0:9) CHAR (24) /* ('BDFGHJgS0ACEINORLTabcdef',
             22743    1                                    'KhijklmM0PQUVWXYZ:;?!%7x',
PL6.E3A0      #003=ASF$BUILD_FORM File=ASB$BUILD_DEFAULT_FILES.:E05TSI           TUE 07/29/97 08:58 Page:227
             22744    1                                    'ynoprstw0z123456#89.,()@',
             22745    1                                    '$=&/''\^_0"<>[]gS~ACEINOR',
             22746    1                                    '{Tabcdef0hijklm}|`-*+quv',
             22747    1                                    'BDFGHJ7x0noprstwLz123456',
             22748    1                                    'K89.,()M0PQUVWXYZ:;?!%gS',
             22749    1                                    'yACEINOR0Tabcdef#hijklm@',
             22750    1                                    '$=&/''\^_0"<>[]7x~noprstw',
             22751    1                                    '{z123456089.,()}|`-*+quv') /**/,
             22752    1         2 CHAINIMAGE REDEF SETS CHAR (240) UNAL,
             22753    1         2 ATTRS BIT (18) /* ('000001'O) /**/,
             22754    1         2 LGLTYPS,
             22755    1           3 LPOK BIT(1) /*('0'B)/**/,
             22756    1           3 TSOK BIT(1) /*('0'B)/**/,
             22757    1           3 ELSOK BIT(1) /*('0'B)/**/,
             22758    1           3 ONEOK BIT(1) /*('0'B)/**/,
             22759    1           3 * BIT(5) /*('00000'B)/**/,
             22760    1           3 LTYP CHAR(2) /*('  ')/**/,
             22761    1           3 * BIT(27) /*('000000000'O)/**/;
      931    22763            %FPT_GDS(FPTN=GET_MEM,
      932    22764                      COMMON=YES,
      933    22765                      FREE=YES,
      934    22766                      RESULTS=MEM_VEC,
      935    22767                      SEGSIZE=2048);
             22768        %LSET LISTDIR='0'B;
             22778    1  DCL 1 GET_MEM STATIC,2 V_ BIT(72)INIT(VECTOR(GET_MEM.V))/**/,2 RESULTS_ BIT(72)INIT(
             22778            VECTOR(MEM_VEC))/**/,2 V
             22779    1   DALIGNED,3 AUTOSEG# BIT(1)INIT('0'B)/**/ ,3 COMMON# BIT(1)INIT('1'B)/**/ ,3 FREE#
             22779            BIT(1)INIT('1'B
             22780    1   )/**/,3 VIRTONLY# BIT(1)INIT('0'B)/**/,3 * BIT(5)INIT('0'B)/**/,3 PROTECTION# BIT(9
             22781    1   )INIT('600'O)/**/,3 SEGSIZE# UBIN HALF UNAL INIT(2048)/**/;
      936    22783            %FPT_FDS(FPTN=FREE_MEM,
      937    22784                      COMMON=YES,
      938    22785                      RESULTS=MEM_VEC,
      939    22786                      SEGSIZE=2048);
             22787        %LSET LISTDIR='0'B;
             22797    1   DCL 1 FREE_MEM STATIC,2 V_ BIT(72)INIT(VECTOR(FREE_MEM.V))/**/,2 RESULTS_ BIT(72)
             22797            INIT(VECTOR(MEM_VEC))/**/,2 V
PL6.E3A0      #003=ASF$BUILD_FORM File=ASB$BUILD_DEFAULT_FILES.:E05TSI           TUE 07/29/97 08:58 Page:228
             22798    1  DALIGNED,3 AUTOSEG# BIT(1)INIT('0'B)/**/ ,3 COMMON# BIT(1)INIT('1'B)/**/ ,3 * BIT(16
             22798            )INIT('0'B
             22799    1   )/**/,3 SEGSIZE# UBIN HALF UNAL INIT(2048)/**/;
      940    22801            %VLP_VECTOR(FPTN=MEM_VEC);
             22802        %LSET LISTDIR='0'B;
             22812    1  DCL 1 MEM_VEC STATIC DALIGNED,2 W1,3 VSIZE# UBIN(20)UNAL INIT(0)/**/,3 FLAGS# BIT(9)
             22812            INIT('777'O)/**/,3
             22813    1   TYP# BIT(2)INIT('01'B)/**/,3 * UBIN(5)UNAL INIT(0)/**/,2 W2,3 BASE# UBIN(20)UNAL
             22813            INIT(0)
             22814    1   /**/,3 * UBIN(4)UNAL INIT(0)/**/,3 SEGID# BIT(12)INIT('6014'O)/**/,2 PTR$ REDEF W2
             22814            PTR;
      941    22816    1   DCL PTR$ PTR;
      942    22817    1   DCL CHARSET$ PTR;
      943    22818    1   DCL ARS UBIN;
      944    22819    1   DCL BOUND UBIN WORD;
      945    22820    1   DCL CHARS CHAR(BOUND) BASED UNAL;
      946    22821        /**/
      947    22822        /**/
      948    22823        %VLP_NAME (FPTN=STLP,STCLASS=CONSTANT,NAME='STDLP ');
             22824        %LSET LISTDIR='0'B;
             22848    1  DCL 1 STLP CONSTANT,2 L# UBIN(9)INIT(6)/**/ UNAL,2 NAME# CHAR(0)INIT('STDLP ')/**/ ;
      949    22850        %VLP_NAME (FPTN=STGR,STCLASS=CONSTANT,NAME='STDGR ');
             22851        %LSET LISTDIR='0'B;
             22875    1  DCL 1 STGR CONSTANT,2 L# UBIN(9)INIT(6)/**/ UNAL,2 NAME# CHAR(0)INIT('STDGR ')/**/ ;
      950    22877        %VLP_NAME (FPTN=STXX,STCLASS=CONSTANT,NAME='STD** ');
             22878        %LSET LISTDIR='0'B;
             22902    1  DCL 1 STXX CONSTANT,2 L# UBIN(9)INIT(6)/**/ UNAL,2 NAME# CHAR(0)INIT('STD** ')/**/ ;
      951    22904        %VLP_NAME (FPTN=KEY_600,STCLASS=CONSTANT,NAME='~600CHARSET');
             22905        %LSET LISTDIR='0'B;
             22929    1   DCL 1 KEY_600 CONSTANT,2 L# UBIN(9)INIT(11)/**/ UNAL,2 NAME# CHAR(0)INIT(
             22929            '~600CHARSET')/**/ ;
      952    22931        %VLP_NAME (FPTN=KEY_513,STCLASS=CONSTANT,NAME='~513CHARSET');
             22932        %LSET LISTDIR='0'B;
             22956    1   DCL 1 KEY_513 CONSTANT,2 L# UBIN(9)INIT(11)/**/ UNAL,2 NAME# CHAR(0)INIT(
             22956            '~513CHARSET')/**/ ;
      953    22958        %PLIST;
      954    22959        %EJECT;
PL6.E3A0      #003=ASF$BUILD_FORM File=ASB$BUILD_DEFAULT_FILES.:E05TSI           TUE 07/29/97 08:58 Page:229
      955    22960    1   CALL M$GDS(GET_MEM)

  22960  5 000002   000000 630400 4                  EPPR0   GET_MEM
         5 000003   430001 713400                    CLIMB   alt,gds
         5 000004   400400 401760                    pmme    nvectors=2
         5 000005   000007 702000 5                  TSX2    s:22962
         5 000006   000011 710000 5                  TRA     s:22967

      956    22961    2   WHENALTRETURN DO;

      957    22962    2      CALL M$XXX;

  22962  5 000007   000003 713400                    CLIMB   3
         5 000010   000000 401760                    pmme    nvectors=0

      958    22963    2      END;

      959    22964        /*
      960    22965                 Here is the stdlp record
      961    22966        */
      962    22967    1   PTR$=MEM_VEC.PTR$;

  22967  5 000011   000015 236000 4                  LDQ     MEM_VEC+1
         5 000012   200003 756100                    STQ     PTR$,,AUTO

      963    22968    1   FS$FORMREC=STDLP;

  22968  5 000013   200003 470500                    LDP0    PTR$,,AUTO
         5 000014   000100 100400                    MLR     fill='000'O
         5 000015   000025 000542 3                  ADSC9   STDLP                    cn=0,n=354
         5 000016   000000 000542                    ADSC9   0,,PR0                   cn=0,n=354

      964    22969    1   PTR$=PINCRC(PTR$,SIZEC(STDLP));

  22969  5 000017   200003 236100                    LDQ     PTR$,,AUTO
         5 000020   000131 036003                    ADLQ    89,DU
         5 000021   200003 756100                    STQ     PTR$,,AUTO
PL6.E3A0      #003=ASF$BUILD_FORM File=ASB$BUILD_DEFAULT_FILES.:E05TSI           TUE 07/29/97 08:58 Page:230

      965    22970    1   BOUND=SIZEC(STDLP_BAN);

  22970  5 000022   000354 235007                    LDA     236,DL
         5 000023   200006 755100                    STA     BOUND,,AUTO

      966    22971    1   PTR$->CHARS=ADDR(STDLP_BAN)->CHARS;

  22971  5 000024   000000 620005                    EAX0    0,AL
         5 000025   200003 470500                    LDP0    PTR$,,AUTO
         5 000026   200006 721100                    LXL1    BOUND,,AUTO
         5 000027   040140 100440                    MLR     fill='040'O
         5 000030   000156 000010 3                  ADSC9   STDLP_BAN                cn=0,n=*X0
         5 000031   000000 000011                    ADSC9   0,,PR0                   cn=0,n=*X1

      967    22972    1   PTR$=PINCRC(PTR$,BOUND);

  22972  5 000032   200006 236100                    LDQ     BOUND,,AUTO
         5 000033   000020 736000                    QLS     16
         5 000034   200003 036100                    ADLQ    PTR$,,AUTO
         5 000035   200003 756100                    STQ     PTR$,,AUTO

      968    22973    1   BOUND=SIZEC(SETUPSTDLP);

  22973  5 000036   000444 235007                    LDA     292,DL
         5 000037   200006 755100                    STA     BOUND,,AUTO

      969    22974    1   PTR$->CHARS=ADDR(SETUPSTDLP)->CHARS;

  22974  5 000040   000000 620005                    EAX0    0,AL
         5 000041   200003 470500                    LDP0    PTR$,,AUTO
         5 000042   200006 721100                    LXL1    BOUND,,AUTO
         5 000043   040140 100440                    MLR     fill='040'O
         5 000044   000451 000010 3                  ADSC9   SETUPSTDLP               cn=0,n=*X0
         5 000045   000000 000011                    ADSC9   0,,PR0                   cn=0,n=*X1

      970    22975    1   PTR$=MEM_VEC.PTR$;
PL6.E3A0      #003=ASF$BUILD_FORM File=ASB$BUILD_DEFAULT_FILES.:E05TSI           TUE 07/29/97 08:58 Page:231

  22975  5 000046   000015 236000 4                  LDQ     MEM_VEC+1
         5 000047   200003 756100                    STQ     PTR$,,AUTO

      971    22976    1   FS$FORMREC.BANRDISP=SIZEW(STDLP);

  22976  5 000050   000131 220003                    LDX0    89,DU
         5 000051   200003 470500                    LDP0    PTR$,,AUTO
         5 000052   000003 740100                    STX0    3,,PR0

      972    22977    1   FS$FORMREC.SETUPDISP=SIZEW(STDLP)+SIZEW(STDLP_BAN);

  22977  5 000053   000224 221003                    LDX1    148,DU
         5 000054   200003 470500                    LDP0    PTR$,,AUTO
         5 000055   000002 741100                    STX1    2,,PR0

      973    22978    1   BOUND = (SIZEW(STDLP) + SIZEW(STDLP_BAN) + SIZEW(SETUPSTDLP))*4;

  22978  5 000056   001564 235007                    LDA     884,DL
         5 000057   200006 755100                    STA     BOUND,,AUTO

      974    22979    1   CHARSET$ = PINCRW (PTR$,((BOUND+3)/4));

  22979  5 000060   200006 236100                    LDQ     BOUND,,AUTO
         5 000061   000003 036007                    ADLQ    3,DL
         5 000062   000002 772000                    QRL     2
         5 000063   000022 736000                    QLS     18
         5 000064   200003 036100                    ADLQ    PTR$,,AUTO
         5 000065   200004 756100                    STQ     CHARSET$,,AUTO

      975    22980    1   CALL INSERT_CHARSET;

  22980  5 000066   000237 701000 5                  TSX1    INSERT_CHARSET
         5 000067   000000 011000                    NOP     0

      976    22981    1   CALL REVERSE_BANNER_TEXT;

PL6.E3A0      #003=ASF$BUILD_FORM File=ASB$BUILD_DEFAULT_FILES.:E05TSI           TUE 07/29/97 08:58 Page:232
  22981  5 000070   000540 701000 5                  TSX1    REVERSE_BANNER_TEXT
         5 000071   000000 011000                    NOP     0

      977    22982    1   CALL ASF$WRITE_FORM(STLP,PTR$,BOUND);

  22982  5 000072   200006 630500                    EPPR0   BOUND,,AUTO
         5 000073   200122 450500                    STP0    MODIFIER+4,,AUTO
         5 000074   200003 631500                    EPPR1   PTR$,,AUTO
         5 000075   200121 451500                    STP1    MODIFIER+3,,AUTO
         5 000076   000000 236000 6                  LDQ     0
         5 000077   200120 756100                    STQ     MODIFIER+2,,AUTO
         5 000100   200120 630500                    EPPR0   MODIFIER+2,,AUTO
         5 000101   000021 631400 xsym               EPPR1   B_VECTNIL+17
         5 000102   000000 701000 xent               TSX1    ASF$WRITE_FORM
         5 000103   000000 011000                    NOP     0

      978    22983        /*
      979    22984                 Here is the stdgr record
      980    22985        */
      981    22986    1   PTR$=MEM_VEC.PTR$;

  22986  5 000104   000015 236000 4                  LDQ     MEM_VEC+1
         5 000105   200003 756100                    STQ     PTR$,,AUTO

      982    22987    1   FS$GFORMREC=STDGR;

  22987  5 000106   200003 470500                    LDP0    PTR$,,AUTO
         5 000107   000100 100400                    MLR     fill='000'O
         5 000110   000000 000124 3                  ADSC9   STDGR                    cn=0,n=84
         5 000111   000000 000124                    ADSC9   0,,PR0                   cn=0,n=84

      983    22988    1   FS$GFORMREC.GRAPHIC = '1'B;

  22988  5 000112   200003 470500                    LDP0    PTR$,,AUTO
         5 000113   001000 236003                    LDQ     512,DU
         5 000114   000004 256100                    ORSQ    4,,PR0

PL6.E3A0      #003=ASF$BUILD_FORM File=ASB$BUILD_DEFAULT_FILES.:E05TSI           TUE 07/29/97 08:58 Page:233
      984    22989    1   FS$GFORMREC.TRANSLGL = '1'B;

  22989  5 000115   002000 236003                    LDQ     1024,DU
         5 000116   000004 256100                    ORSQ    4,,PR0

      985    22990    1   FS$GFORMREC.X_SIZE = 2159;

  22990  5 000117   004157 220003                    LDX0    2159,DU
         5 000120   000007 440100                    SXL0    7,,PR0

      986    22991    1   FS$GFORMREC.Y_SIZE = 2794;

  22991  5 000121   005352 221003                    LDX1    2794,DU
         5 000122   000010 741100                    STX1    8,,PR0

      987    22992    1   FS$GFORMREC.SET_DEV_LIM.X_SIZE = '010157'O;

  22992  5 000123   010157 222003                    LDX2    4207,DU
         5 000124   000013 742100                    STX2    11,,PR0

      988    22993    1   FS$GFORMREC.SET_DEV_LIM.Y_SIZE = '012352'O;

  22993  5 000125   012352 223003                    LDX3    5354,DU
         5 000126   000013 443100                    SXL3    11,,PR0

      989    22994    1   BOUND = SIZEW (STDGR) * 4;

  22994  5 000127   000124 235007                    LDA     84,DL
         5 000130   200006 755100                    STA     BOUND,,AUTO

      990    22995    1   CHARSET$ = PINCRW (PTR$,((BOUND+3)/4));

  22995  5 000131   200006 236100                    LDQ     BOUND,,AUTO
         5 000132   000003 036007                    ADLQ    3,DL
         5 000133   000002 772000                    QRL     2
         5 000134   000022 736000                    QLS     18
         5 000135   200003 036100                    ADLQ    PTR$,,AUTO
PL6.E3A0      #003=ASF$BUILD_FORM File=ASB$BUILD_DEFAULT_FILES.:E05TSI           TUE 07/29/97 08:58 Page:234
         5 000136   200004 756100                    STQ     CHARSET$,,AUTO

      991    22996    1   CALL INSERT_CHARSET;

  22996  5 000137   000237 701000 5                  TSX1    INSERT_CHARSET
         5 000140   000000 011000                    NOP     0

      992    22997    1   CALL ASF$WRITE_FORM(STGR,PTR$,BOUND);

  22997  5 000141   200006 630500                    EPPR0   BOUND,,AUTO
         5 000142   200122 450500                    STP0    MODIFIER+4,,AUTO
         5 000143   200003 631500                    EPPR1   PTR$,,AUTO
         5 000144   200121 451500                    STP1    MODIFIER+3,,AUTO
         5 000145   000001 236000 6                  LDQ     1
         5 000146   200120 756100                    STQ     MODIFIER+2,,AUTO
         5 000147   200120 630500                    EPPR0   MODIFIER+2,,AUTO
         5 000150   000021 631400 xsym               EPPR1   B_VECTNIL+17
         5 000151   000000 701000 xent               TSX1    ASF$WRITE_FORM
         5 000152   000000 011000                    NOP     0

      993    22998        /*
      994    22999                 And here is the STD** Record
      995    23000        */
      996    23001    1   PTR$=MEM_VEC.PTR$;

  23001  5 000153   000015 236000 4                  LDQ     MEM_VEC+1
         5 000154   200003 756100                    STQ     PTR$,,AUTO

      997    23002    1   FS$FORMREC=STDXX;

  23002  5 000155   200003 470500                    LDP0    PTR$,,AUTO
         5 000156   000100 100400                    MLR     fill='000'O
         5 000157   000251 000542 3                  ADSC9   STDXX                    cn=0,n=354
         5 000160   000000 000542                    ADSC9   0,,PR0                   cn=0,n=354

      998    23003    1   PTR$=PINCRC(PTR$,SIZEC(STDXX));

PL6.E3A0      #003=ASF$BUILD_FORM File=ASB$BUILD_DEFAULT_FILES.:E05TSI           TUE 07/29/97 08:58 Page:235
  23003  5 000161   200003 236100                    LDQ     PTR$,,AUTO
         5 000162   000131 036003                    ADLQ    89,DU
         5 000163   200003 756100                    STQ     PTR$,,AUTO

      999    23004    1   BOUND=SIZEC(STDXX_BAN);

  23004  5 000164   000234 235007                    LDA     156,DL
         5 000165   200006 755100                    STA     BOUND,,AUTO

     1000    23005    1   PTR$->CHARS=ADDR(STDXX_BAN)->CHARS;

  23005  5 000166   000000 620005                    EAX0    0,AL
         5 000167   200003 470500                    LDP0    PTR$,,AUTO
         5 000170   200006 721100                    LXL1    BOUND,,AUTO
         5 000171   040140 100440                    MLR     fill='040'O
         5 000172   000402 000010 3                  ADSC9   STDXX_BAN                cn=0,n=*X0
         5 000173   000000 000011                    ADSC9   0,,PR0                   cn=0,n=*X1

     1001    23006    1   PTR$=MEM_VEC.PTR$;

  23006  5 000174   000015 236000 4                  LDQ     MEM_VEC+1
         5 000175   200003 756100                    STQ     PTR$,,AUTO

     1002    23007    1   FS$FORMREC.BANRDISP=SIZEW(STDXX);

  23007  5 000176   000131 220003                    LDX0    89,DU
         5 000177   200003 470500                    LDP0    PTR$,,AUTO
         5 000200   000003 740100                    STX0    3,,PR0

     1003    23008    1   BOUND = (SIZEW(STDXX) + SIZEW(STDXX_BAN)) * 4;

  23008  5 000201   001000 235007                    LDA     512,DL
         5 000202   200006 755100                    STA     BOUND,,AUTO

     1004    23009    1   CHARSET$ = PINCRW (PTR$,((BOUND+3)/4));

  23009  5 000203   200006 236100                    LDQ     BOUND,,AUTO
PL6.E3A0      #003=ASF$BUILD_FORM File=ASB$BUILD_DEFAULT_FILES.:E05TSI           TUE 07/29/97 08:58 Page:236
         5 000204   000003 036007                    ADLQ    3,DL
         5 000205   000002 772000                    QRL     2
         5 000206   000022 736000                    QLS     18
         5 000207   200003 036100                    ADLQ    PTR$,,AUTO
         5 000210   200004 756100                    STQ     CHARSET$,,AUTO

     1005    23010    1   CALL INSERT_CHARSET;

  23010  5 000211   000237 701000 5                  TSX1    INSERT_CHARSET
         5 000212   000000 011000                    NOP     0

     1006    23011    1   CALL REVERSE_BANNER_TEXT;

  23011  5 000213   000540 701000 5                  TSX1    REVERSE_BANNER_TEXT
         5 000214   000000 011000                    NOP     0

     1007    23012    1   CALL ASF$WRITE_FORM(STXX,PTR$,BOUND);

  23012  5 000215   200006 630500                    EPPR0   BOUND,,AUTO
         5 000216   200122 450500                    STP0    MODIFIER+4,,AUTO
         5 000217   200003 631500                    EPPR1   PTR$,,AUTO
         5 000220   200121 451500                    STP1    MODIFIER+3,,AUTO
         5 000221   000002 236000 6                  LDQ     2
         5 000222   200120 756100                    STQ     MODIFIER+2,,AUTO
         5 000223   200120 630500                    EPPR0   MODIFIER+2,,AUTO
         5 000224   000021 631400 xsym               EPPR1   B_VECTNIL+17
         5 000225   000000 701000 xent               TSX1    ASF$WRITE_FORM
         5 000226   000000 011000                    NOP     0

     1008    23013    1   CALL M$FDS(FREE_MEM)

  23013  5 000227   000006 630400 4                  EPPR0   FREE_MEM
         5 000230   430002 713400                    CLIMB   alt,fds
         5 000231   400400 401760                    pmme    nvectors=2
         5 000232   000234 702000 5                  TSX2    s:23015
         5 000233   000236 710000 5                  TRA     s:23017

PL6.E3A0      #003=ASF$BUILD_FORM File=ASB$BUILD_DEFAULT_FILES.:E05TSI           TUE 07/29/97 08:58 Page:237
     1009    23014    2   WHENALTRETURN DO;

     1010    23015    2      CALL M$XXX;

  23015  5 000234   000003 713400                    CLIMB   3
         5 000235   000000 401760                    pmme    nvectors=0

     1011    23016    2      END;

     1012    23017    1   RETURN;

  23017  5 000236   000000 702200 xent               TSX2  ! X66_ARET

     1013    23018        /* Routine to read in a charset and place it in the form record
     1014    23019             for either stdlp or STD**.  For STD** Place the 513 chain
     1015    23020             and attributes in it.  For stdlp, get the attributes of the
     1016    23021             LP01 out of the :CONFIG file, find a chain with the same
     1017    23022             attributes and place that chains info into stdlp.  If no
     1018    23023             chain matches the attributes for LP@LOCAL, the default is
     1019    23024             600.
     1020    23025        */
     1021    23026
     1022    23027    1   INSERT_CHARSET: PROC;

  23027  5 000237   200010 741300       INSERT_CHAR* STX1  ! BOUND+2,,AUTO

     1023    23028
     1024    23029    2   DCL LP_ATTRS BIT (18) ALIGNED;
     1025    23030
     1026    23031    2   IF FS$FORMREC.FNAME = 'STD**'

  23031  5 000240   200003 470500                    LDP0    PTR$,,AUTO
         5 000241   040000 106500                    CMPC    fill='040'O
         5 000242   000000 000006                    ADSC9   0,,PR0                   cn=0,n=6
         5 000243   000576 000005 3                  ADSC9   KEY_513+3                cn=0,n=5
         5 000244   000322 601000 5                  TNZ     s:23072

PL6.E3A0      #003=ASF$BUILD_FORM File=ASB$BUILD_DEFAULT_FILES.:E05TSI           TUE 07/29/97 08:58 Page:238
     1027    23032    3   THEN DO;

     1028    23033    3      ARS = SIZEB(CHARSET);

  23033  5 000245   004270 235007                    LDA     2232,DL
         5 000246   200005 755100                    STA     ARS,,AUTO

     1029    23034    3      CALL ASF$READ_FORM (KEY_513, CHARSET$, ARS)

  23034  5 000247   200005 631500                    EPPR1   ARS,,AUTO
         5 000250   200122 451500                    STP1    MODIFIER+4,,AUTO
         5 000251   200004 633500                    EPPR3   CHARSET$,,AUTO
         5 000252   200121 453500                    STP3    MODIFIER+3,,AUTO
         5 000253   000003 236000 6                  LDQ     3
         5 000254   200120 756100                    STQ     MODIFIER+2,,AUTO
         5 000255   200120 630500                    EPPR0   MODIFIER+2,,AUTO
         5 000256   000021 631400 xsym               EPPR1   B_VECTNIL+17
         5 000257   000000 701000 xent               TSX1    ASF$READ_FORM
         5 000260   000303 702000 5                  TSX2    s:23042

     1030    23035    4      WHENRETURN DO;

     1031    23036    4         FS$FORMREC.LGLTYPS = CHARSET.LGLTYPS;

  23036  5 000261   200003 470500                    LDP0    PTR$,,AUTO
         5 000262   200004 471500                    LDP1    CHARSET$,,AUTO
         5 000263   100074 235100                    LDA     60,,PR1
         5 000264   100075 236100                    LDQ     61,,PR1
         5 000265   000022 773000                    LRL     18
         5 000266   000004 376000 6                  ANQ     4
         5 000267   000011 772000                    QRL     9
         5 000270   000004 552134                    STBQ    4,'34'O,PR0

     1032    23037    4         FS$FORMREC.ATTR = CHARSET.ATTRS;

  23037  5 000271   200004 471500                    LDP1    CHARSET$,,AUTO
         5 000272   100074 220100                    LDX0    60,,PR1
PL6.E3A0      #003=ASF$BUILD_FORM File=ASB$BUILD_DEFAULT_FILES.:E05TSI           TUE 07/29/97 08:58 Page:239
         5 000273   000005 740100                    STX0    5,,PR0

     1033    23038    4         FS$FORMREC.CHAINIMAGE = CHARSET.CHAINIMAGE;

  23038  5 000274   040100 100500                    MLR     fill='040'O
         5 000275   100000 000360                    ADSC9   0,,PR1                   cn=0,n=240
         5 000276   000034 400360                    ADSC9   28,,PR0                  cn=2,n=240

     1034    23039    4         FS$FORMREC.CHAIN_NAME = '513';

  23039  5 000277   040100 100400                    MLR     fill='040'O
         5 000300   000600 000003 3                  ADSC9   KEY_513+5                cn=0,n=3
         5 000301   000032 400010                    ADSC9   26,,PR0                  cn=2,n=8

     1035    23040    4         END;

  23040  5 000302   000322 710000 5                  TRA     s:23072

     1036    23041    4      WHENALTRETURN DO;

     1037    23042    4         IF MERR_CODE.CODE ~= 86

  23042  5 000303   000000 236000 xsym               LDQ     ERR_CODE
         5 000304   377770 376007                    ANQ     131064,DL
         5 000305   001260 116007                    CMPQ    688,DL
         5 000306   000314 600000 5                  TZE     s:23067

     1038    23043    5         THEN DO;

     1039    23044        /*E* ERROR: ASF-E$513CHAINNOTTHERE-C
     1040    23045             MESSAGE: STD** cannot be build - Charset 513 does not exist.
     1041    23046             MESSAGE1: When STD** is built, it uses as default the 513 charset,
     1042    23047                       if 513 is not there (it is built as a default) STD**
     1043    23048                       cannot be build.
     1044    23049        */
     1045    23050                 %SCREAM(ERR#=E$513CHAINNOTTHERE, MID='F', LEVEL=ERROR);

PL6.E3A0      #003=ASF$BUILD_FORM File=ASB$BUILD_DEFAULT_FILES.:E05TSI           TUE 07/29/97 08:58 Page:240
  23062  5 000307   000005 630400 6                  EPPR0   5
         5 000310   000017 631400 xsym               EPPR1   B_VECTNIL+15
         5 000311   000000 701000 xent               TSX1    ASH$ERROR
         5 000312   000000 011000                    NOP     0

     1046    23065    5            END;

  23065  5 000313   000322 710000 5                  TRA     s:23072

     1047    23066    5         ELSE DO;

     1048    23067    5            CALL ASH$ERROR (P_PCB.ERROR);

  23067  5 000314   000006 630400 6                  EPPR0   6
         5 000315   000017 631400 xsym               EPPR1   B_VECTNIL+15
         5 000316   000000 701000 xent               TSX1    ASH$ERROR
         5 000317   000000 011000                    NOP     0

     1049    23068    5            RETURN;

  23068  5 000320   200010 221300                    LDX1  ! BOUND+2,,AUTO
         5 000321   000001 702211                    TSX2  ! 1,X1

     1050    23069    5            END;
     1051    23070    4         END;
     1052    23071    3      END; /* STD** */

     1053    23072    2   IF FS$FORMREC.FNAME = 'STDGR'

  23072  5 000322   200003 470500                    LDP0    PTR$,,AUTO
         5 000323   040000 106500                    CMPC    fill='040'O
         5 000324   000000 000006                    ADSC9   0,,PR0                   cn=0,n=6
         5 000325   000602 000005 3                  ADSC9   KEY_513+7                cn=0,n=5
         5 000326   000405 601000 5                  TNZ     s:23108

     1054    23073    3   THEN DO;

PL6.E3A0      #003=ASF$BUILD_FORM File=ASB$BUILD_DEFAULT_FILES.:E05TSI           TUE 07/29/97 08:58 Page:241
     1055    23074    3      ARS = SIZEB(CHARSET);

  23074  5 000327   004270 235007                    LDA     2232,DL
         5 000330   200005 755100                    STA     ARS,,AUTO

     1056    23075    3      CALL ASF$READ_FORM (KEY_600, CHARSET$, ARS)

  23075  5 000331   200005 631500                    EPPR1   ARS,,AUTO
         5 000332   200122 451500                    STP1    MODIFIER+4,,AUTO
         5 000333   200004 633500                    EPPR3   CHARSET$,,AUTO
         5 000334   200121 453500                    STP3    MODIFIER+3,,AUTO
         5 000335   000007 236000 6                  LDQ     7
         5 000336   200120 756100                    STQ     MODIFIER+2,,AUTO
         5 000337   200120 630500                    EPPR0   MODIFIER+2,,AUTO
         5 000340   000021 631400 xsym               EPPR1   B_VECTNIL+17
         5 000341   000000 701000 xent               TSX1    ASF$READ_FORM
         5 000342   000363 702000 5                  TSX2    s:23083

     1057    23076    4      WHENRETURN DO;

     1058    23077    4         FS$GFORMREC.LGLTYPS = CHARSET.LGLTYPS;

  23077  5 000343   200003 470500                    LDP0    PTR$,,AUTO
         5 000344   200004 471500                    LDP1    CHARSET$,,AUTO
         5 000345   100074 235100                    LDA     60,,PR1
         5 000346   100075 236100                    LDQ     61,,PR1
         5 000347   000022 773000                    LRL     18
         5 000350   000004 376000 6                  ANQ     4
         5 000351   000011 772000                    QRL     9
         5 000352   000004 552134                    STBQ    4,'34'O,PR0

     1059    23078    4         FS$GFORMREC.ATTR = CHARSET.ATTRS;

  23078  5 000353   200004 471500                    LDP1    CHARSET$,,AUTO
         5 000354   100074 220100                    LDX0    60,,PR1
         5 000355   000005 740100                    STX0    5,,PR0

PL6.E3A0      #003=ASF$BUILD_FORM File=ASB$BUILD_DEFAULT_FILES.:E05TSI           TUE 07/29/97 08:58 Page:242
     1060    23079    4         FS$GFORMREC.ATTR = FS$GFORMREC.ATTR | '000200'O;

  23079  5 000356   000200 260003                    ORX0    128,DU
         5 000357   000005 740100                    STX0    5,,PR0

     1061    23080    4         FS$GFORMREC.ATTR = FS$GFORMREC.ATTR | '000400'O;

  23080  5 000360   000400 260003                    ORX0    256,DU
         5 000361   000005 740100                    STX0    5,,PR0

     1062    23081    4         END;

  23081  5 000362   000405 710000 5                  TRA     s:23108

     1063    23082    4      WHENALTRETURN DO;

     1064    23083    4         IF MERR_CODE.CODE ~= 86

  23083  5 000363   000000 236000 xsym               LDQ     ERR_CODE
         5 000364   377770 376007                    ANQ     131064,DL
         5 000365   001260 116007                    CMPQ    688,DL
         5 000366   000377 600000 5                  TZE     s:23103

     1065    23084    5         THEN DO;

     1066    23085    5            AS_FIELD1 = STGR;

  23085  5 000367   000000 100400                    MLR     fill='000'O
         5 000370   000564 000007 3                  ADSC9   STGR                     cn=0,n=7
         5 000371   000000 000051 xsym               ADSC9   AS_FIELD1                cn=0,n=41

     1067    23086                 %SCREAM(ERR#=E$600CHAINNOTTHERE, MID='F', LEVEL=ERROR);

  23098  5 000372   000010 630400 6                  EPPR0   8
         5 000373   000017 631400 xsym               EPPR1   B_VECTNIL+15
         5 000374   000000 701000 xent               TSX1    ASH$ERROR
         5 000375   000000 011000                    NOP     0
PL6.E3A0      #003=ASF$BUILD_FORM File=ASB$BUILD_DEFAULT_FILES.:E05TSI           TUE 07/29/97 08:58 Page:243

     1068    23101    5            END;

  23101  5 000376   000405 710000 5                  TRA     s:23108

     1069    23102    5         ELSE DO;

     1070    23103    5            CALL ASH$ERROR (P_PCB.ERROR);

  23103  5 000377   000006 630400 6                  EPPR0   6
         5 000400   000017 631400 xsym               EPPR1   B_VECTNIL+15
         5 000401   000000 701000 xent               TSX1    ASH$ERROR
         5 000402   000000 011000                    NOP     0

     1071    23104    5            RETURN;

  23104  5 000403   200010 221300                    LDX1  ! BOUND+2,,AUTO
         5 000404   000001 702211                    TSX2  ! 1,X1

     1072    23105    5            END;
     1073    23106    4         END;
     1074    23107    3      END; /* Stdgr */

     1075    23108    2   IF FS$FORMREC.FNAME = 'STDLP'

  23108  5 000405   200003 470500                    LDP0    PTR$,,AUTO
         5 000406   040000 106500                    CMPC    fill='040'O
         5 000407   000000 000006                    ADSC9   0,,PR0                   cn=0,n=6
         5 000410   000605 000005 3                  ADSC9   KEY_513+10               cn=0,n=5
         5 000411   000536 601000 5                  TNZ     s:23172

     1076    23109    3   THEN DO;

     1077    23110    3      ARS = SIZEB(CHARSET);

  23110  5 000412   004270 235007                    LDA     2232,DL
         5 000413   200005 755100                    STA     ARS,,AUTO
PL6.E3A0      #003=ASF$BUILD_FORM File=ASB$BUILD_DEFAULT_FILES.:E05TSI           TUE 07/29/97 08:58 Page:244

     1078    23111    3      CALL GET_CONFIGS_LP01_ATTRS (LP_ATTRS)

  23111  5 000414   200011 631500                    EPPR1   LP_ATTRS,,AUTO
         5 000415   200120 451500                    STP1    MODIFIER+2,,AUTO
         5 000416   200120 630500                    EPPR0   MODIFIER+2,,AUTO
         5 000417   000017 631400 xsym               EPPR1   B_VECTNIL+15
         5 000420   000000 701000 xent               TSX1    GET_CONFIGS_LP01_ATTRS
         5 000421   000452 702000 5                  TSX2    USE_600

     1079    23112    4      WHENRETURN DO;

     1080    23113    4         USERS_KEY.COUNT = 16;

  23113  5 000422   020000 236003                    LDQ     8192,DU
         5 000423   000000 552040 xsym               STBQ    USERS_KEY,'40'O

     1081    23114    4         USERS_KEY.TXTC = '~        CHARSET';

  23114  5 000424   040000 100400                    MLR     fill='040'O
         5 000425   000607 000020 3                  ADSC9   KEY_513+12               cn=0,n=16
         5 000426   000000 200051 xsym               ADSC9   USERS_KEY                cn=1,n=41

     1082    23115             /* This is to assure us that the next record read will be a
     1083    23116              charset record.
     1084    23117             */
     1085    23118    4         CALL ASF$PREC_FORM (USERS_KEY) ALTRET (GO_ON);

  23118  5 000427   000011 630400 6                  EPPR0   9
         5 000430   000017 631400 xsym               EPPR1   B_VECTNIL+15
         5 000431   000000 701000 xent               TSX1    ASF$PREC_FORM
         5 000432   000433 702000 5                  TSX2    GO_ON

  23114  5 000433                       GO_ON        null
     1086    23119    4   GO_ON: ;
     1087    23120
     1088    23121             /* Start the loop.  Just keep reading in charset records until
PL6.E3A0      #003=ASF$BUILD_FORM File=ASB$BUILD_DEFAULT_FILES.:E05TSI           TUE 07/29/97 08:58 Page:245
     1089    23122              the attrs match,  then we have a valid charset.
     1090    23123              If we get an end of file on a read, we
     1091    23124              go back to the 600 charset.  Any other altret does this too.
     1092    23125             */
     1093    23126    5         DO UNTIL ( LP_ATTRS = CHARSET.ATTRS );

     1094    23127    5            CALL ASF$READ_FORM_SEQ (USERS_KEY, CHARSET$, ARS) ALTRET (USE_600);

  23127  5 000433   200005 630500                    EPPR0   ARS,,AUTO
         5 000434   200122 450500                    STP0    MODIFIER+4,,AUTO
         5 000435   200004 631500                    EPPR1   CHARSET$,,AUTO
         5 000436   200121 451500                    STP1    MODIFIER+3,,AUTO
         5 000437   000011 236000 6                  LDQ     9
         5 000440   200120 756100                    STQ     MODIFIER+2,,AUTO
         5 000441   200120 630500                    EPPR0   MODIFIER+2,,AUTO
         5 000442   000021 631400 xsym               EPPR1   B_VECTNIL+17
         5 000443   000000 701000 xent               TSX1    ASF$READ_FORM_SEQ
         5 000444   000452 702000 5                  TSX2    USE_600

     1095    23128    5            END;

  23128  5 000445   200011 220100                    LDX0    LP_ATTRS,,AUTO
         5 000446   200004 470500                    LDP0    CHARSET$,,AUTO
         5 000447   000074 100100                    CMPX0   60,,PR0
         5 000450   000433 601000 5                  TNZ     GO_ON

     1096    23129    4         END;

  23129  5 000451   000512 710000 5                  TRA     s:23167

     1097    23130    4      WHENALTRETURN DO;

  23127  5 000452                       USE_600      null
     1098    23131    4   USE_600: ;
     1099    23132    4         USERS_KEY = KEY_600;

  23132  5 000452   000000 100400                    MLR     fill='000'O
PL6.E3A0      #003=ASF$BUILD_FORM File=ASB$BUILD_DEFAULT_FILES.:E05TSI           TUE 07/29/97 08:58 Page:246
         5 000453   000570 000014 3                  ADSC9   KEY_600                  cn=0,n=12
         5 000454   000000 000052 xsym               ADSC9   USERS_KEY                cn=0,n=42

     1100    23133    4         CALL ASF$READ_FORM (KEY_600, CHARSET$, ARS)

  23133  5 000455   200005 630500                    EPPR0   ARS,,AUTO
         5 000456   200122 450500                    STP0    MODIFIER+4,,AUTO
         5 000457   200004 631500                    EPPR1   CHARSET$,,AUTO
         5 000460   200121 451500                    STP1    MODIFIER+3,,AUTO
         5 000461   000007 236000 6                  LDQ     7
         5 000462   200120 756100                    STQ     MODIFIER+2,,AUTO
         5 000463   200120 630500                    EPPR0   MODIFIER+2,,AUTO
         5 000464   000021 631400 xsym               EPPR1   B_VECTNIL+17
         5 000465   000000 701000 xent               TSX1    ASF$READ_FORM
         5 000466   000470 702000 5                  TSX2    s:23135
         5 000467   000512 710000 5                  TRA     s:23167

     1101    23134    5         WHENALTRETURN DO;

     1102    23135    5            IF MERR_CODE.CODE ~= 86

  23135  5 000470   000000 236000 xsym               LDQ     ERR_CODE
         5 000471   377770 376007                    ANQ     131064,DL
         5 000472   001260 116007                    CMPQ    688,DL
         5 000473   000504 600000 5                  TZE     s:23161

     1103    23136    6            THEN DO;

     1104    23137                   /*E* ERROR: ASF-E$600CHAINNOTTHERE-C
     1105    23138                        MESSAGE: %U1 cannot be build - Charset 600 does not exist.
     1106    23139                        MESSAGE1: When %U1 is built, it uses as default the 600 charset,
     1107    23140                                  if 600 is not there (600 is built as a default) %U1
     1108    23141                                  cannot be build.
     1109    23142        */
     1110    23143    6               AS_FIELD1 = STLP;

  23143  5 000474   000000 100400                    MLR     fill='000'O
PL6.E3A0      #003=ASF$BUILD_FORM File=ASB$BUILD_DEFAULT_FILES.:E05TSI           TUE 07/29/97 08:58 Page:247
         5 000475   000562 000007 3                  ADSC9   STLP                     cn=0,n=7
         5 000476   000000 000051 xsym               ADSC9   AS_FIELD1                cn=0,n=41

     1111    23144                    %SCREAM(ERR#=E$600CHAINNOTTHERE, MID='F', LEVEL=ERROR);

  23156  5 000477   000010 630400 6                  EPPR0   8
         5 000500   000017 631400 xsym               EPPR1   B_VECTNIL+15
         5 000501   000000 701000 xent               TSX1    ASH$ERROR
         5 000502   000000 011000                    NOP     0

     1112    23159    6               END;

  23159  5 000503   000512 710000 5                  TRA     s:23167

     1113    23160    6            ELSE DO;

     1114    23161    6               CALL ASH$ERROR (P_PCB.ERROR);

  23161  5 000504   000006 630400 6                  EPPR0   6
         5 000505   000017 631400 xsym               EPPR1   B_VECTNIL+15
         5 000506   000000 701000 xent               TSX1    ASH$ERROR
         5 000507   000000 011000                    NOP     0

     1115    23162    6               RETURN;

  23162  5 000510   200010 221300                    LDX1  ! BOUND+2,,AUTO
         5 000511   000001 702211                    TSX2  ! 1,X1

     1116    23163    6               END;
     1117    23164    5            END;
     1118    23165    4         END;

     1119    23166          /* Now CHARSET$ is pointing at the charset to use, just stick it in!*/
     1120    23167    3      FS$FORMREC.LGLTYPS = CHARSET.LGLTYPS;

  23167  5 000512   200003 470500                    LDP0    PTR$,,AUTO
         5 000513   200004 471500                    LDP1    CHARSET$,,AUTO
PL6.E3A0      #003=ASF$BUILD_FORM File=ASB$BUILD_DEFAULT_FILES.:E05TSI           TUE 07/29/97 08:58 Page:248
         5 000514   100074 235100                    LDA     60,,PR1
         5 000515   100075 236100                    LDQ     61,,PR1
         5 000516   000022 773000                    LRL     18
         5 000517   000004 376000 6                  ANQ     4
         5 000520   000011 772000                    QRL     9
         5 000521   000004 552134                    STBQ    4,'34'O,PR0

     1121    23168    3      FS$FORMREC.ATTR = CHARSET.ATTRS;

  23168  5 000522   200004 471500                    LDP1    CHARSET$,,AUTO
         5 000523   100074 220100                    LDX0    60,,PR1
         5 000524   000005 740100                    STX0    5,,PR0

     1122    23169    3      FS$FORMREC.CHAINIMAGE = CHARSET.CHAINIMAGE;

  23169  5 000525   040100 100500                    MLR     fill='040'O
         5 000526   100000 000360                    ADSC9   0,,PR1                   cn=0,n=240
         5 000527   000034 400360                    ADSC9   28,,PR0                  cn=2,n=240

     1123    23170    3      FS$FORMREC.CHAIN_NAME = SUBSTR (USERS_KEY.TXTC,1,USERS_KEY.COUNT-8);

  23170  5 000530   000000 236000 xsym               LDQ     USERS_KEY
         5 000531   000033 772000                    QRL     27
         5 000532   777770 621006                    EAX1    -8,QL
         5 000533   040100 100440                    MLR     fill='040'O
         5 000534   000000 400011 xsym               ADSC9   USERS_KEY                cn=2,n=*X1
         5 000535   000032 400010                    ADSC9   26,,PR0                  cn=2,n=8

     1124    23171    3      END; /* Stdlp */

     1125    23172    2   RETURN;

  23172  5 000536   200010 221300                    LDX1  ! BOUND+2,,AUTO
         5 000537   000001 702211                    TSX2  ! 1,X1

     1126    23173    2   END INSERT_CHARSET;
     1127    23174    1   REVERSE_BANNER_TEXT: PROC;
PL6.E3A0      #003=ASF$BUILD_FORM File=ASB$BUILD_DEFAULT_FILES.:E05TSI           TUE 07/29/97 08:58 Page:249

  23174  5 000540   200010 741300       REVERSE_BAN* STX1  ! BOUND+2,,AUTO

     1128    23175    2   DCL BNR$ PTR;
     1129    23176    2   DCL SPARE CHAR (240) ALIGNED; /* Hope the text of a banner never
     1130    23177                                         exceeds 240 chars. */
     1131    23178    2   DCL ENTRIES UBIN;
     1132    23179    2   DCL TEXT$ PTR;
     1133    23180    2   DCL I SBIN ALIGNED;
     1134    23181    2   DCL J UBIN ALIGNED;
     1135    23182    2   DCL FIRST UBIN ALIGNED;
     1136    23183    2   DCL LAST UBIN ALIGNED;
     1137    23184    2   DCL F UBIN ALIGNED;
     1138    23185    2   DCL L UBIN ALIGNED;
     1139    23186    2   DCL MODIFIER UBIN ALIGNED;  /* Offset to first element */
     1140    23187    2   DCL CHRTEXT CHAR (240) BASED;
     1141    23188
     1142    23189    2   BNR$ = PINCRW (PTR$, PTR$->FS$FORMREC.BANRDISP);

  23189  5 000541   200003 470500                    LDP0    PTR$,,AUTO
         5 000542   000003 220100                    LDX0    3,,PR0
         5 000543   000000 636010                    EAQ     0,X0
         5 000544   200003 036100                    ADLQ    PTR$,,AUTO
         5 000545   200011 756100                    STQ     BNR$,,AUTO

     1143    23190    2   ENTRIES = BNR$-> FS$BANNER.NUM_ENTRIES - 1; /* Make it 0 based */

  23190  5 000546   200011 471500                    LDP1    BNR$,,AUTO
         5 000547   000100 101500                    MRL     fill='000'O
         5 000550   100000 600001                    ADSC9   0,,PR1                   cn=3,n=1
         5 000551   200120 000004                    ADSC9   MODIFIER+2,,AUTO         cn=0,n=4
         5 000552   200120 236100                    LDQ     MODIFIER+2,,AUTO
         5 000553   000001 136007                    SBLQ    1,DL
         5 000554   200106 756100                    STQ     ENTRIES,,AUTO

     1144    23191
     1145    23192    3   DO I = 0 TO ENTRIES;
PL6.E3A0      #003=ASF$BUILD_FORM File=ASB$BUILD_DEFAULT_FILES.:E05TSI           TUE 07/29/97 08:58 Page:250

  23192  5 000555   200110 450100                    STZ     I,,AUTO
         5 000556   000606 710000 5                  TRA     s:23199+1

     1146    23193    3      IF (BNR$->FS$BANNER.ENTRIES.TYPE (I) = 0/*TEXT*/)

  23193  5 000557   200110 235100                    LDA     I,,AUTO
         5 000560   000004 735000                    ALS     4
         5 000561   200011 470500                    LDP0    BNR$,,AUTO
         5 000562   000100 101505                    MRL     fill='000'O
         5 000563   000003 000001                    ADSC9   3,A,PR0                  cn=0,n=1
         5 000564   200120 000004                    ADSC9   MODIFIER+2,,AUTO         cn=0,n=4
         5 000565   200120 236100                    LDQ     MODIFIER+2,,AUTO
         5 000566   000000 116003                    CMPQ    0,DU
         5 000567   000605 601000 5                  TNZ     s:23199

     1147    23194    4      THEN DO;

     1148    23195    4         TEXT$ = PINCRW (BNR$, BNR$->FS$BANNER.ENTRIES.DISP (I));

  23195  5 000570   000100 100505                    MLR     fill='000'O
         5 000571   000003 200002                    ADSC9   3,A,PR0                  cn=1,n=2
         5 000572   200120 000004                    ADSC9   MODIFIER+2,,AUTO         cn=0,n=4
         5 000573   200120 220100                    LDX0    MODIFIER+2,,AUTO
         5 000574   000000 636010                    EAQ     0,X0
         5 000575   200011 036100                    ADLQ    BNR$,,AUTO
         5 000576   200107 756100                    STQ     TEXT$,,AUTO

     1149    23196    4         MODIFIER = BNR$->FS$BANNER.ENTRIES.DISP (I);

  23196  5 000577   000100 101505                    MRL     fill='000'O
         5 000600   000003 200002                    ADSC9   3,A,PR0                  cn=1,n=2
         5 000601   200116 000004                    ADSC9   MODIFIER,,AUTO           cn=0,n=4

     1150    23197    4         I = ENTRIES + 1; /* Force us out of the loop */

  23197  5 000602   200106 235100                    LDA     ENTRIES,,AUTO
PL6.E3A0      #003=ASF$BUILD_FORM File=ASB$BUILD_DEFAULT_FILES.:E05TSI           TUE 07/29/97 08:58 Page:251
         5 000603   000001 035007                    ADLA    1,DL
         5 000604   200110 755100                    STA     I,,AUTO

     1151    23198    4         END;

     1152    23199    3      END;

  23199  5 000605   200110 054100                    AOS     I,,AUTO
         5 000606   200106 236100                    LDQ     ENTRIES,,AUTO
         5 000607   000557 604000 5                  TMI     s:23193
         5 000610   200110 116100                    CMPQ    I,,AUTO
         5 000611   000557 605000 5                  TPL     s:23193

     1153    23200
     1154    23201        /* We now have the text, we must reverse the order of the entries */
     1155    23202    2   J = 0;  /* J will indicate where to insert the text into spare */

  23202  5 000612   200111 450100                    STZ     J,,AUTO

     1156    23203    2   LAST = 0; /* Last will track our new disp values */

  23203  5 000613   200113 450100                    STZ     LAST,,AUTO

     1157    23204    2   FIRST = 0; /* First will track the new entry to get the count fixed.*/

  23204  5 000614   200112 450100                    STZ     FIRST,,AUTO

     1158    23205    2   SPARE = ' ';

  23205  5 000615   040100 100400                    MLR     fill='040'O
         5 000616   000035 000001 xsym               ADSC9   B_VECTNIL+29             cn=0,n=1
         5 000617   200012 000360                    ADSC9   SPARE,,AUTO              cn=0,n=240

     1159    23206    3   DO I = ENTRIES DOWNTO 0;

  23206  5 000620   200110 756100                    STQ     I,,AUTO
         5 000621   000734 710000 5                  TRA     s:23233+2
PL6.E3A0      #003=ASF$BUILD_FORM File=ASB$BUILD_DEFAULT_FILES.:E05TSI           TUE 07/29/97 08:58 Page:252

     1160    23207    3      IF (BNR$->FS$BANNER.ENTRIES.TYPE (I) = 0/*TEXT*/)

  23207  5 000622   200110 235100                    LDA     I,,AUTO
         5 000623   000004 735000                    ALS     4
         5 000624   200011 470500                    LDP0    BNR$,,AUTO
         5 000625   000100 101505                    MRL     fill='000'O
         5 000626   000003 000001                    ADSC9   3,A,PR0                  cn=0,n=1
         5 000627   200120 000004                    ADSC9   MODIFIER+2,,AUTO         cn=0,n=4
         5 000630   200120 236100                    LDQ     MODIFIER+2,,AUTO
         5 000631   000000 116003                    CMPQ    0,DU
         5 000632   000732 601000 5                  TNZ     s:23233

     1161    23208    4      THEN DO;

     1162    23209              /* Must move whole words */
     1163    23210    4         L = BNR$->FS$BANNER.ENTRIES.COUNT(I);

  23210  5 000633   000100 101505                    MRL     fill='000'O
         5 000634   000003 600001                    ADSC9   3,A,PR0                  cn=3,n=1
         5 000635   200115 000004                    ADSC9   L,,AUTO                  cn=0,n=4

     1164    23211    5         DO WHILE (MOD (L,4) ~= 0);

  23211  5 000636   000642 710000 5                  TRA     s:23213

     1165    23212    5            L = L + 1;

  23212  5 000637   200115 235100                    LDA     L,,AUTO
         5 000640   000001 035007                    ADLA    1,DL
         5 000641   200115 755100                    STA     L,,AUTO

     1166    23213    5            END;

  23213  5 000642   200115 236100                    LDQ     L,,AUTO
         5 000643   000003 376007                    ANQ     3,DL
         5 000644   000637 601000 5                  TNZ     s:23212
PL6.E3A0      #003=ASF$BUILD_FORM File=ASB$BUILD_DEFAULT_FILES.:E05TSI           TUE 07/29/97 08:58 Page:253

     1167    23214    4         F = (BNR$->FS$BANNER.ENTRIES.DISP (I) - MODIFIER) * 4;

  23214  5 000645   200110 235100                    LDA     I,,AUTO
         5 000646   000004 735000                    ALS     4
         5 000647   200011 470500                    LDP0    BNR$,,AUTO
         5 000650   000100 101505                    MRL     fill='000'O
         5 000651   000003 200002                    ADSC9   3,A,PR0                  cn=1,n=2
         5 000652   200120 000004                    ADSC9   MODIFIER+2,,AUTO         cn=0,n=4
         5 000653   200120 236100                    LDQ     MODIFIER+2,,AUTO
         5 000654   200116 136100                    SBLQ    MODIFIER,,AUTO
         5 000655   000002 736000                    QLS     2
         5 000656   200114 756100                    STQ     F,,AUTO

     1168    23215
     1169    23216    4         SUBSTR (SPARE, J, L) = SUBSTR (TEXT$->CHRTEXT, F, L);

  23216  5 000657   200107 471500                    LDP1    TEXT$,,AUTO
         5 000660   200115 720100                    LXL0    L,,AUTO
         5 000661   200111 235100                    LDA     J,,AUTO
         5 000662   040145 100546                    MLR     fill='040'O
         5 000663   100000 000010                    ADSC9   0,Q,PR1                  cn=0,n=*X0
         5 000664   200012 000010                    ADSC9   SPARE,A,AUTO             cn=0,n=*X0

     1170    23217    4         J = J + L;

  23217  5 000665   200111 236100                    LDQ     J,,AUTO
         5 000666   200115 036100                    ADLQ    L,,AUTO
         5 000667   200111 756100                    STQ     J,,AUTO

     1171    23218
     1172    23219    4         IF (LAST = 0)

  23219  5 000670   200113 235100                    LDA     LAST,,AUTO
         5 000671   000703 601000 5                  TNZ     s:23225

     1173    23220    5         THEN DO;
PL6.E3A0      #003=ASF$BUILD_FORM File=ASB$BUILD_DEFAULT_FILES.:E05TSI           TUE 07/29/97 08:58 Page:254

     1174    23221    5            BNR$-> FS$BANNER.ENTRIES.DISP (I) = MODIFIER;

  23221  5 000672   200110 235100                    LDA     I,,AUTO
         5 000673   000004 735000                    ALS     4
         5 000674   000105 101500                    MRL     fill='000'O
         5 000675   200116 000004                    ADSC9   MODIFIER,,AUTO           cn=0,n=4
         5 000676   000003 200002                    ADSC9   3,A,PR0                  cn=1,n=2

     1175    23222    5            LAST = BNR$-> FS$BANNER.ENTRIES.COUNT (I);

  23222  5 000677   000100 101505                    MRL     fill='000'O
         5 000700   000003 600001                    ADSC9   3,A,PR0                  cn=3,n=1
         5 000701   200113 000004                    ADSC9   LAST,,AUTO               cn=0,n=4

     1176    23223    5            END;

  23223  5 000702   000732 710000 5                  TRA     s:23233

     1177    23224    5         ELSE DO;

     1178    23225    6            DO WHILE (MOD (LAST,4) ~= 0);

  23225  5 000703   000707 710000 5                  TRA     s:23227

     1179    23226    6               LAST = LAST + 1;

  23226  5 000704   200113 235100                    LDA     LAST,,AUTO
         5 000705   000001 035007                    ADLA    1,DL
         5 000706   200113 755100                    STA     LAST,,AUTO

     1180    23227    6               END;

  23227  5 000707   200113 236100                    LDQ     LAST,,AUTO
         5 000710   000003 376007                    ANQ     3,DL
         5 000711   000704 601000 5                  TNZ     s:23226

PL6.E3A0      #003=ASF$BUILD_FORM File=ASB$BUILD_DEFAULT_FILES.:E05TSI           TUE 07/29/97 08:58 Page:255
     1181    23228    5            BNR$-> FS$BANNER.ENTRIES.DISP (I) = MODIFIER + (LAST/4);

  23228  5 000712   200113 236100                    LDQ     LAST,,AUTO
         5 000713   000002 772000                    QRL     2
         5 000714   200116 036100                    ADLQ    MODIFIER,,AUTO
         5 000715   200120 756100                    STQ     MODIFIER+2,,AUTO
         5 000716   200110 235100                    LDA     I,,AUTO
         5 000717   000004 735000                    ALS     4
         5 000720   200011 470500                    LDP0    BNR$,,AUTO
         5 000721   000105 101500                    MRL     fill='000'O
         5 000722   200120 000004                    ADSC9   MODIFIER+2,,AUTO         cn=0,n=4
         5 000723   000003 200002                    ADSC9   3,A,PR0                  cn=1,n=2

     1182    23229    5            LAST = LAST + BNR$-> FS$BANNER.ENTRIES.COUNT (I);

  23229  5 000724   000100 101505                    MRL     fill='000'O
         5 000725   000003 600001                    ADSC9   3,A,PR0                  cn=3,n=1
         5 000726   200120 000004                    ADSC9   MODIFIER+2,,AUTO         cn=0,n=4
         5 000727   200120 236100                    LDQ     MODIFIER+2,,AUTO
         5 000730   200113 036100                    ADLQ    LAST,,AUTO
         5 000731   200113 756100                    STQ     LAST,,AUTO

     1183    23230    5            END;

     1184    23231
     1185    23232    4         END;

     1186    23233    3      END;

  23233  5 000732   000001 336007                    LCQ     1,DL
         5 000733   200110 056100                    ASQ     I,,AUTO
         5 000734   200110 235100                    LDA     I,,AUTO
         5 000735   000622 605000 5                  TPL     s:23207

     1187    23234    2   J = J - 1;  /* J has the count of text that has to be moved */

  23234  5 000736   200111 236100                    LDQ     J,,AUTO
PL6.E3A0      #003=ASF$BUILD_FORM File=ASB$BUILD_DEFAULT_FILES.:E05TSI           TUE 07/29/97 08:58 Page:256
         5 000737   000001 136007                    SBLQ    1,DL
         5 000740   200111 756100                    STQ     J,,AUTO

     1188    23235    2   SUBSTR (TEXT$->CHRTEXT, 0, J) = SUBSTR (SPARE, 0, J);

  23235  5 000741   000000 620006                    EAX0    0,QL
         5 000742   200107 470500                    LDP0    TEXT$,,AUTO
         5 000743   200111 721100                    LXL1    J,,AUTO
         5 000744   040140 100540                    MLR     fill='040'O
         5 000745   200012 000010                    ADSC9   SPARE,,AUTO              cn=0,n=*X0
         5 000746   000000 000011                    ADSC9   0,,PR0                   cn=0,n=*X1

     1189    23236
     1190    23237    2   RETURN;

  23237  5 000747   200010 221300                    LDX1  ! BOUND+2,,AUTO
         5 000750   000001 702211                    TSX2  ! 1,X1
     1191    23238    2   END REVERSE_BANNER_TEXT;
     1192    23239    1   END ASF$BUILD_FORM;
     1193    23240        %EOD;

PL6.E3A0      #003=ASF$BUILD_FORM File=ASB$BUILD_DEFAULT_FILES.:E05TSI           TUE 07/29/97 08:58 Page:257
--  Include file information  --

   XG_SUBS_C.:E05TOU  is referenced.
   AS_SUPER_R.:E05TOU  cannot be made into a system file and is referenced.
   XU_FORMAT_C.:E05TOU  is referenced.
   XU_MACRO_C.:E05TOU  is referenced.
   B_ERRORS_C.:E05TOU  is referenced.
   AS_PERR_C.:E05TOU  is referenced.
   AS_MAC_C.:E05TOU  cannot be made into a system file and is referenced.
   AS_SUBS_C.:E05TOU  is referenced.
   KL_SUPER_C.:E05TOU  is referenced.
   FS_SUPER_C.:E05TOU  is referenced.
   AS_SUPER_C.:E05TOU  is referenced.
   CP_6_SUBS.:E05TOU  is referenced.
   CP_6_C.:E05TOU  is referenced.
   CP_6.:E05TOU  cannot be made into a system file and is referenced.
   AS_ENTRIES_M.:E05TOU  is referenced.
      No diagnostics issued in procedure ASF$BUILD_FORM.
PL6.E3A0      #003=ASF$BUILD_FORM File=ASB$BUILD_DEFAULT_FILES.:E05TSI           TUE 07/29/97 08:58 Page:258

 **** Variables and constants ****

  ****  Section 003 RoData ASF$BUILD_FORM

  ****  Scalars and arrays  ****
OctLoc.c.b A Datatyp(siz) R M Lvl/name                 OctLoc.c.b A Datatyp(siz) R M Lvl/name

   573-0-0/c STRC(108)   r     1 KEY_513                  570-0-0/c STRC(108)   r     1 KEY_600
   451-0-0/c STRC(2628)  r     1 SETUPSTDLP                 0-0-0/w STRC(756)   r     1 STDGR
    25-0-0/w STRC(3186)  r     1 STDLP                    156-0-0/c STRC(2124)  r     1 STDLP_BAN
   251-0-0/w STRC(3186)  r     1 STDXX                    402-0-0/c STRC(1404)  r     1 STDXX_BAN
   564-0-0/c STRC(63)    r     1 STGR                     562-0-0/c STRC(63)    r     1 STLP
   566-0-0/c STRC(63)    r     1 STXX

  ****  Section 004  Data  ASF$BUILD_FORM

  ****  Scalars and arrays  ****
OctLoc.c.b A Datatyp(siz) R M Lvl/name                 OctLoc.c.b A Datatyp(siz) R M Lvl/name

     6-0-0/d STRC(216)   r     1 FREE_MEM                   0-0-0/d STRC(216)   r     1 GET_MEM
    14-0-0/d STRC(72)    r     1 MEM_VEC

  ****  Auto variables  ****

  ****  Scalars and arrays  ****
OctLoc.c.b A Datatyp(siz) R M Lvl/name                 OctLoc.c.b A Datatyp(siz) R M Lvl/name

     5-0-0/w UBIN        r     1 ARS                       11-0-0/w PTR         r     1 BNR$
     6-0-0/w UBIN        r     1 BOUND                      4-0-0/w PTR         r     1 CHARSET$
   106-0-0/w UBIN        r     1 ENTRIES                  114-0-0/w UBIN        r     1 F
   112-0-0/w UBIN        r     1 FIRST                    110-0-0/w SBIN        r     1 I
   111-0-0/w UBIN        r     1 J                        115-0-0/w UBIN        r     1 L
   113-0-0/w UBIN        r     1 LAST                      11-0-0/w BIT (18)    r     1 LP_ATTRS
   116-0-0/w UBIN        r     1 MODIFIER                   3-0-0/w PTR         r     1 PTR$
    12-0-0/w CHAR(240)   r     1 SPARE                    107-0-0/w PTR         r     1 TEXT$

  ****  SYMREF variables  ****
PL6.E3A0      #003=ASF$BUILD_FORM File=ASB$BUILD_DEFAULT_FILES.:E05TSI           TUE 07/29/97 08:58 Page:259

  ****  Scalars and arrays  ****
OctLoc.c.b A Datatyp(siz) R M Lvl/name                 OctLoc.c.b A Datatyp(siz) R M Lvl/name

     0-0-0/w STRC(369)   r     1 AS_FIELD1                  0-0-0/b STRC        r     1 ERR_CODE
     0-0-0/b STRC        r     1 MERR_CODE                  0-0-0/w STRC(504)   r     1 P_PCB
     0-0-0/c STRC(378)   r     1 USERS_KEY

  ****  BASED and DCB variables  ****

  ****  Scalars and arrays  ****
OctLoc.c.b A Datatyp(siz) R M Lvl/name                 OctLoc.c.b A Datatyp(siz) R M Lvl/name

     0-0-0/c ACHR        r     1 CHARS                      0-0-0/w STRC(2232)  r     1 CHARSET
     0-0-0/c CHAR(240)   r     1 CHRTEXT                    0-0-0/c STRC(180)   r     1 FS$BANNER
     0-0-0/w STRC(3186)  r     1 FS$FORMREC                 0-0-0/w STRC(756)   r     1 FS$GFORMREC


   Procedure ASF$BUILD_FORM requires 489 words for executable code.
   Procedure ASF$BUILD_FORM requires 84 words of local(AUTO) storage.
PL6.E3A0      #003=ASF$BUILD_FORM File=ASB$BUILD_DEFAULT_FILES.:E05TSI           TUE 07/29/97 08:58 Page:260
          *** CROSS REFERENCE LISTING ***
**     DENOTES     IDENTIFIER DEFINITION
<<                 IDENTIFIER'S VALUE SET
>>                 IDENTIFIER'S VALUE USED
<>                 IDENTIFIER SET AND/OR USED
--                 IDENTIFIER REFERENCED
PL6.E3A0      #003=ASF$BUILD_FORM File=ASB$BUILD_DEFAULT_FILES.:E05TSI           TUE 07/29/97 08:58 Page:261
          MINI XREF LISTING

ARS
     22818**DCL     23033<<ASSIGN  23034<>CALL    23074<<ASSIGN  23075<>CALL    23110<<ASSIGN  23127<>CALL
     23133<>CALL
ASA_BRKS_LOC
     17912**DCL     17912--REDEF
ASF$PREC_FORM
     21275**DCL-ENT 23118--CALL
ASF$READ_FORM
     21266**DCL-ENT 23034--CALL    23075--CALL    23133--CALL
ASF$READ_FORM_SEQ
     21278**DCL-ENT 23127--CALL
ASF$WRITE_FORM
     21263**DCL-ENT 22982--CALL    22997--CALL    23012--CALL
ASH$ERROR
     21269**DCL-ENT 23062--CALL    23067--CALL    23098--CALL    23103--CALL    23156--CALL    23161--CALL
AS_DEFAULT.BANNER_PERM
     18605**DCL     18606--REDEF
AS_DEFAULT.BUDGET.MACCT
     18510**DCL     18514--REDEF
AS_DEFAULT.BUDGET.MAX_PROJECTS
     18523**DCL     18526--REDEF
AS_DEFAULT.BUDGET.PACCUM
     18506**DCL     18508--REDEF
AS_DEFAULT.BUDGET.PMAXC
     18501**DCL     18503--REDEF
AS_DEFAULT.SETUP_CHRA.TXT
     18621**DCL     18622--REDEF   18623--REDEF
AS_DEFAULT_DREC.PASSWORD
     19875**DCL     19879--REDEF
AS_DEFAULT_DREC.RENAME
     19898**DCL     19899--REDEF
AS_DFLT.BANNER_PERM
PL6.E3A0      #003=ASF$BUILD_FORM File=ASB$BUILD_DEFAULT_FILES.:E05TSI           TUE 07/29/97 08:58 Page:262
     18427**DCL     18428--REDEF
AS_DFLT.BUDGET.MACCT
     18332**DCL     18336--REDEF
AS_DFLT.BUDGET.MAX_PROJECTS
     18345**DCL     18348--REDEF
AS_DFLT.BUDGET.PACCUM
     18328**DCL     18330--REDEF
AS_DFLT.BUDGET.PMAXC
     18323**DCL     18325--REDEF
AS_DFLT.SETUP_CHRA.TXT
     18443**DCL     18444--REDEF   18445--REDEF
AS_FE_MODE
     17778**DCL     17779--REDEF
AS_FIELD1
     17908**DCL     23085<<ASSIGN  23143<<ASSIGN
AS_MODE
     17775**DCL     17777--REDEF
AS_MOD_USER.ACCESS
     20640**DCL     20641--REDEF
AS_MOD_USER.BANNER
     20627**DCL     20628--REDEF
AS_MOD_USER.BANNER_PERM
     20629**DCL     20630--REDEF
AS_MOD_USER.BILL
     20635**DCL     20636--REDEF
AS_MOD_USER.CPROC
     20631**DCL     20632--REDEF
AS_MOD_USER.FEBILL
     20711**DCL     20712--REDEF
AS_MOD_USER.FECXTMEM
     20728**DCL     20729--REDEF
AS_MOD_USER.FEMINTS
     20713**DCL     20714--REDEF
AS_MOD_USER.FEMMEM
     20724**DCL     20725--REDEF
AS_MOD_USER.FEMTIME
PL6.E3A0      #003=ASF$BUILD_FORM File=ASB$BUILD_DEFAULT_FILES.:E05TSI           TUE 07/29/97 08:58 Page:263
     20722**DCL     20723--REDEF
AS_MOD_USER.FEPPRIV
     20719**DCL     20721--REDEF
AS_MOD_USER.FEPRIV
     20716**DCL     20718--REDEF
AS_MOD_USER.FORCE_BIT
     20625**DCL     20626--REDEF
AS_MOD_USER.KEY
     20707**DCL     20709--REDEF
AS_MOD_USER.LASTCPROC
     20633**DCL     20634--REDEF
AS_MOD_USER.LIMITS.DO_
     20681**DCL     20682--REDEF
AS_MOD_USER.LIMITS.FPOOLS
     20697**DCL     20698--REDEF
AS_MOD_USER.LIMITS.LO
     20677**DCL     20678--REDEF
AS_MOD_USER.LIMITS.MEM
     20673**DCL     20674--REDEF
AS_MOD_USER.LIMITS.MPRIO
     20701**DCL     20702--REDEF
AS_MOD_USER.LIMITS.PDIS
     20689**DCL     20690--REDEF
AS_MOD_USER.LIMITS.PO
     20685**DCL     20686--REDEF
AS_MOD_USER.LIMITS.TDIS
     20693**DCL     20694--REDEF
AS_MOD_USER.LIMITS.TIME
     20669**DCL     20670--REDEF
AS_MOD_USER.MAXENQ
     20650**DCL     20651--REDEF
AS_MOD_USER.PERM_BIT
     20623**DCL     20624--REDEF
AS_MOD_USER.PPRIV
     20645**DCL     20647--REDEF
AS_MOD_USER.PRIOB
PL6.E3A0      #003=ASF$BUILD_FORM File=ASB$BUILD_DEFAULT_FILES.:E05TSI           TUE 07/29/97 08:58 Page:264
     20652**DCL     20653--REDEF
AS_MOD_USER.PRIV
     20642**DCL     20644--REDEF
AS_MOD_USER.QUAN
     20648**DCL     20649--REDEF
AS_MOD_USER.SETUP
     20621**DCL     20622--REDEF
AS_PROJECT.BANNER_PERM
     18961**DCL     18962--REDEF
AS_PROJECT.BUDGET.MACCT
     18866**DCL     18870--REDEF
AS_PROJECT.BUDGET.MAX_PROJECTS
     18879**DCL     18882--REDEF
AS_PROJECT.BUDGET.PACCUM
     18862**DCL     18864--REDEF
AS_PROJECT.BUDGET.PMAXC
     18857**DCL     18859--REDEF
AS_PROJECT.SETUP_CHRA.TXT
     18977**DCL     18978--REDEF   18979--REDEF
AS_PROJECT_DFLT.BANNER_PERM
     19139**DCL     19140--REDEF
AS_PROJECT_DFLT.BUDGET.MACCT
     19044**DCL     19048--REDEF
AS_PROJECT_DFLT.BUDGET.MAX_PROJECTS
     19057**DCL     19060--REDEF
AS_PROJECT_DFLT.BUDGET.PACCUM
     19040**DCL     19042--REDEF
AS_PROJECT_DFLT.BUDGET.PMAXC
     19035**DCL     19037--REDEF
AS_PROJECT_DFLT.SETUP_CHRA.TXT
     19155**DCL     19156--REDEF   19157--REDEF
AS_PROJECT_DFLT_DREC.PASSWORD
     20361**DCL     20365--REDEF
AS_PROJECT_DFLT_DREC.RENAME
     20384**DCL     20385--REDEF
AS_PROJECT_DREC.PASSWORD
PL6.E3A0      #003=ASF$BUILD_FORM File=ASB$BUILD_DEFAULT_FILES.:E05TSI           TUE 07/29/97 08:58 Page:265
     20199**DCL     20203--REDEF
AS_PROJECT_DREC.RENAME
     20222**DCL     20223--REDEF
AS_PROJ_ADMIN.BANNER_PERM
     18783**DCL     18784--REDEF
AS_PROJ_ADMIN.BUDGET.MACCT
     18688**DCL     18692--REDEF
AS_PROJ_ADMIN.BUDGET.MAX_PROJECTS
     18701**DCL     18704--REDEF
AS_PROJ_ADMIN.BUDGET.PACCUM
     18684**DCL     18686--REDEF
AS_PROJ_ADMIN.BUDGET.PMAXC
     18679**DCL     18681--REDEF
AS_PROJ_ADMIN.SETUP_CHRA.TXT
     18799**DCL     18800--REDEF   18801--REDEF
AS_PROJ_ADMIN_DREC.PASSWORD
     20037**DCL     20041--REDEF
AS_PROJ_ADMIN_DREC.RENAME
     20060**DCL     20061--REDEF
AS_USERS.BANNER_PERM
     18249**DCL     18250--REDEF
AS_USERS.BUDGET.MACCT
     18154**DCL     18158--REDEF
AS_USERS.BUDGET.MAX_PROJECTS
     18167**DCL     18170--REDEF
AS_USERS.BUDGET.PACCUM
     18150**DCL     18152--REDEF
AS_USERS.BUDGET.PMAXC
     18145**DCL     18147--REDEF
AS_USERS.SETUP_CHRA.TXT
     18265**DCL     18266--REDEF   18267--REDEF
AS_USERS_CONSTANT.BANNER_PERM
     19317**DCL     19318--REDEF
AS_USERS_CONSTANT.BUDGET.MACCT
     19222**DCL     19226--REDEF
AS_USERS_CONSTANT.BUDGET.MAX_PROJECTS
PL6.E3A0      #003=ASF$BUILD_FORM File=ASB$BUILD_DEFAULT_FILES.:E05TSI           TUE 07/29/97 08:58 Page:266
     19235**DCL     19238--REDEF
AS_USERS_CONSTANT.BUDGET.PACCUM
     19218**DCL     19220--REDEF
AS_USERS_CONSTANT.BUDGET.PMAXC
     19213**DCL     19215--REDEF
AS_USERS_CONSTANT.SETUP_CHRA.TXT
     19333**DCL     19334--REDEF   19335--REDEF
BNR$ IN PROCEDURE REVERSE_BANNER_TEXT
     23175**DCL     23189<<ASSIGN  23190>>ASSIGN  23193>>IF      23195>>ASSIGN  23195>>ASSIGN  23196>>ASSIGN
     23207>>IF      23210>>ASSIGN  23214>>ASSIGN  23221>>ASSIGN  23222>>ASSIGN  23228>>ASSIGN  23229>>ASSIGN
BOUND
     22819**DCL     22820--IMP-SIZ 22970<<ASSIGN  22971>>ASSIGN  22971>>ASSIGN  22972>>ASSIGN  22973<<ASSIGN
     22974>>ASSIGN  22974>>ASSIGN  22978<<ASSIGN  22979>>ASSIGN  22982<>CALL    22994<<ASSIGN  22995>>ASSIGN
     22997<>CALL    23004<<ASSIGN  23005>>ASSIGN  23005>>ASSIGN  23008<<ASSIGN  23009>>ASSIGN  23012<>CALL
CHARS
     22820**DCL     22971<<ASSIGN  22971>>ASSIGN  22974<<ASSIGN  22974>>ASSIGN  23005<<ASSIGN  23005>>ASSIGN
CHARSET
     22741**DCL     23033--ASSIGN  23074--ASSIGN  23110--ASSIGN
CHARSET.ATTRS
     22753**DCL     23037>>ASSIGN  23078>>ASSIGN  23126>>DOUNTIL 23168>>ASSIGN
CHARSET.CHAINIMAGE
     22752**DCL     23038>>ASSIGN  23169>>ASSIGN
CHARSET.LGLTYPS
     22754**DCL     23036>>ASSIGN  23077>>ASSIGN  23167>>ASSIGN
CHARSET.SETS
     22742**DCL     22752--REDEF
CHARSET$
     22817**DCL     22741--IMP-PTR 22979<<ASSIGN  22995<<ASSIGN  23009<<ASSIGN  23034<>CALL    23036>>ASSIGN
     23037>>ASSIGN  23038>>ASSIGN  23075<>CALL    23077>>ASSIGN  23078>>ASSIGN  23126>>DOUNTIL 23127<>CALL
     23133<>CALL    23167>>ASSIGN  23168>>ASSIGN  23169>>ASSIGN
CHRTEXT IN PROCEDURE REVERSE_BANNER_TEXT
     23187**DCL     23216>>ASSIGN  23235<<ASSIGN
ENTRIES IN PROCEDURE REVERSE_BANNER_TEXT
     23178**DCL     23190<<ASSIGN  23192>>DOINDEX 23197>>ASSIGN  23206>>DOINDEX
ERR_CODE
     17907**DCL     17908--REDEF
PL6.E3A0      #003=ASF$BUILD_FORM File=ASB$BUILD_DEFAULT_FILES.:E05TSI           TUE 07/29/97 08:58 Page:267
F IN PROCEDURE REVERSE_BANNER_TEXT
     23184**DCL     23214<<ASSIGN  23216>>ASSIGN
FIRST IN PROCEDURE REVERSE_BANNER_TEXT
     23182**DCL     23204<<ASSIGN
FREE_MEM
     22797**DCL     23013<>CALL
FREE_MEM.V
     22797**DCL     22797--DCLINIT
FS$BANNER.CHARGE
     21488**DCL     21489--REDEF
FS$BANNER.ENTRIES.COUNT
     21509**DCL     21510--REDEF   23210>>ASSIGN  23222>>ASSIGN  23229>>ASSIGN
FS$BANNER.ENTRIES.DISP
     21505**DCL     21506--REDEF   23195>>ASSIGN  23196>>ASSIGN  23214>>ASSIGN  23221<<ASSIGN  23228<<ASSIGN
FS$BANNER.ENTRIES.TYPE
     21504**DCL     23193>>IF      23207>>IF
FS$BANNER.NUM_ENTRIES
     21494**DCL     23190>>ASSIGN
FS$FORM.CHAINS
     21600**DCL     21610--REDEF
FS$FORMREC
     22671**DCL     22968<<ASSIGN  23002<<ASSIGN
FS$FORMREC.ATTR
     22694**DCL     23037<<ASSIGN  23168<<ASSIGN
FS$FORMREC.BANRDISP
     22676**DCL     22976<<ASSIGN  23007<<ASSIGN  23189>>ASSIGN
FS$FORMREC.CHAINIMAGE
     22729**DCL     23038<<ASSIGN  23169<<ASSIGN
FS$FORMREC.CHAINS
     22719**DCL     22729--REDEF
FS$FORMREC.CHAIN_NAME
     22718**DCL     23039<<ASSIGN  23170<<ASSIGN
FS$FORMREC.FNAME
     22672**DCL     23031>>IF      23072>>IF      23108>>IF
FS$FORMREC.LGLTYPS
     22687**DCL     23036<<ASSIGN  23167<<ASSIGN
PL6.E3A0      #003=ASF$BUILD_FORM File=ASB$BUILD_DEFAULT_FILES.:E05TSI           TUE 07/29/97 08:58 Page:268
FS$FORMREC.SETUPDISP
     22674**DCL     22977<<ASSIGN
FS$GFORMREC
     21352**DCL     22987<<ASSIGN
FS$GFORMREC.ATTR
     21375**DCL     23078<<ASSIGN  23079<<ASSIGN  23079>>ASSIGN  23080<<ASSIGN  23080>>ASSIGN
FS$GFORMREC.GRAPHIC
     21361**DCL     22988<<ASSIGN
FS$GFORMREC.LGLTYPS
     21368**DCL     23077<<ASSIGN
FS$GFORMREC.SET_DEV_LIM
     21383**DCL     21400--REDEF
FS$GFORMREC.SET_DEV_LIM.X_SIZE
     21387**DCL     22992<<ASSIGN
FS$GFORMREC.SET_DEV_LIM.Y_SIZE
     21388**DCL     22993<<ASSIGN
FS$GFORMREC.TRANSLGL
     21360**DCL     22989<<ASSIGN
FS$GFORMREC.X_SIZE
     21377**DCL     22990<<ASSIGN
FS$GFORMREC.Y_SIZE
     21378**DCL     22991<<ASSIGN
GET_CONFIGS_LP01_ATTRS
     21272**DCL-ENT 23111--CALL
GET_MEM
     22778**DCL     22960<>CALL
GET_MEM.V
     22778**DCL     22778--DCLINIT
GO_ON IN PROCEDURE INSERT_CHARSET
     23114**LABEL   23118--CALLALT
I IN PROCEDURE REVERSE_BANNER_TEXT
     23180**DCL     23192<<DOINDEX 23193>>IF      23195>>ASSIGN  23196>>ASSIGN  23197<<ASSIGN  23206<<DOINDEX
     23207>>IF      23210>>ASSIGN  23214>>ASSIGN  23221>>ASSIGN  23222>>ASSIGN  23228>>ASSIGN  23229>>ASSIGN
INSERT_CHARSET
     23027**PROC    22980--CALL    22996--CALL    23010--CALL
J IN PROCEDURE REVERSE_BANNER_TEXT
PL6.E3A0      #003=ASF$BUILD_FORM File=ASB$BUILD_DEFAULT_FILES.:E05TSI           TUE 07/29/97 08:58 Page:269
     23181**DCL     23202<<ASSIGN  23216>>ASSIGN  23217<<ASSIGN  23217>>ASSIGN  23234<<ASSIGN  23234>>ASSIGN
     23235>>ASSIGN  23235>>ASSIGN
KEY_513
     22956**DCL     23034<>CALL
KEY_600
     22929**DCL     23075<>CALL    23132>>ASSIGN  23133<>CALL
KL_DEFAULT.PASSWORD
     20523**DCL     20527--REDEF
KL_DEFAULT.RENAME
     20546**DCL     20547--REDEF
KL_DFLT.PASSWORD
     19713**DCL     19717--REDEF
KL_DFLT.RENAME
     19736**DCL     19737--REDEF
KL_DREC.PASSWORD
     19551**DCL     19555--REDEF
KL_DREC.RENAME
     19574**DCL     19575--REDEF
KL_DREC_CNT.PASSWORD
     19438**DCL     19442--REDEF
KL_DREC_CNT.RENAME
     19461**DCL     19462--REDEF
L IN PROCEDURE REVERSE_BANNER_TEXT
     23185**DCL     23210<<ASSIGN  23211>>DOWHILE 23212<<ASSIGN  23212>>ASSIGN  23216>>ASSIGN  23216>>ASSIGN
     23217>>ASSIGN
LAST IN PROCEDURE REVERSE_BANNER_TEXT
     23183**DCL     23203<<ASSIGN  23219>>IF      23222<<ASSIGN  23225>>DOWHILE 23226<<ASSIGN  23226>>ASSIGN
     23228>>ASSIGN  23229<<ASSIGN  23229>>ASSIGN
LP_ATTRS IN PROCEDURE INSERT_CHARSET
     23029**DCL     23111<>CALL    23126>>DOUNTIL
M$FDS
      6580**DCL-ENT 23013--CALL
M$GDS
      6580**DCL-ENT 22960--CALL
M$XXX
      6557**DCL-ENT 22962--CALL    23015--CALL
PL6.E3A0      #003=ASF$BUILD_FORM File=ASB$BUILD_DEFAULT_FILES.:E05TSI           TUE 07/29/97 08:58 Page:270
MEM_VEC
     22812**DCL     22778--DCLINIT 22797--DCLINIT
MEM_VEC.PTR$
     22814**DCL     22967>>ASSIGN  22975>>ASSIGN  22986>>ASSIGN  23001>>ASSIGN  23006>>ASSIGN
MEM_VEC.W2
     22813**DCL     22814--REDEF
MERR_CODE.CODE
     17908**DCL     23042>>IF      23083>>IF      23135>>IF
MODIFIER IN PROCEDURE REVERSE_BANNER_TEXT
     23186**DCL     23196<<ASSIGN  23214>>ASSIGN  23221>>ASSIGN  23228>>ASSIGN
PROJ_KEY.TEXT
     17785**DCL     17785--REDEF
PROJ_KEY.TXT.PROJECT
     17785**DCL     17785--REDEF
PTR$
     22816**DCL     21352--IMP-PTR 22671--IMP-PTR 22967<<ASSIGN  22968>>ASSIGN  22969<<ASSIGN  22969>>ASSIGN
     22971>>ASSIGN  22972<<ASSIGN  22972>>ASSIGN  22974>>ASSIGN  22975<<ASSIGN  22976>>ASSIGN  22977>>ASSIGN
     22979>>ASSIGN  22982<>CALL    22986<<ASSIGN  22987>>ASSIGN  22988>>ASSIGN  22989>>ASSIGN  22990>>ASSIGN
     22991>>ASSIGN  22992>>ASSIGN  22993>>ASSIGN  22995>>ASSIGN  22997<>CALL    23001<<ASSIGN  23002>>ASSIGN
     23003<<ASSIGN  23003>>ASSIGN  23005>>ASSIGN  23006<<ASSIGN  23007>>ASSIGN  23009>>ASSIGN  23012<>CALL
     23031>>IF      23036>>ASSIGN  23037>>ASSIGN  23038>>ASSIGN  23039>>ASSIGN  23072>>IF      23077>>ASSIGN
     23078>>ASSIGN  23079>>ASSIGN  23079>>ASSIGN  23080>>ASSIGN  23080>>ASSIGN  23108>>IF      23167>>ASSIGN
     23168>>ASSIGN  23169>>ASSIGN  23170>>ASSIGN  23189>>ASSIGN  23189>>ASSIGN
P_PCB.ERROR
     18044**DCL     23067<>CALL    23103<>CALL    23161<>CALL
REMEM_VAR
     17911**DCL     17911--REDEF
REM_FCMD
     17911**DCL     17912--REDEF
REVERSE_BANNER_TEXT
     23174**PROC    22981--CALL    23011--CALL
SETUPSTDLP
     22637**DCL     22973--ASSIGN  22974--ASSIGN  22978--ASSIGN
SPARE IN PROCEDURE REVERSE_BANNER_TEXT
     23176**DCL     23205<<ASSIGN  23216<<ASSIGN  23235>>ASSIGN
STDGR
PL6.E3A0      #003=ASF$BUILD_FORM File=ASB$BUILD_DEFAULT_FILES.:E05TSI           TUE 07/29/97 08:58 Page:271
     21292**DCL     22987>>ASSIGN  22994--ASSIGN
STDGR.SET_DEV_LIM
     21323**DCL     21340--REDEF
STDLP
     21422**DCL     22968>>ASSIGN  22969--ASSIGN  22976--ASSIGN  22977--ASSIGN  22978--ASSIGN
STDLP.CHAINS
     21470**DCL     21480--REDEF
STDLP_BAN
     21648**DCL     22970--ASSIGN  22971--ASSIGN  22977--ASSIGN  22978--ASSIGN
STDLP_BAN.CHARGE
     21649**DCL     21650--REDEF
STDLP_BAN.ENTRIES.DISP
     22165**DCL     22166--REDEF
STDXX
     22190**DCL     23002>>ASSIGN  23003--ASSIGN  23007--ASSIGN  23008--ASSIGN
STDXX.CHAINS
     22238**DCL     22248--REDEF
STDXX_BAN
     22286**DCL     23004--ASSIGN  23005--ASSIGN  23008--ASSIGN
STDXX_BAN.CHARGE
     22287**DCL     22288--REDEF
STDXX_BAN.ENTRIES.DISP
     22618**DCL     22619--REDEF
STGR
     22875**DCL     22997<>CALL    23085>>ASSIGN
STLP
     22848**DCL     22982<>CALL    23143>>ASSIGN
STXX
     22902**DCL     23012<>CALL
TEXT$ IN PROCEDURE REVERSE_BANNER_TEXT
     23179**DCL     23195<<ASSIGN  23216>>ASSIGN  23235>>ASSIGN
USERS_KEY
     17782**DCL     23118<>CALL    23127<>CALL    23132<<ASSIGN
USERS_KEY.COUNT
     17782**DCL     23113<<ASSIGN  23170>>ASSIGN
USERS_KEY.TEXT
PL6.E3A0      #003=ASF$BUILD_FORM File=ASB$BUILD_DEFAULT_FILES.:E05TSI           TUE 07/29/97 08:58 Page:272
     17782**DCL     17783--REDEF   17783--REDEF   17783--REDEF   17784--REDEF
USERS_KEY.TXTC
     17783**DCL     23114<<ASSIGN  23170>>ASSIGN
USE_600 IN PROCEDURE INSERT_CHARSET
     23127**LABEL   23127--CALLALT

PL6.E3A0      #004=ASW$BUILD_WSN File=ASB$BUILD_DEFAULT_FILES.:E05TSI            TUE 07/29/97 09:02 Page:273
     1194        1        /*T***********************************************************/
     1195        2        /*T*                                                         */
     1196        3        /*T* Copyright (c) Bull HN Information Systems Inc., 1997    */
     1197        4        /*T*                                                         */
     1198        5        /*T***********************************************************/
     1199        6        %EJECT;
PL6.E3A0      #004=ASW$BUILD_WSN File=ASB$BUILD_DEFAULT_FILES.:E05TSI            TUE 07/29/97 09:02 Page:274
     1200        7        ASW$BUILD_WSN: PROC ALTRET ;
     1201        8        %EJECT;
PL6.E3A0      #004=ASW$BUILD_WSN File=ASB$BUILD_DEFAULT_FILES.:E05TSI            TUE 07/29/97 09:02 Page:275
     1202        9        /*********************************************************************/
     1203       10        /*   Include files   include files   include files   include files   */
     1204       11        /*********************************************************************/
     1205       12                                                                                      /**/
     1206       13              %INCLUDE AS_PERR_C ;
     1207      615              %INCLUDE AS_ENTRIES_M ;
     1208     1665              %INCLUDE AS_SUPER_C ;
     1209     2100              %INCLUDE AS_SUBS_C ;
     1210     3514              %INCLUDE AS_MAC_C ;
     1211     3594              %INCLUDE KL_SUPER_C ;
     1212     6496              %INCLUDE XU_MACRO_C ;
     1213     9602              %INCLUDE XU_FORMAT_C ;
     1214     9764              %INCLUDE AS_SUPER_R ;
     1215    12780                                                                                      /**/
     1216    12781        %EJECT;
PL6.E3A0      #004=ASW$BUILD_WSN File=ASB$BUILD_DEFAULT_FILES.:E05TSI            TUE 07/29/97 09:02 Page:276
     1217    12782        /*********************************************************************/
     1218    12783        /*   Entries         entries         entries         entries         */
     1219    12784        /*********************************************************************/
     1220    12785                                                              /**/
     1221    12786        %ASW$OPEN_WSN_CR ;
     1222    12789        %ASW$CLOSE_WSN ;
     1223    12792        %ASH$ERROR ;
     1224    12795        %EJECT;
PL6.E3A0      #004=ASW$BUILD_WSN File=ASB$BUILD_DEFAULT_FILES.:E05TSI            TUE 07/29/97 09:02 Page:277
     1225    12796        /********************************************************************/
     1226    12797        /*   Procedure       procedure       procedure       procedure       */
     1227    12798        /*********************************************************************/
     1228    12799                                                              /**/
     1229    12800    2   CALL ASW$OPEN_WSN_CR WHENALTRETURN DO;
     1230    12801        /*E*  ERROR:    ASW-E$WSNOPENCRERR-C
     1231    12802              MESSAGE:  Unable to open :WSN, mode=CREATE.
     1232    12803        */
     1233    12804           %SCREAM( ERR#=E$WSNOPENCRERR, LEVEL=ERROR, MID='W' );
     1234    12819    2      RETURN;
     1235    12820    2      END ;
     1236    12821    1   CALL ASW$CLOSE_WSN ;
     1237    12822    1   RETURN ;
     1238    12823                                                              /**/
     1239    12824    1   END   ASW$BUILD_WSN ;

PL6.E3A0      #004=ASW$BUILD_WSN File=ASB$BUILD_DEFAULT_FILES.:E05TSI            TUE 07/29/97 09:02 Page:278
--  Include file information  --

   AS_SUPER_R.:E05TOU  cannot be made into a system file and is referenced.
   XU_FORMAT_C.:E05TOU  is referenced.
   XU_MACRO_C.:E05TOU  is referenced.
   KL_SUPER_C.:E05TOU  is referenced.
   AS_MAC_C.:E05TOU  cannot be made into a system file and is referenced.
   AS_SUBS_C.:E05TOU  is referenced.
   AS_SUPER_C.:E05TOU  is referenced.
   AS_ENTRIES_M.:E05TOU  is referenced.
   AS_PERR_C.:E05TOU  is referenced.
      No diagnostics issued in procedure ASW$BUILD_WSN.

   Procedure ASW$BUILD_WSN requires 15 words for executable code.
   Procedure ASW$BUILD_WSN requires 4 words of local(AUTO) storage.

    No errors detected in file ASB$BUILD_DEFAULT_FILES.:E05TSI    .

PL6.E3A0      #004=ASW$BUILD_WSN File=ASB$BUILD_DEFAULT_FILES.:E05TSI            TUE 07/29/97 09:02 Page:279

 Object Unit name= ASW$BUILD_WSN                              File name= ASB$BUILD_DEFAULT_FILES.:E05TOU
 UTS= JUL 29 '97 09:02:25.32 TUE                              Compiler= PL-6/E31         Sev=      00
 SharedLib= :SHARED_SYSTEM                                    Alt SharedLib=


    ****  Control sections  ****

 Sect   Type Bound  Init  Size OctSiz  Section name(segment info)
    0   DCB   even  none     0      0  M$LO
    1  RoData even  UTS      1      1  ASW$BUILD_WSN
    2   Proc  even  none    15     17  ASW$BUILD_WSN
    3  RoData even  none     1      1  ASW$BUILD_WSN

    ****  Entry defs  ****

                              Check   Calling
                             calling  sequence
  Sect OctLoc Primary Altret sequence   type   Parms  Name
     2      0   yes    yes     yes      Std        0  ASW$BUILD_WSN

  ****  Entry refs  ****

         Check        Calling
        calling       sequence
Altret sequence SRef   type   Args  Name
         yes          ~proc      0 XU_OUTPUT_OPTIONS
 yes     yes           Std       0 ASW$OPEN_WSN_CR
 yes     yes           Std       0 ASW$CLOSE_WSN
         yes           Std       2 ASH$ERROR
                       nStd      0 X66_AUTO_0
                       Std       0 B_CONSPOOL_D
                       nStd      0 X66_ARET
PL6.E3A0      #004=ASW$BUILD_WSN File=ASB$BUILD_DEFAULT_FILES.:E05TSI            TUE 07/29/97 09:02 Page:280

  ****  Data refs  ****

  Flags:  r = read only, s = secondary
Flgs Name                             Flgs Name                             Flgs Name
r    AS_MODE                          r    AS_FE_MODE                            M$LO
     ERR_CODE                              REMEM_VAR                             REM_FCMD
     ASA_BRKS_LOC                          B_VECTNIL

  ****  Segment refs  ****

  Flags:  r = read only, s = secondary
Flgs Name                             Flgs Name                             Flgs Name
     ISSID
PL6.E3A0      #004=ASW$BUILD_WSN File=ASB$BUILD_DEFAULT_FILES.:E05TSI            TUE 07/29/97 09:02 Page:281


     1194        1        /*T***********************************************************/
     1195        2        /*T*                                                         */
     1196        3        /*T* Copyright (c) Bull HN Information Systems Inc., 1997    */
     1197        4        /*T*                                                         */
     1198        5        /*T***********************************************************/
     1199        6        %EJECT;
PL6.E3A0      #004=ASW$BUILD_WSN File=ASB$BUILD_DEFAULT_FILES.:E05TSI            TUE 07/29/97 09:02 Page:282
     1200        7        ASW$BUILD_WSN: PROC ALTRET ;

      7  2 000000   000000 700200 xent  ASW$BUILD_W* TSX0  ! X66_AUTO_0
         2 000001   000004 000000                    ZERO    4,0

     1201        8        %EJECT;
PL6.E3A0      #004=ASW$BUILD_WSN File=ASB$BUILD_DEFAULT_FILES.:E05TSI            TUE 07/29/97 09:02 Page:283
     1202        9        /*********************************************************************/
     1203       10        /*   Include files   include files   include files   include files   */
     1204       11        /*********************************************************************/
     1205       12                                                                                      /**/
     1206       13              %INCLUDE AS_PERR_C ;
     1207      615              %INCLUDE AS_ENTRIES_M ;
     1208     1665              %INCLUDE AS_SUPER_C ;
     1209     2100              %INCLUDE AS_SUBS_C ;
     1210     3514              %INCLUDE AS_MAC_C ;
     1211     3594              %INCLUDE KL_SUPER_C ;
     1212     6496              %INCLUDE XU_MACRO_C ;
     1213     9602              %INCLUDE XU_FORMAT_C ;
     1214     9764              %INCLUDE AS_SUPER_R ;
     1215    12780                                                                                      /**/
     1216    12781        %EJECT;
PL6.E3A0      #004=ASW$BUILD_WSN File=ASB$BUILD_DEFAULT_FILES.:E05TSI            TUE 07/29/97 09:02 Page:284
     1217    12782        /*********************************************************************/
     1218    12783        /*   Entries         entries         entries         entries         */
     1219    12784        /*********************************************************************/
     1220    12785                                                              /**/
     1221    12786        %ASW$OPEN_WSN_CR ;
     1222    12789        %ASW$CLOSE_WSN ;
     1223    12792        %ASH$ERROR ;
     1224    12795        %EJECT;
PL6.E3A0      #004=ASW$BUILD_WSN File=ASB$BUILD_DEFAULT_FILES.:E05TSI            TUE 07/29/97 09:02 Page:285
     1225    12796        /********************************************************************/
     1226    12797        /*   Procedure       procedure       procedure       procedure       */
     1227    12798        /*********************************************************************/
     1228    12799                                                              /**/
     1229    12800    2   CALL ASW$OPEN_WSN_CR WHENALTRETURN DO;

  12800  2 000002   000002 631400 xsym               EPPR1   B_VECTNIL+2
         2 000003   000000 701000 xent               TSX1    ASW$OPEN_WSN_CR
         2 000004   000006 702000 2                  TSX2    s:12816
         2 000005   000013 710000 2                  TRA     s:12821

     1230    12801        /*E*  ERROR:    ASW-E$WSNOPENCRERR-C
     1231    12802              MESSAGE:  Unable to open :WSN, mode=CREATE.
     1232    12803        */
     1233    12804           %SCREAM( ERR#=E$WSNOPENCRERR, LEVEL=ERROR, MID='W' );

  12816  2 000006   000000 630400 3                  EPPR0   0
         2 000007   000017 631400 xsym               EPPR1   B_VECTNIL+15
         2 000010   000000 701000 xent               TSX1    ASH$ERROR
         2 000011   000000 011000                    NOP     0

     1234    12819    2      RETURN;

  12819  2 000012   000000 702200 xent               TSX2  ! X66_ARET

     1235    12820    2      END ;
     1236    12821    1   CALL ASW$CLOSE_WSN ;

  12821  2 000013   000002 631400 xsym               EPPR1   B_VECTNIL+2
         2 000014   000000 701000 xent               TSX1    ASW$CLOSE_WSN
         2 000015   000000 011000                    NOP     0

     1237    12822    1   RETURN ;

  12822  2 000016   000000 702200 xent               TSX2  ! X66_ARET
     1238    12823                                                              /**/
     1239    12824    1   END   ASW$BUILD_WSN ;
PL6.E3A0      #004=ASW$BUILD_WSN File=ASB$BUILD_DEFAULT_FILES.:E05TSI            TUE 07/29/97 09:02 Page:286

PL6.E3A0      #004=ASW$BUILD_WSN File=ASB$BUILD_DEFAULT_FILES.:E05TSI            TUE 07/29/97 09:02 Page:287
--  Include file information  --

   AS_SUPER_R.:E05TOU  cannot be made into a system file and is referenced.
   XU_FORMAT_C.:E05TOU  is referenced.
   XU_MACRO_C.:E05TOU  is referenced.
   KL_SUPER_C.:E05TOU  is referenced.
   AS_MAC_C.:E05TOU  cannot be made into a system file and is referenced.
   AS_SUBS_C.:E05TOU  is referenced.
   AS_SUPER_C.:E05TOU  is referenced.
   AS_ENTRIES_M.:E05TOU  is referenced.
   AS_PERR_C.:E05TOU  is referenced.
      No diagnostics issued in procedure ASW$BUILD_WSN.
PL6.E3A0      #004=ASW$BUILD_WSN File=ASB$BUILD_DEFAULT_FILES.:E05TSI            TUE 07/29/97 09:02 Page:288

 **** Variables and constants ****


   Procedure ASW$BUILD_WSN requires 15 words for executable code.
   Procedure ASW$BUILD_WSN requires 4 words of local(AUTO) storage.

    No errors detected in file ASB$BUILD_DEFAULT_FILES.:E05TSI    .
PL6.E3A0      #004=ASW$BUILD_WSN File=ASB$BUILD_DEFAULT_FILES.:E05TSI            TUE 07/29/97 09:02 Page:289
          *** CROSS REFERENCE LISTING ***
**     DENOTES     IDENTIFIER DEFINITION
<<                 IDENTIFIER'S VALUE SET
>>                 IDENTIFIER'S VALUE USED
<>                 IDENTIFIER SET AND/OR USED
--                 IDENTIFIER REFERENCED
PL6.E3A0      #004=ASW$BUILD_WSN File=ASB$BUILD_DEFAULT_FILES.:E05TSI            TUE 07/29/97 09:02 Page:290
          MINI XREF LISTING

ASA_BRKS_LOC
      9928**DCL      9928--REDEF
ASH$ERROR
     12793**DCL-ENT 12816--CALL
ASW$CLOSE_WSN
     12790**DCL-ENT 12821--CALL
ASW$OPEN_WSN_CR
     12787**DCL-ENT 12800--CALL
AS_DEFAULT.BANNER_PERM
     10621**DCL     10622--REDEF
AS_DEFAULT.BUDGET.MACCT
     10526**DCL     10530--REDEF
AS_DEFAULT.BUDGET.MAX_PROJECTS
     10539**DCL     10542--REDEF
AS_DEFAULT.BUDGET.PACCUM
     10522**DCL     10524--REDEF
AS_DEFAULT.BUDGET.PMAXC
     10517**DCL     10519--REDEF
AS_DEFAULT.SETUP_CHRA.TXT
     10637**DCL     10638--REDEF   10639--REDEF
AS_DEFAULT_DREC.PASSWORD
     11891**DCL     11895--REDEF
AS_DEFAULT_DREC.RENAME
     11914**DCL     11915--REDEF
AS_DFLT.BANNER_PERM
     10443**DCL     10444--REDEF
AS_DFLT.BUDGET.MACCT
     10348**DCL     10352--REDEF
AS_DFLT.BUDGET.MAX_PROJECTS
     10361**DCL     10364--REDEF
AS_DFLT.BUDGET.PACCUM
     10344**DCL     10346--REDEF
PL6.E3A0      #004=ASW$BUILD_WSN File=ASB$BUILD_DEFAULT_FILES.:E05TSI            TUE 07/29/97 09:02 Page:291
AS_DFLT.BUDGET.PMAXC
     10339**DCL     10341--REDEF
AS_DFLT.SETUP_CHRA.TXT
     10459**DCL     10460--REDEF   10461--REDEF
AS_FE_MODE
      9794**DCL      9795--REDEF
AS_MODE
      9791**DCL      9793--REDEF
AS_MOD_USER.ACCESS
     12656**DCL     12657--REDEF
AS_MOD_USER.BANNER
     12643**DCL     12644--REDEF
AS_MOD_USER.BANNER_PERM
     12645**DCL     12646--REDEF
AS_MOD_USER.BILL
     12651**DCL     12652--REDEF
AS_MOD_USER.CPROC
     12647**DCL     12648--REDEF
AS_MOD_USER.FEBILL
     12727**DCL     12728--REDEF
AS_MOD_USER.FECXTMEM
     12744**DCL     12745--REDEF
AS_MOD_USER.FEMINTS
     12729**DCL     12730--REDEF
AS_MOD_USER.FEMMEM
     12740**DCL     12741--REDEF
AS_MOD_USER.FEMTIME
     12738**DCL     12739--REDEF
AS_MOD_USER.FEPPRIV
     12735**DCL     12737--REDEF
AS_MOD_USER.FEPRIV
     12732**DCL     12734--REDEF
AS_MOD_USER.FORCE_BIT
     12641**DCL     12642--REDEF
AS_MOD_USER.KEY
     12723**DCL     12725--REDEF
PL6.E3A0      #004=ASW$BUILD_WSN File=ASB$BUILD_DEFAULT_FILES.:E05TSI            TUE 07/29/97 09:02 Page:292
AS_MOD_USER.LASTCPROC
     12649**DCL     12650--REDEF
AS_MOD_USER.LIMITS.DO_
     12697**DCL     12698--REDEF
AS_MOD_USER.LIMITS.FPOOLS
     12713**DCL     12714--REDEF
AS_MOD_USER.LIMITS.LO
     12693**DCL     12694--REDEF
AS_MOD_USER.LIMITS.MEM
     12689**DCL     12690--REDEF
AS_MOD_USER.LIMITS.MPRIO
     12717**DCL     12718--REDEF
AS_MOD_USER.LIMITS.PDIS
     12705**DCL     12706--REDEF
AS_MOD_USER.LIMITS.PO
     12701**DCL     12702--REDEF
AS_MOD_USER.LIMITS.TDIS
     12709**DCL     12710--REDEF
AS_MOD_USER.LIMITS.TIME
     12685**DCL     12686--REDEF
AS_MOD_USER.MAXENQ
     12666**DCL     12667--REDEF
AS_MOD_USER.PERM_BIT
     12639**DCL     12640--REDEF
AS_MOD_USER.PPRIV
     12661**DCL     12663--REDEF
AS_MOD_USER.PRIOB
     12668**DCL     12669--REDEF
AS_MOD_USER.PRIV
     12658**DCL     12660--REDEF
AS_MOD_USER.QUAN
     12664**DCL     12665--REDEF
AS_MOD_USER.SETUP
     12637**DCL     12638--REDEF
AS_PROJECT.BANNER_PERM
     10977**DCL     10978--REDEF
PL6.E3A0      #004=ASW$BUILD_WSN File=ASB$BUILD_DEFAULT_FILES.:E05TSI            TUE 07/29/97 09:02 Page:293
AS_PROJECT.BUDGET.MACCT
     10882**DCL     10886--REDEF
AS_PROJECT.BUDGET.MAX_PROJECTS
     10895**DCL     10898--REDEF
AS_PROJECT.BUDGET.PACCUM
     10878**DCL     10880--REDEF
AS_PROJECT.BUDGET.PMAXC
     10873**DCL     10875--REDEF
AS_PROJECT.SETUP_CHRA.TXT
     10993**DCL     10994--REDEF   10995--REDEF
AS_PROJECT_DFLT.BANNER_PERM
     11155**DCL     11156--REDEF
AS_PROJECT_DFLT.BUDGET.MACCT
     11060**DCL     11064--REDEF
AS_PROJECT_DFLT.BUDGET.MAX_PROJECTS
     11073**DCL     11076--REDEF
AS_PROJECT_DFLT.BUDGET.PACCUM
     11056**DCL     11058--REDEF
AS_PROJECT_DFLT.BUDGET.PMAXC
     11051**DCL     11053--REDEF
AS_PROJECT_DFLT.SETUP_CHRA.TXT
     11171**DCL     11172--REDEF   11173--REDEF
AS_PROJECT_DFLT_DREC.PASSWORD
     12377**DCL     12381--REDEF
AS_PROJECT_DFLT_DREC.RENAME
     12400**DCL     12401--REDEF
AS_PROJECT_DREC.PASSWORD
     12215**DCL     12219--REDEF
AS_PROJECT_DREC.RENAME
     12238**DCL     12239--REDEF
AS_PROJ_ADMIN.BANNER_PERM
     10799**DCL     10800--REDEF
AS_PROJ_ADMIN.BUDGET.MACCT
     10704**DCL     10708--REDEF
AS_PROJ_ADMIN.BUDGET.MAX_PROJECTS
     10717**DCL     10720--REDEF
PL6.E3A0      #004=ASW$BUILD_WSN File=ASB$BUILD_DEFAULT_FILES.:E05TSI            TUE 07/29/97 09:02 Page:294
AS_PROJ_ADMIN.BUDGET.PACCUM
     10700**DCL     10702--REDEF
AS_PROJ_ADMIN.BUDGET.PMAXC
     10695**DCL     10697--REDEF
AS_PROJ_ADMIN.SETUP_CHRA.TXT
     10815**DCL     10816--REDEF   10817--REDEF
AS_PROJ_ADMIN_DREC.PASSWORD
     12053**DCL     12057--REDEF
AS_PROJ_ADMIN_DREC.RENAME
     12076**DCL     12077--REDEF
AS_USERS.BANNER_PERM
     10265**DCL     10266--REDEF
AS_USERS.BUDGET.MACCT
     10170**DCL     10174--REDEF
AS_USERS.BUDGET.MAX_PROJECTS
     10183**DCL     10186--REDEF
AS_USERS.BUDGET.PACCUM
     10166**DCL     10168--REDEF
AS_USERS.BUDGET.PMAXC
     10161**DCL     10163--REDEF
AS_USERS.SETUP_CHRA.TXT
     10281**DCL     10282--REDEF   10283--REDEF
AS_USERS_CONSTANT.BANNER_PERM
     11333**DCL     11334--REDEF
AS_USERS_CONSTANT.BUDGET.MACCT
     11238**DCL     11242--REDEF
AS_USERS_CONSTANT.BUDGET.MAX_PROJECTS
     11251**DCL     11254--REDEF
AS_USERS_CONSTANT.BUDGET.PACCUM
     11234**DCL     11236--REDEF
AS_USERS_CONSTANT.BUDGET.PMAXC
     11229**DCL     11231--REDEF
AS_USERS_CONSTANT.SETUP_CHRA.TXT
     11349**DCL     11350--REDEF   11351--REDEF
ERR_CODE
      9923**DCL      9924--REDEF
PL6.E3A0      #004=ASW$BUILD_WSN File=ASB$BUILD_DEFAULT_FILES.:E05TSI            TUE 07/29/97 09:02 Page:295
KL_DEFAULT.PASSWORD
     12539**DCL     12543--REDEF
KL_DEFAULT.RENAME
     12562**DCL     12563--REDEF
KL_DFLT.PASSWORD
     11729**DCL     11733--REDEF
KL_DFLT.RENAME
     11752**DCL     11753--REDEF
KL_DREC.PASSWORD
     11567**DCL     11571--REDEF
KL_DREC.RENAME
     11590**DCL     11591--REDEF
KL_DREC_CNT.PASSWORD
     11454**DCL     11458--REDEF
KL_DREC_CNT.RENAME
     11477**DCL     11478--REDEF
PROJ_KEY.TEXT
      9801**DCL      9801--REDEF
PROJ_KEY.TXT.PROJECT
      9801**DCL      9801--REDEF
REMEM_VAR
      9927**DCL      9927--REDEF
REM_FCMD
      9927**DCL      9928--REDEF
USERS_KEY.TEXT
      9798**DCL      9799--REDEF    9799--REDEF    9799--REDEF    9800--REDEF
