PL6.E3A0      #009=ASB$PIG File=ASB$EXT.:E05TSI                                  TUE 07/29/97 09:06 Page:222
      867        1        /*M* ASB$PIG - module which does comgroup reads and writes to PIG. */
      868        2        /*T***********************************************************/
      869        3        /*T*                                                         */
      870        4        /*T* Copyright (c) Bull HN Information Systems Inc., 1997    */
      871        5        /*T*                                                         */
      872        6        /*T***********************************************************/
      873        7        ASB$PIG: PROC( SUPER_TO_PIG ) ALTRET;
      874        8
      875        9
      876       10        /********************************************************************/
      877       11        /*    Include files       include files       include files         */
      878       12        /********************************************************************/
      879       13
      880       14        %INCLUDE  AS_ENTRIES_M ;
      881     1064        %INCLUDE  AS_PERR_C;
      882     1666        %INCLUDE  CP_6;
      883     1747        %INCLUDE  B_ERRORS_C;
      884     2874        %INCLUDE  FX_PERR_C;
      885     2933        %INCLUDE           AS_SUPER_C  ;
      886     3368        %INCLUDE           AS_MAC_C    ;
      887     3448        %INCLUDE           AS_SUBS_C   ;
      888     4862        %INCLUDE           KL_SUPER_C  ;
      889     7764        %INCLUDE           XU_MACRO_C  ;
      890    10870        %INCLUDE           XU_FORMAT_C ;
      891    11032        %INCLUDE           AS_SUPER_R  ;
      892    14048        %LIST;
      893    14049        %SET LISTSUB='1'B;
      894    14050
      895    14051        /********************************************************************/
      896    14052        /*             Parameter = "SUPER_TO_PIG"                           */
      897    14053        /********************************************************************/
      898    14054
      899    14055        %SUPER_TO_PIG( STCLASS=" ", VARY=NO );
             14056    1   DCL 1 SUPER_TO_PIG ALIGNED ,
             14057    1          2 TYPE UBIN BYTE UNAL ,       /* Type of transaction */
             14058        %IF '1'B='1'B;
             14059        %EQU CREATE_ACCT   = 0;              /* Create an account       */
PL6.E3A0      #009=ASB$PIG File=ASB$EXT.:E05TSI                                  TUE 07/29/97 09:06 Page:223
             14060        %EQU MODIFY_ACCT   = 1;              /* Modify an account       */
             14061        %EQU LIST_ACCT     = 2;              /* List an account         */
             14062        %EQU VALIDATE_ATTR = 3;              /* Validate attribute list */
             14063        %EQU DELETE_ACCT   = 4;              /* Delete an account       */
             14064        %ENDIF;
             14065    1          2 PROJ BIT(1) UNAL,           /* '1'b => project administrator
             14066                                                '0'b => system  adminstrator */
             14067    1          2 WIDTH UBIN(8) UNAL ,       /* Width of output line */
             14068    1          2 SUPER,                      /* Project or system administrator  */
             14069    1             3 ACCT CHAR(8) UNAL ,      /* who is using super. */
             14070    1             3 UNAME CHAR(12) UNAL ,
             14071    1          2 RESUPER REDEF SUPER CHAR(20) ,
             14072    1          2 PROJECT,                    /* Name of project */
             14073    1             3 ACCT CHAR(8) UNAL,
             14074    1             3 UNAME CHAR(12) UNAL,
             14075    1          2 PROJECT_TEXT REDEF PROJECT CHAR(20),
             14076    1          2 PACKSET CHAR(6) UNAL ,      /* Packset name */
             14077    1          2 ACCT CHAR(8) UNAL ,         /* File management account */
             14078    1          2 ATTR,
             14079    1             3 COUNT UBIN HALF UNAL ,   /* Length of attribute list */
             14080        %LSET STR=CONCAT(TEXTCHAR(),'     ');
             14081        %IF (((SUBSTR(STR,0,5)='BASED') OR SUBSTR(STR,0,1)=' ') AND '0'B='1'B);
             14083        %ELSE;
             14084    1             3 LIST CHAR(4800);         /* Attribute list */
             14085        %ENDIF;
      900    14087
      901    14088        /********************************************************************/
      902    14089        /*    Fpts        fpts        fpts        fpts        fpts          */
      903    14090        /********************************************************************/
      904    14091
      905    14092        %PLIST;
      906    14093        %FPT_OPEN(
      907    14094                  FPTN = OPEN_COMGROUP ,
      908    14095                  ASN = COMGROUP,
      909    14096                  DCB = M$CSCG ,
      910    14097                  SETSTA = VLP_SETSTA,
      911    14098                  NAME = VLP_NAME ,
PL6.E3A0      #009=ASB$PIG File=ASB$EXT.:E05TSI                                  TUE 07/29/97 09:06 Page:224
      912    14099                  ACCT = FILE_ACCT ,
      913    14100                  SHARE = ALL );
      914    14209        %VLP_SETSTA(
      915    14210                  ISTATION = 'PIG' ,
      916    14211                  ILATCH = NO  ,
      917    14212                  EOFONE = NO ,
      918    14213                  EOFNONE = NO ,
      919    14214                  DIRONLY = YES ,
      920    14215                  OSTATION = 'PIG' ,
      921    14216                  OMSGTYP = 'SUPER' ,
      922    14217                  OLATCH = NO );
      923    14245        %VLP_NAME( NAME='CSCG' );
      924    14272        %FPT_WRITE( FPTN=WRITE_TO_PIG, DCB=M$CSCG );
      925    14303        %FPT_READ ( FPTN=READ_FROM_PIG, DCB=M$CSCG );
      926    14342
      927    14343        /********************************************************************/
      928    14344
      929    14345    1   DCL B$TCB$ PTR SYMREF;
      930    14346        %B$TCB;
      931    14349        %B$ALT;
      932    14357    1   DCL M$CSCG DCB;
      933    14358    1   DCL BUFFER$ PTR;
      934    14359    1   DCL I     UBIN;
      935    14360    1   DCL SIZE  UBIN;
      936    14361    1   DCL CNT UBIN;
      937    14362    1   DCL ERR UBIN;
      938    14363    1   DCL STR$ PTR;
      939    14364    1   DCL READ_OUTSTANDING BIT(1) ALIGNED STATIC INIT('0'B);
      940    14365    1   DCL 1 TXT$C BASED(STR$),
      941    14366    1          2 CNT UBIN BYTE UNAL,
      942    14367    1          2 TXT CHAR(TXT$C.CNT);
      943    14368    1   DCL 1 M_ERR_CODE ,
      944    14369    1          2 FCG_MID UBIN(18) UNAL ,
      945    14370    1          2 MON BIT(1) UNAL ,
      946    14371    1          2 CODE UBIN(14) UNAL ,
      947    14372    1          2 SEV UBIN(3) UNAL ;
      948    14373        %ASH$ERROR ;
PL6.E3A0      #009=ASB$PIG File=ASB$EXT.:E05TSI                                  TUE 07/29/97 09:06 Page:225
      949    14376        %ASH$INFO ;
      950    14379        %ASB$WRITE_LO ;
      951    14382        %ASB$FLUSH_ERR ;
      952    14385
      953    14386        /********************************************************************/
      954    14387        /*                "PIG_TO_SUPER"                                    */
      955    14388        /********************************************************************/
      956    14389
      957    14390        %LIST;
      958    14391        %SET LISTSUB='1'B;
      959    14392        %PIG_TO_SUPER( STCLASS=AUTO );
             14393    1   DCL 1 PIG_TO_SUPER AUTO ALIGNED,
             14394    1          2 ERR UBIN ,                   /* 0 => transaction ok, else error code */
             14395    1          2 COUNT UBIN HALF UNAL,
             14396        %LSET STR=CONCAT(TEXTCHAR(AUTO),'     ');
             14397        %IF ((SUBSTR(STR,0,5)='BASED') OR (SUBSTR(STR,0,1)=' '));
             14399        %ELSE;
             14400    1          2 TEXT(0:4095) CHAR(1);  /* Largest text super will accept */
             14401        %ENDIF;
      960    14403        %PLIST;
      961    14404
      962    14405
      963    14406        %EJECT;
PL6.E3A0      #009=ASB$PIG File=ASB$EXT.:E05TSI                                  TUE 07/29/97 09:06 Page:226
      964    14407        /********************************************************************/
      965    14408        /*    Procedure       procedure       procedure       procedure     */
      966    14409        /********************************************************************/
      967    14410        /*
      968    14411                              If there is a read from pig outstanding, read it.
      969    14412        */
      970    14413    1   READ_FROM_PIG.BUF_ = VECTOR( PIG_TO_SUPER );
      971    14414    2   IF READ_OUTSTANDING THEN DO;
      972    14415    3      DO INHIBIT;
      973    14416    3         CALL M$READ( READ_FROM_PIG ) ALTRET(READ_ERROR);
      974    14417    3         READ_OUTSTANDING = AS_FALSE;
      975    14418    3         END;
      976    14419    2      END;
      977    14420        /*
      978    14421                              Write message to pig
      979    14422        */
      980    14423    1   WRITE_TO_PIG.BUF_.BUF$ = ADDR( SUPER_TO_PIG );
      981    14424    1   WRITE_TO_PIG.BUF_.BOUND = SIZEC( SUPER_TO_PIG ) - SIZEC(SUPER_TO_PIG.ATTR)
      982    14425    1        + SUPER_TO_PIG.ATTR.COUNT + 1;
      983    14426    1   WRITE_REC:
      984    14427    2   DO INHIBIT;
      985    14428    2      CALL M$WRITE( WRITE_TO_PIG ) ALTRET( WRITE_ERROR );
      986    14429    2      READ_OUTSTANDING = AS_TRUE;
      987    14430    2      END;
      988    14431    2   IF '0'B THEN DO;
      989    14432        /*E*  ERROR:  ASB-E$UNABLE_TO_WRITE_TO_PIG-C
      990    14433              MESSAGE: Unable to write to PIG through the comgroup CG/%U1
      991    14434        */
      992    14435    2   WRITE_ERROR:
      993    14436    2      IF AS_WILD_USER THEN CALL ASB$FLUSH_ERR;
      994    14437    2      CALL CONCAT( AS_FIELD1.TEXT, VLP_NAME.NAME#, '.', FILE_ACCT.TXT );
      995    14438    2      AS_FIELD1.COUNT = VLP_NAME.L# + 9;
      996    14439    2      M_ERR_CODE = B$TCB$ -> B$TCB.ALT$ -> B$ALT.ERR;
      997    14440           %SCREAM( ERR#=E$UNABLE_TO_WRITE_TO_PIG, LEVEL=INFO, MID='B' );
      998    14455    2      AS_DCBNUM# = DCBNUM( M$CSCG );
      999    14456    2      CALL ASH$ERROR( M_ERR_CODE );
     1000    14457    2      ALTRETURN;
PL6.E3A0      #009=ASB$PIG File=ASB$EXT.:E05TSI                                  TUE 07/29/97 09:06 Page:227
     1001    14458    2      END;
     1002    14459        /*
     1003    14460                                  Now read from pig
     1004    14461        */
     1005    14462    1   READ_REC:
     1006    14463    2   DO INHIBIT;
     1007    14464    2      CALL M$READ( READ_FROM_PIG ) ALTRET( READ_ERROR );
     1008    14465    2      READ_OUTSTANDING = AS_FALSE;
     1009    14466    2      END;
     1010    14467    2   DO WHILE('0'B);
     1011    14468    2   READ_ERROR:
     1012    14469    2      M_ERR_CODE = B$TCB$ -> B$TCB.ALT$ -> B$ALT.ERR;
     1013    14470        /*E*  ERROR:  ASB-E$UNABLE_TO_READ_FROM_PIG-C
     1014    14471              MESSAGE: Unable to read from PIG through the comgroup CG/%U1
     1015    14472        */
     1016    14473    2      CALL CONCAT( AS_FIELD1.TEXT, VLP_NAME.NAME#, '.', FILE_ACCT.TXT );
     1017    14474    2      AS_FIELD1.COUNT = VLP_NAME.L# + 9;
     1018    14475           %SCREAM( ERR#=E$UNABLE_TO_READ_FROM_PIG, LEVEL=INFO, MID='B' );
     1019    14490    2      AS_DCBNUM# = DCBNUM( M$CSCG );
     1020    14491    2      CALL ASH$ERROR( M_ERR_CODE );
     1021    14492    2      ALTRETURN;
     1022    14493    2      END;
     1023    14494    1   ERR = PIG_TO_SUPER.ERR;
     1024    14495    2   DO SELECT( SUPER_TO_PIG.TYPE );
     1025    14496    2      SELECT( %CREATE_ACCT );
     1026    14497    2      IF ERR > 0 THEN ERR_CNT = ERR_CNT + 1;
     1027    14498    2      SELECT( %MODIFY_ACCT );
     1028    14499    3      IF ERR > 0 THEN DO;
     1029    14500    3         MERR_CODE = BINBIT( ERR, 36 );
     1030    14501    3         IF MERR_CODE.CODE = %E$NOKEY  OR  MERR_CODE.CODE = 22/*E$PROJNA*/
     1031    14502    4         THEN DO;
     1032    14503    4            SUPER_TO_PIG.TYPE = %CREATE_ACCT;
     1033    14504    4            GOTO WRITE_REC;
     1034    14505    4            END;
     1035    14506    3         IF AS_WILD_USER THEN CALL ASB$FLUSH_ERR;
     1036    14507    3         ERR_CNT = ERR_CNT + 1;
     1037    14508    3         END;
PL6.E3A0      #009=ASB$PIG File=ASB$EXT.:E05TSI                                  TUE 07/29/97 09:06 Page:228
     1038    14509    2      SELECT( %VALIDATE_ATTR );
     1039    14510    2      IF ERR = 0 THEN RETURN;
     1040    14511    2      ERR_CNT = ERR_CNT + 1;
     1041    14512    2      SELECT( %DELETE_ACCT );
     1042    14513    2      RETURN;
     1043    14514    2      END;
     1044    14515        /*
     1045    14516                                      Write the message from pig.
     1046    14517        */
     1047    14518    1   I = 0;
     1048    14519    2   DO WHILE( I < PIG_TO_SUPER.COUNT );
     1049    14520    2      STR$ = ADDR( PIG_TO_SUPER.TEXT(I) );
     1050    14521    2      OUT_BUF = TXT$C.TXT;
     1051    14522    2      CNT = TXT$C.CNT;
     1052    14523    2      IF OUT_BUF ~= ' **** COMMAND ABORTED' THEN
     1053    14524    2         CALL ASB$WRITE_LO( OUT_BUF, CNT );
     1054    14525    2      I = I + CNT + 1;
     1055    14526    2      END;
     1056    14527    1   IF ERR > 0 THEN ALTRETURN;
     1057    14528    1   RETURN;
     1058    14529
     1059    14530
     1060    14531        %EJECT;
PL6.E3A0      #009=ASB$PIG File=ASB$EXT.:E05TSI                                  TUE 07/29/97 09:06 Page:229
     1061    14532    1   ASB$OPEN_COMGROUP: ENTRY ALTRET;
     1062    14533
     1063    14534
     1064    14535    1   CALL M$OPEN( OPEN_COMGROUP ) ALTRET( OPEN_ERROR );
     1065    14536    2   DO WHILE( '0'B );
     1066    14537        /*E*  ERROR:  ASB-E$UNABLE_TO_OPEN_CSCG-C
     1067    14538              MESSAGE: Unable to open comgroup CG/%U1
     1068    14539        */
     1069    14540    2   OPEN_ERROR:
     1070    14541    2      M_ERR_CODE = B$TCB$ -> B$TCB.ALT$ -> B$ALT.ERR;
     1071    14542    2      CALL CONCAT( AS_FIELD1.TEXT, VLP_NAME.NAME#, '.', FILE_ACCT.TXT );
     1072    14543    2      AS_FIELD1.COUNT = VLP_NAME.L# + 9;
     1073    14544           %SCREAM( ERR#=E$UNABLE_TO_OPEN_CSCG, LEVEL=INFO, MID='B' );
     1074    14559    2      AS_DCBNUM# = DCBNUM( M$CSCG );
     1075    14560    2      CALL ASH$ERROR( M_ERR_CODE );
     1076    14561    2      END;
     1077    14562    1   RETURN;
     1078    14563
     1079    14564
     1080    14565
     1081    14566    1   END ASB$PIG;
     1082    14567        %EOD;

PL6.E3A0      #009=ASB$PIG File=ASB$EXT.:E05TSI                                  TUE 07/29/97 09:06 Page:230
--  Include file information  --

   AS_SUPER_R.:E05TOU  cannot be made into a system file and is referenced.
   XU_FORMAT_C.:E05TOU  is referenced.
   XU_MACRO_C.:E05TOU  is referenced.
   KL_SUPER_C.:E05TOU  is referenced.
   AS_SUBS_C.:E05TOU  is referenced.
   AS_MAC_C.:E05TOU  cannot be made into a system file and is referenced.
   AS_SUPER_C.:E05TOU  is referenced.
   FX_PERR_C.:E05TOU  is referenced.
   B_ERRORS_C.:E05TOU  is referenced.
   CP_6.:E05TOU  cannot be made into a system file and is referenced.
   AS_PERR_C.:E05TOU  is referenced.
   AS_ENTRIES_M.:E05TOU  is referenced.
   B$JIT_C.:E05TOU  was found in the system file and is never referenced.
   CP_6_C.:E05TOU  was found in the system file and is referenced.
      No diagnostics issued in procedure ASB$PIG.

   Procedure ASB$PIG requires 247 words for executable code.
   Procedure ASB$PIG requires 1040 words of local(AUTO) storage.

PL6.E3A0      #009=ASB$PIG File=ASB$EXT.:E05TSI                                  TUE 07/29/97 09:06 Page:231

 Object Unit name= ASB$PIG                                    File name= ASB$EXT.:E05TOU
 UTS= JUL 29 '97 09:06:07.44 TUE                              Compiler= PL-6/E31         Sev=      00
 SharedLib= :SHARED_SYSTEM                                    Alt SharedLib=


    ****  Control sections  ****

 Sect   Type Bound  Init  Size OctSiz  Section name(segment info)
    0   DCB   even  none     0      0  M$UC
    1   DCB   even  none     0      0  M$LO
    2   Data  even  none    99    143  ASB$PIG
    3   DCB   even  none     0      0  M$CSCG
    4  RoData even  UTS      9     11  ASB$PIG
    5   Proc  even  none   247    367  ASB$PIG
    6  RoData even  none     6      6  ASB$PIG

    ****  Entry defs  ****

                              Check   Calling
                             calling  sequence
  Sect OctLoc Primary Altret sequence   type   Parms  Name
     5      0   yes    yes     yes      Std        1  ASB$PIG
     5    322          yes     yes      Std        0  ASB$OPEN_COMGROUP
PL6.E3A0      #009=ASB$PIG File=ASB$EXT.:E05TSI                                  TUE 07/29/97 09:06 Page:232

  ****  Entry refs  ****

         Check        Calling
        calling       sequence
Altret sequence SRef   type   Args  Name
         yes          ~proc      0 XU_OUTPUT_OPTIONS
         yes           Std       2 ASB$WRITE_LO
         yes           Std       2 ASH$INFO
         yes           Std       0 ASB$FLUSH_ERR
         yes           Std       2 ASH$ERROR
                       nStd      0 X66_AUTO_1
                       Std       0 B_CONSPOOL_D
                       nStd      0 X66_AALT
                       nStd      0 X66_ARET

  ****  Data refs  ****

  Flags:  r = read only, s = secondary
Flgs Name                             Flgs Name                             Flgs Name
     M$UC                             r    AS_TRUE                          r    AS_FALSE
r    AS_MODE                          r    AS_FE_MODE                            M$LO
     OUT_BUF                               ERR_CODE                              AS_FIELD1
     REMEM_VAR                             REM_FCMD                              ASA_BRKS_LOC
     ERR_CNT                               FILE_ACCT                             AS_WILD_USER
     AS_DCBNUM#                            B$TCB$                                M$CSCG
     B_VECTNIL

  ****  Segment refs  ****

  Flags:  r = read only, s = secondary
Flgs Name                             Flgs Name                             Flgs Name
     ISSID                                 NULLSID
PL6.E3A0      #009=ASB$PIG File=ASB$EXT.:E05TSI                                  TUE 07/29/97 09:06 Page:233


      867        1        /*M* ASB$PIG - module which does comgroup reads and writes to PIG. */
      868        2        /*T***********************************************************/
      869        3        /*T*                                                         */
      870        4        /*T* Copyright (c) Bull HN Information Systems Inc., 1997    */
      871        5        /*T*                                                         */
      872        6        /*T***********************************************************/
      873        7        ASB$PIG: PROC( SUPER_TO_PIG ) ALTRET;

      7  5 000000   000000 700200 xent  ASB$PIG      TSX0  ! X66_AUTO_1
         5 000001   002020 000001                    ZERO    1040,1

      874        8
      875        9
      876       10        /********************************************************************/
      877       11        /*    Include files       include files       include files         */
      878       12        /********************************************************************/
      879       13
      880       14        %INCLUDE  AS_ENTRIES_M ;
      881     1064        %INCLUDE  AS_PERR_C;
      882     1666        %INCLUDE  CP_6;
      883     1747        %INCLUDE  B_ERRORS_C;
      884     2874        %INCLUDE  FX_PERR_C;
      885     2933        %INCLUDE           AS_SUPER_C  ;
      886     3368        %INCLUDE           AS_MAC_C    ;
      887     3448        %INCLUDE           AS_SUBS_C   ;
      888     4862        %INCLUDE           KL_SUPER_C  ;
      889     7764        %INCLUDE           XU_MACRO_C  ;
      890    10870        %INCLUDE           XU_FORMAT_C ;
      891    11032        %INCLUDE           AS_SUPER_R  ;
      892    14048        %LIST;
      893    14049        %SET LISTSUB='1'B;
      894    14050
      895    14051        /********************************************************************/
      896    14052        /*             Parameter = "SUPER_TO_PIG"                           */
      897    14053        /********************************************************************/
      898    14054
PL6.E3A0      #009=ASB$PIG File=ASB$EXT.:E05TSI                                  TUE 07/29/97 09:06 Page:234
      899    14055        %SUPER_TO_PIG( STCLASS=" ", VARY=NO );
             14056    1   DCL 1 SUPER_TO_PIG ALIGNED ,
             14057    1          2 TYPE UBIN BYTE UNAL ,       /* Type of transaction */
             14058        %IF '1'B='1'B;
             14059        %EQU CREATE_ACCT   = 0;              /* Create an account       */
             14060        %EQU MODIFY_ACCT   = 1;              /* Modify an account       */
             14061        %EQU LIST_ACCT     = 2;              /* List an account         */
             14062        %EQU VALIDATE_ATTR = 3;              /* Validate attribute list */
             14063        %EQU DELETE_ACCT   = 4;              /* Delete an account       */
             14064        %ENDIF;
             14065    1          2 PROJ BIT(1) UNAL,           /* '1'b => project administrator
             14066                                                '0'b => system  adminstrator */
             14067    1          2 WIDTH UBIN(8) UNAL ,       /* Width of output line */
             14068    1          2 SUPER,                      /* Project or system administrator  */
             14069    1             3 ACCT CHAR(8) UNAL ,      /* who is using super. */
             14070    1             3 UNAME CHAR(12) UNAL ,
             14071    1          2 RESUPER REDEF SUPER CHAR(20) ,
             14072    1          2 PROJECT,                    /* Name of project */
             14073    1             3 ACCT CHAR(8) UNAL,
             14074    1             3 UNAME CHAR(12) UNAL,
             14075    1          2 PROJECT_TEXT REDEF PROJECT CHAR(20),
             14076    1          2 PACKSET CHAR(6) UNAL ,      /* Packset name */
             14077    1          2 ACCT CHAR(8) UNAL ,         /* File management account */
             14078    1          2 ATTR,
             14079    1             3 COUNT UBIN HALF UNAL ,   /* Length of attribute list */
             14080        %LSET STR=CONCAT(TEXTCHAR(),'     ');
             14081        %IF (((SUBSTR(STR,0,5)='BASED') OR SUBSTR(STR,0,1)=' ') AND '0'B='1'B);
             14083        %ELSE;
             14084    1             3 LIST CHAR(4800);         /* Attribute list */
             14085        %ENDIF;
      900    14087
      901    14088        /********************************************************************/
      902    14089        /*    Fpts        fpts        fpts        fpts        fpts          */
      903    14090        /********************************************************************/
      904    14091
      905    14092        %PLIST;
      906    14093        %FPT_OPEN(
PL6.E3A0      #009=ASB$PIG File=ASB$EXT.:E05TSI                                  TUE 07/29/97 09:06 Page:235
      907    14094                  FPTN = OPEN_COMGROUP ,
      908    14095                  ASN = COMGROUP,
      909    14096                  DCB = M$CSCG ,
      910    14097                  SETSTA = VLP_SETSTA,
      911    14098                  NAME = VLP_NAME ,
      912    14099                  ACCT = FILE_ACCT ,
      913    14100                  SHARE = ALL );
      914    14209        %VLP_SETSTA(
      915    14210                  ISTATION = 'PIG' ,
      916    14211                  ILATCH = NO  ,
      917    14212                  EOFONE = NO ,
      918    14213                  EOFNONE = NO ,
      919    14214                  DIRONLY = YES ,
      920    14215                  OSTATION = 'PIG' ,
      921    14216                  OMSGTYP = 'SUPER' ,
      922    14217                  OLATCH = NO );
      923    14245        %VLP_NAME( NAME='CSCG' );
      924    14272        %FPT_WRITE( FPTN=WRITE_TO_PIG, DCB=M$CSCG );
      925    14303        %FPT_READ ( FPTN=READ_FROM_PIG, DCB=M$CSCG );
      926    14342
      927    14343        /********************************************************************/
      928    14344
      929    14345    1   DCL B$TCB$ PTR SYMREF;
      930    14346        %B$TCB;
      931    14349        %B$ALT;
      932    14357    1   DCL M$CSCG DCB;
      933    14358    1   DCL BUFFER$ PTR;
      934    14359    1   DCL I     UBIN;
      935    14360    1   DCL SIZE  UBIN;
      936    14361    1   DCL CNT UBIN;
      937    14362    1   DCL ERR UBIN;
      938    14363    1   DCL STR$ PTR;
      939    14364    1   DCL READ_OUTSTANDING BIT(1) ALIGNED STATIC INIT('0'B);
      940    14365    1   DCL 1 TXT$C BASED(STR$),
      941    14366    1          2 CNT UBIN BYTE UNAL,
      942    14367    1          2 TXT CHAR(TXT$C.CNT);
      943    14368    1   DCL 1 M_ERR_CODE ,
PL6.E3A0      #009=ASB$PIG File=ASB$EXT.:E05TSI                                  TUE 07/29/97 09:06 Page:236
      944    14369    1          2 FCG_MID UBIN(18) UNAL ,
      945    14370    1          2 MON BIT(1) UNAL ,
      946    14371    1          2 CODE UBIN(14) UNAL ,
      947    14372    1          2 SEV UBIN(3) UNAL ;
      948    14373        %ASH$ERROR ;
      949    14376        %ASH$INFO ;
      950    14379        %ASB$WRITE_LO ;
      951    14382        %ASB$FLUSH_ERR ;
      952    14385
      953    14386        /********************************************************************/
      954    14387        /*                "PIG_TO_SUPER"                                    */
      955    14388        /********************************************************************/
      956    14389
      957    14390        %LIST;
      958    14391        %SET LISTSUB='1'B;
      959    14392        %PIG_TO_SUPER( STCLASS=AUTO );
             14393    1   DCL 1 PIG_TO_SUPER AUTO ALIGNED,
             14394    1          2 ERR UBIN ,                   /* 0 => transaction ok, else error code */
             14395    1          2 COUNT UBIN HALF UNAL,
             14396        %LSET STR=CONCAT(TEXTCHAR(AUTO),'     ');
             14397        %IF ((SUBSTR(STR,0,5)='BASED') OR (SUBSTR(STR,0,1)=' '));
             14399        %ELSE;
             14400    1          2 TEXT(0:4095) CHAR(1);  /* Largest text super will accept */
             14401        %ENDIF;
      960    14403        %PLIST;
      961    14404
      962    14405
      963    14406        %EJECT;
PL6.E3A0      #009=ASB$PIG File=ASB$EXT.:E05TSI                                  TUE 07/29/97 09:06 Page:237
      964    14407        /********************************************************************/
      965    14408        /*    Procedure       procedure       procedure       procedure     */
      966    14409        /********************************************************************/
      967    14410        /*
      968    14411                              If there is a read from pig outstanding, read it.
      969    14412        */
      970    14413    1   READ_FROM_PIG.BUF_ = VECTOR( PIG_TO_SUPER );

  14413  5 000002   000000 235000 6                  LDA     0
         5 000003   202016 452500                    STP2    PIG_TO_SUPER+1027,,AUTO
         5 000004   202016 236100                    LDQ     PIG_TO_SUPER+1027,,AUTO
         5 000005   000013 036003                    ADLQ    11,DU
         5 000006   000130 757000 2                  STAQ    READ_FROM_PIG+4

      971    14414    2   IF READ_OUTSTANDING THEN DO;

  14414  5 000007   000142 234000 2                  SZN     READ_OUTSTANDING
         5 000010   000020 605000 5                  TPL     s:14423

      972    14415    3      DO INHIBIT;

      973    14416    3         CALL M$READ( READ_FROM_PIG ) ALTRET(READ_ERROR);

  14416  5 000011   000124 630600 2                  EPPR0 ! READ_FROM_PIG
         5 000012   440000 713600                    CLIMB ! alt,read
         5 000013   401400 401760                    pmme    nvectors=4
         5 000014   000115 702200 5                  TSX2  ! READ_ERROR

      974    14417    3         READ_OUTSTANDING = AS_FALSE;

  14417  5 000015   000000 236200 xsym               LDQ   ! AS_FALSE
         5 000016   400000 376203                    ANQ   ! -131072,DU
         5 000017   000142 756200 2                  STQ   ! READ_OUTSTANDING

      975    14418    3         END;

      976    14419    2      END;
PL6.E3A0      #009=ASB$PIG File=ASB$EXT.:E05TSI                                  TUE 07/29/97 09:06 Page:238

      977    14420        /*
      978    14421                              Write message to pig
      979    14422        */
      980    14423    1   WRITE_TO_PIG.BUF_.BUF$ = ADDR( SUPER_TO_PIG );

  14423  5 000020   200003 236100                    LDQ     @SUPER_TO_PIG,,AUTO
         5 000021   000115 756000 2                  STQ     WRITE_TO_PIG+5

      981    14424    1   WRITE_TO_PIG.BUF_.BOUND = SIZEC( SUPER_TO_PIG ) - SIZEC(SUPER_TO_PIG.ATTR)

  14424  5 000022   200003 470500                    LDP0    @SUPER_TO_PIG,,AUTO
         5 000023   000016 236100                    LDQ     14,,PR0
         5 000024   000022 772000                    QRL     18
         5 000025   000073 036007                    ADLQ    59,DL
         5 000026   000020 736000                    QLS     16
         5 000027   000114 676000 2                  ERQ     WRITE_TO_PIG+4
         5 000030   000034 376000 xsym               ANQ     B_VECTNIL+28
         5 000031   000114 656000 2                  ERSQ    WRITE_TO_PIG+4

      982    14425    1        + SUPER_TO_PIG.ATTR.COUNT + 1;
      983    14426    1   WRITE_REC:
      984    14427    2   DO INHIBIT;

  14427  5 000032                       WRITE_REC    null
      985    14428    2      CALL M$WRITE( WRITE_TO_PIG ) ALTRET( WRITE_ERROR );

  14428  5 000032   000110 630600 2                  EPPR0 ! WRITE_TO_PIG
         5 000033   440001 713600                    CLIMB ! alt,write
         5 000034   401400 401760                    pmme    nvectors=4
         5 000035   000042 702200 5                  TSX2  ! WRITE_ERROR

      986    14429    2      READ_OUTSTANDING = AS_TRUE;

  14429  5 000036   000000 236200 xsym               LDQ   ! AS_TRUE
         5 000037   400000 376203                    ANQ   ! -131072,DU
         5 000040   000142 756200 2                  STQ   ! READ_OUTSTANDING
PL6.E3A0      #009=ASB$PIG File=ASB$EXT.:E05TSI                                  TUE 07/29/97 09:06 Page:239

      987    14430    2      END;

      988    14431    2   IF '0'B THEN DO;

  14431  5 000041   000105 710000 5                  TRA     READ_REC

      989    14432        /*E*  ERROR:  ASB-E$UNABLE_TO_WRITE_TO_PIG-C
      990    14433              MESSAGE: Unable to write to PIG through the comgroup CG/%U1
      991    14434        */
      992    14435    2   WRITE_ERROR:
      993    14436    2      IF AS_WILD_USER THEN CALL ASB$FLUSH_ERR;

  14436  5 000042   000000 234000 xsym  WRITE_ERROR  SZN     AS_WILD_USER
         5 000043   000047 605000 5                  TPL     s:14437

  14436  5 000044   000002 631400 xsym               EPPR1   B_VECTNIL+2
         5 000045   000000 701000 xent               TSX1    ASB$FLUSH_ERR
         5 000046   000000 011000                    NOP     0

      994    14437    2      CALL CONCAT( AS_FIELD1.TEXT, VLP_NAME.NAME#, '.', FILE_ACCT.TXT );

  14437  5 000047   040000 100400                    MLR     fill='040'O
         5 000050   000106 200004 2                  ADSC9   VLP_NAME                 cn=1,n=4
         5 000051   000000 200004 xsym               ADSC9   AS_FIELD1                cn=1,n=4
         5 000052   000056 236003                    LDQ     46,DU
         5 000053   000001 552020 xsym               STBQ    AS_FIELD1+1,'20'O
         5 000054   040000 100400                    MLR     fill='040'O
         5 000055   000000 000010 xsym               ADSC9   FILE_ACCT                cn=0,n=8
         5 000056   000001 400043 xsym               ADSC9   AS_FIELD1+1              cn=2,n=35

      995    14438    2      AS_FIELD1.COUNT = VLP_NAME.L# + 9;

  14438  5 000057   000106 236000 2                  LDQ     VLP_NAME
         5 000060   000033 772000                    QRL     27
         5 000061   000011 036007                    ADLQ    9,DL
         5 000062   000033 736000                    QLS     27
PL6.E3A0      #009=ASB$PIG File=ASB$EXT.:E05TSI                                  TUE 07/29/97 09:06 Page:240
         5 000063   000000 552040 xsym               STBQ    AS_FIELD1,'40'O

      996    14439    2      M_ERR_CODE = B$TCB$ -> B$TCB.ALT$ -> B$ALT.ERR;

  14439  5 000064   000000 470400 xsym               LDP0    B$TCB$
         5 000065   000000 471500                    LDP1    0,,PR0
         5 000066   100102 236100                    LDQ     66,,PR1
         5 000067   200012 756100                    STQ     M_ERR_CODE,,AUTO

      997    14440           %SCREAM( ERR#=E$UNABLE_TO_WRITE_TO_PIG, LEVEL=INFO, MID='B' );

  14448  5 000070   000001 630400 6                  EPPR0   1
         5 000071   000017 631400 xsym               EPPR1   B_VECTNIL+15
         5 000072   000000 701000 xent               TSX1    ASH$INFO
         5 000073   000000 011000                    NOP     0

      998    14455    2      AS_DCBNUM# = DCBNUM( M$CSCG );

  14455  5 000074   000000 236007 xsym               LDQ     M$CSCG,DL
         5 000075   000000 756000 xsym               STQ     AS_DCBNUM#

      999    14456    2      CALL ASH$ERROR( M_ERR_CODE );

  14456  5 000076   200012 630500                    EPPR0   M_ERR_CODE,,AUTO
         5 000077   202016 450500                    STP0    PIG_TO_SUPER+1027,,AUTO
         5 000100   202016 630500                    EPPR0   PIG_TO_SUPER+1027,,AUTO
         5 000101   000017 631400 xsym               EPPR1   B_VECTNIL+15
         5 000102   000000 701000 xent               TSX1    ASH$ERROR
         5 000103   000000 011000                    NOP     0

     1000    14457    2      ALTRETURN;

  14457  5 000104   000000 702200 xent               TSX2  ! X66_AALT

     1001    14458    2      END;
     1002    14459        /*
     1003    14460                                  Now read from pig
PL6.E3A0      #009=ASB$PIG File=ASB$EXT.:E05TSI                                  TUE 07/29/97 09:06 Page:241
     1004    14461        */
     1005    14462    1   READ_REC:
     1006    14463    2   DO INHIBIT;

  14463  5 000105                       READ_REC     null
     1007    14464    2      CALL M$READ( READ_FROM_PIG ) ALTRET( READ_ERROR );

  14464  5 000105   000124 630600 2                  EPPR0 ! READ_FROM_PIG
         5 000106   440000 713600                    CLIMB ! alt,read
         5 000107   401400 401760                    pmme    nvectors=4
         5 000110   000115 702200 5                  TSX2  ! READ_ERROR

     1008    14465    2      READ_OUTSTANDING = AS_FALSE;

  14465  5 000111   000000 236200 xsym               LDQ   ! AS_FALSE
         5 000112   400000 376203                    ANQ   ! -131072,DU
         5 000113   000142 756200 2                  STQ   ! READ_OUTSTANDING

     1009    14466    2      END;

     1010    14467    2   DO WHILE('0'B);

  14467  5 000114   000153 710000 5                  TRA     s:14494

     1011    14468    2   READ_ERROR:
     1012    14469    2      M_ERR_CODE = B$TCB$ -> B$TCB.ALT$ -> B$ALT.ERR;

  14469  5 000115   000000 470400 xsym  READ_ERROR   LDP0    B$TCB$
         5 000116   000000 471500                    LDP1    0,,PR0
         5 000117   100102 236100                    LDQ     66,,PR1
         5 000120   200012 756100                    STQ     M_ERR_CODE,,AUTO

     1013    14470        /*E*  ERROR:  ASB-E$UNABLE_TO_READ_FROM_PIG-C
     1014    14471              MESSAGE: Unable to read from PIG through the comgroup CG/%U1
     1015    14472        */
     1016    14473    2      CALL CONCAT( AS_FIELD1.TEXT, VLP_NAME.NAME#, '.', FILE_ACCT.TXT );

PL6.E3A0      #009=ASB$PIG File=ASB$EXT.:E05TSI                                  TUE 07/29/97 09:06 Page:242
  14473  5 000121   040000 100400                    MLR     fill='040'O
         5 000122   000106 200004 2                  ADSC9   VLP_NAME                 cn=1,n=4
         5 000123   000000 200004 xsym               ADSC9   AS_FIELD1                cn=1,n=4
         5 000124   000056 236003                    LDQ     46,DU
         5 000125   000001 552020 xsym               STBQ    AS_FIELD1+1,'20'O
         5 000126   040000 100400                    MLR     fill='040'O
         5 000127   000000 000010 xsym               ADSC9   FILE_ACCT                cn=0,n=8
         5 000130   000001 400043 xsym               ADSC9   AS_FIELD1+1              cn=2,n=35

     1017    14474    2      AS_FIELD1.COUNT = VLP_NAME.L# + 9;

  14474  5 000131   000106 236000 2                  LDQ     VLP_NAME
         5 000132   000033 772000                    QRL     27
         5 000133   000011 036007                    ADLQ    9,DL
         5 000134   000033 736000                    QLS     27
         5 000135   000000 552040 xsym               STBQ    AS_FIELD1,'40'O

     1018    14475           %SCREAM( ERR#=E$UNABLE_TO_READ_FROM_PIG, LEVEL=INFO, MID='B' );

  14483  5 000136   000002 630400 6                  EPPR0   2
         5 000137   000017 631400 xsym               EPPR1   B_VECTNIL+15
         5 000140   000000 701000 xent               TSX1    ASH$INFO
         5 000141   000000 011000                    NOP     0

     1019    14490    2      AS_DCBNUM# = DCBNUM( M$CSCG );

  14490  5 000142   000000 236007 xsym               LDQ     M$CSCG,DL
         5 000143   000000 756000 xsym               STQ     AS_DCBNUM#

     1020    14491    2      CALL ASH$ERROR( M_ERR_CODE );

  14491  5 000144   200012 630500                    EPPR0   M_ERR_CODE,,AUTO
         5 000145   202016 450500                    STP0    PIG_TO_SUPER+1027,,AUTO
         5 000146   202016 630500                    EPPR0   PIG_TO_SUPER+1027,,AUTO
         5 000147   000017 631400 xsym               EPPR1   B_VECTNIL+15
         5 000150   000000 701000 xent               TSX1    ASH$ERROR
         5 000151   000000 011000                    NOP     0
PL6.E3A0      #009=ASB$PIG File=ASB$EXT.:E05TSI                                  TUE 07/29/97 09:06 Page:243

     1021    14492    2      ALTRETURN;

  14492  5 000152   000000 702200 xent               TSX2  ! X66_AALT

     1022    14493    2      END;

     1023    14494    1   ERR = PIG_TO_SUPER.ERR;

  14494  5 000153   200013 235100                    LDA     PIG_TO_SUPER,,AUTO
         5 000154   200010 755100                    STA     ERR,,AUTO

     1024    14495    2   DO SELECT( SUPER_TO_PIG.TYPE );

  14495  5 000155   200003 470500                    LDP0    @SUPER_TO_PIG,,AUTO
         5 000156   000000 236100                    LDQ     0,,PR0
         5 000157   000033 772000                    QRL     27
         5 000160   000001 116007                    CMPQ    1,DL
         5 000161   000172 602000 5                  TNC     s:14495+13
         5 000162   000204 600000 5                  TZE     s:14499
         5 000163   000003 116007                    CMPQ    3,DL
         5 000164   000242 602000 5                  TNC     s:14518
         5 000165   000232 600000 5                  TZE     s:14510
         5 000166   000033 736000                    QLS     27
         5 000167   004000 116003                    CMPQ    2048,DU
         5 000170   000242 601000 5                  TNZ     s:14518
         5 000171   000241 710000 5                  TRA     s:14513
         5 000172   000000 236100                    LDQ     0,,PR0
         5 000173   777000 316003                    CANQ    -512,DU
         5 000174   000176 600000 5                  TZE     s:14497
         5 000175   000242 710000 5                  TRA     s:14518

     1025    14496    2      SELECT( %CREATE_ACCT );

     1026    14497    2      IF ERR > 0 THEN ERR_CNT = ERR_CNT + 1;

  14497  5 000176   000000 115003                    CMPA    0,DU
PL6.E3A0      #009=ASB$PIG File=ASB$EXT.:E05TSI                                  TUE 07/29/97 09:06 Page:244
         5 000177   000242 600000 5                  TZE     s:14518

  14497  5 000200   000000 235000 xsym               LDA     ERR_CNT
         5 000201   000001 035007                    ADLA    1,DL
         5 000202   000000 755000 xsym               STA     ERR_CNT
         5 000203   000242 710000 5                  TRA     s:14518

     1027    14498    2      SELECT( %MODIFY_ACCT );

     1028    14499    3      IF ERR > 0 THEN DO;

  14499  5 000204   000000 115003                    CMPA    0,DU
         5 000205   000242 600000 5                  TZE     s:14518

     1029    14500    3         MERR_CODE = BINBIT( ERR, 36 );

  14500  5 000206   200010 236100                    LDQ     ERR,,AUTO
         5 000207   000000 756000 xsym               STQ     ERR_CODE

     1030    14501    3         IF MERR_CODE.CODE = %E$NOKEY  OR  MERR_CODE.CODE = 22/*E$PROJNA*/

  14501  5 000210   000000 236000 xsym               LDQ     ERR_CODE
         5 000211   377770 376007                    ANQ     131064,DL
         5 000212   001020 116007                    CMPQ    528,DL
         5 000213   000216 600000 5                  TZE     s:14503
         5 000214   000260 116007                    CMPQ    176,DL
         5 000215   000221 601000 5                  TNZ     s:14506

     1031    14502    4         THEN DO;

     1032    14503    4            SUPER_TO_PIG.TYPE = %CREATE_ACCT;

  14503  5 000216   000000 236003                    LDQ     0,DU
         5 000217   000000 552140                    STBQ    0,'40'O,PR0

     1033    14504    4            GOTO WRITE_REC;

PL6.E3A0      #009=ASB$PIG File=ASB$EXT.:E05TSI                                  TUE 07/29/97 09:06 Page:245
  14504  5 000220   000032 710000 5                  TRA     WRITE_REC

     1034    14505    4            END;
     1035    14506    3         IF AS_WILD_USER THEN CALL ASB$FLUSH_ERR;

  14506  5 000221   000000 234000 xsym               SZN     AS_WILD_USER
         5 000222   000226 605000 5                  TPL     s:14507

  14506  5 000223   000002 631400 xsym               EPPR1   B_VECTNIL+2
         5 000224   000000 701000 xent               TSX1    ASB$FLUSH_ERR
         5 000225   000000 011000                    NOP     0

     1036    14507    3         ERR_CNT = ERR_CNT + 1;

  14507  5 000226   000000 235000 xsym               LDA     ERR_CNT
         5 000227   000001 035007                    ADLA    1,DL
         5 000230   000000 755000 xsym               STA     ERR_CNT

     1037    14508    3         END;

  14508  5 000231   000242 710000 5                  TRA     s:14518

     1038    14509    2      SELECT( %VALIDATE_ATTR );

     1039    14510    2      IF ERR = 0 THEN RETURN;

  14510  5 000232   000000 115003                    CMPA    0,DU
         5 000233   000235 601000 5                  TNZ     s:14511

  14510  5 000234   000000 702200 xent               TSX2  ! X66_ARET

     1040    14511    2      ERR_CNT = ERR_CNT + 1;

  14511  5 000235   000000 235000 xsym               LDA     ERR_CNT
         5 000236   000001 035007                    ADLA    1,DL
         5 000237   000000 755000 xsym               STA     ERR_CNT
         5 000240   000242 710000 5                  TRA     s:14518
PL6.E3A0      #009=ASB$PIG File=ASB$EXT.:E05TSI                                  TUE 07/29/97 09:06 Page:246

     1041    14512    2      SELECT( %DELETE_ACCT );

     1042    14513    2      RETURN;

  14513  5 000241   000000 702200 xent               TSX2  ! X66_ARET

     1043    14514    2      END;

     1044    14515        /*
     1045    14516                                      Write the message from pig.
     1046    14517        */
     1047    14518    1   I = 0;

  14518  5 000242   200005 450100                    STZ     I,,AUTO

     1048    14519    2   DO WHILE( I < PIG_TO_SUPER.COUNT );

  14519  5 000243   200014 236100                    LDQ     PIG_TO_SUPER+1,,AUTO
         5 000244   000022 772000                    QRL     18
         5 000245   200005 116100                    CMPQ    I,,AUTO
         5 000246   000316 602000 5                  TNC     s:14527
         5 000247   000316 600000 5                  TZE     s:14527

     1049    14520    2      STR$ = ADDR( PIG_TO_SUPER.TEXT(I) );

  14520  5 000250   202016 452500                    STP2    PIG_TO_SUPER+1027,,AUTO
         5 000251   200005 236100                    LDQ     I,,AUTO
         5 000252   000020 736000                    QLS     16
         5 000253   000003 036000 6                  ADLQ    3
         5 000254   202016 036100                    ADLQ    PIG_TO_SUPER+1027,,AUTO
         5 000255   200011 756100                    STQ     STR$,,AUTO

     1050    14521    2      OUT_BUF = TXT$C.TXT;

  14521  5 000256   200011 470500                    LDP0    STR$,,AUTO
         5 000257   000100 101500                    MRL     fill='000'O
PL6.E3A0      #009=ASB$PIG File=ASB$EXT.:E05TSI                                  TUE 07/29/97 09:06 Page:247
         5 000260   000000 000001                    ADSC9   0,,PR0                   cn=0,n=1
         5 000261   202016 000002                    ADSC9   PIG_TO_SUPER+1027,,AUTO  cn=0,n=2
         5 000262   202016 220100                    LDX0    PIG_TO_SUPER+1027,,AUTO
         5 000263   040000 100540                    MLR     fill='040'O
         5 000264   000000 200010                    ADSC9   0,,PR0                   cn=1,n=*X0
         5 000265   000000 000214 xsym               ADSC9   OUT_BUF                  cn=0,n=140

     1051    14522    2      CNT = TXT$C.CNT;

  14522  5 000266   000100 101500                    MRL     fill='000'O
         5 000267   000000 000001                    ADSC9   0,,PR0                   cn=0,n=1
         5 000270   200007 000004                    ADSC9   CNT,,AUTO                cn=0,n=4

     1052    14523    2      IF OUT_BUF ~= ' **** COMMAND ABORTED' THEN

  14523  5 000271   040000 106400                    CMPC    fill='040'O
         5 000272   000000 000214 xsym               ADSC9   OUT_BUF                  cn=0,n=140
         5 000273   000002 000025 4                  ADSC9   2                        cn=0,n=21
         5 000274   000305 600000 5                  TZE     s:14525

     1053    14524    2         CALL ASB$WRITE_LO( OUT_BUF, CNT );

  14524  5 000275   200007 631500                    EPPR1   CNT,,AUTO
         5 000276   202017 451500                    STP1    PIG_TO_SUPER+1028,,AUTO
         5 000277   000004 236000 6                  LDQ     4
         5 000300   202016 756100                    STQ     PIG_TO_SUPER+1027,,AUTO
         5 000301   202016 630500                    EPPR0   PIG_TO_SUPER+1027,,AUTO
         5 000302   000020 631400 xsym               EPPR1   B_VECTNIL+16
         5 000303   000000 701000 xent               TSX1    ASB$WRITE_LO
         5 000304   000000 011000                    NOP     0

     1054    14525    2      I = I + CNT + 1;

  14525  5 000305   200005 236100                    LDQ     I,,AUTO
         5 000306   200007 036100                    ADLQ    CNT,,AUTO
         5 000307   000001 036007                    ADLQ    1,DL
         5 000310   200005 756100                    STQ     I,,AUTO
PL6.E3A0      #009=ASB$PIG File=ASB$EXT.:E05TSI                                  TUE 07/29/97 09:06 Page:248

     1055    14526    2      END;

  14526  5 000311   200014 236100                    LDQ     PIG_TO_SUPER+1,,AUTO
         5 000312   000022 772000                    QRL     18
         5 000313   200005 116100                    CMPQ    I,,AUTO
         5 000314   000316 600000 5                  TZE     s:14527
         5 000315   000250 603000 5                  TRC     s:14520

     1056    14527    1   IF ERR > 0 THEN ALTRETURN;

  14527  5 000316   200010 235100                    LDA     ERR,,AUTO
         5 000317   000321 600000 5                  TZE     s:14528

  14527  5 000320   000000 702200 xent               TSX2  ! X66_AALT

     1057    14528    1   RETURN;

  14528  5 000321   000000 702200 xent               TSX2  ! X66_ARET

     1058    14529
     1059    14530
     1060    14531        %EJECT;
PL6.E3A0      #009=ASB$PIG File=ASB$EXT.:E05TSI                                  TUE 07/29/97 09:06 Page:249
     1061    14532    1   ASB$OPEN_COMGROUP: ENTRY ALTRET;

  14532  5 000322   000000 700200 xent  ASB$OPEN_CO* TSX0  ! X66_AUTO_1
         5 000323   002020 000001                    ZERO    1040,1

     1062    14533
     1063    14534
     1064    14535    1   CALL M$OPEN( OPEN_COMGROUP ) ALTRET( OPEN_ERROR );

  14535  5 000324   000000 630400 2                  EPPR0   OPEN_COMGROUP
         5 000325   450000 713400                    CLIMB   alt,open
         5 000326   410400 401760                    pmme    nvectors=18
         5 000327   000331 702000 5                  TSX2    OPEN_ERROR

     1065    14536    2   DO WHILE( '0'B );

  14536  5 000330   000366 710000 5                  TRA     s:14562

     1066    14537        /*E*  ERROR:  ASB-E$UNABLE_TO_OPEN_CSCG-C
     1067    14538              MESSAGE: Unable to open comgroup CG/%U1
     1068    14539        */
     1069    14540    2   OPEN_ERROR:
     1070    14541    2      M_ERR_CODE = B$TCB$ -> B$TCB.ALT$ -> B$ALT.ERR;

  14541  5 000331   000000 470400 xsym  OPEN_ERROR   LDP0    B$TCB$
         5 000332   000000 471500                    LDP1    0,,PR0
         5 000333   100102 236100                    LDQ     66,,PR1
         5 000334   200012 756100                    STQ     M_ERR_CODE,,AUTO

     1071    14542    2      CALL CONCAT( AS_FIELD1.TEXT, VLP_NAME.NAME#, '.', FILE_ACCT.TXT );

  14542  5 000335   040000 100400                    MLR     fill='040'O
         5 000336   000106 200004 2                  ADSC9   VLP_NAME                 cn=1,n=4
         5 000337   000000 200004 xsym               ADSC9   AS_FIELD1                cn=1,n=4
         5 000340   000056 236003                    LDQ     46,DU
         5 000341   000001 552020 xsym               STBQ    AS_FIELD1+1,'20'O
         5 000342   040000 100400                    MLR     fill='040'O
PL6.E3A0      #009=ASB$PIG File=ASB$EXT.:E05TSI                                  TUE 07/29/97 09:06 Page:250
         5 000343   000000 000010 xsym               ADSC9   FILE_ACCT                cn=0,n=8
         5 000344   000001 400043 xsym               ADSC9   AS_FIELD1+1              cn=2,n=35

     1072    14543    2      AS_FIELD1.COUNT = VLP_NAME.L# + 9;

  14543  5 000345   000106 236000 2                  LDQ     VLP_NAME
         5 000346   000033 772000                    QRL     27
         5 000347   000011 036007                    ADLQ    9,DL
         5 000350   000033 736000                    QLS     27
         5 000351   000000 552040 xsym               STBQ    AS_FIELD1,'40'O

     1073    14544           %SCREAM( ERR#=E$UNABLE_TO_OPEN_CSCG, LEVEL=INFO, MID='B' );

  14552  5 000352   000005 630400 6                  EPPR0   5
         5 000353   000017 631400 xsym               EPPR1   B_VECTNIL+15
         5 000354   000000 701000 xent               TSX1    ASH$INFO
         5 000355   000000 011000                    NOP     0

     1074    14559    2      AS_DCBNUM# = DCBNUM( M$CSCG );

  14559  5 000356   000000 236007 xsym               LDQ     M$CSCG,DL
         5 000357   000000 756000 xsym               STQ     AS_DCBNUM#

     1075    14560    2      CALL ASH$ERROR( M_ERR_CODE );

  14560  5 000360   200012 630500                    EPPR0   M_ERR_CODE,,AUTO
         5 000361   202016 450500                    STP0    PIG_TO_SUPER+1027,,AUTO
         5 000362   202016 630500                    EPPR0   PIG_TO_SUPER+1027,,AUTO
         5 000363   000017 631400 xsym               EPPR1   B_VECTNIL+15
         5 000364   000000 701000 xent               TSX1    ASH$ERROR
         5 000365   000000 011000                    NOP     0

     1076    14561    2      END;

     1077    14562    1   RETURN;

  14562  5 000366   000000 702200 xent               TSX2  ! X66_ARET
PL6.E3A0      #009=ASB$PIG File=ASB$EXT.:E05TSI                                  TUE 07/29/97 09:06 Page:251
     1078    14563
     1079    14564
     1080    14565
     1081    14566    1   END ASB$PIG;
     1082    14567        %EOD;

PL6.E3A0      #009=ASB$PIG File=ASB$EXT.:E05TSI                                  TUE 07/29/97 09:06 Page:252
--  Include file information  --

   AS_SUPER_R.:E05TOU  cannot be made into a system file and is referenced.
   XU_FORMAT_C.:E05TOU  is referenced.
   XU_MACRO_C.:E05TOU  is referenced.
   KL_SUPER_C.:E05TOU  is referenced.
   AS_SUBS_C.:E05TOU  is referenced.
   AS_MAC_C.:E05TOU  cannot be made into a system file and is referenced.
   AS_SUPER_C.:E05TOU  is referenced.
   FX_PERR_C.:E05TOU  is referenced.
   B_ERRORS_C.:E05TOU  is referenced.
   CP_6.:E05TOU  cannot be made into a system file and is referenced.
   AS_PERR_C.:E05TOU  is referenced.
   AS_ENTRIES_M.:E05TOU  is referenced.
   B$JIT_C.:E05TOU  was found in the system file and is never referenced.
   CP_6_C.:E05TOU  was found in the system file and is referenced.
      No diagnostics issued in procedure ASB$PIG.
PL6.E3A0      #009=ASB$PIG File=ASB$EXT.:E05TSI                                  TUE 07/29/97 09:06 Page:253

 **** Variables and constants ****

  ****  Section 002  Data  ASB$PIG

  ****  Scalars and arrays  ****
OctLoc.c.b A Datatyp(siz) R M Lvl/name                 OctLoc.c.b A Datatyp(siz) R M Lvl/name

     0-0-0/d STRC(2088)  r     1 OPEN_COMGROUP            124-0-0/d STRC(504)   r     1 READ_FROM_PIG
   142-0-0/w BIT         r     1 READ_OUTSTANDING         106-0-0/c STRC(45)    r     1 VLP_NAME
    72-0-0/w STRC(432)   r     1 VLP_SETSTA               110-0-0/d STRC(432)   r     1 WRITE_TO_PIG

  ****  Auto variables  ****

  ****  Scalars and arrays  ****
OctLoc.c.b A Datatyp(siz) R M Lvl/name                 OctLoc.c.b A Datatyp(siz) R M Lvl/name

     3-0-0/w PTR         r     1 @SUPER_TO_PIG              7-0-0/w UBIN        r     1 CNT
    10-0-0/w UBIN        r     1 ERR                        5-0-0/w UBIN        r     1 I
    12-0-0/b STRC        r     1 M_ERR_CODE                13-0-0/w STRC(36918) r     1 PIG_TO_SUPER
    11-0-0/w PTR         r     1 STR$                      *0-0-0/w STRC(43722) r     1 SUPER_TO_PIG

  ****  SYMREF variables  ****

  ****  Scalars and arrays  ****
OctLoc.c.b A Datatyp(siz) R M Lvl/name                 OctLoc.c.b A Datatyp(siz) R M Lvl/name

     0-0-0/w UBIN        r     1 AS_DCBNUM#                 0-0-0/b BIT         r     1 AS_FALSE
     0-0-0/w STRC(369)   r     1 AS_FIELD1                  0-0-0/b BIT         r     1 AS_TRUE
     0-0-0/b BIT         r     1 AS_WILD_USER               0-0-0/w PTR         r     1 B$TCB$
     0-0-0/w UBIN        r     1 ERR_CNT                    0-0-0/b STRC        r     1 ERR_CODE
     0-0-0/c STRC(72)    r     1 FILE_ACCT                  0-0-0/b STRC        r     1 MERR_CODE
     0-0-0/c CHAR(140)   r     1 OUT_BUF

  ****  BASED and DCB variables  ****

  ****  Scalars and arrays  ****
OctLoc.c.b A Datatyp(siz) R M Lvl/name                 OctLoc.c.b A Datatyp(siz) R M Lvl/name
PL6.E3A0      #009=ASB$PIG File=ASB$EXT.:E05TSI                                  TUE 07/29/97 09:06 Page:254

     0-0-0/w STRC(2448)  r     1 B$ALT                      0-0-0/w STRC(144)   r     1 B$TCB
     0-0-0N  NULL        r     1 M$CSCG                     0-0-0/c ASTR(9)     r     1 TXT$C


   Procedure ASB$PIG requires 247 words for executable code.
   Procedure ASB$PIG requires 1040 words of local(AUTO) storage.
PL6.E3A0      #009=ASB$PIG File=ASB$EXT.:E05TSI                                  TUE 07/29/97 09:06 Page:255
          *** CROSS REFERENCE LISTING ***
**     DENOTES     IDENTIFIER DEFINITION
<<                 IDENTIFIER'S VALUE SET
>>                 IDENTIFIER'S VALUE USED
<>                 IDENTIFIER SET AND/OR USED
--                 IDENTIFIER REFERENCED
PL6.E3A0      #009=ASB$PIG File=ASB$EXT.:E05TSI                                  TUE 07/29/97 09:06 Page:256
          MINI XREF LISTING

ASA_BRKS_LOC
     11196**DCL     11196--REDEF
ASB$FLUSH_ERR
     14383**DCL-ENT 14436--CALL    14506--CALL
ASB$WRITE_LO
     14380**DCL-ENT 14524--CALL
ASH$ERROR
     14374**DCL-ENT 14456--CALL    14491--CALL    14560--CALL
ASH$INFO
     14377**DCL-ENT 14448--CALL    14483--CALL    14552--CALL
AS_DCBNUM#
     11203**DCL     14455<<ASSIGN  14490<<ASSIGN  14559<<ASSIGN
AS_DEFAULT.BANNER_PERM
     11889**DCL     11890--REDEF
AS_DEFAULT.BUDGET.MACCT
     11794**DCL     11798--REDEF
AS_DEFAULT.BUDGET.MAX_PROJECTS
     11807**DCL     11810--REDEF
AS_DEFAULT.BUDGET.PACCUM
     11790**DCL     11792--REDEF
AS_DEFAULT.BUDGET.PMAXC
     11785**DCL     11787--REDEF
AS_DEFAULT.SETUP_CHRA.TXT
     11905**DCL     11906--REDEF   11907--REDEF
AS_DEFAULT_DREC.PASSWORD
     13159**DCL     13163--REDEF
AS_DEFAULT_DREC.RENAME
     13182**DCL     13183--REDEF
AS_DFLT.BANNER_PERM
     11711**DCL     11712--REDEF
AS_DFLT.BUDGET.MACCT
     11616**DCL     11620--REDEF
PL6.E3A0      #009=ASB$PIG File=ASB$EXT.:E05TSI                                  TUE 07/29/97 09:06 Page:257
AS_DFLT.BUDGET.MAX_PROJECTS
     11629**DCL     11632--REDEF
AS_DFLT.BUDGET.PACCUM
     11612**DCL     11614--REDEF
AS_DFLT.BUDGET.PMAXC
     11607**DCL     11609--REDEF
AS_DFLT.SETUP_CHRA.TXT
     11727**DCL     11728--REDEF   11729--REDEF
AS_FALSE
     11056**DCL     14417>>ASSIGN  14465>>ASSIGN
AS_FE_MODE
     11062**DCL     11063--REDEF
AS_FIELD1.COUNT
     11193**DCL     14438<<ASSIGN  14474<<ASSIGN  14543<<ASSIGN
AS_FIELD1.TEXT
     11193**DCL     14437<<CALLBLT 14473<<CALLBLT 14542<<CALLBLT
AS_MODE
     11059**DCL     11061--REDEF
AS_MOD_USER.ACCESS
     13924**DCL     13925--REDEF
AS_MOD_USER.BANNER
     13911**DCL     13912--REDEF
AS_MOD_USER.BANNER_PERM
     13913**DCL     13914--REDEF
AS_MOD_USER.BILL
     13919**DCL     13920--REDEF
AS_MOD_USER.CPROC
     13915**DCL     13916--REDEF
AS_MOD_USER.FEBILL
     13995**DCL     13996--REDEF
AS_MOD_USER.FECXTMEM
     14012**DCL     14013--REDEF
AS_MOD_USER.FEMINTS
     13997**DCL     13998--REDEF
AS_MOD_USER.FEMMEM
     14008**DCL     14009--REDEF
PL6.E3A0      #009=ASB$PIG File=ASB$EXT.:E05TSI                                  TUE 07/29/97 09:06 Page:258
AS_MOD_USER.FEMTIME
     14006**DCL     14007--REDEF
AS_MOD_USER.FEPPRIV
     14003**DCL     14005--REDEF
AS_MOD_USER.FEPRIV
     14000**DCL     14002--REDEF
AS_MOD_USER.FORCE_BIT
     13909**DCL     13910--REDEF
AS_MOD_USER.KEY
     13991**DCL     13993--REDEF
AS_MOD_USER.LASTCPROC
     13917**DCL     13918--REDEF
AS_MOD_USER.LIMITS.DO_
     13965**DCL     13966--REDEF
AS_MOD_USER.LIMITS.FPOOLS
     13981**DCL     13982--REDEF
AS_MOD_USER.LIMITS.LO
     13961**DCL     13962--REDEF
AS_MOD_USER.LIMITS.MEM
     13957**DCL     13958--REDEF
AS_MOD_USER.LIMITS.MPRIO
     13985**DCL     13986--REDEF
AS_MOD_USER.LIMITS.PDIS
     13973**DCL     13974--REDEF
AS_MOD_USER.LIMITS.PO
     13969**DCL     13970--REDEF
AS_MOD_USER.LIMITS.TDIS
     13977**DCL     13978--REDEF
AS_MOD_USER.LIMITS.TIME
     13953**DCL     13954--REDEF
AS_MOD_USER.MAXENQ
     13934**DCL     13935--REDEF
AS_MOD_USER.PERM_BIT
     13907**DCL     13908--REDEF
AS_MOD_USER.PPRIV
     13929**DCL     13931--REDEF
PL6.E3A0      #009=ASB$PIG File=ASB$EXT.:E05TSI                                  TUE 07/29/97 09:06 Page:259
AS_MOD_USER.PRIOB
     13936**DCL     13937--REDEF
AS_MOD_USER.PRIV
     13926**DCL     13928--REDEF
AS_MOD_USER.QUAN
     13932**DCL     13933--REDEF
AS_MOD_USER.SETUP
     13905**DCL     13906--REDEF
AS_PROJECT.BANNER_PERM
     12245**DCL     12246--REDEF
AS_PROJECT.BUDGET.MACCT
     12150**DCL     12154--REDEF
AS_PROJECT.BUDGET.MAX_PROJECTS
     12163**DCL     12166--REDEF
AS_PROJECT.BUDGET.PACCUM
     12146**DCL     12148--REDEF
AS_PROJECT.BUDGET.PMAXC
     12141**DCL     12143--REDEF
AS_PROJECT.SETUP_CHRA.TXT
     12261**DCL     12262--REDEF   12263--REDEF
AS_PROJECT_DFLT.BANNER_PERM
     12423**DCL     12424--REDEF
AS_PROJECT_DFLT.BUDGET.MACCT
     12328**DCL     12332--REDEF
AS_PROJECT_DFLT.BUDGET.MAX_PROJECTS
     12341**DCL     12344--REDEF
AS_PROJECT_DFLT.BUDGET.PACCUM
     12324**DCL     12326--REDEF
AS_PROJECT_DFLT.BUDGET.PMAXC
     12319**DCL     12321--REDEF
AS_PROJECT_DFLT.SETUP_CHRA.TXT
     12439**DCL     12440--REDEF   12441--REDEF
AS_PROJECT_DFLT_DREC.PASSWORD
     13645**DCL     13649--REDEF
AS_PROJECT_DFLT_DREC.RENAME
     13668**DCL     13669--REDEF
PL6.E3A0      #009=ASB$PIG File=ASB$EXT.:E05TSI                                  TUE 07/29/97 09:06 Page:260
AS_PROJECT_DREC.PASSWORD
     13483**DCL     13487--REDEF
AS_PROJECT_DREC.RENAME
     13506**DCL     13507--REDEF
AS_PROJ_ADMIN.BANNER_PERM
     12067**DCL     12068--REDEF
AS_PROJ_ADMIN.BUDGET.MACCT
     11972**DCL     11976--REDEF
AS_PROJ_ADMIN.BUDGET.MAX_PROJECTS
     11985**DCL     11988--REDEF
AS_PROJ_ADMIN.BUDGET.PACCUM
     11968**DCL     11970--REDEF
AS_PROJ_ADMIN.BUDGET.PMAXC
     11963**DCL     11965--REDEF
AS_PROJ_ADMIN.SETUP_CHRA.TXT
     12083**DCL     12084--REDEF   12085--REDEF
AS_PROJ_ADMIN_DREC.PASSWORD
     13321**DCL     13325--REDEF
AS_PROJ_ADMIN_DREC.RENAME
     13344**DCL     13345--REDEF
AS_TRUE
     11056**DCL     14429>>ASSIGN
AS_USERS.BANNER_PERM
     11533**DCL     11534--REDEF
AS_USERS.BUDGET.MACCT
     11438**DCL     11442--REDEF
AS_USERS.BUDGET.MAX_PROJECTS
     11451**DCL     11454--REDEF
AS_USERS.BUDGET.PACCUM
     11434**DCL     11436--REDEF
AS_USERS.BUDGET.PMAXC
     11429**DCL     11431--REDEF
AS_USERS.SETUP_CHRA.TXT
     11549**DCL     11550--REDEF   11551--REDEF
AS_USERS_CONSTANT.BANNER_PERM
     12601**DCL     12602--REDEF
PL6.E3A0      #009=ASB$PIG File=ASB$EXT.:E05TSI                                  TUE 07/29/97 09:06 Page:261
AS_USERS_CONSTANT.BUDGET.MACCT
     12506**DCL     12510--REDEF
AS_USERS_CONSTANT.BUDGET.MAX_PROJECTS
     12519**DCL     12522--REDEF
AS_USERS_CONSTANT.BUDGET.PACCUM
     12502**DCL     12504--REDEF
AS_USERS_CONSTANT.BUDGET.PMAXC
     12497**DCL     12499--REDEF
AS_USERS_CONSTANT.SETUP_CHRA.TXT
     12617**DCL     12618--REDEF   12619--REDEF
AS_WILD_USER
     11201**DCL     14436>>IF      14506>>IF
B$ALT.CODE
     14351**DCL     14351--REDEF   14352--REDEF   14352--REDEF
B$ALT.ERR
     14352**DCL     14439>>ASSIGN  14469>>ASSIGN  14541>>ASSIGN
B$ALT.ERR.ERR#
     14353**DCL     14353--REDEF
B$ALT.EVID
     14352**DCL     14352--REDEF   14352--REDEF
B$TCB.ALT$
     14347**DCL     14439>>ASSIGN  14469>>ASSIGN  14541>>ASSIGN
B$TCB$
     14345**DCL     14439>>ASSIGN  14469>>ASSIGN  14541>>ASSIGN
CNT
     14361**DCL     14522<<ASSIGN  14524<>CALL    14525>>ASSIGN
ERR
     14362**DCL     14494<<ASSIGN  14497>>IF      14499>>IF      14500>>ASSIGN  14510>>IF      14527>>IF
ERR_CNT
     11199**DCL     14497<<ASSIGN  14497>>ASSIGN  14507<<ASSIGN  14507>>ASSIGN  14511<<ASSIGN  14511>>ASSIGN
ERR_CODE
     11191**DCL     11192--REDEF
FILE_ACCT
     11199**DCL     14170--DCLINIT
FILE_ACCT.TXT
     11200**DCL     14437>>CALLBLT 14473>>CALLBLT 14542>>CALLBLT
PL6.E3A0      #009=ASB$PIG File=ASB$EXT.:E05TSI                                  TUE 07/29/97 09:06 Page:262
I
     14359**DCL     14518<<ASSIGN  14519>>DOWHILE 14520>>ASSIGN  14525<<ASSIGN  14525>>ASSIGN
KL_DEFAULT.PASSWORD
     13807**DCL     13811--REDEF
KL_DEFAULT.RENAME
     13830**DCL     13831--REDEF
KL_DFLT.PASSWORD
     12997**DCL     13001--REDEF
KL_DFLT.RENAME
     13020**DCL     13021--REDEF
KL_DREC.PASSWORD
     12835**DCL     12839--REDEF
KL_DREC.RENAME
     12858**DCL     12859--REDEF
KL_DREC_CNT.PASSWORD
     12722**DCL     12726--REDEF
KL_DREC_CNT.RENAME
     12745**DCL     12746--REDEF
M$CSCG
     14357**DCL     14455>>ASSIGN  14490>>ASSIGN  14559>>ASSIGN
M$OPEN
      1675**DCL-ENT 14535--CALL
M$READ
      1676**DCL-ENT 14416--CALL    14464--CALL
M$WRITE
      1676**DCL-ENT 14428--CALL
MERR_CODE
     11192**DCL     14500<<ASSIGN
MERR_CODE.CODE
     11192**DCL     14501>>IF      14501>>IF
M_ERR_CODE
     14368**DCL     14439<<ASSIGN  14456<>CALL    14469<<ASSIGN  14491<>CALL    14541<<ASSIGN  14560<>CALL
OPEN_COMGROUP
     14165**DCL     14535<>CALL
OPEN_COMGROUP.ACSVEH_
     14167**DCL     14168--REDEF
PL6.E3A0      #009=ASB$PIG File=ASB$EXT.:E05TSI                                  TUE 07/29/97 09:06 Page:263
OPEN_COMGROUP.ALTKEYS_
     14173**DCL     14174--REDEF   14174--REDEF
OPEN_COMGROUP.HDR_
     14172**DCL     14173--REDEF
OPEN_COMGROUP.TAB_
     14171**DCL     14172--REDEF
OPEN_COMGROUP.UHL_
     14165**DCL     14166--REDEF   14166--REDEF
OPEN_COMGROUP.V
     14174**DCL     14165--DCLINIT
OPEN_COMGROUP.V.FSN#
     14205**DCL     14205--REDEF   14205--REDEF
OPEN_COMGROUP.WSN_
     14171**DCL     14171--REDEF
OPEN_ERROR
     14541**LABEL   14535--CALLALT
OUT_BUF
     11188**DCL     14521<<ASSIGN  14523>>IF      14524<>CALL
PIG_TO_SUPER
     14393**DCL     14413--ASSIGN
PIG_TO_SUPER.COUNT
     14395**DCL     14519>>DOWHILE
PIG_TO_SUPER.ERR
     14394**DCL     14494>>ASSIGN
PIG_TO_SUPER.TEXT
     14400**DCL     14520--ASSIGN
PROJ_KEY.TEXT
     11069**DCL     11069--REDEF
PROJ_KEY.TXT.PROJECT
     11069**DCL     11069--REDEF
READ_ERROR
     14469**LABEL   14416--CALLALT 14464--CALLALT
READ_FROM_PIG
     14320**DCL     14416<>CALL    14464<>CALL
READ_FROM_PIG.BUF_
     14322**DCL     14413<<ASSIGN
PL6.E3A0      #009=ASB$PIG File=ASB$EXT.:E05TSI                                  TUE 07/29/97 09:06 Page:264
READ_FROM_PIG.STATION_
     14323**DCL     14324--REDEF
READ_FROM_PIG.V
     14324**DCL     14320--DCLINIT
READ_FROM_PIG.V.DVBYTE.REREAD#
     14335**DCL     14335--REDEF
READ_FROM_PIG.V.INDX#
     14333**DCL     14333--REDEF
READ_OUTSTANDING
     14364**DCL     14414>>IF      14417<<ASSIGN  14429<<ASSIGN  14465<<ASSIGN
REMEM_VAR
     11195**DCL     11195--REDEF
REM_FCMD
     11195**DCL     11196--REDEF
STR$
     14363**DCL     14365--IMP-PTR 14520<<ASSIGN  14521>>ASSIGN  14521>>ASSIGN  14522>>ASSIGN
SUPER_TO_PIG
     14056**DCL         7--PROC    14423--ASSIGN  14424--ASSIGN
SUPER_TO_PIG.ATTR
     14078**DCL     14424--ASSIGN
SUPER_TO_PIG.ATTR.COUNT
     14079**DCL     14424>>ASSIGN
SUPER_TO_PIG.PROJECT
     14072**DCL     14075--REDEF
SUPER_TO_PIG.SUPER
     14068**DCL     14071--REDEF
SUPER_TO_PIG.TYPE
     14057**DCL     14495>>DOSELCT 14503<<ASSIGN
TXT$C.CNT
     14366**DCL     14367--IMP-SIZ 14521>>ASSIGN  14522>>ASSIGN
TXT$C.TXT
     14367**DCL     14521>>ASSIGN
USERS_KEY.TEXT
     11066**DCL     11067--REDEF   11067--REDEF   11067--REDEF   11068--REDEF
VLP_NAME
     14270**DCL     14166--DCLINIT
PL6.E3A0      #009=ASB$PIG File=ASB$EXT.:E05TSI                                  TUE 07/29/97 09:06 Page:265
VLP_NAME.L#
     14270**DCL     14438>>ASSIGN  14474>>ASSIGN  14543>>ASSIGN
VLP_NAME.NAME#
     14270**DCL     14437>>CALLBLT 14473>>CALLBLT 14542>>CALLBLT
VLP_SETSTA
     14229**DCL     14166--DCLINIT
WRITE_ERROR
     14436**LABEL   14428--CALLALT
WRITE_REC
     14427**LABEL   14504--GOTO
WRITE_TO_PIG
     14289**DCL     14428<>CALL
WRITE_TO_PIG.BUF_.BOUND
     14289**DCL     14424<<ASSIGN
WRITE_TO_PIG.BUF_.BUF$
     14291**DCL     14423<<ASSIGN
WRITE_TO_PIG.STATION_
     14291**DCL     14291--REDEF
WRITE_TO_PIG.V
     14292**DCL     14289--DCLINIT
WRITE_TO_PIG.V.DVBYTE.VFC#
     14298**DCL     14298--REDEF

PL6.E3A0      #010=ASB$GET_HEX_VAL File=ASB$EXT.:E05TSI                          TUE 07/29/97 09:07 Page:266
     1083        1        /*T***********************************************************/
     1084        2        /*T*                                                         */
     1085        3        /*T* Copyright (c) Bull HN Information Systems Inc., 1997    */
     1086        4        /*T*                                                         */
     1087        5        /*T***********************************************************/
     1088        6        %EJECT;
PL6.E3A0      #010=ASB$GET_HEX_VAL File=ASB$EXT.:E05TSI                          TUE 07/29/97 09:07 Page:267
     1089        7        ASB$GET_HEX_VAL: PROC( NUM_HEX, HEX_ARRAY, PTR$, OPTION ) ALTRET;
     1090        8
     1091        9        %INCLUDE AS_ENTRIES_M;
     1092     1059        %INCLUDE CP_6;
     1093     1140        %INCLUDE AS_PERR_C;
     1094     1742        %INCLUDE           AS_SUPER_C  ;
     1095     2177        %INCLUDE           AS_MAC_C    ;
     1096     2257        %INCLUDE           AS_SUBS_C   ;
     1097     3671        %INCLUDE           KL_SUPER_C  ;
     1098     6573        %INCLUDE           XU_MACRO_C  ;
     1099     9679        %INCLUDE           XU_FORMAT_C ;
     1100     9841        %INCLUDE           AS_SUPER_R  ;
     1101    12857
     1102    12858    1   DCL NUM_HEX UBIN WORD ;
     1103    12859    1   DCL HEX_ARRAY  (0:255) UBIN BYTE CALIGNED;
     1104    12860    1   DCL PTR$              PTR;
     1105    12861    1   DCL 1 OPTION,
     1106    12862    1          2 COUNT UBIN BYTE CALIGNED,
     1107    12863    1          2 TEXT  CHAR(31) CALIGNED;
     1108    12864    1   DCL VAL UBIN WORD;
     1109    12865    1   DCL 1 OCTAL REDEF VAL ALIGNED,
     1110    12866    1          2 * UBIN(20) UNAL,
     1111    12867    1          2 VAL(0:1) UBIN(8) UNAL;
     1112    12868    1   DCL SUBS               UBIN;
     1113    12869    1   DCL NUM_FOUND          UBIN;
     1114    12870    1   DCL K                 UBIN;
     1115    12871    1   DCL L                 UBIN;
     1116    12872    1   DCL BLK$ PTR ;
     1117    12873              %PARSE$SYM (  NAME=OUT$SYM ,
     1118    12874                            STCLASS="BASED(BLK$)") ;
     1119    12912              %PARSE$OUT( NAME=P$NODE, STCLASS="BASED(PTR$)",
     1120    12913                          NDTYPE=TYPE, NSUBLKS=SUBNODES) ;
     1121    12958        %ASD$HEX2OCT ;
     1122    12961        %ASH$ERROR;
     1123    12964
     1124    12965
     1125    12966    1   HEX_ARRAY = '0'B;
PL6.E3A0      #010=ASB$GET_HEX_VAL File=ASB$EXT.:E05TSI                          TUE 07/29/97 09:07 Page:268
     1126    12967    1   NUM_FOUND = 0;
     1127    12968    1   IF PTR$->P$NODE.SUBLK$(0)->P$NODE.CODE = NONE_VAL THEN RETURN;
     1128    12969    1   SUBS = PTR$ -> P$NODE.SUBNODES ;
     1129    12970    2   IF SUBS > NUM_HEX THEN DO;
     1130    12971        /*E*  ERROR:  ASB-E$TOO_MANY_HEX-C
     1131    12972              MESSAGE: Too many hex. values for %U1.
     1132    12973              MESSAGE1: %U1 can have at most %U2 hexadecimal values.
     1133    12974        */
     1134    12975    2      AS_FIELD1 = OPTION;
     1135    12976           %NUMBER( NUM1=NUM_HEX );
             12984    2         CALL ASB$BINCHAR( AS_FIELD1.TEXT, 0, -1, NUM_HEX );
     1136    13006           %SCREAM( ERR#=E$TOO_MANY_HEX, LEVEL=ERROR, MID='B' );
     1137    13021    2      ALTRETURN;
     1138    13022    2      END;
     1139    13023    1   NUM_FOUND = 0;
     1140    13024    2   DO K = 1 TO SUBS;
     1141    13025    2      IF PTR$->P$NODE.SUBLK$(K-1)->P$NODE.CODE = %HEX_VAL THEN
     1142    13026    3      DO;
     1143    13027    3         BLK$ = PTR$ -> P$NODE.SUBLK$(K-1) -> P$NODE.SUBLK$(0) ;
     1144    13028    3         CALL ASD$HEX2OCT( OUT$SYM, VAL )
     1145    13029    4         WHENALTRETURN DO;
     1146    13030        /*E*  ERROR:  ASB-E$ILLEGALHEX-C
     1147    13031           MESSAGE: Illegal HEX character in "%U1"
     1148    13032           MESSAGE1: Hexidecimal characters are 0-9 and A-F
     1149    13033        */
     1150    13034    4            AS_FIELD1.COUNT = OUT$SYM.COUNT;
     1151    13035    4            AS_FIELD1.TEXT = OUT$SYM.TEXT;
     1152    13036                 %SCREAM( ERR#=E$ILLEGALHEX, MID='B', LEVEL=ERROR );
     1153    13051    4            ALTRETURN;
     1154    13052    4            END; /*  Whenaltreturn  */
     1155    13053    3         NUM_FOUND = NUM_FOUND + 1;
     1156    13054    3         HEX_ARRAY (NUM_FOUND) = VAL;
     1157    13055    3         END;
     1158    13056    2      ELSE IF PTR$->P$NODE.SUBLK$(K-1)->P$NODE.CODE = %HSTRING4_VAL
     1159    13057    3         THEN DO;
     1160    13058    3            BLK$ = PTR$ -> P$NODE.SUBLK$(K-1) ;
     1161    13059    3            CALL ASD$HEX2OCT( OUT$SYM, VAL )
PL6.E3A0      #010=ASB$GET_HEX_VAL File=ASB$EXT.:E05TSI                          TUE 07/29/97 09:07 Page:269
     1162    13060    4            WHENALTRETURN DO;
     1163    13061    4               AS_FIELD1.COUNT = OUT$SYM.COUNT;
     1164    13062    4               AS_FIELD1.TEXT = OUT$SYM.TEXT;
     1165    13063                    %SCREAM( ERR#=E$ILLEGALHEX, MID='B', LEVEL=ERROR );
     1166    13078    4               ALTRETURN;
     1167    13079    4               END; /*  Whenaltreturn  */
     1168    13080    3            NUM_FOUND = NUM_FOUND + 2;
     1169    13081    3            HEX_ARRAY (NUM_FOUND-1) = OCTAL.VAL(0);
     1170    13082    3            HEX_ARRAY (NUM_FOUND) = OCTAL.VAL(1);
     1171    13083    3            END; /*  Else if HSTRING4  */
     1172    13084    2         ELSE IF PTR$->P$NODE.SUBLK$(K-1)->P$NODE.CODE = %STRING_VAL THEN
     1173    13085    3            DO;
     1174    13086    3               BLK$ = PTR$ -> P$NODE.SUBLK$(K-1);
     1175    13087    4               DO L=0 TO OUT$SYM.COUNT-1;
     1176    13088    4                  NUM_FOUND = NUM_FOUND + 1;
     1177    13089    4                  HEX_ARRAY (NUM_FOUND) = ASCBIN (SUBSTR (OUT$SYM.TEXT,L,1));
     1178    13090    4                  END; /*  Do for each character  */
     1179    13091    3               END; /*  Else if  */
     1180    13092    3            ELSE DO;
     1181    13093        /*  Error - the parser accepted something that i am not expecting  */
     1182    13094    3               END;
     1183    13095    2      END;  /*  Do k  */
     1184    13096    1   HEX_ARRAY (0) = NUM_FOUND;
     1185    13097    1   RETURN;
     1186    13098
     1187    13099    1   END ASB$GET_HEX_VAL;
     1188    13100        %EOD;

PL6.E3A0      #010=ASB$GET_HEX_VAL File=ASB$EXT.:E05TSI                          TUE 07/29/97 09:07 Page:270
--  Include file information  --

   AS_SUPER_R.:E05TOU  cannot be made into a system file and is referenced.
   XU_FORMAT_C.:E05TOU  is referenced.
   XU_MACRO_C.:E05TOU  is referenced.
   KL_SUPER_C.:E05TOU  is referenced.
   AS_SUBS_C.:E05TOU  is referenced.
   AS_MAC_C.:E05TOU  cannot be made into a system file and is referenced.
   AS_SUPER_C.:E05TOU  is referenced.
   AS_PERR_C.:E05TOU  is referenced.
   CP_6.:E05TOU  cannot be made into a system file and is referenced.
   AS_ENTRIES_M.:E05TOU  is referenced.
   B$JIT_C.:E05TOU  was found in the system file and is never referenced.
   CP_6_C.:E05TOU  was found in the system file and is referenced.
      No diagnostics issued in procedure ASB$GET_HEX_VAL.

   Procedure ASB$GET_HEX_VAL requires 165 words for executable code.
   Procedure ASB$GET_HEX_VAL requires 18 words of local(AUTO) storage.

PL6.E3A0      #010=ASB$GET_HEX_VAL File=ASB$EXT.:E05TSI                          TUE 07/29/97 09:07 Page:271

 Object Unit name= ASB$GET_HEX_VAL                            File name= ASB$EXT.:E05TOU
 UTS= JUL 29 '97 09:07:17.96 TUE                              Compiler= PL-6/E31         Sev=      00
 SharedLib= :SHARED_SYSTEM                                    Alt SharedLib=


    ****  Control sections  ****

 Sect   Type Bound  Init  Size OctSiz  Section name(segment info)
    0   DCB   even  none     0      0  M$UC
    1   DCB   even  none     0      0  M$LO
    2  RoData even  UTS      2      2  ASB$GET_HEX_VAL
    3   Proc  even  none   165    245  ASB$GET_HEX_VAL
    4  RoData even  none     6      6  ASB$GET_HEX_VAL

    ****  Entry defs  ****

                              Check   Calling
                             calling  sequence
  Sect OctLoc Primary Altret sequence   type   Parms  Name
     3      0   yes    yes     yes      Std        4  ASB$GET_HEX_VAL

  ****  Entry refs  ****

         Check        Calling
        calling       sequence
Altret sequence SRef   type   Args  Name
         yes          ~proc      0 XU_OUTPUT_OPTIONS
         yes           Std       4 ASB$BINCHAR
 yes     yes           Std       2 ASD$HEX2OCT
         yes           Std       2 ASH$ERROR
                       nStd      0 X66_AUTO_4
                       Std       0 B_CONSPOOL_D
                       nStd      0 X66_ARET
                       nStd      0 X66_AALT
PL6.E3A0      #010=ASB$GET_HEX_VAL File=ASB$EXT.:E05TSI                          TUE 07/29/97 09:07 Page:272

  ****  Data refs  ****

  Flags:  r = read only, s = secondary
Flgs Name                             Flgs Name                             Flgs Name
     M$UC                             r    AS_MODE                          r    AS_FE_MODE
     M$LO                                  ERR_CODE                              AS_FIELD1
     REMEM_VAR                             REM_FCMD                              ASA_BRKS_LOC
     B_VECTNIL

  ****  Segment refs  ****

  Flags:  r = read only, s = secondary
Flgs Name                             Flgs Name                             Flgs Name
     ISSID
PL6.E3A0      #010=ASB$GET_HEX_VAL File=ASB$EXT.:E05TSI                          TUE 07/29/97 09:07 Page:273


     1083        1        /*T***********************************************************/
     1084        2        /*T*                                                         */
     1085        3        /*T* Copyright (c) Bull HN Information Systems Inc., 1997    */
     1086        4        /*T*                                                         */
     1087        5        /*T***********************************************************/
     1088        6        %EJECT;
PL6.E3A0      #010=ASB$GET_HEX_VAL File=ASB$EXT.:E05TSI                          TUE 07/29/97 09:07 Page:274
     1089        7        ASB$GET_HEX_VAL: PROC( NUM_HEX, HEX_ARRAY, PTR$, OPTION ) ALTRET;

      7  3 000000   000000 700200 xent  ASB$GET_HEX* TSX0  ! X66_AUTO_4
         3 000001   000022 000004                    ZERO    18,4

     1090        8
     1091        9        %INCLUDE AS_ENTRIES_M;
     1092     1059        %INCLUDE CP_6;
     1093     1140        %INCLUDE AS_PERR_C;
     1094     1742        %INCLUDE           AS_SUPER_C  ;
     1095     2177        %INCLUDE           AS_MAC_C    ;
     1096     2257        %INCLUDE           AS_SUBS_C   ;
     1097     3671        %INCLUDE           KL_SUPER_C  ;
     1098     6573        %INCLUDE           XU_MACRO_C  ;
     1099     9679        %INCLUDE           XU_FORMAT_C ;
     1100     9841        %INCLUDE           AS_SUPER_R  ;
     1101    12857
     1102    12858    1   DCL NUM_HEX UBIN WORD ;
     1103    12859    1   DCL HEX_ARRAY  (0:255) UBIN BYTE CALIGNED;
     1104    12860    1   DCL PTR$              PTR;
     1105    12861    1   DCL 1 OPTION,
     1106    12862    1          2 COUNT UBIN BYTE CALIGNED,
     1107    12863    1          2 TEXT  CHAR(31) CALIGNED;
     1108    12864    1   DCL VAL UBIN WORD;
     1109    12865    1   DCL 1 OCTAL REDEF VAL ALIGNED,
     1110    12866    1          2 * UBIN(20) UNAL,
     1111    12867    1          2 VAL(0:1) UBIN(8) UNAL;
     1112    12868    1   DCL SUBS               UBIN;
     1113    12869    1   DCL NUM_FOUND          UBIN;
     1114    12870    1   DCL K                 UBIN;
     1115    12871    1   DCL L                 UBIN;
     1116    12872    1   DCL BLK$ PTR ;
     1117    12873              %PARSE$SYM (  NAME=OUT$SYM ,
     1118    12874                            STCLASS="BASED(BLK$)") ;
     1119    12912              %PARSE$OUT( NAME=P$NODE, STCLASS="BASED(PTR$)",
     1120    12913                          NDTYPE=TYPE, NSUBLKS=SUBNODES) ;
     1121    12958        %ASD$HEX2OCT ;
PL6.E3A0      #010=ASB$GET_HEX_VAL File=ASB$EXT.:E05TSI                          TUE 07/29/97 09:07 Page:275
     1122    12961        %ASH$ERROR;
     1123    12964
     1124    12965
     1125    12966    1   HEX_ARRAY = '0'B;

  12966  3 000002   200004 470500                    LDP0    @HEX_ARRAY,,AUTO
         3 000003   000100 100400                    MLR     fill='000'O
         3 000004   000002 000001 xsym               ADSC9   B_VECTNIL+2              cn=0,n=1
         3 000005   000000 000400                    ADSC9   0,,PR0                   cn=0,n=256

     1126    12967    1   NUM_FOUND = 0;

  12967  3 000006   200011 450100                    STZ     NUM_FOUND,,AUTO

     1127    12968    1   IF PTR$->P$NODE.SUBLK$(0)->P$NODE.CODE = NONE_VAL THEN RETURN;

  12968  3 000007   200005 471500                    LDP1    @PTR$,,AUTO
         3 000010   100000 473500                    LDP3    0,,PR1
         3 000011   300003 474500                    LDP4    3,,PR3
         3 000012   400000 720100                    LXL0    0,,PR4
         3 000013   000007 100003                    CMPX0   7,DU
         3 000014   000016 601000 3                  TNZ     s:12969

  12968  3 000015   000000 702200 xent               TSX2  ! X66_ARET

     1128    12969    1   SUBS = PTR$ -> P$NODE.SUBNODES ;

  12969  3 000016   300001 236100                    LDQ     1,,PR3
         3 000017   000022 772000                    QRL     18
         3 000020   200010 756100                    STQ     SUBS,,AUTO

     1129    12970    2   IF SUBS > NUM_HEX THEN DO;

  12970  3 000021   200003 475500                    LDP5    @NUM_HEX,,AUTO
         3 000022   500000 116100                    CMPQ    0,,PR5
         3 000023   000047 602000 3                  TNC     s:13023
         3 000024   000047 600000 3                  TZE     s:13023
PL6.E3A0      #010=ASB$GET_HEX_VAL File=ASB$EXT.:E05TSI                          TUE 07/29/97 09:07 Page:276

     1130    12971        /*E*  ERROR:  ASB-E$TOO_MANY_HEX-C
     1131    12972              MESSAGE: Too many hex. values for %U1.
     1132    12973              MESSAGE1: %U1 can have at most %U2 hexadecimal values.
     1133    12974        */
     1134    12975    2      AS_FIELD1 = OPTION;

  12975  3 000025   200006 476500                    LDP6    @OPTION,,AUTO
         3 000026   000000 100500                    MLR     fill='000'O
         3 000027   600000 000040                    ADSC9   0,,PR6                   cn=0,n=32
         3 000030   000000 000051 xsym               ADSC9   AS_FIELD1                cn=0,n=41

     1135    12976           %NUMBER( NUM1=NUM_HEX );
             12984    2         CALL ASB$BINCHAR( AS_FIELD1.TEXT, 0, -1, NUM_HEX );

  12984  3 000031   200003 236100                    LDQ     @NUM_HEX,,AUTO
         3 000032   000000 235000 4                  LDA     0
         3 000033   200020 757100                    STAQ    BLK$+4,,AUTO
         3 000034   000002 237000 4                  LDAQ    2
         3 000035   200016 757100                    STAQ    BLK$+2,,AUTO
         3 000036   200016 630500                    EPPR0   BLK$+2,,AUTO
         3 000037   000022 631400 xsym               EPPR1   B_VECTNIL+18
         3 000040   000000 701000 xent               TSX1    ASB$BINCHAR
         3 000041   000000 011000                    NOP     0

     1136    13006           %SCREAM( ERR#=E$TOO_MANY_HEX, LEVEL=ERROR, MID='B' );

  13018  3 000042   000004 630400 4                  EPPR0   4
         3 000043   000017 631400 xsym               EPPR1   B_VECTNIL+15
         3 000044   000000 701000 xent               TSX1    ASH$ERROR
         3 000045   000000 011000                    NOP     0

     1137    13021    2      ALTRETURN;

  13021  3 000046   000000 702200 xent               TSX2  ! X66_AALT

     1138    13022    2      END;
PL6.E3A0      #010=ASB$GET_HEX_VAL File=ASB$EXT.:E05TSI                          TUE 07/29/97 09:07 Page:277
     1139    13023    1   NUM_FOUND = 0;

  13023  3 000047   200011 450100                    STZ     NUM_FOUND,,AUTO

     1140    13024    2   DO K = 1 TO SUBS;

  13024  3 000050   000001 235007                    LDA     1,DL
         3 000051   200012 755100                    STA     K,,AUTO
         3 000052   000235 710000 3                  TRA     s:13095+3

     1141    13025    2      IF PTR$->P$NODE.SUBLK$(K-1)->P$NODE.CODE = %HEX_VAL THEN

  13025  3 000053   200005 470500                    LDP0    @PTR$,,AUTO
         3 000054   000000 471500                    LDP1    0,,PR0
         3 000055   200012 720100                    LXL0    K,,AUTO
         3 000056   100002 473510                    LDP3    2,X0,PR1
         3 000057   300000 721100                    LXL1    0,,PR3
         3 000060   000026 101003                    CMPX1   22,DU
         3 000061   000122 601000 3                  TNZ     s:13056

     1142    13026    3      DO;

     1143    13027    3         BLK$ = PTR$ -> P$NODE.SUBLK$(K-1) -> P$NODE.SUBLK$(0) ;

  13027  3 000062   300003 236100                    LDQ     3,,PR3
         3 000063   200014 756100                    STQ     BLK$,,AUTO

     1144    13028    3         CALL ASD$HEX2OCT( OUT$SYM, VAL )

  13028  3 000064   200007 634500                    EPPR4   VAL,,AUTO
         3 000065   200017 454500                    STP4    BLK$+3,,AUTO
         3 000066   200016 756100                    STQ     BLK$+2,,AUTO
         3 000067   200016 630500                    EPPR0   BLK$+2,,AUTO
         3 000070   000020 631400 xsym               EPPR1   B_VECTNIL+16
         3 000071   000000 701000 xent               TSX1    ASD$HEX2OCT
         3 000072   000074 702000 3                  TSX2    s:13034
         3 000073   000112 710000 3                  TRA     s:13053
PL6.E3A0      #010=ASB$GET_HEX_VAL File=ASB$EXT.:E05TSI                          TUE 07/29/97 09:07 Page:278

     1145    13029    4         WHENALTRETURN DO;

     1146    13030        /*E*  ERROR:  ASB-E$ILLEGALHEX-C
     1147    13031           MESSAGE: Illegal HEX character in "%U1"
     1148    13032           MESSAGE1: Hexidecimal characters are 0-9 and A-F
     1149    13033        */
     1150    13034    4            AS_FIELD1.COUNT = OUT$SYM.COUNT;

  13034  3 000074   200014 470500                    LDP0    BLK$,,AUTO
         3 000075   000004 236100                    LDQ     4,,PR0
         3 000076   000000 552040 xsym               STBQ    AS_FIELD1,'40'O

     1151    13035    4            AS_FIELD1.TEXT = OUT$SYM.TEXT;

  13035  3 000077   000004 236100                    LDQ     4,,PR0
         3 000100   000033 772000                    QRL     27
         3 000101   000000 620006                    EAX0    0,QL
         3 000102   040000 100540                    MLR     fill='040'O
         3 000103   000004 200010                    ADSC9   4,,PR0                   cn=1,n=*X0
         3 000104   000000 200050 xsym               ADSC9   AS_FIELD1                cn=1,n=40

     1152    13036                 %SCREAM( ERR#=E$ILLEGALHEX, MID='B', LEVEL=ERROR );

  13048  3 000105   000005 630400 4                  EPPR0   5
         3 000106   000017 631400 xsym               EPPR1   B_VECTNIL+15
         3 000107   000000 701000 xent               TSX1    ASH$ERROR
         3 000110   000000 011000                    NOP     0

     1153    13051    4            ALTRETURN;

  13051  3 000111   000000 702200 xent               TSX2  ! X66_AALT

     1154    13052    4            END; /*  Whenaltreturn  */
     1155    13053    3         NUM_FOUND = NUM_FOUND + 1;

  13053  3 000112   200011 235100                    LDA     NUM_FOUND,,AUTO
PL6.E3A0      #010=ASB$GET_HEX_VAL File=ASB$EXT.:E05TSI                          TUE 07/29/97 09:07 Page:279
         3 000113   000001 035007                    ADLA    1,DL
         3 000114   200011 755100                    STA     NUM_FOUND,,AUTO

     1156    13054    3         HEX_ARRAY (NUM_FOUND) = VAL;

  13054  3 000115   200004 470500                    LDP0    @HEX_ARRAY,,AUTO
         3 000116   000105 101500                    MRL     fill='000'O
         3 000117   200007 000004                    ADSC9   VAL,,AUTO                cn=0,n=4
         3 000120   000000 000001                    ADSC9   0,A,PR0                  cn=0,n=1

     1157    13055    3         END;

  13055  3 000121   000232 710000 3                  TRA     s:13095

     1158    13056    2      ELSE IF PTR$->P$NODE.SUBLK$(K-1)->P$NODE.CODE = %HSTRING4_VAL

  13056  3 000122   001002 101003                    CMPX1   514,DU
         3 000123   000171 601000 3                  TNZ     s:13084

     1159    13057    3         THEN DO;

     1160    13058    3            BLK$ = PTR$ -> P$NODE.SUBLK$(K-1) ;

  13058  3 000124   100002 236110                    LDQ     2,X0,PR1
         3 000125   200014 756100                    STQ     BLK$,,AUTO

     1161    13059    3            CALL ASD$HEX2OCT( OUT$SYM, VAL )

  13059  3 000126   200007 634500                    EPPR4   VAL,,AUTO
         3 000127   200017 454500                    STP4    BLK$+3,,AUTO
         3 000130   200016 756100                    STQ     BLK$+2,,AUTO
         3 000131   200016 630500                    EPPR0   BLK$+2,,AUTO
         3 000132   000020 631400 xsym               EPPR1   B_VECTNIL+16
         3 000133   000000 701000 xent               TSX1    ASD$HEX2OCT
         3 000134   000136 702000 3                  TSX2    s:13061
         3 000135   000154 710000 3                  TRA     s:13080

PL6.E3A0      #010=ASB$GET_HEX_VAL File=ASB$EXT.:E05TSI                          TUE 07/29/97 09:07 Page:280
     1162    13060    4            WHENALTRETURN DO;

     1163    13061    4               AS_FIELD1.COUNT = OUT$SYM.COUNT;

  13061  3 000136   200014 470500                    LDP0    BLK$,,AUTO
         3 000137   000004 236100                    LDQ     4,,PR0
         3 000140   000000 552040 xsym               STBQ    AS_FIELD1,'40'O

     1164    13062    4               AS_FIELD1.TEXT = OUT$SYM.TEXT;

  13062  3 000141   000004 236100                    LDQ     4,,PR0
         3 000142   000033 772000                    QRL     27
         3 000143   000000 620006                    EAX0    0,QL
         3 000144   040000 100540                    MLR     fill='040'O
         3 000145   000004 200010                    ADSC9   4,,PR0                   cn=1,n=*X0
         3 000146   000000 200050 xsym               ADSC9   AS_FIELD1                cn=1,n=40

     1165    13063                    %SCREAM( ERR#=E$ILLEGALHEX, MID='B', LEVEL=ERROR );

  13075  3 000147   000005 630400 4                  EPPR0   5
         3 000150   000017 631400 xsym               EPPR1   B_VECTNIL+15
         3 000151   000000 701000 xent               TSX1    ASH$ERROR
         3 000152   000000 011000                    NOP     0

     1166    13078    4               ALTRETURN;

  13078  3 000153   000000 702200 xent               TSX2  ! X66_AALT

     1167    13079    4               END; /*  Whenaltreturn  */
     1168    13080    3            NUM_FOUND = NUM_FOUND + 2;

  13080  3 000154   200011 235100                    LDA     NUM_FOUND,,AUTO
         3 000155   000002 035007                    ADLA    2,DL
         3 000156   200011 755100                    STA     NUM_FOUND,,AUTO

     1169    13081    3            HEX_ARRAY (NUM_FOUND-1) = OCTAL.VAL(0);

PL6.E3A0      #010=ASB$GET_HEX_VAL File=ASB$EXT.:E05TSI                          TUE 07/29/97 09:07 Page:281
  13081  3 000157   200011 236100                    LDQ     NUM_FOUND,,AUTO
         3 000160   000011 402007                    MPY     9,DL
         3 000161   200004 470500                    LDP0    @HEX_ARRAY,,AUTO
         3 000162   003106 061500                    CSR     bolr='003'O
         3 000163   200007 420010                    BDSC    VAL,,AUTO                by=2,bit=2,n=8
         3 000164   077777 600011                    BDSC    -1,Q,PR0                 by=3,bit=0,n=9

     1170    13082    3            HEX_ARRAY (NUM_FOUND) = OCTAL.VAL(1);

  13082  3 000165   003106 061500                    CSR     bolr='003'O
         3 000166   200007 610010                    BDSC    VAL,,AUTO                by=3,bit=1,n=8
         3 000167   000000 000011                    BDSC    0,Q,PR0                  by=0,bit=0,n=9

     1171    13083    3            END; /*  Else if HSTRING4  */

  13083  3 000170   000232 710000 3                  TRA     s:13095

     1172    13084    2         ELSE IF PTR$->P$NODE.SUBLK$(K-1)->P$NODE.CODE = %STRING_VAL THEN

  13084  3 000171   000030 101003                    CMPX1   24,DU
         3 000172   000232 601000 3                  TNZ     s:13095

     1173    13085    3            DO;

     1174    13086    3               BLK$ = PTR$ -> P$NODE.SUBLK$(K-1);

  13086  3 000173   100002 236110                    LDQ     2,X0,PR1
         3 000174   200014 756100                    STQ     BLK$,,AUTO

     1175    13087    4               DO L=0 TO OUT$SYM.COUNT-1;

  13087  3 000175   200013 450100                    STZ     L,,AUTO
         3 000176   000223 710000 3                  TRA     s:13090+3

     1176    13088    4                  NUM_FOUND = NUM_FOUND + 1;

  13088  3 000177   200011 235100                    LDA     NUM_FOUND,,AUTO
PL6.E3A0      #010=ASB$GET_HEX_VAL File=ASB$EXT.:E05TSI                          TUE 07/29/97 09:07 Page:282
         3 000200   000001 035007                    ADLA    1,DL
         3 000201   200011 755100                    STA     NUM_FOUND,,AUTO

     1177    13089    4                  HEX_ARRAY (NUM_FOUND) = ASCBIN (SUBSTR (OUT$SYM.TEXT,L,1));

  13089  3 000202   200014 470500                    LDP0    BLK$,,AUTO
         3 000203   000004 236100                    LDQ     4,,PR0
         3 000204   000033 772000                    QRL     27
         3 000205   200013 235100                    LDA     L,,AUTO
         3 000206   000100 101505                    MRL     fill='000'O
         3 000207   000004 200001                    ADSC9   4,A,PR0                  cn=1,n=1
         3 000210   200016 000004                    ADSC9   BLK$+2,,AUTO             cn=0,n=4
         3 000211   200016 236100                    LDQ     BLK$+2,,AUTO
         3 000212   200017 756100                    STQ     BLK$+3,,AUTO
         3 000213   200004 471500                    LDP1    @HEX_ARRAY,,AUTO
         3 000214   200011 235100                    LDA     NUM_FOUND,,AUTO
         3 000215   000105 101500                    MRL     fill='000'O
         3 000216   200017 000004                    ADSC9   BLK$+3,,AUTO             cn=0,n=4
         3 000217   100000 000001                    ADSC9   0,A,PR1                  cn=0,n=1

     1178    13090    4                  END; /*  Do for each character  */

  13090  3 000220   200013 236100                    LDQ     L,,AUTO
         3 000221   000001 036007                    ADLQ    1,DL
         3 000222   200013 756100                    STQ     L,,AUTO
         3 000223   200014 470500                    LDP0    BLK$,,AUTO
         3 000224   000004 236100                    LDQ     4,,PR0
         3 000225   000033 772000                    QRL     27
         3 000226   200013 116100                    CMPQ    L,,AUTO
         3 000227   000231 600000 3                  TZE     s:13091
         3 000230   000177 603000 3                  TRC     s:13088

     1179    13091    3               END; /*  Else if  */

  13091  3 000231   000232 710000 3                  TRA     s:13095

     1180    13092    3            ELSE DO;
PL6.E3A0      #010=ASB$GET_HEX_VAL File=ASB$EXT.:E05TSI                          TUE 07/29/97 09:07 Page:283

     1181    13093        /*  Error - the parser accepted something that i am not expecting  */
     1182    13094    3               END;

     1183    13095    2      END;  /*  Do k  */

  13095  3 000232   200012 235100                    LDA     K,,AUTO
         3 000233   000001 035007                    ADLA    1,DL
         3 000234   200012 755100                    STA     K,,AUTO
         3 000235   200010 236100                    LDQ     SUBS,,AUTO
         3 000236   200012 116100                    CMPQ    K,,AUTO
         3 000237   000053 603000 3                  TRC     s:13025

     1184    13096    1   HEX_ARRAY (0) = NUM_FOUND;

  13096  3 000240   200004 470500                    LDP0    @HEX_ARRAY,,AUTO
         3 000241   000100 101500                    MRL     fill='000'O
         3 000242   200011 000004                    ADSC9   NUM_FOUND,,AUTO          cn=0,n=4
         3 000243   000000 000001                    ADSC9   0,,PR0                   cn=0,n=1

     1185    13097    1   RETURN;

  13097  3 000244   000000 702200 xent               TSX2  ! X66_ARET
     1186    13098
     1187    13099    1   END ASB$GET_HEX_VAL;
     1188    13100        %EOD;

PL6.E3A0      #010=ASB$GET_HEX_VAL File=ASB$EXT.:E05TSI                          TUE 07/29/97 09:07 Page:284
--  Include file information  --

   AS_SUPER_R.:E05TOU  cannot be made into a system file and is referenced.
   XU_FORMAT_C.:E05TOU  is referenced.
   XU_MACRO_C.:E05TOU  is referenced.
   KL_SUPER_C.:E05TOU  is referenced.
   AS_SUBS_C.:E05TOU  is referenced.
   AS_MAC_C.:E05TOU  cannot be made into a system file and is referenced.
   AS_SUPER_C.:E05TOU  is referenced.
   AS_PERR_C.:E05TOU  is referenced.
   CP_6.:E05TOU  cannot be made into a system file and is referenced.
   AS_ENTRIES_M.:E05TOU  is referenced.
   B$JIT_C.:E05TOU  was found in the system file and is never referenced.
   CP_6_C.:E05TOU  was found in the system file and is referenced.
      No diagnostics issued in procedure ASB$GET_HEX_VAL.
PL6.E3A0      #010=ASB$GET_HEX_VAL File=ASB$EXT.:E05TSI                          TUE 07/29/97 09:07 Page:285

 **** Variables and constants ****

  ****  Auto variables  ****

  ****  Scalars and arrays  ****
OctLoc.c.b A Datatyp(siz) R M Lvl/name                 OctLoc.c.b A Datatyp(siz) R M Lvl/name

     4-0-0/w PTR         r     1 @HEX_ARRAY                 3-0-0/w PTR         r     1 @NUM_HEX
     6-0-0/w PTR         r     1 @OPTION                    5-0-0/w PTR         r     1 @PTR$
    14-0-0/w PTR         r     1 BLK$
    *0-0-0/c UBIN(9)     r     1 HEX_ARRAY(0:255)
    12-0-0/w UBIN        r     1 K                         13-0-0/w UBIN        r     1 L
    11-0-0/w UBIN        r     1 NUM_FOUND                 *0-0-0/w UBIN        r     1 NUM_HEX
     7-0-0/w STRC        r     1 OCTAL                     *0-0-0/c STRC(288)   r     1 OPTION
    *0-0-0/w PTR         r     1 PTR$                      10-0-0/w UBIN        r     1 SUBS
     7-0-0/w UBIN        r     1 VAL

  ****  SYMREF variables  ****

  ****  Scalars and arrays  ****
OctLoc.c.b A Datatyp(siz) R M Lvl/name                 OctLoc.c.b A Datatyp(siz) R M Lvl/name

     0-0-0/w STRC(369)   r     1 AS_FIELD1

  ****  BASED and DCB variables  ****

  ****  Scalars and arrays  ****
OctLoc.c.b A Datatyp(siz) R M Lvl/name                 OctLoc.c.b A Datatyp(siz) R M Lvl/name

     0-0-0/w ASTR(153)   r     1 OUT$SYM                    0-0-0/w STRC(144)   r     1 P$NODE


   Procedure ASB$GET_HEX_VAL requires 165 words for executable code.
   Procedure ASB$GET_HEX_VAL requires 18 words of local(AUTO) storage.
PL6.E3A0      #010=ASB$GET_HEX_VAL File=ASB$EXT.:E05TSI                          TUE 07/29/97 09:07 Page:286
          *** CROSS REFERENCE LISTING ***
**     DENOTES     IDENTIFIER DEFINITION
<<                 IDENTIFIER'S VALUE SET
>>                 IDENTIFIER'S VALUE USED
<>                 IDENTIFIER SET AND/OR USED
--                 IDENTIFIER REFERENCED
PL6.E3A0      #010=ASB$GET_HEX_VAL File=ASB$EXT.:E05TSI                          TUE 07/29/97 09:07 Page:287
          MINI XREF LISTING

ASA_BRKS_LOC
     10005**DCL     10005--REDEF
ASB$BINCHAR
      2255**DCL-ENT 12984--CALL
ASD$HEX2OCT
     12959**DCL-ENT 13028--CALL    13059--CALL
ASH$ERROR
     12962**DCL-ENT 13018--CALL    13048--CALL    13075--CALL
AS_DEFAULT.BANNER_PERM
     10698**DCL     10699--REDEF
AS_DEFAULT.BUDGET.MACCT
     10603**DCL     10607--REDEF
AS_DEFAULT.BUDGET.MAX_PROJECTS
     10616**DCL     10619--REDEF
AS_DEFAULT.BUDGET.PACCUM
     10599**DCL     10601--REDEF
AS_DEFAULT.BUDGET.PMAXC
     10594**DCL     10596--REDEF
AS_DEFAULT.SETUP_CHRA.TXT
     10714**DCL     10715--REDEF   10716--REDEF
AS_DEFAULT_DREC.PASSWORD
     11968**DCL     11972--REDEF
AS_DEFAULT_DREC.RENAME
     11991**DCL     11992--REDEF
AS_DFLT.BANNER_PERM
     10520**DCL     10521--REDEF
AS_DFLT.BUDGET.MACCT
     10425**DCL     10429--REDEF
AS_DFLT.BUDGET.MAX_PROJECTS
     10438**DCL     10441--REDEF
AS_DFLT.BUDGET.PACCUM
     10421**DCL     10423--REDEF
PL6.E3A0      #010=ASB$GET_HEX_VAL File=ASB$EXT.:E05TSI                          TUE 07/29/97 09:07 Page:288
AS_DFLT.BUDGET.PMAXC
     10416**DCL     10418--REDEF
AS_DFLT.SETUP_CHRA.TXT
     10536**DCL     10537--REDEF   10538--REDEF
AS_FE_MODE
      9871**DCL      9872--REDEF
AS_FIELD1
     10001**DCL     12975<<ASSIGN
AS_FIELD1.COUNT
     10002**DCL     13034<<ASSIGN  13061<<ASSIGN
AS_FIELD1.TEXT
     10002**DCL     12984<>CALL    13035<<ASSIGN  13062<<ASSIGN
AS_MODE
      9868**DCL      9870--REDEF
AS_MOD_USER.ACCESS
     12733**DCL     12734--REDEF
AS_MOD_USER.BANNER
     12720**DCL     12721--REDEF
AS_MOD_USER.BANNER_PERM
     12722**DCL     12723--REDEF
AS_MOD_USER.BILL
     12728**DCL     12729--REDEF
AS_MOD_USER.CPROC
     12724**DCL     12725--REDEF
AS_MOD_USER.FEBILL
     12804**DCL     12805--REDEF
AS_MOD_USER.FECXTMEM
     12821**DCL     12822--REDEF
AS_MOD_USER.FEMINTS
     12806**DCL     12807--REDEF
AS_MOD_USER.FEMMEM
     12817**DCL     12818--REDEF
AS_MOD_USER.FEMTIME
     12815**DCL     12816--REDEF
AS_MOD_USER.FEPPRIV
     12812**DCL     12814--REDEF
PL6.E3A0      #010=ASB$GET_HEX_VAL File=ASB$EXT.:E05TSI                          TUE 07/29/97 09:07 Page:289
AS_MOD_USER.FEPRIV
     12809**DCL     12811--REDEF
AS_MOD_USER.FORCE_BIT
     12718**DCL     12719--REDEF
AS_MOD_USER.KEY
     12800**DCL     12802--REDEF
AS_MOD_USER.LASTCPROC
     12726**DCL     12727--REDEF
AS_MOD_USER.LIMITS.DO_
     12774**DCL     12775--REDEF
AS_MOD_USER.LIMITS.FPOOLS
     12790**DCL     12791--REDEF
AS_MOD_USER.LIMITS.LO
     12770**DCL     12771--REDEF
AS_MOD_USER.LIMITS.MEM
     12766**DCL     12767--REDEF
AS_MOD_USER.LIMITS.MPRIO
     12794**DCL     12795--REDEF
AS_MOD_USER.LIMITS.PDIS
     12782**DCL     12783--REDEF
AS_MOD_USER.LIMITS.PO
     12778**DCL     12779--REDEF
AS_MOD_USER.LIMITS.TDIS
     12786**DCL     12787--REDEF
AS_MOD_USER.LIMITS.TIME
     12762**DCL     12763--REDEF
AS_MOD_USER.MAXENQ
     12743**DCL     12744--REDEF
AS_MOD_USER.PERM_BIT
     12716**DCL     12717--REDEF
AS_MOD_USER.PPRIV
     12738**DCL     12740--REDEF
AS_MOD_USER.PRIOB
     12745**DCL     12746--REDEF
AS_MOD_USER.PRIV
     12735**DCL     12737--REDEF
PL6.E3A0      #010=ASB$GET_HEX_VAL File=ASB$EXT.:E05TSI                          TUE 07/29/97 09:07 Page:290
AS_MOD_USER.QUAN
     12741**DCL     12742--REDEF
AS_MOD_USER.SETUP
     12714**DCL     12715--REDEF
AS_PROJECT.BANNER_PERM
     11054**DCL     11055--REDEF
AS_PROJECT.BUDGET.MACCT
     10959**DCL     10963--REDEF
AS_PROJECT.BUDGET.MAX_PROJECTS
     10972**DCL     10975--REDEF
AS_PROJECT.BUDGET.PACCUM
     10955**DCL     10957--REDEF
AS_PROJECT.BUDGET.PMAXC
     10950**DCL     10952--REDEF
AS_PROJECT.SETUP_CHRA.TXT
     11070**DCL     11071--REDEF   11072--REDEF
AS_PROJECT_DFLT.BANNER_PERM
     11232**DCL     11233--REDEF
AS_PROJECT_DFLT.BUDGET.MACCT
     11137**DCL     11141--REDEF
AS_PROJECT_DFLT.BUDGET.MAX_PROJECTS
     11150**DCL     11153--REDEF
AS_PROJECT_DFLT.BUDGET.PACCUM
     11133**DCL     11135--REDEF
AS_PROJECT_DFLT.BUDGET.PMAXC
     11128**DCL     11130--REDEF
AS_PROJECT_DFLT.SETUP_CHRA.TXT
     11248**DCL     11249--REDEF   11250--REDEF
AS_PROJECT_DFLT_DREC.PASSWORD
     12454**DCL     12458--REDEF
AS_PROJECT_DFLT_DREC.RENAME
     12477**DCL     12478--REDEF
AS_PROJECT_DREC.PASSWORD
     12292**DCL     12296--REDEF
AS_PROJECT_DREC.RENAME
     12315**DCL     12316--REDEF
PL6.E3A0      #010=ASB$GET_HEX_VAL File=ASB$EXT.:E05TSI                          TUE 07/29/97 09:07 Page:291
AS_PROJ_ADMIN.BANNER_PERM
     10876**DCL     10877--REDEF
AS_PROJ_ADMIN.BUDGET.MACCT
     10781**DCL     10785--REDEF
AS_PROJ_ADMIN.BUDGET.MAX_PROJECTS
     10794**DCL     10797--REDEF
AS_PROJ_ADMIN.BUDGET.PACCUM
     10777**DCL     10779--REDEF
AS_PROJ_ADMIN.BUDGET.PMAXC
     10772**DCL     10774--REDEF
AS_PROJ_ADMIN.SETUP_CHRA.TXT
     10892**DCL     10893--REDEF   10894--REDEF
AS_PROJ_ADMIN_DREC.PASSWORD
     12130**DCL     12134--REDEF
AS_PROJ_ADMIN_DREC.RENAME
     12153**DCL     12154--REDEF
AS_USERS.BANNER_PERM
     10342**DCL     10343--REDEF
AS_USERS.BUDGET.MACCT
     10247**DCL     10251--REDEF
AS_USERS.BUDGET.MAX_PROJECTS
     10260**DCL     10263--REDEF
AS_USERS.BUDGET.PACCUM
     10243**DCL     10245--REDEF
AS_USERS.BUDGET.PMAXC
     10238**DCL     10240--REDEF
AS_USERS.SETUP_CHRA.TXT
     10358**DCL     10359--REDEF   10360--REDEF
AS_USERS_CONSTANT.BANNER_PERM
     11410**DCL     11411--REDEF
AS_USERS_CONSTANT.BUDGET.MACCT
     11315**DCL     11319--REDEF
AS_USERS_CONSTANT.BUDGET.MAX_PROJECTS
     11328**DCL     11331--REDEF
AS_USERS_CONSTANT.BUDGET.PACCUM
     11311**DCL     11313--REDEF
PL6.E3A0      #010=ASB$GET_HEX_VAL File=ASB$EXT.:E05TSI                          TUE 07/29/97 09:07 Page:292
AS_USERS_CONSTANT.BUDGET.PMAXC
     11306**DCL     11308--REDEF
AS_USERS_CONSTANT.SETUP_CHRA.TXT
     11426**DCL     11427--REDEF   11428--REDEF
BLK$
     12872**DCL     12881--IMP-PTR 13027<<ASSIGN  13028>>CALL    13028>>CALL    13034>>ASSIGN  13035>>ASSIGN
     13035>>ASSIGN  13058<<ASSIGN  13059>>CALL    13059>>CALL    13061>>ASSIGN  13062>>ASSIGN  13062>>ASSIGN
     13086<<ASSIGN  13087>>DOINDEX 13089>>ASSIGN  13089>>ASSIGN
ERR_CODE
     10000**DCL     10001--REDEF
HEX_ARRAY
     12859**DCL         7--PROC    12966<<ASSIGN  13054<<ASSIGN  13081<<ASSIGN  13082<<ASSIGN  13089<<ASSIGN
     13096<<ASSIGN
K
     12870**DCL     13024<<DOINDEX 13025>>IF      13027>>ASSIGN  13056>>IF      13058>>ASSIGN  13084>>IF
     13086>>ASSIGN
KL_DEFAULT.PASSWORD
     12616**DCL     12620--REDEF
KL_DEFAULT.RENAME
     12639**DCL     12640--REDEF
KL_DFLT.PASSWORD
     11806**DCL     11810--REDEF
KL_DFLT.RENAME
     11829**DCL     11830--REDEF
KL_DREC.PASSWORD
     11644**DCL     11648--REDEF
KL_DREC.RENAME
     11667**DCL     11668--REDEF
KL_DREC_CNT.PASSWORD
     11531**DCL     11535--REDEF
KL_DREC_CNT.RENAME
     11554**DCL     11555--REDEF
L
     12871**DCL     13087<<DOINDEX 13089>>ASSIGN
NUM_FOUND
     12869**DCL     12967<<ASSIGN  13023<<ASSIGN  13053<<ASSIGN  13053>>ASSIGN  13054>>ASSIGN  13080<<ASSIGN
PL6.E3A0      #010=ASB$GET_HEX_VAL File=ASB$EXT.:E05TSI                          TUE 07/29/97 09:07 Page:293
     13080>>ASSIGN  13081>>ASSIGN  13082>>ASSIGN  13088<<ASSIGN  13088>>ASSIGN  13089>>ASSIGN  13096>>ASSIGN
NUM_HEX
     12858**DCL         7--PROC    12970>>IF      12984<>CALL
OCTAL.VAL
     12867**DCL     13081>>ASSIGN  13082>>ASSIGN
OPTION
     12861**DCL         7--PROC    12975>>ASSIGN
OUT$SYM
     12881**DCL     13028<>CALL    13059<>CALL
OUT$SYM.COUNT
     12904**DCL     12907--IMP-SIZ 13028>>CALL    13034>>ASSIGN  13035>>ASSIGN  13059>>CALL    13061>>ASSIGN
     13062>>ASSIGN  13087>>DOINDEX 13089>>ASSIGN
OUT$SYM.TEXT
     12907**DCL     13035>>ASSIGN  13062>>ASSIGN  13089>>ASSIGN
P$NODE.CODE
     12927**DCL     12968>>IF      13025>>IF      13056>>IF      13084>>IF
P$NODE.SUBLK$
     12952**DCL     12968>>IF      13025>>IF      13027>>ASSIGN  13027>>ASSIGN  13056>>IF      13058>>ASSIGN
     13084>>IF      13086>>ASSIGN
P$NODE.SUBNODES
     12931**DCL     12969>>ASSIGN
PROJ_KEY.TEXT
      9878**DCL      9878--REDEF
PROJ_KEY.TXT.PROJECT
      9878**DCL      9878--REDEF
PTR$
     12860**DCL         7--PROC    12919--IMP-PTR 12968>>IF      12969>>ASSIGN  13025>>IF      13027>>ASSIGN
     13056>>IF      13058>>ASSIGN  13084>>IF      13086>>ASSIGN
REMEM_VAR
     10004**DCL     10004--REDEF
REM_FCMD
     10004**DCL     10005--REDEF
SUBS
     12868**DCL     12969<<ASSIGN  12970>>IF      13024>>DOINDEX
USERS_KEY.TEXT
      9875**DCL      9876--REDEF    9876--REDEF    9876--REDEF    9877--REDEF
PL6.E3A0      #010=ASB$GET_HEX_VAL File=ASB$EXT.:E05TSI                          TUE 07/29/97 09:07 Page:294
VAL
     12864**DCL     12865--REDEF   13028<>CALL    13054>>ASSIGN  13059<>CALL

PL6.E3A0      #011=ASB$SET_PROMPT File=ASB$EXT.:E05TSI                           TUE 07/29/97 09:08 Page:295
     1189        1        /*T***********************************************************/
     1190        2        /*T*                                                         */
     1191        3        /*T* Copyright (c) Bull HN Information Systems Inc., 1997    */
     1192        4        /*T*                                                         */
     1193        5        /*T***********************************************************/
     1194        6        %EJECT;
PL6.E3A0      #011=ASB$SET_PROMPT File=ASB$EXT.:E05TSI                           TUE 07/29/97 09:08 Page:296
     1195        7        /*D*  NAME:           ASB$SET_PROMPT
     1196        8              PURPOSE:        Sets the prompt requested, if not the current prompt
     1197        9              CALL:           CALL ASB$SET_PROMPT ( PROMPT_CODE );
     1198       10              INPUT:          PROMPT_CODE  -  sub code for the requested prompt.
     1199       11              OUTPUT:         NONE.
     1200       12              INTERFACE:      M$PROMPT    - sets up the prompt.
     1201       13                              ASH$ERROR   - reports errors
     1202       14              DESCRIPTION:    M$PROMPT is called if the requested prompt is not
     1203       15                              the current prompt.  If M$PROMPT altrets, then
     1204       16                              ASH$ERROR is called to report the error and the
     1205       17                              altreturn is taken.
     1206       18        */
     1207       19        ASB$SET_PROMPT: PROC  ( PROMPT_CODE, PROMPT_TEXT, PROMPT_LEN ) ALTRET;
     1208       20
     1209       21        %INCLUDE CP_6;
     1210      102        %INCLUDE CP_6_SUBS;
     1211      642        %INCLUDE AS_ENTRIES_M;
     1212     1692        %INCLUDE           AS_SUPER_C  ;
     1213     2127        %INCLUDE           AS_MAC_C    ;
     1214     2207        %INCLUDE           AS_SUBS_C   ;
     1215     3621        %INCLUDE           KL_SUPER_C  ;
     1216     6523        %INCLUDE           XU_MACRO_C  ;
     1217     9629        %INCLUDE           XU_FORMAT_C ;
     1218     9791        %INCLUDE           AS_SUPER_R  ;
     1219    12807
     1220    12808        %ASH$ERROR;
     1221    12811
     1222    12812        %B$TCB;
     1223    12815        %B$ALT;
     1224    12823
     1225    12824    1   DCL B$TCB$   PTR   SYMREF;
     1226    12825
     1227    12826    1   DCL PROMPT_CODE UBIN;
     1228    12827    1   DCL PROMPT_TEXT CHAR(31);
     1229    12828    1   DCL PROMPT_LEN  UBIN;
     1230    12829
     1231    12830        %FPT_PROMPT ( FPTN = CONSTANT_PROMPT ,
PL6.E3A0      #011=ASB$SET_PROMPT File=ASB$EXT.:E05TSI                           TUE 07/29/97 09:08 Page:297
     1232    12831                      DCB = M$UC ,
     1233    12832                      TRANS = NO ,
     1234    12833                      VFC = NO ,
     1235    12834                      STCLASS = CONSTANT ) ;
     1236    12862
     1237    12863        %FPT_PROMPT ( FPTN = AUTO_PROMPT ,
     1238    12864                      STCLASS = AUTO ) ;
     1239    12892
     1240    12893    1   DCL CMD_PROMPT CHAR(4) CONSTANT INIT('CMD*') ;
     1241    12894    1   DCL OPT_PROMPT CHAR(4) CONSTANT INIT('OPT*') ;
     1242    12895    1   DCL SUB_PROMPT CHAR(4) CONSTANT INIT('SUB*') ;
     1243    12896    1   DCL TXT_PROMPT CHAR(4) CONSTANT INIT('TXT*') ;
     1244    12897    1   DCL PROJ_PROMPT CHAR(5) CONSTANT INIT('PROJ*');
     1245    12898    1   DCL BREAK_PROMPT CHAR(22) CONSTANT INIT('Enter ''C'' to continue*') ;
     1246    12899    1   DCL PACK_PROMPT CHAR(8) CONSTANT INIT('*PACKSET') ;
     1247    12900
     1248    12901    1   DCL CMD_SET  BIT(1) STATIC INIT ('0'B);
     1249    12902    1   DCL OPT_SET  BIT(1) STATIC INIT ('0'B);
     1250    12903    1   DCL SUB_SET  BIT(1) STATIC INIT ('0'B);
     1251    12904    1   DCL TXT_SET  BIT(1) STATIC INIT ('0'B);
     1252    12905    1   DCL PROJ_SET  BIT(1) STATIC INIT ('0'B);
     1253    12906    1   DCL BREAK_SET  BIT(1) STATIC INIT ('0'B);
     1254    12907    1   DCL GENERAL_SET  BIT(1) STATIC INIT ('0'B);
     1255    12908
     1256    12909        /*  Begin procedure ASB$SET_PROMPT  */
     1257    12910
     1258    12911    1   AUTO_PROMPT = CONSTANT_PROMPT;
     1259    12912    1   AUTO_PROMPT.V_ = VECTOR ( AUTO_PROMPT.V );
     1260    12913
     1261    12914    2   DO SELECT ( PROMPT_CODE );
     1262    12915
     1263    12916    2      SELECT ( %PROMPT_CMD );
     1264    12917
     1265    12918    2      IF CMD_SET THEN RETURN;
     1266    12919    2      AUTO_PROMPT.PROMPT_ = VECTOR ( CMD_PROMPT );
     1267    12920    2      PROMPT_CHAR = CMD_PROMPT ;
     1268    12921    2      PROMPT_CNT = LENGTHC( CMD_PROMPT ) ;
PL6.E3A0      #011=ASB$SET_PROMPT File=ASB$EXT.:E05TSI                           TUE 07/29/97 09:08 Page:298
     1269    12922    2      CMD_SET = %YES#;
     1270    12923    2      OPT_SET = %NO#;
     1271    12924    2      SUB_SET = %NO#;
     1272    12925    2      TXT_SET = %NO#;
     1273    12926    2      PROJ_SET = %NO#;
     1274    12927    2      BREAK_SET = %NO#;
     1275    12928    2      GENERAL_SET = %NO#;
     1276    12929
     1277    12930    2      SELECT ( %PROMPT_OPT );
     1278    12931
     1279    12932    2      IF OPT_SET THEN RETURN;
     1280    12933    2      AUTO_PROMPT.PROMPT_ = VECTOR ( OPT_PROMPT );
     1281    12934    2      PROMPT_CHAR = OPT_PROMPT ;
     1282    12935    2      PROMPT_CNT = LENGTHC( OPT_PROMPT ) ;
     1283    12936    2      CMD_SET = %NO#;
     1284    12937    2      OPT_SET = %YES#;
     1285    12938    2      SUB_SET = %NO#;
     1286    12939    2      TXT_SET = %NO#;
     1287    12940    2      PROJ_SET = %NO#;
     1288    12941    2      BREAK_SET = %NO#;
     1289    12942    2      GENERAL_SET = %NO#;
     1290    12943
     1291    12944    2      SELECT ( %PROMPT_SUB );
     1292    12945
     1293    12946    2      IF SUB_SET THEN RETURN;
     1294    12947    2      AUTO_PROMPT.PROMPT_ = VECTOR ( SUB_PROMPT );
     1295    12948    2      PROMPT_CHAR = SUB_PROMPT ;
     1296    12949    2      PROMPT_CNT = LENGTHC( SUB_PROMPT ) ;
     1297    12950    2      CMD_SET = %NO#;
     1298    12951    2      OPT_SET = %NO#;
     1299    12952    2      SUB_SET = %YES#;
     1300    12953    2      TXT_SET = %NO#;
     1301    12954    2      PROJ_SET = %NO#;
     1302    12955    2      BREAK_SET = %NO#;
     1303    12956    2      GENERAL_SET = %NO#;
     1304    12957
     1305    12958    2      SELECT ( %PROMPT_TXT );
PL6.E3A0      #011=ASB$SET_PROMPT File=ASB$EXT.:E05TSI                           TUE 07/29/97 09:08 Page:299
     1306    12959
     1307    12960    2      IF TXT_SET THEN RETURN;
     1308    12961    2      AUTO_PROMPT.PROMPT_ = VECTOR ( TXT_PROMPT );
     1309    12962    2      PROMPT_CHAR = TXT_PROMPT ;
     1310    12963    2      PROMPT_CNT = LENGTHC( TXT_PROMPT ) ;
     1311    12964    2      CMD_SET = %NO#;
     1312    12965    2      OPT_SET = %NO#;
     1313    12966    2      SUB_SET = %NO#;
     1314    12967    2      TXT_SET = %YES#;
     1315    12968    2      PROJ_SET = %NO#;
     1316    12969    2      BREAK_SET = %NO#;
     1317    12970    2      GENERAL_SET = %NO#;
     1318    12971
     1319    12972    2      SELECT ( %PROMPT_PROJ );
     1320    12973
     1321    12974    2      IF PROJ_SET THEN RETURN;
     1322    12975    2      AUTO_PROMPT.PROMPT_ = VECTOR ( PROJ_PROMPT );
     1323    12976    2      PROMPT_CHAR = PROJ_PROMPT ;
     1324    12977    2      PROMPT_CNT = LENGTHC( PROJ_PROMPT ) ;
     1325    12978    2      CMD_SET = %NO#;
     1326    12979    2      OPT_SET = %NO#;
     1327    12980    2      SUB_SET = %NO#;
     1328    12981    2      TXT_SET = %NO#;
     1329    12982    2      PROJ_SET = %YES#;
     1330    12983    2      BREAK_SET = %NO#;
     1331    12984    2      GENERAL_SET = %NO#;
     1332    12985
     1333    12986    2      SELECT ( %PROMPT_BREAK );
     1334    12987
     1335    12988    2      AUTO_PROMPT.PROMPT_ = VECTOR ( BREAK_PROMPT );
     1336    12989    2      BREAK_SET = %YES#;
     1337    12990
     1338    12991    2      SELECT ( %PROMPT_GENERAL );
     1339    12992
     1340    12993    2      AUTO_PROMPT.PROMPT_ = VECTOR ( SUBSTR(PROMPT_TEXT,0,PROMPT_LEN) );
     1341    12994    2      GENERAL_SET = %YES#;
     1342    12995
PL6.E3A0      #011=ASB$SET_PROMPT File=ASB$EXT.:E05TSI                           TUE 07/29/97 09:08 Page:300
     1343    12996    2      SELECT ( %PROMPT_RESTORE );
     1344    12997
     1345    12998    2      AUTO_PROMPT.PROMPT_ = VECTOR( SUBSTR(PROMPT_CHAR,0,PROMPT_CNT) );
     1346    12999    2      BREAK_SET = %NO#;
     1347    13000    2      GENERAL_SET = %NO#;
     1348    13001    2      END;   /*  Do case ( PROMPT_CODE )  */
     1349    13002
     1350    13003    1   CALL M$PROMPT( AUTO_PROMPT );
     1351    13004
     1352    13005    1   RETURN;
     1353    13006
     1354    13007    1   END  ASB$SET_PROMPT;
     1355    13008        %EOD;

PL6.E3A0      #011=ASB$SET_PROMPT File=ASB$EXT.:E05TSI                           TUE 07/29/97 09:08 Page:301
--  Include file information  --

   AS_SUPER_R.:E05TOU  cannot be made into a system file and is referenced.
   XU_FORMAT_C.:E05TOU  is referenced.
   XU_MACRO_C.:E05TOU  is referenced.
   KL_SUPER_C.:E05TOU  is referenced.
   AS_SUBS_C.:E05TOU  is referenced.
   AS_MAC_C.:E05TOU  cannot be made into a system file and is referenced.
   AS_SUPER_C.:E05TOU  is referenced.
   AS_ENTRIES_M.:E05TOU  is referenced.
   CP_6_SUBS.:E05TOU  is referenced.
   CP_6.:E05TOU  cannot be made into a system file and is referenced.
   B$JIT_C.:E05TOU  was found in the system file and is never referenced.
   CP_6_C.:E05TOU  was found in the system file and is referenced.
      No diagnostics issued in procedure ASB$SET_PROMPT.

   Procedure ASB$SET_PROMPT requires 158 words for executable code.
   Procedure ASB$SET_PROMPT requires 18 words of local(AUTO) storage.

PL6.E3A0      #011=ASB$SET_PROMPT File=ASB$EXT.:E05TSI                           TUE 07/29/97 09:08 Page:302

 Object Unit name= ASB$SET_PROMPT                             File name= ASB$EXT.:E05TOU
 UTS= JUL 29 '97 09:08:14.92 TUE                              Compiler= PL-6/E31         Sev=      00
 SharedLib= :SHARED_SYSTEM                                    Alt SharedLib=


    ****  Control sections  ****

 Sect   Type Bound  Init  Size OctSiz  Section name(segment info)
    0   DCB   even  none     0      0  M$UC
    1   DCB   even  none     0      0  M$LO
    2  RoData even  UTS     24     30  ASB$SET_PROMPT
    3   Data  even  none     7      7  ASB$SET_PROMPT
    4   Proc  even  none   158    236  ASB$SET_PROMPT
    5  RoData even  none    14     16  ASB$SET_PROMPT

    ****  Entry defs  ****

                              Check   Calling
                             calling  sequence
  Sect OctLoc Primary Altret sequence   type   Parms  Name
     4      0   yes    yes     yes      Std        3  ASB$SET_PROMPT

  ****  Entry refs  ****

         Check        Calling
        calling       sequence
Altret sequence SRef   type   Args  Name
         yes          ~proc      0 XU_OUTPUT_OPTIONS
                       nStd      0 X66_AUTO_3
                       nStd      0 X66_ARET
PL6.E3A0      #011=ASB$SET_PROMPT File=ASB$EXT.:E05TSI                           TUE 07/29/97 09:08 Page:303

  ****  Data refs  ****

  Flags:  r = read only, s = secondary
Flgs Name                             Flgs Name                             Flgs Name
     M$UC                             r    AS_MODE                          r    AS_FE_MODE
     M$LO                                  ERR_CODE                              REMEM_VAR
     REM_FCMD                              ASA_BRKS_LOC                          PROMPT_CHAR
     PROMPT_CNT

  ****  Segment refs  ****

  Flags:  r = read only, s = secondary
Flgs Name                             Flgs Name                             Flgs Name
     ISSID                                 NULLSID
PL6.E3A0      #011=ASB$SET_PROMPT File=ASB$EXT.:E05TSI                           TUE 07/29/97 09:08 Page:304


     1189        1        /*T***********************************************************/
     1190        2        /*T*                                                         */
     1191        3        /*T* Copyright (c) Bull HN Information Systems Inc., 1997    */
     1192        4        /*T*                                                         */
     1193        5        /*T***********************************************************/
     1194        6        %EJECT;
PL6.E3A0      #011=ASB$SET_PROMPT File=ASB$EXT.:E05TSI                           TUE 07/29/97 09:08 Page:305
     1195        7        /*D*  NAME:           ASB$SET_PROMPT
     1196        8              PURPOSE:        Sets the prompt requested, if not the current prompt
     1197        9              CALL:           CALL ASB$SET_PROMPT ( PROMPT_CODE );
     1198       10              INPUT:          PROMPT_CODE  -  sub code for the requested prompt.
     1199       11              OUTPUT:         NONE.
     1200       12              INTERFACE:      M$PROMPT    - sets up the prompt.
     1201       13                              ASH$ERROR   - reports errors
     1202       14              DESCRIPTION:    M$PROMPT is called if the requested prompt is not
     1203       15                              the current prompt.  If M$PROMPT altrets, then
     1204       16                              ASH$ERROR is called to report the error and the
     1205       17                              altreturn is taken.
     1206       18        */
     1207       19        ASB$SET_PROMPT: PROC  ( PROMPT_CODE, PROMPT_TEXT, PROMPT_LEN ) ALTRET;

     19  4 000000   000000 700200 xent  ASB$SET_PRO* TSX0  ! X66_AUTO_3
         4 000001   000022 000003                    ZERO    18,3

     1208       20
     1209       21        %INCLUDE CP_6;
     1210      102        %INCLUDE CP_6_SUBS;
     1211      642        %INCLUDE AS_ENTRIES_M;
     1212     1692        %INCLUDE           AS_SUPER_C  ;
     1213     2127        %INCLUDE           AS_MAC_C    ;
     1214     2207        %INCLUDE           AS_SUBS_C   ;
     1215     3621        %INCLUDE           KL_SUPER_C  ;
     1216     6523        %INCLUDE           XU_MACRO_C  ;
     1217     9629        %INCLUDE           XU_FORMAT_C ;
     1218     9791        %INCLUDE           AS_SUPER_R  ;
     1219    12807
     1220    12808        %ASH$ERROR;
     1221    12811
     1222    12812        %B$TCB;
     1223    12815        %B$ALT;
     1224    12823
     1225    12824    1   DCL B$TCB$   PTR   SYMREF;
     1226    12825
     1227    12826    1   DCL PROMPT_CODE UBIN;
PL6.E3A0      #011=ASB$SET_PROMPT File=ASB$EXT.:E05TSI                           TUE 07/29/97 09:08 Page:306
     1228    12827    1   DCL PROMPT_TEXT CHAR(31);
     1229    12828    1   DCL PROMPT_LEN  UBIN;
     1230    12829
     1231    12830        %FPT_PROMPT ( FPTN = CONSTANT_PROMPT ,
     1232    12831                      DCB = M$UC ,
     1233    12832                      TRANS = NO ,
     1234    12833                      VFC = NO ,
     1235    12834                      STCLASS = CONSTANT ) ;
     1236    12862
     1237    12863        %FPT_PROMPT ( FPTN = AUTO_PROMPT ,
     1238    12864                      STCLASS = AUTO ) ;
     1239    12892
     1240    12893    1   DCL CMD_PROMPT CHAR(4) CONSTANT INIT('CMD*') ;
     1241    12894    1   DCL OPT_PROMPT CHAR(4) CONSTANT INIT('OPT*') ;
     1242    12895    1   DCL SUB_PROMPT CHAR(4) CONSTANT INIT('SUB*') ;
     1243    12896    1   DCL TXT_PROMPT CHAR(4) CONSTANT INIT('TXT*') ;
     1244    12897    1   DCL PROJ_PROMPT CHAR(5) CONSTANT INIT('PROJ*');
     1245    12898    1   DCL BREAK_PROMPT CHAR(22) CONSTANT INIT('Enter ''C'' to continue*') ;
     1246    12899    1   DCL PACK_PROMPT CHAR(8) CONSTANT INIT('*PACKSET') ;
     1247    12900
     1248    12901    1   DCL CMD_SET  BIT(1) STATIC INIT ('0'B);
     1249    12902    1   DCL OPT_SET  BIT(1) STATIC INIT ('0'B);
     1250    12903    1   DCL SUB_SET  BIT(1) STATIC INIT ('0'B);
     1251    12904    1   DCL TXT_SET  BIT(1) STATIC INIT ('0'B);
     1252    12905    1   DCL PROJ_SET  BIT(1) STATIC INIT ('0'B);
     1253    12906    1   DCL BREAK_SET  BIT(1) STATIC INIT ('0'B);
     1254    12907    1   DCL GENERAL_SET  BIT(1) STATIC INIT ('0'B);
     1255    12908
     1256    12909        /*  Begin procedure ASB$SET_PROMPT  */
     1257    12910
     1258    12911    1   AUTO_PROMPT = CONSTANT_PROMPT;

  12911  4 000002   000100 100400                    MLR     fill='000'O
         4 000003   000000 000050 2                  ADSC9   CONSTANT_PROMPT          cn=0,n=40
         4 000004   200006 000050                    ADSC9   AUTO_PROMPT,,AUTO        cn=0,n=40

     1259    12912    1   AUTO_PROMPT.V_ = VECTOR ( AUTO_PROMPT.V );
PL6.E3A0      #011=ASB$SET_PROMPT File=ASB$EXT.:E05TSI                           TUE 07/29/97 09:08 Page:307

  12912  4 000005   000000 235000 5                  LDA     0
         4 000006   200020 452500                    STP2    AUTO_PROMPT+10,,AUTO
         4 000007   200020 236100                    LDQ     AUTO_PROMPT+10,,AUTO
         4 000010   000014 036003                    ADLQ    12,DU
         4 000011   200006 757100                    STAQ    AUTO_PROMPT,,AUTO

     1260    12913
     1261    12914    2   DO SELECT ( PROMPT_CODE );

  12914  4 000012   200003 470500                    LDP0    @PROMPT_CODE,,AUTO
         4 000013   000000 236100                    LDQ     0,,PR0
         4 000014   000003 116007                    CMPQ    3,DL
         4 000015   000034 602000 4                  TNC     s:12914+18
         4 000016   000136 600000 4                  TZE     s:12960
         4 000017   000005 116007                    CMPQ    5,DL
         4 000020   000031 602000 4                  TNC     s:12914+15
         4 000021   000204 600000 4                  TZE     s:12988
         4 000022   000007 116007                    CMPQ    7,DL
         4 000023   000026 602000 4                  TNC     s:12914+12
         4 000024   000211 600000 4                  TZE     s:12993
         4 000025   000232 710000 4                  TRA     s:13003
         4 000026   000006 116007                    CMPQ    6,DL
         4 000027   000232 601000 4                  TNZ     s:13003
         4 000030   000223 710000 4                  TRA     s:12998
         4 000031   000004 116007                    CMPQ    4,DL
         4 000032   000232 601000 4                  TNZ     s:13003
         4 000033   000161 710000 4                  TRA     s:12974
         4 000034   000001 116007                    CMPQ    1,DL
         4 000035   000042 602000 4                  TNC     s:12914+24
         4 000036   000070 600000 4                  TZE     s:12932
         4 000037   000002 116007                    CMPQ    2,DL
         4 000040   000232 601000 4                  TNZ     s:13003
         4 000041   000113 710000 4                  TRA     s:12946
         4 000042   000000 116003                    CMPQ    0,DU
         4 000043   000045 600000 4                  TZE     s:12918
         4 000044   000232 710000 4                  TRA     s:13003
PL6.E3A0      #011=ASB$SET_PROMPT File=ASB$EXT.:E05TSI                           TUE 07/29/97 09:08 Page:308

     1262    12915
     1263    12916    2      SELECT ( %PROMPT_CMD );

     1264    12917
     1265    12918    2      IF CMD_SET THEN RETURN;

  12918  4 000045   000000 234000 3                  SZN     CMD_SET
         4 000046   000050 605000 4                  TPL     s:12919

  12918  4 000047   000000 702200 xent               TSX2  ! X66_ARET

     1266    12919    2      AUTO_PROMPT.PROMPT_ = VECTOR ( CMD_PROMPT );

  12919  4 000050   000002 237000 5                  LDAQ    2
         4 000051   200012 757100                    STAQ    AUTO_PROMPT+4,,AUTO

     1267    12920    2      PROMPT_CHAR = CMD_PROMPT ;

  12920  4 000052   040000 100400                    MLR     fill='040'O
         4 000053   000012 000004 2                  ADSC9   CMD_PROMPT               cn=0,n=4
         4 000054   000000 000037 xsym               ADSC9   PROMPT_CHAR              cn=0,n=31

     1268    12921    2      PROMPT_CNT = LENGTHC( CMD_PROMPT ) ;

  12921  4 000055   000004 235007                    LDA     4,DL
         4 000056   000000 755000 xsym               STA     PROMPT_CNT

     1269    12922    2      CMD_SET = %YES#;

  12922  4 000057   400000 236003                    LDQ     -131072,DU
         4 000060   000000 756000 3                  STQ     CMD_SET

     1270    12923    2      OPT_SET = %NO#;

  12923  4 000061   000001 450000 3                  STZ     OPT_SET

PL6.E3A0      #011=ASB$SET_PROMPT File=ASB$EXT.:E05TSI                           TUE 07/29/97 09:08 Page:309
     1271    12924    2      SUB_SET = %NO#;

  12924  4 000062   000002 450000 3                  STZ     SUB_SET

     1272    12925    2      TXT_SET = %NO#;

  12925  4 000063   000003 450000 3                  STZ     TXT_SET

     1273    12926    2      PROJ_SET = %NO#;

  12926  4 000064   000004 450000 3                  STZ     PROJ_SET

     1274    12927    2      BREAK_SET = %NO#;

  12927  4 000065   000005 450000 3                  STZ     BREAK_SET

     1275    12928    2      GENERAL_SET = %NO#;

  12928  4 000066   000006 450000 3                  STZ     GENERAL_SET
         4 000067   000232 710000 4                  TRA     s:13003

     1276    12929
     1277    12930    2      SELECT ( %PROMPT_OPT );

     1278    12931
     1279    12932    2      IF OPT_SET THEN RETURN;

  12932  4 000070   000001 234000 3                  SZN     OPT_SET
         4 000071   000073 605000 4                  TPL     s:12933

  12932  4 000072   000000 702200 xent               TSX2  ! X66_ARET

     1280    12933    2      AUTO_PROMPT.PROMPT_ = VECTOR ( OPT_PROMPT );

  12933  4 000073   000004 237000 5                  LDAQ    4
         4 000074   200012 757100                    STAQ    AUTO_PROMPT+4,,AUTO

PL6.E3A0      #011=ASB$SET_PROMPT File=ASB$EXT.:E05TSI                           TUE 07/29/97 09:08 Page:310
     1281    12934    2      PROMPT_CHAR = OPT_PROMPT ;

  12934  4 000075   040000 100400                    MLR     fill='040'O
         4 000076   000013 000004 2                  ADSC9   OPT_PROMPT               cn=0,n=4
         4 000077   000000 000037 xsym               ADSC9   PROMPT_CHAR              cn=0,n=31

     1282    12935    2      PROMPT_CNT = LENGTHC( OPT_PROMPT ) ;

  12935  4 000100   000004 235007                    LDA     4,DL
         4 000101   000000 755000 xsym               STA     PROMPT_CNT

     1283    12936    2      CMD_SET = %NO#;

  12936  4 000102   000000 450000 3                  STZ     CMD_SET

     1284    12937    2      OPT_SET = %YES#;

  12937  4 000103   400000 236003                    LDQ     -131072,DU
         4 000104   000001 756000 3                  STQ     OPT_SET

     1285    12938    2      SUB_SET = %NO#;

  12938  4 000105   000002 450000 3                  STZ     SUB_SET

     1286    12939    2      TXT_SET = %NO#;

  12939  4 000106   000003 450000 3                  STZ     TXT_SET

     1287    12940    2      PROJ_SET = %NO#;

  12940  4 000107   000004 450000 3                  STZ     PROJ_SET

     1288    12941    2      BREAK_SET = %NO#;

  12941  4 000110   000005 450000 3                  STZ     BREAK_SET

     1289    12942    2      GENERAL_SET = %NO#;
PL6.E3A0      #011=ASB$SET_PROMPT File=ASB$EXT.:E05TSI                           TUE 07/29/97 09:08 Page:311

  12942  4 000111   000006 450000 3                  STZ     GENERAL_SET
         4 000112   000232 710000 4                  TRA     s:13003

     1290    12943
     1291    12944    2      SELECT ( %PROMPT_SUB );

     1292    12945
     1293    12946    2      IF SUB_SET THEN RETURN;

  12946  4 000113   000002 234000 3                  SZN     SUB_SET
         4 000114   000116 605000 4                  TPL     s:12947

  12946  4 000115   000000 702200 xent               TSX2  ! X66_ARET

     1294    12947    2      AUTO_PROMPT.PROMPT_ = VECTOR ( SUB_PROMPT );

  12947  4 000116   000006 237000 5                  LDAQ    6
         4 000117   200012 757100                    STAQ    AUTO_PROMPT+4,,AUTO

     1295    12948    2      PROMPT_CHAR = SUB_PROMPT ;

  12948  4 000120   040000 100400                    MLR     fill='040'O
         4 000121   000014 000004 2                  ADSC9   SUB_PROMPT               cn=0,n=4
         4 000122   000000 000037 xsym               ADSC9   PROMPT_CHAR              cn=0,n=31

     1296    12949    2      PROMPT_CNT = LENGTHC( SUB_PROMPT ) ;

  12949  4 000123   000004 235007                    LDA     4,DL
         4 000124   000000 755000 xsym               STA     PROMPT_CNT

     1297    12950    2      CMD_SET = %NO#;

  12950  4 000125   000000 450000 3                  STZ     CMD_SET

     1298    12951    2      OPT_SET = %NO#;

PL6.E3A0      #011=ASB$SET_PROMPT File=ASB$EXT.:E05TSI                           TUE 07/29/97 09:08 Page:312
  12951  4 000126   000001 450000 3                  STZ     OPT_SET

     1299    12952    2      SUB_SET = %YES#;

  12952  4 000127   400000 236003                    LDQ     -131072,DU
         4 000130   000002 756000 3                  STQ     SUB_SET

     1300    12953    2      TXT_SET = %NO#;

  12953  4 000131   000003 450000 3                  STZ     TXT_SET

     1301    12954    2      PROJ_SET = %NO#;

  12954  4 000132   000004 450000 3                  STZ     PROJ_SET

     1302    12955    2      BREAK_SET = %NO#;

  12955  4 000133   000005 450000 3                  STZ     BREAK_SET

     1303    12956    2      GENERAL_SET = %NO#;

  12956  4 000134   000006 450000 3                  STZ     GENERAL_SET
         4 000135   000232 710000 4                  TRA     s:13003

     1304    12957
     1305    12958    2      SELECT ( %PROMPT_TXT );

     1306    12959
     1307    12960    2      IF TXT_SET THEN RETURN;

  12960  4 000136   000003 234000 3                  SZN     TXT_SET
         4 000137   000141 605000 4                  TPL     s:12961

  12960  4 000140   000000 702200 xent               TSX2  ! X66_ARET

     1308    12961    2      AUTO_PROMPT.PROMPT_ = VECTOR ( TXT_PROMPT );

PL6.E3A0      #011=ASB$SET_PROMPT File=ASB$EXT.:E05TSI                           TUE 07/29/97 09:08 Page:313
  12961  4 000141   000010 237000 5                  LDAQ    8
         4 000142   200012 757100                    STAQ    AUTO_PROMPT+4,,AUTO

     1309    12962    2      PROMPT_CHAR = TXT_PROMPT ;

  12962  4 000143   040000 100400                    MLR     fill='040'O
         4 000144   000015 000004 2                  ADSC9   TXT_PROMPT               cn=0,n=4
         4 000145   000000 000037 xsym               ADSC9   PROMPT_CHAR              cn=0,n=31

     1310    12963    2      PROMPT_CNT = LENGTHC( TXT_PROMPT ) ;

  12963  4 000146   000004 235007                    LDA     4,DL
         4 000147   000000 755000 xsym               STA     PROMPT_CNT

     1311    12964    2      CMD_SET = %NO#;

  12964  4 000150   000000 450000 3                  STZ     CMD_SET

     1312    12965    2      OPT_SET = %NO#;

  12965  4 000151   000001 450000 3                  STZ     OPT_SET

     1313    12966    2      SUB_SET = %NO#;

  12966  4 000152   000002 450000 3                  STZ     SUB_SET

     1314    12967    2      TXT_SET = %YES#;

  12967  4 000153   400000 236003                    LDQ     -131072,DU
         4 000154   000003 756000 3                  STQ     TXT_SET

     1315    12968    2      PROJ_SET = %NO#;

  12968  4 000155   000004 450000 3                  STZ     PROJ_SET

     1316    12969    2      BREAK_SET = %NO#;

PL6.E3A0      #011=ASB$SET_PROMPT File=ASB$EXT.:E05TSI                           TUE 07/29/97 09:08 Page:314
  12969  4 000156   000005 450000 3                  STZ     BREAK_SET

     1317    12970    2      GENERAL_SET = %NO#;

  12970  4 000157   000006 450000 3                  STZ     GENERAL_SET
         4 000160   000232 710000 4                  TRA     s:13003

     1318    12971
     1319    12972    2      SELECT ( %PROMPT_PROJ );

     1320    12973
     1321    12974    2      IF PROJ_SET THEN RETURN;

  12974  4 000161   000004 234000 3                  SZN     PROJ_SET
         4 000162   000164 605000 4                  TPL     s:12975

  12974  4 000163   000000 702200 xent               TSX2  ! X66_ARET

     1322    12975    2      AUTO_PROMPT.PROMPT_ = VECTOR ( PROJ_PROMPT );

  12975  4 000164   000012 237000 5                  LDAQ    10
         4 000165   200012 757100                    STAQ    AUTO_PROMPT+4,,AUTO

     1323    12976    2      PROMPT_CHAR = PROJ_PROMPT ;

  12976  4 000166   040000 100400                    MLR     fill='040'O
         4 000167   000016 000005 2                  ADSC9   PROJ_PROMPT              cn=0,n=5
         4 000170   000000 000037 xsym               ADSC9   PROMPT_CHAR              cn=0,n=31

     1324    12977    2      PROMPT_CNT = LENGTHC( PROJ_PROMPT ) ;

  12977  4 000171   000005 235007                    LDA     5,DL
         4 000172   000000 755000 xsym               STA     PROMPT_CNT

     1325    12978    2      CMD_SET = %NO#;

  12978  4 000173   000000 450000 3                  STZ     CMD_SET
PL6.E3A0      #011=ASB$SET_PROMPT File=ASB$EXT.:E05TSI                           TUE 07/29/97 09:08 Page:315

     1326    12979    2      OPT_SET = %NO#;

  12979  4 000174   000001 450000 3                  STZ     OPT_SET

     1327    12980    2      SUB_SET = %NO#;

  12980  4 000175   000002 450000 3                  STZ     SUB_SET

     1328    12981    2      TXT_SET = %NO#;

  12981  4 000176   000003 450000 3                  STZ     TXT_SET

     1329    12982    2      PROJ_SET = %YES#;

  12982  4 000177   400000 236003                    LDQ     -131072,DU
         4 000200   000004 756000 3                  STQ     PROJ_SET

     1330    12983    2      BREAK_SET = %NO#;

  12983  4 000201   000005 450000 3                  STZ     BREAK_SET

     1331    12984    2      GENERAL_SET = %NO#;

  12984  4 000202   000006 450000 3                  STZ     GENERAL_SET
         4 000203   000232 710000 4                  TRA     s:13003

     1332    12985
     1333    12986    2      SELECT ( %PROMPT_BREAK );

     1334    12987
     1335    12988    2      AUTO_PROMPT.PROMPT_ = VECTOR ( BREAK_PROMPT );

  12988  4 000204   000014 237000 5                  LDAQ    12
         4 000205   200012 757100                    STAQ    AUTO_PROMPT+4,,AUTO

     1336    12989    2      BREAK_SET = %YES#;
PL6.E3A0      #011=ASB$SET_PROMPT File=ASB$EXT.:E05TSI                           TUE 07/29/97 09:08 Page:316

  12989  4 000206   400000 236003                    LDQ     -131072,DU
         4 000207   000005 756000 3                  STQ     BREAK_SET
         4 000210   000232 710000 4                  TRA     s:13003

     1337    12990
     1338    12991    2      SELECT ( %PROMPT_GENERAL );

     1339    12992
     1340    12993    2      AUTO_PROMPT.PROMPT_ = VECTOR ( SUBSTR(PROMPT_TEXT,0,PROMPT_LEN) );

  12993  4 000211   200005 471500                    LDP1    @PROMPT_LEN,,AUTO
         4 000212   100000 720100                    LXL0    0,,PR1
         4 000213   000000 635010                    EAA     0,X0
         4 000214   000002 771000                    ARL     2
         4 000215   000140 135007                    SBLA    96,DL
         4 000216   200004 236100                    LDQ     @PROMPT_TEXT,,AUTO
         4 000217   200012 757100                    STAQ    AUTO_PROMPT+4,,AUTO

     1341    12994    2      GENERAL_SET = %YES#;

  12994  4 000220   400000 236003                    LDQ     -131072,DU
         4 000221   000006 756000 3                  STQ     GENERAL_SET
         4 000222   000232 710000 4                  TRA     s:13003

     1342    12995
     1343    12996    2      SELECT ( %PROMPT_RESTORE );

     1344    12997
     1345    12998    2      AUTO_PROMPT.PROMPT_ = VECTOR( SUBSTR(PROMPT_CHAR,0,PROMPT_CNT) );

  12998  4 000223   000000 235000 xsym               LDA     PROMPT_CNT
         4 000224   000020 735000                    ALS     16
         4 000225   000140 135007                    SBLA    96,DL
         4 000226   000001 236000 5                  LDQ     1
         4 000227   200012 757100                    STAQ    AUTO_PROMPT+4,,AUTO

PL6.E3A0      #011=ASB$SET_PROMPT File=ASB$EXT.:E05TSI                           TUE 07/29/97 09:08 Page:317
     1346    12999    2      BREAK_SET = %NO#;

  12999  4 000230   000005 450000 3                  STZ     BREAK_SET

     1347    13000    2      GENERAL_SET = %NO#;

  13000  4 000231   000006 450000 3                  STZ     GENERAL_SET

     1348    13001    2      END;   /*  Do case ( PROMPT_CODE )  */

     1349    13002
     1350    13003    1   CALL M$PROMPT( AUTO_PROMPT );

  13003  4 000232   200006 630500                    EPPR0   AUTO_PROMPT,,AUTO
         4 000233   160002 713400                    CLIMB   57346
         4 000234   401000 401760                    pmme    nvectors=3

     1351    13004
     1352    13005    1   RETURN;

  13005  4 000235   000000 702200 xent               TSX2  ! X66_ARET
     1353    13006
     1354    13007    1   END  ASB$SET_PROMPT;
     1355    13008        %EOD;

PL6.E3A0      #011=ASB$SET_PROMPT File=ASB$EXT.:E05TSI                           TUE 07/29/97 09:08 Page:318
--  Include file information  --

   AS_SUPER_R.:E05TOU  cannot be made into a system file and is referenced.
   XU_FORMAT_C.:E05TOU  is referenced.
   XU_MACRO_C.:E05TOU  is referenced.
   KL_SUPER_C.:E05TOU  is referenced.
   AS_SUBS_C.:E05TOU  is referenced.
   AS_MAC_C.:E05TOU  cannot be made into a system file and is referenced.
   AS_SUPER_C.:E05TOU  is referenced.
   AS_ENTRIES_M.:E05TOU  is referenced.
   CP_6_SUBS.:E05TOU  is referenced.
   CP_6.:E05TOU  cannot be made into a system file and is referenced.
   B$JIT_C.:E05TOU  was found in the system file and is never referenced.
   CP_6_C.:E05TOU  was found in the system file and is referenced.
      No diagnostics issued in procedure ASB$SET_PROMPT.
PL6.E3A0      #011=ASB$SET_PROMPT File=ASB$EXT.:E05TSI                           TUE 07/29/97 09:08 Page:319

 **** Variables and constants ****

  ****  Section 002 RoData ASB$SET_PROMPT

  ****  Scalars and arrays  ****
OctLoc.c.b A Datatyp(siz) R M Lvl/name                 OctLoc.c.b A Datatyp(siz) R M Lvl/name

    20-0-0/c CHAR(22)    r     1 BREAK_PROMPT              12-0-0/c CHAR(4)     r     1 CMD_PROMPT
     0-0-0/d STRC(360)   r     1 CONSTANT_PROMPT           13-0-0/c CHAR(4)     r     1 OPT_PROMPT
    16-0-0/c CHAR(5)     r     1 PROJ_PROMPT               14-0-0/c CHAR(4)     r     1 SUB_PROMPT
    15-0-0/c CHAR(4)     r     1 TXT_PROMPT

  ****  Section 003  Data  ASB$SET_PROMPT

  ****  Scalars and arrays  ****
OctLoc.c.b A Datatyp(siz) R M Lvl/name                 OctLoc.c.b A Datatyp(siz) R M Lvl/name

     5-0-0/b BIT         r     1 BREAK_SET                  0-0-0/b BIT         r     1 CMD_SET
     6-0-0/b BIT         r     1 GENERAL_SET                1-0-0/b BIT         r     1 OPT_SET
     4-0-0/b BIT         r     1 PROJ_SET                   2-0-0/b BIT         r     1 SUB_SET
     3-0-0/b BIT         r     1 TXT_SET

  ****  Auto variables  ****

  ****  Scalars and arrays  ****
OctLoc.c.b A Datatyp(siz) R M Lvl/name                 OctLoc.c.b A Datatyp(siz) R M Lvl/name

     3-0-0/w PTR         r     1 @PROMPT_CODE               5-0-0/w PTR         r     1 @PROMPT_LEN
     4-0-0/w PTR         r     1 @PROMPT_TEXT               6-0-0/d STRC(360)   r     1 AUTO_PROMPT
    *0-0-0/w UBIN        r     1 PROMPT_CODE               *0-0-0/w UBIN        r     1 PROMPT_LEN
    *0-0-0/c CHAR(31)    r     1 PROMPT_TEXT

  ****  SYMREF variables  ****

  ****  Scalars and arrays  ****
OctLoc.c.b A Datatyp(siz) R M Lvl/name                 OctLoc.c.b A Datatyp(siz) R M Lvl/name

PL6.E3A0      #011=ASB$SET_PROMPT File=ASB$EXT.:E05TSI                           TUE 07/29/97 09:08 Page:320
     0-0-0/c CHAR(31)    r     1 PROMPT_CHAR                0-0-0/w UBIN        r     1 PROMPT_CNT

  ****  BASED and DCB variables  ****

  ****  Scalars and arrays  ****
OctLoc.c.b A Datatyp(siz) R M Lvl/name                 OctLoc.c.b A Datatyp(siz) R M Lvl/name

     0-0-0N  NULL        r     1 M$UC


   Procedure ASB$SET_PROMPT requires 158 words for executable code.
   Procedure ASB$SET_PROMPT requires 18 words of local(AUTO) storage.
PL6.E3A0      #011=ASB$SET_PROMPT File=ASB$EXT.:E05TSI                           TUE 07/29/97 09:08 Page:321
          *** CROSS REFERENCE LISTING ***
**     DENOTES     IDENTIFIER DEFINITION
<<                 IDENTIFIER'S VALUE SET
>>                 IDENTIFIER'S VALUE USED
<>                 IDENTIFIER SET AND/OR USED
--                 IDENTIFIER REFERENCED
PL6.E3A0      #011=ASB$SET_PROMPT File=ASB$EXT.:E05TSI                           TUE 07/29/97 09:08 Page:322
          MINI XREF LISTING

ASA_BRKS_LOC
      9955**DCL      9955--REDEF
AS_DEFAULT.BANNER_PERM
     10648**DCL     10649--REDEF
AS_DEFAULT.BUDGET.MACCT
     10553**DCL     10557--REDEF
AS_DEFAULT.BUDGET.MAX_PROJECTS
     10566**DCL     10569--REDEF
AS_DEFAULT.BUDGET.PACCUM
     10549**DCL     10551--REDEF
AS_DEFAULT.BUDGET.PMAXC
     10544**DCL     10546--REDEF
AS_DEFAULT.SETUP_CHRA.TXT
     10664**DCL     10665--REDEF   10666--REDEF
AS_DEFAULT_DREC.PASSWORD
     11918**DCL     11922--REDEF
AS_DEFAULT_DREC.RENAME
     11941**DCL     11942--REDEF
AS_DFLT.BANNER_PERM
     10470**DCL     10471--REDEF
AS_DFLT.BUDGET.MACCT
     10375**DCL     10379--REDEF
AS_DFLT.BUDGET.MAX_PROJECTS
     10388**DCL     10391--REDEF
AS_DFLT.BUDGET.PACCUM
     10371**DCL     10373--REDEF
AS_DFLT.BUDGET.PMAXC
     10366**DCL     10368--REDEF
AS_DFLT.SETUP_CHRA.TXT
     10486**DCL     10487--REDEF   10488--REDEF
AS_FE_MODE
      9821**DCL      9822--REDEF
PL6.E3A0      #011=ASB$SET_PROMPT File=ASB$EXT.:E05TSI                           TUE 07/29/97 09:08 Page:323
AS_MODE
      9818**DCL      9820--REDEF
AS_MOD_USER.ACCESS
     12683**DCL     12684--REDEF
AS_MOD_USER.BANNER
     12670**DCL     12671--REDEF
AS_MOD_USER.BANNER_PERM
     12672**DCL     12673--REDEF
AS_MOD_USER.BILL
     12678**DCL     12679--REDEF
AS_MOD_USER.CPROC
     12674**DCL     12675--REDEF
AS_MOD_USER.FEBILL
     12754**DCL     12755--REDEF
AS_MOD_USER.FECXTMEM
     12771**DCL     12772--REDEF
AS_MOD_USER.FEMINTS
     12756**DCL     12757--REDEF
AS_MOD_USER.FEMMEM
     12767**DCL     12768--REDEF
AS_MOD_USER.FEMTIME
     12765**DCL     12766--REDEF
AS_MOD_USER.FEPPRIV
     12762**DCL     12764--REDEF
AS_MOD_USER.FEPRIV
     12759**DCL     12761--REDEF
AS_MOD_USER.FORCE_BIT
     12668**DCL     12669--REDEF
AS_MOD_USER.KEY
     12750**DCL     12752--REDEF
AS_MOD_USER.LASTCPROC
     12676**DCL     12677--REDEF
AS_MOD_USER.LIMITS.DO_
     12724**DCL     12725--REDEF
AS_MOD_USER.LIMITS.FPOOLS
     12740**DCL     12741--REDEF
PL6.E3A0      #011=ASB$SET_PROMPT File=ASB$EXT.:E05TSI                           TUE 07/29/97 09:08 Page:324
AS_MOD_USER.LIMITS.LO
     12720**DCL     12721--REDEF
AS_MOD_USER.LIMITS.MEM
     12716**DCL     12717--REDEF
AS_MOD_USER.LIMITS.MPRIO
     12744**DCL     12745--REDEF
AS_MOD_USER.LIMITS.PDIS
     12732**DCL     12733--REDEF
AS_MOD_USER.LIMITS.PO
     12728**DCL     12729--REDEF
AS_MOD_USER.LIMITS.TDIS
     12736**DCL     12737--REDEF
AS_MOD_USER.LIMITS.TIME
     12712**DCL     12713--REDEF
AS_MOD_USER.MAXENQ
     12693**DCL     12694--REDEF
AS_MOD_USER.PERM_BIT
     12666**DCL     12667--REDEF
AS_MOD_USER.PPRIV
     12688**DCL     12690--REDEF
AS_MOD_USER.PRIOB
     12695**DCL     12696--REDEF
AS_MOD_USER.PRIV
     12685**DCL     12687--REDEF
AS_MOD_USER.QUAN
     12691**DCL     12692--REDEF
AS_MOD_USER.SETUP
     12664**DCL     12665--REDEF
AS_PROJECT.BANNER_PERM
     11004**DCL     11005--REDEF
AS_PROJECT.BUDGET.MACCT
     10909**DCL     10913--REDEF
AS_PROJECT.BUDGET.MAX_PROJECTS
     10922**DCL     10925--REDEF
AS_PROJECT.BUDGET.PACCUM
     10905**DCL     10907--REDEF
PL6.E3A0      #011=ASB$SET_PROMPT File=ASB$EXT.:E05TSI                           TUE 07/29/97 09:08 Page:325
AS_PROJECT.BUDGET.PMAXC
     10900**DCL     10902--REDEF
AS_PROJECT.SETUP_CHRA.TXT
     11020**DCL     11021--REDEF   11022--REDEF
AS_PROJECT_DFLT.BANNER_PERM
     11182**DCL     11183--REDEF
AS_PROJECT_DFLT.BUDGET.MACCT
     11087**DCL     11091--REDEF
AS_PROJECT_DFLT.BUDGET.MAX_PROJECTS
     11100**DCL     11103--REDEF
AS_PROJECT_DFLT.BUDGET.PACCUM
     11083**DCL     11085--REDEF
AS_PROJECT_DFLT.BUDGET.PMAXC
     11078**DCL     11080--REDEF
AS_PROJECT_DFLT.SETUP_CHRA.TXT
     11198**DCL     11199--REDEF   11200--REDEF
AS_PROJECT_DFLT_DREC.PASSWORD
     12404**DCL     12408--REDEF
AS_PROJECT_DFLT_DREC.RENAME
     12427**DCL     12428--REDEF
AS_PROJECT_DREC.PASSWORD
     12242**DCL     12246--REDEF
AS_PROJECT_DREC.RENAME
     12265**DCL     12266--REDEF
AS_PROJ_ADMIN.BANNER_PERM
     10826**DCL     10827--REDEF
AS_PROJ_ADMIN.BUDGET.MACCT
     10731**DCL     10735--REDEF
AS_PROJ_ADMIN.BUDGET.MAX_PROJECTS
     10744**DCL     10747--REDEF
AS_PROJ_ADMIN.BUDGET.PACCUM
     10727**DCL     10729--REDEF
AS_PROJ_ADMIN.BUDGET.PMAXC
     10722**DCL     10724--REDEF
AS_PROJ_ADMIN.SETUP_CHRA.TXT
     10842**DCL     10843--REDEF   10844--REDEF
PL6.E3A0      #011=ASB$SET_PROMPT File=ASB$EXT.:E05TSI                           TUE 07/29/97 09:08 Page:326
AS_PROJ_ADMIN_DREC.PASSWORD
     12080**DCL     12084--REDEF
AS_PROJ_ADMIN_DREC.RENAME
     12103**DCL     12104--REDEF
AS_USERS.BANNER_PERM
     10292**DCL     10293--REDEF
AS_USERS.BUDGET.MACCT
     10197**DCL     10201--REDEF
AS_USERS.BUDGET.MAX_PROJECTS
     10210**DCL     10213--REDEF
AS_USERS.BUDGET.PACCUM
     10193**DCL     10195--REDEF
AS_USERS.BUDGET.PMAXC
     10188**DCL     10190--REDEF
AS_USERS.SETUP_CHRA.TXT
     10308**DCL     10309--REDEF   10310--REDEF
AS_USERS_CONSTANT.BANNER_PERM
     11360**DCL     11361--REDEF
AS_USERS_CONSTANT.BUDGET.MACCT
     11265**DCL     11269--REDEF
AS_USERS_CONSTANT.BUDGET.MAX_PROJECTS
     11278**DCL     11281--REDEF
AS_USERS_CONSTANT.BUDGET.PACCUM
     11261**DCL     11263--REDEF
AS_USERS_CONSTANT.BUDGET.PMAXC
     11256**DCL     11258--REDEF
AS_USERS_CONSTANT.SETUP_CHRA.TXT
     11376**DCL     11377--REDEF   11378--REDEF
AUTO_PROMPT
     12880**DCL     12911<<ASSIGN  13003<>CALL
AUTO_PROMPT.PROMPT_
     12886**DCL     12919<<ASSIGN  12933<<ASSIGN  12947<<ASSIGN  12961<<ASSIGN  12975<<ASSIGN  12988<<ASSIGN
     12993<<ASSIGN  12998<<ASSIGN
AUTO_PROMPT.V
     12888**DCL     12912--ASSIGN
AUTO_PROMPT.V_
PL6.E3A0      #011=ASB$SET_PROMPT File=ASB$EXT.:E05TSI                           TUE 07/29/97 09:08 Page:327
     12882**DCL     12912<<ASSIGN
B$ALT.CODE
     12817**DCL     12817--REDEF   12818--REDEF   12818--REDEF
B$ALT.ERR.ERR#
     12819**DCL     12819--REDEF
B$ALT.EVID
     12818**DCL     12818--REDEF   12818--REDEF
BREAK_PROMPT
     12898**DCL     12988--ASSIGN
BREAK_SET
     12906**DCL     12927<<ASSIGN  12941<<ASSIGN  12955<<ASSIGN  12969<<ASSIGN  12983<<ASSIGN  12989<<ASSIGN
     12999<<ASSIGN
CMD_PROMPT
     12893**DCL     12919--ASSIGN  12920>>ASSIGN  12921--ASSIGN
CMD_SET
     12901**DCL     12918>>IF      12922<<ASSIGN  12936<<ASSIGN  12950<<ASSIGN  12964<<ASSIGN  12978<<ASSIGN
CONSTANT_PROMPT
     12850**DCL     12911>>ASSIGN
CONSTANT_PROMPT.V
     12858**DCL     12852--DCLINIT
ERR_CODE
      9950**DCL      9951--REDEF
GENERAL_SET
     12907**DCL     12928<<ASSIGN  12942<<ASSIGN  12956<<ASSIGN  12970<<ASSIGN  12984<<ASSIGN  12994<<ASSIGN
     13000<<ASSIGN
KL_DEFAULT.PASSWORD
     12566**DCL     12570--REDEF
KL_DEFAULT.RENAME
     12589**DCL     12590--REDEF
KL_DFLT.PASSWORD
     11756**DCL     11760--REDEF
KL_DFLT.RENAME
     11779**DCL     11780--REDEF
KL_DREC.PASSWORD
     11594**DCL     11598--REDEF
KL_DREC.RENAME
PL6.E3A0      #011=ASB$SET_PROMPT File=ASB$EXT.:E05TSI                           TUE 07/29/97 09:08 Page:328
     11617**DCL     11618--REDEF
KL_DREC_CNT.PASSWORD
     11481**DCL     11485--REDEF
KL_DREC_CNT.RENAME
     11504**DCL     11505--REDEF
M$PROMPT
        54**DCL-ENT 13003--CALL
OPT_PROMPT
     12894**DCL     12933--ASSIGN  12934>>ASSIGN  12935--ASSIGN
OPT_SET
     12902**DCL     12923<<ASSIGN  12932>>IF      12937<<ASSIGN  12951<<ASSIGN  12965<<ASSIGN  12979<<ASSIGN
PROJ_KEY.TEXT
      9828**DCL      9828--REDEF
PROJ_KEY.TXT.PROJECT
      9828**DCL      9828--REDEF
PROJ_PROMPT
     12897**DCL     12975--ASSIGN  12976>>ASSIGN  12977--ASSIGN
PROJ_SET
     12905**DCL     12926<<ASSIGN  12940<<ASSIGN  12954<<ASSIGN  12968<<ASSIGN  12974>>IF      12982<<ASSIGN
PROMPT_CHAR
      9956**DCL     12920<<ASSIGN  12934<<ASSIGN  12948<<ASSIGN  12962<<ASSIGN  12976<<ASSIGN  12998--ASSIGN
PROMPT_CNT
      9956**DCL     12921<<ASSIGN  12935<<ASSIGN  12949<<ASSIGN  12963<<ASSIGN  12977<<ASSIGN  12998>>ASSIGN
PROMPT_CODE
     12826**DCL        19--PROC    12914>>DOSELCT
PROMPT_LEN
     12828**DCL        19--PROC    12993>>ASSIGN
PROMPT_TEXT
     12827**DCL        19--PROC    12993--ASSIGN
REMEM_VAR
      9954**DCL      9954--REDEF
REM_FCMD
      9954**DCL      9955--REDEF
SUB_PROMPT
     12895**DCL     12947--ASSIGN  12948>>ASSIGN  12949--ASSIGN
SUB_SET
PL6.E3A0      #011=ASB$SET_PROMPT File=ASB$EXT.:E05TSI                           TUE 07/29/97 09:08 Page:329
     12903**DCL     12924<<ASSIGN  12938<<ASSIGN  12946>>IF      12952<<ASSIGN  12966<<ASSIGN  12980<<ASSIGN
TXT_PROMPT
     12896**DCL     12961--ASSIGN  12962>>ASSIGN  12963--ASSIGN
TXT_SET
     12904**DCL     12925<<ASSIGN  12939<<ASSIGN  12953<<ASSIGN  12960>>IF      12967<<ASSIGN  12981<<ASSIGN
USERS_KEY.TEXT
      9825**DCL      9826--REDEF    9826--REDEF    9826--REDEF    9827--REDEF

PL6.E3A0      #012=ASC$CHECK_TIGR_WSN File=ASB$EXT.:E05TSI                       TUE 07/29/97 09:09 Page:330
     1356        1        /*T***********************************************************/
     1357        2        /*T*                                                         */
     1358        3        /*T* Copyright (c) Bull HN Information Systems Inc., 1997    */
     1359        4        /*T*                                                         */
     1360        5        /*T***********************************************************/
     1361        6        %EJECT;
PL6.E3A0      #012=ASC$CHECK_TIGR_WSN File=ASB$EXT.:E05TSI                       TUE 07/29/97 09:09 Page:331
     1362        7        ASC$CHECK_TIGR_WSN: PROC (TEXT$,WSN_INDEX)  ALTRET ;
     1363        8        %EJECT ;
PL6.E3A0      #012=ASC$CHECK_TIGR_WSN File=ASB$EXT.:E05TSI                       TUE 07/29/97 09:09 Page:332
     1364        9        /*********************************************************************/
     1365       10        /*   Parameters      parameters      parameters      parameters      */
     1366       11        /*********************************************************************/
     1367       12    1   DCL TEXT$  PTR;
     1368       13    1   DCL WSN_INDEX UBIN;
     1369       14        %EJECT;
PL6.E3A0      #012=ASC$CHECK_TIGR_WSN File=ASB$EXT.:E05TSI                       TUE 07/29/97 09:09 Page:333
     1370       15        /*********************************************************************/
     1371       16        /*   Include files   include files   include files   include files   */
     1372       17        /*********************************************************************/
     1373       18                                                                                      /**/
     1374       19              %INCLUDE AS_ENTRIES_M ;
     1375     1069              %INCLUDE AS_PERR_C ;
     1376     1671              %INCLUDE CP_6 ;
     1377     1752              %INCLUDE AS_SUPER_C ;
     1378     2187              %INCLUDE AS_MAC_C ;
     1379     2267              %INCLUDE AS_SUBS_C ;
     1380     3681              %INCLUDE KL_SUPER_C ;
     1381     6583              %INCLUDE XU_MACRO_C ;
     1382     9689              %INCLUDE XU_FORMAT_C ;
     1383     9851              %INCLUDE AS_SSUBS_C ;
     1384     9943              %INCLUDE B_ERRORS_C ;
     1385    11070              %INCLUDE TD$STRUCT ;
     1386    11171              %INCLUDE CP_6_SUBS ;
     1387    11711              %INCLUDE AS_SUPER_R ;
     1388    14727                                                                                      /**/
     1389    14728        %EJECT;
PL6.E3A0      #012=ASC$CHECK_TIGR_WSN File=ASB$EXT.:E05TSI                       TUE 07/29/97 09:09 Page:334
     1390    14729        /*********************************************************************/
     1391    14730        /*   Static data     static data     static data     static data     */
     1392    14731        /*********************************************************************/
     1393    14732                                                                                      /**/
     1394    14733    1   DCL 1 FILE_NAME CONSTANT ,
     1395    14734    1          2 COUNT UBIN(9) UNAL INIT(7) ,
     1396    14735    1          2 TEXT CHAR(31) UNAL INIT(':CONFIG') ;
     1397    14736        %EJECT ;
PL6.E3A0      #012=ASC$CHECK_TIGR_WSN File=ASB$EXT.:E05TSI                       TUE 07/29/97 09:09 Page:335
     1398    14737        /*********************************************************************/
     1399    14738        /*   Symref's        symref's        symref's        symref's        */
     1400    14739        /*********************************************************************/
     1401    14740                                                              /**/
     1402    14741    1   DCL B$TCB$ PTR SYMREF ;
     1403    14742        %EJECT ;
PL6.E3A0      #012=ASC$CHECK_TIGR_WSN File=ASB$EXT.:E05TSI                       TUE 07/29/97 09:09 Page:336
     1404    14743        /*********************************************************************/
     1405    14744        /*   Fpts            fpts            fpts            fpts            */
     1406    14745        /*********************************************************************/
     1407    14746                                                                                      /**/
     1408    14747          %FPT_OPEN(  FPTN = OPEN_FPT ,
     1409    14748                      NAME = FILE_NAME ,
     1410    14749                      ACCT = FILE_ACCT ,
     1411    14750                      ASN = FILE ,
     1412    14751                      DCB = M$CNFG ,
     1413    14752                      ACS = DIRECT ,
     1414    14753                      ORG = KEYED ,
     1415    14754                      FUN = IN ,
     1416    14755                      SHARE = ALL ) ;
     1417    14864          %FPT_CLOSE( FPTN = CLOSE_FPT ,
     1418    14865                      DCB = M$CNFG ,
     1419    14866                      DISP = SAVE ) ;
     1420    14908          %FPT_READ(  FPTN = READ_FPT ,
     1421    14909                      DCB = M$CNFG ,
     1422    14910                      KEYS = YES ) ;
     1423    14949        %EJECT ;
PL6.E3A0      #012=ASC$CHECK_TIGR_WSN File=ASB$EXT.:E05TSI                       TUE 07/29/97 09:09 Page:337
     1424    14950        /*********************************************************************/
     1425    14951        /*   Dcbs            dcbs            dcbs            dcbs            */
     1426    14952        /*********************************************************************/
     1427    14953                                                                                      /**/
     1428    14954    1   DCL M$CNFG DCB ;                              /* Read dcb for :CONFIG. */
     1429    14955        %EJECT ;
PL6.E3A0      #012=ASC$CHECK_TIGR_WSN File=ASB$EXT.:E05TSI                       TUE 07/29/97 09:09 Page:338
     1430    14956        /*********************************************************************/
     1431    14957        /*   Auto data       auto data       auto data       auto data       */
     1432    14958        /*********************************************************************/
     1433    14959                                                              /**/
     1434    14960    1   DCL TD$WSN$ PTR ;
     1435    14961    1   DCL ARS UBIN WORD ;
     1436    14962    1   DCL 1 KEY ALIGNED ,
     1437    14963    1          2 CNT UBIN BYTE UNAL ,
     1438    14964    1          2 TXT CHAR(31) UNAL ;
     1439    14965    1   DCL START2$ PTR ;
     1440    14966    1   DCL START2_SZ UBIN WORD ;
     1441    14967    1   DCL TEMPWSN CHAR(8) CALIGNED;
     1442    14968        %EJECT ;
PL6.E3A0      #012=ASC$CHECK_TIGR_WSN File=ASB$EXT.:E05TSI                       TUE 07/29/97 09:09 Page:339
     1443    14969        /*********************************************************************/
     1444    14970        /*   Entry dcls      entry dcls      entry dcls      entry dcls      */
     1445    14971        /*********************************************************************/
     1446    14972                                                              /**/
     1447    14973        %ASH$ERROR ;
     1448    14976        %ASB$GETSEG ;
     1449    14979        %EJECT ;
PL6.E3A0      #012=ASC$CHECK_TIGR_WSN File=ASB$EXT.:E05TSI                       TUE 07/29/97 09:09 Page:340
     1450    14980        /*********************************************************************/
     1451    14981        /*   Local based     local based     local based     local based     */
     1452    14982        /*********************************************************************/
     1453    14983                                                              /**/
     1454    14984              %B$ALT ;
     1455    14992              %B$TCB ;
     1456    14995              %TD$WSN(  NAME = TD$WSN ,
     1457    14996                        STCLASS="BASED( TD$WSN$ )") ;
     1458    15000    1   DCL 1 WSN   BASED (TEXT$),
     1459    15001    1          2  CNT      UBIN BYTE CALIGNED,
     1460    15002    1          2  TEXT     CHAR(8) CALIGNED;
     1461    15003        %EJECT ;
PL6.E3A0      #012=ASC$CHECK_TIGR_WSN File=ASB$EXT.:E05TSI                       TUE 07/29/97 09:09 Page:341
     1462    15004        /*********************************************************************/
     1463    15005        /*   Procedure       procedure       procedure       procedure       */
     1464    15006        /*********************************************************************/
     1465    15007                                                              /**/
     1466    15008        /*
     1467    15009            ***            Begin procedure                    ***
     1468    15010        */
     1469    15011    1   IF NOT DSEG_FLG THEN
     1470    15012    1      CALL ASB$GETSEG
     1471    15013    2      WHENALTRETURN DO;
     1472    15014              %SCREAM (ERR#=%E$GETSEGERR, LEVEL=ERROR, MID='C');
     1473    15029    2         WSN_INDEX = 4;
     1474    15030    2         RETURN ;
     1475    15031    2         END;   /*  Whenaltreturn from ASB$GETSEG  */
     1476    15032                                                              /* Open :CONFIG */
     1477    15033    1   CALL M$OPEN( OPEN_FPT ) ALTRET( ERR ) ;
     1478    15034                                                             /* get wsn rec */
     1479    15035    1   START2$ = PINCRW( DSEG1$, 1024 ) ;
     1480    15036    1   START2_SZ = DSEG1SIZE - 4 * 1024 ;
     1481    15037    1   ARS = START2_SZ ;
     1482    15038    1   TD$WSN$ = START2$ ;
     1483    15039    1   KEY.CNT = 3 ;
     1484    15040    1   KEY.TXT = 'WSN' ;
     1485    15041                                                              /**/
     1486    15042                                                              /*
     1487    15043                                                                   Set BUF$ in read fpt
     1488    15044                                                              */
     1489    15045    1   READ_FPT.BUF_.BUF$ = TD$WSN$ ;
     1490    15046    1   READ_FPT.BUF_.BOUND = ARS - 1;
     1491    15047    1   READ_FPT.KEY_ = VECTOR( KEY ) ;
     1492    15048    1   CALL M$READ( READ_FPT ) ALTRET( ERR ) ;
     1493    15049    1   TEMPWSN = ' ';
     1494    15050    1   SUBSTR(TEMPWSN,0,TEXT$->WSN.CNT) = TEXT$ -> WSN.TEXT;
     1495    15051        /*
     1496    15052          Find TEXT$ -> text in wsn rec
     1497    15053        */
     1498    15054    1   WSN_INDEX = 0;
PL6.E3A0      #012=ASC$CHECK_TIGR_WSN File=ASB$EXT.:E05TSI                       TUE 07/29/97 09:09 Page:342
     1499    15055    2   DO WHILE WSN_INDEX < 4;
     1500    15056    2      IF TD$WSN.WSNNAME(WSN_INDEX) = TEMPWSN THEN
     1501    15057    2         EXIT;
     1502    15058    2      WSN_INDEX = WSN_INDEX + 1;
     1503    15059    2      END; /*  Do while  */
     1504    15060
     1505    15061    1   CALL M$CLOSE( CLOSE_FPT ) ;
     1506    15062
     1507    15063    1   IF WSN_INDEX < 4 THEN
     1508    15064    1      RETURN;
     1509    15065    1   ELSE
     1510    15066    1      ALTRETURN;
     1511    15067                                                              /**/
     1512    15068                                                              /* Errors */
     1513    15069    1   ERR: ;
     1514    15070    1   ERR_CODE = B$TCB$ -> B$TCB.ALT$ -> B$ALT.ERR ;
     1515    15071    1   CALL ASH$ERROR( ERR_CODE ) ;
     1516    15072    1   AS_DCBNUM# = OPEN_FPT.V.DCB#;
     1517    15073    1   ERR_CODE = B$TCB$ -> B$TCB.ALT$ -> B$ALT.ERR ;
     1518    15074    1   ALTRETURN ;
     1519    15075                                                              /**/
     1520    15076    1   END   ASC$CHECK_TIGR_WSN ;
     1521    15077        %EOD;

PL6.E3A0      #012=ASC$CHECK_TIGR_WSN File=ASB$EXT.:E05TSI                       TUE 07/29/97 09:09 Page:343
--  Include file information  --

   AS_SUPER_R.:E05TOU  cannot be made into a system file and is referenced.
   CP_6_SUBS.:E05TOU  is referenced.
   TD$STRUCT.:E05TOU  is referenced.
   B_ERRORS_C.:E05TOU  is referenced.
   AS_SSUBS_C.:E05TOU  is referenced.
   XU_FORMAT_C.:E05TOU  is referenced.
   XU_MACRO_C.:E05TOU  is referenced.
   KL_SUPER_C.:E05TOU  is referenced.
   AS_SUBS_C.:E05TOU  is referenced.
   AS_MAC_C.:E05TOU  cannot be made into a system file and is referenced.
   AS_SUPER_C.:E05TOU  is referenced.
   CP_6.:E05TOU  cannot be made into a system file and is referenced.
   AS_PERR_C.:E05TOU  is referenced.
   AS_ENTRIES_M.:E05TOU  is referenced.
   B$JIT_C.:E05TOU  was found in the system file and is never referenced.
   CP_6_C.:E05TOU  was found in the system file and is referenced.
      No diagnostics issued in procedure ASC$CHECK_TIGR_WSN.

   Procedure ASC$CHECK_TIGR_WSN requires 108 words for executable code.
   Procedure ASC$CHECK_TIGR_WSN requires 22 words of local(AUTO) storage.

PL6.E3A0      #012=ASC$CHECK_TIGR_WSN File=ASB$EXT.:E05TSI                       TUE 07/29/97 09:09 Page:344

 Object Unit name= ASC$CHECK_TIGR_WSN                         File name= ASB$EXT.:E05TOU
 UTS= JUL 29 '97 09:09:12.24 TUE                              Compiler= PL-6/E31         Sev=      00
 SharedLib= :SHARED_SYSTEM                                    Alt SharedLib=


    ****  Control sections  ****

 Sect   Type Bound  Init  Size OctSiz  Section name(segment info)
    0   DCB   even  none     0      0  M$UC
    1   DCB   even  none     0      0  M$LO
    2  RoData even  UTS     10     12  ASC$CHECK_TIGR_WSN
    3   Data  even  none   102    146  ASC$CHECK_TIGR_WSN
    4   DCB   even  none     0      0  M$CNFG
    5   Proc  even  none   108    154  ASC$CHECK_TIGR_WSN
    6  RoData even  none     3      3  ASC$CHECK_TIGR_WSN

    ****  Entry defs  ****

                              Check   Calling
                             calling  sequence
  Sect OctLoc Primary Altret sequence   type   Parms  Name
     5      0   yes    yes     yes      Std        2  ASC$CHECK_TIGR_WSN

  ****  Entry refs  ****

         Check        Calling
        calling       sequence
Altret sequence SRef   type   Args  Name
         yes          ~proc      0 XU_OUTPUT_OPTIONS
 yes     yes           Std       0 ASB$GETSEG
         yes           Std       2 ASH$ERROR
                       nStd      0 X66_AUTO_2
                       Std       0 B_CONSPOOL_D
                       nStd      0 X66_ARET
                       nStd      0 X66_AALT
PL6.E3A0      #012=ASC$CHECK_TIGR_WSN File=ASB$EXT.:E05TSI                       TUE 07/29/97 09:09 Page:345

  ****  Data refs  ****

  Flags:  r = read only, s = secondary
Flgs Name                             Flgs Name                             Flgs Name
     M$UC                             r    AS_MODE                          r    AS_FE_MODE
     M$LO                                  ERR_CODE                              REMEM_VAR
     REM_FCMD                              ASA_BRKS_LOC                          DSEG_FLG
     DSEG1$                                DSEG1SIZE                             FILE_ACCT
     AS_DCBNUM#                            B$TCB$                                M$CNFG
     B_VECTNIL

  ****  Segment refs  ****

  Flags:  r = read only, s = secondary
Flgs Name                             Flgs Name                             Flgs Name
     ISSID                                 NULLSID
PL6.E3A0      #012=ASC$CHECK_TIGR_WSN File=ASB$EXT.:E05TSI                       TUE 07/29/97 09:09 Page:346


     1356        1        /*T***********************************************************/
     1357        2        /*T*                                                         */
     1358        3        /*T* Copyright (c) Bull HN Information Systems Inc., 1997    */
     1359        4        /*T*                                                         */
     1360        5        /*T***********************************************************/
     1361        6        %EJECT;
PL6.E3A0      #012=ASC$CHECK_TIGR_WSN File=ASB$EXT.:E05TSI                       TUE 07/29/97 09:09 Page:347
     1362        7        ASC$CHECK_TIGR_WSN: PROC (TEXT$,WSN_INDEX)  ALTRET ;

      7  5 000000   000000 700200 xent  ASC$CHECK_T* TSX0  ! X66_AUTO_2
         5 000001   000026 000002                    ZERO    22,2

     1363        8        %EJECT ;
PL6.E3A0      #012=ASC$CHECK_TIGR_WSN File=ASB$EXT.:E05TSI                       TUE 07/29/97 09:09 Page:348
     1364        9        /*********************************************************************/
     1365       10        /*   Parameters      parameters      parameters      parameters      */
     1366       11        /*********************************************************************/
     1367       12    1   DCL TEXT$  PTR;
     1368       13    1   DCL WSN_INDEX UBIN;
     1369       14        %EJECT;
PL6.E3A0      #012=ASC$CHECK_TIGR_WSN File=ASB$EXT.:E05TSI                       TUE 07/29/97 09:09 Page:349
     1370       15        /*********************************************************************/
     1371       16        /*   Include files   include files   include files   include files   */
     1372       17        /*********************************************************************/
     1373       18                                                                                      /**/
     1374       19              %INCLUDE AS_ENTRIES_M ;
     1375     1069              %INCLUDE AS_PERR_C ;
     1376     1671              %INCLUDE CP_6 ;
     1377     1752              %INCLUDE AS_SUPER_C ;
     1378     2187              %INCLUDE AS_MAC_C ;
     1379     2267              %INCLUDE AS_SUBS_C ;
     1380     3681              %INCLUDE KL_SUPER_C ;
     1381     6583              %INCLUDE XU_MACRO_C ;
     1382     9689              %INCLUDE XU_FORMAT_C ;
     1383     9851              %INCLUDE AS_SSUBS_C ;
     1384     9943              %INCLUDE B_ERRORS_C ;
     1385    11070              %INCLUDE TD$STRUCT ;
     1386    11171              %INCLUDE CP_6_SUBS ;
     1387    11711              %INCLUDE AS_SUPER_R ;
     1388    14727                                                                                      /**/
     1389    14728        %EJECT;
PL6.E3A0      #012=ASC$CHECK_TIGR_WSN File=ASB$EXT.:E05TSI                       TUE 07/29/97 09:09 Page:350
     1390    14729        /*********************************************************************/
     1391    14730        /*   Static data     static data     static data     static data     */
     1392    14731        /*********************************************************************/
     1393    14732                                                                                      /**/
     1394    14733    1   DCL 1 FILE_NAME CONSTANT ,
     1395    14734    1          2 COUNT UBIN(9) UNAL INIT(7) ,
     1396    14735    1          2 TEXT CHAR(31) UNAL INIT(':CONFIG') ;
     1397    14736        %EJECT ;
PL6.E3A0      #012=ASC$CHECK_TIGR_WSN File=ASB$EXT.:E05TSI                       TUE 07/29/97 09:09 Page:351
     1398    14737        /*********************************************************************/
     1399    14738        /*   Symref's        symref's        symref's        symref's        */
     1400    14739        /*********************************************************************/
     1401    14740                                                              /**/
     1402    14741    1   DCL B$TCB$ PTR SYMREF ;
     1403    14742        %EJECT ;
PL6.E3A0      #012=ASC$CHECK_TIGR_WSN File=ASB$EXT.:E05TSI                       TUE 07/29/97 09:09 Page:352
     1404    14743        /*********************************************************************/
     1405    14744        /*   Fpts            fpts            fpts            fpts            */
     1406    14745        /*********************************************************************/
     1407    14746                                                                                      /**/
     1408    14747          %FPT_OPEN(  FPTN = OPEN_FPT ,
     1409    14748                      NAME = FILE_NAME ,
     1410    14749                      ACCT = FILE_ACCT ,
     1411    14750                      ASN = FILE ,
     1412    14751                      DCB = M$CNFG ,
     1413    14752                      ACS = DIRECT ,
     1414    14753                      ORG = KEYED ,
     1415    14754                      FUN = IN ,
     1416    14755                      SHARE = ALL ) ;
     1417    14864          %FPT_CLOSE( FPTN = CLOSE_FPT ,
     1418    14865                      DCB = M$CNFG ,
     1419    14866                      DISP = SAVE ) ;
     1420    14908          %FPT_READ(  FPTN = READ_FPT ,
     1421    14909                      DCB = M$CNFG ,
     1422    14910                      KEYS = YES ) ;
     1423    14949        %EJECT ;
PL6.E3A0      #012=ASC$CHECK_TIGR_WSN File=ASB$EXT.:E05TSI                       TUE 07/29/97 09:09 Page:353
     1424    14950        /*********************************************************************/
     1425    14951        /*   Dcbs            dcbs            dcbs            dcbs            */
     1426    14952        /*********************************************************************/
     1427    14953                                                                                      /**/
     1428    14954    1   DCL M$CNFG DCB ;                              /* Read dcb for :CONFIG. */
     1429    14955        %EJECT ;
PL6.E3A0      #012=ASC$CHECK_TIGR_WSN File=ASB$EXT.:E05TSI                       TUE 07/29/97 09:09 Page:354
     1430    14956        /*********************************************************************/
     1431    14957        /*   Auto data       auto data       auto data       auto data       */
     1432    14958        /*********************************************************************/
     1433    14959                                                              /**/
     1434    14960    1   DCL TD$WSN$ PTR ;
     1435    14961    1   DCL ARS UBIN WORD ;
     1436    14962    1   DCL 1 KEY ALIGNED ,
     1437    14963    1          2 CNT UBIN BYTE UNAL ,
     1438    14964    1          2 TXT CHAR(31) UNAL ;
     1439    14965    1   DCL START2$ PTR ;
     1440    14966    1   DCL START2_SZ UBIN WORD ;
     1441    14967    1   DCL TEMPWSN CHAR(8) CALIGNED;
     1442    14968        %EJECT ;
PL6.E3A0      #012=ASC$CHECK_TIGR_WSN File=ASB$EXT.:E05TSI                       TUE 07/29/97 09:09 Page:355
     1443    14969        /*********************************************************************/
     1444    14970        /*   Entry dcls      entry dcls      entry dcls      entry dcls      */
     1445    14971        /*********************************************************************/
     1446    14972                                                              /**/
     1447    14973        %ASH$ERROR ;
     1448    14976        %ASB$GETSEG ;
     1449    14979        %EJECT ;
PL6.E3A0      #012=ASC$CHECK_TIGR_WSN File=ASB$EXT.:E05TSI                       TUE 07/29/97 09:09 Page:356
     1450    14980        /*********************************************************************/
     1451    14981        /*   Local based     local based     local based     local based     */
     1452    14982        /*********************************************************************/
     1453    14983                                                              /**/
     1454    14984              %B$ALT ;
     1455    14992              %B$TCB ;
     1456    14995              %TD$WSN(  NAME = TD$WSN ,
     1457    14996                        STCLASS="BASED( TD$WSN$ )") ;
     1458    15000    1   DCL 1 WSN   BASED (TEXT$),
     1459    15001    1          2  CNT      UBIN BYTE CALIGNED,
     1460    15002    1          2  TEXT     CHAR(8) CALIGNED;
     1461    15003        %EJECT ;
PL6.E3A0      #012=ASC$CHECK_TIGR_WSN File=ASB$EXT.:E05TSI                       TUE 07/29/97 09:09 Page:357
     1462    15004        /*********************************************************************/
     1463    15005        /*   Procedure       procedure       procedure       procedure       */
     1464    15006        /*********************************************************************/
     1465    15007                                                              /**/
     1466    15008        /*
     1467    15009            ***            Begin procedure                    ***
     1468    15010        */
     1469    15011    1   IF NOT DSEG_FLG THEN

  15011  5 000002   000000 234000 xsym               SZN     DSEG_FLG
         5 000003   000020 604000 5                  TMI     s:15033

     1470    15012    1      CALL ASB$GETSEG

  15012  5 000004   000002 631400 xsym               EPPR1   B_VECTNIL+2
         5 000005   000000 701000 xent               TSX1    ASB$GETSEG
         5 000006   000010 702000 5                  TSX2    s:15026
         5 000007   000020 710000 5                  TRA     s:15033

     1471    15013    2      WHENALTRETURN DO;

     1472    15014              %SCREAM (ERR#=%E$GETSEGERR, LEVEL=ERROR, MID='C');

  15026  5 000010   000000 630400 6                  EPPR0   0
         5 000011   000017 631400 xsym               EPPR1   B_VECTNIL+15
         5 000012   000000 701000 xent               TSX1    ASH$ERROR
         5 000013   000000 011000                    NOP     0

     1473    15029    2         WSN_INDEX = 4;

  15029  5 000014   000004 235007                    LDA     4,DL
         5 000015   200004 470500                    LDP0    @WSN_INDEX,,AUTO
         5 000016   000000 755100                    STA     0,,PR0

     1474    15030    2         RETURN ;

  15030  5 000017   000000 702200 xent               TSX2  ! X66_ARET
PL6.E3A0      #012=ASC$CHECK_TIGR_WSN File=ASB$EXT.:E05TSI                       TUE 07/29/97 09:09 Page:358

     1475    15031    2         END;   /*  Whenaltreturn from ASB$GETSEG  */
     1476    15032                                                              /* Open :CONFIG */
     1477    15033    1   CALL M$OPEN( OPEN_FPT ) ALTRET( ERR ) ;

  15033  5 000020   000000 630400 3                  EPPR0   OPEN_FPT
         5 000021   450000 713400                    CLIMB   alt,open
         5 000022   410400 401760                    pmme    nvectors=18
         5 000023   000134 702000 5                  TSX2    ERR

     1478    15034                                                             /* get wsn rec */
     1479    15035    1   START2$ = PINCRW( DSEG1$, 1024 ) ;

  15035  5 000024   000000 236000 xsym               LDQ     DSEG1$
         5 000025   002000 036003                    ADLQ    1024,DU
         5 000026   200017 756100                    STQ     START2$,,AUTO

     1480    15036    1   START2_SZ = DSEG1SIZE - 4 * 1024 ;

  15036  5 000027   000000 235000 xsym               LDA     DSEG1SIZE
         5 000030   010000 135007                    SBLA    4096,DL
         5 000031   200020 755100                    STA     START2_SZ,,AUTO

     1481    15037    1   ARS = START2_SZ ;

  15037  5 000032   200006 755100                    STA     ARS,,AUTO

     1482    15038    1   TD$WSN$ = START2$ ;

  15038  5 000033   200005 756100                    STQ     TD$WSN$,,AUTO

     1483    15039    1   KEY.CNT = 3 ;

  15039  5 000034   003000 236003                    LDQ     1536,DU
         5 000035   200007 552140                    STBQ    KEY,'40'O,AUTO

     1484    15040    1   KEY.TXT = 'WSN' ;
PL6.E3A0      #012=ASC$CHECK_TIGR_WSN File=ASB$EXT.:E05TSI                       TUE 07/29/97 09:09 Page:359

  15040  5 000036   040100 100400                    MLR     fill='040'O
         5 000037   000011 000003 2                  ADSC9   FILE_NAME+9              cn=0,n=3
         5 000040   200007 200037                    ADSC9   KEY,,AUTO                cn=1,n=31

     1485    15041                                                              /**/
     1486    15042                                                              /*
     1487    15043                                                                   Set BUF$ in read fpt
     1488    15044                                                              */
     1489    15045    1   READ_FPT.BUF_.BUF$ = TD$WSN$ ;

  15045  5 000041   200005 236100                    LDQ     TD$WSN$,,AUTO
         5 000042   000135 756000 3                  STQ     READ_FPT+5

     1490    15046    1   READ_FPT.BUF_.BOUND = ARS - 1;

  15046  5 000043   200006 236100                    LDQ     ARS,,AUTO
         5 000044   000001 136007                    SBLQ    1,DL
         5 000045   000020 736000                    QLS     16
         5 000046   000134 676000 3                  ERQ     READ_FPT+4
         5 000047   000034 376000 xsym               ANQ     B_VECTNIL+28
         5 000050   000134 656000 3                  ERSQ    READ_FPT+4

     1491    15047    1   READ_FPT.KEY_ = VECTOR( KEY ) ;

  15047  5 000051   000001 235000 6                  LDA     1
         5 000052   200024 452500                    STP2    TEMPWSN+3,,AUTO
         5 000053   200024 236100                    LDQ     TEMPWSN+3,,AUTO
         5 000054   000007 036003                    ADLQ    7,DU
         5 000055   000132 757000 3                  STAQ    READ_FPT+2

     1492    15048    1   CALL M$READ( READ_FPT ) ALTRET( ERR ) ;

  15048  5 000056   000130 630400 3                  EPPR0   READ_FPT
         5 000057   440000 713400                    CLIMB   alt,read
         5 000060   401400 401760                    pmme    nvectors=4
         5 000061   000134 702000 5                  TSX2    ERR
PL6.E3A0      #012=ASC$CHECK_TIGR_WSN File=ASB$EXT.:E05TSI                       TUE 07/29/97 09:09 Page:360

     1493    15049    1   TEMPWSN = ' ';

  15049  5 000062   000035 235000 xsym               LDA     B_VECTNIL+29
         5 000063   000035 236000 xsym               LDQ     B_VECTNIL+29
         5 000064   200021 755100                    STA     TEMPWSN,,AUTO
         5 000065   200022 756100                    STQ     TEMPWSN+1,,AUTO

     1494    15050    1   SUBSTR(TEMPWSN,0,TEXT$->WSN.CNT) = TEXT$ -> WSN.TEXT;

  15050  5 000066   200003 470500                    LDP0    @TEXT$,,AUTO
         5 000067   000000 471500                    LDP1    0,,PR0
         5 000070   000100 101500                    MRL     fill='000'O
         5 000071   100000 000001                    ADSC9   0,,PR1                   cn=0,n=1
         5 000072   200024 000002                    ADSC9   TEMPWSN+3,,AUTO          cn=0,n=2
         5 000073   200024 220100                    LDX0    TEMPWSN+3,,AUTO
         5 000074   000000 471500                    LDP1    0,,PR0
         5 000075   040140 100500                    MLR     fill='040'O
         5 000076   100000 200010                    ADSC9   0,,PR1                   cn=1,n=8
         5 000077   200021 000010                    ADSC9   TEMPWSN,,AUTO            cn=0,n=*X0

     1495    15051        /*
     1496    15052          Find TEXT$ -> text in wsn rec
     1497    15053        */
     1498    15054    1   WSN_INDEX = 0;

  15054  5 000100   200004 473500                    LDP3    @WSN_INDEX,,AUTO
         5 000101   300000 450100                    STZ     0,,PR3

     1499    15055    2   DO WHILE WSN_INDEX < 4;

  15055  5 000102   300000 235100                    LDA     0,,PR3
         5 000103   000004 115007                    CMPA    4,DL
         5 000104   000123 603000 5                  TRC     s:15061

     1500    15056    2      IF TD$WSN.WSNNAME(WSN_INDEX) = TEMPWSN THEN

PL6.E3A0      #012=ASC$CHECK_TIGR_WSN File=ASB$EXT.:E05TSI                       TUE 07/29/97 09:09 Page:361
  15056  5 000105   200004 470500                    LDP0    @WSN_INDEX,,AUTO
         5 000106   000000 235100                    LDA     0,,PR0
         5 000107   000001 735000                    ALS     1
         5 000110   000002 735000                    ALS     2
         5 000111   200005 471500                    LDP1    TD$WSN$,,AUTO
         5 000112   040100 106505                    CMPC    fill='040'O
         5 000113   100000 000010                    ADSC9   0,A,PR1                  cn=0,n=8
         5 000114   200021 000010                    ADSC9   TEMPWSN,,AUTO            cn=0,n=8
         5 000115   000123 600000 5                  TZE     s:15061

     1501    15057    2         EXIT;
     1502    15058    2      WSN_INDEX = WSN_INDEX + 1;

  15058  5 000116   000000 235100                    LDA     0,,PR0
         5 000117   000001 035007                    ADLA    1,DL
         5 000120   000000 755100                    STA     0,,PR0

     1503    15059    2      END; /*  Do while  */

  15059  5 000121   000004 115007                    CMPA    4,DL
         5 000122   000105 602000 5                  TNC     s:15056

     1504    15060
     1505    15061    1   CALL M$CLOSE( CLOSE_FPT ) ;

  15061  5 000123   000072 630400 3                  EPPR0   CLOSE_FPT
         5 000124   050001 713400                    CLIMB   close
         5 000125   406000 401760                    pmme    nvectors=13

     1506    15062
     1507    15063    1   IF WSN_INDEX < 4 THEN

  15063  5 000126   200004 470500                    LDP0    @WSN_INDEX,,AUTO
         5 000127   000000 235100                    LDA     0,,PR0
         5 000130   000004 115007                    CMPA    4,DL
         5 000131   000133 603000 5                  TRC     s:15066

PL6.E3A0      #012=ASC$CHECK_TIGR_WSN File=ASB$EXT.:E05TSI                       TUE 07/29/97 09:09 Page:362
     1508    15064    1      RETURN;

  15064  5 000132   000000 702200 xent               TSX2  ! X66_ARET

     1509    15065    1   ELSE
     1510    15066    1      ALTRETURN;

  15066  5 000133   000000 702200 xent               TSX2  ! X66_AALT

  15063  5 000134                       ERR          null
     1511    15067                                                              /**/
     1512    15068                                                              /* Errors */
     1513    15069    1   ERR: ;
     1514    15070    1   ERR_CODE = B$TCB$ -> B$TCB.ALT$ -> B$ALT.ERR ;

  15070  5 000134   000000 470400 xsym               LDP0    B$TCB$
         5 000135   000000 471500                    LDP1    0,,PR0
         5 000136   100102 236100                    LDQ     66,,PR1
         5 000137   000000 756000 xsym               STQ     ERR_CODE

     1515    15071    1   CALL ASH$ERROR( ERR_CODE ) ;

  15071  5 000140   000002 630400 6                  EPPR0   2
         5 000141   000017 631400 xsym               EPPR1   B_VECTNIL+15
         5 000142   000000 701000 xent               TSX1    ASH$ERROR
         5 000143   000000 011000                    NOP     0

     1516    15072    1   AS_DCBNUM# = OPEN_FPT.V.DCB#;

  15072  5 000144   000044 235000 3                  LDA     OPEN_FPT+36
         5 000145   000022 771000                    ARL     18
         5 000146   000000 755000 xsym               STA     AS_DCBNUM#

     1517    15073    1   ERR_CODE = B$TCB$ -> B$TCB.ALT$ -> B$ALT.ERR ;

  15073  5 000147   000000 470400 xsym               LDP0    B$TCB$
         5 000150   000000 471500                    LDP1    0,,PR0
PL6.E3A0      #012=ASC$CHECK_TIGR_WSN File=ASB$EXT.:E05TSI                       TUE 07/29/97 09:09 Page:363
         5 000151   100102 236100                    LDQ     66,,PR1
         5 000152   000000 756000 xsym               STQ     ERR_CODE

     1518    15074    1   ALTRETURN ;

  15074  5 000153   000000 702200 xent               TSX2  ! X66_AALT
     1519    15075                                                              /**/
     1520    15076    1   END   ASC$CHECK_TIGR_WSN ;
     1521    15077        %EOD;

PL6.E3A0      #012=ASC$CHECK_TIGR_WSN File=ASB$EXT.:E05TSI                       TUE 07/29/97 09:09 Page:364
--  Include file information  --

   AS_SUPER_R.:E05TOU  cannot be made into a system file and is referenced.
   CP_6_SUBS.:E05TOU  is referenced.
   TD$STRUCT.:E05TOU  is referenced.
   B_ERRORS_C.:E05TOU  is referenced.
   AS_SSUBS_C.:E05TOU  is referenced.
   XU_FORMAT_C.:E05TOU  is referenced.
   XU_MACRO_C.:E05TOU  is referenced.
   KL_SUPER_C.:E05TOU  is referenced.
   AS_SUBS_C.:E05TOU  is referenced.
   AS_MAC_C.:E05TOU  cannot be made into a system file and is referenced.
   AS_SUPER_C.:E05TOU  is referenced.
   CP_6.:E05TOU  cannot be made into a system file and is referenced.
   AS_PERR_C.:E05TOU  is referenced.
   AS_ENTRIES_M.:E05TOU  is referenced.
   B$JIT_C.:E05TOU  was found in the system file and is never referenced.
   CP_6_C.:E05TOU  was found in the system file and is referenced.
      No diagnostics issued in procedure ASC$CHECK_TIGR_WSN.
PL6.E3A0      #012=ASC$CHECK_TIGR_WSN File=ASB$EXT.:E05TSI                       TUE 07/29/97 09:09 Page:365

 **** Variables and constants ****

  ****  Section 002 RoData ASC$CHECK_TIGR_WSN

  ****  Scalars and arrays  ****
OctLoc.c.b A Datatyp(siz) R M Lvl/name                 OctLoc.c.b A Datatyp(siz) R M Lvl/name

     0-0-0/c STRC(288)   r     1 FILE_NAME

  ****  Section 003  Data  ASC$CHECK_TIGR_WSN

  ****  Scalars and arrays  ****
OctLoc.c.b A Datatyp(siz) R M Lvl/name                 OctLoc.c.b A Datatyp(siz) R M Lvl/name

    72-0-0/d STRC(1080)  r     1 CLOSE_FPT                  0-0-0/d STRC(2088)  r     1 OPEN_FPT
   130-0-0/d STRC(504)   r     1 READ_FPT

  ****  Auto variables  ****

  ****  Scalars and arrays  ****
OctLoc.c.b A Datatyp(siz) R M Lvl/name                 OctLoc.c.b A Datatyp(siz) R M Lvl/name

     3-0-0/w PTR         r     1 @TEXT$                     4-0-0/w PTR         r     1 @WSN_INDEX
     6-0-0/w UBIN        r     1 ARS                        7-0-0/w STRC(288)   r     1 KEY
    17-0-0/w PTR         r     1 START2$                   20-0-0/w UBIN        r     1 START2_SZ
     5-0-0/w PTR         r     1 TD$WSN$                   21-0-0/c CHAR(8)     r     1 TEMPWSN
    *0-0-0/w PTR         r     1 TEXT$                     *0-0-0/w UBIN        r     1 WSN_INDEX

  ****  SYMREF variables  ****

  ****  Scalars and arrays  ****
OctLoc.c.b A Datatyp(siz) R M Lvl/name                 OctLoc.c.b A Datatyp(siz) R M Lvl/name

     0-0-0/w UBIN        r     1 AS_DCBNUM#                 0-0-0/w PTR         r     1 B$TCB$
     0-0-0/w PTR         r     1 DSEG1$                     0-0-0/w UBIN        r     1 DSEG1SIZE
     0-0-0/b BIT         r     1 DSEG_FLG                   0-0-0/b STRC        r     1 ERR_CODE
     0-0-0/c STRC(72)    r     1 FILE_ACCT
PL6.E3A0      #012=ASC$CHECK_TIGR_WSN File=ASB$EXT.:E05TSI                       TUE 07/29/97 09:09 Page:366

  ****  BASED and DCB variables  ****

  ****  Scalars and arrays  ****
OctLoc.c.b A Datatyp(siz) R M Lvl/name                 OctLoc.c.b A Datatyp(siz) R M Lvl/name

     0-0-0/w STRC(2448)  r     1 B$ALT                      0-0-0/w STRC(144)   r     1 B$TCB
     0-0-0N  NULL        r     1 M$CNFG                     0-0-0/w STRC(288)   r     1 TD$WSN
     0-0-0/c STRC(81)    r     1 WSN


   Procedure ASC$CHECK_TIGR_WSN requires 108 words for executable code.
   Procedure ASC$CHECK_TIGR_WSN requires 22 words of local(AUTO) storage.
PL6.E3A0      #012=ASC$CHECK_TIGR_WSN File=ASB$EXT.:E05TSI                       TUE 07/29/97 09:09 Page:367
          *** CROSS REFERENCE LISTING ***
**     DENOTES     IDENTIFIER DEFINITION
<<                 IDENTIFIER'S VALUE SET
>>                 IDENTIFIER'S VALUE USED
<>                 IDENTIFIER SET AND/OR USED
--                 IDENTIFIER REFERENCED
PL6.E3A0      #012=ASC$CHECK_TIGR_WSN File=ASB$EXT.:E05TSI                       TUE 07/29/97 09:09 Page:368
          MINI XREF LISTING

ARS
     14961**DCL     15037<<ASSIGN  15046>>ASSIGN
ASA_BRKS_LOC
     11875**DCL     11875--REDEF
ASB$GETSEG
     14977**DCL-ENT 15012--CALL
ASH$ERROR
     14974**DCL-ENT 15026--CALL    15071--CALL
AS_DCBNUM#
     11882**DCL     15072<<ASSIGN
AS_DEFAULT.BANNER_PERM
     12568**DCL     12569--REDEF
AS_DEFAULT.BUDGET.MACCT
     12473**DCL     12477--REDEF
AS_DEFAULT.BUDGET.MAX_PROJECTS
     12486**DCL     12489--REDEF
AS_DEFAULT.BUDGET.PACCUM
     12469**DCL     12471--REDEF
AS_DEFAULT.BUDGET.PMAXC
     12464**DCL     12466--REDEF
AS_DEFAULT.SETUP_CHRA.TXT
     12584**DCL     12585--REDEF   12586--REDEF
AS_DEFAULT_DREC.PASSWORD
     13838**DCL     13842--REDEF
AS_DEFAULT_DREC.RENAME
     13861**DCL     13862--REDEF
AS_DFLT.BANNER_PERM
     12390**DCL     12391--REDEF
AS_DFLT.BUDGET.MACCT
     12295**DCL     12299--REDEF
AS_DFLT.BUDGET.MAX_PROJECTS
     12308**DCL     12311--REDEF
PL6.E3A0      #012=ASC$CHECK_TIGR_WSN File=ASB$EXT.:E05TSI                       TUE 07/29/97 09:09 Page:369
AS_DFLT.BUDGET.PACCUM
     12291**DCL     12293--REDEF
AS_DFLT.BUDGET.PMAXC
     12286**DCL     12288--REDEF
AS_DFLT.SETUP_CHRA.TXT
     12406**DCL     12407--REDEF   12408--REDEF
AS_FE_MODE
     11741**DCL     11742--REDEF
AS_MODE
     11738**DCL     11740--REDEF
AS_MOD_USER.ACCESS
     14603**DCL     14604--REDEF
AS_MOD_USER.BANNER
     14590**DCL     14591--REDEF
AS_MOD_USER.BANNER_PERM
     14592**DCL     14593--REDEF
AS_MOD_USER.BILL
     14598**DCL     14599--REDEF
AS_MOD_USER.CPROC
     14594**DCL     14595--REDEF
AS_MOD_USER.FEBILL
     14674**DCL     14675--REDEF
AS_MOD_USER.FECXTMEM
     14691**DCL     14692--REDEF
AS_MOD_USER.FEMINTS
     14676**DCL     14677--REDEF
AS_MOD_USER.FEMMEM
     14687**DCL     14688--REDEF
AS_MOD_USER.FEMTIME
     14685**DCL     14686--REDEF
AS_MOD_USER.FEPPRIV
     14682**DCL     14684--REDEF
AS_MOD_USER.FEPRIV
     14679**DCL     14681--REDEF
AS_MOD_USER.FORCE_BIT
     14588**DCL     14589--REDEF
PL6.E3A0      #012=ASC$CHECK_TIGR_WSN File=ASB$EXT.:E05TSI                       TUE 07/29/97 09:09 Page:370
AS_MOD_USER.KEY
     14670**DCL     14672--REDEF
AS_MOD_USER.LASTCPROC
     14596**DCL     14597--REDEF
AS_MOD_USER.LIMITS.DO_
     14644**DCL     14645--REDEF
AS_MOD_USER.LIMITS.FPOOLS
     14660**DCL     14661--REDEF
AS_MOD_USER.LIMITS.LO
     14640**DCL     14641--REDEF
AS_MOD_USER.LIMITS.MEM
     14636**DCL     14637--REDEF
AS_MOD_USER.LIMITS.MPRIO
     14664**DCL     14665--REDEF
AS_MOD_USER.LIMITS.PDIS
     14652**DCL     14653--REDEF
AS_MOD_USER.LIMITS.PO
     14648**DCL     14649--REDEF
AS_MOD_USER.LIMITS.TDIS
     14656**DCL     14657--REDEF
AS_MOD_USER.LIMITS.TIME
     14632**DCL     14633--REDEF
AS_MOD_USER.MAXENQ
     14613**DCL     14614--REDEF
AS_MOD_USER.PERM_BIT
     14586**DCL     14587--REDEF
AS_MOD_USER.PPRIV
     14608**DCL     14610--REDEF
AS_MOD_USER.PRIOB
     14615**DCL     14616--REDEF
AS_MOD_USER.PRIV
     14605**DCL     14607--REDEF
AS_MOD_USER.QUAN
     14611**DCL     14612--REDEF
AS_MOD_USER.SETUP
     14584**DCL     14585--REDEF
PL6.E3A0      #012=ASC$CHECK_TIGR_WSN File=ASB$EXT.:E05TSI                       TUE 07/29/97 09:09 Page:371
AS_PROJECT.BANNER_PERM
     12924**DCL     12925--REDEF
AS_PROJECT.BUDGET.MACCT
     12829**DCL     12833--REDEF
AS_PROJECT.BUDGET.MAX_PROJECTS
     12842**DCL     12845--REDEF
AS_PROJECT.BUDGET.PACCUM
     12825**DCL     12827--REDEF
AS_PROJECT.BUDGET.PMAXC
     12820**DCL     12822--REDEF
AS_PROJECT.SETUP_CHRA.TXT
     12940**DCL     12941--REDEF   12942--REDEF
AS_PROJECT_DFLT.BANNER_PERM
     13102**DCL     13103--REDEF
AS_PROJECT_DFLT.BUDGET.MACCT
     13007**DCL     13011--REDEF
AS_PROJECT_DFLT.BUDGET.MAX_PROJECTS
     13020**DCL     13023--REDEF
AS_PROJECT_DFLT.BUDGET.PACCUM
     13003**DCL     13005--REDEF
AS_PROJECT_DFLT.BUDGET.PMAXC
     12998**DCL     13000--REDEF
AS_PROJECT_DFLT.SETUP_CHRA.TXT
     13118**DCL     13119--REDEF   13120--REDEF
AS_PROJECT_DFLT_DREC.PASSWORD
     14324**DCL     14328--REDEF
AS_PROJECT_DFLT_DREC.RENAME
     14347**DCL     14348--REDEF
AS_PROJECT_DREC.PASSWORD
     14162**DCL     14166--REDEF
AS_PROJECT_DREC.RENAME
     14185**DCL     14186--REDEF
AS_PROJ_ADMIN.BANNER_PERM
     12746**DCL     12747--REDEF
AS_PROJ_ADMIN.BUDGET.MACCT
     12651**DCL     12655--REDEF
PL6.E3A0      #012=ASC$CHECK_TIGR_WSN File=ASB$EXT.:E05TSI                       TUE 07/29/97 09:09 Page:372
AS_PROJ_ADMIN.BUDGET.MAX_PROJECTS
     12664**DCL     12667--REDEF
AS_PROJ_ADMIN.BUDGET.PACCUM
     12647**DCL     12649--REDEF
AS_PROJ_ADMIN.BUDGET.PMAXC
     12642**DCL     12644--REDEF
AS_PROJ_ADMIN.SETUP_CHRA.TXT
     12762**DCL     12763--REDEF   12764--REDEF
AS_PROJ_ADMIN_DREC.PASSWORD
     14000**DCL     14004--REDEF
AS_PROJ_ADMIN_DREC.RENAME
     14023**DCL     14024--REDEF
AS_USERS.BANNER_PERM
     12212**DCL     12213--REDEF
AS_USERS.BUDGET.MACCT
     12117**DCL     12121--REDEF
AS_USERS.BUDGET.MAX_PROJECTS
     12130**DCL     12133--REDEF
AS_USERS.BUDGET.PACCUM
     12113**DCL     12115--REDEF
AS_USERS.BUDGET.PMAXC
     12108**DCL     12110--REDEF
AS_USERS.SETUP_CHRA.TXT
     12228**DCL     12229--REDEF   12230--REDEF
AS_USERS_CONSTANT.BANNER_PERM
     13280**DCL     13281--REDEF
AS_USERS_CONSTANT.BUDGET.MACCT
     13185**DCL     13189--REDEF
AS_USERS_CONSTANT.BUDGET.MAX_PROJECTS
     13198**DCL     13201--REDEF
AS_USERS_CONSTANT.BUDGET.PACCUM
     13181**DCL     13183--REDEF
AS_USERS_CONSTANT.BUDGET.PMAXC
     13176**DCL     13178--REDEF
AS_USERS_CONSTANT.SETUP_CHRA.TXT
     13296**DCL     13297--REDEF   13298--REDEF
PL6.E3A0      #012=ASC$CHECK_TIGR_WSN File=ASB$EXT.:E05TSI                       TUE 07/29/97 09:09 Page:373
B$ALT.CODE
     14986**DCL     14986--REDEF   14987--REDEF   14987--REDEF
B$ALT.ERR
     14987**DCL     15070>>ASSIGN  15073>>ASSIGN
B$ALT.ERR.ERR#
     14988**DCL     14988--REDEF
B$ALT.EVID
     14987**DCL     14987--REDEF   14987--REDEF
B$TCB.ALT$
     14993**DCL     15070>>ASSIGN  15073>>ASSIGN
B$TCB$
     14741**DCL     15070>>ASSIGN  15073>>ASSIGN
CLOSE_FPT
     14889**DCL     15061<>CALL
CLOSE_FPT.SN_
     14889**DCL     14889--REDEF
CLOSE_FPT.UTL_
     14890**DCL     14890--REDEF
CLOSE_FPT.V
     14894**DCL     14889--DCLINIT
CLOSE_FPT.V.EXPIRE#
     14904**DCL     14904--REDEF
CLOSE_FPT.V.TYPE#
     14902**DCL     14902--REDEF
CLOSE_FPT.V.XTNSIZE#
     14899**DCL     14899--REDEF   14901--REDEF
DSEG1$
     11876**DCL     15035>>ASSIGN
DSEG1SIZE
     11877**DCL     15036>>ASSIGN
DSEG_FLG
     11876**DCL     15011>>IF
ERR
     15063**LABEL   15033--CALLALT 15048--CALLALT
ERR_CODE
     11870**DCL     11871--REDEF   15070<<ASSIGN  15071<>CALL    15073<<ASSIGN
PL6.E3A0      #012=ASC$CHECK_TIGR_WSN File=ASB$EXT.:E05TSI                       TUE 07/29/97 09:09 Page:374
FILE_ACCT
     11878**DCL     14825--DCLINIT
FILE_NAME
     14733**DCL     14821--DCLINIT
KEY
     14962**DCL     15047--ASSIGN
KEY.CNT
     14963**DCL     15039<<ASSIGN
KEY.TXT
     14964**DCL     15040<<ASSIGN
KL_DEFAULT.PASSWORD
     14486**DCL     14490--REDEF
KL_DEFAULT.RENAME
     14509**DCL     14510--REDEF
KL_DFLT.PASSWORD
     13676**DCL     13680--REDEF
KL_DFLT.RENAME
     13699**DCL     13700--REDEF
KL_DREC.PASSWORD
     13514**DCL     13518--REDEF
KL_DREC.RENAME
     13537**DCL     13538--REDEF
KL_DREC_CNT.PASSWORD
     13401**DCL     13405--REDEF
KL_DREC_CNT.RENAME
     13424**DCL     13425--REDEF
M$CLOSE
      1680**DCL-ENT 15061--CALL
M$OPEN
      1680**DCL-ENT 15033--CALL
M$READ
      1681**DCL-ENT 15048--CALL
OPEN_FPT
     14820**DCL     15033<>CALL
OPEN_FPT.ACSVEH_
     14822**DCL     14823--REDEF
PL6.E3A0      #012=ASC$CHECK_TIGR_WSN File=ASB$EXT.:E05TSI                       TUE 07/29/97 09:09 Page:375
OPEN_FPT.ALTKEYS_
     14828**DCL     14829--REDEF   14829--REDEF
OPEN_FPT.HDR_
     14827**DCL     14828--REDEF
OPEN_FPT.TAB_
     14826**DCL     14827--REDEF
OPEN_FPT.UHL_
     14820**DCL     14821--REDEF   14821--REDEF
OPEN_FPT.V
     14829**DCL     14820--DCLINIT
OPEN_FPT.V.DCB#
     14829**DCL     15072>>ASSIGN
OPEN_FPT.V.FSN#
     14860**DCL     14860--REDEF   14860--REDEF
OPEN_FPT.WSN_
     14826**DCL     14826--REDEF
PROJ_KEY.TEXT
     11748**DCL     11748--REDEF
PROJ_KEY.TXT.PROJECT
     11748**DCL     11748--REDEF
READ_FPT
     14927**DCL     15048<>CALL
READ_FPT.BUF_.BOUND
     14929**DCL     15046<<ASSIGN
READ_FPT.BUF_.BUF$
     14930**DCL     15045<<ASSIGN
READ_FPT.KEY_
     14927**DCL     15047<<ASSIGN
READ_FPT.STATION_
     14930**DCL     14931--REDEF
READ_FPT.V
     14931**DCL     14927--DCLINIT
READ_FPT.V.DVBYTE.REREAD#
     14942**DCL     14942--REDEF
READ_FPT.V.INDX#
     14940**DCL     14940--REDEF
PL6.E3A0      #012=ASC$CHECK_TIGR_WSN File=ASB$EXT.:E05TSI                       TUE 07/29/97 09:09 Page:376
REMEM_VAR
     11874**DCL     11874--REDEF
REM_FCMD
     11874**DCL     11875--REDEF
START2$
     14965**DCL     15035<<ASSIGN  15038>>ASSIGN
START2_SZ
     14966**DCL     15036<<ASSIGN  15037>>ASSIGN
TD$WSN.WSNNAME
     14998**DCL     15056>>IF
TD$WSN$
     14960**DCL     14997--IMP-PTR 15038<<ASSIGN  15045>>ASSIGN  15056>>IF
TEMPWSN
     14967**DCL     15049<<ASSIGN  15050<<ASSIGN  15056>>IF
TEXT$
        12**DCL         7--PROC    15000--IMP-PTR 15050>>ASSIGN  15050>>ASSIGN
USERS_KEY.TEXT
     11745**DCL     11746--REDEF   11746--REDEF   11746--REDEF   11747--REDEF
WSN.CNT
     15001**DCL     15050>>ASSIGN
WSN.TEXT
     15002**DCL     15050>>ASSIGN
WSN_INDEX
        13**DCL         7--PROC    15029<<ASSIGN  15054<<ASSIGN  15055>>DOWHILE 15056>>IF      15058<<ASSIGN
     15058>>ASSIGN  15063>>IF

PL6.E3A0      #013=ASD$HEX2OCT File=ASB$EXT.:E05TSI                              TUE 07/29/97 09:10 Page:377
     1522        1        /*T***********************************************************/
     1523        2        /*T*                                                         */
     1524        3        /*T* Copyright (c) Bull HN Information Systems Inc., 1997    */
     1525        4        /*T*                                                         */
     1526        5        /*T***********************************************************/
     1527        6        %EJECT;
PL6.E3A0      #013=ASD$HEX2OCT File=ASB$EXT.:E05TSI                              TUE 07/29/97 09:10 Page:378
     1528        7        ASD$HEX2OCT: PROC( OUT_SYM, OCT_VAL ) ALTRET ;
     1529        8
     1530        9        /*********************************************************************/
     1531       10        /*   Include files   include files   include files   include files   */
     1532       11        /*********************************************************************/
     1533       12
     1534       13        %INCLUDE XU_MACRO_C ;
     1535     3119        %INCLUDE AS_SUBS_C;
     1536     4533
     1537     4534        /*********************************************************************/
     1538     4535        /*   Parameters      parameters      parameters      parameters      */
     1539     4536        /*********************************************************************/
     1540     4537
     1541     4538        %PARSE$SYM( NAME = OUT_SYM , STCLASS = " " ) ;
     1542     4576    1   DCL OCT_VAL UBIN WORD;
     1543     4577    1   DCL 1 OCTAL REDEF OCT_VAL ALIGNED,
     1544     4578    1          2 * UBIN(20) UNAL,
     1545     4579    1          2 VAL(0:3) UBIN(4) UNAL;
     1546     4580
     1547     4581        /********************************************************************/
     1548     4582        /*   Constant        constant        constant        constant        */
     1549     4583        /*********************************************************************/
     1550     4584
     1551     4585    1   DCL HEX_CHARS CHAR(0) CONSTANT INIT('0123456789ABCDEF');
     1552     4586
     1553     4587        /*********************************************************************/
     1554     4588        /*   Auto data       auto data       auto data       auto data       */
     1555     4589        /*********************************************************************/
     1556     4590
     1557     4591    1   DCL HEX_STR(0:3) CHAR(1) ;
     1558     4592    1   DCL R_HEX_STR REDEF HEX_STR CHAR(4) ;
     1559     4593    1   DCL VAL UBIN WORD ;
     1560     4594    1   DCL DISP UBIN WORD ;
     1561     4595    1   DCL I UBIN WORD ;
     1562     4596        %EJECT ;
PL6.E3A0      #013=ASD$HEX2OCT File=ASB$EXT.:E05TSI                              TUE 07/29/97 09:10 Page:379
     1563     4597        /********************************************************************/
     1564     4598        /*   Procedure       procedure       procedure       procedure       */
     1565     4599        /*********************************************************************/
     1566     4600
     1567     4601        /*
     1568     4602            ***            Begin procedure                    ***
     1569     4603        */
     1570     4604    2   DO SELECT( OUT_SYM.CODE );
     1571     4605    2      SELECT( QSTRING_VAL );
     1572     4606    2      OCT_VAL = ASCBIN( OUT_SYM.TEXT );
     1573     4607    2      SELECT( %HSTRING2_VAL, %HSTRING4_VAL );
     1574     4608    2      R_HEX_STR = '0000' ;
     1575     4609    2      DISP = 4 - OUT_SYM.COUNT ;
     1576     4610    2      CALL INSERT( R_HEX_STR, DISP, , OUT_SYM.TEXT );
     1577     4611    2      OCT_VAL = 0 ;
     1578     4612    3      DO I = 0 TO 3 ;
     1579     4613    3         CALL INDEX( VAL, HEX_STR(I), HEX_CHARS ) ALTRET( ERROR );
     1580     4614    3         OCTAL.VAL(I) = VAL;
     1581     4615    3         END ; /* Do i */
     1582     4616    2      SELECT( ELSE );
     1583     4617    2   OCT_VAL = OUT_SYM.CODE;
     1584     4618    2      END ;       /* Do case */
     1585     4619
     1586     4620    1   RETURN;
     1587     4621
     1588     4622    1   ERROR:
     1589     4623    1   ALTRETURN;
     1590     4624
     1591     4625    1   END   ASD$HEX2OCT ;
     1592     4626        %EOD;

PL6.E3A0      #013=ASD$HEX2OCT File=ASB$EXT.:E05TSI                              TUE 07/29/97 09:10 Page:380
--  Include file information  --

   AS_SUBS_C.:E05TOU  is referenced.
   XU_MACRO_C.:E05TOU  is referenced.
   B$JIT_C.:E05TOU  was found in the system file and is never referenced.
   CP_6_C.:E05TOU  was found in the system file and is never referenced.
      No diagnostics issued in procedure ASD$HEX2OCT.

   Procedure ASD$HEX2OCT requires 65 words for executable code.
   Procedure ASD$HEX2OCT requires 10 words of local(AUTO) storage.

PL6.E3A0      #013=ASD$HEX2OCT File=ASB$EXT.:E05TSI                              TUE 07/29/97 09:10 Page:381

 Object Unit name= ASD$HEX2OCT                                File name= ASB$EXT.:E05TOU
 UTS= JUL 29 '97 09:10:20.60 TUE                              Compiler= PL-6/E31         Sev=      00
 SharedLib= :SHARED_SYSTEM                                    Alt SharedLib=


    ****  Control sections  ****

 Sect   Type Bound  Init  Size OctSiz  Section name(segment info)
    0  RoData even  UTS      5      5  ASD$HEX2OCT
    1   Proc  even  none    65    101  ASD$HEX2OCT

    ****  Entry defs  ****

                              Check   Calling
                             calling  sequence
  Sect OctLoc Primary Altret sequence   type   Parms  Name
     1      0   yes    yes     yes      Std        2  ASD$HEX2OCT

  ****  Entry refs  ****

         Check        Calling
        calling       sequence
Altret sequence SRef   type   Args  Name
                       nStd      0 X66_AUTO_2
                       Std       0 B_CONSPOOL_D
                       nStd      0 X66_ARET
                       nStd      0 X66_AALT

  ****  Data refs  ****

  Flags:  r = read only, s = secondary
Flgs Name                             Flgs Name                             Flgs Name
     B_VECTNIL
PL6.E3A0      #013=ASD$HEX2OCT File=ASB$EXT.:E05TSI                              TUE 07/29/97 09:10 Page:382


     1522        1        /*T***********************************************************/
     1523        2        /*T*                                                         */
     1524        3        /*T* Copyright (c) Bull HN Information Systems Inc., 1997    */
     1525        4        /*T*                                                         */
     1526        5        /*T***********************************************************/
     1527        6        %EJECT;
PL6.E3A0      #013=ASD$HEX2OCT File=ASB$EXT.:E05TSI                              TUE 07/29/97 09:10 Page:383
     1528        7        ASD$HEX2OCT: PROC( OUT_SYM, OCT_VAL ) ALTRET ;

      7  1 000000   000000 700200 xent  ASD$HEX2OCT  TSX0  ! X66_AUTO_2
         1 000001   000012 000002                    ZERO    10,2

     1529        8
     1530        9        /*********************************************************************/
     1531       10        /*   Include files   include files   include files   include files   */
     1532       11        /*********************************************************************/
     1533       12
     1534       13        %INCLUDE XU_MACRO_C ;
     1535     3119        %INCLUDE AS_SUBS_C;
     1536     4533
     1537     4534        /*********************************************************************/
     1538     4535        /*   Parameters      parameters      parameters      parameters      */
     1539     4536        /*********************************************************************/
     1540     4537
     1541     4538        %PARSE$SYM( NAME = OUT_SYM , STCLASS = " " ) ;
     1542     4576    1   DCL OCT_VAL UBIN WORD;
     1543     4577    1   DCL 1 OCTAL REDEF OCT_VAL ALIGNED,
     1544     4578    1          2 * UBIN(20) UNAL,
     1545     4579    1          2 VAL(0:3) UBIN(4) UNAL;
     1546     4580
     1547     4581        /********************************************************************/
     1548     4582        /*   Constant        constant        constant        constant        */
     1549     4583        /*********************************************************************/
     1550     4584
     1551     4585    1   DCL HEX_CHARS CHAR(0) CONSTANT INIT('0123456789ABCDEF');
     1552     4586
     1553     4587        /*********************************************************************/
     1554     4588        /*   Auto data       auto data       auto data       auto data       */
     1555     4589        /*********************************************************************/
     1556     4590
     1557     4591    1   DCL HEX_STR(0:3) CHAR(1) ;
     1558     4592    1   DCL R_HEX_STR REDEF HEX_STR CHAR(4) ;
     1559     4593    1   DCL VAL UBIN WORD ;
     1560     4594    1   DCL DISP UBIN WORD ;
PL6.E3A0      #013=ASD$HEX2OCT File=ASB$EXT.:E05TSI                              TUE 07/29/97 09:10 Page:384
     1561     4595    1   DCL I UBIN WORD ;
     1562     4596        %EJECT ;
PL6.E3A0      #013=ASD$HEX2OCT File=ASB$EXT.:E05TSI                              TUE 07/29/97 09:10 Page:385
     1563     4597        /********************************************************************/
     1564     4598        /*   Procedure       procedure       procedure       procedure       */
     1565     4599        /*********************************************************************/
     1566     4600
     1567     4601        /*
     1568     4602            ***            Begin procedure                    ***
     1569     4603        */
     1570     4604    2   DO SELECT( OUT_SYM.CODE );

   4604  1 000002   200003 470500                    LDP0    @OUT_SYM,,AUTO
         1 000003   000000 236100                    LDQ     0,,PR0
         1 000004   777777 376007                    ANQ     -1,DL
         1 000005   001001 116007                    CMPQ    513,DL
         1 000006   000014 602000 1                  TNC     s:4604+10
         1 000007   000030 600000 1                  TZE     s:4608
         1 000010   000000 720100                    LXL0    0,,PR0
         1 000011   001002 100003                    CMPX0   514,DU
         1 000012   000075 601000 1                  TNZ     s:4617
         1 000013   000030 710000 1                  TRA     s:4608
         1 000014   000000 720100                    LXL0    0,,PR0
         1 000015   001000 100003                    CMPX0   512,DU
         1 000016   000075 601000 1                  TNZ     s:4617
         1 000017   000020 710000 1                  TRA     s:4606

     1571     4605    2      SELECT( QSTRING_VAL );

     1572     4606    2      OCT_VAL = ASCBIN( OUT_SYM.TEXT );

   4606  1 000020   000004 236100                    LDQ     4,,PR0
         1 000021   000033 772000                    QRL     27
         1 000022   000004 236100                    LDQ     4,,PR0
         1 000023   000022 772000                    QRL     18
         1 000024   000777 376007                    ANQ     511,DL
         1 000025   200004 471500                    LDP1    @OCT_VAL,,AUTO
         1 000026   100000 756100                    STQ     0,,PR1
         1 000027   000077 710000 1                  TRA     s:4620

PL6.E3A0      #013=ASD$HEX2OCT File=ASB$EXT.:E05TSI                              TUE 07/29/97 09:10 Page:386
     1573     4607    2      SELECT( %HSTRING2_VAL, %HSTRING4_VAL );

     1574     4608    2      R_HEX_STR = '0000' ;

   4608  1 000030   000004 236000 0                  LDQ     HEX_CHARS+4
         1 000031   200005 756100                    STQ     HEX_STR,,AUTO

     1575     4609    2      DISP = 4 - OUT_SYM.COUNT ;

   4609  1 000032   000004 236100                    LDQ     4,,PR0
         1 000033   000033 772000                    QRL     27
         1 000034   000027 676000 xsym               ERQ     B_VECTNIL+23
         1 000035   000005 036007                    ADLQ    5,DL
         1 000036   200007 756100                    STQ     DISP,,AUTO

     1576     4610    2      CALL INSERT( R_HEX_STR, DISP, , OUT_SYM.TEXT );

   4610  1 000037   000004 236100                    LDQ     4,,PR0
         1 000040   000033 772000                    QRL     27
         1 000041   200007 720100                    LXL0    DISP,,AUTO
         1 000042   777773 620010                    EAX0    -5,X0
         1 000043   777777 660003                    ERX0    -1,DU
         1 000044   000000 621006                    EAX1    0,QL
         1 000045   200007 235100                    LDA     DISP,,AUTO
         1 000046   040145 100540                    MLR     fill='040'O
         1 000047   000004 200011                    ADSC9   4,,PR0                   cn=1,n=*X1
         1 000050   200005 000010                    ADSC9   HEX_STR,A,AUTO           cn=0,n=*X0

     1577     4611    2      OCT_VAL = 0 ;

   4611  1 000051   200004 471500                    LDP1    @OCT_VAL,,AUTO
         1 000052   100000 450100                    STZ     0,,PR1

     1578     4612    3      DO I = 0 TO 3 ;

   4612  1 000053   200010 450100                    STZ     I,,AUTO

PL6.E3A0      #013=ASD$HEX2OCT File=ASB$EXT.:E05TSI                              TUE 07/29/97 09:10 Page:387
     1579     4613    3         CALL INDEX( VAL, HEX_STR(I), HEX_CHARS ) ALTRET( ERROR );

   4613  1 000054   200010 235100                    LDA     I,,AUTO
         1 000055   000105 124400                    SCM     mask='000'O
         1 000056   000000 000020 0                  ADSC9   HEX_CHARS                cn=0,n=16
         1 000057   200005 000001                    ADSC9   HEX_STR,A,AUTO           cn=0,n=1
         1 000060   200006 000100                    ARG     VAL,,AUTO
         1 000061   000100 606400 1                  TTN     ERROR

     1580     4614    3         OCTAL.VAL(I) = VAL;

   4614  1 000062   000002 735000                    ALS     2
         1 000063   200004 470500                    LDP0    @OCT_VAL,,AUTO
         1 000064   003105 061500                    CSR     bolr='003'O
         1 000065   200006 000044                    BDSC    VAL,,AUTO                by=0,bit=0,n=36
         1 000066   000000 420004                    BDSC    0,A,PR0                  by=2,bit=2,n=4

     1581     4615    3         END ; /* Do i */

   4615  1 000067   200010 236100                    LDQ     I,,AUTO
         1 000070   000001 036007                    ADLQ    1,DL
         1 000071   200010 756100                    STQ     I,,AUTO
         1 000072   000004 116007                    CMPQ    4,DL
         1 000073   000054 602000 1                  TNC     s:4613
         1 000074   000077 710000 1                  TRA     s:4620

     1582     4616    2      SELECT( ELSE );

     1583     4617    2   OCT_VAL = OUT_SYM.CODE;

   4617  1 000075   200004 471500                    LDP1    @OCT_VAL,,AUTO
         1 000076   100000 756100                    STQ     0,,PR1

     1584     4618    2      END ;       /* Do case */

     1585     4619
     1586     4620    1   RETURN;
PL6.E3A0      #013=ASD$HEX2OCT File=ASB$EXT.:E05TSI                              TUE 07/29/97 09:10 Page:388

   4620  1 000077   000000 702200 xent               TSX2  ! X66_ARET

     1587     4621
     1588     4622    1   ERROR:
     1589     4623    1   ALTRETURN;

   4623  1 000100   000000 702200 xent  ERROR        TSX2  ! X66_AALT
     1590     4624
     1591     4625    1   END   ASD$HEX2OCT ;
     1592     4626        %EOD;

PL6.E3A0      #013=ASD$HEX2OCT File=ASB$EXT.:E05TSI                              TUE 07/29/97 09:10 Page:389
--  Include file information  --

   AS_SUBS_C.:E05TOU  is referenced.
   XU_MACRO_C.:E05TOU  is referenced.
   B$JIT_C.:E05TOU  was found in the system file and is never referenced.
   CP_6_C.:E05TOU  was found in the system file and is never referenced.
      No diagnostics issued in procedure ASD$HEX2OCT.
PL6.E3A0      #013=ASD$HEX2OCT File=ASB$EXT.:E05TSI                              TUE 07/29/97 09:10 Page:390

 **** Variables and constants ****

  ****  Section 000 RoData ASD$HEX2OCT

  ****  Scalars and arrays  ****
OctLoc.c.b A Datatyp(siz) R M Lvl/name                 OctLoc.c.b A Datatyp(siz) R M Lvl/name

     0-0-0/c CHAR(16)    r     1 HEX_CHARS

  ****  Auto variables  ****

  ****  Scalars and arrays  ****
OctLoc.c.b A Datatyp(siz) R M Lvl/name                 OctLoc.c.b A Datatyp(siz) R M Lvl/name

     4-0-0/w PTR         r     1 @OCT_VAL                   3-0-0/w PTR         r     1 @OUT_SYM
     7-0-0/w UBIN        r     1 DISP
     5-0-0/c CHAR        r     1 HEX_STR(0:3)
    10-0-0/w UBIN        r     1 I                         *0-0-0/w STRC        r     1 OCTAL
    *0-0-0/w UBIN        r     1 OCT_VAL                   *0-0-0/w ASTR(153)   r     1 OUT_SYM
     5-0-0/c CHAR(4)     r     1 R_HEX_STR                  6-0-0/w UBIN        r     1 VAL


   Procedure ASD$HEX2OCT requires 65 words for executable code.
   Procedure ASD$HEX2OCT requires 10 words of local(AUTO) storage.
PL6.E3A0      #013=ASD$HEX2OCT File=ASB$EXT.:E05TSI                              TUE 07/29/97 09:10 Page:391
          *** CROSS REFERENCE LISTING ***
**     DENOTES     IDENTIFIER DEFINITION
<<                 IDENTIFIER'S VALUE SET
>>                 IDENTIFIER'S VALUE USED
<>                 IDENTIFIER SET AND/OR USED
--                 IDENTIFIER REFERENCED
PL6.E3A0      #013=ASD$HEX2OCT File=ASB$EXT.:E05TSI                              TUE 07/29/97 09:10 Page:392
          MINI XREF LISTING

DISP
      4594**DCL      4609<<ASSIGN   4610>>CALLBLT
ERROR
      4623**LABEL    4613--CALLALT
HEX_CHARS
      4585**DCL      4613>>CALLBLT
HEX_STR
      4591**DCL      4592--REDEF    4613>>CALLBLT
I
      4595**DCL      4612<<DOINDEX  4613>>CALLBLT  4614>>ASSIGN
OCTAL.VAL
      4579**DCL      4614<<ASSIGN
OCT_VAL
      4576**DCL         7--PROC     4577--REDEF    4606<<ASSIGN   4611<<ASSIGN   4617<<ASSIGN
OUT_SYM
      4545**DCL         7--PROC
OUT_SYM.CODE
      4551**DCL      4604>>DOSELCT  4617>>ASSIGN
OUT_SYM.COUNT
      4568**DCL      4571--IMP-SIZ  4606>>ASSIGN   4609>>ASSIGN   4610>>CALLBLT
OUT_SYM.TEXT
      4571**DCL      4606>>ASSIGN   4610>>CALLBLT
R_HEX_STR
      4592**DCL      4608<<ASSIGN   4610<<CALLBLT
VAL
      4593**DCL      4613<<CALLBLT  4614>>ASSIGN

PL6.E3A0      #014=ASF$QUERY_PSEUDO_FORMS File=ASB$EXT.:E05TSI                   TUE 07/29/97 09:10 Page:393
     1593        1        /*T***********************************************************/
     1594        2        /*T*                                                         */
     1595        3        /*T* Copyright (c) Bull HN Information Systems Inc., 1997    */
     1596        4        /*T*                                                         */
     1597        5        /*T***********************************************************/
     1598        6        %EJECT;
PL6.E3A0      #014=ASF$QUERY_PSEUDO_FORMS File=ASB$EXT.:E05TSI                   TUE 07/29/97 09:10 Page:394
     1599        7        ASF$QUERY_PSEUDO_FORMS: PROC( FORM, PSEUDO_FORM_KEY, PSEUDO_FORM );
     1600        8
     1601        9
     1602       10    1   DCL 1 FORM,
     1603       11    1          2 CNT UBIN BYTE UNAL,
     1604       12    1          2 TXT CHAR(6) UNAL;
     1605       13    1   DCL 1 PSEUDO_FORM_KEY,
     1606       14    1          2 CNT UBIN BYTE UNAL,
     1607       15    1          2 TXT CHAR(12) UNAL;
     1608       16    1   DCL PSEUDO_FORM BIT(1) ALIGNED;
     1609       17    1   DCL ARS UBIN;
     1610       18
     1611       19        %INCLUDE AS_ENTRIES_M;
     1612     1069        %INCLUDE AS_SUPER_C;
     1613     1504        %INCLUDE KL_SUPER_C;
     1614     4406        %INCLUDE AS_SUBS_C;
     1615     5820        %INCLUDE AS_MAC_C;
     1616     5900        %INCLUDE XU_MACRO_C;
     1617     9006        %INCLUDE XU_FORMAT_C;
     1618     9168        %INCLUDE AS_SUPER_R;
     1619    12184    1   DCL PSEUDO_FORM_REC UBIN;
     1620    12185        %ASF$READ_FORM_SEQ ;
     1621    12188        %ASF$PREC_FORM ;
     1622    12191        %ASF$PREC_SKIP_FORM ;
     1623    12194
     1624    12195    1   PSEUDO_FORM = '0'B;         /* Assume there are no pseudo forms */
     1625    12196    1   USERS_KEY = FORM;
     1626    12197    1   USERS_KEY.COUNT = 7;
     1627    12198    1   CALL ASF$PREC_FORM( USERS_KEY );
     1628    12199    1   ARS = SIZEC(PSEUDO_FORM_REC);
     1629    12200    1   CALL ASF$READ_FORM_SEQ( ,ADDR(PSEUDO_FORM_REC), ARS ) ALTRET(EXIT#);
     1630    12201    1   IF USERS_KEY.COUNT = 12  AND  SUBSTR(USERS_KEY.TXTC,0,6) = FORM.TXT
     1631    12202    2   THEN DO;
     1632    12203    2      PSEUDO_FORM_KEY = USERS_KEY;
     1633    12204    2      PSEUDO_FORM = '1'B;
     1634    12205    2      END;
     1635    12206    1   EXIT#:
PL6.E3A0      #014=ASF$QUERY_PSEUDO_FORMS File=ASB$EXT.:E05TSI                   TUE 07/29/97 09:10 Page:395
     1636    12207    1   USERS_KEY = FORM;
     1637    12208    1   CALL ASF$PREC_SKIP_FORM( USERS_KEY );
     1638    12209    1   RETURN;
     1639    12210
     1640    12211
     1641    12212    1   END ASF$QUERY_PSEUDO_FORMS;
     1642    12213        %EOD;

PL6.E3A0      #014=ASF$QUERY_PSEUDO_FORMS File=ASB$EXT.:E05TSI                   TUE 07/29/97 09:10 Page:396
--  Include file information  --

   AS_SUPER_R.:E05TOU  cannot be made into a system file and is referenced.
   XU_FORMAT_C.:E05TOU  is referenced.
   XU_MACRO_C.:E05TOU  is referenced.
   AS_MAC_C.:E05TOU  cannot be made into a system file and is referenced.
   AS_SUBS_C.:E05TOU  is referenced.
   KL_SUPER_C.:E05TOU  is referenced.
   AS_SUPER_C.:E05TOU  is referenced.
   AS_ENTRIES_M.:E05TOU  is referenced.
   B$JIT_C.:E05TOU  was found in the system file and is never referenced.
   CP_6_C.:E05TOU  was found in the system file and is never referenced.
      No diagnostics issued in procedure ASF$QUERY_PSEUDO_FORMS.

   Procedure ASF$QUERY_PSEUDO_FORMS requires 53 words for executable code.
   Procedure ASF$QUERY_PSEUDO_FORMS requires 12 words of local(AUTO) storage.

PL6.E3A0      #014=ASF$QUERY_PSEUDO_FORMS File=ASB$EXT.:E05TSI                   TUE 07/29/97 09:10 Page:397

 Object Unit name= ASF$QUERY_PSEUDO_FORMS                     File name= ASB$EXT.:E05TOU
 UTS= JUL 29 '97 09:10:34.28 TUE                              Compiler= PL-6/E31         Sev=      00
 SharedLib= :SHARED_SYSTEM                                    Alt SharedLib=


    ****  Control sections  ****

 Sect   Type Bound  Init  Size OctSiz  Section name(segment info)
    0   DCB   even  none     0      0  M$LO
    1   Proc  even  none    53     65  ASF$QUERY_PSEUDO_FORMS
    2  RoData even  none     1      1  ASF$QUERY_PSEUDO_FORMS

    ****  Entry defs  ****

                              Check   Calling
                             calling  sequence
  Sect OctLoc Primary Altret sequence   type   Parms  Name
     1      0   yes            yes      Std        3  ASF$QUERY_PSEUDO_FORMS

  ****  Entry refs  ****

         Check        Calling
        calling       sequence
Altret sequence SRef   type   Args  Name
         yes          ~proc      0 XU_OUTPUT_OPTIONS
 yes     yes           Std       1 ASF$PREC_SKIP_FORM
 yes     yes           Std       1 ASF$PREC_FORM
 yes     yes           Std       3 ASF$READ_FORM_SEQ
                       nStd      0 X66_AUTO_3
                       Std       0 B_CONSPOOL_D
                       nStd      0 X66_ARET
PL6.E3A0      #014=ASF$QUERY_PSEUDO_FORMS File=ASB$EXT.:E05TSI                   TUE 07/29/97 09:10 Page:398

  ****  Data refs  ****

  Flags:  r = read only, s = secondary
Flgs Name                             Flgs Name                             Flgs Name
r    AS_MODE                          r    AS_FE_MODE                            M$LO
     USERS_KEY                             ERR_CODE                              REMEM_VAR
     REM_FCMD                              ASA_BRKS_LOC                          B_VECTNIL

  ****  Segment refs  ****

  Flags:  r = read only, s = secondary
Flgs Name                             Flgs Name                             Flgs Name
     ISSID
PL6.E3A0      #014=ASF$QUERY_PSEUDO_FORMS File=ASB$EXT.:E05TSI                   TUE 07/29/97 09:10 Page:399


     1593        1        /*T***********************************************************/
     1594        2        /*T*                                                         */
     1595        3        /*T* Copyright (c) Bull HN Information Systems Inc., 1997    */
     1596        4        /*T*                                                         */
     1597        5        /*T***********************************************************/
     1598        6        %EJECT;
PL6.E3A0      #014=ASF$QUERY_PSEUDO_FORMS File=ASB$EXT.:E05TSI                   TUE 07/29/97 09:10 Page:400
     1599        7        ASF$QUERY_PSEUDO_FORMS: PROC( FORM, PSEUDO_FORM_KEY, PSEUDO_FORM );

      7  1 000000   000000 700200 xent  ASF$QUERY_P* TSX0  ! X66_AUTO_3
         1 000001   000014 000003                    ZERO    12,3

     1600        8
     1601        9
     1602       10    1   DCL 1 FORM,
     1603       11    1          2 CNT UBIN BYTE UNAL,
     1604       12    1          2 TXT CHAR(6) UNAL;
     1605       13    1   DCL 1 PSEUDO_FORM_KEY,
     1606       14    1          2 CNT UBIN BYTE UNAL,
     1607       15    1          2 TXT CHAR(12) UNAL;
     1608       16    1   DCL PSEUDO_FORM BIT(1) ALIGNED;
     1609       17    1   DCL ARS UBIN;
     1610       18
     1611       19        %INCLUDE AS_ENTRIES_M;
     1612     1069        %INCLUDE AS_SUPER_C;
     1613     1504        %INCLUDE KL_SUPER_C;
     1614     4406        %INCLUDE AS_SUBS_C;
     1615     5820        %INCLUDE AS_MAC_C;
     1616     5900        %INCLUDE XU_MACRO_C;
     1617     9006        %INCLUDE XU_FORMAT_C;
     1618     9168        %INCLUDE AS_SUPER_R;
     1619    12184    1   DCL PSEUDO_FORM_REC UBIN;
     1620    12185        %ASF$READ_FORM_SEQ ;
     1621    12188        %ASF$PREC_FORM ;
     1622    12191        %ASF$PREC_SKIP_FORM ;
     1623    12194
     1624    12195    1   PSEUDO_FORM = '0'B;         /* Assume there are no pseudo forms */

  12195  1 000002   200005 470500                    LDP0    @PSEUDO_FORM,,AUTO
         1 000003   000000 450100                    STZ     0,,PR0

     1625    12196    1   USERS_KEY = FORM;

  12196  1 000004   200003 471500                    LDP1    @FORM,,AUTO
PL6.E3A0      #014=ASF$QUERY_PSEUDO_FORMS File=ASB$EXT.:E05TSI                   TUE 07/29/97 09:10 Page:401
         1 000005   000000 100500                    MLR     fill='000'O
         1 000006   100000 000007                    ADSC9   0,,PR1                   cn=0,n=7
         1 000007   000000 000052 xsym               ADSC9   USERS_KEY                cn=0,n=42

     1626    12197    1   USERS_KEY.COUNT = 7;

  12197  1 000010   007000 236003                    LDQ     3584,DU
         1 000011   000000 552040 xsym               STBQ    USERS_KEY,'40'O

     1627    12198    1   CALL ASF$PREC_FORM( USERS_KEY );

  12198  1 000012   000000 630400 2                  EPPR0   0
         1 000013   000017 631400 xsym               EPPR1   B_VECTNIL+15
         1 000014   000000 701000 xent               TSX1    ASF$PREC_FORM
         1 000015   000000 011000                    NOP     0

     1628    12199    1   ARS = SIZEC(PSEUDO_FORM_REC);

  12199  1 000016   000004 235007                    LDA     4,DL
         1 000017   200006 755100                    STA     ARS,,AUTO

     1629    12200    1   CALL ASF$READ_FORM_SEQ( ,ADDR(PSEUDO_FORM_REC), ARS ) ALTRET(EXIT#);

  12200  1 000020   200007 630500                    EPPR0   PSEUDO_FORM_REC,,AUTO
         1 000021   200010 450500                    STP0    PSEUDO_FORM_REC+1,,AUTO
         1 000022   200006 631500                    EPPR1   ARS,,AUTO
         1 000023   200013 451500                    STP1    PSEUDO_FORM_REC+4,,AUTO
         1 000024   200010 633500                    EPPR3   PSEUDO_FORM_REC+1,,AUTO
         1 000025   200012 453500                    STP3    PSEUDO_FORM_REC+3,,AUTO
         1 000026   000001 236000 xsym               LDQ     B_VECTNIL+1
         1 000027   200011 756100                    STQ     PSEUDO_FORM_REC+2,,AUTO
         1 000030   200011 630500                    EPPR0   PSEUDO_FORM_REC+2,,AUTO
         1 000031   000021 631400 xsym               EPPR1   B_VECTNIL+17
         1 000032   000000 701000 xent               TSX1    ASF$READ_FORM_SEQ
         1 000033   000054 702000 1                  TSX2    EXIT#

     1630    12201    1   IF USERS_KEY.COUNT = 12  AND  SUBSTR(USERS_KEY.TXTC,0,6) = FORM.TXT
PL6.E3A0      #014=ASF$QUERY_PSEUDO_FORMS File=ASB$EXT.:E05TSI                   TUE 07/29/97 09:10 Page:402

  12201  1 000034   000000 236000 xsym               LDQ     USERS_KEY
         1 000035   777000 376003                    ANQ     -512,DU
         1 000036   014000 116003                    CMPQ    6144,DU
         1 000037   000054 601000 1                  TNZ     EXIT#
         1 000040   200003 470500                    LDP0    @FORM,,AUTO
         1 000041   040100 106400                    CMPC    fill='040'O
         1 000042   000000 200006 xsym               ADSC9   USERS_KEY                cn=1,n=6
         1 000043   000000 200006                    ADSC9   0,,PR0                   cn=1,n=6
         1 000044   000054 601000 1                  TNZ     EXIT#

     1631    12202    2   THEN DO;

     1632    12203    2      PSEUDO_FORM_KEY = USERS_KEY;

  12203  1 000045   200004 471500                    LDP1    @PSEUDO_FORM_KEY,,AUTO
         1 000046   000100 100400                    MLR     fill='000'O
         1 000047   000000 000015 xsym               ADSC9   USERS_KEY                cn=0,n=13
         1 000050   100000 000015                    ADSC9   0,,PR1                   cn=0,n=13

     1633    12204    2      PSEUDO_FORM = '1'B;

  12204  1 000051   400000 236003                    LDQ     -131072,DU
         1 000052   200005 473500                    LDP3    @PSEUDO_FORM,,AUTO
         1 000053   300000 756100                    STQ     0,,PR3

     1634    12205    2      END;

     1635    12206    1   EXIT#:
     1636    12207    1   USERS_KEY = FORM;

  12207  1 000054   200003 470500       EXIT#        LDP0    @FORM,,AUTO
         1 000055   000000 100500                    MLR     fill='000'O
         1 000056   000000 000007                    ADSC9   0,,PR0                   cn=0,n=7
         1 000057   000000 000052 xsym               ADSC9   USERS_KEY                cn=0,n=42

     1637    12208    1   CALL ASF$PREC_SKIP_FORM( USERS_KEY );
PL6.E3A0      #014=ASF$QUERY_PSEUDO_FORMS File=ASB$EXT.:E05TSI                   TUE 07/29/97 09:10 Page:403

  12208  1 000060   000000 630400 2                  EPPR0   0
         1 000061   000017 631400 xsym               EPPR1   B_VECTNIL+15
         1 000062   000000 701000 xent               TSX1    ASF$PREC_SKIP_FORM
         1 000063   000000 011000                    NOP     0

     1638    12209    1   RETURN;

  12209  1 000064   000000 702200 xent               TSX2  ! X66_ARET
     1639    12210
     1640    12211
     1641    12212    1   END ASF$QUERY_PSEUDO_FORMS;
     1642    12213        %EOD;

PL6.E3A0      #014=ASF$QUERY_PSEUDO_FORMS File=ASB$EXT.:E05TSI                   TUE 07/29/97 09:10 Page:404
--  Include file information  --

   AS_SUPER_R.:E05TOU  cannot be made into a system file and is referenced.
   XU_FORMAT_C.:E05TOU  is referenced.
   XU_MACRO_C.:E05TOU  is referenced.
   AS_MAC_C.:E05TOU  cannot be made into a system file and is referenced.
   AS_SUBS_C.:E05TOU  is referenced.
   KL_SUPER_C.:E05TOU  is referenced.
   AS_SUPER_C.:E05TOU  is referenced.
   AS_ENTRIES_M.:E05TOU  is referenced.
   B$JIT_C.:E05TOU  was found in the system file and is never referenced.
   CP_6_C.:E05TOU  was found in the system file and is never referenced.
      No diagnostics issued in procedure ASF$QUERY_PSEUDO_FORMS.
PL6.E3A0      #014=ASF$QUERY_PSEUDO_FORMS File=ASB$EXT.:E05TSI                   TUE 07/29/97 09:10 Page:405

 **** Variables and constants ****

  ****  Auto variables  ****

  ****  Scalars and arrays  ****
OctLoc.c.b A Datatyp(siz) R M Lvl/name                 OctLoc.c.b A Datatyp(siz) R M Lvl/name

     3-0-0/w PTR         r     1 @FORM                      5-0-0/w PTR         r     1 @PSEUDO_FORM
     4-0-0/w PTR         r     1 @PSEUDO_FORM_KEY           6-0-0/w UBIN        r     1 ARS
    *0-0-0/c STRC(63)    r     1 FORM                      *0-0-0/w BIT         r     1 PSEUDO_FORM
    *0-0-0/c STRC(117)   r     1 PSEUDO_FORM_KEY            7-0-0/w UBIN        r     1 PSEUDO_FORM_REC

  ****  SYMREF variables  ****

  ****  Scalars and arrays  ****
OctLoc.c.b A Datatyp(siz) R M Lvl/name                 OctLoc.c.b A Datatyp(siz) R M Lvl/name

     0-0-0/c STRC(378)   r     1 USERS_KEY


   Procedure ASF$QUERY_PSEUDO_FORMS requires 53 words for executable code.
   Procedure ASF$QUERY_PSEUDO_FORMS requires 12 words of local(AUTO) storage.
PL6.E3A0      #014=ASF$QUERY_PSEUDO_FORMS File=ASB$EXT.:E05TSI                   TUE 07/29/97 09:10 Page:406
          *** CROSS REFERENCE LISTING ***
**     DENOTES     IDENTIFIER DEFINITION
<<                 IDENTIFIER'S VALUE SET
>>                 IDENTIFIER'S VALUE USED
<>                 IDENTIFIER SET AND/OR USED
--                 IDENTIFIER REFERENCED
PL6.E3A0      #014=ASF$QUERY_PSEUDO_FORMS File=ASB$EXT.:E05TSI                   TUE 07/29/97 09:10 Page:407
          MINI XREF LISTING

ARS
        17**DCL     12199<<ASSIGN  12200<>CALL
ASA_BRKS_LOC
      9332**DCL      9332--REDEF
ASF$PREC_FORM
     12189**DCL-ENT 12198--CALL
ASF$PREC_SKIP_FORM
     12192**DCL-ENT 12208--CALL
ASF$READ_FORM_SEQ
     12186**DCL-ENT 12200--CALL
AS_DEFAULT.BANNER_PERM
     10025**DCL     10026--REDEF
AS_DEFAULT.BUDGET.MACCT
      9930**DCL      9934--REDEF
AS_DEFAULT.BUDGET.MAX_PROJECTS
      9943**DCL      9946--REDEF
AS_DEFAULT.BUDGET.PACCUM
      9926**DCL      9928--REDEF
AS_DEFAULT.BUDGET.PMAXC
      9921**DCL      9923--REDEF
AS_DEFAULT.SETUP_CHRA.TXT
     10041**DCL     10042--REDEF   10043--REDEF
AS_DEFAULT_DREC.PASSWORD
     11295**DCL     11299--REDEF
AS_DEFAULT_DREC.RENAME
     11318**DCL     11319--REDEF
AS_DFLT.BANNER_PERM
      9847**DCL      9848--REDEF
AS_DFLT.BUDGET.MACCT
      9752**DCL      9756--REDEF
AS_DFLT.BUDGET.MAX_PROJECTS
      9765**DCL      9768--REDEF
PL6.E3A0      #014=ASF$QUERY_PSEUDO_FORMS File=ASB$EXT.:E05TSI                   TUE 07/29/97 09:10 Page:408
AS_DFLT.BUDGET.PACCUM
      9748**DCL      9750--REDEF
AS_DFLT.BUDGET.PMAXC
      9743**DCL      9745--REDEF
AS_DFLT.SETUP_CHRA.TXT
      9863**DCL      9864--REDEF    9865--REDEF
AS_FE_MODE
      9198**DCL      9199--REDEF
AS_MODE
      9195**DCL      9197--REDEF
AS_MOD_USER.ACCESS
     12060**DCL     12061--REDEF
AS_MOD_USER.BANNER
     12047**DCL     12048--REDEF
AS_MOD_USER.BANNER_PERM
     12049**DCL     12050--REDEF
AS_MOD_USER.BILL
     12055**DCL     12056--REDEF
AS_MOD_USER.CPROC
     12051**DCL     12052--REDEF
AS_MOD_USER.FEBILL
     12131**DCL     12132--REDEF
AS_MOD_USER.FECXTMEM
     12148**DCL     12149--REDEF
AS_MOD_USER.FEMINTS
     12133**DCL     12134--REDEF
AS_MOD_USER.FEMMEM
     12144**DCL     12145--REDEF
AS_MOD_USER.FEMTIME
     12142**DCL     12143--REDEF
AS_MOD_USER.FEPPRIV
     12139**DCL     12141--REDEF
AS_MOD_USER.FEPRIV
     12136**DCL     12138--REDEF
AS_MOD_USER.FORCE_BIT
     12045**DCL     12046--REDEF
PL6.E3A0      #014=ASF$QUERY_PSEUDO_FORMS File=ASB$EXT.:E05TSI                   TUE 07/29/97 09:10 Page:409
AS_MOD_USER.KEY
     12127**DCL     12129--REDEF
AS_MOD_USER.LASTCPROC
     12053**DCL     12054--REDEF
AS_MOD_USER.LIMITS.DO_
     12101**DCL     12102--REDEF
AS_MOD_USER.LIMITS.FPOOLS
     12117**DCL     12118--REDEF
AS_MOD_USER.LIMITS.LO
     12097**DCL     12098--REDEF
AS_MOD_USER.LIMITS.MEM
     12093**DCL     12094--REDEF
AS_MOD_USER.LIMITS.MPRIO
     12121**DCL     12122--REDEF
AS_MOD_USER.LIMITS.PDIS
     12109**DCL     12110--REDEF
AS_MOD_USER.LIMITS.PO
     12105**DCL     12106--REDEF
AS_MOD_USER.LIMITS.TDIS
     12113**DCL     12114--REDEF
AS_MOD_USER.LIMITS.TIME
     12089**DCL     12090--REDEF
AS_MOD_USER.MAXENQ
     12070**DCL     12071--REDEF
AS_MOD_USER.PERM_BIT
     12043**DCL     12044--REDEF
AS_MOD_USER.PPRIV
     12065**DCL     12067--REDEF
AS_MOD_USER.PRIOB
     12072**DCL     12073--REDEF
AS_MOD_USER.PRIV
     12062**DCL     12064--REDEF
AS_MOD_USER.QUAN
     12068**DCL     12069--REDEF
AS_MOD_USER.SETUP
     12041**DCL     12042--REDEF
PL6.E3A0      #014=ASF$QUERY_PSEUDO_FORMS File=ASB$EXT.:E05TSI                   TUE 07/29/97 09:10 Page:410
AS_PROJECT.BANNER_PERM
     10381**DCL     10382--REDEF
AS_PROJECT.BUDGET.MACCT
     10286**DCL     10290--REDEF
AS_PROJECT.BUDGET.MAX_PROJECTS
     10299**DCL     10302--REDEF
AS_PROJECT.BUDGET.PACCUM
     10282**DCL     10284--REDEF
AS_PROJECT.BUDGET.PMAXC
     10277**DCL     10279--REDEF
AS_PROJECT.SETUP_CHRA.TXT
     10397**DCL     10398--REDEF   10399--REDEF
AS_PROJECT_DFLT.BANNER_PERM
     10559**DCL     10560--REDEF
AS_PROJECT_DFLT.BUDGET.MACCT
     10464**DCL     10468--REDEF
AS_PROJECT_DFLT.BUDGET.MAX_PROJECTS
     10477**DCL     10480--REDEF
AS_PROJECT_DFLT.BUDGET.PACCUM
     10460**DCL     10462--REDEF
AS_PROJECT_DFLT.BUDGET.PMAXC
     10455**DCL     10457--REDEF
AS_PROJECT_DFLT.SETUP_CHRA.TXT
     10575**DCL     10576--REDEF   10577--REDEF
AS_PROJECT_DFLT_DREC.PASSWORD
     11781**DCL     11785--REDEF
AS_PROJECT_DFLT_DREC.RENAME
     11804**DCL     11805--REDEF
AS_PROJECT_DREC.PASSWORD
     11619**DCL     11623--REDEF
AS_PROJECT_DREC.RENAME
     11642**DCL     11643--REDEF
AS_PROJ_ADMIN.BANNER_PERM
     10203**DCL     10204--REDEF
AS_PROJ_ADMIN.BUDGET.MACCT
     10108**DCL     10112--REDEF
PL6.E3A0      #014=ASF$QUERY_PSEUDO_FORMS File=ASB$EXT.:E05TSI                   TUE 07/29/97 09:10 Page:411
AS_PROJ_ADMIN.BUDGET.MAX_PROJECTS
     10121**DCL     10124--REDEF
AS_PROJ_ADMIN.BUDGET.PACCUM
     10104**DCL     10106--REDEF
AS_PROJ_ADMIN.BUDGET.PMAXC
     10099**DCL     10101--REDEF
AS_PROJ_ADMIN.SETUP_CHRA.TXT
     10219**DCL     10220--REDEF   10221--REDEF
AS_PROJ_ADMIN_DREC.PASSWORD
     11457**DCL     11461--REDEF
AS_PROJ_ADMIN_DREC.RENAME
     11480**DCL     11481--REDEF
AS_USERS.BANNER_PERM
      9669**DCL      9670--REDEF
AS_USERS.BUDGET.MACCT
      9574**DCL      9578--REDEF
AS_USERS.BUDGET.MAX_PROJECTS
      9587**DCL      9590--REDEF
AS_USERS.BUDGET.PACCUM
      9570**DCL      9572--REDEF
AS_USERS.BUDGET.PMAXC
      9565**DCL      9567--REDEF
AS_USERS.SETUP_CHRA.TXT
      9685**DCL      9686--REDEF    9687--REDEF
AS_USERS_CONSTANT.BANNER_PERM
     10737**DCL     10738--REDEF
AS_USERS_CONSTANT.BUDGET.MACCT
     10642**DCL     10646--REDEF
AS_USERS_CONSTANT.BUDGET.MAX_PROJECTS
     10655**DCL     10658--REDEF
AS_USERS_CONSTANT.BUDGET.PACCUM
     10638**DCL     10640--REDEF
AS_USERS_CONSTANT.BUDGET.PMAXC
     10633**DCL     10635--REDEF
AS_USERS_CONSTANT.SETUP_CHRA.TXT
     10753**DCL     10754--REDEF   10755--REDEF
PL6.E3A0      #014=ASF$QUERY_PSEUDO_FORMS File=ASB$EXT.:E05TSI                   TUE 07/29/97 09:10 Page:412
ERR_CODE
      9327**DCL      9328--REDEF
EXIT#
     12207**LABEL   12200--CALLALT
FORM
        10**DCL         7--PROC    12196>>ASSIGN  12207>>ASSIGN
FORM.TXT
        12**DCL     12201>>IF
KL_DEFAULT.PASSWORD
     11943**DCL     11947--REDEF
KL_DEFAULT.RENAME
     11966**DCL     11967--REDEF
KL_DFLT.PASSWORD
     11133**DCL     11137--REDEF
KL_DFLT.RENAME
     11156**DCL     11157--REDEF
KL_DREC.PASSWORD
     10971**DCL     10975--REDEF
KL_DREC.RENAME
     10994**DCL     10995--REDEF
KL_DREC_CNT.PASSWORD
     10858**DCL     10862--REDEF
KL_DREC_CNT.RENAME
     10881**DCL     10882--REDEF
PROJ_KEY.TEXT
      9205**DCL      9205--REDEF
PROJ_KEY.TXT.PROJECT
      9205**DCL      9205--REDEF
PSEUDO_FORM
        16**DCL         7--PROC    12195<<ASSIGN  12204<<ASSIGN
PSEUDO_FORM_KEY
        13**DCL         7--PROC    12203<<ASSIGN
PSEUDO_FORM_REC
     12184**DCL     12199--ASSIGN  12200--CALL
REMEM_VAR
      9331**DCL      9331--REDEF
PL6.E3A0      #014=ASF$QUERY_PSEUDO_FORMS File=ASB$EXT.:E05TSI                   TUE 07/29/97 09:10 Page:413
REM_FCMD
      9331**DCL      9332--REDEF
USERS_KEY
      9202**DCL     12196<<ASSIGN  12198<>CALL    12203>>ASSIGN  12207<<ASSIGN  12208<>CALL
USERS_KEY.COUNT
      9202**DCL     12197<<ASSIGN  12201>>IF
USERS_KEY.TEXT
      9202**DCL      9203--REDEF    9203--REDEF    9203--REDEF    9204--REDEF
USERS_KEY.TXTC
      9203**DCL     12201>>IF

PL6.E3A0      #015=GET_CONFIGS_LP01_ATTRS File=ASB$EXT.:E05TSI                   TUE 07/29/97 09:11 Page:414
     1643        1        /*T***********************************************************/
     1644        2        /*T*                                                         */
     1645        3        /*T* Copyright (c) Bull HN Information Systems Inc., 1997    */
     1646        4        /*T*                                                         */
     1647        5        /*T***********************************************************/
     1648        6        %EJECT;
PL6.E3A0      #015=GET_CONFIGS_LP01_ATTRS File=ASB$EXT.:E05TSI                   TUE 07/29/97 09:11 Page:415
     1649        7        /*I*
     1650        8             NAME: GET_CONFIGS_LP01_ATTRS
     1651        9             PURPOSE:
     1652       10                  To get the attributes of LP01 from the :CONFIG file and return them
     1653       11                  in the parameter field.
     1654       12             CALL:
     1655       13                  CALL GET_CONFIGS_LP01_ATTRS (BIT18_ATTRS) ALTRET (NO_LP01);
     1656       14             PARAMETERS:
     1657       15                  BIT18_ATTRS -A Bit (18) field which will contain the attributes of
     1658       16                  LP01.  If this routine altreturns, the contents of this field are
     1659       17                  undefined.
     1660       18             DATA:
     1661       19                  If this routine gets an unknown error (ie. the '0'O record of :CONFIG
     1662       20                  is missing, or the LP01 record is not there and should be, or open or
     1663       21                  close problems) a call is made to ASH$ERROR to handle the surprise.
     1664       22             DESCRIPTION:
     1665       23                  This routine will ONLY get the 18 bit attribute field from the LP01
     1666       24                  record in :CONFIG and return it in the parameter.  This field should
     1667       25                  be aligned.
     1668       26        */
     1669       27
     1670       28        GET_CONFIGS_LP01_ATTRS: PROC (ATTRIBUTES) ALTRET ;
     1671       29    1   DCL ATTRIBUTES BIT (18) ALIGNED;
     1672       30        %INCLUDE AS_PERR_C;
     1673      632        %INCLUDE TD$STRUCT ;
     1674      733        %INCLUDE AS_ENTRIES_M;
     1675     1783        %INCLUDE CP_6;
     1676     1864        %INCLUDE CP_6_SUBS;
     1677     2404        %INCLUDE AS_SUPER_C;
     1678     2839        %INCLUDE KL_SUPER_C;
     1679     5741        %INCLUDE AS_SUBS_C;
     1680     7155        %INCLUDE AS_MAC_C;
     1681     7235        %INCLUDE B_ERRORS_C;
     1682     8362        %INCLUDE XU_MACRO_C;
     1683    11468        %INCLUDE XU_FORMAT_C;
     1684    11630        %INCLUDE AS_SUPER_R;
     1685    14646        %INCLUDE XG_SUBS_C ;
PL6.E3A0      #015=GET_CONFIGS_LP01_ATTRS File=ASB$EXT.:E05TSI                   TUE 07/29/97 09:11 Page:416
     1686    15140
     1687    15141    1   DCL 1 FILE_NAME CONSTANT ,
     1688    15142    1          2 COUNT UBIN(9) UNAL INIT(7) ,
     1689    15143    1          2 TEXT CHAR(31) UNAL INIT(':CONFIG') ;
     1690    15144
     1691    15145    1   DCL B$TCB$ PTR SYMREF ;
     1692    15146
     1693    15147        %FPT_OPEN(  FPTN = OPEN_FPT ,
     1694    15148                    NAME = FILE_NAME ,
     1695    15149                    ACCT = FILE_ACCT ,
     1696    15150                    ASN = FILE ,
     1697    15151                    DCB = M$CNFG ,
     1698    15152                    ACS = DIRECT ,
     1699    15153                    ORG = KEYED ,
     1700    15154                    FUN = IN ,
     1701    15155                    SHARE = ALL ) ;
     1702    15264        %FPT_CLOSE( FPTN = CLOSE_FPT ,
     1703    15265                    DCB = M$CNFG ,
     1704    15266                    DISP = SAVE ) ;
     1705    15308
     1706    15309    1   DCL M$CNFG DCB ;                  /* Read dcb for :CONFIG */
     1707    15310    1   DCL M$CNFG$ PTR ;
     1708    15311
     1709    15312    1   DCL I UBIN WORD ;
     1710    15313    1   DCL J UBIN WORD ;
     1711    15314    1   DCL HEAD$ PTR ;
     1712    15315    1   DCL ARS UBIN WORD ;
     1713    15316    1   DCL 1 KEY ALIGNED ,
     1714    15317    1          2 CNT UBIN BYTE UNAL ,
     1715    15318    1          2 TXT CHAR(12) UNAL ;
     1716    15319
     1717    15320        %ASH$ERROR ;
     1718    15323        %ASB$GETSEG ;
     1719    15326
     1720    15327        %B$ALT ;
     1721    15335        %B$TCB ;
     1722    15338        %TD$HEAD( NAME = TD$HEAD ,
PL6.E3A0      #015=GET_CONFIGS_LP01_ATTRS File=ASB$EXT.:E05TSI                   TUE 07/29/97 09:11 Page:417
     1723    15339                  STCLASS="BASED( HEAD$ )") ;
     1724    15375        %TD$DEV(  NAME = TD$DEV ,
     1725    15376                  STCLASS="BASED( HEAD$ )") ;
     1726    15395        %EJECT ;
PL6.E3A0      #015=GET_CONFIGS_LP01_ATTRS File=ASB$EXT.:E05TSI                   TUE 07/29/97 09:11 Page:418
     1727    15396        /*
     1728    15397            ***            Begin procedure                    ***
     1729    15398        */
     1730    15399    1   IF NOT DSEG_FLG THEN
     1731    15400    1      CALL ASB$GETSEG
     1732    15401    2      WHENALTRETURN DO;
     1733    15402              %SCREAM( ERR#=%E$GETSEGERR ,MID='F',LEVEL=ERROR);
     1734    15417    2         RETURN ;
     1735    15418    2         END ; /* Do whenaltreturn */
     1736    15419                                                        /* Open :CONFIG */
     1737    15420    1   CALL M$OPEN( OPEN_FPT ) ALTRET (UNKNOWN_ERR ) ;
     1738    15421
     1739    15422    1   HEAD$ = DSEG1$;
     1740    15423    1   ARS = DSEG1SIZE - 4 * 1024 ;
     1741    15424    1   KEY = '0'B ;
     1742    15425    1   KEY.CNT = 1 ;
     1743    15426    1   CALL READ_CONFIG( KEY, HEAD$, ARS ) ALTRET (UNKNOWN_ERR);
     1744    15427    1   IF TD$HEAD.NUMLPS = 0
     1745    15428    2   THEN DO;
     1746    15429    2      ALTRETURN;
     1747    15430    2      END;
     1748    15431    1   KEY.CNT = 8;
     1749    15432    1   KEY.TXT = TD$HEAD.DEVNAME (TD$HEAD.LP_INDX);
     1750    15433    1   CALL READ_CONFIG( KEY, HEAD$, ARS ) ALTRET (UNKNOWN_ERR);
     1751    15434    1   ATTRIBUTES = TD$DEV.ATTR;
     1752    15435
     1753    15436    1   CALL M$CLOSE( CLOSE_FPT ) ;
     1754    15437    1   RETURN ;
     1755    15438
     1756    15439        /* A monitor call altreturned, we dont know how to handle it!! */
     1757    15440    1   UNKNOWN_ERR: ;
     1758    15441    1   ERR_CODE = B$TCB$ -> B$TCB.ALT$ -> B$ALT.ERR ;
     1759    15442    1   CALL ASH$ERROR( ERR_CODE ) ;
     1760    15443    1   RETURN ;
     1761    15444
     1762    15445        %EJECT ;
PL6.E3A0      #015=GET_CONFIGS_LP01_ATTRS File=ASB$EXT.:E05TSI                   TUE 07/29/97 09:11 Page:419
     1763    15446        /*I*
     1764    15447             NAME: READ_CONFIG
     1765    15448             PURPOSE:
     1766    15449                  Read a record from the :CONFIG file and return it with the its size.
     1767    15450             CALL:
     1768    15451                  CALL READ_CONFIG (KEY, BUF$, ARS) ALTRET (MON_ERR);
     1769    15452             PARAMETERS:
     1770    15453                  KEY - the CP-6 key of the record to be read from :CONFIG.
     1771    15454                  BUF$- A pointer to the area to read the record into.
     1772    15455                  ARS - Here is where we return the size of the record read.
     1773    15456             DATA:
     1774    15457                  The altreturn is taken if the M$READ altrets.  If this occurs, the
     1775    15458                  global value ERR_CODE is set with the error code from the JIT.
     1776    15459             DESCRIPTION:
     1777    15460                  Read the record whose key is KEY into the area pointed to by BUF$,
     1778    15461                  and return the size of the record read in ARS.  If this routine
     1779    15462                  altrets, the contents of ARS are undefined.
     1780    15463        */
     1781    15464    1   READ_CONFIG: PROC( KEY, BUF$, SIZE ) ALTRET ;
     1782    15465    2   DCL 1 KEY ,
     1783    15466    2          2 CNT UBIN BYTE UNAL ,
     1784    15467    2          2 TXT CHAR(31) UNAL ;
     1785    15468    2   DCL BUF$ PTR ;
     1786    15469    2   DCL SIZE UBIN WORD ;
     1787    15470
     1788    15471        %FPT_READ(  FPTN = READ_FPT ,
     1789    15472                    DCB = M$CNFG ,
     1790    15473                    KEYS = YES ) ;
     1791    15512
     1792    15513        %INCLUDE F$DCB ;
     1793    15562        /*
     1794    15563                        Set BUF$ in read fpt
     1795    15564        */
     1796    15565    2   READ_FPT.BUF_.BUF$ = BUF$ ;
     1797    15566    2   READ_FPT.BUF_.BOUND = SIZE - 1;
     1798    15567    2   READ_FPT.KEY_ = VECTOR( KEY ) ;
     1799    15568    2   CALL M$READ( READ_FPT ) ALTRET( READ_ERR ) ;
PL6.E3A0      #015=GET_CONFIGS_LP01_ATTRS File=ASB$EXT.:E05TSI                   TUE 07/29/97 09:11 Page:420
     1800    15569    2   M$CNFG$ = DCBADDR( DCBNUM( M$CNFG ) ) ;
     1801    15570    2   ARS = M$CNFG$ -> F$DCB.ARS ;
     1802    15571    2   RETURN ;
     1803    15572
     1804    15573    2   READ_ERR: ;
     1805    15574    2   ERR_CODE = B$TCB$ -> B$TCB.ALT$ -> B$ALT.ERR ;
     1806    15575    2   ALTRETURN ;
     1807    15576
     1808    15577    2   END READ_CONFIG ;
     1809    15578    1   END GET_CONFIGS_LP01_ATTRS;

PL6.E3A0      #015=GET_CONFIGS_LP01_ATTRS File=ASB$EXT.:E05TSI                   TUE 07/29/97 09:11 Page:421
--  Include file information  --

   F$DCB.:E05TOU  cannot be made into a system file and is referenced.
   XG_SUBS_C.:E05TOU  is referenced.
   AS_SUPER_R.:E05TOU  cannot be made into a system file and is referenced.
   XU_FORMAT_C.:E05TOU  is referenced.
   XU_MACRO_C.:E05TOU  is referenced.
   B_ERRORS_C.:E05TOU  is referenced.
   AS_MAC_C.:E05TOU  cannot be made into a system file and is referenced.
   AS_SUBS_C.:E05TOU  is referenced.
   KL_SUPER_C.:E05TOU  is referenced.
   AS_SUPER_C.:E05TOU  is referenced.
   CP_6_SUBS.:E05TOU  is referenced.
   CP_6.:E05TOU  cannot be made into a system file and is referenced.
   AS_ENTRIES_M.:E05TOU  is referenced.
   TD$STRUCT.:E05TOU  is referenced.
   AS_PERR_C.:E05TOU  is referenced.
   B$JIT_C.:E05TOU  was found in the system file and is never referenced.
   CP_6_C.:E05TOU  was found in the system file and is referenced.
      No diagnostics issued in procedure GET_CONFIGS_LP01_ATTRS.

   Procedure GET_CONFIGS_LP01_ATTRS requires 107 words for executable code.
   Procedure GET_CONFIGS_LP01_ATTRS requires 18 words of local(AUTO) storage.

    No errors detected in file ASB$EXT.:E05TSI    .

PL6.E3A0      #015=GET_CONFIGS_LP01_ATTRS File=ASB$EXT.:E05TSI                   TUE 07/29/97 09:11 Page:422

 Object Unit name= GET_CONFIGS_LP01_ATTRS                     File name= ASB$EXT.:E05TOU
 UTS= JUL 29 '97 09:11:31.12 TUE                              Compiler= PL-6/E31         Sev=      00
 SharedLib= :SHARED_SYSTEM                                    Alt SharedLib=


    ****  Control sections  ****

 Sect   Type Bound  Init  Size OctSiz  Section name(segment info)
    0   DCB   even  none     0      0  M$UC
    1   DCB   even  none     0      0  M$LO
    2  RoData even  UTS      9     11  GET_CONFIGS_LP01_ATTRS
    3   Data  even  none   102    146  GET_CONFIGS_LP01_ATTRS
    4   DCB   even  none     0      0  M$CNFG
    5   Proc  even  none   107    153  GET_CONFIGS_LP01_ATTRS
    6  RoData even  none     4      4  GET_CONFIGS_LP01_ATTRS

    ****  Entry defs  ****

                              Check   Calling
                             calling  sequence
  Sect OctLoc Primary Altret sequence   type   Parms  Name
     5      0   yes    yes     yes      Std        1  GET_CONFIGS_LP01_ATTRS

  ****  Entry refs  ****

         Check        Calling
        calling       sequence
Altret sequence SRef   type   Args  Name
         yes          ~proc      0 XU_OUTPUT_OPTIONS
 yes     yes           Std       0 ASB$GETSEG
         yes           Std       2 ASH$ERROR
                       nStd      0 X66_AUTO_1
                       Std       0 B_CONSPOOL_D
                       nStd      0 X66_ARET
                       nStd      0 X66_AALT
PL6.E3A0      #015=GET_CONFIGS_LP01_ATTRS File=ASB$EXT.:E05TSI                   TUE 07/29/97 09:11 Page:423

  ****  Data refs  ****

  Flags:  r = read only, s = secondary
Flgs Name                             Flgs Name                             Flgs Name
     M$UC                             r    AS_MODE                          r    AS_FE_MODE
     M$LO                                  ERR_CODE                              REMEM_VAR
     REM_FCMD                              ASA_BRKS_LOC                          DSEG_FLG
     DSEG1$                                DSEG1SIZE                             FILE_ACCT
     B$TCB$                                M$CNFG                                B_VECTNIL

  ****  Segment refs  ****

  Flags:  r = read only, s = secondary
Flgs Name                             Flgs Name                             Flgs Name
     ISSID                                 NULLSID                               ROSID
PL6.E3A0      #015=GET_CONFIGS_LP01_ATTRS File=ASB$EXT.:E05TSI                   TUE 07/29/97 09:11 Page:424


     1643        1        /*T***********************************************************/
     1644        2        /*T*                                                         */
     1645        3        /*T* Copyright (c) Bull HN Information Systems Inc., 1997    */
     1646        4        /*T*                                                         */
     1647        5        /*T***********************************************************/
     1648        6        %EJECT;
PL6.E3A0      #015=GET_CONFIGS_LP01_ATTRS File=ASB$EXT.:E05TSI                   TUE 07/29/97 09:11 Page:425
     1649        7        /*I*
     1650        8             NAME: GET_CONFIGS_LP01_ATTRS
     1651        9             PURPOSE:
     1652       10                  To get the attributes of LP01 from the :CONFIG file and return them
     1653       11                  in the parameter field.
     1654       12             CALL:
     1655       13                  CALL GET_CONFIGS_LP01_ATTRS (BIT18_ATTRS) ALTRET (NO_LP01);
     1656       14             PARAMETERS:
     1657       15                  BIT18_ATTRS -A Bit (18) field which will contain the attributes of
     1658       16                  LP01.  If this routine altreturns, the contents of this field are
     1659       17                  undefined.
     1660       18             DATA:
     1661       19                  If this routine gets an unknown error (ie. the '0'O record of :CONFIG
     1662       20                  is missing, or the LP01 record is not there and should be, or open or
     1663       21                  close problems) a call is made to ASH$ERROR to handle the surprise.
     1664       22             DESCRIPTION:
     1665       23                  This routine will ONLY get the 18 bit attribute field from the LP01
     1666       24                  record in :CONFIG and return it in the parameter.  This field should
     1667       25                  be aligned.
     1668       26        */
     1669       27
     1670       28        GET_CONFIGS_LP01_ATTRS: PROC (ATTRIBUTES) ALTRET ;

     28  5 000000   000000 700200 xent  GET_CONFIGS* TSX0  ! X66_AUTO_1
         5 000001   000022 000001                    ZERO    18,1

     1671       29    1   DCL ATTRIBUTES BIT (18) ALIGNED;
     1672       30        %INCLUDE AS_PERR_C;
     1673      632        %INCLUDE TD$STRUCT ;
     1674      733        %INCLUDE AS_ENTRIES_M;
     1675     1783        %INCLUDE CP_6;
     1676     1864        %INCLUDE CP_6_SUBS;
     1677     2404        %INCLUDE AS_SUPER_C;
     1678     2839        %INCLUDE KL_SUPER_C;
     1679     5741        %INCLUDE AS_SUBS_C;
     1680     7155        %INCLUDE AS_MAC_C;
     1681     7235        %INCLUDE B_ERRORS_C;
PL6.E3A0      #015=GET_CONFIGS_LP01_ATTRS File=ASB$EXT.:E05TSI                   TUE 07/29/97 09:11 Page:426
     1682     8362        %INCLUDE XU_MACRO_C;
     1683    11468        %INCLUDE XU_FORMAT_C;
     1684    11630        %INCLUDE AS_SUPER_R;
     1685    14646        %INCLUDE XG_SUBS_C ;
     1686    15140
     1687    15141    1   DCL 1 FILE_NAME CONSTANT ,
     1688    15142    1          2 COUNT UBIN(9) UNAL INIT(7) ,
     1689    15143    1          2 TEXT CHAR(31) UNAL INIT(':CONFIG') ;
     1690    15144
     1691    15145    1   DCL B$TCB$ PTR SYMREF ;
     1692    15146
     1693    15147        %FPT_OPEN(  FPTN = OPEN_FPT ,
     1694    15148                    NAME = FILE_NAME ,
     1695    15149                    ACCT = FILE_ACCT ,
     1696    15150                    ASN = FILE ,
     1697    15151                    DCB = M$CNFG ,
     1698    15152                    ACS = DIRECT ,
     1699    15153                    ORG = KEYED ,
     1700    15154                    FUN = IN ,
     1701    15155                    SHARE = ALL ) ;
     1702    15264        %FPT_CLOSE( FPTN = CLOSE_FPT ,
     1703    15265                    DCB = M$CNFG ,
     1704    15266                    DISP = SAVE ) ;
     1705    15308
     1706    15309    1   DCL M$CNFG DCB ;                  /* Read dcb for :CONFIG */
     1707    15310    1   DCL M$CNFG$ PTR ;
     1708    15311
     1709    15312    1   DCL I UBIN WORD ;
     1710    15313    1   DCL J UBIN WORD ;
     1711    15314    1   DCL HEAD$ PTR ;
     1712    15315    1   DCL ARS UBIN WORD ;
     1713    15316    1   DCL 1 KEY ALIGNED ,
     1714    15317    1          2 CNT UBIN BYTE UNAL ,
     1715    15318    1          2 TXT CHAR(12) UNAL ;
     1716    15319
     1717    15320        %ASH$ERROR ;
     1718    15323        %ASB$GETSEG ;
PL6.E3A0      #015=GET_CONFIGS_LP01_ATTRS File=ASB$EXT.:E05TSI                   TUE 07/29/97 09:11 Page:427
     1719    15326
     1720    15327        %B$ALT ;
     1721    15335        %B$TCB ;
     1722    15338        %TD$HEAD( NAME = TD$HEAD ,
     1723    15339                  STCLASS="BASED( HEAD$ )") ;
     1724    15375        %TD$DEV(  NAME = TD$DEV ,
     1725    15376                  STCLASS="BASED( HEAD$ )") ;
     1726    15395        %EJECT ;
PL6.E3A0      #015=GET_CONFIGS_LP01_ATTRS File=ASB$EXT.:E05TSI                   TUE 07/29/97 09:11 Page:428
     1727    15396        /*
     1728    15397            ***            Begin procedure                    ***
     1729    15398        */
     1730    15399    1   IF NOT DSEG_FLG THEN

  15399  5 000002   000000 234000 xsym               SZN     DSEG_FLG
         5 000003   000015 604000 5                  TMI     s:15420

     1731    15400    1      CALL ASB$GETSEG

  15400  5 000004   000002 631400 xsym               EPPR1   B_VECTNIL+2
         5 000005   000000 701000 xent               TSX1    ASB$GETSEG
         5 000006   000010 702000 5                  TSX2    s:15414
         5 000007   000015 710000 5                  TRA     s:15420

     1732    15401    2      WHENALTRETURN DO;

     1733    15402              %SCREAM( ERR#=%E$GETSEGERR ,MID='F',LEVEL=ERROR);

  15414  5 000010   000000 630400 6                  EPPR0   0
         5 000011   000017 631400 xsym               EPPR1   B_VECTNIL+15
         5 000012   000000 701000 xent               TSX1    ASH$ERROR
         5 000013   000000 011000                    NOP     0

     1734    15417    2         RETURN ;

  15417  5 000014   000000 702200 xent               TSX2  ! X66_ARET

     1735    15418    2         END ; /* Do whenaltreturn */
     1736    15419                                                        /* Open :CONFIG */
     1737    15420    1   CALL M$OPEN( OPEN_FPT ) ALTRET (UNKNOWN_ERR ) ;

  15420  5 000015   000000 630400 3                  EPPR0   OPEN_FPT
         5 000016   450000 713400                    CLIMB   alt,open
         5 000017   410400 401760                    pmme    nvectors=18
         5 000020   000100 702000 5                  TSX2    UNKNOWN_ERR

PL6.E3A0      #015=GET_CONFIGS_LP01_ATTRS File=ASB$EXT.:E05TSI                   TUE 07/29/97 09:11 Page:429
     1738    15421
     1739    15422    1   HEAD$ = DSEG1$;

  15422  5 000021   000000 236000 xsym               LDQ     DSEG1$
         5 000022   200007 756100                    STQ     HEAD$,,AUTO

     1740    15423    1   ARS = DSEG1SIZE - 4 * 1024 ;

  15423  5 000023   000000 235000 xsym               LDA     DSEG1SIZE
         5 000024   010000 135007                    SBLA    4096,DL
         5 000025   200010 755100                    STA     ARS,,AUTO

     1741    15424    1   KEY = '0'B ;

  15424  5 000026   000100 100400                    MLR     fill='000'O
         5 000027   000002 000001 xsym               ADSC9   B_VECTNIL+2              cn=0,n=1
         5 000030   200011 000015                    ADSC9   KEY,,AUTO                cn=0,n=13

     1742    15425    1   KEY.CNT = 1 ;

  15425  5 000031   001000 236003                    LDQ     512,DU
         5 000032   200011 552140                    STBQ    KEY,'40'O,AUTO

     1743    15426    1   CALL READ_CONFIG( KEY, HEAD$, ARS ) ALTRET (UNKNOWN_ERR);

  15426  5 000033   200010 630500                    EPPR0   ARS,,AUTO
         5 000034   200021 450500                    STP0    @BUF$+1,,AUTO
         5 000035   200007 631500                    EPPR1   HEAD$,,AUTO
         5 000036   200020 451500                    STP1    @KEY+1,,AUTO
         5 000037   200011 633500                    EPPR3   KEY,,AUTO
         5 000040   200017 453500                    STP3    KEY+6,,AUTO
         5 000041   000111 701000 5                  TSX1    READ_CONFIG
         5 000042   000100 702000 5                  TSX2    UNKNOWN_ERR

     1744    15427    1   IF TD$HEAD.NUMLPS = 0

  15427  5 000043   200007 470500                    LDP0    HEAD$,,AUTO
PL6.E3A0      #015=GET_CONFIGS_LP01_ATTRS File=ASB$EXT.:E05TSI                   TUE 07/29/97 09:11 Page:430
         5 000044   000010 720100                    LXL0    8,,PR0
         5 000045   000047 601000 5                  TNZ     s:15431

     1745    15428    2   THEN DO;

     1746    15429    2      ALTRETURN;

  15429  5 000046   000000 702200 xent               TSX2  ! X66_AALT

     1747    15430    2      END;
     1748    15431    1   KEY.CNT = 8;

  15431  5 000047   010000 236003                    LDQ     4096,DU
         5 000050   200011 552140                    STBQ    KEY,'40'O,AUTO

     1749    15432    1   KEY.TXT = TD$HEAD.DEVNAME (TD$HEAD.LP_INDX);

  15432  5 000051   000010 220100                    LDX0    8,,PR0
         5 000052   000010 020100                    ADLX0   8,,PR0
         5 000053   000000 635010                    EAA     0,X0
         5 000054   000020 771000                    ARL     16
         5 000055   040100 100505                    MLR     fill='040'O
         5 000056   000020 000010                    ADSC9   16,A,PR0                 cn=0,n=8
         5 000057   200011 200014                    ADSC9   KEY,,AUTO                cn=1,n=12

     1750    15433    1   CALL READ_CONFIG( KEY, HEAD$, ARS ) ALTRET (UNKNOWN_ERR);

  15433  5 000060   200010 631500                    EPPR1   ARS,,AUTO
         5 000061   200021 451500                    STP1    @BUF$+1,,AUTO
         5 000062   200007 633500                    EPPR3   HEAD$,,AUTO
         5 000063   200020 453500                    STP3    @KEY+1,,AUTO
         5 000064   200011 634500                    EPPR4   KEY,,AUTO
         5 000065   200017 454500                    STP4    KEY+6,,AUTO
         5 000066   000111 701000 5                  TSX1    READ_CONFIG
         5 000067   000100 702000 5                  TSX2    UNKNOWN_ERR

     1751    15434    1   ATTRIBUTES = TD$DEV.ATTR;
PL6.E3A0      #015=GET_CONFIGS_LP01_ATTRS File=ASB$EXT.:E05TSI                   TUE 07/29/97 09:11 Page:431

  15434  5 000070   200007 470500                    LDP0    HEAD$,,AUTO
         5 000071   000011 720100                    LXL0    9,,PR0
         5 000072   200003 471500                    LDP1    @ATTRIBUTES,,AUTO
         5 000073   100000 740100                    STX0    0,,PR1

     1752    15435
     1753    15436    1   CALL M$CLOSE( CLOSE_FPT ) ;

  15436  5 000074   000072 630400 3                  EPPR0   CLOSE_FPT
         5 000075   050001 713400                    CLIMB   close
         5 000076   406000 401760                    pmme    nvectors=13

     1754    15437    1   RETURN ;

  15437  5 000077   000000 702200 xent               TSX2  ! X66_ARET

  15434  5 000100                       UNKNOWN_ERR  null
     1755    15438
     1756    15439        /* A monitor call altreturned, we dont know how to handle it!! */
     1757    15440    1   UNKNOWN_ERR: ;
     1758    15441    1   ERR_CODE = B$TCB$ -> B$TCB.ALT$ -> B$ALT.ERR ;

  15441  5 000100   000000 470400 xsym               LDP0    B$TCB$
         5 000101   000000 471500                    LDP1    0,,PR0
         5 000102   100102 236100                    LDQ     66,,PR1
         5 000103   000000 756000 xsym               STQ     ERR_CODE

     1759    15442    1   CALL ASH$ERROR( ERR_CODE ) ;

  15442  5 000104   000001 630400 6                  EPPR0   1
         5 000105   000017 631400 xsym               EPPR1   B_VECTNIL+15
         5 000106   000000 701000 xent               TSX1    ASH$ERROR
         5 000107   000000 011000                    NOP     0

     1760    15443    1   RETURN ;

PL6.E3A0      #015=GET_CONFIGS_LP01_ATTRS File=ASB$EXT.:E05TSI                   TUE 07/29/97 09:11 Page:432
  15443  5 000110   000000 702200 xent               TSX2  ! X66_ARET

     1761    15444
     1762    15445        %EJECT ;
PL6.E3A0      #015=GET_CONFIGS_LP01_ATTRS File=ASB$EXT.:E05TSI                   TUE 07/29/97 09:11 Page:433
     1763    15446        /*I*
     1764    15447             NAME: READ_CONFIG
     1765    15448             PURPOSE:
     1766    15449                  Read a record from the :CONFIG file and return it with the its size.
     1767    15450             CALL:
     1768    15451                  CALL READ_CONFIG (KEY, BUF$, ARS) ALTRET (MON_ERR);
     1769    15452             PARAMETERS:
     1770    15453                  KEY - the CP-6 key of the record to be read from :CONFIG.
     1771    15454                  BUF$- A pointer to the area to read the record into.
     1772    15455                  ARS - Here is where we return the size of the record read.
     1773    15456             DATA:
     1774    15457                  The altreturn is taken if the M$READ altrets.  If this occurs, the
     1775    15458                  global value ERR_CODE is set with the error code from the JIT.
     1776    15459             DESCRIPTION:
     1777    15460                  Read the record whose key is KEY into the area pointed to by BUF$,
     1778    15461                  and return the size of the record read in ARS.  If this routine
     1779    15462                  altrets, the contents of ARS are undefined.
     1780    15463        */
     1781    15464    1   READ_CONFIG: PROC( KEY, BUF$, SIZE ) ALTRET ;

  15464  5 000111   200016 741300       READ_CONFIG  STX1  ! KEY+5,,AUTO

     1782    15465    2   DCL 1 KEY ,
     1783    15466    2          2 CNT UBIN BYTE UNAL ,
     1784    15467    2          2 TXT CHAR(31) UNAL ;
     1785    15468    2   DCL BUF$ PTR ;
     1786    15469    2   DCL SIZE UBIN WORD ;
     1787    15470
     1788    15471        %FPT_READ(  FPTN = READ_FPT ,
     1789    15472                    DCB = M$CNFG ,
     1790    15473                    KEYS = YES ) ;
     1791    15512
     1792    15513        %INCLUDE F$DCB ;
     1793    15562        /*
     1794    15563                        Set BUF$ in read fpt
     1795    15564        */
     1796    15565    2   READ_FPT.BUF_.BUF$ = BUF$ ;
PL6.E3A0      #015=GET_CONFIGS_LP01_ATTRS File=ASB$EXT.:E05TSI                   TUE 07/29/97 09:11 Page:434

  15565  5 000112   200020 470500                    LDP0    @BUF$,,AUTO
         5 000113   000000 236100                    LDQ     0,,PR0
         5 000114   000135 756000 3                  STQ     READ_FPT+5

     1797    15566    2   READ_FPT.BUF_.BOUND = SIZE - 1;

  15566  5 000115   200021 471500                    LDP1    @SIZE,,AUTO
         5 000116   100000 236100                    LDQ     0,,PR1
         5 000117   000001 136007                    SBLQ    1,DL
         5 000120   000020 736000                    QLS     16
         5 000121   000134 676000 3                  ERQ     READ_FPT+4
         5 000122   000034 376000 xsym               ANQ     B_VECTNIL+28
         5 000123   000134 656000 3                  ERSQ    READ_FPT+4

     1798    15567    2   READ_FPT.KEY_ = VECTOR( KEY ) ;

  15567  5 000124   000002 235000 6                  LDA     2
         5 000125   200017 236100                    LDQ     @KEY,,AUTO
         5 000126   000132 757000 3                  STAQ    READ_FPT+2

     1799    15568    2   CALL M$READ( READ_FPT ) ALTRET( READ_ERR ) ;

  15568  5 000127   000130 630400 3                  EPPR0   READ_FPT
         5 000130   440000 713400                    CLIMB   alt,read
         5 000131   401400 401760                    pmme    nvectors=4
         5 000132   000145 702000 5                  TSX2    READ_ERR

     1800    15569    2   M$CNFG$ = DCBADDR( DCBNUM( M$CNFG ) ) ;

  15569  5 000133   000000 236007 xsym               LDQ     M$CNFG,DL
         5 000134   000003 470400 6                  LDP0    3
         5 000135   000000 471500                    LDP1    0,,PR0
         5 000136   100000 236106                    LDQ     0,QL,PR1
         5 000137   200004 756100                    STQ     M$CNFG$,,AUTO

     1801    15570    2   ARS = M$CNFG$ -> F$DCB.ARS ;
PL6.E3A0      #015=GET_CONFIGS_LP01_ATTRS File=ASB$EXT.:E05TSI                   TUE 07/29/97 09:11 Page:435

  15570  5 000140   200004 473500                    LDP3    M$CNFG$,,AUTO
         5 000141   300000 235100                    LDA     0,,PR3
         5 000142   200010 755100                    STA     ARS,,AUTO

     1802    15571    2   RETURN ;

  15571  5 000143   200016 221300                    LDX1  ! KEY+5,,AUTO
         5 000144   000001 702211                    TSX2  ! 1,X1

  15570  5 000145                       READ_ERR     null
     1803    15572
     1804    15573    2   READ_ERR: ;
     1805    15574    2   ERR_CODE = B$TCB$ -> B$TCB.ALT$ -> B$ALT.ERR ;

  15574  5 000145   000000 470400 xsym               LDP0    B$TCB$
         5 000146   000000 471500                    LDP1    0,,PR0
         5 000147   100102 236100                    LDQ     66,,PR1
         5 000150   000000 756000 xsym               STQ     ERR_CODE

     1806    15575    2   ALTRETURN ;

  15575  5 000151   200016 221300                    LDX1  ! KEY+5,,AUTO
         5 000152   000000 702211                    TSX2  ! 0,X1
     1807    15576
     1808    15577    2   END READ_CONFIG ;
     1809    15578    1   END GET_CONFIGS_LP01_ATTRS;

PL6.E3A0      #015=GET_CONFIGS_LP01_ATTRS File=ASB$EXT.:E05TSI                   TUE 07/29/97 09:11 Page:436
--  Include file information  --

   F$DCB.:E05TOU  cannot be made into a system file and is referenced.
   XG_SUBS_C.:E05TOU  is referenced.
   AS_SUPER_R.:E05TOU  cannot be made into a system file and is referenced.
   XU_FORMAT_C.:E05TOU  is referenced.
   XU_MACRO_C.:E05TOU  is referenced.
   B_ERRORS_C.:E05TOU  is referenced.
   AS_MAC_C.:E05TOU  cannot be made into a system file and is referenced.
   AS_SUBS_C.:E05TOU  is referenced.
   KL_SUPER_C.:E05TOU  is referenced.
   AS_SUPER_C.:E05TOU  is referenced.
   CP_6_SUBS.:E05TOU  is referenced.
   CP_6.:E05TOU  cannot be made into a system file and is referenced.
   AS_ENTRIES_M.:E05TOU  is referenced.
   TD$STRUCT.:E05TOU  is referenced.
   AS_PERR_C.:E05TOU  is referenced.
   B$JIT_C.:E05TOU  was found in the system file and is never referenced.
   CP_6_C.:E05TOU  was found in the system file and is referenced.
      No diagnostics issued in procedure GET_CONFIGS_LP01_ATTRS.
PL6.E3A0      #015=GET_CONFIGS_LP01_ATTRS File=ASB$EXT.:E05TSI                   TUE 07/29/97 09:11 Page:437

 **** Variables and constants ****

  ****  Section 002 RoData GET_CONFIGS_LP01_ATTRS

  ****  Scalars and arrays  ****
OctLoc.c.b A Datatyp(siz) R M Lvl/name                 OctLoc.c.b A Datatyp(siz) R M Lvl/name

     0-0-0/c STRC(288)   r     1 FILE_NAME

  ****  Section 003  Data  GET_CONFIGS_LP01_ATTRS

  ****  Scalars and arrays  ****
OctLoc.c.b A Datatyp(siz) R M Lvl/name                 OctLoc.c.b A Datatyp(siz) R M Lvl/name

    72-0-0/d STRC(1080)  r     1 CLOSE_FPT                  0-0-0/d STRC(2088)  r     1 OPEN_FPT
   130-0-0/d STRC(504)   r     1 READ_FPT

  ****  Auto variables  ****

  ****  Scalars and arrays  ****
OctLoc.c.b A Datatyp(siz) R M Lvl/name                 OctLoc.c.b A Datatyp(siz) R M Lvl/name

     3-0-0/w PTR         r     1 @ATTRIBUTES               20-0-0/w PTR         r     1 @BUF$
    17-0-0/w PTR         r     1 @KEY                      21-0-0/w PTR         r     1 @SIZE
    10-0-0/w UBIN        r     1 ARS                       *0-0-0/w BIT (18)    r     1 ATTRIBUTES
    *0-0-0/w PTR         r     1 BUF$                       7-0-0/w PTR         r     1 HEAD$
    11-0-0/w STRC(117)   r     1 KEY                       *0-0-0/c STRC(288)   r     1 KEY
     4-0-0/w PTR         r     1 M$CNFG$                   *0-0-0/w UBIN        r     1 SIZE

  ****  SYMREF variables  ****

  ****  Scalars and arrays  ****
OctLoc.c.b A Datatyp(siz) R M Lvl/name                 OctLoc.c.b A Datatyp(siz) R M Lvl/name

     0-0-0/w PTR         r     1 B$TCB$                     0-0-0/w PTR         r     1 DSEG1$
     0-0-0/w UBIN        r     1 DSEG1SIZE                  0-0-0/b BIT         r     1 DSEG_FLG
     0-0-0/b STRC        r     1 ERR_CODE                   0-0-0/c STRC(72)    r     1 FILE_ACCT
PL6.E3A0      #015=GET_CONFIGS_LP01_ATTRS File=ASB$EXT.:E05TSI                   TUE 07/29/97 09:11 Page:438

  ****  BASED and DCB variables  ****

  ****  Scalars and arrays  ****
OctLoc.c.b A Datatyp(siz) R M Lvl/name                 OctLoc.c.b A Datatyp(siz) R M Lvl/name

     0-0-0/w STRC(2448)  r     1 B$ALT                      0-0-0/w STRC(144)   r     1 B$TCB
     0-0-0/d ASTR(3528)  r     1 F$DCB                      0-0-0N  NULL        r     1 M$CNFG
     0-0-0/w STRC(396)   r     1 TD$DEV                     0-0-0/w STRC(648)   r     1 TD$HEAD


   Procedure GET_CONFIGS_LP01_ATTRS requires 107 words for executable code.
   Procedure GET_CONFIGS_LP01_ATTRS requires 18 words of local(AUTO) storage.

    No errors detected in file ASB$EXT.:E05TSI    .
PL6.E3A0      #015=GET_CONFIGS_LP01_ATTRS File=ASB$EXT.:E05TSI                   TUE 07/29/97 09:11 Page:439
          *** CROSS REFERENCE LISTING ***
**     DENOTES     IDENTIFIER DEFINITION
<<                 IDENTIFIER'S VALUE SET
>>                 IDENTIFIER'S VALUE USED
<>                 IDENTIFIER SET AND/OR USED
--                 IDENTIFIER REFERENCED
PL6.E3A0      #015=GET_CONFIGS_LP01_ATTRS File=ASB$EXT.:E05TSI                   TUE 07/29/97 09:11 Page:440
          MINI XREF LISTING

ARS
     15315**DCL     15423<<ASSIGN  15426<>CALL    15433<>CALL    15570<<ASSIGN
ASA_BRKS_LOC
     11794**DCL     11794--REDEF
ASB$GETSEG
     15324**DCL-ENT 15400--CALL
ASH$ERROR
     15321**DCL-ENT 15414--CALL    15442--CALL
AS_DEFAULT.BANNER_PERM
     12487**DCL     12488--REDEF
AS_DEFAULT.BUDGET.MACCT
     12392**DCL     12396--REDEF
AS_DEFAULT.BUDGET.MAX_PROJECTS
     12405**DCL     12408--REDEF
AS_DEFAULT.BUDGET.PACCUM
     12388**DCL     12390--REDEF
AS_DEFAULT.BUDGET.PMAXC
     12383**DCL     12385--REDEF
AS_DEFAULT.SETUP_CHRA.TXT
     12503**DCL     12504--REDEF   12505--REDEF
AS_DEFAULT_DREC.PASSWORD
     13757**DCL     13761--REDEF
AS_DEFAULT_DREC.RENAME
     13780**DCL     13781--REDEF
AS_DFLT.BANNER_PERM
     12309**DCL     12310--REDEF
AS_DFLT.BUDGET.MACCT
     12214**DCL     12218--REDEF
AS_DFLT.BUDGET.MAX_PROJECTS
     12227**DCL     12230--REDEF
AS_DFLT.BUDGET.PACCUM
     12210**DCL     12212--REDEF
PL6.E3A0      #015=GET_CONFIGS_LP01_ATTRS File=ASB$EXT.:E05TSI                   TUE 07/29/97 09:11 Page:441
AS_DFLT.BUDGET.PMAXC
     12205**DCL     12207--REDEF
AS_DFLT.SETUP_CHRA.TXT
     12325**DCL     12326--REDEF   12327--REDEF
AS_FE_MODE
     11660**DCL     11661--REDEF
AS_MODE
     11657**DCL     11659--REDEF
AS_MOD_USER.ACCESS
     14522**DCL     14523--REDEF
AS_MOD_USER.BANNER
     14509**DCL     14510--REDEF
AS_MOD_USER.BANNER_PERM
     14511**DCL     14512--REDEF
AS_MOD_USER.BILL
     14517**DCL     14518--REDEF
AS_MOD_USER.CPROC
     14513**DCL     14514--REDEF
AS_MOD_USER.FEBILL
     14593**DCL     14594--REDEF
AS_MOD_USER.FECXTMEM
     14610**DCL     14611--REDEF
AS_MOD_USER.FEMINTS
     14595**DCL     14596--REDEF
AS_MOD_USER.FEMMEM
     14606**DCL     14607--REDEF
AS_MOD_USER.FEMTIME
     14604**DCL     14605--REDEF
AS_MOD_USER.FEPPRIV
     14601**DCL     14603--REDEF
AS_MOD_USER.FEPRIV
     14598**DCL     14600--REDEF
AS_MOD_USER.FORCE_BIT
     14507**DCL     14508--REDEF
AS_MOD_USER.KEY
     14589**DCL     14591--REDEF
PL6.E3A0      #015=GET_CONFIGS_LP01_ATTRS File=ASB$EXT.:E05TSI                   TUE 07/29/97 09:11 Page:442
AS_MOD_USER.LASTCPROC
     14515**DCL     14516--REDEF
AS_MOD_USER.LIMITS.DO_
     14563**DCL     14564--REDEF
AS_MOD_USER.LIMITS.FPOOLS
     14579**DCL     14580--REDEF
AS_MOD_USER.LIMITS.LO
     14559**DCL     14560--REDEF
AS_MOD_USER.LIMITS.MEM
     14555**DCL     14556--REDEF
AS_MOD_USER.LIMITS.MPRIO
     14583**DCL     14584--REDEF
AS_MOD_USER.LIMITS.PDIS
     14571**DCL     14572--REDEF
AS_MOD_USER.LIMITS.PO
     14567**DCL     14568--REDEF
AS_MOD_USER.LIMITS.TDIS
     14575**DCL     14576--REDEF
AS_MOD_USER.LIMITS.TIME
     14551**DCL     14552--REDEF
AS_MOD_USER.MAXENQ
     14532**DCL     14533--REDEF
AS_MOD_USER.PERM_BIT
     14505**DCL     14506--REDEF
AS_MOD_USER.PPRIV
     14527**DCL     14529--REDEF
AS_MOD_USER.PRIOB
     14534**DCL     14535--REDEF
AS_MOD_USER.PRIV
     14524**DCL     14526--REDEF
AS_MOD_USER.QUAN
     14530**DCL     14531--REDEF
AS_MOD_USER.SETUP
     14503**DCL     14504--REDEF
AS_PROJECT.BANNER_PERM
     12843**DCL     12844--REDEF
PL6.E3A0      #015=GET_CONFIGS_LP01_ATTRS File=ASB$EXT.:E05TSI                   TUE 07/29/97 09:11 Page:443
AS_PROJECT.BUDGET.MACCT
     12748**DCL     12752--REDEF
AS_PROJECT.BUDGET.MAX_PROJECTS
     12761**DCL     12764--REDEF
AS_PROJECT.BUDGET.PACCUM
     12744**DCL     12746--REDEF
AS_PROJECT.BUDGET.PMAXC
     12739**DCL     12741--REDEF
AS_PROJECT.SETUP_CHRA.TXT
     12859**DCL     12860--REDEF   12861--REDEF
AS_PROJECT_DFLT.BANNER_PERM
     13021**DCL     13022--REDEF
AS_PROJECT_DFLT.BUDGET.MACCT
     12926**DCL     12930--REDEF
AS_PROJECT_DFLT.BUDGET.MAX_PROJECTS
     12939**DCL     12942--REDEF
AS_PROJECT_DFLT.BUDGET.PACCUM
     12922**DCL     12924--REDEF
AS_PROJECT_DFLT.BUDGET.PMAXC
     12917**DCL     12919--REDEF
AS_PROJECT_DFLT.SETUP_CHRA.TXT
     13037**DCL     13038--REDEF   13039--REDEF
AS_PROJECT_DFLT_DREC.PASSWORD
     14243**DCL     14247--REDEF
AS_PROJECT_DFLT_DREC.RENAME
     14266**DCL     14267--REDEF
AS_PROJECT_DREC.PASSWORD
     14081**DCL     14085--REDEF
AS_PROJECT_DREC.RENAME
     14104**DCL     14105--REDEF
AS_PROJ_ADMIN.BANNER_PERM
     12665**DCL     12666--REDEF
AS_PROJ_ADMIN.BUDGET.MACCT
     12570**DCL     12574--REDEF
AS_PROJ_ADMIN.BUDGET.MAX_PROJECTS
     12583**DCL     12586--REDEF
PL6.E3A0      #015=GET_CONFIGS_LP01_ATTRS File=ASB$EXT.:E05TSI                   TUE 07/29/97 09:11 Page:444
AS_PROJ_ADMIN.BUDGET.PACCUM
     12566**DCL     12568--REDEF
AS_PROJ_ADMIN.BUDGET.PMAXC
     12561**DCL     12563--REDEF
AS_PROJ_ADMIN.SETUP_CHRA.TXT
     12681**DCL     12682--REDEF   12683--REDEF
AS_PROJ_ADMIN_DREC.PASSWORD
     13919**DCL     13923--REDEF
AS_PROJ_ADMIN_DREC.RENAME
     13942**DCL     13943--REDEF
AS_USERS.BANNER_PERM
     12131**DCL     12132--REDEF
AS_USERS.BUDGET.MACCT
     12036**DCL     12040--REDEF
AS_USERS.BUDGET.MAX_PROJECTS
     12049**DCL     12052--REDEF
AS_USERS.BUDGET.PACCUM
     12032**DCL     12034--REDEF
AS_USERS.BUDGET.PMAXC
     12027**DCL     12029--REDEF
AS_USERS.SETUP_CHRA.TXT
     12147**DCL     12148--REDEF   12149--REDEF
AS_USERS_CONSTANT.BANNER_PERM
     13199**DCL     13200--REDEF
AS_USERS_CONSTANT.BUDGET.MACCT
     13104**DCL     13108--REDEF
AS_USERS_CONSTANT.BUDGET.MAX_PROJECTS
     13117**DCL     13120--REDEF
AS_USERS_CONSTANT.BUDGET.PACCUM
     13100**DCL     13102--REDEF
AS_USERS_CONSTANT.BUDGET.PMAXC
     13095**DCL     13097--REDEF
AS_USERS_CONSTANT.SETUP_CHRA.TXT
     13215**DCL     13216--REDEF   13217--REDEF
ATTRIBUTES
        29**DCL        28--PROC    15434<<ASSIGN
PL6.E3A0      #015=GET_CONFIGS_LP01_ATTRS File=ASB$EXT.:E05TSI                   TUE 07/29/97 09:11 Page:445
B$ALT.CODE
     15329**DCL     15329--REDEF   15330--REDEF   15330--REDEF
B$ALT.ERR
     15330**DCL     15441>>ASSIGN  15574>>ASSIGN
B$ALT.ERR.ERR#
     15331**DCL     15331--REDEF
B$ALT.EVID
     15330**DCL     15330--REDEF   15330--REDEF
B$TCB.ALT$
     15336**DCL     15441>>ASSIGN  15574>>ASSIGN
B$TCB$
     15145**DCL     15441>>ASSIGN  15574>>ASSIGN
BUF$ IN PROCEDURE READ_CONFIG
     15468**DCL     15464--PROC    15565>>ASSIGN
CLOSE_FPT
     15289**DCL     15436<>CALL
CLOSE_FPT.SN_
     15289**DCL     15289--REDEF
CLOSE_FPT.UTL_
     15290**DCL     15290--REDEF
CLOSE_FPT.V
     15294**DCL     15289--DCLINIT
CLOSE_FPT.V.EXPIRE#
     15304**DCL     15304--REDEF
CLOSE_FPT.V.TYPE#
     15302**DCL     15302--REDEF
CLOSE_FPT.V.XTNSIZE#
     15299**DCL     15299--REDEF   15301--REDEF
DSEG1$
     11795**DCL     15422>>ASSIGN
DSEG1SIZE
     11796**DCL     15423>>ASSIGN
DSEG_FLG
     11795**DCL     15399>>IF
ERR_CODE
     11789**DCL     11790--REDEF   15441<<ASSIGN  15442<>CALL    15574<<ASSIGN
PL6.E3A0      #015=GET_CONFIGS_LP01_ATTRS File=ASB$EXT.:E05TSI                   TUE 07/29/97 09:11 Page:446
F$DCB.ACTPOS IN PROCEDURE READ_CONFIG
     15539**DCL     15539--REDEF
F$DCB.ARS IN PROCEDURE READ_CONFIG
     15514**DCL     15514--REDEF   15570>>ASSIGN
F$DCB.ATTR IN PROCEDURE READ_CONFIG
     15532**DCL     15533--REDEF
F$DCB.BORROW IN PROCEDURE READ_CONFIG
     15547**DCL     15547--REDEF   15547--REDEF   15547--REDEF
F$DCB.DCBNAME.L IN PROCEDURE READ_CONFIG
     15561**DCL     15561--IMP-SIZ
F$DCB.EOMCHAR IN PROCEDURE READ_CONFIG
     15518**DCL     15518--REDEF
F$DCB.FLDID IN PROCEDURE READ_CONFIG
     15542**DCL     15542--REDEF
F$DCB.FORM$ IN PROCEDURE READ_CONFIG
     15536**DCL     15536--REDEF
F$DCB.FSECT IN PROCEDURE READ_CONFIG
     15552**DCL     15552--REDEF
F$DCB.FSN IN PROCEDURE READ_CONFIG
     15529**DCL     15529--REDEF   15529--REDEF   15530--REDEF
F$DCB.HEADER$ IN PROCEDURE READ_CONFIG
     15535**DCL     15535--REDEF
F$DCB.IXTNSIZE IN PROCEDURE READ_CONFIG
     15533**DCL     15533--REDEF
F$DCB.LASTSTA$ IN PROCEDURE READ_CONFIG
     15523**DCL     15523--REDEF
F$DCB.LVL IN PROCEDURE READ_CONFIG
     15548**DCL     15548--REDEF
F$DCB.NAME.C IN PROCEDURE READ_CONFIG
     15523**DCL     15523--REDEF
F$DCB.NOEOF IN PROCEDURE READ_CONFIG
     15544**DCL     15544--REDEF
F$DCB.NRECS IN PROCEDURE READ_CONFIG
     15534**DCL     15534--REDEF
F$DCB.NRECX IN PROCEDURE READ_CONFIG
     15553**DCL     15553--REDEF
PL6.E3A0      #015=GET_CONFIGS_LP01_ATTRS File=ASB$EXT.:E05TSI                   TUE 07/29/97 09:11 Page:447
F$DCB.OHDR IN PROCEDURE READ_CONFIG
     15545**DCL     15545--REDEF
F$DCB.ORG IN PROCEDURE READ_CONFIG
     15528**DCL     15528--REDEF
F$DCB.PRECNO IN PROCEDURE READ_CONFIG
     15551**DCL     15551--REDEF
F$DCB.RCSZ IN PROCEDURE READ_CONFIG
     15556**DCL     15556--REDEF
F$DCB.RES IN PROCEDURE READ_CONFIG
     15524**DCL     15524--REDEF
F$DCB.SETX IN PROCEDURE READ_CONFIG
     15536**DCL     15536--REDEF
F$DCB.TAB$ IN PROCEDURE READ_CONFIG
     15535**DCL     15536--REDEF
F$DCB.TDA IN PROCEDURE READ_CONFIG
     15550**DCL     15550--REDEF
F$DCB.WSN IN PROCEDURE READ_CONFIG
     15525**DCL     15525--REDEF
FILE_ACCT
     11797**DCL     15225--DCLINIT
FILE_NAME
     15141**DCL     15221--DCLINIT
HEAD$
     15314**DCL     15340--IMP-PTR 15377--IMP-PTR 15422<<ASSIGN  15426<>CALL    15427>>IF      15432>>ASSIGN
     15432>>ASSIGN  15433<>CALL    15434>>ASSIGN
KEY
     15316**DCL     15424<<ASSIGN  15426<>CALL    15433<>CALL
KEY.CNT
     15317**DCL     15425<<ASSIGN  15431<<ASSIGN
KEY.TXT
     15318**DCL     15432<<ASSIGN
KEY IN PROCEDURE READ_CONFIG
     15465**DCL     15464--PROC    15567--ASSIGN
KL_DEFAULT.PASSWORD
     14405**DCL     14409--REDEF
KL_DEFAULT.RENAME
PL6.E3A0      #015=GET_CONFIGS_LP01_ATTRS File=ASB$EXT.:E05TSI                   TUE 07/29/97 09:11 Page:448
     14428**DCL     14429--REDEF
KL_DFLT.PASSWORD
     13595**DCL     13599--REDEF
KL_DFLT.RENAME
     13618**DCL     13619--REDEF
KL_DREC.PASSWORD
     13433**DCL     13437--REDEF
KL_DREC.RENAME
     13456**DCL     13457--REDEF
KL_DREC_CNT.PASSWORD
     13320**DCL     13324--REDEF
KL_DREC_CNT.RENAME
     13343**DCL     13344--REDEF
M$CLOSE
      1792**DCL-ENT 15436--CALL
M$CNFG
     15309**DCL     15569--ASSIGN
M$CNFG$
     15310**DCL     15569<<ASSIGN  15570>>ASSIGN
M$OPEN
      1792**DCL-ENT 15420--CALL
M$READ
      1793**DCL-ENT 15568--CALL
OPEN_FPT
     15220**DCL     15420<>CALL
OPEN_FPT.ACSVEH_
     15222**DCL     15223--REDEF
OPEN_FPT.ALTKEYS_
     15228**DCL     15229--REDEF   15229--REDEF
OPEN_FPT.HDR_
     15227**DCL     15228--REDEF
OPEN_FPT.TAB_
     15226**DCL     15227--REDEF
OPEN_FPT.UHL_
     15220**DCL     15221--REDEF   15221--REDEF
OPEN_FPT.V
PL6.E3A0      #015=GET_CONFIGS_LP01_ATTRS File=ASB$EXT.:E05TSI                   TUE 07/29/97 09:11 Page:449
     15229**DCL     15220--DCLINIT
OPEN_FPT.V.FSN#
     15260**DCL     15260--REDEF   15260--REDEF
OPEN_FPT.WSN_
     15226**DCL     15226--REDEF
PROJ_KEY.TEXT
     11667**DCL     11667--REDEF
PROJ_KEY.TXT.PROJECT
     11667**DCL     11667--REDEF
READ_CONFIG
     15464**PROC    15426--CALL    15433--CALL
READ_ERR IN PROCEDURE READ_CONFIG
     15570**LABEL   15568--CALLALT
READ_FPT IN PROCEDURE READ_CONFIG
     15490**DCL     15568<>CALL
READ_FPT.BUF_.BOUND IN PROCEDURE READ_CONFIG
     15492**DCL     15566<<ASSIGN
READ_FPT.BUF_.BUF$ IN PROCEDURE READ_CONFIG
     15493**DCL     15565<<ASSIGN
READ_FPT.KEY_ IN PROCEDURE READ_CONFIG
     15490**DCL     15567<<ASSIGN
READ_FPT.STATION_ IN PROCEDURE READ_CONFIG
     15493**DCL     15494--REDEF
READ_FPT.V IN PROCEDURE READ_CONFIG
     15494**DCL     15490--DCLINIT
READ_FPT.V.DVBYTE.REREAD# IN PROCEDURE READ_CONFIG
     15505**DCL     15505--REDEF
READ_FPT.V.INDX# IN PROCEDURE READ_CONFIG
     15503**DCL     15503--REDEF
REMEM_VAR
     11793**DCL     11793--REDEF
REM_FCMD
     11793**DCL     11794--REDEF
SIZE IN PROCEDURE READ_CONFIG
     15469**DCL     15464--PROC    15566>>ASSIGN
TD$DEV.ATTR
PL6.E3A0      #015=GET_CONFIGS_LP01_ATTRS File=ASB$EXT.:E05TSI                   TUE 07/29/97 09:11 Page:450
     15391**DCL     15434>>ASSIGN
TD$HEAD.DEVNAME
     15373**DCL     15432>>ASSIGN
TD$HEAD.LP_INDX
     15357**DCL     15432>>ASSIGN
TD$HEAD.NUMLPS
     15358**DCL     15427>>IF
UNKNOWN_ERR
     15434**LABEL   15420--CALLALT 15426--CALLALT 15433--CALLALT
USERS_KEY.TEXT
     11664**DCL     11665--REDEF   11665--REDEF   11665--REDEF   11666--REDEF
