PL6.E3A0      #005=ASF$READ_FORM File=ASB$FILES.:E05TSI                          TUE 07/29/97 09:18 Page:214
     1044        1        /*T***********************************************************/
     1045        2        /*T*                                                         */
     1046        3        /*T* Copyright (c) Bull HN Information Systems Inc., 1997    */
     1047        4        /*T*                                                         */
     1048        5        /*T***********************************************************/
     1049        6        %EJECT;
PL6.E3A0      #005=ASF$READ_FORM File=ASB$FILES.:E05TSI                          TUE 07/29/97 09:18 Page:215
     1050        7        ASF$READ_FORM: PROC (KEY, BUF$, ARS) ALTRET;
     1051        8    1   DCL 1 KEY ALIGNED,
     1052        9    1          2 CNT UBIN BYTE UNAL,
     1053       10    1          2 TEXT CHAR(KEY.CNT) UNAL;
     1054       11    1   DCL BUF$ PTR;
     1055       12    1   DCL ARS UBIN WORD;
     1056       13        %INCLUDE CP_6;
     1057       94        %INCLUDE F$DCB;
     1058      143        %INCLUDE AS_SUPER_C;
     1059      578        %INCLUDE KL_SUPER_C;
     1060     3480        %INCLUDE AS_SUBS_C;
     1061     4894        %INCLUDE AS_MAC_C;
     1062     4974        %INCLUDE XU_MACRO_C;
     1063     8080        %INCLUDE XU_FORMAT_C;
     1064     8242        %INCLUDE AS_SUPER_R;
     1065    11258    1   DCL B$TCB$ PTR SYMREF;
     1066    11259        %B$TCB;
     1067    11262        %B$ALT;
     1068    11270    1   DCL M$FORM DCB;
     1069    11271        %VLP_NAME (FPTN=FORM_FILE,STCLASS=CONSTANT,NAME=':FORM');
     1070    11298        %FPT_READ (FPTN=READ_FPT,
     1071    11299                   DCB=M$FORM,
     1072    11300                   KEYS=YES);
     1073    11339        %FPT_READ(FPTN = READ_FPT_SEQ,STCLASS = STATIC,
     1074    11340                DCB = M$FORM,
     1075    11341                KEY = USERS_KEY,
     1076    11342                KEYR = YES,
     1077    11343                KEYS = NO);
     1078    11382        %FPT_PRECORD(FPTN = PREC_FPT,STCLASS = STATIC,
     1079    11383                DCB = M$FORM,
     1080    11384                KEYS = YES,
     1081    11385                KEYR = YES,
     1082    11386                N = 0);
     1083    11407        %FPT_PRECORD(FPTN = PREC_SKIP_FPT,STCLASS = STATIC,
     1084    11408                DCB = M$FORM,
     1085    11409                KEYS = YES,
     1086    11410                KEYR = YES,
PL6.E3A0      #005=ASF$READ_FORM File=ASB$FILES.:E05TSI                          TUE 07/29/97 09:18 Page:216
     1087    11411                N = 1);
     1088    11432        %FPT_WRITE (FPTN=WRITE_FPT,
     1089    11433                   DCB=M$FORM,
     1090    11434                   ONEWKEY=YES);
     1091    11465        %FPT_OPEN (FPTN=OPEN_CR_FPT,
     1092    11466                   NAME=FORM_FILE,
     1093    11467                   ACCT=FILE_ACCT,
     1094    11468                   ASN=FILE,
     1095    11469                   DCB=M$FORM,
     1096    11470                   ACS=DIRECT,
     1097    11471                   ORG=KEYED,
     1098    11472                   ACSVEH = VLP_ATTR ,
     1099    11473                   ACCESS=VLP_ATTR_ACC,
     1100    11474                   EXIST=OLDFILE,
     1101    11475                   SHARE=ALL,
     1102    11476                   CTG=YES,
     1103    11477                   IXTNSIZE = 8 ,
     1104    11478                   XTNSIZE = 8 ,
     1105    11479                   FUN=CREATE);
     1106    11588        %FPT_OPEN (FPTN=OPEN_UP_FPT,
     1107    11589                   NAME=FORM_FILE,
     1108    11590                   ACCT=FILE_ACCT,
     1109    11591                   ASN=FILE,
     1110    11592                   DCB=M$FORM,
     1111    11593                   ACS=DIRECT,
     1112    11594                   ORG=KEYED,
     1113    11595                   FUN=UPDATE,
     1114    11596                   SHARE=ALL);
     1115    11705        %FPT_ENQ  (FPTN=ENQ_FORM,
     1116    11706                   DCB=M$FORM,
     1117    11707                   SHARE=NONE);
     1118    11725        %FPT_DEQ  (FPTN=DEQ_FORM,
     1119    11726                   DCB=M$FORM,
     1120    11727                   RELRES=YES);
     1121    11744        %FPT_CLOSE(FPTN=CLOSE_FORM,
     1122    11745                   DCB=M$FORM,
     1123    11746                   DISP=SAVE);
PL6.E3A0      #005=ASF$READ_FORM File=ASB$FILES.:E05TSI                          TUE 07/29/97 09:18 Page:217
     1124    11788        %FPT_DELREC (FPTN=DELREC_FPT,
     1125    11789                     KEY=USERS_KEY,
     1126    11790                     DCB=M$FORM);
     1127    11809        %VLP_ATTR (FPTN=VLP_ATTR_ACC);
     1128    11823        %VLP_ACCESS (READ=YES, EXEC=YES, ACCT='?', LAST=";");
     1129    11840        %VLP_ATTR ;
     1130    11854        %VLP_ACSVEH ( DELR = YES ,
     1131    11855                      READ = YES ,
     1132    11856                      UPD  = YES ,
     1133    11857                      WNEW = YES ,
     1134    11858                      VEHICLE = 'SUPER' ,
     1135    11859                      LAST = ";" ) ;
     1136    11876        %EJECT;
PL6.E3A0      #005=ASF$READ_FORM File=ASB$FILES.:E05TSI                          TUE 07/29/97 09:18 Page:218
     1137    11877    1   READ_FPT.BUF_.BUF$ = BUF$;
     1138    11878    1   READ_FPT.BUF_.BOUND = ARS - 1;
     1139    11879    1   READ_FPT.KEY_ = VECTOR(KEY);
     1140    11880    1   CALL M$READ (READ_FPT) ALTRET (IO_ERROR);
     1141    11881    1   ARS = DCBADDR(DCBNUM(M$FORM))->F$DCB.ARS;
     1142    11882    1   RETURN;
     1143    11883
     1144    11884    1   ASF$WRITE_FORM: ENTRY (KEY, BUF$, ARS) ALTRET;
     1145    11885    1   WRITE_FPT.BUF_.BUF$ = BUF$;
     1146    11886    1   WRITE_FPT.BUF_.BOUND = ARS - 1;
     1147    11887    1   WRITE_FPT.KEY_ = VECTOR (KEY);
     1148    11888    1   ENQ_FORM.RNAME_ = VECTOR(KEY);
     1149    11889    1   DEQ_FORM.RNAME_ = VECTOR(KEY);
     1150    11890    1   CALL M$ENQ( ENQ_FORM ) ALTRET(ENQ_ERR);
     1151    11891    1   ENQ_ERR:
     1152    11892    1   CALL M$WRITE(WRITE_FPT) ALTRET(WRITE_ERR);
     1153    11893    1   CALL M$DEQ(DEQ_FORM) ALTRET(DEQ_ERR);
     1154    11894    1   DEQ_ERR:
     1155    11895    1   RETURN;
     1156    11896    1   WRITE_ERR:
     1157    11897    1   ERR_CODE = B$TCB$ -> B$TCB.ALT$ -> B$ALT.ERR;
     1158    11898    1   AS_DCBNUM# = DCBNUM( M$FORM );
     1159    11899    1   CALL M$DEQ(DEQ_FORM) ALTRET(DEQ_ERR2);
     1160    11900    1   DEQ_ERR2:
     1161    11901    1   ALTRETURN;
     1162    11902
     1163    11903
     1164    11904    1   ASF$OPEN_FORM_CR: ENTRY ALTRET;
     1165    11905    1   CALL M$OPEN(OPEN_CR_FPT) ALTRET (IO_ERROR);
     1166    11906    1   RETURN;
     1167    11907
     1168    11908    1   ASF$OPEN_FORM_UP: ENTRY ALTRET;
     1169    11909    1   CALL M$OPEN(OPEN_UP_FPT) ALTRET (IO_ERROR);
     1170    11910    1   RETURN;
     1171    11911
     1172    11912
     1173    11913    1   ASF$CLOSE_FORM: ENTRY ALTRET;
PL6.E3A0      #005=ASF$READ_FORM File=ASB$FILES.:E05TSI                          TUE 07/29/97 09:18 Page:219
     1174    11914    1   IF FAST_FLAG = AS_TRUE
     1175    11915    1   THEN RETURN;
     1176    11916    1   CALL M$CLOSE(CLOSE_FORM) ALTRET( IO_ERROR);
     1177    11917    1   RETURN;
     1178    11918
     1179    11919    1   ASF$READ_FORM_SEQ: ENTRY(KEY,BUF$,ARS) ALTRET;
     1180    11920    1   READ_FPT_SEQ.BUF_.BUF$ = BUF$;
     1181    11921    1   READ_FPT_SEQ.BUF_.BOUND = ARS-1;
     1182    11922    1   CALL M$READ(READ_FPT_SEQ) ALTRET(IO_ERROR);
     1183    11923    1   ARS = DCBADDR(DCBNUM(M$FORM))->F$DCB.ARS;
     1184    11924    1   RETURN;
     1185    11925
     1186    11926
     1187    11927    1   ASF$PREC_FORM: ENTRY(KEY) ALTRET;
     1188    11928    1   PREC_FPT.KEY_ = VECTOR(KEY);
     1189    11929    1   CALL M$PRECORD(PREC_FPT) ALTRET(IO_ERROR);
     1190    11930    1   RETURN;
     1191    11931    1   ASF$PREC_SKIP_FORM: ENTRY(KEY) ALTRET;
     1192    11932    1   PREC_SKIP_FPT.KEY_ = VECTOR(KEY);
     1193    11933    1   CALL M$PRECORD(PREC_SKIP_FPT) ALTRET(IO_ERROR);
     1194    11934    1   RETURN;
     1195    11935
     1196    11936
     1197    11937    1   ASF$DELREC_FORM: ENTRY ALTRET;
     1198    11938    1   CALL M$DELREC(DELREC_FPT) ALTRET(IO_ERROR);
     1199    11939    1   RETURN;
     1200    11940
     1201    11941
     1202    11942    1   IO_ERROR:
     1203    11943    1   ERR_CODE = B$TCB$->B$TCB.ALT$->B$ALT.ERR;
     1204    11944    1   AS_DCBNUM# = DCBNUM( M$FORM );
     1205    11945    1   ALTRETURN;
     1206    11946
     1207    11947
     1208    11948    1   END ASF$READ_FORM;
     1209    11949        %EOD;

PL6.E3A0      #005=ASF$READ_FORM File=ASB$FILES.:E05TSI                          TUE 07/29/97 09:18 Page:220
--  Include file information  --

   AS_SUPER_R.:E05TOU  cannot be made into a system file and is referenced.
   XU_FORMAT_C.:E05TOU  is referenced.
   XU_MACRO_C.:E05TOU  is referenced.
   AS_MAC_C.:E05TOU  cannot be made into a system file and is referenced.
   AS_SUBS_C.:E05TOU  is referenced.
   KL_SUPER_C.:E05TOU  is referenced.
   AS_SUPER_C.:E05TOU  is referenced.
   F$DCB.:E05TOU  cannot be made into a system file and is referenced.
   CP_6.:E05TOU  cannot be made into a system file and is referenced.
   B$JIT_C.:E05TOU  was found in the system file and is never referenced.
   CP_6_C.:E05TOU  was found in the system file and is referenced.
      No diagnostics issued in procedure ASF$READ_FORM.

   Procedure ASF$READ_FORM requires 190 words for executable code.
   Procedure ASF$READ_FORM requires 6 words of local(AUTO) storage.

PL6.E3A0      #005=ASF$READ_FORM File=ASB$FILES.:E05TSI                          TUE 07/29/97 09:18 Page:221

 Object Unit name= ASF$READ_FORM                              File name= ASB$FILES.:E05TOU
 UTS= JUL 29 '97 09:18:41.72 TUE                              Compiler= PL-6/E31         Sev=      00
 SharedLib= :SHARED_SYSTEM                                    Alt SharedLib=


    ****  Control sections  ****

 Sect   Type Bound  Init  Size OctSiz  Section name(segment info)
    0   DCB   even  none     0      0  M$UC
    1   DCB   even  none     0      0  M$LO
    2   DCB   even  none     0      0  M$FORM
    3  RoData even  UTS      2      2  ASF$READ_FORM
    4   Data  even  none   241    361  ASF$READ_FORM
    5   Proc  even  none   190    276  ASF$READ_FORM
    6  RoData even  none     1      1  ASF$READ_FORM

    ****  Entry defs  ****

                              Check   Calling
                             calling  sequence
  Sect OctLoc Primary Altret sequence   type   Parms  Name
     5      0   yes    yes     yes      Std        3  ASF$READ_FORM
     5     41          yes     yes      Std        3  ASF$WRITE_FORM
     5    136          yes     yes      Std        0  ASF$OPEN_FORM_CR
     5    145          yes     yes      Std        0  ASF$OPEN_FORM_UP
     5    154          yes     yes      Std        0  ASF$CLOSE_FORM
     5    170          yes     yes      Std        3  ASF$READ_FORM_SEQ
     5    220          yes     yes      Std        1  ASF$PREC_FORM
     5    240          yes     yes      Std        1  ASF$PREC_SKIP_FORM
     5    260          yes     yes      Std        0  ASF$DELREC_FORM
PL6.E3A0      #005=ASF$READ_FORM File=ASB$FILES.:E05TSI                          TUE 07/29/97 09:18 Page:222

  ****  Entry refs  ****

         Check        Calling
        calling       sequence
Altret sequence SRef   type   Args  Name
         yes          ~proc      0 XU_OUTPUT_OPTIONS
                       nStd      0 X66_AUTO_3
                       Std       0 B_CONSPOOL_D
                       nStd      0 X66_ARET
                       nStd      0 X66_AALT

  ****  Data refs  ****

  Flags:  r = read only, s = secondary
Flgs Name                             Flgs Name                             Flgs Name
     M$UC                             r    AS_TRUE                          r    AS_MODE
r    AS_FE_MODE                            M$LO                                  USERS_KEY
     FAST_FLAG                             ERR_CODE                              REMEM_VAR
     REM_FCMD                              ASA_BRKS_LOC                          FILE_ACCT
     AS_DCBNUM#                            B$TCB$                                M$FORM
     B_VECTNIL

  ****  Segment refs  ****

  Flags:  r = read only, s = secondary
Flgs Name                             Flgs Name                             Flgs Name
     ISSID                                 NULLSID                               ROSID
PL6.E3A0      #005=ASF$READ_FORM File=ASB$FILES.:E05TSI                          TUE 07/29/97 09:18 Page:223


     1044        1        /*T***********************************************************/
     1045        2        /*T*                                                         */
     1046        3        /*T* Copyright (c) Bull HN Information Systems Inc., 1997    */
     1047        4        /*T*                                                         */
     1048        5        /*T***********************************************************/
     1049        6        %EJECT;
PL6.E3A0      #005=ASF$READ_FORM File=ASB$FILES.:E05TSI                          TUE 07/29/97 09:18 Page:224
     1050        7        ASF$READ_FORM: PROC (KEY, BUF$, ARS) ALTRET;

      7  5 000000   000000 700200 xent  ASF$READ_FO* TSX0  ! X66_AUTO_3
         5 000001   000006 000003                    ZERO    6,3

     1051        8    1   DCL 1 KEY ALIGNED,
     1052        9    1          2 CNT UBIN BYTE UNAL,
     1053       10    1          2 TEXT CHAR(KEY.CNT) UNAL;
     1054       11    1   DCL BUF$ PTR;
     1055       12    1   DCL ARS UBIN WORD;
     1056       13        %INCLUDE CP_6;
     1057       94        %INCLUDE F$DCB;
     1058      143        %INCLUDE AS_SUPER_C;
     1059      578        %INCLUDE KL_SUPER_C;
     1060     3480        %INCLUDE AS_SUBS_C;
     1061     4894        %INCLUDE AS_MAC_C;
     1062     4974        %INCLUDE XU_MACRO_C;
     1063     8080        %INCLUDE XU_FORMAT_C;
     1064     8242        %INCLUDE AS_SUPER_R;
     1065    11258    1   DCL B$TCB$ PTR SYMREF;
     1066    11259        %B$TCB;
     1067    11262        %B$ALT;
     1068    11270    1   DCL M$FORM DCB;
     1069    11271        %VLP_NAME (FPTN=FORM_FILE,STCLASS=CONSTANT,NAME=':FORM');
     1070    11298        %FPT_READ (FPTN=READ_FPT,
     1071    11299                   DCB=M$FORM,
     1072    11300                   KEYS=YES);
     1073    11339        %FPT_READ(FPTN = READ_FPT_SEQ,STCLASS = STATIC,
     1074    11340                DCB = M$FORM,
     1075    11341                KEY = USERS_KEY,
     1076    11342                KEYR = YES,
     1077    11343                KEYS = NO);
     1078    11382        %FPT_PRECORD(FPTN = PREC_FPT,STCLASS = STATIC,
     1079    11383                DCB = M$FORM,
     1080    11384                KEYS = YES,
     1081    11385                KEYR = YES,
     1082    11386                N = 0);
PL6.E3A0      #005=ASF$READ_FORM File=ASB$FILES.:E05TSI                          TUE 07/29/97 09:18 Page:225
     1083    11407        %FPT_PRECORD(FPTN = PREC_SKIP_FPT,STCLASS = STATIC,
     1084    11408                DCB = M$FORM,
     1085    11409                KEYS = YES,
     1086    11410                KEYR = YES,
     1087    11411                N = 1);
     1088    11432        %FPT_WRITE (FPTN=WRITE_FPT,
     1089    11433                   DCB=M$FORM,
     1090    11434                   ONEWKEY=YES);
     1091    11465        %FPT_OPEN (FPTN=OPEN_CR_FPT,
     1092    11466                   NAME=FORM_FILE,
     1093    11467                   ACCT=FILE_ACCT,
     1094    11468                   ASN=FILE,
     1095    11469                   DCB=M$FORM,
     1096    11470                   ACS=DIRECT,
     1097    11471                   ORG=KEYED,
     1098    11472                   ACSVEH = VLP_ATTR ,
     1099    11473                   ACCESS=VLP_ATTR_ACC,
     1100    11474                   EXIST=OLDFILE,
     1101    11475                   SHARE=ALL,
     1102    11476                   CTG=YES,
     1103    11477                   IXTNSIZE = 8 ,
     1104    11478                   XTNSIZE = 8 ,
     1105    11479                   FUN=CREATE);
     1106    11588        %FPT_OPEN (FPTN=OPEN_UP_FPT,
     1107    11589                   NAME=FORM_FILE,
     1108    11590                   ACCT=FILE_ACCT,
     1109    11591                   ASN=FILE,
     1110    11592                   DCB=M$FORM,
     1111    11593                   ACS=DIRECT,
     1112    11594                   ORG=KEYED,
     1113    11595                   FUN=UPDATE,
     1114    11596                   SHARE=ALL);
     1115    11705        %FPT_ENQ  (FPTN=ENQ_FORM,
     1116    11706                   DCB=M$FORM,
     1117    11707                   SHARE=NONE);
     1118    11725        %FPT_DEQ  (FPTN=DEQ_FORM,
     1119    11726                   DCB=M$FORM,
PL6.E3A0      #005=ASF$READ_FORM File=ASB$FILES.:E05TSI                          TUE 07/29/97 09:18 Page:226
     1120    11727                   RELRES=YES);
     1121    11744        %FPT_CLOSE(FPTN=CLOSE_FORM,
     1122    11745                   DCB=M$FORM,
     1123    11746                   DISP=SAVE);
     1124    11788        %FPT_DELREC (FPTN=DELREC_FPT,
     1125    11789                     KEY=USERS_KEY,
     1126    11790                     DCB=M$FORM);
     1127    11809        %VLP_ATTR (FPTN=VLP_ATTR_ACC);
     1128    11823        %VLP_ACCESS (READ=YES, EXEC=YES, ACCT='?', LAST=";");
     1129    11840        %VLP_ATTR ;
     1130    11854        %VLP_ACSVEH ( DELR = YES ,
     1131    11855                      READ = YES ,
     1132    11856                      UPD  = YES ,
     1133    11857                      WNEW = YES ,
     1134    11858                      VEHICLE = 'SUPER' ,
     1135    11859                      LAST = ";" ) ;
     1136    11876        %EJECT;
PL6.E3A0      #005=ASF$READ_FORM File=ASB$FILES.:E05TSI                          TUE 07/29/97 09:18 Page:227
     1137    11877    1   READ_FPT.BUF_.BUF$ = BUF$;

  11877  5 000002   200004 470500                    LDP0    @BUF$,,AUTO
         5 000003   000000 236100                    LDQ     0,,PR0
         5 000004   000005 756000 4                  STQ     READ_FPT+5

     1138    11878    1   READ_FPT.BUF_.BOUND = ARS - 1;

  11878  5 000005   200005 471500                    LDP1    @ARS,,AUTO
         5 000006   100000 236100                    LDQ     0,,PR1
         5 000007   000001 136007                    SBLQ    1,DL
         5 000010   000020 736000                    QLS     16
         5 000011   000004 676000 4                  ERQ     READ_FPT+4
         5 000012   000034 376000 xsym               ANQ     B_VECTNIL+28
         5 000013   000004 656000 4                  ERSQ    READ_FPT+4

     1139    11879    1   READ_FPT.KEY_ = VECTOR(KEY);

  11879  5 000014   200003 473500                    LDP3    @KEY,,AUTO
         5 000015   300000 236100                    LDQ     0,,PR3
         5 000016   000033 772000                    QRL     27
         5 000017   000001 620006                    EAX0    1,QL
         5 000020   000000 635010                    EAA     0,X0
         5 000021   000002 771000                    ARL     2
         5 000022   000140 135007                    SBLA    96,DL
         5 000023   200003 236100                    LDQ     @KEY,,AUTO
         5 000024   000002 757000 4                  STAQ    READ_FPT+2

     1140    11880    1   CALL M$READ (READ_FPT) ALTRET (IO_ERROR);

  11880  5 000025   000000 630400 4                  EPPR0   READ_FPT
         5 000026   440000 713400                    CLIMB   alt,read
         5 000027   401400 401760                    pmme    nvectors=4
         5 000030   000267 702000 5                  TSX2    IO_ERROR

     1141    11881    1   ARS = DCBADDR(DCBNUM(M$FORM))->F$DCB.ARS;

PL6.E3A0      #005=ASF$READ_FORM File=ASB$FILES.:E05TSI                          TUE 07/29/97 09:18 Page:228
  11881  5 000031   000000 236007 xsym               LDQ     M$FORM,DL
         5 000032   000000 470400 6                  LDP0    0
         5 000033   000000 471500                    LDP1    0,,PR0
         5 000034   100000 473506                    LDP3    0,QL,PR1
         5 000035   300000 235100                    LDA     0,,PR3
         5 000036   200005 473500                    LDP3    @ARS,,AUTO
         5 000037   300000 755100                    STA     0,,PR3

     1142    11882    1   RETURN;

  11882  5 000040   000000 702200 xent               TSX2  ! X66_ARET

     1143    11883
     1144    11884    1   ASF$WRITE_FORM: ENTRY (KEY, BUF$, ARS) ALTRET;

  11884  5 000041   000000 700200 xent  ASF$WRITE_F* TSX0  ! X66_AUTO_3
         5 000042   000006 000003                    ZERO    6,3

     1145    11885    1   WRITE_FPT.BUF_.BUF$ = BUF$;

  11885  5 000043   200004 470500                    LDP0    @BUF$,,AUTO
         5 000044   000000 236100                    LDQ     0,,PR0
         5 000045   000065 756000 4                  STQ     WRITE_FPT+5

     1146    11886    1   WRITE_FPT.BUF_.BOUND = ARS - 1;

  11886  5 000046   200005 471500                    LDP1    @ARS,,AUTO
         5 000047   100000 236100                    LDQ     0,,PR1
         5 000050   000001 136007                    SBLQ    1,DL
         5 000051   000020 736000                    QLS     16
         5 000052   000064 676000 4                  ERQ     WRITE_FPT+4
         5 000053   000034 376000 xsym               ANQ     B_VECTNIL+28
         5 000054   000064 656000 4                  ERSQ    WRITE_FPT+4

     1147    11887    1   WRITE_FPT.KEY_ = VECTOR (KEY);

  11887  5 000055   200003 473500                    LDP3    @KEY,,AUTO
PL6.E3A0      #005=ASF$READ_FORM File=ASB$FILES.:E05TSI                          TUE 07/29/97 09:18 Page:229
         5 000056   300000 236100                    LDQ     0,,PR3
         5 000057   000033 772000                    QRL     27
         5 000060   000001 620006                    EAX0    1,QL
         5 000061   000000 635010                    EAA     0,X0
         5 000062   000002 771000                    ARL     2
         5 000063   000140 135007                    SBLA    96,DL
         5 000064   200003 236100                    LDQ     @KEY,,AUTO
         5 000065   000062 757000 4                  STAQ    WRITE_FPT+2

     1148    11888    1   ENQ_FORM.RNAME_ = VECTOR(KEY);

  11888  5 000066   300000 236100                    LDQ     0,,PR3
         5 000067   000033 772000                    QRL     27
         5 000070   000001 620006                    EAX0    1,QL
         5 000071   000000 635010                    EAA     0,X0
         5 000072   000002 771000                    ARL     2
         5 000073   000140 135007                    SBLA    96,DL
         5 000074   200003 236100                    LDQ     @KEY,,AUTO
         5 000075   000262 757000 4                  STAQ    ENQ_FORM+2

     1149    11889    1   DEQ_FORM.RNAME_ = VECTOR(KEY);

  11889  5 000076   300000 236100                    LDQ     0,,PR3
         5 000077   000033 772000                    QRL     27
         5 000100   000001 620006                    EAX0    1,QL
         5 000101   000000 635010                    EAA     0,X0
         5 000102   000002 771000                    ARL     2
         5 000103   000140 135007                    SBLA    96,DL
         5 000104   200003 236100                    LDQ     @KEY,,AUTO
         5 000105   000274 757000 4                  STAQ    DEQ_FORM+2

     1150    11890    1   CALL M$ENQ( ENQ_FORM ) ALTRET(ENQ_ERR);

  11890  5 000106   000260 630400 4                  EPPR0   ENQ_FORM
         5 000107   420002 713400                    CLIMB   alt,+8194
         5 000110   401000 401760                    pmme    nvectors=3
         5 000111   000112 702000 5                  TSX2    ENQ_ERR
PL6.E3A0      #005=ASF$READ_FORM File=ASB$FILES.:E05TSI                          TUE 07/29/97 09:18 Page:230

     1151    11891    1   ENQ_ERR:
     1152    11892    1   CALL M$WRITE(WRITE_FPT) ALTRET(WRITE_ERR);

  11892  5 000112   000060 630400 4     ENQ_ERR      EPPR0   WRITE_FPT
         5 000113   440001 713400                    CLIMB   alt,write
         5 000114   401400 401760                    pmme    nvectors=4
         5 000115   000123 702000 5                  TSX2    WRITE_ERR

     1153    11893    1   CALL M$DEQ(DEQ_FORM) ALTRET(DEQ_ERR);

  11893  5 000116   000272 630400 4                  EPPR0   DEQ_FORM
         5 000117   420003 713400                    CLIMB   alt,+8195
         5 000120   401000 401760                    pmme    nvectors=3
         5 000121   000122 702000 5                  TSX2    DEQ_ERR

     1154    11894    1   DEQ_ERR:
     1155    11895    1   RETURN;

  11895  5 000122   000000 702200 xent  DEQ_ERR      TSX2  ! X66_ARET

     1156    11896    1   WRITE_ERR:
     1157    11897    1   ERR_CODE = B$TCB$ -> B$TCB.ALT$ -> B$ALT.ERR;

  11897  5 000123   000000 470400 xsym  WRITE_ERR    LDP0    B$TCB$
         5 000124   000000 471500                    LDP1    0,,PR0
         5 000125   100102 236100                    LDQ     66,,PR1
         5 000126   000000 756000 xsym               STQ     ERR_CODE

     1158    11898    1   AS_DCBNUM# = DCBNUM( M$FORM );

  11898  5 000127   000000 236007 xsym               LDQ     M$FORM,DL
         5 000130   000000 756000 xsym               STQ     AS_DCBNUM#

     1159    11899    1   CALL M$DEQ(DEQ_FORM) ALTRET(DEQ_ERR2);

  11899  5 000131   000272 630400 4                  EPPR0   DEQ_FORM
PL6.E3A0      #005=ASF$READ_FORM File=ASB$FILES.:E05TSI                          TUE 07/29/97 09:18 Page:231
         5 000132   420003 713400                    CLIMB   alt,+8195
         5 000133   401000 401760                    pmme    nvectors=3
         5 000134   000135 702000 5                  TSX2    DEQ_ERR2

     1160    11900    1   DEQ_ERR2:
     1161    11901    1   ALTRETURN;

  11901  5 000135   000000 702200 xent  DEQ_ERR2     TSX2  ! X66_AALT

     1162    11902
     1163    11903
     1164    11904    1   ASF$OPEN_FORM_CR: ENTRY ALTRET;

  11904  5 000136   000000 700200 xent  ASF$OPEN_FO* TSX0  ! X66_AUTO_3
         5 000137   000006 000003                    ZERO    6,3

     1165    11905    1   CALL M$OPEN(OPEN_CR_FPT) ALTRET (IO_ERROR);

  11905  5 000140   000074 630400 4                  EPPR0   OPEN_CR_FPT
         5 000141   450000 713400                    CLIMB   alt,open
         5 000142   410400 401760                    pmme    nvectors=18
         5 000143   000267 702000 5                  TSX2    IO_ERROR

     1166    11906    1   RETURN;

  11906  5 000144   000000 702200 xent               TSX2  ! X66_ARET

     1167    11907
     1168    11908    1   ASF$OPEN_FORM_UP: ENTRY ALTRET;

  11908  5 000145   000000 700200 xent  ASF$OPEN_FO* TSX0  ! X66_AUTO_3
         5 000146   000006 000003                    ZERO    6,3

     1169    11909    1   CALL M$OPEN(OPEN_UP_FPT) ALTRET (IO_ERROR);

  11909  5 000147   000166 630400 4                  EPPR0   OPEN_UP_FPT
         5 000150   450000 713400                    CLIMB   alt,open
PL6.E3A0      #005=ASF$READ_FORM File=ASB$FILES.:E05TSI                          TUE 07/29/97 09:18 Page:232
         5 000151   410400 401760                    pmme    nvectors=18
         5 000152   000267 702000 5                  TSX2    IO_ERROR

     1170    11910    1   RETURN;

  11910  5 000153   000000 702200 xent               TSX2  ! X66_ARET

     1171    11911
     1172    11912
     1173    11913    1   ASF$CLOSE_FORM: ENTRY ALTRET;

  11913  5 000154   000000 700200 xent  ASF$CLOSE_F* TSX0  ! X66_AUTO_3
         5 000155   000006 000003                    ZERO    6,3

     1174    11914    1   IF FAST_FLAG = AS_TRUE

  11914  5 000156   000000 236000 xsym               LDQ     FAST_FLAG
         5 000157   000000 676000 xsym               ERQ     AS_TRUE
         5 000160   400000 376003                    ANQ     -131072,DU
         5 000161   000163 601000 5                  TNZ     s:11916

     1175    11915    1   THEN RETURN;

  11915  5 000162   000000 702200 xent               TSX2  ! X66_ARET

     1176    11916    1   CALL M$CLOSE(CLOSE_FORM) ALTRET( IO_ERROR);

  11916  5 000163   000302 630400 4                  EPPR0   CLOSE_FORM
         5 000164   450001 713400                    CLIMB   alt,close
         5 000165   406000 401760                    pmme    nvectors=13
         5 000166   000267 702000 5                  TSX2    IO_ERROR

     1177    11917    1   RETURN;

  11917  5 000167   000000 702200 xent               TSX2  ! X66_ARET

     1178    11918
PL6.E3A0      #005=ASF$READ_FORM File=ASB$FILES.:E05TSI                          TUE 07/29/97 09:18 Page:233
     1179    11919    1   ASF$READ_FORM_SEQ: ENTRY(KEY,BUF$,ARS) ALTRET;

  11919  5 000170   000000 700200 xent  ASF$READ_FO* TSX0  ! X66_AUTO_3
         5 000171   000006 000003                    ZERO    6,3

     1180    11920    1   READ_FPT_SEQ.BUF_.BUF$ = BUF$;

  11920  5 000172   200004 470500                    LDP0    @BUF$,,AUTO
         5 000173   000000 236100                    LDQ     0,,PR0
         5 000174   000023 756000 4                  STQ     READ_FPT_SEQ+5

     1181    11921    1   READ_FPT_SEQ.BUF_.BOUND = ARS-1;

  11921  5 000175   200005 471500                    LDP1    @ARS,,AUTO
         5 000176   100000 236100                    LDQ     0,,PR1
         5 000177   000001 136007                    SBLQ    1,DL
         5 000200   000020 736000                    QLS     16
         5 000201   000022 676000 4                  ERQ     READ_FPT_SEQ+4
         5 000202   000034 376000 xsym               ANQ     B_VECTNIL+28
         5 000203   000022 656000 4                  ERSQ    READ_FPT_SEQ+4

     1182    11922    1   CALL M$READ(READ_FPT_SEQ) ALTRET(IO_ERROR);

  11922  5 000204   000016 630400 4                  EPPR0   READ_FPT_SEQ
         5 000205   440000 713400                    CLIMB   alt,read
         5 000206   401400 401760                    pmme    nvectors=4
         5 000207   000267 702000 5                  TSX2    IO_ERROR

     1183    11923    1   ARS = DCBADDR(DCBNUM(M$FORM))->F$DCB.ARS;

  11923  5 000210   000000 236007 xsym               LDQ     M$FORM,DL
         5 000211   000000 470400 6                  LDP0    0
         5 000212   000000 471500                    LDP1    0,,PR0
         5 000213   100000 473506                    LDP3    0,QL,PR1
         5 000214   300000 235100                    LDA     0,,PR3
         5 000215   200005 473500                    LDP3    @ARS,,AUTO
         5 000216   300000 755100                    STA     0,,PR3
PL6.E3A0      #005=ASF$READ_FORM File=ASB$FILES.:E05TSI                          TUE 07/29/97 09:18 Page:234

     1184    11924    1   RETURN;

  11924  5 000217   000000 702200 xent               TSX2  ! X66_ARET

     1185    11925
     1186    11926
     1187    11927    1   ASF$PREC_FORM: ENTRY(KEY) ALTRET;

  11927  5 000220   000000 700200 xent  ASF$PREC_FO* TSX0  ! X66_AUTO_3
         5 000221   000006 000003                    ZERO    6,3

     1188    11928    1   PREC_FPT.KEY_ = VECTOR(KEY);

  11928  5 000222   200003 470500                    LDP0    @KEY,,AUTO
         5 000223   000000 236100                    LDQ     0,,PR0
         5 000224   000033 772000                    QRL     27
         5 000225   000001 620006                    EAX0    1,QL
         5 000226   000000 635010                    EAA     0,X0
         5 000227   000002 771000                    ARL     2
         5 000230   000140 135007                    SBLA    96,DL
         5 000231   200003 236100                    LDQ     @KEY,,AUTO
         5 000232   000036 757000 4                  STAQ    PREC_FPT+2

     1189    11929    1   CALL M$PRECORD(PREC_FPT) ALTRET(IO_ERROR);

  11929  5 000233   000034 630400 4                  EPPR0   PREC_FPT
         5 000234   440003 713400                    CLIMB   alt,+16387
         5 000235   401000 401760                    pmme    nvectors=3
         5 000236   000267 702000 5                  TSX2    IO_ERROR

     1190    11930    1   RETURN;

  11930  5 000237   000000 702200 xent               TSX2  ! X66_ARET

     1191    11931    1   ASF$PREC_SKIP_FORM: ENTRY(KEY) ALTRET;

PL6.E3A0      #005=ASF$READ_FORM File=ASB$FILES.:E05TSI                          TUE 07/29/97 09:18 Page:235
  11931  5 000240   000000 700200 xent  ASF$PREC_SK* TSX0  ! X66_AUTO_3
         5 000241   000006 000003                    ZERO    6,3

     1192    11932    1   PREC_SKIP_FPT.KEY_ = VECTOR(KEY);

  11932  5 000242   200003 470500                    LDP0    @KEY,,AUTO
         5 000243   000000 236100                    LDQ     0,,PR0
         5 000244   000033 772000                    QRL     27
         5 000245   000001 620006                    EAX0    1,QL
         5 000246   000000 635010                    EAA     0,X0
         5 000247   000002 771000                    ARL     2
         5 000250   000140 135007                    SBLA    96,DL
         5 000251   200003 236100                    LDQ     @KEY,,AUTO
         5 000252   000050 757000 4                  STAQ    PREC_SKIP_FPT+2

     1193    11933    1   CALL M$PRECORD(PREC_SKIP_FPT) ALTRET(IO_ERROR);

  11933  5 000253   000046 630400 4                  EPPR0   PREC_SKIP_FPT
         5 000254   440003 713400                    CLIMB   alt,+16387
         5 000255   401000 401760                    pmme    nvectors=3
         5 000256   000267 702000 5                  TSX2    IO_ERROR

     1194    11934    1   RETURN;

  11934  5 000257   000000 702200 xent               TSX2  ! X66_ARET

     1195    11935
     1196    11936
     1197    11937    1   ASF$DELREC_FORM: ENTRY ALTRET;

  11937  5 000260   000000 700200 xent  ASF$DELREC_* TSX0  ! X66_AUTO_3
         5 000261   000006 000003                    ZERO    6,3

     1198    11938    1   CALL M$DELREC(DELREC_FPT) ALTRET(IO_ERROR);

  11938  5 000262   000340 630400 4                  EPPR0   DELREC_FPT
         5 000263   440002 713400                    CLIMB   alt,+16386
PL6.E3A0      #005=ASF$READ_FORM File=ASB$FILES.:E05TSI                          TUE 07/29/97 09:18 Page:236
         5 000264   401400 401760                    pmme    nvectors=4
         5 000265   000267 702000 5                  TSX2    IO_ERROR

     1199    11939    1   RETURN;

  11939  5 000266   000000 702200 xent               TSX2  ! X66_ARET

     1200    11940
     1201    11941
     1202    11942    1   IO_ERROR:
     1203    11943    1   ERR_CODE = B$TCB$->B$TCB.ALT$->B$ALT.ERR;

  11943  5 000267   000000 470400 xsym  IO_ERROR     LDP0    B$TCB$
         5 000270   000000 471500                    LDP1    0,,PR0
         5 000271   100102 236100                    LDQ     66,,PR1
         5 000272   000000 756000 xsym               STQ     ERR_CODE

     1204    11944    1   AS_DCBNUM# = DCBNUM( M$FORM );

  11944  5 000273   000000 236007 xsym               LDQ     M$FORM,DL
         5 000274   000000 756000 xsym               STQ     AS_DCBNUM#

     1205    11945    1   ALTRETURN;

  11945  5 000275   000000 702200 xent               TSX2  ! X66_AALT
     1206    11946
     1207    11947
     1208    11948    1   END ASF$READ_FORM;
     1209    11949        %EOD;

PL6.E3A0      #005=ASF$READ_FORM File=ASB$FILES.:E05TSI                          TUE 07/29/97 09:18 Page:237
--  Include file information  --

   AS_SUPER_R.:E05TOU  cannot be made into a system file and is referenced.
   XU_FORMAT_C.:E05TOU  is referenced.
   XU_MACRO_C.:E05TOU  is referenced.
   AS_MAC_C.:E05TOU  cannot be made into a system file and is referenced.
   AS_SUBS_C.:E05TOU  is referenced.
   KL_SUPER_C.:E05TOU  is referenced.
   AS_SUPER_C.:E05TOU  is referenced.
   F$DCB.:E05TOU  cannot be made into a system file and is referenced.
   CP_6.:E05TOU  cannot be made into a system file and is referenced.
   B$JIT_C.:E05TOU  was found in the system file and is never referenced.
   CP_6_C.:E05TOU  was found in the system file and is referenced.
      No diagnostics issued in procedure ASF$READ_FORM.
PL6.E3A0      #005=ASF$READ_FORM File=ASB$FILES.:E05TSI                          TUE 07/29/97 09:18 Page:238

 **** Variables and constants ****

  ****  Section 003 RoData ASF$READ_FORM

  ****  Scalars and arrays  ****
OctLoc.c.b A Datatyp(siz) R M Lvl/name                 OctLoc.c.b A Datatyp(siz) R M Lvl/name

     0-0-0/c STRC(54)    r     1 FORM_FILE

  ****  Section 004  Data  ASF$READ_FORM

  ****  Scalars and arrays  ****
OctLoc.c.b A Datatyp(siz) R M Lvl/name                 OctLoc.c.b A Datatyp(siz) R M Lvl/name

   302-0-0/d STRC(1080)  r     1 CLOSE_FORM               340-0-0/d STRC(360)   r     1 DELREC_FPT
   272-0-0/d STRC(288)   r     1 DEQ_FORM                 260-0-0/d STRC(360)   r     1 ENQ_FORM
    74-0-0/d STRC(2088)  r     1 OPEN_CR_FPT              166-0-0/d STRC(2088)  r     1 OPEN_UP_FPT
    34-0-0/d STRC(360)   r     1 PREC_FPT                  46-0-0/d STRC(360)   r     1 PREC_SKIP_FPT
     0-0-0/d STRC(504)   r     1 READ_FPT                  16-0-0/d STRC(504)   r     1 READ_FPT_SEQ
   356-0-0/w STRC(108)   r     1 VLP_ATTR                 352-0-0/w STRC(126)   r     1 VLP_ATTR_ACC
    60-0-0/d STRC(432)   r     1 WRITE_FPT

  ****  Auto variables  ****

  ****  Scalars and arrays  ****
OctLoc.c.b A Datatyp(siz) R M Lvl/name                 OctLoc.c.b A Datatyp(siz) R M Lvl/name

     5-0-0/w PTR         r     1 @ARS                       4-0-0/w PTR         r     1 @BUF$
     3-0-0/w PTR         r     1 @KEY                      *0-0-0/w UBIN        r     1 ARS
    *0-0-0/w PTR         r     1 BUF$                      *0-0-0/w ASTR(9)     r     1 KEY

  ****  SYMREF variables  ****

  ****  Scalars and arrays  ****
OctLoc.c.b A Datatyp(siz) R M Lvl/name                 OctLoc.c.b A Datatyp(siz) R M Lvl/name

     0-0-0/w UBIN        r     1 AS_DCBNUM#                 0-0-0/b BIT         r     1 AS_TRUE
PL6.E3A0      #005=ASF$READ_FORM File=ASB$FILES.:E05TSI                          TUE 07/29/97 09:18 Page:239
     0-0-0/w PTR         r     1 B$TCB$                     0-0-0/b STRC        r     1 ERR_CODE
     0-0-0/b BIT         r     1 FAST_FLAG                  0-0-0/c STRC(72)    r     1 FILE_ACCT
     0-0-0/c STRC(378)   r     1 USERS_KEY

  ****  BASED and DCB variables  ****

  ****  Scalars and arrays  ****
OctLoc.c.b A Datatyp(siz) R M Lvl/name                 OctLoc.c.b A Datatyp(siz) R M Lvl/name

     0-0-0/w STRC(2448)  r     1 B$ALT                      0-0-0/w STRC(144)   r     1 B$TCB
     0-0-0/d ASTR(3528)  r     1 F$DCB                      0-0-0N  NULL        r     1 M$FORM


   Procedure ASF$READ_FORM requires 190 words for executable code.
   Procedure ASF$READ_FORM requires 6 words of local(AUTO) storage.
PL6.E3A0      #005=ASF$READ_FORM File=ASB$FILES.:E05TSI                          TUE 07/29/97 09:18 Page:240
          *** CROSS REFERENCE LISTING ***
**     DENOTES     IDENTIFIER DEFINITION
<<                 IDENTIFIER'S VALUE SET
>>                 IDENTIFIER'S VALUE USED
<>                 IDENTIFIER SET AND/OR USED
--                 IDENTIFIER REFERENCED
PL6.E3A0      #005=ASF$READ_FORM File=ASB$FILES.:E05TSI                          TUE 07/29/97 09:18 Page:241
          MINI XREF LISTING

ARS
        12**DCL         7--PROC    11878>>ASSIGN  11881<<ASSIGN  11884--ENTRY   11886>>ASSIGN  11919--ENTRY
     11921>>ASSIGN  11923<<ASSIGN
ASA_BRKS_LOC
      8406**DCL      8406--REDEF
AS_DCBNUM#
      8413**DCL     11898<<ASSIGN  11944<<ASSIGN
AS_DEFAULT.BANNER_PERM
      9099**DCL      9100--REDEF
AS_DEFAULT.BUDGET.MACCT
      9004**DCL      9008--REDEF
AS_DEFAULT.BUDGET.MAX_PROJECTS
      9017**DCL      9020--REDEF
AS_DEFAULT.BUDGET.PACCUM
      9000**DCL      9002--REDEF
AS_DEFAULT.BUDGET.PMAXC
      8995**DCL      8997--REDEF
AS_DEFAULT.SETUP_CHRA.TXT
      9115**DCL      9116--REDEF    9117--REDEF
AS_DEFAULT_DREC.PASSWORD
     10369**DCL     10373--REDEF
AS_DEFAULT_DREC.RENAME
     10392**DCL     10393--REDEF
AS_DFLT.BANNER_PERM
      8921**DCL      8922--REDEF
AS_DFLT.BUDGET.MACCT
      8826**DCL      8830--REDEF
AS_DFLT.BUDGET.MAX_PROJECTS
      8839**DCL      8842--REDEF
AS_DFLT.BUDGET.PACCUM
      8822**DCL      8824--REDEF
AS_DFLT.BUDGET.PMAXC
PL6.E3A0      #005=ASF$READ_FORM File=ASB$FILES.:E05TSI                          TUE 07/29/97 09:18 Page:242
      8817**DCL      8819--REDEF
AS_DFLT.SETUP_CHRA.TXT
      8937**DCL      8938--REDEF    8939--REDEF
AS_FE_MODE
      8272**DCL      8273--REDEF
AS_MODE
      8269**DCL      8271--REDEF
AS_MOD_USER.ACCESS
     11134**DCL     11135--REDEF
AS_MOD_USER.BANNER
     11121**DCL     11122--REDEF
AS_MOD_USER.BANNER_PERM
     11123**DCL     11124--REDEF
AS_MOD_USER.BILL
     11129**DCL     11130--REDEF
AS_MOD_USER.CPROC
     11125**DCL     11126--REDEF
AS_MOD_USER.FEBILL
     11205**DCL     11206--REDEF
AS_MOD_USER.FECXTMEM
     11222**DCL     11223--REDEF
AS_MOD_USER.FEMINTS
     11207**DCL     11208--REDEF
AS_MOD_USER.FEMMEM
     11218**DCL     11219--REDEF
AS_MOD_USER.FEMTIME
     11216**DCL     11217--REDEF
AS_MOD_USER.FEPPRIV
     11213**DCL     11215--REDEF
AS_MOD_USER.FEPRIV
     11210**DCL     11212--REDEF
AS_MOD_USER.FORCE_BIT
     11119**DCL     11120--REDEF
AS_MOD_USER.KEY
     11201**DCL     11203--REDEF
AS_MOD_USER.LASTCPROC
PL6.E3A0      #005=ASF$READ_FORM File=ASB$FILES.:E05TSI                          TUE 07/29/97 09:18 Page:243
     11127**DCL     11128--REDEF
AS_MOD_USER.LIMITS.DO_
     11175**DCL     11176--REDEF
AS_MOD_USER.LIMITS.FPOOLS
     11191**DCL     11192--REDEF
AS_MOD_USER.LIMITS.LO
     11171**DCL     11172--REDEF
AS_MOD_USER.LIMITS.MEM
     11167**DCL     11168--REDEF
AS_MOD_USER.LIMITS.MPRIO
     11195**DCL     11196--REDEF
AS_MOD_USER.LIMITS.PDIS
     11183**DCL     11184--REDEF
AS_MOD_USER.LIMITS.PO
     11179**DCL     11180--REDEF
AS_MOD_USER.LIMITS.TDIS
     11187**DCL     11188--REDEF
AS_MOD_USER.LIMITS.TIME
     11163**DCL     11164--REDEF
AS_MOD_USER.MAXENQ
     11144**DCL     11145--REDEF
AS_MOD_USER.PERM_BIT
     11117**DCL     11118--REDEF
AS_MOD_USER.PPRIV
     11139**DCL     11141--REDEF
AS_MOD_USER.PRIOB
     11146**DCL     11147--REDEF
AS_MOD_USER.PRIV
     11136**DCL     11138--REDEF
AS_MOD_USER.QUAN
     11142**DCL     11143--REDEF
AS_MOD_USER.SETUP
     11115**DCL     11116--REDEF
AS_PROJECT.BANNER_PERM
      9455**DCL      9456--REDEF
AS_PROJECT.BUDGET.MACCT
PL6.E3A0      #005=ASF$READ_FORM File=ASB$FILES.:E05TSI                          TUE 07/29/97 09:18 Page:244
      9360**DCL      9364--REDEF
AS_PROJECT.BUDGET.MAX_PROJECTS
      9373**DCL      9376--REDEF
AS_PROJECT.BUDGET.PACCUM
      9356**DCL      9358--REDEF
AS_PROJECT.BUDGET.PMAXC
      9351**DCL      9353--REDEF
AS_PROJECT.SETUP_CHRA.TXT
      9471**DCL      9472--REDEF    9473--REDEF
AS_PROJECT_DFLT.BANNER_PERM
      9633**DCL      9634--REDEF
AS_PROJECT_DFLT.BUDGET.MACCT
      9538**DCL      9542--REDEF
AS_PROJECT_DFLT.BUDGET.MAX_PROJECTS
      9551**DCL      9554--REDEF
AS_PROJECT_DFLT.BUDGET.PACCUM
      9534**DCL      9536--REDEF
AS_PROJECT_DFLT.BUDGET.PMAXC
      9529**DCL      9531--REDEF
AS_PROJECT_DFLT.SETUP_CHRA.TXT
      9649**DCL      9650--REDEF    9651--REDEF
AS_PROJECT_DFLT_DREC.PASSWORD
     10855**DCL     10859--REDEF
AS_PROJECT_DFLT_DREC.RENAME
     10878**DCL     10879--REDEF
AS_PROJECT_DREC.PASSWORD
     10693**DCL     10697--REDEF
AS_PROJECT_DREC.RENAME
     10716**DCL     10717--REDEF
AS_PROJ_ADMIN.BANNER_PERM
      9277**DCL      9278--REDEF
AS_PROJ_ADMIN.BUDGET.MACCT
      9182**DCL      9186--REDEF
AS_PROJ_ADMIN.BUDGET.MAX_PROJECTS
      9195**DCL      9198--REDEF
AS_PROJ_ADMIN.BUDGET.PACCUM
PL6.E3A0      #005=ASF$READ_FORM File=ASB$FILES.:E05TSI                          TUE 07/29/97 09:18 Page:245
      9178**DCL      9180--REDEF
AS_PROJ_ADMIN.BUDGET.PMAXC
      9173**DCL      9175--REDEF
AS_PROJ_ADMIN.SETUP_CHRA.TXT
      9293**DCL      9294--REDEF    9295--REDEF
AS_PROJ_ADMIN_DREC.PASSWORD
     10531**DCL     10535--REDEF
AS_PROJ_ADMIN_DREC.RENAME
     10554**DCL     10555--REDEF
AS_TRUE
      8266**DCL     11914>>IF
AS_USERS.BANNER_PERM
      8743**DCL      8744--REDEF
AS_USERS.BUDGET.MACCT
      8648**DCL      8652--REDEF
AS_USERS.BUDGET.MAX_PROJECTS
      8661**DCL      8664--REDEF
AS_USERS.BUDGET.PACCUM
      8644**DCL      8646--REDEF
AS_USERS.BUDGET.PMAXC
      8639**DCL      8641--REDEF
AS_USERS.SETUP_CHRA.TXT
      8759**DCL      8760--REDEF    8761--REDEF
AS_USERS_CONSTANT.BANNER_PERM
      9811**DCL      9812--REDEF
AS_USERS_CONSTANT.BUDGET.MACCT
      9716**DCL      9720--REDEF
AS_USERS_CONSTANT.BUDGET.MAX_PROJECTS
      9729**DCL      9732--REDEF
AS_USERS_CONSTANT.BUDGET.PACCUM
      9712**DCL      9714--REDEF
AS_USERS_CONSTANT.BUDGET.PMAXC
      9707**DCL      9709--REDEF
AS_USERS_CONSTANT.SETUP_CHRA.TXT
      9827**DCL      9828--REDEF    9829--REDEF
B$ALT.CODE
PL6.E3A0      #005=ASF$READ_FORM File=ASB$FILES.:E05TSI                          TUE 07/29/97 09:18 Page:246
     11264**DCL     11264--REDEF   11265--REDEF   11265--REDEF
B$ALT.ERR
     11265**DCL     11897>>ASSIGN  11943>>ASSIGN
B$ALT.ERR.ERR#
     11266**DCL     11266--REDEF
B$ALT.EVID
     11265**DCL     11265--REDEF   11265--REDEF
B$TCB.ALT$
     11260**DCL     11897>>ASSIGN  11943>>ASSIGN
B$TCB$
     11258**DCL     11897>>ASSIGN  11943>>ASSIGN
BUF$
        11**DCL         7--PROC    11877>>ASSIGN  11884--ENTRY   11885>>ASSIGN  11919--ENTRY   11920>>ASSIGN
CLOSE_FORM
     11769**DCL     11916<>CALL
CLOSE_FORM.SN_
     11769**DCL     11769--REDEF
CLOSE_FORM.UTL_
     11770**DCL     11770--REDEF
CLOSE_FORM.V
     11774**DCL     11769--DCLINIT
CLOSE_FORM.V.EXPIRE#
     11784**DCL     11784--REDEF
CLOSE_FORM.V.TYPE#
     11782**DCL     11782--REDEF
CLOSE_FORM.V.XTNSIZE#
     11779**DCL     11779--REDEF   11781--REDEF
DELREC_FPT
     11801**DCL     11938<>CALL
DELREC_FPT.V
     11804**DCL     11801--DCLINIT
DEQ_ERR
     11895**LABEL   11893--CALLALT
DEQ_ERR2
     11901**LABEL   11899--CALLALT
DEQ_FORM
PL6.E3A0      #005=ASF$READ_FORM File=ASB$FILES.:E05TSI                          TUE 07/29/97 09:18 Page:247
     11738**DCL     11893<>CALL    11899<>CALL
DEQ_FORM.RNAME_
     11738**DCL     11889<<ASSIGN
DEQ_FORM.V
     11739**DCL     11738--DCLINIT
ENQ_ERR
     11892**LABEL   11890--CALLALT
ENQ_FORM
     11718**DCL     11890<>CALL
ENQ_FORM.RNAME_
     11718**DCL     11888<<ASSIGN
ENQ_FORM.V
     11719**DCL     11718--DCLINIT
ERR_CODE
      8401**DCL      8402--REDEF   11897<<ASSIGN  11943<<ASSIGN
F$DCB.ACTPOS
       120**DCL       120--REDEF
F$DCB.ARS
        95**DCL        95--REDEF   11881>>ASSIGN  11923>>ASSIGN
F$DCB.ATTR
       113**DCL       114--REDEF
F$DCB.BORROW
       128**DCL       128--REDEF     128--REDEF     128--REDEF
F$DCB.DCBNAME.L
       142**DCL       142--IMP-SIZ
F$DCB.EOMCHAR
        99**DCL        99--REDEF
F$DCB.FLDID
       123**DCL       123--REDEF
F$DCB.FORM$
       117**DCL       117--REDEF
F$DCB.FSECT
       133**DCL       133--REDEF
F$DCB.FSN
       110**DCL       110--REDEF     110--REDEF     111--REDEF
F$DCB.HEADER$
PL6.E3A0      #005=ASF$READ_FORM File=ASB$FILES.:E05TSI                          TUE 07/29/97 09:18 Page:248
       116**DCL       116--REDEF
F$DCB.IXTNSIZE
       114**DCL       114--REDEF
F$DCB.LASTSTA$
       104**DCL       104--REDEF
F$DCB.LVL
       129**DCL       129--REDEF
F$DCB.NAME.C
       104**DCL       104--REDEF
F$DCB.NOEOF
       125**DCL       125--REDEF
F$DCB.NRECS
       115**DCL       115--REDEF
F$DCB.NRECX
       134**DCL       134--REDEF
F$DCB.OHDR
       126**DCL       126--REDEF
F$DCB.ORG
       109**DCL       109--REDEF
F$DCB.PRECNO
       132**DCL       132--REDEF
F$DCB.RCSZ
       137**DCL       137--REDEF
F$DCB.RES
       105**DCL       105--REDEF
F$DCB.SETX
       117**DCL       117--REDEF
F$DCB.TAB$
       116**DCL       117--REDEF
F$DCB.TDA
       131**DCL       131--REDEF
F$DCB.WSN
       106**DCL       106--REDEF
FAST_FLAG
      8399**DCL     11914>>IF
FILE_ACCT
PL6.E3A0      #005=ASF$READ_FORM File=ASB$FILES.:E05TSI                          TUE 07/29/97 09:18 Page:249
      8409**DCL     11549--DCLINIT 11666--DCLINIT
FORM_FILE
     11296**DCL     11545--DCLINIT 11662--DCLINIT
IO_ERROR
     11943**LABEL   11880--CALLALT 11905--CALLALT 11909--CALLALT 11916--CALLALT 11922--CALLALT 11929--CALLALT
     11933--CALLALT 11938--CALLALT
KEY
         8**DCL         7--PROC    11879--ASSIGN  11884--ENTRY   11887--ASSIGN  11888--ASSIGN  11889--ASSIGN
     11919--ENTRY   11927--ENTRY   11928--ASSIGN  11931--ENTRY   11932--ASSIGN
KEY.CNT
         9**DCL        10--IMP-SIZ 11879>>ASSIGN  11887>>ASSIGN  11888>>ASSIGN  11889>>ASSIGN  11928>>ASSIGN
     11932>>ASSIGN
KL_DEFAULT.PASSWORD
     11017**DCL     11021--REDEF
KL_DEFAULT.RENAME
     11040**DCL     11041--REDEF
KL_DFLT.PASSWORD
     10207**DCL     10211--REDEF
KL_DFLT.RENAME
     10230**DCL     10231--REDEF
KL_DREC.PASSWORD
     10045**DCL     10049--REDEF
KL_DREC.RENAME
     10068**DCL     10069--REDEF
KL_DREC_CNT.PASSWORD
      9932**DCL      9936--REDEF
KL_DREC_CNT.RENAME
      9955**DCL      9956--REDEF
M$CLOSE
        22**DCL-ENT 11916--CALL
M$DELREC
        24**DCL-ENT 11938--CALL
M$DEQ
        89**DCL-ENT 11893--CALL    11899--CALL
M$ENQ
        88**DCL-ENT 11890--CALL
PL6.E3A0      #005=ASF$READ_FORM File=ASB$FILES.:E05TSI                          TUE 07/29/97 09:18 Page:250
M$FORM
     11270**DCL     11881--ASSIGN  11898>>ASSIGN  11923--ASSIGN  11944>>ASSIGN
M$OPEN
        22**DCL-ENT 11905--CALL    11909--CALL
M$PRECORD
        26**DCL-ENT 11929--CALL    11933--CALL
M$READ
        23**DCL-ENT 11880--CALL    11922--CALL
M$WRITE
        23**DCL-ENT 11892--CALL
OPEN_CR_FPT
     11544**DCL     11905<>CALL
OPEN_CR_FPT.ACSVEH_
     11546**DCL     11547--REDEF
OPEN_CR_FPT.ALTKEYS_
     11552**DCL     11553--REDEF   11553--REDEF
OPEN_CR_FPT.HDR_
     11551**DCL     11552--REDEF
OPEN_CR_FPT.TAB_
     11550**DCL     11551--REDEF
OPEN_CR_FPT.UHL_
     11544**DCL     11545--REDEF   11545--REDEF
OPEN_CR_FPT.V
     11553**DCL     11544--DCLINIT
OPEN_CR_FPT.V.FSN#
     11584**DCL     11584--REDEF   11584--REDEF
OPEN_CR_FPT.WSN_
     11550**DCL     11550--REDEF
OPEN_UP_FPT
     11661**DCL     11909<>CALL
OPEN_UP_FPT.ACSVEH_
     11663**DCL     11664--REDEF
OPEN_UP_FPT.ALTKEYS_
     11669**DCL     11670--REDEF   11670--REDEF
OPEN_UP_FPT.HDR_
     11668**DCL     11669--REDEF
PL6.E3A0      #005=ASF$READ_FORM File=ASB$FILES.:E05TSI                          TUE 07/29/97 09:18 Page:251
OPEN_UP_FPT.TAB_
     11667**DCL     11668--REDEF
OPEN_UP_FPT.UHL_
     11661**DCL     11662--REDEF   11662--REDEF
OPEN_UP_FPT.V
     11670**DCL     11661--DCLINIT
OPEN_UP_FPT.V.FSN#
     11701**DCL     11701--REDEF   11701--REDEF
OPEN_UP_FPT.WSN_
     11667**DCL     11667--REDEF
PREC_FPT
     11397**DCL     11929<>CALL
PREC_FPT.KEY_
     11397**DCL     11928<<ASSIGN
PREC_FPT.V
     11399**DCL     11397--DCLINIT
PREC_SKIP_FPT
     11422**DCL     11933<>CALL
PREC_SKIP_FPT.KEY_
     11422**DCL     11932<<ASSIGN
PREC_SKIP_FPT.V
     11424**DCL     11422--DCLINIT
PROJ_KEY.TEXT
      8279**DCL      8279--REDEF
PROJ_KEY.TXT.PROJECT
      8279**DCL      8279--REDEF
READ_FPT
     11317**DCL     11880<>CALL
READ_FPT.BUF_.BOUND
     11319**DCL     11878<<ASSIGN
READ_FPT.BUF_.BUF$
     11320**DCL     11877<<ASSIGN
READ_FPT.KEY_
     11317**DCL     11879<<ASSIGN
READ_FPT.STATION_
     11320**DCL     11321--REDEF
PL6.E3A0      #005=ASF$READ_FORM File=ASB$FILES.:E05TSI                          TUE 07/29/97 09:18 Page:252
READ_FPT.V
     11321**DCL     11317--DCLINIT
READ_FPT.V.DVBYTE.REREAD#
     11332**DCL     11332--REDEF
READ_FPT.V.INDX#
     11330**DCL     11330--REDEF
READ_FPT_SEQ
     11360**DCL     11922<>CALL
READ_FPT_SEQ.BUF_.BOUND
     11362**DCL     11921<<ASSIGN
READ_FPT_SEQ.BUF_.BUF$
     11363**DCL     11920<<ASSIGN
READ_FPT_SEQ.STATION_
     11363**DCL     11364--REDEF
READ_FPT_SEQ.V
     11364**DCL     11360--DCLINIT
READ_FPT_SEQ.V.DVBYTE.REREAD#
     11375**DCL     11375--REDEF
READ_FPT_SEQ.V.INDX#
     11373**DCL     11373--REDEF
REMEM_VAR
      8405**DCL      8405--REDEF
REM_FCMD
      8405**DCL      8406--REDEF
USERS_KEY
      8276**DCL     11360--DCLINIT 11361--DCLINIT 11801--DCLINIT 11802--DCLINIT
USERS_KEY.TEXT
      8276**DCL      8277--REDEF    8277--REDEF    8277--REDEF    8278--REDEF
VLP_ATTR
     11851**DCL     11547--DCLINIT
VLP_ATTR.Q
     11852**DCL     11851--DCLINIT
VLP_ATTR_ACC
     11820**DCL     11546--DCLINIT
VLP_ATTR_ACC.Q
     11821**DCL     11820--DCLINIT
PL6.E3A0      #005=ASF$READ_FORM File=ASB$FILES.:E05TSI                          TUE 07/29/97 09:18 Page:253
WRITE_ERR
     11897**LABEL   11892--CALLALT
WRITE_FPT
     11451**DCL     11892<>CALL
WRITE_FPT.BUF_.BOUND
     11451**DCL     11886<<ASSIGN
WRITE_FPT.BUF_.BUF$
     11453**DCL     11885<<ASSIGN
WRITE_FPT.KEY_
     11451**DCL     11887<<ASSIGN
WRITE_FPT.STATION_
     11453**DCL     11453--REDEF
WRITE_FPT.V
     11454**DCL     11451--DCLINIT
WRITE_FPT.V.DVBYTE.VFC#
     11460**DCL     11460--REDEF

PL6.E3A0      #006=ASW$WSN_IO File=ASB$FILES.:E05TSI                             TUE 07/29/97 09:20 Page:254
     1210        1        /*T***********************************************************/
     1211        2        /*T*                                                         */
     1212        3        /*T* Copyright (c) Bull HN Information Systems Inc., 1997    */
     1213        4        /*T*                                                         */
     1214        5        /*T***********************************************************/
     1215        6        %EJECT;
PL6.E3A0      #006=ASW$WSN_IO File=ASB$FILES.:E05TSI                             TUE 07/29/97 09:20 Page:255
     1216        7        /*P*  NAME:       ASW$WSN_IO
     1217        8              PURPOSE:    Manage the :WSN file.
     1218        9              DESCRIPTION:
     1219       10                  This procedure has 11 entries:
     1220       11
     1221       12                  ASW$READ_WSN            - reads a record from :WSN by key.
     1222       13                  ASW$WRITE_WSN           - writes a record to :WSN.
     1223       14                  ASW$DELREC_WSN          - deletes a record from :WSN.
     1224       15                  ASW$PREC_WSN            - positions to a record in :WSN.
     1225       16                  ASW$OPEN_WSN_CR         - creates :WSN
     1226       17                  ASW$OPEN_WSN_UP         - opens :WSN update
     1227       18                  ASW$CLOSE_WSN           - closes :WSN
     1228       19                  ASW$READ_WSN_SEQ        - reads a record from :WSN sequentially.
     1229       20                  ASW$BOF_WSN             - postions to the beginning of :WSN
     1230       21                  ASW$ENQ_WSN             - enques a record in :WSN
     1231       22                  ASW$DEQ_WSN             - deques a record in :WSN
     1232       23        */
     1233       24
     1234       25
     1235       26        ASW$WSN_IO: PROC ( BUF$, ARS) ALTRET ;
     1236       27
     1237       28
     1238       29        /*********************************************************************/
     1239       30        /*   Include files   include files   include files   include files   */
     1240       31        /*********************************************************************/
     1241       32
     1242       33        %INCLUDE CP_6 ;
     1243      114              %INCLUDE AS_ENTRIES_M ;
     1244     1164              %INCLUDE AS_SUPER_C ;
     1245     1599              %INCLUDE AS_SUBS_C ;
     1246     3013              %INCLUDE AS_MAC_C ;
     1247     3093              %INCLUDE KL_SUPER_C ;
     1248     5995              %INCLUDE XU_MACRO_C ;
     1249     9101              %INCLUDE XU_FORMAT_C ;
     1250     9263              %INCLUDE AS_SUPER_R ;
     1251    12279
     1252    12280        /*********************************************************************/
PL6.E3A0      #006=ASW$WSN_IO File=ASB$FILES.:E05TSI                             TUE 07/29/97 09:20 Page:256
     1253    12281        /*   Entry dcls      entry dcls      entry dcls      entry dcls      */
     1254    12282        /*********************************************************************/
     1255    12283        %ASH$ERROR;
     1256    12286        /*********************************************************************/
     1257    12287        /*   Local based     local based     local based     local based     */
     1258    12288        /*********************************************************************/
     1259    12289
     1260    12290              %B$ALT ;
     1261    12298              %B$TCB ;
     1262    12301
     1263    12302        /*********************************************************************/
     1264    12303        /*   Symref's        symref's        symref's        symref's        */
     1265    12304        /*********************************************************************/
     1266    12305
     1267    12306    1   DCL B$TCB$ PTR SYMREF ;
     1268    12307
     1269    12308        /*********************************************************************/
     1270    12309        /*   Parameters      parameters      parameters      parameters      */
     1271    12310        /*********************************************************************/
     1272    12311
     1273    12312    1   DCL 1 KEY,
     1274    12313    1          2 CNT UBIN BYTE UNAL,
     1275    12314    1          2 TEXT CHAR(9);
     1276    12315    1   DCL BUF$ PTR ;
     1277    12316    1   DCL ARS UBIN WORD ;
     1278    12317
     1279    12318
     1280    12319        /*********************************************************************/
     1281    12320        /*   Fpts            fpts            fpts            fpts            */
     1282    12321        /*********************************************************************/
     1283    12322
     1284    12323              %FPT_OPEN (FPTN=OPEN_CR_FPT ,
     1285    12324                          NAME = FILE_NAME ,
     1286    12325                          ACCT = FILE_ACCT ,
     1287    12326                          ASN  = FILE ,
     1288    12327                          DCB = M$WSN ,
     1289    12328                          ACS = DIRECT ,
PL6.E3A0      #006=ASW$WSN_IO File=ASB$FILES.:E05TSI                             TUE 07/29/97 09:20 Page:257
     1290    12329                          ORG = KEYED ,
     1291    12330                          ACSVEH = VLP_ATTR ,
     1292    12331                          ACCESS = VLP_ATTR_ACC ,
     1293    12332                          FUN = CREATE ,
     1294    12333                          IXTNSIZE = 8 ,
     1295    12334                          XTNSIZE = 8 ,
     1296    12335                          EXIST = OLDFILE) ;
     1297    12444              %FPT_OPEN (FPTN=OPEN_UP_FPT ,
     1298    12445                          NAME = FILE_NAME ,
     1299    12446                          ACCT = FILE_ACCT ,
     1300    12447                          ASN  = FILE ,
     1301    12448                          DCB = M$WSN ,
     1302    12449                          ACS = DIRECT ,
     1303    12450                          ORG = KEYED ,
     1304    12451                          FUN = UPDATE ,
     1305    12452                          SHARE = ALL) ;
     1306    12561              %FPT_CLOSE  (FPTN = CLOSE_FPT ,
     1307    12562                           DCB = M$WSN ,
     1308    12563                           DISP = SAVE) ;
     1309    12605              %FPT_ENQ (  FPTN = FPT_ENQ ,
     1310    12606                          DCB = M$WSN ,
     1311    12607                          SHARE = NONE ) ;
     1312    12625              %FPT_DEQ (  FPTN = FPT_DEQ ,
     1313    12626                          DCB = M$WSN ) ;
     1314    12643              %FPT_READ  (FPTN = READ_FPT ,
     1315    12644                          DCB = M$WSN ,
     1316    12645                          KEYS = YES) ;
     1317    12684              %FPT_WRITE  (FPTN = WRITE_FPT ,
     1318    12685                           ONEWKEY = YES ,
     1319    12686                           DCB = M$WSN) ;
     1320    12717              %FPT_DELREC  (FPTN = DELREC_FPT ,
     1321    12718                            DCB = M$WSN) ;
     1322    12737              %FPT_PRECORD  (FPTN = PREC_FPT ,
     1323    12738                             DCB = M$WSN ,
     1324    12739                             KEYS = YES ,
     1325    12740                             N = 0 ) ;
     1326    12761              %FPT_READ    (FPTN = READ_SEQ_FPT ,
PL6.E3A0      #006=ASW$WSN_IO File=ASB$FILES.:E05TSI                             TUE 07/29/97 09:20 Page:258
     1327    12762                            DCB = M$WSN ,
     1328    12763                            KEYR = YES ,
     1329    12764                            KEYS = NO ) ;
     1330    12803              %FPT_PFIL    (FPTN = PFIL_FPT ,
     1331    12804                            DCB = M$WSN ,
     1332    12805                            BOF = YES ) ;
     1333    12820              %FPT_PRECORD (FPTN = PREC_AND_SKIP_FPT ,
     1334    12821                            DCB  = M$WSN,
     1335    12822                            KEY  = USERS_KEY,
     1336    12823                            KEYS = YES,
     1337    12824                            KEYR = YES,
     1338    12825                            N    = 1 ) ;
     1339    12846
     1340    12847
     1341    12848        /*********************************************************************/
     1342    12849        /*   Vlps            vlps            vlps            vlps            */
     1343    12850        /*********************************************************************/
     1344    12851
     1345    12852              %VLP_NAME( FPTN=FILE_NAME, NAME=':WSN' );
     1346    12879              %VLP_ATTR ;
     1347    12893              %VLP_ACSVEH(  UPD = YES ,
     1348    12894                            READ = YES ,
     1349    12895                            DELR = YES ,
     1350    12896                            WNEW = YES ,
     1351    12897                            VEHICLE = 'SUPER' ) ;
     1352    12914              %VLP_ACSVEH(  UPD = YES ,
     1353    12915                            READ = YES ,
     1354    12916                            VEHICLE = 'IBEX' ) ;
     1355    12933              %VLP_ACSVEH(  READ = YES ,
     1356    12934                            VEHICLE = 'LOGON' ) ;
     1357    12951              %VLP_ACSVEH(  READ = YES ,
     1358    12952                            VEHICLE = 'PRESCAN' ,
     1359    12953                            LAST=";") ;
     1360    12970              %VLP_ATTR(  FPTN = VLP_ATTR_ACC ) ;
     1361    12984              %VLP_ACCESS(  EXEC = YES ,
     1362    12985                            READ = YES ,
     1363    12986                            ACCT = '?' ,
PL6.E3A0      #006=ASW$WSN_IO File=ASB$FILES.:E05TSI                             TUE 07/29/97 09:20 Page:259
     1364    12987                            LAST=";") ;
     1365    13004
     1366    13005        /*********************************************************************/
     1367    13006        /*   Based data      based data      based data      based data      */
     1368    13007        /*********************************************************************/
     1369    13008
     1370    13009              %F$DCB( DCBN = F$DCB ) ;
     1371    13066
     1372    13067        /*********************************************************************/
     1373    13068        /*   Dcbs            dcbs            dcbs            dcbs            */
     1374    13069        /*********************************************************************/
     1375    13070
     1376    13071    1   DCL M$WSN DCB ;                                      /*  Read-write :WSN record */
     1377    13072
     1378    13073        %EJECT;
PL6.E3A0      #006=ASW$WSN_IO File=ASB$FILES.:E05TSI                             TUE 07/29/97 09:20 Page:260
     1379    13074        /********************************************************************/
     1380    13075        /*   Procedure       procedure       procedure       procedure       */
     1381    13076        /*********************************************************************/
     1382    13077
     1383    13078
     1384    13079    1   ASW$READ_WSN: ENTRY( BUF$, ARS ) ALTRET;
     1385    13080
     1386    13081    1   READ_FPT.BUF_.BUF$ = BUF$ ;
     1387    13082    1   READ_FPT.BUF_.BOUND = ARS - 1 ;
     1388    13083    1   READ_FPT.KEY_ = VECTOR( USERS_KEY ) ;
     1389    13084    1   CALL M$READ (READ_FPT) ALTRET(IO_ERR) ;
     1390    13085    1   ARS = DCBADDR(DCBNUM(M$WSN)) -> F$DCB.ARS# ;
     1391    13086    1   RETURN ;
     1392    13087
     1393    13088
     1394    13089    1   ASW$WRITE_WSN: ENTRY ( BUF$, ARS) ALTRET ;
     1395    13090
     1396    13091    1   WRITE_FPT.BUF_.BUF$ = BUF$ ;
     1397    13092    1   WRITE_FPT.BUF_.BOUND = ARS - 1 ;
     1398    13093    1   WRITE_FPT.KEY_ = VECTOR( USERS_KEY ) ;
     1399    13094    1   CALL M$WRITE (WRITE_FPT) ALTRET(IO_ERR) ;
     1400    13095    1   RETURN ;
     1401    13096
     1402    13097
     1403    13098    1   ASW$DELREC_WSN: ENTRY   ALTRET ;
     1404    13099
     1405    13100    1   DELREC_FPT.KEY_ = VECTOR( USERS_KEY ) ;
     1406    13101    1   CALL M$DELREC (DELREC_FPT) ALTRET(IO_ERR) ;
     1407    13102    1   RETURN ;
     1408    13103
     1409    13104
     1410    13105    1   ASW$PREC_WSN: ENTRY  ALTRET ;
     1411    13106
     1412    13107    1   PREC_FPT.KEY_ = VECTOR( USERS_KEY ) ;
     1413    13108    1   CALL M$PRECORD (PREC_FPT) ALTRET(IO_ERR) ;
     1414    13109    1   RETURN ;
     1415    13110
PL6.E3A0      #006=ASW$WSN_IO File=ASB$FILES.:E05TSI                             TUE 07/29/97 09:20 Page:261
     1416    13111
     1417    13112    1   ASW$PREC_AND_SKIP_WSN: ENTRY  ALTRET ;
     1418    13113
     1419    13114    1   CALL M$PRECORD( PREC_AND_SKIP_FPT ) ALTRET( IO_ERR ) ;
     1420    13115    1   RETURN ;
     1421    13116
     1422    13117    1   ASW$OPEN_WSN_CR: ENTRY ALTRET;
     1423    13118
     1424    13119    1   CALL M$OPEN (OPEN_CR_FPT) ALTRET(IO_ERR) ;
     1425    13120    1   RETURN ;
     1426    13121
     1427    13122
     1428    13123    1   ASW$OPEN_WSN_UP: ENTRY ALTRET;
     1429    13124
     1430    13125    1   CALL M$OPEN (OPEN_UP_FPT) ALTRET(IO_ERR) ;
     1431    13126    1   RETURN ;
     1432    13127
     1433    13128
     1434    13129    1   ASW$CLOSE_WSN: ENTRY ALTRET;
     1435    13130
     1436    13131    1   CALL M$CLOSE (CLOSE_FPT) ;
     1437    13132    1   RETURN ;
     1438    13133
     1439    13134
     1440    13135    1   ASW$READ_WSN_SEQ: ENTRY ( BUF$, ARS) ALTRET ;
     1441    13136
     1442    13137    1   READ_SEQ_FPT.BUF_.BUF$ = BUF$ ;
     1443    13138    1   READ_SEQ_FPT.BUF_.BOUND = ARS - 1 ;
     1444    13139    1   READ_SEQ_FPT.KEY_ = VECTOR( USERS_KEY ) ;
     1445    13140    1   CALL M$READ(READ_SEQ_FPT) ALTRET (IO_ERR) ;
     1446    13141    1   ARS = DCBADDR(DCBNUM(M$WSN)) -> F$DCB.ARS# ;
     1447    13142    1   RETURN ;
     1448    13143
     1449    13144
     1450    13145    1   ASW$BOF_WSN: ENTRY ALTRET;
     1451    13146
     1452    13147    1   CALL M$PFIL(PFIL_FPT) ALTRET(IO_ERR) ;
PL6.E3A0      #006=ASW$WSN_IO File=ASB$FILES.:E05TSI                             TUE 07/29/97 09:20 Page:262
     1453    13148    1   RETURN ;
     1454    13149
     1455    13150
     1456    13151    1   ASW$ENQ_WSN: ENTRY ALTRET ;
     1457    13152
     1458    13153    1   FPT_ENQ.RNAME_ = VECTOR( USERS_KEY ) ;
     1459    13154    1   CALL M$ENQ( FPT_ENQ ) ALTRET( IO_ERR ) ;
     1460    13155    1   RETURN ;
     1461    13156
     1462    13157
     1463    13158    1   ASW$DEQ_WSN: ENTRY ALTRET ;
     1464    13159
     1465    13160    1   CALL M$DEQ( FPT_DEQ ) ALTRET( IO_ERR ) ;
     1466    13161    1   RETURN ;
     1467    13162
     1468    13163    1   IO_ERR:
     1469    13164    1   ERR_CODE = B$TCB$ -> B$TCB.ALT$ -> B$ALT.ERR ;
     1470    13165    1   AS_DCBNUM# = DCBNUM( M$WSN );
     1471    13166    1   ALTRETURN ;
     1472    13167
     1473    13168    1   END   ASW$WSN_IO ;

PL6.E3A0      #006=ASW$WSN_IO File=ASB$FILES.:E05TSI                             TUE 07/29/97 09:20 Page:263
--  Include file information  --

   AS_SUPER_R.:E05TOU  cannot be made into a system file and is referenced.
   XU_FORMAT_C.:E05TOU  is referenced.
   XU_MACRO_C.:E05TOU  is referenced.
   KL_SUPER_C.:E05TOU  is referenced.
   AS_MAC_C.:E05TOU  cannot be made into a system file and is referenced.
   AS_SUBS_C.:E05TOU  is referenced.
   AS_SUPER_C.:E05TOU  is referenced.
   AS_ENTRIES_M.:E05TOU  is referenced.
   CP_6.:E05TOU  cannot be made into a system file and is referenced.
   B$JIT_C.:E05TOU  was found in the system file and is never referenced.
   CP_6_C.:E05TOU  was found in the system file and is referenced.
      No diagnostics issued in procedure ASW$WSN_IO.

   Procedure ASW$WSN_IO requires 149 words for executable code.
   Procedure ASW$WSN_IO requires 8 words of local(AUTO) storage.

    No errors detected in file ASB$FILES.:E05TSI    .

PL6.E3A0      #006=ASW$WSN_IO File=ASB$FILES.:E05TSI                             TUE 07/29/97 09:20 Page:264

 Object Unit name= ASW$WSN_IO                                 File name= ASB$FILES.:E05TOU
 UTS= JUL 29 '97 09:20:08.04 TUE                              Compiler= PL-6/E31         Sev=      00
 SharedLib= :SHARED_SYSTEM                                    Alt SharedLib=


    ****  Control sections  ****

 Sect   Type Bound  Init  Size OctSiz  Section name(segment info)
    0   DCB   even  none     0      0  M$UC
    1   DCB   even  none     0      0  M$LO
    2   Data  even  none   254    376  ASW$WSN_IO
    3   DCB   even  none     0      0  M$WSN
    4   Proc  even  none   149    225  ASW$WSN_IO
    5  RoData even  none     3      3  ASW$WSN_IO

    ****  Entry defs  ****

                              Check   Calling
                             calling  sequence
  Sect OctLoc Primary Altret sequence   type   Parms  Name
     4      0   yes    yes     yes      Std        2  ASW$WSN_IO
     4      3          yes     yes      Std        2  ASW$READ_WSN
     4     35          yes     yes      Std        2  ASW$WRITE_WSN
     4     60          yes     yes      Std        0  ASW$DELREC_WSN
     4     71          yes     yes      Std        0  ASW$PREC_WSN
     4    102          yes     yes      Std        0  ASW$PREC_AND_SKIP_WSN
     4    111          yes     yes      Std        0  ASW$OPEN_WSN_CR
     4    120          yes     yes      Std        0  ASW$OPEN_WSN_UP
     4    127          yes     yes      Std        0  ASW$CLOSE_WSN
     4    135          yes     yes      Std        2  ASW$READ_WSN_SEQ
     4    167          yes     yes      Std        0  ASW$BOF_WSN
     4    176          yes     yes      Std        0  ASW$ENQ_WSN
     4    207          yes     yes      Std        0  ASW$DEQ_WSN
PL6.E3A0      #006=ASW$WSN_IO File=ASB$FILES.:E05TSI                             TUE 07/29/97 09:20 Page:265

  ****  Entry refs  ****

         Check        Calling
        calling       sequence
Altret sequence SRef   type   Args  Name
         yes          ~proc      0 XU_OUTPUT_OPTIONS
                       nStd      0 X66_AUTO_2
                       Std       0 B_CONSPOOL_D
                       nStd      0 X66_ARET
                       nStd      0 X66_AALT

  ****  Data refs  ****

  Flags:  r = read only, s = secondary
Flgs Name                             Flgs Name                             Flgs Name
     M$UC                             r    AS_MODE                          r    AS_FE_MODE
     M$LO                                  USERS_KEY                             ERR_CODE
     REMEM_VAR                             REM_FCMD                              ASA_BRKS_LOC
     FILE_ACCT                             AS_DCBNUM#                            B$TCB$
     M$WSN                                 B_VECTNIL

  ****  Segment refs  ****

  Flags:  r = read only, s = secondary
Flgs Name                             Flgs Name                             Flgs Name
     ISSID                                 NULLSID                               ROSID
PL6.E3A0      #006=ASW$WSN_IO File=ASB$FILES.:E05TSI                             TUE 07/29/97 09:20 Page:266


     1210        1        /*T***********************************************************/
     1211        2        /*T*                                                         */
     1212        3        /*T* Copyright (c) Bull HN Information Systems Inc., 1997    */
     1213        4        /*T*                                                         */
     1214        5        /*T***********************************************************/
     1215        6        %EJECT;
PL6.E3A0      #006=ASW$WSN_IO File=ASB$FILES.:E05TSI                             TUE 07/29/97 09:20 Page:267
     1216        7        /*P*  NAME:       ASW$WSN_IO
     1217        8              PURPOSE:    Manage the :WSN file.
     1218        9              DESCRIPTION:
     1219       10                  This procedure has 11 entries:
     1220       11
     1221       12                  ASW$READ_WSN            - reads a record from :WSN by key.
     1222       13                  ASW$WRITE_WSN           - writes a record to :WSN.
     1223       14                  ASW$DELREC_WSN          - deletes a record from :WSN.
     1224       15                  ASW$PREC_WSN            - positions to a record in :WSN.
     1225       16                  ASW$OPEN_WSN_CR         - creates :WSN
     1226       17                  ASW$OPEN_WSN_UP         - opens :WSN update
     1227       18                  ASW$CLOSE_WSN           - closes :WSN
     1228       19                  ASW$READ_WSN_SEQ        - reads a record from :WSN sequentially.
     1229       20                  ASW$BOF_WSN             - postions to the beginning of :WSN
     1230       21                  ASW$ENQ_WSN             - enques a record in :WSN
     1231       22                  ASW$DEQ_WSN             - deques a record in :WSN
     1232       23        */
     1233       24
     1234       25
     1235       26        ASW$WSN_IO: PROC ( BUF$, ARS) ALTRET ;

     26  4 000000   000000 700200 xent  ASW$WSN_IO   TSX0  ! X66_AUTO_2
         4 000001   000010 000002                    ZERO    8,2
         4 000002   000005 710000 4                  TRA     s:13081

     1236       27
     1237       28
     1238       29        /*********************************************************************/
     1239       30        /*   Include files   include files   include files   include files   */
     1240       31        /*********************************************************************/
     1241       32
     1242       33        %INCLUDE CP_6 ;
     1243      114              %INCLUDE AS_ENTRIES_M ;
     1244     1164              %INCLUDE AS_SUPER_C ;
     1245     1599              %INCLUDE AS_SUBS_C ;
     1246     3013              %INCLUDE AS_MAC_C ;
     1247     3093              %INCLUDE KL_SUPER_C ;
PL6.E3A0      #006=ASW$WSN_IO File=ASB$FILES.:E05TSI                             TUE 07/29/97 09:20 Page:268
     1248     5995              %INCLUDE XU_MACRO_C ;
     1249     9101              %INCLUDE XU_FORMAT_C ;
     1250     9263              %INCLUDE AS_SUPER_R ;
     1251    12279
     1252    12280        /*********************************************************************/
     1253    12281        /*   Entry dcls      entry dcls      entry dcls      entry dcls      */
     1254    12282        /*********************************************************************/
     1255    12283        %ASH$ERROR;
     1256    12286        /*********************************************************************/
     1257    12287        /*   Local based     local based     local based     local based     */
     1258    12288        /*********************************************************************/
     1259    12289
     1260    12290              %B$ALT ;
     1261    12298              %B$TCB ;
     1262    12301
     1263    12302        /*********************************************************************/
     1264    12303        /*   Symref's        symref's        symref's        symref's        */
     1265    12304        /*********************************************************************/
     1266    12305
     1267    12306    1   DCL B$TCB$ PTR SYMREF ;
     1268    12307
     1269    12308        /*********************************************************************/
     1270    12309        /*   Parameters      parameters      parameters      parameters      */
     1271    12310        /*********************************************************************/
     1272    12311
     1273    12312    1   DCL 1 KEY,
     1274    12313    1          2 CNT UBIN BYTE UNAL,
     1275    12314    1          2 TEXT CHAR(9);
     1276    12315    1   DCL BUF$ PTR ;
     1277    12316    1   DCL ARS UBIN WORD ;
     1278    12317
     1279    12318
     1280    12319        /*********************************************************************/
     1281    12320        /*   Fpts            fpts            fpts            fpts            */
     1282    12321        /*********************************************************************/
     1283    12322
     1284    12323              %FPT_OPEN (FPTN=OPEN_CR_FPT ,
PL6.E3A0      #006=ASW$WSN_IO File=ASB$FILES.:E05TSI                             TUE 07/29/97 09:20 Page:269
     1285    12324                          NAME = FILE_NAME ,
     1286    12325                          ACCT = FILE_ACCT ,
     1287    12326                          ASN  = FILE ,
     1288    12327                          DCB = M$WSN ,
     1289    12328                          ACS = DIRECT ,
     1290    12329                          ORG = KEYED ,
     1291    12330                          ACSVEH = VLP_ATTR ,
     1292    12331                          ACCESS = VLP_ATTR_ACC ,
     1293    12332                          FUN = CREATE ,
     1294    12333                          IXTNSIZE = 8 ,
     1295    12334                          XTNSIZE = 8 ,
     1296    12335                          EXIST = OLDFILE) ;
     1297    12444              %FPT_OPEN (FPTN=OPEN_UP_FPT ,
     1298    12445                          NAME = FILE_NAME ,
     1299    12446                          ACCT = FILE_ACCT ,
     1300    12447                          ASN  = FILE ,
     1301    12448                          DCB = M$WSN ,
     1302    12449                          ACS = DIRECT ,
     1303    12450                          ORG = KEYED ,
     1304    12451                          FUN = UPDATE ,
     1305    12452                          SHARE = ALL) ;
     1306    12561              %FPT_CLOSE  (FPTN = CLOSE_FPT ,
     1307    12562                           DCB = M$WSN ,
     1308    12563                           DISP = SAVE) ;
     1309    12605              %FPT_ENQ (  FPTN = FPT_ENQ ,
     1310    12606                          DCB = M$WSN ,
     1311    12607                          SHARE = NONE ) ;
     1312    12625              %FPT_DEQ (  FPTN = FPT_DEQ ,
     1313    12626                          DCB = M$WSN ) ;
     1314    12643              %FPT_READ  (FPTN = READ_FPT ,
     1315    12644                          DCB = M$WSN ,
     1316    12645                          KEYS = YES) ;
     1317    12684              %FPT_WRITE  (FPTN = WRITE_FPT ,
     1318    12685                           ONEWKEY = YES ,
     1319    12686                           DCB = M$WSN) ;
     1320    12717              %FPT_DELREC  (FPTN = DELREC_FPT ,
     1321    12718                            DCB = M$WSN) ;
PL6.E3A0      #006=ASW$WSN_IO File=ASB$FILES.:E05TSI                             TUE 07/29/97 09:20 Page:270
     1322    12737              %FPT_PRECORD  (FPTN = PREC_FPT ,
     1323    12738                             DCB = M$WSN ,
     1324    12739                             KEYS = YES ,
     1325    12740                             N = 0 ) ;
     1326    12761              %FPT_READ    (FPTN = READ_SEQ_FPT ,
     1327    12762                            DCB = M$WSN ,
     1328    12763                            KEYR = YES ,
     1329    12764                            KEYS = NO ) ;
     1330    12803              %FPT_PFIL    (FPTN = PFIL_FPT ,
     1331    12804                            DCB = M$WSN ,
     1332    12805                            BOF = YES ) ;
     1333    12820              %FPT_PRECORD (FPTN = PREC_AND_SKIP_FPT ,
     1334    12821                            DCB  = M$WSN,
     1335    12822                            KEY  = USERS_KEY,
     1336    12823                            KEYS = YES,
     1337    12824                            KEYR = YES,
     1338    12825                            N    = 1 ) ;
     1339    12846
     1340    12847
     1341    12848        /*********************************************************************/
     1342    12849        /*   Vlps            vlps            vlps            vlps            */
     1343    12850        /*********************************************************************/
     1344    12851
     1345    12852              %VLP_NAME( FPTN=FILE_NAME, NAME=':WSN' );
     1346    12879              %VLP_ATTR ;
     1347    12893              %VLP_ACSVEH(  UPD = YES ,
     1348    12894                            READ = YES ,
     1349    12895                            DELR = YES ,
     1350    12896                            WNEW = YES ,
     1351    12897                            VEHICLE = 'SUPER' ) ;
     1352    12914              %VLP_ACSVEH(  UPD = YES ,
     1353    12915                            READ = YES ,
     1354    12916                            VEHICLE = 'IBEX' ) ;
     1355    12933              %VLP_ACSVEH(  READ = YES ,
     1356    12934                            VEHICLE = 'LOGON' ) ;
     1357    12951              %VLP_ACSVEH(  READ = YES ,
     1358    12952                            VEHICLE = 'PRESCAN' ,
PL6.E3A0      #006=ASW$WSN_IO File=ASB$FILES.:E05TSI                             TUE 07/29/97 09:20 Page:271
     1359    12953                            LAST=";") ;
     1360    12970              %VLP_ATTR(  FPTN = VLP_ATTR_ACC ) ;
     1361    12984              %VLP_ACCESS(  EXEC = YES ,
     1362    12985                            READ = YES ,
     1363    12986                            ACCT = '?' ,
     1364    12987                            LAST=";") ;
     1365    13004
     1366    13005        /*********************************************************************/
     1367    13006        /*   Based data      based data      based data      based data      */
     1368    13007        /*********************************************************************/
     1369    13008
     1370    13009              %F$DCB( DCBN = F$DCB ) ;
     1371    13066
     1372    13067        /*********************************************************************/
     1373    13068        /*   Dcbs            dcbs            dcbs            dcbs            */
     1374    13069        /*********************************************************************/
     1375    13070
     1376    13071    1   DCL M$WSN DCB ;                                      /*  Read-write :WSN record */
     1377    13072
     1378    13073        %EJECT;
PL6.E3A0      #006=ASW$WSN_IO File=ASB$FILES.:E05TSI                             TUE 07/29/97 09:20 Page:272
     1379    13074        /********************************************************************/
     1380    13075        /*   Procedure       procedure       procedure       procedure       */
     1381    13076        /*********************************************************************/
     1382    13077
     1383    13078
     1384    13079    1   ASW$READ_WSN: ENTRY( BUF$, ARS ) ALTRET;

  13079  4 000003   000000 700200 xent  ASW$READ_WSN TSX0  ! X66_AUTO_2
         4 000004   000010 000002                    ZERO    8,2

     1385    13080
     1386    13081    1   READ_FPT.BUF_.BUF$ = BUF$ ;

  13081  4 000005   200003 470500                    LDP0    @BUF$,,AUTO
         4 000006   000000 236100                    LDQ     0,,PR0
         4 000007   000251 756000 2                  STQ     READ_FPT+5

     1387    13082    1   READ_FPT.BUF_.BOUND = ARS - 1 ;

  13082  4 000010   200004 471500                    LDP1    @ARS,,AUTO
         4 000011   100000 236100                    LDQ     0,,PR1
         4 000012   000001 136007                    SBLQ    1,DL
         4 000013   000020 736000                    QLS     16
         4 000014   000250 676000 2                  ERQ     READ_FPT+4
         4 000015   000034 376000 xsym               ANQ     B_VECTNIL+28
         4 000016   000250 656000 2                  ERSQ    READ_FPT+4

     1388    13083    1   READ_FPT.KEY_ = VECTOR( USERS_KEY ) ;

  13083  4 000017   000000 237000 5                  LDAQ    0
         4 000020   000246 757000 2                  STAQ    READ_FPT+2

     1389    13084    1   CALL M$READ (READ_FPT) ALTRET(IO_ERR) ;

  13084  4 000021   000244 630400 2                  EPPR0   READ_FPT
         4 000022   440000 713400                    CLIMB   alt,read
         4 000023   401400 401760                    pmme    nvectors=4
PL6.E3A0      #006=ASW$WSN_IO File=ASB$FILES.:E05TSI                             TUE 07/29/97 09:20 Page:273
         4 000024   000216 702000 4                  TSX2    IO_ERR

     1390    13085    1   ARS = DCBADDR(DCBNUM(M$WSN)) -> F$DCB.ARS# ;

  13085  4 000025   000000 236007 xsym               LDQ     M$WSN,DL
         4 000026   000002 470400 5                  LDP0    2
         4 000027   000000 471500                    LDP1    0,,PR0
         4 000030   100000 473506                    LDP3    0,QL,PR1
         4 000031   300000 235100                    LDA     0,,PR3
         4 000032   200004 473500                    LDP3    @ARS,,AUTO
         4 000033   300000 755100                    STA     0,,PR3

     1391    13086    1   RETURN ;

  13086  4 000034   000000 702200 xent               TSX2  ! X66_ARET

     1392    13087
     1393    13088
     1394    13089    1   ASW$WRITE_WSN: ENTRY ( BUF$, ARS) ALTRET ;

  13089  4 000035   000000 700200 xent  ASW$WRITE_W* TSX0  ! X66_AUTO_2
         4 000036   000010 000002                    ZERO    8,2

     1395    13090
     1396    13091    1   WRITE_FPT.BUF_.BUF$ = BUF$ ;

  13091  4 000037   200003 470500                    LDP0    @BUF$,,AUTO
         4 000040   000000 236100                    LDQ     0,,PR0
         4 000041   000267 756000 2                  STQ     WRITE_FPT+5

     1397    13092    1   WRITE_FPT.BUF_.BOUND = ARS - 1 ;

  13092  4 000042   200004 471500                    LDP1    @ARS,,AUTO
         4 000043   100000 236100                    LDQ     0,,PR1
         4 000044   000001 136007                    SBLQ    1,DL
         4 000045   000020 736000                    QLS     16
         4 000046   000266 676000 2                  ERQ     WRITE_FPT+4
PL6.E3A0      #006=ASW$WSN_IO File=ASB$FILES.:E05TSI                             TUE 07/29/97 09:20 Page:274
         4 000047   000034 376000 xsym               ANQ     B_VECTNIL+28
         4 000050   000266 656000 2                  ERSQ    WRITE_FPT+4

     1398    13093    1   WRITE_FPT.KEY_ = VECTOR( USERS_KEY ) ;

  13093  4 000051   000000 237000 5                  LDAQ    0
         4 000052   000264 757000 2                  STAQ    WRITE_FPT+2

     1399    13094    1   CALL M$WRITE (WRITE_FPT) ALTRET(IO_ERR) ;

  13094  4 000053   000262 630400 2                  EPPR0   WRITE_FPT
         4 000054   440001 713400                    CLIMB   alt,write
         4 000055   401400 401760                    pmme    nvectors=4
         4 000056   000216 702000 4                  TSX2    IO_ERR

     1400    13095    1   RETURN ;

  13095  4 000057   000000 702200 xent               TSX2  ! X66_ARET

     1401    13096
     1402    13097
     1403    13098    1   ASW$DELREC_WSN: ENTRY   ALTRET ;

  13098  4 000060   000000 700200 xent  ASW$DELREC_* TSX0  ! X66_AUTO_2
         4 000061   000010 000002                    ZERO    8,2

     1404    13099
     1405    13100    1   DELREC_FPT.KEY_ = VECTOR( USERS_KEY ) ;

  13100  4 000062   000000 237000 5                  LDAQ    0
         4 000063   000300 757000 2                  STAQ    DELREC_FPT+2

     1406    13101    1   CALL M$DELREC (DELREC_FPT) ALTRET(IO_ERR) ;

  13101  4 000064   000276 630400 2                  EPPR0   DELREC_FPT
         4 000065   440002 713400                    CLIMB   alt,+16386
         4 000066   401400 401760                    pmme    nvectors=4
PL6.E3A0      #006=ASW$WSN_IO File=ASB$FILES.:E05TSI                             TUE 07/29/97 09:20 Page:275
         4 000067   000216 702000 4                  TSX2    IO_ERR

     1407    13102    1   RETURN ;

  13102  4 000070   000000 702200 xent               TSX2  ! X66_ARET

     1408    13103
     1409    13104
     1410    13105    1   ASW$PREC_WSN: ENTRY  ALTRET ;

  13105  4 000071   000000 700200 xent  ASW$PREC_WSN TSX0  ! X66_AUTO_2
         4 000072   000010 000002                    ZERO    8,2

     1411    13106
     1412    13107    1   PREC_FPT.KEY_ = VECTOR( USERS_KEY ) ;

  13107  4 000073   000000 237000 5                  LDAQ    0
         4 000074   000312 757000 2                  STAQ    PREC_FPT+2

     1413    13108    1   CALL M$PRECORD (PREC_FPT) ALTRET(IO_ERR) ;

  13108  4 000075   000310 630400 2                  EPPR0   PREC_FPT
         4 000076   440003 713400                    CLIMB   alt,+16387
         4 000077   401000 401760                    pmme    nvectors=3
         4 000100   000216 702000 4                  TSX2    IO_ERR

     1414    13109    1   RETURN ;

  13109  4 000101   000000 702200 xent               TSX2  ! X66_ARET

     1415    13110
     1416    13111
     1417    13112    1   ASW$PREC_AND_SKIP_WSN: ENTRY  ALTRET ;

  13112  4 000102   000000 700200 xent  ASW$PREC_AN* TSX0  ! X66_AUTO_2
         4 000103   000010 000002                    ZERO    8,2

PL6.E3A0      #006=ASW$WSN_IO File=ASB$FILES.:E05TSI                             TUE 07/29/97 09:20 Page:276
     1418    13113
     1419    13114    1   CALL M$PRECORD( PREC_AND_SKIP_FPT ) ALTRET( IO_ERR ) ;

  13114  4 000104   000344 630400 2                  EPPR0   PREC_AND_SKIP_FPT
         4 000105   440003 713400                    CLIMB   alt,+16387
         4 000106   401000 401760                    pmme    nvectors=3
         4 000107   000216 702000 4                  TSX2    IO_ERR

     1420    13115    1   RETURN ;

  13115  4 000110   000000 702200 xent               TSX2  ! X66_ARET

     1421    13116
     1422    13117    1   ASW$OPEN_WSN_CR: ENTRY ALTRET;

  13117  4 000111   000000 700200 xent  ASW$OPEN_WS* TSX0  ! X66_AUTO_2
         4 000112   000010 000002                    ZERO    8,2

     1423    13118
     1424    13119    1   CALL M$OPEN (OPEN_CR_FPT) ALTRET(IO_ERR) ;

  13119  4 000113   000000 630400 2                  EPPR0   OPEN_CR_FPT
         4 000114   450000 713400                    CLIMB   alt,open
         4 000115   410400 401760                    pmme    nvectors=18
         4 000116   000216 702000 4                  TSX2    IO_ERR

     1425    13120    1   RETURN ;

  13120  4 000117   000000 702200 xent               TSX2  ! X66_ARET

     1426    13121
     1427    13122
     1428    13123    1   ASW$OPEN_WSN_UP: ENTRY ALTRET;

  13123  4 000120   000000 700200 xent  ASW$OPEN_WS* TSX0  ! X66_AUTO_2
         4 000121   000010 000002                    ZERO    8,2

PL6.E3A0      #006=ASW$WSN_IO File=ASB$FILES.:E05TSI                             TUE 07/29/97 09:20 Page:277
     1429    13124
     1430    13125    1   CALL M$OPEN (OPEN_UP_FPT) ALTRET(IO_ERR) ;

  13125  4 000122   000072 630400 2                  EPPR0   OPEN_UP_FPT
         4 000123   450000 713400                    CLIMB   alt,open
         4 000124   410400 401760                    pmme    nvectors=18
         4 000125   000216 702000 4                  TSX2    IO_ERR

     1431    13126    1   RETURN ;

  13126  4 000126   000000 702200 xent               TSX2  ! X66_ARET

     1432    13127
     1433    13128
     1434    13129    1   ASW$CLOSE_WSN: ENTRY ALTRET;

  13129  4 000127   000000 700200 xent  ASW$CLOSE_W* TSX0  ! X66_AUTO_2
         4 000130   000010 000002                    ZERO    8,2

     1435    13130
     1436    13131    1   CALL M$CLOSE (CLOSE_FPT) ;

  13131  4 000131   000164 630400 2                  EPPR0   CLOSE_FPT
         4 000132   050001 713400                    CLIMB   close
         4 000133   406000 401760                    pmme    nvectors=13

     1437    13132    1   RETURN ;

  13132  4 000134   000000 702200 xent               TSX2  ! X66_ARET

     1438    13133
     1439    13134
     1440    13135    1   ASW$READ_WSN_SEQ: ENTRY ( BUF$, ARS) ALTRET ;

  13135  4 000135   000000 700200 xent  ASW$READ_WS* TSX0  ! X66_AUTO_2
         4 000136   000010 000002                    ZERO    8,2

PL6.E3A0      #006=ASW$WSN_IO File=ASB$FILES.:E05TSI                             TUE 07/29/97 09:20 Page:278
     1441    13136
     1442    13137    1   READ_SEQ_FPT.BUF_.BUF$ = BUF$ ;

  13137  4 000137   200003 470500                    LDP0    @BUF$,,AUTO
         4 000140   000000 236100                    LDQ     0,,PR0
         4 000141   000327 756000 2                  STQ     READ_SEQ_FPT+5

     1443    13138    1   READ_SEQ_FPT.BUF_.BOUND = ARS - 1 ;

  13138  4 000142   200004 471500                    LDP1    @ARS,,AUTO
         4 000143   100000 236100                    LDQ     0,,PR1
         4 000144   000001 136007                    SBLQ    1,DL
         4 000145   000020 736000                    QLS     16
         4 000146   000326 676000 2                  ERQ     READ_SEQ_FPT+4
         4 000147   000034 376000 xsym               ANQ     B_VECTNIL+28
         4 000150   000326 656000 2                  ERSQ    READ_SEQ_FPT+4

     1444    13139    1   READ_SEQ_FPT.KEY_ = VECTOR( USERS_KEY ) ;

  13139  4 000151   000000 237000 5                  LDAQ    0
         4 000152   000324 757000 2                  STAQ    READ_SEQ_FPT+2

     1445    13140    1   CALL M$READ(READ_SEQ_FPT) ALTRET (IO_ERR) ;

  13140  4 000153   000322 630400 2                  EPPR0   READ_SEQ_FPT
         4 000154   440000 713400                    CLIMB   alt,read
         4 000155   401400 401760                    pmme    nvectors=4
         4 000156   000216 702000 4                  TSX2    IO_ERR

     1446    13141    1   ARS = DCBADDR(DCBNUM(M$WSN)) -> F$DCB.ARS# ;

  13141  4 000157   000000 236007 xsym               LDQ     M$WSN,DL
         4 000160   000002 470400 5                  LDP0    2
         4 000161   000000 471500                    LDP1    0,,PR0
         4 000162   100000 473506                    LDP3    0,QL,PR1
         4 000163   300000 235100                    LDA     0,,PR3
         4 000164   200004 473500                    LDP3    @ARS,,AUTO
PL6.E3A0      #006=ASW$WSN_IO File=ASB$FILES.:E05TSI                             TUE 07/29/97 09:20 Page:279
         4 000165   300000 755100                    STA     0,,PR3

     1447    13142    1   RETURN ;

  13142  4 000166   000000 702200 xent               TSX2  ! X66_ARET

     1448    13143
     1449    13144
     1450    13145    1   ASW$BOF_WSN: ENTRY ALTRET;

  13145  4 000167   000000 700200 xent  ASW$BOF_WSN  TSX0  ! X66_AUTO_2
         4 000170   000010 000002                    ZERO    8,2

     1451    13146
     1452    13147    1   CALL M$PFIL(PFIL_FPT) ALTRET(IO_ERR) ;

  13147  4 000171   000340 630400 2                  EPPR0   PFIL_FPT
         4 000172   440004 713400                    CLIMB   alt,+16388
         4 000173   400000 401760                    pmme    nvectors=1
         4 000174   000216 702000 4                  TSX2    IO_ERR

     1453    13148    1   RETURN ;

  13148  4 000175   000000 702200 xent               TSX2  ! X66_ARET

     1454    13149
     1455    13150
     1456    13151    1   ASW$ENQ_WSN: ENTRY ALTRET ;

  13151  4 000176   000000 700200 xent  ASW$ENQ_WSN  TSX0  ! X66_AUTO_2
         4 000177   000010 000002                    ZERO    8,2

     1457    13152
     1458    13153    1   FPT_ENQ.RNAME_ = VECTOR( USERS_KEY ) ;

  13153  4 000200   000000 237000 5                  LDAQ    0
         4 000201   000224 757000 2                  STAQ    FPT_ENQ+2
PL6.E3A0      #006=ASW$WSN_IO File=ASB$FILES.:E05TSI                             TUE 07/29/97 09:20 Page:280

     1459    13154    1   CALL M$ENQ( FPT_ENQ ) ALTRET( IO_ERR ) ;

  13154  4 000202   000222 630400 2                  EPPR0   FPT_ENQ
         4 000203   420002 713400                    CLIMB   alt,+8194
         4 000204   401000 401760                    pmme    nvectors=3
         4 000205   000216 702000 4                  TSX2    IO_ERR

     1460    13155    1   RETURN ;

  13155  4 000206   000000 702200 xent               TSX2  ! X66_ARET

     1461    13156
     1462    13157
     1463    13158    1   ASW$DEQ_WSN: ENTRY ALTRET ;

  13158  4 000207   000000 700200 xent  ASW$DEQ_WSN  TSX0  ! X66_AUTO_2
         4 000210   000010 000002                    ZERO    8,2

     1464    13159
     1465    13160    1   CALL M$DEQ( FPT_DEQ ) ALTRET( IO_ERR ) ;

  13160  4 000211   000234 630400 2                  EPPR0   FPT_DEQ
         4 000212   420003 713400                    CLIMB   alt,+8195
         4 000213   401000 401760                    pmme    nvectors=3
         4 000214   000216 702000 4                  TSX2    IO_ERR

     1466    13161    1   RETURN ;

  13161  4 000215   000000 702200 xent               TSX2  ! X66_ARET

     1467    13162
     1468    13163    1   IO_ERR:
     1469    13164    1   ERR_CODE = B$TCB$ -> B$TCB.ALT$ -> B$ALT.ERR ;

  13164  4 000216   000000 470400 xsym  IO_ERR       LDP0    B$TCB$
         4 000217   000000 471500                    LDP1    0,,PR0
PL6.E3A0      #006=ASW$WSN_IO File=ASB$FILES.:E05TSI                             TUE 07/29/97 09:20 Page:281
         4 000220   100102 236100                    LDQ     66,,PR1
         4 000221   000000 756000 xsym               STQ     ERR_CODE

     1470    13165    1   AS_DCBNUM# = DCBNUM( M$WSN );

  13165  4 000222   000000 236007 xsym               LDQ     M$WSN,DL
         4 000223   000000 756000 xsym               STQ     AS_DCBNUM#

     1471    13166    1   ALTRETURN ;

  13166  4 000224   000000 702200 xent               TSX2  ! X66_AALT
     1472    13167
     1473    13168    1   END   ASW$WSN_IO ;

PL6.E3A0      #006=ASW$WSN_IO File=ASB$FILES.:E05TSI                             TUE 07/29/97 09:20 Page:282
--  Include file information  --

   AS_SUPER_R.:E05TOU  cannot be made into a system file and is referenced.
   XU_FORMAT_C.:E05TOU  is referenced.
   XU_MACRO_C.:E05TOU  is referenced.
   KL_SUPER_C.:E05TOU  is referenced.
   AS_MAC_C.:E05TOU  cannot be made into a system file and is referenced.
   AS_SUBS_C.:E05TOU  is referenced.
   AS_SUPER_C.:E05TOU  is referenced.
   AS_ENTRIES_M.:E05TOU  is referenced.
   CP_6.:E05TOU  cannot be made into a system file and is referenced.
   B$JIT_C.:E05TOU  was found in the system file and is never referenced.
   CP_6_C.:E05TOU  was found in the system file and is referenced.
      No diagnostics issued in procedure ASW$WSN_IO.
PL6.E3A0      #006=ASW$WSN_IO File=ASB$FILES.:E05TSI                             TUE 07/29/97 09:20 Page:283

 **** Variables and constants ****

  ****  Section 002  Data  ASW$WSN_IO

  ****  Scalars and arrays  ****
OctLoc.c.b A Datatyp(siz) R M Lvl/name                 OctLoc.c.b A Datatyp(siz) R M Lvl/name

   164-0-0/d STRC(1080)  r     1 CLOSE_FPT                276-0-0/d STRC(360)   r     1 DELREC_FPT
   356-0-0/c STRC(45)    r     1 FILE_NAME                234-0-0/d STRC(288)   r     1 FPT_DEQ
   222-0-0/d STRC(360)   r     1 FPT_ENQ                    0-0-0/d STRC(2088)  r     1 OPEN_CR_FPT
    72-0-0/d STRC(2088)  r     1 OPEN_UP_FPT              340-0-0/d STRC(144)   r     1 PFIL_FPT
   344-0-0/d STRC(360)   r     1 PREC_AND_SKIP_FPT        310-0-0/d STRC(360)   r     1 PREC_FPT
   244-0-0/d STRC(504)   r     1 READ_FPT                 322-0-0/d STRC(504)   r     1 READ_SEQ_FPT
   360-0-0/w STRC(333)   r     1 VLP_ATTR                 372-0-0/w STRC(126)   r     1 VLP_ATTR_ACC
   262-0-0/d STRC(432)   r     1 WRITE_FPT

  ****  Auto variables  ****

  ****  Scalars and arrays  ****
OctLoc.c.b A Datatyp(siz) R M Lvl/name                 OctLoc.c.b A Datatyp(siz) R M Lvl/name

     4-0-0/w PTR         r     1 @ARS                       3-0-0/w PTR         r     1 @BUF$
    *0-0-0/w UBIN        r     1 ARS                       *0-0-0/w PTR         r     1 BUF$

  ****  SYMREF variables  ****

  ****  Scalars and arrays  ****
OctLoc.c.b A Datatyp(siz) R M Lvl/name                 OctLoc.c.b A Datatyp(siz) R M Lvl/name

     0-0-0/w UBIN        r     1 AS_DCBNUM#                 0-0-0/w PTR         r     1 B$TCB$
     0-0-0/b STRC        r     1 ERR_CODE                   0-0-0/c STRC(72)    r     1 FILE_ACCT
     0-0-0/c STRC(378)   r     1 USERS_KEY

  ****  BASED and DCB variables  ****

  ****  Scalars and arrays  ****
OctLoc.c.b A Datatyp(siz) R M Lvl/name                 OctLoc.c.b A Datatyp(siz) R M Lvl/name
PL6.E3A0      #006=ASW$WSN_IO File=ASB$FILES.:E05TSI                             TUE 07/29/97 09:20 Page:284

     0-0-0/w STRC(2448)  r     1 B$ALT                      0-0-0/w STRC(144)   r     1 B$TCB
     0-0-0/d ASTR(3528)  r     1 F$DCB                      0-0-0N  NULL        r     1 M$WSN


   Procedure ASW$WSN_IO requires 149 words for executable code.
   Procedure ASW$WSN_IO requires 8 words of local(AUTO) storage.

    No errors detected in file ASB$FILES.:E05TSI    .
PL6.E3A0      #006=ASW$WSN_IO File=ASB$FILES.:E05TSI                             TUE 07/29/97 09:20 Page:285
          *** CROSS REFERENCE LISTING ***
**     DENOTES     IDENTIFIER DEFINITION
<<                 IDENTIFIER'S VALUE SET
>>                 IDENTIFIER'S VALUE USED
<>                 IDENTIFIER SET AND/OR USED
--                 IDENTIFIER REFERENCED
PL6.E3A0      #006=ASW$WSN_IO File=ASB$FILES.:E05TSI                             TUE 07/29/97 09:20 Page:286
          MINI XREF LISTING

ARS
     12316**DCL        26--PROC    13079--ENTRY   13082>>ASSIGN  13085<<ASSIGN  13089--ENTRY   13092>>ASSIGN
     13135--ENTRY   13138>>ASSIGN  13141<<ASSIGN
ASA_BRKS_LOC
      9427**DCL      9427--REDEF
AS_DCBNUM#
      9434**DCL     13165<<ASSIGN
AS_DEFAULT.BANNER_PERM
     10120**DCL     10121--REDEF
AS_DEFAULT.BUDGET.MACCT
     10025**DCL     10029--REDEF
AS_DEFAULT.BUDGET.MAX_PROJECTS
     10038**DCL     10041--REDEF
AS_DEFAULT.BUDGET.PACCUM
     10021**DCL     10023--REDEF
AS_DEFAULT.BUDGET.PMAXC
     10016**DCL     10018--REDEF
AS_DEFAULT.SETUP_CHRA.TXT
     10136**DCL     10137--REDEF   10138--REDEF
AS_DEFAULT_DREC.PASSWORD
     11390**DCL     11394--REDEF
AS_DEFAULT_DREC.RENAME
     11413**DCL     11414--REDEF
AS_DFLT.BANNER_PERM
      9942**DCL      9943--REDEF
AS_DFLT.BUDGET.MACCT
      9847**DCL      9851--REDEF
AS_DFLT.BUDGET.MAX_PROJECTS
      9860**DCL      9863--REDEF
AS_DFLT.BUDGET.PACCUM
      9843**DCL      9845--REDEF
AS_DFLT.BUDGET.PMAXC
PL6.E3A0      #006=ASW$WSN_IO File=ASB$FILES.:E05TSI                             TUE 07/29/97 09:20 Page:287
      9838**DCL      9840--REDEF
AS_DFLT.SETUP_CHRA.TXT
      9958**DCL      9959--REDEF    9960--REDEF
AS_FE_MODE
      9293**DCL      9294--REDEF
AS_MODE
      9290**DCL      9292--REDEF
AS_MOD_USER.ACCESS
     12155**DCL     12156--REDEF
AS_MOD_USER.BANNER
     12142**DCL     12143--REDEF
AS_MOD_USER.BANNER_PERM
     12144**DCL     12145--REDEF
AS_MOD_USER.BILL
     12150**DCL     12151--REDEF
AS_MOD_USER.CPROC
     12146**DCL     12147--REDEF
AS_MOD_USER.FEBILL
     12226**DCL     12227--REDEF
AS_MOD_USER.FECXTMEM
     12243**DCL     12244--REDEF
AS_MOD_USER.FEMINTS
     12228**DCL     12229--REDEF
AS_MOD_USER.FEMMEM
     12239**DCL     12240--REDEF
AS_MOD_USER.FEMTIME
     12237**DCL     12238--REDEF
AS_MOD_USER.FEPPRIV
     12234**DCL     12236--REDEF
AS_MOD_USER.FEPRIV
     12231**DCL     12233--REDEF
AS_MOD_USER.FORCE_BIT
     12140**DCL     12141--REDEF
AS_MOD_USER.KEY
     12222**DCL     12224--REDEF
AS_MOD_USER.LASTCPROC
PL6.E3A0      #006=ASW$WSN_IO File=ASB$FILES.:E05TSI                             TUE 07/29/97 09:20 Page:288
     12148**DCL     12149--REDEF
AS_MOD_USER.LIMITS.DO_
     12196**DCL     12197--REDEF
AS_MOD_USER.LIMITS.FPOOLS
     12212**DCL     12213--REDEF
AS_MOD_USER.LIMITS.LO
     12192**DCL     12193--REDEF
AS_MOD_USER.LIMITS.MEM
     12188**DCL     12189--REDEF
AS_MOD_USER.LIMITS.MPRIO
     12216**DCL     12217--REDEF
AS_MOD_USER.LIMITS.PDIS
     12204**DCL     12205--REDEF
AS_MOD_USER.LIMITS.PO
     12200**DCL     12201--REDEF
AS_MOD_USER.LIMITS.TDIS
     12208**DCL     12209--REDEF
AS_MOD_USER.LIMITS.TIME
     12184**DCL     12185--REDEF
AS_MOD_USER.MAXENQ
     12165**DCL     12166--REDEF
AS_MOD_USER.PERM_BIT
     12138**DCL     12139--REDEF
AS_MOD_USER.PPRIV
     12160**DCL     12162--REDEF
AS_MOD_USER.PRIOB
     12167**DCL     12168--REDEF
AS_MOD_USER.PRIV
     12157**DCL     12159--REDEF
AS_MOD_USER.QUAN
     12163**DCL     12164--REDEF
AS_MOD_USER.SETUP
     12136**DCL     12137--REDEF
AS_PROJECT.BANNER_PERM
     10476**DCL     10477--REDEF
AS_PROJECT.BUDGET.MACCT
PL6.E3A0      #006=ASW$WSN_IO File=ASB$FILES.:E05TSI                             TUE 07/29/97 09:20 Page:289
     10381**DCL     10385--REDEF
AS_PROJECT.BUDGET.MAX_PROJECTS
     10394**DCL     10397--REDEF
AS_PROJECT.BUDGET.PACCUM
     10377**DCL     10379--REDEF
AS_PROJECT.BUDGET.PMAXC
     10372**DCL     10374--REDEF
AS_PROJECT.SETUP_CHRA.TXT
     10492**DCL     10493--REDEF   10494--REDEF
AS_PROJECT_DFLT.BANNER_PERM
     10654**DCL     10655--REDEF
AS_PROJECT_DFLT.BUDGET.MACCT
     10559**DCL     10563--REDEF
AS_PROJECT_DFLT.BUDGET.MAX_PROJECTS
     10572**DCL     10575--REDEF
AS_PROJECT_DFLT.BUDGET.PACCUM
     10555**DCL     10557--REDEF
AS_PROJECT_DFLT.BUDGET.PMAXC
     10550**DCL     10552--REDEF
AS_PROJECT_DFLT.SETUP_CHRA.TXT
     10670**DCL     10671--REDEF   10672--REDEF
AS_PROJECT_DFLT_DREC.PASSWORD
     11876**DCL     11880--REDEF
AS_PROJECT_DFLT_DREC.RENAME
     11899**DCL     11900--REDEF
AS_PROJECT_DREC.PASSWORD
     11714**DCL     11718--REDEF
AS_PROJECT_DREC.RENAME
     11737**DCL     11738--REDEF
AS_PROJ_ADMIN.BANNER_PERM
     10298**DCL     10299--REDEF
AS_PROJ_ADMIN.BUDGET.MACCT
     10203**DCL     10207--REDEF
AS_PROJ_ADMIN.BUDGET.MAX_PROJECTS
     10216**DCL     10219--REDEF
AS_PROJ_ADMIN.BUDGET.PACCUM
PL6.E3A0      #006=ASW$WSN_IO File=ASB$FILES.:E05TSI                             TUE 07/29/97 09:20 Page:290
     10199**DCL     10201--REDEF
AS_PROJ_ADMIN.BUDGET.PMAXC
     10194**DCL     10196--REDEF
AS_PROJ_ADMIN.SETUP_CHRA.TXT
     10314**DCL     10315--REDEF   10316--REDEF
AS_PROJ_ADMIN_DREC.PASSWORD
     11552**DCL     11556--REDEF
AS_PROJ_ADMIN_DREC.RENAME
     11575**DCL     11576--REDEF
AS_USERS.BANNER_PERM
      9764**DCL      9765--REDEF
AS_USERS.BUDGET.MACCT
      9669**DCL      9673--REDEF
AS_USERS.BUDGET.MAX_PROJECTS
      9682**DCL      9685--REDEF
AS_USERS.BUDGET.PACCUM
      9665**DCL      9667--REDEF
AS_USERS.BUDGET.PMAXC
      9660**DCL      9662--REDEF
AS_USERS.SETUP_CHRA.TXT
      9780**DCL      9781--REDEF    9782--REDEF
AS_USERS_CONSTANT.BANNER_PERM
     10832**DCL     10833--REDEF
AS_USERS_CONSTANT.BUDGET.MACCT
     10737**DCL     10741--REDEF
AS_USERS_CONSTANT.BUDGET.MAX_PROJECTS
     10750**DCL     10753--REDEF
AS_USERS_CONSTANT.BUDGET.PACCUM
     10733**DCL     10735--REDEF
AS_USERS_CONSTANT.BUDGET.PMAXC
     10728**DCL     10730--REDEF
AS_USERS_CONSTANT.SETUP_CHRA.TXT
     10848**DCL     10849--REDEF   10850--REDEF
B$ALT.CODE
     12292**DCL     12292--REDEF   12293--REDEF   12293--REDEF
B$ALT.ERR
PL6.E3A0      #006=ASW$WSN_IO File=ASB$FILES.:E05TSI                             TUE 07/29/97 09:20 Page:291
     12293**DCL     13164>>ASSIGN
B$ALT.ERR.ERR#
     12294**DCL     12294--REDEF
B$ALT.EVID
     12293**DCL     12293--REDEF   12293--REDEF
B$TCB.ALT$
     12299**DCL     13164>>ASSIGN
B$TCB$
     12306**DCL     13164>>ASSIGN
BUF$
     12315**DCL        26--PROC    13079--ENTRY   13081>>ASSIGN  13089--ENTRY   13091>>ASSIGN  13135--ENTRY
     13137>>ASSIGN
CLOSE_FPT
     12586**DCL     13131<>CALL
CLOSE_FPT.SN_
     12586**DCL     12586--REDEF
CLOSE_FPT.UTL_
     12587**DCL     12587--REDEF
CLOSE_FPT.V
     12591**DCL     12586--DCLINIT
CLOSE_FPT.V.EXPIRE#
     12601**DCL     12601--REDEF
CLOSE_FPT.V.TYPE#
     12599**DCL     12599--REDEF
CLOSE_FPT.V.XTNSIZE#
     12596**DCL     12596--REDEF   12598--REDEF
DELREC_FPT
     12729**DCL     13101<>CALL
DELREC_FPT.KEY_
     12729**DCL     13100<<ASSIGN
DELREC_FPT.V
     12732**DCL     12729--DCLINIT
ERR_CODE
      9422**DCL      9423--REDEF   13164<<ASSIGN
F$DCB.ACTPOS
     13042**DCL     13042--REDEF
PL6.E3A0      #006=ASW$WSN_IO File=ASB$FILES.:E05TSI                             TUE 07/29/97 09:20 Page:292
F$DCB.ARS#
     13016**DCL     13016--REDEF   13085>>ASSIGN  13141>>ASSIGN
F$DCB.ATTR
     13035**DCL     13036--REDEF
F$DCB.BORROW
     13050**DCL     13050--REDEF   13050--REDEF   13050--REDEF
F$DCB.DCBNAME.L
     13064**DCL     13064--IMP-SIZ
F$DCB.EOMCHAR#
     13020**DCL     13020--REDEF
F$DCB.FLDID
     13045**DCL     13045--REDEF
F$DCB.FORM$
     13039**DCL     13039--REDEF
F$DCB.FSECT
     13055**DCL     13055--REDEF
F$DCB.FSN#
     13032**DCL     13032--REDEF   13032--REDEF   13033--REDEF
F$DCB.HEADER$
     13038**DCL     13038--REDEF
F$DCB.IXTNSIZE#
     13036**DCL     13036--REDEF
F$DCB.LASTSTA$
     13025**DCL     13025--REDEF
F$DCB.LVL
     13051**DCL     13051--REDEF
F$DCB.NAME#.C
     13026**DCL     13026--REDEF
F$DCB.NOEOF
     13048**DCL     13048--REDEF
F$DCB.NRECS#
     13037**DCL     13037--REDEF
F$DCB.NRECX
     13056**DCL     13056--REDEF
F$DCB.OHDR
     13048**DCL     13048--REDEF
PL6.E3A0      #006=ASW$WSN_IO File=ASB$FILES.:E05TSI                             TUE 07/29/97 09:20 Page:293
F$DCB.ORG#
     13031**DCL     13031--REDEF
F$DCB.PRECNO
     13054**DCL     13054--REDEF
F$DCB.RCSZ
     13060**DCL     13060--REDEF
F$DCB.RES#
     13027**DCL     13027--REDEF
F$DCB.SETX
     13039**DCL     13039--REDEF
F$DCB.TAB$
     13039**DCL     13039--REDEF
F$DCB.TDA
     13053**DCL     13054--REDEF
F$DCB.WSN#
     13027**DCL     13027--REDEF
FILE_ACCT
      9430**DCL     12405--DCLINIT 12522--DCLINIT
FILE_NAME
     12877**DCL     12401--DCLINIT 12518--DCLINIT
FPT_DEQ
     12637**DCL     13160<>CALL
FPT_DEQ.V
     12638**DCL     12637--DCLINIT
FPT_ENQ
     12618**DCL     13154<>CALL
FPT_ENQ.RNAME_
     12618**DCL     13153<<ASSIGN
FPT_ENQ.V
     12619**DCL     12618--DCLINIT
IO_ERR
     13164**LABEL   13084--CALLALT 13094--CALLALT 13101--CALLALT 13108--CALLALT 13114--CALLALT 13119--CALLALT
     13125--CALLALT 13140--CALLALT 13147--CALLALT 13154--CALLALT 13160--CALLALT
KL_DEFAULT.PASSWORD
     12038**DCL     12042--REDEF
KL_DEFAULT.RENAME
PL6.E3A0      #006=ASW$WSN_IO File=ASB$FILES.:E05TSI                             TUE 07/29/97 09:20 Page:294
     12061**DCL     12062--REDEF
KL_DFLT.PASSWORD
     11228**DCL     11232--REDEF
KL_DFLT.RENAME
     11251**DCL     11252--REDEF
KL_DREC.PASSWORD
     11066**DCL     11070--REDEF
KL_DREC.RENAME
     11089**DCL     11090--REDEF
KL_DREC_CNT.PASSWORD
     10953**DCL     10957--REDEF
KL_DREC_CNT.RENAME
     10976**DCL     10977--REDEF
M$CLOSE
        42**DCL-ENT 13131--CALL
M$DELREC
        44**DCL-ENT 13101--CALL
M$DEQ
       109**DCL-ENT 13160--CALL
M$ENQ
       108**DCL-ENT 13154--CALL
M$OPEN
        42**DCL-ENT 13119--CALL    13125--CALL
M$PFIL
        44**DCL-ENT 13147--CALL
M$PRECORD
        46**DCL-ENT 13108--CALL    13114--CALL
M$READ
        43**DCL-ENT 13084--CALL    13140--CALL
M$WRITE
        43**DCL-ENT 13094--CALL
M$WSN
     13071**DCL     13085--ASSIGN  13141--ASSIGN  13165>>ASSIGN
OPEN_CR_FPT
     12400**DCL     13119<>CALL
OPEN_CR_FPT.ACSVEH_
PL6.E3A0      #006=ASW$WSN_IO File=ASB$FILES.:E05TSI                             TUE 07/29/97 09:20 Page:295
     12402**DCL     12403--REDEF
OPEN_CR_FPT.ALTKEYS_
     12408**DCL     12409--REDEF   12409--REDEF
OPEN_CR_FPT.HDR_
     12407**DCL     12408--REDEF
OPEN_CR_FPT.TAB_
     12406**DCL     12407--REDEF
OPEN_CR_FPT.UHL_
     12400**DCL     12401--REDEF   12401--REDEF
OPEN_CR_FPT.V
     12409**DCL     12400--DCLINIT
OPEN_CR_FPT.V.FSN#
     12440**DCL     12440--REDEF   12440--REDEF
OPEN_CR_FPT.WSN_
     12406**DCL     12406--REDEF
OPEN_UP_FPT
     12517**DCL     13125<>CALL
OPEN_UP_FPT.ACSVEH_
     12519**DCL     12520--REDEF
OPEN_UP_FPT.ALTKEYS_
     12525**DCL     12526--REDEF   12526--REDEF
OPEN_UP_FPT.HDR_
     12524**DCL     12525--REDEF
OPEN_UP_FPT.TAB_
     12523**DCL     12524--REDEF
OPEN_UP_FPT.UHL_
     12517**DCL     12518--REDEF   12518--REDEF
OPEN_UP_FPT.V
     12526**DCL     12517--DCLINIT
OPEN_UP_FPT.V.FSN#
     12557**DCL     12557--REDEF   12557--REDEF
OPEN_UP_FPT.WSN_
     12523**DCL     12523--REDEF
PFIL_FPT
     12816**DCL     13147<>CALL
PFIL_FPT.V
PL6.E3A0      #006=ASW$WSN_IO File=ASB$FILES.:E05TSI                             TUE 07/29/97 09:20 Page:296
     12816**DCL     12816--DCLINIT
PREC_AND_SKIP_FPT
     12836**DCL     13114<>CALL
PREC_AND_SKIP_FPT.V
     12838**DCL     12836--DCLINIT
PREC_FPT
     12751**DCL     13108<>CALL
PREC_FPT.KEY_
     12751**DCL     13107<<ASSIGN
PREC_FPT.V
     12753**DCL     12751--DCLINIT
PROJ_KEY.TEXT
      9300**DCL      9300--REDEF
PROJ_KEY.TXT.PROJECT
      9300**DCL      9300--REDEF
READ_FPT
     12662**DCL     13084<>CALL
READ_FPT.BUF_.BOUND
     12664**DCL     13082<<ASSIGN
READ_FPT.BUF_.BUF$
     12665**DCL     13081<<ASSIGN
READ_FPT.KEY_
     12662**DCL     13083<<ASSIGN
READ_FPT.STATION_
     12665**DCL     12666--REDEF
READ_FPT.V
     12666**DCL     12662--DCLINIT
READ_FPT.V.DVBYTE.REREAD#
     12677**DCL     12677--REDEF
READ_FPT.V.INDX#
     12675**DCL     12675--REDEF
READ_SEQ_FPT
     12781**DCL     13140<>CALL
READ_SEQ_FPT.BUF_.BOUND
     12783**DCL     13138<<ASSIGN
READ_SEQ_FPT.BUF_.BUF$
PL6.E3A0      #006=ASW$WSN_IO File=ASB$FILES.:E05TSI                             TUE 07/29/97 09:20 Page:297
     12784**DCL     13137<<ASSIGN
READ_SEQ_FPT.KEY_
     12781**DCL     13139<<ASSIGN
READ_SEQ_FPT.STATION_
     12784**DCL     12785--REDEF
READ_SEQ_FPT.V
     12785**DCL     12781--DCLINIT
READ_SEQ_FPT.V.DVBYTE.REREAD#
     12796**DCL     12796--REDEF
READ_SEQ_FPT.V.INDX#
     12794**DCL     12794--REDEF
REMEM_VAR
      9426**DCL      9426--REDEF
REM_FCMD
      9426**DCL      9427--REDEF
USERS_KEY
      9297**DCL     12836--DCLINIT 12837--DCLINIT 13083--ASSIGN  13093--ASSIGN  13100--ASSIGN  13107--ASSIGN
     13139--ASSIGN  13153--ASSIGN
USERS_KEY.TEXT
      9297**DCL      9298--REDEF    9298--REDEF    9298--REDEF    9299--REDEF
VLP_ATTR
     12890**DCL     12403--DCLINIT
VLP_ATTR.Q
     12891**DCL     12890--DCLINIT
VLP_ATTR_ACC
     12981**DCL     12402--DCLINIT
VLP_ATTR_ACC.Q
     12982**DCL     12981--DCLINIT
WRITE_FPT
     12703**DCL     13094<>CALL
WRITE_FPT.BUF_.BOUND
     12703**DCL     13092<<ASSIGN
WRITE_FPT.BUF_.BUF$
     12705**DCL     13091<<ASSIGN
WRITE_FPT.KEY_
     12703**DCL     13093<<ASSIGN
PL6.E3A0      #006=ASW$WSN_IO File=ASB$FILES.:E05TSI                             TUE 07/29/97 09:20 Page:298
WRITE_FPT.STATION_
     12705**DCL     12705--REDEF
WRITE_FPT.V
     12706**DCL     12703--DCLINIT
WRITE_FPT.V.DVBYTE.VFC#
     12712**DCL     12712--REDEF
