VERSION E05

PL6.E3A0      #001=ASB$GET_NEXT_STATION File=ASB$FIND_STATION.:E05TSI            TUE 07/29/97 09:21 Page:1
        1        1        /*T***********************************************************/
        2        2        /*T*                                                         */
        3        3        /*T* Copyright (c) Bull HN Information Systems Inc., 1997    */
        4        4        /*T*                                                         */
        5        5        /*T***********************************************************/
        6        6        ASB$GET_NEXT_STATION: PROC (TWSN) ALTRET;
        7        7
        8        8        /*D*
        9        9             NAME: ASB$GET_NEXT_STATION
       10       10             CALL: CALL ASB$GET_NEXT_STATION (TWSN)
       11       11             INPUT:  TWSN - The number of the station to get.
       12       12             OUTPUT:
       13       13             DESCRIPTION:
       14       14                  This routine will check the specified twsn in the TERM
       15       15                  record for non-blank.  If it is blank, it will cycle
       16       16                  through the rest of the TERM record for a non-blank twsn.
       17       17                  If it doesn't find a valid twsn, it will altreturn.
       18       18                  If it does find a valid twsn, it will read the 'TWSNtwsn'
       19       19                  record into data segment 2 and return.
       20       20        */
       21       21        /********************************************************************/
       22       22        /*   Include files   include files   include files   include files  */
       23       23        /********************************************************************/
       24       24        %INCLUDE AS_PERR_C;
       25      626        %INCLUDE AS_SUPER_C;
       26     1061        %INCLUDE AS_SUBS_C;
       27     2475        %INCLUDE AS_MAC_C;
       28     2555        %INCLUDE AS_ENTRIES_M;
       29     3605        %INCLUDE AS_SSUBS_C;
       30     3697        %INCLUDE B_ERRORS_C;
       31     4824        %INCLUDE CP_6;
       32    10383        %INCLUDE CP_6_SUBS;
       33    10923        %INCLUDE KL_MACRO_C;
       34    14275        %INCLUDE KL_SUPER_C;
       35    17177        %INCLUDE XU_MACRO_C;
       36    20283        %INCLUDE XU_FORMAT_C;
       37    20445        %INCLUDE AS_SUPER_R;
PL6.E3A0      #001=ASB$GET_NEXT_STATION File=ASB$FIND_STATION.:E05TSI            TUE 07/29/97 09:21 Page:2
       38    23461        %EJECT;
PL6.E3A0      #001=ASB$GET_NEXT_STATION File=ASB$FIND_STATION.:E05TSI            TUE 07/29/97 09:21 Page:3
       39    23462        /********************************************************************/
       40    23463        /*   Entry dcls      entry dcls      entry dcls      entry dcls     */
       41    23464        /********************************************************************/
       42    23465        %ASB$READ_HLP ;
       43    23468        %ASA$ERROR ;
       44    23471        %EJECT;
PL6.E3A0      #001=ASB$GET_NEXT_STATION File=ASB$FIND_STATION.:E05TSI            TUE 07/29/97 09:21 Page:4
       45    23472        /********************************************************************/
       46    23473        /*   Parameter        parameter        parameter        parameter   */
       47    23474        /********************************************************************/
       48    23475    1   DCL TWSN    UBIN;
       49    23476        /********************************************************************/
       50    23477        /*   Local based     local based     local based     local based    */
       51    23478        /********************************************************************/
       52    23479        %KL_WSNCVT(NAME = KL$WSNCVT,STCLASS="BASED(DSEG1$)");
       53    23486        %KL_TWSNREC(NAME = KL$TWSNREC,STCLASS="BASED(DSEG2$)");
       54    23511        %EJECT;
PL6.E3A0      #001=ASB$GET_NEXT_STATION File=ASB$FIND_STATION.:E05TSI            TUE 07/29/97 09:21 Page:5
       55    23512        /********************************************************************/
       56    23513        /*   Auto data       auto data       auto data       auto data      */
       57    23514        /********************************************************************/
       58    23515    1   DCL I UBIN;
       59    23516    1   DCL STAT_ARS UBIN;
       60    23517    1   DCL TWSNCHAR   CHAR(4);
       61    23518        %EJECT;
PL6.E3A0      #001=ASB$GET_NEXT_STATION File=ASB$FIND_STATION.:E05TSI            TUE 07/29/97 09:21 Page:6
       62    23519        /********************************************************************/
       63    23520        /*   Procedure       procedure       procedure       procedure      */
       64    23521        /********************************************************************/
       65    23522    1   USERS_KEY.COUNT = 4;
       66    23523    1   USERS_KEY.TXTC = 'TERM';
       67    23524    1   STAT_ARS = DSEG1SIZE;
       68    23525    2   CALL ASB$READ_HLP(DSEG1$ ,STAT_ARS, 1 ) WHENALTRETURN DO;
       69    23526    2      CALL ASA$ERROR ( USERS_KEY, E$UNABLE_TO_READ_HLP);
       70    23527    2      ALTRETURN;
       71    23528    2      END;  /*  Whenaltreturn  */
       72    23529    2   DO WHILE  KL$WSNCVT.WSN(TWSN) = ' ' AND TWSN <= KL$WSNCVT.LTWSN ;
       73    23530    2      TWSN = TWSN + 1;
       74    23531    2      END;  /*  Do while  */
       75    23532    1   IF TWSN > KL$WSNCVT.LTWSN THEN
       76    23533    1      ALTRETURN;
       77    23534    1   CALL BINCHAR (TWSNCHAR,TWSN);
       78    23535    1   USERS_KEY.COUNT = 8;
       79    23536    1   CALL CONCAT (USERS_KEY.TXTC, 'TWSN', TWSNCHAR);
       80    23537    1   STAT_ARS = DSEG2SIZE;
       81    23538    2   CALL ASB$READ_HLP(DSEG2$ ,STAT_ARS, 2 ) WHENALTRETURN DO;
       82    23539    2      CALL ASA$ERROR ( USERS_KEY, E$UNABLE_TO_READ_HLP);
       83    23540    2      ALTRETURN;
       84    23541    2      END;  /*  Whenaltreturn  */
       85    23542
       86    23543    1   RETURN ;
       87    23544    1   END ASB$GET_NEXT_STATION;
       88    23545        %EOD;

PL6.E3A0      #001=ASB$GET_NEXT_STATION File=ASB$FIND_STATION.:E05TSI            TUE 07/29/97 09:21 Page:7
--  Include file information  --

   AS_SUPER_R.:E05TOU  cannot be made into a system file and is referenced.
   XU_FORMAT_C.:E05TOU  is referenced.
   XU_MACRO_C.:E05TOU  is referenced.
   KL_SUPER_C.:E05TOU  is referenced.
   KL_MACRO_C.:E05TOU  is referenced.
   CP_6_SUBS.:E05TOU  is referenced.
   CP_6_C.:E05TOU  is referenced.
   CP_6.:E05TOU  cannot be made into a system file and is referenced.
   B_ERRORS_C.:E05TOU  is referenced.
   AS_SSUBS_C.:E05TOU  is referenced.
   AS_ENTRIES_M.:E05TOU  is referenced.
   AS_MAC_C.:E05TOU  cannot be made into a system file and is referenced.
   AS_SUBS_C.:E05TOU  is referenced.
   AS_SUPER_C.:E05TOU  is referenced.
   AS_PERR_C.:E05TOU  is referenced.
      No diagnostics issued in procedure ASB$GET_NEXT_STATION.

   Procedure ASB$GET_NEXT_STATION requires 79 words for executable code.
   Procedure ASB$GET_NEXT_STATION requires 12 words of local(AUTO) storage.

PL6.E3A0      #001=ASB$GET_NEXT_STATION File=ASB$FIND_STATION.:E05TSI            TUE 07/29/97 09:21 Page:8

 Object Unit name= ASB$GET_NEXT_STATION                       File name= ASB$FIND_STATION.:E05TOU
 UTS= JUL 29 '97 09:21:36.96 TUE                              Compiler= PL-6/E31         Sev=      00
 SharedLib= :SHARED_SYSTEM                                    Alt SharedLib=


    ****  Control sections  ****

 Sect   Type Bound  Init  Size OctSiz  Section name(segment info)
    0   DCB   even  none     0      0  M$UC
    1   DCB   even  none     0      0  M$LO
    2  RoData even  UTS      2      2  ASB$GET_NEXT_STATION
    3   Proc  even  none    79    117  ASB$GET_NEXT_STATION
    4  RoData even  none     7      7  ASB$GET_NEXT_STATION

    ****  Entry defs  ****

                              Check   Calling
                             calling  sequence
  Sect OctLoc Primary Altret sequence   type   Parms  Name
     3      0   yes    yes     yes      Std        1  ASB$GET_NEXT_STATION

  ****  Entry refs  ****

         Check        Calling
        calling       sequence
Altret sequence SRef   type   Args  Name
         yes          ~proc      0 XU_OUTPUT_OPTIONS
 yes     yes           Std       3 ASB$READ_HLP
         yes           Std       3 ASA$ERROR
                       nStd      0 X66_AUTO_1
                       Std       0 B_CONSPOOL_D
                       nStd      0 X66_AALT
                       nStd      0 X66_ARET
PL6.E3A0      #001=ASB$GET_NEXT_STATION File=ASB$FIND_STATION.:E05TSI            TUE 07/29/97 09:21 Page:9

  ****  Data refs  ****

  Flags:  r = read only, s = secondary
Flgs Name                             Flgs Name                             Flgs Name
     M$UC                             r    AS_MODE                          r    AS_FE_MODE
     M$LO                                  USERS_KEY                             ERR_CODE
     REMEM_VAR                             REM_FCMD                              ASA_BRKS_LOC
     DSEG1$                                DSEG1SIZE                             DSEG2$
     DSEG2SIZE                             B_VECTNIL

  ****  Segment refs  ****

  Flags:  r = read only, s = secondary
Flgs Name                             Flgs Name                             Flgs Name
     ISSID
PL6.E3A0      #001=ASB$GET_NEXT_STATION File=ASB$FIND_STATION.:E05TSI            TUE 07/29/97 09:21 Page:10


        1        1        /*T***********************************************************/
        2        2        /*T*                                                         */
        3        3        /*T* Copyright (c) Bull HN Information Systems Inc., 1997    */
        4        4        /*T*                                                         */
        5        5        /*T***********************************************************/
        6        6        ASB$GET_NEXT_STATION: PROC (TWSN) ALTRET;

      6  3 000000   000000 700200 xent  ASB$GET_NEX* TSX0  ! X66_AUTO_1
         3 000001   000014 000001                    ZERO    12,1

        7        7
        8        8        /*D*
        9        9             NAME: ASB$GET_NEXT_STATION
       10       10             CALL: CALL ASB$GET_NEXT_STATION (TWSN)
       11       11             INPUT:  TWSN - The number of the station to get.
       12       12             OUTPUT:
       13       13             DESCRIPTION:
       14       14                  This routine will check the specified twsn in the TERM
       15       15                  record for non-blank.  If it is blank, it will cycle
       16       16                  through the rest of the TERM record for a non-blank twsn.
       17       17                  If it doesn't find a valid twsn, it will altreturn.
       18       18                  If it does find a valid twsn, it will read the 'TWSNtwsn'
       19       19                  record into data segment 2 and return.
       20       20        */
       21       21        /********************************************************************/
       22       22        /*   Include files   include files   include files   include files  */
       23       23        /********************************************************************/
       24       24        %INCLUDE AS_PERR_C;
       25      626        %INCLUDE AS_SUPER_C;
       26     1061        %INCLUDE AS_SUBS_C;
       27     2475        %INCLUDE AS_MAC_C;
       28     2555        %INCLUDE AS_ENTRIES_M;
       29     3605        %INCLUDE AS_SSUBS_C;
       30     3697        %INCLUDE B_ERRORS_C;
       31     4824        %INCLUDE CP_6;
       32    10383        %INCLUDE CP_6_SUBS;
PL6.E3A0      #001=ASB$GET_NEXT_STATION File=ASB$FIND_STATION.:E05TSI            TUE 07/29/97 09:21 Page:11
       33    10923        %INCLUDE KL_MACRO_C;
       34    14275        %INCLUDE KL_SUPER_C;
       35    17177        %INCLUDE XU_MACRO_C;
       36    20283        %INCLUDE XU_FORMAT_C;
       37    20445        %INCLUDE AS_SUPER_R;
       38    23461        %EJECT;
PL6.E3A0      #001=ASB$GET_NEXT_STATION File=ASB$FIND_STATION.:E05TSI            TUE 07/29/97 09:21 Page:12
       39    23462        /********************************************************************/
       40    23463        /*   Entry dcls      entry dcls      entry dcls      entry dcls     */
       41    23464        /********************************************************************/
       42    23465        %ASB$READ_HLP ;
       43    23468        %ASA$ERROR ;
       44    23471        %EJECT;
PL6.E3A0      #001=ASB$GET_NEXT_STATION File=ASB$FIND_STATION.:E05TSI            TUE 07/29/97 09:21 Page:13
       45    23472        /********************************************************************/
       46    23473        /*   Parameter        parameter        parameter        parameter   */
       47    23474        /********************************************************************/
       48    23475    1   DCL TWSN    UBIN;
       49    23476        /********************************************************************/
       50    23477        /*   Local based     local based     local based     local based    */
       51    23478        /********************************************************************/
       52    23479        %KL_WSNCVT(NAME = KL$WSNCVT,STCLASS="BASED(DSEG1$)");
       53    23486        %KL_TWSNREC(NAME = KL$TWSNREC,STCLASS="BASED(DSEG2$)");
       54    23511        %EJECT;
PL6.E3A0      #001=ASB$GET_NEXT_STATION File=ASB$FIND_STATION.:E05TSI            TUE 07/29/97 09:21 Page:14
       55    23512        /********************************************************************/
       56    23513        /*   Auto data       auto data       auto data       auto data      */
       57    23514        /********************************************************************/
       58    23515    1   DCL I UBIN;
       59    23516    1   DCL STAT_ARS UBIN;
       60    23517    1   DCL TWSNCHAR   CHAR(4);
       61    23518        %EJECT;
PL6.E3A0      #001=ASB$GET_NEXT_STATION File=ASB$FIND_STATION.:E05TSI            TUE 07/29/97 09:21 Page:15
       62    23519        /********************************************************************/
       63    23520        /*   Procedure       procedure       procedure       procedure      */
       64    23521        /********************************************************************/
       65    23522    1   USERS_KEY.COUNT = 4;

  23522  3 000002   004000 236003                    LDQ     2048,DU
         3 000003   000000 552040 xsym               STBQ    USERS_KEY,'40'O

       66    23523    1   USERS_KEY.TXTC = 'TERM';

  23523  3 000004   040000 100400                    MLR     fill='040'O
         3 000005   000000 000004 2                  ADSC9   0                        cn=0,n=4
         3 000006   000000 200051 xsym               ADSC9   USERS_KEY                cn=1,n=41

       67    23524    1   STAT_ARS = DSEG1SIZE;

  23524  3 000007   000000 235000 xsym               LDA     DSEG1SIZE
         3 000010   200005 755100                    STA     STAT_ARS,,AUTO

       68    23525    2   CALL ASB$READ_HLP(DSEG1$ ,STAT_ARS, 1 ) WHENALTRETURN DO;

  23525  3 000011   000000 236000 4                  LDQ     0
         3 000012   200012 756100                    STQ     TWSNCHAR+4,,AUTO
         3 000013   200005 630500                    EPPR0   STAT_ARS,,AUTO
         3 000014   200011 450500                    STP0    TWSNCHAR+3,,AUTO
         3 000015   000001 236000 4                  LDQ     1
         3 000016   200010 756100                    STQ     TWSNCHAR+2,,AUTO
         3 000017   200010 630500                    EPPR0   TWSNCHAR+2,,AUTO
         3 000020   000021 631400 xsym               EPPR1   B_VECTNIL+17
         3 000021   000000 701000 xent               TSX1    ASB$READ_HLP
         3 000022   000024 702000 3                  TSX2    s:23526
         3 000023   000031 710000 3                  TRA     s:23529

       69    23526    2      CALL ASA$ERROR ( USERS_KEY, E$UNABLE_TO_READ_HLP);

  23526  3 000024   000003 630400 4                  EPPR0   3
         3 000025   000020 631400 xsym               EPPR1   B_VECTNIL+16
PL6.E3A0      #001=ASB$GET_NEXT_STATION File=ASB$FIND_STATION.:E05TSI            TUE 07/29/97 09:21 Page:16
         3 000026   000000 701000 xent               TSX1    ASA$ERROR
         3 000027   000000 011000                    NOP     0

       70    23527    2      ALTRETURN;

  23527  3 000030   000000 702200 xent               TSX2  ! X66_AALT

       71    23528    2      END;  /*  Whenaltreturn  */
       72    23529    2   DO WHILE  KL$WSNCVT.WSN(TWSN) = ' ' AND TWSN <= KL$WSNCVT.LTWSN ;

  23529  3 000031   000036 710000 3                  TRA     s:23531

       73    23530    2      TWSN = TWSN + 1;

  23530  3 000032   200003 470500                    LDP0    @TWSN,,AUTO
         3 000033   000000 235100                    LDA     0,,PR0
         3 000034   000001 035007                    ADLA    1,DL
         3 000035   000000 755100                    STA     0,,PR0

       74    23531    2      END;  /*  Do while  */

  23531  3 000036   200003 470500                    LDP0    @TWSN,,AUTO
         3 000037   000000 235100                    LDA     0,,PR0
         3 000040   000001 735000                    ALS     1
         3 000041   000002 735000                    ALS     2
         3 000042   000000 471400 xsym               LDP1    DSEG1$
         3 000043   040000 106505                    CMPC    fill='040'O
         3 000044   100002 000010                    ADSC9   2,A,PR1                  cn=0,n=8
         3 000045   000035 000001 xsym               ADSC9   B_VECTNIL+29             cn=0,n=1
         3 000046   000052 601000 3                  TNZ     s:23532
         3 000047   100001 236100                    LDQ     1,,PR1
         3 000050   000000 116100                    CMPQ    0,,PR0
         3 000051   000032 603000 3                  TRC     s:23530

       75    23532    1   IF TWSN > KL$WSNCVT.LTWSN THEN

  23532  3 000052   100001 236100                    LDQ     1,,PR1
PL6.E3A0      #001=ASB$GET_NEXT_STATION File=ASB$FIND_STATION.:E05TSI            TUE 07/29/97 09:21 Page:17
         3 000053   000000 116100                    CMPQ    0,,PR0
         3 000054   000056 603000 3                  TRC     s:23534

       76    23533    1      ALTRETURN;

  23533  3 000055   000000 702200 xent               TSX2  ! X66_AALT

       77    23534    1   CALL BINCHAR (TWSNCHAR,TWSN);

  23534  3 000056   000000 235100                    LDA     0,,PR0
         3 000057   000044 773000                    LRL     36
         3 000060   200010 757100                    STAQ    TWSNCHAR+2,,AUTO
         3 000061   000100 301500                    BTD
         3 000062   200010 000010                    NDSC9   TWSNCHAR+2,,AUTO         cn=0,s=lsgnf,sf=0,n=8
         3 000063   200006 030004                    NDSC9   TWSNCHAR,,AUTO           cn=0,s=nosgn,sf=0,n=4

       78    23535    1   USERS_KEY.COUNT = 8;

  23535  3 000064   010000 236003                    LDQ     4096,DU
         3 000065   000000 552040 xsym               STBQ    USERS_KEY,'40'O

       79    23536    1   CALL CONCAT (USERS_KEY.TXTC, 'TWSN', TWSNCHAR);

  23536  3 000066   040000 100400                    MLR     fill='040'O
         3 000067   000001 000004 2                  ADSC9   1                        cn=0,n=4
         3 000070   000000 200004 xsym               ADSC9   USERS_KEY                cn=1,n=4
         3 000071   040000 100500                    MLR     fill='040'O
         3 000072   200006 000004                    ADSC9   TWSNCHAR,,AUTO           cn=0,n=4
         3 000073   000001 200045 xsym               ADSC9   USERS_KEY+1              cn=1,n=37

       80    23537    1   STAT_ARS = DSEG2SIZE;

  23537  3 000074   000000 235000 xsym               LDA     DSEG2SIZE
         3 000075   200005 755100                    STA     STAT_ARS,,AUTO

       81    23538    2   CALL ASB$READ_HLP(DSEG2$ ,STAT_ARS, 2 ) WHENALTRETURN DO;

PL6.E3A0      #001=ASB$GET_NEXT_STATION File=ASB$FIND_STATION.:E05TSI            TUE 07/29/97 09:21 Page:18
  23538  3 000076   000005 236000 4                  LDQ     5
         3 000077   200012 756100                    STQ     TWSNCHAR+4,,AUTO
         3 000100   200005 630500                    EPPR0   STAT_ARS,,AUTO
         3 000101   200011 450500                    STP0    TWSNCHAR+3,,AUTO
         3 000102   000006 236000 4                  LDQ     6
         3 000103   200010 756100                    STQ     TWSNCHAR+2,,AUTO
         3 000104   200010 630500                    EPPR0   TWSNCHAR+2,,AUTO
         3 000105   000021 631400 xsym               EPPR1   B_VECTNIL+17
         3 000106   000000 701000 xent               TSX1    ASB$READ_HLP
         3 000107   000111 702000 3                  TSX2    s:23539
         3 000110   000116 710000 3                  TRA     s:23543

       82    23539    2      CALL ASA$ERROR ( USERS_KEY, E$UNABLE_TO_READ_HLP);

  23539  3 000111   000003 630400 4                  EPPR0   3
         3 000112   000020 631400 xsym               EPPR1   B_VECTNIL+16
         3 000113   000000 701000 xent               TSX1    ASA$ERROR
         3 000114   000000 011000                    NOP     0

       83    23540    2      ALTRETURN;

  23540  3 000115   000000 702200 xent               TSX2  ! X66_AALT

       84    23541    2      END;  /*  Whenaltreturn  */
       85    23542
       86    23543    1   RETURN ;

  23543  3 000116   000000 702200 xent               TSX2  ! X66_ARET
       87    23544    1   END ASB$GET_NEXT_STATION;
       88    23545        %EOD;

PL6.E3A0      #001=ASB$GET_NEXT_STATION File=ASB$FIND_STATION.:E05TSI            TUE 07/29/97 09:21 Page:19
--  Include file information  --

   AS_SUPER_R.:E05TOU  cannot be made into a system file and is referenced.
   XU_FORMAT_C.:E05TOU  is referenced.
   XU_MACRO_C.:E05TOU  is referenced.
   KL_SUPER_C.:E05TOU  is referenced.
   KL_MACRO_C.:E05TOU  is referenced.
   CP_6_SUBS.:E05TOU  is referenced.
   CP_6_C.:E05TOU  is referenced.
   CP_6.:E05TOU  cannot be made into a system file and is referenced.
   B_ERRORS_C.:E05TOU  is referenced.
   AS_SSUBS_C.:E05TOU  is referenced.
   AS_ENTRIES_M.:E05TOU  is referenced.
   AS_MAC_C.:E05TOU  cannot be made into a system file and is referenced.
   AS_SUBS_C.:E05TOU  is referenced.
   AS_SUPER_C.:E05TOU  is referenced.
   AS_PERR_C.:E05TOU  is referenced.
      No diagnostics issued in procedure ASB$GET_NEXT_STATION.
PL6.E3A0      #001=ASB$GET_NEXT_STATION File=ASB$FIND_STATION.:E05TSI            TUE 07/29/97 09:21 Page:20

 **** Variables and constants ****

  ****  Auto variables  ****

  ****  Scalars and arrays  ****
OctLoc.c.b A Datatyp(siz) R M Lvl/name                 OctLoc.c.b A Datatyp(siz) R M Lvl/name

     3-0-0/w PTR         r     1 @TWSN                      5-0-0/w UBIN        r     1 STAT_ARS
    *0-0-0/w UBIN        r     1 TWSN                       6-0-0/c CHAR(4)     r     1 TWSNCHAR

  ****  SYMREF variables  ****

  ****  Scalars and arrays  ****
OctLoc.c.b A Datatyp(siz) R M Lvl/name                 OctLoc.c.b A Datatyp(siz) R M Lvl/name

     0-0-0/w PTR         r     1 DSEG1$                     0-0-0/w UBIN        r     1 DSEG1SIZE
     0-0-0/w PTR         r     1 DSEG2$                     0-0-0/w UBIN        r     1 DSEG2SIZE
     0-0-0/c STRC(378)   r     1 USERS_KEY

  ****  BASED and DCB variables  ****

  ****  Scalars and arrays  ****
OctLoc.c.b A Datatyp(siz) R M Lvl/name                 OctLoc.c.b A Datatyp(siz) R M Lvl/name

     0-0-0/w STRC(144)   r     1 KL$WSNCVT


   Procedure ASB$GET_NEXT_STATION requires 79 words for executable code.
   Procedure ASB$GET_NEXT_STATION requires 12 words of local(AUTO) storage.
PL6.E3A0      #001=ASB$GET_NEXT_STATION File=ASB$FIND_STATION.:E05TSI            TUE 07/29/97 09:21 Page:21
          *** CROSS REFERENCE LISTING ***
**     DENOTES     IDENTIFIER DEFINITION
<<                 IDENTIFIER'S VALUE SET
>>                 IDENTIFIER'S VALUE USED
<>                 IDENTIFIER SET AND/OR USED
--                 IDENTIFIER REFERENCED
PL6.E3A0      #001=ASB$GET_NEXT_STATION File=ASB$FIND_STATION.:E05TSI            TUE 07/29/97 09:21 Page:22
          MINI XREF LISTING

ASA$ERROR
     23469**DCL-ENT 23526--CALL    23539--CALL
ASA_BRKS_LOC
     20609**DCL     20609--REDEF
ASB$READ_HLP
     23466**DCL-ENT 23525--CALL    23538--CALL
AS_DEFAULT.BANNER_PERM
     21302**DCL     21303--REDEF
AS_DEFAULT.BUDGET.MACCT
     21207**DCL     21211--REDEF
AS_DEFAULT.BUDGET.MAX_PROJECTS
     21220**DCL     21223--REDEF
AS_DEFAULT.BUDGET.PACCUM
     21203**DCL     21205--REDEF
AS_DEFAULT.BUDGET.PMAXC
     21198**DCL     21200--REDEF
AS_DEFAULT.SETUP_CHRA.TXT
     21318**DCL     21319--REDEF   21320--REDEF
AS_DEFAULT_DREC.PASSWORD
     22572**DCL     22576--REDEF
AS_DEFAULT_DREC.RENAME
     22595**DCL     22596--REDEF
AS_DFLT.BANNER_PERM
     21124**DCL     21125--REDEF
AS_DFLT.BUDGET.MACCT
     21029**DCL     21033--REDEF
AS_DFLT.BUDGET.MAX_PROJECTS
     21042**DCL     21045--REDEF
AS_DFLT.BUDGET.PACCUM
     21025**DCL     21027--REDEF
AS_DFLT.BUDGET.PMAXC
     21020**DCL     21022--REDEF
PL6.E3A0      #001=ASB$GET_NEXT_STATION File=ASB$FIND_STATION.:E05TSI            TUE 07/29/97 09:21 Page:23
AS_DFLT.SETUP_CHRA.TXT
     21140**DCL     21141--REDEF   21142--REDEF
AS_FE_MODE
     20475**DCL     20476--REDEF
AS_MODE
     20472**DCL     20474--REDEF
AS_MOD_USER.ACCESS
     23337**DCL     23338--REDEF
AS_MOD_USER.BANNER
     23324**DCL     23325--REDEF
AS_MOD_USER.BANNER_PERM
     23326**DCL     23327--REDEF
AS_MOD_USER.BILL
     23332**DCL     23333--REDEF
AS_MOD_USER.CPROC
     23328**DCL     23329--REDEF
AS_MOD_USER.FEBILL
     23408**DCL     23409--REDEF
AS_MOD_USER.FECXTMEM
     23425**DCL     23426--REDEF
AS_MOD_USER.FEMINTS
     23410**DCL     23411--REDEF
AS_MOD_USER.FEMMEM
     23421**DCL     23422--REDEF
AS_MOD_USER.FEMTIME
     23419**DCL     23420--REDEF
AS_MOD_USER.FEPPRIV
     23416**DCL     23418--REDEF
AS_MOD_USER.FEPRIV
     23413**DCL     23415--REDEF
AS_MOD_USER.FORCE_BIT
     23322**DCL     23323--REDEF
AS_MOD_USER.KEY
     23404**DCL     23406--REDEF
AS_MOD_USER.LASTCPROC
     23330**DCL     23331--REDEF
PL6.E3A0      #001=ASB$GET_NEXT_STATION File=ASB$FIND_STATION.:E05TSI            TUE 07/29/97 09:21 Page:24
AS_MOD_USER.LIMITS.DO_
     23378**DCL     23379--REDEF
AS_MOD_USER.LIMITS.FPOOLS
     23394**DCL     23395--REDEF
AS_MOD_USER.LIMITS.LO
     23374**DCL     23375--REDEF
AS_MOD_USER.LIMITS.MEM
     23370**DCL     23371--REDEF
AS_MOD_USER.LIMITS.MPRIO
     23398**DCL     23399--REDEF
AS_MOD_USER.LIMITS.PDIS
     23386**DCL     23387--REDEF
AS_MOD_USER.LIMITS.PO
     23382**DCL     23383--REDEF
AS_MOD_USER.LIMITS.TDIS
     23390**DCL     23391--REDEF
AS_MOD_USER.LIMITS.TIME
     23366**DCL     23367--REDEF
AS_MOD_USER.MAXENQ
     23347**DCL     23348--REDEF
AS_MOD_USER.PERM_BIT
     23320**DCL     23321--REDEF
AS_MOD_USER.PPRIV
     23342**DCL     23344--REDEF
AS_MOD_USER.PRIOB
     23349**DCL     23350--REDEF
AS_MOD_USER.PRIV
     23339**DCL     23341--REDEF
AS_MOD_USER.QUAN
     23345**DCL     23346--REDEF
AS_MOD_USER.SETUP
     23318**DCL     23319--REDEF
AS_PROJECT.BANNER_PERM
     21658**DCL     21659--REDEF
AS_PROJECT.BUDGET.MACCT
     21563**DCL     21567--REDEF
PL6.E3A0      #001=ASB$GET_NEXT_STATION File=ASB$FIND_STATION.:E05TSI            TUE 07/29/97 09:21 Page:25
AS_PROJECT.BUDGET.MAX_PROJECTS
     21576**DCL     21579--REDEF
AS_PROJECT.BUDGET.PACCUM
     21559**DCL     21561--REDEF
AS_PROJECT.BUDGET.PMAXC
     21554**DCL     21556--REDEF
AS_PROJECT.SETUP_CHRA.TXT
     21674**DCL     21675--REDEF   21676--REDEF
AS_PROJECT_DFLT.BANNER_PERM
     21836**DCL     21837--REDEF
AS_PROJECT_DFLT.BUDGET.MACCT
     21741**DCL     21745--REDEF
AS_PROJECT_DFLT.BUDGET.MAX_PROJECTS
     21754**DCL     21757--REDEF
AS_PROJECT_DFLT.BUDGET.PACCUM
     21737**DCL     21739--REDEF
AS_PROJECT_DFLT.BUDGET.PMAXC
     21732**DCL     21734--REDEF
AS_PROJECT_DFLT.SETUP_CHRA.TXT
     21852**DCL     21853--REDEF   21854--REDEF
AS_PROJECT_DFLT_DREC.PASSWORD
     23058**DCL     23062--REDEF
AS_PROJECT_DFLT_DREC.RENAME
     23081**DCL     23082--REDEF
AS_PROJECT_DREC.PASSWORD
     22896**DCL     22900--REDEF
AS_PROJECT_DREC.RENAME
     22919**DCL     22920--REDEF
AS_PROJ_ADMIN.BANNER_PERM
     21480**DCL     21481--REDEF
AS_PROJ_ADMIN.BUDGET.MACCT
     21385**DCL     21389--REDEF
AS_PROJ_ADMIN.BUDGET.MAX_PROJECTS
     21398**DCL     21401--REDEF
AS_PROJ_ADMIN.BUDGET.PACCUM
     21381**DCL     21383--REDEF
PL6.E3A0      #001=ASB$GET_NEXT_STATION File=ASB$FIND_STATION.:E05TSI            TUE 07/29/97 09:21 Page:26
AS_PROJ_ADMIN.BUDGET.PMAXC
     21376**DCL     21378--REDEF
AS_PROJ_ADMIN.SETUP_CHRA.TXT
     21496**DCL     21497--REDEF   21498--REDEF
AS_PROJ_ADMIN_DREC.PASSWORD
     22734**DCL     22738--REDEF
AS_PROJ_ADMIN_DREC.RENAME
     22757**DCL     22758--REDEF
AS_USERS.BANNER_PERM
     20946**DCL     20947--REDEF
AS_USERS.BUDGET.MACCT
     20851**DCL     20855--REDEF
AS_USERS.BUDGET.MAX_PROJECTS
     20864**DCL     20867--REDEF
AS_USERS.BUDGET.PACCUM
     20847**DCL     20849--REDEF
AS_USERS.BUDGET.PMAXC
     20842**DCL     20844--REDEF
AS_USERS.SETUP_CHRA.TXT
     20962**DCL     20963--REDEF   20964--REDEF
AS_USERS_CONSTANT.BANNER_PERM
     22014**DCL     22015--REDEF
AS_USERS_CONSTANT.BUDGET.MACCT
     21919**DCL     21923--REDEF
AS_USERS_CONSTANT.BUDGET.MAX_PROJECTS
     21932**DCL     21935--REDEF
AS_USERS_CONSTANT.BUDGET.PACCUM
     21915**DCL     21917--REDEF
AS_USERS_CONSTANT.BUDGET.PMAXC
     21910**DCL     21912--REDEF
AS_USERS_CONSTANT.SETUP_CHRA.TXT
     22030**DCL     22031--REDEF   22032--REDEF
DSEG1$
     20610**DCL     23480--IMP-PTR 23525<>CALL    23529>>DOWHILE 23529>>DOWHILE 23532>>IF
DSEG1SIZE
     20611**DCL     23524>>ASSIGN
PL6.E3A0      #001=ASB$GET_NEXT_STATION File=ASB$FIND_STATION.:E05TSI            TUE 07/29/97 09:21 Page:27
DSEG2$
     20611**DCL     23487--IMP-PTR 23538<>CALL
DSEG2SIZE
     20611**DCL     23537>>ASSIGN
ERR_CODE
     20604**DCL     20605--REDEF
KL$WSNCVT.LTWSN
     23483**DCL     23529>>DOWHILE 23532>>IF
KL$WSNCVT.WSN
     23484**DCL     23529>>DOWHILE
KL_DEFAULT.PASSWORD
     23220**DCL     23224--REDEF
KL_DEFAULT.RENAME
     23243**DCL     23244--REDEF
KL_DFLT.PASSWORD
     22410**DCL     22414--REDEF
KL_DFLT.RENAME
     22433**DCL     22434--REDEF
KL_DREC.PASSWORD
     22248**DCL     22252--REDEF
KL_DREC.RENAME
     22271**DCL     22272--REDEF
KL_DREC_CNT.PASSWORD
     22135**DCL     22139--REDEF
KL_DREC_CNT.RENAME
     22158**DCL     22159--REDEF
PROJ_KEY.TEXT
     20482**DCL     20482--REDEF
PROJ_KEY.TXT.PROJECT
     20482**DCL     20482--REDEF
REMEM_VAR
     20608**DCL     20608--REDEF
REM_FCMD
     20608**DCL     20609--REDEF
STAT_ARS
     23516**DCL     23524<<ASSIGN  23525<>CALL    23537<<ASSIGN  23538<>CALL
PL6.E3A0      #001=ASB$GET_NEXT_STATION File=ASB$FIND_STATION.:E05TSI            TUE 07/29/97 09:21 Page:28
TWSN
     23475**DCL         6--PROC    23529>>DOWHILE 23529>>DOWHILE 23530<<ASSIGN  23530>>ASSIGN  23532>>IF
     23534>>CALLBLT
TWSNCHAR
     23517**DCL     23534<<CALLBLT 23536>>CALLBLT
USERS_KEY
     20479**DCL     23526<>CALL    23539<>CALL
USERS_KEY.COUNT
     20479**DCL     23522<<ASSIGN  23535<<ASSIGN
USERS_KEY.TEXT
     20479**DCL     20480--REDEF   20480--REDEF   20480--REDEF   20481--REDEF
USERS_KEY.TXTC
     20480**DCL     23523<<ASSIGN  23536<<CALLBLT

PL6.E3A0      #002=ASB$INIT_GET_STATION File=ASB$FIND_STATION.:E05TSI            TUE 07/29/97 09:22 Page:29
       89        1        /*T***********************************************************/
       90        2        /*T*                                                         */
       91        3        /*T* Copyright (c) Bull HN Information Systems Inc., 1997    */
       92        4        /*T*                                                         */
       93        5        /*T***********************************************************/
       94        6        %EJECT;
PL6.E3A0      #002=ASB$INIT_GET_STATION File=ASB$FIND_STATION.:E05TSI            TUE 07/29/97 09:22 Page:30
       95        7        %EJECT;
PL6.E3A0      #002=ASB$INIT_GET_STATION File=ASB$FIND_STATION.:E05TSI            TUE 07/29/97 09:22 Page:31
       96        8        ASB$INIT_GET_STATION: PROC ALTRET;
       97        9
       98       10        /*D*
       99       11             NAME: ASB$INIT_GET_STATION
      100       12             CALL: CALL ASB$INIT_GET_STATION
      101       13             INPUT:
      102       14             OUTPUT:
      103       15             DESCRIPTION:
      104       16                  This routine will read the TERM record from :HLP into
      105       17                  data segment 1.  Since the TERM record is a list of all
      106       18                  stations defined on the system that is all it needs to do.
      107       19        */
      108       20        /********************************************************************/
      109       21        /*   Include files   include files   include files   include files  */
      110       22        /********************************************************************/
      111       23        %INCLUDE AS_PERR_C;
      112      625        %INCLUDE AS_SUPER_C;
      113     1060        %INCLUDE KL_SUPER_C;
      114     3962        %INCLUDE XU_MACRO_C;
      115     7068        %INCLUDE XU_FORMAT_C;
      116     7230        %INCLUDE AS_MAC_C;
      117     7310        %INCLUDE AS_SUBS_C;
      118     8724        %INCLUDE AS_ENTRIES_M;
      119     9774        %INCLUDE AS_SSUBS_C;
      120     9866        %INCLUDE B_ERRORS_C;
      121    10993        %INCLUDE CP_6;
      122    16552        %INCLUDE CP_6_SUBS;
      123    17092        %INCLUDE KL_MACRO_C;
      124    20444        %INCLUDE AS_SUPER_R;
      125    23460        %EJECT;
PL6.E3A0      #002=ASB$INIT_GET_STATION File=ASB$FIND_STATION.:E05TSI            TUE 07/29/97 09:22 Page:32
      126    23461        /********************************************************************/
      127    23462        /*   Entry dcls      entry dcls      entry dcls      entry dcls     */
      128    23463        /********************************************************************/
      129    23464        %ASV$VALIDATE_STATION ;
      130    23467        %ASB$ENQ_HLP ;
      131    23470        %ASB$DEQ_HLP ;
      132    23473        %ASB$READ_HLP ;
      133    23476        %ASB$WRITE_HLP ;
      134    23479        %ASA$ERROR ;
      135    23482        %EJECT;
PL6.E3A0      #002=ASB$INIT_GET_STATION File=ASB$FIND_STATION.:E05TSI            TUE 07/29/97 09:22 Page:33
      136    23483        /********************************************************************/
      137    23484        /*   Local based     local based     local based     local based    */
      138    23485        /********************************************************************/
      139    23486        %KL_WSNCVT(NAME = KL$WSNCVT,STCLASS="BASED(DSEG1$)");
      140    23493        %EJECT;
PL6.E3A0      #002=ASB$INIT_GET_STATION File=ASB$FIND_STATION.:E05TSI            TUE 07/29/97 09:22 Page:34
      141    23494        /********************************************************************/
      142    23495        /*   Auto data       auto data       auto data       auto data      */
      143    23496        /********************************************************************/
      144    23497    1   DCL I UBIN;
      145    23498    1   DCL STAT_ARS UBIN;
      146    23499    1   DCL CHANGE  BIT(1);
      147    23500        %EJECT;
PL6.E3A0      #002=ASB$INIT_GET_STATION File=ASB$FIND_STATION.:E05TSI            TUE 07/29/97 09:22 Page:35
      148    23501        /********************************************************************/
      149    23502        /*   Procedure       procedure       procedure       procedure      */
      150    23503        /********************************************************************/
      151    23504    1   CHANGE = AS_FALSE;
      152    23505        /*
      153    23506          Setup and get the 'TERM' record from :HLP
      154    23507        */
      155    23508    1   USERS_KEY.COUNT = 4;
      156    23509    1   USERS_KEY.TW.NAME = 'TERM';
      157    23510    1   STAT_ARS = DSEG1SIZE;
      158    23511    1   CALL ASB$ENQ_HLP;
      159    23512    2   CALL ASB$READ_HLP(DSEG1$ ,STAT_ARS, 1 ) WHENALTRETURN DO;
      160    23513    2      CALL ASA$ERROR ( USERS_KEY, E$UNABLE_TO_READ_HLP);
      161    23514    2      CALL ASB$DEQ_HLP;
      162    23515    2      RETURN;
      163    23516    2      END;
      164    23517    2   DO I = 0 TO KL$WSNCVT.LTWSN;
      165    23518    2      IF KL$WSNCVT.WSN(I) ~= ' ' THEN
      166    23519    2         CALL ASV$VALIDATE_STATION (KL$WSNCVT.WSN(I), I)
      167    23520    3         WHENALTRETURN DO;
      168    23521    3            CHANGE = %YES#;
      169    23522    3            END; /*  Whenaltreturn  */
      170    23523    2      END; /*  Do i  */
      171    23524    1   IF CHANGE THEN
      172    23525    2   DO;
      173    23526    2      USERS_KEY.COUNT = 4;
      174    23527    2      USERS_KEY.TXTC  = 'TERM';
      175    23528    2      CALL ASB$WRITE_HLP( DSEG1$, STAT_ARS );
      176    23529    2      END; /*  If change  */
      177    23530    1   CALL ASB$DEQ_HLP;
      178    23531
      179    23532    1   RETURN ;
      180    23533    1   END ASB$INIT_GET_STATION;

PL6.E3A0      #002=ASB$INIT_GET_STATION File=ASB$FIND_STATION.:E05TSI            TUE 07/29/97 09:22 Page:36
--  Include file information  --

   AS_SUPER_R.:E05TOU  cannot be made into a system file and is referenced.
   KL_MACRO_C.:E05TOU  is referenced.
   CP_6_SUBS.:E05TOU  is referenced.
   CP_6_C.:E05TOU  is referenced.
   CP_6.:E05TOU  cannot be made into a system file and is referenced.
   B_ERRORS_C.:E05TOU  is referenced.
   AS_SSUBS_C.:E05TOU  is referenced.
   AS_ENTRIES_M.:E05TOU  is referenced.
   AS_SUBS_C.:E05TOU  is referenced.
   AS_MAC_C.:E05TOU  cannot be made into a system file and is referenced.
   XU_FORMAT_C.:E05TOU  is referenced.
   XU_MACRO_C.:E05TOU  is referenced.
   KL_SUPER_C.:E05TOU  is referenced.
   AS_SUPER_C.:E05TOU  is referenced.
   AS_PERR_C.:E05TOU  is referenced.
      No diagnostics issued in procedure ASB$INIT_GET_STATION.

   Procedure ASB$INIT_GET_STATION requires 83 words for executable code.
   Procedure ASB$INIT_GET_STATION requires 10 words of local(AUTO) storage.

    No errors detected in file ASB$FIND_STATION.:E05TSI    .

PL6.E3A0      #002=ASB$INIT_GET_STATION File=ASB$FIND_STATION.:E05TSI            TUE 07/29/97 09:22 Page:37

 Object Unit name= ASB$INIT_GET_STATION                       File name= ASB$FIND_STATION.:E05TOU
 UTS= JUL 29 '97 09:22:58.80 TUE                              Compiler= PL-6/E31         Sev=      00
 SharedLib= :SHARED_SYSTEM                                    Alt SharedLib=


    ****  Control sections  ****

 Sect   Type Bound  Init  Size OctSiz  Section name(segment info)
    0   DCB   even  none     0      0  M$UC
    1   DCB   even  none     0      0  M$LO
    2  RoData even  UTS      1      1  ASB$INIT_GET_STATION
    3   Proc  even  none    83    123  ASB$INIT_GET_STATION
    4  RoData even  none     5      5  ASB$INIT_GET_STATION

    ****  Entry defs  ****

                              Check   Calling
                             calling  sequence
  Sect OctLoc Primary Altret sequence   type   Parms  Name
     3      0   yes    yes     yes      Std        0  ASB$INIT_GET_STATION

  ****  Entry refs  ****

         Check        Calling
        calling       sequence
Altret sequence SRef   type   Args  Name
         yes          ~proc      0 XU_OUTPUT_OPTIONS
 yes     yes           Std       2 ASB$WRITE_HLP
 yes     yes           Std       0 ASB$ENQ_HLP
 yes     yes           Std       3 ASB$READ_HLP
         yes           Std       3 ASA$ERROR
 yes     yes           Std       0 ASB$DEQ_HLP
 yes     yes           Std       2 ASV$VALIDATE_STATION
                       nStd      0 X66_AUTO_0
                       Std       0 B_CONSPOOL_D
                       nStd      0 X66_ARET
PL6.E3A0      #002=ASB$INIT_GET_STATION File=ASB$FIND_STATION.:E05TSI            TUE 07/29/97 09:22 Page:38

  ****  Data refs  ****

  Flags:  r = read only, s = secondary
Flgs Name                             Flgs Name                             Flgs Name
     M$UC                             r    AS_FALSE                         r    AS_MODE
r    AS_FE_MODE                            M$LO                                  USERS_KEY
     ERR_CODE                              REMEM_VAR                             REM_FCMD
     ASA_BRKS_LOC                          DSEG1$                                DSEG1SIZE
     B_VECTNIL

  ****  Segment refs  ****

  Flags:  r = read only, s = secondary
Flgs Name                             Flgs Name                             Flgs Name
     ISSID
PL6.E3A0      #002=ASB$INIT_GET_STATION File=ASB$FIND_STATION.:E05TSI            TUE 07/29/97 09:22 Page:39


       89        1        /*T***********************************************************/
       90        2        /*T*                                                         */
       91        3        /*T* Copyright (c) Bull HN Information Systems Inc., 1997    */
       92        4        /*T*                                                         */
       93        5        /*T***********************************************************/
       94        6        %EJECT;
PL6.E3A0      #002=ASB$INIT_GET_STATION File=ASB$FIND_STATION.:E05TSI            TUE 07/29/97 09:22 Page:40
       95        7        %EJECT;
PL6.E3A0      #002=ASB$INIT_GET_STATION File=ASB$FIND_STATION.:E05TSI            TUE 07/29/97 09:22 Page:41
       96        8        ASB$INIT_GET_STATION: PROC ALTRET;

      8  3 000000   000000 700200 xent  ASB$INIT_GE* TSX0  ! X66_AUTO_0
         3 000001   000012 000000                    ZERO    10,0

       97        9
       98       10        /*D*
       99       11             NAME: ASB$INIT_GET_STATION
      100       12             CALL: CALL ASB$INIT_GET_STATION
      101       13             INPUT:
      102       14             OUTPUT:
      103       15             DESCRIPTION:
      104       16                  This routine will read the TERM record from :HLP into
      105       17                  data segment 1.  Since the TERM record is a list of all
      106       18                  stations defined on the system that is all it needs to do.
      107       19        */
      108       20        /********************************************************************/
      109       21        /*   Include files   include files   include files   include files  */
      110       22        /********************************************************************/
      111       23        %INCLUDE AS_PERR_C;
      112      625        %INCLUDE AS_SUPER_C;
      113     1060        %INCLUDE KL_SUPER_C;
      114     3962        %INCLUDE XU_MACRO_C;
      115     7068        %INCLUDE XU_FORMAT_C;
      116     7230        %INCLUDE AS_MAC_C;
      117     7310        %INCLUDE AS_SUBS_C;
      118     8724        %INCLUDE AS_ENTRIES_M;
      119     9774        %INCLUDE AS_SSUBS_C;
      120     9866        %INCLUDE B_ERRORS_C;
      121    10993        %INCLUDE CP_6;
      122    16552        %INCLUDE CP_6_SUBS;
      123    17092        %INCLUDE KL_MACRO_C;
      124    20444        %INCLUDE AS_SUPER_R;
      125    23460        %EJECT;
PL6.E3A0      #002=ASB$INIT_GET_STATION File=ASB$FIND_STATION.:E05TSI            TUE 07/29/97 09:22 Page:42
      126    23461        /********************************************************************/
      127    23462        /*   Entry dcls      entry dcls      entry dcls      entry dcls     */
      128    23463        /********************************************************************/
      129    23464        %ASV$VALIDATE_STATION ;
      130    23467        %ASB$ENQ_HLP ;
      131    23470        %ASB$DEQ_HLP ;
      132    23473        %ASB$READ_HLP ;
      133    23476        %ASB$WRITE_HLP ;
      134    23479        %ASA$ERROR ;
      135    23482        %EJECT;
PL6.E3A0      #002=ASB$INIT_GET_STATION File=ASB$FIND_STATION.:E05TSI            TUE 07/29/97 09:22 Page:43
      136    23483        /********************************************************************/
      137    23484        /*   Local based     local based     local based     local based    */
      138    23485        /********************************************************************/
      139    23486        %KL_WSNCVT(NAME = KL$WSNCVT,STCLASS="BASED(DSEG1$)");
      140    23493        %EJECT;
PL6.E3A0      #002=ASB$INIT_GET_STATION File=ASB$FIND_STATION.:E05TSI            TUE 07/29/97 09:22 Page:44
      141    23494        /********************************************************************/
      142    23495        /*   Auto data       auto data       auto data       auto data      */
      143    23496        /********************************************************************/
      144    23497    1   DCL I UBIN;
      145    23498    1   DCL STAT_ARS UBIN;
      146    23499    1   DCL CHANGE  BIT(1);
      147    23500        %EJECT;
PL6.E3A0      #002=ASB$INIT_GET_STATION File=ASB$FIND_STATION.:E05TSI            TUE 07/29/97 09:22 Page:45
      148    23501        /********************************************************************/
      149    23502        /*   Procedure       procedure       procedure       procedure      */
      150    23503        /********************************************************************/
      151    23504    1   CHANGE = AS_FALSE;

  23504  3 000002   000000 236000 xsym               LDQ     AS_FALSE
         3 000003   400000 376003                    ANQ     -131072,DU
         3 000004   200005 756100                    STQ     CHANGE,,AUTO

      152    23505        /*
      153    23506          Setup and get the 'TERM' record from :HLP
      154    23507        */
      155    23508    1   USERS_KEY.COUNT = 4;

  23508  3 000005   004000 236003                    LDQ     2048,DU
         3 000006   000000 552040 xsym               STBQ    USERS_KEY,'40'O

      156    23509    1   USERS_KEY.TW.NAME = 'TERM';

  23509  3 000007   040000 100400                    MLR     fill='040'O
         3 000010   000000 000004 2                  ADSC9   0                        cn=0,n=4
         3 000011   000000 200004 xsym               ADSC9   USERS_KEY                cn=1,n=4

      157    23510    1   STAT_ARS = DSEG1SIZE;

  23510  3 000012   000000 235000 xsym               LDA     DSEG1SIZE
         3 000013   200004 755100                    STA     STAT_ARS,,AUTO

      158    23511    1   CALL ASB$ENQ_HLP;

  23511  3 000014   000002 631400 xsym               EPPR1   B_VECTNIL+2
         3 000015   000000 701000 xent               TSX1    ASB$ENQ_HLP
         3 000016   000000 011000                    NOP     0

      159    23512    2   CALL ASB$READ_HLP(DSEG1$ ,STAT_ARS, 1 ) WHENALTRETURN DO;

  23512  3 000017   000000 236000 4                  LDQ     0
PL6.E3A0      #002=ASB$INIT_GET_STATION File=ASB$FIND_STATION.:E05TSI            TUE 07/29/97 09:22 Page:46
         3 000020   200010 756100                    STQ     CHANGE+3,,AUTO
         3 000021   200004 630500                    EPPR0   STAT_ARS,,AUTO
         3 000022   200007 450500                    STP0    CHANGE+2,,AUTO
         3 000023   000001 236000 4                  LDQ     1
         3 000024   200006 756100                    STQ     CHANGE+1,,AUTO
         3 000025   200006 630500                    EPPR0   CHANGE+1,,AUTO
         3 000026   000021 631400 xsym               EPPR1   B_VECTNIL+17
         3 000027   000000 701000 xent               TSX1    ASB$READ_HLP
         3 000030   000032 702000 3                  TSX2    s:23513
         3 000031   000042 710000 3                  TRA     s:23517

      160    23513    2      CALL ASA$ERROR ( USERS_KEY, E$UNABLE_TO_READ_HLP);

  23513  3 000032   000003 630400 4                  EPPR0   3
         3 000033   000020 631400 xsym               EPPR1   B_VECTNIL+16
         3 000034   000000 701000 xent               TSX1    ASA$ERROR
         3 000035   000000 011000                    NOP     0

      161    23514    2      CALL ASB$DEQ_HLP;

  23514  3 000036   000002 631400 xsym               EPPR1   B_VECTNIL+2
         3 000037   000000 701000 xent               TSX1    ASB$DEQ_HLP
         3 000040   000000 011000                    NOP     0

      162    23515    2      RETURN;

  23515  3 000041   000000 702200 xent               TSX2  ! X66_ARET

      163    23516    2      END;
      164    23517    2   DO I = 0 TO KL$WSNCVT.LTWSN;

  23517  3 000042   200003 450100                    STZ     I,,AUTO
         3 000043   000074 710000 3                  TRA     s:23523+3

      165    23518    2      IF KL$WSNCVT.WSN(I) ~= ' ' THEN

  23518  3 000044   200003 235100                    LDA     I,,AUTO
PL6.E3A0      #002=ASB$INIT_GET_STATION File=ASB$FIND_STATION.:E05TSI            TUE 07/29/97 09:22 Page:47
         3 000045   000003 735000                    ALS     3
         3 000046   000000 470400 xsym               LDP0    DSEG1$
         3 000047   040000 106505                    CMPC    fill='040'O
         3 000050   000002 000010                    ADSC9   2,A,PR0                  cn=0,n=8
         3 000051   000035 000001 xsym               ADSC9   B_VECTNIL+29             cn=0,n=1
         3 000052   000071 600000 3                  TZE     s:23523

      166    23519    2         CALL ASV$VALIDATE_STATION (KL$WSNCVT.WSN(I), I)

  23519  3 000053   200003 631500                    EPPR1   I,,AUTO
         3 000054   200007 451500                    STP1    CHANGE+2,,AUTO
         3 000055   200003 236100                    LDQ     I,,AUTO
         3 000056   000023 736000                    QLS     19
         3 000057   000002 036003                    ADLQ    2,DU
         3 000060   000000 036000 xsym               ADLQ    DSEG1$
         3 000061   200006 756100                    STQ     CHANGE+1,,AUTO
         3 000062   200006 630500                    EPPR0   CHANGE+1,,AUTO
         3 000063   000020 631400 xsym               EPPR1   B_VECTNIL+16
         3 000064   000000 701000 xent               TSX1    ASV$VALIDATE_STATION
         3 000065   000067 702000 3                  TSX2    s:23521
         3 000066   000071 710000 3                  TRA     s:23523

      167    23520    3         WHENALTRETURN DO;

      168    23521    3            CHANGE = %YES#;

  23521  3 000067   400000 236003                    LDQ     -131072,DU
         3 000070   200005 756100                    STQ     CHANGE,,AUTO

      169    23522    3            END; /*  Whenaltreturn  */

      170    23523    2      END; /*  Do i  */

  23523  3 000071   200003 235100                    LDA     I,,AUTO
         3 000072   000001 035007                    ADLA    1,DL
         3 000073   200003 755100                    STA     I,,AUTO
         3 000074   000000 470400 xsym               LDP0    DSEG1$
PL6.E3A0      #002=ASB$INIT_GET_STATION File=ASB$FIND_STATION.:E05TSI            TUE 07/29/97 09:22 Page:48
         3 000075   000001 236100                    LDQ     1,,PR0
         3 000076   200003 116100                    CMPQ    I,,AUTO
         3 000077   000044 603000 3                  TRC     s:23518

      171    23524    1   IF CHANGE THEN

  23524  3 000100   200005 234100                    SZN     CHANGE,,AUTO
         3 000101   000117 605000 3                  TPL     s:23530

      172    23525    2   DO;

      173    23526    2      USERS_KEY.COUNT = 4;

  23526  3 000102   004000 236003                    LDQ     2048,DU
         3 000103   000000 552040 xsym               STBQ    USERS_KEY,'40'O

      174    23527    2      USERS_KEY.TXTC  = 'TERM';

  23527  3 000104   040000 100400                    MLR     fill='040'O
         3 000105   000000 000004 2                  ADSC9   0                        cn=0,n=4
         3 000106   000000 200051 xsym               ADSC9   USERS_KEY                cn=1,n=41

      175    23528    2      CALL ASB$WRITE_HLP( DSEG1$, STAT_ARS );

  23528  3 000107   200004 631500                    EPPR1   STAT_ARS,,AUTO
         3 000110   200007 451500                    STP1    CHANGE+2,,AUTO
         3 000111   000001 236000 4                  LDQ     1
         3 000112   200006 756100                    STQ     CHANGE+1,,AUTO
         3 000113   200006 630500                    EPPR0   CHANGE+1,,AUTO
         3 000114   000020 631400 xsym               EPPR1   B_VECTNIL+16
         3 000115   000000 701000 xent               TSX1    ASB$WRITE_HLP
         3 000116   000000 011000                    NOP     0

      176    23529    2      END; /*  If change  */

      177    23530    1   CALL ASB$DEQ_HLP;

PL6.E3A0      #002=ASB$INIT_GET_STATION File=ASB$FIND_STATION.:E05TSI            TUE 07/29/97 09:22 Page:49
  23530  3 000117   000002 631400 xsym               EPPR1   B_VECTNIL+2
         3 000120   000000 701000 xent               TSX1    ASB$DEQ_HLP
         3 000121   000000 011000                    NOP     0

      178    23531
      179    23532    1   RETURN ;

  23532  3 000122   000000 702200 xent               TSX2  ! X66_ARET
      180    23533    1   END ASB$INIT_GET_STATION;

PL6.E3A0      #002=ASB$INIT_GET_STATION File=ASB$FIND_STATION.:E05TSI            TUE 07/29/97 09:22 Page:50
--  Include file information  --

   AS_SUPER_R.:E05TOU  cannot be made into a system file and is referenced.
   KL_MACRO_C.:E05TOU  is referenced.
   CP_6_SUBS.:E05TOU  is referenced.
   CP_6_C.:E05TOU  is referenced.
   CP_6.:E05TOU  cannot be made into a system file and is referenced.
   B_ERRORS_C.:E05TOU  is referenced.
   AS_SSUBS_C.:E05TOU  is referenced.
   AS_ENTRIES_M.:E05TOU  is referenced.
   AS_SUBS_C.:E05TOU  is referenced.
   AS_MAC_C.:E05TOU  cannot be made into a system file and is referenced.
   XU_FORMAT_C.:E05TOU  is referenced.
   XU_MACRO_C.:E05TOU  is referenced.
   KL_SUPER_C.:E05TOU  is referenced.
   AS_SUPER_C.:E05TOU  is referenced.
   AS_PERR_C.:E05TOU  is referenced.
      No diagnostics issued in procedure ASB$INIT_GET_STATION.
PL6.E3A0      #002=ASB$INIT_GET_STATION File=ASB$FIND_STATION.:E05TSI            TUE 07/29/97 09:22 Page:51

 **** Variables and constants ****

  ****  Auto variables  ****

  ****  Scalars and arrays  ****
OctLoc.c.b A Datatyp(siz) R M Lvl/name                 OctLoc.c.b A Datatyp(siz) R M Lvl/name

     5-0-0/b BIT         r     1 CHANGE                     3-0-0/w UBIN        r     1 I
     4-0-0/w UBIN        r     1 STAT_ARS

  ****  SYMREF variables  ****

  ****  Scalars and arrays  ****
OctLoc.c.b A Datatyp(siz) R M Lvl/name                 OctLoc.c.b A Datatyp(siz) R M Lvl/name

     0-0-0/b BIT         r     1 AS_FALSE                   0-0-0/w PTR         r     1 DSEG1$
     0-0-0/w UBIN        r     1 DSEG1SIZE                  0-0-0/c STRC(378)   r     1 USERS_KEY

  ****  BASED and DCB variables  ****

  ****  Scalars and arrays  ****
OctLoc.c.b A Datatyp(siz) R M Lvl/name                 OctLoc.c.b A Datatyp(siz) R M Lvl/name

     0-0-0/w STRC(144)   r     1 KL$WSNCVT


   Procedure ASB$INIT_GET_STATION requires 83 words for executable code.
   Procedure ASB$INIT_GET_STATION requires 10 words of local(AUTO) storage.

    No errors detected in file ASB$FIND_STATION.:E05TSI    .
PL6.E3A0      #002=ASB$INIT_GET_STATION File=ASB$FIND_STATION.:E05TSI            TUE 07/29/97 09:22 Page:52
          *** CROSS REFERENCE LISTING ***
**     DENOTES     IDENTIFIER DEFINITION
<<                 IDENTIFIER'S VALUE SET
>>                 IDENTIFIER'S VALUE USED
<>                 IDENTIFIER SET AND/OR USED
--                 IDENTIFIER REFERENCED
PL6.E3A0      #002=ASB$INIT_GET_STATION File=ASB$FIND_STATION.:E05TSI            TUE 07/29/97 09:22 Page:53
          MINI XREF LISTING

ASA$ERROR
     23480**DCL-ENT 23513--CALL
ASA_BRKS_LOC
     20608**DCL     20608--REDEF
ASB$DEQ_HLP
     23471**DCL-ENT 23514--CALL    23530--CALL
ASB$ENQ_HLP
     23468**DCL-ENT 23511--CALL
ASB$READ_HLP
     23474**DCL-ENT 23512--CALL
ASB$WRITE_HLP
     23477**DCL-ENT 23528--CALL
ASV$VALIDATE_STATION
     23465**DCL-ENT 23519--CALL
AS_DEFAULT.BANNER_PERM
     21301**DCL     21302--REDEF
AS_DEFAULT.BUDGET.MACCT
     21206**DCL     21210--REDEF
AS_DEFAULT.BUDGET.MAX_PROJECTS
     21219**DCL     21222--REDEF
AS_DEFAULT.BUDGET.PACCUM
     21202**DCL     21204--REDEF
AS_DEFAULT.BUDGET.PMAXC
     21197**DCL     21199--REDEF
AS_DEFAULT.SETUP_CHRA.TXT
     21317**DCL     21318--REDEF   21319--REDEF
AS_DEFAULT_DREC.PASSWORD
     22571**DCL     22575--REDEF
AS_DEFAULT_DREC.RENAME
     22594**DCL     22595--REDEF
AS_DFLT.BANNER_PERM
     21123**DCL     21124--REDEF
PL6.E3A0      #002=ASB$INIT_GET_STATION File=ASB$FIND_STATION.:E05TSI            TUE 07/29/97 09:22 Page:54
AS_DFLT.BUDGET.MACCT
     21028**DCL     21032--REDEF
AS_DFLT.BUDGET.MAX_PROJECTS
     21041**DCL     21044--REDEF
AS_DFLT.BUDGET.PACCUM
     21024**DCL     21026--REDEF
AS_DFLT.BUDGET.PMAXC
     21019**DCL     21021--REDEF
AS_DFLT.SETUP_CHRA.TXT
     21139**DCL     21140--REDEF   21141--REDEF
AS_FALSE
     20468**DCL     23504>>ASSIGN
AS_FE_MODE
     20474**DCL     20475--REDEF
AS_MODE
     20471**DCL     20473--REDEF
AS_MOD_USER.ACCESS
     23336**DCL     23337--REDEF
AS_MOD_USER.BANNER
     23323**DCL     23324--REDEF
AS_MOD_USER.BANNER_PERM
     23325**DCL     23326--REDEF
AS_MOD_USER.BILL
     23331**DCL     23332--REDEF
AS_MOD_USER.CPROC
     23327**DCL     23328--REDEF
AS_MOD_USER.FEBILL
     23407**DCL     23408--REDEF
AS_MOD_USER.FECXTMEM
     23424**DCL     23425--REDEF
AS_MOD_USER.FEMINTS
     23409**DCL     23410--REDEF
AS_MOD_USER.FEMMEM
     23420**DCL     23421--REDEF
AS_MOD_USER.FEMTIME
     23418**DCL     23419--REDEF
PL6.E3A0      #002=ASB$INIT_GET_STATION File=ASB$FIND_STATION.:E05TSI            TUE 07/29/97 09:22 Page:55
AS_MOD_USER.FEPPRIV
     23415**DCL     23417--REDEF
AS_MOD_USER.FEPRIV
     23412**DCL     23414--REDEF
AS_MOD_USER.FORCE_BIT
     23321**DCL     23322--REDEF
AS_MOD_USER.KEY
     23403**DCL     23405--REDEF
AS_MOD_USER.LASTCPROC
     23329**DCL     23330--REDEF
AS_MOD_USER.LIMITS.DO_
     23377**DCL     23378--REDEF
AS_MOD_USER.LIMITS.FPOOLS
     23393**DCL     23394--REDEF
AS_MOD_USER.LIMITS.LO
     23373**DCL     23374--REDEF
AS_MOD_USER.LIMITS.MEM
     23369**DCL     23370--REDEF
AS_MOD_USER.LIMITS.MPRIO
     23397**DCL     23398--REDEF
AS_MOD_USER.LIMITS.PDIS
     23385**DCL     23386--REDEF
AS_MOD_USER.LIMITS.PO
     23381**DCL     23382--REDEF
AS_MOD_USER.LIMITS.TDIS
     23389**DCL     23390--REDEF
AS_MOD_USER.LIMITS.TIME
     23365**DCL     23366--REDEF
AS_MOD_USER.MAXENQ
     23346**DCL     23347--REDEF
AS_MOD_USER.PERM_BIT
     23319**DCL     23320--REDEF
AS_MOD_USER.PPRIV
     23341**DCL     23343--REDEF
AS_MOD_USER.PRIOB
     23348**DCL     23349--REDEF
PL6.E3A0      #002=ASB$INIT_GET_STATION File=ASB$FIND_STATION.:E05TSI            TUE 07/29/97 09:22 Page:56
AS_MOD_USER.PRIV
     23338**DCL     23340--REDEF
AS_MOD_USER.QUAN
     23344**DCL     23345--REDEF
AS_MOD_USER.SETUP
     23317**DCL     23318--REDEF
AS_PROJECT.BANNER_PERM
     21657**DCL     21658--REDEF
AS_PROJECT.BUDGET.MACCT
     21562**DCL     21566--REDEF
AS_PROJECT.BUDGET.MAX_PROJECTS
     21575**DCL     21578--REDEF
AS_PROJECT.BUDGET.PACCUM
     21558**DCL     21560--REDEF
AS_PROJECT.BUDGET.PMAXC
     21553**DCL     21555--REDEF
AS_PROJECT.SETUP_CHRA.TXT
     21673**DCL     21674--REDEF   21675--REDEF
AS_PROJECT_DFLT.BANNER_PERM
     21835**DCL     21836--REDEF
AS_PROJECT_DFLT.BUDGET.MACCT
     21740**DCL     21744--REDEF
AS_PROJECT_DFLT.BUDGET.MAX_PROJECTS
     21753**DCL     21756--REDEF
AS_PROJECT_DFLT.BUDGET.PACCUM
     21736**DCL     21738--REDEF
AS_PROJECT_DFLT.BUDGET.PMAXC
     21731**DCL     21733--REDEF
AS_PROJECT_DFLT.SETUP_CHRA.TXT
     21851**DCL     21852--REDEF   21853--REDEF
AS_PROJECT_DFLT_DREC.PASSWORD
     23057**DCL     23061--REDEF
AS_PROJECT_DFLT_DREC.RENAME
     23080**DCL     23081--REDEF
AS_PROJECT_DREC.PASSWORD
     22895**DCL     22899--REDEF
PL6.E3A0      #002=ASB$INIT_GET_STATION File=ASB$FIND_STATION.:E05TSI            TUE 07/29/97 09:22 Page:57
AS_PROJECT_DREC.RENAME
     22918**DCL     22919--REDEF
AS_PROJ_ADMIN.BANNER_PERM
     21479**DCL     21480--REDEF
AS_PROJ_ADMIN.BUDGET.MACCT
     21384**DCL     21388--REDEF
AS_PROJ_ADMIN.BUDGET.MAX_PROJECTS
     21397**DCL     21400--REDEF
AS_PROJ_ADMIN.BUDGET.PACCUM
     21380**DCL     21382--REDEF
AS_PROJ_ADMIN.BUDGET.PMAXC
     21375**DCL     21377--REDEF
AS_PROJ_ADMIN.SETUP_CHRA.TXT
     21495**DCL     21496--REDEF   21497--REDEF
AS_PROJ_ADMIN_DREC.PASSWORD
     22733**DCL     22737--REDEF
AS_PROJ_ADMIN_DREC.RENAME
     22756**DCL     22757--REDEF
AS_USERS.BANNER_PERM
     20945**DCL     20946--REDEF
AS_USERS.BUDGET.MACCT
     20850**DCL     20854--REDEF
AS_USERS.BUDGET.MAX_PROJECTS
     20863**DCL     20866--REDEF
AS_USERS.BUDGET.PACCUM
     20846**DCL     20848--REDEF
AS_USERS.BUDGET.PMAXC
     20841**DCL     20843--REDEF
AS_USERS.SETUP_CHRA.TXT
     20961**DCL     20962--REDEF   20963--REDEF
AS_USERS_CONSTANT.BANNER_PERM
     22013**DCL     22014--REDEF
AS_USERS_CONSTANT.BUDGET.MACCT
     21918**DCL     21922--REDEF
AS_USERS_CONSTANT.BUDGET.MAX_PROJECTS
     21931**DCL     21934--REDEF
PL6.E3A0      #002=ASB$INIT_GET_STATION File=ASB$FIND_STATION.:E05TSI            TUE 07/29/97 09:22 Page:58
AS_USERS_CONSTANT.BUDGET.PACCUM
     21914**DCL     21916--REDEF
AS_USERS_CONSTANT.BUDGET.PMAXC
     21909**DCL     21911--REDEF
AS_USERS_CONSTANT.SETUP_CHRA.TXT
     22029**DCL     22030--REDEF   22031--REDEF
CHANGE
     23499**DCL     23504<<ASSIGN  23521<<ASSIGN  23524>>IF
DSEG1$
     20609**DCL     23487--IMP-PTR 23512<>CALL    23517>>DOINDEX 23518>>IF      23519>>CALL    23528<>CALL
DSEG1SIZE
     20610**DCL     23510>>ASSIGN
ERR_CODE
     20603**DCL     20604--REDEF
I
     23497**DCL     23517<<DOINDEX 23518>>IF      23519>>CALL    23519<>CALL
KL$WSNCVT.LTWSN
     23490**DCL     23517>>DOINDEX
KL$WSNCVT.WSN
     23491**DCL     23518>>IF      23519<>CALL
KL_DEFAULT.PASSWORD
     23219**DCL     23223--REDEF
KL_DEFAULT.RENAME
     23242**DCL     23243--REDEF
KL_DFLT.PASSWORD
     22409**DCL     22413--REDEF
KL_DFLT.RENAME
     22432**DCL     22433--REDEF
KL_DREC.PASSWORD
     22247**DCL     22251--REDEF
KL_DREC.RENAME
     22270**DCL     22271--REDEF
KL_DREC_CNT.PASSWORD
     22134**DCL     22138--REDEF
KL_DREC_CNT.RENAME
     22157**DCL     22158--REDEF
PL6.E3A0      #002=ASB$INIT_GET_STATION File=ASB$FIND_STATION.:E05TSI            TUE 07/29/97 09:22 Page:59
PROJ_KEY.TEXT
     20481**DCL     20481--REDEF
PROJ_KEY.TXT.PROJECT
     20481**DCL     20481--REDEF
REMEM_VAR
     20607**DCL     20607--REDEF
REM_FCMD
     20607**DCL     20608--REDEF
STAT_ARS
     23498**DCL     23510<<ASSIGN  23512<>CALL    23528<>CALL
USERS_KEY
     20478**DCL     23513<>CALL
USERS_KEY.COUNT
     20478**DCL     23508<<ASSIGN  23526<<ASSIGN
USERS_KEY.TEXT
     20478**DCL     20479--REDEF   20479--REDEF   20479--REDEF   20480--REDEF
USERS_KEY.TW.NAME
     20479**DCL     23509<<ASSIGN
USERS_KEY.TXTC
     20479**DCL     23527<<ASSIGN
