PL6.E3A0      #006=ASB$WILD_MATCH File=ASB$SEARCH.:E05TSI                        TUE 07/29/97 09:36 Page:186
      873        1        /*T***********************************************************/
      874        2        /*T*                                                         */
      875        3        /*T* Copyright (c) Bull HN Information Systems Inc., 1997    */
      876        4        /*T*                                                         */
      877        5        /*T***********************************************************/
      878        6        ASB$WILD_MATCH: PROC( STR_LEN, STRING, MATCH_LEN, MATCH )  ALTRET ;
      879        7
      880        8        /*D* NAME:    ASB$WILD_MATCH
      881        9           CALL:    CALL ASB$WILD_MATCH( STR_LEN, STRING, MATCH_LEN, MATCH ) ALTRET(LABEL) ;
      882       10             INPUT:   STR_LEN - length of STRING.
      883       11                      STRING  - character string to be compared to MATCH.
      884       12                      MATCH_LEN - length of MATCH.
      885       13                      MATCH   - character string with possible wildcarding.
      886       14             OUTPUT:  Nothing.
      887       15             DESCRIPTION:
      888       16                  ASB$WILD_MATCH is a pass through routine to the shared library
      889       17                  for the XUW services.
      890       18                  If X$WILDCMP altrets with anything other than a no match
      891       19                  error, ASB$MATCH reports an error.  If X$WILDCMP altrets
      892       20                  ASB$MATCH altrets.  If X$WILDCMP returns normally, then
      893       21                  ASB$MATCH returns normally.  A normal return means ASB$MATCH
      894       22                  found a match between the string and the pattern.  If
      895       23                  ASB$MATCH altreturns then no match was found.
      896       24        */
      897       25
      898       26        /********************************************************************/
      899       27        /*    Parameters      parameters      parameters      parameters    */
      900       28        /********************************************************************/
      901       29
      902       30    1   DCL STR_LEN UBIN ;
      903       31    1   DCL MATCH_LEN UBIN ;
      904       32    1   DCL STRING CHAR(STR_LEN) ;
      905       33    1   DCL MATCH  CHAR(MATCH_LEN) ;
      906       34
      907       35        /********************************************************************/
      908       36        /*    includes        includes        includes        includes      */
      909       37        /********************************************************************/
PL6.E3A0      #006=ASB$WILD_MATCH File=ASB$SEARCH.:E05TSI                        TUE 07/29/97 09:36 Page:187
      910       38
      911       39        %INCLUDE XUW_MACRO_C;
      912      174        %INCLUDE XU_PERR_C;
      913      365
      914      366           %XUW_ENTRIES;
      915      378           %XUW_WILDCARD (STCLASS = STATIC);
      916      474
      917      475        /********************************************************************/
      918      476        /*              static data       static data       static data     */
      919      477        /********************************************************************/
      920      478
      921      479    1   DCL I   UBIN;
      922      480
      923      481        /********************************************************************/
      924      482        /*    Procedure       procedure       procedure       procedure     */
      925      483        /********************************************************************/
      926      484
      927      485    1   CALL INDEX (I, '?', MATCH)
      928      486    2   WHENRETURN DO;
      929      487    2      XUW_WILDCARD.INPUT_ = VECTOR (STRING);
      930      488    2      XUW_WILDCARD.PATTERN_ = VECTOR (MATCH);
      931      489    2      CALL X$WILDCMP (XUW_WILDCARD)
      932      490    3      WHENRETURN DO;
      933      491    3         RETURN;
      934      492    3         END;
      935      493    3      WHENALTRETURN DO;
      936      494    3         ALTRETURN;
      937      495    3         END;
      938      496    2      END;
      939      497    2   WHENALTRETURN DO;
      940      498    2      IF (SUBSTR (STRING, 0, STR_LEN) = SUBSTR (MATCH, 0, MATCH_LEN))
      941      499    3      THEN DO;
      942      500    3         RETURN;
      943      501    3         END;
      944      502    3      ELSE DO;
      945      503    3         ALTRETURN;
      946      504    3         END;
PL6.E3A0      #006=ASB$WILD_MATCH File=ASB$SEARCH.:E05TSI                        TUE 07/29/97 09:36 Page:188
      947      505    2      END;
      948      506    1   END ASB$WILD_MATCH;

PL6.E3A0      #006=ASB$WILD_MATCH File=ASB$SEARCH.:E05TSI                        TUE 07/29/97 09:36 Page:189
--  Include file information  --

   XU_PERR_C.:E05TOU  is referenced.
   XUW_MACRO_C.:E05TOU  is referenced.
   B$JIT_C.:E05TOU  was found in the system file and is never referenced.
   CP_6_C.:E05TOU  was found in the system file and is never referenced.
      No diagnostics issued in procedure ASB$WILD_MATCH.

   Procedure ASB$WILD_MATCH requires 41 words for executable code.
   Procedure ASB$WILD_MATCH requires 8 words of local(AUTO) storage.

    No errors detected in file ASB$SEARCH.:E05TSI    .

PL6.E3A0      #006=ASB$WILD_MATCH File=ASB$SEARCH.:E05TSI                        TUE 07/29/97 09:36 Page:190

 Object Unit name= ASB$WILD_MATCH                             File name= ASB$SEARCH.:E05TOU
 UTS= JUL 29 '97 09:36:30.72 TUE                              Compiler= PL-6/E31         Sev=      00
 SharedLib= :SHARED_SYSTEM                                    Alt SharedLib=


    ****  Control sections  ****

 Sect   Type Bound  Init  Size OctSiz  Section name(segment info)
    0   Data  even  none    12     14  ASB$WILD_MATCH
    1   Proc  even  none    41     51  ASB$WILD_MATCH
    2  RoData even  none     2      2  ASB$WILD_MATCH

    ****  Entry defs  ****

                              Check   Calling
                             calling  sequence
  Sect OctLoc Primary Altret sequence   type   Parms  Name
     1      0   yes    yes     yes      Std        4  ASB$WILD_MATCH

  ****  Entry refs  ****

         Check        Calling
        calling       sequence
Altret sequence SRef   type   Args  Name
 yes     yes           Std       1 X$WILDCMP
                       nStd      0 X66_AUTO_4
                       Std       0 B_CONSPOOL_D
                       nStd      0 X66_ARET
                       nStd      0 X66_AALT

  ****  Data refs  ****

  Flags:  r = read only, s = secondary
Flgs Name                             Flgs Name                             Flgs Name
     B_VECTNIL
PL6.E3A0      #006=ASB$WILD_MATCH File=ASB$SEARCH.:E05TSI                        TUE 07/29/97 09:36 Page:191

  ****  Segment refs  ****

  Flags:  r = read only, s = secondary
Flgs Name                             Flgs Name                             Flgs Name
     NULLSID                               ISSID
PL6.E3A0      #006=ASB$WILD_MATCH File=ASB$SEARCH.:E05TSI                        TUE 07/29/97 09:36 Page:192


      873        1        /*T***********************************************************/
      874        2        /*T*                                                         */
      875        3        /*T* Copyright (c) Bull HN Information Systems Inc., 1997    */
      876        4        /*T*                                                         */
      877        5        /*T***********************************************************/
      878        6        ASB$WILD_MATCH: PROC( STR_LEN, STRING, MATCH_LEN, MATCH )  ALTRET ;

      6  1 000000   000000 700200 xent  ASB$WILD_MA* TSX0  ! X66_AUTO_4
         1 000001   000010 000004                    ZERO    8,4

      879        7
      880        8        /*D* NAME:    ASB$WILD_MATCH
      881        9           CALL:   CALL ASB$WILD_MATCH( STR_LEN, STRING, MATCH_LEN, MATCH ) ALTRET(LABEL) ;
      882       10             INPUT:   STR_LEN - length of STRING.
      883       11                      STRING  - character string to be compared to MATCH.
      884       12                      MATCH_LEN - length of MATCH.
      885       13                      MATCH   - character string with possible wildcarding.
      886       14             OUTPUT:  Nothing.
      887       15             DESCRIPTION:
      888       16                  ASB$WILD_MATCH is a pass through routine to the shared library
      889       17                  for the XUW services.
      890       18                  If X$WILDCMP altrets with anything other than a no match
      891       19                  error, ASB$MATCH reports an error.  If X$WILDCMP altrets
      892       20                  ASB$MATCH altrets.  If X$WILDCMP returns normally, then
      893       21                  ASB$MATCH returns normally.  A normal return means ASB$MATCH
      894       22                  found a match between the string and the pattern.  If
      895       23                  ASB$MATCH altreturns then no match was found.
      896       24        */
      897       25
      898       26        /********************************************************************/
      899       27        /*    Parameters      parameters      parameters      parameters    */
      900       28        /********************************************************************/
      901       29
      902       30    1   DCL STR_LEN UBIN ;
      903       31    1   DCL MATCH_LEN UBIN ;
      904       32    1   DCL STRING CHAR(STR_LEN) ;
PL6.E3A0      #006=ASB$WILD_MATCH File=ASB$SEARCH.:E05TSI                        TUE 07/29/97 09:36 Page:193
      905       33    1   DCL MATCH  CHAR(MATCH_LEN) ;
      906       34
      907       35        /********************************************************************/
      908       36        /*    includes        includes        includes        includes      */
      909       37        /********************************************************************/
      910       38
      911       39        %INCLUDE XUW_MACRO_C;
      912      174        %INCLUDE XU_PERR_C;
      913      365
      914      366           %XUW_ENTRIES;
      915      378           %XUW_WILDCARD (STCLASS = STATIC);
      916      474
      917      475        /********************************************************************/
      918      476        /*              static data       static data       static data     */
      919      477        /********************************************************************/
      920      478
      921      479    1   DCL I   UBIN;
      922      480
      923      481        /********************************************************************/
      924      482        /*    Procedure       procedure       procedure       procedure     */
      925      483        /********************************************************************/
      926      484
      927      485    1   CALL INDEX (I, '?', MATCH)

    485  1 000002   200005 470500                    LDP0    @MATCH_LEN,,AUTO
         1 000003   000000 720100                    LXL0    0,,PR0
         1 000004   200006 471500                    LDP1    @MATCH,,AUTO
         1 000005   000000 124540                    SCM     mask='000'O
         1 000006   100000 000010                    ADSC9   0,,PR1                   cn=0,n=*X0
         1 000007   000000 000001 2                  ADSC9   0                        cn=0,n=1
         1 000010   200007 000100                    ARG     I,,AUTO
         1 000011   000035 606400 1                  TTN     s:498

      928      486    2   WHENRETURN DO;

      929      487    2      XUW_WILDCARD.INPUT_ = VECTOR (STRING);

PL6.E3A0      #006=ASB$WILD_MATCH File=ASB$SEARCH.:E05TSI                        TUE 07/29/97 09:36 Page:194
    487  1 000012   200003 473500                    LDP3    @STR_LEN,,AUTO
         1 000013   300000 721100                    LXL1    0,,PR3
         1 000014   000000 635011                    EAA     0,X1
         1 000015   000002 771000                    ARL     2
         1 000016   000140 135007                    SBLA    96,DL
         1 000017   200004 236100                    LDQ     @STRING,,AUTO
         1 000020   000002 757000 0                  STAQ    XUW_WILDCARD+2

      930      488    2      XUW_WILDCARD.PATTERN_ = VECTOR (MATCH);

    488  1 000021   000000 720100                    LXL0    0,,PR0
         1 000022   000000 635010                    EAA     0,X0
         1 000023   000002 771000                    ARL     2
         1 000024   000140 135007                    SBLA    96,DL
         1 000025   200006 236100                    LDQ     @MATCH,,AUTO
         1 000026   000000 757000 0                  STAQ    XUW_WILDCARD

      931      489    2      CALL X$WILDCMP (XUW_WILDCARD)

    489  1 000027   000001 630400 2                  EPPR0   1
         1 000030   000017 631400 xsym               EPPR1   B_VECTNIL+15
         1 000031   000000 701000 xent               TSX1    X$WILDCMP
         1 000032   000034 702000 1                  TSX2    s:494

      932      490    3      WHENRETURN DO;

      933      491    3         RETURN;

    491  1 000033   000000 702200 xent               TSX2  ! X66_ARET

      934      492    3         END;
      935      493    3      WHENALTRETURN DO;

      936      494    3         ALTRETURN;

    494  1 000034   000000 702200 xent               TSX2  ! X66_AALT

PL6.E3A0      #006=ASB$WILD_MATCH File=ASB$SEARCH.:E05TSI                        TUE 07/29/97 09:36 Page:195
      937      495    3         END;
      938      496    2      END;
      939      497    2   WHENALTRETURN DO;

      940      498    2      IF (SUBSTR (STRING, 0, STR_LEN) = SUBSTR (MATCH, 0, MATCH_LEN))

    498  1 000035   200003 470500                    LDP0    @STR_LEN,,AUTO
         1 000036   000000 720100                    LXL0    0,,PR0
         1 000037   200005 471500                    LDP1    @MATCH_LEN,,AUTO
         1 000040   100000 721100                    LXL1    0,,PR1
         1 000041   200004 473500                    LDP3    @STRING,,AUTO
         1 000042   200006 474500                    LDP4    @MATCH,,AUTO
         1 000043   040140 106540                    CMPC    fill='040'O
         1 000044   300000 000010                    ADSC9   0,,PR3                   cn=0,n=*X0
         1 000045   400000 000011                    ADSC9   0,,PR4                   cn=0,n=*X1
         1 000046   000050 601000 1                  TNZ     s:503

      941      499    3      THEN DO;

      942      500    3         RETURN;

    500  1 000047   000000 702200 xent               TSX2  ! X66_ARET

      943      501    3         END;
      944      502    3      ELSE DO;

      945      503    3         ALTRETURN;

    503  1 000050   000000 702200 xent               TSX2  ! X66_AALT
      946      504    3         END;
      947      505    2      END;
      948      506    1   END ASB$WILD_MATCH;

PL6.E3A0      #006=ASB$WILD_MATCH File=ASB$SEARCH.:E05TSI                        TUE 07/29/97 09:36 Page:196
--  Include file information  --

   XU_PERR_C.:E05TOU  is referenced.
   XUW_MACRO_C.:E05TOU  is referenced.
   B$JIT_C.:E05TOU  was found in the system file and is never referenced.
   CP_6_C.:E05TOU  was found in the system file and is never referenced.
      No diagnostics issued in procedure ASB$WILD_MATCH.
PL6.E3A0      #006=ASB$WILD_MATCH File=ASB$SEARCH.:E05TSI                        TUE 07/29/97 09:36 Page:197

 **** Variables and constants ****

  ****  Section 000  Data  ASB$WILD_MATCH

  ****  Scalars and arrays  ****
OctLoc.c.b A Datatyp(siz) R M Lvl/name                 OctLoc.c.b A Datatyp(siz) R M Lvl/name

     0-0-0/d STRC(432)   r     1 XUW_WILDCARD

  ****  Auto variables  ****

  ****  Scalars and arrays  ****
OctLoc.c.b A Datatyp(siz) R M Lvl/name                 OctLoc.c.b A Datatyp(siz) R M Lvl/name

     6-0-0/w PTR         r     1 @MATCH                     5-0-0/w PTR         r     1 @MATCH_LEN
     4-0-0/w PTR         r     1 @STRING                    3-0-0/w PTR         r     1 @STR_LEN
     7-0-0/w UBIN        r     1 I                         *0-0-0/c ACHR        r     1 MATCH
    *0-0-0/w UBIN        r     1 MATCH_LEN                 *0-0-0/c ACHR        r     1 STRING
    *0-0-0/w UBIN        r     1 STR_LEN


   Procedure ASB$WILD_MATCH requires 41 words for executable code.
   Procedure ASB$WILD_MATCH requires 8 words of local(AUTO) storage.

    No errors detected in file ASB$SEARCH.:E05TSI    .
PL6.E3A0      #006=ASB$WILD_MATCH File=ASB$SEARCH.:E05TSI                        TUE 07/29/97 09:36 Page:198
          *** CROSS REFERENCE LISTING ***
**     DENOTES     IDENTIFIER DEFINITION
<<                 IDENTIFIER'S VALUE SET
>>                 IDENTIFIER'S VALUE USED
<>                 IDENTIFIER SET AND/OR USED
--                 IDENTIFIER REFERENCED
PL6.E3A0      #006=ASB$WILD_MATCH File=ASB$SEARCH.:E05TSI                        TUE 07/29/97 09:36 Page:199
          MINI XREF LISTING

I
       479**DCL       485<<CALLBLT
MATCH
        33**DCL         6--PROC      485>>CALLBLT   488--ASSIGN    498>>IF
MATCH_LEN
        31**DCL         6--PROC       33--IMP-SIZ   485>>CALLBLT   488>>ASSIGN    498>>IF        498>>IF
STRING
        32**DCL         6--PROC      487--ASSIGN    498>>IF
STR_LEN
        30**DCL         6--PROC       32--IMP-SIZ   487>>ASSIGN    498>>IF        498>>IF
X$WILDCMP
       369**DCL-ENT   489--CALL
XUW_WILDCARD
       440**DCL       489<>CALL
XUW_WILDCARD.INPUT_
       446**DCL       487<<ASSIGN
XUW_WILDCARD.PATTERN_
       441**DCL       488<<ASSIGN
