VERSION E05

PL6.E3A0      #001=ASC$CONFIG File=ASC$CONFIG.:E05TSI                            TUE 07/29/97 09:34 Page:1
        1        1        /*T***********************************************************/
        2        2        /*T*                                                         */
        3        3        /*T* Copyright (c) Bull HN Information Systems Inc., 1997    */
        4        4        /*T*                                                         */
        5        5        /*T***********************************************************/
        6        6        ASC$CONFIG: PROC (WSN_INDEX) ALTRET ;
        7        7        %EJECT ;
PL6.E3A0      #001=ASC$CONFIG File=ASC$CONFIG.:E05TSI                            TUE 07/29/97 09:34 Page:2
        8        8        /*********************************************************************/
        9        9        /*   Include files   include files   include files   include files   */
       10       10        /*********************************************************************/
       11       11                                                                                      /**/
       12       12              %INCLUDE AS_ENTRIES_M ;
       13     1062              %INCLUDE AS_PERR_C ;
       14     1664              %INCLUDE CP_6 ;
       15     7223              %INCLUDE AS_SUPER_C ;
       16     7658              %INCLUDE AS_SSUBS_C ;
       17     7750              %INCLUDE AS_MAC_C ;
       18     7830              %INCLUDE AS_SUBS_C ;
       19     9244              %INCLUDE KL_SUPER_C ;
       20    12146              %INCLUDE XU_MACRO_C ;
       21    15252              %INCLUDE XU_FORMAT_C ;
       22    15414              %INCLUDE B_ERRORS_C ;
       23    16541              %INCLUDE TD$STRUCT ;
       24    16642              %INCLUDE CP_6_SUBS ;
       25    17182              %INCLUDE AS_SUPER_R ;
       26    20198                                                                                      /**/
       27    20199        %EJECT;
PL6.E3A0      #001=ASC$CONFIG File=ASC$CONFIG.:E05TSI                            TUE 07/29/97 09:34 Page:3
       28    20200        /*********************************************************************/
       29    20201        /*   Parameters      include files   include files   include files   */
       30    20202        /*********************************************************************/
       31    20203    1   DCL WSN_INDEX  UBIN;
       32    20204        %EJECT;
PL6.E3A0      #001=ASC$CONFIG File=ASC$CONFIG.:E05TSI                            TUE 07/29/97 09:34 Page:4
       33    20205        /*********************************************************************/
       34    20206        /*   Static data     static data     static data     static data     */
       35    20207        /*********************************************************************/
       36    20208                                                                                      /**/
       37    20209    1   DCL 1 FILE_NAME CONSTANT ,
       38    20210    1          2 COUNT UBIN(9) UNAL INIT(7) ,
       39    20211    1          2 TEXT CHAR(31) UNAL INIT(':CONFIG') ;
       40    20212    1   DCL TWSN_NUM_ARRY(0:3) CHAR(4) CONSTANT INIT( '0000', '0001', '0002', '0003' ) ;
       41    20213    1   DCL 1 TERM_KEY STATIC ,
       42    20214    1          2 CNT UBIN BYTE UNAL INIT(15) ,
       43    20215    1          2 ACCT CHAR(8) UNAL INIT( ' ' ) ,
       44    20216    1          2 NAME CHAR(7) UNAL INIT( 'STATION' ) ;
       45    20217    1   DCL 1 TWSNR_KEY STATIC ,
       46    20218    1          2 CNT UBIN BYTE UNAL INIT(8) ,
       47    20219    1          2 TWSNC CHAR(4) UNAL INIT('TWSN') ,
       48    20220    1          2 TWSN# CHAR(4) UNAL INIT('0000') ;
       49    20221              %KL_DREC( NAME = KL_TREC ,
       50    20222                        STCLASS = CONSTANT ,
       51    20223                        TYP = %KLAT_STA# ,
       52    20224                        RNAME = ' ' ,
       53    20225                        PASS = ' ' ,
       54    20226                        LAST = ";" ,
       55    20227                        PRO = ' ' ,
       56    20228                        WORG = ' ' ) ;
       57    20341    1   DCL WSN_BUF CHAR(80) STATIC
       58    20342    1               INIT( 'C WSN          FOR STAT ' ) ;
       59    20343        %EJECT ;
PL6.E3A0      #001=ASC$CONFIG File=ASC$CONFIG.:E05TSI                            TUE 07/29/97 09:34 Page:5
       60    20344        /*********************************************************************/
       61    20345        /*   Symref's        symref's        symref's        symref's        */
       62    20346        /*********************************************************************/
       63    20347                                                              /**/
       64    20348    1   DCL B$TCB$ PTR SYMREF ;
       65    20349        %EJECT ;
PL6.E3A0      #001=ASC$CONFIG File=ASC$CONFIG.:E05TSI                            TUE 07/29/97 09:34 Page:6
       66    20350        /*********************************************************************/
       67    20351        /*   Fpts            fpts            fpts            fpts            */
       68    20352        /*********************************************************************/
       69    20353                                                                                      /**/
       70    20354          %FPT_OPEN(  FPTN = OPEN_FPT ,
       71    20355                      NAME = FILE_NAME ,
       72    20356                      ACCT = FILE_ACCT ,
       73    20357                      ASN = FILE ,
       74    20358                      DCB = M$CNFG ,
       75    20359                      ACS = DIRECT ,
       76    20360                      ORG = KEYED ,
       77    20361                      FUN = IN ,
       78    20362                      SHARE = ALL ) ;
       79    20471          %FPT_CLOSE( FPTN = CLOSE_FPT ,
       80    20472                      DCB = M$CNFG ,
       81    20473                      DISP = SAVE ) ;
       82    20515        %EJECT ;
PL6.E3A0      #001=ASC$CONFIG File=ASC$CONFIG.:E05TSI                            TUE 07/29/97 09:34 Page:7
       83    20516        /*********************************************************************/
       84    20517        /*   Dcbs            dcbs            dcbs            dcbs            */
       85    20518        /*********************************************************************/
       86    20519                                                                                      /**/
       87    20520    1   DCL M$CNFG DCB ;                              /* Read dcb for :CONFIG. */
       88    20521    1   DCL M$CNFG$ PTR ;
       89    20522        %EJECT ;
PL6.E3A0      #001=ASC$CONFIG File=ASC$CONFIG.:E05TSI                            TUE 07/29/97 09:34 Page:8
       90    20523        /*********************************************************************/
       91    20524        /*   Auto data       auto data       auto data       auto data       */
       92    20525        /*********************************************************************/
       93    20526                                                              /**/
       94    20527    1   DCL CNT UBIN WORD ;
       95    20528    1   DCL INDX UBIN WORD ;
       96    20529    1   DCL I UBIN WORD ;
       97    20530    1   DCL J UBIN WORD ;
       98    20531    1   DCL K UBIN WORD ;
       99    20532    1   DCL 1 DEV_NAME ALIGNED ,
      100    20533    1          2 TYPE CHAR(2) UNAL ,
      101    20534    1          2 NUM CHAR(2) UNAL ,
      102    20535    1          2 TWSN CHAR(4) UNAL ;
      103    20536    1   DCL 1 DEV_NAME_R REDEF DEV_NAME CHAR(8) ;
      104    20537    1   DCL 1 DEV$STRCT BASED( HEAD$ ) ALIGNED ,
      105    20538    1          2 INDX UBIN HALF UNAL ,
      106    20539    1          2 NUM UBIN HALF UNAL ;
      107    20540    1   DCL TWSN_NUM CHAR(4) ;
      108    20541    1   DCL TERM_NAME CHAR(8) ;
      109    20542    1   DCL TD$HEAD$ PTR ;
      110    20543    1   DCL TD$DEV$ PTR ;
      111    20544    1   DCL TD$WSN$ PTR ;
      112    20545    1   DCL HEAD$ PTR ;
      113    20546    1   DCL TREC$ PTR ;
      114    20547    1   DCL SS$ PTR ;
      115    20548    1   DCL TWSNR$ PTR ;
      116    20549    1   DCL WSNCVT$ PTR ;
      117    20550    1   DCL CVT_ARS UBIN WORD ;
      118    20551    1   DCL ARS UBIN WORD ;
      119    20552    1   DCL T_ARS UBIN WORD ;
      120    20553    1   DCL TWSN_ARS UBIN WORD ;
      121    20554    1   DCL NDEV UBIN WORD ;
      122    20555    1   DCL START$ PTR ;
      123    20556    1   DCL 1 KEY ALIGNED ,
      124    20557    1          2 CNT UBIN BYTE UNAL ,
      125    20558    1          2 TXT CHAR(31) UNAL ;
      126    20559    1   DCL WSN_BUF$ PTR ;
PL6.E3A0      #001=ASC$CONFIG File=ASC$CONFIG.:E05TSI                            TUE 07/29/97 09:34 Page:9
      127    20560    1   DCL START2$ PTR ;
      128    20561    1   DCL START2_SZ UBIN WORD ;
      129    20562        %EJECT ;
PL6.E3A0      #001=ASC$CONFIG File=ASC$CONFIG.:E05TSI                            TUE 07/29/97 09:34 Page:10
      130    20563        /*********************************************************************/
      131    20564        /*   Entry dcls      entry dcls      entry dcls      entry dcls      */
      132    20565        /*********************************************************************/
      133    20566                                                              /**/
      134    20567        %ASH$ERROR ;
      135    20570        %ASB$OPEN_HLP_UP ;
      136    20573        %ASB$CLOSE_HLP ;
      137    20576        %ASB$READ_HLP ;
      138    20579        %ASB$WRITE_HLP ;
      139    20582        %ASB$GETSEG ;
      140    20585        %ASW$CONFIG_WSN ;
      141    20588        %EJECT ;
PL6.E3A0      #001=ASC$CONFIG File=ASC$CONFIG.:E05TSI                            TUE 07/29/97 09:34 Page:11
      142    20589        /*********************************************************************/
      143    20590        /*   Local based     local based     local based     local based     */
      144    20591        /*********************************************************************/
      145    20592                                                              /**/
      146    20593              %B$ALT ;
      147    20601              %B$TCB ;
      148    20604              %TD$HEAD( NAME = TD$HEAD ,
      149    20605                        STCLASS="BASED( TD$HEAD$ )") ;
      150    20641              %TD$WSN(  NAME = TD$WSN ,
      151    20642                        STCLASS="BASED( TD$WSN$ )") ;
      152    20646              %TD$DEV(  NAME = TD$DEV ,
      153    20647                        STCLASS="BASED( TD$DEV$ )") ;
      154    20666              %KL_DREC( NAME = KL$TREC,
      155    20667                        LAST = ";",
      156    20668                        STCLASS="BASED( TREC$ )") ;
      157    20781              %KL_TWSNREC(  NAME=KL$TWSNREC ,
      158    20782                            STCLASS="BASED( TWSNR$ )") ;
      159    20807              %KL_WSNCVT( NAME = KL$WSNCVT ,
      160    20808                          STCLASS="BASED( WSNCVT$ )") ;
      161    20815    1   DCL WSN$ACCT CHAR(8) BASED( WSN_BUF$ ) UNAL ;
      162    20816        %EJECT ;
PL6.E3A0      #001=ASC$CONFIG File=ASC$CONFIG.:E05TSI                            TUE 07/29/97 09:34 Page:12
      163    20817        /*********************************************************************/
      164    20818        /*   Procedure       procedure       procedure       procedure       */
      165    20819        /*********************************************************************/
      166    20820                                                              /**/
      167    20821        /*
      168    20822            ***            Begin procedure                    ***
      169    20823        */
      170    20824    1   IF NOT DSEG_FLG THEN
      171    20825    1      CALL ASB$GETSEG
      172    20826    2      WHENALTRETURN DO;
      173    20827              %SCREAM (ERR#=%E$GETSEGERR, LEVEL=ERROR, MID='C');
      174    20842    2         RETURN ;
      175    20843    2         END;   /*  Whenaltreturn from ASB$GETSEG  */
      176    20844                                                              /* Open :CONFIG */
      177    20845    1   CALL M$OPEN( OPEN_FPT ) ALTRET( OPEN_ERR ) ;
      178    20846                                                              /* Open :HLP */
      179    20847    1   CALL ASB$OPEN_HLP_UP ALTRET( OPEN_ERR ) ;
      180    20848                                                              /* Get TD$HEAD */
      181    20849    1   START2$ = PINCRW( DSEG1$, 1024 ) ;
      182    20850    1   START2_SZ = DSEG1SIZE - 4 * 1024 ;
      183    20851    1   TD$HEAD$ = START2$ ;
      184    20852    1   ARS = START2_SZ ;
      185    20853    1   KEY = '0'B ;
      186    20854    1   KEY.CNT = 1 ;
      187    20855    1   CALL READ_CONFIG( KEY, TD$HEAD$, ARS ) ALTRET( READ_CONFIG_ERR ) ;
      188    20856    1   T_ARS = ARS ;                                   /* Total used */
      189    20857    1   ARS = START2_SZ - T_ARS - 4 ;
      190    20858                                                              /* Get TD$WSN */
      191    20859    1   TD$WSN$ = PINCRC( START2$, T_ARS+4 ) ;
      192    20860    1   KEY.CNT = 3 ;
      193    20861    1   KEY.TXT = 'WSN' ;
      194    20862    1   CALL READ_CONFIG( KEY, TD$WSN$, ARS ) ALTRET( READ_CONFIG_ERR ) ;
      195    20863    1   T_ARS = T_ARS + ARS + 4  ;
      196    20864    1   ARS = START2_SZ - T_ARS - 4 ;
      197    20865                                                              /* Get wsn convert */
      198    20866    1   WSNCVT$ = PINCRC( START2$, T_ARS+4 ) ;
      199    20867    1   USERS_KEY.COUNT = 4 ;
PL6.E3A0      #001=ASC$CONFIG File=ASC$CONFIG.:E05TSI                            TUE 07/29/97 09:34 Page:13
      200    20868    1   USERS_KEY.TXTC = 'TERM' ;
      201    20869    1   CALL ASB$READ_HLP( WSNCVT$, ARS, 1 ) ALTRET( READ_CONFIG_ERR ) ;
      202    20870    1   T_ARS = T_ARS + ARS + 4 ;
      203    20871    1   ARS = START2_SZ - T_ARS - 4 ;
      204    20872                                                              /* Set up TD$DEV$ */
      205    20873    1   TD$DEV$ = PINCRC( START2$, T_ARS+64 ) ;
      206    20874    1   ARS = ARS - 64 ;
      207    20875    1   START$ = ADDR( TD$HEAD.LP_INDX ) ;
      208    20876    1   IF ADDR(WSN_INDEX) = ADDR(NIL)
      209    20877    1   THEN
      210    20878    1      I = 0;
      211    20879    1   ELSE
      212    20880    1      I = WSN_INDEX;
      213    20881    2   DO WHILE ( I < 4 AND TD$WSN.WSNNAME(I) ~= AS_BLANK ) ;
      214    20882    2      TERM_NAME = TD$WSN.WSNNAME(I) ;
      215    20883    2      TWSN_NUM = TWSN_NUM_ARRY(I) ;
      216    20884                                                              /* Set up station record */
      217    20885    2      TREC$ = PINCRW( DSEG2$, 500 ) ;
      218    20886    2      KL$TREC = KL_TREC ;
      219    20887    2      KL$TREC.ATYP = %KLAT_STA# ;
      220    20888    2      KL$TREC.SUPER = AS_STAT#;
      221    20889    2      KL$TREC.WOO = TERM_NAME ;
      222    20890    2      KL$TREC.TWSN# = TWSN_NUM ;
      223    20891    2      TWSN_ARS = LENGTHC( KL$TREC ) ;
      224    20892    2      SS$ = PINCRC( TREC$, TWSN_ARS ) ;
      225    20893    2      TERM_KEY.ACCT = TERM_NAME ;
      226    20894    2      USERS_KEY = TERM_KEY ;
      227    20895    2      CALL ASB$WRITE_HLP( TREC$, TWSN_ARS ) ;
      228    20896                                                              /* Put name in wsncvt */
      229    20897    2      IF I > KL$WSNCVT.LTWSN
      230    20898    2      THEN
      231    20899    3      DO;
      232    20900    3         KL$WSNCVT.LTWSN=I;
      233    20901    3         END; /* Then do */
      234    20902    2      KL$WSNCVT.WSN(I) = TERM_NAME ;
      235    20903    2      TWSNR$ = PINCRC( SS$, 4 ) ;
      236    20904    2      KL$TWSNREC = '0'B ;
PL6.E3A0      #001=ASC$CONFIG File=ASC$CONFIG.:E05TSI                            TUE 07/29/97 09:34 Page:14
      237    20905    2      KL$TWSNREC.WSN = AS_BLANK ;
      238    20906    2      KL$TWSNREC.STATION = TERM_NAME ;
      239    20907    2      TWSNR_KEY.TWSN# = TWSN_NUM ;
      240    20908    2      TWSN_ARS = LENGTHC( KL$TWSNREC ) - LENGTHC(KL$TWSNREC.DEVS) ;
      241    20909                                                              /* Get devices. */
      242    20910    3      DO J = 0 TO 2 ;
      243    20911    3         HEAD$ = PINCRW( START$, J ) ;
      244    20912    3         INDX = DEV$STRCT.INDX ;
      245    20913    3         CNT = DEV$STRCT.NUM ;
      246    20914                                                              /**/
      247    20915    4         DO K = 0 TO CNT-1 ;
      248    20916    4            DEV_NAME_R = TD$HEAD.DEVNAME( INDX+K ) ;
      249    20917    4            IF DEV_NAME.TWSN = TWSN_NUM
      250    20918    4            THEN
      251    20919    5            DO ;
      252    20920    5               KEY.CNT = 8 ;
      253    20921    5               KEY.TXT = DEV_NAME_R ;
      254    20922    5               CALL READ_CONFIG( KEY, TD$DEV$, ARS )
      255    20923    5                    ALTRET( READ_CONFIG_ERR ) ;
      256    20924    5               NDEV = KL$TWSNREC.NDEV ;
      257    20925    5               KL$TWSNREC.NDEV = KL$TWSNREC.NDEV + 1 ;
      258    20926    5               KL$TWSNREC.DEVS(NDEV) = '0'B;
      259    20927    5               KL$TWSNREC.DEVS.TYP(NDEV) = DEV_NAME.TYPE ;
      260    20928    5               KL$TWSNREC.DEVS.NUM(NDEV) = DEV_NAME.NUM ;
      261    20929    5               KL$TWSNREC.DEVS.ATTR(NDEV) = TD$DEV.ATTR ;
      262    20930    5               KL$TWSNREC.DEVS.ACCT(NDEV) = DEV_NAME_R;
      263    20931    5               KL$TWSNREC.DEVS.IOM_CONNECTED(NDEV) = '1'B;
      264    20932    5               IF DEV_NAME.TYPE = 'LP'
      265    20933    5               THEN
      266    20934    6               DO ;
      267    20935    6                  KL$TWSNREC.DEVS.DDEV(NDEV) = %DDEV_LP# ;
      268    20936    6                  KL$TWSNREC.DEVS.IO.INPUT(NDEV) = AS_FALSE ;
      269    20937    6                  KL$TWSNREC.DEVS.IO.OUTPUT(NDEV) = AS_TRUE ;
      270    20938    6                  KL$TWSNREC.DEVS.FNAME(NDEV) = 'STDLP' ;
      271    20939    6                  END ; /* Then do */
      272    20940    5               IF DEV_NAME.TYPE = 'CP'
      273    20941    5               THEN
PL6.E3A0      #001=ASC$CONFIG File=ASC$CONFIG.:E05TSI                            TUE 07/29/97 09:34 Page:15
      274    20942    6               DO ;
      275    20943    6                  KL$TWSNREC.DEVS.DDEV(NDEV) = %DDEV_CP# ;
      276    20944    6                  KL$TWSNREC.DEVS.IO.INPUT(NDEV) = AS_FALSE ;;
      277    20945    6                  KL$TWSNREC.DEVS.IO.OUTPUT(NDEV) = AS_TRUE ;
      278    20946    6                  KL$TWSNREC.DEVS.FNAME(NDEV) = 'STD**' ;
      279    20947    6                  END ; /* Then do */
      280    20948    5               IF DEV_NAME.TYPE = 'CR'
      281    20949    5               THEN
      282    20950    6               DO ;
      283    20951    6                  KL$TWSNREC.DEVS.DDEV(NDEV) = '0'B ;
      284    20952    6                  KL$TWSNREC.DEVS.IO.INPUT(NDEV) = AS_TRUE ;
      285    20953    6                  KL$TWSNREC.DEVS.IO.OUTPUT(NDEV) = AS_FALSE ;
      286    20954    6                  KL$TWSNREC.DEVS.FNAME(NDEV) = 'STD**' ;
      287    20955    6                  END ; /* Then do */
      288    20956    5               IF DEV_NAME.TYPE = 'GR'
      289    20957    6               THEN DO;
      290    20958    6                  KL$TWSNREC.DEVS.DDEV(NDEV) = %DDEV_GR#;
      291    20959    6                  KL$TWSNREC.DEVS.IO.INPUT(NDEV) = AS_FALSE ;
      292    20960    6                  KL$TWSNREC.DEVS.IO.OUTPUT(NDEV) = AS_TRUE ;
      293    20961    6                  KL$TWSNREC.DEVS.FNAME(NDEV) = 'STDGR' ;
      294    20962    6                  END ; /* Then do */
      295    20963    5               TWSN_ARS = TWSN_ARS + LENGTHC( KL$TWSNREC.DEVS ) ;
      296    20964    5               END ; /* Then do */
      297    20965    4            END ; /* Do k */
      298    20966    3         END ; /* Do j */
      299    20967    2      USERS_KEY = TWSNR_KEY ;
      300    20968    2      CALL ASB$WRITE_HLP( TWSNR$, TWSN_ARS ) ;
      301    20969                                                              /**/
      302    20970    2      WSN_BUF$ = ADDR( WSN_BUF ) ;
      303    20971    2      WSN_BUF$ = PINCRC( WSN_BUF$, 6 ) ;
      304    20972    2      WSN$ACCT = TERM_NAME ;
      305    20973    2      WSN_BUF$ = PINCRC( WSN_BUF$, 18 ) ;
      306    20974    2      WSN$ACCT = TERM_NAME ;
      307    20975    2      IN_BUF = WSN_BUF ;
      308    20976    2      P_PCB.NCHARS = 32 ;
      309    20977    2      CALL ASW$CONFIG_WSN ;
      310    20978    2      I = I + 1 ;
PL6.E3A0      #001=ASC$CONFIG File=ASC$CONFIG.:E05TSI                            TUE 07/29/97 09:34 Page:16
      311    20979    2      IF ADDR(WSN_INDEX) ~= ADDR(NIL) THEN
      312    20980    2         EXIT;
      313    20981    2      END ; /* Do while */
      314    20982                                                              /**/
      315    20983    1   CVT_ARS = (KL$WSNCVT.LTWSN + 2) * 8;  /* set bound for wsncvt record */
      316    20984    1   USERS_KEY.COUNT = 4 ;
      317    20985    1   USERS_KEY.TXTC = 'TERM' ;
      318    20986    1   CALL ASB$WRITE_HLP( WSNCVT$, CVT_ARS ) ALTRET( READ_CONFIG_ERR ) ;
      319    20987                                                              /**/
      320    20988    1   CALL ASB$CLOSE_HLP ;
      321    20989    1   CALL M$CLOSE( CLOSE_FPT ) ;
      322    20990                                                              /**/
      323    20991    1   RETURN ;
      324    20992                                                              /* Errors */
      325    20993    1   OPEN_ERR: ;
      326    20994    1   ERR_CODE = B$TCB$ -> B$TCB.ALT$ -> B$ALT.ERR ;
      327    20995    1   CALL ASH$ERROR( ERR_CODE ) ;
      328    20996    1   RETURN ;
      329    20997                                                              /**/
      330    20998    1   READ_CONFIG_ERR: ;
      331    20999    1   ERR_CODE = B$TCB$ -> B$TCB.ALT$ -> B$ALT.ERR ;
      332    21000    1   CALL ASH$ERROR( ERR_CODE ) ;
      333    21001    1   RETURN ;
      334    21002                                                              /**/
      335    21003        %EJECT ;
PL6.E3A0      #001=ASC$CONFIG File=ASC$CONFIG.:E05TSI                            TUE 07/29/97 09:34 Page:17
      336    21004    1   READ_CONFIG: PROC( KEY, BUF$, SIZE ) ALTRET ;
      337    21005        %EJECT ;
PL6.E3A0      #001=ASC$CONFIG File=ASC$CONFIG.:E05TSI                            TUE 07/29/97 09:34 Page:18
      338    21006        /*********************************************************************/
      339    21007        /*   Parameters      parameters      parameters      parameters      */
      340    21008        /*********************************************************************/
      341    21009                                                              /**/
      342    21010    2   DCL 1 KEY ,
      343    21011    2          2 CNT UBIN BYTE UNAL ,
      344    21012    2          2 TXT CHAR(31) UNAL ;
      345    21013    2   DCL BUF$ PTR ;
      346    21014    2   DCL SIZE UBIN WORD ;
      347    21015        %EJECT ;
PL6.E3A0      #001=ASC$CONFIG File=ASC$CONFIG.:E05TSI                            TUE 07/29/97 09:34 Page:19
      348    21016        /*********************************************************************/
      349    21017        /*   Fpts            fpts            fpts            fpts            */
      350    21018        /*********************************************************************/
      351    21019                                                                                      /**/
      352    21020              %FPT_READ(  FPTN = READ_FPT ,
      353    21021                          DCB = M$CNFG ,
      354    21022                          KEYS = YES ) ;
      355    21061        %EJECT ;
PL6.E3A0      #001=ASC$CONFIG File=ASC$CONFIG.:E05TSI                            TUE 07/29/97 09:34 Page:20
      356    21062        /*********************************************************************/
      357    21063        /*   Include files   include files   include files   include files   */
      358    21064        /*********************************************************************/
      359    21065              %INCLUDE F$DCB ;
      360    21114        %EJECT ;
PL6.E3A0      #001=ASC$CONFIG File=ASC$CONFIG.:E05TSI                            TUE 07/29/97 09:34 Page:21
      361    21115        /*********************************************************************/
      362    21116        /*   Procedure       procedure       procedure       procedure       */
      363    21117        /*********************************************************************/
      364    21118                                                              /**/
      365    21119                                                              /*
      366    21120                                                                   Set BUF$ in read fpt
      367    21121                                                              */
      368    21122    2   READ_FPT.BUF_.BUF$ = BUF$ ;
      369    21123    2   READ_FPT.BUF_.BOUND = SIZE - 1;
      370    21124    2   READ_FPT.KEY_ = VECTOR( KEY ) ;
      371    21125    2   CALL M$READ( READ_FPT ) ALTRET( READ_ERR ) ;
      372    21126    2   M$CNFG$ = DCBADDR( DCBNUM( M$CNFG ) ) ;
      373    21127    2   ARS = M$CNFG$ -> F$DCB.ARS ;
      374    21128    2   RETURN ;
      375    21129                                                              /**/
      376    21130    2   READ_ERR: ;
      377    21131    2   ERR_CODE = B$TCB$ -> B$TCB.ALT$ -> B$ALT.ERR ;
      378    21132    2   ALTRETURN ;
      379    21133                                                              /**/
      380    21134    2   END   READ_CONFIG ;
      381    21135    1   END   ASC$CONFIG ;

PL6.E3A0      #001=ASC$CONFIG File=ASC$CONFIG.:E05TSI                            TUE 07/29/97 09:34 Page:22
--  Include file information  --

   F$DCB.:E05TOU  cannot be made into a system file and is referenced.
   AS_SUPER_R.:E05TOU  cannot be made into a system file and is referenced.
   CP_6_SUBS.:E05TOU  is referenced.
   TD$STRUCT.:E05TOU  is referenced.
   B_ERRORS_C.:E05TOU  is referenced.
   XU_FORMAT_C.:E05TOU  is referenced.
   XU_MACRO_C.:E05TOU  is referenced.
   KL_SUPER_C.:E05TOU  is referenced.
   AS_SUBS_C.:E05TOU  is referenced.
   AS_MAC_C.:E05TOU  cannot be made into a system file and is referenced.
   AS_SSUBS_C.:E05TOU  is referenced.
   AS_SUPER_C.:E05TOU  is referenced.
   CP_6_C.:E05TOU  is referenced.
   CP_6.:E05TOU  cannot be made into a system file and is referenced.
   AS_PERR_C.:E05TOU  is referenced.
   AS_ENTRIES_M.:E05TOU  is referenced.
      No diagnostics issued in procedure ASC$CONFIG.

   Procedure ASC$CONFIG requires 509 words for executable code.
   Procedure ASC$CONFIG requires 48 words of local(AUTO) storage.

    No errors detected in file ASC$CONFIG.:E05TSI    .

PL6.E3A0      #001=ASC$CONFIG File=ASC$CONFIG.:E05TSI                            TUE 07/29/97 09:34 Page:23

 Object Unit name= ASC$CONFIG                                 File name= ASC$CONFIG.:E05TOU
 UTS= JUL 29 '97 09:34:57.68 TUE                              Compiler= PL-6/E31         Sev=      00
 SharedLib= :SHARED_SYSTEM                                    Alt SharedLib=


    ****  Control sections  ****

 Sect   Type Bound  Init  Size OctSiz  Section name(segment info)
    0   DCB   even  none     0      0  M$UC
    1   DCB   even  none     0      0  M$LO
    2  RoData even  UTS     41     51  ASC$CONFIG
    3   Data  even  none   130    202  ASC$CONFIG
    4   DCB   even  none     0      0  M$CNFG
    5   Proc  even  none   509    775  ASC$CONFIG
    6  RoData even  none     9     11  ASC$CONFIG

    ****  Entry defs  ****

                              Check   Calling
                             calling  sequence
  Sect OctLoc Primary Altret sequence   type   Parms  Name
     5      0   yes    yes     yes      Std        1  ASC$CONFIG
PL6.E3A0      #001=ASC$CONFIG File=ASC$CONFIG.:E05TSI                            TUE 07/29/97 09:34 Page:24

  ****  Entry refs  ****

         Check        Calling
        calling       sequence
Altret sequence SRef   type   Args  Name
         yes          ~proc      0 XU_OUTPUT_OPTIONS
 yes     yes           Std       2 ASB$WRITE_HLP
 yes     yes           Std       0 ASB$CLOSE_HLP
 yes     yes           Std       0 ASB$GETSEG
         yes           Std       2 ASH$ERROR
 yes     yes           Std       3 ASB$READ_HLP
 yes     yes           Std       0 ASB$OPEN_HLP_UP
         yes           Std       0 ASW$CONFIG_WSN
                       nStd      0 X66_AUTO_1
                       Std       0 B_CONSPOOL_D
                       nStd      0 X66_ARET

  ****  Data refs  ****

  Flags:  r = read only, s = secondary
Flgs Name                             Flgs Name                             Flgs Name
     M$UC                             r    AS_BLANK                         r    AS_TRUE
r    AS_FALSE                         r    AS_MODE                          r    AS_FE_MODE
     M$LO                                  USERS_KEY                             IN_BUF
     ERR_CODE                              REMEM_VAR                             REM_FCMD
     ASA_BRKS_LOC                          DSEG_FLG                              DSEG1$
     DSEG1SIZE                             DSEG2$                                FILE_ACCT
     P_PCB                                 B$TCB$                                M$CNFG
     B_VECTNIL

  ****  Segment refs  ****

  Flags:  r = read only, s = secondary
Flgs Name                             Flgs Name                             Flgs Name
     ISSID                                 NULLSID                               ROSID
PL6.E3A0      #001=ASC$CONFIG File=ASC$CONFIG.:E05TSI                            TUE 07/29/97 09:34 Page:25


        1        1        /*T***********************************************************/
        2        2        /*T*                                                         */
        3        3        /*T* Copyright (c) Bull HN Information Systems Inc., 1997    */
        4        4        /*T*                                                         */
        5        5        /*T***********************************************************/
        6        6        ASC$CONFIG: PROC (WSN_INDEX) ALTRET ;

      6  5 000000   000000 700200 xent  ASC$CONFIG   TSX0  ! X66_AUTO_1
         5 000001   000060 000001                    ZERO    48,1

        7        7        %EJECT ;
PL6.E3A0      #001=ASC$CONFIG File=ASC$CONFIG.:E05TSI                            TUE 07/29/97 09:34 Page:26
        8        8        /*********************************************************************/
        9        9        /*   Include files   include files   include files   include files   */
       10       10        /*********************************************************************/
       11       11                                                                                      /**/
       12       12              %INCLUDE AS_ENTRIES_M ;
       13     1062              %INCLUDE AS_PERR_C ;
       14     1664              %INCLUDE CP_6 ;
       15     7223              %INCLUDE AS_SUPER_C ;
       16     7658              %INCLUDE AS_SSUBS_C ;
       17     7750              %INCLUDE AS_MAC_C ;
       18     7830              %INCLUDE AS_SUBS_C ;
       19     9244              %INCLUDE KL_SUPER_C ;
       20    12146              %INCLUDE XU_MACRO_C ;
       21    15252              %INCLUDE XU_FORMAT_C ;
       22    15414              %INCLUDE B_ERRORS_C ;
       23    16541              %INCLUDE TD$STRUCT ;
       24    16642              %INCLUDE CP_6_SUBS ;
       25    17182              %INCLUDE AS_SUPER_R ;
       26    20198                                                                                      /**/
       27    20199        %EJECT;
PL6.E3A0      #001=ASC$CONFIG File=ASC$CONFIG.:E05TSI                            TUE 07/29/97 09:34 Page:27
       28    20200        /*********************************************************************/
       29    20201        /*   Parameters      include files   include files   include files   */
       30    20202        /*********************************************************************/
       31    20203    1   DCL WSN_INDEX  UBIN;
       32    20204        %EJECT;
PL6.E3A0      #001=ASC$CONFIG File=ASC$CONFIG.:E05TSI                            TUE 07/29/97 09:34 Page:28
       33    20205        /*********************************************************************/
       34    20206        /*   Static data     static data     static data     static data     */
       35    20207        /*********************************************************************/
       36    20208                                                                                      /**/
       37    20209    1   DCL 1 FILE_NAME CONSTANT ,
       38    20210    1          2 COUNT UBIN(9) UNAL INIT(7) ,
       39    20211    1          2 TEXT CHAR(31) UNAL INIT(':CONFIG') ;
       40    20212    1   DCL TWSN_NUM_ARRY(0:3) CHAR(4) CONSTANT INIT( '0000', '0001', '0002', '0003' ) ;
       41    20213    1   DCL 1 TERM_KEY STATIC ,
       42    20214    1          2 CNT UBIN BYTE UNAL INIT(15) ,
       43    20215    1          2 ACCT CHAR(8) UNAL INIT( ' ' ) ,
       44    20216    1          2 NAME CHAR(7) UNAL INIT( 'STATION' ) ;
       45    20217    1   DCL 1 TWSNR_KEY STATIC ,
       46    20218    1          2 CNT UBIN BYTE UNAL INIT(8) ,
       47    20219    1          2 TWSNC CHAR(4) UNAL INIT('TWSN') ,
       48    20220    1          2 TWSN# CHAR(4) UNAL INIT('0000') ;
       49    20221              %KL_DREC( NAME = KL_TREC ,
       50    20222                        STCLASS = CONSTANT ,
       51    20223                        TYP = %KLAT_STA# ,
       52    20224                        RNAME = ' ' ,
       53    20225                        PASS = ' ' ,
       54    20226                        LAST = ";" ,
       55    20227                        PRO = ' ' ,
       56    20228                        WORG = ' ' ) ;
       57    20341    1   DCL WSN_BUF CHAR(80) STATIC
       58    20342    1               INIT( 'C WSN          FOR STAT ' ) ;
       59    20343        %EJECT ;
PL6.E3A0      #001=ASC$CONFIG File=ASC$CONFIG.:E05TSI                            TUE 07/29/97 09:34 Page:29
       60    20344        /*********************************************************************/
       61    20345        /*   Symref's        symref's        symref's        symref's        */
       62    20346        /*********************************************************************/
       63    20347                                                              /**/
       64    20348    1   DCL B$TCB$ PTR SYMREF ;
       65    20349        %EJECT ;
PL6.E3A0      #001=ASC$CONFIG File=ASC$CONFIG.:E05TSI                            TUE 07/29/97 09:34 Page:30
       66    20350        /*********************************************************************/
       67    20351        /*   Fpts            fpts            fpts            fpts            */
       68    20352        /*********************************************************************/
       69    20353                                                                                      /**/
       70    20354          %FPT_OPEN(  FPTN = OPEN_FPT ,
       71    20355                      NAME = FILE_NAME ,
       72    20356                      ACCT = FILE_ACCT ,
       73    20357                      ASN = FILE ,
       74    20358                      DCB = M$CNFG ,
       75    20359                      ACS = DIRECT ,
       76    20360                      ORG = KEYED ,
       77    20361                      FUN = IN ,
       78    20362                      SHARE = ALL ) ;
       79    20471          %FPT_CLOSE( FPTN = CLOSE_FPT ,
       80    20472                      DCB = M$CNFG ,
       81    20473                      DISP = SAVE ) ;
       82    20515        %EJECT ;
PL6.E3A0      #001=ASC$CONFIG File=ASC$CONFIG.:E05TSI                            TUE 07/29/97 09:34 Page:31
       83    20516        /*********************************************************************/
       84    20517        /*   Dcbs            dcbs            dcbs            dcbs            */
       85    20518        /*********************************************************************/
       86    20519                                                                                      /**/
       87    20520    1   DCL M$CNFG DCB ;                              /* Read dcb for :CONFIG. */
       88    20521    1   DCL M$CNFG$ PTR ;
       89    20522        %EJECT ;
PL6.E3A0      #001=ASC$CONFIG File=ASC$CONFIG.:E05TSI                            TUE 07/29/97 09:34 Page:32
       90    20523        /*********************************************************************/
       91    20524        /*   Auto data       auto data       auto data       auto data       */
       92    20525        /*********************************************************************/
       93    20526                                                              /**/
       94    20527    1   DCL CNT UBIN WORD ;
       95    20528    1   DCL INDX UBIN WORD ;
       96    20529    1   DCL I UBIN WORD ;
       97    20530    1   DCL J UBIN WORD ;
       98    20531    1   DCL K UBIN WORD ;
       99    20532    1   DCL 1 DEV_NAME ALIGNED ,
      100    20533    1          2 TYPE CHAR(2) UNAL ,
      101    20534    1          2 NUM CHAR(2) UNAL ,
      102    20535    1          2 TWSN CHAR(4) UNAL ;
      103    20536    1   DCL 1 DEV_NAME_R REDEF DEV_NAME CHAR(8) ;
      104    20537    1   DCL 1 DEV$STRCT BASED( HEAD$ ) ALIGNED ,
      105    20538    1          2 INDX UBIN HALF UNAL ,
      106    20539    1          2 NUM UBIN HALF UNAL ;
      107    20540    1   DCL TWSN_NUM CHAR(4) ;
      108    20541    1   DCL TERM_NAME CHAR(8) ;
      109    20542    1   DCL TD$HEAD$ PTR ;
      110    20543    1   DCL TD$DEV$ PTR ;
      111    20544    1   DCL TD$WSN$ PTR ;
      112    20545    1   DCL HEAD$ PTR ;
      113    20546    1   DCL TREC$ PTR ;
      114    20547    1   DCL SS$ PTR ;
      115    20548    1   DCL TWSNR$ PTR ;
      116    20549    1   DCL WSNCVT$ PTR ;
      117    20550    1   DCL CVT_ARS UBIN WORD ;
      118    20551    1   DCL ARS UBIN WORD ;
      119    20552    1   DCL T_ARS UBIN WORD ;
      120    20553    1   DCL TWSN_ARS UBIN WORD ;
      121    20554    1   DCL NDEV UBIN WORD ;
      122    20555    1   DCL START$ PTR ;
      123    20556    1   DCL 1 KEY ALIGNED ,
      124    20557    1          2 CNT UBIN BYTE UNAL ,
      125    20558    1          2 TXT CHAR(31) UNAL ;
      126    20559    1   DCL WSN_BUF$ PTR ;
PL6.E3A0      #001=ASC$CONFIG File=ASC$CONFIG.:E05TSI                            TUE 07/29/97 09:34 Page:33
      127    20560    1   DCL START2$ PTR ;
      128    20561    1   DCL START2_SZ UBIN WORD ;
      129    20562        %EJECT ;
PL6.E3A0      #001=ASC$CONFIG File=ASC$CONFIG.:E05TSI                            TUE 07/29/97 09:34 Page:34
      130    20563        /*********************************************************************/
      131    20564        /*   Entry dcls      entry dcls      entry dcls      entry dcls      */
      132    20565        /*********************************************************************/
      133    20566                                                              /**/
      134    20567        %ASH$ERROR ;
      135    20570        %ASB$OPEN_HLP_UP ;
      136    20573        %ASB$CLOSE_HLP ;
      137    20576        %ASB$READ_HLP ;
      138    20579        %ASB$WRITE_HLP ;
      139    20582        %ASB$GETSEG ;
      140    20585        %ASW$CONFIG_WSN ;
      141    20588        %EJECT ;
PL6.E3A0      #001=ASC$CONFIG File=ASC$CONFIG.:E05TSI                            TUE 07/29/97 09:34 Page:35
      142    20589        /*********************************************************************/
      143    20590        /*   Local based     local based     local based     local based     */
      144    20591        /*********************************************************************/
      145    20592                                                              /**/
      146    20593              %B$ALT ;
      147    20601              %B$TCB ;
      148    20604              %TD$HEAD( NAME = TD$HEAD ,
      149    20605                        STCLASS="BASED( TD$HEAD$ )") ;
      150    20641              %TD$WSN(  NAME = TD$WSN ,
      151    20642                        STCLASS="BASED( TD$WSN$ )") ;
      152    20646              %TD$DEV(  NAME = TD$DEV ,
      153    20647                        STCLASS="BASED( TD$DEV$ )") ;
      154    20666              %KL_DREC( NAME = KL$TREC,
      155    20667                        LAST = ";",
      156    20668                        STCLASS="BASED( TREC$ )") ;
      157    20781              %KL_TWSNREC(  NAME=KL$TWSNREC ,
      158    20782                            STCLASS="BASED( TWSNR$ )") ;
      159    20807              %KL_WSNCVT( NAME = KL$WSNCVT ,
      160    20808                          STCLASS="BASED( WSNCVT$ )") ;
      161    20815    1   DCL WSN$ACCT CHAR(8) BASED( WSN_BUF$ ) UNAL ;
      162    20816        %EJECT ;
PL6.E3A0      #001=ASC$CONFIG File=ASC$CONFIG.:E05TSI                            TUE 07/29/97 09:34 Page:36
      163    20817        /*********************************************************************/
      164    20818        /*   Procedure       procedure       procedure       procedure       */
      165    20819        /*********************************************************************/
      166    20820                                                              /**/
      167    20821        /*
      168    20822            ***            Begin procedure                    ***
      169    20823        */
      170    20824    1   IF NOT DSEG_FLG THEN

  20824  5 000002   000000 234000 xsym               SZN     DSEG_FLG
         5 000003   000015 604000 5                  TMI     s:20845

      171    20825    1      CALL ASB$GETSEG

  20825  5 000004   000002 631400 xsym               EPPR1   B_VECTNIL+2
         5 000005   000000 701000 xent               TSX1    ASB$GETSEG
         5 000006   000010 702000 5                  TSX2    s:20839
         5 000007   000015 710000 5                  TRA     s:20845

      172    20826    2      WHENALTRETURN DO;

      173    20827              %SCREAM (ERR#=%E$GETSEGERR, LEVEL=ERROR, MID='C');

  20839  5 000010   000000 630400 6                  EPPR0   0
         5 000011   000017 631400 xsym               EPPR1   B_VECTNIL+15
         5 000012   000000 701000 xent               TSX1    ASH$ERROR
         5 000013   000000 011000                    NOP     0

      174    20842    2         RETURN ;

  20842  5 000014   000000 702200 xent               TSX2  ! X66_ARET

      175    20843    2         END;   /*  Whenaltreturn from ASB$GETSEG  */
      176    20844                                                              /* Open :CONFIG */
      177    20845    1   CALL M$OPEN( OPEN_FPT ) ALTRET( OPEN_ERR ) ;

  20845  5 000015   000034 630400 3                  EPPR0   OPEN_FPT
PL6.E3A0      #001=ASC$CONFIG File=ASC$CONFIG.:E05TSI                            TUE 07/29/97 09:34 Page:37
         5 000016   450000 713400                    CLIMB   alt,open
         5 000017   410400 401760                    pmme    nvectors=18
         5 000020   000711 702000 5                  TSX2    OPEN_ERR

      178    20846                                                              /* Open :HLP */
      179    20847    1   CALL ASB$OPEN_HLP_UP ALTRET( OPEN_ERR ) ;

  20847  5 000021   000002 631400 xsym               EPPR1   B_VECTNIL+2
         5 000022   000000 701000 xent               TSX1    ASB$OPEN_HLP_UP
         5 000023   000711 702000 5                  TSX2    OPEN_ERR

      180    20848                                                              /* Get TD$HEAD */
      181    20849    1   START2$ = PINCRW( DSEG1$, 1024 ) ;

  20849  5 000024   000000 236000 xsym               LDQ     DSEG1$
         5 000025   002000 036003                    ADLQ    1024,DU
         5 000026   200046 756100                    STQ     START2$,,AUTO

      182    20850    1   START2_SZ = DSEG1SIZE - 4 * 1024 ;

  20850  5 000027   000000 235000 xsym               LDA     DSEG1SIZE
         5 000030   010000 135007                    SBLA    4096,DL
         5 000031   200047 755100                    STA     START2_SZ,,AUTO

      183    20851    1   TD$HEAD$ = START2$ ;

  20851  5 000032   200017 756100                    STQ     TD$HEAD$,,AUTO

      184    20852    1   ARS = START2_SZ ;

  20852  5 000033   200030 755100                    STA     ARS,,AUTO

      185    20853    1   KEY = '0'B ;

  20853  5 000034   000100 100400                    MLR     fill='000'O
         5 000035   000002 000001 xsym               ADSC9   B_VECTNIL+2              cn=0,n=1
         5 000036   200035 000040                    ADSC9   KEY,,AUTO                cn=0,n=32
PL6.E3A0      #001=ASC$CONFIG File=ASC$CONFIG.:E05TSI                            TUE 07/29/97 09:34 Page:38

      186    20854    1   KEY.CNT = 1 ;

  20854  5 000037   001000 236003                    LDQ     512,DU
         5 000040   200035 552140                    STBQ    KEY,'40'O,AUTO

      187    20855    1   CALL READ_CONFIG( KEY, TD$HEAD$, ARS ) ALTRET( READ_CONFIG_ERR ) ;

  20855  5 000041   200030 630500                    EPPR0   ARS,,AUTO
         5 000042   200053 450500                    STP0    @BUF$+1,,AUTO
         5 000043   200017 631500                    EPPR1   TD$HEAD$,,AUTO
         5 000044   200052 451500                    STP1    @KEY+1,,AUTO
         5 000045   200035 633500                    EPPR3   KEY,,AUTO
         5 000046   200051 453500                    STP3    START2_SZ+2,,AUTO
         5 000047   000733 701000 5                  TSX1    READ_CONFIG
         5 000050   000722 702000 5                  TSX2    READ_CONFIG_ERR

      188    20856    1   T_ARS = ARS ;                                   /* Total used */

  20856  5 000051   200030 235100                    LDA     ARS,,AUTO
         5 000052   200031 755100                    STA     T_ARS,,AUTO

      189    20857    1   ARS = START2_SZ - T_ARS - 4 ;

  20857  5 000053   200047 236100                    LDQ     START2_SZ,,AUTO
         5 000054   200031 136100                    SBLQ    T_ARS,,AUTO
         5 000055   000004 136007                    SBLQ    4,DL
         5 000056   200030 756100                    STQ     ARS,,AUTO

      190    20858                                                              /* Get TD$WSN */
      191    20859    1   TD$WSN$ = PINCRC( START2$, T_ARS+4 ) ;

  20859  5 000057   200031 236100                    LDQ     T_ARS,,AUTO
         5 000060   000020 736000                    QLS     16
         5 000061   000001 036003                    ADLQ    1,DU
         5 000062   200046 036100                    ADLQ    START2$,,AUTO
         5 000063   200021 756100                    STQ     TD$WSN$,,AUTO
PL6.E3A0      #001=ASC$CONFIG File=ASC$CONFIG.:E05TSI                            TUE 07/29/97 09:34 Page:39

      192    20860    1   KEY.CNT = 3 ;

  20860  5 000064   003000 236003                    LDQ     1536,DU
         5 000065   200035 552140                    STBQ    KEY,'40'O,AUTO

      193    20861    1   KEY.TXT = 'WSN' ;

  20861  5 000066   040100 100400                    MLR     fill='040'O
         5 000067   000035 000003 2                  ADSC9   KL_TREC+17               cn=0,n=3
         5 000070   200035 200037                    ADSC9   KEY,,AUTO                cn=1,n=31

      194    20862    1   CALL READ_CONFIG( KEY, TD$WSN$, ARS ) ALTRET( READ_CONFIG_ERR ) ;

  20862  5 000071   200030 630500                    EPPR0   ARS,,AUTO
         5 000072   200053 450500                    STP0    @BUF$+1,,AUTO
         5 000073   200021 631500                    EPPR1   TD$WSN$,,AUTO
         5 000074   200052 451500                    STP1    @KEY+1,,AUTO
         5 000075   200035 633500                    EPPR3   KEY,,AUTO
         5 000076   200051 453500                    STP3    START2_SZ+2,,AUTO
         5 000077   000733 701000 5                  TSX1    READ_CONFIG
         5 000100   000722 702000 5                  TSX2    READ_CONFIG_ERR

      195    20863    1   T_ARS = T_ARS + ARS + 4  ;

  20863  5 000101   200031 236100                    LDQ     T_ARS,,AUTO
         5 000102   200030 036100                    ADLQ    ARS,,AUTO
         5 000103   000004 036007                    ADLQ    4,DL
         5 000104   200031 756100                    STQ     T_ARS,,AUTO

      196    20864    1   ARS = START2_SZ - T_ARS - 4 ;

  20864  5 000105   200047 236100                    LDQ     START2_SZ,,AUTO
         5 000106   200031 136100                    SBLQ    T_ARS,,AUTO
         5 000107   000004 136007                    SBLQ    4,DL
         5 000110   200030 756100                    STQ     ARS,,AUTO

PL6.E3A0      #001=ASC$CONFIG File=ASC$CONFIG.:E05TSI                            TUE 07/29/97 09:34 Page:40
      197    20865                                                              /* Get wsn convert */
      198    20866    1   WSNCVT$ = PINCRC( START2$, T_ARS+4 ) ;

  20866  5 000111   200031 236100                    LDQ     T_ARS,,AUTO
         5 000112   000020 736000                    QLS     16
         5 000113   000001 036003                    ADLQ    1,DU
         5 000114   200046 036100                    ADLQ    START2$,,AUTO
         5 000115   200026 756100                    STQ     WSNCVT$,,AUTO

      199    20867    1   USERS_KEY.COUNT = 4 ;

  20867  5 000116   004000 236003                    LDQ     2048,DU
         5 000117   000000 552040 xsym               STBQ    USERS_KEY,'40'O

      200    20868    1   USERS_KEY.TXTC = 'TERM' ;

  20868  5 000120   040000 100400                    MLR     fill='040'O
         5 000121   000036 000004 2                  ADSC9   KL_TREC+18               cn=0,n=4
         5 000122   000000 200051 xsym               ADSC9   USERS_KEY                cn=1,n=41

      201    20869    1   CALL ASB$READ_HLP( WSNCVT$, ARS, 1 ) ALTRET( READ_CONFIG_ERR ) ;

  20869  5 000123   000001 236000 6                  LDQ     1
         5 000124   200056 756100                    STQ     @SIZE+3,,AUTO
         5 000125   200030 630500                    EPPR0   ARS,,AUTO
         5 000126   200055 450500                    STP0    @SIZE+2,,AUTO
         5 000127   200026 631500                    EPPR1   WSNCVT$,,AUTO
         5 000130   200054 451500                    STP1    @SIZE+1,,AUTO
         5 000131   200054 630500                    EPPR0   @SIZE+1,,AUTO
         5 000132   000021 631400 xsym               EPPR1   B_VECTNIL+17
         5 000133   000000 701000 xent               TSX1    ASB$READ_HLP
         5 000134   000722 702000 5                  TSX2    READ_CONFIG_ERR

      202    20870    1   T_ARS = T_ARS + ARS + 4 ;

  20870  5 000135   200031 236100                    LDQ     T_ARS,,AUTO
         5 000136   200030 036100                    ADLQ    ARS,,AUTO
PL6.E3A0      #001=ASC$CONFIG File=ASC$CONFIG.:E05TSI                            TUE 07/29/97 09:34 Page:41
         5 000137   000004 036007                    ADLQ    4,DL
         5 000140   200031 756100                    STQ     T_ARS,,AUTO

      203    20871    1   ARS = START2_SZ - T_ARS - 4 ;

  20871  5 000141   200047 236100                    LDQ     START2_SZ,,AUTO
         5 000142   200031 136100                    SBLQ    T_ARS,,AUTO
         5 000143   000004 136007                    SBLQ    4,DL
         5 000144   200030 756100                    STQ     ARS,,AUTO

      204    20872                                                              /* Set up TD$DEV$ */
      205    20873    1   TD$DEV$ = PINCRC( START2$, T_ARS+64 ) ;

  20873  5 000145   200031 236100                    LDQ     T_ARS,,AUTO
         5 000146   000020 736000                    QLS     16
         5 000147   000020 036003                    ADLQ    16,DU
         5 000150   200046 036100                    ADLQ    START2$,,AUTO
         5 000151   200020 756100                    STQ     TD$DEV$,,AUTO

      206    20874    1   ARS = ARS - 64 ;

  20874  5 000152   200030 235100                    LDA     ARS,,AUTO
         5 000153   000100 135007                    SBLA    64,DL
         5 000154   200030 755100                    STA     ARS,,AUTO

      207    20875    1   START$ = ADDR( TD$HEAD.LP_INDX ) ;

  20875  5 000155   200017 236100                    LDQ     TD$HEAD$,,AUTO
         5 000156   000010 036003                    ADLQ    8,DU
         5 000157   200034 756100                    STQ     START$,,AUTO

      208    20876    1   IF ADDR(WSN_INDEX) = ADDR(NIL)

  20876  5 000160   200003 236100                    LDQ     @WSN_INDEX,,AUTO
         5 000161   000001 116000 xsym               CMPQ    B_VECTNIL+1
         5 000162   000165 601000 5                  TNZ     s:20880

PL6.E3A0      #001=ASC$CONFIG File=ASC$CONFIG.:E05TSI                            TUE 07/29/97 09:34 Page:42
      209    20877    1   THEN
      210    20878    1      I = 0;

  20878  5 000163   200007 450100                    STZ     I,,AUTO
         5 000164   000170 710000 5                  TRA     s:20881

      211    20879    1   ELSE
      212    20880    1      I = WSN_INDEX;

  20880  5 000165   200003 470500                    LDP0    @WSN_INDEX,,AUTO
         5 000166   000000 235100                    LDA     0,,PR0
         5 000167   200007 755100                    STA     I,,AUTO

      213    20881    2   DO WHILE ( I < 4 AND TD$WSN.WSNNAME(I) ~= AS_BLANK ) ;

  20881  5 000170   000647 710000 5                  TRA     s:20981

      214    20882    2      TERM_NAME = TD$WSN.WSNNAME(I) ;

  20882  5 000171   200007 235100                    LDA     I,,AUTO
         5 000172   000003 735000                    ALS     3
         5 000173   200021 470500                    LDP0    TD$WSN$,,AUTO
         5 000174   040100 100505                    MLR     fill='040'O
         5 000175   000000 000010                    ADSC9   0,A,PR0                  cn=0,n=8
         5 000176   200015 000010                    ADSC9   TERM_NAME,,AUTO          cn=0,n=8

      215    20883    2      TWSN_NUM = TWSN_NUM_ARRY(I) ;

  20883  5 000177   200007 720100                    LXL0    I,,AUTO
         5 000200   000010 236010 2                  LDQ     TWSN_NUM_ARRY,X0
         5 000201   200014 756100                    STQ     TWSN_NUM,,AUTO

      216    20884                                                              /* Set up station record */
      217    20885    2      TREC$ = PINCRW( DSEG2$, 500 ) ;

  20885  5 000202   000000 236000 xsym               LDQ     DSEG2$
         5 000203   000764 036003                    ADLQ    500,DU
PL6.E3A0      #001=ASC$CONFIG File=ASC$CONFIG.:E05TSI                            TUE 07/29/97 09:34 Page:43
         5 000204   200023 756100                    STQ     TREC$,,AUTO

      218    20886    2      KL$TREC = KL_TREC ;

  20886  5 000205   200023 471500                    LDP1    TREC$,,AUTO
         5 000206   000100 100400                    MLR     fill='000'O
         5 000207   000014 000100 2                  ADSC9   KL_TREC                  cn=0,n=64
         5 000210   100000 000100                    ADSC9   0,,PR1                   cn=0,n=64

      219    20887    2      KL$TREC.ATYP = %KLAT_STA# ;

  20887  5 000211   200023 470500                    LDP0    TREC$,,AUTO
         5 000212   000000 236003                    LDQ     0,DU
         5 000213   000000 552140                    STBQ    0,'40'O,PR0

      220    20888    2      KL$TREC.SUPER = AS_STAT#;

  20888  5 000214   200023 470500                    LDP0    TREC$,,AUTO
         5 000215   000002 236007                    LDQ     2,DL
         5 000216   000000 552104                    STBQ    0,'04'O,PR0

      221    20889    2      KL$TREC.WOO = TERM_NAME ;

  20889  5 000217   200023 470500                    LDP0    TREC$,,AUTO
         5 000220   040100 100500                    MLR     fill='040'O
         5 000221   200015 000010                    ADSC9   TERM_NAME,,AUTO          cn=0,n=8
         5 000222   000007 000010                    ADSC9   7,,PR0                   cn=0,n=8

      222    20890    2      KL$TREC.TWSN# = TWSN_NUM ;

  20890  5 000223   200014 236100                    LDQ     TWSN_NUM,,AUTO
         5 000224   200023 470500                    LDP0    TREC$,,AUTO
         5 000225   000001 756100                    STQ     1,,PR0

      223    20891    2      TWSN_ARS = LENGTHC( KL$TREC ) ;

  20891  5 000226   000100 235007                    LDA     64,DL
PL6.E3A0      #001=ASC$CONFIG File=ASC$CONFIG.:E05TSI                            TUE 07/29/97 09:34 Page:44
         5 000227   200032 755100                    STA     TWSN_ARS,,AUTO

      224    20892    2      SS$ = PINCRC( TREC$, TWSN_ARS ) ;

  20892  5 000230   200032 236100                    LDQ     TWSN_ARS,,AUTO
         5 000231   000020 736000                    QLS     16
         5 000232   200023 036100                    ADLQ    TREC$,,AUTO
         5 000233   200024 756100                    STQ     SS$,,AUTO

      225    20893    2      TERM_KEY.ACCT = TERM_NAME ;

  20893  5 000234   040000 100500                    MLR     fill='040'O
         5 000235   200015 000010                    ADSC9   TERM_NAME,,AUTO          cn=0,n=8
         5 000236   000000 200010 3                  ADSC9   TERM_KEY                 cn=1,n=8

      226    20894    2      USERS_KEY = TERM_KEY ;

  20894  5 000237   000000 100400                    MLR     fill='000'O
         5 000240   000000 000020 3                  ADSC9   TERM_KEY                 cn=0,n=16
         5 000241   000000 000052 xsym               ADSC9   USERS_KEY                cn=0,n=42

      227    20895    2      CALL ASB$WRITE_HLP( TREC$, TWSN_ARS ) ;

  20895  5 000242   200032 630500                    EPPR0   TWSN_ARS,,AUTO
         5 000243   200055 450500                    STP0    @SIZE+2,,AUTO
         5 000244   200023 631500                    EPPR1   TREC$,,AUTO
         5 000245   200054 451500                    STP1    @SIZE+1,,AUTO
         5 000246   200054 630500                    EPPR0   @SIZE+1,,AUTO
         5 000247   000020 631400 xsym               EPPR1   B_VECTNIL+16
         5 000250   000000 701000 xent               TSX1    ASB$WRITE_HLP
         5 000251   000000 011000                    NOP     0

      228    20896                                                              /* Put name in wsncvt */
      229    20897    2      IF I > KL$WSNCVT.LTWSN

  20897  5 000252   200026 470500                    LDP0    WSNCVT$,,AUTO
         5 000253   000001 236100                    LDQ     1,,PR0
PL6.E3A0      #001=ASC$CONFIG File=ASC$CONFIG.:E05TSI                            TUE 07/29/97 09:34 Page:45
         5 000254   200007 116100                    CMPQ    I,,AUTO
         5 000255   000260 603000 5                  TRC     s:20902

      230    20898    2      THEN
      231    20899    3      DO;

      232    20900    3         KL$WSNCVT.LTWSN=I;

  20900  5 000256   200007 235100                    LDA     I,,AUTO
         5 000257   000001 755100                    STA     1,,PR0

      233    20901    3         END; /* Then do */

      234    20902    2      KL$WSNCVT.WSN(I) = TERM_NAME ;

  20902  5 000260   200007 235100                    LDA     I,,AUTO
         5 000261   000001 735000                    ALS     1
         5 000262   000002 735000                    ALS     2
         5 000263   200026 470500                    LDP0    WSNCVT$,,AUTO
         5 000264   040105 100500                    MLR     fill='040'O
         5 000265   200015 000010                    ADSC9   TERM_NAME,,AUTO          cn=0,n=8
         5 000266   000002 000010                    ADSC9   2,A,PR0                  cn=0,n=8

      235    20903    2      TWSNR$ = PINCRC( SS$, 4 ) ;

  20903  5 000267   200024 236100                    LDQ     SS$,,AUTO
         5 000270   000001 036003                    ADLQ    1,DU
         5 000271   200025 756100                    STQ     TWSNR$,,AUTO

      236    20904    2      KL$TWSNREC = '0'B ;

  20904  5 000272   200025 470500                    LDP0    TWSNR$,,AUTO
         5 000273   000100 100400                    MLR     fill='000'O
         5 000274   000002 000001 xsym               ADSC9   B_VECTNIL+2              cn=0,n=1
         5 000275   000000 000100                    ADSC9   0,,PR0                   cn=0,n=64

      237    20905    2      KL$TWSNREC.WSN = AS_BLANK ;
PL6.E3A0      #001=ASC$CONFIG File=ASC$CONFIG.:E05TSI                            TUE 07/29/97 09:34 Page:46

  20905  5 000276   200025 470500                    LDP0    TWSNR$,,AUTO
         5 000277   040100 100400                    MLR     fill='040'O
         5 000300   000000 000001 xsym               ADSC9   AS_BLANK                 cn=0,n=1
         5 000301   000000 000010                    ADSC9   0,,PR0                   cn=0,n=8

      238    20906    2      KL$TWSNREC.STATION = TERM_NAME ;

  20906  5 000302   200025 470500                    LDP0    TWSNR$,,AUTO
         5 000303   040100 100500                    MLR     fill='040'O
         5 000304   200015 000010                    ADSC9   TERM_NAME,,AUTO          cn=0,n=8
         5 000305   000002 000010                    ADSC9   2,,PR0                   cn=0,n=8

      239    20907    2      TWSNR_KEY.TWSN# = TWSN_NUM ;

  20907  5 000306   040000 100500                    MLR     fill='040'O
         5 000307   200014 000004                    ADSC9   TWSN_NUM,,AUTO           cn=0,n=4
         5 000310   000005 200004 3                  ADSC9   TWSNR_KEY+1              cn=1,n=4

      240    20908    2      TWSN_ARS = LENGTHC( KL$TWSNREC ) - LENGTHC(KL$TWSNREC.DEVS) ;

  20908  5 000311   000024 235007                    LDA     20,DL
         5 000312   200032 755100                    STA     TWSN_ARS,,AUTO

      241    20909                                                              /* Get devices. */
      242    20910    3      DO J = 0 TO 2 ;

  20910  5 000313   200010 450100                    STZ     J,,AUTO

      243    20911    3         HEAD$ = PINCRW( START$, J ) ;

  20911  5 000314   200010 236100                    LDQ     J,,AUTO
         5 000315   000022 736000                    QLS     18
         5 000316   200034 036100                    ADLQ    START$,,AUTO
         5 000317   200022 756100                    STQ     HEAD$,,AUTO

      244    20912    3         INDX = DEV$STRCT.INDX ;
PL6.E3A0      #001=ASC$CONFIG File=ASC$CONFIG.:E05TSI                            TUE 07/29/97 09:34 Page:47

  20912  5 000320   200022 470500                    LDP0    HEAD$,,AUTO
         5 000321   000000 236100                    LDQ     0,,PR0
         5 000322   000022 772000                    QRL     18
         5 000323   200006 756100                    STQ     INDX,,AUTO

      245    20913    3         CNT = DEV$STRCT.NUM ;

  20913  5 000324   000000 236100                    LDQ     0,,PR0
         5 000325   777777 376007                    ANQ     -1,DL
         5 000326   200005 756100                    STQ     CNT,,AUTO

      246    20914                                                              /**/
      247    20915    4         DO K = 0 TO CNT-1 ;

  20915  5 000327   200011 450100                    STZ     K,,AUTO
         5 000330   000570 710000 5                  TRA     s:20965+3

      248    20916    4            DEV_NAME_R = TD$HEAD.DEVNAME( INDX+K ) ;

  20916  5 000331   200006 236100                    LDQ     INDX,,AUTO
         5 000332   200011 036100                    ADLQ    K,,AUTO
         5 000333   000003 736000                    QLS     3
         5 000334   200017 470500                    LDP0    TD$HEAD$,,AUTO
         5 000335   040100 100506                    MLR     fill='040'O
         5 000336   000020 000010                    ADSC9   16,Q,PR0                 cn=0,n=8
         5 000337   200012 000010                    ADSC9   DEV_NAME,,AUTO           cn=0,n=8

      249    20917    4            IF DEV_NAME.TWSN = TWSN_NUM

  20917  5 000340   200013 236100                    LDQ     DEV_NAME+1,,AUTO
         5 000341   200014 116100                    CMPQ    TWSN_NUM,,AUTO
         5 000342   000565 601000 5                  TNZ     s:20965

      250    20918    4            THEN
      251    20919    5            DO ;

PL6.E3A0      #001=ASC$CONFIG File=ASC$CONFIG.:E05TSI                            TUE 07/29/97 09:34 Page:48
      252    20920    5               KEY.CNT = 8 ;

  20920  5 000343   010000 236003                    LDQ     4096,DU
         5 000344   200035 552140                    STBQ    KEY,'40'O,AUTO

      253    20921    5               KEY.TXT = DEV_NAME_R ;

  20921  5 000345   040100 100500                    MLR     fill='040'O
         5 000346   200012 000010                    ADSC9   DEV_NAME,,AUTO           cn=0,n=8
         5 000347   200035 200037                    ADSC9   KEY,,AUTO                cn=1,n=31

      254    20922    5               CALL READ_CONFIG( KEY, TD$DEV$, ARS )

  20922  5 000350   200030 631500                    EPPR1   ARS,,AUTO
         5 000351   200053 451500                    STP1    @BUF$+1,,AUTO
         5 000352   200020 633500                    EPPR3   TD$DEV$,,AUTO
         5 000353   200052 453500                    STP3    @KEY+1,,AUTO
         5 000354   200035 634500                    EPPR4   KEY,,AUTO
         5 000355   200051 454500                    STP4    START2_SZ+2,,AUTO
         5 000356   000733 701000 5                  TSX1    READ_CONFIG
         5 000357   000722 702000 5                  TSX2    READ_CONFIG_ERR

      255    20923    5                    ALTRET( READ_CONFIG_ERR ) ;
      256    20924    5               NDEV = KL$TWSNREC.NDEV ;

  20924  5 000360   200025 470500                    LDP0    TWSNR$,,AUTO
         5 000361   000004 235100                    LDA     4,,PR0
         5 000362   200033 755100                    STA     NDEV,,AUTO

      257    20925    5               KL$TWSNREC.NDEV = KL$TWSNREC.NDEV + 1 ;

  20925  5 000363   000001 035007                    ADLA    1,DL
         5 000364   000004 755100                    STA     4,,PR0

      258    20926    5               KL$TWSNREC.DEVS(NDEV) = '0'B;

  20926  5 000365   200033 236100                    LDQ     NDEV,,AUTO
PL6.E3A0      #001=ASC$CONFIG File=ASC$CONFIG.:E05TSI                            TUE 07/29/97 09:34 Page:49
         5 000366   000054 402007                    MPY     44,DL
         5 000367   200025 470500                    LDP0    TWSNR$,,AUTO
         5 000370   000106 100400                    MLR     fill='000'O
         5 000371   000002 000001 xsym               ADSC9   B_VECTNIL+2              cn=0,n=1
         5 000372   000005 000054                    ADSC9   5,Q,PR0                  cn=0,n=44

      259    20927    5               KL$TWSNREC.DEVS.TYP(NDEV) = DEV_NAME.TYPE ;

  20927  5 000373   200033 236100                    LDQ     NDEV,,AUTO
         5 000374   000013 402007                    MPY     11,DL
         5 000375   200012 220100                    LDX0    DEV_NAME,,AUTO
         5 000376   200025 470500                    LDP0    TWSNR$,,AUTO
         5 000377   000005 740106                    STX0    5,QL,PR0

      260    20928    5               KL$TWSNREC.DEVS.NUM(NDEV) = DEV_NAME.NUM ;

  20928  5 000400   200012 721100                    LXL1    DEV_NAME,,AUTO
         5 000401   200025 470500                    LDP0    TWSNR$,,AUTO
         5 000402   000005 441106                    SXL1    5,QL,PR0

      261    20929    5               KL$TWSNREC.DEVS.ATTR(NDEV) = TD$DEV.ATTR ;

  20929  5 000403   200020 470500                    LDP0    TD$DEV$,,AUTO
         5 000404   000011 722100                    LXL2    9,,PR0
         5 000405   200025 471500                    LDP1    TWSNR$,,AUTO
         5 000406   100006 742106                    STX2    6,QL,PR1

      262    20930    5               KL$TWSNREC.DEVS.ACCT(NDEV) = DEV_NAME_R;

  20930  5 000407   200025 470500                    LDP0    TWSNR$,,AUTO
         5 000410   000000 622006                    EAX2    0,QL
         5 000411   000000 623006                    EAX3    0,QL
         5 000412   200012 237100                    LDAQ    DEV_NAME,,AUTO
         5 000413   000011 755112                    STA     9,X2,PR0
         5 000414   000012 756113                    STQ     10,X3,PR0

      263    20931    5               KL$TWSNREC.DEVS.IOM_CONNECTED(NDEV) = '1'B;
PL6.E3A0      #001=ASC$CONFIG File=ASC$CONFIG.:E05TSI                            TUE 07/29/97 09:34 Page:50

  20931  5 000415   200025 470500                    LDP0    TWSNR$,,AUTO
         5 000416   000040 236007                    LDQ     32,DL
         5 000417   000006 256112                    ORSQ    6,X2,PR0

      264    20932    5               IF DEV_NAME.TYPE = 'LP'

  20932  5 000420   000037 100000 2                  CMPX0   KL_TREC+19
         5 000421   000451 601000 5                  TNZ     s:20940

      265    20933    5               THEN
      266    20934    6               DO ;

      267    20935    6                  KL$TWSNREC.DEVS.DDEV(NDEV) = %DDEV_LP# ;

  20935  5 000422   200025 470500                    LDP0    TWSNR$,,AUTO
         5 000423   000006 236112                    LDQ     6,X2,PR0
         5 000424   000002 376000 6                  ANQ     2
         5 000425   400000 276007                    ORQ     -131072,DL
         5 000426   000006 756112                    STQ     6,X2,PR0

      268    20936    6                  KL$TWSNREC.DEVS.IO.INPUT(NDEV) = AS_FALSE ;

  20936  5 000427   200025 470500                    LDP0    TWSNR$,,AUTO
         5 000430   000000 236000 xsym               LDQ     AS_FALSE
         5 000431   000033 772000                    QRL     27
         5 000432   000006 676112                    ERQ     6,X2,PR0
         5 000433   000400 376007                    ANQ     256,DL
         5 000434   000006 656112                    ERSQ    6,X2,PR0

      269    20937    6                  KL$TWSNREC.DEVS.IO.OUTPUT(NDEV) = AS_TRUE ;

  20937  5 000435   200025 470500                    LDP0    TWSNR$,,AUTO
         5 000436   000000 236000 xsym               LDQ     AS_TRUE
         5 000437   000034 772000                    QRL     28
         5 000440   000006 676112                    ERQ     6,X2,PR0
         5 000441   000200 376007                    ANQ     128,DL
PL6.E3A0      #001=ASC$CONFIG File=ASC$CONFIG.:E05TSI                            TUE 07/29/97 09:34 Page:51
         5 000442   000006 656112                    ERSQ    6,X2,PR0

      270    20938    6                  KL$TWSNREC.DEVS.FNAME(NDEV) = 'STDLP' ;

  20938  5 000443   000000 635012                    EAA     0,X2
         5 000444   000020 771000                    ARL     16
         5 000445   200025 470500                    LDP0    TWSNR$,,AUTO
         5 000446   040105 100400                    MLR     fill='040'O
         5 000447   000040 000005 2                  ADSC9   KL_TREC+20               cn=0,n=5
         5 000450   000007 000006                    ADSC9   7,A,PR0                  cn=0,n=6

      271    20939    6                  END ; /* Then do */

      272    20940    5               IF DEV_NAME.TYPE = 'CP'

  20940  5 000451   000042 100000 2                  CMPX0   KL_TREC+22
         5 000452   000502 601000 5                  TNZ     s:20948

      273    20941    5               THEN
      274    20942    6               DO ;

      275    20943    6                  KL$TWSNREC.DEVS.DDEV(NDEV) = %DDEV_CP# ;

  20943  5 000453   200025 470500                    LDP0    TWSNR$,,AUTO
         5 000454   000006 236112                    LDQ     6,X2,PR0
         5 000455   000002 376000 6                  ANQ     2
         5 000456   200000 276007                    ORQ     65536,DL
         5 000457   000006 756112                    STQ     6,X2,PR0

      276    20944    6                  KL$TWSNREC.DEVS.IO.INPUT(NDEV) = AS_FALSE ;;

  20944  5 000460   200025 470500                    LDP0    TWSNR$,,AUTO
         5 000461   000000 236000 xsym               LDQ     AS_FALSE
         5 000462   000033 772000                    QRL     27
         5 000463   000006 676112                    ERQ     6,X2,PR0
         5 000464   000400 376007                    ANQ     256,DL
         5 000465   000006 656112                    ERSQ    6,X2,PR0
PL6.E3A0      #001=ASC$CONFIG File=ASC$CONFIG.:E05TSI                            TUE 07/29/97 09:34 Page:52

      277    20945    6                  KL$TWSNREC.DEVS.IO.OUTPUT(NDEV) = AS_TRUE ;

  20945  5 000466   200025 470500                    LDP0    TWSNR$,,AUTO
         5 000467   000000 236000 xsym               LDQ     AS_TRUE
         5 000470   000034 772000                    QRL     28
         5 000471   000006 676112                    ERQ     6,X2,PR0
         5 000472   000200 376007                    ANQ     128,DL
         5 000473   000006 656112                    ERSQ    6,X2,PR0

      278    20946    6                  KL$TWSNREC.DEVS.FNAME(NDEV) = 'STD**' ;

  20946  5 000474   000000 635012                    EAA     0,X2
         5 000475   000020 771000                    ARL     16
         5 000476   200025 470500                    LDP0    TWSNR$,,AUTO
         5 000477   040105 100400                    MLR     fill='040'O
         5 000500   000043 000005 2                  ADSC9   KL_TREC+23               cn=0,n=5
         5 000501   000007 000006                    ADSC9   7,A,PR0                  cn=0,n=6

      279    20947    6                  END ; /* Then do */

      280    20948    5               IF DEV_NAME.TYPE = 'CR'

  20948  5 000502   000045 100000 2                  CMPX0   KL_TREC+25
         5 000503   000531 601000 5                  TNZ     s:20956

      281    20949    5               THEN
      282    20950    6               DO ;

      283    20951    6                  KL$TWSNREC.DEVS.DDEV(NDEV) = '0'B ;

  20951  5 000504   200025 470500                    LDP0    TWSNR$,,AUTO
         5 000505   000002 236000 6                  LDQ     2
         5 000506   000006 356112                    ANSQ    6,X2,PR0

      284    20952    6                  KL$TWSNREC.DEVS.IO.INPUT(NDEV) = AS_TRUE ;

PL6.E3A0      #001=ASC$CONFIG File=ASC$CONFIG.:E05TSI                            TUE 07/29/97 09:34 Page:53
  20952  5 000507   200025 470500                    LDP0    TWSNR$,,AUTO
         5 000510   000000 236000 xsym               LDQ     AS_TRUE
         5 000511   000033 772000                    QRL     27
         5 000512   000006 676112                    ERQ     6,X2,PR0
         5 000513   000400 376007                    ANQ     256,DL
         5 000514   000006 656112                    ERSQ    6,X2,PR0

      285    20953    6                  KL$TWSNREC.DEVS.IO.OUTPUT(NDEV) = AS_FALSE ;

  20953  5 000515   200025 470500                    LDP0    TWSNR$,,AUTO
         5 000516   000000 236000 xsym               LDQ     AS_FALSE
         5 000517   000034 772000                    QRL     28
         5 000520   000006 676112                    ERQ     6,X2,PR0
         5 000521   000200 376007                    ANQ     128,DL
         5 000522   000006 656112                    ERSQ    6,X2,PR0

      286    20954    6                  KL$TWSNREC.DEVS.FNAME(NDEV) = 'STD**' ;

  20954  5 000523   000000 635012                    EAA     0,X2
         5 000524   000020 771000                    ARL     16
         5 000525   200025 470500                    LDP0    TWSNR$,,AUTO
         5 000526   040105 100400                    MLR     fill='040'O
         5 000527   000043 000005 2                  ADSC9   KL_TREC+23               cn=0,n=5
         5 000530   000007 000006                    ADSC9   7,A,PR0                  cn=0,n=6

      287    20955    6                  END ; /* Then do */

      288    20956    5               IF DEV_NAME.TYPE = 'GR'

  20956  5 000531   000046 100000 2                  CMPX0   KL_TREC+26
         5 000532   000562 601000 5                  TNZ     s:20963

      289    20957    6               THEN DO;

      290    20958    6                  KL$TWSNREC.DEVS.DDEV(NDEV) = %DDEV_GR#;

  20958  5 000533   200025 470500                    LDP0    TWSNR$,,AUTO
PL6.E3A0      #001=ASC$CONFIG File=ASC$CONFIG.:E05TSI                            TUE 07/29/97 09:34 Page:54
         5 000534   000006 236112                    LDQ     6,X2,PR0
         5 000535   000002 376000 6                  ANQ     2
         5 000536   010000 276007                    ORQ     4096,DL
         5 000537   000006 756112                    STQ     6,X2,PR0

      291    20959    6                  KL$TWSNREC.DEVS.IO.INPUT(NDEV) = AS_FALSE ;

  20959  5 000540   200025 470500                    LDP0    TWSNR$,,AUTO
         5 000541   000000 236000 xsym               LDQ     AS_FALSE
         5 000542   000033 772000                    QRL     27
         5 000543   000006 676112                    ERQ     6,X2,PR0
         5 000544   000400 376007                    ANQ     256,DL
         5 000545   000006 656112                    ERSQ    6,X2,PR0

      292    20960    6                  KL$TWSNREC.DEVS.IO.OUTPUT(NDEV) = AS_TRUE ;

  20960  5 000546   200025 470500                    LDP0    TWSNR$,,AUTO
         5 000547   000000 236000 xsym               LDQ     AS_TRUE
         5 000550   000034 772000                    QRL     28
         5 000551   000006 676112                    ERQ     6,X2,PR0
         5 000552   000200 376007                    ANQ     128,DL
         5 000553   000006 656112                    ERSQ    6,X2,PR0

      293    20961    6                  KL$TWSNREC.DEVS.FNAME(NDEV) = 'STDGR' ;

  20961  5 000554   000000 635012                    EAA     0,X2
         5 000555   000020 771000                    ARL     16
         5 000556   200025 470500                    LDP0    TWSNR$,,AUTO
         5 000557   040105 100400                    MLR     fill='040'O
         5 000560   000047 000005 2                  ADSC9   KL_TREC+27               cn=0,n=5
         5 000561   000007 000006                    ADSC9   7,A,PR0                  cn=0,n=6

      294    20962    6                  END ; /* Then do */

      295    20963    5               TWSN_ARS = TWSN_ARS + LENGTHC( KL$TWSNREC.DEVS ) ;

  20963  5 000562   200032 235100                    LDA     TWSN_ARS,,AUTO
PL6.E3A0      #001=ASC$CONFIG File=ASC$CONFIG.:E05TSI                            TUE 07/29/97 09:34 Page:55
         5 000563   000054 035007                    ADLA    44,DL
         5 000564   200032 755100                    STA     TWSN_ARS,,AUTO

      296    20964    5               END ; /* Then do */

      297    20965    4            END ; /* Do k */

  20965  5 000565   200011 235100                    LDA     K,,AUTO
         5 000566   000001 035007                    ADLA    1,DL
         5 000567   200011 755100                    STA     K,,AUTO
         5 000570   200011 236100                    LDQ     K,,AUTO
         5 000571   200005 116100                    CMPQ    CNT,,AUTO
         5 000572   000331 602000 5                  TNC     s:20916

      298    20966    3         END ; /* Do j */

  20966  5 000573   200010 235100                    LDA     J,,AUTO
         5 000574   000001 035007                    ADLA    1,DL
         5 000575   200010 755100                    STA     J,,AUTO
         5 000576   000003 115007                    CMPA    3,DL
         5 000577   000314 602000 5                  TNC     s:20911

      299    20967    2      USERS_KEY = TWSNR_KEY ;

  20967  5 000600   000000 100400                    MLR     fill='000'O
         5 000601   000004 000011 3                  ADSC9   TWSNR_KEY                cn=0,n=9
         5 000602   000000 000052 xsym               ADSC9   USERS_KEY                cn=0,n=42

      300    20968    2      CALL ASB$WRITE_HLP( TWSNR$, TWSN_ARS ) ;

  20968  5 000603   200032 630500                    EPPR0   TWSN_ARS,,AUTO
         5 000604   200055 450500                    STP0    @SIZE+2,,AUTO
         5 000605   200025 631500                    EPPR1   TWSNR$,,AUTO
         5 000606   200054 451500                    STP1    @SIZE+1,,AUTO
         5 000607   200054 630500                    EPPR0   @SIZE+1,,AUTO
         5 000610   000020 631400 xsym               EPPR1   B_VECTNIL+16
         5 000611   000000 701000 xent               TSX1    ASB$WRITE_HLP
PL6.E3A0      #001=ASC$CONFIG File=ASC$CONFIG.:E05TSI                            TUE 07/29/97 09:34 Page:56
         5 000612   000000 011000                    NOP     0

      301    20969                                                              /**/
      302    20970    2      WSN_BUF$ = ADDR( WSN_BUF ) ;

  20970  5 000613   000003 236000 6                  LDQ     3
         5 000614   200045 756100                    STQ     WSN_BUF$,,AUTO

      303    20971    2      WSN_BUF$ = PINCRC( WSN_BUF$, 6 ) ;

  20971  5 000615   000004 036000 6                  ADLQ    4
         5 000616   200045 756100                    STQ     WSN_BUF$,,AUTO

      304    20972    2      WSN$ACCT = TERM_NAME ;

  20972  5 000617   200045 470500                    LDP0    WSN_BUF$,,AUTO
         5 000620   040100 100500                    MLR     fill='040'O
         5 000621   200015 000010                    ADSC9   TERM_NAME,,AUTO          cn=0,n=8
         5 000622   000000 000010                    ADSC9   0,,PR0                   cn=0,n=8

      305    20973    2      WSN_BUF$ = PINCRC( WSN_BUF$, 18 ) ;

  20973  5 000623   000005 036000 6                  ADLQ    5
         5 000624   200045 756100                    STQ     WSN_BUF$,,AUTO

      306    20974    2      WSN$ACCT = TERM_NAME ;

  20974  5 000625   200045 470500                    LDP0    WSN_BUF$,,AUTO
         5 000626   040100 100500                    MLR     fill='040'O
         5 000627   200015 000010                    ADSC9   TERM_NAME,,AUTO          cn=0,n=8
         5 000630   000000 000010                    ADSC9   0,,PR0                   cn=0,n=8

      307    20975    2      IN_BUF = WSN_BUF ;

  20975  5 000631   040000 100400                    MLR     fill='040'O
         5 000632   000007 000120 3                  ADSC9   WSN_BUF                  cn=0,n=80
         5 000633   000000 000377 xsym               ADSC9   IN_BUF                   cn=0,n=255
PL6.E3A0      #001=ASC$CONFIG File=ASC$CONFIG.:E05TSI                            TUE 07/29/97 09:34 Page:57

      308    20976    2      P_PCB.NCHARS = 32 ;

  20976  5 000634   000040 235007                    LDA     32,DL
         5 000635   000011 755000 xsym               STA     P_PCB+9

      309    20977    2      CALL ASW$CONFIG_WSN ;

  20977  5 000636   000002 631400 xsym               EPPR1   B_VECTNIL+2
         5 000637   000000 701000 xent               TSX1    ASW$CONFIG_WSN
         5 000640   000000 011000                    NOP     0

      310    20978    2      I = I + 1 ;

  20978  5 000641   200007 235100                    LDA     I,,AUTO
         5 000642   000001 035007                    ADLA    1,DL
         5 000643   200007 755100                    STA     I,,AUTO

      311    20979    2      IF ADDR(WSN_INDEX) ~= ADDR(NIL) THEN

  20979  5 000644   200003 236100                    LDQ     @WSN_INDEX,,AUTO
         5 000645   000001 116000 xsym               CMPQ    B_VECTNIL+1
         5 000646   000660 601000 5                  TNZ     s:20983

      312    20980    2         EXIT;
      313    20981    2      END ; /* Do while */

  20981  5 000647   200007 235100                    LDA     I,,AUTO
         5 000650   000004 115007                    CMPA    4,DL
         5 000651   000660 603000 5                  TRC     s:20983
         5 000652   000003 735000                    ALS     3
         5 000653   200021 470500                    LDP0    TD$WSN$,,AUTO
         5 000654   040000 106505                    CMPC    fill='040'O
         5 000655   000000 000010                    ADSC9   0,A,PR0                  cn=0,n=8
         5 000656   000000 000001 xsym               ADSC9   AS_BLANK                 cn=0,n=1
         5 000657   000171 601000 5                  TNZ     s:20882

PL6.E3A0      #001=ASC$CONFIG File=ASC$CONFIG.:E05TSI                            TUE 07/29/97 09:34 Page:58
      314    20982                                                              /**/
      315    20983    1   CVT_ARS = (KL$WSNCVT.LTWSN + 2) * 8;  /* set bound for wsncvt record */

  20983  5 000660   200026 470500                    LDP0    WSNCVT$,,AUTO
         5 000661   000001 235100                    LDA     1,,PR0
         5 000662   000003 735000                    ALS     3
         5 000663   000020 035007                    ADLA    16,DL
         5 000664   200027 755100                    STA     CVT_ARS,,AUTO

      316    20984    1   USERS_KEY.COUNT = 4 ;

  20984  5 000665   004000 236003                    LDQ     2048,DU
         5 000666   000000 552040 xsym               STBQ    USERS_KEY,'40'O

      317    20985    1   USERS_KEY.TXTC = 'TERM' ;

  20985  5 000667   040000 100400                    MLR     fill='040'O
         5 000670   000036 000004 2                  ADSC9   KL_TREC+18               cn=0,n=4
         5 000671   000000 200051 xsym               ADSC9   USERS_KEY                cn=1,n=41

      318    20986    1   CALL ASB$WRITE_HLP( WSNCVT$, CVT_ARS ) ALTRET( READ_CONFIG_ERR ) ;

  20986  5 000672   200027 631500                    EPPR1   CVT_ARS,,AUTO
         5 000673   200055 451500                    STP1    @SIZE+2,,AUTO
         5 000674   200026 633500                    EPPR3   WSNCVT$,,AUTO
         5 000675   200054 453500                    STP3    @SIZE+1,,AUTO
         5 000676   200054 630500                    EPPR0   @SIZE+1,,AUTO
         5 000677   000020 631400 xsym               EPPR1   B_VECTNIL+16
         5 000700   000000 701000 xent               TSX1    ASB$WRITE_HLP
         5 000701   000722 702000 5                  TSX2    READ_CONFIG_ERR

      319    20987                                                              /**/
      320    20988    1   CALL ASB$CLOSE_HLP ;

  20988  5 000702   000002 631400 xsym               EPPR1   B_VECTNIL+2
         5 000703   000000 701000 xent               TSX1    ASB$CLOSE_HLP
         5 000704   000000 011000                    NOP     0
PL6.E3A0      #001=ASC$CONFIG File=ASC$CONFIG.:E05TSI                            TUE 07/29/97 09:34 Page:59

      321    20989    1   CALL M$CLOSE( CLOSE_FPT ) ;

  20989  5 000705   000126 630400 3                  EPPR0   CLOSE_FPT
         5 000706   050001 713400                    CLIMB   close
         5 000707   406000 401760                    pmme    nvectors=13

      322    20990                                                              /**/
      323    20991    1   RETURN ;

  20991  5 000710   000000 702200 xent               TSX2  ! X66_ARET

  20985  5 000711                       OPEN_ERR     null
      324    20992                                                              /* Errors */
      325    20993    1   OPEN_ERR: ;
      326    20994    1   ERR_CODE = B$TCB$ -> B$TCB.ALT$ -> B$ALT.ERR ;

  20994  5 000711   000000 470400 xsym               LDP0    B$TCB$
         5 000712   000000 471500                    LDP1    0,,PR0
         5 000713   100102 236100                    LDQ     66,,PR1
         5 000714   000000 756000 xsym               STQ     ERR_CODE

      327    20995    1   CALL ASH$ERROR( ERR_CODE ) ;

  20995  5 000715   000006 630400 6                  EPPR0   6
         5 000716   000017 631400 xsym               EPPR1   B_VECTNIL+15
         5 000717   000000 701000 xent               TSX1    ASH$ERROR
         5 000720   000000 011000                    NOP     0

      328    20996    1   RETURN ;

  20996  5 000721   000000 702200 xent               TSX2  ! X66_ARET

  20994  5 000722                       READ_CONFIG* null
      329    20997                                                              /**/
      330    20998    1   READ_CONFIG_ERR: ;
      331    20999    1   ERR_CODE = B$TCB$ -> B$TCB.ALT$ -> B$ALT.ERR ;
PL6.E3A0      #001=ASC$CONFIG File=ASC$CONFIG.:E05TSI                            TUE 07/29/97 09:34 Page:60

  20999  5 000722   000000 470400 xsym               LDP0    B$TCB$
         5 000723   000000 471500                    LDP1    0,,PR0
         5 000724   100102 236100                    LDQ     66,,PR1
         5 000725   000000 756000 xsym               STQ     ERR_CODE

      332    21000    1   CALL ASH$ERROR( ERR_CODE ) ;

  21000  5 000726   000006 630400 6                  EPPR0   6
         5 000727   000017 631400 xsym               EPPR1   B_VECTNIL+15
         5 000730   000000 701000 xent               TSX1    ASH$ERROR
         5 000731   000000 011000                    NOP     0

      333    21001    1   RETURN ;

  21001  5 000732   000000 702200 xent               TSX2  ! X66_ARET

      334    21002                                                              /**/
      335    21003        %EJECT ;
PL6.E3A0      #001=ASC$CONFIG File=ASC$CONFIG.:E05TSI                            TUE 07/29/97 09:34 Page:61
      336    21004    1   READ_CONFIG: PROC( KEY, BUF$, SIZE ) ALTRET ;

  21004  5 000733   200050 741300       READ_CONFIG  STX1  ! START2_SZ+1,,AUTO

      337    21005        %EJECT ;
PL6.E3A0      #001=ASC$CONFIG File=ASC$CONFIG.:E05TSI                            TUE 07/29/97 09:34 Page:62
      338    21006        /*********************************************************************/
      339    21007        /*   Parameters      parameters      parameters      parameters      */
      340    21008        /*********************************************************************/
      341    21009                                                              /**/
      342    21010    2   DCL 1 KEY ,
      343    21011    2          2 CNT UBIN BYTE UNAL ,
      344    21012    2          2 TXT CHAR(31) UNAL ;
      345    21013    2   DCL BUF$ PTR ;
      346    21014    2   DCL SIZE UBIN WORD ;
      347    21015        %EJECT ;
PL6.E3A0      #001=ASC$CONFIG File=ASC$CONFIG.:E05TSI                            TUE 07/29/97 09:34 Page:63
      348    21016        /*********************************************************************/
      349    21017        /*   Fpts            fpts            fpts            fpts            */
      350    21018        /*********************************************************************/
      351    21019                                                                                      /**/
      352    21020              %FPT_READ(  FPTN = READ_FPT ,
      353    21021                          DCB = M$CNFG ,
      354    21022                          KEYS = YES ) ;
      355    21061        %EJECT ;
PL6.E3A0      #001=ASC$CONFIG File=ASC$CONFIG.:E05TSI                            TUE 07/29/97 09:34 Page:64
      356    21062        /*********************************************************************/
      357    21063        /*   Include files   include files   include files   include files   */
      358    21064        /*********************************************************************/
      359    21065              %INCLUDE F$DCB ;
      360    21114        %EJECT ;
PL6.E3A0      #001=ASC$CONFIG File=ASC$CONFIG.:E05TSI                            TUE 07/29/97 09:34 Page:65
      361    21115        /*********************************************************************/
      362    21116        /*   Procedure       procedure       procedure       procedure       */
      363    21117        /*********************************************************************/
      364    21118                                                              /**/
      365    21119                                                              /*
      366    21120                                                                   Set BUF$ in read fpt
      367    21121                                                              */
      368    21122    2   READ_FPT.BUF_.BUF$ = BUF$ ;

  21122  5 000734   200052 470500                    LDP0    @BUF$,,AUTO
         5 000735   000000 236100                    LDQ     0,,PR0
         5 000736   000171 756000 3                  STQ     READ_FPT+5

      369    21123    2   READ_FPT.BUF_.BOUND = SIZE - 1;

  21123  5 000737   200053 471500                    LDP1    @SIZE,,AUTO
         5 000740   100000 236100                    LDQ     0,,PR1
         5 000741   000001 136007                    SBLQ    1,DL
         5 000742   000020 736000                    QLS     16
         5 000743   000170 676000 3                  ERQ     READ_FPT+4
         5 000744   000034 376000 xsym               ANQ     B_VECTNIL+28
         5 000745   000170 656000 3                  ERSQ    READ_FPT+4

      370    21124    2   READ_FPT.KEY_ = VECTOR( KEY ) ;

  21124  5 000746   000007 235000 6                  LDA     7
         5 000747   200051 236100                    LDQ     @KEY,,AUTO
         5 000750   000166 757000 3                  STAQ    READ_FPT+2

      371    21125    2   CALL M$READ( READ_FPT ) ALTRET( READ_ERR ) ;

  21125  5 000751   000164 630400 3                  EPPR0   READ_FPT
         5 000752   440000 713400                    CLIMB   alt,read
         5 000753   401400 401760                    pmme    nvectors=4
         5 000754   000767 702000 5                  TSX2    READ_ERR

      372    21126    2   M$CNFG$ = DCBADDR( DCBNUM( M$CNFG ) ) ;
PL6.E3A0      #001=ASC$CONFIG File=ASC$CONFIG.:E05TSI                            TUE 07/29/97 09:34 Page:66

  21126  5 000755   000000 236007 xsym               LDQ     M$CNFG,DL
         5 000756   000010 470400 6                  LDP0    8
         5 000757   000000 471500                    LDP1    0,,PR0
         5 000760   100000 236106                    LDQ     0,QL,PR1
         5 000761   200004 756100                    STQ     M$CNFG$,,AUTO

      373    21127    2   ARS = M$CNFG$ -> F$DCB.ARS ;

  21127  5 000762   200004 473500                    LDP3    M$CNFG$,,AUTO
         5 000763   300000 235100                    LDA     0,,PR3
         5 000764   200030 755100                    STA     ARS,,AUTO

      374    21128    2   RETURN ;

  21128  5 000765   200050 221300                    LDX1  ! START2_SZ+1,,AUTO
         5 000766   000001 702211                    TSX2  ! 1,X1

  21127  5 000767                       READ_ERR     null
      375    21129                                                              /**/
      376    21130    2   READ_ERR: ;
      377    21131    2   ERR_CODE = B$TCB$ -> B$TCB.ALT$ -> B$ALT.ERR ;

  21131  5 000767   000000 470400 xsym               LDP0    B$TCB$
         5 000770   000000 471500                    LDP1    0,,PR0
         5 000771   100102 236100                    LDQ     66,,PR1
         5 000772   000000 756000 xsym               STQ     ERR_CODE

      378    21132    2   ALTRETURN ;

  21132  5 000773   200050 221300                    LDX1  ! START2_SZ+1,,AUTO
         5 000774   000000 702211                    TSX2  ! 0,X1
      379    21133                                                              /**/
      380    21134    2   END   READ_CONFIG ;
      381    21135    1   END   ASC$CONFIG ;

PL6.E3A0      #001=ASC$CONFIG File=ASC$CONFIG.:E05TSI                            TUE 07/29/97 09:34 Page:67
--  Include file information  --

   F$DCB.:E05TOU  cannot be made into a system file and is referenced.
   AS_SUPER_R.:E05TOU  cannot be made into a system file and is referenced.
   CP_6_SUBS.:E05TOU  is referenced.
   TD$STRUCT.:E05TOU  is referenced.
   B_ERRORS_C.:E05TOU  is referenced.
   XU_FORMAT_C.:E05TOU  is referenced.
   XU_MACRO_C.:E05TOU  is referenced.
   KL_SUPER_C.:E05TOU  is referenced.
   AS_SUBS_C.:E05TOU  is referenced.
   AS_MAC_C.:E05TOU  cannot be made into a system file and is referenced.
   AS_SSUBS_C.:E05TOU  is referenced.
   AS_SUPER_C.:E05TOU  is referenced.
   CP_6_C.:E05TOU  is referenced.
   CP_6.:E05TOU  cannot be made into a system file and is referenced.
   AS_PERR_C.:E05TOU  is referenced.
   AS_ENTRIES_M.:E05TOU  is referenced.
      No diagnostics issued in procedure ASC$CONFIG.
PL6.E3A0      #001=ASC$CONFIG File=ASC$CONFIG.:E05TSI                            TUE 07/29/97 09:34 Page:68

 **** Variables and constants ****

  ****  Section 002 RoData ASC$CONFIG

  ****  Scalars and arrays  ****
OctLoc.c.b A Datatyp(siz) R M Lvl/name                 OctLoc.c.b A Datatyp(siz) R M Lvl/name

     0-0-0/c STRC(288)   r     1 FILE_NAME                 14-0-0/w STRC(576)   r     1 KL_TREC
    10-0-0/c CHAR(4)     r     1 TWSN_NUM_ARRY(0:3)

  ****  Section 003  Data  ASC$CONFIG

  ****  Scalars and arrays  ****
OctLoc.c.b A Datatyp(siz) R M Lvl/name                 OctLoc.c.b A Datatyp(siz) R M Lvl/name

   126-0-0/d STRC(1080)  r     1 CLOSE_FPT                 34-0-0/d STRC(2088)  r     1 OPEN_FPT
   164-0-0/d STRC(504)   r     1 READ_FPT                   0-0-0/c STRC(144)   r     1 TERM_KEY
     4-0-0/c STRC(81)    r     1 TWSNR_KEY                  7-0-0/c CHAR(80)    r     1 WSN_BUF

  ****  Auto variables  ****

  ****  Scalars and arrays  ****
OctLoc.c.b A Datatyp(siz) R M Lvl/name                 OctLoc.c.b A Datatyp(siz) R M Lvl/name

    52-0-0/w PTR         r     1 @BUF$                     51-0-0/w PTR         r     1 @KEY
    53-0-0/w PTR         r     1 @SIZE                      3-0-0/w PTR         r     1 @WSN_INDEX
    30-0-0/w UBIN        r     1 ARS                       *0-0-0/w PTR         r     1 BUF$
     5-0-0/w UBIN        r     1 CNT                       27-0-0/w UBIN        r     1 CVT_ARS
    12-0-0/w STRC(72)    r     1 DEV_NAME                  12-0-0/w CHAR(8)     r     1 DEV_NAME_R
    22-0-0/w PTR         r     1 HEAD$                      7-0-0/w UBIN        r     1 I
     6-0-0/w UBIN        r     1 INDX                      10-0-0/w UBIN        r     1 J
    11-0-0/w UBIN        r     1 K                         35-0-0/w STRC(288)   r     1 KEY
    *0-0-0/c STRC(288)   r     1 KEY                        4-0-0/w PTR         r     1 M$CNFG$
    33-0-0/w UBIN        r     1 NDEV                      *0-0-0/w UBIN        r     1 SIZE
    24-0-0/w PTR         r     1 SS$                       34-0-0/w PTR         r     1 START$
    46-0-0/w PTR         r     1 START2$                   47-0-0/w UBIN        r     1 START2_SZ
    20-0-0/w PTR         r     1 TD$DEV$                   17-0-0/w PTR         r     1 TD$HEAD$
PL6.E3A0      #001=ASC$CONFIG File=ASC$CONFIG.:E05TSI                            TUE 07/29/97 09:34 Page:69
    21-0-0/w PTR         r     1 TD$WSN$                   15-0-0/c CHAR(8)     r     1 TERM_NAME
    23-0-0/w PTR         r     1 TREC$                     25-0-0/w PTR         r     1 TWSNR$
    32-0-0/w UBIN        r     1 TWSN_ARS                  14-0-0/c CHAR(4)     r     1 TWSN_NUM
    31-0-0/w UBIN        r     1 T_ARS                     26-0-0/w PTR         r     1 WSNCVT$
    45-0-0/w PTR         r     1 WSN_BUF$                  *0-0-0/w UBIN        r     1 WSN_INDEX

  ****  SYMREF variables  ****

  ****  Scalars and arrays  ****
OctLoc.c.b A Datatyp(siz) R M Lvl/name                 OctLoc.c.b A Datatyp(siz) R M Lvl/name

     0-0-0/c CHAR        r     1 AS_BLANK                   0-0-0/b BIT         r     1 AS_FALSE
     0-0-0/b BIT         r     1 AS_TRUE                    0-0-0/w PTR         r     1 B$TCB$
     0-0-0/w PTR         r     1 DSEG1$                     0-0-0/w UBIN        r     1 DSEG1SIZE
     0-0-0/w PTR         r     1 DSEG2$                     0-0-0/b BIT         r     1 DSEG_FLG
     0-0-0/b STRC        r     1 ERR_CODE                   0-0-0/c STRC(72)    r     1 FILE_ACCT
     0-0-0/c CHAR(255)   r     1 IN_BUF                     0-0-0/w STRC(504)   r     1 P_PCB
     0-0-0/c STRC(378)   r     1 USERS_KEY

  ****  BASED and DCB variables  ****

  ****  Scalars and arrays  ****
OctLoc.c.b A Datatyp(siz) R M Lvl/name                 OctLoc.c.b A Datatyp(siz) R M Lvl/name

     0-0-0/w STRC(2448)  r     1 B$ALT                      0-0-0/w STRC(144)   r     1 B$TCB
     0-0-0/w STRC        r     1 DEV$STRCT                  0-0-0/d ASTR(3528)  r     1 F$DCB
     0-0-0/w STRC(576)   r     1 KL$TREC                    0-0-0/w STRC(576)   r     1 KL$TWSNREC
     0-0-0/w STRC(144)   r     1 KL$WSNCVT                  0-0-0N  NULL        r     1 M$CNFG
     0-0-0/w STRC(396)   r     1 TD$DEV                     0-0-0/w STRC(648)   r     1 TD$HEAD
     0-0-0/w STRC(288)   r     1 TD$WSN                     0-0-0/c CHAR(8)     r     1 WSN$ACCT


   Procedure ASC$CONFIG requires 509 words for executable code.
   Procedure ASC$CONFIG requires 48 words of local(AUTO) storage.
PL6.E3A0      #001=ASC$CONFIG File=ASC$CONFIG.:E05TSI                            TUE 07/29/97 09:34 Page:70

    No errors detected in file ASC$CONFIG.:E05TSI    .
PL6.E3A0      #001=ASC$CONFIG File=ASC$CONFIG.:E05TSI                            TUE 07/29/97 09:34 Page:71
          *** CROSS REFERENCE LISTING ***
**     DENOTES     IDENTIFIER DEFINITION
<<                 IDENTIFIER'S VALUE SET
>>                 IDENTIFIER'S VALUE USED
<>                 IDENTIFIER SET AND/OR USED
--                 IDENTIFIER REFERENCED
PL6.E3A0      #001=ASC$CONFIG File=ASC$CONFIG.:E05TSI                            TUE 07/29/97 09:34 Page:72
          MINI XREF LISTING

ARS
     20551**DCL     20852<<ASSIGN  20855<>CALL    20856>>ASSIGN  20857<<ASSIGN  20862<>CALL    20863>>ASSIGN
     20864<<ASSIGN  20869<>CALL    20870>>ASSIGN  20871<<ASSIGN  20874<<ASSIGN  20874>>ASSIGN  20922<>CALL
     21127<<ASSIGN
ASA_BRKS_LOC
     17346**DCL     17346--REDEF
ASB$CLOSE_HLP
     20574**DCL-ENT 20988--CALL
ASB$GETSEG
     20583**DCL-ENT 20825--CALL
ASB$OPEN_HLP_UP
     20571**DCL-ENT 20847--CALL
ASB$READ_HLP
     20577**DCL-ENT 20869--CALL
ASB$WRITE_HLP
     20580**DCL-ENT 20895--CALL    20968--CALL    20986--CALL
ASH$ERROR
     20568**DCL-ENT 20839--CALL    20995--CALL    21000--CALL
ASW$CONFIG_WSN
     20586**DCL-ENT 20977--CALL
AS_BLANK
     17206**DCL     20881>>DOWHILE 20905>>ASSIGN
AS_DEFAULT.BANNER_PERM
     18039**DCL     18040--REDEF
AS_DEFAULT.BUDGET.MACCT
     17944**DCL     17948--REDEF
AS_DEFAULT.BUDGET.MAX_PROJECTS
     17957**DCL     17960--REDEF
AS_DEFAULT.BUDGET.PACCUM
     17940**DCL     17942--REDEF
AS_DEFAULT.BUDGET.PMAXC
     17935**DCL     17937--REDEF
PL6.E3A0      #001=ASC$CONFIG File=ASC$CONFIG.:E05TSI                            TUE 07/29/97 09:34 Page:73
AS_DEFAULT.SETUP_CHRA.TXT
     18055**DCL     18056--REDEF   18057--REDEF
AS_DEFAULT_DREC.PASSWORD
     19309**DCL     19313--REDEF
AS_DEFAULT_DREC.RENAME
     19332**DCL     19333--REDEF
AS_DFLT.BANNER_PERM
     17861**DCL     17862--REDEF
AS_DFLT.BUDGET.MACCT
     17766**DCL     17770--REDEF
AS_DFLT.BUDGET.MAX_PROJECTS
     17779**DCL     17782--REDEF
AS_DFLT.BUDGET.PACCUM
     17762**DCL     17764--REDEF
AS_DFLT.BUDGET.PMAXC
     17757**DCL     17759--REDEF
AS_DFLT.SETUP_CHRA.TXT
     17877**DCL     17878--REDEF   17879--REDEF
AS_FALSE
     17206**DCL     20936>>ASSIGN  20944>>ASSIGN  20953>>ASSIGN  20959>>ASSIGN
AS_FE_MODE
     17212**DCL     17213--REDEF
AS_MODE
     17209**DCL     17211--REDEF
AS_MOD_USER.ACCESS
     20074**DCL     20075--REDEF
AS_MOD_USER.BANNER
     20061**DCL     20062--REDEF
AS_MOD_USER.BANNER_PERM
     20063**DCL     20064--REDEF
AS_MOD_USER.BILL
     20069**DCL     20070--REDEF
AS_MOD_USER.CPROC
     20065**DCL     20066--REDEF
AS_MOD_USER.FEBILL
     20145**DCL     20146--REDEF
PL6.E3A0      #001=ASC$CONFIG File=ASC$CONFIG.:E05TSI                            TUE 07/29/97 09:34 Page:74
AS_MOD_USER.FECXTMEM
     20162**DCL     20163--REDEF
AS_MOD_USER.FEMINTS
     20147**DCL     20148--REDEF
AS_MOD_USER.FEMMEM
     20158**DCL     20159--REDEF
AS_MOD_USER.FEMTIME
     20156**DCL     20157--REDEF
AS_MOD_USER.FEPPRIV
     20153**DCL     20155--REDEF
AS_MOD_USER.FEPRIV
     20150**DCL     20152--REDEF
AS_MOD_USER.FORCE_BIT
     20059**DCL     20060--REDEF
AS_MOD_USER.KEY
     20141**DCL     20143--REDEF
AS_MOD_USER.LASTCPROC
     20067**DCL     20068--REDEF
AS_MOD_USER.LIMITS.DO_
     20115**DCL     20116--REDEF
AS_MOD_USER.LIMITS.FPOOLS
     20131**DCL     20132--REDEF
AS_MOD_USER.LIMITS.LO
     20111**DCL     20112--REDEF
AS_MOD_USER.LIMITS.MEM
     20107**DCL     20108--REDEF
AS_MOD_USER.LIMITS.MPRIO
     20135**DCL     20136--REDEF
AS_MOD_USER.LIMITS.PDIS
     20123**DCL     20124--REDEF
AS_MOD_USER.LIMITS.PO
     20119**DCL     20120--REDEF
AS_MOD_USER.LIMITS.TDIS
     20127**DCL     20128--REDEF
AS_MOD_USER.LIMITS.TIME
     20103**DCL     20104--REDEF
PL6.E3A0      #001=ASC$CONFIG File=ASC$CONFIG.:E05TSI                            TUE 07/29/97 09:34 Page:75
AS_MOD_USER.MAXENQ
     20084**DCL     20085--REDEF
AS_MOD_USER.PERM_BIT
     20057**DCL     20058--REDEF
AS_MOD_USER.PPRIV
     20079**DCL     20081--REDEF
AS_MOD_USER.PRIOB
     20086**DCL     20087--REDEF
AS_MOD_USER.PRIV
     20076**DCL     20078--REDEF
AS_MOD_USER.QUAN
     20082**DCL     20083--REDEF
AS_MOD_USER.SETUP
     20055**DCL     20056--REDEF
AS_PROJECT.BANNER_PERM
     18395**DCL     18396--REDEF
AS_PROJECT.BUDGET.MACCT
     18300**DCL     18304--REDEF
AS_PROJECT.BUDGET.MAX_PROJECTS
     18313**DCL     18316--REDEF
AS_PROJECT.BUDGET.PACCUM
     18296**DCL     18298--REDEF
AS_PROJECT.BUDGET.PMAXC
     18291**DCL     18293--REDEF
AS_PROJECT.SETUP_CHRA.TXT
     18411**DCL     18412--REDEF   18413--REDEF
AS_PROJECT_DFLT.BANNER_PERM
     18573**DCL     18574--REDEF
AS_PROJECT_DFLT.BUDGET.MACCT
     18478**DCL     18482--REDEF
AS_PROJECT_DFLT.BUDGET.MAX_PROJECTS
     18491**DCL     18494--REDEF
AS_PROJECT_DFLT.BUDGET.PACCUM
     18474**DCL     18476--REDEF
AS_PROJECT_DFLT.BUDGET.PMAXC
     18469**DCL     18471--REDEF
PL6.E3A0      #001=ASC$CONFIG File=ASC$CONFIG.:E05TSI                            TUE 07/29/97 09:34 Page:76
AS_PROJECT_DFLT.SETUP_CHRA.TXT
     18589**DCL     18590--REDEF   18591--REDEF
AS_PROJECT_DFLT_DREC.PASSWORD
     19795**DCL     19799--REDEF
AS_PROJECT_DFLT_DREC.RENAME
     19818**DCL     19819--REDEF
AS_PROJECT_DREC.PASSWORD
     19633**DCL     19637--REDEF
AS_PROJECT_DREC.RENAME
     19656**DCL     19657--REDEF
AS_PROJ_ADMIN.BANNER_PERM
     18217**DCL     18218--REDEF
AS_PROJ_ADMIN.BUDGET.MACCT
     18122**DCL     18126--REDEF
AS_PROJ_ADMIN.BUDGET.MAX_PROJECTS
     18135**DCL     18138--REDEF
AS_PROJ_ADMIN.BUDGET.PACCUM
     18118**DCL     18120--REDEF
AS_PROJ_ADMIN.BUDGET.PMAXC
     18113**DCL     18115--REDEF
AS_PROJ_ADMIN.SETUP_CHRA.TXT
     18233**DCL     18234--REDEF   18235--REDEF
AS_PROJ_ADMIN_DREC.PASSWORD
     19471**DCL     19475--REDEF
AS_PROJ_ADMIN_DREC.RENAME
     19494**DCL     19495--REDEF
AS_TRUE
     17206**DCL     20937>>ASSIGN  20945>>ASSIGN  20952>>ASSIGN  20960>>ASSIGN
AS_USERS.BANNER_PERM
     17683**DCL     17684--REDEF
AS_USERS.BUDGET.MACCT
     17588**DCL     17592--REDEF
AS_USERS.BUDGET.MAX_PROJECTS
     17601**DCL     17604--REDEF
AS_USERS.BUDGET.PACCUM
     17584**DCL     17586--REDEF
PL6.E3A0      #001=ASC$CONFIG File=ASC$CONFIG.:E05TSI                            TUE 07/29/97 09:34 Page:77
AS_USERS.BUDGET.PMAXC
     17579**DCL     17581--REDEF
AS_USERS.SETUP_CHRA.TXT
     17699**DCL     17700--REDEF   17701--REDEF
AS_USERS_CONSTANT.BANNER_PERM
     18751**DCL     18752--REDEF
AS_USERS_CONSTANT.BUDGET.MACCT
     18656**DCL     18660--REDEF
AS_USERS_CONSTANT.BUDGET.MAX_PROJECTS
     18669**DCL     18672--REDEF
AS_USERS_CONSTANT.BUDGET.PACCUM
     18652**DCL     18654--REDEF
AS_USERS_CONSTANT.BUDGET.PMAXC
     18647**DCL     18649--REDEF
AS_USERS_CONSTANT.SETUP_CHRA.TXT
     18767**DCL     18768--REDEF   18769--REDEF
B$ALT.CODE
     20595**DCL     20595--REDEF   20596--REDEF   20596--REDEF
B$ALT.ERR
     20596**DCL     20994>>ASSIGN  20999>>ASSIGN  21131>>ASSIGN
B$ALT.ERR.ERR#
     20597**DCL     20597--REDEF
B$ALT.EVID
     20596**DCL     20596--REDEF   20596--REDEF
B$TCB.ALT$
     20602**DCL     20994>>ASSIGN  20999>>ASSIGN  21131>>ASSIGN
B$TCB$
     20348**DCL     20994>>ASSIGN  20999>>ASSIGN  21131>>ASSIGN
BUF$ IN PROCEDURE READ_CONFIG
     21013**DCL     21004--PROC    21122>>ASSIGN
CLOSE_FPT
     20496**DCL     20989<>CALL
CLOSE_FPT.SN_
     20496**DCL     20496--REDEF
CLOSE_FPT.UTL_
     20497**DCL     20497--REDEF
PL6.E3A0      #001=ASC$CONFIG File=ASC$CONFIG.:E05TSI                            TUE 07/29/97 09:34 Page:78
CLOSE_FPT.V
     20501**DCL     20496--DCLINIT
CLOSE_FPT.V.EXPIRE#
     20511**DCL     20511--REDEF
CLOSE_FPT.V.TYPE#
     20509**DCL     20509--REDEF
CLOSE_FPT.V.XTNSIZE#
     20506**DCL     20506--REDEF   20508--REDEF
CNT
     20527**DCL     20913<<ASSIGN  20915>>DOINDEX
CVT_ARS
     20550**DCL     20983<<ASSIGN  20986<>CALL
DEV$STRCT.INDX
     20538**DCL     20912>>ASSIGN
DEV$STRCT.NUM
     20539**DCL     20913>>ASSIGN
DEV_NAME
     20532**DCL     20536--REDEF
DEV_NAME.NUM
     20534**DCL     20928>>ASSIGN
DEV_NAME.TWSN
     20535**DCL     20917>>IF
DEV_NAME.TYPE
     20533**DCL     20927>>ASSIGN  20932>>IF      20940>>IF      20948>>IF      20956>>IF
DEV_NAME_R
     20536**DCL     20916<<ASSIGN  20921>>ASSIGN  20930>>ASSIGN
DSEG1$
     17347**DCL     20849>>ASSIGN
DSEG1SIZE
     17348**DCL     20850>>ASSIGN
DSEG2$
     17348**DCL     20885>>ASSIGN
DSEG_FLG
     17347**DCL     20824>>IF
ERR_CODE
     17341**DCL     17342--REDEF   20994<<ASSIGN  20995<>CALL    20999<<ASSIGN  21000<>CALL    21131<<ASSIGN
PL6.E3A0      #001=ASC$CONFIG File=ASC$CONFIG.:E05TSI                            TUE 07/29/97 09:34 Page:79
F$DCB.ACTPOS IN PROCEDURE READ_CONFIG
     21091**DCL     21091--REDEF
F$DCB.ARS IN PROCEDURE READ_CONFIG
     21066**DCL     21066--REDEF   21127>>ASSIGN
F$DCB.ATTR IN PROCEDURE READ_CONFIG
     21084**DCL     21085--REDEF
F$DCB.BORROW IN PROCEDURE READ_CONFIG
     21099**DCL     21099--REDEF   21099--REDEF   21099--REDEF
F$DCB.DCBNAME.L IN PROCEDURE READ_CONFIG
     21113**DCL     21113--IMP-SIZ
F$DCB.EOMCHAR IN PROCEDURE READ_CONFIG
     21070**DCL     21070--REDEF
F$DCB.FLDID IN PROCEDURE READ_CONFIG
     21094**DCL     21094--REDEF
F$DCB.FORM$ IN PROCEDURE READ_CONFIG
     21088**DCL     21088--REDEF
F$DCB.FSECT IN PROCEDURE READ_CONFIG
     21104**DCL     21104--REDEF
F$DCB.FSN IN PROCEDURE READ_CONFIG
     21081**DCL     21081--REDEF   21081--REDEF   21082--REDEF
F$DCB.HEADER$ IN PROCEDURE READ_CONFIG
     21087**DCL     21087--REDEF
F$DCB.IXTNSIZE IN PROCEDURE READ_CONFIG
     21085**DCL     21085--REDEF
F$DCB.LASTSTA$ IN PROCEDURE READ_CONFIG
     21075**DCL     21075--REDEF
F$DCB.LVL IN PROCEDURE READ_CONFIG
     21100**DCL     21100--REDEF
F$DCB.NAME.C IN PROCEDURE READ_CONFIG
     21075**DCL     21075--REDEF
F$DCB.NOEOF IN PROCEDURE READ_CONFIG
     21096**DCL     21096--REDEF
F$DCB.NRECS IN PROCEDURE READ_CONFIG
     21086**DCL     21086--REDEF
F$DCB.NRECX IN PROCEDURE READ_CONFIG
     21105**DCL     21105--REDEF
PL6.E3A0      #001=ASC$CONFIG File=ASC$CONFIG.:E05TSI                            TUE 07/29/97 09:34 Page:80
F$DCB.OHDR IN PROCEDURE READ_CONFIG
     21097**DCL     21097--REDEF
F$DCB.ORG IN PROCEDURE READ_CONFIG
     21080**DCL     21080--REDEF
F$DCB.PRECNO IN PROCEDURE READ_CONFIG
     21103**DCL     21103--REDEF
F$DCB.RCSZ IN PROCEDURE READ_CONFIG
     21108**DCL     21108--REDEF
F$DCB.RES IN PROCEDURE READ_CONFIG
     21076**DCL     21076--REDEF
F$DCB.SETX IN PROCEDURE READ_CONFIG
     21088**DCL     21088--REDEF
F$DCB.TAB$ IN PROCEDURE READ_CONFIG
     21087**DCL     21088--REDEF
F$DCB.TDA IN PROCEDURE READ_CONFIG
     21102**DCL     21102--REDEF
F$DCB.WSN IN PROCEDURE READ_CONFIG
     21077**DCL     21077--REDEF
FILE_ACCT
     17349**DCL     20432--DCLINIT
FILE_NAME
     20209**DCL     20428--DCLINIT
HEAD$
     20545**DCL     20537--IMP-PTR 20911<<ASSIGN  20912>>ASSIGN  20913>>ASSIGN
I
     20529**DCL     20878<<ASSIGN  20880<<ASSIGN  20881>>DOWHILE 20881>>DOWHILE 20882>>ASSIGN  20883>>ASSIGN
     20897>>IF      20900>>ASSIGN  20902>>ASSIGN  20978<<ASSIGN  20978>>ASSIGN
INDX
     20528**DCL     20912<<ASSIGN  20916>>ASSIGN
IN_BUF
     17337**DCL     20975<<ASSIGN
J
     20530**DCL     20910<<DOINDEX 20911>>ASSIGN
K
     20531**DCL     20915<<DOINDEX 20916>>ASSIGN
KEY
PL6.E3A0      #001=ASC$CONFIG File=ASC$CONFIG.:E05TSI                            TUE 07/29/97 09:34 Page:81
     20556**DCL     20853<<ASSIGN  20855<>CALL    20862<>CALL    20922<>CALL
KEY.CNT
     20557**DCL     20854<<ASSIGN  20860<<ASSIGN  20920<<ASSIGN
KEY.TXT
     20558**DCL     20861<<ASSIGN  20921<<ASSIGN
KEY IN PROCEDURE READ_CONFIG
     21010**DCL     21004--PROC    21124--ASSIGN
KL$TREC
     20681**DCL     20886<<ASSIGN  20891--ASSIGN
KL$TREC.ATYP
     20686**DCL     20887<<ASSIGN
KL$TREC.PASSWORD
     20739**DCL     20743--REDEF
KL$TREC.RENAME
     20762**DCL     20763--REDEF
KL$TREC.SUPER
     20733**DCL     20888<<ASSIGN
KL$TREC.TWSN#
     20736**DCL     20890<<ASSIGN
KL$TREC.WOO
     20759**DCL     20889<<ASSIGN
KL$TWSNREC
     20783**DCL     20904<<ASSIGN  20908--ASSIGN
KL$TWSNREC.DEVS
     20787**DCL     20908--ASSIGN  20926<<ASSIGN  20963--ASSIGN
KL$TWSNREC.DEVS.ACCT
     20801**DCL     20930<<ASSIGN
KL$TWSNREC.DEVS.ATTR
     20790**DCL     20929<<ASSIGN
KL$TWSNREC.DEVS.DDEV
     20791**DCL     20935<<ASSIGN  20943<<ASSIGN  20951<<ASSIGN  20958<<ASSIGN
KL$TWSNREC.DEVS.FNAME
     20799**DCL     20938<<ASSIGN  20946<<ASSIGN  20954<<ASSIGN  20961<<ASSIGN
KL$TWSNREC.DEVS.IO.INPUT
     20793**DCL     20936<<ASSIGN  20944<<ASSIGN  20952<<ASSIGN  20959<<ASSIGN
KL$TWSNREC.DEVS.IO.OUTPUT
PL6.E3A0      #001=ASC$CONFIG File=ASC$CONFIG.:E05TSI                            TUE 07/29/97 09:34 Page:82
     20794**DCL     20937<<ASSIGN  20945<<ASSIGN  20953<<ASSIGN  20960<<ASSIGN
KL$TWSNREC.DEVS.IOM_CONNECTED
     20796**DCL     20931<<ASSIGN
KL$TWSNREC.DEVS.NUM
     20789**DCL     20928<<ASSIGN
KL$TWSNREC.DEVS.TYP
     20788**DCL     20927<<ASSIGN
KL$TWSNREC.NDEV
     20786**DCL     20924>>ASSIGN  20925<<ASSIGN  20925>>ASSIGN
KL$TWSNREC.STATION
     20785**DCL     20906<<ASSIGN
KL$TWSNREC.WSN
     20784**DCL     20905<<ASSIGN
KL$WSNCVT.LTWSN
     20812**DCL     20897>>IF      20900<<ASSIGN  20983>>ASSIGN
KL$WSNCVT.WSN
     20813**DCL     20902<<ASSIGN
KL_DEFAULT.PASSWORD
     19957**DCL     19961--REDEF
KL_DEFAULT.RENAME
     19980**DCL     19981--REDEF
KL_DFLT.PASSWORD
     19147**DCL     19151--REDEF
KL_DFLT.RENAME
     19170**DCL     19171--REDEF
KL_DREC.PASSWORD
     18985**DCL     18989--REDEF
KL_DREC.RENAME
     19008**DCL     19009--REDEF
KL_DREC_CNT.PASSWORD
     18872**DCL     18876--REDEF
KL_DREC_CNT.RENAME
     18895**DCL     18896--REDEF
KL_TREC
     20241**DCL     20886>>ASSIGN
KL_TREC.PASSWORD
PL6.E3A0      #001=ASC$CONFIG File=ASC$CONFIG.:E05TSI                            TUE 07/29/97 09:34 Page:83
     20299**DCL     20303--REDEF
KL_TREC.RENAME
     20322**DCL     20323--REDEF
M$CLOSE
      7151**DCL-ENT 20989--CALL
M$CNFG
     20520**DCL     21126--ASSIGN
M$CNFG$
     20521**DCL     21126<<ASSIGN  21127>>ASSIGN
M$OPEN
      7151**DCL-ENT 20845--CALL
M$READ
      7152**DCL-ENT 21125--CALL
NDEV
     20554**DCL     20924<<ASSIGN  20926>>ASSIGN  20927>>ASSIGN  20928>>ASSIGN  20929>>ASSIGN  20930>>ASSIGN
     20931>>ASSIGN  20935>>ASSIGN  20936>>ASSIGN  20937>>ASSIGN  20938>>ASSIGN  20943>>ASSIGN  20944>>ASSIGN
     20945>>ASSIGN  20946>>ASSIGN  20951>>ASSIGN  20952>>ASSIGN  20953>>ASSIGN  20954>>ASSIGN  20958>>ASSIGN
     20959>>ASSIGN  20960>>ASSIGN  20961>>ASSIGN
OPEN_ERR
     20985**LABEL   20845--CALLALT 20847--CALLALT
OPEN_FPT
     20427**DCL     20845<>CALL
OPEN_FPT.ACSVEH_
     20429**DCL     20430--REDEF
OPEN_FPT.ALTKEYS_
     20435**DCL     20436--REDEF   20436--REDEF
OPEN_FPT.HDR_
     20434**DCL     20435--REDEF
OPEN_FPT.TAB_
     20433**DCL     20434--REDEF
OPEN_FPT.UHL_
     20427**DCL     20428--REDEF   20428--REDEF
OPEN_FPT.V
     20436**DCL     20427--DCLINIT
OPEN_FPT.V.FSN#
     20467**DCL     20467--REDEF   20467--REDEF
PL6.E3A0      #001=ASC$CONFIG File=ASC$CONFIG.:E05TSI                            TUE 07/29/97 09:34 Page:84
OPEN_FPT.WSN_
     20433**DCL     20433--REDEF
PROJ_KEY.TEXT
     17219**DCL     17219--REDEF
PROJ_KEY.TXT.PROJECT
     17219**DCL     17219--REDEF
P_PCB.NCHARS
     17521**DCL     20976<<ASSIGN
READ_CONFIG
     21004**PROC    20855--CALL    20862--CALL    20922--CALL
READ_CONFIG_ERR
     20994**LABEL   20855--CALLALT 20862--CALLALT 20869--CALLALT 20922--CALLALT 20986--CALLALT
READ_ERR IN PROCEDURE READ_CONFIG
     21127**LABEL   21125--CALLALT
READ_FPT IN PROCEDURE READ_CONFIG
     21039**DCL     21125<>CALL
READ_FPT.BUF_.BOUND IN PROCEDURE READ_CONFIG
     21041**DCL     21123<<ASSIGN
READ_FPT.BUF_.BUF$ IN PROCEDURE READ_CONFIG
     21042**DCL     21122<<ASSIGN
READ_FPT.KEY_ IN PROCEDURE READ_CONFIG
     21039**DCL     21124<<ASSIGN
READ_FPT.STATION_ IN PROCEDURE READ_CONFIG
     21042**DCL     21043--REDEF
READ_FPT.V IN PROCEDURE READ_CONFIG
     21043**DCL     21039--DCLINIT
READ_FPT.V.DVBYTE.REREAD# IN PROCEDURE READ_CONFIG
     21054**DCL     21054--REDEF
READ_FPT.V.INDX# IN PROCEDURE READ_CONFIG
     21052**DCL     21052--REDEF
REMEM_VAR
     17345**DCL     17345--REDEF
REM_FCMD
     17345**DCL     17346--REDEF
SIZE IN PROCEDURE READ_CONFIG
     21014**DCL     21004--PROC    21123>>ASSIGN
PL6.E3A0      #001=ASC$CONFIG File=ASC$CONFIG.:E05TSI                            TUE 07/29/97 09:34 Page:85
SS$
     20547**DCL     20892<<ASSIGN  20903>>ASSIGN
START$
     20555**DCL     20875<<ASSIGN  20911>>ASSIGN
START2$
     20560**DCL     20849<<ASSIGN  20851>>ASSIGN  20859>>ASSIGN  20866>>ASSIGN  20873>>ASSIGN
START2_SZ
     20561**DCL     20850<<ASSIGN  20852>>ASSIGN  20857>>ASSIGN  20864>>ASSIGN  20871>>ASSIGN
TD$DEV.ATTR
     20662**DCL     20929>>ASSIGN
TD$DEV$
     20543**DCL     20648--IMP-PTR 20873<<ASSIGN  20922<>CALL    20929>>ASSIGN
TD$HEAD.DEVNAME
     20639**DCL     20916>>ASSIGN
TD$HEAD.LP_INDX
     20623**DCL     20875--ASSIGN
TD$HEAD$
     20542**DCL     20606--IMP-PTR 20851<<ASSIGN  20855<>CALL    20875>>ASSIGN  20916>>ASSIGN
TD$WSN.WSNNAME
     20644**DCL     20881>>DOWHILE 20882>>ASSIGN
TD$WSN$
     20544**DCL     20643--IMP-PTR 20859<<ASSIGN  20862<>CALL    20881>>DOWHILE 20882>>ASSIGN
TERM_KEY
     20213**DCL     20894>>ASSIGN
TERM_KEY.ACCT
     20215**DCL     20893<<ASSIGN
TERM_NAME
     20541**DCL     20882<<ASSIGN  20889>>ASSIGN  20893>>ASSIGN  20902>>ASSIGN  20906>>ASSIGN  20972>>ASSIGN
     20974>>ASSIGN
TREC$
     20546**DCL     20681--IMP-PTR 20885<<ASSIGN  20886>>ASSIGN  20887>>ASSIGN  20888>>ASSIGN  20889>>ASSIGN
     20890>>ASSIGN  20892>>ASSIGN  20895<>CALL
TWSNR$
     20548**DCL     20783--IMP-PTR 20903<<ASSIGN  20904>>ASSIGN  20905>>ASSIGN  20906>>ASSIGN  20924>>ASSIGN
     20925>>ASSIGN  20925>>ASSIGN  20926>>ASSIGN  20927>>ASSIGN  20928>>ASSIGN  20929>>ASSIGN  20930>>ASSIGN
     20931>>ASSIGN  20935>>ASSIGN  20936>>ASSIGN  20937>>ASSIGN  20938>>ASSIGN  20943>>ASSIGN  20944>>ASSIGN
PL6.E3A0      #001=ASC$CONFIG File=ASC$CONFIG.:E05TSI                            TUE 07/29/97 09:34 Page:86
     20945>>ASSIGN  20946>>ASSIGN  20951>>ASSIGN  20952>>ASSIGN  20953>>ASSIGN  20954>>ASSIGN  20958>>ASSIGN
     20959>>ASSIGN  20960>>ASSIGN  20961>>ASSIGN  20968<>CALL
TWSNR_KEY
     20217**DCL     20967>>ASSIGN
TWSNR_KEY.TWSN#
     20220**DCL     20907<<ASSIGN
TWSN_ARS
     20553**DCL     20891<<ASSIGN  20892>>ASSIGN  20895<>CALL    20908<<ASSIGN  20963<<ASSIGN  20963>>ASSIGN
     20968<>CALL
TWSN_NUM
     20540**DCL     20883<<ASSIGN  20890>>ASSIGN  20907>>ASSIGN  20917>>IF
TWSN_NUM_ARRY
     20212**DCL     20883>>ASSIGN
T_ARS
     20552**DCL     20856<<ASSIGN  20857>>ASSIGN  20859>>ASSIGN  20863<<ASSIGN  20863>>ASSIGN  20864>>ASSIGN
     20866>>ASSIGN  20870<<ASSIGN  20870>>ASSIGN  20871>>ASSIGN  20873>>ASSIGN
USERS_KEY
     17216**DCL     20894<<ASSIGN  20967<<ASSIGN
USERS_KEY.COUNT
     17216**DCL     20867<<ASSIGN  20984<<ASSIGN
USERS_KEY.TEXT
     17216**DCL     17217--REDEF   17217--REDEF   17217--REDEF   17218--REDEF
USERS_KEY.TXTC
     17217**DCL     20868<<ASSIGN  20985<<ASSIGN
WSN$ACCT
     20815**DCL     20972<<ASSIGN  20974<<ASSIGN
WSNCVT$
     20549**DCL     20809--IMP-PTR 20866<<ASSIGN  20869<>CALL    20897>>IF      20900>>ASSIGN  20902>>ASSIGN
     20983>>ASSIGN  20986<>CALL
WSN_BUF
     20341**DCL     20970--ASSIGN  20975>>ASSIGN
WSN_BUF$
     20559**DCL     20815--IMP-PTR 20970<<ASSIGN  20971<<ASSIGN  20971>>ASSIGN  20972>>ASSIGN  20973<<ASSIGN
     20973>>ASSIGN  20974>>ASSIGN
WSN_INDEX
     20203**DCL         6--PROC    20876--IF      20880>>ASSIGN  20979--IF
