PL6.E3A0      #001=ASC$LIMITS File=ASC$LIMITS.:E05TSI                            TUE 07/29/97 09:35 Page:1
        1        1        /*M* ASC$LIMITS: Processes the options against limitations. */
        2        2        /*T***********************************************************/
        3        3        /*T*                                                         */
        4        4        /*T* Copyright (c) Bull HN Information Systems Inc., 1997    */
        5        5        /*T*                                                         */
        6        6        /*T***********************************************************/
        7        7        /*X*  DMC,DMR,CCC,PLM=0,IND=3,CTI=5,DCI=6,IAD=0,DTI=0,IDT=0,ENI=3,
        8        8              ECU=3,CSU=3,SDI=3                                           */
        9        9                                                              /**/
       10       10        /*  ASC$LIMITS - this module consists of procedures:
       11       11                         ASC$LIMITS
       12       12        */
       13       13        ASC$LIMITS: PROC( SUBND$ );
       14       14        %EJECT ;
PL6.E3A0      #001=ASC$LIMITS File=ASC$LIMITS.:E05TSI                            TUE 07/29/97 09:35 Page:2
       15       15        /*********************************************************************/
       16       16        /*   Include files   include files   include files   include files   */
       17       17        /*********************************************************************/
       18       18                                                              /**/
       19       19        %INCLUDE  AS_ENTRIES_M ;
       20     1069        %INCLUDE  AS_SUPER_C ;
       21     1504        %INCLUDE  AS_SUBS_C ;
       22     2918        %INCLUDE  AS_PERR_C;
       23     3520        %INCLUDE  KL_SUPER_C ;
       24     6422        %INCLUDE  AS_MAC_C ;
       25     6502        %INCLUDE  XU_MACRO_C;
       26     9608        %INCLUDE  XU_FORMAT_C;
       27     9770        %INCLUDE  CP_6 ;
       28     9851        %INCLUDE  AS_SUPER_R ;
       29    12867        %EJECT ;
PL6.E3A0      #001=ASC$LIMITS File=ASC$LIMITS.:E05TSI                            TUE 07/29/97 09:35 Page:3
       30    12868        /*********************************************************************/
       31    12869        /*   Parameter       parameter       parameter       parameter       */
       32    12870        /*********************************************************************/
       33    12871                                                                  /**/
       34    12872    1   DCL SUBND$        PTR;
       35    12873                                                                  /**/
       36    12874        %EJECT;
PL6.E3A0      #001=ASC$LIMITS File=ASC$LIMITS.:E05TSI                            TUE 07/29/97 09:35 Page:4
       37    12875        /*********************************************************************/
       38    12876        /*   Auto data       auto data       auto data       auto data       */
       39    12877        /*********************************************************************/
       40    12878                                                              /**/
       41    12879    1   DCL ARS UBIN WORD ;
       42    12880    1   DCL I UBIN WORD ;
       43    12881    1   DCL J UBIN WORD ;
       44    12882    1   DCL MODE UBIN WORD ;
       45    12883    1   DCL SUBNDS UBIN WORD ;
       46    12884    1   DCL SUBS UBIN WORD ;
       47    12885    1   DCL VAL SBIN WORD ;
       48    12886    1   DCL BLK$ PTR ;
       49    12887    1   DCL STR$ PTR ;
       50    12888    1   DCL PTR$ PTR ;
       51    12889    1   DCL MORE BIT(1) ;
       52    12890    1   DCL WORK$ PTR ;
       53    12891    1   DCL ROOT$ PTR ;
       54    12892    1   DCL WKSZ UBIN WORD ;
       55    12893    1   DCL WK_USED UBIN WORD ;
       56    12894    1   DCL T_NODE$ PTR ;
       57    12895    1   DCL PROJ_MAX UBIN;
       58    12896    1   DCL MAX UBIN;
       59    12897    1   DCL DEFAULT UBIN;
       60    12898    1   DCL TOTAL SBIN;
       61    12899    1   DCL VALUE (0:1) SBIN;
       62    12900        %EJECT ;
PL6.E3A0      #001=ASC$LIMITS File=ASC$LIMITS.:E05TSI                            TUE 07/29/97 09:35 Page:5
       63    12901        /*********************************************************************/
       64    12902        /*   Symref's        symref's        symref's        symref's        */
       65    12903        /*********************************************************************/
       66    12904                                                              /**/
       67    12905    1   DCL SERV_OPT_LIST UBIN WORD SYMREF ;
       68    12906        %EJECT ;
PL6.E3A0      #001=ASC$LIMITS File=ASC$LIMITS.:E05TSI                            TUE 07/29/97 09:35 Page:6
       69    12907        /*********************************************************************/
       70    12908        /*   Constant data   constant data   constant data   constant data   */
       71    12909        /*********************************************************************/
       72    12910                                                              /**/
       73    12911    1   DCL 1 LO_TEXTC ALIGNED CONSTANT,
       74    12912    1          2 CNT UBIN BYTE UNAL INIT( 2 ),
       75    12913    1          2 TEXT CHAR(2) UNAL INIT( 'LO' );
       76    12914    1   DCL 1 DO_TEXTC ALIGNED CONSTANT,
       77    12915    1          2 CNT UBIN BYTE UNAL INIT( 2 ),
       78    12916    1          2 TEXT CHAR(2) UNAL INIT( 'DO' );
       79    12917    1   DCL 1 PO_TEXTC ALIGNED CONSTANT,
       80    12918    1          2 CNT UBIN BYTE UNAL INIT( 2 ),
       81    12919    1          2 TEXT CHAR(2) UNAL INIT( 'PO' );
       82    12920    1   DCL 1 PDIS_TEXTC ALIGNED CONSTANT,
       83    12921    1          2 CNT UBIN BYTE UNAL INIT( 4 ),
       84    12922    1          2 TEXT CHAR(4) UNAL INIT( 'PDIS' );
       85    12923    1   DCL 1 TDIS_TEXTC ALIGNED CONSTANT,
       86    12924    1          2 CNT UBIN BYTE UNAL INIT( 4 ),
       87    12925    1          2 TEXT CHAR(4) UNAL INIT( 'TDIS' );
       88    12926    1   DCL 1 FPOOLS_TEXTC ALIGNED CONSTANT,
       89    12927    1          2 CNT UBIN BYTE UNAL INIT( 6 ),
       90    12928    1          2 TEXT CHAR(6) UNAL INIT( 'FPOOLS' );
       91    12929    1   DCL 1 MAXJOBPRIO_TEXTC ALIGNED CONSTANT,
       92    12930    1          2 CNT UBIN BYTE UNAL INIT( 10 ),
       93    12931    1          2 TEXT CHAR(10) UNAL INIT( 'MAXJOBPRIO' );
       94    12932    1   DCL 1 MAXIMUM_TEXTC ALIGNED CONSTANT,
       95    12933    1          2 CNT UBIN BYTE UNAL INIT( 7 ),
       96    12934    1          2 TEXT CHAR(7) UNAL INIT( 'Maximum' );
       97    12935    1   DCL 1 DEFAULT_TEXTC ALIGNED CONSTANT,
       98    12936    1          2 CNT UBIN BYTE UNAL INIT( 7 ),
       99    12937    1          2 TEXT CHAR(7) UNAL INIT( 'Default' );
      100    12938    1   DCL 1 TIME_TEXTC ALIGNED CONSTANT,
      101    12939    1          2 CNT UBIN BYTE UNAL INIT( 4 ),
      102    12940    1          2 TEXT CHAR(4) UNAL INIT( 'TIME' );
      103    12941    1   DCL 1 MEMORY_TEXTC ALIGNED CONSTANT,
      104    12942    1          2 CNT UBIN BYTE UNAL INIT( 6 ),
      105    12943    1          2 TEXT CHAR(6) UNAL INIT( 'MEMORY' );
PL6.E3A0      #001=ASC$LIMITS File=ASC$LIMITS.:E05TSI                            TUE 07/29/97 09:35 Page:7
      106    12944    1   DCL 1 EXPIRE_TEXTC ALIGNED CONSTANT,
      107    12945    1          2 CNT UBIN BYTE UNAL INIT( 6 ),
      108    12946    1          2 TEXT CHAR(6) UNAL INIT( 'EXPIRE' );
      109    12947    1   DCL 1 OUTPUTPRIO_TEXTC CONSTANT ALIGNED,
      110    12948    1          2 CNT UBIN BYTE UNAL INIT( 10 ),
      111    12949    1          2 TEXT CHAR(10) UNAL INIT( 'OUTPUTPRIO' );
      112    12950    1   DCL 1 NEVER_TEXTC ALIGNED CONSTANT,
      113    12951    1          2 CNT UBIN BYTE UNAL INIT( 5 ),
      114    12952    1          2 TEXT CHAR(5) INIT( 'NEVER' );
      115    12953        %EJECT;
PL6.E3A0      #001=ASC$LIMITS File=ASC$LIMITS.:E05TSI                            TUE 07/29/97 09:35 Page:8
      116    12954        /*********************************************************************/
      117    12955        /*   Static data     static data     static data     static data     */
      118    12956        /*********************************************************************/
      119    12957                                                              /**/
      120    12958        %EJECT ;
PL6.E3A0      #001=ASC$LIMITS File=ASC$LIMITS.:E05TSI                            TUE 07/29/97 09:35 Page:9
      121    12959        /********************************************************************/
      122    12960        /*   Entry dcls      entry dcls      entry dcls      entry dcls      */
      123    12961        /*********************************************************************/
      124    12962                                                              /**/
      125    12963    1   DCL X$PARSE ENTRY(1) ALTRET ;
      126    12964        %ASB$READ_SI ;
      127    12967        %ASB$SET_PROMPT ;
      128    12970        %ASH$ERROR ;
      129    12973        %ASH$WARN ;
      130    12976        %ASH$HELP ;
      131    12979        %ASH$DQUEST ;
      132    12982        %ASH$QUEST ;
      133    12985        %ASB$FLUSH_ERR ;
      134    12988        %EJECT ;
PL6.E3A0      #001=ASC$LIMITS File=ASC$LIMITS.:E05TSI                            TUE 07/29/97 09:35 Page:10
      135    12989        /*********************************************************************/
      136    12990        /*   Local based     local based     local based     local based     */
      137    12991        /*********************************************************************/
      138    12992                                                              /**/
      139    12993    1   DCL 1 VARY$STR BASED(STR$) ALIGNED ,
      140    12994    1          2 CNT UBIN BYTE UNAL ,
      141    12995    1          2 TEXT CHAR(VARY$STR.CNT) ;
      142    12996
      143    12997        %SET LISTSUB='1'B;
      144    12998        %LIST ;
      145    12999            %PARSE$OUT( NAME=P$NODE, STCLASS="BASED(NODE$)",
      146    13000                        NDTYPE=TYPE, NSUBLKS=SUBNODES) ;
             13001        /*F*  NAME:     PARSE$OUT
             13002              FUNCTION: a structure built by X$PARSE which corresponds to a "list",
             13003                  "alternative", "reducing alternative", or "koncat" node in
             13004                  the user's parse tree.
             13005        */
             13006    1   DCL 1 P$NODE BASED(NODE$) ALIGNED,
             13007    1         2 TEMP BIT(1) UNAL,
             13008    1         2 * BIT (11) UNAL,
             13009    1         2 TYPE UBIN (6) UNAL,
             13010        /*K* NDTYPE - specifies the type of parse node to which this PARSE$OUT
             13011                  block corresponds.  See the XU_SUBS_C file for the
             13012                  %EQU symbols whose values may appear in this field.
             13013        */
             13014    1         2 CODE UBIN HALF HALIGNED,
             13015        /*K* CODE - Contains the numeric "node code" specified by the user when
             13016                  the corresponding parse-node was defined.
             13017        */
             13018    1         2 SUBNODES UBIN HALF HALIGNED,
             13019        /*K* NSUBLKS - "number of sub-blocks".  This field contains the count of
             13020                  pointers actually available in the PARSE$OUT.SUBLK$ array.
             13021        */
             13022    1         2 SCRITCH UBIN HALF HALIGNED,
             13023        /*K* SCRITCH - an 18-bit scratch field reserved for the user.  X$PARSE
             13024                  initializes this field to zero when the PARSE$OUT structure
             13025                  is allocated, and never sets or examines it thereafter.
PL6.E3A0      #001=ASC$LIMITS File=ASC$LIMITS.:E05TSI                            TUE 07/29/97 09:35 Page:11
             13026                  The name of this field may be changed when the PARSE$OUT macro
             13027                  is invoked by the user (say "SCRITCH=yourname"), and its data
             13028                  type may also be changed (say "SCRMODE=pl6datatype" and
             13029                  "SCRALGN=alignment").  BEWARE: this field MUST be 18-bits long,
             13030                  and be UNALIGNED, CALIGNED, or HALIGNED.
             13031        */
             13032    1         2 CPOS UBIN WORD,
             13033        /*K* CPOS - "character position" of this block.  This field will contain
             13034                  a character index (starting at 0) into the original parse
             13035                  string;  the index identifies the first character of the
             13036                  string which was accepted by this node (or by any of its
             13037                  sub-nodes).
             13038        */
             13039    1         2 SUBLK$(0:0) PTR UNAL;
             13040        /*K* SUBLK$ - an array of PL-6 PTRs.  The number of elements in this array
             13041                  is found in OUT$BLK.NSUBLKS;  each PTR will point to another
             13042                  OUT$BLK structure, or to an OUT$SYM structure.
             13043        */
      147    13045              %PARSE$SYM( NAME = OUT$SYM ,
      148    13046                          STCLASS="BASED(BLK$)") ;
             13047        /*F*  NAME:     PARSE$SYM
             13048              FUNCTION: holds "parse symbols".  Structures of this form are created
             13049                  by X$PARSE to hold those portions of the string being parsed
             13050                  which must be returned to the user - quoted strings, decimal
             13051                  or octal numbers, PL-6 identifiers, etc.
             13052        */
             13053    1   DCL 1 OUT$SYM BASED(BLK$) ALIGNED,
             13054    1         2 TEMP BIT(1) UNAL,
             13055    1         2 * BIT (11) UNAL,
             13056    1         2 NDTYPE UBIN (6) UNAL,
             13057        /*K* NDTYPE - see OUT$BLK.NDTYPE for details.
             13058        */
             13059    1         2 CODE UBIN HALF HALIGNED,
             13060        /*K* CODE - see OUT$BLK.CODE for details.
             13061        */
             13062    1         2 NSUBLKS UBIN HALF HALIGNED,
             13063        /*K* NSUBLKS - always contains the value 1.
PL6.E3A0      #001=ASC$LIMITS File=ASC$LIMITS.:E05TSI                            TUE 07/29/97 09:35 Page:12
             13064        */
             13065    1         2 SCRITCH UBIN HALF HALIGNED,
             13066        /*K* SCRITCH - see OUT$BLK.SCRITCH for details.
             13067        */
             13068    1         2 CPOS UBIN WORD,
             13069        /*K* CPOS - see OUT$BLK.CPOS for details.
             13070        */
             13071    1         2 TEXTC$ PTR,
             13072        /*K* TEXTC$ - a pointer to a TEXTC-type string (a 1-byte count field
             13073                  followed by a variable number of characters).  Always
             13074                  points to OUT$SYM.COUNT in the current OUT$SYM block.
             13075        */
             13076    1         2 COUNT UBIN BYTE CALIGNED,
             13077        /*K* COUNT - contains the number of characters in OUT$SYM.TEXT.
             13078        */
             13079    1         2 TEXT CHAR(OUT$SYM.COUNT) CALIGNED;
             13080        /*K* TEXT - contains the text of a string, decimal number, PL-6
             13081                  identifier, or some other parser "symbol".
             13082        */
      149    13084        %PLIST ;
      150    13085        %EJECT ;
PL6.E3A0      #001=ASC$LIMITS File=ASC$LIMITS.:E05TSI                            TUE 07/29/97 09:35 Page:13
      151    13086    1   ASC$EXPIRE: ENTRY( SUBND$ );
      152    13087
      153    13088        /*
      154    13089              ***             Begin procedure                 ***
      155    13090        */
      156    13091
      157    13092    1   CODE = SUBND$ -> P$NODE.SUBLK$(0) -> P$NODE.CODE;
      158    13093    1   BLK$ = SUBND$ -> P$NODE.SUBLK$(1);
      159    13094    2   DO SELECT( OUT$SYM.CODE );
      160    13095    2      SELECT( 13   /*  NEVER_VAL  */ );
      161    13096    2      TOTAL = -1;
      162    13097
      163    13098    2      SELECT( 18  /*  DEC_VAL  */ );
      164    13099    2      CALL CHARBIN( TOTAL, OUT$SYM.TEXT ) ;
      165    13100    3      IF TOTAL > BITBIN('777777'O) THEN DO;
      166    13101        /*E*  ERROR:    ASC-E$EXPIRE_DATE_TOO_LARGE-C
      167    13102              MESSAGE:  EXPIRE date too large.
      168    13103              MESSAGE1: Maximum of 262143 days.
      169    13104        */
      170    13105              %SCREAM( ERR#=E$EXPIRE_DATE_TOO_LARGE, LEVEL=ERROR, MID='A' );
      171    13120    3         RETURN ;
      172    13121    3         END ;  /* Then do */
      173    13122                                                                   /**/
      174    13123    2      END ; /* Do case( code ) */
      175    13124
      176    13125    2   DO SELECT( CODE );
      177    13126    2      SELECT( 54 /* MEXP */ );
      178    13127                                                            /*
      179    13128                                                                Check that max.
      180    13129                                                                does not exceed the
      181    13130                                                                project maximum */
      182    13131    2      AS_USERS.MEXP = TOTAL;
      183    13132    2      IF AS_CR_MOD_PROJ > 0
      184    13133    2      THEN CALL CHECK_PROJ_MAX( 0, AS_DFLT.MEXP, AS_USERS.MEXP, EXPIRE_TEXTC );
      185    13134    2      AS_MOD_USER.LIMITS.EXPIRE.MEXP = AS_TRUE;
      186    13135
      187    13136    2      SELECT( 55 /* DEXP */ );
PL6.E3A0      #001=ASC$LIMITS File=ASC$LIMITS.:E05TSI                            TUE 07/29/97 09:35 Page:14
      188    13137    2      AS_USERS.DEXP = TOTAL;
      189    13138    2      AS_MOD_USER.LIMITS.EXPIRE.DEXP = AS_TRUE;
      190    13139
      191    13140    2      END;
      192    13141
      193    13142                                                              /* Test that default
      194    13143                                                                 not greater than max. */
      195    13144    1   CALL CHECK_DEFAULT_MAX( 0, AS_USERS.DEXP, AS_USERS.MEXP, EXPIRE_TEXTC );
      196    13145
      197    13146    1   RETURN;
      198    13147
      199    13148        %EJECT;
PL6.E3A0      #001=ASC$LIMITS File=ASC$LIMITS.:E05TSI                            TUE 07/29/97 09:35 Page:15
      200    13149    1   ASC$TIME: ENTRY( SUBND$ );
      201    13150
      202    13151        /*
      203    13152              ***             Begin procedure                 ***
      204    13153        */
      205    13154
      206    13155    1   CODE = SUBND$ -> P$NODE.SUBLK$(0) -> P$NODE.CODE;
      207    13156    1   PTR$ = SUBND$ -> P$NODE.SUBLK$(1);
      208    13157    1   SUBS = PTR$ -> P$NODE.SUBNODES;
      209    13158
      210    13159    2   DO I = 0 TO SUBS - 1;
      211    13160    2      MODE = PTR$ -> P$NODE.SUBLK$(I) -> P$NODE.SUBLK$(0) -> P$NODE.CODE;
      212    13161    2      BLK$ = PTR$ -> P$NODE.SUBLK$(I) -> P$NODE.SUBLK$(1) -> P$NODE.SUBLK$(0);
      213    13162    2      CALL CHARBIN( VAL, OUT$SYM.TEXT );
      214    13163    2      VAL = VAL * 6000;
      215    13164    3      DO SELECT( CODE );
      216    13165    3         SELECT( 30 /* TIME_MAX */ );
      217    13166    3         AS_USERS.MTIME(MODE) = VAL;
      218    13167    3         IF AS_CR_MOD_PROJ > 0
      219    13168    3         THEN CALL CHECK_PROJ_MAX( 1, AS_DFLT.MTIME(MODE),
      220    13169    3                 AS_USERS.MTIME(MODE), TIME_TEXTC );
      221    13170    3         AS_MOD_USER.LIMITS.TIME_A.MTIME(MODE) = AS_TRUE;
      222    13171
      223    13172    3         SELECT( 31 /* TIME_DEF */ );
      224    13173    3         AS_USERS.DTIME(MODE) = VAL;
      225    13174    3         AS_MOD_USER.LIMITS.TIME_A.DTIME(MODE) = AS_TRUE;
      226    13175
      227    13176    3         END;
      228    13177
      229    13178    2      CALL CHECK_DEFAULT_MAX( 1, AS_USERS.DTIME(MODE), AS_USERS.MTIME(MODE), TIME_TEXTC
             13178               );
      230    13179    2      END;
      231    13180    1   RETURN;
      232    13181
      233    13182        %EJECT;
PL6.E3A0      #001=ASC$LIMITS File=ASC$LIMITS.:E05TSI                            TUE 07/29/97 09:35 Page:16
      234    13183    1   ASC$MEMORY: ENTRY( SUBND$ );
      235    13184
      236    13185        /*
      237    13186              ***             Begin procedure                 ***
      238    13187        */
      239    13188
      240    13189    1   CODE = SUBND$ -> P$NODE.SUBLK$(0) -> P$NODE.CODE;
      241    13190    1   PTR$ = SUBND$ -> P$NODE.SUBLK$(1);
      242    13191    1   SUBS = PTR$ -> P$NODE.SUBNODES;
      243    13192
      244    13193    2   DO I = 0 TO SUBS - 1;
      245    13194    2      MODE = PTR$ -> P$NODE.SUBLK$(I) -> P$NODE.SUBLK$(0) -> P$NODE.CODE;
      246    13195    2      BLK$ = PTR$ -> P$NODE.SUBLK$(I) -> P$NODE.SUBLK$(1) -> P$NODE.SUBLK$(0);
      247    13196    2      CALL CHARBIN( VAL, OUT$SYM.TEXT );
      248    13197    3      DO SELECT( CODE );
      249    13198    3         SELECT( 31 /* MEM_MAX */ );
      250    13199    3         IF AS_CR_MOD_PROJ > 0
      251    13200    4         THEN DO;
      252    13201    4            PROJ_MAX = AS_DFLT.MMEM(MODE);
      253    13202    4            CALL CHECK_PROJ_MAX( 2, PROJ_MAX, VAL, MEMORY_TEXTC );
      254    13203    4            END;
      255    13204    3         IF VAL > 262143
      256    13205    4         THEN DO;
      257    13206        /*E* ERROR:   ASC-E$MEM_VAL_TOO_BIG-C
      258    13207             MESSAGE: Specified memory value is too large, using 262143.
      259    13208             MESSAGE1:262143 is the largest value that fits in a max or default mem field.
      260    13209        */
      261    13210                 %SCREAM (ERR#=E$MEM_VAL_TOO_BIG,LEVEL=WARN,MID='C');
      262    13225    4            AS_USERS.MMEM (MODE) = 262143;
      263    13226    4            END;
      264    13227    4         ELSE DO;
      265    13228    4            AS_USERS.MMEM (MODE) = VAL;
      266    13229    4            END;
      267    13230    3         AS_MOD_USER.LIMITS.MEM_A.MMEM(MODE) = AS_TRUE;
      268    13231
      269    13232    3         SELECT( 32 /* MEM_DEF */ );
      270    13233    3         IF VAL > 262143
PL6.E3A0      #001=ASC$LIMITS File=ASC$LIMITS.:E05TSI                            TUE 07/29/97 09:35 Page:17
      271    13234    4         THEN DO;
      272    13235                 %SCREAM (ERR#=E$MEM_VAL_TOO_BIG,LEVEL=WARN,MID='C');
      273    13250    4            AS_USERS.DMEM (MODE) = 262143;
      274    13251    4            END;
      275    13252    4         ELSE DO;
      276    13253    4            AS_USERS.DMEM (MODE) = VAL;
      277    13254    4            END;
      278    13255    3         AS_MOD_USER.LIMITS.MEM_A.DMEM(MODE) = AS_TRUE;
      279    13256
      280    13257    3         END;
      281    13258
      282    13259    2      DEFAULT = AS_USERS.DMEM(MODE);
      283    13260    2      MAX     = AS_USERS.MMEM(MODE);
      284    13261    2      CALL CHECK_DEFAULT_MAX( 2, DEFAULT, MAX, MEMORY_TEXTC );
      285    13262    2      AS_USERS.DMEM(MODE) = DEFAULT;
      286    13263    2      END;
      287    13264    1   RETURN;
      288    13265
      289    13266        %EJECT;
PL6.E3A0      #001=ASC$LIMITS File=ASC$LIMITS.:E05TSI                            TUE 07/29/97 09:35 Page:18
      290    13267    1   ASC$SERVICE: ENTRY;
      291    13268                                                              /**/
      292    13269        /*
      293    13270            ***            Begin procedure                    ***
      294    13271        */
      295    13272                                                              /* Save some of P_PCB. */
      296    13273    1   WORK$ = P_PCB.WORK$ ;
      297    13274    1   WKSZ = P_PCB.WKSZ ;
      298    13275    1   WK_USED = P_PCB.WK_USED ;
      299    13276    1   ROOT$ = P_PCB.ROOT$ ;
      300    13277                                                              /* Bump past area used. */
      301    13278    1   P_PCB.WORK$ = PINCRW( WORK$, P_PCB.WK_USED ) ;
      302    13279    1   P_PCB.WKSZ = WKSZ - P_PCB.WK_USED ;
      303    13280                                                              /* Save NODE$ */
      304    13281    1   T_NODE$ = NODE$ ;
      305    13282                                                              /* Set ROOT$ */
      306    13283    1   P_PCB.ROOT$ = ADDR( SERV_OPT_LIST ) ;
      307    13284                                                              /* Set prompt */
      308    13285    1   CALL ASB$SET_PROMPT ( %PROMPT_SUB ) ;
      309    13286    1   MORE = AS_TRUE ;
      310    13287    1   REMEMBER SERV_LOOP IN REMEM_VAR ;
      311    13288                                                              /**/
      312    13289    1   SERV_LOOP: ;
      313    13290                                                              /**/
      314    13291    2   DO WHILE( MORE ) ;
      315    13292    2      CALL ASB$READ_SI( IN_BUF, ARS ) ;
      316    13293    2      P_PCB.NCHARS = ARS ;
      317    13294    2      CALL X$PARSE( P_PCB ) ALTRET( SERV_ERR ) ;
      318    13295    2      NODE$ = P_PCB.OUT$ ;
      319    13296                                                              /**/
      320    13297    2      SUBNDS = P$NODE.SUBNODES ;
      321    13298    3      DO I = 0 TO SUBNDS-1 ;
      322    13299    3         CODE = P$NODE.SUBLK$(I) -> P$NODE.CODE ;
      323    13300    3         PTR$ = P$NODE.SUBLK$(I) ;
      324    13301    3         SUBS = PTR$ -> P$NODE.SUBNODES ;
      325    13302                                                              /**/
      326    13303    4         DO SELECT( CODE ) ;
PL6.E3A0      #001=ASC$LIMITS File=ASC$LIMITS.:E05TSI                            TUE 07/29/97 09:35 Page:19
      327    13304                                                              /**/
      328    13305    4            SELECT( 12   /*  END_VAL  */ ,
      329    13306    4                 26   /*  BLANK_LINE_VAL */ ) ;
      330    13307    4            MORE = AS_FALSE ;
      331    13308    4            I = SUBNDS ;
      332    13309                                                              /* Restore P_PCB */
      333    13310    4            P_PCB.WORK$ = WORK$ ;
      334    13311    4            P_PCB.WKSZ = WKSZ ;
      335    13312    4            P_PCB.WK_USED = WK_USED ;
      336    13313    4            P_PCB.ROOT$ = ROOT$ ;
      337    13314                                                              /* Restore NODE$ */
      338    13315    4            NODE$ = T_NODE$ ;
      339    13316                                                              /**/
      340    13317    4            SELECT( 16   /*  EOL_VAL  */ ) ;
      341    13318                                                              /**/
      342    13319    4            SELECT( 302 /* HELP_VAL */ );
      343    13320    4            CALL ASH$HELP ;
      344    13321
      345    13322    4            SELECT( 300 /* DQUESTION_VAL */ );
      346    13323    4            CALL ASH$DQUEST ;
      347    13324
      348    13325    4            SELECT( 301 /* QUESTION_VAL */ ) ;
      349    13326    4            CALL ASH$QUEST ;
      350    13327
      351    13328    4            SELECT( ELSE ) ;
      352    13329    5         DO J = 0 TO SUBS-1 ;
      353    13330    5            MODE = PTR$ -> P$NODE.SUBLK$(J) -> P$NODE.SUBLK$(0) ->
      354    13331    5                 P$NODE.CODE ;
      355    13332    5            BLK$ = PTR$ -> P$NODE.SUBLK$(J) -> P$NODE.SUBLK$(1);
      356    13333    5            CALL CHARBIN( VAL, OUT$SYM.TEXT ) ;
      357    13334    6            DO SELECT( CODE ) ;
      358    13335    6               SELECT( 68 /* MLO */ ) ;
      359    13336    6               IF AS_CR_MOD_PROJ > 0 THEN
      360    13337    6                  CALL CHECK_PROJ_MAX( 3, AS_DFLT.MLO(MODE), VAL, LO_TEXTC );
      361    13338    6               CALL CHECK_DEFAULT_MAX( 3, AS_USERS.DLO(MODE), VAL, LO_TEXTC );
      362    13339    6               AS_USERS.MLO(MODE) = VAL;
      363    13340    6               AS_MOD_USER.LIMITS.LO_A.MLO(MODE) = AS_TRUE;
PL6.E3A0      #001=ASC$LIMITS File=ASC$LIMITS.:E05TSI                            TUE 07/29/97 09:35 Page:20
      364    13341                                                              /**/
      365    13342    6               SELECT( 69 /* DLO */ ) ;
      366    13343    6               CALL CHECK_DEFAULT_MAX( 3, VAL, AS_USERS.MLO(MODE), LO_TEXTC );
      367    13344    6               AS_USERS.DLO(MODE) = VAL;
      368    13345    6               AS_MOD_USER.LIMITS.LO_A.DLO(MODE) = AS_TRUE;
      369    13346                                                              /**/
      370    13347    6               SELECT( 72 /* MDO */ ) ;
      371    13348    6               IF AS_CR_MOD_PROJ > 0 THEN
      372    13349    6                  CALL CHECK_PROJ_MAX( 3, AS_DFLT.MDO(MODE), VAL, DO_TEXTC );
      373    13350    6               CALL CHECK_DEFAULT_MAX( 3, AS_USERS.DDO(MODE), VAL, DO_TEXTC );
      374    13351    6               AS_USERS.MDO(MODE) = VAL;
      375    13352    6               AS_MOD_USER.LIMITS.DO_A.MDO(MODE) = AS_TRUE;
      376    13353                                                              /**/
      377    13354    6               SELECT( 73 /* DDO */ ) ;
      378    13355    6               CALL CHECK_DEFAULT_MAX( 3, VAL, AS_USERS.MDO(MODE), DO_TEXTC );
      379    13356    6               AS_USERS.DDO(MODE) = VAL;
      380    13357    6               AS_MOD_USER.LIMITS.DO_A.DDO(MODE) = AS_TRUE;
      381    13358                                                              /**/
      382    13359    6               SELECT( 70 /* MPO */ );
      383    13360    6               IF AS_CR_MOD_PROJ > 0 THEN
      384    13361    6                  CALL CHECK_PROJ_MAX( 3, AS_DFLT.MPO(MODE), VAL, PO_TEXTC );
      385    13362    6               CALL CHECK_DEFAULT_MAX( 3, AS_USERS.DPO(MODE), VAL, PO_TEXTC );
      386    13363    6               AS_USERS.MPO(MODE) = VAL;
      387    13364    6               AS_MOD_USER.LIMITS.PO_A.MPO(MODE) = AS_TRUE;
      388    13365                                                              /**/
      389    13366    6               SELECT( 71 /* DPO */ ) ;
      390    13367    6               CALL CHECK_DEFAULT_MAX( 3, VAL, AS_USERS.MPO(MODE), PO_TEXTC );
      391    13368    6               AS_USERS.DPO(MODE) = VAL;
      392    13369    6               AS_MOD_USER.LIMITS.PO_A.DPO(MODE) = AS_TRUE;
      393    13370                                                              /**/
      394    13371    6               SELECT( 76 /* MPDIS */ ) ;
      395    13372    6               IF AS_CR_MOD_PROJ > 0 THEN
      396    13373    6                  CALL CHECK_PROJ_MAX( 3, AS_DFLT.MPDIS(MODE), VAL, PDIS_TEXTC );
      397    13374    6               CALL CHECK_DEFAULT_MAX( 3, AS_USERS.DPDIS(MODE), VAL, PDIS_TEXTC );
      398    13375    6               AS_USERS.MPDIS(MODE) = VAL;
      399    13376    6               AS_MOD_USER.LIMITS.PDIS_A.MPDIS(MODE) = AS_TRUE;
      400    13377                                                              /**/
PL6.E3A0      #001=ASC$LIMITS File=ASC$LIMITS.:E05TSI                            TUE 07/29/97 09:35 Page:21
      401    13378    6               SELECT( 77 /* DPDIS */ ) ;
      402    13379    6               CALL CHECK_DEFAULT_MAX( 3, VAL, AS_USERS.MPDIS(MODE), PDIS_TEXTC );
      403    13380    6               AS_USERS.DPDIS(MODE) = VAL;
      404    13381    6               AS_MOD_USER.LIMITS.PDIS_A.DPDIS(MODE) = AS_TRUE;
      405    13382                                                              /**/
      406    13383    6               SELECT( 74 /* MTDIS */ ) ;
      407    13384    6               IF AS_CR_MOD_PROJ > 0 THEN
      408    13385    6                  CALL CHECK_PROJ_MAX( 3, AS_DFLT.MTDIS(MODE), VAL, TDIS_TEXTC );
      409    13386    6               CALL CHECK_DEFAULT_MAX( 3, AS_USERS.DTDIS(MODE), VAL, TDIS_TEXTC );
      410    13387    6               AS_USERS.MTDIS(MODE) = VAL;
      411    13388    6               AS_MOD_USER.LIMITS.TDIS_A.MTDIS(MODE) = AS_TRUE;
      412    13389                                                              /**/
      413    13390    6               SELECT( 75 /* DTDIS */ ) ;
      414    13391    6               CALL CHECK_DEFAULT_MAX( 3, VAL, AS_USERS.MTDIS(MODE), TDIS_TEXTC );
      415    13392    6               AS_USERS.DTDIS(MODE) = VAL;
      416    13393    6               AS_MOD_USER.LIMITS.TDIS_A.DTDIS(MODE) = AS_TRUE;
      417    13394                                                              /**/
      418    13395    6               SELECT( 78 /* MFPOOLS */ ) ;
      419    13396    6               IF VAL > 31
      420    13397    7               THEN DO;
      421    13398        /*E*  ERROR:      ASC-E$FPOOLS_TOO_BIG-C
      422    13399              MESSAGE:    %U1 %U2 FPOOLS value too large.  Set to 31.
      423    13400              MESSAGE1:   %U1 %U2 FPOOLS can be at most 31.  %U1 %U2 FPOOLS set to 31.
      424    13401        */
      425    13402    7                  AS_FIELD1 = MAXIMUM_TEXTC;
      426    13403    7                  AS_FIELD2 = AS_MODE_ARRY(MODE);
      427    13404                       %SCREAM( ERR#=E$FPOOLS_TOO_BIG, LEVEL=ERROR, MID='C' );
      428    13419    7                  VAL = 31;
      429    13420    7                  END;
      430    13421    6               IF VAL < 5
      431    13422    7               THEN DO;
      432    13423        /*E*  ERROR:      ASC-E$FPOOLS_TOO_SMALL-C
      433    13424              MESSAGE:    %U1 %U2 FPOOLS too small.  Set to 5.
      434    13425              MESSAGE1:   %U1 %U2 FPOOLS must be at least 5.  %U1 %U2 FPOOLS set to 5.
      435    13426        */
      436    13427    7                  AS_FIELD1 = MAXIMUM_TEXTC;
      437    13428    7                  AS_FIELD2 = AS_MODE_ARRY(MODE);
PL6.E3A0      #001=ASC$LIMITS File=ASC$LIMITS.:E05TSI                            TUE 07/29/97 09:35 Page:22
      438    13429                       %SCREAM( ERR#=E$FPOOLS_TOO_SMALL, MID='C',LEVEL=ERROR);
      439    13444    7                  VAL = 5;
      440    13445    7                  END;
      441    13446    6               IF AS_CR_MOD_PROJ > 0
      442    13447    7               THEN DO;
      443    13448    7                  PROJ_MAX = AS_DFLT.MFPOOLS(MODE);
      444    13449    7                  CALL CHECK_PROJ_MAX( 3, PROJ_MAX, VAL, FPOOLS_TEXTC );
      445    13450    7                  END;
      446    13451    6               DEFAULT = AS_USERS.DFPOOLS(MODE);
      447    13452    6               CALL CHECK_DEFAULT_MAX( 3, DEFAULT, VAL, FPOOLS_TEXTC );
      448    13453    6               AS_USERS.MFPOOLS(MODE) = VAL;
      449    13454    6               AS_USERS.DFPOOLS(MODE) = DEFAULT;
      450    13455    6               AS_MOD_USER.LIMITS.FPOOLS_A.MFPOOLS(MODE) = AS_TRUE;
      451    13456                                                              /**/
      452    13457    6               SELECT( 79 /* DFPOOLS */ ) ;
      453    13458    6               MAX = AS_USERS.MFPOOLS(MODE);
      454    13459    6               IF VAL > 31
      455    13460    7               THEN DO;
      456    13461    7                  AS_FIELD1 = DEFAULT_TEXTC;
      457    13462    7                  AS_FIELD2 = AS_MODE_ARRY(MODE);
      458    13463                       %SCREAM( ERR#=E$FPOOLS_TOO_BIG, LEVEL=ERROR, MID='C' );
      459    13478    7                  VAL = 31;
      460    13479    7                  END;
      461    13480    6               IF VAL < 5
      462    13481    7               THEN DO;
      463    13482    7                  AS_FIELD1 = DEFAULT_TEXTC;
      464    13483    7                  AS_FIELD2 = AS_MODE_ARRY(MODE);
      465    13484                       %SCREAM( ERR#=E$FPOOLS_TOO_SMALL, MID='C',LEVEL=ERROR);
      466    13499    7                  VAL = 5;
      467    13500    7                  END;
      468    13501    6               CALL CHECK_DEFAULT_MAX( 3, VAL, MAX, FPOOLS_TEXTC );
      469    13502    6               AS_USERS.DFPOOLS(MODE) = VAL;
      470    13503    6               AS_MOD_USER.LIMITS.FPOOLS_A.DFPOOLS(MODE) = AS_TRUE;
      471    13504                                                              /**/
      472    13505    6               SELECT( 80 /* MMAXJOBPRIO */ ) ;
      473    13506    6               IF VAL > 15
      474    13507    7               THEN DO;
PL6.E3A0      #001=ASC$LIMITS File=ASC$LIMITS.:E05TSI                            TUE 07/29/97 09:35 Page:23
      475    13508        /*E*  ERROR:      ASC-E$MAXJOBPRIO_TOO_BIG-C
      476    13509              MESSAGE:    %U1 %U2 MAXJOBPRIO value too large.  Set to 15.
      477    13510              MESSAGE1:   %U1 %U2 MAXJOBPRIO can be at most 15.
      478    13511                          %U1 %U2 MAXJOBPRIO set to 15.
      479    13512        */
      480    13513    7                  AS_FIELD1 = MAXIMUM_TEXTC;
      481    13514    7                  AS_FIELD2 = AS_MODE_ARRY(MODE);
      482    13515                       %SCREAM( ERR#=E$MAXJOBPRIO_TOO_BIG, LEVEL=ERROR, MID='C' );
      483    13530    7                  VAL = 15;
      484    13531    7                  END;
      485    13532    6               IF AS_CR_MOD_PROJ > 0
      486    13533    7               THEN DO;
      487    13534    7                  PROJ_MAX = AS_DFLT.MMPRIO(MODE);
      488    13535    7                  CALL CHECK_PROJ_MAX( 3, PROJ_MAX, VAL, MAXJOBPRIO_TEXTC );
      489    13536    7                  END;
      490    13537    6               DEFAULT = AS_USERS.DMPRIO(MODE);
      491    13538    6               CALL CHECK_DEFAULT_MAX( 3, DEFAULT, VAL, MAXJOBPRIO_TEXTC );
      492    13539    6               AS_USERS.MMPRIO(MODE) = VAL;
      493    13540    6               AS_USERS.DMPRIO(MODE) = DEFAULT;
      494    13541    6               AS_MOD_USER.LIMITS.MPRIO_A.MMPRIO(MODE) = AS_TRUE;
      495    13542                                                              /**/
      496    13543    6               SELECT( 81 /* DMAXJOBPRIO */ ) ;
      497    13544    6               MAX = AS_USERS.MMPRIO(MODE);
      498    13545    6               IF VAL > 15
      499    13546    7               THEN DO;
      500    13547    7                  AS_FIELD1 = DEFAULT_TEXTC;
      501    13548    7                  AS_FIELD2 = AS_MODE_ARRY(MODE);
      502    13549                       %SCREAM( ERR#=E$MAXJOBPRIO_TOO_BIG, LEVEL=ERROR, MID='C' );
      503    13564    7                  VAL = 15;
      504    13565    7                  END;
      505    13566    6               CALL CHECK_DEFAULT_MAX( 3, VAL, MAX, MAXJOBPRIO_TEXTC );
      506    13567    6               AS_USERS.DMPRIO(MODE) = VAL;
      507    13568    6               AS_MOD_USER.LIMITS.MPRIO_A.DMPRIO(MODE) = AS_TRUE;
      508    13569                                                              /**/
      509    13570    6               END ; /* Do case( code ) */
      510    13571                                                              /**/
      511    13572    5            END; /* Do j */
PL6.E3A0      #001=ASC$LIMITS File=ASC$LIMITS.:E05TSI                            TUE 07/29/97 09:35 Page:24
      512    13573                                                              /**/
      513    13574    4            END ; /* Do case( code ) */
      514    13575    3         END ; /* Do i */
      515    13576    2      END ; /* Do while */
      516    13577                                                              /**/
      517    13578    1   RETURN ;
      518    13579                                                              /* Errors */
      519    13580    1   SERV_ERR: ;
      520    13581    1   ERR_CODE = P_PCB.ERROR ;
      521    13582    1   CALL ASH$ERROR( ERR_CODE ) ;
      522    13583    1   GOTO SERV_LOOP ;
      523    13584                                                              /**/
      524    13585        %EJECT ;
PL6.E3A0      #001=ASC$LIMITS File=ASC$LIMITS.:E05TSI                            TUE 07/29/97 09:35 Page:25
      525    13586    1   ASC$OUTPUTPRIO: ENTRY( SUBND$ );
      526    13587
      527    13588        /*
      528    13589                  ***             Begin procedure             ***
      529    13590        */
      530    13591
      531    13592    1   BLK$ = SUBND$ -> P$NODE.SUBLK$(0);
      532    13593    1   CALL CHARBIN( VAL, OUT$SYM.TEXT );
      533    13594    1   IF VAL < 1
      534    13595    2   THEN DO;
      535    13596        /*E*  ERROR:    ASC-E$OUTPUTPRIOTOOSMALL-C
      536    13597              MESSAGE0: OUTPUTPRIO too small.
      537    13598              MESSAGE1: OUTPUTPRIO must be between 1 and 14.
      538    13599        */
      539    13600           %SCREAM( ERR#=E$OUTPUTPRIOTOOSMALL, LEVEL=ERROR, MID='C' );
      540    13615    2      RETURN;
      541    13616    2      END;
      542    13617    1   IF VAL > 14
      543    13618    2   THEN DO;
      544    13619        /*E*  ERROR:    ASC-E$OUTPUTPRIOTOOBIG-C
      545    13620              MESSAGE0: OUTPUTPRIO too big.
      546    13621              MESSAGE1: OUTPUTPRIO must be between 1 and 14 in value.
      547    13622        */
      548    13623           %SCREAM( ERR#=E$OUTPUTPRIOTOOBIG, LEVEL=ERROR, MID='C' );
      549    13638    2      RETURN;
      550    13639    2      END;
      551    13640
      552    13641    1   PROJ_MAX = AS_DFLT.OUTPUTPRIO;
      553    13642    1   CALL CHECK_PROJ_MAX( 4, PROJ_MAX, VAL );
      554    13643    1   AS_USERS.OUTPUTPRIO = VAL;
      555    13644    1   AS_MOD_USER.LIMITS.OUTPUTPRIO = AS_TRUE;
      556    13645    1   RETURN;
      557    13646
      558    13647        %EJECT;
PL6.E3A0      #001=ASC$LIMITS File=ASC$LIMITS.:E05TSI                            TUE 07/29/97 09:35 Page:26
      559    13648    1   ASC$MOD_USER_LIMITS: ENTRY;
      560    13649
      561    13650    1   IF AS_MOD_USER.LIMITS.OUTPUTPRIO THEN
      562    13651    1      AS_USERS.OUTPUTPRIO = AS_DFLT.OUTPUTPRIO ;
      563    13652    1   IF AS_MOD_USER.LIMITS.EXPIRE ~= '0'B
      564    13653    2   THEN DO ;
      565    13654    2      IF AS_MOD_USER.LIMITS.EXPIRE.MEXP THEN
      566    13655    2         AS_USERS.MEXP = AS_DFLT.MEXP;
      567    13656    2      IF AS_MOD_USER.LIMITS.EXPIRE.DEXP THEN
      568    13657    2         AS_USERS.DEXP = AS_DFLT.DEXP;
      569    13658    2      CALL CHECK_DEFAULT_MAX(0, AS_USERS.DEXP, AS_USERS.MEXP, EXPIRE_TEXTC);
      570    13659    2      END;
      571    13660    1   IF AS_MOD_USER.LIMITS.TIME ~= '0'B THEN
      572    13661    2   DO MODE = 0 TO 3;
      573    13662    2      IF AS_MOD_USER.LIMITS.TIME_A(MODE)
      574    13663    3      THEN DO;
      575    13664    3         IF AS_MOD_USER.LIMITS.TIME_A.MTIME(MODE) THEN
      576    13665    3            AS_USERS.MTIME(MODE) = AS_DFLT.MTIME(MODE);
      577    13666    3         IF AS_MOD_USER.LIMITS.TIME_A.DTIME(MODE) THEN
      578    13667    3            AS_USERS.DTIME(MODE) = AS_DFLT.DTIME(MODE);
      579    13668    3         CALL CHECK_DEFAULT_MAX(1, AS_USERS.DTIME(MODE), AS_USERS.MTIME(MODE),
             13668                  TIME_TEXTC );
      580    13669    3         END;
      581    13670    2      END;
      582    13671    1   IF AS_MOD_USER.LIMITS.MEM ~= '0'B THEN
      583    13672    2   DO MODE = 0 TO 3;
      584    13673    2      IF AS_MOD_USER.LIMITS.MEM_A(MODE) ~= '0'B
      585    13674    3      THEN DO;
      586    13675    3         IF AS_MOD_USER.LIMITS.MEM_A.MMEM(MODE) THEN
      587    13676    3            AS_USERS.MMEM(MODE) = AS_DFLT.MMEM(MODE);
      588    13677    3         IF AS_MOD_USER.LIMITS.MEM_A.DMEM(MODE) THEN
      589    13678    3            AS_USERS.DMEM(MODE) = AS_DFLT.DMEM(MODE);
      590    13679    3         DEFAULT = AS_USERS.DMEM(MODE);
      591    13680    3         MAX     = AS_USERS.MMEM(MODE);
      592    13681    3         CALL CHECK_DEFAULT_MAX(2, DEFAULT, MAX, MEMORY_TEXTC );
      593    13682    3         AS_USERS.DMEM(MODE) = DEFAULT;
      594    13683    3         END;
PL6.E3A0      #001=ASC$LIMITS File=ASC$LIMITS.:E05TSI                            TUE 07/29/97 09:35 Page:27
      595    13684    2      END;
      596    13685    1   IF AS_MOD_USER.LIMITS.LO ~= '0'B THEN
      597    13686    2   DO MODE = 0 TO 3;
      598    13687    2      IF AS_MOD_USER.LIMITS.LO_A ~= '0'B
      599    13688    3      THEN DO;
      600    13689    3         IF AS_MOD_USER.LIMITS.LO_A.MLO(MODE) THEN
      601    13690    3            AS_USERS.MLO(MODE) = AS_DFLT.MLO(MODE);
      602    13691    3         IF AS_MOD_USER.LIMITS.LO_A.DLO(MODE) THEN
      603    13692    3            AS_USERS.DLO(MODE) = AS_DFLT.DLO(MODE);
      604    13693    3         CALL CHECK_DEFAULT_MAX(3, AS_USERS.DLO(MODE), AS_USERS.MLO(MODE), LO_TEXTC );
      605    13694    3         END;
      606    13695    2      END;
      607    13696    1   IF AS_MOD_USER.LIMITS.DO_ ~= '0'B THEN
      608    13697    2   DO MODE = 0 TO 3;
      609    13698    2      IF AS_MOD_USER.LIMITS.DO_A(MODE) ~= '0'B
      610    13699    3      THEN DO;
      611    13700    3         IF AS_MOD_USER.LIMITS.DO_A.MDO(MODE) THEN
      612    13701    3            AS_USERS.MDO(MODE) = AS_DFLT.MDO(MODE);
      613    13702    3         IF AS_MOD_USER.LIMITS.DO_A.DDO(MODE) THEN
      614    13703    3            AS_USERS.DDO(MODE) = AS_DFLT.DDO(MODE);
      615    13704    3         CALL CHECK_DEFAULT_MAX(3, AS_USERS.DDO(MODE), AS_USERS.MDO(MODE), DO_TEXTC );
      616    13705    3         END;
      617    13706    2      END;
      618    13707    1   IF AS_MOD_USER.LIMITS.PO ~= '0'B THEN
      619    13708    2   DO MODE = 0 TO 3;
      620    13709    2      IF AS_MOD_USER.LIMITS.PO_A(MODE) ~= '0'B
      621    13710    3      THEN DO;
      622    13711    3         IF AS_MOD_USER.LIMITS.PO_A.MPO(MODE) THEN
      623    13712    3            AS_USERS.MPO(MODE) = AS_DFLT.MPO(MODE);
      624    13713    3         IF AS_MOD_USER.LIMITS.PO_A.DPO(MODE) THEN
      625    13714    3            AS_USERS.DPO(MODE) = AS_DFLT.DPO(MODE);
      626    13715    3         CALL CHECK_DEFAULT_MAX(3, AS_USERS.DPO(MODE), AS_USERS.MPO(MODE), PO_TEXTC );
      627    13716    3         END;
      628    13717    2      END;
      629    13718    1   IF AS_MOD_USER.LIMITS.PDIS ~= '0'B THEN
      630    13719    2   DO MODE = 0 TO 3;
      631    13720    2      IF AS_MOD_USER.LIMITS.PDIS_A(MODE) ~= '0'B
PL6.E3A0      #001=ASC$LIMITS File=ASC$LIMITS.:E05TSI                            TUE 07/29/97 09:35 Page:28
      632    13721    3      THEN DO;
      633    13722    3         IF AS_MOD_USER.LIMITS.PDIS_A.MPDIS(MODE) THEN
      634    13723    3            AS_USERS.MPDIS(MODE) = AS_DFLT.MPDIS(MODE);
      635    13724    3         IF AS_MOD_USER.LIMITS.PDIS_A.DPDIS(MODE) THEN
      636    13725    3            AS_USERS.DPDIS(MODE) = AS_DFLT.DPDIS(MODE);
      637    13726    3         CALL CHECK_DEFAULT_MAX(3, AS_USERS.DPDIS(MODE), AS_USERS.MPDIS(MODE),
             13726                  PDIS_TEXTC );
      638    13727    3         END;
      639    13728    2      END;
      640    13729    1   IF AS_MOD_USER.LIMITS.TDIS ~= '0'B THEN
      641    13730    2   DO MODE = 0 TO 3;
      642    13731    2      IF AS_MOD_USER.LIMITS.TDIS_A(MODE) ~= '0'B
      643    13732    3      THEN DO;
      644    13733    3         IF AS_MOD_USER.LIMITS.TDIS_A.MTDIS(MODE) THEN
      645    13734    3            AS_USERS.MTDIS(MODE) = AS_DFLT.MTDIS(MODE);
      646    13735    3         IF AS_MOD_USER.LIMITS.TDIS_A.DTDIS(MODE) THEN
      647    13736    3            AS_USERS.DTDIS(MODE) = AS_DFLT.DTDIS(MODE);
      648    13737    3         CALL CHECK_DEFAULT_MAX(3, AS_USERS.DTDIS(MODE), AS_USERS.MTDIS(MODE),
             13737                  TDIS_TEXTC );
      649    13738    3         END;
      650    13739    2      END;
      651    13740    1   IF AS_MOD_USER.LIMITS.FPOOLS ~= '0'B THEN
      652    13741    2   DO MODE = 0 TO 3;
      653    13742    2      IF AS_MOD_USER.LIMITS.FPOOLS_A(MODE) ~= '0'B
      654    13743    3      THEN DO;
      655    13744    3         IF AS_MOD_USER.LIMITS.FPOOLS_A.MFPOOLS(MODE) THEN
      656    13745    3            AS_USERS.MFPOOLS(MODE) = AS_DFLT.MFPOOLS(MODE);
      657    13746    3         IF AS_MOD_USER.LIMITS.FPOOLS_A.DFPOOLS(MODE) THEN
      658    13747    3            AS_USERS.DFPOOLS(MODE) = AS_DFLT.DFPOOLS(MODE);
      659    13748    3         DEFAULT = AS_USERS.DFPOOLS(MODE);
      660    13749    3         MAX     = AS_USERS.DFPOOLS(MODE);
      661    13750    3         CALL CHECK_DEFAULT_MAX(3, DEFAULT, MAX, FPOOLS_TEXTC );
      662    13751    3         AS_USERS.DFPOOLS(MODE) = DEFAULT;
      663    13752    3         END;
      664    13753    2      END;
      665    13754    1   IF AS_MOD_USER.LIMITS.MPRIO ~= '0'B THEN
      666    13755    2   DO MODE = 0 TO 3;
PL6.E3A0      #001=ASC$LIMITS File=ASC$LIMITS.:E05TSI                            TUE 07/29/97 09:35 Page:29
      667    13756    2      IF AS_MOD_USER.LIMITS.MPRIO_A(MODE) ~= '0'B
      668    13757    3      THEN DO;
      669    13758    3         IF AS_MOD_USER.LIMITS.MPRIO_A.MMPRIO(MODE) THEN
      670    13759    3            AS_USERS.MMPRIO(MODE) = AS_DFLT.MMPRIO(MODE);
      671    13760    3         IF AS_MOD_USER.LIMITS.MPRIO_A.DMPRIO(MODE) THEN
      672    13761    3            AS_USERS.DMPRIO(MODE) = AS_DFLT.DMPRIO(MODE);
      673    13762    3         DEFAULT = AS_USERS.DMPRIO(MODE);
      674    13763    3         MAX     = AS_USERS.DMPRIO(MODE);
      675    13764    3         CALL CHECK_DEFAULT_MAX(3, DEFAULT, MAX, MAXJOBPRIO_TEXTC );
      676    13765    3         AS_USERS.DMPRIO(MODE) = DEFAULT;
      677    13766    3         END;
      678    13767    2      END;
      679    13768    1   RETURN;
      680    13769
      681    13770        %EJECT;
PL6.E3A0      #001=ASC$LIMITS File=ASC$LIMITS.:E05TSI                            TUE 07/29/97 09:35 Page:30
      682    13771    1   CHECK_DEFAULT_MAX: PROC( TYPE, DEFAULT, MAX, SERVICE_NAME );
      683    13772
      684    13773
      685    13774
      686    13775        /*********************************************************************/
      687    13776        /*   Parameters      parameters      parameters      parameters      */
      688    13777        /*********************************************************************/
      689    13778
      690    13779    2   DCL TYPE          UBIN;
      691    13780    2   DCL DEFAULT       UBIN    ALIGNED;
      692    13781    2   DCL DEFAULT_SBIN  REDEF   DEFAULT SBIN ALIGNED;
      693    13782    2   DCL MAX           UBIN    ALIGNED;
      694    13783    2   DCL MAX_SBIN      REDEF   MAX     SBIN ALIGNED;
      695    13784    2   DCL 1 SERVICE_NAME ALIGNED,
      696    13785    2          2 CNT UBIN BYTE UNAL,
      697    13786    2          2 TXT CHAR(SERVICE_NAME.CNT);
      698    13787
      699    13788
      700    13789
      701    13790        %EJECT ;
PL6.E3A0      #001=ASC$LIMITS File=ASC$LIMITS.:E05TSI                            TUE 07/29/97 09:35 Page:31
      702    13791                                                              /* Check that default
      703    13792                                                                 is not greater than
      704    13793                                                                  max.  */
      705    13794    2   IF TYPE = 0 /* Expire */
      706    13795    3   THEN DO;
      707    13796    3      IF DEFAULT <= MAX THEN RETURN;
      708    13797    3      IF DEFAULT_SBIN = -1 THEN AS_FIELD2 = NEVER_TEXTC;
      709    13798    4      ELSE DO;
      710    13799              %NUMBER( NUM2=DEFAULT );
             13815    4         CALL ASB$BINCHAR( AS_FIELD2.TEXT, 0, -2, DEFAULT );
      711    13829    4         END;
      712    13830           %NUMBER( NUM3=MAX );
             13854    3         CALL ASB$BINCHAR( AS_FIELD3.TEXT, 0, -3, MAX );
      713    13860    3      AS_FIELD1 = SERVICE_NAME;
      714    13861    3      END;
      715    13862    3   ELSE DO;
      716    13863    3      IF DEFAULT <= MAX THEN RETURN;
      717    13864    3      CALL CONCAT( AS_FIELD1.TEXT,
      718    13865    3           SUBSTR( AS_MODE_ARRY.TXT(MODE), 0, AS_MODE_ARRY.CNT(MODE) ),
      719    13866    3           ' ', SERVICE_NAME.TXT );
      720    13867    3      AS_FIELD1.COUNT = AS_MODE_ARRY.CNT(MODE) + SERVICE_NAME.CNT + 1;
      721    13868    3      IF TYPE = 1 /* Time */
      722    13869    4      THEN DO;
      723    13870              %NUMBER( NUM2="DEFAULT/6000", NUM3="MAX/6000" );
             13886    4         CALL ASB$BINCHAR( AS_FIELD2.TEXT, 0, -2, DEFAULT/6000 );
             13894    4         CALL ASB$BINCHAR( AS_FIELD3.TEXT, 0, -3, MAX/6000 );
      724    13900    4         END;
      725    13901    4      ELSE DO;
      726    13902              %NUMBER( NUM2=DEFAULT, NUM3=MAX );
             13918    4         CALL ASB$BINCHAR( AS_FIELD2.TEXT, 0, -2, DEFAULT );
             13926    4         CALL ASB$BINCHAR( AS_FIELD3.TEXT, 0, -3, MAX );
      727    13932    4         END;
      728    13933    3      END;
      729    13934
      730    13935    2   IF AS_WILD_USER THEN CALL ASB$FLUSH_ERR;
      731    13936        /**/
      732    13937        /*E*  ERROR:    ASC-E$DEFAULT_GT_MAX-C
PL6.E3A0      #001=ASC$LIMITS File=ASC$LIMITS.:E05TSI                            TUE 07/29/97 09:35 Page:32
      733    13938              MESSAGE: ***  Default value is greater than maximum value for% %U1%.
      734    13939              MESSAGE1: ***  Default value is greater than maximum value for %U1.
      735    13940                             Default value = %U2.  Maximum value = %U3.
      736    13941                             Setting default %%U1 %to maximum% %U1%.
      737    13942        */
      738    13943        %SCREAM( ERR#=E$DEFAULT_GT_MAX, LEVEL=WARN, MID='C' );
      739    13958    2   DEFAULT = MAX;
      740    13959                                                              /**/
      741    13960    2   RETURN ;
      742    13961    2   END   CHECK_DEFAULT_MAX;
      743    13962        %EJECT;
PL6.E3A0      #001=ASC$LIMITS File=ASC$LIMITS.:E05TSI                            TUE 07/29/97 09:35 Page:33
      744    13963    1   CHECK_PROJ_MAX: PROC( TYPE, PROJECT_MAX, MAX, SERVICE_NAME );
      745    13964
      746    13965
      747    13966
      748    13967        /*********************************************************************/
      749    13968        /*   Parameters      parameters      parameters      parameters      */
      750    13969        /*********************************************************************/
      751    13970
      752    13971    2   DCL TYPE              UBIN;
      753    13972    2   DCL PROJECT_MAX       UBIN    ALIGNED;
      754    13973    2   DCL PROJECT_MAX_SBIN  REDEF   PROJECT_MAX SBIN ALIGNED;
      755    13974    2   DCL MAX               UBIN    ALIGNED;
      756    13975    2   DCL MAX_SBIN          REDEF   MAX         SBIN ALIGNED;
      757    13976    2   DCL 1 SERVICE_NAME ALIGNED,
      758    13977    2          2 CNT UBIN BYTE UNAL,
      759    13978    2          2 TXT CHAR(SERVICE_NAME.CNT);
      760    13979
      761    13980
      762    13981
      763    13982        %EJECT ;
PL6.E3A0      #001=ASC$LIMITS File=ASC$LIMITS.:E05TSI                            TUE 07/29/97 09:35 Page:34
      764    13983                                                              /* Check that maximum
      765    13984                                                                 is not greater than
      766    13985                                                                 maximum allowed
      767    13986                                                                 for the project */
      768    13987    2   IF MAX <= PROJECT_MAX THEN RETURN;
      769    13988    2   IF TYPE = 0 /* Expire */
      770    13989    3   THEN DO;
      771    13990           %NUMBER( NUM2=PROJECT_MAX );
             14006    3         CALL ASB$BINCHAR( AS_FIELD2.TEXT, 0, -2, PROJECT_MAX );
      772    14020    3      AS_FIELD1 = SERVICE_NAME;
      773    14021    3      END;
      774    14022    3   ELSE DO;
      775    14023    3      IF TYPE = 4 /* Outputprio */
      776    14024    3      THEN
      777    14025    3         AS_FIELD1 = OUTPUTPRIO_TEXTC;
      778    14026    4      ELSE DO;
      779    14027    4         CALL CONCAT( AS_FIELD1.TEXT,
      780    14028    4              SUBSTR(AS_MODE_ARRY.TXT(MODE), 0, AS_MODE_ARRY.CNT(MODE)),
      781    14029    4              ' ', SERVICE_NAME.TXT );
      782    14030    4         AS_FIELD1.COUNT = AS_MODE_ARRY.CNT(MODE) + SERVICE_NAME.CNT + 1;
      783    14031    4         END;
      784    14032    3      IF TYPE = 1 /* Time */
      785    14033    4      THEN DO;
      786    14034              %NUMBER( NUM2="PROJECT_MAX/6000" );
             14050    4         CALL ASB$BINCHAR( AS_FIELD2.TEXT, 0, -2, PROJECT_MAX/6000 );
      787    14064    4         END;
      788    14065    4      ELSE DO;
      789    14066              %NUMBER( NUM2=PROJECT_MAX );
             14082    4         CALL ASB$BINCHAR( AS_FIELD2.TEXT, 0, -2, PROJECT_MAX );
      790    14096    4         END;
      791    14097    3      END;
      792    14098
      793    14099    3   DO SELECT( AS_CR_MOD_PROJ );
      794    14100    3      SELECT( %CR_PROJ_USER );
      795    14101        /*E*  ERROR:  ASC-E$USERLIM_GT_PROJLIM-C
      796    14102              MESSAGE: %U1 value is too large. Set to maximum of %U2.
      797    14103              MESSAGE1: %U1 can be at most %U2 for a user in your project.
PL6.E3A0      #001=ASC$LIMITS File=ASC$LIMITS.:E05TSI                            TUE 07/29/97 09:35 Page:35
      798    14104                        Setting %U1 to %U2.
      799    14105        */
      800    14106           %SCREAM( ERR#=E$USERLIM_GT_PROJLIM, LEVEL=ERROR, MID='C' );
      801    14121
      802    14122    3      SELECT( %CR_PROJECT );
      803    14123        /*E*  ERROR:  ASC-E$PROJLIM_GT_PROJLIM-C
      804    14124              MESSAGE: %U1 value is too large. Set to maximum of %U2.
      805    14125              MESSAGE1: %U1 can be at most %U2 for projects you create.
      806    14126                        Setting %U1 to %U2.
      807    14127        */
      808    14128           %SCREAM( ERR#=E$PROJLIM_GT_PROJLIM, LEVEL=ERROR, MID='C' );
      809    14143
      810    14144    3      SELECT( %CR_PROJ_DEFAULT );
      811    14145        /*E*  ERROR:  ASC-E$DFLTLIM_GT_PROJLIM-C
      812    14146              MESSAGE: %U1 value is too large.  Set to maximum of %U2.
      813    14147              MESSAGE1: %U1 can be at most %U2 for users in a project you create.
      814    14148                        Setting %U1 to %U2.
      815    14149        */
      816    14150           %SCREAM( ERR#=E$DFLTLIM_GT_PROJLIM, LEVEL=ERROR, MID='C' );
      817    14165    3      END;                  /* Do case( AS_CR_MOD_PROJ ); */
      818    14166    2   MAX = PROJECT_MAX;
      819    14167                                                              /**/
      820    14168    2   RETURN ;
      821    14169    2   END   CHECK_PROJ_MAX;
      822    14170    1   END   ASC$LIMITS ;

PL6.E3A0      #001=ASC$LIMITS File=ASC$LIMITS.:E05TSI                            TUE 07/29/97 09:35 Page:36
--  Include file information  --

   AS_SUPER_R.:E05TOU  cannot be made into a system file and is referenced.
   CP_6.:E05TOU  cannot be made into a system file and is referenced.
   XU_FORMAT_C.:E05TOU  is referenced.
   XU_MACRO_C.:E05TOU  is referenced.
   AS_MAC_C.:E05TOU  cannot be made into a system file and is referenced.
   KL_SUPER_C.:E05TOU  is referenced.
   AS_PERR_C.:E05TOU  is referenced.
   AS_SUBS_C.:E05TOU  is referenced.
   AS_SUPER_C.:E05TOU  is referenced.
   AS_ENTRIES_M.:E05TOU  is referenced.
   B$JIT_C.:E05TOU  was found in the system file and is never referenced.
   CP_6_C.:E05TOU  was found in the system file and is referenced.
      No diagnostics issued in procedure ASC$LIMITS.

   Procedure ASC$LIMITS requires 1790 words for executable code.
   Procedure ASC$LIMITS requires 38 words of local(AUTO) storage.

    No errors detected in file ASC$LIMITS.:E05TSI    .

PL6.E3A0      #001=ASC$LIMITS File=ASC$LIMITS.:E05TSI                            TUE 07/29/97 09:35 Page:37

 Object Unit name= ASC$LIMITS                                 File name= ASC$LIMITS.:E05TOU
 UTS= JUL 29 '97 09:35:46.40 TUE                              Compiler= PL-6/E31         Sev=      00
 SharedLib= :SHARED_SYSTEM                                    Alt SharedLib=


    ****  Control sections  ****

 Sect   Type Bound  Init  Size OctSiz  Section name(segment info)
    0   DCB   even  none     0      0  M$UC
    1   DCB   even  none     0      0  M$LO
    2  RoData even  UTS     38     46  ASC$LIMITS
    3   Proc  even  none  1790   3376  ASC$LIMITS
    4  RoData even  none    46     56  ASC$LIMITS

    ****  Entry defs  ****

                              Check   Calling
                             calling  sequence
  Sect OctLoc Primary Altret sequence   type   Parms  Name
     3      0   yes            yes      Std        1  ASC$LIMITS
     3      3                  yes      Std        1  ASC$EXPIRE
     3    122                  yes      Std        1  ASC$TIME
     3    255                  yes      Std        1  ASC$MEMORY
     3    462                  yes      Std        0  ASC$SERVICE
     3   1755                  yes      Std        1  ASC$OUTPUTPRIO
     3   2035                  yes      Std        0  ASC$MOD_USER_LIMITS
PL6.E3A0      #001=ASC$LIMITS File=ASC$LIMITS.:E05TSI                            TUE 07/29/97 09:35 Page:38

  ****  Entry refs  ****

         Check        Calling
        calling       sequence
Altret sequence SRef   type   Args  Name
         yes          ~proc      0 XU_OUTPUT_OPTIONS
         yes           Std       2 ASB$READ_SI
         yes           Std       2 ASH$ERROR
         yes           Std       0 ASH$HELP
         yes           Std       0 ASH$QUEST
         yes           Std       2 ASH$WARN
 yes     yes           Std       3 ASB$SET_PROMPT
 yes     yes           Std       1 X$PARSE
         yes           Std       0 ASH$DQUEST
         yes           Std       4 ASB$BINCHAR
         yes           Std       0 ASB$FLUSH_ERR
                       nStd      0 X66_AUTO_1
                       Std       0 B_CONSPOOL_D
                       nStd      0 X66_ARET

  ****  Data refs  ****

  Flags:  r = read only, s = secondary
Flgs Name                             Flgs Name                             Flgs Name
     M$UC                             r    AS_TRUE                          r    AS_FALSE
r    AS_MODE                          r    AS_FE_MODE                            M$LO
     IN_BUF                                NODE$                                 CODE
     ERR_CODE                              AS_FIELD1                             AS_FIELD2
     AS_FIELD3                             REMEM_VAR                             REM_FCMD
     ASA_BRKS_LOC                          AS_WILD_USER                          AS_CR_MOD_PROJ
     P_PCB                                 AS_USERS                              AS_DFLT
     AS_MOD_USER                           SERV_OPT_LIST                         B_VECTNIL
PL6.E3A0      #001=ASC$LIMITS File=ASC$LIMITS.:E05TSI                            TUE 07/29/97 09:35 Page:39

  ****  Segment refs  ****

  Flags:  r = read only, s = secondary
Flgs Name                             Flgs Name                             Flgs Name
     ISSID
PL6.E3A0      #001=ASC$LIMITS File=ASC$LIMITS.:E05TSI                            TUE 07/29/97 09:35 Page:40


        1        1        /*M* ASC$LIMITS: Processes the options against limitations. */
        2        2        /*T***********************************************************/
        3        3        /*T*                                                         */
        4        4        /*T* Copyright (c) Bull HN Information Systems Inc., 1997    */
        5        5        /*T*                                                         */
        6        6        /*T***********************************************************/
        7        7        /*X*  DMC,DMR,CCC,PLM=0,IND=3,CTI=5,DCI=6,IAD=0,DTI=0,IDT=0,ENI=3,
        8        8              ECU=3,CSU=3,SDI=3                                           */
        9        9                                                              /**/
       10       10        /*  ASC$LIMITS - this module consists of procedures:
       11       11                         ASC$LIMITS
       12       12        */
       13       13        ASC$LIMITS: PROC( SUBND$ );

     13  3 000000   000000 700200 xent  ASC$LIMITS   TSX0  ! X66_AUTO_1
         3 000001   000046 000001                    ZERO    38,1
         3 000002   000005 710000 3                  TRA     s:13092

       14       14        %EJECT ;
PL6.E3A0      #001=ASC$LIMITS File=ASC$LIMITS.:E05TSI                            TUE 07/29/97 09:35 Page:41
       15       15        /*********************************************************************/
       16       16        /*   Include files   include files   include files   include files   */
       17       17        /*********************************************************************/
       18       18                                                              /**/
       19       19        %INCLUDE  AS_ENTRIES_M ;
       20     1069        %INCLUDE  AS_SUPER_C ;
       21     1504        %INCLUDE  AS_SUBS_C ;
       22     2918        %INCLUDE  AS_PERR_C;
       23     3520        %INCLUDE  KL_SUPER_C ;
       24     6422        %INCLUDE  AS_MAC_C ;
       25     6502        %INCLUDE  XU_MACRO_C;
       26     9608        %INCLUDE  XU_FORMAT_C;
       27     9770        %INCLUDE  CP_6 ;
       28     9851        %INCLUDE  AS_SUPER_R ;
       29    12867        %EJECT ;
PL6.E3A0      #001=ASC$LIMITS File=ASC$LIMITS.:E05TSI                            TUE 07/29/97 09:35 Page:42
       30    12868        /*********************************************************************/
       31    12869        /*   Parameter       parameter       parameter       parameter       */
       32    12870        /*********************************************************************/
       33    12871                                                                  /**/
       34    12872    1   DCL SUBND$        PTR;
       35    12873                                                                  /**/
       36    12874        %EJECT;
PL6.E3A0      #001=ASC$LIMITS File=ASC$LIMITS.:E05TSI                            TUE 07/29/97 09:35 Page:43
       37    12875        /*********************************************************************/
       38    12876        /*   Auto data       auto data       auto data       auto data       */
       39    12877        /*********************************************************************/
       40    12878                                                              /**/
       41    12879    1   DCL ARS UBIN WORD ;
       42    12880    1   DCL I UBIN WORD ;
       43    12881    1   DCL J UBIN WORD ;
       44    12882    1   DCL MODE UBIN WORD ;
       45    12883    1   DCL SUBNDS UBIN WORD ;
       46    12884    1   DCL SUBS UBIN WORD ;
       47    12885    1   DCL VAL SBIN WORD ;
       48    12886    1   DCL BLK$ PTR ;
       49    12887    1   DCL STR$ PTR ;
       50    12888    1   DCL PTR$ PTR ;
       51    12889    1   DCL MORE BIT(1) ;
       52    12890    1   DCL WORK$ PTR ;
       53    12891    1   DCL ROOT$ PTR ;
       54    12892    1   DCL WKSZ UBIN WORD ;
       55    12893    1   DCL WK_USED UBIN WORD ;
       56    12894    1   DCL T_NODE$ PTR ;
       57    12895    1   DCL PROJ_MAX UBIN;
       58    12896    1   DCL MAX UBIN;
       59    12897    1   DCL DEFAULT UBIN;
       60    12898    1   DCL TOTAL SBIN;
       61    12899    1   DCL VALUE (0:1) SBIN;
       62    12900        %EJECT ;
PL6.E3A0      #001=ASC$LIMITS File=ASC$LIMITS.:E05TSI                            TUE 07/29/97 09:35 Page:44
       63    12901        /*********************************************************************/
       64    12902        /*   Symref's        symref's        symref's        symref's        */
       65    12903        /*********************************************************************/
       66    12904                                                              /**/
       67    12905    1   DCL SERV_OPT_LIST UBIN WORD SYMREF ;
       68    12906        %EJECT ;
PL6.E3A0      #001=ASC$LIMITS File=ASC$LIMITS.:E05TSI                            TUE 07/29/97 09:35 Page:45
       69    12907        /*********************************************************************/
       70    12908        /*   Constant data   constant data   constant data   constant data   */
       71    12909        /*********************************************************************/
       72    12910                                                              /**/
       73    12911    1   DCL 1 LO_TEXTC ALIGNED CONSTANT,
       74    12912    1          2 CNT UBIN BYTE UNAL INIT( 2 ),
       75    12913    1          2 TEXT CHAR(2) UNAL INIT( 'LO' );
       76    12914    1   DCL 1 DO_TEXTC ALIGNED CONSTANT,
       77    12915    1          2 CNT UBIN BYTE UNAL INIT( 2 ),
       78    12916    1          2 TEXT CHAR(2) UNAL INIT( 'DO' );
       79    12917    1   DCL 1 PO_TEXTC ALIGNED CONSTANT,
       80    12918    1          2 CNT UBIN BYTE UNAL INIT( 2 ),
       81    12919    1          2 TEXT CHAR(2) UNAL INIT( 'PO' );
       82    12920    1   DCL 1 PDIS_TEXTC ALIGNED CONSTANT,
       83    12921    1          2 CNT UBIN BYTE UNAL INIT( 4 ),
       84    12922    1          2 TEXT CHAR(4) UNAL INIT( 'PDIS' );
       85    12923    1   DCL 1 TDIS_TEXTC ALIGNED CONSTANT,
       86    12924    1          2 CNT UBIN BYTE UNAL INIT( 4 ),
       87    12925    1          2 TEXT CHAR(4) UNAL INIT( 'TDIS' );
       88    12926    1   DCL 1 FPOOLS_TEXTC ALIGNED CONSTANT,
       89    12927    1          2 CNT UBIN BYTE UNAL INIT( 6 ),
       90    12928    1          2 TEXT CHAR(6) UNAL INIT( 'FPOOLS' );
       91    12929    1   DCL 1 MAXJOBPRIO_TEXTC ALIGNED CONSTANT,
       92    12930    1          2 CNT UBIN BYTE UNAL INIT( 10 ),
       93    12931    1          2 TEXT CHAR(10) UNAL INIT( 'MAXJOBPRIO' );
       94    12932    1   DCL 1 MAXIMUM_TEXTC ALIGNED CONSTANT,
       95    12933    1          2 CNT UBIN BYTE UNAL INIT( 7 ),
       96    12934    1          2 TEXT CHAR(7) UNAL INIT( 'Maximum' );
       97    12935    1   DCL 1 DEFAULT_TEXTC ALIGNED CONSTANT,
       98    12936    1          2 CNT UBIN BYTE UNAL INIT( 7 ),
       99    12937    1          2 TEXT CHAR(7) UNAL INIT( 'Default' );
      100    12938    1   DCL 1 TIME_TEXTC ALIGNED CONSTANT,
      101    12939    1          2 CNT UBIN BYTE UNAL INIT( 4 ),
      102    12940    1          2 TEXT CHAR(4) UNAL INIT( 'TIME' );
      103    12941    1   DCL 1 MEMORY_TEXTC ALIGNED CONSTANT,
      104    12942    1          2 CNT UBIN BYTE UNAL INIT( 6 ),
      105    12943    1          2 TEXT CHAR(6) UNAL INIT( 'MEMORY' );
PL6.E3A0      #001=ASC$LIMITS File=ASC$LIMITS.:E05TSI                            TUE 07/29/97 09:35 Page:46
      106    12944    1   DCL 1 EXPIRE_TEXTC ALIGNED CONSTANT,
      107    12945    1          2 CNT UBIN BYTE UNAL INIT( 6 ),
      108    12946    1          2 TEXT CHAR(6) UNAL INIT( 'EXPIRE' );
      109    12947    1   DCL 1 OUTPUTPRIO_TEXTC CONSTANT ALIGNED,
      110    12948    1          2 CNT UBIN BYTE UNAL INIT( 10 ),
      111    12949    1          2 TEXT CHAR(10) UNAL INIT( 'OUTPUTPRIO' );
      112    12950    1   DCL 1 NEVER_TEXTC ALIGNED CONSTANT,
      113    12951    1          2 CNT UBIN BYTE UNAL INIT( 5 ),
      114    12952    1          2 TEXT CHAR(5) INIT( 'NEVER' );
      115    12953        %EJECT;
PL6.E3A0      #001=ASC$LIMITS File=ASC$LIMITS.:E05TSI                            TUE 07/29/97 09:35 Page:47
      116    12954        /*********************************************************************/
      117    12955        /*   Static data     static data     static data     static data     */
      118    12956        /*********************************************************************/
      119    12957                                                              /**/
      120    12958        %EJECT ;
PL6.E3A0      #001=ASC$LIMITS File=ASC$LIMITS.:E05TSI                            TUE 07/29/97 09:35 Page:48
      121    12959        /********************************************************************/
      122    12960        /*   Entry dcls      entry dcls      entry dcls      entry dcls      */
      123    12961        /*********************************************************************/
      124    12962                                                              /**/
      125    12963    1   DCL X$PARSE ENTRY(1) ALTRET ;
      126    12964        %ASB$READ_SI ;
      127    12967        %ASB$SET_PROMPT ;
      128    12970        %ASH$ERROR ;
      129    12973        %ASH$WARN ;
      130    12976        %ASH$HELP ;
      131    12979        %ASH$DQUEST ;
      132    12982        %ASH$QUEST ;
      133    12985        %ASB$FLUSH_ERR ;
      134    12988        %EJECT ;
PL6.E3A0      #001=ASC$LIMITS File=ASC$LIMITS.:E05TSI                            TUE 07/29/97 09:35 Page:49
      135    12989        /*********************************************************************/
      136    12990        /*   Local based     local based     local based     local based     */
      137    12991        /*********************************************************************/
      138    12992                                                              /**/
      139    12993    1   DCL 1 VARY$STR BASED(STR$) ALIGNED ,
      140    12994    1          2 CNT UBIN BYTE UNAL ,
      141    12995    1          2 TEXT CHAR(VARY$STR.CNT) ;
      142    12996
      143    12997        %SET LISTSUB='1'B;
      144    12998        %LIST ;
      145    12999            %PARSE$OUT( NAME=P$NODE, STCLASS="BASED(NODE$)",
      146    13000                        NDTYPE=TYPE, NSUBLKS=SUBNODES) ;
             13001        /*F*  NAME:     PARSE$OUT
             13002              FUNCTION: a structure built by X$PARSE which corresponds to a "list",
             13003                  "alternative", "reducing alternative", or "koncat" node in
             13004                  the user's parse tree.
             13005        */
             13006    1   DCL 1 P$NODE BASED(NODE$) ALIGNED,
             13007    1         2 TEMP BIT(1) UNAL,
             13008    1         2 * BIT (11) UNAL,
             13009    1         2 TYPE UBIN (6) UNAL,
             13010        /*K* NDTYPE - specifies the type of parse node to which this PARSE$OUT
             13011                  block corresponds.  See the XU_SUBS_C file for the
             13012                  %EQU symbols whose values may appear in this field.
             13013        */
             13014    1         2 CODE UBIN HALF HALIGNED,
             13015        /*K* CODE - Contains the numeric "node code" specified by the user when
             13016                  the corresponding parse-node was defined.
             13017        */
             13018    1         2 SUBNODES UBIN HALF HALIGNED,
             13019        /*K* NSUBLKS - "number of sub-blocks".  This field contains the count of
             13020                  pointers actually available in the PARSE$OUT.SUBLK$ array.
             13021        */
             13022    1         2 SCRITCH UBIN HALF HALIGNED,
             13023        /*K* SCRITCH - an 18-bit scratch field reserved for the user.  X$PARSE
             13024                  initializes this field to zero when the PARSE$OUT structure
             13025                  is allocated, and never sets or examines it thereafter.
PL6.E3A0      #001=ASC$LIMITS File=ASC$LIMITS.:E05TSI                            TUE 07/29/97 09:35 Page:50
             13026                  The name of this field may be changed when the PARSE$OUT macro
             13027                  is invoked by the user (say "SCRITCH=yourname"), and its data
             13028                  type may also be changed (say "SCRMODE=pl6datatype" and
             13029                  "SCRALGN=alignment").  BEWARE: this field MUST be 18-bits long,
             13030                  and be UNALIGNED, CALIGNED, or HALIGNED.
             13031        */
             13032    1         2 CPOS UBIN WORD,
             13033        /*K* CPOS - "character position" of this block.  This field will contain
             13034                  a character index (starting at 0) into the original parse
             13035                  string;  the index identifies the first character of the
             13036                  string which was accepted by this node (or by any of its
             13037                  sub-nodes).
             13038        */
             13039    1         2 SUBLK$(0:0) PTR UNAL;
             13040        /*K* SUBLK$ - an array of PL-6 PTRs.  The number of elements in this array
             13041                  is found in OUT$BLK.NSUBLKS;  each PTR will point to another
             13042                  OUT$BLK structure, or to an OUT$SYM structure.
             13043        */
      147    13045              %PARSE$SYM( NAME = OUT$SYM ,
      148    13046                          STCLASS="BASED(BLK$)") ;
             13047        /*F*  NAME:     PARSE$SYM
             13048              FUNCTION: holds "parse symbols".  Structures of this form are created
             13049                  by X$PARSE to hold those portions of the string being parsed
             13050                  which must be returned to the user - quoted strings, decimal
             13051                  or octal numbers, PL-6 identifiers, etc.
             13052        */
             13053    1   DCL 1 OUT$SYM BASED(BLK$) ALIGNED,
             13054    1         2 TEMP BIT(1) UNAL,
             13055    1         2 * BIT (11) UNAL,
             13056    1         2 NDTYPE UBIN (6) UNAL,
             13057        /*K* NDTYPE - see OUT$BLK.NDTYPE for details.
             13058        */
             13059    1         2 CODE UBIN HALF HALIGNED,
             13060        /*K* CODE - see OUT$BLK.CODE for details.
             13061        */
             13062    1         2 NSUBLKS UBIN HALF HALIGNED,
             13063        /*K* NSUBLKS - always contains the value 1.
PL6.E3A0      #001=ASC$LIMITS File=ASC$LIMITS.:E05TSI                            TUE 07/29/97 09:35 Page:51
             13064        */
             13065    1         2 SCRITCH UBIN HALF HALIGNED,
             13066        /*K* SCRITCH - see OUT$BLK.SCRITCH for details.
             13067        */
             13068    1         2 CPOS UBIN WORD,
             13069        /*K* CPOS - see OUT$BLK.CPOS for details.
             13070        */
             13071    1         2 TEXTC$ PTR,
             13072        /*K* TEXTC$ - a pointer to a TEXTC-type string (a 1-byte count field
             13073                  followed by a variable number of characters).  Always
             13074                  points to OUT$SYM.COUNT in the current OUT$SYM block.
             13075        */
             13076    1         2 COUNT UBIN BYTE CALIGNED,
             13077        /*K* COUNT - contains the number of characters in OUT$SYM.TEXT.
             13078        */
             13079    1         2 TEXT CHAR(OUT$SYM.COUNT) CALIGNED;
             13080        /*K* TEXT - contains the text of a string, decimal number, PL-6
             13081                  identifier, or some other parser "symbol".
             13082        */
      149    13084        %PLIST ;
      150    13085        %EJECT ;
PL6.E3A0      #001=ASC$LIMITS File=ASC$LIMITS.:E05TSI                            TUE 07/29/97 09:35 Page:52
      151    13086    1   ASC$EXPIRE: ENTRY( SUBND$ );

  13086  3 000003   000000 700200 xent  ASC$EXPIRE   TSX0  ! X66_AUTO_1
         3 000004   000046 000001                    ZERO    38,1

      152    13087
      153    13088        /*
      154    13089              ***             Begin procedure                 ***
      155    13090        */
      156    13091
      157    13092    1   CODE = SUBND$ -> P$NODE.SUBLK$(0) -> P$NODE.CODE;

  13092  3 000005   200003 470500                    LDP0    @SUBND$,,AUTO
         3 000006   000000 471500                    LDP1    0,,PR0
         3 000007   100003 473500                    LDP3    3,,PR1
         3 000010   300000 236100                    LDQ     0,,PR3
         3 000011   777777 376007                    ANQ     -1,DL
         3 000012   000000 756000 xsym               STQ     CODE

      158    13093    1   BLK$ = SUBND$ -> P$NODE.SUBLK$(1);

  13093  3 000013   000000 471500                    LDP1    0,,PR0
         3 000014   100004 236100                    LDQ     4,,PR1
         3 000015   200013 756100                    STQ     BLK$,,AUTO

      159    13094    2   DO SELECT( OUT$SYM.CODE );

  13094  3 000016   200013 473500                    LDP3    BLK$,,AUTO
         3 000017   300000 236100                    LDQ     0,,PR3
         3 000020   777777 376007                    ANQ     -1,DL
         3 000021   000015 116007                    CMPQ    13,DL
         3 000022   000051 602000 3                  TNC     s:13125
         3 000023   000030 600000 3                  TZE     s:13096
         3 000024   300000 720100                    LXL0    0,,PR3
         3 000025   000022 100003                    CMPX0   18,DU
         3 000026   000051 601000 3                  TNZ     s:13125
         3 000027   000033 710000 3                  TRA     s:13099
PL6.E3A0      #001=ASC$LIMITS File=ASC$LIMITS.:E05TSI                            TUE 07/29/97 09:35 Page:53

      160    13095    2      SELECT( 13   /*  NEVER_VAL  */ );

      161    13096    2      TOTAL = -1;

  13096  3 000030   000001 335007                    LCA     1,DL
         3 000031   200027 755100                    STA     TOTAL,,AUTO
         3 000032   000051 710000 3                  TRA     s:13125

      162    13097
      163    13098    2      SELECT( 18  /*  DEC_VAL  */ );

      164    13099    2      CALL CHARBIN( TOTAL, OUT$SYM.TEXT ) ;

  13099  3 000033   300004 236100                    LDQ     4,,PR3
         3 000034   000033 772000                    QRL     27
         3 000035   000000 621006                    EAX1    0,QL
         3 000036   000100 305540                    DTB
         3 000037   300004 230011                    NDSC9   4,,PR3                   cn=1,s=nosgn,sf=0,n=*X1
         3 000040   200027 000004                    NDSC9   TOTAL,,AUTO              cn=0,s=lsgnf,sf=0,n=4

      165    13100    3      IF TOTAL > BITBIN('777777'O) THEN DO;

  13100  3 000041   200027 235100                    LDA     TOTAL,,AUTO
         3 000042   777777 115007                    CMPA    -1,DL
         3 000043   000051 604400 3                  TMOZ    s:13125

      166    13101        /*E*  ERROR:    ASC-E$EXPIRE_DATE_TOO_LARGE-C
      167    13102              MESSAGE:  EXPIRE date too large.
      168    13103              MESSAGE1: Maximum of 262143 days.
      169    13104        */
      170    13105              %SCREAM( ERR#=E$EXPIRE_DATE_TOO_LARGE, LEVEL=ERROR, MID='A' );

  13117  3 000044   000000 630400 4                  EPPR0   0
         3 000045   000017 631400 xsym               EPPR1   B_VECTNIL+15
         3 000046   000000 701000 xent               TSX1    ASH$ERROR
         3 000047   000000 011000                    NOP     0
PL6.E3A0      #001=ASC$LIMITS File=ASC$LIMITS.:E05TSI                            TUE 07/29/97 09:35 Page:54

      171    13120    3         RETURN ;

  13120  3 000050   000000 702200 xent               TSX2  ! X66_ARET

      172    13121    3         END ;  /* Then do */
      173    13122                                                                   /**/
      174    13123    2      END ; /* Do case( code ) */

      175    13124
      176    13125    2   DO SELECT( CODE );

  13125  3 000051   000000 236000 xsym               LDQ     CODE
         3 000052   000066 116007                    CMPQ    54,DL
         3 000053   000111 602000 3                  TNC     s:13144
         3 000054   000060 600000 3                  TZE     s:13131
         3 000055   000067 116007                    CMPQ    55,DL
         3 000056   000111 601000 3                  TNZ     s:13144
         3 000057   000102 710000 3                  TRA     s:13137

      177    13126    2      SELECT( 54 /* MEXP */ );

      178    13127                                                            /*
      179    13128                                                                Check that max.
      180    13129                                                                does not exceed the
      181    13130                                                                project maximum */
      182    13131    2      AS_USERS.MEXP = TOTAL;

  13131  3 000060   200027 235100                    LDA     TOTAL,,AUTO
         3 000061   000242 755000 xsym               STA     AS_USERS+162

      183    13132    2      IF AS_CR_MOD_PROJ > 0

  13132  3 000062   000000 235000 xsym               LDA     AS_CR_MOD_PROJ
         3 000063   000074 604400 3                  TMOZ    s:13134

      184    13133    2      THEN CALL CHECK_PROJ_MAX( 0, AS_DFLT.MEXP, AS_USERS.MEXP, EXPIRE_TEXTC );
PL6.E3A0      #001=ASC$LIMITS File=ASC$LIMITS.:E05TSI                            TUE 07/29/97 09:35 Page:55

  13133  3 000064   000001 236000 4                  LDQ     1
         3 000065   200036 756100                    STQ     @MAX+1,,AUTO
         3 000066   000002 237000 4                  LDAQ    2
         3 000067   200034 757100                    STAQ    @TYPE+1,,AUTO
         3 000070   000004 236000 4                  LDQ     4
         3 000071   200033 756100                    STQ     TOTAL+4,,AUTO
         3 000072   003163 701000 3                  TSX1    CHECK_PROJ_MAX
         3 000073   000000 011000                    NOP     0

      185    13134    2      AS_MOD_USER.LIMITS.EXPIRE.MEXP = AS_TRUE;

  13134  3 000074   000000 236000 xsym               LDQ     AS_TRUE
         3 000075   000007 772000                    QRL     7
         3 000076   000022 676000 xsym               ERQ     AS_MOD_USER+18
         3 000077   002000 376003                    ANQ     1024,DU
         3 000100   000022 656000 xsym               ERSQ    AS_MOD_USER+18
         3 000101   000111 710000 3                  TRA     s:13144

      186    13135
      187    13136    2      SELECT( 55 /* DEXP */ );

      188    13137    2      AS_USERS.DEXP = TOTAL;

  13137  3 000102   200027 235100                    LDA     TOTAL,,AUTO
         3 000103   000243 755000 xsym               STA     AS_USERS+163

      189    13138    2      AS_MOD_USER.LIMITS.EXPIRE.DEXP = AS_TRUE;

  13138  3 000104   000000 236000 xsym               LDQ     AS_TRUE
         3 000105   000010 772000                    QRL     8
         3 000106   000022 676000 xsym               ERQ     AS_MOD_USER+18
         3 000107   001000 376003                    ANQ     512,DU
         3 000110   000022 656000 xsym               ERSQ    AS_MOD_USER+18

      190    13139
      191    13140    2      END;
PL6.E3A0      #001=ASC$LIMITS File=ASC$LIMITS.:E05TSI                            TUE 07/29/97 09:35 Page:56

      192    13141
      193    13142                                                              /* Test that default
      194    13143                                                                 not greater than max. */
      195    13144    1   CALL CHECK_DEFAULT_MAX( 0, AS_USERS.DEXP, AS_USERS.MEXP, EXPIRE_TEXTC );

  13144  3 000111   000001 236000 4                  LDQ     1
         3 000112   200036 756100                    STQ     @MAX+1,,AUTO
         3 000113   000006 237000 4                  LDAQ    6
         3 000114   200034 757100                    STAQ    @TYPE+1,,AUTO
         3 000115   000004 236000 4                  LDQ     4
         3 000116   200033 756100                    STQ     TOTAL+4,,AUTO
         3 000117   002717 701000 3                  TSX1    CHECK_DEFAULT_MAX
         3 000120   000000 011000                    NOP     0

      196    13145
      197    13146    1   RETURN;

  13146  3 000121   000000 702200 xent               TSX2  ! X66_ARET

      198    13147
      199    13148        %EJECT;
PL6.E3A0      #001=ASC$LIMITS File=ASC$LIMITS.:E05TSI                            TUE 07/29/97 09:35 Page:57
      200    13149    1   ASC$TIME: ENTRY( SUBND$ );

  13149  3 000122   000000 700200 xent  ASC$TIME     TSX0  ! X66_AUTO_1
         3 000123   000046 000001                    ZERO    38,1

      201    13150
      202    13151        /*
      203    13152              ***             Begin procedure                 ***
      204    13153        */
      205    13154
      206    13155    1   CODE = SUBND$ -> P$NODE.SUBLK$(0) -> P$NODE.CODE;

  13155  3 000124   200003 470500                    LDP0    @SUBND$,,AUTO
         3 000125   000000 471500                    LDP1    0,,PR0
         3 000126   100003 473500                    LDP3    3,,PR1
         3 000127   300000 236100                    LDQ     0,,PR3
         3 000130   777777 376007                    ANQ     -1,DL
         3 000131   000000 756000 xsym               STQ     CODE

      207    13156    1   PTR$ = SUBND$ -> P$NODE.SUBLK$(1);

  13156  3 000132   000000 471500                    LDP1    0,,PR0
         3 000133   100004 236100                    LDQ     4,,PR1
         3 000134   200015 756100                    STQ     PTR$,,AUTO

      208    13157    1   SUBS = PTR$ -> P$NODE.SUBNODES;

  13157  3 000135   200015 473500                    LDP3    PTR$,,AUTO
         3 000136   300001 236100                    LDQ     1,,PR3
         3 000137   000022 772000                    QRL     18
         3 000140   200011 756100                    STQ     SUBS,,AUTO

      209    13158
      210    13159    2   DO I = 0 TO SUBS - 1;

  13159  3 000141   200005 450100                    STZ     I,,AUTO
         3 000142   000251 710000 3                  TRA     s:13179+3
PL6.E3A0      #001=ASC$LIMITS File=ASC$LIMITS.:E05TSI                            TUE 07/29/97 09:35 Page:58

      211    13160    2      MODE = PTR$ -> P$NODE.SUBLK$(I) -> P$NODE.SUBLK$(0) -> P$NODE.CODE;

  13160  3 000143   200015 470500                    LDP0    PTR$,,AUTO
         3 000144   200005 720100                    LXL0    I,,AUTO
         3 000145   000003 471510                    LDP1    3,X0,PR0
         3 000146   100003 473500                    LDP3    3,,PR1
         3 000147   300000 236100                    LDQ     0,,PR3
         3 000150   777777 376007                    ANQ     -1,DL
         3 000151   200007 756100                    STQ     MODE,,AUTO

      212    13161    2      BLK$ = PTR$ -> P$NODE.SUBLK$(I) -> P$NODE.SUBLK$(1) -> P$NODE.SUBLK$(0);

  13161  3 000152   100004 474500                    LDP4    4,,PR1
         3 000153   400003 236100                    LDQ     3,,PR4
         3 000154   200013 756100                    STQ     BLK$,,AUTO

      213    13162    2      CALL CHARBIN( VAL, OUT$SYM.TEXT );

  13162  3 000155   200013 475500                    LDP5    BLK$,,AUTO
         3 000156   500004 236100                    LDQ     4,,PR5
         3 000157   000033 772000                    QRL     27
         3 000160   000000 621006                    EAX1    0,QL
         3 000161   000100 305540                    DTB
         3 000162   500004 230011                    NDSC9   4,,PR5                   cn=1,s=nosgn,sf=0,n=*X1
         3 000163   200012 000004                    NDSC9   VAL,,AUTO                cn=0,s=lsgnf,sf=0,n=4

      214    13163    2      VAL = VAL * 6000;

  13163  3 000164   200012 236100                    LDQ     VAL,,AUTO
         3 000165   013560 402007                    MPY     6000,DL
         3 000166   200012 756100                    STQ     VAL,,AUTO

      215    13164    3      DO SELECT( CODE );

  13164  3 000167   000000 236000 xsym               LDQ     CODE
         3 000170   000036 116007                    CMPQ    30,DL
PL6.E3A0      #001=ASC$LIMITS File=ASC$LIMITS.:E05TSI                            TUE 07/29/97 09:35 Page:59
         3 000171   000233 602000 3                  TNC     s:13178
         3 000172   000176 600000 3                  TZE     s:13166
         3 000173   000037 116007                    CMPQ    31,DL
         3 000174   000233 601000 3                  TNZ     s:13178
         3 000175   000223 710000 3                  TRA     s:13173

      216    13165    3         SELECT( 30 /* TIME_MAX */ );

      217    13166    3         AS_USERS.MTIME(MODE) = VAL;

  13166  3 000176   200012 235100                    LDA     VAL,,AUTO
         3 000177   200007 721100                    LXL1    MODE,,AUTO
         3 000200   000251 755011 xsym               STA     AS_USERS+169,X1

      218    13167    3         IF AS_CR_MOD_PROJ > 0

  13167  3 000201   000000 235000 xsym               LDA     AS_CR_MOD_PROJ
         3 000202   000215 604400 3                  TMOZ    s:13170

      219    13168    3         THEN CALL CHECK_PROJ_MAX( 1, AS_DFLT.MTIME(MODE),

  13168  3 000203   000010 236000 4                  LDQ     8
         3 000204   200036 756100                    STQ     @MAX+1,,AUTO
         3 000205   000251 631411 xsym               EPPR1   AS_USERS+169,X1
         3 000206   200035 451500                    STP1    @PROJECT_MAX+1,,AUTO
         3 000207   000251 633411 xsym               EPPR3   AS_DFLT+169,X1
         3 000210   200034 453500                    STP3    @TYPE+1,,AUTO
         3 000211   000011 236000 4                  LDQ     9
         3 000212   200033 756100                    STQ     TOTAL+4,,AUTO
         3 000213   003163 701000 3                  TSX1    CHECK_PROJ_MAX
         3 000214   000000 011000                    NOP     0

      220    13169    3                 AS_USERS.MTIME(MODE), TIME_TEXTC );
      221    13170    3         AS_MOD_USER.LIMITS.TIME_A.MTIME(MODE) = AS_TRUE;

  13170  3 000215   200007 235100                    LDA     MODE,,AUTO
         3 000216   000001 735000                    ALS     1
PL6.E3A0      #001=ASC$LIMITS File=ASC$LIMITS.:E05TSI                            TUE 07/29/97 09:35 Page:60
         3 000217   003005 060400                    CSL     bolr='003'O
         3 000220   000000 000001 xsym               BDSC    AS_TRUE                  by=0,bit=0,n=1
         3 000221   000022 200001 xsym               BDSC    AS_MOD_USER+18,A         by=1,bit=0,n=1
         3 000222   000233 710000 3                  TRA     s:13178

      222    13171
      223    13172    3         SELECT( 31 /* TIME_DEF */ );

      224    13173    3         AS_USERS.DTIME(MODE) = VAL;

  13173  3 000223   200012 235100                    LDA     VAL,,AUTO
         3 000224   200007 721100                    LXL1    MODE,,AUTO
         3 000225   000255 755011 xsym               STA     AS_USERS+173,X1

      225    13174    3         AS_MOD_USER.LIMITS.TIME_A.DTIME(MODE) = AS_TRUE;

  13174  3 000226   200007 235100                    LDA     MODE,,AUTO
         3 000227   000001 735000                    ALS     1
         3 000230   003005 060400                    CSL     bolr='003'O
         3 000231   000000 000001 xsym               BDSC    AS_TRUE                  by=0,bit=0,n=1
         3 000232   000022 210001 xsym               BDSC    AS_MOD_USER+18,A         by=1,bit=1,n=1

      226    13175
      227    13176    3         END;

      228    13177
      229    13178    2     CALL CHECK_DEFAULT_MAX( 1, AS_USERS.DTIME(MODE), AS_USERS.MTIME(MODE), TIME_TEXTC
             13178               );

  13178  3 000233   000010 236000 4                  LDQ     8
         3 000234   200036 756100                    STQ     @MAX+1,,AUTO
         3 000235   200007 720100                    LXL0    MODE,,AUTO
         3 000236   000251 630410 xsym               EPPR0   AS_USERS+169,X0
         3 000237   200035 450500                    STP0    @PROJECT_MAX+1,,AUTO
         3 000240   000255 631410 xsym               EPPR1   AS_USERS+173,X0
         3 000241   200034 451500                    STP1    @TYPE+1,,AUTO
         3 000242   000011 236000 4                  LDQ     9
PL6.E3A0      #001=ASC$LIMITS File=ASC$LIMITS.:E05TSI                            TUE 07/29/97 09:35 Page:61
         3 000243   200033 756100                    STQ     TOTAL+4,,AUTO
         3 000244   002717 701000 3                  TSX1    CHECK_DEFAULT_MAX
         3 000245   000000 011000                    NOP     0

      230    13179    2      END;

  13179  3 000246   200005 235100                    LDA     I,,AUTO
         3 000247   000001 035007                    ADLA    1,DL
         3 000250   200005 755100                    STA     I,,AUTO
         3 000251   200005 236100                    LDQ     I,,AUTO
         3 000252   200011 116100                    CMPQ    SUBS,,AUTO
         3 000253   000143 602000 3                  TNC     s:13160

      231    13180    1   RETURN;

  13180  3 000254   000000 702200 xent               TSX2  ! X66_ARET

      232    13181
      233    13182        %EJECT;
PL6.E3A0      #001=ASC$LIMITS File=ASC$LIMITS.:E05TSI                            TUE 07/29/97 09:35 Page:62
      234    13183    1   ASC$MEMORY: ENTRY( SUBND$ );

  13183  3 000255   000000 700200 xent  ASC$MEMORY   TSX0  ! X66_AUTO_1
         3 000256   000046 000001                    ZERO    38,1

      235    13184
      236    13185        /*
      237    13186              ***             Begin procedure                 ***
      238    13187        */
      239    13188
      240    13189    1   CODE = SUBND$ -> P$NODE.SUBLK$(0) -> P$NODE.CODE;

  13189  3 000257   200003 470500                    LDP0    @SUBND$,,AUTO
         3 000260   000000 471500                    LDP1    0,,PR0
         3 000261   100003 473500                    LDP3    3,,PR1
         3 000262   300000 236100                    LDQ     0,,PR3
         3 000263   777777 376007                    ANQ     -1,DL
         3 000264   000000 756000 xsym               STQ     CODE

      241    13190    1   PTR$ = SUBND$ -> P$NODE.SUBLK$(1);

  13190  3 000265   000000 471500                    LDP1    0,,PR0
         3 000266   100004 236100                    LDQ     4,,PR1
         3 000267   200015 756100                    STQ     PTR$,,AUTO

      242    13191    1   SUBS = PTR$ -> P$NODE.SUBNODES;

  13191  3 000270   200015 473500                    LDP3    PTR$,,AUTO
         3 000271   300001 236100                    LDQ     1,,PR3
         3 000272   000022 772000                    QRL     18
         3 000273   200011 756100                    STQ     SUBS,,AUTO

      243    13192
      244    13193    2   DO I = 0 TO SUBS - 1;

  13193  3 000274   200005 450100                    STZ     I,,AUTO
         3 000275   000456 710000 3                  TRA     s:13263+3
PL6.E3A0      #001=ASC$LIMITS File=ASC$LIMITS.:E05TSI                            TUE 07/29/97 09:35 Page:63

      245    13194    2      MODE = PTR$ -> P$NODE.SUBLK$(I) -> P$NODE.SUBLK$(0) -> P$NODE.CODE;

  13194  3 000276   200015 470500                    LDP0    PTR$,,AUTO
         3 000277   200005 720100                    LXL0    I,,AUTO
         3 000300   000003 471510                    LDP1    3,X0,PR0
         3 000301   100003 473500                    LDP3    3,,PR1
         3 000302   300000 236100                    LDQ     0,,PR3
         3 000303   777777 376007                    ANQ     -1,DL
         3 000304   200007 756100                    STQ     MODE,,AUTO

      246    13195    2      BLK$ = PTR$ -> P$NODE.SUBLK$(I) -> P$NODE.SUBLK$(1) -> P$NODE.SUBLK$(0);

  13195  3 000305   100004 474500                    LDP4    4,,PR1
         3 000306   400003 236100                    LDQ     3,,PR4
         3 000307   200013 756100                    STQ     BLK$,,AUTO

      247    13196    2      CALL CHARBIN( VAL, OUT$SYM.TEXT );

  13196  3 000310   200013 475500                    LDP5    BLK$,,AUTO
         3 000311   500004 236100                    LDQ     4,,PR5
         3 000312   000033 772000                    QRL     27
         3 000313   000000 621006                    EAX1    0,QL
         3 000314   000100 305540                    DTB
         3 000315   500004 230011                    NDSC9   4,,PR5                   cn=1,s=nosgn,sf=0,n=*X1
         3 000316   200012 000004                    NDSC9   VAL,,AUTO                cn=0,s=lsgnf,sf=0,n=4

      248    13197    3      DO SELECT( CODE );

  13197  3 000317   000000 236000 xsym               LDQ     CODE
         3 000320   000037 116007                    CMPQ    31,DL
         3 000321   000424 602000 3                  TNC     s:13259
         3 000322   000326 600000 3                  TZE     s:13199
         3 000323   000040 116007                    CMPQ    32,DL
         3 000324   000424 601000 3                  TNZ     s:13259
         3 000325   000377 710000 3                  TRA     s:13233

PL6.E3A0      #001=ASC$LIMITS File=ASC$LIMITS.:E05TSI                            TUE 07/29/97 09:35 Page:64
      249    13198    3         SELECT( 31 /* MEM_MAX */ );

      250    13199    3         IF AS_CR_MOD_PROJ > 0

  13199  3 000326   000000 235000 xsym               LDA     AS_CR_MOD_PROJ
         3 000327   000347 604400 3                  TMOZ    s:13204

      251    13200    4         THEN DO;

      252    13201    4            PROJ_MAX = AS_DFLT.MMEM(MODE);

  13201  3 000330   200007 235100                    LDA     MODE,,AUTO
         3 000331   000001 735000                    ALS     1
         3 000332   000100 101405                    MRL     fill='000'O
         3 000333   000261 000002 xsym               ADSC9   AS_DFLT+177,A            cn=0,n=2
         3 000334   200024 000004                    ADSC9   PROJ_MAX,,AUTO           cn=0,n=4

      253    13202    4            CALL CHECK_PROJ_MAX( 2, PROJ_MAX, VAL, MEMORY_TEXTC );

  13202  3 000335   000012 236000 4                  LDQ     10
         3 000336   200036 756100                    STQ     @MAX+1,,AUTO
         3 000337   200012 631500                    EPPR1   VAL,,AUTO
         3 000340   200035 451500                    STP1    @PROJECT_MAX+1,,AUTO
         3 000341   200024 633500                    EPPR3   PROJ_MAX,,AUTO
         3 000342   200034 453500                    STP3    @TYPE+1,,AUTO
         3 000343   000013 236000 4                  LDQ     11
         3 000344   200033 756100                    STQ     TOTAL+4,,AUTO
         3 000345   003163 701000 3                  TSX1    CHECK_PROJ_MAX
         3 000346   000000 011000                    NOP     0

      254    13203    4            END;

      255    13204    3         IF VAL > 262143

  13204  3 000347   200012 235100                    LDA     VAL,,AUTO
         3 000350   777777 115007                    CMPA    -1,DL
         3 000351   000364 604400 3                  TMOZ    s:13228
PL6.E3A0      #001=ASC$LIMITS File=ASC$LIMITS.:E05TSI                            TUE 07/29/97 09:35 Page:65

      256    13205    4         THEN DO;

      257    13206        /*E* ERROR:   ASC-E$MEM_VAL_TOO_BIG-C
      258    13207             MESSAGE: Specified memory value is too large, using 262143.
      259    13208             MESSAGE1:262143 is the largest value that fits in a max or default mem field.
      260    13209        */
      261    13210                 %SCREAM (ERR#=E$MEM_VAL_TOO_BIG,LEVEL=WARN,MID='C');

  13220  3 000352   000014 630400 4                  EPPR0   12
         3 000353   000017 631400 xsym               EPPR1   B_VECTNIL+15
         3 000354   000000 701000 xent               TSX1    ASH$WARN
         3 000355   000000 011000                    NOP     0

      262    13225    4            AS_USERS.MMEM (MODE) = 262143;

  13225  3 000356   200007 235100                    LDA     MODE,,AUTO
         3 000357   000001 735000                    ALS     1
         3 000360   000005 101400                    MRL     fill='000'O
         3 000361   000015 000004 4                  ADSC9   13                       cn=0,n=4
         3 000362   000261 000002 xsym               ADSC9   AS_USERS+177,A           cn=0,n=2

      263    13226    4            END;

  13226  3 000363   000371 710000 3                  TRA     s:13230

      264    13227    4         ELSE DO;

      265    13228    4            AS_USERS.MMEM (MODE) = VAL;

  13228  3 000364   200007 236100                    LDQ     MODE,,AUTO
         3 000365   000001 736000                    QLS     1
         3 000366   000006 101500                    MRL     fill='000'O
         3 000367   200012 000004                    ADSC9   VAL,,AUTO                cn=0,n=4
         3 000370   000261 000002 xsym               ADSC9   AS_USERS+177,Q           cn=0,n=2

      266    13229    4            END;
PL6.E3A0      #001=ASC$LIMITS File=ASC$LIMITS.:E05TSI                            TUE 07/29/97 09:35 Page:66

      267    13230    3         AS_MOD_USER.LIMITS.MEM_A.MMEM(MODE) = AS_TRUE;

  13230  3 000371   200007 235100                    LDA     MODE,,AUTO
         3 000372   000001 735000                    ALS     1
         3 000373   003005 060400                    CSL     bolr='003'O
         3 000374   000000 000001 xsym               BDSC    AS_TRUE                  by=0,bit=0,n=1
         3 000375   000022 300001 xsym               BDSC    AS_MOD_USER+18,A         by=1,bit=8,n=1
         3 000376   000424 710000 3                  TRA     s:13259

      268    13231
      269    13232    3         SELECT( 32 /* MEM_DEF */ );

      270    13233    3         IF VAL > 262143

  13233  3 000377   200012 235100                    LDA     VAL,,AUTO
         3 000400   777777 115007                    CMPA    -1,DL
         3 000401   000414 604400 3                  TMOZ    s:13253

      271    13234    4         THEN DO;

      272    13235                 %SCREAM (ERR#=E$MEM_VAL_TOO_BIG,LEVEL=WARN,MID='C');

  13245  3 000402   000014 630400 4                  EPPR0   12
         3 000403   000017 631400 xsym               EPPR1   B_VECTNIL+15
         3 000404   000000 701000 xent               TSX1    ASH$WARN
         3 000405   000000 011000                    NOP     0

      273    13250    4            AS_USERS.DMEM (MODE) = 262143;

  13250  3 000406   200007 235100                    LDA     MODE,,AUTO
         3 000407   000001 735000                    ALS     1
         3 000410   000005 101400                    MRL     fill='000'O
         3 000411   000015 000004 4                  ADSC9   13                       cn=0,n=4
         3 000412   000263 000002 xsym               ADSC9   AS_USERS+179,A           cn=0,n=2

      274    13251    4            END;
PL6.E3A0      #001=ASC$LIMITS File=ASC$LIMITS.:E05TSI                            TUE 07/29/97 09:35 Page:67

  13251  3 000413   000421 710000 3                  TRA     s:13255

      275    13252    4         ELSE DO;

      276    13253    4            AS_USERS.DMEM (MODE) = VAL;

  13253  3 000414   200007 235100                    LDA     MODE,,AUTO
         3 000415   000001 735000                    ALS     1
         3 000416   000005 101500                    MRL     fill='000'O
         3 000417   200012 000004                    ADSC9   VAL,,AUTO                cn=0,n=4
         3 000420   000263 000002 xsym               ADSC9   AS_USERS+179,A           cn=0,n=2

      277    13254    4            END;

      278    13255    3         AS_MOD_USER.LIMITS.MEM_A.DMEM(MODE) = AS_TRUE;

  13255  3 000421   003005 060400                    CSL     bolr='003'O
         3 000422   000000 000001 xsym               BDSC    AS_TRUE                  by=0,bit=0,n=1
         3 000423   000022 400001 xsym               BDSC    AS_MOD_USER+18,A         by=2,bit=0,n=1

      279    13256
      280    13257    3         END;

      281    13258
      282    13259    2      DEFAULT = AS_USERS.DMEM(MODE);

  13259  3 000424   200007 235100                    LDA     MODE,,AUTO
         3 000425   000001 735000                    ALS     1
         3 000426   000100 101405                    MRL     fill='000'O
         3 000427   000263 000002 xsym               ADSC9   AS_USERS+179,A           cn=0,n=2
         3 000430   200026 000004                    ADSC9   DEFAULT,,AUTO            cn=0,n=4

      283    13260    2      MAX     = AS_USERS.MMEM(MODE);

  13260  3 000431   000100 101405                    MRL     fill='000'O
         3 000432   000261 000002 xsym               ADSC9   AS_USERS+177,A           cn=0,n=2
PL6.E3A0      #001=ASC$LIMITS File=ASC$LIMITS.:E05TSI                            TUE 07/29/97 09:35 Page:68
         3 000433   200025 000004                    ADSC9   MAX,,AUTO                cn=0,n=4

      284    13261    2      CALL CHECK_DEFAULT_MAX( 2, DEFAULT, MAX, MEMORY_TEXTC );

  13261  3 000434   000012 236000 4                  LDQ     10
         3 000435   200036 756100                    STQ     @MAX+1,,AUTO
         3 000436   200025 630500                    EPPR0   MAX,,AUTO
         3 000437   200035 450500                    STP0    @PROJECT_MAX+1,,AUTO
         3 000440   200026 631500                    EPPR1   DEFAULT,,AUTO
         3 000441   200034 451500                    STP1    @TYPE+1,,AUTO
         3 000442   000013 236000 4                  LDQ     11
         3 000443   200033 756100                    STQ     TOTAL+4,,AUTO
         3 000444   002717 701000 3                  TSX1    CHECK_DEFAULT_MAX
         3 000445   000000 011000                    NOP     0

      285    13262    2      AS_USERS.DMEM(MODE) = DEFAULT;

  13262  3 000446   200007 235100                    LDA     MODE,,AUTO
         3 000447   000001 735000                    ALS     1
         3 000450   000005 101500                    MRL     fill='000'O
         3 000451   200026 000004                    ADSC9   DEFAULT,,AUTO            cn=0,n=4
         3 000452   000263 000002 xsym               ADSC9   AS_USERS+179,A           cn=0,n=2

      286    13263    2      END;

  13263  3 000453   200005 236100                    LDQ     I,,AUTO
         3 000454   000001 036007                    ADLQ    1,DL
         3 000455   200005 756100                    STQ     I,,AUTO
         3 000456   200005 236100                    LDQ     I,,AUTO
         3 000457   200011 116100                    CMPQ    SUBS,,AUTO
         3 000460   000276 602000 3                  TNC     s:13194

      287    13264    1   RETURN;

  13264  3 000461   000000 702200 xent               TSX2  ! X66_ARET

      288    13265
PL6.E3A0      #001=ASC$LIMITS File=ASC$LIMITS.:E05TSI                            TUE 07/29/97 09:35 Page:69
      289    13266        %EJECT;
PL6.E3A0      #001=ASC$LIMITS File=ASC$LIMITS.:E05TSI                            TUE 07/29/97 09:35 Page:70
      290    13267    1   ASC$SERVICE: ENTRY;

  13267  3 000462   000000 700200 xent  ASC$SERVICE  TSX0  ! X66_AUTO_1
         3 000463   000046 000001                    ZERO    38,1

      291    13268                                                              /**/
      292    13269        /*
      293    13270            ***            Begin procedure                    ***
      294    13271        */
      295    13272                                                              /* Save some of P_PCB. */
      296    13273    1   WORK$ = P_PCB.WORK$ ;

  13273  3 000464   000002 236000 xsym               LDQ     P_PCB+2
         3 000465   200017 756100                    STQ     WORK$,,AUTO

      297    13274    1   WKSZ = P_PCB.WKSZ ;

  13274  3 000466   000005 235000 xsym               LDA     P_PCB+5
         3 000467   000022 771000                    ARL     18
         3 000470   200021 755100                    STA     WKSZ,,AUTO

      298    13275    1   WK_USED = P_PCB.WK_USED ;

  13275  3 000471   000010 235000 xsym               LDA     P_PCB+8
         3 000472   000022 771000                    ARL     18
         3 000473   200022 755100                    STA     WK_USED,,AUTO

      299    13276    1   ROOT$ = P_PCB.ROOT$ ;

  13276  3 000474   000001 236000 xsym               LDQ     P_PCB+1
         3 000475   200020 756100                    STQ     ROOT$,,AUTO

      300    13277                                                              /* Bump past area used. */
      301    13278    1   P_PCB.WORK$ = PINCRW( WORK$, P_PCB.WK_USED ) ;

  13278  3 000476   000010 236000 xsym               LDQ     P_PCB+8
         3 000477   777777 376003                    ANQ     -1,DU
PL6.E3A0      #001=ASC$LIMITS File=ASC$LIMITS.:E05TSI                            TUE 07/29/97 09:35 Page:71
         3 000500   200017 036100                    ADLQ    WORK$,,AUTO
         3 000501   000002 756000 xsym               STQ     P_PCB+2

      302    13279    1   P_PCB.WKSZ = WKSZ - P_PCB.WK_USED ;

  13279  3 000502   200040 755100                    STA     @SERVICE_NAME+2,,AUTO
         3 000503   200021 236100                    LDQ     WKSZ,,AUTO
         3 000504   200040 136100                    SBLQ    @SERVICE_NAME+2,,AUTO
         3 000505   000000 620006                    EAX0    0,QL
         3 000506   000005 740000 xsym               STX0    P_PCB+5

      303    13280                                                              /* Save NODE$ */
      304    13281    1   T_NODE$ = NODE$ ;

  13281  3 000507   000000 236000 xsym               LDQ     NODE$
         3 000510   200023 756100                    STQ     T_NODE$,,AUTO

      305    13282                                                              /* Set ROOT$ */
      306    13283    1   P_PCB.ROOT$ = ADDR( SERV_OPT_LIST ) ;

  13283  3 000511   000016 236000 4                  LDQ     14
         3 000512   000001 756000 xsym               STQ     P_PCB+1

      307    13284                                                              /* Set prompt */
      308    13285    1   CALL ASB$SET_PROMPT ( %PROMPT_SUB ) ;

  13285  3 000513   000013 630400 4                  EPPR0   11
         3 000514   000017 631400 xsym               EPPR1   B_VECTNIL+15
         3 000515   000000 701000 xent               TSX1    ASB$SET_PROMPT
         3 000516   000000 011000                    NOP     0

      309    13286    1   MORE = AS_TRUE ;

  13286  3 000517   000000 236000 xsym               LDQ     AS_TRUE
         3 000520   400000 376003                    ANQ     -131072,DU
         3 000521   200016 756100                    STQ     MORE,,AUTO

PL6.E3A0      #001=ASC$LIMITS File=ASC$LIMITS.:E05TSI                            TUE 07/29/97 09:35 Page:72
      310    13287    1   REMEMBER SERV_LOOP IN REMEM_VAR ;

  13287  3 000522   000525 635000 3                  EAA     SERV_LOOP
         3 000523   000000 452400 xsym               STP2    REMEM_VAR
         3 000524   000001 755000 xsym               STA     REMEM_VAR+1

  13286  3 000525                       SERV_LOOP    null
      311    13288                                                              /**/
      312    13289    1   SERV_LOOP: ;
      313    13290                                                              /**/
      314    13291    2   DO WHILE( MORE ) ;

  13291  3 000525   200016 234100                    SZN     MORE,,AUTO
         3 000526   001745 605000 3                  TPL     s:13578

      315    13292    2      CALL ASB$READ_SI( IN_BUF, ARS ) ;

  13292  3 000527   200004 630500                    EPPR0   ARS,,AUTO
         3 000530   200041 450500                    STP0    @SERVICE_NAME+3,,AUTO
         3 000531   000017 236000 4                  LDQ     15
         3 000532   200040 756100                    STQ     @SERVICE_NAME+2,,AUTO
         3 000533   200040 630500                    EPPR0   @SERVICE_NAME+2,,AUTO
         3 000534   000020 631400 xsym               EPPR1   B_VECTNIL+16
         3 000535   000000 701000 xent               TSX1    ASB$READ_SI
         3 000536   000000 011000                    NOP     0

      316    13293    2      P_PCB.NCHARS = ARS ;

  13293  3 000537   200004 235100                    LDA     ARS,,AUTO
         3 000540   000011 755000 xsym               STA     P_PCB+9

      317    13294    2      CALL X$PARSE( P_PCB ) ALTRET( SERV_ERR ) ;

  13294  3 000541   000020 630400 4                  EPPR0   16
         3 000542   000017 631400 xsym               EPPR1   B_VECTNIL+15
         3 000543   000000 701000 xent               TSX1    X$PARSE
         3 000544   001746 702000 3                  TSX2    SERV_ERR
PL6.E3A0      #001=ASC$LIMITS File=ASC$LIMITS.:E05TSI                            TUE 07/29/97 09:35 Page:73

      318    13295    2      NODE$ = P_PCB.OUT$ ;

  13295  3 000545   000003 236000 xsym               LDQ     P_PCB+3
         3 000546   000000 756000 xsym               STQ     NODE$

      319    13296                                                              /**/
      320    13297    2      SUBNDS = P$NODE.SUBNODES ;

  13297  3 000547   000000 470400 xsym               LDP0    NODE$
         3 000550   000001 236100                    LDQ     1,,PR0
         3 000551   000022 772000                    QRL     18
         3 000552   200010 756100                    STQ     SUBNDS,,AUTO

      321    13298    3      DO I = 0 TO SUBNDS-1 ;

  13298  3 000553   200005 450100                    STZ     I,,AUTO
         3 000554   001740 710000 3                  TRA     s:13575+3

      322    13299    3         CODE = P$NODE.SUBLK$(I) -> P$NODE.CODE ;

  13299  3 000555   000000 470400 xsym               LDP0    NODE$
         3 000556   200005 720100                    LXL0    I,,AUTO
         3 000557   000003 471510                    LDP1    3,X0,PR0
         3 000560   100000 236100                    LDQ     0,,PR1
         3 000561   777777 376007                    ANQ     -1,DL
         3 000562   000000 756000 xsym               STQ     CODE

      323    13300    3         PTR$ = P$NODE.SUBLK$(I) ;

  13300  3 000563   000003 236110                    LDQ     3,X0,PR0
         3 000564   200015 756100                    STQ     PTR$,,AUTO

      324    13301    3         SUBS = PTR$ -> P$NODE.SUBNODES ;

  13301  3 000565   200015 471500                    LDP1    PTR$,,AUTO
         3 000566   100001 236100                    LDQ     1,,PR1
PL6.E3A0      #001=ASC$LIMITS File=ASC$LIMITS.:E05TSI                            TUE 07/29/97 09:35 Page:74
         3 000567   000022 772000                    QRL     18
         3 000570   200011 756100                    STQ     SUBS,,AUTO

      325    13302                                                              /**/
      326    13303    4         DO SELECT( CODE ) ;

  13303  3 000571   000000 236000 xsym               LDQ     CODE
         3 000572   000454 116007                    CMPQ    300,DL
         3 000573   000604 602000 3                  TNC     s:13303+11
         3 000574   000642 600000 3                  TZE     s:13323
         3 000575   000456 116007                    CMPQ    302,DL
         3 000576   000601 602000 3                  TNC     s:13303+8
         3 000577   000636 600000 3                  TZE     s:13320
         3 000600   000652 710000 3                  TRA     s:13329
         3 000601   000455 116007                    CMPQ    301,DL
         3 000602   000652 601000 3                  TNZ     s:13329
         3 000603   000646 710000 3                  TRA     s:13326
         3 000604   000020 116007                    CMPQ    16,DL
         3 000605   000612 602000 3                  TNC     s:13303+17
         3 000606   000635 600000 3                  TZE     s:13317
         3 000607   000032 116007                    CMPQ    26,DL
         3 000610   000652 601000 3                  TNZ     s:13329
         3 000611   000615 710000 3                  TRA     s:13307
         3 000612   000014 116007                    CMPQ    12,DL
         3 000613   000652 601000 3                  TNZ     s:13329
         3 000614   000615 710000 3                  TRA     s:13307

      327    13304                                                              /**/
      328    13305    4            SELECT( 12   /*  END_VAL  */ ,

      329    13306    4                 26   /*  BLANK_LINE_VAL */ ) ;
      330    13307    4            MORE = AS_FALSE ;

  13307  3 000615   000000 236000 xsym               LDQ     AS_FALSE
         3 000616   400000 376003                    ANQ     -131072,DU
         3 000617   200016 756100                    STQ     MORE,,AUTO

PL6.E3A0      #001=ASC$LIMITS File=ASC$LIMITS.:E05TSI                            TUE 07/29/97 09:35 Page:75
      331    13308    4            I = SUBNDS ;

  13308  3 000620   200010 235100                    LDA     SUBNDS,,AUTO
         3 000621   200005 755100                    STA     I,,AUTO

      332    13309                                                              /* Restore P_PCB */
      333    13310    4            P_PCB.WORK$ = WORK$ ;

  13310  3 000622   200017 236100                    LDQ     WORK$,,AUTO
         3 000623   000002 756000 xsym               STQ     P_PCB+2

      334    13311    4            P_PCB.WKSZ = WKSZ ;

  13311  3 000624   200021 720100                    LXL0    WKSZ,,AUTO
         3 000625   000005 740000 xsym               STX0    P_PCB+5

      335    13312    4            P_PCB.WK_USED = WK_USED ;

  13312  3 000626   200022 721100                    LXL1    WK_USED,,AUTO
         3 000627   000010 741000 xsym               STX1    P_PCB+8

      336    13313    4            P_PCB.ROOT$ = ROOT$ ;

  13313  3 000630   200020 236100                    LDQ     ROOT$,,AUTO
         3 000631   000001 756000 xsym               STQ     P_PCB+1

      337    13314                                                              /* Restore NODE$ */
      338    13315    4            NODE$ = T_NODE$ ;

  13315  3 000632   200023 236100                    LDQ     T_NODE$,,AUTO
         3 000633   000000 756000 xsym               STQ     NODE$
         3 000634   001735 710000 3                  TRA     s:13575

      339    13316                                                              /**/
      340    13317    4            SELECT( 16   /*  EOL_VAL  */ ) ;

  13317  3 000635   001735 710000 3                  TRA     s:13575
PL6.E3A0      #001=ASC$LIMITS File=ASC$LIMITS.:E05TSI                            TUE 07/29/97 09:35 Page:76

      341    13318                                                              /**/
      342    13319    4            SELECT( 302 /* HELP_VAL */ );

      343    13320    4            CALL ASH$HELP ;

  13320  3 000636   000002 631400 xsym               EPPR1   B_VECTNIL+2
         3 000637   000000 701000 xent               TSX1    ASH$HELP
         3 000640   000000 011000                    NOP     0
         3 000641   001735 710000 3                  TRA     s:13575

      344    13321
      345    13322    4            SELECT( 300 /* DQUESTION_VAL */ );

      346    13323    4            CALL ASH$DQUEST ;

  13323  3 000642   000002 631400 xsym               EPPR1   B_VECTNIL+2
         3 000643   000000 701000 xent               TSX1    ASH$DQUEST
         3 000644   000000 011000                    NOP     0
         3 000645   001735 710000 3                  TRA     s:13575

      347    13324
      348    13325    4            SELECT( 301 /* QUESTION_VAL */ ) ;

      349    13326    4            CALL ASH$QUEST ;

  13326  3 000646   000002 631400 xsym               EPPR1   B_VECTNIL+2
         3 000647   000000 701000 xent               TSX1    ASH$QUEST
         3 000650   000000 011000                    NOP     0
         3 000651   001735 710000 3                  TRA     s:13575

      350    13327
      351    13328    4            SELECT( ELSE ) ;

      352    13329    5         DO J = 0 TO SUBS-1 ;

  13329  3 000652   200006 450100                    STZ     J,,AUTO
PL6.E3A0      #001=ASC$LIMITS File=ASC$LIMITS.:E05TSI                            TUE 07/29/97 09:35 Page:77
         3 000653   001732 710000 3                  TRA     s:13572+3

      353    13330    5            MODE = PTR$ -> P$NODE.SUBLK$(J) -> P$NODE.SUBLK$(0) ->

  13330  3 000654   200015 470500                    LDP0    PTR$,,AUTO
         3 000655   200006 720100                    LXL0    J,,AUTO
         3 000656   000003 471510                    LDP1    3,X0,PR0
         3 000657   100003 473500                    LDP3    3,,PR1
         3 000660   300000 236100                    LDQ     0,,PR3
         3 000661   777777 376007                    ANQ     -1,DL
         3 000662   200007 756100                    STQ     MODE,,AUTO

      354    13331    5                 P$NODE.CODE ;
      355    13332    5            BLK$ = PTR$ -> P$NODE.SUBLK$(J) -> P$NODE.SUBLK$(1);

  13332  3 000663   100004 236100                    LDQ     4,,PR1
         3 000664   200013 756100                    STQ     BLK$,,AUTO

      356    13333    5            CALL CHARBIN( VAL, OUT$SYM.TEXT ) ;

  13333  3 000665   200013 474500                    LDP4    BLK$,,AUTO
         3 000666   400004 236100                    LDQ     4,,PR4
         3 000667   000033 772000                    QRL     27
         3 000670   000000 621006                    EAX1    0,QL
         3 000671   000100 305540                    DTB
         3 000672   400004 230011                    NDSC9   4,,PR4                   cn=1,s=nosgn,sf=0,n=*X1
         3 000673   200012 000004                    NDSC9   VAL,,AUTO                cn=0,s=lsgnf,sf=0,n=4

      357    13334    6            DO SELECT( CODE ) ;

  13334  3 000674   000000 236000 xsym               LDQ     CODE
         3 000675   000111 116007                    CMPQ    73,DL
         3 000676   000730 602000 3                  TNC     s:13334+28
         3 000677   001077 600000 3                  TZE     s:13355
         3 000700   000114 116007                    CMPQ    76,DL
         3 000701   000722 602000 3                  TNC     s:13334+22
         3 000702   001210 600000 3                  TZE     s:13372
PL6.E3A0      #001=ASC$LIMITS File=ASC$LIMITS.:E05TSI                            TUE 07/29/97 09:35 Page:78
         3 000703   000116 116007                    CMPQ    78,DL
         3 000704   000717 602000 3                  TNC     s:13334+19
         3 000705   001362 600000 3                  TZE     s:13396
         3 000706   000120 116007                    CMPQ    80,DL
         3 000707   000714 602000 3                  TNC     s:13334+16
         3 000710   001565 600000 3                  TZE     s:13506
         3 000711   000121 116007                    CMPQ    81,DL
         3 000712   001727 601000 3                  TNZ     s:13572
         3 000713   001660 710000 3                  TRA     s:13544
         3 000714   000117 116007                    CMPQ    79,DL
         3 000715   001727 601000 3                  TNZ     s:13572
         3 000716   001475 710000 3                  TRA     s:13458
         3 000717   000115 116007                    CMPQ    77,DL
         3 000720   001727 601000 3                  TNZ     s:13572
         3 000721   001251 710000 3                  TRA     s:13379
         3 000722   000112 116007                    CMPQ    74,DL
         3 000723   001727 602000 3                  TNC     s:13572
         3 000724   001275 600000 3                  TZE     s:13384
         3 000725   000113 116007                    CMPQ    75,DL
         3 000726   001727 601000 3                  TNZ     s:13572
         3 000727   001336 710000 3                  TRA     s:13391
         3 000730   000106 116007                    CMPQ    70,DL
         3 000731   000742 602000 3                  TNC     s:13334+38
         3 000732   001123 600000 3                  TZE     s:13360
         3 000733   000110 116007                    CMPQ    72,DL
         3 000734   000737 602000 3                  TNC     s:13334+35
         3 000735   001036 600000 3                  TZE     s:13348
         3 000736   001727 710000 3                  TRA     s:13572
         3 000737   000107 116007                    CMPQ    71,DL
         3 000740   001727 601000 3                  TNZ     s:13572
         3 000741   001164 710000 3                  TRA     s:13367
         3 000742   000105 116007                    CMPQ    69,DL
         3 000743   000746 602000 3                  TNC     s:13334+42
         3 000744   001012 600000 3                  TZE     s:13343
         3 000745   001727 710000 3                  TRA     s:13572
         3 000746   000104 116007                    CMPQ    68,DL
         3 000747   001727 601000 3                  TNZ     s:13572
PL6.E3A0      #001=ASC$LIMITS File=ASC$LIMITS.:E05TSI                            TUE 07/29/97 09:35 Page:79
         3 000750   000751 710000 3                  TRA     s:13336

      358    13335    6               SELECT( 68 /* MLO */ ) ;

      359    13336    6               IF AS_CR_MOD_PROJ > 0 THEN

  13336  3 000751   000000 235000 xsym               LDA     AS_CR_MOD_PROJ
         3 000752   000766 604400 3                  TMOZ    s:13338

      360    13337    6                  CALL CHECK_PROJ_MAX( 3, AS_DFLT.MLO(MODE), VAL, LO_TEXTC );

  13337  3 000753   000021 236000 4                  LDQ     17
         3 000754   200036 756100                    STQ     @MAX+1,,AUTO
         3 000755   200012 631500                    EPPR1   VAL,,AUTO
         3 000756   200035 451500                    STP1    @PROJECT_MAX+1,,AUTO
         3 000757   200007 721100                    LXL1    MODE,,AUTO
         3 000760   000036 633411 xsym               EPPR3   AS_DFLT+30,X1
         3 000761   200034 453500                    STP3    @TYPE+1,,AUTO
         3 000762   000022 236000 4                  LDQ     18
         3 000763   200033 756100                    STQ     TOTAL+4,,AUTO
         3 000764   003163 701000 3                  TSX1    CHECK_PROJ_MAX
         3 000765   000000 011000                    NOP     0

      361    13338    6               CALL CHECK_DEFAULT_MAX( 3, AS_USERS.DLO(MODE), VAL, LO_TEXTC );

  13338  3 000766   000021 236000 4                  LDQ     17
         3 000767   200036 756100                    STQ     @MAX+1,,AUTO
         3 000770   200012 630500                    EPPR0   VAL,,AUTO
         3 000771   200035 450500                    STP0    @PROJECT_MAX+1,,AUTO
         3 000772   200007 720100                    LXL0    MODE,,AUTO
         3 000773   000042 631410 xsym               EPPR1   AS_USERS+34,X0
         3 000774   200034 451500                    STP1    @TYPE+1,,AUTO
         3 000775   000022 236000 4                  LDQ     18
         3 000776   200033 756100                    STQ     TOTAL+4,,AUTO
         3 000777   002717 701000 3                  TSX1    CHECK_DEFAULT_MAX
         3 001000   000000 011000                    NOP     0

PL6.E3A0      #001=ASC$LIMITS File=ASC$LIMITS.:E05TSI                            TUE 07/29/97 09:35 Page:80
      362    13339    6               AS_USERS.MLO(MODE) = VAL;

  13339  3 001001   200012 235100                    LDA     VAL,,AUTO
         3 001002   200007 720100                    LXL0    MODE,,AUTO
         3 001003   000036 755010 xsym               STA     AS_USERS+30,X0

      363    13340    6               AS_MOD_USER.LIMITS.LO_A.MLO(MODE) = AS_TRUE;

  13340  3 001004   200007 236100                    LDQ     MODE,,AUTO
         3 001005   000001 736000                    QLS     1
         3 001006   003006 060400                    CSL     bolr='003'O
         3 001007   000000 000001 xsym               BDSC    AS_TRUE                  by=0,bit=0,n=1
         3 001010   000022 470001 xsym               BDSC    AS_MOD_USER+18,Q         by=2,bit=7,n=1
         3 001011   001727 710000 3                  TRA     s:13572

      364    13341                                                              /**/
      365    13342    6               SELECT( 69 /* DLO */ ) ;

      366    13343    6               CALL CHECK_DEFAULT_MAX( 3, VAL, AS_USERS.MLO(MODE), LO_TEXTC );

  13343  3 001012   000021 236000 4                  LDQ     17
         3 001013   200036 756100                    STQ     @MAX+1,,AUTO
         3 001014   200007 721100                    LXL1    MODE,,AUTO
         3 001015   000036 631411 xsym               EPPR1   AS_USERS+30,X1
         3 001016   200035 451500                    STP1    @PROJECT_MAX+1,,AUTO
         3 001017   200012 633500                    EPPR3   VAL,,AUTO
         3 001020   200034 453500                    STP3    @TYPE+1,,AUTO
         3 001021   000022 236000 4                  LDQ     18
         3 001022   200033 756100                    STQ     TOTAL+4,,AUTO
         3 001023   002717 701000 3                  TSX1    CHECK_DEFAULT_MAX
         3 001024   000000 011000                    NOP     0

      367    13344    6               AS_USERS.DLO(MODE) = VAL;

  13344  3 001025   200012 235100                    LDA     VAL,,AUTO
         3 001026   200007 720100                    LXL0    MODE,,AUTO
         3 001027   000042 755010 xsym               STA     AS_USERS+34,X0
PL6.E3A0      #001=ASC$LIMITS File=ASC$LIMITS.:E05TSI                            TUE 07/29/97 09:35 Page:81

      368    13345    6               AS_MOD_USER.LIMITS.LO_A.DLO(MODE) = AS_TRUE;

  13345  3 001030   200007 236100                    LDQ     MODE,,AUTO
         3 001031   000001 736000                    QLS     1
         3 001032   003006 060400                    CSL     bolr='003'O
         3 001033   000000 000001 xsym               BDSC    AS_TRUE                  by=0,bit=0,n=1
         3 001034   000022 500001 xsym               BDSC    AS_MOD_USER+18,Q         by=2,bit=8,n=1
         3 001035   001727 710000 3                  TRA     s:13572

      369    13346                                                              /**/
      370    13347    6               SELECT( 72 /* MDO */ ) ;

      371    13348    6               IF AS_CR_MOD_PROJ > 0 THEN

  13348  3 001036   000000 235000 xsym               LDA     AS_CR_MOD_PROJ
         3 001037   001053 604400 3                  TMOZ    s:13350

      372    13349    6                  CALL CHECK_PROJ_MAX( 3, AS_DFLT.MDO(MODE), VAL, DO_TEXTC );

  13349  3 001040   000023 236000 4                  LDQ     19
         3 001041   200036 756100                    STQ     @MAX+1,,AUTO
         3 001042   200012 631500                    EPPR1   VAL,,AUTO
         3 001043   200035 451500                    STP1    @PROJECT_MAX+1,,AUTO
         3 001044   200007 721100                    LXL1    MODE,,AUTO
         3 001045   000046 633411 xsym               EPPR3   AS_DFLT+38,X1
         3 001046   200034 453500                    STP3    @TYPE+1,,AUTO
         3 001047   000022 236000 4                  LDQ     18
         3 001050   200033 756100                    STQ     TOTAL+4,,AUTO
         3 001051   003163 701000 3                  TSX1    CHECK_PROJ_MAX
         3 001052   000000 011000                    NOP     0

      373    13350    6               CALL CHECK_DEFAULT_MAX( 3, AS_USERS.DDO(MODE), VAL, DO_TEXTC );

  13350  3 001053   000023 236000 4                  LDQ     19
         3 001054   200036 756100                    STQ     @MAX+1,,AUTO
         3 001055   200012 630500                    EPPR0   VAL,,AUTO
PL6.E3A0      #001=ASC$LIMITS File=ASC$LIMITS.:E05TSI                            TUE 07/29/97 09:35 Page:82
         3 001056   200035 450500                    STP0    @PROJECT_MAX+1,,AUTO
         3 001057   200007 720100                    LXL0    MODE,,AUTO
         3 001060   000052 631410 xsym               EPPR1   AS_USERS+42,X0
         3 001061   200034 451500                    STP1    @TYPE+1,,AUTO
         3 001062   000022 236000 4                  LDQ     18
         3 001063   200033 756100                    STQ     TOTAL+4,,AUTO
         3 001064   002717 701000 3                  TSX1    CHECK_DEFAULT_MAX
         3 001065   000000 011000                    NOP     0

      374    13351    6               AS_USERS.MDO(MODE) = VAL;

  13351  3 001066   200012 235100                    LDA     VAL,,AUTO
         3 001067   200007 720100                    LXL0    MODE,,AUTO
         3 001070   000046 755010 xsym               STA     AS_USERS+38,X0

      375    13352    6               AS_MOD_USER.LIMITS.DO_A.MDO(MODE) = AS_TRUE;

  13352  3 001071   200007 236100                    LDQ     MODE,,AUTO
         3 001072   000001 736000                    QLS     1
         3 001073   003006 060400                    CSL     bolr='003'O
         3 001074   000000 000001 xsym               BDSC    AS_TRUE                  by=0,bit=0,n=1
         3 001075   000022 660001 xsym               BDSC    AS_MOD_USER+18,Q         by=3,bit=6,n=1
         3 001076   001727 710000 3                  TRA     s:13572

      376    13353                                                              /**/
      377    13354    6               SELECT( 73 /* DDO */ ) ;

      378    13355    6               CALL CHECK_DEFAULT_MAX( 3, VAL, AS_USERS.MDO(MODE), DO_TEXTC );

  13355  3 001077   000023 236000 4                  LDQ     19
         3 001100   200036 756100                    STQ     @MAX+1,,AUTO
         3 001101   200007 721100                    LXL1    MODE,,AUTO
         3 001102   000046 631411 xsym               EPPR1   AS_USERS+38,X1
         3 001103   200035 451500                    STP1    @PROJECT_MAX+1,,AUTO
         3 001104   200012 633500                    EPPR3   VAL,,AUTO
         3 001105   200034 453500                    STP3    @TYPE+1,,AUTO
         3 001106   000022 236000 4                  LDQ     18
PL6.E3A0      #001=ASC$LIMITS File=ASC$LIMITS.:E05TSI                            TUE 07/29/97 09:35 Page:83
         3 001107   200033 756100                    STQ     TOTAL+4,,AUTO
         3 001110   002717 701000 3                  TSX1    CHECK_DEFAULT_MAX
         3 001111   000000 011000                    NOP     0

      379    13356    6               AS_USERS.DDO(MODE) = VAL;

  13356  3 001112   200012 235100                    LDA     VAL,,AUTO
         3 001113   200007 720100                    LXL0    MODE,,AUTO
         3 001114   000052 755010 xsym               STA     AS_USERS+42,X0

      380    13357    6               AS_MOD_USER.LIMITS.DO_A.DDO(MODE) = AS_TRUE;

  13357  3 001115   200007 236100                    LDQ     MODE,,AUTO
         3 001116   000001 736000                    QLS     1
         3 001117   003006 060400                    CSL     bolr='003'O
         3 001120   000000 000001 xsym               BDSC    AS_TRUE                  by=0,bit=0,n=1
         3 001121   000022 670001 xsym               BDSC    AS_MOD_USER+18,Q         by=3,bit=7,n=1
         3 001122   001727 710000 3                  TRA     s:13572

      381    13358                                                              /**/
      382    13359    6               SELECT( 70 /* MPO */ );

      383    13360    6               IF AS_CR_MOD_PROJ > 0 THEN

  13360  3 001123   000000 235000 xsym               LDA     AS_CR_MOD_PROJ
         3 001124   001140 604400 3                  TMOZ    s:13362

      384    13361    6                  CALL CHECK_PROJ_MAX( 3, AS_DFLT.MPO(MODE), VAL, PO_TEXTC );

  13361  3 001125   000024 236000 4                  LDQ     20
         3 001126   200036 756100                    STQ     @MAX+1,,AUTO
         3 001127   200012 631500                    EPPR1   VAL,,AUTO
         3 001130   200035 451500                    STP1    @PROJECT_MAX+1,,AUTO
         3 001131   200007 721100                    LXL1    MODE,,AUTO
         3 001132   000056 633411 xsym               EPPR3   AS_DFLT+46,X1
         3 001133   200034 453500                    STP3    @TYPE+1,,AUTO
         3 001134   000022 236000 4                  LDQ     18
PL6.E3A0      #001=ASC$LIMITS File=ASC$LIMITS.:E05TSI                            TUE 07/29/97 09:35 Page:84
         3 001135   200033 756100                    STQ     TOTAL+4,,AUTO
         3 001136   003163 701000 3                  TSX1    CHECK_PROJ_MAX
         3 001137   000000 011000                    NOP     0

      385    13362    6               CALL CHECK_DEFAULT_MAX( 3, AS_USERS.DPO(MODE), VAL, PO_TEXTC );

  13362  3 001140   000024 236000 4                  LDQ     20
         3 001141   200036 756100                    STQ     @MAX+1,,AUTO
         3 001142   200012 630500                    EPPR0   VAL,,AUTO
         3 001143   200035 450500                    STP0    @PROJECT_MAX+1,,AUTO
         3 001144   200007 720100                    LXL0    MODE,,AUTO
         3 001145   000062 631410 xsym               EPPR1   AS_USERS+50,X0
         3 001146   200034 451500                    STP1    @TYPE+1,,AUTO
         3 001147   000022 236000 4                  LDQ     18
         3 001150   200033 756100                    STQ     TOTAL+4,,AUTO
         3 001151   002717 701000 3                  TSX1    CHECK_DEFAULT_MAX
         3 001152   000000 011000                    NOP     0

      386    13363    6               AS_USERS.MPO(MODE) = VAL;

  13363  3 001153   200012 235100                    LDA     VAL,,AUTO
         3 001154   200007 720100                    LXL0    MODE,,AUTO
         3 001155   000056 755010 xsym               STA     AS_USERS+46,X0

      387    13364    6               AS_MOD_USER.LIMITS.PO_A.MPO(MODE) = AS_TRUE;

  13364  3 001156   200007 236100                    LDQ     MODE,,AUTO
         3 001157   000001 736000                    QLS     1
         3 001160   003006 060400                    CSL     bolr='003'O
         3 001161   000000 000001 xsym               BDSC    AS_TRUE                  by=0,bit=0,n=1
         3 001162   000023 050001 xsym               BDSC    AS_MOD_USER+19,Q         by=0,bit=5,n=1
         3 001163   001727 710000 3                  TRA     s:13572

      388    13365                                                              /**/
      389    13366    6               SELECT( 71 /* DPO */ ) ;

      390    13367    6               CALL CHECK_DEFAULT_MAX( 3, VAL, AS_USERS.MPO(MODE), PO_TEXTC );
PL6.E3A0      #001=ASC$LIMITS File=ASC$LIMITS.:E05TSI                            TUE 07/29/97 09:35 Page:85

  13367  3 001164   000024 236000 4                  LDQ     20
         3 001165   200036 756100                    STQ     @MAX+1,,AUTO
         3 001166   200007 721100                    LXL1    MODE,,AUTO
         3 001167   000056 631411 xsym               EPPR1   AS_USERS+46,X1
         3 001170   200035 451500                    STP1    @PROJECT_MAX+1,,AUTO
         3 001171   200012 633500                    EPPR3   VAL,,AUTO
         3 001172   200034 453500                    STP3    @TYPE+1,,AUTO
         3 001173   000022 236000 4                  LDQ     18
         3 001174   200033 756100                    STQ     TOTAL+4,,AUTO
         3 001175   002717 701000 3                  TSX1    CHECK_DEFAULT_MAX
         3 001176   000000 011000                    NOP     0

      391    13368    6               AS_USERS.DPO(MODE) = VAL;

  13368  3 001177   200012 235100                    LDA     VAL,,AUTO
         3 001200   200007 720100                    LXL0    MODE,,AUTO
         3 001201   000062 755010 xsym               STA     AS_USERS+50,X0

      392    13369    6               AS_MOD_USER.LIMITS.PO_A.DPO(MODE) = AS_TRUE;

  13369  3 001202   200007 236100                    LDQ     MODE,,AUTO
         3 001203   000001 736000                    QLS     1
         3 001204   003006 060400                    CSL     bolr='003'O
         3 001205   000000 000001 xsym               BDSC    AS_TRUE                  by=0,bit=0,n=1
         3 001206   000023 060001 xsym               BDSC    AS_MOD_USER+19,Q         by=0,bit=6,n=1
         3 001207   001727 710000 3                  TRA     s:13572

      393    13370                                                              /**/
      394    13371    6               SELECT( 76 /* MPDIS */ ) ;

      395    13372    6               IF AS_CR_MOD_PROJ > 0 THEN

  13372  3 001210   000000 235000 xsym               LDA     AS_CR_MOD_PROJ
         3 001211   001225 604400 3                  TMOZ    s:13374

      396    13373    6                  CALL CHECK_PROJ_MAX( 3, AS_DFLT.MPDIS(MODE), VAL, PDIS_TEXTC );
PL6.E3A0      #001=ASC$LIMITS File=ASC$LIMITS.:E05TSI                            TUE 07/29/97 09:35 Page:86

  13373  3 001212   000025 236000 4                  LDQ     21
         3 001213   200036 756100                    STQ     @MAX+1,,AUTO
         3 001214   200012 631500                    EPPR1   VAL,,AUTO
         3 001215   200035 451500                    STP1    @PROJECT_MAX+1,,AUTO
         3 001216   200007 721100                    LXL1    MODE,,AUTO
         3 001217   000066 633411 xsym               EPPR3   AS_DFLT+54,X1
         3 001220   200034 453500                    STP3    @TYPE+1,,AUTO
         3 001221   000022 236000 4                  LDQ     18
         3 001222   200033 756100                    STQ     TOTAL+4,,AUTO
         3 001223   003163 701000 3                  TSX1    CHECK_PROJ_MAX
         3 001224   000000 011000                    NOP     0

      397    13374    6               CALL CHECK_DEFAULT_MAX( 3, AS_USERS.DPDIS(MODE), VAL, PDIS_TEXTC );

  13374  3 001225   000025 236000 4                  LDQ     21
         3 001226   200036 756100                    STQ     @MAX+1,,AUTO
         3 001227   200012 630500                    EPPR0   VAL,,AUTO
         3 001230   200035 450500                    STP0    @PROJECT_MAX+1,,AUTO
         3 001231   200007 720100                    LXL0    MODE,,AUTO
         3 001232   000072 631410 xsym               EPPR1   AS_USERS+58,X0
         3 001233   200034 451500                    STP1    @TYPE+1,,AUTO
         3 001234   000022 236000 4                  LDQ     18
         3 001235   200033 756100                    STQ     TOTAL+4,,AUTO
         3 001236   002717 701000 3                  TSX1    CHECK_DEFAULT_MAX
         3 001237   000000 011000                    NOP     0

      398    13375    6               AS_USERS.MPDIS(MODE) = VAL;

  13375  3 001240   200012 235100                    LDA     VAL,,AUTO
         3 001241   200007 720100                    LXL0    MODE,,AUTO
         3 001242   000066 755010 xsym               STA     AS_USERS+54,X0

      399    13376    6               AS_MOD_USER.LIMITS.PDIS_A.MPDIS(MODE) = AS_TRUE;

  13376  3 001243   200007 236100                    LDQ     MODE,,AUTO
         3 001244   000001 736000                    QLS     1
PL6.E3A0      #001=ASC$LIMITS File=ASC$LIMITS.:E05TSI                            TUE 07/29/97 09:35 Page:87
         3 001245   003006 060400                    CSL     bolr='003'O
         3 001246   000000 000001 xsym               BDSC    AS_TRUE                  by=0,bit=0,n=1
         3 001247   000023 240001 xsym               BDSC    AS_MOD_USER+19,Q         by=1,bit=4,n=1
         3 001250   001727 710000 3                  TRA     s:13572

      400    13377                                                              /**/
      401    13378    6               SELECT( 77 /* DPDIS */ ) ;

      402    13379    6               CALL CHECK_DEFAULT_MAX( 3, VAL, AS_USERS.MPDIS(MODE), PDIS_TEXTC );

  13379  3 001251   000025 236000 4                  LDQ     21
         3 001252   200036 756100                    STQ     @MAX+1,,AUTO
         3 001253   200007 721100                    LXL1    MODE,,AUTO
         3 001254   000066 631411 xsym               EPPR1   AS_USERS+54,X1
         3 001255   200035 451500                    STP1    @PROJECT_MAX+1,,AUTO
         3 001256   200012 633500                    EPPR3   VAL,,AUTO
         3 001257   200034 453500                    STP3    @TYPE+1,,AUTO
         3 001260   000022 236000 4                  LDQ     18
         3 001261   200033 756100                    STQ     TOTAL+4,,AUTO
         3 001262   002717 701000 3                  TSX1    CHECK_DEFAULT_MAX
         3 001263   000000 011000                    NOP     0

      403    13380    6               AS_USERS.DPDIS(MODE) = VAL;

  13380  3 001264   200012 235100                    LDA     VAL,,AUTO
         3 001265   200007 720100                    LXL0    MODE,,AUTO
         3 001266   000072 755010 xsym               STA     AS_USERS+58,X0

      404    13381    6               AS_MOD_USER.LIMITS.PDIS_A.DPDIS(MODE) = AS_TRUE;

  13381  3 001267   200007 236100                    LDQ     MODE,,AUTO
         3 001270   000001 736000                    QLS     1
         3 001271   003006 060400                    CSL     bolr='003'O
         3 001272   000000 000001 xsym               BDSC    AS_TRUE                  by=0,bit=0,n=1
         3 001273   000023 250001 xsym               BDSC    AS_MOD_USER+19,Q         by=1,bit=5,n=1
         3 001274   001727 710000 3                  TRA     s:13572

PL6.E3A0      #001=ASC$LIMITS File=ASC$LIMITS.:E05TSI                            TUE 07/29/97 09:35 Page:88
      405    13382                                                              /**/
      406    13383    6               SELECT( 74 /* MTDIS */ ) ;

      407    13384    6               IF AS_CR_MOD_PROJ > 0 THEN

  13384  3 001275   000000 235000 xsym               LDA     AS_CR_MOD_PROJ
         3 001276   001312 604400 3                  TMOZ    s:13386

      408    13385    6                  CALL CHECK_PROJ_MAX( 3, AS_DFLT.MTDIS(MODE), VAL, TDIS_TEXTC );

  13385  3 001277   000026 236000 4                  LDQ     22
         3 001300   200036 756100                    STQ     @MAX+1,,AUTO
         3 001301   200012 631500                    EPPR1   VAL,,AUTO
         3 001302   200035 451500                    STP1    @PROJECT_MAX+1,,AUTO
         3 001303   200007 721100                    LXL1    MODE,,AUTO
         3 001304   000076 633411 xsym               EPPR3   AS_DFLT+62,X1
         3 001305   200034 453500                    STP3    @TYPE+1,,AUTO
         3 001306   000022 236000 4                  LDQ     18
         3 001307   200033 756100                    STQ     TOTAL+4,,AUTO
         3 001310   003163 701000 3                  TSX1    CHECK_PROJ_MAX
         3 001311   000000 011000                    NOP     0

      409    13386    6               CALL CHECK_DEFAULT_MAX( 3, AS_USERS.DTDIS(MODE), VAL, TDIS_TEXTC );

  13386  3 001312   000026 236000 4                  LDQ     22
         3 001313   200036 756100                    STQ     @MAX+1,,AUTO
         3 001314   200012 630500                    EPPR0   VAL,,AUTO
         3 001315   200035 450500                    STP0    @PROJECT_MAX+1,,AUTO
         3 001316   200007 720100                    LXL0    MODE,,AUTO
         3 001317   000102 631410 xsym               EPPR1   AS_USERS+66,X0
         3 001320   200034 451500                    STP1    @TYPE+1,,AUTO
         3 001321   000022 236000 4                  LDQ     18
         3 001322   200033 756100                    STQ     TOTAL+4,,AUTO
         3 001323   002717 701000 3                  TSX1    CHECK_DEFAULT_MAX
         3 001324   000000 011000                    NOP     0

      410    13387    6               AS_USERS.MTDIS(MODE) = VAL;
PL6.E3A0      #001=ASC$LIMITS File=ASC$LIMITS.:E05TSI                            TUE 07/29/97 09:35 Page:89

  13387  3 001325   200012 235100                    LDA     VAL,,AUTO
         3 001326   200007 720100                    LXL0    MODE,,AUTO
         3 001327   000076 755010 xsym               STA     AS_USERS+62,X0

      411    13388    6               AS_MOD_USER.LIMITS.TDIS_A.MTDIS(MODE) = AS_TRUE;

  13388  3 001330   200007 236100                    LDQ     MODE,,AUTO
         3 001331   000001 736000                    QLS     1
         3 001332   003006 060400                    CSL     bolr='003'O
         3 001333   000000 000001 xsym               BDSC    AS_TRUE                  by=0,bit=0,n=1
         3 001334   000023 430001 xsym               BDSC    AS_MOD_USER+19,Q         by=2,bit=3,n=1
         3 001335   001727 710000 3                  TRA     s:13572

      412    13389                                                              /**/
      413    13390    6               SELECT( 75 /* DTDIS */ ) ;

      414    13391    6               CALL CHECK_DEFAULT_MAX( 3, VAL, AS_USERS.MTDIS(MODE), TDIS_TEXTC );

  13391  3 001336   000026 236000 4                  LDQ     22
         3 001337   200036 756100                    STQ     @MAX+1,,AUTO
         3 001340   200007 721100                    LXL1    MODE,,AUTO
         3 001341   000076 631411 xsym               EPPR1   AS_USERS+62,X1
         3 001342   200035 451500                    STP1    @PROJECT_MAX+1,,AUTO
         3 001343   200012 633500                    EPPR3   VAL,,AUTO
         3 001344   200034 453500                    STP3    @TYPE+1,,AUTO
         3 001345   000022 236000 4                  LDQ     18
         3 001346   200033 756100                    STQ     TOTAL+4,,AUTO
         3 001347   002717 701000 3                  TSX1    CHECK_DEFAULT_MAX
         3 001350   000000 011000                    NOP     0

      415    13392    6               AS_USERS.DTDIS(MODE) = VAL;

  13392  3 001351   200012 235100                    LDA     VAL,,AUTO
         3 001352   200007 720100                    LXL0    MODE,,AUTO
         3 001353   000102 755010 xsym               STA     AS_USERS+66,X0

PL6.E3A0      #001=ASC$LIMITS File=ASC$LIMITS.:E05TSI                            TUE 07/29/97 09:35 Page:90
      416    13393    6               AS_MOD_USER.LIMITS.TDIS_A.DTDIS(MODE) = AS_TRUE;

  13393  3 001354   200007 236100                    LDQ     MODE,,AUTO
         3 001355   000001 736000                    QLS     1
         3 001356   003006 060400                    CSL     bolr='003'O
         3 001357   000000 000001 xsym               BDSC    AS_TRUE                  by=0,bit=0,n=1
         3 001360   000023 440001 xsym               BDSC    AS_MOD_USER+19,Q         by=2,bit=4,n=1
         3 001361   001727 710000 3                  TRA     s:13572

      417    13394                                                              /**/
      418    13395    6               SELECT( 78 /* MFPOOLS */ ) ;

      419    13396    6               IF VAL > 31

  13396  3 001362   200012 235100                    LDA     VAL,,AUTO
         3 001363   000037 115007                    CMPA    31,DL
         3 001364   001403 604400 3                  TMOZ    s:13421

      420    13397    7               THEN DO;

      421    13398        /*E*  ERROR:      ASC-E$FPOOLS_TOO_BIG-C
      422    13399              MESSAGE:    %U1 %U2 FPOOLS value too large.  Set to 31.
      423    13400              MESSAGE1:   %U1 %U2 FPOOLS can be at most 31.  %U1 %U2 FPOOLS set to 31.
      424    13401        */
      425    13402    7                  AS_FIELD1 = MAXIMUM_TEXTC;

  13402  3 001365   000000 100400                    MLR     fill='000'O
         3 001366   000014 000010 2                  ADSC9   MAXIMUM_TEXTC            cn=0,n=8
         3 001367   000000 000051 xsym               ADSC9   AS_FIELD1                cn=0,n=41

      426    13403    7                  AS_FIELD2 = AS_MODE_ARRY(MODE);

  13403  3 001370   200007 236100                    LDQ     MODE,,AUTO
         3 001371   000007 402007                    MPY     7,DL
         3 001372   000000 100406                    MLR     fill='000'O
         3 001373   000000 000007 xsym               ADSC9   AS_MODE,Q                cn=0,n=7
         3 001374   000000 000051 xsym               ADSC9   AS_FIELD2                cn=0,n=41
PL6.E3A0      #001=ASC$LIMITS File=ASC$LIMITS.:E05TSI                            TUE 07/29/97 09:35 Page:91

      427    13404                       %SCREAM( ERR#=E$FPOOLS_TOO_BIG, LEVEL=ERROR, MID='C' );

  13416  3 001375   000027 630400 4                  EPPR0   23
         3 001376   000017 631400 xsym               EPPR1   B_VECTNIL+15
         3 001377   000000 701000 xent               TSX1    ASH$ERROR
         3 001400   000000 011000                    NOP     0

      428    13419    7                  VAL = 31;

  13419  3 001401   000037 235007                    LDA     31,DL
         3 001402   200012 755100                    STA     VAL,,AUTO

      429    13420    7                  END;

      430    13421    6               IF VAL < 5

  13421  3 001403   000005 115007                    CMPA    5,DL
         3 001404   001423 605000 3                  TPL     s:13446

      431    13422    7               THEN DO;

      432    13423        /*E*  ERROR:      ASC-E$FPOOLS_TOO_SMALL-C
      433    13424              MESSAGE:    %U1 %U2 FPOOLS too small.  Set to 5.
      434    13425              MESSAGE1:   %U1 %U2 FPOOLS must be at least 5.  %U1 %U2 FPOOLS set to 5.
      435    13426        */
      436    13427    7                  AS_FIELD1 = MAXIMUM_TEXTC;

  13427  3 001405   000000 100400                    MLR     fill='000'O
         3 001406   000014 000010 2                  ADSC9   MAXIMUM_TEXTC            cn=0,n=8
         3 001407   000000 000051 xsym               ADSC9   AS_FIELD1                cn=0,n=41

      437    13428    7                  AS_FIELD2 = AS_MODE_ARRY(MODE);

  13428  3 001410   200007 236100                    LDQ     MODE,,AUTO
         3 001411   000007 402007                    MPY     7,DL
         3 001412   000000 100406                    MLR     fill='000'O
PL6.E3A0      #001=ASC$LIMITS File=ASC$LIMITS.:E05TSI                            TUE 07/29/97 09:35 Page:92
         3 001413   000000 000007 xsym               ADSC9   AS_MODE,Q                cn=0,n=7
         3 001414   000000 000051 xsym               ADSC9   AS_FIELD2                cn=0,n=41

      438    13429                       %SCREAM( ERR#=E$FPOOLS_TOO_SMALL, MID='C',LEVEL=ERROR);

  13441  3 001415   000030 630400 4                  EPPR0   24
         3 001416   000017 631400 xsym               EPPR1   B_VECTNIL+15
         3 001417   000000 701000 xent               TSX1    ASH$ERROR
         3 001420   000000 011000                    NOP     0

      439    13444    7                  VAL = 5;

  13444  3 001421   000005 235007                    LDA     5,DL
         3 001422   200012 755100                    STA     VAL,,AUTO

      440    13445    7                  END;

      441    13446    6               IF AS_CR_MOD_PROJ > 0

  13446  3 001423   000000 236000 xsym               LDQ     AS_CR_MOD_PROJ
         3 001424   001443 604400 3                  TMOZ    s:13451

      442    13447    7               THEN DO;

      443    13448    7                  PROJ_MAX = AS_DFLT.MFPOOLS(MODE);

  13448  3 001425   200007 235100                    LDA     MODE,,AUTO
         3 001426   000100 101405                    MRL     fill='000'O
         3 001427   000106 000001 xsym               ADSC9   AS_DFLT+70,A             cn=0,n=1
         3 001430   200024 000004                    ADSC9   PROJ_MAX,,AUTO           cn=0,n=4

      444    13449    7                  CALL CHECK_PROJ_MAX( 3, PROJ_MAX, VAL, FPOOLS_TEXTC );

  13449  3 001431   000031 236000 4                  LDQ     25
         3 001432   200036 756100                    STQ     @MAX+1,,AUTO
         3 001433   200012 630500                    EPPR0   VAL,,AUTO
         3 001434   200035 450500                    STP0    @PROJECT_MAX+1,,AUTO
PL6.E3A0      #001=ASC$LIMITS File=ASC$LIMITS.:E05TSI                            TUE 07/29/97 09:35 Page:93
         3 001435   200024 631500                    EPPR1   PROJ_MAX,,AUTO
         3 001436   200034 451500                    STP1    @TYPE+1,,AUTO
         3 001437   000022 236000 4                  LDQ     18
         3 001440   200033 756100                    STQ     TOTAL+4,,AUTO
         3 001441   003163 701000 3                  TSX1    CHECK_PROJ_MAX
         3 001442   000000 011000                    NOP     0

      445    13450    7                  END;

      446    13451    6               DEFAULT = AS_USERS.DFPOOLS(MODE);

  13451  3 001443   200007 235100                    LDA     MODE,,AUTO
         3 001444   000100 101405                    MRL     fill='000'O
         3 001445   000107 000001 xsym               ADSC9   AS_USERS+71,A            cn=0,n=1
         3 001446   200026 000004                    ADSC9   DEFAULT,,AUTO            cn=0,n=4

      447    13452    6               CALL CHECK_DEFAULT_MAX( 3, DEFAULT, VAL, FPOOLS_TEXTC );

  13452  3 001447   000031 236000 4                  LDQ     25
         3 001450   200036 756100                    STQ     @MAX+1,,AUTO
         3 001451   200012 630500                    EPPR0   VAL,,AUTO
         3 001452   200035 450500                    STP0    @PROJECT_MAX+1,,AUTO
         3 001453   200026 631500                    EPPR1   DEFAULT,,AUTO
         3 001454   200034 451500                    STP1    @TYPE+1,,AUTO
         3 001455   000022 236000 4                  LDQ     18
         3 001456   200033 756100                    STQ     TOTAL+4,,AUTO
         3 001457   002717 701000 3                  TSX1    CHECK_DEFAULT_MAX
         3 001460   000000 011000                    NOP     0

      448    13453    6               AS_USERS.MFPOOLS(MODE) = VAL;

  13453  3 001461   200007 235100                    LDA     MODE,,AUTO
         3 001462   000005 101500                    MRL     fill='000'O
         3 001463   200012 000004                    ADSC9   VAL,,AUTO                cn=0,n=4
         3 001464   000106 000001 xsym               ADSC9   AS_USERS+70,A            cn=0,n=1

      449    13454    6               AS_USERS.DFPOOLS(MODE) = DEFAULT;
PL6.E3A0      #001=ASC$LIMITS File=ASC$LIMITS.:E05TSI                            TUE 07/29/97 09:35 Page:94

  13454  3 001465   000005 101500                    MRL     fill='000'O
         3 001466   200026 000004                    ADSC9   DEFAULT,,AUTO            cn=0,n=4
         3 001467   000107 000001 xsym               ADSC9   AS_USERS+71,A            cn=0,n=1

      450    13455    6               AS_MOD_USER.LIMITS.FPOOLS_A.MFPOOLS(MODE) = AS_TRUE;

  13455  3 001470   000001 735000                    ALS     1
         3 001471   003005 060400                    CSL     bolr='003'O
         3 001472   000000 000001 xsym               BDSC    AS_TRUE                  by=0,bit=0,n=1
         3 001473   000023 620001 xsym               BDSC    AS_MOD_USER+19,A         by=3,bit=2,n=1
         3 001474   001727 710000 3                  TRA     s:13572

      451    13456                                                              /**/
      452    13457    6               SELECT( 79 /* DFPOOLS */ ) ;

      453    13458    6               MAX = AS_USERS.MFPOOLS(MODE);

  13458  3 001475   200007 235100                    LDA     MODE,,AUTO
         3 001476   000100 101405                    MRL     fill='000'O
         3 001477   000106 000001 xsym               ADSC9   AS_USERS+70,A            cn=0,n=1
         3 001500   200025 000004                    ADSC9   MAX,,AUTO                cn=0,n=4

      454    13459    6               IF VAL > 31

  13459  3 001501   200012 235100                    LDA     VAL,,AUTO
         3 001502   000037 115007                    CMPA    31,DL
         3 001503   001522 604400 3                  TMOZ    s:13480

      455    13460    7               THEN DO;

      456    13461    7                  AS_FIELD1 = DEFAULT_TEXTC;

  13461  3 001504   000000 100400                    MLR     fill='000'O
         3 001505   000016 000010 2                  ADSC9   DEFAULT_TEXTC            cn=0,n=8
         3 001506   000000 000051 xsym               ADSC9   AS_FIELD1                cn=0,n=41

PL6.E3A0      #001=ASC$LIMITS File=ASC$LIMITS.:E05TSI                            TUE 07/29/97 09:35 Page:95
      457    13462    7                  AS_FIELD2 = AS_MODE_ARRY(MODE);

  13462  3 001507   200007 236100                    LDQ     MODE,,AUTO
         3 001510   000007 402007                    MPY     7,DL
         3 001511   000000 100406                    MLR     fill='000'O
         3 001512   000000 000007 xsym               ADSC9   AS_MODE,Q                cn=0,n=7
         3 001513   000000 000051 xsym               ADSC9   AS_FIELD2                cn=0,n=41

      458    13463                       %SCREAM( ERR#=E$FPOOLS_TOO_BIG, LEVEL=ERROR, MID='C' );

  13475  3 001514   000027 630400 4                  EPPR0   23
         3 001515   000017 631400 xsym               EPPR1   B_VECTNIL+15
         3 001516   000000 701000 xent               TSX1    ASH$ERROR
         3 001517   000000 011000                    NOP     0

      459    13478    7                  VAL = 31;

  13478  3 001520   000037 235007                    LDA     31,DL
         3 001521   200012 755100                    STA     VAL,,AUTO

      460    13479    7                  END;

      461    13480    6               IF VAL < 5

  13480  3 001522   000005 115007                    CMPA    5,DL
         3 001523   001542 605000 3                  TPL     s:13501

      462    13481    7               THEN DO;

      463    13482    7                  AS_FIELD1 = DEFAULT_TEXTC;

  13482  3 001524   000000 100400                    MLR     fill='000'O
         3 001525   000016 000010 2                  ADSC9   DEFAULT_TEXTC            cn=0,n=8
         3 001526   000000 000051 xsym               ADSC9   AS_FIELD1                cn=0,n=41

      464    13483    7                  AS_FIELD2 = AS_MODE_ARRY(MODE);

PL6.E3A0      #001=ASC$LIMITS File=ASC$LIMITS.:E05TSI                            TUE 07/29/97 09:35 Page:96
  13483  3 001527   200007 236100                    LDQ     MODE,,AUTO
         3 001530   000007 402007                    MPY     7,DL
         3 001531   000000 100406                    MLR     fill='000'O
         3 001532   000000 000007 xsym               ADSC9   AS_MODE,Q                cn=0,n=7
         3 001533   000000 000051 xsym               ADSC9   AS_FIELD2                cn=0,n=41

      465    13484                       %SCREAM( ERR#=E$FPOOLS_TOO_SMALL, MID='C',LEVEL=ERROR);

  13496  3 001534   000030 630400 4                  EPPR0   24
         3 001535   000017 631400 xsym               EPPR1   B_VECTNIL+15
         3 001536   000000 701000 xent               TSX1    ASH$ERROR
         3 001537   000000 011000                    NOP     0

      466    13499    7                  VAL = 5;

  13499  3 001540   000005 235007                    LDA     5,DL
         3 001541   200012 755100                    STA     VAL,,AUTO

      467    13500    7                  END;

      468    13501    6               CALL CHECK_DEFAULT_MAX( 3, VAL, MAX, FPOOLS_TEXTC );

  13501  3 001542   000031 236000 4                  LDQ     25
         3 001543   200036 756100                    STQ     @MAX+1,,AUTO
         3 001544   200025 630500                    EPPR0   MAX,,AUTO
         3 001545   200035 450500                    STP0    @PROJECT_MAX+1,,AUTO
         3 001546   200012 631500                    EPPR1   VAL,,AUTO
         3 001547   200034 451500                    STP1    @TYPE+1,,AUTO
         3 001550   000022 236000 4                  LDQ     18
         3 001551   200033 756100                    STQ     TOTAL+4,,AUTO
         3 001552   002717 701000 3                  TSX1    CHECK_DEFAULT_MAX
         3 001553   000000 011000                    NOP     0

      469    13502    6               AS_USERS.DFPOOLS(MODE) = VAL;

  13502  3 001554   200007 235100                    LDA     MODE,,AUTO
         3 001555   000005 101500                    MRL     fill='000'O
PL6.E3A0      #001=ASC$LIMITS File=ASC$LIMITS.:E05TSI                            TUE 07/29/97 09:35 Page:97
         3 001556   200012 000004                    ADSC9   VAL,,AUTO                cn=0,n=4
         3 001557   000107 000001 xsym               ADSC9   AS_USERS+71,A            cn=0,n=1

      470    13503    6               AS_MOD_USER.LIMITS.FPOOLS_A.DFPOOLS(MODE) = AS_TRUE;

  13503  3 001560   000001 735000                    ALS     1
         3 001561   003005 060400                    CSL     bolr='003'O
         3 001562   000000 000001 xsym               BDSC    AS_TRUE                  by=0,bit=0,n=1
         3 001563   000023 630001 xsym               BDSC    AS_MOD_USER+19,A         by=3,bit=3,n=1
         3 001564   001727 710000 3                  TRA     s:13572

      471    13504                                                              /**/
      472    13505    6               SELECT( 80 /* MMAXJOBPRIO */ ) ;

      473    13506    6               IF VAL > 15

  13506  3 001565   200012 235100                    LDA     VAL,,AUTO
         3 001566   000017 115007                    CMPA    15,DL
         3 001567   001606 604400 3                  TMOZ    s:13532

      474    13507    7               THEN DO;

      475    13508        /*E*  ERROR:      ASC-E$MAXJOBPRIO_TOO_BIG-C
      476    13509              MESSAGE:    %U1 %U2 MAXJOBPRIO value too large.  Set to 15.
      477    13510              MESSAGE1:   %U1 %U2 MAXJOBPRIO can be at most 15.
      478    13511                          %U1 %U2 MAXJOBPRIO set to 15.
      479    13512        */
      480    13513    7                  AS_FIELD1 = MAXIMUM_TEXTC;

  13513  3 001570   000000 100400                    MLR     fill='000'O
         3 001571   000014 000010 2                  ADSC9   MAXIMUM_TEXTC            cn=0,n=8
         3 001572   000000 000051 xsym               ADSC9   AS_FIELD1                cn=0,n=41

      481    13514    7                  AS_FIELD2 = AS_MODE_ARRY(MODE);

  13514  3 001573   200007 236100                    LDQ     MODE,,AUTO
         3 001574   000007 402007                    MPY     7,DL
PL6.E3A0      #001=ASC$LIMITS File=ASC$LIMITS.:E05TSI                            TUE 07/29/97 09:35 Page:98
         3 001575   000000 100406                    MLR     fill='000'O
         3 001576   000000 000007 xsym               ADSC9   AS_MODE,Q                cn=0,n=7
         3 001577   000000 000051 xsym               ADSC9   AS_FIELD2                cn=0,n=41

      482    13515                       %SCREAM( ERR#=E$MAXJOBPRIO_TOO_BIG, LEVEL=ERROR, MID='C' );

  13527  3 001600   000032 630400 4                  EPPR0   26
         3 001601   000017 631400 xsym               EPPR1   B_VECTNIL+15
         3 001602   000000 701000 xent               TSX1    ASH$ERROR
         3 001603   000000 011000                    NOP     0

      483    13530    7                  VAL = 15;

  13530  3 001604   000017 235007                    LDA     15,DL
         3 001605   200012 755100                    STA     VAL,,AUTO

      484    13531    7                  END;

      485    13532    6               IF AS_CR_MOD_PROJ > 0

  13532  3 001606   000000 236000 xsym               LDQ     AS_CR_MOD_PROJ
         3 001607   001626 604400 3                  TMOZ    s:13537

      486    13533    7               THEN DO;

      487    13534    7                  PROJ_MAX = AS_DFLT.MMPRIO(MODE);

  13534  3 001610   200007 235100                    LDA     MODE,,AUTO
         3 001611   000100 101405                    MRL     fill='000'O
         3 001612   000110 000001 xsym               ADSC9   AS_DFLT+72,A             cn=0,n=1
         3 001613   200024 000004                    ADSC9   PROJ_MAX,,AUTO           cn=0,n=4

      488    13535    7                  CALL CHECK_PROJ_MAX( 3, PROJ_MAX, VAL, MAXJOBPRIO_TEXTC );

  13535  3 001614   000033 236000 4                  LDQ     27
         3 001615   200036 756100                    STQ     @MAX+1,,AUTO
         3 001616   200012 630500                    EPPR0   VAL,,AUTO
PL6.E3A0      #001=ASC$LIMITS File=ASC$LIMITS.:E05TSI                            TUE 07/29/97 09:35 Page:99
         3 001617   200035 450500                    STP0    @PROJECT_MAX+1,,AUTO
         3 001620   200024 631500                    EPPR1   PROJ_MAX,,AUTO
         3 001621   200034 451500                    STP1    @TYPE+1,,AUTO
         3 001622   000022 236000 4                  LDQ     18
         3 001623   200033 756100                    STQ     TOTAL+4,,AUTO
         3 001624   003163 701000 3                  TSX1    CHECK_PROJ_MAX
         3 001625   000000 011000                    NOP     0

      489    13536    7                  END;

      490    13537    6               DEFAULT = AS_USERS.DMPRIO(MODE);

  13537  3 001626   200007 235100                    LDA     MODE,,AUTO
         3 001627   000100 101405                    MRL     fill='000'O
         3 001630   000111 000001 xsym               ADSC9   AS_USERS+73,A            cn=0,n=1
         3 001631   200026 000004                    ADSC9   DEFAULT,,AUTO            cn=0,n=4

      491    13538    6               CALL CHECK_DEFAULT_MAX( 3, DEFAULT, VAL, MAXJOBPRIO_TEXTC );

  13538  3 001632   000033 236000 4                  LDQ     27
         3 001633   200036 756100                    STQ     @MAX+1,,AUTO
         3 001634   200012 630500                    EPPR0   VAL,,AUTO
         3 001635   200035 450500                    STP0    @PROJECT_MAX+1,,AUTO
         3 001636   200026 631500                    EPPR1   DEFAULT,,AUTO
         3 001637   200034 451500                    STP1    @TYPE+1,,AUTO
         3 001640   000022 236000 4                  LDQ     18
         3 001641   200033 756100                    STQ     TOTAL+4,,AUTO
         3 001642   002717 701000 3                  TSX1    CHECK_DEFAULT_MAX
         3 001643   000000 011000                    NOP     0

      492    13539    6               AS_USERS.MMPRIO(MODE) = VAL;

  13539  3 001644   200007 235100                    LDA     MODE,,AUTO
         3 001645   000005 101500                    MRL     fill='000'O
         3 001646   200012 000004                    ADSC9   VAL,,AUTO                cn=0,n=4
         3 001647   000110 000001 xsym               ADSC9   AS_USERS+72,A            cn=0,n=1

PL6.E3A0      #001=ASC$LIMITS File=ASC$LIMITS.:E05TSI                            TUE 07/29/97 09:35 Page:100
      493    13540    6               AS_USERS.DMPRIO(MODE) = DEFAULT;

  13540  3 001650   000005 101500                    MRL     fill='000'O
         3 001651   200026 000004                    ADSC9   DEFAULT,,AUTO            cn=0,n=4
         3 001652   000111 000001 xsym               ADSC9   AS_USERS+73,A            cn=0,n=1

      494    13541    6               AS_MOD_USER.LIMITS.MPRIO_A.MMPRIO(MODE) = AS_TRUE;

  13541  3 001653   000001 735000                    ALS     1
         3 001654   003005 060400                    CSL     bolr='003'O
         3 001655   000000 000001 xsym               BDSC    AS_TRUE                  by=0,bit=0,n=1
         3 001656   000024 010001 xsym               BDSC    AS_MOD_USER+20,A         by=0,bit=1,n=1
         3 001657   001727 710000 3                  TRA     s:13572

      495    13542                                                              /**/
      496    13543    6               SELECT( 81 /* DMAXJOBPRIO */ ) ;

      497    13544    6               MAX = AS_USERS.MMPRIO(MODE);

  13544  3 001660   200007 235100                    LDA     MODE,,AUTO
         3 001661   000100 101405                    MRL     fill='000'O
         3 001662   000110 000001 xsym               ADSC9   AS_USERS+72,A            cn=0,n=1
         3 001663   200025 000004                    ADSC9   MAX,,AUTO                cn=0,n=4

      498    13545    6               IF VAL > 15

  13545  3 001664   200012 235100                    LDA     VAL,,AUTO
         3 001665   000017 115007                    CMPA    15,DL
         3 001666   001705 604400 3                  TMOZ    s:13566

      499    13546    7               THEN DO;

      500    13547    7                  AS_FIELD1 = DEFAULT_TEXTC;

  13547  3 001667   000000 100400                    MLR     fill='000'O
         3 001670   000016 000010 2                  ADSC9   DEFAULT_TEXTC            cn=0,n=8
         3 001671   000000 000051 xsym               ADSC9   AS_FIELD1                cn=0,n=41
PL6.E3A0      #001=ASC$LIMITS File=ASC$LIMITS.:E05TSI                            TUE 07/29/97 09:35 Page:101

      501    13548    7                  AS_FIELD2 = AS_MODE_ARRY(MODE);

  13548  3 001672   200007 236100                    LDQ     MODE,,AUTO
         3 001673   000007 402007                    MPY     7,DL
         3 001674   000000 100406                    MLR     fill='000'O
         3 001675   000000 000007 xsym               ADSC9   AS_MODE,Q                cn=0,n=7
         3 001676   000000 000051 xsym               ADSC9   AS_FIELD2                cn=0,n=41

      502    13549                       %SCREAM( ERR#=E$MAXJOBPRIO_TOO_BIG, LEVEL=ERROR, MID='C' );

  13561  3 001677   000032 630400 4                  EPPR0   26
         3 001700   000017 631400 xsym               EPPR1   B_VECTNIL+15
         3 001701   000000 701000 xent               TSX1    ASH$ERROR
         3 001702   000000 011000                    NOP     0

      503    13564    7                  VAL = 15;

  13564  3 001703   000017 235007                    LDA     15,DL
         3 001704   200012 755100                    STA     VAL,,AUTO

      504    13565    7                  END;

      505    13566    6               CALL CHECK_DEFAULT_MAX( 3, VAL, MAX, MAXJOBPRIO_TEXTC );

  13566  3 001705   000033 236000 4                  LDQ     27
         3 001706   200036 756100                    STQ     @MAX+1,,AUTO
         3 001707   200025 630500                    EPPR0   MAX,,AUTO
         3 001710   200035 450500                    STP0    @PROJECT_MAX+1,,AUTO
         3 001711   200012 631500                    EPPR1   VAL,,AUTO
         3 001712   200034 451500                    STP1    @TYPE+1,,AUTO
         3 001713   000022 236000 4                  LDQ     18
         3 001714   200033 756100                    STQ     TOTAL+4,,AUTO
         3 001715   002717 701000 3                  TSX1    CHECK_DEFAULT_MAX
         3 001716   000000 011000                    NOP     0

      506    13567    6               AS_USERS.DMPRIO(MODE) = VAL;
PL6.E3A0      #001=ASC$LIMITS File=ASC$LIMITS.:E05TSI                            TUE 07/29/97 09:35 Page:102

  13567  3 001717   200007 235100                    LDA     MODE,,AUTO
         3 001720   000005 101500                    MRL     fill='000'O
         3 001721   200012 000004                    ADSC9   VAL,,AUTO                cn=0,n=4
         3 001722   000111 000001 xsym               ADSC9   AS_USERS+73,A            cn=0,n=1

      507    13568    6               AS_MOD_USER.LIMITS.MPRIO_A.DMPRIO(MODE) = AS_TRUE;

  13568  3 001723   000001 735000                    ALS     1
         3 001724   003005 060400                    CSL     bolr='003'O
         3 001725   000000 000001 xsym               BDSC    AS_TRUE                  by=0,bit=0,n=1
         3 001726   000024 020001 xsym               BDSC    AS_MOD_USER+20,A         by=0,bit=2,n=1

      508    13569                                                              /**/
      509    13570    6               END ; /* Do case( code ) */

      510    13571                                                              /**/
      511    13572    5            END; /* Do j */

  13572  3 001727   200006 235100                    LDA     J,,AUTO
         3 001730   000001 035007                    ADLA    1,DL
         3 001731   200006 755100                    STA     J,,AUTO
         3 001732   200006 236100                    LDQ     J,,AUTO
         3 001733   200011 116100                    CMPQ    SUBS,,AUTO
         3 001734   000654 602000 3                  TNC     s:13330

      512    13573                                                              /**/
      513    13574    4            END ; /* Do case( code ) */

      514    13575    3         END ; /* Do i */

  13575  3 001735   200005 235100                    LDA     I,,AUTO
         3 001736   000001 035007                    ADLA    1,DL
         3 001737   200005 755100                    STA     I,,AUTO
         3 001740   200005 236100                    LDQ     I,,AUTO
         3 001741   200010 116100                    CMPQ    SUBNDS,,AUTO
         3 001742   000555 602000 3                  TNC     s:13299
PL6.E3A0      #001=ASC$LIMITS File=ASC$LIMITS.:E05TSI                            TUE 07/29/97 09:35 Page:103

      515    13576    2      END ; /* Do while */

  13576  3 001743   200016 234100                    SZN     MORE,,AUTO
         3 001744   000527 604000 3                  TMI     s:13292

      516    13577                                                              /**/
      517    13578    1   RETURN ;

  13578  3 001745   000000 702200 xent               TSX2  ! X66_ARET

  13570  3 001746                       SERV_ERR     null
      518    13579                                                              /* Errors */
      519    13580    1   SERV_ERR: ;
      520    13581    1   ERR_CODE = P_PCB.ERROR ;

  13581  3 001746   000006 236000 xsym               LDQ     P_PCB+6
         3 001747   000000 756000 xsym               STQ     ERR_CODE

      521    13582    1   CALL ASH$ERROR( ERR_CODE ) ;

  13582  3 001750   000034 630400 4                  EPPR0   28
         3 001751   000017 631400 xsym               EPPR1   B_VECTNIL+15
         3 001752   000000 701000 xent               TSX1    ASH$ERROR
         3 001753   000000 011000                    NOP     0

      522    13583    1   GOTO SERV_LOOP ;

  13583  3 001754   000525 710000 3                  TRA     SERV_LOOP

      523    13584                                                              /**/
      524    13585        %EJECT ;
PL6.E3A0      #001=ASC$LIMITS File=ASC$LIMITS.:E05TSI                            TUE 07/29/97 09:35 Page:104
      525    13586    1   ASC$OUTPUTPRIO: ENTRY( SUBND$ );

  13586  3 001755   000000 700200 xent  ASC$OUTPUTP* TSX0  ! X66_AUTO_1
         3 001756   000046 000001                    ZERO    38,1

      526    13587
      527    13588        /*
      528    13589                  ***             Begin procedure             ***
      529    13590        */
      530    13591
      531    13592    1   BLK$ = SUBND$ -> P$NODE.SUBLK$(0);

  13592  3 001757   200003 470500                    LDP0    @SUBND$,,AUTO
         3 001760   000000 471500                    LDP1    0,,PR0
         3 001761   100003 236100                    LDQ     3,,PR1
         3 001762   200013 756100                    STQ     BLK$,,AUTO

      532    13593    1   CALL CHARBIN( VAL, OUT$SYM.TEXT );

  13593  3 001763   200013 473500                    LDP3    BLK$,,AUTO
         3 001764   300004 236100                    LDQ     4,,PR3
         3 001765   000033 772000                    QRL     27
         3 001766   000000 620006                    EAX0    0,QL
         3 001767   000100 305540                    DTB
         3 001770   300004 230010                    NDSC9   4,,PR3                   cn=1,s=nosgn,sf=0,n=*X0
         3 001771   200012 000004                    NDSC9   VAL,,AUTO                cn=0,s=lsgnf,sf=0,n=4

      533    13594    1   IF VAL < 1

  13594  3 001772   200012 235100                    LDA     VAL,,AUTO
         3 001773   002001 605400 3                  TPNZ    s:13617

      534    13595    2   THEN DO;

      535    13596        /*E*  ERROR:    ASC-E$OUTPUTPRIOTOOSMALL-C
      536    13597              MESSAGE0: OUTPUTPRIO too small.
      537    13598              MESSAGE1: OUTPUTPRIO must be between 1 and 14.
PL6.E3A0      #001=ASC$LIMITS File=ASC$LIMITS.:E05TSI                            TUE 07/29/97 09:35 Page:105
      538    13599        */
      539    13600           %SCREAM( ERR#=E$OUTPUTPRIOTOOSMALL, LEVEL=ERROR, MID='C' );

  13612  3 001774   000035 630400 4                  EPPR0   29
         3 001775   000017 631400 xsym               EPPR1   B_VECTNIL+15
         3 001776   000000 701000 xent               TSX1    ASH$ERROR
         3 001777   000000 011000                    NOP     0

      540    13615    2      RETURN;

  13615  3 002000   000000 702200 xent               TSX2  ! X66_ARET

      541    13616    2      END;
      542    13617    1   IF VAL > 14

  13617  3 002001   000016 115007                    CMPA    14,DL
         3 002002   002010 604400 3                  TMOZ    s:13641

      543    13618    2   THEN DO;

      544    13619        /*E*  ERROR:    ASC-E$OUTPUTPRIOTOOBIG-C
      545    13620              MESSAGE0: OUTPUTPRIO too big.
      546    13621              MESSAGE1: OUTPUTPRIO must be between 1 and 14 in value.
      547    13622        */
      548    13623           %SCREAM( ERR#=E$OUTPUTPRIOTOOBIG, LEVEL=ERROR, MID='C' );

  13635  3 002003   000036 630400 4                  EPPR0   30
         3 002004   000017 631400 xsym               EPPR1   B_VECTNIL+15
         3 002005   000000 701000 xent               TSX1    ASH$ERROR
         3 002006   000000 011000                    NOP     0

      549    13638    2      RETURN;

  13638  3 002007   000000 702200 xent               TSX2  ! X66_ARET

      550    13639    2      END;
      551    13640
PL6.E3A0      #001=ASC$LIMITS File=ASC$LIMITS.:E05TSI                            TUE 07/29/97 09:35 Page:106
      552    13641    1   PROJ_MAX = AS_DFLT.OUTPUTPRIO;

  13641  3 002010   000035 236000 xsym               LDQ     AS_DFLT+29
         3 002011   000777 376007                    ANQ     511,DL
         3 002012   200024 756100                    STQ     PROJ_MAX,,AUTO

      553    13642    1   CALL CHECK_PROJ_MAX( 4, PROJ_MAX, VAL );

  13642  3 002013   000001 236000 xsym               LDQ     B_VECTNIL+1
         3 002014   200036 756100                    STQ     @MAX+1,,AUTO
         3 002015   200012 631500                    EPPR1   VAL,,AUTO
         3 002016   200035 451500                    STP1    @PROJECT_MAX+1,,AUTO
         3 002017   200024 634500                    EPPR4   PROJ_MAX,,AUTO
         3 002020   200034 454500                    STP4    @TYPE+1,,AUTO
         3 002021   000037 236000 4                  LDQ     31
         3 002022   200033 756100                    STQ     TOTAL+4,,AUTO
         3 002023   003163 701000 3                  TSX1    CHECK_PROJ_MAX
         3 002024   000000 011000                    NOP     0

      554    13643    1   AS_USERS.OUTPUTPRIO = VAL;

  13643  3 002025   200012 236100                    LDQ     VAL,,AUTO
         3 002026   000035 552004 xsym               STBQ    AS_USERS+29,'04'O

      555    13644    1   AS_MOD_USER.LIMITS.OUTPUTPRIO = AS_TRUE;

  13644  3 002027   000000 236000 xsym               LDQ     AS_TRUE
         3 002030   000006 772000                    QRL     6
         3 002031   000022 676000 xsym               ERQ     AS_MOD_USER+18
         3 002032   004000 376003                    ANQ     2048,DU
         3 002033   000022 656000 xsym               ERSQ    AS_MOD_USER+18

      556    13645    1   RETURN;

  13645  3 002034   000000 702200 xent               TSX2  ! X66_ARET

      557    13646
PL6.E3A0      #001=ASC$LIMITS File=ASC$LIMITS.:E05TSI                            TUE 07/29/97 09:35 Page:107
      558    13647        %EJECT;
PL6.E3A0      #001=ASC$LIMITS File=ASC$LIMITS.:E05TSI                            TUE 07/29/97 09:35 Page:108
      559    13648    1   ASC$MOD_USER_LIMITS: ENTRY;

  13648  3 002035   000000 700200 xent  ASC$MOD_USE* TSX0  ! X66_AUTO_1
         3 002036   000046 000001                    ZERO    38,1

      560    13649
      561    13650    1   IF AS_MOD_USER.LIMITS.OUTPUTPRIO THEN

  13650  3 002037   000022 236000 xsym               LDQ     AS_MOD_USER+18
         3 002040   004000 316003                    CANQ    2048,DU
         3 002041   002044 600000 3                  TZE     s:13652

      562    13651    1      AS_USERS.OUTPUTPRIO = AS_DFLT.OUTPUTPRIO ;

  13651  3 002042   000035 236000 xsym               LDQ     AS_DFLT+29
         3 002043   000035 552004 xsym               STBQ    AS_USERS+29,'04'O

      563    13652    1   IF AS_MOD_USER.LIMITS.EXPIRE ~= '0'B

  13652  3 002044   000022 236000 xsym               LDQ     AS_MOD_USER+18
         3 002045   003000 316003                    CANQ    1536,DU
         3 002046   002067 600000 3                  TZE     s:13660

      564    13653    2   THEN DO ;

      565    13654    2      IF AS_MOD_USER.LIMITS.EXPIRE.MEXP THEN

  13654  3 002047   002000 316003                    CANQ    1024,DU
         3 002050   002053 600000 3                  TZE     s:13656

      566    13655    2         AS_USERS.MEXP = AS_DFLT.MEXP;

  13655  3 002051   000242 235000 xsym               LDA     AS_DFLT+162
         3 002052   000242 755000 xsym               STA     AS_USERS+162

      567    13656    2      IF AS_MOD_USER.LIMITS.EXPIRE.DEXP THEN

PL6.E3A0      #001=ASC$LIMITS File=ASC$LIMITS.:E05TSI                            TUE 07/29/97 09:35 Page:109
  13656  3 002053   000022 430000 xsym               FSZN    AS_MOD_USER+18
         3 002054   002057 605000 3                  TPL     s:13658

      568    13657    2         AS_USERS.DEXP = AS_DFLT.DEXP;

  13657  3 002055   000243 235000 xsym               LDA     AS_DFLT+163
         3 002056   000243 755000 xsym               STA     AS_USERS+163

      569    13658    2      CALL CHECK_DEFAULT_MAX(0, AS_USERS.DEXP, AS_USERS.MEXP, EXPIRE_TEXTC);

  13658  3 002057   000001 236000 4                  LDQ     1
         3 002060   200036 756100                    STQ     @MAX+1,,AUTO
         3 002061   000006 237000 4                  LDAQ    6
         3 002062   200034 757100                    STAQ    @TYPE+1,,AUTO
         3 002063   000004 236000 4                  LDQ     4
         3 002064   200033 756100                    STQ     TOTAL+4,,AUTO
         3 002065   002717 701000 3                  TSX1    CHECK_DEFAULT_MAX
         3 002066   000000 011000                    NOP     0

      570    13659    2      END;

      571    13660    1   IF AS_MOD_USER.LIMITS.TIME ~= '0'B THEN

  13660  3 002067   000022 236000 xsym               LDQ     AS_MOD_USER+18
         3 002070   000776 316003                    CANQ    510,DU
         3 002071   002141 600000 3                  TZE     s:13671

      572    13661    2   DO MODE = 0 TO 3;

  13661  3 002072   200007 450100                    STZ     MODE,,AUTO

      573    13662    2      IF AS_MOD_USER.LIMITS.TIME_A(MODE)

  13662  3 002073   200007 235100                    LDA     MODE,,AUTO
         3 002074   000001 735000                    ALS     1
         3 002075   000000 066405                    CMPB    filb='0'B
         3 002076   000022 200002 xsym               BDSC    AS_MOD_USER+18,A         by=1,bit=0,n=2
PL6.E3A0      #001=ASC$LIMITS File=ASC$LIMITS.:E05TSI                            TUE 07/29/97 09:35 Page:110
         3 002077   000002 000022 xsym               BDSC    B_VECTNIL+2              by=0,bit=0,n=18
         3 002100   002134 600000 3                  TZE     s:13670

      574    13663    3      THEN DO;

      575    13664    3         IF AS_MOD_USER.LIMITS.TIME_A.MTIME(MODE) THEN

  13664  3 002101   000000 066405                    CMPB    filb='0'B
         3 002102   000022 200001 xsym               BDSC    AS_MOD_USER+18,A         by=1,bit=0,n=1
         3 002103   000002 000022 xsym               BDSC    B_VECTNIL+2              by=0,bit=0,n=18
         3 002104   002110 600000 3                  TZE     s:13666

      576    13665    3            AS_USERS.MTIME(MODE) = AS_DFLT.MTIME(MODE);

  13665  3 002105   200007 720100                    LXL0    MODE,,AUTO
         3 002106   000251 235010 xsym               LDA     AS_DFLT+169,X0
         3 002107   000251 755010 xsym               STA     AS_USERS+169,X0

      577    13666    3         IF AS_MOD_USER.LIMITS.TIME_A.DTIME(MODE) THEN

  13666  3 002110   200007 235100                    LDA     MODE,,AUTO
         3 002111   000001 735000                    ALS     1
         3 002112   000000 066405                    CMPB    filb='0'B
         3 002113   000022 210001 xsym               BDSC    AS_MOD_USER+18,A         by=1,bit=1,n=1
         3 002114   000002 000022 xsym               BDSC    B_VECTNIL+2              by=0,bit=0,n=18
         3 002115   002121 600000 3                  TZE     s:13668

      578    13667    3            AS_USERS.DTIME(MODE) = AS_DFLT.DTIME(MODE);

  13667  3 002116   200007 720100                    LXL0    MODE,,AUTO
         3 002117   000255 235010 xsym               LDA     AS_DFLT+173,X0
         3 002120   000255 755010 xsym               STA     AS_USERS+173,X0

      579    13668    3         CALL CHECK_DEFAULT_MAX(1, AS_USERS.DTIME(MODE), AS_USERS.MTIME(MODE),
             13668                  TIME_TEXTC );

  13668  3 002121   000010 236000 4                  LDQ     8
PL6.E3A0      #001=ASC$LIMITS File=ASC$LIMITS.:E05TSI                            TUE 07/29/97 09:35 Page:111
         3 002122   200036 756100                    STQ     @MAX+1,,AUTO
         3 002123   200007 720100                    LXL0    MODE,,AUTO
         3 002124   000251 630410 xsym               EPPR0   AS_USERS+169,X0
         3 002125   200035 450500                    STP0    @PROJECT_MAX+1,,AUTO
         3 002126   000255 631410 xsym               EPPR1   AS_USERS+173,X0
         3 002127   200034 451500                    STP1    @TYPE+1,,AUTO
         3 002130   000011 236000 4                  LDQ     9
         3 002131   200033 756100                    STQ     TOTAL+4,,AUTO
         3 002132   002717 701000 3                  TSX1    CHECK_DEFAULT_MAX
         3 002133   000000 011000                    NOP     0

      580    13669    3         END;

      581    13670    2      END;

  13670  3 002134   200007 235100                    LDA     MODE,,AUTO
         3 002135   000001 035007                    ADLA    1,DL
         3 002136   200007 755100                    STA     MODE,,AUTO
         3 002137   000004 115007                    CMPA    4,DL
         3 002140   002073 602000 3                  TNC     s:13662

      582    13671    1   IF AS_MOD_USER.LIMITS.MEM ~= '0'B THEN

  13671  3 002141   000022 236000 xsym               LDQ     AS_MOD_USER+18
         3 002142   000040 316000 4                  CANQ    32
         3 002143   002223 600000 3                  TZE     s:13685

      583    13672    2   DO MODE = 0 TO 3;

  13672  3 002144   200007 450100                    STZ     MODE,,AUTO

      584    13673    2      IF AS_MOD_USER.LIMITS.MEM_A(MODE) ~= '0'B

  13673  3 002145   200007 235100                    LDA     MODE,,AUTO
         3 002146   000001 735000                    ALS     1
         3 002147   000000 066405                    CMPB    filb='0'B
         3 002150   000022 300002 xsym               BDSC    AS_MOD_USER+18,A         by=1,bit=8,n=2
PL6.E3A0      #001=ASC$LIMITS File=ASC$LIMITS.:E05TSI                            TUE 07/29/97 09:35 Page:112
         3 002151   000002 000022 xsym               BDSC    B_VECTNIL+2              by=0,bit=0,n=18
         3 002152   002216 600000 3                  TZE     s:13684

      585    13674    3      THEN DO;

      586    13675    3         IF AS_MOD_USER.LIMITS.MEM_A.MMEM(MODE) THEN

  13675  3 002153   000000 066405                    CMPB    filb='0'B
         3 002154   000022 300001 xsym               BDSC    AS_MOD_USER+18,A         by=1,bit=8,n=1
         3 002155   000002 000022 xsym               BDSC    B_VECTNIL+2              by=0,bit=0,n=18
         3 002156   002162 600000 3                  TZE     s:13677

      587    13676    3            AS_USERS.MMEM(MODE) = AS_DFLT.MMEM(MODE);

  13676  3 002157   000005 100405                    MLR     fill='000'O
         3 002160   000261 000002 xsym               ADSC9   AS_DFLT+177,A            cn=0,n=2
         3 002161   000261 000002 xsym               ADSC9   AS_USERS+177,A           cn=0,n=2

      588    13677    3         IF AS_MOD_USER.LIMITS.MEM_A.DMEM(MODE) THEN

  13677  3 002162   000000 066405                    CMPB    filb='0'B
         3 002163   000022 400001 xsym               BDSC    AS_MOD_USER+18,A         by=2,bit=0,n=1
         3 002164   000002 000022 xsym               BDSC    B_VECTNIL+2              by=0,bit=0,n=18
         3 002165   002171 600000 3                  TZE     s:13679

      589    13678    3            AS_USERS.DMEM(MODE) = AS_DFLT.DMEM(MODE);

  13678  3 002166   000005 100405                    MLR     fill='000'O
         3 002167   000263 000002 xsym               ADSC9   AS_DFLT+179,A            cn=0,n=2
         3 002170   000263 000002 xsym               ADSC9   AS_USERS+179,A           cn=0,n=2

      590    13679    3         DEFAULT = AS_USERS.DMEM(MODE);

  13679  3 002171   000100 101405                    MRL     fill='000'O
         3 002172   000263 000002 xsym               ADSC9   AS_USERS+179,A           cn=0,n=2
         3 002173   200026 000004                    ADSC9   DEFAULT,,AUTO            cn=0,n=4

PL6.E3A0      #001=ASC$LIMITS File=ASC$LIMITS.:E05TSI                            TUE 07/29/97 09:35 Page:113
      591    13680    3         MAX     = AS_USERS.MMEM(MODE);

  13680  3 002174   000100 101405                    MRL     fill='000'O
         3 002175   000261 000002 xsym               ADSC9   AS_USERS+177,A           cn=0,n=2
         3 002176   200025 000004                    ADSC9   MAX,,AUTO                cn=0,n=4

      592    13681    3         CALL CHECK_DEFAULT_MAX(2, DEFAULT, MAX, MEMORY_TEXTC );

  13681  3 002177   000012 236000 4                  LDQ     10
         3 002200   200036 756100                    STQ     @MAX+1,,AUTO
         3 002201   200025 630500                    EPPR0   MAX,,AUTO
         3 002202   200035 450500                    STP0    @PROJECT_MAX+1,,AUTO
         3 002203   200026 631500                    EPPR1   DEFAULT,,AUTO
         3 002204   200034 451500                    STP1    @TYPE+1,,AUTO
         3 002205   000013 236000 4                  LDQ     11
         3 002206   200033 756100                    STQ     TOTAL+4,,AUTO
         3 002207   002717 701000 3                  TSX1    CHECK_DEFAULT_MAX
         3 002210   000000 011000                    NOP     0

      593    13682    3         AS_USERS.DMEM(MODE) = DEFAULT;

  13682  3 002211   200007 235100                    LDA     MODE,,AUTO
         3 002212   000001 735000                    ALS     1
         3 002213   000005 101500                    MRL     fill='000'O
         3 002214   200026 000004                    ADSC9   DEFAULT,,AUTO            cn=0,n=4
         3 002215   000263 000002 xsym               ADSC9   AS_USERS+179,A           cn=0,n=2

      594    13683    3         END;

      595    13684    2      END;

  13684  3 002216   200007 236100                    LDQ     MODE,,AUTO
         3 002217   000001 036007                    ADLQ    1,DL
         3 002220   200007 756100                    STQ     MODE,,AUTO
         3 002221   000004 116007                    CMPQ    4,DL
         3 002222   002145 602000 3                  TNC     s:13673

PL6.E3A0      #001=ASC$LIMITS File=ASC$LIMITS.:E05TSI                            TUE 07/29/97 09:35 Page:114
      596    13685    1   IF AS_MOD_USER.LIMITS.LO ~= '0'B THEN

  13685  3 002223   000022 236000 xsym               LDQ     AS_MOD_USER+18
         3 002224   003770 316007                    CANQ    2040,DL
         3 002225   002274 600000 3                  TZE     s:13696

      597    13686    2   DO MODE = 0 TO 3;

  13686  3 002226   200007 450100                    STZ     MODE,,AUTO

      598    13687    2      IF AS_MOD_USER.LIMITS.LO_A ~= '0'B

  13687  3 002227   000022 236000 xsym               LDQ     AS_MOD_USER+18
         3 002230   003770 316007                    CANQ    2040,DL
         3 002231   002267 600000 3                  TZE     s:13695

      599    13688    3      THEN DO;

      600    13689    3         IF AS_MOD_USER.LIMITS.LO_A.MLO(MODE) THEN

  13689  3 002232   200007 235100                    LDA     MODE,,AUTO
         3 002233   000001 735000                    ALS     1
         3 002234   000000 066405                    CMPB    filb='0'B
         3 002235   000022 470001 xsym               BDSC    AS_MOD_USER+18,A         by=2,bit=7,n=1
         3 002236   000002 000022 xsym               BDSC    B_VECTNIL+2              by=0,bit=0,n=18
         3 002237   002243 600000 3                  TZE     s:13691

      601    13690    3            AS_USERS.MLO(MODE) = AS_DFLT.MLO(MODE);

  13690  3 002240   200007 720100                    LXL0    MODE,,AUTO
         3 002241   000036 235010 xsym               LDA     AS_DFLT+30,X0
         3 002242   000036 755010 xsym               STA     AS_USERS+30,X0

      602    13691    3         IF AS_MOD_USER.LIMITS.LO_A.DLO(MODE) THEN

  13691  3 002243   200007 235100                    LDA     MODE,,AUTO
         3 002244   000001 735000                    ALS     1
PL6.E3A0      #001=ASC$LIMITS File=ASC$LIMITS.:E05TSI                            TUE 07/29/97 09:35 Page:115
         3 002245   000000 066405                    CMPB    filb='0'B
         3 002246   000022 500001 xsym               BDSC    AS_MOD_USER+18,A         by=2,bit=8,n=1
         3 002247   000002 000022 xsym               BDSC    B_VECTNIL+2              by=0,bit=0,n=18
         3 002250   002254 600000 3                  TZE     s:13693

      603    13692    3            AS_USERS.DLO(MODE) = AS_DFLT.DLO(MODE);

  13692  3 002251   200007 720100                    LXL0    MODE,,AUTO
         3 002252   000042 235010 xsym               LDA     AS_DFLT+34,X0
         3 002253   000042 755010 xsym               STA     AS_USERS+34,X0

      604    13693    3         CALL CHECK_DEFAULT_MAX(3, AS_USERS.DLO(MODE), AS_USERS.MLO(MODE), LO_TEXTC );

  13693  3 002254   000021 236000 4                  LDQ     17
         3 002255   200036 756100                    STQ     @MAX+1,,AUTO
         3 002256   200007 720100                    LXL0    MODE,,AUTO
         3 002257   000036 630410 xsym               EPPR0   AS_USERS+30,X0
         3 002260   200035 450500                    STP0    @PROJECT_MAX+1,,AUTO
         3 002261   000042 631410 xsym               EPPR1   AS_USERS+34,X0
         3 002262   200034 451500                    STP1    @TYPE+1,,AUTO
         3 002263   000022 236000 4                  LDQ     18
         3 002264   200033 756100                    STQ     TOTAL+4,,AUTO
         3 002265   002717 701000 3                  TSX1    CHECK_DEFAULT_MAX
         3 002266   000000 011000                    NOP     0

      605    13694    3         END;

      606    13695    2      END;

  13695  3 002267   200007 235100                    LDA     MODE,,AUTO
         3 002270   000001 035007                    ADLA    1,DL
         3 002271   200007 755100                    STA     MODE,,AUTO
         3 002272   000004 115007                    CMPA    4,DL
         3 002273   002227 602000 3                  TNC     s:13687

      607    13696    1   IF AS_MOD_USER.LIMITS.DO_ ~= '0'B THEN

PL6.E3A0      #001=ASC$LIMITS File=ASC$LIMITS.:E05TSI                            TUE 07/29/97 09:35 Page:116
  13696  3 002274   000000 066400                    CMPB    filb='0'B
         3 002275   000022 660010 xsym               BDSC    AS_MOD_USER+18           by=3,bit=6,n=8
         3 002276   000002 000022 xsym               BDSC    B_VECTNIL+2              by=0,bit=0,n=18
         3 002277   002347 600000 3                  TZE     s:13707

      608    13697    2   DO MODE = 0 TO 3;

  13697  3 002300   200007 450100                    STZ     MODE,,AUTO

      609    13698    2      IF AS_MOD_USER.LIMITS.DO_A(MODE) ~= '0'B

  13698  3 002301   200007 235100                    LDA     MODE,,AUTO
         3 002302   000001 735000                    ALS     1
         3 002303   000000 066405                    CMPB    filb='0'B
         3 002304   000022 660002 xsym               BDSC    AS_MOD_USER+18,A         by=3,bit=6,n=2
         3 002305   000002 000022 xsym               BDSC    B_VECTNIL+2              by=0,bit=0,n=18
         3 002306   002342 600000 3                  TZE     s:13706

      610    13699    3      THEN DO;

      611    13700    3         IF AS_MOD_USER.LIMITS.DO_A.MDO(MODE) THEN

  13700  3 002307   000000 066405                    CMPB    filb='0'B
         3 002310   000022 660001 xsym               BDSC    AS_MOD_USER+18,A         by=3,bit=6,n=1
         3 002311   000002 000022 xsym               BDSC    B_VECTNIL+2              by=0,bit=0,n=18
         3 002312   002316 600000 3                  TZE     s:13702

      612    13701    3            AS_USERS.MDO(MODE) = AS_DFLT.MDO(MODE);

  13701  3 002313   200007 720100                    LXL0    MODE,,AUTO
         3 002314   000046 235010 xsym               LDA     AS_DFLT+38,X0
         3 002315   000046 755010 xsym               STA     AS_USERS+38,X0

      613    13702    3         IF AS_MOD_USER.LIMITS.DO_A.DDO(MODE) THEN

  13702  3 002316   200007 235100                    LDA     MODE,,AUTO
         3 002317   000001 735000                    ALS     1
PL6.E3A0      #001=ASC$LIMITS File=ASC$LIMITS.:E05TSI                            TUE 07/29/97 09:35 Page:117
         3 002320   000000 066405                    CMPB    filb='0'B
         3 002321   000022 670001 xsym               BDSC    AS_MOD_USER+18,A         by=3,bit=7,n=1
         3 002322   000002 000022 xsym               BDSC    B_VECTNIL+2              by=0,bit=0,n=18
         3 002323   002327 600000 3                  TZE     s:13704

      614    13703    3            AS_USERS.DDO(MODE) = AS_DFLT.DDO(MODE);

  13703  3 002324   200007 720100                    LXL0    MODE,,AUTO
         3 002325   000052 235010 xsym               LDA     AS_DFLT+42,X0
         3 002326   000052 755010 xsym               STA     AS_USERS+42,X0

      615    13704    3         CALL CHECK_DEFAULT_MAX(3, AS_USERS.DDO(MODE), AS_USERS.MDO(MODE), DO_TEXTC );

  13704  3 002327   000023 236000 4                  LDQ     19
         3 002330   200036 756100                    STQ     @MAX+1,,AUTO
         3 002331   200007 720100                    LXL0    MODE,,AUTO
         3 002332   000046 630410 xsym               EPPR0   AS_USERS+38,X0
         3 002333   200035 450500                    STP0    @PROJECT_MAX+1,,AUTO
         3 002334   000052 631410 xsym               EPPR1   AS_USERS+42,X0
         3 002335   200034 451500                    STP1    @TYPE+1,,AUTO
         3 002336   000022 236000 4                  LDQ     18
         3 002337   200033 756100                    STQ     TOTAL+4,,AUTO
         3 002340   002717 701000 3                  TSX1    CHECK_DEFAULT_MAX
         3 002341   000000 011000                    NOP     0

      616    13705    3         END;

      617    13706    2      END;

  13706  3 002342   200007 235100                    LDA     MODE,,AUTO
         3 002343   000001 035007                    ADLA    1,DL
         3 002344   200007 755100                    STA     MODE,,AUTO
         3 002345   000004 115007                    CMPA    4,DL
         3 002346   002301 602000 3                  TNC     s:13698

      618    13707    1   IF AS_MOD_USER.LIMITS.PO ~= '0'B THEN

PL6.E3A0      #001=ASC$LIMITS File=ASC$LIMITS.:E05TSI                            TUE 07/29/97 09:35 Page:118
  13707  3 002347   000023 236000 xsym               LDQ     AS_MOD_USER+19
         3 002350   017740 316003                    CANQ    8160,DU
         3 002351   002421 600000 3                  TZE     s:13718

      619    13708    2   DO MODE = 0 TO 3;

  13708  3 002352   200007 450100                    STZ     MODE,,AUTO

      620    13709    2      IF AS_MOD_USER.LIMITS.PO_A(MODE) ~= '0'B

  13709  3 002353   200007 235100                    LDA     MODE,,AUTO
         3 002354   000001 735000                    ALS     1
         3 002355   000000 066405                    CMPB    filb='0'B
         3 002356   000023 050002 xsym               BDSC    AS_MOD_USER+19,A         by=0,bit=5,n=2
         3 002357   000002 000022 xsym               BDSC    B_VECTNIL+2              by=0,bit=0,n=18
         3 002360   002414 600000 3                  TZE     s:13717

      621    13710    3      THEN DO;

      622    13711    3         IF AS_MOD_USER.LIMITS.PO_A.MPO(MODE) THEN

  13711  3 002361   000000 066405                    CMPB    filb='0'B
         3 002362   000023 050001 xsym               BDSC    AS_MOD_USER+19,A         by=0,bit=5,n=1
         3 002363   000002 000022 xsym               BDSC    B_VECTNIL+2              by=0,bit=0,n=18
         3 002364   002370 600000 3                  TZE     s:13713

      623    13712    3            AS_USERS.MPO(MODE) = AS_DFLT.MPO(MODE);

  13712  3 002365   200007 720100                    LXL0    MODE,,AUTO
         3 002366   000056 235010 xsym               LDA     AS_DFLT+46,X0
         3 002367   000056 755010 xsym               STA     AS_USERS+46,X0

      624    13713    3         IF AS_MOD_USER.LIMITS.PO_A.DPO(MODE) THEN

  13713  3 002370   200007 235100                    LDA     MODE,,AUTO
         3 002371   000001 735000                    ALS     1
         3 002372   000000 066405                    CMPB    filb='0'B
PL6.E3A0      #001=ASC$LIMITS File=ASC$LIMITS.:E05TSI                            TUE 07/29/97 09:35 Page:119
         3 002373   000023 060001 xsym               BDSC    AS_MOD_USER+19,A         by=0,bit=6,n=1
         3 002374   000002 000022 xsym               BDSC    B_VECTNIL+2              by=0,bit=0,n=18
         3 002375   002401 600000 3                  TZE     s:13715

      625    13714    3            AS_USERS.DPO(MODE) = AS_DFLT.DPO(MODE);

  13714  3 002376   200007 720100                    LXL0    MODE,,AUTO
         3 002377   000062 235010 xsym               LDA     AS_DFLT+50,X0
         3 002400   000062 755010 xsym               STA     AS_USERS+50,X0

      626    13715    3         CALL CHECK_DEFAULT_MAX(3, AS_USERS.DPO(MODE), AS_USERS.MPO(MODE), PO_TEXTC );

  13715  3 002401   000024 236000 4                  LDQ     20
         3 002402   200036 756100                    STQ     @MAX+1,,AUTO
         3 002403   200007 720100                    LXL0    MODE,,AUTO
         3 002404   000056 630410 xsym               EPPR0   AS_USERS+46,X0
         3 002405   200035 450500                    STP0    @PROJECT_MAX+1,,AUTO
         3 002406   000062 631410 xsym               EPPR1   AS_USERS+50,X0
         3 002407   200034 451500                    STP1    @TYPE+1,,AUTO
         3 002410   000022 236000 4                  LDQ     18
         3 002411   200033 756100                    STQ     TOTAL+4,,AUTO
         3 002412   002717 701000 3                  TSX1    CHECK_DEFAULT_MAX
         3 002413   000000 011000                    NOP     0

      627    13716    3         END;

      628    13717    2      END;

  13717  3 002414   200007 235100                    LDA     MODE,,AUTO
         3 002415   000001 035007                    ADLA    1,DL
         3 002416   200007 755100                    STA     MODE,,AUTO
         3 002417   000004 115007                    CMPA    4,DL
         3 002420   002353 602000 3                  TNC     s:13709

      629    13718    1   IF AS_MOD_USER.LIMITS.PDIS ~= '0'B THEN

  13718  3 002421   000023 236000 xsym               LDQ     AS_MOD_USER+19
PL6.E3A0      #001=ASC$LIMITS File=ASC$LIMITS.:E05TSI                            TUE 07/29/97 09:35 Page:120
         3 002422   000041 316000 4                  CANQ    33
         3 002423   002473 600000 3                  TZE     s:13729

      630    13719    2   DO MODE = 0 TO 3;

  13719  3 002424   200007 450100                    STZ     MODE,,AUTO

      631    13720    2      IF AS_MOD_USER.LIMITS.PDIS_A(MODE) ~= '0'B

  13720  3 002425   200007 235100                    LDA     MODE,,AUTO
         3 002426   000001 735000                    ALS     1
         3 002427   000000 066405                    CMPB    filb='0'B
         3 002430   000023 240002 xsym               BDSC    AS_MOD_USER+19,A         by=1,bit=4,n=2
         3 002431   000002 000022 xsym               BDSC    B_VECTNIL+2              by=0,bit=0,n=18
         3 002432   002466 600000 3                  TZE     s:13728

      632    13721    3      THEN DO;

      633    13722    3         IF AS_MOD_USER.LIMITS.PDIS_A.MPDIS(MODE) THEN

  13722  3 002433   000000 066405                    CMPB    filb='0'B
         3 002434   000023 240001 xsym               BDSC    AS_MOD_USER+19,A         by=1,bit=4,n=1
         3 002435   000002 000022 xsym               BDSC    B_VECTNIL+2              by=0,bit=0,n=18
         3 002436   002442 600000 3                  TZE     s:13724

      634    13723    3            AS_USERS.MPDIS(MODE) = AS_DFLT.MPDIS(MODE);

  13723  3 002437   200007 720100                    LXL0    MODE,,AUTO
         3 002440   000066 235010 xsym               LDA     AS_DFLT+54,X0
         3 002441   000066 755010 xsym               STA     AS_USERS+54,X0

      635    13724    3         IF AS_MOD_USER.LIMITS.PDIS_A.DPDIS(MODE) THEN

  13724  3 002442   200007 235100                    LDA     MODE,,AUTO
         3 002443   000001 735000                    ALS     1
         3 002444   000000 066405                    CMPB    filb='0'B
         3 002445   000023 250001 xsym               BDSC    AS_MOD_USER+19,A         by=1,bit=5,n=1
PL6.E3A0      #001=ASC$LIMITS File=ASC$LIMITS.:E05TSI                            TUE 07/29/97 09:35 Page:121
         3 002446   000002 000022 xsym               BDSC    B_VECTNIL+2              by=0,bit=0,n=18
         3 002447   002453 600000 3                  TZE     s:13726

      636    13725    3            AS_USERS.DPDIS(MODE) = AS_DFLT.DPDIS(MODE);

  13725  3 002450   200007 720100                    LXL0    MODE,,AUTO
         3 002451   000072 235010 xsym               LDA     AS_DFLT+58,X0
         3 002452   000072 755010 xsym               STA     AS_USERS+58,X0

      637    13726    3         CALL CHECK_DEFAULT_MAX(3, AS_USERS.DPDIS(MODE), AS_USERS.MPDIS(MODE),
             13726                  PDIS_TEXTC );

  13726  3 002453   000025 236000 4                  LDQ     21
         3 002454   200036 756100                    STQ     @MAX+1,,AUTO
         3 002455   200007 720100                    LXL0    MODE,,AUTO
         3 002456   000066 630410 xsym               EPPR0   AS_USERS+54,X0
         3 002457   200035 450500                    STP0    @PROJECT_MAX+1,,AUTO
         3 002460   000072 631410 xsym               EPPR1   AS_USERS+58,X0
         3 002461   200034 451500                    STP1    @TYPE+1,,AUTO
         3 002462   000022 236000 4                  LDQ     18
         3 002463   200033 756100                    STQ     TOTAL+4,,AUTO
         3 002464   002717 701000 3                  TSX1    CHECK_DEFAULT_MAX
         3 002465   000000 011000                    NOP     0

      638    13727    3         END;

      639    13728    2      END;

  13728  3 002466   200007 235100                    LDA     MODE,,AUTO
         3 002467   000001 035007                    ADLA    1,DL
         3 002470   200007 755100                    STA     MODE,,AUTO
         3 002471   000004 115007                    CMPA    4,DL
         3 002472   002425 602000 3                  TNC     s:13720

      640    13729    1   IF AS_MOD_USER.LIMITS.TDIS ~= '0'B THEN

  13729  3 002473   000023 236000 xsym               LDQ     AS_MOD_USER+19
PL6.E3A0      #001=ASC$LIMITS File=ASC$LIMITS.:E05TSI                            TUE 07/29/97 09:35 Page:122
         3 002474   077600 316007                    CANQ    32640,DL
         3 002475   002545 600000 3                  TZE     s:13740

      641    13730    2   DO MODE = 0 TO 3;

  13730  3 002476   200007 450100                    STZ     MODE,,AUTO

      642    13731    2      IF AS_MOD_USER.LIMITS.TDIS_A(MODE) ~= '0'B

  13731  3 002477   200007 235100                    LDA     MODE,,AUTO
         3 002500   000001 735000                    ALS     1
         3 002501   000000 066405                    CMPB    filb='0'B
         3 002502   000023 430002 xsym               BDSC    AS_MOD_USER+19,A         by=2,bit=3,n=2
         3 002503   000002 000022 xsym               BDSC    B_VECTNIL+2              by=0,bit=0,n=18
         3 002504   002540 600000 3                  TZE     s:13739

      643    13732    3      THEN DO;

      644    13733    3         IF AS_MOD_USER.LIMITS.TDIS_A.MTDIS(MODE) THEN

  13733  3 002505   000000 066405                    CMPB    filb='0'B
         3 002506   000023 430001 xsym               BDSC    AS_MOD_USER+19,A         by=2,bit=3,n=1
         3 002507   000002 000022 xsym               BDSC    B_VECTNIL+2              by=0,bit=0,n=18
         3 002510   002514 600000 3                  TZE     s:13735

      645    13734    3            AS_USERS.MTDIS(MODE) = AS_DFLT.MTDIS(MODE);

  13734  3 002511   200007 720100                    LXL0    MODE,,AUTO
         3 002512   000076 235010 xsym               LDA     AS_DFLT+62,X0
         3 002513   000076 755010 xsym               STA     AS_USERS+62,X0

      646    13735    3         IF AS_MOD_USER.LIMITS.TDIS_A.DTDIS(MODE) THEN

  13735  3 002514   200007 235100                    LDA     MODE,,AUTO
         3 002515   000001 735000                    ALS     1
         3 002516   000000 066405                    CMPB    filb='0'B
         3 002517   000023 440001 xsym               BDSC    AS_MOD_USER+19,A         by=2,bit=4,n=1
PL6.E3A0      #001=ASC$LIMITS File=ASC$LIMITS.:E05TSI                            TUE 07/29/97 09:35 Page:123
         3 002520   000002 000022 xsym               BDSC    B_VECTNIL+2              by=0,bit=0,n=18
         3 002521   002525 600000 3                  TZE     s:13737

      647    13736    3            AS_USERS.DTDIS(MODE) = AS_DFLT.DTDIS(MODE);

  13736  3 002522   200007 720100                    LXL0    MODE,,AUTO
         3 002523   000102 235010 xsym               LDA     AS_DFLT+66,X0
         3 002524   000102 755010 xsym               STA     AS_USERS+66,X0

      648    13737    3         CALL CHECK_DEFAULT_MAX(3, AS_USERS.DTDIS(MODE), AS_USERS.MTDIS(MODE),
             13737                  TDIS_TEXTC );

  13737  3 002525   000026 236000 4                  LDQ     22
         3 002526   200036 756100                    STQ     @MAX+1,,AUTO
         3 002527   200007 720100                    LXL0    MODE,,AUTO
         3 002530   000076 630410 xsym               EPPR0   AS_USERS+62,X0
         3 002531   200035 450500                    STP0    @PROJECT_MAX+1,,AUTO
         3 002532   000102 631410 xsym               EPPR1   AS_USERS+66,X0
         3 002533   200034 451500                    STP1    @TYPE+1,,AUTO
         3 002534   000022 236000 4                  LDQ     18
         3 002535   200033 756100                    STQ     TOTAL+4,,AUTO
         3 002536   002717 701000 3                  TSX1    CHECK_DEFAULT_MAX
         3 002537   000000 011000                    NOP     0

      649    13738    3         END;

      650    13739    2      END;

  13739  3 002540   200007 235100                    LDA     MODE,,AUTO
         3 002541   000001 035007                    ADLA    1,DL
         3 002542   200007 755100                    STA     MODE,,AUTO
         3 002543   000004 115007                    CMPA    4,DL
         3 002544   002477 602000 3                  TNC     s:13731

      651    13740    1   IF AS_MOD_USER.LIMITS.FPOOLS ~= '0'B THEN

  13740  3 002545   000000 066400                    CMPB    filb='0'B
PL6.E3A0      #001=ASC$LIMITS File=ASC$LIMITS.:E05TSI                            TUE 07/29/97 09:35 Page:124
         3 002546   000023 620010 xsym               BDSC    AS_MOD_USER+19           by=3,bit=2,n=8
         3 002547   000002 000022 xsym               BDSC    B_VECTNIL+2              by=0,bit=0,n=18
         3 002550   002632 600000 3                  TZE     s:13754

      652    13741    2   DO MODE = 0 TO 3;

  13741  3 002551   200007 450100                    STZ     MODE,,AUTO

      653    13742    2      IF AS_MOD_USER.LIMITS.FPOOLS_A(MODE) ~= '0'B

  13742  3 002552   200007 235100                    LDA     MODE,,AUTO
         3 002553   000001 735000                    ALS     1
         3 002554   000000 066405                    CMPB    filb='0'B
         3 002555   000023 620002 xsym               BDSC    AS_MOD_USER+19,A         by=3,bit=2,n=2
         3 002556   000002 000022 xsym               BDSC    B_VECTNIL+2              by=0,bit=0,n=18
         3 002557   002625 600000 3                  TZE     s:13753

      654    13743    3      THEN DO;

      655    13744    3         IF AS_MOD_USER.LIMITS.FPOOLS_A.MFPOOLS(MODE) THEN

  13744  3 002560   000000 066405                    CMPB    filb='0'B
         3 002561   000023 620001 xsym               BDSC    AS_MOD_USER+19,A         by=3,bit=2,n=1
         3 002562   000002 000022 xsym               BDSC    B_VECTNIL+2              by=0,bit=0,n=18
         3 002563   002570 600000 3                  TZE     s:13746

      656    13745    3            AS_USERS.MFPOOLS(MODE) = AS_DFLT.MFPOOLS(MODE);

  13745  3 002564   200007 236100                    LDQ     MODE,,AUTO
         3 002565   000006 100406                    MLR     fill='000'O
         3 002566   000106 000001 xsym               ADSC9   AS_DFLT+70,Q             cn=0,n=1
         3 002567   000106 000001 xsym               ADSC9   AS_USERS+70,Q            cn=0,n=1

      657    13746    3         IF AS_MOD_USER.LIMITS.FPOOLS_A.DFPOOLS(MODE) THEN

  13746  3 002570   000000 066405                    CMPB    filb='0'B
         3 002571   000023 630001 xsym               BDSC    AS_MOD_USER+19,A         by=3,bit=3,n=1
PL6.E3A0      #001=ASC$LIMITS File=ASC$LIMITS.:E05TSI                            TUE 07/29/97 09:35 Page:125
         3 002572   000002 000022 xsym               BDSC    B_VECTNIL+2              by=0,bit=0,n=18
         3 002573   002600 600000 3                  TZE     s:13748

      658    13747    3            AS_USERS.DFPOOLS(MODE) = AS_DFLT.DFPOOLS(MODE);

  13747  3 002574   200007 236100                    LDQ     MODE,,AUTO
         3 002575   000006 100406                    MLR     fill='000'O
         3 002576   000107 000001 xsym               ADSC9   AS_DFLT+71,Q             cn=0,n=1
         3 002577   000107 000001 xsym               ADSC9   AS_USERS+71,Q            cn=0,n=1

      659    13748    3         DEFAULT = AS_USERS.DFPOOLS(MODE);

  13748  3 002600   200007 236100                    LDQ     MODE,,AUTO
         3 002601   000100 101406                    MRL     fill='000'O
         3 002602   000107 000001 xsym               ADSC9   AS_USERS+71,Q            cn=0,n=1
         3 002603   200026 000004                    ADSC9   DEFAULT,,AUTO            cn=0,n=4

      660    13749    3         MAX     = AS_USERS.DFPOOLS(MODE);

  13749  3 002604   000100 101406                    MRL     fill='000'O
         3 002605   000107 000001 xsym               ADSC9   AS_USERS+71,Q            cn=0,n=1
         3 002606   200025 000004                    ADSC9   MAX,,AUTO                cn=0,n=4

      661    13750    3         CALL CHECK_DEFAULT_MAX(3, DEFAULT, MAX, FPOOLS_TEXTC );

  13750  3 002607   000031 236000 4                  LDQ     25
         3 002610   200036 756100                    STQ     @MAX+1,,AUTO
         3 002611   200025 630500                    EPPR0   MAX,,AUTO
         3 002612   200035 450500                    STP0    @PROJECT_MAX+1,,AUTO
         3 002613   200026 631500                    EPPR1   DEFAULT,,AUTO
         3 002614   200034 451500                    STP1    @TYPE+1,,AUTO
         3 002615   000022 236000 4                  LDQ     18
         3 002616   200033 756100                    STQ     TOTAL+4,,AUTO
         3 002617   002717 701000 3                  TSX1    CHECK_DEFAULT_MAX
         3 002620   000000 011000                    NOP     0

      662    13751    3         AS_USERS.DFPOOLS(MODE) = DEFAULT;
PL6.E3A0      #001=ASC$LIMITS File=ASC$LIMITS.:E05TSI                            TUE 07/29/97 09:35 Page:126

  13751  3 002621   200007 235100                    LDA     MODE,,AUTO
         3 002622   000005 101500                    MRL     fill='000'O
         3 002623   200026 000004                    ADSC9   DEFAULT,,AUTO            cn=0,n=4
         3 002624   000107 000001 xsym               ADSC9   AS_USERS+71,A            cn=0,n=1

      663    13752    3         END;

      664    13753    2      END;

  13753  3 002625   200007 235100                    LDA     MODE,,AUTO
         3 002626   000001 035007                    ADLA    1,DL
         3 002627   200007 755100                    STA     MODE,,AUTO
         3 002630   000004 115007                    CMPA    4,DL
         3 002631   002552 602000 3                  TNC     s:13742

      665    13754    1   IF AS_MOD_USER.LIMITS.MPRIO ~= '0'B THEN

  13754  3 002632   000024 236000 xsym               LDQ     AS_MOD_USER+20
         3 002633   377000 316003                    CANQ    130560,DU
         3 002634   002716 600000 3                  TZE     s:13768

      666    13755    2   DO MODE = 0 TO 3;

  13755  3 002635   200007 450100                    STZ     MODE,,AUTO

      667    13756    2      IF AS_MOD_USER.LIMITS.MPRIO_A(MODE) ~= '0'B

  13756  3 002636   200007 235100                    LDA     MODE,,AUTO
         3 002637   000001 735000                    ALS     1
         3 002640   000000 066405                    CMPB    filb='0'B
         3 002641   000024 010002 xsym               BDSC    AS_MOD_USER+20,A         by=0,bit=1,n=2
         3 002642   000002 000022 xsym               BDSC    B_VECTNIL+2              by=0,bit=0,n=18
         3 002643   002711 600000 3                  TZE     s:13767

      668    13757    3      THEN DO;

PL6.E3A0      #001=ASC$LIMITS File=ASC$LIMITS.:E05TSI                            TUE 07/29/97 09:35 Page:127
      669    13758    3         IF AS_MOD_USER.LIMITS.MPRIO_A.MMPRIO(MODE) THEN

  13758  3 002644   000000 066405                    CMPB    filb='0'B
         3 002645   000024 010001 xsym               BDSC    AS_MOD_USER+20,A         by=0,bit=1,n=1
         3 002646   000002 000022 xsym               BDSC    B_VECTNIL+2              by=0,bit=0,n=18
         3 002647   002654 600000 3                  TZE     s:13760

      670    13759    3            AS_USERS.MMPRIO(MODE) = AS_DFLT.MMPRIO(MODE);

  13759  3 002650   200007 236100                    LDQ     MODE,,AUTO
         3 002651   000006 100406                    MLR     fill='000'O
         3 002652   000110 000001 xsym               ADSC9   AS_DFLT+72,Q             cn=0,n=1
         3 002653   000110 000001 xsym               ADSC9   AS_USERS+72,Q            cn=0,n=1

      671    13760    3         IF AS_MOD_USER.LIMITS.MPRIO_A.DMPRIO(MODE) THEN

  13760  3 002654   000000 066405                    CMPB    filb='0'B
         3 002655   000024 020001 xsym               BDSC    AS_MOD_USER+20,A         by=0,bit=2,n=1
         3 002656   000002 000022 xsym               BDSC    B_VECTNIL+2              by=0,bit=0,n=18
         3 002657   002664 600000 3                  TZE     s:13762

      672    13761    3            AS_USERS.DMPRIO(MODE) = AS_DFLT.DMPRIO(MODE);

  13761  3 002660   200007 236100                    LDQ     MODE,,AUTO
         3 002661   000006 100406                    MLR     fill='000'O
         3 002662   000111 000001 xsym               ADSC9   AS_DFLT+73,Q             cn=0,n=1
         3 002663   000111 000001 xsym               ADSC9   AS_USERS+73,Q            cn=0,n=1

      673    13762    3         DEFAULT = AS_USERS.DMPRIO(MODE);

  13762  3 002664   200007 236100                    LDQ     MODE,,AUTO
         3 002665   000100 101406                    MRL     fill='000'O
         3 002666   000111 000001 xsym               ADSC9   AS_USERS+73,Q            cn=0,n=1
         3 002667   200026 000004                    ADSC9   DEFAULT,,AUTO            cn=0,n=4

      674    13763    3         MAX     = AS_USERS.DMPRIO(MODE);

PL6.E3A0      #001=ASC$LIMITS File=ASC$LIMITS.:E05TSI                            TUE 07/29/97 09:35 Page:128
  13763  3 002670   000100 101406                    MRL     fill='000'O
         3 002671   000111 000001 xsym               ADSC9   AS_USERS+73,Q            cn=0,n=1
         3 002672   200025 000004                    ADSC9   MAX,,AUTO                cn=0,n=4

      675    13764    3         CALL CHECK_DEFAULT_MAX(3, DEFAULT, MAX, MAXJOBPRIO_TEXTC );

  13764  3 002673   000033 236000 4                  LDQ     27
         3 002674   200036 756100                    STQ     @MAX+1,,AUTO
         3 002675   200025 630500                    EPPR0   MAX,,AUTO
         3 002676   200035 450500                    STP0    @PROJECT_MAX+1,,AUTO
         3 002677   200026 631500                    EPPR1   DEFAULT,,AUTO
         3 002700   200034 451500                    STP1    @TYPE+1,,AUTO
         3 002701   000022 236000 4                  LDQ     18
         3 002702   200033 756100                    STQ     TOTAL+4,,AUTO
         3 002703   002717 701000 3                  TSX1    CHECK_DEFAULT_MAX
         3 002704   000000 011000                    NOP     0

      676    13765    3         AS_USERS.DMPRIO(MODE) = DEFAULT;

  13765  3 002705   200007 235100                    LDA     MODE,,AUTO
         3 002706   000005 101500                    MRL     fill='000'O
         3 002707   200026 000004                    ADSC9   DEFAULT,,AUTO            cn=0,n=4
         3 002710   000111 000001 xsym               ADSC9   AS_USERS+73,A            cn=0,n=1

      677    13766    3         END;

      678    13767    2      END;

  13767  3 002711   200007 235100                    LDA     MODE,,AUTO
         3 002712   000001 035007                    ADLA    1,DL
         3 002713   200007 755100                    STA     MODE,,AUTO
         3 002714   000004 115007                    CMPA    4,DL
         3 002715   002636 602000 3                  TNC     s:13756

      679    13768    1   RETURN;

  13768  3 002716   000000 702200 xent               TSX2  ! X66_ARET
PL6.E3A0      #001=ASC$LIMITS File=ASC$LIMITS.:E05TSI                            TUE 07/29/97 09:35 Page:129

      680    13769
      681    13770        %EJECT;
PL6.E3A0      #001=ASC$LIMITS File=ASC$LIMITS.:E05TSI                            TUE 07/29/97 09:35 Page:130
      682    13771    1   CHECK_DEFAULT_MAX: PROC( TYPE, DEFAULT, MAX, SERVICE_NAME );

  13771  3 002717   200032 741300       CHECK_DEFAU* STX1  ! TOTAL+3,,AUTO

      683    13772
      684    13773
      685    13774
      686    13775        /*********************************************************************/
      687    13776        /*   Parameters      parameters      parameters      parameters      */
      688    13777        /*********************************************************************/
      689    13778
      690    13779    2   DCL TYPE          UBIN;
      691    13780    2   DCL DEFAULT       UBIN    ALIGNED;
      692    13781    2   DCL DEFAULT_SBIN  REDEF   DEFAULT SBIN ALIGNED;
      693    13782    2   DCL MAX           UBIN    ALIGNED;
      694    13783    2   DCL MAX_SBIN      REDEF   MAX     SBIN ALIGNED;
      695    13784    2   DCL 1 SERVICE_NAME ALIGNED,
      696    13785    2          2 CNT UBIN BYTE UNAL,
      697    13786    2          2 TXT CHAR(SERVICE_NAME.CNT);
      698    13787
      699    13788
      700    13789
      701    13790        %EJECT ;
PL6.E3A0      #001=ASC$LIMITS File=ASC$LIMITS.:E05TSI                            TUE 07/29/97 09:35 Page:131
      702    13791                                                              /* Check that default
      703    13792                                                                 is not greater than
      704    13793                                                                  max.  */
      705    13794    2   IF TYPE = 0 /* Expire */

  13794  3 002720   200033 470500                    LDP0    @TYPE,,AUTO
         3 002721   000000 235100                    LDA     0,,PR0
         3 002722   002772 601000 3                  TNZ     s:13863

      706    13795    3   THEN DO;

      707    13796    3      IF DEFAULT <= MAX THEN RETURN;

  13796  3 002723   200035 471500                    LDP1    @MAX,,AUTO
         3 002724   200034 473500                    LDP3    @DEFAULT,,AUTO
         3 002725   100000 236100                    LDQ     0,,PR1
         3 002726   300000 116100                    CMPQ    0,,PR3
         3 002727   002731 602000 3                  TNC     s:13797

  13796  3 002730   000001 702211                    TSX2  ! 1,X1

      708    13797    3      IF DEFAULT_SBIN = -1 THEN AS_FIELD2 = NEVER_TEXTC;

  13797  3 002731   300000 235100                    LDA     0,,PR3
         3 002732   000027 115000 xsym               CMPA    B_VECTNIL+23
         3 002733   002740 601000 3                  TNZ     s:13815

  13797  3 002734   000000 100400                    MLR     fill='000'O
         3 002735   000031 000006 2                  ADSC9   NEVER_TEXTC              cn=0,n=6
         3 002736   000000 000051 xsym               ADSC9   AS_FIELD2                cn=0,n=41
         3 002737   002751 710000 3                  TRA     s:13854

      709    13798    4      ELSE DO;

      710    13799              %NUMBER( NUM2=DEFAULT );
             13815    4         CALL ASB$BINCHAR( AS_FIELD2.TEXT, 0, -2, DEFAULT );

PL6.E3A0      #001=ASC$LIMITS File=ASC$LIMITS.:E05TSI                            TUE 07/29/97 09:35 Page:132
  13815  3 002740   200034 236100                    LDQ     @DEFAULT,,AUTO
         3 002741   000043 235000 4                  LDA     35
         3 002742   200042 757100                    STAQ    @SERVICE_NAME+4,,AUTO
         3 002743   000044 237000 4                  LDAQ    36
         3 002744   200040 757100                    STAQ    @SERVICE_NAME+2,,AUTO
         3 002745   200040 630500                    EPPR0   @SERVICE_NAME+2,,AUTO
         3 002746   000022 631400 xsym               EPPR1   B_VECTNIL+18
         3 002747   000000 701000 xent               TSX1    ASB$BINCHAR
         3 002750   000000 011000                    NOP     0

      711    13829    4         END;

      712    13830           %NUMBER( NUM3=MAX );
             13854    3         CALL ASB$BINCHAR( AS_FIELD3.TEXT, 0, -3, MAX );

  13854  3 002751   200035 236100                    LDQ     @MAX,,AUTO
         3 002752   000047 235000 4                  LDA     39
         3 002753   200042 757100                    STAQ    @SERVICE_NAME+4,,AUTO
         3 002754   000050 237000 4                  LDAQ    40
         3 002755   200040 757100                    STAQ    @SERVICE_NAME+2,,AUTO
         3 002756   200040 630500                    EPPR0   @SERVICE_NAME+2,,AUTO
         3 002757   000022 631400 xsym               EPPR1   B_VECTNIL+18
         3 002760   000000 701000 xent               TSX1    ASB$BINCHAR
         3 002761   000000 011000                    NOP     0

      713    13860    3      AS_FIELD1 = SERVICE_NAME;

  13860  3 002762   200036 470500                    LDP0    @SERVICE_NAME,,AUTO
         3 002763   000000 236100                    LDQ     0,,PR0
         3 002764   000033 772000                    QRL     27
         3 002765   000001 620006                    EAX0    1,QL
         3 002766   000000 100540                    MLR     fill='000'O
         3 002767   000000 000010                    ADSC9   0,,PR0                   cn=0,n=*X0
         3 002770   000000 000051 xsym               ADSC9   AS_FIELD1                cn=0,n=41

      714    13861    3      END;

PL6.E3A0      #001=ASC$LIMITS File=ASC$LIMITS.:E05TSI                            TUE 07/29/97 09:35 Page:133
  13861  3 002771   003144 710000 3                  TRA     s:13935

      715    13862    3   ELSE DO;

      716    13863    3      IF DEFAULT <= MAX THEN RETURN;

  13863  3 002772   200035 471500                    LDP1    @MAX,,AUTO
         3 002773   200034 473500                    LDP3    @DEFAULT,,AUTO
         3 002774   100000 236100                    LDQ     0,,PR1
         3 002775   300000 116100                    CMPQ    0,,PR3
         3 002776   003000 602000 3                  TNC     s:13864

  13863  3 002777   000001 702211                    TSX2  ! 1,X1

      717    13864    3      CALL CONCAT( AS_FIELD1.TEXT,

  13864  3 003000   200007 236100                    LDQ     MODE,,AUTO
         3 003001   000007 402007                    MPY     7,DL
         3 003002   000100 101406                    MRL     fill='000'O
         3 003003   000000 000001 xsym               ADSC9   AS_MODE,Q                cn=0,n=1
         3 003004   200040 000002                    ADSC9   @SERVICE_NAME+2,,AUTO    cn=0,n=2
         3 003005   200040 220100                    LDX0    @SERVICE_NAME+2,,AUTO
         3 003006   200036 474500                    LDP4    @SERVICE_NAME,,AUTO
         3 003007   400000 236100                    LDQ     0,,PR4
         3 003010   000033 772000                    QRL     27
         3 003011   000000 622006                    EAX2    0,QL
         3 003012   200007 236100                    LDQ     MODE,,AUTO
         3 003013   000007 402007                    MPY     7,DL
         3 003014   040000 100446                    MLR     fill='040'O
         3 003015   000000 200010 xsym               ADSC9   AS_MODE,Q                cn=1,n=*X0
         3 003016   000000 200050 xsym               ADSC9   AS_FIELD1                cn=1,n=40
         3 003017   000000 636010                    EAQ     0,X0
         3 003020   000022 772000                    QRL     18
         3 003021   000050 116007                    CMPQ    40,DL
         3 003022   003044 603000 3                  TRC     s:13867
         3 003023   200041 740100                    STX0    @SERVICE_NAME+3,,AUTO
         3 003024   777727 620010                    EAX0    -41,X0
PL6.E3A0      #001=ASC$LIMITS File=ASC$LIMITS.:E05TSI                            TUE 07/29/97 09:35 Page:134
         3 003025   777777 660003                    ERX0    -1,DU
         3 003026   200041 235100                    LDA     @SERVICE_NAME+3,,AUTO
         3 003027   000022 771000                    ARL     18
         3 003030   040045 100400                    MLR     fill='040'O
         3 003031   000035 000001 xsym               ADSC9   B_VECTNIL+29             cn=0,n=1
         3 003032   000000 200010 xsym               ADSC9   AS_FIELD1,A              cn=1,n=*X0
         3 003033   200041 236100                    LDQ     @SERVICE_NAME+3,,AUTO
         3 003034   000022 772000                    QRL     18
         3 003035   000047 116007                    CMPQ    39,DL
         3 003036   003044 603000 3                  TRC     s:13867
         3 003037   777730 620006                    EAX0    -40,QL
         3 003040   777777 660003                    ERX0    -1,DU
         3 003041   040046 100540                    MLR     fill='040'O
         3 003042   400000 200012                    ADSC9   0,,PR4                   cn=1,n=*X2
         3 003043   000000 400010 xsym               ADSC9   AS_FIELD1,Q              cn=2,n=*X0

      718    13865    3           SUBSTR( AS_MODE_ARRY.TXT(MODE), 0, AS_MODE_ARRY.CNT(MODE) ),
      719    13866    3           ' ', SERVICE_NAME.TXT );
      720    13867    3      AS_FIELD1.COUNT = AS_MODE_ARRY.CNT(MODE) + SERVICE_NAME.CNT + 1;

  13867  3 003044   400000 236100                    LDQ     0,,PR4
         3 003045   000033 772000                    QRL     27
         3 003046   200040 756100                    STQ     @SERVICE_NAME+2,,AUTO
         3 003047   200007 236100                    LDQ     MODE,,AUTO
         3 003050   000007 402007                    MPY     7,DL
         3 003051   000100 101406                    MRL     fill='000'O
         3 003052   000000 000001 xsym               ADSC9   AS_MODE,Q                cn=0,n=1
         3 003053   200041 000004                    ADSC9   @SERVICE_NAME+3,,AUTO    cn=0,n=4
         3 003054   200041 236100                    LDQ     @SERVICE_NAME+3,,AUTO
         3 003055   200040 036100                    ADLQ    @SERVICE_NAME+2,,AUTO
         3 003056   000001 036007                    ADLQ    1,DL
         3 003057   000033 736000                    QLS     27
         3 003060   000000 552040 xsym               STBQ    AS_FIELD1,'40'O

      721    13868    3      IF TYPE = 1 /* Time */

  13868  3 003061   000000 235100                    LDA     0,,PR0
PL6.E3A0      #001=ASC$LIMITS File=ASC$LIMITS.:E05TSI                            TUE 07/29/97 09:35 Page:135
         3 003062   000001 115007                    CMPA    1,DL
         3 003063   003122 601000 3                  TNZ     s:13918

      722    13869    4      THEN DO;

      723    13870              %NUMBER( NUM2="DEFAULT/6000", NUM3="MAX/6000" );
             13886    4         CALL ASB$BINCHAR( AS_FIELD2.TEXT, 0, -2, DEFAULT/6000 );

  13886  3 003064   300000 236100                    LDQ     0,,PR3
         3 003065   000001 772000                    QRL     1
         3 003066   005670 506007                    DIV     3000,DL
         3 003067   200040 756100                    STQ     @SERVICE_NAME+2,,AUTO
         3 003070   200040 635500                    EPPR5   @SERVICE_NAME+2,,AUTO
         3 003071   200045 455500                    STP5    @SERVICE_NAME+7,,AUTO
         3 003072   000043 236000 4                  LDQ     35
         3 003073   200044 756100                    STQ     @SERVICE_NAME+6,,AUTO
         3 003074   000044 237000 4                  LDAQ    36
         3 003075   200042 757100                    STAQ    @SERVICE_NAME+4,,AUTO
         3 003076   200042 630500                    EPPR0   @SERVICE_NAME+4,,AUTO
         3 003077   000022 631400 xsym               EPPR1   B_VECTNIL+18
         3 003100   000000 701000 xent               TSX1    ASB$BINCHAR
         3 003101   000000 011000                    NOP     0

             13894    4         CALL ASB$BINCHAR( AS_FIELD3.TEXT, 0, -3, MAX/6000 );

  13894  3 003102   200035 470500                    LDP0    @MAX,,AUTO
         3 003103   000000 236100                    LDQ     0,,PR0
         3 003104   000001 772000                    QRL     1
         3 003105   005670 506007                    DIV     3000,DL
         3 003106   200040 756100                    STQ     @SERVICE_NAME+2,,AUTO
         3 003107   200040 631500                    EPPR1   @SERVICE_NAME+2,,AUTO
         3 003110   200045 451500                    STP1    @SERVICE_NAME+7,,AUTO
         3 003111   000047 236000 4                  LDQ     39
         3 003112   200044 756100                    STQ     @SERVICE_NAME+6,,AUTO
         3 003113   000050 237000 4                  LDAQ    40
         3 003114   200042 757100                    STAQ    @SERVICE_NAME+4,,AUTO
         3 003115   200042 630500                    EPPR0   @SERVICE_NAME+4,,AUTO
PL6.E3A0      #001=ASC$LIMITS File=ASC$LIMITS.:E05TSI                            TUE 07/29/97 09:35 Page:136
         3 003116   000022 631400 xsym               EPPR1   B_VECTNIL+18
         3 003117   000000 701000 xent               TSX1    ASB$BINCHAR
         3 003120   000000 011000                    NOP     0

      724    13900    4         END;

  13900  3 003121   003144 710000 3                  TRA     s:13935

      725    13901    4      ELSE DO;

      726    13902              %NUMBER( NUM2=DEFAULT, NUM3=MAX );
             13918    4         CALL ASB$BINCHAR( AS_FIELD2.TEXT, 0, -2, DEFAULT );

  13918  3 003122   200034 236100                    LDQ     @DEFAULT,,AUTO
         3 003123   000043 235000 4                  LDA     35
         3 003124   200042 757100                    STAQ    @SERVICE_NAME+4,,AUTO
         3 003125   000044 237000 4                  LDAQ    36
         3 003126   200040 757100                    STAQ    @SERVICE_NAME+2,,AUTO
         3 003127   200040 630500                    EPPR0   @SERVICE_NAME+2,,AUTO
         3 003130   000022 631400 xsym               EPPR1   B_VECTNIL+18
         3 003131   000000 701000 xent               TSX1    ASB$BINCHAR
         3 003132   000000 011000                    NOP     0

             13926    4         CALL ASB$BINCHAR( AS_FIELD3.TEXT, 0, -3, MAX );

  13926  3 003133   200035 236100                    LDQ     @MAX,,AUTO
         3 003134   000047 235000 4                  LDA     39
         3 003135   200042 757100                    STAQ    @SERVICE_NAME+4,,AUTO
         3 003136   000050 237000 4                  LDAQ    40
         3 003137   200040 757100                    STAQ    @SERVICE_NAME+2,,AUTO
         3 003140   200040 630500                    EPPR0   @SERVICE_NAME+2,,AUTO
         3 003141   000022 631400 xsym               EPPR1   B_VECTNIL+18
         3 003142   000000 701000 xent               TSX1    ASB$BINCHAR
         3 003143   000000 011000                    NOP     0

      727    13932    4         END;

PL6.E3A0      #001=ASC$LIMITS File=ASC$LIMITS.:E05TSI                            TUE 07/29/97 09:35 Page:137
      728    13933    3      END;

      729    13934
      730    13935    2   IF AS_WILD_USER THEN CALL ASB$FLUSH_ERR;

  13935  3 003144   000000 234000 xsym               SZN     AS_WILD_USER
         3 003145   003151 605000 3                  TPL     s:13953

  13935  3 003146   000002 631400 xsym               EPPR1   B_VECTNIL+2
         3 003147   000000 701000 xent               TSX1    ASB$FLUSH_ERR
         3 003150   000000 011000                    NOP     0

      731    13936        /**/
      732    13937        /*E*  ERROR:    ASC-E$DEFAULT_GT_MAX-C
      733    13938              MESSAGE: ***  Default value is greater than maximum value for% %U1%.
      734    13939              MESSAGE1: ***  Default value is greater than maximum value for %U1.
      735    13940                             Default value = %U2.  Maximum value = %U3.
      736    13941                             Setting default %%U1 %to maximum% %U1%.
      737    13942        */
      738    13943        %SCREAM( ERR#=E$DEFAULT_GT_MAX, LEVEL=WARN, MID='C' );

  13953  3 003151   000052 630400 4                  EPPR0   42
         3 003152   000017 631400 xsym               EPPR1   B_VECTNIL+15
         3 003153   000000 701000 xent               TSX1    ASH$WARN
         3 003154   000000 011000                    NOP     0

      739    13958    2   DEFAULT = MAX;

  13958  3 003155   200035 470500                    LDP0    @MAX,,AUTO
         3 003156   200034 471500                    LDP1    @DEFAULT,,AUTO
         3 003157   000000 235100                    LDA     0,,PR0
         3 003160   100000 755100                    STA     0,,PR1

      740    13959                                                              /**/
      741    13960    2   RETURN ;

  13960  3 003161   200032 221300                    LDX1  ! TOTAL+3,,AUTO
PL6.E3A0      #001=ASC$LIMITS File=ASC$LIMITS.:E05TSI                            TUE 07/29/97 09:35 Page:138
         3 003162   000001 702211                    TSX2  ! 1,X1

      742    13961    2   END   CHECK_DEFAULT_MAX;
      743    13962        %EJECT;
PL6.E3A0      #001=ASC$LIMITS File=ASC$LIMITS.:E05TSI                            TUE 07/29/97 09:35 Page:139
      744    13963    1   CHECK_PROJ_MAX: PROC( TYPE, PROJECT_MAX, MAX, SERVICE_NAME );

  13963  3 003163   200032 741300       CHECK_PROJ_* STX1  ! TOTAL+3,,AUTO

      745    13964
      746    13965
      747    13966
      748    13967        /*********************************************************************/
      749    13968        /*   Parameters      parameters      parameters      parameters      */
      750    13969        /*********************************************************************/
      751    13970
      752    13971    2   DCL TYPE              UBIN;
      753    13972    2   DCL PROJECT_MAX       UBIN    ALIGNED;
      754    13973    2   DCL PROJECT_MAX_SBIN  REDEF   PROJECT_MAX SBIN ALIGNED;
      755    13974    2   DCL MAX               UBIN    ALIGNED;
      756    13975    2   DCL MAX_SBIN          REDEF   MAX         SBIN ALIGNED;
      757    13976    2   DCL 1 SERVICE_NAME ALIGNED,
      758    13977    2          2 CNT UBIN BYTE UNAL,
      759    13978    2          2 TXT CHAR(SERVICE_NAME.CNT);
      760    13979
      761    13980
      762    13981
      763    13982        %EJECT ;
PL6.E3A0      #001=ASC$LIMITS File=ASC$LIMITS.:E05TSI                            TUE 07/29/97 09:35 Page:140
      764    13983                                                              /* Check that maximum
      765    13984                                                                 is not greater than
      766    13985                                                                 maximum allowed
      767    13986                                                                 for the project */
      768    13987    2   IF MAX <= PROJECT_MAX THEN RETURN;

  13987  3 003164   200034 470500                    LDP0    @PROJECT_MAX,,AUTO
         3 003165   200035 471500                    LDP1    @MAX,,AUTO
         3 003166   000000 236100                    LDQ     0,,PR0
         3 003167   100000 116100                    CMPQ    0,,PR1
         3 003170   003172 602000 3                  TNC     s:13988

  13987  3 003171   000001 702211                    TSX2  ! 1,X1

      769    13988    2   IF TYPE = 0 /* Expire */

  13988  3 003172   200033 473500                    LDP3    @TYPE,,AUTO
         3 003173   300000 235100                    LDA     0,,PR3
         3 003174   003216 601000 3                  TNZ     s:14023

      770    13989    3   THEN DO;

      771    13990           %NUMBER( NUM2=PROJECT_MAX );
             14006    3         CALL ASB$BINCHAR( AS_FIELD2.TEXT, 0, -2, PROJECT_MAX );

  14006  3 003175   200034 236100                    LDQ     @PROJECT_MAX,,AUTO
         3 003176   000043 235000 4                  LDA     35
         3 003177   200042 757100                    STAQ    @SERVICE_NAME+4,,AUTO
         3 003200   000044 237000 4                  LDAQ    36
         3 003201   200040 757100                    STAQ    @SERVICE_NAME+2,,AUTO
         3 003202   200040 630500                    EPPR0   @SERVICE_NAME+2,,AUTO
         3 003203   000022 631400 xsym               EPPR1   B_VECTNIL+18
         3 003204   000000 701000 xent               TSX1    ASB$BINCHAR
         3 003205   000000 011000                    NOP     0

      772    14020    3      AS_FIELD1 = SERVICE_NAME;

PL6.E3A0      #001=ASC$LIMITS File=ASC$LIMITS.:E05TSI                            TUE 07/29/97 09:35 Page:141
  14020  3 003206   200036 470500                    LDP0    @SERVICE_NAME,,AUTO
         3 003207   000000 236100                    LDQ     0,,PR0
         3 003210   000033 772000                    QRL     27
         3 003211   000001 620006                    EAX0    1,QL
         3 003212   000000 100540                    MLR     fill='000'O
         3 003213   000000 000010                    ADSC9   0,,PR0                   cn=0,n=*X0
         3 003214   000000 000051 xsym               ADSC9   AS_FIELD1                cn=0,n=41

      773    14021    3      END;

  14021  3 003215   003340 710000 3                  TRA     s:14099

      774    14022    3   ELSE DO;

      775    14023    3      IF TYPE = 4 /* Outputprio */

  14023  3 003216   000004 115007                    CMPA    4,DL
         3 003217   003224 601000 3                  TNZ     s:14027

      776    14024    3      THEN
      777    14025    3         AS_FIELD1 = OUTPUTPRIO_TEXTC;

  14025  3 003220   000000 100400                    MLR     fill='000'O
         3 003221   000026 000013 2                  ADSC9   OUTPUTPRIO_TEXTC         cn=0,n=11
         3 003222   000000 000051 xsym               ADSC9   AS_FIELD1                cn=0,n=41
         3 003223   003305 710000 3                  TRA     s:14032

      778    14026    4      ELSE DO;

      779    14027    4         CALL CONCAT( AS_FIELD1.TEXT,

  14027  3 003224   200007 236100                    LDQ     MODE,,AUTO
         3 003225   000007 402007                    MPY     7,DL
         3 003226   000100 101406                    MRL     fill='000'O
         3 003227   000000 000001 xsym               ADSC9   AS_MODE,Q                cn=0,n=1
         3 003230   200040 000002                    ADSC9   @SERVICE_NAME+2,,AUTO    cn=0,n=2
         3 003231   200040 220100                    LDX0    @SERVICE_NAME+2,,AUTO
PL6.E3A0      #001=ASC$LIMITS File=ASC$LIMITS.:E05TSI                            TUE 07/29/97 09:35 Page:142
         3 003232   200036 474500                    LDP4    @SERVICE_NAME,,AUTO
         3 003233   400000 236100                    LDQ     0,,PR4
         3 003234   000033 772000                    QRL     27
         3 003235   000000 622006                    EAX2    0,QL
         3 003236   200007 236100                    LDQ     MODE,,AUTO
         3 003237   000007 402007                    MPY     7,DL
         3 003240   040000 100446                    MLR     fill='040'O
         3 003241   000000 200010 xsym               ADSC9   AS_MODE,Q                cn=1,n=*X0
         3 003242   000000 200050 xsym               ADSC9   AS_FIELD1                cn=1,n=40
         3 003243   000000 636010                    EAQ     0,X0
         3 003244   000022 772000                    QRL     18
         3 003245   000050 116007                    CMPQ    40,DL
         3 003246   003270 603000 3                  TRC     s:14030
         3 003247   200041 740100                    STX0    @SERVICE_NAME+3,,AUTO
         3 003250   777727 620010                    EAX0    -41,X0
         3 003251   777777 660003                    ERX0    -1,DU
         3 003252   200041 235100                    LDA     @SERVICE_NAME+3,,AUTO
         3 003253   000022 771000                    ARL     18
         3 003254   040045 100400                    MLR     fill='040'O
         3 003255   000035 000001 xsym               ADSC9   B_VECTNIL+29             cn=0,n=1
         3 003256   000000 200010 xsym               ADSC9   AS_FIELD1,A              cn=1,n=*X0
         3 003257   200041 236100                    LDQ     @SERVICE_NAME+3,,AUTO
         3 003260   000022 772000                    QRL     18
         3 003261   000047 116007                    CMPQ    39,DL
         3 003262   003270 603000 3                  TRC     s:14030
         3 003263   777730 620006                    EAX0    -40,QL
         3 003264   777777 660003                    ERX0    -1,DU
         3 003265   040046 100540                    MLR     fill='040'O
         3 003266   400000 200012                    ADSC9   0,,PR4                   cn=1,n=*X2
         3 003267   000000 400010 xsym               ADSC9   AS_FIELD1,Q              cn=2,n=*X0

      780    14028    4              SUBSTR(AS_MODE_ARRY.TXT(MODE), 0, AS_MODE_ARRY.CNT(MODE)),
      781    14029    4              ' ', SERVICE_NAME.TXT );
      782    14030    4         AS_FIELD1.COUNT = AS_MODE_ARRY.CNT(MODE) + SERVICE_NAME.CNT + 1;

  14030  3 003270   400000 236100                    LDQ     0,,PR4
         3 003271   000033 772000                    QRL     27
PL6.E3A0      #001=ASC$LIMITS File=ASC$LIMITS.:E05TSI                            TUE 07/29/97 09:35 Page:143
         3 003272   200040 756100                    STQ     @SERVICE_NAME+2,,AUTO
         3 003273   200007 236100                    LDQ     MODE,,AUTO
         3 003274   000007 402007                    MPY     7,DL
         3 003275   000100 101406                    MRL     fill='000'O
         3 003276   000000 000001 xsym               ADSC9   AS_MODE,Q                cn=0,n=1
         3 003277   200041 000004                    ADSC9   @SERVICE_NAME+3,,AUTO    cn=0,n=4
         3 003300   200041 236100                    LDQ     @SERVICE_NAME+3,,AUTO
         3 003301   200040 036100                    ADLQ    @SERVICE_NAME+2,,AUTO
         3 003302   000001 036007                    ADLQ    1,DL
         3 003303   000033 736000                    QLS     27
         3 003304   000000 552040 xsym               STBQ    AS_FIELD1,'40'O

      783    14031    4         END;

      784    14032    3      IF TYPE = 1 /* Time */

  14032  3 003305   300000 235100                    LDA     0,,PR3
         3 003306   000001 115007                    CMPA    1,DL
         3 003307   003327 601000 3                  TNZ     s:14082

      785    14033    4      THEN DO;

      786    14034              %NUMBER( NUM2="PROJECT_MAX/6000" );
             14050    4         CALL ASB$BINCHAR( AS_FIELD2.TEXT, 0, -2, PROJECT_MAX/6000 );

  14050  3 003310   000000 236100                    LDQ     0,,PR0
         3 003311   000001 772000                    QRL     1
         3 003312   005670 506007                    DIV     3000,DL
         3 003313   200040 756100                    STQ     @SERVICE_NAME+2,,AUTO
         3 003314   200040 634500                    EPPR4   @SERVICE_NAME+2,,AUTO
         3 003315   200045 454500                    STP4    @SERVICE_NAME+7,,AUTO
         3 003316   000043 236000 4                  LDQ     35
         3 003317   200044 756100                    STQ     @SERVICE_NAME+6,,AUTO
         3 003320   000044 237000 4                  LDAQ    36
         3 003321   200042 757100                    STAQ    @SERVICE_NAME+4,,AUTO
         3 003322   200042 630500                    EPPR0   @SERVICE_NAME+4,,AUTO
         3 003323   000022 631400 xsym               EPPR1   B_VECTNIL+18
PL6.E3A0      #001=ASC$LIMITS File=ASC$LIMITS.:E05TSI                            TUE 07/29/97 09:35 Page:144
         3 003324   000000 701000 xent               TSX1    ASB$BINCHAR
         3 003325   000000 011000                    NOP     0

      787    14064    4         END;

  14064  3 003326   003340 710000 3                  TRA     s:14099

      788    14065    4      ELSE DO;

      789    14066              %NUMBER( NUM2=PROJECT_MAX );
             14082    4         CALL ASB$BINCHAR( AS_FIELD2.TEXT, 0, -2, PROJECT_MAX );

  14082  3 003327   200034 236100                    LDQ     @PROJECT_MAX,,AUTO
         3 003330   000043 235000 4                  LDA     35
         3 003331   200042 757100                    STAQ    @SERVICE_NAME+4,,AUTO
         3 003332   000044 237000 4                  LDAQ    36
         3 003333   200040 757100                    STAQ    @SERVICE_NAME+2,,AUTO
         3 003334   200040 630500                    EPPR0   @SERVICE_NAME+2,,AUTO
         3 003335   000022 631400 xsym               EPPR1   B_VECTNIL+18
         3 003336   000000 701000 xent               TSX1    ASB$BINCHAR
         3 003337   000000 011000                    NOP     0

      790    14096    4         END;

      791    14097    3      END;

      792    14098
      793    14099    3   DO SELECT( AS_CR_MOD_PROJ );

  14099  3 003340   000000 236000 xsym               LDQ     AS_CR_MOD_PROJ
         3 003341   000002 116007                    CMPQ    2,DL
         3 003342   003347 604000 3                  TMI     s:14099+7
         3 003343   003357 600000 3                  TZE     s:14140
         3 003344   000003 116007                    CMPQ    3,DL
         3 003345   003370 601000 3                  TNZ     s:14166
         3 003346   003364 710000 3                  TRA     s:14162
         3 003347   000001 116007                    CMPQ    1,DL
PL6.E3A0      #001=ASC$LIMITS File=ASC$LIMITS.:E05TSI                            TUE 07/29/97 09:35 Page:145
         3 003350   003370 601000 3                  TNZ     s:14166
         3 003351   003352 710000 3                  TRA     s:14118

      794    14100    3      SELECT( %CR_PROJ_USER );

      795    14101        /*E*  ERROR:  ASC-E$USERLIM_GT_PROJLIM-C
      796    14102              MESSAGE: %U1 value is too large. Set to maximum of %U2.
      797    14103              MESSAGE1: %U1 can be at most %U2 for a user in your project.
      798    14104                        Setting %U1 to %U2.
      799    14105        */
      800    14106           %SCREAM( ERR#=E$USERLIM_GT_PROJLIM, LEVEL=ERROR, MID='C' );

  14118  3 003352   000053 630400 4                  EPPR0   43
         3 003353   000017 631400 xsym               EPPR1   B_VECTNIL+15
         3 003354   000000 701000 xent               TSX1    ASH$ERROR
         3 003355   000000 011000                    NOP     0
         3 003356   003370 710000 3                  TRA     s:14166

      801    14121
      802    14122    3      SELECT( %CR_PROJECT );

      803    14123        /*E*  ERROR:  ASC-E$PROJLIM_GT_PROJLIM-C
      804    14124              MESSAGE: %U1 value is too large. Set to maximum of %U2.
      805    14125              MESSAGE1: %U1 can be at most %U2 for projects you create.
      806    14126                        Setting %U1 to %U2.
      807    14127        */
      808    14128           %SCREAM( ERR#=E$PROJLIM_GT_PROJLIM, LEVEL=ERROR, MID='C' );

  14140  3 003357   000054 630400 4                  EPPR0   44
         3 003360   000017 631400 xsym               EPPR1   B_VECTNIL+15
         3 003361   000000 701000 xent               TSX1    ASH$ERROR
         3 003362   000000 011000                    NOP     0
         3 003363   003370 710000 3                  TRA     s:14166

      809    14143
      810    14144    3      SELECT( %CR_PROJ_DEFAULT );

PL6.E3A0      #001=ASC$LIMITS File=ASC$LIMITS.:E05TSI                            TUE 07/29/97 09:35 Page:146
      811    14145        /*E*  ERROR:  ASC-E$DFLTLIM_GT_PROJLIM-C
      812    14146              MESSAGE: %U1 value is too large.  Set to maximum of %U2.
      813    14147              MESSAGE1: %U1 can be at most %U2 for users in a project you create.
      814    14148                        Setting %U1 to %U2.
      815    14149        */
      816    14150           %SCREAM( ERR#=E$DFLTLIM_GT_PROJLIM, LEVEL=ERROR, MID='C' );

  14162  3 003364   000055 630400 4                  EPPR0   45
         3 003365   000017 631400 xsym               EPPR1   B_VECTNIL+15
         3 003366   000000 701000 xent               TSX1    ASH$ERROR
         3 003367   000000 011000                    NOP     0

      817    14165    3      END;                  /* Do case( AS_CR_MOD_PROJ ); */

      818    14166    2   MAX = PROJECT_MAX;

  14166  3 003370   200034 470500                    LDP0    @PROJECT_MAX,,AUTO
         3 003371   200035 471500                    LDP1    @MAX,,AUTO
         3 003372   000000 235100                    LDA     0,,PR0
         3 003373   100000 755100                    STA     0,,PR1

      819    14167                                                              /**/
      820    14168    2   RETURN ;

  14168  3 003374   200032 221300                    LDX1  ! TOTAL+3,,AUTO
         3 003375   000001 702211                    TSX2  ! 1,X1
      821    14169    2   END   CHECK_PROJ_MAX;
      822    14170    1   END   ASC$LIMITS ;

PL6.E3A0      #001=ASC$LIMITS File=ASC$LIMITS.:E05TSI                            TUE 07/29/97 09:35 Page:147
--  Include file information  --

   AS_SUPER_R.:E05TOU  cannot be made into a system file and is referenced.
   CP_6.:E05TOU  cannot be made into a system file and is referenced.
   XU_FORMAT_C.:E05TOU  is referenced.
   XU_MACRO_C.:E05TOU  is referenced.
   AS_MAC_C.:E05TOU  cannot be made into a system file and is referenced.
   KL_SUPER_C.:E05TOU  is referenced.
   AS_PERR_C.:E05TOU  is referenced.
   AS_SUBS_C.:E05TOU  is referenced.
   AS_SUPER_C.:E05TOU  is referenced.
   AS_ENTRIES_M.:E05TOU  is referenced.
   B$JIT_C.:E05TOU  was found in the system file and is never referenced.
   CP_6_C.:E05TOU  was found in the system file and is referenced.
      No diagnostics issued in procedure ASC$LIMITS.
PL6.E3A0      #001=ASC$LIMITS File=ASC$LIMITS.:E05TSI                            TUE 07/29/97 09:35 Page:148

 **** Variables and constants ****

  ****  Section 002 RoData ASC$LIMITS

  ****  Scalars and arrays  ****
OctLoc.c.b A Datatyp(siz) R M Lvl/name                 OctLoc.c.b A Datatyp(siz) R M Lvl/name

    16-0-0/w STRC(72)    r     1 DEFAULT_TEXTC              1-0-0/w STRC(27)    r     1 DO_TEXTC
    24-0-0/w STRC(63)    r     1 EXPIRE_TEXTC               7-0-0/w STRC(63)    r     1 FPOOLS_TEXTC
     0-0-0/w STRC(27)    r     1 LO_TEXTC                  14-0-0/w STRC(72)    r     1 MAXIMUM_TEXTC
    11-0-0/w STRC(99)    r     1 MAXJOBPRIO_TEXTC          22-0-0/w STRC(63)    r     1 MEMORY_TEXTC
    31-0-0/w STRC(54)    r     1 NEVER_TEXTC               26-0-0/w STRC(99)    r     1 OUTPUTPRIO_TEXTC
     3-0-0/w STRC(45)    r     1 PDIS_TEXTC                 2-0-0/w STRC(27)    r     1 PO_TEXTC
     5-0-0/w STRC(45)    r     1 TDIS_TEXTC                20-0-0/w STRC(45)    r     1 TIME_TEXTC

  ****  Auto variables  ****

  ****  Scalars and arrays  ****
OctLoc.c.b A Datatyp(siz) R M Lvl/name                 OctLoc.c.b A Datatyp(siz) R M Lvl/name

    34-0-0/w PTR         r     1 @DEFAULT                  35-0-0/w PTR         r     1 @MAX
    35-0-0/w PTR         r     1 @MAX                      34-0-0/w PTR         r     1 @PROJECT_MAX
    36-0-0/w PTR         r     1 @SERVICE_NAME             36-0-0/w PTR         r     1 @SERVICE_NAME
     3-0-0/w PTR         r     1 @SUBND$                   33-0-0/w PTR         r     1 @TYPE
    33-0-0/w PTR         r     1 @TYPE                      4-0-0/w UBIN        r     1 ARS
    13-0-0/w PTR         r     1 BLK$                      26-0-0/w UBIN        r     1 DEFAULT
    *0-0-0/w UBIN        r     1 DEFAULT                   *0-0-0/w SBIN        r     1 DEFAULT_SBIN
     5-0-0/w UBIN        r     1 I                          6-0-0/w UBIN        r     1 J
    25-0-0/w UBIN        r     1 MAX                       *0-0-0/w UBIN        r     1 MAX
    *0-0-0/w UBIN        r     1 MAX                        7-0-0/w UBIN        r     1 MODE
    16-0-0/b BIT         r     1 MORE                      *0-0-0/w UBIN        r     1 PROJECT_MAX
    24-0-0/w UBIN        r     1 PROJ_MAX                  15-0-0/w PTR         r     1 PTR$
    20-0-0/w PTR         r     1 ROOT$                     *0-0-0/w ASTR(9)     r     1 SERVICE_NAME
    *0-0-0/w ASTR(9)     r     1 SERVICE_NAME              14-0-0/w PTR         r     1 STR$
    *0-0-0/w PTR         r     1 SUBND$                    10-0-0/w UBIN        r     1 SUBNDS
    11-0-0/w UBIN        r     1 SUBS                      27-0-0/w SBIN        r     1 TOTAL
    *0-0-0/w UBIN        r     1 TYPE                      *0-0-0/w UBIN        r     1 TYPE
PL6.E3A0      #001=ASC$LIMITS File=ASC$LIMITS.:E05TSI                            TUE 07/29/97 09:35 Page:149
    23-0-0/w PTR         r     1 T_NODE$                   12-0-0/w SBIN        r     1 VAL
    21-0-0/w UBIN        r     1 WKSZ                      22-0-0/w UBIN        r     1 WK_USED
    17-0-0/w PTR         r     1 WORK$

  ****  SYMREF variables  ****

  ****  Scalars and arrays  ****
OctLoc.c.b A Datatyp(siz) R M Lvl/name                 OctLoc.c.b A Datatyp(siz) R M Lvl/name

     0-0-0/w SBIN        r     1 AS_CR_MOD_PROJ             0-0-0/w STRC(18576) r     1 AS_DFLT
     0-0-0/b BIT         r     1 AS_FALSE                   0-0-0/w STRC(369)   r     1 AS_FIELD1
     0-0-0/w STRC(369)   r     1 AS_FIELD2                  0-0-0/w STRC(369)   r     1 AS_FIELD3
     0-0-0/c STRC(315)   r     1 AS_MODE
     0-0-0/c STRC(63)    r     1 AS_MODE_ARRY(0:4)
     0-0-0/w STRC(1483)  r     1 AS_MOD_USER                0-0-0/b BIT         r     1 AS_TRUE
     0-0-0/w STRC(18576) r     1 AS_USERS                   0-0-0/b BIT         r     1 AS_WILD_USER
     0-0-0/w UBIN        r     1 CODE                       0-0-0/b STRC        r     1 ERR_CODE
     0-0-0/c CHAR(255)   r     1 IN_BUF                     0-0-0/w PTR         r     1 NODE$
     0-0-0/w STRC(504)   r     1 P_PCB                      0-0-0/d REMB        r     1 REMEM_VAR
     0-0-0/w UBIN        r     1 SERV_OPT_LIST

  ****  BASED and DCB variables  ****

  ****  Scalars and arrays  ****
OctLoc.c.b A Datatyp(siz) R M Lvl/name                 OctLoc.c.b A Datatyp(siz) R M Lvl/name

     0-0-0/w ASTR(153)   r     1 OUT$SYM                    0-0-0/w STRC(144)   r     1 P$NODE
     0-0-0/w ASTR(9)     r     1 VARY$STR


   Procedure ASC$LIMITS requires 1790 words for executable code.
   Procedure ASC$LIMITS requires 38 words of local(AUTO) storage.

    No errors detected in file ASC$LIMITS.:E05TSI    .
PL6.E3A0      #001=ASC$LIMITS File=ASC$LIMITS.:E05TSI                            TUE 07/29/97 09:35 Page:150
          *** CROSS REFERENCE LISTING ***
**     DENOTES     IDENTIFIER DEFINITION
<<                 IDENTIFIER'S VALUE SET
>>                 IDENTIFIER'S VALUE USED
<>                 IDENTIFIER SET AND/OR USED
--                 IDENTIFIER REFERENCED
PL6.E3A0      #001=ASC$LIMITS File=ASC$LIMITS.:E05TSI                            TUE 07/29/97 09:35 Page:151
          MINI XREF LISTING

ARS
     12879**DCL     13292<>CALL    13293>>ASSIGN
ASA_BRKS_LOC
     10015**DCL     10015--REDEF
ASB$BINCHAR
      6500**DCL-ENT 13815--CALL    13854--CALL    13886--CALL    13894--CALL    13918--CALL    13926--CALL
     14006--CALL    14050--CALL    14082--CALL
ASB$FLUSH_ERR
     12986**DCL-ENT 13935--CALL
ASB$READ_SI
     12965**DCL-ENT 13292--CALL
ASB$SET_PROMPT
     12968**DCL-ENT 13285--CALL
ASH$DQUEST
     12980**DCL-ENT 13323--CALL
ASH$ERROR
     12971**DCL-ENT 13117--CALL    13416--CALL    13441--CALL    13475--CALL    13496--CALL    13527--CALL
     13561--CALL    13582--CALL    13612--CALL    13635--CALL    14118--CALL    14140--CALL    14162--CALL
ASH$HELP
     12977**DCL-ENT 13320--CALL
ASH$QUEST
     12983**DCL-ENT 13326--CALL
ASH$WARN
     12974**DCL-ENT 13220--CALL    13245--CALL    13953--CALL
AS_CR_MOD_PROJ
     10023**DCL     13132>>IF      13167>>IF      13199>>IF      13336>>IF      13348>>IF      13360>>IF
     13372>>IF      13384>>IF      13446>>IF      13532>>IF      14099>>DOSELCT
AS_DEFAULT.BANNER_PERM
     10708**DCL     10709--REDEF
AS_DEFAULT.BUDGET.MACCT
     10613**DCL     10617--REDEF
AS_DEFAULT.BUDGET.MAX_PROJECTS
PL6.E3A0      #001=ASC$LIMITS File=ASC$LIMITS.:E05TSI                            TUE 07/29/97 09:35 Page:152
     10626**DCL     10629--REDEF
AS_DEFAULT.BUDGET.PACCUM
     10609**DCL     10611--REDEF
AS_DEFAULT.BUDGET.PMAXC
     10604**DCL     10606--REDEF
AS_DEFAULT.SETUP_CHRA.TXT
     10724**DCL     10725--REDEF   10726--REDEF
AS_DEFAULT_DREC.PASSWORD
     11978**DCL     11982--REDEF
AS_DEFAULT_DREC.RENAME
     12001**DCL     12002--REDEF
AS_DFLT.BANNER_PERM
     10530**DCL     10531--REDEF
AS_DFLT.BUDGET.MACCT
     10435**DCL     10439--REDEF
AS_DFLT.BUDGET.MAX_PROJECTS
     10448**DCL     10451--REDEF
AS_DFLT.BUDGET.PACCUM
     10431**DCL     10433--REDEF
AS_DFLT.BUDGET.PMAXC
     10426**DCL     10428--REDEF
AS_DFLT.DDO
     10467**DCL     13703>>ASSIGN
AS_DFLT.DEXP
     10504**DCL     13657>>ASSIGN
AS_DFLT.DFPOOLS
     10475**DCL     13747>>ASSIGN
AS_DFLT.DLO
     10465**DCL     13692>>ASSIGN
AS_DFLT.DMEM
     10515**DCL     13678>>ASSIGN
AS_DFLT.DMPRIO
     10477**DCL     13761>>ASSIGN
AS_DFLT.DPDIS
     10471**DCL     13725>>ASSIGN
AS_DFLT.DPO
PL6.E3A0      #001=ASC$LIMITS File=ASC$LIMITS.:E05TSI                            TUE 07/29/97 09:35 Page:153
     10469**DCL     13714>>ASSIGN
AS_DFLT.DTDIS
     10473**DCL     13736>>ASSIGN
AS_DFLT.DTIME
     10512**DCL     13667>>ASSIGN
AS_DFLT.MDO
     10466**DCL     13349<>CALL    13701>>ASSIGN
AS_DFLT.MEXP
     10503**DCL     13133<>CALL    13655>>ASSIGN
AS_DFLT.MFPOOLS
     10474**DCL     13448>>ASSIGN  13745>>ASSIGN
AS_DFLT.MLO
     10464**DCL     13337<>CALL    13690>>ASSIGN
AS_DFLT.MMEM
     10514**DCL     13201>>ASSIGN  13676>>ASSIGN
AS_DFLT.MMPRIO
     10476**DCL     13534>>ASSIGN  13759>>ASSIGN
AS_DFLT.MPDIS
     10470**DCL     13373<>CALL    13723>>ASSIGN
AS_DFLT.MPO
     10468**DCL     13361<>CALL    13712>>ASSIGN
AS_DFLT.MTDIS
     10472**DCL     13385<>CALL    13734>>ASSIGN
AS_DFLT.MTIME
     10511**DCL     13168<>CALL    13665>>ASSIGN
AS_DFLT.OUTPUTPRIO
     10457**DCL     13641>>ASSIGN  13651>>ASSIGN
AS_DFLT.SETUP_CHRA.TXT
     10546**DCL     10547--REDEF   10548--REDEF
AS_FALSE
      9875**DCL     13307>>ASSIGN
AS_FE_MODE
      9881**DCL      9882--REDEF
AS_FIELD1
     10011**DCL     13402<<ASSIGN  13427<<ASSIGN  13461<<ASSIGN  13482<<ASSIGN  13513<<ASSIGN  13547<<ASSIGN
     13860<<ASSIGN  14020<<ASSIGN  14025<<ASSIGN
PL6.E3A0      #001=ASC$LIMITS File=ASC$LIMITS.:E05TSI                            TUE 07/29/97 09:35 Page:154
AS_FIELD1.COUNT
     10012**DCL     13867<<ASSIGN  14030<<ASSIGN
AS_FIELD1.TEXT
     10012**DCL     13864<<CALLBLT 14027<<CALLBLT
AS_FIELD2
     10012**DCL     13403<<ASSIGN  13428<<ASSIGN  13462<<ASSIGN  13483<<ASSIGN  13514<<ASSIGN  13548<<ASSIGN
     13797<<ASSIGN
AS_FIELD2.TEXT
     10012**DCL     13815<>CALL    13886<>CALL    13918<>CALL    14006<>CALL    14050<>CALL    14082<>CALL
AS_FIELD3.TEXT
     10013**DCL     13854<>CALL    13894<>CALL    13926<>CALL
AS_MODE
      9878**DCL      9880--REDEF
AS_MODE_ARRY
      9880**DCL     13403>>ASSIGN  13428>>ASSIGN  13462>>ASSIGN  13483>>ASSIGN  13514>>ASSIGN  13548>>ASSIGN
AS_MODE_ARRY.CNT
      9881**DCL     13864>>CALLBLT 13867>>ASSIGN  14027>>CALLBLT 14030>>ASSIGN
AS_MODE_ARRY.TXT
      9881**DCL     13864>>CALLBLT 14027>>CALLBLT
AS_MOD_USER.ACCESS
     12743**DCL     12744--REDEF
AS_MOD_USER.BANNER
     12730**DCL     12731--REDEF
AS_MOD_USER.BANNER_PERM
     12732**DCL     12733--REDEF
AS_MOD_USER.BILL
     12738**DCL     12739--REDEF
AS_MOD_USER.CPROC
     12734**DCL     12735--REDEF
AS_MOD_USER.FEBILL
     12814**DCL     12815--REDEF
AS_MOD_USER.FECXTMEM
     12831**DCL     12832--REDEF
AS_MOD_USER.FEMINTS
     12816**DCL     12817--REDEF
AS_MOD_USER.FEMMEM
PL6.E3A0      #001=ASC$LIMITS File=ASC$LIMITS.:E05TSI                            TUE 07/29/97 09:35 Page:155
     12827**DCL     12828--REDEF
AS_MOD_USER.FEMTIME
     12825**DCL     12826--REDEF
AS_MOD_USER.FEPPRIV
     12822**DCL     12824--REDEF
AS_MOD_USER.FEPRIV
     12819**DCL     12821--REDEF
AS_MOD_USER.FORCE_BIT
     12728**DCL     12729--REDEF
AS_MOD_USER.KEY
     12810**DCL     12812--REDEF
AS_MOD_USER.LASTCPROC
     12736**DCL     12737--REDEF
AS_MOD_USER.LIMITS.DO_
     12784**DCL     12785--REDEF   13696>>IF
AS_MOD_USER.LIMITS.DO_A
     12785**DCL     13698>>IF
AS_MOD_USER.LIMITS.DO_A.DDO
     12787**DCL     13357<<ASSIGN  13702>>IF
AS_MOD_USER.LIMITS.DO_A.MDO
     12786**DCL     13352<<ASSIGN  13700>>IF
AS_MOD_USER.LIMITS.EXPIRE
     12769**DCL     13652>>IF
AS_MOD_USER.LIMITS.EXPIRE.DEXP
     12771**DCL     13138<<ASSIGN  13656>>IF
AS_MOD_USER.LIMITS.EXPIRE.MEXP
     12770**DCL     13134<<ASSIGN  13654>>IF
AS_MOD_USER.LIMITS.FPOOLS
     12800**DCL     12801--REDEF   13740>>IF
AS_MOD_USER.LIMITS.FPOOLS_A
     12801**DCL     13742>>IF
AS_MOD_USER.LIMITS.FPOOLS_A.DFPOOLS
     12803**DCL     13503<<ASSIGN  13746>>IF
AS_MOD_USER.LIMITS.FPOOLS_A.MFPOOLS
     12802**DCL     13455<<ASSIGN  13744>>IF
AS_MOD_USER.LIMITS.LO
PL6.E3A0      #001=ASC$LIMITS File=ASC$LIMITS.:E05TSI                            TUE 07/29/97 09:35 Page:156
     12780**DCL     12781--REDEF   13685>>IF
AS_MOD_USER.LIMITS.LO_A
     12781**DCL     13687>>IF
AS_MOD_USER.LIMITS.LO_A.DLO
     12783**DCL     13345<<ASSIGN  13691>>IF
AS_MOD_USER.LIMITS.LO_A.MLO
     12782**DCL     13340<<ASSIGN  13689>>IF
AS_MOD_USER.LIMITS.MEM
     12776**DCL     12777--REDEF   13671>>IF
AS_MOD_USER.LIMITS.MEM_A
     12777**DCL     13673>>IF
AS_MOD_USER.LIMITS.MEM_A.DMEM
     12779**DCL     13255<<ASSIGN  13677>>IF
AS_MOD_USER.LIMITS.MEM_A.MMEM
     12778**DCL     13230<<ASSIGN  13675>>IF
AS_MOD_USER.LIMITS.MPRIO
     12804**DCL     12805--REDEF   13754>>IF
AS_MOD_USER.LIMITS.MPRIO_A
     12805**DCL     13756>>IF
AS_MOD_USER.LIMITS.MPRIO_A.DMPRIO
     12807**DCL     13568<<ASSIGN  13760>>IF
AS_MOD_USER.LIMITS.MPRIO_A.MMPRIO
     12806**DCL     13541<<ASSIGN  13758>>IF
AS_MOD_USER.LIMITS.OUTPUTPRIO
     12768**DCL     13644<<ASSIGN  13650>>IF
AS_MOD_USER.LIMITS.PDIS
     12792**DCL     12793--REDEF   13718>>IF
AS_MOD_USER.LIMITS.PDIS_A
     12793**DCL     13720>>IF
AS_MOD_USER.LIMITS.PDIS_A.DPDIS
     12795**DCL     13381<<ASSIGN  13724>>IF
AS_MOD_USER.LIMITS.PDIS_A.MPDIS
     12794**DCL     13376<<ASSIGN  13722>>IF
AS_MOD_USER.LIMITS.PO
     12788**DCL     12789--REDEF   13707>>IF
AS_MOD_USER.LIMITS.PO_A
PL6.E3A0      #001=ASC$LIMITS File=ASC$LIMITS.:E05TSI                            TUE 07/29/97 09:35 Page:157
     12789**DCL     13709>>IF
AS_MOD_USER.LIMITS.PO_A.DPO
     12791**DCL     13369<<ASSIGN  13713>>IF
AS_MOD_USER.LIMITS.PO_A.MPO
     12790**DCL     13364<<ASSIGN  13711>>IF
AS_MOD_USER.LIMITS.TDIS
     12796**DCL     12797--REDEF   13729>>IF
AS_MOD_USER.LIMITS.TDIS_A
     12797**DCL     13731>>IF
AS_MOD_USER.LIMITS.TDIS_A.DTDIS
     12799**DCL     13393<<ASSIGN  13735>>IF
AS_MOD_USER.LIMITS.TDIS_A.MTDIS
     12798**DCL     13388<<ASSIGN  13733>>IF
AS_MOD_USER.LIMITS.TIME
     12772**DCL     12773--REDEF   13660>>IF
AS_MOD_USER.LIMITS.TIME_A
     12773**DCL     13662>>IF
AS_MOD_USER.LIMITS.TIME_A.DTIME
     12775**DCL     13174<<ASSIGN  13666>>IF
AS_MOD_USER.LIMITS.TIME_A.MTIME
     12774**DCL     13170<<ASSIGN  13664>>IF
AS_MOD_USER.MAXENQ
     12753**DCL     12754--REDEF
AS_MOD_USER.PERM_BIT
     12726**DCL     12727--REDEF
AS_MOD_USER.PPRIV
     12748**DCL     12750--REDEF
AS_MOD_USER.PRIOB
     12755**DCL     12756--REDEF
AS_MOD_USER.PRIV
     12745**DCL     12747--REDEF
AS_MOD_USER.QUAN
     12751**DCL     12752--REDEF
AS_MOD_USER.SETUP
     12724**DCL     12725--REDEF
AS_PROJECT.BANNER_PERM
PL6.E3A0      #001=ASC$LIMITS File=ASC$LIMITS.:E05TSI                            TUE 07/29/97 09:35 Page:158
     11064**DCL     11065--REDEF
AS_PROJECT.BUDGET.MACCT
     10969**DCL     10973--REDEF
AS_PROJECT.BUDGET.MAX_PROJECTS
     10982**DCL     10985--REDEF
AS_PROJECT.BUDGET.PACCUM
     10965**DCL     10967--REDEF
AS_PROJECT.BUDGET.PMAXC
     10960**DCL     10962--REDEF
AS_PROJECT.SETUP_CHRA.TXT
     11080**DCL     11081--REDEF   11082--REDEF
AS_PROJECT_DFLT.BANNER_PERM
     11242**DCL     11243--REDEF
AS_PROJECT_DFLT.BUDGET.MACCT
     11147**DCL     11151--REDEF
AS_PROJECT_DFLT.BUDGET.MAX_PROJECTS
     11160**DCL     11163--REDEF
AS_PROJECT_DFLT.BUDGET.PACCUM
     11143**DCL     11145--REDEF
AS_PROJECT_DFLT.BUDGET.PMAXC
     11138**DCL     11140--REDEF
AS_PROJECT_DFLT.SETUP_CHRA.TXT
     11258**DCL     11259--REDEF   11260--REDEF
AS_PROJECT_DFLT_DREC.PASSWORD
     12464**DCL     12468--REDEF
AS_PROJECT_DFLT_DREC.RENAME
     12487**DCL     12488--REDEF
AS_PROJECT_DREC.PASSWORD
     12302**DCL     12306--REDEF
AS_PROJECT_DREC.RENAME
     12325**DCL     12326--REDEF
AS_PROJ_ADMIN.BANNER_PERM
     10886**DCL     10887--REDEF
AS_PROJ_ADMIN.BUDGET.MACCT
     10791**DCL     10795--REDEF
AS_PROJ_ADMIN.BUDGET.MAX_PROJECTS
PL6.E3A0      #001=ASC$LIMITS File=ASC$LIMITS.:E05TSI                            TUE 07/29/97 09:35 Page:159
     10804**DCL     10807--REDEF
AS_PROJ_ADMIN.BUDGET.PACCUM
     10787**DCL     10789--REDEF
AS_PROJ_ADMIN.BUDGET.PMAXC
     10782**DCL     10784--REDEF
AS_PROJ_ADMIN.SETUP_CHRA.TXT
     10902**DCL     10903--REDEF   10904--REDEF
AS_PROJ_ADMIN_DREC.PASSWORD
     12140**DCL     12144--REDEF
AS_PROJ_ADMIN_DREC.RENAME
     12163**DCL     12164--REDEF
AS_TRUE
      9875**DCL     13134>>ASSIGN  13138>>ASSIGN  13170>>ASSIGN  13174>>ASSIGN  13230>>ASSIGN  13255>>ASSIGN
     13286>>ASSIGN  13340>>ASSIGN  13345>>ASSIGN  13352>>ASSIGN  13357>>ASSIGN  13364>>ASSIGN  13369>>ASSIGN
     13376>>ASSIGN  13381>>ASSIGN  13388>>ASSIGN  13393>>ASSIGN  13455>>ASSIGN  13503>>ASSIGN  13541>>ASSIGN
     13568>>ASSIGN  13644>>ASSIGN
AS_USERS.BANNER_PERM
     10352**DCL     10353--REDEF
AS_USERS.BUDGET.MACCT
     10257**DCL     10261--REDEF
AS_USERS.BUDGET.MAX_PROJECTS
     10270**DCL     10273--REDEF
AS_USERS.BUDGET.PACCUM
     10253**DCL     10255--REDEF
AS_USERS.BUDGET.PMAXC
     10248**DCL     10250--REDEF
AS_USERS.DDO
     10289**DCL     13350<>CALL    13356<<ASSIGN  13703<<ASSIGN  13704<>CALL
AS_USERS.DEXP
     10326**DCL     13137<<ASSIGN  13144<>CALL    13657<<ASSIGN  13658<>CALL
AS_USERS.DFPOOLS
     10297**DCL     13451>>ASSIGN  13454<<ASSIGN  13502<<ASSIGN  13747<<ASSIGN  13748>>ASSIGN  13749>>ASSIGN
     13751<<ASSIGN
AS_USERS.DLO
     10287**DCL     13338<>CALL    13344<<ASSIGN  13692<<ASSIGN  13693<>CALL
AS_USERS.DMEM
PL6.E3A0      #001=ASC$LIMITS File=ASC$LIMITS.:E05TSI                            TUE 07/29/97 09:35 Page:160
     10337**DCL     13250<<ASSIGN  13253<<ASSIGN  13259>>ASSIGN  13262<<ASSIGN  13678<<ASSIGN  13679>>ASSIGN
     13682<<ASSIGN
AS_USERS.DMPRIO
     10299**DCL     13537>>ASSIGN  13540<<ASSIGN  13567<<ASSIGN  13761<<ASSIGN  13762>>ASSIGN  13763>>ASSIGN
     13765<<ASSIGN
AS_USERS.DPDIS
     10293**DCL     13374<>CALL    13380<<ASSIGN  13725<<ASSIGN  13726<>CALL
AS_USERS.DPO
     10291**DCL     13362<>CALL    13368<<ASSIGN  13714<<ASSIGN  13715<>CALL
AS_USERS.DTDIS
     10295**DCL     13386<>CALL    13392<<ASSIGN  13736<<ASSIGN  13737<>CALL
AS_USERS.DTIME
     10334**DCL     13173<<ASSIGN  13178<>CALL    13667<<ASSIGN  13668<>CALL
AS_USERS.MDO
     10288**DCL     13351<<ASSIGN  13355<>CALL    13701<<ASSIGN  13704<>CALL
AS_USERS.MEXP
     10325**DCL     13131<<ASSIGN  13133<>CALL    13144<>CALL    13655<<ASSIGN  13658<>CALL
AS_USERS.MFPOOLS
     10296**DCL     13453<<ASSIGN  13458>>ASSIGN  13745<<ASSIGN
AS_USERS.MLO
     10286**DCL     13339<<ASSIGN  13343<>CALL    13690<<ASSIGN  13693<>CALL
AS_USERS.MMEM
     10336**DCL     13225<<ASSIGN  13228<<ASSIGN  13260>>ASSIGN  13676<<ASSIGN  13680>>ASSIGN
AS_USERS.MMPRIO
     10298**DCL     13539<<ASSIGN  13544>>ASSIGN  13759<<ASSIGN
AS_USERS.MPDIS
     10292**DCL     13375<<ASSIGN  13379<>CALL    13723<<ASSIGN  13726<>CALL
AS_USERS.MPO
     10290**DCL     13363<<ASSIGN  13367<>CALL    13712<<ASSIGN  13715<>CALL
AS_USERS.MTDIS
     10294**DCL     13387<<ASSIGN  13391<>CALL    13734<<ASSIGN  13737<>CALL
AS_USERS.MTIME
     10333**DCL     13166<<ASSIGN  13168<>CALL    13178<>CALL    13665<<ASSIGN  13668<>CALL
AS_USERS.OUTPUTPRIO
     10279**DCL     13643<<ASSIGN  13651<<ASSIGN
AS_USERS.SETUP_CHRA.TXT
PL6.E3A0      #001=ASC$LIMITS File=ASC$LIMITS.:E05TSI                            TUE 07/29/97 09:35 Page:161
     10368**DCL     10369--REDEF   10370--REDEF
AS_USERS_CONSTANT.BANNER_PERM
     11420**DCL     11421--REDEF
AS_USERS_CONSTANT.BUDGET.MACCT
     11325**DCL     11329--REDEF
AS_USERS_CONSTANT.BUDGET.MAX_PROJECTS
     11338**DCL     11341--REDEF
AS_USERS_CONSTANT.BUDGET.PACCUM
     11321**DCL     11323--REDEF
AS_USERS_CONSTANT.BUDGET.PMAXC
     11316**DCL     11318--REDEF
AS_USERS_CONSTANT.SETUP_CHRA.TXT
     11436**DCL     11437--REDEF   11438--REDEF
AS_WILD_USER
     10020**DCL     13935>>IF
BLK$
     12886**DCL     13053--IMP-PTR 13093<<ASSIGN  13094>>DOSELCT 13099>>CALLBLT 13099>>CALLBLT 13161<<ASSIGN
     13162>>CALLBLT 13162>>CALLBLT 13195<<ASSIGN  13196>>CALLBLT 13196>>CALLBLT 13332<<ASSIGN  13333>>CALLBLT
     13333>>CALLBLT 13592<<ASSIGN  13593>>CALLBLT 13593>>CALLBLT
CHECK_DEFAULT_MAX
     13771**PROC    13144--CALL    13178--CALL    13261--CALL    13338--CALL    13343--CALL    13350--CALL
     13355--CALL    13362--CALL    13367--CALL    13374--CALL    13379--CALL    13386--CALL    13391--CALL
     13452--CALL    13501--CALL    13538--CALL    13566--CALL    13658--CALL    13668--CALL    13681--CALL
     13693--CALL    13704--CALL    13715--CALL    13726--CALL    13737--CALL    13750--CALL    13764--CALL
CHECK_PROJ_MAX
     13963**PROC    13133--CALL    13168--CALL    13202--CALL    13337--CALL    13349--CALL    13361--CALL
     13373--CALL    13385--CALL    13449--CALL    13535--CALL    13642--CALL
CODE
     10008**DCL     13092<<ASSIGN  13125>>DOSELCT 13155<<ASSIGN  13164>>DOSELCT 13189<<ASSIGN  13197>>DOSELCT
     13299<<ASSIGN  13303>>DOSELCT 13334>>DOSELCT
DEFAULT
     12897**DCL     13259<<ASSIGN  13261<>CALL    13262>>ASSIGN  13451<<ASSIGN  13452<>CALL    13454>>ASSIGN
     13537<<ASSIGN  13538<>CALL    13540>>ASSIGN  13679<<ASSIGN  13681<>CALL    13682>>ASSIGN  13748<<ASSIGN
     13750<>CALL    13751>>ASSIGN  13762<<ASSIGN  13764<>CALL    13765>>ASSIGN
DEFAULT IN PROCEDURE CHECK_DEFAULT_MAX
     13780**DCL     13771--PROC    13781--REDEF   13796>>IF      13815<>CALL    13863>>IF      13886>>CALL
PL6.E3A0      #001=ASC$LIMITS File=ASC$LIMITS.:E05TSI                            TUE 07/29/97 09:35 Page:162
     13918<>CALL    13958<<ASSIGN
DEFAULT_SBIN IN PROCEDURE CHECK_DEFAULT_MAX
     13781**DCL     13797>>IF
DEFAULT_TEXTC
     12935**DCL     13461>>ASSIGN  13482>>ASSIGN  13547>>ASSIGN
DO_TEXTC
     12914**DCL     13349<>CALL    13350<>CALL    13355<>CALL    13704<>CALL
ERR_CODE
     10010**DCL     10011--REDEF   13581<<ASSIGN  13582<>CALL
EXPIRE_TEXTC
     12944**DCL     13133<>CALL    13144<>CALL    13658<>CALL
FPOOLS_TEXTC
     12926**DCL     13449<>CALL    13452<>CALL    13501<>CALL    13750<>CALL
I
     12880**DCL     13159<<DOINDEX 13160>>ASSIGN  13161>>ASSIGN  13193<<DOINDEX 13194>>ASSIGN  13195>>ASSIGN
     13298<<DOINDEX 13299>>ASSIGN  13300>>ASSIGN  13308<<ASSIGN
IN_BUF
     10006**DCL     13292<>CALL
J
     12881**DCL     13329<<DOINDEX 13330>>ASSIGN  13332>>ASSIGN
KL_DEFAULT.PASSWORD
     12626**DCL     12630--REDEF
KL_DEFAULT.RENAME
     12649**DCL     12650--REDEF
KL_DFLT.PASSWORD
     11816**DCL     11820--REDEF
KL_DFLT.RENAME
     11839**DCL     11840--REDEF
KL_DREC.PASSWORD
     11654**DCL     11658--REDEF
KL_DREC.RENAME
     11677**DCL     11678--REDEF
KL_DREC_CNT.PASSWORD
     11541**DCL     11545--REDEF
KL_DREC_CNT.RENAME
     11564**DCL     11565--REDEF
PL6.E3A0      #001=ASC$LIMITS File=ASC$LIMITS.:E05TSI                            TUE 07/29/97 09:35 Page:163
LO_TEXTC
     12911**DCL     13337<>CALL    13338<>CALL    13343<>CALL    13693<>CALL
MAX
     12896**DCL     13260<<ASSIGN  13261<>CALL    13458<<ASSIGN  13501<>CALL    13544<<ASSIGN  13566<>CALL
     13680<<ASSIGN  13681<>CALL    13749<<ASSIGN  13750<>CALL    13763<<ASSIGN  13764<>CALL
MAX IN PROCEDURE CHECK_DEFAULT_MAX
     13782**DCL     13771--PROC    13783--REDEF   13796>>IF      13854<>CALL    13863>>IF      13894>>CALL
     13926<>CALL    13958>>ASSIGN
MAX IN PROCEDURE CHECK_PROJ_MAX
     13974**DCL     13963--PROC    13975--REDEF   13987>>IF      14166<<ASSIGN
MAXIMUM_TEXTC
     12932**DCL     13402>>ASSIGN  13427>>ASSIGN  13513>>ASSIGN
MAXJOBPRIO_TEXTC
     12929**DCL     13535<>CALL    13538<>CALL    13566<>CALL    13764<>CALL
MEMORY_TEXTC
     12941**DCL     13202<>CALL    13261<>CALL    13681<>CALL
MODE
     12882**DCL     13160<<ASSIGN  13166>>ASSIGN  13168>>CALL    13168>>CALL    13170>>ASSIGN  13173>>ASSIGN
     13174>>ASSIGN  13178>>CALL    13178>>CALL    13194<<ASSIGN  13201>>ASSIGN  13225>>ASSIGN  13228>>ASSIGN
     13230>>ASSIGN  13250>>ASSIGN  13253>>ASSIGN  13255>>ASSIGN  13259>>ASSIGN  13260>>ASSIGN  13262>>ASSIGN
     13330<<ASSIGN  13337>>CALL    13338>>CALL    13339>>ASSIGN  13340>>ASSIGN  13343>>CALL    13344>>ASSIGN
     13345>>ASSIGN  13349>>CALL    13350>>CALL    13351>>ASSIGN  13352>>ASSIGN  13355>>CALL    13356>>ASSIGN
     13357>>ASSIGN  13361>>CALL    13362>>CALL    13363>>ASSIGN  13364>>ASSIGN  13367>>CALL    13368>>ASSIGN
     13369>>ASSIGN  13373>>CALL    13374>>CALL    13375>>ASSIGN  13376>>ASSIGN  13379>>CALL    13380>>ASSIGN
     13381>>ASSIGN  13385>>CALL    13386>>CALL    13387>>ASSIGN  13388>>ASSIGN  13391>>CALL    13392>>ASSIGN
     13393>>ASSIGN  13403>>ASSIGN  13428>>ASSIGN  13448>>ASSIGN  13451>>ASSIGN  13453>>ASSIGN  13454>>ASSIGN
     13455>>ASSIGN  13458>>ASSIGN  13462>>ASSIGN  13483>>ASSIGN  13502>>ASSIGN  13503>>ASSIGN  13514>>ASSIGN
     13534>>ASSIGN  13537>>ASSIGN  13539>>ASSIGN  13540>>ASSIGN  13541>>ASSIGN  13544>>ASSIGN  13548>>ASSIGN
     13567>>ASSIGN  13568>>ASSIGN  13661<<DOINDEX 13662>>IF      13664>>IF      13665>>ASSIGN  13665>>ASSIGN
     13666>>IF      13667>>ASSIGN  13667>>ASSIGN  13668>>CALL    13668>>CALL    13672<<DOINDEX 13673>>IF
     13675>>IF      13676>>ASSIGN  13676>>ASSIGN  13677>>IF      13678>>ASSIGN  13678>>ASSIGN  13679>>ASSIGN
     13680>>ASSIGN  13682>>ASSIGN  13686<<DOINDEX 13689>>IF      13690>>ASSIGN  13690>>ASSIGN  13691>>IF
     13692>>ASSIGN  13692>>ASSIGN  13693>>CALL    13693>>CALL    13697<<DOINDEX 13698>>IF      13700>>IF
     13701>>ASSIGN  13701>>ASSIGN  13702>>IF      13703>>ASSIGN  13703>>ASSIGN  13704>>CALL    13704>>CALL
     13708<<DOINDEX 13709>>IF      13711>>IF      13712>>ASSIGN  13712>>ASSIGN  13713>>IF      13714>>ASSIGN
     13714>>ASSIGN  13715>>CALL    13715>>CALL    13719<<DOINDEX 13720>>IF      13722>>IF      13723>>ASSIGN
PL6.E3A0      #001=ASC$LIMITS File=ASC$LIMITS.:E05TSI                            TUE 07/29/97 09:35 Page:164
     13723>>ASSIGN  13724>>IF      13725>>ASSIGN  13725>>ASSIGN  13726>>CALL    13726>>CALL    13730<<DOINDEX
     13731>>IF      13733>>IF      13734>>ASSIGN  13734>>ASSIGN  13735>>IF      13736>>ASSIGN  13736>>ASSIGN
     13737>>CALL    13737>>CALL    13741<<DOINDEX 13742>>IF      13744>>IF      13745>>ASSIGN  13745>>ASSIGN
     13746>>IF      13747>>ASSIGN  13747>>ASSIGN  13748>>ASSIGN  13749>>ASSIGN  13751>>ASSIGN  13755<<DOINDEX
     13756>>IF      13758>>IF      13759>>ASSIGN  13759>>ASSIGN  13760>>IF      13761>>ASSIGN  13761>>ASSIGN
     13762>>ASSIGN  13763>>ASSIGN  13765>>ASSIGN  13864>>CALLBLT 13864>>CALLBLT 13867>>ASSIGN  14027>>CALLBLT
     14027>>CALLBLT 14030>>ASSIGN
MORE
     12889**DCL     13286<<ASSIGN  13291>>DOWHILE 13307<<ASSIGN
NEVER_TEXTC
     12950**DCL     13797>>ASSIGN
NODE$
     10008**DCL     13006--IMP-PTR 13281>>ASSIGN  13295<<ASSIGN  13297>>ASSIGN  13299>>ASSIGN  13300>>ASSIGN
     13315<<ASSIGN
OUT$SYM.CODE
     13059**DCL     13094>>DOSELCT
OUT$SYM.COUNT
     13076**DCL     13079--IMP-SIZ 13099>>CALLBLT 13162>>CALLBLT 13196>>CALLBLT 13333>>CALLBLT 13593>>CALLBLT
OUT$SYM.TEXT
     13079**DCL     13099>>CALLBLT 13162>>CALLBLT 13196>>CALLBLT 13333>>CALLBLT 13593>>CALLBLT
OUTPUTPRIO_TEXTC
     12947**DCL     14025>>ASSIGN
P$NODE.CODE
     13014**DCL     13092>>ASSIGN  13155>>ASSIGN  13160>>ASSIGN  13189>>ASSIGN  13194>>ASSIGN  13299>>ASSIGN
     13330>>ASSIGN
P$NODE.SUBLK$
     13039**DCL     13092>>ASSIGN  13093>>ASSIGN  13155>>ASSIGN  13156>>ASSIGN  13160>>ASSIGN  13160>>ASSIGN
     13161>>ASSIGN  13161>>ASSIGN  13161>>ASSIGN  13189>>ASSIGN  13190>>ASSIGN  13194>>ASSIGN  13194>>ASSIGN
     13195>>ASSIGN  13195>>ASSIGN  13195>>ASSIGN  13299>>ASSIGN  13300>>ASSIGN  13330>>ASSIGN  13330>>ASSIGN
     13332>>ASSIGN  13332>>ASSIGN  13592>>ASSIGN
P$NODE.SUBNODES
     13018**DCL     13157>>ASSIGN  13191>>ASSIGN  13297>>ASSIGN  13301>>ASSIGN
PDIS_TEXTC
     12920**DCL     13373<>CALL    13374<>CALL    13379<>CALL    13726<>CALL
PO_TEXTC
     12917**DCL     13361<>CALL    13362<>CALL    13367<>CALL    13715<>CALL
PL6.E3A0      #001=ASC$LIMITS File=ASC$LIMITS.:E05TSI                            TUE 07/29/97 09:35 Page:165
PROJECT_MAX IN PROCEDURE CHECK_PROJ_MAX
     13972**DCL     13963--PROC    13973--REDEF   13987>>IF      14006<>CALL    14050>>CALL    14082<>CALL
     14166>>ASSIGN
PROJ_KEY.TEXT
      9888**DCL      9888--REDEF
PROJ_KEY.TXT.PROJECT
      9888**DCL      9888--REDEF
PROJ_MAX
     12895**DCL     13201<<ASSIGN  13202<>CALL    13448<<ASSIGN  13449<>CALL    13534<<ASSIGN  13535<>CALL
     13641<<ASSIGN  13642<>CALL
PTR$
     12888**DCL     13156<<ASSIGN  13157>>ASSIGN  13160>>ASSIGN  13161>>ASSIGN  13190<<ASSIGN  13191>>ASSIGN
     13194>>ASSIGN  13195>>ASSIGN  13300<<ASSIGN  13301>>ASSIGN  13330>>ASSIGN  13332>>ASSIGN
P_PCB
     10043**DCL     13294<>CALL
P_PCB.ERROR
     10147**DCL     13581>>ASSIGN
P_PCB.NCHARS
     10190**DCL     13293<<ASSIGN
P_PCB.OUT$
     10056**DCL     13295>>ASSIGN
P_PCB.ROOT$
     10048**DCL     13276>>ASSIGN  13283<<ASSIGN  13313<<ASSIGN
P_PCB.WKSZ
     10073**DCL     13274>>ASSIGN  13279<<ASSIGN  13311<<ASSIGN
P_PCB.WK_USED
     10176**DCL     13275>>ASSIGN  13278>>ASSIGN  13279>>ASSIGN  13312<<ASSIGN
P_PCB.WORK$
     10052**DCL     13273>>ASSIGN  13278<<ASSIGN  13310<<ASSIGN
REMEM_VAR
     10014**DCL     10014--REDEF   13287<<REMEMBR
REM_FCMD
     10014**DCL     10015--REDEF
ROOT$
     12891**DCL     13276<<ASSIGN  13313>>ASSIGN
SERVICE_NAME IN PROCEDURE CHECK_DEFAULT_MAX
PL6.E3A0      #001=ASC$LIMITS File=ASC$LIMITS.:E05TSI                            TUE 07/29/97 09:35 Page:166
     13784**DCL     13771--PROC    13860>>ASSIGN
SERVICE_NAME.CNT IN PROCEDURE CHECK_DEFAULT_MAX
     13785**DCL     13786--IMP-SIZ 13860>>ASSIGN  13864>>CALLBLT 13867>>ASSIGN
SERVICE_NAME.TXT IN PROCEDURE CHECK_DEFAULT_MAX
     13786**DCL     13864>>CALLBLT
SERVICE_NAME IN PROCEDURE CHECK_PROJ_MAX
     13976**DCL     13963--PROC    14020>>ASSIGN
SERVICE_NAME.CNT IN PROCEDURE CHECK_PROJ_MAX
     13977**DCL     13978--IMP-SIZ 14020>>ASSIGN  14027>>CALLBLT 14030>>ASSIGN
SERVICE_NAME.TXT IN PROCEDURE CHECK_PROJ_MAX
     13978**DCL     14027>>CALLBLT
SERV_ERR
     13570**LABEL   13294--CALLALT
SERV_LOOP
     13286**LABEL   13287--REMEMBR 13583--GOTO
SERV_OPT_LIST
     12905**DCL     13283--ASSIGN
STR$
     12887**DCL     12993--IMP-PTR
SUBND$
     12872**DCL        13--PROC    13086--ENTRY   13092>>ASSIGN  13093>>ASSIGN  13149--ENTRY   13155>>ASSIGN
     13156>>ASSIGN  13183--ENTRY   13189>>ASSIGN  13190>>ASSIGN  13586--ENTRY   13592>>ASSIGN
SUBNDS
     12883**DCL     13297<<ASSIGN  13298>>DOINDEX 13308>>ASSIGN
SUBS
     12884**DCL     13157<<ASSIGN  13159>>DOINDEX 13191<<ASSIGN  13193>>DOINDEX 13301<<ASSIGN  13329>>DOINDEX
TDIS_TEXTC
     12923**DCL     13385<>CALL    13386<>CALL    13391<>CALL    13737<>CALL
TIME_TEXTC
     12938**DCL     13168<>CALL    13178<>CALL    13668<>CALL
TOTAL
     12898**DCL     13096<<ASSIGN  13099<<CALLBLT 13100>>IF      13131>>ASSIGN  13137>>ASSIGN
TYPE IN PROCEDURE CHECK_DEFAULT_MAX
     13779**DCL     13771--PROC    13794>>IF      13868>>IF
TYPE IN PROCEDURE CHECK_PROJ_MAX
     13971**DCL     13963--PROC    13988>>IF      14023>>IF      14032>>IF
PL6.E3A0      #001=ASC$LIMITS File=ASC$LIMITS.:E05TSI                            TUE 07/29/97 09:35 Page:167
T_NODE$
     12894**DCL     13281<<ASSIGN  13315>>ASSIGN
USERS_KEY.TEXT
      9885**DCL      9886--REDEF    9886--REDEF    9886--REDEF    9887--REDEF
VAL
     12885**DCL     13162<<CALLBLT 13163<<ASSIGN  13163>>ASSIGN  13166>>ASSIGN  13173>>ASSIGN  13196<<CALLBLT
     13202<>CALL    13204>>IF      13228>>ASSIGN  13233>>IF      13253>>ASSIGN  13333<<CALLBLT 13337<>CALL
     13338<>CALL    13339>>ASSIGN  13343<>CALL    13344>>ASSIGN  13349<>CALL    13350<>CALL    13351>>ASSIGN
     13355<>CALL    13356>>ASSIGN  13361<>CALL    13362<>CALL    13363>>ASSIGN  13367<>CALL    13368>>ASSIGN
     13373<>CALL    13374<>CALL    13375>>ASSIGN  13379<>CALL    13380>>ASSIGN  13385<>CALL    13386<>CALL
     13387>>ASSIGN  13391<>CALL    13392>>ASSIGN  13396>>IF      13419<<ASSIGN  13421>>IF      13444<<ASSIGN
     13449<>CALL    13452<>CALL    13453>>ASSIGN  13459>>IF      13478<<ASSIGN  13480>>IF      13499<<ASSIGN
     13501<>CALL    13502>>ASSIGN  13506>>IF      13530<<ASSIGN  13535<>CALL    13538<>CALL    13539>>ASSIGN
     13545>>IF      13564<<ASSIGN  13566<>CALL    13567>>ASSIGN  13593<<CALLBLT 13594>>IF      13617>>IF
     13642<>CALL    13643>>ASSIGN
VARY$STR.CNT
     12994**DCL     12995--IMP-SIZ
WKSZ
     12892**DCL     13274<<ASSIGN  13279>>ASSIGN  13311>>ASSIGN
WK_USED
     12893**DCL     13275<<ASSIGN  13312>>ASSIGN
WORK$
     12890**DCL     13273<<ASSIGN  13278>>ASSIGN  13310>>ASSIGN
X$PARSE
     12963**DCL-ENT 13294--CALL
