PL6.E3A0      #002=ASC$MOD_USER File=ASC$OPTS.:E05TSI                            TUE 07/29/97 09:41 Page:256
     1319        1        /*T***********************************************************/
     1320        2        /*T*                                                         */
     1321        3        /*T* Copyright (c) Bull HN Information Systems Inc., 1997    */
     1322        4        /*T*                                                         */
     1323        5        /*T***********************************************************/
     1324        6        ASC$MOD_USER: PROC;
     1325        7
     1326        8
     1327        9        /********************************************************************/
     1328       10        /*    Include files       include files       include files         */
     1329       11        /********************************************************************/
     1330       12
     1331       13        %INCLUDE      AS_ENTRIES_M ;
     1332     1063        %INCLUDE      AS_SUPER_C ;
     1333     1498        %INCLUDE      AS_SUBS_C ;
     1334     2912        %INCLUDE      AS_PERR_C ;
     1335     3514        %INCLUDE      KL_SUPER_C ;
     1336     6416        %INCLUDE      AS_MAC_C ;
     1337     6496        %INCLUDE      XU_MACRO_C ;
     1338     9602        %INCLUDE      XU_FORMAT_C ;
     1339     9764        %INCLUDE      CP_6 ;
     1340     9845        %INCLUDE      AS_SUPER_R ;
     1341    12861
     1342    12862        /********************************************************************/
     1343    12863        /*    Auto data       auto data       auto data       auto data     */
     1344    12864        /********************************************************************/
     1345    12865
     1346    12866    1   DCL I SBIN;
     1347    12867    1   DCL J SBIN;
     1348    12868    1   DCL K SBIN;
     1349    12869    1   DCL VAL SBIN;
     1350    12870    1   DCL SAVE_MAXC   SBIN ;
     1351    12871    1   DCL SET$ PTR;
     1352    12872    1   DCL VALUE(0:1) SBIN ;
     1353    12873    1   DCL 1 TEXTC(0:2) CONSTANT,
     1354    12874    1          2 CNT UBIN BYTE UNAL INIT( 4, 6, 17 ),
     1355    12875    1          2 TEXT CHAR(17) INIT( 'user', 'project', 'user in a project' );
PL6.E3A0      #002=ASC$MOD_USER File=ASC$OPTS.:E05TSI                            TUE 07/29/97 09:41 Page:257
     1356    12876    1   DCL 1 VARY$STR BASED(SET$) ALIGNED ,
     1357    12877    1          2 CNT UBIN(9) UNAL ,
     1358    12878    1          2 TEXT CHAR(VARY$STR.CNT) ;
     1359    12879    1   DCL 1 ZERO_LENGTH CONSTANT,
     1360    12880    1          2 CNT  UBIN(9) CALIGNED INIT (0),
     1361    12881    1          2 TEXT CHAR(1) CALIGNED INIT (' ');
     1362    12882
     1363    12883        /********************************************************************/
     1364    12884        /*    Entry dcls      entry dcls      entry dcls      entry dcls    */
     1365    12885        /********************************************************************/
     1366    12886
     1367    12887        %ASC$MOD_USER_LIMITS ;
     1368    12890        %ASC$RESOURCE ;
     1369    12893        %ASC$FERESOURCE ;
     1370    12896        %ASC$PSEUDO ;
     1371    12899        %ASC$FEPSEUDO ;
     1372    12902        %ASB$PIG ;
     1373    12905        %ASH$ERROR ;
     1374    12908        %ASC$BANNER ;
     1375    12911        %ASH$WARN ;
     1376    12914        %ASC$SETUP ;
     1377    12917
     1378    12918        /********************************************************************/
     1379    12919        /*    Local based     local based     local based     local based   */
     1380    12920        /********************************************************************/
     1381    12921
     1382    12922        %SUPER_TO_PIG( STCLASS="BASED(AS_SUPER_TO_PIG$)" );
     1383    12954        /********************************************************************/
     1384    12955        /*    Procedure       procedure       procedure       procedure     */
     1385    12956        /********************************************************************/
     1386    12957
     1387    12958
     1388    12959
     1389    12960    1   IF AS_MOD_USER.PASSWORD THEN KL_DREC.PASSWORD = KL_DFLT.PASSWORD;
     1390    12961    1   IF AS_MOD_USER.NAT_LANG THEN AS_USERS.NAT_LANG = AS_DFLT.NAT_LANG;
     1391    12962    1   IF AS_MOD_USER.STEPACCNT THEN AS_USERS.STEPACCNT = AS_DFLT.STEPACCNT;
     1392    12963    1   IF AS_MOD_USER.BATNUM THEN AS_USERS.BATNUM = AS_DFLT.BATNUM;
PL6.E3A0      #002=ASC$MOD_USER File=ASC$OPTS.:E05TSI                            TUE 07/29/97 09:41 Page:258
     1393    12964    1   IF AS_MOD_USER.FEMFPRG THEN KL_DREC.KL_DREC_FEBLK.MFPRG = KL_DFLT.KL_DFLT_FEBLK.
             12964            MFPRG;
     1394    12965    1   IF AS_MOD_USER.FEMACCTMEM THEN KL_DREC.KL_DREC_FEBLK.MACCTMEM = KL_DFLT.
             12965            KL_DFLT_FEBLK.MACCTMEM;
     1395    12966    1   IF AS_MOD_USER.FEDBACCN THEN KL_DREC.KL_DREC_FEBLK.DBACCN = KL_DFLT.KL_DFLT_FEBLK.
             12966            DBACCN;
     1396    12967    1   IF AS_MOD_USER.STARSACC THEN
     1397    12968    1      AS_USERS.FLAGS.STARSACC = AS_DFLT.FLAGS.STARSACC;
     1398    12969    1   IF AS_MOD_USER.SETUP ~= '0'B THEN ;
     1399    12970    2   DO I = 0 TO 3;
     1400    12971    3      IF AS_MOD_USER.SETUP_A(I) THEN DO ;
     1401    12972    3         J = AS_DFLT.SETUP(I) ;
     1402    12973    3         IF J = - 1 THEN
     1403    12974    3            SET$ = ADDR (ZERO_LENGTH);
     1404    12975    3         ELSE
     1405    12976    3            SET$ = ADDR( AS_DFLT.SETUP_CHRA.TXT_UBIN(J)) ;
     1406    12977    3         CALL ASC$SETUP( ADDR(AS_USERS), I, SET$->VARY$STR)
     1407    12978    4         WHENALTRETURN DO;
     1408    12979                 %SCREAM(ERR#=E$ALL_BANNER_SPACE_USED,LEVEL=ERROR,MID='C');
     1409    12994    4            END;
     1410    12995    3         END ;
     1411    12996    2      END ;
     1412    12997    2   IF AS_MOD_USER.PERM_BIT ~= '0'B THEN DO;
     1413    12998    3      DO I = 0 TO 3 ;
     1414    12999    3         IF AS_MOD_USER.PERM_A(I) THEN
     1415    13000    3            AS_USERS.SETUP_PERM(I) = AS_DFLT.SETUP_PERM(I) ;
     1416    13001    3         END ;
     1417    13002    2      END ;
     1418    13003    1   IF AS_MOD_USER.BANNER~= '0'B THEN ;
     1419    13004    2   DO I = 0 TO 9;
     1420    13005    3      IF AS_MOD_USER.BANNER_A(I) THEN DO ;
     1421    13006    3         J = AS_DFLT.BANNER(I) ;
     1422    13007    3         IF J = - 1 THEN
     1423    13008    3            SET$ = ADDR (ZERO_LENGTH);
     1424    13009    3         ELSE
     1425    13010    3            SET$ = ADDR( AS_DFLT.SETUP_CHRA.TXT_UBIN(J)) ;
     1426    13011    3         CALL ASC$BANNER(ADDR(AS_USERS),I,VARY$STR)
PL6.E3A0      #002=ASC$MOD_USER File=ASC$OPTS.:E05TSI                            TUE 07/29/97 09:41 Page:259
     1427    13012    4         WHENALTRETURN DO;
     1428    13013                 %SCREAM(ERR#=E$ALL_BANNER_SPACE_USED,LEVEL=ERROR,MID='C');
     1429    13028    4            END;
     1430    13029    3         END ;
     1431    13030    2      END ;
     1432    13031    1   IF AS_MOD_USER.BANNER_PERM ~= '0'B THEN
     1433    13032    2   DO I = 0 TO 9 ;
     1434    13033    2      IF AS_MOD_USER.BANNER_PERM_A(I) THEN
     1435    13034    2         AS_USERS.BANNER_PERM(I) = AS_DFLT.BANNER_PERM(I) ;
     1436    13035    2      END ;
     1437    13036    2   IF AS_MOD_USER.CPROC ~= '0'B THEN DO;
     1438    13037    3      DO I = 0 TO 3;
     1439    13038    3         IF AS_MOD_USER.CPROC_A(I) THEN
     1440    13039    3            AS_USERS.CPROC.NAME(I) = AS_DFLT.CPROC.NAME(I);
     1441    13040    3         END;
     1442    13041    2      END;
     1443    13042    1   IF (AS_MOD_USER.LAST_LOGON_TIME ~= '0'B)
     1444    13043    2   THEN DO;
     1445    13044    2      AS_USERS.LAST_LOGON_TIME = AS_DFLT.LAST_LOGON_TIME;
     1446    13045    2      END;
     1447    13046
     1448    13047    1   IF (AS_MOD_USER.FORCE_BIT ~= '0'B)
     1449    13048    2   THEN DO;
     1450    13049    3      DO I = 0 TO 3;
     1451    13050    3         IF (AS_MOD_USER.FORCE_A (I) = AS_TRUE)
     1452    13051    4         THEN DO;
     1453    13052    4            AS_USERS.SETUP_FORCE (I) = AS_DFLT.SETUP_FORCE (I);
     1454    13053    4            END;
     1455    13054    3         END;
     1456    13055    2      END;
     1457    13056    2   IF AS_MOD_USER.LASTCPROC ~= '0'B THEN DO;
     1458    13057    3      DO I = 0 TO 3;
     1459    13058    3         IF AS_MOD_USER.LASTCPROC_A(I) THEN
     1460    13059    3            AS_USERS.LASTCPROC.NAME(I) = AS_DFLT.LASTCPROC.NAME(I);
     1461    13060    3         END;
     1462    13061    2      END;
     1463    13062    2   IF AS_MOD_USER.BILL ~= '0'B THEN DO;
PL6.E3A0      #002=ASC$MOD_USER File=ASC$OPTS.:E05TSI                            TUE 07/29/97 09:41 Page:260
     1464    13063    3      DO I = 0 TO 3;
     1465    13064    3         IF AS_MOD_USER.BILL_A(I) THEN
     1466    13065    3            AS_USERS.BILL(I) = AS_DFLT.BILL(I);
     1467    13066    3         END;
     1468    13067    2      END;
     1469    13068    2   IF AS_MOD_USER.FEBILL ~= '0'B THEN DO;
     1470    13069    3      DO I = 0 TO 3;
     1471    13070    3         IF AS_MOD_USER.FEBILL_A(I) THEN
     1472    13071    3            KL_DREC.KL_DREC_FEBLK.BILL(I) = KL_DFLT.KL_DFLT_FEBLK.BILL(I);
     1473    13072    3         END;
     1474    13073    2      END;
     1475    13074    2   IF AS_MOD_USER.FEMINTS ~= '0'B THEN DO;
     1476    13075    3      DO I = 0 TO 3;
     1477    13076    3         IF AS_MOD_USER.FEMINTS_A(I) THEN
     1478    13077    3            KL_DREC.KL_DREC_FEBLK.MINTS(I) = KL_DFLT.KL_DFLT_FEBLK.MINTS(I);
     1479    13078    3         END;
     1480    13079    2      END;
     1481    13080    2   IF AS_MOD_USER.FEMTIME ~= '0'B THEN DO;
     1482    13081    3      DO I = 0 TO 3;
     1483    13082    3         IF AS_MOD_USER.FEMTIME_A(I) THEN
     1484    13083    3            KL_DREC.KL_DREC_FEBLK.MTIME(I) = KL_DFLT.KL_DFLT_FEBLK.MTIME(I);
     1485    13084    3         END;
     1486    13085    2      END;
     1487    13086    2   IF AS_MOD_USER.FEMMEM ~= '0'B THEN DO;
     1488    13087    3      DO I = 0 TO 3;
     1489    13088    3         IF AS_MOD_USER.FEMMEM_A(I) THEN
     1490    13089    3            KL_DREC.KL_DREC_FEBLK.MMEM(I) = KL_DFLT.KL_DFLT_FEBLK.MMEM(I);
     1491    13090    3         END;
     1492    13091    2      END;
     1493    13092    1   IF AS_MOD_USER.WSN THEN KL_DREC.WOO = KL_DFLT.WOO;
     1494    13093    2   IF AS_MOD_USER.HSET THEN DO;
     1495    13094    2      KL_DREC.HPS.N = KL_DFLT.HPS.N;
     1496    13095    2      AS_USERS.HPSN = AS_DFLT.HPSN;
     1497    13096    2      END;
     1498    13097    1   IF AS_MOD_USER.PROFILE THEN KL_DREC.PNAME = KL_DFLT.PNAME;
     1499    13098    2   IF AS_MOD_USER.ACCESS THEN DO;
     1500    13099    3      DO I = 0 TO 4;
PL6.E3A0      #002=ASC$MOD_USER File=ASC$OPTS.:E05TSI                            TUE 07/29/97 09:41 Page:261
     1501    13100    3         IF AS_MOD_USER.ACCESS_A(I) THEN
     1502    13101    4         DO SELECT( I );
     1503    13102    4            SELECT( AS_M_BATCH# );
     1504    13103    4            KL_DREC.FLAGS.BATOK = KL_DFLT.FLAGS.BATOK;
     1505    13104    4            AS_USERS.BATOK = AS_DFLT.BATOK;
     1506    13105    4            SELECT( AS_M_INT# );
     1507    13106    4            KL_DREC.FLAGS.OLOK = KL_DFLT.FLAGS.OLOK;
     1508    13107    4            SELECT( AS_M_GHOST# );
     1509    13108    4            KL_DREC.FLAGS.GHOSTOK = KL_DFLT.FLAGS.GHOSTOK;
     1510    13109    4            SELECT( AS_M_FE# );
     1511    13110    4            KL_DREC.FLAGS.FEOK = KL_DFLT.FLAGS.FEOK;
     1512    13111    4            SELECT( AS_M_TP# );
     1513    13112    4            KL_DREC.FLAGS.TPOK = KL_DFLT.FLAGS.TPOK;
     1514    13113    4            END;
     1515    13114    3         END;
     1516    13115    2      END;
     1517    13116    2   IF AS_MOD_USER.PRIV ~= '0'B THEN DO;
     1518    13117    3      DO I = 0 TO SIZEW(AS_PRIV_NAMES)*4-1;
     1519    13118    4         IF AS_MOD_USER.PRIV_A(I) ~= 0 THEN DO;
     1520    13119    4            J = I / 4;
     1521    13120    4            K = MOD( I, 4 );
     1522    13121    4            IF AS_MOD_USER.PRIV_A(I) = YES_VAL THEN
     1523    13122    4               AS_USERS.PRIV(K) = AS_USERS.PRIV(K) | AS_PRIVILEGE(J);
     1524    13123    4            ELSE
     1525    13124    4               AS_USERS.PRIV(K) = AS_USERS.PRIV(K) & ~AS_PRIVILEGE(J) ;
     1526    13125    4            END;
     1527    13126    3         END;
     1528    13127    2      END;
     1529    13128    2   IF AS_MOD_USER.PPRIV ~= '0'B THEN DO;
     1530    13129    3      DO I = 0 TO SIZEW(AS_PPRIV_NAMES)*4-1;
     1531    13130    4         IF AS_MOD_USER.PPRIV_A(I) ~= 0 THEN DO;
     1532    13131    4            J = I / 4;
     1533    13132    4            K = MOD( I, 4 );
     1534    13133    4            IF AS_MOD_USER.PPRIV_A(I) = YES_VAL THEN
     1535    13134    4               AS_USERS.PPRIV(K) = AS_USERS.PPRIV(K) | AS_PPRIVILEGE(J);
     1536    13135    4            ELSE
     1537    13136    4               AS_USERS.PPRIV(K) = AS_USERS.PPRIV(K) & ~AS_PPRIVILEGE(J);
PL6.E3A0      #002=ASC$MOD_USER File=ASC$OPTS.:E05TSI                            TUE 07/29/97 09:41 Page:262
     1538    13137    4            END;
     1539    13138    3         END;
     1540    13139    2      END;
     1541    13140    2   IF AS_MOD_USER.FEPRIV ~= '0'B THEN DO;
     1542    13141    3      DO I = 0 TO SIZEW(AS_PRIV_NAMES)*4-1;
     1543    13142    4         IF AS_MOD_USER.FEPRIV_A(I) ~= 0 THEN DO;
     1544    13143    4            J = I / 4;
     1545    13144    4            K = MOD( I, 4 );
     1546    13145    4            IF AS_MOD_USER.FEPRIV_A(I) = YES_VAL THEN
     1547    13146    4               KL_DREC.KL_DREC_FEBLK.PRIV(K) = KL_DREC.KL_DREC_FEBLK.PRIV(K) |
             13146                        AS_PRIVILEGE(J);
     1548    13147    4            ELSE
     1549    13148    4               KL_DREC.KL_DREC_FEBLK.PRIV(K) = KL_DREC.KL_DREC_FEBLK.PRIV(K) & ~
             13148                        AS_PRIVILEGE(J) ;
     1550    13149    4            END;
     1551    13150    3         END;
     1552    13151    2      END;
     1553    13152    2   IF AS_MOD_USER.FEPPRIV ~= '0'B THEN DO;
     1554    13153    3      DO I = 0 TO SIZEW(AS_PPRIV_NAMES)*4-1;
     1555    13154    4         IF AS_MOD_USER.FEPPRIV_A(I) ~= 0 THEN DO;
     1556    13155    4            J = I / 4;
     1557    13156    4            K = MOD( I, 4 );
     1558    13157    4            IF AS_MOD_USER.FEPPRIV_A(I) = YES_VAL THEN
     1559    13158    4               KL_DREC.KL_DREC_FEBLK.PPRIV(K) = KL_DREC.KL_DREC_FEBLK.PPRIV(K) |
             13158                        AS_PPRIVILEGE(J);
     1560    13159    4            ELSE
     1561    13160    4               KL_DREC.KL_DREC_FEBLK.PPRIV(K) = KL_DREC.KL_DREC_FEBLK.PPRIV(K) & ~
             13160                        AS_PPRIVILEGE(J);
     1562    13161    4            END;
     1563    13162    3         END;
     1564    13163    2      END;
     1565    13164    2   IF AS_MOD_USER.QUAN ~= '0'B THEN DO ;
     1566    13165    3      DO I = 0 TO 3;
     1567    13166    3         IF AS_MOD_USER.QUAN_A(I) THEN
     1568    13167    3            AS_USERS.QUAN(I) = AS_DFLT.QUAN(I) ;
     1569    13168    3         END ;
     1570    13169    2      END ;
PL6.E3A0      #002=ASC$MOD_USER File=ASC$OPTS.:E05TSI                            TUE 07/29/97 09:41 Page:263
     1571    13170    2   IF AS_MOD_USER.MAXENQ ~= '0'B THEN DO ;
     1572    13171    3      DO I = 0 TO 3;
     1573    13172    3         IF AS_MOD_USER.MAXENQ_A(I) THEN
     1574    13173    3            AS_USERS.MAXENQ(I) = AS_DFLT.MAXENQ(I) ;
     1575    13174    3         END ;
     1576    13175    2      END ;
     1577    13176    2   IF AS_MOD_USER.PRIOB ~= '0'B THEN DO ;
     1578    13177    3      DO I = 0 TO 3;
     1579    13178    3         IF AS_MOD_USER.PRIOB_A(I) THEN
     1580    13179    3            AS_USERS.PRIOB(I) = AS_DFLT.PRIOB(I) ;
     1581    13180    3         END ;
     1582    13181    2      END ;
     1583    13182    2   IF AS_MOD_USER.BUDGET ~= '0'B THEN DO;
     1584    13183    2      IF AS_MOD_USER.BUDGET.PCHARGES THEN
     1585    13184    2         AS_USERS.BUDGET.PCHARGES = AS_DFLT.BUDGET.PCHARGES;
     1586    13185    2      IF AS_MOD_USER.BUDGET.MACCT THEN
     1587    13186    2         AS_USERS.BUDGET.MACCT = AS_DFLT.BUDGET.MACCT;
     1588    13187    2      IF AS_MOD_USER.BUDGET.ICHARGES THEN
     1589    13188    2         AS_USERS.BUDGET.ICHARGES = AS_DFLT.BUDGET.ICHARGES;
     1590    13189    2      IF AS_MOD_USER.BUDGET.BKACC THEN
     1591    13190    2         AS_USERS.BUDGET.BKACC = AS_DFLT.BUDGET.BKACC;
     1592    13191    2      IF AS_MOD_USER.BUDGET.BUDLIM THEN
     1593    13192    2         AS_USERS.BUDGET.BUDLIM = AS_DFLT.BUDGET.BUDLIM;
     1594    13193    2      IF AS_MOD_USER.BUDGET.BLINDACCTNG THEN
     1595    13194    2         AS_USERS.BUDGET.BLINDACCTNG = AS_DFLT.BUDGET.BLINDACCTNG;
     1596    13195    2      IF AS_MOD_USER.BUDGET.MAXC THEN
     1597    13196    2         IF ((AS_WILD_MVAL = -1) AND (NOT AS_MOD_USER.BUDGET.SIGN))
     1598    13197    2              OR ((AS_USERS.BUDGET.MAXC = -1) AND AS_MOD_USER.BUDGET.SIGN)
     1599    13198    2         THEN
     1600    13199    2            AS_USERS.BUDGET.MAXC = -1 ;
     1601    13200    3         ELSE DO;
     1602    13201    3            SAVE_MAXC = AS_USERS.BUDGET.MAXC;
     1603    13202    3            IF NOT AS_MOD_USER.BUDGET.SIGN THEN
     1604    13203    3               AS_USERS.BUDGET.MAXC = AS_WILD_MVAL ;
     1605    13204    3            ELSE
     1606    13205    3               AS_USERS.BUDGET.MAXC = AS_WILD_MVAL + AS_USERS.BUDGET.MAXC ;
     1607    13206    4            IF AS_USERS.BUDGET.MAXC < 0 THEN DO;
PL6.E3A0      #002=ASC$MOD_USER File=ASC$OPTS.:E05TSI                            TUE 07/29/97 09:41 Page:264
     1608    13207                    %SCREAM(ERR#=E$MCHARGES_NEG_VAL,LEVEL=ERROR,MID='C') ;
     1609    13222    4               AS_USERS.BUDGET.MAXC = SAVE_MAXC;
     1610    13223    4               END;
     1611    13224    3            IF AS_CR_MOD_PROJ > 0 AND AS_WILD_MCH > 0
     1612    13225    3            THEN
     1613    13226    3               IF AS_USERS.BUDGET.MAXC > AS_WILD_MCH
     1614    13227    4               THEN DO;
     1615    13228    4                  AS_FIELD1 = TEXTC(AS_CR_MOD_PROJ-1);
     1616    13229    4                  VALUE(0) = AS_WILD_MCH / 10000;
     1617    13230    4                  VALUE(1) = MOD( AS_WILD_MCH, 10000 ) / 100;
     1618    13231                       %NUMBER( NUM2="VALUE(0)", NUM3="VALUE(1)" );
             13247    4         CALL ASB$BINCHAR( AS_FIELD2.TEXT, 0, -2, VALUE(0) );
             13255    4         CALL ASB$BINCHAR( AS_FIELD3.TEXT, 0, -3, VALUE(1) );
     1619    13261    4                  IF AS_FIELD3.COUNT = 1
     1620    13262    5                  THEN DO;
     1621    13263    5                     AS_FIELD3.COUNT = 2;
     1622    13264    5                     CALL INSERT( AS_FIELD3.TEXT, 1, 1, '0' );
     1623    13265    5                     END;
     1624    13266                       %SCREAM( ERR#=E$MCHARGES_TOO_LARGE, LEVEL=ERROR, MID='C' );
     1625    13281    4                  AS_USERS.BUDGET.MAXC = AS_WILD_MCH;
     1626    13282    4                  END;
     1627    13283    3            END;
     1628    13284    2      IF AS_MOD_USER.BUDGET.ACCUM THEN
     1629    13285    2         AS_USERS.BUDGET.ACCUM = AS_DFLT.BUDGET.ACCUM;
     1630    13286    2      END;
     1631    13287    2   IF AS_MOD_USER.KEY ~= '0'B THEN DO;
     1632    13288    3      DO I = 0 TO 71;
     1633    13289    3         IF AS_MOD_USER.KEY_A(I) > 0 THEN
     1634    13290    3            AS_USERS.KEY(I) = AS_DFLT.KEY(I);
     1635    13291    3         END;
     1636    13292    2      END;
     1637    13293    1   IF AS_MOD_USER.LIMITS ~= '0'B THEN CALL ASC$MOD_USER_LIMITS;
     1638    13294    1   IF AS_MOD_USER.RESOURCE THEN CALL ASC$RESOURCE( AS_TRUE );
     1639    13295    1   IF AS_MOD_USER.FERESOURCE THEN CALL ASC$FERESOURCE( AS_TRUE );
     1640    13296    1   IF AS_MOD_USER.PSEUDO THEN CALL ASC$PSEUDO( AS_TRUE );
     1641    13297    1   IF AS_MOD_USER.FEPSEUDO THEN CALL ASC$FEPSEUDO( AS_TRUE );
     1642    13298    2   IF AS_MOD_USER.FACCOUNT THEN DO;
PL6.E3A0      #002=ASC$MOD_USER File=ASC$OPTS.:E05TSI                            TUE 07/29/97 09:41 Page:265
     1643    13299    2      SUPER_TO_PIG.TYPE = %MODIFY_ACCT;
     1644    13300    2      SUPER_TO_PIG.ACCT = AS_USERS.ACCT;
     1645    13301    2      SUPER_TO_PIG.PACKSET = AS_USERS.HPSN;
     1646    13302    2      CALL ASB$PIG( SUPER_TO_PIG );
     1647    13303    2      END;
     1648    13304
     1649    13305    1   END ASC$MOD_USER ;

PL6.E3A0      #002=ASC$MOD_USER File=ASC$OPTS.:E05TSI                            TUE 07/29/97 09:41 Page:266
--  Include file information  --

   AS_SUPER_R.:E05TOU  cannot be made into a system file and is referenced.
   CP_6.:E05TOU  cannot be made into a system file and is referenced.
   XU_FORMAT_C.:E05TOU  is referenced.
   XU_MACRO_C.:E05TOU  is referenced.
   AS_MAC_C.:E05TOU  cannot be made into a system file and is referenced.
   KL_SUPER_C.:E05TOU  is referenced.
   AS_PERR_C.:E05TOU  is referenced.
   AS_SUBS_C.:E05TOU  is referenced.
   AS_SUPER_C.:E05TOU  is referenced.
   AS_ENTRIES_M.:E05TOU  is referenced.
   B$JIT_C.:E05TOU  was found in the system file and is never referenced.
   CP_6_C.:E05TOU  was found in the system file and is referenced.
      No diagnostics issued in procedure ASC$MOD_USER.

   Procedure ASC$MOD_USER requires 897 words for executable code.
   Procedure ASC$MOD_USER requires 16 words of local(AUTO) storage.

    No errors detected in file ASC$OPTS.:E05TSI    .

PL6.E3A0      #002=ASC$MOD_USER File=ASC$OPTS.:E05TSI                            TUE 07/29/97 09:41 Page:267

 Object Unit name= ASC$MOD_USER                               File name= ASC$OPTS.:E05TOU
 UTS= JUL 29 '97 09:41:36.12 TUE                              Compiler= PL-6/E31         Sev=      00
 SharedLib= :SHARED_SYSTEM                                    Alt SharedLib=


    ****  Control sections  ****

 Sect   Type Bound  Init  Size OctSiz  Section name(segment info)
    0   DCB   even  none     0      0  M$UC
    1   DCB   even  none     0      0  M$LO
    2  RoData even  UTS     18     22  ASC$MOD_USER
    3   Proc  even  none   897   1601  ASC$MOD_USER
    4  RoData even  none    18     22  ASC$MOD_USER

    ****  Entry defs  ****

                              Check   Calling
                             calling  sequence
  Sect OctLoc Primary Altret sequence   type   Parms  Name
     3      0   yes            yes      Std        0  ASC$MOD_USER
PL6.E3A0      #002=ASC$MOD_USER File=ASC$OPTS.:E05TSI                            TUE 07/29/97 09:41 Page:268

  ****  Entry refs  ****

         Check        Calling
        calling       sequence
Altret sequence SRef   type   Args  Name
         yes          ~proc      0 XU_OUTPUT_OPTIONS
         yes           Std       4 ASB$BINCHAR
         yes           Std       1 ASC$FERESOURCE
 yes     yes           Std       1 ASB$PIG
 yes     yes           Std       3 ASC$SETUP
         yes           Std       2 ASH$ERROR
         yes           Std       0 ASC$MOD_USER_LIMITS
         yes           Std       1 ASC$RESOURCE
         yes           Std       1 ASC$FEPSEUDO
         yes           Std       1 ASC$PSEUDO
 yes     yes           Std       3 ASC$BANNER
                       nStd      0 X66_AUTO_0
                       Std       0 B_CONSPOOL_D
                       nStd      0 X66_ARET

  ****  Data refs  ****

  Flags:  r = read only, s = secondary
Flgs Name                             Flgs Name                             Flgs Name
     M$UC                             r    AS_TRUE                          r    AS_PRIV_NAMES
r    AS_PPRIV_NAMES                   r    AS_PRIVILEGE                     r    AS_PPRIVILEGE
r    AS_MODE                          r    AS_FE_MODE                            M$LO
     ERR_CODE                              AS_FIELD1                             AS_FIELD2
     AS_FIELD3                             REMEM_VAR                             REM_FCMD
     ASA_BRKS_LOC                          AS_SUPER_TO_PIG$                      AS_CR_MOD_PROJ
     AS_WILD_MCH                           AS_WILD_MVAL                          AS_USERS
     AS_DFLT                               KL_DREC                               KL_DFLT
     AS_MOD_USER                           B_VECTNIL
PL6.E3A0      #002=ASC$MOD_USER File=ASC$OPTS.:E05TSI                            TUE 07/29/97 09:41 Page:269

  ****  Segment refs  ****

  Flags:  r = read only, s = secondary
Flgs Name                             Flgs Name                             Flgs Name
     ISSID
PL6.E3A0      #002=ASC$MOD_USER File=ASC$OPTS.:E05TSI                            TUE 07/29/97 09:41 Page:270


     1319        1        /*T***********************************************************/
     1320        2        /*T*                                                         */
     1321        3        /*T* Copyright (c) Bull HN Information Systems Inc., 1997    */
     1322        4        /*T*                                                         */
     1323        5        /*T***********************************************************/
     1324        6        ASC$MOD_USER: PROC;

      6  3 000000   000000 700200 xent  ASC$MOD_USER TSX0  ! X66_AUTO_0
         3 000001   000020 000000                    ZERO    16,0

     1325        7
     1326        8
     1327        9        /********************************************************************/
     1328       10        /*    Include files       include files       include files         */
     1329       11        /********************************************************************/
     1330       12
     1331       13        %INCLUDE      AS_ENTRIES_M ;
     1332     1063        %INCLUDE      AS_SUPER_C ;
     1333     1498        %INCLUDE      AS_SUBS_C ;
     1334     2912        %INCLUDE      AS_PERR_C ;
     1335     3514        %INCLUDE      KL_SUPER_C ;
     1336     6416        %INCLUDE      AS_MAC_C ;
     1337     6496        %INCLUDE      XU_MACRO_C ;
     1338     9602        %INCLUDE      XU_FORMAT_C ;
     1339     9764        %INCLUDE      CP_6 ;
     1340     9845        %INCLUDE      AS_SUPER_R ;
     1341    12861
     1342    12862        /********************************************************************/
     1343    12863        /*    Auto data       auto data       auto data       auto data     */
     1344    12864        /********************************************************************/
     1345    12865
     1346    12866    1   DCL I SBIN;
     1347    12867    1   DCL J SBIN;
     1348    12868    1   DCL K SBIN;
     1349    12869    1   DCL VAL SBIN;
     1350    12870    1   DCL SAVE_MAXC   SBIN ;
PL6.E3A0      #002=ASC$MOD_USER File=ASC$OPTS.:E05TSI                            TUE 07/29/97 09:41 Page:271
     1351    12871    1   DCL SET$ PTR;
     1352    12872    1   DCL VALUE(0:1) SBIN ;
     1353    12873    1   DCL 1 TEXTC(0:2) CONSTANT,
     1354    12874    1          2 CNT UBIN BYTE UNAL INIT( 4, 6, 17 ),
     1355    12875    1          2 TEXT CHAR(17) INIT( 'user', 'project', 'user in a project' );
     1356    12876    1   DCL 1 VARY$STR BASED(SET$) ALIGNED ,
     1357    12877    1          2 CNT UBIN(9) UNAL ,
     1358    12878    1          2 TEXT CHAR(VARY$STR.CNT) ;
     1359    12879    1   DCL 1 ZERO_LENGTH CONSTANT,
     1360    12880    1          2 CNT  UBIN(9) CALIGNED INIT (0),
     1361    12881    1          2 TEXT CHAR(1) CALIGNED INIT (' ');
     1362    12882
     1363    12883        /********************************************************************/
     1364    12884        /*    Entry dcls      entry dcls      entry dcls      entry dcls    */
     1365    12885        /********************************************************************/
     1366    12886
     1367    12887        %ASC$MOD_USER_LIMITS ;
     1368    12890        %ASC$RESOURCE ;
     1369    12893        %ASC$FERESOURCE ;
     1370    12896        %ASC$PSEUDO ;
     1371    12899        %ASC$FEPSEUDO ;
     1372    12902        %ASB$PIG ;
     1373    12905        %ASH$ERROR ;
     1374    12908        %ASC$BANNER ;
     1375    12911        %ASH$WARN ;
     1376    12914        %ASC$SETUP ;
     1377    12917
     1378    12918        /********************************************************************/
     1379    12919        /*    Local based     local based     local based     local based   */
     1380    12920        /********************************************************************/
     1381    12921
     1382    12922        %SUPER_TO_PIG( STCLASS="BASED(AS_SUPER_TO_PIG$)" );
     1383    12954        /********************************************************************/
     1384    12955        /*    Procedure       procedure       procedure       procedure     */
     1385    12956        /********************************************************************/
     1386    12957
     1387    12958
PL6.E3A0      #002=ASC$MOD_USER File=ASC$OPTS.:E05TSI                            TUE 07/29/97 09:41 Page:272
     1388    12959
     1389    12960    1   IF AS_MOD_USER.PASSWORD THEN KL_DREC.PASSWORD = KL_DFLT.PASSWORD;

  12960  3 000002   000000 234000 xsym               SZN     AS_MOD_USER
         3 000003   000007 605000 3                  TPL     s:12961

  12960  3 000004   040000 100400                    MLR     fill='040'O
         3 000005   000002 000010 xsym               ADSC9   KL_DFLT+2                cn=0,n=8
         3 000006   000002 000010 xsym               ADSC9   KL_DREC+2                cn=0,n=8

     1390    12961    1   IF AS_MOD_USER.NAT_LANG THEN AS_USERS.NAT_LANG = AS_DFLT.NAT_LANG;

  12961  3 000007   000000 236000 xsym               LDQ     AS_MOD_USER
         3 000010   200000 316003                    CANQ    65536,DU
         3 000011   000014 600000 3                  TZE     s:12962

  12961  3 000012   000005 236000 xsym               LDQ     AS_DFLT+5
         3 000013   000005 552040 xsym               STBQ    AS_USERS+5,'40'O

     1391    12962    1   IF AS_MOD_USER.STEPACCNT THEN AS_USERS.STEPACCNT = AS_DFLT.STEPACCNT;

  12962  3 000014   000000 236000 xsym               LDQ     AS_MOD_USER
         3 000015   100000 316003                    CANQ    32768,DU
         3 000016   000023 600000 3                  TZE     s:12963

  12962  3 000017   000005 236000 xsym               LDQ     AS_DFLT+5
         3 000020   000005 676000 xsym               ERQ     AS_USERS+5
         3 000021   000400 376003                    ANQ     256,DU
         3 000022   000005 656000 xsym               ERSQ    AS_USERS+5

     1392    12963    1   IF AS_MOD_USER.BATNUM THEN AS_USERS.BATNUM = AS_DFLT.BATNUM;

  12963  3 000023   000000 236000 xsym               LDQ     AS_MOD_USER
         3 000024   040000 316003                    CANQ    16384,DU
         3 000025   000030 600000 3                  TZE     s:12964

  12963  3 000026   000005 720000 xsym               LXL0    AS_DFLT+5
PL6.E3A0      #002=ASC$MOD_USER File=ASC$OPTS.:E05TSI                            TUE 07/29/97 09:41 Page:273
         3 000027   000005 440000 xsym               SXL0    AS_USERS+5

     1393    12964    1   IF AS_MOD_USER.FEMFPRG THEN KL_DREC.KL_DREC_FEBLK.MFPRG = KL_DFLT.KL_DFLT_FEBLK.
             12964            MFPRG;

  12964  3 000030   000030 236000 xsym               LDQ     AS_MOD_USER+24
         3 000031   100000 316007                    CANQ    32768,DL
         3 000032   000035 600000 3                  TZE     s:12965

  12964  3 000033   000031 236000 xsym               LDQ     KL_DFLT+25
         3 000034   000031 552040 xsym               STBQ    KL_DREC+25,'40'O

     1394    12965    1   IF AS_MOD_USER.FEMACCTMEM THEN KL_DREC.KL_DREC_FEBLK.MACCTMEM = KL_DFLT.
             12965            KL_DFLT_FEBLK.MACCTMEM;

  12965  3 000035   000050 236000 xsym               LDQ     AS_MOD_USER+40
         3 000036   000100 316007                    CANQ    64,DL
         3 000037   000042 600000 3                  TZE     s:12966

  12965  3 000040   000031 236000 xsym               LDQ     KL_DFLT+25
         3 000041   000031 552030 xsym               STBQ    KL_DREC+25,'30'O

     1395    12966    1   IF AS_MOD_USER.FEDBACCN THEN KL_DREC.KL_DREC_FEBLK.DBACCN = KL_DFLT.KL_DFLT_FEBLK.
             12966            DBACCN;

  12966  3 000042   000050 236000 xsym               LDQ     AS_MOD_USER+40
         3 000043   000040 316007                    CANQ    32,DL
         3 000044   000050 600000 3                  TZE     s:12967

  12966  3 000045   040000 100400                    MLR     fill='040'O
         3 000046   000026 000010 xsym               ADSC9   KL_DFLT+22               cn=0,n=8
         3 000047   000026 000010 xsym               ADSC9   KL_DREC+22               cn=0,n=8

     1396    12967    1   IF AS_MOD_USER.STARSACC THEN

  12967  3 000050   000000 236000 xsym               LDQ     AS_MOD_USER
         3 000051   020000 316003                    CANQ    8192,DU
PL6.E3A0      #002=ASC$MOD_USER File=ASC$OPTS.:E05TSI                            TUE 07/29/97 09:41 Page:274
         3 000052   000057 600000 3                  TZE     s:12970

     1397    12968    1      AS_USERS.FLAGS.STARSACC = AS_DFLT.FLAGS.STARSACC;

  12968  3 000053   000244 236000 xsym               LDQ     AS_DFLT+164
         3 000054   000244 676000 xsym               ERQ     AS_USERS+164
         3 000055   010000 376003                    ANQ     4096,DU
         3 000056   000244 656000 xsym               ERSQ    AS_USERS+164

     1398    12969    1   IF AS_MOD_USER.SETUP ~= '0'B THEN ;

     1399    12970    2   DO I = 0 TO 3;

  12970  3 000057   200003 450100                    STZ     I,,AUTO

     1400    12971    3      IF AS_MOD_USER.SETUP_A(I) THEN DO ;

  12971  3 000060   200003 235100                    LDA     I,,AUTO
         3 000061   000063 605000 3                  TPL     s:12971+3
         3 000062   000044 035003                    ADLA    36,DU
         3 000063   000000 066405                    CMPB    filb='0'B
         3 000064   000000 050001 xsym               BDSC    AS_MOD_USER,A            by=0,bit=5,n=1
         3 000065   000002 000022 xsym               BDSC    B_VECTNIL+2              by=0,bit=0,n=18
         3 000066   000130 600000 3                  TZE     s:12996

     1401    12972    3         J = AS_DFLT.SETUP(I) ;

  12972  3 000067   200003 235100                    LDA     I,,AUTO
         3 000070   000001 735000                    ALS     1
         3 000071   000100 100405                    MLR     fill='000'O
         3 000072   000352 000002 xsym               ADSC9   AS_DFLT+234,A            cn=0,n=2
         3 000073   200014 000004                    ADSC9   VALUE+3,,AUTO            cn=0,n=4
         3 000074   200014 236100                    LDQ     VALUE+3,,AUTO
         3 000075   000022 732000                    QRS     18
         3 000076   200004 756100                    STQ     J,,AUTO

     1402    12973    3         IF J = - 1 THEN
PL6.E3A0      #002=ASC$MOD_USER File=ASC$OPTS.:E05TSI                            TUE 07/29/97 09:41 Page:275

  12973  3 000077   000027 116000 xsym               CMPQ    B_VECTNIL+23
         3 000100   000104 601000 3                  TNZ     s:12976

     1403    12974    3            SET$ = ADDR (ZERO_LENGTH);

  12974  3 000101   000000 236000 4                  LDQ     0
         3 000102   200010 756100                    STQ     SET$,,AUTO
         3 000103   000107 710000 3                  TRA     s:12977

     1404    12975    3         ELSE
     1405    12976    3            SET$ = ADDR( AS_DFLT.SETUP_CHRA.TXT_UBIN(J)) ;

  12976  3 000104   000020 736000                    QLS     16
         3 000105   000001 036000 4                  ADLQ    1
         3 000106   200010 756100                    STQ     SET$,,AUTO

     1406    12977    3         CALL ASC$SETUP( ADDR(AS_USERS), I, SET$->VARY$STR)

  12977  3 000107   000002 236000 4                  LDQ     2
         3 000110   200014 756100                    STQ     VALUE+3,,AUTO
         3 000111   200010 236100                    LDQ     SET$,,AUTO
         3 000112   200017 756100                    STQ     VALUE+6,,AUTO
         3 000113   200003 630500                    EPPR0   I,,AUTO
         3 000114   200016 450500                    STP0    VALUE+5,,AUTO
         3 000115   200014 631500                    EPPR1   VALUE+3,,AUTO
         3 000116   200015 451500                    STP1    VALUE+4,,AUTO
         3 000117   200015 630500                    EPPR0   VALUE+4,,AUTO
         3 000120   000021 631400 xsym               EPPR1   B_VECTNIL+17
         3 000121   000000 701000 xent               TSX1    ASC$SETUP
         3 000122   000124 702000 3                  TSX2    s:12991
         3 000123   000130 710000 3                  TRA     s:12996

     1407    12978    4         WHENALTRETURN DO;

     1408    12979                 %SCREAM(ERR#=E$ALL_BANNER_SPACE_USED,LEVEL=ERROR,MID='C');

PL6.E3A0      #002=ASC$MOD_USER File=ASC$OPTS.:E05TSI                            TUE 07/29/97 09:41 Page:276
  12991  3 000124   000003 630400 4                  EPPR0   3
         3 000125   000017 631400 xsym               EPPR1   B_VECTNIL+15
         3 000126   000000 701000 xent               TSX1    ASH$ERROR
         3 000127   000000 011000                    NOP     0

     1409    12994    4            END;

     1410    12995    3         END ;

     1411    12996    2      END ;

  12996  3 000130   200003 054100                    AOS     I,,AUTO
         3 000131   200003 235100                    LDA     I,,AUTO
         3 000132   000003 115007                    CMPA    3,DL
         3 000133   000060 604400 3                  TMOZ    s:12971

     1412    12997    2   IF AS_MOD_USER.PERM_BIT ~= '0'B THEN DO;

  12997  3 000134   000000 236000 xsym               LDQ     AS_MOD_USER
         3 000135   000740 316003                    CANQ    480,DU
         3 000136   000164 600000 3                  TZE     s:13004

     1413    12998    3      DO I = 0 TO 3 ;

  12998  3 000137   200003 450100                    STZ     I,,AUTO

     1414    12999    3         IF AS_MOD_USER.PERM_A(I) THEN

  12999  3 000140   200003 235100                    LDA     I,,AUTO
         3 000141   000143 605000 3                  TPL     s:12999+3
         3 000142   000044 035003                    ADLA    36,DU
         3 000143   000000 066405                    CMPB    filb='0'B
         3 000144   000000 200001 xsym               BDSC    AS_MOD_USER,A            by=1,bit=0,n=1
         3 000145   000002 000022 xsym               BDSC    B_VECTNIL+2              by=0,bit=0,n=18
         3 000146   000160 600000 3                  TZE     s:13001

     1415    13000    3            AS_USERS.SETUP_PERM(I) = AS_DFLT.SETUP_PERM(I) ;
PL6.E3A0      #002=ASC$MOD_USER File=ASC$OPTS.:E05TSI                            TUE 07/29/97 09:41 Page:277

  13000  3 000147   200003 235100                    LDA     I,,AUTO
         3 000150   000152 605000 3                  TPL     s:13000+3
         3 000151   000044 035003                    ADLA    36,DU
         3 000152   200003 236100                    LDQ     I,,AUTO
         3 000153   000155 605000 3                  TPL     s:13000+6
         3 000154   000044 036003                    ADLQ    36,DU
         3 000155   003006 060405                    CSL     bolr='003'O
         3 000156   000351 400001 xsym               BDSC    AS_DFLT+233,A            by=2,bit=0,n=1
         3 000157   000351 400001 xsym               BDSC    AS_USERS+233,Q           by=2,bit=0,n=1

     1416    13001    3         END ;

  13001  3 000160   200003 054100                    AOS     I,,AUTO
         3 000161   200003 235100                    LDA     I,,AUTO
         3 000162   000003 115007                    CMPA    3,DL
         3 000163   000140 604400 3                  TMOZ    s:12999

     1417    13002    2      END ;

     1418    13003    1   IF AS_MOD_USER.BANNER~= '0'B THEN ;

     1419    13004    2   DO I = 0 TO 9;

  13004  3 000164   200003 450100                    STZ     I,,AUTO

     1420    13005    3      IF AS_MOD_USER.BANNER_A(I) THEN DO ;

  13005  3 000165   200003 235100                    LDA     I,,AUTO
         3 000166   000170 605000 3                  TPL     s:13005+3
         3 000167   000044 035003                    ADLA    36,DU
         3 000170   000000 066405                    CMPB    filb='0'B
         3 000171   000000 300001 xsym               BDSC    AS_MOD_USER,A            by=1,bit=8,n=1
         3 000172   000002 000022 xsym               BDSC    B_VECTNIL+2              by=0,bit=0,n=18
         3 000173   000235 600000 3                  TZE     s:13030

     1421    13006    3         J = AS_DFLT.BANNER(I) ;
PL6.E3A0      #002=ASC$MOD_USER File=ASC$OPTS.:E05TSI                            TUE 07/29/97 09:41 Page:278

  13006  3 000174   200003 235100                    LDA     I,,AUTO
         3 000175   000001 735000                    ALS     1
         3 000176   000100 100405                    MLR     fill='000'O
         3 000177   000354 000002 xsym               ADSC9   AS_DFLT+236,A            cn=0,n=2
         3 000200   200014 000004                    ADSC9   VALUE+3,,AUTO            cn=0,n=4
         3 000201   200014 236100                    LDQ     VALUE+3,,AUTO
         3 000202   000022 732000                    QRS     18
         3 000203   200004 756100                    STQ     J,,AUTO

     1422    13007    3         IF J = - 1 THEN

  13007  3 000204   000027 116000 xsym               CMPQ    B_VECTNIL+23
         3 000205   000211 601000 3                  TNZ     s:13010

     1423    13008    3            SET$ = ADDR (ZERO_LENGTH);

  13008  3 000206   000000 236000 4                  LDQ     0
         3 000207   200010 756100                    STQ     SET$,,AUTO
         3 000210   000214 710000 3                  TRA     s:13011

     1424    13009    3         ELSE
     1425    13010    3            SET$ = ADDR( AS_DFLT.SETUP_CHRA.TXT_UBIN(J)) ;

  13010  3 000211   000020 736000                    QLS     16
         3 000212   000001 036000 4                  ADLQ    1
         3 000213   200010 756100                    STQ     SET$,,AUTO

     1426    13011    3         CALL ASC$BANNER(ADDR(AS_USERS),I,VARY$STR)

  13011  3 000214   000002 236000 4                  LDQ     2
         3 000215   200014 756100                    STQ     VALUE+3,,AUTO
         3 000216   200010 236100                    LDQ     SET$,,AUTO
         3 000217   200017 756100                    STQ     VALUE+6,,AUTO
         3 000220   200003 630500                    EPPR0   I,,AUTO
         3 000221   200016 450500                    STP0    VALUE+5,,AUTO
         3 000222   200014 631500                    EPPR1   VALUE+3,,AUTO
PL6.E3A0      #002=ASC$MOD_USER File=ASC$OPTS.:E05TSI                            TUE 07/29/97 09:41 Page:279
         3 000223   200015 451500                    STP1    VALUE+4,,AUTO
         3 000224   200015 630500                    EPPR0   VALUE+4,,AUTO
         3 000225   000021 631400 xsym               EPPR1   B_VECTNIL+17
         3 000226   000000 701000 xent               TSX1    ASC$BANNER
         3 000227   000231 702000 3                  TSX2    s:13025
         3 000230   000235 710000 3                  TRA     s:13030

     1427    13012    4         WHENALTRETURN DO;

     1428    13013                 %SCREAM(ERR#=E$ALL_BANNER_SPACE_USED,LEVEL=ERROR,MID='C');

  13025  3 000231   000003 630400 4                  EPPR0   3
         3 000232   000017 631400 xsym               EPPR1   B_VECTNIL+15
         3 000233   000000 701000 xent               TSX1    ASH$ERROR
         3 000234   000000 011000                    NOP     0

     1429    13028    4            END;

     1430    13029    3         END ;

     1431    13030    2      END ;

  13030  3 000235   200003 054100                    AOS     I,,AUTO
         3 000236   200003 235100                    LDA     I,,AUTO
         3 000237   000011 115007                    CMPA    9,DL
         3 000240   000165 604400 3                  TMOZ    s:13005

     1432    13031    1   IF AS_MOD_USER.BANNER_PERM ~= '0'B THEN

  13031  3 000241   000000 066400                    CMPB    filb='0'B
         3 000242   000000 600012 xsym               BDSC    AS_MOD_USER              by=3,bit=0,n=10
         3 000243   000002 000022 xsym               BDSC    B_VECTNIL+2              by=0,bit=0,n=18
         3 000244   000272 600000 3                  TZE     s:13036

     1433    13032    2   DO I = 0 TO 9 ;

  13032  3 000245   200003 450100                    STZ     I,,AUTO
PL6.E3A0      #002=ASC$MOD_USER File=ASC$OPTS.:E05TSI                            TUE 07/29/97 09:41 Page:280

     1434    13033    2      IF AS_MOD_USER.BANNER_PERM_A(I) THEN

  13033  3 000246   200003 235100                    LDA     I,,AUTO
         3 000247   000251 605000 3                  TPL     s:13033+3
         3 000250   000044 035003                    ADLA    36,DU
         3 000251   000000 066405                    CMPB    filb='0'B
         3 000252   000000 600001 xsym               BDSC    AS_MOD_USER,A            by=3,bit=0,n=1
         3 000253   000002 000022 xsym               BDSC    B_VECTNIL+2              by=0,bit=0,n=18
         3 000254   000266 600000 3                  TZE     s:13035

     1435    13034    2         AS_USERS.BANNER_PERM(I) = AS_DFLT.BANNER_PERM(I) ;

  13034  3 000255   200003 235100                    LDA     I,,AUTO
         3 000256   000260 605000 3                  TPL     s:13034+3
         3 000257   000044 035003                    ADLA    36,DU
         3 000260   200003 236100                    LDQ     I,,AUTO
         3 000261   000263 605000 3                  TPL     s:13034+6
         3 000262   000044 036003                    ADLQ    36,DU
         3 000263   003006 060405                    CSL     bolr='003'O
         3 000264   000351 440001 xsym               BDSC    AS_DFLT+233,A            by=2,bit=4,n=1
         3 000265   000351 440001 xsym               BDSC    AS_USERS+233,Q           by=2,bit=4,n=1

     1436    13035    2      END ;

  13035  3 000266   200003 054100                    AOS     I,,AUTO
         3 000267   200003 235100                    LDA     I,,AUTO
         3 000270   000011 115007                    CMPA    9,DL
         3 000271   000246 604400 3                  TMOZ    s:13033

     1437    13036    2   IF AS_MOD_USER.CPROC ~= '0'B THEN DO;

  13036  3 000272   000001 236000 xsym               LDQ     AS_MOD_USER+1
         3 000273   360000 316003                    CANQ    122880,DU
         3 000274   000316 600000 3                  TZE     s:13042

     1438    13037    3      DO I = 0 TO 3;
PL6.E3A0      #002=ASC$MOD_USER File=ASC$OPTS.:E05TSI                            TUE 07/29/97 09:41 Page:281

  13037  3 000275   200003 450100                    STZ     I,,AUTO

     1439    13038    3         IF AS_MOD_USER.CPROC_A(I) THEN

  13038  3 000276   200003 235100                    LDA     I,,AUTO
         3 000277   000301 605000 3                  TPL     s:13038+3
         3 000300   000044 035003                    ADLA    36,DU
         3 000301   000000 066405                    CMPB    filb='0'B
         3 000302   000001 010001 xsym               BDSC    AS_MOD_USER+1,A          by=0,bit=1,n=1
         3 000303   000002 000022 xsym               BDSC    B_VECTNIL+2              by=0,bit=0,n=18
         3 000304   000312 600000 3                  TZE     s:13040

     1440    13039    3            AS_USERS.CPROC.NAME(I) = AS_DFLT.CPROC.NAME(I);

  13039  3 000305   200003 235100                    LDA     I,,AUTO
         3 000306   000005 735000                    ALS     5
         3 000307   000005 100405                    MLR     fill='000'O
         3 000310   000125 000040 xsym               ADSC9   AS_DFLT+85,A             cn=0,n=32
         3 000311   000125 000040 xsym               ADSC9   AS_USERS+85,A            cn=0,n=32

     1441    13040    3         END;

  13040  3 000312   200003 054100                    AOS     I,,AUTO
         3 000313   200003 235100                    LDA     I,,AUTO
         3 000314   000003 115007                    CMPA    3,DL
         3 000315   000276 604400 3                  TMOZ    s:13038

     1442    13041    2      END;

     1443    13042    1   IF (AS_MOD_USER.LAST_LOGON_TIME ~= '0'B)

  13042  3 000316   000051 236000 xsym               LDQ     AS_MOD_USER+41
         3 000317   004000 316003                    CANQ    2048,DU
         3 000320   000323 600000 3                  TZE     s:13047

     1444    13043    2   THEN DO;
PL6.E3A0      #002=ASC$MOD_USER File=ASC$OPTS.:E05TSI                            TUE 07/29/97 09:41 Page:282

     1445    13044    2      AS_USERS.LAST_LOGON_TIME = AS_DFLT.LAST_LOGON_TIME;

  13044  3 000321   000762 236000 xsym               LDQ     AS_DFLT+498
         3 000322   000762 756000 xsym               STQ     AS_USERS+498

     1446    13045    2      END;

     1447    13046
     1448    13047    1   IF (AS_MOD_USER.FORCE_BIT ~= '0'B)

  13047  3 000323   000000 236000 xsym               LDQ     AS_MOD_USER
         3 000324   000036 316003                    CANQ    30,DU
         3 000325   000353 600000 3                  TZE     s:13056

     1449    13048    2   THEN DO;

     1450    13049    3      DO I = 0 TO 3;

  13049  3 000326   200003 450100                    STZ     I,,AUTO

     1451    13050    3         IF (AS_MOD_USER.FORCE_A (I) = AS_TRUE)

  13050  3 000327   200003 235100                    LDA     I,,AUTO
         3 000330   000332 605000 3                  TPL     s:13050+3
         3 000331   000044 035003                    ADLA    36,DU
         3 000332   000000 066405                    CMPB    filb='0'B
         3 000333   000000 240001 xsym               BDSC    AS_MOD_USER,A            by=1,bit=4,n=1
         3 000334   000000 000001 xsym               BDSC    AS_TRUE                  by=0,bit=0,n=1
         3 000335   000347 601000 3                  TNZ     s:13054

     1452    13051    4         THEN DO;

     1453    13052    4            AS_USERS.SETUP_FORCE (I) = AS_DFLT.SETUP_FORCE (I);

  13052  3 000336   200003 235100                    LDA     I,,AUTO
         3 000337   000341 605000 3                  TPL     s:13052+3
PL6.E3A0      #002=ASC$MOD_USER File=ASC$OPTS.:E05TSI                            TUE 07/29/97 09:41 Page:283
         3 000340   000044 035003                    ADLA    36,DU
         3 000341   200003 236100                    LDQ     I,,AUTO
         3 000342   000344 605000 3                  TPL     s:13052+6
         3 000343   000044 036003                    ADLQ    36,DU
         3 000344   003006 060405                    CSL     bolr='003'O
         3 000345   000351 650001 xsym               BDSC    AS_DFLT+233,A            by=3,bit=5,n=1
         3 000346   000351 650001 xsym               BDSC    AS_USERS+233,Q           by=3,bit=5,n=1

     1454    13053    4            END;

     1455    13054    3         END;

  13054  3 000347   200003 054100                    AOS     I,,AUTO
         3 000350   200003 235100                    LDA     I,,AUTO
         3 000351   000003 115007                    CMPA    3,DL
         3 000352   000327 604400 3                  TMOZ    s:13050

     1456    13055    2      END;

     1457    13056    2   IF AS_MOD_USER.LASTCPROC ~= '0'B THEN DO;

  13056  3 000353   000001 236000 xsym               LDQ     AS_MOD_USER+1
         3 000354   017000 316003                    CANQ    7680,DU
         3 000355   000377 600000 3                  TZE     s:13062

     1458    13057    3      DO I = 0 TO 3;

  13057  3 000356   200003 450100                    STZ     I,,AUTO

     1459    13058    3         IF AS_MOD_USER.LASTCPROC_A(I) THEN

  13058  3 000357   200003 235100                    LDA     I,,AUTO
         3 000360   000362 605000 3                  TPL     s:13058+3
         3 000361   000044 035003                    ADLA    36,DU
         3 000362   000000 066405                    CMPB    filb='0'B
         3 000363   000001 050001 xsym               BDSC    AS_MOD_USER+1,A          by=0,bit=5,n=1
         3 000364   000002 000022 xsym               BDSC    B_VECTNIL+2              by=0,bit=0,n=18
PL6.E3A0      #002=ASC$MOD_USER File=ASC$OPTS.:E05TSI                            TUE 07/29/97 09:41 Page:284
         3 000365   000373 600000 3                  TZE     s:13060

     1460    13059    3            AS_USERS.LASTCPROC.NAME(I) = AS_DFLT.LASTCPROC.NAME(I);

  13059  3 000366   200003 235100                    LDA     I,,AUTO
         3 000367   000005 735000                    ALS     5
         3 000370   000005 100405                    MLR     fill='000'O
         3 000371   000165 000040 xsym               ADSC9   AS_DFLT+117,A            cn=0,n=32
         3 000372   000165 000040 xsym               ADSC9   AS_USERS+117,A           cn=0,n=32

     1461    13060    3         END;

  13060  3 000373   200003 054100                    AOS     I,,AUTO
         3 000374   200003 235100                    LDA     I,,AUTO
         3 000375   000003 115007                    CMPA    3,DL
         3 000376   000357 604400 3                  TMOZ    s:13058

     1462    13061    2      END;

     1463    13062    2   IF AS_MOD_USER.BILL ~= '0'B THEN DO;

  13062  3 000377   000001 236000 xsym               LDQ     AS_MOD_USER+1
         3 000400   000740 316003                    CANQ    480,DU
         3 000401   000423 600000 3                  TZE     s:13068

     1464    13063    3      DO I = 0 TO 3;

  13063  3 000402   200003 450100                    STZ     I,,AUTO

     1465    13064    3         IF AS_MOD_USER.BILL_A(I) THEN

  13064  3 000403   200003 235100                    LDA     I,,AUTO
         3 000404   000406 605000 3                  TPL     s:13064+3
         3 000405   000044 035003                    ADLA    36,DU
         3 000406   000000 066405                    CMPB    filb='0'B
         3 000407   000001 200001 xsym               BDSC    AS_MOD_USER+1,A          by=1,bit=0,n=1
         3 000410   000002 000022 xsym               BDSC    B_VECTNIL+2              by=0,bit=0,n=18
PL6.E3A0      #002=ASC$MOD_USER File=ASC$OPTS.:E05TSI                            TUE 07/29/97 09:41 Page:285
         3 000411   000417 600000 3                  TZE     s:13066

     1466    13065    3            AS_USERS.BILL(I) = AS_DFLT.BILL(I);

  13065  3 000412   200003 236100                    LDQ     I,,AUTO
         3 000413   000006 402007                    MPY     6,DL
         3 000414   040006 100406                    MLR     fill='040'O
         3 000415   000020 000006 xsym               ADSC9   AS_DFLT+16,Q             cn=0,n=6
         3 000416   000020 000006 xsym               ADSC9   AS_USERS+16,Q            cn=0,n=6

     1467    13066    3         END;

  13066  3 000417   200003 054100                    AOS     I,,AUTO
         3 000420   200003 235100                    LDA     I,,AUTO
         3 000421   000003 115007                    CMPA    3,DL
         3 000422   000403 604400 3                  TMOZ    s:13064

     1468    13067    2      END;

     1469    13068    2   IF AS_MOD_USER.FEBILL ~= '0'B THEN DO;

  13068  3 000423   000030 236000 xsym               LDQ     AS_MOD_USER+24
         3 000424   000074 316003                    CANQ    60,DU
         3 000425   000447 600000 3                  TZE     s:13074

     1470    13069    3      DO I = 0 TO 3;

  13069  3 000426   200003 450100                    STZ     I,,AUTO

     1471    13070    3         IF AS_MOD_USER.FEBILL_A(I) THEN

  13070  3 000427   200003 235100                    LDA     I,,AUTO
         3 000430   000432 605000 3                  TPL     s:13070+3
         3 000431   000044 035003                    ADLA    36,DU
         3 000432   000000 066405                    CMPB    filb='0'B
         3 000433   000030 230001 xsym               BDSC    AS_MOD_USER+24,A         by=1,bit=3,n=1
         3 000434   000002 000022 xsym               BDSC    B_VECTNIL+2              by=0,bit=0,n=18
PL6.E3A0      #002=ASC$MOD_USER File=ASC$OPTS.:E05TSI                            TUE 07/29/97 09:41 Page:286
         3 000435   000443 600000 3                  TZE     s:13072

     1472    13071    3            KL_DREC.KL_DREC_FEBLK.BILL(I) = KL_DFLT.KL_DFLT_FEBLK.BILL(I);

  13071  3 000436   200003 236100                    LDQ     I,,AUTO
         3 000437   000006 402007                    MPY     6,DL
         3 000440   040006 100406                    MLR     fill='040'O
         3 000441   000020 000006 xsym               ADSC9   KL_DFLT+16,Q             cn=0,n=6
         3 000442   000020 000006 xsym               ADSC9   KL_DREC+16,Q             cn=0,n=6

     1473    13072    3         END;

  13072  3 000443   200003 054100                    AOS     I,,AUTO
         3 000444   200003 235100                    LDA     I,,AUTO
         3 000445   000003 115007                    CMPA    3,DL
         3 000446   000427 604400 3                  TMOZ    s:13070

     1474    13073    2      END;

     1475    13074    2   IF AS_MOD_USER.FEMINTS ~= '0'B THEN DO;

  13074  3 000447   000030 236000 xsym               LDQ     AS_MOD_USER+24
         3 000450   000004 316000 4                  CANQ    4
         3 000451   000472 600000 3                  TZE     s:13080

     1476    13075    3      DO I = 0 TO 3;

  13075  3 000452   200003 450100                    STZ     I,,AUTO

     1477    13076    3         IF AS_MOD_USER.FEMINTS_A(I) THEN

  13076  3 000453   200003 235100                    LDA     I,,AUTO
         3 000454   000456 605000 3                  TPL     s:13076+3
         3 000455   000044 035003                    ADLA    36,DU
         3 000456   000000 066405                    CMPB    filb='0'B
         3 000457   000030 270001 xsym               BDSC    AS_MOD_USER+24,A         by=1,bit=7,n=1
         3 000460   000002 000022 xsym               BDSC    B_VECTNIL+2              by=0,bit=0,n=18
PL6.E3A0      #002=ASC$MOD_USER File=ASC$OPTS.:E05TSI                            TUE 07/29/97 09:41 Page:287
         3 000461   000466 600000 3                  TZE     s:13078

     1478    13077    3            KL_DREC.KL_DREC_FEBLK.MINTS(I) = KL_DFLT.KL_DFLT_FEBLK.MINTS(I);

  13077  3 000462   200003 235100                    LDA     I,,AUTO
         3 000463   000005 100405                    MLR     fill='000'O
         3 000464   000030 000001 xsym               ADSC9   KL_DFLT+24,A             cn=0,n=1
         3 000465   000030 000001 xsym               ADSC9   KL_DREC+24,A             cn=0,n=1

     1479    13078    3         END;

  13078  3 000466   200003 054100                    AOS     I,,AUTO
         3 000467   200003 235100                    LDA     I,,AUTO
         3 000470   000003 115007                    CMPA    3,DL
         3 000471   000453 604400 3                  TMOZ    s:13076

     1480    13079    2      END;

     1481    13080    2   IF AS_MOD_USER.FEMTIME ~= '0'B THEN DO;

  13080  3 000472   000050 236000 xsym               LDQ     AS_MOD_USER+40
         3 000473   074000 316007                    CANQ    30720,DL
         3 000474   000514 600000 3                  TZE     s:13086

     1482    13081    3      DO I = 0 TO 3;

  13081  3 000475   200003 450100                    STZ     I,,AUTO

     1483    13082    3         IF AS_MOD_USER.FEMTIME_A(I) THEN

  13082  3 000476   200003 235100                    LDA     I,,AUTO
         3 000477   000501 605000 3                  TPL     s:13082+3
         3 000500   000044 035003                    ADLA    36,DU
         3 000501   000000 066405                    CMPB    filb='0'B
         3 000502   000050 430001 xsym               BDSC    AS_MOD_USER+40,A         by=2,bit=3,n=1
         3 000503   000002 000022 xsym               BDSC    B_VECTNIL+2              by=0,bit=0,n=18
         3 000504   000510 600000 3                  TZE     s:13084
PL6.E3A0      #002=ASC$MOD_USER File=ASC$OPTS.:E05TSI                            TUE 07/29/97 09:41 Page:288

     1484    13083    3            KL_DREC.KL_DREC_FEBLK.MTIME(I) = KL_DFLT.KL_DFLT_FEBLK.MTIME(I);

  13083  3 000505   200003 720100                    LXL0    I,,AUTO
         3 000506   000042 235010 xsym               LDA     KL_DFLT+34,X0
         3 000507   000042 755010 xsym               STA     KL_DREC+34,X0

     1485    13084    3         END;

  13084  3 000510   200003 054100                    AOS     I,,AUTO
         3 000511   200003 235100                    LDA     I,,AUTO
         3 000512   000003 115007                    CMPA    3,DL
         3 000513   000476 604400 3                  TMOZ    s:13082

     1486    13085    2      END;

     1487    13086    2   IF AS_MOD_USER.FEMMEM ~= '0'B THEN DO;

  13086  3 000514   000050 236000 xsym               LDQ     AS_MOD_USER+40
         3 000515   003600 316007                    CANQ    1920,DL
         3 000516   000540 600000 3                  TZE     s:13092

     1488    13087    3      DO I = 0 TO 3;

  13087  3 000517   200003 450100                    STZ     I,,AUTO

     1489    13088    3         IF AS_MOD_USER.FEMMEM_A(I) THEN

  13088  3 000520   200003 235100                    LDA     I,,AUTO
         3 000521   000523 605000 3                  TPL     s:13088+3
         3 000522   000044 035003                    ADLA    36,DU
         3 000523   000000 066405                    CMPB    filb='0'B
         3 000524   000050 470001 xsym               BDSC    AS_MOD_USER+40,A         by=2,bit=7,n=1
         3 000525   000002 000022 xsym               BDSC    B_VECTNIL+2              by=0,bit=0,n=18
         3 000526   000534 600000 3                  TZE     s:13090

     1490    13089    3            KL_DREC.KL_DREC_FEBLK.MMEM(I) = KL_DFLT.KL_DFLT_FEBLK.MMEM(I);
PL6.E3A0      #002=ASC$MOD_USER File=ASC$OPTS.:E05TSI                            TUE 07/29/97 09:41 Page:289

  13089  3 000527   200003 235100                    LDA     I,,AUTO
         3 000530   000001 735000                    ALS     1
         3 000531   000005 100405                    MLR     fill='000'O
         3 000532   000046 000002 xsym               ADSC9   KL_DFLT+38,A             cn=0,n=2
         3 000533   000046 000002 xsym               ADSC9   KL_DREC+38,A             cn=0,n=2

     1491    13090    3         END;

  13090  3 000534   200003 054100                    AOS     I,,AUTO
         3 000535   200003 235100                    LDA     I,,AUTO
         3 000536   000003 115007                    CMPA    3,DL
         3 000537   000520 604400 3                  TMOZ    s:13088

     1492    13091    2      END;

     1493    13092    1   IF AS_MOD_USER.WSN THEN KL_DREC.WOO = KL_DFLT.WOO;

  13092  3 000540   000001 236000 xsym               LDQ     AS_MOD_USER+1
         3 000541   000020 316003                    CANQ    16,DU
         3 000542   000546 600000 3                  TZE     s:13093

  13092  3 000543   040000 100400                    MLR     fill='040'O
         3 000544   000007 000010 xsym               ADSC9   KL_DFLT+7                cn=0,n=8
         3 000545   000007 000010 xsym               ADSC9   KL_DREC+7                cn=0,n=8

     1494    13093    2   IF AS_MOD_USER.HSET THEN DO;

  13093  3 000546   000010 316003                    CANQ    8,DU
         3 000547   000556 600000 3                  TZE     s:13097

     1495    13094    2      KL_DREC.HPS.N = KL_DFLT.HPS.N;

  13094  3 000550   040000 100400                    MLR     fill='040'O
         3 000551   000011 000006 xsym               ADSC9   KL_DFLT+9                cn=0,n=6
         3 000552   000011 000006 xsym               ADSC9   KL_DREC+9                cn=0,n=6

PL6.E3A0      #002=ASC$MOD_USER File=ASC$OPTS.:E05TSI                            TUE 07/29/97 09:41 Page:290
     1496    13095    2      AS_USERS.HPSN = AS_DFLT.HPSN;

  13095  3 000553   040000 100400                    MLR     fill='040'O
         3 000554   000123 000006 xsym               ADSC9   AS_DFLT+83               cn=0,n=6
         3 000555   000123 000006 xsym               ADSC9   AS_USERS+83              cn=0,n=6

     1497    13096    2      END;

     1498    13097    1   IF AS_MOD_USER.PROFILE THEN KL_DREC.PNAME = KL_DFLT.PNAME;

  13097  3 000556   000004 316003                    CANQ    4,DU
         3 000557   000563 600000 3                  TZE     s:13098

  13097  3 000560   000000 100400                    MLR     fill='000'O
         3 000561   000004 000014 xsym               ADSC9   KL_DFLT+4                cn=0,n=12
         3 000562   000004 000014 xsym               ADSC9   KL_DREC+4                cn=0,n=12

     1499    13098    2   IF AS_MOD_USER.ACCESS THEN DO;

  13098  3 000563   000005 316000 4                  CANQ    5
         3 000564   000655 600000 3                  TZE     s:13116

     1500    13099    3      DO I = 0 TO 4;

  13099  3 000565   200003 450100                    STZ     I,,AUTO

     1501    13100    3         IF AS_MOD_USER.ACCESS_A(I) THEN

  13100  3 000566   200003 235100                    LDA     I,,AUTO
         3 000567   000571 605000 3                  TPL     s:13100+3
         3 000570   000044 035003                    ADLA    36,DU
         3 000571   000000 066405                    CMPB    filb='0'B
         3 000572   000001 270001 xsym               BDSC    AS_MOD_USER+1,A          by=1,bit=7,n=1
         3 000573   000002 000022 xsym               BDSC    B_VECTNIL+2              by=0,bit=0,n=18
         3 000574   000651 600000 3                  TZE     s:13114

     1502    13101    4         DO SELECT( I );
PL6.E3A0      #002=ASC$MOD_USER File=ASC$OPTS.:E05TSI                            TUE 07/29/97 09:41 Page:291

  13101  3 000575   200003 236100                    LDQ     I,,AUTO
         3 000576   000001 116007                    CMPQ    1,DL
         3 000577   000612 604000 3                  TMI     s:13101+13
         3 000600   000633 600000 3                  TZE     s:13108
         3 000601   000003 116007                    CMPQ    3,DL
         3 000602   000607 604000 3                  TMI     s:13101+10
         3 000603   000645 600000 3                  TZE     s:13112
         3 000604   000004 116007                    CMPQ    4,DL
         3 000605   000651 601000 3                  TNZ     s:13114
         3 000606   000640 710000 3                  TRA     s:13110
         3 000607   000002 116007                    CMPQ    2,DL
         3 000610   000651 601000 3                  TNZ     s:13114
         3 000611   000626 710000 3                  TRA     s:13106
         3 000612   000000 116003                    CMPQ    0,DU
         3 000613   000651 601000 3                  TNZ     s:13114
         3 000614   000615 710000 3                  TRA     s:13103

     1503    13102    4            SELECT( AS_M_BATCH# );

     1504    13103    4            KL_DREC.FLAGS.BATOK = KL_DFLT.FLAGS.BATOK;

  13103  3 000615   000000 236000 xsym               LDQ     KL_DFLT
         3 000616   000000 676000 xsym               ERQ     KL_DREC
         3 000617   000040 376003                    ANQ     32,DU
         3 000620   000000 656000 xsym               ERSQ    KL_DREC

     1505    13104    4            AS_USERS.BATOK = AS_DFLT.BATOK;

  13104  3 000621   000005 236000 xsym               LDQ     AS_DFLT+5
         3 000622   000005 676000 xsym               ERQ     AS_USERS+5
         3 000623   000200 376003                    ANQ     128,DU
         3 000624   000005 656000 xsym               ERSQ    AS_USERS+5
         3 000625   000651 710000 3                  TRA     s:13114

     1506    13105    4            SELECT( AS_M_INT# );

PL6.E3A0      #002=ASC$MOD_USER File=ASC$OPTS.:E05TSI                            TUE 07/29/97 09:41 Page:292
     1507    13106    4            KL_DREC.FLAGS.OLOK = KL_DFLT.FLAGS.OLOK;

  13106  3 000626   000000 236000 xsym               LDQ     KL_DFLT
         3 000627   000000 676000 xsym               ERQ     KL_DREC
         3 000630   000100 376003                    ANQ     64,DU
         3 000631   000000 656000 xsym               ERSQ    KL_DREC
         3 000632   000651 710000 3                  TRA     s:13114

     1508    13107    4            SELECT( AS_M_GHOST# );

     1509    13108    4            KL_DREC.FLAGS.GHOSTOK = KL_DFLT.FLAGS.GHOSTOK;

  13108  3 000633   000000 236000 xsym               LDQ     KL_DFLT
         3 000634   000000 676000 xsym               ERQ     KL_DREC
         3 000635   000200 376003                    ANQ     128,DU
         3 000636   000000 656000 xsym               ERSQ    KL_DREC
         3 000637   000651 710000 3                  TRA     s:13114

     1510    13109    4            SELECT( AS_M_FE# );

     1511    13110    4            KL_DREC.FLAGS.FEOK = KL_DFLT.FLAGS.FEOK;

  13110  3 000640   000000 236000 xsym               LDQ     KL_DFLT
         3 000641   000000 676000 xsym               ERQ     KL_DREC
         3 000642   400000 376007                    ANQ     -131072,DL
         3 000643   000000 656000 xsym               ERSQ    KL_DREC
         3 000644   000651 710000 3                  TRA     s:13114

     1512    13111    4            SELECT( AS_M_TP# );

     1513    13112    4            KL_DREC.FLAGS.TPOK = KL_DFLT.FLAGS.TPOK;

  13112  3 000645   000000 236000 xsym               LDQ     KL_DFLT
         3 000646   000000 676000 xsym               ERQ     KL_DREC
         3 000647   000001 376003                    ANQ     1,DU
         3 000650   000000 656000 xsym               ERSQ    KL_DREC

PL6.E3A0      #002=ASC$MOD_USER File=ASC$OPTS.:E05TSI                            TUE 07/29/97 09:41 Page:293
     1514    13113    4            END;

     1515    13114    3         END;

  13114  3 000651   200003 054100                    AOS     I,,AUTO
         3 000652   200003 235100                    LDA     I,,AUTO
         3 000653   000004 115007                    CMPA    4,DL
         3 000654   000566 604400 3                  TMOZ    s:13100

     1516    13115    2      END;

     1517    13116    2   IF AS_MOD_USER.PRIV ~= '0'B THEN DO;

  13116  3 000655   000000 066400                    CMPB    filb='0'B
         3 000656   000001 430440 xsym               BDSC    AS_MOD_USER+1            by=2,bit=3,n=288
         3 000657   000002 000022 xsym               BDSC    B_VECTNIL+2              by=0,bit=0,n=18
         3 000660   000735 600000 3                  TZE     s:13128

     1518    13117    3      DO I = 0 TO SIZEW(AS_PRIV_NAMES)*4-1;

  13117  3 000661   200003 450100                    STZ     I,,AUTO
         3 000662   000732 710000 3                  TRA     s:13126+1

     1519    13118    4         IF AS_MOD_USER.PRIV_A(I) ~= 0 THEN DO;

  13118  3 000663   200003 235100                    LDA     I,,AUTO
         3 000664   000001 735000                    ALS     1
         3 000665   000667 605000 3                  TPL     s:13118+4
         3 000666   000044 035003                    ADLA    36,DU
         3 000667   003100 061405                    CSR     bolr='003'O
         3 000670   000001 430002 xsym               BDSC    AS_MOD_USER+1,A          by=2,bit=3,n=2
         3 000671   200014 000044                    BDSC    VALUE+3,,AUTO            by=0,bit=0,n=36
         3 000672   200014 236100                    LDQ     VALUE+3,,AUTO
         3 000673   000000 116003                    CMPQ    0,DU
         3 000674   000731 600000 3                  TZE     s:13126

     1520    13119    4            J = I / 4;
PL6.E3A0      #002=ASC$MOD_USER File=ASC$OPTS.:E05TSI                            TUE 07/29/97 09:41 Page:294

  13119  3 000675   200003 236100                    LDQ     I,,AUTO
         3 000676   000004 506007                    DIV     4,DL
         3 000677   200004 756100                    STQ     J,,AUTO

     1521    13120    4            K = MOD( I, 4 );

  13120  3 000700   200003 236100                    LDQ     I,,AUTO
         3 000701   000004 506007                    DIV     4,DL
         3 000702   200005 755100                    STA     K,,AUTO

     1522    13121    4            IF AS_MOD_USER.PRIV_A(I) = YES_VAL THEN

  13121  3 000703   200003 236100                    LDQ     I,,AUTO
         3 000704   000001 736000                    QLS     1
         3 000705   000707 605000 3                  TPL     s:13121+4
         3 000706   000044 036003                    ADLQ    36,DU
         3 000707   003100 061406                    CSR     bolr='003'O
         3 000710   000001 430002 xsym               BDSC    AS_MOD_USER+1,Q          by=2,bit=3,n=2
         3 000711   200014 000044                    BDSC    VALUE+3,,AUTO            by=0,bit=0,n=36
         3 000712   200014 236100                    LDQ     VALUE+3,,AUTO
         3 000713   000001 116007                    CMPQ    1,DL
         3 000714   000723 601000 3                  TNZ     s:13124

     1523    13122    4               AS_USERS.PRIV(K) = AS_USERS.PRIV(K) | AS_PRIVILEGE(J);

  13122  3 000715   200004 720100                    LXL0    J,,AUTO
         3 000716   000225 236005 xsym               LDQ     AS_USERS+149,AL
         3 000717   000000 276010 xsym               ORQ     AS_PRIVILEGE,X0
         3 000720   200005 721100                    LXL1    K,,AUTO
         3 000721   000225 756011 xsym               STQ     AS_USERS+149,X1
         3 000722   000731 710000 3                  TRA     s:13126

     1524    13123    4            ELSE
     1525    13124    4               AS_USERS.PRIV(K) = AS_USERS.PRIV(K) & ~AS_PRIVILEGE(J) ;

  13124  3 000723   200004 720100                    LXL0    J,,AUTO
PL6.E3A0      #002=ASC$MOD_USER File=ASC$OPTS.:E05TSI                            TUE 07/29/97 09:41 Page:295
         3 000724   000000 236010 xsym               LDQ     AS_PRIVILEGE,X0
         3 000725   000027 676000 xsym               ERQ     B_VECTNIL+23
         3 000726   000225 376005 xsym               ANQ     AS_USERS+149,AL
         3 000727   200005 721100                    LXL1    K,,AUTO
         3 000730   000225 756011 xsym               STQ     AS_USERS+149,X1

     1526    13125    4            END;

     1527    13126    3         END;

  13126  3 000731   200003 054100                    AOS     I,,AUTO
         3 000732   200003 235100                    LDA     I,,AUTO
         3 000733   000137 115007                    CMPA    95,DL
         3 000734   000663 604400 3                  TMOZ    s:13118

     1528    13127    2      END;

     1529    13128    2   IF AS_MOD_USER.PPRIV ~= '0'B THEN DO;

  13128  3 000735   000000 066400                    CMPB    filb='0'B
         3 000736   000011 430440 xsym               BDSC    AS_MOD_USER+9            by=2,bit=3,n=288
         3 000737   000002 000022 xsym               BDSC    B_VECTNIL+2              by=0,bit=0,n=18
         3 000740   001015 600000 3                  TZE     s:13140

     1530    13129    3      DO I = 0 TO SIZEW(AS_PPRIV_NAMES)*4-1;

  13129  3 000741   200003 450100                    STZ     I,,AUTO
         3 000742   001012 710000 3                  TRA     s:13138+1

     1531    13130    4         IF AS_MOD_USER.PPRIV_A(I) ~= 0 THEN DO;

  13130  3 000743   200003 235100                    LDA     I,,AUTO
         3 000744   000001 735000                    ALS     1
         3 000745   000747 605000 3                  TPL     s:13130+4
         3 000746   000044 035003                    ADLA    36,DU
         3 000747   003100 061405                    CSR     bolr='003'O
         3 000750   000011 430002 xsym               BDSC    AS_MOD_USER+9,A          by=2,bit=3,n=2
PL6.E3A0      #002=ASC$MOD_USER File=ASC$OPTS.:E05TSI                            TUE 07/29/97 09:41 Page:296
         3 000751   200014 000044                    BDSC    VALUE+3,,AUTO            by=0,bit=0,n=36
         3 000752   200014 236100                    LDQ     VALUE+3,,AUTO
         3 000753   000000 116003                    CMPQ    0,DU
         3 000754   001011 600000 3                  TZE     s:13138

     1532    13131    4            J = I / 4;

  13131  3 000755   200003 236100                    LDQ     I,,AUTO
         3 000756   000004 506007                    DIV     4,DL
         3 000757   200004 756100                    STQ     J,,AUTO

     1533    13132    4            K = MOD( I, 4 );

  13132  3 000760   200003 236100                    LDQ     I,,AUTO
         3 000761   000004 506007                    DIV     4,DL
         3 000762   200005 755100                    STA     K,,AUTO

     1534    13133    4            IF AS_MOD_USER.PPRIV_A(I) = YES_VAL THEN

  13133  3 000763   200003 236100                    LDQ     I,,AUTO
         3 000764   000001 736000                    QLS     1
         3 000765   000767 605000 3                  TPL     s:13133+4
         3 000766   000044 036003                    ADLQ    36,DU
         3 000767   003100 061406                    CSR     bolr='003'O
         3 000770   000011 430002 xsym               BDSC    AS_MOD_USER+9,Q          by=2,bit=3,n=2
         3 000771   200014 000044                    BDSC    VALUE+3,,AUTO            by=0,bit=0,n=36
         3 000772   200014 236100                    LDQ     VALUE+3,,AUTO
         3 000773   000001 116007                    CMPQ    1,DL
         3 000774   001003 601000 3                  TNZ     s:13136

     1535    13134    4               AS_USERS.PPRIV(K) = AS_USERS.PPRIV(K) | AS_PPRIVILEGE(J);

  13134  3 000775   200004 720100                    LXL0    J,,AUTO
         3 000776   000231 236005 xsym               LDQ     AS_USERS+153,AL
         3 000777   000000 276010 xsym               ORQ     AS_PPRIVILEGE,X0
         3 001000   200005 721100                    LXL1    K,,AUTO
         3 001001   000231 756011 xsym               STQ     AS_USERS+153,X1
PL6.E3A0      #002=ASC$MOD_USER File=ASC$OPTS.:E05TSI                            TUE 07/29/97 09:41 Page:297
         3 001002   001011 710000 3                  TRA     s:13138

     1536    13135    4            ELSE
     1537    13136    4               AS_USERS.PPRIV(K) = AS_USERS.PPRIV(K) & ~AS_PPRIVILEGE(J);

  13136  3 001003   200004 720100                    LXL0    J,,AUTO
         3 001004   000000 236010 xsym               LDQ     AS_PPRIVILEGE,X0
         3 001005   000027 676000 xsym               ERQ     B_VECTNIL+23
         3 001006   000231 376005 xsym               ANQ     AS_USERS+153,AL
         3 001007   200005 721100                    LXL1    K,,AUTO
         3 001010   000231 756011 xsym               STQ     AS_USERS+153,X1

     1538    13137    4            END;

     1539    13138    3         END;

  13138  3 001011   200003 054100                    AOS     I,,AUTO
         3 001012   200003 235100                    LDA     I,,AUTO
         3 001013   000123 115007                    CMPA    83,DL
         3 001014   000743 604400 3                  TMOZ    s:13130

     1540    13139    2      END;

     1541    13140    2   IF AS_MOD_USER.FEPRIV ~= '0'B THEN DO;

  13140  3 001015   000000 066400                    CMPB    filb='0'B
         3 001016   000030 430440 xsym               BDSC    AS_MOD_USER+24           by=2,bit=3,n=288
         3 001017   000002 000022 xsym               BDSC    B_VECTNIL+2              by=0,bit=0,n=18
         3 001020   001075 600000 3                  TZE     s:13152

     1542    13141    3      DO I = 0 TO SIZEW(AS_PRIV_NAMES)*4-1;

  13141  3 001021   200003 450100                    STZ     I,,AUTO
         3 001022   001072 710000 3                  TRA     s:13150+1

     1543    13142    4         IF AS_MOD_USER.FEPRIV_A(I) ~= 0 THEN DO;

PL6.E3A0      #002=ASC$MOD_USER File=ASC$OPTS.:E05TSI                            TUE 07/29/97 09:41 Page:298
  13142  3 001023   200003 235100                    LDA     I,,AUTO
         3 001024   000001 735000                    ALS     1
         3 001025   001027 605000 3                  TPL     s:13142+4
         3 001026   000044 035003                    ADLA    36,DU
         3 001027   003100 061405                    CSR     bolr='003'O
         3 001030   000030 430002 xsym               BDSC    AS_MOD_USER+24,A         by=2,bit=3,n=2
         3 001031   200014 000044                    BDSC    VALUE+3,,AUTO            by=0,bit=0,n=36
         3 001032   200014 236100                    LDQ     VALUE+3,,AUTO
         3 001033   000000 116003                    CMPQ    0,DU
         3 001034   001071 600000 3                  TZE     s:13150

     1544    13143    4            J = I / 4;

  13143  3 001035   200003 236100                    LDQ     I,,AUTO
         3 001036   000004 506007                    DIV     4,DL
         3 001037   200004 756100                    STQ     J,,AUTO

     1545    13144    4            K = MOD( I, 4 );

  13144  3 001040   200003 236100                    LDQ     I,,AUTO
         3 001041   000004 506007                    DIV     4,DL
         3 001042   200005 755100                    STA     K,,AUTO

     1546    13145    4            IF AS_MOD_USER.FEPRIV_A(I) = YES_VAL THEN

  13145  3 001043   200003 236100                    LDQ     I,,AUTO
         3 001044   000001 736000                    QLS     1
         3 001045   001047 605000 3                  TPL     s:13145+4
         3 001046   000044 036003                    ADLQ    36,DU
         3 001047   003100 061406                    CSR     bolr='003'O
         3 001050   000030 430002 xsym               BDSC    AS_MOD_USER+24,Q         by=2,bit=3,n=2
         3 001051   200014 000044                    BDSC    VALUE+3,,AUTO            by=0,bit=0,n=36
         3 001052   200014 236100                    LDQ     VALUE+3,,AUTO
         3 001053   000001 116007                    CMPQ    1,DL
         3 001054   001063 601000 3                  TNZ     s:13148

     1547    13146    4               KL_DREC.KL_DREC_FEBLK.PRIV(K) = KL_DREC.KL_DREC_FEBLK.PRIV(K) |
PL6.E3A0      #002=ASC$MOD_USER File=ASC$OPTS.:E05TSI                            TUE 07/29/97 09:41 Page:299
             13146                        AS_PRIVILEGE(J);

  13146  3 001055   200004 720100                    LXL0    J,,AUTO
         3 001056   000032 236005 xsym               LDQ     KL_DREC+26,AL
         3 001057   000000 276010 xsym               ORQ     AS_PRIVILEGE,X0
         3 001060   200005 721100                    LXL1    K,,AUTO
         3 001061   000032 756011 xsym               STQ     KL_DREC+26,X1
         3 001062   001071 710000 3                  TRA     s:13150

     1548    13147    4            ELSE
     1549    13148    4               KL_DREC.KL_DREC_FEBLK.PRIV(K) = KL_DREC.KL_DREC_FEBLK.PRIV(K) & ~
             13148                        AS_PRIVILEGE(J) ;

  13148  3 001063   200004 720100                    LXL0    J,,AUTO
         3 001064   000000 236010 xsym               LDQ     AS_PRIVILEGE,X0
         3 001065   000027 676000 xsym               ERQ     B_VECTNIL+23
         3 001066   000032 376005 xsym               ANQ     KL_DREC+26,AL
         3 001067   200005 721100                    LXL1    K,,AUTO
         3 001070   000032 756011 xsym               STQ     KL_DREC+26,X1

     1550    13149    4            END;

     1551    13150    3         END;

  13150  3 001071   200003 054100                    AOS     I,,AUTO
         3 001072   200003 235100                    LDA     I,,AUTO
         3 001073   000137 115007                    CMPA    95,DL
         3 001074   001023 604400 3                  TMOZ    s:13142

     1552    13151    2      END;

     1553    13152    2   IF AS_MOD_USER.FEPPRIV ~= '0'B THEN DO;

  13152  3 001075   000000 066400                    CMPB    filb='0'B
         3 001076   000040 430440 xsym               BDSC    AS_MOD_USER+32           by=2,bit=3,n=288
         3 001077   000002 000022 xsym               BDSC    B_VECTNIL+2              by=0,bit=0,n=18
         3 001100   001155 600000 3                  TZE     s:13164
PL6.E3A0      #002=ASC$MOD_USER File=ASC$OPTS.:E05TSI                            TUE 07/29/97 09:41 Page:300

     1554    13153    3      DO I = 0 TO SIZEW(AS_PPRIV_NAMES)*4-1;

  13153  3 001101   200003 450100                    STZ     I,,AUTO
         3 001102   001152 710000 3                  TRA     s:13162+1

     1555    13154    4         IF AS_MOD_USER.FEPPRIV_A(I) ~= 0 THEN DO;

  13154  3 001103   200003 235100                    LDA     I,,AUTO
         3 001104   000001 735000                    ALS     1
         3 001105   001107 605000 3                  TPL     s:13154+4
         3 001106   000044 035003                    ADLA    36,DU
         3 001107   003100 061405                    CSR     bolr='003'O
         3 001110   000040 430002 xsym               BDSC    AS_MOD_USER+32,A         by=2,bit=3,n=2
         3 001111   200014 000044                    BDSC    VALUE+3,,AUTO            by=0,bit=0,n=36
         3 001112   200014 236100                    LDQ     VALUE+3,,AUTO
         3 001113   000000 116003                    CMPQ    0,DU
         3 001114   001151 600000 3                  TZE     s:13162

     1556    13155    4            J = I / 4;

  13155  3 001115   200003 236100                    LDQ     I,,AUTO
         3 001116   000004 506007                    DIV     4,DL
         3 001117   200004 756100                    STQ     J,,AUTO

     1557    13156    4            K = MOD( I, 4 );

  13156  3 001120   200003 236100                    LDQ     I,,AUTO
         3 001121   000004 506007                    DIV     4,DL
         3 001122   200005 755100                    STA     K,,AUTO

     1558    13157    4            IF AS_MOD_USER.FEPPRIV_A(I) = YES_VAL THEN

  13157  3 001123   200003 236100                    LDQ     I,,AUTO
         3 001124   000001 736000                    QLS     1
         3 001125   001127 605000 3                  TPL     s:13157+4
         3 001126   000044 036003                    ADLQ    36,DU
PL6.E3A0      #002=ASC$MOD_USER File=ASC$OPTS.:E05TSI                            TUE 07/29/97 09:41 Page:301
         3 001127   003100 061406                    CSR     bolr='003'O
         3 001130   000040 430002 xsym               BDSC    AS_MOD_USER+32,Q         by=2,bit=3,n=2
         3 001131   200014 000044                    BDSC    VALUE+3,,AUTO            by=0,bit=0,n=36
         3 001132   200014 236100                    LDQ     VALUE+3,,AUTO
         3 001133   000001 116007                    CMPQ    1,DL
         3 001134   001143 601000 3                  TNZ     s:13160

     1559    13158    4               KL_DREC.KL_DREC_FEBLK.PPRIV(K) = KL_DREC.KL_DREC_FEBLK.PPRIV(K) |
             13158                        AS_PPRIVILEGE(J);

  13158  3 001135   200004 720100                    LXL0    J,,AUTO
         3 001136   000036 236005 xsym               LDQ     KL_DREC+30,AL
         3 001137   000000 276010 xsym               ORQ     AS_PPRIVILEGE,X0
         3 001140   200005 721100                    LXL1    K,,AUTO
         3 001141   000036 756011 xsym               STQ     KL_DREC+30,X1
         3 001142   001151 710000 3                  TRA     s:13162

     1560    13159    4            ELSE
     1561    13160    4               KL_DREC.KL_DREC_FEBLK.PPRIV(K) = KL_DREC.KL_DREC_FEBLK.PPRIV(K) & ~
             13160                        AS_PPRIVILEGE(J);

  13160  3 001143   200004 720100                    LXL0    J,,AUTO
         3 001144   000000 236010 xsym               LDQ     AS_PPRIVILEGE,X0
         3 001145   000027 676000 xsym               ERQ     B_VECTNIL+23
         3 001146   000036 376005 xsym               ANQ     KL_DREC+30,AL
         3 001147   200005 721100                    LXL1    K,,AUTO
         3 001150   000036 756011 xsym               STQ     KL_DREC+30,X1

     1562    13161    4            END;

     1563    13162    3         END;

  13162  3 001151   200003 054100                    AOS     I,,AUTO
         3 001152   200003 235100                    LDA     I,,AUTO
         3 001153   000123 115007                    CMPA    83,DL
         3 001154   001103 604400 3                  TMOZ    s:13154

PL6.E3A0      #002=ASC$MOD_USER File=ASC$OPTS.:E05TSI                            TUE 07/29/97 09:41 Page:302
     1564    13163    2      END;

     1565    13164    2   IF AS_MOD_USER.QUAN ~= '0'B THEN DO ;

  13164  3 001155   000021 236000 xsym               LDQ     AS_MOD_USER+17
         3 001156   074000 316007                    CANQ    30720,DL
         3 001157   001201 600000 3                  TZE     s:13170

     1566    13165    3      DO I = 0 TO 3;

  13165  3 001160   200003 450100                    STZ     I,,AUTO

     1567    13166    3         IF AS_MOD_USER.QUAN_A(I) THEN

  13166  3 001161   200003 235100                    LDA     I,,AUTO
         3 001162   001164 605000 3                  TPL     s:13166+3
         3 001163   000044 035003                    ADLA    36,DU
         3 001164   000000 066405                    CMPB    filb='0'B
         3 001165   000021 430001 xsym               BDSC    AS_MOD_USER+17,A         by=2,bit=3,n=1
         3 001166   000002 000022 xsym               BDSC    B_VECTNIL+2              by=0,bit=0,n=18
         3 001167   001175 600000 3                  TZE     s:13168

     1568    13167    3            AS_USERS.QUAN(I) = AS_DFLT.QUAN(I) ;

  13167  3 001170   200003 235100                    LDA     I,,AUTO
         3 001171   000001 735000                    ALS     1
         3 001172   000005 100405                    MLR     fill='000'O
         3 001173   000235 000002 xsym               ADSC9   AS_DFLT+157,A            cn=0,n=2
         3 001174   000235 000002 xsym               ADSC9   AS_USERS+157,A           cn=0,n=2

     1569    13168    3         END ;

  13168  3 001175   200003 054100                    AOS     I,,AUTO
         3 001176   200003 235100                    LDA     I,,AUTO
         3 001177   000003 115007                    CMPA    3,DL
         3 001200   001161 604400 3                  TMOZ    s:13166

PL6.E3A0      #002=ASC$MOD_USER File=ASC$OPTS.:E05TSI                            TUE 07/29/97 09:41 Page:303
     1570    13169    2      END ;

     1571    13170    2   IF AS_MOD_USER.MAXENQ ~= '0'B THEN DO ;

  13170  3 001201   000021 236000 xsym               LDQ     AS_MOD_USER+17
         3 001202   003600 316007                    CANQ    1920,DL
         3 001203   001225 600000 3                  TZE     s:13176

     1572    13171    3      DO I = 0 TO 3;

  13171  3 001204   200003 450100                    STZ     I,,AUTO

     1573    13172    3         IF AS_MOD_USER.MAXENQ_A(I) THEN

  13172  3 001205   200003 235100                    LDA     I,,AUTO
         3 001206   001210 605000 3                  TPL     s:13172+3
         3 001207   000044 035003                    ADLA    36,DU
         3 001210   000000 066405                    CMPB    filb='0'B
         3 001211   000021 470001 xsym               BDSC    AS_MOD_USER+17,A         by=2,bit=7,n=1
         3 001212   000002 000022 xsym               BDSC    B_VECTNIL+2              by=0,bit=0,n=18
         3 001213   001221 600000 3                  TZE     s:13174

     1574    13173    3            AS_USERS.MAXENQ(I) = AS_DFLT.MAXENQ(I) ;

  13173  3 001214   200003 235100                    LDA     I,,AUTO
         3 001215   000001 735000                    ALS     1
         3 001216   000005 100405                    MLR     fill='000'O
         3 001217   000775 000002 xsym               ADSC9   AS_DFLT+509,A            cn=0,n=2
         3 001220   000775 000002 xsym               ADSC9   AS_USERS+509,A           cn=0,n=2

     1575    13174    3         END ;

  13174  3 001221   200003 054100                    AOS     I,,AUTO
         3 001222   200003 235100                    LDA     I,,AUTO
         3 001223   000003 115007                    CMPA    3,DL
         3 001224   001205 604400 3                  TMOZ    s:13172

PL6.E3A0      #002=ASC$MOD_USER File=ASC$OPTS.:E05TSI                            TUE 07/29/97 09:41 Page:304
     1576    13175    2      END ;

     1577    13176    2   IF AS_MOD_USER.PRIOB ~= '0'B THEN DO ;

  13176  3 001225   000021 236000 xsym               LDQ     AS_MOD_USER+17
         3 001226   000170 316007                    CANQ    120,DL
         3 001227   001250 600000 3                  TZE     s:13182

     1578    13177    3      DO I = 0 TO 3;

  13177  3 001230   200003 450100                    STZ     I,,AUTO

     1579    13178    3         IF AS_MOD_USER.PRIOB_A(I) THEN

  13178  3 001231   200003 235100                    LDA     I,,AUTO
         3 001232   001234 605000 3                  TPL     s:13178+3
         3 001233   000044 035003                    ADLA    36,DU
         3 001234   000000 066405                    CMPB    filb='0'B
         3 001235   000021 620001 xsym               BDSC    AS_MOD_USER+17,A         by=3,bit=2,n=1
         3 001236   000002 000022 xsym               BDSC    B_VECTNIL+2              by=0,bit=0,n=18
         3 001237   001244 600000 3                  TZE     s:13180

     1580    13179    3            AS_USERS.PRIOB(I) = AS_DFLT.PRIOB(I) ;

  13179  3 001240   200003 235100                    LDA     I,,AUTO
         3 001241   000005 100405                    MLR     fill='000'O
         3 001242   000241 000001 xsym               ADSC9   AS_DFLT+161,A            cn=0,n=1
         3 001243   000241 000001 xsym               ADSC9   AS_USERS+161,A           cn=0,n=1

     1581    13180    3         END ;

  13180  3 001244   200003 054100                    AOS     I,,AUTO
         3 001245   200003 235100                    LDA     I,,AUTO
         3 001246   000003 115007                    CMPA    3,DL
         3 001247   001231 604400 3                  TMOZ    s:13178

     1582    13181    2      END ;
PL6.E3A0      #002=ASC$MOD_USER File=ASC$OPTS.:E05TSI                            TUE 07/29/97 09:41 Page:305

     1583    13182    2   IF AS_MOD_USER.BUDGET ~= '0'B THEN DO;

  13182  3 001250   000000 066400                    CMPB    filb='0'B
         3 001251   000021 660011 xsym               BDSC    AS_MOD_USER+17           by=3,bit=6,n=9
         3 001252   000002 000022 xsym               BDSC    B_VECTNIL+2              by=0,bit=0,n=18
         3 001253   001460 600000 3                  TZE     s:13287

     1584    13183    2      IF AS_MOD_USER.BUDGET.PCHARGES THEN

  13183  3 001254   000021 236000 xsym               LDQ     AS_MOD_USER+17
         3 001255   000004 316007                    CANQ    4,DL
         3 001256   001263 600000 3                  TZE     s:13185

     1585    13184    2         AS_USERS.BUDGET.PCHARGES = AS_DFLT.BUDGET.PCHARGES;

  13184  3 001257   000017 236000 xsym               LDQ     AS_DFLT+15
         3 001260   000017 676000 xsym               ERQ     AS_USERS+15
         3 001261   000100 376003                    ANQ     64,DU
         3 001262   000017 656000 xsym               ERSQ    AS_USERS+15

     1586    13185    2      IF AS_MOD_USER.BUDGET.MACCT THEN

  13185  3 001263   000022 236000 xsym               LDQ     AS_MOD_USER+18
         3 001264   020000 316003                    CANQ    8192,DU
         3 001265   001271 600000 3                  TZE     s:13187

     1587    13186    2         AS_USERS.BUDGET.MACCT = AS_DFLT.BUDGET.MACCT;

  13186  3 001266   000000 100400                    MLR     fill='000'O
         3 001267   000012 000025 xsym               ADSC9   AS_DFLT+10               cn=0,n=21
         3 001270   000012 000025 xsym               ADSC9   AS_USERS+10              cn=0,n=21

     1588    13187    2      IF AS_MOD_USER.BUDGET.ICHARGES THEN

  13187  3 001271   000021 236000 xsym               LDQ     AS_MOD_USER+17
         3 001272   000002 316007                    CANQ    2,DL
PL6.E3A0      #002=ASC$MOD_USER File=ASC$OPTS.:E05TSI                            TUE 07/29/97 09:41 Page:306
         3 001273   001300 600000 3                  TZE     s:13189

     1589    13188    2         AS_USERS.BUDGET.ICHARGES = AS_DFLT.BUDGET.ICHARGES;

  13188  3 001274   000017 236000 xsym               LDQ     AS_DFLT+15
         3 001275   000017 676000 xsym               ERQ     AS_USERS+15
         3 001276   000040 376003                    ANQ     32,DU
         3 001277   000017 656000 xsym               ERSQ    AS_USERS+15

     1590    13189    2      IF AS_MOD_USER.BUDGET.BKACC THEN

  13189  3 001300   000021 236000 xsym               LDQ     AS_MOD_USER+17
         3 001301   000001 316007                    CANQ    1,DL
         3 001302   001307 600000 3                  TZE     s:13191

     1591    13190    2         AS_USERS.BUDGET.BKACC = AS_DFLT.BUDGET.BKACC;

  13190  3 001303   000017 236000 xsym               LDQ     AS_DFLT+15
         3 001304   000017 676000 xsym               ERQ     AS_USERS+15
         3 001305   000400 376003                    ANQ     256,DU
         3 001306   000017 656000 xsym               ERSQ    AS_USERS+15

     1592    13191    2      IF AS_MOD_USER.BUDGET.BUDLIM THEN

  13191  3 001307   000022 234000 xsym               SZN     AS_MOD_USER+18
         3 001310   001315 605000 3                  TPL     s:13193

     1593    13192    2         AS_USERS.BUDGET.BUDLIM = AS_DFLT.BUDGET.BUDLIM;

  13192  3 001311   000017 236000 xsym               LDQ     AS_DFLT+15
         3 001312   000017 676000 xsym               ERQ     AS_USERS+15
         3 001313   000200 376003                    ANQ     128,DU
         3 001314   000017 656000 xsym               ERSQ    AS_USERS+15

     1594    13193    2      IF AS_MOD_USER.BUDGET.BLINDACCTNG THEN

  13193  3 001315   000022 236000 xsym               LDQ     AS_MOD_USER+18
PL6.E3A0      #002=ASC$MOD_USER File=ASC$OPTS.:E05TSI                            TUE 07/29/97 09:41 Page:307
         3 001316   200000 316003                    CANQ    65536,DU
         3 001317   001324 600000 3                  TZE     s:13195

     1595    13194    2         AS_USERS.BUDGET.BLINDACCTNG = AS_DFLT.BUDGET.BLINDACCTNG;

  13194  3 001320   000017 236000 xsym               LDQ     AS_DFLT+15
         3 001321   000017 676000 xsym               ERQ     AS_USERS+15
         3 001322   000020 376003                    ANQ     16,DU
         3 001323   000017 656000 xsym               ERSQ    AS_USERS+15

     1596    13195    2      IF AS_MOD_USER.BUDGET.MAXC THEN

  13195  3 001324   000022 236000 xsym               LDQ     AS_MOD_USER+18
         3 001325   100000 316003                    CANQ    32768,DU
         3 001326   001453 600000 3                  TZE     s:13284

     1597    13196    2         IF ((AS_WILD_MVAL = -1) AND (NOT AS_MOD_USER.BUDGET.SIGN))

  13196  3 001327   000000 235000 xsym               LDA     AS_WILD_MVAL
         3 001330   000027 115000 xsym               CMPA    B_VECTNIL+23
         3 001331   001334 601000 3                  TNZ     s:13196+5
         3 001332   040000 316003                    CANQ    16384,DU
         3 001333   001341 600000 3                  TZE     s:13199
         3 001334   000006 235000 xsym               LDA     AS_USERS+6
         3 001335   000027 115000 xsym               CMPA    B_VECTNIL+23
         3 001336   001344 601000 3                  TNZ     s:13201
         3 001337   040000 316003                    CANQ    16384,DU
         3 001340   001344 600000 3                  TZE     s:13201

     1598    13197    2              OR ((AS_USERS.BUDGET.MAXC = -1) AND AS_MOD_USER.BUDGET.SIGN)
     1599    13198    2         THEN
     1600    13199    2            AS_USERS.BUDGET.MAXC = -1 ;

  13199  3 001341   000001 335007                    LCA     1,DL
         3 001342   000006 755000 xsym               STA     AS_USERS+6
         3 001343   001453 710000 3                  TRA     s:13284

PL6.E3A0      #002=ASC$MOD_USER File=ASC$OPTS.:E05TSI                            TUE 07/29/97 09:41 Page:308
     1601    13200    3         ELSE DO;

     1602    13201    3            SAVE_MAXC = AS_USERS.BUDGET.MAXC;

  13201  3 001344   200007 755100                    STA     SAVE_MAXC,,AUTO

     1603    13202    3            IF NOT AS_MOD_USER.BUDGET.SIGN THEN

  13202  3 001345   040000 316003                    CANQ    16384,DU
         3 001346   001352 601000 3                  TNZ     s:13205

     1604    13203    3               AS_USERS.BUDGET.MAXC = AS_WILD_MVAL ;

  13203  3 001347   000000 235000 xsym               LDA     AS_WILD_MVAL
         3 001350   000006 755000 xsym               STA     AS_USERS+6
         3 001351   001355 710000 3                  TRA     s:13206

     1605    13204    3            ELSE
     1606    13205    3               AS_USERS.BUDGET.MAXC = AS_WILD_MVAL + AS_USERS.BUDGET.MAXC ;

  13205  3 001352   000000 236000 xsym               LDQ     AS_WILD_MVAL
         3 001353   000006 036000 xsym               ADLQ    AS_USERS+6
         3 001354   000006 756000 xsym               STQ     AS_USERS+6

     1607    13206    4            IF AS_USERS.BUDGET.MAXC < 0 THEN DO;

  13206  3 001355   000006 235000 xsym               LDA     AS_USERS+6
         3 001356   001365 605000 3                  TPL     s:13224

     1608    13207                    %SCREAM(ERR#=E$MCHARGES_NEG_VAL,LEVEL=ERROR,MID='C') ;

  13219  3 001357   000006 630400 4                  EPPR0   6
         3 001360   000017 631400 xsym               EPPR1   B_VECTNIL+15
         3 001361   000000 701000 xent               TSX1    ASH$ERROR
         3 001362   000000 011000                    NOP     0

     1609    13222    4               AS_USERS.BUDGET.MAXC = SAVE_MAXC;
PL6.E3A0      #002=ASC$MOD_USER File=ASC$OPTS.:E05TSI                            TUE 07/29/97 09:41 Page:309

  13222  3 001363   200007 235100                    LDA     SAVE_MAXC,,AUTO
         3 001364   000006 755000 xsym               STA     AS_USERS+6

     1610    13223    4               END;

     1611    13224    3            IF AS_CR_MOD_PROJ > 0 AND AS_WILD_MCH > 0

  13224  3 001365   000000 236000 xsym               LDQ     AS_CR_MOD_PROJ
         3 001366   001453 604400 3                  TMOZ    s:13284
         3 001367   000000 235000 xsym               LDA     AS_WILD_MCH
         3 001370   001453 604400 3                  TMOZ    s:13284

     1612    13225    3            THEN
     1613    13226    3               IF AS_USERS.BUDGET.MAXC > AS_WILD_MCH

  13226  3 001371   000006 236000 xsym               LDQ     AS_USERS+6
         3 001372   000000 116000 xsym               CMPQ    AS_WILD_MCH
         3 001373   001453 604400 3                  TMOZ    s:13284

     1614    13227    4               THEN DO;

     1615    13228    4                  AS_FIELD1 = TEXTC(AS_CR_MOD_PROJ-1);

  13228  3 001374   000000 236000 xsym               LDQ     AS_CR_MOD_PROJ
         3 001375   000022 402007                    MPY     18,DL
         3 001376   000000 100406                    MLR     fill='000'O
         3 001377   777773 400022 2                  ADSC9   ZERO_LENGTH-19,Q         cn=2,n=18
         3 001400   000000 000051 xsym               ADSC9   AS_FIELD1                cn=0,n=41

     1616    13229    4                  VALUE(0) = AS_WILD_MCH / 10000;

  13229  3 001401   000000 236000 xsym               LDQ     AS_WILD_MCH
         3 001402   023420 506007                    DIV     10000,DL
         3 001403   200011 756100                    STQ     VALUE,,AUTO

     1617    13230    4                  VALUE(1) = MOD( AS_WILD_MCH, 10000 ) / 100;
PL6.E3A0      #002=ASC$MOD_USER File=ASC$OPTS.:E05TSI                            TUE 07/29/97 09:41 Page:310

  13230  3 001404   000000 236000 xsym               LDQ     AS_WILD_MCH
         3 001405   023420 506007                    DIV     10000,DL
         3 001406   000044 733000                    LRS     36
         3 001407   000144 506007                    DIV     100,DL
         3 001410   200012 756100                    STQ     VALUE+1,,AUTO

     1618    13231                       %NUMBER( NUM2="VALUE(0)", NUM3="VALUE(1)" );
             13247    4         CALL ASB$BINCHAR( AS_FIELD2.TEXT, 0, -2, VALUE(0) );

  13247  3 001411   200011 630500                    EPPR0   VALUE,,AUTO
         3 001412   200017 450500                    STP0    VALUE+6,,AUTO
         3 001413   000010 236000 4                  LDQ     8
         3 001414   200016 756100                    STQ     VALUE+5,,AUTO
         3 001415   000012 237000 4                  LDAQ    10
         3 001416   200014 757100                    STAQ    VALUE+3,,AUTO
         3 001417   200014 630500                    EPPR0   VALUE+3,,AUTO
         3 001420   000022 631400 xsym               EPPR1   B_VECTNIL+18
         3 001421   000000 701000 xent               TSX1    ASB$BINCHAR
         3 001422   000000 011000                    NOP     0

             13255    4         CALL ASB$BINCHAR( AS_FIELD3.TEXT, 0, -3, VALUE(1) );

  13255  3 001423   200012 630500                    EPPR0   VALUE+1,,AUTO
         3 001424   200017 450500                    STP0    VALUE+6,,AUTO
         3 001425   000015 236000 4                  LDQ     13
         3 001426   200016 756100                    STQ     VALUE+5,,AUTO
         3 001427   000016 237000 4                  LDAQ    14
         3 001430   200014 757100                    STAQ    VALUE+3,,AUTO
         3 001431   200014 630500                    EPPR0   VALUE+3,,AUTO
         3 001432   000022 631400 xsym               EPPR1   B_VECTNIL+18
         3 001433   000000 701000 xent               TSX1    ASB$BINCHAR
         3 001434   000000 011000                    NOP     0

     1619    13261    4                  IF AS_FIELD3.COUNT = 1

  13261  3 001435   000000 236000 xsym               LDQ     AS_FIELD3
PL6.E3A0      #002=ASC$MOD_USER File=ASC$OPTS.:E05TSI                            TUE 07/29/97 09:41 Page:311
         3 001436   777000 376003                    ANQ     -512,DU
         3 001437   001000 116003                    CMPQ    512,DU
         3 001440   001445 601000 3                  TNZ     s:13278

     1620    13262    5                  THEN DO;

     1621    13263    5                     AS_FIELD3.COUNT = 2;

  13263  3 001441   002000 236003                    LDQ     1024,DU
         3 001442   000000 552040 xsym               STBQ    AS_FIELD3,'40'O

     1622    13264    5                     CALL INSERT( AS_FIELD3.TEXT, 1, 1, '0' );

  13264  3 001443   060000 236007                    LDQ     24576,DL
         3 001444   000000 552010 xsym               STBQ    AS_FIELD3,'10'O

     1623    13265    5                     END;

     1624    13266                       %SCREAM( ERR#=E$MCHARGES_TOO_LARGE, LEVEL=ERROR, MID='C' );

  13278  3 001445   000020 630400 4                  EPPR0   16
         3 001446   000017 631400 xsym               EPPR1   B_VECTNIL+15
         3 001447   000000 701000 xent               TSX1    ASH$ERROR
         3 001450   000000 011000                    NOP     0

     1625    13281    4                  AS_USERS.BUDGET.MAXC = AS_WILD_MCH;

  13281  3 001451   000000 235000 xsym               LDA     AS_WILD_MCH
         3 001452   000006 755000 xsym               STA     AS_USERS+6

     1626    13282    4                  END;

     1627    13283    3            END;

     1628    13284    2      IF AS_MOD_USER.BUDGET.ACCUM THEN

  13284  3 001453   000022 236000 xsym               LDQ     AS_MOD_USER+18
PL6.E3A0      #002=ASC$MOD_USER File=ASC$OPTS.:E05TSI                            TUE 07/29/97 09:41 Page:312
         3 001454   010000 316003                    CANQ    4096,DU
         3 001455   001460 600000 3                  TZE     s:13287

     1629    13285    2         AS_USERS.BUDGET.ACCUM = AS_DFLT.BUDGET.ACCUM;

  13285  3 001456   000007 235000 xsym               LDA     AS_DFLT+7
         3 001457   000007 755000 xsym               STA     AS_USERS+7

     1630    13286    2      END;

     1631    13287    2   IF AS_MOD_USER.KEY ~= '0'B THEN DO;

  13287  3 001460   000000 066400                    CMPB    filb='0'B
         3 001461   000024 220220 xsym               BDSC    AS_MOD_USER+20           by=1,bit=2,n=144
         3 001462   000002 000022 xsym               BDSC    B_VECTNIL+2              by=0,bit=0,n=18
         3 001463   001514 600000 3                  TZE     s:13293

     1632    13288    3      DO I = 0 TO 71;

  13288  3 001464   200003 450100                    STZ     I,,AUTO

     1633    13289    3         IF AS_MOD_USER.KEY_A(I) > 0 THEN

  13289  3 001465   200003 235100                    LDA     I,,AUTO
         3 001466   000001 735000                    ALS     1
         3 001467   001471 605000 3                  TPL     s:13289+4
         3 001470   000044 035003                    ADLA    36,DU
         3 001471   003100 061405                    CSR     bolr='003'O
         3 001472   000024 220002 xsym               BDSC    AS_MOD_USER+20,A         by=1,bit=2,n=2
         3 001473   200014 000044                    BDSC    VALUE+3,,AUTO            by=0,bit=0,n=36
         3 001474   200014 236100                    LDQ     VALUE+3,,AUTO
         3 001475   000000 116003                    CMPQ    0,DU
         3 001476   001510 600000 3                  TZE     s:13291

     1634    13290    3            AS_USERS.KEY(I) = AS_DFLT.KEY(I);

  13290  3 001477   200003 235100                    LDA     I,,AUTO
PL6.E3A0      #002=ASC$MOD_USER File=ASC$OPTS.:E05TSI                            TUE 07/29/97 09:41 Page:313
         3 001500   001502 605000 3                  TPL     s:13290+3
         3 001501   000044 035003                    ADLA    36,DU
         3 001502   200003 236100                    LDQ     I,,AUTO
         3 001503   001505 605000 3                  TPL     s:13290+6
         3 001504   000044 036003                    ADLQ    36,DU
         3 001505   003006 060405                    CSL     bolr='003'O
         3 001506   000026 000001 xsym               BDSC    AS_DFLT+22,A             by=0,bit=0,n=1
         3 001507   000026 000001 xsym               BDSC    AS_USERS+22,Q            by=0,bit=0,n=1

     1635    13291    3         END;

  13291  3 001510   200003 054100                    AOS     I,,AUTO
         3 001511   200003 235100                    LDA     I,,AUTO
         3 001512   000107 115007                    CMPA    71,DL
         3 001513   001465 604400 3                  TMOZ    s:13289

     1636    13292    2      END;

     1637    13293    1   IF AS_MOD_USER.LIMITS ~= '0'B THEN CALL ASC$MOD_USER_LIMITS;

  13293  3 001514   000000 066400                    CMPB    filb='0'B
         3 001515   000022 060113 xsym               BDSC    AS_MOD_USER+18           by=0,bit=6,n=75
         3 001516   000002 000022 xsym               BDSC    B_VECTNIL+2              by=0,bit=0,n=18
         3 001517   001523 600000 3                  TZE     s:13294

  13293  3 001520   000002 631400 xsym               EPPR1   B_VECTNIL+2
         3 001521   000000 701000 xent               TSX1    ASC$MOD_USER_LIMITS
         3 001522   000000 011000                    NOP     0

     1638    13294    1   IF AS_MOD_USER.RESOURCE THEN CALL ASC$RESOURCE( AS_TRUE );

  13294  3 001523   000024 236000 xsym               LDQ     AS_MOD_USER+20
         3 001524   000200 316003                    CANQ    128,DU
         3 001525   001532 600000 3                  TZE     s:13295

  13294  3 001526   000021 630400 4                  EPPR0   17
         3 001527   000017 631400 xsym               EPPR1   B_VECTNIL+15
PL6.E3A0      #002=ASC$MOD_USER File=ASC$OPTS.:E05TSI                            TUE 07/29/97 09:41 Page:314
         3 001530   000000 701000 xent               TSX1    ASC$RESOURCE
         3 001531   000000 011000                    NOP     0

     1639    13295    1   IF AS_MOD_USER.FERESOURCE THEN CALL ASC$FERESOURCE( AS_TRUE );

  13295  3 001532   000051 236000 xsym               LDQ     AS_MOD_USER+41
         3 001533   020000 316003                    CANQ    8192,DU
         3 001534   001541 600000 3                  TZE     s:13296

  13295  3 001535   000021 630400 4                  EPPR0   17
         3 001536   000017 631400 xsym               EPPR1   B_VECTNIL+15
         3 001537   000000 701000 xent               TSX1    ASC$FERESOURCE
         3 001540   000000 011000                    NOP     0

     1640    13296    1   IF AS_MOD_USER.PSEUDO THEN CALL ASC$PSEUDO( AS_TRUE );

  13296  3 001541   000024 236000 xsym               LDQ     AS_MOD_USER+20
         3 001542   000400 316003                    CANQ    256,DU
         3 001543   001550 600000 3                  TZE     s:13297

  13296  3 001544   000021 630400 4                  EPPR0   17
         3 001545   000017 631400 xsym               EPPR1   B_VECTNIL+15
         3 001546   000000 701000 xent               TSX1    ASC$PSEUDO
         3 001547   000000 011000                    NOP     0

     1641    13297    1   IF AS_MOD_USER.FEPSEUDO THEN CALL ASC$FEPSEUDO( AS_TRUE );

  13297  3 001550   000051 236000 xsym               LDQ     AS_MOD_USER+41
         3 001551   040000 316003                    CANQ    16384,DU
         3 001552   001557 600000 3                  TZE     s:13298

  13297  3 001553   000021 630400 4                  EPPR0   17
         3 001554   000017 631400 xsym               EPPR1   B_VECTNIL+15
         3 001555   000000 701000 xent               TSX1    ASC$FEPSEUDO
         3 001556   000000 011000                    NOP     0

     1642    13298    2   IF AS_MOD_USER.FACCOUNT THEN DO;
PL6.E3A0      #002=ASC$MOD_USER File=ASC$OPTS.:E05TSI                            TUE 07/29/97 09:41 Page:315

  13298  3 001557   000030 236000 xsym               LDQ     AS_MOD_USER+24
         3 001560   000100 316003                    CANQ    64,DU
         3 001561   001600 600000 3                  TZE     s:13305

     1643    13299    2      SUPER_TO_PIG.TYPE = %MODIFY_ACCT;

  13299  3 001562   000000 470400 xsym               LDP0    AS_SUPER_TO_PIG$
         3 001563   001000 236003                    LDQ     512,DU
         3 001564   000000 552140                    STBQ    0,'40'O,PR0

     1644    13300    2      SUPER_TO_PIG.ACCT = AS_USERS.ACCT;

  13300  3 001565   000000 470400 xsym               LDP0    AS_SUPER_TO_PIG$
         3 001566   040100 100400                    MLR     fill='040'O
         3 001567   000000 000010 xsym               ADSC9   AS_USERS                 cn=0,n=8
         3 001570   000014 000010                    ADSC9   12,,PR0                  cn=0,n=8

     1645    13301    2      SUPER_TO_PIG.PACKSET = AS_USERS.HPSN;

  13301  3 001571   040100 100400                    MLR     fill='040'O
         3 001572   000123 000006 xsym               ADSC9   AS_USERS+83              cn=0,n=6
         3 001573   000012 400006                    ADSC9   10,,PR0                  cn=2,n=6

     1646    13302    2      CALL ASB$PIG( SUPER_TO_PIG );

  13302  3 001574   000000 630400 xsym               EPPR0   AS_SUPER_TO_PIG$
         3 001575   000017 631400 xsym               EPPR1   B_VECTNIL+15
         3 001576   000000 701000 xent               TSX1    ASB$PIG
         3 001577   000000 011000                    NOP     0

     1647    13303    2      END;

     1648    13304
     1649    13305    1   END ASC$MOD_USER ;

  13305  3 001600   000000 702200 xent               TSX2  ! X66_ARET
PL6.E3A0      #002=ASC$MOD_USER File=ASC$OPTS.:E05TSI                            TUE 07/29/97 09:41 Page:316

PL6.E3A0      #002=ASC$MOD_USER File=ASC$OPTS.:E05TSI                            TUE 07/29/97 09:41 Page:317
--  Include file information  --

   AS_SUPER_R.:E05TOU  cannot be made into a system file and is referenced.
   CP_6.:E05TOU  cannot be made into a system file and is referenced.
   XU_FORMAT_C.:E05TOU  is referenced.
   XU_MACRO_C.:E05TOU  is referenced.
   AS_MAC_C.:E05TOU  cannot be made into a system file and is referenced.
   KL_SUPER_C.:E05TOU  is referenced.
   AS_PERR_C.:E05TOU  is referenced.
   AS_SUBS_C.:E05TOU  is referenced.
   AS_SUPER_C.:E05TOU  is referenced.
   AS_ENTRIES_M.:E05TOU  is referenced.
   B$JIT_C.:E05TOU  was found in the system file and is never referenced.
   CP_6_C.:E05TOU  was found in the system file and is referenced.
      No diagnostics issued in procedure ASC$MOD_USER.
PL6.E3A0      #002=ASC$MOD_USER File=ASC$OPTS.:E05TSI                            TUE 07/29/97 09:41 Page:318

 **** Variables and constants ****

  ****  Section 002 RoData ASC$MOD_USER

  ****  Scalars and arrays  ****
OctLoc.c.b A Datatyp(siz) R M Lvl/name                 OctLoc.c.b A Datatyp(siz) R M Lvl/name

     0-0-0/c STRC(162)   r     1 TEXTC(0:2)                16-0-0/c STRC(18)    r     1 ZERO_LENGTH

  ****  Auto variables  ****

  ****  Scalars and arrays  ****
OctLoc.c.b A Datatyp(siz) R M Lvl/name                 OctLoc.c.b A Datatyp(siz) R M Lvl/name

     3-0-0/w SBIN        r     1 I                          4-0-0/w SBIN        r     1 J
     5-0-0/w SBIN        r     1 K                          7-0-0/w SBIN        r     1 SAVE_MAXC
    10-0-0/w PTR         r     1 SET$                      11-0-0/w SBIN        r     1 VALUE(0:1)

  ****  SYMREF variables  ****

  ****  Scalars and arrays  ****
OctLoc.c.b A Datatyp(siz) R M Lvl/name                 OctLoc.c.b A Datatyp(siz) R M Lvl/name

     0-0-0/w SBIN        r     1 AS_CR_MOD_PROJ             0-0-0/w STRC(18576) r     1 AS_DFLT
     0-0-0/w STRC(369)   r     1 AS_FIELD1                  0-0-0/w STRC(369)   r     1 AS_FIELD2
     0-0-0/w STRC(369)   r     1 AS_FIELD3                  0-0-0/w STRC(1483)  r     1 AS_MOD_USER
     0-0-0/w BIT         r     1 AS_PPRIVILEGE(0:20)
     0-0-0/w PTR         r     1 AS_PPRIV_NAMES(0:20)
     0-0-0/w BIT         r     1 AS_PRIVILEGE(0:23)
     0-0-0/w PTR         r     1 AS_PRIV_NAMES(0:23)
     0-0-0/w PTR         r     1 AS_SUPER_TO_PIG$           0-0-0/b BIT         r     1 AS_TRUE
     0-0-0/w STRC(18576) r     1 AS_USERS                   0-0-0/w SBIN        r     1 AS_WILD_MCH
     0-0-0/w SBIN        r     1 AS_WILD_MVAL               0-0-0/w STRC(6084)  r     1 KL_DFLT
     0-0-0/w STRC(6084)  r     1 KL_DREC

  ****  BASED and DCB variables  ****

PL6.E3A0      #002=ASC$MOD_USER File=ASC$OPTS.:E05TSI                            TUE 07/29/97 09:41 Page:319
  ****  Scalars and arrays  ****
OctLoc.c.b A Datatyp(siz) R M Lvl/name                 OctLoc.c.b A Datatyp(siz) R M Lvl/name

     0-0-0/w ASTR(522)   r     1 SUPER_TO_PIG               0-0-0/w ASTR(9)     r     1 VARY$STR


   Procedure ASC$MOD_USER requires 897 words for executable code.
   Procedure ASC$MOD_USER requires 16 words of local(AUTO) storage.

    No errors detected in file ASC$OPTS.:E05TSI    .
PL6.E3A0      #002=ASC$MOD_USER File=ASC$OPTS.:E05TSI                            TUE 07/29/97 09:41 Page:320
          *** CROSS REFERENCE LISTING ***
**     DENOTES     IDENTIFIER DEFINITION
<<                 IDENTIFIER'S VALUE SET
>>                 IDENTIFIER'S VALUE USED
<>                 IDENTIFIER SET AND/OR USED
--                 IDENTIFIER REFERENCED
PL6.E3A0      #002=ASC$MOD_USER File=ASC$OPTS.:E05TSI                            TUE 07/29/97 09:41 Page:321
          MINI XREF LISTING

ASA_BRKS_LOC
     10009**DCL     10009--REDEF
ASB$BINCHAR
      6494**DCL-ENT 13247--CALL    13255--CALL
ASB$PIG
     12903**DCL-ENT 13302--CALL
ASC$BANNER
     12909**DCL-ENT 13011--CALL
ASC$FEPSEUDO
     12900**DCL-ENT 13297--CALL
ASC$FERESOURCE
     12894**DCL-ENT 13295--CALL
ASC$MOD_USER_LIMITS
     12888**DCL-ENT 13293--CALL
ASC$PSEUDO
     12897**DCL-ENT 13296--CALL
ASC$RESOURCE
     12891**DCL-ENT 13294--CALL
ASC$SETUP
     12915**DCL-ENT 12977--CALL
ASH$ERROR
     12906**DCL-ENT 12991--CALL    13025--CALL    13219--CALL    13278--CALL
AS_CR_MOD_PROJ
     10017**DCL     13224>>IF      13228>>ASSIGN
AS_DEFAULT.BANNER_PERM
     10702**DCL     10703--REDEF
AS_DEFAULT.BUDGET.MACCT
     10607**DCL     10611--REDEF
AS_DEFAULT.BUDGET.MAX_PROJECTS
     10620**DCL     10623--REDEF
AS_DEFAULT.BUDGET.PACCUM
     10603**DCL     10605--REDEF
PL6.E3A0      #002=ASC$MOD_USER File=ASC$OPTS.:E05TSI                            TUE 07/29/97 09:41 Page:322
AS_DEFAULT.BUDGET.PMAXC
     10598**DCL     10600--REDEF
AS_DEFAULT.SETUP_CHRA.TXT
     10718**DCL     10719--REDEF   10720--REDEF
AS_DEFAULT_DREC.PASSWORD
     11972**DCL     11976--REDEF
AS_DEFAULT_DREC.RENAME
     11995**DCL     11996--REDEF
AS_DFLT.BANNER
     10537**DCL     13006>>ASSIGN
AS_DFLT.BANNER_PERM
     10524**DCL     10525--REDEF   13034>>ASSIGN
AS_DFLT.BATNUM
     10416**DCL     12963>>ASSIGN
AS_DFLT.BATOK
     10414**DCL     13104>>ASSIGN
AS_DFLT.BILL
     10448**DCL     13065>>ASSIGN
AS_DFLT.BUDGET.ACCUM
     10419**DCL     13285>>ASSIGN
AS_DFLT.BUDGET.BKACC
     10436**DCL     13190>>ASSIGN
AS_DFLT.BUDGET.BLINDACCTNG
     10440**DCL     13194>>ASSIGN
AS_DFLT.BUDGET.BUDLIM
     10437**DCL     13192>>ASSIGN
AS_DFLT.BUDGET.ICHARGES
     10439**DCL     13188>>ASSIGN
AS_DFLT.BUDGET.MACCT
     10429**DCL     10433--REDEF   13186>>ASSIGN
AS_DFLT.BUDGET.MAX_PROJECTS
     10442**DCL     10445--REDEF
AS_DFLT.BUDGET.PACCUM
     10425**DCL     10427--REDEF
AS_DFLT.BUDGET.PCHARGES
     10438**DCL     13184>>ASSIGN
PL6.E3A0      #002=ASC$MOD_USER File=ASC$OPTS.:E05TSI                            TUE 07/29/97 09:41 Page:323
AS_DFLT.BUDGET.PMAXC
     10420**DCL     10422--REDEF
AS_DFLT.CPROC.NAME
     10478**DCL     13039>>ASSIGN
AS_DFLT.FLAGS.STARSACC
     10501**DCL     12968>>ASSIGN
AS_DFLT.HPSN
     10474**DCL     13095>>ASSIGN
AS_DFLT.KEY
     10449**DCL     13290>>ASSIGN
AS_DFLT.LASTCPROC.NAME
     10483**DCL     13059>>ASSIGN
AS_DFLT.LAST_LOGON_TIME
     10549**DCL     13044>>ASSIGN
AS_DFLT.MAXENQ
     10564**DCL     13173>>ASSIGN
AS_DFLT.NAT_LANG
     10412**DCL     12961>>ASSIGN
AS_DFLT.PRIOB
     10496**DCL     13179>>ASSIGN
AS_DFLT.QUAN
     10494**DCL     13167>>ASSIGN
AS_DFLT.SETUP
     10536**DCL     12972>>ASSIGN
AS_DFLT.SETUP_CHRA.TXT
     10540**DCL     10541--REDEF   10542--REDEF
AS_DFLT.SETUP_CHRA.TXT_UBIN
     10542**DCL     12976--ASSIGN  13010--ASSIGN
AS_DFLT.SETUP_FORCE
     10526**DCL     13052>>ASSIGN
AS_DFLT.SETUP_PERM
     10523**DCL     13000>>ASSIGN
AS_DFLT.STEPACCNT
     10413**DCL     12962>>ASSIGN
AS_FE_MODE
      9875**DCL      9876--REDEF
PL6.E3A0      #002=ASC$MOD_USER File=ASC$OPTS.:E05TSI                            TUE 07/29/97 09:41 Page:324
AS_FIELD1
     10005**DCL     13228<<ASSIGN
AS_FIELD2.TEXT
     10006**DCL     13247<>CALL
AS_FIELD3.COUNT
     10007**DCL     13261>>IF      13263<<ASSIGN
AS_FIELD3.TEXT
     10007**DCL     13255<>CALL    13264<<CALLBLT
AS_MODE
      9872**DCL      9874--REDEF
AS_MOD_USER.ACCESS
     12737**DCL     12738--REDEF   13098>>IF
AS_MOD_USER.ACCESS_A
     12738**DCL     13100>>IF
AS_MOD_USER.BANNER
     12724**DCL     12725--REDEF   13003>>IF
AS_MOD_USER.BANNER_A
     12725**DCL     13005>>IF
AS_MOD_USER.BANNER_PERM
     12726**DCL     12727--REDEF   13031>>IF
AS_MOD_USER.BANNER_PERM_A
     12727**DCL     13033>>IF
AS_MOD_USER.BATNUM
     12716**DCL     12963>>IF
AS_MOD_USER.BILL
     12732**DCL     12733--REDEF   13062>>IF
AS_MOD_USER.BILL_A
     12733**DCL     13064>>IF
AS_MOD_USER.BUDGET
     12751**DCL     13182>>IF
AS_MOD_USER.BUDGET.ACCUM
     12760**DCL     13284>>IF
AS_MOD_USER.BUDGET.BKACC
     12754**DCL     13189>>IF
AS_MOD_USER.BUDGET.BLINDACCTNG
     12756**DCL     13193>>IF
PL6.E3A0      #002=ASC$MOD_USER File=ASC$OPTS.:E05TSI                            TUE 07/29/97 09:41 Page:325
AS_MOD_USER.BUDGET.BUDLIM
     12755**DCL     13191>>IF
AS_MOD_USER.BUDGET.ICHARGES
     12753**DCL     13187>>IF
AS_MOD_USER.BUDGET.MACCT
     12759**DCL     13185>>IF
AS_MOD_USER.BUDGET.MAXC
     12757**DCL     13195>>IF
AS_MOD_USER.BUDGET.PCHARGES
     12752**DCL     13183>>IF
AS_MOD_USER.BUDGET.SIGN
     12758**DCL     13196>>IF      13196>>IF      13202>>IF
AS_MOD_USER.CPROC
     12728**DCL     12729--REDEF   13036>>IF
AS_MOD_USER.CPROC_A
     12729**DCL     13038>>IF
AS_MOD_USER.FACCOUNT
     12807**DCL     13298>>IF
AS_MOD_USER.FEBILL
     12808**DCL     12809--REDEF   13068>>IF
AS_MOD_USER.FEBILL_A
     12809**DCL     13070>>IF
AS_MOD_USER.FECXTMEM
     12825**DCL     12826--REDEF
AS_MOD_USER.FEDBACCN
     12824**DCL     12966>>IF
AS_MOD_USER.FEMACCTMEM
     12823**DCL     12965>>IF
AS_MOD_USER.FEMFPRG
     12812**DCL     12964>>IF
AS_MOD_USER.FEMINTS
     12810**DCL     12811--REDEF   13074>>IF
AS_MOD_USER.FEMINTS_A
     12811**DCL     13076>>IF
AS_MOD_USER.FEMMEM
     12821**DCL     12822--REDEF   13086>>IF
PL6.E3A0      #002=ASC$MOD_USER File=ASC$OPTS.:E05TSI                            TUE 07/29/97 09:41 Page:326
AS_MOD_USER.FEMMEM_A
     12822**DCL     13088>>IF
AS_MOD_USER.FEMTIME
     12819**DCL     12820--REDEF   13080>>IF
AS_MOD_USER.FEMTIME_A
     12820**DCL     13082>>IF
AS_MOD_USER.FEPPRIV
     12816**DCL     12818--REDEF   13152>>IF
AS_MOD_USER.FEPPRIV_A
     12818**DCL     13154>>IF      13157>>IF
AS_MOD_USER.FEPRIV
     12813**DCL     12815--REDEF   13140>>IF
AS_MOD_USER.FEPRIV_A
     12815**DCL     13142>>IF      13145>>IF
AS_MOD_USER.FEPSEUDO
     12827**DCL     13297>>IF
AS_MOD_USER.FERESOURCE
     12828**DCL     13295>>IF
AS_MOD_USER.FORCE_A
     12723**DCL     13050>>IF
AS_MOD_USER.FORCE_BIT
     12722**DCL     12723--REDEF   13047>>IF
AS_MOD_USER.HSET
     12735**DCL     13093>>IF
AS_MOD_USER.KEY
     12804**DCL     12806--REDEF   13287>>IF
AS_MOD_USER.KEY_A
     12806**DCL     13289>>IF
AS_MOD_USER.LASTCPROC
     12730**DCL     12731--REDEF   13056>>IF
AS_MOD_USER.LASTCPROC_A
     12731**DCL     13058>>IF
AS_MOD_USER.LAST_LOGON_TIME
     12830**DCL     13042>>IF
AS_MOD_USER.LIMITS
     12761**DCL     13293>>IF
PL6.E3A0      #002=ASC$MOD_USER File=ASC$OPTS.:E05TSI                            TUE 07/29/97 09:41 Page:327
AS_MOD_USER.LIMITS.DO_
     12778**DCL     12779--REDEF
AS_MOD_USER.LIMITS.FPOOLS
     12794**DCL     12795--REDEF
AS_MOD_USER.LIMITS.LO
     12774**DCL     12775--REDEF
AS_MOD_USER.LIMITS.MEM
     12770**DCL     12771--REDEF
AS_MOD_USER.LIMITS.MPRIO
     12798**DCL     12799--REDEF
AS_MOD_USER.LIMITS.PDIS
     12786**DCL     12787--REDEF
AS_MOD_USER.LIMITS.PO
     12782**DCL     12783--REDEF
AS_MOD_USER.LIMITS.TDIS
     12790**DCL     12791--REDEF
AS_MOD_USER.LIMITS.TIME
     12766**DCL     12767--REDEF
AS_MOD_USER.MAXENQ
     12747**DCL     12748--REDEF   13170>>IF
AS_MOD_USER.MAXENQ_A
     12748**DCL     13172>>IF
AS_MOD_USER.NAT_LANG
     12714**DCL     12961>>IF
AS_MOD_USER.PASSWORD
     12713**DCL     12960>>IF
AS_MOD_USER.PERM_A
     12721**DCL     12999>>IF
AS_MOD_USER.PERM_BIT
     12720**DCL     12721--REDEF   12997>>IF
AS_MOD_USER.PPRIV
     12742**DCL     12744--REDEF   13128>>IF
AS_MOD_USER.PPRIV_A
     12744**DCL     13130>>IF      13133>>IF
AS_MOD_USER.PRIOB
     12749**DCL     12750--REDEF   13176>>IF
PL6.E3A0      #002=ASC$MOD_USER File=ASC$OPTS.:E05TSI                            TUE 07/29/97 09:41 Page:328
AS_MOD_USER.PRIOB_A
     12750**DCL     13178>>IF
AS_MOD_USER.PRIV
     12739**DCL     12741--REDEF   13116>>IF
AS_MOD_USER.PRIV_A
     12741**DCL     13118>>IF      13121>>IF
AS_MOD_USER.PROFILE
     12736**DCL     13097>>IF
AS_MOD_USER.PSEUDO
     12802**DCL     13296>>IF
AS_MOD_USER.QUAN
     12745**DCL     12746--REDEF   13164>>IF
AS_MOD_USER.QUAN_A
     12746**DCL     13166>>IF
AS_MOD_USER.RESOURCE
     12803**DCL     13294>>IF
AS_MOD_USER.SETUP
     12718**DCL     12719--REDEF   12969>>IF
AS_MOD_USER.SETUP_A
     12719**DCL     12971>>IF
AS_MOD_USER.STARSACC
     12717**DCL     12967>>IF
AS_MOD_USER.STEPACCNT
     12715**DCL     12962>>IF
AS_MOD_USER.WSN
     12734**DCL     13092>>IF
AS_PPRIVILEGE
      9872**DCL     13134>>ASSIGN  13136>>ASSIGN  13158>>ASSIGN  13160>>ASSIGN
AS_PPRIV_NAMES
      9871**DCL     13129--DOINDEX 13153--DOINDEX
AS_PRIVILEGE
      9872**DCL     13122>>ASSIGN  13124>>ASSIGN  13146>>ASSIGN  13148>>ASSIGN
AS_PRIV_NAMES
      9871**DCL     13117--DOINDEX 13141--DOINDEX
AS_PROJECT.BANNER_PERM
     11058**DCL     11059--REDEF
PL6.E3A0      #002=ASC$MOD_USER File=ASC$OPTS.:E05TSI                            TUE 07/29/97 09:41 Page:329
AS_PROJECT.BUDGET.MACCT
     10963**DCL     10967--REDEF
AS_PROJECT.BUDGET.MAX_PROJECTS
     10976**DCL     10979--REDEF
AS_PROJECT.BUDGET.PACCUM
     10959**DCL     10961--REDEF
AS_PROJECT.BUDGET.PMAXC
     10954**DCL     10956--REDEF
AS_PROJECT.SETUP_CHRA.TXT
     11074**DCL     11075--REDEF   11076--REDEF
AS_PROJECT_DFLT.BANNER_PERM
     11236**DCL     11237--REDEF
AS_PROJECT_DFLT.BUDGET.MACCT
     11141**DCL     11145--REDEF
AS_PROJECT_DFLT.BUDGET.MAX_PROJECTS
     11154**DCL     11157--REDEF
AS_PROJECT_DFLT.BUDGET.PACCUM
     11137**DCL     11139--REDEF
AS_PROJECT_DFLT.BUDGET.PMAXC
     11132**DCL     11134--REDEF
AS_PROJECT_DFLT.SETUP_CHRA.TXT
     11252**DCL     11253--REDEF   11254--REDEF
AS_PROJECT_DFLT_DREC.PASSWORD
     12458**DCL     12462--REDEF
AS_PROJECT_DFLT_DREC.RENAME
     12481**DCL     12482--REDEF
AS_PROJECT_DREC.PASSWORD
     12296**DCL     12300--REDEF
AS_PROJECT_DREC.RENAME
     12319**DCL     12320--REDEF
AS_PROJ_ADMIN.BANNER_PERM
     10880**DCL     10881--REDEF
AS_PROJ_ADMIN.BUDGET.MACCT
     10785**DCL     10789--REDEF
AS_PROJ_ADMIN.BUDGET.MAX_PROJECTS
     10798**DCL     10801--REDEF
PL6.E3A0      #002=ASC$MOD_USER File=ASC$OPTS.:E05TSI                            TUE 07/29/97 09:41 Page:330
AS_PROJ_ADMIN.BUDGET.PACCUM
     10781**DCL     10783--REDEF
AS_PROJ_ADMIN.BUDGET.PMAXC
     10776**DCL     10778--REDEF
AS_PROJ_ADMIN.SETUP_CHRA.TXT
     10896**DCL     10897--REDEF   10898--REDEF
AS_PROJ_ADMIN_DREC.PASSWORD
     12134**DCL     12138--REDEF
AS_PROJ_ADMIN_DREC.RENAME
     12157**DCL     12158--REDEF
AS_SUPER_TO_PIG$
     10016**DCL     12923--IMP-PTR 13299>>ASSIGN  13300>>ASSIGN  13301>>ASSIGN  13302>>CALL    13302>>CALL
AS_TRUE
      9869**DCL     13050>>IF      13294<>CALL    13295<>CALL    13296<>CALL    13297<>CALL
AS_USERS
     10231**DCL     12977--CALL    13011--CALL
AS_USERS.ACCT
     10232**DCL     13300>>ASSIGN
AS_USERS.BANNER_PERM
     10346**DCL     10347--REDEF   13034<<ASSIGN
AS_USERS.BATNUM
     10238**DCL     12963<<ASSIGN
AS_USERS.BATOK
     10236**DCL     13104<<ASSIGN
AS_USERS.BILL
     10270**DCL     13065<<ASSIGN
AS_USERS.BUDGET.ACCUM
     10241**DCL     13285<<ASSIGN
AS_USERS.BUDGET.BKACC
     10258**DCL     13190<<ASSIGN
AS_USERS.BUDGET.BLINDACCTNG
     10262**DCL     13194<<ASSIGN
AS_USERS.BUDGET.BUDLIM
     10259**DCL     13192<<ASSIGN
AS_USERS.BUDGET.ICHARGES
     10261**DCL     13188<<ASSIGN
PL6.E3A0      #002=ASC$MOD_USER File=ASC$OPTS.:E05TSI                            TUE 07/29/97 09:41 Page:331
AS_USERS.BUDGET.MACCT
     10251**DCL     10255--REDEF   13186<<ASSIGN
AS_USERS.BUDGET.MAXC
     10240**DCL     13196>>IF      13199<<ASSIGN  13201>>ASSIGN  13203<<ASSIGN  13205<<ASSIGN  13205>>ASSIGN
     13206>>IF      13222<<ASSIGN  13226>>IF      13281<<ASSIGN
AS_USERS.BUDGET.MAX_PROJECTS
     10264**DCL     10267--REDEF
AS_USERS.BUDGET.PACCUM
     10247**DCL     10249--REDEF
AS_USERS.BUDGET.PCHARGES
     10260**DCL     13184<<ASSIGN
AS_USERS.BUDGET.PMAXC
     10242**DCL     10244--REDEF
AS_USERS.CPROC.NAME
     10300**DCL     13039<<ASSIGN
AS_USERS.FLAGS.STARSACC
     10323**DCL     12968<<ASSIGN
AS_USERS.HPSN
     10296**DCL     13095<<ASSIGN  13301>>ASSIGN
AS_USERS.KEY
     10271**DCL     13290<<ASSIGN
AS_USERS.LASTCPROC.NAME
     10305**DCL     13059<<ASSIGN
AS_USERS.LAST_LOGON_TIME
     10371**DCL     13044<<ASSIGN
AS_USERS.MAXENQ
     10386**DCL     13173<<ASSIGN
AS_USERS.NAT_LANG
     10234**DCL     12961<<ASSIGN
AS_USERS.PPRIV
     10310**DCL     13134<<ASSIGN  13134>>ASSIGN  13136<<ASSIGN  13136>>ASSIGN
AS_USERS.PRIOB
     10318**DCL     13179<<ASSIGN
AS_USERS.PRIV
     10309**DCL     13122<<ASSIGN  13122>>ASSIGN  13124<<ASSIGN  13124>>ASSIGN
AS_USERS.QUAN
PL6.E3A0      #002=ASC$MOD_USER File=ASC$OPTS.:E05TSI                            TUE 07/29/97 09:41 Page:332
     10316**DCL     13167<<ASSIGN
AS_USERS.SETUP_CHRA.TXT
     10362**DCL     10363--REDEF   10364--REDEF
AS_USERS.SETUP_FORCE
     10348**DCL     13052<<ASSIGN
AS_USERS.SETUP_PERM
     10345**DCL     13000<<ASSIGN
AS_USERS.STEPACCNT
     10235**DCL     12962<<ASSIGN
AS_USERS_CONSTANT.BANNER_PERM
     11414**DCL     11415--REDEF
AS_USERS_CONSTANT.BUDGET.MACCT
     11319**DCL     11323--REDEF
AS_USERS_CONSTANT.BUDGET.MAX_PROJECTS
     11332**DCL     11335--REDEF
AS_USERS_CONSTANT.BUDGET.PACCUM
     11315**DCL     11317--REDEF
AS_USERS_CONSTANT.BUDGET.PMAXC
     11310**DCL     11312--REDEF
AS_USERS_CONSTANT.SETUP_CHRA.TXT
     11430**DCL     11431--REDEF   11432--REDEF
AS_WILD_MCH
     10018**DCL     13224>>IF      13226>>IF      13229>>ASSIGN  13230>>ASSIGN  13281>>ASSIGN
AS_WILD_MVAL
     10018**DCL     13196>>IF      13203>>ASSIGN  13205>>ASSIGN
ERR_CODE
     10004**DCL     10005--REDEF
I
     12866**DCL     12970<<DOINDEX 12971>>IF      12972>>ASSIGN  12977<>CALL    12998<<DOINDEX 12999>>IF
     13000>>ASSIGN  13000>>ASSIGN  13004<<DOINDEX 13005>>IF      13006>>ASSIGN  13011<>CALL    13032<<DOINDEX
     13033>>IF      13034>>ASSIGN  13034>>ASSIGN  13037<<DOINDEX 13038>>IF      13039>>ASSIGN  13039>>ASSIGN
     13049<<DOINDEX 13050>>IF      13052>>ASSIGN  13052>>ASSIGN  13057<<DOINDEX 13058>>IF      13059>>ASSIGN
     13059>>ASSIGN  13063<<DOINDEX 13064>>IF      13065>>ASSIGN  13065>>ASSIGN  13069<<DOINDEX 13070>>IF
     13071>>ASSIGN  13071>>ASSIGN  13075<<DOINDEX 13076>>IF      13077>>ASSIGN  13077>>ASSIGN  13081<<DOINDEX
     13082>>IF      13083>>ASSIGN  13083>>ASSIGN  13087<<DOINDEX 13088>>IF      13089>>ASSIGN  13089>>ASSIGN
     13099<<DOINDEX 13100>>IF      13101>>DOSELCT 13117<<DOINDEX 13118>>IF      13119>>ASSIGN  13120>>ASSIGN
PL6.E3A0      #002=ASC$MOD_USER File=ASC$OPTS.:E05TSI                            TUE 07/29/97 09:41 Page:333
     13121>>IF      13129<<DOINDEX 13130>>IF      13131>>ASSIGN  13132>>ASSIGN  13133>>IF      13141<<DOINDEX
     13142>>IF      13143>>ASSIGN  13144>>ASSIGN  13145>>IF      13153<<DOINDEX 13154>>IF      13155>>ASSIGN
     13156>>ASSIGN  13157>>IF      13165<<DOINDEX 13166>>IF      13167>>ASSIGN  13167>>ASSIGN  13171<<DOINDEX
     13172>>IF      13173>>ASSIGN  13173>>ASSIGN  13177<<DOINDEX 13178>>IF      13179>>ASSIGN  13179>>ASSIGN
     13288<<DOINDEX 13289>>IF      13290>>ASSIGN  13290>>ASSIGN
J
     12867**DCL     12972<<ASSIGN  12973>>IF      12976>>ASSIGN  13006<<ASSIGN  13007>>IF      13010>>ASSIGN
     13119<<ASSIGN  13122>>ASSIGN  13124>>ASSIGN  13131<<ASSIGN  13134>>ASSIGN  13136>>ASSIGN  13143<<ASSIGN
     13146>>ASSIGN  13148>>ASSIGN  13155<<ASSIGN  13158>>ASSIGN  13160>>ASSIGN
K
     12868**DCL     13120<<ASSIGN  13122>>ASSIGN  13122>>ASSIGN  13124>>ASSIGN  13124>>ASSIGN  13132<<ASSIGN
     13134>>ASSIGN  13134>>ASSIGN  13136>>ASSIGN  13136>>ASSIGN  13144<<ASSIGN  13146>>ASSIGN  13146>>ASSIGN
     13148>>ASSIGN  13148>>ASSIGN  13156<<ASSIGN  13158>>ASSIGN  13158>>ASSIGN  13160>>ASSIGN  13160>>ASSIGN
KL_DEFAULT.PASSWORD
     12620**DCL     12624--REDEF
KL_DEFAULT.RENAME
     12643**DCL     12644--REDEF
KL_DFLT.FLAGS.BATOK
     11774**DCL     13103>>ASSIGN
KL_DFLT.FLAGS.FEOK
     11798**DCL     13110>>ASSIGN
KL_DFLT.FLAGS.GHOSTOK
     11767**DCL     13108>>ASSIGN
KL_DFLT.FLAGS.OLOK
     11770**DCL     13106>>ASSIGN
KL_DFLT.FLAGS.TPOK
     11794**DCL     13112>>ASSIGN
KL_DFLT.HPS.N
     11838**DCL     13094>>ASSIGN
KL_DFLT.KL_DFLT_FEBLK.BILL
     11870**DCL     13071>>ASSIGN
KL_DFLT.KL_DFLT_FEBLK.DBACCN
     11871**DCL     12966>>ASSIGN
KL_DFLT.KL_DFLT_FEBLK.MACCTMEM
     11874**DCL     12965>>ASSIGN
KL_DFLT.KL_DFLT_FEBLK.MFPRG
PL6.E3A0      #002=ASC$MOD_USER File=ASC$OPTS.:E05TSI                            TUE 07/29/97 09:41 Page:334
     11873**DCL     12964>>ASSIGN
KL_DFLT.KL_DFLT_FEBLK.MINTS
     11872**DCL     13077>>ASSIGN
KL_DFLT.KL_DFLT_FEBLK.MMEM
     11881**DCL     13089>>ASSIGN
KL_DFLT.KL_DFLT_FEBLK.MTIME
     11880**DCL     13083>>ASSIGN
KL_DFLT.PASSWORD
     11810**DCL     11814--REDEF   12960>>ASSIGN
KL_DFLT.PNAME
     11816**DCL     13097>>ASSIGN
KL_DFLT.RENAME
     11833**DCL     11834--REDEF
KL_DFLT.WOO
     11830**DCL     13092>>ASSIGN
KL_DREC.FLAGS.BATOK
     11612**DCL     13103<<ASSIGN
KL_DREC.FLAGS.FEOK
     11636**DCL     13110<<ASSIGN
KL_DREC.FLAGS.GHOSTOK
     11605**DCL     13108<<ASSIGN
KL_DREC.FLAGS.OLOK
     11608**DCL     13106<<ASSIGN
KL_DREC.FLAGS.TPOK
     11632**DCL     13112<<ASSIGN
KL_DREC.HPS.N
     11676**DCL     13094<<ASSIGN
KL_DREC.KL_DREC_FEBLK.BILL
     11708**DCL     13071<<ASSIGN
KL_DREC.KL_DREC_FEBLK.DBACCN
     11709**DCL     12966<<ASSIGN
KL_DREC.KL_DREC_FEBLK.MACCTMEM
     11712**DCL     12965<<ASSIGN
KL_DREC.KL_DREC_FEBLK.MFPRG
     11711**DCL     12964<<ASSIGN
KL_DREC.KL_DREC_FEBLK.MINTS
PL6.E3A0      #002=ASC$MOD_USER File=ASC$OPTS.:E05TSI                            TUE 07/29/97 09:41 Page:335
     11710**DCL     13077<<ASSIGN
KL_DREC.KL_DREC_FEBLK.MMEM
     11719**DCL     13089<<ASSIGN
KL_DREC.KL_DREC_FEBLK.MTIME
     11718**DCL     13083<<ASSIGN
KL_DREC.KL_DREC_FEBLK.PPRIV
     11717**DCL     13158<<ASSIGN  13158>>ASSIGN  13160<<ASSIGN  13160>>ASSIGN
KL_DREC.KL_DREC_FEBLK.PRIV
     11716**DCL     13146<<ASSIGN  13146>>ASSIGN  13148<<ASSIGN  13148>>ASSIGN
KL_DREC.PASSWORD
     11648**DCL     11652--REDEF   12960<<ASSIGN
KL_DREC.PNAME
     11654**DCL     13097<<ASSIGN
KL_DREC.RENAME
     11671**DCL     11672--REDEF
KL_DREC.WOO
     11668**DCL     13092<<ASSIGN
KL_DREC_CNT.PASSWORD
     11535**DCL     11539--REDEF
KL_DREC_CNT.RENAME
     11558**DCL     11559--REDEF
PROJ_KEY.TEXT
      9882**DCL      9882--REDEF
PROJ_KEY.TXT.PROJECT
      9882**DCL      9882--REDEF
REMEM_VAR
     10008**DCL     10008--REDEF
REM_FCMD
     10008**DCL     10009--REDEF
SAVE_MAXC
     12870**DCL     13201<<ASSIGN  13222>>ASSIGN
SET$
     12871**DCL     12876--IMP-PTR 12974<<ASSIGN  12976<<ASSIGN  12977>>CALL    12977>>CALL    13008<<ASSIGN
     13010<<ASSIGN  13011>>CALL    13011>>CALL
SUPER_TO_PIG
     12923**DCL     13302<>CALL
PL6.E3A0      #002=ASC$MOD_USER File=ASC$OPTS.:E05TSI                            TUE 07/29/97 09:41 Page:336
SUPER_TO_PIG.ACCT
     12944**DCL     13300<<ASSIGN
SUPER_TO_PIG.ATTR.COUNT
     12946**DCL     12949--IMP-SIZ 13302>>CALL
SUPER_TO_PIG.PACKSET
     12943**DCL     13301<<ASSIGN
SUPER_TO_PIG.PROJECT
     12939**DCL     12942--REDEF
SUPER_TO_PIG.SUPER
     12935**DCL     12938--REDEF
SUPER_TO_PIG.TYPE
     12924**DCL     13299<<ASSIGN
TEXTC
     12873**DCL     13228>>ASSIGN
USERS_KEY.TEXT
      9879**DCL      9880--REDEF    9880--REDEF    9880--REDEF    9881--REDEF
VALUE
     12872**DCL     13229<<ASSIGN  13230<<ASSIGN  13247<>CALL    13255<>CALL
VARY$STR
     12876**DCL     12977<>CALL    13011<>CALL
VARY$STR.CNT
     12877**DCL     12878--IMP-SIZ 12977>>CALL    13011>>CALL
ZERO_LENGTH
     12879**DCL     12974--ASSIGN  13008--ASSIGN
