VERSION E05

PL6.E3A0      #001=ASC$PSEUDO File=ASC$PSEUDO.:E05TSI                            TUE 07/29/97 09:39 Page:1
        1        1        /*M* ASC$PSEUDO: Processes PSEUDO and FEPSEUDO options. */
        2        2        /*T***********************************************************/
        3        3        /*T*                                                         */
        4        4        /*T* Copyright (c) Bull HN Information Systems Inc., 1997    */
        5        5        /*T*                                                         */
        6        6        /*T***********************************************************/
        7        7        /*X*  DMC,DMR,CCC,PLM=0,IND=3,CTI=5,DCI=6,IAD=0,DTI=0,IDT=0,ENI=3,
        8        8              ECU=3,CSU=3,SDI=3                                           */
        9        9                                                              /**/
       10       10        /*  ASC$PSEUDO - this module consists of procedures:
       11       11                         ASC$PSEUDO
       12       12                         ASC$FEPSEUDO
       13       13        */
       14       14        /********************************************************************/
       15       15        /*                                                                   */
       16       16        /*                   ASC$PSEUDO          proc                        */
       17       17        /*                                                                   */
       18       18        /*********************************************************************/
       19       19                                                              /**/
       20       20        ASC$PSEUDO: PROC ( MOD_FLG );
       21       21                                                              /**/
       22       22
       23       23        /*********************************************************************/
       24       24        /*    Parameters      parameters      parameters      parameters     */
       25       25        /*********************************************************************/
       26       26
       27       27    1   DCL MOD_FLG BIT(1) ALIGNED;
       28       28
       29       29        /********************************************************************/
       30       30        /*   Include files   include files   include files   include files   */
       31       31        /*********************************************************************/
       32       32                                                              /**/
       33       33        %INCLUDE      AS_ENTRIES_M;
       34     1083        %INCLUDE      AS_SUPER_C ;
       35     1518        %INCLUDE      AS_SUBS_C ;
       36     2932        %INCLUDE      AS_MAC_C ;
       37     3012        %INCLUDE      AS_PERR_C;
PL6.E3A0      #001=ASC$PSEUDO File=ASC$PSEUDO.:E05TSI                            TUE 07/29/97 09:39 Page:2
       38     3614        %INCLUDE      KL_SUPER_C ;
       39     6516        %INCLUDE      XU_MACRO_C ;
       40     9622        %INCLUDE      XU_FORMAT_C ;
       41     9784        %INCLUDE      B_MACROS_C ;
       42     9895        %INCLUDE      CP_6 ;
       43     9976        %INCLUDE      AS_SUPER_R ;
       44    12992                                                              /**/
       45    12993
       46    12994        /********************************************************************/
       47    12995        /*   Local based     local based     local based     local based     */
       48    12996        /*********************************************************************/
       49    12997                                                              /**/
       50    12998            %PARSE$OUT( NAME=P$NODE, STCLASS="BASED(NODE$)",
       51    12999                        NDTYPE=TYPE, NSUBLKS=SUBNODES) ;
       52    13044                                                              /**/
       53    13045    1   DCL PSDO$STRC(0:3) UBIN HALF HALIGNED BASED( PSDO$ ) ;
       54    13046    1   DCL 1 PSEUDO$LIST ALIGNED BASED( AS_PSEUDO_LIST$ ),
       55    13047    1          2 COUNT UBIN,
       56    13048    1          2 PSEUDO(0:0),
       57    13049    1             3 NAME CHAR(8),
       58    13050    1             3 BMAX SBIN HALF UNAL,
       59    13051    1             3 GMAX SBIN HALF UNAL,
       60    13052    1             3 OMAX SBIN HALF UNAL,
       61    13053    1             3 TMAX SBIN HALF UNAL,
       62    13054    1             3 TYPE UBIN HALF UNAL;
       63    13055
       64    13056        /********************************************************************/
       65    13057        /*   Entry dcls      entry dcls      entry dcls      entry dcls      */
       66    13058        /*********************************************************************/
       67    13059                                                              /**/
       68    13060    1   DCL X$PARSE ENTRY(1) ALTRET ;
       69    13061        %ASB$READ_SI ;
       70    13064        %ASB$SET_PROMPT ;
       71    13067        %ASH$HELP ;
       72    13070        %ASH$DQUEST ;
       73    13073        %ASH$QUEST ;
       74    13076        %ASH$ERROR ;
PL6.E3A0      #001=ASC$PSEUDO File=ASC$PSEUDO.:E05TSI                            TUE 07/29/97 09:39 Page:3
       75    13079        %ASB$FLUSH_ERR ;
       76    13082                                                              /**/
       77    13083
       78    13084        /*********************************************************************/
       79    13085        /*   Symrefs         symrefs         symrefs         symrefs         */
       80    13086        /*********************************************************************/
       81    13087                                                              /**/
       82    13088    1   DCL PSEUDO_SUB UBIN WORD SYMREF ;
       83    13089
       84    13090        /*********************************************************************/
       85    13091        /*   Auto data       auto data       auto data       auto data       */
       86    13092        /*********************************************************************/
       87    13093                                                              /**/
       88    13094    1   DCL PTR$ PTR ;
       89    13095    1   DCL PTR2$ PTR ;
       90    13096    1   DCL 1 VARY$STR BASED( PTR$ ) ALIGNED ,
       91    13097    1          2 CNT UBIN BYTE UNAL ,
       92    13098    1          2 TXT CHAR( VARY$STR.CNT ) UNAL ;
       93    13099    1   DCL I UBIN WORD ;
       94    13100    1   DCL J UBIN WORD ;
       95    13101    1   DCL K UBIN WORD ;
       96    13102    1   DCL CNT UBIN WORD ;
       97    13103    1   DCL NAME_POS UBIN WORD ;
       98    13104    1   DCL BLANK_POS UBIN WORD ;
       99    13105    1   DCL MODE UBIN WORD ;
      100    13106    1   DCL VAL UBIN WORD ;
      101    13107    1   DCL PSDO$ PTR ;
      102    13108    1   DCL SUBS UBIN WORD ;
      103    13109    1   DCL SUBNODES UBIN WORD ;
      104    13110    1   DCL CODE2 UBIN WORD ;
      105    13111    1   DCL ARS UBIN WORD ;
      106    13112    1   DCL MORE BIT(1) ;
      107    13113    1   DCL WORK$ PTR ;
      108    13114    1   DCL ROOT$ PTR ;
      109    13115    1   DCL WKSZ UBIN WORD ;
      110    13116    1   DCL WK_USED UBIN WORD ;
      111    13117    1   DCL T_NODE$ PTR ;
PL6.E3A0      #001=ASC$PSEUDO File=ASC$PSEUDO.:E05TSI                            TUE 07/29/97 09:39 Page:4
      112    13118    1   DCL 1 PSEUDO_STRC ALIGNED,
      113    13119    1          2 NAME CHAR(8) UNAL,
      114    13120    1          2 VAL(0:3) SBIN HALF UNAL,
      115    13121    1          2 TYPE UBIN HALF UNAL;
      116    13122
      117    13123        /********************************************************************/
      118    13124        /*   Static data     static data     static data     static data     */
      119    13125        /*********************************************************************/
      120    13126                                                              /**/
      121    13127
      122    13128        /********************************************************************/
      123    13129        /*   Procedure       procedure       procedure       procedure       */
      124    13130        /*********************************************************************/
      125    13131                                                              /**/
      126    13132        /*
      127    13133            ***            Begin procedure                    ***
      128    13134        */
      129    13135    2   IF MOD_FLG THEN DO;
      130    13136    2      IF PSEUDO$LIST.COUNT = 0 THEN RETURN;
      131    13137    2      END;
      132    13138    2   ELSE DO;
      133    13139                                                              /* Save some of P_PCB. */
      134    13140    2      WORK$ = P_PCB.WORK$ ;
      135    13141    2      WKSZ = P_PCB.WKSZ ;
      136    13142    2      WK_USED = P_PCB.WK_USED ;
      137    13143    2      ROOT$ = P_PCB.ROOT$ ;
      138    13144                                                                  /* Bump past area used. */
      139    13145    2      P_PCB.WORK$ = PINCRW( WORK$, P_PCB.WK_USED ) ;
      140    13146    2      P_PCB.WKSZ = WKSZ - P_PCB.WK_USED ;
      141    13147                                                                  /* Save NODE$ */
      142    13148    2      T_NODE$ = NODE$ ;
      143    13149                                                                  /* Set ROOT$ */
      144    13150    2      P_PCB.ROOT$ = ADDR(PSEUDO_SUB) ;
      145    13151    2      REMEMBER PSEUDO_LOOP IN REMEM_VAR ;
      146    13152                                                                  /*  Set prompt  */
      147    13153    2      CALL ASB$SET_PROMPT ( %PROMPT_SUB ) ;
      148    13154    2      AS_MOD_USER.PSEUDO = AS_TRUE;
PL6.E3A0      #001=ASC$PSEUDO File=ASC$PSEUDO.:E05TSI                            TUE 07/29/97 09:39 Page:5
      149    13155    2      END;
      150    13156
      151    13157    1   MORE = AS_TRUE;
      152    13158    2   DO WHILE (MORE) ;
      153    13159    2   PSEUDO_LOOP:
      154    13160    3      IF MOD_FLG THEN DO;
      155    13161    3         CODE = PSEUDO_SOPT_VAL;
      156    13162    3         SUBNODES = PSEUDO$LIST.COUNT;
      157    13163    3         MORE = AS_FALSE;
      158    13164    3         END;
      159    13165    3      ELSE DO;
      160    13166    3         CALL ASB$READ_SI(IN_BUF,ARS) ;         /* Read option line */
      161    13167    3         P_PCB.NCHARS = ARS ;
      162    13168    3         CALL X$PARSE(P_PCB) ALTRET (PSEUDO_ERR) ;
      163    13169    3         NODE$ = P_PCB.OUT$ ;
      164    13170    3         SUBNODES = P$NODE.SUBNODES ;
      165    13171    3         END;
      166    13172    3      DO I = 0 TO SUBNODES - 1 ;
      167    13173    3         IF MOD_FLG THEN
      168    13174    3            PSEUDO_STRC = PSEUDO$LIST.PSEUDO(I);
      169    13175    3         ELSE
      170    13176    3            CODE = P$NODE.SUBLK$(I) -> P$NODE.CODE ;
      171    13177    4         DO SELECT( CODE ) ;
      172    13178                                                              /**/
      173    13179    4            SELECT( END_VAL ,
      174    13180    4                 BLANK_LINE_VAL ) ;
      175    13181    4            ERR_CODE = '0'B ;
      176    13182                                                              /* Restore P_PCB */
      177    13183    4            P_PCB.WORK$ = WORK$ ;
      178    13184    4            P_PCB.WKSZ = WKSZ ;
      179    13185    4            P_PCB.WK_USED = WK_USED ;
      180    13186    4            P_PCB.ROOT$ = ROOT$ ;
      181    13187                                                              /* Restore NODE$ */
      182    13188    4            NODE$ = T_NODE$ ;
      183    13189    4            RETURN ;
      184    13190                                                              /**/
      185    13191    4            SELECT( HELP_VAL ) ;
PL6.E3A0      #001=ASC$PSEUDO File=ASC$PSEUDO.:E05TSI                            TUE 07/29/97 09:39 Page:6
      186    13192    4            CALL ASH$HELP ;
      187    13193                                                                  /**/
      188    13194    4            SELECT( QUESTION_VAL ) ;
      189    13195    4            CALL ASH$QUEST ;
      190    13196                                                                  /**/
      191    13197    4            SELECT( DQUESTION_VAL ) ;
      192    13198    4            CALL ASH$DQUEST ;
      193    13199                                                                  /**/
      194    13200    4            SELECT( EOL_VAL ) ;
      195    13201                                                              /**/
      196    13202    4            SELECT( PSEUDO_SOPT_VAL ) ;
      197    13203    5            IF NOT MOD_FLG THEN DO;
      198    13204    5               PTR$ = P$NODE.SUBLK$(I) -> P$NODE.SUBLK$(0)
      199    13205    5                    -> P$NODE.SUBLK$(0) -> P$NODE.SUBLK$(0) ;
      200    13206    5               PTR2$ = P$NODE.SUBLK$(I) -> P$NODE.SUBLK$( 1 ) ;
      201    13207    5               PSEUDO_STRC.TYPE = PTR2$ -> P$NODE.CODE ;
      202    13208    5               IF VARY$STR.CNT > 8
      203    13209    6               THEN DO;
      204    13210        /*E*  ERROR:     ASC-E$PSEUDO_NAME_TOO_LONG-C
      205    13211              MESSAGE:  PSEUDO name too long.
      206    13212              MESSAGE1: PSEUDO names can be at most 8 characters long.
      207    13213        */
      208    13214                       %SCREAM( ERR#=E$PSEUDO_NAME_TOO_LONG, LEVEL=ERROR, MID='C' );
      209    13229    6                  GOTO SKIP_IT;
      210    13230    6                  END ;   /*  Then do  */
      211    13231    5               PSEUDO_STRC.NAME = VARY$STR.TXT;
      212    13232    6               DO J = 0 TO 3;
      213    13233    6                  PSEUDO_STRC.VAL(J) = -1;
      214    13234    6                  END;
      215    13235    5               IF PSEUDO_STRC.TYPE = PSEUDO_LIST_VAL
      216    13236    6               THEN DO;
      217    13237    6                  SUBS = PTR2$ -> P$NODE.SUBNODES ;
      218    13238    7                  DO K = 0 TO SUBS-1 ;
      219    13239    7                     PTR$ = PTR2$ -> P$NODE.SUBLK$(K) ;
      220    13240    7                     MODE = PTR$ -> P$NODE.SUBLK$(0) -> P$NODE.CODE ;
      221    13241    7                     PTR$ = PTR$ -> P$NODE.SUBLK$(1)
      222    13242    7                          -> P$NODE.SUBLK$(0)
PL6.E3A0      #001=ASC$PSEUDO File=ASC$PSEUDO.:E05TSI                            TUE 07/29/97 09:39 Page:7
      223    13243    7                          -> P$NODE.SUBLK$(0) ;
      224    13244    7                     CALL CHARBIN( VAL, VARY$STR.TXT ) ;
      225    13245    7                     IF VAL > 511
      226    13246    8                     THEN DO;
      227    13247        /*E*  ERROR:    ASC-E$PSEUDO_VAL_TOO_BIG-C
      228    13248              MESSAGE:  PSEUDO value too big.
      229    13249              MESSAGE1: PSEUDO value can be at most 511.
      230    13250        */
      231    13251                             %SCREAM( ERR#=E$PSEUDO_VAL_TOO_BIG, LEVEL=ERROR, MID='C' );
      232    13266    8                        GOTO SKIP_IT;
      233    13267    8                        END ;        /* Then do */
      234    13268    7                     ELSE                    /* Set value */
      235    13269    7                        PSEUDO_STRC.VAL(MODE) = VAL;
      236    13270    7                     END;  /* Do K=0 to SUBS-1 */
      237    13271    6                  END;   /* Do case( CODE2 ) */
      238    13272    5               END;     /* If not MOD_FLG then do */
      239    13273                                                              /* Find name and
      240    13274                                                                 1ST. Blank    */
      241    13275    4            NAME_POS = 8 ;              /*  Set past range  */
      242    13276    4            BLANK_POS = 8 ;
      243    13277    5            DO K = 0 TO 7 ;
      244    13278    5               IF AS_USERS.PSDOL.PSDO_NAME(K) = PSEUDO_STRC.NAME
      245    13279    5               THEN
      246    13280    5                  NAME_POS = K ;  /* Found name */
      247    13281    5               ELSE
      248    13282    5                  IF AS_USERS.PSDOL.PSDO_NAME(K) = AS_BLANK
      249    13283    5                       AND BLANK_POS > 7
      250    13284    5                  THEN
      251    13285                                                          /* Found 1ST blank */
      252    13286    5                     BLANK_POS = K ;
      253    13287    5               IF NAME_POS < 8 AND BLANK_POS < 8
      254    13288    5               THEN
      255    13289    5                  GOTO DONE_SEARCH ;
      256    13290    5               END ; /* Do k */
      257    13291                                                              /**/
      258    13292    4   DONE_SEARCH: ;
      259    13293                                                              /**/
PL6.E3A0      #001=ASC$PSEUDO File=ASC$PSEUDO.:E05TSI                            TUE 07/29/97 09:39 Page:8
      260    13294    4            IF PSEUDO_STRC.TYPE = PSEUDO_REMOVE_VAL
      261    13295    5            THEN DO;
      262    13296    5               IF NAME_POS = 8
      263    13297    6               THEN DO;
      264    13298        /*E*  ERROR:    ASC-E$PSEUDO_DOESNT_EXIST-C
      265    13299              MESSAGE: PSEUDO %%U1 % does not exist.
      266    13300        */
      267    13301    6                  AS_FIELD1.TEXT = PSEUDO_STRC.NAME;
      268    13302    6                  CALL INDEX(K, AS_BLANK, PSEUDO_STRC.NAME );
      269    13303    6                  AS_FIELD1.COUNT = K;
      270    13304    6                  IF AS_WILD_USER THEN CALL ASB$FLUSH_ERR;
      271    13305                       %SCREAM( ERR#=E$PSEUDO_DOESNT_EXIST, LEVEL=ERROR, MID='C' );
      272    13320    6                  GOTO SKIP_IT ;
      273    13321    6                  END ; /* Then do */
      274    13322                                                              /**/
      275    13323    6               DO K = NAME_POS TO 6 ;
      276    13324    6                  AS_USERS.PSDOL.PSDO_NAME(K) =
      277    13325    6                       AS_USERS.PSDOL.PSDO_NAME(K+1) ;
      278    13326    6                  AS_USERS.PSDOL.BMAX(K) =
      279    13327    6                       AS_USERS.PSDOL.BMAX(K+1) ;
      280    13328    6                  AS_USERS.PSDOL.GMAX(K) =
      281    13329    6                       AS_USERS.PSDOL.GMAX(K+1) ;
      282    13330    6                  AS_USERS.PSDOL.OMAX(K) =
      283    13331    6                       AS_USERS.PSDOL.OMAX(K+1) ;
      284    13332    6                  AS_USERS.PSDOL.TMAX(K) =
      285    13333    6                       AS_USERS.PSDOL.TMAX(K+1) ;
      286    13334    6                  END ; /* Do k */
      287    13335                                                              /**/
      288    13336    5               AS_USERS.PSDOL.PSDO_NAME(7) = AS_BLANK ;
      289    13337    5               AS_USERS.PSDOL.BMAX(7) = 0 ;
      290    13338    5               AS_USERS.PSDOL.GMAX(7) = 0 ;
      291    13339    5               AS_USERS.PSDOL.OMAX(7) = 0 ;
      292    13340    5               AS_USERS.PSDOL.TMAX(7) = 0 ;
      293    13341    5               END;   /* If PSEUDO_STRC.TYPE = PSEUDO_REMOVE_VAL */
      294    13342                                                          /**/
      295    13343    5            ELSE DO;           /* PSEUDO_LIST_VAL */
      296    13344    5               IF NAME_POS > 7 AND BLANK_POS > 7
PL6.E3A0      #001=ASC$PSEUDO File=ASC$PSEUDO.:E05TSI                            TUE 07/29/97 09:39 Page:9
      297    13345    6               THEN DO;
      298    13346        /*E*  ERROR:    ASC-E$TOO_MANY_PSEUDOS-C
      299    13347              MESSAGE:  Too many PSEUDO names defined.
      300    13348              MESSAGE1: At most 8 PSEUDO names can be defined.
      301    13349        */
      302    13350    6                  IF AS_WILD_USER THEN CALL ASB$FLUSH_ERR;
      303    13351                       %SCREAM( ERR#=E$TOO_MANY_PSEUDOS, LEVEL=ERROR, MID='C' );
      304    13366    6                  GOTO SKIP_IT;
      305    13367    6                  END ; /* Then do */
      306    13368    5               IF NAME_POS < 8
      307    13369    5               THEN
      308    13370    5                  J = NAME_POS ;
      309    13371    6               ELSE DO;
      310    13372    6                  J = BLANK_POS ;
      311    13373    6                  AS_USERS.PSDOL.PSDO_NAME(J) = PSEUDO_STRC.NAME ;
      312    13374    6                  END ; /* Then do */
      313    13375    5               PSDO$ = ADDR( AS_USERS.PSDOL.BMAX(J)) ;
      314    13376    6               DO K = 0 TO 3;
      315    13377    6                  IF PSEUDO_STRC.VAL(K) > -1 THEN
      316    13378    6                     PSDO$STRC(K) = PSEUDO_STRC.VAL(K);
      317    13379    6                  END ; /* Do k */
      318    13380    5               END ;
      319    13381    5            IF NOT MOD_FLG AND AS_WILD_USER THEN DO;
      320    13382    5               PSEUDO$LIST.PSEUDO(PSEUDO$LIST.COUNT) = PSEUDO_STRC;
      321    13383    5               PSEUDO$LIST.COUNT = PSEUDO$LIST.COUNT + 1;
      322    13384    5               END;
      323    13385    4   SKIP_IT: ;
      324    13386    4            END ; /* Do case( code ) */
      325    13387    3         END ; /* Do i */
      326    13388    2      END ; /* Do while( more ) */
      327    13389                                                              /**/
      328    13390    1   RETURN;
      329    13391
      330    13392    1   PSEUDO_ERR: ;
      331    13393    1   ERR_CODE = P_PCB.ERROR ;
      332    13394    1   CALL ASH$ERROR( ERR_CODE ) ;
      333    13395    1   GOTO PSEUDO_LOOP;
PL6.E3A0      #001=ASC$PSEUDO File=ASC$PSEUDO.:E05TSI                            TUE 07/29/97 09:39 Page:10
      334    13396                                                              /**/
      335    13397    1   END   ASC$PSEUDO ;
      336    13398        %EOD ;

PL6.E3A0      #001=ASC$PSEUDO File=ASC$PSEUDO.:E05TSI                            TUE 07/29/97 09:39 Page:11
--  Include file information  --

   AS_SUPER_R.:E05TOU  cannot be made into a system file and is referenced.
   CP_6.:E05TOU  cannot be made into a system file and is referenced.
   B_MACROS_C.:E05TOU  is referenced.
   XU_FORMAT_C.:E05TOU  is referenced.
   XU_MACRO_C.:E05TOU  is referenced.
   KL_SUPER_C.:E05TOU  is referenced.
   AS_PERR_C.:E05TOU  is referenced.
   AS_MAC_C.:E05TOU  cannot be made into a system file and is referenced.
   AS_SUBS_C.:E05TOU  is referenced.
   AS_SUPER_C.:E05TOU  is referenced.
   AS_ENTRIES_M.:E05TOU  is referenced.
   B$JIT_C.:E05TOU  was found in the system file and is never referenced.
   CP_6_C.:E05TOU  was found in the system file and is referenced.
      No diagnostics issued in procedure ASC$PSEUDO.

   Procedure ASC$PSEUDO requires 411 words for executable code.
   Procedure ASC$PSEUDO requires 32 words of local(AUTO) storage.

PL6.E3A0      #001=ASC$PSEUDO File=ASC$PSEUDO.:E05TSI                            TUE 07/29/97 09:39 Page:12

 Object Unit name= ASC$PSEUDO                                 File name= ASC$PSEUDO.:E05TOU
 UTS= JUL 29 '97 09:39:28.68 TUE                              Compiler= PL-6/E31         Sev=      00
 SharedLib= :SHARED_SYSTEM                                    Alt SharedLib=


    ****  Control sections  ****

 Sect   Type Bound  Init  Size OctSiz  Section name(segment info)
    0   DCB   even  none     0      0  M$UC
    1   DCB   even  none     0      0  M$LO
    2  RoData even  UTS      4      4  ASC$PSEUDO
    3   Proc  even  none   411    633  ASC$PSEUDO
    4  RoData even  none    10     12  ASC$PSEUDO

    ****  Entry defs  ****

                              Check   Calling
                             calling  sequence
  Sect OctLoc Primary Altret sequence   type   Parms  Name
     3      0   yes            yes      Std        1  ASC$PSEUDO
PL6.E3A0      #001=ASC$PSEUDO File=ASC$PSEUDO.:E05TSI                            TUE 07/29/97 09:39 Page:13

  ****  Entry refs  ****

         Check        Calling
        calling       sequence
Altret sequence SRef   type   Args  Name
         yes          ~proc      0 XU_OUTPUT_OPTIONS
         yes           Std       2 ASB$READ_SI
 yes     yes           Std       3 ASB$SET_PROMPT
         yes           Std       0 ASH$HELP
         yes           Std       0 ASH$QUEST
         yes           Std       2 ASH$ERROR
         yes           Std       0 ASB$FLUSH_ERR
 yes     yes           Std       1 X$PARSE
         yes           Std       0 ASH$DQUEST
                       nStd      0 X66_AUTO_1
                       nStd      0 X66_ARET
                       Std       0 B_CONSPOOL_D

  ****  Data refs  ****

  Flags:  r = read only, s = secondary
Flgs Name                             Flgs Name                             Flgs Name
     M$UC                             r    AS_BLANK                         r    AS_TRUE
r    AS_FALSE                         r    AS_MODE                          r    AS_FE_MODE
     M$LO                                  IN_BUF                                NODE$
     CODE                                  ERR_CODE                              AS_FIELD1
     REMEM_VAR                             REM_FCMD                              ASA_BRKS_LOC
     AS_WILD_USER                          AS_PSEUDO_LIST$                       P_PCB
     AS_USERS                              AS_MOD_USER                           PSEUDO_SUB
     B_VECTNIL

  ****  Segment refs  ****

  Flags:  r = read only, s = secondary
Flgs Name                             Flgs Name                             Flgs Name
     ISSID
PL6.E3A0      #001=ASC$PSEUDO File=ASC$PSEUDO.:E05TSI                            TUE 07/29/97 09:39 Page:14


        1        1        /*M* ASC$PSEUDO: Processes PSEUDO and FEPSEUDO options. */
        2        2        /*T***********************************************************/
        3        3        /*T*                                                         */
        4        4        /*T* Copyright (c) Bull HN Information Systems Inc., 1997    */
        5        5        /*T*                                                         */
        6        6        /*T***********************************************************/
        7        7        /*X*  DMC,DMR,CCC,PLM=0,IND=3,CTI=5,DCI=6,IAD=0,DTI=0,IDT=0,ENI=3,
        8        8              ECU=3,CSU=3,SDI=3                                           */
        9        9                                                              /**/
       10       10        /*  ASC$PSEUDO - this module consists of procedures:
       11       11                         ASC$PSEUDO
       12       12                         ASC$FEPSEUDO
       13       13        */
       14       14        /********************************************************************/
       15       15        /*                                                                   */
       16       16        /*                   ASC$PSEUDO          proc                        */
       17       17        /*                                                                   */
       18       18        /*********************************************************************/
       19       19                                                              /**/
       20       20        ASC$PSEUDO: PROC ( MOD_FLG );

     20  3 000000   000000 700200 xent  ASC$PSEUDO   TSX0  ! X66_AUTO_1
         3 000001   000040 000001                    ZERO    32,1

       21       21                                                              /**/
       22       22
       23       23        /*********************************************************************/
       24       24        /*    Parameters      parameters      parameters      parameters     */
       25       25        /*********************************************************************/
       26       26
       27       27    1   DCL MOD_FLG BIT(1) ALIGNED;
       28       28
       29       29        /********************************************************************/
       30       30        /*   Include files   include files   include files   include files   */
       31       31        /*********************************************************************/
       32       32                                                              /**/
PL6.E3A0      #001=ASC$PSEUDO File=ASC$PSEUDO.:E05TSI                            TUE 07/29/97 09:39 Page:15
       33       33        %INCLUDE      AS_ENTRIES_M;
       34     1083        %INCLUDE      AS_SUPER_C ;
       35     1518        %INCLUDE      AS_SUBS_C ;
       36     2932        %INCLUDE      AS_MAC_C ;
       37     3012        %INCLUDE      AS_PERR_C;
       38     3614        %INCLUDE      KL_SUPER_C ;
       39     6516        %INCLUDE      XU_MACRO_C ;
       40     9622        %INCLUDE      XU_FORMAT_C ;
       41     9784        %INCLUDE      B_MACROS_C ;
       42     9895        %INCLUDE      CP_6 ;
       43     9976        %INCLUDE      AS_SUPER_R ;
       44    12992                                                              /**/
       45    12993
       46    12994        /********************************************************************/
       47    12995        /*   Local based     local based     local based     local based     */
       48    12996        /*********************************************************************/
       49    12997                                                              /**/
       50    12998            %PARSE$OUT( NAME=P$NODE, STCLASS="BASED(NODE$)",
       51    12999                        NDTYPE=TYPE, NSUBLKS=SUBNODES) ;
       52    13044                                                              /**/
       53    13045    1   DCL PSDO$STRC(0:3) UBIN HALF HALIGNED BASED( PSDO$ ) ;
       54    13046    1   DCL 1 PSEUDO$LIST ALIGNED BASED( AS_PSEUDO_LIST$ ),
       55    13047    1          2 COUNT UBIN,
       56    13048    1          2 PSEUDO(0:0),
       57    13049    1             3 NAME CHAR(8),
       58    13050    1             3 BMAX SBIN HALF UNAL,
       59    13051    1             3 GMAX SBIN HALF UNAL,
       60    13052    1             3 OMAX SBIN HALF UNAL,
       61    13053    1             3 TMAX SBIN HALF UNAL,
       62    13054    1             3 TYPE UBIN HALF UNAL;
       63    13055
       64    13056        /********************************************************************/
       65    13057        /*   Entry dcls      entry dcls      entry dcls      entry dcls      */
       66    13058        /*********************************************************************/
       67    13059                                                              /**/
       68    13060    1   DCL X$PARSE ENTRY(1) ALTRET ;
       69    13061        %ASB$READ_SI ;
PL6.E3A0      #001=ASC$PSEUDO File=ASC$PSEUDO.:E05TSI                            TUE 07/29/97 09:39 Page:16
       70    13064        %ASB$SET_PROMPT ;
       71    13067        %ASH$HELP ;
       72    13070        %ASH$DQUEST ;
       73    13073        %ASH$QUEST ;
       74    13076        %ASH$ERROR ;
       75    13079        %ASB$FLUSH_ERR ;
       76    13082                                                              /**/
       77    13083
       78    13084        /*********************************************************************/
       79    13085        /*   Symrefs         symrefs         symrefs         symrefs         */
       80    13086        /*********************************************************************/
       81    13087                                                              /**/
       82    13088    1   DCL PSEUDO_SUB UBIN WORD SYMREF ;
       83    13089
       84    13090        /*********************************************************************/
       85    13091        /*   Auto data       auto data       auto data       auto data       */
       86    13092        /*********************************************************************/
       87    13093                                                              /**/
       88    13094    1   DCL PTR$ PTR ;
       89    13095    1   DCL PTR2$ PTR ;
       90    13096    1   DCL 1 VARY$STR BASED( PTR$ ) ALIGNED ,
       91    13097    1          2 CNT UBIN BYTE UNAL ,
       92    13098    1          2 TXT CHAR( VARY$STR.CNT ) UNAL ;
       93    13099    1   DCL I UBIN WORD ;
       94    13100    1   DCL J UBIN WORD ;
       95    13101    1   DCL K UBIN WORD ;
       96    13102    1   DCL CNT UBIN WORD ;
       97    13103    1   DCL NAME_POS UBIN WORD ;
       98    13104    1   DCL BLANK_POS UBIN WORD ;
       99    13105    1   DCL MODE UBIN WORD ;
      100    13106    1   DCL VAL UBIN WORD ;
      101    13107    1   DCL PSDO$ PTR ;
      102    13108    1   DCL SUBS UBIN WORD ;
      103    13109    1   DCL SUBNODES UBIN WORD ;
      104    13110    1   DCL CODE2 UBIN WORD ;
      105    13111    1   DCL ARS UBIN WORD ;
      106    13112    1   DCL MORE BIT(1) ;
PL6.E3A0      #001=ASC$PSEUDO File=ASC$PSEUDO.:E05TSI                            TUE 07/29/97 09:39 Page:17
      107    13113    1   DCL WORK$ PTR ;
      108    13114    1   DCL ROOT$ PTR ;
      109    13115    1   DCL WKSZ UBIN WORD ;
      110    13116    1   DCL WK_USED UBIN WORD ;
      111    13117    1   DCL T_NODE$ PTR ;
      112    13118    1   DCL 1 PSEUDO_STRC ALIGNED,
      113    13119    1          2 NAME CHAR(8) UNAL,
      114    13120    1          2 VAL(0:3) SBIN HALF UNAL,
      115    13121    1          2 TYPE UBIN HALF UNAL;
      116    13122
      117    13123        /********************************************************************/
      118    13124        /*   Static data     static data     static data     static data     */
      119    13125        /*********************************************************************/
      120    13126                                                              /**/
      121    13127
      122    13128        /********************************************************************/
      123    13129        /*   Procedure       procedure       procedure       procedure       */
      124    13130        /*********************************************************************/
      125    13131                                                              /**/
      126    13132        /*
      127    13133            ***            Begin procedure                    ***
      128    13134        */
      129    13135    2   IF MOD_FLG THEN DO;

  13135  3 000002   200003 470500                    LDP0    @MOD_FLG,,AUTO
         3 000003   000000 234100                    SZN     0,,PR0
         3 000004   000011 605000 3                  TPL     s:13140

      130    13136    2      IF PSEUDO$LIST.COUNT = 0 THEN RETURN;

  13136  3 000005   000000 471400 xsym               LDP1    AS_PSEUDO_LIST$
         3 000006   100000 235100                    LDA     0,,PR1
         3 000007   000054 601000 3                  TNZ     s:13157

  13136  3 000010   000000 702200 xent               TSX2  ! X66_ARET

      131    13137    2      END;
PL6.E3A0      #001=ASC$PSEUDO File=ASC$PSEUDO.:E05TSI                            TUE 07/29/97 09:39 Page:18
      132    13138    2   ELSE DO;

      133    13139                                                              /* Save some of P_PCB. */
      134    13140    2      WORK$ = P_PCB.WORK$ ;

  13140  3 000011   000002 236000 xsym               LDQ     P_PCB+2
         3 000012   200024 756100                    STQ     WORK$,,AUTO

      135    13141    2      WKSZ = P_PCB.WKSZ ;

  13141  3 000013   000005 235000 xsym               LDA     P_PCB+5
         3 000014   000022 771000                    ARL     18
         3 000015   200026 755100                    STA     WKSZ,,AUTO

      136    13142    2      WK_USED = P_PCB.WK_USED ;

  13142  3 000016   000010 235000 xsym               LDA     P_PCB+8
         3 000017   000022 771000                    ARL     18
         3 000020   200027 755100                    STA     WK_USED,,AUTO

      137    13143    2      ROOT$ = P_PCB.ROOT$ ;

  13143  3 000021   000001 236000 xsym               LDQ     P_PCB+1
         3 000022   200025 756100                    STQ     ROOT$,,AUTO

      138    13144                                                                 /* Bump past area used. */
      139    13145    2      P_PCB.WORK$ = PINCRW( WORK$, P_PCB.WK_USED ) ;

  13145  3 000023   000010 236000 xsym               LDQ     P_PCB+8
         3 000024   777777 376003                    ANQ     -1,DU
         3 000025   200024 036100                    ADLQ    WORK$,,AUTO
         3 000026   000002 756000 xsym               STQ     P_PCB+2

      140    13146    2      P_PCB.WKSZ = WKSZ - P_PCB.WK_USED ;

  13146  3 000027   200036 755100                    STA     PSEUDO_STRC+5,,AUTO
         3 000030   200026 236100                    LDQ     WKSZ,,AUTO
PL6.E3A0      #001=ASC$PSEUDO File=ASC$PSEUDO.:E05TSI                            TUE 07/29/97 09:39 Page:19
         3 000031   200036 136100                    SBLQ    PSEUDO_STRC+5,,AUTO
         3 000032   000000 620006                    EAX0    0,QL
         3 000033   000005 740000 xsym               STX0    P_PCB+5

      141    13147                                                                  /* Save NODE$ */
      142    13148    2      T_NODE$ = NODE$ ;

  13148  3 000034   000000 236000 xsym               LDQ     NODE$
         3 000035   200030 756100                    STQ     T_NODE$,,AUTO

      143    13149                                                                  /* Set ROOT$ */
      144    13150    2      P_PCB.ROOT$ = ADDR(PSEUDO_SUB) ;

  13150  3 000036   000000 236000 4                  LDQ     0
         3 000037   000001 756000 xsym               STQ     P_PCB+1

      145    13151    2      REMEMBER PSEUDO_LOOP IN REMEM_VAR ;

  13151  3 000040   000061 635000 3                  EAA     PSEUDO_LOOP
         3 000041   000000 452400 xsym               STP2    REMEM_VAR
         3 000042   000001 755000 xsym               STA     REMEM_VAR+1

      146    13152                                                                  /*  Set prompt  */
      147    13153    2      CALL ASB$SET_PROMPT ( %PROMPT_SUB ) ;

  13153  3 000043   000001 630400 4                  EPPR0   1
         3 000044   000017 631400 xsym               EPPR1   B_VECTNIL+15
         3 000045   000000 701000 xent               TSX1    ASB$SET_PROMPT
         3 000046   000000 011000                    NOP     0

      148    13154    2      AS_MOD_USER.PSEUDO = AS_TRUE;

  13154  3 000047   000000 236000 xsym               LDQ     AS_TRUE
         3 000050   000011 772000                    QRL     9
         3 000051   000024 676000 xsym               ERQ     AS_MOD_USER+20
         3 000052   000400 376003                    ANQ     256,DU
         3 000053   000024 656000 xsym               ERSQ    AS_MOD_USER+20
PL6.E3A0      #001=ASC$PSEUDO File=ASC$PSEUDO.:E05TSI                            TUE 07/29/97 09:39 Page:20

      149    13155    2      END;

      150    13156
      151    13157    1   MORE = AS_TRUE;

  13157  3 000054   000000 236000 xsym               LDQ     AS_TRUE
         3 000055   400000 376003                    ANQ     -131072,DU
         3 000056   200023 756100                    STQ     MORE,,AUTO

      152    13158    2   DO WHILE (MORE) ;

  13158  3 000057   200023 234100                    SZN     MORE,,AUTO
         3 000060   000623 605000 3                  TPL     s:13390

      153    13159    2   PSEUDO_LOOP:
      154    13160    3      IF MOD_FLG THEN DO;

  13160  3 000061   200003 470500       PSEUDO_LOOP  LDP0    @MOD_FLG,,AUTO
         3 000062   000000 234100                    SZN     0,,PR0
         3 000063   000075 605000 3                  TPL     s:13166

      155    13161    3         CODE = PSEUDO_SOPT_VAL;

  13161  3 000064   000041 235007                    LDA     33,DL
         3 000065   000000 755000 xsym               STA     CODE

      156    13162    3         SUBNODES = PSEUDO$LIST.COUNT;

  13162  3 000066   000000 471400 xsym               LDP1    AS_PSEUDO_LIST$
         3 000067   100000 235100                    LDA     0,,PR1
         3 000070   200020 755100                    STA     SUBNODES,,AUTO

      157    13163    3         MORE = AS_FALSE;

  13163  3 000071   000000 236000 xsym               LDQ     AS_FALSE
         3 000072   400000 376003                    ANQ     -131072,DU
PL6.E3A0      #001=ASC$PSEUDO File=ASC$PSEUDO.:E05TSI                            TUE 07/29/97 09:39 Page:21
         3 000073   200023 756100                    STQ     MORE,,AUTO

      158    13164    3         END;

  13164  3 000074   000121 710000 3                  TRA     s:13172

      159    13165    3      ELSE DO;

      160    13166    3         CALL ASB$READ_SI(IN_BUF,ARS) ;         /* Read option line */

  13166  3 000075   200022 631500                    EPPR1   ARS,,AUTO
         3 000076   200037 451500                    STP1    PSEUDO_STRC+6,,AUTO
         3 000077   000002 236000 4                  LDQ     2
         3 000100   200036 756100                    STQ     PSEUDO_STRC+5,,AUTO
         3 000101   200036 630500                    EPPR0   PSEUDO_STRC+5,,AUTO
         3 000102   000020 631400 xsym               EPPR1   B_VECTNIL+16
         3 000103   000000 701000 xent               TSX1    ASB$READ_SI
         3 000104   000000 011000                    NOP     0

      161    13167    3         P_PCB.NCHARS = ARS ;

  13167  3 000105   200022 235100                    LDA     ARS,,AUTO
         3 000106   000011 755000 xsym               STA     P_PCB+9

      162    13168    3         CALL X$PARSE(P_PCB) ALTRET (PSEUDO_ERR) ;

  13168  3 000107   000003 630400 4                  EPPR0   3
         3 000110   000017 631400 xsym               EPPR1   B_VECTNIL+15
         3 000111   000000 701000 xent               TSX1    X$PARSE
         3 000112   000624 702000 3                  TSX2    PSEUDO_ERR

      163    13169    3         NODE$ = P_PCB.OUT$ ;

  13169  3 000113   000003 236000 xsym               LDQ     P_PCB+3
         3 000114   000000 756000 xsym               STQ     NODE$

      164    13170    3         SUBNODES = P$NODE.SUBNODES ;
PL6.E3A0      #001=ASC$PSEUDO File=ASC$PSEUDO.:E05TSI                            TUE 07/29/97 09:39 Page:22

  13170  3 000115   000000 470400 xsym               LDP0    NODE$
         3 000116   000001 236100                    LDQ     1,,PR0
         3 000117   000022 772000                    QRL     18
         3 000120   200020 756100                    STQ     SUBNODES,,AUTO

      165    13171    3         END;

      166    13172    3      DO I = 0 TO SUBNODES - 1 ;

  13172  3 000121   200006 450100                    STZ     I,,AUTO
         3 000122   000616 710000 3                  TRA     SKIP_IT+3

      167    13173    3         IF MOD_FLG THEN

  13173  3 000123   200003 470500                    LDP0    @MOD_FLG,,AUTO
         3 000124   000000 234100                    SZN     0,,PR0
         3 000125   000135 605000 3                  TPL     s:13176

      168    13174    3            PSEUDO_STRC = PSEUDO$LIST.PSEUDO(I);

  13174  3 000126   200006 236100                    LDQ     I,,AUTO
         3 000127   000022 402007                    MPY     18,DL
         3 000130   000000 471400 xsym               LDP1    AS_PSEUDO_LIST$
         3 000131   000100 100506                    MLR     fill='000'O
         3 000132   100001 000022                    ADSC9   1,Q,PR1                  cn=0,n=18
         3 000133   200031 000022                    ADSC9   PSEUDO_STRC,,AUTO        cn=0,n=18
         3 000134   000143 710000 3                  TRA     s:13177

      169    13175    3         ELSE
      170    13176    3            CODE = P$NODE.SUBLK$(I) -> P$NODE.CODE ;

  13176  3 000135   000000 471400 xsym               LDP1    NODE$
         3 000136   200006 720100                    LXL0    I,,AUTO
         3 000137   100003 473510                    LDP3    3,X0,PR1
         3 000140   300000 236100                    LDQ     0,,PR3
         3 000141   777777 376007                    ANQ     -1,DL
PL6.E3A0      #001=ASC$PSEUDO File=ASC$PSEUDO.:E05TSI                            TUE 07/29/97 09:39 Page:23
         3 000142   000000 756000 xsym               STQ     CODE

      171    13177    4         DO SELECT( CODE ) ;

  13177  3 000143   000000 236000 xsym               LDQ     CODE
         3 000144   000032 116007                    CMPQ    26,DL
         3 000145   000164 602000 3                  TNC     s:13177+17
         3 000146   000172 600000 3                  TZE     s:13181
         3 000147   000455 116007                    CMPQ    301,DL
         3 000150   000155 602000 3                  TNC     s:13177+10
         3 000151   000212 600000 3                  TZE     s:13195
         3 000152   000456 116007                    CMPQ    302,DL
         3 000153   000613 601000 3                  TNZ     SKIP_IT
         3 000154   000206 710000 3                  TRA     s:13192
         3 000155   000454 116007                    CMPQ    300,DL
         3 000156   000161 602000 3                  TNC     s:13177+14
         3 000157   000216 600000 3                  TZE     s:13198
         3 000160   000613 710000 3                  TRA     SKIP_IT
         3 000161   000041 116007                    CMPQ    33,DL
         3 000162   000613 601000 3                  TNZ     SKIP_IT
         3 000163   000223 710000 3                  TRA     s:13203
         3 000164   000014 116007                    CMPQ    12,DL
         3 000165   000613 602000 3                  TNC     SKIP_IT
         3 000166   000172 600000 3                  TZE     s:13181
         3 000167   000020 116007                    CMPQ    16,DL
         3 000170   000613 601000 3                  TNZ     SKIP_IT
         3 000171   000222 710000 3                  TRA     s:13200

      172    13178                                                              /**/
      173    13179    4            SELECT( END_VAL ,

      174    13180    4                 BLANK_LINE_VAL ) ;
      175    13181    4            ERR_CODE = '0'B ;

  13181  3 000172   000000 450000 xsym               STZ     ERR_CODE

      176    13182                                                              /* Restore P_PCB */
PL6.E3A0      #001=ASC$PSEUDO File=ASC$PSEUDO.:E05TSI                            TUE 07/29/97 09:39 Page:24
      177    13183    4            P_PCB.WORK$ = WORK$ ;

  13183  3 000173   200024 236100                    LDQ     WORK$,,AUTO
         3 000174   000002 756000 xsym               STQ     P_PCB+2

      178    13184    4            P_PCB.WKSZ = WKSZ ;

  13184  3 000175   200026 720100                    LXL0    WKSZ,,AUTO
         3 000176   000005 740000 xsym               STX0    P_PCB+5

      179    13185    4            P_PCB.WK_USED = WK_USED ;

  13185  3 000177   200027 721100                    LXL1    WK_USED,,AUTO
         3 000200   000010 741000 xsym               STX1    P_PCB+8

      180    13186    4            P_PCB.ROOT$ = ROOT$ ;

  13186  3 000201   200025 236100                    LDQ     ROOT$,,AUTO
         3 000202   000001 756000 xsym               STQ     P_PCB+1

      181    13187                                                              /* Restore NODE$ */
      182    13188    4            NODE$ = T_NODE$ ;

  13188  3 000203   200030 236100                    LDQ     T_NODE$,,AUTO
         3 000204   000000 756000 xsym               STQ     NODE$

      183    13189    4            RETURN ;

  13189  3 000205   000000 702200 xent               TSX2  ! X66_ARET

      184    13190                                                              /**/
      185    13191    4            SELECT( HELP_VAL ) ;

      186    13192    4            CALL ASH$HELP ;

  13192  3 000206   000002 631400 xsym               EPPR1   B_VECTNIL+2
         3 000207   000000 701000 xent               TSX1    ASH$HELP
PL6.E3A0      #001=ASC$PSEUDO File=ASC$PSEUDO.:E05TSI                            TUE 07/29/97 09:39 Page:25
         3 000210   000000 011000                    NOP     0
         3 000211   000613 710000 3                  TRA     SKIP_IT

      187    13193                                                                  /**/
      188    13194    4            SELECT( QUESTION_VAL ) ;

      189    13195    4            CALL ASH$QUEST ;

  13195  3 000212   000002 631400 xsym               EPPR1   B_VECTNIL+2
         3 000213   000000 701000 xent               TSX1    ASH$QUEST
         3 000214   000000 011000                    NOP     0
         3 000215   000613 710000 3                  TRA     SKIP_IT

      190    13196                                                                  /**/
      191    13197    4            SELECT( DQUESTION_VAL ) ;

      192    13198    4            CALL ASH$DQUEST ;

  13198  3 000216   000002 631400 xsym               EPPR1   B_VECTNIL+2
         3 000217   000000 701000 xent               TSX1    ASH$DQUEST
         3 000220   000000 011000                    NOP     0
         3 000221   000613 710000 3                  TRA     SKIP_IT

      193    13199                                                                  /**/
      194    13200    4            SELECT( EOL_VAL ) ;

  13200  3 000222   000613 710000 3                  TRA     SKIP_IT

      195    13201                                                              /**/
      196    13202    4            SELECT( PSEUDO_SOPT_VAL ) ;

      197    13203    5            IF NOT MOD_FLG THEN DO;

  13203  3 000223   000000 234100                    SZN     0,,PR0
         3 000224   000355 604000 3                  TMI     s:13275

      198    13204    5               PTR$ = P$NODE.SUBLK$(I) -> P$NODE.SUBLK$(0)
PL6.E3A0      #001=ASC$PSEUDO File=ASC$PSEUDO.:E05TSI                            TUE 07/29/97 09:39 Page:26

  13204  3 000225   000000 471400 xsym               LDP1    NODE$
         3 000226   200006 720100                    LXL0    I,,AUTO
         3 000227   100003 473510                    LDP3    3,X0,PR1
         3 000230   300003 474500                    LDP4    3,,PR3
         3 000231   400003 475500                    LDP5    3,,PR4
         3 000232   500003 236100                    LDQ     3,,PR5
         3 000233   200004 756100                    STQ     PTR$,,AUTO

      199    13205    5                    -> P$NODE.SUBLK$(0) -> P$NODE.SUBLK$(0) ;
      200    13206    5               PTR2$ = P$NODE.SUBLK$(I) -> P$NODE.SUBLK$( 1 ) ;

  13206  3 000234   300004 236100                    LDQ     4,,PR3
         3 000235   200005 756100                    STQ     PTR2$,,AUTO

      201    13207    5               PSEUDO_STRC.TYPE = PTR2$ -> P$NODE.CODE ;

  13207  3 000236   200005 476500                    LDP6    PTR2$,,AUTO
         3 000237   600000 721100                    LXL1    0,,PR6
         3 000240   200035 741100                    STX1    PSEUDO_STRC+4,,AUTO

      202    13208    5               IF VARY$STR.CNT > 8

  13208  3 000241   200004 477500                    LDP7    PTR$,,AUTO
         3 000242   700000 236100                    LDQ     0,,PR7
         3 000243   777000 376003                    ANQ     -512,DU
         3 000244   011000 116003                    CMPQ    4608,DU
         3 000245   000253 602000 3                  TNC     s:13231

      203    13209    6               THEN DO;

      204    13210        /*E*  ERROR:     ASC-E$PSEUDO_NAME_TOO_LONG-C
      205    13211              MESSAGE:  PSEUDO name too long.
      206    13212              MESSAGE1: PSEUDO names can be at most 8 characters long.
      207    13213        */
      208    13214                       %SCREAM( ERR#=E$PSEUDO_NAME_TOO_LONG, LEVEL=ERROR, MID='C' );

PL6.E3A0      #001=ASC$PSEUDO File=ASC$PSEUDO.:E05TSI                            TUE 07/29/97 09:39 Page:27
  13226  3 000246   000004 630400 4                  EPPR0   4
         3 000247   000017 631400 xsym               EPPR1   B_VECTNIL+15
         3 000250   000000 701000 xent               TSX1    ASH$ERROR
         3 000251   000000 011000                    NOP     0

      209    13229    6                  GOTO SKIP_IT;

  13229  3 000252   000613 710000 3                  TRA     SKIP_IT

      210    13230    6                  END ;   /*  Then do  */
      211    13231    5               PSEUDO_STRC.NAME = VARY$STR.TXT;

  13231  3 000253   700000 236100                    LDQ     0,,PR7
         3 000254   000033 772000                    QRL     27
         3 000255   000000 622006                    EAX2    0,QL
         3 000256   040100 100540                    MLR     fill='040'O
         3 000257   700000 200012                    ADSC9   0,,PR7                   cn=1,n=*X2
         3 000260   200031 000010                    ADSC9   PSEUDO_STRC,,AUTO        cn=0,n=8

      212    13232    6               DO J = 0 TO 3;

  13232  3 000261   200007 450100                    STZ     J,,AUTO

      213    13233    6                  PSEUDO_STRC.VAL(J) = -1;

  13233  3 000262   200007 235100                    LDA     J,,AUTO
         3 000263   000001 735000                    ALS     1
         3 000264   000105 101400                    MRL     fill='000'O
         3 000265   000027 000004 xsym               ADSC9   B_VECTNIL+23             cn=0,n=4
         3 000266   200033 000002                    ADSC9   PSEUDO_STRC+2,A,AUTO     cn=0,n=2

      214    13234    6                  END;

  13234  3 000267   200007 236100                    LDQ     J,,AUTO
         3 000270   000001 036007                    ADLQ    1,DL
         3 000271   200007 756100                    STQ     J,,AUTO
         3 000272   000004 116007                    CMPQ    4,DL
PL6.E3A0      #001=ASC$PSEUDO File=ASC$PSEUDO.:E05TSI                            TUE 07/29/97 09:39 Page:28
         3 000273   000262 602000 3                  TNC     s:13233

      215    13235    5               IF PSEUDO_STRC.TYPE = PSEUDO_LIST_VAL

  13235  3 000274   200035 220100                    LDX0    PSEUDO_STRC+4,,AUTO
         3 000275   000043 100003                    CMPX0   35,DU
         3 000276   000355 601000 3                  TNZ     s:13275

      216    13236    6               THEN DO;

      217    13237    6                  SUBS = PTR2$ -> P$NODE.SUBNODES ;

  13237  3 000277   200005 470500                    LDP0    PTR2$,,AUTO
         3 000300   000001 236100                    LDQ     1,,PR0
         3 000301   000022 772000                    QRL     18
         3 000302   200017 756100                    STQ     SUBS,,AUTO

      218    13238    7                  DO K = 0 TO SUBS-1 ;

  13238  3 000303   200010 450100                    STZ     K,,AUTO
         3 000304   000352 710000 3                  TRA     s:13270+3

      219    13239    7                     PTR$ = PTR2$ -> P$NODE.SUBLK$(K) ;

  13239  3 000305   200005 470500                    LDP0    PTR2$,,AUTO
         3 000306   200010 720100                    LXL0    K,,AUTO
         3 000307   000003 236110                    LDQ     3,X0,PR0
         3 000310   200004 756100                    STQ     PTR$,,AUTO

      220    13240    7                     MODE = PTR$ -> P$NODE.SUBLK$(0) -> P$NODE.CODE ;

  13240  3 000311   200004 471500                    LDP1    PTR$,,AUTO
         3 000312   100003 473500                    LDP3    3,,PR1
         3 000313   300000 236100                    LDQ     0,,PR3
         3 000314   777777 376007                    ANQ     -1,DL
         3 000315   200014 756100                    STQ     MODE,,AUTO

PL6.E3A0      #001=ASC$PSEUDO File=ASC$PSEUDO.:E05TSI                            TUE 07/29/97 09:39 Page:29
      221    13241    7                     PTR$ = PTR$ -> P$NODE.SUBLK$(1)

  13241  3 000316   100004 474500                    LDP4    4,,PR1
         3 000317   400003 475500                    LDP5    3,,PR4
         3 000320   500003 236100                    LDQ     3,,PR5
         3 000321   200004 756100                    STQ     PTR$,,AUTO

      222    13242    7                          -> P$NODE.SUBLK$(0)
      223    13243    7                          -> P$NODE.SUBLK$(0) ;
      224    13244    7                     CALL CHARBIN( VAL, VARY$STR.TXT ) ;

  13244  3 000322   200004 471500                    LDP1    PTR$,,AUTO
         3 000323   100000 236100                    LDQ     0,,PR1
         3 000324   000033 772000                    QRL     27
         3 000325   000000 621006                    EAX1    0,QL
         3 000326   000100 305540                    DTB
         3 000327   100000 230011                    NDSC9   0,,PR1                   cn=1,s=nosgn,sf=0,n=*X1
         3 000330   200036 000010                    NDSC9   PSEUDO_STRC+5,,AUTO      cn=0,s=lsgnf,sf=0,n=8
         3 000331   200037 235100                    LDA     PSEUDO_STRC+6,,AUTO
         3 000332   200015 755100                    STA     VAL,,AUTO

      225    13245    7                     IF VAL > 511

  13245  3 000333   001000 115007                    CMPA    512,DL
         3 000334   000342 602000 3                  TNC     s:13269

      226    13246    8                     THEN DO;

      227    13247        /*E*  ERROR:    ASC-E$PSEUDO_VAL_TOO_BIG-C
      228    13248              MESSAGE:  PSEUDO value too big.
      229    13249              MESSAGE1: PSEUDO value can be at most 511.
      230    13250        */
      231    13251                             %SCREAM( ERR#=E$PSEUDO_VAL_TOO_BIG, LEVEL=ERROR, MID='C' );

  13263  3 000335   000005 630400 4                  EPPR0   5
         3 000336   000017 631400 xsym               EPPR1   B_VECTNIL+15
         3 000337   000000 701000 xent               TSX1    ASH$ERROR
PL6.E3A0      #001=ASC$PSEUDO File=ASC$PSEUDO.:E05TSI                            TUE 07/29/97 09:39 Page:30
         3 000340   000000 011000                    NOP     0

      232    13266    8                        GOTO SKIP_IT;

  13266  3 000341   000613 710000 3                  TRA     SKIP_IT

      233    13267    8                        END ;        /* Then do */
      234    13268    7                     ELSE                    /* Set value */
      235    13269    7                        PSEUDO_STRC.VAL(MODE) = VAL;

  13269  3 000342   200014 236100                    LDQ     MODE,,AUTO
         3 000343   000001 736000                    QLS     1
         3 000344   000106 101500                    MRL     fill='000'O
         3 000345   200015 000004                    ADSC9   VAL,,AUTO                cn=0,n=4
         3 000346   200033 000002                    ADSC9   PSEUDO_STRC+2,Q,AUTO     cn=0,n=2

      236    13270    7                     END;  /* Do K=0 to SUBS-1 */

  13270  3 000347   200010 235100                    LDA     K,,AUTO
         3 000350   000001 035007                    ADLA    1,DL
         3 000351   200010 755100                    STA     K,,AUTO
         3 000352   200010 236100                    LDQ     K,,AUTO
         3 000353   200017 116100                    CMPQ    SUBS,,AUTO
         3 000354   000305 602000 3                  TNC     s:13239

      237    13271    6                  END;   /* Do case( CODE2 ) */

      238    13272    5               END;     /* If not MOD_FLG then do */

      239    13273                                                              /* Find name and
      240    13274                                                                 1ST. Blank    */
      241    13275    4            NAME_POS = 8 ;              /*  Set past range  */

  13275  3 000355   000010 235007                    LDA     8,DL
         3 000356   200012 755100                    STA     NAME_POS,,AUTO

      242    13276    4            BLANK_POS = 8 ;
PL6.E3A0      #001=ASC$PSEUDO File=ASC$PSEUDO.:E05TSI                            TUE 07/29/97 09:39 Page:31

  13276  3 000357   200013 755100                    STA     BLANK_POS,,AUTO

      243    13277    5            DO K = 0 TO 7 ;

  13277  3 000360   200010 450100                    STZ     K,,AUTO

      244    13278    5               IF AS_USERS.PSDOL.PSDO_NAME(K) = PSEUDO_STRC.NAME

  13278  3 000361   200010 235100                    LDA     K,,AUTO
         3 000362   000004 735000                    ALS     4
         3 000363   040100 106405                    CMPC    fill='040'O
         3 000364   000265 000010 xsym               ADSC9   AS_USERS+181,A           cn=0,n=8
         3 000365   200031 000010                    ADSC9   PSEUDO_STRC,,AUTO        cn=0,n=8
         3 000366   000372 601000 3                  TNZ     s:13282

      245    13279    5               THEN
      246    13280    5                  NAME_POS = K ;  /* Found name */

  13280  3 000367   200010 236100                    LDQ     K,,AUTO
         3 000370   200012 756100                    STQ     NAME_POS,,AUTO
         3 000371   000403 710000 3                  TRA     s:13287

      247    13281    5               ELSE
      248    13282    5                  IF AS_USERS.PSDOL.PSDO_NAME(K) = AS_BLANK

  13282  3 000372   040000 106405                    CMPC    fill='040'O
         3 000373   000265 000010 xsym               ADSC9   AS_USERS+181,A           cn=0,n=8
         3 000374   000000 000001 xsym               ADSC9   AS_BLANK                 cn=0,n=1
         3 000375   000403 601000 3                  TNZ     s:13287
         3 000376   200013 236100                    LDQ     BLANK_POS,,AUTO
         3 000377   000010 116007                    CMPQ    8,DL
         3 000400   000403 602000 3                  TNC     s:13287

      249    13283    5                       AND BLANK_POS > 7
      250    13284    5                  THEN
      251    13285                                                          /* Found 1ST blank */
PL6.E3A0      #001=ASC$PSEUDO File=ASC$PSEUDO.:E05TSI                            TUE 07/29/97 09:39 Page:32
      252    13286    5                     BLANK_POS = K ;

  13286  3 000401   200010 235100                    LDA     K,,AUTO
         3 000402   200013 755100                    STA     BLANK_POS,,AUTO

      253    13287    5               IF NAME_POS < 8 AND BLANK_POS < 8

  13287  3 000403   200012 235100                    LDA     NAME_POS,,AUTO
         3 000404   000010 115007                    CMPA    8,DL
         3 000405   000411 603000 3                  TRC     s:13290
         3 000406   200013 236100                    LDQ     BLANK_POS,,AUTO
         3 000407   000010 116007                    CMPQ    8,DL
         3 000410   000416 602000 3                  TNC     DONE_SEARCH

      254    13288    5               THEN
      255    13289    5                  GOTO DONE_SEARCH ;
      256    13290    5               END ; /* Do k */

  13290  3 000411   200010 236100                    LDQ     K,,AUTO
         3 000412   000001 036007                    ADLQ    1,DL
         3 000413   200010 756100                    STQ     K,,AUTO
         3 000414   000010 116007                    CMPQ    8,DL
         3 000415   000361 602000 3                  TNC     s:13278

  13287  3 000416                       DONE_SEARCH  null
      257    13291                                                              /**/
      258    13292    4   DONE_SEARCH: ;
      259    13293                                                              /**/
      260    13294    4            IF PSEUDO_STRC.TYPE = PSEUDO_REMOVE_VAL

  13294  3 000416   200035 220100                    LDX0    PSEUDO_STRC+4,,AUTO
         3 000417   000042 100003                    CMPX0   34,DU
         3 000420   000511 601000 3                  TNZ     s:13344

      261    13295    5            THEN DO;

      262    13296    5               IF NAME_POS = 8
PL6.E3A0      #001=ASC$PSEUDO File=ASC$PSEUDO.:E05TSI                            TUE 07/29/97 09:39 Page:33

  13296  3 000421   000010 115007                    CMPA    8,DL
         3 000422   000447 601000 3                  TNZ     s:13323

      263    13297    6               THEN DO;

      264    13298        /*E*  ERROR:    ASC-E$PSEUDO_DOESNT_EXIST-C
      265    13299              MESSAGE: PSEUDO %%U1 % does not exist.
      266    13300        */
      267    13301    6                  AS_FIELD1.TEXT = PSEUDO_STRC.NAME;

  13301  3 000423   040000 100500                    MLR     fill='040'O
         3 000424   200031 000010                    ADSC9   PSEUDO_STRC,,AUTO        cn=0,n=8
         3 000425   000000 200050 xsym               ADSC9   AS_FIELD1                cn=1,n=40

      268    13302    6                  CALL INDEX(K, AS_BLANK, PSEUDO_STRC.NAME );

  13302  3 000426   000000 124500                    SCM     mask='000'O
         3 000427   200031 000010                    ADSC9   PSEUDO_STRC,,AUTO        cn=0,n=8
         3 000430   000000 000001 xsym               ADSC9   AS_BLANK                 cn=0,n=1
         3 000431   200010 000100                    ARG     K,,AUTO

      269    13303    6                  AS_FIELD1.COUNT = K;

  13303  3 000432   200010 236100                    LDQ     K,,AUTO
         3 000433   000033 736000                    QLS     27
         3 000434   000000 552040 xsym               STBQ    AS_FIELD1,'40'O

      270    13304    6                  IF AS_WILD_USER THEN CALL ASB$FLUSH_ERR;

  13304  3 000435   000000 234000 xsym               SZN     AS_WILD_USER
         3 000436   000442 605000 3                  TPL     s:13317

  13304  3 000437   000002 631400 xsym               EPPR1   B_VECTNIL+2
         3 000440   000000 701000 xent               TSX1    ASB$FLUSH_ERR
         3 000441   000000 011000                    NOP     0

PL6.E3A0      #001=ASC$PSEUDO File=ASC$PSEUDO.:E05TSI                            TUE 07/29/97 09:39 Page:34
      271    13305                       %SCREAM( ERR#=E$PSEUDO_DOESNT_EXIST, LEVEL=ERROR, MID='C' );

  13317  3 000442   000006 630400 4                  EPPR0   6
         3 000443   000017 631400 xsym               EPPR1   B_VECTNIL+15
         3 000444   000000 701000 xent               TSX1    ASH$ERROR
         3 000445   000000 011000                    NOP     0

      272    13320    6                  GOTO SKIP_IT ;

  13320  3 000446   000613 710000 3                  TRA     SKIP_IT

      273    13321    6                  END ; /* Then do */
      274    13322                                                              /**/
      275    13323    6               DO K = NAME_POS TO 6 ;

  13323  3 000447   200010 755100                    STA     K,,AUTO
         3 000450   000476 710000 3                  TRA     s:13334+3

      276    13324    6                  AS_USERS.PSDOL.PSDO_NAME(K) =

  13324  3 000451   200010 235100                    LDA     K,,AUTO
         3 000452   000002 735000                    ALS     2
         3 000453   200010 236100                    LDQ     K,,AUTO
         3 000454   000004 736000                    QLS     4
         3 000455   000002 735000                    ALS     2
         3 000456   040005 100406                    MLR     fill='040'O
         3 000457   000271 000010 xsym               ADSC9   AS_USERS+185,Q           cn=0,n=8
         3 000460   000265 000010 xsym               ADSC9   AS_USERS+181,A           cn=0,n=8

      277    13325    6                       AS_USERS.PSDOL.PSDO_NAME(K+1) ;
      278    13326    6                  AS_USERS.PSDOL.BMAX(K) =

  13326  3 000461   200010 235100                    LDA     K,,AUTO
         3 000462   000002 735000                    ALS     2
         3 000463   000273 220005 xsym               LDX0    AS_USERS+187,AL
         3 000464   000267 740005 xsym               STX0    AS_USERS+183,AL

PL6.E3A0      #001=ASC$PSEUDO File=ASC$PSEUDO.:E05TSI                            TUE 07/29/97 09:39 Page:35
      279    13327    6                       AS_USERS.PSDOL.BMAX(K+1) ;
      280    13328    6                  AS_USERS.PSDOL.GMAX(K) =

  13328  3 000465   000273 721005 xsym               LXL1    AS_USERS+187,AL
         3 000466   000267 441005 xsym               SXL1    AS_USERS+183,AL

      281    13329    6                       AS_USERS.PSDOL.GMAX(K+1) ;
      282    13330    6                  AS_USERS.PSDOL.OMAX(K) =

  13330  3 000467   000274 220005 xsym               LDX0    AS_USERS+188,AL
         3 000470   000270 740005 xsym               STX0    AS_USERS+184,AL

      283    13331    6                       AS_USERS.PSDOL.OMAX(K+1) ;
      284    13332    6                  AS_USERS.PSDOL.TMAX(K) =

  13332  3 000471   000274 721005 xsym               LXL1    AS_USERS+188,AL
         3 000472   000270 441005 xsym               SXL1    AS_USERS+184,AL

      285    13333    6                       AS_USERS.PSDOL.TMAX(K+1) ;
      286    13334    6                  END ; /* Do k */

  13334  3 000473   200010 235100                    LDA     K,,AUTO
         3 000474   000001 035007                    ADLA    1,DL
         3 000475   200010 755100                    STA     K,,AUTO
         3 000476   000007 115007                    CMPA    7,DL
         3 000477   000451 602000 3                  TNC     s:13324

      287    13335                                                              /**/
      288    13336    5               AS_USERS.PSDOL.PSDO_NAME(7) = AS_BLANK ;

  13336  3 000500   040000 100400                    MLR     fill='040'O
         3 000501   000000 000001 xsym               ADSC9   AS_BLANK                 cn=0,n=1
         3 000502   000321 000010 xsym               ADSC9   AS_USERS+209             cn=0,n=8

      289    13337    5               AS_USERS.PSDOL.BMAX(7) = 0 ;

  13337  3 000503   000000 220003                    LDX0    0,DU
PL6.E3A0      #001=ASC$PSEUDO File=ASC$PSEUDO.:E05TSI                            TUE 07/29/97 09:39 Page:36
         3 000504   000323 740000 xsym               STX0    AS_USERS+211

      290    13338    5               AS_USERS.PSDOL.GMAX(7) = 0 ;

  13338  3 000505   000323 440000 xsym               SXL0    AS_USERS+211

      291    13339    5               AS_USERS.PSDOL.OMAX(7) = 0 ;

  13339  3 000506   000324 740000 xsym               STX0    AS_USERS+212

      292    13340    5               AS_USERS.PSDOL.TMAX(7) = 0 ;

  13340  3 000507   000324 440000 xsym               SXL0    AS_USERS+212

      293    13341    5               END;   /* If PSEUDO_STRC.TYPE = PSEUDO_REMOVE_VAL */

  13341  3 000510   000573 710000 3                  TRA     s:13381

      294    13342                                                          /**/
      295    13343    5            ELSE DO;           /* PSEUDO_LIST_VAL */

      296    13344    5               IF NAME_POS > 7 AND BLANK_POS > 7

  13344  3 000511   000010 115007                    CMPA    8,DL
         3 000512   000530 602000 3                  TNC     s:13368
         3 000513   200013 236100                    LDQ     BLANK_POS,,AUTO
         3 000514   000010 116007                    CMPQ    8,DL
         3 000515   000530 602000 3                  TNC     s:13368

      297    13345    6               THEN DO;

      298    13346        /*E*  ERROR:    ASC-E$TOO_MANY_PSEUDOS-C
      299    13347              MESSAGE:  Too many PSEUDO names defined.
      300    13348              MESSAGE1: At most 8 PSEUDO names can be defined.
      301    13349        */
      302    13350    6                  IF AS_WILD_USER THEN CALL ASB$FLUSH_ERR;

PL6.E3A0      #001=ASC$PSEUDO File=ASC$PSEUDO.:E05TSI                            TUE 07/29/97 09:39 Page:37
  13350  3 000516   000000 234000 xsym               SZN     AS_WILD_USER
         3 000517   000523 605000 3                  TPL     s:13363

  13350  3 000520   000002 631400 xsym               EPPR1   B_VECTNIL+2
         3 000521   000000 701000 xent               TSX1    ASB$FLUSH_ERR
         3 000522   000000 011000                    NOP     0

      303    13351                       %SCREAM( ERR#=E$TOO_MANY_PSEUDOS, LEVEL=ERROR, MID='C' );

  13363  3 000523   000007 630400 4                  EPPR0   7
         3 000524   000017 631400 xsym               EPPR1   B_VECTNIL+15
         3 000525   000000 701000 xent               TSX1    ASH$ERROR
         3 000526   000000 011000                    NOP     0

      304    13366    6                  GOTO SKIP_IT;

  13366  3 000527   000613 710000 3                  TRA     SKIP_IT

      305    13367    6                  END ; /* Then do */
      306    13368    5               IF NAME_POS < 8

  13368  3 000530   000010 115007                    CMPA    8,DL
         3 000531   000534 603000 3                  TRC     s:13372

      307    13369    5               THEN
      308    13370    5                  J = NAME_POS ;

  13370  3 000532   200007 755100                    STA     J,,AUTO
         3 000533   000544 710000 3                  TRA     s:13375

      309    13371    6               ELSE DO;

      310    13372    6                  J = BLANK_POS ;

  13372  3 000534   200013 236100                    LDQ     BLANK_POS,,AUTO
         3 000535   200007 756100                    STQ     J,,AUTO

PL6.E3A0      #001=ASC$PSEUDO File=ASC$PSEUDO.:E05TSI                            TUE 07/29/97 09:39 Page:38
      311    13373    6                  AS_USERS.PSDOL.PSDO_NAME(J) = PSEUDO_STRC.NAME ;

  13373  3 000536   200007 235100                    LDA     J,,AUTO
         3 000537   000002 735000                    ALS     2
         3 000540   000002 735000                    ALS     2
         3 000541   040005 100500                    MLR     fill='040'O
         3 000542   200031 000010                    ADSC9   PSEUDO_STRC,,AUTO        cn=0,n=8
         3 000543   000265 000010 xsym               ADSC9   AS_USERS+181,A           cn=0,n=8

      312    13374    6                  END ; /* Then do */

      313    13375    5               PSDO$ = ADDR( AS_USERS.PSDOL.BMAX(J)) ;

  13375  3 000544   200007 236100                    LDQ     J,,AUTO
         3 000545   000024 736000                    QLS     20
         3 000546   000010 036000 4                  ADLQ    8
         3 000547   200016 756100                    STQ     PSDO$,,AUTO

      314    13376    6               DO K = 0 TO 3;

  13376  3 000550   200010 450100                    STZ     K,,AUTO

      315    13377    6                  IF PSEUDO_STRC.VAL(K) > -1 THEN

  13377  3 000551   200010 235100                    LDA     K,,AUTO
         3 000552   000001 735000                    ALS     1
         3 000553   000100 100505                    MLR     fill='000'O
         3 000554   200033 000002                    ADSC9   PSEUDO_STRC+2,A,AUTO     cn=0,n=2
         3 000555   200036 000004                    ADSC9   PSEUDO_STRC+5,,AUTO      cn=0,n=4
         3 000556   200036 236100                    LDQ     PSEUDO_STRC+5,,AUTO
         3 000557   000022 732000                    QRS     18
         3 000560   000000 116003                    CMPQ    0,DU
         3 000561   000566 604000 3                  TMI     s:13379

      316    13378    6                     PSDO$STRC(K) = PSEUDO_STRC.VAL(K);

  13378  3 000562   200016 470500                    LDP0    PSDO$,,AUTO
PL6.E3A0      #001=ASC$PSEUDO File=ASC$PSEUDO.:E05TSI                            TUE 07/29/97 09:39 Page:39
         3 000563   000105 100505                    MLR     fill='000'O
         3 000564   200033 000002                    ADSC9   PSEUDO_STRC+2,A,AUTO     cn=0,n=2
         3 000565   000000 000002                    ADSC9   0,A,PR0                  cn=0,n=2

      317    13379    6                  END ; /* Do k */

  13379  3 000566   200010 236100                    LDQ     K,,AUTO
         3 000567   000001 036007                    ADLQ    1,DL
         3 000570   200010 756100                    STQ     K,,AUTO
         3 000571   000004 116007                    CMPQ    4,DL
         3 000572   000551 602000 3                  TNC     s:13377

      318    13380    5               END ;

      319    13381    5            IF NOT MOD_FLG AND AS_WILD_USER THEN DO;

  13381  3 000573   200003 470500                    LDP0    @MOD_FLG,,AUTO
         3 000574   000000 234100                    SZN     0,,PR0
         3 000575   000613 604000 3                  TMI     SKIP_IT
         3 000576   000000 234000 xsym               SZN     AS_WILD_USER
         3 000577   000613 605000 3                  TPL     SKIP_IT

      320    13382    5               PSEUDO$LIST.PSEUDO(PSEUDO$LIST.COUNT) = PSEUDO_STRC;

  13382  3 000600   000000 471400 xsym               LDP1    AS_PSEUDO_LIST$
         3 000601   100000 235100                    LDA     0,,PR1
         3 000602   000044 733000                    LRS     36
         3 000603   000022 402007                    MPY     18,DL
         3 000604   000106 100500                    MLR     fill='000'O
         3 000605   200031 000022                    ADSC9   PSEUDO_STRC,,AUTO        cn=0,n=18
         3 000606   100001 000022                    ADSC9   1,Q,PR1                  cn=0,n=18

      321    13383    5               PSEUDO$LIST.COUNT = PSEUDO$LIST.COUNT + 1;

  13383  3 000607   000000 471400 xsym               LDP1    AS_PSEUDO_LIST$
         3 000610   100000 235100                    LDA     0,,PR1
         3 000611   000001 035007                    ADLA    1,DL
PL6.E3A0      #001=ASC$PSEUDO File=ASC$PSEUDO.:E05TSI                            TUE 07/29/97 09:39 Page:40
         3 000612   100000 755100                    STA     0,,PR1

      322    13384    5               END;

  13381  3 000613                       SKIP_IT      null
      323    13385    4   SKIP_IT: ;
      324    13386    4            END ; /* Do case( code ) */

      325    13387    3         END ; /* Do i */

  13387  3 000613   200006 235100                    LDA     I,,AUTO
         3 000614   000001 035007                    ADLA    1,DL
         3 000615   200006 755100                    STA     I,,AUTO
         3 000616   200006 236100                    LDQ     I,,AUTO
         3 000617   200020 116100                    CMPQ    SUBNODES,,AUTO
         3 000620   000123 602000 3                  TNC     s:13173

      326    13388    2      END ; /* Do while( more ) */

  13388  3 000621   200023 234100                    SZN     MORE,,AUTO
         3 000622   000061 604000 3                  TMI     PSEUDO_LOOP

      327    13389                                                              /**/
      328    13390    1   RETURN;

  13390  3 000623   000000 702200 xent               TSX2  ! X66_ARET

  13381  3 000624                       PSEUDO_ERR   null
      329    13391
      330    13392    1   PSEUDO_ERR: ;
      331    13393    1   ERR_CODE = P_PCB.ERROR ;

  13393  3 000624   000006 236000 xsym               LDQ     P_PCB+6
         3 000625   000000 756000 xsym               STQ     ERR_CODE

      332    13394    1   CALL ASH$ERROR( ERR_CODE ) ;

PL6.E3A0      #001=ASC$PSEUDO File=ASC$PSEUDO.:E05TSI                            TUE 07/29/97 09:39 Page:41
  13394  3 000626   000011 630400 4                  EPPR0   9
         3 000627   000017 631400 xsym               EPPR1   B_VECTNIL+15
         3 000630   000000 701000 xent               TSX1    ASH$ERROR
         3 000631   000000 011000                    NOP     0

      333    13395    1   GOTO PSEUDO_LOOP;

  13395  3 000632   000061 710000 3                  TRA     PSEUDO_LOOP
      334    13396                                                              /**/
      335    13397    1   END   ASC$PSEUDO ;
      336    13398        %EOD ;

PL6.E3A0      #001=ASC$PSEUDO File=ASC$PSEUDO.:E05TSI                            TUE 07/29/97 09:39 Page:42
--  Include file information  --

   AS_SUPER_R.:E05TOU  cannot be made into a system file and is referenced.
   CP_6.:E05TOU  cannot be made into a system file and is referenced.
   B_MACROS_C.:E05TOU  is referenced.
   XU_FORMAT_C.:E05TOU  is referenced.
   XU_MACRO_C.:E05TOU  is referenced.
   KL_SUPER_C.:E05TOU  is referenced.
   AS_PERR_C.:E05TOU  is referenced.
   AS_MAC_C.:E05TOU  cannot be made into a system file and is referenced.
   AS_SUBS_C.:E05TOU  is referenced.
   AS_SUPER_C.:E05TOU  is referenced.
   AS_ENTRIES_M.:E05TOU  is referenced.
   B$JIT_C.:E05TOU  was found in the system file and is never referenced.
   CP_6_C.:E05TOU  was found in the system file and is referenced.
      No diagnostics issued in procedure ASC$PSEUDO.
PL6.E3A0      #001=ASC$PSEUDO File=ASC$PSEUDO.:E05TSI                            TUE 07/29/97 09:39 Page:43

 **** Variables and constants ****

  ****  Auto variables  ****

  ****  Scalars and arrays  ****
OctLoc.c.b A Datatyp(siz) R M Lvl/name                 OctLoc.c.b A Datatyp(siz) R M Lvl/name

     3-0-0/w PTR         r     1 @MOD_FLG                  22-0-0/w UBIN        r     1 ARS
    13-0-0/w UBIN        r     1 BLANK_POS                  6-0-0/w UBIN        r     1 I
     7-0-0/w UBIN        r     1 J                         10-0-0/w UBIN        r     1 K
    14-0-0/w UBIN        r     1 MODE                      *0-0-0/w BIT         r     1 MOD_FLG
    23-0-0/b BIT         r     1 MORE                      12-0-0/w UBIN        r     1 NAME_POS
    16-0-0/w PTR         r     1 PSDO$                     31-0-0/w STRC(162)   r     1 PSEUDO_STRC
     4-0-0/w PTR         r     1 PTR$                       5-0-0/w PTR         r     1 PTR2$
    25-0-0/w PTR         r     1 ROOT$                     20-0-0/w UBIN        r     1 SUBNODES
    17-0-0/w UBIN        r     1 SUBS                      30-0-0/w PTR         r     1 T_NODE$
    15-0-0/w UBIN        r     1 VAL                       26-0-0/w UBIN        r     1 WKSZ
    27-0-0/w UBIN        r     1 WK_USED                   24-0-0/w PTR         r     1 WORK$

  ****  SYMREF variables  ****

  ****  Scalars and arrays  ****
OctLoc.c.b A Datatyp(siz) R M Lvl/name                 OctLoc.c.b A Datatyp(siz) R M Lvl/name

     0-0-0/c CHAR        r     1 AS_BLANK                   0-0-0/b BIT         r     1 AS_FALSE
     0-0-0/w STRC(369)   r     1 AS_FIELD1                  0-0-0/w STRC(1483)  r     1 AS_MOD_USER
     0-0-0/w PTR         r     1 AS_PSEUDO_LIST$            0-0-0/b BIT         r     1 AS_TRUE
     0-0-0/w STRC(18576) r     1 AS_USERS                   0-0-0/b BIT         r     1 AS_WILD_USER
     0-0-0/w UBIN        r     1 CODE                       0-0-0/b STRC        r     1 ERR_CODE
     0-0-0/c CHAR(255)   r     1 IN_BUF                     0-0-0/w PTR         r     1 NODE$
     0-0-0/w UBIN        r     1 PSEUDO_SUB                 0-0-0/w STRC(504)   r     1 P_PCB
     0-0-0/d REMB        r     1 REMEM_VAR

  ****  BASED and DCB variables  ****

  ****  Scalars and arrays  ****
OctLoc.c.b A Datatyp(siz) R M Lvl/name                 OctLoc.c.b A Datatyp(siz) R M Lvl/name
PL6.E3A0      #001=ASC$PSEUDO File=ASC$PSEUDO.:E05TSI                            TUE 07/29/97 09:39 Page:44

     0-0-0/w STRC(144)   r     1 P$NODE
     0-0-0/h UBIN(18)    r     1 PSDO$STRC(0:3)
     0-0-0/w STRC(198)   r     1 PSEUDO$LIST                0-0-0/w ASTR(9)     r     1 VARY$STR


   Procedure ASC$PSEUDO requires 411 words for executable code.
   Procedure ASC$PSEUDO requires 32 words of local(AUTO) storage.
PL6.E3A0      #001=ASC$PSEUDO File=ASC$PSEUDO.:E05TSI                            TUE 07/29/97 09:39 Page:45
          *** CROSS REFERENCE LISTING ***
**     DENOTES     IDENTIFIER DEFINITION
<<                 IDENTIFIER'S VALUE SET
>>                 IDENTIFIER'S VALUE USED
<>                 IDENTIFIER SET AND/OR USED
--                 IDENTIFIER REFERENCED
PL6.E3A0      #001=ASC$PSEUDO File=ASC$PSEUDO.:E05TSI                            TUE 07/29/97 09:39 Page:46
          MINI XREF LISTING

ARS
     13111**DCL     13166<>CALL    13167>>ASSIGN
ASA_BRKS_LOC
     10140**DCL     10140--REDEF
ASB$FLUSH_ERR
     13080**DCL-ENT 13304--CALL    13350--CALL
ASB$READ_SI
     13062**DCL-ENT 13166--CALL
ASB$SET_PROMPT
     13065**DCL-ENT 13153--CALL
ASH$DQUEST
     13071**DCL-ENT 13198--CALL
ASH$ERROR
     13077**DCL-ENT 13226--CALL    13263--CALL    13317--CALL    13363--CALL    13394--CALL
ASH$HELP
     13068**DCL-ENT 13192--CALL
ASH$QUEST
     13074**DCL-ENT 13195--CALL
AS_BLANK
     10000**DCL     13282>>IF      13302>>CALLBLT 13336>>ASSIGN
AS_DEFAULT.BANNER_PERM
     10833**DCL     10834--REDEF
AS_DEFAULT.BUDGET.MACCT
     10738**DCL     10742--REDEF
AS_DEFAULT.BUDGET.MAX_PROJECTS
     10751**DCL     10754--REDEF
AS_DEFAULT.BUDGET.PACCUM
     10734**DCL     10736--REDEF
AS_DEFAULT.BUDGET.PMAXC
     10729**DCL     10731--REDEF
AS_DEFAULT.SETUP_CHRA.TXT
     10849**DCL     10850--REDEF   10851--REDEF
PL6.E3A0      #001=ASC$PSEUDO File=ASC$PSEUDO.:E05TSI                            TUE 07/29/97 09:39 Page:47
AS_DEFAULT_DREC.PASSWORD
     12103**DCL     12107--REDEF
AS_DEFAULT_DREC.RENAME
     12126**DCL     12127--REDEF
AS_DFLT.BANNER_PERM
     10655**DCL     10656--REDEF
AS_DFLT.BUDGET.MACCT
     10560**DCL     10564--REDEF
AS_DFLT.BUDGET.MAX_PROJECTS
     10573**DCL     10576--REDEF
AS_DFLT.BUDGET.PACCUM
     10556**DCL     10558--REDEF
AS_DFLT.BUDGET.PMAXC
     10551**DCL     10553--REDEF
AS_DFLT.SETUP_CHRA.TXT
     10671**DCL     10672--REDEF   10673--REDEF
AS_FALSE
     10000**DCL     13163>>ASSIGN
AS_FE_MODE
     10006**DCL     10007--REDEF
AS_FIELD1.COUNT
     10137**DCL     13303<<ASSIGN
AS_FIELD1.TEXT
     10137**DCL     13301<<ASSIGN
AS_MODE
     10003**DCL     10005--REDEF
AS_MOD_USER.ACCESS
     12868**DCL     12869--REDEF
AS_MOD_USER.BANNER
     12855**DCL     12856--REDEF
AS_MOD_USER.BANNER_PERM
     12857**DCL     12858--REDEF
AS_MOD_USER.BILL
     12863**DCL     12864--REDEF
AS_MOD_USER.CPROC
     12859**DCL     12860--REDEF
PL6.E3A0      #001=ASC$PSEUDO File=ASC$PSEUDO.:E05TSI                            TUE 07/29/97 09:39 Page:48
AS_MOD_USER.FEBILL
     12939**DCL     12940--REDEF
AS_MOD_USER.FECXTMEM
     12956**DCL     12957--REDEF
AS_MOD_USER.FEMINTS
     12941**DCL     12942--REDEF
AS_MOD_USER.FEMMEM
     12952**DCL     12953--REDEF
AS_MOD_USER.FEMTIME
     12950**DCL     12951--REDEF
AS_MOD_USER.FEPPRIV
     12947**DCL     12949--REDEF
AS_MOD_USER.FEPRIV
     12944**DCL     12946--REDEF
AS_MOD_USER.FORCE_BIT
     12853**DCL     12854--REDEF
AS_MOD_USER.KEY
     12935**DCL     12937--REDEF
AS_MOD_USER.LASTCPROC
     12861**DCL     12862--REDEF
AS_MOD_USER.LIMITS.DO_
     12909**DCL     12910--REDEF
AS_MOD_USER.LIMITS.FPOOLS
     12925**DCL     12926--REDEF
AS_MOD_USER.LIMITS.LO
     12905**DCL     12906--REDEF
AS_MOD_USER.LIMITS.MEM
     12901**DCL     12902--REDEF
AS_MOD_USER.LIMITS.MPRIO
     12929**DCL     12930--REDEF
AS_MOD_USER.LIMITS.PDIS
     12917**DCL     12918--REDEF
AS_MOD_USER.LIMITS.PO
     12913**DCL     12914--REDEF
AS_MOD_USER.LIMITS.TDIS
     12921**DCL     12922--REDEF
PL6.E3A0      #001=ASC$PSEUDO File=ASC$PSEUDO.:E05TSI                            TUE 07/29/97 09:39 Page:49
AS_MOD_USER.LIMITS.TIME
     12897**DCL     12898--REDEF
AS_MOD_USER.MAXENQ
     12878**DCL     12879--REDEF
AS_MOD_USER.PERM_BIT
     12851**DCL     12852--REDEF
AS_MOD_USER.PPRIV
     12873**DCL     12875--REDEF
AS_MOD_USER.PRIOB
     12880**DCL     12881--REDEF
AS_MOD_USER.PRIV
     12870**DCL     12872--REDEF
AS_MOD_USER.PSEUDO
     12933**DCL     13154<<ASSIGN
AS_MOD_USER.QUAN
     12876**DCL     12877--REDEF
AS_MOD_USER.SETUP
     12849**DCL     12850--REDEF
AS_PROJECT.BANNER_PERM
     11189**DCL     11190--REDEF
AS_PROJECT.BUDGET.MACCT
     11094**DCL     11098--REDEF
AS_PROJECT.BUDGET.MAX_PROJECTS
     11107**DCL     11110--REDEF
AS_PROJECT.BUDGET.PACCUM
     11090**DCL     11092--REDEF
AS_PROJECT.BUDGET.PMAXC
     11085**DCL     11087--REDEF
AS_PROJECT.SETUP_CHRA.TXT
     11205**DCL     11206--REDEF   11207--REDEF
AS_PROJECT_DFLT.BANNER_PERM
     11367**DCL     11368--REDEF
AS_PROJECT_DFLT.BUDGET.MACCT
     11272**DCL     11276--REDEF
AS_PROJECT_DFLT.BUDGET.MAX_PROJECTS
     11285**DCL     11288--REDEF
PL6.E3A0      #001=ASC$PSEUDO File=ASC$PSEUDO.:E05TSI                            TUE 07/29/97 09:39 Page:50
AS_PROJECT_DFLT.BUDGET.PACCUM
     11268**DCL     11270--REDEF
AS_PROJECT_DFLT.BUDGET.PMAXC
     11263**DCL     11265--REDEF
AS_PROJECT_DFLT.SETUP_CHRA.TXT
     11383**DCL     11384--REDEF   11385--REDEF
AS_PROJECT_DFLT_DREC.PASSWORD
     12589**DCL     12593--REDEF
AS_PROJECT_DFLT_DREC.RENAME
     12612**DCL     12613--REDEF
AS_PROJECT_DREC.PASSWORD
     12427**DCL     12431--REDEF
AS_PROJECT_DREC.RENAME
     12450**DCL     12451--REDEF
AS_PROJ_ADMIN.BANNER_PERM
     11011**DCL     11012--REDEF
AS_PROJ_ADMIN.BUDGET.MACCT
     10916**DCL     10920--REDEF
AS_PROJ_ADMIN.BUDGET.MAX_PROJECTS
     10929**DCL     10932--REDEF
AS_PROJ_ADMIN.BUDGET.PACCUM
     10912**DCL     10914--REDEF
AS_PROJ_ADMIN.BUDGET.PMAXC
     10907**DCL     10909--REDEF
AS_PROJ_ADMIN.SETUP_CHRA.TXT
     11027**DCL     11028--REDEF   11029--REDEF
AS_PROJ_ADMIN_DREC.PASSWORD
     12265**DCL     12269--REDEF
AS_PROJ_ADMIN_DREC.RENAME
     12288**DCL     12289--REDEF
AS_PSEUDO_LIST$
     10146**DCL     13046--IMP-PTR 13136>>IF      13162>>ASSIGN  13174>>ASSIGN  13382>>ASSIGN  13382>>ASSIGN
     13383>>ASSIGN  13383>>ASSIGN
AS_TRUE
     10000**DCL     13154>>ASSIGN  13157>>ASSIGN
AS_USERS.BANNER_PERM
PL6.E3A0      #001=ASC$PSEUDO File=ASC$PSEUDO.:E05TSI                            TUE 07/29/97 09:39 Page:51
     10477**DCL     10478--REDEF
AS_USERS.BUDGET.MACCT
     10382**DCL     10386--REDEF
AS_USERS.BUDGET.MAX_PROJECTS
     10395**DCL     10398--REDEF
AS_USERS.BUDGET.PACCUM
     10378**DCL     10380--REDEF
AS_USERS.BUDGET.PMAXC
     10373**DCL     10375--REDEF
AS_USERS.PSDOL.BMAX
     10465**DCL     13326<<ASSIGN  13326>>ASSIGN  13337<<ASSIGN  13375--ASSIGN
AS_USERS.PSDOL.GMAX
     10466**DCL     13328<<ASSIGN  13328>>ASSIGN  13338<<ASSIGN
AS_USERS.PSDOL.OMAX
     10467**DCL     13330<<ASSIGN  13330>>ASSIGN  13339<<ASSIGN
AS_USERS.PSDOL.PSDO_NAME
     10464**DCL     13278>>IF      13282>>IF      13324<<ASSIGN  13324>>ASSIGN  13336<<ASSIGN  13373<<ASSIGN
AS_USERS.PSDOL.TMAX
     10468**DCL     13332<<ASSIGN  13332>>ASSIGN  13340<<ASSIGN
AS_USERS.SETUP_CHRA.TXT
     10493**DCL     10494--REDEF   10495--REDEF
AS_USERS_CONSTANT.BANNER_PERM
     11545**DCL     11546--REDEF
AS_USERS_CONSTANT.BUDGET.MACCT
     11450**DCL     11454--REDEF
AS_USERS_CONSTANT.BUDGET.MAX_PROJECTS
     11463**DCL     11466--REDEF
AS_USERS_CONSTANT.BUDGET.PACCUM
     11446**DCL     11448--REDEF
AS_USERS_CONSTANT.BUDGET.PMAXC
     11441**DCL     11443--REDEF
AS_USERS_CONSTANT.SETUP_CHRA.TXT
     11561**DCL     11562--REDEF   11563--REDEF
AS_WILD_USER
     10145**DCL     13304>>IF      13350>>IF      13381>>IF
BLANK_POS
PL6.E3A0      #001=ASC$PSEUDO File=ASC$PSEUDO.:E05TSI                            TUE 07/29/97 09:39 Page:52
     13104**DCL     13276<<ASSIGN  13282>>IF      13286<<ASSIGN  13287>>IF      13344>>IF      13372>>ASSIGN
CODE
     10133**DCL     13161<<ASSIGN  13176<<ASSIGN  13177>>DOSELCT
DONE_SEARCH
     13287**LABEL   13289--GOTO
ERR_CODE
     10135**DCL     10136--REDEF   13181<<ASSIGN  13393<<ASSIGN  13394<>CALL
I
     13099**DCL     13172<<DOINDEX 13174>>ASSIGN  13176>>ASSIGN  13204>>ASSIGN  13206>>ASSIGN
IN_BUF
     10131**DCL     13166<>CALL
J
     13100**DCL     13232<<DOINDEX 13233>>ASSIGN  13370<<ASSIGN  13372<<ASSIGN  13373>>ASSIGN  13375>>ASSIGN
K
     13101**DCL     13238<<DOINDEX 13239>>ASSIGN  13277<<DOINDEX 13278>>IF      13280>>ASSIGN  13282>>IF
     13286>>ASSIGN  13302<<CALLBLT 13303>>ASSIGN  13323<<DOINDEX 13324>>ASSIGN  13324>>ASSIGN  13326>>ASSIGN
     13326>>ASSIGN  13328>>ASSIGN  13328>>ASSIGN  13330>>ASSIGN  13330>>ASSIGN  13332>>ASSIGN  13332>>ASSIGN
     13376<<DOINDEX 13377>>IF      13378>>ASSIGN  13378>>ASSIGN
KL_DEFAULT.PASSWORD
     12751**DCL     12755--REDEF
KL_DEFAULT.RENAME
     12774**DCL     12775--REDEF
KL_DFLT.PASSWORD
     11941**DCL     11945--REDEF
KL_DFLT.RENAME
     11964**DCL     11965--REDEF
KL_DREC.PASSWORD
     11779**DCL     11783--REDEF
KL_DREC.RENAME
     11802**DCL     11803--REDEF
KL_DREC_CNT.PASSWORD
     11666**DCL     11670--REDEF
KL_DREC_CNT.RENAME
     11689**DCL     11690--REDEF
MODE
     13105**DCL     13240<<ASSIGN  13269>>ASSIGN
PL6.E3A0      #001=ASC$PSEUDO File=ASC$PSEUDO.:E05TSI                            TUE 07/29/97 09:39 Page:53
MOD_FLG
        27**DCL        20--PROC    13135>>IF      13160>>IF      13173>>IF      13203>>IF      13381>>IF
MORE
     13112**DCL     13157<<ASSIGN  13158>>DOWHILE 13163<<ASSIGN
NAME_POS
     13103**DCL     13275<<ASSIGN  13280<<ASSIGN  13287>>IF      13296>>IF      13323>>DOINDEX 13344>>IF
     13368>>IF      13370>>ASSIGN
NODE$
     10133**DCL     13005--IMP-PTR 13148>>ASSIGN  13169<<ASSIGN  13170>>ASSIGN  13176>>ASSIGN  13188<<ASSIGN
     13204>>ASSIGN  13206>>ASSIGN
P$NODE.CODE
     13013**DCL     13176>>ASSIGN  13207>>ASSIGN  13240>>ASSIGN
P$NODE.SUBLK$
     13038**DCL     13176>>ASSIGN  13204>>ASSIGN  13204>>ASSIGN  13204>>ASSIGN  13204>>ASSIGN  13206>>ASSIGN
     13206>>ASSIGN  13239>>ASSIGN  13240>>ASSIGN  13241>>ASSIGN  13241>>ASSIGN  13241>>ASSIGN
P$NODE.SUBNODES
     13017**DCL     13170>>ASSIGN  13237>>ASSIGN
PROJ_KEY.TEXT
     10013**DCL     10013--REDEF
PROJ_KEY.TXT.PROJECT
     10013**DCL     10013--REDEF
PSDO$
     13107**DCL     13045--IMP-PTR 13375<<ASSIGN  13378>>ASSIGN
PSDO$STRC
     13045**DCL     13378<<ASSIGN
PSEUDO$LIST.COUNT
     13047**DCL     13136>>IF      13162>>ASSIGN  13382>>ASSIGN  13383<<ASSIGN  13383>>ASSIGN
PSEUDO$LIST.PSEUDO
     13048**DCL     13174>>ASSIGN  13382<<ASSIGN
PSEUDO_ERR
     13381**LABEL   13168--CALLALT
PSEUDO_LOOP
     13160**LABEL   13151--REMEMBR 13395--GOTO
PSEUDO_STRC
     13118**DCL     13174<<ASSIGN  13382>>ASSIGN
PSEUDO_STRC.NAME
PL6.E3A0      #001=ASC$PSEUDO File=ASC$PSEUDO.:E05TSI                            TUE 07/29/97 09:39 Page:54
     13119**DCL     13231<<ASSIGN  13278>>IF      13301>>ASSIGN  13302>>CALLBLT 13373>>ASSIGN
PSEUDO_STRC.TYPE
     13121**DCL     13207<<ASSIGN  13235>>IF      13294>>IF
PSEUDO_STRC.VAL
     13120**DCL     13233<<ASSIGN  13269<<ASSIGN  13377>>IF      13378>>ASSIGN
PSEUDO_SUB
     13088**DCL     13150--ASSIGN
PTR$
     13094**DCL     13096--IMP-PTR 13204<<ASSIGN  13208>>IF      13231>>ASSIGN  13231>>ASSIGN  13239<<ASSIGN
     13240>>ASSIGN  13241<<ASSIGN  13241>>ASSIGN  13244>>CALLBLT 13244>>CALLBLT
PTR2$
     13095**DCL     13206<<ASSIGN  13207>>ASSIGN  13237>>ASSIGN  13239>>ASSIGN
P_PCB
     10168**DCL     13168<>CALL
P_PCB.ERROR
     10272**DCL     13393>>ASSIGN
P_PCB.NCHARS
     10315**DCL     13167<<ASSIGN
P_PCB.OUT$
     10181**DCL     13169>>ASSIGN
P_PCB.ROOT$
     10173**DCL     13143>>ASSIGN  13150<<ASSIGN  13186<<ASSIGN
P_PCB.WKSZ
     10198**DCL     13141>>ASSIGN  13146<<ASSIGN  13184<<ASSIGN
P_PCB.WK_USED
     10301**DCL     13142>>ASSIGN  13145>>ASSIGN  13146>>ASSIGN  13185<<ASSIGN
P_PCB.WORK$
     10177**DCL     13140>>ASSIGN  13145<<ASSIGN  13183<<ASSIGN
REMEM_VAR
     10139**DCL     10139--REDEF   13151<<REMEMBR
REM_FCMD
     10139**DCL     10140--REDEF
ROOT$
     13114**DCL     13143<<ASSIGN  13186>>ASSIGN
SKIP_IT
     13381**LABEL   13229--GOTO    13266--GOTO    13320--GOTO    13366--GOTO
PL6.E3A0      #001=ASC$PSEUDO File=ASC$PSEUDO.:E05TSI                            TUE 07/29/97 09:39 Page:55
SUBNODES
     13109**DCL     13162<<ASSIGN  13170<<ASSIGN  13172>>DOINDEX
SUBS
     13108**DCL     13237<<ASSIGN  13238>>DOINDEX
T_NODE$
     13117**DCL     13148<<ASSIGN  13188>>ASSIGN
USERS_KEY.TEXT
     10010**DCL     10011--REDEF   10011--REDEF   10011--REDEF   10012--REDEF
VAL
     13106**DCL     13244<<CALLBLT 13245>>IF      13269>>ASSIGN
VARY$STR.CNT
     13097**DCL     13098--IMP-SIZ 13208>>IF      13231>>ASSIGN  13244>>CALLBLT
VARY$STR.TXT
     13098**DCL     13231>>ASSIGN  13244>>CALLBLT
WKSZ
     13115**DCL     13141<<ASSIGN  13146>>ASSIGN  13184>>ASSIGN
WK_USED
     13116**DCL     13142<<ASSIGN  13185>>ASSIGN
WORK$
     13113**DCL     13140<<ASSIGN  13145>>ASSIGN  13183>>ASSIGN
X$PARSE
     13060**DCL-ENT 13168--CALL

PL6.E3A0      #002=ASC$FEPSEUDO File=ASC$PSEUDO.:E05TSI                          TUE 07/29/97 09:41 Page:56
      337        1        /*T***********************************************************/
      338        2        /*T*                                                         */
      339        3        /*T* Copyright (c) Bull HN Information Systems Inc., 1997    */
      340        4        /*T*                                                         */
      341        5        /*T***********************************************************/
      342        6        /********************************************************************/
      343        7        /*                                                                   */
      344        8        /*                   ASC$FEPSEUDO          proc                        */
      345        9        /*                                                                   */
      346       10        /*********************************************************************/
      347       11                                                              /**/
      348       12        ASC$FEPSEUDO: PROC ( MOD_FLG );
      349       13                                                              /**/
      350       14
      351       15        /*********************************************************************/
      352       16        /*    Parameters      parameters      parameters      parameters     */
      353       17        /*********************************************************************/
      354       18    1   DCL MOD_FLG BIT(1) ALIGNED;
      355       19
      356       20        /********************************************************************/
      357       21        /*   Include files   include files   include files   include files   */
      358       22        /*********************************************************************/
      359       23                                                              /**/
      360       24        %INCLUDE      AS_ENTRIES_M;
      361     1074        %INCLUDE      AS_SUPER_C ;
      362     1509        %INCLUDE      AS_SUBS_C ;
      363     2923        %INCLUDE      AS_MAC_C ;
      364     3003        %INCLUDE      AS_PERR_C;
      365     3605        %INCLUDE      KL_SUPER_C ;
      366     6507        %INCLUDE      XU_MACRO_C ;
      367     9613        %INCLUDE      XU_FORMAT_C ;
      368     9775        %INCLUDE      B_MACROS_C ;
      369     9886        %INCLUDE      CP_6 ;
      370     9967        %INCLUDE      AS_SUPER_R ;
      371    12983                                                              /**/
      372    12984
      373    12985        /********************************************************************/
PL6.E3A0      #002=ASC$FEPSEUDO File=ASC$PSEUDO.:E05TSI                          TUE 07/29/97 09:41 Page:57
      374    12986        /*   Local based     local based     local based     local based     */
      375    12987        /*********************************************************************/
      376    12988                                                              /**/
      377    12989            %PARSE$OUT( NAME=P$NODE, STCLASS="BASED(NODE$)",
      378    12990                        NDTYPE=TYPE, NSUBLKS=SUBNODES) ;
      379    13035                                                              /**/
      380    13036    1   DCL PSDO$STRC(0:3) UBIN HALF HALIGNED BASED( PSDO$ ) ;
      381    13037    1   DCL 1 FEPSEUDO$LIST ALIGNED BASED( AS_FEPSEUDO_LIST$ ),
      382    13038    1          2 COUNT UBIN,
      383    13039    1          2 FEPSEUDO(0:0),
      384    13040    1             3 NAME CHAR(8),
      385    13041    1             3 UMAX SBIN HALF UNAL,
      386    13042    1             3 CMAX SBIN HALF UNAL,
      387    13043    1             3 HMAX SBIN HALF UNAL,
      388    13044    1             3 GMAX SBIN HALF UNAL,
      389    13045    1             3 TYPE UBIN HALF UNAL;
      390    13046
      391    13047        /********************************************************************/
      392    13048        /*   Entry dcls      entry dcls      entry dcls      entry dcls      */
      393    13049        /*********************************************************************/
      394    13050                                                              /**/
      395    13051    1   DCL X$PARSE ENTRY(1) ALTRET ;
      396    13052        %ASB$READ_SI ;
      397    13055        %ASB$SET_PROMPT ;
      398    13058        %ASH$HELP ;
      399    13061        %ASH$DQUEST ;
      400    13064        %ASH$QUEST ;
      401    13067        %ASH$ERROR ;
      402    13070        %ASB$FLUSH_ERR ;
      403    13073                                                              /**/
      404    13074
      405    13075        /*********************************************************************/
      406    13076        /*   Symrefs         symrefs         symrefs         symrefs         */
      407    13077        /*********************************************************************/
      408    13078                                                              /**/
      409    13079    1   DCL FEPSEUDO_SUB UBIN WORD SYMREF ;
      410    13080
PL6.E3A0      #002=ASC$FEPSEUDO File=ASC$PSEUDO.:E05TSI                          TUE 07/29/97 09:41 Page:58
      411    13081        /*********************************************************************/
      412    13082        /*   Auto data       auto data       auto data       auto data       */
      413    13083        /*********************************************************************/
      414    13084                                                              /**/
      415    13085    1   DCL PTR$ PTR ;
      416    13086    1   DCL PTR2$ PTR ;
      417    13087    1   DCL 1 VARY$STR BASED( PTR$ ) ALIGNED ,
      418    13088    1          2 CNT UBIN BYTE UNAL ,
      419    13089    1          2 TXT CHAR( VARY$STR.CNT ) UNAL ;
      420    13090    1   DCL I UBIN WORD ;
      421    13091    1   DCL J UBIN WORD ;
      422    13092    1   DCL K UBIN WORD ;
      423    13093    1   DCL CNT UBIN WORD ;
      424    13094    1   DCL NAME_POS UBIN WORD ;
      425    13095    1   DCL BLANK_POS UBIN WORD ;
      426    13096    1   DCL MODE UBIN WORD ;
      427    13097    1   DCL VAL UBIN WORD ;
      428    13098    1   DCL PSDO$ PTR ;
      429    13099    1   DCL SUBS UBIN WORD ;
      430    13100    1   DCL SUBNODES UBIN WORD ;
      431    13101    1   DCL CODE2 UBIN WORD ;
      432    13102    1   DCL ARS UBIN WORD ;
      433    13103    1   DCL MORE BIT(1) ;
      434    13104    1   DCL WORK$ PTR ;
      435    13105    1   DCL ROOT$ PTR ;
      436    13106    1   DCL WKSZ UBIN WORD ;
      437    13107    1   DCL WK_USED UBIN WORD ;
      438    13108    1   DCL T_NODE$ PTR ;
      439    13109    1   DCL 1 FEPSEUDO_STRC ALIGNED,
      440    13110    1          2 NAME CHAR(8) UNAL,
      441    13111    1          2 VAL(0:3) SBIN HALF UNAL,
      442    13112    1          2 TYPE UBIN HALF UNAL;
      443    13113
      444    13114        /********************************************************************/
      445    13115        /*   Static data     static data     static data     static data     */
      446    13116        /*********************************************************************/
      447    13117                                                              /**/
PL6.E3A0      #002=ASC$FEPSEUDO File=ASC$PSEUDO.:E05TSI                          TUE 07/29/97 09:41 Page:59
      448    13118
      449    13119        /********************************************************************/
      450    13120        /*   Procedure       procedure       procedure       procedure       */
      451    13121        /*********************************************************************/
      452    13122                                                              /**/
      453    13123        /*
      454    13124            ***            Begin procedure                    ***
      455    13125        */
      456    13126    2   IF MOD_FLG THEN DO;
      457    13127    2      IF FEPSEUDO$LIST.COUNT = 0 THEN RETURN;
      458    13128    2      END;
      459    13129    2   ELSE DO;
      460    13130                                                              /* Save some of P_PCB. */
      461    13131    2      WORK$ = P_PCB.WORK$ ;
      462    13132    2      WKSZ = P_PCB.WKSZ ;
      463    13133    2      WK_USED = P_PCB.WK_USED ;
      464    13134    2      ROOT$ = P_PCB.ROOT$ ;
      465    13135                                                                  /* Bump past area used. */
      466    13136    2      P_PCB.WORK$ = PINCRW( WORK$, P_PCB.WK_USED ) ;
      467    13137    2      P_PCB.WKSZ = WKSZ - P_PCB.WK_USED ;
      468    13138                                                                  /* Save NODE$ */
      469    13139    2      T_NODE$ = NODE$ ;
      470    13140                                                                  /* Set ROOT$ */
      471    13141    2      P_PCB.ROOT$ = ADDR(FEPSEUDO_SUB) ;
      472    13142    2      REMEMBER FEPSEUDO_LOOP IN REMEM_VAR ;
      473    13143                                                                  /*  Set prompt  */
      474    13144    2      CALL ASB$SET_PROMPT ( %PROMPT_SUB ) ;
      475    13145    2      AS_MOD_USER.FEPSEUDO = AS_TRUE;
      476    13146    2      END;
      477    13147
      478    13148    1   MORE = AS_TRUE;
      479    13149    2   DO WHILE (MORE) ;
      480    13150    2   FEPSEUDO_LOOP:
      481    13151    3      IF MOD_FLG THEN DO;
      482    13152    3         CODE = FEPSEUDO_SOPT_V;
      483    13153    3         SUBNODES = FEPSEUDO$LIST.COUNT;
      484    13154    3         MORE = AS_FALSE;
PL6.E3A0      #002=ASC$FEPSEUDO File=ASC$PSEUDO.:E05TSI                          TUE 07/29/97 09:41 Page:60
      485    13155    3         END;
      486    13156    3      ELSE DO;
      487    13157    3         CALL ASB$READ_SI(IN_BUF,ARS) ;         /* Read option line */
      488    13158    3         P_PCB.NCHARS = ARS ;
      489    13159    3         CALL X$PARSE(P_PCB) ALTRET (FEPSEUDO_ERR) ;
      490    13160    3         NODE$ = P_PCB.OUT$ ;
      491    13161    3         SUBNODES = P$NODE.SUBNODES ;
      492    13162    3         END;
      493    13163    3      DO I = 0 TO SUBNODES - 1 ;
      494    13164    3         IF MOD_FLG THEN
      495    13165    3            FEPSEUDO_STRC = FEPSEUDO$LIST.FEPSEUDO(I);
      496    13166    3         ELSE
      497    13167    3            CODE = P$NODE.SUBLK$(I) -> P$NODE.CODE ;
      498    13168    4         DO SELECT( CODE ) ;
      499    13169                                                              /**/
      500    13170    4            SELECT( END_VAL ,
      501    13171    4                 BLANK_LINE_VAL ) ;
      502    13172    4            ERR_CODE = '0'B ;
      503    13173                                                              /* Restore P_PCB */
      504    13174    4            P_PCB.WORK$ = WORK$ ;
      505    13175    4            P_PCB.WKSZ = WKSZ ;
      506    13176    4            P_PCB.WK_USED = WK_USED ;
      507    13177    4            P_PCB.ROOT$ = ROOT$ ;
      508    13178                                                              /* Restore NODE$ */
      509    13179    4            NODE$ = T_NODE$ ;
      510    13180    4            RETURN ;
      511    13181                                                              /**/
      512    13182    4            SELECT( HELP_VAL ) ;
      513    13183    4            CALL ASH$HELP ;
      514    13184                                                                  /**/
      515    13185    4            SELECT( QUESTION_VAL ) ;
      516    13186    4            CALL ASH$QUEST ;
      517    13187                                                                  /**/
      518    13188    4            SELECT( DQUESTION_VAL ) ;
      519    13189    4            CALL ASH$DQUEST ;
      520    13190                                                                  /**/
      521    13191    4            SELECT( EOL_VAL ) ;
PL6.E3A0      #002=ASC$FEPSEUDO File=ASC$PSEUDO.:E05TSI                          TUE 07/29/97 09:41 Page:61
      522    13192                                                              /**/
      523    13193    4            SELECT( FEPSEUDO_SOPT_V ) ;
      524    13194    5            IF NOT MOD_FLG THEN DO;
      525    13195    5               PTR$ = P$NODE.SUBLK$(I) -> P$NODE.SUBLK$(0)
      526    13196    5                    -> P$NODE.SUBLK$(0) -> P$NODE.SUBLK$(0) ;
      527    13197    5               PTR2$ = P$NODE.SUBLK$(I) -> P$NODE.SUBLK$( 1 ) ;
      528    13198    5               FEPSEUDO_STRC.TYPE = PTR2$ -> P$NODE.CODE ;
      529    13199    5               IF VARY$STR.CNT > 8
      530    13200    6               THEN DO;
      531    13201        /*E*  ERROR:     ASC-E$FEPSEUDO_NAME_TOO_LONG-C
      532    13202              MESSAGE:  FEPSEUDO name too long.
      533    13203              MESSAGE1: FEPSEUDO names can be at most 8 characters long.
      534    13204        */
      535    13205                       %SCREAM( ERR#=E$FEPSEUDO_NAME_TOO_LONG, LEVEL=ERROR, MID='C' );
      536    13220    6                  GOTO SKIP_IT;
      537    13221    6                  END ;   /*  Then do  */
      538    13222    5               FEPSEUDO_STRC.NAME = VARY$STR.TXT;
      539    13223    6               DO J = 0 TO 3;
      540    13224    6                  FEPSEUDO_STRC.VAL(J) = -1;
      541    13225    6                  END;
      542    13226    5               IF FEPSEUDO_STRC.TYPE = FEPSEUDO_LIST_VAL
      543    13227    6               THEN DO;
      544    13228    6                  SUBS = PTR2$ -> P$NODE.SUBNODES ;
      545    13229    7                  DO K = 0 TO SUBS-1 ;
      546    13230    7                     PTR$ = PTR2$ -> P$NODE.SUBLK$(K) ;
      547    13231    7                     MODE = PTR$ -> P$NODE.SUBLK$(0) -> P$NODE.CODE ;
      548    13232    7                     PTR$ = PTR$ -> P$NODE.SUBLK$(1)
      549    13233    7                          -> P$NODE.SUBLK$(0)
      550    13234    7                          -> P$NODE.SUBLK$(0) ;
      551    13235    7                     CALL CHARBIN( VAL, VARY$STR.TXT ) ;
      552    13236    7                     IF VAL > 511
      553    13237    8                     THEN DO;
      554    13238        /*E*  ERROR:    ASC-E$FEPSEUDO_VAL_TOO_BIG-C
      555    13239              MESSAGE:  FEPSEUDO value too big.
      556    13240              MESSAGE1: FEPSEUDO value can be at most 511.
      557    13241        */
      558    13242                             %SCREAM( ERR#=E$FEPSEUDO_VAL_TOO_BIG, LEVEL=ERROR, MID='C' );
PL6.E3A0      #002=ASC$FEPSEUDO File=ASC$PSEUDO.:E05TSI                          TUE 07/29/97 09:41 Page:62
      559    13257    8                        GOTO SKIP_IT;
      560    13258    8                        END ;        /* Then do */
      561    13259    7                     ELSE                    /* Set value */
      562    13260    7                        FEPSEUDO_STRC.VAL(MODE) = VAL;
      563    13261    7                     END;  /* Do K=0 to SUBS-1 */
      564    13262    6                  END;   /* Do case( CODE2 ) */
      565    13263    5               END;     /* If not MOD_FLG then do */
      566    13264                                                              /* Find name and
      567    13265                                                                 1ST. Blank    */
      568    13266    4            NAME_POS = 8 ;              /*  Set past range  */
      569    13267    4            BLANK_POS = 8 ;
      570    13268    5            DO K = 0 TO 7 ;
      571    13269    5               IF KL_DREC.KL_DREC_FEBLK.PSDOL.PSDO_NAME(K) = FEPSEUDO_STRC.NAME
      572    13270    5               THEN
      573    13271    5                  NAME_POS = K ;  /* Found name */
      574    13272    5               ELSE
      575    13273    5                  IF KL_DREC.KL_DREC_FEBLK.PSDOL.PSDO_NAME(K) = AS_BLANK
      576    13274    5                       AND BLANK_POS > 7
      577    13275    5                  THEN
      578    13276                                                          /* Found 1ST blank */
      579    13277    5                     BLANK_POS = K ;
      580    13278    5               IF NAME_POS < 8 AND BLANK_POS < 8
      581    13279    5               THEN
      582    13280    5                  GOTO DONE_SEARCH ;
      583    13281    5               END ; /* Do k */
      584    13282                                                              /**/
      585    13283    4   DONE_SEARCH: ;
      586    13284                                                              /**/
      587    13285    4            IF FEPSEUDO_STRC.TYPE = PSEUDO_REMOVE_VAL
      588    13286    5            THEN DO;
      589    13287    5               IF NAME_POS = 8
      590    13288    6               THEN DO;
      591    13289        /*E*  ERROR:    ASC-E$FEPSEUDO_DOESNT_EXIST-C
      592    13290              MESSAGE: FEPSEUDO %%U1 % does not exist.
      593    13291        */
      594    13292    6                  AS_FIELD1.TEXT = FEPSEUDO_STRC.NAME;
      595    13293    6                  CALL INDEX(K, AS_BLANK, FEPSEUDO_STRC.NAME );
PL6.E3A0      #002=ASC$FEPSEUDO File=ASC$PSEUDO.:E05TSI                          TUE 07/29/97 09:41 Page:63
      596    13294    6                  AS_FIELD1.COUNT = K;
      597    13295    6                  IF AS_WILD_USER THEN CALL ASB$FLUSH_ERR;
      598    13296                       %SCREAM( ERR#=E$FEPSEUDO_DOESNT_EXIST, LEVEL=ERROR, MID='C' );
      599    13311    6                  GOTO SKIP_IT ;
      600    13312    6                  END ; /* Then do */
      601    13313                                                              /**/
      602    13314    6               DO K = NAME_POS TO 6 ;
      603    13315    6                  KL_DREC.KL_DREC_FEBLK.PSDOL.PSDO_NAME(K) =
      604    13316    6                       KL_DREC.KL_DREC_FEBLK.PSDOL.PSDO_NAME(K+1) ;
      605    13317    6                  KL_DREC.KL_DREC_FEBLK.PSDOL.UMAX(K) =
      606    13318    6                       KL_DREC.KL_DREC_FEBLK.PSDOL.UMAX(K+1) ;
      607    13319    6                  KL_DREC.KL_DREC_FEBLK.PSDOL.CMAX(K) =
      608    13320    6                       KL_DREC.KL_DREC_FEBLK.PSDOL.CMAX(K+1) ;
      609    13321    6                  KL_DREC.KL_DREC_FEBLK.PSDOL.HMAX(K) =
      610    13322    6                       KL_DREC.KL_DREC_FEBLK.PSDOL.HMAX(K+1) ;
      611    13323    6                  KL_DREC.KL_DREC_FEBLK.PSDOL.GMAX(K) =
      612    13324    6                       KL_DREC.KL_DREC_FEBLK.PSDOL.GMAX(K+1) ;
      613    13325    6                  END ; /* Do k */
      614    13326                                                              /**/
      615    13327    5               KL_DREC.KL_DREC_FEBLK.PSDOL.PSDO_NAME(7) = AS_BLANK ;
      616    13328    5               KL_DREC.KL_DREC_FEBLK.PSDOL.UMAX(7) = 0 ;
      617    13329    5               KL_DREC.KL_DREC_FEBLK.PSDOL.CMAX(7) = 0 ;
      618    13330    5               KL_DREC.KL_DREC_FEBLK.PSDOL.HMAX(7) = 0 ;
      619    13331    5               KL_DREC.KL_DREC_FEBLK.PSDOL.GMAX(7) = 0 ;
      620    13332    5               END;   /* If FEPSEUDO_STRC.TYPE = FEPSEUDO_REMOVE_VAL */
      621    13333                                                          /**/
      622    13334    5            ELSE DO;           /* FEPSEUDO_LIST_VAL */
      623    13335    5               IF NAME_POS > 7 AND BLANK_POS > 7
      624    13336    6               THEN DO;
      625    13337        /*E*  ERROR:    ASC-E$TOO_MANY_FEPSEUDOS-C
      626    13338              MESSAGE:  Too many FEPSEUDO names defined.
      627    13339              MESSAGE1: At most 8 FEPSEUDO names can be defined.
      628    13340        */
      629    13341    6                  IF AS_WILD_USER THEN CALL ASB$FLUSH_ERR;
      630    13342                       %SCREAM( ERR#=E$TOO_MANY_FEPSEUDOS, LEVEL=ERROR, MID='C' );
      631    13357    6                  GOTO SKIP_IT;
      632    13358    6                  END ; /* Then do */
PL6.E3A0      #002=ASC$FEPSEUDO File=ASC$PSEUDO.:E05TSI                          TUE 07/29/97 09:41 Page:64
      633    13359    5               IF NAME_POS < 8
      634    13360    5               THEN
      635    13361    5                  J = NAME_POS ;
      636    13362    6               ELSE DO;
      637    13363    6                  J = BLANK_POS ;
      638    13364    6                  KL_DREC.KL_DREC_FEBLK.PSDOL.PSDO_NAME(J) = FEPSEUDO_STRC.NAME ;
      639    13365    6                  END ; /* Then do */
      640    13366    5               PSDO$ = ADDR( KL_DREC.KL_DREC_FEBLK.PSDOL.UMAX(J)) ;
      641    13367    6               DO K = 0 TO 3;
      642    13368    6                  IF FEPSEUDO_STRC.VAL(K) > -1 THEN
      643    13369    6                     PSDO$STRC(K) = FEPSEUDO_STRC.VAL(K);
      644    13370    6                  END ; /* Do k */
      645    13371    5               END ;
      646    13372    5            IF NOT MOD_FLG AND AS_WILD_USER THEN DO;
      647    13373    5               FEPSEUDO$LIST.FEPSEUDO(FEPSEUDO$LIST.COUNT) = FEPSEUDO_STRC;
      648    13374    5               FEPSEUDO$LIST.COUNT = FEPSEUDO$LIST.COUNT + 1;
      649    13375    5               END;
      650    13376    4   SKIP_IT: ;
      651    13377    4            END ; /* Do case( code ) */
      652    13378    3         END ; /* Do i */
      653    13379    2      END ; /* Do while( more ) */
      654    13380                                                              /**/
      655    13381    1   RETURN;
      656    13382
      657    13383    1   FEPSEUDO_ERR: ;
      658    13384    1   ERR_CODE = P_PCB.ERROR ;
      659    13385    1   CALL ASH$ERROR( ERR_CODE ) ;
      660    13386    1   GOTO FEPSEUDO_LOOP;
      661    13387                                                              /**/
      662    13388    1   END   ASC$FEPSEUDO ;

PL6.E3A0      #002=ASC$FEPSEUDO File=ASC$PSEUDO.:E05TSI                          TUE 07/29/97 09:41 Page:65
--  Include file information  --

   AS_SUPER_R.:E05TOU  cannot be made into a system file and is referenced.
   CP_6.:E05TOU  cannot be made into a system file and is referenced.
   B_MACROS_C.:E05TOU  is referenced.
   XU_FORMAT_C.:E05TOU  is referenced.
   XU_MACRO_C.:E05TOU  is referenced.
   KL_SUPER_C.:E05TOU  is referenced.
   AS_PERR_C.:E05TOU  is referenced.
   AS_MAC_C.:E05TOU  cannot be made into a system file and is referenced.
   AS_SUBS_C.:E05TOU  is referenced.
   AS_SUPER_C.:E05TOU  is referenced.
   AS_ENTRIES_M.:E05TOU  is referenced.
   B$JIT_C.:E05TOU  was found in the system file and is never referenced.
   CP_6_C.:E05TOU  was found in the system file and is referenced.
      No diagnostics issued in procedure ASC$FEPSEUDO.

   Procedure ASC$FEPSEUDO requires 411 words for executable code.
   Procedure ASC$FEPSEUDO requires 32 words of local(AUTO) storage.

    No errors detected in file ASC$PSEUDO.:E05TSI    .

PL6.E3A0      #002=ASC$FEPSEUDO File=ASC$PSEUDO.:E05TSI                          TUE 07/29/97 09:41 Page:66

 Object Unit name= ASC$FEPSEUDO                               File name= ASC$PSEUDO.:E05TOU
 UTS= JUL 29 '97 09:41:36.20 TUE                              Compiler= PL-6/E31         Sev=      00
 SharedLib= :SHARED_SYSTEM                                    Alt SharedLib=


    ****  Control sections  ****

 Sect   Type Bound  Init  Size OctSiz  Section name(segment info)
    0   DCB   even  none     0      0  M$UC
    1   DCB   even  none     0      0  M$LO
    2  RoData even  UTS      4      4  ASC$FEPSEUDO
    3   Proc  even  none   411    633  ASC$FEPSEUDO
    4  RoData even  none    10     12  ASC$FEPSEUDO

    ****  Entry defs  ****

                              Check   Calling
                             calling  sequence
  Sect OctLoc Primary Altret sequence   type   Parms  Name
     3      0   yes            yes      Std        1  ASC$FEPSEUDO
PL6.E3A0      #002=ASC$FEPSEUDO File=ASC$PSEUDO.:E05TSI                          TUE 07/29/97 09:41 Page:67

  ****  Entry refs  ****

         Check        Calling
        calling       sequence
Altret sequence SRef   type   Args  Name
         yes          ~proc      0 XU_OUTPUT_OPTIONS
         yes           Std       2 ASB$READ_SI
 yes     yes           Std       3 ASB$SET_PROMPT
         yes           Std       0 ASH$HELP
         yes           Std       0 ASH$QUEST
         yes           Std       2 ASH$ERROR
         yes           Std       0 ASB$FLUSH_ERR
 yes     yes           Std       1 X$PARSE
         yes           Std       0 ASH$DQUEST
                       nStd      0 X66_AUTO_1
                       nStd      0 X66_ARET
                       Std       0 B_CONSPOOL_D

  ****  Data refs  ****

  Flags:  r = read only, s = secondary
Flgs Name                             Flgs Name                             Flgs Name
     M$UC                             r    AS_BLANK                         r    AS_TRUE
r    AS_FALSE                         r    AS_MODE                          r    AS_FE_MODE
     M$LO                                  IN_BUF                                NODE$
     CODE                                  ERR_CODE                              AS_FIELD1
     REMEM_VAR                             REM_FCMD                              ASA_BRKS_LOC
     AS_WILD_USER                          AS_FEPSEUDO_LIST$                     P_PCB
     KL_DREC                               AS_MOD_USER                           FEPSEUDO_SUB
     B_VECTNIL

  ****  Segment refs  ****

  Flags:  r = read only, s = secondary
Flgs Name                             Flgs Name                             Flgs Name
     ISSID
PL6.E3A0      #002=ASC$FEPSEUDO File=ASC$PSEUDO.:E05TSI                          TUE 07/29/97 09:41 Page:68


      337        1        /*T***********************************************************/
      338        2        /*T*                                                         */
      339        3        /*T* Copyright (c) Bull HN Information Systems Inc., 1997    */
      340        4        /*T*                                                         */
      341        5        /*T***********************************************************/
      342        6        /********************************************************************/
      343        7        /*                                                                   */
      344        8        /*                   ASC$FEPSEUDO          proc                        */
      345        9        /*                                                                   */
      346       10        /*********************************************************************/
      347       11                                                              /**/
      348       12        ASC$FEPSEUDO: PROC ( MOD_FLG );

     12  3 000000   000000 700200 xent  ASC$FEPSEUDO TSX0  ! X66_AUTO_1
         3 000001   000040 000001                    ZERO    32,1

      349       13                                                              /**/
      350       14
      351       15        /*********************************************************************/
      352       16        /*    Parameters      parameters      parameters      parameters     */
      353       17        /*********************************************************************/
      354       18    1   DCL MOD_FLG BIT(1) ALIGNED;
      355       19
      356       20        /********************************************************************/
      357       21        /*   Include files   include files   include files   include files   */
      358       22        /*********************************************************************/
      359       23                                                              /**/
      360       24        %INCLUDE      AS_ENTRIES_M;
      361     1074        %INCLUDE      AS_SUPER_C ;
      362     1509        %INCLUDE      AS_SUBS_C ;
      363     2923        %INCLUDE      AS_MAC_C ;
      364     3003        %INCLUDE      AS_PERR_C;
      365     3605        %INCLUDE      KL_SUPER_C ;
      366     6507        %INCLUDE      XU_MACRO_C ;
      367     9613        %INCLUDE      XU_FORMAT_C ;
      368     9775        %INCLUDE      B_MACROS_C ;
PL6.E3A0      #002=ASC$FEPSEUDO File=ASC$PSEUDO.:E05TSI                          TUE 07/29/97 09:41 Page:69
      369     9886        %INCLUDE      CP_6 ;
      370     9967        %INCLUDE      AS_SUPER_R ;
      371    12983                                                              /**/
      372    12984
      373    12985        /********************************************************************/
      374    12986        /*   Local based     local based     local based     local based     */
      375    12987        /*********************************************************************/
      376    12988                                                              /**/
      377    12989            %PARSE$OUT( NAME=P$NODE, STCLASS="BASED(NODE$)",
      378    12990                        NDTYPE=TYPE, NSUBLKS=SUBNODES) ;
      379    13035                                                              /**/
      380    13036    1   DCL PSDO$STRC(0:3) UBIN HALF HALIGNED BASED( PSDO$ ) ;
      381    13037    1   DCL 1 FEPSEUDO$LIST ALIGNED BASED( AS_FEPSEUDO_LIST$ ),
      382    13038    1          2 COUNT UBIN,
      383    13039    1          2 FEPSEUDO(0:0),
      384    13040    1             3 NAME CHAR(8),
      385    13041    1             3 UMAX SBIN HALF UNAL,
      386    13042    1             3 CMAX SBIN HALF UNAL,
      387    13043    1             3 HMAX SBIN HALF UNAL,
      388    13044    1             3 GMAX SBIN HALF UNAL,
      389    13045    1             3 TYPE UBIN HALF UNAL;
      390    13046
      391    13047        /********************************************************************/
      392    13048        /*   Entry dcls      entry dcls      entry dcls      entry dcls      */
      393    13049        /*********************************************************************/
      394    13050                                                              /**/
      395    13051    1   DCL X$PARSE ENTRY(1) ALTRET ;
      396    13052        %ASB$READ_SI ;
      397    13055        %ASB$SET_PROMPT ;
      398    13058        %ASH$HELP ;
      399    13061        %ASH$DQUEST ;
      400    13064        %ASH$QUEST ;
      401    13067        %ASH$ERROR ;
      402    13070        %ASB$FLUSH_ERR ;
      403    13073                                                              /**/
      404    13074
      405    13075        /*********************************************************************/
PL6.E3A0      #002=ASC$FEPSEUDO File=ASC$PSEUDO.:E05TSI                          TUE 07/29/97 09:41 Page:70
      406    13076        /*   Symrefs         symrefs         symrefs         symrefs         */
      407    13077        /*********************************************************************/
      408    13078                                                              /**/
      409    13079    1   DCL FEPSEUDO_SUB UBIN WORD SYMREF ;
      410    13080
      411    13081        /*********************************************************************/
      412    13082        /*   Auto data       auto data       auto data       auto data       */
      413    13083        /*********************************************************************/
      414    13084                                                              /**/
      415    13085    1   DCL PTR$ PTR ;
      416    13086    1   DCL PTR2$ PTR ;
      417    13087    1   DCL 1 VARY$STR BASED( PTR$ ) ALIGNED ,
      418    13088    1          2 CNT UBIN BYTE UNAL ,
      419    13089    1          2 TXT CHAR( VARY$STR.CNT ) UNAL ;
      420    13090    1   DCL I UBIN WORD ;
      421    13091    1   DCL J UBIN WORD ;
      422    13092    1   DCL K UBIN WORD ;
      423    13093    1   DCL CNT UBIN WORD ;
      424    13094    1   DCL NAME_POS UBIN WORD ;
      425    13095    1   DCL BLANK_POS UBIN WORD ;
      426    13096    1   DCL MODE UBIN WORD ;
      427    13097    1   DCL VAL UBIN WORD ;
      428    13098    1   DCL PSDO$ PTR ;
      429    13099    1   DCL SUBS UBIN WORD ;
      430    13100    1   DCL SUBNODES UBIN WORD ;
      431    13101    1   DCL CODE2 UBIN WORD ;
      432    13102    1   DCL ARS UBIN WORD ;
      433    13103    1   DCL MORE BIT(1) ;
      434    13104    1   DCL WORK$ PTR ;
      435    13105    1   DCL ROOT$ PTR ;
      436    13106    1   DCL WKSZ UBIN WORD ;
      437    13107    1   DCL WK_USED UBIN WORD ;
      438    13108    1   DCL T_NODE$ PTR ;
      439    13109    1   DCL 1 FEPSEUDO_STRC ALIGNED,
      440    13110    1          2 NAME CHAR(8) UNAL,
      441    13111    1          2 VAL(0:3) SBIN HALF UNAL,
      442    13112    1          2 TYPE UBIN HALF UNAL;
PL6.E3A0      #002=ASC$FEPSEUDO File=ASC$PSEUDO.:E05TSI                          TUE 07/29/97 09:41 Page:71
      443    13113
      444    13114        /********************************************************************/
      445    13115        /*   Static data     static data     static data     static data     */
      446    13116        /*********************************************************************/
      447    13117                                                              /**/
      448    13118
      449    13119        /********************************************************************/
      450    13120        /*   Procedure       procedure       procedure       procedure       */
      451    13121        /*********************************************************************/
      452    13122                                                              /**/
      453    13123        /*
      454    13124            ***            Begin procedure                    ***
      455    13125        */
      456    13126    2   IF MOD_FLG THEN DO;

  13126  3 000002   200003 470500                    LDP0    @MOD_FLG,,AUTO
         3 000003   000000 234100                    SZN     0,,PR0
         3 000004   000011 605000 3                  TPL     s:13131

      457    13127    2      IF FEPSEUDO$LIST.COUNT = 0 THEN RETURN;

  13127  3 000005   000000 471400 xsym               LDP1    AS_FEPSEUDO_LIST$
         3 000006   100000 235100                    LDA     0,,PR1
         3 000007   000054 601000 3                  TNZ     s:13148

  13127  3 000010   000000 702200 xent               TSX2  ! X66_ARET

      458    13128    2      END;
      459    13129    2   ELSE DO;

      460    13130                                                              /* Save some of P_PCB. */
      461    13131    2      WORK$ = P_PCB.WORK$ ;

  13131  3 000011   000002 236000 xsym               LDQ     P_PCB+2
         3 000012   200024 756100                    STQ     WORK$,,AUTO

      462    13132    2      WKSZ = P_PCB.WKSZ ;
PL6.E3A0      #002=ASC$FEPSEUDO File=ASC$PSEUDO.:E05TSI                          TUE 07/29/97 09:41 Page:72

  13132  3 000013   000005 235000 xsym               LDA     P_PCB+5
         3 000014   000022 771000                    ARL     18
         3 000015   200026 755100                    STA     WKSZ,,AUTO

      463    13133    2      WK_USED = P_PCB.WK_USED ;

  13133  3 000016   000010 235000 xsym               LDA     P_PCB+8
         3 000017   000022 771000                    ARL     18
         3 000020   200027 755100                    STA     WK_USED,,AUTO

      464    13134    2      ROOT$ = P_PCB.ROOT$ ;

  13134  3 000021   000001 236000 xsym               LDQ     P_PCB+1
         3 000022   200025 756100                    STQ     ROOT$,,AUTO

      465    13135                                                                 /* Bump past area used. */
      466    13136    2      P_PCB.WORK$ = PINCRW( WORK$, P_PCB.WK_USED ) ;

  13136  3 000023   000010 236000 xsym               LDQ     P_PCB+8
         3 000024   777777 376003                    ANQ     -1,DU
         3 000025   200024 036100                    ADLQ    WORK$,,AUTO
         3 000026   000002 756000 xsym               STQ     P_PCB+2

      467    13137    2      P_PCB.WKSZ = WKSZ - P_PCB.WK_USED ;

  13137  3 000027   200036 755100                    STA     FEPSEUDO_STRC+5,,AUTO
         3 000030   200026 236100                    LDQ     WKSZ,,AUTO
         3 000031   200036 136100                    SBLQ    FEPSEUDO_STRC+5,,AUTO
         3 000032   000000 620006                    EAX0    0,QL
         3 000033   000005 740000 xsym               STX0    P_PCB+5

      468    13138                                                                  /* Save NODE$ */
      469    13139    2      T_NODE$ = NODE$ ;

  13139  3 000034   000000 236000 xsym               LDQ     NODE$
         3 000035   200030 756100                    STQ     T_NODE$,,AUTO
PL6.E3A0      #002=ASC$FEPSEUDO File=ASC$PSEUDO.:E05TSI                          TUE 07/29/97 09:41 Page:73

      470    13140                                                                  /* Set ROOT$ */
      471    13141    2      P_PCB.ROOT$ = ADDR(FEPSEUDO_SUB) ;

  13141  3 000036   000000 236000 4                  LDQ     0
         3 000037   000001 756000 xsym               STQ     P_PCB+1

      472    13142    2      REMEMBER FEPSEUDO_LOOP IN REMEM_VAR ;

  13142  3 000040   000061 635000 3                  EAA     FEPSEUDO_LOOP
         3 000041   000000 452400 xsym               STP2    REMEM_VAR
         3 000042   000001 755000 xsym               STA     REMEM_VAR+1

      473    13143                                                                  /*  Set prompt  */
      474    13144    2      CALL ASB$SET_PROMPT ( %PROMPT_SUB ) ;

  13144  3 000043   000001 630400 4                  EPPR0   1
         3 000044   000017 631400 xsym               EPPR1   B_VECTNIL+15
         3 000045   000000 701000 xent               TSX1    ASB$SET_PROMPT
         3 000046   000000 011000                    NOP     0

      475    13145    2      AS_MOD_USER.FEPSEUDO = AS_TRUE;

  13145  3 000047   000000 236000 xsym               LDQ     AS_TRUE
         3 000050   000003 772000                    QRL     3
         3 000051   000051 676000 xsym               ERQ     AS_MOD_USER+41
         3 000052   040000 376003                    ANQ     16384,DU
         3 000053   000051 656000 xsym               ERSQ    AS_MOD_USER+41

      476    13146    2      END;

      477    13147
      478    13148    1   MORE = AS_TRUE;

  13148  3 000054   000000 236000 xsym               LDQ     AS_TRUE
         3 000055   400000 376003                    ANQ     -131072,DU
         3 000056   200023 756100                    STQ     MORE,,AUTO
PL6.E3A0      #002=ASC$FEPSEUDO File=ASC$PSEUDO.:E05TSI                          TUE 07/29/97 09:41 Page:74

      479    13149    2   DO WHILE (MORE) ;

  13149  3 000057   200023 234100                    SZN     MORE,,AUTO
         3 000060   000623 605000 3                  TPL     s:13381

      480    13150    2   FEPSEUDO_LOOP:
      481    13151    3      IF MOD_FLG THEN DO;

  13151  3 000061   200003 470500       FEPSEUDO_LO* LDP0    @MOD_FLG,,AUTO
         3 000062   000000 234100                    SZN     0,,PR0
         3 000063   000075 605000 3                  TPL     s:13157

      482    13152    3         CODE = FEPSEUDO_SOPT_V;

  13152  3 000064   000136 235007                    LDA     94,DL
         3 000065   000000 755000 xsym               STA     CODE

      483    13153    3         SUBNODES = FEPSEUDO$LIST.COUNT;

  13153  3 000066   000000 471400 xsym               LDP1    AS_FEPSEUDO_LIST$
         3 000067   100000 235100                    LDA     0,,PR1
         3 000070   200020 755100                    STA     SUBNODES,,AUTO

      484    13154    3         MORE = AS_FALSE;

  13154  3 000071   000000 236000 xsym               LDQ     AS_FALSE
         3 000072   400000 376003                    ANQ     -131072,DU
         3 000073   200023 756100                    STQ     MORE,,AUTO

      485    13155    3         END;

  13155  3 000074   000121 710000 3                  TRA     s:13163

      486    13156    3      ELSE DO;

      487    13157    3         CALL ASB$READ_SI(IN_BUF,ARS) ;         /* Read option line */
PL6.E3A0      #002=ASC$FEPSEUDO File=ASC$PSEUDO.:E05TSI                          TUE 07/29/97 09:41 Page:75

  13157  3 000075   200022 631500                    EPPR1   ARS,,AUTO
         3 000076   200037 451500                    STP1    FEPSEUDO_STRC+6,,AUTO
         3 000077   000002 236000 4                  LDQ     2
         3 000100   200036 756100                    STQ     FEPSEUDO_STRC+5,,AUTO
         3 000101   200036 630500                    EPPR0   FEPSEUDO_STRC+5,,AUTO
         3 000102   000020 631400 xsym               EPPR1   B_VECTNIL+16
         3 000103   000000 701000 xent               TSX1    ASB$READ_SI
         3 000104   000000 011000                    NOP     0

      488    13158    3         P_PCB.NCHARS = ARS ;

  13158  3 000105   200022 235100                    LDA     ARS,,AUTO
         3 000106   000011 755000 xsym               STA     P_PCB+9

      489    13159    3         CALL X$PARSE(P_PCB) ALTRET (FEPSEUDO_ERR) ;

  13159  3 000107   000003 630400 4                  EPPR0   3
         3 000110   000017 631400 xsym               EPPR1   B_VECTNIL+15
         3 000111   000000 701000 xent               TSX1    X$PARSE
         3 000112   000624 702000 3                  TSX2    FEPSEUDO_ERR

      490    13160    3         NODE$ = P_PCB.OUT$ ;

  13160  3 000113   000003 236000 xsym               LDQ     P_PCB+3
         3 000114   000000 756000 xsym               STQ     NODE$

      491    13161    3         SUBNODES = P$NODE.SUBNODES ;

  13161  3 000115   000000 470400 xsym               LDP0    NODE$
         3 000116   000001 236100                    LDQ     1,,PR0
         3 000117   000022 772000                    QRL     18
         3 000120   200020 756100                    STQ     SUBNODES,,AUTO

      492    13162    3         END;

      493    13163    3      DO I = 0 TO SUBNODES - 1 ;
PL6.E3A0      #002=ASC$FEPSEUDO File=ASC$PSEUDO.:E05TSI                          TUE 07/29/97 09:41 Page:76

  13163  3 000121   200006 450100                    STZ     I,,AUTO
         3 000122   000616 710000 3                  TRA     SKIP_IT+3

      494    13164    3         IF MOD_FLG THEN

  13164  3 000123   200003 470500                    LDP0    @MOD_FLG,,AUTO
         3 000124   000000 234100                    SZN     0,,PR0
         3 000125   000135 605000 3                  TPL     s:13167

      495    13165    3            FEPSEUDO_STRC = FEPSEUDO$LIST.FEPSEUDO(I);

  13165  3 000126   200006 236100                    LDQ     I,,AUTO
         3 000127   000022 402007                    MPY     18,DL
         3 000130   000000 471400 xsym               LDP1    AS_FEPSEUDO_LIST$
         3 000131   000100 100506                    MLR     fill='000'O
         3 000132   100001 000022                    ADSC9   1,Q,PR1                  cn=0,n=18
         3 000133   200031 000022                    ADSC9   FEPSEUDO_STRC,,AUTO      cn=0,n=18
         3 000134   000143 710000 3                  TRA     s:13168

      496    13166    3         ELSE
      497    13167    3            CODE = P$NODE.SUBLK$(I) -> P$NODE.CODE ;

  13167  3 000135   000000 471400 xsym               LDP1    NODE$
         3 000136   200006 720100                    LXL0    I,,AUTO
         3 000137   100003 473510                    LDP3    3,X0,PR1
         3 000140   300000 236100                    LDQ     0,,PR3
         3 000141   777777 376007                    ANQ     -1,DL
         3 000142   000000 756000 xsym               STQ     CODE

      498    13168    4         DO SELECT( CODE ) ;

  13168  3 000143   000000 236000 xsym               LDQ     CODE
         3 000144   000032 116007                    CMPQ    26,DL
         3 000145   000164 602000 3                  TNC     s:13168+17
         3 000146   000172 600000 3                  TZE     s:13172
         3 000147   000455 116007                    CMPQ    301,DL
PL6.E3A0      #002=ASC$FEPSEUDO File=ASC$PSEUDO.:E05TSI                          TUE 07/29/97 09:41 Page:77
         3 000150   000155 602000 3                  TNC     s:13168+10
         3 000151   000212 600000 3                  TZE     s:13186
         3 000152   000456 116007                    CMPQ    302,DL
         3 000153   000613 601000 3                  TNZ     SKIP_IT
         3 000154   000206 710000 3                  TRA     s:13183
         3 000155   000454 116007                    CMPQ    300,DL
         3 000156   000161 602000 3                  TNC     s:13168+14
         3 000157   000216 600000 3                  TZE     s:13189
         3 000160   000613 710000 3                  TRA     SKIP_IT
         3 000161   000136 116007                    CMPQ    94,DL
         3 000162   000613 601000 3                  TNZ     SKIP_IT
         3 000163   000223 710000 3                  TRA     s:13194
         3 000164   000014 116007                    CMPQ    12,DL
         3 000165   000613 602000 3                  TNC     SKIP_IT
         3 000166   000172 600000 3                  TZE     s:13172
         3 000167   000020 116007                    CMPQ    16,DL
         3 000170   000613 601000 3                  TNZ     SKIP_IT
         3 000171   000222 710000 3                  TRA     s:13191

      499    13169                                                              /**/
      500    13170    4            SELECT( END_VAL ,

      501    13171    4                 BLANK_LINE_VAL ) ;
      502    13172    4            ERR_CODE = '0'B ;

  13172  3 000172   000000 450000 xsym               STZ     ERR_CODE

      503    13173                                                              /* Restore P_PCB */
      504    13174    4            P_PCB.WORK$ = WORK$ ;

  13174  3 000173   200024 236100                    LDQ     WORK$,,AUTO
         3 000174   000002 756000 xsym               STQ     P_PCB+2

      505    13175    4            P_PCB.WKSZ = WKSZ ;

  13175  3 000175   200026 720100                    LXL0    WKSZ,,AUTO
         3 000176   000005 740000 xsym               STX0    P_PCB+5
PL6.E3A0      #002=ASC$FEPSEUDO File=ASC$PSEUDO.:E05TSI                          TUE 07/29/97 09:41 Page:78

      506    13176    4            P_PCB.WK_USED = WK_USED ;

  13176  3 000177   200027 721100                    LXL1    WK_USED,,AUTO
         3 000200   000010 741000 xsym               STX1    P_PCB+8

      507    13177    4            P_PCB.ROOT$ = ROOT$ ;

  13177  3 000201   200025 236100                    LDQ     ROOT$,,AUTO
         3 000202   000001 756000 xsym               STQ     P_PCB+1

      508    13178                                                              /* Restore NODE$ */
      509    13179    4            NODE$ = T_NODE$ ;

  13179  3 000203   200030 236100                    LDQ     T_NODE$,,AUTO
         3 000204   000000 756000 xsym               STQ     NODE$

      510    13180    4            RETURN ;

  13180  3 000205   000000 702200 xent               TSX2  ! X66_ARET

      511    13181                                                              /**/
      512    13182    4            SELECT( HELP_VAL ) ;

      513    13183    4            CALL ASH$HELP ;

  13183  3 000206   000002 631400 xsym               EPPR1   B_VECTNIL+2
         3 000207   000000 701000 xent               TSX1    ASH$HELP
         3 000210   000000 011000                    NOP     0
         3 000211   000613 710000 3                  TRA     SKIP_IT

      514    13184                                                                  /**/
      515    13185    4            SELECT( QUESTION_VAL ) ;

      516    13186    4            CALL ASH$QUEST ;

  13186  3 000212   000002 631400 xsym               EPPR1   B_VECTNIL+2
PL6.E3A0      #002=ASC$FEPSEUDO File=ASC$PSEUDO.:E05TSI                          TUE 07/29/97 09:41 Page:79
         3 000213   000000 701000 xent               TSX1    ASH$QUEST
         3 000214   000000 011000                    NOP     0
         3 000215   000613 710000 3                  TRA     SKIP_IT

      517    13187                                                                  /**/
      518    13188    4            SELECT( DQUESTION_VAL ) ;

      519    13189    4            CALL ASH$DQUEST ;

  13189  3 000216   000002 631400 xsym               EPPR1   B_VECTNIL+2
         3 000217   000000 701000 xent               TSX1    ASH$DQUEST
         3 000220   000000 011000                    NOP     0
         3 000221   000613 710000 3                  TRA     SKIP_IT

      520    13190                                                                  /**/
      521    13191    4            SELECT( EOL_VAL ) ;

  13191  3 000222   000613 710000 3                  TRA     SKIP_IT

      522    13192                                                              /**/
      523    13193    4            SELECT( FEPSEUDO_SOPT_V ) ;

      524    13194    5            IF NOT MOD_FLG THEN DO;

  13194  3 000223   000000 234100                    SZN     0,,PR0
         3 000224   000355 604000 3                  TMI     s:13266

      525    13195    5               PTR$ = P$NODE.SUBLK$(I) -> P$NODE.SUBLK$(0)

  13195  3 000225   000000 471400 xsym               LDP1    NODE$
         3 000226   200006 720100                    LXL0    I,,AUTO
         3 000227   100003 473510                    LDP3    3,X0,PR1
         3 000230   300003 474500                    LDP4    3,,PR3
         3 000231   400003 475500                    LDP5    3,,PR4
         3 000232   500003 236100                    LDQ     3,,PR5
         3 000233   200004 756100                    STQ     PTR$,,AUTO

PL6.E3A0      #002=ASC$FEPSEUDO File=ASC$PSEUDO.:E05TSI                          TUE 07/29/97 09:41 Page:80
      526    13196    5                    -> P$NODE.SUBLK$(0) -> P$NODE.SUBLK$(0) ;
      527    13197    5               PTR2$ = P$NODE.SUBLK$(I) -> P$NODE.SUBLK$( 1 ) ;

  13197  3 000234   300004 236100                    LDQ     4,,PR3
         3 000235   200005 756100                    STQ     PTR2$,,AUTO

      528    13198    5               FEPSEUDO_STRC.TYPE = PTR2$ -> P$NODE.CODE ;

  13198  3 000236   200005 476500                    LDP6    PTR2$,,AUTO
         3 000237   600000 721100                    LXL1    0,,PR6
         3 000240   200035 741100                    STX1    FEPSEUDO_STRC+4,,AUTO

      529    13199    5               IF VARY$STR.CNT > 8

  13199  3 000241   200004 477500                    LDP7    PTR$,,AUTO
         3 000242   700000 236100                    LDQ     0,,PR7
         3 000243   777000 376003                    ANQ     -512,DU
         3 000244   011000 116003                    CMPQ    4608,DU
         3 000245   000253 602000 3                  TNC     s:13222

      530    13200    6               THEN DO;

      531    13201        /*E*  ERROR:     ASC-E$FEPSEUDO_NAME_TOO_LONG-C
      532    13202              MESSAGE:  FEPSEUDO name too long.
      533    13203              MESSAGE1: FEPSEUDO names can be at most 8 characters long.
      534    13204        */
      535    13205                       %SCREAM( ERR#=E$FEPSEUDO_NAME_TOO_LONG, LEVEL=ERROR, MID='C' );

  13217  3 000246   000004 630400 4                  EPPR0   4
         3 000247   000017 631400 xsym               EPPR1   B_VECTNIL+15
         3 000250   000000 701000 xent               TSX1    ASH$ERROR
         3 000251   000000 011000                    NOP     0

      536    13220    6                  GOTO SKIP_IT;

  13220  3 000252   000613 710000 3                  TRA     SKIP_IT

PL6.E3A0      #002=ASC$FEPSEUDO File=ASC$PSEUDO.:E05TSI                          TUE 07/29/97 09:41 Page:81
      537    13221    6                  END ;   /*  Then do  */
      538    13222    5               FEPSEUDO_STRC.NAME = VARY$STR.TXT;

  13222  3 000253   700000 236100                    LDQ     0,,PR7
         3 000254   000033 772000                    QRL     27
         3 000255   000000 622006                    EAX2    0,QL
         3 000256   040100 100540                    MLR     fill='040'O
         3 000257   700000 200012                    ADSC9   0,,PR7                   cn=1,n=*X2
         3 000260   200031 000010                    ADSC9   FEPSEUDO_STRC,,AUTO      cn=0,n=8

      539    13223    6               DO J = 0 TO 3;

  13223  3 000261   200007 450100                    STZ     J,,AUTO

      540    13224    6                  FEPSEUDO_STRC.VAL(J) = -1;

  13224  3 000262   200007 235100                    LDA     J,,AUTO
         3 000263   000001 735000                    ALS     1
         3 000264   000105 101400                    MRL     fill='000'O
         3 000265   000027 000004 xsym               ADSC9   B_VECTNIL+23             cn=0,n=4
         3 000266   200033 000002                    ADSC9   FEPSEUDO_STRC+2,A,AUTO   cn=0,n=2

      541    13225    6                  END;

  13225  3 000267   200007 236100                    LDQ     J,,AUTO
         3 000270   000001 036007                    ADLQ    1,DL
         3 000271   200007 756100                    STQ     J,,AUTO
         3 000272   000004 116007                    CMPQ    4,DL
         3 000273   000262 602000 3                  TNC     s:13224

      542    13226    5               IF FEPSEUDO_STRC.TYPE = FEPSEUDO_LIST_VAL

  13226  3 000274   200035 220100                    LDX0    FEPSEUDO_STRC+4,,AUTO
         3 000275   000043 100003                    CMPX0   35,DU
         3 000276   000355 601000 3                  TNZ     s:13266

      543    13227    6               THEN DO;
PL6.E3A0      #002=ASC$FEPSEUDO File=ASC$PSEUDO.:E05TSI                          TUE 07/29/97 09:41 Page:82

      544    13228    6                  SUBS = PTR2$ -> P$NODE.SUBNODES ;

  13228  3 000277   200005 470500                    LDP0    PTR2$,,AUTO
         3 000300   000001 236100                    LDQ     1,,PR0
         3 000301   000022 772000                    QRL     18
         3 000302   200017 756100                    STQ     SUBS,,AUTO

      545    13229    7                  DO K = 0 TO SUBS-1 ;

  13229  3 000303   200010 450100                    STZ     K,,AUTO
         3 000304   000352 710000 3                  TRA     s:13261+3

      546    13230    7                     PTR$ = PTR2$ -> P$NODE.SUBLK$(K) ;

  13230  3 000305   200005 470500                    LDP0    PTR2$,,AUTO
         3 000306   200010 720100                    LXL0    K,,AUTO
         3 000307   000003 236110                    LDQ     3,X0,PR0
         3 000310   200004 756100                    STQ     PTR$,,AUTO

      547    13231    7                     MODE = PTR$ -> P$NODE.SUBLK$(0) -> P$NODE.CODE ;

  13231  3 000311   200004 471500                    LDP1    PTR$,,AUTO
         3 000312   100003 473500                    LDP3    3,,PR1
         3 000313   300000 236100                    LDQ     0,,PR3
         3 000314   777777 376007                    ANQ     -1,DL
         3 000315   200014 756100                    STQ     MODE,,AUTO

      548    13232    7                     PTR$ = PTR$ -> P$NODE.SUBLK$(1)

  13232  3 000316   100004 474500                    LDP4    4,,PR1
         3 000317   400003 475500                    LDP5    3,,PR4
         3 000320   500003 236100                    LDQ     3,,PR5
         3 000321   200004 756100                    STQ     PTR$,,AUTO

      549    13233    7                          -> P$NODE.SUBLK$(0)
      550    13234    7                          -> P$NODE.SUBLK$(0) ;
PL6.E3A0      #002=ASC$FEPSEUDO File=ASC$PSEUDO.:E05TSI                          TUE 07/29/97 09:41 Page:83
      551    13235    7                     CALL CHARBIN( VAL, VARY$STR.TXT ) ;

  13235  3 000322   200004 471500                    LDP1    PTR$,,AUTO
         3 000323   100000 236100                    LDQ     0,,PR1
         3 000324   000033 772000                    QRL     27
         3 000325   000000 621006                    EAX1    0,QL
         3 000326   000100 305540                    DTB
         3 000327   100000 230011                    NDSC9   0,,PR1                   cn=1,s=nosgn,sf=0,n=*X1
         3 000330   200036 000010                    NDSC9   FEPSEUDO_STRC+5,,AUTO    cn=0,s=lsgnf,sf=0,n=8
         3 000331   200037 235100                    LDA     FEPSEUDO_STRC+6,,AUTO
         3 000332   200015 755100                    STA     VAL,,AUTO

      552    13236    7                     IF VAL > 511

  13236  3 000333   001000 115007                    CMPA    512,DL
         3 000334   000342 602000 3                  TNC     s:13260

      553    13237    8                     THEN DO;

      554    13238        /*E*  ERROR:    ASC-E$FEPSEUDO_VAL_TOO_BIG-C
      555    13239              MESSAGE:  FEPSEUDO value too big.
      556    13240              MESSAGE1: FEPSEUDO value can be at most 511.
      557    13241        */
      558    13242                             %SCREAM( ERR#=E$FEPSEUDO_VAL_TOO_BIG, LEVEL=ERROR, MID='C' );

  13254  3 000335   000005 630400 4                  EPPR0   5
         3 000336   000017 631400 xsym               EPPR1   B_VECTNIL+15
         3 000337   000000 701000 xent               TSX1    ASH$ERROR
         3 000340   000000 011000                    NOP     0

      559    13257    8                        GOTO SKIP_IT;

  13257  3 000341   000613 710000 3                  TRA     SKIP_IT

      560    13258    8                        END ;        /* Then do */
      561    13259    7                     ELSE                    /* Set value */
      562    13260    7                        FEPSEUDO_STRC.VAL(MODE) = VAL;
PL6.E3A0      #002=ASC$FEPSEUDO File=ASC$PSEUDO.:E05TSI                          TUE 07/29/97 09:41 Page:84

  13260  3 000342   200014 236100                    LDQ     MODE,,AUTO
         3 000343   000001 736000                    QLS     1
         3 000344   000106 101500                    MRL     fill='000'O
         3 000345   200015 000004                    ADSC9   VAL,,AUTO                cn=0,n=4
         3 000346   200033 000002                    ADSC9   FEPSEUDO_STRC+2,Q,AUTO   cn=0,n=2

      563    13261    7                     END;  /* Do K=0 to SUBS-1 */

  13261  3 000347   200010 235100                    LDA     K,,AUTO
         3 000350   000001 035007                    ADLA    1,DL
         3 000351   200010 755100                    STA     K,,AUTO
         3 000352   200010 236100                    LDQ     K,,AUTO
         3 000353   200017 116100                    CMPQ    SUBS,,AUTO
         3 000354   000305 602000 3                  TNC     s:13230

      564    13262    6                  END;   /* Do case( CODE2 ) */

      565    13263    5               END;     /* If not MOD_FLG then do */

      566    13264                                                              /* Find name and
      567    13265                                                                 1ST. Blank    */
      568    13266    4            NAME_POS = 8 ;              /*  Set past range  */

  13266  3 000355   000010 235007                    LDA     8,DL
         3 000356   200012 755100                    STA     NAME_POS,,AUTO

      569    13267    4            BLANK_POS = 8 ;

  13267  3 000357   200013 755100                    STA     BLANK_POS,,AUTO

      570    13268    5            DO K = 0 TO 7 ;

  13268  3 000360   200010 450100                    STZ     K,,AUTO

      571    13269    5               IF KL_DREC.KL_DREC_FEBLK.PSDOL.PSDO_NAME(K) = FEPSEUDO_STRC.NAME

PL6.E3A0      #002=ASC$FEPSEUDO File=ASC$PSEUDO.:E05TSI                          TUE 07/29/97 09:41 Page:85
  13269  3 000361   200010 235100                    LDA     K,,AUTO
         3 000362   000004 735000                    ALS     4
         3 000363   040100 106405                    CMPC    fill='040'O
         3 000364   000070 000010 xsym               ADSC9   KL_DREC+56,A             cn=0,n=8
         3 000365   200031 000010                    ADSC9   FEPSEUDO_STRC,,AUTO      cn=0,n=8
         3 000366   000372 601000 3                  TNZ     s:13273

      572    13270    5               THEN
      573    13271    5                  NAME_POS = K ;  /* Found name */

  13271  3 000367   200010 236100                    LDQ     K,,AUTO
         3 000370   200012 756100                    STQ     NAME_POS,,AUTO
         3 000371   000403 710000 3                  TRA     s:13278

      574    13272    5               ELSE
      575    13273    5                  IF KL_DREC.KL_DREC_FEBLK.PSDOL.PSDO_NAME(K) = AS_BLANK

  13273  3 000372   040000 106405                    CMPC    fill='040'O
         3 000373   000070 000010 xsym               ADSC9   KL_DREC+56,A             cn=0,n=8
         3 000374   000000 000001 xsym               ADSC9   AS_BLANK                 cn=0,n=1
         3 000375   000403 601000 3                  TNZ     s:13278
         3 000376   200013 236100                    LDQ     BLANK_POS,,AUTO
         3 000377   000010 116007                    CMPQ    8,DL
         3 000400   000403 602000 3                  TNC     s:13278

      576    13274    5                       AND BLANK_POS > 7
      577    13275    5                  THEN
      578    13276                                                          /* Found 1ST blank */
      579    13277    5                     BLANK_POS = K ;

  13277  3 000401   200010 235100                    LDA     K,,AUTO
         3 000402   200013 755100                    STA     BLANK_POS,,AUTO

      580    13278    5               IF NAME_POS < 8 AND BLANK_POS < 8

  13278  3 000403   200012 235100                    LDA     NAME_POS,,AUTO
         3 000404   000010 115007                    CMPA    8,DL
PL6.E3A0      #002=ASC$FEPSEUDO File=ASC$PSEUDO.:E05TSI                          TUE 07/29/97 09:41 Page:86
         3 000405   000411 603000 3                  TRC     s:13281
         3 000406   200013 236100                    LDQ     BLANK_POS,,AUTO
         3 000407   000010 116007                    CMPQ    8,DL
         3 000410   000416 602000 3                  TNC     DONE_SEARCH

      581    13279    5               THEN
      582    13280    5                  GOTO DONE_SEARCH ;
      583    13281    5               END ; /* Do k */

  13281  3 000411   200010 236100                    LDQ     K,,AUTO
         3 000412   000001 036007                    ADLQ    1,DL
         3 000413   200010 756100                    STQ     K,,AUTO
         3 000414   000010 116007                    CMPQ    8,DL
         3 000415   000361 602000 3                  TNC     s:13269

  13278  3 000416                       DONE_SEARCH  null
      584    13282                                                              /**/
      585    13283    4   DONE_SEARCH: ;
      586    13284                                                              /**/
      587    13285    4            IF FEPSEUDO_STRC.TYPE = PSEUDO_REMOVE_VAL

  13285  3 000416   200035 220100                    LDX0    FEPSEUDO_STRC+4,,AUTO
         3 000417   000042 100003                    CMPX0   34,DU
         3 000420   000511 601000 3                  TNZ     s:13335

      588    13286    5            THEN DO;

      589    13287    5               IF NAME_POS = 8

  13287  3 000421   000010 115007                    CMPA    8,DL
         3 000422   000447 601000 3                  TNZ     s:13314

      590    13288    6               THEN DO;

      591    13289        /*E*  ERROR:    ASC-E$FEPSEUDO_DOESNT_EXIST-C
      592    13290              MESSAGE: FEPSEUDO %%U1 % does not exist.
      593    13291        */
PL6.E3A0      #002=ASC$FEPSEUDO File=ASC$PSEUDO.:E05TSI                          TUE 07/29/97 09:41 Page:87
      594    13292    6                  AS_FIELD1.TEXT = FEPSEUDO_STRC.NAME;

  13292  3 000423   040000 100500                    MLR     fill='040'O
         3 000424   200031 000010                    ADSC9   FEPSEUDO_STRC,,AUTO      cn=0,n=8
         3 000425   000000 200050 xsym               ADSC9   AS_FIELD1                cn=1,n=40

      595    13293    6                  CALL INDEX(K, AS_BLANK, FEPSEUDO_STRC.NAME );

  13293  3 000426   000000 124500                    SCM     mask='000'O
         3 000427   200031 000010                    ADSC9   FEPSEUDO_STRC,,AUTO      cn=0,n=8
         3 000430   000000 000001 xsym               ADSC9   AS_BLANK                 cn=0,n=1
         3 000431   200010 000100                    ARG     K,,AUTO

      596    13294    6                  AS_FIELD1.COUNT = K;

  13294  3 000432   200010 236100                    LDQ     K,,AUTO
         3 000433   000033 736000                    QLS     27
         3 000434   000000 552040 xsym               STBQ    AS_FIELD1,'40'O

      597    13295    6                  IF AS_WILD_USER THEN CALL ASB$FLUSH_ERR;

  13295  3 000435   000000 234000 xsym               SZN     AS_WILD_USER
         3 000436   000442 605000 3                  TPL     s:13308

  13295  3 000437   000002 631400 xsym               EPPR1   B_VECTNIL+2
         3 000440   000000 701000 xent               TSX1    ASB$FLUSH_ERR
         3 000441   000000 011000                    NOP     0

      598    13296                       %SCREAM( ERR#=E$FEPSEUDO_DOESNT_EXIST, LEVEL=ERROR, MID='C' );

  13308  3 000442   000006 630400 4                  EPPR0   6
         3 000443   000017 631400 xsym               EPPR1   B_VECTNIL+15
         3 000444   000000 701000 xent               TSX1    ASH$ERROR
         3 000445   000000 011000                    NOP     0

      599    13311    6                  GOTO SKIP_IT ;

PL6.E3A0      #002=ASC$FEPSEUDO File=ASC$PSEUDO.:E05TSI                          TUE 07/29/97 09:41 Page:88
  13311  3 000446   000613 710000 3                  TRA     SKIP_IT

      600    13312    6                  END ; /* Then do */
      601    13313                                                              /**/
      602    13314    6               DO K = NAME_POS TO 6 ;

  13314  3 000447   200010 755100                    STA     K,,AUTO
         3 000450   000476 710000 3                  TRA     s:13325+3

      603    13315    6                  KL_DREC.KL_DREC_FEBLK.PSDOL.PSDO_NAME(K) =

  13315  3 000451   200010 235100                    LDA     K,,AUTO
         3 000452   000002 735000                    ALS     2
         3 000453   200010 236100                    LDQ     K,,AUTO
         3 000454   000004 736000                    QLS     4
         3 000455   000002 735000                    ALS     2
         3 000456   040005 100406                    MLR     fill='040'O
         3 000457   000074 000010 xsym               ADSC9   KL_DREC+60,Q             cn=0,n=8
         3 000460   000070 000010 xsym               ADSC9   KL_DREC+56,A             cn=0,n=8

      604    13316    6                       KL_DREC.KL_DREC_FEBLK.PSDOL.PSDO_NAME(K+1) ;
      605    13317    6                  KL_DREC.KL_DREC_FEBLK.PSDOL.UMAX(K) =

  13317  3 000461   200010 235100                    LDA     K,,AUTO
         3 000462   000002 735000                    ALS     2
         3 000463   000076 220005 xsym               LDX0    KL_DREC+62,AL
         3 000464   000072 740005 xsym               STX0    KL_DREC+58,AL

      606    13318    6                       KL_DREC.KL_DREC_FEBLK.PSDOL.UMAX(K+1) ;
      607    13319    6                  KL_DREC.KL_DREC_FEBLK.PSDOL.CMAX(K) =

  13319  3 000465   000076 721005 xsym               LXL1    KL_DREC+62,AL
         3 000466   000072 441005 xsym               SXL1    KL_DREC+58,AL

      608    13320    6                       KL_DREC.KL_DREC_FEBLK.PSDOL.CMAX(K+1) ;
      609    13321    6                  KL_DREC.KL_DREC_FEBLK.PSDOL.HMAX(K) =

PL6.E3A0      #002=ASC$FEPSEUDO File=ASC$PSEUDO.:E05TSI                          TUE 07/29/97 09:41 Page:89
  13321  3 000467   000077 220005 xsym               LDX0    KL_DREC+63,AL
         3 000470   000073 740005 xsym               STX0    KL_DREC+59,AL

      610    13322    6                       KL_DREC.KL_DREC_FEBLK.PSDOL.HMAX(K+1) ;
      611    13323    6                  KL_DREC.KL_DREC_FEBLK.PSDOL.GMAX(K) =

  13323  3 000471   000077 721005 xsym               LXL1    KL_DREC+63,AL
         3 000472   000073 441005 xsym               SXL1    KL_DREC+59,AL

      612    13324    6                       KL_DREC.KL_DREC_FEBLK.PSDOL.GMAX(K+1) ;
      613    13325    6                  END ; /* Do k */

  13325  3 000473   200010 235100                    LDA     K,,AUTO
         3 000474   000001 035007                    ADLA    1,DL
         3 000475   200010 755100                    STA     K,,AUTO
         3 000476   000007 115007                    CMPA    7,DL
         3 000477   000451 602000 3                  TNC     s:13315

      614    13326                                                              /**/
      615    13327    5               KL_DREC.KL_DREC_FEBLK.PSDOL.PSDO_NAME(7) = AS_BLANK ;

  13327  3 000500   040000 100400                    MLR     fill='040'O
         3 000501   000000 000001 xsym               ADSC9   AS_BLANK                 cn=0,n=1
         3 000502   000124 000010 xsym               ADSC9   KL_DREC+84               cn=0,n=8

      616    13328    5               KL_DREC.KL_DREC_FEBLK.PSDOL.UMAX(7) = 0 ;

  13328  3 000503   000000 220003                    LDX0    0,DU
         3 000504   000126 740000 xsym               STX0    KL_DREC+86

      617    13329    5               KL_DREC.KL_DREC_FEBLK.PSDOL.CMAX(7) = 0 ;

  13329  3 000505   000126 440000 xsym               SXL0    KL_DREC+86

      618    13330    5               KL_DREC.KL_DREC_FEBLK.PSDOL.HMAX(7) = 0 ;

  13330  3 000506   000127 740000 xsym               STX0    KL_DREC+87
PL6.E3A0      #002=ASC$FEPSEUDO File=ASC$PSEUDO.:E05TSI                          TUE 07/29/97 09:41 Page:90

      619    13331    5               KL_DREC.KL_DREC_FEBLK.PSDOL.GMAX(7) = 0 ;

  13331  3 000507   000127 440000 xsym               SXL0    KL_DREC+87

      620    13332    5               END;   /* If FEPSEUDO_STRC.TYPE = FEPSEUDO_REMOVE_VAL */

  13332  3 000510   000573 710000 3                  TRA     s:13372

      621    13333                                                          /**/
      622    13334    5            ELSE DO;           /* FEPSEUDO_LIST_VAL */

      623    13335    5               IF NAME_POS > 7 AND BLANK_POS > 7

  13335  3 000511   000010 115007                    CMPA    8,DL
         3 000512   000530 602000 3                  TNC     s:13359
         3 000513   200013 236100                    LDQ     BLANK_POS,,AUTO
         3 000514   000010 116007                    CMPQ    8,DL
         3 000515   000530 602000 3                  TNC     s:13359

      624    13336    6               THEN DO;

      625    13337        /*E*  ERROR:    ASC-E$TOO_MANY_FEPSEUDOS-C
      626    13338              MESSAGE:  Too many FEPSEUDO names defined.
      627    13339              MESSAGE1: At most 8 FEPSEUDO names can be defined.
      628    13340        */
      629    13341    6                  IF AS_WILD_USER THEN CALL ASB$FLUSH_ERR;

  13341  3 000516   000000 234000 xsym               SZN     AS_WILD_USER
         3 000517   000523 605000 3                  TPL     s:13354

  13341  3 000520   000002 631400 xsym               EPPR1   B_VECTNIL+2
         3 000521   000000 701000 xent               TSX1    ASB$FLUSH_ERR
         3 000522   000000 011000                    NOP     0

      630    13342                       %SCREAM( ERR#=E$TOO_MANY_FEPSEUDOS, LEVEL=ERROR, MID='C' );

PL6.E3A0      #002=ASC$FEPSEUDO File=ASC$PSEUDO.:E05TSI                          TUE 07/29/97 09:41 Page:91
  13354  3 000523   000007 630400 4                  EPPR0   7
         3 000524   000017 631400 xsym               EPPR1   B_VECTNIL+15
         3 000525   000000 701000 xent               TSX1    ASH$ERROR
         3 000526   000000 011000                    NOP     0

      631    13357    6                  GOTO SKIP_IT;

  13357  3 000527   000613 710000 3                  TRA     SKIP_IT

      632    13358    6                  END ; /* Then do */
      633    13359    5               IF NAME_POS < 8

  13359  3 000530   000010 115007                    CMPA    8,DL
         3 000531   000534 603000 3                  TRC     s:13363

      634    13360    5               THEN
      635    13361    5                  J = NAME_POS ;

  13361  3 000532   200007 755100                    STA     J,,AUTO
         3 000533   000544 710000 3                  TRA     s:13366

      636    13362    6               ELSE DO;

      637    13363    6                  J = BLANK_POS ;

  13363  3 000534   200013 236100                    LDQ     BLANK_POS,,AUTO
         3 000535   200007 756100                    STQ     J,,AUTO

      638    13364    6                  KL_DREC.KL_DREC_FEBLK.PSDOL.PSDO_NAME(J) = FEPSEUDO_STRC.NAME ;

  13364  3 000536   200007 235100                    LDA     J,,AUTO
         3 000537   000002 735000                    ALS     2
         3 000540   000002 735000                    ALS     2
         3 000541   040005 100500                    MLR     fill='040'O
         3 000542   200031 000010                    ADSC9   FEPSEUDO_STRC,,AUTO      cn=0,n=8
         3 000543   000070 000010 xsym               ADSC9   KL_DREC+56,A             cn=0,n=8

PL6.E3A0      #002=ASC$FEPSEUDO File=ASC$PSEUDO.:E05TSI                          TUE 07/29/97 09:41 Page:92
      639    13365    6                  END ; /* Then do */

      640    13366    5               PSDO$ = ADDR( KL_DREC.KL_DREC_FEBLK.PSDOL.UMAX(J)) ;

  13366  3 000544   200007 236100                    LDQ     J,,AUTO
         3 000545   000024 736000                    QLS     20
         3 000546   000010 036000 4                  ADLQ    8
         3 000547   200016 756100                    STQ     PSDO$,,AUTO

      641    13367    6               DO K = 0 TO 3;

  13367  3 000550   200010 450100                    STZ     K,,AUTO

      642    13368    6                  IF FEPSEUDO_STRC.VAL(K) > -1 THEN

  13368  3 000551   200010 235100                    LDA     K,,AUTO
         3 000552   000001 735000                    ALS     1
         3 000553   000100 100505                    MLR     fill='000'O
         3 000554   200033 000002                    ADSC9   FEPSEUDO_STRC+2,A,AUTO   cn=0,n=2
         3 000555   200036 000004                    ADSC9   FEPSEUDO_STRC+5,,AUTO    cn=0,n=4
         3 000556   200036 236100                    LDQ     FEPSEUDO_STRC+5,,AUTO
         3 000557   000022 732000                    QRS     18
         3 000560   000000 116003                    CMPQ    0,DU
         3 000561   000566 604000 3                  TMI     s:13370

      643    13369    6                     PSDO$STRC(K) = FEPSEUDO_STRC.VAL(K);

  13369  3 000562   200016 470500                    LDP0    PSDO$,,AUTO
         3 000563   000105 100505                    MLR     fill='000'O
         3 000564   200033 000002                    ADSC9   FEPSEUDO_STRC+2,A,AUTO   cn=0,n=2
         3 000565   000000 000002                    ADSC9   0,A,PR0                  cn=0,n=2

      644    13370    6                  END ; /* Do k */

  13370  3 000566   200010 236100                    LDQ     K,,AUTO
         3 000567   000001 036007                    ADLQ    1,DL
         3 000570   200010 756100                    STQ     K,,AUTO
PL6.E3A0      #002=ASC$FEPSEUDO File=ASC$PSEUDO.:E05TSI                          TUE 07/29/97 09:41 Page:93
         3 000571   000004 116007                    CMPQ    4,DL
         3 000572   000551 602000 3                  TNC     s:13368

      645    13371    5               END ;

      646    13372    5            IF NOT MOD_FLG AND AS_WILD_USER THEN DO;

  13372  3 000573   200003 470500                    LDP0    @MOD_FLG,,AUTO
         3 000574   000000 234100                    SZN     0,,PR0
         3 000575   000613 604000 3                  TMI     SKIP_IT
         3 000576   000000 234000 xsym               SZN     AS_WILD_USER
         3 000577   000613 605000 3                  TPL     SKIP_IT

      647    13373    5               FEPSEUDO$LIST.FEPSEUDO(FEPSEUDO$LIST.COUNT) = FEPSEUDO_STRC;

  13373  3 000600   000000 471400 xsym               LDP1    AS_FEPSEUDO_LIST$
         3 000601   100000 235100                    LDA     0,,PR1
         3 000602   000044 733000                    LRS     36
         3 000603   000022 402007                    MPY     18,DL
         3 000604   000106 100500                    MLR     fill='000'O
         3 000605   200031 000022                    ADSC9   FEPSEUDO_STRC,,AUTO      cn=0,n=18
         3 000606   100001 000022                    ADSC9   1,Q,PR1                  cn=0,n=18

      648    13374    5               FEPSEUDO$LIST.COUNT = FEPSEUDO$LIST.COUNT + 1;

  13374  3 000607   000000 471400 xsym               LDP1    AS_FEPSEUDO_LIST$
         3 000610   100000 235100                    LDA     0,,PR1
         3 000611   000001 035007                    ADLA    1,DL
         3 000612   100000 755100                    STA     0,,PR1

      649    13375    5               END;

  13372  3 000613                       SKIP_IT      null
      650    13376    4   SKIP_IT: ;
      651    13377    4            END ; /* Do case( code ) */

      652    13378    3         END ; /* Do i */
PL6.E3A0      #002=ASC$FEPSEUDO File=ASC$PSEUDO.:E05TSI                          TUE 07/29/97 09:41 Page:94

  13378  3 000613   200006 235100                    LDA     I,,AUTO
         3 000614   000001 035007                    ADLA    1,DL
         3 000615   200006 755100                    STA     I,,AUTO
         3 000616   200006 236100                    LDQ     I,,AUTO
         3 000617   200020 116100                    CMPQ    SUBNODES,,AUTO
         3 000620   000123 602000 3                  TNC     s:13164

      653    13379    2      END ; /* Do while( more ) */

  13379  3 000621   200023 234100                    SZN     MORE,,AUTO
         3 000622   000061 604000 3                  TMI     FEPSEUDO_LOOP

      654    13380                                                              /**/
      655    13381    1   RETURN;

  13381  3 000623   000000 702200 xent               TSX2  ! X66_ARET

  13373  3 000624                       FEPSEUDO_ERR null
      656    13382
      657    13383    1   FEPSEUDO_ERR: ;
      658    13384    1   ERR_CODE = P_PCB.ERROR ;

  13384  3 000624   000006 236000 xsym               LDQ     P_PCB+6
         3 000625   000000 756000 xsym               STQ     ERR_CODE

      659    13385    1   CALL ASH$ERROR( ERR_CODE ) ;

  13385  3 000626   000011 630400 4                  EPPR0   9
         3 000627   000017 631400 xsym               EPPR1   B_VECTNIL+15
         3 000630   000000 701000 xent               TSX1    ASH$ERROR
         3 000631   000000 011000                    NOP     0

      660    13386    1   GOTO FEPSEUDO_LOOP;

  13386  3 000632   000061 710000 3                  TRA     FEPSEUDO_LOOP
      661    13387                                                              /**/
PL6.E3A0      #002=ASC$FEPSEUDO File=ASC$PSEUDO.:E05TSI                          TUE 07/29/97 09:41 Page:95
      662    13388    1   END   ASC$FEPSEUDO ;

PL6.E3A0      #002=ASC$FEPSEUDO File=ASC$PSEUDO.:E05TSI                          TUE 07/29/97 09:41 Page:96
--  Include file information  --

   AS_SUPER_R.:E05TOU  cannot be made into a system file and is referenced.
   CP_6.:E05TOU  cannot be made into a system file and is referenced.
   B_MACROS_C.:E05TOU  is referenced.
   XU_FORMAT_C.:E05TOU  is referenced.
   XU_MACRO_C.:E05TOU  is referenced.
   KL_SUPER_C.:E05TOU  is referenced.
   AS_PERR_C.:E05TOU  is referenced.
   AS_MAC_C.:E05TOU  cannot be made into a system file and is referenced.
   AS_SUBS_C.:E05TOU  is referenced.
   AS_SUPER_C.:E05TOU  is referenced.
   AS_ENTRIES_M.:E05TOU  is referenced.
   B$JIT_C.:E05TOU  was found in the system file and is never referenced.
   CP_6_C.:E05TOU  was found in the system file and is referenced.
      No diagnostics issued in procedure ASC$FEPSEUDO.
PL6.E3A0      #002=ASC$FEPSEUDO File=ASC$PSEUDO.:E05TSI                          TUE 07/29/97 09:41 Page:97

 **** Variables and constants ****

  ****  Auto variables  ****

  ****  Scalars and arrays  ****
OctLoc.c.b A Datatyp(siz) R M Lvl/name                 OctLoc.c.b A Datatyp(siz) R M Lvl/name

     3-0-0/w PTR         r     1 @MOD_FLG                  22-0-0/w UBIN        r     1 ARS
    13-0-0/w UBIN        r     1 BLANK_POS                 31-0-0/w STRC(162)   r     1 FEPSEUDO_STRC
     6-0-0/w UBIN        r     1 I                          7-0-0/w UBIN        r     1 J
    10-0-0/w UBIN        r     1 K                         14-0-0/w UBIN        r     1 MODE
    *0-0-0/w BIT         r     1 MOD_FLG                   23-0-0/b BIT         r     1 MORE
    12-0-0/w UBIN        r     1 NAME_POS                  16-0-0/w PTR         r     1 PSDO$
     4-0-0/w PTR         r     1 PTR$                       5-0-0/w PTR         r     1 PTR2$
    25-0-0/w PTR         r     1 ROOT$                     20-0-0/w UBIN        r     1 SUBNODES
    17-0-0/w UBIN        r     1 SUBS                      30-0-0/w PTR         r     1 T_NODE$
    15-0-0/w UBIN        r     1 VAL                       26-0-0/w UBIN        r     1 WKSZ
    27-0-0/w UBIN        r     1 WK_USED                   24-0-0/w PTR         r     1 WORK$

  ****  SYMREF variables  ****

  ****  Scalars and arrays  ****
OctLoc.c.b A Datatyp(siz) R M Lvl/name                 OctLoc.c.b A Datatyp(siz) R M Lvl/name

     0-0-0/c CHAR        r     1 AS_BLANK                   0-0-0/b BIT         r     1 AS_FALSE
     0-0-0/w PTR         r     1 AS_FEPSEUDO_LIST$          0-0-0/w STRC(369)   r     1 AS_FIELD1
     0-0-0/w STRC(1483)  r     1 AS_MOD_USER                0-0-0/b BIT         r     1 AS_TRUE
     0-0-0/b BIT         r     1 AS_WILD_USER               0-0-0/w UBIN        r     1 CODE
     0-0-0/b STRC        r     1 ERR_CODE                   0-0-0/w UBIN        r     1 FEPSEUDO_SUB
     0-0-0/c CHAR(255)   r     1 IN_BUF                     0-0-0/w STRC(6084)  r     1 KL_DREC
     0-0-0/w PTR         r     1 NODE$                      0-0-0/w STRC(504)   r     1 P_PCB
     0-0-0/d REMB        r     1 REMEM_VAR

  ****  BASED and DCB variables  ****

  ****  Scalars and arrays  ****
OctLoc.c.b A Datatyp(siz) R M Lvl/name                 OctLoc.c.b A Datatyp(siz) R M Lvl/name
PL6.E3A0      #002=ASC$FEPSEUDO File=ASC$PSEUDO.:E05TSI                          TUE 07/29/97 09:41 Page:98

     0-0-0/w STRC(198)   r     1 FEPSEUDO$LIST              0-0-0/w STRC(144)   r     1 P$NODE
     0-0-0/h UBIN(18)    r     1 PSDO$STRC(0:3)
     0-0-0/w ASTR(9)     r     1 VARY$STR


   Procedure ASC$FEPSEUDO requires 411 words for executable code.
   Procedure ASC$FEPSEUDO requires 32 words of local(AUTO) storage.

    No errors detected in file ASC$PSEUDO.:E05TSI    .
PL6.E3A0      #002=ASC$FEPSEUDO File=ASC$PSEUDO.:E05TSI                          TUE 07/29/97 09:41 Page:99
          *** CROSS REFERENCE LISTING ***
**     DENOTES     IDENTIFIER DEFINITION
<<                 IDENTIFIER'S VALUE SET
>>                 IDENTIFIER'S VALUE USED
<>                 IDENTIFIER SET AND/OR USED
--                 IDENTIFIER REFERENCED
PL6.E3A0      #002=ASC$FEPSEUDO File=ASC$PSEUDO.:E05TSI                          TUE 07/29/97 09:41 Page:100
          MINI XREF LISTING

ARS
     13102**DCL     13157<>CALL    13158>>ASSIGN
ASA_BRKS_LOC
     10131**DCL     10131--REDEF
ASB$FLUSH_ERR
     13071**DCL-ENT 13295--CALL    13341--CALL
ASB$READ_SI
     13053**DCL-ENT 13157--CALL
ASB$SET_PROMPT
     13056**DCL-ENT 13144--CALL
ASH$DQUEST
     13062**DCL-ENT 13189--CALL
ASH$ERROR
     13068**DCL-ENT 13217--CALL    13254--CALL    13308--CALL    13354--CALL    13385--CALL
ASH$HELP
     13059**DCL-ENT 13183--CALL
ASH$QUEST
     13065**DCL-ENT 13186--CALL
AS_BLANK
      9991**DCL     13273>>IF      13293>>CALLBLT 13327>>ASSIGN
AS_DEFAULT.BANNER_PERM
     10824**DCL     10825--REDEF
AS_DEFAULT.BUDGET.MACCT
     10729**DCL     10733--REDEF
AS_DEFAULT.BUDGET.MAX_PROJECTS
     10742**DCL     10745--REDEF
AS_DEFAULT.BUDGET.PACCUM
     10725**DCL     10727--REDEF
AS_DEFAULT.BUDGET.PMAXC
     10720**DCL     10722--REDEF
AS_DEFAULT.SETUP_CHRA.TXT
     10840**DCL     10841--REDEF   10842--REDEF
PL6.E3A0      #002=ASC$FEPSEUDO File=ASC$PSEUDO.:E05TSI                          TUE 07/29/97 09:41 Page:101
AS_DEFAULT_DREC.PASSWORD
     12094**DCL     12098--REDEF
AS_DEFAULT_DREC.RENAME
     12117**DCL     12118--REDEF
AS_DFLT.BANNER_PERM
     10646**DCL     10647--REDEF
AS_DFLT.BUDGET.MACCT
     10551**DCL     10555--REDEF
AS_DFLT.BUDGET.MAX_PROJECTS
     10564**DCL     10567--REDEF
AS_DFLT.BUDGET.PACCUM
     10547**DCL     10549--REDEF
AS_DFLT.BUDGET.PMAXC
     10542**DCL     10544--REDEF
AS_DFLT.SETUP_CHRA.TXT
     10662**DCL     10663--REDEF   10664--REDEF
AS_FALSE
      9991**DCL     13154>>ASSIGN
AS_FEPSEUDO_LIST$
     10137**DCL     13037--IMP-PTR 13127>>IF      13153>>ASSIGN  13165>>ASSIGN  13373>>ASSIGN  13373>>ASSIGN
     13374>>ASSIGN  13374>>ASSIGN
AS_FE_MODE
      9997**DCL      9998--REDEF
AS_FIELD1.COUNT
     10128**DCL     13294<<ASSIGN
AS_FIELD1.TEXT
     10128**DCL     13292<<ASSIGN
AS_MODE
      9994**DCL      9996--REDEF
AS_MOD_USER.ACCESS
     12859**DCL     12860--REDEF
AS_MOD_USER.BANNER
     12846**DCL     12847--REDEF
AS_MOD_USER.BANNER_PERM
     12848**DCL     12849--REDEF
AS_MOD_USER.BILL
PL6.E3A0      #002=ASC$FEPSEUDO File=ASC$PSEUDO.:E05TSI                          TUE 07/29/97 09:41 Page:102
     12854**DCL     12855--REDEF
AS_MOD_USER.CPROC
     12850**DCL     12851--REDEF
AS_MOD_USER.FEBILL
     12930**DCL     12931--REDEF
AS_MOD_USER.FECXTMEM
     12947**DCL     12948--REDEF
AS_MOD_USER.FEMINTS
     12932**DCL     12933--REDEF
AS_MOD_USER.FEMMEM
     12943**DCL     12944--REDEF
AS_MOD_USER.FEMTIME
     12941**DCL     12942--REDEF
AS_MOD_USER.FEPPRIV
     12938**DCL     12940--REDEF
AS_MOD_USER.FEPRIV
     12935**DCL     12937--REDEF
AS_MOD_USER.FEPSEUDO
     12949**DCL     13145<<ASSIGN
AS_MOD_USER.FORCE_BIT
     12844**DCL     12845--REDEF
AS_MOD_USER.KEY
     12926**DCL     12928--REDEF
AS_MOD_USER.LASTCPROC
     12852**DCL     12853--REDEF
AS_MOD_USER.LIMITS.DO_
     12900**DCL     12901--REDEF
AS_MOD_USER.LIMITS.FPOOLS
     12916**DCL     12917--REDEF
AS_MOD_USER.LIMITS.LO
     12896**DCL     12897--REDEF
AS_MOD_USER.LIMITS.MEM
     12892**DCL     12893--REDEF
AS_MOD_USER.LIMITS.MPRIO
     12920**DCL     12921--REDEF
AS_MOD_USER.LIMITS.PDIS
PL6.E3A0      #002=ASC$FEPSEUDO File=ASC$PSEUDO.:E05TSI                          TUE 07/29/97 09:41 Page:103
     12908**DCL     12909--REDEF
AS_MOD_USER.LIMITS.PO
     12904**DCL     12905--REDEF
AS_MOD_USER.LIMITS.TDIS
     12912**DCL     12913--REDEF
AS_MOD_USER.LIMITS.TIME
     12888**DCL     12889--REDEF
AS_MOD_USER.MAXENQ
     12869**DCL     12870--REDEF
AS_MOD_USER.PERM_BIT
     12842**DCL     12843--REDEF
AS_MOD_USER.PPRIV
     12864**DCL     12866--REDEF
AS_MOD_USER.PRIOB
     12871**DCL     12872--REDEF
AS_MOD_USER.PRIV
     12861**DCL     12863--REDEF
AS_MOD_USER.QUAN
     12867**DCL     12868--REDEF
AS_MOD_USER.SETUP
     12840**DCL     12841--REDEF
AS_PROJECT.BANNER_PERM
     11180**DCL     11181--REDEF
AS_PROJECT.BUDGET.MACCT
     11085**DCL     11089--REDEF
AS_PROJECT.BUDGET.MAX_PROJECTS
     11098**DCL     11101--REDEF
AS_PROJECT.BUDGET.PACCUM
     11081**DCL     11083--REDEF
AS_PROJECT.BUDGET.PMAXC
     11076**DCL     11078--REDEF
AS_PROJECT.SETUP_CHRA.TXT
     11196**DCL     11197--REDEF   11198--REDEF
AS_PROJECT_DFLT.BANNER_PERM
     11358**DCL     11359--REDEF
AS_PROJECT_DFLT.BUDGET.MACCT
PL6.E3A0      #002=ASC$FEPSEUDO File=ASC$PSEUDO.:E05TSI                          TUE 07/29/97 09:41 Page:104
     11263**DCL     11267--REDEF
AS_PROJECT_DFLT.BUDGET.MAX_PROJECTS
     11276**DCL     11279--REDEF
AS_PROJECT_DFLT.BUDGET.PACCUM
     11259**DCL     11261--REDEF
AS_PROJECT_DFLT.BUDGET.PMAXC
     11254**DCL     11256--REDEF
AS_PROJECT_DFLT.SETUP_CHRA.TXT
     11374**DCL     11375--REDEF   11376--REDEF
AS_PROJECT_DFLT_DREC.PASSWORD
     12580**DCL     12584--REDEF
AS_PROJECT_DFLT_DREC.RENAME
     12603**DCL     12604--REDEF
AS_PROJECT_DREC.PASSWORD
     12418**DCL     12422--REDEF
AS_PROJECT_DREC.RENAME
     12441**DCL     12442--REDEF
AS_PROJ_ADMIN.BANNER_PERM
     11002**DCL     11003--REDEF
AS_PROJ_ADMIN.BUDGET.MACCT
     10907**DCL     10911--REDEF
AS_PROJ_ADMIN.BUDGET.MAX_PROJECTS
     10920**DCL     10923--REDEF
AS_PROJ_ADMIN.BUDGET.PACCUM
     10903**DCL     10905--REDEF
AS_PROJ_ADMIN.BUDGET.PMAXC
     10898**DCL     10900--REDEF
AS_PROJ_ADMIN.SETUP_CHRA.TXT
     11018**DCL     11019--REDEF   11020--REDEF
AS_PROJ_ADMIN_DREC.PASSWORD
     12256**DCL     12260--REDEF
AS_PROJ_ADMIN_DREC.RENAME
     12279**DCL     12280--REDEF
AS_TRUE
      9991**DCL     13145>>ASSIGN  13148>>ASSIGN
AS_USERS.BANNER_PERM
PL6.E3A0      #002=ASC$FEPSEUDO File=ASC$PSEUDO.:E05TSI                          TUE 07/29/97 09:41 Page:105
     10468**DCL     10469--REDEF
AS_USERS.BUDGET.MACCT
     10373**DCL     10377--REDEF
AS_USERS.BUDGET.MAX_PROJECTS
     10386**DCL     10389--REDEF
AS_USERS.BUDGET.PACCUM
     10369**DCL     10371--REDEF
AS_USERS.BUDGET.PMAXC
     10364**DCL     10366--REDEF
AS_USERS.SETUP_CHRA.TXT
     10484**DCL     10485--REDEF   10486--REDEF
AS_USERS_CONSTANT.BANNER_PERM
     11536**DCL     11537--REDEF
AS_USERS_CONSTANT.BUDGET.MACCT
     11441**DCL     11445--REDEF
AS_USERS_CONSTANT.BUDGET.MAX_PROJECTS
     11454**DCL     11457--REDEF
AS_USERS_CONSTANT.BUDGET.PACCUM
     11437**DCL     11439--REDEF
AS_USERS_CONSTANT.BUDGET.PMAXC
     11432**DCL     11434--REDEF
AS_USERS_CONSTANT.SETUP_CHRA.TXT
     11552**DCL     11553--REDEF   11554--REDEF
AS_WILD_USER
     10136**DCL     13295>>IF      13341>>IF      13372>>IF
BLANK_POS
     13095**DCL     13267<<ASSIGN  13273>>IF      13277<<ASSIGN  13278>>IF      13335>>IF      13363>>ASSIGN
CODE
     10124**DCL     13152<<ASSIGN  13167<<ASSIGN  13168>>DOSELCT
DONE_SEARCH
     13278**LABEL   13280--GOTO
ERR_CODE
     10126**DCL     10127--REDEF   13172<<ASSIGN  13384<<ASSIGN  13385<>CALL
FEPSEUDO$LIST.COUNT
     13038**DCL     13127>>IF      13153>>ASSIGN  13373>>ASSIGN  13374<<ASSIGN  13374>>ASSIGN
FEPSEUDO$LIST.FEPSEUDO
PL6.E3A0      #002=ASC$FEPSEUDO File=ASC$PSEUDO.:E05TSI                          TUE 07/29/97 09:41 Page:106
     13039**DCL     13165>>ASSIGN  13373<<ASSIGN
FEPSEUDO_ERR
     13373**LABEL   13159--CALLALT
FEPSEUDO_LOOP
     13151**LABEL   13142--REMEMBR 13386--GOTO
FEPSEUDO_STRC
     13109**DCL     13165<<ASSIGN  13373>>ASSIGN
FEPSEUDO_STRC.NAME
     13110**DCL     13222<<ASSIGN  13269>>IF      13292>>ASSIGN  13293>>CALLBLT 13364>>ASSIGN
FEPSEUDO_STRC.TYPE
     13112**DCL     13198<<ASSIGN  13226>>IF      13285>>IF
FEPSEUDO_STRC.VAL
     13111**DCL     13224<<ASSIGN  13260<<ASSIGN  13368>>IF      13369>>ASSIGN
FEPSEUDO_SUB
     13079**DCL     13141--ASSIGN
I
     13090**DCL     13163<<DOINDEX 13165>>ASSIGN  13167>>ASSIGN  13195>>ASSIGN  13197>>ASSIGN
IN_BUF
     10122**DCL     13157<>CALL
J
     13091**DCL     13223<<DOINDEX 13224>>ASSIGN  13361<<ASSIGN  13363<<ASSIGN  13364>>ASSIGN  13366>>ASSIGN
K
     13092**DCL     13229<<DOINDEX 13230>>ASSIGN  13268<<DOINDEX 13269>>IF      13271>>ASSIGN  13273>>IF
     13277>>ASSIGN  13293<<CALLBLT 13294>>ASSIGN  13314<<DOINDEX 13315>>ASSIGN  13315>>ASSIGN  13317>>ASSIGN
     13317>>ASSIGN  13319>>ASSIGN  13319>>ASSIGN  13321>>ASSIGN  13321>>ASSIGN  13323>>ASSIGN  13323>>ASSIGN
     13367<<DOINDEX 13368>>IF      13369>>ASSIGN  13369>>ASSIGN
KL_DEFAULT.PASSWORD
     12742**DCL     12746--REDEF
KL_DEFAULT.RENAME
     12765**DCL     12766--REDEF
KL_DFLT.PASSWORD
     11932**DCL     11936--REDEF
KL_DFLT.RENAME
     11955**DCL     11956--REDEF
KL_DREC.KL_DREC_FEBLK.PSDOL.CMAX
     11850**DCL     13319<<ASSIGN  13319>>ASSIGN  13329<<ASSIGN
PL6.E3A0      #002=ASC$FEPSEUDO File=ASC$PSEUDO.:E05TSI                          TUE 07/29/97 09:41 Page:107
KL_DREC.KL_DREC_FEBLK.PSDOL.GMAX
     11852**DCL     13323<<ASSIGN  13323>>ASSIGN  13331<<ASSIGN
KL_DREC.KL_DREC_FEBLK.PSDOL.HMAX
     11851**DCL     13321<<ASSIGN  13321>>ASSIGN  13330<<ASSIGN
KL_DREC.KL_DREC_FEBLK.PSDOL.PSDO_NAME
     11848**DCL     13269>>IF      13273>>IF      13315<<ASSIGN  13315>>ASSIGN  13327<<ASSIGN  13364<<ASSIGN
KL_DREC.KL_DREC_FEBLK.PSDOL.UMAX
     11849**DCL     13317<<ASSIGN  13317>>ASSIGN  13328<<ASSIGN  13366--ASSIGN
KL_DREC.PASSWORD
     11770**DCL     11774--REDEF
KL_DREC.RENAME
     11793**DCL     11794--REDEF
KL_DREC_CNT.PASSWORD
     11657**DCL     11661--REDEF
KL_DREC_CNT.RENAME
     11680**DCL     11681--REDEF
MODE
     13096**DCL     13231<<ASSIGN  13260>>ASSIGN
MOD_FLG
        18**DCL        12--PROC    13126>>IF      13151>>IF      13164>>IF      13194>>IF      13372>>IF
MORE
     13103**DCL     13148<<ASSIGN  13149>>DOWHILE 13154<<ASSIGN
NAME_POS
     13094**DCL     13266<<ASSIGN  13271<<ASSIGN  13278>>IF      13287>>IF      13314>>DOINDEX 13335>>IF
     13359>>IF      13361>>ASSIGN
NODE$
     10124**DCL     12996--IMP-PTR 13139>>ASSIGN  13160<<ASSIGN  13161>>ASSIGN  13167>>ASSIGN  13179<<ASSIGN
     13195>>ASSIGN  13197>>ASSIGN
P$NODE.CODE
     13004**DCL     13167>>ASSIGN  13198>>ASSIGN  13231>>ASSIGN
P$NODE.SUBLK$
     13029**DCL     13167>>ASSIGN  13195>>ASSIGN  13195>>ASSIGN  13195>>ASSIGN  13195>>ASSIGN  13197>>ASSIGN
     13197>>ASSIGN  13230>>ASSIGN  13231>>ASSIGN  13232>>ASSIGN  13232>>ASSIGN  13232>>ASSIGN
P$NODE.SUBNODES
     13008**DCL     13161>>ASSIGN  13228>>ASSIGN
PROJ_KEY.TEXT
PL6.E3A0      #002=ASC$FEPSEUDO File=ASC$PSEUDO.:E05TSI                          TUE 07/29/97 09:41 Page:108
     10004**DCL     10004--REDEF
PROJ_KEY.TXT.PROJECT
     10004**DCL     10004--REDEF
PSDO$
     13098**DCL     13036--IMP-PTR 13366<<ASSIGN  13369>>ASSIGN
PSDO$STRC
     13036**DCL     13369<<ASSIGN
PTR$
     13085**DCL     13087--IMP-PTR 13195<<ASSIGN  13199>>IF      13222>>ASSIGN  13222>>ASSIGN  13230<<ASSIGN
     13231>>ASSIGN  13232<<ASSIGN  13232>>ASSIGN  13235>>CALLBLT 13235>>CALLBLT
PTR2$
     13086**DCL     13197<<ASSIGN  13198>>ASSIGN  13228>>ASSIGN  13230>>ASSIGN
P_PCB
     10159**DCL     13159<>CALL
P_PCB.ERROR
     10263**DCL     13384>>ASSIGN
P_PCB.NCHARS
     10306**DCL     13158<<ASSIGN
P_PCB.OUT$
     10172**DCL     13160>>ASSIGN
P_PCB.ROOT$
     10164**DCL     13134>>ASSIGN  13141<<ASSIGN  13177<<ASSIGN
P_PCB.WKSZ
     10189**DCL     13132>>ASSIGN  13137<<ASSIGN  13175<<ASSIGN
P_PCB.WK_USED
     10292**DCL     13133>>ASSIGN  13136>>ASSIGN  13137>>ASSIGN  13176<<ASSIGN
P_PCB.WORK$
     10168**DCL     13131>>ASSIGN  13136<<ASSIGN  13174<<ASSIGN
REMEM_VAR
     10130**DCL     10130--REDEF   13142<<REMEMBR
REM_FCMD
     10130**DCL     10131--REDEF
ROOT$
     13105**DCL     13134<<ASSIGN  13177>>ASSIGN
SKIP_IT
     13372**LABEL   13220--GOTO    13257--GOTO    13311--GOTO    13357--GOTO
PL6.E3A0      #002=ASC$FEPSEUDO File=ASC$PSEUDO.:E05TSI                          TUE 07/29/97 09:41 Page:109
SUBNODES
     13100**DCL     13153<<ASSIGN  13161<<ASSIGN  13163>>DOINDEX
SUBS
     13099**DCL     13228<<ASSIGN  13229>>DOINDEX
T_NODE$
     13108**DCL     13139<<ASSIGN  13179>>ASSIGN
USERS_KEY.TEXT
     10001**DCL     10002--REDEF   10002--REDEF   10002--REDEF   10003--REDEF
VAL
     13097**DCL     13235<<CALLBLT 13236>>IF      13260>>ASSIGN
VARY$STR.CNT
     13088**DCL     13089--IMP-SIZ 13199>>IF      13222>>ASSIGN  13235>>CALLBLT
VARY$STR.TXT
     13089**DCL     13222>>ASSIGN  13235>>CALLBLT
WKSZ
     13106**DCL     13132<<ASSIGN  13137>>ASSIGN  13175>>ASSIGN
WK_USED
     13107**DCL     13133<<ASSIGN  13176>>ASSIGN
WORK$
     13104**DCL     13131<<ASSIGN  13136>>ASSIGN  13174>>ASSIGN
X$PARSE
     13051**DCL-ENT 13159--CALL
