PL6.E3A0      #001=ASD$BUILD_PRO File=ASD$BUILD_PRO.:E05TSI                      TUE 07/29/97 09:44 Page:1
        1        1        /*M*  ASD$BUILD_PRO:  Builds default records for the :PRO. */
        2        2        /*T***********************************************************/
        3        3        /*T*                                                         */
        4        4        /*T* Copyright (c) Bull HN Information Systems Inc., 1997    */
        5        5        /*T*                                                         */
        6        6        /*T***********************************************************/
        7        7        /*X*  DMC,DMR,CCC,PLM=0,IND=3,CTI=5,DCI=6,IAD=0,DTI=0,IDT=0,ENI=3,
        8        8              ECU=3,CSU=3,SDI=3                                           */
        9        9
       10       10
       11       11        ASD$BUILD_PRO: PROC( PRO_BUF, P_ARS );
       12       12
       13       13        /********************************************************************/
       14       14        /*   Include files   include files   include files   include files   */
       15       15        /*********************************************************************/
       16       16
       17       17        %INCLUDE           AS_ENTRIES_M;
       18     1067        %INCLUDE           AS_SUPER_C ;
       19     1502        %INCLUDE           AS_SUBS_C ;
       20     2916        %INCLUDE           AS_MAC_C ;
       21     2996        %INCLUDE           AS_SSUBS_C;
       22     3088        %INCLUDE           AS_PERR_C ;
       23     3690        %INCLUDE           AS_FUNKEY_DEFS_C;
       24     3795        %INCLUDE           CP_6 ;
       25     3876        %INCLUDE           CP_6_SUBS;
       26     4416        %INCLUDE           KV_PRMID_E ;
       27     4590              %KV_PRMID_E ;
       28     4746        %INCLUDE           KL_SUPER_C ;
       29     7648        %INCLUDE           XU_MACRO_C ;
       30    10754        %INCLUDE           XU_FORMAT_C ;
       31    10916        %INCLUDE           B_ERRORS_C ;
       32    12043        %INCLUDE           XG_PROFILE_C ;
       33    12597        %INCLUDE           XG_SUBS_C ;
       34    13091        %INCLUDE           AS_SUPER_R ;
       35    16107
       36    16108
       37    16109        /********************************************************************/
PL6.E3A0      #001=ASD$BUILD_PRO File=ASD$BUILD_PRO.:E05TSI                      TUE 07/29/97 09:44 Page:2
       38    16110        /*   Params       params      params      params      params        */
       39    16111        /*********************************************************************/
       40    16112
       41    16113    1   DCL PRO_BUF CHAR(AS_PRO_BUF_SIZEC);
       42    16114    1   DCL P_ARS   UBIN;
       43    16115
       44    16116        /********************************************************************/
       45    16117        /*   Static data     static data     static data     static data     */
       46    16118        /*********************************************************************/
       47    16119
       48    16120        %LIST ;
       49    16121        %KL_PHDR( NAME = PRO_HDR ,
       50    16122                  STCLASS = STATIC ) ;
             16123         %LSET LISTDIR='0'B;
             16135    1   DCL 1 PRO_HDR STATIC,
             16136    1         2 TTYP UBIN BYTE UNAL INIT(2)/**/,
             16137    1         2 WIDTH UBIN BYTE UNAL INIT(80)/**/,
             16138    1         2 LINES UBIN HALF UNAL INIT(38)/**/,
             16139    1         2 ATTR,
             16140    1           3 * BIT(9) UNAL INIT('0'B)/**/,
             16141    1           3 GRLGL BIT(1) UNAL INIT('0'B)/**/,
             16142    1           3 TRANSLGL BIT(1) UNAL INIT('0'B)/**/,
             16143    1           3 NOXLATE BIT(1) UNAL INIT('0'B)/**/,
             16144    1           3 UPPERCASE BIT(1) UNAL INIT('1'B)/**/,
             16145    1           3 NATL BIT(1) UNAL INIT('0'B)/**/,
             16146    1           3 TRUOVRPRT BIT(1) UNAL INIT('1'B)/**/,
             16147    1           3 APL BIT(1) UNAL INIT('0'B)/**/,
             16148    1           3 BIN BIT(1) UNAL INIT('0'B)/**/,
             16149    1           3 LCASE BIT(1) UNAL INIT('1'B)/**/,
             16150    1         2 IO UNAL,
             16151    1           3 INPUT BIT(1) INIT('1'B)/**/,
             16152    1           3 OUTPUT BIT(1) INIT('1'B)/**/,
             16153    1         2 IMP# UBIN(7) UNAL INIT(0)/**/,
             16154    1         2 DDEV,
             16155    1           3 LP BIT(1) UNAL INIT('1'B)/**/,
             16156    1           3 CP BIT(1) UNAL INIT('0'B)/**/,
             16157    1           3 IC BIT(1) UNAL INIT('1'B)/**/,
PL6.E3A0      #001=ASD$BUILD_PRO File=ASD$BUILD_PRO.:E05TSI                      TUE 07/29/97 09:44 Page:3
             16158    1           3 GRAPHICS_OK BIT(1) UNAL INIT('0'B)/**/,
             16159    1           3 * BIT(5) UNAL INIT('0'B)/**/,
             16160    1         2 GR_FPRG CHAR(64) UNAL INIT(' ')/**/,
             16161    1         2 INFO BIT(72) INIT('0'B)/**/;
       51    16163        %XG$PROFILE ( PRON = GRA_REC ,
       52    16164                      STCLASS = STATIC ) ;
             16165        %LSET STR=CONCAT(TEXTCHAR(STCLASS),'        ');
             16166        %IF (SUBSTR(STR,0,6)='STATIC') OR
             16167        (SUBSTR(STR,0,8)='CONSTANT') OR
             16168        (SUBSTR(STR,0,3)='EXT');
             16169        %LSET INIT=CHARTEXT('INIT');
             16170        %LSET COM=CHARTEXT(' ');
             16171        %LSET ARRAYLEN = 63;   /* 0:63 IS MAX LEN FOR THE ESCAPE ARRAY */
             16172        %ELSE;
             16176        %ENDIF;
             16177    1   DCL 1 PRON STCLASS UNAL,
             16178             /*K*  GRAPHICS PROFILE NAME   */
             16179    1         2 GLOBAL_COLORS UBIN %INIT(GLBL_COLRS)%CHARTEXT('/**/') ALIGNED,
             16180                  /*K*  GLOBAL_COLORS    the maximum number of colors
             16181                       that this device can generate
             16182                            range  1 - 999,999,999
             16183                                 default - 999999999                     */
             16184    1         2 GLOBAL_INTENSITIES UBIN %INIT(GLBL_INTNS)%CHARTEXT('/**/') ALIGNED,
             16185                  /*K*  GLOBAL_INTENSITIES   the maximum number of different
             16186                       levels of intensity this device and driver support
             16187                            range  1 - 999,999,999
             16188                                 default - 999999999                      */
             16189    1         2  MAX_PICK_ID  UBIN  %INIT(MAX_PICK%%COM)%CHARTEXT('/**/')   ALIGNED,
             16190                  /*K*  MAX_PICK_ID   the maximum number of pick id's
             16191                       supported by this device
             16192                            range  0 - 32767
             16193                                 default - 32767                         */
             16194    1         2  X_PER_CM  UBIN    %INIT(X_SPACE)%CHARTEXT('/**/')   ALIGNED,
             16195                  /*K* X_PER_CM  the addressable units of the view
             16196                       surface in X per centimeter
             16197                            range  0 - 4095
             16198                                 default - 4095                          */
PL6.E3A0      #001=ASD$BUILD_PRO File=ASD$BUILD_PRO.:E05TSI                      TUE 07/29/97 09:44 Page:4
             16199    1         2  Y_PER_CM  UBIN    %INIT(Y_SPACE)%CHARTEXT('/**/')   ALIGNED,
             16200                  /*K* Y_PER_CM  the addressable units of the view
             16201                       surface in Y per centimeter
             16202                            range  0 - 4095
             16203                                 default - 4095                          */
             16204    1         2  Z_PER_CM  UBIN    %INIT(Z_SPACE)%CHARTEXT('/**/')   ALIGNED,
             16205                  /*K* Z_PER_CM  the addressable units of the view
             16206                       surface in Z per centimeter
             16207                            range  0 - 4095
             16208                                 default - 4095                          */
             16209    1         2  NDC_WIDTH_ADDR_SPACE   UBIN   %INIT(NDC_WIDTH)%CHARTEXT('/**/')   ALIGNED,
             16210                  /*K*  NDC_WIDTH_ADDR_SPACE  the width of NDC space
             16211                       in addressable units.
             16212                            range  0 - 999,999,999
             16213                                 default - 999999999                     */
             16214    1         2  NDC_HEIGHT_ADDR_SPACE   UBIN   %INIT(NDC_HEIGHT)%CHARTEXT('/**/')   ALIGNED
             16214                  ,
             16215                  /*K*  NDC_HEIGHT_ADDR_SPACE  the height of NDC space
             16216                       in addressable units.
             16217                            range  0 - 999,999,999
             16218                                 default - 999999999                     */
             16219    1         2  NDC_DEPTH_ADDR_SPACE   UBIN   %INIT(NDC_DEPTH)%CHARTEXT('/**/')   ALIGNED,
             16220                  /*K*  NDC_DEPTH_ADDR_SPACE  the depth of NDC space
             16221                       in addressable units.
             16222                            range  0 - 999,999,999
             16223                                 default - 999999999                     */
             16224    1         2  NDC_WIDTH_CHAR_POS   UBIN   %INIT(NDC_WIDTH_CHARS)%CHARTEXT('/**/') ALIGNED
             16224                  ,
             16225                  /*K*  NDC_WIDTH_CHAR_POS    the width of NDC space
             16226                       in addressable character positions.
             16227                            range  0 - 999,999,999
             16228                                 default - 999999999                     */
             16229    1         2  NDC_HEIGHT_CHAR_POS     UBIN   %INIT(NDC_HEIGHT_CHARS)%CHARTEXT('/**/')
             16229                  ALIGNED,
             16230                  /*K*  NDC_HEIGHT_CHAR_POS    the height of NDC space
             16231                       in addressable character positions.
             16232                            range  0 - 999,999,999
PL6.E3A0      #001=ASD$BUILD_PRO File=ASD$BUILD_PRO.:E05TSI                      TUE 07/29/97 09:44 Page:5
             16233                                 default - 999999999                     */
             16234    1         2  NDC_DEPTH_CHAR_POS     UBIN   %INIT(NDC_DEPTH_CHARS)%CHARTEXT('/**/')
             16234                  ALIGNED,
             16235                  /*K*  NDC_DEPTH_CHAR_POS    the depth of NDC space
             16236                       in addressable character positions.
             16237                            range  0 - 999,999,999
             16238                                 default - 999999999                     */
             16239    1         2  WIDTH_USABLE   UBIN   %INIT(WIDTH_USE)%CHARTEXT('/**/')   ALIGNED,
             16240                  /*K*  WIDTH_USABLE  the width of the usable display
             16241                       in centimeters
             16242                            range  0 - 999,999
             16243                                 default - 999999                        */
             16244    1         2  HEIGHT_USABLE       UBIN   %INIT(HEIGHT_USE)%CHARTEXT('/**/')   ALIGNED,
             16245                  /*K*  HEIGHT_USABLE     the height of usable display
             16246                       in centimeters
             16247                            range  0 - 999,999
             16248                                 default - 999999                        */
             16249    1         2  DEPTH_USABLE       UBIN   %INIT(DEPTH_USE)%CHARTEXT('/**/')   ALIGNED,
             16250                  /*K*  DEPTH_USABLE     the depth of usable display
             16251                       in centimeters
             16252                            range  0 - 999,999
             16253                                 default - 999999                        */
             16254    1         2  NDC_WIDTH_CURRENT   UBIN HALF   %INIT(NDC_WIDTH_CURR%%COM)%CHARTEXT('/**/')
             16254                  HALIGNED,
             16255                  /*K*  NDC_WIDTH_CURRENT     the width of NDC space
             16256                            range  0 - 32767  which means 0.0 - 1.0
             16257                                 default - 32767 or 1.0                  */
             16258    1         2  NDC_HEIGHT_CURRENT   UBIN HALF   %INIT(NDC_HEIGHT_CURR%%COM)%CHARTEXT(
             16258                  '/**/')   HALIGNED,
             16259                  /*K*  NDC_HEIGHT_CURRENT     the height of NDC space
             16260                            range  0 - 32767  which means 0.0 - 1.0
             16261                                 default - 32767  or  1.0                */
             16262    1         2  NDC_DEPTH_CURRENT   UBIN HALF   %INIT(NDC_DEPTH_CURR%%COM)%CHARTEXT('/**/')
             16262                  HALIGNED,
             16263                  /*K*  NDC_DEPTH_CURRENT     the depth of NDC space
             16264                            range  0 - 32767  which means 0.0 - 1.0
             16265                                 default - 32767  or  1.0                */
PL6.E3A0      #001=ASD$BUILD_PRO File=ASD$BUILD_PRO.:E05TSI                      TUE 07/29/97 09:44 Page:6
             16266    1         2  MINIMUM_LINEWIDTH   UBIN HALF   %INIT(MIN_LINEWIDTH)%CHARTEXT('/**/')
             16266                  HALIGNED,
             16267                  /*K*  MINIMUM_LINDWIDTH     the minimum line width
             16268                       in NDC coordinates.
             16269                            range 0 - 32767
             16270                              taken as a percentage
             16271                              of NDC space where 0 represents 0% and
             16272                              32767 represents 100%
             16273                                 default - 1                             */
             16274    1         2  MAXIMUM_LINEWIDTH    UBIN HALF   %INIT(MAX_LINEWIDTH)%CHARTEXT('/**/')
             16274                  HALIGNED,
             16275                  /*K*  MAXIMUM_LINEWIDTH      the maximum line width
             16276                       in NDC coordinates
             16277                            range  0 - 32767
             16278                              taken as a percentage
             16279                              of NDC space where 0 represents 0% and
             16280                              32767 represents 100%
             16281                                 default - 327                           */
             16282    1         2  MIN_CHAR_SIZE   UBIN HALF  %INIT(MIN_CH_SIZ)%CHARTEXT('/**/')   HALIGNED,
             16283                  /*K*  MIN_CHAR_SIZE   the minimum character size in
             16284                       NDC coordinates.
             16285                            range  0 - 32767
             16286                              taken as a percentage
             16287                              of NDC space where 0 represents 0% and
             16288                              32767 represents 100%
             16289                                 default - 1                             */
             16290    1         2  MAX_CHAR_SIZE   UBIN HALF  %INIT(MAX_CH_SIZ)%CHARTEXT('/**/')   HALIGNED,
             16291                  /*K*  MAX_CHAR_SIZE  the maximum character size in
             16292                       NDC coordinates.
             16293                            range  0 - 32767
             16294                              taken as a percentage
             16295                              of NDC space where 0 represents 0% and
             16296                              32767 represents 100%
             16297                                 default - 327                           */
             16298    1         2  VIEW_SURFACE  UBIN HALF %INIT(VIEW_SURF)%CHARTEXT('/**/')   HALIGNED,
             16299                  /*K*  The name of the initialized view surface that
             16300                        an inquiry of device characteristics has been
PL6.E3A0      #001=ASD$BUILD_PRO File=ASD$BUILD_PRO.:E05TSI                      TUE 07/29/97 09:44 Page:7
             16301                        made about.
             16302                        range  0 - 32767
             16303                        default  0
             16304                       This halfword is reserved for future use          */
             16305    1         2  POLYGON_FILL,
             16306                  /*K*  POLYGON FILL   A value for each of the three types
             16307                       of polygon fill possible, that specify the maximum
             16308                       number of edges that can be supported for each type
             16309                       of fill pattern.                                  */
             16310    1           3  PLAIN  UBIN  HALF  %INIT(PLAIN_FILL%%COM)%CHARTEXT('/**/')   HALIGNED,
             16311                     /*K*  PLAIN    The maximum number of edges that can
             16312                       be supported with a plain type of polygon fill.
             16313                            range  0 - 32767
             16314                                 default - 32767                         */
             16315    1           3  SHADED  UBIN  HALF  %INIT(SHADED_FILL%%COM)%CHARTEXT('/**/')   HALIGNED,
             16316                     /*K*  SHADED   The maximum number of edges that can
             16317                       be supported with a shaded type of polygon fill.
             16318                            range  0 - 32767
             16319                                 default -  32767                        */
             16320    1           3  PATTERNED  UBIN  HALF  %INIT(PATTERNED_FILL%%COM)%CHARTEXT('/**/')
             16320                    HALIGNED,
             16321                     /*K*  PATTERNED   The maximum number of edges that can
             16322                       be supported with a patterned type of polygon fill.
             16323                            range  0 - 32767
             16324                                 default -  32767                        */
             16325    1         2  PIX_ARRAY_MAXX  UBIN  HALF  %INIT(PIX_MAXX%%COM)%CHARTEXT('/**/')  HALIGNED
             16325                  ,
             16326                  /*K* PIX_ARRAY_MAXX     The maximum size in the X direction
             16327                       of the pixel array.  (in pixels)
             16328                            range  0 - 32767
             16329                                 default - 32767                         */
             16330    1         2  PIX_ARRAY_MAXY  UBIN  HALF  %INIT(PIX_MAXY%%COM)%CHARTEXT('/**/')  HALIGNED
             16330                  ,
             16331                  /*K* PIX_ARRAY_MAXY     The maximum size in the Y direction
             16332                       of the pixel array.  (in pixels)
             16333                            range  0 - 32767
             16334                                 default - 32767                         */
PL6.E3A0      #001=ASD$BUILD_PRO File=ASD$BUILD_PRO.:E05TSI                      TUE 07/29/97 09:44 Page:8
             16335    1         2  COLOR_TAB_SIZE  UBIN  HALF  %INIT(TABLE_SIZE%%COM)%CHARTEXT('/**/')
             16335                  HALIGNED,
             16336                  /*K*  COLOR_TAB_SIZE   the maximum number of entries
             16337                       possible in the color look up table.
             16338                       This is the number of simultaneously visible colors.
             16339                            range  0 - 32767
             16340                                 default -  32767                        */
             16341    1         2  INTENSITY_TAB_SIZE  UBIN  HALF  %INIT(TABLE_SIZE%%COM)%CHARTEXT('/**/')
             16341                  HALIGNED,
             16342                  /*K* INTENSITY_TAB_SIZE    the maximum number of entries
             16343                       possible in this device or drivers intensity
             16344                       index table
             16345                       This is the number of simultaneously visible intensities.
             16346                            range  0 - 32767
             16347                                 default -  32767                        */
             16348    1         2  LINESTYLE_HARDWARE_COUNT  UBIN HALF  %INIT(LINESTYLE_HW_CNT)%CHARTEXT(
             16348                  '/**/')   HALIGNED,
             16349                  /*K*  A count of the number of different hardware line styles
             16350                       supported by the device and its driver.  The different
             16351                       styles refer to solid, dashed, and dotted.
             16352                       range 1 - 9
             16353                       default 9                                         */
             16354    1         2  LINESTYLE_SOFTWARE_COUNT  UBIN HALF  %INIT(LINESTYLE_SW_CNT)%CHARTEXT(
             16354                  '/**/')   HALIGNED,
             16355                  /*K*  A count of the number of different software line styles
             16356                       supported by the device and its driver.  The different
             16357                       styles refer to solid, dashed, and dotted.
             16358                       range 0 - 9990
             16359                       default 9990                                      */
             16360    1         2  LINEWIDTH_COUNT   UBIN  HALF  %INIT(LINEWIDTH_CNT%%COM)%CHARTEXT('/**/')
             16360                  HALIGNED,
             16361                  /*K*  A count of the number of different line widths
             16362                       supported by the device and its driver.
             16363                       range 1 - 32767
             16364                       default 32767                      */
             16365    1         2  FONT_COUNT  UBIN HALF %INIT(FONT_CNT%%COM)%CHARTEXT('/**/')   HALIGNED,
             16366                  /*K*  A count of the number of different fonts
PL6.E3A0      #001=ASD$BUILD_PRO File=ASD$BUILD_PRO.:E05TSI                      TUE 07/29/97 09:44 Page:9
             16367                       supported by the device and its driver.
             16368                       range 1 - 32767
             16369                       default 32767                                */
             16370    1         2  PEN_HARDWARE_COUNT  UBIN  HALF %INIT(PEN_HW_CNT%%COM)%CHARTEXT('/**/')
             16370                  HALIGNED,
             16371                  /*K*  A count of the number of different hardware pens
             16372                       supported by the device and its driver.
             16373                       Pen refers to a collection of Line Index,
             16374                       Line Style, Line Width, and Text Index.
             16375                       range 0 - 32767
             16376                       default 32767                                */
             16377    1         2  PEN_SOFTWARE_COUNT  UBIN  HALF %INIT(PEN_SW_CNT%%COM)%CHARTEXT('/**/')
             16377                  HALIGNED,
             16378                  /*K*  A count of the number of different software pens
             16379                       supported by the device and its driver.
             16380                       Pen refers to a collection of Line Index,
             16381                       Line Style, Line Width, and Text Index.
             16382                       range 0 - 32767
             16383                       default 32767                                */
             16384    1         2  CHAR_SIZE_COUNT  UBIN  HALF  %INIT(CHAR_SIZE_CNT%%COM)%CHARTEXT('/**/')
             16384                  HALIGNED,
             16385                  /*K*   A count of the number of different hardware
             16386                       character sizes available from the device/driver.
             16387                       range 1 - 32767
             16388                       default 32767                                */
             16389    1         2  MARKER_HARDWARE_COUNT  UBIN  HALF  %INIT(MARKER_HW_CNT%%COM)%CHARTEXT(
             16389                  '/**/')   HALIGNED,
             16390                  /*K*  A count of the number of different hardware marker
             16391                       symbols supported by the device and its driver.
             16392                       the support of 10 markers is required by the ANS
             16393                       specification.
             16394                       range 0 - 32767
             16395                       default 32767
             16396                       The values 1-5 produce the marker symbols,
             16397                       dot or period
             16398                       plus
             16399                       asterisk
PL6.E3A0      #001=ASD$BUILD_PRO File=ASD$BUILD_PRO.:E05TSI                      TUE 07/29/97 09:44 Page:10
             16400                       the capital letter O
             16401                       the capital leter X
             16402                       the values greater than 5 are implementation
             16403                       dependent, distinct from each other and from
             16404                       the first five.  It is intended that the marker
             16405                       symbols be hardware generated and similar in
             16406                       size to the default character size for
             16407                       "string precision" text.                          */
             16408    1         2  MARKER_SOFTWARE_COUNT  UBIN  HALF  %INIT(MARKER_SW_CNT%%COM)%CHARTEXT(
             16408                  '/**/')   HALIGNED,
             16409                  /*K*  A count of the number of different software marker
             16410                       symbols supported by the device and its driver.
             16411                       the support of 10 markers is required by the ANS
             16412                       specification.
             16413                       range 0 - 32767
             16414                       default  32767                                    */
             16415    1         2  LINEWIDTH_SUPPORT  BIT(4) %INIT(LINEWIDTH_SUPRT%%COM)%CHARTEXT('/**/') UNAL
             16415                  ,
             16416                  /*K*  The type of support, hardware or software,
             16417                       for the various line widths.
             16418                            %XG_LINEWIDTH_SUPPORT_NONE# - no support for any line width
             16419                            %XG_LINEWIDTH_SUPPORT_HARDWARE# - hardware support
             16420                            %XG_LINEWIDTH_SUPPORT_SOFTWARE# - software support
             16421                            %XG_LINEWIDTH_SUPPORT_BOTH - both hardware and software support
             16422                            default  %XG_LINEWIDTH_SUPPORT_HARDWARE#        */
             16423    1         2  CHARSIZE_SUPPORT  BIT(4) %INIT(CHARSIZE_SUPRT%%COM)%CHARTEXT('/**/')   UNAL
             16423                  ,
             16424                  /*K*  The type of support given to the charsize count
             16425                       above.
             16426                            %XG_CHARSIZE_SUPPORT_HARDWARE# - hardware support
             16427                            %XG_CHARSIZE_SUPPORT_SOFTWARE# - software support
             16428                            %XG_CHARSIZE_SUPPORT_BOTH# - both hardware and software support
             16429                            default  %XG_CHARSIZE_SUPPORT_HARDWARE#              */
             16430    1         2  INTENSITY_SUPPORT  BIT(4) %INIT(INTENSITY_SUPRT%%COM)%CHARTEXT('/**/') UNAL
             16430                  ,
             16431                  /*K*  The type of support given to the intensity count
             16432                       above.
PL6.E3A0      #001=ASD$BUILD_PRO File=ASD$BUILD_PRO.:E05TSI                      TUE 07/29/97 09:44 Page:11
             16433                            %XG_INTENSITY_SUPPORT_NONE# - no support for any intensity
             16434                            %XG_INTENSITY_SUPPORT_HARDWARE# - hardware support
             16435                            %XG_INTENSITY_SUPPORT_SOFTWARE# - software support
             16436                            %XG_INTENSITY_SUPPORT_BOTH# - both hardware and software support
             16437                            default  %XG_INTENSITY_SUPPORT_HARDWARE#        */
             16438    1         2  HIGHLIGHT_SUPPORT  BIT(4) %INIT (HIGHLIGHT_SUPRT%%COM)%CHARTEXT('/**/')
             16438                  UNAL,
             16439                  /*K*  The type of support given to the highlighting
             16440                       primitive attribute.
             16441                            %XG_HIGHLIGHT_SUPPORT_NONE# - no support for highlighting
             16442                            %XG_HIGHLIGHT_SUPPORT_HARDWARE# - hardware support
             16443                            %XG_HIGHLIGHT_SUPPORT_SOFTWARE# - software support
             16444                            %XG_HIGHLIGHT_SUPPORT_BOTH# - both hardware and software support
             16445                            default  %XG_HIGHLIGHT_SUPPORT_HARDWARE#
             16446                            any highlight support is valid only if
             16447                            OUTPUT_LEVEL is not "basic".                 */
             16448    1         2  OUTPUT_LEVEL  BIT(6)  %INIT(OUTPUT_LVL%%COM)%CHARTEXT('/**/')   UNAL,
             16449                  /*K*  The highest output level supported by the device
             16450                       driver.
             16451                            %XG_OUTPUT_LEVEL_BASIC# - "basic"
             16452                            %XG_OUTPUT_LEVEL_BUFFERED# - "buffered"
             16453                            %XG_OUTPUT_LEVEL_DYNAMIC_A# - "dynamic a"
             16454                            %XG_OUTPUT_LEVEL_DYNAMIC_B# - "dynamic b"
             16455                            %XG_OUTPUT_LEVEL_DYNAMIC_C# - "dynamic c"
             16456                       default - %XG_OUTPUT_LEVEL_BASIC#                    */
             16457    1         2  BATCH_MODE  BIT(4)  %INIT(BATCH_LVL%%COM)%CHARTEXT('/**/')   UNAL,
             16458                  /*K*  To indicate the strategy used by the device
             16459                       driver for batching of updates.
             16460                            %XG_BATCH_MODE_DEFER-NOTHING# - "defer-nothing"
             16461                            %XG_BATCH_MODE_DEFER_DELETION# - "defer-deletion"
             16462                            %XG_BATCH_MODE_DEFER_RETAINED# - "defer-retained"
             16463                            %XG_BATCH_MODE_DEFER_ALL# - "defer-all"
             16464                       default - %XG_BATCH_MODE_DEFER_ALL#         */
             16465    1         2  HIDDEN_SURFACE_LEVEL  BIT(4) %INIT(HIDDEN_SURFACE_LVL%%COM)%CHARTEXT('/**/'
             16465                  )   UNAL,
             16466                  /*K* HIDDEN_SURFACE_LEVEL  The level of hidden surface
             16467                       or hidden line removal supported by the device or
PL6.E3A0      #001=ASD$BUILD_PRO File=ASD$BUILD_PRO.:E05TSI                      TUE 07/29/97 09:44 Page:12
             16468                       the device driver.
             16469                            %XG_HIDDEN_SURFACE_NONE# - none
             16470                            %XG_HIDDEN_SURFACE_TEMPORAL# - temporal
             16471                            %XG_HIDDEN_SURFACE_EXPLICIT# - explicit
             16472                            %XG_HIDDEN_SURFACE_FULL# - full
             16473                       default - %XG_HIDDEN_SURFACE_FULL#                */
             16474    1         2  DIMENSION_LEVEL  BIT(2)  %INIT(DIMENSION_LVL%%COM)%CHARTEXT('/**/')   UNAL,
             16475                  /*K* DIMENSION_LEVEL   the dimension level supported
             16476                       by this device and device driver.
             16477                            %XG_DIMENSION_LEVEL_2D# - 2 dimensional
             16478                            %XG_DIMENSION_LEVEL_3D# - 3 dimensional
             16479                       default - %XG_DIMENSION_LEVEL_3D#                 */
             16480    1         2  VIEW_SURFACE_TYPE  BIT(4)  %INIT(VIEW_SURFACE_TYP%%COM)%CHARTEXT('/**/')
             16480                  UNAL,
             16481                  /*K*  To indicate the type of view surface.
             16482                            %XG_VIEW_SURFACE_CHAR# - character only
             16483                            %XG_VIEW_SURFACE_VECTOR# - vector only
             16484                            %XG_VIEW_SURFACE_INTENSITY# - intensity only
             16485                            %XG_VIEW_SURFACE_COLOR# - color
             16486                       default - %XG_VIEW_SURFACE_COLOR#                 */
             16487    1         2  PIXEL_TYPE  BIT(4) %INIT(PIXEL_TYP%%COM)%CHARTEXT('/**/')   UNAL,
             16488                  /*K* PIXEL_TYPE   The availability of pixel addressing
             16489                       functions.
             16490                            '00' - not used
             16491                            %XG_PIXEL_FCNS_ALL# - read/write functions available
             16492                            %XG_PIXEL_FCNS_NONE# - functions not available
             16493                            %XG_PIXEL_FCNS_WRITE# - write functions only available
             16494                       default - %XG_PIXEL_FCNS_ALL#                     */
             16495    1         2  EDGE_TYPE  BIT(4) %INIT(EDGE_TYP%%COM)%CHARTEXT('/**/')   UNAL,
             16496                  /*K*  EDGE_TYPE   The type of edges supported by the
             16497                       device and the device driver.
             16498                            %XG_EDGE_TYPE_NONE# - none  generally not used
             16499                            %XG_EDGE_TYPE_INTERIOR# - interior only
             16500                            %XG_EDGE_TYPE_SOLID# - solid only as in a vector generator
             16501                            %XG_EDGE_TYPE_BOTH# - both interior and solid
             16502                       default - %XG_EDGE_TYPE_BOTH#                     */
             16503    1         2  COLOR_TABLE_TYPE  BIT(4)  %INIT(COLOR_TABLE_TYP%%COM)%CHARTEXT('/**/') UNAL
PL6.E3A0      #001=ASD$BUILD_PRO File=ASD$BUILD_PRO.:E05TSI                      TUE 07/29/97 09:44 Page:13
             16503                  ,
             16504                  /*K* COLOR_TABLE_TYPE  The type of color table available.
             16505                            %XG_COLOR_TABLE_FIXED# - fixed
             16506                            %XG_COLOR_TABLE_DYNAMIC# - dynamic
             16507                            %XG_COLOR_TABLE_DIRECT# - direct color
             16508                            %XG_COLOR_TABLE_FIX_DYN# - fixed and dynamic
             16509                       default - %XG_COLOR_TABLE_FIX_DYN#                */
             16510    1         2  BACKGROUND_TYPE  BIT(2)  %INIT(BACKGROUND_TYP%%COM)%CHARTEXT('/**/')  UNAL,
             16511                  /*K*  BACKGROUND_TYPE    the background type of the device.
             16512                            %XG_BACKGROUND_TYPE_FIXED# - fixed
             16513                            %XG_BACKGROUND_TYPE_VARIABLE# - variable
             16514                       default - %XG_BACKGROUND_TYPE_VARIABLE#           */
             16515    1         2  DEVICE_TYPE   BIT(2)  %INIT(DEVICE_TYP%%COM)%CHARTEXT('/**/')   UNAL,
             16516                  /*K* DEVICE_TYPE   the type of device this is.
             16517                            %XG_DEVICE_TYPE_PSEUDO# - "pseudo" or "file"
             16518                            %XG_DEVICE_TYPE_REAL# - "real" or "display surface"
             16519                       default - %XG_DEVICE_TYPE_PSEUDO#                  */
             16520    1         2  IMAGE_TRANSF   BIT(4)  %INIT(IMAGE_TRANS%%COM)%CHARTEXT('/**/')  UNAL,
             16521                  /*K* IMAGE_TRANSF  the level of hardware support for
             16522                       image transformations.
             16523                            %XG_IMAGE_TRANSF_NONE# - "none"
             16524                            %XG_IMAGE_TRANS_A# - "a"
             16525                            %XG_IMAGE_TRANSF_B# - "b"
             16526                            %XG_IMAGE_TRANSF_C# - "c"
             16527                       default - %XG_IMAGE_TRANSF_C#
             16528                       this bit setting has meaning only if the OUTPUT_
             16529                       LEVEL is not "basic".                             */
             16530    1         2  COLOR_MODEL  BIT(2)  %INIT(COLR_MDL%%COM)%CHARTEXT('/**/')   UNAL,
             16531                  /*K*  COLOR_MODEL    the color model used by the device.
             16532                            %XG_HLS# - HLS
             16533                            %XG_COLOR_MODEL_RGB# - RGB
             16534                       default - %XG_HLS#                                */
             16535    1         2  BACKGROUND_COLOR   BIT(2)  %INIT(BACKGROUND_COLR%%COM)%CHARTEXT('/**/')
             16535                  UNAL,
             16536                  /*K*  BACKGROUND_COLOR    the background color of the device
             16537                       and its view surface.
             16538                            %XG_BACKGROUND_COLOR_BLACK# - black
PL6.E3A0      #001=ASD$BUILD_PRO File=ASD$BUILD_PRO.:E05TSI                      TUE 07/29/97 09:44 Page:14
             16539                            %XG_BACKGROUND_COLOR_WHITE# - white
             16540                       default - %XG_BACKGROUND_COLOR_BLACK#             */
             16541    1         2  COLOR_ACTION  BIT(4)  %INIT(COLOR_ACT%%COM)%CHARTEXT('/**/')   UNAL,
             16542                  /*K*  COLOR_ACTION   the type of color action this
             16543                       device and driver support
             16544                            %XG_COLOR_ACTION_NONE# - none
             16545                            %XG_COLOR_ACTION_SEQUENTIAL# - sequential
             16546                            %XG_COLOR_ACTION_RETROACTIVE# - retroactive
             16547                       default - %XG_COLOR_ACTION_RETROACTIVE#           */
             16548    1         2  INTENSITY_ACTION  BIT(4)  %INIT(INTENSITY_ACT%%COM)%CHARTEXT('/**/')   UNAL
             16548                  ,
             16549                  /*K*  INTENSITY_ACTION   the type of intensity action this
             16550                       device and driver support
             16551                            %XG_INTENS_ACTION_NONE# - none
             16552                            %XG_INTENS_ACTION_SEQUENTIAL# - sequential
             16553                            %XG_INTENS_ACTION_RETROACTIVE# - retroactive
             16554                       default - %XG_INTENS_ACTION_RETROACTIVE#          */
             16555                                                /*  EXTRA SPACE FOR FUTURE EXPANSION  */
             16556    1         2   *    UBIN  ALIGNED %INIT (0) %CHARTEXT ('/**/'),
             16557    1         2   *    UBIN  ALIGNED %INIT (0) %CHARTEXT ('/**/'),
             16558    1         2   *    UBIN  ALIGNED %INIT (0) %CHARTEXT ('/**/'),
             16559    1         2   *    UBIN  ALIGNED %INIT (0) %CHARTEXT ('/**/'),
             16560    1         2   *    UBIN  ALIGNED %INIT (0) %CHARTEXT ('/**/'),
             16561    1         2   *    UBIN  ALIGNED %INIT (0) %CHARTEXT ('/**/'),
             16562    1         2   *    UBIN  ALIGNED %INIT (0) %CHARTEXT ('/**/'),
             16563    1         2   *    UBIN  ALIGNED %INIT (0) %CHARTEXT ('/**/'),
             16564    1         2 NUM_ESCAPES UBIN %INIT (NUM_ESCAPE_FUNCTIONS) %CHARTEXT('/**/'),
             16565                  /*K* NUM_ESCAPES the number of escape functions supported
             16566                    by this driver.  The range is 0 - 63.  This means a max of
             16567                    63 different escape functions can be supported at any
             16568                    given time.  This values defines the number of entries
             16569                    in the GR_ESCAPES array structure.
             16570                  */
             16571    1         2 GR_ESCAPES (0:%ARRAYLEN) CALIGNED,
             16572    1            3 ESCAPE_FUNCTION UBIN HALF CALIGNED %INIT(0*0) %CHARTEXT('/**/'),
             16573                    /*K* ESCAPE_FUNCTION the value of this escape function.
             16574                       The value of any given escape function can be
PL6.E3A0      #001=ASD$BUILD_PRO File=ASD$BUILD_PRO.:E05TSI                      TUE 07/29/97 09:44 Page:15
             16575                       0 - 32767 inclusive.
             16576                    */
             16577    1            3 ESCAPE_SUPPORT UBIN BYTE CALIGNED %INIT(0*0) %CHARTEXT('/**/'),
             16578                    /*K* ESCAPE_SUPPORT tells whether this function is
             16579                       supported in hardware or software.
             16580                       XG_ESC_HARDWARE_SUPPORT = 1
             16581                       XG_ESC_SOFTWARE_SUPPORT = 2
             16582                    */
             16583    1            3 * UBIN BYTE CALIGNED %INIT (0*0) %CHARTEXT('/**/');
             16584                    /* FUTURE ENHANCEMENTS */
       53    16586        %PLIST ;
       54    16587    1   DCL PROFILE_BUF STATIC CHAR(AS_PRO_BUF_SIZEC) INIT(' ') ;
       55    16588    1   DCL 1 PRO_KEY ALIGNED STATIC ,
       56    16589    1          2 CNT UBIN BYTE UNAL INIT(0) ,
       57    16590    1          2 TEXT CHAR(11) UNAL INIT(' ') ;
       58    16591    1   DCL 1 GRA_KEY ALIGNED STATIC,
       59    16592    1          2 CNT UBIN BYTE UNAL INIT(11) ,
       60    16593    1          2 TEXT CHAR(11) UNAL INIT('GRAPHICFILE') ;
       61    16594    1   DCL SIZE UBIN WORD STATIC ;
       62    16595    1   DCL PP$ PTR STATIC;
       63    16596        %EJECT;
PL6.E3A0      #001=ASD$BUILD_PRO File=ASD$BUILD_PRO.:E05TSI                      TUE 07/29/97 09:44 Page:16
       64    16597        /********************************************************************/
       65    16598        /*   Vlps            vlps            vlps            vlps            */
       66    16599        /*********************************************************************/
       67    16600
       68    16601        %VLP_NAME(  FPTN = VLP_ASYNC_PNAME,
       69    16602                    NAME = '$ASYNC' ,
       70    16603                    LEN = 11 ,
       71    16604                    STCLASS = CONSTANT ) ;
       72    16631        %VLP_NAME(  FPTN = VLP_GRAPHICFILE_PNAME,
       73    16632                    NAME = 'GRAPHICFILE' ,
       74    16633                    LEN = 11 ,
       75    16634                    STCLASS = CONSTANT ) ;
       76    16661        %VLP_NAME( FPTN=VLP_3270_PNAME, NAME='$3270',LEN=11, STCLASS=CONSTANT);
       77    16688        %VLP_NAME(  FPTN = VLP_RBT_PNAME,
       78    16689                    NAME = '$RBT' ,
       79    16690                    LEN = 11 ,
       80    16691                    STCLASS = CONSTANT ) ;
       81    16718        %VLP_NAME(  FPTN = VLP_RBTD_PNAME,
       82    16719                    NAME = '$RBTD' ,
       83    16720                    LEN = 11 ,
       84    16721                    STCLASS = CONSTANT ) ;
       85    16748        %VLP_NAME(  FPTN = VLP_LINK_PNAME,
       86    16749                    NAME = '$LINK' ,
       87    16750                    LEN = 11 ,
       88    16751                    STCLASS = CONSTANT ) ;
       89    16778        %VLP_NAME(  FPTN = VLP_URP_PNAME,
       90    16779                    NAME = '$URP' ,
       91    16780                    LEN = 11 ,
       92    16781                    STCLASS = CONSTANT ) ;
       93    16808        %VLP_NAME(  FPTN = VLP_VIRCIR_PNAME,
       94    16809                    NAME = '$VIRCIR' ,
       95    16810                    LEN = 11 ,
       96    16811                    STCLASS = CONSTANT ) ;
       97    16838        %VLP_NAME(  FPTN = VLP_POLLVIP_PNAME,
       98    16839                    NAME = '$POLLVIP',
       99    16840                    LEN  = 11,
      100    16841                    STCLASS = CONSTANT );
PL6.E3A0      #001=ASD$BUILD_PRO File=ASD$BUILD_PRO.:E05TSI                      TUE 07/29/97 09:44 Page:17
      101    16868        %VLP_TRMCTL ( FPTN = VLP_ASYNC_TRMCTL ,
      102    16869                      TABSIM = YES ,
      103    16870                      TABRELATIVE = YES ,
      104    16871                      SPACEINSERT = YES ,
      105    16872                      SENDBKSPACE = NO ,
      106    16873                      DISPINPUT = YES ,
      107    16874                      OUTPUTDISCARD = NO ,
      108    16875                      LOWERCASE = NO ,
      109    16876                      HALFDUXPAPERTAPE = NO ,
      110    16877                      FULLDUXPAPERTAPE = NO ,
      111    16878                      ACTONTRN  = NO  ,
      112    16879                      APLLCNRM = YES ,
      113    16880                      RETYPOVR = NO  ,
      114    16881                      EDITOVR = NO  ,
      115    16882                      SCROLL = NO ,
      116    16883                      PAGEHALT = NO  ,
      117    16884                      PRINTHALT = NO ,
      118    16885                      RELPAGE = NO ,
      119    16886                      SINPUTSZ = 255 ,
      120    16887                      STCLASS = STATIC ) ;
      121    16927        %VLP_TRMCTL ( FPTN = VLP_3270_TRMCTL ,
      122    16928                      TABSIM = YES ,
      123    16929                      TABRELATIVE = YES ,
      124    16930                      SPACEINSERT = YES ,
      125    16931                      SENDBKSPACE = NO ,
      126    16932                      DISPINPUT = YES ,
      127    16933                      OUTPUTDISCARD = NO ,
      128    16934                      LOWERCASE = NO ,
      129    16935                      HALFDUXPAPERTAPE = NO ,
      130    16936                      FULLDUXPAPERTAPE = NO ,
      131    16937                      ACTONTRN  = NO  ,
      132    16938                      APLLCNRM = YES ,
      133    16939                      RETYPOVR = YES  ,
      134    16940                      EDITOVR = YES  ,
      135    16941                      SCROLL = NO ,
      136    16942                      PAGEHALT = YES ,
      137    16943                      PRINTHALT = YES ,
PL6.E3A0      #001=ASD$BUILD_PRO File=ASD$BUILD_PRO.:E05TSI                      TUE 07/29/97 09:44 Page:18
      138    16944                      RELPAGE = NO ,
      139    16945                      SINPUTSZ = 255 ,
      140    16946                      STCLASS = STATIC ) ;
      141    16986        %VLP_TRMCTL ( FPTN = VLP_URP_TRMCTL ,
      142    16987                      TABSIM = YES ,
      143    16988                      TABRELATIVE = YES ,
      144    16989                      SPACEINSERT = YES ,
      145    16990                      SENDBKSPACE = NO ,
      146    16991                      DISPINPUT = YES ,
      147    16992                      OUTPUTDISCARD = NO ,
      148    16993                      LOWERCASE = NO ,
      149    16994                      HALFDUXPAPERTAPE = NO ,
      150    16995                      FULLDUXPAPERTAPE = NO ,
      151    16996                      ACTONTRN  = NO  ,
      152    16997                      APLLCNRM = YES ,
      153    16998                      RETYPOVR = NO  ,
      154    16999                      EDITOVR = NO  ,
      155    17000                      SCROLL = NO ,
      156    17001                      PAGEHALT = NO  ,
      157    17002                      PRINTHALT = NO ,
      158    17003                      RELPAGE = NO ,
      159    17004                      SINPUTSZ = 255 ,
      160    17005                      TRUNCATE = YES ,
      161    17006                      STCLASS = STATIC ) ;
      162    17046        %VLP_TRMCTL ( FPTN = VLP_RBTD_TRMCTL ,
      163    17047                      TABSIM = YES ,
      164    17048                      TABRELATIVE = YES ,
      165    17049                      SPACEINSERT = YES ,
      166    17050                      SENDBKSPACE = NO ,
      167    17051                      DISPINPUT = YES ,
      168    17052                      OUTPUTDISCARD = NO ,
      169    17053                      LOWERCASE = NO ,
      170    17054                      HALFDUXPAPERTAPE = NO ,
      171    17055                      FULLDUXPAPERTAPE = NO ,
      172    17056                      ACTONTRN  = NO  ,
      173    17057                      APLLCNRM = YES ,
      174    17058                      RETYPOVR = NO  ,
PL6.E3A0      #001=ASD$BUILD_PRO File=ASD$BUILD_PRO.:E05TSI                      TUE 07/29/97 09:44 Page:19
      175    17059                      EDITOVR = NO  ,
      176    17060                      SCROLL = NO ,
      177    17061                      PAGEHALT = NO  ,
      178    17062                      PRINTHALT = NO ,
      179    17063                      RELPAGE = NO ,
      180    17064                      SINPUTSZ = 255 ,
      181    17065                      TRUNCATE = YES ,
      182    17066                      STCLASS = STATIC ) ;
      183    17106        %VLP_TRMATTR (  FPTN = VLP_ASYNC_TRMATTR ,
      184    17107                        WIDTH = 80 ,
      185    17108                        EXTWID = NO ,
      186    17109                        HEIGHT = 0 ,
      187    17110                        PROGDTAB = NO ,
      188    17111                        OPDTAB = NO ,
      189    17112                        DEVSCROLL = NO ,
      190    17113                        CURSORUP = NO ,
      191    17114                        DEVICECR = YES ,
      192    17115                        DEVICELF = YES ,
      193    17116                        DEVICEBS = YES ,
      194    17117                        AUTONL = NO ,
      195    17118                        CRISNL = NO ,
      196    17119                        LFISNL = NO ,
      197    17120                        BLANKERASES = NO ,
      198    17121                        DEVPOSOPTS = NO ,
      199    17122                        TRUOVRPRT = YES ,
      200    17123                        APL = NO ,
      201    17124                        BIN = NO ,
      202    17125                        LOWERCASEPRINTS = NO ,
      203    17126                        INPUT = YES ,
      204    17127                        OUTPUT = YES ,
      205    17128                        PRINTTYPE = YES ,
      206    17129                        TTYTYPE = YES ,
      207    17130                        DVCFLWCTRALG = NONE ,
      208    17131                        MINREC = 255 ,
      209    17132                        SPEED = 255 ,
      210    17133                        CHARSETNAME = 'ASC64' ,
      211    17134                        STCLASS = CONSTANT ) ;
PL6.E3A0      #001=ASD$BUILD_PRO File=ASD$BUILD_PRO.:E05TSI                      TUE 07/29/97 09:44 Page:20
      212    17172        %VLP_TRMATTR (  FPTN = VLP_3270_TRMATTR ,
      213    17173                        WIDTH = 80 ,
      214    17174                        EXTWID = NO ,
      215    17175                        HEIGHT = 24 ,
      216    17176                        PROGDTAB = NO ,
      217    17177                        OPDTAB = NO ,
      218    17178                        DEVSCROLL = NO ,
      219    17179                        CURSORUP = YES ,
      220    17180                        DEVICECR = YES ,
      221    17181                        DEVICELF = YES ,
      222    17182                        DEVICEBS = YES ,
      223    17183                        AUTONL = NO ,
      224    17184                        CRISNL = NO ,
      225    17185                        LFISNL = NO ,
      226    17186                        BLANKERASES = YES ,
      227    17187                        DEVPOSOPTS = NO ,
      228    17188                        TRUOVRPRT = YES ,
      229    17189                        APL = NO ,
      230    17190                        BIN = NO ,
      231    17191                        LOWERCASEPRINTS = NO ,
      232    17192                        INPUT = YES ,
      233    17193                        OUTPUT = YES ,
      234    17194                        PRINTTYPE = YES ,
      235    17195                        TTYTYPE = YES ,
      236    17196                        MINREC = 255 ,
      237    17197                        SPEED = 255 ,
      238    17198                        CHARSETNAME = '3270' ,
      239    17199                        MAXATRS = 254 ,
      240    17200                        ATRSCRNPOS = YES ,
      241    17201                        NO_FLDTRM = YES ,
      242    17202                        STCLASS = CONSTANT ) ;
      243    17240        %VLP_TRMATTR (  FPTN = VLP_URP_TRMATTR ,
      244    17241                        WIDTH = 132 ,
      245    17242                        EXTWID = NO ,
      246    17243                        HEIGHT = 0 ,
      247    17244                        PROGDTAB = YES ,
      248    17245                        OPDTAB = NO ,
PL6.E3A0      #001=ASD$BUILD_PRO File=ASD$BUILD_PRO.:E05TSI                      TUE 07/29/97 09:44 Page:21
      249    17246                        DEVICECR = NO ,
      250    17247                        DEVICELF = NO ,
      251    17248                        LFISNL = NO ,
      252    17249                        APL = NO ,
      253    17250                        BIN = NO ,
      254    17251                        LOWERCASEPRINTS = NO ,
      255    17252                        INPUT = YES ,
      256    17253                        OUTPUT = YES ,
      257    17254                        PRINTTYPE = YES ,
      258    17255                        CHARSETNAME = 'ASC95' ,
      259    17256                        STCLASS = CONSTANT ) ;
      260    17294        %VLP_TRMATTR (  FPTN = VLP_RBTD_TRMATTR ,
      261    17295                        WIDTH = 80 ,
      262    17296                        EXTWID = NO ,
      263    17297                        HEIGHT = 0 ,
      264    17298                        PROGDTAB = NO ,
      265    17299                        OPDTAB = NO ,
      266    17300                        DEVSCROLL = NO ,
      267    17301                        CURSORUP = NO ,
      268    17302                        DEVICECR = NO ,
      269    17303                        DEVICELF = NO ,
      270    17304                        DEVICEBS = NO ,
      271    17305                        AUTONL = NO ,
      272    17306                        CRISNL = NO ,
      273    17307                        LFISNL = NO ,
      274    17308                        BLANKERASES = NO ,
      275    17309                        DEVPOSOPTS = NO ,
      276    17310                        TRUOVRPRT = NO ,
      277    17311                        APL = NO ,
      278    17312                        LOWERCASEPRINTS = NO ,
      279    17313                        PARITY = EVEN ,
      280    17314                        INPUT = NO ,
      281    17315                        OUTPUT = NO ,
      282    17316                        PRINTTYPE = NO ,
      283    17317                        TTYTYPE = NO ,
      284    17318                        MINREC = 255 ,
      285    17319                        SPEED = 255 ,
PL6.E3A0      #001=ASD$BUILD_PRO File=ASD$BUILD_PRO.:E05TSI                      TUE 07/29/97 09:44 Page:22
      286    17320                        CHARSETNAME = 'ASC95' ,
      287    17321                        STCLASS = CONSTANT ) ;
      288    17359        %VLP_PLATEN (   FPTN = VLP_ASYNC_PLATEN ,
      289    17360                        EXTWID = NO ,
      290    17361                        WIDTH = 80 ,
      291    17362                        LENGTH = 0 ,
      292    17363                        LIMBO = 0 ,
      293    17364                        FIRSTLINE = 0 ,
      294    17365                        STCLASS = CONSTANT ) ;
      295    17387        %VLP_PLATEN (   FPTN = VLP_3270_PLATEN ,
      296    17388                        EXTWID = NO ,
      297    17389                        WIDTH = 80 ,
      298    17390                        LENGTH = 0 ,
      299    17391                        LIMBO = 0 ,
      300    17392                        FIRSTLINE = 0 ,
      301    17393                        STCLASS = CONSTANT ) ;
      302    17415        %VLP_PLATEN (   FPTN = VLP_URP_PLATEN ,
      303    17416                        EXTWID = NO ,
      304    17417                        WIDTH = 132 ,
      305    17418                        LENGTH = 66 ,
      306    17419                        LIMBO = 0 ,
      307    17420                        FIRSTLINE = 0 ,
      308    17421                        STCLASS = CONSTANT ) ;
      309    17443        %VLP_PLATEN (   FPTN = VLP_RBTD_PLATEN ,
      310    17444                        EXTWID = NO ,
      311    17445                        WIDTH = 80 ,
      312    17446                        LENGTH = 0 ,
      313    17447                        LIMBO = 0 ,
      314    17448                        FIRSTLINE = 0 ,
      315    17449                        STCLASS = CONSTANT ) ;
      316    17471        %VLP_TAB (      FPTN = VLP_ASYNC_TAB ,
      317    17472                        MARGIN = 0 ,
      318    17473                        TABS = 0 ,
      319    17474                        STCLASS = STATIC ) ;
      320    17488        %VLP_TAB(FPTN=VLP_3270_TAB,MARGIN=0,TABS=0,STCLASS=STATIC);
      321    17502        %VLP_TAB (      FPTN = VLP_URP_TAB ,
      322    17503                        MARGIN = 0 ,
PL6.E3A0      #001=ASD$BUILD_PRO File=ASD$BUILD_PRO.:E05TSI                      TUE 07/29/97 09:44 Page:23
      323    17504                        TABS = 0 ,
      324    17505                        STCLASS = STATIC ) ;
      325    17519        %VLP_NAME ( FPTN = VLP$PNAME ,
      326    17520                    STCLASS = BASED ,
      327    17521                        LEN = VLP$PNAME.L# ) ;
      328    17548        %KL_CCHR( NAME = VLP_ASYNC_CCHR ,
      329    17549                  STCLASS = CONSTANT ) ;
      330    17690
      331    17691
      332    17692        %KL_TRMD (  NAME = VLP_RBT_TRMD ,
      333    17693                    STCLASS = CONSTANT ) ;
      334    17855
      335    17856        %KL_TRMD (  NAME = VLP_POLLVIP_TRMD ,
      336    17857                    STCLASS = CONSTANT ) ;
      337    18019
      338    18020        %KL_LINK (  NAME = VLP_LINK_LINK ,
      339    18021                    STCLASS = CONSTANT ) ;
      340    18117        %KL_VIRCIR (  NAME = VLP_VIRCIR_VIRCIR ,
      341    18118                    STCLASS = CONSTANT ) ;
      342    18327        %KL_3270 ( NAME = VLP_ASYNC_3270 ,
      343    18328                   STCLASS = CONSTANT );
      344    18353        %KL_3270(NAME=VLP_3270_3270,STCLASS=CONSTANT);
      345    18378        %KL_ABSGRPRND( NAME=VLP_ABSGRPRND_EMPHASIS, ID=EMPHASIS, STCLASS=CONSTANT );
      346    18413        %KL_ABSGRPRND( NAME=VLP_ABSGRPRND_ERROR, ID=ERROR, STCLASS=CONSTANT );
      347    18448        %KL_ABSGRPRND( NAME=VLP_ABSGRPRND_HIDDEN, ID=HIDDEN, STCLASS=CONSTANT );
      348    18483        %KL_ABSGRPRND( NAME=VLP_ABSGRPRND_INPUT, ID=INPUT, STCLASS=CONSTANT );
      349    18518        %KL_ABSGRPRND( NAME=VLP_ABSGRPRND_NULL, ID=NULL, STCLASS=CONSTANT );
      350    18553        %KL_ABSGRPRND( NAME=VLP_ABSGRPRND_OUTPUT, ID=OUTPUT, STCLASS=CONSTANT );
      351    18588        %KL_ABSGRPRND( NAME=VLP_ABSGRPRND_WARNING, ID=WARNING, STCLASS=CONSTANT );
      352    18623
      353    18624        %AS_FUNKEY (NAME = VLP_ASYNC_FUNKEY,
      354    18625                    STCLASS = CONSTANT);
      355    18696        %KL_SETUP_CHR (NAME = VLP_ASYNC_SETUP_CHR,
      356    18697                       STCLASS = CONSTANT);
      357    18713        %KL_SETUP_CHR (NAME = VLP_3270_SETUP_CHR,
      358    18714                       STCLASS = CONSTANT);
      359    18730
PL6.E3A0      #001=ASD$BUILD_PRO File=ASD$BUILD_PRO.:E05TSI                      TUE 07/29/97 09:44 Page:24
      360    18731        %PLIST ;
      361    18732        %VLP_TRMCTL ( FPTN = VLP$TRMCTL ,
      362    18733                      ALGN = UNAL ,
      363    18734                      STCLASS = BASED ) ;
      364    18774        %VLP_TRMATTR (  FPTN = VLP$TRMATTR ,
      365    18775                        ALGN = UNAL ,
      366    18776                        STCLASS = BASED ) ;
      367    18814        %VLP_PLATEN ( FPTN = VLP$PLATEN ,
      368    18815                      ALGN = UNAL ,
      369    18816                      STCLASS = BASED ) ;
      370    18838        %VLP_TAB (  FPTN = VLP$TAB ,
      371    18839                    STCLASS="BASED")  ;
      372    18853        %KL_CCHR ( NAME = VLP$CCHR ,
      373    18854                   STCLASS="BASED UNAL") ;
      374    18995        %KL_TRMD  ( NAME = VLP$TRMD ,
      375    18996                    STCLASS="BASED UNAL") ;
      376    19158        %KL_LINK ( NAME = VLP$LINK ,
      377    19159                   STCLASS="BASED") ;
      378    19255        %KL_VIRCIR ( NAME = VLP$VIRCIR ,
      379    19256                   STCLASS="BASED") ;
      380    19465        %KL_3270 ( NAME = VLP$3270 ,
      381    19466                   STCLASS="BASED UNAL" );
      382    19491        %KL_ABSGRPRND( NAME = VLP$ABSGRPRND ,
      383    19492                       STCLASS="BASED UNAL" );
      384    19527        %AS_FUNKEY (NAME = VLP$FUNKEY,
      385    19528                    STCLASS = "BASED UNAL" );
      386    19599        %KL_SETUP_CHR (NAME = VLP$SETUP_CHR,
      387    19600                       STCLASS = "BASED UNAL" );
      388    19616
      389    19617        %EJECT;
PL6.E3A0      #001=ASD$BUILD_PRO File=ASD$BUILD_PRO.:E05TSI                      TUE 07/29/97 09:44 Page:25
      390    19618        /********************************************************************/
      391    19619        /*   Entry dcls      entry dcls      entry dcls      entry dcls      */
      392    19620        /*********************************************************************/
      393    19621
      394    19622        %ASH$ERROR ;
      395    19625        %ASD$OPEN_PRO_CR ;
      396    19628        %ASD$WRITE_PRO ;
      397    19631        %ASD$GR_WRITE_PRO ;
      398    19634        %ASD$CLOSE_PRO ;
      399    19637        %EJECT;
PL6.E3A0      #001=ASD$BUILD_PRO File=ASD$BUILD_PRO.:E05TSI                      TUE 07/29/97 09:44 Page:26
      400    19638        /********************************************************************/
      401    19639        /*   Local based     local based     local based     local based     */
      402    19640        /*********************************************************************/
      403    19641
      404    19642        %LIST ;
      405    19643        %KL_PHDR ( NAME = PRO$HDR  ,
      406    19644                   STCLASS = BASED ) ;
             19645         %LSET LISTDIR='0'B;
             19657    1   DCL 1 PRO$HDR BASED,
             19658    1         2 TTYP UBIN BYTE UNAL /*(2)/**/,
             19659    1         2 WIDTH UBIN BYTE UNAL /*(80)/**/,
             19660    1         2 LINES UBIN HALF UNAL /*(38)/**/,
             19661    1         2 ATTR,
             19662    1           3 * BIT(9) UNAL /*('0'B)/**/,
             19663    1           3 GRLGL BIT(1) UNAL /*('0'B)/**/,
             19664    1           3 TRANSLGL BIT(1) UNAL /*('0'B)/**/,
             19665    1           3 NOXLATE BIT(1) UNAL /*('0'B)/**/,
             19666    1           3 UPPERCASE BIT(1) UNAL /*('1'B)/**/,
             19667    1           3 NATL BIT(1) UNAL /*('0'B)/**/,
             19668    1           3 TRUOVRPRT BIT(1) UNAL /*('1'B)/**/,
             19669    1           3 APL BIT(1) UNAL /*('0'B)/**/,
             19670    1           3 BIN BIT(1) UNAL /*('0'B)/**/,
             19671    1           3 LCASE BIT(1) UNAL /*('1'B)/**/,
             19672    1         2 IO UNAL,
             19673    1           3 INPUT BIT(1) /*('1'B)/**/,
             19674    1           3 OUTPUT BIT(1) /*('1'B)/**/,
             19675    1         2 IMP# UBIN(7) UNAL /*(0)/**/,
             19676    1         2 DDEV,
             19677    1           3 LP BIT(1) UNAL /*('1'B)/**/,
             19678    1           3 CP BIT(1) UNAL /*('0'B)/**/,
             19679    1           3 IC BIT(1) UNAL /*('1'B)/**/,
             19680    1           3 GRAPHICS_OK BIT(1) UNAL /*('0'B)/**/,
             19681    1           3 * BIT(5) UNAL /*('0'B)/**/,
             19682    1         2 GR_FPRG CHAR(64) UNAL /*(' ')/**/,
             19683    1         2 INFO BIT(72) /*('0'B)/**/;
      407    19685        %PLIST ;
      408    19686        %XG$PROFILE (PRON = GRA$REC,
PL6.E3A0      #001=ASD$BUILD_PRO File=ASD$BUILD_PRO.:E05TSI                      TUE 07/29/97 09:44 Page:27
      409    19687                     STCLASS = BASED) ;
      410    20109    1   DCL 1 PP$STRCT BASED( PP$ ) UNAL ,
      411    20110    1          2 TYPE UBIN BYTE UNAL ,
      412    20111    1          2 SIZE UBIN BYTE UNAL ;
      413    20112    1   DCL 1 PP$BIG_STRCT BASED( PP$ ) UNAL ,
      414    20113    1          2 BIG  UBIN BYTE UNAL ,
      415    20114    1          2 TYPE UBIN BYTE UNAL ,
      416    20115    1          2 SIZE ,
      417    20116    1             3 *   UBIN (1)  UNAL ,
      418    20117    1             3 T   UBIN (8)  UNAL ,
      419    20118    1             3 *   UBIN (1)  UNAL ,
      420    20119    1             3 B   UBIN (8)  UNAL ;
      421    20120
      422    20121        %EJECT;
PL6.E3A0      #001=ASD$BUILD_PRO File=ASD$BUILD_PRO.:E05TSI                      TUE 07/29/97 09:44 Page:28
      423    20122        /********************************************************************/
      424    20123        /*   Auto data       auto data       auto data       auto data       */
      425    20124        /*********************************************************************/
      426    20125
      427    20126    1   DCL ARS UBIN WORD ;
      428    20127    1   DCL IOCNT UBIN WORD ;
      429    20128    1   DCL EXTWID UBIN WORD ;
      430    20129        %EJECT;
PL6.E3A0      #001=ASD$BUILD_PRO File=ASD$BUILD_PRO.:E05TSI                      TUE 07/29/97 09:44 Page:29
      431    20130        /********************************************************************/
      432    20131        /*   Procedure       procedure       procedure       procedure       */
      433    20132        /*********************************************************************/
      434    20133
      435    20134        /* In pre C01 times the blocks that made up a profile were all an even
      436    20135           number of bytes, thus assuring that the next block would have the
      437    20136           type byte on an even boundary.  The only part of the profile that
      438    20137           could vary in size was the cchr part at the end, so nothing was
      439    20138           affected.
      440    20139
      441    20140           Now in C01 there are 3 profile blocks that can vary in size (cchr,
      442    20141           functionkey, and SETUP_CHR).  When the funkey or setup blocks get
      443    20142           altered in size, we must make sure the number of bytes added or
      444    20143           removed is even.  The cchr is still at the end....  The solution is
      445    20144           simply to make sure the setup_chr is an even number of characters,
      446    20145           the funkey stuff uses an even number of bytes for each definition,
      447    20146           the record is padded with a byte if necessary.
      448    20147        */
      449    20148
      450    20149    1   ASD$CREATE_PRO: ENTRY;
      451    20150
      452    20151        /*
      453    20152            ***            Begin procedure                    ***
      454    20153        */
      455    20154    1   CALL ASD$OPEN_PRO_CR;
      456    20155    1   CALL ASD$BUILD_$ASYNC( PROFILE_BUF, ARS );
      457    20156    1   CALL ASD$BUILD_$RBT( PROFILE_BUF, ARS );
      458    20157    1   CALL ASD$BUILD_$RBTD( PROFILE_BUF, ARS );
      459    20158    1   CALL ASD$BUILD_$LINK( PROFILE_BUF, ARS );
      460    20159    1   CALL ASD$BUILD_$URP( PROFILE_BUF, ARS );
      461    20160    1   CALL ASD$BUILD_$3270( PROFILE_BUF, ARS );
      462    20161    1   CALL ASD$BUILD_$VIRCIR( PROFILE_BUF, ARS );
      463    20162    1   CALL ASD$BUILD_$POLLVIP( PROFILE_BUF, ARS );
      464    20163    1   CALL ASD$BUILD_$GRA( PROFILE_BUF, ARS );
      465    20164    1   CALL ASD$CLOSE_PRO ;
      466    20165    1   RETURN;
      467    20166
PL6.E3A0      #001=ASD$BUILD_PRO File=ASD$BUILD_PRO.:E05TSI                      TUE 07/29/97 09:44 Page:30
      468    20167        %SET LISTMAC='1'B;
      469    20168        %SET LISTSUB='1'B;
      470    20169
      471    20170
      472    20171    1   ASD$BUILD_$ASYNC: ENTRY( PRO_BUF, P_ARS );
      473    20172
      474    20173
      475    20174                                                              /* Set up $ASYNC. */
      476    20175    1   PRO_BUF = AS_BLANK ;
      477    20176    1   PP$ = ADDR( PRO_BUF ) ;
      478    20177                                                              /*   Set up header.   */
      479    20178    1   PRO_HDR.TTYP = %KLTY_TTY# ;
      480    20179                                                            /*   Check for extra width.   */
      481    20180    1   IF VLP_ASYNC_PLATEN.EXTWID# = %YES# THEN
      482    20181    1      EXTWID = 1 ;
      483    20182    1   ELSE
      484    20183    1      EXTWID = 0 ;
      485    20184    1   PRO_HDR.WIDTH = VLP_ASYNC_PLATEN.WIDTH# + ( 254*EXTWID ) ;
      486    20185    1   PRO_HDR.LINES = VLP_ASYNC_PLATEN.LENGTH# ;
      487    20186    1   PRO_HDR.ATTR.GRLGL = %NO# ;
      488    20187    1   PRO_HDR.ATTR.TRANSLGL = %NO# ;
      489    20188    1   PRO_HDR.ATTR.NOXLATE = %NO# ;
      490    20189    1   PRO_HDR.ATTR.UPPERCASE = %YES#;
      491    20190    1   PRO_HDR.ATTR.NATL = %NO# ;
      492    20191    1   PRO_HDR.ATTR.TRUOVRPRT = VLP_ASYNC_TRMATTR.TRUOVRPRT# ;
      493    20192    1   PRO_HDR.ATTR.APL = VLP_ASYNC_TRMATTR.APL# ;
      494    20193    1   PRO_HDR.ATTR.BIN = %NO# ;
      495    20194    1   PRO_HDR.ATTR.LCASE = VLP_ASYNC_TRMATTR.LOWERCASEPRINTS# ;
      496    20195    1   PRO_HDR.IO.INPUT = %YES# ;
      497    20196    1   PRO_HDR.IO.OUTPUT = %YES# ;
      498    20197    1   PRO_HDR.DDEV.LP = %YES# ;
      499    20198    1   PRO_HDR.DDEV.CP = %NO# ;
      500    20199    1   PRO_HDR.DDEV.IC = %YES# ;
      501    20200    1   PRO_HDR.DDEV.GRAPHICS_OK = %NO#;
      502    20201                                                              /*   Mover header.   */
      503    20202    1   PP$ -> PRO$HDR = PRO_HDR ;
      504    20203    1   PP$ = PINCRW( PP$, SIZEW( PRO_HDR ) ) ;
PL6.E3A0      #001=ASD$BUILD_PRO File=ASD$BUILD_PRO.:E05TSI                      TUE 07/29/97 09:44 Page:31
      505    20204                                                              /*  Profile name   */
      506    20205        %MOVE_VLP( S_VLP = VLP_ASYNC_PNAME ,
      507    20206        B$VLP = VLP$PNAME ,
      508    20207        T_TYPE = %KV_PRMID_PROFILE ) ;
             20208        %LSET LISTDIR='0'B;

             20211    1   PP$ -> PP$STRCT.TYPE = 3 ;
             20212    1   SIZE = LENGTHC( VLP_ASYNC_PNAME ) ;
             20213    1   PP$ -> PP$STRCT.SIZE = SIZE ;
             20214    1   PP$ = PINCRC( PP$, 2 ) ;
             20215    1   PP$ -> VLP$PNAME = VLP_ASYNC_PNAME ;
             20216    1   PP$ = PINCRC( PP$, SIZE ) ;
      509    20218                                                              /*   Term. Attr.   */
      510    20219        %MOVE_VLP( S_VLP = VLP_ASYNC_TRMATTR ,
      511    20220        B$VLP= VLP$TRMATTR ,
      512    20221        T_TYPE = %KV_PRMID_TRMATTR ) ;
             20222        %LSET LISTDIR='0'B;

             20225    1   PP$ -> PP$STRCT.TYPE = 7 ;
             20226    1   SIZE = LENGTHC( VLP_ASYNC_TRMATTR ) ;
             20227    1   PP$ -> PP$STRCT.SIZE = SIZE ;
             20228    1   PP$ = PINCRC( PP$, 2 ) ;
             20229    1   PP$ -> VLP$TRMATTR = VLP_ASYNC_TRMATTR ;
             20230    1   PP$ = PINCRC( PP$, SIZE ) ;
      513    20232                                                              /*  Term. Control.   */
      514    20233        %MOVE_VLP( S_VLP = VLP_ASYNC_TRMCTL ,
      515    20234        B$VLP = VLP$TRMCTL ,
      516    20235        T_TYPE = %KV_PRMID_TRMCTL ) ;
             20236        %LSET LISTDIR='0'B;

             20239    1   PP$ -> PP$STRCT.TYPE = 4 ;
             20240    1   SIZE = LENGTHC( VLP_ASYNC_TRMCTL ) ;
             20241    1   PP$ -> PP$STRCT.SIZE = SIZE ;
             20242    1   PP$ = PINCRC( PP$, 2 ) ;
             20243    1   PP$ -> VLP$TRMCTL = VLP_ASYNC_TRMCTL ;
             20244    1   PP$ = PINCRC( PP$, SIZE ) ;
      517    20246                                                              /*   Platen   */
PL6.E3A0      #001=ASD$BUILD_PRO File=ASD$BUILD_PRO.:E05TSI                      TUE 07/29/97 09:44 Page:32
      518    20247        %MOVE_VLP( S_VLP = VLP_ASYNC_PLATEN ,
      519    20248        B$VLP = VLP$PLATEN ,
      520    20249        T_TYPE = %KV_PRMID_PLATEN ) ;
             20250        %LSET LISTDIR='0'B;

             20253    1   PP$ -> PP$STRCT.TYPE = 8 ;
             20254    1   SIZE = LENGTHC( VLP_ASYNC_PLATEN ) ;
             20255    1   PP$ -> PP$STRCT.SIZE = SIZE ;
             20256    1   PP$ = PINCRC( PP$, 2 ) ;
             20257    1   PP$ -> VLP$PLATEN = VLP_ASYNC_PLATEN ;
             20258    1   PP$ = PINCRC( PP$, SIZE ) ;
      521    20260                                                              /*   Device tabs.   */
      522    20261        %MOVE_VLP( S_VLP = VLP_ASYNC_TAB ,
      523    20262        B$VLP = VLP$TAB ,
      524    20263        T_TYPE = %KV_PRMID_TRMTAB ) ;
             20264        %LSET LISTDIR='0'B;

             20267    1   PP$ -> PP$STRCT.TYPE = 9 ;
             20268    1   SIZE = LENGTHC( VLP_ASYNC_TAB ) ;
             20269    1   PP$ -> PP$STRCT.SIZE = SIZE ;
             20270    1   PP$ = PINCRC( PP$, 2 ) ;
             20271    1   PP$ -> VLP$TAB = VLP_ASYNC_TAB ;
             20272    1   PP$ = PINCRC( PP$, SIZE ) ;
      525    20274                                                              /*  3270  */
      526    20275        %MOVE_VLP( S_VLP=VLP_ASYNC_3270, B$VLP=VLP$3270, T_TYPE=%KV_PRMID_3270 );
             20276        %LSET LISTDIR='0'B;

             20279    1   PP$ -> PP$STRCT.TYPE = 25 ;
             20280    1   SIZE = LENGTHC( VLP_ASYNC_3270 ) ;
             20281    1   PP$ -> PP$STRCT.SIZE = SIZE ;
             20282    1   PP$ = PINCRC( PP$, 2 ) ;
             20283    1   PP$ -> VLP$3270 = VLP_ASYNC_3270 ;
             20284    1   PP$ = PINCRC( PP$, SIZE ) ;
      527    20286                                                              /* ABSGRPRND_? */
      528    20287        %MOVE_VLP( S_VLP=VLP_ABSGRPRND_EMPHASIS, B$VLP=VLP$ABSGRPRND, T_TYPE=
             20287            %KV_PRMID_ABSGRPRND );
             20288        %LSET LISTDIR='0'B;
PL6.E3A0      #001=ASD$BUILD_PRO File=ASD$BUILD_PRO.:E05TSI                      TUE 07/29/97 09:44 Page:33

             20291    1   PP$ -> PP$STRCT.TYPE = 26 ;
             20292    1   SIZE = LENGTHC( VLP_ABSGRPRND_EMPHASIS ) ;
             20293    1   PP$ -> PP$STRCT.SIZE = SIZE ;
             20294    1   PP$ = PINCRC( PP$, 2 ) ;
             20295    1   PP$ -> VLP$ABSGRPRND = VLP_ABSGRPRND_EMPHASIS ;
             20296    1   PP$ = PINCRC( PP$, SIZE ) ;
      529    20298        %MOVE_VLP( S_VLP=VLP_ABSGRPRND_ERROR, B$VLP=VLP$ABSGRPRND, T_TYPE=
             20298            %KV_PRMID_ABSGRPRND );
             20299        %LSET LISTDIR='0'B;

             20302    1   PP$ -> PP$STRCT.TYPE = 26 ;
             20303    1   SIZE = LENGTHC( VLP_ABSGRPRND_ERROR ) ;
             20304    1   PP$ -> PP$STRCT.SIZE = SIZE ;
             20305    1   PP$ = PINCRC( PP$, 2 ) ;
             20306    1   PP$ -> VLP$ABSGRPRND = VLP_ABSGRPRND_ERROR ;
             20307    1   PP$ = PINCRC( PP$, SIZE ) ;
      530    20309        %MOVE_VLP( S_VLP=VLP_ABSGRPRND_HIDDEN, B$VLP=VLP$ABSGRPRND, T_TYPE=
             20309            %KV_PRMID_ABSGRPRND );
             20310        %LSET LISTDIR='0'B;

             20313    1   PP$ -> PP$STRCT.TYPE = 26 ;
             20314    1   SIZE = LENGTHC( VLP_ABSGRPRND_HIDDEN ) ;
             20315    1   PP$ -> PP$STRCT.SIZE = SIZE ;
             20316    1   PP$ = PINCRC( PP$, 2 ) ;
             20317    1   PP$ -> VLP$ABSGRPRND = VLP_ABSGRPRND_HIDDEN ;
             20318    1   PP$ = PINCRC( PP$, SIZE ) ;
      531    20320        %MOVE_VLP( S_VLP=VLP_ABSGRPRND_INPUT, B$VLP=VLP$ABSGRPRND, T_TYPE=
             20320            %KV_PRMID_ABSGRPRND );
             20321        %LSET LISTDIR='0'B;

             20324    1   PP$ -> PP$STRCT.TYPE = 26 ;
             20325    1   SIZE = LENGTHC( VLP_ABSGRPRND_INPUT ) ;
             20326    1   PP$ -> PP$STRCT.SIZE = SIZE ;
             20327    1   PP$ = PINCRC( PP$, 2 ) ;
             20328    1   PP$ -> VLP$ABSGRPRND = VLP_ABSGRPRND_INPUT ;
             20329    1   PP$ = PINCRC( PP$, SIZE ) ;
PL6.E3A0      #001=ASD$BUILD_PRO File=ASD$BUILD_PRO.:E05TSI                      TUE 07/29/97 09:44 Page:34
      532    20331        %MOVE_VLP( S_VLP=VLP_ABSGRPRND_NULL, B$VLP=VLP$ABSGRPRND, T_TYPE=
             20331            %KV_PRMID_ABSGRPRND );
             20332        %LSET LISTDIR='0'B;

             20335    1   PP$ -> PP$STRCT.TYPE = 26 ;
             20336    1   SIZE = LENGTHC( VLP_ABSGRPRND_NULL ) ;
             20337    1   PP$ -> PP$STRCT.SIZE = SIZE ;
             20338    1   PP$ = PINCRC( PP$, 2 ) ;
             20339    1   PP$ -> VLP$ABSGRPRND = VLP_ABSGRPRND_NULL ;
             20340    1   PP$ = PINCRC( PP$, SIZE ) ;
      533    20342        %MOVE_VLP( S_VLP=VLP_ABSGRPRND_OUTPUT, B$VLP=VLP$ABSGRPRND, T_TYPE=
             20342            %KV_PRMID_ABSGRPRND );
             20343        %LSET LISTDIR='0'B;

             20346    1   PP$ -> PP$STRCT.TYPE = 26 ;
             20347    1   SIZE = LENGTHC( VLP_ABSGRPRND_OUTPUT ) ;
             20348    1   PP$ -> PP$STRCT.SIZE = SIZE ;
             20349    1   PP$ = PINCRC( PP$, 2 ) ;
             20350    1   PP$ -> VLP$ABSGRPRND = VLP_ABSGRPRND_OUTPUT ;
             20351    1   PP$ = PINCRC( PP$, SIZE ) ;
      534    20353        %MOVE_VLP( S_VLP=VLP_ABSGRPRND_WARNING, B$VLP=VLP$ABSGRPRND, T_TYPE=
             20353            %KV_PRMID_ABSGRPRND );
             20354        %LSET LISTDIR='0'B;

             20357    1   PP$ -> PP$STRCT.TYPE = 26 ;
             20358    1   SIZE = LENGTHC( VLP_ABSGRPRND_WARNING ) ;
             20359    1   PP$ -> PP$STRCT.SIZE = SIZE ;
             20360    1   PP$ = PINCRC( PP$, 2 ) ;
             20361    1   PP$ -> VLP$ABSGRPRND = VLP_ABSGRPRND_WARNING ;
             20362    1   PP$ = PINCRC( PP$, SIZE ) ;
      535    20364                                               /* Function key defs */
      536    20365        %MOVE_VLP( S_VLP = VLP_ASYNC_FUNKEY ,
      537    20366        B$VLP = VLP$FUNKEY,
      538    20367        T_TYPE = %KV_PRMID_KEYDEFS ) ;
             20368        %LSET LISTDIR='0'B;

             20371    1   PP$ -> PP$STRCT.TYPE = 24 ;
PL6.E3A0      #001=ASD$BUILD_PRO File=ASD$BUILD_PRO.:E05TSI                      TUE 07/29/97 09:44 Page:35
             20372    1   SIZE = LENGTHC( VLP_ASYNC_FUNKEY ) ;
             20373    1   PP$ -> PP$STRCT.SIZE = SIZE ;
             20374    1   PP$ = PINCRC( PP$, 2 ) ;
             20375    1   PP$ -> VLP$FUNKEY = VLP_ASYNC_FUNKEY ;
             20376    1   PP$ = PINCRC( PP$, SIZE ) ;
      539    20378                                               /* Setup_chr struct */
      540    20379    1   SIZE = LENGTHC (VLP_ASYNC_SETUP_CHR);
      541    20380    1   PP$ -> VLP$SETUP_CHR = VLP_ASYNC_SETUP_CHR;
      542    20381    1   PP$ = PINCRC (PP$, SIZE);
      543    20382                                                              /* Timing algorhythm */
      544    20383                                                              /* Control character */
      545    20384        %MOVE_VLP( S_VLP = VLP_ASYNC_CCHR ,
      546    20385        B$VLP = VLP$CCHR ,
      547    20386        T_TYPE = %KV_PRMID_CTRCHR ) ;
             20387        %LSET LISTDIR='0'B;

             20390    1   PP$ -> PP$STRCT.TYPE = 15 ;
             20391    1   SIZE = LENGTHC( VLP_ASYNC_CCHR ) ;
             20392    1   PP$ -> PP$STRCT.SIZE = SIZE ;
             20393    1   PP$ = PINCRC( PP$, 2 ) ;
             20394    1   PP$ -> VLP$CCHR = VLP_ASYNC_CCHR ;
             20395    1   PP$ = PINCRC( PP$, SIZE ) ;
      548    20397                                                           /*   Get actual record size.   */
      549    20398    1   P_ARS = POFFC( PP$, ADDR(PRO_BUF) ) ;
      550    20399    1   PRO_KEY = VLP_ASYNC_PNAME ;
      551    20400
      552    20401    1   CALL ASD$WRITE_PRO( PRO_KEY, PRO_BUF, P_ARS-1 ) ;
      553    20402    1   PRO_KEY = VLP_GRAPHICFILE_PNAME ;
      554    20403    1   ADDR(PRO_BUF) -> PRO$HDR.DDEV.GRAPHICS_OK = %YES#;
      555    20404
      556    20405    1   CALL ASD$WRITE_PRO( PRO_KEY, PRO_BUF, P_ARS-1 ) ;
      557    20406    1   RETURN;
      558    20407
      559    20408
      560    20409    1   ASD$BUILD_$3270: ENTRY( PRO_BUF, P_ARS );
      561    20410
      562    20411
PL6.E3A0      #001=ASD$BUILD_PRO File=ASD$BUILD_PRO.:E05TSI                      TUE 07/29/97 09:44 Page:36
      563    20412                                                              /* Set up $3270. */
      564    20413    1   PRO_BUF = AS_BLANK ;
      565    20414    1   PP$ = ADDR( PRO_BUF ) ;
      566    20415                                                              /*   Set up header.   */
      567    20416    1   PRO_HDR.TTYP = %KLTY_LINEDEV#;
      568    20417                                                            /*   Check for extra width.   */
      569    20418    1   IF VLP_3270_PLATEN.EXTWID# = %YES# THEN
      570    20419    1      EXTWID = 1 ;
      571    20420    1   ELSE
      572    20421    1      EXTWID = 0 ;
      573    20422    1   PRO_HDR.WIDTH = VLP_3270_PLATEN.WIDTH# + ( 254*EXTWID ) ;
      574    20423    1   PRO_HDR.LINES = VLP_3270_PLATEN.LENGTH# ;
      575    20424    1   PRO_HDR.ATTR.GRLGL = %NO# ;
      576    20425    1   PRO_HDR.ATTR.TRANSLGL = %NO# ;
      577    20426    1   PRO_HDR.ATTR.NOXLATE = %NO# ;
      578    20427    1   PRO_HDR.ATTR.UPPERCASE = %YES#;
      579    20428    1   PRO_HDR.ATTR.NATL = %NO# ;
      580    20429    1   PRO_HDR.ATTR.TRUOVRPRT = VLP_3270_TRMATTR.TRUOVRPRT# ;
      581    20430    1   PRO_HDR.ATTR.APL = VLP_3270_TRMATTR.APL# ;
      582    20431    1   PRO_HDR.ATTR.BIN = %NO# ;
      583    20432    1   PRO_HDR.ATTR.LCASE = VLP_3270_TRMATTR.LOWERCASEPRINTS# ;
      584    20433    1   PRO_HDR.IO.INPUT = %YES# ;
      585    20434    1   PRO_HDR.IO.OUTPUT = %YES# ;
      586    20435    1   PRO_HDR.DDEV.LP = %YES# ;
      587    20436    1   PRO_HDR.DDEV.CP = %NO# ;
      588    20437    1   PRO_HDR.DDEV.IC = %YES# ;
      589    20438    1   PRO_HDR.DDEV.GRAPHICS_OK = %NO#;
      590    20439                                                              /*   Mover header.   */
      591    20440    1   PP$ -> PRO$HDR = PRO_HDR ;
      592    20441    1   PP$ = PINCRW( PP$, SIZEW( PRO_HDR ) ) ;
      593    20442                                                              /*  Profile name   */
      594    20443        %MOVE_VLP( S_VLP = VLP_3270_PNAME ,
      595    20444        B$VLP = VLP$PNAME ,
      596    20445        T_TYPE = %KV_PRMID_PROFILE ) ;
             20446        %LSET LISTDIR='0'B;

             20449    1   PP$ -> PP$STRCT.TYPE = 3 ;
PL6.E3A0      #001=ASD$BUILD_PRO File=ASD$BUILD_PRO.:E05TSI                      TUE 07/29/97 09:44 Page:37
             20450    1   SIZE = LENGTHC( VLP_3270_PNAME ) ;
             20451    1   PP$ -> PP$STRCT.SIZE = SIZE ;
             20452    1   PP$ = PINCRC( PP$, 2 ) ;
             20453    1   PP$ -> VLP$PNAME = VLP_3270_PNAME ;
             20454    1   PP$ = PINCRC( PP$, SIZE ) ;
      597    20456                                                              /*  Term. Control.   */
      598    20457        %MOVE_VLP( S_VLP = VLP_3270_TRMCTL ,
      599    20458        B$VLP = VLP$TRMCTL ,
      600    20459        T_TYPE = %KV_PRMID_TRMCTL ) ;
             20460        %LSET LISTDIR='0'B;

             20463    1   PP$ -> PP$STRCT.TYPE = 4 ;
             20464    1   SIZE = LENGTHC( VLP_3270_TRMCTL ) ;
             20465    1   PP$ -> PP$STRCT.SIZE = SIZE ;
             20466    1   PP$ = PINCRC( PP$, 2 ) ;
             20467    1   PP$ -> VLP$TRMCTL = VLP_3270_TRMCTL ;
             20468    1   PP$ = PINCRC( PP$, SIZE ) ;
      601    20470                                                              /*   Term. Attr.   */
      602    20471        %MOVE_VLP( S_VLP = VLP_3270_TRMATTR ,
      603    20472        B$VLP= VLP$TRMATTR ,
      604    20473        T_TYPE = %KV_PRMID_TRMATTR ) ;
             20474        %LSET LISTDIR='0'B;

             20477    1   PP$ -> PP$STRCT.TYPE = 7 ;
             20478    1   SIZE = LENGTHC( VLP_3270_TRMATTR ) ;
             20479    1   PP$ -> PP$STRCT.SIZE = SIZE ;
             20480    1   PP$ = PINCRC( PP$, 2 ) ;
             20481    1   PP$ -> VLP$TRMATTR = VLP_3270_TRMATTR ;
             20482    1   PP$ = PINCRC( PP$, SIZE ) ;
      605    20484                                                              /*   Platen   */
      606    20485        %MOVE_VLP( S_VLP = VLP_3270_PLATEN ,
      607    20486        B$VLP = VLP$PLATEN ,
      608    20487        T_TYPE = %KV_PRMID_PLATEN ) ;
             20488        %LSET LISTDIR='0'B;

             20491    1   PP$ -> PP$STRCT.TYPE = 8 ;
             20492    1   SIZE = LENGTHC( VLP_3270_PLATEN ) ;
PL6.E3A0      #001=ASD$BUILD_PRO File=ASD$BUILD_PRO.:E05TSI                      TUE 07/29/97 09:44 Page:38
             20493    1   PP$ -> PP$STRCT.SIZE = SIZE ;
             20494    1   PP$ = PINCRC( PP$, 2 ) ;
             20495    1   PP$ -> VLP$PLATEN = VLP_3270_PLATEN ;
             20496    1   PP$ = PINCRC( PP$, SIZE ) ;
      609    20498                                                              /*   Device tabs.   */
      610    20499        %MOVE_VLP( S_VLP = VLP_3270_TAB ,
      611    20500        B$VLP = VLP$TAB ,
      612    20501        T_TYPE = %KV_PRMID_TRMTAB ) ;
             20502        %LSET LISTDIR='0'B;

             20505    1   PP$ -> PP$STRCT.TYPE = 9 ;
             20506    1   SIZE = LENGTHC( VLP_3270_TAB ) ;
             20507    1   PP$ -> PP$STRCT.SIZE = SIZE ;
             20508    1   PP$ = PINCRC( PP$, 2 ) ;
             20509    1   PP$ -> VLP$TAB = VLP_3270_TAB ;
             20510    1   PP$ = PINCRC( PP$, SIZE ) ;
      613    20512                                                              /*  3270  */
      614    20513        %MOVE_VLP( S_VLP=VLP_3270_3270, B$VLP=VLP$3270, T_TYPE=%KV_PRMID_3270 );
             20514        %LSET LISTDIR='0'B;

             20517    1   PP$ -> PP$STRCT.TYPE = 25 ;
             20518    1   SIZE = LENGTHC( VLP_3270_3270 ) ;
             20519    1   PP$ -> PP$STRCT.SIZE = SIZE ;
             20520    1   PP$ = PINCRC( PP$, 2 ) ;
             20521    1   PP$ -> VLP$3270 = VLP_3270_3270 ;
             20522    1   PP$ = PINCRC( PP$, SIZE ) ;
      615    20524                                                              /* ABSGRPRND_? */
      616    20525        %MOVE_VLP( S_VLP=VLP_ABSGRPRND_EMPHASIS, B$VLP=VLP$ABSGRPRND, T_TYPE=
             20525            %KV_PRMID_ABSGRPRND );
             20526        %LSET LISTDIR='0'B;

             20529    1   PP$ -> PP$STRCT.TYPE = 26 ;
             20530    1   SIZE = LENGTHC( VLP_ABSGRPRND_EMPHASIS ) ;
             20531    1   PP$ -> PP$STRCT.SIZE = SIZE ;
             20532    1   PP$ = PINCRC( PP$, 2 ) ;
             20533    1   PP$ -> VLP$ABSGRPRND = VLP_ABSGRPRND_EMPHASIS ;
             20534    1   PP$ = PINCRC( PP$, SIZE ) ;
PL6.E3A0      #001=ASD$BUILD_PRO File=ASD$BUILD_PRO.:E05TSI                      TUE 07/29/97 09:44 Page:39
      617    20536        %MOVE_VLP( S_VLP=VLP_ABSGRPRND_ERROR, B$VLP=VLP$ABSGRPRND, T_TYPE=
             20536            %KV_PRMID_ABSGRPRND );
             20537        %LSET LISTDIR='0'B;

             20540    1   PP$ -> PP$STRCT.TYPE = 26 ;
             20541    1   SIZE = LENGTHC( VLP_ABSGRPRND_ERROR ) ;
             20542    1   PP$ -> PP$STRCT.SIZE = SIZE ;
             20543    1   PP$ = PINCRC( PP$, 2 ) ;
             20544    1   PP$ -> VLP$ABSGRPRND = VLP_ABSGRPRND_ERROR ;
             20545    1   PP$ = PINCRC( PP$, SIZE ) ;
      618    20547        %MOVE_VLP( S_VLP=VLP_ABSGRPRND_HIDDEN, B$VLP=VLP$ABSGRPRND, T_TYPE=
             20547            %KV_PRMID_ABSGRPRND );
             20548        %LSET LISTDIR='0'B;

             20551    1   PP$ -> PP$STRCT.TYPE = 26 ;
             20552    1   SIZE = LENGTHC( VLP_ABSGRPRND_HIDDEN ) ;
             20553    1   PP$ -> PP$STRCT.SIZE = SIZE ;
             20554    1   PP$ = PINCRC( PP$, 2 ) ;
             20555    1   PP$ -> VLP$ABSGRPRND = VLP_ABSGRPRND_HIDDEN ;
             20556    1   PP$ = PINCRC( PP$, SIZE ) ;
      619    20558        %MOVE_VLP( S_VLP=VLP_ABSGRPRND_INPUT, B$VLP=VLP$ABSGRPRND, T_TYPE=
             20558            %KV_PRMID_ABSGRPRND );
             20559        %LSET LISTDIR='0'B;

             20562    1   PP$ -> PP$STRCT.TYPE = 26 ;
             20563    1   SIZE = LENGTHC( VLP_ABSGRPRND_INPUT ) ;
             20564    1   PP$ -> PP$STRCT.SIZE = SIZE ;
             20565    1   PP$ = PINCRC( PP$, 2 ) ;
             20566    1   PP$ -> VLP$ABSGRPRND = VLP_ABSGRPRND_INPUT ;
             20567    1   PP$ = PINCRC( PP$, SIZE ) ;
      620    20569        %MOVE_VLP( S_VLP=VLP_ABSGRPRND_NULL, B$VLP=VLP$ABSGRPRND, T_TYPE=
             20569            %KV_PRMID_ABSGRPRND );
             20570        %LSET LISTDIR='0'B;

             20573    1   PP$ -> PP$STRCT.TYPE = 26 ;
             20574    1   SIZE = LENGTHC( VLP_ABSGRPRND_NULL ) ;
             20575    1   PP$ -> PP$STRCT.SIZE = SIZE ;
PL6.E3A0      #001=ASD$BUILD_PRO File=ASD$BUILD_PRO.:E05TSI                      TUE 07/29/97 09:44 Page:40
             20576    1   PP$ = PINCRC( PP$, 2 ) ;
             20577    1   PP$ -> VLP$ABSGRPRND = VLP_ABSGRPRND_NULL ;
             20578    1   PP$ = PINCRC( PP$, SIZE ) ;
      621    20580        %MOVE_VLP( S_VLP=VLP_ABSGRPRND_OUTPUT, B$VLP=VLP$ABSGRPRND, T_TYPE=
             20580            %KV_PRMID_ABSGRPRND );
             20581        %LSET LISTDIR='0'B;

             20584    1   PP$ -> PP$STRCT.TYPE = 26 ;
             20585    1   SIZE = LENGTHC( VLP_ABSGRPRND_OUTPUT ) ;
             20586    1   PP$ -> PP$STRCT.SIZE = SIZE ;
             20587    1   PP$ = PINCRC( PP$, 2 ) ;
             20588    1   PP$ -> VLP$ABSGRPRND = VLP_ABSGRPRND_OUTPUT ;
             20589    1   PP$ = PINCRC( PP$, SIZE ) ;
      622    20591        %MOVE_VLP( S_VLP=VLP_ABSGRPRND_WARNING, B$VLP=VLP$ABSGRPRND, T_TYPE=
             20591            %KV_PRMID_ABSGRPRND );
             20592        %LSET LISTDIR='0'B;

             20595    1   PP$ -> PP$STRCT.TYPE = 26 ;
             20596    1   SIZE = LENGTHC( VLP_ABSGRPRND_WARNING ) ;
             20597    1   PP$ -> PP$STRCT.SIZE = SIZE ;
             20598    1   PP$ = PINCRC( PP$, 2 ) ;
             20599    1   PP$ -> VLP$ABSGRPRND = VLP_ABSGRPRND_WARNING ;
             20600    1   PP$ = PINCRC( PP$, SIZE ) ;
      623    20602                                               /* Setup_chr struct */
      624    20603    1   SIZE = LENGTHC (VLP_3270_SETUP_CHR);
      625    20604    1   PP$ -> VLP$SETUP_CHR = VLP_3270_SETUP_CHR;
      626    20605    1   PP$ = PINCRC (PP$, SIZE);
      627    20606                                                           /*   Get actual record size.   */
      628    20607    1   P_ARS = POFFC( PP$, ADDR(PRO_BUF) ) ;
      629    20608    1   PRO_KEY = VLP_3270_PNAME ;
      630    20609
      631    20610    1   CALL ASD$WRITE_PRO( PRO_KEY, PRO_BUF, P_ARS-1 ) ;
      632    20611    1   RETURN;
      633    20612
      634    20613
      635    20614    1   ASD$BUILD_$RBT: ENTRY( PRO_BUF, P_ARS );
      636    20615
PL6.E3A0      #001=ASD$BUILD_PRO File=ASD$BUILD_PRO.:E05TSI                      TUE 07/29/97 09:44 Page:41
      637    20616
      638    20617                                                              /* Set up $RBT */
      639    20618    1   PRO_BUF = AS_BLANK ;
      640    20619    1   PP$ = ADDR(PRO_BUF);
      641    20620                                                              /* Set up header */
      642    20621    1   PRO_HDR.TTYP = %KLTY_STRM# ;
      643    20622    1   PRO_HDR.WIDTH = 0;
      644    20623    1   PRO_HDR.LINES = 0;
      645    20624    1   PRO_HDR.ATTR.GRLGL = %NO# ;
      646    20625    1   PRO_HDR.ATTR.TRANSLGL = %NO# ;
      647    20626    1   PRO_HDR.ATTR.NOXLATE = %NO# ;
      648    20627    1   PRO_HDR.ATTR.UPPERCASE = %YES#;
      649    20628    1   PRO_HDR.ATTR.NATL = %NO# ;
      650    20629    1   PRO_HDR.ATTR.TRUOVRPRT = %NO#;
      651    20630    1   PRO_HDR.ATTR.APL = %NO#;
      652    20631    1   PRO_HDR.ATTR.BIN = %NO# ;
      653    20632    1   PRO_HDR.ATTR.LCASE = %NO#;
      654    20633    1   PRO_HDR.IO.INPUT = %YES# ;
      655    20634    1   PRO_HDR.IO.OUTPUT = %YES# ;
      656    20635    1   PRO_HDR.DDEV.LP = %NO# ;
      657    20636    1   PRO_HDR.DDEV.CP = %NO# ;
      658    20637    1   PRO_HDR.DDEV.IC = %NO# ;
      659    20638    1   PRO_HDR.DDEV.GRAPHICS_OK = %NO#;
      660    20639                                                              /* Move header */
      661    20640    1   PP$ -> PRO$HDR = PRO_HDR ;
      662    20641    1   PP$ = PINCRW( PP$, LENGTHW( PRO_HDR ) ) ;
      663    20642                                                              /* Profile name */
      664    20643        %MOVE_VLP( S_VLP = VLP_RBT_PNAME ,
      665    20644        B$VLP = VLP$PNAME ,
      666    20645        T_TYPE = %KV_PRMID_PROFILE ) ;
             20646        %LSET LISTDIR='0'B;

             20649    1   PP$ -> PP$STRCT.TYPE = 3 ;
             20650    1   SIZE = LENGTHC( VLP_RBT_PNAME ) ;
             20651    1   PP$ -> PP$STRCT.SIZE = SIZE ;
             20652    1   PP$ = PINCRC( PP$, 2 ) ;
             20653    1   PP$ -> VLP$PNAME = VLP_RBT_PNAME ;
PL6.E3A0      #001=ASD$BUILD_PRO File=ASD$BUILD_PRO.:E05TSI                      TUE 07/29/97 09:44 Page:42
             20654    1   PP$ = PINCRC( PP$, SIZE ) ;
      667    20656
      668    20657        %MOVE_VLP( S_VLP = VLP_RBT_TRMD ,
      669    20658        B$VLP = VLP$TRMD ,
      670    20659        T_TYPE = %KL_PRMID_TRMD ) ;
             20660        %LSET LISTDIR='0'B;

             20663    1   PP$ -> PP$STRCT.TYPE = 13 ;
             20664    1   SIZE = LENGTHC( VLP_RBT_TRMD ) ;
             20665    1   PP$ -> PP$STRCT.SIZE = SIZE ;
             20666    1   PP$ = PINCRC( PP$, 2 ) ;
             20667    1   PP$ -> VLP$TRMD = VLP_RBT_TRMD ;
             20668    1   PP$ = PINCRC( PP$, SIZE ) ;
      671    20670
      672    20671                                                              /* Get actual record size. */
      673    20672    1   P_ARS = POFFC( PP$, ADDR(PRO_BUF) ) ;
      674    20673    1   PRO_KEY = VLP_RBT_PNAME ;
      675    20674    1   CALL ASD$WRITE_PRO( PRO_KEY, PRO_BUF, P_ARS-1 ) ;
      676    20675    1   RETURN;
      677    20676
      678    20677
      679    20678    1   ASD$BUILD_$RBTD: ENTRY( PRO_BUF, P_ARS );
      680    20679
      681    20680
      682    20681                                                              /* Set up $RBTD */
      683    20682    1   PP$ = ADDR(PRO_BUF);
      684    20683    1   PRO_BUF = AS_BLANK ;
      685    20684                                                              /* Set up header */
      686    20685    1   PRO_HDR.TTYP = %KLTY_SDEV# ;
      687    20686                                                            /*   Check for extra width.   */
      688    20687    1   IF VLP_RBTD_PLATEN.EXTWID# = %YES# THEN
      689    20688    1      EXTWID = 1 ;
      690    20689    1   ELSE
      691    20690    1      EXTWID = 0 ;
      692    20691    1   PRO_HDR.WIDTH = VLP_RBTD_PLATEN.WIDTH# + ( 254*EXTWID ) ;
      693    20692    1   PRO_HDR.LINES = VLP_RBTD_PLATEN.LENGTH# ;
      694    20693    1   PRO_HDR.ATTR.GRLGL = %NO# ;
PL6.E3A0      #001=ASD$BUILD_PRO File=ASD$BUILD_PRO.:E05TSI                      TUE 07/29/97 09:44 Page:43
      695    20694    1   PRO_HDR.ATTR.TRANSLGL = %NO# ;
      696    20695    1   PRO_HDR.ATTR.NOXLATE = %NO# ;
      697    20696    1   PRO_HDR.ATTR.UPPERCASE = %YES#;
      698    20697    1   PRO_HDR.ATTR.NATL = %NO# ;
      699    20698    1   PRO_HDR.ATTR.TRUOVRPRT = VLP_RBTD_TRMATTR.TRUOVRPRT# ;
      700    20699    1   PRO_HDR.ATTR.APL = VLP_RBTD_TRMATTR.APL# ;
      701    20700    1   PRO_HDR.ATTR.BIN = %NO# ;
      702    20701    1   PRO_HDR.ATTR.LCASE = VLP_RBTD_TRMATTR.LOWERCASEPRINTS# ;
      703    20702    1   PRO_HDR.IO.INPUT = %NO# ;
      704    20703    1   PRO_HDR.IO.OUTPUT = %NO# ;
      705    20704    1   PRO_HDR.DDEV.LP = %NO# ;
      706    20705    1   PRO_HDR.DDEV.CP = %YES# ;
      707    20706    1   PRO_HDR.DDEV.IC = %NO# ;
      708    20707    1   PRO_HDR.DDEV.GRAPHICS_OK = %NO#;
      709    20708                                                              /*   Mover header.   */
      710    20709    1   PP$ -> PRO$HDR = PRO_HDR ;
      711    20710    1   PP$ = PINCRW( PP$, SIZEW( PRO_HDR ) ) ;
      712    20711                                                              /*  Profile name   */
      713    20712        %MOVE_VLP( S_VLP = VLP_RBTD_PNAME ,
      714    20713        B$VLP = VLP$PNAME ,
      715    20714        T_TYPE = %KV_PRMID_PROFILE ) ;
             20715        %LSET LISTDIR='0'B;

             20718    1   PP$ -> PP$STRCT.TYPE = 3 ;
             20719    1   SIZE = LENGTHC( VLP_RBTD_PNAME ) ;
             20720    1   PP$ -> PP$STRCT.SIZE = SIZE ;
             20721    1   PP$ = PINCRC( PP$, 2 ) ;
             20722    1   PP$ -> VLP$PNAME = VLP_RBTD_PNAME ;
             20723    1   PP$ = PINCRC( PP$, SIZE ) ;
      716    20725                                                              /*  Term. Control.   */
      717    20726        %MOVE_VLP( S_VLP = VLP_RBTD_TRMCTL ,
      718    20727        B$VLP = VLP$TRMCTL ,
      719    20728        T_TYPE = %KV_PRMID_TRMCTL ) ;
             20729        %LSET LISTDIR='0'B;

             20732    1   PP$ -> PP$STRCT.TYPE = 4 ;
             20733    1   SIZE = LENGTHC( VLP_RBTD_TRMCTL ) ;
PL6.E3A0      #001=ASD$BUILD_PRO File=ASD$BUILD_PRO.:E05TSI                      TUE 07/29/97 09:44 Page:44
             20734    1   PP$ -> PP$STRCT.SIZE = SIZE ;
             20735    1   PP$ = PINCRC( PP$, 2 ) ;
             20736    1   PP$ -> VLP$TRMCTL = VLP_RBTD_TRMCTL ;
             20737    1   PP$ = PINCRC( PP$, SIZE ) ;
      720    20739                                                              /* Term. Attr. */
      721    20740        %MOVE_VLP( S_VLP = VLP_RBTD_TRMATTR ,
      722    20741        B$VLP = VLP$TRMATTR ,
      723    20742        T_TYPE = %KV_PRMID_TRMATTR ) ;
             20743        %LSET LISTDIR='0'B;

             20746    1   PP$ -> PP$STRCT.TYPE = 7 ;
             20747    1   SIZE = LENGTHC( VLP_RBTD_TRMATTR ) ;
             20748    1   PP$ -> PP$STRCT.SIZE = SIZE ;
             20749    1   PP$ = PINCRC( PP$, 2 ) ;
             20750    1   PP$ -> VLP$TRMATTR = VLP_RBTD_TRMATTR ;
             20751    1   PP$ = PINCRC( PP$, SIZE ) ;
      724    20753                                                              /* Device addr. */
      725    20754                                                              /* Platen */
      726    20755        %MOVE_VLP( S_VLP = VLP_RBTD_PLATEN ,
      727    20756        B$VLP = VLP$PLATEN ,
      728    20757        T_TYPE = %KV_PRMID_PLATEN ) ;
             20758        %LSET LISTDIR='0'B;

             20761    1   PP$ -> PP$STRCT.TYPE = 8 ;
             20762    1   SIZE = LENGTHC( VLP_RBTD_PLATEN ) ;
             20763    1   PP$ -> PP$STRCT.SIZE = SIZE ;
             20764    1   PP$ = PINCRC( PP$, 2 ) ;
             20765    1   PP$ -> VLP$PLATEN = VLP_RBTD_PLATEN ;
             20766    1   PP$ = PINCRC( PP$, SIZE ) ;
      729    20768                                                              /* Get actual record size. */
      730    20769    1   P_ARS = POFFC( PP$, ADDR(PRO_BUF) ) ;
      731    20770    1   PRO_KEY = VLP_RBTD_PNAME ;
      732    20771
      733    20772    1   CALL ASD$WRITE_PRO( PRO_KEY, PRO_BUF, P_ARS-1 ) ;
      734    20773    1   RETURN;
      735    20774
      736    20775
PL6.E3A0      #001=ASD$BUILD_PRO File=ASD$BUILD_PRO.:E05TSI                      TUE 07/29/97 09:44 Page:45
      737    20776    1   ASD$BUILD_$LINK: ENTRY( PRO_BUF, P_ARS );
      738    20777
      739    20778
      740    20779                                                              /* Set up $LINK */
      741    20780    1   PRO_BUF = AS_BLANK ;
      742    20781    1   PP$ = ADDR(PRO_BUF);
      743    20782                                                              /* Set up header */
      744    20783    1   PRO_HDR.TTYP = %KLTY_LINK# ;
      745    20784    1   PRO_HDR.WIDTH = 0;
      746    20785    1   PRO_HDR.LINES = 0;
      747    20786    1   PRO_HDR.ATTR.GRLGL = %NO# ;
      748    20787    1   PRO_HDR.ATTR.TRANSLGL = %NO# ;
      749    20788    1   PRO_HDR.ATTR.NOXLATE = %NO# ;
      750    20789    1   PRO_HDR.ATTR.UPPERCASE = %YES#;
      751    20790    1   PRO_HDR.ATTR.NATL = %NO# ;
      752    20791    1   PRO_HDR.ATTR.TRUOVRPRT = %NO#;
      753    20792    1   PRO_HDR.ATTR.APL = %NO#;
      754    20793    1   PRO_HDR.ATTR.BIN = %NO# ;
      755    20794    1   PRO_HDR.ATTR.LCASE = %NO#;
      756    20795    1   PRO_HDR.IO.INPUT = %YES# ;
      757    20796    1   PRO_HDR.IO.OUTPUT = %YES# ;
      758    20797    1   PRO_HDR.DDEV.LP = %NO# ;
      759    20798    1   PRO_HDR.DDEV.CP = %NO# ;
      760    20799    1   PRO_HDR.DDEV.IC = %NO# ;
      761    20800    1   PRO_HDR.DDEV.GRAPHICS_OK = %NO#;
      762    20801                                                              /* Move header */
      763    20802    1   PP$ -> PRO$HDR = PRO_HDR ;
      764    20803    1   PP$ = PINCRW( PP$, LENGTHW( PRO_HDR ) ) ;
      765    20804                                                              /* Profile name */
      766    20805        %MOVE_VLP( S_VLP = VLP_LINK_PNAME ,
      767    20806        B$VLP = VLP$PNAME ,
      768    20807        T_TYPE = %KV_PRMID_PROFILE ) ;
             20808        %LSET LISTDIR='0'B;

             20811    1   PP$ -> PP$STRCT.TYPE = 3 ;
             20812    1   SIZE = LENGTHC( VLP_LINK_PNAME ) ;
             20813    1   PP$ -> PP$STRCT.SIZE = SIZE ;
PL6.E3A0      #001=ASD$BUILD_PRO File=ASD$BUILD_PRO.:E05TSI                      TUE 07/29/97 09:44 Page:46
             20814    1   PP$ = PINCRC( PP$, 2 ) ;
             20815    1   PP$ -> VLP$PNAME = VLP_LINK_PNAME ;
             20816    1   PP$ = PINCRC( PP$, SIZE ) ;
      769    20818
      770    20819        %MOVE_VLP( S_VLP = VLP_LINK_LINK,
      771    20820        B$VLP = VLP$LINK ,
      772    20821        T_TYPE = %KL_PRMID_LINK ) ;
             20822        %LSET LISTDIR='0'B;

             20825    1   PP$ -> PP$STRCT.TYPE = 23 ;
             20826    1   SIZE = LENGTHC( VLP_LINK_LINK ) ;
             20827    1   PP$ -> PP$STRCT.SIZE = SIZE ;
             20828    1   PP$ = PINCRC( PP$, 2 ) ;
             20829    1   PP$ -> VLP$LINK = VLP_LINK_LINK ;
             20830    1   PP$ = PINCRC( PP$, SIZE ) ;
      773    20832                                                              /* Get actual record size. */
      774    20833    1   P_ARS = POFFC( PP$, ADDR(PRO_BUF) ) ;
      775    20834    1   PRO_KEY = VLP_LINK_PNAME ;
      776    20835
      777    20836    1   CALL ASD$WRITE_PRO( PRO_KEY, PRO_BUF, P_ARS-1 ) ;
      778    20837    1   RETURN;
      779    20838
      780    20839    1   ASD$BUILD_$VIRCIR: ENTRY( PRO_BUF, P_ARS );
      781    20840
      782    20841
      783    20842                                                              /* Set up $VIRCIR */
      784    20843    1   PRO_BUF = AS_BLANK ;
      785    20844    1   PP$ = ADDR(PRO_BUF);
      786    20845                                                              /* Set up header */
      787    20846    1   PRO_HDR.TTYP = %KLTY_VIRCIR# ;
      788    20847    1   PRO_HDR.WIDTH = 0;
      789    20848    1   PRO_HDR.LINES = 0;
      790    20849    1   PRO_HDR.ATTR.GRLGL = %NO# ;
      791    20850    1   PRO_HDR.ATTR.TRANSLGL = %NO# ;
      792    20851    1   PRO_HDR.ATTR.NOXLATE = %NO# ;
      793    20852    1   PRO_HDR.ATTR.UPPERCASE = %YES#;
      794    20853    1   PRO_HDR.ATTR.NATL = %NO# ;
PL6.E3A0      #001=ASD$BUILD_PRO File=ASD$BUILD_PRO.:E05TSI                      TUE 07/29/97 09:44 Page:47
      795    20854    1   PRO_HDR.ATTR.TRUOVRPRT = %NO#;
      796    20855    1   PRO_HDR.ATTR.APL = %NO#;
      797    20856    1   PRO_HDR.ATTR.BIN = %NO# ;
      798    20857    1   PRO_HDR.ATTR.LCASE = %NO#;
      799    20858    1   PRO_HDR.IO.INPUT = %YES# ;
      800    20859    1   PRO_HDR.IO.OUTPUT = %YES# ;
      801    20860    1   PRO_HDR.DDEV.LP = %NO# ;
      802    20861    1   PRO_HDR.DDEV.CP = %NO# ;
      803    20862    1   PRO_HDR.DDEV.IC = %NO# ;
      804    20863    1   PRO_HDR.DDEV.GRAPHICS_OK = %NO#;
      805    20864                                                              /* Move header */
      806    20865    1   PP$ -> PRO$HDR = PRO_HDR ;
      807    20866    1   PP$ = PINCRW( PP$, LENGTHW( PRO_HDR ) ) ;
      808    20867                                                              /* Profile name */
      809    20868        %MOVE_VLP( S_VLP = VLP_VIRCIR_PNAME ,
      810    20869        B$VLP = VLP$PNAME ,
      811    20870        T_TYPE = %KV_PRMID_PROFILE ) ;
             20871        %LSET LISTDIR='0'B;

             20874    1   PP$ -> PP$STRCT.TYPE = 3 ;
             20875    1   SIZE = LENGTHC( VLP_VIRCIR_PNAME ) ;
             20876    1   PP$ -> PP$STRCT.SIZE = SIZE ;
             20877    1   PP$ = PINCRC( PP$, 2 ) ;
             20878    1   PP$ -> VLP$PNAME = VLP_VIRCIR_PNAME ;
             20879    1   PP$ = PINCRC( PP$, SIZE ) ;
      812    20881
      813    20882        %MOVE_VLP( S_VLP = VLP_VIRCIR_VIRCIR,
      814    20883        B$VLP = VLP$VIRCIR ,
      815    20884        T_TYPE = %KL_PRMID_VIRCIR ) ;
             20885        %LSET LISTDIR='0'B;

             20888    1   PP$ -> PP$STRCT.TYPE = 27 ;
             20889    1   SIZE = LENGTHC( VLP_VIRCIR_VIRCIR ) ;
             20890    1   PP$ -> PP$STRCT.SIZE = SIZE ;
             20891    1   PP$ = PINCRC( PP$, 2 ) ;
             20892    1   PP$ -> VLP$VIRCIR = VLP_VIRCIR_VIRCIR ;
             20893    1   PP$ = PINCRC( PP$, SIZE ) ;
PL6.E3A0      #001=ASD$BUILD_PRO File=ASD$BUILD_PRO.:E05TSI                      TUE 07/29/97 09:44 Page:48
      816    20895                                                              /* Get actual record size. */
      817    20896    1   P_ARS = POFFC( PP$, ADDR(PRO_BUF) ) ;
      818    20897    1   PRO_KEY = VLP_VIRCIR_PNAME ;
      819    20898
      820    20899    1   CALL ASD$WRITE_PRO( PRO_KEY, PRO_BUF, P_ARS-1 ) ;
      821    20900    1   RETURN;
      822    20901
      823    20902
      824    20903    1   ASD$BUILD_$URP: ENTRY( PRO_BUF, P_ARS );
      825    20904
      826    20905
      827    20906                                                              /* Set up $URP. */
      828    20907    1   PRO_BUF = AS_BLANK ;
      829    20908    1   PP$ = ADDR( PRO_BUF ) ;
      830    20909                                                              /*   Set up header.   */
      831    20910    1   PRO_HDR.TTYP = %KLTY_URP# ;
      832    20911                                                            /*   Check for extra width.   */
      833    20912    1   IF VLP_URP_PLATEN.EXTWID# = %YES# THEN
      834    20913    1      EXTWID = 1 ;
      835    20914    1   ELSE
      836    20915    1      EXTWID = 0 ;
      837    20916    1   PRO_HDR.WIDTH = VLP_URP_PLATEN.WIDTH# + ( 254*EXTWID ) ;
      838    20917    1   PRO_HDR.LINES = VLP_URP_PLATEN.LENGTH# ;
      839    20918    1   PRO_HDR.ATTR.GRLGL = %NO# ;
      840    20919    1   PRO_HDR.ATTR.TRANSLGL = %NO# ;
      841    20920    1   PRO_HDR.ATTR.NOXLATE = %NO# ;
      842    20921    1   PRO_HDR.ATTR.UPPERCASE = %YES#;
      843    20922    1   PRO_HDR.ATTR.NATL = %NO# ;
      844    20923    1   PRO_HDR.ATTR.TRUOVRPRT = VLP_URP_TRMATTR.TRUOVRPRT# ;
      845    20924    1   PRO_HDR.ATTR.APL = VLP_URP_TRMATTR.APL# ;
      846    20925    1   PRO_HDR.ATTR.BIN = %NO# ;
      847    20926    1   PRO_HDR.ATTR.LCASE = VLP_URP_TRMATTR.LOWERCASEPRINTS# ;
      848    20927    1   PRO_HDR.IO.INPUT = %YES# ;
      849    20928    1   PRO_HDR.IO.OUTPUT = %YES# ;
      850    20929    1   PRO_HDR.DDEV.LP = %YES# ;
      851    20930    1   PRO_HDR.DDEV.CP = %NO# ;
      852    20931    1   PRO_HDR.DDEV.IC = %YES# ;
PL6.E3A0      #001=ASD$BUILD_PRO File=ASD$BUILD_PRO.:E05TSI                      TUE 07/29/97 09:44 Page:49
      853    20932    1   PRO_HDR.DDEV.GRAPHICS_OK = %NO#;
      854    20933                                                              /*   Mover header.   */
      855    20934    1   PP$ -> PRO$HDR = PRO_HDR ;
      856    20935    1   PP$ = PINCRW( PP$, SIZEW( PRO_HDR ) ) ;
      857    20936                                                              /*  Profile name   */
      858    20937        %MOVE_VLP( S_VLP = VLP_URP_PNAME ,
      859    20938        B$VLP = VLP$PNAME ,
      860    20939        T_TYPE = %KV_PRMID_PROFILE ) ;
             20940        %LSET LISTDIR='0'B;

             20943    1   PP$ -> PP$STRCT.TYPE = 3 ;
             20944    1   SIZE = LENGTHC( VLP_URP_PNAME ) ;
             20945    1   PP$ -> PP$STRCT.SIZE = SIZE ;
             20946    1   PP$ = PINCRC( PP$, 2 ) ;
             20947    1   PP$ -> VLP$PNAME = VLP_URP_PNAME ;
             20948    1   PP$ = PINCRC( PP$, SIZE ) ;
      861    20950                                                              /*  Term. Control.   */
      862    20951        %MOVE_VLP( S_VLP = VLP_URP_TRMCTL ,
      863    20952        B$VLP = VLP$TRMCTL ,
      864    20953        T_TYPE = %KV_PRMID_TRMCTL ) ;
             20954        %LSET LISTDIR='0'B;

             20957    1   PP$ -> PP$STRCT.TYPE = 4 ;
             20958    1   SIZE = LENGTHC( VLP_URP_TRMCTL ) ;
             20959    1   PP$ -> PP$STRCT.SIZE = SIZE ;
             20960    1   PP$ = PINCRC( PP$, 2 ) ;
             20961    1   PP$ -> VLP$TRMCTL = VLP_URP_TRMCTL ;
             20962    1   PP$ = PINCRC( PP$, SIZE ) ;
      865    20964                                                              /*   Term. Attr.   */
      866    20965        %MOVE_VLP( S_VLP = VLP_URP_TRMATTR ,
      867    20966        B$VLP= VLP$TRMATTR ,
      868    20967        T_TYPE = %KV_PRMID_TRMATTR ) ;
             20968        %LSET LISTDIR='0'B;

             20971    1   PP$ -> PP$STRCT.TYPE = 7 ;
             20972    1   SIZE = LENGTHC( VLP_URP_TRMATTR ) ;
             20973    1   PP$ -> PP$STRCT.SIZE = SIZE ;
PL6.E3A0      #001=ASD$BUILD_PRO File=ASD$BUILD_PRO.:E05TSI                      TUE 07/29/97 09:44 Page:50
             20974    1   PP$ = PINCRC( PP$, 2 ) ;
             20975    1   PP$ -> VLP$TRMATTR = VLP_URP_TRMATTR ;
             20976    1   PP$ = PINCRC( PP$, SIZE ) ;
      869    20978                                                              /*   Platen   */
      870    20979        %MOVE_VLP( S_VLP = VLP_URP_PLATEN ,
      871    20980        B$VLP = VLP$PLATEN ,
      872    20981        T_TYPE = %KV_PRMID_PLATEN ) ;
             20982        %LSET LISTDIR='0'B;

             20985    1   PP$ -> PP$STRCT.TYPE = 8 ;
             20986    1   SIZE = LENGTHC( VLP_URP_PLATEN ) ;
             20987    1   PP$ -> PP$STRCT.SIZE = SIZE ;
             20988    1   PP$ = PINCRC( PP$, 2 ) ;
             20989    1   PP$ -> VLP$PLATEN = VLP_URP_PLATEN ;
             20990    1   PP$ = PINCRC( PP$, SIZE ) ;
      873    20992                                                              /*   Device tabs.   */
      874    20993        %MOVE_VLP( S_VLP = VLP_URP_TAB ,
      875    20994        B$VLP = VLP$TAB ,
      876    20995        T_TYPE = %KV_PRMID_TRMTAB ) ;
             20996        %LSET LISTDIR='0'B;

             20999    1   PP$ -> PP$STRCT.TYPE = 9 ;
             21000    1   SIZE = LENGTHC( VLP_URP_TAB ) ;
             21001    1   PP$ -> PP$STRCT.SIZE = SIZE ;
             21002    1   PP$ = PINCRC( PP$, 2 ) ;
             21003    1   PP$ -> VLP$TAB = VLP_URP_TAB ;
             21004    1   PP$ = PINCRC( PP$, SIZE ) ;
      877    21006                                                              /* Timing algorhythm */
      878    21007                                                              /* Control character */
      879    21008    1   IF P_ARS ~= 0 THEN GOTO NO_CCHR;
      880    21009        %MOVE_VLP( S_VLP = VLP_ASYNC_CCHR ,
      881    21010        B$VLP = VLP$CCHR ,
      882    21011        T_TYPE = %KV_PRMID_CTRCHR ) ;
             21012        %LSET LISTDIR='0'B;

             21015    1   PP$ -> PP$STRCT.TYPE = 15 ;
             21016    1   SIZE = LENGTHC( VLP_ASYNC_CCHR ) ;
PL6.E3A0      #001=ASD$BUILD_PRO File=ASD$BUILD_PRO.:E05TSI                      TUE 07/29/97 09:44 Page:51
             21017    1   PP$ -> PP$STRCT.SIZE = SIZE ;
             21018    1   PP$ = PINCRC( PP$, 2 ) ;
             21019    1   PP$ -> VLP$CCHR = VLP_ASYNC_CCHR ;
             21020    1   PP$ = PINCRC( PP$, SIZE ) ;
      883    21022    1   NO_CCHR: ;
      884    21023                                                           /*   Get actual record size.   */
      885    21024    1   P_ARS = POFFC( PP$, ADDR(PRO_BUF) ) ;
      886    21025    1   PRO_KEY = VLP_URP_PNAME ;
      887    21026
      888    21027    1   CALL ASD$WRITE_PRO( PRO_KEY, PRO_BUF, P_ARS-1 ) ;
      889    21028    1   RETURN ;
      890    21029
      891    21030
      892    21031    1   ASD$BUILD_$POLLVIP: ENTRY( PRO_BUF, P_ARS );
      893    21032
      894    21033
      895    21034                                                          /* Set up $POLLVIP. */
      896    21035    1   PRO_BUF = AS_BLANK ;
      897    21036    1   PP$ = ADDR( PRO_BUF ) ;
      898    21037                                                              /*   Set up header.   */
      899    21038    1   PRO_HDR.TTYP = %KLTY_HIP_DEV#;
      900    21039                                                            /*   Check for extra width.   */
      901    21040    1   PRO_HDR.WIDTH = 0;
      902    21041    1   PRO_HDR.LINES = 0;
      903    21042    1   PRO_HDR.ATTR.TRUOVRPRT =%NO#;
      904    21043    1   PRO_HDR.ATTR.APL = %NO#;
      905    21044    1   PRO_HDR.ATTR.BIN = %NO# ;
      906    21045    1   PRO_HDR.ATTR.LCASE = %NO#;
      907    21046    1   PRO_HDR.ATTR.UPPERCASE = %YES# ;
      908    21047    1   PRO_HDR.ATTR.GRLGL = %NO# ;
      909    21048    1   PRO_HDR.ATTR.TRANSLGL = %NO# ;
      910    21049    1   PRO_HDR.ATTR.NOXLATE = %NO# ;
      911    21050    1   PRO_HDR.ATTR.NATL = %NO# ;
      912    21051    1   PRO_HDR.IO.INPUT = %YES# ;
      913    21052    1   PRO_HDR.IO.OUTPUT = %YES# ;
      914    21053    1   PRO_HDR.DDEV.LP = %NO# ;
      915    21054    1   PRO_HDR.DDEV.CP = %NO# ;
PL6.E3A0      #001=ASD$BUILD_PRO File=ASD$BUILD_PRO.:E05TSI                      TUE 07/29/97 09:44 Page:52
      916    21055    1   PRO_HDR.DDEV.IC = %NO# ;
      917    21056    1   PRO_HDR.DDEV.GRAPHICS_OK = %NO# ;
      918    21057                                                              /*   Mover header.   */
      919    21058    1   PP$ -> PRO$HDR = PRO_HDR ;
      920    21059    1   PP$ = PINCRW( PP$, LENGTHW( PRO_HDR ) ) ;
      921    21060                                                              /*  Profile name   */
      922    21061        %MOVE_VLP( S_VLP = VLP_POLLVIP_PNAME ,
      923    21062        B$VLP = VLP$PNAME ,
      924    21063        T_TYPE = %KV_PRMID_PROFILE ) ;
             21064        %LSET LISTDIR='0'B;

             21067    1   PP$ -> PP$STRCT.TYPE = 3 ;
             21068    1   SIZE = LENGTHC( VLP_POLLVIP_PNAME ) ;
             21069    1   PP$ -> PP$STRCT.SIZE = SIZE ;
             21070    1   PP$ = PINCRC( PP$, 2 ) ;
             21071    1   PP$ -> VLP$PNAME = VLP_POLLVIP_PNAME ;
             21072    1   PP$ = PINCRC( PP$, SIZE ) ;
      925    21074                                                              /*  Term. Control.   */
      926    21075        %MOVE_VLP( S_VLP = VLP_POLLVIP_TRMD ,
      927    21076        B$VLP = VLP$TRMD ,
      928    21077        T_TYPE = %KL_PRMID_TRMD ) ;
             21078        %LSET LISTDIR='0'B;

             21081    1   PP$ -> PP$STRCT.TYPE = 13 ;
             21082    1   SIZE = LENGTHC( VLP_POLLVIP_TRMD ) ;
             21083    1   PP$ -> PP$STRCT.SIZE = SIZE ;
             21084    1   PP$ = PINCRC( PP$, 2 ) ;
             21085    1   PP$ -> VLP$TRMD = VLP_POLLVIP_TRMD ;
             21086    1   PP$ = PINCRC( PP$, SIZE ) ;
      929    21088
      930    21089    1   P_ARS = POFFC( PP$, ADDR(PRO_BUF) ) ;
      931    21090    1   PRO_KEY = VLP_POLLVIP_PNAME ;
      932    21091
      933    21092    1   CALL ASD$WRITE_PRO( PRO_KEY, PRO_BUF, P_ARS-1 ) ;
      934    21093    1   RETURN;
      935    21094
      936    21095
PL6.E3A0      #001=ASD$BUILD_PRO File=ASD$BUILD_PRO.:E05TSI                      TUE 07/29/97 09:44 Page:53
      937    21096    1   ASD$BUILD_$GRA: ENTRY ( PRO_BUF, P_ARS ) ;
      938    21097
      939    21098    1   PRO_BUF = AS_BLANK ;
      940    21099    1   PP$ = ADDR( PRO_BUF ) ;
      941    21100    1   PP$ -> GRA$REC = GRA_REC ;
      942    21101    1   PP$ = PINCRW( PP$, SIZEW( GRA_REC ) ) ;
      943    21102    1   P_ARS = POFFC ( PP$, ADDR(PRO_BUF) ) ;
      944    21103    1   PP$ = ADDR (PRO_BUF);
      945    21104        /* Set default values for GR_ESCAPE 1 to GR_ESCAPE 4 */
      946    21105    1   PP$->GRA$REC.NUM_ESCAPES = 4;
      947    21106    1   PP$->GRA$REC.GR_ESCAPES.ESCAPE_FUNCTION(0) = 1;
      948    21107    1   PP$->GRA$REC.GR_ESCAPES.ESCAPE_SUPPORT(0) = 1;
      949    21108    1   PP$->GRA$REC.GR_ESCAPES.ESCAPE_FUNCTION(1) = 2;
      950    21109    1   PP$->GRA$REC.GR_ESCAPES.ESCAPE_SUPPORT(1) = 1;
      951    21110    1   PP$->GRA$REC.GR_ESCAPES.ESCAPE_FUNCTION(2) = 3;
      952    21111    1   PP$->GRA$REC.GR_ESCAPES.ESCAPE_SUPPORT(2) = 2;
      953    21112    1   PP$->GRA$REC.GR_ESCAPES.ESCAPE_FUNCTION(3) = 4;
      954    21113    1   PP$->GRA$REC.GR_ESCAPES.ESCAPE_SUPPORT(3) = 2;
      955    21114    2   DO ARS = 4 TO 63;
      956    21115    2      PP$->GRA$REC.GR_ESCAPES(ARS) = '0'B;
      957    21116    2      END; /*  Do ars  */
      958    21117
      959    21118    1   CALL ASD$GR_WRITE_PRO ( GRA_KEY, PRO_BUF, P_ARS-1 ) ;
      960    21119
      961    21120
      962    21121    1   END   ASD$BUILD_PRO ;

PL6.E3A0      #001=ASD$BUILD_PRO File=ASD$BUILD_PRO.:E05TSI                      TUE 07/29/97 09:44 Page:54
--  Include file information  --

   AS_SUPER_R.:E05TOU  cannot be made into a system file and is referenced.
   XG_SUBS_C.:E05TOU  is referenced.
   XG_PROFILE_C.:E05TOU  is referenced.
   B_ERRORS_C.:E05TOU  is referenced.
   XU_FORMAT_C.:E05TOU  is referenced.
   XU_MACRO_C.:E05TOU  is referenced.
   KL_SUPER_C.:E05TOU  is referenced.
   KV_PRMID_E.:E05TOU  is referenced.
   CP_6_SUBS.:E05TOU  is referenced.
   CP_6.:E05TOU  cannot be made into a system file and is referenced.
   AS_FUNKEY_DEFS_C.:E05TOU  is referenced.
   AS_PERR_C.:E05TOU  is referenced.
   AS_SSUBS_C.:E05TOU  is referenced.
   AS_MAC_C.:E05TOU  cannot be made into a system file and is referenced.
   AS_SUBS_C.:E05TOU  is referenced.
   AS_SUPER_C.:E05TOU  is referenced.
   AS_ENTRIES_M.:E05TOU  is referenced.
   B$JIT_C.:E05TOU  was found in the system file and is never referenced.
   CP_6_C.:E05TOU  was found in the system file and is referenced.
      No diagnostics issued in procedure ASD$BUILD_PRO.

   Procedure ASD$BUILD_PRO requires 1791 words for executable code.
   Procedure ASD$BUILD_PRO requires 12 words of local(AUTO) storage.

    No errors detected in file ASD$BUILD_PRO.:E05TSI    .

PL6.E3A0      #001=ASD$BUILD_PRO File=ASD$BUILD_PRO.:E05TSI                      TUE 07/29/97 09:44 Page:55

 Object Unit name= ASD$BUILD_PRO                              File name= ASD$BUILD_PRO.:E05TOU
 UTS= JUL 29 '97 09:44:26.28 TUE                              Compiler= PL-6/E31         Sev=      00
 SharedLib= :SHARED_SYSTEM                                    Alt SharedLib=


    ****  Control sections  ****

 Sect   Type Bound  Init  Size OctSiz  Section name(segment info)
    0   DCB   even  none     0      0  M$UC
    1   DCB   even  none     0      0  M$LO
    2   Data  even  none   426    652  ASD$BUILD_PRO
    3  RoData even  UTS    136    210  ASD$BUILD_PRO
    4   Proc  even  none  1791   3377  ASD$BUILD_PRO
    5  RoData even  none    24     30  ASD$BUILD_PRO

    ****  Entry defs  ****

                              Check   Calling
                             calling  sequence
  Sect OctLoc Primary Altret sequence   type   Parms  Name
     4      0   yes            yes      Std        2  ASD$BUILD_PRO
     4      3                  yes      Std        0  ASD$CREATE_PRO
     4    124                  yes      Std        2  ASD$BUILD_$ASYNC
     4    760                  yes      Std        2  ASD$BUILD_$3270
     4   1522                  yes      Std        2  ASD$BUILD_$RBT
     4   1711                  yes      Std        2  ASD$BUILD_$RBTD
     4   2175                  yes      Std        2  ASD$BUILD_$LINK
     4   2364                  yes      Std        2  ASD$BUILD_$VIRCIR
     4   2553                  yes      Std        2  ASD$BUILD_$URP
     4   3107                  yes      Std        2  ASD$BUILD_$POLLVIP
     4   3276                  yes      Std        2  ASD$BUILD_$GRA
PL6.E3A0      #001=ASD$BUILD_PRO File=ASD$BUILD_PRO.:E05TSI                      TUE 07/29/97 09:44 Page:56

  ****  Entry refs  ****

         Check        Calling
        calling       sequence
Altret sequence SRef   type   Args  Name
         yes          ~proc      0 XU_OUTPUT_OPTIONS
 yes     yes           Std       3 ASD$GR_WRITE_PRO
 yes     yes           Std       0 ASD$CLOSE_PRO
 yes     yes           Std       0 ASD$OPEN_PRO_CR
 yes     yes           Std       3 ASD$WRITE_PRO
                       nStd      0 X66_AUTO_2
                       Std       0 B_CONSPOOL_D
                       nStd      0 X66_ARET

  ****  Data refs  ****

  Flags:  r = read only, s = secondary
Flgs Name                             Flgs Name                             Flgs Name
     M$UC                             r    AS_BLANK                         r    AS_MODE
r    AS_FE_MODE                            M$LO                                  ERR_CODE
     REMEM_VAR                             REM_FCMD                              ASA_BRKS_LOC
     B_VECTNIL

  ****  Segment refs  ****

  Flags:  r = read only, s = secondary
Flgs Name                             Flgs Name                             Flgs Name
     ISSID
PL6.E3A0      #001=ASD$BUILD_PRO File=ASD$BUILD_PRO.:E05TSI                      TUE 07/29/97 09:44 Page:57


        1        1        /*M*  ASD$BUILD_PRO:  Builds default records for the :PRO. */
        2        2        /*T***********************************************************/
        3        3        /*T*                                                         */
        4        4        /*T* Copyright (c) Bull HN Information Systems Inc., 1997    */
        5        5        /*T*                                                         */
        6        6        /*T***********************************************************/
        7        7        /*X*  DMC,DMR,CCC,PLM=0,IND=3,CTI=5,DCI=6,IAD=0,DTI=0,IDT=0,ENI=3,
        8        8              ECU=3,CSU=3,SDI=3                                           */
        9        9
       10       10
       11       11        ASD$BUILD_PRO: PROC( PRO_BUF, P_ARS );

     11  4 000000   000000 700200 xent  ASD$BUILD_P* TSX0  ! X66_AUTO_2
         4 000001   000014 000002                    ZERO    12,2
         4 000002   000005 710000 4                  TRA     s:20154

       12       12
       13       13        /********************************************************************/
       14       14        /*   Include files   include files   include files   include files   */
       15       15        /*********************************************************************/
       16       16
       17       17        %INCLUDE           AS_ENTRIES_M;
       18     1067        %INCLUDE           AS_SUPER_C ;
       19     1502        %INCLUDE           AS_SUBS_C ;
       20     2916        %INCLUDE           AS_MAC_C ;
       21     2996        %INCLUDE           AS_SSUBS_C;
       22     3088        %INCLUDE           AS_PERR_C ;
       23     3690        %INCLUDE           AS_FUNKEY_DEFS_C;
       24     3795        %INCLUDE           CP_6 ;
       25     3876        %INCLUDE           CP_6_SUBS;
       26     4416        %INCLUDE           KV_PRMID_E ;
       27     4590              %KV_PRMID_E ;
       28     4746        %INCLUDE           KL_SUPER_C ;
       29     7648        %INCLUDE           XU_MACRO_C ;
       30    10754        %INCLUDE           XU_FORMAT_C ;
       31    10916        %INCLUDE           B_ERRORS_C ;
PL6.E3A0      #001=ASD$BUILD_PRO File=ASD$BUILD_PRO.:E05TSI                      TUE 07/29/97 09:44 Page:58
       32    12043        %INCLUDE           XG_PROFILE_C ;
       33    12597        %INCLUDE           XG_SUBS_C ;
       34    13091        %INCLUDE           AS_SUPER_R ;
       35    16107
       36    16108
       37    16109        /********************************************************************/
       38    16110        /*   Params       params      params      params      params        */
       39    16111        /*********************************************************************/
       40    16112
       41    16113    1   DCL PRO_BUF CHAR(AS_PRO_BUF_SIZEC);
       42    16114    1   DCL P_ARS   UBIN;
       43    16115
       44    16116        /********************************************************************/
       45    16117        /*   Static data     static data     static data     static data     */
       46    16118        /*********************************************************************/
       47    16119
       48    16120        %LIST ;
       49    16121        %KL_PHDR( NAME = PRO_HDR ,
       50    16122                  STCLASS = STATIC ) ;
             16123         %LSET LISTDIR='0'B;
             16135    1   DCL 1 PRO_HDR STATIC,
             16136    1         2 TTYP UBIN BYTE UNAL INIT(2)/**/,
             16137    1         2 WIDTH UBIN BYTE UNAL INIT(80)/**/,
             16138    1         2 LINES UBIN HALF UNAL INIT(38)/**/,
             16139    1         2 ATTR,
             16140    1           3 * BIT(9) UNAL INIT('0'B)/**/,
             16141    1           3 GRLGL BIT(1) UNAL INIT('0'B)/**/,
             16142    1           3 TRANSLGL BIT(1) UNAL INIT('0'B)/**/,
             16143    1           3 NOXLATE BIT(1) UNAL INIT('0'B)/**/,
             16144    1           3 UPPERCASE BIT(1) UNAL INIT('1'B)/**/,
             16145    1           3 NATL BIT(1) UNAL INIT('0'B)/**/,
             16146    1           3 TRUOVRPRT BIT(1) UNAL INIT('1'B)/**/,
             16147    1           3 APL BIT(1) UNAL INIT('0'B)/**/,
             16148    1           3 BIN BIT(1) UNAL INIT('0'B)/**/,
             16149    1           3 LCASE BIT(1) UNAL INIT('1'B)/**/,
             16150    1         2 IO UNAL,
             16151    1           3 INPUT BIT(1) INIT('1'B)/**/,
PL6.E3A0      #001=ASD$BUILD_PRO File=ASD$BUILD_PRO.:E05TSI                      TUE 07/29/97 09:44 Page:59
             16152    1           3 OUTPUT BIT(1) INIT('1'B)/**/,
             16153    1         2 IMP# UBIN(7) UNAL INIT(0)/**/,
             16154    1         2 DDEV,
             16155    1           3 LP BIT(1) UNAL INIT('1'B)/**/,
             16156    1           3 CP BIT(1) UNAL INIT('0'B)/**/,
             16157    1           3 IC BIT(1) UNAL INIT('1'B)/**/,
             16158    1           3 GRAPHICS_OK BIT(1) UNAL INIT('0'B)/**/,
             16159    1           3 * BIT(5) UNAL INIT('0'B)/**/,
             16160    1         2 GR_FPRG CHAR(64) UNAL INIT(' ')/**/,
             16161    1         2 INFO BIT(72) INIT('0'B)/**/;
       51    16163        %XG$PROFILE ( PRON = GRA_REC ,
       52    16164                      STCLASS = STATIC ) ;
             16165        %LSET STR=CONCAT(TEXTCHAR(STCLASS),'        ');
             16166        %IF (SUBSTR(STR,0,6)='STATIC') OR
             16167        (SUBSTR(STR,0,8)='CONSTANT') OR
             16168        (SUBSTR(STR,0,3)='EXT');
             16169        %LSET INIT=CHARTEXT('INIT');
             16170        %LSET COM=CHARTEXT(' ');
             16171        %LSET ARRAYLEN = 63;   /* 0:63 IS MAX LEN FOR THE ESCAPE ARRAY */
             16172        %ELSE;
             16176        %ENDIF;
             16177    1   DCL 1 PRON STCLASS UNAL,
             16178             /*K*  GRAPHICS PROFILE NAME   */
             16179    1         2 GLOBAL_COLORS UBIN %INIT(GLBL_COLRS)%CHARTEXT('/**/') ALIGNED,
             16180                  /*K*  GLOBAL_COLORS    the maximum number of colors
             16181                       that this device can generate
             16182                            range  1 - 999,999,999
             16183                                 default - 999999999                     */
             16184    1         2 GLOBAL_INTENSITIES UBIN %INIT(GLBL_INTNS)%CHARTEXT('/**/') ALIGNED,
             16185                  /*K*  GLOBAL_INTENSITIES   the maximum number of different
             16186                       levels of intensity this device and driver support
             16187                            range  1 - 999,999,999
             16188                                 default - 999999999                      */
             16189    1         2  MAX_PICK_ID  UBIN  %INIT(MAX_PICK%%COM)%CHARTEXT('/**/')   ALIGNED,
             16190                  /*K*  MAX_PICK_ID   the maximum number of pick id's
             16191                       supported by this device
             16192                            range  0 - 32767
PL6.E3A0      #001=ASD$BUILD_PRO File=ASD$BUILD_PRO.:E05TSI                      TUE 07/29/97 09:44 Page:60
             16193                                 default - 32767                         */
             16194    1         2  X_PER_CM  UBIN    %INIT(X_SPACE)%CHARTEXT('/**/')   ALIGNED,
             16195                  /*K* X_PER_CM  the addressable units of the view
             16196                       surface in X per centimeter
             16197                            range  0 - 4095
             16198                                 default - 4095                          */
             16199    1         2  Y_PER_CM  UBIN    %INIT(Y_SPACE)%CHARTEXT('/**/')   ALIGNED,
             16200                  /*K* Y_PER_CM  the addressable units of the view
             16201                       surface in Y per centimeter
             16202                            range  0 - 4095
             16203                                 default - 4095                          */
             16204    1         2  Z_PER_CM  UBIN    %INIT(Z_SPACE)%CHARTEXT('/**/')   ALIGNED,
             16205                  /*K* Z_PER_CM  the addressable units of the view
             16206                       surface in Z per centimeter
             16207                            range  0 - 4095
             16208                                 default - 4095                          */
             16209    1         2  NDC_WIDTH_ADDR_SPACE   UBIN   %INIT(NDC_WIDTH)%CHARTEXT('/**/')   ALIGNED,
             16210                  /*K*  NDC_WIDTH_ADDR_SPACE  the width of NDC space
             16211                       in addressable units.
             16212                            range  0 - 999,999,999
             16213                                 default - 999999999                     */
             16214    1         2  NDC_HEIGHT_ADDR_SPACE   UBIN   %INIT(NDC_HEIGHT)%CHARTEXT('/**/')  ALIGNED
             16214                  ,
             16215                  /*K*  NDC_HEIGHT_ADDR_SPACE  the height of NDC space
             16216                       in addressable units.
             16217                            range  0 - 999,999,999
             16218                                 default - 999999999                     */
             16219    1         2  NDC_DEPTH_ADDR_SPACE   UBIN   %INIT(NDC_DEPTH)%CHARTEXT('/**/')   ALIGNED,
             16220                  /*K*  NDC_DEPTH_ADDR_SPACE  the depth of NDC space
             16221                       in addressable units.
             16222                            range  0 - 999,999,999
             16223                                 default - 999999999                     */
             16224    1         2  NDC_WIDTH_CHAR_POS   UBIN  %INIT(NDC_WIDTH_CHARS)%CHARTEXT('/**/') ALIGNED
             16224                  ,
             16225                  /*K*  NDC_WIDTH_CHAR_POS    the width of NDC space
             16226                       in addressable character positions.
             16227                            range  0 - 999,999,999
PL6.E3A0      #001=ASD$BUILD_PRO File=ASD$BUILD_PRO.:E05TSI                      TUE 07/29/97 09:44 Page:61
             16228                                 default - 999999999                     */
             16229    1         2  NDC_HEIGHT_CHAR_POS     UBIN   %INIT(NDC_HEIGHT_CHARS)%CHARTEXT('/**/')
             16229                  ALIGNED,
             16230                  /*K*  NDC_HEIGHT_CHAR_POS    the height of NDC space
             16231                       in addressable character positions.
             16232                            range  0 - 999,999,999
             16233                                 default - 999999999                     */
             16234    1         2  NDC_DEPTH_CHAR_POS     UBIN   %INIT(NDC_DEPTH_CHARS)%CHARTEXT('/**/')
             16234                  ALIGNED,
             16235                  /*K*  NDC_DEPTH_CHAR_POS    the depth of NDC space
             16236                       in addressable character positions.
             16237                            range  0 - 999,999,999
             16238                                 default - 999999999                     */
             16239    1         2  WIDTH_USABLE   UBIN   %INIT(WIDTH_USE)%CHARTEXT('/**/')   ALIGNED,
             16240                  /*K*  WIDTH_USABLE  the width of the usable display
             16241                       in centimeters
             16242                            range  0 - 999,999
             16243                                 default - 999999                        */
             16244    1         2  HEIGHT_USABLE       UBIN   %INIT(HEIGHT_USE)%CHARTEXT('/**/')   ALIGNED,
             16245                  /*K*  HEIGHT_USABLE     the height of usable display
             16246                       in centimeters
             16247                            range  0 - 999,999
             16248                                 default - 999999                        */
             16249    1         2  DEPTH_USABLE       UBIN   %INIT(DEPTH_USE)%CHARTEXT('/**/')   ALIGNED,
             16250                  /*K*  DEPTH_USABLE     the depth of usable display
             16251                       in centimeters
             16252                            range  0 - 999,999
             16253                                 default - 999999                        */
             16254    1         2  NDC_WIDTH_CURRENT   UBIN HALF  %INIT(NDC_WIDTH_CURR%%COM)%CHARTEXT('/**/')
             16254                  HALIGNED,
             16255                  /*K*  NDC_WIDTH_CURRENT     the width of NDC space
             16256                            range  0 - 32767  which means 0.0 - 1.0
             16257                                 default - 32767 or 1.0                  */
             16258    1         2  NDC_HEIGHT_CURRENT   UBIN HALF   %INIT(NDC_HEIGHT_CURR%%COM)%CHARTEXT(
             16258                  '/**/')   HALIGNED,
             16259                  /*K*  NDC_HEIGHT_CURRENT     the height of NDC space
             16260                            range  0 - 32767  which means 0.0 - 1.0
PL6.E3A0      #001=ASD$BUILD_PRO File=ASD$BUILD_PRO.:E05TSI                      TUE 07/29/97 09:44 Page:62
             16261                                 default - 32767  or  1.0                */
             16262    1         2  NDC_DEPTH_CURRENT   UBIN HALF  %INIT(NDC_DEPTH_CURR%%COM)%CHARTEXT('/**/')
             16262                  HALIGNED,
             16263                  /*K*  NDC_DEPTH_CURRENT     the depth of NDC space
             16264                            range  0 - 32767  which means 0.0 - 1.0
             16265                                 default - 32767  or  1.0                */
             16266    1         2  MINIMUM_LINEWIDTH   UBIN HALF   %INIT(MIN_LINEWIDTH)%CHARTEXT('/**/')
             16266                  HALIGNED,
             16267                  /*K*  MINIMUM_LINDWIDTH     the minimum line width
             16268                       in NDC coordinates.
             16269                            range 0 - 32767
             16270                              taken as a percentage
             16271                              of NDC space where 0 represents 0% and
             16272                              32767 represents 100%
             16273                                 default - 1                             */
             16274    1         2  MAXIMUM_LINEWIDTH    UBIN HALF   %INIT(MAX_LINEWIDTH)%CHARTEXT('/**/')
             16274                  HALIGNED,
             16275                  /*K*  MAXIMUM_LINEWIDTH      the maximum line width
             16276                       in NDC coordinates
             16277                            range  0 - 32767
             16278                              taken as a percentage
             16279                              of NDC space where 0 represents 0% and
             16280                              32767 represents 100%
             16281                                 default - 327                           */
             16282    1         2  MIN_CHAR_SIZE   UBIN HALF  %INIT(MIN_CH_SIZ)%CHARTEXT('/**/')   HALIGNED,
             16283                  /*K*  MIN_CHAR_SIZE   the minimum character size in
             16284                       NDC coordinates.
             16285                            range  0 - 32767
             16286                              taken as a percentage
             16287                              of NDC space where 0 represents 0% and
             16288                              32767 represents 100%
             16289                                 default - 1                             */
             16290    1         2  MAX_CHAR_SIZE   UBIN HALF  %INIT(MAX_CH_SIZ)%CHARTEXT('/**/')   HALIGNED,
             16291                  /*K*  MAX_CHAR_SIZE  the maximum character size in
             16292                       NDC coordinates.
             16293                            range  0 - 32767
             16294                              taken as a percentage
PL6.E3A0      #001=ASD$BUILD_PRO File=ASD$BUILD_PRO.:E05TSI                      TUE 07/29/97 09:44 Page:63
             16295                              of NDC space where 0 represents 0% and
             16296                              32767 represents 100%
             16297                                 default - 327                           */
             16298    1         2  VIEW_SURFACE  UBIN HALF %INIT(VIEW_SURF)%CHARTEXT('/**/')   HALIGNED,
             16299                  /*K*  The name of the initialized view surface that
             16300                        an inquiry of device characteristics has been
             16301                        made about.
             16302                        range  0 - 32767
             16303                        default  0
             16304                       This halfword is reserved for future use          */
             16305    1         2  POLYGON_FILL,
             16306                  /*K*  POLYGON FILL   A value for each of the three types
             16307                       of polygon fill possible, that specify the maximum
             16308                       number of edges that can be supported for each type
             16309                       of fill pattern.                                  */
             16310    1           3  PLAIN  UBIN  HALF  %INIT(PLAIN_FILL%%COM)%CHARTEXT('/**/')   HALIGNED,
             16311                     /*K*  PLAIN    The maximum number of edges that can
             16312                       be supported with a plain type of polygon fill.
             16313                            range  0 - 32767
             16314                                 default - 32767                         */
             16315    1           3  SHADED  UBIN  HALF  %INIT(SHADED_FILL%%COM)%CHARTEXT('/**/')   HALIGNED,
             16316                     /*K*  SHADED   The maximum number of edges that can
             16317                       be supported with a shaded type of polygon fill.
             16318                            range  0 - 32767
             16319                                 default -  32767                        */
             16320    1           3  PATTERNED  UBIN  HALF  %INIT(PATTERNED_FILL%%COM)%CHARTEXT('/**/')
             16320                    HALIGNED,
             16321                     /*K*  PATTERNED   The maximum number of edges that can
             16322                       be supported with a patterned type of polygon fill.
             16323                            range  0 - 32767
             16324                                 default -  32767                        */
             16325    1         2  PIX_ARRAY_MAXX  UBIN  HALF  %INIT(PIX_MAXX%%COM)%CHARTEXT('/**/') HALIGNED
             16325                  ,
             16326                  /*K* PIX_ARRAY_MAXX     The maximum size in the X direction
             16327                       of the pixel array.  (in pixels)
             16328                            range  0 - 32767
             16329                                 default - 32767                         */
PL6.E3A0      #001=ASD$BUILD_PRO File=ASD$BUILD_PRO.:E05TSI                      TUE 07/29/97 09:44 Page:64
             16330    1         2  PIX_ARRAY_MAXY  UBIN  HALF  %INIT(PIX_MAXY%%COM)%CHARTEXT('/**/') HALIGNED
             16330                  ,
             16331                  /*K* PIX_ARRAY_MAXY     The maximum size in the Y direction
             16332                       of the pixel array.  (in pixels)
             16333                            range  0 - 32767
             16334                                 default - 32767                         */
             16335    1         2  COLOR_TAB_SIZE  UBIN  HALF  %INIT(TABLE_SIZE%%COM)%CHARTEXT('/**/')
             16335                  HALIGNED,
             16336                  /*K*  COLOR_TAB_SIZE   the maximum number of entries
             16337                       possible in the color look up table.
             16338                       This is the number of simultaneously visible colors.
             16339                            range  0 - 32767
             16340                                 default -  32767                        */
             16341    1         2  INTENSITY_TAB_SIZE  UBIN  HALF  %INIT(TABLE_SIZE%%COM)%CHARTEXT('/**/')
             16341                  HALIGNED,
             16342                  /*K* INTENSITY_TAB_SIZE    the maximum number of entries
             16343                       possible in this device or drivers intensity
             16344                       index table
             16345                       This is the number of simultaneously visible intensities.
             16346                            range  0 - 32767
             16347                                 default -  32767                        */
             16348    1         2  LINESTYLE_HARDWARE_COUNT  UBIN HALF  %INIT(LINESTYLE_HW_CNT)%CHARTEXT(
             16348                  '/**/')   HALIGNED,
             16349                  /*K*  A count of the number of different hardware line styles
             16350                       supported by the device and its driver.  The different
             16351                       styles refer to solid, dashed, and dotted.
             16352                       range 1 - 9
             16353                       default 9                                         */
             16354    1         2  LINESTYLE_SOFTWARE_COUNT  UBIN HALF  %INIT(LINESTYLE_SW_CNT)%CHARTEXT(
             16354                  '/**/')   HALIGNED,
             16355                  /*K*  A count of the number of different software line styles
             16356                       supported by the device and its driver.  The different
             16357                       styles refer to solid, dashed, and dotted.
             16358                       range 0 - 9990
             16359                       default 9990                                      */
             16360    1         2  LINEWIDTH_COUNT   UBIN  HALF  %INIT(LINEWIDTH_CNT%%COM)%CHARTEXT('/**/')
             16360                  HALIGNED,
PL6.E3A0      #001=ASD$BUILD_PRO File=ASD$BUILD_PRO.:E05TSI                      TUE 07/29/97 09:44 Page:65
             16361                  /*K*  A count of the number of different line widths
             16362                       supported by the device and its driver.
             16363                       range 1 - 32767
             16364                       default 32767                      */
             16365    1         2  FONT_COUNT  UBIN HALF %INIT(FONT_CNT%%COM)%CHARTEXT('/**/')   HALIGNED,
             16366                  /*K*  A count of the number of different fonts
             16367                       supported by the device and its driver.
             16368                       range 1 - 32767
             16369                       default 32767                                */
             16370    1         2  PEN_HARDWARE_COUNT  UBIN  HALF %INIT(PEN_HW_CNT%%COM)%CHARTEXT('/**/')
             16370                  HALIGNED,
             16371                  /*K*  A count of the number of different hardware pens
             16372                       supported by the device and its driver.
             16373                       Pen refers to a collection of Line Index,
             16374                       Line Style, Line Width, and Text Index.
             16375                       range 0 - 32767
             16376                       default 32767                                */
             16377    1         2  PEN_SOFTWARE_COUNT  UBIN  HALF %INIT(PEN_SW_CNT%%COM)%CHARTEXT('/**/')
             16377                  HALIGNED,
             16378                  /*K*  A count of the number of different software pens
             16379                       supported by the device and its driver.
             16380                       Pen refers to a collection of Line Index,
             16381                       Line Style, Line Width, and Text Index.
             16382                       range 0 - 32767
             16383                       default 32767                                */
             16384    1         2  CHAR_SIZE_COUNT  UBIN  HALF  %INIT(CHAR_SIZE_CNT%%COM)%CHARTEXT('/**/')
             16384                  HALIGNED,
             16385                  /*K*   A count of the number of different hardware
             16386                       character sizes available from the device/driver.
             16387                       range 1 - 32767
             16388                       default 32767                                */
             16389    1         2  MARKER_HARDWARE_COUNT  UBIN  HALF  %INIT(MARKER_HW_CNT%%COM)%CHARTEXT(
             16389                  '/**/')   HALIGNED,
             16390                  /*K*  A count of the number of different hardware marker
             16391                       symbols supported by the device and its driver.
             16392                       the support of 10 markers is required by the ANS
             16393                       specification.
PL6.E3A0      #001=ASD$BUILD_PRO File=ASD$BUILD_PRO.:E05TSI                      TUE 07/29/97 09:44 Page:66
             16394                       range 0 - 32767
             16395                       default 32767
             16396                       The values 1-5 produce the marker symbols,
             16397                       dot or period
             16398                       plus
             16399                       asterisk
             16400                       the capital letter O
             16401                       the capital leter X
             16402                       the values greater than 5 are implementation
             16403                       dependent, distinct from each other and from
             16404                       the first five.  It is intended that the marker
             16405                       symbols be hardware generated and similar in
             16406                       size to the default character size for
             16407                       "string precision" text.                          */
             16408    1         2  MARKER_SOFTWARE_COUNT  UBIN  HALF  %INIT(MARKER_SW_CNT%%COM)%CHARTEXT(
             16408                  '/**/')   HALIGNED,
             16409                  /*K*  A count of the number of different software marker
             16410                       symbols supported by the device and its driver.
             16411                       the support of 10 markers is required by the ANS
             16412                       specification.
             16413                       range 0 - 32767
             16414                       default  32767                                    */
             16415    1         2  LINEWIDTH_SUPPORT BIT(4) %INIT(LINEWIDTH_SUPRT%%COM)%CHARTEXT('/**/') UNAL
             16415                  ,
             16416                  /*K*  The type of support, hardware or software,
             16417                       for the various line widths.
             16418                            %XG_LINEWIDTH_SUPPORT_NONE# - no support for any line width
             16419                            %XG_LINEWIDTH_SUPPORT_HARDWARE# - hardware support
             16420                            %XG_LINEWIDTH_SUPPORT_SOFTWARE# - software support
             16421                            %XG_LINEWIDTH_SUPPORT_BOTH - both hardware and software support
             16422                            default  %XG_LINEWIDTH_SUPPORT_HARDWARE#        */
             16423    1         2  CHARSIZE_SUPPORT  BIT(4) %INIT(CHARSIZE_SUPRT%%COM)%CHARTEXT('/**/')  UNAL
             16423                  ,
             16424                  /*K*  The type of support given to the charsize count
             16425                       above.
             16426                            %XG_CHARSIZE_SUPPORT_HARDWARE# - hardware support
             16427                            %XG_CHARSIZE_SUPPORT_SOFTWARE# - software support
PL6.E3A0      #001=ASD$BUILD_PRO File=ASD$BUILD_PRO.:E05TSI                      TUE 07/29/97 09:44 Page:67
             16428                            %XG_CHARSIZE_SUPPORT_BOTH# - both hardware and software support
             16429                            default  %XG_CHARSIZE_SUPPORT_HARDWARE#              */
             16430    1         2  INTENSITY_SUPPORT BIT(4) %INIT(INTENSITY_SUPRT%%COM)%CHARTEXT('/**/') UNAL
             16430                  ,
             16431                  /*K*  The type of support given to the intensity count
             16432                       above.
             16433                            %XG_INTENSITY_SUPPORT_NONE# - no support for any intensity
             16434                            %XG_INTENSITY_SUPPORT_HARDWARE# - hardware support
             16435                            %XG_INTENSITY_SUPPORT_SOFTWARE# - software support
             16436                           %XG_INTENSITY_SUPPORT_BOTH# - both hardware and software support
             16437                            default  %XG_INTENSITY_SUPPORT_HARDWARE#        */
             16438    1         2  HIGHLIGHT_SUPPORT  BIT(4) %INIT (HIGHLIGHT_SUPRT%%COM)%CHARTEXT('/**/')
             16438                  UNAL,
             16439                  /*K*  The type of support given to the highlighting
             16440                       primitive attribute.
             16441                            %XG_HIGHLIGHT_SUPPORT_NONE# - no support for highlighting
             16442                            %XG_HIGHLIGHT_SUPPORT_HARDWARE# - hardware support
             16443                            %XG_HIGHLIGHT_SUPPORT_SOFTWARE# - software support
             16444                           %XG_HIGHLIGHT_SUPPORT_BOTH# - both hardware and software support
             16445                            default  %XG_HIGHLIGHT_SUPPORT_HARDWARE#
             16446                            any highlight support is valid only if
             16447                            OUTPUT_LEVEL is not "basic".                 */
             16448    1         2  OUTPUT_LEVEL  BIT(6)  %INIT(OUTPUT_LVL%%COM)%CHARTEXT('/**/')   UNAL,
             16449                  /*K*  The highest output level supported by the device
             16450                       driver.
             16451                            %XG_OUTPUT_LEVEL_BASIC# - "basic"
             16452                            %XG_OUTPUT_LEVEL_BUFFERED# - "buffered"
             16453                            %XG_OUTPUT_LEVEL_DYNAMIC_A# - "dynamic a"
             16454                            %XG_OUTPUT_LEVEL_DYNAMIC_B# - "dynamic b"
             16455                            %XG_OUTPUT_LEVEL_DYNAMIC_C# - "dynamic c"
             16456                       default - %XG_OUTPUT_LEVEL_BASIC#                    */
             16457    1         2  BATCH_MODE  BIT(4)  %INIT(BATCH_LVL%%COM)%CHARTEXT('/**/')   UNAL,
             16458                  /*K*  To indicate the strategy used by the device
             16459                       driver for batching of updates.
             16460                            %XG_BATCH_MODE_DEFER-NOTHING# - "defer-nothing"
             16461                            %XG_BATCH_MODE_DEFER_DELETION# - "defer-deletion"
             16462                            %XG_BATCH_MODE_DEFER_RETAINED# - "defer-retained"
PL6.E3A0      #001=ASD$BUILD_PRO File=ASD$BUILD_PRO.:E05TSI                      TUE 07/29/97 09:44 Page:68
             16463                            %XG_BATCH_MODE_DEFER_ALL# - "defer-all"
             16464                       default - %XG_BATCH_MODE_DEFER_ALL#         */
             16465    1         2  HIDDEN_SURFACE_LEVEL BIT(4) %INIT(HIDDEN_SURFACE_LVL%%COM)%CHARTEXT('/**/'
             16465                  )   UNAL,
             16466                  /*K* HIDDEN_SURFACE_LEVEL  The level of hidden surface
             16467                       or hidden line removal supported by the device or
             16468                       the device driver.
             16469                            %XG_HIDDEN_SURFACE_NONE# - none
             16470                            %XG_HIDDEN_SURFACE_TEMPORAL# - temporal
             16471                            %XG_HIDDEN_SURFACE_EXPLICIT# - explicit
             16472                            %XG_HIDDEN_SURFACE_FULL# - full
             16473                       default - %XG_HIDDEN_SURFACE_FULL#                */
             16474    1         2  DIMENSION_LEVEL  BIT(2)  %INIT(DIMENSION_LVL%%COM)%CHARTEXT('/**/')  UNAL,
             16475                  /*K* DIMENSION_LEVEL   the dimension level supported
             16476                       by this device and device driver.
             16477                            %XG_DIMENSION_LEVEL_2D# - 2 dimensional
             16478                            %XG_DIMENSION_LEVEL_3D# - 3 dimensional
             16479                       default - %XG_DIMENSION_LEVEL_3D#                 */
             16480    1         2  VIEW_SURFACE_TYPE  BIT(4)  %INIT(VIEW_SURFACE_TYP%%COM)%CHARTEXT('/**/')
             16480                  UNAL,
             16481                  /*K*  To indicate the type of view surface.
             16482                            %XG_VIEW_SURFACE_CHAR# - character only
             16483                            %XG_VIEW_SURFACE_VECTOR# - vector only
             16484                            %XG_VIEW_SURFACE_INTENSITY# - intensity only
             16485                            %XG_VIEW_SURFACE_COLOR# - color
             16486                       default - %XG_VIEW_SURFACE_COLOR#                 */
             16487    1         2  PIXEL_TYPE  BIT(4) %INIT(PIXEL_TYP%%COM)%CHARTEXT('/**/')   UNAL,
             16488                  /*K* PIXEL_TYPE   The availability of pixel addressing
             16489                       functions.
             16490                            '00' - not used
             16491                            %XG_PIXEL_FCNS_ALL# - read/write functions available
             16492                            %XG_PIXEL_FCNS_NONE# - functions not available
             16493                            %XG_PIXEL_FCNS_WRITE# - write functions only available
             16494                       default - %XG_PIXEL_FCNS_ALL#                     */
             16495    1         2  EDGE_TYPE  BIT(4) %INIT(EDGE_TYP%%COM)%CHARTEXT('/**/')   UNAL,
             16496                  /*K*  EDGE_TYPE   The type of edges supported by the
             16497                       device and the device driver.
PL6.E3A0      #001=ASD$BUILD_PRO File=ASD$BUILD_PRO.:E05TSI                      TUE 07/29/97 09:44 Page:69
             16498                            %XG_EDGE_TYPE_NONE# - none  generally not used
             16499                            %XG_EDGE_TYPE_INTERIOR# - interior only
             16500                            %XG_EDGE_TYPE_SOLID# - solid only as in a vector generator
             16501                            %XG_EDGE_TYPE_BOTH# - both interior and solid
             16502                       default - %XG_EDGE_TYPE_BOTH#                     */
             16503    1         2  COLOR_TABLE_TYPE  BIT(4) %INIT(COLOR_TABLE_TYP%%COM)%CHARTEXT('/**/') UNAL
             16503                  ,
             16504                  /*K* COLOR_TABLE_TYPE  The type of color table available.
             16505                            %XG_COLOR_TABLE_FIXED# - fixed
             16506                            %XG_COLOR_TABLE_DYNAMIC# - dynamic
             16507                            %XG_COLOR_TABLE_DIRECT# - direct color
             16508                            %XG_COLOR_TABLE_FIX_DYN# - fixed and dynamic
             16509                       default - %XG_COLOR_TABLE_FIX_DYN#                */
             16510    1         2  BACKGROUND_TYPE  BIT(2)  %INIT(BACKGROUND_TYP%%COM)%CHARTEXT('/**/') UNAL,
             16511                  /*K*  BACKGROUND_TYPE    the background type of the device.
             16512                            %XG_BACKGROUND_TYPE_FIXED# - fixed
             16513                            %XG_BACKGROUND_TYPE_VARIABLE# - variable
             16514                       default - %XG_BACKGROUND_TYPE_VARIABLE#           */
             16515    1         2  DEVICE_TYPE   BIT(2)  %INIT(DEVICE_TYP%%COM)%CHARTEXT('/**/')   UNAL,
             16516                  /*K* DEVICE_TYPE   the type of device this is.
             16517                            %XG_DEVICE_TYPE_PSEUDO# - "pseudo" or "file"
             16518                            %XG_DEVICE_TYPE_REAL# - "real" or "display surface"
             16519                       default - %XG_DEVICE_TYPE_PSEUDO#                  */
             16520    1         2  IMAGE_TRANSF   BIT(4)  %INIT(IMAGE_TRANS%%COM)%CHARTEXT('/**/')  UNAL,
             16521                  /*K* IMAGE_TRANSF  the level of hardware support for
             16522                       image transformations.
             16523                            %XG_IMAGE_TRANSF_NONE# - "none"
             16524                            %XG_IMAGE_TRANS_A# - "a"
             16525                            %XG_IMAGE_TRANSF_B# - "b"
             16526                            %XG_IMAGE_TRANSF_C# - "c"
             16527                       default - %XG_IMAGE_TRANSF_C#
             16528                       this bit setting has meaning only if the OUTPUT_
             16529                       LEVEL is not "basic".                             */
             16530    1         2  COLOR_MODEL  BIT(2)  %INIT(COLR_MDL%%COM)%CHARTEXT('/**/')   UNAL,
             16531                  /*K*  COLOR_MODEL    the color model used by the device.
             16532                            %XG_HLS# - HLS
             16533                            %XG_COLOR_MODEL_RGB# - RGB
PL6.E3A0      #001=ASD$BUILD_PRO File=ASD$BUILD_PRO.:E05TSI                      TUE 07/29/97 09:44 Page:70
             16534                       default - %XG_HLS#                                */
             16535    1         2  BACKGROUND_COLOR   BIT(2)  %INIT(BACKGROUND_COLR%%COM)%CHARTEXT('/**/')
             16535                  UNAL,
             16536                  /*K*  BACKGROUND_COLOR    the background color of the device
             16537                       and its view surface.
             16538                            %XG_BACKGROUND_COLOR_BLACK# - black
             16539                            %XG_BACKGROUND_COLOR_WHITE# - white
             16540                       default - %XG_BACKGROUND_COLOR_BLACK#             */
             16541    1         2  COLOR_ACTION  BIT(4)  %INIT(COLOR_ACT%%COM)%CHARTEXT('/**/')   UNAL,
             16542                  /*K*  COLOR_ACTION   the type of color action this
             16543                       device and driver support
             16544                            %XG_COLOR_ACTION_NONE# - none
             16545                            %XG_COLOR_ACTION_SEQUENTIAL# - sequential
             16546                            %XG_COLOR_ACTION_RETROACTIVE# - retroactive
             16547                       default - %XG_COLOR_ACTION_RETROACTIVE#           */
             16548    1         2  INTENSITY_ACTION  BIT(4)  %INIT(INTENSITY_ACT%%COM)%CHARTEXT('/**/')  UNAL
             16548                  ,
             16549                  /*K*  INTENSITY_ACTION   the type of intensity action this
             16550                       device and driver support
             16551                            %XG_INTENS_ACTION_NONE# - none
             16552                            %XG_INTENS_ACTION_SEQUENTIAL# - sequential
             16553                            %XG_INTENS_ACTION_RETROACTIVE# - retroactive
             16554                       default - %XG_INTENS_ACTION_RETROACTIVE#          */
             16555                                                /*  EXTRA SPACE FOR FUTURE EXPANSION  */
             16556    1         2   *    UBIN  ALIGNED %INIT (0) %CHARTEXT ('/**/'),
             16557    1         2   *    UBIN  ALIGNED %INIT (0) %CHARTEXT ('/**/'),
             16558    1         2   *    UBIN  ALIGNED %INIT (0) %CHARTEXT ('/**/'),
             16559    1         2   *    UBIN  ALIGNED %INIT (0) %CHARTEXT ('/**/'),
             16560    1         2   *    UBIN  ALIGNED %INIT (0) %CHARTEXT ('/**/'),
             16561    1         2   *    UBIN  ALIGNED %INIT (0) %CHARTEXT ('/**/'),
             16562    1         2   *    UBIN  ALIGNED %INIT (0) %CHARTEXT ('/**/'),
             16563    1         2   *    UBIN  ALIGNED %INIT (0) %CHARTEXT ('/**/'),
             16564    1         2 NUM_ESCAPES UBIN %INIT (NUM_ESCAPE_FUNCTIONS) %CHARTEXT('/**/'),
             16565                  /*K* NUM_ESCAPES the number of escape functions supported
             16566                    by this driver.  The range is 0 - 63.  This means a max of
             16567                    63 different escape functions can be supported at any
             16568                    given time.  This values defines the number of entries
PL6.E3A0      #001=ASD$BUILD_PRO File=ASD$BUILD_PRO.:E05TSI                      TUE 07/29/97 09:44 Page:71
             16569                    in the GR_ESCAPES array structure.
             16570                  */
             16571    1         2 GR_ESCAPES (0:%ARRAYLEN) CALIGNED,
             16572    1            3 ESCAPE_FUNCTION UBIN HALF CALIGNED %INIT(0*0) %CHARTEXT('/**/'),
             16573                    /*K* ESCAPE_FUNCTION the value of this escape function.
             16574                       The value of any given escape function can be
             16575                       0 - 32767 inclusive.
             16576                    */
             16577    1            3 ESCAPE_SUPPORT UBIN BYTE CALIGNED %INIT(0*0) %CHARTEXT('/**/'),
             16578                    /*K* ESCAPE_SUPPORT tells whether this function is
             16579                       supported in hardware or software.
             16580                       XG_ESC_HARDWARE_SUPPORT = 1
             16581                       XG_ESC_SOFTWARE_SUPPORT = 2
             16582                    */
             16583    1            3 * UBIN BYTE CALIGNED %INIT (0*0) %CHARTEXT('/**/');
             16584                    /* FUTURE ENHANCEMENTS */
       53    16586        %PLIST ;
       54    16587    1   DCL PROFILE_BUF STATIC CHAR(AS_PRO_BUF_SIZEC) INIT(' ') ;
       55    16588    1   DCL 1 PRO_KEY ALIGNED STATIC ,
       56    16589    1          2 CNT UBIN BYTE UNAL INIT(0) ,
       57    16590    1          2 TEXT CHAR(11) UNAL INIT(' ') ;
       58    16591    1   DCL 1 GRA_KEY ALIGNED STATIC,
       59    16592    1          2 CNT UBIN BYTE UNAL INIT(11) ,
       60    16593    1          2 TEXT CHAR(11) UNAL INIT('GRAPHICFILE') ;
       61    16594    1   DCL SIZE UBIN WORD STATIC ;
       62    16595    1   DCL PP$ PTR STATIC;
       63    16596        %EJECT;
PL6.E3A0      #001=ASD$BUILD_PRO File=ASD$BUILD_PRO.:E05TSI                      TUE 07/29/97 09:44 Page:72
       64    16597        /********************************************************************/
       65    16598        /*   Vlps            vlps            vlps            vlps            */
       66    16599        /*********************************************************************/
       67    16600
       68    16601        %VLP_NAME(  FPTN = VLP_ASYNC_PNAME,
       69    16602                    NAME = '$ASYNC' ,
       70    16603                    LEN = 11 ,
       71    16604                    STCLASS = CONSTANT ) ;
       72    16631        %VLP_NAME(  FPTN = VLP_GRAPHICFILE_PNAME,
       73    16632                    NAME = 'GRAPHICFILE' ,
       74    16633                    LEN = 11 ,
       75    16634                    STCLASS = CONSTANT ) ;
       76    16661        %VLP_NAME( FPTN=VLP_3270_PNAME, NAME='$3270',LEN=11, STCLASS=CONSTANT);
       77    16688        %VLP_NAME(  FPTN = VLP_RBT_PNAME,
       78    16689                    NAME = '$RBT' ,
       79    16690                    LEN = 11 ,
       80    16691                    STCLASS = CONSTANT ) ;
       81    16718        %VLP_NAME(  FPTN = VLP_RBTD_PNAME,
       82    16719                    NAME = '$RBTD' ,
       83    16720                    LEN = 11 ,
       84    16721                    STCLASS = CONSTANT ) ;
       85    16748        %VLP_NAME(  FPTN = VLP_LINK_PNAME,
       86    16749                    NAME = '$LINK' ,
       87    16750                    LEN = 11 ,
       88    16751                    STCLASS = CONSTANT ) ;
       89    16778        %VLP_NAME(  FPTN = VLP_URP_PNAME,
       90    16779                    NAME = '$URP' ,
       91    16780                    LEN = 11 ,
       92    16781                    STCLASS = CONSTANT ) ;
       93    16808        %VLP_NAME(  FPTN = VLP_VIRCIR_PNAME,
       94    16809                    NAME = '$VIRCIR' ,
       95    16810                    LEN = 11 ,
       96    16811                    STCLASS = CONSTANT ) ;
       97    16838        %VLP_NAME(  FPTN = VLP_POLLVIP_PNAME,
       98    16839                    NAME = '$POLLVIP',
       99    16840                    LEN  = 11,
      100    16841                    STCLASS = CONSTANT );
PL6.E3A0      #001=ASD$BUILD_PRO File=ASD$BUILD_PRO.:E05TSI                      TUE 07/29/97 09:44 Page:73
      101    16868        %VLP_TRMCTL ( FPTN = VLP_ASYNC_TRMCTL ,
      102    16869                      TABSIM = YES ,
      103    16870                      TABRELATIVE = YES ,
      104    16871                      SPACEINSERT = YES ,
      105    16872                      SENDBKSPACE = NO ,
      106    16873                      DISPINPUT = YES ,
      107    16874                      OUTPUTDISCARD = NO ,
      108    16875                      LOWERCASE = NO ,
      109    16876                      HALFDUXPAPERTAPE = NO ,
      110    16877                      FULLDUXPAPERTAPE = NO ,
      111    16878                      ACTONTRN  = NO  ,
      112    16879                      APLLCNRM = YES ,
      113    16880                      RETYPOVR = NO  ,
      114    16881                      EDITOVR = NO  ,
      115    16882                      SCROLL = NO ,
      116    16883                      PAGEHALT = NO  ,
      117    16884                      PRINTHALT = NO ,
      118    16885                      RELPAGE = NO ,
      119    16886                      SINPUTSZ = 255 ,
      120    16887                      STCLASS = STATIC ) ;
      121    16927        %VLP_TRMCTL ( FPTN = VLP_3270_TRMCTL ,
      122    16928                      TABSIM = YES ,
      123    16929                      TABRELATIVE = YES ,
      124    16930                      SPACEINSERT = YES ,
      125    16931                      SENDBKSPACE = NO ,
      126    16932                      DISPINPUT = YES ,
      127    16933                      OUTPUTDISCARD = NO ,
      128    16934                      LOWERCASE = NO ,
      129    16935                      HALFDUXPAPERTAPE = NO ,
      130    16936                      FULLDUXPAPERTAPE = NO ,
      131    16937                      ACTONTRN  = NO  ,
      132    16938                      APLLCNRM = YES ,
      133    16939                      RETYPOVR = YES  ,
      134    16940                      EDITOVR = YES  ,
      135    16941                      SCROLL = NO ,
      136    16942                      PAGEHALT = YES ,
      137    16943                      PRINTHALT = YES ,
PL6.E3A0      #001=ASD$BUILD_PRO File=ASD$BUILD_PRO.:E05TSI                      TUE 07/29/97 09:44 Page:74
      138    16944                      RELPAGE = NO ,
      139    16945                      SINPUTSZ = 255 ,
      140    16946                      STCLASS = STATIC ) ;
      141    16986        %VLP_TRMCTL ( FPTN = VLP_URP_TRMCTL ,
      142    16987                      TABSIM = YES ,
      143    16988                      TABRELATIVE = YES ,
      144    16989                      SPACEINSERT = YES ,
      145    16990                      SENDBKSPACE = NO ,
      146    16991                      DISPINPUT = YES ,
      147    16992                      OUTPUTDISCARD = NO ,
      148    16993                      LOWERCASE = NO ,
      149    16994                      HALFDUXPAPERTAPE = NO ,
      150    16995                      FULLDUXPAPERTAPE = NO ,
      151    16996                      ACTONTRN  = NO  ,
      152    16997                      APLLCNRM = YES ,
      153    16998                      RETYPOVR = NO  ,
      154    16999                      EDITOVR = NO  ,
      155    17000                      SCROLL = NO ,
      156    17001                      PAGEHALT = NO  ,
      157    17002                      PRINTHALT = NO ,
      158    17003                      RELPAGE = NO ,
      159    17004                      SINPUTSZ = 255 ,
      160    17005                      TRUNCATE = YES ,
      161    17006                      STCLASS = STATIC ) ;
      162    17046        %VLP_TRMCTL ( FPTN = VLP_RBTD_TRMCTL ,
      163    17047                      TABSIM = YES ,
      164    17048                      TABRELATIVE = YES ,
      165    17049                      SPACEINSERT = YES ,
      166    17050                      SENDBKSPACE = NO ,
      167    17051                      DISPINPUT = YES ,
      168    17052                      OUTPUTDISCARD = NO ,
      169    17053                      LOWERCASE = NO ,
      170    17054                      HALFDUXPAPERTAPE = NO ,
      171    17055                      FULLDUXPAPERTAPE = NO ,
      172    17056                      ACTONTRN  = NO  ,
      173    17057                      APLLCNRM = YES ,
      174    17058                      RETYPOVR = NO  ,
PL6.E3A0      #001=ASD$BUILD_PRO File=ASD$BUILD_PRO.:E05TSI                      TUE 07/29/97 09:44 Page:75
      175    17059                      EDITOVR = NO  ,
      176    17060                      SCROLL = NO ,
      177    17061                      PAGEHALT = NO  ,
      178    17062                      PRINTHALT = NO ,
      179    17063                      RELPAGE = NO ,
      180    17064                      SINPUTSZ = 255 ,
      181    17065                      TRUNCATE = YES ,
      182    17066                      STCLASS = STATIC ) ;
      183    17106        %VLP_TRMATTR (  FPTN = VLP_ASYNC_TRMATTR ,
      184    17107                        WIDTH = 80 ,
      185    17108                        EXTWID = NO ,
      186    17109                        HEIGHT = 0 ,
      187    17110                        PROGDTAB = NO ,
      188    17111                        OPDTAB = NO ,
      189    17112                        DEVSCROLL = NO ,
      190    17113                        CURSORUP = NO ,
      191    17114                        DEVICECR = YES ,
      192    17115                        DEVICELF = YES ,
      193    17116                        DEVICEBS = YES ,
      194    17117                        AUTONL = NO ,
      195    17118                        CRISNL = NO ,
      196    17119                        LFISNL = NO ,
      197    17120                        BLANKERASES = NO ,
      198    17121                        DEVPOSOPTS = NO ,
      199    17122                        TRUOVRPRT = YES ,
      200    17123                        APL = NO ,
      201    17124                        BIN = NO ,
      202    17125                        LOWERCASEPRINTS = NO ,
      203    17126                        INPUT = YES ,
      204    17127                        OUTPUT = YES ,
      205    17128                        PRINTTYPE = YES ,
      206    17129                        TTYTYPE = YES ,
      207    17130                        DVCFLWCTRALG = NONE ,
      208    17131                        MINREC = 255 ,
      209    17132                        SPEED = 255 ,
      210    17133                        CHARSETNAME = 'ASC64' ,
      211    17134                        STCLASS = CONSTANT ) ;
PL6.E3A0      #001=ASD$BUILD_PRO File=ASD$BUILD_PRO.:E05TSI                      TUE 07/29/97 09:44 Page:76
      212    17172        %VLP_TRMATTR (  FPTN = VLP_3270_TRMATTR ,
      213    17173                        WIDTH = 80 ,
      214    17174                        EXTWID = NO ,
      215    17175                        HEIGHT = 24 ,
      216    17176                        PROGDTAB = NO ,
      217    17177                        OPDTAB = NO ,
      218    17178                        DEVSCROLL = NO ,
      219    17179                        CURSORUP = YES ,
      220    17180                        DEVICECR = YES ,
      221    17181                        DEVICELF = YES ,
      222    17182                        DEVICEBS = YES ,
      223    17183                        AUTONL = NO ,
      224    17184                        CRISNL = NO ,
      225    17185                        LFISNL = NO ,
      226    17186                        BLANKERASES = YES ,
      227    17187                        DEVPOSOPTS = NO ,
      228    17188                        TRUOVRPRT = YES ,
      229    17189                        APL = NO ,
      230    17190                        BIN = NO ,
      231    17191                        LOWERCASEPRINTS = NO ,
      232    17192                        INPUT = YES ,
      233    17193                        OUTPUT = YES ,
      234    17194                        PRINTTYPE = YES ,
      235    17195                        TTYTYPE = YES ,
      236    17196                        MINREC = 255 ,
      237    17197                        SPEED = 255 ,
      238    17198                        CHARSETNAME = '3270' ,
      239    17199                        MAXATRS = 254 ,
      240    17200                        ATRSCRNPOS = YES ,
      241    17201                        NO_FLDTRM = YES ,
      242    17202                        STCLASS = CONSTANT ) ;
      243    17240        %VLP_TRMATTR (  FPTN = VLP_URP_TRMATTR ,
      244    17241                        WIDTH = 132 ,
      245    17242                        EXTWID = NO ,
      246    17243                        HEIGHT = 0 ,
      247    17244                        PROGDTAB = YES ,
      248    17245                        OPDTAB = NO ,
PL6.E3A0      #001=ASD$BUILD_PRO File=ASD$BUILD_PRO.:E05TSI                      TUE 07/29/97 09:44 Page:77
      249    17246                        DEVICECR = NO ,
      250    17247                        DEVICELF = NO ,
      251    17248                        LFISNL = NO ,
      252    17249                        APL = NO ,
      253    17250                        BIN = NO ,
      254    17251                        LOWERCASEPRINTS = NO ,
      255    17252                        INPUT = YES ,
      256    17253                        OUTPUT = YES ,
      257    17254                        PRINTTYPE = YES ,
      258    17255                        CHARSETNAME = 'ASC95' ,
      259    17256                        STCLASS = CONSTANT ) ;
      260    17294        %VLP_TRMATTR (  FPTN = VLP_RBTD_TRMATTR ,
      261    17295                        WIDTH = 80 ,
      262    17296                        EXTWID = NO ,
      263    17297                        HEIGHT = 0 ,
      264    17298                        PROGDTAB = NO ,
      265    17299                        OPDTAB = NO ,
      266    17300                        DEVSCROLL = NO ,
      267    17301                        CURSORUP = NO ,
      268    17302                        DEVICECR = NO ,
      269    17303                        DEVICELF = NO ,
      270    17304                        DEVICEBS = NO ,
      271    17305                        AUTONL = NO ,
      272    17306                        CRISNL = NO ,
      273    17307                        LFISNL = NO ,
      274    17308                        BLANKERASES = NO ,
      275    17309                        DEVPOSOPTS = NO ,
      276    17310                        TRUOVRPRT = NO ,
      277    17311                        APL = NO ,
      278    17312                        LOWERCASEPRINTS = NO ,
      279    17313                        PARITY = EVEN ,
      280    17314                        INPUT = NO ,
      281    17315                        OUTPUT = NO ,
      282    17316                        PRINTTYPE = NO ,
      283    17317                        TTYTYPE = NO ,
      284    17318                        MINREC = 255 ,
      285    17319                        SPEED = 255 ,
PL6.E3A0      #001=ASD$BUILD_PRO File=ASD$BUILD_PRO.:E05TSI                      TUE 07/29/97 09:44 Page:78
      286    17320                        CHARSETNAME = 'ASC95' ,
      287    17321                        STCLASS = CONSTANT ) ;
      288    17359        %VLP_PLATEN (   FPTN = VLP_ASYNC_PLATEN ,
      289    17360                        EXTWID = NO ,
      290    17361                        WIDTH = 80 ,
      291    17362                        LENGTH = 0 ,
      292    17363                        LIMBO = 0 ,
      293    17364                        FIRSTLINE = 0 ,
      294    17365                        STCLASS = CONSTANT ) ;
      295    17387        %VLP_PLATEN (   FPTN = VLP_3270_PLATEN ,
      296    17388                        EXTWID = NO ,
      297    17389                        WIDTH = 80 ,
      298    17390                        LENGTH = 0 ,
      299    17391                        LIMBO = 0 ,
      300    17392                        FIRSTLINE = 0 ,
      301    17393                        STCLASS = CONSTANT ) ;
      302    17415        %VLP_PLATEN (   FPTN = VLP_URP_PLATEN ,
      303    17416                        EXTWID = NO ,
      304    17417                        WIDTH = 132 ,
      305    17418                        LENGTH = 66 ,
      306    17419                        LIMBO = 0 ,
      307    17420                        FIRSTLINE = 0 ,
      308    17421                        STCLASS = CONSTANT ) ;
      309    17443        %VLP_PLATEN (   FPTN = VLP_RBTD_PLATEN ,
      310    17444                        EXTWID = NO ,
      311    17445                        WIDTH = 80 ,
      312    17446                        LENGTH = 0 ,
      313    17447                        LIMBO = 0 ,
      314    17448                        FIRSTLINE = 0 ,
      315    17449                        STCLASS = CONSTANT ) ;
      316    17471        %VLP_TAB (      FPTN = VLP_ASYNC_TAB ,
      317    17472                        MARGIN = 0 ,
      318    17473                        TABS = 0 ,
      319    17474                        STCLASS = STATIC ) ;
      320    17488        %VLP_TAB(FPTN=VLP_3270_TAB,MARGIN=0,TABS=0,STCLASS=STATIC);
      321    17502        %VLP_TAB (      FPTN = VLP_URP_TAB ,
      322    17503                        MARGIN = 0 ,
PL6.E3A0      #001=ASD$BUILD_PRO File=ASD$BUILD_PRO.:E05TSI                      TUE 07/29/97 09:44 Page:79
      323    17504                        TABS = 0 ,
      324    17505                        STCLASS = STATIC ) ;
      325    17519        %VLP_NAME ( FPTN = VLP$PNAME ,
      326    17520                    STCLASS = BASED ,
      327    17521                        LEN = VLP$PNAME.L# ) ;
      328    17548        %KL_CCHR( NAME = VLP_ASYNC_CCHR ,
      329    17549                  STCLASS = CONSTANT ) ;
      330    17690
      331    17691
      332    17692        %KL_TRMD (  NAME = VLP_RBT_TRMD ,
      333    17693                    STCLASS = CONSTANT ) ;
      334    17855
      335    17856        %KL_TRMD (  NAME = VLP_POLLVIP_TRMD ,
      336    17857                    STCLASS = CONSTANT ) ;
      337    18019
      338    18020        %KL_LINK (  NAME = VLP_LINK_LINK ,
      339    18021                    STCLASS = CONSTANT ) ;
      340    18117        %KL_VIRCIR (  NAME = VLP_VIRCIR_VIRCIR ,
      341    18118                    STCLASS = CONSTANT ) ;
      342    18327        %KL_3270 ( NAME = VLP_ASYNC_3270 ,
      343    18328                   STCLASS = CONSTANT );
      344    18353        %KL_3270(NAME=VLP_3270_3270,STCLASS=CONSTANT);
      345    18378        %KL_ABSGRPRND( NAME=VLP_ABSGRPRND_EMPHASIS, ID=EMPHASIS, STCLASS=CONSTANT );
      346    18413        %KL_ABSGRPRND( NAME=VLP_ABSGRPRND_ERROR, ID=ERROR, STCLASS=CONSTANT );
      347    18448        %KL_ABSGRPRND( NAME=VLP_ABSGRPRND_HIDDEN, ID=HIDDEN, STCLASS=CONSTANT );
      348    18483        %KL_ABSGRPRND( NAME=VLP_ABSGRPRND_INPUT, ID=INPUT, STCLASS=CONSTANT );
      349    18518        %KL_ABSGRPRND( NAME=VLP_ABSGRPRND_NULL, ID=NULL, STCLASS=CONSTANT );
      350    18553        %KL_ABSGRPRND( NAME=VLP_ABSGRPRND_OUTPUT, ID=OUTPUT, STCLASS=CONSTANT );
      351    18588        %KL_ABSGRPRND( NAME=VLP_ABSGRPRND_WARNING, ID=WARNING, STCLASS=CONSTANT );
      352    18623
      353    18624        %AS_FUNKEY (NAME = VLP_ASYNC_FUNKEY,
      354    18625                    STCLASS = CONSTANT);
      355    18696        %KL_SETUP_CHR (NAME = VLP_ASYNC_SETUP_CHR,
      356    18697                       STCLASS = CONSTANT);
      357    18713        %KL_SETUP_CHR (NAME = VLP_3270_SETUP_CHR,
      358    18714                       STCLASS = CONSTANT);
      359    18730
PL6.E3A0      #001=ASD$BUILD_PRO File=ASD$BUILD_PRO.:E05TSI                      TUE 07/29/97 09:44 Page:80
      360    18731        %PLIST ;
      361    18732        %VLP_TRMCTL ( FPTN = VLP$TRMCTL ,
      362    18733                      ALGN = UNAL ,
      363    18734                      STCLASS = BASED ) ;
      364    18774        %VLP_TRMATTR (  FPTN = VLP$TRMATTR ,
      365    18775                        ALGN = UNAL ,
      366    18776                        STCLASS = BASED ) ;
      367    18814        %VLP_PLATEN ( FPTN = VLP$PLATEN ,
      368    18815                      ALGN = UNAL ,
      369    18816                      STCLASS = BASED ) ;
      370    18838        %VLP_TAB (  FPTN = VLP$TAB ,
      371    18839                    STCLASS="BASED")  ;
      372    18853        %KL_CCHR ( NAME = VLP$CCHR ,
      373    18854                   STCLASS="BASED UNAL") ;
      374    18995        %KL_TRMD  ( NAME = VLP$TRMD ,
      375    18996                    STCLASS="BASED UNAL") ;
      376    19158        %KL_LINK ( NAME = VLP$LINK ,
      377    19159                   STCLASS="BASED") ;
      378    19255        %KL_VIRCIR ( NAME = VLP$VIRCIR ,
      379    19256                   STCLASS="BASED") ;
      380    19465        %KL_3270 ( NAME = VLP$3270 ,
      381    19466                   STCLASS="BASED UNAL" );
      382    19491        %KL_ABSGRPRND( NAME = VLP$ABSGRPRND ,
      383    19492                       STCLASS="BASED UNAL" );
      384    19527        %AS_FUNKEY (NAME = VLP$FUNKEY,
      385    19528                    STCLASS = "BASED UNAL" );
      386    19599        %KL_SETUP_CHR (NAME = VLP$SETUP_CHR,
      387    19600                       STCLASS = "BASED UNAL" );
      388    19616
      389    19617        %EJECT;
PL6.E3A0      #001=ASD$BUILD_PRO File=ASD$BUILD_PRO.:E05TSI                      TUE 07/29/97 09:44 Page:81
      390    19618        /********************************************************************/
      391    19619        /*   Entry dcls      entry dcls      entry dcls      entry dcls      */
      392    19620        /*********************************************************************/
      393    19621
      394    19622        %ASH$ERROR ;
      395    19625        %ASD$OPEN_PRO_CR ;
      396    19628        %ASD$WRITE_PRO ;
      397    19631        %ASD$GR_WRITE_PRO ;
      398    19634        %ASD$CLOSE_PRO ;
      399    19637        %EJECT;
PL6.E3A0      #001=ASD$BUILD_PRO File=ASD$BUILD_PRO.:E05TSI                      TUE 07/29/97 09:44 Page:82
      400    19638        /********************************************************************/
      401    19639        /*   Local based     local based     local based     local based     */
      402    19640        /*********************************************************************/
      403    19641
      404    19642        %LIST ;
      405    19643        %KL_PHDR ( NAME = PRO$HDR  ,
      406    19644                   STCLASS = BASED ) ;
             19645         %LSET LISTDIR='0'B;
             19657    1   DCL 1 PRO$HDR BASED,
             19658    1         2 TTYP UBIN BYTE UNAL /*(2)/**/,
             19659    1         2 WIDTH UBIN BYTE UNAL /*(80)/**/,
             19660    1         2 LINES UBIN HALF UNAL /*(38)/**/,
             19661    1         2 ATTR,
             19662    1           3 * BIT(9) UNAL /*('0'B)/**/,
             19663    1           3 GRLGL BIT(1) UNAL /*('0'B)/**/,
             19664    1           3 TRANSLGL BIT(1) UNAL /*('0'B)/**/,
             19665    1           3 NOXLATE BIT(1) UNAL /*('0'B)/**/,
             19666    1           3 UPPERCASE BIT(1) UNAL /*('1'B)/**/,
             19667    1           3 NATL BIT(1) UNAL /*('0'B)/**/,
             19668    1           3 TRUOVRPRT BIT(1) UNAL /*('1'B)/**/,
             19669    1           3 APL BIT(1) UNAL /*('0'B)/**/,
             19670    1           3 BIN BIT(1) UNAL /*('0'B)/**/,
             19671    1           3 LCASE BIT(1) UNAL /*('1'B)/**/,
             19672    1         2 IO UNAL,
             19673    1           3 INPUT BIT(1) /*('1'B)/**/,
             19674    1           3 OUTPUT BIT(1) /*('1'B)/**/,
             19675    1         2 IMP# UBIN(7) UNAL /*(0)/**/,
             19676    1         2 DDEV,
             19677    1           3 LP BIT(1) UNAL /*('1'B)/**/,
             19678    1           3 CP BIT(1) UNAL /*('0'B)/**/,
             19679    1           3 IC BIT(1) UNAL /*('1'B)/**/,
             19680    1           3 GRAPHICS_OK BIT(1) UNAL /*('0'B)/**/,
             19681    1           3 * BIT(5) UNAL /*('0'B)/**/,
             19682    1         2 GR_FPRG CHAR(64) UNAL /*(' ')/**/,
             19683    1         2 INFO BIT(72) /*('0'B)/**/;
      407    19685        %PLIST ;
      408    19686        %XG$PROFILE (PRON = GRA$REC,
PL6.E3A0      #001=ASD$BUILD_PRO File=ASD$BUILD_PRO.:E05TSI                      TUE 07/29/97 09:44 Page:83
      409    19687                     STCLASS = BASED) ;
      410    20109    1   DCL 1 PP$STRCT BASED( PP$ ) UNAL ,
      411    20110    1          2 TYPE UBIN BYTE UNAL ,
      412    20111    1          2 SIZE UBIN BYTE UNAL ;
      413    20112    1   DCL 1 PP$BIG_STRCT BASED( PP$ ) UNAL ,
      414    20113    1          2 BIG  UBIN BYTE UNAL ,
      415    20114    1          2 TYPE UBIN BYTE UNAL ,
      416    20115    1          2 SIZE ,
      417    20116    1             3 *   UBIN (1)  UNAL ,
      418    20117    1             3 T   UBIN (8)  UNAL ,
      419    20118    1             3 *   UBIN (1)  UNAL ,
      420    20119    1             3 B   UBIN (8)  UNAL ;
      421    20120
      422    20121        %EJECT;
PL6.E3A0      #001=ASD$BUILD_PRO File=ASD$BUILD_PRO.:E05TSI                      TUE 07/29/97 09:44 Page:84
      423    20122        /********************************************************************/
      424    20123        /*   Auto data       auto data       auto data       auto data       */
      425    20124        /*********************************************************************/
      426    20125
      427    20126    1   DCL ARS UBIN WORD ;
      428    20127    1   DCL IOCNT UBIN WORD ;
      429    20128    1   DCL EXTWID UBIN WORD ;
      430    20129        %EJECT;
PL6.E3A0      #001=ASD$BUILD_PRO File=ASD$BUILD_PRO.:E05TSI                      TUE 07/29/97 09:44 Page:85
      431    20130        /********************************************************************/
      432    20131        /*   Procedure       procedure       procedure       procedure       */
      433    20132        /*********************************************************************/
      434    20133
      435    20134        /* In pre C01 times the blocks that made up a profile were all an even
      436    20135           number of bytes, thus assuring that the next block would have the
      437    20136           type byte on an even boundary.  The only part of the profile that
      438    20137           could vary in size was the cchr part at the end, so nothing was
      439    20138           affected.
      440    20139
      441    20140           Now in C01 there are 3 profile blocks that can vary in size (cchr,
      442    20141           functionkey, and SETUP_CHR).  When the funkey or setup blocks get
      443    20142           altered in size, we must make sure the number of bytes added or
      444    20143           removed is even.  The cchr is still at the end....  The solution is
      445    20144           simply to make sure the setup_chr is an even number of characters,
      446    20145           the funkey stuff uses an even number of bytes for each definition,
      447    20146           the record is padded with a byte if necessary.
      448    20147        */
      449    20148
      450    20149    1   ASD$CREATE_PRO: ENTRY;

  20149  4 000003   000000 700200 xent  ASD$CREATE_* TSX0  ! X66_AUTO_2
         4 000004   000014 000002                    ZERO    12,2

      451    20150
      452    20151        /*
      453    20152            ***            Begin procedure                    ***
      454    20153        */
      455    20154    1   CALL ASD$OPEN_PRO_CR;

  20154  4 000005   000002 631400 xsym               EPPR1   B_VECTNIL+2
         4 000006   000000 701000 xent               TSX1    ASD$OPEN_PRO_CR
         4 000007   000000 011000                    NOP     0

      456    20155    1   CALL ASD$BUILD_$ASYNC( PROFILE_BUF, ARS );

  20155  4 000010   200005 630500                    EPPR0   ARS,,AUTO
PL6.E3A0      #001=ASD$BUILD_PRO File=ASD$BUILD_PRO.:E05TSI                      TUE 07/29/97 09:44 Page:86
         4 000011   200011 450500                    STP0    EXTWID+2,,AUTO
         4 000012   000000 236000 5                  LDQ     0
         4 000013   200010 756100                    STQ     EXTWID+1,,AUTO
         4 000014   200010 630500                    EPPR0   EXTWID+1,,AUTO
         4 000015   000020 631400 xsym               EPPR1   B_VECTNIL+16
         4 000016   000124 701000 4                  TSX1    s:20171
         4 000017   000000 011000                    NOP     0

      457    20156    1   CALL ASD$BUILD_$RBT( PROFILE_BUF, ARS );

  20156  4 000020   200005 630500                    EPPR0   ARS,,AUTO
         4 000021   200011 450500                    STP0    EXTWID+2,,AUTO
         4 000022   000000 236000 5                  LDQ     0
         4 000023   200010 756100                    STQ     EXTWID+1,,AUTO
         4 000024   200010 630500                    EPPR0   EXTWID+1,,AUTO
         4 000025   000020 631400 xsym               EPPR1   B_VECTNIL+16
         4 000026   001522 701000 4                  TSX1    s:20614
         4 000027   000000 011000                    NOP     0

      458    20157    1   CALL ASD$BUILD_$RBTD( PROFILE_BUF, ARS );

  20157  4 000030   200005 630500                    EPPR0   ARS,,AUTO
         4 000031   200011 450500                    STP0    EXTWID+2,,AUTO
         4 000032   000000 236000 5                  LDQ     0
         4 000033   200010 756100                    STQ     EXTWID+1,,AUTO
         4 000034   200010 630500                    EPPR0   EXTWID+1,,AUTO
         4 000035   000020 631400 xsym               EPPR1   B_VECTNIL+16
         4 000036   001711 701000 4                  TSX1    s:20678
         4 000037   000000 011000                    NOP     0

      459    20158    1   CALL ASD$BUILD_$LINK( PROFILE_BUF, ARS );

  20158  4 000040   200005 630500                    EPPR0   ARS,,AUTO
         4 000041   200011 450500                    STP0    EXTWID+2,,AUTO
         4 000042   000000 236000 5                  LDQ     0
         4 000043   200010 756100                    STQ     EXTWID+1,,AUTO
         4 000044   200010 630500                    EPPR0   EXTWID+1,,AUTO
PL6.E3A0      #001=ASD$BUILD_PRO File=ASD$BUILD_PRO.:E05TSI                      TUE 07/29/97 09:44 Page:87
         4 000045   000020 631400 xsym               EPPR1   B_VECTNIL+16
         4 000046   002175 701000 4                  TSX1    s:20776
         4 000047   000000 011000                    NOP     0

      460    20159    1   CALL ASD$BUILD_$URP( PROFILE_BUF, ARS );

  20159  4 000050   200005 630500                    EPPR0   ARS,,AUTO
         4 000051   200011 450500                    STP0    EXTWID+2,,AUTO
         4 000052   000000 236000 5                  LDQ     0
         4 000053   200010 756100                    STQ     EXTWID+1,,AUTO
         4 000054   200010 630500                    EPPR0   EXTWID+1,,AUTO
         4 000055   000020 631400 xsym               EPPR1   B_VECTNIL+16
         4 000056   002553 701000 4                  TSX1    s:20903
         4 000057   000000 011000                    NOP     0

      461    20160    1   CALL ASD$BUILD_$3270( PROFILE_BUF, ARS );

  20160  4 000060   200005 630500                    EPPR0   ARS,,AUTO
         4 000061   200011 450500                    STP0    EXTWID+2,,AUTO
         4 000062   000000 236000 5                  LDQ     0
         4 000063   200010 756100                    STQ     EXTWID+1,,AUTO
         4 000064   200010 630500                    EPPR0   EXTWID+1,,AUTO
         4 000065   000020 631400 xsym               EPPR1   B_VECTNIL+16
         4 000066   000760 701000 4                  TSX1    s:20409
         4 000067   000000 011000                    NOP     0

      462    20161    1   CALL ASD$BUILD_$VIRCIR( PROFILE_BUF, ARS );

  20161  4 000070   200005 630500                    EPPR0   ARS,,AUTO
         4 000071   200011 450500                    STP0    EXTWID+2,,AUTO
         4 000072   000000 236000 5                  LDQ     0
         4 000073   200010 756100                    STQ     EXTWID+1,,AUTO
         4 000074   200010 630500                    EPPR0   EXTWID+1,,AUTO
         4 000075   000020 631400 xsym               EPPR1   B_VECTNIL+16
         4 000076   002364 701000 4                  TSX1    s:20839
         4 000077   000000 011000                    NOP     0

PL6.E3A0      #001=ASD$BUILD_PRO File=ASD$BUILD_PRO.:E05TSI                      TUE 07/29/97 09:44 Page:88
      463    20162    1   CALL ASD$BUILD_$POLLVIP( PROFILE_BUF, ARS );

  20162  4 000100   200005 630500                    EPPR0   ARS,,AUTO
         4 000101   200011 450500                    STP0    EXTWID+2,,AUTO
         4 000102   000000 236000 5                  LDQ     0
         4 000103   200010 756100                    STQ     EXTWID+1,,AUTO
         4 000104   200010 630500                    EPPR0   EXTWID+1,,AUTO
         4 000105   000020 631400 xsym               EPPR1   B_VECTNIL+16
         4 000106   003107 701000 4                  TSX1    s:21031
         4 000107   000000 011000                    NOP     0

      464    20163    1   CALL ASD$BUILD_$GRA( PROFILE_BUF, ARS );

  20163  4 000110   200005 630500                    EPPR0   ARS,,AUTO
         4 000111   200011 450500                    STP0    EXTWID+2,,AUTO
         4 000112   000000 236000 5                  LDQ     0
         4 000113   200010 756100                    STQ     EXTWID+1,,AUTO
         4 000114   200010 630500                    EPPR0   EXTWID+1,,AUTO
         4 000115   000020 631400 xsym               EPPR1   B_VECTNIL+16
         4 000116   003276 701000 4                  TSX1    s:21096
         4 000117   000000 011000                    NOP     0

      465    20164    1   CALL ASD$CLOSE_PRO ;

  20164  4 000120   000002 631400 xsym               EPPR1   B_VECTNIL+2
         4 000121   000000 701000 xent               TSX1    ASD$CLOSE_PRO
         4 000122   000000 011000                    NOP     0

      466    20165    1   RETURN;

  20165  4 000123   000000 702200 xent               TSX2  ! X66_ARET

      467    20166
      468    20167        %SET LISTMAC='1'B;
      469    20168        %SET LISTSUB='1'B;
      470    20169
      471    20170
PL6.E3A0      #001=ASD$BUILD_PRO File=ASD$BUILD_PRO.:E05TSI                      TUE 07/29/97 09:44 Page:89
      472    20171    1   ASD$BUILD_$ASYNC: ENTRY( PRO_BUF, P_ARS );

  20171  4 000124   000000 700200 xent  ASD$BUILD_$* TSX0  ! X66_AUTO_2
         4 000125   000014 000002                    ZERO    12,2

      473    20172
      474    20173
      475    20174                                                              /* Set up $ASYNC. */
      476    20175    1   PRO_BUF = AS_BLANK ;

  20175  4 000126   200003 470500                    LDP0    @PRO_BUF,,AUTO
         4 000127   040100 100400                    MLR     fill='040'O
         4 000130   000000 000001 xsym               ADSC9   AS_BLANK                 cn=0,n=1
         4 000131   000000 002000                    ADSC9   0,,PR0                   cn=0,n=1024

      477    20176    1   PP$ = ADDR( PRO_BUF ) ;

  20176  4 000132   200003 236100                    LDQ     @PRO_BUF,,AUTO
         4 000133   000601 756000 2                  STQ     PP$

      478    20177                                                              /*   Set up header.   */
      479    20178    1   PRO_HDR.TTYP = %KLTY_TTY# ;

  20178  4 000134   002000 236003                    LDQ     1024,DU
         4 000135   000000 552040 2                  STBQ    PRO_HDR,'40'O

      480    20179                                                            /*   Check for extra width.  */
      481    20180    1   IF VLP_ASYNC_PLATEN.EXTWID# = %YES# THEN

  20180  4 000136   000105 430000 3                  FSZN    VLP_ASYNC_PLATEN+1
         4 000137   000143 605000 4                  TPL     s:20183

      482    20181    1      EXTWID = 1 ;

  20181  4 000140   000001 235007                    LDA     1,DL
         4 000141   200007 755100                    STA     EXTWID,,AUTO
         4 000142   000144 710000 4                  TRA     s:20184
PL6.E3A0      #001=ASD$BUILD_PRO File=ASD$BUILD_PRO.:E05TSI                      TUE 07/29/97 09:44 Page:90

      483    20182    1   ELSE
      484    20183    1      EXTWID = 0 ;

  20183  4 000143   200007 450100                    STZ     EXTWID,,AUTO

      485    20184    1   PRO_HDR.WIDTH = VLP_ASYNC_PLATEN.WIDTH# + ( 254*EXTWID ) ;

  20184  4 000144   000104 236000 3                  LDQ     VLP_ASYNC_PLATEN
         4 000145   000033 772000                    QRL     27
         4 000146   000377 376007                    ANQ     255,DL
         4 000147   200010 756100                    STQ     EXTWID+1,,AUTO
         4 000150   200007 236100                    LDQ     EXTWID,,AUTO
         4 000151   000376 402007                    MPY     254,DL
         4 000152   200010 036100                    ADLQ    EXTWID+1,,AUTO
         4 000153   000022 736000                    QLS     18
         4 000154   000000 552020 2                  STBQ    PRO_HDR,'20'O

      486    20185    1   PRO_HDR.LINES = VLP_ASYNC_PLATEN.LENGTH# ;

  20185  4 000155   000104 220000 3                  LDX0    VLP_ASYNC_PLATEN
         4 000156   000377 360003                    ANX0    255,DU
         4 000157   000000 440000 2                  SXL0    PRO_HDR

      487    20186    1   PRO_HDR.ATTR.GRLGL = %NO# ;

  20186  4 000160   000001 236000 5                  LDQ     1
         4 000161   000001 356000 2                  ANSQ    PRO_HDR+1

      488    20187    1   PRO_HDR.ATTR.TRANSLGL = %NO# ;

  20187  4 000162   000002 236000 5                  LDQ     2
         4 000163   000001 356000 2                  ANSQ    PRO_HDR+1

      489    20188    1   PRO_HDR.ATTR.NOXLATE = %NO# ;

  20188  4 000164   000003 236000 5                  LDQ     3
PL6.E3A0      #001=ASD$BUILD_PRO File=ASD$BUILD_PRO.:E05TSI                      TUE 07/29/97 09:44 Page:91
         4 000165   000001 356000 2                  ANSQ    PRO_HDR+1

      490    20189    1   PRO_HDR.ATTR.UPPERCASE = %YES#;

  20189  4 000166   000040 236003                    LDQ     32,DU
         4 000167   000001 256000 2                  ORSQ    PRO_HDR+1

      491    20190    1   PRO_HDR.ATTR.NATL = %NO# ;

  20190  4 000170   000004 236000 5                  LDQ     4
         4 000171   000001 356000 2                  ANSQ    PRO_HDR+1

      492    20191    1   PRO_HDR.ATTR.TRUOVRPRT = VLP_ASYNC_TRMATTR.TRUOVRPRT# ;

  20191  4 000172   000034 236000 3                  LDQ     VLP_ASYNC_TRMATTR
         4 000173   000016 736000                    QLS     14
         4 000174   000001 676000 2                  ERQ     PRO_HDR+1
         4 000175   000010 376003                    ANQ     8,DU
         4 000176   000001 656000 2                  ERSQ    PRO_HDR+1

      493    20192    1   PRO_HDR.ATTR.APL = VLP_ASYNC_TRMATTR.APL# ;

  20192  4 000177   000034 236000 3                  LDQ     VLP_ASYNC_TRMATTR
         4 000200   000017 736000                    QLS     15
         4 000201   000001 676000 2                  ERQ     PRO_HDR+1
         4 000202   000004 376003                    ANQ     4,DU
         4 000203   000001 656000 2                  ERSQ    PRO_HDR+1

      494    20193    1   PRO_HDR.ATTR.BIN = %NO# ;

  20193  4 000204   000005 236000 5                  LDQ     5
         4 000205   000001 356000 2                  ANSQ    PRO_HDR+1

      495    20194    1   PRO_HDR.ATTR.LCASE = VLP_ASYNC_TRMATTR.LOWERCASEPRINTS# ;

  20194  4 000206   000034 236000 3                  LDQ     VLP_ASYNC_TRMATTR
         4 000207   000021 736000                    QLS     17
PL6.E3A0      #001=ASD$BUILD_PRO File=ASD$BUILD_PRO.:E05TSI                      TUE 07/29/97 09:44 Page:92
         4 000210   000001 676000 2                  ERQ     PRO_HDR+1
         4 000211   000001 376003                    ANQ     1,DU
         4 000212   000001 656000 2                  ERSQ    PRO_HDR+1

      496    20195    1   PRO_HDR.IO.INPUT = %YES# ;

  20195  4 000213   400000 236007                    LDQ     -131072,DL
         4 000214   000001 256000 2                  ORSQ    PRO_HDR+1

      497    20196    1   PRO_HDR.IO.OUTPUT = %YES# ;

  20196  4 000215   200000 236007                    LDQ     65536,DL
         4 000216   000001 256000 2                  ORSQ    PRO_HDR+1

      498    20197    1   PRO_HDR.DDEV.LP = %YES# ;

  20197  4 000217   000400 236007                    LDQ     256,DL
         4 000220   000001 256000 2                  ORSQ    PRO_HDR+1

      499    20198    1   PRO_HDR.DDEV.CP = %NO# ;

  20198  4 000221   000006 236000 5                  LDQ     6
         4 000222   000001 356000 2                  ANSQ    PRO_HDR+1

      500    20199    1   PRO_HDR.DDEV.IC = %YES# ;

  20199  4 000223   000100 236007                    LDQ     64,DL
         4 000224   000001 256000 2                  ORSQ    PRO_HDR+1

      501    20200    1   PRO_HDR.DDEV.GRAPHICS_OK = %NO#;

  20200  4 000225   000007 236000 5                  LDQ     7
         4 000226   000001 356000 2                  ANSQ    PRO_HDR+1

      502    20201                                                              /*   Mover header.   */
      503    20202    1   PP$ -> PRO$HDR = PRO_HDR ;

PL6.E3A0      #001=ASD$BUILD_PRO File=ASD$BUILD_PRO.:E05TSI                      TUE 07/29/97 09:44 Page:93
  20202  4 000227   000601 471400 2                  LDP1    PP$
         4 000230   000100 100400                    MLR     fill='000'O
         4 000231   000000 000120 2                  ADSC9   PRO_HDR                  cn=0,n=80
         4 000232   100000 000120                    ADSC9   0,,PR1                   cn=0,n=80

      504    20203    1   PP$ = PINCRW( PP$, SIZEW( PRO_HDR ) ) ;

  20203  4 000233   000601 236000 2                  LDQ     PP$
         4 000234   000024 036003                    ADLQ    20,DU
         4 000235   000601 756000 2                  STQ     PP$

      505    20204                                                              /*  Profile name   */
      506    20205        %MOVE_VLP( S_VLP = VLP_ASYNC_PNAME ,
      507    20206        B$VLP = VLP$PNAME ,
      508    20207        T_TYPE = %KV_PRMID_PROFILE ) ;
             20208        %LSET LISTDIR='0'B;

             20211    1   PP$ -> PP$STRCT.TYPE = 3 ;

  20211  4 000236   000601 471400 2                  LDP1    PP$
         4 000237   003100 061400                    CSR     bolr='003'O
         4 000240   000005 000044 xsym               BDSC    B_VECTNIL+5              by=0,bit=0,n=36
         4 000241   100000 000011                    BDSC    0,,PR1                   by=0,bit=0,n=9

             20212    1   SIZE = LENGTHC( VLP_ASYNC_PNAME ) ;

  20212  4 000242   000014 235007                    LDA     12,DL
         4 000243   000600 755000 2                  STA     SIZE

             20213    1   PP$ -> PP$STRCT.SIZE = SIZE ;

  20213  4 000244   003100 061400                    CSR     bolr='003'O
         4 000245   000600 000044 2                  BDSC    SIZE                     by=0,bit=0,n=36
         4 000246   100000 200011                    BDSC    0,,PR1                   by=1,bit=0,n=9

             20214    1   PP$ = PINCRC( PP$, 2 ) ;

PL6.E3A0      #001=ASD$BUILD_PRO File=ASD$BUILD_PRO.:E05TSI                      TUE 07/29/97 09:44 Page:94
  20214  4 000247   400000 036007                    ADLQ    -131072,DL
         4 000250   000601 756000 2                  STQ     PP$

             20215    1   PP$ -> VLP$PNAME = VLP_ASYNC_PNAME ;

  20215  4 000251   000601 471400 2                  LDP1    PP$
         4 000252   000100 101500                    MRL     fill='000'O
         4 000253   100000 000001                    ADSC9   0,,PR1                   cn=0,n=1
         4 000254   200010 000002                    ADSC9   EXTWID+1,,AUTO           cn=0,n=2
         4 000255   200010 221100                    LDX1    EXTWID+1,,AUTO
         4 000256   000001 622011                    EAX2    1,X1
         4 000257   000140 100400                    MLR     fill='000'O
         4 000260   000000 000014 3                  ADSC9   VLP_ASYNC_PNAME          cn=0,n=12
         4 000261   100000 000012                    ADSC9   0,,PR1                   cn=0,n=*X2

             20216    1   PP$ = PINCRC( PP$, SIZE ) ;

  20216  4 000262   000600 236000 2                  LDQ     SIZE
         4 000263   000020 736000                    QLS     16
         4 000264   000601 036000 2                  ADLQ    PP$
         4 000265   000601 756000 2                  STQ     PP$

      509    20218                                                              /*   Term. Attr.   */
      510    20219        %MOVE_VLP( S_VLP = VLP_ASYNC_TRMATTR ,
      511    20220        B$VLP= VLP$TRMATTR ,
      512    20221        T_TYPE = %KV_PRMID_TRMATTR ) ;
             20222        %LSET LISTDIR='0'B;

             20225    1   PP$ -> PP$STRCT.TYPE = 7 ;

  20225  4 000266   000601 471400 2                  LDP1    PP$
         4 000267   003100 061400                    CSR     bolr='003'O
         4 000270   000011 000044 xsym               BDSC    B_VECTNIL+9              by=0,bit=0,n=36
         4 000271   100000 000011                    BDSC    0,,PR1                   by=0,bit=0,n=9

             20226    1   SIZE = LENGTHC( VLP_ASYNC_TRMATTR ) ;

PL6.E3A0      #001=ASD$BUILD_PRO File=ASD$BUILD_PRO.:E05TSI                      TUE 07/29/97 09:44 Page:95
  20226  4 000272   000050 235007                    LDA     40,DL
         4 000273   000600 755000 2                  STA     SIZE

             20227    1   PP$ -> PP$STRCT.SIZE = SIZE ;

  20227  4 000274   003100 061400                    CSR     bolr='003'O
         4 000275   000600 000044 2                  BDSC    SIZE                     by=0,bit=0,n=36
         4 000276   100000 200011                    BDSC    0,,PR1                   by=1,bit=0,n=9

             20228    1   PP$ = PINCRC( PP$, 2 ) ;

  20228  4 000277   400000 036007                    ADLQ    -131072,DL
         4 000300   000601 756000 2                  STQ     PP$

             20229    1   PP$ -> VLP$TRMATTR = VLP_ASYNC_TRMATTR ;

  20229  4 000301   000601 471400 2                  LDP1    PP$
         4 000302   000100 100400                    MLR     fill='000'O
         4 000303   000034 000050 3                  ADSC9   VLP_ASYNC_TRMATTR        cn=0,n=40
         4 000304   100000 000050                    ADSC9   0,,PR1                   cn=0,n=40

             20230    1   PP$ = PINCRC( PP$, SIZE ) ;

  20230  4 000305   000600 236000 2                  LDQ     SIZE
         4 000306   000020 736000                    QLS     16
         4 000307   000601 036000 2                  ADLQ    PP$
         4 000310   000601 756000 2                  STQ     PP$

      513    20232                                                              /*  Term. Control.   */
      514    20233        %MOVE_VLP( S_VLP = VLP_ASYNC_TRMCTL ,
      515    20234        B$VLP = VLP$TRMCTL ,
      516    20235        T_TYPE = %KV_PRMID_TRMCTL ) ;
             20236        %LSET LISTDIR='0'B;

             20239    1   PP$ -> PP$STRCT.TYPE = 4 ;

  20239  4 000311   000601 471400 2                  LDP1    PP$
PL6.E3A0      #001=ASD$BUILD_PRO File=ASD$BUILD_PRO.:E05TSI                      TUE 07/29/97 09:44 Page:96
         4 000312   003100 061400                    CSR     bolr='003'O
         4 000313   000006 000044 xsym               BDSC    B_VECTNIL+6              by=0,bit=0,n=36
         4 000314   100000 000011                    BDSC    0,,PR1                   by=0,bit=0,n=9

             20240    1   SIZE = LENGTHC( VLP_ASYNC_TRMCTL ) ;

  20240  4 000315   000020 235007                    LDA     16,DL
         4 000316   000600 755000 2                  STA     SIZE

             20241    1   PP$ -> PP$STRCT.SIZE = SIZE ;

  20241  4 000317   003100 061400                    CSR     bolr='003'O
         4 000320   000600 000044 2                  BDSC    SIZE                     by=0,bit=0,n=36
         4 000321   100000 200011                    BDSC    0,,PR1                   by=1,bit=0,n=9

             20242    1   PP$ = PINCRC( PP$, 2 ) ;

  20242  4 000322   400000 036007                    ADLQ    -131072,DL
         4 000323   000601 756000 2                  STQ     PP$

             20243    1   PP$ -> VLP$TRMCTL = VLP_ASYNC_TRMCTL ;

  20243  4 000324   000601 471400 2                  LDP1    PP$
         4 000325   003100 060400                    CSL     bolr='003'O
         4 000326   000602 000220 2                  BDSC    VLP_ASYNC_TRMCTL         by=0,bit=0,n=144
         4 000327   100000 000220                    BDSC    0,,PR1                   by=0,bit=0,n=144

             20244    1   PP$ = PINCRC( PP$, SIZE ) ;

  20244  4 000330   000600 236000 2                  LDQ     SIZE
         4 000331   000020 736000                    QLS     16
         4 000332   000601 036000 2                  ADLQ    PP$
         4 000333   000601 756000 2                  STQ     PP$

      517    20246                                                              /*   Platen   */
      518    20247        %MOVE_VLP( S_VLP = VLP_ASYNC_PLATEN ,
      519    20248        B$VLP = VLP$PLATEN ,
PL6.E3A0      #001=ASD$BUILD_PRO File=ASD$BUILD_PRO.:E05TSI                      TUE 07/29/97 09:44 Page:97
      520    20249        T_TYPE = %KV_PRMID_PLATEN ) ;
             20250        %LSET LISTDIR='0'B;

             20253    1   PP$ -> PP$STRCT.TYPE = 8 ;

  20253  4 000334   000601 471400 2                  LDP1    PP$
         4 000335   003100 061400                    CSR     bolr='003'O
         4 000336   000012 000044 xsym               BDSC    B_VECTNIL+10             by=0,bit=0,n=36
         4 000337   100000 000011                    BDSC    0,,PR1                   by=0,bit=0,n=9

             20254    1   SIZE = LENGTHC( VLP_ASYNC_PLATEN ) ;

  20254  4 000340   000600 755000 2                  STA     SIZE

             20255    1   PP$ -> PP$STRCT.SIZE = SIZE ;

  20255  4 000341   003100 061400                    CSR     bolr='003'O
         4 000342   000600 000044 2                  BDSC    SIZE                     by=0,bit=0,n=36
         4 000343   100000 200011                    BDSC    0,,PR1                   by=1,bit=0,n=9

             20256    1   PP$ = PINCRC( PP$, 2 ) ;

  20256  4 000344   400000 036007                    ADLQ    -131072,DL
         4 000345   000601 756000 2                  STQ     PP$

             20257    1   PP$ -> VLP$PLATEN = VLP_ASYNC_PLATEN ;

  20257  4 000346   000601 471400 2                  LDP1    PP$
         4 000347   003100 060400                    CSL     bolr='003'O
         4 000350   000104 000220 3                  BDSC    VLP_ASYNC_PLATEN         by=0,bit=0,n=144
         4 000351   100000 000220                    BDSC    0,,PR1                   by=0,bit=0,n=144

             20258    1   PP$ = PINCRC( PP$, SIZE ) ;

  20258  4 000352   000600 236000 2                  LDQ     SIZE
         4 000353   000020 736000                    QLS     16
         4 000354   000601 036000 2                  ADLQ    PP$
PL6.E3A0      #001=ASD$BUILD_PRO File=ASD$BUILD_PRO.:E05TSI                      TUE 07/29/97 09:44 Page:98
         4 000355   000601 756000 2                  STQ     PP$

      521    20260                                                              /*   Device tabs.   */
      522    20261        %MOVE_VLP( S_VLP = VLP_ASYNC_TAB ,
      523    20262        B$VLP = VLP$TAB ,
      524    20263        T_TYPE = %KV_PRMID_TRMTAB ) ;
             20264        %LSET LISTDIR='0'B;

             20267    1   PP$ -> PP$STRCT.TYPE = 9 ;

  20267  4 000356   000601 471400 2                  LDP1    PP$
         4 000357   003100 061400                    CSR     bolr='003'O
         4 000360   000013 000044 xsym               BDSC    B_VECTNIL+11             by=0,bit=0,n=36
         4 000361   100000 000011                    BDSC    0,,PR1                   by=0,bit=0,n=9

             20268    1   SIZE = LENGTHC( VLP_ASYNC_TAB ) ;

  20268  4 000362   000040 235007                    LDA     32,DL
         4 000363   000600 755000 2                  STA     SIZE

             20269    1   PP$ -> PP$STRCT.SIZE = SIZE ;

  20269  4 000364   003100 061400                    CSR     bolr='003'O
         4 000365   000600 000044 2                  BDSC    SIZE                     by=0,bit=0,n=36
         4 000366   100000 200011                    BDSC    0,,PR1                   by=1,bit=0,n=9

             20270    1   PP$ = PINCRC( PP$, 2 ) ;

  20270  4 000367   400000 036007                    ADLQ    -131072,DL
         4 000370   000601 756000 2                  STQ     PP$

             20271    1   PP$ -> VLP$TAB = VLP_ASYNC_TAB ;

  20271  4 000371   000601 471400 2                  LDP1    PP$
         4 000372   000100 100400                    MLR     fill='000'O
         4 000373   000622 000040 2                  ADSC9   VLP_ASYNC_TAB            cn=0,n=32
         4 000374   100000 000040                    ADSC9   0,,PR1                   cn=0,n=32
PL6.E3A0      #001=ASD$BUILD_PRO File=ASD$BUILD_PRO.:E05TSI                      TUE 07/29/97 09:44 Page:99

             20272    1   PP$ = PINCRC( PP$, SIZE ) ;

  20272  4 000375   000600 236000 2                  LDQ     SIZE
         4 000376   000020 736000                    QLS     16
         4 000377   000601 036000 2                  ADLQ    PP$
         4 000400   000601 756000 2                  STQ     PP$

      525    20274                                                              /*  3270  */
      526    20275        %MOVE_VLP( S_VLP=VLP_ASYNC_3270, B$VLP=VLP$3270, T_TYPE=%KV_PRMID_3270 );
             20276        %LSET LISTDIR='0'B;

             20279    1   PP$ -> PP$STRCT.TYPE = 25 ;

  20279  4 000401   000601 471400 2                  LDP1    PP$
         4 000402   003100 061400                    CSR     bolr='003'O
         4 000403   000010 000044 5                  BDSC    8                        by=0,bit=0,n=36
         4 000404   100000 000011                    BDSC    0,,PR1                   by=0,bit=0,n=9

             20280    1   SIZE = LENGTHC( VLP_ASYNC_3270 ) ;

  20280  4 000405   000004 235007                    LDA     4,DL
         4 000406   000600 755000 2                  STA     SIZE

             20281    1   PP$ -> PP$STRCT.SIZE = SIZE ;

  20281  4 000407   003100 061400                    CSR     bolr='003'O
         4 000410   000600 000044 2                  BDSC    SIZE                     by=0,bit=0,n=36
         4 000411   100000 200011                    BDSC    0,,PR1                   by=1,bit=0,n=9

             20282    1   PP$ = PINCRC( PP$, 2 ) ;

  20282  4 000412   400000 036007                    ADLQ    -131072,DL
         4 000413   000601 756000 2                  STQ     PP$

             20283    1   PP$ -> VLP$3270 = VLP_ASYNC_3270 ;

PL6.E3A0      #001=ASD$BUILD_PRO File=ASD$BUILD_PRO.:E05TSI                      TUE 07/29/97 09:44 Page:100
  20283  4 000414   000601 471400 2                  LDP1    PP$
         4 000415   003100 060400                    CSL     bolr='003'O
         4 000416   000171 000044 3                  BDSC    VLP_ASYNC_3270           by=0,bit=0,n=36
         4 000417   100000 000044                    BDSC    0,,PR1                   by=0,bit=0,n=36

             20284    1   PP$ = PINCRC( PP$, SIZE ) ;

  20284  4 000420   000600 236000 2                  LDQ     SIZE
         4 000421   000020 736000                    QLS     16
         4 000422   000601 036000 2                  ADLQ    PP$
         4 000423   000601 756000 2                  STQ     PP$

      527    20286                                                              /* ABSGRPRND_? */
      528    20287        %MOVE_VLP( S_VLP=VLP_ABSGRPRND_EMPHASIS, B$VLP=VLP$ABSGRPRND, T_TYPE=
             20287            %KV_PRMID_ABSGRPRND );
             20288        %LSET LISTDIR='0'B;

             20291    1   PP$ -> PP$STRCT.TYPE = 26 ;

  20291  4 000424   000601 471400 2                  LDP1    PP$
         4 000425   003100 061400                    CSR     bolr='003'O
         4 000426   000011 000044 5                  BDSC    9                        by=0,bit=0,n=36
         4 000427   100000 000011                    BDSC    0,,PR1                   by=0,bit=0,n=9

             20292    1   SIZE = LENGTHC( VLP_ABSGRPRND_EMPHASIS ) ;

  20292  4 000430   000600 755000 2                  STA     SIZE

             20293    1   PP$ -> PP$STRCT.SIZE = SIZE ;

  20293  4 000431   003100 061400                    CSR     bolr='003'O
         4 000432   000600 000044 2                  BDSC    SIZE                     by=0,bit=0,n=36
         4 000433   100000 200011                    BDSC    0,,PR1                   by=1,bit=0,n=9

             20294    1   PP$ = PINCRC( PP$, 2 ) ;

  20294  4 000434   400000 036007                    ADLQ    -131072,DL
PL6.E3A0      #001=ASD$BUILD_PRO File=ASD$BUILD_PRO.:E05TSI                      TUE 07/29/97 09:44 Page:101
         4 000435   000601 756000 2                  STQ     PP$

             20295    1   PP$ -> VLP$ABSGRPRND = VLP_ABSGRPRND_EMPHASIS ;

  20295  4 000436   000601 471400 2                  LDP1    PP$
         4 000437   003100 060400                    CSL     bolr='003'O
         4 000440   000173 000044 3                  BDSC    VLP_ABSGRPRND_EMPHASIS   by=0,bit=0,n=36
         4 000441   100000 000044                    BDSC    0,,PR1                   by=0,bit=0,n=36

             20296    1   PP$ = PINCRC( PP$, SIZE ) ;

  20296  4 000442   000600 236000 2                  LDQ     SIZE
         4 000443   000020 736000                    QLS     16
         4 000444   000601 036000 2                  ADLQ    PP$
         4 000445   000601 756000 2                  STQ     PP$

      529    20298        %MOVE_VLP( S_VLP=VLP_ABSGRPRND_ERROR, B$VLP=VLP$ABSGRPRND, T_TYPE=
             20298            %KV_PRMID_ABSGRPRND );
             20299        %LSET LISTDIR='0'B;

             20302    1   PP$ -> PP$STRCT.TYPE = 26 ;

  20302  4 000446   000601 471400 2                  LDP1    PP$
         4 000447   003100 061400                    CSR     bolr='003'O
         4 000450   000011 000044 5                  BDSC    9                        by=0,bit=0,n=36
         4 000451   100000 000011                    BDSC    0,,PR1                   by=0,bit=0,n=9

             20303    1   SIZE = LENGTHC( VLP_ABSGRPRND_ERROR ) ;

  20303  4 000452   000600 755000 2                  STA     SIZE

             20304    1   PP$ -> PP$STRCT.SIZE = SIZE ;

  20304  4 000453   003100 061400                    CSR     bolr='003'O
         4 000454   000600 000044 2                  BDSC    SIZE                     by=0,bit=0,n=36
         4 000455   100000 200011                    BDSC    0,,PR1                   by=1,bit=0,n=9

PL6.E3A0      #001=ASD$BUILD_PRO File=ASD$BUILD_PRO.:E05TSI                      TUE 07/29/97 09:44 Page:102
             20305    1   PP$ = PINCRC( PP$, 2 ) ;

  20305  4 000456   400000 036007                    ADLQ    -131072,DL
         4 000457   000601 756000 2                  STQ     PP$

             20306    1   PP$ -> VLP$ABSGRPRND = VLP_ABSGRPRND_ERROR ;

  20306  4 000460   000601 471400 2                  LDP1    PP$
         4 000461   003100 060400                    CSL     bolr='003'O
         4 000462   000174 000044 3                  BDSC    VLP_ABSGRPRND_ERROR      by=0,bit=0,n=36
         4 000463   100000 000044                    BDSC    0,,PR1                   by=0,bit=0,n=36

             20307    1   PP$ = PINCRC( PP$, SIZE ) ;

  20307  4 000464   000600 236000 2                  LDQ     SIZE
         4 000465   000020 736000                    QLS     16
         4 000466   000601 036000 2                  ADLQ    PP$
         4 000467   000601 756000 2                  STQ     PP$

      530    20309        %MOVE_VLP( S_VLP=VLP_ABSGRPRND_HIDDEN, B$VLP=VLP$ABSGRPRND, T_TYPE=
             20309            %KV_PRMID_ABSGRPRND );
             20310        %LSET LISTDIR='0'B;

             20313    1   PP$ -> PP$STRCT.TYPE = 26 ;

  20313  4 000470   000601 471400 2                  LDP1    PP$
         4 000471   003100 061400                    CSR     bolr='003'O
         4 000472   000011 000044 5                  BDSC    9                        by=0,bit=0,n=36
         4 000473   100000 000011                    BDSC    0,,PR1                   by=0,bit=0,n=9

             20314    1   SIZE = LENGTHC( VLP_ABSGRPRND_HIDDEN ) ;

  20314  4 000474   000600 755000 2                  STA     SIZE

             20315    1   PP$ -> PP$STRCT.SIZE = SIZE ;

  20315  4 000475   003100 061400                    CSR     bolr='003'O
PL6.E3A0      #001=ASD$BUILD_PRO File=ASD$BUILD_PRO.:E05TSI                      TUE 07/29/97 09:44 Page:103
         4 000476   000600 000044 2                  BDSC    SIZE                     by=0,bit=0,n=36
         4 000477   100000 200011                    BDSC    0,,PR1                   by=1,bit=0,n=9

             20316    1   PP$ = PINCRC( PP$, 2 ) ;

  20316  4 000500   400000 036007                    ADLQ    -131072,DL
         4 000501   000601 756000 2                  STQ     PP$

             20317    1   PP$ -> VLP$ABSGRPRND = VLP_ABSGRPRND_HIDDEN ;

  20317  4 000502   000601 471400 2                  LDP1    PP$
         4 000503   003100 060400                    CSL     bolr='003'O
         4 000504   000175 000044 3                  BDSC    VLP_ABSGRPRND_HIDDEN     by=0,bit=0,n=36
         4 000505   100000 000044                    BDSC    0,,PR1                   by=0,bit=0,n=36

             20318    1   PP$ = PINCRC( PP$, SIZE ) ;

  20318  4 000506   000600 236000 2                  LDQ     SIZE
         4 000507   000020 736000                    QLS     16
         4 000510   000601 036000 2                  ADLQ    PP$
         4 000511   000601 756000 2                  STQ     PP$

      531    20320        %MOVE_VLP( S_VLP=VLP_ABSGRPRND_INPUT, B$VLP=VLP$ABSGRPRND, T_TYPE=
             20320            %KV_PRMID_ABSGRPRND );
             20321        %LSET LISTDIR='0'B;

             20324    1   PP$ -> PP$STRCT.TYPE = 26 ;

  20324  4 000512   000601 471400 2                  LDP1    PP$
         4 000513   003100 061400                    CSR     bolr='003'O
         4 000514   000011 000044 5                  BDSC    9                        by=0,bit=0,n=36
         4 000515   100000 000011                    BDSC    0,,PR1                   by=0,bit=0,n=9

             20325    1   SIZE = LENGTHC( VLP_ABSGRPRND_INPUT ) ;

  20325  4 000516   000600 755000 2                  STA     SIZE

PL6.E3A0      #001=ASD$BUILD_PRO File=ASD$BUILD_PRO.:E05TSI                      TUE 07/29/97 09:44 Page:104
             20326    1   PP$ -> PP$STRCT.SIZE = SIZE ;

  20326  4 000517   003100 061400                    CSR     bolr='003'O
         4 000520   000600 000044 2                  BDSC    SIZE                     by=0,bit=0,n=36
         4 000521   100000 200011                    BDSC    0,,PR1                   by=1,bit=0,n=9

             20327    1   PP$ = PINCRC( PP$, 2 ) ;

  20327  4 000522   400000 036007                    ADLQ    -131072,DL
         4 000523   000601 756000 2                  STQ     PP$

             20328    1   PP$ -> VLP$ABSGRPRND = VLP_ABSGRPRND_INPUT ;

  20328  4 000524   000601 471400 2                  LDP1    PP$
         4 000525   003100 060400                    CSL     bolr='003'O
         4 000526   000176 000044 3                  BDSC    VLP_ABSGRPRND_INPUT      by=0,bit=0,n=36
         4 000527   100000 000044                    BDSC    0,,PR1                   by=0,bit=0,n=36

             20329    1   PP$ = PINCRC( PP$, SIZE ) ;

  20329  4 000530   000600 236000 2                  LDQ     SIZE
         4 000531   000020 736000                    QLS     16
         4 000532   000601 036000 2                  ADLQ    PP$
         4 000533   000601 756000 2                  STQ     PP$

      532    20331        %MOVE_VLP( S_VLP=VLP_ABSGRPRND_NULL, B$VLP=VLP$ABSGRPRND, T_TYPE=
             20331            %KV_PRMID_ABSGRPRND );
             20332        %LSET LISTDIR='0'B;

             20335    1   PP$ -> PP$STRCT.TYPE = 26 ;

  20335  4 000534   000601 471400 2                  LDP1    PP$
         4 000535   003100 061400                    CSR     bolr='003'O
         4 000536   000011 000044 5                  BDSC    9                        by=0,bit=0,n=36
         4 000537   100000 000011                    BDSC    0,,PR1                   by=0,bit=0,n=9

             20336    1   SIZE = LENGTHC( VLP_ABSGRPRND_NULL ) ;
PL6.E3A0      #001=ASD$BUILD_PRO File=ASD$BUILD_PRO.:E05TSI                      TUE 07/29/97 09:44 Page:105

  20336  4 000540   000600 755000 2                  STA     SIZE

             20337    1   PP$ -> PP$STRCT.SIZE = SIZE ;

  20337  4 000541   003100 061400                    CSR     bolr='003'O
         4 000542   000600 000044 2                  BDSC    SIZE                     by=0,bit=0,n=36
         4 000543   100000 200011                    BDSC    0,,PR1                   by=1,bit=0,n=9

             20338    1   PP$ = PINCRC( PP$, 2 ) ;

  20338  4 000544   400000 036007                    ADLQ    -131072,DL
         4 000545   000601 756000 2                  STQ     PP$

             20339    1   PP$ -> VLP$ABSGRPRND = VLP_ABSGRPRND_NULL ;

  20339  4 000546   000601 471400 2                  LDP1    PP$
         4 000547   003100 060400                    CSL     bolr='003'O
         4 000550   000177 000044 3                  BDSC    VLP_ABSGRPRND_NULL       by=0,bit=0,n=36
         4 000551   100000 000044                    BDSC    0,,PR1                   by=0,bit=0,n=36

             20340    1   PP$ = PINCRC( PP$, SIZE ) ;

  20340  4 000552   000600 236000 2                  LDQ     SIZE
         4 000553   000020 736000                    QLS     16
         4 000554   000601 036000 2                  ADLQ    PP$
         4 000555   000601 756000 2                  STQ     PP$

      533    20342        %MOVE_VLP( S_VLP=VLP_ABSGRPRND_OUTPUT, B$VLP=VLP$ABSGRPRND, T_TYPE=
             20342            %KV_PRMID_ABSGRPRND );
             20343        %LSET LISTDIR='0'B;

             20346    1   PP$ -> PP$STRCT.TYPE = 26 ;

  20346  4 000556   000601 471400 2                  LDP1    PP$
         4 000557   003100 061400                    CSR     bolr='003'O
         4 000560   000011 000044 5                  BDSC    9                        by=0,bit=0,n=36
PL6.E3A0      #001=ASD$BUILD_PRO File=ASD$BUILD_PRO.:E05TSI                      TUE 07/29/97 09:44 Page:106
         4 000561   100000 000011                    BDSC    0,,PR1                   by=0,bit=0,n=9

             20347    1   SIZE = LENGTHC( VLP_ABSGRPRND_OUTPUT ) ;

  20347  4 000562   000600 755000 2                  STA     SIZE

             20348    1   PP$ -> PP$STRCT.SIZE = SIZE ;

  20348  4 000563   003100 061400                    CSR     bolr='003'O
         4 000564   000600 000044 2                  BDSC    SIZE                     by=0,bit=0,n=36
         4 000565   100000 200011                    BDSC    0,,PR1                   by=1,bit=0,n=9

             20349    1   PP$ = PINCRC( PP$, 2 ) ;

  20349  4 000566   400000 036007                    ADLQ    -131072,DL
         4 000567   000601 756000 2                  STQ     PP$

             20350    1   PP$ -> VLP$ABSGRPRND = VLP_ABSGRPRND_OUTPUT ;

  20350  4 000570   000601 471400 2                  LDP1    PP$
         4 000571   003100 060400                    CSL     bolr='003'O
         4 000572   000200 000044 3                  BDSC    VLP_ABSGRPRND_OUTPUT     by=0,bit=0,n=36
         4 000573   100000 000044                    BDSC    0,,PR1                   by=0,bit=0,n=36

             20351    1   PP$ = PINCRC( PP$, SIZE ) ;

  20351  4 000574   000600 236000 2                  LDQ     SIZE
         4 000575   000020 736000                    QLS     16
         4 000576   000601 036000 2                  ADLQ    PP$
         4 000577   000601 756000 2                  STQ     PP$

      534    20353        %MOVE_VLP( S_VLP=VLP_ABSGRPRND_WARNING, B$VLP=VLP$ABSGRPRND, T_TYPE=
             20353            %KV_PRMID_ABSGRPRND );
             20354        %LSET LISTDIR='0'B;

             20357    1   PP$ -> PP$STRCT.TYPE = 26 ;

PL6.E3A0      #001=ASD$BUILD_PRO File=ASD$BUILD_PRO.:E05TSI                      TUE 07/29/97 09:44 Page:107
  20357  4 000600   000601 471400 2                  LDP1    PP$
         4 000601   003100 061400                    CSR     bolr='003'O
         4 000602   000011 000044 5                  BDSC    9                        by=0,bit=0,n=36
         4 000603   100000 000011                    BDSC    0,,PR1                   by=0,bit=0,n=9

             20358    1   SIZE = LENGTHC( VLP_ABSGRPRND_WARNING ) ;

  20358  4 000604   000600 755000 2                  STA     SIZE

             20359    1   PP$ -> PP$STRCT.SIZE = SIZE ;

  20359  4 000605   003100 061400                    CSR     bolr='003'O
         4 000606   000600 000044 2                  BDSC    SIZE                     by=0,bit=0,n=36
         4 000607   100000 200011                    BDSC    0,,PR1                   by=1,bit=0,n=9

             20360    1   PP$ = PINCRC( PP$, 2 ) ;

  20360  4 000610   400000 036007                    ADLQ    -131072,DL
         4 000611   000601 756000 2                  STQ     PP$

             20361    1   PP$ -> VLP$ABSGRPRND = VLP_ABSGRPRND_WARNING ;

  20361  4 000612   000601 471400 2                  LDP1    PP$
         4 000613   003100 060400                    CSL     bolr='003'O
         4 000614   000201 000044 3                  BDSC    VLP_ABSGRPRND_WARNING    by=0,bit=0,n=36
         4 000615   100000 000044                    BDSC    0,,PR1                   by=0,bit=0,n=36

             20362    1   PP$ = PINCRC( PP$, SIZE ) ;

  20362  4 000616   000600 236000 2                  LDQ     SIZE
         4 000617   000020 736000                    QLS     16
         4 000620   000601 036000 2                  ADLQ    PP$
         4 000621   000601 756000 2                  STQ     PP$

      535    20364                                               /* Function key defs */
      536    20365        %MOVE_VLP( S_VLP = VLP_ASYNC_FUNKEY ,
      537    20366        B$VLP = VLP$FUNKEY,
PL6.E3A0      #001=ASD$BUILD_PRO File=ASD$BUILD_PRO.:E05TSI                      TUE 07/29/97 09:44 Page:108
      538    20367        T_TYPE = %KV_PRMID_KEYDEFS ) ;
             20368        %LSET LISTDIR='0'B;

             20371    1   PP$ -> PP$STRCT.TYPE = 24 ;

  20371  4 000622   000601 471400 2                  LDP1    PP$
         4 000623   003100 061400                    CSR     bolr='003'O
         4 000624   000012 000044 5                  BDSC    10                       by=0,bit=0,n=36
         4 000625   100000 000011                    BDSC    0,,PR1                   by=0,bit=0,n=9

             20372    1   SIZE = LENGTHC( VLP_ASYNC_FUNKEY ) ;

  20372  4 000626   000020 235007                    LDA     16,DL
         4 000627   000600 755000 2                  STA     SIZE

             20373    1   PP$ -> PP$STRCT.SIZE = SIZE ;

  20373  4 000630   003100 061400                    CSR     bolr='003'O
         4 000631   000600 000044 2                  BDSC    SIZE                     by=0,bit=0,n=36
         4 000632   100000 200011                    BDSC    0,,PR1                   by=1,bit=0,n=9

             20374    1   PP$ = PINCRC( PP$, 2 ) ;

  20374  4 000633   400000 036007                    ADLQ    -131072,DL
         4 000634   000601 756000 2                  STQ     PP$

             20375    1   PP$ -> VLP$FUNKEY = VLP_ASYNC_FUNKEY ;

  20375  4 000635   000601 471400 2                  LDP1    PP$
         4 000636   000100 100400                    MLR     fill='000'O
         4 000637   000202 000020 3                  ADSC9   VLP_ASYNC_FUNKEY         cn=0,n=16
         4 000640   100000 000020                    ADSC9   0,,PR1                   cn=0,n=16

             20376    1   PP$ = PINCRC( PP$, SIZE ) ;

  20376  4 000641   000600 236000 2                  LDQ     SIZE
         4 000642   000020 736000                    QLS     16
PL6.E3A0      #001=ASD$BUILD_PRO File=ASD$BUILD_PRO.:E05TSI                      TUE 07/29/97 09:44 Page:109
         4 000643   000601 036000 2                  ADLQ    PP$
         4 000644   000601 756000 2                  STQ     PP$

      539    20378                                               /* Setup_chr struct */
      540    20379    1   SIZE = LENGTHC (VLP_ASYNC_SETUP_CHR);

  20379  4 000645   000002 235007                    LDA     2,DL
         4 000646   000600 755000 2                  STA     SIZE

      541    20380    1   PP$ -> VLP$SETUP_CHR = VLP_ASYNC_SETUP_CHR;

  20380  4 000647   000601 471400 2                  LDP1    PP$
         4 000650   003100 060400                    CSL     bolr='003'O
         4 000651   000206 000022 3                  BDSC    VLP_ASYNC_SETUP_CHR      by=0,bit=0,n=18
         4 000652   100000 000022                    BDSC    0,,PR1                   by=0,bit=0,n=18

      542    20381    1   PP$ = PINCRC (PP$, SIZE);

  20381  4 000653   000600 236000 2                  LDQ     SIZE
         4 000654   000020 736000                    QLS     16
         4 000655   000601 036000 2                  ADLQ    PP$
         4 000656   000601 756000 2                  STQ     PP$

      543    20382                                                              /* Timing algorhythm */
      544    20383                                                              /* Control character */
      545    20384        %MOVE_VLP( S_VLP = VLP_ASYNC_CCHR ,
      546    20385        B$VLP = VLP$CCHR ,
      547    20386        T_TYPE = %KV_PRMID_CTRCHR ) ;
             20387        %LSET LISTDIR='0'B;

             20390    1   PP$ -> PP$STRCT.TYPE = 15 ;

  20390  4 000657   000601 471400 2                  LDP1    PP$
         4 000660   003100 061400                    CSR     bolr='003'O
         4 000661   000013 000044 5                  BDSC    11                       by=0,bit=0,n=36
         4 000662   100000 000011                    BDSC    0,,PR1                   by=0,bit=0,n=9

PL6.E3A0      #001=ASD$BUILD_PRO File=ASD$BUILD_PRO.:E05TSI                      TUE 07/29/97 09:44 Page:110
             20391    1   SIZE = LENGTHC( VLP_ASYNC_CCHR ) ;

  20391  4 000663   000123 235007                    LDA     83,DL
         4 000664   000600 755000 2                  STA     SIZE

             20392    1   PP$ -> PP$STRCT.SIZE = SIZE ;

  20392  4 000665   003100 061400                    CSR     bolr='003'O
         4 000666   000600 000044 2                  BDSC    SIZE                     by=0,bit=0,n=36
         4 000667   100000 200011                    BDSC    0,,PR1                   by=1,bit=0,n=9

             20393    1   PP$ = PINCRC( PP$, 2 ) ;

  20393  4 000670   400000 036007                    ADLQ    -131072,DL
         4 000671   000601 756000 2                  STQ     PP$

             20394    1   PP$ -> VLP$CCHR = VLP_ASYNC_CCHR ;

  20394  4 000672   000601 471400 2                  LDP1    PP$
         4 000673   000100 100400                    MLR     fill='000'O
         4 000674   000124 000123 3                  ADSC9   VLP_ASYNC_CCHR           cn=0,n=83
         4 000675   100000 000123                    ADSC9   0,,PR1                   cn=0,n=83

             20395    1   PP$ = PINCRC( PP$, SIZE ) ;

  20395  4 000676   000600 236000 2                  LDQ     SIZE
         4 000677   000020 736000                    QLS     16
         4 000700   000601 036000 2                  ADLQ    PP$
         4 000701   000601 756000 2                  STQ     PP$

      548    20397                                                           /*   Get actual record size.  */
      549    20398    1   P_ARS = POFFC( PP$, ADDR(PRO_BUF) ) ;

  20398  4 000702   200003 236100                    LDQ     @PRO_BUF,,AUTO
         4 000703   000020 772000                    QRL     16
         4 000704   200010 756100                    STQ     EXTWID+1,,AUTO
         4 000705   000601 236000 2                  LDQ     PP$
PL6.E3A0      #001=ASD$BUILD_PRO File=ASD$BUILD_PRO.:E05TSI                      TUE 07/29/97 09:44 Page:111
         4 000706   000020 772000                    QRL     16
         4 000707   200010 136100                    SBLQ    EXTWID+1,,AUTO
         4 000710   200004 471500                    LDP1    @P_ARS,,AUTO
         4 000711   100000 756100                    STQ     0,,PR1

      550    20399    1   PRO_KEY = VLP_ASYNC_PNAME ;

  20399  4 000712   000000 100400                    MLR     fill='000'O
         4 000713   000000 000014 3                  ADSC9   VLP_ASYNC_PNAME          cn=0,n=12
         4 000714   000572 000014 2                  ADSC9   PRO_KEY                  cn=0,n=12

      551    20400
      552    20401    1   CALL ASD$WRITE_PRO( PRO_KEY, PRO_BUF, P_ARS-1 ) ;

  20401  4 000715   100000 235100                    LDA     0,,PR1
         4 000716   000001 135007                    SBLA    1,DL
         4 000717   200010 755100                    STA     EXTWID+1,,AUTO
         4 000720   200010 633500                    EPPR3   EXTWID+1,,AUTO
         4 000721   200013 453500                    STP3    EXTWID+4,,AUTO
         4 000722   200003 236100                    LDQ     @PRO_BUF,,AUTO
         4 000723   200012 756100                    STQ     EXTWID+3,,AUTO
         4 000724   000014 236000 5                  LDQ     12
         4 000725   200011 756100                    STQ     EXTWID+2,,AUTO
         4 000726   200011 630500                    EPPR0   EXTWID+2,,AUTO
         4 000727   000021 631400 xsym               EPPR1   B_VECTNIL+17
         4 000730   000000 701000 xent               TSX1    ASD$WRITE_PRO
         4 000731   000000 011000                    NOP     0

      553    20402    1   PRO_KEY = VLP_GRAPHICFILE_PNAME ;

  20402  4 000732   000000 100400                    MLR     fill='000'O
         4 000733   000003 000014 3                  ADSC9   VLP_GRAPHICFILE_PNAME    cn=0,n=12
         4 000734   000572 000014 2                  ADSC9   PRO_KEY                  cn=0,n=12

      554    20403    1   ADDR(PRO_BUF) -> PRO$HDR.DDEV.GRAPHICS_OK = %YES#;

  20403  4 000735   200003 470500                    LDP0    @PRO_BUF,,AUTO
PL6.E3A0      #001=ASD$BUILD_PRO File=ASD$BUILD_PRO.:E05TSI                      TUE 07/29/97 09:44 Page:112
         4 000736   003100 060400                    CSL     bolr='003'O
         4 000737   000030 000001 xsym               BDSC    B_VECTNIL+24             by=0,bit=0,n=1
         4 000740   000001 630001                    BDSC    1,,PR0                   by=3,bit=3,n=1

      555    20404
      556    20405    1   CALL ASD$WRITE_PRO( PRO_KEY, PRO_BUF, P_ARS-1 ) ;

  20405  4 000741   200004 471500                    LDP1    @P_ARS,,AUTO
         4 000742   100000 235100                    LDA     0,,PR1
         4 000743   000001 135007                    SBLA    1,DL
         4 000744   200010 755100                    STA     EXTWID+1,,AUTO
         4 000745   200010 633500                    EPPR3   EXTWID+1,,AUTO
         4 000746   200013 453500                    STP3    EXTWID+4,,AUTO
         4 000747   200003 236100                    LDQ     @PRO_BUF,,AUTO
         4 000750   200012 756100                    STQ     EXTWID+3,,AUTO
         4 000751   000014 236000 5                  LDQ     12
         4 000752   200011 756100                    STQ     EXTWID+2,,AUTO
         4 000753   200011 630500                    EPPR0   EXTWID+2,,AUTO
         4 000754   000021 631400 xsym               EPPR1   B_VECTNIL+17
         4 000755   000000 701000 xent               TSX1    ASD$WRITE_PRO
         4 000756   000000 011000                    NOP     0

      557    20406    1   RETURN;

  20406  4 000757   000000 702200 xent               TSX2  ! X66_ARET

      558    20407
      559    20408
      560    20409    1   ASD$BUILD_$3270: ENTRY( PRO_BUF, P_ARS );

  20409  4 000760   000000 700200 xent  ASD$BUILD_$* TSX0  ! X66_AUTO_2
         4 000761   000014 000002                    ZERO    12,2

      561    20410
      562    20411
      563    20412                                                              /* Set up $3270. */
      564    20413    1   PRO_BUF = AS_BLANK ;
PL6.E3A0      #001=ASD$BUILD_PRO File=ASD$BUILD_PRO.:E05TSI                      TUE 07/29/97 09:44 Page:113

  20413  4 000762   200003 470500                    LDP0    @PRO_BUF,,AUTO
         4 000763   040100 100400                    MLR     fill='040'O
         4 000764   000000 000001 xsym               ADSC9   AS_BLANK                 cn=0,n=1
         4 000765   000000 002000                    ADSC9   0,,PR0                   cn=0,n=1024

      565    20414    1   PP$ = ADDR( PRO_BUF ) ;

  20414  4 000766   200003 236100                    LDQ     @PRO_BUF,,AUTO
         4 000767   000601 756000 2                  STQ     PP$

      566    20415                                                              /*   Set up header.   */
      567    20416    1   PRO_HDR.TTYP = %KLTY_LINEDEV#;

  20416  4 000770   012000 236003                    LDQ     5120,DU
         4 000771   000000 552040 2                  STBQ    PRO_HDR,'40'O

      568    20417                                                            /*   Check for extra width.  */
      569    20418    1   IF VLP_3270_PLATEN.EXTWID# = %YES# THEN

  20418  4 000772   000111 430000 3                  FSZN    VLP_3270_PLATEN+1
         4 000773   000777 605000 4                  TPL     s:20421

      570    20419    1      EXTWID = 1 ;

  20419  4 000774   000001 235007                    LDA     1,DL
         4 000775   200007 755100                    STA     EXTWID,,AUTO
         4 000776   001000 710000 4                  TRA     s:20422

      571    20420    1   ELSE
      572    20421    1      EXTWID = 0 ;

  20421  4 000777   200007 450100                    STZ     EXTWID,,AUTO

      573    20422    1   PRO_HDR.WIDTH = VLP_3270_PLATEN.WIDTH# + ( 254*EXTWID ) ;

  20422  4 001000   000110 236000 3                  LDQ     VLP_3270_PLATEN
PL6.E3A0      #001=ASD$BUILD_PRO File=ASD$BUILD_PRO.:E05TSI                      TUE 07/29/97 09:44 Page:114
         4 001001   000033 772000                    QRL     27
         4 001002   000377 376007                    ANQ     255,DL
         4 001003   200010 756100                    STQ     EXTWID+1,,AUTO
         4 001004   200007 236100                    LDQ     EXTWID,,AUTO
         4 001005   000376 402007                    MPY     254,DL
         4 001006   200010 036100                    ADLQ    EXTWID+1,,AUTO
         4 001007   000022 736000                    QLS     18
         4 001010   000000 552020 2                  STBQ    PRO_HDR,'20'O

      574    20423    1   PRO_HDR.LINES = VLP_3270_PLATEN.LENGTH# ;

  20423  4 001011   000110 220000 3                  LDX0    VLP_3270_PLATEN
         4 001012   000377 360003                    ANX0    255,DU
         4 001013   000000 440000 2                  SXL0    PRO_HDR

      575    20424    1   PRO_HDR.ATTR.GRLGL = %NO# ;

  20424  4 001014   000001 236000 5                  LDQ     1
         4 001015   000001 356000 2                  ANSQ    PRO_HDR+1

      576    20425    1   PRO_HDR.ATTR.TRANSLGL = %NO# ;

  20425  4 001016   000002 236000 5                  LDQ     2
         4 001017   000001 356000 2                  ANSQ    PRO_HDR+1

      577    20426    1   PRO_HDR.ATTR.NOXLATE = %NO# ;

  20426  4 001020   000003 236000 5                  LDQ     3
         4 001021   000001 356000 2                  ANSQ    PRO_HDR+1

      578    20427    1   PRO_HDR.ATTR.UPPERCASE = %YES#;

  20427  4 001022   000040 236003                    LDQ     32,DU
         4 001023   000001 256000 2                  ORSQ    PRO_HDR+1

      579    20428    1   PRO_HDR.ATTR.NATL = %NO# ;

PL6.E3A0      #001=ASD$BUILD_PRO File=ASD$BUILD_PRO.:E05TSI                      TUE 07/29/97 09:44 Page:115
  20428  4 001024   000004 236000 5                  LDQ     4
         4 001025   000001 356000 2                  ANSQ    PRO_HDR+1

      580    20429    1   PRO_HDR.ATTR.TRUOVRPRT = VLP_3270_TRMATTR.TRUOVRPRT# ;

  20429  4 001026   000046 236000 3                  LDQ     VLP_3270_TRMATTR
         4 001027   000016 736000                    QLS     14
         4 001030   000001 676000 2                  ERQ     PRO_HDR+1
         4 001031   000010 376003                    ANQ     8,DU
         4 001032   000001 656000 2                  ERSQ    PRO_HDR+1

      581    20430    1   PRO_HDR.ATTR.APL = VLP_3270_TRMATTR.APL# ;

  20430  4 001033   000046 236000 3                  LDQ     VLP_3270_TRMATTR
         4 001034   000017 736000                    QLS     15
         4 001035   000001 676000 2                  ERQ     PRO_HDR+1
         4 001036   000004 376003                    ANQ     4,DU
         4 001037   000001 656000 2                  ERSQ    PRO_HDR+1

      582    20431    1   PRO_HDR.ATTR.BIN = %NO# ;

  20431  4 001040   000005 236000 5                  LDQ     5
         4 001041   000001 356000 2                  ANSQ    PRO_HDR+1

      583    20432    1   PRO_HDR.ATTR.LCASE = VLP_3270_TRMATTR.LOWERCASEPRINTS# ;

  20432  4 001042   000046 236000 3                  LDQ     VLP_3270_TRMATTR
         4 001043   000021 736000                    QLS     17
         4 001044   000001 676000 2                  ERQ     PRO_HDR+1
         4 001045   000001 376003                    ANQ     1,DU
         4 001046   000001 656000 2                  ERSQ    PRO_HDR+1

      584    20433    1   PRO_HDR.IO.INPUT = %YES# ;

  20433  4 001047   400000 236007                    LDQ     -131072,DL
         4 001050   000001 256000 2                  ORSQ    PRO_HDR+1

PL6.E3A0      #001=ASD$BUILD_PRO File=ASD$BUILD_PRO.:E05TSI                      TUE 07/29/97 09:44 Page:116
      585    20434    1   PRO_HDR.IO.OUTPUT = %YES# ;

  20434  4 001051   200000 236007                    LDQ     65536,DL
         4 001052   000001 256000 2                  ORSQ    PRO_HDR+1

      586    20435    1   PRO_HDR.DDEV.LP = %YES# ;

  20435  4 001053   000400 236007                    LDQ     256,DL
         4 001054   000001 256000 2                  ORSQ    PRO_HDR+1

      587    20436    1   PRO_HDR.DDEV.CP = %NO# ;

  20436  4 001055   000006 236000 5                  LDQ     6
         4 001056   000001 356000 2                  ANSQ    PRO_HDR+1

      588    20437    1   PRO_HDR.DDEV.IC = %YES# ;

  20437  4 001057   000100 236007                    LDQ     64,DL
         4 001060   000001 256000 2                  ORSQ    PRO_HDR+1

      589    20438    1   PRO_HDR.DDEV.GRAPHICS_OK = %NO#;

  20438  4 001061   000007 236000 5                  LDQ     7
         4 001062   000001 356000 2                  ANSQ    PRO_HDR+1

      590    20439                                                              /*   Mover header.   */
      591    20440    1   PP$ -> PRO$HDR = PRO_HDR ;

  20440  4 001063   000601 471400 2                  LDP1    PP$
         4 001064   000100 100400                    MLR     fill='000'O
         4 001065   000000 000120 2                  ADSC9   PRO_HDR                  cn=0,n=80
         4 001066   100000 000120                    ADSC9   0,,PR1                   cn=0,n=80

      592    20441    1   PP$ = PINCRW( PP$, SIZEW( PRO_HDR ) ) ;

  20441  4 001067   000601 236000 2                  LDQ     PP$
         4 001070   000024 036003                    ADLQ    20,DU
PL6.E3A0      #001=ASD$BUILD_PRO File=ASD$BUILD_PRO.:E05TSI                      TUE 07/29/97 09:44 Page:117
         4 001071   000601 756000 2                  STQ     PP$

      593    20442                                                              /*  Profile name   */
      594    20443        %MOVE_VLP( S_VLP = VLP_3270_PNAME ,
      595    20444        B$VLP = VLP$PNAME ,
      596    20445        T_TYPE = %KV_PRMID_PROFILE ) ;
             20446        %LSET LISTDIR='0'B;

             20449    1   PP$ -> PP$STRCT.TYPE = 3 ;

  20449  4 001072   000601 471400 2                  LDP1    PP$
         4 001073   003100 061400                    CSR     bolr='003'O
         4 001074   000005 000044 xsym               BDSC    B_VECTNIL+5              by=0,bit=0,n=36
         4 001075   100000 000011                    BDSC    0,,PR1                   by=0,bit=0,n=9

             20450    1   SIZE = LENGTHC( VLP_3270_PNAME ) ;

  20450  4 001076   000014 235007                    LDA     12,DL
         4 001077   000600 755000 2                  STA     SIZE

             20451    1   PP$ -> PP$STRCT.SIZE = SIZE ;

  20451  4 001100   003100 061400                    CSR     bolr='003'O
         4 001101   000600 000044 2                  BDSC    SIZE                     by=0,bit=0,n=36
         4 001102   100000 200011                    BDSC    0,,PR1                   by=1,bit=0,n=9

             20452    1   PP$ = PINCRC( PP$, 2 ) ;

  20452  4 001103   400000 036007                    ADLQ    -131072,DL
         4 001104   000601 756000 2                  STQ     PP$

             20453    1   PP$ -> VLP$PNAME = VLP_3270_PNAME ;

  20453  4 001105   000601 471400 2                  LDP1    PP$
         4 001106   000100 101500                    MRL     fill='000'O
         4 001107   100000 000001                    ADSC9   0,,PR1                   cn=0,n=1
         4 001110   200010 000002                    ADSC9   EXTWID+1,,AUTO           cn=0,n=2
PL6.E3A0      #001=ASD$BUILD_PRO File=ASD$BUILD_PRO.:E05TSI                      TUE 07/29/97 09:44 Page:118
         4 001111   200010 221100                    LDX1    EXTWID+1,,AUTO
         4 001112   000001 622011                    EAX2    1,X1
         4 001113   000140 100400                    MLR     fill='000'O
         4 001114   000006 000014 3                  ADSC9   VLP_3270_PNAME           cn=0,n=12
         4 001115   100000 000012                    ADSC9   0,,PR1                   cn=0,n=*X2

             20454    1   PP$ = PINCRC( PP$, SIZE ) ;

  20454  4 001116   000600 236000 2                  LDQ     SIZE
         4 001117   000020 736000                    QLS     16
         4 001120   000601 036000 2                  ADLQ    PP$
         4 001121   000601 756000 2                  STQ     PP$

      597    20456                                                              /*  Term. Control.   */
      598    20457        %MOVE_VLP( S_VLP = VLP_3270_TRMCTL ,
      599    20458        B$VLP = VLP$TRMCTL ,
      600    20459        T_TYPE = %KV_PRMID_TRMCTL ) ;
             20460        %LSET LISTDIR='0'B;

             20463    1   PP$ -> PP$STRCT.TYPE = 4 ;

  20463  4 001122   000601 471400 2                  LDP1    PP$
         4 001123   003100 061400                    CSR     bolr='003'O
         4 001124   000006 000044 xsym               BDSC    B_VECTNIL+6              by=0,bit=0,n=36
         4 001125   100000 000011                    BDSC    0,,PR1                   by=0,bit=0,n=9

             20464    1   SIZE = LENGTHC( VLP_3270_TRMCTL ) ;

  20464  4 001126   000020 235007                    LDA     16,DL
         4 001127   000600 755000 2                  STA     SIZE

             20465    1   PP$ -> PP$STRCT.SIZE = SIZE ;

  20465  4 001130   003100 061400                    CSR     bolr='003'O
         4 001131   000600 000044 2                  BDSC    SIZE                     by=0,bit=0,n=36
         4 001132   100000 200011                    BDSC    0,,PR1                   by=1,bit=0,n=9

PL6.E3A0      #001=ASD$BUILD_PRO File=ASD$BUILD_PRO.:E05TSI                      TUE 07/29/97 09:44 Page:119
             20466    1   PP$ = PINCRC( PP$, 2 ) ;

  20466  4 001133   400000 036007                    ADLQ    -131072,DL
         4 001134   000601 756000 2                  STQ     PP$

             20467    1   PP$ -> VLP$TRMCTL = VLP_3270_TRMCTL ;

  20467  4 001135   000601 471400 2                  LDP1    PP$
         4 001136   003100 060400                    CSL     bolr='003'O
         4 001137   000606 000220 2                  BDSC    VLP_3270_TRMCTL          by=0,bit=0,n=144
         4 001140   100000 000220                    BDSC    0,,PR1                   by=0,bit=0,n=144

             20468    1   PP$ = PINCRC( PP$, SIZE ) ;

  20468  4 001141   000600 236000 2                  LDQ     SIZE
         4 001142   000020 736000                    QLS     16
         4 001143   000601 036000 2                  ADLQ    PP$
         4 001144   000601 756000 2                  STQ     PP$

      601    20470                                                              /*   Term. Attr.   */
      602    20471        %MOVE_VLP( S_VLP = VLP_3270_TRMATTR ,
      603    20472        B$VLP= VLP$TRMATTR ,
      604    20473        T_TYPE = %KV_PRMID_TRMATTR ) ;
             20474        %LSET LISTDIR='0'B;

             20477    1   PP$ -> PP$STRCT.TYPE = 7 ;

  20477  4 001145   000601 471400 2                  LDP1    PP$
         4 001146   003100 061400                    CSR     bolr='003'O
         4 001147   000011 000044 xsym               BDSC    B_VECTNIL+9              by=0,bit=0,n=36
         4 001150   100000 000011                    BDSC    0,,PR1                   by=0,bit=0,n=9

             20478    1   SIZE = LENGTHC( VLP_3270_TRMATTR ) ;

  20478  4 001151   000050 235007                    LDA     40,DL
         4 001152   000600 755000 2                  STA     SIZE

PL6.E3A0      #001=ASD$BUILD_PRO File=ASD$BUILD_PRO.:E05TSI                      TUE 07/29/97 09:44 Page:120
             20479    1   PP$ -> PP$STRCT.SIZE = SIZE ;

  20479  4 001153   003100 061400                    CSR     bolr='003'O
         4 001154   000600 000044 2                  BDSC    SIZE                     by=0,bit=0,n=36
         4 001155   100000 200011                    BDSC    0,,PR1                   by=1,bit=0,n=9

             20480    1   PP$ = PINCRC( PP$, 2 ) ;

  20480  4 001156   400000 036007                    ADLQ    -131072,DL
         4 001157   000601 756000 2                  STQ     PP$

             20481    1   PP$ -> VLP$TRMATTR = VLP_3270_TRMATTR ;

  20481  4 001160   000601 471400 2                  LDP1    PP$
         4 001161   000100 100400                    MLR     fill='000'O
         4 001162   000046 000050 3                  ADSC9   VLP_3270_TRMATTR         cn=0,n=40
         4 001163   100000 000050                    ADSC9   0,,PR1                   cn=0,n=40

             20482    1   PP$ = PINCRC( PP$, SIZE ) ;

  20482  4 001164   000600 236000 2                  LDQ     SIZE
         4 001165   000020 736000                    QLS     16
         4 001166   000601 036000 2                  ADLQ    PP$
         4 001167   000601 756000 2                  STQ     PP$

      605    20484                                                              /*   Platen   */
      606    20485        %MOVE_VLP( S_VLP = VLP_3270_PLATEN ,
      607    20486        B$VLP = VLP$PLATEN ,
      608    20487        T_TYPE = %KV_PRMID_PLATEN ) ;
             20488        %LSET LISTDIR='0'B;

             20491    1   PP$ -> PP$STRCT.TYPE = 8 ;

  20491  4 001170   000601 471400 2                  LDP1    PP$
         4 001171   003100 061400                    CSR     bolr='003'O
         4 001172   000012 000044 xsym               BDSC    B_VECTNIL+10             by=0,bit=0,n=36
         4 001173   100000 000011                    BDSC    0,,PR1                   by=0,bit=0,n=9
PL6.E3A0      #001=ASD$BUILD_PRO File=ASD$BUILD_PRO.:E05TSI                      TUE 07/29/97 09:44 Page:121

             20492    1   SIZE = LENGTHC( VLP_3270_PLATEN ) ;

  20492  4 001174   000020 235007                    LDA     16,DL
         4 001175   000600 755000 2                  STA     SIZE

             20493    1   PP$ -> PP$STRCT.SIZE = SIZE ;

  20493  4 001176   003100 061400                    CSR     bolr='003'O
         4 001177   000600 000044 2                  BDSC    SIZE                     by=0,bit=0,n=36
         4 001200   100000 200011                    BDSC    0,,PR1                   by=1,bit=0,n=9

             20494    1   PP$ = PINCRC( PP$, 2 ) ;

  20494  4 001201   400000 036007                    ADLQ    -131072,DL
         4 001202   000601 756000 2                  STQ     PP$

             20495    1   PP$ -> VLP$PLATEN = VLP_3270_PLATEN ;

  20495  4 001203   000601 471400 2                  LDP1    PP$
         4 001204   003100 060400                    CSL     bolr='003'O
         4 001205   000110 000220 3                  BDSC    VLP_3270_PLATEN          by=0,bit=0,n=144
         4 001206   100000 000220                    BDSC    0,,PR1                   by=0,bit=0,n=144

             20496    1   PP$ = PINCRC( PP$, SIZE ) ;

  20496  4 001207   000600 236000 2                  LDQ     SIZE
         4 001210   000020 736000                    QLS     16
         4 001211   000601 036000 2                  ADLQ    PP$
         4 001212   000601 756000 2                  STQ     PP$

      609    20498                                                              /*   Device tabs.   */
      610    20499        %MOVE_VLP( S_VLP = VLP_3270_TAB ,
      611    20500        B$VLP = VLP$TAB ,
      612    20501        T_TYPE = %KV_PRMID_TRMTAB ) ;
             20502        %LSET LISTDIR='0'B;

PL6.E3A0      #001=ASD$BUILD_PRO File=ASD$BUILD_PRO.:E05TSI                      TUE 07/29/97 09:44 Page:122
             20505    1   PP$ -> PP$STRCT.TYPE = 9 ;

  20505  4 001213   000601 471400 2                  LDP1    PP$
         4 001214   003100 061400                    CSR     bolr='003'O
         4 001215   000013 000044 xsym               BDSC    B_VECTNIL+11             by=0,bit=0,n=36
         4 001216   100000 000011                    BDSC    0,,PR1                   by=0,bit=0,n=9

             20506    1   SIZE = LENGTHC( VLP_3270_TAB ) ;

  20506  4 001217   000040 235007                    LDA     32,DL
         4 001220   000600 755000 2                  STA     SIZE

             20507    1   PP$ -> PP$STRCT.SIZE = SIZE ;

  20507  4 001221   003100 061400                    CSR     bolr='003'O
         4 001222   000600 000044 2                  BDSC    SIZE                     by=0,bit=0,n=36
         4 001223   100000 200011                    BDSC    0,,PR1                   by=1,bit=0,n=9

             20508    1   PP$ = PINCRC( PP$, 2 ) ;

  20508  4 001224   400000 036007                    ADLQ    -131072,DL
         4 001225   000601 756000 2                  STQ     PP$

             20509    1   PP$ -> VLP$TAB = VLP_3270_TAB ;

  20509  4 001226   000601 471400 2                  LDP1    PP$
         4 001227   000100 100400                    MLR     fill='000'O
         4 001230   000632 000040 2                  ADSC9   VLP_3270_TAB             cn=0,n=32
         4 001231   100000 000040                    ADSC9   0,,PR1                   cn=0,n=32

             20510    1   PP$ = PINCRC( PP$, SIZE ) ;

  20510  4 001232   000600 236000 2                  LDQ     SIZE
         4 001233   000020 736000                    QLS     16
         4 001234   000601 036000 2                  ADLQ    PP$
         4 001235   000601 756000 2                  STQ     PP$

PL6.E3A0      #001=ASD$BUILD_PRO File=ASD$BUILD_PRO.:E05TSI                      TUE 07/29/97 09:44 Page:123
      613    20512                                                              /*  3270  */
      614    20513        %MOVE_VLP( S_VLP=VLP_3270_3270, B$VLP=VLP$3270, T_TYPE=%KV_PRMID_3270 );
             20514        %LSET LISTDIR='0'B;

             20517    1   PP$ -> PP$STRCT.TYPE = 25 ;

  20517  4 001236   000601 471400 2                  LDP1    PP$
         4 001237   003100 061400                    CSR     bolr='003'O
         4 001240   000010 000044 5                  BDSC    8                        by=0,bit=0,n=36
         4 001241   100000 000011                    BDSC    0,,PR1                   by=0,bit=0,n=9

             20518    1   SIZE = LENGTHC( VLP_3270_3270 ) ;

  20518  4 001242   000004 235007                    LDA     4,DL
         4 001243   000600 755000 2                  STA     SIZE

             20519    1   PP$ -> PP$STRCT.SIZE = SIZE ;

  20519  4 001244   003100 061400                    CSR     bolr='003'O
         4 001245   000600 000044 2                  BDSC    SIZE                     by=0,bit=0,n=36
         4 001246   100000 200011                    BDSC    0,,PR1                   by=1,bit=0,n=9

             20520    1   PP$ = PINCRC( PP$, 2 ) ;

  20520  4 001247   400000 036007                    ADLQ    -131072,DL
         4 001250   000601 756000 2                  STQ     PP$

             20521    1   PP$ -> VLP$3270 = VLP_3270_3270 ;

  20521  4 001251   000601 471400 2                  LDP1    PP$
         4 001252   003100 060400                    CSL     bolr='003'O
         4 001253   000172 000044 3                  BDSC    VLP_3270_3270            by=0,bit=0,n=36
         4 001254   100000 000044                    BDSC    0,,PR1                   by=0,bit=0,n=36

             20522    1   PP$ = PINCRC( PP$, SIZE ) ;

  20522  4 001255   000600 236000 2                  LDQ     SIZE
PL6.E3A0      #001=ASD$BUILD_PRO File=ASD$BUILD_PRO.:E05TSI                      TUE 07/29/97 09:44 Page:124
         4 001256   000020 736000                    QLS     16
         4 001257   000601 036000 2                  ADLQ    PP$
         4 001260   000601 756000 2                  STQ     PP$

      615    20524                                                              /* ABSGRPRND_? */
      616    20525        %MOVE_VLP( S_VLP=VLP_ABSGRPRND_EMPHASIS, B$VLP=VLP$ABSGRPRND, T_TYPE=
             20525            %KV_PRMID_ABSGRPRND );
             20526        %LSET LISTDIR='0'B;

             20529    1   PP$ -> PP$STRCT.TYPE = 26 ;

  20529  4 001261   000601 471400 2                  LDP1    PP$
         4 001262   003100 061400                    CSR     bolr='003'O
         4 001263   000011 000044 5                  BDSC    9                        by=0,bit=0,n=36
         4 001264   100000 000011                    BDSC    0,,PR1                   by=0,bit=0,n=9

             20530    1   SIZE = LENGTHC( VLP_ABSGRPRND_EMPHASIS ) ;

  20530  4 001265   000600 755000 2                  STA     SIZE

             20531    1   PP$ -> PP$STRCT.SIZE = SIZE ;

  20531  4 001266   003100 061400                    CSR     bolr='003'O
         4 001267   000600 000044 2                  BDSC    SIZE                     by=0,bit=0,n=36
         4 001270   100000 200011                    BDSC    0,,PR1                   by=1,bit=0,n=9

             20532    1   PP$ = PINCRC( PP$, 2 ) ;

  20532  4 001271   400000 036007                    ADLQ    -131072,DL
         4 001272   000601 756000 2                  STQ     PP$

             20533    1   PP$ -> VLP$ABSGRPRND = VLP_ABSGRPRND_EMPHASIS ;

  20533  4 001273   000601 471400 2                  LDP1    PP$
         4 001274   003100 060400                    CSL     bolr='003'O
         4 001275   000173 000044 3                  BDSC    VLP_ABSGRPRND_EMPHASIS   by=0,bit=0,n=36
         4 001276   100000 000044                    BDSC    0,,PR1                   by=0,bit=0,n=36
PL6.E3A0      #001=ASD$BUILD_PRO File=ASD$BUILD_PRO.:E05TSI                      TUE 07/29/97 09:44 Page:125

             20534    1   PP$ = PINCRC( PP$, SIZE ) ;

  20534  4 001277   000600 236000 2                  LDQ     SIZE
         4 001300   000020 736000                    QLS     16
         4 001301   000601 036000 2                  ADLQ    PP$
         4 001302   000601 756000 2                  STQ     PP$

      617    20536        %MOVE_VLP( S_VLP=VLP_ABSGRPRND_ERROR, B$VLP=VLP$ABSGRPRND, T_TYPE=
             20536            %KV_PRMID_ABSGRPRND );
             20537        %LSET LISTDIR='0'B;

             20540    1   PP$ -> PP$STRCT.TYPE = 26 ;

  20540  4 001303   000601 471400 2                  LDP1    PP$
         4 001304   003100 061400                    CSR     bolr='003'O
         4 001305   000011 000044 5                  BDSC    9                        by=0,bit=0,n=36
         4 001306   100000 000011                    BDSC    0,,PR1                   by=0,bit=0,n=9

             20541    1   SIZE = LENGTHC( VLP_ABSGRPRND_ERROR ) ;

  20541  4 001307   000600 755000 2                  STA     SIZE

             20542    1   PP$ -> PP$STRCT.SIZE = SIZE ;

  20542  4 001310   003100 061400                    CSR     bolr='003'O
         4 001311   000600 000044 2                  BDSC    SIZE                     by=0,bit=0,n=36
         4 001312   100000 200011                    BDSC    0,,PR1                   by=1,bit=0,n=9

             20543    1   PP$ = PINCRC( PP$, 2 ) ;

  20543  4 001313   400000 036007                    ADLQ    -131072,DL
         4 001314   000601 756000 2                  STQ     PP$

             20544    1   PP$ -> VLP$ABSGRPRND = VLP_ABSGRPRND_ERROR ;

  20544  4 001315   000601 471400 2                  LDP1    PP$
PL6.E3A0      #001=ASD$BUILD_PRO File=ASD$BUILD_PRO.:E05TSI                      TUE 07/29/97 09:44 Page:126
         4 001316   003100 060400                    CSL     bolr='003'O
         4 001317   000174 000044 3                  BDSC    VLP_ABSGRPRND_ERROR      by=0,bit=0,n=36
         4 001320   100000 000044                    BDSC    0,,PR1                   by=0,bit=0,n=36

             20545    1   PP$ = PINCRC( PP$, SIZE ) ;

  20545  4 001321   000600 236000 2                  LDQ     SIZE
         4 001322   000020 736000                    QLS     16
         4 001323   000601 036000 2                  ADLQ    PP$
         4 001324   000601 756000 2                  STQ     PP$

      618    20547        %MOVE_VLP( S_VLP=VLP_ABSGRPRND_HIDDEN, B$VLP=VLP$ABSGRPRND, T_TYPE=
             20547            %KV_PRMID_ABSGRPRND );
             20548        %LSET LISTDIR='0'B;

             20551    1   PP$ -> PP$STRCT.TYPE = 26 ;

  20551  4 001325   000601 471400 2                  LDP1    PP$
         4 001326   003100 061400                    CSR     bolr='003'O
         4 001327   000011 000044 5                  BDSC    9                        by=0,bit=0,n=36
         4 001330   100000 000011                    BDSC    0,,PR1                   by=0,bit=0,n=9

             20552    1   SIZE = LENGTHC( VLP_ABSGRPRND_HIDDEN ) ;

  20552  4 001331   000600 755000 2                  STA     SIZE

             20553    1   PP$ -> PP$STRCT.SIZE = SIZE ;

  20553  4 001332   003100 061400                    CSR     bolr='003'O
         4 001333   000600 000044 2                  BDSC    SIZE                     by=0,bit=0,n=36
         4 001334   100000 200011                    BDSC    0,,PR1                   by=1,bit=0,n=9

             20554    1   PP$ = PINCRC( PP$, 2 ) ;

  20554  4 001335   400000 036007                    ADLQ    -131072,DL
         4 001336   000601 756000 2                  STQ     PP$

PL6.E3A0      #001=ASD$BUILD_PRO File=ASD$BUILD_PRO.:E05TSI                      TUE 07/29/97 09:44 Page:127
             20555    1   PP$ -> VLP$ABSGRPRND = VLP_ABSGRPRND_HIDDEN ;

  20555  4 001337   000601 471400 2                  LDP1    PP$
         4 001340   003100 060400                    CSL     bolr='003'O
         4 001341   000175 000044 3                  BDSC    VLP_ABSGRPRND_HIDDEN     by=0,bit=0,n=36
         4 001342   100000 000044                    BDSC    0,,PR1                   by=0,bit=0,n=36

             20556    1   PP$ = PINCRC( PP$, SIZE ) ;

  20556  4 001343   000600 236000 2                  LDQ     SIZE
         4 001344   000020 736000                    QLS     16
         4 001345   000601 036000 2                  ADLQ    PP$
         4 001346   000601 756000 2                  STQ     PP$

      619    20558        %MOVE_VLP( S_VLP=VLP_ABSGRPRND_INPUT, B$VLP=VLP$ABSGRPRND, T_TYPE=
             20558            %KV_PRMID_ABSGRPRND );
             20559        %LSET LISTDIR='0'B;

             20562    1   PP$ -> PP$STRCT.TYPE = 26 ;

  20562  4 001347   000601 471400 2                  LDP1    PP$
         4 001350   003100 061400                    CSR     bolr='003'O
         4 001351   000011 000044 5                  BDSC    9                        by=0,bit=0,n=36
         4 001352   100000 000011                    BDSC    0,,PR1                   by=0,bit=0,n=9

             20563    1   SIZE = LENGTHC( VLP_ABSGRPRND_INPUT ) ;

  20563  4 001353   000600 755000 2                  STA     SIZE

             20564    1   PP$ -> PP$STRCT.SIZE = SIZE ;

  20564  4 001354   003100 061400                    CSR     bolr='003'O
         4 001355   000600 000044 2                  BDSC    SIZE                     by=0,bit=0,n=36
         4 001356   100000 200011                    BDSC    0,,PR1                   by=1,bit=0,n=9

             20565    1   PP$ = PINCRC( PP$, 2 ) ;

PL6.E3A0      #001=ASD$BUILD_PRO File=ASD$BUILD_PRO.:E05TSI                      TUE 07/29/97 09:44 Page:128
  20565  4 001357   400000 036007                    ADLQ    -131072,DL
         4 001360   000601 756000 2                  STQ     PP$

             20566    1   PP$ -> VLP$ABSGRPRND = VLP_ABSGRPRND_INPUT ;

  20566  4 001361   000601 471400 2                  LDP1    PP$
         4 001362   003100 060400                    CSL     bolr='003'O
         4 001363   000176 000044 3                  BDSC    VLP_ABSGRPRND_INPUT      by=0,bit=0,n=36
         4 001364   100000 000044                    BDSC    0,,PR1                   by=0,bit=0,n=36

             20567    1   PP$ = PINCRC( PP$, SIZE ) ;

  20567  4 001365   000600 236000 2                  LDQ     SIZE
         4 001366   000020 736000                    QLS     16
         4 001367   000601 036000 2                  ADLQ    PP$
         4 001370   000601 756000 2                  STQ     PP$

      620    20569        %MOVE_VLP( S_VLP=VLP_ABSGRPRND_NULL, B$VLP=VLP$ABSGRPRND, T_TYPE=
             20569            %KV_PRMID_ABSGRPRND );
             20570        %LSET LISTDIR='0'B;

             20573    1   PP$ -> PP$STRCT.TYPE = 26 ;

  20573  4 001371   000601 471400 2                  LDP1    PP$
         4 001372   003100 061400                    CSR     bolr='003'O
         4 001373   000011 000044 5                  BDSC    9                        by=0,bit=0,n=36
         4 001374   100000 000011                    BDSC    0,,PR1                   by=0,bit=0,n=9

             20574    1   SIZE = LENGTHC( VLP_ABSGRPRND_NULL ) ;

  20574  4 001375   000600 755000 2                  STA     SIZE

             20575    1   PP$ -> PP$STRCT.SIZE = SIZE ;

  20575  4 001376   003100 061400                    CSR     bolr='003'O
         4 001377   000600 000044 2                  BDSC    SIZE                     by=0,bit=0,n=36
         4 001400   100000 200011                    BDSC    0,,PR1                   by=1,bit=0,n=9
PL6.E3A0      #001=ASD$BUILD_PRO File=ASD$BUILD_PRO.:E05TSI                      TUE 07/29/97 09:44 Page:129

             20576    1   PP$ = PINCRC( PP$, 2 ) ;

  20576  4 001401   400000 036007                    ADLQ    -131072,DL
         4 001402   000601 756000 2                  STQ     PP$

             20577    1   PP$ -> VLP$ABSGRPRND = VLP_ABSGRPRND_NULL ;

  20577  4 001403   000601 471400 2                  LDP1    PP$
         4 001404   003100 060400                    CSL     bolr='003'O
         4 001405   000177 000044 3                  BDSC    VLP_ABSGRPRND_NULL       by=0,bit=0,n=36
         4 001406   100000 000044                    BDSC    0,,PR1                   by=0,bit=0,n=36

             20578    1   PP$ = PINCRC( PP$, SIZE ) ;

  20578  4 001407   000600 236000 2                  LDQ     SIZE
         4 001410   000020 736000                    QLS     16
         4 001411   000601 036000 2                  ADLQ    PP$
         4 001412   000601 756000 2                  STQ     PP$

      621    20580        %MOVE_VLP( S_VLP=VLP_ABSGRPRND_OUTPUT, B$VLP=VLP$ABSGRPRND, T_TYPE=
             20580            %KV_PRMID_ABSGRPRND );
             20581        %LSET LISTDIR='0'B;

             20584    1   PP$ -> PP$STRCT.TYPE = 26 ;

  20584  4 001413   000601 471400 2                  LDP1    PP$
         4 001414   003100 061400                    CSR     bolr='003'O
         4 001415   000011 000044 5                  BDSC    9                        by=0,bit=0,n=36
         4 001416   100000 000011                    BDSC    0,,PR1                   by=0,bit=0,n=9

             20585    1   SIZE = LENGTHC( VLP_ABSGRPRND_OUTPUT ) ;

  20585  4 001417   000600 755000 2                  STA     SIZE

             20586    1   PP$ -> PP$STRCT.SIZE = SIZE ;

PL6.E3A0      #001=ASD$BUILD_PRO File=ASD$BUILD_PRO.:E05TSI                      TUE 07/29/97 09:44 Page:130
  20586  4 001420   003100 061400                    CSR     bolr='003'O
         4 001421   000600 000044 2                  BDSC    SIZE                     by=0,bit=0,n=36
         4 001422   100000 200011                    BDSC    0,,PR1                   by=1,bit=0,n=9

             20587    1   PP$ = PINCRC( PP$, 2 ) ;

  20587  4 001423   400000 036007                    ADLQ    -131072,DL
         4 001424   000601 756000 2                  STQ     PP$

             20588    1   PP$ -> VLP$ABSGRPRND = VLP_ABSGRPRND_OUTPUT ;

  20588  4 001425   000601 471400 2                  LDP1    PP$
         4 001426   003100 060400                    CSL     bolr='003'O
         4 001427   000200 000044 3                  BDSC    VLP_ABSGRPRND_OUTPUT     by=0,bit=0,n=36
         4 001430   100000 000044                    BDSC    0,,PR1                   by=0,bit=0,n=36

             20589    1   PP$ = PINCRC( PP$, SIZE ) ;

  20589  4 001431   000600 236000 2                  LDQ     SIZE
         4 001432   000020 736000                    QLS     16
         4 001433   000601 036000 2                  ADLQ    PP$
         4 001434   000601 756000 2                  STQ     PP$

      622    20591        %MOVE_VLP( S_VLP=VLP_ABSGRPRND_WARNING, B$VLP=VLP$ABSGRPRND, T_TYPE=
             20591            %KV_PRMID_ABSGRPRND );
             20592        %LSET LISTDIR='0'B;

             20595    1   PP$ -> PP$STRCT.TYPE = 26 ;

  20595  4 001435   000601 471400 2                  LDP1    PP$
         4 001436   003100 061400                    CSR     bolr='003'O
         4 001437   000011 000044 5                  BDSC    9                        by=0,bit=0,n=36
         4 001440   100000 000011                    BDSC    0,,PR1                   by=0,bit=0,n=9

             20596    1   SIZE = LENGTHC( VLP_ABSGRPRND_WARNING ) ;

  20596  4 001441   000600 755000 2                  STA     SIZE
PL6.E3A0      #001=ASD$BUILD_PRO File=ASD$BUILD_PRO.:E05TSI                      TUE 07/29/97 09:44 Page:131

             20597    1   PP$ -> PP$STRCT.SIZE = SIZE ;

  20597  4 001442   003100 061400                    CSR     bolr='003'O
         4 001443   000600 000044 2                  BDSC    SIZE                     by=0,bit=0,n=36
         4 001444   100000 200011                    BDSC    0,,PR1                   by=1,bit=0,n=9

             20598    1   PP$ = PINCRC( PP$, 2 ) ;

  20598  4 001445   400000 036007                    ADLQ    -131072,DL
         4 001446   000601 756000 2                  STQ     PP$

             20599    1   PP$ -> VLP$ABSGRPRND = VLP_ABSGRPRND_WARNING ;

  20599  4 001447   000601 471400 2                  LDP1    PP$
         4 001450   003100 060400                    CSL     bolr='003'O
         4 001451   000201 000044 3                  BDSC    VLP_ABSGRPRND_WARNING    by=0,bit=0,n=36
         4 001452   100000 000044                    BDSC    0,,PR1                   by=0,bit=0,n=36

             20600    1   PP$ = PINCRC( PP$, SIZE ) ;

  20600  4 001453   000600 236000 2                  LDQ     SIZE
         4 001454   000020 736000                    QLS     16
         4 001455   000601 036000 2                  ADLQ    PP$
         4 001456   000601 756000 2                  STQ     PP$

      623    20602                                               /* Setup_chr struct */
      624    20603    1   SIZE = LENGTHC (VLP_3270_SETUP_CHR);

  20603  4 001457   000002 235007                    LDA     2,DL
         4 001460   000600 755000 2                  STA     SIZE

      625    20604    1   PP$ -> VLP$SETUP_CHR = VLP_3270_SETUP_CHR;

  20604  4 001461   000601 471400 2                  LDP1    PP$
         4 001462   003100 060400                    CSL     bolr='003'O
         4 001463   000207 000022 3                  BDSC    VLP_3270_SETUP_CHR       by=0,bit=0,n=18
PL6.E3A0      #001=ASD$BUILD_PRO File=ASD$BUILD_PRO.:E05TSI                      TUE 07/29/97 09:44 Page:132
         4 001464   100000 000022                    BDSC    0,,PR1                   by=0,bit=0,n=18

      626    20605    1   PP$ = PINCRC (PP$, SIZE);

  20605  4 001465   000600 236000 2                  LDQ     SIZE
         4 001466   000020 736000                    QLS     16
         4 001467   000601 036000 2                  ADLQ    PP$
         4 001470   000601 756000 2                  STQ     PP$

      627    20606                                                           /*   Get actual record size.  */
      628    20607    1   P_ARS = POFFC( PP$, ADDR(PRO_BUF) ) ;

  20607  4 001471   200003 236100                    LDQ     @PRO_BUF,,AUTO
         4 001472   000020 772000                    QRL     16
         4 001473   200010 756100                    STQ     EXTWID+1,,AUTO
         4 001474   000601 236000 2                  LDQ     PP$
         4 001475   000020 772000                    QRL     16
         4 001476   200010 136100                    SBLQ    EXTWID+1,,AUTO
         4 001477   200004 471500                    LDP1    @P_ARS,,AUTO
         4 001500   100000 756100                    STQ     0,,PR1

      629    20608    1   PRO_KEY = VLP_3270_PNAME ;

  20608  4 001501   000000 100400                    MLR     fill='000'O
         4 001502   000006 000014 3                  ADSC9   VLP_3270_PNAME           cn=0,n=12
         4 001503   000572 000014 2                  ADSC9   PRO_KEY                  cn=0,n=12

      630    20609
      631    20610    1   CALL ASD$WRITE_PRO( PRO_KEY, PRO_BUF, P_ARS-1 ) ;

  20610  4 001504   100000 235100                    LDA     0,,PR1
         4 001505   000001 135007                    SBLA    1,DL
         4 001506   200010 755100                    STA     EXTWID+1,,AUTO
         4 001507   200010 633500                    EPPR3   EXTWID+1,,AUTO
         4 001510   200013 453500                    STP3    EXTWID+4,,AUTO
         4 001511   200003 236100                    LDQ     @PRO_BUF,,AUTO
         4 001512   200012 756100                    STQ     EXTWID+3,,AUTO
PL6.E3A0      #001=ASD$BUILD_PRO File=ASD$BUILD_PRO.:E05TSI                      TUE 07/29/97 09:44 Page:133
         4 001513   000014 236000 5                  LDQ     12
         4 001514   200011 756100                    STQ     EXTWID+2,,AUTO
         4 001515   200011 630500                    EPPR0   EXTWID+2,,AUTO
         4 001516   000021 631400 xsym               EPPR1   B_VECTNIL+17
         4 001517   000000 701000 xent               TSX1    ASD$WRITE_PRO
         4 001520   000000 011000                    NOP     0

      632    20611    1   RETURN;

  20611  4 001521   000000 702200 xent               TSX2  ! X66_ARET

      633    20612
      634    20613
      635    20614    1   ASD$BUILD_$RBT: ENTRY( PRO_BUF, P_ARS );

  20614  4 001522   000000 700200 xent  ASD$BUILD_$* TSX0  ! X66_AUTO_2
         4 001523   000014 000002                    ZERO    12,2

      636    20615
      637    20616
      638    20617                                                              /* Set up $RBT */
      639    20618    1   PRO_BUF = AS_BLANK ;

  20618  4 001524   200003 470500                    LDP0    @PRO_BUF,,AUTO
         4 001525   040100 100400                    MLR     fill='040'O
         4 001526   000000 000001 xsym               ADSC9   AS_BLANK                 cn=0,n=1
         4 001527   000000 002000                    ADSC9   0,,PR0                   cn=0,n=1024

      640    20619    1   PP$ = ADDR(PRO_BUF);

  20619  4 001530   200003 236100                    LDQ     @PRO_BUF,,AUTO
         4 001531   000601 756000 2                  STQ     PP$

      641    20620                                                              /* Set up header */
      642    20621    1   PRO_HDR.TTYP = %KLTY_STRM# ;

  20621  4 001532   003000 236003                    LDQ     1536,DU
PL6.E3A0      #001=ASD$BUILD_PRO File=ASD$BUILD_PRO.:E05TSI                      TUE 07/29/97 09:44 Page:134
         4 001533   000000 552040 2                  STBQ    PRO_HDR,'40'O

      643    20622    1   PRO_HDR.WIDTH = 0;

  20622  4 001534   000000 236003                    LDQ     0,DU
         4 001535   000000 552020 2                  STBQ    PRO_HDR,'20'O

      644    20623    1   PRO_HDR.LINES = 0;

  20623  4 001536   000000 220003                    LDX0    0,DU
         4 001537   000000 440000 2                  SXL0    PRO_HDR

      645    20624    1   PRO_HDR.ATTR.GRLGL = %NO# ;

  20624  4 001540   000001 236000 5                  LDQ     1
         4 001541   000001 356000 2                  ANSQ    PRO_HDR+1

      646    20625    1   PRO_HDR.ATTR.TRANSLGL = %NO# ;

  20625  4 001542   000002 236000 5                  LDQ     2
         4 001543   000001 356000 2                  ANSQ    PRO_HDR+1

      647    20626    1   PRO_HDR.ATTR.NOXLATE = %NO# ;

  20626  4 001544   000003 236000 5                  LDQ     3
         4 001545   000001 356000 2                  ANSQ    PRO_HDR+1

      648    20627    1   PRO_HDR.ATTR.UPPERCASE = %YES#;

  20627  4 001546   000040 236003                    LDQ     32,DU
         4 001547   000001 256000 2                  ORSQ    PRO_HDR+1

      649    20628    1   PRO_HDR.ATTR.NATL = %NO# ;

  20628  4 001550   000004 236000 5                  LDQ     4
         4 001551   000001 356000 2                  ANSQ    PRO_HDR+1

PL6.E3A0      #001=ASD$BUILD_PRO File=ASD$BUILD_PRO.:E05TSI                      TUE 07/29/97 09:44 Page:135
      650    20629    1   PRO_HDR.ATTR.TRUOVRPRT = %NO#;

  20629  4 001552   000015 236000 5                  LDQ     13
         4 001553   000001 356000 2                  ANSQ    PRO_HDR+1

      651    20630    1   PRO_HDR.ATTR.APL = %NO#;

  20630  4 001554   000016 236000 5                  LDQ     14
         4 001555   000001 356000 2                  ANSQ    PRO_HDR+1

      652    20631    1   PRO_HDR.ATTR.BIN = %NO# ;

  20631  4 001556   000005 236000 5                  LDQ     5
         4 001557   000001 356000 2                  ANSQ    PRO_HDR+1

      653    20632    1   PRO_HDR.ATTR.LCASE = %NO#;

  20632  4 001560   000017 236000 5                  LDQ     15
         4 001561   000001 356000 2                  ANSQ    PRO_HDR+1

      654    20633    1   PRO_HDR.IO.INPUT = %YES# ;

  20633  4 001562   400000 236007                    LDQ     -131072,DL
         4 001563   000001 256000 2                  ORSQ    PRO_HDR+1

      655    20634    1   PRO_HDR.IO.OUTPUT = %YES# ;

  20634  4 001564   200000 236007                    LDQ     65536,DL
         4 001565   000001 256000 2                  ORSQ    PRO_HDR+1

      656    20635    1   PRO_HDR.DDEV.LP = %NO# ;

  20635  4 001566   000020 236000 5                  LDQ     16
         4 001567   000001 356000 2                  ANSQ    PRO_HDR+1

      657    20636    1   PRO_HDR.DDEV.CP = %NO# ;

PL6.E3A0      #001=ASD$BUILD_PRO File=ASD$BUILD_PRO.:E05TSI                      TUE 07/29/97 09:44 Page:136
  20636  4 001570   000006 236000 5                  LDQ     6
         4 001571   000001 356000 2                  ANSQ    PRO_HDR+1

      658    20637    1   PRO_HDR.DDEV.IC = %NO# ;

  20637  4 001572   000021 236000 5                  LDQ     17
         4 001573   000001 356000 2                  ANSQ    PRO_HDR+1

      659    20638    1   PRO_HDR.DDEV.GRAPHICS_OK = %NO#;

  20638  4 001574   000007 236000 5                  LDQ     7
         4 001575   000001 356000 2                  ANSQ    PRO_HDR+1

      660    20639                                                              /* Move header */
      661    20640    1   PP$ -> PRO$HDR = PRO_HDR ;

  20640  4 001576   000601 471400 2                  LDP1    PP$
         4 001577   000100 100400                    MLR     fill='000'O
         4 001600   000000 000120 2                  ADSC9   PRO_HDR                  cn=0,n=80
         4 001601   100000 000120                    ADSC9   0,,PR1                   cn=0,n=80

      662    20641    1   PP$ = PINCRW( PP$, LENGTHW( PRO_HDR ) ) ;

  20641  4 001602   000601 236000 2                  LDQ     PP$
         4 001603   000024 036003                    ADLQ    20,DU
         4 001604   000601 756000 2                  STQ     PP$

      663    20642                                                              /* Profile name */
      664    20643        %MOVE_VLP( S_VLP = VLP_RBT_PNAME ,
      665    20644        B$VLP = VLP$PNAME ,
      666    20645        T_TYPE = %KV_PRMID_PROFILE ) ;
             20646        %LSET LISTDIR='0'B;

             20649    1   PP$ -> PP$STRCT.TYPE = 3 ;

  20649  4 001605   000601 471400 2                  LDP1    PP$
         4 001606   003100 061400                    CSR     bolr='003'O
PL6.E3A0      #001=ASD$BUILD_PRO File=ASD$BUILD_PRO.:E05TSI                      TUE 07/29/97 09:44 Page:137
         4 001607   000005 000044 xsym               BDSC    B_VECTNIL+5              by=0,bit=0,n=36
         4 001610   100000 000011                    BDSC    0,,PR1                   by=0,bit=0,n=9

             20650    1   SIZE = LENGTHC( VLP_RBT_PNAME ) ;

  20650  4 001611   000014 235007                    LDA     12,DL
         4 001612   000600 755000 2                  STA     SIZE

             20651    1   PP$ -> PP$STRCT.SIZE = SIZE ;

  20651  4 001613   003100 061400                    CSR     bolr='003'O
         4 001614   000600 000044 2                  BDSC    SIZE                     by=0,bit=0,n=36
         4 001615   100000 200011                    BDSC    0,,PR1                   by=1,bit=0,n=9

             20652    1   PP$ = PINCRC( PP$, 2 ) ;

  20652  4 001616   400000 036007                    ADLQ    -131072,DL
         4 001617   000601 756000 2                  STQ     PP$

             20653    1   PP$ -> VLP$PNAME = VLP_RBT_PNAME ;

  20653  4 001620   000601 471400 2                  LDP1    PP$
         4 001621   000100 101500                    MRL     fill='000'O
         4 001622   100000 000001                    ADSC9   0,,PR1                   cn=0,n=1
         4 001623   200010 000002                    ADSC9   EXTWID+1,,AUTO           cn=0,n=2
         4 001624   200010 221100                    LDX1    EXTWID+1,,AUTO
         4 001625   000001 622011                    EAX2    1,X1
         4 001626   000140 100400                    MLR     fill='000'O
         4 001627   000011 000014 3                  ADSC9   VLP_RBT_PNAME            cn=0,n=12
         4 001630   100000 000012                    ADSC9   0,,PR1                   cn=0,n=*X2

             20654    1   PP$ = PINCRC( PP$, SIZE ) ;

  20654  4 001631   000600 236000 2                  LDQ     SIZE
         4 001632   000020 736000                    QLS     16
         4 001633   000601 036000 2                  ADLQ    PP$
         4 001634   000601 756000 2                  STQ     PP$
PL6.E3A0      #001=ASD$BUILD_PRO File=ASD$BUILD_PRO.:E05TSI                      TUE 07/29/97 09:44 Page:138

      667    20656
      668    20657        %MOVE_VLP( S_VLP = VLP_RBT_TRMD ,
      669    20658        B$VLP = VLP$TRMD ,
      670    20659        T_TYPE = %KL_PRMID_TRMD ) ;
             20660        %LSET LISTDIR='0'B;

             20663    1   PP$ -> PP$STRCT.TYPE = 13 ;

  20663  4 001635   000601 471400 2                  LDP1    PP$
         4 001636   003100 061400                    CSR     bolr='003'O
         4 001637   000022 000044 5                  BDSC    18                       by=0,bit=0,n=36
         4 001640   100000 000011                    BDSC    0,,PR1                   by=0,bit=0,n=9

             20664    1   SIZE = LENGTHC( VLP_RBT_TRMD ) ;

  20664  4 001641   000016 235007                    LDA     14,DL
         4 001642   000600 755000 2                  STA     SIZE

             20665    1   PP$ -> PP$STRCT.SIZE = SIZE ;

  20665  4 001643   003100 061400                    CSR     bolr='003'O
         4 001644   000600 000044 2                  BDSC    SIZE                     by=0,bit=0,n=36
         4 001645   100000 200011                    BDSC    0,,PR1                   by=1,bit=0,n=9

             20666    1   PP$ = PINCRC( PP$, 2 ) ;

  20666  4 001646   400000 036007                    ADLQ    -131072,DL
         4 001647   000601 756000 2                  STQ     PP$

             20667    1   PP$ -> VLP$TRMD = VLP_RBT_TRMD ;

  20667  4 001650   000601 471400 2                  LDP1    PP$
         4 001651   003100 060400                    CSL     bolr='003'O
         4 001652   000151 000176 3                  BDSC    VLP_RBT_TRMD             by=0,bit=0,n=126
         4 001653   100000 000176                    BDSC    0,,PR1                   by=0,bit=0,n=126

PL6.E3A0      #001=ASD$BUILD_PRO File=ASD$BUILD_PRO.:E05TSI                      TUE 07/29/97 09:44 Page:139
             20668    1   PP$ = PINCRC( PP$, SIZE ) ;

  20668  4 001654   000600 236000 2                  LDQ     SIZE
         4 001655   000020 736000                    QLS     16
         4 001656   000601 036000 2                  ADLQ    PP$
         4 001657   000601 756000 2                  STQ     PP$

      671    20670
      672    20671                                                              /* Get actual record size. */
      673    20672    1   P_ARS = POFFC( PP$, ADDR(PRO_BUF) ) ;

  20672  4 001660   200003 236100                    LDQ     @PRO_BUF,,AUTO
         4 001661   000020 772000                    QRL     16
         4 001662   200010 756100                    STQ     EXTWID+1,,AUTO
         4 001663   000601 236000 2                  LDQ     PP$
         4 001664   000020 772000                    QRL     16
         4 001665   200010 136100                    SBLQ    EXTWID+1,,AUTO
         4 001666   200004 471500                    LDP1    @P_ARS,,AUTO
         4 001667   100000 756100                    STQ     0,,PR1

      674    20673    1   PRO_KEY = VLP_RBT_PNAME ;

  20673  4 001670   000000 100400                    MLR     fill='000'O
         4 001671   000011 000014 3                  ADSC9   VLP_RBT_PNAME            cn=0,n=12
         4 001672   000572 000014 2                  ADSC9   PRO_KEY                  cn=0,n=12

      675    20674    1   CALL ASD$WRITE_PRO( PRO_KEY, PRO_BUF, P_ARS-1 ) ;

  20674  4 001673   100000 235100                    LDA     0,,PR1
         4 001674   000001 135007                    SBLA    1,DL
         4 001675   200010 755100                    STA     EXTWID+1,,AUTO
         4 001676   200010 633500                    EPPR3   EXTWID+1,,AUTO
         4 001677   200013 453500                    STP3    EXTWID+4,,AUTO
         4 001700   200003 236100                    LDQ     @PRO_BUF,,AUTO
         4 001701   200012 756100                    STQ     EXTWID+3,,AUTO
         4 001702   000014 236000 5                  LDQ     12
         4 001703   200011 756100                    STQ     EXTWID+2,,AUTO
PL6.E3A0      #001=ASD$BUILD_PRO File=ASD$BUILD_PRO.:E05TSI                      TUE 07/29/97 09:44 Page:140
         4 001704   200011 630500                    EPPR0   EXTWID+2,,AUTO
         4 001705   000021 631400 xsym               EPPR1   B_VECTNIL+17
         4 001706   000000 701000 xent               TSX1    ASD$WRITE_PRO
         4 001707   000000 011000                    NOP     0

      676    20675    1   RETURN;

  20675  4 001710   000000 702200 xent               TSX2  ! X66_ARET

      677    20676
      678    20677
      679    20678    1   ASD$BUILD_$RBTD: ENTRY( PRO_BUF, P_ARS );

  20678  4 001711   000000 700200 xent  ASD$BUILD_$* TSX0  ! X66_AUTO_2
         4 001712   000014 000002                    ZERO    12,2

      680    20679
      681    20680
      682    20681                                                              /* Set up $RBTD */
      683    20682    1   PP$ = ADDR(PRO_BUF);

  20682  4 001713   200003 236100                    LDQ     @PRO_BUF,,AUTO
         4 001714   000601 756000 2                  STQ     PP$

      684    20683    1   PRO_BUF = AS_BLANK ;

  20683  4 001715   200003 470500                    LDP0    @PRO_BUF,,AUTO
         4 001716   040100 100400                    MLR     fill='040'O
         4 001717   000000 000001 xsym               ADSC9   AS_BLANK                 cn=0,n=1
         4 001720   000000 002000                    ADSC9   0,,PR0                   cn=0,n=1024

      685    20684                                                              /* Set up header */
      686    20685    1   PRO_HDR.TTYP = %KLTY_SDEV# ;

  20685  4 001721   001000 236003                    LDQ     512,DU
         4 001722   000000 552040 2                  STBQ    PRO_HDR,'40'O

PL6.E3A0      #001=ASD$BUILD_PRO File=ASD$BUILD_PRO.:E05TSI                      TUE 07/29/97 09:44 Page:141
      687    20686                                                            /*   Check for extra width.  */
      688    20687    1   IF VLP_RBTD_PLATEN.EXTWID# = %YES# THEN

  20687  4 001723   000121 430000 3                  FSZN    VLP_RBTD_PLATEN+1
         4 001724   001730 605000 4                  TPL     s:20690

      689    20688    1      EXTWID = 1 ;

  20688  4 001725   000001 235007                    LDA     1,DL
         4 001726   200007 755100                    STA     EXTWID,,AUTO
         4 001727   001731 710000 4                  TRA     s:20691

      690    20689    1   ELSE
      691    20690    1      EXTWID = 0 ;

  20690  4 001730   200007 450100                    STZ     EXTWID,,AUTO

      692    20691    1   PRO_HDR.WIDTH = VLP_RBTD_PLATEN.WIDTH# + ( 254*EXTWID ) ;

  20691  4 001731   000120 236000 3                  LDQ     VLP_RBTD_PLATEN
         4 001732   000033 772000                    QRL     27
         4 001733   000377 376007                    ANQ     255,DL
         4 001734   200010 756100                    STQ     EXTWID+1,,AUTO
         4 001735   200007 236100                    LDQ     EXTWID,,AUTO
         4 001736   000376 402007                    MPY     254,DL
         4 001737   200010 036100                    ADLQ    EXTWID+1,,AUTO
         4 001740   000022 736000                    QLS     18
         4 001741   000000 552020 2                  STBQ    PRO_HDR,'20'O

      693    20692    1   PRO_HDR.LINES = VLP_RBTD_PLATEN.LENGTH# ;

  20692  4 001742   000120 220000 3                  LDX0    VLP_RBTD_PLATEN
         4 001743   000377 360003                    ANX0    255,DU
         4 001744   000000 440000 2                  SXL0    PRO_HDR

      694    20693    1   PRO_HDR.ATTR.GRLGL = %NO# ;

PL6.E3A0      #001=ASD$BUILD_PRO File=ASD$BUILD_PRO.:E05TSI                      TUE 07/29/97 09:44 Page:142
  20693  4 001745   000001 236000 5                  LDQ     1
         4 001746   000001 356000 2                  ANSQ    PRO_HDR+1

      695    20694    1   PRO_HDR.ATTR.TRANSLGL = %NO# ;

  20694  4 001747   000002 236000 5                  LDQ     2
         4 001750   000001 356000 2                  ANSQ    PRO_HDR+1

      696    20695    1   PRO_HDR.ATTR.NOXLATE = %NO# ;

  20695  4 001751   000003 236000 5                  LDQ     3
         4 001752   000001 356000 2                  ANSQ    PRO_HDR+1

      697    20696    1   PRO_HDR.ATTR.UPPERCASE = %YES#;

  20696  4 001753   000040 236003                    LDQ     32,DU
         4 001754   000001 256000 2                  ORSQ    PRO_HDR+1

      698    20697    1   PRO_HDR.ATTR.NATL = %NO# ;

  20697  4 001755   000004 236000 5                  LDQ     4
         4 001756   000001 356000 2                  ANSQ    PRO_HDR+1

      699    20698    1   PRO_HDR.ATTR.TRUOVRPRT = VLP_RBTD_TRMATTR.TRUOVRPRT# ;

  20698  4 001757   000072 236000 3                  LDQ     VLP_RBTD_TRMATTR
         4 001760   000016 736000                    QLS     14
         4 001761   000001 676000 2                  ERQ     PRO_HDR+1
         4 001762   000010 376003                    ANQ     8,DU
         4 001763   000001 656000 2                  ERSQ    PRO_HDR+1

      700    20699    1   PRO_HDR.ATTR.APL = VLP_RBTD_TRMATTR.APL# ;

  20699  4 001764   000072 236000 3                  LDQ     VLP_RBTD_TRMATTR
         4 001765   000017 736000                    QLS     15
         4 001766   000001 676000 2                  ERQ     PRO_HDR+1
         4 001767   000004 376003                    ANQ     4,DU
PL6.E3A0      #001=ASD$BUILD_PRO File=ASD$BUILD_PRO.:E05TSI                      TUE 07/29/97 09:44 Page:143
         4 001770   000001 656000 2                  ERSQ    PRO_HDR+1

      701    20700    1   PRO_HDR.ATTR.BIN = %NO# ;

  20700  4 001771   000005 236000 5                  LDQ     5
         4 001772   000001 356000 2                  ANSQ    PRO_HDR+1

      702    20701    1   PRO_HDR.ATTR.LCASE = VLP_RBTD_TRMATTR.LOWERCASEPRINTS# ;

  20701  4 001773   000072 236000 3                  LDQ     VLP_RBTD_TRMATTR
         4 001774   000021 736000                    QLS     17
         4 001775   000001 676000 2                  ERQ     PRO_HDR+1
         4 001776   000001 376003                    ANQ     1,DU
         4 001777   000001 656000 2                  ERSQ    PRO_HDR+1

      703    20702    1   PRO_HDR.IO.INPUT = %NO# ;

  20702  4 002000   000023 236000 5                  LDQ     19
         4 002001   000001 356000 2                  ANSQ    PRO_HDR+1

      704    20703    1   PRO_HDR.IO.OUTPUT = %NO# ;

  20703  4 002002   000024 236000 5                  LDQ     20
         4 002003   000001 356000 2                  ANSQ    PRO_HDR+1

      705    20704    1   PRO_HDR.DDEV.LP = %NO# ;

  20704  4 002004   000020 236000 5                  LDQ     16
         4 002005   000001 356000 2                  ANSQ    PRO_HDR+1

      706    20705    1   PRO_HDR.DDEV.CP = %YES# ;

  20705  4 002006   000200 236007                    LDQ     128,DL
         4 002007   000001 256000 2                  ORSQ    PRO_HDR+1

      707    20706    1   PRO_HDR.DDEV.IC = %NO# ;

PL6.E3A0      #001=ASD$BUILD_PRO File=ASD$BUILD_PRO.:E05TSI                      TUE 07/29/97 09:44 Page:144
  20706  4 002010   000021 236000 5                  LDQ     17
         4 002011   000001 356000 2                  ANSQ    PRO_HDR+1

      708    20707    1   PRO_HDR.DDEV.GRAPHICS_OK = %NO#;

  20707  4 002012   000007 236000 5                  LDQ     7
         4 002013   000001 356000 2                  ANSQ    PRO_HDR+1

      709    20708                                                              /*   Mover header.   */
      710    20709    1   PP$ -> PRO$HDR = PRO_HDR ;

  20709  4 002014   000601 471400 2                  LDP1    PP$
         4 002015   000100 100400                    MLR     fill='000'O
         4 002016   000000 000120 2                  ADSC9   PRO_HDR                  cn=0,n=80
         4 002017   100000 000120                    ADSC9   0,,PR1                   cn=0,n=80

      711    20710    1   PP$ = PINCRW( PP$, SIZEW( PRO_HDR ) ) ;

  20710  4 002020   000601 236000 2                  LDQ     PP$
         4 002021   000024 036003                    ADLQ    20,DU
         4 002022   000601 756000 2                  STQ     PP$

      712    20711                                                              /*  Profile name   */
      713    20712        %MOVE_VLP( S_VLP = VLP_RBTD_PNAME ,
      714    20713        B$VLP = VLP$PNAME ,
      715    20714        T_TYPE = %KV_PRMID_PROFILE ) ;
             20715        %LSET LISTDIR='0'B;

             20718    1   PP$ -> PP$STRCT.TYPE = 3 ;

  20718  4 002023   000601 471400 2                  LDP1    PP$
         4 002024   003100 061400                    CSR     bolr='003'O
         4 002025   000005 000044 xsym               BDSC    B_VECTNIL+5              by=0,bit=0,n=36
         4 002026   100000 000011                    BDSC    0,,PR1                   by=0,bit=0,n=9

             20719    1   SIZE = LENGTHC( VLP_RBTD_PNAME ) ;

PL6.E3A0      #001=ASD$BUILD_PRO File=ASD$BUILD_PRO.:E05TSI                      TUE 07/29/97 09:44 Page:145
  20719  4 002027   000014 235007                    LDA     12,DL
         4 002030   000600 755000 2                  STA     SIZE

             20720    1   PP$ -> PP$STRCT.SIZE = SIZE ;

  20720  4 002031   003100 061400                    CSR     bolr='003'O
         4 002032   000600 000044 2                  BDSC    SIZE                     by=0,bit=0,n=36
         4 002033   100000 200011                    BDSC    0,,PR1                   by=1,bit=0,n=9

             20721    1   PP$ = PINCRC( PP$, 2 ) ;

  20721  4 002034   400000 036007                    ADLQ    -131072,DL
         4 002035   000601 756000 2                  STQ     PP$

             20722    1   PP$ -> VLP$PNAME = VLP_RBTD_PNAME ;

  20722  4 002036   000601 471400 2                  LDP1    PP$
         4 002037   000100 101500                    MRL     fill='000'O
         4 002040   100000 000001                    ADSC9   0,,PR1                   cn=0,n=1
         4 002041   200010 000002                    ADSC9   EXTWID+1,,AUTO           cn=0,n=2
         4 002042   200010 221100                    LDX1    EXTWID+1,,AUTO
         4 002043   000001 622011                    EAX2    1,X1
         4 002044   000140 100400                    MLR     fill='000'O
         4 002045   000014 000014 3                  ADSC9   VLP_RBTD_PNAME           cn=0,n=12
         4 002046   100000 000012                    ADSC9   0,,PR1                   cn=0,n=*X2

             20723    1   PP$ = PINCRC( PP$, SIZE ) ;

  20723  4 002047   000600 236000 2                  LDQ     SIZE
         4 002050   000020 736000                    QLS     16
         4 002051   000601 036000 2                  ADLQ    PP$
         4 002052   000601 756000 2                  STQ     PP$

      716    20725                                                              /*  Term. Control.   */
      717    20726        %MOVE_VLP( S_VLP = VLP_RBTD_TRMCTL ,
      718    20727        B$VLP = VLP$TRMCTL ,
      719    20728        T_TYPE = %KV_PRMID_TRMCTL ) ;
PL6.E3A0      #001=ASD$BUILD_PRO File=ASD$BUILD_PRO.:E05TSI                      TUE 07/29/97 09:44 Page:146
             20729        %LSET LISTDIR='0'B;

             20732    1   PP$ -> PP$STRCT.TYPE = 4 ;

  20732  4 002053   000601 471400 2                  LDP1    PP$
         4 002054   003100 061400                    CSR     bolr='003'O
         4 002055   000006 000044 xsym               BDSC    B_VECTNIL+6              by=0,bit=0,n=36
         4 002056   100000 000011                    BDSC    0,,PR1                   by=0,bit=0,n=9

             20733    1   SIZE = LENGTHC( VLP_RBTD_TRMCTL ) ;

  20733  4 002057   000020 235007                    LDA     16,DL
         4 002060   000600 755000 2                  STA     SIZE

             20734    1   PP$ -> PP$STRCT.SIZE = SIZE ;

  20734  4 002061   003100 061400                    CSR     bolr='003'O
         4 002062   000600 000044 2                  BDSC    SIZE                     by=0,bit=0,n=36
         4 002063   100000 200011                    BDSC    0,,PR1                   by=1,bit=0,n=9

             20735    1   PP$ = PINCRC( PP$, 2 ) ;

  20735  4 002064   400000 036007                    ADLQ    -131072,DL
         4 002065   000601 756000 2                  STQ     PP$

             20736    1   PP$ -> VLP$TRMCTL = VLP_RBTD_TRMCTL ;

  20736  4 002066   000601 471400 2                  LDP1    PP$
         4 002067   003100 060400                    CSL     bolr='003'O
         4 002070   000616 000220 2                  BDSC    VLP_RBTD_TRMCTL          by=0,bit=0,n=144
         4 002071   100000 000220                    BDSC    0,,PR1                   by=0,bit=0,n=144

             20737    1   PP$ = PINCRC( PP$, SIZE ) ;

  20737  4 002072   000600 236000 2                  LDQ     SIZE
         4 002073   000020 736000                    QLS     16
         4 002074   000601 036000 2                  ADLQ    PP$
PL6.E3A0      #001=ASD$BUILD_PRO File=ASD$BUILD_PRO.:E05TSI                      TUE 07/29/97 09:44 Page:147
         4 002075   000601 756000 2                  STQ     PP$

      720    20739                                                              /* Term. Attr. */
      721    20740        %MOVE_VLP( S_VLP = VLP_RBTD_TRMATTR ,
      722    20741        B$VLP = VLP$TRMATTR ,
      723    20742        T_TYPE = %KV_PRMID_TRMATTR ) ;
             20743        %LSET LISTDIR='0'B;

             20746    1   PP$ -> PP$STRCT.TYPE = 7 ;

  20746  4 002076   000601 471400 2                  LDP1    PP$
         4 002077   003100 061400                    CSR     bolr='003'O
         4 002100   000011 000044 xsym               BDSC    B_VECTNIL+9              by=0,bit=0,n=36
         4 002101   100000 000011                    BDSC    0,,PR1                   by=0,bit=0,n=9

             20747    1   SIZE = LENGTHC( VLP_RBTD_TRMATTR ) ;

  20747  4 002102   000050 235007                    LDA     40,DL
         4 002103   000600 755000 2                  STA     SIZE

             20748    1   PP$ -> PP$STRCT.SIZE = SIZE ;

  20748  4 002104   003100 061400                    CSR     bolr='003'O
         4 002105   000600 000044 2                  BDSC    SIZE                     by=0,bit=0,n=36
         4 002106   100000 200011                    BDSC    0,,PR1                   by=1,bit=0,n=9

             20749    1   PP$ = PINCRC( PP$, 2 ) ;

  20749  4 002107   400000 036007                    ADLQ    -131072,DL
         4 002110   000601 756000 2                  STQ     PP$

             20750    1   PP$ -> VLP$TRMATTR = VLP_RBTD_TRMATTR ;

  20750  4 002111   000601 471400 2                  LDP1    PP$
         4 002112   000100 100400                    MLR     fill='000'O
         4 002113   000072 000050 3                  ADSC9   VLP_RBTD_TRMATTR         cn=0,n=40
         4 002114   100000 000050                    ADSC9   0,,PR1                   cn=0,n=40
PL6.E3A0      #001=ASD$BUILD_PRO File=ASD$BUILD_PRO.:E05TSI                      TUE 07/29/97 09:44 Page:148

             20751    1   PP$ = PINCRC( PP$, SIZE ) ;

  20751  4 002115   000600 236000 2                  LDQ     SIZE
         4 002116   000020 736000                    QLS     16
         4 002117   000601 036000 2                  ADLQ    PP$
         4 002120   000601 756000 2                  STQ     PP$

      724    20753                                                              /* Device addr. */
      725    20754                                                              /* Platen */
      726    20755        %MOVE_VLP( S_VLP = VLP_RBTD_PLATEN ,
      727    20756        B$VLP = VLP$PLATEN ,
      728    20757        T_TYPE = %KV_PRMID_PLATEN ) ;
             20758        %LSET LISTDIR='0'B;

             20761    1   PP$ -> PP$STRCT.TYPE = 8 ;

  20761  4 002121   000601 471400 2                  LDP1    PP$
         4 002122   003100 061400                    CSR     bolr='003'O
         4 002123   000012 000044 xsym               BDSC    B_VECTNIL+10             by=0,bit=0,n=36
         4 002124   100000 000011                    BDSC    0,,PR1                   by=0,bit=0,n=9

             20762    1   SIZE = LENGTHC( VLP_RBTD_PLATEN ) ;

  20762  4 002125   000020 235007                    LDA     16,DL
         4 002126   000600 755000 2                  STA     SIZE

             20763    1   PP$ -> PP$STRCT.SIZE = SIZE ;

  20763  4 002127   003100 061400                    CSR     bolr='003'O
         4 002130   000600 000044 2                  BDSC    SIZE                     by=0,bit=0,n=36
         4 002131   100000 200011                    BDSC    0,,PR1                   by=1,bit=0,n=9

             20764    1   PP$ = PINCRC( PP$, 2 ) ;

  20764  4 002132   400000 036007                    ADLQ    -131072,DL
         4 002133   000601 756000 2                  STQ     PP$
PL6.E3A0      #001=ASD$BUILD_PRO File=ASD$BUILD_PRO.:E05TSI                      TUE 07/29/97 09:44 Page:149

             20765    1   PP$ -> VLP$PLATEN = VLP_RBTD_PLATEN ;

  20765  4 002134   000601 471400 2                  LDP1    PP$
         4 002135   003100 060400                    CSL     bolr='003'O
         4 002136   000120 000220 3                  BDSC    VLP_RBTD_PLATEN          by=0,bit=0,n=144
         4 002137   100000 000220                    BDSC    0,,PR1                   by=0,bit=0,n=144

             20766    1   PP$ = PINCRC( PP$, SIZE ) ;

  20766  4 002140   000600 236000 2                  LDQ     SIZE
         4 002141   000020 736000                    QLS     16
         4 002142   000601 036000 2                  ADLQ    PP$
         4 002143   000601 756000 2                  STQ     PP$

      729    20768                                                              /* Get actual record size. */
      730    20769    1   P_ARS = POFFC( PP$, ADDR(PRO_BUF) ) ;

  20769  4 002144   200003 236100                    LDQ     @PRO_BUF,,AUTO
         4 002145   000020 772000                    QRL     16
         4 002146   200010 756100                    STQ     EXTWID+1,,AUTO
         4 002147   000601 236000 2                  LDQ     PP$
         4 002150   000020 772000                    QRL     16
         4 002151   200010 136100                    SBLQ    EXTWID+1,,AUTO
         4 002152   200004 471500                    LDP1    @P_ARS,,AUTO
         4 002153   100000 756100                    STQ     0,,PR1

      731    20770    1   PRO_KEY = VLP_RBTD_PNAME ;

  20770  4 002154   000000 100400                    MLR     fill='000'O
         4 002155   000014 000014 3                  ADSC9   VLP_RBTD_PNAME           cn=0,n=12
         4 002156   000572 000014 2                  ADSC9   PRO_KEY                  cn=0,n=12

      732    20771
      733    20772    1   CALL ASD$WRITE_PRO( PRO_KEY, PRO_BUF, P_ARS-1 ) ;

  20772  4 002157   100000 235100                    LDA     0,,PR1
PL6.E3A0      #001=ASD$BUILD_PRO File=ASD$BUILD_PRO.:E05TSI                      TUE 07/29/97 09:44 Page:150
         4 002160   000001 135007                    SBLA    1,DL
         4 002161   200010 755100                    STA     EXTWID+1,,AUTO
         4 002162   200010 633500                    EPPR3   EXTWID+1,,AUTO
         4 002163   200013 453500                    STP3    EXTWID+4,,AUTO
         4 002164   200003 236100                    LDQ     @PRO_BUF,,AUTO
         4 002165   200012 756100                    STQ     EXTWID+3,,AUTO
         4 002166   000014 236000 5                  LDQ     12
         4 002167   200011 756100                    STQ     EXTWID+2,,AUTO
         4 002170   200011 630500                    EPPR0   EXTWID+2,,AUTO
         4 002171   000021 631400 xsym               EPPR1   B_VECTNIL+17
         4 002172   000000 701000 xent               TSX1    ASD$WRITE_PRO
         4 002173   000000 011000                    NOP     0

      734    20773    1   RETURN;

  20773  4 002174   000000 702200 xent               TSX2  ! X66_ARET

      735    20774
      736    20775
      737    20776    1   ASD$BUILD_$LINK: ENTRY( PRO_BUF, P_ARS );

  20776  4 002175   000000 700200 xent  ASD$BUILD_$* TSX0  ! X66_AUTO_2
         4 002176   000014 000002                    ZERO    12,2

      738    20777
      739    20778
      740    20779                                                              /* Set up $LINK */
      741    20780    1   PRO_BUF = AS_BLANK ;

  20780  4 002177   200003 470500                    LDP0    @PRO_BUF,,AUTO
         4 002200   040100 100400                    MLR     fill='040'O
         4 002201   000000 000001 xsym               ADSC9   AS_BLANK                 cn=0,n=1
         4 002202   000000 002000                    ADSC9   0,,PR0                   cn=0,n=1024

      742    20781    1   PP$ = ADDR(PRO_BUF);

  20781  4 002203   200003 236100                    LDQ     @PRO_BUF,,AUTO
PL6.E3A0      #001=ASD$BUILD_PRO File=ASD$BUILD_PRO.:E05TSI                      TUE 07/29/97 09:44 Page:151
         4 002204   000601 756000 2                  STQ     PP$

      743    20782                                                              /* Set up header */
      744    20783    1   PRO_HDR.TTYP = %KLTY_LINK# ;

  20783  4 002205   004000 236003                    LDQ     2048,DU
         4 002206   000000 552040 2                  STBQ    PRO_HDR,'40'O

      745    20784    1   PRO_HDR.WIDTH = 0;

  20784  4 002207   000000 236003                    LDQ     0,DU
         4 002210   000000 552020 2                  STBQ    PRO_HDR,'20'O

      746    20785    1   PRO_HDR.LINES = 0;

  20785  4 002211   000000 220003                    LDX0    0,DU
         4 002212   000000 440000 2                  SXL0    PRO_HDR

      747    20786    1   PRO_HDR.ATTR.GRLGL = %NO# ;

  20786  4 002213   000001 236000 5                  LDQ     1
         4 002214   000001 356000 2                  ANSQ    PRO_HDR+1

      748    20787    1   PRO_HDR.ATTR.TRANSLGL = %NO# ;

  20787  4 002215   000002 236000 5                  LDQ     2
         4 002216   000001 356000 2                  ANSQ    PRO_HDR+1

      749    20788    1   PRO_HDR.ATTR.NOXLATE = %NO# ;

  20788  4 002217   000003 236000 5                  LDQ     3
         4 002220   000001 356000 2                  ANSQ    PRO_HDR+1

      750    20789    1   PRO_HDR.ATTR.UPPERCASE = %YES#;

  20789  4 002221   000040 236003                    LDQ     32,DU
         4 002222   000001 256000 2                  ORSQ    PRO_HDR+1
PL6.E3A0      #001=ASD$BUILD_PRO File=ASD$BUILD_PRO.:E05TSI                      TUE 07/29/97 09:44 Page:152

      751    20790    1   PRO_HDR.ATTR.NATL = %NO# ;

  20790  4 002223   000004 236000 5                  LDQ     4
         4 002224   000001 356000 2                  ANSQ    PRO_HDR+1

      752    20791    1   PRO_HDR.ATTR.TRUOVRPRT = %NO#;

  20791  4 002225   000015 236000 5                  LDQ     13
         4 002226   000001 356000 2                  ANSQ    PRO_HDR+1

      753    20792    1   PRO_HDR.ATTR.APL = %NO#;

  20792  4 002227   000016 236000 5                  LDQ     14
         4 002230   000001 356000 2                  ANSQ    PRO_HDR+1

      754    20793    1   PRO_HDR.ATTR.BIN = %NO# ;

  20793  4 002231   000005 236000 5                  LDQ     5
         4 002232   000001 356000 2                  ANSQ    PRO_HDR+1

      755    20794    1   PRO_HDR.ATTR.LCASE = %NO#;

  20794  4 002233   000017 236000 5                  LDQ     15
         4 002234   000001 356000 2                  ANSQ    PRO_HDR+1

      756    20795    1   PRO_HDR.IO.INPUT = %YES# ;

  20795  4 002235   400000 236007                    LDQ     -131072,DL
         4 002236   000001 256000 2                  ORSQ    PRO_HDR+1

      757    20796    1   PRO_HDR.IO.OUTPUT = %YES# ;

  20796  4 002237   200000 236007                    LDQ     65536,DL
         4 002240   000001 256000 2                  ORSQ    PRO_HDR+1

      758    20797    1   PRO_HDR.DDEV.LP = %NO# ;
PL6.E3A0      #001=ASD$BUILD_PRO File=ASD$BUILD_PRO.:E05TSI                      TUE 07/29/97 09:44 Page:153

  20797  4 002241   000020 236000 5                  LDQ     16
         4 002242   000001 356000 2                  ANSQ    PRO_HDR+1

      759    20798    1   PRO_HDR.DDEV.CP = %NO# ;

  20798  4 002243   000006 236000 5                  LDQ     6
         4 002244   000001 356000 2                  ANSQ    PRO_HDR+1

      760    20799    1   PRO_HDR.DDEV.IC = %NO# ;

  20799  4 002245   000021 236000 5                  LDQ     17
         4 002246   000001 356000 2                  ANSQ    PRO_HDR+1

      761    20800    1   PRO_HDR.DDEV.GRAPHICS_OK = %NO#;

  20800  4 002247   000007 236000 5                  LDQ     7
         4 002250   000001 356000 2                  ANSQ    PRO_HDR+1

      762    20801                                                              /* Move header */
      763    20802    1   PP$ -> PRO$HDR = PRO_HDR ;

  20802  4 002251   000601 471400 2                  LDP1    PP$
         4 002252   000100 100400                    MLR     fill='000'O
         4 002253   000000 000120 2                  ADSC9   PRO_HDR                  cn=0,n=80
         4 002254   100000 000120                    ADSC9   0,,PR1                   cn=0,n=80

      764    20803    1   PP$ = PINCRW( PP$, LENGTHW( PRO_HDR ) ) ;

  20803  4 002255   000601 236000 2                  LDQ     PP$
         4 002256   000024 036003                    ADLQ    20,DU
         4 002257   000601 756000 2                  STQ     PP$

      765    20804                                                              /* Profile name */
      766    20805        %MOVE_VLP( S_VLP = VLP_LINK_PNAME ,
      767    20806        B$VLP = VLP$PNAME ,
      768    20807        T_TYPE = %KV_PRMID_PROFILE ) ;
PL6.E3A0      #001=ASD$BUILD_PRO File=ASD$BUILD_PRO.:E05TSI                      TUE 07/29/97 09:44 Page:154
             20808        %LSET LISTDIR='0'B;

             20811    1   PP$ -> PP$STRCT.TYPE = 3 ;

  20811  4 002260   000601 471400 2                  LDP1    PP$
         4 002261   003100 061400                    CSR     bolr='003'O
         4 002262   000005 000044 xsym               BDSC    B_VECTNIL+5              by=0,bit=0,n=36
         4 002263   100000 000011                    BDSC    0,,PR1                   by=0,bit=0,n=9

             20812    1   SIZE = LENGTHC( VLP_LINK_PNAME ) ;

  20812  4 002264   000014 235007                    LDA     12,DL
         4 002265   000600 755000 2                  STA     SIZE

             20813    1   PP$ -> PP$STRCT.SIZE = SIZE ;

  20813  4 002266   003100 061400                    CSR     bolr='003'O
         4 002267   000600 000044 2                  BDSC    SIZE                     by=0,bit=0,n=36
         4 002270   100000 200011                    BDSC    0,,PR1                   by=1,bit=0,n=9

             20814    1   PP$ = PINCRC( PP$, 2 ) ;

  20814  4 002271   400000 036007                    ADLQ    -131072,DL
         4 002272   000601 756000 2                  STQ     PP$

             20815    1   PP$ -> VLP$PNAME = VLP_LINK_PNAME ;

  20815  4 002273   000601 471400 2                  LDP1    PP$
         4 002274   000100 101500                    MRL     fill='000'O
         4 002275   100000 000001                    ADSC9   0,,PR1                   cn=0,n=1
         4 002276   200010 000002                    ADSC9   EXTWID+1,,AUTO           cn=0,n=2
         4 002277   200010 221100                    LDX1    EXTWID+1,,AUTO
         4 002300   000001 622011                    EAX2    1,X1
         4 002301   000140 100400                    MLR     fill='000'O
         4 002302   000017 000014 3                  ADSC9   VLP_LINK_PNAME           cn=0,n=12
         4 002303   100000 000012                    ADSC9   0,,PR1                   cn=0,n=*X2

PL6.E3A0      #001=ASD$BUILD_PRO File=ASD$BUILD_PRO.:E05TSI                      TUE 07/29/97 09:44 Page:155
             20816    1   PP$ = PINCRC( PP$, SIZE ) ;

  20816  4 002304   000600 236000 2                  LDQ     SIZE
         4 002305   000020 736000                    QLS     16
         4 002306   000601 036000 2                  ADLQ    PP$
         4 002307   000601 756000 2                  STQ     PP$

      769    20818
      770    20819        %MOVE_VLP( S_VLP = VLP_LINK_LINK,
      771    20820        B$VLP = VLP$LINK ,
      772    20821        T_TYPE = %KL_PRMID_LINK ) ;
             20822        %LSET LISTDIR='0'B;

             20825    1   PP$ -> PP$STRCT.TYPE = 23 ;

  20825  4 002310   000601 471400 2                  LDP1    PP$
         4 002311   003100 061400                    CSR     bolr='003'O
         4 002312   000025 000044 5                  BDSC    21                       by=0,bit=0,n=36
         4 002313   100000 000011                    BDSC    0,,PR1                   by=0,bit=0,n=9

             20826    1   SIZE = LENGTHC( VLP_LINK_LINK ) ;

  20826  4 002314   000012 235007                    LDA     10,DL
         4 002315   000600 755000 2                  STA     SIZE

             20827    1   PP$ -> PP$STRCT.SIZE = SIZE ;

  20827  4 002316   003100 061400                    CSR     bolr='003'O
         4 002317   000600 000044 2                  BDSC    SIZE                     by=0,bit=0,n=36
         4 002320   100000 200011                    BDSC    0,,PR1                   by=1,bit=0,n=9

             20828    1   PP$ = PINCRC( PP$, 2 ) ;

  20828  4 002321   400000 036007                    ADLQ    -131072,DL
         4 002322   000601 756000 2                  STQ     PP$

             20829    1   PP$ -> VLP$LINK = VLP_LINK_LINK ;
PL6.E3A0      #001=ASD$BUILD_PRO File=ASD$BUILD_PRO.:E05TSI                      TUE 07/29/97 09:44 Page:156

  20829  4 002323   000601 471400 2                  LDP1    PP$
         4 002324   000100 100400                    MLR     fill='000'O
         4 002325   000161 000012 3                  ADSC9   VLP_LINK_LINK            cn=0,n=10
         4 002326   100000 000012                    ADSC9   0,,PR1                   cn=0,n=10

             20830    1   PP$ = PINCRC( PP$, SIZE ) ;

  20830  4 002327   000600 236000 2                  LDQ     SIZE
         4 002330   000020 736000                    QLS     16
         4 002331   000601 036000 2                  ADLQ    PP$
         4 002332   000601 756000 2                  STQ     PP$

      773    20832                                                              /* Get actual record size. */
      774    20833    1   P_ARS = POFFC( PP$, ADDR(PRO_BUF) ) ;

  20833  4 002333   200003 236100                    LDQ     @PRO_BUF,,AUTO
         4 002334   000020 772000                    QRL     16
         4 002335   200010 756100                    STQ     EXTWID+1,,AUTO
         4 002336   000601 236000 2                  LDQ     PP$
         4 002337   000020 772000                    QRL     16
         4 002340   200010 136100                    SBLQ    EXTWID+1,,AUTO
         4 002341   200004 471500                    LDP1    @P_ARS,,AUTO
         4 002342   100000 756100                    STQ     0,,PR1

      775    20834    1   PRO_KEY = VLP_LINK_PNAME ;

  20834  4 002343   000000 100400                    MLR     fill='000'O
         4 002344   000017 000014 3                  ADSC9   VLP_LINK_PNAME           cn=0,n=12
         4 002345   000572 000014 2                  ADSC9   PRO_KEY                  cn=0,n=12

      776    20835
      777    20836    1   CALL ASD$WRITE_PRO( PRO_KEY, PRO_BUF, P_ARS-1 ) ;

  20836  4 002346   100000 235100                    LDA     0,,PR1
         4 002347   000001 135007                    SBLA    1,DL
         4 002350   200010 755100                    STA     EXTWID+1,,AUTO
PL6.E3A0      #001=ASD$BUILD_PRO File=ASD$BUILD_PRO.:E05TSI                      TUE 07/29/97 09:44 Page:157
         4 002351   200010 633500                    EPPR3   EXTWID+1,,AUTO
         4 002352   200013 453500                    STP3    EXTWID+4,,AUTO
         4 002353   200003 236100                    LDQ     @PRO_BUF,,AUTO
         4 002354   200012 756100                    STQ     EXTWID+3,,AUTO
         4 002355   000014 236000 5                  LDQ     12
         4 002356   200011 756100                    STQ     EXTWID+2,,AUTO
         4 002357   200011 630500                    EPPR0   EXTWID+2,,AUTO
         4 002360   000021 631400 xsym               EPPR1   B_VECTNIL+17
         4 002361   000000 701000 xent               TSX1    ASD$WRITE_PRO
         4 002362   000000 011000                    NOP     0

      778    20837    1   RETURN;

  20837  4 002363   000000 702200 xent               TSX2  ! X66_ARET

      779    20838
      780    20839    1   ASD$BUILD_$VIRCIR: ENTRY( PRO_BUF, P_ARS );

  20839  4 002364   000000 700200 xent  ASD$BUILD_$* TSX0  ! X66_AUTO_2
         4 002365   000014 000002                    ZERO    12,2

      781    20840
      782    20841
      783    20842                                                              /* Set up $VIRCIR */
      784    20843    1   PRO_BUF = AS_BLANK ;

  20843  4 002366   200003 470500                    LDP0    @PRO_BUF,,AUTO
         4 002367   040100 100400                    MLR     fill='040'O
         4 002370   000000 000001 xsym               ADSC9   AS_BLANK                 cn=0,n=1
         4 002371   000000 002000                    ADSC9   0,,PR0                   cn=0,n=1024

      785    20844    1   PP$ = ADDR(PRO_BUF);

  20844  4 002372   200003 236100                    LDQ     @PRO_BUF,,AUTO
         4 002373   000601 756000 2                  STQ     PP$

      786    20845                                                              /* Set up header */
PL6.E3A0      #001=ASD$BUILD_PRO File=ASD$BUILD_PRO.:E05TSI                      TUE 07/29/97 09:44 Page:158
      787    20846    1   PRO_HDR.TTYP = %KLTY_VIRCIR# ;

  20846  4 002374   010000 236003                    LDQ     4096,DU
         4 002375   000000 552040 2                  STBQ    PRO_HDR,'40'O

      788    20847    1   PRO_HDR.WIDTH = 0;

  20847  4 002376   000000 236003                    LDQ     0,DU
         4 002377   000000 552020 2                  STBQ    PRO_HDR,'20'O

      789    20848    1   PRO_HDR.LINES = 0;

  20848  4 002400   000000 220003                    LDX0    0,DU
         4 002401   000000 440000 2                  SXL0    PRO_HDR

      790    20849    1   PRO_HDR.ATTR.GRLGL = %NO# ;

  20849  4 002402   000001 236000 5                  LDQ     1
         4 002403   000001 356000 2                  ANSQ    PRO_HDR+1

      791    20850    1   PRO_HDR.ATTR.TRANSLGL = %NO# ;

  20850  4 002404   000002 236000 5                  LDQ     2
         4 002405   000001 356000 2                  ANSQ    PRO_HDR+1

      792    20851    1   PRO_HDR.ATTR.NOXLATE = %NO# ;

  20851  4 002406   000003 236000 5                  LDQ     3
         4 002407   000001 356000 2                  ANSQ    PRO_HDR+1

      793    20852    1   PRO_HDR.ATTR.UPPERCASE = %YES#;

  20852  4 002410   000040 236003                    LDQ     32,DU
         4 002411   000001 256000 2                  ORSQ    PRO_HDR+1

      794    20853    1   PRO_HDR.ATTR.NATL = %NO# ;

PL6.E3A0      #001=ASD$BUILD_PRO File=ASD$BUILD_PRO.:E05TSI                      TUE 07/29/97 09:44 Page:159
  20853  4 002412   000004 236000 5                  LDQ     4
         4 002413   000001 356000 2                  ANSQ    PRO_HDR+1

      795    20854    1   PRO_HDR.ATTR.TRUOVRPRT = %NO#;

  20854  4 002414   000015 236000 5                  LDQ     13
         4 002415   000001 356000 2                  ANSQ    PRO_HDR+1

      796    20855    1   PRO_HDR.ATTR.APL = %NO#;

  20855  4 002416   000016 236000 5                  LDQ     14
         4 002417   000001 356000 2                  ANSQ    PRO_HDR+1

      797    20856    1   PRO_HDR.ATTR.BIN = %NO# ;

  20856  4 002420   000005 236000 5                  LDQ     5
         4 002421   000001 356000 2                  ANSQ    PRO_HDR+1

      798    20857    1   PRO_HDR.ATTR.LCASE = %NO#;

  20857  4 002422   000017 236000 5                  LDQ     15
         4 002423   000001 356000 2                  ANSQ    PRO_HDR+1

      799    20858    1   PRO_HDR.IO.INPUT = %YES# ;

  20858  4 002424   400000 236007                    LDQ     -131072,DL
         4 002425   000001 256000 2                  ORSQ    PRO_HDR+1

      800    20859    1   PRO_HDR.IO.OUTPUT = %YES# ;

  20859  4 002426   200000 236007                    LDQ     65536,DL
         4 002427   000001 256000 2                  ORSQ    PRO_HDR+1

      801    20860    1   PRO_HDR.DDEV.LP = %NO# ;

  20860  4 002430   000020 236000 5                  LDQ     16
         4 002431   000001 356000 2                  ANSQ    PRO_HDR+1
PL6.E3A0      #001=ASD$BUILD_PRO File=ASD$BUILD_PRO.:E05TSI                      TUE 07/29/97 09:44 Page:160

      802    20861    1   PRO_HDR.DDEV.CP = %NO# ;

  20861  4 002432   000006 236000 5                  LDQ     6
         4 002433   000001 356000 2                  ANSQ    PRO_HDR+1

      803    20862    1   PRO_HDR.DDEV.IC = %NO# ;

  20862  4 002434   000021 236000 5                  LDQ     17
         4 002435   000001 356000 2                  ANSQ    PRO_HDR+1

      804    20863    1   PRO_HDR.DDEV.GRAPHICS_OK = %NO#;

  20863  4 002436   000007 236000 5                  LDQ     7
         4 002437   000001 356000 2                  ANSQ    PRO_HDR+1

      805    20864                                                              /* Move header */
      806    20865    1   PP$ -> PRO$HDR = PRO_HDR ;

  20865  4 002440   000601 471400 2                  LDP1    PP$
         4 002441   000100 100400                    MLR     fill='000'O
         4 002442   000000 000120 2                  ADSC9   PRO_HDR                  cn=0,n=80
         4 002443   100000 000120                    ADSC9   0,,PR1                   cn=0,n=80

      807    20866    1   PP$ = PINCRW( PP$, LENGTHW( PRO_HDR ) ) ;

  20866  4 002444   000601 236000 2                  LDQ     PP$
         4 002445   000024 036003                    ADLQ    20,DU
         4 002446   000601 756000 2                  STQ     PP$

      808    20867                                                              /* Profile name */
      809    20868        %MOVE_VLP( S_VLP = VLP_VIRCIR_PNAME ,
      810    20869        B$VLP = VLP$PNAME ,
      811    20870        T_TYPE = %KV_PRMID_PROFILE ) ;
             20871        %LSET LISTDIR='0'B;

             20874    1   PP$ -> PP$STRCT.TYPE = 3 ;
PL6.E3A0      #001=ASD$BUILD_PRO File=ASD$BUILD_PRO.:E05TSI                      TUE 07/29/97 09:44 Page:161

  20874  4 002447   000601 471400 2                  LDP1    PP$
         4 002450   003100 061400                    CSR     bolr='003'O
         4 002451   000005 000044 xsym               BDSC    B_VECTNIL+5              by=0,bit=0,n=36
         4 002452   100000 000011                    BDSC    0,,PR1                   by=0,bit=0,n=9

             20875    1   SIZE = LENGTHC( VLP_VIRCIR_PNAME ) ;

  20875  4 002453   000014 235007                    LDA     12,DL
         4 002454   000600 755000 2                  STA     SIZE

             20876    1   PP$ -> PP$STRCT.SIZE = SIZE ;

  20876  4 002455   003100 061400                    CSR     bolr='003'O
         4 002456   000600 000044 2                  BDSC    SIZE                     by=0,bit=0,n=36
         4 002457   100000 200011                    BDSC    0,,PR1                   by=1,bit=0,n=9

             20877    1   PP$ = PINCRC( PP$, 2 ) ;

  20877  4 002460   400000 036007                    ADLQ    -131072,DL
         4 002461   000601 756000 2                  STQ     PP$

             20878    1   PP$ -> VLP$PNAME = VLP_VIRCIR_PNAME ;

  20878  4 002462   000601 471400 2                  LDP1    PP$
         4 002463   000100 101500                    MRL     fill='000'O
         4 002464   100000 000001                    ADSC9   0,,PR1                   cn=0,n=1
         4 002465   200010 000002                    ADSC9   EXTWID+1,,AUTO           cn=0,n=2
         4 002466   200010 221100                    LDX1    EXTWID+1,,AUTO
         4 002467   000001 622011                    EAX2    1,X1
         4 002470   000140 100400                    MLR     fill='000'O
         4 002471   000025 000014 3                  ADSC9   VLP_VIRCIR_PNAME         cn=0,n=12
         4 002472   100000 000012                    ADSC9   0,,PR1                   cn=0,n=*X2

             20879    1   PP$ = PINCRC( PP$, SIZE ) ;

  20879  4 002473   000600 236000 2                  LDQ     SIZE
PL6.E3A0      #001=ASD$BUILD_PRO File=ASD$BUILD_PRO.:E05TSI                      TUE 07/29/97 09:44 Page:162
         4 002474   000020 736000                    QLS     16
         4 002475   000601 036000 2                  ADLQ    PP$
         4 002476   000601 756000 2                  STQ     PP$

      812    20881
      813    20882        %MOVE_VLP( S_VLP = VLP_VIRCIR_VIRCIR,
      814    20883        B$VLP = VLP$VIRCIR ,
      815    20884        T_TYPE = %KL_PRMID_VIRCIR ) ;
             20885        %LSET LISTDIR='0'B;

             20888    1   PP$ -> PP$STRCT.TYPE = 27 ;

  20888  4 002477   000601 471400 2                  LDP1    PP$
         4 002500   003100 061400                    CSR     bolr='003'O
         4 002501   000026 000044 5                  BDSC    22                       by=0,bit=0,n=36
         4 002502   100000 000011                    BDSC    0,,PR1                   by=0,bit=0,n=9

             20889    1   SIZE = LENGTHC( VLP_VIRCIR_VIRCIR ) ;

  20889  4 002503   000024 235007                    LDA     20,DL
         4 002504   000600 755000 2                  STA     SIZE

             20890    1   PP$ -> PP$STRCT.SIZE = SIZE ;

  20890  4 002505   003100 061400                    CSR     bolr='003'O
         4 002506   000600 000044 2                  BDSC    SIZE                     by=0,bit=0,n=36
         4 002507   100000 200011                    BDSC    0,,PR1                   by=1,bit=0,n=9

             20891    1   PP$ = PINCRC( PP$, 2 ) ;

  20891  4 002510   400000 036007                    ADLQ    -131072,DL
         4 002511   000601 756000 2                  STQ     PP$

             20892    1   PP$ -> VLP$VIRCIR = VLP_VIRCIR_VIRCIR ;

  20892  4 002512   000601 471400 2                  LDP1    PP$
         4 002513   000100 100400                    MLR     fill='000'O
PL6.E3A0      #001=ASD$BUILD_PRO File=ASD$BUILD_PRO.:E05TSI                      TUE 07/29/97 09:44 Page:163
         4 002514   000164 000024 3                  ADSC9   VLP_VIRCIR_VIRCIR        cn=0,n=20
         4 002515   100000 000024                    ADSC9   0,,PR1                   cn=0,n=20

             20893    1   PP$ = PINCRC( PP$, SIZE ) ;

  20893  4 002516   000600 236000 2                  LDQ     SIZE
         4 002517   000020 736000                    QLS     16
         4 002520   000601 036000 2                  ADLQ    PP$
         4 002521   000601 756000 2                  STQ     PP$

      816    20895                                                              /* Get actual record size. */
      817    20896    1   P_ARS = POFFC( PP$, ADDR(PRO_BUF) ) ;

  20896  4 002522   200003 236100                    LDQ     @PRO_BUF,,AUTO
         4 002523   000020 772000                    QRL     16
         4 002524   200010 756100                    STQ     EXTWID+1,,AUTO
         4 002525   000601 236000 2                  LDQ     PP$
         4 002526   000020 772000                    QRL     16
         4 002527   200010 136100                    SBLQ    EXTWID+1,,AUTO
         4 002530   200004 471500                    LDP1    @P_ARS,,AUTO
         4 002531   100000 756100                    STQ     0,,PR1

      818    20897    1   PRO_KEY = VLP_VIRCIR_PNAME ;

  20897  4 002532   000000 100400                    MLR     fill='000'O
         4 002533   000025 000014 3                  ADSC9   VLP_VIRCIR_PNAME         cn=0,n=12
         4 002534   000572 000014 2                  ADSC9   PRO_KEY                  cn=0,n=12

      819    20898
      820    20899    1   CALL ASD$WRITE_PRO( PRO_KEY, PRO_BUF, P_ARS-1 ) ;

  20899  4 002535   100000 235100                    LDA     0,,PR1
         4 002536   000001 135007                    SBLA    1,DL
         4 002537   200010 755100                    STA     EXTWID+1,,AUTO
         4 002540   200010 633500                    EPPR3   EXTWID+1,,AUTO
         4 002541   200013 453500                    STP3    EXTWID+4,,AUTO
         4 002542   200003 236100                    LDQ     @PRO_BUF,,AUTO
PL6.E3A0      #001=ASD$BUILD_PRO File=ASD$BUILD_PRO.:E05TSI                      TUE 07/29/97 09:44 Page:164
         4 002543   200012 756100                    STQ     EXTWID+3,,AUTO
         4 002544   000014 236000 5                  LDQ     12
         4 002545   200011 756100                    STQ     EXTWID+2,,AUTO
         4 002546   200011 630500                    EPPR0   EXTWID+2,,AUTO
         4 002547   000021 631400 xsym               EPPR1   B_VECTNIL+17
         4 002550   000000 701000 xent               TSX1    ASD$WRITE_PRO
         4 002551   000000 011000                    NOP     0

      821    20900    1   RETURN;

  20900  4 002552   000000 702200 xent               TSX2  ! X66_ARET

      822    20901
      823    20902
      824    20903    1   ASD$BUILD_$URP: ENTRY( PRO_BUF, P_ARS );

  20903  4 002553   000000 700200 xent  ASD$BUILD_$* TSX0  ! X66_AUTO_2
         4 002554   000014 000002                    ZERO    12,2

      825    20904
      826    20905
      827    20906                                                              /* Set up $URP. */
      828    20907    1   PRO_BUF = AS_BLANK ;

  20907  4 002555   200003 470500                    LDP0    @PRO_BUF,,AUTO
         4 002556   040100 100400                    MLR     fill='040'O
         4 002557   000000 000001 xsym               ADSC9   AS_BLANK                 cn=0,n=1
         4 002560   000000 002000                    ADSC9   0,,PR0                   cn=0,n=1024

      829    20908    1   PP$ = ADDR( PRO_BUF ) ;

  20908  4 002561   200003 236100                    LDQ     @PRO_BUF,,AUTO
         4 002562   000601 756000 2                  STQ     PP$

      830    20909                                                              /*   Set up header.   */
      831    20910    1   PRO_HDR.TTYP = %KLTY_URP# ;

PL6.E3A0      #001=ASD$BUILD_PRO File=ASD$BUILD_PRO.:E05TSI                      TUE 07/29/97 09:44 Page:165
  20910  4 002563   006000 236003                    LDQ     3072,DU
         4 002564   000000 552040 2                  STBQ    PRO_HDR,'40'O

      832    20911                                                            /*   Check for extra width.  */
      833    20912    1   IF VLP_URP_PLATEN.EXTWID# = %YES# THEN

  20912  4 002565   000115 430000 3                  FSZN    VLP_URP_PLATEN+1
         4 002566   002572 605000 4                  TPL     s:20915

      834    20913    1      EXTWID = 1 ;

  20913  4 002567   000001 235007                    LDA     1,DL
         4 002570   200007 755100                    STA     EXTWID,,AUTO
         4 002571   002573 710000 4                  TRA     s:20916

      835    20914    1   ELSE
      836    20915    1      EXTWID = 0 ;

  20915  4 002572   200007 450100                    STZ     EXTWID,,AUTO

      837    20916    1   PRO_HDR.WIDTH = VLP_URP_PLATEN.WIDTH# + ( 254*EXTWID ) ;

  20916  4 002573   000114 236000 3                  LDQ     VLP_URP_PLATEN
         4 002574   000033 772000                    QRL     27
         4 002575   000377 376007                    ANQ     255,DL
         4 002576   200010 756100                    STQ     EXTWID+1,,AUTO
         4 002577   200007 236100                    LDQ     EXTWID,,AUTO
         4 002600   000376 402007                    MPY     254,DL
         4 002601   200010 036100                    ADLQ    EXTWID+1,,AUTO
         4 002602   000022 736000                    QLS     18
         4 002603   000000 552020 2                  STBQ    PRO_HDR,'20'O

      838    20917    1   PRO_HDR.LINES = VLP_URP_PLATEN.LENGTH# ;

  20917  4 002604   000114 220000 3                  LDX0    VLP_URP_PLATEN
         4 002605   000377 360003                    ANX0    255,DU
         4 002606   000000 440000 2                  SXL0    PRO_HDR
PL6.E3A0      #001=ASD$BUILD_PRO File=ASD$BUILD_PRO.:E05TSI                      TUE 07/29/97 09:44 Page:166

      839    20918    1   PRO_HDR.ATTR.GRLGL = %NO# ;

  20918  4 002607   000001 236000 5                  LDQ     1
         4 002610   000001 356000 2                  ANSQ    PRO_HDR+1

      840    20919    1   PRO_HDR.ATTR.TRANSLGL = %NO# ;

  20919  4 002611   000002 236000 5                  LDQ     2
         4 002612   000001 356000 2                  ANSQ    PRO_HDR+1

      841    20920    1   PRO_HDR.ATTR.NOXLATE = %NO# ;

  20920  4 002613   000003 236000 5                  LDQ     3
         4 002614   000001 356000 2                  ANSQ    PRO_HDR+1

      842    20921    1   PRO_HDR.ATTR.UPPERCASE = %YES#;

  20921  4 002615   000040 236003                    LDQ     32,DU
         4 002616   000001 256000 2                  ORSQ    PRO_HDR+1

      843    20922    1   PRO_HDR.ATTR.NATL = %NO# ;

  20922  4 002617   000004 236000 5                  LDQ     4
         4 002620   000001 356000 2                  ANSQ    PRO_HDR+1

      844    20923    1   PRO_HDR.ATTR.TRUOVRPRT = VLP_URP_TRMATTR.TRUOVRPRT# ;

  20923  4 002621   000060 236000 3                  LDQ     VLP_URP_TRMATTR
         4 002622   000016 736000                    QLS     14
         4 002623   000001 676000 2                  ERQ     PRO_HDR+1
         4 002624   000010 376003                    ANQ     8,DU
         4 002625   000001 656000 2                  ERSQ    PRO_HDR+1

      845    20924    1   PRO_HDR.ATTR.APL = VLP_URP_TRMATTR.APL# ;

  20924  4 002626   000060 236000 3                  LDQ     VLP_URP_TRMATTR
PL6.E3A0      #001=ASD$BUILD_PRO File=ASD$BUILD_PRO.:E05TSI                      TUE 07/29/97 09:44 Page:167
         4 002627   000017 736000                    QLS     15
         4 002630   000001 676000 2                  ERQ     PRO_HDR+1
         4 002631   000004 376003                    ANQ     4,DU
         4 002632   000001 656000 2                  ERSQ    PRO_HDR+1

      846    20925    1   PRO_HDR.ATTR.BIN = %NO# ;

  20925  4 002633   000005 236000 5                  LDQ     5
         4 002634   000001 356000 2                  ANSQ    PRO_HDR+1

      847    20926    1   PRO_HDR.ATTR.LCASE = VLP_URP_TRMATTR.LOWERCASEPRINTS# ;

  20926  4 002635   000060 236000 3                  LDQ     VLP_URP_TRMATTR
         4 002636   000021 736000                    QLS     17
         4 002637   000001 676000 2                  ERQ     PRO_HDR+1
         4 002640   000001 376003                    ANQ     1,DU
         4 002641   000001 656000 2                  ERSQ    PRO_HDR+1

      848    20927    1   PRO_HDR.IO.INPUT = %YES# ;

  20927  4 002642   400000 236007                    LDQ     -131072,DL
         4 002643   000001 256000 2                  ORSQ    PRO_HDR+1

      849    20928    1   PRO_HDR.IO.OUTPUT = %YES# ;

  20928  4 002644   200000 236007                    LDQ     65536,DL
         4 002645   000001 256000 2                  ORSQ    PRO_HDR+1

      850    20929    1   PRO_HDR.DDEV.LP = %YES# ;

  20929  4 002646   000400 236007                    LDQ     256,DL
         4 002647   000001 256000 2                  ORSQ    PRO_HDR+1

      851    20930    1   PRO_HDR.DDEV.CP = %NO# ;

  20930  4 002650   000006 236000 5                  LDQ     6
         4 002651   000001 356000 2                  ANSQ    PRO_HDR+1
PL6.E3A0      #001=ASD$BUILD_PRO File=ASD$BUILD_PRO.:E05TSI                      TUE 07/29/97 09:44 Page:168

      852    20931    1   PRO_HDR.DDEV.IC = %YES# ;

  20931  4 002652   000100 236007                    LDQ     64,DL
         4 002653   000001 256000 2                  ORSQ    PRO_HDR+1

      853    20932    1   PRO_HDR.DDEV.GRAPHICS_OK = %NO#;

  20932  4 002654   000007 236000 5                  LDQ     7
         4 002655   000001 356000 2                  ANSQ    PRO_HDR+1

      854    20933                                                              /*   Mover header.   */
      855    20934    1   PP$ -> PRO$HDR = PRO_HDR ;

  20934  4 002656   000601 471400 2                  LDP1    PP$
         4 002657   000100 100400                    MLR     fill='000'O
         4 002660   000000 000120 2                  ADSC9   PRO_HDR                  cn=0,n=80
         4 002661   100000 000120                    ADSC9   0,,PR1                   cn=0,n=80

      856    20935    1   PP$ = PINCRW( PP$, SIZEW( PRO_HDR ) ) ;

  20935  4 002662   000601 236000 2                  LDQ     PP$
         4 002663   000024 036003                    ADLQ    20,DU
         4 002664   000601 756000 2                  STQ     PP$

      857    20936                                                              /*  Profile name   */
      858    20937        %MOVE_VLP( S_VLP = VLP_URP_PNAME ,
      859    20938        B$VLP = VLP$PNAME ,
      860    20939        T_TYPE = %KV_PRMID_PROFILE ) ;
             20940        %LSET LISTDIR='0'B;

             20943    1   PP$ -> PP$STRCT.TYPE = 3 ;

  20943  4 002665   000601 471400 2                  LDP1    PP$
         4 002666   003100 061400                    CSR     bolr='003'O
         4 002667   000005 000044 xsym               BDSC    B_VECTNIL+5              by=0,bit=0,n=36
         4 002670   100000 000011                    BDSC    0,,PR1                   by=0,bit=0,n=9
PL6.E3A0      #001=ASD$BUILD_PRO File=ASD$BUILD_PRO.:E05TSI                      TUE 07/29/97 09:44 Page:169

             20944    1   SIZE = LENGTHC( VLP_URP_PNAME ) ;

  20944  4 002671   000014 235007                    LDA     12,DL
         4 002672   000600 755000 2                  STA     SIZE

             20945    1   PP$ -> PP$STRCT.SIZE = SIZE ;

  20945  4 002673   003100 061400                    CSR     bolr='003'O
         4 002674   000600 000044 2                  BDSC    SIZE                     by=0,bit=0,n=36
         4 002675   100000 200011                    BDSC    0,,PR1                   by=1,bit=0,n=9

             20946    1   PP$ = PINCRC( PP$, 2 ) ;

  20946  4 002676   400000 036007                    ADLQ    -131072,DL
         4 002677   000601 756000 2                  STQ     PP$

             20947    1   PP$ -> VLP$PNAME = VLP_URP_PNAME ;

  20947  4 002700   000601 471400 2                  LDP1    PP$
         4 002701   000100 101500                    MRL     fill='000'O
         4 002702   100000 000001                    ADSC9   0,,PR1                   cn=0,n=1
         4 002703   200010 000002                    ADSC9   EXTWID+1,,AUTO           cn=0,n=2
         4 002704   200010 221100                    LDX1    EXTWID+1,,AUTO
         4 002705   000001 622011                    EAX2    1,X1
         4 002706   000140 100400                    MLR     fill='000'O
         4 002707   000022 000014 3                  ADSC9   VLP_URP_PNAME            cn=0,n=12
         4 002710   100000 000012                    ADSC9   0,,PR1                   cn=0,n=*X2

             20948    1   PP$ = PINCRC( PP$, SIZE ) ;

  20948  4 002711   000600 236000 2                  LDQ     SIZE
         4 002712   000020 736000                    QLS     16
         4 002713   000601 036000 2                  ADLQ    PP$
         4 002714   000601 756000 2                  STQ     PP$

      861    20950                                                              /*  Term. Control.   */
PL6.E3A0      #001=ASD$BUILD_PRO File=ASD$BUILD_PRO.:E05TSI                      TUE 07/29/97 09:44 Page:170
      862    20951        %MOVE_VLP( S_VLP = VLP_URP_TRMCTL ,
      863    20952        B$VLP = VLP$TRMCTL ,
      864    20953        T_TYPE = %KV_PRMID_TRMCTL ) ;
             20954        %LSET LISTDIR='0'B;

             20957    1   PP$ -> PP$STRCT.TYPE = 4 ;

  20957  4 002715   000601 471400 2                  LDP1    PP$
         4 002716   003100 061400                    CSR     bolr='003'O
         4 002717   000006 000044 xsym               BDSC    B_VECTNIL+6              by=0,bit=0,n=36
         4 002720   100000 000011                    BDSC    0,,PR1                   by=0,bit=0,n=9

             20958    1   SIZE = LENGTHC( VLP_URP_TRMCTL ) ;

  20958  4 002721   000020 235007                    LDA     16,DL
         4 002722   000600 755000 2                  STA     SIZE

             20959    1   PP$ -> PP$STRCT.SIZE = SIZE ;

  20959  4 002723   003100 061400                    CSR     bolr='003'O
         4 002724   000600 000044 2                  BDSC    SIZE                     by=0,bit=0,n=36
         4 002725   100000 200011                    BDSC    0,,PR1                   by=1,bit=0,n=9

             20960    1   PP$ = PINCRC( PP$, 2 ) ;

  20960  4 002726   400000 036007                    ADLQ    -131072,DL
         4 002727   000601 756000 2                  STQ     PP$

             20961    1   PP$ -> VLP$TRMCTL = VLP_URP_TRMCTL ;

  20961  4 002730   000601 471400 2                  LDP1    PP$
         4 002731   003100 060400                    CSL     bolr='003'O
         4 002732   000612 000220 2                  BDSC    VLP_URP_TRMCTL           by=0,bit=0,n=144
         4 002733   100000 000220                    BDSC    0,,PR1                   by=0,bit=0,n=144

             20962    1   PP$ = PINCRC( PP$, SIZE ) ;

PL6.E3A0      #001=ASD$BUILD_PRO File=ASD$BUILD_PRO.:E05TSI                      TUE 07/29/97 09:44 Page:171
  20962  4 002734   000600 236000 2                  LDQ     SIZE
         4 002735   000020 736000                    QLS     16
         4 002736   000601 036000 2                  ADLQ    PP$
         4 002737   000601 756000 2                  STQ     PP$

      865    20964                                                              /*   Term. Attr.   */
      866    20965        %MOVE_VLP( S_VLP = VLP_URP_TRMATTR ,
      867    20966        B$VLP= VLP$TRMATTR ,
      868    20967        T_TYPE = %KV_PRMID_TRMATTR ) ;
             20968        %LSET LISTDIR='0'B;

             20971    1   PP$ -> PP$STRCT.TYPE = 7 ;

  20971  4 002740   000601 471400 2                  LDP1    PP$
         4 002741   003100 061400                    CSR     bolr='003'O
         4 002742   000011 000044 xsym               BDSC    B_VECTNIL+9              by=0,bit=0,n=36
         4 002743   100000 000011                    BDSC    0,,PR1                   by=0,bit=0,n=9

             20972    1   SIZE = LENGTHC( VLP_URP_TRMATTR ) ;

  20972  4 002744   000050 235007                    LDA     40,DL
         4 002745   000600 755000 2                  STA     SIZE

             20973    1   PP$ -> PP$STRCT.SIZE = SIZE ;

  20973  4 002746   003100 061400                    CSR     bolr='003'O
         4 002747   000600 000044 2                  BDSC    SIZE                     by=0,bit=0,n=36
         4 002750   100000 200011                    BDSC    0,,PR1                   by=1,bit=0,n=9

             20974    1   PP$ = PINCRC( PP$, 2 ) ;

  20974  4 002751   400000 036007                    ADLQ    -131072,DL
         4 002752   000601 756000 2                  STQ     PP$

             20975    1   PP$ -> VLP$TRMATTR = VLP_URP_TRMATTR ;

  20975  4 002753   000601 471400 2                  LDP1    PP$
PL6.E3A0      #001=ASD$BUILD_PRO File=ASD$BUILD_PRO.:E05TSI                      TUE 07/29/97 09:44 Page:172
         4 002754   000100 100400                    MLR     fill='000'O
         4 002755   000060 000050 3                  ADSC9   VLP_URP_TRMATTR          cn=0,n=40
         4 002756   100000 000050                    ADSC9   0,,PR1                   cn=0,n=40

             20976    1   PP$ = PINCRC( PP$, SIZE ) ;

  20976  4 002757   000600 236000 2                  LDQ     SIZE
         4 002760   000020 736000                    QLS     16
         4 002761   000601 036000 2                  ADLQ    PP$
         4 002762   000601 756000 2                  STQ     PP$

      869    20978                                                              /*   Platen   */
      870    20979        %MOVE_VLP( S_VLP = VLP_URP_PLATEN ,
      871    20980        B$VLP = VLP$PLATEN ,
      872    20981        T_TYPE = %KV_PRMID_PLATEN ) ;
             20982        %LSET LISTDIR='0'B;

             20985    1   PP$ -> PP$STRCT.TYPE = 8 ;

  20985  4 002763   000601 471400 2                  LDP1    PP$
         4 002764   003100 061400                    CSR     bolr='003'O
         4 002765   000012 000044 xsym               BDSC    B_VECTNIL+10             by=0,bit=0,n=36
         4 002766   100000 000011                    BDSC    0,,PR1                   by=0,bit=0,n=9

             20986    1   SIZE = LENGTHC( VLP_URP_PLATEN ) ;

  20986  4 002767   000020 235007                    LDA     16,DL
         4 002770   000600 755000 2                  STA     SIZE

             20987    1   PP$ -> PP$STRCT.SIZE = SIZE ;

  20987  4 002771   003100 061400                    CSR     bolr='003'O
         4 002772   000600 000044 2                  BDSC    SIZE                     by=0,bit=0,n=36
         4 002773   100000 200011                    BDSC    0,,PR1                   by=1,bit=0,n=9

             20988    1   PP$ = PINCRC( PP$, 2 ) ;

PL6.E3A0      #001=ASD$BUILD_PRO File=ASD$BUILD_PRO.:E05TSI                      TUE 07/29/97 09:44 Page:173
  20988  4 002774   400000 036007                    ADLQ    -131072,DL
         4 002775   000601 756000 2                  STQ     PP$

             20989    1   PP$ -> VLP$PLATEN = VLP_URP_PLATEN ;

  20989  4 002776   000601 471400 2                  LDP1    PP$
         4 002777   003100 060400                    CSL     bolr='003'O
         4 003000   000114 000220 3                  BDSC    VLP_URP_PLATEN           by=0,bit=0,n=144
         4 003001   100000 000220                    BDSC    0,,PR1                   by=0,bit=0,n=144

             20990    1   PP$ = PINCRC( PP$, SIZE ) ;

  20990  4 003002   000600 236000 2                  LDQ     SIZE
         4 003003   000020 736000                    QLS     16
         4 003004   000601 036000 2                  ADLQ    PP$
         4 003005   000601 756000 2                  STQ     PP$

      873    20992                                                              /*   Device tabs.   */
      874    20993        %MOVE_VLP( S_VLP = VLP_URP_TAB ,
      875    20994        B$VLP = VLP$TAB ,
      876    20995        T_TYPE = %KV_PRMID_TRMTAB ) ;
             20996        %LSET LISTDIR='0'B;

             20999    1   PP$ -> PP$STRCT.TYPE = 9 ;

  20999  4 003006   000601 471400 2                  LDP1    PP$
         4 003007   003100 061400                    CSR     bolr='003'O
         4 003010   000013 000044 xsym               BDSC    B_VECTNIL+11             by=0,bit=0,n=36
         4 003011   100000 000011                    BDSC    0,,PR1                   by=0,bit=0,n=9

             21000    1   SIZE = LENGTHC( VLP_URP_TAB ) ;

  21000  4 003012   000040 235007                    LDA     32,DL
         4 003013   000600 755000 2                  STA     SIZE

             21001    1   PP$ -> PP$STRCT.SIZE = SIZE ;

PL6.E3A0      #001=ASD$BUILD_PRO File=ASD$BUILD_PRO.:E05TSI                      TUE 07/29/97 09:44 Page:174
  21001  4 003014   003100 061400                    CSR     bolr='003'O
         4 003015   000600 000044 2                  BDSC    SIZE                     by=0,bit=0,n=36
         4 003016   100000 200011                    BDSC    0,,PR1                   by=1,bit=0,n=9

             21002    1   PP$ = PINCRC( PP$, 2 ) ;

  21002  4 003017   400000 036007                    ADLQ    -131072,DL
         4 003020   000601 756000 2                  STQ     PP$

             21003    1   PP$ -> VLP$TAB = VLP_URP_TAB ;

  21003  4 003021   000601 471400 2                  LDP1    PP$
         4 003022   000100 100400                    MLR     fill='000'O
         4 003023   000642 000040 2                  ADSC9   VLP_URP_TAB              cn=0,n=32
         4 003024   100000 000040                    ADSC9   0,,PR1                   cn=0,n=32

             21004    1   PP$ = PINCRC( PP$, SIZE ) ;

  21004  4 003025   000600 236000 2                  LDQ     SIZE
         4 003026   000020 736000                    QLS     16
         4 003027   000601 036000 2                  ADLQ    PP$
         4 003030   000601 756000 2                  STQ     PP$

      877    21006                                                              /* Timing algorhythm */
      878    21007                                                              /* Control character */
      879    21008    1   IF P_ARS ~= 0 THEN GOTO NO_CCHR;

  21008  4 003031   200004 471500                    LDP1    @P_ARS,,AUTO
         4 003032   100000 235100                    LDA     0,,PR1
         4 003033   003057 601000 4                  TNZ     NO_CCHR

      880    21009        %MOVE_VLP( S_VLP = VLP_ASYNC_CCHR ,
      881    21010        B$VLP = VLP$CCHR ,
      882    21011        T_TYPE = %KV_PRMID_CTRCHR ) ;
             21012        %LSET LISTDIR='0'B;

             21015    1   PP$ -> PP$STRCT.TYPE = 15 ;
PL6.E3A0      #001=ASD$BUILD_PRO File=ASD$BUILD_PRO.:E05TSI                      TUE 07/29/97 09:44 Page:175

  21015  4 003034   000601 473400 2                  LDP3    PP$
         4 003035   003100 061400                    CSR     bolr='003'O
         4 003036   000013 000044 5                  BDSC    11                       by=0,bit=0,n=36
         4 003037   300000 000011                    BDSC    0,,PR3                   by=0,bit=0,n=9

             21016    1   SIZE = LENGTHC( VLP_ASYNC_CCHR ) ;

  21016  4 003040   000123 235007                    LDA     83,DL
         4 003041   000600 755000 2                  STA     SIZE

             21017    1   PP$ -> PP$STRCT.SIZE = SIZE ;

  21017  4 003042   003100 061400                    CSR     bolr='003'O
         4 003043   000600 000044 2                  BDSC    SIZE                     by=0,bit=0,n=36
         4 003044   300000 200011                    BDSC    0,,PR3                   by=1,bit=0,n=9

             21018    1   PP$ = PINCRC( PP$, 2 ) ;

  21018  4 003045   400000 036007                    ADLQ    -131072,DL
         4 003046   000601 756000 2                  STQ     PP$

             21019    1   PP$ -> VLP$CCHR = VLP_ASYNC_CCHR ;

  21019  4 003047   000601 473400 2                  LDP3    PP$
         4 003050   000100 100400                    MLR     fill='000'O
         4 003051   000124 000123 3                  ADSC9   VLP_ASYNC_CCHR           cn=0,n=83
         4 003052   300000 000123                    ADSC9   0,,PR3                   cn=0,n=83

             21020    1   PP$ = PINCRC( PP$, SIZE ) ;

  21020  4 003053   000600 236000 2                  LDQ     SIZE
         4 003054   000020 736000                    QLS     16
         4 003055   000601 036000 2                  ADLQ    PP$
         4 003056   000601 756000 2                  STQ     PP$

  21020  4 003057                       NO_CCHR      null
PL6.E3A0      #001=ASD$BUILD_PRO File=ASD$BUILD_PRO.:E05TSI                      TUE 07/29/97 09:44 Page:176
      883    21022    1   NO_CCHR: ;
      884    21023                                                           /*   Get actual record size.  */
      885    21024    1   P_ARS = POFFC( PP$, ADDR(PRO_BUF) ) ;

  21024  4 003057   200003 236100                    LDQ     @PRO_BUF,,AUTO
         4 003060   000020 772000                    QRL     16
         4 003061   200010 756100                    STQ     EXTWID+1,,AUTO
         4 003062   000601 236000 2                  LDQ     PP$
         4 003063   000020 772000                    QRL     16
         4 003064   200010 136100                    SBLQ    EXTWID+1,,AUTO
         4 003065   100000 756100                    STQ     0,,PR1

      886    21025    1   PRO_KEY = VLP_URP_PNAME ;

  21025  4 003066   000000 100400                    MLR     fill='000'O
         4 003067   000022 000014 3                  ADSC9   VLP_URP_PNAME            cn=0,n=12
         4 003070   000572 000014 2                  ADSC9   PRO_KEY                  cn=0,n=12

      887    21026
      888    21027    1   CALL ASD$WRITE_PRO( PRO_KEY, PRO_BUF, P_ARS-1 ) ;

  21027  4 003071   100000 235100                    LDA     0,,PR1
         4 003072   000001 135007                    SBLA    1,DL
         4 003073   200010 755100                    STA     EXTWID+1,,AUTO
         4 003074   200010 633500                    EPPR3   EXTWID+1,,AUTO
         4 003075   200013 453500                    STP3    EXTWID+4,,AUTO
         4 003076   200003 236100                    LDQ     @PRO_BUF,,AUTO
         4 003077   200012 756100                    STQ     EXTWID+3,,AUTO
         4 003100   000014 236000 5                  LDQ     12
         4 003101   200011 756100                    STQ     EXTWID+2,,AUTO
         4 003102   200011 630500                    EPPR0   EXTWID+2,,AUTO
         4 003103   000021 631400 xsym               EPPR1   B_VECTNIL+17
         4 003104   000000 701000 xent               TSX1    ASD$WRITE_PRO
         4 003105   000000 011000                    NOP     0

      889    21028    1   RETURN ;

PL6.E3A0      #001=ASD$BUILD_PRO File=ASD$BUILD_PRO.:E05TSI                      TUE 07/29/97 09:44 Page:177
  21028  4 003106   000000 702200 xent               TSX2  ! X66_ARET

      890    21029
      891    21030
      892    21031    1   ASD$BUILD_$POLLVIP: ENTRY( PRO_BUF, P_ARS );

  21031  4 003107   000000 700200 xent  ASD$BUILD_$* TSX0  ! X66_AUTO_2
         4 003110   000014 000002                    ZERO    12,2

      893    21032
      894    21033
      895    21034                                                          /* Set up $POLLVIP. */
      896    21035    1   PRO_BUF = AS_BLANK ;

  21035  4 003111   200003 470500                    LDP0    @PRO_BUF,,AUTO
         4 003112   040100 100400                    MLR     fill='040'O
         4 003113   000000 000001 xsym               ADSC9   AS_BLANK                 cn=0,n=1
         4 003114   000000 002000                    ADSC9   0,,PR0                   cn=0,n=1024

      897    21036    1   PP$ = ADDR( PRO_BUF ) ;

  21036  4 003115   200003 236100                    LDQ     @PRO_BUF,,AUTO
         4 003116   000601 756000 2                  STQ     PP$

      898    21037                                                              /*   Set up header.   */
      899    21038    1   PRO_HDR.TTYP = %KLTY_HIP_DEV#;

  21038  4 003117   016000 236003                    LDQ     7168,DU
         4 003120   000000 552040 2                  STBQ    PRO_HDR,'40'O

      900    21039                                                            /*   Check for extra width.  */
      901    21040    1   PRO_HDR.WIDTH = 0;

  21040  4 003121   000000 236003                    LDQ     0,DU
         4 003122   000000 552020 2                  STBQ    PRO_HDR,'20'O

      902    21041    1   PRO_HDR.LINES = 0;
PL6.E3A0      #001=ASD$BUILD_PRO File=ASD$BUILD_PRO.:E05TSI                      TUE 07/29/97 09:44 Page:178

  21041  4 003123   000000 220003                    LDX0    0,DU
         4 003124   000000 440000 2                  SXL0    PRO_HDR

      903    21042    1   PRO_HDR.ATTR.TRUOVRPRT =%NO#;

  21042  4 003125   000015 236000 5                  LDQ     13
         4 003126   000001 356000 2                  ANSQ    PRO_HDR+1

      904    21043    1   PRO_HDR.ATTR.APL = %NO#;

  21043  4 003127   000016 236000 5                  LDQ     14
         4 003130   000001 356000 2                  ANSQ    PRO_HDR+1

      905    21044    1   PRO_HDR.ATTR.BIN = %NO# ;

  21044  4 003131   000005 236000 5                  LDQ     5
         4 003132   000001 356000 2                  ANSQ    PRO_HDR+1

      906    21045    1   PRO_HDR.ATTR.LCASE = %NO#;

  21045  4 003133   000017 236000 5                  LDQ     15
         4 003134   000001 356000 2                  ANSQ    PRO_HDR+1

      907    21046    1   PRO_HDR.ATTR.UPPERCASE = %YES# ;

  21046  4 003135   000040 236003                    LDQ     32,DU
         4 003136   000001 256000 2                  ORSQ    PRO_HDR+1

      908    21047    1   PRO_HDR.ATTR.GRLGL = %NO# ;

  21047  4 003137   000001 236000 5                  LDQ     1
         4 003140   000001 356000 2                  ANSQ    PRO_HDR+1

      909    21048    1   PRO_HDR.ATTR.TRANSLGL = %NO# ;

  21048  4 003141   000002 236000 5                  LDQ     2
PL6.E3A0      #001=ASD$BUILD_PRO File=ASD$BUILD_PRO.:E05TSI                      TUE 07/29/97 09:44 Page:179
         4 003142   000001 356000 2                  ANSQ    PRO_HDR+1

      910    21049    1   PRO_HDR.ATTR.NOXLATE = %NO# ;

  21049  4 003143   000003 236000 5                  LDQ     3
         4 003144   000001 356000 2                  ANSQ    PRO_HDR+1

      911    21050    1   PRO_HDR.ATTR.NATL = %NO# ;

  21050  4 003145   000004 236000 5                  LDQ     4
         4 003146   000001 356000 2                  ANSQ    PRO_HDR+1

      912    21051    1   PRO_HDR.IO.INPUT = %YES# ;

  21051  4 003147   400000 236007                    LDQ     -131072,DL
         4 003150   000001 256000 2                  ORSQ    PRO_HDR+1

      913    21052    1   PRO_HDR.IO.OUTPUT = %YES# ;

  21052  4 003151   200000 236007                    LDQ     65536,DL
         4 003152   000001 256000 2                  ORSQ    PRO_HDR+1

      914    21053    1   PRO_HDR.DDEV.LP = %NO# ;

  21053  4 003153   000020 236000 5                  LDQ     16
         4 003154   000001 356000 2                  ANSQ    PRO_HDR+1

      915    21054    1   PRO_HDR.DDEV.CP = %NO# ;

  21054  4 003155   000006 236000 5                  LDQ     6
         4 003156   000001 356000 2                  ANSQ    PRO_HDR+1

      916    21055    1   PRO_HDR.DDEV.IC = %NO# ;

  21055  4 003157   000021 236000 5                  LDQ     17
         4 003160   000001 356000 2                  ANSQ    PRO_HDR+1

PL6.E3A0      #001=ASD$BUILD_PRO File=ASD$BUILD_PRO.:E05TSI                      TUE 07/29/97 09:44 Page:180
      917    21056    1   PRO_HDR.DDEV.GRAPHICS_OK = %NO# ;

  21056  4 003161   000007 236000 5                  LDQ     7
         4 003162   000001 356000 2                  ANSQ    PRO_HDR+1

      918    21057                                                              /*   Mover header.   */
      919    21058    1   PP$ -> PRO$HDR = PRO_HDR ;

  21058  4 003163   000601 471400 2                  LDP1    PP$
         4 003164   000100 100400                    MLR     fill='000'O
         4 003165   000000 000120 2                  ADSC9   PRO_HDR                  cn=0,n=80
         4 003166   100000 000120                    ADSC9   0,,PR1                   cn=0,n=80

      920    21059    1   PP$ = PINCRW( PP$, LENGTHW( PRO_HDR ) ) ;

  21059  4 003167   000601 236000 2                  LDQ     PP$
         4 003170   000024 036003                    ADLQ    20,DU
         4 003171   000601 756000 2                  STQ     PP$

      921    21060                                                              /*  Profile name   */
      922    21061        %MOVE_VLP( S_VLP = VLP_POLLVIP_PNAME ,
      923    21062        B$VLP = VLP$PNAME ,
      924    21063        T_TYPE = %KV_PRMID_PROFILE ) ;
             21064        %LSET LISTDIR='0'B;

             21067    1   PP$ -> PP$STRCT.TYPE = 3 ;

  21067  4 003172   000601 471400 2                  LDP1    PP$
         4 003173   003100 061400                    CSR     bolr='003'O
         4 003174   000005 000044 xsym               BDSC    B_VECTNIL+5              by=0,bit=0,n=36
         4 003175   100000 000011                    BDSC    0,,PR1                   by=0,bit=0,n=9

             21068    1   SIZE = LENGTHC( VLP_POLLVIP_PNAME ) ;

  21068  4 003176   000014 235007                    LDA     12,DL
         4 003177   000600 755000 2                  STA     SIZE

PL6.E3A0      #001=ASD$BUILD_PRO File=ASD$BUILD_PRO.:E05TSI                      TUE 07/29/97 09:44 Page:181
             21069    1   PP$ -> PP$STRCT.SIZE = SIZE ;

  21069  4 003200   003100 061400                    CSR     bolr='003'O
         4 003201   000600 000044 2                  BDSC    SIZE                     by=0,bit=0,n=36
         4 003202   100000 200011                    BDSC    0,,PR1                   by=1,bit=0,n=9

             21070    1   PP$ = PINCRC( PP$, 2 ) ;

  21070  4 003203   400000 036007                    ADLQ    -131072,DL
         4 003204   000601 756000 2                  STQ     PP$

             21071    1   PP$ -> VLP$PNAME = VLP_POLLVIP_PNAME ;

  21071  4 003205   000601 471400 2                  LDP1    PP$
         4 003206   000100 101500                    MRL     fill='000'O
         4 003207   100000 000001                    ADSC9   0,,PR1                   cn=0,n=1
         4 003210   200010 000002                    ADSC9   EXTWID+1,,AUTO           cn=0,n=2
         4 003211   200010 221100                    LDX1    EXTWID+1,,AUTO
         4 003212   000001 622011                    EAX2    1,X1
         4 003213   000140 100400                    MLR     fill='000'O
         4 003214   000030 000014 3                  ADSC9   VLP_POLLVIP_PNAME        cn=0,n=12
         4 003215   100000 000012                    ADSC9   0,,PR1                   cn=0,n=*X2

             21072    1   PP$ = PINCRC( PP$, SIZE ) ;

  21072  4 003216   000600 236000 2                  LDQ     SIZE
         4 003217   000020 736000                    QLS     16
         4 003220   000601 036000 2                  ADLQ    PP$
         4 003221   000601 756000 2                  STQ     PP$

      925    21074                                                              /*  Term. Control.   */
      926    21075        %MOVE_VLP( S_VLP = VLP_POLLVIP_TRMD ,
      927    21076        B$VLP = VLP$TRMD ,
      928    21077        T_TYPE = %KL_PRMID_TRMD ) ;
             21078        %LSET LISTDIR='0'B;

             21081    1   PP$ -> PP$STRCT.TYPE = 13 ;
PL6.E3A0      #001=ASD$BUILD_PRO File=ASD$BUILD_PRO.:E05TSI                      TUE 07/29/97 09:44 Page:182

  21081  4 003222   000601 471400 2                  LDP1    PP$
         4 003223   003100 061400                    CSR     bolr='003'O
         4 003224   000022 000044 5                  BDSC    18                       by=0,bit=0,n=36
         4 003225   100000 000011                    BDSC    0,,PR1                   by=0,bit=0,n=9

             21082    1   SIZE = LENGTHC( VLP_POLLVIP_TRMD ) ;

  21082  4 003226   000016 235007                    LDA     14,DL
         4 003227   000600 755000 2                  STA     SIZE

             21083    1   PP$ -> PP$STRCT.SIZE = SIZE ;

  21083  4 003230   003100 061400                    CSR     bolr='003'O
         4 003231   000600 000044 2                  BDSC    SIZE                     by=0,bit=0,n=36
         4 003232   100000 200011                    BDSC    0,,PR1                   by=1,bit=0,n=9

             21084    1   PP$ = PINCRC( PP$, 2 ) ;

  21084  4 003233   400000 036007                    ADLQ    -131072,DL
         4 003234   000601 756000 2                  STQ     PP$

             21085    1   PP$ -> VLP$TRMD = VLP_POLLVIP_TRMD ;

  21085  4 003235   000601 471400 2                  LDP1    PP$
         4 003236   003100 060400                    CSL     bolr='003'O
         4 003237   000155 000176 3                  BDSC    VLP_POLLVIP_TRMD         by=0,bit=0,n=126
         4 003240   100000 000176                    BDSC    0,,PR1                   by=0,bit=0,n=126

             21086    1   PP$ = PINCRC( PP$, SIZE ) ;

  21086  4 003241   000600 236000 2                  LDQ     SIZE
         4 003242   000020 736000                    QLS     16
         4 003243   000601 036000 2                  ADLQ    PP$
         4 003244   000601 756000 2                  STQ     PP$

      929    21088
PL6.E3A0      #001=ASD$BUILD_PRO File=ASD$BUILD_PRO.:E05TSI                      TUE 07/29/97 09:44 Page:183
      930    21089    1   P_ARS = POFFC( PP$, ADDR(PRO_BUF) ) ;

  21089  4 003245   200003 236100                    LDQ     @PRO_BUF,,AUTO
         4 003246   000020 772000                    QRL     16
         4 003247   200010 756100                    STQ     EXTWID+1,,AUTO
         4 003250   000601 236000 2                  LDQ     PP$
         4 003251   000020 772000                    QRL     16
         4 003252   200010 136100                    SBLQ    EXTWID+1,,AUTO
         4 003253   200004 471500                    LDP1    @P_ARS,,AUTO
         4 003254   100000 756100                    STQ     0,,PR1

      931    21090    1   PRO_KEY = VLP_POLLVIP_PNAME ;

  21090  4 003255   000000 100400                    MLR     fill='000'O
         4 003256   000030 000014 3                  ADSC9   VLP_POLLVIP_PNAME        cn=0,n=12
         4 003257   000572 000014 2                  ADSC9   PRO_KEY                  cn=0,n=12

      932    21091
      933    21092    1   CALL ASD$WRITE_PRO( PRO_KEY, PRO_BUF, P_ARS-1 ) ;

  21092  4 003260   100000 235100                    LDA     0,,PR1
         4 003261   000001 135007                    SBLA    1,DL
         4 003262   200010 755100                    STA     EXTWID+1,,AUTO
         4 003263   200010 633500                    EPPR3   EXTWID+1,,AUTO
         4 003264   200013 453500                    STP3    EXTWID+4,,AUTO
         4 003265   200003 236100                    LDQ     @PRO_BUF,,AUTO
         4 003266   200012 756100                    STQ     EXTWID+3,,AUTO
         4 003267   000014 236000 5                  LDQ     12
         4 003270   200011 756100                    STQ     EXTWID+2,,AUTO
         4 003271   200011 630500                    EPPR0   EXTWID+2,,AUTO
         4 003272   000021 631400 xsym               EPPR1   B_VECTNIL+17
         4 003273   000000 701000 xent               TSX1    ASD$WRITE_PRO
         4 003274   000000 011000                    NOP     0

      934    21093    1   RETURN;

  21093  4 003275   000000 702200 xent               TSX2  ! X66_ARET
PL6.E3A0      #001=ASD$BUILD_PRO File=ASD$BUILD_PRO.:E05TSI                      TUE 07/29/97 09:44 Page:184

      935    21094
      936    21095
      937    21096    1   ASD$BUILD_$GRA: ENTRY ( PRO_BUF, P_ARS ) ;

  21096  4 003276   000000 700200 xent  ASD$BUILD_$* TSX0  ! X66_AUTO_2
         4 003277   000014 000002                    ZERO    12,2

      938    21097
      939    21098    1   PRO_BUF = AS_BLANK ;

  21098  4 003300   200003 470500                    LDP0    @PRO_BUF,,AUTO
         4 003301   040100 100400                    MLR     fill='040'O
         4 003302   000000 000001 xsym               ADSC9   AS_BLANK                 cn=0,n=1
         4 003303   000000 002000                    ADSC9   0,,PR0                   cn=0,n=1024

      940    21099    1   PP$ = ADDR( PRO_BUF ) ;

  21099  4 003304   200003 236100                    LDQ     @PRO_BUF,,AUTO
         4 003305   000601 756000 2                  STQ     PP$

      941    21100    1   PP$ -> GRA$REC = GRA_REC ;

  21100  4 003306   000601 471400 2                  LDP1    PP$
         4 003307   000100 100400                    MLR     fill='000'O
         4 003310   000024 000234 2                  ADSC9   GRA_REC                  cn=0,n=156
         4 003311   100000 000234                    ADSC9   0,,PR1                   cn=0,n=156

      942    21101    1   PP$ = PINCRW( PP$, SIZEW( GRA_REC ) ) ;

  21101  4 003312   000146 036003                    ADLQ    102,DU
         4 003313   000601 756000 2                  STQ     PP$

      943    21102    1   P_ARS = POFFC ( PP$, ADDR(PRO_BUF) ) ;

  21102  4 003314   200003 236100                    LDQ     @PRO_BUF,,AUTO
         4 003315   000020 772000                    QRL     16
PL6.E3A0      #001=ASD$BUILD_PRO File=ASD$BUILD_PRO.:E05TSI                      TUE 07/29/97 09:44 Page:185
         4 003316   200010 756100                    STQ     EXTWID+1,,AUTO
         4 003317   000601 236000 2                  LDQ     PP$
         4 003320   000020 772000                    QRL     16
         4 003321   200010 136100                    SBLQ    EXTWID+1,,AUTO
         4 003322   200004 471500                    LDP1    @P_ARS,,AUTO
         4 003323   100000 756100                    STQ     0,,PR1

      944    21103    1   PP$ = ADDR (PRO_BUF);

  21103  4 003324   200003 236100                    LDQ     @PRO_BUF,,AUTO
         4 003325   000601 756000 2                  STQ     PP$

      945    21104        /* Set default values for GR_ESCAPE 1 to GR_ESCAPE 4 */
      946    21105    1   PP$->GRA$REC.NUM_ESCAPES = 4;

  21105  4 003326   000004 235007                    LDA     4,DL
         4 003327   000601 473400 2                  LDP3    PP$
         4 003330   300045 755100                    STA     37,,PR3

      947    21106    1   PP$->GRA$REC.GR_ESCAPES.ESCAPE_FUNCTION(0) = 1;

  21106  4 003331   000001 220003                    LDX0    1,DU
         4 003332   300046 740100                    STX0    38,,PR3

      948    21107    1   PP$->GRA$REC.GR_ESCAPES.ESCAPE_SUPPORT(0) = 1;

  21107  4 003333   001000 236007                    LDQ     512,DL
         4 003334   300046 552110                    STBQ    38,'10'O,PR3

      949    21108    1   PP$->GRA$REC.GR_ESCAPES.ESCAPE_FUNCTION(1) = 2;

  21108  4 003335   000002 221003                    LDX1    2,DU
         4 003336   300047 741100                    STX1    39,,PR3

      950    21109    1   PP$->GRA$REC.GR_ESCAPES.ESCAPE_SUPPORT(1) = 1;

  21109  4 003337   300047 552110                    STBQ    39,'10'O,PR3
PL6.E3A0      #001=ASD$BUILD_PRO File=ASD$BUILD_PRO.:E05TSI                      TUE 07/29/97 09:44 Page:186

      951    21110    1   PP$->GRA$REC.GR_ESCAPES.ESCAPE_FUNCTION(2) = 3;

  21110  4 003340   000003 222003                    LDX2    3,DU
         4 003341   300050 742100                    STX2    40,,PR3

      952    21111    1   PP$->GRA$REC.GR_ESCAPES.ESCAPE_SUPPORT(2) = 2;

  21111  4 003342   002000 236007                    LDQ     1024,DL
         4 003343   300050 552110                    STBQ    40,'10'O,PR3

      953    21112    1   PP$->GRA$REC.GR_ESCAPES.ESCAPE_FUNCTION(3) = 4;

  21112  4 003344   000004 223003                    LDX3    4,DU
         4 003345   300051 743100                    STX3    41,,PR3

      954    21113    1   PP$->GRA$REC.GR_ESCAPES.ESCAPE_SUPPORT(3) = 2;

  21113  4 003346   300051 552110                    STBQ    41,'10'O,PR3

      955    21114    2   DO ARS = 4 TO 63;

  21114  4 003347   200005 755100                    STA     ARS,,AUTO

      956    21115    2      PP$->GRA$REC.GR_ESCAPES(ARS) = '0'B;

  21115  4 003350   000601 470400 2                  LDP0    PP$
         4 003351   200005 720100                    LXL0    ARS,,AUTO
         4 003352   000046 450110                    STZ     38,X0,PR0

      957    21116    2      END; /*  Do ars  */

  21116  4 003353   200005 235100                    LDA     ARS,,AUTO
         4 003354   000001 035007                    ADLA    1,DL
         4 003355   200005 755100                    STA     ARS,,AUTO
         4 003356   000100 115007                    CMPA    64,DL
         4 003357   003350 602000 4                  TNC     s:21115
PL6.E3A0      #001=ASD$BUILD_PRO File=ASD$BUILD_PRO.:E05TSI                      TUE 07/29/97 09:44 Page:187

      958    21117
      959    21118    1   CALL ASD$GR_WRITE_PRO ( GRA_KEY, PRO_BUF, P_ARS-1 ) ;

  21118  4 003360   200004 471500                    LDP1    @P_ARS,,AUTO
         4 003361   100000 235100                    LDA     0,,PR1
         4 003362   000001 135007                    SBLA    1,DL
         4 003363   200010 755100                    STA     EXTWID+1,,AUTO
         4 003364   200010 633500                    EPPR3   EXTWID+1,,AUTO
         4 003365   200013 453500                    STP3    EXTWID+4,,AUTO
         4 003366   200003 236100                    LDQ     @PRO_BUF,,AUTO
         4 003367   200012 756100                    STQ     EXTWID+3,,AUTO
         4 003370   000027 236000 5                  LDQ     23
         4 003371   200011 756100                    STQ     EXTWID+2,,AUTO
         4 003372   200011 630500                    EPPR0   EXTWID+2,,AUTO
         4 003373   000021 631400 xsym               EPPR1   B_VECTNIL+17
         4 003374   000000 701000 xent               TSX1    ASD$GR_WRITE_PRO
         4 003375   000000 011000                    NOP     0

      960    21119
      961    21120
      962    21121    1   END   ASD$BUILD_PRO ;

  21121  4 003376   000000 702200 xent               TSX2  ! X66_ARET

PL6.E3A0      #001=ASD$BUILD_PRO File=ASD$BUILD_PRO.:E05TSI                      TUE 07/29/97 09:44 Page:188
--  Include file information  --

   AS_SUPER_R.:E05TOU  cannot be made into a system file and is referenced.
   XG_SUBS_C.:E05TOU  is referenced.
   XG_PROFILE_C.:E05TOU  is referenced.
   B_ERRORS_C.:E05TOU  is referenced.
   XU_FORMAT_C.:E05TOU  is referenced.
   XU_MACRO_C.:E05TOU  is referenced.
   KL_SUPER_C.:E05TOU  is referenced.
   KV_PRMID_E.:E05TOU  is referenced.
   CP_6_SUBS.:E05TOU  is referenced.
   CP_6.:E05TOU  cannot be made into a system file and is referenced.
   AS_FUNKEY_DEFS_C.:E05TOU  is referenced.
   AS_PERR_C.:E05TOU  is referenced.
   AS_SSUBS_C.:E05TOU  is referenced.
   AS_MAC_C.:E05TOU  cannot be made into a system file and is referenced.
   AS_SUBS_C.:E05TOU  is referenced.
   AS_SUPER_C.:E05TOU  is referenced.
   AS_ENTRIES_M.:E05TOU  is referenced.
   B$JIT_C.:E05TOU  was found in the system file and is never referenced.
   CP_6_C.:E05TOU  was found in the system file and is referenced.
      No diagnostics issued in procedure ASD$BUILD_PRO.
PL6.E3A0      #001=ASD$BUILD_PRO File=ASD$BUILD_PRO.:E05TSI                      TUE 07/29/97 09:44 Page:189

 **** Variables and constants ****

  ****  Section 002  Data  ASD$BUILD_PRO

  ****  Scalars and arrays  ****
OctLoc.c.b A Datatyp(siz) R M Lvl/name                 OctLoc.c.b A Datatyp(siz) R M Lvl/name

   575-0-0/w STRC(108)   r     1 GRA_KEY                   24-0-0/w STRC(3672)  r     1 GRA_REC
   601-0-0/w PTR         r     1 PP$                      172-0-0/c CHAR(1024)  r     1 PROFILE_BUF
     0-0-0/c STRC(720)   r     1 PRO_HDR                  572-0-0/w STRC(108)   r     1 PRO_KEY
   600-0-0/w UBIN        r     1 SIZE                     632-0-0/w STRC(288)   r     1 VLP_3270_TAB
   606-0-0/d STRC(144)   r     1 VLP_3270_TRMCTL          622-0-0/w STRC(288)   r     1 VLP_ASYNC_TAB
   602-0-0/d STRC(144)   r     1 VLP_ASYNC_TRMCTL         616-0-0/d STRC(144)   r     1 VLP_RBTD_TRMCTL
   642-0-0/w STRC(288)   r     1 VLP_URP_TAB              612-0-0/d STRC(144)   r     1 VLP_URP_TRMCTL

  ****  Section 003 RoData ASD$BUILD_PRO

  ****  Scalars and arrays  ****
OctLoc.c.b A Datatyp(siz) R M Lvl/name                 OctLoc.c.b A Datatyp(siz) R M Lvl/name

   172-0-0/b STRC        r     1 VLP_3270_3270            110-0-0/d STRC(144)   r     1 VLP_3270_PLATEN
     6-0-0/c STRC(108)   r     1 VLP_3270_PNAME           207-0-0/b STRC(18)    r     1 VLP_3270_SETUP_CHR
    46-0-0/d STRC(360)   r     1 VLP_3270_TRMATTR
   173-0-0/b STRC        r     1 VLP_ABSGRPRND_EMPHASIS
   174-0-0/b STRC        r     1 VLP_ABSGRPRND_ERROR      175-0-0/b STRC        r     1 VLP_ABSGRPRND_HIDDEN
   176-0-0/b STRC        r     1 VLP_ABSGRPRND_INPUT      177-0-0/b STRC        r     1 VLP_ABSGRPRND_NULL
   200-0-0/b STRC        r     1 VLP_ABSGRPRND_OUTPUT
   201-0-0/b STRC        r     1 VLP_ABSGRPRND_WARNING
   171-0-0/b STRC        r     1 VLP_ASYNC_3270           124-0-0/c STRC(747)   r     1 VLP_ASYNC_CCHR
   202-0-0/c STRC(144)   r     1 VLP_ASYNC_FUNKEY         104-0-0/d STRC(144)   r     1 VLP_ASYNC_PLATEN
     0-0-0/c STRC(108)   r     1 VLP_ASYNC_PNAME          206-0-0/b STRC(18)    r     1 VLP_ASYNC_SETUP_CHR
    34-0-0/d STRC(360)   r     1 VLP_ASYNC_TRMATTR
     3-0-0/c STRC(108)   r     1 VLP_GRAPHICFILE_PNAME
   161-0-0/c STRC(90)    r     1 VLP_LINK_LINK             17-0-0/c STRC(108)   r     1 VLP_LINK_PNAME
    30-0-0/c STRC(108)   r     1 VLP_POLLVIP_PNAME        155-0-0/b STRC(126)   r     1 VLP_POLLVIP_TRMD
   120-0-0/d STRC(144)   r     1 VLP_RBTD_PLATEN           14-0-0/c STRC(108)   r     1 VLP_RBTD_PNAME
    72-0-0/d STRC(360)   r     1 VLP_RBTD_TRMATTR          11-0-0/c STRC(108)   r     1 VLP_RBT_PNAME
PL6.E3A0      #001=ASD$BUILD_PRO File=ASD$BUILD_PRO.:E05TSI                      TUE 07/29/97 09:44 Page:190
   151-0-0/b STRC(126)   r     1 VLP_RBT_TRMD             114-0-0/d STRC(144)   r     1 VLP_URP_PLATEN
    22-0-0/c STRC(108)   r     1 VLP_URP_PNAME             60-0-0/d STRC(360)   r     1 VLP_URP_TRMATTR
    25-0-0/c STRC(108)   r     1 VLP_VIRCIR_PNAME         164-0-0/c STRC(180)   r     1 VLP_VIRCIR_VIRCIR

  ****  Auto variables  ****

  ****  Scalars and arrays  ****
OctLoc.c.b A Datatyp(siz) R M Lvl/name                 OctLoc.c.b A Datatyp(siz) R M Lvl/name

     3-0-0/w PTR         r     1 @PRO_BUF                   4-0-0/w PTR         r     1 @P_ARS
     5-0-0/w UBIN        r     1 ARS                        7-0-0/w UBIN        r     1 EXTWID
    *0-0-0/c CHAR(1024)  r     1 PRO_BUF                   *0-0-0/w UBIN        r     1 P_ARS

  ****  SYMREF variables  ****

  ****  Scalars and arrays  ****
OctLoc.c.b A Datatyp(siz) R M Lvl/name                 OctLoc.c.b A Datatyp(siz) R M Lvl/name

     0-0-0/c CHAR        r     1 AS_BLANK

  ****  BASED and DCB variables  ****

  ****  Scalars and arrays  ****
OctLoc.c.b A Datatyp(siz) R M Lvl/name                 OctLoc.c.b A Datatyp(siz) R M Lvl/name

     0-0-0/w STRC(1404)  r     1 GRA$REC                    0-0-0/b STRC(18)    r     1 PP$STRCT
     0-0-0/c STRC(720)   r     1 PRO$HDR                    0-0-0/b STRC        r     1 VLP$3270
     0-0-0/b STRC        r     1 VLP$ABSGRPRND              0-0-0/c STRC(747)   r     1 VLP$CCHR
     0-0-0/c STRC(144)   r     1 VLP$FUNKEY                 0-0-0/c STRC(90)    r     1 VLP$LINK
     0-0-0/b STRC(144)   r     1 VLP$PLATEN                 0-0-0/c ASTR(9)     r     1 VLP$PNAME
     0-0-0/b STRC(18)    r     1 VLP$SETUP_CHR              0-0-0/w STRC(288)   r     1 VLP$TAB
     0-0-0/c STRC(360)   r     1 VLP$TRMATTR                0-0-0/b STRC(144)   r     1 VLP$TRMCTL
     0-0-0/b STRC(126)   r     1 VLP$TRMD                   0-0-0/c STRC(180)   r     1 VLP$VIRCIR


   Procedure ASD$BUILD_PRO requires 1791 words for executable code.
PL6.E3A0      #001=ASD$BUILD_PRO File=ASD$BUILD_PRO.:E05TSI                      TUE 07/29/97 09:44 Page:191
   Procedure ASD$BUILD_PRO requires 12 words of local(AUTO) storage.

    No errors detected in file ASD$BUILD_PRO.:E05TSI    .
PL6.E3A0      #001=ASD$BUILD_PRO File=ASD$BUILD_PRO.:E05TSI                      TUE 07/29/97 09:44 Page:192
          *** CROSS REFERENCE LISTING ***
**     DENOTES     IDENTIFIER DEFINITION
<<                 IDENTIFIER'S VALUE SET
>>                 IDENTIFIER'S VALUE USED
<>                 IDENTIFIER SET AND/OR USED
--                 IDENTIFIER REFERENCED
PL6.E3A0      #001=ASD$BUILD_PRO File=ASD$BUILD_PRO.:E05TSI                      TUE 07/29/97 09:44 Page:193
          MINI XREF LISTING

ARS
     20126**DCL     20155<>CALL    20156<>CALL    20157<>CALL    20158<>CALL    20159<>CALL    20160<>CALL
     20161<>CALL    20162<>CALL    20163<>CALL    21114<<DOINDEX 21115>>ASSIGN
ASA_BRKS_LOC
     13255**DCL     13255--REDEF
ASD$BUILD_$3270
     20409**ENTRY   20160--CALL
ASD$BUILD_$ASYNC
     20171**ENTRY   20155--CALL
ASD$BUILD_$GRA
     21096**ENTRY   20163--CALL
ASD$BUILD_$LINK
     20776**ENTRY   20158--CALL
ASD$BUILD_$POLLVIP
     21031**ENTRY   20162--CALL
ASD$BUILD_$RBT
     20614**ENTRY   20156--CALL
ASD$BUILD_$RBTD
     20678**ENTRY   20157--CALL
ASD$BUILD_$URP
     20903**ENTRY   20159--CALL
ASD$BUILD_$VIRCIR
     20839**ENTRY   20161--CALL
ASD$CLOSE_PRO
     19635**DCL-ENT 20164--CALL
ASD$GR_WRITE_PRO
     19632**DCL-ENT 21118--CALL
ASD$OPEN_PRO_CR
     19626**DCL-ENT 20154--CALL
ASD$WRITE_PRO
     19629**DCL-ENT 20401--CALL    20405--CALL    20610--CALL    20674--CALL    20772--CALL    20836--CALL
     20899--CALL    21027--CALL    21092--CALL
PL6.E3A0      #001=ASD$BUILD_PRO File=ASD$BUILD_PRO.:E05TSI                      TUE 07/29/97 09:44 Page:194
AS_BLANK
     13115**DCL     20175>>ASSIGN  20413>>ASSIGN  20618>>ASSIGN  20683>>ASSIGN  20780>>ASSIGN  20843>>ASSIGN
     20907>>ASSIGN  21035>>ASSIGN  21098>>ASSIGN
AS_DEFAULT.BANNER_PERM
     13948**DCL     13949--REDEF
AS_DEFAULT.BUDGET.MACCT
     13853**DCL     13857--REDEF
AS_DEFAULT.BUDGET.MAX_PROJECTS
     13866**DCL     13869--REDEF
AS_DEFAULT.BUDGET.PACCUM
     13849**DCL     13851--REDEF
AS_DEFAULT.BUDGET.PMAXC
     13844**DCL     13846--REDEF
AS_DEFAULT.SETUP_CHRA.TXT
     13964**DCL     13965--REDEF   13966--REDEF
AS_DEFAULT_DREC.PASSWORD
     15218**DCL     15222--REDEF
AS_DEFAULT_DREC.RENAME
     15241**DCL     15242--REDEF
AS_DFLT.BANNER_PERM
     13770**DCL     13771--REDEF
AS_DFLT.BUDGET.MACCT
     13675**DCL     13679--REDEF
AS_DFLT.BUDGET.MAX_PROJECTS
     13688**DCL     13691--REDEF
AS_DFLT.BUDGET.PACCUM
     13671**DCL     13673--REDEF
AS_DFLT.BUDGET.PMAXC
     13666**DCL     13668--REDEF
AS_DFLT.SETUP_CHRA.TXT
     13786**DCL     13787--REDEF   13788--REDEF
AS_FE_MODE
     13121**DCL     13122--REDEF
AS_MODE
     13118**DCL     13120--REDEF
AS_MOD_USER.ACCESS
PL6.E3A0      #001=ASD$BUILD_PRO File=ASD$BUILD_PRO.:E05TSI                      TUE 07/29/97 09:44 Page:195
     15983**DCL     15984--REDEF
AS_MOD_USER.BANNER
     15970**DCL     15971--REDEF
AS_MOD_USER.BANNER_PERM
     15972**DCL     15973--REDEF
AS_MOD_USER.BILL
     15978**DCL     15979--REDEF
AS_MOD_USER.CPROC
     15974**DCL     15975--REDEF
AS_MOD_USER.FEBILL
     16054**DCL     16055--REDEF
AS_MOD_USER.FECXTMEM
     16071**DCL     16072--REDEF
AS_MOD_USER.FEMINTS
     16056**DCL     16057--REDEF
AS_MOD_USER.FEMMEM
     16067**DCL     16068--REDEF
AS_MOD_USER.FEMTIME
     16065**DCL     16066--REDEF
AS_MOD_USER.FEPPRIV
     16062**DCL     16064--REDEF
AS_MOD_USER.FEPRIV
     16059**DCL     16061--REDEF
AS_MOD_USER.FORCE_BIT
     15968**DCL     15969--REDEF
AS_MOD_USER.KEY
     16050**DCL     16052--REDEF
AS_MOD_USER.LASTCPROC
     15976**DCL     15977--REDEF
AS_MOD_USER.LIMITS.DO_
     16024**DCL     16025--REDEF
AS_MOD_USER.LIMITS.FPOOLS
     16040**DCL     16041--REDEF
AS_MOD_USER.LIMITS.LO
     16020**DCL     16021--REDEF
AS_MOD_USER.LIMITS.MEM
PL6.E3A0      #001=ASD$BUILD_PRO File=ASD$BUILD_PRO.:E05TSI                      TUE 07/29/97 09:44 Page:196
     16016**DCL     16017--REDEF
AS_MOD_USER.LIMITS.MPRIO
     16044**DCL     16045--REDEF
AS_MOD_USER.LIMITS.PDIS
     16032**DCL     16033--REDEF
AS_MOD_USER.LIMITS.PO
     16028**DCL     16029--REDEF
AS_MOD_USER.LIMITS.TDIS
     16036**DCL     16037--REDEF
AS_MOD_USER.LIMITS.TIME
     16012**DCL     16013--REDEF
AS_MOD_USER.MAXENQ
     15993**DCL     15994--REDEF
AS_MOD_USER.PERM_BIT
     15966**DCL     15967--REDEF
AS_MOD_USER.PPRIV
     15988**DCL     15990--REDEF
AS_MOD_USER.PRIOB
     15995**DCL     15996--REDEF
AS_MOD_USER.PRIV
     15985**DCL     15987--REDEF
AS_MOD_USER.QUAN
     15991**DCL     15992--REDEF
AS_MOD_USER.SETUP
     15964**DCL     15965--REDEF
AS_PROJECT.BANNER_PERM
     14304**DCL     14305--REDEF
AS_PROJECT.BUDGET.MACCT
     14209**DCL     14213--REDEF
AS_PROJECT.BUDGET.MAX_PROJECTS
     14222**DCL     14225--REDEF
AS_PROJECT.BUDGET.PACCUM
     14205**DCL     14207--REDEF
AS_PROJECT.BUDGET.PMAXC
     14200**DCL     14202--REDEF
AS_PROJECT.SETUP_CHRA.TXT
PL6.E3A0      #001=ASD$BUILD_PRO File=ASD$BUILD_PRO.:E05TSI                      TUE 07/29/97 09:44 Page:197
     14320**DCL     14321--REDEF   14322--REDEF
AS_PROJECT_DFLT.BANNER_PERM
     14482**DCL     14483--REDEF
AS_PROJECT_DFLT.BUDGET.MACCT
     14387**DCL     14391--REDEF
AS_PROJECT_DFLT.BUDGET.MAX_PROJECTS
     14400**DCL     14403--REDEF
AS_PROJECT_DFLT.BUDGET.PACCUM
     14383**DCL     14385--REDEF
AS_PROJECT_DFLT.BUDGET.PMAXC
     14378**DCL     14380--REDEF
AS_PROJECT_DFLT.SETUP_CHRA.TXT
     14498**DCL     14499--REDEF   14500--REDEF
AS_PROJECT_DFLT_DREC.PASSWORD
     15704**DCL     15708--REDEF
AS_PROJECT_DFLT_DREC.RENAME
     15727**DCL     15728--REDEF
AS_PROJECT_DREC.PASSWORD
     15542**DCL     15546--REDEF
AS_PROJECT_DREC.RENAME
     15565**DCL     15566--REDEF
AS_PROJ_ADMIN.BANNER_PERM
     14126**DCL     14127--REDEF
AS_PROJ_ADMIN.BUDGET.MACCT
     14031**DCL     14035--REDEF
AS_PROJ_ADMIN.BUDGET.MAX_PROJECTS
     14044**DCL     14047--REDEF
AS_PROJ_ADMIN.BUDGET.PACCUM
     14027**DCL     14029--REDEF
AS_PROJ_ADMIN.BUDGET.PMAXC
     14022**DCL     14024--REDEF
AS_PROJ_ADMIN.SETUP_CHRA.TXT
     14142**DCL     14143--REDEF   14144--REDEF
AS_PROJ_ADMIN_DREC.PASSWORD
     15380**DCL     15384--REDEF
AS_PROJ_ADMIN_DREC.RENAME
PL6.E3A0      #001=ASD$BUILD_PRO File=ASD$BUILD_PRO.:E05TSI                      TUE 07/29/97 09:44 Page:198
     15403**DCL     15404--REDEF
AS_USERS.BANNER_PERM
     13592**DCL     13593--REDEF
AS_USERS.BUDGET.MACCT
     13497**DCL     13501--REDEF
AS_USERS.BUDGET.MAX_PROJECTS
     13510**DCL     13513--REDEF
AS_USERS.BUDGET.PACCUM
     13493**DCL     13495--REDEF
AS_USERS.BUDGET.PMAXC
     13488**DCL     13490--REDEF
AS_USERS.SETUP_CHRA.TXT
     13608**DCL     13609--REDEF   13610--REDEF
AS_USERS_CONSTANT.BANNER_PERM
     14660**DCL     14661--REDEF
AS_USERS_CONSTANT.BUDGET.MACCT
     14565**DCL     14569--REDEF
AS_USERS_CONSTANT.BUDGET.MAX_PROJECTS
     14578**DCL     14581--REDEF
AS_USERS_CONSTANT.BUDGET.PACCUM
     14561**DCL     14563--REDEF
AS_USERS_CONSTANT.BUDGET.PMAXC
     14556**DCL     14558--REDEF
AS_USERS_CONSTANT.SETUP_CHRA.TXT
     14676**DCL     14677--REDEF   14678--REDEF
ERR_CODE
     13250**DCL     13251--REDEF
EXTWID
     20128**DCL     20181<<ASSIGN  20183<<ASSIGN  20184>>ASSIGN  20419<<ASSIGN  20421<<ASSIGN  20422>>ASSIGN
     20688<<ASSIGN  20690<<ASSIGN  20691>>ASSIGN  20913<<ASSIGN  20915<<ASSIGN  20916>>ASSIGN
GRA$REC
     19700**DCL     21100<<ASSIGN
GRA$REC.GR_ESCAPES
     20094**DCL     21115<<ASSIGN
GRA$REC.GR_ESCAPES.ESCAPE_FUNCTION
     20095**DCL     21106<<ASSIGN  21108<<ASSIGN  21110<<ASSIGN  21112<<ASSIGN
PL6.E3A0      #001=ASD$BUILD_PRO File=ASD$BUILD_PRO.:E05TSI                      TUE 07/29/97 09:44 Page:199
GRA$REC.GR_ESCAPES.ESCAPE_SUPPORT
     20100**DCL     21107<<ASSIGN  21109<<ASSIGN  21111<<ASSIGN  21113<<ASSIGN
GRA$REC.NUM_ESCAPES
     20087**DCL     21105<<ASSIGN
GRA_KEY
     16591**DCL     21118<>CALL
GRA_REC
     16177**DCL     21100>>ASSIGN  21101--ASSIGN
KL_DEFAULT.PASSWORD
     15866**DCL     15870--REDEF
KL_DEFAULT.RENAME
     15889**DCL     15890--REDEF
KL_DFLT.PASSWORD
     15056**DCL     15060--REDEF
KL_DFLT.RENAME
     15079**DCL     15080--REDEF
KL_DREC.PASSWORD
     14894**DCL     14898--REDEF
KL_DREC.RENAME
     14917**DCL     14918--REDEF
KL_DREC_CNT.PASSWORD
     14781**DCL     14785--REDEF
KL_DREC_CNT.RENAME
     14804**DCL     14805--REDEF
NO_CCHR
     21020**LABEL   21008--GOTO
PP$
     16595**DCL     20109--IMP-PTR 20112--IMP-PTR 20176<<ASSIGN  20202>>ASSIGN  20203<<ASSIGN  20203>>ASSIGN
     20211>>ASSIGN  20213>>ASSIGN  20214<<ASSIGN  20214>>ASSIGN  20215>>ASSIGN  20215>>ASSIGN  20216<<ASSIGN
     20216>>ASSIGN  20225>>ASSIGN  20227>>ASSIGN  20228<<ASSIGN  20228>>ASSIGN  20229>>ASSIGN  20230<<ASSIGN
     20230>>ASSIGN  20239>>ASSIGN  20241>>ASSIGN  20242<<ASSIGN  20242>>ASSIGN  20243>>ASSIGN  20244<<ASSIGN
     20244>>ASSIGN  20253>>ASSIGN  20255>>ASSIGN  20256<<ASSIGN  20256>>ASSIGN  20257>>ASSIGN  20258<<ASSIGN
     20258>>ASSIGN  20267>>ASSIGN  20269>>ASSIGN  20270<<ASSIGN  20270>>ASSIGN  20271>>ASSIGN  20272<<ASSIGN
     20272>>ASSIGN  20279>>ASSIGN  20281>>ASSIGN  20282<<ASSIGN  20282>>ASSIGN  20283>>ASSIGN  20284<<ASSIGN
     20284>>ASSIGN  20291>>ASSIGN  20293>>ASSIGN  20294<<ASSIGN  20294>>ASSIGN  20295>>ASSIGN  20296<<ASSIGN
     20296>>ASSIGN  20302>>ASSIGN  20304>>ASSIGN  20305<<ASSIGN  20305>>ASSIGN  20306>>ASSIGN  20307<<ASSIGN
PL6.E3A0      #001=ASD$BUILD_PRO File=ASD$BUILD_PRO.:E05TSI                      TUE 07/29/97 09:44 Page:200
     20307>>ASSIGN  20313>>ASSIGN  20315>>ASSIGN  20316<<ASSIGN  20316>>ASSIGN  20317>>ASSIGN  20318<<ASSIGN
     20318>>ASSIGN  20324>>ASSIGN  20326>>ASSIGN  20327<<ASSIGN  20327>>ASSIGN  20328>>ASSIGN  20329<<ASSIGN
     20329>>ASSIGN  20335>>ASSIGN  20337>>ASSIGN  20338<<ASSIGN  20338>>ASSIGN  20339>>ASSIGN  20340<<ASSIGN
     20340>>ASSIGN  20346>>ASSIGN  20348>>ASSIGN  20349<<ASSIGN  20349>>ASSIGN  20350>>ASSIGN  20351<<ASSIGN
     20351>>ASSIGN  20357>>ASSIGN  20359>>ASSIGN  20360<<ASSIGN  20360>>ASSIGN  20361>>ASSIGN  20362<<ASSIGN
     20362>>ASSIGN  20371>>ASSIGN  20373>>ASSIGN  20374<<ASSIGN  20374>>ASSIGN  20375>>ASSIGN  20376<<ASSIGN
     20376>>ASSIGN  20380>>ASSIGN  20381<<ASSIGN  20381>>ASSIGN  20390>>ASSIGN  20392>>ASSIGN  20393<<ASSIGN
     20393>>ASSIGN  20394>>ASSIGN  20395<<ASSIGN  20395>>ASSIGN  20398>>ASSIGN  20414<<ASSIGN  20440>>ASSIGN
     20441<<ASSIGN  20441>>ASSIGN  20449>>ASSIGN  20451>>ASSIGN  20452<<ASSIGN  20452>>ASSIGN  20453>>ASSIGN
     20453>>ASSIGN  20454<<ASSIGN  20454>>ASSIGN  20463>>ASSIGN  20465>>ASSIGN  20466<<ASSIGN  20466>>ASSIGN
     20467>>ASSIGN  20468<<ASSIGN  20468>>ASSIGN  20477>>ASSIGN  20479>>ASSIGN  20480<<ASSIGN  20480>>ASSIGN
     20481>>ASSIGN  20482<<ASSIGN  20482>>ASSIGN  20491>>ASSIGN  20493>>ASSIGN  20494<<ASSIGN  20494>>ASSIGN
     20495>>ASSIGN  20496<<ASSIGN  20496>>ASSIGN  20505>>ASSIGN  20507>>ASSIGN  20508<<ASSIGN  20508>>ASSIGN
     20509>>ASSIGN  20510<<ASSIGN  20510>>ASSIGN  20517>>ASSIGN  20519>>ASSIGN  20520<<ASSIGN  20520>>ASSIGN
     20521>>ASSIGN  20522<<ASSIGN  20522>>ASSIGN  20529>>ASSIGN  20531>>ASSIGN  20532<<ASSIGN  20532>>ASSIGN
     20533>>ASSIGN  20534<<ASSIGN  20534>>ASSIGN  20540>>ASSIGN  20542>>ASSIGN  20543<<ASSIGN  20543>>ASSIGN
     20544>>ASSIGN  20545<<ASSIGN  20545>>ASSIGN  20551>>ASSIGN  20553>>ASSIGN  20554<<ASSIGN  20554>>ASSIGN
     20555>>ASSIGN  20556<<ASSIGN  20556>>ASSIGN  20562>>ASSIGN  20564>>ASSIGN  20565<<ASSIGN  20565>>ASSIGN
     20566>>ASSIGN  20567<<ASSIGN  20567>>ASSIGN  20573>>ASSIGN  20575>>ASSIGN  20576<<ASSIGN  20576>>ASSIGN
     20577>>ASSIGN  20578<<ASSIGN  20578>>ASSIGN  20584>>ASSIGN  20586>>ASSIGN  20587<<ASSIGN  20587>>ASSIGN
     20588>>ASSIGN  20589<<ASSIGN  20589>>ASSIGN  20595>>ASSIGN  20597>>ASSIGN  20598<<ASSIGN  20598>>ASSIGN
     20599>>ASSIGN  20600<<ASSIGN  20600>>ASSIGN  20604>>ASSIGN  20605<<ASSIGN  20605>>ASSIGN  20607>>ASSIGN
     20619<<ASSIGN  20640>>ASSIGN  20641<<ASSIGN  20641>>ASSIGN  20649>>ASSIGN  20651>>ASSIGN  20652<<ASSIGN
     20652>>ASSIGN  20653>>ASSIGN  20653>>ASSIGN  20654<<ASSIGN  20654>>ASSIGN  20663>>ASSIGN  20665>>ASSIGN
     20666<<ASSIGN  20666>>ASSIGN  20667>>ASSIGN  20668<<ASSIGN  20668>>ASSIGN  20672>>ASSIGN  20682<<ASSIGN
     20709>>ASSIGN  20710<<ASSIGN  20710>>ASSIGN  20718>>ASSIGN  20720>>ASSIGN  20721<<ASSIGN  20721>>ASSIGN
     20722>>ASSIGN  20722>>ASSIGN  20723<<ASSIGN  20723>>ASSIGN  20732>>ASSIGN  20734>>ASSIGN  20735<<ASSIGN
     20735>>ASSIGN  20736>>ASSIGN  20737<<ASSIGN  20737>>ASSIGN  20746>>ASSIGN  20748>>ASSIGN  20749<<ASSIGN
     20749>>ASSIGN  20750>>ASSIGN  20751<<ASSIGN  20751>>ASSIGN  20761>>ASSIGN  20763>>ASSIGN  20764<<ASSIGN
     20764>>ASSIGN  20765>>ASSIGN  20766<<ASSIGN  20766>>ASSIGN  20769>>ASSIGN  20781<<ASSIGN  20802>>ASSIGN
     20803<<ASSIGN  20803>>ASSIGN  20811>>ASSIGN  20813>>ASSIGN  20814<<ASSIGN  20814>>ASSIGN  20815>>ASSIGN
     20815>>ASSIGN  20816<<ASSIGN  20816>>ASSIGN  20825>>ASSIGN  20827>>ASSIGN  20828<<ASSIGN  20828>>ASSIGN
     20829>>ASSIGN  20830<<ASSIGN  20830>>ASSIGN  20833>>ASSIGN  20844<<ASSIGN  20865>>ASSIGN  20866<<ASSIGN
     20866>>ASSIGN  20874>>ASSIGN  20876>>ASSIGN  20877<<ASSIGN  20877>>ASSIGN  20878>>ASSIGN  20878>>ASSIGN
     20879<<ASSIGN  20879>>ASSIGN  20888>>ASSIGN  20890>>ASSIGN  20891<<ASSIGN  20891>>ASSIGN  20892>>ASSIGN
     20893<<ASSIGN  20893>>ASSIGN  20896>>ASSIGN  20908<<ASSIGN  20934>>ASSIGN  20935<<ASSIGN  20935>>ASSIGN
PL6.E3A0      #001=ASD$BUILD_PRO File=ASD$BUILD_PRO.:E05TSI                      TUE 07/29/97 09:44 Page:201
     20943>>ASSIGN  20945>>ASSIGN  20946<<ASSIGN  20946>>ASSIGN  20947>>ASSIGN  20947>>ASSIGN  20948<<ASSIGN
     20948>>ASSIGN  20957>>ASSIGN  20959>>ASSIGN  20960<<ASSIGN  20960>>ASSIGN  20961>>ASSIGN  20962<<ASSIGN
     20962>>ASSIGN  20971>>ASSIGN  20973>>ASSIGN  20974<<ASSIGN  20974>>ASSIGN  20975>>ASSIGN  20976<<ASSIGN
     20976>>ASSIGN  20985>>ASSIGN  20987>>ASSIGN  20988<<ASSIGN  20988>>ASSIGN  20989>>ASSIGN  20990<<ASSIGN
     20990>>ASSIGN  20999>>ASSIGN  21001>>ASSIGN  21002<<ASSIGN  21002>>ASSIGN  21003>>ASSIGN  21004<<ASSIGN
     21004>>ASSIGN  21015>>ASSIGN  21017>>ASSIGN  21018<<ASSIGN  21018>>ASSIGN  21019>>ASSIGN  21020<<ASSIGN
     21020>>ASSIGN  21024>>ASSIGN  21036<<ASSIGN  21058>>ASSIGN  21059<<ASSIGN  21059>>ASSIGN  21067>>ASSIGN
     21069>>ASSIGN  21070<<ASSIGN  21070>>ASSIGN  21071>>ASSIGN  21071>>ASSIGN  21072<<ASSIGN  21072>>ASSIGN
     21081>>ASSIGN  21083>>ASSIGN  21084<<ASSIGN  21084>>ASSIGN  21085>>ASSIGN  21086<<ASSIGN  21086>>ASSIGN
     21089>>ASSIGN  21099<<ASSIGN  21100>>ASSIGN  21101<<ASSIGN  21101>>ASSIGN  21102>>ASSIGN  21103<<ASSIGN
     21105>>ASSIGN  21106>>ASSIGN  21107>>ASSIGN  21108>>ASSIGN  21109>>ASSIGN  21110>>ASSIGN  21111>>ASSIGN
     21112>>ASSIGN  21113>>ASSIGN  21115>>ASSIGN
PP$STRCT.SIZE
     20111**DCL     20213<<ASSIGN  20227<<ASSIGN  20241<<ASSIGN  20255<<ASSIGN  20269<<ASSIGN  20281<<ASSIGN
     20293<<ASSIGN  20304<<ASSIGN  20315<<ASSIGN  20326<<ASSIGN  20337<<ASSIGN  20348<<ASSIGN  20359<<ASSIGN
     20373<<ASSIGN  20392<<ASSIGN  20451<<ASSIGN  20465<<ASSIGN  20479<<ASSIGN  20493<<ASSIGN  20507<<ASSIGN
     20519<<ASSIGN  20531<<ASSIGN  20542<<ASSIGN  20553<<ASSIGN  20564<<ASSIGN  20575<<ASSIGN  20586<<ASSIGN
     20597<<ASSIGN  20651<<ASSIGN  20665<<ASSIGN  20720<<ASSIGN  20734<<ASSIGN  20748<<ASSIGN  20763<<ASSIGN
     20813<<ASSIGN  20827<<ASSIGN  20876<<ASSIGN  20890<<ASSIGN  20945<<ASSIGN  20959<<ASSIGN  20973<<ASSIGN
     20987<<ASSIGN  21001<<ASSIGN  21017<<ASSIGN  21069<<ASSIGN  21083<<ASSIGN
PP$STRCT.TYPE
     20110**DCL     20211<<ASSIGN  20225<<ASSIGN  20239<<ASSIGN  20253<<ASSIGN  20267<<ASSIGN  20279<<ASSIGN
     20291<<ASSIGN  20302<<ASSIGN  20313<<ASSIGN  20324<<ASSIGN  20335<<ASSIGN  20346<<ASSIGN  20357<<ASSIGN
     20371<<ASSIGN  20390<<ASSIGN  20449<<ASSIGN  20463<<ASSIGN  20477<<ASSIGN  20491<<ASSIGN  20505<<ASSIGN
     20517<<ASSIGN  20529<<ASSIGN  20540<<ASSIGN  20551<<ASSIGN  20562<<ASSIGN  20573<<ASSIGN  20584<<ASSIGN
     20595<<ASSIGN  20649<<ASSIGN  20663<<ASSIGN  20718<<ASSIGN  20732<<ASSIGN  20746<<ASSIGN  20761<<ASSIGN
     20811<<ASSIGN  20825<<ASSIGN  20874<<ASSIGN  20888<<ASSIGN  20943<<ASSIGN  20957<<ASSIGN  20971<<ASSIGN
     20985<<ASSIGN  20999<<ASSIGN  21015<<ASSIGN  21067<<ASSIGN  21081<<ASSIGN
PRO$HDR
     19657**DCL     20202<<ASSIGN  20440<<ASSIGN  20640<<ASSIGN  20709<<ASSIGN  20802<<ASSIGN  20865<<ASSIGN
     20934<<ASSIGN  21058<<ASSIGN
PRO$HDR.DDEV.GRAPHICS_OK
     19680**DCL     20403<<ASSIGN
PROFILE_BUF
     16587**DCL     20155<>CALL    20156<>CALL    20157<>CALL    20158<>CALL    20159<>CALL    20160<>CALL
     20161<>CALL    20162<>CALL    20163<>CALL
PL6.E3A0      #001=ASD$BUILD_PRO File=ASD$BUILD_PRO.:E05TSI                      TUE 07/29/97 09:44 Page:202
PROJ_KEY.TEXT
     13128**DCL     13128--REDEF
PROJ_KEY.TXT.PROJECT
     13128**DCL     13128--REDEF
PRO_BUF
     16113**DCL        11--PROC    20171--ENTRY   20175<<ASSIGN  20176--ASSIGN  20398--ASSIGN  20401<>CALL
     20403--ASSIGN  20405<>CALL    20409--ENTRY   20413<<ASSIGN  20414--ASSIGN  20607--ASSIGN  20610<>CALL
     20614--ENTRY   20618<<ASSIGN  20619--ASSIGN  20672--ASSIGN  20674<>CALL    20678--ENTRY   20682--ASSIGN
     20683<<ASSIGN  20769--ASSIGN  20772<>CALL    20776--ENTRY   20780<<ASSIGN  20781--ASSIGN  20833--ASSIGN
     20836<>CALL    20839--ENTRY   20843<<ASSIGN  20844--ASSIGN  20896--ASSIGN  20899<>CALL    20903--ENTRY
     20907<<ASSIGN  20908--ASSIGN  21024--ASSIGN  21027<>CALL    21031--ENTRY   21035<<ASSIGN  21036--ASSIGN
     21089--ASSIGN  21092<>CALL    21096--ENTRY   21098<<ASSIGN  21099--ASSIGN  21102--ASSIGN  21103--ASSIGN
     21118<>CALL
PRO_HDR
     16135**DCL     20202>>ASSIGN  20203--ASSIGN  20440>>ASSIGN  20441--ASSIGN  20640>>ASSIGN  20641--ASSIGN
     20709>>ASSIGN  20710--ASSIGN  20802>>ASSIGN  20803--ASSIGN  20865>>ASSIGN  20866--ASSIGN  20934>>ASSIGN
     20935--ASSIGN  21058>>ASSIGN  21059--ASSIGN
PRO_HDR.ATTR.APL
     16147**DCL     20192<<ASSIGN  20430<<ASSIGN  20630<<ASSIGN  20699<<ASSIGN  20792<<ASSIGN  20855<<ASSIGN
     20924<<ASSIGN  21043<<ASSIGN
PRO_HDR.ATTR.BIN
     16148**DCL     20193<<ASSIGN  20431<<ASSIGN  20631<<ASSIGN  20700<<ASSIGN  20793<<ASSIGN  20856<<ASSIGN
     20925<<ASSIGN  21044<<ASSIGN
PRO_HDR.ATTR.GRLGL
     16141**DCL     20186<<ASSIGN  20424<<ASSIGN  20624<<ASSIGN  20693<<ASSIGN  20786<<ASSIGN  20849<<ASSIGN
     20918<<ASSIGN  21047<<ASSIGN
PRO_HDR.ATTR.LCASE
     16149**DCL     20194<<ASSIGN  20432<<ASSIGN  20632<<ASSIGN  20701<<ASSIGN  20794<<ASSIGN  20857<<ASSIGN
     20926<<ASSIGN  21045<<ASSIGN
PRO_HDR.ATTR.NATL
     16145**DCL     20190<<ASSIGN  20428<<ASSIGN  20628<<ASSIGN  20697<<ASSIGN  20790<<ASSIGN  20853<<ASSIGN
     20922<<ASSIGN  21050<<ASSIGN
PRO_HDR.ATTR.NOXLATE
     16143**DCL     20188<<ASSIGN  20426<<ASSIGN  20626<<ASSIGN  20695<<ASSIGN  20788<<ASSIGN  20851<<ASSIGN
     20920<<ASSIGN  21049<<ASSIGN
PRO_HDR.ATTR.TRANSLGL
PL6.E3A0      #001=ASD$BUILD_PRO File=ASD$BUILD_PRO.:E05TSI                      TUE 07/29/97 09:44 Page:203
     16142**DCL     20187<<ASSIGN  20425<<ASSIGN  20625<<ASSIGN  20694<<ASSIGN  20787<<ASSIGN  20850<<ASSIGN
     20919<<ASSIGN  21048<<ASSIGN
PRO_HDR.ATTR.TRUOVRPRT
     16146**DCL     20191<<ASSIGN  20429<<ASSIGN  20629<<ASSIGN  20698<<ASSIGN  20791<<ASSIGN  20854<<ASSIGN
     20923<<ASSIGN  21042<<ASSIGN
PRO_HDR.ATTR.UPPERCASE
     16144**DCL     20189<<ASSIGN  20427<<ASSIGN  20627<<ASSIGN  20696<<ASSIGN  20789<<ASSIGN  20852<<ASSIGN
     20921<<ASSIGN  21046<<ASSIGN
PRO_HDR.DDEV.CP
     16156**DCL     20198<<ASSIGN  20436<<ASSIGN  20636<<ASSIGN  20705<<ASSIGN  20798<<ASSIGN  20861<<ASSIGN
     20930<<ASSIGN  21054<<ASSIGN
PRO_HDR.DDEV.GRAPHICS_OK
     16158**DCL     20200<<ASSIGN  20438<<ASSIGN  20638<<ASSIGN  20707<<ASSIGN  20800<<ASSIGN  20863<<ASSIGN
     20932<<ASSIGN  21056<<ASSIGN
PRO_HDR.DDEV.IC
     16157**DCL     20199<<ASSIGN  20437<<ASSIGN  20637<<ASSIGN  20706<<ASSIGN  20799<<ASSIGN  20862<<ASSIGN
     20931<<ASSIGN  21055<<ASSIGN
PRO_HDR.DDEV.LP
     16155**DCL     20197<<ASSIGN  20435<<ASSIGN  20635<<ASSIGN  20704<<ASSIGN  20797<<ASSIGN  20860<<ASSIGN
     20929<<ASSIGN  21053<<ASSIGN
PRO_HDR.IO.INPUT
     16151**DCL     20195<<ASSIGN  20433<<ASSIGN  20633<<ASSIGN  20702<<ASSIGN  20795<<ASSIGN  20858<<ASSIGN
     20927<<ASSIGN  21051<<ASSIGN
PRO_HDR.IO.OUTPUT
     16152**DCL     20196<<ASSIGN  20434<<ASSIGN  20634<<ASSIGN  20703<<ASSIGN  20796<<ASSIGN  20859<<ASSIGN
     20928<<ASSIGN  21052<<ASSIGN
PRO_HDR.LINES
     16138**DCL     20185<<ASSIGN  20423<<ASSIGN  20623<<ASSIGN  20692<<ASSIGN  20785<<ASSIGN  20848<<ASSIGN
     20917<<ASSIGN  21041<<ASSIGN
PRO_HDR.TTYP
     16136**DCL     20178<<ASSIGN  20416<<ASSIGN  20621<<ASSIGN  20685<<ASSIGN  20783<<ASSIGN  20846<<ASSIGN
     20910<<ASSIGN  21038<<ASSIGN
PRO_HDR.WIDTH
     16137**DCL     20184<<ASSIGN  20422<<ASSIGN  20622<<ASSIGN  20691<<ASSIGN  20784<<ASSIGN  20847<<ASSIGN
     20916<<ASSIGN  21040<<ASSIGN
PRO_KEY
PL6.E3A0      #001=ASD$BUILD_PRO File=ASD$BUILD_PRO.:E05TSI                      TUE 07/29/97 09:44 Page:204
     16588**DCL     20399<<ASSIGN  20401<>CALL    20402<<ASSIGN  20405<>CALL    20608<<ASSIGN  20610<>CALL
     20673<<ASSIGN  20674<>CALL    20770<<ASSIGN  20772<>CALL    20834<<ASSIGN  20836<>CALL    20897<<ASSIGN
     20899<>CALL    21025<<ASSIGN  21027<>CALL    21090<<ASSIGN  21092<>CALL
P_ARS
     16114**DCL        11--PROC    20171--ENTRY   20398<<ASSIGN  20401>>CALL    20405>>CALL    20409--ENTRY
     20607<<ASSIGN  20610>>CALL    20614--ENTRY   20672<<ASSIGN  20674>>CALL    20678--ENTRY   20769<<ASSIGN
     20772>>CALL    20776--ENTRY   20833<<ASSIGN  20836>>CALL    20839--ENTRY   20896<<ASSIGN  20899>>CALL
     20903--ENTRY   21008>>IF      21024<<ASSIGN  21027>>CALL    21031--ENTRY   21089<<ASSIGN  21092>>CALL
     21096--ENTRY   21102<<ASSIGN  21118>>CALL
REMEM_VAR
     13254**DCL     13254--REDEF
REM_FCMD
     13254**DCL     13255--REDEF
SIZE
     16594**DCL     20212<<ASSIGN  20213>>ASSIGN  20216>>ASSIGN  20226<<ASSIGN  20227>>ASSIGN  20230>>ASSIGN
     20240<<ASSIGN  20241>>ASSIGN  20244>>ASSIGN  20254<<ASSIGN  20255>>ASSIGN  20258>>ASSIGN  20268<<ASSIGN
     20269>>ASSIGN  20272>>ASSIGN  20280<<ASSIGN  20281>>ASSIGN  20284>>ASSIGN  20292<<ASSIGN  20293>>ASSIGN
     20296>>ASSIGN  20303<<ASSIGN  20304>>ASSIGN  20307>>ASSIGN  20314<<ASSIGN  20315>>ASSIGN  20318>>ASSIGN
     20325<<ASSIGN  20326>>ASSIGN  20329>>ASSIGN  20336<<ASSIGN  20337>>ASSIGN  20340>>ASSIGN  20347<<ASSIGN
     20348>>ASSIGN  20351>>ASSIGN  20358<<ASSIGN  20359>>ASSIGN  20362>>ASSIGN  20372<<ASSIGN  20373>>ASSIGN
     20376>>ASSIGN  20379<<ASSIGN  20381>>ASSIGN  20391<<ASSIGN  20392>>ASSIGN  20395>>ASSIGN  20450<<ASSIGN
     20451>>ASSIGN  20454>>ASSIGN  20464<<ASSIGN  20465>>ASSIGN  20468>>ASSIGN  20478<<ASSIGN  20479>>ASSIGN
     20482>>ASSIGN  20492<<ASSIGN  20493>>ASSIGN  20496>>ASSIGN  20506<<ASSIGN  20507>>ASSIGN  20510>>ASSIGN
     20518<<ASSIGN  20519>>ASSIGN  20522>>ASSIGN  20530<<ASSIGN  20531>>ASSIGN  20534>>ASSIGN  20541<<ASSIGN
     20542>>ASSIGN  20545>>ASSIGN  20552<<ASSIGN  20553>>ASSIGN  20556>>ASSIGN  20563<<ASSIGN  20564>>ASSIGN
     20567>>ASSIGN  20574<<ASSIGN  20575>>ASSIGN  20578>>ASSIGN  20585<<ASSIGN  20586>>ASSIGN  20589>>ASSIGN
     20596<<ASSIGN  20597>>ASSIGN  20600>>ASSIGN  20603<<ASSIGN  20605>>ASSIGN  20650<<ASSIGN  20651>>ASSIGN
     20654>>ASSIGN  20664<<ASSIGN  20665>>ASSIGN  20668>>ASSIGN  20719<<ASSIGN  20720>>ASSIGN  20723>>ASSIGN
     20733<<ASSIGN  20734>>ASSIGN  20737>>ASSIGN  20747<<ASSIGN  20748>>ASSIGN  20751>>ASSIGN  20762<<ASSIGN
     20763>>ASSIGN  20766>>ASSIGN  20812<<ASSIGN  20813>>ASSIGN  20816>>ASSIGN  20826<<ASSIGN  20827>>ASSIGN
     20830>>ASSIGN  20875<<ASSIGN  20876>>ASSIGN  20879>>ASSIGN  20889<<ASSIGN  20890>>ASSIGN  20893>>ASSIGN
     20944<<ASSIGN  20945>>ASSIGN  20948>>ASSIGN  20958<<ASSIGN  20959>>ASSIGN  20962>>ASSIGN  20972<<ASSIGN
     20973>>ASSIGN  20976>>ASSIGN  20986<<ASSIGN  20987>>ASSIGN  20990>>ASSIGN  21000<<ASSIGN  21001>>ASSIGN
     21004>>ASSIGN  21016<<ASSIGN  21017>>ASSIGN  21020>>ASSIGN  21068<<ASSIGN  21069>>ASSIGN  21072>>ASSIGN
     21082<<ASSIGN  21083>>ASSIGN  21086>>ASSIGN
USERS_KEY.TEXT
PL6.E3A0      #001=ASD$BUILD_PRO File=ASD$BUILD_PRO.:E05TSI                      TUE 07/29/97 09:44 Page:205
     13125**DCL     13126--REDEF   13126--REDEF   13126--REDEF   13127--REDEF
VLP$3270
     19480**DCL     20283<<ASSIGN  20521<<ASSIGN
VLP$ABSGRPRND
     19506**DCL     20295<<ASSIGN  20306<<ASSIGN  20317<<ASSIGN  20328<<ASSIGN  20339<<ASSIGN  20350<<ASSIGN
     20361<<ASSIGN  20533<<ASSIGN  20544<<ASSIGN  20555<<ASSIGN  20566<<ASSIGN  20577<<ASSIGN  20588<<ASSIGN
     20599<<ASSIGN
VLP$CCHR
     18868**DCL     20394<<ASSIGN  21019<<ASSIGN
VLP$CCHR.CCHR_ARY
     18951**DCL     18952--REDEF
VLP$CCHR.EXTSRD_CHR#
     18980**DCL     18981--REDEF   18982--REDEF   18983--REDEF
VLP$FUNKEY
     19543**DCL     20375<<ASSIGN
VLP$FUNKEY.FCNKEY
     19587**DCL     19592--REDEF   19595--REDEF   19596--REDEF   19597--REDEF
VLP$FUNKEY.INTRO1
     19555**DCL     19558--REDEF
VLP$FUNKEY.INTRO2
     19559**DCL     19562--REDEF
VLP$LINK
     19173**DCL     20829<<ASSIGN
VLP$PLATEN
     18833**DCL     20257<<ASSIGN  20495<<ASSIGN  20765<<ASSIGN  20989<<ASSIGN
VLP$PNAME
     17546**DCL     20215<<ASSIGN  20453<<ASSIGN  20653<<ASSIGN  20722<<ASSIGN  20815<<ASSIGN  20878<<ASSIGN
     20947<<ASSIGN  21071<<ASSIGN
VLP$PNAME.L#
     17546**DCL     17546--IMP-SIZ 20215>>ASSIGN  20453>>ASSIGN  20653>>ASSIGN  20722>>ASSIGN  20815>>ASSIGN
     20878>>ASSIGN  20947>>ASSIGN  21071>>ASSIGN
VLP$SETUP_CHR
     19609**DCL     20380<<ASSIGN  20604<<ASSIGN
VLP$SETUP_CHR.SIZE
     19611**DCL     19612--REDEF
VLP$TAB
PL6.E3A0      #001=ASD$BUILD_PRO File=ASD$BUILD_PRO.:E05TSI                      TUE 07/29/97 09:44 Page:206
     18850**DCL     20271<<ASSIGN  20509<<ASSIGN  21003<<ASSIGN
VLP$TRMATTR
     18793**DCL     20229<<ASSIGN  20481<<ASSIGN  20750<<ASSIGN  20975<<ASSIGN
VLP$TRMCTL
     18751**DCL     20243<<ASSIGN  20467<<ASSIGN  20736<<ASSIGN  20961<<ASSIGN
VLP$TRMCTL.BREAKCOUNT
     18762**DCL     18763--REDEF
VLP$TRMD
     19010**DCL     20667<<ASSIGN  21085<<ASSIGN
VLP$VIRCIR
     19270**DCL     20892<<ASSIGN
VLP_3270_3270
     18367**DCL     20518--ASSIGN  20521>>ASSIGN
VLP_3270_PLATEN
     17410**DCL     20492--ASSIGN  20495>>ASSIGN
VLP_3270_PLATEN.EXTWID#
     17412**DCL     20418>>IF
VLP_3270_PLATEN.LENGTH#
     17410**DCL     20423>>ASSIGN
VLP_3270_PLATEN.WIDTH#
     17410**DCL     20422>>ASSIGN
VLP_3270_PNAME
     16686**DCL     20450--ASSIGN  20453>>ASSIGN  20608>>ASSIGN
VLP_3270_SETUP_CHR
     18719**DCL     20603--ASSIGN  20604>>ASSIGN
VLP_3270_TAB
     17499**DCL     20506--ASSIGN  20509>>ASSIGN
VLP_3270_TRMATTR
     17219**DCL     20478--ASSIGN  20481>>ASSIGN
VLP_3270_TRMATTR.APL#
     17225**DCL     20430>>ASSIGN
VLP_3270_TRMATTR.LOWERCASEPRINTS#
     17225**DCL     20432>>ASSIGN
VLP_3270_TRMATTR.TRUOVRPRT#
     17224**DCL     20429>>ASSIGN
VLP_3270_TRMCTL
PL6.E3A0      #001=ASD$BUILD_PRO File=ASD$BUILD_PRO.:E05TSI                      TUE 07/29/97 09:44 Page:207
     16963**DCL     20464--ASSIGN  20467>>ASSIGN
VLP_3270_TRMCTL.BREAKCOUNT
     16974**DCL     16975--REDEF
VLP_ABSGRPRND_EMPHASIS
     18392**DCL     20292--ASSIGN  20295>>ASSIGN  20530--ASSIGN  20533>>ASSIGN
VLP_ABSGRPRND_ERROR
     18427**DCL     20303--ASSIGN  20306>>ASSIGN  20541--ASSIGN  20544>>ASSIGN
VLP_ABSGRPRND_HIDDEN
     18462**DCL     20314--ASSIGN  20317>>ASSIGN  20552--ASSIGN  20555>>ASSIGN
VLP_ABSGRPRND_INPUT
     18497**DCL     20325--ASSIGN  20328>>ASSIGN  20563--ASSIGN  20566>>ASSIGN
VLP_ABSGRPRND_NULL
     18532**DCL     20336--ASSIGN  20339>>ASSIGN  20574--ASSIGN  20577>>ASSIGN
VLP_ABSGRPRND_OUTPUT
     18567**DCL     20347--ASSIGN  20350>>ASSIGN  20585--ASSIGN  20588>>ASSIGN
VLP_ABSGRPRND_WARNING
     18602**DCL     20358--ASSIGN  20361>>ASSIGN  20596--ASSIGN  20599>>ASSIGN
VLP_ASYNC_3270
     18342**DCL     20280--ASSIGN  20283>>ASSIGN
VLP_ASYNC_CCHR
     17563**DCL     20391--ASSIGN  20394>>ASSIGN  21016--ASSIGN  21019>>ASSIGN
VLP_ASYNC_CCHR.CCHR_ARY
     17646**DCL     17647--REDEF
VLP_ASYNC_CCHR.EXTSRD_CHR#
     17675**DCL     17676--REDEF   17677--REDEF   17678--REDEF
VLP_ASYNC_FUNKEY
     18640**DCL     20372--ASSIGN  20375>>ASSIGN
VLP_ASYNC_FUNKEY.FCNKEY
     18684**DCL     18689--REDEF   18692--REDEF   18693--REDEF   18694--REDEF
VLP_ASYNC_FUNKEY.INTRO1
     18652**DCL     18655--REDEF
VLP_ASYNC_FUNKEY.INTRO2
     18656**DCL     18659--REDEF
VLP_ASYNC_PLATEN
     17382**DCL     20254--ASSIGN  20257>>ASSIGN
VLP_ASYNC_PLATEN.EXTWID#
PL6.E3A0      #001=ASD$BUILD_PRO File=ASD$BUILD_PRO.:E05TSI                      TUE 07/29/97 09:44 Page:208
     17384**DCL     20180>>IF
VLP_ASYNC_PLATEN.LENGTH#
     17382**DCL     20185>>ASSIGN
VLP_ASYNC_PLATEN.WIDTH#
     17382**DCL     20184>>ASSIGN
VLP_ASYNC_PNAME
     16629**DCL     20212--ASSIGN  20215>>ASSIGN  20399>>ASSIGN
VLP_ASYNC_SETUP_CHR
     18702**DCL     20379--ASSIGN  20380>>ASSIGN
VLP_ASYNC_TAB
     17485**DCL     20268--ASSIGN  20271>>ASSIGN
VLP_ASYNC_TRMATTR
     17151**DCL     20226--ASSIGN  20229>>ASSIGN
VLP_ASYNC_TRMATTR.APL#
     17157**DCL     20192>>ASSIGN
VLP_ASYNC_TRMATTR.LOWERCASEPRINTS#
     17157**DCL     20194>>ASSIGN
VLP_ASYNC_TRMATTR.TRUOVRPRT#
     17156**DCL     20191>>ASSIGN
VLP_ASYNC_TRMCTL
     16904**DCL     20240--ASSIGN  20243>>ASSIGN
VLP_ASYNC_TRMCTL.BREAKCOUNT
     16915**DCL     16916--REDEF
VLP_GRAPHICFILE_PNAME
     16659**DCL     20402>>ASSIGN
VLP_LINK_LINK
     18035**DCL     20826--ASSIGN  20829>>ASSIGN
VLP_LINK_PNAME
     16776**DCL     20812--ASSIGN  20815>>ASSIGN  20834>>ASSIGN
VLP_POLLVIP_PNAME
     16866**DCL     21068--ASSIGN  21071>>ASSIGN  21090>>ASSIGN
VLP_POLLVIP_TRMD
     17871**DCL     21082--ASSIGN  21085>>ASSIGN
VLP_RBTD_PLATEN
     17466**DCL     20762--ASSIGN  20765>>ASSIGN
VLP_RBTD_PLATEN.EXTWID#
PL6.E3A0      #001=ASD$BUILD_PRO File=ASD$BUILD_PRO.:E05TSI                      TUE 07/29/97 09:44 Page:209
     17468**DCL     20687>>IF
VLP_RBTD_PLATEN.LENGTH#
     17466**DCL     20692>>ASSIGN
VLP_RBTD_PLATEN.WIDTH#
     17466**DCL     20691>>ASSIGN
VLP_RBTD_PNAME
     16746**DCL     20719--ASSIGN  20722>>ASSIGN  20770>>ASSIGN
VLP_RBTD_TRMATTR
     17338**DCL     20747--ASSIGN  20750>>ASSIGN
VLP_RBTD_TRMATTR.APL#
     17344**DCL     20699>>ASSIGN
VLP_RBTD_TRMATTR.LOWERCASEPRINTS#
     17344**DCL     20701>>ASSIGN
VLP_RBTD_TRMATTR.TRUOVRPRT#
     17343**DCL     20698>>ASSIGN
VLP_RBTD_TRMCTL
     17083**DCL     20733--ASSIGN  20736>>ASSIGN
VLP_RBTD_TRMCTL.BREAKCOUNT
     17094**DCL     17095--REDEF
VLP_RBT_PNAME
     16716**DCL     20650--ASSIGN  20653>>ASSIGN  20673>>ASSIGN
VLP_RBT_TRMD
     17707**DCL     20664--ASSIGN  20667>>ASSIGN
VLP_URP_PLATEN
     17438**DCL     20986--ASSIGN  20989>>ASSIGN
VLP_URP_PLATEN.EXTWID#
     17440**DCL     20912>>IF
VLP_URP_PLATEN.LENGTH#
     17438**DCL     20917>>ASSIGN
VLP_URP_PLATEN.WIDTH#
     17438**DCL     20916>>ASSIGN
VLP_URP_PNAME
     16806**DCL     20944--ASSIGN  20947>>ASSIGN  21025>>ASSIGN
VLP_URP_TAB
     17516**DCL     21000--ASSIGN  21003>>ASSIGN
VLP_URP_TRMATTR
PL6.E3A0      #001=ASD$BUILD_PRO File=ASD$BUILD_PRO.:E05TSI                      TUE 07/29/97 09:44 Page:210
     17273**DCL     20972--ASSIGN  20975>>ASSIGN
VLP_URP_TRMATTR.APL#
     17279**DCL     20924>>ASSIGN
VLP_URP_TRMATTR.LOWERCASEPRINTS#
     17279**DCL     20926>>ASSIGN
VLP_URP_TRMATTR.TRUOVRPRT#
     17278**DCL     20923>>ASSIGN
VLP_URP_TRMCTL
     17023**DCL     20958--ASSIGN  20961>>ASSIGN
VLP_URP_TRMCTL.BREAKCOUNT
     17034**DCL     17035--REDEF
VLP_VIRCIR_PNAME
     16836**DCL     20875--ASSIGN  20878>>ASSIGN  20897>>ASSIGN
VLP_VIRCIR_VIRCIR
     18132**DCL     20889--ASSIGN  20892>>ASSIGN
