PL6.E3A0      #002=ASD$R2HUSECS File=ASD$PROFILE.:E05TSI                         TUE 07/29/97 09:55 Page:606
     3685        1        /*T***********************************************************/
     3686        2        /*T*                                                         */
     3687        3        /*T* Copyright (c) Bull HN Information Systems Inc., 1997    */
     3688        4        /*T*                                                         */
     3689        5        /*T***********************************************************/
     3690        6        %EJECT ;
PL6.E3A0      #002=ASD$R2HUSECS File=ASD$PROFILE.:E05TSI                         TUE 07/29/97 09:55 Page:607
     3691        7        ASD$R2HUSECS: PROC ( REAL$, HUSECS ) ALTRET ;
     3692        8        %EJECT ;
PL6.E3A0      #002=ASD$R2HUSECS File=ASD$PROFILE.:E05TSI                         TUE 07/29/97 09:55 Page:608
     3693        9        /********************************************************************/
     3694       10        /*   Parameters      parameters      parameters      parameters      */
     3695       11        /*********************************************************************/
     3696       12
     3697       13    1   DCL REAL$ PTR ;
     3698       14    1   DCL VAL UBIN WORD ;
     3699       15    1   DCL HUSECS UBIN WORD ;
     3700       16        %EJECT ;
PL6.E3A0      #002=ASD$R2HUSECS File=ASD$PROFILE.:E05TSI                         TUE 07/29/97 09:55 Page:609
     3701       17        /********************************************************************/
     3702       18        /*   Include files   include files   include files   include files   */
     3703       19        /*********************************************************************/
     3704       20
     3705       21        %INCLUDE            AS_ENTRIES_M ;
     3706     1071        %INCLUDE            AS_SUPER_C ;
     3707     1506        %INCLUDE            AS_SUBS_C ;
     3708     2920        %INCLUDE            AS_PERR_C ;
     3709     3522        %INCLUDE            AS_MAC_C ;
     3710     3602        %INCLUDE            KL_SUPER_C ;
     3711     6504        %INCLUDE            XU_MACRO_C ;
     3712     9610        %INCLUDE            XU_FORMAT_C ;
     3713     9772        %INCLUDE            AS_SUPER_R ;
     3714    12788        %EJECT ;
PL6.E3A0      #002=ASD$R2HUSECS File=ASD$PROFILE.:E05TSI                         TUE 07/29/97 09:55 Page:610
     3715    12789        /********************************************************************/
     3716    12790        /*   Entry dcls      entry dcls      entry dcls      entry dcls      */
     3717    12791        /*********************************************************************/
     3718    12792
     3719    12793        %ASH$ERROR ;
     3720    12796        %EJECT ;
PL6.E3A0      #002=ASD$R2HUSECS File=ASD$PROFILE.:E05TSI                         TUE 07/29/97 09:55 Page:611
     3721    12797        /********************************************************************/
     3722    12798        /*   Static data     static data     static data     static data     */
     3723    12799        /*********************************************************************/
     3724    12800
     3725    12801        %EJECT ;
PL6.E3A0      #002=ASD$R2HUSECS File=ASD$PROFILE.:E05TSI                         TUE 07/29/97 09:55 Page:612
     3726    12802        /********************************************************************/
     3727    12803        /*   Auto data       auto data       auto data       auto data       */
     3728    12804        /*********************************************************************/
     3729    12805
     3730    12806    1   DCL BLK$ PTR ;
     3731    12807    1   DCL CNT UBIN WORD ;
     3732    12808    1   DCL SUBS UBIN WORD ;
     3733    12809    1   DCL UNITS UBIN WORD ;
     3734    12810        %EJECT ;
PL6.E3A0      #002=ASD$R2HUSECS File=ASD$PROFILE.:E05TSI                         TUE 07/29/97 09:55 Page:613
     3735    12811        /********************************************************************/
     3736    12812        /*   Local based     local based     local based     local based     */
     3737    12813        /*********************************************************************/
     3738    12814
     3739    12815        %LIST ;
     3740    12816            %PARSE$OUT( NAME=P$NODE, STCLASS="BASED(REAL$)",
     3741    12817                        NDTYPE=TYPE, NSUBLKS=SUBNODES) ;
             12818        /*F*  NAME:     PARSE$OUT
             12819              FUNCTION: a structure built by X$PARSE which corresponds to a "list",
             12820                  "alternative", "reducing alternative", or "koncat" node in
             12821                  the user's parse tree.
             12822        */
             12823    1   DCL 1 NAME STCLASS ALIGNED,
             12824    1         2 TEMP BIT(1) UNAL,
             12825    1         2 * BIT (11) UNAL,
             12826    1         2 NDTYPE UBIN (6) UNAL,
             12827        /*K* NDTYPE - specifies the type of parse node to which this PARSE$OUT
             12828                  block corresponds.  See the XU_SUBS_C file for the
             12829                  %EQU symbols whose values may appear in this field.
             12830        */
             12831    1         2 CODE UBIN HALF HALIGNED,
             12832        /*K* CODE - Contains the numeric "node code" specified by the user when
             12833                  the corresponding parse-node was defined.
             12834        */
             12835    1         2 NSUBLKS UBIN HALF HALIGNED,
             12836        /*K* NSUBLKS - "number of sub-blocks".  This field contains the count of
             12837                  pointers actually available in the PARSE$OUT.SUBLK$ array.
             12838        */
             12839    1         2 SCRITCH SCRMODE SCRALGN,
             12840        /*K* SCRITCH - an 18-bit scratch field reserved for the user.  X$PARSE
             12841                  initializes this field to zero when the PARSE$OUT structure
             12842                  is allocated, and never sets or examines it thereafter.
             12843                  The name of this field may be changed when the PARSE$OUT macro
             12844                  is invoked by the user (say "SCRITCH=yourname"), and its data
             12845                  type may also be changed (say "SCRMODE=pl6datatype" and
             12846                  "SCRALGN=alignment").  BEWARE: this field MUST be 18-bits long,
             12847                  and be UNALIGNED, CALIGNED, or HALIGNED.
PL6.E3A0      #002=ASD$R2HUSECS File=ASD$PROFILE.:E05TSI                         TUE 07/29/97 09:55 Page:614
             12848        */
             12849    1         2 CPOS UBIN WORD,
             12850        /*K* CPOS - "character position" of this block.  This field will contain
             12851                  a character index (starting at 0) into the original parse
             12852                  string;  the index identifies the first character of the
             12853                  string which was accepted by this node (or by any of its
             12854                  sub-nodes).
             12855        */
             12856    1         2 SUBLK$(0:0) PTR UNAL;
             12857        /*K* SUBLK$ - an array of PL-6 PTRs.  The number of elements in this array
             12858                  is found in OUT$BLK.NSUBLKS;  each PTR will point to another
             12859                  OUT$BLK structure, or to an OUT$SYM structure.
             12860        */
     3742    12862              %PARSE$SYM( NAME = OUT$SYM ,
     3743    12863                          STCLASS="BASED(BLK$)") ;
             12864        /*F*  NAME:     PARSE$SYM
             12865              FUNCTION: holds "parse symbols".  Structures of this form are created
             12866                  by X$PARSE to hold those portions of the string being parsed
             12867                  which must be returned to the user - quoted strings, decimal
             12868                  or octal numbers, PL-6 identifiers, etc.
             12869        */
             12870    1   DCL 1 NAME STCLASS ALIGNED,
             12871    1         2 TEMP BIT(1) UNAL,
             12872    1         2 * BIT (11) UNAL,
             12873    1         2 NDTYPE UBIN (6) UNAL,
             12874        /*K* NDTYPE - see OUT$BLK.NDTYPE for details.
             12875        */
             12876    1         2 CODE UBIN HALF HALIGNED,
             12877        /*K* CODE - see OUT$BLK.CODE for details.
             12878        */
             12879    1         2 NSUBLKS UBIN HALF HALIGNED,
             12880        /*K* NSUBLKS - always contains the value 1.
             12881        */
             12882    1         2 SCRITCH SCRMODE SCRALGN,
             12883        /*K* SCRITCH - see OUT$BLK.SCRITCH for details.
             12884        */
             12885    1         2 CPOS UBIN WORD,
PL6.E3A0      #002=ASD$R2HUSECS File=ASD$PROFILE.:E05TSI                         TUE 07/29/97 09:55 Page:615
             12886        /*K* CPOS - see OUT$BLK.CPOS for details.
             12887        */
             12888    1         2 TEXTC$ PTR,
             12889        /*K* TEXTC$ - a pointer to a TEXTC-type string (a 1-byte count field
             12890                  followed by a variable number of characters).  Always
             12891                  points to OUT$SYM.COUNT in the current OUT$SYM block.
             12892        */
             12893    1         2 COUNT UBIN BYTE CALIGNED,
             12894        /*K* COUNT - contains the number of characters in OUT$SYM.TEXT.
             12895        */
             12896    1         2 TEXT CHAR(NAME.COUNT) CALIGNED;
             12897        /*K* TEXT - contains the text of a string, decimal number, PL-6
             12898                  identifier, or some other parser "symbol".
             12899        */
     3744    12901        %PLIST ;
     3745    12902        %EJECT ;
PL6.E3A0      #002=ASD$R2HUSECS File=ASD$PROFILE.:E05TSI                         TUE 07/29/97 09:55 Page:616
     3746    12903        /*********************************************************************/
     3747    12904        /*   Procedure       procedure       procedure       procedure       */
     3748    12905        /*********************************************************************/
     3749    12906
     3750    12907        /*
     3751    12908            ***            Begin procedure                    ***
     3752    12909        */
     3753    12910    1   SUBS = P$NODE.SUBNODES ;
     3754    12911    1   UNITS = 0 ;
     3755    12912                                                              /* Was there a decimal. */
     3756    12913    2   IF SUBS = 2 THEN DO;
     3757    12914    2      BLK$ = P$NODE.SUBLK$(1) ;
     3758    12915    3      IF OUT$SYM.COUNT > 1 THEN DO;
     3759    12916        /*E*  ERROR:    ASD-E$TOOMANYDIGITS-C
     3760    12917              MESSAGE:  Too many digits after decimal point.
     3761    12918              MESSAGE1: There can be at most 1 digit after the decimal point.
     3762    12919        */
     3763    12920              %SCREAM( ERR#=E$TOOMANYDIGITS, LEVEL=ERROR, MID='F');
     3764    12935    3         ALTRETURN ;
     3765    12936    3         END ; /* Then do */
     3766    12937    2      CALL CHARBIN( UNITS, OUT$SYM.TEXT ) ;
     3767    12938    2      END ; /* Then do */
     3768    12939
     3769    12940    1   BLK$ = P$NODE.SUBLK$(0) ;
     3770    12941    1   CALL CHARBIN( VAL, OUT$SYM.TEXT ) ;
     3771    12942    1   HUSECS = 10 * VAL + UNITS ;
     3772    12943
     3773    12944    1   RETURN ;
     3774    12945
     3775    12946    1   END   ASD$R2HUSECS ;

PL6.E3A0      #002=ASD$R2HUSECS File=ASD$PROFILE.:E05TSI                         TUE 07/29/97 09:55 Page:617
--  Include file information  --

   AS_SUPER_R.:E05TOU  cannot be made into a system file and is referenced.
   XU_FORMAT_C.:E05TOU  is referenced.
   XU_MACRO_C.:E05TOU  is referenced.
   KL_SUPER_C.:E05TOU  is referenced.
   AS_MAC_C.:E05TOU  cannot be made into a system file and is referenced.
   AS_PERR_C.:E05TOU  is referenced.
   AS_SUBS_C.:E05TOU  is referenced.
   AS_SUPER_C.:E05TOU  is referenced.
   AS_ENTRIES_M.:E05TOU  is referenced.
   B$JIT_C.:E05TOU  was found in the system file and is never referenced.
   CP_6_C.:E05TOU  was found in the system file and is never referenced.
      No diagnostics issued in procedure ASD$R2HUSECS.

   Procedure ASD$R2HUSECS requires 48 words for executable code.
   Procedure ASD$R2HUSECS requires 12 words of local(AUTO) storage.

    No errors detected in file ASD$PROFILE.:E05TSI    .

PL6.E3A0      #002=ASD$R2HUSECS File=ASD$PROFILE.:E05TSI                         TUE 07/29/97 09:55 Page:618

 Object Unit name= ASD$R2HUSECS                               File name= ASD$PROFILE.:E05TOU
 UTS= JUL 29 '97 09:55:16.96 TUE                              Compiler= PL-6/E31         Sev=      00
 SharedLib= :SHARED_SYSTEM                                    Alt SharedLib=


    ****  Control sections  ****

 Sect   Type Bound  Init  Size OctSiz  Section name(segment info)
    0   DCB   even  none     0      0  M$LO
    1  RoData even  UTS      1      1  ASD$R2HUSECS
    2   Proc  even  none    48     60  ASD$R2HUSECS
    3  RoData even  none     1      1  ASD$R2HUSECS

    ****  Entry defs  ****

                              Check   Calling
                             calling  sequence
  Sect OctLoc Primary Altret sequence   type   Parms  Name
     2      0   yes    yes     yes      Std        2  ASD$R2HUSECS

  ****  Entry refs  ****

         Check        Calling
        calling       sequence
Altret sequence SRef   type   Args  Name
         yes          ~proc      0 XU_OUTPUT_OPTIONS
         yes           Std       2 ASH$ERROR
                       nStd      0 X66_AUTO_2
                       Std       0 B_CONSPOOL_D
                       nStd      0 X66_AALT
                       nStd      0 X66_ARET
PL6.E3A0      #002=ASD$R2HUSECS File=ASD$PROFILE.:E05TSI                         TUE 07/29/97 09:55 Page:619

  ****  Data refs  ****

  Flags:  r = read only, s = secondary
Flgs Name                             Flgs Name                             Flgs Name
r    AS_MODE                          r    AS_FE_MODE                            M$LO
     ERR_CODE                              REMEM_VAR                             REM_FCMD
     ASA_BRKS_LOC                          B_VECTNIL

  ****  Segment refs  ****

  Flags:  r = read only, s = secondary
Flgs Name                             Flgs Name                             Flgs Name
     ISSID
PL6.E3A0      #002=ASD$R2HUSECS File=ASD$PROFILE.:E05TSI                         TUE 07/29/97 09:55 Page:620


     3685        1        /*T***********************************************************/
     3686        2        /*T*                                                         */
     3687        3        /*T* Copyright (c) Bull HN Information Systems Inc., 1997    */
     3688        4        /*T*                                                         */
     3689        5        /*T***********************************************************/
     3690        6        %EJECT ;
PL6.E3A0      #002=ASD$R2HUSECS File=ASD$PROFILE.:E05TSI                         TUE 07/29/97 09:55 Page:621
     3691        7        ASD$R2HUSECS: PROC ( REAL$, HUSECS ) ALTRET ;

      7  2 000000   000000 700200 xent  ASD$R2HUSECS TSX0  ! X66_AUTO_2
         2 000001   000014 000002                    ZERO    12,2

     3692        8        %EJECT ;
PL6.E3A0      #002=ASD$R2HUSECS File=ASD$PROFILE.:E05TSI                         TUE 07/29/97 09:55 Page:622
     3693        9        /********************************************************************/
     3694       10        /*   Parameters      parameters      parameters      parameters      */
     3695       11        /*********************************************************************/
     3696       12
     3697       13    1   DCL REAL$ PTR ;
     3698       14    1   DCL VAL UBIN WORD ;
     3699       15    1   DCL HUSECS UBIN WORD ;
     3700       16        %EJECT ;
PL6.E3A0      #002=ASD$R2HUSECS File=ASD$PROFILE.:E05TSI                         TUE 07/29/97 09:55 Page:623
     3701       17        /********************************************************************/
     3702       18        /*   Include files   include files   include files   include files   */
     3703       19        /*********************************************************************/
     3704       20
     3705       21        %INCLUDE            AS_ENTRIES_M ;
     3706     1071        %INCLUDE            AS_SUPER_C ;
     3707     1506        %INCLUDE            AS_SUBS_C ;
     3708     2920        %INCLUDE            AS_PERR_C ;
     3709     3522        %INCLUDE            AS_MAC_C ;
     3710     3602        %INCLUDE            KL_SUPER_C ;
     3711     6504        %INCLUDE            XU_MACRO_C ;
     3712     9610        %INCLUDE            XU_FORMAT_C ;
     3713     9772        %INCLUDE            AS_SUPER_R ;
     3714    12788        %EJECT ;
PL6.E3A0      #002=ASD$R2HUSECS File=ASD$PROFILE.:E05TSI                         TUE 07/29/97 09:55 Page:624
     3715    12789        /********************************************************************/
     3716    12790        /*   Entry dcls      entry dcls      entry dcls      entry dcls      */
     3717    12791        /*********************************************************************/
     3718    12792
     3719    12793        %ASH$ERROR ;
     3720    12796        %EJECT ;
PL6.E3A0      #002=ASD$R2HUSECS File=ASD$PROFILE.:E05TSI                         TUE 07/29/97 09:55 Page:625
     3721    12797        /********************************************************************/
     3722    12798        /*   Static data     static data     static data     static data     */
     3723    12799        /*********************************************************************/
     3724    12800
     3725    12801        %EJECT ;
PL6.E3A0      #002=ASD$R2HUSECS File=ASD$PROFILE.:E05TSI                         TUE 07/29/97 09:55 Page:626
     3726    12802        /********************************************************************/
     3727    12803        /*   Auto data       auto data       auto data       auto data       */
     3728    12804        /*********************************************************************/
     3729    12805
     3730    12806    1   DCL BLK$ PTR ;
     3731    12807    1   DCL CNT UBIN WORD ;
     3732    12808    1   DCL SUBS UBIN WORD ;
     3733    12809    1   DCL UNITS UBIN WORD ;
     3734    12810        %EJECT ;
PL6.E3A0      #002=ASD$R2HUSECS File=ASD$PROFILE.:E05TSI                         TUE 07/29/97 09:55 Page:627
     3735    12811        /********************************************************************/
     3736    12812        /*   Local based     local based     local based     local based     */
     3737    12813        /*********************************************************************/
     3738    12814
     3739    12815        %LIST ;
     3740    12816            %PARSE$OUT( NAME=P$NODE, STCLASS="BASED(REAL$)",
     3741    12817                        NDTYPE=TYPE, NSUBLKS=SUBNODES) ;
             12818        /*F*  NAME:     PARSE$OUT
             12819              FUNCTION: a structure built by X$PARSE which corresponds to a "list",
             12820                  "alternative", "reducing alternative", or "koncat" node in
             12821                  the user's parse tree.
             12822        */
             12823    1   DCL 1 NAME STCLASS ALIGNED,
             12824    1         2 TEMP BIT(1) UNAL,
             12825    1         2 * BIT (11) UNAL,
             12826    1         2 NDTYPE UBIN (6) UNAL,
             12827        /*K* NDTYPE - specifies the type of parse node to which this PARSE$OUT
             12828                  block corresponds.  See the XU_SUBS_C file for the
             12829                  %EQU symbols whose values may appear in this field.
             12830        */
             12831    1         2 CODE UBIN HALF HALIGNED,
             12832        /*K* CODE - Contains the numeric "node code" specified by the user when
             12833                  the corresponding parse-node was defined.
             12834        */
             12835    1         2 NSUBLKS UBIN HALF HALIGNED,
             12836        /*K* NSUBLKS - "number of sub-blocks".  This field contains the count of
             12837                  pointers actually available in the PARSE$OUT.SUBLK$ array.
             12838        */
             12839    1         2 SCRITCH SCRMODE SCRALGN,
             12840        /*K* SCRITCH - an 18-bit scratch field reserved for the user.  X$PARSE
             12841                  initializes this field to zero when the PARSE$OUT structure
             12842                  is allocated, and never sets or examines it thereafter.
             12843                  The name of this field may be changed when the PARSE$OUT macro
             12844                  is invoked by the user (say "SCRITCH=yourname"), and its data
             12845                  type may also be changed (say "SCRMODE=pl6datatype" and
             12846                  "SCRALGN=alignment").  BEWARE: this field MUST be 18-bits long,
             12847                  and be UNALIGNED, CALIGNED, or HALIGNED.
PL6.E3A0      #002=ASD$R2HUSECS File=ASD$PROFILE.:E05TSI                         TUE 07/29/97 09:55 Page:628
             12848        */
             12849    1         2 CPOS UBIN WORD,
             12850        /*K* CPOS - "character position" of this block.  This field will contain
             12851                  a character index (starting at 0) into the original parse
             12852                  string;  the index identifies the first character of the
             12853                  string which was accepted by this node (or by any of its
             12854                  sub-nodes).
             12855        */
             12856    1         2 SUBLK$(0:0) PTR UNAL;
             12857        /*K* SUBLK$ - an array of PL-6 PTRs.  The number of elements in this array
             12858                  is found in OUT$BLK.NSUBLKS;  each PTR will point to another
             12859                  OUT$BLK structure, or to an OUT$SYM structure.
             12860        */
     3742    12862              %PARSE$SYM( NAME = OUT$SYM ,
     3743    12863                          STCLASS="BASED(BLK$)") ;
             12864        /*F*  NAME:     PARSE$SYM
             12865              FUNCTION: holds "parse symbols".  Structures of this form are created
             12866                  by X$PARSE to hold those portions of the string being parsed
             12867                  which must be returned to the user - quoted strings, decimal
             12868                  or octal numbers, PL-6 identifiers, etc.
             12869        */
             12870    1   DCL 1 NAME STCLASS ALIGNED,
             12871    1         2 TEMP BIT(1) UNAL,
             12872    1         2 * BIT (11) UNAL,
             12873    1         2 NDTYPE UBIN (6) UNAL,
             12874        /*K* NDTYPE - see OUT$BLK.NDTYPE for details.
             12875        */
             12876    1         2 CODE UBIN HALF HALIGNED,
             12877        /*K* CODE - see OUT$BLK.CODE for details.
             12878        */
             12879    1         2 NSUBLKS UBIN HALF HALIGNED,
             12880        /*K* NSUBLKS - always contains the value 1.
             12881        */
             12882    1         2 SCRITCH SCRMODE SCRALGN,
             12883        /*K* SCRITCH - see OUT$BLK.SCRITCH for details.
             12884        */
             12885    1         2 CPOS UBIN WORD,
PL6.E3A0      #002=ASD$R2HUSECS File=ASD$PROFILE.:E05TSI                         TUE 07/29/97 09:55 Page:629
             12886        /*K* CPOS - see OUT$BLK.CPOS for details.
             12887        */
             12888    1         2 TEXTC$ PTR,
             12889        /*K* TEXTC$ - a pointer to a TEXTC-type string (a 1-byte count field
             12890                  followed by a variable number of characters).  Always
             12891                  points to OUT$SYM.COUNT in the current OUT$SYM block.
             12892        */
             12893    1         2 COUNT UBIN BYTE CALIGNED,
             12894        /*K* COUNT - contains the number of characters in OUT$SYM.TEXT.
             12895        */
             12896    1         2 TEXT CHAR(NAME.COUNT) CALIGNED;
             12897        /*K* TEXT - contains the text of a string, decimal number, PL-6
             12898                  identifier, or some other parser "symbol".
             12899        */
     3744    12901        %PLIST ;
     3745    12902        %EJECT ;
PL6.E3A0      #002=ASD$R2HUSECS File=ASD$PROFILE.:E05TSI                         TUE 07/29/97 09:55 Page:630
     3746    12903        /*********************************************************************/
     3747    12904        /*   Procedure       procedure       procedure       procedure       */
     3748    12905        /*********************************************************************/
     3749    12906
     3750    12907        /*
     3751    12908            ***            Begin procedure                    ***
     3752    12909        */
     3753    12910    1   SUBS = P$NODE.SUBNODES ;

  12910  2 000002   200003 470500                    LDP0    @REAL$,,AUTO
         2 000003   000000 471500                    LDP1    0,,PR0
         2 000004   100001 236100                    LDQ     1,,PR1
         2 000005   000022 772000                    QRL     18
         2 000006   200010 756100                    STQ     SUBS,,AUTO

     3754    12911    1   UNITS = 0 ;

  12911  2 000007   200011 450100                    STZ     UNITS,,AUTO

     3755    12912                                                              /* Was there a decimal. */
     3756    12913    2   IF SUBS = 2 THEN DO;

  12913  2 000010   000002 116007                    CMPQ    2,DL
         2 000011   000036 601000 2                  TNZ     s:12940

     3757    12914    2      BLK$ = P$NODE.SUBLK$(1) ;

  12914  2 000012   100004 236100                    LDQ     4,,PR1
         2 000013   200006 756100                    STQ     BLK$,,AUTO

     3758    12915    3      IF OUT$SYM.COUNT > 1 THEN DO;

  12915  2 000014   200006 473500                    LDP3    BLK$,,AUTO
         2 000015   300004 236100                    LDQ     4,,PR3
         2 000016   777000 376003                    ANQ     -512,DU
         2 000017   002000 116003                    CMPQ    1024,DU
         2 000020   000026 602000 2                  TNC     s:12937
PL6.E3A0      #002=ASD$R2HUSECS File=ASD$PROFILE.:E05TSI                         TUE 07/29/97 09:55 Page:631

     3759    12916        /*E*  ERROR:    ASD-E$TOOMANYDIGITS-C
     3760    12917              MESSAGE:  Too many digits after decimal point.
     3761    12918              MESSAGE1: There can be at most 1 digit after the decimal point.
     3762    12919        */
     3763    12920              %SCREAM( ERR#=E$TOOMANYDIGITS, LEVEL=ERROR, MID='F');

  12932  2 000021   000000 630400 3                  EPPR0   0
         2 000022   000017 631400 xsym               EPPR1   B_VECTNIL+15
         2 000023   000000 701000 xent               TSX1    ASH$ERROR
         2 000024   000000 011000                    NOP     0

     3764    12935    3         ALTRETURN ;

  12935  2 000025   000000 702200 xent               TSX2  ! X66_AALT

     3765    12936    3         END ; /* Then do */
     3766    12937    2      CALL CHARBIN( UNITS, OUT$SYM.TEXT ) ;

  12937  2 000026   300004 236100                    LDQ     4,,PR3
         2 000027   000033 772000                    QRL     27
         2 000030   000000 620006                    EAX0    0,QL
         2 000031   000100 305540                    DTB
         2 000032   300004 230010                    NDSC9   4,,PR3                   cn=1,s=nosgn,sf=0,n=*X0
         2 000033   200012 000010                    NDSC9   UNITS+1,,AUTO            cn=0,s=lsgnf,sf=0,n=8
         2 000034   200013 235100                    LDA     UNITS+2,,AUTO
         2 000035   200011 755100                    STA     UNITS,,AUTO

     3767    12938    2      END ; /* Then do */

     3768    12939
     3769    12940    1   BLK$ = P$NODE.SUBLK$(0) ;

  12940  2 000036   000000 471500                    LDP1    0,,PR0
         2 000037   100003 236100                    LDQ     3,,PR1
         2 000040   200006 756100                    STQ     BLK$,,AUTO

PL6.E3A0      #002=ASD$R2HUSECS File=ASD$PROFILE.:E05TSI                         TUE 07/29/97 09:55 Page:632
     3770    12941    1   CALL CHARBIN( VAL, OUT$SYM.TEXT ) ;

  12941  2 000041   200006 473500                    LDP3    BLK$,,AUTO
         2 000042   300004 236100                    LDQ     4,,PR3
         2 000043   000033 772000                    QRL     27
         2 000044   000000 620006                    EAX0    0,QL
         2 000045   000100 305540                    DTB
         2 000046   300004 230010                    NDSC9   4,,PR3                   cn=1,s=nosgn,sf=0,n=*X0
         2 000047   200012 000010                    NDSC9   UNITS+1,,AUTO            cn=0,s=lsgnf,sf=0,n=8
         2 000050   200013 235100                    LDA     UNITS+2,,AUTO
         2 000051   200005 755100                    STA     VAL,,AUTO

     3771    12942    1   HUSECS = 10 * VAL + UNITS ;

  12942  2 000052   200005 236100                    LDQ     VAL,,AUTO
         2 000053   000012 402007                    MPY     10,DL
         2 000054   200011 036100                    ADLQ    UNITS,,AUTO
         2 000055   200004 471500                    LDP1    @HUSECS,,AUTO
         2 000056   100000 756100                    STQ     0,,PR1

     3772    12943
     3773    12944    1   RETURN ;

  12944  2 000057   000000 702200 xent               TSX2  ! X66_ARET
     3774    12945
     3775    12946    1   END   ASD$R2HUSECS ;

PL6.E3A0      #002=ASD$R2HUSECS File=ASD$PROFILE.:E05TSI                         TUE 07/29/97 09:55 Page:633
--  Include file information  --

   AS_SUPER_R.:E05TOU  cannot be made into a system file and is referenced.
   XU_FORMAT_C.:E05TOU  is referenced.
   XU_MACRO_C.:E05TOU  is referenced.
   KL_SUPER_C.:E05TOU  is referenced.
   AS_MAC_C.:E05TOU  cannot be made into a system file and is referenced.
   AS_PERR_C.:E05TOU  is referenced.
   AS_SUBS_C.:E05TOU  is referenced.
   AS_SUPER_C.:E05TOU  is referenced.
   AS_ENTRIES_M.:E05TOU  is referenced.
   B$JIT_C.:E05TOU  was found in the system file and is never referenced.
   CP_6_C.:E05TOU  was found in the system file and is never referenced.
      No diagnostics issued in procedure ASD$R2HUSECS.
PL6.E3A0      #002=ASD$R2HUSECS File=ASD$PROFILE.:E05TSI                         TUE 07/29/97 09:55 Page:634

 **** Variables and constants ****

  ****  Auto variables  ****

  ****  Scalars and arrays  ****
OctLoc.c.b A Datatyp(siz) R M Lvl/name                 OctLoc.c.b A Datatyp(siz) R M Lvl/name

     4-0-0/w PTR         r     1 @HUSECS                    3-0-0/w PTR         r     1 @REAL$
     6-0-0/w PTR         r     1 BLK$                      *0-0-0/w UBIN        r     1 HUSECS
    *0-0-0/w PTR         r     1 REAL$                     10-0-0/w UBIN        r     1 SUBS
    11-0-0/w UBIN        r     1 UNITS                      5-0-0/w UBIN        r     1 VAL

  ****  BASED and DCB variables  ****

  ****  Scalars and arrays  ****
OctLoc.c.b A Datatyp(siz) R M Lvl/name                 OctLoc.c.b A Datatyp(siz) R M Lvl/name

     0-0-0/w ASTR(153)   r     1 OUT$SYM                    0-0-0/w STRC(144)   r     1 P$NODE


   Procedure ASD$R2HUSECS requires 48 words for executable code.
   Procedure ASD$R2HUSECS requires 12 words of local(AUTO) storage.

    No errors detected in file ASD$PROFILE.:E05TSI    .
PL6.E3A0      #002=ASD$R2HUSECS File=ASD$PROFILE.:E05TSI                         TUE 07/29/97 09:55 Page:635
          *** CROSS REFERENCE LISTING ***
**     DENOTES     IDENTIFIER DEFINITION
<<                 IDENTIFIER'S VALUE SET
>>                 IDENTIFIER'S VALUE USED
<>                 IDENTIFIER SET AND/OR USED
--                 IDENTIFIER REFERENCED
PL6.E3A0      #002=ASD$R2HUSECS File=ASD$PROFILE.:E05TSI                         TUE 07/29/97 09:55 Page:636
          MINI XREF LISTING

ASA_BRKS_LOC
      9936**DCL      9936--REDEF
ASH$ERROR
     12794**DCL-ENT 12932--CALL
AS_DEFAULT.BANNER_PERM
     10629**DCL     10630--REDEF
AS_DEFAULT.BUDGET.MACCT
     10534**DCL     10538--REDEF
AS_DEFAULT.BUDGET.MAX_PROJECTS
     10547**DCL     10550--REDEF
AS_DEFAULT.BUDGET.PACCUM
     10530**DCL     10532--REDEF
AS_DEFAULT.BUDGET.PMAXC
     10525**DCL     10527--REDEF
AS_DEFAULT.SETUP_CHRA.TXT
     10645**DCL     10646--REDEF   10647--REDEF
AS_DEFAULT_DREC.PASSWORD
     11899**DCL     11903--REDEF
AS_DEFAULT_DREC.RENAME
     11922**DCL     11923--REDEF
AS_DFLT.BANNER_PERM
     10451**DCL     10452--REDEF
AS_DFLT.BUDGET.MACCT
     10356**DCL     10360--REDEF
AS_DFLT.BUDGET.MAX_PROJECTS
     10369**DCL     10372--REDEF
AS_DFLT.BUDGET.PACCUM
     10352**DCL     10354--REDEF
AS_DFLT.BUDGET.PMAXC
     10347**DCL     10349--REDEF
AS_DFLT.SETUP_CHRA.TXT
     10467**DCL     10468--REDEF   10469--REDEF
PL6.E3A0      #002=ASD$R2HUSECS File=ASD$PROFILE.:E05TSI                         TUE 07/29/97 09:55 Page:637
AS_FE_MODE
      9802**DCL      9803--REDEF
AS_MODE
      9799**DCL      9801--REDEF
AS_MOD_USER.ACCESS
     12664**DCL     12665--REDEF
AS_MOD_USER.BANNER
     12651**DCL     12652--REDEF
AS_MOD_USER.BANNER_PERM
     12653**DCL     12654--REDEF
AS_MOD_USER.BILL
     12659**DCL     12660--REDEF
AS_MOD_USER.CPROC
     12655**DCL     12656--REDEF
AS_MOD_USER.FEBILL
     12735**DCL     12736--REDEF
AS_MOD_USER.FECXTMEM
     12752**DCL     12753--REDEF
AS_MOD_USER.FEMINTS
     12737**DCL     12738--REDEF
AS_MOD_USER.FEMMEM
     12748**DCL     12749--REDEF
AS_MOD_USER.FEMTIME
     12746**DCL     12747--REDEF
AS_MOD_USER.FEPPRIV
     12743**DCL     12745--REDEF
AS_MOD_USER.FEPRIV
     12740**DCL     12742--REDEF
AS_MOD_USER.FORCE_BIT
     12649**DCL     12650--REDEF
AS_MOD_USER.KEY
     12731**DCL     12733--REDEF
AS_MOD_USER.LASTCPROC
     12657**DCL     12658--REDEF
AS_MOD_USER.LIMITS.DO_
     12705**DCL     12706--REDEF
PL6.E3A0      #002=ASD$R2HUSECS File=ASD$PROFILE.:E05TSI                         TUE 07/29/97 09:55 Page:638
AS_MOD_USER.LIMITS.FPOOLS
     12721**DCL     12722--REDEF
AS_MOD_USER.LIMITS.LO
     12701**DCL     12702--REDEF
AS_MOD_USER.LIMITS.MEM
     12697**DCL     12698--REDEF
AS_MOD_USER.LIMITS.MPRIO
     12725**DCL     12726--REDEF
AS_MOD_USER.LIMITS.PDIS
     12713**DCL     12714--REDEF
AS_MOD_USER.LIMITS.PO
     12709**DCL     12710--REDEF
AS_MOD_USER.LIMITS.TDIS
     12717**DCL     12718--REDEF
AS_MOD_USER.LIMITS.TIME
     12693**DCL     12694--REDEF
AS_MOD_USER.MAXENQ
     12674**DCL     12675--REDEF
AS_MOD_USER.PERM_BIT
     12647**DCL     12648--REDEF
AS_MOD_USER.PPRIV
     12669**DCL     12671--REDEF
AS_MOD_USER.PRIOB
     12676**DCL     12677--REDEF
AS_MOD_USER.PRIV
     12666**DCL     12668--REDEF
AS_MOD_USER.QUAN
     12672**DCL     12673--REDEF
AS_MOD_USER.SETUP
     12645**DCL     12646--REDEF
AS_PROJECT.BANNER_PERM
     10985**DCL     10986--REDEF
AS_PROJECT.BUDGET.MACCT
     10890**DCL     10894--REDEF
AS_PROJECT.BUDGET.MAX_PROJECTS
     10903**DCL     10906--REDEF
PL6.E3A0      #002=ASD$R2HUSECS File=ASD$PROFILE.:E05TSI                         TUE 07/29/97 09:55 Page:639
AS_PROJECT.BUDGET.PACCUM
     10886**DCL     10888--REDEF
AS_PROJECT.BUDGET.PMAXC
     10881**DCL     10883--REDEF
AS_PROJECT.SETUP_CHRA.TXT
     11001**DCL     11002--REDEF   11003--REDEF
AS_PROJECT_DFLT.BANNER_PERM
     11163**DCL     11164--REDEF
AS_PROJECT_DFLT.BUDGET.MACCT
     11068**DCL     11072--REDEF
AS_PROJECT_DFLT.BUDGET.MAX_PROJECTS
     11081**DCL     11084--REDEF
AS_PROJECT_DFLT.BUDGET.PACCUM
     11064**DCL     11066--REDEF
AS_PROJECT_DFLT.BUDGET.PMAXC
     11059**DCL     11061--REDEF
AS_PROJECT_DFLT.SETUP_CHRA.TXT
     11179**DCL     11180--REDEF   11181--REDEF
AS_PROJECT_DFLT_DREC.PASSWORD
     12385**DCL     12389--REDEF
AS_PROJECT_DFLT_DREC.RENAME
     12408**DCL     12409--REDEF
AS_PROJECT_DREC.PASSWORD
     12223**DCL     12227--REDEF
AS_PROJECT_DREC.RENAME
     12246**DCL     12247--REDEF
AS_PROJ_ADMIN.BANNER_PERM
     10807**DCL     10808--REDEF
AS_PROJ_ADMIN.BUDGET.MACCT
     10712**DCL     10716--REDEF
AS_PROJ_ADMIN.BUDGET.MAX_PROJECTS
     10725**DCL     10728--REDEF
AS_PROJ_ADMIN.BUDGET.PACCUM
     10708**DCL     10710--REDEF
AS_PROJ_ADMIN.BUDGET.PMAXC
     10703**DCL     10705--REDEF
PL6.E3A0      #002=ASD$R2HUSECS File=ASD$PROFILE.:E05TSI                         TUE 07/29/97 09:55 Page:640
AS_PROJ_ADMIN.SETUP_CHRA.TXT
     10823**DCL     10824--REDEF   10825--REDEF
AS_PROJ_ADMIN_DREC.PASSWORD
     12061**DCL     12065--REDEF
AS_PROJ_ADMIN_DREC.RENAME
     12084**DCL     12085--REDEF
AS_USERS.BANNER_PERM
     10273**DCL     10274--REDEF
AS_USERS.BUDGET.MACCT
     10178**DCL     10182--REDEF
AS_USERS.BUDGET.MAX_PROJECTS
     10191**DCL     10194--REDEF
AS_USERS.BUDGET.PACCUM
     10174**DCL     10176--REDEF
AS_USERS.BUDGET.PMAXC
     10169**DCL     10171--REDEF
AS_USERS.SETUP_CHRA.TXT
     10289**DCL     10290--REDEF   10291--REDEF
AS_USERS_CONSTANT.BANNER_PERM
     11341**DCL     11342--REDEF
AS_USERS_CONSTANT.BUDGET.MACCT
     11246**DCL     11250--REDEF
AS_USERS_CONSTANT.BUDGET.MAX_PROJECTS
     11259**DCL     11262--REDEF
AS_USERS_CONSTANT.BUDGET.PACCUM
     11242**DCL     11244--REDEF
AS_USERS_CONSTANT.BUDGET.PMAXC
     11237**DCL     11239--REDEF
AS_USERS_CONSTANT.SETUP_CHRA.TXT
     11357**DCL     11358--REDEF   11359--REDEF
BLK$
     12806**DCL     12870--IMP-PTR 12914<<ASSIGN  12915>>IF      12937>>CALLBLT 12937>>CALLBLT 12940<<ASSIGN
     12941>>CALLBLT 12941>>CALLBLT
ERR_CODE
      9931**DCL      9932--REDEF
HUSECS
PL6.E3A0      #002=ASD$R2HUSECS File=ASD$PROFILE.:E05TSI                         TUE 07/29/97 09:55 Page:641
        15**DCL         7--PROC    12942<<ASSIGN
KL_DEFAULT.PASSWORD
     12547**DCL     12551--REDEF
KL_DEFAULT.RENAME
     12570**DCL     12571--REDEF
KL_DFLT.PASSWORD
     11737**DCL     11741--REDEF
KL_DFLT.RENAME
     11760**DCL     11761--REDEF
KL_DREC.PASSWORD
     11575**DCL     11579--REDEF
KL_DREC.RENAME
     11598**DCL     11599--REDEF
KL_DREC_CNT.PASSWORD
     11462**DCL     11466--REDEF
KL_DREC_CNT.RENAME
     11485**DCL     11486--REDEF
OUT$SYM.COUNT
     12893**DCL     12896--IMP-SIZ 12915>>IF      12937>>CALLBLT 12941>>CALLBLT
OUT$SYM.TEXT
     12896**DCL     12937>>CALLBLT 12941>>CALLBLT
P$NODE.SUBLK$
     12856**DCL     12914>>ASSIGN  12940>>ASSIGN
P$NODE.SUBNODES
     12835**DCL     12910>>ASSIGN
PROJ_KEY.TEXT
      9809**DCL      9809--REDEF
PROJ_KEY.TXT.PROJECT
      9809**DCL      9809--REDEF
REAL$
        13**DCL         7--PROC    12823--IMP-PTR 12910>>ASSIGN  12914>>ASSIGN  12940>>ASSIGN
REMEM_VAR
      9935**DCL      9935--REDEF
REM_FCMD
      9935**DCL      9936--REDEF
SUBS
PL6.E3A0      #002=ASD$R2HUSECS File=ASD$PROFILE.:E05TSI                         TUE 07/29/97 09:55 Page:642
     12808**DCL     12910<<ASSIGN  12913>>IF
UNITS
     12809**DCL     12911<<ASSIGN  12937<<CALLBLT 12942>>ASSIGN
USERS_KEY.TEXT
      9806**DCL      9807--REDEF    9807--REDEF    9807--REDEF    9808--REDEF
VAL
        14**DCL     12941<<CALLBLT 12942>>ASSIGN
