PL6.E3A0      #001=ASD$PROFILE File=ASD$PROFILE.:E05TSI                          TUE 07/29/97 09:46 Page:519
         4 015237   200170 116100                    CMPQ    VAL1,,AUTO
         4 015240   015310 601000 4                  TNZ     s:23217
         4 015241   000100 100500                    MLR     fill='000'O
         4 015242   000000 400002                    ADSC9   0,,PR0                   cn=2,n=2
         4 015243   200221 000004                    ADSC9   PINC_INC+2,,AUTO         cn=0,n=4
         4 015244   200221 236100                    LDQ     PINC_INC+2,,AUTO
         4 015245   000022 732000                    QRS     18
         4 015246   200171 116100                    CMPQ    VAL2,,AUTO
         4 015247   015310 601000 4                  TNZ     s:23217

     3436    23195    5                 (VAL2 = KL$FUNKEY.INTRO1.CHR2)) THEN
     3437    23196    6            DO;

     3438    23197    6               POSITION = I;

  23197  4 015250   200175 236100                    LDQ     I,,AUTO
         4 015251   200167 756100                    STQ     POSITION,,AUTO

     3439    23198    6               RETURN;

  23198  4 015252   200174 221300                    LDX1  ! SAVEIDX+1,,AUTO
         4 015253   000001 702211                    TSX2  ! 1,X1

     3440    23199    6               END;  /* introducer 1 */
     3441    23200
     3442    23201    5         CASE(1);

     3443    23202    5            IF ((VAL1 = KL$FUNKEY.INTRO2.CHR1) AND

  23202  4 015254   000100 100500                    MLR     fill='000'O
         4 015255   000001 000002                    ADSC9   1,,PR0                   cn=0,n=2
         4 015256   200220 000004                    ADSC9   PINC_INC+1,,AUTO         cn=0,n=4
         4 015257   200220 236100                    LDQ     PINC_INC+1,,AUTO
         4 015260   000022 732000                    QRS     18
         4 015261   200170 116100                    CMPQ    VAL1,,AUTO
         4 015262   015310 601000 4                  TNZ     s:23217
         4 015263   000100 100500                    MLR     fill='000'O
PL6.E3A0      #001=ASD$PROFILE File=ASD$PROFILE.:E05TSI                          TUE 07/29/97 09:46 Page:520
         4 015264   000001 400002                    ADSC9   1,,PR0                   cn=2,n=2
         4 015265   200221 000004                    ADSC9   PINC_INC+2,,AUTO         cn=0,n=4
         4 015266   200221 236100                    LDQ     PINC_INC+2,,AUTO
         4 015267   000022 732000                    QRS     18
         4 015270   200171 116100                    CMPQ    VAL2,,AUTO
         4 015271   015310 601000 4                  TNZ     s:23217

     3444    23203    5                 (VAL2 = KL$FUNKEY.INTRO2.CHR2)) THEN
     3445    23204    6            DO;

     3446    23205    6               POSITION = I;

  23205  4 015272   200175 236100                    LDQ     I,,AUTO
         4 015273   200167 756100                    STQ     POSITION,,AUTO

     3447    23206    6               RETURN;

  23206  4 015274   200174 221300                    LDX1  ! SAVEIDX+1,,AUTO
         4 015275   000001 702211                    TSX2  ! 1,X1

     3448    23207    6               END;  /* introducer 2 */
     3449    23208
     3450    23209    5         CASE(2);

     3451    23210    5            IF ((VAL1 = -1) AND (VAL2 = -1)) THEN

  23210  4 015276   200170 236100                    LDQ     VAL1,,AUTO
         4 015277   000027 116000 xsym               CMPQ    B_VECTNIL+23
         4 015300   015310 601000 4                  TNZ     s:23217
         4 015301   200171 235100                    LDA     VAL2,,AUTO
         4 015302   000027 115000 xsym               CMPA    B_VECTNIL+23
         4 015303   015310 601000 4                  TNZ     s:23217

     3452    23211    6            DO;

     3453    23212    6               POSITION = I;

PL6.E3A0      #001=ASD$PROFILE File=ASD$PROFILE.:E05TSI                          TUE 07/29/97 09:46 Page:521
  23212  4 015304   200175 235100                    LDA     I,,AUTO
         4 015305   200167 755100                    STA     POSITION,,AUTO

     3454    23213    6               RETURN;

  23213  4 015306   200174 221300                    LDX1  ! SAVEIDX+1,,AUTO
         4 015307   000001 702211                    TSX2  ! 1,X1

     3455    23214    6               END;  /* no introducer */
     3456    23215
     3457    23216    5         END;  /*  do case  */

     3458    23217    4      END;  /* if definitions are almost equal */

  23217  4 015310   200175 235100                    LDA     I,,AUTO
         4 015311   000001 035007                    ADLA    1,DL
         4 015312   200175 755100                    STA     I,,AUTO
         4 015313   000100 100500                    MLR     fill='000'O
         4 015314   000002 400002                    ADSC9   2,,PR0                   cn=2,n=2
         4 015315   200220 000004                    ADSC9   PINC_INC+1,,AUTO         cn=0,n=4
         4 015316   200220 236100                    LDQ     PINC_INC+1,,AUTO
         4 015317   000022 732000                    QRS     18
         4 015320   015324 604000 4                  TMI     s:23217+12
         4 015321   200175 116100                    CMPQ    I,,AUTO
         4 015322   015324 600000 4                  TZE     s:23217+12
         4 015323   015201 603000 4                  TRC     s:23188
         4 015324   015327 710000 4                  TRA     s:23224

     3459    23218                    /* search table */
     3460    23219    3   ELSE  /* NUM_DEFS = 0 */
     3461    23220    4   DO;

     3462    23221    4      POSITION = 0;

  23221  4 015325   200167 450100                    STZ     POSITION,,AUTO

     3463    23222    4      RETURN;
PL6.E3A0      #001=ASD$PROFILE File=ASD$PROFILE.:E05TSI                          TUE 07/29/97 09:46 Page:522

  23222  4 015326   000001 702211                    TSX2  ! 1,X1

     3464    23223    4      END; /* NUM_DEFS = 0 */
     3465    23224    3   ALTRETURN;

  23224  4 015327   200174 221300                    LDX1  ! SAVEIDX+1,,AUTO
         4 015330   000000 702211                    TSX2  ! 0,X1

     3466    23225
     3467    23226    3   END FIND_FUNCTION_KEY;
     3468    23227
     3469    23228    2   END DO_FUNKEY_DEFS;
     3470    23229        %EJECT;
PL6.E3A0      #001=ASD$PROFILE File=ASD$PROFILE.:E05TSI                          TUE 07/29/97 09:46 Page:523
     3471    23230
     3472    23231        /* DO_SETUP_CHR is the routine which handles the SETUP_CHR option for
     3473    23232           profiles.  It will convert the input string to values and alter
     3474    23233           the space for the array accordingly.  This routine uses the
     3475    23234           enlarge and shrink pointers routine to alter the indicator pointers
     3476    23235           after altering the space of the record.  Those 2 routines adjust
     3477    23236           all the pointers for all the different portions of the profile.
     3478    23237           This routine also uses the open and close space routines to create
     3479    23238           or delete room in the profile record for the new entry.
     3480    23239        */
     3481    23240    1   DO_SETUP_CHR: PROC ALTRET;

  23240  4 015331   200154 741300       DO_SETUP_CHR STX1  ! PRO_TYPE+1,,AUTO

     3482    23241    2   DCL J UBIN;
     3483    23242    2   DCL BEGIN$ PTR;
     3484    23243    2   DCL NUM_CHARS SBIN;
     3485    23244    2   DCL PLUS      BIT (1);
     3486    23245
     3487    23246    2   IF PTR$->P$NODE.SUBNODES > 1 THEN

  23246  4 015332   200030 470500                    LDP0    PTR$,,AUTO
         4 015333   000001 220100                    LDX0    1,,PR0
         4 015334   000002 100003                    CMPX0   2,DU
         4 015335   015345 602000 4                  TNC     s:23248

     3488    23247    2      PLUS = (PTR$->P$NODE.SUBLK$(0)->P$NODE.CODE = 0 /* PLUS_VAL */);

  23247  4 015336   000003 471500                    LDP1    3,,PR0
         4 015337   400000 222003                    LDX2    -131072,DU
         4 015340   100000 723100                    LXL3    0,,PR1
         4 015341   015343 600000 4                  TZE     s:23247+5
         4 015342   000000 222003                    LDX2    0,DU
         4 015343   000000 636012                    EAQ     0,X2
         4 015344   200160 756100                    STQ     PLUS,,AUTO

     3489    23248    2   CALL GET_HEX_VAL (255)
PL6.E3A0      #001=ASD$PROFILE File=ASD$PROFILE.:E05TSI                          TUE 07/29/97 09:46 Page:524

  23248  4 015345   000031 236000 5                  LDQ     25
         4 015346   200163 756100                    STQ     INTRO_NUM,,AUTO
         4 015347   010767 701000 4                  TSX1    GET_HEX_VAL
         4 015350   015352 702000 4                  TSX2    s:23252

     3490    23249    3   WHENRETURN DO;

     3491    23250    3      END;

  23250  4 015351   015354 710000 4                  TRA     s:23255

     3492    23251    3   WHENALTRETURN DO;

     3493    23252    3      ALTRETURN;

  23252  4 015352   200154 221300                    LDX1  ! PRO_TYPE+1,,AUTO
         4 015353   000000 702211                    TSX2  ! 0,X1

     3494    23253    3      END;
     3495    23254
     3496    23255    2   IF (HEX(0) = 0)

  23255  4 015354   200037 236100                    LDQ     HEX,,AUTO
         4 015355   777000 316003                    CANQ    -512,DU
         4 015356   015413 601000 4                  TNZ     s:23272

     3497    23256    3   THEN DO;  /* None value- collapse all old space and set count to 0 */

     3498    23257    3      IF (KL$SETUP_CHR.SIZE > 0)

  23257  4 015357   000051 470400 2                  LDP0    SETUP_CHR$
         4 015360   003100 061500                    CSR     bolr='003'O
         4 015361   000000 200011                    BDSC    0,,PR0                   by=1,bit=0,n=9
         4 015362   200220 000044                    BDSC    PINC_INC+1,,AUTO         by=0,bit=0,n=36
         4 015363   200220 236100                    LDQ     PINC_INC+1,,AUTO
         4 015364   000000 116003                    CMPQ    0,DU
PL6.E3A0      #001=ASD$PROFILE File=ASD$PROFILE.:E05TSI                          TUE 07/29/97 09:46 Page:525
         4 015365   015407 600000 4                  TZE     s:23268

     3499    23258    4      THEN DO;  /* Remove all the entries */

     3500    23259    4         BEGIN$ = ADDR (KL$SETUP_CHR.CHRS.NUM (1) );

  23259  4 015366   000051 236000 2                  LDQ     SETUP_CHR$
         4 015367   400000 036007                    ADLQ    -131072,DL
         4 015370   200156 756100                    STQ     BEGIN$,,AUTO

     3501    23260    4         NUM_CHARS = KL$SETUP_CHR.SIZE; /* Get rid of all of them. */

  23260  4 015371   003100 061500                    CSR     bolr='003'O
         4 015372   000000 200011                    BDSC    0,,PR0                   by=1,bit=0,n=9
         4 015373   200157 000044                    BDSC    NUM_CHARS,,AUTO          by=0,bit=0,n=36

     3502    23261
     3503    23262                 /* Now collapse space and adjust the pointers. */
     3504    23263    4         CALL SHRINK (BEGIN$, NUM_CHARS);

  23263  4 015374   200157 631500                    EPPR1   NUM_CHARS,,AUTO
         4 015375   200204 451500                    STP1    @I,,AUTO
         4 015376   200156 633500                    EPPR3   BEGIN$,,AUTO
         4 015377   200203 453500                    STP3    @MODIFIER_SPECIFIED,,AUTO
         4 015400   015763 701000 4                  TSX1    SHRINK
         4 015401   000000 011000                    NOP     0

     3505    23264
     3506    23265    4         KL$SETUP_CHR.SIZE = 0;

  23265  4 015402   000051 470400 2                  LDP0    SETUP_CHR$
         4 015403   003100 061400                    CSR     bolr='003'O
         4 015404   000002 000044 xsym               BDSC    B_VECTNIL+2              by=0,bit=0,n=36
         4 015405   000000 200011                    BDSC    0,,PR0                   by=1,bit=0,n=9

     3507    23266    4         END;  /* Of do to remove something */

PL6.E3A0      #001=ASD$PROFILE File=ASD$PROFILE.:E05TSI                          TUE 07/29/97 09:46 Page:526
  23266  4 015406   015741 710000 4                  TRA     s:23349

     3508    23267    4      ELSE DO;

     3509    23268    4         KL$SETUP_CHR.SIZE = 0;

  23268  4 015407   003100 061400                    CSR     bolr='003'O
         4 015410   000002 000044 xsym               BDSC    B_VECTNIL+2              by=0,bit=0,n=36
         4 015411   000000 200011                    BDSC    0,,PR0                   by=1,bit=0,n=9

     3510    23269    4         END;

     3511    23270    3      END; /* Of removing a block */

  23270  4 015412   015741 710000 4                  TRA     s:23349

     3512    23271    3   ELSE DO; /* We have to add new setup chars */

     3513    23272    4      IF NOT PLUS THEN DO;

  23272  4 015413   200160 234100                    SZN     PLUS,,AUTO
         4 015414   015612 604000 4                  TMI     s:23314

     3514    23273    4         IF (HEX (0) = KL$SETUP_CHR.SIZE)

  23273  4 015415   000051 470400 2                  LDP0    SETUP_CHR$
         4 015416   003100 061500                    CSR     bolr='003'O
         4 015417   000000 200011                    BDSC    0,,PR0                   by=1,bit=0,n=9
         4 015420   200220 000044                    BDSC    PINC_INC+1,,AUTO         by=0,bit=0,n=36
         4 015421   200037 236100                    LDQ     HEX,,AUTO
         4 015422   000033 772000                    QRL     27
         4 015423   200220 116100                    CMPQ    PINC_INC+1,,AUTO
         4 015424   015445 601000 4                  TNZ     s:23280

     3515    23274    5         THEN DO; /* Putting in the same length, no MUCKING... */

     3516    23275    6            DO J = 0 TO HEX (0);
PL6.E3A0      #001=ASD$PROFILE File=ASD$PROFILE.:E05TSI                          TUE 07/29/97 09:46 Page:527

  23275  4 015425   200155 450100                    STZ     J,,AUTO
         4 015426   015440 710000 4                  TRA     s:23277+3

     3517    23276    6               KL$SETUP_CHR.CHRS.NUM (J) = HEX (J); /* HEX(0) = count */

  23276  4 015427   200155 236100                    LDQ     J,,AUTO
         4 015430   000011 402007                    MPY     9,DL
         4 015431   000051 470400 2                  LDP0    SETUP_CHR$
         4 015432   003106 060506                    CSL     bolr='003'O
         4 015433   200037 000011                    BDSC    HEX,Q,AUTO               by=0,bit=0,n=9
         4 015434   000000 200011                    BDSC    0,Q,PR0                  by=1,bit=0,n=9

     3518    23277    6               END;

  23277  4 015435   200155 235100                    LDA     J,,AUTO
         4 015436   000001 035007                    ADLA    1,DL
         4 015437   200155 755100                    STA     J,,AUTO
         4 015440   200037 236100                    LDQ     HEX,,AUTO
         4 015441   000033 772000                    QRL     27
         4 015442   200155 116100                    CMPQ    J,,AUTO
         4 015443   015427 603000 4                  TRC     s:23276

     3519    23278    5            END; /*  HEX(0) = .SIZE  */

  23278  4 015444   015741 710000 4                  TRA     s:23349

     3520    23279    5         ELSE DO;

     3521    23280    5            IF (HEX (0) < KL$SETUP_CHR.SIZE)

  23280  4 015445   003100 061500                    CSR     bolr='003'O
         4 015446   000000 200011                    BDSC    0,,PR0                   by=1,bit=0,n=9
         4 015447   200220 000044                    BDSC    PINC_INC+1,,AUTO         by=0,bit=0,n=36
         4 015450   200220 116100                    CMPQ    PINC_INC+1,,AUTO
         4 015451   015523 605000 4                  TPL     s:23290

PL6.E3A0      #001=ASD$PROFILE File=ASD$PROFILE.:E05TSI                          TUE 07/29/97 09:46 Page:528
     3522    23281    6            THEN DO; /* New length is less than old */

     3523    23282    6               BEGIN$ = PINCRC (SETUP_CHR$,HEX(0)+2+MOD(HEX(0),2));

  23282  4 015452   000001 376007                    ANQ     1,DL
         4 015453   200220 756100                    STQ     PINC_INC+1,,AUTO
         4 015454   200037 236100                    LDQ     HEX,,AUTO
         4 015455   000033 772000                    QRL     27
         4 015456   200221 756100                    STQ     PINC_INC+2,,AUTO
         4 015457   200220 236100                    LDQ     PINC_INC+1,,AUTO
         4 015460   200221 036100                    ADLQ    PINC_INC+2,,AUTO
         4 015461   000020 736000                    QLS     16
         4 015462   400000 036007                    ADLQ    -131072,DL
         4 015463   000051 036000 2                  ADLQ    SETUP_CHR$
         4 015464   200156 756100                    STQ     BEGIN$,,AUTO

     3524    23283    6               NUM_CHARS = (KL$SETUP_CHR.SIZE+MOD(KL$SETUP_CHR.SIZE,2)) - (HEX(0)+MOD(
             23283                        HEX(0),2));

  23283  4 015465   003100 061500                    CSR     bolr='003'O
         4 015466   000000 200011                    BDSC    0,,PR0                   by=1,bit=0,n=9
         4 015467   200220 000044                    BDSC    PINC_INC+1,,AUTO         by=0,bit=0,n=36
         4 015470   200220 236100                    LDQ     PINC_INC+1,,AUTO
         4 015471   000001 376007                    ANQ     1,DL
         4 015472   003100 061500                    CSR     bolr='003'O
         4 015473   000000 200011                    BDSC    0,,PR0                   by=1,bit=0,n=9
         4 015474   200221 000044                    BDSC    PINC_INC+2,,AUTO         by=0,bit=0,n=36
         4 015475   200221 036100                    ADLQ    PINC_INC+2,,AUTO
         4 015476   200222 756100                    STQ     PINC_INC+3,,AUTO
         4 015477   200037 236100                    LDQ     HEX,,AUTO
         4 015500   000033 772000                    QRL     27
         4 015501   000001 376007                    ANQ     1,DL
         4 015502   200223 756100                    STQ     PINC_INC+4,,AUTO
         4 015503   200037 236100                    LDQ     HEX,,AUTO
         4 015504   000033 772000                    QRL     27
         4 015505   200224 756100                    STQ     PINC_INC+5,,AUTO
         4 015506   200223 236100                    LDQ     PINC_INC+4,,AUTO
PL6.E3A0      #001=ASD$PROFILE File=ASD$PROFILE.:E05TSI                          TUE 07/29/97 09:46 Page:529
         4 015507   200224 036100                    ADLQ    PINC_INC+5,,AUTO
         4 015510   200225 756100                    STQ     PINC_INC+6,,AUTO
         4 015511   200222 236100                    LDQ     PINC_INC+3,,AUTO
         4 015512   200225 136100                    SBLQ    PINC_INC+6,,AUTO
         4 015513   200157 756100                    STQ     NUM_CHARS,,AUTO

     3525    23284
     3526    23285                 /* Now collapse space and adjust the pointers. */
     3527    23286    6               CALL SHRINK (BEGIN$, NUM_CHARS);

  23286  4 015514   200157 631500                    EPPR1   NUM_CHARS,,AUTO
         4 015515   200204 451500                    STP1    @I,,AUTO
         4 015516   200156 633500                    EPPR3   BEGIN$,,AUTO
         4 015517   200203 453500                    STP3    @MODIFIER_SPECIFIED,,AUTO
         4 015520   015763 701000 4                  TSX1    SHRINK
         4 015521   000000 011000                    NOP     0

     3528    23287
     3529    23288
     3530    23289    6               END; /*  HEX(0) < .SIZE  */

  23289  4 015522   015572 710000 4                  TRA     s:23300

     3531    23290    5            ELSE IF (HEX (0) > KL$SETUP_CHR.SIZE)

  23290  4 015523   200220 756100                    STQ     PINC_INC+1,,AUTO
         4 015524   003100 061500                    CSR     bolr='003'O
         4 015525   000000 200011                    BDSC    0,,PR0                   by=1,bit=0,n=9
         4 015526   200221 000044                    BDSC    PINC_INC+2,,AUTO         by=0,bit=0,n=36
         4 015527   200221 236100                    LDQ     PINC_INC+2,,AUTO
         4 015530   200220 116100                    CMPQ    PINC_INC+1,,AUTO
         4 015531   015572 605000 4                  TPL     s:23300

     3532    23291    6               THEN DO; /* Have to add more space to the block */

     3533    23292
     3534    23293    6                  BEGIN$ = ADDR (KL$SETUP_CHR.CHRS.NUM(0));
PL6.E3A0      #001=ASD$PROFILE File=ASD$PROFILE.:E05TSI                          TUE 07/29/97 09:46 Page:530

  23293  4 015532   000051 236000 2                  LDQ     SETUP_CHR$
         4 015533   200000 036007                    ADLQ    65536,DL
         4 015534   200156 756100                    STQ     BEGIN$,,AUTO

     3535    23294    6                  NUM_CHARS = (HEX(0)+MOD(HEX(0),2)) - (KL$SETUP_CHR.SIZE+MOD(
             23294                           KL$SETUP_CHR.SIZE,2));

  23294  4 015535   200037 236100                    LDQ     HEX,,AUTO
         4 015536   000033 772000                    QRL     27
         4 015537   000001 376007                    ANQ     1,DL
         4 015540   200220 756100                    STQ     PINC_INC+1,,AUTO
         4 015541   200037 236100                    LDQ     HEX,,AUTO
         4 015542   000033 772000                    QRL     27
         4 015543   200221 756100                    STQ     PINC_INC+2,,AUTO
         4 015544   200220 236100                    LDQ     PINC_INC+1,,AUTO
         4 015545   200221 036100                    ADLQ    PINC_INC+2,,AUTO
         4 015546   003100 061500                    CSR     bolr='003'O
         4 015547   000000 200011                    BDSC    0,,PR0                   by=1,bit=0,n=9
         4 015550   200222 000044                    BDSC    PINC_INC+3,,AUTO         by=0,bit=0,n=36
         4 015551   200223 756100                    STQ     PINC_INC+4,,AUTO
         4 015552   200222 236100                    LDQ     PINC_INC+3,,AUTO
         4 015553   000001 376007                    ANQ     1,DL
         4 015554   003100 061500                    CSR     bolr='003'O
         4 015555   000000 200011                    BDSC    0,,PR0                   by=1,bit=0,n=9
         4 015556   200224 000044                    BDSC    PINC_INC+5,,AUTO         by=0,bit=0,n=36
         4 015557   200224 036100                    ADLQ    PINC_INC+5,,AUTO
         4 015560   200225 756100                    STQ     PINC_INC+6,,AUTO
         4 015561   200223 236100                    LDQ     PINC_INC+4,,AUTO
         4 015562   200225 136100                    SBLQ    PINC_INC+6,,AUTO
         4 015563   200157 756100                    STQ     NUM_CHARS,,AUTO

     3536    23295
     3537    23296                 /* Now get more space and adjust the pointers. */
     3538    23297    6                  CALL ENLARGE (BEGIN$, NUM_CHARS);

  23297  4 015564   200157 631500                    EPPR1   NUM_CHARS,,AUTO
PL6.E3A0      #001=ASD$PROFILE File=ASD$PROFILE.:E05TSI                          TUE 07/29/97 09:46 Page:531
         4 015565   200204 451500                    STP1    @I,,AUTO
         4 015566   200156 633500                    EPPR3   BEGIN$,,AUTO
         4 015567   200203 453500                    STP3    @MODIFIER_SPECIFIED,,AUTO
         4 015570   015773 701000 4                  TSX1    ENLARGE
         4 015571   000000 011000                    NOP     0

     3539    23298
     3540    23299    6                  END; /*  HEX(0) > .SIZE  */

     3541    23300    6            DO J = 0 TO HEX (0);

  23300  4 015572   200155 450100                    STZ     J,,AUTO
         4 015573   015605 710000 4                  TRA     s:23302+3

     3542    23301    6               KL$SETUP_CHR.CHRS.NUM (J) = HEX (J); /* HEX(0) = count */

  23301  4 015574   200155 236100                    LDQ     J,,AUTO
         4 015575   000011 402007                    MPY     9,DL
         4 015576   000051 470400 2                  LDP0    SETUP_CHR$
         4 015577   003106 060506                    CSL     bolr='003'O
         4 015600   200037 000011                    BDSC    HEX,Q,AUTO               by=0,bit=0,n=9
         4 015601   000000 200011                    BDSC    0,Q,PR0                  by=1,bit=0,n=9

     3543    23302    6               END;  /*  Do j  */

  23302  4 015602   200155 235100                    LDA     J,,AUTO
         4 015603   000001 035007                    ADLA    1,DL
         4 015604   200155 755100                    STA     J,,AUTO
         4 015605   200037 236100                    LDQ     HEX,,AUTO
         4 015606   000033 772000                    QRL     27
         4 015607   200155 116100                    CMPQ    J,,AUTO
         4 015610   015574 603000 4                  TRC     s:23301

     3544    23303    5            END; /*  Else  (HEX(0) ~= .SIZE  */

     3545    23304    4         END; /*  Not plus  */

PL6.E3A0      #001=ASD$PROFILE File=ASD$PROFILE.:E05TSI                          TUE 07/29/97 09:46 Page:532
  23304  4 015611   015741 710000 4                  TRA     s:23349

     3546    23305    4      ELSE DO;    /*  Plus found  */

     3547    23306        /*  This means we have to add the input list to the current SETUP_CHR
     3548    23307            the one tricky part about this is in how many characters do we
     3549    23308            enlarge the SETUP_CHR space by?  since we must by definition
     3550    23309            use even numbers of bytes for pieces of a profile, we may or
     3551    23310            may not have an extra byte in the current SETUP_CHR.  And then
     3552    23311            we may or may not need an extra byte for the new stuff.
     3553    23312            So, KL$SETUP_CHR.SIZE + HEX(0) must be even.
     3554    23313        */
     3555    23314    5         IF HEX(0)+KL$SETUP_CHR.SIZE > 255 THEN DO;

  23314  4 015612   000051 470400 2                  LDP0    SETUP_CHR$
         4 015613   003100 061500                    CSR     bolr='003'O
         4 015614   000000 200011                    BDSC    0,,PR0                   by=1,bit=0,n=9
         4 015615   200220 000044                    BDSC    PINC_INC+1,,AUTO         by=0,bit=0,n=36
         4 015616   200037 236100                    LDQ     HEX,,AUTO
         4 015617   000033 772000                    QRL     27
         4 015620   200220 036100                    ADLQ    PINC_INC+1,,AUTO
         4 015621   000400 116007                    CMPQ    256,DL
         4 015622   015631 602000 4                  TNC     s:23338

     3556    23315        /*E* ERROR: ASD-E$SETUPCHRSIZERR-0
     3557    23316             MESSAGE: SETUP_CHR cannot exceed 255 bytes in length.
     3558    23317             MESSAGE1: The last operation would cause the length of SETUP_CHR to
     3559    23318                       exceed the maximum of 255 bytes and so will not be performed.
     3560    23319        */
     3561    23320                 %SCREAM (ERR#=E$SETUPCHRSIZERR, LEVEL=ERROR, MID='D');

  23332  4 015623   000217 630400 5                  EPPR0   143
         4 015624   000017 631400 xsym               EPPR1   B_VECTNIL+15
         4 015625   000000 701000 xent               TSX1    ASH$ERROR
         4 015626   000000 011000                    NOP     0

     3562    23335    5            ALTRETURN;
PL6.E3A0      #001=ASD$PROFILE File=ASD$PROFILE.:E05TSI                          TUE 07/29/97 09:46 Page:533

  23335  4 015627   200154 221300                    LDX1  ! PRO_TYPE+1,,AUTO
         4 015630   000000 702211                    TSX2  ! 0,X1

     3563    23336    5            END;
     3564    23337              /* Start expanding from the end of the current SETUP_CHR  */
     3565    23338    4         BEGIN$ = PINCRC ( SETUP_CHR$,KL$SETUP_CHR.SIZE+2+MOD(KL$SETUP_CHR.SIZE,2));

  23338  4 015631   003100 061500                    CSR     bolr='003'O
         4 015632   000000 200011                    BDSC    0,,PR0                   by=1,bit=0,n=9
         4 015633   200220 000044                    BDSC    PINC_INC+1,,AUTO         by=0,bit=0,n=36
         4 015634   200220 236100                    LDQ     PINC_INC+1,,AUTO
         4 015635   000001 376007                    ANQ     1,DL
         4 015636   003100 061500                    CSR     bolr='003'O
         4 015637   000000 200011                    BDSC    0,,PR0                   by=1,bit=0,n=9
         4 015640   200221 000044                    BDSC    PINC_INC+2,,AUTO         by=0,bit=0,n=36
         4 015641   200221 036100                    ADLQ    PINC_INC+2,,AUTO
         4 015642   000020 736000                    QLS     16
         4 015643   400000 036007                    ADLQ    -131072,DL
         4 015644   000051 036000 2                  ADLQ    SETUP_CHR$
         4 015645   200156 756100                    STQ     BEGIN$,,AUTO

     3566    23339    4         NUM_CHARS = HEX(0);

  23339  4 015646   200037 236100                    LDQ     HEX,,AUTO
         4 015647   000033 772000                    QRL     27
         4 015650   200157 756100                    STQ     NUM_CHARS,,AUTO

     3567    23340    4         NUM_CHARS = NUM_CHARS - MOD (KL$SETUP_CHR.SIZE,2);

  23340  4 015651   003100 061500                    CSR     bolr='003'O
         4 015652   000000 200011                    BDSC    0,,PR0                   by=1,bit=0,n=9
         4 015653   200220 000044                    BDSC    PINC_INC+1,,AUTO         by=0,bit=0,n=36
         4 015654   200220 236100                    LDQ     PINC_INC+1,,AUTO
         4 015655   000001 376007                    ANQ     1,DL
         4 015656   200221 756100                    STQ     PINC_INC+2,,AUTO
         4 015657   200157 236100                    LDQ     NUM_CHARS,,AUTO
PL6.E3A0      #001=ASD$PROFILE File=ASD$PROFILE.:E05TSI                          TUE 07/29/97 09:46 Page:534
         4 015660   200221 136100                    SBLQ    PINC_INC+2,,AUTO
         4 015661   200157 756100                    STQ     NUM_CHARS,,AUTO

     3568    23341    4         NUM_CHARS = NUM_CHARS + MOD (NUM_CHARS,2);

  23341  4 015662   000002 506007                    DIV     2,DL
         4 015663   000044 733000                    LRS     36
         4 015664   200157 036100                    ADLQ    NUM_CHARS,,AUTO
         4 015665   200157 756100                    STQ     NUM_CHARS,,AUTO

     3569    23342    4         CALL ENLARGE (BEGIN$, NUM_CHARS);

  23342  4 015666   200157 631500                    EPPR1   NUM_CHARS,,AUTO
         4 015667   200204 451500                    STP1    @I,,AUTO
         4 015670   200156 633500                    EPPR3   BEGIN$,,AUTO
         4 015671   200203 453500                    STP3    @MODIFIER_SPECIFIED,,AUTO
         4 015672   015773 701000 4                  TSX1    ENLARGE
         4 015673   000000 011000                    NOP     0

     3570    23343    5         DO J = 1 TO HEX(0);

  23343  4 015674   000001 235007                    LDA     1,DL
         4 015675   200155 755100                    STA     J,,AUTO
         4 015676   015722 710000 4                  TRA     s:23345+3

     3571    23344    5            KL$SETUP_CHR.CHRS.NUM (KL$SETUP_CHR.SIZE+J) = HEX(J);

  23344  4 015677   000051 470400 2                  LDP0    SETUP_CHR$
         4 015700   003100 061500                    CSR     bolr='003'O
         4 015701   000000 200011                    BDSC    0,,PR0                   by=1,bit=0,n=9
         4 015702   200220 000044                    BDSC    PINC_INC+1,,AUTO         by=0,bit=0,n=36
         4 015703   200220 236100                    LDQ     PINC_INC+1,,AUTO
         4 015704   200155 036100                    ADLQ    J,,AUTO
         4 015705   200221 756100                    STQ     PINC_INC+2,,AUTO
         4 015706   200155 236100                    LDQ     J,,AUTO
         4 015707   000011 402007                    MPY     9,DL
         4 015710   200222 756100                    STQ     PINC_INC+3,,AUTO
PL6.E3A0      #001=ASD$PROFILE File=ASD$PROFILE.:E05TSI                          TUE 07/29/97 09:46 Page:535
         4 015711   200221 236100                    LDQ     PINC_INC+2,,AUTO
         4 015712   000011 402007                    MPY     9,DL
         4 015713   200222 235100                    LDA     PINC_INC+3,,AUTO
         4 015714   003106 060505                    CSL     bolr='003'O
         4 015715   200037 000011                    BDSC    HEX,A,AUTO               by=0,bit=0,n=9
         4 015716   000000 200011                    BDSC    0,Q,PR0                  by=1,bit=0,n=9

     3572    23345    5            END;   /*  Do j  */

  23345  4 015717   200155 235100                    LDA     J,,AUTO
         4 015720   000001 035007                    ADLA    1,DL
         4 015721   200155 755100                    STA     J,,AUTO
         4 015722   200037 236100                    LDQ     HEX,,AUTO
         4 015723   000033 772000                    QRL     27
         4 015724   200155 116100                    CMPQ    J,,AUTO
         4 015725   015677 603000 4                  TRC     s:23344

     3573    23346    4         KL$SETUP_CHR.SIZE = KL$SETUP_CHR.SIZE + HEX(0);

  23346  4 015726   200220 756100                    STQ     PINC_INC+1,,AUTO
         4 015727   000051 470400 2                  LDP0    SETUP_CHR$
         4 015730   003100 061500                    CSR     bolr='003'O
         4 015731   000000 200011                    BDSC    0,,PR0                   by=1,bit=0,n=9
         4 015732   200221 000044                    BDSC    PINC_INC+2,,AUTO         by=0,bit=0,n=36
         4 015733   200221 236100                    LDQ     PINC_INC+2,,AUTO
         4 015734   200220 036100                    ADLQ    PINC_INC+1,,AUTO
         4 015735   200222 756100                    STQ     PINC_INC+3,,AUTO
         4 015736   003100 061500                    CSR     bolr='003'O
         4 015737   200222 000044                    BDSC    PINC_INC+3,,AUTO         by=0,bit=0,n=36
         4 015740   000000 200011                    BDSC    0,,PR0                   by=1,bit=0,n=9

     3574    23347    4         END;   /*  Plus found  */

     3575    23348    3      END;  /*  HEX(0) ~= 0  */

     3576    23349    2   IF MOD (KL$SETUP_CHR.SIZE,2) = 1 THEN

PL6.E3A0      #001=ASD$PROFILE File=ASD$PROFILE.:E05TSI                          TUE 07/29/97 09:46 Page:536
  23349  4 015741   000051 470400 2                  LDP0    SETUP_CHR$
         4 015742   003100 061500                    CSR     bolr='003'O
         4 015743   000000 200011                    BDSC    0,,PR0                   by=1,bit=0,n=9
         4 015744   200220 000044                    BDSC    PINC_INC+1,,AUTO         by=0,bit=0,n=36
         4 015745   200220 236100                    LDQ     PINC_INC+1,,AUTO
         4 015746   000001 376007                    ANQ     1,DL
         4 015747   000001 116007                    CMPQ    1,DL
         4 015750   015761 601000 4                  TNZ     s:23351

     3577    23350    2      KL$SETUP_CHR.CHRS.NUM(KL$SETUP_CHR.SIZE+1) = 0;

  23350  4 015751   003100 061500                    CSR     bolr='003'O
         4 015752   000000 200011                    BDSC    0,,PR0                   by=1,bit=0,n=9
         4 015753   200220 000044                    BDSC    PINC_INC+1,,AUTO         by=0,bit=0,n=36
         4 015754   200220 236100                    LDQ     PINC_INC+1,,AUTO
         4 015755   000011 402007                    MPY     9,DL
         4 015756   003106 061400                    CSR     bolr='003'O
         4 015757   000002 000044 xsym               BDSC    B_VECTNIL+2              by=0,bit=0,n=36
         4 015760   000000 400011                    BDSC    0,Q,PR0                  by=2,bit=0,n=9

     3578    23351    2   RETURN;

  23351  4 015761   200154 221300                    LDX1  ! PRO_TYPE+1,,AUTO
         4 015762   000001 702211                    TSX2  ! 1,X1

     3579    23352    2   END DO_SETUP_CHR;
     3580    23353        %EJECT;
PL6.E3A0      #001=ASD$PROFILE File=ASD$PROFILE.:E05TSI                          TUE 07/29/97 09:46 Page:537
     3581    23354        /* Shrink is the routine called when space needs to be removed
     3582    23355           from the profile record.  It will adjust all the individual
     3583    23356           pointers of the profile so they point to the correct areas.  The
     3584    23357           enlarge routine is used
     3585    23358           to create more room.
     3586    23359        */
     3587    23360    1   SHRINK: PROC (BEGIN$, CHARS);

  23360  4 015763   200202 741300       SHRINK       STX1  ! DUPE_CHR_IDX+2,,AUTO

     3588    23361    2   DCL CHARS SBIN;
     3589    23362    2   DCL BEGIN$ PTR;
     3590    23363    2   DCL NUM_CHARS SBIN;
     3591    23364    2   DCL I UBIN;
     3592    23365    2   DCL SHRINK_FLG BIT (1) ALIGNED;
     3593    23366
     3594    23367    2   NUM_CHARS = - (CHARS);  /* Shrink- make the size negative. */

  23367  4 015764   200204 470500                    LDP0    @CHARS,,AUTO
         4 015765   000000 235100                    LDA     0,,PR0
         4 015766   000000 531000                    NEG     0
         4 015767   200205 755100                    STA     NUM_CHARS,,AUTO

     3595    23368    2   SHRINK_FLG = '1'B;

  23368  4 015770   400000 236003                    LDQ     -131072,DU
         4 015771   200207 756100                    STQ     SHRINK_FLG,,AUTO

     3596    23369    2   GOTO COMMON;

  23369  4 015772   016000 710000 4                  TRA     COMMON

     3597    23370
     3598    23371    2   ENLARGE: ENTRY (BEGIN$, CHARS);

  23371  4 015773   200202 741300       ENLARGE      STX1  ! DUPE_CHR_IDX+2,,AUTO

PL6.E3A0      #001=ASD$PROFILE File=ASD$PROFILE.:E05TSI                          TUE 07/29/97 09:46 Page:538
     3599    23372    2   NUM_CHARS = CHARS;

  23372  4 015774   200204 470500                    LDP0    @CHARS,,AUTO
         4 015775   000000 235100                    LDA     0,,PR0
         4 015776   200205 755100                    STA     NUM_CHARS,,AUTO

     3600    23373    2   SHRINK_FLG = '0'B;

  23373  4 015777   200207 450100                    STZ     SHRINK_FLG,,AUTO

  23373  4 016000                       COMMON       null
     3601    23374
     3602    23375    2   COMMON: ;
     3603    23376    2   NUM_CHARS = NUM_CHARS + (MOD (NUM_CHARS, 2)); /* Always use even increments*/

  23376  4 016000   200205 236100                    LDQ     NUM_CHARS,,AUTO
         4 016001   000002 506007                    DIV     2,DL
         4 016002   000044 733000                    LRS     36
         4 016003   200205 036100                    ADLQ    NUM_CHARS,,AUTO
         4 016004   200205 756100                    STQ     NUM_CHARS,,AUTO

     3604    23377    2   CHARS = CHARS + (MOD (CHARS, 2)); /* Always use even increments*/

  23377  4 016005   000000 236100                    LDQ     0,,PR0
         4 016006   000002 506007                    DIV     2,DL
         4 016007   000044 733000                    LRS     36
         4 016010   000000 036100                    ADLQ    0,,PR0
         4 016011   000000 756100                    STQ     0,,PR0

     3605    23378
     3606    23379    2   PP_END$ = PINCRC (PP_END$, NUM_CHARS);

  23379  4 016012   200205 236100                    LDQ     NUM_CHARS,,AUTO
         4 016013   000020 736000                    QLS     16
         4 016014   000107 036000 2                  ADLQ    PP_END$
         4 016015   000107 756000 2                  STQ     PP_END$

PL6.E3A0      #001=ASD$PROFILE File=ASD$PROFILE.:E05TSI                          TUE 07/29/97 09:46 Page:539
     3607    23380
     3608    23381    2   IF (PNM$ >= BEGIN$) THEN PNM$ = PINCRC (PNM$, NUM_CHARS);

  23381  4 016016   200203 471500                    LDP1    @BEGIN$,,AUTO
         4 016017   000053 236000 2                  LDQ     PNM$
         4 016020   100000 116100                    CMPQ    0,,PR1
         4 016021   016026 602000 4                  TNC     s:23382

  23381  4 016022   200205 236100                    LDQ     NUM_CHARS,,AUTO
         4 016023   000020 736000                    QLS     16
         4 016024   000053 036000 2                  ADLQ    PNM$
         4 016025   000053 756000 2                  STQ     PNM$

     3609    23382    2   IF (TCTL$ >= BEGIN$) THEN TCTL$ = PINCRC (TCTL$, NUM_CHARS);

  23382  4 016026   000043 236000 2                  LDQ     TCTL$
         4 016027   100000 116100                    CMPQ    0,,PR1
         4 016030   016035 602000 4                  TNC     s:23383

  23382  4 016031   200205 236100                    LDQ     NUM_CHARS,,AUTO
         4 016032   000020 736000                    QLS     16
         4 016033   000043 036000 2                  ADLQ    TCTL$
         4 016034   000043 756000 2                  STQ     TCTL$

     3610    23383    2   IF (TATR$ >= BEGIN$) THEN TATR$ = PINCRC (TATR$, NUM_CHARS);

  23383  4 016035   000044 236000 2                  LDQ     TATR$
         4 016036   100000 116100                    CMPQ    0,,PR1
         4 016037   016044 602000 4                  TNC     s:23384

  23383  4 016040   200205 236100                    LDQ     NUM_CHARS,,AUTO
         4 016041   000020 736000                    QLS     16
         4 016042   000044 036000 2                  ADLQ    TATR$
         4 016043   000044 756000 2                  STQ     TATR$

     3611    23384    2   IF (PLTN$ >= BEGIN$) THEN PLTN$ = PINCRC (PLTN$, NUM_CHARS);

PL6.E3A0      #001=ASD$PROFILE File=ASD$PROFILE.:E05TSI                          TUE 07/29/97 09:46 Page:540
  23384  4 016044   000045 236000 2                  LDQ     PLTN$
         4 016045   100000 116100                    CMPQ    0,,PR1
         4 016046   016053 602000 4                  TNC     s:23385

  23384  4 016047   200205 236100                    LDQ     NUM_CHARS,,AUTO
         4 016050   000020 736000                    QLS     16
         4 016051   000045 036000 2                  ADLQ    PLTN$
         4 016052   000045 756000 2                  STQ     PLTN$

     3612    23385    2   IF (DTABS$ >= BEGIN$) THEN DTABS$ = PINCRC (DTABS$, NUM_CHARS);

  23385  4 016053   000046 236000 2                  LDQ     DTABS$
         4 016054   100000 116100                    CMPQ    0,,PR1
         4 016055   016062 602000 4                  TNC     s:23386

  23385  4 016056   200205 236100                    LDQ     NUM_CHARS,,AUTO
         4 016057   000020 736000                    QLS     16
         4 016060   000046 036000 2                  ADLQ    DTABS$
         4 016061   000046 756000 2                  STQ     DTABS$

     3613    23386    2   IF (TCCHR$ >= BEGIN$) THEN TCCHR$ = PINCRC (TCCHR$, NUM_CHARS);

  23386  4 016062   000047 236000 2                  LDQ     TCCHR$
         4 016063   100000 116100                    CMPQ    0,,PR1
         4 016064   016071 602000 4                  TNC     s:23387

  23386  4 016065   200205 236100                    LDQ     NUM_CHARS,,AUTO
         4 016066   000020 736000                    QLS     16
         4 016067   000047 036000 2                  ADLQ    TCCHR$
         4 016070   000047 756000 2                  STQ     TCCHR$

     3614    23387    2   IF (FUNKEY$ >= BEGIN$) THEN FUNKEY$ = PINCRC (FUNKEY$, NUM_CHARS);

  23387  4 016071   000050 236000 2                  LDQ     FUNKEY$
         4 016072   100000 116100                    CMPQ    0,,PR1
         4 016073   016100 602000 4                  TNC     s:23388

PL6.E3A0      #001=ASD$PROFILE File=ASD$PROFILE.:E05TSI                          TUE 07/29/97 09:46 Page:541
  23387  4 016074   200205 236100                    LDQ     NUM_CHARS,,AUTO
         4 016075   000020 736000                    QLS     16
         4 016076   000050 036000 2                  ADLQ    FUNKEY$
         4 016077   000050 756000 2                  STQ     FUNKEY$

     3615    23388    2   IF (SETUP_CHR$ >= BEGIN$) THEN SETUP_CHR$ = PINCRC (SETUP_CHR$, NUM_CHARS);

  23388  4 016100   000051 236000 2                  LDQ     SETUP_CHR$
         4 016101   100000 116100                    CMPQ    0,,PR1
         4 016102   016107 602000 4                  TNC     s:23389

  23388  4 016103   200205 236100                    LDQ     NUM_CHARS,,AUTO
         4 016104   000020 736000                    QLS     16
         4 016105   000051 036000 2                  ADLQ    SETUP_CHR$
         4 016106   000051 756000 2                  STQ     SETUP_CHR$

     3616    23389    2   IF (TRMD$ >= BEGIN$) THEN TRMD$ = PINCRC (TRMD$, NUM_CHARS);

  23389  4 016107   000052 236000 2                  LDQ     TRMD$
         4 016110   100000 116100                    CMPQ    0,,PR1
         4 016111   016116 602000 4                  TNC     s:23390

  23389  4 016112   200205 236100                    LDQ     NUM_CHARS,,AUTO
         4 016113   000020 736000                    QLS     16
         4 016114   000052 036000 2                  ADLQ    TRMD$
         4 016115   000052 756000 2                  STQ     TRMD$

     3617    23390    2   IF (LINK$ >= BEGIN$) THEN LINK$ = PINCRC (LINK$, NUM_CHARS);

  23390  4 016116   000054 236000 2                  LDQ     LINK$
         4 016117   100000 116100                    CMPQ    0,,PR1
         4 016120   016125 602000 4                  TNC     s:23391

  23390  4 016121   200205 236100                    LDQ     NUM_CHARS,,AUTO
         4 016122   000020 736000                    QLS     16
         4 016123   000054 036000 2                  ADLQ    LINK$
         4 016124   000054 756000 2                  STQ     LINK$
PL6.E3A0      #001=ASD$PROFILE File=ASD$PROFILE.:E05TSI                          TUE 07/29/97 09:46 Page:542

     3618    23391    2   IF (T3270$ >= BEGIN$) THEN T3270$ = PINCRC (T3270$, NUM_CHARS);

  23391  4 016125   000056 236000 2                  LDQ     T3270$
         4 016126   100000 116100                    CMPQ    0,,PR1
         4 016127   016134 602000 4                  TNC     s:23392

  23391  4 016130   200205 236100                    LDQ     NUM_CHARS,,AUTO
         4 016131   000020 736000                    QLS     16
         4 016132   000056 036000 2                  ADLQ    T3270$
         4 016133   000056 756000 2                  STQ     T3270$

     3619    23392    2   IF (CCHRSZ$ >= BEGIN$) THEN CCHRSZ$ = PINCRC (CCHRSZ$, NUM_CHARS);

  23392  4 016134   000104 236000 2                  LDQ     CCHRSZ$
         4 016135   100000 116100                    CMPQ    0,,PR1
         4 016136   016143 602000 4                  TNC     s:23393

  23392  4 016137   200205 236100                    LDQ     NUM_CHARS,,AUTO
         4 016140   000020 736000                    QLS     16
         4 016141   000104 036000 2                  ADLQ    CCHRSZ$
         4 016142   000104 756000 2                  STQ     CCHRSZ$

     3620    23393    2   IF (FUNKEYSZ$ >= BEGIN$) THEN FUNKEYSZ$ = PINCRC (FUNKEYSZ$, NUM_CHARS);

  23393  4 016143   000105 236000 2                  LDQ     FUNKEYSZ$
         4 016144   100000 116100                    CMPQ    0,,PR1
         4 016145   016152 602000 4                  TNC     s:23394

  23393  4 016146   200205 236100                    LDQ     NUM_CHARS,,AUTO
         4 016147   000020 736000                    QLS     16
         4 016150   000105 036000 2                  ADLQ    FUNKEYSZ$
         4 016151   000105 756000 2                  STQ     FUNKEYSZ$

     3621    23394    2   IF (VIRCIR$ >= BEGIN$) THEN VIRCIR$ = PINCRC (VIRCIR$, NUM_CHARS);

  23394  4 016152   000055 236000 2                  LDQ     VIRCIR$
PL6.E3A0      #001=ASD$PROFILE File=ASD$PROFILE.:E05TSI                          TUE 07/29/97 09:46 Page:543
         4 016153   100000 116100                    CMPQ    0,,PR1
         4 016154   016161 602000 4                  TNC     s:23396

  23394  4 016155   200205 236100                    LDQ     NUM_CHARS,,AUTO
         4 016156   000020 736000                    QLS     16
         4 016157   000055 036000 2                  ADLQ    VIRCIR$
         4 016160   000055 756000 2                  STQ     VIRCIR$

     3622    23395
     3623    23396    3   DO I = 0 TO SIZEW (ABSGRPRND$) - 1; /* Ptrs are 1 word so this works*/

  23396  4 016161   200206 450100                    STZ     I,,AUTO
         4 016162   016203 710000 4                  TRA     s:23399+3

     3624    23397    3      IF (ABSGRPRND$ (I) >= BEGIN$)

  23397  4 016163   200203 470500                    LDP0    @BEGIN$,,AUTO
         4 016164   200206 720100                    LXL0    I,,AUTO
         4 016165   000057 236010 2                  LDQ     ABSGRPRND$,X0
         4 016166   000000 116100                    CMPQ    0,,PR0
         4 016167   016200 602000 4                  TNC     s:23399

     3625    23398    3      THEN ABSGRPRND$ (I) = PINCRC (ABSGRPRND$ (I), NUM_CHARS);

  23398  4 016170   000057 471410 2                  LDP1    ABSGRPRND$,X0
         4 016171   200205 236100                    LDQ     NUM_CHARS,,AUTO
         4 016172   000011 402007                    MPY     9,DL
         4 016173   000000 116003                    CMPQ    0,DU
         4 016174   016176 605000 4                  TPL     s:23398+6
         4 016175   000044 036003                    ADLQ    36,DU
         4 016176   100000 503506                    ABD     0,QL,PR1
         4 016177   000057 451410 2                  STP1    ABSGRPRND$,X0

     3626    23399    3      END;

  23399  4 016200   200206 235100                    LDA     I,,AUTO
         4 016201   000001 035007                    ADLA    1,DL
PL6.E3A0      #001=ASD$PROFILE File=ASD$PROFILE.:E05TSI                          TUE 07/29/97 09:46 Page:544
         4 016202   200206 755100                    STA     I,,AUTO
         4 016203   200206 235100                    LDA     I,,AUTO
         4 016204   000010 115007                    CMPA    8,DL
         4 016205   016163 602000 4                  TNC     s:23397

     3627    23400
     3628    23401        /* Now that the pointers have all been mucked with, lets get the
     3629    23402           space we need so everything will work correctly!
     3630    23403        */
     3631    23404
     3632    23405    2   IF SHRINK_FLG

  23405  4 016206   200207 234100                    SZN     SHRINK_FLG,,AUTO
         4 016207   016223 605000 4                  TPL     s:23411

     3633    23406    3   THEN DO;

     3634    23407    3      CALL CLOSE_SPACE (BEGIN$, CHARS);

  23407  4 016210   200204 236100                    LDQ     @CHARS,,AUTO
         4 016211   200212 756100                    STQ     @BEGIN$+1,,AUTO
         4 016212   200203 236100                    LDQ     @BEGIN$,,AUTO
         4 016213   200211 756100                    STQ     SHRINK_FLG+2,,AUTO
         4 016214   016253 701000 4                  TSX1    CLOSE_SPACE
         4 016215   000000 011000                    NOP     0

     3635    23408    3      P_ARS = P_ARS - CHARS;

  23408  4 016216   200204 470500                    LDP0    @CHARS,,AUTO
         4 016217   000106 236000 2                  LDQ     P_ARS
         4 016220   000000 136100                    SBLQ    0,,PR0
         4 016221   000106 756000 2                  STQ     P_ARS

     3636    23409    3      END;

  23409  4 016222   016235 710000 4                  TRA     s:23414

PL6.E3A0      #001=ASD$PROFILE File=ASD$PROFILE.:E05TSI                          TUE 07/29/97 09:46 Page:545
     3637    23410    3   ELSE DO;

     3638    23411    3      CALL OPEN_SPACE (BEGIN$, CHARS);

  23411  4 016223   200204 236100                    LDQ     @CHARS,,AUTO
         4 016224   200212 756100                    STQ     @BEGIN$+1,,AUTO
         4 016225   200203 236100                    LDQ     @BEGIN$,,AUTO
         4 016226   200211 756100                    STQ     SHRINK_FLG+2,,AUTO
         4 016227   016237 701000 4                  TSX1    OPEN_SPACE
         4 016230   000000 011000                    NOP     0

     3639    23412    3      P_ARS = P_ARS + CHARS;

  23412  4 016231   200204 470500                    LDP0    @CHARS,,AUTO
         4 016232   000106 236000 2                  LDQ     P_ARS
         4 016233   000000 036100                    ADLQ    0,,PR0
         4 016234   000106 756000 2                  STQ     P_ARS

     3640    23413    3      END;

     3641    23414    2   RETURN;

  23414  4 016235   200202 221300                    LDX1  ! DUPE_CHR_IDX+2,,AUTO
         4 016236   000001 702211                    TSX2  ! 1,X1

     3642    23415    2   END SHRINK;
     3643    23416        %EJECT;
PL6.E3A0      #001=ASD$PROFILE File=ASD$PROFILE.:E05TSI                          TUE 07/29/97 09:46 Page:546
     3644    23417        /* OPEN_SPACE is a routine to open a space in the middle of a profile
     3645    23418           record.  It is passed 2 params, a pointer for where the space is
     3646    23419           opened after, and a value of the number of characters to open up.
     3647    23420           CLOSE_SPACE is an entry that works exactly the opposite of open.
     3648    23421           The space is closed from immediately after the pointer.
     3649    23422           Both these routines are called *ONLY* from _SHRINK_ or _ENLARGE_.*/
     3650    23423    1   OPEN_SPACE: PROC (BEGIN$, AMOUNT);

  23423  4 016237   200210 741300       OPEN_SPACE   STX1  ! SHRINK_FLG+1,,AUTO

     3651    23424    2   DCL BEGIN$ PTR;
     3652    23425    2   DCL AMOUNT SBIN;
     3653    23426
     3654    23427    2   DCL TO$ PTR;
     3655    23428    2   DCL FROM$ PTR;
     3656    23429    2   DCL MOVE_SIZE UBIN;
     3657    23430    2   DCL I UBIN;
     3658    23431    2   DCL PINC_INC SBIN;
     3659    23432    2   DCL BASED_BYTE SBIN (9) UNAL BASED;
     3660    23433
     3661    23434    2   FROM$ = PINCRC (PP_END$, -1);

  23434  4 016240   000107 236000 2                  LDQ     PP_END$
         4 016241   000034 036000 xsym               ADLQ    B_VECTNIL+28
         4 016242   200214 756100                    STQ     FROM$,,AUTO

     3662    23435    2   TO$ = PINCRC (FROM$, AMOUNT);

  23435  4 016243   200212 470500                    LDP0    @AMOUNT,,AUTO
         4 016244   000000 236100                    LDQ     0,,PR0
         4 016245   000020 736000                    QLS     16
         4 016246   200214 036100                    ADLQ    FROM$,,AUTO
         4 016247   200213 756100                    STQ     TO$,,AUTO

     3663    23436    2   PINC_INC = - 1;

  23436  4 016250   000001 335007                    LCA     1,DL
PL6.E3A0      #001=ASD$PROFILE File=ASD$PROFILE.:E05TSI                          TUE 07/29/97 09:46 Page:547
         4 016251   200217 755100                    STA     PINC_INC,,AUTO

     3664    23437    2   GOTO COMMON;

  23437  4 016252   016272 710000 4                  TRA     COMMON

     3665    23438
     3666    23439        /* Now the close space ROUTINE........ *******************/
     3667    23440    2   CLOSE_SPACE: ENTRY (BEGIN$, AMOUNT);

  23440  4 016253   200210 741300       CLOSE_SPACE  STX1  ! SHRINK_FLG+1,,AUTO

     3668    23441    2   FROM$ = PINCRC (BEGIN$, AMOUNT);

  23441  4 016254   200212 470500                    LDP0    @AMOUNT,,AUTO
         4 016255   000000 236100                    LDQ     0,,PR0
         4 016256   200211 471500                    LDP1    @BEGIN$,,AUTO
         4 016257   100000 473500                    LDP3    0,,PR1
         4 016260   000011 402007                    MPY     9,DL
         4 016261   000000 116003                    CMPQ    0,DU
         4 016262   016264 605000 4                  TPL     s:23441+8
         4 016263   000044 036003                    ADLQ    36,DU
         4 016264   300000 503506                    ABD     0,QL,PR3
         4 016265   200214 453500                    STP3    FROM$,,AUTO

     3669    23442    2   TO$ = BEGIN$;

  23442  4 016266   100000 236100                    LDQ     0,,PR1
         4 016267   200213 756100                    STQ     TO$,,AUTO

     3670    23443    2   PINC_INC = 1;

  23443  4 016270   000001 235007                    LDA     1,DL
         4 016271   200217 755100                    STA     PINC_INC,,AUTO

  23443  4 016272                       COMMON       null
     3671    23444
PL6.E3A0      #001=ASD$PROFILE File=ASD$PROFILE.:E05TSI                          TUE 07/29/97 09:46 Page:548
     3672    23445    2   COMMON: ;
     3673    23446    2   MOVE_SIZE = POFFC (PP_END$, BEGIN$) - 1; /* END$ is after last char */

  23446  4 016272   200211 471500                    LDP1    @BEGIN$,,AUTO
         4 016273   100000 236100                    LDQ     0,,PR1
         4 016274   000020 772000                    QRL     16
         4 016275   200220 756100                    STQ     PINC_INC+1,,AUTO
         4 016276   000107 236000 2                  LDQ     PP_END$
         4 016277   000020 772000                    QRL     16
         4 016300   200220 136100                    SBLQ    PINC_INC+1,,AUTO
         4 016301   000001 136007                    SBLQ    1,DL
         4 016302   200215 756100                    STQ     MOVE_SIZE,,AUTO

     3674    23447
     3675    23448    3   DO I = 0 TO MOVE_SIZE;

  23448  4 016303   200216 450100                    STZ     I,,AUTO
         4 016304   016325 710000 4                  TRA     s:23452+3

     3676    23449    3      TO$ -> BASED_BYTE = FROM$ -> BASED_BYTE;

  23449  4 016305   200214 470500                    LDP0    FROM$,,AUTO
         4 016306   200213 471500                    LDP1    TO$,,AUTO
         4 016307   003100 060500                    CSL     bolr='003'O
         4 016310   000000 000011                    BDSC    0,,PR0                   by=0,bit=0,n=9
         4 016311   100000 000011                    BDSC    0,,PR1                   by=0,bit=0,n=9

     3677    23450    3      TO$ = PINCRC (TO$, PINC_INC);

  23450  4 016312   200217 236100                    LDQ     PINC_INC,,AUTO
         4 016313   000020 736000                    QLS     16
         4 016314   200213 036100                    ADLQ    TO$,,AUTO
         4 016315   200213 756100                    STQ     TO$,,AUTO

     3678    23451    3      FROM$ = PINCRC (FROM$, PINC_INC);

  23451  4 016316   200217 236100                    LDQ     PINC_INC,,AUTO
PL6.E3A0      #001=ASD$PROFILE File=ASD$PROFILE.:E05TSI                          TUE 07/29/97 09:46 Page:549
         4 016317   000020 736000                    QLS     16
         4 016320   200214 036100                    ADLQ    FROM$,,AUTO
         4 016321   200214 756100                    STQ     FROM$,,AUTO

     3679    23452    3      END;

  23452  4 016322   200216 235100                    LDA     I,,AUTO
         4 016323   000001 035007                    ADLA    1,DL
         4 016324   200216 755100                    STA     I,,AUTO
         4 016325   200215 236100                    LDQ     MOVE_SIZE,,AUTO
         4 016326   200216 116100                    CMPQ    I,,AUTO
         4 016327   016305 603000 4                  TRC     s:23449

     3680    23453
     3681    23454    2   RETURN;

  23454  4 016330   200210 221300                    LDX1  ! SHRINK_FLG+1,,AUTO
         4 016331   000001 702211                    TSX2  ! 1,X1
     3682    23455    2   END OPEN_SPACE;
     3683    23456    1   END ASD$PROFILE;
     3684    23457        %EOD;

PL6.E3A0      #001=ASD$PROFILE File=ASD$PROFILE.:E05TSI                          TUE 07/29/97 09:46 Page:550
--  Include file information  --

   AS_SUPER_R.:E05TOU  cannot be made into a system file and is referenced.
   XG_SUBS_C.:E05TOU  is referenced.
   XG_PROFILE_C.:E05TOU  is referenced.
   XU_FORMAT_C.:E05TOU  is referenced.
   XU_MACRO_C.:E05TOU  is referenced.
   KL_SUPER_C.:E05TOU  is referenced.
   KV$INPFNC.:E05TOU  is referenced.
   AS_FUNKEY_DEFS_C.:E05TOU  is referenced.
   B$TABLES_C.:E05TOU  cannot be made into a system file and is referenced.
   B_ERRORS_C.:E05TOU  is referenced.
   AS_PERR_C.:E05TOU  is referenced.
   KV_PRMID_E.:E05TOU  is referenced.
   CP_6_SUBS.:E05TOU  is referenced.
   CP_6.:E05TOU  cannot be made into a system file and is referenced.
   AS_SSUBS_C.:E05TOU  is referenced.
   AS_MAC_C.:E05TOU  cannot be made into a system file and is referenced.
   AS_SUBS_C.:E05TOU  is referenced.
   AS_SUPER_C.:E05TOU  is referenced.
   AS_ENTRIES_M.:E05TOU  is referenced.
   B$JIT_C.:E05TOU  was found in the system file and is never referenced.
   CP_6_C.:E05TOU  was found in the system file and is referenced.
      No diagnostics issued in procedure ASD$PROFILE.
PL6.E3A0      #001=ASD$PROFILE File=ASD$PROFILE.:E05TSI                          TUE 07/29/97 09:46 Page:551

 **** Variables and constants ****

  ****  Section 002  Data  ASD$PROFILE

  ****  Scalars and arrays  ****
OctLoc.c.b A Datatyp(siz) R M Lvl/name                 OctLoc.c.b A Datatyp(siz) R M Lvl/name

    57-0-0/w PTR         r     1 ABSGRPRND$(0:7)
   104-0-0/w PTR         r     1 CCHRSZ$                   46-0-0/w PTR         r     1 DTABS$
    50-0-0/w PTR         r     1 FUNKEY$                  105-0-0/w PTR         r     1 FUNKEYSZ$
   110-0-0/w UBIN        r     1 FUNKEY_DEF_SIZE           41-0-0/w PTR         r     1 GRA$
    36-0-0/w STRC(108)   r     1 GRA_KEY_OLD               67-0-0/w PTR         r     1 KL_ABSGRPRND$
    54-0-0/w PTR         r     1 LINK$                      0-0-0/b BIT         r     1 MORE
    42-0-0/w PTR         r     1 PHDR$                     45-0-0/w PTR         r     1 PLTN$
    53-0-0/w PTR         r     1 PNM$                     107-0-0/w PTR         r     1 PP_END$
     4-0-0/c STRC(720)   r     1 PRO_HDR                   30-0-0/w STRC(108)   r     1 PRO_KEY
    33-0-0/w STRC(108)   r     1 PRO_KEY_OLD              106-0-0/w UBIN        r     1 P_ARS
     3-0-0/w UBIN        r     1 P_TYPE                    51-0-0/w PTR         r     1 SETUP_CHR$
    56-0-0/w PTR         r     1 T3270$                    44-0-0/w PTR         r     1 TATR$
    47-0-0/w PTR         r     1 TCCHR$                    43-0-0/w PTR         r     1 TCTL$
    52-0-0/w PTR         r     1 TRMD$                     70-0-0/b UBIN(9)     r     1 T_TAB(0:31)
    55-0-0/w PTR         r     1 VIRCIR$                    2-0-0/b BIT         r     1 YES_NO
     1-0-0/b BIT (2)     r     1 YES_NO_FLG

  ****  Section 003 RoData ASD$PROFILE

  ****  Scalars and arrays  ****
OctLoc.c.b A Datatyp(siz) R M Lvl/name                 OctLoc.c.b A Datatyp(siz) R M Lvl/name

     0-0-0/c STRC(747)   r     1 KL_CCHR

  ****  Auto variables  ****

  ****  Scalars and arrays  ****
OctLoc.c.b A Datatyp(siz) R M Lvl/name                 OctLoc.c.b A Datatyp(siz) R M Lvl/name

   212-0-0/w PTR         r     1 @AMOUNT                  203-0-0/w PTR         r     1 @BEGIN$
PL6.E3A0      #001=ASD$PROFILE File=ASD$PROFILE.:E05TSI                          TUE 07/29/97 09:46 Page:552
   211-0-0/w PTR         r     1 @BEGIN$                  204-0-0/w PTR         r     1 @CHARS
   204-0-0/w PTR         r     1 @I                       155-0-0/w PTR         r     1 @MAX_VAL
   156-0-0/w PTR         r     1 @MIN_VAL                 155-0-0/w PTR         r     1 @MN
   203-0-0/w PTR         r     1 @MODIFIER_SPECIFIED      156-0-0/w PTR         r     1 @MX
   163-0-0/w PTR         r     1 @NUM_HEX                 155-0-0/w PTR         r     1 @NUM_HEXS
   155-0-0/w PTR         r     1 @NUM_HEXS                175-0-0/w PTR         r     1 @POS
   175-0-0/w PTR         r     1 @POS                     175-0-0/w PTR         r     1 @POS
   157-0-0/w PTR         r     1 @PTROPT$                 155-0-0/w PTR         r     1 @SPLIT_STRUCT
   172-0-0/w BIT         r     1 ACTION_FLG                *0-0-0/w SBIN        r     1 AMOUNT
    21-0-0/w UBIN        r     1 ARS                      176-0-0/w PTR         r     1 BEGIN$
   175-0-0/w PTR         r     1 BEGIN$                   156-0-0/w PTR         r     1 BEGIN$
    *0-0-0/w PTR         r     1 BEGIN$                    *0-0-0/w PTR         r     1 BEGIN$
     4-0-0/w PTR         r     1 BLK$                     165-0-0/b UBIN(9)     r     1 BUFINDX
   155-0-0/w UBIN        r     1 BYTE2                     *0-0-0/w SBIN        r     1 CHARS
   164-0-0/w PTR         r     1 CMPE$                    163-0-0/b UBIN        r     1 CMP_VAL
   156-0-0/w UBIN        r     1 CODE                     157-0-0/w BIT         r     1 CONTINUE
    25-0-0/b BIT         r     1 CREATE                   200-0-0/w BIT         r     1 DELET
   200-0-0/w UBIN        r     1 DUPE_CHR_IDX              12-0-0/w UBIN        r     1 EXTWID
   167-0-0/w UBIN        r     1 FINISH                   160-0-0/w UBIN        r     1 FKEY
    26-0-0/b BIT         r     1 FROM                     214-0-0/w PTR         r     1 FROM$
    27-0-0/b BIT         r     1 GR_FLAG                    6-0-0/w UBIN        r     1 G_ARS
    37-0-0/b UBIN(9)     r     1 HEX(0:255)               137-0-0/w UBIN(9)     r     1 HEX_V
    13-0-0/w UBIN        r     1 I                        167-0-0/b UBIN        r     1 I
   161-0-0/w UBIN        r     1 I                        175-0-0/w UBIN        r     1 I
   176-0-0/w UBIN        r     1 I                        175-0-0/w UBIN        r     1 I
    *0-0-0/w UBIN        r     1 I                        175-0-0/w UBIN        r     1 I
   206-0-0/w UBIN        r     1 I                        216-0-0/w UBIN        r     1 I
   162-0-0/w UBIN        r     1 IDENT                    163-0-0/w UBIN        r     1 INTRO_NUM
    14-0-0/w UBIN        r     1 J                        170-0-0/b UBIN        r     1 J
   155-0-0/w UBIN        r     1 J                         15-0-0/w UBIN        r     1 K
   171-0-0/b UBIN        r     1 K                        164-0-0/w UBIN        r     1 K
     3-0-0/w STRC        r     1 KL$UBWORD                 16-0-0/w UBIN        r     1 L
    *0-0-0/w UBIN        r     1 MAX_VAL                   *0-0-0/w UBIN        r     1 MIN_VAL
    *0-0-0/w UBIN        r     1 MN                       177-0-0/b BIT         r     1 MODIFIED_FLG
   176-0-0/w UBIN        r     1 MODIFIER                  *0-0-0/b BIT         r     1 MODIFIER_SPECIFIED
   205-0-0/w UBIN        r     1 MOD_VALU                 166-0-0/b SBIN        r     1 MORE
   165-0-0/w BIT         r     1 MORE                     215-0-0/w UBIN        r     1 MOVE_SIZE
PL6.E3A0      #001=ASD$PROFILE File=ASD$PROFILE.:E05TSI                          TUE 07/29/97 09:46 Page:553
    *0-0-0/w UBIN        r     1 MX                       161-0-0/b UBIN(9)     r     1 NUM
   162-0-0/b SBIN        r     1 NUM#                     177-0-0/w SBIN        r     1 NUM_CHARS
   176-0-0/w SBIN        r     1 NUM_CHARS                157-0-0/w SBIN        r     1 NUM_CHARS
   205-0-0/w SBIN        r     1 NUM_CHARS                164-0-0/w UBIN        r     1 NUM_FOUND
    *0-0-0/w UBIN        r     1 NUM_HEX                   *0-0-0/w UBIN        r     1 NUM_HEXS
    *0-0-0/w UBIN        r     1 NUM_HEXS                 166-0-0/w UBIN        r     1 NUM_NODES
    17-0-0/w UBIN        r     1 OP                       140-0-0/c STRC(288)   r     1 OPTION
    31-0-0/w UBIN        r     1 OP_CODE                   35-0-0/w PTR         r     1 P$
   217-0-0/w SBIN        r     1 PINC_INC                 165-0-0/b BIT         r     1 PLUS
   160-0-0/b BIT         r     1 PLUS                      *0-0-0/w UBIN        r     1 POS
    *0-0-0/w UBIN        r     1 POS                       *0-0-0/w UBIN        r     1 POS
   167-0-0/w UBIN        r     1 POSITION                   5-0-0/w PTR         r     1 PP$
    10-0-0/w UBIN        r     1 PP_SIZE                   11-0-0/w UBIN        r     1 PP_TYPE
   150-0-0/c STRC(99)    r     1 PROFILE_TYPE             153-0-0/b BIT (9)     r     1 PRO_TYPE
    30-0-0/w PTR         r     1 PTR$                     160-0-0/w PTR         r     1 PTRBGN$
     7-0-0/w PTR         r     1 PTROPT$                   *0-0-0/w PTR         r     1 PTROPT$
   173-0-0/w UBIN        r     1 SAVEIDX                  207-0-0/w BIT         r     1 SHRINK_FLG
   172-0-0/w UBIN        r     1 SIZE                     200-0-0/w UBIN        r     1 SIZE
   177-0-0/w UBIN        r     1 SIZE                      36-0-0/b STRC(18)    r     1 SPLIT
    32-0-0/w PTR         r     1 SPLIT$                    *0-0-0/b STRC(18)    r     1 SPLIT_STRUCT
    20-0-0/w STRC        r     1 SPLIT_VAL                166-0-0/w UBIN        r     1 START
    33-0-0/w UBIN        r     1 SUBS                     213-0-0/w PTR         r     1 TO$
    20-0-0/w UBIN        r     1 VAL                      177-0-0/w UBIN        r     1 VAL
   170-0-0/w SBIN        r     1 VAL1                     171-0-0/w SBIN        r     1 VAL2
    20-0-0/w BIT (4)     r     1 VAL_FOUR(0:8)
    20-0-0/w BIT (6)     r     1 VAL_SIX(0:5)
    20-0-0/w BIT (2)     r     1 VAL_TWO(0:17)             22-0-0/c CHAR(11)    r     1 XPNAME

  ****  SYMREF variables  ****

  ****  Scalars and arrays  ****
OctLoc.c.b A Datatyp(siz) R M Lvl/name                 OctLoc.c.b A Datatyp(siz) R M Lvl/name

     0-0-0/w BIT (9)     r     1 ASL_3270_TYP               0-0-0/w BIT (9)     r     1 ASL_ASYNC_TYP
     0-0-0/w BIT (9)     r     1 ASL_LINK_TYP               0-0-0/w BIT (9)     r     1 ASL_POLLVIP_TYP
     0-0-0/c STRC(288)   r     1 ASL_PRO_OPT_TBL(0:8191)
     0-0-0/w BIT (9)     r     1 ASL_RBTD_TYP               0-0-0/w BIT (9)     r     1 ASL_RBT_TYP
PL6.E3A0      #001=ASD$PROFILE File=ASD$PROFILE.:E05TSI                          TUE 07/29/97 09:46 Page:554
     0-0-0/w BIT (9)     r     1 ASL_URP_TYP                0-0-0/w BIT (9)     r     1 ASL_VIRCIR_TYP
     0-0-0/c CHAR        r     1 AS_BLANK                   0-0-0/b BIT         r     1 AS_FALSE
     0-0-0/w STRC(369)   r     1 AS_FIELD1                  0-0-0/w STRC(369)   r     1 AS_FIELD2
     0-0-0/b BIT         r     1 AS_TRUE                    0-0-0/w PTR         r     1 B$XL_UPPER_UR$
     0-0-0/w UBIN        r     1 CODE                       0-0-0/w PTR         r     1 DSEG1$
     0-0-0/w PTR         r     1 DSEG2$                     0-0-0/w PTR         r     1 DSEG3$
     0-0-0/b BIT         r     1 DSEG_FLG                   0-0-0/w UBIN        r     1 FUNKEY_CMD
     0-0-0/c CHAR(255)   r     1 IN_BUF                     0-0-0/w PTR         r     1 NODE$
     0-0-0/w UBIN        r     1 PROFILE_CMD                0-0-0/w UBIN        r     1 PRO_OPTS_LIST
     0-0-0/w STRC(504)   r     1 P_PCB

  ****  BASED and DCB variables  ****

  ****  Scalars and arrays  ****
OctLoc.c.b A Datatyp(siz) R M Lvl/name                 OctLoc.c.b A Datatyp(siz) R M Lvl/name

     0-0-0/d STRC(4608)  r     1 B$XL_UPPER_UR              0-0-0/c UBIN(9)     r     1 BASED_BYTE
     0-0-0/b SBIN(9)     r     1 BASED_BYTE                 0-0-0/w STRC(1404)  r     1 GRA$REC
     0-0-0/c CHAR(1024)  r     1 GRA_BUF                    0-0-0/b STRC        r     1 KL$3270
     0-0-0/b STRC        r     1 KL$ABSGRPRND               0-0-0/c STRC(747)   r     1 KL$CCHR
     0-0-0/c STRC(144)   r     1 KL$FUNKEY                  0-0-0/c STRC(90)    r     1 KL$LINK
     0-0-0/b STRC(18)    r     1 KL$SETUP_CHR               0-0-0/b STRC(126)   r     1 KL$TRMD
     0-0-0/c STRC(180)   r     1 KL$VIRCIR                  0-0-0/w ASTR(153)   r     1 OUT$SYM
     0-0-0/w STRC(144)   r     1 P$NODE                     0-0-0/b STRC        r     1 PP$BIG_STRCT
     0-0-0/b STRC(18)    r     1 PP$STRCT                   0-0-0/c STRC(720)   r     1 PRO$HDR
     0-0-0/c CHAR(1024)  r     1 PRO_BUF                    0-0-0/b STRC(144)   r     1 VLP$PLATEN
     0-0-0/c ASTR(9)     r     1 VLP$PNAME                  0-0-0/w STRC(288)   r     1 VLP$TAB
     0-0-0/c STRC(360)   r     1 VLP$TRMATTR                0-0-0/b STRC(144)   r     1 VLP$TRMCTRL


   Procedure ASD$PROFILE requires 7386 words for executable code.
   Procedure ASD$PROFILE requires 152 words of local(AUTO) storage.
PL6.E3A0      #001=ASD$PROFILE File=ASD$PROFILE.:E05TSI                          TUE 07/29/97 09:46 Page:555
          *** CROSS REFERENCE LISTING ***
**     DENOTES     IDENTIFIER DEFINITION
<<                 IDENTIFIER'S VALUE SET
>>                 IDENTIFIER'S VALUE USED
<>                 IDENTIFIER SET AND/OR USED
--                 IDENTIFIER REFERENCED
PL6.E3A0      #001=ASD$PROFILE File=ASD$PROFILE.:E05TSI                          TUE 07/29/97 09:46 Page:556
          MINI XREF LISTING

ABSGRPRND$
     16997**DCL     19487--DOINDEX 19488<<ASSIGN  19589<<ASSIGN  21082>>ASSIGN  23396--DOINDEX 23397>>IF
     23398<<ASSIGN  23398>>ASSIGN
ACTION_FLG IN PROCEDURE DO_FUNKEY_DEFS
     22497**DCL     22570<<ASSIGN  22615<<ASSIGN  23038>>IF
ADD_ANOTHER_FUNKEY IN PROCEDURE DO_FUNKEY_DEFS
     22794**PROC    22710--CALL
ADD_INTRO IN PROCEDURE DO_FUNKEY_DEFS
     22841**PROC    22627--CALL    22708--CALL
ALT IN PROCEDURE GET_DAQ_OPT
     21894**LABEL   21891--CALLALT
ALT IN PROCEDURE GET_SGR_OPT
     21860**LABEL   21857--CALLALT
ALT IN PROCEDURE GET_TA
     21783**LABEL   21761--CALLALT
AMOUNT IN PROCEDURE OPEN_SPACE
     23425**DCL     23423--PROC    23435>>ASSIGN  23440--ENTRY   23441>>ASSIGN
ARS
     19016**DCL     19730<>CALL    19731>>ASSIGN  22504<>CALL    22505>>ASSIGN
ASA_BRKS_LOC
     13787**DCL     13787--REDEF
ASB$BINCHAR
      2995**DCL-ENT 21516--CALL    21574--CALL    21646--CALL    21980--CALL    22018--CALL    22080--CALL
     22221--CALL    22274--CALL    22669--CALL
ASB$GETSEG
     18230**DCL-ENT 19052--CALL
ASB$READ_SI
     18179**DCL-ENT 19730--CALL    22504--CALL
ASB$SET_PROMPT
     18167**DCL-ENT 19728--CALL    22500--CALL
ASD$BUILD_$3270
     18215**DCL-ENT 19460--CALL
PL6.E3A0      #001=ASD$PROFILE File=ASD$PROFILE.:E05TSI                          TUE 07/29/97 09:46 Page:557
ASD$BUILD_$ASYNC
     18197**DCL-ENT 19450--CALL
ASD$BUILD_$GRA
     18221**DCL-ENT 19524--CALL
ASD$BUILD_$LINK
     18206**DCL-ENT 19456--CALL
ASD$BUILD_$POLLVIP
     18218**DCL-ENT 19464--CALL
ASD$BUILD_$RBT
     18203**DCL-ENT 19454--CALL
ASD$BUILD_$RBTD
     18200**DCL-ENT 19452--CALL
ASD$BUILD_$URP
     18212**DCL-ENT 19458--CALL
ASD$BUILD_$VIRCIR
     18209**DCL-ENT 19462--CALL
ASD$GR_READ_PRO
     18227**DCL-ENT 19492--CALL    19494--CALL    19497--CALL
ASD$GR_WRITE_PRO
     18224**DCL-ENT 19666--CALL
ASD$HEX2OCT
     18182**DCL-ENT 21687--CALL    21706--CALL    22522--CALL    23138--CALL    23156--CALL    23163--CALL
ASD$R2HUSECS
     18185**DCL-ENT 21761--CALL
ASD$READ_PRO
     18173**DCL-ENT 19177--CALL    19360--CALL    19420--CALL
ASD$WRITE_PRO
     18176**DCL-ENT 19663--CALL
ASH$DQUEST
     18194**DCL-ENT 19753--CALL    22544--CALL
ASH$ERROR
     18164**DCL-ENT 19066--CALL    19104--CALL    19171--CALL    19197--CALL    19302--CALL    19324--CALL
     19414--CALL    19442--CALL    19517--CALL    19617--CALL    19672--CALL    19782--CALL    20019--CALL
     20068--CALL    20100--CALL    20184--CALL    20338--CALL    21132--CALL    21480--CALL    21542--CALL
     21600--CALL    21680--CALL    21745--CALL    21780--CALL    21850--CALL    21885--CALL    22050--CALL
     22114--CALL    22247--CALL    22300--CALL    22324--CALL    22422--CALL    22508--CALL    22603--CALL
PL6.E3A0      #001=ASD$PROFILE File=ASD$PROFILE.:E05TSI                          TUE 07/29/97 09:46 Page:558
     22703--CALL    22905--CALL    23030--CALL    23332--CALL
ASH$HELP
     18188**DCL-ENT 19747--CALL    22550--CALL
ASH$QUEST
     18191**DCL-ENT 19750--CALL    22547--CALL
ASH$WARN
     18170**DCL-ENT 19134--CALL    19219--CALL    19354--CALL    20643--CALL    20666--CALL    20689--CALL
     20717--CALL    20740--CALL    20763--CALL    20917--CALL    20940--CALL    20963--CALL    20989--CALL
     21010--CALL    21033--CALL    22354--CALL    22393--CALL
ASL_3270_TYP
     13645**DCL     19709>>ASSIGN  20194>>IF      20307>>IF
ASL_ASYNC_TYP
     13644**DCL     19689>>ASSIGN
ASL_LINK_TYP
     13644**DCL     19701>>ASSIGN
ASL_POLLVIP_TYP
     13643**DCL     19717>>ASSIGN
ASL_PRO_OPT_TBL.HDR
     13646**DCL     19761>>ASSIGN
ASL_PRO_OPT_TBL.TYP
     13646**DCL     19764>>IF
ASL_RBTD_TYP
     13644**DCL     19693>>ASSIGN
ASL_RBT_TYP
     13643**DCL     19697>>ASSIGN
ASL_URP_TYP
     13645**DCL     19705>>ASSIGN
ASL_VIRCIR_TYP
     13643**DCL     19713>>ASSIGN
AS_BLANK
     13647**DCL     19081>>ASSIGN  19082>>ASSIGN  20075>>IF      20081>>ASSIGN
AS_DEFAULT.BANNER_PERM
     14480**DCL     14481--REDEF
AS_DEFAULT.BUDGET.MACCT
     14385**DCL     14389--REDEF
AS_DEFAULT.BUDGET.MAX_PROJECTS
PL6.E3A0      #001=ASD$PROFILE File=ASD$PROFILE.:E05TSI                          TUE 07/29/97 09:46 Page:559
     14398**DCL     14401--REDEF
AS_DEFAULT.BUDGET.PACCUM
     14381**DCL     14383--REDEF
AS_DEFAULT.BUDGET.PMAXC
     14376**DCL     14378--REDEF
AS_DEFAULT.SETUP_CHRA.TXT
     14496**DCL     14497--REDEF   14498--REDEF
AS_DEFAULT_DREC.PASSWORD
     15750**DCL     15754--REDEF
AS_DEFAULT_DREC.RENAME
     15773**DCL     15774--REDEF
AS_DFLT.BANNER_PERM
     14302**DCL     14303--REDEF
AS_DFLT.BUDGET.MACCT
     14207**DCL     14211--REDEF
AS_DFLT.BUDGET.MAX_PROJECTS
     14220**DCL     14223--REDEF
AS_DFLT.BUDGET.PACCUM
     14203**DCL     14205--REDEF
AS_DFLT.BUDGET.PMAXC
     14198**DCL     14200--REDEF
AS_DFLT.SETUP_CHRA.TXT
     14318**DCL     14319--REDEF   14320--REDEF
AS_FALSE
     13647**DCL     19080>>ASSIGN  19229>>ASSIGN  19642>>ASSIGN  19646>>ASSIGN  19652>>ASSIGN  19905>>ASSIGN
     19916>>ASSIGN  20111>>ASSIGN  20119>>ASSIGN  20128>>ASSIGN  20311>>ASSIGN  21083>>ASSIGN  21799>>ASSIGN
     21821>>ASSIGN  22606>>ASSIGN  23003>>ASSIGN
AS_FE_MODE
     13653**DCL     13654--REDEF
AS_FIELD1
     13783**DCL     19184<<ASSIGN  19208<<ASSIGN  19429<<ASSIGN  19768<<ASSIGN  20906<<ASSIGN  20929<<ASSIGN
     20952<<ASSIGN  20978<<ASSIGN  20999<<ASSIGN  21022<<ASSIGN  21499<<ASSIGN  21557<<ASSIGN  21637<<ASSIGN
     21767<<ASSIGN  21837<<ASSIGN  21872<<ASSIGN  22204<<ASSIGN  22257<<ASSIGN
AS_FIELD1.COUNT
     13784**DCL     21731<<ASSIGN
AS_FIELD1.TEXT
PL6.E3A0      #001=ASD$PROFILE File=ASD$PROFILE.:E05TSI                          TUE 07/29/97 09:46 Page:560
     13784**DCL     21646<>CALL    21732<<ASSIGN  21980<>CALL    22080<>CALL    22669<>CALL
AS_FIELD2
     13784**DCL     19769<<ASSIGN
AS_FIELD2.TEXT
     13784**DCL     21516<>CALL    21574<>CALL    22018<>CALL    22221<>CALL    22274<>CALL
AS_MODE
     13650**DCL     13652--REDEF
AS_MOD_USER.ACCESS
     16515**DCL     16516--REDEF
AS_MOD_USER.BANNER
     16502**DCL     16503--REDEF
AS_MOD_USER.BANNER_PERM
     16504**DCL     16505--REDEF
AS_MOD_USER.BILL
     16510**DCL     16511--REDEF
AS_MOD_USER.CPROC
     16506**DCL     16507--REDEF
AS_MOD_USER.FEBILL
     16586**DCL     16587--REDEF
AS_MOD_USER.FECXTMEM
     16603**DCL     16604--REDEF
AS_MOD_USER.FEMINTS
     16588**DCL     16589--REDEF
AS_MOD_USER.FEMMEM
     16599**DCL     16600--REDEF
AS_MOD_USER.FEMTIME
     16597**DCL     16598--REDEF
AS_MOD_USER.FEPPRIV
     16594**DCL     16596--REDEF
AS_MOD_USER.FEPRIV
     16591**DCL     16593--REDEF
AS_MOD_USER.FORCE_BIT
     16500**DCL     16501--REDEF
AS_MOD_USER.KEY
     16582**DCL     16584--REDEF
AS_MOD_USER.LASTCPROC
PL6.E3A0      #001=ASD$PROFILE File=ASD$PROFILE.:E05TSI                          TUE 07/29/97 09:46 Page:561
     16508**DCL     16509--REDEF
AS_MOD_USER.LIMITS.DO_
     16556**DCL     16557--REDEF
AS_MOD_USER.LIMITS.FPOOLS
     16572**DCL     16573--REDEF
AS_MOD_USER.LIMITS.LO
     16552**DCL     16553--REDEF
AS_MOD_USER.LIMITS.MEM
     16548**DCL     16549--REDEF
AS_MOD_USER.LIMITS.MPRIO
     16576**DCL     16577--REDEF
AS_MOD_USER.LIMITS.PDIS
     16564**DCL     16565--REDEF
AS_MOD_USER.LIMITS.PO
     16560**DCL     16561--REDEF
AS_MOD_USER.LIMITS.TDIS
     16568**DCL     16569--REDEF
AS_MOD_USER.LIMITS.TIME
     16544**DCL     16545--REDEF
AS_MOD_USER.MAXENQ
     16525**DCL     16526--REDEF
AS_MOD_USER.PERM_BIT
     16498**DCL     16499--REDEF
AS_MOD_USER.PPRIV
     16520**DCL     16522--REDEF
AS_MOD_USER.PRIOB
     16527**DCL     16528--REDEF
AS_MOD_USER.PRIV
     16517**DCL     16519--REDEF
AS_MOD_USER.QUAN
     16523**DCL     16524--REDEF
AS_MOD_USER.SETUP
     16496**DCL     16497--REDEF
AS_PROJECT.BANNER_PERM
     14836**DCL     14837--REDEF
AS_PROJECT.BUDGET.MACCT
PL6.E3A0      #001=ASD$PROFILE File=ASD$PROFILE.:E05TSI                          TUE 07/29/97 09:46 Page:562
     14741**DCL     14745--REDEF
AS_PROJECT.BUDGET.MAX_PROJECTS
     14754**DCL     14757--REDEF
AS_PROJECT.BUDGET.PACCUM
     14737**DCL     14739--REDEF
AS_PROJECT.BUDGET.PMAXC
     14732**DCL     14734--REDEF
AS_PROJECT.SETUP_CHRA.TXT
     14852**DCL     14853--REDEF   14854--REDEF
AS_PROJECT_DFLT.BANNER_PERM
     15014**DCL     15015--REDEF
AS_PROJECT_DFLT.BUDGET.MACCT
     14919**DCL     14923--REDEF
AS_PROJECT_DFLT.BUDGET.MAX_PROJECTS
     14932**DCL     14935--REDEF
AS_PROJECT_DFLT.BUDGET.PACCUM
     14915**DCL     14917--REDEF
AS_PROJECT_DFLT.BUDGET.PMAXC
     14910**DCL     14912--REDEF
AS_PROJECT_DFLT.SETUP_CHRA.TXT
     15030**DCL     15031--REDEF   15032--REDEF
AS_PROJECT_DFLT_DREC.PASSWORD
     16236**DCL     16240--REDEF
AS_PROJECT_DFLT_DREC.RENAME
     16259**DCL     16260--REDEF
AS_PROJECT_DREC.PASSWORD
     16074**DCL     16078--REDEF
AS_PROJECT_DREC.RENAME
     16097**DCL     16098--REDEF
AS_PROJ_ADMIN.BANNER_PERM
     14658**DCL     14659--REDEF
AS_PROJ_ADMIN.BUDGET.MACCT
     14563**DCL     14567--REDEF
AS_PROJ_ADMIN.BUDGET.MAX_PROJECTS
     14576**DCL     14579--REDEF
AS_PROJ_ADMIN.BUDGET.PACCUM
PL6.E3A0      #001=ASD$PROFILE File=ASD$PROFILE.:E05TSI                          TUE 07/29/97 09:46 Page:563
     14559**DCL     14561--REDEF
AS_PROJ_ADMIN.BUDGET.PMAXC
     14554**DCL     14556--REDEF
AS_PROJ_ADMIN.SETUP_CHRA.TXT
     14674**DCL     14675--REDEF   14676--REDEF
AS_PROJ_ADMIN_DREC.PASSWORD
     15912**DCL     15916--REDEF
AS_PROJ_ADMIN_DREC.RENAME
     15935**DCL     15936--REDEF
AS_TRUE
     13647**DCL     19078>>ASSIGN  19224>>ASSIGN  19236>>ASSIGN  19628>>IF      19638>>ASSIGN  19640>>ASSIGN
     19644>>ASSIGN  19650>>ASSIGN  19721>>ASSIGN  19791>>ASSIGN  19792>>ASSIGN  19913>>ASSIGN  20125>>ASSIGN
     20314>>ASSIGN  21089>>ASSIGN  21091>>ASSIGN  21093>>ASSIGN  21095>>ASSIGN  21097>>ASSIGN  21099>>ASSIGN
     21101>>ASSIGN  22573>>ASSIGN  22980>>ASSIGN
AS_USERS.BANNER_PERM
     14124**DCL     14125--REDEF
AS_USERS.BUDGET.MACCT
     14029**DCL     14033--REDEF
AS_USERS.BUDGET.MAX_PROJECTS
     14042**DCL     14045--REDEF
AS_USERS.BUDGET.PACCUM
     14025**DCL     14027--REDEF
AS_USERS.BUDGET.PMAXC
     14020**DCL     14022--REDEF
AS_USERS.SETUP_CHRA.TXT
     14140**DCL     14141--REDEF   14142--REDEF
AS_USERS_CONSTANT.BANNER_PERM
     15192**DCL     15193--REDEF
AS_USERS_CONSTANT.BUDGET.MACCT
     15097**DCL     15101--REDEF
AS_USERS_CONSTANT.BUDGET.MAX_PROJECTS
     15110**DCL     15113--REDEF
AS_USERS_CONSTANT.BUDGET.PACCUM
     15093**DCL     15095--REDEF
AS_USERS_CONSTANT.BUDGET.PMAXC
     15088**DCL     15090--REDEF
PL6.E3A0      #001=ASD$PROFILE File=ASD$PROFILE.:E05TSI                          TUE 07/29/97 09:46 Page:564
AS_USERS_CONSTANT.SETUP_CHRA.TXT
     15208**DCL     15209--REDEF   15210--REDEF
B$ALT.CODE
     18397**DCL     18397--REDEF   18398--REDEF   18398--REDEF
B$ALT.ERR.ERR#
     18399**DCL     18399--REDEF
B$ALT.EVID
     18398**DCL     18398--REDEF   18398--REDEF
B$XL_UPPER_UR
      5723**DCL     19110>>CALLBLT 19330>>CALLBLT
B$XL_UPPER_UR$
      5722**DCL      5723--IMP-PTR 19110>>CALLBLT 19330>>CALLBLT
BASED_BYTE IN PROCEDURE OPEN_SPACE
     23432**DCL     23449<<ASSIGN  23449>>ASSIGN
BASED_BYTE IN PROCEDURE PLACE_OPT
     21913**DCL     21917>>IF      22130<<ASSIGN
BEGIN$ IN PROCEDURE ADD_ANOTHER_FUNKEY
     22801**DCL     22805<<ASSIGN  22810<>CALL    22824<<ASSIGN  22825<>CALL    22826>>ASSIGN
BEGIN$ IN PROCEDURE DO_SETUP_CHR
     23242**DCL     23259<<ASSIGN  23263<>CALL    23282<<ASSIGN  23286<>CALL    23293<<ASSIGN  23297<>CALL
     23338<<ASSIGN  23342<>CALL
BEGIN$ IN PROCEDURE OPEN_SPACE
     23424**DCL     23423--PROC    23440--ENTRY   23441>>ASSIGN  23442>>ASSIGN  23446>>ASSIGN
BEGIN$ IN PROCEDURE REMOVE_THIS_FUNKEY
     22757**DCL     22761<<ASSIGN  22765<>CALL    22783<<ASSIGN  22784<>CALL    22785>>ASSIGN
BEGIN$ IN PROCEDURE SHRINK
     23362**DCL     23360--PROC    23371--ENTRY   23381>>IF      23382>>IF      23383>>IF      23384>>IF
     23385>>IF      23386>>IF      23387>>IF      23388>>IF      23389>>IF      23390>>IF      23391>>IF
     23392>>IF      23393>>IF      23394>>IF      23397>>IF      23407<>CALL    23411<>CALL
BLK$
     18992**DCL     18461--IMP-PTR 19084<<ASSIGN  19085>>ASSIGN  19110>>CALLBLT 19110>>CALLBLT 19110>>CALLBLT
     19111>>IF      19111>>IF      19111>>IF      19111>>IF      19114>>ASSIGN  19114>>ASSIGN  19237<<ASSIGN
     19309>>ASSIGN  19330>>CALLBLT 19330>>CALLBLT 19330>>CALLBLT 19331>>IF      19331>>IF      19331>>IF
     19331>>IF      19334>>ASSIGN  19334>>ASSIGN  19795<<ASSIGN  19796>>ASSIGN  20051>>IF      20073>>ASSIGN
     20073>>ASSIGN  20083>>IF      20105>>ASSIGN  20105>>ASSIGN  20164<<ASSIGN  21115>>IF      21137>>ASSIGN
     21137>>ASSIGN  21251<<ASSIGN  21493>>CALLBLT 21493>>CALLBLT 21686<<ASSIGN  21687>>CALL    21687>>CALL
PL6.E3A0      #001=ASD$PROFILE File=ASD$PROFILE.:E05TSI                          TUE 07/29/97 09:46 Page:565
     21705<<ASSIGN  21706>>CALL    21706>>CALL    21712<<ASSIGN  21713>>DOINDEX 21715>>ASSIGN  21715>>ASSIGN
     21731>>ASSIGN  21732>>ASSIGN  21732>>ASSIGN  21761<>CALL    22198>>CALLBLT 22198>>CALLBLT 22518<<ASSIGN
     22519>>IF      22521<<ASSIGN  22522>>CALL    22522>>CALL    22524>>IF      22526>>ASSIGN  22526>>ASSIGN
     22529>>IF      22534>>ASSIGN  23000<<ASSIGN  23001>>IF      23004>>CALLBLT 23004>>CALLBLT 23041<<ASSIGN
     23137<<ASSIGN  23138>>CALL    23138>>CALL    23155<<ASSIGN  23156>>CALL    23156>>CALL    23162<<ASSIGN
     23163>>CALL    23163>>CALL
BUFINDX IN PROCEDURE PLACE_OPT
     21908**DCL     21930<<ASSIGN  21939<<ASSIGN  21941<<ASSIGN  21942<<ASSIGN  21942>>ASSIGN  21942>>ASSIGN
     21946>>ASSIGN  21950<<ASSIGN  21951>>IF      21954>>ASSIGN  21955<<ASSIGN  21955>>ASSIGN  21959>>ASSIGN
     21960>>ASSIGN  22136>>DOINDEX 22141>>ASSIGN  22141>>ASSIGN  22149>>ASSIGN  22151<<ASSIGN  22151>>ASSIGN
     22152>>ASSIGN
BYTE2 IN PROCEDURE DO_FUNKEY_DEFS
     22483**DCL     22922>>ASSIGN  22984<<ASSIGN  22989<<ASSIGN  22992<<ASSIGN  22996<<ASSIGN  23005>>IF
     23007<<ASSIGN  23009>>IF      23011<<ASSIGN  23111<<ASSIGN  23117<<ASSIGN  23188>>IF
CCHRSZ$
     18994**DCL     19484<<ASSIGN  19539<<ASSIGN  21964>>IF      21965>>ASSIGN  21965>>ASSIGN  21967>>ASSIGN
     22057>>IF      22155>>IF      22160>>ASSIGN  22161>>ASSIGN  22170>>ASSIGN  22171>>ASSIGN  22174>>IF
     22175>>ASSIGN  22181>>ASSIGN  22185>>ASSIGN  23392>>IF      23392<<ASSIGN  23392>>ASSIGN
CHARS IN PROCEDURE SHRINK
     23361**DCL     23360--PROC    23367>>ASSIGN  23371--ENTRY   23372>>ASSIGN  23377<<ASSIGN  23377>>ASSIGN
     23377>>ASSIGN  23407<>CALL    23408>>ASSIGN  23411<>CALL    23412>>ASSIGN
CHECK_MODIFIERS IN PROCEDURE DO_FUNKEY_DEFS
     23079**PROC    23050--CALL    23060--CALL
CLOSE_SPACE IN PROCEDURE OPEN_SPACE
     23440**ENTRY   23407--CALL
CMPE$ IN PROCEDURE PLACE_OPT
     21907**DCL     21920<<ASSIGN  21921>>ASSIGN  22175<<ASSIGN  22176>>ASSIGN  22178>>ASSIGN
CMP_VAL IN PROCEDURE PLACE_OPT
     21906**DCL     21921<<ASSIGN  21925>>DOWHILE 21929>>IF      22124>>DOWHILE
CODE
     13780**DCL     19232<<ASSIGN  19233>>DOCASE  19739<<ASSIGN  19741>>DOCASE  19761>>ASSIGN  19764>>IF
     19809>>DOCASE  21082>>ASSIGN  21833>>IF
CODE IN PROCEDURE DO_FUNKEY_DEFS
     22484**DCL     22539<<ASSIGN  22541>>DOCASE
COMMON IN PROCEDURE OPEN_SPACE
     23443**LABEL   23437--GOTO
PL6.E3A0      #001=ASD$PROFILE File=ASD$PROFILE.:E05TSI                          TUE 07/29/97 09:46 Page:566
COMMON IN PROCEDURE SHRINK
     23373**LABEL   23369--GOTO
CONTINUE IN PROCEDURE DO_FUNKEY_DEFS
     22485**DCL     22573<<ASSIGN  22574>>DOWHILE 22606<<ASSIGN
CREATE
     19018**DCL     19078<<ASSIGN  19080<<ASSIGN  19179>>IF      19204>>IF      19224<<ASSIGN  19273>>IF
     19363>>IF      19491>>IF      19655>>IF
DELET IN PROCEDURE MAYBE_REMOVE_INTRO
     22935**DCL     22945<<ASSIGN  22950<<ASSIGN  22954>>IF
DO_FUNKEY_DEFS
     22469**PROC    21452--CALL
DO_SETUP_CHR
     23240**PROC    21456--CALL
DSEG1$
     13788**DCL     16972--IMP-PTR 19177>>CALL    19360>>CALL    19420>>CALL    19450>>CALL    19452>>CALL
     19454>>CALL    19456>>CALL    19458>>CALL    19460>>CALL    19462>>CALL    19464>>CALL    19468>>ASSIGN
     19524>>CALL    19663>>CALL
DSEG2$
     13789**DCL     16979--IMP-PTR 19492>>CALL    19494>>CALL    19497>>CALL    19527>>ASSIGN  19666>>CALL
DSEG3$
     13789**DCL     22156>>ASSIGN  22158>>ASSIGN  22163>>ASSIGN  22165>>ASSIGN
DSEG_FLG
     13788**DCL     19050>>IF
DTABS$
     16988**DCL     19477<<ASSIGN  19563<<ASSIGN  20191>>ASSIGN  23385>>IF      23385<<ASSIGN  23385>>ASSIGN
DUPE_CHR_IDX IN PROCEDURE FIGURE_BYTE2
     22978**DCL     23042<<ASSIGN
ENLARGE IN PROCEDURE SHRINK
     23371**ENTRY   22810--CALL    22825--CALL    23297--CALL    23342--CALL
ERR_CODE
     13782**DCL     13783--REDEF
EXTWID
     19002**DCL     19629<<ASSIGN  19631<<ASSIGN  19632>>ASSIGN
FIGURE_BYTE2 IN PROCEDURE DO_FUNKEY_DEFS
     22970**PROC    22571--CALL    22616--CALL
FIND_FKEY IN PROCEDURE DO_FUNKEY_DEFS
PL6.E3A0      #001=ASD$PROFILE File=ASD$PROFILE.:E05TSI                          TUE 07/29/97 09:46 Page:567
     22724**PROC    22575--CALL
FIND_FUNCTION_KEY IN PROCEDURE DO_FUNKEY_DEFS
     23174**PROC    22620--CALL
FINISH IN PROCEDURE GET_HEX_VAL
     21620**DCL     21695<<ASSIGN  21699<<ASSIGN  21702>>DOINDEX
FKEY IN PROCEDURE DO_FUNKEY_DEFS
     22486**DCL     22522<>CALL    22526<<ASSIGN  22531<<ASSIGN  22534<<ASSIGN  22738>>IF      22924>>ASSIGN
     22990>>IF
FROM
     19019**DCL     19229<<ASSIGN  19236<<ASSIGN  19273>>IF      19308>>IF      19425>>IF      19655>>IF
FROM$ IN PROCEDURE OPEN_SPACE
     23428**DCL     23434<<ASSIGN  23435>>ASSIGN  23441<<ASSIGN  23449>>ASSIGN  23451<<ASSIGN  23451>>ASSIGN
FUNC_OPTS_LOOP IN PROCEDURE DO_FUNKEY_DEFS
     22501**LABEL   22509--GOTO    22571--CALLALT
FUNKEY$
     16990**DCL     18081--IMP-PTR 19479<<ASSIGN  19572<<ASSIGN  22557>>IF      22561>>DOINDEX 22565>>ASSIGN
     22567>>ASSIGN  22579>>IF      22580>>ASSIGN  22636>>IF      22637>>ASSIGN  22711>>CALL    22732>>IF
     22737>>DOINDEX 22738>>IF      22761>>ASSIGN  22767>>ASSIGN  22767>>ASSIGN  22805>>ASSIGN  22805>>ASSIGN
     22812>>ASSIGN  22812>>ASSIGN  22854>>IF      22854>>IF      22861>>IF      22861>>IF      22868>>IF
     22871>>ASSIGN  22872>>ASSIGN  22876>>IF      22879>>ASSIGN  22880>>ASSIGN  22918>>ASSIGN  22920>>ASSIGN
     22922>>ASSIGN  22924>>ASSIGN  22937>>IF      22940>>ASSIGN  22941>>ASSIGN  22944>>ASSIGN  22946>>DOINDEX
     22947>>IF      22959>>ASSIGN  22963>>ASSIGN  23043>>DOINDEX 23044>>IF      23045>>DOSELCT 23047>>IF
     23047>>IF      23057>>IF      23057>>IF      23093>>ASSIGN  23097>>ASSIGN  23102>>ASSIGN  23186>>IF
     23187>>DOINDEX 23188>>IF      23188>>IF      23191>>DOCASE  23194>>IF      23194>>IF      23202>>IF
     23202>>IF      23387>>IF      23387<<ASSIGN  23387>>ASSIGN
FUNKEYSZ$
     18995**DCL     19485<<ASSIGN  19541<<ASSIGN  22644>>IF      22645>>IF      22769>>IF      22770>>ASSIGN
     22770>>ASSIGN  22772>>ASSIGN  22776>>ASSIGN  22777>>ASSIGN  22780>>IF      22783>>ASSIGN  22785<<ASSIGN
     22786>>ASSIGN  22788>>ASSIGN  22814>>IF      22815>>ASSIGN  22815>>ASSIGN  22817>>ASSIGN  22820>>IF
     22824>>ASSIGN  22826<<ASSIGN  22827>>ASSIGN  22828>>ASSIGN  22830>>ASSIGN  22831>>ASSIGN  22835>>ASSIGN
     23393>>IF      23393<<ASSIGN  23393>>ASSIGN
FUNKEY_CMD
     13642**DCL     22501--ASSIGN
FUNKEY_DEF_SIZE IN PROCEDURE DO_FUNKEY_DEFS
     22487**DCL     22645>>IF      22649>>IF      22660>>ASSIGN  22762>>ASSIGN  22770>>ASSIGN  22772>>ASSIGN
     22806>>ASSIGN  22815>>ASSIGN  22817>>ASSIGN
PL6.E3A0      #001=ASD$PROFILE File=ASD$PROFILE.:E05TSI                          TUE 07/29/97 09:46 Page:568
F_READ_ERR
     19423**LABEL   19360--CALLALT 19420--CALLALT
GET_DAQ_OPT
     21864**PROC    20833--CALL    20839--CALL    20971--CALL    20997--CALL    21019--CALL
GET_DEC_VAL
     21486**PROC    19897--CALL    19909--CALL    19925--CALL    20043--CALL    20115--CALL    20138--CALL
     20147--CALL    20156--CALL    20165--CALL    20196--CALL    20201--CALL    20221--CALL    20356--CALL
     20360--CALL    20364--CALL    20368--CALL    20372--CALL    20376--CALL    20380--CALL    20425--CALL
     20429--CALL    20434--CALL    20438--CALL    20442--CALL    20461--CALL    20491--CALL    20495--CALL
     20501--CALL    20503--CALL    20520--CALL    20522--CALL    20528--CALL    20530--CALL    20535--CALL
     20537--CALL    20544--CALL    20549--CALL    20561--CALL    20566--CALL    20571--CALL    20576--CALL
     20585--CALL    20593--CALL    20598--CALL    20603--CALL    20608--CALL    20613--CALL    20618--CALL
     20780--CALL    20782--CALL    20797--CALL    20799--CALL    20803--CALL    20812--CALL    21438--CALL
     21447--CALL    21466--CALL
GET_HEX_VAL
     21614**PROC    20217--CALL    20232--CALL    20237--CALL    20242--CALL    20247--CALL    20252--CALL
     20257--CALL    20262--CALL    20267--CALL    20272--CALL    20277--CALL    20282--CALL    20287--CALL
     20292--CALL    20297--CALL    20302--CALL    20343--CALL    20350--CALL    20384--CALL    20465--CALL
     20469--CALL    20855--CALL    20860--CALL    21041--CALL    21046--CALL    21051--CALL    21056--CALL
     21061--CALL    21110--CALL    21393--CALL    21857--CALL    21891--CALL    23248--CALL
GET_IDENTIFIER IN PROCEDURE DO_FUNKEY_DEFS
     23131**PROC    22618--CALL    23039--CALL
GET_INTRODUCER IN PROCEDURE DO_FUNKEY_DEFS
     23142**PROC    22619--CALL    23040--CALL
GET_SGR_OPT
     21828**PROC    20828--CALL    20838--CALL    20865--CALL    20870--CALL    20874--CALL    20878--CALL
     20882--CALL    20886--CALL    20890--CALL    20894--CALL    20898--CALL    20925--CALL    20948--CALL
GET_TA
     21752**PROC    20388--CALL    20391--CALL    20394--CALL    20397--CALL    20400--CALL    20403--CALL
     20406--CALL    20409--CALL    20412--CALL    20415--CALL    20418--CALL
GRA$
     16983**DCL     19527<<ASSIGN  21141>>ASSIGN  21145>>ASSIGN  21149>>ASSIGN  21153>>ASSIGN  21157>>ASSIGN
     21161>>ASSIGN  21165>>ASSIGN  21169>>ASSIGN  21173>>ASSIGN  21177>>ASSIGN  21181>>ASSIGN  21185>>ASSIGN
     21189>>ASSIGN  21193>>ASSIGN  21197>>ASSIGN  21201>>ASSIGN  21205>>ASSIGN  21209>>ASSIGN  21213>>ASSIGN
     21217>>ASSIGN  21221>>ASSIGN  21225>>ASSIGN  21248>>ASSIGN  21255>>ASSIGN  21259>>ASSIGN  21263>>ASSIGN
     21267>>ASSIGN  21271>>ASSIGN  21275>>ASSIGN  21279>>ASSIGN  21283>>ASSIGN  21287>>ASSIGN  21291>>ASSIGN
PL6.E3A0      #001=ASD$PROFILE File=ASD$PROFILE.:E05TSI                          TUE 07/29/97 09:46 Page:569
     21295>>ASSIGN  21299>>ASSIGN  21303>>ASSIGN  21307>>ASSIGN  21311>>ASSIGN  21315>>ASSIGN  21319>>ASSIGN
     21323>>ASSIGN  21327>>ASSIGN  21331>>ASSIGN  21335>>ASSIGN  21339>>ASSIGN  21343>>ASSIGN  21347>>ASSIGN
     21351>>ASSIGN  21355>>ASSIGN  21359>>ASSIGN  21363>>ASSIGN  21367>>ASSIGN  21371>>ASSIGN  21375>>ASSIGN
     21379>>ASSIGN  21383>>ASSIGN  21387>>ASSIGN  21391>>ASSIGN  22337>>IF      22361>>DOINDEX 22362>>IF
     22364>>IF      22366>>ASSIGN  22366>>ASSIGN  22367>>ASSIGN  22367>>ASSIGN  22370>>DOINDEX 22371>>ASSIGN
     22371>>ASSIGN  22373>>ASSIGN  22373>>ASSIGN  22376>>ASSIGN  22376>>ASSIGN  22377>>ASSIGN  22377>>ASSIGN
     22381>>IF      22403>>IF      22428>>IF      22430>>ASSIGN  22430>>ASSIGN  22431>>ASSIGN  22432>>ASSIGN
     22436>>IF      22436>>IF      22439>>ASSIGN  22439>>ASSIGN  22440>>ASSIGN  22440>>ASSIGN  22441>>ASSIGN
     22441>>ASSIGN  22446>>DOINDEX 22447>>IF      22449>>ASSIGN  22452>>IF      22454>>DOINDEX 22455>>ASSIGN
     22455>>ASSIGN  22457>>ASSIGN  22457>>ASSIGN  22460>>ASSIGN  22461>>ASSIGN  22462>>ASSIGN  22462>>ASSIGN
GRA$REC.BACKGROUND_COLOR
     18906**DCL     21383<<ASSIGN
GRA$REC.BACKGROUND_TYPE
     18881**DCL     21367<<ASSIGN
GRA$REC.BATCH_MODE
     18828**DCL     21339<<ASSIGN
GRA$REC.CHARSIZE_SUPPORT
     18794**DCL     21327<<ASSIGN
GRA$REC.CHAR_SIZE_COUNT
     18755**DCL     21307<<ASSIGN
GRA$REC.COLOR_ACTION
     18912**DCL     21387<<ASSIGN
GRA$REC.COLOR_MODEL
     18901**DCL     21379<<ASSIGN
GRA$REC.COLOR_TABLE_TYPE
     18874**DCL     21363<<ASSIGN
GRA$REC.COLOR_TAB_SIZE
     18706**DCL     21275<<ASSIGN
GRA$REC.DEPTH_USABLE
     18620**DCL     21197<<ASSIGN
GRA$REC.DEVICE_TYPE
     18886**DCL     21371<<ASSIGN
GRA$REC.DIMENSION_LEVEL
     18845**DCL     21347<<ASSIGN
GRA$REC.EDGE_TYPE
     18866**DCL     21359<<ASSIGN
PL6.E3A0      #001=ASD$PROFILE File=ASD$PROFILE.:E05TSI                          TUE 07/29/97 09:46 Page:570
GRA$REC.FONT_COUNT
     18736**DCL     21295<<ASSIGN
GRA$REC.GLOBAL_COLORS
     18550**DCL     21141<<ASSIGN
GRA$REC.GLOBAL_INTENSITIES
     18555**DCL     21145<<ASSIGN
GRA$REC.GR_ESCAPES
     18942**DCL     22366<<ASSIGN  22376<<ASSIGN
GRA$REC.GR_ESCAPES.ESCAPE_FUNCTION
     18943**DCL     22362>>IF      22371<<ASSIGN  22371>>ASSIGN  22431<<ASSIGN  22436>>IF      22439<<ASSIGN
     22447>>IF      22452>>IF      22455<<ASSIGN  22455>>ASSIGN  22460<<ASSIGN
GRA$REC.GR_ESCAPES.ESCAPE_SUPPORT
     18948**DCL     22373<<ASSIGN  22373>>ASSIGN  22432<<ASSIGN  22440<<ASSIGN  22449<<ASSIGN  22457<<ASSIGN
     22457>>ASSIGN  22461<<ASSIGN
GRA$REC.HEIGHT_USABLE
     18615**DCL     21193<<ASSIGN
GRA$REC.HIDDEN_SURFACE_LEVEL
     18836**DCL     21343<<ASSIGN
GRA$REC.HIGHLIGHT_SUPPORT
     18809**DCL     21331<<ASSIGN
GRA$REC.IMAGE_TRANSF
     18891**DCL     21375<<ASSIGN
GRA$REC.INTENSITY_ACTION
     18919**DCL     21391<<ASSIGN
GRA$REC.INTENSITY_SUPPORT
     18801**DCL     21323<<ASSIGN
GRA$REC.INTENSITY_TAB_SIZE
     18712**DCL     21279<<ASSIGN
GRA$REC.LINESTYLE_HARDWARE_COUNT
     18719**DCL     21283<<ASSIGN
GRA$REC.LINESTYLE_SOFTWARE_COUNT
     18725**DCL     21287<<ASSIGN
GRA$REC.LINEWIDTH_COUNT
     18731**DCL     21291<<ASSIGN
GRA$REC.LINEWIDTH_SUPPORT
     18786**DCL     21319<<ASSIGN
PL6.E3A0      #001=ASD$PROFILE File=ASD$PROFILE.:E05TSI                          TUE 07/29/97 09:46 Page:571
GRA$REC.MARKER_HARDWARE_COUNT
     18760**DCL     21311<<ASSIGN
GRA$REC.MARKER_SOFTWARE_COUNT
     18779**DCL     21315<<ASSIGN
GRA$REC.MAXIMUM_LINEWIDTH
     18645**DCL     21217<<ASSIGN
GRA$REC.MAX_CHAR_SIZE
     18661**DCL     21225<<ASSIGN
GRA$REC.MAX_PICK_ID
     18560**DCL     21149<<ASSIGN
GRA$REC.MINIMUM_LINEWIDTH
     18637**DCL     21213<<ASSIGN
GRA$REC.MIN_CHAR_SIZE
     18653**DCL     21221<<ASSIGN
GRA$REC.NDC_DEPTH_ADDR_SPACE
     18590**DCL     21173<<ASSIGN
GRA$REC.NDC_DEPTH_CHAR_POS
     18605**DCL     21185<<ASSIGN
GRA$REC.NDC_DEPTH_CURRENT
     18633**DCL     21209<<ASSIGN
GRA$REC.NDC_HEIGHT_ADDR_SPACE
     18585**DCL     21169<<ASSIGN
GRA$REC.NDC_HEIGHT_CHAR_POS
     18600**DCL     21181<<ASSIGN
GRA$REC.NDC_HEIGHT_CURRENT
     18629**DCL     21205<<ASSIGN
GRA$REC.NDC_WIDTH_ADDR_SPACE
     18580**DCL     21165<<ASSIGN
GRA$REC.NDC_WIDTH_CHAR_POS
     18595**DCL     21177<<ASSIGN
GRA$REC.NDC_WIDTH_CURRENT
     18625**DCL     21201<<ASSIGN
GRA$REC.NUM_ESCAPES
     18935**DCL     22337>>IF      22361>>DOINDEX 22364>>IF      22366>>ASSIGN  22367<<ASSIGN  22367>>ASSIGN
     22370>>DOINDEX 22376>>ASSIGN  22377<<ASSIGN  22377>>ASSIGN  22381>>IF      22403>>IF      22428>>IF
     22430<<ASSIGN  22430>>ASSIGN  22436>>IF      22439>>ASSIGN  22440>>ASSIGN  22441<<ASSIGN  22441>>ASSIGN
PL6.E3A0      #001=ASD$PROFILE File=ASD$PROFILE.:E05TSI                          TUE 07/29/97 09:46 Page:572
     22446>>DOINDEX 22454>>DOINDEX 22462<<ASSIGN  22462>>ASSIGN
GRA$REC.OUTPUT_LEVEL
     18819**DCL     21335<<ASSIGN
GRA$REC.PEN_HARDWARE_COUNT
     18741**DCL     21299<<ASSIGN
GRA$REC.PEN_SOFTWARE_COUNT
     18748**DCL     21303<<ASSIGN
GRA$REC.PIXEL_TYPE
     18858**DCL     21355<<ASSIGN
GRA$REC.PIX_ARRAY_MAXX
     18696**DCL     21267<<ASSIGN
GRA$REC.PIX_ARRAY_MAXY
     18701**DCL     21271<<ASSIGN
GRA$REC.POLYGON_FILL.PATTERNED
     18691**DCL     21263<<ASSIGN
GRA$REC.POLYGON_FILL.PLAIN
     18681**DCL     21255<<ASSIGN
GRA$REC.POLYGON_FILL.SHADED
     18686**DCL     21259<<ASSIGN
GRA$REC.VIEW_SURFACE
     18669**DCL     21248<<ASSIGN
GRA$REC.VIEW_SURFACE_TYPE
     18851**DCL     21351<<ASSIGN
GRA$REC.WIDTH_USABLE
     18610**DCL     21189<<ASSIGN
GRA$REC.X_PER_CM
     18565**DCL     21153<<ASSIGN
GRA$REC.Y_PER_CM
     18570**DCL     21157<<ASSIGN
GRA$REC.Z_PER_CM
     18575**DCL     21161<<ASSIGN
GRA_BUF
     16979**DCL     19492<>CALL    19494<>CALL    19497<>CALL    19666<>CALL
GRA_KEY_OLD
     16980**DCL     19497<>CALL
GRA_OPT_PROC
PL6.E3A0      #001=ASD$PROFILE File=ASD$PROFILE.:E05TSI                          TUE 07/29/97 09:46 Page:573
     22193**PROC    21140--CALL    21144--CALL    21148--CALL    21152--CALL    21156--CALL    21160--CALL
     21164--CALL    21168--CALL    21172--CALL    21176--CALL    21180--CALL    21184--CALL    21188--CALL
     21192--CALL    21196--CALL    21200--CALL    21204--CALL    21208--CALL    21212--CALL    21216--CALL
     21220--CALL    21224--CALL    21228--CALL    21247--CALL    21254--CALL    21258--CALL    21262--CALL
     21266--CALL    21270--CALL    21274--CALL    21278--CALL    21282--CALL    21286--CALL    21290--CALL
     21294--CALL    21298--CALL    21302--CALL    21306--CALL    21310--CALL    21314--CALL    21318--CALL
     21322--CALL    21326--CALL    21330--CALL    21334--CALL    21338--CALL    21342--CALL    21346--CALL
     21350--CALL    21354--CALL    21358--CALL    21362--CALL    21366--CALL    21370--CALL    21374--CALL
     21378--CALL    21382--CALL    21386--CALL    21390--CALL
GR_AGAIN
     19494**LABEL   19520--GOTO    19525--GOTO
GR_FLAG
     19020**DCL     19722<<ASSIGN  22307>>IF      22327<<ASSIGN
GR_READ_ERR
     19497**LABEL   19492--CALLALT 19494--CALLALT
GR_READ_ERR_CR
     19520**LABEL   19497--CALLALT
G_ARS
     18998**DCL     19492<>CALL    19494<>CALL    19497<>CALL    19665<<ASSIGN  19665>>ASSIGN  19666<>CALL
HEX
     19032**DCL     21622<<ASSIGN  21708<<ASSIGN  21715<<ASSIGN  21722<<ASSIGN  21795<<ASSIGN  21796<<ASSIGN
     21800<<ASSIGN  21801<<ASSIGN  21802<<ASSIGN  21803<<ASSIGN  21817<<ASSIGN  21818<<ASSIGN  21917>>IF
     21947>>ASSIGN  21951>>IF      21953>>DOINDEX 21954>>ASSIGN  21960>>ASSIGN  21961>>IF      22129>>IF
     22148>>IF      22149>>ASSIGN  22150>>DOINDEX 22152>>ASSIGN  23255>>IF      23273>>IF      23275>>DOINDEX
     23276>>ASSIGN  23280>>IF      23282>>ASSIGN  23282>>ASSIGN  23283>>ASSIGN  23283>>ASSIGN  23290>>IF
     23294>>ASSIGN  23294>>ASSIGN  23300>>DOINDEX 23301>>ASSIGN  23314>>IF      23339>>ASSIGN  23343>>DOINDEX
     23344>>ASSIGN  23346>>ASSIGN
HEX_ERR IN PROCEDURE GET_HEX_VAL
     21731**LABEL   21687--CALLALT 21706--CALLALT
HEX_V
     19033**DCL     20218>>ASSIGN  20385>>ASSIGN  20466>>ASSIGN  20470>>ASSIGN  20871>>ASSIGN  20875>>ASSIGN
     20879>>ASSIGN  20883>>ASSIGN  20887>>ASSIGN  20891>>ASSIGN  20895>>ASSIGN  20899>>ASSIGN  20900>>IF
     20926>>ASSIGN  20927>>IF      20949>>ASSIGN  20950>>IF      20972>>ASSIGN  21016>>ASSIGN  21020>>ASSIGN
     21622<<ASSIGN  21688<<ASSIGN
I
     19003**DCL     19231<<DOINDEX 19232>>ASSIGN  19237>>ASSIGN  19238<<ASSIGN  19242<<ASSIGN  19246<<ASSIGN
PL6.E3A0      #001=ASD$PROFILE File=ASD$PROFILE.:E05TSI                          TUE 07/29/97 09:46 Page:574
     19250<<ASSIGN  19254<<ASSIGN  19258<<ASSIGN  19262<<ASSIGN  19266<<ASSIGN  19270<<ASSIGN  19487<<DOINDEX
     19488>>ASSIGN  19594<<ASSIGN  19595>>ASSIGN  19735<<ASSIGN  19737>>DOINDEX
I IN PROCEDURE CHECK_MODIFIERS
     23081**DCL     23079--PROC    23093>>ASSIGN  23097>>ASSIGN  23102>>ASSIGN
I IN PROCEDURE DO_FUNKEY_DEFS
     22488**DCL     22561<<DOINDEX 22562<>CALL    22563<>CALL    22572<<ASSIGN  22577<<ASSIGN  22585>>IF
     22643<<ASSIGN  22648<<ASSIGN  22649>>IF      22660<<ASSIGN  22660>>ASSIGN  22669<>CALL
I IN PROCEDURE FIGURE_BYTE2
     22975**DCL     22999<<DOINDEX 23000>>ASSIGN  23043<<DOINDEX 23044>>IF      23045>>DOSELCT 23050<>CALL
     23060<>CALL
I IN PROCEDURE FIND_FKEY
     22731**DCL     22737<<DOINDEX 22738>>IF      22740>>ASSIGN
I IN PROCEDURE FIND_FUNCTION_KEY
     23184**DCL     23187<<DOINDEX 23188>>IF      23188>>IF      23191>>DOCASE  23197>>ASSIGN  23205>>ASSIGN
     23212>>ASSIGN
I IN PROCEDURE MAYBE_REMOVE_INTRO
     22933**DCL     22946<<DOINDEX 22947>>IF      22947>>IF      22951<<ASSIGN
I IN PROCEDURE OPEN_SPACE
     23430**DCL     23448<<DOINDEX
I IN PROCEDURE PLACE_OPT
     21910**DCL     21953<<DOINDEX 21954>>ASSIGN  21971<<ASSIGN  21980<>CALL    22059<<ASSIGN  22061<<ASSIGN
     22062<<ASSIGN  22062>>ASSIGN  22063>>IF      22071<<ASSIGN  22071>>ASSIGN  22080<>CALL    22136<<DOINDEX
     22137>>ASSIGN  22138>>ASSIGN  22142<<DOINDEX 22143>>ASSIGN  22144>>ASSIGN  22150<<DOINDEX 22152>>ASSIGN
     22157<<DOINDEX 22158>>ASSIGN  22158>>ASSIGN  22164<<DOINDEX 22165>>ASSIGN  22165>>ASSIGN  22177<<DOINDEX
     22178>>ASSIGN  22178>>ASSIGN
I IN PROCEDURE SHRINK
     23364**DCL     23396<<DOINDEX 23397>>IF      23398>>ASSIGN  23398>>ASSIGN
IDENT IN PROCEDURE DO_FUNKEY_DEFS
     22489**DCL     22920>>ASSIGN  23044>>IF      23138<>CALL    23188>>IF
INITIALIZE_DAQ
     21815**PROC    20825--CALL    20851--CALL
INITIALIZE_SGR
     21792**PROC    20821--CALL    20849--CALL
INTRO_NUM IN PROCEDURE DO_FUNKEY_DEFS
     22490**DCL     22614<<ASSIGN  22857<<ASSIGN  22864<<ASSIGN  22870<<ASSIGN  22878<<ASSIGN  22918>>ASSIGN
IN_BUF
PL6.E3A0      #001=ASD$PROFILE File=ASD$PROFILE.:E05TSI                          TUE 07/29/97 09:46 Page:575
     13778**DCL     19730<>CALL    22504<>CALL
J
     19004**DCL     19737<<DOINDEX 19738>>ASSIGN
J IN PROCEDURE DO_SETUP_CHR
     23241**DCL     23275<<DOINDEX 23276>>ASSIGN  23276>>ASSIGN  23300<<DOINDEX 23301>>ASSIGN  23301>>ASSIGN
     23343<<DOINDEX 23344>>ASSIGN  23344>>ASSIGN
J IN PROCEDURE PLACE_OPT
     21911**DCL     22134<<ASSIGN  22137<<ASSIGN  22138>>ASSIGN  22143<<ASSIGN  22144>>ASSIGN
K
     19005**DCL     19762<<CALLBLT 19763>>ASSIGN  20162<<DOINDEX 20164>>ASSIGN  20166>>ASSIGN  20167>>IF
     20168>>IF      20168>>IF      21086<<DOINDEX 21087>>DOCASE  21702<<DOINDEX 21703>>IF      21705>>ASSIGN
     21710>>IF      21712>>ASSIGN  22454<<DOINDEX 22455>>ASSIGN  22455>>ASSIGN  22457>>ASSIGN  22457>>ASSIGN
K IN PROCEDURE DO_FUNKEY_DEFS
     22491**DCL     22512<<DOINDEX 22513>>ASSIGN
K IN PROCEDURE PLACE_OPT
     21912**DCL     22141<<ASSIGN  22142>>DOINDEX
KL$3270
     18018**DCL     19585>>IF
KL$3270.DVCBFRSIZ
     18027**DCL     20198<<ASSIGN
KL$3270.EWALT#
     18024**DCL     21069<<ASSIGN
KL$3270.FRMFED
     18023**DCL     20311<<ASSIGN  20314<<ASSIGN
KL$3270.SIOPT#
     18025**DCL     21072<<ASSIGN
KL$ABSGRPRND.FLAGS
     18054**DCL     21083<<ASSIGN
KL$ABSGRPRND.FLAGS.DCRINT#
     18058**DCL     21093<<ASSIGN
KL$ABSGRPRND.FLAGS.FSTBLN#
     18061**DCL     21099<<ASSIGN
KL$ABSGRPRND.FLAGS.HDN#
     18056**DCL     21089<<ASSIGN
KL$ABSGRPRND.FLAGS.INCINT#
     18057**DCL     21091<<ASSIGN
PL6.E3A0      #001=ASD$PROFILE File=ASD$PROFILE.:E05TSI                          TUE 07/29/97 09:46 Page:576
KL$ABSGRPRND.FLAGS.RVRVID#
     18062**DCL     21101<<ASSIGN
KL$ABSGRPRND.FLAGS.SLWBLN#
     18060**DCL     21097<<ASSIGN
KL$ABSGRPRND.FLAGS.UNDSCR#
     18059**DCL     21095<<ASSIGN
KL$ABSGRPRND.ID#
     18049**DCL     19589>>ASSIGN
KL$CCHR
     17357**DCL     22156<<ASSIGN  22156>>ASSIGN  22163<<ASSIGN  22163>>ASSIGN  22176<<ASSIGN  22176>>ASSIGN
KL$CCHR.BS_TIM
     17375**DCL     20391<>CALL
KL$CCHR.CCHR_ARY
     17440**DCL     17441--REDEF   21918--ASSIGN  21922>>IF      21925>>DOWHILE 21930>>ASSIGN  21933>>DOWHILE
     21941>>ASSIGN  21945>>ASSIGN  21946<<ASSIGN  21950>>ASSIGN  22054<<ASSIGN  22118<<ASSIGN  22125>>IF
     22126<<ASSIGN  22126>>ASSIGN
KL$CCHR.CTRFNCTIM
     17373**DCL     20388<>CALL
KL$CCHR.CUB_CHR
     17447**DCL     20263--ASSIGN
KL$CCHR.CUD_CHR
     17450**DCL     20278--ASSIGN
KL$CCHR.CUF_CHR
     17448**DCL     20268--ASSIGN
KL$CCHR.CUP_ALG
     17398**DCL     20213<<ASSIGN
KL$CCHR.CUP_BIS
     17399**DCL     20218<<ASSIGN  20222<<ASSIGN
KL$CCHR.CUP_CHR
     17444**DCL     20248--ASSIGN
KL$CCHR.CUP_CLMFRS
     17403**DCL     20226<<ASSIGN
KL$CCHR.CUP_CMP
     17404**DCL     20229<<ASSIGN
KL$CCHR.CUU_CHR
     17449**DCL     20273--ASSIGN
PL6.E3A0      #001=ASD$PROFILE File=ASD$PROFILE.:E05TSI                          TUE 07/29/97 09:46 Page:577
KL$CCHR.DAQINP_CHR#
     17430**DCL     21016<<ASSIGN  21823<<ASSIGN
KL$CCHR.DAQINTRO_CHR#
     17458**DCL     20834--ASSIGN  21819--ASSIGN
KL$CCHR.DAQPRTGRD_CHR#
     17431**DCL     21020<<ASSIGN  21824<<ASSIGN
KL$CCHR.DAQPRT_CHR#
     17429**DCL     20972<<ASSIGN  21822<<ASSIGN
KL$CCHR.DAQ_ALG#
     17417**DCL     20824<<ASSIGN  20850<<ASSIGN  21868>>IF
KL$CCHR.DCH_CHR
     17442**DCL     20238--ASSIGN
KL$CCHR.DCLFLD_ALG#
     17418**DCL     20846<<ASSIGN
KL$CCHR.DCLFRM_CHR#
     17459**DCL     20856--ASSIGN
KL$CCHR.DFLTPRTMODE#
     17408**DCL     20843<<ASSIGN
KL$CCHR.DLTALLFLDS_CHR#
     17462**DCL     21042--ASSIGN
KL$CCHR.DLTFLD_CHR#
     17468**DCL     21062--ASSIGN
KL$CCHR.DLTLIN_CHR#
     17464**DCL     21052--ASSIGN
KL$CCHR.DVCOTPBFRSIZ
     17395**DCL     20203<<ASSIGN
KL$CCHR.ED0DLTFLD#
     17414**DCL     21407<<ASSIGN
KL$CCHR.ED0_CHR
     17445**DCL     20253--ASSIGN
KL$CCHR.ED2DLTFLD#
     17415**DCL     21410<<ASSIGN
KL$CCHR.ED2_CHR
     17451**DCL     20283--ASSIGN
KL$CCHR.EL0DLTFLD#
     17413**DCL     21404<<ASSIGN
PL6.E3A0      #001=ASD$PROFILE File=ASD$PROFILE.:E05TSI                          TUE 07/29/97 09:46 Page:578
KL$CCHR.EL0_CHR
     17446**DCL     20258--ASSIGN
KL$CCHR.ENDDCLFRM_CHR#
     17460**DCL     20861--ASSIGN
KL$CCHR.ENDMSGLIN_CHR#
     17467**DCL     21394--ASSIGN
KL$CCHR.ERASEFLD_CHR#
     17465**DCL     21057--ASSIGN
KL$CCHR.ERSTIM
     17377**DCL     20394<>CALL
KL$CCHR.EXTSRD_CHR#
     17469**DCL     17470--REDEF   17471--REDEF   17472--REDEF   21111--ASSIGN
KL$CCHR.FRMFED_CHR
     17456**DCL     20344--ASSIGN
KL$CCHR.FRSCLMFLD#
     17409**DCL     21419<<ASSIGN
KL$CCHR.HOM_CHR
     17452**DCL     20288--ASSIGN
KL$CCHR.HPA_ALG
     17397**DCL     20210<<ASSIGN
KL$CCHR.HTS_CHR
     17453**DCL     20293--ASSIGN
KL$CCHR.ICHRQRDCH#
     17405**DCL     21413<<ASSIGN
KL$CCHR.ICH_CHR
     17441**DCL     20233--ASSIGN
KL$CCHR.ILNRQRDLN#
     17406**DCL     21416<<ASSIGN
KL$CCHR.INSLIN_CHR#
     17463**DCL     21047--ASSIGN
KL$CCHR.MSGLIN_CHR#
     17466**DCL     20351--ASSIGN
KL$CCHR.RESTORE_DFLTSCRN_CHR#
     17461**DCL     20866--ASSIGN  21804--ASSIGN
KL$CCHR.RGNSCROLL#
     17412**DCL     21401<<ASSIGN
PL6.E3A0      #001=ASD$PROFILE File=ASD$PROFILE.:E05TSI                          TUE 07/29/97 09:46 Page:579
KL$CCHR.RSTINSMOD_CHR
     17443**DCL     20243--ASSIGN
KL$CCHR.SETFRMLNG_CHR
     17455**DCL     20303--ASSIGN
KL$CCHR.SGRDCRINT_CHR#
     17421**DCL     20879<<ASSIGN  21807<<ASSIGN
KL$CCHR.SGRFSTBLN_CHR#
     17424**DCL     20891<<ASSIGN  21810<<ASSIGN
KL$CCHR.SGRHDN_CHR#
     17419**DCL     20871<<ASSIGN
KL$CCHR.SGRINCDAQ#
     17407**DCL     20840<<ASSIGN  20901>>IF      20928>>IF      20951>>IF      20973>>IF      20998>>IF
     21021>>IF      21799<<ASSIGN  21821<<ASSIGN
KL$CCHR.SGRINCINT_CHR#
     17420**DCL     20875<<ASSIGN  21806<<ASSIGN
KL$CCHR.SGRINP_CHR#
     17427**DCL     20926<<ASSIGN
KL$CCHR.SGRINTRO_CHR#
     17457**DCL     20829--ASSIGN  21797--ASSIGN
KL$CCHR.SGRPRTGRD_CHR#
     17428**DCL     20949<<ASSIGN
KL$CCHR.SGRPRT_CHR#
     17426**DCL     20899<<ASSIGN
KL$CCHR.SGRRVRVID_CHR#
     17425**DCL     20895<<ASSIGN  21811<<ASSIGN
KL$CCHR.SGRSLWBLN_CHR#
     17423**DCL     20887<<ASSIGN  21809<<ASSIGN
KL$CCHR.SGRUNDSCR_CHR#
     17422**DCL     20883<<ASSIGN  21808<<ASSIGN
KL$CCHR.SGR_ALG#
     17416**DCL     20820<<ASSIGN  20848<<ASSIGN  21832>>IF
KL$CCHR.SPCDLTFLD#
     17410**DCL     21398<<ASSIGN
KL$CCHR.TBC3_CHR
     17454**DCL     20298--ASSIGN
KL$CCHR.TMNALG_AFTCR
PL6.E3A0      #001=ASD$PROFILE File=ASD$PROFILE.:E05TSI                          TUE 07/29/97 09:46 Page:580
     17364**DCL     20357<<ASSIGN
KL$CCHR.TMNALG_AFTCUP
     17369**DCL     20377<<ASSIGN
KL$CCHR.TMNALG_AFTHPA
     17370**DCL     20381<<ASSIGN
KL$CCHR.TMNALG_AFTHT
     17368**DCL     20373<<ASSIGN
KL$CCHR.TMNALG_AFTLF
     17366**DCL     20365<<ASSIGN
KL$CCHR.TMNALG_BFRCR
     17365**DCL     20361<<ASSIGN
KL$CCHR.TMNALG_BFRLF
     17367**DCL     20369<<ASSIGN
KL$CCHR.TMNALG_FILCHR
     17371**DCL     20385<<ASSIGN
KL$CCHR.TMNALG_PRM1
     17379**DCL     20397<>CALL
KL$CCHR.TMNALG_PRM2
     17381**DCL     20400<>CALL
KL$CCHR.TMNALG_PRM3
     17383**DCL     20403<>CALL
KL$CCHR.TMNALG_PRM4
     17385**DCL     20406<>CALL
KL$CCHR.TMNALG_PRM5
     17387**DCL     20409<>CALL
KL$CCHR.TMNALG_PRM6
     17389**DCL     20412<>CALL
KL$CCHR.TMNALG_PRM7
     17391**DCL     20415<>CALL
KL$CCHR.TMNALG_PRM8
     17393**DCL     20418<>CALL
KL$CCHR.TXT_CHR
     17470**DCL     21920--ASSIGN  22132--ASSIGN
KL$CCHR.TXT_CHRA
     17471**DCL     22138<<ASSIGN  22138>>ASSIGN  22144<<ASSIGN  22144>>ASSIGN
KL$CCHR.TXT_UBIN
PL6.E3A0      #001=ASD$PROFILE File=ASD$PROFILE.:E05TSI                          TUE 07/29/97 09:46 Page:581
     17472**DCL     21942>>ASSIGN  21951>>IF      21954<<ASSIGN  21960>>ASSIGN  22141>>ASSIGN  22149<<ASSIGN
     22152<<ASSIGN  22158<<ASSIGN  22158>>ASSIGN  22165<<ASSIGN  22165>>ASSIGN  22178<<ASSIGN  22178>>ASSIGN
KL$FUNKEY.FCNKEY
     18125**DCL     18130--REDEF   18133--REDEF   18134--REDEF   18135--REDEF   22487--DCLINIT 22805--ASSIGN
KL$FUNKEY.FCNKEY.FCN_BYTE0
     18126**DCL     22761--ASSIGN  22918<<ASSIGN  22944>>ASSIGN  22947>>IF      23045>>DOSELCT 23191>>DOCASE
KL$FUNKEY.FCNKEY.FCN_BYTE1
     18127**DCL     22920<<ASSIGN  23044>>IF      23188>>IF
KL$FUNKEY.FCNKEY.FCN_BYTE2
     18128**DCL     22922<<ASSIGN  23093>>ASSIGN  23097<<ASSIGN  23102<<ASSIGN  23188>>IF
KL$FUNKEY.FCNKEY.FCN_BYTE3
     18129**DCL     22738>>IF      22924<<ASSIGN
KL$FUNKEY.INTRO1
     18093**DCL     18096--REDEF
KL$FUNKEY.INTRO1.CHR1
     18094**DCL     22854>>IF      22868>>IF      22871<<ASSIGN  23047>>IF      23194>>IF
KL$FUNKEY.INTRO1.CHR2
     18095**DCL     22854>>IF      22872<<ASSIGN  23047>>IF      23194>>IF
KL$FUNKEY.INTRO1_CHRS
     18096**DCL     22940<<ASSIGN  22959<<ASSIGN
KL$FUNKEY.INTRO2
     18097**DCL     18100--REDEF
KL$FUNKEY.INTRO2.CHR1
     18098**DCL     22861>>IF      22876>>IF      22879<<ASSIGN  23057>>IF      23202>>IF
KL$FUNKEY.INTRO2.CHR2
     18099**DCL     22861>>IF      22880<<ASSIGN  23057>>IF      23202>>IF
KL$FUNKEY.INTRO2_CHRS
     18100**DCL     22941<<ASSIGN  22963<<ASSIGN
KL$FUNKEY.NUM_DEFS
     18124**DCL     22557>>IF      22561>>DOINDEX 22565<<ASSIGN  22567<<ASSIGN  22579>>IF      22580<<ASSIGN
     22636>>IF      22637<<ASSIGN  22711>>CALL    22732>>IF      22737>>DOINDEX 22767<<ASSIGN  22767>>ASSIGN
     22805>>ASSIGN  22812<<ASSIGN  22812>>ASSIGN  22937>>IF      22946>>DOINDEX 23043>>DOINDEX 23186>>IF
     23187>>DOINDEX
KL$LINK.CHARGE#
     17753**DCL     20555<<ASSIGN
KL$LINK.CLS#
PL6.E3A0      #001=ASD$PROFILE File=ASD$PROFILE.:E05TSI                          TUE 07/29/97 09:46 Page:582
     17718**DCL     20510<<ASSIGN
KL$LINK.EXTSEQ#
     17766**DCL     20500>>IF      20519>>IF      20534>>IF      20624<<ASSIGN
KL$LINK.FRMSIZ#
     17729**DCL     20507<<ASSIGN
KL$LINK.FSA#
     17746**DCL     20581<<ASSIGN
KL$LINK.IDLTIM#
     17790**DCL     20587<<ASSIGN
KL$LINK.MAXWND#
     17770**DCL     20523<<ASSIGN  20649>>IF      20650<<ASSIGN
KL$LINK.RESRTY#
     17789**DCL     20609<<ASSIGN
KL$LINK.RESTIM#
     17788**DCL     20614<<ASSIGN
KL$LINK.RSPDLY#
     17758**DCL     20538<<ASSIGN  20672>>IF      20673<<ASSIGN
KL$LINK.RTR#
     17775**DCL     20496<<ASSIGN
KL$LINK.RVR#
     17742**DCL     20515<<ASSIGN
KL$LINK.TMT#
     17779**DCL     20492<<ASSIGN
KL$LINK.WND#
     17784**DCL     20504<<ASSIGN  20626>>IF      20627<<ASSIGN
KL$SETUP_CHR.CHRS.NUM
     18152**DCL     23259--ASSIGN  23276<<ASSIGN  23293--ASSIGN  23301<<ASSIGN  23344<<ASSIGN  23350<<ASSIGN
KL$SETUP_CHR.SIZE
     18150**DCL     18151--REDEF   23257>>IF      23260>>ASSIGN  23265<<ASSIGN  23268<<ASSIGN  23273>>IF
     23280>>IF      23283>>ASSIGN  23283>>ASSIGN  23290>>IF      23294>>ASSIGN  23294>>ASSIGN  23314>>IF
     23338>>ASSIGN  23338>>ASSIGN  23340>>ASSIGN  23344>>ASSIGN  23346<<ASSIGN  23346>>ASSIGN  23349>>IF
     23350>>ASSIGN
KL$TRMD.BLKBYTES#
     17521**DCL     20431<<ASSIGN
KL$TRMD.BLKRECS#
     17516**DCL     20426<<ASSIGN
PL6.E3A0      #001=ASD$PROFILE File=ASD$PROFILE.:E05TSI                          TUE 07/29/97 09:46 Page:583
KL$TRMD.COMPRESS#
     17556**DCL     20451<<ASSIGN  20453<<ASSIGN  20455<<ASSIGN  20457<<ASSIGN
KL$TRMD.DELAYS#
     17530**DCL     20439<<ASSIGN
KL$TRMD.EMCHR#
     17567**DCL     20466<<ASSIGN
KL$TRMD.ERRDUPBLK#
     17594**DCL     20476<<ASSIGN
KL$TRMD.INTERVAL#
     17551**DCL     20462<<ASSIGN
KL$TRMD.IRSCHR#
     17574**DCL     20470<<ASSIGN
KL$TRMD.LSTRECCTN#
     17584**DCL     20473<<ASSIGN
KL$TRMD.MULSTRM#
     17538**DCL     20446<<ASSIGN
KL$TRMD.PADSIGNON#
     17637**DCL     20488<<ASSIGN
KL$TRMD.PROTYP#
     17503**DCL     20422<<ASSIGN
KL$TRMD.RETRYS#
     17526**DCL     20435<<ASSIGN
KL$TRMD.RRR#
     17603**DCL     20479<<ASSIGN
KL$TRMD.SLC#
     17622**DCL     20482<<ASSIGN
KL$TRMD.SLCALLBLK#
     17630**DCL     20485<<ASSIGN
KL$UBWORD.NUM
     18979**DCL     18980--REDEF   20198>>ASSIGN  20203>>ASSIGN  20431>>ASSIGN
KL$UBWORD.REPLACE
     18980**DCL     20197<<ASSIGN  20202<<ASSIGN  20430<<ASSIGN
KL$VIRCIR.CDLY#
     17864**DCL     20443<<ASSIGN
KL$VIRCIR.CHARGE#
     17979**DCL     20557<<ASSIGN
PL6.E3A0      #001=ASD$PROFILE File=ASD$PROFILE.:E05TSI                          TUE 07/29/97 09:46 Page:584
KL$VIRCIR.CLRRET#
     17839**DCL     20562<<ASSIGN
KL$VIRCIR.CLRTIM#
     17834**DCL     20567<<ASSIGN
KL$VIRCIR.CRTR#
     17869**DCL     20545<<ASSIGN
KL$VIRCIR.CTMT#
     17874**DCL     20550<<ASSIGN
KL$VIRCIR.DATRET#
     17849**DCL     20572<<ASSIGN
KL$VIRCIR.DATTIM#
     17844**DCL     20577<<ASSIGN
KL$VIRCIR.EXTSEQ#
     17932**DCL     20527>>IF      20698<<ASSIGN  20779>>IF      20796>>IF
KL$VIRCIR.IDLTIM#
     17859**DCL     20589<<ASSIGN
KL$VIRCIR.INTTIM#
     17854**DCL     20594<<ASSIGN
KL$VIRCIR.RCVSIZ#
     17887**DCL     20772<<ASSIGN
KL$VIRCIR.RCVTHR#
     17900**DCL     20775<<ASSIGN
KL$VIRCIR.RCVWND#
     17925**DCL     20700>>IF      20701<<ASSIGN  20783<<ASSIGN
KL$VIRCIR.RESRET#
     17829**DCL     20599<<ASSIGN
KL$VIRCIR.RESTIM#
     17824**DCL     20604<<ASSIGN
KL$VIRCIR.RSPDLY#
     17936**DCL     20531<<ASSIGN  20746>>IF      20747<<ASSIGN
KL$VIRCIR.RSPTMR#
     17879**DCL     20804<<ASSIGN
KL$VIRCIR.RSPTOCMP#
     17921**DCL     20786<<ASSIGN
KL$VIRCIR.RVR#
     17991**DCL     20514<<ASSIGN
PL6.E3A0      #001=ASD$PROFILE File=ASD$PROFILE.:E05TSI                          TUE 07/29/97 09:46 Page:585
KL$VIRCIR.SNDSIZ#
     17963**DCL     20789<<ASSIGN
KL$VIRCIR.SNDTHR#
     17944**DCL     20792<<ASSIGN
KL$VIRCIR.SNDWND#
     17984**DCL     20723>>IF      20724<<ASSIGN  20800<<ASSIGN
KL$VIRCIR.TRADEL
     17812**DCL     20619<<ASSIGN
KL_ABSGRPRND$
     16998**DCL     18044--IMP-PTR 21082<<ASSIGN  21083>>ASSIGN  21089>>ASSIGN  21091>>ASSIGN  21093>>ASSIGN
     21095>>ASSIGN  21097>>ASSIGN  21099>>ASSIGN  21101>>ASSIGN
KL_CCHR
     17020**DCL     21970--IF      21971--ASSIGN
KL_CCHR.CCHR_ARY
     17103**DCL     17104--REDEF
KL_CCHR.EXTSRD_CHR#
     17132**DCL     17133--REDEF   17134--REDEF   17135--REDEF
KL_DEFAULT.PASSWORD
     16398**DCL     16402--REDEF
KL_DEFAULT.RENAME
     16421**DCL     16422--REDEF
KL_DFLT.PASSWORD
     15588**DCL     15592--REDEF
KL_DFLT.RENAME
     15611**DCL     15612--REDEF
KL_DREC.PASSWORD
     15426**DCL     15430--REDEF
KL_DREC.RENAME
     15449**DCL     15450--REDEF
KL_DREC_CNT.PASSWORD
     15313**DCL     15317--REDEF
KL_DREC_CNT.RENAME
     15336**DCL     15337--REDEF
L
     19006**DCL     21713<<DOINDEX 21715>>ASSIGN  22361<<DOINDEX 22362>>IF      22364>>IF      22370>>DOINDEX
     22381>>IF      22446<<DOINDEX 22447>>IF      22449>>ASSIGN  22452>>IF      22454>>DOINDEX 22460>>ASSIGN
PL6.E3A0      #001=ASD$PROFILE File=ASD$PROFILE.:E05TSI                          TUE 07/29/97 09:46 Page:586
     22461>>ASSIGN
LINK$
     16994**DCL     19482<<ASSIGN  19578<<ASSIGN  20492>>ASSIGN  20496>>ASSIGN  20500>>IF      20504>>ASSIGN
     20507>>ASSIGN  20510>>ASSIGN  20515>>ASSIGN  20519>>IF      20523>>ASSIGN  20534>>IF      20538>>ASSIGN
     20555>>ASSIGN  20581>>ASSIGN  20587>>ASSIGN  20609>>ASSIGN  20614>>ASSIGN  20624>>ASSIGN  20626>>IF
     20627>>ASSIGN  20649>>IF      20650>>ASSIGN  20672>>IF      20673>>ASSIGN  23390>>IF      23390<<ASSIGN
     23390>>ASSIGN
MAX_VAL IN PROCEDURE GET_DEC_VAL
     21488**DCL     21486--PROC    21494>>IF      21516<>CALL
MAYBE_REMOVE_INTRO IN PROCEDURE DO_FUNKEY_DEFS
     22928**PROC    22562--CALL    22566--CALL    22578--CALL    22626--CALL
MIN_VAL IN PROCEDURE GET_DEC_VAL
     21489**DCL     21486--PROC    21547--IF      21549>>IF      21574<>CALL
MN IN PROCEDURE GRA_OPT_PROC
     22195**DCL     22193--PROC    22252>>IF      22274<>CALL
MODIFIED_FLG IN PROCEDURE FIGURE_BYTE2
     22977**DCL     22980<<ASSIGN  23003<<ASSIGN  23050<>CALL    23060<>CALL
MODIFIER IN PROCEDURE FIGURE_BYTE2
     22976**DCL     23004<<CALLBLT 23007>>ASSIGN  23011>>ASSIGN
MODIFIER_SPECIFIED IN PROCEDURE CHECK_MODIFIERS
     23080**DCL     23079--PROC    23095>>IF
MOD_VALU IN PROCEDURE CHECK_MODIFIERS
     23091**DCL     23093<<ASSIGN  23096>>IF      23101>>IF      23108>>IF      23108>>IF      23110>>IF
     23115>>IF      23116>>IF
MORE
     16926**DCL     19721<<ASSIGN  19725>>DOWHILE
MORE IN PROCEDURE DO_FUNKEY_DEFS
     22492**DCL     22499<<ASSIGN  22503>>DOWHILE 22554<<ASSIGN
MORE IN PROCEDURE PLACE_OPT
     21909**DCL     21947<<ASSIGN  21960<<ASSIGN  21962<<ASSIGN  21962>>ASSIGN  21965>>ASSIGN  21967>>ASSIGN
     21969>>IF      22062>>ASSIGN  22126>>ASSIGN  22135>>IF      22137>>ASSIGN  22143>>ASSIGN  22187>>ASSIGN
     22188>>ASSIGN
MOVE_SIZE IN PROCEDURE OPEN_SPACE
     23429**DCL     23446<<ASSIGN  23448>>DOINDEX
MX IN PROCEDURE GRA_OPT_PROC
     22196**DCL     22193--PROC    22199>>IF      22221<>CALL
PL6.E3A0      #001=ASD$PROFILE File=ASD$PROFILE.:E05TSI                          TUE 07/29/97 09:46 Page:587
NEXT_PRO_OPT
     21466**LABEL   19785--GOTO    19897--CALLALT 19909--CALLALT 19925--CALLALT 20043--CALLALT 20115--CALLALT
     20138--CALLALT 20147--CALLALT 20156--CALLALT 20165--CALLALT 20187--GOTO    20196--CALLALT 20201--CALLALT
     20217--CALLALT 20221--CALLALT 20232--CALLALT 20234--CALLALT 20237--CALLALT 20239--CALLALT 20242--CALLALT
     20244--CALLALT 20247--CALLALT 20249--CALLALT 20252--CALLALT 20254--CALLALT 20257--CALLALT 20259--CALLALT
     20262--CALLALT 20264--CALLALT 20267--CALLALT 20269--CALLALT 20272--CALLALT 20274--CALLALT 20277--CALLALT
     20279--CALLALT 20282--CALLALT 20284--CALLALT 20287--CALLALT 20289--CALLALT 20292--CALLALT 20294--CALLALT
     20297--CALLALT 20299--CALLALT 20302--CALLALT 20304--CALLALT 20343--CALLALT 20345--CALLALT 20350--CALLALT
     20352--CALLALT 20356--CALLALT 20360--CALLALT 20364--CALLALT 20368--CALLALT 20372--CALLALT 20376--CALLALT
     20380--CALLALT 20384--CALLALT 20388--CALLALT 20391--CALLALT 20394--CALLALT 20397--CALLALT 20400--CALLALT
     20403--CALLALT 20406--CALLALT 20409--CALLALT 20412--CALLALT 20415--CALLALT 20418--CALLALT 20425--CALLALT
     20429--CALLALT 20434--CALLALT 20438--CALLALT 20442--CALLALT 20461--CALLALT 20465--CALLALT 20469--CALLALT
     20491--CALLALT 20495--CALLALT 20501--CALLALT 20503--CALLALT 20520--CALLALT 20522--CALLALT 20528--CALLALT
     20530--CALLALT 20535--CALLALT 20537--CALLALT 20544--CALLALT 20549--CALLALT 20561--CALLALT 20566--CALLALT
     20571--CALLALT 20576--CALLALT 20585--CALLALT 20593--CALLALT 20598--CALLALT 20603--CALLALT 20608--CALLALT
     20613--CALLALT 20618--CALLALT 20780--CALLALT 20782--CALLALT 20797--CALLALT 20799--CALLALT 20803--CALLALT
     20812--CALLALT 20828--CALLALT 20830--CALLALT 20833--CALLALT 20835--CALLALT 20838--CALLALT 20839--CALLALT
     20855--CALLALT 20857--CALLALT 20860--CALLALT 20862--CALLALT 20865--CALLALT 20867--CALLALT 20870--CALLALT
     20874--CALLALT 20878--CALLALT 20882--CALLALT 20886--CALLALT 20890--CALLALT 20894--CALLALT 20898--CALLALT
     20925--CALLALT 20948--CALLALT 20971--CALLALT 20997--CALLALT 21019--CALLALT 21041--CALLALT 21043--CALLALT
     21046--CALLALT 21048--CALLALT 21051--CALLALT 21053--CALLALT 21056--CALLALT 21058--CALLALT 21061--CALLALT
     21063--CALLALT 21110--CALLALT 21112--CALLALT 21140--CALLALT 21144--CALLALT 21148--CALLALT 21152--CALLALT
     21156--CALLALT 21160--CALLALT 21164--CALLALT 21168--CALLALT 21172--CALLALT 21176--CALLALT 21180--CALLALT
     21184--CALLALT 21188--CALLALT 21192--CALLALT 21196--CALLALT 21200--CALLALT 21204--CALLALT 21208--CALLALT
     21212--CALLALT 21216--CALLALT 21220--CALLALT 21224--CALLALT 21228--CALLALT 21247--CALLALT 21254--CALLALT
     21258--CALLALT 21262--CALLALT 21266--CALLALT 21270--CALLALT 21274--CALLALT 21278--CALLALT 21282--CALLALT
     21286--CALLALT 21290--CALLALT 21294--CALLALT 21298--CALLALT 21302--CALLALT 21306--CALLALT 21310--CALLALT
     21314--CALLALT 21318--CALLALT 21322--CALLALT 21326--CALLALT 21330--CALLALT 21334--CALLALT 21338--CALLALT
     21342--CALLALT 21346--CALLALT 21350--CALLALT 21354--CALLALT 21358--CALLALT 21362--CALLALT 21366--CALLALT
     21370--CALLALT 21374--CALLALT 21378--CALLALT 21382--CALLALT 21386--CALLALT 21390--CALLALT 21393--CALLALT
     21395--CALLALT 21438--CALLALT 21447--CALLALT 21452--CALLALT 21456--CALLALT 21466--CALLALT
NODE$
     13780**DCL     18414--IMP-PTR 19074<<ASSIGN  19077>>IF      19084>>ASSIGN  19228>>ASSIGN  19232>>ASSIGN
     19237>>ASSIGN  19734<<ASSIGN  19735>>ASSIGN  19738>>ASSIGN  22513<<ASSIGN  22514>>ASSIGN  22518>>ASSIGN
     22521>>ASSIGN  22539>>ASSIGN  22559>>IF      22982>>IF      22986>>IF      22986>>IF      23000>>ASSIGN
     23041>>ASSIGN  23137>>ASSIGN  23155>>ASSIGN  23160>>IF      23162>>ASSIGN
PL6.E3A0      #001=ASD$PROFILE File=ASD$PROFILE.:E05TSI                          TUE 07/29/97 09:46 Page:588
NUM IN PROCEDURE PLACE_OPT
     21904**DCL     21919<<ASSIGN  21922>>IF      21924>>ASSIGN  21932>>ASSIGN  21945>>ASSIGN  21946>>ASSIGN
     21950>>ASSIGN  22054>>ASSIGN  22118>>ASSIGN  22123>>ASSIGN
NUM# IN PROCEDURE PLACE_OPT
     21905**DCL     21924<<ASSIGN  21925>>DOWHILE 21925>>DOWHILE 21927<<ASSIGN  21927>>ASSIGN  21929>>IF
     21930>>ASSIGN  21932<<ASSIGN  21933>>DOWHILE 21933>>DOWHILE 21935<<ASSIGN  21935>>ASSIGN  21937>>IF
     21941>>ASSIGN  22123<<ASSIGN  22124>>DOWHILE 22125>>IF      22126>>ASSIGN  22126>>ASSIGN  22127<<ASSIGN
     22127>>ASSIGN  22133<<ASSIGN  22136>>DOINDEX 22142>>DOINDEX
NUM_CHARS IN PROCEDURE ADD_ANOTHER_FUNKEY
     22802**DCL     22806<<ASSIGN  22810<>CALL    22823<<ASSIGN  22825<>CALL
NUM_CHARS IN PROCEDURE DO_SETUP_CHR
     23243**DCL     23260<<ASSIGN  23263<>CALL    23283<<ASSIGN  23286<>CALL    23294<<ASSIGN  23297<>CALL
     23339<<ASSIGN  23340<<ASSIGN  23340>>ASSIGN  23341<<ASSIGN  23341>>ASSIGN  23341>>ASSIGN  23342<>CALL
NUM_CHARS IN PROCEDURE REMOVE_THIS_FUNKEY
     22758**DCL     22762<<ASSIGN  22765<>CALL    22782<<ASSIGN  22784<>CALL
NUM_CHARS IN PROCEDURE SHRINK
     23363**DCL     23367<<ASSIGN  23372<<ASSIGN  23376<<ASSIGN  23376>>ASSIGN  23376>>ASSIGN  23379>>ASSIGN
     23381>>ASSIGN  23382>>ASSIGN  23383>>ASSIGN  23384>>ASSIGN  23385>>ASSIGN  23386>>ASSIGN  23387>>ASSIGN
     23388>>ASSIGN  23389>>ASSIGN  23390>>ASSIGN  23391>>ASSIGN  23392>>ASSIGN  23393>>ASSIGN  23394>>ASSIGN
     23398>>ASSIGN
NUM_FOUND IN PROCEDURE GET_HEX_VAL
     21617**DCL     21623<<ASSIGN  21701<<ASSIGN  21707<<ASSIGN  21707>>ASSIGN  21708>>ASSIGN  21714<<ASSIGN
     21714>>ASSIGN  21715>>ASSIGN  21722>>ASSIGN
NUM_HEX IN PROCEDURE GET_HEX_VAL
     21616**DCL     21614--PROC    21632>>IF      21646<>CALL    21685>>IF
NUM_HEXS IN PROCEDURE GET_DAQ_OPT
     21866**DCL     21864--PROC    21890--IF      21891<>CALL
NUM_HEXS IN PROCEDURE GET_SGR_OPT
     21830**DCL     21828--PROC    21856--IF      21857<>CALL
NUM_NODES IN PROCEDURE DO_FUNKEY_DEFS
     22493**DCL     22514<<ASSIGN  22516>>IF      22851>>IF      22999>>DOINDEX 23041>>ASSIGN  23137>>ASSIGN
     23148>>IF      23158>>IF
OP
     19007**DCL     21231<<ASSIGN  21235<<ASSIGN  21237<<ASSIGN  21238>>IF      21238>>IF      21238>>IF
     22335>>IF      22370<<DOINDEX 22371>>ASSIGN  22371>>ASSIGN  22373>>ASSIGN  22373>>ASSIGN  22432>>ASSIGN
     22440>>ASSIGN  22449>>ASSIGN  22461>>ASSIGN
PL6.E3A0      #001=ASD$PROFILE File=ASD$PROFILE.:E05TSI                          TUE 07/29/97 09:46 Page:589
OPEN_SPACE
     23423**PROC    23411--CALL
OPTION
     19034**DCL     19768>>ASSIGN  20906>>ASSIGN  20929>>ASSIGN  20952>>ASSIGN  20978>>ASSIGN  20999>>ASSIGN
     21022>>ASSIGN  21499>>ASSIGN  21557>>ASSIGN  21637>>ASSIGN  21767>>ASSIGN  21837>>ASSIGN  21872>>ASSIGN
     22204>>ASSIGN  22257>>ASSIGN
OPTION.COUNT
     19035**DCL     19763<<ASSIGN
OPTION.TEXT
     19036**DCL     19761<<ASSIGN  19762>>CALLBLT
OPTS_ERR
     21480**LABEL   19732--CALLALT
OP_CODE
     19022**DCL     19790<<ASSIGN  19796<<ASSIGN  19797>>IF      19797>>IF      19799>>IF      19893>>IF
     19902>>IF      19921>>IF      19988>>DOCASE  19995>>ASSIGN  20039>>IF      20048>>ASSIGN  20080>>IF
     20108>>IF      20134>>IF      20143>>IF      20152>>IF      20207>>ASSIGN  20210>>ASSIGN  20213>>ASSIGN
     20216>>IF      20309>>IF      20318>>IF      20318>>IF      20422>>ASSIGN  20449>>DOCASE  20507>>ASSIGN
     20510>>ASSIGN  20514>>ASSIGN  20772>>ASSIGN  20775>>ASSIGN  20789>>ASSIGN  20792>>ASSIGN  20808>>IF
     20820>>ASSIGN  20821>>IF      20824>>ASSIGN  20825>>IF      20846>>ASSIGN  20847>>IF      21084>>IF
     21252>>DOCASE  21434>>IF      21443>>IF      21462>>IF
OUT$SYM
     18461**DCL     21687<>CALL    21706<>CALL    22522<>CALL    23138<>CALL    23156<>CALL    23163<>CALL
OUT$SYM.CODE
     18467**DCL     22519>>IF      22524>>IF      22529>>IF      22534>>ASSIGN  23001>>IF      23160>>IF
OUT$SYM.COUNT
     18484**DCL     18487--IMP-SIZ 19085>>ASSIGN  19110>>CALLBLT 19110>>CALLBLT 19111>>IF      19111>>IF
     19111>>IF      19114>>ASSIGN  19309>>ASSIGN  19330>>CALLBLT 19330>>CALLBLT 19331>>IF      19331>>IF
     19331>>IF      19334>>ASSIGN  20051>>IF      20073>>ASSIGN  20083>>IF      20105>>ASSIGN  21115>>IF
     21137>>ASSIGN  21229>>IF      21233>>IF      21493>>CALLBLT 21687>>CALL    21706>>CALL    21713>>DOINDEX
     21715>>ASSIGN  21731>>ASSIGN  21732>>ASSIGN  22198>>CALLBLT 22522>>CALL    22526>>ASSIGN  23004>>CALLBLT
     23138>>CALL    23156>>CALL    23163>>CALL
OUT$SYM.TEXT
     18487**DCL     19110>>CALLBLT 19111>>IF      19114>>ASSIGN  19330>>CALLBLT 19331>>IF      19334>>ASSIGN
     20073>>ASSIGN  20105>>ASSIGN  21137>>ASSIGN  21229>>IF      21233>>IF      21493>>CALLBLT 21715>>ASSIGN
     21732>>ASSIGN  22198>>CALLBLT 22526>>ASSIGN  23004>>CALLBLT
P$
PL6.E3A0      #001=ASD$PROFILE File=ASD$PROFILE.:E05TSI                          TUE 07/29/97 09:46 Page:590
     19026**DCL     18974--IMP-PTR
P$NODE.CODE
     18422**DCL     19077>>IF      19232>>ASSIGN  19739>>ASSIGN  19796>>ASSIGN  21087>>DOCASE  21625>>IF
     21627>>IF      21628>>ASSIGN  21703>>IF      21710>>IF      22539>>ASSIGN  22559>>IF      22982>>IF
     22986>>IF      22986>>IF      23247>>ASSIGN
P$NODE.SUBLK$
     18447**DCL     19084>>ASSIGN  19084>>ASSIGN  19232>>ASSIGN  19237>>ASSIGN  19237>>ASSIGN  19738>>ASSIGN
     19795>>ASSIGN  20164>>ASSIGN  21085>>ASSIGN  21087>>DOCASE  21229>>IF      21229>>IF      21233>>IF
     21233>>IF      21251>>ASSIGN  21251>>ASSIGN  21625>>IF      21627>>IF      21628>>ASSIGN  21686>>ASSIGN
     21686>>ASSIGN  21703>>IF      21705>>ASSIGN  21705>>ASSIGN  21710>>IF      21712>>ASSIGN  22513>>ASSIGN
     22518>>ASSIGN  22521>>ASSIGN  22521>>ASSIGN  22521>>ASSIGN  22559>>IF      22982>>IF      22986>>IF
     22986>>IF      23000>>ASSIGN  23041>>ASSIGN  23041>>ASSIGN  23041>>ASSIGN  23137>>ASSIGN  23137>>ASSIGN
     23137>>ASSIGN  23155>>ASSIGN  23155>>ASSIGN  23155>>ASSIGN  23160>>IF      23162>>ASSIGN  23162>>ASSIGN
     23162>>ASSIGN  23247>>ASSIGN
P$NODE.SUBNODES
     18426**DCL     19228>>ASSIGN  19735>>ASSIGN  19789>>IF      20162>>DOINDEX 21086>>DOINDEX 21624>>IF
     21630>>ASSIGN  22512>>DOINDEX 22514>>ASSIGN  23246>>IF
PHDR$
     16984**DCL     19469<<ASSIGN  19490>>IF      19585>>IF      19586>>ASSIGN  19600>>ASSIGN  19601>>IF
     19632>>ASSIGN  19633>>ASSIGN  19634>>ASSIGN  19635>>ASSIGN  19636>>ASSIGN  19637>>ASSIGN  19638>>ASSIGN
     19640>>ASSIGN  19642>>ASSIGN  19644>>ASSIGN  19646>>ASSIGN  19650>>ASSIGN  19652>>ASSIGN  19655>>ASSIGN
     19664>>IF      20025>>ASSIGN  20029>>ASSIGN  21137>>ASSIGN  22305>>IF      22306>>ASSIGN  22308>>IF
PINC_INC IN PROCEDURE OPEN_SPACE
     23431**DCL     23436<<ASSIGN  23443<<ASSIGN  23450>>ASSIGN  23451>>ASSIGN
PLACE_OPT
     21899**PROC    20234--CALL    20239--CALL    20244--CALL    20249--CALL    20254--CALL    20259--CALL
     20264--CALL    20269--CALL    20274--CALL    20279--CALL    20284--CALL    20289--CALL    20294--CALL
     20299--CALL    20304--CALL    20345--CALL    20352--CALL    20830--CALL    20835--CALL    20857--CALL
     20862--CALL    20867--CALL    21043--CALL    21048--CALL    21053--CALL    21058--CALL    21063--CALL
     21112--CALL    21395--CALL    21798--CALL    21805--CALL    21820--CALL
PLTN$
     16987**DCL     19476<<ASSIGN  19560<<ASSIGN  19628>>IF      19632>>ASSIGN  19633>>ASSIGN  20110>>ASSIGN
     20111>>ASSIGN  20118>>ASSIGN  20119>>ASSIGN  20125>>ASSIGN  20128>>ASSIGN  20129>>ASSIGN  20135>>ASSIGN
     20139>>ASSIGN  20144>>ASSIGN  20148>>ASSIGN  20153>>ASSIGN  20157>>ASSIGN  23384>>IF      23384<<ASSIGN
     23384>>ASSIGN
PLUS IN PROCEDURE DO_SETUP_CHR
PL6.E3A0      #001=ASD$PROFILE File=ASD$PROFILE.:E05TSI                          TUE 07/29/97 09:46 Page:591
     23244**DCL     23247<<ASSIGN  23272>>IF
PLUS IN PROCEDURE GET_HEX_VAL
     21618**DCL     21628<<ASSIGN  21631>>IF      21693>>IF
PNM$
     16993**DCL     19473<<ASSIGN  19551<<ASSIGN  19658>>ASSIGN  19659>>ASSIGN  19659>>ASSIGN  19660>>ASSIGN
     19661>>ASSIGN  19661>>ASSIGN  23381>>IF      23381<<ASSIGN  23381>>ASSIGN
POS IN PROCEDURE MAYBE_REMOVE_INTRO
     22929**DCL     22928--PROC    22937>>IF      22944>>ASSIGN  22947>>IF
POS IN PROCEDURE PUT_IN_FUNKEY
     22912**DCL     22911--PROC    22918>>ASSIGN  22920>>ASSIGN  22922>>ASSIGN  22924>>ASSIGN
POS IN PROCEDURE REMOVE_THIS_FUNKEY
     22756**DCL     22747--PROC    22761>>ASSIGN
POSITION IN PROCEDURE DO_FUNKEY_DEFS
     22494**DCL     22578<>CALL    22582<>CALL    22626<>CALL    22635<>CALL    22740<<ASSIGN  23197<<ASSIGN
     23205<<ASSIGN  23212<<ASSIGN  23221<<ASSIGN
PP$
     18993**DCL     18957--IMP-PTR 18960--IMP-PTR 19468<<ASSIGN  19469>>ASSIGN  19470>>ASSIGN  19471<<ASSIGN
     19471>>ASSIGN  19528>>DOWHILE 19529>>IF      19530>>ASSIGN  19531>>ASSIGN  19531>>ASSIGN  19534>>ASSIGN
     19535>>ASSIGN  19539>>ASSIGN  19541>>ASSIGN  19543>>IF      19544<<ASSIGN  19544>>ASSIGN  19546<<ASSIGN
     19546>>ASSIGN  19551>>ASSIGN  19554>>ASSIGN  19557>>ASSIGN  19560>>ASSIGN  19563>>ASSIGN  19566>>ASSIGN
     19569>>ASSIGN  19572>>ASSIGN  19575>>ASSIGN  19578>>ASSIGN  19581>>ASSIGN  19584>>ASSIGN  19589>>ASSIGN
     19589>>ASSIGN  19595<<ASSIGN  19595>>ASSIGN
PP$BIG_STRCT.BIG
     18961**DCL     22160<<ASSIGN  22828<<ASSIGN
PP$BIG_STRCT.SIZE.B
     18967**DCL     19531>>ASSIGN  21965>>ASSIGN  22171<<ASSIGN  22770>>ASSIGN  22777<<ASSIGN  22815>>ASSIGN
     22831<<ASSIGN
PP$BIG_STRCT.SIZE.T
     18965**DCL     19531>>ASSIGN  21965>>ASSIGN  22170<<ASSIGN  22770>>ASSIGN  22776<<ASSIGN  22815>>ASSIGN
     22830<<ASSIGN
PP$BIG_STRCT.TYPE
     18962**DCL     19530>>ASSIGN  22161<<ASSIGN  22827<<ASSIGN
PP$STRCT.SIZE
     18959**DCL     19535>>ASSIGN  21967>>ASSIGN  22185<<ASSIGN  22645>>IF      22772>>ASSIGN  22788<<ASSIGN
     22817>>ASSIGN  22835<<ASSIGN
PP$STRCT.TYPE
PL6.E3A0      #001=ASD$PROFILE File=ASD$PROFILE.:E05TSI                          TUE 07/29/97 09:46 Page:592
     18958**DCL     19529>>IF      19534>>ASSIGN  19543>>IF      21964>>IF      22057>>IF      22155>>IF
     22174>>IF      22181<<ASSIGN  22644>>IF      22769>>IF      22780>>IF      22786<<ASSIGN  22814>>IF
     22820>>IF
PP_END$
     18997**DCL     19470<<ASSIGN  19528>>DOWHILE 22133>>ASSIGN  22168<<ASSIGN  22168>>ASSIGN  22183<<ASSIGN
     22183>>ASSIGN  22188<<ASSIGN  22188>>ASSIGN  23379<<ASSIGN  23379>>ASSIGN  23434>>ASSIGN  23446>>ASSIGN
PP_SIZE
     19000**DCL     19531<<ASSIGN  19535<<ASSIGN  19594>>ASSIGN  19594>>ASSIGN
PP_TYPE
     19001**DCL     19530<<ASSIGN  19534<<ASSIGN  19538>>IF      19540>>IF      19548>>DOCASE
PRO$HDR.ATTR.APL
     18518**DCL     19635<<ASSIGN
PRO$HDR.ATTR.BIN
     18519**DCL     19636<<ASSIGN
PRO$HDR.ATTR.LCASE
     18520**DCL     19637<<ASSIGN
PRO$HDR.ATTR.TRUOVRPRT
     18517**DCL     19634<<ASSIGN
PRO$HDR.ATTR.UPPERCASE
     18515**DCL     19638<<ASSIGN
PRO$HDR.DDEV.CP
     18527**DCL     19650<<ASSIGN  19652<<ASSIGN
PRO$HDR.DDEV.GRAPHICS_OK
     18529**DCL     19490>>IF      19664>>IF      22305>>IF      22306<<ASSIGN
PRO$HDR.DDEV.IC
     18528**DCL     19644<<ASSIGN  19646<<ASSIGN
PRO$HDR.DDEV.LP
     18526**DCL     19640<<ASSIGN  19642<<ASSIGN
PRO$HDR.GR_FPRG
     18531**DCL     21137<<ASSIGN  22308>>IF
PRO$HDR.IMP#
     18524**DCL     19655<<ASSIGN
PRO$HDR.IO.INPUT
     18522**DCL     20025<<ASSIGN
PRO$HDR.IO.OUTPUT
     18523**DCL     20029<<ASSIGN
PL6.E3A0      #001=ASD$PROFILE File=ASD$PROFILE.:E05TSI                          TUE 07/29/97 09:46 Page:593
PRO$HDR.LINES
     18509**DCL     19633<<ASSIGN
PRO$HDR.TTYP
     18507**DCL     19585>>IF      19586<<ASSIGN  19600>>ASSIGN  19601>>IF
PRO$HDR.WIDTH
     18508**DCL     19632<<ASSIGN
PROFILE_CMD
     13641**DCL     19072--ASSIGN
PROFILE_ERR
     19664**LABEL   19073--CALLALT
PROFILE_TYPE
     19037**DCL     19769>>ASSIGN
PROFILE_TYPE.COUNT
     19038**DCL     19690<<ASSIGN  19694<<ASSIGN  19698<<ASSIGN  19702<<ASSIGN  19706<<ASSIGN  19710<<ASSIGN
     19714<<ASSIGN  19718<<ASSIGN
PROFILE_TYPE.TEXT
     19039**DCL     19691<<ASSIGN  19695<<ASSIGN  19699<<ASSIGN  19703<<ASSIGN  19707<<ASSIGN  19711<<ASSIGN
     19715<<ASSIGN  19719<<ASSIGN
PROJ_KEY.TEXT
     13660**DCL     13660--REDEF
PROJ_KEY.TXT.PROJECT
     13660**DCL     13660--REDEF
PRO_BUF
     16972**DCL     19177<>CALL    19360<>CALL    19420<>CALL    19450<>CALL    19452<>CALL    19454<>CALL
     19456<>CALL    19458<>CALL    19460<>CALL    19462<>CALL    19464<>CALL    19524<>CALL    19663<>CALL
PRO_HDR
     16944**DCL     19471--ASSIGN
PRO_KEY
     16973**DCL     19177<>CALL    19184>>ASSIGN  19208>>ASSIGN  19494<>CALL    19661>>ASSIGN  19663<>CALL
     19666<>CALL
PRO_KEY.CNT
     16974**DCL     19085<<ASSIGN  19087>>IF      19140>>IF      19140>>IF      19140>>IF      19140>>IF
     19140>>IF      19140>>IF      19140>>IF      19140>>IF      19140>>IF      19660>>ASSIGN
PRO_KEY.TEXT
     16975**DCL     19081<<ASSIGN  19114<<ASSIGN  19117<<ASSIGN
PRO_KEY_OLD
PL6.E3A0      #001=ASD$PROFILE File=ASD$PROFILE.:E05TSI                          TUE 07/29/97 09:46 Page:594
     16976**DCL     19360<>CALL    19420<>CALL    19429>>ASSIGN  19492<>CALL
PRO_KEY_OLD.CNT
     16977**DCL     19309<<ASSIGN  19311>>IF      19368<<ASSIGN  19372<<ASSIGN  19376<<ASSIGN  19380<<ASSIGN
     19384<<ASSIGN  19388<<ASSIGN  19392<<ASSIGN  19396<<ASSIGN
PRO_KEY_OLD.TEXT
     16978**DCL     19082<<ASSIGN  19334<<ASSIGN  19337<<ASSIGN  19369<<ASSIGN  19373<<ASSIGN  19377<<ASSIGN
     19381<<ASSIGN  19385<<ASSIGN  19389<<ASSIGN  19393<<ASSIGN  19397<<ASSIGN
PRO_OPTS
     19677**ENTRY   19623--CALL
PRO_OPTS_LIST
     13641**DCL     19729--ASSIGN
PRO_OPTS_LOOP
     19722**LABEL   21453--GOTO
PRO_TYPE
     19040**DCL     19689<<ASSIGN  19693<<ASSIGN  19697<<ASSIGN  19701<<ASSIGN  19705<<ASSIGN  19709<<ASSIGN
     19713<<ASSIGN  19717<<ASSIGN  19764>>IF      19764>>IF      20194>>IF      20307>>IF
PTR$
     19021**DCL     19738<<ASSIGN  19739>>ASSIGN  19789>>IF      19795>>ASSIGN  20162>>DOINDEX 20164>>ASSIGN
     21085<<ASSIGN  21085>>ASSIGN  21086>>DOINDEX 21087>>DOCASE  21229>>IF      21229>>IF      21233>>IF
     21233>>IF      21251>>ASSIGN  21624>>IF      21625>>IF      21627>>IF      21628>>ASSIGN  21630>>ASSIGN
     21686>>ASSIGN  21703>>IF      21705>>ASSIGN  21710>>IF      21712>>ASSIGN  23246>>IF      23247>>ASSIGN
PTRBGN$ IN PROCEDURE PLACE_OPT
     21903**DCL     21918<<ASSIGN  21919>>ASSIGN  21921>>ASSIGN  22132<<ASSIGN  22133>>ASSIGN
PTROPT$
     18999**DCL     20233<<ASSIGN  20234<>CALL    20238<<ASSIGN  20239<>CALL    20243<<ASSIGN  20244<>CALL
     20248<<ASSIGN  20249<>CALL    20253<<ASSIGN  20254<>CALL    20258<<ASSIGN  20259<>CALL    20263<<ASSIGN
     20264<>CALL    20268<<ASSIGN  20269<>CALL    20273<<ASSIGN  20274<>CALL    20278<<ASSIGN  20279<>CALL
     20283<<ASSIGN  20284<>CALL    20288<<ASSIGN  20289<>CALL    20293<<ASSIGN  20294<>CALL    20298<<ASSIGN
     20299<>CALL    20303<<ASSIGN  20304<>CALL    20344<<ASSIGN  20345<>CALL    20351<<ASSIGN  20352<>CALL
     20829<<ASSIGN  20830<>CALL    20834<<ASSIGN  20835<>CALL    20856<<ASSIGN  20857<>CALL    20861<<ASSIGN
     20862<>CALL    20866<<ASSIGN  20867<>CALL    21042<<ASSIGN  21043<>CALL    21047<<ASSIGN  21048<>CALL
     21052<<ASSIGN  21053<>CALL    21057<<ASSIGN  21058<>CALL    21062<<ASSIGN  21063<>CALL    21111<<ASSIGN
     21112<>CALL    21394<<ASSIGN  21395<>CALL    21797<<ASSIGN  21798<>CALL    21804<<ASSIGN  21805<>CALL
     21819<<ASSIGN  21820<>CALL
PTROPT$ IN PROCEDURE PLACE_OPT
     21901**DCL     21899--PROC    21917>>IF      21919>>ASSIGN  22130>>ASSIGN
PL6.E3A0      #001=ASD$PROFILE File=ASD$PROFILE.:E05TSI                          TUE 07/29/97 09:46 Page:595
PUT_GR_ESCAPE
     22333**PROC    21240--CALL
PUT_IN_FUNKEY IN PROCEDURE DO_FUNKEY_DEFS
     22911**PROC    22635--CALL    22711--CALL
P_ARS
     18996**DCL     19177<>CALL    19360<>CALL    19420<>CALL    19450<>CALL    19452<>CALL    19454<>CALL
     19456<>CALL    19458<>CALL    19460<>CALL    19462<>CALL    19464<>CALL    19470>>ASSIGN  19524<>CALL
     19662<<ASSIGN  19662>>ASSIGN  19663<>CALL    22062>>ASSIGN  22167<<ASSIGN  22167>>ASSIGN  22182<<ASSIGN
     22182>>ASSIGN  22187<<ASSIGN  22187>>ASSIGN  22649>>IF      23408<<ASSIGN  23408>>ASSIGN  23412<<ASSIGN
     23412>>ASSIGN
P_PCB
     13815**DCL     19073<>CALL    19732<>CALL    22506<>CALL
P_PCB.ERROR
     13919**DCL     19672<>CALL    21480<>CALL    22508<>CALL
P_PCB.NCHARS
     13962**DCL     19731<<ASSIGN  22505<<ASSIGN
P_PCB.OUT$
     13828**DCL     19074>>ASSIGN  19734>>ASSIGN  22512>>DOINDEX 22513>>ASSIGN
P_PCB.ROOT$
     13820**DCL     19072<<ASSIGN  19729<<ASSIGN  22501<<ASSIGN
P_TYPE
     16929**DCL     19230<<ASSIGN  19241<<ASSIGN  19245<<ASSIGN  19249<<ASSIGN  19253<<ASSIGN  19257<<ASSIGN
     19261<<ASSIGN  19265<<ASSIGN  19269<<ASSIGN  19273>>IF      19365>>DOCASE  19448>>DOCASE  19599>>IF
     19600<<ASSIGN  19601>>IF      19624>>DOCASE  19687>>DOCASE  20513>>IF      20526>>IF      20554>>IF
     20586>>IF      20623>>IF
REMEM_VAR
     13786**DCL     13786--REDEF
REMOVE_THIS_FUNKEY IN PROCEDURE DO_FUNKEY_DEFS
     22747**PROC    22563--CALL    22582--CALL
REM_FCMD
     13786**DCL     13787--REDEF
RETURN_LABEL IN PROCEDURE CHECK_MODIFIERS
     23127**LABEL   23098--GOTO    23103--GOTO    23112--GOTO    23118--GOTO
SAVEIDX IN PROCEDURE PLACE_OPT
     21915**DCL     21945<<ASSIGN  21959<<ASSIGN  22053>>IF      22117>>IF
SETUP_CHR$
PL6.E3A0      #001=ASD$PROFILE File=ASD$PROFILE.:E05TSI                          TUE 07/29/97 09:46 Page:596
     16991**DCL     18148--IMP-PTR 19480<<ASSIGN  19575<<ASSIGN  23257>>IF      23259>>ASSIGN  23260>>ASSIGN
     23265>>ASSIGN  23268>>ASSIGN  23273>>IF      23276>>ASSIGN  23280>>IF      23282>>ASSIGN  23283>>ASSIGN
     23283>>ASSIGN  23290>>IF      23293>>ASSIGN  23294>>ASSIGN  23294>>ASSIGN  23301>>ASSIGN  23314>>IF
     23338>>ASSIGN  23338>>ASSIGN  23338>>ASSIGN  23340>>ASSIGN  23344>>ASSIGN  23344>>ASSIGN  23346>>ASSIGN
     23346>>ASSIGN  23349>>IF      23350>>ASSIGN  23350>>ASSIGN  23388>>IF      23388<<ASSIGN  23388>>ASSIGN
SHRINK
     23360**PROC    22765--CALL    22784--CALL    23263--CALL    23286--CALL
SHRINK_FLG IN PROCEDURE SHRINK
     23365**DCL     23368<<ASSIGN  23373<<ASSIGN  23405>>IF
SIZE IN PROCEDURE ADD_ANOTHER_FUNKEY
     22803**DCL     22815<<ASSIGN  22817<<ASSIGN  22819>>IF      22830>>ASSIGN  22831>>ASSIGN  22835>>ASSIGN
SIZE IN PROCEDURE PLACE_OPT
     21914**DCL     21965<<ASSIGN  21967<<ASSIGN  21970>>IF      21971>>ASSIGN  22018<>CALL    22057>>IF
     22154>>IF      22157>>DOINDEX 22164>>DOINDEX 22170>>ASSIGN  22171>>ASSIGN  22177>>DOINDEX 22185>>ASSIGN
SIZE IN PROCEDURE REMOVE_THIS_FUNKEY
     22759**DCL     22770<<ASSIGN  22772<<ASSIGN  22774>>IF      22776>>ASSIGN  22777>>ASSIGN  22788>>ASSIGN
SPLIT
     19027**DCL     20197>>ASSIGN  20202>>ASSIGN  20430>>ASSIGN  20619>>ASSIGN  21607<<ASSIGN  21622<<ASSIGN
SPLIT.B
     19031**DCL     21609<<ASSIGN  21690<<ASSIGN
SPLIT.T
     19029**DCL     21608<<ASSIGN  21689<<ASSIGN
SPLIT$
     19023**DCL     18969--IMP-PTR
SPLIT_STRUCT IN PROCEDURE GET_TA
     21754**DCL     21752--PROC    21786<<ASSIGN
SPLIT_STRUCT.B IN PROCEDURE GET_TA
     21758**DCL     21788<<ASSIGN
SPLIT_STRUCT.T IN PROCEDURE GET_TA
     21756**DCL     21787<<ASSIGN
SPLIT_VAL.B
     19012**DCL     21609>>ASSIGN  21690>>ASSIGN  21788>>ASSIGN
SPLIT_VAL.T
     19011**DCL     21608>>ASSIGN  21689>>ASSIGN  21787>>ASSIGN
START IN PROCEDURE GET_HEX_VAL
     21619**DCL     21694<<ASSIGN  21698<<ASSIGN  21702>>DOINDEX
PL6.E3A0      #001=ASD$PROFILE File=ASD$PROFILE.:E05TSI                          TUE 07/29/97 09:46 Page:597
SUBS
     19024**DCL     19228<<ASSIGN  19231>>DOINDEX 19238>>ASSIGN  19242>>ASSIGN  19246>>ASSIGN  19250>>ASSIGN
     19254>>ASSIGN  19258>>ASSIGN  19262>>ASSIGN  19266>>ASSIGN  19270>>ASSIGN  21630<<ASSIGN  21631<<ASSIGN
     21631>>ASSIGN  21632>>IF      21695>>ASSIGN  21699>>ASSIGN
T3270$
     16996**DCL     19483<<ASSIGN  19584<<ASSIGN  19585>>IF      20198>>ASSIGN  20311>>ASSIGN  20314>>ASSIGN
     21069>>ASSIGN  21072>>ASSIGN  23391>>IF      23391<<ASSIGN  23391>>ASSIGN
TATR$
     16986**DCL     19475<<ASSIGN  19557<<ASSIGN  19634>>ASSIGN  19635>>ASSIGN  19636>>ASSIGN  19637>>ASSIGN
     19639>>IF      19643>>IF      19647>>IF      19647>>IF      19904>>ASSIGN  19905>>ASSIGN  19913>>ASSIGN
     19916>>ASSIGN  19917>>ASSIGN  19922>>ASSIGN  19926>>ASSIGN  19930>>ASSIGN  19933>>ASSIGN  19936>>ASSIGN
     19938>>ASSIGN  19941>>ASSIGN  19943>>ASSIGN  19946>>ASSIGN  19949>>ASSIGN  19952>>ASSIGN  19955>>ASSIGN
     19958>>ASSIGN  19961>>ASSIGN  19964>>ASSIGN  19967>>ASSIGN  19970>>ASSIGN  19973>>ASSIGN  19976>>ASSIGN
     19979>>ASSIGN  19982>>ASSIGN  19985>>ASSIGN  19995>>ASSIGN  20026>>ASSIGN  20030>>ASSIGN  20033>>ASSIGN
     20036>>ASSIGN  20040>>ASSIGN  20044>>ASSIGN  20048>>ASSIGN  20073>>ASSIGN  20075>>IF      20076>>ASSIGN
     20081>>ASSIGN  20105>>ASSIGN  20207>>ASSIGN  20809>>ASSIGN  20813>>ASSIGN  20817>>ASSIGN  21066>>ASSIGN
     21107>>ASSIGN  21459>>ASSIGN  21463>>ASSIGN  21467>>ASSIGN  21471>>ASSIGN  23383>>IF      23383<<ASSIGN
     23383>>ASSIGN
TCCHR$
     16989**DCL     19478<<ASSIGN  19566<<ASSIGN  20203>>ASSIGN  20210>>ASSIGN  20213>>ASSIGN  20218>>ASSIGN
     20222>>ASSIGN  20226>>ASSIGN  20229>>ASSIGN  20233>>ASSIGN  20238>>ASSIGN  20243>>ASSIGN  20248>>ASSIGN
     20253>>ASSIGN  20258>>ASSIGN  20263>>ASSIGN  20268>>ASSIGN  20273>>ASSIGN  20278>>ASSIGN  20283>>ASSIGN
     20288>>ASSIGN  20293>>ASSIGN  20298>>ASSIGN  20303>>ASSIGN  20344>>ASSIGN  20351>>ASSIGN  20357>>ASSIGN
     20361>>ASSIGN  20365>>ASSIGN  20369>>ASSIGN  20373>>ASSIGN  20377>>ASSIGN  20381>>ASSIGN  20385>>ASSIGN
     20388>>CALL    20391>>CALL    20394>>CALL    20397>>CALL    20400>>CALL    20403>>CALL    20406>>CALL
     20409>>CALL    20412>>CALL    20415>>CALL    20418>>CALL    20820>>ASSIGN  20824>>ASSIGN  20829>>ASSIGN
     20834>>ASSIGN  20840>>ASSIGN  20843>>ASSIGN  20846>>ASSIGN  20848>>ASSIGN  20850>>ASSIGN  20856>>ASSIGN
     20861>>ASSIGN  20866>>ASSIGN  20871>>ASSIGN  20875>>ASSIGN  20879>>ASSIGN  20883>>ASSIGN  20887>>ASSIGN
     20891>>ASSIGN  20895>>ASSIGN  20899>>ASSIGN  20901>>IF      20926>>ASSIGN  20928>>IF      20949>>ASSIGN
     20951>>IF      20972>>ASSIGN  20973>>IF      20998>>IF      21016>>ASSIGN  21020>>ASSIGN  21021>>IF
     21042>>ASSIGN  21047>>ASSIGN  21052>>ASSIGN  21057>>ASSIGN  21062>>ASSIGN  21111>>ASSIGN  21394>>ASSIGN
     21398>>ASSIGN  21401>>ASSIGN  21404>>ASSIGN  21407>>ASSIGN  21410>>ASSIGN  21413>>ASSIGN  21416>>ASSIGN
     21419>>ASSIGN  21797>>ASSIGN  21799>>ASSIGN  21804>>ASSIGN  21806>>ASSIGN  21807>>ASSIGN  21808>>ASSIGN
     21809>>ASSIGN  21810>>ASSIGN  21811>>ASSIGN  21819>>ASSIGN  21821>>ASSIGN  21822>>ASSIGN  21823>>ASSIGN
     21824>>ASSIGN  21832>>IF      21868>>IF      21918>>ASSIGN  21920>>ASSIGN  21922>>IF      21925>>DOWHILE
     21930>>ASSIGN  21933>>DOWHILE 21941>>ASSIGN  21942>>ASSIGN  21945>>ASSIGN  21946>>ASSIGN  21950>>ASSIGN
PL6.E3A0      #001=ASD$PROFILE File=ASD$PROFILE.:E05TSI                          TUE 07/29/97 09:46 Page:598
     21951>>IF      21954>>ASSIGN  21960>>ASSIGN  22054>>ASSIGN  22118>>ASSIGN  22125>>IF      22126>>ASSIGN
     22126>>ASSIGN  22132>>ASSIGN  22138>>ASSIGN  22138>>ASSIGN  22141>>ASSIGN  22144>>ASSIGN  22144>>ASSIGN
     22149>>ASSIGN  22152>>ASSIGN  22156>>ASSIGN  22158>>ASSIGN  22162<<ASSIGN  22162>>ASSIGN  22163>>ASSIGN
     22165>>ASSIGN  22176>>ASSIGN  22178>>ASSIGN  22180<<ASSIGN  22180>>ASSIGN  23386>>IF      23386<<ASSIGN
     23386>>ASSIGN
TCTL$
     16985**DCL     19474<<ASSIGN  19554<<ASSIGN  19812>>ASSIGN  19815>>ASSIGN  19818>>ASSIGN  19821>>ASSIGN
     19824>>ASSIGN  19827>>ASSIGN  19830>>ASSIGN  19833>>ASSIGN  19836>>ASSIGN  19839>>ASSIGN  19842>>ASSIGN
     19845>>ASSIGN  19848>>ASSIGN  19851>>ASSIGN  19854>>ASSIGN  19857>>ASSIGN  19860>>ASSIGN  19863>>ASSIGN
     19866>>ASSIGN  19869>>ASSIGN  19872>>ASSIGN  19875>>ASSIGN  19878>>ASSIGN  19881>>ASSIGN  19884>>ASSIGN
     19887>>ASSIGN  19890>>ASSIGN  19894>>ASSIGN  19898>>ASSIGN  21422>>ASSIGN  21425>>ASSIGN  21428>>ASSIGN
     21431>>ASSIGN  21435>>ASSIGN  21439>>ASSIGN  21444>>ASSIGN  21448>>ASSIGN  23382>>IF      23382<<ASSIGN
     23382>>ASSIGN
TO$ IN PROCEDURE OPEN_SPACE
     23427**DCL     23435<<ASSIGN  23442<<ASSIGN  23449>>ASSIGN  23450<<ASSIGN  23450>>ASSIGN
TRMD$
     16992**DCL     19481<<ASSIGN  19569<<ASSIGN  20422>>ASSIGN  20426>>ASSIGN  20431>>ASSIGN  20435>>ASSIGN
     20439>>ASSIGN  20446>>ASSIGN  20451>>ASSIGN  20453>>ASSIGN  20455>>ASSIGN  20457>>ASSIGN  20462>>ASSIGN
     20466>>ASSIGN  20470>>ASSIGN  20473>>ASSIGN  20476>>ASSIGN  20479>>ASSIGN  20482>>ASSIGN  20485>>ASSIGN
     20488>>ASSIGN  23389>>IF      23389<<ASSIGN  23389>>ASSIGN
T_TAB
     16999**DCL     20161<<ASSIGN  20166<<ASSIGN  20168>>IF      20168>>IF      20191>>ASSIGN
USERS_KEY.TEXT
     13657**DCL     13658--REDEF   13658--REDEF   13658--REDEF   13659--REDEF
VAL
     19008**DCL     19009--REDEF   19013--REDEF   19014--REDEF   19015--REDEF   19898>>ASSIGN  19910>>IF
     19912<<ASSIGN  19912>>ASSIGN  19917>>ASSIGN  19926>>ASSIGN  20044>>ASSIGN  20116>>IF      20123>>IF
     20124<<ASSIGN  20124>>ASSIGN  20129>>ASSIGN  20139>>ASSIGN  20148>>ASSIGN  20157>>ASSIGN  20166>>ASSIGN
     20222>>ASSIGN  20357>>ASSIGN  20361>>ASSIGN  20365>>ASSIGN  20369>>ASSIGN  20373>>ASSIGN  20377>>ASSIGN
     20381>>ASSIGN  20426>>ASSIGN  20435>>ASSIGN  20439>>ASSIGN  20443>>ASSIGN  20462>>ASSIGN  20492>>ASSIGN
     20496>>ASSIGN  20504>>ASSIGN  20523>>ASSIGN  20531>>ASSIGN  20538>>ASSIGN  20545>>ASSIGN  20550>>ASSIGN
     20562>>ASSIGN  20567>>ASSIGN  20572>>ASSIGN  20577>>ASSIGN  20587>>ASSIGN  20589>>ASSIGN  20594>>ASSIGN
     20599>>ASSIGN  20604>>ASSIGN  20609>>ASSIGN  20614>>ASSIGN  20783>>ASSIGN  20800>>ASSIGN  20804>>ASSIGN
     20813>>ASSIGN  21141>>ASSIGN  21145>>ASSIGN  21149>>ASSIGN  21153>>ASSIGN  21157>>ASSIGN  21161>>ASSIGN
     21165>>ASSIGN  21169>>ASSIGN  21173>>ASSIGN  21177>>ASSIGN  21181>>ASSIGN  21185>>ASSIGN  21189>>ASSIGN
     21193>>ASSIGN  21197>>ASSIGN  21201>>ASSIGN  21205>>ASSIGN  21209>>ASSIGN  21213>>ASSIGN  21217>>ASSIGN
PL6.E3A0      #001=ASD$PROFILE File=ASD$PROFILE.:E05TSI                          TUE 07/29/97 09:46 Page:599
     21221>>ASSIGN  21225>>ASSIGN  21248>>ASSIGN  21255>>ASSIGN  21259>>ASSIGN  21263>>ASSIGN  21267>>ASSIGN
     21271>>ASSIGN  21275>>ASSIGN  21279>>ASSIGN  21283>>ASSIGN  21287>>ASSIGN  21291>>ASSIGN  21295>>ASSIGN
     21299>>ASSIGN  21303>>ASSIGN  21307>>ASSIGN  21311>>ASSIGN  21315>>ASSIGN  21439>>ASSIGN  21448>>ASSIGN
     21467>>ASSIGN  21493<<CALLBLT 21494>>IF      21549>>IF      21622<<ASSIGN  21687<>CALL    21688>>ASSIGN
     21706<>CALL    21708>>ASSIGN  21761<>CALL    21762>>IF      22198<<CALLBLT 22199>>IF      22252>>IF
     22362>>IF      22431>>ASSIGN  22436>>IF      22439>>ASSIGN  22447>>IF      22452>>IF      22460>>ASSIGN
VAL IN PROCEDURE MAYBE_REMOVE_INTRO
     22934**DCL     22944<<ASSIGN  22947>>IF      22956<<ASSIGN  22956>>ASSIGN  22957>>IF      22961>>IF
VAL1 IN PROCEDURE DO_FUNKEY_DEFS
     22495**DCL     22854>>IF      22861>>IF      22871>>ASSIGN  22879>>ASSIGN  23047>>IF      23057>>IF
     23067>>IF      23150<<ASSIGN  23156<>CALL    23194>>IF      23202>>IF      23210>>IF
VAL2 IN PROCEDURE DO_FUNKEY_DEFS
     22496**DCL     22854>>IF      22861>>IF      22872>>ASSIGN  22880>>ASSIGN  23047>>IF      23057>>IF
     23067>>IF      23151<<ASSIGN  23163<>CALL    23166<<ASSIGN  23170<<ASSIGN  23194>>IF      23202>>IF
     23210>>IF
VAL_FOUR
     19014**DCL     21319>>ASSIGN  21323>>ASSIGN  21327>>ASSIGN  21331>>ASSIGN  21339>>ASSIGN  21343>>ASSIGN
     21351>>ASSIGN  21355>>ASSIGN  21359>>ASSIGN  21363>>ASSIGN  21375>>ASSIGN  21387>>ASSIGN  21391>>ASSIGN
VAL_SIX
     19015**DCL     21335>>ASSIGN
VAL_TWO
     19013**DCL     21347>>ASSIGN  21367>>ASSIGN  21371>>ASSIGN  21379>>ASSIGN  21383>>ASSIGN
VIRCIR$
     16995**DCL     19486<<ASSIGN  19581<<ASSIGN  20443>>ASSIGN  20514>>ASSIGN  20527>>IF      20531>>ASSIGN
     20545>>ASSIGN  20550>>ASSIGN  20557>>ASSIGN  20562>>ASSIGN  20567>>ASSIGN  20572>>ASSIGN  20577>>ASSIGN
     20589>>ASSIGN  20594>>ASSIGN  20599>>ASSIGN  20604>>ASSIGN  20619>>ASSIGN  20698>>ASSIGN  20700>>IF
     20701>>ASSIGN  20723>>IF      20724>>ASSIGN  20746>>IF      20747>>ASSIGN  20772>>ASSIGN  20775>>ASSIGN
     20779>>IF      20783>>ASSIGN  20786>>ASSIGN  20789>>ASSIGN  20792>>ASSIGN  20796>>IF      20800>>ASSIGN
     20804>>ASSIGN  23394>>IF      23394<<ASSIGN  23394>>ASSIGN
VLP$PLATEN.EXTWID#
     17324**DCL     19628>>IF      20111<<ASSIGN  20119<<ASSIGN  20125<<ASSIGN  20128<<ASSIGN
VLP$PLATEN.FIRSTLINE#
     17323**DCL     20153<<ASSIGN  20157<<ASSIGN
VLP$PLATEN.LENGTH#
     17322**DCL     19633>>ASSIGN  20135<<ASSIGN  20139<<ASSIGN
VLP$PLATEN.LIMBO#
PL6.E3A0      #001=ASD$PROFILE File=ASD$PROFILE.:E05TSI                          TUE 07/29/97 09:46 Page:600
     17323**DCL     20144<<ASSIGN  20148<<ASSIGN
VLP$PLATEN.WIDTH#
     17322**DCL     19632>>ASSIGN  20110<<ASSIGN  20118<<ASSIGN  20129<<ASSIGN
VLP$PNAME
     17219**DCL     19661<<ASSIGN
VLP$PNAME.L#
     17219**DCL     17219--IMP-SIZ 19658<<ASSIGN  19659>>ASSIGN  19660<<ASSIGN  19661>>ASSIGN
VLP$PNAME.NAME#
     17219**DCL     19659<<ASSIGN
VLP$TAB
     17339**DCL     20191<<ASSIGN
VLP$TRMATTR.APL#
     17288**DCL     19635>>ASSIGN  19973<<ASSIGN
VLP$TRMATTR.ATRSCRNPOS#
     17293**DCL     20817<<ASSIGN
VLP$TRMATTR.AUTONL#
     17285**DCL     19955<<ASSIGN
VLP$TRMATTR.BIN#
     17288**DCL     19636>>ASSIGN  19976<<ASSIGN
VLP$TRMATTR.BLANKERASES#
     17286**DCL     19964<<ASSIGN
VLP$TRMATTR.CHARSETNAME#
     17298**DCL     20073<<ASSIGN  20075>>IF      20076<<ASSIGN
VLP$TRMATTR.CRISNL#
     17285**DCL     19958<<ASSIGN
VLP$TRMATTR.CURSORUP#
     17283**DCL     19943<<ASSIGN
VLP$TRMATTR.DCHMOVFLD#
     17294**DCL     21459<<ASSIGN
VLP$TRMATTR.DEVICEBS#
     17284**DCL     19952<<ASSIGN
VLP$TRMATTR.DEVICECR#
     17283**DCL     19946<<ASSIGN
VLP$TRMATTR.DEVICELF#
     17284**DCL     19949<<ASSIGN
VLP$TRMATTR.DEVPOSOPTS#
PL6.E3A0      #001=ASD$PROFILE File=ASD$PROFILE.:E05TSI                          TUE 07/29/97 09:46 Page:601
     17287**DCL     19967<<ASSIGN
VLP$TRMATTR.DEVSCROLL#
     17283**DCL     19936<<ASSIGN
VLP$TRMATTR.DSPHEIGHT#
     17299**DCL     21463<<ASSIGN  21467<<ASSIGN
VLP$TRMATTR.DVCFLWCTRALG#
     17297**DCL     20207<<ASSIGN
VLP$TRMATTR.EXTWID#
     17290**DCL     19905<<ASSIGN  19913<<ASSIGN  19916<<ASSIGN
VLP$TRMATTR.FCNTBL#
     17298**DCL     20081<<ASSIGN  20105<<ASSIGN
VLP$TRMATTR.FF_FLUSH#
     17296**DCL     21471<<ASSIGN
VLP$TRMATTR.FF_INCCR#
     17300**DCL     19938<<ASSIGN
VLP$TRMATTR.HEIGHT#
     17295**DCL     19922<<ASSIGN  19926<<ASSIGN
VLP$TRMATTR.INPUT#
     17291**DCL     20026<<ASSIGN
VLP$TRMATTR.LFISNL#
     17286**DCL     19961<<ASSIGN
VLP$TRMATTR.LIMBOCLM#
     17289**DCL     19982<<ASSIGN
VLP$TRMATTR.LOCALECHO#
     17289**DCL     19985<<ASSIGN
VLP$TRMATTR.LOWERCASEPRINTS#
     17288**DCL     19637>>ASSIGN  19979<<ASSIGN
VLP$TRMATTR.MAXATRS#
     17299**DCL     20809<<ASSIGN  20813<<ASSIGN
VLP$TRMATTR.MICROFPL#
     17297**DCL     19941<<ASSIGN
VLP$TRMATTR.MINREC#
     17295**DCL     20040<<ASSIGN  20044<<ASSIGN
VLP$TRMATTR.NO_FLDTRM#
     17293**DCL     21066<<ASSIGN
VLP$TRMATTR.OPDTAB#
PL6.E3A0      #001=ASD$PROFILE File=ASD$PROFILE.:E05TSI                          TUE 07/29/97 09:46 Page:602
     17282**DCL     19933<<ASSIGN
VLP$TRMATTR.OUTPUT#
     17291**DCL     20030<<ASSIGN
VLP$TRMATTR.PARITY#
     17290**DCL     19995<<ASSIGN
VLP$TRMATTR.PRINTTYPE#
     17291**DCL     19639>>IF      19647>>IF      20033<<ASSIGN
VLP$TRMATTR.PROGDTAB#
     17282**DCL     19930<<ASSIGN
VLP$TRMATTR.SPCBFRPRT#
     17292**DCL     21107<<ASSIGN
VLP$TRMATTR.SPEED#
     17296**DCL     20048<<ASSIGN
VLP$TRMATTR.TRUOVRPRT#
     17287**DCL     19634>>ASSIGN  19970<<ASSIGN
VLP$TRMATTR.TTYTYPE#
     17292**DCL     19643>>IF      19647>>IF      20036<<ASSIGN
VLP$TRMATTR.WIDTH#
     17294**DCL     19904<<ASSIGN  19917<<ASSIGN
VLP$TRMCTRL.ACTONTRN#
     17246**DCL     19857<<ASSIGN
VLP$TRMCTRL.APLLCNRM#
     17246**DCL     19860<<ASSIGN
VLP$TRMCTRL.AUTOCURSOR#
     17259**DCL     19839<<ASSIGN
VLP$TRMCTRL.AUTOTABCLM#
     17256**DCL     21444<<ASSIGN  21448<<ASSIGN
VLP$TRMCTRL.BREAKCOUNT
     17251**DCL     17252--REDEF
VLP$TRMCTRL.CURSORREAD#
     17258**DCL     19836<<ASSIGN
VLP$TRMCTRL.DISPINPUT#
     17242**DCL     19824<<ASSIGN
VLP$TRMCTRL.EDITOVR#
     17247**DCL     19866<<ASSIGN
VLP$TRMCTRL.FULLDUXPAPERTAPE#
PL6.E3A0      #001=ASD$PROFILE File=ASD$PROFILE.:E05TSI                          TUE 07/29/97 09:46 Page:603
     17244**DCL     19854<<ASSIGN
VLP$TRMCTRL.HALFDUXPAPERTAPE#
     17245**DCL     19851<<ASSIGN
VLP$TRMCTRL.HSCROLL#
     17252**DCL     21431<<ASSIGN
VLP$TRMCTRL.INSERTMODE#
     17253**DCL     21428<<ASSIGN
VLP$TRMCTRL.KEEPTYPAHD#
     17259**DCL     19842<<ASSIGN
VLP$TRMCTRL.LOWERCASE#
     17244**DCL     19848<<ASSIGN
VLP$TRMCTRL.MSGHALT#
     17253**DCL     21422<<ASSIGN
VLP$TRMCTRL.MSGLINE#
     17254**DCL     21425<<ASSIGN
VLP$TRMCTRL.NOOPTMIZ#
     17250**DCL     19890<<ASSIGN
VLP$TRMCTRL.OUTPUTDISCARD#
     17243**DCL     19830<<ASSIGN
VLP$TRMCTRL.PAGEHALT#
     17248**DCL     19872<<ASSIGN
VLP$TRMCTRL.PARITYCHECK#
     17242**DCL     19827<<ASSIGN
VLP$TRMCTRL.PARKCURSOR#
     17258**DCL     19833<<ASSIGN
VLP$TRMCTRL.PRINTHALT#
     17248**DCL     19875<<ASSIGN
VLP$TRMCTRL.RELPAGE#
     17249**DCL     19878<<ASSIGN
VLP$TRMCTRL.RETYPOVR#
     17246**DCL     19863<<ASSIGN
VLP$TRMCTRL.SCROLL#
     17247**DCL     19869<<ASSIGN
VLP$TRMCTRL.SENDBKSPACE#
     17241**DCL     19821<<ASSIGN
VLP$TRMCTRL.SIMPERF#
PL6.E3A0      #001=ASD$PROFILE File=ASD$PROFILE.:E05TSI                          TUE 07/29/97 09:46 Page:604
     17249**DCL     19881<<ASSIGN
VLP$TRMCTRL.SINPUTSZ#
     17251**DCL     19894<<ASSIGN  19898<<ASSIGN
VLP$TRMCTRL.SPACEINSERT#
     17241**DCL     19818<<ASSIGN
VLP$TRMCTRL.TABRELATIVE#
     17240**DCL     19815<<ASSIGN
VLP$TRMCTRL.TABSIM#
     17240**DCL     19812<<ASSIGN
VLP$TRMCTRL.TRUNCATE#
     17250**DCL     19884<<ASSIGN
VLP$TRMCTRL.UPPERCASE#
     17243**DCL     19845<<ASSIGN
VLP$TRMCTRL.WORDWRAPCLM#
     17256**DCL     21435<<ASSIGN  21439<<ASSIGN
VLP$TRMCTRL.WRAPPAGE#
     17250**DCL     19887<<ASSIGN
VLP_TRMCTL.BREAKCOUNT
     17180**DCL     17181--REDEF
X$PARSE
     18162**DCL-ENT 19073--CALL    19732--CALL    22506--CALL
XPNAME
     19017**DCL     19110<<CALLBLT 19111>>IF      19117>>ASSIGN  19140>>IF      19140>>IF      19140>>IF
     19140>>IF      19140>>IF      19140>>IF      19140>>IF      19140>>IF      19140>>IF      19330<<CALLBLT
     19331>>IF      19337>>ASSIGN
YES_NO
     16928**DCL     19792<<ASSIGN  19801<<ASSIGN  19804<<ASSIGN  20226>>ASSIGN  20229>>ASSIGN  20473>>ASSIGN
     20476>>ASSIGN  20479>>ASSIGN  20482>>ASSIGN  20485>>ASSIGN  20488>>ASSIGN  20515>>ASSIGN  20555>>ASSIGN
     20557>>ASSIGN  20581>>ASSIGN  20624>>ASSIGN  20625>>IF      20698>>ASSIGN  20699>>IF      20786>>ASSIGN
     20840>>ASSIGN  20843>>ASSIGN  21398>>ASSIGN  21401>>ASSIGN  21404>>ASSIGN  21407>>ASSIGN  21410>>ASSIGN
     21413>>ASSIGN  21416>>ASSIGN  21419>>ASSIGN
YES_NO_FLG
     16927**DCL     19791<<ASSIGN  19798<<ASSIGN  19800<<ASSIGN  19805<<ASSIGN  19812>>ASSIGN  19815>>ASSIGN
     19818>>ASSIGN  19821>>ASSIGN  19824>>ASSIGN  19827>>ASSIGN  19830>>ASSIGN  19833>>ASSIGN  19836>>ASSIGN
     19839>>ASSIGN  19842>>ASSIGN  19845>>ASSIGN  19848>>ASSIGN  19851>>ASSIGN  19854>>ASSIGN  19857>>ASSIGN
     19860>>ASSIGN  19863>>ASSIGN  19866>>ASSIGN  19869>>ASSIGN  19872>>ASSIGN  19875>>ASSIGN  19878>>ASSIGN
PL6.E3A0      #001=ASD$PROFILE File=ASD$PROFILE.:E05TSI                          TUE 07/29/97 09:46 Page:605
     19881>>ASSIGN  19884>>ASSIGN  19887>>ASSIGN  19890>>ASSIGN  19930>>ASSIGN  19933>>ASSIGN  19936>>ASSIGN
     19938>>ASSIGN  19941>>ASSIGN  19943>>ASSIGN  19946>>ASSIGN  19949>>ASSIGN  19952>>ASSIGN  19955>>ASSIGN
     19958>>ASSIGN  19961>>ASSIGN  19964>>ASSIGN  19967>>ASSIGN  19970>>ASSIGN  19973>>ASSIGN  19976>>ASSIGN
     19979>>ASSIGN  19982>>ASSIGN  19985>>ASSIGN  20025>>ASSIGN  20026>>ASSIGN  20029>>ASSIGN  20030>>ASSIGN
     20033>>ASSIGN  20036>>ASSIGN  20446>>ASSIGN  20817>>ASSIGN  21066>>ASSIGN  21069>>ASSIGN  21072>>ASSIGN
     21107>>ASSIGN  21422>>ASSIGN  21425>>ASSIGN  21428>>ASSIGN  21431>>ASSIGN  21459>>ASSIGN  21471>>ASSIGN

