VERSION E05

PL6.E3A0      #001=ASH$HELP File=ASH$HELP.:E05TSI                                TUE 07/29/97 09:51 Page:1
        1        1        /*M* ASH$HELP:  EXTERNAL ROUTINE TO HANDLE 'HELP', 'ERROR', AND 'FAIL'  */
        2        2        /*T***********************************************************/
        3        3        /*T*                                                         */
        4        4        /*T* Copyright (c) Bull HN Information Systems Inc., 1997    */
        5        5        /*T*                                                         */
        6        6        /*T***********************************************************/
        7        7        /*X*  DMC,DMR,CCC,PLM=0,IND=3,CTI=5,DCI=6,IAD=0,DTI=0,IDT=0,ENI=3,
        8        8              ECU=3,CSU=3,SDI=3                                           */
        9        9
       10       10        ASH$HELP: PROC;
       11       11
       12       12        /*********************************************************************/
       13       13        /*   Include files   include files   include files   include files   */
       14       14        /*********************************************************************/
       15       15
       16       16        %INCLUDE AS_ENTRIES_M;
       17     1066        %INCLUDE CP_6;
       18     1147        %INCLUDE AS_PERR_C;
       19     1749        %INCLUDE XUH_MACRO_C ;
       20     1833        %INCLUDE XU_PERR_C ;
       21     2024        %INCLUDE XU_MACRO_C ;
       22     5130        %INCLUDE XU_FORMAT_C ;
       23     5292        %INCLUDE B_ERRORS_C ;
       24     6419        %INCLUDE AS_SUPER_C ;
       25     6854        %INCLUDE AS_SUBS_C ;
       26     8268        %INCLUDE AS_MAC_C ;
       27     8348        %INCLUDE KL_SUPER_C ;
       28    11250        %INCLUDE AS_SUPER_R ;
       29    14266
       30    14267        /**********************************************************************/
       31    14268        /*   Based data   based data   based data   based data   based data   */
       32    14269        /**********************************************************************/
       33    14270        %PARSE$OUT (NAME = OUT$BLK, STCLASS = BASED) ;
       34    14315        %PARSE$SYM (NAME=OUT$SYM, STCLASS="BASED (BLK$)");
       35    14353        /*****************************************************************/
       36    14354        /*    Entry dcls   entry dcls   entry dcls   entry dcls   entry dcls   */
       37    14355        /**********************************************************************/
PL6.E3A0      #001=ASH$HELP File=ASH$HELP.:E05TSI                                TUE 07/29/97 09:51 Page:2
       38    14356        %ASH$ERROR ;
       39    14359    1   DCL X$HELP ENTRY(1) ALTRET ;
       40    14360        /********************************************************************/
       41    14361        /*   Dcbs   dcbs   dcbs   dcbs   dcbs   dcbs   dcbs   dcbs   dcbs   */
       42    14362        /********************************************************************/
       43    14363
       44    14364    1   DCL M$DO DCB ;
       45    14365
       46    14366        /***************************************************************************/
       47    14367        /*   Static data   static data   static data   static data   static data   */
       48    14368        /***************************************************************************/
       49    14369
       50    14370        %XUH_PARAM (NAME = XUH_PARAM ,
       51    14371                    PROCNAME = VLP_SUPER,
       52    14372                    PROCACCT = FILE_ACCT ,
       53    14373                    OUTDCB1 = M$LO ,
       54    14374                    OUTDCB2 = M$DO ,
       55    14375                    STCLASS = STATIC) ;
       56    14436        %VLP_NAME (FPTN = VLP_SUPER,
       57    14437                    NAME = 'SUPER',
       58    14438                    LEN = 5 ,
       59    14439                    STCLASS = CONSTANT) ;
       60    14466
       61    14467        /***************************************************************************/
       62    14468        /*   Symref        symref        symref        symref        symref        */
       63    14469        /***************************************************************************/
       64    14470
       65    14471    1   DCL 1 ASH_HELP SYMREF,
       66    14472    1          2 LAST BIT(1) UNAL,
       67    14473    1          2 TOPICS BIT(1) UNAL;
       68    14474        %P$PCB( NAME=ASH_LAST_PCB, STCLASS=SYMREF );
       69    14675        %EJECT;
PL6.E3A0      #001=ASH$HELP File=ASH$HELP.:E05TSI                                TUE 07/29/97 09:51 Page:3
       70    14676        /*******************************************************************/
       71    14677        /*   Auto data   auto data   auto data   auto data   auto data     */
       72    14678        /*******************************************************************/
       73    14679    1   DCL I  SBIN;
       74    14680    1   DCL J  SBIN;
       75    14681    1   DCL BLK$  PTR;
       76    14682    1   DCL 1 HELP_STRING,
       77    14683    1          2 COUNT UBIN  BYTE UNAL,
       78    14684    1          2 TXT   CHAR(31) CALIGNED;
       79    14685    1   DCL 1 PROCNAME,
       80    14686    1          2 COUNT UBIN  BYTE UNAL,
       81    14687    1          2 TXT   CHAR(24) CALIGNED;
       82    14688    1   DCL 1 SUP_NAME CONSTANT,
       83    14689    1          2 COUNT UBIN BYTE UNAL INIT(5),
       84    14690    1          2 TXT  CHAR(5) CALIGNED INIT('SUPER');
       85    14691        %EJECT;
PL6.E3A0      #001=ASH$HELP File=ASH$HELP.:E05TSI                                TUE 07/29/97 09:51 Page:4
       86    14692        /*****************************************************************************/
       87    14693        /*   Procedure   procedure   procedure   procedure   procedure   procedure   */
       88    14694        /*****************************************************************************/
       89    14695    1   ASH_HELP = '1'B;
       90    14696    1   BLK$ = P_PCB.OUT$;
       91    14697    1   XUH_PARAM.TOPICS# = '0'B;
       92    14698    2   DO WHILE (OUT$SYM.CODE ~= HELP_VAL);
       93    14699    2      IF (OUT$SYM.NSUBLKS = 0) THEN RETURN;
       94    14700    2      BLK$ = BLK$ -> OUT$BLK.SUBLK$(0);
       95    14701    2      END;  /* While */
       96    14702    1   BLK$ = BLK$ -> OUT$BLK.SUBLK$(0);
       97    14703        /*     BLK$ = P_PCB.OUT$ -> OUT$BLK.SUBLK$(0); */
       98    14704    1   CALL INDEX (I, '(', OUT$SYM.TEXT)
       99    14705    2   WHENRETURN DO;
      100    14706    2      CALL INDEX (J,')',OUT$SYM.TEXT)
      101    14707    3      WHENRETURN DO;
      102    14708    4         IF (J>I) THEN DO;
      103    14709    4            PROCNAME.TXT = SUBSTR (OUT$SYM.TEXT,I+1,J-1);
      104    14710    4            PROCNAME.COUNT = J - I + 1;
      105    14711
      106    14712    4            XUH_PARAM.PROCNAME_ = VECTOR (PROCNAME);
      107    14713    4            XUH_PARAM.HELP$ = BLK$ -> OUT$BLK.SUBLK$(0);
      108    14714    4            XUH_PARAM.KEYWORD_ = VECTOR (NIL) ;
      109    14715    4            END; /* If then */
      110    14716    3         ELSE RETURN;
      111    14717    3         END; /* Whenreturn */
      112    14718
      113    14719    3      WHENALTRETURN DO;
      114    14720    3         RETURN;
      115    14721    3         END; /* Whenaltreturn */
      116    14722    2      END; /*  Whenreturn  */
      117    14723
      118    14724    2   WHENALTRETURN DO;
      119    14725    2      HELP_STRING.TXT = SUBSTR (OUT$SYM.TEXT,0,OUT$SYM.COUNT);
      120    14726    2      HELP_STRING.COUNT = OUT$SYM.COUNT;
      121    14727    2      XUH_PARAM.PROCNAME_ = VECTOR (SUP_NAME);
      122    14728    2      XUH_PARAM.HELP$ = ADDR(HELP_STRING);
PL6.E3A0      #001=ASH$HELP File=ASH$HELP.:E05TSI                                TUE 07/29/97 09:51 Page:5
      123    14729    2      XUH_PARAM.KEYWORD_ = VECTOR(NIL);
      124    14730    2      END; /*  Whenaltreturn  */
      125    14731
      126    14732    1   CALL X$HELP (XUH_PARAM) ALTRET (HELP_ERR) ;
      127    14733    1   RETURN;
      128    14734
      129    14735    1   ASH$TOPICS: ENTRY ;
      130    14736
      131    14737    1   XUH_PARAM.TOPICS# = '1'B;
      132    14738    1   CALL X$HELP (XUH_PARAM) ALTRET (HELP_ERR) ;
      133    14739    1   RETURN;
      134    14740
      135    14741    1   ASH$MORE_HELP: ENTRY ;
      136    14742
      137    14743    1   XUH_PARAM.MORE# = '1'B ;
      138    14744    1   CALL X$HELP (XUH_PARAM) ALTRET (HELP_ERR);
      139    14745    1   RETURN;
      140    14746
      141    14747    1   ASH$ALL_HELP: ENTRY ;
      142    14748
      143    14749    1   XUH_PARAM.ALL# = '1'B ;
      144    14750    1   CALL X$HELP (XUH_PARAM) ALTRET (HELP_ERR);
      145    14751    1   RETURN;
      146    14752
      147    14753    1   HELP_ERR:
      148    14754    1   CALL ASH$ERROR( XUH_PARAM.ERR );
      149    14755    1   IF NOT XUH_PARAM.ERR.MON AND XUH_PARAM.ERR.ERR# = %E$BDTOPIC THEN
      150    14756    1      ASH_HELP = '11'B;
      151    14757    1   RETURN;
      152    14758
      153    14759
      154    14760    1   END ASH$HELP;
      155    14761        %EOD ;

PL6.E3A0      #001=ASH$HELP File=ASH$HELP.:E05TSI                                TUE 07/29/97 09:51 Page:6
--  Include file information  --

   AS_SUPER_R.:E05TOU  cannot be made into a system file and is referenced.
   KL_SUPER_C.:E05TOU  is referenced.
   AS_MAC_C.:E05TOU  cannot be made into a system file and is referenced.
   AS_SUBS_C.:E05TOU  is referenced.
   AS_SUPER_C.:E05TOU  is referenced.
   B_ERRORS_C.:E05TOU  is referenced.
   XU_FORMAT_C.:E05TOU  is referenced.
   XU_MACRO_C.:E05TOU  is referenced.
   XU_PERR_C.:E05TOU  is referenced.
   XUH_MACRO_C.:E05TOU  is referenced.
   AS_PERR_C.:E05TOU  is referenced.
   CP_6.:E05TOU  cannot be made into a system file and is referenced.
   AS_ENTRIES_M.:E05TOU  is referenced.
   B$JIT_C.:E05TOU  was found in the system file and is never referenced.
   CP_6_C.:E05TOU  was found in the system file and is referenced.
      No diagnostics issued in procedure ASH$HELP.

   Procedure ASH$HELP requires 125 words for executable code.
   Procedure ASH$HELP requires 24 words of local(AUTO) storage.

PL6.E3A0      #001=ASH$HELP File=ASH$HELP.:E05TSI                                TUE 07/29/97 09:51 Page:7

 Object Unit name= ASH$HELP                                   File name= ASH$HELP.:E05TOU
 UTS= JUL 29 '97 09:51:36.04 TUE                              Compiler= PL-6/E31         Sev=      00
 SharedLib= :SHARED_SYSTEM                                    Alt SharedLib=


    ****  Control sections  ****

 Sect   Type Bound  Init  Size OctSiz  Section name(segment info)
    0   DCB   even  none     0      0  M$UC
    1   DCB   even  none     0      0  M$LO
    2   DCB   even  none     0      0  M$DO
    3   Data  even  none    58     72  ASH$HELP
    4  RoData even  UTS      4      4  ASH$HELP
    5   Proc  even  none   125    175  ASH$HELP
    6  RoData even  none    10     12  ASH$HELP

    ****  Entry defs  ****

                              Check   Calling
                             calling  sequence
  Sect OctLoc Primary Altret sequence   type   Parms  Name
     5      0   yes            yes      Std        0  ASH$HELP
     5    124                  yes      Std        0  ASH$TOPICS
     5    135                  yes      Std        0  ASH$MORE_HELP
     5    146                  yes      Std        0  ASH$ALL_HELP

  ****  Entry refs  ****

         Check        Calling
        calling       sequence
Altret sequence SRef   type   Args  Name
         yes          ~proc      0 XU_OUTPUT_OPTIONS
 yes     yes           Std       1 X$HELP
         yes           Std       2 ASH$ERROR
                       nStd      0 X66_AUTO_0
                       nStd      0 X66_ARET
                       Std       0 B_CONSPOOL_D
PL6.E3A0      #001=ASH$HELP File=ASH$HELP.:E05TSI                                TUE 07/29/97 09:51 Page:8

  ****  Data refs  ****

  Flags:  r = read only, s = secondary
Flgs Name                             Flgs Name                             Flgs Name
     M$UC                             r    AS_MODE                          r    AS_FE_MODE
     M$LO                                  ERR_CODE                              REMEM_VAR
     REM_FCMD                              ASA_BRKS_LOC                          FILE_ACCT
     P_PCB                                 M$DO                                  ASH_HELP
     B_VECTNIL

  ****  Segment refs  ****

  Flags:  r = read only, s = secondary
Flgs Name                             Flgs Name                             Flgs Name
     ISSID                                 NULLSID
PL6.E3A0      #001=ASH$HELP File=ASH$HELP.:E05TSI                                TUE 07/29/97 09:51 Page:9


        1        1        /*M* ASH$HELP:  EXTERNAL ROUTINE TO HANDLE 'HELP', 'ERROR', AND 'FAIL'  */
        2        2        /*T***********************************************************/
        3        3        /*T*                                                         */
        4        4        /*T* Copyright (c) Bull HN Information Systems Inc., 1997    */
        5        5        /*T*                                                         */
        6        6        /*T***********************************************************/
        7        7        /*X*  DMC,DMR,CCC,PLM=0,IND=3,CTI=5,DCI=6,IAD=0,DTI=0,IDT=0,ENI=3,
        8        8              ECU=3,CSU=3,SDI=3                                           */
        9        9
       10       10        ASH$HELP: PROC;

     10  5 000000   000000 700200 xent  ASH$HELP     TSX0  ! X66_AUTO_0
         5 000001   000030 000000                    ZERO    24,0

       11       11
       12       12        /*********************************************************************/
       13       13        /*   Include files   include files   include files   include files   */
       14       14        /*********************************************************************/
       15       15
       16       16        %INCLUDE AS_ENTRIES_M;
       17     1066        %INCLUDE CP_6;
       18     1147        %INCLUDE AS_PERR_C;
       19     1749        %INCLUDE XUH_MACRO_C ;
       20     1833        %INCLUDE XU_PERR_C ;
       21     2024        %INCLUDE XU_MACRO_C ;
       22     5130        %INCLUDE XU_FORMAT_C ;
       23     5292        %INCLUDE B_ERRORS_C ;
       24     6419        %INCLUDE AS_SUPER_C ;
       25     6854        %INCLUDE AS_SUBS_C ;
       26     8268        %INCLUDE AS_MAC_C ;
       27     8348        %INCLUDE KL_SUPER_C ;
       28    11250        %INCLUDE AS_SUPER_R ;
       29    14266
       30    14267        /**********************************************************************/
       31    14268        /*   Based data   based data   based data   based data   based data   */
       32    14269        /**********************************************************************/
PL6.E3A0      #001=ASH$HELP File=ASH$HELP.:E05TSI                                TUE 07/29/97 09:51 Page:10
       33    14270        %PARSE$OUT (NAME = OUT$BLK, STCLASS = BASED) ;
       34    14315        %PARSE$SYM (NAME=OUT$SYM, STCLASS="BASED (BLK$)");
       35    14353        /*****************************************************************/
       36    14354        /*    Entry dcls   entry dcls   entry dcls   entry dcls   entry dcls   */
       37    14355        /**********************************************************************/
       38    14356        %ASH$ERROR ;
       39    14359    1   DCL X$HELP ENTRY(1) ALTRET ;
       40    14360        /********************************************************************/
       41    14361        /*   Dcbs   dcbs   dcbs   dcbs   dcbs   dcbs   dcbs   dcbs   dcbs   */
       42    14362        /********************************************************************/
       43    14363
       44    14364    1   DCL M$DO DCB ;
       45    14365
       46    14366        /***************************************************************************/
       47    14367        /*   Static data   static data   static data   static data   static data   */
       48    14368        /***************************************************************************/
       49    14369
       50    14370        %XUH_PARAM (NAME = XUH_PARAM ,
       51    14371                    PROCNAME = VLP_SUPER,
       52    14372                    PROCACCT = FILE_ACCT ,
       53    14373                    OUTDCB1 = M$LO ,
       54    14374                    OUTDCB2 = M$DO ,
       55    14375                    STCLASS = STATIC) ;
       56    14436        %VLP_NAME (FPTN = VLP_SUPER,
       57    14437                    NAME = 'SUPER',
       58    14438                    LEN = 5 ,
       59    14439                    STCLASS = CONSTANT) ;
       60    14466
       61    14467        /***************************************************************************/
       62    14468        /*   Symref        symref        symref        symref        symref        */
       63    14469        /***************************************************************************/
       64    14470
       65    14471    1   DCL 1 ASH_HELP SYMREF,
       66    14472    1          2 LAST BIT(1) UNAL,
       67    14473    1          2 TOPICS BIT(1) UNAL;
       68    14474        %P$PCB( NAME=ASH_LAST_PCB, STCLASS=SYMREF );
       69    14675        %EJECT;
PL6.E3A0      #001=ASH$HELP File=ASH$HELP.:E05TSI                                TUE 07/29/97 09:51 Page:11
       70    14676        /*******************************************************************/
       71    14677        /*   Auto data   auto data   auto data   auto data   auto data     */
       72    14678        /*******************************************************************/
       73    14679    1   DCL I  SBIN;
       74    14680    1   DCL J  SBIN;
       75    14681    1   DCL BLK$  PTR;
       76    14682    1   DCL 1 HELP_STRING,
       77    14683    1          2 COUNT UBIN  BYTE UNAL,
       78    14684    1          2 TXT   CHAR(31) CALIGNED;
       79    14685    1   DCL 1 PROCNAME,
       80    14686    1          2 COUNT UBIN  BYTE UNAL,
       81    14687    1          2 TXT   CHAR(24) CALIGNED;
       82    14688    1   DCL 1 SUP_NAME CONSTANT,
       83    14689    1          2 COUNT UBIN BYTE UNAL INIT(5),
       84    14690    1          2 TXT  CHAR(5) CALIGNED INIT('SUPER');
       85    14691        %EJECT;
PL6.E3A0      #001=ASH$HELP File=ASH$HELP.:E05TSI                                TUE 07/29/97 09:51 Page:12
       86    14692        /*****************************************************************************/
       87    14693        /*   Procedure   procedure   procedure   procedure   procedure   procedure   */
       88    14694        /*****************************************************************************/
       89    14695    1   ASH_HELP = '1'B;

  14695  5 000002   400000 236003                    LDQ     -131072,DU
         5 000003   000000 756000 xsym               STQ     ASH_HELP

       90    14696    1   BLK$ = P_PCB.OUT$;

  14696  5 000004   000003 236000 xsym               LDQ     P_PCB+3
         5 000005   200005 756100                    STQ     BLK$,,AUTO

       91    14697    1   XUH_PARAM.TOPICS# = '0'B;

  14697  5 000006   000000 236000 6                  LDQ     0
         5 000007   000012 356000 3                  ANSQ    XUH_PARAM+10

       92    14698    2   DO WHILE (OUT$SYM.CODE ~= HELP_VAL);

  14698  5 000010   200005 470500                    LDP0    BLK$,,AUTO
         5 000011   000000 720100                    LXL0    0,,PR0
         5 000012   000456 100003                    CMPX0   302,DU
         5 000013   000026 600000 5                  TZE     s:14702

       93    14699    2      IF (OUT$SYM.NSUBLKS = 0) THEN RETURN;

  14699  5 000014   200005 470500                    LDP0    BLK$,,AUTO
         5 000015   000001 220100                    LDX0    1,,PR0
         5 000016   000020 601000 5                  TNZ     s:14700

  14699  5 000017   000000 702200 xent               TSX2  ! X66_ARET

       94    14700    2      BLK$ = BLK$ -> OUT$BLK.SUBLK$(0);

  14700  5 000020   000003 236100                    LDQ     3,,PR0
         5 000021   200005 756100                    STQ     BLK$,,AUTO
PL6.E3A0      #001=ASH$HELP File=ASH$HELP.:E05TSI                                TUE 07/29/97 09:51 Page:13

       95    14701    2      END;  /* While */

  14701  5 000022   200005 470500                    LDP0    BLK$,,AUTO
         5 000023   000000 720100                    LXL0    0,,PR0
         5 000024   000456 100003                    CMPX0   302,DU
         5 000025   000014 601000 5                  TNZ     s:14699

       96    14702    1   BLK$ = BLK$ -> OUT$BLK.SUBLK$(0);

  14702  5 000026   000003 236100                    LDQ     3,,PR0
         5 000027   200005 756100                    STQ     BLK$,,AUTO

       97    14703        /*     BLK$ = P_PCB.OUT$ -> OUT$BLK.SUBLK$(0); */
       98    14704    1   CALL INDEX (I, '(', OUT$SYM.TEXT)

  14704  5 000030   200005 470500                    LDP0    BLK$,,AUTO
         5 000031   000004 236100                    LDQ     4,,PR0
         5 000032   000033 772000                    QRL     27
         5 000033   000000 620006                    EAX0    0,QL
         5 000034   000000 124540                    SCM     mask='000'O
         5 000035   000004 200010                    ADSC9   4,,PR0                   cn=1,n=*X0
         5 000036   000001 000001 6                  ADSC9   1                        cn=0,n=1
         5 000037   200003 000100                    ARG     I,,AUTO
         5 000040   000100 606400 5                  TTN     s:14725

       99    14705    2   WHENRETURN DO;

      100    14706    2      CALL INDEX (J,')',OUT$SYM.TEXT)

  14706  5 000041   000000 124540                    SCM     mask='000'O
         5 000042   000004 200010                    ADSC9   4,,PR0                   cn=1,n=*X0
         5 000043   000002 000001 6                  ADSC9   2                        cn=0,n=1
         5 000044   200004 000100                    ARG     J,,AUTO
         5 000045   000076 606400 5                  TTN     s:14720

      101    14707    3      WHENRETURN DO;
PL6.E3A0      #001=ASH$HELP File=ASH$HELP.:E05TSI                                TUE 07/29/97 09:51 Page:14

      102    14708    4         IF (J>I) THEN DO;

  14708  5 000046   200004 236100                    LDQ     J,,AUTO
         5 000047   200003 116100                    CMPQ    I,,AUTO
         5 000050   000074 604400 5                  TMOZ    s:14716

      103    14709    4            PROCNAME.TXT = SUBSTR (OUT$SYM.TEXT,I+1,J-1);

  14709  5 000051   777777 621006                    EAX1    -1,QL
         5 000052   200003 235100                    LDA     I,,AUTO
         5 000053   040100 100545                    MLR     fill='040'O
         5 000054   000004 400011                    ADSC9   4,A,PR0                  cn=2,n=*X1
         5 000055   200016 200030                    ADSC9   PROCNAME,,AUTO           cn=1,n=24

      104    14710    4            PROCNAME.COUNT = J - I + 1;

  14710  5 000056   200003 136100                    SBLQ    I,,AUTO
         5 000057   000001 036007                    ADLQ    1,DL
         5 000060   000033 736000                    QLS     27
         5 000061   200016 552140                    STBQ    PROCNAME,'40'O,AUTO

      105    14711
      106    14712    4            XUH_PARAM.PROCNAME_ = VECTOR (PROCNAME);

  14712  5 000062   000003 235000 6                  LDA     3
         5 000063   200026 452500                    STP2    PROCNAME+8,,AUTO
         5 000064   200026 236100                    LDQ     PROCNAME+8,,AUTO
         5 000065   000016 036003                    ADLQ    14,DU
         5 000066   000000 757000 3                  STAQ    XUH_PARAM

      107    14713    4            XUH_PARAM.HELP$ = BLK$ -> OUT$BLK.SUBLK$(0);

  14713  5 000067   000003 236100                    LDQ     3,,PR0
         5 000070   000011 756000 3                  STQ     XUH_PARAM+9

      108    14714    4            XUH_PARAM.KEYWORD_ = VECTOR (NIL) ;
PL6.E3A0      #001=ASH$HELP File=ASH$HELP.:E05TSI                                TUE 07/29/97 09:51 Page:15

  14714  5 000071   000004 237000 6                  LDAQ    4
         5 000072   000006 757000 3                  STAQ    XUH_PARAM+6

      109    14715    4            END; /* If then */

  14715  5 000073   000075 710000 5                  TRA     s:14716+1

      110    14716    3         ELSE RETURN;

  14716  5 000074   000000 702200 xent               TSX2  ! X66_ARET
         5 000075   000077 710000 5                  TRA     s:14722

      111    14717    3         END; /* Whenreturn */
      112    14718
      113    14719    3      WHENALTRETURN DO;

      114    14720    3         RETURN;

  14720  5 000076   000000 702200 xent               TSX2  ! X66_ARET

      115    14721    3         END; /* Whenaltreturn */
      116    14722    2      END; /*  Whenreturn  */

  14722  5 000077   000117 710000 5                  TRA     s:14732

      117    14723
      118    14724    2   WHENALTRETURN DO;

      119    14725    2      HELP_STRING.TXT = SUBSTR (OUT$SYM.TEXT,0,OUT$SYM.COUNT);

  14725  5 000100   200005 470500                    LDP0    BLK$,,AUTO
         5 000101   000004 236100                    LDQ     4,,PR0
         5 000102   000033 772000                    QRL     27
         5 000103   000000 620006                    EAX0    0,QL
         5 000104   040100 100540                    MLR     fill='040'O
         5 000105   000004 200010                    ADSC9   4,,PR0                   cn=1,n=*X0
PL6.E3A0      #001=ASH$HELP File=ASH$HELP.:E05TSI                                TUE 07/29/97 09:51 Page:16
         5 000106   200006 200037                    ADSC9   HELP_STRING,,AUTO        cn=1,n=31

      120    14726    2      HELP_STRING.COUNT = OUT$SYM.COUNT;

  14726  5 000107   000004 236100                    LDQ     4,,PR0
         5 000110   200006 552140                    STBQ    HELP_STRING,'40'O,AUTO

      121    14727    2      XUH_PARAM.PROCNAME_ = VECTOR (SUP_NAME);

  14727  5 000111   000006 237000 6                  LDAQ    6
         5 000112   000000 757000 3                  STAQ    XUH_PARAM

      122    14728    2      XUH_PARAM.HELP$ = ADDR(HELP_STRING);

  14728  5 000113   200006 631500                    EPPR1   HELP_STRING,,AUTO
         5 000114   000011 451400 3                  STP1    XUH_PARAM+9

      123    14729    2      XUH_PARAM.KEYWORD_ = VECTOR(NIL);

  14729  5 000115   000004 237000 6                  LDAQ    4
         5 000116   000006 757000 3                  STAQ    XUH_PARAM+6

      124    14730    2      END; /*  Whenaltreturn  */

      125    14731
      126    14732    1   CALL X$HELP (XUH_PARAM) ALTRET (HELP_ERR) ;

  14732  5 000117   000010 630400 6                  EPPR0   8
         5 000120   000017 631400 xsym               EPPR1   B_VECTNIL+15
         5 000121   000000 701000 xent               TSX1    X$HELP
         5 000122   000157 702000 5                  TSX2    HELP_ERR

      127    14733    1   RETURN;

  14733  5 000123   000000 702200 xent               TSX2  ! X66_ARET

      128    14734
PL6.E3A0      #001=ASH$HELP File=ASH$HELP.:E05TSI                                TUE 07/29/97 09:51 Page:17
      129    14735    1   ASH$TOPICS: ENTRY ;

  14735  5 000124   000000 700200 xent  ASH$TOPICS   TSX0  ! X66_AUTO_0
         5 000125   000030 000000                    ZERO    24,0

      130    14736
      131    14737    1   XUH_PARAM.TOPICS# = '1'B;

  14737  5 000126   000100 236003                    LDQ     64,DU
         5 000127   000012 256000 3                  ORSQ    XUH_PARAM+10

      132    14738    1   CALL X$HELP (XUH_PARAM) ALTRET (HELP_ERR) ;

  14738  5 000130   000010 630400 6                  EPPR0   8
         5 000131   000017 631400 xsym               EPPR1   B_VECTNIL+15
         5 000132   000000 701000 xent               TSX1    X$HELP
         5 000133   000157 702000 5                  TSX2    HELP_ERR

      133    14739    1   RETURN;

  14739  5 000134   000000 702200 xent               TSX2  ! X66_ARET

      134    14740
      135    14741    1   ASH$MORE_HELP: ENTRY ;

  14741  5 000135   000000 700200 xent  ASH$MORE_HE* TSX0  ! X66_AUTO_0
         5 000136   000030 000000                    ZERO    24,0

      136    14742
      137    14743    1   XUH_PARAM.MORE# = '1'B ;

  14743  5 000137   000200 236003                    LDQ     128,DU
         5 000140   000012 256000 3                  ORSQ    XUH_PARAM+10

      138    14744    1   CALL X$HELP (XUH_PARAM) ALTRET (HELP_ERR);

  14744  5 000141   000010 630400 6                  EPPR0   8
PL6.E3A0      #001=ASH$HELP File=ASH$HELP.:E05TSI                                TUE 07/29/97 09:51 Page:18
         5 000142   000017 631400 xsym               EPPR1   B_VECTNIL+15
         5 000143   000000 701000 xent               TSX1    X$HELP
         5 000144   000157 702000 5                  TSX2    HELP_ERR

      139    14745    1   RETURN;

  14745  5 000145   000000 702200 xent               TSX2  ! X66_ARET

      140    14746
      141    14747    1   ASH$ALL_HELP: ENTRY ;

  14747  5 000146   000000 700200 xent  ASH$ALL_HELP TSX0  ! X66_AUTO_0
         5 000147   000030 000000                    ZERO    24,0

      142    14748
      143    14749    1   XUH_PARAM.ALL# = '1'B ;

  14749  5 000150   000400 236003                    LDQ     256,DU
         5 000151   000012 256000 3                  ORSQ    XUH_PARAM+10

      144    14750    1   CALL X$HELP (XUH_PARAM) ALTRET (HELP_ERR);

  14750  5 000152   000010 630400 6                  EPPR0   8
         5 000153   000017 631400 xsym               EPPR1   B_VECTNIL+15
         5 000154   000000 701000 xent               TSX1    X$HELP
         5 000155   000157 702000 5                  TSX2    HELP_ERR

      145    14751    1   RETURN;

  14751  5 000156   000000 702200 xent               TSX2  ! X66_ARET

      146    14752
      147    14753    1   HELP_ERR:
      148    14754    1   CALL ASH$ERROR( XUH_PARAM.ERR );

  14754  5 000157   000011 630400 6     HELP_ERR     EPPR0   9
         5 000160   000017 631400 xsym               EPPR1   B_VECTNIL+15
PL6.E3A0      #001=ASH$HELP File=ASH$HELP.:E05TSI                                TUE 07/29/97 09:51 Page:19
         5 000161   000000 701000 xent               TSX1    ASH$ERROR
         5 000162   000000 011000                    NOP     0

      149    14755    1   IF NOT XUH_PARAM.ERR.MON AND XUH_PARAM.ERR.ERR# = %E$BDTOPIC THEN

  14755  5 000163   000013 236000 3                  LDQ     XUH_PARAM+11
         5 000164   400000 316007                    CANQ    -131072,DL
         5 000165   000174 601000 5                  TNZ     s:14757
         5 000166   000013 236000 3                  LDQ     XUH_PARAM+11
         5 000167   377770 376007                    ANQ     131064,DL
         5 000170   004550 116007                    CMPQ    2408,DL
         5 000171   000174 601000 5                  TNZ     s:14757

      150    14756    1      ASH_HELP = '11'B;

  14756  5 000172   600000 236003                    LDQ     -65536,DU
         5 000173   000000 756000 xsym               STQ     ASH_HELP

      151    14757    1   RETURN;

  14757  5 000174   000000 702200 xent               TSX2  ! X66_ARET
      152    14758
      153    14759
      154    14760    1   END ASH$HELP;
      155    14761        %EOD ;

PL6.E3A0      #001=ASH$HELP File=ASH$HELP.:E05TSI                                TUE 07/29/97 09:51 Page:20
--  Include file information  --

   AS_SUPER_R.:E05TOU  cannot be made into a system file and is referenced.
   KL_SUPER_C.:E05TOU  is referenced.
   AS_MAC_C.:E05TOU  cannot be made into a system file and is referenced.
   AS_SUBS_C.:E05TOU  is referenced.
   AS_SUPER_C.:E05TOU  is referenced.
   B_ERRORS_C.:E05TOU  is referenced.
   XU_FORMAT_C.:E05TOU  is referenced.
   XU_MACRO_C.:E05TOU  is referenced.
   XU_PERR_C.:E05TOU  is referenced.
   XUH_MACRO_C.:E05TOU  is referenced.
   AS_PERR_C.:E05TOU  is referenced.
   CP_6.:E05TOU  cannot be made into a system file and is referenced.
   AS_ENTRIES_M.:E05TOU  is referenced.
   B$JIT_C.:E05TOU  was found in the system file and is never referenced.
   CP_6_C.:E05TOU  was found in the system file and is referenced.
      No diagnostics issued in procedure ASH$HELP.
PL6.E3A0      #001=ASH$HELP File=ASH$HELP.:E05TSI                                TUE 07/29/97 09:51 Page:21

 **** Variables and constants ****

  ****  Section 003  Data  ASH$HELP

  ****  Scalars and arrays  ****
OctLoc.c.b A Datatyp(siz) R M Lvl/name                 OctLoc.c.b A Datatyp(siz) R M Lvl/name

     0-0-0/d STRC(2052)  r     1 XUH_PARAM

  ****  Section 004 RoData ASH$HELP

  ****  Scalars and arrays  ****
OctLoc.c.b A Datatyp(siz) R M Lvl/name                 OctLoc.c.b A Datatyp(siz) R M Lvl/name

     2-0-0/c STRC(54)    r     1 SUP_NAME                   0-0-0/c STRC(54)    r     1 VLP_SUPER

  ****  Auto variables  ****

  ****  Scalars and arrays  ****
OctLoc.c.b A Datatyp(siz) R M Lvl/name                 OctLoc.c.b A Datatyp(siz) R M Lvl/name

     5-0-0/w PTR         r     1 BLK$                       6-0-0/c STRC(288)   r     1 HELP_STRING
     3-0-0/w SBIN        r     1 I                          4-0-0/w SBIN        r     1 J
    16-0-0/c STRC(225)   r     1 PROCNAME

  ****  SYMREF variables  ****

  ****  Scalars and arrays  ****
OctLoc.c.b A Datatyp(siz) R M Lvl/name                 OctLoc.c.b A Datatyp(siz) R M Lvl/name

     0-0-0/b STRC(2)     r     1 ASH_HELP                   0-0-0/c STRC(72)    r     1 FILE_ACCT
     0-0-0/w STRC(504)   r     1 P_PCB

  ****  BASED and DCB variables  ****

  ****  Scalars and arrays  ****
OctLoc.c.b A Datatyp(siz) R M Lvl/name                 OctLoc.c.b A Datatyp(siz) R M Lvl/name
PL6.E3A0      #001=ASH$HELP File=ASH$HELP.:E05TSI                                TUE 07/29/97 09:51 Page:22

     0-0-0N  NULL        r     1 M$DO                       0-0-0N  NULL        r     1 M$LO
     0-0-0/w STRC(144)   r     1 OUT$BLK                    0-0-0/w ASTR(153)   r     1 OUT$SYM


   Procedure ASH$HELP requires 125 words for executable code.
   Procedure ASH$HELP requires 24 words of local(AUTO) storage.
PL6.E3A0      #001=ASH$HELP File=ASH$HELP.:E05TSI                                TUE 07/29/97 09:51 Page:23
          *** CROSS REFERENCE LISTING ***
**     DENOTES     IDENTIFIER DEFINITION
<<                 IDENTIFIER'S VALUE SET
>>                 IDENTIFIER'S VALUE USED
<>                 IDENTIFIER SET AND/OR USED
--                 IDENTIFIER REFERENCED
PL6.E3A0      #001=ASH$HELP File=ASH$HELP.:E05TSI                                TUE 07/29/97 09:51 Page:24
          MINI XREF LISTING

ASA_BRKS_LOC
     11414**DCL     11414--REDEF
ASH$ERROR
     14357**DCL-ENT 14754--CALL
ASH_HELP
     14471**DCL     14695<<ASSIGN  14756<<ASSIGN
AS_DEFAULT.BANNER_PERM
     12107**DCL     12108--REDEF
AS_DEFAULT.BUDGET.MACCT
     12012**DCL     12016--REDEF
AS_DEFAULT.BUDGET.MAX_PROJECTS
     12025**DCL     12028--REDEF
AS_DEFAULT.BUDGET.PACCUM
     12008**DCL     12010--REDEF
AS_DEFAULT.BUDGET.PMAXC
     12003**DCL     12005--REDEF
AS_DEFAULT.SETUP_CHRA.TXT
     12123**DCL     12124--REDEF   12125--REDEF
AS_DEFAULT_DREC.PASSWORD
     13377**DCL     13381--REDEF
AS_DEFAULT_DREC.RENAME
     13400**DCL     13401--REDEF
AS_DFLT.BANNER_PERM
     11929**DCL     11930--REDEF
AS_DFLT.BUDGET.MACCT
     11834**DCL     11838--REDEF
AS_DFLT.BUDGET.MAX_PROJECTS
     11847**DCL     11850--REDEF
AS_DFLT.BUDGET.PACCUM
     11830**DCL     11832--REDEF
AS_DFLT.BUDGET.PMAXC
     11825**DCL     11827--REDEF
PL6.E3A0      #001=ASH$HELP File=ASH$HELP.:E05TSI                                TUE 07/29/97 09:51 Page:25
AS_DFLT.SETUP_CHRA.TXT
     11945**DCL     11946--REDEF   11947--REDEF
AS_FE_MODE
     11280**DCL     11281--REDEF
AS_MODE
     11277**DCL     11279--REDEF
AS_MOD_USER.ACCESS
     14142**DCL     14143--REDEF
AS_MOD_USER.BANNER
     14129**DCL     14130--REDEF
AS_MOD_USER.BANNER_PERM
     14131**DCL     14132--REDEF
AS_MOD_USER.BILL
     14137**DCL     14138--REDEF
AS_MOD_USER.CPROC
     14133**DCL     14134--REDEF
AS_MOD_USER.FEBILL
     14213**DCL     14214--REDEF
AS_MOD_USER.FECXTMEM
     14230**DCL     14231--REDEF
AS_MOD_USER.FEMINTS
     14215**DCL     14216--REDEF
AS_MOD_USER.FEMMEM
     14226**DCL     14227--REDEF
AS_MOD_USER.FEMTIME
     14224**DCL     14225--REDEF
AS_MOD_USER.FEPPRIV
     14221**DCL     14223--REDEF
AS_MOD_USER.FEPRIV
     14218**DCL     14220--REDEF
AS_MOD_USER.FORCE_BIT
     14127**DCL     14128--REDEF
AS_MOD_USER.KEY
     14209**DCL     14211--REDEF
AS_MOD_USER.LASTCPROC
     14135**DCL     14136--REDEF
PL6.E3A0      #001=ASH$HELP File=ASH$HELP.:E05TSI                                TUE 07/29/97 09:51 Page:26
AS_MOD_USER.LIMITS.DO_
     14183**DCL     14184--REDEF
AS_MOD_USER.LIMITS.FPOOLS
     14199**DCL     14200--REDEF
AS_MOD_USER.LIMITS.LO
     14179**DCL     14180--REDEF
AS_MOD_USER.LIMITS.MEM
     14175**DCL     14176--REDEF
AS_MOD_USER.LIMITS.MPRIO
     14203**DCL     14204--REDEF
AS_MOD_USER.LIMITS.PDIS
     14191**DCL     14192--REDEF
AS_MOD_USER.LIMITS.PO
     14187**DCL     14188--REDEF
AS_MOD_USER.LIMITS.TDIS
     14195**DCL     14196--REDEF
AS_MOD_USER.LIMITS.TIME
     14171**DCL     14172--REDEF
AS_MOD_USER.MAXENQ
     14152**DCL     14153--REDEF
AS_MOD_USER.PERM_BIT
     14125**DCL     14126--REDEF
AS_MOD_USER.PPRIV
     14147**DCL     14149--REDEF
AS_MOD_USER.PRIOB
     14154**DCL     14155--REDEF
AS_MOD_USER.PRIV
     14144**DCL     14146--REDEF
AS_MOD_USER.QUAN
     14150**DCL     14151--REDEF
AS_MOD_USER.SETUP
     14123**DCL     14124--REDEF
AS_PROJECT.BANNER_PERM
     12463**DCL     12464--REDEF
AS_PROJECT.BUDGET.MACCT
     12368**DCL     12372--REDEF
PL6.E3A0      #001=ASH$HELP File=ASH$HELP.:E05TSI                                TUE 07/29/97 09:51 Page:27
AS_PROJECT.BUDGET.MAX_PROJECTS
     12381**DCL     12384--REDEF
AS_PROJECT.BUDGET.PACCUM
     12364**DCL     12366--REDEF
AS_PROJECT.BUDGET.PMAXC
     12359**DCL     12361--REDEF
AS_PROJECT.SETUP_CHRA.TXT
     12479**DCL     12480--REDEF   12481--REDEF
AS_PROJECT_DFLT.BANNER_PERM
     12641**DCL     12642--REDEF
AS_PROJECT_DFLT.BUDGET.MACCT
     12546**DCL     12550--REDEF
AS_PROJECT_DFLT.BUDGET.MAX_PROJECTS
     12559**DCL     12562--REDEF
AS_PROJECT_DFLT.BUDGET.PACCUM
     12542**DCL     12544--REDEF
AS_PROJECT_DFLT.BUDGET.PMAXC
     12537**DCL     12539--REDEF
AS_PROJECT_DFLT.SETUP_CHRA.TXT
     12657**DCL     12658--REDEF   12659--REDEF
AS_PROJECT_DFLT_DREC.PASSWORD
     13863**DCL     13867--REDEF
AS_PROJECT_DFLT_DREC.RENAME
     13886**DCL     13887--REDEF
AS_PROJECT_DREC.PASSWORD
     13701**DCL     13705--REDEF
AS_PROJECT_DREC.RENAME
     13724**DCL     13725--REDEF
AS_PROJ_ADMIN.BANNER_PERM
     12285**DCL     12286--REDEF
AS_PROJ_ADMIN.BUDGET.MACCT
     12190**DCL     12194--REDEF
AS_PROJ_ADMIN.BUDGET.MAX_PROJECTS
     12203**DCL     12206--REDEF
AS_PROJ_ADMIN.BUDGET.PACCUM
     12186**DCL     12188--REDEF
PL6.E3A0      #001=ASH$HELP File=ASH$HELP.:E05TSI                                TUE 07/29/97 09:51 Page:28
AS_PROJ_ADMIN.BUDGET.PMAXC
     12181**DCL     12183--REDEF
AS_PROJ_ADMIN.SETUP_CHRA.TXT
     12301**DCL     12302--REDEF   12303--REDEF
AS_PROJ_ADMIN_DREC.PASSWORD
     13539**DCL     13543--REDEF
AS_PROJ_ADMIN_DREC.RENAME
     13562**DCL     13563--REDEF
AS_USERS.BANNER_PERM
     11751**DCL     11752--REDEF
AS_USERS.BUDGET.MACCT
     11656**DCL     11660--REDEF
AS_USERS.BUDGET.MAX_PROJECTS
     11669**DCL     11672--REDEF
AS_USERS.BUDGET.PACCUM
     11652**DCL     11654--REDEF
AS_USERS.BUDGET.PMAXC
     11647**DCL     11649--REDEF
AS_USERS.SETUP_CHRA.TXT
     11767**DCL     11768--REDEF   11769--REDEF
AS_USERS_CONSTANT.BANNER_PERM
     12819**DCL     12820--REDEF
AS_USERS_CONSTANT.BUDGET.MACCT
     12724**DCL     12728--REDEF
AS_USERS_CONSTANT.BUDGET.MAX_PROJECTS
     12737**DCL     12740--REDEF
AS_USERS_CONSTANT.BUDGET.PACCUM
     12720**DCL     12722--REDEF
AS_USERS_CONSTANT.BUDGET.PMAXC
     12715**DCL     12717--REDEF
AS_USERS_CONSTANT.SETUP_CHRA.TXT
     12835**DCL     12836--REDEF   12837--REDEF
BLK$
     14681**DCL     14322--IMP-PTR 14696<<ASSIGN  14698>>DOWHILE 14699>>IF      14700<<ASSIGN  14700>>ASSIGN
     14702<<ASSIGN  14702>>ASSIGN  14704>>CALLBLT 14704>>CALLBLT 14706>>CALLBLT 14706>>CALLBLT 14709>>ASSIGN
     14709>>ASSIGN  14713>>ASSIGN  14725>>ASSIGN  14725>>ASSIGN  14725>>ASSIGN  14726>>ASSIGN
PL6.E3A0      #001=ASH$HELP File=ASH$HELP.:E05TSI                                TUE 07/29/97 09:51 Page:29
ERR_CODE
     11409**DCL     11410--REDEF
FILE_ACCT
     11417**DCL     14400--DCLINIT
HELP_ERR
     14754**LABEL   14732--CALLALT 14738--CALLALT 14744--CALLALT 14750--CALLALT
HELP_STRING
     14682**DCL     14728--ASSIGN
HELP_STRING.COUNT
     14683**DCL     14726<<ASSIGN
HELP_STRING.TXT
     14684**DCL     14725<<ASSIGN
I
     14679**DCL     14704<<CALLBLT 14708>>IF      14709>>ASSIGN  14710>>ASSIGN
J
     14680**DCL     14706<<CALLBLT 14708>>IF      14709>>ASSIGN  14710>>ASSIGN
KL_DEFAULT.PASSWORD
     14025**DCL     14029--REDEF
KL_DEFAULT.RENAME
     14048**DCL     14049--REDEF
KL_DFLT.PASSWORD
     13215**DCL     13219--REDEF
KL_DFLT.RENAME
     13238**DCL     13239--REDEF
KL_DREC.PASSWORD
     13053**DCL     13057--REDEF
KL_DREC.RENAME
     13076**DCL     13077--REDEF
KL_DREC_CNT.PASSWORD
     12940**DCL     12944--REDEF
KL_DREC_CNT.RENAME
     12963**DCL     12964--REDEF
OUT$BLK.SUBLK$
     14309**DCL     14700>>ASSIGN  14702>>ASSIGN  14713>>ASSIGN
OUT$SYM.CODE
     14328**DCL     14698>>DOWHILE
PL6.E3A0      #001=ASH$HELP File=ASH$HELP.:E05TSI                                TUE 07/29/97 09:51 Page:30
OUT$SYM.COUNT
     14345**DCL     14348--IMP-SIZ 14704>>CALLBLT 14706>>CALLBLT 14709>>ASSIGN  14725>>ASSIGN  14725>>ASSIGN
     14726>>ASSIGN
OUT$SYM.NSUBLKS
     14331**DCL     14699>>IF
OUT$SYM.TEXT
     14348**DCL     14704>>CALLBLT 14706>>CALLBLT 14709>>ASSIGN  14725>>ASSIGN
PROCNAME
     14685**DCL     14712--ASSIGN
PROCNAME.COUNT
     14686**DCL     14710<<ASSIGN
PROCNAME.TXT
     14687**DCL     14709<<ASSIGN
PROJ_KEY.TEXT
     11287**DCL     11287--REDEF
PROJ_KEY.TXT.PROJECT
     11287**DCL     11287--REDEF
P_PCB.OUT$
     11455**DCL     14696>>ASSIGN
REMEM_VAR
     11413**DCL     11413--REDEF
REM_FCMD
     11413**DCL     11414--REDEF
SUP_NAME
     14688**DCL     14727--ASSIGN
USERS_KEY.TEXT
     11284**DCL     11285--REDEF   11285--REDEF   11285--REDEF   11286--REDEF
VLP_SUPER
     14464**DCL     14399--DCLINIT
X$HELP
     14359**DCL-ENT 14732--CALL    14738--CALL    14744--CALL    14750--CALL
XUH_PARAM
     14395**DCL     14732<>CALL    14738<>CALL    14744<>CALL    14750<>CALL
XUH_PARAM.ALL#
     14407**DCL     14749<<ASSIGN
XUH_PARAM.ERR
PL6.E3A0      #001=ASH$HELP File=ASH$HELP.:E05TSI                                TUE 07/29/97 09:51 Page:31
     14412**DCL     14754<>CALL
XUH_PARAM.ERR.ERR#
     14416**DCL     14755>>IF
XUH_PARAM.ERR.MON
     14415**DCL     14755>>IF
XUH_PARAM.HELP$
     14405**DCL     14713<<ASSIGN  14728<<ASSIGN
XUH_PARAM.KEYWORD_
     14402**DCL     14714<<ASSIGN  14729<<ASSIGN
XUH_PARAM.MORE#
     14408**DCL     14743<<ASSIGN
XUH_PARAM.PROCNAME_
     14399**DCL     14712<<ASSIGN  14727<<ASSIGN
XUH_PARAM.TOPICS#
     14409**DCL     14697<<ASSIGN  14737<<ASSIGN

PL6.E3A0      #002=ASH$ERROR File=ASH$HELP.:E05TSI                               TUE 07/29/97 09:53 Page:32
      156        1        /*T***********************************************************/
      157        2        /*T*                                                         */
      158        3        /*T* Copyright (c) Bull HN Information Systems Inc., 1997    */
      159        4        /*T*                                                         */
      160        5        /*T***********************************************************/
      161        6        ASH$ERROR: PROC(ERR_CODE_2, FIELD1) ;
      162        7        %EJECT ;
PL6.E3A0      #002=ASH$ERROR File=ASH$HELP.:E05TSI                               TUE 07/29/97 09:53 Page:33
      163        8        /********************************************************************/
      164        9        /*   Parameters      parameters      parameters      parameters      */
      165       10        /*********************************************************************/
      166       11
      167       12    1   DCL 1 ERR_CODE_2 ALIGNED ,
      168       13    1          2 FCG BIT(12) UNAL ,
      169       14    1          2 MID BIT(6) UNAL ,
      170       15    1          2 CODE UBIN(15) UNAL ,
      171       16    1          2 SEV UBIN(3) UNAL ;
      172       17    1   DCL 1 FIELD1 ALIGNED ,
      173       18    1          2 CNT UBIN(9) UNAL ,
      174       19    1          2 TEXT CHAR(40) UNAL ;
      175       20        %EJECT ;
PL6.E3A0      #002=ASH$ERROR File=ASH$HELP.:E05TSI                               TUE 07/29/97 09:53 Page:34
      176       21        /********************************************************************/
      177       22        /*   Include files   include files   include files   include files   */
      178       23        /*********************************************************************/
      179       24
      180       25        %INCLUDE AS_ENTRIES_M;
      181     1075        %INCLUDE CP_6;
      182     1156        %INCLUDE AS_PERR_C;
      183     1758        %INCLUDE XU_PERR_C ;
      184     1949        %INCLUDE XU_MACRO_C ;
      185     5055        %INCLUDE XU_FORMAT_C ;
      186     5217        %INCLUDE B_ERRORS_C ;
      187     6344        %INCLUDE AS_SUPER_C ;
      188     6779        %INCLUDE AS_SUBS_C ;
      189     8193        %INCLUDE AS_MAC_C ;
      190     8273        %INCLUDE KL_SUPER_C ;
      191    11175        %INCLUDE AS_SUPER_R ;
      192    14191
      193    14192        /********************************************************************/
      194    14193        /*    Entry dcls      entry dcls      entry dcls      entry dcls    */
      195    14194        /********************************************************************/
      196    14195
      197    14196        %ASB$WRITE_LO ;
      198    14199        %ASH$MORE_HELP ;
      199    14202        %ASH$ALL_HELP ;
      200    14205        %ASH$TOPICS ;
      201    14208    1   DCL X$PARSE ENTRY(1) ALTRET;
      202    14209        %ASH$U_PARSE ;
      203    14212
      204    14213        /*********************************************************************/
      205    14214        /*   Static data     static data     static data     static data     */
      206    14215        /*********************************************************************/
      207    14216
      208    14217        %FPT_WRITE( FPTN=WRITE_LO, BUF=OUT_BUF, DCB=M$LO );
      209    14248        %P_PCB( NAME=ASH_LAST_PCB, WSZ=1024, N#=140, T=LAST_LINE,
      210    14249                U$=ASH$U_PARSE, USERPTR=WRITE_LO );
      211    14448    1   DCL LAST_LINE CHAR(140) STATIC INIT( ' ' );
      212    14449    1   DCL WORK(0:1023) UBIN;
PL6.E3A0      #002=ASH$ERROR File=ASH$HELP.:E05TSI                               TUE 07/29/97 09:53 Page:35
      213    14450    1   DCL SYNTAX_ERR BIT(1) STATIC INIT( '0'B );
      214    14451    1   DCL 1 ASH_HELP STATIC SYMDEF,
      215    14452    1          2 LAST BIT(1) UNAL INIT('1'B),
      216    14453    1          2 TOPICS BIT(1) UNAL INIT('1'B);
      217    14454    1   DCL M$DO DCB;
      218    14455        %FPT_ERRMSG(BUF = ERR_BUF ,
      219    14456                    FILENAME = ERRMSG_FILE ,
      220    14457                    FILEACCT = ERRMSG_ACCT ,
      221    14458                    CODE = ERR_CODE ,
      222    14459                    FIELD1 = AS_FIELD1,
      223    14460                    FIELD2 = AS_FIELD2,
      224    14461                    FIELD3 = AS_FIELD3,
      225    14462                    OUTDCB1 = M$LO ,
      226    14463                    OUTDCB2 = M$DO ,
      227    14464                    SUBMESS = YES ,
      228    14465                    INCLCODE = NO ,
      229    14466                    STCLASS = STATIC SYMDEF,
      230    14467                    RESULTS = VLR_ERRMSG) ;
      231    14494    1   DCL ERR_BUF CHAR(120) STATIC ;
      232    14495        %VLR_ERRMSG ;
      233    14517        %VLP_NAME( FPTN=ERRMSG_FILE, NAME=':ERRMSG',STCLASS=STATIC SYMDEF );
      234    14544        %VLP_ACCT( FPTN=ERRMSG_ACCT, ACCT=':SYS', STCLASS=STATIC SYMDEF );
      235    14557        %EJECT ;
PL6.E3A0      #002=ASH$ERROR File=ASH$HELP.:E05TSI                               TUE 07/29/97 09:53 Page:36
      236    14558        /********************************************************************/
      237    14559        /*   Procedure       procedure       procedure       procedure       */
      238    14560        /*********************************************************************/
      239    14561
      240    14562    1   IF ( ERR_CODE_2.FCG = '3025'O /* Xu */  AND  ERR_CODE_2.CODE = %E$SYNERR )
      241    14563    1        OR
      242    14564    1        ( ERR_CODE_2.FCG = '0123'O /* As */ AND ERR_CODE_2.CODE = E$INVALID_COMMAND )
      243    14565    2   THEN DO;
      244    14566    2      FPT_ERRMSG.V.POINTER# = P_PCB.HI_CHAR + PROMPT_CNT + 1;
      245    14567    2      LAST_LINE = IN_BUF;
      246    14568    2      ASH_LAST_PCB.NCHARS = P_PCB.NCHARS;
      247    14569    2      ASH_LAST_PCB.ROOT$ = P_PCB.ROOT$;
      248    14570    2      SYNTAX_ERR = AS_TRUE;
      249    14571    2      END;
      250    14572    1   ELSE
      251    14573    1      SYNTAX_ERR = AS_FALSE;
      252    14574    1   ERR_CNT = ERR_CNT + 1 ;
      253    14575    1   GOTO WRITE_ERRMSG;
      254    14576
      255    14577    1   ASH$WARN: ENTRY(ERR_CODE_2, FIELD1) ;
      256    14578
      257    14579    1   WARN_CNT = WARN_CNT + 1 ;
      258    14580    1   GOTO WRITE_ERRMSG;
      259    14581
      260    14582    1   ASH$DQUEST: ENTRY;
      261    14583
      262    14584    2   IF ASH_HELP THEN DO;
      263    14585    2      IF ASH_HELP.TOPICS THEN
      264    14586    2         CALL ASH$TOPICS;
      265    14587    2      ELSE
      266    14588    2         CALL ASH$ALL_HELP;
      267    14589    2      RETURN;
      268    14590    2      END;
      269    14591    1   IF SYNTAX_ERR THEN GOTO REPORT_NXT;
      270    14592    1   IF ERR_CODE = '0'B THEN RETURN;
      271    14593    1   ERR_CODE.SEV = 7;
      272    14594    1   GOTO WRITE_ERRMSG;
PL6.E3A0      #002=ASH$ERROR File=ASH$HELP.:E05TSI                               TUE 07/29/97 09:53 Page:37
      273    14595
      274    14596    1   ASH$QUEST: ENTRY;
      275    14597
      276    14598    1   IF ERR_CODE = '0'B AND NOT ASH_HELP THEN
      277    14599    1      ASH_HELP = '11'B;
      278    14600    2   IF ASH_HELP THEN DO;
      279    14601    2      IF ASH_HELP.TOPICS THEN
      280    14602    2         CALL ASH$TOPICS;
      281    14603    2      ELSE
      282    14604    2         CALL ASH$MORE_HELP;
      283    14605    2      RETURN;
      284    14606    2      END;
      285    14607    2   IF SYNTAX_ERR THEN DO;
      286    14608    2   REPORT_NXT:
      287    14609    2      ASH_LAST_PCB.WORK$ = ADDR(WORK);
      288    14610    2      CALL X$PARSE( ASH_LAST_PCB ) ALTRET( ALT );
      289    14611    2      RETURN;
      290    14612    2   ALT: CALL ASB$WRITE_LO( 'Acceptable input here is:', 25 );
      291    14613    2      ASH_LAST_PCB.NXT = AS_TRUE;
      292    14614    2      CALL X$PARSE( ASH_LAST_PCB );
      293    14615    2      ASH_LAST_PCB.NXT = AS_FALSE;
      294    14616    2      RETURN;
      295    14617    2      END;
      296    14618    1   IF ERR_CODE = '0'B THEN RETURN;
      297    14619    1   IF ERR_CODE.SEV < 7 THEN ERR_CODE.SEV = ERR_CODE.SEV + 1;
      298    14620    1   GOTO WRITE_ERRMSG;
      299    14621
      300    14622    1   ASH$INFO: ENTRY(ERR_CODE_2,  FIELD1) ;
      301    14623
      302    14624    1   WRITE_ERRMSG:
      303    14625    1   ASH_HELP = '0'B;
      304    14626    1   IF ADDR(ERR_CODE_2) ~= ADDR(NIL) THEN ERR_CODE = ERR_CODE_2;
      305    14627    1   IF ADDR(FIELD1) ~= ADDR(NIL) THEN AS_FIELD1 = FIELD1;
      306    14628    2   IF AS_DCBNUM# ~= DCBNUM(NIL) THEN DO;
      307    14629    2      FPT_ERRMSG.V.DCB# = AS_DCBNUM#;
      308    14630    2      AS_DCBNUM# = DCBNUM(NIL);
      309    14631    2      END;
PL6.E3A0      #002=ASH$ERROR File=ASH$HELP.:E05TSI                               TUE 07/29/97 09:53 Page:38
      310    14632    1   CALL M$ERRMSG(FPT_ERRMSG) ALTRET(ERR_ALT1) ;
      311    14633    1   ERR_ALT1:
      312    14634    1   FPT_ERRMSG.V.POINTER# = 0;
      313    14635    1   RETURN ;
      314    14636
      315    14637    1   END   ASH$ERROR ;
      316    14638        %EOD ;

PL6.E3A0      #002=ASH$ERROR File=ASH$HELP.:E05TSI                               TUE 07/29/97 09:53 Page:39
--  Include file information  --

   AS_SUPER_R.:E05TOU  cannot be made into a system file and is referenced.
   KL_SUPER_C.:E05TOU  is referenced.
   AS_MAC_C.:E05TOU  cannot be made into a system file and is referenced.
   AS_SUBS_C.:E05TOU  is referenced.
   AS_SUPER_C.:E05TOU  is referenced.
   B_ERRORS_C.:E05TOU  is referenced.
   XU_FORMAT_C.:E05TOU  is referenced.
   XU_MACRO_C.:E05TOU  is referenced.
   XU_PERR_C.:E05TOU  is referenced.
   AS_PERR_C.:E05TOU  is referenced.
   CP_6.:E05TOU  cannot be made into a system file and is referenced.
   AS_ENTRIES_M.:E05TOU  is referenced.
   B$JIT_C.:E05TOU  was found in the system file and is never referenced.
   CP_6_C.:E05TOU  was found in the system file and is referenced.
      No diagnostics issued in procedure ASH$ERROR.

   Procedure ASH$ERROR requires 161 words for executable code.
   Procedure ASH$ERROR requires 1030 words of local(AUTO) storage.

PL6.E3A0      #002=ASH$ERROR File=ASH$HELP.:E05TSI                               TUE 07/29/97 09:53 Page:40

 Object Unit name= ASH$ERROR                                  File name= ASH$HELP.:E05TOU
 UTS= JUL 29 '97 09:53:26.76 TUE                              Compiler= PL-6/E31         Sev=      00
 SharedLib= :SHARED_SYSTEM                                    Alt SharedLib=


    ****  Control sections  ****

 Sect   Type Bound  Init  Size OctSiz  Section name(segment info)
    0   DCB   even  none     0      0  M$UC
    1   DCB   even  none     0      0  M$LO
    2   Data  even  none   128    200  ASH$ERROR
    3   DCB   even  none     0      0  M$DO
    4  RoData even  UTS      7      7  ASH$ERROR
    5   Proc  even  none   161    241  ASH$ERROR
    6  RoData even  none     4      4  ASH$ERROR

    ****  Entry defs  ****

                              Check   Calling
                             calling  sequence
  Sect OctLoc Primary Altret sequence   type   Parms  Name
     5      0   yes            yes      Std        2  ASH$ERROR
     5     52                  yes      Std        2  ASH$WARN
     5     60                  yes      Std        0  ASH$DQUEST
     5    107                  yes      Std        0  ASH$QUEST
     5    205                  yes      Std        2  ASH$INFO

  ****  Data defs  ****

 Sect OctLoc  Name                           Sect OctLoc  Name
    2     14  ASH_LAST_PCB                       2     76  ASH_HELP
    2    100  FPT_ERRMSG                         2    174  ERRMSG_FILE
    2    176  ERRMSG_ACCT
PL6.E3A0      #002=ASH$ERROR File=ASH$HELP.:E05TSI                               TUE 07/29/97 09:53 Page:41

  ****  Entry refs  ****

         Check        Calling
        calling       sequence
Altret sequence SRef   type   Args  Name
         yes          ~proc      0 XU_OUTPUT_OPTIONS
         yes           Std       1 ASH$U_PARSE
         yes           Std       2 ASB$WRITE_LO
         yes           Std       0 ASH$TOPICS
         yes           Std       0 ASH$MORE_HELP
         yes           Std       0 ASH$ALL_HELP
 yes     yes           Std       1 X$PARSE
                       nStd      0 X66_AUTO_2
                       Std       0 B_CONSPOOL_D
                       nStd      0 X66_ARET

  ****  Data refs  ****

  Flags:  r = read only, s = secondary
Flgs Name                             Flgs Name                             Flgs Name
     M$UC                             r    AS_TRUE                          r    AS_FALSE
r    AS_MODE                          r    AS_FE_MODE                            M$LO
     IN_BUF                                OUT_BUF                               ERR_CODE
     AS_FIELD1                             AS_FIELD2                             AS_FIELD3
     REMEM_VAR                             REM_FCMD                              ASA_BRKS_LOC
     PROMPT_CNT                            ERR_CNT                               WARN_CNT
     AS_DCBNUM#                            P_PCB                                 M$DO
     B_VECTNIL

  ****  Segment refs  ****

  Flags:  r = read only, s = secondary
Flgs Name                             Flgs Name                             Flgs Name
     ISSID                                 NULLSID
PL6.E3A0      #002=ASH$ERROR File=ASH$HELP.:E05TSI                               TUE 07/29/97 09:53 Page:42


      156        1        /*T***********************************************************/
      157        2        /*T*                                                         */
      158        3        /*T* Copyright (c) Bull HN Information Systems Inc., 1997    */
      159        4        /*T*                                                         */
      160        5        /*T***********************************************************/
      161        6        ASH$ERROR: PROC(ERR_CODE_2, FIELD1) ;

      6  5 000000   000000 700200 xent  ASH$ERROR    TSX0  ! X66_AUTO_2
         5 000001   002006 000002                    ZERO    1030,2

      162        7        %EJECT ;
PL6.E3A0      #002=ASH$ERROR File=ASH$HELP.:E05TSI                               TUE 07/29/97 09:53 Page:43
      163        8        /********************************************************************/
      164        9        /*   Parameters      parameters      parameters      parameters      */
      165       10        /*********************************************************************/
      166       11
      167       12    1   DCL 1 ERR_CODE_2 ALIGNED ,
      168       13    1          2 FCG BIT(12) UNAL ,
      169       14    1          2 MID BIT(6) UNAL ,
      170       15    1          2 CODE UBIN(15) UNAL ,
      171       16    1          2 SEV UBIN(3) UNAL ;
      172       17    1   DCL 1 FIELD1 ALIGNED ,
      173       18    1          2 CNT UBIN(9) UNAL ,
      174       19    1          2 TEXT CHAR(40) UNAL ;
      175       20        %EJECT ;
PL6.E3A0      #002=ASH$ERROR File=ASH$HELP.:E05TSI                               TUE 07/29/97 09:53 Page:44
      176       21        /********************************************************************/
      177       22        /*   Include files   include files   include files   include files   */
      178       23        /*********************************************************************/
      179       24
      180       25        %INCLUDE AS_ENTRIES_M;
      181     1075        %INCLUDE CP_6;
      182     1156        %INCLUDE AS_PERR_C;
      183     1758        %INCLUDE XU_PERR_C ;
      184     1949        %INCLUDE XU_MACRO_C ;
      185     5055        %INCLUDE XU_FORMAT_C ;
      186     5217        %INCLUDE B_ERRORS_C ;
      187     6344        %INCLUDE AS_SUPER_C ;
      188     6779        %INCLUDE AS_SUBS_C ;
      189     8193        %INCLUDE AS_MAC_C ;
      190     8273        %INCLUDE KL_SUPER_C ;
      191    11175        %INCLUDE AS_SUPER_R ;
      192    14191
      193    14192        /********************************************************************/
      194    14193        /*    Entry dcls      entry dcls      entry dcls      entry dcls    */
      195    14194        /********************************************************************/
      196    14195
      197    14196        %ASB$WRITE_LO ;
      198    14199        %ASH$MORE_HELP ;
      199    14202        %ASH$ALL_HELP ;
      200    14205        %ASH$TOPICS ;
      201    14208    1   DCL X$PARSE ENTRY(1) ALTRET;
      202    14209        %ASH$U_PARSE ;
      203    14212
      204    14213        /*********************************************************************/
      205    14214        /*   Static data     static data     static data     static data     */
      206    14215        /*********************************************************************/
      207    14216
      208    14217        %FPT_WRITE( FPTN=WRITE_LO, BUF=OUT_BUF, DCB=M$LO );
      209    14248        %P_PCB( NAME=ASH_LAST_PCB, WSZ=1024, N#=140, T=LAST_LINE,
      210    14249                U$=ASH$U_PARSE, USERPTR=WRITE_LO );
      211    14448    1   DCL LAST_LINE CHAR(140) STATIC INIT( ' ' );
      212    14449    1   DCL WORK(0:1023) UBIN;
PL6.E3A0      #002=ASH$ERROR File=ASH$HELP.:E05TSI                               TUE 07/29/97 09:53 Page:45
      213    14450    1   DCL SYNTAX_ERR BIT(1) STATIC INIT( '0'B );
      214    14451    1   DCL 1 ASH_HELP STATIC SYMDEF,
      215    14452    1          2 LAST BIT(1) UNAL INIT('1'B),
      216    14453    1          2 TOPICS BIT(1) UNAL INIT('1'B);
      217    14454    1   DCL M$DO DCB;
      218    14455        %FPT_ERRMSG(BUF = ERR_BUF ,
      219    14456                    FILENAME = ERRMSG_FILE ,
      220    14457                    FILEACCT = ERRMSG_ACCT ,
      221    14458                    CODE = ERR_CODE ,
      222    14459                    FIELD1 = AS_FIELD1,
      223    14460                    FIELD2 = AS_FIELD2,
      224    14461                    FIELD3 = AS_FIELD3,
      225    14462                    OUTDCB1 = M$LO ,
      226    14463                    OUTDCB2 = M$DO ,
      227    14464                    SUBMESS = YES ,
      228    14465                    INCLCODE = NO ,
      229    14466                    STCLASS = STATIC SYMDEF,
      230    14467                    RESULTS = VLR_ERRMSG) ;
      231    14494    1   DCL ERR_BUF CHAR(120) STATIC ;
      232    14495        %VLR_ERRMSG ;
      233    14517        %VLP_NAME( FPTN=ERRMSG_FILE, NAME=':ERRMSG',STCLASS=STATIC SYMDEF );
      234    14544        %VLP_ACCT( FPTN=ERRMSG_ACCT, ACCT=':SYS', STCLASS=STATIC SYMDEF );
      235    14557        %EJECT ;
PL6.E3A0      #002=ASH$ERROR File=ASH$HELP.:E05TSI                               TUE 07/29/97 09:53 Page:46
      236    14558        /********************************************************************/
      237    14559        /*   Procedure       procedure       procedure       procedure       */
      238    14560        /*********************************************************************/
      239    14561
      240    14562    1   IF ( ERR_CODE_2.FCG = '3025'O /* Xu */  AND  ERR_CODE_2.CODE = %E$SYNERR )

  14562  5 000002   200003 470500                    LDP0    @ERR_CODE_2,,AUTO
         5 000003   000000 236100                    LDQ     0,,PR0
         5 000004   777700 376003                    ANQ     -64,DU
         5 000005   302500 116003                    CMPQ    99648,DU
         5 000006   000013 601000 5                  TNZ     s:14562+9
         5 000007   000000 236100                    LDQ     0,,PR0
         5 000010   777770 376007                    ANQ     -8,DL
         5 000011   000010 116007                    CMPQ    8,DL
         5 000012   000023 600000 5                  TZE     s:14566
         5 000013   000000 236100                    LDQ     0,,PR0
         5 000014   777700 376003                    ANQ     -64,DU
         5 000015   012300 116003                    CMPQ    5312,DU
         5 000016   000043 601000 5                  TNZ     s:14573
         5 000017   000000 236100                    LDQ     0,,PR0
         5 000020   777770 376007                    ANQ     -8,DL
         5 000021   000010 116007                    CMPQ    8,DL
         5 000022   000043 601000 5                  TNZ     s:14573

      241    14563    1        OR
      242    14564    1        ( ERR_CODE_2.FCG = '0123'O /* As */ AND ERR_CODE_2.CODE = E$INVALID_COMMAND )
      243    14565    2   THEN DO;

      244    14566    2      FPT_ERRMSG.V.POINTER# = P_PCB.HI_CHAR + PROMPT_CNT + 1;

  14566  5 000023   000012 236000 xsym               LDQ     P_PCB+10
         5 000024   000000 036000 xsym               ADLQ    PROMPT_CNT
         5 000025   000001 036007                    ADLQ    1,DL
         5 000026   000022 736000                    QLS     18
         5 000027   000130 552020 2                  STBQ    FPT_ERRMSG+24,'20'O

      245    14567    2      LAST_LINE = IN_BUF;
PL6.E3A0      #002=ASH$ERROR File=ASH$HELP.:E05TSI                               TUE 07/29/97 09:53 Page:47

  14567  5 000030   040000 100400                    MLR     fill='040'O
         5 000031   000000 000214 xsym               ADSC9   IN_BUF                   cn=0,n=140
         5 000032   000032 000214 2                  ADSC9   LAST_LINE                cn=0,n=140

      246    14568    2      ASH_LAST_PCB.NCHARS = P_PCB.NCHARS;

  14568  5 000033   000011 235000 xsym               LDA     P_PCB+9
         5 000034   000025 755000 2                  STA     ASH_LAST_PCB+9

      247    14569    2      ASH_LAST_PCB.ROOT$ = P_PCB.ROOT$;

  14569  5 000035   000001 236000 xsym               LDQ     P_PCB+1
         5 000036   000015 756000 2                  STQ     ASH_LAST_PCB+1

      248    14570    2      SYNTAX_ERR = AS_TRUE;

  14570  5 000037   000000 236000 xsym               LDQ     AS_TRUE
         5 000040   400000 376003                    ANQ     -131072,DU
         5 000041   000075 756000 2                  STQ     SYNTAX_ERR

      249    14571    2      END;

  14571  5 000042   000046 710000 5                  TRA     s:14574

      250    14572    1   ELSE
      251    14573    1      SYNTAX_ERR = AS_FALSE;

  14573  5 000043   000000 236000 xsym               LDQ     AS_FALSE
         5 000044   400000 376003                    ANQ     -131072,DU
         5 000045   000075 756000 2                  STQ     SYNTAX_ERR

      252    14574    1   ERR_CNT = ERR_CNT + 1 ;

  14574  5 000046   000000 235000 xsym               LDA     ERR_CNT
         5 000047   000001 035007                    ADLA    1,DL
         5 000050   000000 755000 xsym               STA     ERR_CNT
PL6.E3A0      #002=ASH$ERROR File=ASH$HELP.:E05TSI                               TUE 07/29/97 09:53 Page:48

      253    14575    1   GOTO WRITE_ERRMSG;

  14575  5 000051   000207 710000 5                  TRA     WRITE_ERRMSG

      254    14576
      255    14577    1   ASH$WARN: ENTRY(ERR_CODE_2, FIELD1) ;

  14577  5 000052   000000 700200 xent  ASH$WARN     TSX0  ! X66_AUTO_2
         5 000053   002006 000002                    ZERO    1030,2

      256    14578
      257    14579    1   WARN_CNT = WARN_CNT + 1 ;

  14579  5 000054   000000 235000 xsym               LDA     WARN_CNT
         5 000055   000001 035007                    ADLA    1,DL
         5 000056   000000 755000 xsym               STA     WARN_CNT

      258    14580    1   GOTO WRITE_ERRMSG;

  14580  5 000057   000207 710000 5                  TRA     WRITE_ERRMSG

      259    14581
      260    14582    1   ASH$DQUEST: ENTRY;

  14582  5 000060   000000 700200 xent  ASH$DQUEST   TSX0  ! X66_AUTO_2
         5 000061   002006 000002                    ZERO    1030,2

      261    14583
      262    14584    2   IF ASH_HELP THEN DO;

  14584  5 000062   000076 236000 2                  LDQ     ASH_HELP
         5 000063   600000 316003                    CANQ    -65536,DU
         5 000064   000077 600000 5                  TZE     s:14591

      263    14585    2      IF ASH_HELP.TOPICS THEN

PL6.E3A0      #002=ASH$ERROR File=ASH$HELP.:E05TSI                               TUE 07/29/97 09:53 Page:49
  14585  5 000065   200000 316003                    CANQ    65536,DU
         5 000066   000073 600000 5                  TZE     s:14588

      264    14586    2         CALL ASH$TOPICS;

  14586  5 000067   000002 631400 xsym               EPPR1   B_VECTNIL+2
         5 000070   000000 701000 xent               TSX1    ASH$TOPICS
         5 000071   000000 011000                    NOP     0
         5 000072   000076 710000 5                  TRA     s:14589

      265    14587    2      ELSE
      266    14588    2         CALL ASH$ALL_HELP;

  14588  5 000073   000002 631400 xsym               EPPR1   B_VECTNIL+2
         5 000074   000000 701000 xent               TSX1    ASH$ALL_HELP
         5 000075   000000 011000                    NOP     0

      267    14589    2      RETURN;

  14589  5 000076   000000 702200 xent               TSX2  ! X66_ARET

      268    14590    2      END;
      269    14591    1   IF SYNTAX_ERR THEN GOTO REPORT_NXT;

  14591  5 000077   000075 234000 2                  SZN     SYNTAX_ERR
         5 000100   000137 604000 5                  TMI     REPORT_NXT

      270    14592    1   IF ERR_CODE = '0'B THEN RETURN;

  14592  5 000101   000000 235000 xsym               LDA     ERR_CODE
         5 000102   000104 601000 5                  TNZ     s:14593

  14592  5 000103   000000 702200 xent               TSX2  ! X66_ARET

      271    14593    1   ERR_CODE.SEV = 7;

  14593  5 000104   000007 236007                    LDQ     7,DL
PL6.E3A0      #002=ASH$ERROR File=ASH$HELP.:E05TSI                               TUE 07/29/97 09:53 Page:50
         5 000105   000000 256000 xsym               ORSQ    ERR_CODE

      272    14594    1   GOTO WRITE_ERRMSG;

  14594  5 000106   000207 710000 5                  TRA     WRITE_ERRMSG

      273    14595
      274    14596    1   ASH$QUEST: ENTRY;

  14596  5 000107   000000 700200 xent  ASH$QUEST    TSX0  ! X66_AUTO_2
         5 000110   002006 000002                    ZERO    1030,2

      275    14597
      276    14598    1   IF ERR_CODE = '0'B AND NOT ASH_HELP THEN

  14598  5 000111   000000 235000 xsym               LDA     ERR_CODE
         5 000112   000120 601000 5                  TNZ     s:14600
         5 000113   000076 236000 2                  LDQ     ASH_HELP
         5 000114   600000 316003                    CANQ    -65536,DU
         5 000115   000120 601000 5                  TNZ     s:14600

      277    14599    1      ASH_HELP = '11'B;

  14599  5 000116   600000 236003                    LDQ     -65536,DU
         5 000117   000076 756000 2                  STQ     ASH_HELP

      278    14600    2   IF ASH_HELP THEN DO;

  14600  5 000120   000076 236000 2                  LDQ     ASH_HELP
         5 000121   600000 316003                    CANQ    -65536,DU
         5 000122   000135 600000 5                  TZE     s:14607

      279    14601    2      IF ASH_HELP.TOPICS THEN

  14601  5 000123   200000 316003                    CANQ    65536,DU
         5 000124   000131 600000 5                  TZE     s:14604

PL6.E3A0      #002=ASH$ERROR File=ASH$HELP.:E05TSI                               TUE 07/29/97 09:53 Page:51
      280    14602    2         CALL ASH$TOPICS;

  14602  5 000125   000002 631400 xsym               EPPR1   B_VECTNIL+2
         5 000126   000000 701000 xent               TSX1    ASH$TOPICS
         5 000127   000000 011000                    NOP     0
         5 000130   000134 710000 5                  TRA     s:14605

      281    14603    2      ELSE
      282    14604    2         CALL ASH$MORE_HELP;

  14604  5 000131   000002 631400 xsym               EPPR1   B_VECTNIL+2
         5 000132   000000 701000 xent               TSX1    ASH$MORE_HELP
         5 000133   000000 011000                    NOP     0

      283    14605    2      RETURN;

  14605  5 000134   000000 702200 xent               TSX2  ! X66_ARET

      284    14606    2      END;
      285    14607    2   IF SYNTAX_ERR THEN DO;

  14607  5 000135   000075 234000 2                  SZN     SYNTAX_ERR
         5 000136   000171 605000 5                  TPL     s:14618

      286    14608    2   REPORT_NXT:
      287    14609    2      ASH_LAST_PCB.WORK$ = ADDR(WORK);

  14609  5 000137   200005 630500       REPORT_NXT   EPPR0   WORK,,AUTO
         5 000140   000016 450400 2                  STP0    ASH_LAST_PCB+2

      288    14610    2      CALL X$PARSE( ASH_LAST_PCB ) ALTRET( ALT );

  14610  5 000141   000000 630400 6                  EPPR0   0
         5 000142   000017 631400 xsym               EPPR1   B_VECTNIL+15
         5 000143   000000 701000 xent               TSX1    X$PARSE
         5 000144   000146 702000 5                  TSX2    ALT

PL6.E3A0      #002=ASH$ERROR File=ASH$HELP.:E05TSI                               TUE 07/29/97 09:53 Page:52
      289    14611    2      RETURN;

  14611  5 000145   000000 702200 xent               TSX2  ! X66_ARET

      290    14612    2   ALT: CALL ASB$WRITE_LO( 'Acceptable input here is:', 25 );

  14612  5 000146   000002 630400 6     ALT          EPPR0   2
         5 000147   000020 631400 xsym               EPPR1   B_VECTNIL+16
         5 000150   000000 701000 xent               TSX1    ASB$WRITE_LO
         5 000151   000000 011000                    NOP     0

      291    14613    2      ASH_LAST_PCB.NXT = AS_TRUE;

  14613  5 000152   000000 236000 xsym               LDQ     AS_TRUE
         5 000153   000025 772000                    QRL     21
         5 000154   000021 676000 2                  ERQ     ASH_LAST_PCB+5
         5 000155   040000 376007                    ANQ     16384,DL
         5 000156   000021 656000 2                  ERSQ    ASH_LAST_PCB+5

      292    14614    2      CALL X$PARSE( ASH_LAST_PCB );

  14614  5 000157   000000 630400 6                  EPPR0   0
         5 000160   000017 631400 xsym               EPPR1   B_VECTNIL+15
         5 000161   000000 701000 xent               TSX1    X$PARSE
         5 000162   000000 011000                    NOP     0

      293    14615    2      ASH_LAST_PCB.NXT = AS_FALSE;

  14615  5 000163   000000 236000 xsym               LDQ     AS_FALSE
         5 000164   000025 772000                    QRL     21
         5 000165   000021 676000 2                  ERQ     ASH_LAST_PCB+5
         5 000166   040000 376007                    ANQ     16384,DL
         5 000167   000021 656000 2                  ERSQ    ASH_LAST_PCB+5

      294    14616    2      RETURN;

  14616  5 000170   000000 702200 xent               TSX2  ! X66_ARET
PL6.E3A0      #002=ASH$ERROR File=ASH$HELP.:E05TSI                               TUE 07/29/97 09:53 Page:53

      295    14617    2      END;
      296    14618    1   IF ERR_CODE = '0'B THEN RETURN;

  14618  5 000171   000000 115003                    CMPA    0,DU
         5 000172   000174 601000 5                  TNZ     s:14619

  14618  5 000173   000000 702200 xent               TSX2  ! X66_ARET

      297    14619    1   IF ERR_CODE.SEV < 7 THEN ERR_CODE.SEV = ERR_CODE.SEV + 1;

  14619  5 000174   000000 236000 xsym               LDQ     ERR_CODE
         5 000175   000007 376007                    ANQ     7,DL
         5 000176   000007 116007                    CMPQ    7,DL
         5 000177   000204 603000 5                  TRC     s:14620

  14619  5 000200   000001 036007                    ADLQ    1,DL
         5 000201   000000 676000 xsym               ERQ     ERR_CODE
         5 000202   000007 376007                    ANQ     7,DL
         5 000203   000000 656000 xsym               ERSQ    ERR_CODE

      298    14620    1   GOTO WRITE_ERRMSG;

  14620  5 000204   000207 710000 5                  TRA     WRITE_ERRMSG

      299    14621
      300    14622    1   ASH$INFO: ENTRY(ERR_CODE_2,  FIELD1) ;

  14622  5 000205   000000 700200 xent  ASH$INFO     TSX0  ! X66_AUTO_2
         5 000206   002006 000002                    ZERO    1030,2

      301    14623
      302    14624    1   WRITE_ERRMSG:
      303    14625    1   ASH_HELP = '0'B;

  14625  5 000207   000076 450000 2     WRITE_ERRMSG STZ     ASH_HELP

PL6.E3A0      #002=ASH$ERROR File=ASH$HELP.:E05TSI                               TUE 07/29/97 09:53 Page:54
      304    14626    1   IF ADDR(ERR_CODE_2) ~= ADDR(NIL) THEN ERR_CODE = ERR_CODE_2;

  14626  5 000210   200003 236100                    LDQ     @ERR_CODE_2,,AUTO
         5 000211   000001 116000 xsym               CMPQ    B_VECTNIL+1
         5 000212   000216 600000 5                  TZE     s:14627

  14626  5 000213   200003 470500                    LDP0    @ERR_CODE_2,,AUTO
         5 000214   000000 236100                    LDQ     0,,PR0
         5 000215   000000 756000 xsym               STQ     ERR_CODE

      305    14627    1   IF ADDR(FIELD1) ~= ADDR(NIL) THEN AS_FIELD1 = FIELD1;

  14627  5 000216   200004 236100                    LDQ     @FIELD1,,AUTO
         5 000217   000001 116000 xsym               CMPQ    B_VECTNIL+1
         5 000220   000225 600000 5                  TZE     s:14628

  14627  5 000221   200004 470500                    LDP0    @FIELD1,,AUTO
         5 000222   000000 100500                    MLR     fill='000'O
         5 000223   000000 000051                    ADSC9   0,,PR0                   cn=0,n=41
         5 000224   000000 000051 xsym               ADSC9   AS_FIELD1                cn=0,n=41

      306    14628    2   IF AS_DCBNUM# ~= DCBNUM(NIL) THEN DO;

  14628  5 000225   000000 235000 xsym               LDA     AS_DCBNUM#
         5 000226   000232 600000 5                  TZE     s:14632

      307    14629    2      FPT_ERRMSG.V.DCB# = AS_DCBNUM#;

  14629  5 000227   000000 620005                    EAX0    0,AL
         5 000230   000126 740000 2                  STX0    FPT_ERRMSG+22

      308    14630    2      AS_DCBNUM# = DCBNUM(NIL);

  14630  5 000231   000000 450000 xsym               STZ     AS_DCBNUM#

      309    14631    2      END;

PL6.E3A0      #002=ASH$ERROR File=ASH$HELP.:E05TSI                               TUE 07/29/97 09:53 Page:55
      310    14632    1   CALL M$ERRMSG(FPT_ERRMSG) ALTRET(ERR_ALT1) ;

  14632  5 000232   000100 630400 2                  EPPR0   FPT_ERRMSG
         5 000233   420000 713400                    CLIMB   alt,+8192
         5 000234   405000 401760                    pmme    nvectors=11
         5 000235   000236 702000 5                  TSX2    ERR_ALT1

      311    14633    1   ERR_ALT1:
      312    14634    1   FPT_ERRMSG.V.POINTER# = 0;

  14634  5 000236   000000 236003       ERR_ALT1     LDQ     0,DU
         5 000237   000130 552020 2                  STBQ    FPT_ERRMSG+24,'20'O

      313    14635    1   RETURN ;

  14635  5 000240   000000 702200 xent               TSX2  ! X66_ARET
      314    14636
      315    14637    1   END   ASH$ERROR ;
      316    14638        %EOD ;

PL6.E3A0      #002=ASH$ERROR File=ASH$HELP.:E05TSI                               TUE 07/29/97 09:53 Page:56
--  Include file information  --

   AS_SUPER_R.:E05TOU  cannot be made into a system file and is referenced.
   KL_SUPER_C.:E05TOU  is referenced.
   AS_MAC_C.:E05TOU  cannot be made into a system file and is referenced.
   AS_SUBS_C.:E05TOU  is referenced.
   AS_SUPER_C.:E05TOU  is referenced.
   B_ERRORS_C.:E05TOU  is referenced.
   XU_FORMAT_C.:E05TOU  is referenced.
   XU_MACRO_C.:E05TOU  is referenced.
   XU_PERR_C.:E05TOU  is referenced.
   AS_PERR_C.:E05TOU  is referenced.
   CP_6.:E05TOU  cannot be made into a system file and is referenced.
   AS_ENTRIES_M.:E05TOU  is referenced.
   B$JIT_C.:E05TOU  was found in the system file and is never referenced.
   CP_6_C.:E05TOU  was found in the system file and is referenced.
      No diagnostics issued in procedure ASH$ERROR.
PL6.E3A0      #002=ASH$ERROR File=ASH$HELP.:E05TSI                               TUE 07/29/97 09:53 Page:57

 **** Variables and constants ****

  ****  Section 002  Data  ASH$ERROR

  ****  Scalars and arrays  ****
OctLoc.c.b A Datatyp(siz) R M Lvl/name                 OctLoc.c.b A Datatyp(siz) R M Lvl/name

    76-0-0/b STRC(2)     r     1 ASH_HELP                  14-0-0/w STRC(504)   r     1 ASH_LAST_PCB
   176-0-0/c STRC(72)    r     1 ERRMSG_ACCT              174-0-0/c STRC(72)    r     1 ERRMSG_FILE
   132-0-0/c CHAR(120)   r     1 ERR_BUF                  100-0-0/d STRC(936)   r     1 FPT_ERRMSG
    32-0-0/c CHAR(140)   r     1 LAST_LINE                 75-0-0/b BIT         r     1 SYNTAX_ERR
   170-0-0/d STRC(144)   r     1 VLR_ERRMSG                 0-0-0/d STRC(432)   r     1 WRITE_LO

  ****  Auto variables  ****

  ****  Scalars and arrays  ****
OctLoc.c.b A Datatyp(siz) R M Lvl/name                 OctLoc.c.b A Datatyp(siz) R M Lvl/name

     3-0-0/w PTR         r     1 @ERR_CODE_2                4-0-0/w PTR         r     1 @FIELD1
    *0-0-0/w STRC        r     1 ERR_CODE_2                *0-0-0/w STRC(369)   r     1 FIELD1
     5-0-0/w UBIN        r     1 WORK(0:1023)

  ****  SYMREF variables  ****

  ****  Scalars and arrays  ****
OctLoc.c.b A Datatyp(siz) R M Lvl/name                 OctLoc.c.b A Datatyp(siz) R M Lvl/name

     0-0-0/w UBIN        r     1 AS_DCBNUM#                 0-0-0/b BIT         r     1 AS_FALSE
     0-0-0/w STRC(369)   r     1 AS_FIELD1                  0-0-0/w STRC(369)   r     1 AS_FIELD2
     0-0-0/w STRC(369)   r     1 AS_FIELD3                  0-0-0/b BIT         r     1 AS_TRUE
     0-0-0/w UBIN        r     1 ERR_CNT                    0-0-0/b STRC        r     1 ERR_CODE
     0-0-0/c CHAR(255)   r     1 IN_BUF                     0-0-0/c CHAR(140)   r     1 OUT_BUF
     0-0-0/w UBIN        r     1 PROMPT_CNT                 0-0-0/w STRC(504)   r     1 P_PCB
     0-0-0/w UBIN        r     1 WARN_CNT

  ****  BASED and DCB variables  ****

PL6.E3A0      #002=ASH$ERROR File=ASH$HELP.:E05TSI                               TUE 07/29/97 09:53 Page:58
  ****  Scalars and arrays  ****
OctLoc.c.b A Datatyp(siz) R M Lvl/name                 OctLoc.c.b A Datatyp(siz) R M Lvl/name

     0-0-0N  NULL        r     1 M$DO                       0-0-0N  NULL        r     1 M$LO


   Procedure ASH$ERROR requires 161 words for executable code.
   Procedure ASH$ERROR requires 1030 words of local(AUTO) storage.
PL6.E3A0      #002=ASH$ERROR File=ASH$HELP.:E05TSI                               TUE 07/29/97 09:53 Page:59
          *** CROSS REFERENCE LISTING ***
**     DENOTES     IDENTIFIER DEFINITION
<<                 IDENTIFIER'S VALUE SET
>>                 IDENTIFIER'S VALUE USED
<>                 IDENTIFIER SET AND/OR USED
--                 IDENTIFIER REFERENCED
PL6.E3A0      #002=ASH$ERROR File=ASH$HELP.:E05TSI                               TUE 07/29/97 09:53 Page:60
          MINI XREF LISTING

ALT
     14612**LABEL   14610--CALLALT
ASA_BRKS_LOC
     11339**DCL     11339--REDEF
ASB$WRITE_LO
     14197**DCL-ENT 14612--CALL
ASH$ALL_HELP
     14203**DCL-ENT 14588--CALL
ASH$MORE_HELP
     14200**DCL-ENT 14604--CALL
ASH$TOPICS
     14206**DCL-ENT 14586--CALL    14602--CALL
ASH$U_PARSE
     14210**DCL-ENT 14285--DCLINIT
ASH_HELP
     14451**DCL     14584>>IF      14598>>IF      14599<<ASSIGN  14600>>IF      14625<<ASSIGN
ASH_HELP.TOPICS
     14453**DCL     14585>>IF      14601>>IF
ASH_LAST_PCB
     14267**DCL     14610<>CALL    14614<>CALL
ASH_LAST_PCB.NCHARS
     14414**DCL     14568<<ASSIGN
ASH_LAST_PCB.NXT
     14317**DCL     14613<<ASSIGN  14615<<ASSIGN
ASH_LAST_PCB.ROOT$
     14272**DCL     14569<<ASSIGN
ASH_LAST_PCB.WORK$
     14276**DCL     14609<<ASSIGN
AS_DCBNUM#
     11346**DCL     14628>>IF      14629>>ASSIGN  14630<<ASSIGN
AS_DEFAULT.BANNER_PERM
     12032**DCL     12033--REDEF
PL6.E3A0      #002=ASH$ERROR File=ASH$HELP.:E05TSI                               TUE 07/29/97 09:53 Page:61
AS_DEFAULT.BUDGET.MACCT
     11937**DCL     11941--REDEF
AS_DEFAULT.BUDGET.MAX_PROJECTS
     11950**DCL     11953--REDEF
AS_DEFAULT.BUDGET.PACCUM
     11933**DCL     11935--REDEF
AS_DEFAULT.BUDGET.PMAXC
     11928**DCL     11930--REDEF
AS_DEFAULT.SETUP_CHRA.TXT
     12048**DCL     12049--REDEF   12050--REDEF
AS_DEFAULT_DREC.PASSWORD
     13302**DCL     13306--REDEF
AS_DEFAULT_DREC.RENAME
     13325**DCL     13326--REDEF
AS_DFLT.BANNER_PERM
     11854**DCL     11855--REDEF
AS_DFLT.BUDGET.MACCT
     11759**DCL     11763--REDEF
AS_DFLT.BUDGET.MAX_PROJECTS
     11772**DCL     11775--REDEF
AS_DFLT.BUDGET.PACCUM
     11755**DCL     11757--REDEF
AS_DFLT.BUDGET.PMAXC
     11750**DCL     11752--REDEF
AS_DFLT.SETUP_CHRA.TXT
     11870**DCL     11871--REDEF   11872--REDEF
AS_FALSE
     11199**DCL     14573>>ASSIGN  14615>>ASSIGN
AS_FE_MODE
     11205**DCL     11206--REDEF
AS_FIELD1
     11335**DCL     14480--DCLINIT 14627<<ASSIGN
AS_FIELD2
     11336**DCL     14481--DCLINIT
AS_FIELD3
     11336**DCL     14481--DCLINIT
PL6.E3A0      #002=ASH$ERROR File=ASH$HELP.:E05TSI                               TUE 07/29/97 09:53 Page:62
AS_MODE
     11202**DCL     11204--REDEF
AS_MOD_USER.ACCESS
     14067**DCL     14068--REDEF
AS_MOD_USER.BANNER
     14054**DCL     14055--REDEF
AS_MOD_USER.BANNER_PERM
     14056**DCL     14057--REDEF
AS_MOD_USER.BILL
     14062**DCL     14063--REDEF
AS_MOD_USER.CPROC
     14058**DCL     14059--REDEF
AS_MOD_USER.FEBILL
     14138**DCL     14139--REDEF
AS_MOD_USER.FECXTMEM
     14155**DCL     14156--REDEF
AS_MOD_USER.FEMINTS
     14140**DCL     14141--REDEF
AS_MOD_USER.FEMMEM
     14151**DCL     14152--REDEF
AS_MOD_USER.FEMTIME
     14149**DCL     14150--REDEF
AS_MOD_USER.FEPPRIV
     14146**DCL     14148--REDEF
AS_MOD_USER.FEPRIV
     14143**DCL     14145--REDEF
AS_MOD_USER.FORCE_BIT
     14052**DCL     14053--REDEF
AS_MOD_USER.KEY
     14134**DCL     14136--REDEF
AS_MOD_USER.LASTCPROC
     14060**DCL     14061--REDEF
AS_MOD_USER.LIMITS.DO_
     14108**DCL     14109--REDEF
AS_MOD_USER.LIMITS.FPOOLS
     14124**DCL     14125--REDEF
PL6.E3A0      #002=ASH$ERROR File=ASH$HELP.:E05TSI                               TUE 07/29/97 09:53 Page:63
AS_MOD_USER.LIMITS.LO
     14104**DCL     14105--REDEF
AS_MOD_USER.LIMITS.MEM
     14100**DCL     14101--REDEF
AS_MOD_USER.LIMITS.MPRIO
     14128**DCL     14129--REDEF
AS_MOD_USER.LIMITS.PDIS
     14116**DCL     14117--REDEF
AS_MOD_USER.LIMITS.PO
     14112**DCL     14113--REDEF
AS_MOD_USER.LIMITS.TDIS
     14120**DCL     14121--REDEF
AS_MOD_USER.LIMITS.TIME
     14096**DCL     14097--REDEF
AS_MOD_USER.MAXENQ
     14077**DCL     14078--REDEF
AS_MOD_USER.PERM_BIT
     14050**DCL     14051--REDEF
AS_MOD_USER.PPRIV
     14072**DCL     14074--REDEF
AS_MOD_USER.PRIOB
     14079**DCL     14080--REDEF
AS_MOD_USER.PRIV
     14069**DCL     14071--REDEF
AS_MOD_USER.QUAN
     14075**DCL     14076--REDEF
AS_MOD_USER.SETUP
     14048**DCL     14049--REDEF
AS_PROJECT.BANNER_PERM
     12388**DCL     12389--REDEF
AS_PROJECT.BUDGET.MACCT
     12293**DCL     12297--REDEF
AS_PROJECT.BUDGET.MAX_PROJECTS
     12306**DCL     12309--REDEF
AS_PROJECT.BUDGET.PACCUM
     12289**DCL     12291--REDEF
PL6.E3A0      #002=ASH$ERROR File=ASH$HELP.:E05TSI                               TUE 07/29/97 09:53 Page:64
AS_PROJECT.BUDGET.PMAXC
     12284**DCL     12286--REDEF
AS_PROJECT.SETUP_CHRA.TXT
     12404**DCL     12405--REDEF   12406--REDEF
AS_PROJECT_DFLT.BANNER_PERM
     12566**DCL     12567--REDEF
AS_PROJECT_DFLT.BUDGET.MACCT
     12471**DCL     12475--REDEF
AS_PROJECT_DFLT.BUDGET.MAX_PROJECTS
     12484**DCL     12487--REDEF
AS_PROJECT_DFLT.BUDGET.PACCUM
     12467**DCL     12469--REDEF
AS_PROJECT_DFLT.BUDGET.PMAXC
     12462**DCL     12464--REDEF
AS_PROJECT_DFLT.SETUP_CHRA.TXT
     12582**DCL     12583--REDEF   12584--REDEF
AS_PROJECT_DFLT_DREC.PASSWORD
     13788**DCL     13792--REDEF
AS_PROJECT_DFLT_DREC.RENAME
     13811**DCL     13812--REDEF
AS_PROJECT_DREC.PASSWORD
     13626**DCL     13630--REDEF
AS_PROJECT_DREC.RENAME
     13649**DCL     13650--REDEF
AS_PROJ_ADMIN.BANNER_PERM
     12210**DCL     12211--REDEF
AS_PROJ_ADMIN.BUDGET.MACCT
     12115**DCL     12119--REDEF
AS_PROJ_ADMIN.BUDGET.MAX_PROJECTS
     12128**DCL     12131--REDEF
AS_PROJ_ADMIN.BUDGET.PACCUM
     12111**DCL     12113--REDEF
AS_PROJ_ADMIN.BUDGET.PMAXC
     12106**DCL     12108--REDEF
AS_PROJ_ADMIN.SETUP_CHRA.TXT
     12226**DCL     12227--REDEF   12228--REDEF
PL6.E3A0      #002=ASH$ERROR File=ASH$HELP.:E05TSI                               TUE 07/29/97 09:53 Page:65
AS_PROJ_ADMIN_DREC.PASSWORD
     13464**DCL     13468--REDEF
AS_PROJ_ADMIN_DREC.RENAME
     13487**DCL     13488--REDEF
AS_TRUE
     11199**DCL     14570>>ASSIGN  14613>>ASSIGN
AS_USERS.BANNER_PERM
     11676**DCL     11677--REDEF
AS_USERS.BUDGET.MACCT
     11581**DCL     11585--REDEF
AS_USERS.BUDGET.MAX_PROJECTS
     11594**DCL     11597--REDEF
AS_USERS.BUDGET.PACCUM
     11577**DCL     11579--REDEF
AS_USERS.BUDGET.PMAXC
     11572**DCL     11574--REDEF
AS_USERS.SETUP_CHRA.TXT
     11692**DCL     11693--REDEF   11694--REDEF
AS_USERS_CONSTANT.BANNER_PERM
     12744**DCL     12745--REDEF
AS_USERS_CONSTANT.BUDGET.MACCT
     12649**DCL     12653--REDEF
AS_USERS_CONSTANT.BUDGET.MAX_PROJECTS
     12662**DCL     12665--REDEF
AS_USERS_CONSTANT.BUDGET.PACCUM
     12645**DCL     12647--REDEF
AS_USERS_CONSTANT.BUDGET.PMAXC
     12640**DCL     12642--REDEF
AS_USERS_CONSTANT.SETUP_CHRA.TXT
     12760**DCL     12761--REDEF   12762--REDEF
ERRMSG_ACCT
     14555**DCL     14479--DCLINIT
ERRMSG_FILE
     14542**DCL     14479--DCLINIT
ERR_ALT1
     14634**LABEL   14632--CALLALT
PL6.E3A0      #002=ASH$ERROR File=ASH$HELP.:E05TSI                               TUE 07/29/97 09:53 Page:66
ERR_BUF
     14494**DCL     14479--DCLINIT
ERR_CNT
     11342**DCL     14574<<ASSIGN  14574>>ASSIGN
ERR_CODE
     11334**DCL     11335--REDEF   14478--DCLINIT 14592>>IF      14598>>IF      14618>>IF      14626<<ASSIGN
ERR_CODE.SEV
     11334**DCL     14593<<ASSIGN  14619>>IF      14619<<ASSIGN  14619>>ASSIGN
ERR_CODE_2
        12**DCL         6--PROC    14577--ENTRY   14622--ENTRY   14626--IF      14626>>ASSIGN
ERR_CODE_2.CODE
        15**DCL     14562>>IF      14562>>IF
ERR_CODE_2.FCG
        13**DCL     14562>>IF      14562>>IF
FIELD1
        17**DCL         6--PROC    14577--ENTRY   14622--ENTRY   14627--IF      14627>>ASSIGN
FPT_ERRMSG
     14478**DCL     14632<>CALL
FPT_ERRMSG.V
     14482**DCL     14478--DCLINIT
FPT_ERRMSG.V.DCB#
     14482**DCL     14629<<ASSIGN
FPT_ERRMSG.V.POINTER#
     14488**DCL     14566<<ASSIGN  14634<<ASSIGN
IN_BUF
     11330**DCL     14567>>ASSIGN
KL_DEFAULT.PASSWORD
     13950**DCL     13954--REDEF
KL_DEFAULT.RENAME
     13973**DCL     13974--REDEF
KL_DFLT.PASSWORD
     13140**DCL     13144--REDEF
KL_DFLT.RENAME
     13163**DCL     13164--REDEF
KL_DREC.PASSWORD
     12978**DCL     12982--REDEF
PL6.E3A0      #002=ASH$ERROR File=ASH$HELP.:E05TSI                               TUE 07/29/97 09:53 Page:67
KL_DREC.RENAME
     13001**DCL     13002--REDEF
KL_DREC_CNT.PASSWORD
     12865**DCL     12869--REDEF
KL_DREC_CNT.RENAME
     12888**DCL     12889--REDEF
LAST_LINE
     14448**DCL     14268--DCLINIT 14567<<ASSIGN
M$ERRMSG
      1147**DCL-ENT 14632--CALL
OUT_BUF
     11331**DCL     14235--DCLINIT 14236--DCLINIT
PROJ_KEY.TEXT
     11212**DCL     11212--REDEF
PROJ_KEY.TXT.PROJECT
     11212**DCL     11212--REDEF
PROMPT_CNT
     11340**DCL     14566>>ASSIGN
P_PCB.HI_CHAR
     11518**DCL     14566>>ASSIGN
P_PCB.NCHARS
     11514**DCL     14568>>ASSIGN
P_PCB.ROOT$
     11372**DCL     14569>>ASSIGN
REMEM_VAR
     11338**DCL     11338--REDEF
REM_FCMD
     11338**DCL     11339--REDEF
REPORT_NXT
     14609**LABEL   14591--GOTO
SYNTAX_ERR
     14450**DCL     14570<<ASSIGN  14573<<ASSIGN  14591>>IF      14607>>IF
USERS_KEY.TEXT
     11209**DCL     11210--REDEF   11210--REDEF   11210--REDEF   11211--REDEF
VLR_ERRMSG
     14506**DCL     14482--DCLINIT
PL6.E3A0      #002=ASH$ERROR File=ASH$HELP.:E05TSI                               TUE 07/29/97 09:53 Page:68
WARN_CNT
     11342**DCL     14579<<ASSIGN  14579>>ASSIGN
WORK
     14449**DCL     14609--ASSIGN
WRITE_ERRMSG
     14625**LABEL   14575--GOTO    14580--GOTO    14594--GOTO    14620--GOTO
WRITE_LO
     14234**DCL     14434--DCLINIT
WRITE_LO.STATION_
     14236**DCL     14236--REDEF
WRITE_LO.V
     14237**DCL     14234--DCLINIT
WRITE_LO.V.DVBYTE.VFC#
     14243**DCL     14243--REDEF
X$PARSE
     14208**DCL-ENT 14610--CALL    14614--CALL

PL6.E3A0      #003=ASH$U_PARSE File=ASH$HELP.:E05TSI                             TUE 07/29/97 09:55 Page:69
      317        1        /*T***********************************************************/
      318        2        /*T*                                                         */
      319        3        /*T* Copyright (c) Bull HN Information Systems Inc., 1997    */
      320        4        /*T*                                                         */
      321        5        /*T***********************************************************/
      322        6        ASH$U_PARSE: PROC(XU$PARAM) ;
      323        7
      324        8
      325        9
      326       10        /********************************************************************/
      327       11        /*   Include files   include files   include files   include files   */
      328       12        /*********************************************************************/
      329       13
      330       14        %INCLUDE AS_SUBS_C ;
      331     1428        %INCLUDE AS_ENTRIES_M;
      332     2478        %INCLUDE CP_6;
      333     2559        %INCLUDE AS_PERR_C;
      334     3161        %INCLUDE XU_MACRO_C ;
      335     6267        %INCLUDE XU_FORMAT_C ;
      336     6429        %INCLUDE XU_SUBS_C ;
      337     6521        %INCLUDE B_ERRORS_C ;
      338     7648        %INCLUDE AS_SUPER_C ;
      339     8083        %INCLUDE AS_MAC_C ;
      340     8163        %INCLUDE KL_SUPER_C ;
      341    11065        %INCLUDE AS_SUPER_R ;
      342    14081
      343    14082
      344    14083        /********************************************************************/
      345    14084        /*   Parameters      parameters      parameters      parameters      */
      346    14085        /*********************************************************************/
      347    14086
      348    14087        %LIST ;
      349    14088        %SET LISTSUB='1'B;
      350    14089              %PARSE$PARAM(NAME=XU$PARAM) ;
             14090        %PARSE_PARAM (NAME=NAME,STCLASS=STCLASS);
             14091        /*F*  NAME:     PARSE_PARAM
             14092              FUNCTION: a data structure used to communicate between X$PARSE and the
PL6.E3A0      #003=ASH$U_PARSE File=ASH$HELP.:E05TSI                             TUE 07/29/97 09:55 Page:70
             14093                  user's mid-parse intervention routine (see P_PCB.U$$).
             14094        */
             14095         %LSET LISTDIR='0'B;
             14108    1   DCL 1 XU$PARAM ALIGNED,
             14109    1         2 TYPE UBIN(9) UNAL /*(0)/**/,
             14115    1         2 ACCEPT BIT(1) UNAL /*('0'B)/**/,
             14120    1         2 REJECT BIT(1) UNAL /*('0'B)/**/,
             14124    1         2 RETRY BIT(1) UNAL /*('0'B)/**/,
             14128    1         2 * BIT(6) UNAL /*('0'B)/**/,
             14129    1         2 CODE UBIN HALF HALIGNED /*(0)/**/,
             14134    1         2 NODE$ PTR UNAL /*(ADDR(NIL))/**/,
             14138    1         2 OUT$ PTR UNAL /*(ADDR(NIL))/**/,
             14142    1         2 GLOBAL$ PTR UNAL /*(ADDR(NIL))/**/,
             14146    1         2 CHARPOS UBIN WORD /*(0)/**/,
             14152    1         2 PCB$ PTR /*(ADDR(NIL))/**/,
             14156    1         2 USER$ PTR /*(ADDR(NIL))/**/,
             14161    1         2 WKSZ UBIN HALF HALIGNED /*(0)/**/;
      351    14170        %PLIST ;
      352    14171        %EJECT ;
PL6.E3A0      #003=ASH$U_PARSE File=ASH$HELP.:E05TSI                             TUE 07/29/97 09:55 Page:71
      353    14172        /********************************************************************/
      354    14173        /*   Procedure       procedure       procedure       procedure       */
      355    14174        /*********************************************************************/
      356    14175
      357    14176    2   DO SELECT (XU$PARAM.TYPE) ;
      358    14177
      359    14178    2      SELECT ( %PRE# ) ;
      360    14179    2      CALL PRE ;
      361    14180
      362    14181    2      SELECT ( %SUCC# ) ;
      363    14182    2      CALL SUCC ;
      364    14183
      365    14184    2      SELECT ( %FAIL# ) ;
      366    14185    2      CALL FAIL ;
      367    14186
      368    14187    2      END ; /*  Do SELECT(XU$PARAM.TYPE)  */
      369    14188
      370    14189    1   RETURN ;
      371    14190
      372    14191        %EJECT ;
PL6.E3A0      #003=ASH$U_PARSE File=ASH$HELP.:E05TSI                             TUE 07/29/97 09:55 Page:72
      373    14192    1   FAIL: PROC ;
      374    14193
      375    14194
      376    14195    2   END   FAIL ;
      377    14196
      378    14197
      379    14198    1   SUCC: PROC ;
      380    14199
      381    14200    2   RETURN ;
      382    14201    2   END   SUCC ;
      383    14202
      384    14203    1   PRE: PROC ;
      385    14204
      386    14205        %PARSE$OUT( NAME=P$NODE, STCLASS="BASED(NODE$)",
      387    14206                    NDTYPE=TYPE, NSUBLKS=SUBNODES) ;
      388    14251
      389    14252    2   IF CODE = 19  /*  ALPHA_VAL  */ THEN RETURN ;               /*  Alpha-numeric  */
      390    14253
      391    14254
      392    14255    2   CODE = XU$PARAM.CODE ;
      393    14256    2   RETURN ;
      394    14257
      395    14258    2   END   PRE ;
      396    14259
      397    14260    1   END   ASH$U_PARSE ;

PL6.E3A0      #003=ASH$U_PARSE File=ASH$HELP.:E05TSI                             TUE 07/29/97 09:55 Page:73
--  Include file information  --

   AS_SUPER_R.:E05TOU  cannot be made into a system file and is referenced.
   KL_SUPER_C.:E05TOU  is referenced.
   AS_MAC_C.:E05TOU  cannot be made into a system file and is referenced.
   AS_SUPER_C.:E05TOU  is referenced.
   B_ERRORS_C.:E05TOU  is referenced.
   XU_SUBS_C.:E05TOU  is referenced.
   XU_FORMAT_C.:E05TOU  is referenced.
   XU_MACRO_C.:E05TOU  is referenced.
   AS_PERR_C.:E05TOU  is referenced.
   CP_6.:E05TOU  cannot be made into a system file and is referenced.
   AS_ENTRIES_M.:E05TOU  is referenced.
   AS_SUBS_C.:E05TOU  is referenced.
   B$JIT_C.:E05TOU  was found in the system file and is never referenced.
   CP_6_C.:E05TOU  was found in the system file and is referenced.
      No diagnostics issued in procedure ASH$U_PARSE.

   Procedure ASH$U_PARSE requires 40 words for executable code.
   Procedure ASH$U_PARSE requires 6 words of local(AUTO) storage.

    No errors detected in file ASH$HELP.:E05TSI    .

PL6.E3A0      #003=ASH$U_PARSE File=ASH$HELP.:E05TSI                             TUE 07/29/97 09:55 Page:74

 Object Unit name= ASH$U_PARSE                                File name= ASH$HELP.:E05TOU
 UTS= JUL 29 '97 09:55:21.44 TUE                              Compiler= PL-6/E31         Sev=      00
 SharedLib= :SHARED_SYSTEM                                    Alt SharedLib=


    ****  Control sections  ****

 Sect   Type Bound  Init  Size OctSiz  Section name(segment info)
    0   DCB   even  none     0      0  M$UC
    1   DCB   even  none     0      0  M$LO
    2   Proc  even  none    40     50  ASH$U_PARSE

    ****  Entry defs  ****

                              Check   Calling
                             calling  sequence
  Sect OctLoc Primary Altret sequence   type   Parms  Name
     2      0   yes            yes      Std        1  ASH$U_PARSE

  ****  Entry refs  ****

         Check        Calling
        calling       sequence
Altret sequence SRef   type   Args  Name
         yes          ~proc      0 XU_OUTPUT_OPTIONS
                       nStd      0 X66_AUTO_1
                       nStd      0 X66_ARET

  ****  Data refs  ****

  Flags:  r = read only, s = secondary
Flgs Name                             Flgs Name                             Flgs Name
     M$UC                             r    AS_MODE                          r    AS_FE_MODE
     M$LO                                  NODE$                                 CODE
     ERR_CODE                              REMEM_VAR                             REM_FCMD
     ASA_BRKS_LOC
PL6.E3A0      #003=ASH$U_PARSE File=ASH$HELP.:E05TSI                             TUE 07/29/97 09:55 Page:75


      317        1        /*T***********************************************************/
      318        2        /*T*                                                         */
      319        3        /*T* Copyright (c) Bull HN Information Systems Inc., 1997    */
      320        4        /*T*                                                         */
      321        5        /*T***********************************************************/
      322        6        ASH$U_PARSE: PROC(XU$PARAM) ;

      6  2 000000   000000 700200 xent  ASH$U_PARSE  TSX0  ! X66_AUTO_1
         2 000001   000006 000001                    ZERO    6,1

      323        7
      324        8
      325        9
      326       10        /********************************************************************/
      327       11        /*   Include files   include files   include files   include files   */
      328       12        /*********************************************************************/
      329       13
      330       14        %INCLUDE AS_SUBS_C ;
      331     1428        %INCLUDE AS_ENTRIES_M;
      332     2478        %INCLUDE CP_6;
      333     2559        %INCLUDE AS_PERR_C;
      334     3161        %INCLUDE XU_MACRO_C ;
      335     6267        %INCLUDE XU_FORMAT_C ;
      336     6429        %INCLUDE XU_SUBS_C ;
      337     6521        %INCLUDE B_ERRORS_C ;
      338     7648        %INCLUDE AS_SUPER_C ;
      339     8083        %INCLUDE AS_MAC_C ;
      340     8163        %INCLUDE KL_SUPER_C ;
      341    11065        %INCLUDE AS_SUPER_R ;
      342    14081
      343    14082
      344    14083        /********************************************************************/
      345    14084        /*   Parameters      parameters      parameters      parameters      */
      346    14085        /*********************************************************************/
      347    14086
      348    14087        %LIST ;
PL6.E3A0      #003=ASH$U_PARSE File=ASH$HELP.:E05TSI                             TUE 07/29/97 09:55 Page:76
      349    14088        %SET LISTSUB='1'B;
      350    14089              %PARSE$PARAM(NAME=XU$PARAM) ;
             14090        %PARSE_PARAM (NAME=NAME,STCLASS=STCLASS);
             14091        /*F*  NAME:     PARSE_PARAM
             14092              FUNCTION: a data structure used to communicate between X$PARSE and the
             14093                  user's mid-parse intervention routine (see P_PCB.U$$).
             14094        */
             14095         %LSET LISTDIR='0'B;
             14108    1   DCL 1 XU$PARAM ALIGNED,
             14109    1         2 TYPE UBIN(9) UNAL /*(0)/**/,
             14115    1         2 ACCEPT BIT(1) UNAL /*('0'B)/**/,
             14120    1         2 REJECT BIT(1) UNAL /*('0'B)/**/,
             14124    1         2 RETRY BIT(1) UNAL /*('0'B)/**/,
             14128    1         2 * BIT(6) UNAL /*('0'B)/**/,
             14129    1         2 CODE UBIN HALF HALIGNED /*(0)/**/,
             14134    1         2 NODE$ PTR UNAL /*(ADDR(NIL))/**/,
             14138    1         2 OUT$ PTR UNAL /*(ADDR(NIL))/**/,
             14142    1         2 GLOBAL$ PTR UNAL /*(ADDR(NIL))/**/,
             14146    1         2 CHARPOS UBIN WORD /*(0)/**/,
             14152    1         2 PCB$ PTR /*(ADDR(NIL))/**/,
             14156    1         2 USER$ PTR /*(ADDR(NIL))/**/,
             14161    1         2 WKSZ UBIN HALF HALIGNED /*(0)/**/;
      351    14170        %PLIST ;
      352    14171        %EJECT ;
PL6.E3A0      #003=ASH$U_PARSE File=ASH$HELP.:E05TSI                             TUE 07/29/97 09:55 Page:77
      353    14172        /********************************************************************/
      354    14173        /*   Procedure       procedure       procedure       procedure       */
      355    14174        /*********************************************************************/
      356    14175
      357    14176    2   DO SELECT (XU$PARAM.TYPE) ;

  14176  2 000002   200003 470500                    LDP0    @XU$PARAM,,AUTO
         2 000003   000000 236100                    LDQ     0,,PR0
         2 000004   000033 772000                    QRL     27
         2 000005   000002 116007                    CMPQ    2,DL
         2 000006   000014 602000 2                  TNC     s:14176+10
         2 000007   000024 600000 2                  TZE     s:14182
         2 000010   000033 736000                    QLS     27
         2 000011   003000 116003                    CMPQ    1536,DU
         2 000012   000031 601000 2                  TNZ     s:14189
         2 000013   000027 710000 2                  TRA     s:14185
         2 000014   000000 236100                    LDQ     0,,PR0
         2 000015   777000 376003                    ANQ     -512,DU
         2 000016   001000 116003                    CMPQ    512,DU
         2 000017   000031 601000 2                  TNZ     s:14189
         2 000020   000021 710000 2                  TRA     s:14179

      358    14177
      359    14178    2      SELECT ( %PRE# ) ;

      360    14179    2      CALL PRE ;

  14179  2 000021   000036 701000 2                  TSX1    PRE
         2 000022   000000 011000                    NOP     0
         2 000023   000031 710000 2                  TRA     s:14189

      361    14180
      362    14181    2      SELECT ( %SUCC# ) ;

      363    14182    2      CALL SUCC ;

  14182  2 000024   000034 701000 2                  TSX1    SUCC
PL6.E3A0      #003=ASH$U_PARSE File=ASH$HELP.:E05TSI                             TUE 07/29/97 09:55 Page:78
         2 000025   000000 011000                    NOP     0
         2 000026   000031 710000 2                  TRA     s:14189

      364    14183
      365    14184    2      SELECT ( %FAIL# ) ;

      366    14185    2      CALL FAIL ;

  14185  2 000027   000032 701000 2                  TSX1    FAIL
         2 000030   000000 011000                    NOP     0

      367    14186
      368    14187    2      END ; /*  Do SELECT(XU$PARAM.TYPE)  */

      369    14188
      370    14189    1   RETURN ;

  14189  2 000031   000000 702200 xent               TSX2  ! X66_ARET

      371    14190
      372    14191        %EJECT ;
PL6.E3A0      #003=ASH$U_PARSE File=ASH$HELP.:E05TSI                             TUE 07/29/97 09:55 Page:79
      373    14192    1   FAIL: PROC ;

  14192  2 000032   200004 741300       FAIL         STX1  ! @XU$PARAM+1,,AUTO

      374    14193
      375    14194
      376    14195    2   END   FAIL ;

  14195  2 000033   000001 702211                    TSX2  ! 1,X1

      377    14196
      378    14197
      379    14198    1   SUCC: PROC ;

  14198  2 000034   200004 741300       SUCC         STX1  ! @XU$PARAM+1,,AUTO

      380    14199
      381    14200    2   RETURN ;

  14200  2 000035   000001 702211                    TSX2  ! 1,X1

      382    14201    2   END   SUCC ;
      383    14202
      384    14203    1   PRE: PROC ;

  14203  2 000036   200004 741300       PRE          STX1  ! @XU$PARAM+1,,AUTO

      385    14204
      386    14205        %PARSE$OUT( NAME=P$NODE, STCLASS="BASED(NODE$)",
      387    14206                    NDTYPE=TYPE, NSUBLKS=SUBNODES) ;
      388    14251
      389    14252    2   IF CODE = 19  /*  ALPHA_VAL  */ THEN RETURN ;               /*  Alpha-numeric  */

  14252  2 000037   000000 235000 xsym               LDA     CODE
         2 000040   000023 115007                    CMPA    19,DL
         2 000041   000043 601000 2                  TNZ     s:14255

PL6.E3A0      #003=ASH$U_PARSE File=ASH$HELP.:E05TSI                             TUE 07/29/97 09:55 Page:80
  14252  2 000042   000001 702211                    TSX2  ! 1,X1

      390    14253
      391    14254
      392    14255    2   CODE = XU$PARAM.CODE ;

  14255  2 000043   200003 470500                    LDP0    @XU$PARAM,,AUTO
         2 000044   000000 236100                    LDQ     0,,PR0
         2 000045   777777 376007                    ANQ     -1,DL
         2 000046   000000 756000 xsym               STQ     CODE

      393    14256    2   RETURN ;

  14256  2 000047   000001 702211                    TSX2  ! 1,X1
      394    14257
      395    14258    2   END   PRE ;
      396    14259
      397    14260    1   END   ASH$U_PARSE ;

PL6.E3A0      #003=ASH$U_PARSE File=ASH$HELP.:E05TSI                             TUE 07/29/97 09:55 Page:81
--  Include file information  --

   AS_SUPER_R.:E05TOU  cannot be made into a system file and is referenced.
   KL_SUPER_C.:E05TOU  is referenced.
   AS_MAC_C.:E05TOU  cannot be made into a system file and is referenced.
   AS_SUPER_C.:E05TOU  is referenced.
   B_ERRORS_C.:E05TOU  is referenced.
   XU_SUBS_C.:E05TOU  is referenced.
   XU_FORMAT_C.:E05TOU  is referenced.
   XU_MACRO_C.:E05TOU  is referenced.
   AS_PERR_C.:E05TOU  is referenced.
   CP_6.:E05TOU  cannot be made into a system file and is referenced.
   AS_ENTRIES_M.:E05TOU  is referenced.
   AS_SUBS_C.:E05TOU  is referenced.
   B$JIT_C.:E05TOU  was found in the system file and is never referenced.
   CP_6_C.:E05TOU  was found in the system file and is referenced.
      No diagnostics issued in procedure ASH$U_PARSE.
PL6.E3A0      #003=ASH$U_PARSE File=ASH$HELP.:E05TSI                             TUE 07/29/97 09:55 Page:82

 **** Variables and constants ****

  ****  Auto variables  ****

  ****  Scalars and arrays  ****
OctLoc.c.b A Datatyp(siz) R M Lvl/name                 OctLoc.c.b A Datatyp(siz) R M Lvl/name

     3-0-0/w PTR         r     1 @XU$PARAM                 *0-0-0/w STRC(270)   r     1 XU$PARAM

  ****  SYMREF variables  ****

  ****  Scalars and arrays  ****
OctLoc.c.b A Datatyp(siz) R M Lvl/name                 OctLoc.c.b A Datatyp(siz) R M Lvl/name

     0-0-0/w UBIN        r     1 CODE                       0-0-0/w PTR         r     1 NODE$


   Procedure ASH$U_PARSE requires 40 words for executable code.
   Procedure ASH$U_PARSE requires 6 words of local(AUTO) storage.

    No errors detected in file ASH$HELP.:E05TSI    .
PL6.E3A0      #003=ASH$U_PARSE File=ASH$HELP.:E05TSI                             TUE 07/29/97 09:55 Page:83
          *** CROSS REFERENCE LISTING ***
**     DENOTES     IDENTIFIER DEFINITION
<<                 IDENTIFIER'S VALUE SET
>>                 IDENTIFIER'S VALUE USED
<>                 IDENTIFIER SET AND/OR USED
--                 IDENTIFIER REFERENCED
PL6.E3A0      #003=ASH$U_PARSE File=ASH$HELP.:E05TSI                             TUE 07/29/97 09:55 Page:84
          MINI XREF LISTING

ASA_BRKS_LOC
     11229**DCL     11229--REDEF
AS_DEFAULT.BANNER_PERM
     11922**DCL     11923--REDEF
AS_DEFAULT.BUDGET.MACCT
     11827**DCL     11831--REDEF
AS_DEFAULT.BUDGET.MAX_PROJECTS
     11840**DCL     11843--REDEF
AS_DEFAULT.BUDGET.PACCUM
     11823**DCL     11825--REDEF
AS_DEFAULT.BUDGET.PMAXC
     11818**DCL     11820--REDEF
AS_DEFAULT.SETUP_CHRA.TXT
     11938**DCL     11939--REDEF   11940--REDEF
AS_DEFAULT_DREC.PASSWORD
     13192**DCL     13196--REDEF
AS_DEFAULT_DREC.RENAME
     13215**DCL     13216--REDEF
AS_DFLT.BANNER_PERM
     11744**DCL     11745--REDEF
AS_DFLT.BUDGET.MACCT
     11649**DCL     11653--REDEF
AS_DFLT.BUDGET.MAX_PROJECTS
     11662**DCL     11665--REDEF
AS_DFLT.BUDGET.PACCUM
     11645**DCL     11647--REDEF
AS_DFLT.BUDGET.PMAXC
     11640**DCL     11642--REDEF
AS_DFLT.SETUP_CHRA.TXT
     11760**DCL     11761--REDEF   11762--REDEF
AS_FE_MODE
     11095**DCL     11096--REDEF
PL6.E3A0      #003=ASH$U_PARSE File=ASH$HELP.:E05TSI                             TUE 07/29/97 09:55 Page:85
AS_MODE
     11092**DCL     11094--REDEF
AS_MOD_USER.ACCESS
     13957**DCL     13958--REDEF
AS_MOD_USER.BANNER
     13944**DCL     13945--REDEF
AS_MOD_USER.BANNER_PERM
     13946**DCL     13947--REDEF
AS_MOD_USER.BILL
     13952**DCL     13953--REDEF
AS_MOD_USER.CPROC
     13948**DCL     13949--REDEF
AS_MOD_USER.FEBILL
     14028**DCL     14029--REDEF
AS_MOD_USER.FECXTMEM
     14045**DCL     14046--REDEF
AS_MOD_USER.FEMINTS
     14030**DCL     14031--REDEF
AS_MOD_USER.FEMMEM
     14041**DCL     14042--REDEF
AS_MOD_USER.FEMTIME
     14039**DCL     14040--REDEF
AS_MOD_USER.FEPPRIV
     14036**DCL     14038--REDEF
AS_MOD_USER.FEPRIV
     14033**DCL     14035--REDEF
AS_MOD_USER.FORCE_BIT
     13942**DCL     13943--REDEF
AS_MOD_USER.KEY
     14024**DCL     14026--REDEF
AS_MOD_USER.LASTCPROC
     13950**DCL     13951--REDEF
AS_MOD_USER.LIMITS.DO_
     13998**DCL     13999--REDEF
AS_MOD_USER.LIMITS.FPOOLS
     14014**DCL     14015--REDEF
PL6.E3A0      #003=ASH$U_PARSE File=ASH$HELP.:E05TSI                             TUE 07/29/97 09:55 Page:86
AS_MOD_USER.LIMITS.LO
     13994**DCL     13995--REDEF
AS_MOD_USER.LIMITS.MEM
     13990**DCL     13991--REDEF
AS_MOD_USER.LIMITS.MPRIO
     14018**DCL     14019--REDEF
AS_MOD_USER.LIMITS.PDIS
     14006**DCL     14007--REDEF
AS_MOD_USER.LIMITS.PO
     14002**DCL     14003--REDEF
AS_MOD_USER.LIMITS.TDIS
     14010**DCL     14011--REDEF
AS_MOD_USER.LIMITS.TIME
     13986**DCL     13987--REDEF
AS_MOD_USER.MAXENQ
     13967**DCL     13968--REDEF
AS_MOD_USER.PERM_BIT
     13940**DCL     13941--REDEF
AS_MOD_USER.PPRIV
     13962**DCL     13964--REDEF
AS_MOD_USER.PRIOB
     13969**DCL     13970--REDEF
AS_MOD_USER.PRIV
     13959**DCL     13961--REDEF
AS_MOD_USER.QUAN
     13965**DCL     13966--REDEF
AS_MOD_USER.SETUP
     13938**DCL     13939--REDEF
AS_PROJECT.BANNER_PERM
     12278**DCL     12279--REDEF
AS_PROJECT.BUDGET.MACCT
     12183**DCL     12187--REDEF
AS_PROJECT.BUDGET.MAX_PROJECTS
     12196**DCL     12199--REDEF
AS_PROJECT.BUDGET.PACCUM
     12179**DCL     12181--REDEF
PL6.E3A0      #003=ASH$U_PARSE File=ASH$HELP.:E05TSI                             TUE 07/29/97 09:55 Page:87
AS_PROJECT.BUDGET.PMAXC
     12174**DCL     12176--REDEF
AS_PROJECT.SETUP_CHRA.TXT
     12294**DCL     12295--REDEF   12296--REDEF
AS_PROJECT_DFLT.BANNER_PERM
     12456**DCL     12457--REDEF
AS_PROJECT_DFLT.BUDGET.MACCT
     12361**DCL     12365--REDEF
AS_PROJECT_DFLT.BUDGET.MAX_PROJECTS
     12374**DCL     12377--REDEF
AS_PROJECT_DFLT.BUDGET.PACCUM
     12357**DCL     12359--REDEF
AS_PROJECT_DFLT.BUDGET.PMAXC
     12352**DCL     12354--REDEF
AS_PROJECT_DFLT.SETUP_CHRA.TXT
     12472**DCL     12473--REDEF   12474--REDEF
AS_PROJECT_DFLT_DREC.PASSWORD
     13678**DCL     13682--REDEF
AS_PROJECT_DFLT_DREC.RENAME
     13701**DCL     13702--REDEF
AS_PROJECT_DREC.PASSWORD
     13516**DCL     13520--REDEF
AS_PROJECT_DREC.RENAME
     13539**DCL     13540--REDEF
AS_PROJ_ADMIN.BANNER_PERM
     12100**DCL     12101--REDEF
AS_PROJ_ADMIN.BUDGET.MACCT
     12005**DCL     12009--REDEF
AS_PROJ_ADMIN.BUDGET.MAX_PROJECTS
     12018**DCL     12021--REDEF
AS_PROJ_ADMIN.BUDGET.PACCUM
     12001**DCL     12003--REDEF
AS_PROJ_ADMIN.BUDGET.PMAXC
     11996**DCL     11998--REDEF
AS_PROJ_ADMIN.SETUP_CHRA.TXT
     12116**DCL     12117--REDEF   12118--REDEF
PL6.E3A0      #003=ASH$U_PARSE File=ASH$HELP.:E05TSI                             TUE 07/29/97 09:55 Page:88
AS_PROJ_ADMIN_DREC.PASSWORD
     13354**DCL     13358--REDEF
AS_PROJ_ADMIN_DREC.RENAME
     13377**DCL     13378--REDEF
AS_USERS.BANNER_PERM
     11566**DCL     11567--REDEF
AS_USERS.BUDGET.MACCT
     11471**DCL     11475--REDEF
AS_USERS.BUDGET.MAX_PROJECTS
     11484**DCL     11487--REDEF
AS_USERS.BUDGET.PACCUM
     11467**DCL     11469--REDEF
AS_USERS.BUDGET.PMAXC
     11462**DCL     11464--REDEF
AS_USERS.SETUP_CHRA.TXT
     11582**DCL     11583--REDEF   11584--REDEF
AS_USERS_CONSTANT.BANNER_PERM
     12634**DCL     12635--REDEF
AS_USERS_CONSTANT.BUDGET.MACCT
     12539**DCL     12543--REDEF
AS_USERS_CONSTANT.BUDGET.MAX_PROJECTS
     12552**DCL     12555--REDEF
AS_USERS_CONSTANT.BUDGET.PACCUM
     12535**DCL     12537--REDEF
AS_USERS_CONSTANT.BUDGET.PMAXC
     12530**DCL     12532--REDEF
AS_USERS_CONSTANT.SETUP_CHRA.TXT
     12650**DCL     12651--REDEF   12652--REDEF
CODE
     11222**DCL     14252>>IF      14255<<ASSIGN
ERR_CODE
     11224**DCL     11225--REDEF
FAIL
     14192**PROC    14185--CALL
KL_DEFAULT.PASSWORD
     13840**DCL     13844--REDEF
PL6.E3A0      #003=ASH$U_PARSE File=ASH$HELP.:E05TSI                             TUE 07/29/97 09:55 Page:89
KL_DEFAULT.RENAME
     13863**DCL     13864--REDEF
KL_DFLT.PASSWORD
     13030**DCL     13034--REDEF
KL_DFLT.RENAME
     13053**DCL     13054--REDEF
KL_DREC.PASSWORD
     12868**DCL     12872--REDEF
KL_DREC.RENAME
     12891**DCL     12892--REDEF
KL_DREC_CNT.PASSWORD
     12755**DCL     12759--REDEF
KL_DREC_CNT.RENAME
     12778**DCL     12779--REDEF
NODE$
     11222**DCL     14212--IMP-PTR
PRE
     14203**PROC    14179--CALL
PROJ_KEY.TEXT
     11102**DCL     11102--REDEF
PROJ_KEY.TXT.PROJECT
     11102**DCL     11102--REDEF
REMEM_VAR
     11228**DCL     11228--REDEF
REM_FCMD
     11228**DCL     11229--REDEF
SUCC
     14198**PROC    14182--CALL
USERS_KEY.TEXT
     11099**DCL     11100--REDEF   11100--REDEF   11100--REDEF   11101--REDEF
XU$PARAM
     14108**DCL         6--PROC
XU$PARAM.CODE
     14129**DCL     14255>>ASSIGN
XU$PARAM.TYPE
     14109**DCL     14176>>DOSELCT
