VERSION E05

PL6.E3A0      #001=ASL$FORM_LIST_OPTS File=ASL$DISPLAY_FORM.:E05TSI              TUE 07/29/97 09:56 Page:1
        1        1        /*T***********************************************************/
        2        2        /*T*                                                         */
        3        3        /*T* Copyright (c) Bull HN Information Systems Inc., 1997    */
        4        4        /*T*                                                         */
        5        5        /*T***********************************************************/
        6        6        ASL$FORM_LIST_OPTS: PROC(FORM_FLAG);
        7        7        /********************************************************************/
        8        8        /*   Parameters      parameters      parameters      parameters     */
        9        9        /********************************************************************/
       10       10    1   DCL FORM_FLAG      (0:8)          BIT (1);
       11       11    1   DCL 1 FORMFLAG REDEF FORM_FLAG,
       12       12    1          2 HEADER                   BIT (1) UNAL,
       13       13    1          2 SETUP                    BIT (1) UNAL,
       14       14    1          2 BANNER                   BIT (1) UNAL,
       15       15    1          2 ACCESS                   BIT (1) UNAL,
       16       16    1          2 VFU                      BIT (1) UNAL,
       17       17    1          2 ALIGN                    BIT (1) UNAL,
       18       18    1          2 JUSTNAM                  BIT (1) UNAL,
       19       19    1          2 PSEUDO                   BIT (1) UNAL,
       20       20    1          2 *                        BIT (1) UNAL;
       21       21        /********************************************************************/
       22       22        %INCLUDE AS_SUPER_C;
       23      457        %INCLUDE AS_SUBS_C;
       24     1871        %INCLUDE AS_MAC_C;
       25     1951        %INCLUDE AS_ENTRIES_M;
       26     3001        %INCLUDE CP_6;
       27     8560        %INCLUDE KL_SUPER_C;
       28    11462        %INCLUDE XU_MACRO_C;
       29    14568        %INCLUDE XU_FORMAT_C;
       30    14730        %INCLUDE AS_SUPER_R;
       31    17746        /********************************************************************/
       32    17747        /*   Entry dcls      entry dcls      entry dcls      entry dcls     */
       33    17748        /********************************************************************/
       34    17749        %ASB$READ_SI ;
       35    17752        %ASB$SET_PROMPT ;
       36    17755    1   DCL X$PARSE ENTRY(1) ALTRET;
       37    17756        %ASH$HELP ;
PL6.E3A0      #001=ASL$FORM_LIST_OPTS File=ASL$DISPLAY_FORM.:E05TSI              TUE 07/29/97 09:56 Page:2
       38    17759        %ASH$ERROR ;
       39    17762        %ASH$DQUEST ;
       40    17765        %ASH$QUEST ;
       41    17768    1   DCL LIST_FORM_OPTS_LIST SYMREF UBIN (36);
       42    17769        /********************************************************************/
       43    17770        /*   Local based     local based     local based     local based    */
       44    17771        /********************************************************************/
       45    17772        %PARSE$OUT ( NAME = P$B, STCLASS = "BASED(P_PCB.OUT$)",
       46    17773                     NDTYPE=TYPE);
       47    17818        /********************************************************************/
       48    17819        /*   Auto data       auto data       auto data       auto data      */
       49    17820        /********************************************************************/
       50    17821    1   DCL ARS                 UBIN;
       51    17822    1   DCL MORE                BIT(1);
       52    17823    1   DCL I                   UBIN;
       53    17824        /********************************************************************/
       54    17825        /*   Constant data   constant data   constant data   constant data  */
       55    17826        /********************************************************************/
       56    17827        %EJECT;
PL6.E3A0      #001=ASL$FORM_LIST_OPTS File=ASL$DISPLAY_FORM.:E05TSI              TUE 07/29/97 09:56 Page:3
       57    17828        /********************************************************************/
       58    17829        /*   Procedure       procedure       procedure       procedure      */
       59    17830        /********************************************************************/
       60    17831    1   FORM_FLAG = '0'B;
       61    17832    1   MORE = '1'B;
       62    17833    1   L1: P_PCB.ROOT$ = ADDR (LIST_FORM_OPTS_LIST);
       63    17834    2   DO WHILE (MORE);
       64    17835    2      REMEMBER L1 IN REMEM_VAR;
       65    17836                                                /*  Set prompt */
       66    17837    2      CALL ASB$SET_PROMPT ( %PROMPT_OPT ) ;
       67    17838    2      CALL ASB$READ_SI(IN_BUF,ARS);
       68    17839    2      P_PCB.NCHARS = ARS;
       69    17840    2      CALL X$PARSE(P_PCB)
       70    17841    3      WHENRETURN DO;
       71    17842    4         DO I = 0 TO P$B.NSUBLKS - 1;
       72    17843    5            DO SELECT(P$B.SUBLK$(I)->P$B.CODE);
       73    17844    5               SELECT (ALL_VAL);
       74    17845    5                  FORMFLAG = FORMFLAG | '777'O;
       75    17846    5                  MORE = '0'B;
       76    17847    5               SELECT (END_VAL);
       77    17848    5                  MORE = '0'B;
       78    17849    5               SELECT (BLANK_LINE_VAL);
       79    17850    5                  MORE = '0'B;
       80    17851    5               SELECT (HELP_VAL);
       81    17852    5                  CALL ASH$HELP ;
       82    17853    5               SELECT (QUESTION_VAL);
       83    17854    5                  CALL ASH$QUEST;
       84    17855    5               SELECT (DQUESTION_VAL);
       85    17856    5                  CALL ASH$DQUEST ;
       86    17857    5               SELECT (EOL_VAL);
       87    17858    5               SELECT (ELSE);
       88    17859    5                  FORM_FLAG (P$B.SUBLK$(I)->P$B.CODE) = '1'B;
       89    17860    5               END;  /* Do case */
       90    17861    4            END;
       91    17862    3         END; /* Whenreturn from the parse */
       92    17863    3      WHENALTRETURN DO;
       93    17864    3         MERR_CODE = P_PCB.ERROR;
PL6.E3A0      #001=ASL$FORM_LIST_OPTS File=ASL$DISPLAY_FORM.:E05TSI              TUE 07/29/97 09:56 Page:4
       94    17865    3         MERR_CODE.SEV = 0;
       95    17866    3         CALL ASH$ERROR(MERR_CODE);
       96    17867    3         END;
       97    17868    2      END; /* Do while more */
       98    17869    1   RETURN;
       99    17870    1   END ASL$FORM_LIST_OPTS;
      100    17871        %EOD;

PL6.E3A0      #001=ASL$FORM_LIST_OPTS File=ASL$DISPLAY_FORM.:E05TSI              TUE 07/29/97 09:56 Page:5
--  Include file information  --

   AS_SUPER_R.:E05TOU  cannot be made into a system file and is referenced.
   XU_FORMAT_C.:E05TOU  is referenced.
   XU_MACRO_C.:E05TOU  is referenced.
   KL_SUPER_C.:E05TOU  is referenced.
   CP_6_C.:E05TOU  is referenced.
   CP_6.:E05TOU  cannot be made into a system file and is referenced.
   AS_ENTRIES_M.:E05TOU  is referenced.
   AS_MAC_C.:E05TOU  cannot be made into a system file and is referenced.
   AS_SUBS_C.:E05TOU  is referenced.
   AS_SUPER_C.:E05TOU  is referenced.
      No diagnostics issued in procedure ASL$FORM_LIST_OPTS.

   Procedure ASL$FORM_LIST_OPTS requires 119 words for executable code.
   Procedure ASL$FORM_LIST_OPTS requires 10 words of local(AUTO) storage.

PL6.E3A0      #001=ASL$FORM_LIST_OPTS File=ASL$DISPLAY_FORM.:E05TSI              TUE 07/29/97 09:56 Page:6

 Object Unit name= ASL$FORM_LIST_OPTS                         File name= ASL$DISPLAY_FORM.:E05TOU
 UTS= JUL 29 '97 09:56:53.80 TUE                              Compiler= PL-6/E31         Sev=      00
 SharedLib= :SHARED_SYSTEM                                    Alt SharedLib=


    ****  Control sections  ****

 Sect   Type Bound  Init  Size OctSiz  Section name(segment info)
    0   DCB   even  none     0      0  M$UC
    1   DCB   even  none     0      0  M$LO
    2   Proc  even  none   119    167  ASL$FORM_LIST_OPTS
    3  RoData even  none     6      6  ASL$FORM_LIST_OPTS

    ****  Entry defs  ****

                              Check   Calling
                             calling  sequence
  Sect OctLoc Primary Altret sequence   type   Parms  Name
     2      0   yes            yes      Std        1  ASL$FORM_LIST_OPTS

  ****  Entry refs  ****

         Check        Calling
        calling       sequence
Altret sequence SRef   type   Args  Name
         yes          ~proc      0 XU_OUTPUT_OPTIONS
         yes           Std       2 ASB$READ_SI
 yes     yes           Std       3 ASB$SET_PROMPT
         yes           Std       0 ASH$HELP
         yes           Std       0 ASH$QUEST
         yes           Std       2 ASH$ERROR
 yes     yes           Std       1 X$PARSE
         yes           Std       0 ASH$DQUEST
                       nStd      0 X66_AUTO_1
                       Std       0 B_CONSPOOL_D
                       nStd      0 X66_ARET
PL6.E3A0      #001=ASL$FORM_LIST_OPTS File=ASL$DISPLAY_FORM.:E05TSI              TUE 07/29/97 09:56 Page:7

  ****  Data refs  ****

  Flags:  r = read only, s = secondary
Flgs Name                             Flgs Name                             Flgs Name
     M$UC                             r    AS_MODE                          r    AS_FE_MODE
     M$LO                                  IN_BUF                                ERR_CODE
     REMEM_VAR                             REM_FCMD                              ASA_BRKS_LOC
     P_PCB                                 LIST_FORM_OPTS_LIST                   B_VECTNIL

  ****  Segment refs  ****

  Flags:  r = read only, s = secondary
Flgs Name                             Flgs Name                             Flgs Name
     ISSID
PL6.E3A0      #001=ASL$FORM_LIST_OPTS File=ASL$DISPLAY_FORM.:E05TSI              TUE 07/29/97 09:56 Page:8


        1        1        /*T***********************************************************/
        2        2        /*T*                                                         */
        3        3        /*T* Copyright (c) Bull HN Information Systems Inc., 1997    */
        4        4        /*T*                                                         */
        5        5        /*T***********************************************************/
        6        6        ASL$FORM_LIST_OPTS: PROC(FORM_FLAG);

      6  2 000000   000000 700200 xent  ASL$FORM_LI* TSX0  ! X66_AUTO_1
         2 000001   000012 000001                    ZERO    10,1

        7        7        /********************************************************************/
        8        8        /*   Parameters      parameters      parameters      parameters     */
        9        9        /********************************************************************/
       10       10    1   DCL FORM_FLAG      (0:8)          BIT (1);
       11       11    1   DCL 1 FORMFLAG REDEF FORM_FLAG,
       12       12    1          2 HEADER                   BIT (1) UNAL,
       13       13    1          2 SETUP                    BIT (1) UNAL,
       14       14    1          2 BANNER                   BIT (1) UNAL,
       15       15    1          2 ACCESS                   BIT (1) UNAL,
       16       16    1          2 VFU                      BIT (1) UNAL,
       17       17    1          2 ALIGN                    BIT (1) UNAL,
       18       18    1          2 JUSTNAM                  BIT (1) UNAL,
       19       19    1          2 PSEUDO                   BIT (1) UNAL,
       20       20    1          2 *                        BIT (1) UNAL;
       21       21        /********************************************************************/
       22       22        %INCLUDE AS_SUPER_C;
       23      457        %INCLUDE AS_SUBS_C;
       24     1871        %INCLUDE AS_MAC_C;
       25     1951        %INCLUDE AS_ENTRIES_M;
       26     3001        %INCLUDE CP_6;
       27     8560        %INCLUDE KL_SUPER_C;
       28    11462        %INCLUDE XU_MACRO_C;
       29    14568        %INCLUDE XU_FORMAT_C;
       30    14730        %INCLUDE AS_SUPER_R;
       31    17746        /********************************************************************/
       32    17747        /*   Entry dcls      entry dcls      entry dcls      entry dcls     */
PL6.E3A0      #001=ASL$FORM_LIST_OPTS File=ASL$DISPLAY_FORM.:E05TSI              TUE 07/29/97 09:56 Page:9
       33    17748        /********************************************************************/
       34    17749        %ASB$READ_SI ;
       35    17752        %ASB$SET_PROMPT ;
       36    17755    1   DCL X$PARSE ENTRY(1) ALTRET;
       37    17756        %ASH$HELP ;
       38    17759        %ASH$ERROR ;
       39    17762        %ASH$DQUEST ;
       40    17765        %ASH$QUEST ;
       41    17768    1   DCL LIST_FORM_OPTS_LIST SYMREF UBIN (36);
       42    17769        /********************************************************************/
       43    17770        /*   Local based     local based     local based     local based    */
       44    17771        /********************************************************************/
       45    17772        %PARSE$OUT ( NAME = P$B, STCLASS = "BASED(P_PCB.OUT$)",
       46    17773                     NDTYPE=TYPE);
       47    17818        /********************************************************************/
       48    17819        /*   Auto data       auto data       auto data       auto data      */
       49    17820        /********************************************************************/
       50    17821    1   DCL ARS                 UBIN;
       51    17822    1   DCL MORE                BIT(1);
       52    17823    1   DCL I                   UBIN;
       53    17824        /********************************************************************/
       54    17825        /*   Constant data   constant data   constant data   constant data  */
       55    17826        /********************************************************************/
       56    17827        %EJECT;
PL6.E3A0      #001=ASL$FORM_LIST_OPTS File=ASL$DISPLAY_FORM.:E05TSI              TUE 07/29/97 09:56 Page:10
       57    17828        /********************************************************************/
       58    17829        /*   Procedure       procedure       procedure       procedure      */
       59    17830        /********************************************************************/
       60    17831    1   FORM_FLAG = '0'B;

  17831  2 000002   200003 470500                    LDP0    @FORM_FLAG,,AUTO
         2 000003   003100 060400                    CSL     bolr='003'O
         2 000004   000002 000011 xsym               BDSC    B_VECTNIL+2              by=0,bit=0,n=9
         2 000005   000000 000011                    BDSC    0,,PR0                   by=0,bit=0,n=9

       61    17832    1   MORE = '1'B;

  17832  2 000006   400000 236003                    LDQ     -131072,DU
         2 000007   200005 756100                    STQ     MORE,,AUTO

       62    17833    1   L1: P_PCB.ROOT$ = ADDR (LIST_FORM_OPTS_LIST);

  17833  2 000010   000000 236000 3     L1           LDQ     0
         2 000011   000001 756000 xsym               STQ     P_PCB+1

       63    17834    2   DO WHILE (MORE);

  17834  2 000012   200005 234100                    SZN     MORE,,AUTO
         2 000013   000166 605000 2                  TPL     s:17869

       64    17835    2      REMEMBER L1 IN REMEM_VAR;

  17835  2 000014   000010 635000 2                  EAA     L1
         2 000015   000000 452400 xsym               STP2    REMEM_VAR
         2 000016   000001 755000 xsym               STA     REMEM_VAR+1

       65    17836                                                /*  Set prompt */
       66    17837    2      CALL ASB$SET_PROMPT ( %PROMPT_OPT ) ;

  17837  2 000017   000001 630400 3                  EPPR0   1
         2 000020   000017 631400 xsym               EPPR1   B_VECTNIL+15
         2 000021   000000 701000 xent               TSX1    ASB$SET_PROMPT
PL6.E3A0      #001=ASL$FORM_LIST_OPTS File=ASL$DISPLAY_FORM.:E05TSI              TUE 07/29/97 09:56 Page:11
         2 000022   000000 011000                    NOP     0

       67    17838    2      CALL ASB$READ_SI(IN_BUF,ARS);

  17838  2 000023   200004 630500                    EPPR0   ARS,,AUTO
         2 000024   200011 450500                    STP0    I+3,,AUTO
         2 000025   000002 236000 3                  LDQ     2
         2 000026   200010 756100                    STQ     I+2,,AUTO
         2 000027   200010 630500                    EPPR0   I+2,,AUTO
         2 000030   000020 631400 xsym               EPPR1   B_VECTNIL+16
         2 000031   000000 701000 xent               TSX1    ASB$READ_SI
         2 000032   000000 011000                    NOP     0

       68    17839    2      P_PCB.NCHARS = ARS;

  17839  2 000033   200004 235100                    LDA     ARS,,AUTO
         2 000034   000011 755000 xsym               STA     P_PCB+9

       69    17840    2      CALL X$PARSE(P_PCB)

  17840  2 000035   000003 630400 3                  EPPR0   3
         2 000036   000017 631400 xsym               EPPR1   B_VECTNIL+15
         2 000037   000000 701000 xent               TSX1    X$PARSE
         2 000040   000154 702000 2                  TSX2    s:17864

       70    17841    3      WHENRETURN DO;

       71    17842    4         DO I = 0 TO P$B.NSUBLKS - 1;

  17842  2 000041   200006 450100                    STZ     I,,AUTO
         2 000042   000145 710000 2                  TRA     s:17861+3

       72    17843    5            DO SELECT(P$B.SUBLK$(I)->P$B.CODE);

  17843  2 000043   000003 470400 xsym               LDP0    P_PCB+3
         2 000044   200006 720100                    LXL0    I,,AUTO
         2 000045   000003 471510                    LDP1    3,X0,PR0
PL6.E3A0      #001=ASL$FORM_LIST_OPTS File=ASL$DISPLAY_FORM.:E05TSI              TUE 07/29/97 09:56 Page:12
         2 000046   100000 236100                    LDQ     0,,PR1
         2 000047   777777 376007                    ANQ     -1,DL
         2 000050   000032 116007                    CMPQ    26,DL
         2 000051   000066 602000 2                  TNC     s:17843+19
         2 000052   000117 600000 2                  TZE     s:17850
         2 000053   000455 116007                    CMPQ    301,DL
         2 000054   000062 602000 2                  TNC     s:17843+15
         2 000055   000125 600000 2                  TZE     s:17854
         2 000056   100000 721100                    LXL1    0,,PR1
         2 000057   000456 101003                    CMPX1   302,DU
         2 000060   000136 601000 2                  TNZ     s:17859
         2 000061   000121 710000 2                  TRA     s:17852
         2 000062   100000 721100                    LXL1    0,,PR1
         2 000063   000454 101003                    CMPX1   300,DU
         2 000064   000136 601000 2                  TNZ     s:17859
         2 000065   000131 710000 2                  TRA     s:17856
         2 000066   000014 116007                    CMPQ    12,DL
         2 000067   000075 602000 2                  TNC     s:17843+26
         2 000070   000115 600000 2                  TZE     s:17848
         2 000071   100000 721100                    LXL1    0,,PR1
         2 000072   000020 101003                    CMPX1   16,DU
         2 000073   000136 601000 2                  TNZ     s:17859
         2 000074   000135 710000 2                  TRA     s:17857
         2 000075   100000 721100                    LXL1    0,,PR1
         2 000076   000006 101003                    CMPX1   6,DU
         2 000077   000136 601000 2                  TNZ     s:17859
         2 000100   000101 710000 2                  TRA     s:17845

       73    17844    5               SELECT (ALL_VAL);

       74    17845    5                  FORMFLAG = FORMFLAG | '777'O;

  17845  2 000101   200003 473500                    LDP3    @FORM_FLAG,,AUTO
         2 000102   003100 060500                    CSL     bolr='003'O
         2 000103   300000 000011                    BDSC    0,,PR3                   by=0,bit=0,n=9
         2 000104   200010 000044                    BDSC    I+2,,AUTO                by=0,bit=0,n=36
         2 000105   200010 236100                    LDQ     I+2,,AUTO
PL6.E3A0      #001=ASL$FORM_LIST_OPTS File=ASL$DISPLAY_FORM.:E05TSI              TUE 07/29/97 09:56 Page:13
         2 000106   777000 276003                    ORQ     -512,DU
         2 000107   200011 756100                    STQ     I+3,,AUTO
         2 000110   003100 060500                    CSL     bolr='003'O
         2 000111   200011 000044                    BDSC    I+3,,AUTO                by=0,bit=0,n=36
         2 000112   300000 000011                    BDSC    0,,PR3                   by=0,bit=0,n=9

       75    17846    5                  MORE = '0'B;

  17846  2 000113   200005 450100                    STZ     MORE,,AUTO
         2 000114   000142 710000 2                  TRA     s:17861

       76    17847    5               SELECT (END_VAL);

       77    17848    5                  MORE = '0'B;

  17848  2 000115   200005 450100                    STZ     MORE,,AUTO
         2 000116   000142 710000 2                  TRA     s:17861

       78    17849    5               SELECT (BLANK_LINE_VAL);

       79    17850    5                  MORE = '0'B;

  17850  2 000117   200005 450100                    STZ     MORE,,AUTO
         2 000120   000142 710000 2                  TRA     s:17861

       80    17851    5               SELECT (HELP_VAL);

       81    17852    5                  CALL ASH$HELP ;

  17852  2 000121   000002 631400 xsym               EPPR1   B_VECTNIL+2
         2 000122   000000 701000 xent               TSX1    ASH$HELP
         2 000123   000000 011000                    NOP     0
         2 000124   000142 710000 2                  TRA     s:17861

       82    17853    5               SELECT (QUESTION_VAL);

       83    17854    5                  CALL ASH$QUEST;
PL6.E3A0      #001=ASL$FORM_LIST_OPTS File=ASL$DISPLAY_FORM.:E05TSI              TUE 07/29/97 09:56 Page:14

  17854  2 000125   000002 631400 xsym               EPPR1   B_VECTNIL+2
         2 000126   000000 701000 xent               TSX1    ASH$QUEST
         2 000127   000000 011000                    NOP     0
         2 000130   000142 710000 2                  TRA     s:17861

       84    17855    5               SELECT (DQUESTION_VAL);

       85    17856    5                  CALL ASH$DQUEST ;

  17856  2 000131   000002 631400 xsym               EPPR1   B_VECTNIL+2
         2 000132   000000 701000 xent               TSX1    ASH$DQUEST
         2 000133   000000 011000                    NOP     0
         2 000134   000142 710000 2                  TRA     s:17861

       86    17857    5               SELECT (EOL_VAL);

  17857  2 000135   000142 710000 2                  TRA     s:17861

       87    17858    5               SELECT (ELSE);

       88    17859    5                  FORM_FLAG (P$B.SUBLK$(I)->P$B.CODE) = '1'B;

  17859  2 000136   200003 473500                    LDP3    @FORM_FLAG,,AUTO
         2 000137   003106 060400                    CSL     bolr='003'O
         2 000140   000030 000001 xsym               BDSC    B_VECTNIL+24             by=0,bit=0,n=1
         2 000141   300000 000001                    BDSC    0,Q,PR3                  by=0,bit=0,n=1

       89    17860    5               END;  /* Do case */

       90    17861    4            END;

  17861  2 000142   200006 235100                    LDA     I,,AUTO
         2 000143   000001 035007                    ADLA    1,DL
         2 000144   200006 755100                    STA     I,,AUTO
         2 000145   000003 470400 xsym               LDP0    P_PCB+3
         2 000146   000001 236100                    LDQ     1,,PR0
PL6.E3A0      #001=ASL$FORM_LIST_OPTS File=ASL$DISPLAY_FORM.:E05TSI              TUE 07/29/97 09:56 Page:15
         2 000147   000022 772000                    QRL     18
         2 000150   200006 116100                    CMPQ    I,,AUTO
         2 000151   000153 600000 2                  TZE     s:17862
         2 000152   000043 603000 2                  TRC     s:17843

       91    17862    3         END; /* Whenreturn from the parse */

  17862  2 000153   000164 710000 2                  TRA     s:17868

       92    17863    3      WHENALTRETURN DO;

       93    17864    3         MERR_CODE = P_PCB.ERROR;

  17864  2 000154   000006 236000 xsym               LDQ     P_PCB+6
         2 000155   000000 756000 xsym               STQ     ERR_CODE

       94    17865    3         MERR_CODE.SEV = 0;

  17865  2 000156   000004 236000 3                  LDQ     4
         2 000157   000000 356000 xsym               ANSQ    ERR_CODE

       95    17866    3         CALL ASH$ERROR(MERR_CODE);

  17866  2 000160   000005 630400 3                  EPPR0   5
         2 000161   000017 631400 xsym               EPPR1   B_VECTNIL+15
         2 000162   000000 701000 xent               TSX1    ASH$ERROR
         2 000163   000000 011000                    NOP     0

       96    17867    3         END;

       97    17868    2      END; /* Do while more */

  17868  2 000164   200005 234100                    SZN     MORE,,AUTO
         2 000165   000014 604000 2                  TMI     s:17835

       98    17869    1   RETURN;

PL6.E3A0      #001=ASL$FORM_LIST_OPTS File=ASL$DISPLAY_FORM.:E05TSI              TUE 07/29/97 09:56 Page:16
  17869  2 000166   000000 702200 xent               TSX2  ! X66_ARET
       99    17870    1   END ASL$FORM_LIST_OPTS;
      100    17871        %EOD;

PL6.E3A0      #001=ASL$FORM_LIST_OPTS File=ASL$DISPLAY_FORM.:E05TSI              TUE 07/29/97 09:56 Page:17
--  Include file information  --

   AS_SUPER_R.:E05TOU  cannot be made into a system file and is referenced.
   XU_FORMAT_C.:E05TOU  is referenced.
   XU_MACRO_C.:E05TOU  is referenced.
   KL_SUPER_C.:E05TOU  is referenced.
   CP_6_C.:E05TOU  is referenced.
   CP_6.:E05TOU  cannot be made into a system file and is referenced.
   AS_ENTRIES_M.:E05TOU  is referenced.
   AS_MAC_C.:E05TOU  cannot be made into a system file and is referenced.
   AS_SUBS_C.:E05TOU  is referenced.
   AS_SUPER_C.:E05TOU  is referenced.
      No diagnostics issued in procedure ASL$FORM_LIST_OPTS.
PL6.E3A0      #001=ASL$FORM_LIST_OPTS File=ASL$DISPLAY_FORM.:E05TSI              TUE 07/29/97 09:56 Page:18

 **** Variables and constants ****

  ****  Auto variables  ****

  ****  Scalars and arrays  ****
OctLoc.c.b A Datatyp(siz) R M Lvl/name                 OctLoc.c.b A Datatyp(siz) R M Lvl/name

     3-0-0/w PTR         r     1 @FORM_FLAG                 4-0-0/w UBIN        r     1 ARS
    *0-0-0/b STRC(9)     r     1 FORMFLAG
    *0-0-0/b BIT         r     1 FORM_FLAG(0:8)
     6-0-0/w UBIN        r     1 I                          5-0-0/b BIT         r     1 MORE

  ****  SYMREF variables  ****

  ****  Scalars and arrays  ****
OctLoc.c.b A Datatyp(siz) R M Lvl/name                 OctLoc.c.b A Datatyp(siz) R M Lvl/name

     0-0-0/b STRC        r     1 ERR_CODE                   0-0-0/c CHAR(255)   r     1 IN_BUF
     0-0-0/w UBIN        r     1 LIST_FORM_OPTS_LIST        0-0-0/b STRC        r     1 MERR_CODE
     0-0-0/w STRC(504)   r     1 P_PCB                      0-0-0/d REMB        r     1 REMEM_VAR

  ****  BASED and DCB variables  ****

  ****  Scalars and arrays  ****
OctLoc.c.b A Datatyp(siz) R M Lvl/name                 OctLoc.c.b A Datatyp(siz) R M Lvl/name

     0-0-0/w STRC(144)   r     1 P$B


   Procedure ASL$FORM_LIST_OPTS requires 119 words for executable code.
   Procedure ASL$FORM_LIST_OPTS requires 10 words of local(AUTO) storage.
PL6.E3A0      #001=ASL$FORM_LIST_OPTS File=ASL$DISPLAY_FORM.:E05TSI              TUE 07/29/97 09:56 Page:19
          *** CROSS REFERENCE LISTING ***
**     DENOTES     IDENTIFIER DEFINITION
<<                 IDENTIFIER'S VALUE SET
>>                 IDENTIFIER'S VALUE USED
<>                 IDENTIFIER SET AND/OR USED
--                 IDENTIFIER REFERENCED
PL6.E3A0      #001=ASL$FORM_LIST_OPTS File=ASL$DISPLAY_FORM.:E05TSI              TUE 07/29/97 09:56 Page:20
          MINI XREF LISTING

ARS
     17821**DCL     17838<>CALL    17839>>ASSIGN
ASA_BRKS_LOC
     14894**DCL     14894--REDEF
ASB$READ_SI
     17750**DCL-ENT 17838--CALL
ASB$SET_PROMPT
     17753**DCL-ENT 17837--CALL
ASH$DQUEST
     17763**DCL-ENT 17856--CALL
ASH$ERROR
     17760**DCL-ENT 17866--CALL
ASH$HELP
     17757**DCL-ENT 17852--CALL
ASH$QUEST
     17766**DCL-ENT 17854--CALL
AS_DEFAULT.BANNER_PERM
     15587**DCL     15588--REDEF
AS_DEFAULT.BUDGET.MACCT
     15492**DCL     15496--REDEF
AS_DEFAULT.BUDGET.MAX_PROJECTS
     15505**DCL     15508--REDEF
AS_DEFAULT.BUDGET.PACCUM
     15488**DCL     15490--REDEF
AS_DEFAULT.BUDGET.PMAXC
     15483**DCL     15485--REDEF
AS_DEFAULT.SETUP_CHRA.TXT
     15603**DCL     15604--REDEF   15605--REDEF
AS_DEFAULT_DREC.PASSWORD
     16857**DCL     16861--REDEF
AS_DEFAULT_DREC.RENAME
     16880**DCL     16881--REDEF
PL6.E3A0      #001=ASL$FORM_LIST_OPTS File=ASL$DISPLAY_FORM.:E05TSI              TUE 07/29/97 09:56 Page:21
AS_DFLT.BANNER_PERM
     15409**DCL     15410--REDEF
AS_DFLT.BUDGET.MACCT
     15314**DCL     15318--REDEF
AS_DFLT.BUDGET.MAX_PROJECTS
     15327**DCL     15330--REDEF
AS_DFLT.BUDGET.PACCUM
     15310**DCL     15312--REDEF
AS_DFLT.BUDGET.PMAXC
     15305**DCL     15307--REDEF
AS_DFLT.SETUP_CHRA.TXT
     15425**DCL     15426--REDEF   15427--REDEF
AS_FE_MODE
     14760**DCL     14761--REDEF
AS_MODE
     14757**DCL     14759--REDEF
AS_MOD_USER.ACCESS
     17622**DCL     17623--REDEF
AS_MOD_USER.BANNER
     17609**DCL     17610--REDEF
AS_MOD_USER.BANNER_PERM
     17611**DCL     17612--REDEF
AS_MOD_USER.BILL
     17617**DCL     17618--REDEF
AS_MOD_USER.CPROC
     17613**DCL     17614--REDEF
AS_MOD_USER.FEBILL
     17693**DCL     17694--REDEF
AS_MOD_USER.FECXTMEM
     17710**DCL     17711--REDEF
AS_MOD_USER.FEMINTS
     17695**DCL     17696--REDEF
AS_MOD_USER.FEMMEM
     17706**DCL     17707--REDEF
AS_MOD_USER.FEMTIME
     17704**DCL     17705--REDEF
PL6.E3A0      #001=ASL$FORM_LIST_OPTS File=ASL$DISPLAY_FORM.:E05TSI              TUE 07/29/97 09:56 Page:22
AS_MOD_USER.FEPPRIV
     17701**DCL     17703--REDEF
AS_MOD_USER.FEPRIV
     17698**DCL     17700--REDEF
AS_MOD_USER.FORCE_BIT
     17607**DCL     17608--REDEF
AS_MOD_USER.KEY
     17689**DCL     17691--REDEF
AS_MOD_USER.LASTCPROC
     17615**DCL     17616--REDEF
AS_MOD_USER.LIMITS.DO_
     17663**DCL     17664--REDEF
AS_MOD_USER.LIMITS.FPOOLS
     17679**DCL     17680--REDEF
AS_MOD_USER.LIMITS.LO
     17659**DCL     17660--REDEF
AS_MOD_USER.LIMITS.MEM
     17655**DCL     17656--REDEF
AS_MOD_USER.LIMITS.MPRIO
     17683**DCL     17684--REDEF
AS_MOD_USER.LIMITS.PDIS
     17671**DCL     17672--REDEF
AS_MOD_USER.LIMITS.PO
     17667**DCL     17668--REDEF
AS_MOD_USER.LIMITS.TDIS
     17675**DCL     17676--REDEF
AS_MOD_USER.LIMITS.TIME
     17651**DCL     17652--REDEF
AS_MOD_USER.MAXENQ
     17632**DCL     17633--REDEF
AS_MOD_USER.PERM_BIT
     17605**DCL     17606--REDEF
AS_MOD_USER.PPRIV
     17627**DCL     17629--REDEF
AS_MOD_USER.PRIOB
     17634**DCL     17635--REDEF
PL6.E3A0      #001=ASL$FORM_LIST_OPTS File=ASL$DISPLAY_FORM.:E05TSI              TUE 07/29/97 09:56 Page:23
AS_MOD_USER.PRIV
     17624**DCL     17626--REDEF
AS_MOD_USER.QUAN
     17630**DCL     17631--REDEF
AS_MOD_USER.SETUP
     17603**DCL     17604--REDEF
AS_PROJECT.BANNER_PERM
     15943**DCL     15944--REDEF
AS_PROJECT.BUDGET.MACCT
     15848**DCL     15852--REDEF
AS_PROJECT.BUDGET.MAX_PROJECTS
     15861**DCL     15864--REDEF
AS_PROJECT.BUDGET.PACCUM
     15844**DCL     15846--REDEF
AS_PROJECT.BUDGET.PMAXC
     15839**DCL     15841--REDEF
AS_PROJECT.SETUP_CHRA.TXT
     15959**DCL     15960--REDEF   15961--REDEF
AS_PROJECT_DFLT.BANNER_PERM
     16121**DCL     16122--REDEF
AS_PROJECT_DFLT.BUDGET.MACCT
     16026**DCL     16030--REDEF
AS_PROJECT_DFLT.BUDGET.MAX_PROJECTS
     16039**DCL     16042--REDEF
AS_PROJECT_DFLT.BUDGET.PACCUM
     16022**DCL     16024--REDEF
AS_PROJECT_DFLT.BUDGET.PMAXC
     16017**DCL     16019--REDEF
AS_PROJECT_DFLT.SETUP_CHRA.TXT
     16137**DCL     16138--REDEF   16139--REDEF
AS_PROJECT_DFLT_DREC.PASSWORD
     17343**DCL     17347--REDEF
AS_PROJECT_DFLT_DREC.RENAME
     17366**DCL     17367--REDEF
AS_PROJECT_DREC.PASSWORD
     17181**DCL     17185--REDEF
PL6.E3A0      #001=ASL$FORM_LIST_OPTS File=ASL$DISPLAY_FORM.:E05TSI              TUE 07/29/97 09:56 Page:24
AS_PROJECT_DREC.RENAME
     17204**DCL     17205--REDEF
AS_PROJ_ADMIN.BANNER_PERM
     15765**DCL     15766--REDEF
AS_PROJ_ADMIN.BUDGET.MACCT
     15670**DCL     15674--REDEF
AS_PROJ_ADMIN.BUDGET.MAX_PROJECTS
     15683**DCL     15686--REDEF
AS_PROJ_ADMIN.BUDGET.PACCUM
     15666**DCL     15668--REDEF
AS_PROJ_ADMIN.BUDGET.PMAXC
     15661**DCL     15663--REDEF
AS_PROJ_ADMIN.SETUP_CHRA.TXT
     15781**DCL     15782--REDEF   15783--REDEF
AS_PROJ_ADMIN_DREC.PASSWORD
     17019**DCL     17023--REDEF
AS_PROJ_ADMIN_DREC.RENAME
     17042**DCL     17043--REDEF
AS_USERS.BANNER_PERM
     15231**DCL     15232--REDEF
AS_USERS.BUDGET.MACCT
     15136**DCL     15140--REDEF
AS_USERS.BUDGET.MAX_PROJECTS
     15149**DCL     15152--REDEF
AS_USERS.BUDGET.PACCUM
     15132**DCL     15134--REDEF
AS_USERS.BUDGET.PMAXC
     15127**DCL     15129--REDEF
AS_USERS.SETUP_CHRA.TXT
     15247**DCL     15248--REDEF   15249--REDEF
AS_USERS_CONSTANT.BANNER_PERM
     16299**DCL     16300--REDEF
AS_USERS_CONSTANT.BUDGET.MACCT
     16204**DCL     16208--REDEF
AS_USERS_CONSTANT.BUDGET.MAX_PROJECTS
     16217**DCL     16220--REDEF
PL6.E3A0      #001=ASL$FORM_LIST_OPTS File=ASL$DISPLAY_FORM.:E05TSI              TUE 07/29/97 09:56 Page:25
AS_USERS_CONSTANT.BUDGET.PACCUM
     16200**DCL     16202--REDEF
AS_USERS_CONSTANT.BUDGET.PMAXC
     16195**DCL     16197--REDEF
AS_USERS_CONSTANT.SETUP_CHRA.TXT
     16315**DCL     16316--REDEF   16317--REDEF
ERR_CODE
     14889**DCL     14890--REDEF
FORMFLAG
        11**DCL     17845<<ASSIGN  17845>>ASSIGN
FORM_FLAG
        10**DCL         6--PROC       11--REDEF   17831<<ASSIGN  17859<<ASSIGN
I
     17823**DCL     17842<<DOINDEX 17843>>DOSELCT 17859>>ASSIGN
IN_BUF
     14885**DCL     17838<>CALL
KL_DEFAULT.PASSWORD
     17505**DCL     17509--REDEF
KL_DEFAULT.RENAME
     17528**DCL     17529--REDEF
KL_DFLT.PASSWORD
     16695**DCL     16699--REDEF
KL_DFLT.RENAME
     16718**DCL     16719--REDEF
KL_DREC.PASSWORD
     16533**DCL     16537--REDEF
KL_DREC.RENAME
     16556**DCL     16557--REDEF
KL_DREC_CNT.PASSWORD
     16420**DCL     16424--REDEF
KL_DREC_CNT.RENAME
     16443**DCL     16444--REDEF
L1
     17833**LABEL   17835--REMEMBR
LIST_FORM_OPTS_LIST
     17768**DCL     17833--ASSIGN
PL6.E3A0      #001=ASL$FORM_LIST_OPTS File=ASL$DISPLAY_FORM.:E05TSI              TUE 07/29/97 09:56 Page:26
MERR_CODE
     14890**DCL     17864<<ASSIGN  17866<>CALL
MERR_CODE.SEV
     14890**DCL     17865<<ASSIGN
MORE
     17822**DCL     17832<<ASSIGN  17834>>DOWHILE 17846<<ASSIGN  17848<<ASSIGN  17850<<ASSIGN
P$B.CODE
     17787**DCL     17843>>DOSELCT 17859>>ASSIGN
P$B.NSUBLKS
     17791**DCL     17842>>DOINDEX
P$B.SUBLK$
     17812**DCL     17843>>DOSELCT 17859>>ASSIGN
PROJ_KEY.TEXT
     14767**DCL     14767--REDEF
PROJ_KEY.TXT.PROJECT
     14767**DCL     14767--REDEF
P_PCB
     14922**DCL     17840<>CALL
P_PCB.ERROR
     15026**DCL     17864>>ASSIGN
P_PCB.NCHARS
     15069**DCL     17839<<ASSIGN
P_PCB.OUT$
     14935**DCL     17779--IMP-PTR 17842>>DOINDEX 17843>>DOSELCT 17859>>ASSIGN
P_PCB.ROOT$
     14927**DCL     17833<<ASSIGN
REMEM_VAR
     14893**DCL     14893--REDEF   17835<<REMEMBR
REM_FCMD
     14893**DCL     14894--REDEF
USERS_KEY.TEXT
     14764**DCL     14765--REDEF   14765--REDEF   14765--REDEF   14766--REDEF
X$PARSE
     17755**DCL-ENT 17840--CALL

PL6.E3A0      #002=ASL$LIST_ONE_FORMSET File=ASL$DISPLAY_FORM.:E05TSI            TUE 07/29/97 09:58 Page:27
      101        1        /*T***********************************************************/
      102        2        /*T*                                                         */
      103        3        /*T* Copyright (c) Bull HN Information Systems Inc., 1997    */
      104        4        /*T*                                                         */
      105        5        /*T***********************************************************/
      106        6        %EJECT;
PL6.E3A0      #002=ASL$LIST_ONE_FORMSET File=ASL$DISPLAY_FORM.:E05TSI            TUE 07/29/97 09:58 Page:28
      107        7        ASL$LIST_ONE_FORMSET: PROC (OBJECT, FORM_COUNT, JCL, FLAGS) ALTRET;
      108        8        /*D*
      109        9             NAME: ASL$LIST_ONE_FORMSET
      110       10             CALL: CALL ASL$LIST_ONE_FORMSET (OBJECT, FORM_COUNT, JCL, FLAGS);
      111       11             INPUT:
      112       12                       OBJECT - code for FORMSET/FORM
      113       13                       FORM_COUNT - added to if a form is passed on to the
      114       14                                    display routine.
      115       15                       JCL   - flag for type of display.
      116       16                       FLAGS  - bits for options to display.
      117       17             OUTPUT:   FORM_COUNT is updated and returned.
      118       18             DESCRIPTION:
      119       19                       This routine checks that the form record in data
      120       20                       segment 1 is a master form if the object specified
      121       21                       is a FORMSET.  If object is a FORMSET and the form
      122       22                       is not a master form, this routine altreturns.
      123       23                       If the object is a FORMSET and the form is a master
      124       24                       form, this routine calls the display routine.
      125       25                       pseudo forms for this master form.  When it finds one
      126       26                       it calls the display routine.
      127       27                       If the object is a FORM, this routine calls the display
      128       28                       routine.
      129       29        */
      130       30        /********************************************************************/
      131       31        /*   Include files   include files   include files   include files  */
      132       32        /********************************************************************/
      133       33        %INCLUDE AS_SUPER_C;
      134      468        %INCLUDE AS_SUBS_C;
      135     1882        %INCLUDE AS_MAC_C;
      136     1962        %INCLUDE AS_SSUBS_C;
      137     2054        %INCLUDE AS_ENTRIES_M;
      138     3104        %INCLUDE OCI_SUBS_C ;
      139     3202        %INCLUDE B_ERRORS_C;
      140     4329        %INCLUDE AS_PERR_C;
      141     4931        %INCLUDE FS_SUPER_C;
      142     5694        %INCLUDE KL_SUPER_C;
      143     8596        %INCLUDE XU_MACRO_C;
PL6.E3A0      #002=ASL$LIST_ONE_FORMSET File=ASL$DISPLAY_FORM.:E05TSI            TUE 07/29/97 09:58 Page:29
      144    11702        %INCLUDE XU_FORMAT_C;
      145    11864        %INCLUDE AS_SUPER_R;
      146    14880        /********************************************************************/
      147    14881        /*   Parameters      parameters      parameters      parameters     */
      148    14882        /********************************************************************/
      149    14883    1   DCL FLAGS (0:8)         BIT (1);
      150    14884    1   DCL JCL                 BIT(1);
      151    14885    1   DCL FORM_COUNT          UBIN;
      152    14886    1   DCL OBJECT              UBIN;
      153    14887        /********************************************************************/
      154    14888        /*   Entry dcls      entry dcls      entry dcls      entry dcls     */
      155    14889        /********************************************************************/
      156    14890        %ASF$READ_FORM_SEQ ;
      157    14893        %ASF$READ_FORM ;
      158    14896        %ASF$PREC_SKIP_FORM ;
      159    14899        %ASH$ERROR ;
      160    14902        %ASL$DISP_ONE_FORM ;
      161    14905        /********************************************************************/
      162    14906        /*   Local based     local based     local based     local based    */
      163    14907        /********************************************************************/
      164    14908        %FS$FORMREC ( NAME = FS$FORMREC, STCLASS = "BASED(DSEG1$)");
      165    14979        /********************************************************************/
      166    14980        /*   Auto data       auto data       auto data       auto data      */
      167    14981        /********************************************************************/
      168    14982    1   DCL ARS                    UBIN;
      169    14983    1   DCL 1 FORM,
      170    14984    1          2 CNT               UBIN BYTE UNAL,
      171    14985    1          2 TXT               CHAR(6) UNAL;
      172    14986    1   DCL I                      UBIN;
      173    14987    1   DCL 1 PSEUDO_FORM_KEY,
      174    14988    1          2 CNT               UBIN BYTE UNAL,
      175    14989    1          2 TXT               CHAR(12) UNAL;
      176    14990    1   DCL PSEUDO_FORM_REC        UBIN;
      177    14991        /********************************************************************/
      178    14992        /*   Procedure       procedure       procedure       procedure      */
      179    14993        /********************************************************************/
      180    14994    1   FORM.TXT = SUBSTR (USERS_KEY.TXTC,0,6);
PL6.E3A0      #002=ASL$LIST_ONE_FORMSET File=ASL$DISPLAY_FORM.:E05TSI            TUE 07/29/97 09:58 Page:30
      181    14995    1   FORM.CNT = 6;
      182    14996    2   DO SELECT (OBJECT);
      183    14997
      184    14998    2      SELECT (%FORM_OBJ_VAL);
      185    14999
      186    15000    2         CALL ASL$DISP_ONE_FORM ( OBJECT, FLAGS, JCL);
      187    15001    2         FORM_COUNT = FORM_COUNT + 1;
      188    15002
      189    15003    2      SELECT (%FORMSET_OBJ_VAL);
      190    15004
      191    15005    2         IF FS$FORMREC.FNAME ~= SUBSTR (USERS_KEY.TXTC,0,6) THEN
      192    15006    2            ALTRETURN;
      193    15007    2         CALL ASL$DISP_ONE_FORM ( OBJECT, FLAGS, JCL);
      194    15008    2         FORM_COUNT = FORM_COUNT + 1;
      195    15009    3         DO FOREVER;
      196    15010    3            ARS = SIZEC(PSEUDO_FORM_REC);
      197    15011    3            CALL ASF$READ_FORM_SEQ( ,ADDR(PSEUDO_FORM_REC), ARS ) ALTRET(EXIT#);
      198    15012    4            IF USERS_KEY.COUNT = 12 THEN DO;  /* Possible pseudo form  */
      199    15013    5               IF SUBSTR(USERS_KEY.TXTC,0,6) = FORM.TXT THEN DO;
      200    15014                                                     /* Definite pseudo form  */
      201    15015    5                  PSEUDO_FORM_KEY = USERS_KEY;
      202    15016    5                  USERS_KEY.COUNT = 6;
      203    15017    5                  SUBSTR (USERS_KEY.TXTC,0,6) = SUBSTR (PSEUDO_FORM_KEY.TXT,6,6);
      204    15018    5                  I = DSEG1SIZE;
      205    15019    5                  CALL ASF$READ_FORM(USERS_KEY, DSEG1$, I)
      206    15020    6                  WHENALTRETURN DO;
      207    15021    6                     IF MERR_CODE.CODE = %E$NOKEY
      208    15022    7                     THEN DO;
      209    15023                 /*E*  ERROR:  ASL-E$PSEUDONOEXIST-C
      210    15024                       MESSAGE: %U1 does not exist.
      211    15025                       MESSAGE1: A pseudo form of %U2 FORM does not exist.
      212    15026                       MESSAGE2: Your :FORM file is broken.
      213    15027                 */
      214    15028    7                        AS_FIELD1 = FORM;
      215    15029                             %SCREAM( ERR#=E$PSEUDONOEXIST, LEVEL=ERROR, MID='L' );
      216    15044    7                        END;  /*  Error is nokey  */
      217    15045    7                     ELSE DO;
PL6.E3A0      #002=ASL$LIST_ONE_FORMSET File=ASL$DISPLAY_FORM.:E05TSI            TUE 07/29/97 09:58 Page:31
      218    15046    7                        CALL ASH$ERROR( MERR_CODE );
      219    15047    7                        END;  /*  Error is not nokey  */
      220    15048    6                     RETURN;
      221    15049    6                     END;  /*  Whenaltreturn from ASF$READ_FORM  */
      222    15050    5                  CALL ASL$DISP_ONE_FORM ( OBJECT, FLAGS, JCL);
      223    15051    5                  FORM_COUNT = FORM_COUNT + 1;
      224    15052    5                  USERS_KEY = PSEUDO_FORM_KEY;
      225    15053    5                  CALL ASF$PREC_SKIP_FORM (USERS_KEY) ;
      226    15054    5                  END;  /*  Found pseudo  */
      227    15055    4               END;  /*  Possible pseudo  */
      228    15056    3            END;  /*  Do forever  */
      229    15057    2      END;  /*  Case  */
      230    15058    1   EXIT#:
      231    15059    1   USERS_KEY = FORM;
      232    15060    1   CALL ASF$PREC_SKIP_FORM( USERS_KEY );
      233    15061    1   RETURN;
      234    15062    1   END ASL$LIST_ONE_FORMSET;
      235    15063        %EOD;

PL6.E3A0      #002=ASL$LIST_ONE_FORMSET File=ASL$DISPLAY_FORM.:E05TSI            TUE 07/29/97 09:58 Page:32
--  Include file information  --

   AS_SUPER_R.:E05TOU  cannot be made into a system file and is referenced.
   XU_FORMAT_C.:E05TOU  is referenced.
   XU_MACRO_C.:E05TOU  is referenced.
   KL_SUPER_C.:E05TOU  is referenced.
   FS_SUPER_C.:E05TOU  is referenced.
   AS_PERR_C.:E05TOU  is referenced.
   B_ERRORS_C.:E05TOU  is referenced.
   OCI_SUBS_C.:E05TOU  is referenced.
   AS_ENTRIES_M.:E05TOU  is referenced.
   AS_SSUBS_C.:E05TOU  is referenced.
   AS_MAC_C.:E05TOU  cannot be made into a system file and is referenced.
   AS_SUBS_C.:E05TOU  is referenced.
   AS_SUPER_C.:E05TOU  is referenced.
      No diagnostics issued in procedure ASL$LIST_ONE_FORMSET.

   Procedure ASL$LIST_ONE_FORMSET requires 135 words for executable code.
   Procedure ASL$LIST_ONE_FORMSET requires 20 words of local(AUTO) storage.

PL6.E3A0      #002=ASL$LIST_ONE_FORMSET File=ASL$DISPLAY_FORM.:E05TSI            TUE 07/29/97 09:58 Page:33

 Object Unit name= ASL$LIST_ONE_FORMSET                       File name= ASL$DISPLAY_FORM.:E05TOU
 UTS= JUL 29 '97 09:58:16.64 TUE                              Compiler= PL-6/E31         Sev=      00
 SharedLib= :SHARED_SYSTEM                                    Alt SharedLib=


    ****  Control sections  ****

 Sect   Type Bound  Init  Size OctSiz  Section name(segment info)
    0   DCB   even  none     0      0  M$LO
    1  RoData even  UTS      1      1  ASL$LIST_ONE_FORMSET
    2   Proc  even  none   135    207  ASL$LIST_ONE_FORMSET
    3  RoData even  none     4      4  ASL$LIST_ONE_FORMSET

    ****  Entry defs  ****

                              Check   Calling
                             calling  sequence
  Sect OctLoc Primary Altret sequence   type   Parms  Name
     2      0   yes    yes     yes      Std        4  ASL$LIST_ONE_FORMSET

  ****  Entry refs  ****

         Check        Calling
        calling       sequence
Altret sequence SRef   type   Args  Name
         yes          ~proc      0 XU_OUTPUT_OPTIONS
 yes     yes           Std       3 ASF$READ_FORM
 yes     yes           Std       1 ASF$PREC_SKIP_FORM
         yes           Std       3 ASL$DISP_ONE_FORM
 yes     yes           Std       3 ASF$READ_FORM_SEQ
         yes           Std       2 ASH$ERROR
                       nStd      0 X66_AUTO_4
                       Std       0 B_CONSPOOL_D
                       nStd      0 X66_AALT
                       nStd      0 X66_ARET
PL6.E3A0      #002=ASL$LIST_ONE_FORMSET File=ASL$DISPLAY_FORM.:E05TSI            TUE 07/29/97 09:58 Page:34

  ****  Data refs  ****

  Flags:  r = read only, s = secondary
Flgs Name                             Flgs Name                             Flgs Name
r    AS_MODE                          r    AS_FE_MODE                            M$LO
     USERS_KEY                             ERR_CODE                              AS_FIELD1
     REMEM_VAR                             REM_FCMD                              ASA_BRKS_LOC
     DSEG1$                                DSEG1SIZE                             B_VECTNIL

  ****  Segment refs  ****

  Flags:  r = read only, s = secondary
Flgs Name                             Flgs Name                             Flgs Name
     ISSID
PL6.E3A0      #002=ASL$LIST_ONE_FORMSET File=ASL$DISPLAY_FORM.:E05TSI            TUE 07/29/97 09:58 Page:35


      101        1        /*T***********************************************************/
      102        2        /*T*                                                         */
      103        3        /*T* Copyright (c) Bull HN Information Systems Inc., 1997    */
      104        4        /*T*                                                         */
      105        5        /*T***********************************************************/
      106        6        %EJECT;
PL6.E3A0      #002=ASL$LIST_ONE_FORMSET File=ASL$DISPLAY_FORM.:E05TSI            TUE 07/29/97 09:58 Page:36
      107        7        ASL$LIST_ONE_FORMSET: PROC (OBJECT, FORM_COUNT, JCL, FLAGS) ALTRET;

      7  2 000000   000000 700200 xent  ASL$LIST_ON* TSX0  ! X66_AUTO_4
         2 000001   000024 000004                    ZERO    20,4

      108        8        /*D*
      109        9             NAME: ASL$LIST_ONE_FORMSET
      110       10             CALL: CALL ASL$LIST_ONE_FORMSET (OBJECT, FORM_COUNT, JCL, FLAGS);
      111       11             INPUT:
      112       12                       OBJECT - code for FORMSET/FORM
      113       13                       FORM_COUNT - added to if a form is passed on to the
      114       14                                    display routine.
      115       15                       JCL   - flag for type of display.
      116       16                       FLAGS  - bits for options to display.
      117       17             OUTPUT:   FORM_COUNT is updated and returned.
      118       18             DESCRIPTION:
      119       19                       This routine checks that the form record in data
      120       20                       segment 1 is a master form if the object specified
      121       21                       is a FORMSET.  If object is a FORMSET and the form
      122       22                       is not a master form, this routine altreturns.
      123       23                       If the object is a FORMSET and the form is a master
      124       24                       form, this routine calls the display routine.
      125       25                       pseudo forms for this master form.  When it finds one
      126       26                       it calls the display routine.
      127       27                       If the object is a FORM, this routine calls the display
      128       28                       routine.
      129       29        */
      130       30        /********************************************************************/
      131       31        /*   Include files   include files   include files   include files  */
      132       32        /********************************************************************/
      133       33        %INCLUDE AS_SUPER_C;
      134      468        %INCLUDE AS_SUBS_C;
      135     1882        %INCLUDE AS_MAC_C;
      136     1962        %INCLUDE AS_SSUBS_C;
      137     2054        %INCLUDE AS_ENTRIES_M;
      138     3104        %INCLUDE OCI_SUBS_C ;
      139     3202        %INCLUDE B_ERRORS_C;
PL6.E3A0      #002=ASL$LIST_ONE_FORMSET File=ASL$DISPLAY_FORM.:E05TSI            TUE 07/29/97 09:58 Page:37
      140     4329        %INCLUDE AS_PERR_C;
      141     4931        %INCLUDE FS_SUPER_C;
      142     5694        %INCLUDE KL_SUPER_C;
      143     8596        %INCLUDE XU_MACRO_C;
      144    11702        %INCLUDE XU_FORMAT_C;
      145    11864        %INCLUDE AS_SUPER_R;
      146    14880        /********************************************************************/
      147    14881        /*   Parameters      parameters      parameters      parameters     */
      148    14882        /********************************************************************/
      149    14883    1   DCL FLAGS (0:8)         BIT (1);
      150    14884    1   DCL JCL                 BIT(1);
      151    14885    1   DCL FORM_COUNT          UBIN;
      152    14886    1   DCL OBJECT              UBIN;
      153    14887        /********************************************************************/
      154    14888        /*   Entry dcls      entry dcls      entry dcls      entry dcls     */
      155    14889        /********************************************************************/
      156    14890        %ASF$READ_FORM_SEQ ;
      157    14893        %ASF$READ_FORM ;
      158    14896        %ASF$PREC_SKIP_FORM ;
      159    14899        %ASH$ERROR ;
      160    14902        %ASL$DISP_ONE_FORM ;
      161    14905        /********************************************************************/
      162    14906        /*   Local based     local based     local based     local based    */
      163    14907        /********************************************************************/
      164    14908        %FS$FORMREC ( NAME = FS$FORMREC, STCLASS = "BASED(DSEG1$)");
      165    14979        /********************************************************************/
      166    14980        /*   Auto data       auto data       auto data       auto data      */
      167    14981        /********************************************************************/
      168    14982    1   DCL ARS                    UBIN;
      169    14983    1   DCL 1 FORM,
      170    14984    1          2 CNT               UBIN BYTE UNAL,
      171    14985    1          2 TXT               CHAR(6) UNAL;
      172    14986    1   DCL I                      UBIN;
      173    14987    1   DCL 1 PSEUDO_FORM_KEY,
      174    14988    1          2 CNT               UBIN BYTE UNAL,
      175    14989    1          2 TXT               CHAR(12) UNAL;
      176    14990    1   DCL PSEUDO_FORM_REC        UBIN;
PL6.E3A0      #002=ASL$LIST_ONE_FORMSET File=ASL$DISPLAY_FORM.:E05TSI            TUE 07/29/97 09:58 Page:38
      177    14991        /********************************************************************/
      178    14992        /*   Procedure       procedure       procedure       procedure      */
      179    14993        /********************************************************************/
      180    14994    1   FORM.TXT = SUBSTR (USERS_KEY.TXTC,0,6);

  14994  2 000002   040100 100400                    MLR     fill='040'O
         2 000003   000000 200006 xsym               ADSC9   USERS_KEY                cn=1,n=6
         2 000004   200010 200006                    ADSC9   FORM,,AUTO               cn=1,n=6

      181    14995    1   FORM.CNT = 6;

  14995  2 000005   006000 236003                    LDQ     3072,DU
         2 000006   200010 552140                    STBQ    FORM,'40'O,AUTO

      182    14996    2   DO SELECT (OBJECT);

  14996  2 000007   200003 470500                    LDP0    @OBJECT,,AUTO
         2 000010   000000 236100                    LDQ     0,,PR0
         2 000011   000016 116007                    CMPQ    14,DL
         2 000012   000177 602000 2                  TNC     EXIT#
         2 000013   000017 600000 2                  TZE     s:15000
         2 000014   000020 116007                    CMPQ    16,DL
         2 000015   000177 601000 2                  TNZ     EXIT#
         2 000016   000035 710000 2                  TRA     s:15005

      183    14997
      184    14998    2      SELECT (%FORM_OBJ_VAL);

      185    14999
      186    15000    2         CALL ASL$DISP_ONE_FORM ( OBJECT, FLAGS, JCL);

  15000  2 000017   200005 236100                    LDQ     @JCL,,AUTO
         2 000020   200022 756100                    STQ     PSEUDO_FORM_REC+3,,AUTO
         2 000021   200006 236100                    LDQ     @FLAGS,,AUTO
         2 000022   200003 235100                    LDA     @OBJECT,,AUTO
         2 000023   200020 757100                    STAQ    PSEUDO_FORM_REC+1,,AUTO
         2 000024   200020 630500                    EPPR0   PSEUDO_FORM_REC+1,,AUTO
PL6.E3A0      #002=ASL$LIST_ONE_FORMSET File=ASL$DISPLAY_FORM.:E05TSI            TUE 07/29/97 09:58 Page:39
         2 000025   000021 631400 xsym               EPPR1   B_VECTNIL+17
         2 000026   000000 701000 xent               TSX1    ASL$DISP_ONE_FORM
         2 000027   000000 011000                    NOP     0

      187    15001    2         FORM_COUNT = FORM_COUNT + 1;

  15001  2 000030   200004 470500                    LDP0    @FORM_COUNT,,AUTO
         2 000031   000000 235100                    LDA     0,,PR0
         2 000032   000001 035007                    ADLA    1,DL
         2 000033   000000 755100                    STA     0,,PR0
         2 000034   000177 710000 2                  TRA     EXIT#

      188    15002
      189    15003    2      SELECT (%FORMSET_OBJ_VAL);

      190    15004
      191    15005    2         IF FS$FORMREC.FNAME ~= SUBSTR (USERS_KEY.TXTC,0,6) THEN

  15005  2 000035   000000 471400 xsym               LDP1    DSEG1$
         2 000036   040000 106500                    CMPC    fill='040'O
         2 000037   100000 000006                    ADSC9   0,,PR1                   cn=0,n=6
         2 000040   000000 200006 xsym               ADSC9   USERS_KEY                cn=1,n=6
         2 000041   000043 600000 2                  TZE     s:15007

      192    15006    2            ALTRETURN;

  15006  2 000042   000000 702200 xent               TSX2  ! X66_AALT

      193    15007    2         CALL ASL$DISP_ONE_FORM ( OBJECT, FLAGS, JCL);

  15007  2 000043   200005 236100                    LDQ     @JCL,,AUTO
         2 000044   200022 756100                    STQ     PSEUDO_FORM_REC+3,,AUTO
         2 000045   200006 236100                    LDQ     @FLAGS,,AUTO
         2 000046   200003 235100                    LDA     @OBJECT,,AUTO
         2 000047   200020 757100                    STAQ    PSEUDO_FORM_REC+1,,AUTO
         2 000050   200020 630500                    EPPR0   PSEUDO_FORM_REC+1,,AUTO
         2 000051   000021 631400 xsym               EPPR1   B_VECTNIL+17
PL6.E3A0      #002=ASL$LIST_ONE_FORMSET File=ASL$DISPLAY_FORM.:E05TSI            TUE 07/29/97 09:58 Page:40
         2 000052   000000 701000 xent               TSX1    ASL$DISP_ONE_FORM
         2 000053   000000 011000                    NOP     0

      194    15008    2         FORM_COUNT = FORM_COUNT + 1;

  15008  2 000054   200004 470500                    LDP0    @FORM_COUNT,,AUTO
         2 000055   000000 235100                    LDA     0,,PR0
         2 000056   000001 035007                    ADLA    1,DL
         2 000057   000000 755100                    STA     0,,PR0

      195    15009    3         DO FOREVER;

      196    15010    3            ARS = SIZEC(PSEUDO_FORM_REC);

  15010  2 000060   000004 235007                    LDA     4,DL
         2 000061   200007 755100                    STA     ARS,,AUTO

      197    15011    3            CALL ASF$READ_FORM_SEQ( ,ADDR(PSEUDO_FORM_REC), ARS ) ALTRET(EXIT#);

  15011  2 000062   200017 630500                    EPPR0   PSEUDO_FORM_REC,,AUTO
         2 000063   200020 450500                    STP0    PSEUDO_FORM_REC+1,,AUTO
         2 000064   200007 631500                    EPPR1   ARS,,AUTO
         2 000065   200023 451500                    STP1    PSEUDO_FORM_REC+4,,AUTO
         2 000066   200020 633500                    EPPR3   PSEUDO_FORM_REC+1,,AUTO
         2 000067   200022 453500                    STP3    PSEUDO_FORM_REC+3,,AUTO
         2 000070   000001 236000 xsym               LDQ     B_VECTNIL+1
         2 000071   200021 756100                    STQ     PSEUDO_FORM_REC+2,,AUTO
         2 000072   200021 630500                    EPPR0   PSEUDO_FORM_REC+2,,AUTO
         2 000073   000021 631400 xsym               EPPR1   B_VECTNIL+17
         2 000074   000000 701000 xent               TSX1    ASF$READ_FORM_SEQ
         2 000075   000177 702000 2                  TSX2    EXIT#

      198    15012    4            IF USERS_KEY.COUNT = 12 THEN DO;  /* Possible pseudo form  */

  15012  2 000076   000000 236000 xsym               LDQ     USERS_KEY
         2 000077   777000 376003                    ANQ     -512,DU
         2 000100   014000 116003                    CMPQ    6144,DU
PL6.E3A0      #002=ASL$LIST_ONE_FORMSET File=ASL$DISPLAY_FORM.:E05TSI            TUE 07/29/97 09:58 Page:41
         2 000101   000060 601000 2                  TNZ     s:15010

      199    15013    5               IF SUBSTR(USERS_KEY.TXTC,0,6) = FORM.TXT THEN DO;

  15013  2 000102   040100 106400                    CMPC    fill='040'O
         2 000103   000000 200006 xsym               ADSC9   USERS_KEY                cn=1,n=6
         2 000104   200010 200006                    ADSC9   FORM,,AUTO               cn=1,n=6
         2 000105   000060 601000 2                  TNZ     s:15010

      200    15014                                                     /* Definite pseudo form  */
      201    15015    5                  PSEUDO_FORM_KEY = USERS_KEY;

  15015  2 000106   000100 100400                    MLR     fill='000'O
         2 000107   000000 000015 xsym               ADSC9   USERS_KEY                cn=0,n=13
         2 000110   200013 000015                    ADSC9   PSEUDO_FORM_KEY,,AUTO    cn=0,n=13

      202    15016    5                  USERS_KEY.COUNT = 6;

  15016  2 000111   006000 236003                    LDQ     3072,DU
         2 000112   000000 552040 xsym               STBQ    USERS_KEY,'40'O

      203    15017    5                  SUBSTR (USERS_KEY.TXTC,0,6) = SUBSTR (PSEUDO_FORM_KEY.TXT,6,6);

  15017  2 000113   040000 100500                    MLR     fill='040'O
         2 000114   200014 600006                    ADSC9   PSEUDO_FORM_KEY+1,,AUTO  cn=3,n=6
         2 000115   000000 200006 xsym               ADSC9   USERS_KEY                cn=1,n=6

      204    15018    5                  I = DSEG1SIZE;

  15018  2 000116   000000 235000 xsym               LDA     DSEG1SIZE
         2 000117   200012 755100                    STA     I,,AUTO

      205    15019    5                  CALL ASF$READ_FORM(USERS_KEY, DSEG1$, I)

  15019  2 000120   200012 630500                    EPPR0   I,,AUTO
         2 000121   200022 450500                    STP0    PSEUDO_FORM_REC+3,,AUTO
         2 000122   000000 237000 3                  LDAQ    0
PL6.E3A0      #002=ASL$LIST_ONE_FORMSET File=ASL$DISPLAY_FORM.:E05TSI            TUE 07/29/97 09:58 Page:42
         2 000123   200020 757100                    STAQ    PSEUDO_FORM_REC+1,,AUTO
         2 000124   200020 630500                    EPPR0   PSEUDO_FORM_REC+1,,AUTO
         2 000125   000021 631400 xsym               EPPR1   B_VECTNIL+17
         2 000126   000000 701000 xent               TSX1    ASF$READ_FORM
         2 000127   000131 702000 2                  TSX2    s:15021
         2 000130   000152 710000 2                  TRA     s:15050

      206    15020    6                  WHENALTRETURN DO;

      207    15021    6                     IF MERR_CODE.CODE = %E$NOKEY

  15021  2 000131   000000 236000 xsym               LDQ     ERR_CODE
         2 000132   377770 376007                    ANQ     131064,DL
         2 000133   001020 116007                    CMPQ    528,DL
         2 000134   000145 601000 2                  TNZ     s:15046

      208    15022    7                     THEN DO;

      209    15023                 /*E*  ERROR:  ASL-E$PSEUDONOEXIST-C
      210    15024                       MESSAGE: %U1 does not exist.
      211    15025                       MESSAGE1: A pseudo form of %U2 FORM does not exist.
      212    15026                       MESSAGE2: Your :FORM file is broken.
      213    15027                 */
      214    15028    7                        AS_FIELD1 = FORM;

  15028  2 000135   000000 100500                    MLR     fill='000'O
         2 000136   200010 000007                    ADSC9   FORM,,AUTO               cn=0,n=7
         2 000137   000000 000051 xsym               ADSC9   AS_FIELD1                cn=0,n=41

      215    15029                             %SCREAM( ERR#=E$PSEUDONOEXIST, LEVEL=ERROR, MID='L' );

  15041  2 000140   000002 630400 3                  EPPR0   2
         2 000141   000017 631400 xsym               EPPR1   B_VECTNIL+15
         2 000142   000000 701000 xent               TSX1    ASH$ERROR
         2 000143   000000 011000                    NOP     0

      216    15044    7                        END;  /*  Error is nokey  */
PL6.E3A0      #002=ASL$LIST_ONE_FORMSET File=ASL$DISPLAY_FORM.:E05TSI            TUE 07/29/97 09:58 Page:43

  15044  2 000144   000151 710000 2                  TRA     s:15048

      217    15045    7                     ELSE DO;

      218    15046    7                        CALL ASH$ERROR( MERR_CODE );

  15046  2 000145   000003 630400 3                  EPPR0   3
         2 000146   000017 631400 xsym               EPPR1   B_VECTNIL+15
         2 000147   000000 701000 xent               TSX1    ASH$ERROR
         2 000150   000000 011000                    NOP     0

      219    15047    7                        END;  /*  Error is not nokey  */

      220    15048    6                     RETURN;

  15048  2 000151   000000 702200 xent               TSX2  ! X66_ARET

      221    15049    6                     END;  /*  Whenaltreturn from ASF$READ_FORM  */
      222    15050    5                  CALL ASL$DISP_ONE_FORM ( OBJECT, FLAGS, JCL);

  15050  2 000152   200005 236100                    LDQ     @JCL,,AUTO
         2 000153   200022 756100                    STQ     PSEUDO_FORM_REC+3,,AUTO
         2 000154   200006 236100                    LDQ     @FLAGS,,AUTO
         2 000155   200003 235100                    LDA     @OBJECT,,AUTO
         2 000156   200020 757100                    STAQ    PSEUDO_FORM_REC+1,,AUTO
         2 000157   200020 630500                    EPPR0   PSEUDO_FORM_REC+1,,AUTO
         2 000160   000021 631400 xsym               EPPR1   B_VECTNIL+17
         2 000161   000000 701000 xent               TSX1    ASL$DISP_ONE_FORM
         2 000162   000000 011000                    NOP     0

      223    15051    5                  FORM_COUNT = FORM_COUNT + 1;

  15051  2 000163   200004 470500                    LDP0    @FORM_COUNT,,AUTO
         2 000164   000000 235100                    LDA     0,,PR0
         2 000165   000001 035007                    ADLA    1,DL
         2 000166   000000 755100                    STA     0,,PR0
PL6.E3A0      #002=ASL$LIST_ONE_FORMSET File=ASL$DISPLAY_FORM.:E05TSI            TUE 07/29/97 09:58 Page:44

      224    15052    5                  USERS_KEY = PSEUDO_FORM_KEY;

  15052  2 000167   000000 100500                    MLR     fill='000'O
         2 000170   200013 000015                    ADSC9   PSEUDO_FORM_KEY,,AUTO    cn=0,n=13
         2 000171   000000 000052 xsym               ADSC9   USERS_KEY                cn=0,n=42

      225    15053    5                  CALL ASF$PREC_SKIP_FORM (USERS_KEY) ;

  15053  2 000172   000000 630400 3                  EPPR0   0
         2 000173   000017 631400 xsym               EPPR1   B_VECTNIL+15
         2 000174   000000 701000 xent               TSX1    ASF$PREC_SKIP_FORM
         2 000175   000000 011000                    NOP     0

      226    15054    5                  END;  /*  Found pseudo  */

      227    15055    4               END;  /*  Possible pseudo  */

      228    15056    3            END;  /*  Do forever  */

  15056  2 000176   000060 710000 2                  TRA     s:15010

      229    15057    2      END;  /*  Case  */

      230    15058    1   EXIT#:
      231    15059    1   USERS_KEY = FORM;

  15059  2 000177   000000 100500       EXIT#        MLR     fill='000'O
         2 000200   200010 000007                    ADSC9   FORM,,AUTO               cn=0,n=7
         2 000201   000000 000052 xsym               ADSC9   USERS_KEY                cn=0,n=42

      232    15060    1   CALL ASF$PREC_SKIP_FORM( USERS_KEY );

  15060  2 000202   000000 630400 3                  EPPR0   0
         2 000203   000017 631400 xsym               EPPR1   B_VECTNIL+15
         2 000204   000000 701000 xent               TSX1    ASF$PREC_SKIP_FORM
         2 000205   000000 011000                    NOP     0
PL6.E3A0      #002=ASL$LIST_ONE_FORMSET File=ASL$DISPLAY_FORM.:E05TSI            TUE 07/29/97 09:58 Page:45

      233    15061    1   RETURN;

  15061  2 000206   000000 702200 xent               TSX2  ! X66_ARET
      234    15062    1   END ASL$LIST_ONE_FORMSET;
      235    15063        %EOD;

PL6.E3A0      #002=ASL$LIST_ONE_FORMSET File=ASL$DISPLAY_FORM.:E05TSI            TUE 07/29/97 09:58 Page:46
--  Include file information  --

   AS_SUPER_R.:E05TOU  cannot be made into a system file and is referenced.
   XU_FORMAT_C.:E05TOU  is referenced.
   XU_MACRO_C.:E05TOU  is referenced.
   KL_SUPER_C.:E05TOU  is referenced.
   FS_SUPER_C.:E05TOU  is referenced.
   AS_PERR_C.:E05TOU  is referenced.
   B_ERRORS_C.:E05TOU  is referenced.
   OCI_SUBS_C.:E05TOU  is referenced.
   AS_ENTRIES_M.:E05TOU  is referenced.
   AS_SSUBS_C.:E05TOU  is referenced.
   AS_MAC_C.:E05TOU  cannot be made into a system file and is referenced.
   AS_SUBS_C.:E05TOU  is referenced.
   AS_SUPER_C.:E05TOU  is referenced.
      No diagnostics issued in procedure ASL$LIST_ONE_FORMSET.
PL6.E3A0      #002=ASL$LIST_ONE_FORMSET File=ASL$DISPLAY_FORM.:E05TSI            TUE 07/29/97 09:58 Page:47

 **** Variables and constants ****

  ****  Auto variables  ****

  ****  Scalars and arrays  ****
OctLoc.c.b A Datatyp(siz) R M Lvl/name                 OctLoc.c.b A Datatyp(siz) R M Lvl/name

     6-0-0/w PTR         r     1 @FLAGS                     4-0-0/w PTR         r     1 @FORM_COUNT
     5-0-0/w PTR         r     1 @JCL                       3-0-0/w PTR         r     1 @OBJECT
     7-0-0/w UBIN        r     1 ARS                       *0-0-0/b BIT         r     1 FLAGS(0:8)
    10-0-0/c STRC(63)    r     1 FORM                      *0-0-0/w UBIN        r     1 FORM_COUNT
    12-0-0/w UBIN        r     1 I                         *0-0-0/b BIT         r     1 JCL
    *0-0-0/w UBIN        r     1 OBJECT                    13-0-0/c STRC(117)   r     1 PSEUDO_FORM_KEY
    17-0-0/w UBIN        r     1 PSEUDO_FORM_REC

  ****  SYMREF variables  ****

  ****  Scalars and arrays  ****
OctLoc.c.b A Datatyp(siz) R M Lvl/name                 OctLoc.c.b A Datatyp(siz) R M Lvl/name

     0-0-0/w STRC(369)   r     1 AS_FIELD1                  0-0-0/w PTR         r     1 DSEG1$
     0-0-0/w UBIN        r     1 DSEG1SIZE                  0-0-0/b STRC        r     1 ERR_CODE
     0-0-0/b STRC        r     1 MERR_CODE                  0-0-0/c STRC(378)   r     1 USERS_KEY

  ****  BASED and DCB variables  ****

  ****  Scalars and arrays  ****
OctLoc.c.b A Datatyp(siz) R M Lvl/name                 OctLoc.c.b A Datatyp(siz) R M Lvl/name

     0-0-0/w STRC(3186)  r     1 FS$FORMREC


   Procedure ASL$LIST_ONE_FORMSET requires 135 words for executable code.
   Procedure ASL$LIST_ONE_FORMSET requires 20 words of local(AUTO) storage.
PL6.E3A0      #002=ASL$LIST_ONE_FORMSET File=ASL$DISPLAY_FORM.:E05TSI            TUE 07/29/97 09:58 Page:48
          *** CROSS REFERENCE LISTING ***
**     DENOTES     IDENTIFIER DEFINITION
<<                 IDENTIFIER'S VALUE SET
>>                 IDENTIFIER'S VALUE USED
<>                 IDENTIFIER SET AND/OR USED
--                 IDENTIFIER REFERENCED
PL6.E3A0      #002=ASL$LIST_ONE_FORMSET File=ASL$DISPLAY_FORM.:E05TSI            TUE 07/29/97 09:58 Page:49
          MINI XREF LISTING

ARS
     14982**DCL     15010<<ASSIGN  15011<>CALL
ASA_BRKS_LOC
     12028**DCL     12028--REDEF
ASF$PREC_SKIP_FORM
     14897**DCL-ENT 15053--CALL    15060--CALL
ASF$READ_FORM
     14894**DCL-ENT 15019--CALL
ASF$READ_FORM_SEQ
     14891**DCL-ENT 15011--CALL
ASH$ERROR
     14900**DCL-ENT 15041--CALL    15046--CALL
ASL$DISP_ONE_FORM
     14903**DCL-ENT 15000--CALL    15007--CALL    15050--CALL
AS_DEFAULT.BANNER_PERM
     12721**DCL     12722--REDEF
AS_DEFAULT.BUDGET.MACCT
     12626**DCL     12630--REDEF
AS_DEFAULT.BUDGET.MAX_PROJECTS
     12639**DCL     12642--REDEF
AS_DEFAULT.BUDGET.PACCUM
     12622**DCL     12624--REDEF
AS_DEFAULT.BUDGET.PMAXC
     12617**DCL     12619--REDEF
AS_DEFAULT.SETUP_CHRA.TXT
     12737**DCL     12738--REDEF   12739--REDEF
AS_DEFAULT_DREC.PASSWORD
     13991**DCL     13995--REDEF
AS_DEFAULT_DREC.RENAME
     14014**DCL     14015--REDEF
AS_DFLT.BANNER_PERM
     12543**DCL     12544--REDEF
PL6.E3A0      #002=ASL$LIST_ONE_FORMSET File=ASL$DISPLAY_FORM.:E05TSI            TUE 07/29/97 09:58 Page:50
AS_DFLT.BUDGET.MACCT
     12448**DCL     12452--REDEF
AS_DFLT.BUDGET.MAX_PROJECTS
     12461**DCL     12464--REDEF
AS_DFLT.BUDGET.PACCUM
     12444**DCL     12446--REDEF
AS_DFLT.BUDGET.PMAXC
     12439**DCL     12441--REDEF
AS_DFLT.SETUP_CHRA.TXT
     12559**DCL     12560--REDEF   12561--REDEF
AS_FE_MODE
     11894**DCL     11895--REDEF
AS_FIELD1
     12024**DCL     15028<<ASSIGN
AS_MODE
     11891**DCL     11893--REDEF
AS_MOD_USER.ACCESS
     14756**DCL     14757--REDEF
AS_MOD_USER.BANNER
     14743**DCL     14744--REDEF
AS_MOD_USER.BANNER_PERM
     14745**DCL     14746--REDEF
AS_MOD_USER.BILL
     14751**DCL     14752--REDEF
AS_MOD_USER.CPROC
     14747**DCL     14748--REDEF
AS_MOD_USER.FEBILL
     14827**DCL     14828--REDEF
AS_MOD_USER.FECXTMEM
     14844**DCL     14845--REDEF
AS_MOD_USER.FEMINTS
     14829**DCL     14830--REDEF
AS_MOD_USER.FEMMEM
     14840**DCL     14841--REDEF
AS_MOD_USER.FEMTIME
     14838**DCL     14839--REDEF
PL6.E3A0      #002=ASL$LIST_ONE_FORMSET File=ASL$DISPLAY_FORM.:E05TSI            TUE 07/29/97 09:58 Page:51
AS_MOD_USER.FEPPRIV
     14835**DCL     14837--REDEF
AS_MOD_USER.FEPRIV
     14832**DCL     14834--REDEF
AS_MOD_USER.FORCE_BIT
     14741**DCL     14742--REDEF
AS_MOD_USER.KEY
     14823**DCL     14825--REDEF
AS_MOD_USER.LASTCPROC
     14749**DCL     14750--REDEF
AS_MOD_USER.LIMITS.DO_
     14797**DCL     14798--REDEF
AS_MOD_USER.LIMITS.FPOOLS
     14813**DCL     14814--REDEF
AS_MOD_USER.LIMITS.LO
     14793**DCL     14794--REDEF
AS_MOD_USER.LIMITS.MEM
     14789**DCL     14790--REDEF
AS_MOD_USER.LIMITS.MPRIO
     14817**DCL     14818--REDEF
AS_MOD_USER.LIMITS.PDIS
     14805**DCL     14806--REDEF
AS_MOD_USER.LIMITS.PO
     14801**DCL     14802--REDEF
AS_MOD_USER.LIMITS.TDIS
     14809**DCL     14810--REDEF
AS_MOD_USER.LIMITS.TIME
     14785**DCL     14786--REDEF
AS_MOD_USER.MAXENQ
     14766**DCL     14767--REDEF
AS_MOD_USER.PERM_BIT
     14739**DCL     14740--REDEF
AS_MOD_USER.PPRIV
     14761**DCL     14763--REDEF
AS_MOD_USER.PRIOB
     14768**DCL     14769--REDEF
PL6.E3A0      #002=ASL$LIST_ONE_FORMSET File=ASL$DISPLAY_FORM.:E05TSI            TUE 07/29/97 09:58 Page:52
AS_MOD_USER.PRIV
     14758**DCL     14760--REDEF
AS_MOD_USER.QUAN
     14764**DCL     14765--REDEF
AS_MOD_USER.SETUP
     14737**DCL     14738--REDEF
AS_PROJECT.BANNER_PERM
     13077**DCL     13078--REDEF
AS_PROJECT.BUDGET.MACCT
     12982**DCL     12986--REDEF
AS_PROJECT.BUDGET.MAX_PROJECTS
     12995**DCL     12998--REDEF
AS_PROJECT.BUDGET.PACCUM
     12978**DCL     12980--REDEF
AS_PROJECT.BUDGET.PMAXC
     12973**DCL     12975--REDEF
AS_PROJECT.SETUP_CHRA.TXT
     13093**DCL     13094--REDEF   13095--REDEF
AS_PROJECT_DFLT.BANNER_PERM
     13255**DCL     13256--REDEF
AS_PROJECT_DFLT.BUDGET.MACCT
     13160**DCL     13164--REDEF
AS_PROJECT_DFLT.BUDGET.MAX_PROJECTS
     13173**DCL     13176--REDEF
AS_PROJECT_DFLT.BUDGET.PACCUM
     13156**DCL     13158--REDEF
AS_PROJECT_DFLT.BUDGET.PMAXC
     13151**DCL     13153--REDEF
AS_PROJECT_DFLT.SETUP_CHRA.TXT
     13271**DCL     13272--REDEF   13273--REDEF
AS_PROJECT_DFLT_DREC.PASSWORD
     14477**DCL     14481--REDEF
AS_PROJECT_DFLT_DREC.RENAME
     14500**DCL     14501--REDEF
AS_PROJECT_DREC.PASSWORD
     14315**DCL     14319--REDEF
PL6.E3A0      #002=ASL$LIST_ONE_FORMSET File=ASL$DISPLAY_FORM.:E05TSI            TUE 07/29/97 09:58 Page:53
AS_PROJECT_DREC.RENAME
     14338**DCL     14339--REDEF
AS_PROJ_ADMIN.BANNER_PERM
     12899**DCL     12900--REDEF
AS_PROJ_ADMIN.BUDGET.MACCT
     12804**DCL     12808--REDEF
AS_PROJ_ADMIN.BUDGET.MAX_PROJECTS
     12817**DCL     12820--REDEF
AS_PROJ_ADMIN.BUDGET.PACCUM
     12800**DCL     12802--REDEF
AS_PROJ_ADMIN.BUDGET.PMAXC
     12795**DCL     12797--REDEF
AS_PROJ_ADMIN.SETUP_CHRA.TXT
     12915**DCL     12916--REDEF   12917--REDEF
AS_PROJ_ADMIN_DREC.PASSWORD
     14153**DCL     14157--REDEF
AS_PROJ_ADMIN_DREC.RENAME
     14176**DCL     14177--REDEF
AS_USERS.BANNER_PERM
     12365**DCL     12366--REDEF
AS_USERS.BUDGET.MACCT
     12270**DCL     12274--REDEF
AS_USERS.BUDGET.MAX_PROJECTS
     12283**DCL     12286--REDEF
AS_USERS.BUDGET.PACCUM
     12266**DCL     12268--REDEF
AS_USERS.BUDGET.PMAXC
     12261**DCL     12263--REDEF
AS_USERS.SETUP_CHRA.TXT
     12381**DCL     12382--REDEF   12383--REDEF
AS_USERS_CONSTANT.BANNER_PERM
     13433**DCL     13434--REDEF
AS_USERS_CONSTANT.BUDGET.MACCT
     13338**DCL     13342--REDEF
AS_USERS_CONSTANT.BUDGET.MAX_PROJECTS
     13351**DCL     13354--REDEF
PL6.E3A0      #002=ASL$LIST_ONE_FORMSET File=ASL$DISPLAY_FORM.:E05TSI            TUE 07/29/97 09:58 Page:54
AS_USERS_CONSTANT.BUDGET.PACCUM
     13334**DCL     13336--REDEF
AS_USERS_CONSTANT.BUDGET.PMAXC
     13329**DCL     13331--REDEF
AS_USERS_CONSTANT.SETUP_CHRA.TXT
     13449**DCL     13450--REDEF   13451--REDEF
DSEG1$
     12029**DCL     14919--IMP-PTR 15005>>IF      15019<>CALL
DSEG1SIZE
     12030**DCL     15018>>ASSIGN
ERR_CODE
     12023**DCL     12024--REDEF
EXIT#
     15059**LABEL   15011--CALLALT
FLAGS
     14883**DCL         7--PROC    15000<>CALL    15007<>CALL    15050<>CALL
FORM
     14983**DCL     15028>>ASSIGN  15059>>ASSIGN
FORM.CNT
     14984**DCL     14995<<ASSIGN
FORM.TXT
     14985**DCL     14994<<ASSIGN  15013>>IF
FORM_COUNT
     14885**DCL         7--PROC    15001<<ASSIGN  15001>>ASSIGN  15008<<ASSIGN  15008>>ASSIGN  15051<<ASSIGN
     15051>>ASSIGN
FS$FORMREC.CHAINS
     14967**DCL     14977--REDEF
FS$FORMREC.FNAME
     14920**DCL     15005>>IF
I
     14986**DCL     15018<<ASSIGN  15019<>CALL
JCL
     14884**DCL         7--PROC    15000<>CALL    15007<>CALL    15050<>CALL
KL_DEFAULT.PASSWORD
     14639**DCL     14643--REDEF
KL_DEFAULT.RENAME
PL6.E3A0      #002=ASL$LIST_ONE_FORMSET File=ASL$DISPLAY_FORM.:E05TSI            TUE 07/29/97 09:58 Page:55
     14662**DCL     14663--REDEF
KL_DFLT.PASSWORD
     13829**DCL     13833--REDEF
KL_DFLT.RENAME
     13852**DCL     13853--REDEF
KL_DREC.PASSWORD
     13667**DCL     13671--REDEF
KL_DREC.RENAME
     13690**DCL     13691--REDEF
KL_DREC_CNT.PASSWORD
     13554**DCL     13558--REDEF
KL_DREC_CNT.RENAME
     13577**DCL     13578--REDEF
MERR_CODE
     12024**DCL     15046<>CALL
MERR_CODE.CODE
     12024**DCL     15021>>IF
OBJECT
     14886**DCL         7--PROC    14996>>DOSELCT 15000<>CALL    15007<>CALL    15050<>CALL
PROJ_KEY.TEXT
     11901**DCL     11901--REDEF
PROJ_KEY.TXT.PROJECT
     11901**DCL     11901--REDEF
PSEUDO_FORM_KEY
     14987**DCL     15015<<ASSIGN  15052>>ASSIGN
PSEUDO_FORM_KEY.TXT
     14989**DCL     15017>>ASSIGN
PSEUDO_FORM_REC
     14990**DCL     15010--ASSIGN  15011--CALL
REMEM_VAR
     12027**DCL     12027--REDEF
REM_FCMD
     12027**DCL     12028--REDEF
USERS_KEY
     11898**DCL     15015>>ASSIGN  15019<>CALL    15052<<ASSIGN  15053<>CALL    15059<<ASSIGN  15060<>CALL
USERS_KEY.COUNT
PL6.E3A0      #002=ASL$LIST_ONE_FORMSET File=ASL$DISPLAY_FORM.:E05TSI            TUE 07/29/97 09:58 Page:56
     11898**DCL     15012>>IF      15016<<ASSIGN
USERS_KEY.TEXT
     11898**DCL     11899--REDEF   11899--REDEF   11899--REDEF   11900--REDEF
USERS_KEY.TXTC
     11899**DCL     14994>>ASSIGN  15005>>IF      15013>>IF      15017<<ASSIGN

