PL6.E3A0      #003=ASL$DISP_ONE_FORM File=ASL$DISPLAY_FORM.:E05TSI               TUE 07/29/97 09:59 Page:57
      236        1        /*T***********************************************************/
      237        2        /*T*                                                         */
      238        3        /*T* Copyright (c) Bull HN Information Systems Inc., 1997    */
      239        4        /*T*                                                         */
      240        5        /*T***********************************************************/
      241        6        %EJECT;
PL6.E3A0      #003=ASL$DISP_ONE_FORM File=ASL$DISPLAY_FORM.:E05TSI               TUE 07/29/97 09:59 Page:58
      242        7        /*M* ASL$DISP_ONE_FORM: Routine to display forms.      */
      243        8        /*X*  DMC,DMR,CCC,PLM=0,IND=3,CTI=5,DCI=6,IAD=0,DTI=0,IDT=0,ENI=3,
      244        9              ECU=3,CSU=3,SDI=3                                           */
      245       10        ASL$DISP_ONE_FORM: PROC  ( OBJECT, FORM_FLAG, JCL) ;
      246       11        /**********************************************************/
      247       12
      248       13        /*D* NAME:     ASL$DISP_ONE_FORM
      249       14             CALL:     CALL ASL$DISP_ONE_FORM (FORM_FLAG, JCL);
      250       15             INPUT:
      251       16                       FORM_FLAG - bit array - where set option is to be
      252       17                                                displayed.
      253       18                       JCL - flag for method of display.
      254       19             OUTPUT:   Nothing is returned.
      255       20             DESCRIPTION:  ASL$DISP_ONE_FORM is the routine that handles
      256       21                           the display of a single form.
      257       22        */
      258       23        /********************************************************************/
      259       24        /*   Include files   include files   include files   include files  */
      260       25        /********************************************************************/
      261       26        %INCLUDE AS_PERR_C;
      262      628        %INCLUDE AS_SUPER_C;
      263     1063        %INCLUDE AS_SUBS_C;
      264     2477        %INCLUDE AS_MAC_C;
      265     2557        %INCLUDE AS_ENTRIES_M;
      266     3607        %INCLUDE AS_SSUBS_C;
      267     3699        %INCLUDE B_ERRORS_C;
      268     4826        %INCLUDE CP_6_SUBS;
      269     5366        %INCLUDE FS_SUPER_C;
      270     6129        %INCLUDE KL_SUPER_C;
      271     9031        %INCLUDE XU_MACRO_C;
      272    12137        %INCLUDE XU_FORMAT_C;
      273    12299        %INCLUDE XG_SUBS_C;
      274    12793        %INCLUDE AS_SUPER_R;
      275    15809        /********************************************************************/
      276    15810        /*   Parameters      parameters      parameters      parameters     */
      277    15811        /********************************************************************/
      278    15812    1   DCL FORM_FLAG    (0:8)            BIT (1) UNAL;
PL6.E3A0      #003=ASL$DISP_ONE_FORM File=ASL$DISPLAY_FORM.:E05TSI               TUE 07/29/97 09:59 Page:59
      279    15813    1   DCL 1 FORMFLAG REDEF FORM_FLAG,
      280    15814    1          2 HEADER                   BIT (1) UNAL,
      281    15815    1          2 SETUP                    BIT (1) UNAL,
      282    15816    1          2 BANNER                   BIT (1) UNAL,
      283    15817    1          2 ACCESS                   BIT (1) UNAL,
      284    15818    1          2 VFU                      BIT (1) UNAL,
      285    15819    1          2 ALIGN                    BIT (1) UNAL,
      286    15820    1          2 JUSTNAM                  BIT (1) UNAL,
      287    15821    1          2 PSEUDO                   BIT (1) UNAL,
      288    15822    1          2 *                        BIT (1) UNAL;
      289    15823    1   DCL JCL                           BIT(1);
      290    15824    1   DCL OBJECT                        UBIN;
      291    15825        /********************************************************************/
      292    15826        /*   Static data     static data     static data     static data    */
      293    15827        /********************************************************************/
      294    15828    1   DCL P$                            PTR STATIC;
      295    15829        /********************************************************************/
      296    15830        /*   Entry dcls      entry dcls      entry dcls      entry dcls     */
      297    15831        /********************************************************************/
      298    15832        %ASB$WRITE_LO ;
      299    15835        %ASF$PREC_FORM ;
      300    15838        %ASF$PREC_SKIP_FORM ;
      301    15841        %ASF$QUERY_PSEUDO_FORMS ;
      302    15844        %ASF$READ_FORM_SEQ ;
      303    15847    1   DCL X$FORMAT ENTRY(1) ;
      304    15848        /********************************************************************/
      305    15849        /*   Local based     local based     local based     local based    */
      306    15850        /********************************************************************/
      307    15851        %KL_ACBLK ( NAME = KL$ACBLK, STCLASS = "BASED(P$)");
      308    15856        %FS$GFORMREC ( NAME = FS$GFORMREC, STCLASS = "BASED(DSEG1$)");
      309    15915        %FS$FORMREC ( NAME = FS$FORMREC, STCLASS = "BASED(DSEG1$)");
      310    15986        %FS$BAN_INIT ( NAME = FS$BAN, STCLASS = "BASED(P$)");
      311    16043        %FS$GRAPHIC_BANNER ( NAME = FS$GBAN,
      312    16044                             STCLASS = "BASED(P$)");
      313    16101        %FS$ACCT_INIT ( NAME = FS$ACCOUNTS,
      314    16102                        STCLASS = BASED);
      315    16116        %FS$SET_INIT ( NAME = FS$SETUP,
PL6.E3A0      #003=ASL$DISP_ONE_FORM File=ASL$DISPLAY_FORM.:E05TSI               TUE 07/29/97 09:59 Page:60
      316    16117                       STCLASS = BASED);
      317    16135        /********************************************************************/
      318    16136        /*   Auto data       auto data       auto data       auto data      */
      319    16137        /********************************************************************/
      320    16138    1   DCL BIT18                         BIT (18) ALIGNED;
      321    16139    1   DCL UBIN18 REDEF BIT18            UBIN (18) ALIGNED;
      322    16140    1   DCL DEV_LIM  (0:9)                UBIN (18) HALIGNED;
      323    16141    1   DCL ENUM                          UBIN BYTE;
      324    16142
      325    16143    1   DCL 1 FEP ALIGNED,
      326    16144    1          2 *                        BIT (1) UNAL,
      327    16145    1          2 U                        BIT (8) UNAL,
      328    16146    1          2 *                        BIT (1) UNAL,
      329    16147    1          2 L                        BIT (8) UNAL;
      330    16148    1   DCL FEP18 REDEF FEP               UBIN (18) ALIGNED;
      331    16149    1   DCL 1 FORM_KEY,
      332    16150    1          2 CNT                      UBIN BYTE UNAL,
      333    16151    1          2 TXT                      CHAR(6) UNAL;
      334    16152    1   DCL 1 FORM_TYPE,
      335    16153    1          2 COUNT                    UBIN BYTE UNAL,
      336    16154    1          2 TXTC                     CHAR (30) UNAL;
      337    16155    1   DCL GRAPHIC                       BIT(1) ALIGNED;
      338    16156    1   DCL GRAPH_TAB   (0:16)            UBIN;
      339    16157    1   DCL 1 HOST ALIGNED,
      340    16158    1          2 *                        BIT (2) UNAL,
      341    16159    1          2 U                        BIT (8) UNAL,
      342    16160    1          2 L                        BIT (8) UNAL;
      343    16161    1   DCL HOST18 REDEF HOST             UBIN (18) ALIGNED;
      344    16162    1   DCL I                             SBIN;
      345    16163    1   DCL J                             SBIN;
      346    16164    1   DCL NON_GRAPH_TAB   (0:16)        UBIN;
      347    16165    1   DCL NO_TEXT                       BIT(1);
      348    16166    1   DCL 1 PSEUDO_FORM_KEY,
      349    16167    1          2 CNT                      UBIN BYTE UNAL,
      350    16168    1          2 TXT                      CHAR(12) UNAL;
      351    16169    1   DCL PSEUDO                        BIT(1);
      352    16170    1   DCL PSEUDO_FORMS                  BIT(1);
PL6.E3A0      #003=ASL$DISP_ONE_FORM File=ASL$DISPLAY_FORM.:E05TSI               TUE 07/29/97 09:59 Page:61
      353    16171    1   DCL PSEUDO_ST                     UBIN;
      354    16172    1   DCL REPEATS                       SBIN;
      355    16173    1   DCL TABS                          UBIN STATIC INIT( 10 );
      356    16174    1   DCL TAB                            UBIN ;
      357    16175    1   DCL TYPE                          UBIN BYTE;
      358    16176    1   DCL UBIN_ARRAY    (0:5)           UBIN;
      359    16177    1   DCL VEC_NUM                       UBIN;
      360    16178    1   DCL VFU_HDR_OUT                   BIT(1) ALIGNED;
      361    16179    1   DCL WIDTH                         UBIN;
      362    16180        /********************************************************************/
      363    16181        /*   Constant data   constant data   constant data   constant data  */
      364    16182        /********************************************************************/
      365    16183    1   DCL ACCN_INT_STR             CHAR(0) CONSTANT INIT('%ACCN');
      366    16184    1   DCL ACCOUNT_FMT              CHAR(0) CONSTANT INIT('  ACCOUNTS=%>A%N(,%>A%)');
      367    16185    1   DCL ALIGNMENT_STR        CHAR(0) CONSTANT INIT ('   ALIGNMENT');
      368    16186    1   DCL ALIGN_FMT                CHAR(0) CONSTANT INIT('%17-%A%24-%D');
      369    16187    1   DCL ALIGN_HDR                CHAR(0) CONSTANT INIT('   ALIGNMENT   EVERY  REPEATS');
      370    16188    1   DCL ALIGN_JCL_FMT      CHAR(0) CONSTANT INIT ('%3-ALIGNEVERY = ');
      371    16189    1   DCL BAN0_INT_STR             CHAR(0) CONSTANT INIT('%BANNERTEXT0');
      372    16190    1   DCL BAN1_INT_STR             CHAR(0) CONSTANT INIT('%BANNERTEXT1');
      373    16191    1   DCL BAN2_INT_STR             CHAR(0) CONSTANT INIT('%BANNERTEXT2');
      374    16192    1   DCL BAN3_INT_STR             CHAR(0) CONSTANT INIT('%BANNERTEXT3');
      375    16193    1   DCL BAN4_INT_STR             CHAR(0) CONSTANT INIT('%BANNERTEXT4');
      376    16194    1   DCL BAN5_INT_STR             CHAR(0) CONSTANT INIT('%BANNERTEXT5');
      377    16195    1   DCL BAN6_INT_STR             CHAR(0) CONSTANT INIT('%BANNERTEXT6');
      378    16196    1   DCL BAN7_INT_STR             CHAR(0) CONSTANT INIT('%BANNERTEXT7');
      379    16197    1   DCL BAN8_INT_STR             CHAR(0) CONSTANT INIT('%BANNERTEXT8');
      380    16198    1   DCL BAN9_INT_STR             CHAR(0) CONSTANT INIT('%BANNERTEXT9');
      381    16199    1   DCL BANNER_ENTRY_FMT         CHAR(0) CONSTANT INIT
      382    16200    1           ('%8-%D%13-%D%18-%D%24-%D%33-%D%39-%D%45-%+D%51-%D%57-%A');
      383    16201    1   DCL BANNER_ENTRY_HDR         CHAR(0) CONSTANT INIT
      384    16202    1           ('      ROW  COL  FONT  STRIKES  ICSH  REPS  RINC  CINC  TEXT');
      385    16203    1   DCL BANNER_FMT               CHAR(0) CONSTANT INIT('%14-%A%22-%D');
      386    16204    1   DCL BANNER_HDR               CHAR(0) CONSTANT INIT('   BANNER   CHARGE  REPEATS');
      387    16205    1   DCL BANNER_STR           CHAR(0) CONSTANT INIT ('   BANNER');
      388    16206    1   DCL BL_STR                   CHAR(0) CONSTANT INIT(' ');
      389    16207    1   DCL CHARGE_JCL_FMT      CHAR(0) CONSTANT INIT ('%3-CHARGE = ');
PL6.E3A0      #003=ASL$DISP_ONE_FORM File=ASL$DISPLAY_FORM.:E05TSI               TUE 07/29/97 09:59 Page:62
      390    16208    1   DCL CHARSET_JCL_FMT      CHAR(0) CONSTANT INIT
      391    16209    1       ('%N-%A%A%>A;');
      392    16210    1   DCL CHARSET_STR          CHAR(0) CONSTANT INIT ('CHARSET');
      393    16211    1   DCL DATE_INT_STR             CHAR(0) CONSTANT INIT('%DATE');
      394    16212    1   DCL DEVICE_LIMIT_JCL_FMT      CHAR(0) CONSTANT INIT
      395    16213    1       ('%N-%A%A%A%D;');
      396    16214    1   DCL DEVICE_LIMIT_STR     CHAR(0) CONSTANT INIT ('DEVICE LIMITS');
      397    16215    1   DCL DEV_LIM_FMT              CHAR(0) CONSTANT INIT ('%3-%D: %6-%D');
      398    16216    1   DCL DEV_LIM_HDR              CHAR(0) CONSTANT INIT (
             16216            '     Set Device Limit Parameters');
      399    16217    1   DCL END_STR            CHAR(0) CONSTANT INIT (' END');
      400    16218    1   DCL ENTRY_GRAPH_JCL_FMT  CHAR(0) CONSTANT INIT
      401    16219    1        ('ENTRY = %D%6(,%D%)');
      402    16220    1   DCL ENTRY_JCL_FMT        CHAR(0) CONSTANT INIT
      403    16221    1        ('ENTRY = %D%7(,%D%)');
      404    16222    1   DCL EQUAL_STR            CHAR(0) CONSTANT INIT (' = ');
      405    16223    1   DCL FORM_HDR                 CHAR(0) CONSTANT INIT
      406    16224    1    ('   WIDTH  LENGTH  LIMBO  FIRST  LPI  LPOK  TSOK  ELSOK  LTYP  CHARSET  TRANSLGL')
             16224             ;
      407    16225    1   DCL FORM_HDR_FMT             CHAR(0) CONSTANT INIT
      408    16226    1      ('%5-%D%12-%D%20-%D%27-%D%34-%D%39-%A%45-%A%51-%A%58-%A%64-%A%74-%A');
      409    16227    1   DCL FORM_JCL_FMT         CHAR(0) CONSTANT INIT
      410    16228    1     ('MODIFY FORM %>A');
      411    16229    1   DCL FORM_INT_STR             CHAR(0) CONSTANT INIT('%FORM');
      412    16230    1   DCL GBANNER_ENTRY_FMT        CHAR(0) CONSTANT INIT
      413    16231    1           ('%6-%D%11-%D%16-%D%22-%D%37-%D%44-%D%52-%D%59-%A');
      414    16232    1   DCL GBANNER_ENTRY_HDR        CHAR(0) CONSTANT INIT
      415    16233    1           ('     X    Y    Z    ROTATION  CHAR WIDTH  HEIGHT  SPACE  TEXT');
      416    16234    1   DCL GFORM_HDR                CHAR(0) CONSTANT INIT
      417    16235    1    ('   X SIZE  Y SIZE  Z SIZE  X OFFSET  Y OFFSET  Z OFFEST');
      418    16236    1   DCL GFORM_HDR_FMT            CHAR(0) CONSTANT INIT
      419    16237    1      ('%5-%D%13-%D%21-%D%29-%D%39-%D%49-%D');
      420    16238    1   DCL GFORM_HDR2               CHAR(0) CONSTANT INIT
      421    16239    1    ('   LPOK  TSOK  ELSOK  LTYP  CHARSET');
      422    16240    1   DCL GFORM_HDR2_FMT           CHAR(0) CONSTANT INIT
      423    16241    1      ('%5-%A%11-%A%17-%A%24-%A%30-%A');
      424    16242    1   DCL GRAPHICS_STR         CHAR(0) CONSTANT INIT (' (GRAPHICS)');
PL6.E3A0      #003=ASL$DISP_ONE_FORM File=ASL$DISPLAY_FORM.:E05TSI               TUE 07/29/97 09:59 Page:63
      425    16243    1   DCL GRAPH_HDR_JCL_FMT      CHAR(0) CONSTANT INIT
      426    16244    1       ('%N-%>A%A%D;');
      427    16245    1   DCL GRAPH_HDR_STR     (0:5)  CHAR(0) CONSTANT INIT
      428    16246    1                      ('XSIZE',
      429    16247    1                       'YSIZE',
      430    16248    1                       'ZSIZE',
      431    16249    1                       'XOFFSET',
      432    16250    1                       'YOFFSET',
      433    16251    1                       'ZOFFSET');
      434    16252    1   DCL GRAPH_TAB_DEFAULT        UBIN CONSTANT INIT(25);
      435    16253    1   DCL HDR_JCL_FMT      CHAR(0) CONSTANT INIT
      436    16254    1       ('%N-%>A%A%D;');
      437    16255    1   DCL HDR_JCL_FMT2      CHAR(0) CONSTANT INIT
      438    16256    1       ('%N-%>A%A%A;');
      439    16257    1   DCL HDR_STR     (0:5)  CHAR(0) CONSTANT INIT
      440    16258    1                      ('FIRSTLINE',
      441    16259    1                       'LENGTH',
      442    16260    1                       'LIMBO',
      443    16261    1                       'LPI',
      444    16262    1                       'WIDTH',
      445    16263    1                       'TRANSLGL');
      446    16264    1   DCL JOBNAME_INT_STR          CHAR(0) CONSTANT INIT('%JOBNAME');
      447    16265    1   DCL LOGO_INT_STR             CHAR(0) CONSTANT INIT('%LOGO');
      448    16266    1   DCL MINI_ID_INT_STR          CHAR(0) CONSTANT INIT('%MINI_ID');
      449    16267    1   DCL NO_STR                   CHAR(0) CONSTANT INIT('NO');
      450    16268    1   DCL NUMBER_STR     (0:9)     CHAR(1) CALIGNED CONSTANT INIT
      451    16269    1                 ('0', '1', '2', '3', '4', '5', '6', '7', '8', '9');
      452    16270    1   DCL PSEUDO_JCL_FMT       CHAR(0) CONSTANT INIT
      453    16271    1     ('MODIFY PSEUDO %>A FOR %>A');
      454    16272    1   DCL REGNAM_INT_STR           CHAR(0) CONSTANT INIT('%REGISTEREDNAME');
      455    16273    1   DCL REMOVE_BANNER_STR        CHAR(0) CONSTANT INIT ('REMOVE BANNER');
      456    16274    1   DCL REMOVE_ALIGNMENT_STR        CHAR(0) CONSTANT INIT ('REMOVE ALIGNMENT');
      457    16275    1   DCL REPEATS_JCL_FMT          CHAR(0) CONSTANT INIT ('%25-REPEATS = %D');
      458    16276    1   DCL SALUTE_INT_STR           CHAR(0) CONSTANT INIT('%SALUTE');
      459    16277    1   DCL SETUP_FMT                CHAR(0) CONSTANT INIT('%>A');
      460    16278    1   DCL SETUP_HDR                CHAR(0) CONSTANT INIT('   SETUP DATA');
      461    16279    1   DCL SETUP_STR                CHAR(0) CONSTANT INIT ('   SETUP');
PL6.E3A0      #003=ASL$DISP_ONE_FORM File=ASL$DISPLAY_FORM.:E05TSI               TUE 07/29/97 09:59 Page:64
      462    16280    1   DCL SETUP_TXT_FMT            CHAR(0) CONSTANT INIT ('%A');
      463    16281    1   DCL SITENAME_INT_STR         CHAR(0) CONSTANT INIT('%SITENAME');
      464    16282    1   DCL SUBFILE_INT_STR          CHAR(0) CONSTANT INIT('%SUBFILE');
      465    16283    1   DCL SYSID_INT_STR            CHAR(0) CONSTANT INIT('%SYSID');
      466    16284    1   DCL TAB_DEFAULT              UBIN CONSTANT INIT(20);
      467    16285    1   DCL TIME_INT_STR             CHAR(0) CONSTANT INIT('%TIME');
      468    16286    1   DCL UNAME_INT_STR            CHAR(0) CONSTANT INIT('%UNAME');
      469    16287    1   DCL VERSION_INT_STR          CHAR(0) CONSTANT INIT('%VERSION');
      470    16288    1   DCL VFUIM_STR                CHAR(0) CONSTANT INIT ('   VFUIM');
      471    16289    1   DCL VFU_FMT                  CHAR(0) CONSTANT INIT('%5-CHAN%D = %D%N(,%D%)');
      472    16290    1   DCL VFU_HDR                  CHAR(0) CONSTANT INIT('   VFU IMAGE');
      473    16291    1   DCL WOD_INT_STR              CHAR(0) CONSTANT INIT('%WOD');
      474    16292    1   DCL WOO_INT_STR              CHAR(0) CONSTANT INIT('%WOO');
      475    16293    1   DCL WSN_ACC_FMT              CHAR(0) CONSTANT INIT('  ACCESS=%>A%N(,%>A%)');
      476    16294    1   DCL YES_NO_FMT               CHAR(0) CONSTANT INIT ('%1.N[YES%0?NO%];');
      477    16295    1   DCL YES_STR                  CHAR(0) CONSTANT INIT('YES');
      478    16296        /********************************************************************/
      479    16297        /*   Procedure       procedure       procedure       procedure      */
      480    16298        /********************************************************************/
      481    16299                                                                          /**/
      482    16300                                                                          /**/
      483    16301    2   IF NOT JCL THEN DO;
      484    16302        /*
      485    16303        ** Put out the name (and type) of the form and any pseudo info needed.
      486    16304        */
      487    16305    2      GRAPHIC = %NO#;
      488    16306    2      FORM_TYPE.TXTC = ' ';
      489    16307    2      FORM_TYPE.COUNT = 0;
      490    16308    2      FMT_BUF = '%>A %A';
      491    16309    2      FDS.FMT_.BOUND = 5;
      492    16310    2      IF FS$FORMREC.GRAPHIC
      493    16311    3      THEN DO;
      494    16312    3         GRAPHIC = %YES#;
      495    16313    3         FORM_TYPE.TXTC = ' Graphic Form ';
      496    16314    3         FORM_TYPE.COUNT = 14;
      497    16315    3         END;
      498    16316    2      IF NOT FORMFLAG.JUSTNAM
PL6.E3A0      #003=ASL$DISP_ONE_FORM File=ASL$DISPLAY_FORM.:E05TSI               TUE 07/29/97 09:59 Page:65
      499    16317    3      THEN DO;
      500    16318    3         CALL ASB$WRITE_LO(' ',1);
      501    16319    3         CALL ASB$WRITE_LO(' ',1);
      502    16320    3         END;
      503    16321    2      IF SUBSTR(USERS_KEY.TXTC,0,USERS_KEY.COUNT) ~= FS$FORMREC.FNAME AND
      504    16322    3           OBJECT = %FORMSET_OBJ_VAL THEN DO;
      505    16323    3         FMT_BUF = '   %>A %A';
      506    16324    3         FDS.FMT_.BOUND = 8;
      507    16325    3         END;
      508    16326    2      FDS.NVECS# = 2;
      509    16327    2      FMT_VEC (0) = VECTOR ( FORM_TYPE.TXTC );
      510    16328    2      IF SUBSTR(USERS_KEY.TXTC,0,USERS_KEY.COUNT) ~= FS$FORMREC.FNAME
      511    16329    3      THEN DO;
      512    16330    3         FMT_VEC (1) = VECTOR ( SUBSTR (USERS_KEY.TXTC,0,USERS_KEY.COUNT) );
      513    16331    3         SUBSTR (FMT_BUF, FDS.FMT_.BOUND+1, 23) = '( Pseudo form for %>A )';
      514    16332    3         FDS.FMT_.BOUND = FDS.FMT_.BOUND + 23;
      515    16333    3         FMT_VEC (2) = VECTOR ( FS$FORMREC.FNAME );
      516    16334    3         FDS.NVECS# = 3;
      517    16335    3         PSEUDO_FORMS = %NO#;
      518    16336    3         END;
      519    16337    3      ELSE DO;
      520    16338    3         FORM_KEY = USERS_KEY;
      521    16339    3         FMT_VEC (1) = VECTOR ( FORM_KEY.TXT );
      522    16340    3         CALL ASF$QUERY_PSEUDO_FORMS( FORM_KEY, PSEUDO_FORM_KEY, PSEUDO_FORMS);
      523    16341    3         END;
      524    16342    2      CALL X$FORMAT (FDS);
      525    16343        /*
      526    16344        ** Do the access list now
      527    16345        */
      528    16346    2      IF FORMFLAG.ACCESS
      529    16347    3      THEN DO;
      530    16348    3         FMT_BUF = AS_BLANK;
      531    16349    3         FDS.FMT_.BOUND = 0;
      532    16350    3         FDS.NVECS# = 0;
      533    16351    3         IF FS$FORMREC.ACCSDISP>0
      534    16352    4         THEN DO;
      535    16353    4            P$ = PINCRW(DSEG1$,FS$FORMREC.ACCSDISP);
PL6.E3A0      #003=ASL$DISP_ONE_FORM File=ASL$DISPLAY_FORM.:E05TSI               TUE 07/29/97 09:59 Page:66
      536    16354    4            CALL ASB$WRITE_LO(' ',1);
      537    16355    4            CALL ADD_ACCLIST;
      538    16356    4            CALL X$FORMAT( FDS );
      539    16357    4            END;
      540    16358        /*
      541    16359        ** Do the account list next.
      542    16360            If the access option was specified give both access and account.
      543    16361        */
      544    16362    3         FMT_BUF = AS_BLANK;
      545    16363    3         FDS.FMT_.BOUND = 0;
      546    16364    3         FDS.NVECS# = 0;
      547    16365    3         IF FS$FORMREC.ACCTDISP>0
      548    16366    4         THEN DO;
      549    16367    4            P$ = PINCRW(DSEG1$,FS$FORMREC.ACCTDISP);
      550    16368    4            CALL ASB$WRITE_LO(' ',1);
      551    16369    4            CALL ADD_ACCOUNTLIST;
      552    16370    4            CALL X$FORMAT( FDS );
      553    16371    4            END;
      554    16372    3         END; /* If FORMFLAG.ACCESS */
      555    16373
      556    16374        /*
      557    16375        ** Do the header information now...
      558    16376        */
      559    16377    2      IF FORMFLAG.HEADER
      560    16378    3      THEN DO;
      561    16379    3         CALL ASB$WRITE_LO(' ',1);
      562    16380    3         IF GRAPHIC
      563    16381    4         THEN DO;
      564    16382    4            CALL ASB$WRITE_LO (GFORM_HDR, SIZEC(GFORM_HDR));
      565    16383    4            FMT_BUF = GFORM_HDR_FMT;
      566    16384    4            FDS.FMT_.BOUND = SIZEC (GFORM_HDR_FMT)-1;
      567    16385    4            FDS.NVECS# = 6;
      568    16386    4            FMT_VEC(0) = VECTOR (FS$GFORMREC.X_SIZE);
      569    16387    4            FMT_VEC(1) = VECTOR (FS$GFORMREC.Y_SIZE);
      570    16388    4            FMT_VEC(2) = VECTOR (FS$GFORMREC.Z_SIZE);
      571    16389    4            FMT_VEC(3) = VECTOR (FS$GFORMREC.X_OFFSET);
      572    16390    4            FMT_VEC(4) = VECTOR (FS$GFORMREC.Y_OFFSET);
PL6.E3A0      #003=ASL$DISP_ONE_FORM File=ASL$DISPLAY_FORM.:E05TSI               TUE 07/29/97 09:59 Page:67
      573    16391    4            FMT_VEC(5) = VECTOR (FS$GFORMREC.Z_OFFSET);
      574    16392    4            CALL X$FORMAT (FDS);
      575    16393    4            CALL ASB$WRITE_LO (' ',1);
      576    16394    4            CALL ASB$WRITE_LO (GFORM_HDR2, SIZEC(GFORM_HDR2));
      577    16395    4            FMT_BUF = GFORM_HDR2_FMT;
      578    16396    4            FDS.FMT_.BOUND = SIZEC (GFORM_HDR2_FMT) -1;
      579    16397    4            FDS.NVECS# = 5;
      580    16398    4            IF FS$GFORMREC.LGLTYPS.LPOK
      581    16399    5            THEN DO;
      582    16400    5               FMT_VEC(0) = VECTOR (YES_STR);
      583    16401    5               END;
      584    16402    5            ELSE DO;
      585    16403    5               FMT_VEC(0) = VECTOR (NO_STR);
      586    16404    5               END;
      587    16405    4            IF FS$GFORMREC.LGLTYPS.TSOK
      588    16406    5            THEN DO;
      589    16407    5               FMT_VEC(1) = VECTOR (YES_STR);
      590    16408    5               END;
      591    16409    5            ELSE DO;
      592    16410    5               FMT_VEC(1) = VECTOR (NO_STR);
      593    16411    5               END;
      594    16412    4            IF FS$GFORMREC.LGLTYPS.ELSOK
      595    16413    5            THEN DO;
      596    16414    5               FMT_VEC(2) = VECTOR (YES_STR);
      597    16415    5               END;
      598    16416    5            ELSE DO;
      599    16417    5               FMT_VEC(2) = VECTOR (NO_STR);
      600    16418    5               END;
      601    16419    4            IF FS$GFORMREC.LGLTYPS.ONEOK
      602    16420    5            THEN DO;
      603    16421    5               FMT_VEC(3) = VECTOR (FS$GFORMREC.LGLTYPS.LTYP);
      604    16422    5               END;
      605    16423    5            ELSE DO;
      606    16424    5               FMT_VEC(3) = VECTOR (BL_STR);
      607    16425    5               END;
      608    16426
      609    16427    4            FMT_VEC(4) = VECTOR (FS$GFORMREC.CHAIN_NAME);
PL6.E3A0      #003=ASL$DISP_ONE_FORM File=ASL$DISPLAY_FORM.:E05TSI               TUE 07/29/97 09:59 Page:68
      610    16428    4            END;
      611    16429    4         ELSE DO;          /* Std form not graphic */
      612    16430    4            CALL ASB$WRITE_LO(FORM_HDR,SIZEC(FORM_HDR));
      613    16431    4            FMT_BUF = FORM_HDR_FMT;
      614    16432    4            FDS.FMT_.BOUND = SIZEC(FORM_HDR_FMT)-1;
      615    16433    4            FDS.NVECS# = 11;
      616    16434    4            FMT_VEC(0) = VECTOR(WIDTH);
      617    16435    4            WIDTH=FS$FORMREC.SOFTFORM.VLPPLATEN.WIDTH;
      618    16436    4            IF FS$FORMREC.SOFTFORM.VLPPLATEN.EXTWID THEN WIDTH=WIDTH+254;
      619    16437    4            FMT_VEC(1) = VECTOR(FS$FORMREC.SOFTFORM.VLPPLATEN.LENGTH);
      620    16438    4            FMT_VEC(2) = VECTOR(FS$FORMREC.SOFTFORM.VLPPLATEN.LIMBO);
      621    16439    4            FMT_VEC(3) = VECTOR(FS$FORMREC.SOFTFORM.VLPPLATEN.FIRSTLINE);
      622    16440    4            FMT_VEC(4) = VECTOR(FS$FORMREC.SOFTFORM.VLPPLATEN.LPI);
      623    16441    4            IF FS$FORMREC.LGLTYPS.LPOK
      624    16442    5            THEN DO;
      625    16443    5               FMT_VEC(5) = VECTOR(YES_STR);
      626    16444    5               END;
      627    16445    5            ELSE DO;
      628    16446    5               FMT_VEC(5) = VECTOR(NO_STR);
      629    16447    5               END;
      630    16448    4            IF FS$FORMREC.LGLTYPS.TSOK
      631    16449    5            THEN DO;
      632    16450    5               FMT_VEC(6) = VECTOR(YES_STR);
      633    16451    5               END;
      634    16452    5            ELSE DO;
      635    16453    5               FMT_VEC(6) = VECTOR(NO_STR);
      636    16454    5               END;
      637    16455    4            IF FS$FORMREC.LGLTYPS.ELSOK
      638    16456    5            THEN DO;
      639    16457    5               FMT_VEC(7) = VECTOR(YES_STR);
      640    16458    5               END;
      641    16459    5            ELSE DO;
      642    16460    5               FMT_VEC(7) = VECTOR(NO_STR);
      643    16461    5               END;
      644    16462    4            IF FS$FORMREC.LGLTYPS.ONEOK
      645    16463    5            THEN DO;
      646    16464    5               FMT_VEC(8) = VECTOR(FS$FORMREC.LGLTYPS.LTYP);
PL6.E3A0      #003=ASL$DISP_ONE_FORM File=ASL$DISPLAY_FORM.:E05TSI               TUE 07/29/97 09:59 Page:69
      647    16465    5               END;
      648    16466    5            ELSE DO;
      649    16467    5               FMT_VEC(8) = VECTOR(BL_STR);
      650    16468    5               END;
      651    16469
      652    16470    4            FMT_VEC(9) = VECTOR (FS$FORMREC.CHAIN_NAME);
      653    16471    4            IF ((FS$FORMREC.ATTR & %ATTR_TRANSLGL#) = %ATTR_TRANSLGL#) THEN
      654    16472    4               FMT_VEC(10) = VECTOR (YES_STR);
      655    16473    4            ELSE
      656    16474    4               FMT_VEC(10) = VECTOR (NO_STR);
      657    16475    4            END;
      658    16476
      659    16477    3         CALL X$FORMAT(FDS);
      660    16478        /**
      661    16479         ** Set device limit information
      662    16480         **/
      663    16481    3         IF GRAPHIC
      664    16482    4         THEN DO;
      665    16483    4            CALL ASB$WRITE_LO(' ',1);
      666    16484    4            CALL ASB$WRITE_LO (DEV_LIM_HDR, SIZEC (DEV_LIM_HDR));
      667    16485    4            FMT_BUF = DEV_LIM_FMT;
      668    16486    4            FDS.FMT_.BOUND = SIZEC (DEV_LIM_FMT) - 1;
      669    16487    4            FDS.NVECS# = 2;
      670    16488    5            DO I= 0 TO 9;
      671    16489    5               FMT_VEC(0) = VECTOR (I);
      672    16490    5               BIT18 = FS$GFORMREC.SET_DEV_LIM.UPARAM (I);
      673    16491    5               CALL SPLIT9X92_18 (UBIN18);
      674    16492    5               DEV_LIM(I) = HOST18;
      675    16493    5               FMT_VEC (1) = VECTOR (DEV_LIM(I));
      676    16494    5               CALL X$FORMAT(FDS);
      677    16495    5               END;
      678    16496    4            END;
      679    16497    3         END; /* If FORMFLAG.HEADER */
      680    16498
      681    16499        /**
      682    16500         ** Put out vfu images
      683    16501         **/
PL6.E3A0      #003=ASL$DISP_ONE_FORM File=ASL$DISPLAY_FORM.:E05TSI               TUE 07/29/97 09:59 Page:70
      684    16502    2      IF FORMFLAG.VFU
      685    16503    3      THEN DO;
      686    16504    3         IF NOT GRAPHIC
      687    16505    4         THEN DO;
      688    16506    4            VFU_HDR_OUT = %NO#;
      689    16507    5            DO I=1 TO 15;
      690    16508    5               IF FS$FORMREC.SOFTFORM.VFUIM.V.LINE(I)~=0
      691    16509    6               THEN DO;
      692    16510    6                  IF ~VFU_HDR_OUT
      693    16511    7                  THEN DO;
      694    16512    7                     CALL ASB$WRITE_LO(' ',1);
      695    16513    7                     CALL ASB$WRITE_LO(VFU_HDR,SIZEC(VFU_HDR));
      696    16514    7                     VFU_HDR_OUT = %YES#;
      697    16515    7                     FMT_BUF = VFU_FMT;
      698    16516    7                     FDS.FMT_.BOUND = SIZEC(VFU_FMT)-1;
      699    16517    7                     FMT_VEC(2) = VECTOR(REPEATS);
      700    16518    7                     END;
      701    16519    6                  FMT_VEC(0) = VECTOR(I);
      702    16520    6                  FMT_VEC(1) = VECTOR(FS$FORMREC.SOFTFORM.VFUIM.V.LINE(I));
      703    16521    6                  REPEATS = 0;
      704    16522    6                  FDS.NVECS# = 3;
      705    16523    6                  J = I;
      706    16524    7                  DO WHILE(FS$FORMREC.SOFTFORM.VFUIM.V.NEXT(J)~=0);
      707    16525    7                     J = FS$FORMREC.SOFTFORM.VFUIM.V.NEXT(J);
      708    16526    7                     FMT_VEC(FDS.NVECS#) = VECTOR(FS$FORMREC.SOFTFORM.VFUIM.V.LINE(J));
      709    16527    7                     FDS.NVECS# = FDS.NVECS# + 1;
      710    16528    7                     REPEATS = REPEATS + 1;
      711    16529    7                     END;
      712    16530    6                  CALL X$FORMAT(FDS);
      713    16531    6                  END;
      714    16532    5               END;
      715    16533    4            END;
      716    16534    3         END; /* If FORMFLAG.VFU */
      717    16535
      718    16536        /**
      719    16537         ** Setup information
      720    16538         **/
PL6.E3A0      #003=ASL$DISP_ONE_FORM File=ASL$DISPLAY_FORM.:E05TSI               TUE 07/29/97 09:59 Page:71
      721    16539    2      IF FORMFLAG.SETUP
      722    16540    3      THEN DO;
      723    16541    3         IF FS$FORMREC.SETUPDISP ~= 0
      724    16542    4         THEN DO;
      725    16543    4            P$ = PINCRW(DSEG1$,FS$FORMREC.SETUPDISP);
      726    16544    4            IF P$->FS$SETUP.LINES > 0
      727    16545    5            THEN DO;
      728    16546    5               CALL ASB$WRITE_LO(' ',1);
      729    16547    5               CALL ASB$WRITE_LO(SETUP_HDR,SIZEC(SETUP_HDR));
      730    16548    5               FMT_BUF = SETUP_FMT;
      731    16549    5               FDS.FMT_.BOUND = SIZEC(SETUP_FMT)-1;
      732    16550    5               FDS.NVECS# = 1;
      733    16551    5               ENUM = P$->FS$SETUP.LINES;
      734    16552    6               DO I= 0 TO ENUM-1;
      735    16553    6                  FMT_VEC(0) = VECTOR(P$->FS$SETUP.TXT(I));
      736    16554    6                  CALL X$FORMAT(FDS);
      737    16555    6                  END;
      738    16556    5               END;
      739    16557    4            END;
      740    16558    3         END; /* If FORMFLAG.SETUP */
      741    16559
      742    16560        /**
      743    16561         ** Alignment
      744    16562         **/
      745    16563    2      IF FORMFLAG.ALIGN
      746    16564    3      THEN DO;
      747    16565    3         IF FS$FORMREC.ALGNDISP~=0
      748    16566    4         THEN DO;
      749    16567    4            P$ = PINCRW(DSEG1$,FS$FORMREC.ALGNDISP);
      750    16568    4            CALL ASB$WRITE_LO(' ',1);
      751    16569    4            CALL ASB$WRITE_LO(ALIGN_HDR,SIZEC(ALIGN_HDR));
      752    16570    4            FMT_BUF = ALIGN_FMT;
      753    16571    4            FDS.FMT_.BOUND = SIZEC(ALIGN_FMT)-1;
      754    16572    4            FDS.NVECS# = 2;
      755    16573    4            IF FS$BAN.ALIGNCTL.EVERY
      756    16574    4            THEN
      757    16575    4               FMT_VEC(0) = VECTOR(YES_STR);
PL6.E3A0      #003=ASL$DISP_ONE_FORM File=ASL$DISPLAY_FORM.:E05TSI               TUE 07/29/97 09:59 Page:72
      758    16576    4            ELSE
      759    16577    4               FMT_VEC(0) = VECTOR(NO_STR);
      760    16578    4            CALL FINISH_BANNER;
      761    16579    4            END;
      762    16580    3         END; /* If FORMFLAG.ALIGN */
      763    16581
      764    16582        /**
      765    16583         ** Banner
      766    16584         **/
      767    16585    2      IF FORMFLAG.BANNER
      768    16586    3      THEN DO;
      769    16587    3         IF FS$FORMREC.BANRDISP~=0
      770    16588    4         THEN DO;
      771    16589    4            P$ = PINCRW(DSEG1$,FS$FORMREC.BANRDISP);
      772    16590    4            CALL ASB$WRITE_LO(' ',1);
      773    16591    4            CALL ASB$WRITE_LO(BANNER_HDR,SIZEC(BANNER_HDR));
      774    16592    4            FMT_BUF = BANNER_FMT;
      775    16593    4            FDS.FMT_.BOUND = SIZEC(BANNER_FMT)-1;
      776    16594    4            FDS.NVECS# = 2;
      777    16595    4            IF FS$BAN.CHARGE~=0
      778    16596    4            THEN
      779    16597    4               FMT_VEC(0) = VECTOR(YES_STR);
      780    16598    4            ELSE
      781    16599    4               FMT_VEC(0) = VECTOR(NO_STR);
      782    16600    4            CALL FINISH_BANNER;
      783    16601    4            END;
      784    16602    3         END; /* If FORMFLAG.BANNER */
      785    16603
      786    16604        /*
      787    16605        ** Put out a list of pseudos if any exist.
      788    16606        */
      789    16607    2      IF FORMFLAG.PSEUDO
      790    16608    3      THEN DO;
      791    16609    4         IF PSEUDO_FORMS THEN DO;
      792    16610    4            CALL ASB$WRITE_LO( AS_BLANK, 1 );
      793    16611    4            CALL CONCAT( OUT_BUF,'  PSEUDO FORMS FOR FORM ',FORM_KEY.TXT);
      794    16612    4            CALL ASB$WRITE_LO( OUT_BUF, LENGTHC(OUT_BUF) );
PL6.E3A0      #003=ASL$DISP_ONE_FORM File=ASL$DISPLAY_FORM.:E05TSI               TUE 07/29/97 09:59 Page:73
      795    16613    4            CALL ASB$WRITE_LO( AS_BLANK, 1 );
      796    16614    4            CALL FLUSH;
      797    16615    4            USERS_KEY = PSEUDO_FORM_KEY;
      798    16616    4            CALL ASF$PREC_FORM( USERS_KEY );
      799    16617    4            I = 4;
      800    16618    4            CALL ASF$READ_FORM_SEQ(, DSEG2$, I ) ALTRET(FINISHED);
      801    16619    5            DO WHILE( USERS_KEY.COUNT = 12 AND SUBSTR(USERS_KEY.TXTC,0,6) = FORM_KEY.
             16619                     TXT );
      802    16620    5               IF TABS + 10 > LO_WIDTH THEN CALL FLUSH;
      803    16621    5               CALL INSERT( OUT_BUF, TABS, , SUBSTR(USERS_KEY.TXTC,6,6) );
      804    16622    5               TABS = TABS + 10;
      805    16623    5               CALL ASF$READ_FORM_SEQ(, DSEG2$, I ) ALTRET(FINISHED);
      806    16624    5               END;
      807    16625    4   FINISHED:
      808    16626    4            CALL FLUSH;
      809    16627    4            CALL ASB$WRITE_LO( AS_BLANK, 1 );
      810    16628    4            CALL ASF$PREC_SKIP_FORM( FORM_KEY );
      811    16629    4            END;
      812    16630    3         END; /* If FORMFLAG.PSEUDO */
      813    16631    2      END; /*  Not jcl  */
      814    16632    2   ELSE DO ;  /*  Jcl  */
      815    16633        /*  Don't output the default forms  */
      816    16634    2      IF USERS_KEY.TXTC = 'STDLP' OR
      817    16635    2           USERS_KEY.TXTC = 'STD**' OR
      818    16636    2           USERS_KEY.TXTC = 'STDGR' THEN
      819    16637    2         RETURN;
      820    16638        /*
      821    16639        ** Put out the create command.
      822    16640        */
      823    16641    2      GRAPHIC = %NO#;
      824    16642    2      IF FS$FORMREC.GRAPHIC THEN
      825    16643    2         GRAPHIC = %YES#;
      826    16644    2      CALL ASB$WRITE_LO(' ',1);
      827    16645    2      IF SUBSTR(USERS_KEY.TXTC,0,USERS_KEY.COUNT) ~= FS$FORMREC.FNAME
      828    16646    3      THEN DO;
      829    16647    3         FMT_BUF = PSEUDO_JCL_FMT;
      830    16648    3         FDS.FMT_.BOUND = SIZEC (PSEUDO_JCL_FMT);
PL6.E3A0      #003=ASL$DISP_ONE_FORM File=ASL$DISPLAY_FORM.:E05TSI               TUE 07/29/97 09:59 Page:74
      831    16649    3         FDS.NVECS# = 2;
      832    16650    3         FMT_VEC (0) = VECTOR (SUBSTR (USERS_KEY.TXTC,0,USERS_KEY.COUNT));
      833    16651    3         FMT_VEC (1) = VECTOR (FS$FORMREC.FNAME);
      834    16652    3         PSEUDO_FORMS = %NO#;
      835    16653    3         PSEUDO = %YES#;
      836    16654    3         END; /*  Pseudo  */
      837    16655    3      ELSE DO;
      838    16656    3         PSEUDO = %NO#;
      839    16657    3         FMT_BUF = FORM_JCL_FMT;
      840    16658    3         FDS.FMT_.BOUND = SIZEC (FORM_JCL_FMT);
      841    16659    3         FDS.NVECS# = 1;
      842    16660    3         FMT_VEC (0) = VECTOR (SUBSTR (USERS_KEY.TXTC,0,USERS_KEY.COUNT));
      843    16661    4         IF GRAPHIC THEN DO;
      844    16662    4            SUBSTR(FMT_BUF,FDS.FMT_.BOUND+1,SIZEC(GRAPHICS_STR)) = GRAPHICS_STR;
      845    16663    4            FDS.FMT_.BOUND = FDS.FMT_.BOUND + SIZEC (GRAPHICS_STR);
      846    16664    4            END; /*  Graphic  */
      847    16665    3         END; /*   Not pseudo  */
      848    16666    2      CALL X$FORMAT (FDS);
      849    16667        /*
      850    16668        ** Do the access list now
      851    16669        */
      852    16670    2      FMT_BUF = AS_BLANK;
      853    16671    2      FDS.FMT_.BOUND = 0;
      854    16672    2      FDS.NVECS# = 0;
      855    16673    2      IF FS$FORMREC.ACCSDISP>0
      856    16674    3      THEN DO;
      857    16675    3         P$ = PINCRW(DSEG1$,FS$FORMREC.ACCSDISP);
      858    16676    3         CALL ADD_ACCLIST;
      859    16677    3         CALL X$FORMAT( FDS );
      860    16678    3         END;  /*  Access list exists  */
      861    16679        /*
      862    16680        ** Do the account list next.
      863    16681            If the access option was specified give both access and account.
      864    16682        */
      865    16683    2      FMT_BUF = AS_BLANK;
      866    16684    2      FDS.FMT_.BOUND = 0;
      867    16685    2      FDS.NVECS# = 0;
PL6.E3A0      #003=ASL$DISP_ONE_FORM File=ASL$DISPLAY_FORM.:E05TSI               TUE 07/29/97 09:59 Page:75
      868    16686    2      IF FS$FORMREC.ACCTDISP>0
      869    16687    3      THEN DO;
      870    16688    3         P$ = PINCRW(DSEG1$,FS$FORMREC.ACCTDISP);
      871    16689    3         CALL ADD_ACCOUNTLIST;
      872    16690    3         CALL X$FORMAT( FDS );
      873    16691    3         END;
      874    16692
      875    16693        /*
      876    16694        ** Do the header information now...
      877    16695        */
      878    16696    2      FMT_BUF = AS_BLANK;
      879    16697    2      FDS.FMT_.BOUND = 0;
      880    16698    2      FDS.NVECS# = 0;
      881    16699    2      IF GRAPHIC
      882    16700    3      THEN DO;
      883    16701                                 /* Setup the graphics tabs  */
      884    16702    3         GRAPH_TAB(0) = 3;
      885    16703    4         DO I = 1 TO 10;
      886    16704    4            GRAPH_TAB(I) = GRAPH_TAB(I-1) + GRAPH_TAB_DEFAULT;
      887    16705    4            END; /*  Graph tab loop  */
      888    16706
      889    16707    4         IF NOT PSEUDO THEN DO;
      890    16708    4            FMT_BUF = CHARSET_JCL_FMT;
      891    16709    4            FDS.FMT_.BOUND = SIZEC (CHARSET_JCL_FMT);
      892    16710    4            FDS.NVECS# = 4;
      893    16711    4            FMT_VEC(0) = VECTOR ( GRAPH_TAB(0) );
      894    16712    4            FMT_VEC(1) = VECTOR ( CHARSET_STR );
      895    16713    4            FMT_VEC(2) = VECTOR ( EQUAL_STR );
      896    16714    4            FMT_VEC(3) = VECTOR ( FS$GFORMREC.CHAIN_NAME );
      897    16715    4            TABS = GRAPH_TAB(1);
      898    16716    4            J = 1;
      899    16717        /**
      900    16718         ** Set device limit information
      901    16719         **/
      902    16720    5            DO I = 0 TO 9;
      903    16721    6               IF (LO_WIDTH - TABS) < GRAPH_TAB_DEFAULT THEN DO;
      904    16722    6                  CALL X$FORMAT( FDS );
PL6.E3A0      #003=ASL$DISP_ONE_FORM File=ASL$DISPLAY_FORM.:E05TSI               TUE 07/29/97 09:59 Page:76
      905    16723    6                  J = 0;
      906    16724    6                  FMT_BUF = AS_BLANK;
      907    16725    6                  FDS.FMT_.BOUND = 0;
      908    16726    6                  FDS.NVECS# = 0;
      909    16727    6                  TABS = 0;
      910    16728    6                  END; /*  Not enough room for another option  */
      911    16729    5               SUBSTR (FMT_BUF, FDS.FMT_.BOUND + 1, SIZEC(DEVICE_LIMIT_JCL_FMT)) =
             16729                        DEVICE_LIMIT_JCL_FMT;
      912    16730    5               FDS.FMT_.BOUND = FDS.FMT_.BOUND + SIZEC (DEVICE_LIMIT_JCL_FMT);
      913    16731    5               TABS = TABS + GRAPH_TAB_DEFAULT;
      914    16732    5               FMT_VEC (FDS.NVECS#) = VECTOR ( GRAPH_TAB(J) );
      915    16733    5               J = J + 1;
      916    16734    5               FMT_VEC (FDS.NVECS#+1) = VECTOR ( DEVICE_LIMIT_STR );
      917    16735    5               FMT_VEC (FDS.NVECS#+2) = VECTOR ( NUMBER_STR(I) );
      918    16736    5               FMT_VEC (FDS.NVECS#+3) = VECTOR ( EQUAL_STR );
      919    16737    5               BIT18 = FS$GFORMREC.SET_DEV_LIM.UPARAM (I);
      920    16738    5               CALL SPLIT9X92_18 (UBIN18);
      921    16739    5               DEV_LIM(I) = HOST18;
      922    16740    5               FMT_VEC (FDS.NVECS#+4) = VECTOR (DEV_LIM(I));
      923    16741    5               FDS.NVECS# = FDS.NVECS# + 5;
      924    16742    5               END; /*  Loop through the device limit parameters  */
      925    16743    4            END;   /*  Not pseudo  */
      926    16744    3         UBIN_ARRAY(0) = FS$GFORMREC.X_SIZE;
      927    16745    3         UBIN_ARRAY(1) = FS$GFORMREC.Y_SIZE;
      928    16746    3         UBIN_ARRAY(2) = FS$GFORMREC.Z_SIZE;
      929    16747    3         UBIN_ARRAY(3) = FS$GFORMREC.X_OFFSET;
      930    16748    3         UBIN_ARRAY(4) = FS$GFORMREC.Y_OFFSET;
      931    16749    3         UBIN_ARRAY(5) = FS$GFORMREC.Z_OFFSET;
      932    16750        /**
      933    16751         ** Set graphic header information
      934    16752         **/
      935    16753    4         DO I = 0 TO 5;
      936    16754    5            IF (LO_WIDTH - TABS) < GRAPH_TAB_DEFAULT THEN DO;
      937    16755    5               CALL X$FORMAT( FDS );
      938    16756    5               J = 0;
      939    16757    5               FMT_BUF = AS_BLANK;
      940    16758    5               FDS.FMT_.BOUND = 0;
PL6.E3A0      #003=ASL$DISP_ONE_FORM File=ASL$DISPLAY_FORM.:E05TSI               TUE 07/29/97 09:59 Page:77
      941    16759    5               FDS.NVECS# = 0;
      942    16760    5               TABS = 0;
      943    16761    5               END;  /*  Not enough room for another option  */
      944    16762    4            SUBSTR (FMT_BUF, FDS.FMT_.BOUND + 1, SIZEC(GRAPH_HDR_JCL_FMT)) =
             16762                     GRAPH_HDR_JCL_FMT;
      945    16763    4            FDS.FMT_.BOUND = FDS.FMT_.BOUND + SIZEC (GRAPH_HDR_JCL_FMT);
      946    16764    4            TABS = TABS + GRAPH_TAB_DEFAULT;
      947    16765    4            FMT_VEC (FDS.NVECS#) = VECTOR ( GRAPH_TAB(J) );
      948    16766    4            J = J + 1;
      949    16767    4            FMT_VEC (FDS.NVECS#+1) = VECTOR ( GRAPH_HDR_STR(I) );
      950    16768    4            FMT_VEC (FDS.NVECS#+2) = VECTOR ( EQUAL_STR );
      951    16769    4            FMT_VEC (FDS.NVECS#+3) = VECTOR ( UBIN_ARRAY(I) );
      952    16770    4            FDS.NVECS# = FDS.NVECS# + 4;
      953    16771    4            END;    /*  Loop through the graphic header parameters  */
      954    16772    3         CALL X$FORMAT (FDS);
      955    16773    3         END;   /*  If graphic  */
      956    16774    3      ELSE DO;   /*  Std form not graphic  */
      957    16775                                 /* Setup the non graphics tabs  */
      958    16776    3         NON_GRAPH_TAB(0) = 3;
      959    16777    4         DO I = 1 TO 16;
      960    16778    4            NON_GRAPH_TAB(I) = NON_GRAPH_TAB(I-1) + TAB_DEFAULT;
      961    16779    4            END; /*  Non graph tab loop  */
      962    16780
      963    16781    3         FMT_BUF = AS_BLANK;
      964    16782    3         FDS.FMT_.BOUND = 0;
      965    16783    3         FDS.NVECS# = 0;
      966    16784    3         TABS = 0;
      967    16785    3         J = 0;
      968    16786    4         IF NOT PSEUDO THEN DO;
      969    16787    4            FMT_BUF = CHARSET_JCL_FMT;
      970    16788    4            FDS.FMT_.BOUND = SIZEC (CHARSET_JCL_FMT);
      971    16789    4            FDS.NVECS# = 4;
      972    16790    4            FMT_VEC(0) = VECTOR ( NON_GRAPH_TAB(0) );
      973    16791    4            FMT_VEC(1) = VECTOR ( CHARSET_STR );
      974    16792    4            FMT_VEC(2) = VECTOR ( EQUAL_STR );
      975    16793    4            FMT_VEC(3) = VECTOR ( FS$FORMREC.CHAIN_NAME );
      976    16794    4            TABS = NON_GRAPH_TAB(1);
PL6.E3A0      #003=ASL$DISP_ONE_FORM File=ASL$DISPLAY_FORM.:E05TSI               TUE 07/29/97 09:59 Page:78
      977    16795    4            J = 1;
      978    16796    4            END;   /*  Not pseudo  */
      979    16797    3         UBIN_ARRAY(0) = FS$FORMREC.SOFTFORM.VLPPLATEN.FIRSTLINE;
      980    16798    3         UBIN_ARRAY(1) = FS$FORMREC.SOFTFORM.VLPPLATEN.LENGTH;
      981    16799    3         UBIN_ARRAY(2) = FS$FORMREC.SOFTFORM.VLPPLATEN.LIMBO;
      982    16800    3         UBIN_ARRAY(3) = FS$FORMREC.SOFTFORM.VLPPLATEN.LPI;
      983    16801    3         UBIN_ARRAY(4) = FS$FORMREC.SOFTFORM.VLPPLATEN.WIDTH;
      984    16802    3         IF FS$FORMREC.SOFTFORM.VLPPLATEN.EXTWID THEN
      985    16803    3            UBIN_ARRAY(4) = UBIN_ARRAY(4) + 254;
      986    16804        /**
      987    16805         ** Set header information
      988    16806         **/
      989    16807    4         DO I = 0 TO 5;
      990    16808    5            IF (LO_WIDTH - TABS) < TAB_DEFAULT THEN DO;
      991    16809    5               CALL X$FORMAT( FDS );
      992    16810    5               J = 0;
      993    16811    5               FMT_BUF = AS_BLANK;
      994    16812    5               FDS.FMT_.BOUND = 0;
      995    16813    5               FDS.NVECS# = 0;
      996    16814    5               TABS = 0;
      997    16815    5               END;  /*  Not enough room for another option  */
      998    16816    5            IF (NOT PSEUDO) OR (PSEUDO AND I ~= 3) THEN DO;
      999    16817                     /*  Skip lpi if this is a pseudo form  */
     1000    16818    6               IF I > 4 THEN DO;
     1001    16819    6                  SUBSTR (FMT_BUF, FDS.FMT_.BOUND + 1, SIZEC(HDR_JCL_FMT2)) =
             16819                           HDR_JCL_FMT2;
     1002    16820    6                  FDS.FMT_.BOUND = FDS.FMT_.BOUND + SIZEC (HDR_JCL_FMT2);
     1003    16821    6                  END;
     1004    16822    6               ELSE DO;
     1005    16823    6                  SUBSTR (FMT_BUF, FDS.FMT_.BOUND + 1, SIZEC(HDR_JCL_FMT)) =
             16823                           HDR_JCL_FMT;
     1006    16824    6                  FDS.FMT_.BOUND = FDS.FMT_.BOUND + SIZEC (HDR_JCL_FMT);
     1007    16825    6                  END;
     1008    16826    5               FMT_VEC (FDS.NVECS#) = VECTOR (NON_GRAPH_TAB(J) );
     1009    16827    5               FMT_VEC (FDS.NVECS#+1) = VECTOR ( HDR_STR(I) );
     1010    16828    5               FMT_VEC (FDS.NVECS#+2) = VECTOR ( EQUAL_STR );
     1011    16829    6               IF I > 4 THEN DO;
PL6.E3A0      #003=ASL$DISP_ONE_FORM File=ASL$DISPLAY_FORM.:E05TSI               TUE 07/29/97 09:59 Page:79
     1012    16830    6                  IF ((FS$FORMREC.ATTR & %ATTR_TRANSLGL#) = %ATTR_TRANSLGL#) THEN
     1013    16831    6                     FMT_VEC(FDS.NVECS#+3) = VECTOR (YES_STR);
     1014    16832    6                  ELSE
     1015    16833    6                     FMT_VEC(FDS.NVECS#+3) = VECTOR (NO_STR);
     1016    16834    6                  END;
     1017    16835    5               ELSE
     1018    16836    5                  FMT_VEC (FDS.NVECS#+3) = VECTOR ( UBIN_ARRAY(I) );
     1019    16837    5               FDS.NVECS# = FDS.NVECS# + 4;
     1020    16838    5               TABS = TABS + TAB_DEFAULT;
     1021    16839    5               J = J + 1;
     1022    16840    5               END;    /* Skip lpi if pseudo  */
     1023    16841    4            END;    /*  Loop through the header parameters  */
     1024    16842    3         CALL X$FORMAT (FDS);
     1025    16843    3         END;   /*  Std form not graphic  */
     1026    16844
     1027    16845        /**
     1028    16846         ** Put out vfu images
     1029    16847         **/
     1030    16848    2      IF FORMFLAG.VFU
     1031    16849    3      THEN DO;
     1032    16850    3         IF NOT GRAPHIC
     1033    16851    4         THEN DO;
     1034    16852    4            VFU_HDR_OUT = %NO#;
     1035    16853    5            DO I=1 TO 15;
     1036    16854    5               IF FS$FORMREC.SOFTFORM.VFUIM.V.LINE(I)~=0
     1037    16855    6               THEN DO;
     1038    16856    6                  IF ~VFU_HDR_OUT
     1039    16857    7                  THEN DO;
     1040    16858    7                     CALL ASB$WRITE_LO(VFUIM_STR,SIZEC(VFUIM_STR));
     1041    16859    7                     VFU_HDR_OUT = %YES#;
     1042    16860    7                     FMT_BUF = VFU_FMT;
     1043    16861    7                     FDS.FMT_.BOUND = SIZEC(VFU_FMT)-1;
     1044    16862    7                     FMT_VEC(2) = VECTOR(REPEATS);
     1045    16863    7                     END; /*  Header not output  */
     1046    16864    6                  FMT_VEC(0) = VECTOR(I);
     1047    16865    6                  FMT_VEC(1) = VECTOR(FS$FORMREC.SOFTFORM.VFUIM.V.LINE(I));
     1048    16866    6                  REPEATS = 0;
PL6.E3A0      #003=ASL$DISP_ONE_FORM File=ASL$DISPLAY_FORM.:E05TSI               TUE 07/29/97 09:59 Page:80
     1049    16867    6                  FDS.NVECS# = 3;
     1050    16868    6                  J = I;
     1051    16869    7                  DO WHILE(FS$FORMREC.SOFTFORM.VFUIM.V.NEXT(J)~=0);
     1052    16870    7                     J = FS$FORMREC.SOFTFORM.VFUIM.V.NEXT(J);
     1053    16871    7                     FMT_VEC(FDS.NVECS#) = VECTOR(FS$FORMREC.SOFTFORM.VFUIM.V.LINE(J));
     1054    16872    7                     FDS.NVECS# = FDS.NVECS# + 1;
     1055    16873    7                     REPEATS = REPEATS + 1;
     1056    16874    7                     END; /*  Do while next ~ 0  */
     1057    16875    6                  CALL X$FORMAT(FDS);
     1058    16876    6                  END; /*  Line ~ 0  */
     1059    16877    5               END; /*  Loop 1 to 15  */
     1060    16878    4            IF VFU_HDR_OUT THEN
     1061    16879    4               CALL ASB$WRITE_LO(' ',1);
     1062    16880    5            ELSE DO;
     1063    16881    5               CALL ASB$WRITE_LO(VFUIM_STR,SIZEC(VFUIM_STR));
     1064    16882    5               CALL ASB$WRITE_LO(END_STR,SIZEC(END_STR));
     1065    16883    5               END; /*  No vfu  */
     1066    16884    4            END; /*  Not graphic  */
     1067    16885    3         END; /* If FORMFLAG.VFU */
     1068    16886
     1069    16887        /**
     1070    16888         ** Setup information
     1071    16889         **/
     1072    16890    2      IF FORMFLAG.SETUP AND NOT PSEUDO
     1073    16891    3      THEN DO;
     1074    16892    3         CALL ASB$WRITE_LO(SETUP_STR,SIZEC(SETUP_STR));
     1075    16893    3         IF FS$FORMREC.SETUPDISP ~= 0
     1076    16894    4         THEN DO;
     1077    16895    4            P$ = PINCRW(DSEG1$,FS$FORMREC.SETUPDISP);
     1078    16896    4            IF P$->FS$SETUP.LINES > 0
     1079    16897    5            THEN DO;
     1080    16898    5               FMT_BUF = SETUP_FMT;
     1081    16899    5               FDS.FMT_.BOUND = SIZEC(SETUP_FMT)-1;
     1082    16900    5               FDS.NVECS# = 1;
     1083    16901    5               ENUM = P$->FS$SETUP.LINES;
     1084    16902    6               DO I= 0 TO ENUM-1;
     1085    16903    6                  FMT_VEC(0) = VECTOR(P$->FS$SETUP.TXT(I));
PL6.E3A0      #003=ASL$DISP_ONE_FORM File=ASL$DISPLAY_FORM.:E05TSI               TUE 07/29/97 09:59 Page:81
     1086    16904    6                  CALL X$FORMAT(FDS);
     1087    16905    6                  END; /*  Loop enum times  */
     1088    16906    5               END; /*  Lines > 0  */
     1089    16907    4            END; /*  Setupdisp not 0  */
     1090    16908    3         CALL ASB$WRITE_LO(' ',1);
     1091    16909    3         END; /* If FORMFLAG.SETUP and not pseudo  */
     1092    16910
     1093    16911        /**
     1094    16912         ** Alignment
     1095    16913         **/
     1096    16914    2      IF FORMFLAG.ALIGN AND NOT PSEUDO
     1097    16915    3      THEN DO;
     1098    16916    3         IF FS$FORMREC.ALGNDISP~=0
     1099    16917    4         THEN DO;
     1100    16918    4            CALL ASB$WRITE_LO(ALIGNMENT_STR,SIZEC(ALIGNMENT_STR));
     1101    16919    4            P$ = PINCRW(DSEG1$,FS$FORMREC.ALGNDISP);
     1102    16920    4            CALL CONCAT (FMT_BUF,ALIGN_JCL_FMT,YES_NO_FMT);
     1103    16921    4            FDS.FMT_.BOUND = SIZEC(ALIGN_JCL_FMT) + SIZEC(YES_NO_FMT) - 1;
     1104    16922    4            FDS.NVECS# = 1;
     1105    16923    4            UBIN_ARRAY(0) = BITBIN ( FS$BAN.ALIGNCTL.EVERY );
     1106    16924    4            FMT_VEC(0) = VECTOR ( UBIN_ARRAY(0) );
     1107    16925    4            CALL FINISH_BANNER;
     1108    16926        /*    Call ASB$WRITE_LO(' ',1);*/
     1109    16927    4            END; /*  Alignment exists  */
     1110    16928    4         ELSE DO;
     1111    16929    4            CALL ASB$WRITE_LO(REMOVE_ALIGNMENT_STR,SIZEC(REMOVE_ALIGNMENT_STR));
     1112    16930    4            END;   /*  No alignment  */
     1113    16931    3         END; /* If FORMFLAG.ALIGN and not pseudo  */
     1114    16932
     1115    16933        /**
     1116    16934         ** Banner
     1117    16935         **/
     1118    16936    2      IF FORMFLAG.BANNER
     1119    16937    3      THEN DO;
     1120    16938    3         IF FS$FORMREC.BANRDISP~=0
     1121    16939    4         THEN DO;
     1122    16940    4            CALL ASB$WRITE_LO(BANNER_STR,SIZEC(BANNER_STR));
PL6.E3A0      #003=ASL$DISP_ONE_FORM File=ASL$DISPLAY_FORM.:E05TSI               TUE 07/29/97 09:59 Page:82
     1123    16941    4            P$ = PINCRW(DSEG1$,FS$FORMREC.BANRDISP);
     1124    16942    4            CALL CONCAT (FMT_BUF,CHARGE_JCL_FMT,YES_NO_FMT);
     1125    16943    4            FDS.FMT_.BOUND = SIZEC(CHARGE_JCL_FMT) + SIZEC(YES_NO_FMT) - 1;
     1126    16944    4            FDS.NVECS# = 1;
     1127    16945    4            UBIN_ARRAY(0) = FS$BAN.CHARGE;
     1128    16946    4            FMT_VEC(0) = VECTOR ( UBIN_ARRAY(0) );
     1129    16947    4            CALL FINISH_BANNER;
     1130    16948    4            CALL ASB$WRITE_LO(' ',1);
     1131    16949    4            END; /*  Banner exists  */
     1132    16950    4         ELSE DO;
     1133    16951    4            CALL ASB$WRITE_LO(REMOVE_BANNER_STR,SIZEC(REMOVE_BANNER_STR));
     1134    16952    4            END;   /*  No banner  */
     1135    16953    3         END; /* If FORMFLAG.BANNER */
     1136    16954
     1137    16955    2      END; /* If jcl */
     1138    16956
     1139    16957        /* We are now done with this form... */
     1140    16958
     1141    16959    1   RETURN;
     1142    16960        %EJECT;
PL6.E3A0      #003=ASL$DISP_ONE_FORM File=ASL$DISPLAY_FORM.:E05TSI               TUE 07/29/97 09:59 Page:83
     1143    16961    1   FLUSH: PROC;
     1144    16962
     1145    16963    2   IF TABS > 10 THEN CALL ASB$WRITE_LO( OUT_BUF, LO_WIDTH );
     1146    16964    2   OUT_BUF = ' ';
     1147    16965    2   TABS = 10;
     1148    16966
     1149    16967    2   END FLUSH;
     1150    16968
     1151    16969        %EJECT;
PL6.E3A0      #003=ASL$DISP_ONE_FORM File=ASL$DISPLAY_FORM.:E05TSI               TUE 07/29/97 09:59 Page:84
     1152    16970    1   FINISH_BANNER: PROC;
     1153    16971    2   DCL I SBIN;
     1154    16972    2   DCL 1 X_INT STATIC,
     1155    16973    2          2 * CHAR(1) INIT('%'),
     1156    16974    2          2 XCHAR CHAR(1);
     1157    16975
     1158    16976    3   IF JCL THEN DO;
     1159    16977    3      SUBSTR(FMT_BUF, FDS.FMT_.BOUND+1,SIZEC(REPEATS_JCL_FMT)) = REPEATS_JCL_FMT;
     1160    16978    3      FDS.FMT_.BOUND = FDS.FMT_.BOUND + SIZEC(REPEATS_JCL_FMT);
     1161    16979    3      FMT_VEC (FDS.NVECS#) = VECTOR ( FS$BAN.REPEATS );
     1162    16980    3      FDS.NVECS# = FDS.NVECS# + 1;
     1163    16981    3      END;   /*  If jcl  */
     1164    16982    2   ELSE
     1165    16983    2      FMT_VEC(1) = VECTOR(FS$BAN.REPEATS);
     1166    16984    2   CALL X$FORMAT(FDS);
     1167    16985    3   IF NOT JCL THEN DO;
     1168    16986    3      CALL ASB$WRITE_LO(' ',1);
     1169    16987    3      IF FS$BAN.NUM_ENTRIES>0
     1170    16988    4      THEN DO;
     1171    16989    4         IF GRAPHIC
     1172    16990    5         THEN DO;
     1173    16991    5            CALL ASB$WRITE_LO(GBANNER_ENTRY_HDR,SIZEC(GBANNER_ENTRY_HDR));
     1174    16992    5            FMT_BUF = GBANNER_ENTRY_FMT;
     1175    16993    5            FDS.FMT_.BOUND = SIZEC (GBANNER_ENTRY_FMT) - 1;
     1176    16994    5            FDS.NVECS# = 8;
     1177    16995    5            END;
     1178    16996    5         ELSE DO;
     1179    16997    5            CALL ASB$WRITE_LO(BANNER_ENTRY_HDR,SIZEC(BANNER_ENTRY_HDR));
     1180    16998    5            FMT_BUF = BANNER_ENTRY_FMT;
     1181    16999    5            FDS.FMT_.BOUND = SIZEC(BANNER_ENTRY_FMT)-1;
     1182    17000    5            FDS.NVECS# = 9;
     1183    17001    5            END;
     1184    17002    4         VEC_NUM = FDS.NVECS# - 1;
     1185    17003    5         DO I=0 TO FS$BAN.NUM_ENTRIES-1;
     1186    17004    5            IF GRAPHIC
     1187    17005    6            THEN DO;
     1188    17006    6               FMT_VEC (0) = VECTOR (FS$GBAN.ENTRIES.X_VAL (I));
PL6.E3A0      #003=ASL$DISP_ONE_FORM File=ASL$DISPLAY_FORM.:E05TSI               TUE 07/29/97 09:59 Page:85
     1189    17007    6               FMT_VEC (1) = VECTOR (FS$GBAN.ENTRIES.Y_VAL (I));
     1190    17008    6               FMT_VEC (2) = VECTOR (FS$GBAN.ENTRIES.Z_VAL (I));
     1191    17009    6               FMT_VEC (3) = VECTOR (FS$GBAN.ENTRIES.DIRECTION(I));
     1192    17010    6               FMT_VEC (4) = VECTOR (FS$GBAN.ENTRIES.CHAR_WIDTH (I));
     1193    17011    6               FMT_VEC (5) = VECTOR (FS$GBAN.ENTRIES.CHAR_HITE (I));
     1194    17012    6               FMT_VEC (6) = VECTOR (FS$GBAN.ENTRIES.CHAR_SPACE (I));
     1195    17013    6               TYPE = FS$GBAN.ENTRIES.TYPE (I);
     1196    17014    6               END;
     1197    17015    6            ELSE DO;
     1198    17016    6               FMT_VEC(0) = VECTOR(FS$BAN.ENTRIES.ROW(I));
     1199    17017    6               FMT_VEC(1) = VECTOR(FS$BAN.ENTRIES.COL(I));
     1200    17018    6               FMT_VEC(2) = VECTOR(FS$BAN.ENTRIES.FONT(I));
     1201    17019    6               FMT_VEC(3) = VECTOR(FS$BAN.ENTRIES.STRIKES(I));
     1202    17020    6               FMT_VEC(4) = VECTOR(FS$BAN.ENTRIES.ICSH(I));
     1203    17021    6               FMT_VEC(5) = VECTOR(FS$BAN.ENTRIES.REPS(I));
     1204    17022    6               FMT_VEC(6) = VECTOR(FS$BAN.ENTRIES.RINC(I));
     1205    17023    6               FMT_VEC(7) = VECTOR(FS$BAN.ENTRIES.CINC(I));
     1206    17024    6               TYPE = FS$BAN.ENTRIES.TYPE (I);
     1207    17025    6               END;
     1208    17026    6            DO SELECT (TYPE);
     1209    17027    6               SELECT(FS_PLAIN_TEXT);
     1210    17028    6               IF GRAPHIC
     1211    17029    7               THEN DO;
     1212    17030    7                  IF FS$GBAN.ENTRIES.COUNT(I) = 0
     1213    17031    8                  THEN DO;
     1214    17032    8                     FMT_VEC (VEC_NUM) = VECTOR(BL_STR);
     1215    17033    8                     END;
     1216    17034    8                  ELSE DO;
     1217    17035    8                     FMT_VEC (VEC_NUM) = VECTOR (FS$GBAN);
             17035                              /* Just to get flags right   */
     1218    17036    8                     FMT_VEC.PTR$ (VEC_NUM) = PINCRW(ADDR(FS$GBAN),FS$GBAN.ENTRIES.DISP
             17036                              (I));
     1219    17037    8                     FMT_VEC.BOUND (VEC_NUM) = FS$GBAN.ENTRIES.COUNT(I)-1;
     1220    17038    8                     END;
     1221    17039    7                  END;
     1222    17040    7               ELSE DO;
     1223    17041    7                  IF FS$BAN.ENTRIES.COUNT(I) = 0
PL6.E3A0      #003=ASL$DISP_ONE_FORM File=ASL$DISPLAY_FORM.:E05TSI               TUE 07/29/97 09:59 Page:86
     1224    17042    8                  THEN DO;
     1225    17043    8                     FMT_VEC (VEC_NUM) = VECTOR(BL_STR);
     1226    17044    8                     END;
     1227    17045    8                  ELSE DO;
     1228    17046    8                     FMT_VEC (VEC_NUM) = VECTOR(FS$BAN);
             17046                              /* Just to get flags right   */
     1229    17047    8                     FMT_VEC.PTR$ (VEC_NUM) = PINCRW(ADDR(FS$BAN),FS$BAN.ENTRIES.DISP(I
             17047                              ));
     1230    17048    8                     FMT_VEC.BOUND (VEC_NUM) = FS$BAN.ENTRIES.COUNT(I)-1;
     1231    17049    8                     END;
     1232    17050    7                  END;
     1233    17051    6               SELECT(FS_X_INT);
     1234    17052    6               IF GRAPHIC
     1235    17053    7               THEN DO;
     1236    17054    7                  FMT_VEC (VEC_NUM) = VECTOR(X_INT);
     1237    17055    7                  X_INT.XCHAR = FS$GBAN.ENTRIES.CHR(I);
     1238    17056    7                  END;
     1239    17057    7               ELSE DO;
     1240    17058    7                  FMT_VEC (VEC_NUM) = VECTOR(X_INT);
     1241    17059    7                  X_INT.XCHAR = FS$BAN.ENTRIES.CHR(I);
     1242    17060    7                  END;
     1243    17061    6               SELECT(FS_SYSID_INT);
     1244    17062    6               FMT_VEC (VEC_NUM) = VECTOR(SYSID_INT_STR);
     1245    17063    6               SELECT(FS_ACCN_INT);
     1246    17064    6               FMT_VEC (VEC_NUM) = VECTOR(ACCN_INT_STR);
     1247    17065    6               SELECT(FS_UNAME_INT);
     1248    17066    6               FMT_VEC (VEC_NUM) = VECTOR(UNAME_INT_STR);
     1249    17067    6               SELECT(FS_WOO_INT);
     1250    17068    6               FMT_VEC (VEC_NUM) = VECTOR(WOO_INT_STR);
     1251    17069    6               SELECT(FS_JOBNAME_INT);
     1252    17070    6               FMT_VEC (VEC_NUM) = VECTOR(JOBNAME_INT_STR);
     1253    17071    6               SELECT(FS_TIME_INT);
     1254    17072    6               FMT_VEC (VEC_NUM) = VECTOR(TIME_INT_STR);
     1255    17073    6               SELECT(FS_DATE_INT);
     1256    17074    6               FMT_VEC (VEC_NUM) = VECTOR(DATE_INT_STR);
     1257    17075    6               SELECT(FS_VERSION_INT);
     1258    17076    6               FMT_VEC (VEC_NUM) = VECTOR(VERSION_INT_STR);
PL6.E3A0      #003=ASL$DISP_ONE_FORM File=ASL$DISPLAY_FORM.:E05TSI               TUE 07/29/97 09:59 Page:87
     1259    17077    6               SELECT(FS_SUBFILE_INT);
     1260    17078    6               FMT_VEC (VEC_NUM) = VECTOR(SUBFILE_INT_STR);
     1261    17079    6               SELECT(FS_LOGO_INT);
     1262    17080    6               FMT_VEC (VEC_NUM) = VECTOR(LOGO_INT_STR);
     1263    17081    6               SELECT(FS_WOD_INT);
     1264    17082    6               FMT_VEC (VEC_NUM) = VECTOR(WOD_INT_STR);
     1265    17083    6               SELECT(FS_SITENAME_INT);
     1266    17084    6               FMT_VEC (VEC_NUM) = VECTOR(SITENAME_INT_STR);
     1267    17085    6               SELECT(FS_SALUTE_INT);
     1268    17086    6               FMT_VEC (VEC_NUM) = VECTOR(SALUTE_INT_STR);
     1269    17087    6               SELECT(FS_FORM_INT);
     1270    17088    6               FMT_VEC (VEC_NUM) = VECTOR(FORM_INT_STR);
     1271    17089    6               SELECT(FS_MINI_ID_INT);
     1272    17090    6               FMT_VEC (VEC_NUM) = VECTOR(MINI_ID_INT_STR);
     1273    17091    6               SELECT(FS_BANNERTEXT0_INT);
     1274    17092    6               FMT_VEC (VEC_NUM) = VECTOR(BAN0_INT_STR);
     1275    17093    6               SELECT(FS_BANNERTEXT1_INT);
     1276    17094    6               FMT_VEC (VEC_NUM) = VECTOR(BAN1_INT_STR);
     1277    17095    6               SELECT(FS_BANNERTEXT2_INT);
     1278    17096    6               FMT_VEC (VEC_NUM) = VECTOR(BAN2_INT_STR);
     1279    17097    6               SELECT(FS_BANNERTEXT3_INT);
     1280    17098    6               FMT_VEC (VEC_NUM) = VECTOR(BAN3_INT_STR);
     1281    17099    6               SELECT(FS_BANNERTEXT4_INT);
     1282    17100    6               FMT_VEC (VEC_NUM) = VECTOR(BAN4_INT_STR);
     1283    17101    6               SELECT(FS_BANNERTEXT5_INT);
     1284    17102    6               FMT_VEC (VEC_NUM) = VECTOR(BAN5_INT_STR);
     1285    17103    6               SELECT(FS_BANNERTEXT6_INT);
     1286    17104    6               FMT_VEC (VEC_NUM) = VECTOR(BAN6_INT_STR);
     1287    17105    6               SELECT(FS_BANNERTEXT7_INT);
     1288    17106    6               FMT_VEC (VEC_NUM) = VECTOR(BAN7_INT_STR);
     1289    17107    6               SELECT(FS_BANNERTEXT8_INT);
     1290    17108    6               FMT_VEC (VEC_NUM) = VECTOR(BAN8_INT_STR);
     1291    17109    6               SELECT(FS_BANNERTEXT9_INT);
     1292    17110    6               FMT_VEC (VEC_NUM) = VECTOR(BAN9_INT_STR);
     1293    17111    6               SELECT(FS_REGISTEREDNAME_INT);
     1294    17112    6               FMT_VEC (VEC_NUM) = VECTOR(REGNAM_INT_STR);
     1295    17113    6               END;
PL6.E3A0      #003=ASL$DISP_ONE_FORM File=ASL$DISPLAY_FORM.:E05TSI               TUE 07/29/97 09:59 Page:88
     1296    17114    5            CALL X$FORMAT(FDS);
     1297    17115    5            END;
     1298    17116    4         END;
     1299    17117    3      END;  /*  If not jcl  */
     1300    17118    3   ELSE DO;   /*   Jcl  */
     1301    17119    3      IF FS$BAN.NUM_ENTRIES>0
     1302    17120    4      THEN DO;
     1303    17121    5         DO I=0 TO FS$BAN.NUM_ENTRIES-1;
     1304    17122    5            IF GRAPHIC
     1305    17123    6            THEN DO;
     1306    17124    6               FMT_BUF = ENTRY_GRAPH_JCL_FMT;
     1307    17125    6               FDS.FMT_.BOUND = SIZEC ( ENTRY_GRAPH_JCL_FMT ) - 1;
     1308    17126    6               FDS.NVECS# = 7;
     1309    17127    6               FMT_VEC (0) = VECTOR (FS$GBAN.ENTRIES.X_VAL (I));
     1310    17128    6               FMT_VEC (1) = VECTOR (FS$GBAN.ENTRIES.Y_VAL (I));
     1311    17129    6               FMT_VEC (2) = VECTOR (FS$GBAN.ENTRIES.Z_VAL (I));
     1312    17130    6               FMT_VEC (3) = VECTOR (FS$GBAN.ENTRIES.DIRECTION(I));
     1313    17131    6               FMT_VEC (4) = VECTOR (FS$GBAN.ENTRIES.CHAR_WIDTH (I));
     1314    17132    6               FMT_VEC (5) = VECTOR (FS$GBAN.ENTRIES.CHAR_HITE (I));
     1315    17133    6               FMT_VEC (6) = VECTOR (FS$GBAN.ENTRIES.CHAR_SPACE (I));
     1316    17134    6               TYPE = FS$GBAN.ENTRIES.TYPE (I);
     1317    17135    6               END;   /*  Graphic form  */
     1318    17136    6            ELSE DO;
     1319    17137    6               FMT_BUF = ENTRY_JCL_FMT;
     1320    17138    6               FDS.FMT_.BOUND = SIZEC ( ENTRY_JCL_FMT ) - 1;
     1321    17139    6               FDS.NVECS# = 8;
     1322    17140    6               FMT_VEC(0) = VECTOR(FS$BAN.ENTRIES.ROW(I));
     1323    17141    6               FMT_VEC(1) = VECTOR(FS$BAN.ENTRIES.COL(I));
     1324    17142    6               FMT_VEC(2) = VECTOR(FS$BAN.ENTRIES.FONT(I));
     1325    17143    6               FMT_VEC(3) = VECTOR(FS$BAN.ENTRIES.STRIKES(I));
     1326    17144    6               FMT_VEC(4) = VECTOR(FS$BAN.ENTRIES.ICSH(I));
     1327    17145    6               FMT_VEC(5) = VECTOR(FS$BAN.ENTRIES.REPS(I));
     1328    17146    6               FMT_VEC(6) = VECTOR(FS$BAN.ENTRIES.RINC(I));
     1329    17147    6               FMT_VEC(7) = VECTOR(FS$BAN.ENTRIES.CINC(I));
     1330    17148    6               TYPE = FS$BAN.ENTRIES.TYPE (I);
     1331    17149    6               END;   /*  Non graphic form  */
     1332    17150    5            CALL X$FORMAT(FDS);
PL6.E3A0      #003=ASL$DISP_ONE_FORM File=ASL$DISPLAY_FORM.:E05TSI               TUE 07/29/97 09:59 Page:89
     1333    17151    5            FMT_BUF = SETUP_TXT_FMT;
     1334    17152    5            FDS.FMT_.BOUND = SIZEC ( SETUP_TXT_FMT ) - 1;
     1335    17153    5            FDS.NVECS# = 1;
     1336    17154    5            NO_TEXT = %NO#;
     1337    17155    6            DO SELECT (TYPE);
     1338    17156    6               SELECT(FS_PLAIN_TEXT);
     1339    17157    6               IF GRAPHIC
     1340    17158    7               THEN DO;
     1341    17159    7                  IF FS$GBAN.ENTRIES.COUNT(I) = 0
     1342    17160    8                  THEN DO;
     1343    17161    8                     NO_TEXT = %YES#;
     1344    17162    8                     END;   /*  Count(i) = 0  */
     1345    17163    8                  ELSE DO;
     1346    17164    8                     FMT_VEC (0) = VECTOR (FS$GBAN); /* Just to get flags right   */
     1347    17165    8                     FMT_VEC.PTR$ (0) = PINCRW(ADDR(FS$GBAN),FS$GBAN.ENTRIES.DISP(I));
     1348    17166    8                     FMT_VEC.BOUND (0) = FS$GBAN.ENTRIES.COUNT(I)-1;
     1349    17167    8                     END;  /*  Count (i) ~= 0  */
     1350    17168    7                  END;   /*  Graphic  */
     1351    17169    7               ELSE DO;
     1352    17170    7                  IF FS$BAN.ENTRIES.COUNT(I) = 0
     1353    17171    8                  THEN DO;
     1354    17172    8                     NO_TEXT = %YES#;
     1355    17173    8                     END;  /*  Count (i) = 0  */
     1356    17174    8                  ELSE DO;
     1357    17175    8                     FMT_VEC (0) = VECTOR(FS$BAN); /* Just to get flags right   */
     1358    17176    8                     FMT_VEC.PTR$ (0) = PINCRW(ADDR(FS$BAN),FS$BAN.ENTRIES.DISP(I));
     1359    17177    8                     FMT_VEC.BOUND (0) = FS$BAN.ENTRIES.COUNT(I)-1;
     1360    17178    8                     END;  /*  Count (i) ~= 0  */
     1361    17179    7                  END;  /*  Non graphic  */
     1362    17180    6               SELECT(FS_X_INT);
     1363    17181    6               IF GRAPHIC
     1364    17182    7               THEN DO;
     1365    17183    7                  FMT_VEC (0) = VECTOR(X_INT);
     1366    17184    7                  X_INT.XCHAR = FS$GBAN.ENTRIES.CHR(I);
     1367    17185    7                  END;  /*  Graphic  */
     1368    17186    7               ELSE DO;
     1369    17187    7                  FMT_VEC (0) = VECTOR(X_INT);
PL6.E3A0      #003=ASL$DISP_ONE_FORM File=ASL$DISPLAY_FORM.:E05TSI               TUE 07/29/97 09:59 Page:90
     1370    17188    7                  X_INT.XCHAR = FS$BAN.ENTRIES.CHR(I);
     1371    17189    7                  END;  /* Non graphic  */
     1372    17190    6               SELECT(FS_SYSID_INT);
     1373    17191    6               FMT_VEC (0) = VECTOR(SYSID_INT_STR);
     1374    17192    6               SELECT(FS_ACCN_INT);
     1375    17193    6               FMT_VEC (0) = VECTOR(ACCN_INT_STR);
     1376    17194    6               SELECT(FS_UNAME_INT);
     1377    17195    6               FMT_VEC (0) = VECTOR(UNAME_INT_STR);
     1378    17196    6               SELECT(FS_WOO_INT);
     1379    17197    6               FMT_VEC (0) = VECTOR(WOO_INT_STR);
     1380    17198    6               SELECT(FS_JOBNAME_INT);
     1381    17199    6               FMT_VEC (0) = VECTOR(JOBNAME_INT_STR);
     1382    17200    6               SELECT(FS_TIME_INT);
     1383    17201    6               FMT_VEC (0) = VECTOR(TIME_INT_STR);
     1384    17202    6               SELECT(FS_DATE_INT);
     1385    17203    6               FMT_VEC (0) = VECTOR(DATE_INT_STR);
     1386    17204    6               SELECT(FS_VERSION_INT);
     1387    17205    6               FMT_VEC (0) = VECTOR(VERSION_INT_STR);
     1388    17206    6               SELECT(FS_SUBFILE_INT);
     1389    17207    6               FMT_VEC (0) = VECTOR(SUBFILE_INT_STR);
     1390    17208    6               SELECT(FS_LOGO_INT);
     1391    17209    6               FMT_VEC (0) = VECTOR(LOGO_INT_STR);
     1392    17210    6               SELECT(FS_WOD_INT);
     1393    17211    6               FMT_VEC (0) = VECTOR(WOD_INT_STR);
     1394    17212    6               SELECT(FS_SITENAME_INT);
     1395    17213    6               FMT_VEC (0) = VECTOR(SITENAME_INT_STR);
     1396    17214    6               SELECT(FS_SALUTE_INT);
     1397    17215    6               FMT_VEC (0) = VECTOR(SALUTE_INT_STR);
     1398    17216    6               SELECT(FS_FORM_INT);
     1399    17217    6               FMT_VEC (0) = VECTOR(FORM_INT_STR);
     1400    17218    6               SELECT(FS_MINI_ID_INT);
     1401    17219    6               FMT_VEC (0) = VECTOR(MINI_ID_INT_STR);
     1402    17220    6               SELECT(FS_BANNERTEXT0_INT);
     1403    17221    6               FMT_VEC (0) = VECTOR(BAN0_INT_STR);
     1404    17222    6               SELECT(FS_BANNERTEXT1_INT);
     1405    17223    6               FMT_VEC (0) = VECTOR(BAN1_INT_STR);
     1406    17224    6               SELECT(FS_BANNERTEXT2_INT);
PL6.E3A0      #003=ASL$DISP_ONE_FORM File=ASL$DISPLAY_FORM.:E05TSI               TUE 07/29/97 09:59 Page:91
     1407    17225    6               FMT_VEC (0) = VECTOR(BAN2_INT_STR);
     1408    17226    6               SELECT(FS_BANNERTEXT3_INT);
     1409    17227    6               FMT_VEC (0) = VECTOR(BAN3_INT_STR);
     1410    17228    6               SELECT(FS_BANNERTEXT4_INT);
     1411    17229    6               FMT_VEC (0) = VECTOR(BAN4_INT_STR);
     1412    17230    6               SELECT(FS_BANNERTEXT5_INT);
     1413    17231    6               FMT_VEC (0) = VECTOR(BAN5_INT_STR);
     1414    17232    6               SELECT(FS_BANNERTEXT6_INT);
     1415    17233    6               FMT_VEC (0) = VECTOR(BAN6_INT_STR);
     1416    17234    6               SELECT(FS_BANNERTEXT7_INT);
     1417    17235    6               FMT_VEC (0) = VECTOR(BAN7_INT_STR);
     1418    17236    6               SELECT(FS_BANNERTEXT8_INT);
     1419    17237    6               FMT_VEC (0) = VECTOR(BAN8_INT_STR);
     1420    17238    6               SELECT(FS_BANNERTEXT9_INT);
     1421    17239    6               FMT_VEC (0) = VECTOR(BAN9_INT_STR);
     1422    17240    6               SELECT(FS_REGISTEREDNAME_INT);
     1423    17241    6               FMT_VEC (0) = VECTOR(REGNAM_INT_STR);
     1424    17242    6               END;   /*  Case (type)  */
     1425    17243    5            IF NOT NO_TEXT THEN
     1426    17244    5               CALL X$FORMAT(FDS);
     1427    17245    5            END;  /*  Loop through entries  */
     1428    17246    4         CALL ASB$WRITE_LO(' ',1);
     1429    17247    4         END;   /*  NUM_ENTRIES > 0  */
     1430    17248    3      END;  /*  Jcl  */
     1431    17249    2   RETURN;
     1432    17250    2   END FINISH_BANNER;
     1433    17251    1   SPLIT9X92_18: PROC (VALUE);
     1434    17252    2   DCL VALUE UBIN (18) ALIGNED;
     1435    17253
     1436    17254    2   FEP18 = VALUE;
     1437    17255    2   HOST18 = 0;
     1438    17256    2   HOST.U = FEP.U;
     1439    17257    2   HOST.L = FEP.L;
     1440    17258
     1441    17259    2   RETURN;
     1442    17260    2   END SPLIT9X92_18;
     1443    17261    1   ADD_ACCLIST: PROC;
PL6.E3A0      #003=ASL$DISP_ONE_FORM File=ASL$DISPLAY_FORM.:E05TSI               TUE 07/29/97 09:59 Page:92
     1444    17262    2   DCL REPEATS SBIN;
     1445    17263    2   DCL I SBIN;
     1446    17264    2   IF KL$ACBLK.ACCTS>0
     1447    17265    3   THEN DO;
     1448    17266    3      CALL INSERT(FMT_BUF,FDS.FMT_.BOUND+1,SIZEC(WSN_ACC_FMT),
     1449    17267    3           WSN_ACC_FMT);
     1450    17268    3      FDS.FMT_.BOUND = FDS.FMT_.BOUND + SIZEC(WSN_ACC_FMT);
     1451    17269    3      FMT_VEC(FDS.NVECS#) = VECTOR(KL$ACBLK.LIST(0));
     1452    17270    3      FMT_VEC(FDS.NVECS#+1) = VECTOR(REPEATS);
     1453    17271    3      FDS.NVECS# = FDS.NVECS# + 2;
     1454    17272    3      REPEATS = 0;
     1455    17273    4      DO I=1 TO KL$ACBLK.ACCTS-1;
     1456    17274    4         FMT_VEC(FDS.NVECS#) = VECTOR(KL$ACBLK.LIST(I));
     1457    17275    4         FDS.NVECS# = FDS.NVECS# + 1;
     1458    17276    4         REPEATS = REPEATS + 1;
     1459    17277    4         END;
     1460    17278    3      END;
     1461    17279    2   RETURN;
     1462    17280    2   END ADD_ACCLIST;
     1463    17281    1   ADD_ACCOUNTLIST: PROC;
     1464    17282    2   DCL REPEATS SBIN;
     1465    17283    2   DCL ENUM UBIN BYTE;
     1466    17284    2   DCL I SBIN;
     1467    17285    2   CALL INSERT(FMT_BUF,FDS.FMT_.BOUND+1,SIZEC(ACCOUNT_FMT),
     1468    17286    2        ACCOUNT_FMT);
     1469    17287    2   FDS.FMT_.BOUND = FDS.FMT_.BOUND + SIZEC(ACCOUNT_FMT);
     1470    17288    2   FMT_VEC(FDS.NVECS#) = VECTOR(P$->FS$ACCOUNTS.LIST(0));
     1471    17289    2   FMT_VEC(FDS.NVECS#+1) = VECTOR(REPEATS);
     1472    17290    2   FDS.NVECS# = FDS.NVECS# + 2;
     1473    17291    2   REPEATS = 0;
     1474    17292    2   ENUM = P$->FS$ACCOUNTS.TACCTS;
     1475    17293    3   DO I= 1 TO ENUM-1;
     1476    17294    3      FMT_VEC(FDS.NVECS#) = VECTOR(P$->FS$ACCOUNTS.LIST(I));
     1477    17295    3      FDS.NVECS# = FDS.NVECS# + 1;
     1478    17296    3      REPEATS = REPEATS + 1;
     1479    17297    3      END;
     1480    17298    2   RETURN;
PL6.E3A0      #003=ASL$DISP_ONE_FORM File=ASL$DISPLAY_FORM.:E05TSI               TUE 07/29/97 09:59 Page:93
     1481    17299    2   END ADD_ACCOUNTLIST;
     1482    17300    1   END ASL$DISP_ONE_FORM;

PL6.E3A0      #003=ASL$DISP_ONE_FORM File=ASL$DISPLAY_FORM.:E05TSI               TUE 07/29/97 09:59 Page:94
--  Include file information  --

   AS_SUPER_R.:E05TOU  cannot be made into a system file and is referenced.
   XG_SUBS_C.:E05TOU  is referenced.
   XU_FORMAT_C.:E05TOU  is referenced.
   XU_MACRO_C.:E05TOU  is referenced.
   KL_SUPER_C.:E05TOU  is referenced.
   FS_SUPER_C.:E05TOU  is referenced.
   CP_6_SUBS.:E05TOU  is referenced.
   B_ERRORS_C.:E05TOU  is referenced.
   AS_SSUBS_C.:E05TOU  is referenced.
   AS_ENTRIES_M.:E05TOU  is referenced.
   AS_MAC_C.:E05TOU  cannot be made into a system file and is referenced.
   AS_SUBS_C.:E05TOU  is referenced.
   AS_SUPER_C.:E05TOU  is referenced.
   AS_PERR_C.:E05TOU  is referenced.
      No diagnostics issued in procedure ASL$DISP_ONE_FORM.

   Procedure ASL$DISP_ONE_FORM requires 2953 words for executable code.
   Procedure ASL$DISP_ONE_FORM requires 90 words of local(AUTO) storage.

    No errors detected in file ASL$DISPLAY_FORM.:E05TSI    .

PL6.E3A0      #003=ASL$DISP_ONE_FORM File=ASL$DISPLAY_FORM.:E05TSI               TUE 07/29/97 09:59 Page:95

 Object Unit name= ASL$DISP_ONE_FORM                          File name= ASL$DISPLAY_FORM.:E05TOU
 UTS= JUL 29 '97 09:59:33.48 TUE                              Compiler= PL-6/E31         Sev=      00
 SharedLib= :SHARED_SYSTEM                                    Alt SharedLib=


    ****  Control sections  ****

 Sect   Type Bound  Init  Size OctSiz  Section name(segment info)
    0   DCB   even  none     0      0  M$LO
    1   Data  even  none     3      3  ASL$DISP_ONE_FORM
    2  RoData even  UTS    396    614  ASL$DISP_ONE_FORM
    3   Proc  even  none  2953   5611  ASL$DISP_ONE_FORM
    4  RoData even  none   161    241  ASL$DISP_ONE_FORM

    ****  Entry defs  ****

                              Check   Calling
                             calling  sequence
  Sect OctLoc Primary Altret sequence   type   Parms  Name
     3      0   yes            yes      Std        3  ASL$DISP_ONE_FORM

  ****  Entry refs  ****

         Check        Calling
        calling       sequence
Altret sequence SRef   type   Args  Name
         yes          ~proc      0 XU_OUTPUT_OPTIONS
         yes           Std       2 ASB$WRITE_LO
 yes     yes           Std       1 ASF$PREC_SKIP_FORM
         yes           Std       3 ASF$QUERY_PSEUDO_FORMS
         yes           Std       1 X$FORMAT
 yes     yes           Std       3 ASF$READ_FORM_SEQ
 yes     yes           Std       1 ASF$PREC_FORM
                       nStd      0 X66_AUTO_3
                       Std       0 B_CONSPOOL_D
                       nStd      0 X66_ARET
PL6.E3A0      #003=ASL$DISP_ONE_FORM File=ASL$DISPLAY_FORM.:E05TSI               TUE 07/29/97 09:59 Page:96

  ****  Data refs  ****

  Flags:  r = read only, s = secondary
Flgs Name                             Flgs Name                             Flgs Name
r    AS_BLANK                         r    AS_MODE                          r    AS_FE_MODE
     M$LO                                  USERS_KEY                             LO_WIDTH
     FDS                                   FMT_BUF                               FMT_VEC
     OUT_BUF                               ERR_CODE                              REMEM_VAR
     REM_FCMD                              ASA_BRKS_LOC                          DSEG1$
     DSEG2$                                B_VECTNIL

  ****  Segment refs  ****

  Flags:  r = read only, s = secondary
Flgs Name                             Flgs Name                             Flgs Name
     ISSID
PL6.E3A0      #003=ASL$DISP_ONE_FORM File=ASL$DISPLAY_FORM.:E05TSI               TUE 07/29/97 09:59 Page:97


      236        1        /*T***********************************************************/
      237        2        /*T*                                                         */
      238        3        /*T* Copyright (c) Bull HN Information Systems Inc., 1997    */
      239        4        /*T*                                                         */
      240        5        /*T***********************************************************/
      241        6        %EJECT;
PL6.E3A0      #003=ASL$DISP_ONE_FORM File=ASL$DISPLAY_FORM.:E05TSI               TUE 07/29/97 09:59 Page:98
      242        7        /*M* ASL$DISP_ONE_FORM: Routine to display forms.      */
      243        8        /*X*  DMC,DMR,CCC,PLM=0,IND=3,CTI=5,DCI=6,IAD=0,DTI=0,IDT=0,ENI=3,
      244        9              ECU=3,CSU=3,SDI=3                                           */
      245       10        ASL$DISP_ONE_FORM: PROC  ( OBJECT, FORM_FLAG, JCL) ;

     10  3 000000   000000 700200 xent  ASL$DISP_ON* TSX0  ! X66_AUTO_3
         3 000001   000132 000003                    ZERO    90,3

      246       11        /**********************************************************/
      247       12
      248       13        /*D* NAME:     ASL$DISP_ONE_FORM
      249       14             CALL:     CALL ASL$DISP_ONE_FORM (FORM_FLAG, JCL);
      250       15             INPUT:
      251       16                       FORM_FLAG - bit array - where set option is to be
      252       17                                                displayed.
      253       18                       JCL - flag for method of display.
      254       19             OUTPUT:   Nothing is returned.
      255       20             DESCRIPTION:  ASL$DISP_ONE_FORM is the routine that handles
      256       21                           the display of a single form.
      257       22        */
      258       23        /********************************************************************/
      259       24        /*   Include files   include files   include files   include files  */
      260       25        /********************************************************************/
      261       26        %INCLUDE AS_PERR_C;
      262      628        %INCLUDE AS_SUPER_C;
      263     1063        %INCLUDE AS_SUBS_C;
      264     2477        %INCLUDE AS_MAC_C;
      265     2557        %INCLUDE AS_ENTRIES_M;
      266     3607        %INCLUDE AS_SSUBS_C;
      267     3699        %INCLUDE B_ERRORS_C;
      268     4826        %INCLUDE CP_6_SUBS;
      269     5366        %INCLUDE FS_SUPER_C;
      270     6129        %INCLUDE KL_SUPER_C;
      271     9031        %INCLUDE XU_MACRO_C;
      272    12137        %INCLUDE XU_FORMAT_C;
      273    12299        %INCLUDE XG_SUBS_C;
      274    12793        %INCLUDE AS_SUPER_R;
PL6.E3A0      #003=ASL$DISP_ONE_FORM File=ASL$DISPLAY_FORM.:E05TSI               TUE 07/29/97 09:59 Page:99
      275    15809        /********************************************************************/
      276    15810        /*   Parameters      parameters      parameters      parameters     */
      277    15811        /********************************************************************/
      278    15812    1   DCL FORM_FLAG    (0:8)            BIT (1) UNAL;
      279    15813    1   DCL 1 FORMFLAG REDEF FORM_FLAG,
      280    15814    1          2 HEADER                   BIT (1) UNAL,
      281    15815    1          2 SETUP                    BIT (1) UNAL,
      282    15816    1          2 BANNER                   BIT (1) UNAL,
      283    15817    1          2 ACCESS                   BIT (1) UNAL,
      284    15818    1          2 VFU                      BIT (1) UNAL,
      285    15819    1          2 ALIGN                    BIT (1) UNAL,
      286    15820    1          2 JUSTNAM                  BIT (1) UNAL,
      287    15821    1          2 PSEUDO                   BIT (1) UNAL,
      288    15822    1          2 *                        BIT (1) UNAL;
      289    15823    1   DCL JCL                           BIT(1);
      290    15824    1   DCL OBJECT                        UBIN;
      291    15825        /********************************************************************/
      292    15826        /*   Static data     static data     static data     static data    */
      293    15827        /********************************************************************/
      294    15828    1   DCL P$                            PTR STATIC;
      295    15829        /********************************************************************/
      296    15830        /*   Entry dcls      entry dcls      entry dcls      entry dcls     */
      297    15831        /********************************************************************/
      298    15832        %ASB$WRITE_LO ;
      299    15835        %ASF$PREC_FORM ;
      300    15838        %ASF$PREC_SKIP_FORM ;
      301    15841        %ASF$QUERY_PSEUDO_FORMS ;
      302    15844        %ASF$READ_FORM_SEQ ;
      303    15847    1   DCL X$FORMAT ENTRY(1) ;
      304    15848        /********************************************************************/
      305    15849        /*   Local based     local based     local based     local based    */
      306    15850        /********************************************************************/
      307    15851        %KL_ACBLK ( NAME = KL$ACBLK, STCLASS = "BASED(P$)");
      308    15856        %FS$GFORMREC ( NAME = FS$GFORMREC, STCLASS = "BASED(DSEG1$)");
      309    15915        %FS$FORMREC ( NAME = FS$FORMREC, STCLASS = "BASED(DSEG1$)");
      310    15986        %FS$BAN_INIT ( NAME = FS$BAN, STCLASS = "BASED(P$)");
      311    16043        %FS$GRAPHIC_BANNER ( NAME = FS$GBAN,
PL6.E3A0      #003=ASL$DISP_ONE_FORM File=ASL$DISPLAY_FORM.:E05TSI               TUE 07/29/97 09:59 Page:100
      312    16044                             STCLASS = "BASED(P$)");
      313    16101        %FS$ACCT_INIT ( NAME = FS$ACCOUNTS,
      314    16102                        STCLASS = BASED);
      315    16116        %FS$SET_INIT ( NAME = FS$SETUP,
      316    16117                       STCLASS = BASED);
      317    16135        /********************************************************************/
      318    16136        /*   Auto data       auto data       auto data       auto data      */
      319    16137        /********************************************************************/
      320    16138    1   DCL BIT18                         BIT (18) ALIGNED;
      321    16139    1   DCL UBIN18 REDEF BIT18            UBIN (18) ALIGNED;
      322    16140    1   DCL DEV_LIM  (0:9)                UBIN (18) HALIGNED;
      323    16141    1   DCL ENUM                          UBIN BYTE;
      324    16142
      325    16143    1   DCL 1 FEP ALIGNED,
      326    16144    1          2 *                        BIT (1) UNAL,
      327    16145    1          2 U                        BIT (8) UNAL,
      328    16146    1          2 *                        BIT (1) UNAL,
      329    16147    1          2 L                        BIT (8) UNAL;
      330    16148    1   DCL FEP18 REDEF FEP               UBIN (18) ALIGNED;
      331    16149    1   DCL 1 FORM_KEY,
      332    16150    1          2 CNT                      UBIN BYTE UNAL,
      333    16151    1          2 TXT                      CHAR(6) UNAL;
      334    16152    1   DCL 1 FORM_TYPE,
      335    16153    1          2 COUNT                    UBIN BYTE UNAL,
      336    16154    1          2 TXTC                     CHAR (30) UNAL;
      337    16155    1   DCL GRAPHIC                       BIT(1) ALIGNED;
      338    16156    1   DCL GRAPH_TAB   (0:16)            UBIN;
      339    16157    1   DCL 1 HOST ALIGNED,
      340    16158    1          2 *                        BIT (2) UNAL,
      341    16159    1          2 U                        BIT (8) UNAL,
      342    16160    1          2 L                        BIT (8) UNAL;
      343    16161    1   DCL HOST18 REDEF HOST             UBIN (18) ALIGNED;
      344    16162    1   DCL I                             SBIN;
      345    16163    1   DCL J                             SBIN;
      346    16164    1   DCL NON_GRAPH_TAB   (0:16)        UBIN;
      347    16165    1   DCL NO_TEXT                       BIT(1);
      348    16166    1   DCL 1 PSEUDO_FORM_KEY,
PL6.E3A0      #003=ASL$DISP_ONE_FORM File=ASL$DISPLAY_FORM.:E05TSI               TUE 07/29/97 09:59 Page:101
      349    16167    1          2 CNT                      UBIN BYTE UNAL,
      350    16168    1          2 TXT                      CHAR(12) UNAL;
      351    16169    1   DCL PSEUDO                        BIT(1);
      352    16170    1   DCL PSEUDO_FORMS                  BIT(1);
      353    16171    1   DCL PSEUDO_ST                     UBIN;
      354    16172    1   DCL REPEATS                       SBIN;
      355    16173    1   DCL TABS                          UBIN STATIC INIT( 10 );
      356    16174    1   DCL TAB                            UBIN ;
      357    16175    1   DCL TYPE                          UBIN BYTE;
      358    16176    1   DCL UBIN_ARRAY    (0:5)           UBIN;
      359    16177    1   DCL VEC_NUM                       UBIN;
      360    16178    1   DCL VFU_HDR_OUT                   BIT(1) ALIGNED;
      361    16179    1   DCL WIDTH                         UBIN;
      362    16180        /********************************************************************/
      363    16181        /*   Constant data   constant data   constant data   constant data  */
      364    16182        /********************************************************************/
      365    16183    1   DCL ACCN_INT_STR             CHAR(0) CONSTANT INIT('%ACCN');
      366    16184    1   DCL ACCOUNT_FMT              CHAR(0) CONSTANT INIT('  ACCOUNTS=%>A%N(,%>A%)');
      367    16185    1   DCL ALIGNMENT_STR        CHAR(0) CONSTANT INIT ('   ALIGNMENT');
      368    16186    1   DCL ALIGN_FMT                CHAR(0) CONSTANT INIT('%17-%A%24-%D');
      369    16187    1   DCL ALIGN_HDR                CHAR(0) CONSTANT INIT('   ALIGNMENT   EVERY REPEATS');
      370    16188    1   DCL ALIGN_JCL_FMT      CHAR(0) CONSTANT INIT ('%3-ALIGNEVERY = ');
      371    16189    1   DCL BAN0_INT_STR             CHAR(0) CONSTANT INIT('%BANNERTEXT0');
      372    16190    1   DCL BAN1_INT_STR             CHAR(0) CONSTANT INIT('%BANNERTEXT1');
      373    16191    1   DCL BAN2_INT_STR             CHAR(0) CONSTANT INIT('%BANNERTEXT2');
      374    16192    1   DCL BAN3_INT_STR             CHAR(0) CONSTANT INIT('%BANNERTEXT3');
      375    16193    1   DCL BAN4_INT_STR             CHAR(0) CONSTANT INIT('%BANNERTEXT4');
      376    16194    1   DCL BAN5_INT_STR             CHAR(0) CONSTANT INIT('%BANNERTEXT5');
      377    16195    1   DCL BAN6_INT_STR             CHAR(0) CONSTANT INIT('%BANNERTEXT6');
      378    16196    1   DCL BAN7_INT_STR             CHAR(0) CONSTANT INIT('%BANNERTEXT7');
      379    16197    1   DCL BAN8_INT_STR             CHAR(0) CONSTANT INIT('%BANNERTEXT8');
      380    16198    1   DCL BAN9_INT_STR             CHAR(0) CONSTANT INIT('%BANNERTEXT9');
      381    16199    1   DCL BANNER_ENTRY_FMT         CHAR(0) CONSTANT INIT
      382    16200    1           ('%8-%D%13-%D%18-%D%24-%D%33-%D%39-%D%45-%+D%51-%D%57-%A');
      383    16201    1   DCL BANNER_ENTRY_HDR         CHAR(0) CONSTANT INIT
      384    16202    1           ('      ROW  COL  FONT  STRIKES  ICSH  REPS  RINC  CINC  TEXT');
      385    16203    1   DCL BANNER_FMT               CHAR(0) CONSTANT INIT('%14-%A%22-%D');
PL6.E3A0      #003=ASL$DISP_ONE_FORM File=ASL$DISPLAY_FORM.:E05TSI               TUE 07/29/97 09:59 Page:102
      386    16204    1   DCL BANNER_HDR               CHAR(0) CONSTANT INIT('   BANNER   CHARGE  REPEATS');
      387    16205    1   DCL BANNER_STR           CHAR(0) CONSTANT INIT ('   BANNER');
      388    16206    1   DCL BL_STR                   CHAR(0) CONSTANT INIT(' ');
      389    16207    1   DCL CHARGE_JCL_FMT      CHAR(0) CONSTANT INIT ('%3-CHARGE = ');
      390    16208    1   DCL CHARSET_JCL_FMT      CHAR(0) CONSTANT INIT
      391    16209    1       ('%N-%A%A%>A;');
      392    16210    1   DCL CHARSET_STR          CHAR(0) CONSTANT INIT ('CHARSET');
      393    16211    1   DCL DATE_INT_STR             CHAR(0) CONSTANT INIT('%DATE');
      394    16212    1   DCL DEVICE_LIMIT_JCL_FMT      CHAR(0) CONSTANT INIT
      395    16213    1       ('%N-%A%A%A%D;');
      396    16214    1   DCL DEVICE_LIMIT_STR     CHAR(0) CONSTANT INIT ('DEVICE LIMITS');
      397    16215    1   DCL DEV_LIM_FMT              CHAR(0) CONSTANT INIT ('%3-%D: %6-%D');
      398    16216    1   DCL DEV_LIM_HDR              CHAR(0) CONSTANT INIT (
             16216            '     Set Device Limit Parameters');
      399    16217    1   DCL END_STR            CHAR(0) CONSTANT INIT (' END');
      400    16218    1   DCL ENTRY_GRAPH_JCL_FMT  CHAR(0) CONSTANT INIT
      401    16219    1        ('ENTRY = %D%6(,%D%)');
      402    16220    1   DCL ENTRY_JCL_FMT        CHAR(0) CONSTANT INIT
      403    16221    1        ('ENTRY = %D%7(,%D%)');
      404    16222    1   DCL EQUAL_STR            CHAR(0) CONSTANT INIT (' = ');
      405    16223    1   DCL FORM_HDR                 CHAR(0) CONSTANT INIT
      406    16224    1    ('   WIDTH  LENGTH  LIMBO  FIRST  LPI  LPOK  TSOK  ELSOK  LTYP  CHARSET TRANSLGL')
             16224             ;
      407    16225    1   DCL FORM_HDR_FMT             CHAR(0) CONSTANT INIT
      408    16226    1      ('%5-%D%12-%D%20-%D%27-%D%34-%D%39-%A%45-%A%51-%A%58-%A%64-%A%74-%A');
      409    16227    1   DCL FORM_JCL_FMT         CHAR(0) CONSTANT INIT
      410    16228    1     ('MODIFY FORM %>A');
      411    16229    1   DCL FORM_INT_STR             CHAR(0) CONSTANT INIT('%FORM');
      412    16230    1   DCL GBANNER_ENTRY_FMT        CHAR(0) CONSTANT INIT
      413    16231    1           ('%6-%D%11-%D%16-%D%22-%D%37-%D%44-%D%52-%D%59-%A');
      414    16232    1   DCL GBANNER_ENTRY_HDR        CHAR(0) CONSTANT INIT
      415    16233    1           ('     X    Y    Z    ROTATION  CHAR WIDTH  HEIGHT  SPACE  TEXT');
      416    16234    1   DCL GFORM_HDR                CHAR(0) CONSTANT INIT
      417    16235    1    ('   X SIZE  Y SIZE  Z SIZE  X OFFSET  Y OFFSET  Z OFFEST');
      418    16236    1   DCL GFORM_HDR_FMT            CHAR(0) CONSTANT INIT
      419    16237    1      ('%5-%D%13-%D%21-%D%29-%D%39-%D%49-%D');
      420    16238    1   DCL GFORM_HDR2               CHAR(0) CONSTANT INIT
PL6.E3A0      #003=ASL$DISP_ONE_FORM File=ASL$DISPLAY_FORM.:E05TSI               TUE 07/29/97 09:59 Page:103
      421    16239    1    ('   LPOK  TSOK  ELSOK  LTYP  CHARSET');
      422    16240    1   DCL GFORM_HDR2_FMT           CHAR(0) CONSTANT INIT
      423    16241    1      ('%5-%A%11-%A%17-%A%24-%A%30-%A');
      424    16242    1   DCL GRAPHICS_STR         CHAR(0) CONSTANT INIT (' (GRAPHICS)');
      425    16243    1   DCL GRAPH_HDR_JCL_FMT      CHAR(0) CONSTANT INIT
      426    16244    1       ('%N-%>A%A%D;');
      427    16245    1   DCL GRAPH_HDR_STR     (0:5)  CHAR(0) CONSTANT INIT
      428    16246    1                      ('XSIZE',
      429    16247    1                       'YSIZE',
      430    16248    1                       'ZSIZE',
      431    16249    1                       'XOFFSET',
      432    16250    1                       'YOFFSET',
      433    16251    1                       'ZOFFSET');
      434    16252    1   DCL GRAPH_TAB_DEFAULT        UBIN CONSTANT INIT(25);
      435    16253    1   DCL HDR_JCL_FMT      CHAR(0) CONSTANT INIT
      436    16254    1       ('%N-%>A%A%D;');
      437    16255    1   DCL HDR_JCL_FMT2      CHAR(0) CONSTANT INIT
      438    16256    1       ('%N-%>A%A%A;');
      439    16257    1   DCL HDR_STR     (0:5)  CHAR(0) CONSTANT INIT
      440    16258    1                      ('FIRSTLINE',
      441    16259    1                       'LENGTH',
      442    16260    1                       'LIMBO',
      443    16261    1                       'LPI',
      444    16262    1                       'WIDTH',
      445    16263    1                       'TRANSLGL');
      446    16264    1   DCL JOBNAME_INT_STR          CHAR(0) CONSTANT INIT('%JOBNAME');
      447    16265    1   DCL LOGO_INT_STR             CHAR(0) CONSTANT INIT('%LOGO');
      448    16266    1   DCL MINI_ID_INT_STR          CHAR(0) CONSTANT INIT('%MINI_ID');
      449    16267    1   DCL NO_STR                   CHAR(0) CONSTANT INIT('NO');
      450    16268    1   DCL NUMBER_STR     (0:9)     CHAR(1) CALIGNED CONSTANT INIT
      451    16269    1                 ('0', '1', '2', '3', '4', '5', '6', '7', '8', '9');
      452    16270    1   DCL PSEUDO_JCL_FMT       CHAR(0) CONSTANT INIT
      453    16271    1     ('MODIFY PSEUDO %>A FOR %>A');
      454    16272    1   DCL REGNAM_INT_STR           CHAR(0) CONSTANT INIT('%REGISTEREDNAME');
      455    16273    1   DCL REMOVE_BANNER_STR        CHAR(0) CONSTANT INIT ('REMOVE BANNER');
      456    16274    1   DCL REMOVE_ALIGNMENT_STR        CHAR(0) CONSTANT INIT ('REMOVE ALIGNMENT');
      457    16275    1   DCL REPEATS_JCL_FMT          CHAR(0) CONSTANT INIT ('%25-REPEATS = %D');
PL6.E3A0      #003=ASL$DISP_ONE_FORM File=ASL$DISPLAY_FORM.:E05TSI               TUE 07/29/97 09:59 Page:104
      458    16276    1   DCL SALUTE_INT_STR           CHAR(0) CONSTANT INIT('%SALUTE');
      459    16277    1   DCL SETUP_FMT                CHAR(0) CONSTANT INIT('%>A');
      460    16278    1   DCL SETUP_HDR                CHAR(0) CONSTANT INIT('   SETUP DATA');
      461    16279    1   DCL SETUP_STR                CHAR(0) CONSTANT INIT ('   SETUP');
      462    16280    1   DCL SETUP_TXT_FMT            CHAR(0) CONSTANT INIT ('%A');
      463    16281    1   DCL SITENAME_INT_STR         CHAR(0) CONSTANT INIT('%SITENAME');
      464    16282    1   DCL SUBFILE_INT_STR          CHAR(0) CONSTANT INIT('%SUBFILE');
      465    16283    1   DCL SYSID_INT_STR            CHAR(0) CONSTANT INIT('%SYSID');
      466    16284    1   DCL TAB_DEFAULT              UBIN CONSTANT INIT(20);
      467    16285    1   DCL TIME_INT_STR             CHAR(0) CONSTANT INIT('%TIME');
      468    16286    1   DCL UNAME_INT_STR            CHAR(0) CONSTANT INIT('%UNAME');
      469    16287    1   DCL VERSION_INT_STR          CHAR(0) CONSTANT INIT('%VERSION');
      470    16288    1   DCL VFUIM_STR                CHAR(0) CONSTANT INIT ('   VFUIM');
      471    16289    1   DCL VFU_FMT                  CHAR(0) CONSTANT INIT('%5-CHAN%D = %D%N(,%D%)');
      472    16290    1   DCL VFU_HDR                  CHAR(0) CONSTANT INIT('   VFU IMAGE');
      473    16291    1   DCL WOD_INT_STR              CHAR(0) CONSTANT INIT('%WOD');
      474    16292    1   DCL WOO_INT_STR              CHAR(0) CONSTANT INIT('%WOO');
      475    16293    1   DCL WSN_ACC_FMT              CHAR(0) CONSTANT INIT('  ACCESS=%>A%N(,%>A%)');
      476    16294    1   DCL YES_NO_FMT               CHAR(0) CONSTANT INIT ('%1.N[YES%0?NO%];');
      477    16295    1   DCL YES_STR                  CHAR(0) CONSTANT INIT('YES');
      478    16296        /********************************************************************/
      479    16297        /*   Procedure       procedure       procedure       procedure      */
      480    16298        /********************************************************************/
      481    16299                                                                          /**/
      482    16300                                                                          /**/
      483    16301    2   IF NOT JCL THEN DO;

  16301  3 000002   200005 470500                    LDP0    @JCL,,AUTO
         3 000003   000000 066500                    CMPB    filb='0'B
         3 000004   000000 000001                    BDSC    0,,PR0                   by=0,bit=0,n=1
         3 000005   000002 000022 xsym               BDSC    B_VECTNIL+2              by=0,bit=0,n=18
         3 000006   001443 601000 3                  TNZ     s:16634

      484    16302        /*
      485    16303        ** Put out the name (and type) of the form and any pseudo info needed.
      486    16304        */
      487    16305    2      GRAPHIC = %NO#;
PL6.E3A0      #003=ASL$DISP_ONE_FORM File=ASL$DISPLAY_FORM.:E05TSI               TUE 07/29/97 09:59 Page:105

  16305  3 000007   200030 450100                    STZ     GRAPHIC,,AUTO

      488    16306    2      FORM_TYPE.TXTC = ' ';

  16306  3 000010   040100 100400                    MLR     fill='040'O
         3 000011   000035 000001 xsym               ADSC9   B_VECTNIL+29             cn=0,n=1
         3 000012   200020 200036                    ADSC9   FORM_TYPE,,AUTO          cn=1,n=30

      489    16307    2      FORM_TYPE.COUNT = 0;

  16307  3 000013   000000 236003                    LDQ     0,DU
         3 000014   200020 552140                    STBQ    FORM_TYPE,'40'O,AUTO

      490    16308    2      FMT_BUF = '%>A %A';

  16308  3 000015   040000 100400                    MLR     fill='040'O
         3 000016   000561 000006 2                  ADSC9   YES_STR+1                cn=0,n=6
         3 000017   000000 000377 xsym               ADSC9   FMT_BUF                  cn=0,n=255

      491    16309    2      FDS.FMT_.BOUND = 5;

  16309  3 000020   000000 236000 xsym               LDQ     FDS
         3 000021   177777 376007                    ANQ     65535,DL
         3 000022   000000 276000 4                  ORQ     0
         3 000023   000000 756000 xsym               STQ     FDS

      492    16310    2      IF FS$FORMREC.GRAPHIC

  16310  3 000024   000000 471400 xsym               LDP1    DSEG1$
         3 000025   100004 430100                    FSZN    4,,PR1
         3 000026   000036 605000 3                  TPL     s:16316

      493    16311    3      THEN DO;

      494    16312    3         GRAPHIC = %YES#;

PL6.E3A0      #003=ASL$DISP_ONE_FORM File=ASL$DISPLAY_FORM.:E05TSI               TUE 07/29/97 09:59 Page:106
  16312  3 000027   400000 236003                    LDQ     -131072,DU
         3 000030   200030 756100                    STQ     GRAPHIC,,AUTO

      495    16313    3         FORM_TYPE.TXTC = ' Graphic Form ';

  16313  3 000031   040100 100400                    MLR     fill='040'O
         3 000032   000563 000016 2                  ADSC9   YES_STR+3                cn=0,n=14
         3 000033   200020 200036                    ADSC9   FORM_TYPE,,AUTO          cn=1,n=30

      496    16314    3         FORM_TYPE.COUNT = 14;

  16314  3 000034   016000 236003                    LDQ     7168,DU
         3 000035   200020 552140                    STBQ    FORM_TYPE,'40'O,AUTO

      497    16315    3         END;

      498    16316    2      IF NOT FORMFLAG.JUSTNAM

  16316  3 000036   200004 473500                    LDP3    @FORM_FLAG,,AUTO
         3 000037   000000 066500                    CMPB    filb='0'B
         3 000040   300000 060001                    BDSC    0,,PR3                   by=0,bit=6,n=1
         3 000041   000002 000022 xsym               BDSC    B_VECTNIL+2              by=0,bit=0,n=18
         3 000042   000053 601000 3                  TNZ     s:16321

      499    16317    3      THEN DO;

      500    16318    3         CALL ASB$WRITE_LO(' ',1);

  16318  3 000043   000001 630400 4                  EPPR0   1
         3 000044   000020 631400 xsym               EPPR1   B_VECTNIL+16
         3 000045   000000 701000 xent               TSX1    ASB$WRITE_LO
         3 000046   000000 011000                    NOP     0

      501    16319    3         CALL ASB$WRITE_LO(' ',1);

  16319  3 000047   000001 630400 4                  EPPR0   1
         3 000050   000020 631400 xsym               EPPR1   B_VECTNIL+16
PL6.E3A0      #003=ASL$DISP_ONE_FORM File=ASL$DISPLAY_FORM.:E05TSI               TUE 07/29/97 09:59 Page:107
         3 000051   000000 701000 xent               TSX1    ASB$WRITE_LO
         3 000052   000000 011000                    NOP     0

      502    16320    3         END;

      503    16321    2      IF SUBSTR(USERS_KEY.TXTC,0,USERS_KEY.COUNT) ~= FS$FORMREC.FNAME AND

  16321  3 000053   000000 236000 xsym               LDQ     USERS_KEY
         3 000054   000033 772000                    QRL     27
         3 000055   000000 620006                    EAX0    0,QL
         3 000056   000000 470400 xsym               LDP0    DSEG1$
         3 000057   040100 106440                    CMPC    fill='040'O
         3 000060   000000 200010 xsym               ADSC9   USERS_KEY                cn=1,n=*X0
         3 000061   000000 000006                    ADSC9   0,,PR0                   cn=0,n=6
         3 000062   000076 600000 3                  TZE     s:16326
         3 000063   200003 471500                    LDP1    @OBJECT,,AUTO
         3 000064   100000 235100                    LDA     0,,PR1
         3 000065   000020 115007                    CMPA    16,DL
         3 000066   000076 601000 3                  TNZ     s:16326

      504    16322    3           OBJECT = %FORMSET_OBJ_VAL THEN DO;

      505    16323    3         FMT_BUF = '   %>A %A';

  16323  3 000067   040000 100400                    MLR     fill='040'O
         3 000070   000567 000011 2                  ADSC9   YES_STR+7                cn=0,n=9
         3 000071   000000 000377 xsym               ADSC9   FMT_BUF                  cn=0,n=255

      506    16324    3         FDS.FMT_.BOUND = 8;

  16324  3 000072   000000 236000 xsym               LDQ     FDS
         3 000073   177777 376007                    ANQ     65535,DL
         3 000074   000002 276003                    ORQ     2,DU
         3 000075   000000 756000 xsym               STQ     FDS

      507    16325    3         END;

PL6.E3A0      #003=ASL$DISP_ONE_FORM File=ASL$DISPLAY_FORM.:E05TSI               TUE 07/29/97 09:59 Page:108
      508    16326    2      FDS.NVECS# = 2;

  16326  3 000076   000002 235007                    LDA     2,DL
         3 000077   000011 755000 xsym               STA     FDS+9

      509    16327    2      FMT_VEC (0) = VECTOR ( FORM_TYPE.TXTC );

  16327  3 000100   000003 235000 4                  LDA     3
         3 000101   200126 452500                    STP2    I+1,,AUTO
         3 000102   200126 236100                    LDQ     I+1,,AUTO
         3 000103   000004 036000 4                  ADLQ    4
         3 000104   000000 755000 xsym               STA     FMT_VEC
         3 000105   000001 756000 xsym               STQ     FMT_VEC+1

      510    16328    2      IF SUBSTR(USERS_KEY.TXTC,0,USERS_KEY.COUNT) ~= FS$FORMREC.FNAME

  16328  3 000106   000000 236000 xsym               LDQ     USERS_KEY
         3 000107   000033 772000                    QRL     27
         3 000110   000000 620006                    EAX0    0,QL
         3 000111   040100 106440                    CMPC    fill='040'O
         3 000112   000000 200010 xsym               ADSC9   USERS_KEY                cn=1,n=*X0
         3 000113   000000 000006                    ADSC9   0,,PR0                   cn=0,n=6
         3 000114   000146 600000 3                  TZE     s:16338

      511    16329    3      THEN DO;

      512    16330    3         FMT_VEC (1) = VECTOR ( SUBSTR (USERS_KEY.TXTC,0,USERS_KEY.COUNT) );

  16330  3 000115   000000 236000 xsym               LDQ     USERS_KEY
         3 000116   000033 772000                    QRL     27
         3 000117   000064 737000                    LLS     52
         3 000120   000140 135007                    SBLA    96,DL
         3 000121   000005 236000 4                  LDQ     5
         3 000122   000002 755000 xsym               STA     FMT_VEC+2
         3 000123   000003 756000 xsym               STQ     FMT_VEC+3

      513    16331    3         SUBSTR (FMT_BUF, FDS.FMT_.BOUND+1, 23) = '( Pseudo form for %>A )';
PL6.E3A0      #003=ASL$DISP_ONE_FORM File=ASL$DISPLAY_FORM.:E05TSI               TUE 07/29/97 09:59 Page:109

  16331  3 000124   000000 236000 xsym               LDQ     FDS
         3 000125   000020 772000                    QRL     16
         3 000126   040006 100400                    MLR     fill='040'O
         3 000127   000572 000027 2                  ADSC9   YES_STR+10               cn=0,n=23
         3 000130   000000 200027 xsym               ADSC9   FMT_BUF,Q                cn=1,n=23

      514    16332    3         FDS.FMT_.BOUND = FDS.FMT_.BOUND + 23;

  16332  3 000131   000027 036007                    ADLQ    23,DL
         3 000132   000020 736000                    QLS     16
         3 000133   000000 676000 xsym               ERQ     FDS
         3 000134   000034 376000 xsym               ANQ     B_VECTNIL+28
         3 000135   000000 656000 xsym               ERSQ    FDS

      515    16333    3         FMT_VEC (2) = VECTOR ( FS$FORMREC.FNAME );

  16333  3 000136   000006 235000 4                  LDA     6
         3 000137   000000 236000 xsym               LDQ     DSEG1$
         3 000140   000004 755000 xsym               STA     FMT_VEC+4
         3 000141   000005 756000 xsym               STQ     FMT_VEC+5

      516    16334    3         FDS.NVECS# = 3;

  16334  3 000142   000003 235007                    LDA     3,DL
         3 000143   000011 755000 xsym               STA     FDS+9

      517    16335    3         PSEUDO_FORMS = %NO#;

  16335  3 000144   200104 450100                    STZ     PSEUDO_FORMS,,AUTO

      518    16336    3         END;

  16336  3 000145   000171 710000 3                  TRA     s:16342

      519    16337    3      ELSE DO;

PL6.E3A0      #003=ASL$DISP_ONE_FORM File=ASL$DISPLAY_FORM.:E05TSI               TUE 07/29/97 09:59 Page:110
      520    16338    3         FORM_KEY = USERS_KEY;

  16338  3 000146   000100 100400                    MLR     fill='000'O
         3 000147   000000 000007 xsym               ADSC9   USERS_KEY                cn=0,n=7
         3 000150   200016 000007                    ADSC9   FORM_KEY,,AUTO           cn=0,n=7

      521    16339    3         FMT_VEC (1) = VECTOR ( FORM_KEY.TXT );

  16339  3 000151   000006 235000 4                  LDA     6
         3 000152   200126 452500                    STP2    I+1,,AUTO
         3 000153   200126 236100                    LDQ     I+1,,AUTO
         3 000154   000007 036000 4                  ADLQ    7
         3 000155   000002 755000 xsym               STA     FMT_VEC+2
         3 000156   000003 756000 xsym               STQ     FMT_VEC+3

      522    16340    3         CALL ASF$QUERY_PSEUDO_FORMS( FORM_KEY, PSEUDO_FORM_KEY, PSEUDO_FORMS);

  16340  3 000157   200104 631500                    EPPR1   PSEUDO_FORMS,,AUTO
         3 000160   200130 451500                    STP1    I+3,,AUTO
         3 000161   200077 633500                    EPPR3   PSEUDO_FORM_KEY,,AUTO
         3 000162   200127 453500                    STP3    I+2,,AUTO
         3 000163   200016 634500                    EPPR4   FORM_KEY,,AUTO
         3 000164   200126 454500                    STP4    I+1,,AUTO
         3 000165   200126 630500                    EPPR0   I+1,,AUTO
         3 000166   000021 631400 xsym               EPPR1   B_VECTNIL+17
         3 000167   000000 701000 xent               TSX1    ASF$QUERY_PSEUDO_FORMS
         3 000170   000000 011000                    NOP     0

      523    16341    3         END;

      524    16342    2      CALL X$FORMAT (FDS);

  16342  3 000171   000010 630400 4                  EPPR0   8
         3 000172   000017 631400 xsym               EPPR1   B_VECTNIL+15
         3 000173   000000 701000 xent               TSX1    X$FORMAT
         3 000174   000000 011000                    NOP     0

PL6.E3A0      #003=ASL$DISP_ONE_FORM File=ASL$DISPLAY_FORM.:E05TSI               TUE 07/29/97 09:59 Page:111
      525    16343        /*
      526    16344        ** Do the access list now
      527    16345        */
      528    16346    2      IF FORMFLAG.ACCESS

  16346  3 000175   200004 470500                    LDP0    @FORM_FLAG,,AUTO
         3 000176   000000 066500                    CMPB    filb='0'B
         3 000177   000000 030001                    BDSC    0,,PR0                   by=0,bit=3,n=1
         3 000200   000002 000022 xsym               BDSC    B_VECTNIL+2              by=0,bit=0,n=18
         3 000201   000256 600000 3                  TZE     s:16377

      529    16347    3      THEN DO;

      530    16348    3         FMT_BUF = AS_BLANK;

  16348  3 000202   040000 100400                    MLR     fill='040'O
         3 000203   000000 000001 xsym               ADSC9   AS_BLANK                 cn=0,n=1
         3 000204   000000 000377 xsym               ADSC9   FMT_BUF                  cn=0,n=255

      531    16349    3         FDS.FMT_.BOUND = 0;

  16349  3 000205   177777 236007                    LDQ     65535,DL
         3 000206   000000 356000 xsym               ANSQ    FDS

      532    16350    3         FDS.NVECS# = 0;

  16350  3 000207   000011 450000 xsym               STZ     FDS+9

      533    16351    3         IF FS$FORMREC.ACCSDISP>0

  16351  3 000210   000000 471400 xsym               LDP1    DSEG1$
         3 000211   100002 720100                    LXL0    2,,PR1
         3 000212   000230 600000 3                  TZE     s:16362

      534    16352    4         THEN DO;

      535    16353    4            P$ = PINCRW(DSEG1$,FS$FORMREC.ACCSDISP);
PL6.E3A0      #003=ASL$DISP_ONE_FORM File=ASL$DISPLAY_FORM.:E05TSI               TUE 07/29/97 09:59 Page:112

  16353  3 000213   000000 636010                    EAQ     0,X0
         3 000214   000000 036000 xsym               ADLQ    DSEG1$
         3 000215   000000 756000 1                  STQ     P$

      536    16354    4            CALL ASB$WRITE_LO(' ',1);

  16354  3 000216   000001 630400 4                  EPPR0   1
         3 000217   000020 631400 xsym               EPPR1   B_VECTNIL+16
         3 000220   000000 701000 xent               TSX1    ASB$WRITE_LO
         3 000221   000000 011000                    NOP     0

      537    16355    4            CALL ADD_ACCLIST;

  16355  3 000222   005435 701000 3                  TSX1    ADD_ACCLIST
         3 000223   000000 011000                    NOP     0

      538    16356    4            CALL X$FORMAT( FDS );

  16356  3 000224   000010 630400 4                  EPPR0   8
         3 000225   000017 631400 xsym               EPPR1   B_VECTNIL+15
         3 000226   000000 701000 xent               TSX1    X$FORMAT
         3 000227   000000 011000                    NOP     0

      539    16357    4            END;

      540    16358        /*
      541    16359        ** Do the account list next.
      542    16360            If the access option was specified give both access and account.
      543    16361        */
      544    16362    3         FMT_BUF = AS_BLANK;

  16362  3 000230   040000 100400                    MLR     fill='040'O
         3 000231   000000 000001 xsym               ADSC9   AS_BLANK                 cn=0,n=1
         3 000232   000000 000377 xsym               ADSC9   FMT_BUF                  cn=0,n=255

      545    16363    3         FDS.FMT_.BOUND = 0;
PL6.E3A0      #003=ASL$DISP_ONE_FORM File=ASL$DISPLAY_FORM.:E05TSI               TUE 07/29/97 09:59 Page:113

  16363  3 000233   177777 236007                    LDQ     65535,DL
         3 000234   000000 356000 xsym               ANSQ    FDS

      546    16364    3         FDS.NVECS# = 0;

  16364  3 000235   000011 450000 xsym               STZ     FDS+9

      547    16365    3         IF FS$FORMREC.ACCTDISP>0

  16365  3 000236   000000 470400 xsym               LDP0    DSEG1$
         3 000237   000001 720100                    LXL0    1,,PR0
         3 000240   000256 600000 3                  TZE     s:16377

      548    16366    4         THEN DO;

      549    16367    4            P$ = PINCRW(DSEG1$,FS$FORMREC.ACCTDISP);

  16367  3 000241   000000 636010                    EAQ     0,X0
         3 000242   000000 036000 xsym               ADLQ    DSEG1$
         3 000243   000000 756000 1                  STQ     P$

      550    16368    4            CALL ASB$WRITE_LO(' ',1);

  16368  3 000244   000001 630400 4                  EPPR0   1
         3 000245   000020 631400 xsym               EPPR1   B_VECTNIL+16
         3 000246   000000 701000 xent               TSX1    ASB$WRITE_LO
         3 000247   000000 011000                    NOP     0

      551    16369    4            CALL ADD_ACCOUNTLIST;

  16369  3 000250   005523 701000 3                  TSX1    ADD_ACCOUNTLIST
         3 000251   000000 011000                    NOP     0

      552    16370    4            CALL X$FORMAT( FDS );

  16370  3 000252   000010 630400 4                  EPPR0   8
PL6.E3A0      #003=ASL$DISP_ONE_FORM File=ASL$DISPLAY_FORM.:E05TSI               TUE 07/29/97 09:59 Page:114
         3 000253   000017 631400 xsym               EPPR1   B_VECTNIL+15
         3 000254   000000 701000 xent               TSX1    X$FORMAT
         3 000255   000000 011000                    NOP     0

      553    16371    4            END;

      554    16372    3         END; /* If FORMFLAG.ACCESS */

      555    16373
      556    16374        /*
      557    16375        ** Do the header information now...
      558    16376        */
      559    16377    2      IF FORMFLAG.HEADER

  16377  3 000256   200004 470500                    LDP0    @FORM_FLAG,,AUTO
         3 000257   000000 066500                    CMPB    filb='0'B
         3 000260   000000 000001                    BDSC    0,,PR0                   by=0,bit=0,n=1
         3 000261   000002 000022 xsym               BDSC    B_VECTNIL+2              by=0,bit=0,n=18
         3 000262   000720 600000 3                  TZE     s:16502

      560    16378    3      THEN DO;

      561    16379    3         CALL ASB$WRITE_LO(' ',1);

  16379  3 000263   000001 630400 4                  EPPR0   1
         3 000264   000020 631400 xsym               EPPR1   B_VECTNIL+16
         3 000265   000000 701000 xent               TSX1    ASB$WRITE_LO
         3 000266   000000 011000                    NOP     0

      562    16380    3         IF GRAPHIC

  16380  3 000267   200030 234100                    SZN     GRAPHIC,,AUTO
         3 000270   000452 605000 3                  TPL     s:16430

      563    16381    4         THEN DO;

      564    16382    4            CALL ASB$WRITE_LO (GFORM_HDR, SIZEC(GFORM_HDR));
PL6.E3A0      #003=ASL$DISP_ONE_FORM File=ASL$DISPLAY_FORM.:E05TSI               TUE 07/29/97 09:59 Page:115

  16382  3 000271   000012 630400 4                  EPPR0   10
         3 000272   000020 631400 xsym               EPPR1   B_VECTNIL+16
         3 000273   000000 701000 xent               TSX1    ASB$WRITE_LO
         3 000274   000000 011000                    NOP     0

      565    16383    4            FMT_BUF = GFORM_HDR_FMT;

  16383  3 000275   040000 100400                    MLR     fill='040'O
         3 000276   000340 000043 2                  ADSC9   GFORM_HDR_FMT            cn=0,n=35
         3 000277   000000 000377 xsym               ADSC9   FMT_BUF                  cn=0,n=255

      566    16384    4            FDS.FMT_.BOUND = SIZEC (GFORM_HDR_FMT)-1;

  16384  3 000300   000000 236000 xsym               LDQ     FDS
         3 000301   177777 376007                    ANQ     65535,DL
         3 000302   000014 276000 4                  ORQ     12
         3 000303   000000 756000 xsym               STQ     FDS

      567    16385    4            FDS.NVECS# = 6;

  16385  3 000304   000006 235007                    LDA     6,DL
         3 000305   000011 755000 xsym               STA     FDS+9

      568    16386    4            FMT_VEC(0) = VECTOR (FS$GFORMREC.X_SIZE);

  16386  3 000306   377640 235007                    LDA     130976,DL
         3 000307   000000 236000 xsym               LDQ     DSEG1$
         3 000310   000015 036000 4                  ADLQ    13
         3 000311   000000 755000 xsym               STA     FMT_VEC
         3 000312   000001 756000 xsym               STQ     FMT_VEC+1

      569    16387    4            FMT_VEC(1) = VECTOR (FS$GFORMREC.Y_SIZE);

  16387  3 000313   377640 235007                    LDA     130976,DL
         3 000314   000000 236000 xsym               LDQ     DSEG1$
         3 000315   000010 036003                    ADLQ    8,DU
PL6.E3A0      #003=ASL$DISP_ONE_FORM File=ASL$DISPLAY_FORM.:E05TSI               TUE 07/29/97 09:59 Page:116
         3 000316   000002 755000 xsym               STA     FMT_VEC+2
         3 000317   000003 756000 xsym               STQ     FMT_VEC+3

      570    16388    4            FMT_VEC(2) = VECTOR (FS$GFORMREC.Z_SIZE);

  16388  3 000320   377640 235007                    LDA     130976,DL
         3 000321   000000 236000 xsym               LDQ     DSEG1$
         3 000322   000014 036000 4                  ADLQ    12
         3 000323   000004 755000 xsym               STA     FMT_VEC+4
         3 000324   000005 756000 xsym               STQ     FMT_VEC+5

      571    16389    4            FMT_VEC(3) = VECTOR (FS$GFORMREC.X_OFFSET);

  16389  3 000325   377640 235007                    LDA     130976,DL
         3 000326   000000 236000 xsym               LDQ     DSEG1$
         3 000327   000011 036003                    ADLQ    9,DU
         3 000330   000006 755000 xsym               STA     FMT_VEC+6
         3 000331   000007 756000 xsym               STQ     FMT_VEC+7

      572    16390    4            FMT_VEC(4) = VECTOR (FS$GFORMREC.Y_OFFSET);

  16390  3 000332   377640 235007                    LDA     130976,DL
         3 000333   000000 236000 xsym               LDQ     DSEG1$
         3 000334   000016 036000 4                  ADLQ    14
         3 000335   000010 755000 xsym               STA     FMT_VEC+8
         3 000336   000011 756000 xsym               STQ     FMT_VEC+9

      573    16391    4            FMT_VEC(5) = VECTOR (FS$GFORMREC.Z_OFFSET);

  16391  3 000337   377640 235007                    LDA     130976,DL
         3 000340   000000 236000 xsym               LDQ     DSEG1$
         3 000341   000012 036003                    ADLQ    10,DU
         3 000342   000012 755000 xsym               STA     FMT_VEC+10
         3 000343   000013 756000 xsym               STQ     FMT_VEC+11

      574    16392    4            CALL X$FORMAT (FDS);

PL6.E3A0      #003=ASL$DISP_ONE_FORM File=ASL$DISPLAY_FORM.:E05TSI               TUE 07/29/97 09:59 Page:117
  16392  3 000344   000010 630400 4                  EPPR0   8
         3 000345   000017 631400 xsym               EPPR1   B_VECTNIL+15
         3 000346   000000 701000 xent               TSX1    X$FORMAT
         3 000347   000000 011000                    NOP     0

      575    16393    4            CALL ASB$WRITE_LO (' ',1);

  16393  3 000350   000001 630400 4                  EPPR0   1
         3 000351   000020 631400 xsym               EPPR1   B_VECTNIL+16
         3 000352   000000 701000 xent               TSX1    ASB$WRITE_LO
         3 000353   000000 011000                    NOP     0

      576    16394    4            CALL ASB$WRITE_LO (GFORM_HDR2, SIZEC(GFORM_HDR2));

  16394  3 000354   000020 630400 4                  EPPR0   16
         3 000355   000020 631400 xsym               EPPR1   B_VECTNIL+16
         3 000356   000000 701000 xent               TSX1    ASB$WRITE_LO
         3 000357   000000 011000                    NOP     0

      577    16395    4            FMT_BUF = GFORM_HDR2_FMT;

  16395  3 000360   040000 100400                    MLR     fill='040'O
         3 000361   000362 000035 2                  ADSC9   GFORM_HDR2_FMT           cn=0,n=29
         3 000362   000000 000377 xsym               ADSC9   FMT_BUF                  cn=0,n=255

      578    16396    4            FDS.FMT_.BOUND = SIZEC (GFORM_HDR2_FMT) -1;

  16396  3 000363   000000 236000 xsym               LDQ     FDS
         3 000364   177777 376007                    ANQ     65535,DL
         3 000365   000007 276003                    ORQ     7,DU
         3 000366   000000 756000 xsym               STQ     FDS

      579    16397    4            FDS.NVECS# = 5;

  16397  3 000367   000005 235007                    LDA     5,DL
         3 000370   000011 755000 xsym               STA     FDS+9

PL6.E3A0      #003=ASL$DISP_ONE_FORM File=ASL$DISPLAY_FORM.:E05TSI               TUE 07/29/97 09:59 Page:118
      580    16398    4            IF FS$GFORMREC.LGLTYPS.LPOK

  16398  3 000371   000000 470400 xsym               LDP0    DSEG1$
         3 000372   000004 236100                    LDQ     4,,PR0
         3 000373   000400 316003                    CANQ    256,DU
         3 000374   000401 600000 3                  TZE     s:16403

      581    16399    5            THEN DO;

      582    16400    5               FMT_VEC(0) = VECTOR (YES_STR);

  16400  3 000375   000022 237000 4                  LDAQ    18
         3 000376   000000 755000 xsym               STA     FMT_VEC
         3 000377   000001 756000 xsym               STQ     FMT_VEC+1

      583    16401    5               END;

  16401  3 000400   000404 710000 3                  TRA     s:16405

      584    16402    5            ELSE DO;

      585    16403    5               FMT_VEC(0) = VECTOR (NO_STR);

  16403  3 000401   000024 237000 4                  LDAQ    20
         3 000402   000000 755000 xsym               STA     FMT_VEC
         3 000403   000001 756000 xsym               STQ     FMT_VEC+1

      586    16404    5               END;

      587    16405    4            IF FS$GFORMREC.LGLTYPS.TSOK

  16405  3 000404   000004 236100                    LDQ     4,,PR0
         3 000405   000200 316003                    CANQ    128,DU
         3 000406   000413 600000 3                  TZE     s:16410

      588    16406    5            THEN DO;

PL6.E3A0      #003=ASL$DISP_ONE_FORM File=ASL$DISPLAY_FORM.:E05TSI               TUE 07/29/97 09:59 Page:119
      589    16407    5               FMT_VEC(1) = VECTOR (YES_STR);

  16407  3 000407   000022 237000 4                  LDAQ    18
         3 000410   000002 755000 xsym               STA     FMT_VEC+2
         3 000411   000003 756000 xsym               STQ     FMT_VEC+3

      590    16408    5               END;

  16408  3 000412   000416 710000 3                  TRA     s:16412

      591    16409    5            ELSE DO;

      592    16410    5               FMT_VEC(1) = VECTOR (NO_STR);

  16410  3 000413   000024 237000 4                  LDAQ    20
         3 000414   000002 755000 xsym               STA     FMT_VEC+2
         3 000415   000003 756000 xsym               STQ     FMT_VEC+3

      593    16411    5               END;

      594    16412    4            IF FS$GFORMREC.LGLTYPS.ELSOK

  16412  3 000416   000004 236100                    LDQ     4,,PR0
         3 000417   000100 316003                    CANQ    64,DU
         3 000420   000425 600000 3                  TZE     s:16417

      595    16413    5            THEN DO;

      596    16414    5               FMT_VEC(2) = VECTOR (YES_STR);

  16414  3 000421   000022 237000 4                  LDAQ    18
         3 000422   000004 755000 xsym               STA     FMT_VEC+4
         3 000423   000005 756000 xsym               STQ     FMT_VEC+5

      597    16415    5               END;

  16415  3 000424   000430 710000 3                  TRA     s:16419
PL6.E3A0      #003=ASL$DISP_ONE_FORM File=ASL$DISPLAY_FORM.:E05TSI               TUE 07/29/97 09:59 Page:120

      598    16416    5            ELSE DO;

      599    16417    5               FMT_VEC(2) = VECTOR (NO_STR);

  16417  3 000425   000024 237000 4                  LDAQ    20
         3 000426   000004 755000 xsym               STA     FMT_VEC+4
         3 000427   000005 756000 xsym               STQ     FMT_VEC+5

      600    16418    5               END;

      601    16419    4            IF FS$GFORMREC.LGLTYPS.ONEOK

  16419  3 000430   000004 236100                    LDQ     4,,PR0
         3 000431   000040 316003                    CANQ    32,DU
         3 000432   000441 600000 3                  TZE     s:16424

      602    16420    5            THEN DO;

      603    16421    5               FMT_VEC(3) = VECTOR (FS$GFORMREC.LGLTYPS.LTYP);

  16421  3 000433   377640 235007                    LDA     130976,DL
         3 000434   000000 236000 xsym               LDQ     DSEG1$
         3 000435   000026 036000 4                  ADLQ    22
         3 000436   000006 755000 xsym               STA     FMT_VEC+6
         3 000437   000007 756000 xsym               STQ     FMT_VEC+7

      604    16422    5               END;

  16422  3 000440   000444 710000 3                  TRA     s:16427

      605    16423    5            ELSE DO;

      606    16424    5               FMT_VEC(3) = VECTOR (BL_STR);

  16424  3 000441   000030 237000 4                  LDAQ    24
         3 000442   000006 755000 xsym               STA     FMT_VEC+6
PL6.E3A0      #003=ASL$DISP_ONE_FORM File=ASL$DISPLAY_FORM.:E05TSI               TUE 07/29/97 09:59 Page:121
         3 000443   000007 756000 xsym               STQ     FMT_VEC+7

      607    16425    5               END;

      608    16426
      609    16427    4            FMT_VEC(4) = VECTOR (FS$GFORMREC.CHAIN_NAME);

  16427  3 000444   000027 235000 4                  LDA     23
         3 000445   000000 236000 xsym               LDQ     DSEG1$
         3 000446   000032 036000 4                  ADLQ    26
         3 000447   000010 755000 xsym               STA     FMT_VEC+8
         3 000450   000011 756000 xsym               STQ     FMT_VEC+9

      610    16428    4            END;

  16428  3 000451   000623 710000 3                  TRA     s:16477

      611    16429    4         ELSE DO;          /* Std form not graphic */

      612    16430    4            CALL ASB$WRITE_LO(FORM_HDR,SIZEC(FORM_HDR));

  16430  3 000452   000034 630400 4                  EPPR0   28
         3 000453   000020 631400 xsym               EPPR1   B_VECTNIL+16
         3 000454   000000 701000 xent               TSX1    ASB$WRITE_LO
         3 000455   000000 011000                    NOP     0

      613    16431    4            FMT_BUF = FORM_HDR_FMT;

  16431  3 000456   040000 100400                    MLR     fill='040'O
         3 000457   000237 000101 2                  ADSC9   FORM_HDR_FMT             cn=0,n=65
         3 000460   000000 000377 xsym               ADSC9   FMT_BUF                  cn=0,n=255

      614    16432    4            FDS.FMT_.BOUND = SIZEC(FORM_HDR_FMT)-1;

  16432  3 000461   000000 236000 xsym               LDQ     FDS
         3 000462   177777 376007                    ANQ     65535,DL
         3 000463   000020 276003                    ORQ     16,DU
PL6.E3A0      #003=ASL$DISP_ONE_FORM File=ASL$DISPLAY_FORM.:E05TSI               TUE 07/29/97 09:59 Page:122
         3 000464   000000 756000 xsym               STQ     FDS

      615    16433    4            FDS.NVECS# = 11;

  16433  3 000465   000013 235007                    LDA     11,DL
         3 000466   000011 755000 xsym               STA     FDS+9

      616    16434    4            FMT_VEC(0) = VECTOR(WIDTH);

  16434  3 000467   777640 235007                    LDA     -96,DL
         3 000470   200126 452500                    STP2    I+1,,AUTO
         3 000471   200126 236100                    LDQ     I+1,,AUTO
         3 000472   000121 036003                    ADLQ    81,DU
         3 000473   000000 755000 xsym               STA     FMT_VEC
         3 000474   000001 756000 xsym               STQ     FMT_VEC+1

      617    16435    4            WIDTH=FS$FORMREC.SOFTFORM.VLPPLATEN.WIDTH;

  16435  3 000475   000000 470400 xsym               LDP0    DSEG1$
         3 000476   000006 236100                    LDQ     6,,PR0
         3 000477   000033 772000                    QRL     27
         3 000500   200121 756100                    STQ     WIDTH,,AUTO

      618    16436    4            IF FS$FORMREC.SOFTFORM.VLPPLATEN.EXTWID THEN WIDTH=WIDTH+254;

  16436  3 000501   000007 430100                    FSZN    7,,PR0
         3 000502   000505 605000 3                  TPL     s:16437

  16436  3 000503   000376 036007                    ADLQ    254,DL
         3 000504   200121 756100                    STQ     WIDTH,,AUTO

      619    16437    4            FMT_VEC(1) = VECTOR(FS$FORMREC.SOFTFORM.VLPPLATEN.LENGTH);

  16437  3 000505   177640 235007                    LDA     65440,DL
         3 000506   000000 236000 xsym               LDQ     DSEG1$
         3 000507   000036 036000 4                  ADLQ    30
         3 000510   000002 755000 xsym               STA     FMT_VEC+2
PL6.E3A0      #003=ASL$DISP_ONE_FORM File=ASL$DISPLAY_FORM.:E05TSI               TUE 07/29/97 09:59 Page:123
         3 000511   000003 756000 xsym               STQ     FMT_VEC+3

      620    16438    4            FMT_VEC(2) = VECTOR(FS$FORMREC.SOFTFORM.VLPPLATEN.LIMBO);

  16438  3 000512   177640 235007                    LDA     65440,DL
         3 000513   000000 236000 xsym               LDQ     DSEG1$
         3 000514   000037 036000 4                  ADLQ    31
         3 000515   000004 755000 xsym               STA     FMT_VEC+4
         3 000516   000005 756000 xsym               STQ     FMT_VEC+5

      621    16439    4            FMT_VEC(3) = VECTOR(FS$FORMREC.SOFTFORM.VLPPLATEN.FIRSTLINE);

  16439  3 000517   177640 235007                    LDA     65440,DL
         3 000520   000000 236000 xsym               LDQ     DSEG1$
         3 000521   000040 036000 4                  ADLQ    32
         3 000522   000006 755000 xsym               STA     FMT_VEC+6
         3 000523   000007 756000 xsym               STQ     FMT_VEC+7

      622    16440    4            FMT_VEC(4) = VECTOR(FS$FORMREC.SOFTFORM.VLPPLATEN.LPI);

  16440  3 000524   177640 235007                    LDA     65440,DL
         3 000525   000000 236000 xsym               LDQ     DSEG1$
         3 000526   000041 036000 4                  ADLQ    33
         3 000527   000010 755000 xsym               STA     FMT_VEC+8
         3 000530   000011 756000 xsym               STQ     FMT_VEC+9

      623    16441    4            IF FS$FORMREC.LGLTYPS.LPOK

  16441  3 000531   000004 236100                    LDQ     4,,PR0
         3 000532   000400 316003                    CANQ    256,DU
         3 000533   000540 600000 3                  TZE     s:16446

      624    16442    5            THEN DO;

      625    16443    5               FMT_VEC(5) = VECTOR(YES_STR);

  16443  3 000534   000022 237000 4                  LDAQ    18
PL6.E3A0      #003=ASL$DISP_ONE_FORM File=ASL$DISPLAY_FORM.:E05TSI               TUE 07/29/97 09:59 Page:124
         3 000535   000012 755000 xsym               STA     FMT_VEC+10
         3 000536   000013 756000 xsym               STQ     FMT_VEC+11

      626    16444    5               END;

  16444  3 000537   000543 710000 3                  TRA     s:16448

      627    16445    5            ELSE DO;

      628    16446    5               FMT_VEC(5) = VECTOR(NO_STR);

  16446  3 000540   000024 237000 4                  LDAQ    20
         3 000541   000012 755000 xsym               STA     FMT_VEC+10
         3 000542   000013 756000 xsym               STQ     FMT_VEC+11

      629    16447    5               END;

      630    16448    4            IF FS$FORMREC.LGLTYPS.TSOK

  16448  3 000543   000004 236100                    LDQ     4,,PR0
         3 000544   000200 316003                    CANQ    128,DU
         3 000545   000552 600000 3                  TZE     s:16453

      631    16449    5            THEN DO;

      632    16450    5               FMT_VEC(6) = VECTOR(YES_STR);

  16450  3 000546   000022 237000 4                  LDAQ    18
         3 000547   000014 755000 xsym               STA     FMT_VEC+12
         3 000550   000015 756000 xsym               STQ     FMT_VEC+13

      633    16451    5               END;

  16451  3 000551   000555 710000 3                  TRA     s:16455

      634    16452    5            ELSE DO;

PL6.E3A0      #003=ASL$DISP_ONE_FORM File=ASL$DISPLAY_FORM.:E05TSI               TUE 07/29/97 09:59 Page:125
      635    16453    5               FMT_VEC(6) = VECTOR(NO_STR);

  16453  3 000552   000024 237000 4                  LDAQ    20
         3 000553   000014 755000 xsym               STA     FMT_VEC+12
         3 000554   000015 756000 xsym               STQ     FMT_VEC+13

      636    16454    5               END;

      637    16455    4            IF FS$FORMREC.LGLTYPS.ELSOK

  16455  3 000555   000004 236100                    LDQ     4,,PR0
         3 000556   000100 316003                    CANQ    64,DU
         3 000557   000564 600000 3                  TZE     s:16460

      638    16456    5            THEN DO;

      639    16457    5               FMT_VEC(7) = VECTOR(YES_STR);

  16457  3 000560   000022 237000 4                  LDAQ    18
         3 000561   000016 755000 xsym               STA     FMT_VEC+14
         3 000562   000017 756000 xsym               STQ     FMT_VEC+15

      640    16458    5               END;

  16458  3 000563   000567 710000 3                  TRA     s:16462

      641    16459    5            ELSE DO;

      642    16460    5               FMT_VEC(7) = VECTOR(NO_STR);

  16460  3 000564   000024 237000 4                  LDAQ    20
         3 000565   000016 755000 xsym               STA     FMT_VEC+14
         3 000566   000017 756000 xsym               STQ     FMT_VEC+15

      643    16461    5               END;

      644    16462    4            IF FS$FORMREC.LGLTYPS.ONEOK
PL6.E3A0      #003=ASL$DISP_ONE_FORM File=ASL$DISPLAY_FORM.:E05TSI               TUE 07/29/97 09:59 Page:126

  16462  3 000567   000004 236100                    LDQ     4,,PR0
         3 000570   000040 316003                    CANQ    32,DU
         3 000571   000600 600000 3                  TZE     s:16467

      645    16463    5            THEN DO;

      646    16464    5               FMT_VEC(8) = VECTOR(FS$FORMREC.LGLTYPS.LTYP);

  16464  3 000572   377640 235007                    LDA     130976,DL
         3 000573   000000 236000 xsym               LDQ     DSEG1$
         3 000574   000026 036000 4                  ADLQ    22
         3 000575   000020 755000 xsym               STA     FMT_VEC+16
         3 000576   000021 756000 xsym               STQ     FMT_VEC+17

      647    16465    5               END;

  16465  3 000577   000603 710000 3                  TRA     s:16470

      648    16466    5            ELSE DO;

      649    16467    5               FMT_VEC(8) = VECTOR(BL_STR);

  16467  3 000600   000030 237000 4                  LDAQ    24
         3 000601   000020 755000 xsym               STA     FMT_VEC+16
         3 000602   000021 756000 xsym               STQ     FMT_VEC+17

      650    16468    5               END;

      651    16469
      652    16470    4            FMT_VEC(9) = VECTOR (FS$FORMREC.CHAIN_NAME);

  16470  3 000603   000027 235000 4                  LDA     23
         3 000604   000000 236000 xsym               LDQ     DSEG1$
         3 000605   000042 036000 4                  ADLQ    34
         3 000606   000022 755000 xsym               STA     FMT_VEC+18
         3 000607   000023 756000 xsym               STQ     FMT_VEC+19
PL6.E3A0      #003=ASL$DISP_ONE_FORM File=ASL$DISPLAY_FORM.:E05TSI               TUE 07/29/97 09:59 Page:127

      653    16471    4            IF ((FS$FORMREC.ATTR & %ATTR_TRANSLGL#) = %ATTR_TRANSLGL#) THEN

  16471  3 000610   000005 220100                    LDX0    5,,PR0
         3 000611   000200 360003                    ANX0    128,DU
         3 000612   000200 100003                    CMPX0   128,DU
         3 000613   000620 601000 3                  TNZ     s:16474

      654    16472    4               FMT_VEC(10) = VECTOR (YES_STR);

  16472  3 000614   000022 237000 4                  LDAQ    18
         3 000615   000024 755000 xsym               STA     FMT_VEC+20
         3 000616   000025 756000 xsym               STQ     FMT_VEC+21
         3 000617   000623 710000 3                  TRA     s:16477

      655    16473    4            ELSE
      656    16474    4               FMT_VEC(10) = VECTOR (NO_STR);

  16474  3 000620   000024 237000 4                  LDAQ    20
         3 000621   000024 755000 xsym               STA     FMT_VEC+20
         3 000622   000025 756000 xsym               STQ     FMT_VEC+21

      657    16475    4            END;

      658    16476
      659    16477    3         CALL X$FORMAT(FDS);

  16477  3 000623   000010 630400 4                  EPPR0   8
         3 000624   000017 631400 xsym               EPPR1   B_VECTNIL+15
         3 000625   000000 701000 xent               TSX1    X$FORMAT
         3 000626   000000 011000                    NOP     0

      660    16478        /**
      661    16479         ** Set device limit information
      662    16480         **/
      663    16481    3         IF GRAPHIC

PL6.E3A0      #003=ASL$DISP_ONE_FORM File=ASL$DISPLAY_FORM.:E05TSI               TUE 07/29/97 09:59 Page:128
  16481  3 000627   200030 234100                    SZN     GRAPHIC,,AUTO
         3 000630   000720 605000 3                  TPL     s:16502

      664    16482    4         THEN DO;

      665    16483    4            CALL ASB$WRITE_LO(' ',1);

  16483  3 000631   000001 630400 4                  EPPR0   1
         3 000632   000020 631400 xsym               EPPR1   B_VECTNIL+16
         3 000633   000000 701000 xent               TSX1    ASB$WRITE_LO
         3 000634   000000 011000                    NOP     0

      666    16484    4            CALL ASB$WRITE_LO (DEV_LIM_HDR, SIZEC (DEV_LIM_HDR));

  16484  3 000635   000044 630400 4                  EPPR0   36
         3 000636   000020 631400 xsym               EPPR1   B_VECTNIL+16
         3 000637   000000 701000 xent               TSX1    ASB$WRITE_LO
         3 000640   000000 011000                    NOP     0

      667    16485    4            FMT_BUF = DEV_LIM_FMT;

  16485  3 000641   040000 100400                    MLR     fill='040'O
         3 000642   000164 000014 2                  ADSC9   DEV_LIM_FMT              cn=0,n=12
         3 000643   000000 000377 xsym               ADSC9   FMT_BUF                  cn=0,n=255

      668    16486    4            FDS.FMT_.BOUND = SIZEC (DEV_LIM_FMT) - 1;

  16486  3 000644   000000 236000 xsym               LDQ     FDS
         3 000645   177777 376007                    ANQ     65535,DL
         3 000646   000046 276000 4                  ORQ     38
         3 000647   000000 756000 xsym               STQ     FDS

      669    16487    4            FDS.NVECS# = 2;

  16487  3 000650   000002 235007                    LDA     2,DL
         3 000651   000011 755000 xsym               STA     FDS+9

PL6.E3A0      #003=ASL$DISP_ONE_FORM File=ASL$DISPLAY_FORM.:E05TSI               TUE 07/29/97 09:59 Page:129
      670    16488    5            DO I= 0 TO 9;

  16488  3 000652   200053 450100                    STZ     I,,AUTO

      671    16489    5               FMT_VEC(0) = VECTOR (I);

  16489  3 000653   777640 235007                    LDA     -96,DL
         3 000654   200126 452500                    STP2    I+1,,AUTO
         3 000655   200126 236100                    LDQ     I+1,,AUTO
         3 000656   000053 036003                    ADLQ    43,DU
         3 000657   000000 755000 xsym               STA     FMT_VEC
         3 000660   000001 756000 xsym               STQ     FMT_VEC+1

      672    16490    5               BIT18 = FS$GFORMREC.SET_DEV_LIM.UPARAM (I);

  16490  3 000661   200053 235100                    LDA     I,,AUTO
         3 000662   000001 735000                    ALS     1
         3 000663   000000 470400 xsym               LDP0    DSEG1$
         3 000664   000100 100505                    MLR     fill='000'O
         3 000665   000020 000002                    ADSC9   16,A,PR0                 cn=0,n=2
         3 000666   200006 000002                    ADSC9   BIT18,,AUTO              cn=0,n=2

      673    16491    5               CALL SPLIT9X92_18 (UBIN18);

  16491  3 000667   200006 631500                    EPPR1   BIT18,,AUTO
         3 000670   200123 451500                    STP1    WIDTH+2,,AUTO
         3 000671   005415 701000 3                  TSX1    SPLIT9X92_18
         3 000672   000000 011000                    NOP     0

      674    16492    5               DEV_LIM(I) = HOST18;

  16492  3 000673   200053 235100                    LDA     I,,AUTO
         3 000674   000001 735000                    ALS     1
         3 000675   000105 100500                    MLR     fill='000'O
         3 000676   200052 000002                    ADSC9   HOST,,AUTO               cn=0,n=2
         3 000677   200007 000002                    ADSC9   DEV_LIM,A,AUTO           cn=0,n=2

PL6.E3A0      #003=ASL$DISP_ONE_FORM File=ASL$DISPLAY_FORM.:E05TSI               TUE 07/29/97 09:59 Page:130
      675    16493    5               FMT_VEC (1) = VECTOR (DEV_LIM(I));

  16493  3 000700   377640 235007                    LDA     130976,DL
         3 000701   200126 452500                    STP2    I+1,,AUTO
         3 000702   200053 236100                    LDQ     I,,AUTO
         3 000703   000021 736000                    QLS     17
         3 000704   000007 036003                    ADLQ    7,DU
         3 000705   200126 036100                    ADLQ    I+1,,AUTO
         3 000706   000002 755000 xsym               STA     FMT_VEC+2
         3 000707   000003 756000 xsym               STQ     FMT_VEC+3

      676    16494    5               CALL X$FORMAT(FDS);

  16494  3 000710   000010 630400 4                  EPPR0   8
         3 000711   000017 631400 xsym               EPPR1   B_VECTNIL+15
         3 000712   000000 701000 xent               TSX1    X$FORMAT
         3 000713   000000 011000                    NOP     0

      677    16495    5               END;

  16495  3 000714   200053 054100                    AOS     I,,AUTO
         3 000715   200053 235100                    LDA     I,,AUTO
         3 000716   000011 115007                    CMPA    9,DL
         3 000717   000653 604400 3                  TMOZ    s:16489

      678    16496    4            END;

      679    16497    3         END; /* If FORMFLAG.HEADER */

      680    16498
      681    16499        /**
      682    16500         ** Put out vfu images
      683    16501         **/
      684    16502    2      IF FORMFLAG.VFU

  16502  3 000720   200004 470500                    LDP0    @FORM_FLAG,,AUTO
         3 000721   000000 066500                    CMPB    filb='0'B
PL6.E3A0      #003=ASL$DISP_ONE_FORM File=ASL$DISPLAY_FORM.:E05TSI               TUE 07/29/97 09:59 Page:131
         3 000722   000000 040001                    BDSC    0,,PR0                   by=0,bit=4,n=1
         3 000723   000002 000022 xsym               BDSC    B_VECTNIL+2              by=0,bit=0,n=18
         3 000724   001066 600000 3                  TZE     s:16539

      685    16503    3      THEN DO;

      686    16504    3         IF NOT GRAPHIC

  16504  3 000725   200030 234100                    SZN     GRAPHIC,,AUTO
         3 000726   001066 604000 3                  TMI     s:16539

      687    16505    4         THEN DO;

      688    16506    4            VFU_HDR_OUT = %NO#;

  16506  3 000727   200120 450100                    STZ     VFU_HDR_OUT,,AUTO

      689    16507    5            DO I=1 TO 15;

  16507  3 000730   000001 235007                    LDA     1,DL
         3 000731   200053 755100                    STA     I,,AUTO

      690    16508    5               IF FS$FORMREC.SOFTFORM.VFUIM.V.LINE(I)~=0

  16508  3 000732   000000 470400 xsym               LDP0    DSEG1$
         3 000733   200053 235100                    LDA     I,,AUTO
         3 000734   000100 101505                    MRL     fill='000'O
         3 000735   000012 400001                    ADSC9   10,A,PR0                 cn=2,n=1
         3 000736   200126 000004                    ADSC9   I+1,,AUTO                cn=0,n=4
         3 000737   200126 236100                    LDQ     I+1,,AUTO
         3 000740   000000 116003                    CMPQ    0,DU
         3 000741   001062 600000 3                  TZE     s:16532

      691    16509    6               THEN DO;

      692    16510    6                  IF ~VFU_HDR_OUT

PL6.E3A0      #003=ASL$DISP_ONE_FORM File=ASL$DISPLAY_FORM.:E05TSI               TUE 07/29/97 09:59 Page:132
  16510  3 000742   200120 236100                    LDQ     VFU_HDR_OUT,,AUTO
         3 000743   400000 376003                    ANQ     -131072,DU
         3 000744   400000 676003                    ERQ     -131072,DU
         3 000745   000775 600000 3                  TZE     s:16519

      693    16511    7                  THEN DO;

      694    16512    7                     CALL ASB$WRITE_LO(' ',1);

  16512  3 000746   000001 630400 4                  EPPR0   1
         3 000747   000020 631400 xsym               EPPR1   B_VECTNIL+16
         3 000750   000000 701000 xent               TSX1    ASB$WRITE_LO
         3 000751   000000 011000                    NOP     0

      695    16513    7                     CALL ASB$WRITE_LO(VFU_HDR,SIZEC(VFU_HDR));

  16513  3 000752   000050 630400 4                  EPPR0   40
         3 000753   000020 631400 xsym               EPPR1   B_VECTNIL+16
         3 000754   000000 701000 xent               TSX1    ASB$WRITE_LO
         3 000755   000000 011000                    NOP     0

      696    16514    7                     VFU_HDR_OUT = %YES#;

  16514  3 000756   400000 236003                    LDQ     -131072,DU
         3 000757   200120 756100                    STQ     VFU_HDR_OUT,,AUTO

      697    16515    7                     FMT_BUF = VFU_FMT;

  16515  3 000760   040000 100400                    MLR     fill='040'O
         3 000761   000533 000026 2                  ADSC9   VFU_FMT                  cn=0,n=22
         3 000762   000000 000377 xsym               ADSC9   FMT_BUF                  cn=0,n=255

      698    16516    7                     FDS.FMT_.BOUND = SIZEC(VFU_FMT)-1;

  16516  3 000763   000000 236000 xsym               LDQ     FDS
         3 000764   177777 376007                    ANQ     65535,DL
         3 000765   000052 276000 4                  ORQ     42
PL6.E3A0      #003=ASL$DISP_ONE_FORM File=ASL$DISPLAY_FORM.:E05TSI               TUE 07/29/97 09:59 Page:133
         3 000766   000000 756000 xsym               STQ     FDS

      699    16517    7                     FMT_VEC(2) = VECTOR(REPEATS);

  16517  3 000767   777640 235007                    LDA     -96,DL
         3 000770   200126 452500                    STP2    I+1,,AUTO
         3 000771   200126 236100                    LDQ     I+1,,AUTO
         3 000772   000106 036003                    ADLQ    70,DU
         3 000773   000004 755000 xsym               STA     FMT_VEC+4
         3 000774   000005 756000 xsym               STQ     FMT_VEC+5

      700    16518    7                     END;

      701    16519    6                  FMT_VEC(0) = VECTOR(I);

  16519  3 000775   777640 235007                    LDA     -96,DL
         3 000776   200126 452500                    STP2    I+1,,AUTO
         3 000777   200126 236100                    LDQ     I+1,,AUTO
         3 001000   000053 036003                    ADLQ    43,DU
         3 001001   000000 755000 xsym               STA     FMT_VEC
         3 001002   000001 756000 xsym               STQ     FMT_VEC+1

      702    16520    6                  FMT_VEC(1) = VECTOR(FS$FORMREC.SOFTFORM.VFUIM.V.LINE(I));

  16520  3 001003   177640 235007                    LDA     65440,DL
         3 001004   200053 236100                    LDQ     I,,AUTO
         3 001005   000020 736000                    QLS     16
         3 001006   000053 036000 4                  ADLQ    43
         3 001007   000000 036000 xsym               ADLQ    DSEG1$
         3 001010   000002 755000 xsym               STA     FMT_VEC+2
         3 001011   000003 756000 xsym               STQ     FMT_VEC+3

      703    16521    6                  REPEATS = 0;

  16521  3 001012   200106 450100                    STZ     REPEATS,,AUTO

      704    16522    6                  FDS.NVECS# = 3;
PL6.E3A0      #003=ASL$DISP_ONE_FORM File=ASL$DISPLAY_FORM.:E05TSI               TUE 07/29/97 09:59 Page:134

  16522  3 001013   000003 235007                    LDA     3,DL
         3 001014   000011 755000 xsym               STA     FDS+9

      705    16523    6                  J = I;

  16523  3 001015   200053 235100                    LDA     I,,AUTO
         3 001016   200054 755100                    STA     J,,AUTO

      706    16524    7                  DO WHILE(FS$FORMREC.SOFTFORM.VFUIM.V.NEXT(J)~=0);

  16524  3 001017   000000 470400 xsym               LDP0    DSEG1$
         3 001020   000100 101505                    MRL     fill='000'O
         3 001021   000022 400001                    ADSC9   18,A,PR0                 cn=2,n=1
         3 001022   200126 000004                    ADSC9   I+1,,AUTO                cn=0,n=4
         3 001023   200126 236100                    LDQ     I+1,,AUTO
         3 001024   000000 116003                    CMPQ    0,DU
         3 001025   001056 600000 3                  TZE     s:16530

      707    16525    7                     J = FS$FORMREC.SOFTFORM.VFUIM.V.NEXT(J);

  16525  3 001026   000000 470400 xsym               LDP0    DSEG1$
         3 001027   200054 235100                    LDA     J,,AUTO
         3 001030   000100 101505                    MRL     fill='000'O
         3 001031   000022 400001                    ADSC9   18,A,PR0                 cn=2,n=1
         3 001032   200054 000004                    ADSC9   J,,AUTO                  cn=0,n=4

      708    16526    7                    FMT_VEC(FDS.NVECS#) = VECTOR(FS$FORMREC.SOFTFORM.VFUIM.V.LINE(J));

  16526  3 001033   000011 235000 xsym               LDA     FDS+9
         3 001034   000001 735000                    ALS     1
         3 001035   000000 620005                    EAX0    0,AL
         3 001036   177640 235007                    LDA     65440,DL
         3 001037   200054 236100                    LDQ     J,,AUTO
         3 001040   000020 736000                    QLS     16
         3 001041   000053 036000 4                  ADLQ    43
         3 001042   000000 036000 xsym               ADLQ    DSEG1$
PL6.E3A0      #003=ASL$DISP_ONE_FORM File=ASL$DISPLAY_FORM.:E05TSI               TUE 07/29/97 09:59 Page:135
         3 001043   000000 755010 xsym               STA     FMT_VEC,X0
         3 001044   000001 756010 xsym               STQ     FMT_VEC+1,X0

      709    16527    7                     FDS.NVECS# = FDS.NVECS# + 1;

  16527  3 001045   000011 054000 xsym               AOS     FDS+9

      710    16528    7                     REPEATS = REPEATS + 1;

  16528  3 001046   200106 054100                    AOS     REPEATS,,AUTO

      711    16529    7                     END;

  16529  3 001047   200054 235100                    LDA     J,,AUTO
         3 001050   000100 101505                    MRL     fill='000'O
         3 001051   000022 400001                    ADSC9   18,A,PR0                 cn=2,n=1
         3 001052   200126 000004                    ADSC9   I+1,,AUTO                cn=0,n=4
         3 001053   200126 236100                    LDQ     I+1,,AUTO
         3 001054   000000 116003                    CMPQ    0,DU
         3 001055   001026 601000 3                  TNZ     s:16525

      712    16530    6                  CALL X$FORMAT(FDS);

  16530  3 001056   000010 630400 4                  EPPR0   8
         3 001057   000017 631400 xsym               EPPR1   B_VECTNIL+15
         3 001060   000000 701000 xent               TSX1    X$FORMAT
         3 001061   000000 011000                    NOP     0

      713    16531    6                  END;

      714    16532    5               END;

  16532  3 001062   200053 054100                    AOS     I,,AUTO
         3 001063   200053 235100                    LDA     I,,AUTO
         3 001064   000017 115007                    CMPA    15,DL
         3 001065   000732 604400 3                  TMOZ    s:16508

PL6.E3A0      #003=ASL$DISP_ONE_FORM File=ASL$DISPLAY_FORM.:E05TSI               TUE 07/29/97 09:59 Page:136
      715    16533    4            END;

      716    16534    3         END; /* If FORMFLAG.VFU */

      717    16535
      718    16536        /**
      719    16537         ** Setup information
      720    16538         **/
      721    16539    2      IF FORMFLAG.SETUP

  16539  3 001066   200004 470500                    LDP0    @FORM_FLAG,,AUTO
         3 001067   000000 066500                    CMPB    filb='0'B
         3 001070   000000 010001                    BDSC    0,,PR0                   by=0,bit=1,n=1
         3 001071   000002 000022 xsym               BDSC    B_VECTNIL+2              by=0,bit=0,n=18
         3 001072   001161 600000 3                  TZE     s:16563

      722    16540    3      THEN DO;

      723    16541    3         IF FS$FORMREC.SETUPDISP ~= 0

  16541  3 001073   000000 471400 xsym               LDP1    DSEG1$
         3 001074   100002 220100                    LDX0    2,,PR1
         3 001075   001161 600000 3                  TZE     s:16563

      724    16542    4         THEN DO;

      725    16543    4            P$ = PINCRW(DSEG1$,FS$FORMREC.SETUPDISP);

  16543  3 001076   000000 636010                    EAQ     0,X0
         3 001077   000000 036000 xsym               ADLQ    DSEG1$
         3 001100   000000 756000 1                  STQ     P$

      726    16544    4            IF P$->FS$SETUP.LINES > 0

  16544  3 001101   000000 473400 1                  LDP3    P$
         3 001102   000100 101500                    MRL     fill='000'O
         3 001103   300000 000001                    ADSC9   0,,PR3                   cn=0,n=1
PL6.E3A0      #003=ASL$DISP_ONE_FORM File=ASL$DISPLAY_FORM.:E05TSI               TUE 07/29/97 09:59 Page:137
         3 001104   200126 000004                    ADSC9   I+1,,AUTO                cn=0,n=4
         3 001105   200126 236100                    LDQ     I+1,,AUTO
         3 001106   000000 116003                    CMPQ    0,DU
         3 001107   001161 600000 3                  TZE     s:16563

      727    16545    5            THEN DO;

      728    16546    5               CALL ASB$WRITE_LO(' ',1);

  16546  3 001110   000001 630400 4                  EPPR0   1
         3 001111   000020 631400 xsym               EPPR1   B_VECTNIL+16
         3 001112   000000 701000 xent               TSX1    ASB$WRITE_LO
         3 001113   000000 011000                    NOP     0

      729    16547    5               CALL ASB$WRITE_LO(SETUP_HDR,SIZEC(SETUP_HDR));

  16547  3 001114   000055 630400 4                  EPPR0   45
         3 001115   000020 631400 xsym               EPPR1   B_VECTNIL+16
         3 001116   000000 701000 xent               TSX1    ASB$WRITE_LO
         3 001117   000000 011000                    NOP     0

      730    16548    5               FMT_BUF = SETUP_FMT;

  16548  3 001120   040000 100400                    MLR     fill='040'O
         3 001121   000503 000003 2                  ADSC9   SETUP_FMT                cn=0,n=3
         3 001122   000000 000377 xsym               ADSC9   FMT_BUF                  cn=0,n=255

      731    16549    5               FDS.FMT_.BOUND = SIZEC(SETUP_FMT)-1;

  16549  3 001123   000000 236000 xsym               LDQ     FDS
         3 001124   177777 376007                    ANQ     65535,DL
         3 001125   400000 276007                    ORQ     -131072,DL
         3 001126   000000 756000 xsym               STQ     FDS

      732    16550    5               FDS.NVECS# = 1;

  16550  3 001127   000001 235007                    LDA     1,DL
PL6.E3A0      #003=ASL$DISP_ONE_FORM File=ASL$DISPLAY_FORM.:E05TSI               TUE 07/29/97 09:59 Page:138
         3 001130   000011 755000 xsym               STA     FDS+9

      733    16551    5               ENUM = P$->FS$SETUP.LINES;

  16551  3 001131   000000 470400 1                  LDP0    P$
         3 001132   000100 100500                    MLR     fill='000'O
         3 001133   000000 000001                    ADSC9   0,,PR0                   cn=0,n=1
         3 001134   200014 000001                    ADSC9   ENUM,,AUTO               cn=0,n=1

      734    16552    6               DO I= 0 TO ENUM-1;

  16552  3 001135   200053 450100                    STZ     I,,AUTO
         3 001136   001155 710000 3                  TRA     s:16555+1

      735    16553    6                  FMT_VEC(0) = VECTOR(P$->FS$SETUP.TXT(I));

  16553  3 001137   000057 235000 4                  LDA     47
         3 001140   200053 236100                    LDQ     I,,AUTO
         3 001141   200126 755100                    STA     I+1,,AUTO
         3 001142   000022 402003                    MPY     18,DU
         3 001143   000001 036003                    ADLQ    1,DU
         3 001144   000000 036000 1                  ADLQ    P$
         3 001145   200126 235100                    LDA     I+1,,AUTO
         3 001146   000000 755000 xsym               STA     FMT_VEC
         3 001147   000001 756000 xsym               STQ     FMT_VEC+1

      736    16554    6                  CALL X$FORMAT(FDS);

  16554  3 001150   000010 630400 4                  EPPR0   8
         3 001151   000017 631400 xsym               EPPR1   B_VECTNIL+15
         3 001152   000000 701000 xent               TSX1    X$FORMAT
         3 001153   000000 011000                    NOP     0

      737    16555    6                  END;

  16555  3 001154   200053 054100                    AOS     I,,AUTO
         3 001155   200014 236100                    LDQ     ENUM,,AUTO
PL6.E3A0      #003=ASL$DISP_ONE_FORM File=ASL$DISPLAY_FORM.:E05TSI               TUE 07/29/97 09:59 Page:139
         3 001156   000033 772000                    QRL     27
         3 001157   200053 116100                    CMPQ    I,,AUTO
         3 001160   001137 605400 3                  TPNZ    s:16553

      738    16556    5               END;

      739    16557    4            END;

      740    16558    3         END; /* If FORMFLAG.SETUP */

      741    16559
      742    16560        /**
      743    16561         ** Alignment
      744    16562         **/
      745    16563    2      IF FORMFLAG.ALIGN

  16563  3 001161   200004 470500                    LDP0    @FORM_FLAG,,AUTO
         3 001162   000000 066500                    CMPB    filb='0'B
         3 001163   000000 050001                    BDSC    0,,PR0                   by=0,bit=5,n=1
         3 001164   000002 000022 xsym               BDSC    B_VECTNIL+2              by=0,bit=0,n=18
         3 001165   001233 600000 3                  TZE     s:16585

      746    16564    3      THEN DO;

      747    16565    3         IF FS$FORMREC.ALGNDISP~=0

  16565  3 001166   000000 471400 xsym               LDP1    DSEG1$
         3 001167   100003 720100                    LXL0    3,,PR1
         3 001170   001233 600000 3                  TZE     s:16585

      748    16566    4         THEN DO;

      749    16567    4            P$ = PINCRW(DSEG1$,FS$FORMREC.ALGNDISP);

  16567  3 001171   000000 636010                    EAQ     0,X0
         3 001172   000000 036000 xsym               ADLQ    DSEG1$
         3 001173   000000 756000 1                  STQ     P$
PL6.E3A0      #003=ASL$DISP_ONE_FORM File=ASL$DISPLAY_FORM.:E05TSI               TUE 07/29/97 09:59 Page:140

      750    16568    4            CALL ASB$WRITE_LO(' ',1);

  16568  3 001174   000001 630400 4                  EPPR0   1
         3 001175   000020 631400 xsym               EPPR1   B_VECTNIL+16
         3 001176   000000 701000 xent               TSX1    ASB$WRITE_LO
         3 001177   000000 011000                    NOP     0

      751    16569    4            CALL ASB$WRITE_LO(ALIGN_HDR,SIZEC(ALIGN_HDR));

  16569  3 001200   000061 630400 4                  EPPR0   49
         3 001201   000020 631400 xsym               EPPR1   B_VECTNIL+16
         3 001202   000000 701000 xent               TSX1    ASB$WRITE_LO
         3 001203   000000 011000                    NOP     0

      752    16570    4            FMT_BUF = ALIGN_FMT;

  16570  3 001204   040000 100400                    MLR     fill='040'O
         3 001205   000013 000014 2                  ADSC9   ALIGN_FMT                cn=0,n=12
         3 001206   000000 000377 xsym               ADSC9   FMT_BUF                  cn=0,n=255

      753    16571    4            FDS.FMT_.BOUND = SIZEC(ALIGN_FMT)-1;

  16571  3 001207   000000 236000 xsym               LDQ     FDS
         3 001210   177777 376007                    ANQ     65535,DL
         3 001211   000046 276000 4                  ORQ     38
         3 001212   000000 756000 xsym               STQ     FDS

      754    16572    4            FDS.NVECS# = 2;

  16572  3 001213   000002 235007                    LDA     2,DL
         3 001214   000011 755000 xsym               STA     FDS+9

      755    16573    4            IF FS$BAN.ALIGNCTL.EVERY

  16573  3 001215   000000 470400 1                  LDP0    P$
         3 001216   000000 066500                    CMPB    filb='0'B
PL6.E3A0      #003=ASL$DISP_ONE_FORM File=ASL$DISPLAY_FORM.:E05TSI               TUE 07/29/97 09:59 Page:141
         3 001217   000000 000001                    BDSC    0,,PR0                   by=0,bit=0,n=1
         3 001220   000002 000022 xsym               BDSC    B_VECTNIL+2              by=0,bit=0,n=18
         3 001221   001226 600000 3                  TZE     s:16577

      756    16574    4            THEN
      757    16575    4               FMT_VEC(0) = VECTOR(YES_STR);

  16575  3 001222   000022 237000 4                  LDAQ    18
         3 001223   000000 755000 xsym               STA     FMT_VEC
         3 001224   000001 756000 xsym               STQ     FMT_VEC+1
         3 001225   001231 710000 3                  TRA     s:16578

      758    16576    4            ELSE
      759    16577    4               FMT_VEC(0) = VECTOR(NO_STR);

  16577  3 001226   000024 237000 4                  LDAQ    20
         3 001227   000000 755000 xsym               STA     FMT_VEC
         3 001230   000001 756000 xsym               STQ     FMT_VEC+1

      760    16578    4            CALL FINISH_BANNER;

  16578  3 001231   003145 701000 3                  TSX1    FINISH_BANNER
         3 001232   000000 011000                    NOP     0

      761    16579    4            END;

      762    16580    3         END; /* If FORMFLAG.ALIGN */

      763    16581
      764    16582        /**
      765    16583         ** Banner
      766    16584         **/
      767    16585    2      IF FORMFLAG.BANNER

  16585  3 001233   200004 470500                    LDP0    @FORM_FLAG,,AUTO
         3 001234   000000 066500                    CMPB    filb='0'B
         3 001235   000000 020001                    BDSC    0,,PR0                   by=0,bit=2,n=1
PL6.E3A0      #003=ASL$DISP_ONE_FORM File=ASL$DISPLAY_FORM.:E05TSI               TUE 07/29/97 09:59 Page:142
         3 001236   000002 000022 xsym               BDSC    B_VECTNIL+2              by=0,bit=0,n=18
         3 001237   001307 600000 3                  TZE     s:16607

      768    16586    3      THEN DO;

      769    16587    3         IF FS$FORMREC.BANRDISP~=0

  16587  3 001240   000000 471400 xsym               LDP1    DSEG1$
         3 001241   100003 220100                    LDX0    3,,PR1
         3 001242   001307 600000 3                  TZE     s:16607

      770    16588    4         THEN DO;

      771    16589    4            P$ = PINCRW(DSEG1$,FS$FORMREC.BANRDISP);

  16589  3 001243   000000 636010                    EAQ     0,X0
         3 001244   000000 036000 xsym               ADLQ    DSEG1$
         3 001245   000000 756000 1                  STQ     P$

      772    16590    4            CALL ASB$WRITE_LO(' ',1);

  16590  3 001246   000001 630400 4                  EPPR0   1
         3 001247   000020 631400 xsym               EPPR1   B_VECTNIL+16
         3 001250   000000 701000 xent               TSX1    ASB$WRITE_LO
         3 001251   000000 011000                    NOP     0

      773    16591    4            CALL ASB$WRITE_LO(BANNER_HDR,SIZEC(BANNER_HDR));

  16591  3 001252   000064 630400 4                  EPPR0   52
         3 001253   000020 631400 xsym               EPPR1   B_VECTNIL+16
         3 001254   000000 701000 xent               TSX1    ASB$WRITE_LO
         3 001255   000000 011000                    NOP     0

      774    16592    4            FMT_BUF = BANNER_FMT;

  16592  3 001256   040000 100400                    MLR     fill='040'O
         3 001257   000125 000014 2                  ADSC9   BANNER_FMT               cn=0,n=12
PL6.E3A0      #003=ASL$DISP_ONE_FORM File=ASL$DISPLAY_FORM.:E05TSI               TUE 07/29/97 09:59 Page:143
         3 001260   000000 000377 xsym               ADSC9   FMT_BUF                  cn=0,n=255

      775    16593    4            FDS.FMT_.BOUND = SIZEC(BANNER_FMT)-1;

  16593  3 001261   000000 236000 xsym               LDQ     FDS
         3 001262   177777 376007                    ANQ     65535,DL
         3 001263   000046 276000 4                  ORQ     38
         3 001264   000000 756000 xsym               STQ     FDS

      776    16594    4            FDS.NVECS# = 2;

  16594  3 001265   000002 235007                    LDA     2,DL
         3 001266   000011 755000 xsym               STA     FDS+9

      777    16595    4            IF FS$BAN.CHARGE~=0

  16595  3 001267   000000 470400 1                  LDP0    P$
         3 001270   000100 101500                    MRL     fill='000'O
         3 001271   000000 000001                    ADSC9   0,,PR0                   cn=0,n=1
         3 001272   200126 000004                    ADSC9   I+1,,AUTO                cn=0,n=4
         3 001273   200126 236100                    LDQ     I+1,,AUTO
         3 001274   000000 116003                    CMPQ    0,DU
         3 001275   001302 600000 3                  TZE     s:16599

      778    16596    4            THEN
      779    16597    4               FMT_VEC(0) = VECTOR(YES_STR);

  16597  3 001276   000022 237000 4                  LDAQ    18
         3 001277   000000 755000 xsym               STA     FMT_VEC
         3 001300   000001 756000 xsym               STQ     FMT_VEC+1
         3 001301   001305 710000 3                  TRA     s:16600

      780    16598    4            ELSE
      781    16599    4               FMT_VEC(0) = VECTOR(NO_STR);

  16599  3 001302   000024 237000 4                  LDAQ    20
         3 001303   000000 755000 xsym               STA     FMT_VEC
PL6.E3A0      #003=ASL$DISP_ONE_FORM File=ASL$DISPLAY_FORM.:E05TSI               TUE 07/29/97 09:59 Page:144
         3 001304   000001 756000 xsym               STQ     FMT_VEC+1

      782    16600    4            CALL FINISH_BANNER;

  16600  3 001305   003145 701000 3                  TSX1    FINISH_BANNER
         3 001306   000000 011000                    NOP     0

      783    16601    4            END;

      784    16602    3         END; /* If FORMFLAG.BANNER */

      785    16603
      786    16604        /*
      787    16605        ** Put out a list of pseudos if any exist.
      788    16606        */
      789    16607    2      IF FORMFLAG.PSEUDO

  16607  3 001307   200004 470500                    LDP0    @FORM_FLAG,,AUTO
         3 001310   000000 066500                    CMPB    filb='0'B
         3 001311   000000 070001                    BDSC    0,,PR0                   by=0,bit=7,n=1
         3 001312   000002 000022 xsym               BDSC    B_VECTNIL+2              by=0,bit=0,n=18
         3 001313   003125 600000 3                  TZE     s:16959

      790    16608    3      THEN DO;

      791    16609    4         IF PSEUDO_FORMS THEN DO;

  16609  3 001314   200104 234100                    SZN     PSEUDO_FORMS,,AUTO
         3 001315   003125 605000 3                  TPL     s:16959

      792    16610    4            CALL ASB$WRITE_LO( AS_BLANK, 1 );

  16610  3 001316   000066 630400 4                  EPPR0   54
         3 001317   000020 631400 xsym               EPPR1   B_VECTNIL+16
         3 001320   000000 701000 xent               TSX1    ASB$WRITE_LO
         3 001321   000000 011000                    NOP     0

PL6.E3A0      #003=ASL$DISP_ONE_FORM File=ASL$DISPLAY_FORM.:E05TSI               TUE 07/29/97 09:59 Page:145
      793    16611    4            CALL CONCAT( OUT_BUF,'  PSEUDO FORMS FOR FORM ',FORM_KEY.TXT);

  16611  3 001322   040000 100400                    MLR     fill='040'O
         3 001323   000600 000030 2                  ADSC9   YES_STR+16               cn=0,n=24
         3 001324   000000 000030 xsym               ADSC9   OUT_BUF                  cn=0,n=24
         3 001325   040000 100500                    MLR     fill='040'O
         3 001326   200016 200006                    ADSC9   FORM_KEY,,AUTO           cn=1,n=6
         3 001327   000006 000164 xsym               ADSC9   OUT_BUF+6                cn=0,n=116

      794    16612    4            CALL ASB$WRITE_LO( OUT_BUF, LENGTHC(OUT_BUF) );

  16612  3 001330   000071 630400 4                  EPPR0   57
         3 001331   000020 631400 xsym               EPPR1   B_VECTNIL+16
         3 001332   000000 701000 xent               TSX1    ASB$WRITE_LO
         3 001333   000000 011000                    NOP     0

      795    16613    4            CALL ASB$WRITE_LO( AS_BLANK, 1 );

  16613  3 001334   000066 630400 4                  EPPR0   54
         3 001335   000020 631400 xsym               EPPR1   B_VECTNIL+16
         3 001336   000000 701000 xent               TSX1    ASB$WRITE_LO
         3 001337   000000 011000                    NOP     0

      796    16614    4            CALL FLUSH;

  16614  3 001340   003126 701000 3                  TSX1    FLUSH
         3 001341   000000 011000                    NOP     0

      797    16615    4            USERS_KEY = PSEUDO_FORM_KEY;

  16615  3 001342   000000 100500                    MLR     fill='000'O
         3 001343   200077 000015                    ADSC9   PSEUDO_FORM_KEY,,AUTO    cn=0,n=13
         3 001344   000000 000052 xsym               ADSC9   USERS_KEY                cn=0,n=42

      798    16616    4            CALL ASF$PREC_FORM( USERS_KEY );

  16616  3 001345   000073 630400 4                  EPPR0   59
PL6.E3A0      #003=ASL$DISP_ONE_FORM File=ASL$DISPLAY_FORM.:E05TSI               TUE 07/29/97 09:59 Page:146
         3 001346   000017 631400 xsym               EPPR1   B_VECTNIL+15
         3 001347   000000 701000 xent               TSX1    ASF$PREC_FORM
         3 001350   000000 011000                    NOP     0

      799    16617    4            I = 4;

  16617  3 001351   000004 235007                    LDA     4,DL
         3 001352   200053 755100                    STA     I,,AUTO

      800    16618    4            CALL ASF$READ_FORM_SEQ(, DSEG2$, I ) ALTRET(FINISHED);

  16618  3 001353   200053 630500                    EPPR0   I,,AUTO
         3 001354   200130 450500                    STP0    I+3,,AUTO
         3 001355   000074 236000 4                  LDQ     60
         3 001356   000001 235000 xsym               LDA     B_VECTNIL+1
         3 001357   200126 757100                    STAQ    I+1,,AUTO
         3 001360   200126 630500                    EPPR0   I+1,,AUTO
         3 001361   000021 631400 xsym               EPPR1   B_VECTNIL+17
         3 001362   000000 701000 xent               TSX1    ASF$READ_FORM_SEQ
         3 001363   001426 702000 3                  TSX2    FINISHED

      801    16619    5            DO WHILE( USERS_KEY.COUNT = 12 AND SUBSTR(USERS_KEY.TXTC,0,6) = FORM_KEY.
             16619                     TXT );

  16619  3 001364   001416 710000 3                  TRA     s:16624

      802    16620    5               IF TABS + 10 > LO_WIDTH THEN CALL FLUSH;

  16620  3 001365   000001 236000 1                  LDQ     TABS
         3 001366   000012 036007                    ADLQ    10,DL
         3 001367   000000 116000 xsym               CMPQ    LO_WIDTH
         3 001370   001374 602000 3                  TNC     s:16621
         3 001371   001374 600000 3                  TZE     s:16621

  16620  3 001372   003126 701000 3                  TSX1    FLUSH
         3 001373   000000 011000                    NOP     0

PL6.E3A0      #003=ASL$DISP_ONE_FORM File=ASL$DISPLAY_FORM.:E05TSI               TUE 07/29/97 09:59 Page:147
      803    16621    5               CALL INSERT( OUT_BUF, TABS, , SUBSTR(USERS_KEY.TXTC,6,6) );

  16621  3 001374   000001 720000 1                  LXL0    TABS
         3 001375   777563 620010                    EAX0    -141,X0
         3 001376   777777 660003                    ERX0    -1,DU
         3 001377   000001 235000 1                  LDA     TABS
         3 001400   040045 100400                    MLR     fill='040'O
         3 001401   000001 600006 xsym               ADSC9   USERS_KEY+1              cn=3,n=6
         3 001402   000000 000010 xsym               ADSC9   OUT_BUF,A                cn=0,n=*X0

      804    16622    5               TABS = TABS + 10;

  16622  3 001403   000012 035007                    ADLA    10,DL
         3 001404   000001 755000 1                  STA     TABS

      805    16623    5               CALL ASF$READ_FORM_SEQ(, DSEG2$, I ) ALTRET(FINISHED);

  16623  3 001405   200053 630500                    EPPR0   I,,AUTO
         3 001406   200130 450500                    STP0    I+3,,AUTO
         3 001407   000074 236000 4                  LDQ     60
         3 001410   000001 235000 xsym               LDA     B_VECTNIL+1
         3 001411   200126 757100                    STAQ    I+1,,AUTO
         3 001412   200126 630500                    EPPR0   I+1,,AUTO
         3 001413   000021 631400 xsym               EPPR1   B_VECTNIL+17
         3 001414   000000 701000 xent               TSX1    ASF$READ_FORM_SEQ
         3 001415   001426 702000 3                  TSX2    FINISHED

      806    16624    5               END;

  16624  3 001416   000000 236000 xsym               LDQ     USERS_KEY
         3 001417   777000 376003                    ANQ     -512,DU
         3 001420   014000 116003                    CMPQ    6144,DU
         3 001421   001426 601000 3                  TNZ     FINISHED
         3 001422   040100 106400                    CMPC    fill='040'O
         3 001423   000000 200006 xsym               ADSC9   USERS_KEY                cn=1,n=6
         3 001424   200016 200006                    ADSC9   FORM_KEY,,AUTO           cn=1,n=6
         3 001425   001365 600000 3                  TZE     s:16620
PL6.E3A0      #003=ASL$DISP_ONE_FORM File=ASL$DISPLAY_FORM.:E05TSI               TUE 07/29/97 09:59 Page:148

      807    16625    4   FINISHED:
      808    16626    4            CALL FLUSH;

  16626  3 001426   003126 701000 3     FINISHED     TSX1    FLUSH
         3 001427   000000 011000                    NOP     0

      809    16627    4            CALL ASB$WRITE_LO( AS_BLANK, 1 );

  16627  3 001430   000066 630400 4                  EPPR0   54
         3 001431   000020 631400 xsym               EPPR1   B_VECTNIL+16
         3 001432   000000 701000 xent               TSX1    ASB$WRITE_LO
         3 001433   000000 011000                    NOP     0

      810    16628    4            CALL ASF$PREC_SKIP_FORM( FORM_KEY );

  16628  3 001434   200016 630500                    EPPR0   FORM_KEY,,AUTO
         3 001435   200126 450500                    STP0    I+1,,AUTO
         3 001436   200126 630500                    EPPR0   I+1,,AUTO
         3 001437   000017 631400 xsym               EPPR1   B_VECTNIL+15
         3 001440   000000 701000 xent               TSX1    ASF$PREC_SKIP_FORM
         3 001441   000000 011000                    NOP     0

      811    16629    4            END;

      812    16630    3         END; /* If FORMFLAG.PSEUDO */

      813    16631    2      END; /*  Not jcl  */

  16631  3 001442   003125 710000 3                  TRA     s:16959

      814    16632    2   ELSE DO ;  /*  Jcl  */

      815    16633        /*  Don't output the default forms  */
      816    16634    2      IF USERS_KEY.TXTC = 'STDLP' OR

  16634  3 001443   040000 106400                    CMPC    fill='040'O
PL6.E3A0      #003=ASL$DISP_ONE_FORM File=ASL$DISPLAY_FORM.:E05TSI               TUE 07/29/97 09:59 Page:149
         3 001444   000000 200051 xsym               ADSC9   USERS_KEY                cn=1,n=41
         3 001445   000606 000005 2                  ADSC9   YES_STR+22               cn=0,n=5
         3 001446   001457 600000 3                  TZE     s:16637
         3 001447   040000 106400                    CMPC    fill='040'O
         3 001450   000000 200051 xsym               ADSC9   USERS_KEY                cn=1,n=41
         3 001451   000610 000005 2                  ADSC9   YES_STR+24               cn=0,n=5
         3 001452   001457 600000 3                  TZE     s:16637
         3 001453   040000 106400                    CMPC    fill='040'O
         3 001454   000000 200051 xsym               ADSC9   USERS_KEY                cn=1,n=41
         3 001455   000612 000005 2                  ADSC9   YES_STR+26               cn=0,n=5
         3 001456   001460 601000 3                  TNZ     s:16641

      817    16635    2           USERS_KEY.TXTC = 'STD**' OR
      818    16636    2           USERS_KEY.TXTC = 'STDGR' THEN
      819    16637    2         RETURN;

  16637  3 001457   000000 702200 xent               TSX2  ! X66_ARET

      820    16638        /*
      821    16639        ** Put out the create command.
      822    16640        */
      823    16641    2      GRAPHIC = %NO#;

  16641  3 001460   200030 450100                    STZ     GRAPHIC,,AUTO

      824    16642    2      IF FS$FORMREC.GRAPHIC THEN

  16642  3 001461   000000 471400 xsym               LDP1    DSEG1$
         3 001462   100004 430100                    FSZN    4,,PR1
         3 001463   001466 605000 3                  TPL     s:16644

      825    16643    2         GRAPHIC = %YES#;

  16643  3 001464   400000 236003                    LDQ     -131072,DU
         3 001465   200030 756100                    STQ     GRAPHIC,,AUTO

      826    16644    2      CALL ASB$WRITE_LO(' ',1);
PL6.E3A0      #003=ASL$DISP_ONE_FORM File=ASL$DISPLAY_FORM.:E05TSI               TUE 07/29/97 09:59 Page:150

  16644  3 001466   000001 630400 4                  EPPR0   1
         3 001467   000020 631400 xsym               EPPR1   B_VECTNIL+16
         3 001470   000000 701000 xent               TSX1    ASB$WRITE_LO
         3 001471   000000 011000                    NOP     0

      827    16645    2      IF SUBSTR(USERS_KEY.TXTC,0,USERS_KEY.COUNT) ~= FS$FORMREC.FNAME

  16645  3 001472   000000 236000 xsym               LDQ     USERS_KEY
         3 001473   000033 772000                    QRL     27
         3 001474   000000 620006                    EAX0    0,QL
         3 001475   000000 470400 xsym               LDP0    DSEG1$
         3 001476   040100 106440                    CMPC    fill='040'O
         3 001477   000000 200010 xsym               ADSC9   USERS_KEY                cn=1,n=*X0
         3 001500   000000 000006                    ADSC9   0,,PR0                   cn=0,n=6
         3 001501   001532 600000 3                  TZE     s:16656

      828    16646    3      THEN DO;

      829    16647    3         FMT_BUF = PSEUDO_JCL_FMT;

  16647  3 001502   040000 100400                    MLR     fill='040'O
         3 001503   000452 000031 2                  ADSC9   PSEUDO_JCL_FMT           cn=0,n=25
         3 001504   000000 000377 xsym               ADSC9   FMT_BUF                  cn=0,n=255

      830    16648    3         FDS.FMT_.BOUND = SIZEC (PSEUDO_JCL_FMT);

  16648  3 001505   000000 236000 xsym               LDQ     FDS
         3 001506   177777 376007                    ANQ     65535,DL
         3 001507   000036 276000 4                  ORQ     30
         3 001510   000000 756000 xsym               STQ     FDS

      831    16649    3         FDS.NVECS# = 2;

  16649  3 001511   000002 235007                    LDA     2,DL
         3 001512   000011 755000 xsym               STA     FDS+9

PL6.E3A0      #003=ASL$DISP_ONE_FORM File=ASL$DISPLAY_FORM.:E05TSI               TUE 07/29/97 09:59 Page:151
      832    16650    3         FMT_VEC (0) = VECTOR (SUBSTR (USERS_KEY.TXTC,0,USERS_KEY.COUNT));

  16650  3 001513   000000 236000 xsym               LDQ     USERS_KEY
         3 001514   000033 772000                    QRL     27
         3 001515   000064 737000                    LLS     52
         3 001516   000140 135007                    SBLA    96,DL
         3 001517   000005 236000 4                  LDQ     5
         3 001520   000000 755000 xsym               STA     FMT_VEC
         3 001521   000001 756000 xsym               STQ     FMT_VEC+1

      833    16651    3         FMT_VEC (1) = VECTOR (FS$FORMREC.FNAME);

  16651  3 001522   000006 235000 4                  LDA     6
         3 001523   000000 236000 xsym               LDQ     DSEG1$
         3 001524   000002 755000 xsym               STA     FMT_VEC+2
         3 001525   000003 756000 xsym               STQ     FMT_VEC+3

      834    16652    3         PSEUDO_FORMS = %NO#;

  16652  3 001526   200104 450100                    STZ     PSEUDO_FORMS,,AUTO

      835    16653    3         PSEUDO = %YES#;

  16653  3 001527   400000 236003                    LDQ     -131072,DU
         3 001530   200103 756100                    STQ     PSEUDO,,AUTO

      836    16654    3         END; /*  Pseudo  */

  16654  3 001531   001567 710000 3                  TRA     s:16666

      837    16655    3      ELSE DO;

      838    16656    3         PSEUDO = %NO#;

  16656  3 001532   200103 450100                    STZ     PSEUDO,,AUTO

      839    16657    3         FMT_BUF = FORM_JCL_FMT;
PL6.E3A0      #003=ASL$DISP_ONE_FORM File=ASL$DISPLAY_FORM.:E05TSI               TUE 07/29/97 09:59 Page:152

  16657  3 001533   040000 100400                    MLR     fill='040'O
         3 001534   000260 000017 2                  ADSC9   FORM_JCL_FMT             cn=0,n=15
         3 001535   000000 000377 xsym               ADSC9   FMT_BUF                  cn=0,n=255

      840    16658    3         FDS.FMT_.BOUND = SIZEC (FORM_JCL_FMT);

  16658  3 001536   000000 236000 xsym               LDQ     FDS
         3 001537   177777 376007                    ANQ     65535,DL
         3 001540   000075 276000 4                  ORQ     61
         3 001541   000000 756000 xsym               STQ     FDS

      841    16659    3         FDS.NVECS# = 1;

  16659  3 001542   000001 235007                    LDA     1,DL
         3 001543   000011 755000 xsym               STA     FDS+9

      842    16660    3         FMT_VEC (0) = VECTOR (SUBSTR (USERS_KEY.TXTC,0,USERS_KEY.COUNT));

  16660  3 001544   000000 236000 xsym               LDQ     USERS_KEY
         3 001545   000033 772000                    QRL     27
         3 001546   000064 737000                    LLS     52
         3 001547   000140 135007                    SBLA    96,DL
         3 001550   000005 236000 4                  LDQ     5
         3 001551   000000 755000 xsym               STA     FMT_VEC
         3 001552   000001 756000 xsym               STQ     FMT_VEC+1

      843    16661    4         IF GRAPHIC THEN DO;

  16661  3 001553   200030 234100                    SZN     GRAPHIC,,AUTO
         3 001554   001567 605000 3                  TPL     s:16666

      844    16662    4            SUBSTR(FMT_BUF,FDS.FMT_.BOUND+1,SIZEC(GRAPHICS_STR)) = GRAPHICS_STR;

  16662  3 001555   000000 236000 xsym               LDQ     FDS
         3 001556   000020 772000                    QRL     16
         3 001557   040006 100400                    MLR     fill='040'O
PL6.E3A0      #003=ASL$DISP_ONE_FORM File=ASL$DISPLAY_FORM.:E05TSI               TUE 07/29/97 09:59 Page:153
         3 001560   000372 000013 2                  ADSC9   GRAPHICS_STR             cn=0,n=11
         3 001561   000000 200013 xsym               ADSC9   FMT_BUF,Q                cn=1,n=11

      845    16663    4            FDS.FMT_.BOUND = FDS.FMT_.BOUND + SIZEC (GRAPHICS_STR);

  16663  3 001562   000013 036007                    ADLQ    11,DL
         3 001563   000020 736000                    QLS     16
         3 001564   000000 676000 xsym               ERQ     FDS
         3 001565   000034 376000 xsym               ANQ     B_VECTNIL+28
         3 001566   000000 656000 xsym               ERSQ    FDS

      846    16664    4            END; /*  Graphic  */

      847    16665    3         END; /*   Not pseudo  */

      848    16666    2      CALL X$FORMAT (FDS);

  16666  3 001567   000010 630400 4                  EPPR0   8
         3 001570   000017 631400 xsym               EPPR1   B_VECTNIL+15
         3 001571   000000 701000 xent               TSX1    X$FORMAT
         3 001572   000000 011000                    NOP     0

      849    16667        /*
      850    16668        ** Do the access list now
      851    16669        */
      852    16670    2      FMT_BUF = AS_BLANK;

  16670  3 001573   040000 100400                    MLR     fill='040'O
         3 001574   000000 000001 xsym               ADSC9   AS_BLANK                 cn=0,n=1
         3 001575   000000 000377 xsym               ADSC9   FMT_BUF                  cn=0,n=255

      853    16671    2      FDS.FMT_.BOUND = 0;

  16671  3 001576   177777 236007                    LDQ     65535,DL
         3 001577   000000 356000 xsym               ANSQ    FDS

      854    16672    2      FDS.NVECS# = 0;
PL6.E3A0      #003=ASL$DISP_ONE_FORM File=ASL$DISPLAY_FORM.:E05TSI               TUE 07/29/97 09:59 Page:154

  16672  3 001600   000011 450000 xsym               STZ     FDS+9

      855    16673    2      IF FS$FORMREC.ACCSDISP>0

  16673  3 001601   000000 470400 xsym               LDP0    DSEG1$
         3 001602   000002 720100                    LXL0    2,,PR0
         3 001603   001615 600000 3                  TZE     s:16683

      856    16674    3      THEN DO;

      857    16675    3         P$ = PINCRW(DSEG1$,FS$FORMREC.ACCSDISP);

  16675  3 001604   000000 636010                    EAQ     0,X0
         3 001605   000000 036000 xsym               ADLQ    DSEG1$
         3 001606   000000 756000 1                  STQ     P$

      858    16676    3         CALL ADD_ACCLIST;

  16676  3 001607   005435 701000 3                  TSX1    ADD_ACCLIST
         3 001610   000000 011000                    NOP     0

      859    16677    3         CALL X$FORMAT( FDS );

  16677  3 001611   000010 630400 4                  EPPR0   8
         3 001612   000017 631400 xsym               EPPR1   B_VECTNIL+15
         3 001613   000000 701000 xent               TSX1    X$FORMAT
         3 001614   000000 011000                    NOP     0

      860    16678    3         END;  /*  Access list exists  */

      861    16679        /*
      862    16680        ** Do the account list next.
      863    16681            If the access option was specified give both access and account.
      864    16682        */
      865    16683    2      FMT_BUF = AS_BLANK;

PL6.E3A0      #003=ASL$DISP_ONE_FORM File=ASL$DISPLAY_FORM.:E05TSI               TUE 07/29/97 09:59 Page:155
  16683  3 001615   040000 100400                    MLR     fill='040'O
         3 001616   000000 000001 xsym               ADSC9   AS_BLANK                 cn=0,n=1
         3 001617   000000 000377 xsym               ADSC9   FMT_BUF                  cn=0,n=255

      866    16684    2      FDS.FMT_.BOUND = 0;

  16684  3 001620   177777 236007                    LDQ     65535,DL
         3 001621   000000 356000 xsym               ANSQ    FDS

      867    16685    2      FDS.NVECS# = 0;

  16685  3 001622   000011 450000 xsym               STZ     FDS+9

      868    16686    2      IF FS$FORMREC.ACCTDISP>0

  16686  3 001623   000000 470400 xsym               LDP0    DSEG1$
         3 001624   000001 720100                    LXL0    1,,PR0
         3 001625   001637 600000 3                  TZE     s:16696

      869    16687    3      THEN DO;

      870    16688    3         P$ = PINCRW(DSEG1$,FS$FORMREC.ACCTDISP);

  16688  3 001626   000000 636010                    EAQ     0,X0
         3 001627   000000 036000 xsym               ADLQ    DSEG1$
         3 001630   000000 756000 1                  STQ     P$

      871    16689    3         CALL ADD_ACCOUNTLIST;

  16689  3 001631   005523 701000 3                  TSX1    ADD_ACCOUNTLIST
         3 001632   000000 011000                    NOP     0

      872    16690    3         CALL X$FORMAT( FDS );

  16690  3 001633   000010 630400 4                  EPPR0   8
         3 001634   000017 631400 xsym               EPPR1   B_VECTNIL+15
         3 001635   000000 701000 xent               TSX1    X$FORMAT
PL6.E3A0      #003=ASL$DISP_ONE_FORM File=ASL$DISPLAY_FORM.:E05TSI               TUE 07/29/97 09:59 Page:156
         3 001636   000000 011000                    NOP     0

      873    16691    3         END;

      874    16692
      875    16693        /*
      876    16694        ** Do the header information now...
      877    16695        */
      878    16696    2      FMT_BUF = AS_BLANK;

  16696  3 001637   040000 100400                    MLR     fill='040'O
         3 001640   000000 000001 xsym               ADSC9   AS_BLANK                 cn=0,n=1
         3 001641   000000 000377 xsym               ADSC9   FMT_BUF                  cn=0,n=255

      879    16697    2      FDS.FMT_.BOUND = 0;

  16697  3 001642   177777 236007                    LDQ     65535,DL
         3 001643   000000 356000 xsym               ANSQ    FDS

      880    16698    2      FDS.NVECS# = 0;

  16698  3 001644   000011 450000 xsym               STZ     FDS+9

      881    16699    2      IF GRAPHIC

  16699  3 001645   200030 234100                    SZN     GRAPHIC,,AUTO
         3 001646   002215 605000 3                  TPL     s:16776

      882    16700    3      THEN DO;

      883    16701                                 /* Setup the graphics tabs  */
      884    16702    3         GRAPH_TAB(0) = 3;

  16702  3 001647   000003 235007                    LDA     3,DL
         3 001650   200031 755100                    STA     GRAPH_TAB,,AUTO

      885    16703    4         DO I = 1 TO 10;
PL6.E3A0      #003=ASL$DISP_ONE_FORM File=ASL$DISPLAY_FORM.:E05TSI               TUE 07/29/97 09:59 Page:157

  16703  3 001651   000001 235007                    LDA     1,DL
         3 001652   200053 755100                    STA     I,,AUTO

      886    16704    4            GRAPH_TAB(I) = GRAPH_TAB(I-1) + GRAPH_TAB_DEFAULT;

  16704  3 001653   200053 720100                    LXL0    I,,AUTO
         3 001654   200030 236110                    LDQ     GRAPHIC,X0,AUTO
         3 001655   000413 036000 2                  ADLQ    GRAPH_TAB_DEFAULT
         3 001656   200031 756110                    STQ     GRAPH_TAB,X0,AUTO

      887    16705    4            END; /*  Graph tab loop  */

  16705  3 001657   200053 054100                    AOS     I,,AUTO
         3 001660   200053 235100                    LDA     I,,AUTO
         3 001661   000012 115007                    CMPA    10,DL
         3 001662   001653 604400 3                  TMOZ    s:16704

      888    16706
      889    16707    4         IF NOT PSEUDO THEN DO;

  16707  3 001663   200103 234100                    SZN     PSEUDO,,AUTO
         3 001664   002056 604000 3                  TMI     s:16744

      890    16708    4            FMT_BUF = CHARSET_JCL_FMT;

  16708  3 001665   040000 100400                    MLR     fill='040'O
         3 001666   000146 000013 2                  ADSC9   CHARSET_JCL_FMT          cn=0,n=11
         3 001667   000000 000377 xsym               ADSC9   FMT_BUF                  cn=0,n=255

      891    16709    4            FDS.FMT_.BOUND = SIZEC (CHARSET_JCL_FMT);

  16709  3 001670   000000 236000 xsym               LDQ     FDS
         3 001671   177777 376007                    ANQ     65535,DL
         3 001672   000046 276000 4                  ORQ     38
         3 001673   000000 756000 xsym               STQ     FDS

PL6.E3A0      #003=ASL$DISP_ONE_FORM File=ASL$DISPLAY_FORM.:E05TSI               TUE 07/29/97 09:59 Page:158
      892    16710    4            FDS.NVECS# = 4;

  16710  3 001674   000004 235007                    LDA     4,DL
         3 001675   000011 755000 xsym               STA     FDS+9

      893    16711    4            FMT_VEC(0) = VECTOR ( GRAPH_TAB(0) );

  16711  3 001676   777640 235007                    LDA     -96,DL
         3 001677   200126 452500                    STP2    I+1,,AUTO
         3 001700   200126 236100                    LDQ     I+1,,AUTO
         3 001701   000031 036003                    ADLQ    25,DU
         3 001702   000000 755000 xsym               STA     FMT_VEC
         3 001703   000001 756000 xsym               STQ     FMT_VEC+1

      894    16712    4            FMT_VEC(1) = VECTOR ( CHARSET_STR );

  16712  3 001704   000076 237000 4                  LDAQ    62
         3 001705   000002 755000 xsym               STA     FMT_VEC+2
         3 001706   000003 756000 xsym               STQ     FMT_VEC+3

      895    16713    4            FMT_VEC(2) = VECTOR ( EQUAL_STR );

  16713  3 001707   000100 237000 4                  LDAQ    64
         3 001710   000004 755000 xsym               STA     FMT_VEC+4
         3 001711   000005 756000 xsym               STQ     FMT_VEC+5

      896    16714    4            FMT_VEC(3) = VECTOR ( FS$GFORMREC.CHAIN_NAME );

  16714  3 001712   000027 235000 4                  LDA     23
         3 001713   000000 236000 xsym               LDQ     DSEG1$
         3 001714   000032 036000 4                  ADLQ    26
         3 001715   000006 755000 xsym               STA     FMT_VEC+6
         3 001716   000007 756000 xsym               STQ     FMT_VEC+7

      897    16715    4            TABS = GRAPH_TAB(1);

  16715  3 001717   200032 235100                    LDA     GRAPH_TAB+1,,AUTO
PL6.E3A0      #003=ASL$DISP_ONE_FORM File=ASL$DISPLAY_FORM.:E05TSI               TUE 07/29/97 09:59 Page:159
         3 001720   000001 755000 1                  STA     TABS

      898    16716    4            J = 1;

  16716  3 001721   000001 235007                    LDA     1,DL
         3 001722   200054 755100                    STA     J,,AUTO

      899    16717        /**
      900    16718         ** Set device limit information
      901    16719         **/
      902    16720    5            DO I = 0 TO 9;

  16720  3 001723   200053 450100                    STZ     I,,AUTO

      903    16721    6               IF (LO_WIDTH - TABS) < GRAPH_TAB_DEFAULT THEN DO;

  16721  3 001724   000000 236000 xsym               LDQ     LO_WIDTH
         3 001725   000001 136000 1                  SBLQ    TABS
         3 001726   001731 604000 3                  TMI     s:16722
         3 001727   000413 116000 2                  CMPQ    GRAPH_TAB_DEFAULT
         3 001730   001745 603000 3                  TRC     s:16729

      904    16722    6                  CALL X$FORMAT( FDS );

  16722  3 001731   000010 630400 4                  EPPR0   8
         3 001732   000017 631400 xsym               EPPR1   B_VECTNIL+15
         3 001733   000000 701000 xent               TSX1    X$FORMAT
         3 001734   000000 011000                    NOP     0

      905    16723    6                  J = 0;

  16723  3 001735   200054 450100                    STZ     J,,AUTO

      906    16724    6                  FMT_BUF = AS_BLANK;

  16724  3 001736   040000 100400                    MLR     fill='040'O
         3 001737   000000 000001 xsym               ADSC9   AS_BLANK                 cn=0,n=1
PL6.E3A0      #003=ASL$DISP_ONE_FORM File=ASL$DISPLAY_FORM.:E05TSI               TUE 07/29/97 09:59 Page:160
         3 001740   000000 000377 xsym               ADSC9   FMT_BUF                  cn=0,n=255

      907    16725    6                  FDS.FMT_.BOUND = 0;

  16725  3 001741   177777 236007                    LDQ     65535,DL
         3 001742   000000 356000 xsym               ANSQ    FDS

      908    16726    6                  FDS.NVECS# = 0;

  16726  3 001743   000011 450000 xsym               STZ     FDS+9

      909    16727    6                  TABS = 0;

  16727  3 001744   000001 450000 1                  STZ     TABS

      910    16728    6                  END; /*  Not enough room for another option  */

      911    16729    5               SUBSTR (FMT_BUF, FDS.FMT_.BOUND + 1, SIZEC(DEVICE_LIMIT_JCL_FMT)) =
             16729                        DEVICE_LIMIT_JCL_FMT;

  16729  3 001745   000000 236000 xsym               LDQ     FDS
         3 001746   000020 772000                    QRL     16
         3 001747   040006 100400                    MLR     fill='040'O
         3 001750   000155 000014 2                  ADSC9   DEVICE_LIMIT_JCL_FMT     cn=0,n=12
         3 001751   000000 200014 xsym               ADSC9   FMT_BUF,Q                cn=1,n=12

      912    16730    5               FDS.FMT_.BOUND = FDS.FMT_.BOUND + SIZEC (DEVICE_LIMIT_JCL_FMT);

  16730  3 001752   000014 036007                    ADLQ    12,DL
         3 001753   000020 736000                    QLS     16
         3 001754   000000 676000 xsym               ERQ     FDS
         3 001755   000034 376000 xsym               ANQ     B_VECTNIL+28
         3 001756   000000 656000 xsym               ERSQ    FDS

      913    16731    5               TABS = TABS + GRAPH_TAB_DEFAULT;

  16731  3 001757   000001 236000 1                  LDQ     TABS
PL6.E3A0      #003=ASL$DISP_ONE_FORM File=ASL$DISPLAY_FORM.:E05TSI               TUE 07/29/97 09:59 Page:161
         3 001760   000413 036000 2                  ADLQ    GRAPH_TAB_DEFAULT
         3 001761   000001 756000 1                  STQ     TABS

      914    16732    5               FMT_VEC (FDS.NVECS#) = VECTOR ( GRAPH_TAB(J) );

  16732  3 001762   000011 235000 xsym               LDA     FDS+9
         3 001763   000001 735000                    ALS     1
         3 001764   000000 620005                    EAX0    0,AL
         3 001765   777640 235007                    LDA     -96,DL
         3 001766   200126 452500                    STP2    I+1,,AUTO
         3 001767   200054 236100                    LDQ     J,,AUTO
         3 001770   000022 736000                    QLS     18
         3 001771   000031 036003                    ADLQ    25,DU
         3 001772   200126 036100                    ADLQ    I+1,,AUTO
         3 001773   000000 755010 xsym               STA     FMT_VEC,X0
         3 001774   000001 756010 xsym               STQ     FMT_VEC+1,X0

      915    16733    5               J = J + 1;

  16733  3 001775   200054 054100                    AOS     J,,AUTO

      916    16734    5               FMT_VEC (FDS.NVECS#+1) = VECTOR ( DEVICE_LIMIT_STR );

  16734  3 001776   000011 235000 xsym               LDA     FDS+9
         3 001777   000001 735000                    ALS     1
         3 002000   000000 620005                    EAX0    0,AL
         3 002001   000000 621005                    EAX1    0,AL
         3 002002   000102 237000 4                  LDAQ    66
         3 002003   000002 755010 xsym               STA     FMT_VEC+2,X0
         3 002004   000003 756011 xsym               STQ     FMT_VEC+3,X1

      917    16735    5               FMT_VEC (FDS.NVECS#+2) = VECTOR ( NUMBER_STR(I) );

  16735  3 002005   177640 235007                    LDA     65440,DL
         3 002006   200053 236100                    LDQ     I,,AUTO
         3 002007   000020 736000                    QLS     16
         3 002010   000104 036000 4                  ADLQ    68
PL6.E3A0      #003=ASL$DISP_ONE_FORM File=ASL$DISPLAY_FORM.:E05TSI               TUE 07/29/97 09:59 Page:162
         3 002011   000004 755010 xsym               STA     FMT_VEC+4,X0
         3 002012   000005 756010 xsym               STQ     FMT_VEC+5,X0

      918    16736    5               FMT_VEC (FDS.NVECS#+3) = VECTOR ( EQUAL_STR );

  16736  3 002013   000100 237000 4                  LDAQ    64
         3 002014   000006 755010 xsym               STA     FMT_VEC+6,X0
         3 002015   000007 756010 xsym               STQ     FMT_VEC+7,X0

      919    16737    5               BIT18 = FS$GFORMREC.SET_DEV_LIM.UPARAM (I);

  16737  3 002016   200053 235100                    LDA     I,,AUTO
         3 002017   000001 735000                    ALS     1
         3 002020   000000 470400 xsym               LDP0    DSEG1$
         3 002021   000100 100505                    MLR     fill='000'O
         3 002022   000020 000002                    ADSC9   16,A,PR0                 cn=0,n=2
         3 002023   200006 000002                    ADSC9   BIT18,,AUTO              cn=0,n=2

      920    16738    5               CALL SPLIT9X92_18 (UBIN18);

  16738  3 002024   200006 631500                    EPPR1   BIT18,,AUTO
         3 002025   200123 451500                    STP1    WIDTH+2,,AUTO
         3 002026   005415 701000 3                  TSX1    SPLIT9X92_18
         3 002027   000000 011000                    NOP     0

      921    16739    5               DEV_LIM(I) = HOST18;

  16739  3 002030   200053 235100                    LDA     I,,AUTO
         3 002031   000001 735000                    ALS     1
         3 002032   000105 100500                    MLR     fill='000'O
         3 002033   200052 000002                    ADSC9   HOST,,AUTO               cn=0,n=2
         3 002034   200007 000002                    ADSC9   DEV_LIM,A,AUTO           cn=0,n=2

      922    16740    5               FMT_VEC (FDS.NVECS#+4) = VECTOR (DEV_LIM(I));

  16740  3 002035   000011 235000 xsym               LDA     FDS+9
         3 002036   000001 735000                    ALS     1
PL6.E3A0      #003=ASL$DISP_ONE_FORM File=ASL$DISPLAY_FORM.:E05TSI               TUE 07/29/97 09:59 Page:163
         3 002037   000000 620005                    EAX0    0,AL
         3 002040   377640 235007                    LDA     130976,DL
         3 002041   200126 452500                    STP2    I+1,,AUTO
         3 002042   200053 236100                    LDQ     I,,AUTO
         3 002043   000021 736000                    QLS     17
         3 002044   000007 036003                    ADLQ    7,DU
         3 002045   200126 036100                    ADLQ    I+1,,AUTO
         3 002046   000010 755010 xsym               STA     FMT_VEC+8,X0
         3 002047   000011 756010 xsym               STQ     FMT_VEC+9,X0

      923    16741    5               FDS.NVECS# = FDS.NVECS# + 5;

  16741  3 002050   000005 236007                    LDQ     5,DL
         3 002051   000011 056000 xsym               ASQ     FDS+9

      924    16742    5               END; /*  Loop through the device limit parameters  */

  16742  3 002052   200053 054100                    AOS     I,,AUTO
         3 002053   200053 235100                    LDA     I,,AUTO
         3 002054   000011 115007                    CMPA    9,DL
         3 002055   001724 604400 3                  TMOZ    s:16721

      925    16743    4            END;   /*  Not pseudo  */

      926    16744    3         UBIN_ARRAY(0) = FS$GFORMREC.X_SIZE;

  16744  3 002056   000000 470400 xsym               LDP0    DSEG1$
         3 002057   000007 236100                    LDQ     7,,PR0
         3 002060   777777 376007                    ANQ     -1,DL
         3 002061   200111 756100                    STQ     UBIN_ARRAY,,AUTO

      927    16745    3         UBIN_ARRAY(1) = FS$GFORMREC.Y_SIZE;

  16745  3 002062   000010 236100                    LDQ     8,,PR0
         3 002063   000022 772000                    QRL     18
         3 002064   200112 756100                    STQ     UBIN_ARRAY+1,,AUTO

PL6.E3A0      #003=ASL$DISP_ONE_FORM File=ASL$DISPLAY_FORM.:E05TSI               TUE 07/29/97 09:59 Page:164
      928    16746    3         UBIN_ARRAY(2) = FS$GFORMREC.Z_SIZE;

  16746  3 002065   000010 236100                    LDQ     8,,PR0
         3 002066   777777 376007                    ANQ     -1,DL
         3 002067   200113 756100                    STQ     UBIN_ARRAY+2,,AUTO

      929    16747    3         UBIN_ARRAY(3) = FS$GFORMREC.X_OFFSET;

  16747  3 002070   000011 236100                    LDQ     9,,PR0
         3 002071   000022 772000                    QRL     18
         3 002072   200114 756100                    STQ     UBIN_ARRAY+3,,AUTO

      930    16748    3         UBIN_ARRAY(4) = FS$GFORMREC.Y_OFFSET;

  16748  3 002073   000011 236100                    LDQ     9,,PR0
         3 002074   777777 376007                    ANQ     -1,DL
         3 002075   200115 756100                    STQ     UBIN_ARRAY+4,,AUTO

      931    16749    3         UBIN_ARRAY(5) = FS$GFORMREC.Z_OFFSET;

  16749  3 002076   000012 236100                    LDQ     10,,PR0
         3 002077   000022 772000                    QRL     18
         3 002100   200116 756100                    STQ     UBIN_ARRAY+5,,AUTO

      932    16750        /**
      933    16751         ** Set graphic header information
      934    16752         **/
      935    16753    4         DO I = 0 TO 5;

  16753  3 002101   200053 450100                    STZ     I,,AUTO

      936    16754    5            IF (LO_WIDTH - TABS) < GRAPH_TAB_DEFAULT THEN DO;

  16754  3 002102   000000 236000 xsym               LDQ     LO_WIDTH
         3 002103   000001 136000 1                  SBLQ    TABS
         3 002104   002107 604000 3                  TMI     s:16755
         3 002105   000413 116000 2                  CMPQ    GRAPH_TAB_DEFAULT
PL6.E3A0      #003=ASL$DISP_ONE_FORM File=ASL$DISPLAY_FORM.:E05TSI               TUE 07/29/97 09:59 Page:165
         3 002106   002123 603000 3                  TRC     s:16762

      937    16755    5               CALL X$FORMAT( FDS );

  16755  3 002107   000010 630400 4                  EPPR0   8
         3 002110   000017 631400 xsym               EPPR1   B_VECTNIL+15
         3 002111   000000 701000 xent               TSX1    X$FORMAT
         3 002112   000000 011000                    NOP     0

      938    16756    5               J = 0;

  16756  3 002113   200054 450100                    STZ     J,,AUTO

      939    16757    5               FMT_BUF = AS_BLANK;

  16757  3 002114   040000 100400                    MLR     fill='040'O
         3 002115   000000 000001 xsym               ADSC9   AS_BLANK                 cn=0,n=1
         3 002116   000000 000377 xsym               ADSC9   FMT_BUF                  cn=0,n=255

      940    16758    5               FDS.FMT_.BOUND = 0;

  16758  3 002117   177777 236007                    LDQ     65535,DL
         3 002120   000000 356000 xsym               ANSQ    FDS

      941    16759    5               FDS.NVECS# = 0;

  16759  3 002121   000011 450000 xsym               STZ     FDS+9

      942    16760    5               TABS = 0;

  16760  3 002122   000001 450000 1                  STZ     TABS

      943    16761    5               END;  /*  Not enough room for another option  */

      944    16762    4            SUBSTR (FMT_BUF, FDS.FMT_.BOUND + 1, SIZEC(GRAPH_HDR_JCL_FMT)) =
             16762                     GRAPH_HDR_JCL_FMT;

PL6.E3A0      #003=ASL$DISP_ONE_FORM File=ASL$DISPLAY_FORM.:E05TSI               TUE 07/29/97 09:59 Page:166
  16762  3 002123   000000 236000 xsym               LDQ     FDS
         3 002124   000020 772000                    QRL     16
         3 002125   040006 100400                    MLR     fill='040'O
         3 002126   000375 000013 2                  ADSC9   GRAPH_HDR_JCL_FMT        cn=0,n=11
         3 002127   000000 200013 xsym               ADSC9   FMT_BUF,Q                cn=1,n=11

      945    16763    4            FDS.FMT_.BOUND = FDS.FMT_.BOUND + SIZEC (GRAPH_HDR_JCL_FMT);

  16763  3 002130   000013 036007                    ADLQ    11,DL
         3 002131   000020 736000                    QLS     16
         3 002132   000000 676000 xsym               ERQ     FDS
         3 002133   000034 376000 xsym               ANQ     B_VECTNIL+28
         3 002134   000000 656000 xsym               ERSQ    FDS

      946    16764    4            TABS = TABS + GRAPH_TAB_DEFAULT;

  16764  3 002135   000001 236000 1                  LDQ     TABS
         3 002136   000413 036000 2                  ADLQ    GRAPH_TAB_DEFAULT
         3 002137   000001 756000 1                  STQ     TABS

      947    16765    4            FMT_VEC (FDS.NVECS#) = VECTOR ( GRAPH_TAB(J) );

  16765  3 002140   000011 235000 xsym               LDA     FDS+9
         3 002141   000001 735000                    ALS     1
         3 002142   000000 620005                    EAX0    0,AL
         3 002143   777640 235007                    LDA     -96,DL
         3 002144   200126 452500                    STP2    I+1,,AUTO
         3 002145   200054 236100                    LDQ     J,,AUTO
         3 002146   000022 736000                    QLS     18
         3 002147   000031 036003                    ADLQ    25,DU
         3 002150   200126 036100                    ADLQ    I+1,,AUTO
         3 002151   000000 755010 xsym               STA     FMT_VEC,X0
         3 002152   000001 756010 xsym               STQ     FMT_VEC+1,X0

      948    16766    4            J = J + 1;

  16766  3 002153   200054 054100                    AOS     J,,AUTO
PL6.E3A0      #003=ASL$DISP_ONE_FORM File=ASL$DISPLAY_FORM.:E05TSI               TUE 07/29/97 09:59 Page:167

      949    16767    4            FMT_VEC (FDS.NVECS#+1) = VECTOR ( GRAPH_HDR_STR(I) );

  16767  3 002154   000011 235000 xsym               LDA     FDS+9
         3 002155   000001 735000                    ALS     1
         3 002156   000000 620005                    EAX0    0,AL
         3 002157   000076 235000 4                  LDA     62
         3 002160   200053 236100                    LDQ     I,,AUTO
         3 002161   200126 755100                    STA     I+1,,AUTO
         3 002162   000106 402000 4                  MPY     70
         3 002163   000105 036000 4                  ADLQ    69
         3 002164   200126 235100                    LDA     I+1,,AUTO
         3 002165   000002 755010 xsym               STA     FMT_VEC+2,X0
         3 002166   000003 756010 xsym               STQ     FMT_VEC+3,X0

      950    16768    4            FMT_VEC (FDS.NVECS#+2) = VECTOR ( EQUAL_STR );

  16768  3 002167   000100 237000 4                  LDAQ    64
         3 002170   000004 755010 xsym               STA     FMT_VEC+4,X0
         3 002171   000005 756010 xsym               STQ     FMT_VEC+5,X0

      951    16769    4            FMT_VEC (FDS.NVECS#+3) = VECTOR ( UBIN_ARRAY(I) );

  16769  3 002172   777640 235007                    LDA     -96,DL
         3 002173   200126 452500                    STP2    I+1,,AUTO
         3 002174   200053 236100                    LDQ     I,,AUTO
         3 002175   000022 736000                    QLS     18
         3 002176   000111 036003                    ADLQ    73,DU
         3 002177   200126 036100                    ADLQ    I+1,,AUTO
         3 002200   000006 755010 xsym               STA     FMT_VEC+6,X0
         3 002201   000007 756010 xsym               STQ     FMT_VEC+7,X0

      952    16770    4            FDS.NVECS# = FDS.NVECS# + 4;

  16770  3 002202   000004 236007                    LDQ     4,DL
         3 002203   000011 056000 xsym               ASQ     FDS+9

PL6.E3A0      #003=ASL$DISP_ONE_FORM File=ASL$DISPLAY_FORM.:E05TSI               TUE 07/29/97 09:59 Page:168
      953    16771    4            END;    /*  Loop through the graphic header parameters  */

  16771  3 002204   200053 054100                    AOS     I,,AUTO
         3 002205   200053 235100                    LDA     I,,AUTO
         3 002206   000005 115007                    CMPA    5,DL
         3 002207   002102 604400 3                  TMOZ    s:16754

      954    16772    3         CALL X$FORMAT (FDS);

  16772  3 002210   000010 630400 4                  EPPR0   8
         3 002211   000017 631400 xsym               EPPR1   B_VECTNIL+15
         3 002212   000000 701000 xent               TSX1    X$FORMAT
         3 002213   000000 011000                    NOP     0

      955    16773    3         END;   /*  If graphic  */

  16773  3 002214   002504 710000 3                  TRA     s:16848

      956    16774    3      ELSE DO;   /*  Std form not graphic  */

      957    16775                                 /* Setup the non graphics tabs  */
      958    16776    3         NON_GRAPH_TAB(0) = 3;

  16776  3 002215   000003 235007                    LDA     3,DL
         3 002216   200055 755100                    STA     NON_GRAPH_TAB,,AUTO

      959    16777    4         DO I = 1 TO 16;

  16777  3 002217   000001 235007                    LDA     1,DL
         3 002220   200053 755100                    STA     I,,AUTO

      960    16778    4            NON_GRAPH_TAB(I) = NON_GRAPH_TAB(I-1) + TAB_DEFAULT;

  16778  3 002221   200053 720100                    LXL0    I,,AUTO
         3 002222   200054 236110                    LDQ     J,X0,AUTO
         3 002223   000522 036000 2                  ADLQ    TAB_DEFAULT
         3 002224   200055 756110                    STQ     NON_GRAPH_TAB,X0,AUTO
PL6.E3A0      #003=ASL$DISP_ONE_FORM File=ASL$DISPLAY_FORM.:E05TSI               TUE 07/29/97 09:59 Page:169

      961    16779    4            END; /*  Non graph tab loop  */

  16779  3 002225   200053 054100                    AOS     I,,AUTO
         3 002226   200053 235100                    LDA     I,,AUTO
         3 002227   000020 115007                    CMPA    16,DL
         3 002230   002221 604400 3                  TMOZ    s:16778

      962    16780
      963    16781    3         FMT_BUF = AS_BLANK;

  16781  3 002231   040000 100400                    MLR     fill='040'O
         3 002232   000000 000001 xsym               ADSC9   AS_BLANK                 cn=0,n=1
         3 002233   000000 000377 xsym               ADSC9   FMT_BUF                  cn=0,n=255

      964    16782    3         FDS.FMT_.BOUND = 0;

  16782  3 002234   177777 236007                    LDQ     65535,DL
         3 002235   000000 356000 xsym               ANSQ    FDS

      965    16783    3         FDS.NVECS# = 0;

  16783  3 002236   000011 450000 xsym               STZ     FDS+9

      966    16784    3         TABS = 0;

  16784  3 002237   000001 450000 1                  STZ     TABS

      967    16785    3         J = 0;

  16785  3 002240   200054 450100                    STZ     J,,AUTO

      968    16786    4         IF NOT PSEUDO THEN DO;

  16786  3 002241   200103 234100                    SZN     PSEUDO,,AUTO
         3 002242   002301 604000 3                  TMI     s:16797

PL6.E3A0      #003=ASL$DISP_ONE_FORM File=ASL$DISPLAY_FORM.:E05TSI               TUE 07/29/97 09:59 Page:170
      969    16787    4            FMT_BUF = CHARSET_JCL_FMT;

  16787  3 002243   040000 100400                    MLR     fill='040'O
         3 002244   000146 000013 2                  ADSC9   CHARSET_JCL_FMT          cn=0,n=11
         3 002245   000000 000377 xsym               ADSC9   FMT_BUF                  cn=0,n=255

      970    16788    4            FDS.FMT_.BOUND = SIZEC (CHARSET_JCL_FMT);

  16788  3 002246   000000 236000 xsym               LDQ     FDS
         3 002247   177777 376007                    ANQ     65535,DL
         3 002250   000046 276000 4                  ORQ     38
         3 002251   000000 756000 xsym               STQ     FDS

      971    16789    4            FDS.NVECS# = 4;

  16789  3 002252   000004 235007                    LDA     4,DL
         3 002253   000011 755000 xsym               STA     FDS+9

      972    16790    4            FMT_VEC(0) = VECTOR ( NON_GRAPH_TAB(0) );

  16790  3 002254   777640 235007                    LDA     -96,DL
         3 002255   200126 452500                    STP2    I+1,,AUTO
         3 002256   200126 236100                    LDQ     I+1,,AUTO
         3 002257   000055 036003                    ADLQ    45,DU
         3 002260   000000 755000 xsym               STA     FMT_VEC
         3 002261   000001 756000 xsym               STQ     FMT_VEC+1

      973    16791    4            FMT_VEC(1) = VECTOR ( CHARSET_STR );

  16791  3 002262   000076 237000 4                  LDAQ    62
         3 002263   000002 755000 xsym               STA     FMT_VEC+2
         3 002264   000003 756000 xsym               STQ     FMT_VEC+3

      974    16792    4            FMT_VEC(2) = VECTOR ( EQUAL_STR );

  16792  3 002265   000100 237000 4                  LDAQ    64
         3 002266   000004 755000 xsym               STA     FMT_VEC+4
PL6.E3A0      #003=ASL$DISP_ONE_FORM File=ASL$DISPLAY_FORM.:E05TSI               TUE 07/29/97 09:59 Page:171
         3 002267   000005 756000 xsym               STQ     FMT_VEC+5

      975    16793    4            FMT_VEC(3) = VECTOR ( FS$FORMREC.CHAIN_NAME );

  16793  3 002270   000027 235000 4                  LDA     23
         3 002271   000000 236000 xsym               LDQ     DSEG1$
         3 002272   000042 036000 4                  ADLQ    34
         3 002273   000006 755000 xsym               STA     FMT_VEC+6
         3 002274   000007 756000 xsym               STQ     FMT_VEC+7

      976    16794    4            TABS = NON_GRAPH_TAB(1);

  16794  3 002275   200056 235100                    LDA     NON_GRAPH_TAB+1,,AUTO
         3 002276   000001 755000 1                  STA     TABS

      977    16795    4            J = 1;

  16795  3 002277   000001 235007                    LDA     1,DL
         3 002300   200054 755100                    STA     J,,AUTO

      978    16796    4            END;   /*  Not pseudo  */

      979    16797    3         UBIN_ARRAY(0) = FS$FORMREC.SOFTFORM.VLPPLATEN.FIRSTLINE;

  16797  3 002301   000000 470400 xsym               LDP0    DSEG1$
         3 002302   000006 236100                    LDQ     6,,PR0
         3 002303   000777 376007                    ANQ     511,DL
         3 002304   200111 756100                    STQ     UBIN_ARRAY,,AUTO

      980    16798    3         UBIN_ARRAY(1) = FS$FORMREC.SOFTFORM.VLPPLATEN.LENGTH;

  16798  3 002305   000006 236100                    LDQ     6,,PR0
         3 002306   000022 772000                    QRL     18
         3 002307   000777 376007                    ANQ     511,DL
         3 002310   200112 756100                    STQ     UBIN_ARRAY+1,,AUTO

      981    16799    3         UBIN_ARRAY(2) = FS$FORMREC.SOFTFORM.VLPPLATEN.LIMBO;
PL6.E3A0      #003=ASL$DISP_ONE_FORM File=ASL$DISPLAY_FORM.:E05TSI               TUE 07/29/97 09:59 Page:172

  16799  3 002311   000006 236100                    LDQ     6,,PR0
         3 002312   000011 772000                    QRL     9
         3 002313   000777 376007                    ANQ     511,DL
         3 002314   200113 756100                    STQ     UBIN_ARRAY+2,,AUTO

      982    16800    3         UBIN_ARRAY(3) = FS$FORMREC.SOFTFORM.VLPPLATEN.LPI;

  16800  3 002315   000007 236100                    LDQ     7,,PR0
         3 002316   000022 772000                    QRL     18
         3 002317   000777 376007                    ANQ     511,DL
         3 002320   200114 756100                    STQ     UBIN_ARRAY+3,,AUTO

      983    16801    3         UBIN_ARRAY(4) = FS$FORMREC.SOFTFORM.VLPPLATEN.WIDTH;

  16801  3 002321   000006 236100                    LDQ     6,,PR0
         3 002322   000033 772000                    QRL     27
         3 002323   200115 756100                    STQ     UBIN_ARRAY+4,,AUTO

      984    16802    3         IF FS$FORMREC.SOFTFORM.VLPPLATEN.EXTWID THEN

  16802  3 002324   000007 430100                    FSZN    7,,PR0
         3 002325   002330 605000 3                  TPL     s:16807

      985    16803    3            UBIN_ARRAY(4) = UBIN_ARRAY(4) + 254;

  16803  3 002326   000376 036007                    ADLQ    254,DL
         3 002327   200115 756100                    STQ     UBIN_ARRAY+4,,AUTO

      986    16804        /**
      987    16805         ** Set header information
      988    16806         **/
      989    16807    4         DO I = 0 TO 5;

  16807  3 002330   200053 450100                    STZ     I,,AUTO

      990    16808    5            IF (LO_WIDTH - TABS) < TAB_DEFAULT THEN DO;
PL6.E3A0      #003=ASL$DISP_ONE_FORM File=ASL$DISPLAY_FORM.:E05TSI               TUE 07/29/97 09:59 Page:173

  16808  3 002331   000000 236000 xsym               LDQ     LO_WIDTH
         3 002332   000001 136000 1                  SBLQ    TABS
         3 002333   002336 604000 3                  TMI     s:16809
         3 002334   000522 116000 2                  CMPQ    TAB_DEFAULT
         3 002335   002352 603000 3                  TRC     s:16816

      991    16809    5               CALL X$FORMAT( FDS );

  16809  3 002336   000010 630400 4                  EPPR0   8
         3 002337   000017 631400 xsym               EPPR1   B_VECTNIL+15
         3 002340   000000 701000 xent               TSX1    X$FORMAT
         3 002341   000000 011000                    NOP     0

      992    16810    5               J = 0;

  16810  3 002342   200054 450100                    STZ     J,,AUTO

      993    16811    5               FMT_BUF = AS_BLANK;

  16811  3 002343   040000 100400                    MLR     fill='040'O
         3 002344   000000 000001 xsym               ADSC9   AS_BLANK                 cn=0,n=1
         3 002345   000000 000377 xsym               ADSC9   FMT_BUF                  cn=0,n=255

      994    16812    5               FDS.FMT_.BOUND = 0;

  16812  3 002346   177777 236007                    LDQ     65535,DL
         3 002347   000000 356000 xsym               ANSQ    FDS

      995    16813    5               FDS.NVECS# = 0;

  16813  3 002350   000011 450000 xsym               STZ     FDS+9

      996    16814    5               TABS = 0;

  16814  3 002351   000001 450000 1                  STZ     TABS

PL6.E3A0      #003=ASL$DISP_ONE_FORM File=ASL$DISPLAY_FORM.:E05TSI               TUE 07/29/97 09:59 Page:174
      997    16815    5               END;  /*  Not enough room for another option  */

      998    16816    5            IF (NOT PSEUDO) OR (PSEUDO AND I ~= 3) THEN DO;

  16816  3 002352   200103 234100                    SZN     PSEUDO,,AUTO
         3 002353   002360 605000 3                  TPL     s:16818
         3 002354   002474 605000 3                  TPL     s:16841
         3 002355   200053 235100                    LDA     I,,AUTO
         3 002356   000003 115007                    CMPA    3,DL
         3 002357   002474 600000 3                  TZE     s:16841

      999    16817                     /*  Skip lpi if this is a pseudo form  */
     1000    16818    6               IF I > 4 THEN DO;

  16818  3 002360   200053 235100                    LDA     I,,AUTO
         3 002361   000004 115007                    CMPA    4,DL
         3 002362   002376 604400 3                  TMOZ    s:16823

     1001    16819    6                  SUBSTR (FMT_BUF, FDS.FMT_.BOUND + 1, SIZEC(HDR_JCL_FMT2)) =
             16819                           HDR_JCL_FMT2;

  16819  3 002363   000000 236000 xsym               LDQ     FDS
         3 002364   000020 772000                    QRL     16
         3 002365   040006 100400                    MLR     fill='040'O
         3 002366   000417 000013 2                  ADSC9   HDR_JCL_FMT2             cn=0,n=11
         3 002367   000000 200013 xsym               ADSC9   FMT_BUF,Q                cn=1,n=11

     1002    16820    6                  FDS.FMT_.BOUND = FDS.FMT_.BOUND + SIZEC (HDR_JCL_FMT2);

  16820  3 002370   000013 036007                    ADLQ    11,DL
         3 002371   000020 736000                    QLS     16
         3 002372   000000 676000 xsym               ERQ     FDS
         3 002373   000034 376000 xsym               ANQ     B_VECTNIL+28
         3 002374   000000 656000 xsym               ERSQ    FDS

     1003    16821    6                  END;

PL6.E3A0      #003=ASL$DISP_ONE_FORM File=ASL$DISPLAY_FORM.:E05TSI               TUE 07/29/97 09:59 Page:175
  16821  3 002375   002410 710000 3                  TRA     s:16826

     1004    16822    6               ELSE DO;

     1005    16823    6                  SUBSTR (FMT_BUF, FDS.FMT_.BOUND + 1, SIZEC(HDR_JCL_FMT)) =
             16823                           HDR_JCL_FMT;

  16823  3 002376   000000 236000 xsym               LDQ     FDS
         3 002377   000020 772000                    QRL     16
         3 002400   040006 100400                    MLR     fill='040'O
         3 002401   000414 000013 2                  ADSC9   HDR_JCL_FMT              cn=0,n=11
         3 002402   000000 200013 xsym               ADSC9   FMT_BUF,Q                cn=1,n=11

     1006    16824    6                  FDS.FMT_.BOUND = FDS.FMT_.BOUND + SIZEC (HDR_JCL_FMT);

  16824  3 002403   000013 036007                    ADLQ    11,DL
         3 002404   000020 736000                    QLS     16
         3 002405   000000 676000 xsym               ERQ     FDS
         3 002406   000034 376000 xsym               ANQ     B_VECTNIL+28
         3 002407   000000 656000 xsym               ERSQ    FDS

     1007    16825    6                  END;

     1008    16826    5               FMT_VEC (FDS.NVECS#) = VECTOR (NON_GRAPH_TAB(J) );

  16826  3 002410   000011 236000 xsym               LDQ     FDS+9
         3 002411   000001 736000                    QLS     1
         3 002412   777640 235007                    LDA     -96,DL
         3 002413   200126 452500                    STP2    I+1,,AUTO
         3 002414   000000 620006                    EAX0    0,QL
         3 002415   200054 236100                    LDQ     J,,AUTO
         3 002416   000022 736000                    QLS     18
         3 002417   000055 036003                    ADLQ    45,DU
         3 002420   200126 036100                    ADLQ    I+1,,AUTO
         3 002421   000000 755010 xsym               STA     FMT_VEC,X0
         3 002422   000001 756010 xsym               STQ     FMT_VEC+1,X0

PL6.E3A0      #003=ASL$DISP_ONE_FORM File=ASL$DISPLAY_FORM.:E05TSI               TUE 07/29/97 09:59 Page:176
     1009    16827    5               FMT_VEC (FDS.NVECS#+1) = VECTOR ( HDR_STR(I) );

  16827  3 002423   000107 235000 4                  LDA     71
         3 002424   200053 236100                    LDQ     I,,AUTO
         3 002425   200126 755100                    STA     I+1,,AUTO
         3 002426   000111 402000 4                  MPY     73
         3 002427   000110 036000 4                  ADLQ    72
         3 002430   200126 235100                    LDA     I+1,,AUTO
         3 002431   000002 755010 xsym               STA     FMT_VEC+2,X0
         3 002432   000003 756010 xsym               STQ     FMT_VEC+3,X0

     1010    16828    5               FMT_VEC (FDS.NVECS#+2) = VECTOR ( EQUAL_STR );

  16828  3 002433   000100 237000 4                  LDAQ    64
         3 002434   000004 755010 xsym               STA     FMT_VEC+4,X0
         3 002435   000005 756010 xsym               STQ     FMT_VEC+5,X0

     1011    16829    6               IF I > 4 THEN DO;

  16829  3 002436   200053 235100                    LDA     I,,AUTO
         3 002437   000004 115007                    CMPA    4,DL
         3 002440   002456 604400 3                  TMOZ    s:16836

     1012    16830    6                  IF ((FS$FORMREC.ATTR & %ATTR_TRANSLGL#) = %ATTR_TRANSLGL#) THEN

  16830  3 002441   000000 470400 xsym               LDP0    DSEG1$
         3 002442   000005 221100                    LDX1    5,,PR0
         3 002443   000200 361003                    ANX1    128,DU
         3 002444   000200 101003                    CMPX1   128,DU
         3 002445   002452 601000 3                  TNZ     s:16833

     1013    16831    6                     FMT_VEC(FDS.NVECS#+3) = VECTOR (YES_STR);

  16831  3 002446   000022 237000 4                  LDAQ    18
         3 002447   000006 755010 xsym               STA     FMT_VEC+6,X0
         3 002450   000007 756010 xsym               STQ     FMT_VEC+7,X0
         3 002451   002466 710000 3                  TRA     s:16837
PL6.E3A0      #003=ASL$DISP_ONE_FORM File=ASL$DISPLAY_FORM.:E05TSI               TUE 07/29/97 09:59 Page:177

     1014    16832    6                  ELSE
     1015    16833    6                     FMT_VEC(FDS.NVECS#+3) = VECTOR (NO_STR);

  16833  3 002452   000024 237000 4                  LDAQ    20
         3 002453   000006 755010 xsym               STA     FMT_VEC+6,X0
         3 002454   000007 756010 xsym               STQ     FMT_VEC+7,X0

     1016    16834    6                  END;

  16834  3 002455   002466 710000 3                  TRA     s:16837

     1017    16835    5               ELSE
     1018    16836    5                  FMT_VEC (FDS.NVECS#+3) = VECTOR ( UBIN_ARRAY(I) );

  16836  3 002456   777640 235007                    LDA     -96,DL
         3 002457   200126 452500                    STP2    I+1,,AUTO
         3 002460   200053 236100                    LDQ     I,,AUTO
         3 002461   000022 736000                    QLS     18
         3 002462   000111 036003                    ADLQ    73,DU
         3 002463   200126 036100                    ADLQ    I+1,,AUTO
         3 002464   000006 755010 xsym               STA     FMT_VEC+6,X0
         3 002465   000007 756010 xsym               STQ     FMT_VEC+7,X0

     1019    16837    5               FDS.NVECS# = FDS.NVECS# + 4;

  16837  3 002466   000004 236007                    LDQ     4,DL
         3 002467   000011 056000 xsym               ASQ     FDS+9

     1020    16838    5               TABS = TABS + TAB_DEFAULT;

  16838  3 002470   000001 236000 1                  LDQ     TABS
         3 002471   000522 036000 2                  ADLQ    TAB_DEFAULT
         3 002472   000001 756000 1                  STQ     TABS

     1021    16839    5               J = J + 1;

PL6.E3A0      #003=ASL$DISP_ONE_FORM File=ASL$DISPLAY_FORM.:E05TSI               TUE 07/29/97 09:59 Page:178
  16839  3 002473   200054 054100                    AOS     J,,AUTO

     1022    16840    5               END;    /* Skip lpi if pseudo  */

     1023    16841    4            END;    /*  Loop through the header parameters  */

  16841  3 002474   200053 054100                    AOS     I,,AUTO
         3 002475   200053 235100                    LDA     I,,AUTO
         3 002476   000005 115007                    CMPA    5,DL
         3 002477   002331 604400 3                  TMOZ    s:16808

     1024    16842    3         CALL X$FORMAT (FDS);

  16842  3 002500   000010 630400 4                  EPPR0   8
         3 002501   000017 631400 xsym               EPPR1   B_VECTNIL+15
         3 002502   000000 701000 xent               TSX1    X$FORMAT
         3 002503   000000 011000                    NOP     0

     1025    16843    3         END;   /*  Std form not graphic  */

     1026    16844
     1027    16845        /**
     1028    16846         ** Put out vfu images
     1029    16847         **/
     1030    16848    2      IF FORMFLAG.VFU

  16848  3 002504   200004 470500                    LDP0    @FORM_FLAG,,AUTO
         3 002505   000000 066500                    CMPB    filb='0'B
         3 002506   000000 040001                    BDSC    0,,PR0                   by=0,bit=4,n=1
         3 002507   000002 000022 xsym               BDSC    B_VECTNIL+2              by=0,bit=0,n=18
         3 002510   002665 600000 3                  TZE     s:16890

     1031    16849    3      THEN DO;

     1032    16850    3         IF NOT GRAPHIC

  16850  3 002511   200030 234100                    SZN     GRAPHIC,,AUTO
PL6.E3A0      #003=ASL$DISP_ONE_FORM File=ASL$DISPLAY_FORM.:E05TSI               TUE 07/29/97 09:59 Page:179
         3 002512   002665 604000 3                  TMI     s:16890

     1033    16851    4         THEN DO;

     1034    16852    4            VFU_HDR_OUT = %NO#;

  16852  3 002513   200120 450100                    STZ     VFU_HDR_OUT,,AUTO

     1035    16853    5            DO I=1 TO 15;

  16853  3 002514   000001 235007                    LDA     1,DL
         3 002515   200053 755100                    STA     I,,AUTO

     1036    16854    5               IF FS$FORMREC.SOFTFORM.VFUIM.V.LINE(I)~=0

  16854  3 002516   000000 470400 xsym               LDP0    DSEG1$
         3 002517   200053 235100                    LDA     I,,AUTO
         3 002520   000100 101505                    MRL     fill='000'O
         3 002521   000012 400001                    ADSC9   10,A,PR0                 cn=2,n=1
         3 002522   200126 000004                    ADSC9   I+1,,AUTO                cn=0,n=4
         3 002523   200126 236100                    LDQ     I+1,,AUTO
         3 002524   000000 116003                    CMPQ    0,DU
         3 002525   002642 600000 3                  TZE     s:16877

     1037    16855    6               THEN DO;

     1038    16856    6                  IF ~VFU_HDR_OUT

  16856  3 002526   200120 236100                    LDQ     VFU_HDR_OUT,,AUTO
         3 002527   400000 376003                    ANQ     -131072,DU
         3 002530   400000 676003                    ERQ     -131072,DU
         3 002531   002555 600000 3                  TZE     s:16864

     1039    16857    7                  THEN DO;

     1040    16858    7                     CALL ASB$WRITE_LO(VFUIM_STR,SIZEC(VFUIM_STR));

PL6.E3A0      #003=ASL$DISP_ONE_FORM File=ASL$DISPLAY_FORM.:E05TSI               TUE 07/29/97 09:59 Page:180
  16858  3 002532   000112 630400 4                  EPPR0   74
         3 002533   000020 631400 xsym               EPPR1   B_VECTNIL+16
         3 002534   000000 701000 xent               TSX1    ASB$WRITE_LO
         3 002535   000000 011000                    NOP     0

     1041    16859    7                     VFU_HDR_OUT = %YES#;

  16859  3 002536   400000 236003                    LDQ     -131072,DU
         3 002537   200120 756100                    STQ     VFU_HDR_OUT,,AUTO

     1042    16860    7                     FMT_BUF = VFU_FMT;

  16860  3 002540   040000 100400                    MLR     fill='040'O
         3 002541   000533 000026 2                  ADSC9   VFU_FMT                  cn=0,n=22
         3 002542   000000 000377 xsym               ADSC9   FMT_BUF                  cn=0,n=255

     1043    16861    7                     FDS.FMT_.BOUND = SIZEC(VFU_FMT)-1;

  16861  3 002543   000000 236000 xsym               LDQ     FDS
         3 002544   177777 376007                    ANQ     65535,DL
         3 002545   000052 276000 4                  ORQ     42
         3 002546   000000 756000 xsym               STQ     FDS

     1044    16862    7                     FMT_VEC(2) = VECTOR(REPEATS);

  16862  3 002547   777640 235007                    LDA     -96,DL
         3 002550   200126 452500                    STP2    I+1,,AUTO
         3 002551   200126 236100                    LDQ     I+1,,AUTO
         3 002552   000106 036003                    ADLQ    70,DU
         3 002553   000004 755000 xsym               STA     FMT_VEC+4
         3 002554   000005 756000 xsym               STQ     FMT_VEC+5

     1045    16863    7                     END; /*  Header not output  */

     1046    16864    6                  FMT_VEC(0) = VECTOR(I);

  16864  3 002555   777640 235007                    LDA     -96,DL
PL6.E3A0      #003=ASL$DISP_ONE_FORM File=ASL$DISPLAY_FORM.:E05TSI               TUE 07/29/97 09:59 Page:181
         3 002556   200126 452500                    STP2    I+1,,AUTO
         3 002557   200126 236100                    LDQ     I+1,,AUTO
         3 002560   000053 036003                    ADLQ    43,DU
         3 002561   000000 755000 xsym               STA     FMT_VEC
         3 002562   000001 756000 xsym               STQ     FMT_VEC+1

     1047    16865    6                  FMT_VEC(1) = VECTOR(FS$FORMREC.SOFTFORM.VFUIM.V.LINE(I));

  16865  3 002563   177640 235007                    LDA     65440,DL
         3 002564   200053 236100                    LDQ     I,,AUTO
         3 002565   000020 736000                    QLS     16
         3 002566   000053 036000 4                  ADLQ    43
         3 002567   000000 036000 xsym               ADLQ    DSEG1$
         3 002570   000002 755000 xsym               STA     FMT_VEC+2
         3 002571   000003 756000 xsym               STQ     FMT_VEC+3

     1048    16866    6                  REPEATS = 0;

  16866  3 002572   200106 450100                    STZ     REPEATS,,AUTO

     1049    16867    6                  FDS.NVECS# = 3;

  16867  3 002573   000003 235007                    LDA     3,DL
         3 002574   000011 755000 xsym               STA     FDS+9

     1050    16868    6                  J = I;

  16868  3 002575   200053 235100                    LDA     I,,AUTO
         3 002576   200054 755100                    STA     J,,AUTO

     1051    16869    7                  DO WHILE(FS$FORMREC.SOFTFORM.VFUIM.V.NEXT(J)~=0);

  16869  3 002577   000000 470400 xsym               LDP0    DSEG1$
         3 002600   000100 101505                    MRL     fill='000'O
         3 002601   000022 400001                    ADSC9   18,A,PR0                 cn=2,n=1
         3 002602   200126 000004                    ADSC9   I+1,,AUTO                cn=0,n=4
         3 002603   200126 236100                    LDQ     I+1,,AUTO
PL6.E3A0      #003=ASL$DISP_ONE_FORM File=ASL$DISPLAY_FORM.:E05TSI               TUE 07/29/97 09:59 Page:182
         3 002604   000000 116003                    CMPQ    0,DU
         3 002605   002636 600000 3                  TZE     s:16875

     1052    16870    7                     J = FS$FORMREC.SOFTFORM.VFUIM.V.NEXT(J);

  16870  3 002606   000000 470400 xsym               LDP0    DSEG1$
         3 002607   200054 235100                    LDA     J,,AUTO
         3 002610   000100 101505                    MRL     fill='000'O
         3 002611   000022 400001                    ADSC9   18,A,PR0                 cn=2,n=1
         3 002612   200054 000004                    ADSC9   J,,AUTO                  cn=0,n=4

     1053    16871    7                    FMT_VEC(FDS.NVECS#) = VECTOR(FS$FORMREC.SOFTFORM.VFUIM.V.LINE(J));

  16871  3 002613   000011 235000 xsym               LDA     FDS+9
         3 002614   000001 735000                    ALS     1
         3 002615   000000 620005                    EAX0    0,AL
         3 002616   177640 235007                    LDA     65440,DL
         3 002617   200054 236100                    LDQ     J,,AUTO
         3 002620   000020 736000                    QLS     16
         3 002621   000053 036000 4                  ADLQ    43
         3 002622   000000 036000 xsym               ADLQ    DSEG1$
         3 002623   000000 755010 xsym               STA     FMT_VEC,X0
         3 002624   000001 756010 xsym               STQ     FMT_VEC+1,X0

     1054    16872    7                     FDS.NVECS# = FDS.NVECS# + 1;

  16872  3 002625   000011 054000 xsym               AOS     FDS+9

     1055    16873    7                     REPEATS = REPEATS + 1;

  16873  3 002626   200106 054100                    AOS     REPEATS,,AUTO

     1056    16874    7                     END; /*  Do while next ~ 0  */

  16874  3 002627   200054 235100                    LDA     J,,AUTO
         3 002630   000100 101505                    MRL     fill='000'O
         3 002631   000022 400001                    ADSC9   18,A,PR0                 cn=2,n=1
PL6.E3A0      #003=ASL$DISP_ONE_FORM File=ASL$DISPLAY_FORM.:E05TSI               TUE 07/29/97 09:59 Page:183
         3 002632   200126 000004                    ADSC9   I+1,,AUTO                cn=0,n=4
         3 002633   200126 236100                    LDQ     I+1,,AUTO
         3 002634   000000 116003                    CMPQ    0,DU
         3 002635   002606 601000 3                  TNZ     s:16870

     1057    16875    6                  CALL X$FORMAT(FDS);

  16875  3 002636   000010 630400 4                  EPPR0   8
         3 002637   000017 631400 xsym               EPPR1   B_VECTNIL+15
         3 002640   000000 701000 xent               TSX1    X$FORMAT
         3 002641   000000 011000                    NOP     0

     1058    16876    6                  END; /*  Line ~ 0  */

     1059    16877    5               END; /*  Loop 1 to 15  */

  16877  3 002642   200053 054100                    AOS     I,,AUTO
         3 002643   200053 235100                    LDA     I,,AUTO
         3 002644   000017 115007                    CMPA    15,DL
         3 002645   002516 604400 3                  TMOZ    s:16854

     1060    16878    4            IF VFU_HDR_OUT THEN

  16878  3 002646   200120 234100                    SZN     VFU_HDR_OUT,,AUTO
         3 002647   002655 605000 3                  TPL     s:16881

     1061    16879    4               CALL ASB$WRITE_LO(' ',1);

  16879  3 002650   000001 630400 4                  EPPR0   1
         3 002651   000020 631400 xsym               EPPR1   B_VECTNIL+16
         3 002652   000000 701000 xent               TSX1    ASB$WRITE_LO
         3 002653   000000 011000                    NOP     0
         3 002654   002665 710000 3                  TRA     s:16890

     1062    16880    5            ELSE DO;

     1063    16881    5               CALL ASB$WRITE_LO(VFUIM_STR,SIZEC(VFUIM_STR));
PL6.E3A0      #003=ASL$DISP_ONE_FORM File=ASL$DISPLAY_FORM.:E05TSI               TUE 07/29/97 09:59 Page:184

  16881  3 002655   000112 630400 4                  EPPR0   74
         3 002656   000020 631400 xsym               EPPR1   B_VECTNIL+16
         3 002657   000000 701000 xent               TSX1    ASB$WRITE_LO
         3 002660   000000 011000                    NOP     0

     1064    16882    5               CALL ASB$WRITE_LO(END_STR,SIZEC(END_STR));

  16882  3 002661   000114 630400 4                  EPPR0   76
         3 002662   000020 631400 xsym               EPPR1   B_VECTNIL+16
         3 002663   000000 701000 xent               TSX1    ASB$WRITE_LO
         3 002664   000000 011000                    NOP     0

     1065    16883    5               END; /*  No vfu  */

     1066    16884    4            END; /*  Not graphic  */

     1067    16885    3         END; /* If FORMFLAG.VFU */

     1068    16886
     1069    16887        /**
     1070    16888         ** Setup information
     1071    16889         **/
     1072    16890    2      IF FORMFLAG.SETUP AND NOT PSEUDO

  16890  3 002665   200004 470500                    LDP0    @FORM_FLAG,,AUTO
         3 002666   000000 066500                    CMPB    filb='0'B
         3 002667   000000 010001                    BDSC    0,,PR0                   by=0,bit=1,n=1
         3 002670   000002 000022 xsym               BDSC    B_VECTNIL+2              by=0,bit=0,n=18
         3 002671   002761 600000 3                  TZE     s:16914
         3 002672   200103 234100                    SZN     PSEUDO,,AUTO
         3 002673   002761 604000 3                  TMI     s:16914

     1073    16891    3      THEN DO;

     1074    16892    3         CALL ASB$WRITE_LO(SETUP_STR,SIZEC(SETUP_STR));

PL6.E3A0      #003=ASL$DISP_ONE_FORM File=ASL$DISPLAY_FORM.:E05TSI               TUE 07/29/97 09:59 Page:185
  16892  3 002674   000116 630400 4                  EPPR0   78
         3 002675   000020 631400 xsym               EPPR1   B_VECTNIL+16
         3 002676   000000 701000 xent               TSX1    ASB$WRITE_LO
         3 002677   000000 011000                    NOP     0

     1075    16893    3         IF FS$FORMREC.SETUPDISP ~= 0

  16893  3 002700   000000 470400 xsym               LDP0    DSEG1$
         3 002701   000002 220100                    LDX0    2,,PR0
         3 002702   002755 600000 3                  TZE     s:16908

     1076    16894    4         THEN DO;

     1077    16895    4            P$ = PINCRW(DSEG1$,FS$FORMREC.SETUPDISP);

  16895  3 002703   000000 636010                    EAQ     0,X0
         3 002704   000000 036000 xsym               ADLQ    DSEG1$
         3 002705   000000 756000 1                  STQ     P$

     1078    16896    4            IF P$->FS$SETUP.LINES > 0

  16896  3 002706   000000 471400 1                  LDP1    P$
         3 002707   000100 101500                    MRL     fill='000'O
         3 002710   100000 000001                    ADSC9   0,,PR1                   cn=0,n=1
         3 002711   200126 000004                    ADSC9   I+1,,AUTO                cn=0,n=4
         3 002712   200126 236100                    LDQ     I+1,,AUTO
         3 002713   000000 116003                    CMPQ    0,DU
         3 002714   002755 600000 3                  TZE     s:16908

     1079    16897    5            THEN DO;

     1080    16898    5               FMT_BUF = SETUP_FMT;

  16898  3 002715   040000 100400                    MLR     fill='040'O
         3 002716   000503 000003 2                  ADSC9   SETUP_FMT                cn=0,n=3
         3 002717   000000 000377 xsym               ADSC9   FMT_BUF                  cn=0,n=255

PL6.E3A0      #003=ASL$DISP_ONE_FORM File=ASL$DISPLAY_FORM.:E05TSI               TUE 07/29/97 09:59 Page:186
     1081    16899    5               FDS.FMT_.BOUND = SIZEC(SETUP_FMT)-1;

  16899  3 002720   000000 236000 xsym               LDQ     FDS
         3 002721   177777 376007                    ANQ     65535,DL
         3 002722   400000 276007                    ORQ     -131072,DL
         3 002723   000000 756000 xsym               STQ     FDS

     1082    16900    5               FDS.NVECS# = 1;

  16900  3 002724   000001 235007                    LDA     1,DL
         3 002725   000011 755000 xsym               STA     FDS+9

     1083    16901    5               ENUM = P$->FS$SETUP.LINES;

  16901  3 002726   000100 100500                    MLR     fill='000'O
         3 002727   100000 000001                    ADSC9   0,,PR1                   cn=0,n=1
         3 002730   200014 000001                    ADSC9   ENUM,,AUTO               cn=0,n=1

     1084    16902    6               DO I= 0 TO ENUM-1;

  16902  3 002731   200053 450100                    STZ     I,,AUTO
         3 002732   002751 710000 3                  TRA     s:16905+1

     1085    16903    6                  FMT_VEC(0) = VECTOR(P$->FS$SETUP.TXT(I));

  16903  3 002733   000057 235000 4                  LDA     47
         3 002734   200053 236100                    LDQ     I,,AUTO
         3 002735   200126 755100                    STA     I+1,,AUTO
         3 002736   000022 402003                    MPY     18,DU
         3 002737   000001 036003                    ADLQ    1,DU
         3 002740   000000 036000 1                  ADLQ    P$
         3 002741   200126 235100                    LDA     I+1,,AUTO
         3 002742   000000 755000 xsym               STA     FMT_VEC
         3 002743   000001 756000 xsym               STQ     FMT_VEC+1

     1086    16904    6                  CALL X$FORMAT(FDS);

PL6.E3A0      #003=ASL$DISP_ONE_FORM File=ASL$DISPLAY_FORM.:E05TSI               TUE 07/29/97 09:59 Page:187
  16904  3 002744   000010 630400 4                  EPPR0   8
         3 002745   000017 631400 xsym               EPPR1   B_VECTNIL+15
         3 002746   000000 701000 xent               TSX1    X$FORMAT
         3 002747   000000 011000                    NOP     0

     1087    16905    6                  END; /*  Loop enum times  */

  16905  3 002750   200053 054100                    AOS     I,,AUTO
         3 002751   200014 236100                    LDQ     ENUM,,AUTO
         3 002752   000033 772000                    QRL     27
         3 002753   200053 116100                    CMPQ    I,,AUTO
         3 002754   002733 605400 3                  TPNZ    s:16903

     1088    16906    5               END; /*  Lines > 0  */

     1089    16907    4            END; /*  Setupdisp not 0  */

     1090    16908    3         CALL ASB$WRITE_LO(' ',1);

  16908  3 002755   000001 630400 4                  EPPR0   1
         3 002756   000020 631400 xsym               EPPR1   B_VECTNIL+16
         3 002757   000000 701000 xent               TSX1    ASB$WRITE_LO
         3 002760   000000 011000                    NOP     0

     1091    16909    3         END; /* If FORMFLAG.SETUP and not pseudo  */

     1092    16910
     1093    16911        /**
     1094    16912         ** Alignment
     1095    16913         **/
     1096    16914    2      IF FORMFLAG.ALIGN AND NOT PSEUDO

  16914  3 002761   200004 470500                    LDP0    @FORM_FLAG,,AUTO
         3 002762   000000 066500                    CMPB    filb='0'B
         3 002763   000000 050001                    BDSC    0,,PR0                   by=0,bit=5,n=1
         3 002764   000002 000022 xsym               BDSC    B_VECTNIL+2              by=0,bit=0,n=18
         3 002765   003043 600000 3                  TZE     s:16936
PL6.E3A0      #003=ASL$DISP_ONE_FORM File=ASL$DISPLAY_FORM.:E05TSI               TUE 07/29/97 09:59 Page:188
         3 002766   200103 234100                    SZN     PSEUDO,,AUTO
         3 002767   003043 604000 3                  TMI     s:16936

     1097    16915    3      THEN DO;

     1098    16916    3         IF FS$FORMREC.ALGNDISP~=0

  16916  3 002770   000000 471400 xsym               LDP1    DSEG1$
         3 002771   100003 720100                    LXL0    3,,PR1
         3 002772   003037 600000 3                  TZE     s:16929

     1099    16917    4         THEN DO;

     1100    16918    4            CALL ASB$WRITE_LO(ALIGNMENT_STR,SIZEC(ALIGNMENT_STR));

  16918  3 002773   000120 630400 4                  EPPR0   80
         3 002774   000020 631400 xsym               EPPR1   B_VECTNIL+16
         3 002775   000000 701000 xent               TSX1    ASB$WRITE_LO
         3 002776   000000 011000                    NOP     0

     1101    16919    4            P$ = PINCRW(DSEG1$,FS$FORMREC.ALGNDISP);

  16919  3 002777   000000 470400 xsym               LDP0    DSEG1$
         3 003000   000003 720100                    LXL0    3,,PR0
         3 003001   000000 636010                    EAQ     0,X0
         3 003002   000000 036000 xsym               ADLQ    DSEG1$
         3 003003   000000 756000 1                  STQ     P$

     1102    16920    4            CALL CONCAT (FMT_BUF,ALIGN_JCL_FMT,YES_NO_FMT);

  16920  3 003004   040000 100400                    MLR     fill='040'O
         3 003005   000026 000020 2                  ADSC9   ALIGN_JCL_FMT            cn=0,n=16
         3 003006   000000 000020 xsym               ADSC9   FMT_BUF                  cn=0,n=16
         3 003007   040000 100400                    MLR     fill='040'O
         3 003010   000554 000020 2                  ADSC9   YES_NO_FMT               cn=0,n=16
         3 003011   000004 000357 xsym               ADSC9   FMT_BUF+4                cn=0,n=239

PL6.E3A0      #003=ASL$DISP_ONE_FORM File=ASL$DISPLAY_FORM.:E05TSI               TUE 07/29/97 09:59 Page:189
     1103    16921    4            FDS.FMT_.BOUND = SIZEC(ALIGN_JCL_FMT) + SIZEC(YES_NO_FMT) - 1;

  16921  3 003012   000000 236000 xsym               LDQ     FDS
         3 003013   177777 376007                    ANQ     65535,DL
         3 003014   000122 276000 4                  ORQ     82
         3 003015   000000 756000 xsym               STQ     FDS

     1104    16922    4            FDS.NVECS# = 1;

  16922  3 003016   000001 235007                    LDA     1,DL
         3 003017   000011 755000 xsym               STA     FDS+9

     1105    16923    4            UBIN_ARRAY(0) = BITBIN ( FS$BAN.ALIGNCTL.EVERY );

  16923  3 003020   000000 470400 1                  LDP0    P$
         3 003021   003100 061500                    CSR     bolr='003'O
         3 003022   000000 000001                    BDSC    0,,PR0                   by=0,bit=0,n=1
         3 003023   200126 000044                    BDSC    I+1,,AUTO                by=0,bit=0,n=36
         3 003024   200126 236100                    LDQ     I+1,,AUTO
         3 003025   200111 756100                    STQ     UBIN_ARRAY,,AUTO

     1106    16924    4            FMT_VEC(0) = VECTOR ( UBIN_ARRAY(0) );

  16924  3 003026   777640 235007                    LDA     -96,DL
         3 003027   200126 452500                    STP2    I+1,,AUTO
         3 003030   200126 236100                    LDQ     I+1,,AUTO
         3 003031   000111 036003                    ADLQ    73,DU
         3 003032   000000 755000 xsym               STA     FMT_VEC
         3 003033   000001 756000 xsym               STQ     FMT_VEC+1

     1107    16925    4            CALL FINISH_BANNER;

  16925  3 003034   003145 701000 3                  TSX1    FINISH_BANNER
         3 003035   000000 011000                    NOP     0

     1108    16926        /*    Call ASB$WRITE_LO(' ',1);*/
     1109    16927    4            END; /*  Alignment exists  */
PL6.E3A0      #003=ASL$DISP_ONE_FORM File=ASL$DISPLAY_FORM.:E05TSI               TUE 07/29/97 09:59 Page:190

  16927  3 003036   003043 710000 3                  TRA     s:16936

     1110    16928    4         ELSE DO;

     1111    16929    4            CALL ASB$WRITE_LO(REMOVE_ALIGNMENT_STR,SIZEC(REMOVE_ALIGNMENT_STR));

  16929  3 003037   000124 630400 4                  EPPR0   84
         3 003040   000020 631400 xsym               EPPR1   B_VECTNIL+16
         3 003041   000000 701000 xent               TSX1    ASB$WRITE_LO
         3 003042   000000 011000                    NOP     0

     1112    16930    4            END;   /*  No alignment  */

     1113    16931    3         END; /* If FORMFLAG.ALIGN and not pseudo  */

     1114    16932
     1115    16933        /**
     1116    16934         ** Banner
     1117    16935         **/
     1118    16936    2      IF FORMFLAG.BANNER

  16936  3 003043   200004 470500                    LDP0    @FORM_FLAG,,AUTO
         3 003044   000000 066500                    CMPB    filb='0'B
         3 003045   000000 020001                    BDSC    0,,PR0                   by=0,bit=2,n=1
         3 003046   000002 000022 xsym               BDSC    B_VECTNIL+2              by=0,bit=0,n=18
         3 003047   003125 600000 3                  TZE     s:16959

     1119    16937    3      THEN DO;

     1120    16938    3         IF FS$FORMREC.BANRDISP~=0

  16938  3 003050   000000 471400 xsym               LDP1    DSEG1$
         3 003051   100003 220100                    LDX0    3,,PR1
         3 003052   003121 600000 3                  TZE     s:16951

     1121    16939    4         THEN DO;
PL6.E3A0      #003=ASL$DISP_ONE_FORM File=ASL$DISPLAY_FORM.:E05TSI               TUE 07/29/97 09:59 Page:191

     1122    16940    4            CALL ASB$WRITE_LO(BANNER_STR,SIZEC(BANNER_STR));

  16940  3 003053   000126 630400 4                  EPPR0   86
         3 003054   000020 631400 xsym               EPPR1   B_VECTNIL+16
         3 003055   000000 701000 xent               TSX1    ASB$WRITE_LO
         3 003056   000000 011000                    NOP     0

     1123    16941    4            P$ = PINCRW(DSEG1$,FS$FORMREC.BANRDISP);

  16941  3 003057   000000 470400 xsym               LDP0    DSEG1$
         3 003060   000003 220100                    LDX0    3,,PR0
         3 003061   000000 636010                    EAQ     0,X0
         3 003062   000000 036000 xsym               ADLQ    DSEG1$
         3 003063   000000 756000 1                  STQ     P$

     1124    16942    4            CALL CONCAT (FMT_BUF,CHARGE_JCL_FMT,YES_NO_FMT);

  16942  3 003064   040000 100400                    MLR     fill='040'O
         3 003065   000143 000014 2                  ADSC9   CHARGE_JCL_FMT           cn=0,n=12
         3 003066   000000 000014 xsym               ADSC9   FMT_BUF                  cn=0,n=12
         3 003067   040000 100400                    MLR     fill='040'O
         3 003070   000554 000020 2                  ADSC9   YES_NO_FMT               cn=0,n=16
         3 003071   000003 000363 xsym               ADSC9   FMT_BUF+3                cn=0,n=243

     1125    16943    4            FDS.FMT_.BOUND = SIZEC(CHARGE_JCL_FMT) + SIZEC(YES_NO_FMT) - 1;

  16943  3 003072   000000 236000 xsym               LDQ     FDS
         3 003073   177777 376007                    ANQ     65535,DL
         3 003074   000040 276000 4                  ORQ     32
         3 003075   000000 756000 xsym               STQ     FDS

     1126    16944    4            FDS.NVECS# = 1;

  16944  3 003076   000001 235007                    LDA     1,DL
         3 003077   000011 755000 xsym               STA     FDS+9

PL6.E3A0      #003=ASL$DISP_ONE_FORM File=ASL$DISPLAY_FORM.:E05TSI               TUE 07/29/97 09:59 Page:192
     1127    16945    4            UBIN_ARRAY(0) = FS$BAN.CHARGE;

  16945  3 003100   000000 470400 1                  LDP0    P$
         3 003101   000100 101500                    MRL     fill='000'O
         3 003102   000000 000001                    ADSC9   0,,PR0                   cn=0,n=1
         3 003103   200111 000004                    ADSC9   UBIN_ARRAY,,AUTO         cn=0,n=4

     1128    16946    4            FMT_VEC(0) = VECTOR ( UBIN_ARRAY(0) );

  16946  3 003104   777640 235007                    LDA     -96,DL
         3 003105   200126 452500                    STP2    I+1,,AUTO
         3 003106   200126 236100                    LDQ     I+1,,AUTO
         3 003107   000111 036003                    ADLQ    73,DU
         3 003110   000000 755000 xsym               STA     FMT_VEC
         3 003111   000001 756000 xsym               STQ     FMT_VEC+1

     1129    16947    4            CALL FINISH_BANNER;

  16947  3 003112   003145 701000 3                  TSX1    FINISH_BANNER
         3 003113   000000 011000                    NOP     0

     1130    16948    4            CALL ASB$WRITE_LO(' ',1);

  16948  3 003114   000001 630400 4                  EPPR0   1
         3 003115   000020 631400 xsym               EPPR1   B_VECTNIL+16
         3 003116   000000 701000 xent               TSX1    ASB$WRITE_LO
         3 003117   000000 011000                    NOP     0

     1131    16949    4            END; /*  Banner exists  */

  16949  3 003120   003125 710000 3                  TRA     s:16959

     1132    16950    4         ELSE DO;

     1133    16951    4            CALL ASB$WRITE_LO(REMOVE_BANNER_STR,SIZEC(REMOVE_BANNER_STR));

  16951  3 003121   000130 630400 4                  EPPR0   88
PL6.E3A0      #003=ASL$DISP_ONE_FORM File=ASL$DISPLAY_FORM.:E05TSI               TUE 07/29/97 09:59 Page:193
         3 003122   000020 631400 xsym               EPPR1   B_VECTNIL+16
         3 003123   000000 701000 xent               TSX1    ASB$WRITE_LO
         3 003124   000000 011000                    NOP     0

     1134    16952    4            END;   /*  No banner  */

     1135    16953    3         END; /* If FORMFLAG.BANNER */

     1136    16954
     1137    16955    2      END; /* If jcl */

     1138    16956
     1139    16957        /* We are now done with this form... */
     1140    16958
     1141    16959    1   RETURN;

  16959  3 003125   000000 702200 xent               TSX2  ! X66_ARET

     1142    16960        %EJECT;
PL6.E3A0      #003=ASL$DISP_ONE_FORM File=ASL$DISPLAY_FORM.:E05TSI               TUE 07/29/97 09:59 Page:194
     1143    16961    1   FLUSH: PROC;

  16961  3 003126   200122 741300       FLUSH        STX1  ! WIDTH+1,,AUTO

     1144    16962
     1145    16963    2   IF TABS > 10 THEN CALL ASB$WRITE_LO( OUT_BUF, LO_WIDTH );

  16963  3 003127   000001 235000 1                  LDA     TABS
         3 003130   000013 115007                    CMPA    11,DL
         3 003131   003136 602000 3                  TNC     s:16964

  16963  3 003132   000132 630400 4                  EPPR0   90
         3 003133   000020 631400 xsym               EPPR1   B_VECTNIL+16
         3 003134   000000 701000 xent               TSX1    ASB$WRITE_LO
         3 003135   000000 011000                    NOP     0

     1146    16964    2   OUT_BUF = ' ';

  16964  3 003136   040000 100400                    MLR     fill='040'O
         3 003137   000035 000001 xsym               ADSC9   B_VECTNIL+29             cn=0,n=1
         3 003140   000000 000214 xsym               ADSC9   OUT_BUF                  cn=0,n=140

     1147    16965    2   TABS = 10;

  16965  3 003141   000012 235007                    LDA     10,DL
         3 003142   000001 755000 1                  STA     TABS

     1148    16966
     1149    16967    2   END FLUSH;

  16967  3 003143   200122 221300                    LDX1  ! WIDTH+1,,AUTO
         3 003144   000001 702211                    TSX2  ! 1,X1

     1150    16968
     1151    16969        %EJECT;
PL6.E3A0      #003=ASL$DISP_ONE_FORM File=ASL$DISPLAY_FORM.:E05TSI               TUE 07/29/97 09:59 Page:195
     1152    16970    1   FINISH_BANNER: PROC;

  16970  3 003145   200122 741300       FINISH_BANN* STX1  ! WIDTH+1,,AUTO

     1153    16971    2   DCL I SBIN;
     1154    16972    2   DCL 1 X_INT STATIC,
     1155    16973    2          2 * CHAR(1) INIT('%'),
     1156    16974    2          2 XCHAR CHAR(1);
     1157    16975
     1158    16976    3   IF JCL THEN DO;

  16976  3 003146   200005 470500                    LDP0    @JCL,,AUTO
         3 003147   000000 066500                    CMPB    filb='0'B
         3 003150   000000 000001                    BDSC    0,,PR0                   by=0,bit=0,n=1
         3 003151   000002 000022 xsym               BDSC    B_VECTNIL+2              by=0,bit=0,n=18
         3 003152   003177 600000 3                  TZE     s:16983

     1159    16977    3      SUBSTR(FMT_BUF, FDS.FMT_.BOUND+1,SIZEC(REPEATS_JCL_FMT)) = REPEATS_JCL_FMT;

  16977  3 003153   000000 236000 xsym               LDQ     FDS
         3 003154   000020 772000                    QRL     16
         3 003155   040006 100400                    MLR     fill='040'O
         3 003156   000475 000020 2                  ADSC9   REPEATS_JCL_FMT          cn=0,n=16
         3 003157   000000 200020 xsym               ADSC9   FMT_BUF,Q                cn=1,n=16

     1160    16978    3      FDS.FMT_.BOUND = FDS.FMT_.BOUND + SIZEC(REPEATS_JCL_FMT);

  16978  3 003160   000020 036007                    ADLQ    16,DL
         3 003161   000020 736000                    QLS     16
         3 003162   000000 676000 xsym               ERQ     FDS
         3 003163   000034 376000 xsym               ANQ     B_VECTNIL+28
         3 003164   000000 656000 xsym               ERSQ    FDS

     1161    16979    3      FMT_VEC (FDS.NVECS#) = VECTOR ( FS$BAN.REPEATS );

  16979  3 003165   000011 235000 xsym               LDA     FDS+9
         3 003166   000001 735000                    ALS     1
PL6.E3A0      #003=ASL$DISP_ONE_FORM File=ASL$DISPLAY_FORM.:E05TSI               TUE 07/29/97 09:59 Page:196
         3 003167   000000 620005                    EAX0    0,AL
         3 003170   177640 235007                    LDA     65440,DL
         3 003171   000000 236000 1                  LDQ     P$
         3 003172   200000 036007                    ADLQ    65536,DL
         3 003173   000000 755010 xsym               STA     FMT_VEC,X0
         3 003174   000001 756010 xsym               STQ     FMT_VEC+1,X0

     1162    16980    3      FDS.NVECS# = FDS.NVECS# + 1;

  16980  3 003175   000011 054000 xsym               AOS     FDS+9

     1163    16981    3      END;   /*  If jcl  */

  16981  3 003176   003204 710000 3                  TRA     s:16984

     1164    16982    2   ELSE
     1165    16983    2      FMT_VEC(1) = VECTOR(FS$BAN.REPEATS);

  16983  3 003177   177640 235007                    LDA     65440,DL
         3 003200   000000 236000 1                  LDQ     P$
         3 003201   200000 036007                    ADLQ    65536,DL
         3 003202   000002 755000 xsym               STA     FMT_VEC+2
         3 003203   000003 756000 xsym               STQ     FMT_VEC+3

     1166    16984    2   CALL X$FORMAT(FDS);

  16984  3 003204   000010 630400 4                  EPPR0   8
         3 003205   000017 631400 xsym               EPPR1   B_VECTNIL+15
         3 003206   000000 701000 xent               TSX1    X$FORMAT
         3 003207   000000 011000                    NOP     0

     1167    16985    3   IF NOT JCL THEN DO;

  16985  3 003210   200005 470500                    LDP0    @JCL,,AUTO
         3 003211   000000 066500                    CMPB    filb='0'B
         3 003212   000000 000001                    BDSC    0,,PR0                   by=0,bit=0,n=1
         3 003213   000002 000022 xsym               BDSC    B_VECTNIL+2              by=0,bit=0,n=18
PL6.E3A0      #003=ASL$DISP_ONE_FORM File=ASL$DISPLAY_FORM.:E05TSI               TUE 07/29/97 09:59 Page:197
         3 003214   004414 601000 3                  TNZ     s:17119

     1168    16986    3      CALL ASB$WRITE_LO(' ',1);

  16986  3 003215   000001 630400 4                  EPPR0   1
         3 003216   000020 631400 xsym               EPPR1   B_VECTNIL+16
         3 003217   000000 701000 xent               TSX1    ASB$WRITE_LO
         3 003220   000000 011000                    NOP     0

     1169    16987    3      IF FS$BAN.NUM_ENTRIES>0

  16987  3 003221   000000 470400 1                  LDP0    P$
         3 003222   000100 101500                    MRL     fill='000'O
         3 003223   000000 600001                    ADSC9   0,,PR0                   cn=3,n=1
         3 003224   200126 000004                    ADSC9   I+1,,AUTO                cn=0,n=4
         3 003225   200126 236100                    LDQ     I+1,,AUTO
         3 003226   000000 116003                    CMPQ    0,DU
         3 003227   005413 600000 3                  TZE     s:17249

     1170    16988    4      THEN DO;

     1171    16989    4         IF GRAPHIC

  16989  3 003230   200030 234100                    SZN     GRAPHIC,,AUTO
         3 003231   003250 605000 3                  TPL     s:16997

     1172    16990    5         THEN DO;

     1173    16991    5            CALL ASB$WRITE_LO(GBANNER_ENTRY_HDR,SIZEC(GBANNER_ENTRY_HDR));

  16991  3 003232   000135 630400 4                  EPPR0   93
         3 003233   000020 631400 xsym               EPPR1   B_VECTNIL+16
         3 003234   000000 701000 xent               TSX1    ASB$WRITE_LO
         3 003235   000000 011000                    NOP     0

     1174    16992    5            FMT_BUF = GBANNER_ENTRY_FMT;

PL6.E3A0      #003=ASL$DISP_ONE_FORM File=ASL$DISPLAY_FORM.:E05TSI               TUE 07/29/97 09:59 Page:198
  16992  3 003236   040000 100400                    MLR     fill='040'O
         3 003237   000266 000057 2                  ADSC9   GBANNER_ENTRY_FMT        cn=0,n=47
         3 003240   000000 000377 xsym               ADSC9   FMT_BUF                  cn=0,n=255

     1175    16993    5            FDS.FMT_.BOUND = SIZEC (GBANNER_ENTRY_FMT) - 1;

  16993  3 003241   000000 236000 xsym               LDQ     FDS
         3 003242   177777 376007                    ANQ     65535,DL
         3 003243   000137 276000 4                  ORQ     95
         3 003244   000000 756000 xsym               STQ     FDS

     1176    16994    5            FDS.NVECS# = 8;

  16994  3 003245   000010 235007                    LDA     8,DL
         3 003246   000011 755000 xsym               STA     FDS+9

     1177    16995    5            END;

  16995  3 003247   003265 710000 3                  TRA     s:17002

     1178    16996    5         ELSE DO;

     1179    16997    5            CALL ASB$WRITE_LO(BANNER_ENTRY_HDR,SIZEC(BANNER_ENTRY_HDR));

  16997  3 003250   000141 630400 4                  EPPR0   97
         3 003251   000020 631400 xsym               EPPR1   B_VECTNIL+16
         3 003252   000000 701000 xent               TSX1    ASB$WRITE_LO
         3 003253   000000 011000                    NOP     0

     1180    16998    5            FMT_BUF = BANNER_ENTRY_FMT;

  16998  3 003254   040000 100400                    MLR     fill='040'O
         3 003255   000070 000066 2                  ADSC9   BANNER_ENTRY_FMT         cn=0,n=54
         3 003256   000000 000377 xsym               ADSC9   FMT_BUF                  cn=0,n=255

     1181    16999    5            FDS.FMT_.BOUND = SIZEC(BANNER_ENTRY_FMT)-1;

PL6.E3A0      #003=ASL$DISP_ONE_FORM File=ASL$DISPLAY_FORM.:E05TSI               TUE 07/29/97 09:59 Page:199
  16999  3 003257   000000 236000 xsym               LDQ     FDS
         3 003260   177777 376007                    ANQ     65535,DL
         3 003261   000143 276000 4                  ORQ     99
         3 003262   000000 756000 xsym               STQ     FDS

     1182    17000    5            FDS.NVECS# = 9;

  17000  3 003263   000011 235007                    LDA     9,DL
         3 003264   000011 755000 xsym               STA     FDS+9

     1183    17001    5            END;

     1184    17002    4         VEC_NUM = FDS.NVECS# - 1;

  17002  3 003265   000001 135007                    SBLA    1,DL
         3 003266   200117 755100                    STA     VEC_NUM,,AUTO

     1185    17003    5         DO I=0 TO FS$BAN.NUM_ENTRIES-1;

  17003  3 003267   200123 450100                    STZ     I,,AUTO
         3 003270   004404 710000 3                  TRA     s:17115+1

     1186    17004    5            IF GRAPHIC

  17004  3 003271   200030 234100                    SZN     GRAPHIC,,AUTO
         3 003272   003401 605000 3                  TPL     s:17016

     1187    17005    6            THEN DO;

     1188    17006    6               FMT_VEC (0) = VECTOR (FS$GBAN.ENTRIES.X_VAL (I));

  17006  3 003273   377640 235007                    LDA     130976,DL
         3 003274   200123 236100                    LDQ     I,,AUTO
         3 003275   200126 755100                    STA     I+1,,AUTO
         3 003276   000014 402003                    MPY     12,DU
         3 003277   000041 036000 4                  ADLQ    33
         3 003300   000000 036000 1                  ADLQ    P$
PL6.E3A0      #003=ASL$DISP_ONE_FORM File=ASL$DISPLAY_FORM.:E05TSI               TUE 07/29/97 09:59 Page:200
         3 003301   200126 235100                    LDA     I+1,,AUTO
         3 003302   000000 755000 xsym               STA     FMT_VEC
         3 003303   000001 756000 xsym               STQ     FMT_VEC+1

     1189    17007    6               FMT_VEC (1) = VECTOR (FS$GBAN.ENTRIES.Y_VAL (I));

  17007  3 003304   377640 235007                    LDA     130976,DL
         3 003305   200123 236100                    LDQ     I,,AUTO
         3 003306   200126 755100                    STA     I+1,,AUTO
         3 003307   000014 402003                    MPY     12,DU
         3 003310   000122 036000 4                  ADLQ    82
         3 003311   000000 036000 1                  ADLQ    P$
         3 003312   200126 235100                    LDA     I+1,,AUTO
         3 003313   000002 755000 xsym               STA     FMT_VEC+2
         3 003314   000003 756000 xsym               STQ     FMT_VEC+3

     1190    17008    6               FMT_VEC (2) = VECTOR (FS$GBAN.ENTRIES.Z_VAL (I));

  17008  3 003315   377640 235007                    LDA     130976,DL
         3 003316   200123 236100                    LDQ     I,,AUTO
         3 003317   200126 755100                    STA     I+1,,AUTO
         3 003320   000014 402003                    MPY     12,DU
         3 003321   000144 036000 4                  ADLQ    100
         3 003322   000000 036000 1                  ADLQ    P$
         3 003323   200126 235100                    LDA     I+1,,AUTO
         3 003324   000004 755000 xsym               STA     FMT_VEC+4
         3 003325   000005 756000 xsym               STQ     FMT_VEC+5

     1191    17009    6               FMT_VEC (3) = VECTOR (FS$GBAN.ENTRIES.DIRECTION(I));

  17009  3 003326   177640 235007                    LDA     65440,DL
         3 003327   200123 236100                    LDQ     I,,AUTO
         3 003330   200126 755100                    STA     I+1,,AUTO
         3 003331   000014 402003                    MPY     12,DU
         3 003332   000003 036003                    ADLQ    3,DU
         3 003333   000000 036000 1                  ADLQ    P$
         3 003334   200126 235100                    LDA     I+1,,AUTO
PL6.E3A0      #003=ASL$DISP_ONE_FORM File=ASL$DISPLAY_FORM.:E05TSI               TUE 07/29/97 09:59 Page:201
         3 003335   000006 755000 xsym               STA     FMT_VEC+6
         3 003336   000007 756000 xsym               STQ     FMT_VEC+7

     1192    17010    6               FMT_VEC (4) = VECTOR (FS$GBAN.ENTRIES.CHAR_WIDTH (I));

  17010  3 003337   377640 235007                    LDA     130976,DL
         3 003340   200123 236100                    LDQ     I,,AUTO
         3 003341   200126 755100                    STA     I+1,,AUTO
         3 003342   000014 402003                    MPY     12,DU
         3 003343   000145 036000 4                  ADLQ    101
         3 003344   000000 036000 1                  ADLQ    P$
         3 003345   200126 235100                    LDA     I+1,,AUTO
         3 003346   000010 755000 xsym               STA     FMT_VEC+8
         3 003347   000011 756000 xsym               STQ     FMT_VEC+9

     1193    17011    6               FMT_VEC (5) = VECTOR (FS$GBAN.ENTRIES.CHAR_HITE (I));

  17011  3 003350   377640 235007                    LDA     130976,DL
         3 003351   200123 236100                    LDQ     I,,AUTO
         3 003352   200126 755100                    STA     I+1,,AUTO
         3 003353   000014 402003                    MPY     12,DU
         3 003354   000052 036000 4                  ADLQ    42
         3 003355   000000 036000 1                  ADLQ    P$
         3 003356   200126 235100                    LDA     I+1,,AUTO
         3 003357   000012 755000 xsym               STA     FMT_VEC+10
         3 003360   000013 756000 xsym               STQ     FMT_VEC+11

     1194    17012    6               FMT_VEC (6) = VECTOR (FS$GBAN.ENTRIES.CHAR_SPACE (I));

  17012  3 003361   377640 235007                    LDA     130976,DL
         3 003362   200123 236100                    LDQ     I,,AUTO
         3 003363   200126 755100                    STA     I+1,,AUTO
         3 003364   000014 402003                    MPY     12,DU
         3 003365   000040 036000 4                  ADLQ    32
         3 003366   000000 036000 1                  ADLQ    P$
         3 003367   200126 235100                    LDA     I+1,,AUTO
         3 003370   000014 755000 xsym               STA     FMT_VEC+12
PL6.E3A0      #003=ASL$DISP_ONE_FORM File=ASL$DISPLAY_FORM.:E05TSI               TUE 07/29/97 09:59 Page:202
         3 003371   000015 756000 xsym               STQ     FMT_VEC+13

     1195    17013    6               TYPE = FS$GBAN.ENTRIES.TYPE (I);

  17013  3 003372   200123 236100                    LDQ     I,,AUTO
         3 003373   000060 402007                    MPY     48,DL
         3 003374   000000 470400 1                  LDP0    P$
         3 003375   000100 100506                    MLR     fill='000'O
         3 003376   000012 200001                    ADSC9   10,Q,PR0                 cn=1,n=1
         3 003377   200110 000001                    ADSC9   TYPE,,AUTO               cn=0,n=1

     1196    17014    6               END;

  17014  3 003400   003477 710000 3                  TRA     s:17026

     1197    17015    6            ELSE DO;

     1198    17016    6               FMT_VEC(0) = VECTOR(FS$BAN.ENTRIES.ROW(I));

  17016  3 003401   177640 235007                    LDA     65440,DL
         3 003402   200123 236100                    LDQ     I,,AUTO
         3 003403   000024 736000                    QLS     20
         3 003404   000001 036003                    ADLQ    1,DU
         3 003405   000000 036000 1                  ADLQ    P$
         3 003406   000000 755000 xsym               STA     FMT_VEC
         3 003407   000001 756000 xsym               STQ     FMT_VEC+1

     1199    17017    6               FMT_VEC(1) = VECTOR(FS$BAN.ENTRIES.COL(I));

  17017  3 003410   177640 235007                    LDA     65440,DL
         3 003411   200123 236100                    LDQ     I,,AUTO
         3 003412   000024 736000                    QLS     20
         3 003413   000000 036000 4                  ADLQ    0
         3 003414   000000 036000 1                  ADLQ    P$
         3 003415   000002 755000 xsym               STA     FMT_VEC+2
         3 003416   000003 756000 xsym               STQ     FMT_VEC+3

PL6.E3A0      #003=ASL$DISP_ONE_FORM File=ASL$DISPLAY_FORM.:E05TSI               TUE 07/29/97 09:59 Page:203
     1200    17018    6               FMT_VEC(2) = VECTOR(FS$BAN.ENTRIES.FONT(I));

  17018  3 003417   177640 235007                    LDA     65440,DL
         3 003420   200123 236100                    LDQ     I,,AUTO
         3 003421   000024 736000                    QLS     20
         3 003422   000146 036000 4                  ADLQ    102
         3 003423   000000 036000 1                  ADLQ    P$
         3 003424   000004 755000 xsym               STA     FMT_VEC+4
         3 003425   000005 756000 xsym               STQ     FMT_VEC+5

     1201    17019    6               FMT_VEC(3) = VECTOR(FS$BAN.ENTRIES.STRIKES(I));

  17019  3 003426   177640 235007                    LDA     65440,DL
         3 003427   200123 236100                    LDQ     I,,AUTO
         3 003430   000024 736000                    QLS     20
         3 003431   000106 036000 4                  ADLQ    70
         3 003432   000000 036000 1                  ADLQ    P$
         3 003433   000006 755000 xsym               STA     FMT_VEC+6
         3 003434   000007 756000 xsym               STQ     FMT_VEC+7

     1202    17020    6               FMT_VEC(4) = VECTOR(FS$BAN.ENTRIES.ICSH(I));

  17020  3 003435   177640 235007                    LDA     65440,DL
         3 003436   200123 236100                    LDQ     I,,AUTO
         3 003437   000024 736000                    QLS     20
         3 003440   000002 036003                    ADLQ    2,DU
         3 003441   000000 036000 1                  ADLQ    P$
         3 003442   000010 755000 xsym               STA     FMT_VEC+8
         3 003443   000011 756000 xsym               STQ     FMT_VEC+9

     1203    17021    6               FMT_VEC(5) = VECTOR(FS$BAN.ENTRIES.REPS(I));

  17021  3 003444   177640 235007                    LDA     65440,DL
         3 003445   200123 236100                    LDQ     I,,AUTO
         3 003446   000024 736000                    QLS     20
         3 003447   000111 036000 4                  ADLQ    73
         3 003450   000000 036000 1                  ADLQ    P$
PL6.E3A0      #003=ASL$DISP_ONE_FORM File=ASL$DISPLAY_FORM.:E05TSI               TUE 07/29/97 09:59 Page:204
         3 003451   000012 755000 xsym               STA     FMT_VEC+10
         3 003452   000013 756000 xsym               STQ     FMT_VEC+11

     1204    17022    6               FMT_VEC(6) = VECTOR(FS$BAN.ENTRIES.RINC(I));

  17022  3 003453   177640 235007                    LDA     65440,DL
         3 003454   200123 236100                    LDQ     I,,AUTO
         3 003455   000024 736000                    QLS     20
         3 003456   000147 036000 4                  ADLQ    103
         3 003457   000000 036000 1                  ADLQ    P$
         3 003460   000014 755000 xsym               STA     FMT_VEC+12
         3 003461   000015 756000 xsym               STQ     FMT_VEC+13

     1205    17023    6               FMT_VEC(7) = VECTOR(FS$BAN.ENTRIES.CINC(I));

  17023  3 003462   177640 235007                    LDA     65440,DL
         3 003463   200123 236100                    LDQ     I,,AUTO
         3 003464   000024 736000                    QLS     20
         3 003465   000046 036000 4                  ADLQ    38
         3 003466   000000 036000 1                  ADLQ    P$
         3 003467   000016 755000 xsym               STA     FMT_VEC+14
         3 003470   000017 756000 xsym               STQ     FMT_VEC+15

     1206    17024    6               TYPE = FS$BAN.ENTRIES.TYPE (I);

  17024  3 003471   200123 235100                    LDA     I,,AUTO
         3 003472   000004 735000                    ALS     4
         3 003473   000000 470400 1                  LDP0    P$
         3 003474   000100 100505                    MLR     fill='000'O
         3 003475   000003 000001                    ADSC9   3,A,PR0                  cn=0,n=1
         3 003476   200110 000001                    ADSC9   TYPE,,AUTO               cn=0,n=1

     1207    17025    6               END;

     1208    17026    6            DO SELECT (TYPE);

  17026  3 003477   200110 236100                    LDQ     TYPE,,AUTO
PL6.E3A0      #003=ASL$DISP_ONE_FORM File=ASL$DISPLAY_FORM.:E05TSI               TUE 07/29/97 09:59 Page:205
         3 003500   000033 772000                    QRL     27
         3 003501   000020 116007                    CMPQ    16,DL
         3 003502   003565 602000 3                  TNC     s:17026+54
         3 003503   004230 600000 3                  TZE     s:17088
         3 003504   000030 116007                    CMPQ    24,DL
         3 003505   003526 602000 3                  TNC     s:17026+23
         3 003506   004330 600000 3                  TZE     s:17104
         3 003507   000032 116007                    CMPQ    26,DL
         3 003510   003521 602000 3                  TNC     s:17026+18
         3 003511   004350 600000 3                  TZE     s:17108
         3 003512   000033 116007                    CMPQ    27,DL
         3 003513   004377 602000 3                  TNC     s:17114
         3 003514   004360 600000 3                  TZE     s:17110
         3 003515   000033 736000                    QLS     27
         3 003516   034000 116003                    CMPQ    14336,DU
         3 003517   004377 601000 3                  TNZ     s:17114
         3 003520   004370 710000 3                  TRA     s:17112
         3 003521   200110 236100                    LDQ     TYPE,,AUTO
         3 003522   777000 376003                    ANQ     -512,DU
         3 003523   031000 116003                    CMPQ    12800,DU
         3 003524   004377 601000 3                  TNZ     s:17114
         3 003525   004340 710000 3                  TRA     s:17106
         3 003526   200110 236100                    LDQ     TYPE,,AUTO
         3 003527   000033 772000                    QRL     27
         3 003530   000024 116007                    CMPQ    20,DL
         3 003531   003547 602000 3                  TNC     s:17026+40
         3 003532   004270 600000 3                  TZE     s:17096
         3 003533   000026 116007                    CMPQ    22,DL
         3 003534   003542 602000 3                  TNC     s:17026+35
         3 003535   004310 600000 3                  TZE     s:17100
         3 003536   000033 736000                    QLS     27
         3 003537   027000 116003                    CMPQ    11776,DU
         3 003540   004377 601000 3                  TNZ     s:17114
         3 003541   004320 710000 3                  TRA     s:17102
         3 003542   200110 236100                    LDQ     TYPE,,AUTO
         3 003543   777000 376003                    ANQ     -512,DU
         3 003544   025000 116003                    CMPQ    10752,DU
PL6.E3A0      #003=ASL$DISP_ONE_FORM File=ASL$DISPLAY_FORM.:E05TSI               TUE 07/29/97 09:59 Page:206
         3 003545   004377 601000 3                  TNZ     s:17114
         3 003546   004300 710000 3                  TRA     s:17098
         3 003547   200110 236100                    LDQ     TYPE,,AUTO
         3 003550   000033 772000                    QRL     27
         3 003551   000022 116007                    CMPQ    18,DL
         3 003552   003560 602000 3                  TNC     s:17026+49
         3 003553   004250 600000 3                  TZE     s:17092
         3 003554   000033 736000                    QLS     27
         3 003555   023000 116003                    CMPQ    9728,DU
         3 003556   004377 601000 3                  TNZ     s:17114
         3 003557   004260 710000 3                  TRA     s:17094
         3 003560   200110 236100                    LDQ     TYPE,,AUTO
         3 003561   777000 376003                    ANQ     -512,DU
         3 003562   021000 116003                    CMPQ    8704,DU
         3 003563   004377 601000 3                  TNZ     s:17114
         3 003564   004240 710000 3                  TRA     s:17090
         3 003565   200110 236100                    LDQ     TYPE,,AUTO
         3 003566   000033 772000                    QRL     27
         3 003567   000007 116007                    CMPQ    7,DL
         3 003570   003627 602000 3                  TNC     s:17026+88
         3 003571   004140 600000 3                  TZE     s:17074
         3 003572   000013 116007                    CMPQ    11,DL
         3 003573   003611 602000 3                  TNC     s:17026+74
         3 003574   004024 600000 3                  TZE     s:17052
         3 003575   000016 116007                    CMPQ    14,DL
         3 003576   003604 602000 3                  TNC     s:17026+69
         3 003577   004210 600000 3                  TZE     s:17084
         3 003600   000033 736000                    QLS     27
         3 003601   017000 116003                    CMPQ    7680,DU
         3 003602   004377 601000 3                  TNZ     s:17114
         3 003603   004220 710000 3                  TRA     s:17086
         3 003604   200110 236100                    LDQ     TYPE,,AUTO
         3 003605   777000 376003                    ANQ     -512,DU
         3 003606   014000 116003                    CMPQ    6144,DU
         3 003607   004377 601000 3                  TNZ     s:17114
         3 003610   004200 710000 3                  TRA     s:17082
         3 003611   200110 236100                    LDQ     TYPE,,AUTO
PL6.E3A0      #003=ASL$DISP_ONE_FORM File=ASL$DISPLAY_FORM.:E05TSI               TUE 07/29/97 09:59 Page:207
         3 003612   000033 772000                    QRL     27
         3 003613   000011 116007                    CMPQ    9,DL
         3 003614   003622 602000 3                  TNC     s:17026+83
         3 003615   004160 600000 3                  TZE     s:17078
         3 003616   000033 736000                    QLS     27
         3 003617   012000 116003                    CMPQ    5120,DU
         3 003620   004377 601000 3                  TNZ     s:17114
         3 003621   004170 710000 3                  TRA     s:17080
         3 003622   200110 236100                    LDQ     TYPE,,AUTO
         3 003623   777000 376003                    ANQ     -512,DU
         3 003624   010000 116003                    CMPQ    4096,DU
         3 003625   004377 601000 3                  TNZ     s:17114
         3 003626   004150 710000 3                  TRA     s:17076
         3 003627   200110 236100                    LDQ     TYPE,,AUTO
         3 003630   000033 772000                    QRL     27
         3 003631   000003 116007                    CMPQ    3,DL
         3 003632   003650 602000 3                  TNC     s:17026+105
         3 003633   004100 600000 3                  TZE     s:17066
         3 003634   000005 116007                    CMPQ    5,DL
         3 003635   003643 602000 3                  TNC     s:17026+100
         3 003636   004120 600000 3                  TZE     s:17070
         3 003637   000033 736000                    QLS     27
         3 003640   006000 116003                    CMPQ    3072,DU
         3 003641   004377 601000 3                  TNZ     s:17114
         3 003642   004130 710000 3                  TRA     s:17072
         3 003643   200110 236100                    LDQ     TYPE,,AUTO
         3 003644   777000 376003                    ANQ     -512,DU
         3 003645   004000 116003                    CMPQ    2048,DU
         3 003646   004377 601000 3                  TNZ     s:17114
         3 003647   004110 710000 3                  TRA     s:17068
         3 003650   200110 236100                    LDQ     TYPE,,AUTO
         3 003651   000033 772000                    QRL     27
         3 003652   000001 116007                    CMPQ    1,DL
         3 003653   003661 602000 3                  TNC     s:17026+114
         3 003654   004060 600000 3                  TZE     s:17062
         3 003655   000033 736000                    QLS     27
         3 003656   002000 116003                    CMPQ    1024,DU
PL6.E3A0      #003=ASL$DISP_ONE_FORM File=ASL$DISPLAY_FORM.:E05TSI               TUE 07/29/97 09:59 Page:208
         3 003657   004377 601000 3                  TNZ     s:17114
         3 003660   004070 710000 3                  TRA     s:17064
         3 003661   200110 236100                    LDQ     TYPE,,AUTO
         3 003662   777000 316003                    CANQ    -512,DU
         3 003663   003665 600000 3                  TZE     s:17028
         3 003664   004377 710000 3                  TRA     s:17114

     1209    17027    6               SELECT(FS_PLAIN_TEXT);

     1210    17028    6               IF GRAPHIC

  17028  3 003665   200030 234100                    SZN     GRAPHIC,,AUTO
         3 003666   003745 605000 3                  TPL     s:17041

     1211    17029    7               THEN DO;

     1212    17030    7                  IF FS$GBAN.ENTRIES.COUNT(I) = 0

  17030  3 003667   200123 236100                    LDQ     I,,AUTO
         3 003670   000060 402007                    MPY     48,DL
         3 003671   000000 470400 1                  LDP0    P$
         3 003672   000100 101506                    MRL     fill='000'O
         3 003673   000012 400001                    ADSC9   10,Q,PR0                 cn=2,n=1
         3 003674   200126 000004                    ADSC9   I+1,,AUTO                cn=0,n=4
         3 003675   200126 236100                    LDQ     I+1,,AUTO
         3 003676   000000 116003                    CMPQ    0,DU
         3 003677   003710 601000 3                  TNZ     s:17035

     1213    17031    8                  THEN DO;

     1214    17032    8                     FMT_VEC (VEC_NUM) = VECTOR(BL_STR);

  17032  3 003700   200117 235100                    LDA     VEC_NUM,,AUTO
         3 003701   000001 735000                    ALS     1
         3 003702   000000 620005                    EAX0    0,AL
         3 003703   000000 621005                    EAX1    0,AL
         3 003704   000030 237000 4                  LDAQ    24
PL6.E3A0      #003=ASL$DISP_ONE_FORM File=ASL$DISPLAY_FORM.:E05TSI               TUE 07/29/97 09:59 Page:209
         3 003705   000000 755010 xsym               STA     FMT_VEC,X0
         3 003706   000001 756011 xsym               STQ     FMT_VEC+1,X1

     1215    17033    8                     END;

  17033  3 003707   004377 710000 3                  TRA     s:17114

     1216    17034    8                  ELSE DO;

     1217    17035    8                     FMT_VEC (VEC_NUM) = VECTOR (FS$GBAN);
             17035                              /* Just to get flags right   */

  17035  3 003710   200117 235100                    LDA     VEC_NUM,,AUTO
         3 003711   000001 735000                    ALS     1
         3 003712   000000 620005                    EAX0    0,AL
         3 003713   000150 235000 4                  LDA     104
         3 003714   000000 236000 1                  LDQ     P$
         3 003715   000000 755010 xsym               STA     FMT_VEC,X0
         3 003716   000001 756010 xsym               STQ     FMT_VEC+1,X0

     1218    17036    8                    FMT_VEC.PTR$ (VEC_NUM) = PINCRW(ADDR(FS$GBAN),FS$GBAN.ENTRIES.DISP
             17036                              (I));

  17036  3 003717   200123 236100                    LDQ     I,,AUTO
         3 003720   000060 402007                    MPY     48,DL
         3 003721   000000 470400 1                  LDP0    P$
         3 003722   000100 100506                    MLR     fill='000'O
         3 003723   000012 600002                    ADSC9   10,Q,PR0                 cn=3,n=2
         3 003724   200126 000004                    ADSC9   I+1,,AUTO                cn=0,n=4
         3 003725   200126 221100                    LDX1    I+1,,AUTO
         3 003726   000000 636011                    EAQ     0,X1
         3 003727   000000 036000 1                  ADLQ    P$
         3 003730   000001 756010 xsym               STQ     FMT_VEC+1,X0

     1219    17037    8                     FMT_VEC.BOUND (VEC_NUM) = FS$GBAN.ENTRIES.COUNT(I)-1;

  17037  3 003731   200123 236100                    LDQ     I,,AUTO
PL6.E3A0      #003=ASL$DISP_ONE_FORM File=ASL$DISPLAY_FORM.:E05TSI               TUE 07/29/97 09:59 Page:210
         3 003732   000060 402007                    MPY     48,DL
         3 003733   000100 101506                    MRL     fill='000'O
         3 003734   000012 400001                    ADSC9   10,Q,PR0                 cn=2,n=1
         3 003735   200126 000004                    ADSC9   I+1,,AUTO                cn=0,n=4
         3 003736   200126 236100                    LDQ     I+1,,AUTO
         3 003737   000001 136007                    SBLQ    1,DL
         3 003740   000020 736000                    QLS     16
         3 003741   000000 676010 xsym               ERQ     FMT_VEC,X0
         3 003742   000034 376000 xsym               ANQ     B_VECTNIL+28
         3 003743   000000 656010 xsym               ERSQ    FMT_VEC,X0

     1220    17038    8                     END;

     1221    17039    7                  END;

  17039  3 003744   004377 710000 3                  TRA     s:17114

     1222    17040    7               ELSE DO;

     1223    17041    7                  IF FS$BAN.ENTRIES.COUNT(I) = 0

  17041  3 003745   200123 235100                    LDA     I,,AUTO
         3 003746   000004 735000                    ALS     4
         3 003747   000000 470400 1                  LDP0    P$
         3 003750   000100 101505                    MRL     fill='000'O
         3 003751   000003 600001                    ADSC9   3,A,PR0                  cn=3,n=1
         3 003752   200126 000004                    ADSC9   I+1,,AUTO                cn=0,n=4
         3 003753   200126 236100                    LDQ     I+1,,AUTO
         3 003754   000000 116003                    CMPQ    0,DU
         3 003755   003766 601000 3                  TNZ     s:17046

     1224    17042    8                  THEN DO;

     1225    17043    8                     FMT_VEC (VEC_NUM) = VECTOR(BL_STR);

  17043  3 003756   200117 236100                    LDQ     VEC_NUM,,AUTO
         3 003757   000001 736000                    QLS     1
PL6.E3A0      #003=ASL$DISP_ONE_FORM File=ASL$DISPLAY_FORM.:E05TSI               TUE 07/29/97 09:59 Page:211
         3 003760   000000 620006                    EAX0    0,QL
         3 003761   000000 621006                    EAX1    0,QL
         3 003762   000030 237000 4                  LDAQ    24
         3 003763   000000 755010 xsym               STA     FMT_VEC,X0
         3 003764   000001 756011 xsym               STQ     FMT_VEC+1,X1

     1226    17044    8                     END;

  17044  3 003765   004377 710000 3                  TRA     s:17114

     1227    17045    8                  ELSE DO;

     1228    17046    8                     FMT_VEC (VEC_NUM) = VECTOR(FS$BAN);
             17046                              /* Just to get flags right   */

  17046  3 003766   200117 235100                    LDA     VEC_NUM,,AUTO
         3 003767   000001 735000                    ALS     1
         3 003770   000000 620005                    EAX0    0,AL
         3 003771   000151 235000 4                  LDA     105
         3 003772   000000 236000 1                  LDQ     P$
         3 003773   000000 755010 xsym               STA     FMT_VEC,X0
         3 003774   000001 756010 xsym               STQ     FMT_VEC+1,X0

     1229    17047    8                    FMT_VEC.PTR$ (VEC_NUM) = PINCRW(ADDR(FS$BAN),FS$BAN.ENTRIES.DISP(I
             17047                              ));

  17047  3 003775   200117 235100                    LDA     VEC_NUM,,AUTO
         3 003776   000001 735000                    ALS     1
         3 003777   200123 236100                    LDQ     I,,AUTO
         3 004000   000004 736000                    QLS     4
         3 004001   000100 100506                    MLR     fill='000'O
         3 004002   000003 200002                    ADSC9   3,Q,PR0                  cn=1,n=2
         3 004003   200126 000004                    ADSC9   I+1,,AUTO                cn=0,n=4
         3 004004   200126 220100                    LDX0    I+1,,AUTO
         3 004005   000000 636010                    EAQ     0,X0
         3 004006   000000 036000 1                  ADLQ    P$
         3 004007   000001 756005 xsym               STQ     FMT_VEC+1,AL
PL6.E3A0      #003=ASL$DISP_ONE_FORM File=ASL$DISPLAY_FORM.:E05TSI               TUE 07/29/97 09:59 Page:212

     1230    17048    8                     FMT_VEC.BOUND (VEC_NUM) = FS$BAN.ENTRIES.COUNT(I)-1;

  17048  3 004010   200123 236100                    LDQ     I,,AUTO
         3 004011   000004 736000                    QLS     4
         3 004012   000100 101506                    MRL     fill='000'O
         3 004013   000003 600001                    ADSC9   3,Q,PR0                  cn=3,n=1
         3 004014   200126 000004                    ADSC9   I+1,,AUTO                cn=0,n=4
         3 004015   200126 236100                    LDQ     I+1,,AUTO
         3 004016   000001 136007                    SBLQ    1,DL
         3 004017   000020 736000                    QLS     16
         3 004020   000000 676005 xsym               ERQ     FMT_VEC,AL
         3 004021   000034 376000 xsym               ANQ     B_VECTNIL+28
         3 004022   000000 656005 xsym               ERSQ    FMT_VEC,AL

     1231    17049    8                     END;

     1232    17050    7                  END;

  17050  3 004023   004377 710000 3                  TRA     s:17114

     1233    17051    6               SELECT(FS_X_INT);

     1234    17052    6               IF GRAPHIC

  17052  3 004024   200030 234100                    SZN     GRAPHIC,,AUTO
         3 004025   004043 605000 3                  TPL     s:17058

     1235    17053    7               THEN DO;

     1236    17054    7                  FMT_VEC (VEC_NUM) = VECTOR(X_INT);

  17054  3 004026   200117 235100                    LDA     VEC_NUM,,AUTO
         3 004027   000001 735000                    ALS     1
         3 004030   000000 620005                    EAX0    0,AL
         3 004031   000000 621005                    EAX1    0,AL
         3 004032   000152 237000 4                  LDAQ    106
PL6.E3A0      #003=ASL$DISP_ONE_FORM File=ASL$DISPLAY_FORM.:E05TSI               TUE 07/29/97 09:59 Page:213
         3 004033   000000 755010 xsym               STA     FMT_VEC,X0
         3 004034   000001 756011 xsym               STQ     FMT_VEC+1,X1

     1237    17055    7                  X_INT.XCHAR = FS$GBAN.ENTRIES.CHR(I);

  17055  3 004035   200123 236100                    LDQ     I,,AUTO
         3 004036   000060 402007                    MPY     48,DL
         3 004037   040000 100506                    MLR     fill='040'O
         3 004040   000012 400001                    ADSC9   10,Q,PR0                 cn=2,n=1
         3 004041   000002 200001 1                  ADSC9   X_INT                    cn=1,n=1

     1238    17056    7                  END;

  17056  3 004042   004377 710000 3                  TRA     s:17114

     1239    17057    7               ELSE DO;

     1240    17058    7                  FMT_VEC (VEC_NUM) = VECTOR(X_INT);

  17058  3 004043   200117 235100                    LDA     VEC_NUM,,AUTO
         3 004044   000001 735000                    ALS     1
         3 004045   000000 620005                    EAX0    0,AL
         3 004046   000000 621005                    EAX1    0,AL
         3 004047   000152 237000 4                  LDAQ    106
         3 004050   000000 755010 xsym               STA     FMT_VEC,X0
         3 004051   000001 756011 xsym               STQ     FMT_VEC+1,X1

     1241    17059    7                  X_INT.XCHAR = FS$BAN.ENTRIES.CHR(I);

  17059  3 004052   200123 235100                    LDA     I,,AUTO
         3 004053   000004 735000                    ALS     4
         3 004054   040000 100505                    MLR     fill='040'O
         3 004055   000003 600001                    ADSC9   3,A,PR0                  cn=3,n=1
         3 004056   000002 200001 1                  ADSC9   X_INT                    cn=1,n=1

     1242    17060    7                  END;

PL6.E3A0      #003=ASL$DISP_ONE_FORM File=ASL$DISPLAY_FORM.:E05TSI               TUE 07/29/97 09:59 Page:214
  17060  3 004057   004377 710000 3                  TRA     s:17114

     1243    17061    6               SELECT(FS_SYSID_INT);

     1244    17062    6               FMT_VEC (VEC_NUM) = VECTOR(SYSID_INT_STR);

  17062  3 004060   200117 235100                    LDA     VEC_NUM,,AUTO
         3 004061   000001 735000                    ALS     1
         3 004062   000000 620005                    EAX0    0,AL
         3 004063   000000 621005                    EAX1    0,AL
         3 004064   000154 237000 4                  LDAQ    108
         3 004065   000000 755010 xsym               STA     FMT_VEC,X0
         3 004066   000001 756011 xsym               STQ     FMT_VEC+1,X1
         3 004067   004377 710000 3                  TRA     s:17114

     1245    17063    6               SELECT(FS_ACCN_INT);

     1246    17064    6               FMT_VEC (VEC_NUM) = VECTOR(ACCN_INT_STR);

  17064  3 004070   200117 235100                    LDA     VEC_NUM,,AUTO
         3 004071   000001 735000                    ALS     1
         3 004072   000000 620005                    EAX0    0,AL
         3 004073   000000 621005                    EAX1    0,AL
         3 004074   000156 237000 4                  LDAQ    110
         3 004075   000000 755010 xsym               STA     FMT_VEC,X0
         3 004076   000001 756011 xsym               STQ     FMT_VEC+1,X1
         3 004077   004377 710000 3                  TRA     s:17114

     1247    17065    6               SELECT(FS_UNAME_INT);

     1248    17066    6               FMT_VEC (VEC_NUM) = VECTOR(UNAME_INT_STR);

  17066  3 004100   200117 235100                    LDA     VEC_NUM,,AUTO
         3 004101   000001 735000                    ALS     1
         3 004102   000000 620005                    EAX0    0,AL
         3 004103   000000 621005                    EAX1    0,AL
         3 004104   000160 237000 4                  LDAQ    112
PL6.E3A0      #003=ASL$DISP_ONE_FORM File=ASL$DISPLAY_FORM.:E05TSI               TUE 07/29/97 09:59 Page:215
         3 004105   000000 755010 xsym               STA     FMT_VEC,X0
         3 004106   000001 756011 xsym               STQ     FMT_VEC+1,X1
         3 004107   004377 710000 3                  TRA     s:17114

     1249    17067    6               SELECT(FS_WOO_INT);

     1250    17068    6               FMT_VEC (VEC_NUM) = VECTOR(WOO_INT_STR);

  17068  3 004110   200117 235100                    LDA     VEC_NUM,,AUTO
         3 004111   000001 735000                    ALS     1
         3 004112   000000 620005                    EAX0    0,AL
         3 004113   000000 621005                    EAX1    0,AL
         3 004114   000162 237000 4                  LDAQ    114
         3 004115   000000 755010 xsym               STA     FMT_VEC,X0
         3 004116   000001 756011 xsym               STQ     FMT_VEC+1,X1
         3 004117   004377 710000 3                  TRA     s:17114

     1251    17069    6               SELECT(FS_JOBNAME_INT);

     1252    17070    6               FMT_VEC (VEC_NUM) = VECTOR(JOBNAME_INT_STR);

  17070  3 004120   200117 235100                    LDA     VEC_NUM,,AUTO
         3 004121   000001 735000                    ALS     1
         3 004122   000000 620005                    EAX0    0,AL
         3 004123   000000 621005                    EAX1    0,AL
         3 004124   000164 237000 4                  LDAQ    116
         3 004125   000000 755010 xsym               STA     FMT_VEC,X0
         3 004126   000001 756011 xsym               STQ     FMT_VEC+1,X1
         3 004127   004377 710000 3                  TRA     s:17114

     1253    17071    6               SELECT(FS_TIME_INT);

     1254    17072    6               FMT_VEC (VEC_NUM) = VECTOR(TIME_INT_STR);

  17072  3 004130   200117 235100                    LDA     VEC_NUM,,AUTO
         3 004131   000001 735000                    ALS     1
         3 004132   000000 620005                    EAX0    0,AL
PL6.E3A0      #003=ASL$DISP_ONE_FORM File=ASL$DISPLAY_FORM.:E05TSI               TUE 07/29/97 09:59 Page:216
         3 004133   000000 621005                    EAX1    0,AL
         3 004134   000166 237000 4                  LDAQ    118
         3 004135   000000 755010 xsym               STA     FMT_VEC,X0
         3 004136   000001 756011 xsym               STQ     FMT_VEC+1,X1
         3 004137   004377 710000 3                  TRA     s:17114

     1255    17073    6               SELECT(FS_DATE_INT);

     1256    17074    6               FMT_VEC (VEC_NUM) = VECTOR(DATE_INT_STR);

  17074  3 004140   200117 235100                    LDA     VEC_NUM,,AUTO
         3 004141   000001 735000                    ALS     1
         3 004142   000000 620005                    EAX0    0,AL
         3 004143   000000 621005                    EAX1    0,AL
         3 004144   000170 237000 4                  LDAQ    120
         3 004145   000000 755010 xsym               STA     FMT_VEC,X0
         3 004146   000001 756011 xsym               STQ     FMT_VEC+1,X1
         3 004147   004377 710000 3                  TRA     s:17114

     1257    17075    6               SELECT(FS_VERSION_INT);

     1258    17076    6               FMT_VEC (VEC_NUM) = VECTOR(VERSION_INT_STR);

  17076  3 004150   200117 235100                    LDA     VEC_NUM,,AUTO
         3 004151   000001 735000                    ALS     1
         3 004152   000000 620005                    EAX0    0,AL
         3 004153   000000 621005                    EAX1    0,AL
         3 004154   000172 237000 4                  LDAQ    122
         3 004155   000000 755010 xsym               STA     FMT_VEC,X0
         3 004156   000001 756011 xsym               STQ     FMT_VEC+1,X1
         3 004157   004377 710000 3                  TRA     s:17114

     1259    17077    6               SELECT(FS_SUBFILE_INT);

     1260    17078    6               FMT_VEC (VEC_NUM) = VECTOR(SUBFILE_INT_STR);

  17078  3 004160   200117 235100                    LDA     VEC_NUM,,AUTO
PL6.E3A0      #003=ASL$DISP_ONE_FORM File=ASL$DISPLAY_FORM.:E05TSI               TUE 07/29/97 09:59 Page:217
         3 004161   000001 735000                    ALS     1
         3 004162   000000 620005                    EAX0    0,AL
         3 004163   000000 621005                    EAX1    0,AL
         3 004164   000174 237000 4                  LDAQ    124
         3 004165   000000 755010 xsym               STA     FMT_VEC,X0
         3 004166   000001 756011 xsym               STQ     FMT_VEC+1,X1
         3 004167   004377 710000 3                  TRA     s:17114

     1261    17079    6               SELECT(FS_LOGO_INT);

     1262    17080    6               FMT_VEC (VEC_NUM) = VECTOR(LOGO_INT_STR);

  17080  3 004170   200117 235100                    LDA     VEC_NUM,,AUTO
         3 004171   000001 735000                    ALS     1
         3 004172   000000 620005                    EAX0    0,AL
         3 004173   000000 621005                    EAX1    0,AL
         3 004174   000176 237000 4                  LDAQ    126
         3 004175   000000 755010 xsym               STA     FMT_VEC,X0
         3 004176   000001 756011 xsym               STQ     FMT_VEC+1,X1
         3 004177   004377 710000 3                  TRA     s:17114

     1263    17081    6               SELECT(FS_WOD_INT);

     1264    17082    6               FMT_VEC (VEC_NUM) = VECTOR(WOD_INT_STR);

  17082  3 004200   200117 235100                    LDA     VEC_NUM,,AUTO
         3 004201   000001 735000                    ALS     1
         3 004202   000000 620005                    EAX0    0,AL
         3 004203   000000 621005                    EAX1    0,AL
         3 004204   000200 237000 4                  LDAQ    128
         3 004205   000000 755010 xsym               STA     FMT_VEC,X0
         3 004206   000001 756011 xsym               STQ     FMT_VEC+1,X1
         3 004207   004377 710000 3                  TRA     s:17114

     1265    17083    6               SELECT(FS_SITENAME_INT);

     1266    17084    6               FMT_VEC (VEC_NUM) = VECTOR(SITENAME_INT_STR);
PL6.E3A0      #003=ASL$DISP_ONE_FORM File=ASL$DISPLAY_FORM.:E05TSI               TUE 07/29/97 09:59 Page:218

  17084  3 004210   200117 235100                    LDA     VEC_NUM,,AUTO
         3 004211   000001 735000                    ALS     1
         3 004212   000000 620005                    EAX0    0,AL
         3 004213   000000 621005                    EAX1    0,AL
         3 004214   000202 237000 4                  LDAQ    130
         3 004215   000000 755010 xsym               STA     FMT_VEC,X0
         3 004216   000001 756011 xsym               STQ     FMT_VEC+1,X1
         3 004217   004377 710000 3                  TRA     s:17114

     1267    17085    6               SELECT(FS_SALUTE_INT);

     1268    17086    6               FMT_VEC (VEC_NUM) = VECTOR(SALUTE_INT_STR);

  17086  3 004220   200117 235100                    LDA     VEC_NUM,,AUTO
         3 004221   000001 735000                    ALS     1
         3 004222   000000 620005                    EAX0    0,AL
         3 004223   000000 621005                    EAX1    0,AL
         3 004224   000204 237000 4                  LDAQ    132
         3 004225   000000 755010 xsym               STA     FMT_VEC,X0
         3 004226   000001 756011 xsym               STQ     FMT_VEC+1,X1
         3 004227   004377 710000 3                  TRA     s:17114

     1269    17087    6               SELECT(FS_FORM_INT);

     1270    17088    6               FMT_VEC (VEC_NUM) = VECTOR(FORM_INT_STR);

  17088  3 004230   200117 235100                    LDA     VEC_NUM,,AUTO
         3 004231   000001 735000                    ALS     1
         3 004232   000000 620005                    EAX0    0,AL
         3 004233   000000 621005                    EAX1    0,AL
         3 004234   000206 237000 4                  LDAQ    134
         3 004235   000000 755010 xsym               STA     FMT_VEC,X0
         3 004236   000001 756011 xsym               STQ     FMT_VEC+1,X1
         3 004237   004377 710000 3                  TRA     s:17114

     1271    17089    6               SELECT(FS_MINI_ID_INT);
PL6.E3A0      #003=ASL$DISP_ONE_FORM File=ASL$DISPLAY_FORM.:E05TSI               TUE 07/29/97 09:59 Page:219

     1272    17090    6               FMT_VEC (VEC_NUM) = VECTOR(MINI_ID_INT_STR);

  17090  3 004240   200117 235100                    LDA     VEC_NUM,,AUTO
         3 004241   000001 735000                    ALS     1
         3 004242   000000 620005                    EAX0    0,AL
         3 004243   000000 621005                    EAX1    0,AL
         3 004244   000210 237000 4                  LDAQ    136
         3 004245   000000 755010 xsym               STA     FMT_VEC,X0
         3 004246   000001 756011 xsym               STQ     FMT_VEC+1,X1
         3 004247   004377 710000 3                  TRA     s:17114

     1273    17091    6               SELECT(FS_BANNERTEXT0_INT);

     1274    17092    6               FMT_VEC (VEC_NUM) = VECTOR(BAN0_INT_STR);

  17092  3 004250   200117 235100                    LDA     VEC_NUM,,AUTO
         3 004251   000001 735000                    ALS     1
         3 004252   000000 620005                    EAX0    0,AL
         3 004253   000000 621005                    EAX1    0,AL
         3 004254   000212 237000 4                  LDAQ    138
         3 004255   000000 755010 xsym               STA     FMT_VEC,X0
         3 004256   000001 756011 xsym               STQ     FMT_VEC+1,X1
         3 004257   004377 710000 3                  TRA     s:17114

     1275    17093    6               SELECT(FS_BANNERTEXT1_INT);

     1276    17094    6               FMT_VEC (VEC_NUM) = VECTOR(BAN1_INT_STR);

  17094  3 004260   200117 235100                    LDA     VEC_NUM,,AUTO
         3 004261   000001 735000                    ALS     1
         3 004262   000000 620005                    EAX0    0,AL
         3 004263   000000 621005                    EAX1    0,AL
         3 004264   000214 237000 4                  LDAQ    140
         3 004265   000000 755010 xsym               STA     FMT_VEC,X0
         3 004266   000001 756011 xsym               STQ     FMT_VEC+1,X1
         3 004267   004377 710000 3                  TRA     s:17114
PL6.E3A0      #003=ASL$DISP_ONE_FORM File=ASL$DISPLAY_FORM.:E05TSI               TUE 07/29/97 09:59 Page:220

     1277    17095    6               SELECT(FS_BANNERTEXT2_INT);

     1278    17096    6               FMT_VEC (VEC_NUM) = VECTOR(BAN2_INT_STR);

  17096  3 004270   200117 235100                    LDA     VEC_NUM,,AUTO
         3 004271   000001 735000                    ALS     1
         3 004272   000000 620005                    EAX0    0,AL
         3 004273   000000 621005                    EAX1    0,AL
         3 004274   000216 237000 4                  LDAQ    142
         3 004275   000000 755010 xsym               STA     FMT_VEC,X0
         3 004276   000001 756011 xsym               STQ     FMT_VEC+1,X1
         3 004277   004377 710000 3                  TRA     s:17114

     1279    17097    6               SELECT(FS_BANNERTEXT3_INT);

     1280    17098    6               FMT_VEC (VEC_NUM) = VECTOR(BAN3_INT_STR);

  17098  3 004300   200117 235100                    LDA     VEC_NUM,,AUTO
         3 004301   000001 735000                    ALS     1
         3 004302   000000 620005                    EAX0    0,AL
         3 004303   000000 621005                    EAX1    0,AL
         3 004304   000220 237000 4                  LDAQ    144
         3 004305   000000 755010 xsym               STA     FMT_VEC,X0
         3 004306   000001 756011 xsym               STQ     FMT_VEC+1,X1
         3 004307   004377 710000 3                  TRA     s:17114

     1281    17099    6               SELECT(FS_BANNERTEXT4_INT);

     1282    17100    6               FMT_VEC (VEC_NUM) = VECTOR(BAN4_INT_STR);

  17100  3 004310   200117 235100                    LDA     VEC_NUM,,AUTO
         3 004311   000001 735000                    ALS     1
         3 004312   000000 620005                    EAX0    0,AL
         3 004313   000000 621005                    EAX1    0,AL
         3 004314   000222 237000 4                  LDAQ    146
         3 004315   000000 755010 xsym               STA     FMT_VEC,X0
PL6.E3A0      #003=ASL$DISP_ONE_FORM File=ASL$DISPLAY_FORM.:E05TSI               TUE 07/29/97 09:59 Page:221
         3 004316   000001 756011 xsym               STQ     FMT_VEC+1,X1
         3 004317   004377 710000 3                  TRA     s:17114

     1283    17101    6               SELECT(FS_BANNERTEXT5_INT);

     1284    17102    6               FMT_VEC (VEC_NUM) = VECTOR(BAN5_INT_STR);

  17102  3 004320   200117 235100                    LDA     VEC_NUM,,AUTO
         3 004321   000001 735000                    ALS     1
         3 004322   000000 620005                    EAX0    0,AL
         3 004323   000000 621005                    EAX1    0,AL
         3 004324   000224 237000 4                  LDAQ    148
         3 004325   000000 755010 xsym               STA     FMT_VEC,X0
         3 004326   000001 756011 xsym               STQ     FMT_VEC+1,X1
         3 004327   004377 710000 3                  TRA     s:17114

     1285    17103    6               SELECT(FS_BANNERTEXT6_INT);

     1286    17104    6               FMT_VEC (VEC_NUM) = VECTOR(BAN6_INT_STR);

  17104  3 004330   200117 235100                    LDA     VEC_NUM,,AUTO
         3 004331   000001 735000                    ALS     1
         3 004332   000000 620005                    EAX0    0,AL
         3 004333   000000 621005                    EAX1    0,AL
         3 004334   000226 237000 4                  LDAQ    150
         3 004335   000000 755010 xsym               STA     FMT_VEC,X0
         3 004336   000001 756011 xsym               STQ     FMT_VEC+1,X1
         3 004337   004377 710000 3                  TRA     s:17114

     1287    17105    6               SELECT(FS_BANNERTEXT7_INT);

     1288    17106    6               FMT_VEC (VEC_NUM) = VECTOR(BAN7_INT_STR);

  17106  3 004340   200117 235100                    LDA     VEC_NUM,,AUTO
         3 004341   000001 735000                    ALS     1
         3 004342   000000 620005                    EAX0    0,AL
         3 004343   000000 621005                    EAX1    0,AL
PL6.E3A0      #003=ASL$DISP_ONE_FORM File=ASL$DISPLAY_FORM.:E05TSI               TUE 07/29/97 09:59 Page:222
         3 004344   000230 237000 4                  LDAQ    152
         3 004345   000000 755010 xsym               STA     FMT_VEC,X0
         3 004346   000001 756011 xsym               STQ     FMT_VEC+1,X1
         3 004347   004377 710000 3                  TRA     s:17114

     1289    17107    6               SELECT(FS_BANNERTEXT8_INT);

     1290    17108    6               FMT_VEC (VEC_NUM) = VECTOR(BAN8_INT_STR);

  17108  3 004350   200117 235100                    LDA     VEC_NUM,,AUTO
         3 004351   000001 735000                    ALS     1
         3 004352   000000 620005                    EAX0    0,AL
         3 004353   000000 621005                    EAX1    0,AL
         3 004354   000232 237000 4                  LDAQ    154
         3 004355   000000 755010 xsym               STA     FMT_VEC,X0
         3 004356   000001 756011 xsym               STQ     FMT_VEC+1,X1
         3 004357   004377 710000 3                  TRA     s:17114

     1291    17109    6               SELECT(FS_BANNERTEXT9_INT);

     1292    17110    6               FMT_VEC (VEC_NUM) = VECTOR(BAN9_INT_STR);

  17110  3 004360   200117 235100                    LDA     VEC_NUM,,AUTO
         3 004361   000001 735000                    ALS     1
         3 004362   000000 620005                    EAX0    0,AL
         3 004363   000000 621005                    EAX1    0,AL
         3 004364   000234 237000 4                  LDAQ    156
         3 004365   000000 755010 xsym               STA     FMT_VEC,X0
         3 004366   000001 756011 xsym               STQ     FMT_VEC+1,X1
         3 004367   004377 710000 3                  TRA     s:17114

     1293    17111    6               SELECT(FS_REGISTEREDNAME_INT);

     1294    17112    6               FMT_VEC (VEC_NUM) = VECTOR(REGNAM_INT_STR);

  17112  3 004370   200117 235100                    LDA     VEC_NUM,,AUTO
         3 004371   000001 735000                    ALS     1
PL6.E3A0      #003=ASL$DISP_ONE_FORM File=ASL$DISPLAY_FORM.:E05TSI               TUE 07/29/97 09:59 Page:223
         3 004372   000000 620005                    EAX0    0,AL
         3 004373   000000 621005                    EAX1    0,AL
         3 004374   000236 237000 4                  LDAQ    158
         3 004375   000000 755010 xsym               STA     FMT_VEC,X0
         3 004376   000001 756011 xsym               STQ     FMT_VEC+1,X1

     1295    17113    6               END;

     1296    17114    5            CALL X$FORMAT(FDS);

  17114  3 004377   000010 630400 4                  EPPR0   8
         3 004400   000017 631400 xsym               EPPR1   B_VECTNIL+15
         3 004401   000000 701000 xent               TSX1    X$FORMAT
         3 004402   000000 011000                    NOP     0

     1297    17115    5            END;

  17115  3 004403   200123 054100                    AOS     I,,AUTO
         3 004404   000000 470400 1                  LDP0    P$
         3 004405   000100 101500                    MRL     fill='000'O
         3 004406   000000 600001                    ADSC9   0,,PR0                   cn=3,n=1
         3 004407   200126 000004                    ADSC9   I+1,,AUTO                cn=0,n=4
         3 004410   200126 236100                    LDQ     I+1,,AUTO
         3 004411   200123 116100                    CMPQ    I,,AUTO
         3 004412   003271 605400 3                  TPNZ    s:17004

     1298    17116    4         END;

     1299    17117    3      END;  /*  If not jcl  */

  17117  3 004413   005413 710000 3                  TRA     s:17249

     1300    17118    3   ELSE DO;   /*   Jcl  */

     1301    17119    3      IF FS$BAN.NUM_ENTRIES>0

  17119  3 004414   000000 471400 1                  LDP1    P$
PL6.E3A0      #003=ASL$DISP_ONE_FORM File=ASL$DISPLAY_FORM.:E05TSI               TUE 07/29/97 09:59 Page:224
         3 004415   000100 101500                    MRL     fill='000'O
         3 004416   100000 600001                    ADSC9   0,,PR1                   cn=3,n=1
         3 004417   200126 000004                    ADSC9   I+1,,AUTO                cn=0,n=4
         3 004420   200126 236100                    LDQ     I+1,,AUTO
         3 004421   000000 116003                    CMPQ    0,DU
         3 004422   005413 600000 3                  TZE     s:17249

     1302    17120    4      THEN DO;

     1303    17121    5         DO I=0 TO FS$BAN.NUM_ENTRIES-1;

  17121  3 004423   200123 450100                    STZ     I,,AUTO
         3 004424   005400 710000 3                  TRA     s:17245+1

     1304    17122    5            IF GRAPHIC

  17122  3 004425   200030 234100                    SZN     GRAPHIC,,AUTO
         3 004426   004546 605000 3                  TPL     s:17137

     1305    17123    6            THEN DO;

     1306    17124    6               FMT_BUF = ENTRY_GRAPH_JCL_FMT;

  17124  3 004427   040000 100400                    MLR     fill='040'O
         3 004430   000200 000022 2                  ADSC9   ENTRY_GRAPH_JCL_FMT      cn=0,n=18
         3 004431   000000 000377 xsym               ADSC9   FMT_BUF                  cn=0,n=255

     1307    17125    6               FDS.FMT_.BOUND = SIZEC ( ENTRY_GRAPH_JCL_FMT ) - 1;

  17125  3 004432   000000 236000 xsym               LDQ     FDS
         3 004433   177777 376007                    ANQ     65535,DL
         3 004434   000240 276000 4                  ORQ     160
         3 004435   000000 756000 xsym               STQ     FDS

     1308    17126    6               FDS.NVECS# = 7;

  17126  3 004436   000007 235007                    LDA     7,DL
PL6.E3A0      #003=ASL$DISP_ONE_FORM File=ASL$DISPLAY_FORM.:E05TSI               TUE 07/29/97 09:59 Page:225
         3 004437   000011 755000 xsym               STA     FDS+9

     1309    17127    6               FMT_VEC (0) = VECTOR (FS$GBAN.ENTRIES.X_VAL (I));

  17127  3 004440   377640 235007                    LDA     130976,DL
         3 004441   200123 236100                    LDQ     I,,AUTO
         3 004442   200126 755100                    STA     I+1,,AUTO
         3 004443   000014 402003                    MPY     12,DU
         3 004444   000041 036000 4                  ADLQ    33
         3 004445   000000 036000 1                  ADLQ    P$
         3 004446   200126 235100                    LDA     I+1,,AUTO
         3 004447   000000 755000 xsym               STA     FMT_VEC
         3 004450   000001 756000 xsym               STQ     FMT_VEC+1

     1310    17128    6               FMT_VEC (1) = VECTOR (FS$GBAN.ENTRIES.Y_VAL (I));

  17128  3 004451   377640 235007                    LDA     130976,DL
         3 004452   200123 236100                    LDQ     I,,AUTO
         3 004453   200126 755100                    STA     I+1,,AUTO
         3 004454   000014 402003                    MPY     12,DU
         3 004455   000122 036000 4                  ADLQ    82
         3 004456   000000 036000 1                  ADLQ    P$
         3 004457   200126 235100                    LDA     I+1,,AUTO
         3 004460   000002 755000 xsym               STA     FMT_VEC+2
         3 004461   000003 756000 xsym               STQ     FMT_VEC+3

     1311    17129    6               FMT_VEC (2) = VECTOR (FS$GBAN.ENTRIES.Z_VAL (I));

  17129  3 004462   377640 235007                    LDA     130976,DL
         3 004463   200123 236100                    LDQ     I,,AUTO
         3 004464   200126 755100                    STA     I+1,,AUTO
         3 004465   000014 402003                    MPY     12,DU
         3 004466   000144 036000 4                  ADLQ    100
         3 004467   000000 036000 1                  ADLQ    P$
         3 004470   200126 235100                    LDA     I+1,,AUTO
         3 004471   000004 755000 xsym               STA     FMT_VEC+4
         3 004472   000005 756000 xsym               STQ     FMT_VEC+5
PL6.E3A0      #003=ASL$DISP_ONE_FORM File=ASL$DISPLAY_FORM.:E05TSI               TUE 07/29/97 09:59 Page:226

     1312    17130    6               FMT_VEC (3) = VECTOR (FS$GBAN.ENTRIES.DIRECTION(I));

  17130  3 004473   177640 235007                    LDA     65440,DL
         3 004474   200123 236100                    LDQ     I,,AUTO
         3 004475   200126 755100                    STA     I+1,,AUTO
         3 004476   000014 402003                    MPY     12,DU
         3 004477   000003 036003                    ADLQ    3,DU
         3 004500   000000 036000 1                  ADLQ    P$
         3 004501   200126 235100                    LDA     I+1,,AUTO
         3 004502   000006 755000 xsym               STA     FMT_VEC+6
         3 004503   000007 756000 xsym               STQ     FMT_VEC+7

     1313    17131    6               FMT_VEC (4) = VECTOR (FS$GBAN.ENTRIES.CHAR_WIDTH (I));

  17131  3 004504   377640 235007                    LDA     130976,DL
         3 004505   200123 236100                    LDQ     I,,AUTO
         3 004506   200126 755100                    STA     I+1,,AUTO
         3 004507   000014 402003                    MPY     12,DU
         3 004510   000145 036000 4                  ADLQ    101
         3 004511   000000 036000 1                  ADLQ    P$
         3 004512   200126 235100                    LDA     I+1,,AUTO
         3 004513   000010 755000 xsym               STA     FMT_VEC+8
         3 004514   000011 756000 xsym               STQ     FMT_VEC+9

     1314    17132    6               FMT_VEC (5) = VECTOR (FS$GBAN.ENTRIES.CHAR_HITE (I));

  17132  3 004515   377640 235007                    LDA     130976,DL
         3 004516   200123 236100                    LDQ     I,,AUTO
         3 004517   200126 755100                    STA     I+1,,AUTO
         3 004520   000014 402003                    MPY     12,DU
         3 004521   000052 036000 4                  ADLQ    42
         3 004522   000000 036000 1                  ADLQ    P$
         3 004523   200126 235100                    LDA     I+1,,AUTO
         3 004524   000012 755000 xsym               STA     FMT_VEC+10
         3 004525   000013 756000 xsym               STQ     FMT_VEC+11

PL6.E3A0      #003=ASL$DISP_ONE_FORM File=ASL$DISPLAY_FORM.:E05TSI               TUE 07/29/97 09:59 Page:227
     1315    17133    6               FMT_VEC (6) = VECTOR (FS$GBAN.ENTRIES.CHAR_SPACE (I));

  17133  3 004526   377640 235007                    LDA     130976,DL
         3 004527   200123 236100                    LDQ     I,,AUTO
         3 004530   200126 755100                    STA     I+1,,AUTO
         3 004531   000014 402003                    MPY     12,DU
         3 004532   000040 036000 4                  ADLQ    32
         3 004533   000000 036000 1                  ADLQ    P$
         3 004534   200126 235100                    LDA     I+1,,AUTO
         3 004535   000014 755000 xsym               STA     FMT_VEC+12
         3 004536   000015 756000 xsym               STQ     FMT_VEC+13

     1316    17134    6               TYPE = FS$GBAN.ENTRIES.TYPE (I);

  17134  3 004537   200123 236100                    LDQ     I,,AUTO
         3 004540   000060 402007                    MPY     48,DL
         3 004541   000000 470400 1                  LDP0    P$
         3 004542   000100 100506                    MLR     fill='000'O
         3 004543   000012 200001                    ADSC9   10,Q,PR0                 cn=1,n=1
         3 004544   200110 000001                    ADSC9   TYPE,,AUTO               cn=0,n=1

     1317    17135    6               END;   /*  Graphic form  */

  17135  3 004545   004655 710000 3                  TRA     s:17150

     1318    17136    6            ELSE DO;

     1319    17137    6               FMT_BUF = ENTRY_JCL_FMT;

  17137  3 004546   040000 100400                    MLR     fill='040'O
         3 004547   000205 000022 2                  ADSC9   ENTRY_JCL_FMT            cn=0,n=18
         3 004550   000000 000377 xsym               ADSC9   FMT_BUF                  cn=0,n=255

     1320    17138    6               FDS.FMT_.BOUND = SIZEC ( ENTRY_JCL_FMT ) - 1;

  17138  3 004551   000000 236000 xsym               LDQ     FDS
         3 004552   177777 376007                    ANQ     65535,DL
PL6.E3A0      #003=ASL$DISP_ONE_FORM File=ASL$DISPLAY_FORM.:E05TSI               TUE 07/29/97 09:59 Page:228
         3 004553   000240 276000 4                  ORQ     160
         3 004554   000000 756000 xsym               STQ     FDS

     1321    17139    6               FDS.NVECS# = 8;

  17139  3 004555   000010 235007                    LDA     8,DL
         3 004556   000011 755000 xsym               STA     FDS+9

     1322    17140    6               FMT_VEC(0) = VECTOR(FS$BAN.ENTRIES.ROW(I));

  17140  3 004557   177640 235007                    LDA     65440,DL
         3 004560   200123 236100                    LDQ     I,,AUTO
         3 004561   000024 736000                    QLS     20
         3 004562   000001 036003                    ADLQ    1,DU
         3 004563   000000 036000 1                  ADLQ    P$
         3 004564   000000 755000 xsym               STA     FMT_VEC
         3 004565   000001 756000 xsym               STQ     FMT_VEC+1

     1323    17141    6               FMT_VEC(1) = VECTOR(FS$BAN.ENTRIES.COL(I));

  17141  3 004566   177640 235007                    LDA     65440,DL
         3 004567   200123 236100                    LDQ     I,,AUTO
         3 004570   000024 736000                    QLS     20
         3 004571   000000 036000 4                  ADLQ    0
         3 004572   000000 036000 1                  ADLQ    P$
         3 004573   000002 755000 xsym               STA     FMT_VEC+2
         3 004574   000003 756000 xsym               STQ     FMT_VEC+3

     1324    17142    6               FMT_VEC(2) = VECTOR(FS$BAN.ENTRIES.FONT(I));

  17142  3 004575   177640 235007                    LDA     65440,DL
         3 004576   200123 236100                    LDQ     I,,AUTO
         3 004577   000024 736000                    QLS     20
         3 004600   000146 036000 4                  ADLQ    102
         3 004601   000000 036000 1                  ADLQ    P$
         3 004602   000004 755000 xsym               STA     FMT_VEC+4
         3 004603   000005 756000 xsym               STQ     FMT_VEC+5
PL6.E3A0      #003=ASL$DISP_ONE_FORM File=ASL$DISPLAY_FORM.:E05TSI               TUE 07/29/97 09:59 Page:229

     1325    17143    6               FMT_VEC(3) = VECTOR(FS$BAN.ENTRIES.STRIKES(I));

  17143  3 004604   177640 235007                    LDA     65440,DL
         3 004605   200123 236100                    LDQ     I,,AUTO
         3 004606   000024 736000                    QLS     20
         3 004607   000106 036000 4                  ADLQ    70
         3 004610   000000 036000 1                  ADLQ    P$
         3 004611   000006 755000 xsym               STA     FMT_VEC+6
         3 004612   000007 756000 xsym               STQ     FMT_VEC+7

     1326    17144    6               FMT_VEC(4) = VECTOR(FS$BAN.ENTRIES.ICSH(I));

  17144  3 004613   177640 235007                    LDA     65440,DL
         3 004614   200123 236100                    LDQ     I,,AUTO
         3 004615   000024 736000                    QLS     20
         3 004616   000002 036003                    ADLQ    2,DU
         3 004617   000000 036000 1                  ADLQ    P$
         3 004620   000010 755000 xsym               STA     FMT_VEC+8
         3 004621   000011 756000 xsym               STQ     FMT_VEC+9

     1327    17145    6               FMT_VEC(5) = VECTOR(FS$BAN.ENTRIES.REPS(I));

  17145  3 004622   177640 235007                    LDA     65440,DL
         3 004623   200123 236100                    LDQ     I,,AUTO
         3 004624   000024 736000                    QLS     20
         3 004625   000111 036000 4                  ADLQ    73
         3 004626   000000 036000 1                  ADLQ    P$
         3 004627   000012 755000 xsym               STA     FMT_VEC+10
         3 004630   000013 756000 xsym               STQ     FMT_VEC+11

     1328    17146    6               FMT_VEC(6) = VECTOR(FS$BAN.ENTRIES.RINC(I));

  17146  3 004631   177640 235007                    LDA     65440,DL
         3 004632   200123 236100                    LDQ     I,,AUTO
         3 004633   000024 736000                    QLS     20
         3 004634   000147 036000 4                  ADLQ    103
PL6.E3A0      #003=ASL$DISP_ONE_FORM File=ASL$DISPLAY_FORM.:E05TSI               TUE 07/29/97 09:59 Page:230
         3 004635   000000 036000 1                  ADLQ    P$
         3 004636   000014 755000 xsym               STA     FMT_VEC+12
         3 004637   000015 756000 xsym               STQ     FMT_VEC+13

     1329    17147    6               FMT_VEC(7) = VECTOR(FS$BAN.ENTRIES.CINC(I));

  17147  3 004640   177640 235007                    LDA     65440,DL
         3 004641   200123 236100                    LDQ     I,,AUTO
         3 004642   000024 736000                    QLS     20
         3 004643   000046 036000 4                  ADLQ    38
         3 004644   000000 036000 1                  ADLQ    P$
         3 004645   000016 755000 xsym               STA     FMT_VEC+14
         3 004646   000017 756000 xsym               STQ     FMT_VEC+15

     1330    17148    6               TYPE = FS$BAN.ENTRIES.TYPE (I);

  17148  3 004647   200123 235100                    LDA     I,,AUTO
         3 004650   000004 735000                    ALS     4
         3 004651   000000 470400 1                  LDP0    P$
         3 004652   000100 100505                    MLR     fill='000'O
         3 004653   000003 000001                    ADSC9   3,A,PR0                  cn=0,n=1
         3 004654   200110 000001                    ADSC9   TYPE,,AUTO               cn=0,n=1

     1331    17149    6               END;   /*  Non graphic form  */

     1332    17150    5            CALL X$FORMAT(FDS);

  17150  3 004655   000010 630400 4                  EPPR0   8
         3 004656   000017 631400 xsym               EPPR1   B_VECTNIL+15
         3 004657   000000 701000 xent               TSX1    X$FORMAT
         3 004660   000000 011000                    NOP     0

     1333    17151    5            FMT_BUF = SETUP_TXT_FMT;

  17151  3 004661   040000 100400                    MLR     fill='040'O
         3 004662   000512 000002 2                  ADSC9   SETUP_TXT_FMT            cn=0,n=2
         3 004663   000000 000377 xsym               ADSC9   FMT_BUF                  cn=0,n=255
PL6.E3A0      #003=ASL$DISP_ONE_FORM File=ASL$DISPLAY_FORM.:E05TSI               TUE 07/29/97 09:59 Page:231

     1334    17152    5            FDS.FMT_.BOUND = SIZEC ( SETUP_TXT_FMT ) - 1;

  17152  3 004664   000000 236000 xsym               LDQ     FDS
         3 004665   177777 376007                    ANQ     65535,DL
         3 004666   200000 276007                    ORQ     65536,DL
         3 004667   000000 756000 xsym               STQ     FDS

     1335    17153    5            FDS.NVECS# = 1;

  17153  3 004670   000001 235007                    LDA     1,DL
         3 004671   000011 755000 xsym               STA     FDS+9

     1336    17154    5            NO_TEXT = %NO#;

  17154  3 004672   200076 450100                    STZ     NO_TEXT,,AUTO

     1337    17155    6            DO SELECT (TYPE);

  17155  3 004673   200110 236100                    LDQ     TYPE,,AUTO
         3 004674   000033 772000                    QRL     27
         3 004675   000020 116007                    CMPQ    16,DL
         3 004676   004761 602000 3                  TNC     s:17155+54
         3 004677   005306 600000 3                  TZE     s:17217
         3 004700   000030 116007                    CMPQ    24,DL
         3 004701   004722 602000 3                  TNC     s:17155+23
         3 004702   005346 600000 3                  TZE     s:17233
         3 004703   000032 116007                    CMPQ    26,DL
         3 004704   004715 602000 3                  TNC     s:17155+18
         3 004705   005356 600000 3                  TZE     s:17237
         3 004706   000033 116007                    CMPQ    27,DL
         3 004707   005371 602000 3                  TNC     s:17243
         3 004710   005362 600000 3                  TZE     s:17239
         3 004711   000033 736000                    QLS     27
         3 004712   034000 116003                    CMPQ    14336,DU
         3 004713   005371 601000 3                  TNZ     s:17243
         3 004714   005366 710000 3                  TRA     s:17241
PL6.E3A0      #003=ASL$DISP_ONE_FORM File=ASL$DISPLAY_FORM.:E05TSI               TUE 07/29/97 09:59 Page:232
         3 004715   200110 236100                    LDQ     TYPE,,AUTO
         3 004716   777000 376003                    ANQ     -512,DU
         3 004717   031000 116003                    CMPQ    12800,DU
         3 004720   005371 601000 3                  TNZ     s:17243
         3 004721   005352 710000 3                  TRA     s:17235
         3 004722   200110 236100                    LDQ     TYPE,,AUTO
         3 004723   000033 772000                    QRL     27
         3 004724   000024 116007                    CMPQ    20,DL
         3 004725   004743 602000 3                  TNC     s:17155+40
         3 004726   005326 600000 3                  TZE     s:17225
         3 004727   000026 116007                    CMPQ    22,DL
         3 004730   004736 602000 3                  TNC     s:17155+35
         3 004731   005336 600000 3                  TZE     s:17229
         3 004732   000033 736000                    QLS     27
         3 004733   027000 116003                    CMPQ    11776,DU
         3 004734   005371 601000 3                  TNZ     s:17243
         3 004735   005342 710000 3                  TRA     s:17231
         3 004736   200110 236100                    LDQ     TYPE,,AUTO
         3 004737   777000 376003                    ANQ     -512,DU
         3 004740   025000 116003                    CMPQ    10752,DU
         3 004741   005371 601000 3                  TNZ     s:17243
         3 004742   005332 710000 3                  TRA     s:17227
         3 004743   200110 236100                    LDQ     TYPE,,AUTO
         3 004744   000033 772000                    QRL     27
         3 004745   000022 116007                    CMPQ    18,DL
         3 004746   004754 602000 3                  TNC     s:17155+49
         3 004747   005316 600000 3                  TZE     s:17221
         3 004750   000033 736000                    QLS     27
         3 004751   023000 116003                    CMPQ    9728,DU
         3 004752   005371 601000 3                  TNZ     s:17243
         3 004753   005322 710000 3                  TRA     s:17223
         3 004754   200110 236100                    LDQ     TYPE,,AUTO
         3 004755   777000 376003                    ANQ     -512,DU
         3 004756   021000 116003                    CMPQ    8704,DU
         3 004757   005371 601000 3                  TNZ     s:17243
         3 004760   005312 710000 3                  TRA     s:17219
         3 004761   200110 236100                    LDQ     TYPE,,AUTO
PL6.E3A0      #003=ASL$DISP_ONE_FORM File=ASL$DISPLAY_FORM.:E05TSI               TUE 07/29/97 09:59 Page:233
         3 004762   000033 772000                    QRL     27
         3 004763   000007 116007                    CMPQ    7,DL
         3 004764   005023 602000 3                  TNC     s:17155+88
         3 004765   005252 600000 3                  TZE     s:17203
         3 004766   000013 116007                    CMPQ    11,DL
         3 004767   005005 602000 3                  TNC     s:17155+74
         3 004770   005174 600000 3                  TZE     s:17181
         3 004771   000016 116007                    CMPQ    14,DL
         3 004772   005000 602000 3                  TNC     s:17155+69
         3 004773   005276 600000 3                  TZE     s:17213
         3 004774   000033 736000                    QLS     27
         3 004775   017000 116003                    CMPQ    7680,DU
         3 004776   005371 601000 3                  TNZ     s:17243
         3 004777   005302 710000 3                  TRA     s:17215
         3 005000   200110 236100                    LDQ     TYPE,,AUTO
         3 005001   777000 376003                    ANQ     -512,DU
         3 005002   014000 116003                    CMPQ    6144,DU
         3 005003   005371 601000 3                  TNZ     s:17243
         3 005004   005272 710000 3                  TRA     s:17211
         3 005005   200110 236100                    LDQ     TYPE,,AUTO
         3 005006   000033 772000                    QRL     27
         3 005007   000011 116007                    CMPQ    9,DL
         3 005010   005016 602000 3                  TNC     s:17155+83
         3 005011   005262 600000 3                  TZE     s:17207
         3 005012   000033 736000                    QLS     27
         3 005013   012000 116003                    CMPQ    5120,DU
         3 005014   005371 601000 3                  TNZ     s:17243
         3 005015   005266 710000 3                  TRA     s:17209
         3 005016   200110 236100                    LDQ     TYPE,,AUTO
         3 005017   777000 376003                    ANQ     -512,DU
         3 005020   010000 116003                    CMPQ    4096,DU
         3 005021   005371 601000 3                  TNZ     s:17243
         3 005022   005256 710000 3                  TRA     s:17205
         3 005023   200110 236100                    LDQ     TYPE,,AUTO
         3 005024   000033 772000                    QRL     27
         3 005025   000003 116007                    CMPQ    3,DL
         3 005026   005044 602000 3                  TNC     s:17155+105
PL6.E3A0      #003=ASL$DISP_ONE_FORM File=ASL$DISPLAY_FORM.:E05TSI               TUE 07/29/97 09:59 Page:234
         3 005027   005232 600000 3                  TZE     s:17195
         3 005030   000005 116007                    CMPQ    5,DL
         3 005031   005037 602000 3                  TNC     s:17155+100
         3 005032   005242 600000 3                  TZE     s:17199
         3 005033   000033 736000                    QLS     27
         3 005034   006000 116003                    CMPQ    3072,DU
         3 005035   005371 601000 3                  TNZ     s:17243
         3 005036   005246 710000 3                  TRA     s:17201
         3 005037   200110 236100                    LDQ     TYPE,,AUTO
         3 005040   777000 376003                    ANQ     -512,DU
         3 005041   004000 116003                    CMPQ    2048,DU
         3 005042   005371 601000 3                  TNZ     s:17243
         3 005043   005236 710000 3                  TRA     s:17197
         3 005044   200110 236100                    LDQ     TYPE,,AUTO
         3 005045   000033 772000                    QRL     27
         3 005046   000001 116007                    CMPQ    1,DL
         3 005047   005055 602000 3                  TNC     s:17155+114
         3 005050   005222 600000 3                  TZE     s:17191
         3 005051   000033 736000                    QLS     27
         3 005052   002000 116003                    CMPQ    1024,DU
         3 005053   005371 601000 3                  TNZ     s:17243
         3 005054   005226 710000 3                  TRA     s:17193
         3 005055   200110 236100                    LDQ     TYPE,,AUTO
         3 005056   777000 316003                    CANQ    -512,DU
         3 005057   005061 600000 3                  TZE     s:17157
         3 005060   005371 710000 3                  TRA     s:17243

     1338    17156    6               SELECT(FS_PLAIN_TEXT);

     1339    17157    6               IF GRAPHIC

  17157  3 005061   200030 234100                    SZN     GRAPHIC,,AUTO
         3 005062   005131 605000 3                  TPL     s:17170

     1340    17158    7               THEN DO;

     1341    17159    7                  IF FS$GBAN.ENTRIES.COUNT(I) = 0
PL6.E3A0      #003=ASL$DISP_ONE_FORM File=ASL$DISPLAY_FORM.:E05TSI               TUE 07/29/97 09:59 Page:235

  17159  3 005063   200123 236100                    LDQ     I,,AUTO
         3 005064   000060 402007                    MPY     48,DL
         3 005065   000000 470400 1                  LDP0    P$
         3 005066   000100 101506                    MRL     fill='000'O
         3 005067   000012 400001                    ADSC9   10,Q,PR0                 cn=2,n=1
         3 005070   200126 000004                    ADSC9   I+1,,AUTO                cn=0,n=4
         3 005071   200126 236100                    LDQ     I+1,,AUTO
         3 005072   000000 116003                    CMPQ    0,DU
         3 005073   005077 601000 3                  TNZ     s:17164

     1342    17160    8                  THEN DO;

     1343    17161    8                     NO_TEXT = %YES#;

  17161  3 005074   400000 236003                    LDQ     -131072,DU
         3 005075   200076 756100                    STQ     NO_TEXT,,AUTO

     1344    17162    8                     END;   /*  Count(i) = 0  */

  17162  3 005076   005371 710000 3                  TRA     s:17243

     1345    17163    8                  ELSE DO;

     1346    17164    8                     FMT_VEC (0) = VECTOR (FS$GBAN); /* Just to get flags right   */

  17164  3 005077   000150 235000 4                  LDA     104
         3 005100   000000 236000 1                  LDQ     P$
         3 005101   000000 755000 xsym               STA     FMT_VEC
         3 005102   000001 756000 xsym               STQ     FMT_VEC+1

     1347    17165    8                     FMT_VEC.PTR$ (0) = PINCRW(ADDR(FS$GBAN),FS$GBAN.ENTRIES.DISP(I));

  17165  3 005103   200123 236100                    LDQ     I,,AUTO
         3 005104   000060 402007                    MPY     48,DL
         3 005105   000000 470400 1                  LDP0    P$
         3 005106   000100 100506                    MLR     fill='000'O
PL6.E3A0      #003=ASL$DISP_ONE_FORM File=ASL$DISPLAY_FORM.:E05TSI               TUE 07/29/97 09:59 Page:236
         3 005107   000012 600002                    ADSC9   10,Q,PR0                 cn=3,n=2
         3 005110   200126 000004                    ADSC9   I+1,,AUTO                cn=0,n=4
         3 005111   200126 220100                    LDX0    I+1,,AUTO
         3 005112   000000 636010                    EAQ     0,X0
         3 005113   000000 036000 1                  ADLQ    P$
         3 005114   000001 756000 xsym               STQ     FMT_VEC+1

     1348    17166    8                     FMT_VEC.BOUND (0) = FS$GBAN.ENTRIES.COUNT(I)-1;

  17166  3 005115   200123 236100                    LDQ     I,,AUTO
         3 005116   000060 402007                    MPY     48,DL
         3 005117   000100 101506                    MRL     fill='000'O
         3 005120   000012 400001                    ADSC9   10,Q,PR0                 cn=2,n=1
         3 005121   200126 000004                    ADSC9   I+1,,AUTO                cn=0,n=4
         3 005122   200126 236100                    LDQ     I+1,,AUTO
         3 005123   000001 136007                    SBLQ    1,DL
         3 005124   000020 736000                    QLS     16
         3 005125   000000 676000 xsym               ERQ     FMT_VEC
         3 005126   000034 376000 xsym               ANQ     B_VECTNIL+28
         3 005127   000000 656000 xsym               ERSQ    FMT_VEC

     1349    17167    8                     END;  /*  Count (i) ~= 0  */

     1350    17168    7                  END;   /*  Graphic  */

  17168  3 005130   005371 710000 3                  TRA     s:17243

     1351    17169    7               ELSE DO;

     1352    17170    7                  IF FS$BAN.ENTRIES.COUNT(I) = 0

  17170  3 005131   200123 235100                    LDA     I,,AUTO
         3 005132   000004 735000                    ALS     4
         3 005133   000000 470400 1                  LDP0    P$
         3 005134   000100 101505                    MRL     fill='000'O
         3 005135   000003 600001                    ADSC9   3,A,PR0                  cn=3,n=1
         3 005136   200126 000004                    ADSC9   I+1,,AUTO                cn=0,n=4
PL6.E3A0      #003=ASL$DISP_ONE_FORM File=ASL$DISPLAY_FORM.:E05TSI               TUE 07/29/97 09:59 Page:237
         3 005137   200126 236100                    LDQ     I+1,,AUTO
         3 005140   000000 116003                    CMPQ    0,DU
         3 005141   005145 601000 3                  TNZ     s:17175

     1353    17171    8                  THEN DO;

     1354    17172    8                     NO_TEXT = %YES#;

  17172  3 005142   400000 236003                    LDQ     -131072,DU
         3 005143   200076 756100                    STQ     NO_TEXT,,AUTO

     1355    17173    8                     END;  /*  Count (i) = 0  */

  17173  3 005144   005371 710000 3                  TRA     s:17243

     1356    17174    8                  ELSE DO;

     1357    17175    8                     FMT_VEC (0) = VECTOR(FS$BAN); /* Just to get flags right   */

  17175  3 005145   000151 235000 4                  LDA     105
         3 005146   000000 236000 1                  LDQ     P$
         3 005147   000000 755000 xsym               STA     FMT_VEC
         3 005150   000001 756000 xsym               STQ     FMT_VEC+1

     1358    17176    8                     FMT_VEC.PTR$ (0) = PINCRW(ADDR(FS$BAN),FS$BAN.ENTRIES.DISP(I));

  17176  3 005151   200123 235100                    LDA     I,,AUTO
         3 005152   000004 735000                    ALS     4
         3 005153   000100 100505                    MLR     fill='000'O
         3 005154   000003 200002                    ADSC9   3,A,PR0                  cn=1,n=2
         3 005155   200126 000004                    ADSC9   I+1,,AUTO                cn=0,n=4
         3 005156   200126 220100                    LDX0    I+1,,AUTO
         3 005157   000000 636010                    EAQ     0,X0
         3 005160   000000 036000 1                  ADLQ    P$
         3 005161   000001 756000 xsym               STQ     FMT_VEC+1

     1359    17177    8                     FMT_VEC.BOUND (0) = FS$BAN.ENTRIES.COUNT(I)-1;
PL6.E3A0      #003=ASL$DISP_ONE_FORM File=ASL$DISPLAY_FORM.:E05TSI               TUE 07/29/97 09:59 Page:238

  17177  3 005162   000100 101505                    MRL     fill='000'O
         3 005163   000003 600001                    ADSC9   3,A,PR0                  cn=3,n=1
         3 005164   200126 000004                    ADSC9   I+1,,AUTO                cn=0,n=4
         3 005165   200126 236100                    LDQ     I+1,,AUTO
         3 005166   000001 136007                    SBLQ    1,DL
         3 005167   000020 736000                    QLS     16
         3 005170   000000 676000 xsym               ERQ     FMT_VEC
         3 005171   000034 376000 xsym               ANQ     B_VECTNIL+28
         3 005172   000000 656000 xsym               ERSQ    FMT_VEC

     1360    17178    8                     END;  /*  Count (i) ~= 0  */

     1361    17179    7                  END;  /*  Non graphic  */

  17179  3 005173   005371 710000 3                  TRA     s:17243

     1362    17180    6               SELECT(FS_X_INT);

     1363    17181    6               IF GRAPHIC

  17181  3 005174   200030 234100                    SZN     GRAPHIC,,AUTO
         3 005175   005210 605000 3                  TPL     s:17187

     1364    17182    7               THEN DO;

     1365    17183    7                  FMT_VEC (0) = VECTOR(X_INT);

  17183  3 005176   000152 237000 4                  LDAQ    106
         3 005177   000000 755000 xsym               STA     FMT_VEC
         3 005200   000001 756000 xsym               STQ     FMT_VEC+1

     1366    17184    7                  X_INT.XCHAR = FS$GBAN.ENTRIES.CHR(I);

  17184  3 005201   200123 236100                    LDQ     I,,AUTO
         3 005202   000060 402007                    MPY     48,DL
         3 005203   000000 470400 1                  LDP0    P$
PL6.E3A0      #003=ASL$DISP_ONE_FORM File=ASL$DISPLAY_FORM.:E05TSI               TUE 07/29/97 09:59 Page:239
         3 005204   040000 100506                    MLR     fill='040'O
         3 005205   000012 400001                    ADSC9   10,Q,PR0                 cn=2,n=1
         3 005206   000002 200001 1                  ADSC9   X_INT                    cn=1,n=1

     1367    17185    7                  END;  /*  Graphic  */

  17185  3 005207   005371 710000 3                  TRA     s:17243

     1368    17186    7               ELSE DO;

     1369    17187    7                  FMT_VEC (0) = VECTOR(X_INT);

  17187  3 005210   000152 237000 4                  LDAQ    106
         3 005211   000000 755000 xsym               STA     FMT_VEC
         3 005212   000001 756000 xsym               STQ     FMT_VEC+1

     1370    17188    7                  X_INT.XCHAR = FS$BAN.ENTRIES.CHR(I);

  17188  3 005213   200123 235100                    LDA     I,,AUTO
         3 005214   000004 735000                    ALS     4
         3 005215   000000 470400 1                  LDP0    P$
         3 005216   040000 100505                    MLR     fill='040'O
         3 005217   000003 600001                    ADSC9   3,A,PR0                  cn=3,n=1
         3 005220   000002 200001 1                  ADSC9   X_INT                    cn=1,n=1

     1371    17189    7                  END;  /* Non graphic  */

  17189  3 005221   005371 710000 3                  TRA     s:17243

     1372    17190    6               SELECT(FS_SYSID_INT);

     1373    17191    6               FMT_VEC (0) = VECTOR(SYSID_INT_STR);

  17191  3 005222   000154 237000 4                  LDAQ    108
         3 005223   000000 755000 xsym               STA     FMT_VEC
         3 005224   000001 756000 xsym               STQ     FMT_VEC+1
         3 005225   005371 710000 3                  TRA     s:17243
PL6.E3A0      #003=ASL$DISP_ONE_FORM File=ASL$DISPLAY_FORM.:E05TSI               TUE 07/29/97 09:59 Page:240

     1374    17192    6               SELECT(FS_ACCN_INT);

     1375    17193    6               FMT_VEC (0) = VECTOR(ACCN_INT_STR);

  17193  3 005226   000156 237000 4                  LDAQ    110
         3 005227   000000 755000 xsym               STA     FMT_VEC
         3 005230   000001 756000 xsym               STQ     FMT_VEC+1
         3 005231   005371 710000 3                  TRA     s:17243

     1376    17194    6               SELECT(FS_UNAME_INT);

     1377    17195    6               FMT_VEC (0) = VECTOR(UNAME_INT_STR);

  17195  3 005232   000160 237000 4                  LDAQ    112
         3 005233   000000 755000 xsym               STA     FMT_VEC
         3 005234   000001 756000 xsym               STQ     FMT_VEC+1
         3 005235   005371 710000 3                  TRA     s:17243

     1378    17196    6               SELECT(FS_WOO_INT);

     1379    17197    6               FMT_VEC (0) = VECTOR(WOO_INT_STR);

  17197  3 005236   000162 237000 4                  LDAQ    114
         3 005237   000000 755000 xsym               STA     FMT_VEC
         3 005240   000001 756000 xsym               STQ     FMT_VEC+1
         3 005241   005371 710000 3                  TRA     s:17243

     1380    17198    6               SELECT(FS_JOBNAME_INT);

     1381    17199    6               FMT_VEC (0) = VECTOR(JOBNAME_INT_STR);

  17199  3 005242   000164 237000 4                  LDAQ    116
         3 005243   000000 755000 xsym               STA     FMT_VEC
         3 005244   000001 756000 xsym               STQ     FMT_VEC+1
         3 005245   005371 710000 3                  TRA     s:17243

PL6.E3A0      #003=ASL$DISP_ONE_FORM File=ASL$DISPLAY_FORM.:E05TSI               TUE 07/29/97 09:59 Page:241
     1382    17200    6               SELECT(FS_TIME_INT);

     1383    17201    6               FMT_VEC (0) = VECTOR(TIME_INT_STR);

  17201  3 005246   000166 237000 4                  LDAQ    118
         3 005247   000000 755000 xsym               STA     FMT_VEC
         3 005250   000001 756000 xsym               STQ     FMT_VEC+1
         3 005251   005371 710000 3                  TRA     s:17243

     1384    17202    6               SELECT(FS_DATE_INT);

     1385    17203    6               FMT_VEC (0) = VECTOR(DATE_INT_STR);

  17203  3 005252   000170 237000 4                  LDAQ    120
         3 005253   000000 755000 xsym               STA     FMT_VEC
         3 005254   000001 756000 xsym               STQ     FMT_VEC+1
         3 005255   005371 710000 3                  TRA     s:17243

     1386    17204    6               SELECT(FS_VERSION_INT);

     1387    17205    6               FMT_VEC (0) = VECTOR(VERSION_INT_STR);

  17205  3 005256   000172 237000 4                  LDAQ    122
         3 005257   000000 755000 xsym               STA     FMT_VEC
         3 005260   000001 756000 xsym               STQ     FMT_VEC+1
         3 005261   005371 710000 3                  TRA     s:17243

     1388    17206    6               SELECT(FS_SUBFILE_INT);

     1389    17207    6               FMT_VEC (0) = VECTOR(SUBFILE_INT_STR);

  17207  3 005262   000174 237000 4                  LDAQ    124
         3 005263   000000 755000 xsym               STA     FMT_VEC
         3 005264   000001 756000 xsym               STQ     FMT_VEC+1
         3 005265   005371 710000 3                  TRA     s:17243

     1390    17208    6               SELECT(FS_LOGO_INT);
PL6.E3A0      #003=ASL$DISP_ONE_FORM File=ASL$DISPLAY_FORM.:E05TSI               TUE 07/29/97 09:59 Page:242

     1391    17209    6               FMT_VEC (0) = VECTOR(LOGO_INT_STR);

  17209  3 005266   000176 237000 4                  LDAQ    126
         3 005267   000000 755000 xsym               STA     FMT_VEC
         3 005270   000001 756000 xsym               STQ     FMT_VEC+1
         3 005271   005371 710000 3                  TRA     s:17243

     1392    17210    6               SELECT(FS_WOD_INT);

     1393    17211    6               FMT_VEC (0) = VECTOR(WOD_INT_STR);

  17211  3 005272   000200 237000 4                  LDAQ    128
         3 005273   000000 755000 xsym               STA     FMT_VEC
         3 005274   000001 756000 xsym               STQ     FMT_VEC+1
         3 005275   005371 710000 3                  TRA     s:17243

     1394    17212    6               SELECT(FS_SITENAME_INT);

     1395    17213    6               FMT_VEC (0) = VECTOR(SITENAME_INT_STR);

  17213  3 005276   000202 237000 4                  LDAQ    130
         3 005277   000000 755000 xsym               STA     FMT_VEC
         3 005300   000001 756000 xsym               STQ     FMT_VEC+1
         3 005301   005371 710000 3                  TRA     s:17243

     1396    17214    6               SELECT(FS_SALUTE_INT);

     1397    17215    6               FMT_VEC (0) = VECTOR(SALUTE_INT_STR);

  17215  3 005302   000204 237000 4                  LDAQ    132
         3 005303   000000 755000 xsym               STA     FMT_VEC
         3 005304   000001 756000 xsym               STQ     FMT_VEC+1
         3 005305   005371 710000 3                  TRA     s:17243

     1398    17216    6               SELECT(FS_FORM_INT);

PL6.E3A0      #003=ASL$DISP_ONE_FORM File=ASL$DISPLAY_FORM.:E05TSI               TUE 07/29/97 09:59 Page:243
     1399    17217    6               FMT_VEC (0) = VECTOR(FORM_INT_STR);

  17217  3 005306   000206 237000 4                  LDAQ    134
         3 005307   000000 755000 xsym               STA     FMT_VEC
         3 005310   000001 756000 xsym               STQ     FMT_VEC+1
         3 005311   005371 710000 3                  TRA     s:17243

     1400    17218    6               SELECT(FS_MINI_ID_INT);

     1401    17219    6               FMT_VEC (0) = VECTOR(MINI_ID_INT_STR);

  17219  3 005312   000210 237000 4                  LDAQ    136
         3 005313   000000 755000 xsym               STA     FMT_VEC
         3 005314   000001 756000 xsym               STQ     FMT_VEC+1
         3 005315   005371 710000 3                  TRA     s:17243

     1402    17220    6               SELECT(FS_BANNERTEXT0_INT);

     1403    17221    6               FMT_VEC (0) = VECTOR(BAN0_INT_STR);

  17221  3 005316   000212 237000 4                  LDAQ    138
         3 005317   000000 755000 xsym               STA     FMT_VEC
         3 005320   000001 756000 xsym               STQ     FMT_VEC+1
         3 005321   005371 710000 3                  TRA     s:17243

     1404    17222    6               SELECT(FS_BANNERTEXT1_INT);

     1405    17223    6               FMT_VEC (0) = VECTOR(BAN1_INT_STR);

  17223  3 005322   000214 237000 4                  LDAQ    140
         3 005323   000000 755000 xsym               STA     FMT_VEC
         3 005324   000001 756000 xsym               STQ     FMT_VEC+1
         3 005325   005371 710000 3                  TRA     s:17243

     1406    17224    6               SELECT(FS_BANNERTEXT2_INT);

     1407    17225    6               FMT_VEC (0) = VECTOR(BAN2_INT_STR);
PL6.E3A0      #003=ASL$DISP_ONE_FORM File=ASL$DISPLAY_FORM.:E05TSI               TUE 07/29/97 09:59 Page:244

  17225  3 005326   000216 237000 4                  LDAQ    142
         3 005327   000000 755000 xsym               STA     FMT_VEC
         3 005330   000001 756000 xsym               STQ     FMT_VEC+1
         3 005331   005371 710000 3                  TRA     s:17243

     1408    17226    6               SELECT(FS_BANNERTEXT3_INT);

     1409    17227    6               FMT_VEC (0) = VECTOR(BAN3_INT_STR);

  17227  3 005332   000220 237000 4                  LDAQ    144
         3 005333   000000 755000 xsym               STA     FMT_VEC
         3 005334   000001 756000 xsym               STQ     FMT_VEC+1
         3 005335   005371 710000 3                  TRA     s:17243

     1410    17228    6               SELECT(FS_BANNERTEXT4_INT);

     1411    17229    6               FMT_VEC (0) = VECTOR(BAN4_INT_STR);

  17229  3 005336   000222 237000 4                  LDAQ    146
         3 005337   000000 755000 xsym               STA     FMT_VEC
         3 005340   000001 756000 xsym               STQ     FMT_VEC+1
         3 005341   005371 710000 3                  TRA     s:17243

     1412    17230    6               SELECT(FS_BANNERTEXT5_INT);

     1413    17231    6               FMT_VEC (0) = VECTOR(BAN5_INT_STR);

  17231  3 005342   000224 237000 4                  LDAQ    148
         3 005343   000000 755000 xsym               STA     FMT_VEC
         3 005344   000001 756000 xsym               STQ     FMT_VEC+1
         3 005345   005371 710000 3                  TRA     s:17243

     1414    17232    6               SELECT(FS_BANNERTEXT6_INT);

     1415    17233    6               FMT_VEC (0) = VECTOR(BAN6_INT_STR);

PL6.E3A0      #003=ASL$DISP_ONE_FORM File=ASL$DISPLAY_FORM.:E05TSI               TUE 07/29/97 09:59 Page:245
  17233  3 005346   000226 237000 4                  LDAQ    150
         3 005347   000000 755000 xsym               STA     FMT_VEC
         3 005350   000001 756000 xsym               STQ     FMT_VEC+1
         3 005351   005371 710000 3                  TRA     s:17243

     1416    17234    6               SELECT(FS_BANNERTEXT7_INT);

     1417    17235    6               FMT_VEC (0) = VECTOR(BAN7_INT_STR);

  17235  3 005352   000230 237000 4                  LDAQ    152
         3 005353   000000 755000 xsym               STA     FMT_VEC
         3 005354   000001 756000 xsym               STQ     FMT_VEC+1
         3 005355   005371 710000 3                  TRA     s:17243

     1418    17236    6               SELECT(FS_BANNERTEXT8_INT);

     1419    17237    6               FMT_VEC (0) = VECTOR(BAN8_INT_STR);

  17237  3 005356   000232 237000 4                  LDAQ    154
         3 005357   000000 755000 xsym               STA     FMT_VEC
         3 005360   000001 756000 xsym               STQ     FMT_VEC+1
         3 005361   005371 710000 3                  TRA     s:17243

     1420    17238    6               SELECT(FS_BANNERTEXT9_INT);

     1421    17239    6               FMT_VEC (0) = VECTOR(BAN9_INT_STR);

  17239  3 005362   000234 237000 4                  LDAQ    156
         3 005363   000000 755000 xsym               STA     FMT_VEC
         3 005364   000001 756000 xsym               STQ     FMT_VEC+1
         3 005365   005371 710000 3                  TRA     s:17243

     1422    17240    6               SELECT(FS_REGISTEREDNAME_INT);

     1423    17241    6               FMT_VEC (0) = VECTOR(REGNAM_INT_STR);

  17241  3 005366   000236 237000 4                  LDAQ    158
PL6.E3A0      #003=ASL$DISP_ONE_FORM File=ASL$DISPLAY_FORM.:E05TSI               TUE 07/29/97 09:59 Page:246
         3 005367   000000 755000 xsym               STA     FMT_VEC
         3 005370   000001 756000 xsym               STQ     FMT_VEC+1

     1424    17242    6               END;   /*  Case (type)  */

     1425    17243    5            IF NOT NO_TEXT THEN

  17243  3 005371   200076 234100                    SZN     NO_TEXT,,AUTO
         3 005372   005377 604000 3                  TMI     s:17245

     1426    17244    5               CALL X$FORMAT(FDS);

  17244  3 005373   000010 630400 4                  EPPR0   8
         3 005374   000017 631400 xsym               EPPR1   B_VECTNIL+15
         3 005375   000000 701000 xent               TSX1    X$FORMAT
         3 005376   000000 011000                    NOP     0

     1427    17245    5            END;  /*  Loop through entries  */

  17245  3 005377   200123 054100                    AOS     I,,AUTO
         3 005400   000000 470400 1                  LDP0    P$
         3 005401   000100 101500                    MRL     fill='000'O
         3 005402   000000 600001                    ADSC9   0,,PR0                   cn=3,n=1
         3 005403   200126 000004                    ADSC9   I+1,,AUTO                cn=0,n=4
         3 005404   200126 236100                    LDQ     I+1,,AUTO
         3 005405   200123 116100                    CMPQ    I,,AUTO
         3 005406   004425 605400 3                  TPNZ    s:17122

     1428    17246    4         CALL ASB$WRITE_LO(' ',1);

  17246  3 005407   000001 630400 4                  EPPR0   1
         3 005410   000020 631400 xsym               EPPR1   B_VECTNIL+16
         3 005411   000000 701000 xent               TSX1    ASB$WRITE_LO
         3 005412   000000 011000                    NOP     0

     1429    17247    4         END;   /*  NUM_ENTRIES > 0  */

PL6.E3A0      #003=ASL$DISP_ONE_FORM File=ASL$DISPLAY_FORM.:E05TSI               TUE 07/29/97 09:59 Page:247
     1430    17248    3      END;  /*  Jcl  */

     1431    17249    2   RETURN;

  17249  3 005413   200122 221300                    LDX1  ! WIDTH+1,,AUTO
         3 005414   000001 702211                    TSX2  ! 1,X1

     1432    17250    2   END FINISH_BANNER;
     1433    17251    1   SPLIT9X92_18: PROC (VALUE);

  17251  3 005415   200122 741300       SPLIT9X92_18 STX1  ! WIDTH+1,,AUTO

     1434    17252    2   DCL VALUE UBIN (18) ALIGNED;
     1435    17253
     1436    17254    2   FEP18 = VALUE;

  17254  3 005416   200123 470500                    LDP0    @VALUE,,AUTO
         3 005417   000000 220100                    LDX0    0,,PR0
         3 005420   200015 740100                    STX0    FEP,,AUTO

     1437    17255    2   HOST18 = 0;

  17255  3 005421   000000 222003                    LDX2    0,DU
         3 005422   200052 742100                    STX2    HOST,,AUTO

     1438    17256    2   HOST.U = FEP.U;

  17256  3 005423   200015 236100                    LDQ     FEP,,AUTO
         3 005424   000001 772000                    QRL     1
         3 005425   200052 676100                    ERQ     HOST,,AUTO
         3 005426   177400 376003                    ANQ     65280,DU
         3 005427   200052 656100                    ERSQ    HOST,,AUTO

     1439    17257    2   HOST.L = FEP.L;

  17257  3 005430   200015 236100                    LDQ     FEP,,AUTO
         3 005431   200052 676100                    ERQ     HOST,,AUTO
PL6.E3A0      #003=ASL$DISP_ONE_FORM File=ASL$DISPLAY_FORM.:E05TSI               TUE 07/29/97 09:59 Page:248
         3 005432   000377 376003                    ANQ     255,DU
         3 005433   200052 656100                    ERSQ    HOST,,AUTO

     1440    17258
     1441    17259    2   RETURN;

  17259  3 005434   000001 702211                    TSX2  ! 1,X1

     1442    17260    2   END SPLIT9X92_18;
     1443    17261    1   ADD_ACCLIST: PROC;

  17261  3 005435   200122 741300       ADD_ACCLIST  STX1  ! WIDTH+1,,AUTO

     1444    17262    2   DCL REPEATS SBIN;
     1445    17263    2   DCL I SBIN;
     1446    17264    2   IF KL$ACBLK.ACCTS>0

  17264  3 005436   000000 470400 1                  LDP0    P$
         3 005437   000000 235100                    LDA     0,,PR0
         3 005440   005521 600000 3                  TZE     s:17279

     1447    17265    3   THEN DO;

     1448    17266    3      CALL INSERT(FMT_BUF,FDS.FMT_.BOUND+1,SIZEC(WSN_ACC_FMT),

  17266  3 005441   000000 236000 xsym               LDQ     FDS
         3 005442   000020 772000                    QRL     16
         3 005443   040006 100400                    MLR     fill='040'O
         3 005444   000546 000025 2                  ADSC9   WSN_ACC_FMT              cn=0,n=21
         3 005445   000000 200025 xsym               ADSC9   FMT_BUF,Q                cn=1,n=21

     1449    17267    3           WSN_ACC_FMT);
     1450    17268    3      FDS.FMT_.BOUND = FDS.FMT_.BOUND + SIZEC(WSN_ACC_FMT);

  17268  3 005446   000025 036007                    ADLQ    21,DL
         3 005447   000020 736000                    QLS     16
         3 005450   000000 676000 xsym               ERQ     FDS
PL6.E3A0      #003=ASL$DISP_ONE_FORM File=ASL$DISPLAY_FORM.:E05TSI               TUE 07/29/97 09:59 Page:249
         3 005451   000034 376000 xsym               ANQ     B_VECTNIL+28
         3 005452   000000 656000 xsym               ERSQ    FDS

     1451    17269    3      FMT_VEC(FDS.NVECS#) = VECTOR(KL$ACBLK.LIST(0));

  17269  3 005453   000011 235000 xsym               LDA     FDS+9
         3 005454   000001 735000                    ALS     1
         3 005455   000000 620005                    EAX0    0,AL
         3 005456   000027 235000 4                  LDA     23
         3 005457   000000 236000 1                  LDQ     P$
         3 005460   000001 036003                    ADLQ    1,DU
         3 005461   000000 755010 xsym               STA     FMT_VEC,X0
         3 005462   000001 756010 xsym               STQ     FMT_VEC+1,X0

     1452    17270    3      FMT_VEC(FDS.NVECS#+1) = VECTOR(REPEATS);

  17270  3 005463   777640 235007                    LDA     -96,DL
         3 005464   200126 452500                    STP2    I+1,,AUTO
         3 005465   200126 236100                    LDQ     I+1,,AUTO
         3 005466   000123 036003                    ADLQ    83,DU
         3 005467   000002 755010 xsym               STA     FMT_VEC+2,X0
         3 005470   000003 756010 xsym               STQ     FMT_VEC+3,X0

     1453    17271    3      FDS.NVECS# = FDS.NVECS# + 2;

  17271  3 005471   000002 236007                    LDQ     2,DL
         3 005472   000011 056000 xsym               ASQ     FDS+9

     1454    17272    3      REPEATS = 0;

  17272  3 005473   200123 450100                    STZ     REPEATS,,AUTO

     1455    17273    4      DO I=1 TO KL$ACBLK.ACCTS-1;

  17273  3 005474   000001 235007                    LDA     1,DL
         3 005475   200124 755100                    STA     I,,AUTO
         3 005476   005514 710000 3                  TRA     s:17277+1
PL6.E3A0      #003=ASL$DISP_ONE_FORM File=ASL$DISPLAY_FORM.:E05TSI               TUE 07/29/97 09:59 Page:250

     1456    17274    4         FMT_VEC(FDS.NVECS#) = VECTOR(KL$ACBLK.LIST(I));

  17274  3 005477   000011 235000 xsym               LDA     FDS+9
         3 005500   000001 735000                    ALS     1
         3 005501   000000 620005                    EAX0    0,AL
         3 005502   000027 235000 4                  LDA     23
         3 005503   200124 236100                    LDQ     I,,AUTO
         3 005504   000023 736000                    QLS     19
         3 005505   000001 036003                    ADLQ    1,DU
         3 005506   000000 036000 1                  ADLQ    P$
         3 005507   000000 755010 xsym               STA     FMT_VEC,X0
         3 005510   000001 756010 xsym               STQ     FMT_VEC+1,X0

     1457    17275    4         FDS.NVECS# = FDS.NVECS# + 1;

  17275  3 005511   000011 054000 xsym               AOS     FDS+9

     1458    17276    4         REPEATS = REPEATS + 1;

  17276  3 005512   200123 054100                    AOS     REPEATS,,AUTO

     1459    17277    4         END;

  17277  3 005513   200124 054100                    AOS     I,,AUTO
         3 005514   000000 470400 1                  LDP0    P$
         3 005515   200124 236100                    LDQ     I,,AUTO
         3 005516   005477 604000 3                  TMI     s:17274
         3 005517   000000 116100                    CMPQ    0,,PR0
         3 005520   005477 602000 3                  TNC     s:17274

     1460    17278    3      END;

     1461    17279    2   RETURN;

  17279  3 005521   200122 221300                    LDX1  ! WIDTH+1,,AUTO
         3 005522   000001 702211                    TSX2  ! 1,X1
PL6.E3A0      #003=ASL$DISP_ONE_FORM File=ASL$DISPLAY_FORM.:E05TSI               TUE 07/29/97 09:59 Page:251

     1462    17280    2   END ADD_ACCLIST;
     1463    17281    1   ADD_ACCOUNTLIST: PROC;

  17281  3 005523   200122 741300       ADD_ACCOUNT* STX1  ! WIDTH+1,,AUTO

     1464    17282    2   DCL REPEATS SBIN;
     1465    17283    2   DCL ENUM UBIN BYTE;
     1466    17284    2   DCL I SBIN;
     1467    17285    2   CALL INSERT(FMT_BUF,FDS.FMT_.BOUND+1,SIZEC(ACCOUNT_FMT),

  17285  3 005524   000000 236000 xsym               LDQ     FDS
         3 005525   000020 772000                    QRL     16
         3 005526   040006 100400                    MLR     fill='040'O
         3 005527   000002 000027 2                  ADSC9   ACCOUNT_FMT              cn=0,n=23
         3 005530   000000 200027 xsym               ADSC9   FMT_BUF,Q                cn=1,n=23

     1468    17286    2        ACCOUNT_FMT);
     1469    17287    2   FDS.FMT_.BOUND = FDS.FMT_.BOUND + SIZEC(ACCOUNT_FMT);

  17287  3 005531   000027 036007                    ADLQ    23,DL
         3 005532   000020 736000                    QLS     16
         3 005533   000000 676000 xsym               ERQ     FDS
         3 005534   000034 376000 xsym               ANQ     B_VECTNIL+28
         3 005535   000000 656000 xsym               ERSQ    FDS

     1470    17288    2   FMT_VEC(FDS.NVECS#) = VECTOR(P$->FS$ACCOUNTS.LIST(0));

  17288  3 005536   000011 235000 xsym               LDA     FDS+9
         3 005537   000001 735000                    ALS     1
         3 005540   000000 620005                    EAX0    0,AL
         3 005541   000027 235000 4                  LDA     23
         3 005542   000000 236000 1                  LDQ     P$
         3 005543   000001 036003                    ADLQ    1,DU
         3 005544   000000 755010 xsym               STA     FMT_VEC,X0
         3 005545   000001 756010 xsym               STQ     FMT_VEC+1,X0

PL6.E3A0      #003=ASL$DISP_ONE_FORM File=ASL$DISPLAY_FORM.:E05TSI               TUE 07/29/97 09:59 Page:252
     1471    17289    2   FMT_VEC(FDS.NVECS#+1) = VECTOR(REPEATS);

  17289  3 005546   777640 235007                    LDA     -96,DL
         3 005547   200126 452500                    STP2    I+1,,AUTO
         3 005550   200126 236100                    LDQ     I+1,,AUTO
         3 005551   000123 036003                    ADLQ    83,DU
         3 005552   000002 755010 xsym               STA     FMT_VEC+2,X0
         3 005553   000003 756010 xsym               STQ     FMT_VEC+3,X0

     1472    17290    2   FDS.NVECS# = FDS.NVECS# + 2;

  17290  3 005554   000002 236007                    LDQ     2,DL
         3 005555   000011 056000 xsym               ASQ     FDS+9

     1473    17291    2   REPEATS = 0;

  17291  3 005556   200123 450100                    STZ     REPEATS,,AUTO

     1474    17292    2   ENUM = P$->FS$ACCOUNTS.TACCTS;

  17292  3 005557   000000 470400 1                  LDP0    P$
         3 005560   000100 101500                    MRL     fill='000'O
         3 005561   000000 000004                    ADSC9   0,,PR0                   cn=0,n=4
         3 005562   200124 000001                    ADSC9   ENUM,,AUTO               cn=0,n=1

     1475    17293    3   DO I= 1 TO ENUM-1;

  17293  3 005563   000001 235007                    LDA     1,DL
         3 005564   200125 755100                    STA     I,,AUTO
         3 005565   005603 710000 3                  TRA     s:17297+1

     1476    17294    3      FMT_VEC(FDS.NVECS#) = VECTOR(P$->FS$ACCOUNTS.LIST(I));

  17294  3 005566   000011 235000 xsym               LDA     FDS+9
         3 005567   000001 735000                    ALS     1
         3 005570   000000 620005                    EAX0    0,AL
         3 005571   000027 235000 4                  LDA     23
PL6.E3A0      #003=ASL$DISP_ONE_FORM File=ASL$DISPLAY_FORM.:E05TSI               TUE 07/29/97 09:59 Page:253
         3 005572   200125 236100                    LDQ     I,,AUTO
         3 005573   000023 736000                    QLS     19
         3 005574   000001 036003                    ADLQ    1,DU
         3 005575   000000 036000 1                  ADLQ    P$
         3 005576   000000 755010 xsym               STA     FMT_VEC,X0
         3 005577   000001 756010 xsym               STQ     FMT_VEC+1,X0

     1477    17295    3      FDS.NVECS# = FDS.NVECS# + 1;

  17295  3 005600   000011 054000 xsym               AOS     FDS+9

     1478    17296    3      REPEATS = REPEATS + 1;

  17296  3 005601   200123 054100                    AOS     REPEATS,,AUTO

     1479    17297    3      END;

  17297  3 005602   200125 054100                    AOS     I,,AUTO
         3 005603   200124 236100                    LDQ     ENUM,,AUTO
         3 005604   000033 772000                    QRL     27
         3 005605   200125 116100                    CMPQ    I,,AUTO
         3 005606   005566 605400 3                  TPNZ    s:17294

     1480    17298    2   RETURN;

  17298  3 005607   200122 221300                    LDX1  ! WIDTH+1,,AUTO
         3 005610   000001 702211                    TSX2  ! 1,X1
     1481    17299    2   END ADD_ACCOUNTLIST;
     1482    17300    1   END ASL$DISP_ONE_FORM;

PL6.E3A0      #003=ASL$DISP_ONE_FORM File=ASL$DISPLAY_FORM.:E05TSI               TUE 07/29/97 09:59 Page:254
--  Include file information  --

   AS_SUPER_R.:E05TOU  cannot be made into a system file and is referenced.
   XG_SUBS_C.:E05TOU  is referenced.
   XU_FORMAT_C.:E05TOU  is referenced.
   XU_MACRO_C.:E05TOU  is referenced.
   KL_SUPER_C.:E05TOU  is referenced.
   FS_SUPER_C.:E05TOU  is referenced.
   CP_6_SUBS.:E05TOU  is referenced.
   B_ERRORS_C.:E05TOU  is referenced.
   AS_SSUBS_C.:E05TOU  is referenced.
   AS_ENTRIES_M.:E05TOU  is referenced.
   AS_MAC_C.:E05TOU  cannot be made into a system file and is referenced.
   AS_SUBS_C.:E05TOU  is referenced.
   AS_SUPER_C.:E05TOU  is referenced.
   AS_PERR_C.:E05TOU  is referenced.
      No diagnostics issued in procedure ASL$DISP_ONE_FORM.
PL6.E3A0      #003=ASL$DISP_ONE_FORM File=ASL$DISPLAY_FORM.:E05TSI               TUE 07/29/97 09:59 Page:255

 **** Variables and constants ****

  ****  Section 001  Data  ASL$DISP_ONE_FORM

  ****  Scalars and arrays  ****
OctLoc.c.b A Datatyp(siz) R M Lvl/name                 OctLoc.c.b A Datatyp(siz) R M Lvl/name

     0-0-0/w PTR         r     1 P$                         1-0-0/w UBIN        r     1 TABS
     2-0-0/c STRC(18)    r     1 X_INT

  ****  Section 002 RoData ASL$DISP_ONE_FORM

  ****  Scalars and arrays  ****
OctLoc.c.b A Datatyp(siz) R M Lvl/name                 OctLoc.c.b A Datatyp(siz) R M Lvl/name

     0-0-0/c CHAR(5)     r     1 ACCN_INT_STR               2-0-0/c CHAR(23)    r     1 ACCOUNT_FMT
    10-0-0/c CHAR(12)    r     1 ALIGNMENT_STR             13-0-0/c CHAR(12)    r     1 ALIGN_FMT
    16-0-0/c CHAR(29)    r     1 ALIGN_HDR                 26-0-0/c CHAR(16)    r     1 ALIGN_JCL_FMT
    32-0-0/c CHAR(12)    r     1 BAN0_INT_STR              35-0-0/c CHAR(12)    r     1 BAN1_INT_STR
    40-0-0/c CHAR(12)    r     1 BAN2_INT_STR              43-0-0/c CHAR(12)    r     1 BAN3_INT_STR
    46-0-0/c CHAR(12)    r     1 BAN4_INT_STR              51-0-0/c CHAR(12)    r     1 BAN5_INT_STR
    54-0-0/c CHAR(12)    r     1 BAN6_INT_STR              57-0-0/c CHAR(12)    r     1 BAN7_INT_STR
    62-0-0/c CHAR(12)    r     1 BAN8_INT_STR              65-0-0/c CHAR(12)    r     1 BAN9_INT_STR
    70-0-0/c CHAR(54)    r     1 BANNER_ENTRY_FMT         106-0-0/c CHAR(59)    r     1 BANNER_ENTRY_HDR
   125-0-0/c CHAR(12)    r     1 BANNER_FMT               130-0-0/c CHAR(27)    r     1 BANNER_HDR
   137-0-0/c CHAR(9)     r     1 BANNER_STR               142-0-0/c CHAR        r     1 BL_STR
   143-0-0/c CHAR(12)    r     1 CHARGE_JCL_FMT           146-0-0/c CHAR(11)    r     1 CHARSET_JCL_FMT
   151-0-0/c CHAR(7)     r     1 CHARSET_STR              153-0-0/c CHAR(5)     r     1 DATE_INT_STR
   155-0-0/c CHAR(12)    r     1 DEVICE_LIMIT_JCL_FMT     160-0-0/c CHAR(13)    r     1 DEVICE_LIMIT_STR
   164-0-0/c CHAR(12)    r     1 DEV_LIM_FMT              167-0-0/c CHAR(32)    r     1 DEV_LIM_HDR
   177-0-0/c CHAR(4)     r     1 END_STR                  200-0-0/c CHAR(18)    r     1 ENTRY_GRAPH_JCL_FMT
   205-0-0/c CHAR(18)    r     1 ENTRY_JCL_FMT            212-0-0/c CHAR(3)     r     1 EQUAL_STR
   213-0-0/c CHAR(79)    r     1 FORM_HDR                 237-0-0/c CHAR(65)    r     1 FORM_HDR_FMT
   264-0-0/c CHAR(5)     r     1 FORM_INT_STR             260-0-0/c CHAR(15)    r     1 FORM_JCL_FMT
   266-0-0/c CHAR(47)    r     1 GBANNER_ENTRY_FMT        302-0-0/c CHAR(61)    r     1 GBANNER_ENTRY_HDR
   322-0-0/c CHAR(55)    r     1 GFORM_HDR                351-0-0/c CHAR(35)    r     1 GFORM_HDR2
   362-0-0/c CHAR(29)    r     1 GFORM_HDR2_FMT           340-0-0/c CHAR(35)    r     1 GFORM_HDR_FMT
PL6.E3A0      #003=ASL$DISP_ONE_FORM File=ASL$DISPLAY_FORM.:E05TSI               TUE 07/29/97 09:59 Page:256
   372-0-0/c CHAR(11)    r     1 GRAPHICS_STR             375-0-0/c CHAR(11)    r     1 GRAPH_HDR_JCL_FMT
   400-0-0/c CHAR(7)     r     1 GRAPH_HDR_STR(0:5)
   413-0-0/w UBIN        r     1 GRAPH_TAB_DEFAULT        414-0-0/c CHAR(11)    r     1 HDR_JCL_FMT
   417-0-0/c CHAR(11)    r     1 HDR_JCL_FMT2
   422-0-0/c CHAR(9)     r     1 HDR_STR(0:5)
   440-0-0/c CHAR(8)     r     1 JOBNAME_INT_STR          442-0-0/c CHAR(5)     r     1 LOGO_INT_STR
   444-0-0/c CHAR(8)     r     1 MINI_ID_INT_STR          446-0-0/c CHAR(2)     r     1 NO_STR
   447-0-0/c CHAR        r     1 NUMBER_STR(0:9)
   452-0-0/c CHAR(25)    r     1 PSEUDO_JCL_FMT           461-0-0/c CHAR(15)    r     1 REGNAM_INT_STR
   471-0-0/c CHAR(16)    r     1 REMOVE_ALIGNMENT_STR     465-0-0/c CHAR(13)    r     1 REMOVE_BANNER_STR
   475-0-0/c CHAR(16)    r     1 REPEATS_JCL_FMT          501-0-0/c CHAR(7)     r     1 SALUTE_INT_STR
   503-0-0/c CHAR(3)     r     1 SETUP_FMT                504-0-0/c CHAR(13)    r     1 SETUP_HDR
   510-0-0/c CHAR(8)     r     1 SETUP_STR                512-0-0/c CHAR(2)     r     1 SETUP_TXT_FMT
   513-0-0/c CHAR(9)     r     1 SITENAME_INT_STR         516-0-0/c CHAR(8)     r     1 SUBFILE_INT_STR
   520-0-0/c CHAR(6)     r     1 SYSID_INT_STR            522-0-0/w UBIN        r     1 TAB_DEFAULT
   523-0-0/c CHAR(5)     r     1 TIME_INT_STR             525-0-0/c CHAR(6)     r     1 UNAME_INT_STR
   527-0-0/c CHAR(8)     r     1 VERSION_INT_STR          531-0-0/c CHAR(8)     r     1 VFUIM_STR
   533-0-0/c CHAR(22)    r     1 VFU_FMT                  541-0-0/c CHAR(12)    r     1 VFU_HDR
   544-0-0/c CHAR(4)     r     1 WOD_INT_STR              545-0-0/c CHAR(4)     r     1 WOO_INT_STR
   546-0-0/c CHAR(21)    r     1 WSN_ACC_FMT              554-0-0/c CHAR(16)    r     1 YES_NO_FMT
   560-0-0/c CHAR(3)     r     1 YES_STR

  ****  Auto variables  ****

  ****  Scalars and arrays  ****
OctLoc.c.b A Datatyp(siz) R M Lvl/name                 OctLoc.c.b A Datatyp(siz) R M Lvl/name

     4-0-0/w PTR         r     1 @FORM_FLAG                 5-0-0/w PTR         r     1 @JCL
     3-0-0/w PTR         r     1 @OBJECT                  123-0-0/w PTR         r     1 @VALUE
     6-0-0/w BIT (18)    r     1 BIT18
     7-0-0/h UBIN(18)    r     1 DEV_LIM(0:9)
    14-0-0/w UBIN(9)     r     1 ENUM                     124-0-0/w UBIN(9)     r     1 ENUM
    15-0-0/w STRC(18)    r     1 FEP                       15-0-0/w UBIN(18)    r     1 FEP18
    *0-0-0/b STRC(9)     r     1 FORMFLAG
    *0-0-0/b BIT         r     1 FORM_FLAG(0:8)
    16-0-0/c STRC(63)    r     1 FORM_KEY                  20-0-0/c STRC(279)   r     1 FORM_TYPE
    30-0-0/w BIT         r     1 GRAPHIC
PL6.E3A0      #003=ASL$DISP_ONE_FORM File=ASL$DISPLAY_FORM.:E05TSI               TUE 07/29/97 09:59 Page:257
    31-0-0/w UBIN        r     1 GRAPH_TAB(0:16)
    52-0-0/w STRC(18)    r     1 HOST                      52-0-0/w UBIN(18)    r     1 HOST18
    53-0-0/w SBIN        r     1 I                        123-0-0/w SBIN        r     1 I
   124-0-0/w SBIN        r     1 I                        125-0-0/w SBIN        r     1 I
    54-0-0/w SBIN        r     1 J                         *0-0-0/b BIT         r     1 JCL
    55-0-0/w UBIN        r     1 NON_GRAPH_TAB(0:16)
    76-0-0/b BIT         r     1 NO_TEXT                   *0-0-0/w UBIN        r     1 OBJECT
   103-0-0/b BIT         r     1 PSEUDO                   104-0-0/b BIT         r     1 PSEUDO_FORMS
    77-0-0/c STRC(117)   r     1 PSEUDO_FORM_KEY          106-0-0/w SBIN        r     1 REPEATS
   123-0-0/w SBIN        r     1 REPEATS                  123-0-0/w SBIN        r     1 REPEATS
   110-0-0/w UBIN(9)     r     1 TYPE                       6-0-0/w UBIN(18)    r     1 UBIN18
   111-0-0/w UBIN        r     1 UBIN_ARRAY(0:5)
    *0-0-0/w UBIN(18)    r     1 VALUE                    117-0-0/w UBIN        r     1 VEC_NUM
   120-0-0/w BIT         r     1 VFU_HDR_OUT              121-0-0/w UBIN        r     1 WIDTH

  ****  SYMREF variables  ****

  ****  Scalars and arrays  ****
OctLoc.c.b A Datatyp(siz) R M Lvl/name                 OctLoc.c.b A Datatyp(siz) R M Lvl/name

     0-0-0/c CHAR        r     1 AS_BLANK                   0-0-0/w PTR         r     1 DSEG1$
     0-0-0/w PTR         r     1 DSEG2$                     0-0-0/w STRC(1080)  r     1 FDS
     0-0-0/c CHAR(255)   r     1 FMT_BUF                    0-0-0/w STRC(72)    r     1 FMT_VEC(0:75)
     0-0-0/w UBIN        r     1 LO_WIDTH                   0-0-0/c CHAR(140)   r     1 OUT_BUF
     0-0-0/c STRC(378)   r     1 USERS_KEY

  ****  BASED and DCB variables  ****

  ****  Scalars and arrays  ****
OctLoc.c.b A Datatyp(siz) R M Lvl/name                 OctLoc.c.b A Datatyp(siz) R M Lvl/name

     0-0-0/c STRC(108)   r     1 FS$ACCOUNTS                0-0-0/c STRC(180)   r     1 FS$BAN
     0-0-0/w STRC(3186)  r     1 FS$FORMREC                 0-0-0/c STRC(468)   r     1 FS$GBAN
     0-0-0/w STRC(756)   r     1 FS$GFORMREC                0-0-0/c STRC(684)   r     1 FS$SETUP
     0-0-0/w STRC(108)   r     1 KL$ACBLK

PL6.E3A0      #003=ASL$DISP_ONE_FORM File=ASL$DISPLAY_FORM.:E05TSI               TUE 07/29/97 09:59 Page:258

   Procedure ASL$DISP_ONE_FORM requires 2953 words for executable code.
   Procedure ASL$DISP_ONE_FORM requires 90 words of local(AUTO) storage.

    No errors detected in file ASL$DISPLAY_FORM.:E05TSI    .
PL6.E3A0      #003=ASL$DISP_ONE_FORM File=ASL$DISPLAY_FORM.:E05TSI               TUE 07/29/97 09:59 Page:259
          *** CROSS REFERENCE LISTING ***
**     DENOTES     IDENTIFIER DEFINITION
<<                 IDENTIFIER'S VALUE SET
>>                 IDENTIFIER'S VALUE USED
<>                 IDENTIFIER SET AND/OR USED
--                 IDENTIFIER REFERENCED
PL6.E3A0      #003=ASL$DISP_ONE_FORM File=ASL$DISPLAY_FORM.:E05TSI               TUE 07/29/97 09:59 Page:260
          MINI XREF LISTING

ACCN_INT_STR
     16183**DCL     17064--ASSIGN  17193--ASSIGN
ACCOUNT_FMT
     16184**DCL     17285--CALLBLT 17285>>CALLBLT 17287--ASSIGN
ADD_ACCLIST
     17261**PROC    16355--CALL    16676--CALL
ADD_ACCOUNTLIST
     17281**PROC    16369--CALL    16689--CALL
ALIGNMENT_STR
     16185**DCL     16918<>CALL    16918--CALL
ALIGN_FMT
     16186**DCL     16570>>ASSIGN  16571--ASSIGN
ALIGN_HDR
     16187**DCL     16569<>CALL    16569--CALL
ALIGN_JCL_FMT
     16188**DCL     16920>>CALLBLT 16921--ASSIGN
ASA_BRKS_LOC
     12957**DCL     12957--REDEF
ASB$WRITE_LO
     15833**DCL-ENT 16318--CALL    16319--CALL    16354--CALL    16368--CALL    16379--CALL    16382--CALL
     16393--CALL    16394--CALL    16430--CALL    16483--CALL    16484--CALL    16512--CALL    16513--CALL
     16546--CALL    16547--CALL    16568--CALL    16569--CALL    16590--CALL    16591--CALL    16610--CALL
     16612--CALL    16613--CALL    16627--CALL    16644--CALL    16858--CALL    16879--CALL    16881--CALL
     16882--CALL    16892--CALL    16908--CALL    16918--CALL    16929--CALL    16940--CALL    16948--CALL
     16951--CALL    16963--CALL    16986--CALL    16991--CALL    16997--CALL    17246--CALL
ASF$PREC_FORM
     15836**DCL-ENT 16616--CALL
ASF$PREC_SKIP_FORM
     15839**DCL-ENT 16628--CALL
ASF$QUERY_PSEUDO_FORMS
     15842**DCL-ENT 16340--CALL
ASF$READ_FORM_SEQ
PL6.E3A0      #003=ASL$DISP_ONE_FORM File=ASL$DISPLAY_FORM.:E05TSI               TUE 07/29/97 09:59 Page:261
     15845**DCL-ENT 16618--CALL    16623--CALL
AS_BLANK
     12817**DCL     16348>>ASSIGN  16362>>ASSIGN  16610<>CALL    16613<>CALL    16627<>CALL    16670>>ASSIGN
     16683>>ASSIGN  16696>>ASSIGN  16724>>ASSIGN  16757>>ASSIGN  16781>>ASSIGN  16811>>ASSIGN
AS_DEFAULT.BANNER_PERM
     13650**DCL     13651--REDEF
AS_DEFAULT.BUDGET.MACCT
     13555**DCL     13559--REDEF
AS_DEFAULT.BUDGET.MAX_PROJECTS
     13568**DCL     13571--REDEF
AS_DEFAULT.BUDGET.PACCUM
     13551**DCL     13553--REDEF
AS_DEFAULT.BUDGET.PMAXC
     13546**DCL     13548--REDEF
AS_DEFAULT.SETUP_CHRA.TXT
     13666**DCL     13667--REDEF   13668--REDEF
AS_DEFAULT_DREC.PASSWORD
     14920**DCL     14924--REDEF
AS_DEFAULT_DREC.RENAME
     14943**DCL     14944--REDEF
AS_DFLT.BANNER_PERM
     13472**DCL     13473--REDEF
AS_DFLT.BUDGET.MACCT
     13377**DCL     13381--REDEF
AS_DFLT.BUDGET.MAX_PROJECTS
     13390**DCL     13393--REDEF
AS_DFLT.BUDGET.PACCUM
     13373**DCL     13375--REDEF
AS_DFLT.BUDGET.PMAXC
     13368**DCL     13370--REDEF
AS_DFLT.SETUP_CHRA.TXT
     13488**DCL     13489--REDEF   13490--REDEF
AS_FE_MODE
     12823**DCL     12824--REDEF
AS_MODE
     12820**DCL     12822--REDEF
PL6.E3A0      #003=ASL$DISP_ONE_FORM File=ASL$DISPLAY_FORM.:E05TSI               TUE 07/29/97 09:59 Page:262
AS_MOD_USER.ACCESS
     15685**DCL     15686--REDEF
AS_MOD_USER.BANNER
     15672**DCL     15673--REDEF
AS_MOD_USER.BANNER_PERM
     15674**DCL     15675--REDEF
AS_MOD_USER.BILL
     15680**DCL     15681--REDEF
AS_MOD_USER.CPROC
     15676**DCL     15677--REDEF
AS_MOD_USER.FEBILL
     15756**DCL     15757--REDEF
AS_MOD_USER.FECXTMEM
     15773**DCL     15774--REDEF
AS_MOD_USER.FEMINTS
     15758**DCL     15759--REDEF
AS_MOD_USER.FEMMEM
     15769**DCL     15770--REDEF
AS_MOD_USER.FEMTIME
     15767**DCL     15768--REDEF
AS_MOD_USER.FEPPRIV
     15764**DCL     15766--REDEF
AS_MOD_USER.FEPRIV
     15761**DCL     15763--REDEF
AS_MOD_USER.FORCE_BIT
     15670**DCL     15671--REDEF
AS_MOD_USER.KEY
     15752**DCL     15754--REDEF
AS_MOD_USER.LASTCPROC
     15678**DCL     15679--REDEF
AS_MOD_USER.LIMITS.DO_
     15726**DCL     15727--REDEF
AS_MOD_USER.LIMITS.FPOOLS
     15742**DCL     15743--REDEF
AS_MOD_USER.LIMITS.LO
     15722**DCL     15723--REDEF
PL6.E3A0      #003=ASL$DISP_ONE_FORM File=ASL$DISPLAY_FORM.:E05TSI               TUE 07/29/97 09:59 Page:263
AS_MOD_USER.LIMITS.MEM
     15718**DCL     15719--REDEF
AS_MOD_USER.LIMITS.MPRIO
     15746**DCL     15747--REDEF
AS_MOD_USER.LIMITS.PDIS
     15734**DCL     15735--REDEF
AS_MOD_USER.LIMITS.PO
     15730**DCL     15731--REDEF
AS_MOD_USER.LIMITS.TDIS
     15738**DCL     15739--REDEF
AS_MOD_USER.LIMITS.TIME
     15714**DCL     15715--REDEF
AS_MOD_USER.MAXENQ
     15695**DCL     15696--REDEF
AS_MOD_USER.PERM_BIT
     15668**DCL     15669--REDEF
AS_MOD_USER.PPRIV
     15690**DCL     15692--REDEF
AS_MOD_USER.PRIOB
     15697**DCL     15698--REDEF
AS_MOD_USER.PRIV
     15687**DCL     15689--REDEF
AS_MOD_USER.QUAN
     15693**DCL     15694--REDEF
AS_MOD_USER.SETUP
     15666**DCL     15667--REDEF
AS_PROJECT.BANNER_PERM
     14006**DCL     14007--REDEF
AS_PROJECT.BUDGET.MACCT
     13911**DCL     13915--REDEF
AS_PROJECT.BUDGET.MAX_PROJECTS
     13924**DCL     13927--REDEF
AS_PROJECT.BUDGET.PACCUM
     13907**DCL     13909--REDEF
AS_PROJECT.BUDGET.PMAXC
     13902**DCL     13904--REDEF
PL6.E3A0      #003=ASL$DISP_ONE_FORM File=ASL$DISPLAY_FORM.:E05TSI               TUE 07/29/97 09:59 Page:264
AS_PROJECT.SETUP_CHRA.TXT
     14022**DCL     14023--REDEF   14024--REDEF
AS_PROJECT_DFLT.BANNER_PERM
     14184**DCL     14185--REDEF
AS_PROJECT_DFLT.BUDGET.MACCT
     14089**DCL     14093--REDEF
AS_PROJECT_DFLT.BUDGET.MAX_PROJECTS
     14102**DCL     14105--REDEF
AS_PROJECT_DFLT.BUDGET.PACCUM
     14085**DCL     14087--REDEF
AS_PROJECT_DFLT.BUDGET.PMAXC
     14080**DCL     14082--REDEF
AS_PROJECT_DFLT.SETUP_CHRA.TXT
     14200**DCL     14201--REDEF   14202--REDEF
AS_PROJECT_DFLT_DREC.PASSWORD
     15406**DCL     15410--REDEF
AS_PROJECT_DFLT_DREC.RENAME
     15429**DCL     15430--REDEF
AS_PROJECT_DREC.PASSWORD
     15244**DCL     15248--REDEF
AS_PROJECT_DREC.RENAME
     15267**DCL     15268--REDEF
AS_PROJ_ADMIN.BANNER_PERM
     13828**DCL     13829--REDEF
AS_PROJ_ADMIN.BUDGET.MACCT
     13733**DCL     13737--REDEF
AS_PROJ_ADMIN.BUDGET.MAX_PROJECTS
     13746**DCL     13749--REDEF
AS_PROJ_ADMIN.BUDGET.PACCUM
     13729**DCL     13731--REDEF
AS_PROJ_ADMIN.BUDGET.PMAXC
     13724**DCL     13726--REDEF
AS_PROJ_ADMIN.SETUP_CHRA.TXT
     13844**DCL     13845--REDEF   13846--REDEF
AS_PROJ_ADMIN_DREC.PASSWORD
     15082**DCL     15086--REDEF
PL6.E3A0      #003=ASL$DISP_ONE_FORM File=ASL$DISPLAY_FORM.:E05TSI               TUE 07/29/97 09:59 Page:265
AS_PROJ_ADMIN_DREC.RENAME
     15105**DCL     15106--REDEF
AS_USERS.BANNER_PERM
     13294**DCL     13295--REDEF
AS_USERS.BUDGET.MACCT
     13199**DCL     13203--REDEF
AS_USERS.BUDGET.MAX_PROJECTS
     13212**DCL     13215--REDEF
AS_USERS.BUDGET.PACCUM
     13195**DCL     13197--REDEF
AS_USERS.BUDGET.PMAXC
     13190**DCL     13192--REDEF
AS_USERS.SETUP_CHRA.TXT
     13310**DCL     13311--REDEF   13312--REDEF
AS_USERS_CONSTANT.BANNER_PERM
     14362**DCL     14363--REDEF
AS_USERS_CONSTANT.BUDGET.MACCT
     14267**DCL     14271--REDEF
AS_USERS_CONSTANT.BUDGET.MAX_PROJECTS
     14280**DCL     14283--REDEF
AS_USERS_CONSTANT.BUDGET.PACCUM
     14263**DCL     14265--REDEF
AS_USERS_CONSTANT.BUDGET.PMAXC
     14258**DCL     14260--REDEF
AS_USERS_CONSTANT.SETUP_CHRA.TXT
     14378**DCL     14379--REDEF   14380--REDEF
BAN0_INT_STR
     16189**DCL     17092--ASSIGN  17221--ASSIGN
BAN1_INT_STR
     16190**DCL     17094--ASSIGN  17223--ASSIGN
BAN2_INT_STR
     16191**DCL     17096--ASSIGN  17225--ASSIGN
BAN3_INT_STR
     16192**DCL     17098--ASSIGN  17227--ASSIGN
BAN4_INT_STR
     16193**DCL     17100--ASSIGN  17229--ASSIGN
PL6.E3A0      #003=ASL$DISP_ONE_FORM File=ASL$DISPLAY_FORM.:E05TSI               TUE 07/29/97 09:59 Page:266
BAN5_INT_STR
     16194**DCL     17102--ASSIGN  17231--ASSIGN
BAN6_INT_STR
     16195**DCL     17104--ASSIGN  17233--ASSIGN
BAN7_INT_STR
     16196**DCL     17106--ASSIGN  17235--ASSIGN
BAN8_INT_STR
     16197**DCL     17108--ASSIGN  17237--ASSIGN
BAN9_INT_STR
     16198**DCL     17110--ASSIGN  17239--ASSIGN
BANNER_ENTRY_FMT
     16199**DCL     16998>>ASSIGN  16999--ASSIGN
BANNER_ENTRY_HDR
     16201**DCL     16997<>CALL    16997--CALL
BANNER_FMT
     16203**DCL     16592>>ASSIGN  16593--ASSIGN
BANNER_HDR
     16204**DCL     16591<>CALL    16591--CALL
BANNER_STR
     16205**DCL     16940<>CALL    16940--CALL
BIT18
     16138**DCL     16139--REDEF   16490<<ASSIGN  16737<<ASSIGN
BL_STR
     16206**DCL     16424--ASSIGN  16467--ASSIGN  17032--ASSIGN  17043--ASSIGN
CHARGE_JCL_FMT
     16207**DCL     16942>>CALLBLT 16943--ASSIGN
CHARSET_JCL_FMT
     16208**DCL     16708>>ASSIGN  16709--ASSIGN  16787>>ASSIGN  16788--ASSIGN
CHARSET_STR
     16210**DCL     16712--ASSIGN  16791--ASSIGN
DATE_INT_STR
     16211**DCL     17074--ASSIGN  17203--ASSIGN
DEVICE_LIMIT_JCL_FMT
     16212**DCL     16729--ASSIGN  16729>>ASSIGN  16730--ASSIGN
DEVICE_LIMIT_STR
     16214**DCL     16734--ASSIGN
PL6.E3A0      #003=ASL$DISP_ONE_FORM File=ASL$DISPLAY_FORM.:E05TSI               TUE 07/29/97 09:59 Page:267
DEV_LIM
     16140**DCL     16492<<ASSIGN  16493--ASSIGN  16739<<ASSIGN  16740--ASSIGN
DEV_LIM_FMT
     16215**DCL     16485>>ASSIGN  16486--ASSIGN
DEV_LIM_HDR
     16216**DCL     16484<>CALL    16484--CALL
DSEG1$
     12958**DCL     15865--IMP-PTR 15926--IMP-PTR 16310>>IF      16321>>IF      16328>>IF      16333>>ASSIGN
     16351>>IF      16353>>ASSIGN  16353>>ASSIGN  16365>>IF      16367>>ASSIGN  16367>>ASSIGN  16386>>ASSIGN
     16387>>ASSIGN  16388>>ASSIGN  16389>>ASSIGN  16390>>ASSIGN  16391>>ASSIGN  16398>>IF      16405>>IF
     16412>>IF      16419>>IF      16421>>ASSIGN  16427>>ASSIGN  16435>>ASSIGN  16436>>IF      16437>>ASSIGN
     16438>>ASSIGN  16439>>ASSIGN  16440>>ASSIGN  16441>>IF      16448>>IF      16455>>IF      16462>>IF
     16464>>ASSIGN  16470>>ASSIGN  16471>>IF      16490>>ASSIGN  16508>>IF      16520>>ASSIGN  16524>>DOWHILE
     16525>>ASSIGN  16526>>ASSIGN  16541>>IF      16543>>ASSIGN  16543>>ASSIGN  16565>>IF      16567>>ASSIGN
     16567>>ASSIGN  16587>>IF      16589>>ASSIGN  16589>>ASSIGN  16642>>IF      16645>>IF      16651>>ASSIGN
     16673>>IF      16675>>ASSIGN  16675>>ASSIGN  16686>>IF      16688>>ASSIGN  16688>>ASSIGN  16714>>ASSIGN
     16737>>ASSIGN  16744>>ASSIGN  16745>>ASSIGN  16746>>ASSIGN  16747>>ASSIGN  16748>>ASSIGN  16749>>ASSIGN
     16793>>ASSIGN  16797>>ASSIGN  16798>>ASSIGN  16799>>ASSIGN  16800>>ASSIGN  16801>>ASSIGN  16802>>IF
     16830>>IF      16854>>IF      16865>>ASSIGN  16869>>DOWHILE 16870>>ASSIGN  16871>>ASSIGN  16893>>IF
     16895>>ASSIGN  16895>>ASSIGN  16916>>IF      16919>>ASSIGN  16919>>ASSIGN  16938>>IF      16941>>ASSIGN
     16941>>ASSIGN
DSEG2$
     12959**DCL     16618<>CALL    16623<>CALL
END_STR
     16217**DCL     16882<>CALL    16882--CALL
ENTRY_GRAPH_JCL_FMT
     16218**DCL     17124>>ASSIGN  17125--ASSIGN
ENTRY_JCL_FMT
     16220**DCL     17137>>ASSIGN  17138--ASSIGN
ENUM
     16141**DCL     16551<<ASSIGN  16552>>DOINDEX 16901<<ASSIGN  16902>>DOINDEX
ENUM IN PROCEDURE ADD_ACCOUNTLIST
     17283**DCL     17292<<ASSIGN  17293>>DOINDEX
EQUAL_STR
     16222**DCL     16713--ASSIGN  16736--ASSIGN  16768--ASSIGN  16792--ASSIGN  16828--ASSIGN
ERR_CODE
PL6.E3A0      #003=ASL$DISP_ONE_FORM File=ASL$DISPLAY_FORM.:E05TSI               TUE 07/29/97 09:59 Page:268
     12952**DCL     12953--REDEF
FDS
     12849**DCL     16342<>CALL    16356<>CALL    16370<>CALL    16392<>CALL    16477<>CALL    16494<>CALL
     16530<>CALL    16554<>CALL    16666<>CALL    16677<>CALL    16690<>CALL    16722<>CALL    16755<>CALL
     16772<>CALL    16809<>CALL    16842<>CALL    16875<>CALL    16904<>CALL    16984<>CALL    17114<>CALL
     17150<>CALL    17244<>CALL
FDS.FMT_.BOUND
     12854**DCL     16309<<ASSIGN  16324<<ASSIGN  16331>>ASSIGN  16332<<ASSIGN  16332>>ASSIGN  16349<<ASSIGN
     16363<<ASSIGN  16384<<ASSIGN  16396<<ASSIGN  16432<<ASSIGN  16486<<ASSIGN  16516<<ASSIGN  16549<<ASSIGN
     16571<<ASSIGN  16593<<ASSIGN  16648<<ASSIGN  16658<<ASSIGN  16662>>ASSIGN  16663<<ASSIGN  16663>>ASSIGN
     16671<<ASSIGN  16684<<ASSIGN  16697<<ASSIGN  16709<<ASSIGN  16725<<ASSIGN  16729>>ASSIGN  16730<<ASSIGN
     16730>>ASSIGN  16758<<ASSIGN  16762>>ASSIGN  16763<<ASSIGN  16763>>ASSIGN  16782<<ASSIGN  16788<<ASSIGN
     16812<<ASSIGN  16819>>ASSIGN  16820<<ASSIGN  16820>>ASSIGN  16823>>ASSIGN  16824<<ASSIGN  16824>>ASSIGN
     16861<<ASSIGN  16899<<ASSIGN  16921<<ASSIGN  16943<<ASSIGN  16977>>ASSIGN  16978<<ASSIGN  16978>>ASSIGN
     16993<<ASSIGN  16999<<ASSIGN  17125<<ASSIGN  17138<<ASSIGN  17152<<ASSIGN  17266>>CALLBLT 17268<<ASSIGN
     17268>>ASSIGN  17285>>CALLBLT 17287<<ASSIGN  17287>>ASSIGN
FDS.NVECS#
     12877**DCL     16326<<ASSIGN  16334<<ASSIGN  16350<<ASSIGN  16364<<ASSIGN  16385<<ASSIGN  16397<<ASSIGN
     16433<<ASSIGN  16487<<ASSIGN  16522<<ASSIGN  16526>>ASSIGN  16527<<ASSIGN  16527>>ASSIGN  16550<<ASSIGN
     16572<<ASSIGN  16594<<ASSIGN  16649<<ASSIGN  16659<<ASSIGN  16672<<ASSIGN  16685<<ASSIGN  16698<<ASSIGN
     16710<<ASSIGN  16726<<ASSIGN  16732>>ASSIGN  16734>>ASSIGN  16735>>ASSIGN  16736>>ASSIGN  16740>>ASSIGN
     16741<<ASSIGN  16741>>ASSIGN  16759<<ASSIGN  16765>>ASSIGN  16767>>ASSIGN  16768>>ASSIGN  16769>>ASSIGN
     16770<<ASSIGN  16770>>ASSIGN  16783<<ASSIGN  16789<<ASSIGN  16813<<ASSIGN  16826>>ASSIGN  16827>>ASSIGN
     16828>>ASSIGN  16831>>ASSIGN  16833>>ASSIGN  16836>>ASSIGN  16837<<ASSIGN  16837>>ASSIGN  16867<<ASSIGN
     16871>>ASSIGN  16872<<ASSIGN  16872>>ASSIGN  16900<<ASSIGN  16922<<ASSIGN  16944<<ASSIGN  16979>>ASSIGN
     16980<<ASSIGN  16980>>ASSIGN  16994<<ASSIGN  17000<<ASSIGN  17002>>ASSIGN  17126<<ASSIGN  17139<<ASSIGN
     17153<<ASSIGN  17269>>ASSIGN  17270>>ASSIGN  17271<<ASSIGN  17271>>ASSIGN  17274>>ASSIGN  17275<<ASSIGN
     17275>>ASSIGN  17288>>ASSIGN  17289>>ASSIGN  17290<<ASSIGN  17290>>ASSIGN  17294>>ASSIGN  17295<<ASSIGN
     17295>>ASSIGN
FEP
     16143**DCL     16148--REDEF
FEP.L
     16147**DCL     17257>>ASSIGN
FEP.U
     16145**DCL     17256>>ASSIGN
FEP18
PL6.E3A0      #003=ASL$DISP_ONE_FORM File=ASL$DISPLAY_FORM.:E05TSI               TUE 07/29/97 09:59 Page:269
     16148**DCL     17254<<ASSIGN
FINISHED
     16626**LABEL   16618--CALLALT 16623--CALLALT
FINISH_BANNER
     16970**PROC    16578--CALL    16600--CALL    16925--CALL    16947--CALL
FLUSH
     16961**PROC    16614--CALL    16620--CALL    16626--CALL
FMT_BUF
     12948**DCL     16308<<ASSIGN  16323<<ASSIGN  16331<<ASSIGN  16348<<ASSIGN  16362<<ASSIGN  16383<<ASSIGN
     16395<<ASSIGN  16431<<ASSIGN  16485<<ASSIGN  16515<<ASSIGN  16548<<ASSIGN  16570<<ASSIGN  16592<<ASSIGN
     16647<<ASSIGN  16657<<ASSIGN  16662<<ASSIGN  16670<<ASSIGN  16683<<ASSIGN  16696<<ASSIGN  16708<<ASSIGN
     16724<<ASSIGN  16729<<ASSIGN  16757<<ASSIGN  16762<<ASSIGN  16781<<ASSIGN  16787<<ASSIGN  16811<<ASSIGN
     16819<<ASSIGN  16823<<ASSIGN  16860<<ASSIGN  16898<<ASSIGN  16920<<CALLBLT 16942<<CALLBLT 16977<<ASSIGN
     16992<<ASSIGN  16998<<ASSIGN  17124<<ASSIGN  17137<<ASSIGN  17151<<ASSIGN  17266<<CALLBLT 17285<<CALLBLT
FMT_VEC
     12948**DCL     16327<<ASSIGN  16330<<ASSIGN  16333<<ASSIGN  16339<<ASSIGN  16386<<ASSIGN  16387<<ASSIGN
     16388<<ASSIGN  16389<<ASSIGN  16390<<ASSIGN  16391<<ASSIGN  16400<<ASSIGN  16403<<ASSIGN  16407<<ASSIGN
     16410<<ASSIGN  16414<<ASSIGN  16417<<ASSIGN  16421<<ASSIGN  16424<<ASSIGN  16427<<ASSIGN  16434<<ASSIGN
     16437<<ASSIGN  16438<<ASSIGN  16439<<ASSIGN  16440<<ASSIGN  16443<<ASSIGN  16446<<ASSIGN  16450<<ASSIGN
     16453<<ASSIGN  16457<<ASSIGN  16460<<ASSIGN  16464<<ASSIGN  16467<<ASSIGN  16470<<ASSIGN  16472<<ASSIGN
     16474<<ASSIGN  16489<<ASSIGN  16493<<ASSIGN  16517<<ASSIGN  16519<<ASSIGN  16520<<ASSIGN  16526<<ASSIGN
     16553<<ASSIGN  16575<<ASSIGN  16577<<ASSIGN  16597<<ASSIGN  16599<<ASSIGN  16650<<ASSIGN  16651<<ASSIGN
     16660<<ASSIGN  16711<<ASSIGN  16712<<ASSIGN  16713<<ASSIGN  16714<<ASSIGN  16732<<ASSIGN  16734<<ASSIGN
     16735<<ASSIGN  16736<<ASSIGN  16740<<ASSIGN  16765<<ASSIGN  16767<<ASSIGN  16768<<ASSIGN  16769<<ASSIGN
     16790<<ASSIGN  16791<<ASSIGN  16792<<ASSIGN  16793<<ASSIGN  16826<<ASSIGN  16827<<ASSIGN  16828<<ASSIGN
     16831<<ASSIGN  16833<<ASSIGN  16836<<ASSIGN  16862<<ASSIGN  16864<<ASSIGN  16865<<ASSIGN  16871<<ASSIGN
     16903<<ASSIGN  16924<<ASSIGN  16946<<ASSIGN  16979<<ASSIGN  16983<<ASSIGN  17006<<ASSIGN  17007<<ASSIGN
     17008<<ASSIGN  17009<<ASSIGN  17010<<ASSIGN  17011<<ASSIGN  17012<<ASSIGN  17016<<ASSIGN  17017<<ASSIGN
     17018<<ASSIGN  17019<<ASSIGN  17020<<ASSIGN  17021<<ASSIGN  17022<<ASSIGN  17023<<ASSIGN  17032<<ASSIGN
     17035<<ASSIGN  17043<<ASSIGN  17046<<ASSIGN  17054<<ASSIGN  17058<<ASSIGN  17062<<ASSIGN  17064<<ASSIGN
     17066<<ASSIGN  17068<<ASSIGN  17070<<ASSIGN  17072<<ASSIGN  17074<<ASSIGN  17076<<ASSIGN  17078<<ASSIGN
     17080<<ASSIGN  17082<<ASSIGN  17084<<ASSIGN  17086<<ASSIGN  17088<<ASSIGN  17090<<ASSIGN  17092<<ASSIGN
     17094<<ASSIGN  17096<<ASSIGN  17098<<ASSIGN  17100<<ASSIGN  17102<<ASSIGN  17104<<ASSIGN  17106<<ASSIGN
     17108<<ASSIGN  17110<<ASSIGN  17112<<ASSIGN  17127<<ASSIGN  17128<<ASSIGN  17129<<ASSIGN  17130<<ASSIGN
     17131<<ASSIGN  17132<<ASSIGN  17133<<ASSIGN  17140<<ASSIGN  17141<<ASSIGN  17142<<ASSIGN  17143<<ASSIGN
     17144<<ASSIGN  17145<<ASSIGN  17146<<ASSIGN  17147<<ASSIGN  17164<<ASSIGN  17175<<ASSIGN  17183<<ASSIGN
PL6.E3A0      #003=ASL$DISP_ONE_FORM File=ASL$DISPLAY_FORM.:E05TSI               TUE 07/29/97 09:59 Page:270
     17187<<ASSIGN  17191<<ASSIGN  17193<<ASSIGN  17195<<ASSIGN  17197<<ASSIGN  17199<<ASSIGN  17201<<ASSIGN
     17203<<ASSIGN  17205<<ASSIGN  17207<<ASSIGN  17209<<ASSIGN  17211<<ASSIGN  17213<<ASSIGN  17215<<ASSIGN
     17217<<ASSIGN  17219<<ASSIGN  17221<<ASSIGN  17223<<ASSIGN  17225<<ASSIGN  17227<<ASSIGN  17229<<ASSIGN
     17231<<ASSIGN  17233<<ASSIGN  17235<<ASSIGN  17237<<ASSIGN  17239<<ASSIGN  17241<<ASSIGN  17269<<ASSIGN
     17270<<ASSIGN  17274<<ASSIGN  17288<<ASSIGN  17289<<ASSIGN  17294<<ASSIGN
FMT_VEC.BOUND
     12948**DCL     17037<<ASSIGN  17048<<ASSIGN  17166<<ASSIGN  17177<<ASSIGN
FMT_VEC.PTR$
     12948**DCL     17036<<ASSIGN  17047<<ASSIGN  17165<<ASSIGN  17176<<ASSIGN
FORMFLAG.ACCESS
     15817**DCL     16346>>IF
FORMFLAG.ALIGN
     15819**DCL     16563>>IF      16914>>IF
FORMFLAG.BANNER
     15816**DCL     16585>>IF      16936>>IF
FORMFLAG.HEADER
     15814**DCL     16377>>IF
FORMFLAG.JUSTNAM
     15820**DCL     16316>>IF
FORMFLAG.PSEUDO
     15821**DCL     16607>>IF
FORMFLAG.SETUP
     15815**DCL     16539>>IF      16890>>IF
FORMFLAG.VFU
     15818**DCL     16502>>IF      16848>>IF
FORM_FLAG
     15812**DCL        10--PROC    15813--REDEF
FORM_HDR
     16223**DCL     16430<>CALL    16430--CALL
FORM_HDR_FMT
     16225**DCL     16431>>ASSIGN  16432--ASSIGN
FORM_INT_STR
     16229**DCL     17088--ASSIGN  17217--ASSIGN
FORM_JCL_FMT
     16227**DCL     16657>>ASSIGN  16658--ASSIGN
FORM_KEY
PL6.E3A0      #003=ASL$DISP_ONE_FORM File=ASL$DISPLAY_FORM.:E05TSI               TUE 07/29/97 09:59 Page:271
     16149**DCL     16338<<ASSIGN  16340<>CALL    16628<>CALL
FORM_KEY.TXT
     16151**DCL     16339--ASSIGN  16611>>CALLBLT 16619>>DOWHILE
FORM_TYPE.COUNT
     16153**DCL     16307<<ASSIGN  16314<<ASSIGN
FORM_TYPE.TXTC
     16154**DCL     16306<<ASSIGN  16313<<ASSIGN  16327--ASSIGN
FS$ACCOUNTS.LIST
     16108**DCL     17288--ASSIGN  17294--ASSIGN
FS$ACCOUNTS.TACCTS
     16107**DCL     17292>>ASSIGN
FS$BAN
     15990**DCL     17046--ASSIGN  17047--ASSIGN  17175--ASSIGN  17176--ASSIGN
FS$BAN.ALIGNCTL.EVERY
     15993**DCL     16573>>IF      16923>>ASSIGN
FS$BAN.CHARGE
     15991**DCL     15992--REDEF   16595>>IF      16945>>ASSIGN
FS$BAN.ENTRIES.CHR
     16013**DCL     17059>>ASSIGN  17188>>ASSIGN
FS$BAN.ENTRIES.CINC
     16006**DCL     17023--ASSIGN  17147--ASSIGN
FS$BAN.ENTRIES.COL
     16000**DCL     17017--ASSIGN  17141--ASSIGN
FS$BAN.ENTRIES.COUNT
     16012**DCL     16013--REDEF   17041>>IF      17048>>ASSIGN  17170>>IF      17177>>ASSIGN
FS$BAN.ENTRIES.DISP
     16008**DCL     16009--REDEF   17047>>ASSIGN  17176>>ASSIGN
FS$BAN.ENTRIES.FONT
     16001**DCL     17018--ASSIGN  17142--ASSIGN
FS$BAN.ENTRIES.ICSH
     16003**DCL     17020--ASSIGN  17144--ASSIGN
FS$BAN.ENTRIES.REPS
     16004**DCL     17021--ASSIGN  17145--ASSIGN
FS$BAN.ENTRIES.RINC
     16005**DCL     17022--ASSIGN  17146--ASSIGN
FS$BAN.ENTRIES.ROW
PL6.E3A0      #003=ASL$DISP_ONE_FORM File=ASL$DISPLAY_FORM.:E05TSI               TUE 07/29/97 09:59 Page:272
     15999**DCL     17016--ASSIGN  17140--ASSIGN
FS$BAN.ENTRIES.STRIKES
     16002**DCL     17019--ASSIGN  17143--ASSIGN
FS$BAN.ENTRIES.TYPE
     16007**DCL     17024>>ASSIGN  17148>>ASSIGN
FS$BAN.NUM_ENTRIES
     15997**DCL     16987>>IF      17003>>DOINDEX 17119>>IF      17121>>DOINDEX
FS$BAN.REPEATS
     15995**DCL     16979--ASSIGN  16983--ASSIGN
FS$FORMREC.ACCSDISP
     15930**DCL     16351>>IF      16353>>ASSIGN  16673>>IF      16675>>ASSIGN
FS$FORMREC.ACCTDISP
     15928**DCL     16365>>IF      16367>>ASSIGN  16686>>IF      16688>>ASSIGN
FS$FORMREC.ALGNDISP
     15932**DCL     16565>>IF      16567>>ASSIGN  16916>>IF      16919>>ASSIGN
FS$FORMREC.ATTR
     15949**DCL     16471>>IF      16830>>IF
FS$FORMREC.BANRDISP
     15931**DCL     16587>>IF      16589>>ASSIGN  16938>>IF      16941>>ASSIGN
FS$FORMREC.CHAINS
     15974**DCL     15984--REDEF
FS$FORMREC.CHAIN_NAME
     15973**DCL     16470--ASSIGN  16793--ASSIGN
FS$FORMREC.FNAME
     15927**DCL     16321>>IF      16328>>IF      16333--ASSIGN  16645>>IF      16651--ASSIGN
FS$FORMREC.GRAPHIC
     15935**DCL     16310>>IF      16642>>IF
FS$FORMREC.LGLTYPS.ELSOK
     15945**DCL     16455>>IF
FS$FORMREC.LGLTYPS.LPOK
     15943**DCL     16441>>IF
FS$FORMREC.LGLTYPS.LTYP
     15948**DCL     16464--ASSIGN
FS$FORMREC.LGLTYPS.ONEOK
     15946**DCL     16462>>IF
FS$FORMREC.LGLTYPS.TSOK
PL6.E3A0      #003=ASL$DISP_ONE_FORM File=ASL$DISPLAY_FORM.:E05TSI               TUE 07/29/97 09:59 Page:273
     15944**DCL     16448>>IF
FS$FORMREC.SETUPDISP
     15929**DCL     16541>>IF      16543>>ASSIGN  16893>>IF      16895>>ASSIGN
FS$FORMREC.SOFTFORM.VFUIM.V.LINE
     15971**DCL     16508>>IF      16520--ASSIGN  16526--ASSIGN  16854>>IF      16865--ASSIGN  16871--ASSIGN
FS$FORMREC.SOFTFORM.VFUIM.V.NEXT
     15972**DCL     16524>>DOWHILE 16525>>ASSIGN  16869>>DOWHILE 16870>>ASSIGN
FS$FORMREC.SOFTFORM.VLPPLATEN.EXTWID
     15963**DCL     16436>>IF      16802>>IF
FS$FORMREC.SOFTFORM.VLPPLATEN.FIRSTLINE
     15961**DCL     16439--ASSIGN  16797>>ASSIGN
FS$FORMREC.SOFTFORM.VLPPLATEN.LENGTH
     15959**DCL     16437--ASSIGN  16798>>ASSIGN
FS$FORMREC.SOFTFORM.VLPPLATEN.LIMBO
     15960**DCL     16438--ASSIGN  16799>>ASSIGN
FS$FORMREC.SOFTFORM.VLPPLATEN.LPI
     15964**DCL     16440--ASSIGN  16800>>ASSIGN
FS$FORMREC.SOFTFORM.VLPPLATEN.WIDTH
     15958**DCL     16435>>ASSIGN  16801>>ASSIGN
FS$GBAN
     16053**DCL     17035--ASSIGN  17036--ASSIGN  17164--ASSIGN  17165--ASSIGN
FS$GBAN.CHARGE
     16054**DCL     16055--REDEF
FS$GBAN.ENTRIES.CHARSIZE
     16071**DCL     16077--REDEF
FS$GBAN.ENTRIES.CHARSPACE
     16080**DCL     16085--REDEF
FS$GBAN.ENTRIES.CHARUP
     16062**DCL     16069--REDEF
FS$GBAN.ENTRIES.CHAR_HITE
     16079**DCL     17011--ASSIGN  17132--ASSIGN
FS$GBAN.ENTRIES.CHAR_SPACE
     16086**DCL     17012--ASSIGN  17133--ASSIGN
FS$GBAN.ENTRIES.CHAR_WIDTH
     16078**DCL     17010--ASSIGN  17131--ASSIGN
FS$GBAN.ENTRIES.CHR
PL6.E3A0      #003=ASL$DISP_ONE_FORM File=ASL$DISPLAY_FORM.:E05TSI               TUE 07/29/97 09:59 Page:274
     16095**DCL     17055>>ASSIGN  17184>>ASSIGN
FS$GBAN.ENTRIES.COUNT
     16094**DCL     16095--REDEF   17030>>IF      17037>>ASSIGN  17159>>IF      17166>>ASSIGN
FS$GBAN.ENTRIES.DIRECTION
     16070**DCL     17009--ASSIGN  17130--ASSIGN
FS$GBAN.ENTRIES.DISP
     16096**DCL     17036>>ASSIGN  17165>>ASSIGN
FS$GBAN.ENTRIES.TYPE
     16093**DCL     17013>>ASSIGN  17134>>ASSIGN
FS$GBAN.ENTRIES.X_VAL
     16087**DCL     17006--ASSIGN  17127--ASSIGN
FS$GBAN.ENTRIES.Y_VAL
     16088**DCL     17007--ASSIGN  17128--ASSIGN
FS$GBAN.ENTRIES.Z_VAL
     16089**DCL     17008--ASSIGN  17129--ASSIGN
FS$GFORMREC.CHAIN_NAME
     15889**DCL     16427--ASSIGN  16714--ASSIGN
FS$GFORMREC.LGLTYPS.ELSOK
     15884**DCL     16412>>IF
FS$GFORMREC.LGLTYPS.LPOK
     15882**DCL     16398>>IF
FS$GFORMREC.LGLTYPS.LTYP
     15887**DCL     16421--ASSIGN
FS$GFORMREC.LGLTYPS.ONEOK
     15885**DCL     16419>>IF
FS$GFORMREC.LGLTYPS.TSOK
     15883**DCL     16405>>IF
FS$GFORMREC.SET_DEV_LIM
     15896**DCL     15913--REDEF
FS$GFORMREC.SET_DEV_LIM.UPARAM
     15910**DCL     16490>>ASSIGN  16737>>ASSIGN
FS$GFORMREC.X_OFFSET
     15893**DCL     16389--ASSIGN  16747>>ASSIGN
FS$GFORMREC.X_SIZE
     15890**DCL     16386--ASSIGN  16744>>ASSIGN
FS$GFORMREC.Y_OFFSET
PL6.E3A0      #003=ASL$DISP_ONE_FORM File=ASL$DISPLAY_FORM.:E05TSI               TUE 07/29/97 09:59 Page:275
     15894**DCL     16390--ASSIGN  16748>>ASSIGN
FS$GFORMREC.Y_SIZE
     15891**DCL     16387--ASSIGN  16745>>ASSIGN
FS$GFORMREC.Z_OFFSET
     15895**DCL     16391--ASSIGN  16749>>ASSIGN
FS$GFORMREC.Z_SIZE
     15892**DCL     16388--ASSIGN  16746>>ASSIGN
FS$SETUP.LINES
     16122**DCL     16544>>IF      16551>>ASSIGN  16896>>IF      16901>>ASSIGN
FS$SETUP.TXT
     16125**DCL     16553--ASSIGN  16903--ASSIGN
GBANNER_ENTRY_FMT
     16230**DCL     16992>>ASSIGN  16993--ASSIGN
GBANNER_ENTRY_HDR
     16232**DCL     16991<>CALL    16991--CALL
GFORM_HDR
     16234**DCL     16382<>CALL    16382--CALL
GFORM_HDR2
     16238**DCL     16394<>CALL    16394--CALL
GFORM_HDR2_FMT
     16240**DCL     16395>>ASSIGN  16396--ASSIGN
GFORM_HDR_FMT
     16236**DCL     16383>>ASSIGN  16384--ASSIGN
GRAPHIC
     16155**DCL     16305<<ASSIGN  16312<<ASSIGN  16380>>IF      16481>>IF      16504>>IF      16641<<ASSIGN
     16643<<ASSIGN  16661>>IF      16699>>IF      16850>>IF      16989>>IF      17004>>IF      17028>>IF
     17052>>IF      17122>>IF      17157>>IF      17181>>IF
GRAPHICS_STR
     16242**DCL     16662--ASSIGN  16662>>ASSIGN  16663--ASSIGN
GRAPH_HDR_JCL_FMT
     16243**DCL     16762--ASSIGN  16762>>ASSIGN  16763--ASSIGN
GRAPH_HDR_STR
     16245**DCL     16767--ASSIGN
GRAPH_TAB
     16156**DCL     16702<<ASSIGN  16704<<ASSIGN  16704>>ASSIGN  16711--ASSIGN  16715>>ASSIGN  16732--ASSIGN
     16765--ASSIGN
PL6.E3A0      #003=ASL$DISP_ONE_FORM File=ASL$DISPLAY_FORM.:E05TSI               TUE 07/29/97 09:59 Page:276
GRAPH_TAB_DEFAULT
     16252**DCL     16704>>ASSIGN  16721>>IF      16731>>ASSIGN  16754>>IF      16764>>ASSIGN
HDR_JCL_FMT
     16253**DCL     16823--ASSIGN  16823>>ASSIGN  16824--ASSIGN
HDR_JCL_FMT2
     16255**DCL     16819--ASSIGN  16819>>ASSIGN  16820--ASSIGN
HDR_STR
     16257**DCL     16827--ASSIGN
HOST
     16157**DCL     16161--REDEF
HOST.L
     16160**DCL     17257<<ASSIGN
HOST.U
     16159**DCL     17256<<ASSIGN
HOST18
     16161**DCL     16492>>ASSIGN  16739>>ASSIGN  17255<<ASSIGN
I
     16162**DCL     16488<<DOINDEX 16489--ASSIGN  16490>>ASSIGN  16492>>ASSIGN  16493>>ASSIGN  16507<<DOINDEX
     16508>>IF      16519--ASSIGN  16520>>ASSIGN  16523>>ASSIGN  16552<<DOINDEX 16553>>ASSIGN  16617<<ASSIGN
     16618<>CALL    16623<>CALL    16703<<DOINDEX 16704>>ASSIGN  16704>>ASSIGN  16720<<DOINDEX 16735>>ASSIGN
     16737>>ASSIGN  16739>>ASSIGN  16740>>ASSIGN  16753<<DOINDEX 16767>>ASSIGN  16769>>ASSIGN  16777<<DOINDEX
     16778>>ASSIGN  16778>>ASSIGN  16807<<DOINDEX 16816>>IF      16818>>IF      16827>>ASSIGN  16829>>IF
     16836>>ASSIGN  16853<<DOINDEX 16854>>IF      16864--ASSIGN  16865>>ASSIGN  16868>>ASSIGN  16902<<DOINDEX
     16903>>ASSIGN
I IN PROCEDURE ADD_ACCLIST
     17263**DCL     17273<<DOINDEX 17274>>ASSIGN
I IN PROCEDURE ADD_ACCOUNTLIST
     17284**DCL     17293<<DOINDEX 17294>>ASSIGN
I IN PROCEDURE FINISH_BANNER
     16971**DCL     17003<<DOINDEX 17006>>ASSIGN  17007>>ASSIGN  17008>>ASSIGN  17009>>ASSIGN  17010>>ASSIGN
     17011>>ASSIGN  17012>>ASSIGN  17013>>ASSIGN  17016>>ASSIGN  17017>>ASSIGN  17018>>ASSIGN  17019>>ASSIGN
     17020>>ASSIGN  17021>>ASSIGN  17022>>ASSIGN  17023>>ASSIGN  17024>>ASSIGN  17030>>IF      17036>>ASSIGN
     17037>>ASSIGN  17041>>IF      17047>>ASSIGN  17048>>ASSIGN  17055>>ASSIGN  17059>>ASSIGN  17121<<DOINDEX
     17127>>ASSIGN  17128>>ASSIGN  17129>>ASSIGN  17130>>ASSIGN  17131>>ASSIGN  17132>>ASSIGN  17133>>ASSIGN
     17134>>ASSIGN  17140>>ASSIGN  17141>>ASSIGN  17142>>ASSIGN  17143>>ASSIGN  17144>>ASSIGN  17145>>ASSIGN
     17146>>ASSIGN  17147>>ASSIGN  17148>>ASSIGN  17159>>IF      17165>>ASSIGN  17166>>ASSIGN  17170>>IF
PL6.E3A0      #003=ASL$DISP_ONE_FORM File=ASL$DISPLAY_FORM.:E05TSI               TUE 07/29/97 09:59 Page:277
     17176>>ASSIGN  17177>>ASSIGN  17184>>ASSIGN  17188>>ASSIGN
J
     16163**DCL     16523<<ASSIGN  16524>>DOWHILE 16525<<ASSIGN  16525>>ASSIGN  16526>>ASSIGN  16716<<ASSIGN
     16723<<ASSIGN  16732>>ASSIGN  16733<<ASSIGN  16733>>ASSIGN  16756<<ASSIGN  16765>>ASSIGN  16766<<ASSIGN
     16766>>ASSIGN  16785<<ASSIGN  16795<<ASSIGN  16810<<ASSIGN  16826>>ASSIGN  16839<<ASSIGN  16839>>ASSIGN
     16868<<ASSIGN  16869>>DOWHILE 16870<<ASSIGN  16870>>ASSIGN  16871>>ASSIGN
JCL
     15823**DCL        10--PROC    16301>>IF      16976>>IF      16985>>IF
JOBNAME_INT_STR
     16264**DCL     17070--ASSIGN  17199--ASSIGN
KL$ACBLK.ACCTS
     15853**DCL     17264>>IF      17273>>DOINDEX
KL$ACBLK.LIST
     15854**DCL     17269--ASSIGN  17274--ASSIGN
KL_DEFAULT.PASSWORD
     15568**DCL     15572--REDEF
KL_DEFAULT.RENAME
     15591**DCL     15592--REDEF
KL_DFLT.PASSWORD
     14758**DCL     14762--REDEF
KL_DFLT.RENAME
     14781**DCL     14782--REDEF
KL_DREC.PASSWORD
     14596**DCL     14600--REDEF
KL_DREC.RENAME
     14619**DCL     14620--REDEF
KL_DREC_CNT.PASSWORD
     14483**DCL     14487--REDEF
KL_DREC_CNT.RENAME
     14506**DCL     14507--REDEF
LOGO_INT_STR
     16265**DCL     17080--ASSIGN  17209--ASSIGN
LO_WIDTH
     12834**DCL     16620>>IF      16721>>IF      16754>>IF      16808>>IF      16963<>CALL
MINI_ID_INT_STR
     16266**DCL     17090--ASSIGN  17219--ASSIGN
PL6.E3A0      #003=ASL$DISP_ONE_FORM File=ASL$DISPLAY_FORM.:E05TSI               TUE 07/29/97 09:59 Page:278
NON_GRAPH_TAB
     16164**DCL     16776<<ASSIGN  16778<<ASSIGN  16778>>ASSIGN  16790--ASSIGN  16794>>ASSIGN  16826--ASSIGN
NO_STR
     16267**DCL     16403--ASSIGN  16410--ASSIGN  16417--ASSIGN  16446--ASSIGN  16453--ASSIGN  16460--ASSIGN
     16474--ASSIGN  16577--ASSIGN  16599--ASSIGN  16833--ASSIGN
NO_TEXT
     16165**DCL     17154<<ASSIGN  17161<<ASSIGN  17172<<ASSIGN  17243>>IF
NUMBER_STR
     16268**DCL     16735--ASSIGN
OBJECT
     15824**DCL        10--PROC    16321>>IF
OUT_BUF
     12949**DCL     16611<<CALLBLT 16612<>CALL    16612--CALL    16621<<CALLBLT 16963<>CALL    16964<<ASSIGN
P$
     15828**DCL     15852--IMP-PTR 15990--IMP-PTR 16053--IMP-PTR 16353<<ASSIGN  16367<<ASSIGN  16543<<ASSIGN
     16544>>IF      16551>>ASSIGN  16553>>ASSIGN  16567<<ASSIGN  16573>>IF      16589<<ASSIGN  16595>>IF
     16675<<ASSIGN  16688<<ASSIGN  16895<<ASSIGN  16896>>IF      16901>>ASSIGN  16903>>ASSIGN  16919<<ASSIGN
     16923>>ASSIGN  16941<<ASSIGN  16945>>ASSIGN  16979>>ASSIGN  16983>>ASSIGN  16987>>IF      17003>>DOINDEX
     17006>>ASSIGN  17007>>ASSIGN  17008>>ASSIGN  17009>>ASSIGN  17010>>ASSIGN  17011>>ASSIGN  17012>>ASSIGN
     17013>>ASSIGN  17016>>ASSIGN  17017>>ASSIGN  17018>>ASSIGN  17019>>ASSIGN  17020>>ASSIGN  17021>>ASSIGN
     17022>>ASSIGN  17023>>ASSIGN  17024>>ASSIGN  17030>>IF      17035>>ASSIGN  17036>>ASSIGN  17036>>ASSIGN
     17037>>ASSIGN  17041>>IF      17046>>ASSIGN  17047>>ASSIGN  17047>>ASSIGN  17048>>ASSIGN  17055>>ASSIGN
     17059>>ASSIGN  17119>>IF      17121>>DOINDEX 17127>>ASSIGN  17128>>ASSIGN  17129>>ASSIGN  17130>>ASSIGN
     17131>>ASSIGN  17132>>ASSIGN  17133>>ASSIGN  17134>>ASSIGN  17140>>ASSIGN  17141>>ASSIGN  17142>>ASSIGN
     17143>>ASSIGN  17144>>ASSIGN  17145>>ASSIGN  17146>>ASSIGN  17147>>ASSIGN  17148>>ASSIGN  17159>>IF
     17164>>ASSIGN  17165>>ASSIGN  17165>>ASSIGN  17166>>ASSIGN  17170>>IF      17175>>ASSIGN  17176>>ASSIGN
     17176>>ASSIGN  17177>>ASSIGN  17184>>ASSIGN  17188>>ASSIGN  17264>>IF      17269>>ASSIGN  17273>>DOINDEX
     17274>>ASSIGN  17288>>ASSIGN  17292>>ASSIGN  17294>>ASSIGN
PROJ_KEY.TEXT
     12830**DCL     12830--REDEF
PROJ_KEY.TXT.PROJECT
     12830**DCL     12830--REDEF
PSEUDO
     16169**DCL     16653<<ASSIGN  16656<<ASSIGN  16707>>IF      16786>>IF      16816>>IF      16816>>IF
     16890>>IF      16914>>IF
PSEUDO_FORMS
PL6.E3A0      #003=ASL$DISP_ONE_FORM File=ASL$DISPLAY_FORM.:E05TSI               TUE 07/29/97 09:59 Page:279
     16170**DCL     16335<<ASSIGN  16340<>CALL    16609>>IF      16652<<ASSIGN
PSEUDO_FORM_KEY
     16166**DCL     16340<>CALL    16615>>ASSIGN
PSEUDO_JCL_FMT
     16270**DCL     16647>>ASSIGN  16648--ASSIGN
REGNAM_INT_STR
     16272**DCL     17112--ASSIGN  17241--ASSIGN
REMEM_VAR
     12956**DCL     12956--REDEF
REMOVE_ALIGNMENT_STR
     16274**DCL     16929<>CALL    16929--CALL
REMOVE_BANNER_STR
     16273**DCL     16951<>CALL    16951--CALL
REM_FCMD
     12956**DCL     12957--REDEF
REPEATS
     16172**DCL     16517--ASSIGN  16521<<ASSIGN  16528<<ASSIGN  16528>>ASSIGN  16862--ASSIGN  16866<<ASSIGN
     16873<<ASSIGN  16873>>ASSIGN
REPEATS IN PROCEDURE ADD_ACCLIST
     17262**DCL     17270--ASSIGN  17272<<ASSIGN  17276<<ASSIGN  17276>>ASSIGN
REPEATS IN PROCEDURE ADD_ACCOUNTLIST
     17282**DCL     17289--ASSIGN  17291<<ASSIGN  17296<<ASSIGN  17296>>ASSIGN
REPEATS_JCL_FMT
     16275**DCL     16977--ASSIGN  16977>>ASSIGN  16978--ASSIGN
SALUTE_INT_STR
     16276**DCL     17086--ASSIGN  17215--ASSIGN
SETUP_FMT
     16277**DCL     16548>>ASSIGN  16549--ASSIGN  16898>>ASSIGN  16899--ASSIGN
SETUP_HDR
     16278**DCL     16547<>CALL    16547--CALL
SETUP_STR
     16279**DCL     16892<>CALL    16892--CALL
SETUP_TXT_FMT
     16280**DCL     17151>>ASSIGN  17152--ASSIGN
SITENAME_INT_STR
     16281**DCL     17084--ASSIGN  17213--ASSIGN
PL6.E3A0      #003=ASL$DISP_ONE_FORM File=ASL$DISPLAY_FORM.:E05TSI               TUE 07/29/97 09:59 Page:280
SPLIT9X92_18
     17251**PROC    16491--CALL    16738--CALL
SUBFILE_INT_STR
     16282**DCL     17078--ASSIGN  17207--ASSIGN
SYSID_INT_STR
     16283**DCL     17062--ASSIGN  17191--ASSIGN
TABS
     16173**DCL     16620>>IF      16621>>CALLBLT 16622<<ASSIGN  16622>>ASSIGN  16715<<ASSIGN  16721>>IF
     16727<<ASSIGN  16731<<ASSIGN  16731>>ASSIGN  16754>>IF      16760<<ASSIGN  16764<<ASSIGN  16764>>ASSIGN
     16784<<ASSIGN  16794<<ASSIGN  16808>>IF      16814<<ASSIGN  16838<<ASSIGN  16838>>ASSIGN  16963>>IF
     16965<<ASSIGN
TAB_DEFAULT
     16284**DCL     16778>>ASSIGN  16808>>IF      16838>>ASSIGN
TIME_INT_STR
     16285**DCL     17072--ASSIGN  17201--ASSIGN
TYPE
     16175**DCL     17013<<ASSIGN  17024<<ASSIGN  17026>>DOSELCT 17134<<ASSIGN  17148<<ASSIGN  17155>>DOSELCT
UBIN18
     16139**DCL     16491<>CALL    16738<>CALL
UBIN_ARRAY
     16176**DCL     16744<<ASSIGN  16745<<ASSIGN  16746<<ASSIGN  16747<<ASSIGN  16748<<ASSIGN  16749<<ASSIGN
     16769--ASSIGN  16797<<ASSIGN  16798<<ASSIGN  16799<<ASSIGN  16800<<ASSIGN  16801<<ASSIGN  16803<<ASSIGN
     16803>>ASSIGN  16836--ASSIGN  16923<<ASSIGN  16924--ASSIGN  16945<<ASSIGN  16946--ASSIGN
UNAME_INT_STR
     16286**DCL     17066--ASSIGN  17195--ASSIGN
USERS_KEY
     12827**DCL     16338>>ASSIGN  16615<<ASSIGN  16616<>CALL
USERS_KEY.COUNT
     12827**DCL     16321>>IF      16328>>IF      16330>>ASSIGN  16619>>DOWHILE 16645>>IF      16650>>ASSIGN
     16660>>ASSIGN
USERS_KEY.TEXT
     12827**DCL     12828--REDEF   12828--REDEF   12828--REDEF   12829--REDEF
USERS_KEY.TXTC
     12828**DCL     16321>>IF      16328>>IF      16330--ASSIGN  16619>>DOWHILE 16621>>CALLBLT 16634>>IF
     16634>>IF      16634>>IF      16645>>IF      16650--ASSIGN  16660--ASSIGN
VALUE IN PROCEDURE SPLIT9X92_18
PL6.E3A0      #003=ASL$DISP_ONE_FORM File=ASL$DISPLAY_FORM.:E05TSI               TUE 07/29/97 09:59 Page:281
     17252**DCL     17251--PROC    17254>>ASSIGN
VEC_NUM
     16177**DCL     17002<<ASSIGN  17032>>ASSIGN  17035>>ASSIGN  17036>>ASSIGN  17037>>ASSIGN  17043>>ASSIGN
     17046>>ASSIGN  17047>>ASSIGN  17048>>ASSIGN  17054>>ASSIGN  17058>>ASSIGN  17062>>ASSIGN  17064>>ASSIGN
     17066>>ASSIGN  17068>>ASSIGN  17070>>ASSIGN  17072>>ASSIGN  17074>>ASSIGN  17076>>ASSIGN  17078>>ASSIGN
     17080>>ASSIGN  17082>>ASSIGN  17084>>ASSIGN  17086>>ASSIGN  17088>>ASSIGN  17090>>ASSIGN  17092>>ASSIGN
     17094>>ASSIGN  17096>>ASSIGN  17098>>ASSIGN  17100>>ASSIGN  17102>>ASSIGN  17104>>ASSIGN  17106>>ASSIGN
     17108>>ASSIGN  17110>>ASSIGN  17112>>ASSIGN
VERSION_INT_STR
     16287**DCL     17076--ASSIGN  17205--ASSIGN
VFUIM_STR
     16288**DCL     16858<>CALL    16858--CALL    16881<>CALL    16881--CALL
VFU_FMT
     16289**DCL     16515>>ASSIGN  16516--ASSIGN  16860>>ASSIGN  16861--ASSIGN
VFU_HDR
     16290**DCL     16513<>CALL    16513--CALL
VFU_HDR_OUT
     16178**DCL     16506<<ASSIGN  16510>>IF      16514<<ASSIGN  16852<<ASSIGN  16856>>IF      16859<<ASSIGN
     16878>>IF
WIDTH
     16179**DCL     16434--ASSIGN  16435<<ASSIGN  16436<<ASSIGN  16436>>ASSIGN
WOD_INT_STR
     16291**DCL     17082--ASSIGN  17211--ASSIGN
WOO_INT_STR
     16292**DCL     17068--ASSIGN  17197--ASSIGN
WSN_ACC_FMT
     16293**DCL     17266--CALLBLT 17266>>CALLBLT 17268--ASSIGN
X$FORMAT
     15847**DCL-ENT 16342--CALL    16356--CALL    16370--CALL    16392--CALL    16477--CALL    16494--CALL
     16530--CALL    16554--CALL    16666--CALL    16677--CALL    16690--CALL    16722--CALL    16755--CALL
     16772--CALL    16809--CALL    16842--CALL    16875--CALL    16904--CALL    16984--CALL    17114--CALL
     17150--CALL    17244--CALL
X_INT IN PROCEDURE FINISH_BANNER
     16972**DCL     17054--ASSIGN  17058--ASSIGN  17183--ASSIGN  17187--ASSIGN
X_INT.XCHAR IN PROCEDURE FINISH_BANNER
     16974**DCL     17055<<ASSIGN  17059<<ASSIGN  17184<<ASSIGN  17188<<ASSIGN
PL6.E3A0      #003=ASL$DISP_ONE_FORM File=ASL$DISPLAY_FORM.:E05TSI               TUE 07/29/97 09:59 Page:282
YES_NO_FMT
     16294**DCL     16920>>CALLBLT 16921--ASSIGN  16942>>CALLBLT 16943--ASSIGN
YES_STR
     16295**DCL     16400--ASSIGN  16407--ASSIGN  16414--ASSIGN  16443--ASSIGN  16450--ASSIGN  16457--ASSIGN
     16472--ASSIGN  16575--ASSIGN  16597--ASSIGN  16831--ASSIGN
