PL6.E3A0      #002=ASL$LIST_OUT File=ASL$EXT.:E05TSI                             TUE 07/29/97 09:59 Page:43
      187        1        /*T***********************************************************/
      188        2        /*T*                                                         */
      189        3        /*T* Copyright (c) Bull HN Information Systems Inc., 1997    */
      190        4        /*T*                                                         */
      191        5        /*T***********************************************************/
      192        6        ASL$LIST_OUT: PROC(DO_FLAG);
      193        7        /********************************************************************/
      194        8        /*   Parameters      parameters      parameters      parameters     */
      195        9        /********************************************************************/
      196       10    1   DCL DO_FLAG(0:143) BIT(1);
      197       11    1   DCL 1 FLAGS REDEF DO_FLAG,
      198       12    1          2 MODE(0:4) BIT(1) UNAL,
      199       13    1          2 OPTS1(0:98) BIT(1) UNAL,
      200       14    1          2 FE_MODE(0:3) BIT(1) UNAL ,
      201       15    1          2 OPTS2(0:35) BIT(1) UNAL;
      202       16        /********************************************************************/
      203       17        /*   Include files   include files   include files   include files  */
      204       18        /********************************************************************/
      205       19        %INCLUDE CP_6_SUBS;
      206      559        %INCLUDE AS_ENTRIES_M;
      207     1609        %INCLUDE AS_SUPER_C;
      208     2044        %INCLUDE AS_SUBS_C;
      209     3458        %INCLUDE AS_MAC_C;
      210     3538        %INCLUDE CP_6;
      211     3619        %INCLUDE KL_SUPER_C;
      212     6521        %INCLUDE XU_MACRO_C;
      213     9627        %INCLUDE XU_FORMAT_C;
      214     9789        %INCLUDE AS_SUPER_R;
      215    12805 S      %INCLUDE B$JIT_C ;
      216    12806              %B$JIT0 ;
      217    12895              %U$JIT1 ;
      218    12969              %M$JIT2 ;
      219    12979              %F$JIT3 ;
      220    12984              %S$JIT4 ;
      221    12990              %J$JIT5 ;
      222    13078              %A$JIT6 ;
      223    13088        /********************************************************************/
PL6.E3A0      #002=ASL$LIST_OUT File=ASL$EXT.:E05TSI                             TUE 07/29/97 09:59 Page:44
      224    13089        /*   Entry dcls      entry dcls      entry dcls      entry dcls     */
      225    13090        /********************************************************************/
      226    13091        %ASB$WRITE_LO ;
      227    13094        %ASB$PIG ;
      228    13097    1   DCL X$FORMAT ENTRY(1);
      229    13098        /********************************************************************/
      230    13099        /*   Local based     local based     local based     local based    */
      231    13100        /********************************************************************/
      232    13101        %AS$PROJ( STCLASS="BASED(DSEG2$)" );
      233    13135    1   DCL 1 TEXT$C BASED,
      234    13136    1          2 L UBIN BYTE UNAL,
      235    13137    1          2 C CHAR(TEXT$C.L) UNAL;
      236    13138        /********************************************************************/
      237    13139        /*   Dcbs            dcbs            dcbs            dcbs           */
      238    13140        /********************************************************************/
      239    13141        /********************************************************************/
      240    13142        /*   Constant data   constant data   constant data   constant data  */
      241    13143        /********************************************************************/
      242    13144    1   DCL 1 OPT_TBL(0:147) CONSTANT,
      243    13145    1          2 LEN UBIN BYTE UNAL INIT
      244    13146    1           (0*7,
      245    13147    1           %(LENGTHC('HSET')+4),%(LENGTHC('NATIVEL')+2),
      246    13148    1           %(LENGTHC('PASSWORD')+2),%(LENGTHC('PROFILE')+5),
      247    13149    1           %(LENGTHC('STEPACCNT')+2),%(LENGTHC('WSN')+9),
      248    13150    1           %(LENGTHC('EXPIRE MAX')+2),%(LENGTHC('EXPIRE DEF')+2),
      249    13151    1           %(LENGTHC('MCHARGES')+4),%(LENGTHC('ACHARGES')+4),
      250    13152    1           %(LENGTHC('PROJECT ADMIN')+9),%(LENGTHC('BKACCESS')+2),
      251    13153    1           %(LENGTHC('BUDLIM')+2),%(LENGTHC('ICHARGE')+2),
      252    13154    1           %(LENGTHC('PCHARGE')+2),%(LENGTHC('BILLING')+2),
      253    13155    1           %(LENGTHC('CPROC')+18),%(LENGTHC('LAST CPROC')+13),
      254    13156    1           %(LENGTHC('*S_ACCOUNTING')+2),%(LENGTHC('ACCESS')+2),
      255    13157    1           %(LENGTHC('SETUP')+135),%(LENGTHC('MEM MAX')+2),
      256    13158    1           %(LENGTHC('MEM DEF')+2),%(LENGTHC('TIME MAX')+2),
      257    13159    1           %(LENGTHC('TIME DEF')+2),%(LENGTHC('MAX LO')+2),
      258    13160    1           %(LENGTHC('DEF LO')+2),%(LENGTHC('MAX PO')+2),
      259    13161    1           %(LENGTHC('DEF PO')+2),%(LENGTHC('MAX DO')+2),
      260    13162    1           %(LENGTHC('DEF DO')+2),%(LENGTHC('MAX TDIS')+2),
PL6.E3A0      #002=ASL$LIST_OUT File=ASL$EXT.:E05TSI                             TUE 07/29/97 09:59 Page:45
      261    13163    1           %(LENGTHC('DEF TDIS')+2),%(LENGTHC('MAX PDIS')+2),
      262    13164    1           %(LENGTHC('DEF PDIS')+2),%(LENGTHC('MAX FPOOLS')+2),
      263    13165    1           %(LENGTHC('DEF FPOOLS')+2),%(LENGTHC('MAX PRIO')+2),
      264    13166    1           %(LENGTHC('DEF PRIO')+2),%(LENGTHC('OUTPUTPRIO')+2),
      265    13167    1           %(LENGTHC('BLINDACCOUNTING')+2), %(LENGTHC('BATNUM')+2),
      266    13168    1           %(LENGTHC('ALTERABLE SETUP')+125),%(LENGTHC('  QUAN')+4),
      267    13169    1           80*9, /* Make the size of the banner fields 80 char long. */
      268    13170    1           %(LENGTHC('ALTERABLE BANNER1')+2),%(LENGTHC('ALTERABLE BANNER2')+2),
      269    13171    1           %(LENGTHC('ALTERABLE BANNER3')+2),%(LENGTHC('ALTERABLE BANNER4')+2),
      270    13172    1           %(LENGTHC('ALTERABLE BANNER5')+2),%(LENGTHC('ALTERABLE BANNER6')+2),
      271    13173    1           %(LENGTHC('ALTERABLE BANNER7')+2),%(LENGTHC('ALTERABLE BANNER8')+2),
      272    13174    1           %(LENGTHC('ALTERABLE BANNER9')+2),
      273    13175    1           %(LENGTHC('ACCOUNT OWNER')+67),%(LENGTHC('LASTLOGON TIME')+9),
      274    13176    1           %(LENGTHC('PREVIOUS LOGON TIME')+21),%(LENGTHC('BAD LOGON COUNT')+25),
      275    13177    1           0*2, %(LENGTHC('FORCE SETUP')+69),
      276    13178    1           %(LENGTHC('PRIOB')+2),
      277    13179    1           0*4,
      278    13180    1           %(LENGTHC('        FACCOUNT')+2), %(LENGTHC('   KEY')+2),
      279    13181    1           %(LENGTHC('FE MINTS')+2), %(LENGTHC('FE MFPRG')+2),
      280    13182    1           %(LENGTHC('FE BILLING')+2), %(LENGTHC('FE MAX TIME')+2),
      281    13183    1           %(LENGTHC('FE MAX MEM')+2), %(LENGTHC('FE MAX ACCT MEM')+2),
      282    13184    1           %(LENGTHC('FE DBACCN')+2),%(LENGTHC('FE STEPACCOUNTING')+2),
      283    13185    1           0*21,
      284    13186    1           %(LENGTHC('ACCOUNTS MAX')+2), %(LENGTHC('ACCOUNTS ACCUM')+2),
      285    13187    1           %(LENGTHC('CHARGES MAX')+2),%(LENGTHC('CHARGES ACCUM')+2),
      286    13188    1           %(LENGTHC('PROJECTS MAX')+2),%(LENGTHC('PROJECTS ACCUM')+2),
      287    13189    1           0*3,
      288    13190    1           %(LENGTHC('ACCOUNTS MAX')+2),%(LENGTHC('ACCOUNTS ACCUM')+2),
      289    13191    1           %(LENGTHC('GRANULES MAX')+2),%(LENGTHC('GRANULES ACCUM')+2),
      290    13192    1           %(LENGTHC('SKELETON')+2),%(LENGTHC('ATTRIBUTES')+2),
      291    13193    1           %(LENGTHC('MAXENQ')+2),
      292    13194    1           0*20 ),
      293    13195    1          2 HDR CHAR(20) UNAL INIT
      294    13196    1           (' '*7,
      295    13197    1           'HSET', 'NATIVEL',
      296    13198    1           'PASSWORD', 'PROFILE',
      297    13199    1           'STEPACCNT', 'WSN',
PL6.E3A0      #002=ASL$LIST_OUT File=ASL$EXT.:E05TSI                             TUE 07/29/97 09:59 Page:46
      298    13200    1           'EXPIRE MAX', 'EXPIRE DEF',
      299    13201    1           'MCHARGES', 'ACHARGES',
      300    13202    1           'PROJECT ADMIN', 'BKACCESS',
      301    13203    1           'BUDLIM', 'ICHARGE',
      302    13204    1           'PCHARGE', 'BILLING',
      303    13205    1           'CPROC', 'LAST CPROC',
      304    13206    1           '*S_ACCOUNTING', 'ACCESS',
      305    13207    1           'SETUP', 'MEM MAX',
      306    13208    1           'MEM DEF', 'TIME MAX',
      307    13209    1           'TIME DEF','MAX LO',
      308    13210    1           'DEF LO','MAX PO',
      309    13211    1           'DEF PO','MAX DO',
      310    13212    1           'DEF DO','MAX TDIS',
      311    13213    1           'DEF TDIS','MAX PDIS',
      312    13214    1           'DEF PDIS','MAX FPOOLS',
      313    13215    1           'DEF FPOOLS','MAX PRIO',
      314    13216    1           'DEF PRIO','OUTPUTPRIO',
      315    13217    1           'BLINDACCOUNTING','BATNUM',
      316    13218    1           'ALTERABLE SETUP', 'QUAN',
      317    13219    1           'BANNER1','BANNER2',
      318    13220    1           'BANNER3','BANNER4',
      319    13221    1           'BANNER5','BANNER6',
      320    13222    1           'BANNER7','BANNER8',
      321    13223    1           'BANNER9',
      322    13224    1           'BANNER1 ALTERABLE','BANNER2 ALTERABLE',
      323    13225    1           'BANNER3 ALTERABLE','BANNER4 ALTERABLE',
      324    13226    1           'BANNER5 ALTERABLE','BANNER6 ALTERABLE',
      325    13227    1           'BANNER7 ALTERABLE','BANNER8 ALTERABLE',
      326    13228    1           'BANNER9 ALTERABLE',
      327    13229    1           'ACCOUNT_OWNER','LASTLOGON TIME',
      328    13230    1           'PREVIOUS LOGON', 'BAD LOGON COUNT',
      329    13231    1           ' '*2,
      330    13232    1           'FORCE SETUP','PRIOB',
      331    13233    1           '       PRIVILEGES', 'PPRIVILEGES',
      332    13234    1           '     RESOURCES','PSEUDO',
      333    13235    1           '      FACCOUNT', '   KEY',
      334    13236    1           'FE-MINTS', 'FE-MFPRG',
PL6.E3A0      #002=ASL$LIST_OUT File=ASL$EXT.:E05TSI                             TUE 07/29/97 09:59 Page:47
      335    13237    1           'FE-BILLING',
      336    13238    1           'FE-MAX-TIME', 'FE-MAX-MEM',
      337    13239    1           'FE-MAX-ACCT-MEM', 'FE-DBACCN',
      338    13240    1           'FE-STEPACCOUNTING', '     FE-PRIVILEGES',
      339    13241    1           'FE-PPRIVILEGES', '      FE-RESOURCES',
      340    13242    1           'FE-PSEUDO', 'FE-CXT-MEM',
      341    13243    1           ' '*16,
      342    13244    1           'ACCOUNTS MAX','ACCOUNTS ACCUM',
      343    13245    1           'CHARGES MAX','CHARGES ACCUM',
      344    13246    1           'PROJECTS MAX','PROJECTS ACCUM',
      345    13247    1           ' '*3,
      346    13248    1           'ACCOUNTS MAX','ACCOUNTS ACCUM',
      347    13249    1           'GRANULES MAX','GRANULES ACCUM',
      348    13250    1           'SKELETON', 'ATTRIBUTES',
      349    13251    1           'MAXENQ',
      350    13252    1           ' '*20 ),
      351    13253    1          2 BOGU UBIN(2) UNAL INIT
      352    13254    1           ( 0, 0, 0, 0, 0, 0,
      353    13255    1           0, 0, 0, 0, 0,
      354    13256    1           0, 0, 0, 0, 0,
      355    13257    1           0, 0, 0, 0, 0,
      356    13258    1           0, 1, 1, 1, 0,
      357    13259    1           3, 1, 1, 1,
      358    13260    1           1, 1, 1, 1,
      359    13261    1           1, 1, 1, 1, 1,
      360    13262    1           1, 1, 1, 1, 1,
      361    13263    1           1, 1, 0, 1, 1,
      362    13264    1           1, 1, 0*19, 0, 1*3,
      363    13265    1           1, 1, 1, 1, 1, 1,
      364    13266    1           0, 0, 1, 1, 1,
      365    13267    1           1, 1, 1, 0, 0, 0,
      366    13268    1           1, 1, 1, 1, 0,
      367    13269    1           0*31, 1, 0*0),
      368    13270    1          2 ORDR UBIN BYTE UNAL INIT
      369    13271    1           (0, 0, 0, 0, 0, 0,
      370    13272    1           0, L_ACCUM, L_MAXC, L_BKACC, L_BUDLIM,
      371    13273    1           L_ICHARGE, L_PCHARGE, L_BLINDACCTNG, L_MACCT, L_HSET,
PL6.E3A0      #002=ASL$LIST_OUT File=ASL$EXT.:E05TSI                             TUE 07/29/97 09:59 Page:48
      372    13274    1           L_NATIVE, L_PASS, L_PRO, L_WSN, L_OUTPUTPRIO,
      373    13275    1           L_STEPACCT, L_STARS_ACCT, L_MEXP, L_DEXP, L_BATNUM,
      374    13276    1           L_ACCOUNT_OWNER, L_LAST_LOGON_TIME,
      375    13277    1           L_SLAST_LOGON_TIME, L_BAD_LOGON_CNT,
      376    13278    1           L_ALTERABLE_BANNER1,L_ALTERABLE_BANNER2,L_ALTERABLE_BANNER3,
      377    13279    1           L_ALTERABLE_BANNER4,L_ALTERABLE_BANNER5,L_ALTERABLE_BANNER6,
      378    13280    1           L_ALTERABLE_BANNER7,L_ALTERABLE_BANNER8,L_ALTERABLE_BANNER9,
      379    13281    1           L_BANNER1,L_BANNER2,L_BANNER3,L_BANNER4,L_BANNER5,L_BANNER6,
      380    13282    1           L_BANNER7,L_BANNER8,L_BANNER9,
      381    13283    1           L_PERM_SETUP, L_FORCE_SETUP, L_SETUP, L_BILLING, L_MMEM,
      382    13284    1           L_DMEM,
      383    13285    1           L_MTIME, L_DTIME, L_QUAN, L_PRIOB, L_MAXENQ, L_CPROC,
      384    13286    1           L_LASTCPROC, L_MLO, L_DLO, L_MPO, L_DPO,
      385    13287    1           L_MDO, L_DDO, L_MTDP, L_DTDP, L_MPDP,
      386    13288    1           L_DPDP, L_MPOOL, L_DPOOL, L_MPRI, L_DPRI,
      387    13289    1           L_ACCESS, L_PRIV, L_PPRIV, L_RES, L_PSEUDO,
      388    13290    1           L_FACCT, L_KEY, 0, L_FEMFPRG, L_FEACCTMEM, L_FEDBACCN, L_FESTEPACCNT,
      389    13291    1           L_FEMINTS, L_FETIME, L_FEMEMORY, L_FEBILL, L_FEPRIV,
      390    13292    1           L_FEPPRIV, L_FERES, L_FEPSEUDO, L_FECXTMEM,
      391    13293    1           0*16,
      392    13294    1           L_ACCTS_VAL, L_ACCT_ACCUM, L_MCHARGES_VAL, L_CHG_ACCUM, L_PROJ_PROJ,
      393    13295    1           L_PROJ_ACCUM, 0*3, L_PACK_ACCT,
      394    13296    1           L_P_ACCT_ACCUM, L_PACK_GRAN, L_P_GRAN_ACCUM, L_PACK_SKEL, L_PACK_ATTR,
      395    13297    1           0*21 );
      396    13298    1   DCL 1 JCL_OPT_TBL   (0:144) CONSTANT,
      397    13299    1          2 HDR CHAR(20) UNAL INIT
      398    13300    1           (' '*5,
      399    13301    1            ' ',' ', 'HSET', 'NATIVEL', 'PASSWORD',
      400    13302    1            'PROFILE','STEPACCNT','WSN','EXPIRE MAX','EXPIRE DEF',
      401    13303    1            'MCHARGES','ACHARGES','PROJECT ADMIN','BKACCESS','BUDLIM',
      402    13304    1            'ICHARGE','PCHARGE','BILLING','CPROC','LAST CPROC',
      403    13305    1            '*S_ACCOUNTING','ACCESS','SETUP','MEMORY MAX','MEMORY DEFAULT',
      404    13306    1            'TIME MAX','TIME DEFAULT','MAX LO','DEFAULT LO','MAX PO',
      405    13307    1            'DEFAULT PO','MAX DO','DEFAULT DO','MAX TDIS','DEFAULT TDIS',
      406    13308    1            'MAX PDIS','DEFAULT PDIS','MAX FPOOLS','DEFAULT FPOOLS','MAX MAXJOBPRIO',
      407    13309    1            'DEFAULT MAXJOBPRIO','OUTPUTPRIO','BLINDACCOUNTING','BATNUM',' ',
      408    13310    1            'QUAN','BANNERTEXT1','BANNERTEXT2','BANNERTEXT3','BANNERTEXT4',
PL6.E3A0      #002=ASL$LIST_OUT File=ASL$EXT.:E05TSI                             TUE 07/29/97 09:59 Page:49
      409    13311    1            'BANNERTEXT5','BANNERTEXT6','BANNERTEXT7','BANNERTEXT8','BANNERTEXT9',
      410    13312    1            ' '*9,
      411    13313    1            'ACCOUNT_OWNER', 'LASTLOGON TIME', 'PREVIOUS LOGON','BAD LOGON COUNT',' ',
             13313                     ' ',
      412    13314    1            'FORCE_SETUP','PRIOB','PRIVILEGE','PPRIVILEGE',
      413    13315    1            'RESOURCES','PSEUDO','FACCOUNT','KEY','FEMINTS',
      414    13316    1            'FEMFPRG','FEBILLING','FEMTIME','FEMMEMORY','FEMACCTMEM',
      415    13317    1            'FEDBACCN','FESTEPACCNT','FEPRIVILEGE','FEPPRIVILEGE','FERESOURCES',
      416    13318    1            'FEPSEUDO', 'FECXTMEM',
      417    13319    1            ' '*16,
      418    13320    1            'ACCOUNTS',' ','MCHARGES','ACHARGES', 'PROJECTS',
      419    13321    1            ' '*4, 'ACCOUNTS',
      420    13322    1            ' ','GRANULES',' ', 'SKELETON', 'ATTRIBUTES',
      421    13323    1            'MAXENQ',' '*17 ),
      422    13324    1          2 ORDR UBIN BYTE UNAL INIT
      423    13325    1   /*  0*/  (L_ACCESS, L_ACCOUNT_OWNER,
      424    13326    1             L_BANNER1,L_BANNER2,L_BANNER3,L_BANNER4,L_BANNER5,
      425    13327    1             L_BANNER6,L_BANNER7,L_BANNER8,L_BANNER9,
      426    13328    1             L_BATNUM, L_BILLING,
      427    13329    1             L_CPROC, L_MEXP, L_DEXP,
      428    13330    1             L_FEBILL, L_FECXTMEM, L_FEDBACCN, L_FEACCTMEM,
      429    13331    1             L_FEMFPRG, L_FEMINTS, L_FEMEMORY, L_FETIME, L_FESTEPACCNT,
      430    13332    1             L_FORCE_SETUP, L_HSET, L_LASTCPROC, L_LAST_LOGON_TIME,
      431    13333    1             L_MMEM, L_DMEM, L_NATIVE, L_OUTPUTPRIO, L_PASS,
      432    13334    1             L_PRIOB, L_MAXENQ, L_PRO, L_QUAN, L_STARS_ACCT, L_SETUP,
      433    13335    1             L_STEPACCT, L_MTIME, L_DTIME, L_WSN,
      434    13336    1             0*7,
      435    13337    1   /* 50*/   L_ACCUM, L_BKACC, L_BLINDACCTNG, L_BUDLIM, L_ICHARGE,
      436    13338    1             L_MAXC, L_PCHARGE,
      437    13339    1             0*3,
      438    13340    1   /* 60*/   L_MPOOL, L_DPOOL, L_MPRI, L_DPRI,
      439    13341    1             L_MDO, L_DDO, L_MLO, L_DLO, L_MPO, L_DPO,
      440    13342    1             L_MTDP, L_DTDP, L_MPDP, L_DPDP,
      441    13343    1             0*6,
      442    13344    1   /* 80*/   L_ACCTS_VAL, L_CHG_ACCUM, L_MCHARGES_VAL, L_PROJ_PROJ,
      443    13345    1             0*6,
      444    13346    1   /* 90*/   L_PACK_ACCT, L_PACK_GRAN, L_PACK_SKEL,
PL6.E3A0      #002=ASL$LIST_OUT File=ASL$EXT.:E05TSI                             TUE 07/29/97 09:59 Page:50
      445    13347    1             0*51);
      446    13348    1   DCL BANNER_FMT CHAR(0) CONSTANT INIT (' = ''%>A'',%A');
      447    13349    1   DCL KEY_FMT CHAR(0) CONSTANT INIT
      448    13350    1        (' %D=%>A%N(,%D=%>A%)');
      449    13351    1   DCL MODE_SBIN_FMT CHAR(0) CONSTANT INIT (' %A = %+D%3(, %A = %+D%)');
      450    13352    1   DCL MODE_TEXT_FMT CHAR(0) CONSTANT INIT (' %A = %>A%3(, %A = %>A%)');
      451    13353    1   DCL MONEY_FMT CHAR(0) CONSTANT INIT (' = %D.%2ZD');
      452    13354    1   DCL SBIN_FMT CHAR(0) CONSTANT INIT (' = %+D');
      453    13355    1   DCL TEXT_FMT CHAR(0) CONSTANT INIT (' = %>A');
      454    13356    1   DCL YESNO_FMT CHAR(0) CONSTANT INIT (' = %1.1N[YES%0?NO%]');
      455    13357    1   DCL BOG_BUF(0:5) CHAR(4) UNAL CONSTANT INIT
      456    13358    1        (' B: ',' G: ',' O: ',' T: ',' F: ',' ' );
      457    13359    1   DCL BOG_FE_BUF(0:4) CHAR(4) UNAL CONSTANT INIT
      458    13360    1        (' U: ',' C: ',' H: ',' G: ',' ' );
      459    13361    1   DCL NEVER_STR CHAR(0) CONSTANT INIT('NEVER');
      460    13362    1   DCL YES_STR CHAR(0) CONSTANT INIT('YES');
      461    13363    1   DCL NO_STR CHAR(0) CONSTANT INIT('NO');
      462    13364    1   DCL NONE_STR CHAR(0) CONSTANT INIT('NONE');
      463    13365    1   DCL NO_PROFILE_STR CHAR(0) CONSTANT INIT('No profile');
      464    13366    1   DCL BL_STR CHAR(0) CONSTANT INIT(' ');
      465    13367    1   DCL JCL_MODES  (0:5)  CHAR(2) UNAL CONSTANT INIT
      466    13368    1          (' B', ' G', ' O', ' T', 'FE', ' ');
      467    13369    1   DCL JCL_FE_MODES (0:4) CHAR(2) UNAL CONSTANT INIT
      468    13370    1          (' U', ' C', ' H', ' G', ' ');
      469    13371    1   DCL BUDGET_STR CHAR(0) CONSTANT INIT ('BUDGET');
      470    13372    1   DCL SERVICES_STR CHAR(0) CONSTANT INIT ('SERVICES');
      471    13373    1   DCL UNALTERABLE_STR  CHAR(0) CONSTANT INIT ('UNALTERABLE');
      472    13374    1   DCL ALTERABLE_STR  CHAR(0) CONSTANT INIT ('ALTERABLE');
      473    13375    1   DCL END_STR  CHAR(0) CONSTANT INIT ('END');
      474    13376        /********************************************************************/
      475    13377        /*   Static data     static data     static data     static data    */
      476    13378        /********************************************************************/
      477    13379    1   DCL ACCT_ARRY     (0:3)      CHAR(24) ALIGNED STATIC ;
      478    13380    1   DCL FRST_CHR                 CHAR(1) ALIGNED STATIC INIT(' ') ;
      479    13381        %FPT_TIME ( FPTN      = GET_LOGON,
      480    13382                    STCLASS   = STATIC,
      481    13383                    DATE      = LOGON_DATE,
PL6.E3A0      #002=ASL$LIST_OUT File=ASL$EXT.:E05TSI                             TUE 07/29/97 09:59 Page:51
      482    13384                    DAY       = LOGON_DAY,
      483    13385                    TIME      = LOGON_TIME,
      484    13386                    DEST      = LOCAL,
      485    13387                    SOURCE    = UTS);
      486    13406    1   DCL LAST_LOGON_BUF           CHAR (22) STATIC INIT (' ');
      487    13407    1   DCL LOGON_DATE               CHAR (8) STATIC;
      488    13408    1   DCL LOGON_DAY                CHAR (3) STATIC;
      489    13409    1   DCL LOGON_TIME               CHAR (11) STATIC;
      490    13410        /********************************************************************/
      491    13411        /*   Auto data       auto data       auto data       auto data      */
      492    13412        /********************************************************************/
      493    13413    1   DCL BOGU                     UBIN(2) ALIGNED;
      494    13414    1   DCL BOG  (0:35)  REDEF BOGU  BIT(1) ;
      495    13415    1   DCL CLASS                    SBIN;
      496    13416    1   DCL FIELDS                   SBIN;
      497    13417    1   DCL HDR_LEN                  SBIN;
      498    13418    1   DCL I                        SBIN;
      499    13419    1   DCL INDX                     SBIN;
      500    13420    1   DCL J                        SBIN;
      501    13421    1   DCL LEN                      SBIN;
      502    13422    1   DCL NEW_CHR                  CHAR(1) ALIGNED ;
      503    13423    1   DCL NEXT_TAB                 SBIN;
      504    13424    1   DCL NXT_IDX                  SBIN;
      505    13425    1   DCL POSITION                 BIT (1) ;
      506    13426    1   DCL SBINS     (0:99)         SBIN;
      507    13427    1   DCL SBIN_IDX                 SBIN;
      508    13428    1   DCL SVAL                     SBIN;
      509    13429    1   DCL ST_IDX                   SBIN;
      510    13430    1   DCL TEMP_BUF                 CHAR(24) ALIGNED ;
      511    13431    1   DCL TMP_LEN                  UBIN WORD ;
      512    13432        %EJECT;
PL6.E3A0      #002=ASL$LIST_OUT File=ASL$EXT.:E05TSI                             TUE 07/29/97 09:59 Page:52
      513    13433        /********************************************************************/
      514    13434        /*   Procedure       procedure       procedure       procedure      */
      515    13435        /********************************************************************/
      516    13436    2   IF USERS_KEY.COUNT > 20 THEN DO;
      517    13437    2      CALL INDEX( TMP_LEN, AS_BLANK, USERS_KEY.UKEY.UNAME );
      518    13438    2      TMP_LEN = TMP_LEN + 8;
      519    13439    2      END;
      520    13440    1   ELSE
      521    13441    1      TMP_LEN = USERS_KEY.COUNT;
      522    13442    2   IF TMP_LEN < 9 THEN DO;
      523    13443    2      OUT_BUF = SUBSTR( USERS_KEY.TXTC, 0, TMP_LEN );
      524    13444    2      LEN = TMP_LEN;
      525    13445    2      END;
      526    13446    2   ELSE DO;
      527    13447    2      CALL INDEX( LEN, AS_BLANK, USERS_KEY.UKEY.ACCT );
      528    13448    2      CALL CONCAT( OUT_BUF, SUBSTR(USERS_KEY.TXTC,0,LEN), ',', SUBSTR(USERS_KEY.TXTC,8,
             13448               TMP_LEN-8) );
      529    13449    2      LEN = LEN + TMP_LEN - 7;
      530    13450    2      END;
      531    13451    1   IF FLAGS.OPTS1 ~= '0'B  OR  FLAGS.OPTS2 ~= '0'B
      532    13452    1   THEN                           /* List with options.                 */
      533    13453    2      IF DO_FLAG (L_JCL) THEN DO;
      534    13454    2         CALL CONCAT (FMT_BUF, 'CREATE ', SUBSTR (OUT_BUF,0,LEN));
      535    13455    2         CALL ASB$WRITE_LO (FMT_BUF, LEN + 7);
      536    13456    2         END;   /*  Jcl  */
      537    13457    1      ELSE
      538    13458    1         CALL ASB$WRITE_LO(OUT_BUF,LEN); /* User id                         */
      539    13459    1   ELSE                           /* List with no options.              */
      540    13460    2   DO ;
      541    13461    2      IF LIST_ACCT_FLG = '0'B
      542    13462    2      THEN                        /* First time thru.                   */
      543    13463    3      DO ;
      544    13464    3         FRST_CHR = OUT_BUF ;
      545    13465    3         LIST_ACCT_FLG = '1'B ;
      546    13466    3         END ;                    /* Then do                            */
      547    13467    2      NEW_CHR = OUT_BUF ;
      548    13468    2      TEMP_BUF = SUBSTR(OUT_BUF,0,LEN) ;
PL6.E3A0      #002=ASL$LIST_OUT File=ASL$EXT.:E05TSI                             TUE 07/29/97 09:59 Page:53
      549    13469    2      IF NEW_CHR ~= FRST_CHR
      550    13470    2      THEN                        /* Output old, start anew.            */
      551    13471    3      DO ;
      552    13472    3         CALL X$FORMAT(FDS) ;
      553    13473    3         CALL ASB$WRITE_LO(' ',1) ; /* Blank line                        */
      554    13474    3         FDS.NVECS# = 0 ;
      555    13475    3         FRST_CHR = NEW_CHR ;
      556    13476    3         END ;                    /* Then do                            */
      557    13477    2      IF (FDS.NVECS#+1)*LENGTHC(ACCT_ARRY(0)) > LO_WIDTH
      558    13478    2      THEN                        /* Buffer already full. Flush.        */
      559    13479    3      DO ;
      560    13480    3         CALL X$FORMAT(FDS) ;
      561    13481    3         FDS.NVECS# = 0 ;
      562    13482    3         END ;                    /* Then do                            */
      563    13483                                                /* Move next entry                    */
      564    13484    2      ACCT_ARRY(FDS.NVECS#) = TEMP_BUF ;
      565    13485    2      FMT_VEC(FDS.NVECS#) = VECTOR(ACCT_ARRY(FDS.NVECS#)) ;
      566    13486    2      CALL INSERT(FMT_BUF,FDS.NVECS#*2,2,'%A') ;
      567    13487    2      FDS.NVECS# = FDS.NVECS# + 1 ;
      568    13488    2      FDS.FMT_.BOUND = FDS.NVECS#*2-1 ;
      569    13489    2      RETURN ;
      570    13490    2      END ;                       /* Else do                            */
      571    13491                                                                  /**/
      572    13492    1   ASL$LIST_OUTPUT: ENTRY( DO_FLAG );
      573    13493                                                                  /**/
      574    13494    2   IF DO_FLAG (L_JCL) THEN DO;
      575    13495    2      CALL BUILD_JCL_FMT ( 0, %NO# );
      576    13496    2      CALL LIST_BUDGET_SUBS_JCL;
      577    13497    2      IF DO_FLAG ( L_FACCT ) THEN CALL LIST_FACCOUNT;
      578    13498    2      CALL LIST_FEPRIV_JCL (%YES#);
      579    13499    2      CALL LIST_FEPRIV_JCL (%NO#);
      580    13500    2      CALL LIST_FEPSEUDO_JCL;
      581    13501    2      CALL LIST_FERESOURCE_JCL;
      582    13502    2      CALL LIST_KEY_JCL;
      583    13503    2      CALL LIST_PRIV_JCL (%YES#);
      584    13504    2      CALL LIST_PRIV_JCL (%NO#);
      585    13505    2      CALL LIST_PSEUDO_JCL;
PL6.E3A0      #002=ASL$LIST_OUT File=ASL$EXT.:E05TSI                             TUE 07/29/97 09:59 Page:54
      586    13506    2      CALL LIST_RESOURCE_JCL;
      587    13507    2      CALL LIST_SERVICES_JCL;
      588    13508    2      CALL ASB$WRITE_LO ('END', 3);
      589    13509    2      END;  /*  Jcl  */
      590    13510    2   ELSE DO;
      591    13511    2      ST_IDX = L_HSET;
      592    13512        /***
      593    13513         *** Report the 'easy' fields
      594    13514         ***/
      595    13515    3      DO WHILE(ST_IDX < L_PRIV);
      596    13516    3         FIELDS = 0;
      597    13517    3         CALL BUILD_HDR( HDR_LEN, L_PRIV );
      598    13518    3         IF FIELDS > 0
      599    13519    4         THEN DO;                     /* Some hdr was built           */
      600    13520    4            CALL ASB$WRITE_LO(' ',1);
      601    13521    4            CALL ASB$WRITE_LO(OUT_BUF,HDR_LEN); /* Put out hdr        */
      602    13522    4            CALL LIST_FIELDS;
      603    13523    4            END;   /*  Some header was built  */
      604    13524    3         ST_IDX = NXT_IDX;
      605    13525    3         END;  /*  ST_IDX < L_PRIV  */
      606    13526        /***
      607    13527         *** Report the rest
      608    13528         ***/
      609    13529    2      IF DO_FLAG(L_KEY) THEN CALL LIST_KEY;
      610    13530    2      IF DO_FLAG(L_PRIV) THEN CALL LIST_PRIV('1'B);
      611    13531    2      IF DO_FLAG(L_PPRIV) THEN CALL LIST_PRIV('0'B);
      612    13532    2      IF DO_FLAG(L_PSEUDO) THEN CALL LIST_PSEUDO;
      613    13533    2      IF DO_FLAG(L_RES) THEN CALL LIST_RESOURCE;
      614    13534    2      IF DO_FLAG(L_FACCT) THEN CALL LIST_FACCOUNT;
      615    13535    2      ST_IDX = L_FEMINTS;
      616    13536        /***
      617    13537         *** Report the 'easy' fe fields
      618    13538         ***/
      619    13539    3      DO WHILE(ST_IDX < L_FEPRIV);
      620    13540    3         FIELDS = 0;
      621    13541    3         CALL BUILD_HDR( HDR_LEN, L_FEPRIV );
      622    13542    3         IF FIELDS > 0
PL6.E3A0      #002=ASL$LIST_OUT File=ASL$EXT.:E05TSI                             TUE 07/29/97 09:59 Page:55
      623    13543    4         THEN DO;                    /* Some hdr was built            */
      624    13544    4            CALL ASB$WRITE_LO(' ',1);
      625    13545    4            CALL ASB$WRITE_LO(OUT_BUF,HDR_LEN); /* Put out hdr        */
      626    13546    4            CALL LIST_FIELDS;
      627    13547    4            END;  /*  Some header was built  */
      628    13548    3         ST_IDX = NXT_IDX;
      629    13549    3         END;   /*  ST_IDX < L_FEPRIV  */
      630    13550    2      IF DO_FLAG(L_FEPRIV) THEN CALL LIST_FEPRIV('1'B);
      631    13551    2      IF DO_FLAG(L_FEPPRIV) THEN CALL LIST_FEPRIV('0'B);
      632    13552    2      IF DO_FLAG(L_FEPSEUDO) THEN CALL LIST_FEPSEUDO;
      633    13553    2      IF DO_FLAG(L_FERES) THEN CALL LIST_FERESOURCE;
      634    13554    2      CALL ASB$WRITE_LO(' ',1);       /* A blank line                 */
      635    13555    2      CALL ASB$WRITE_LO(' ',1);       /* A blank line                 */
      636    13556    2      END;  /*  Not jcl  */
      637    13557    1   RETURN;
      638    13558        %EJECT;
PL6.E3A0      #002=ASL$LIST_OUT File=ASL$EXT.:E05TSI                             TUE 07/29/97 09:59 Page:56
      639    13559    1   ASL$LIST_PROJ_OUT: ENTRY( DO_FLAG );
      640    13560
      641    13561
      642    13562    2   IF DO_FLAG (L_JCL) THEN DO;
      643    13563    2      CALL BUILD_JCL_FMT ( 81, %NO# );
      644    13564    2      END;  /*  Jcl  */
      645    13565    2   ELSE DO;   /*  Not jcl  */
      646    13566    2      ST_IDX = L_ACCTS_VAL;
      647    13567    3      DO WHILE( ST_IDX < L_ADMIN_VAL );
      648    13568    3         FIELDS = 0;
      649    13569    3         CALL BUILD_HDR( HDR_LEN, L_ADMIN_VAL );
      650    13570    4         IF FIELDS > 0 THEN DO;
      651    13571    4            CALL ASB$WRITE_LO( AS_BLANK, 1 );
      652    13572    4            CALL ASB$WRITE_LO( OUT_BUF, HDR_LEN );
      653    13573    4            CALL LIST_FIELDS;
      654    13574    4            END;  /*  Some header was built  */
      655    13575    3         ST_IDX = NXT_IDX;
      656    13576    3         END;  /*  ST_IDX < L_ADMIN_VAL  */
      657    13577    2      END;   /*  Not jcl  */
      658    13578    1   RETURN;
      659    13579
      660    13580        %EJECT;
PL6.E3A0      #002=ASL$LIST_OUT File=ASL$EXT.:E05TSI                             TUE 07/29/97 09:59 Page:57
      661    13581    1   ASL$LIST_PACK_OUT: ENTRY( DO_FLAG );
      662    13582
      663    13583
      664    13584    2   IF DO_FLAG (L_JCL) THEN DO;
      665    13585    2      CALL BUILD_JCL_FMT ( 91, %YES# );
      666    13586    2      END;  /*  Jcl  */
      667    13587    2   ELSE DO;   /*  Not jcl  */
      668    13588    2      ST_IDX = L_PACK_ACCT;
      669    13589    3      DO WHILE( ST_IDX < L_PACK_ATTR );
      670    13590    3         FIELDS = 0;
      671    13591    3         CALL BUILD_HDR( HDR_LEN, L_PACK_ATTR );
      672    13592    4         IF FIELDS > 0 THEN DO;
      673    13593    4            CALL ASB$WRITE_LO( AS_BLANK, 1 );
      674    13594    4            CALL ASB$WRITE_LO( OUT_BUF, HDR_LEN );
      675    13595    4            CALL LIST_FIELDS;
      676    13596    4            END;  /*  Some header was built  */
      677    13597    3         ST_IDX = NXT_IDX;
      678    13598    3         END;  /*  ST_IDX < L_PACK_ATTR  */
      679    13599    2      END;   /*  Not jcl  */
      680    13600    1   IF (DO_FLAG(L_PACK_ATTR) OR DO_FLAG(L_JCL))
      681    13601    1        AND  AS$PROJ.ATTRIBUTES.COUNT > 0
      682    13602    2   THEN DO;
      683    13603    2      IF NOT DO_FLAG (L_JCL) THEN
      684    13604    2         CALL ASB$WRITE_LO( AS_BLANK, 1 );
      685    13605    2      CALL ASB$WRITE_LO( '   ATTRIBUTES', 13 );
      686    13606    2      OUT_BUF = AS_BLANK;
      687    13607    2      I = 0;
      688    13608    2      INDX = 4;
      689    13609    3      DO WHILE( I < AS$PROJ.ATTRIBUTES.COUNT );
      690    13610    3         CALL INDEX( J, AS_BLANK, AS$PROJ.ATTRIBUTES.TEXT, I );
      691    13611    3         LEN = J - I;
      692    13612    4         IF INDX + LEN > LO_WIDTH THEN DO;
      693    13613    4            CALL ASB$WRITE_LO( OUT_BUF, INDX );
      694    13614    4            INDX = 4;
      695    13615    4            END;
      696    13616    3         CALL INSERT( OUT_BUF, INDX, , SUBSTR(AS$PROJ.ATTRIBUTES.TEXT,I,LEN) );
      697    13617    3         INDX = INDX + LEN + 1;
PL6.E3A0      #002=ASL$LIST_OUT File=ASL$EXT.:E05TSI                             TUE 07/29/97 09:59 Page:58
      698    13618    3         I = J + 1;
      699    13619    3         END;
      700    13620    2      IF INDX > 4 THEN CALL ASB$WRITE_LO( OUT_BUF, INDX );
      701    13621    2      IF DO_FLAG (L_JCL) THEN
      702    13622    2         CALL ASB$WRITE_LO( AS_BLANK, 1 );
      703    13623    2      END;
      704    13624    1   RETURN;
      705    13625
      706    13626        %EJECT;
PL6.E3A0      #002=ASL$LIST_OUT File=ASL$EXT.:E05TSI                             TUE 07/29/97 09:59 Page:59
      707    13627    1   BUILD_HDR: PROC( HDR_LEN, STOP );
      708    13628    2   DCL HDR_LEN SBIN;
      709    13629    2   DCL STOP UBIN;
      710    13630    2   DCL CUR_IDX SBIN;
      711    13631    2   DCL MORE BIT(1) ALIGNED;
      712    13632    2   DCL NEXT UBIN WORD ;
      713    13633    2   CUR_IDX = ST_IDX;
      714    13634    2   CALL INSERT(OUT_BUF,0,3,' ');
      715    13635    2   HDR_LEN = 3;
      716    13636    2   MORE = '1'B;
      717    13637    3   DO WHILE(MORE);
      718    13638    3      NEXT = OPT_TBL.ORDR( CUR_IDX ) ;
      719    13639    4      DO WHILE (~DO_FLAG(NEXT) OR OPT_TBL.LEN(NEXT)=0);
      720    13640    4         CUR_IDX = CUR_IDX + 1;
      721    13641    4         NEXT = OPT_TBL.ORDR( CUR_IDX ) ;
      722    13642    4         END;
      723    13643    3      IF CUR_IDX < STOP
      724    13644    4      THEN DO;
      725    13645    4         IF HDR_LEN=3
      726    13646    4         THEN
      727    13647    4            BOGU = OPT_TBL.BOGU(NEXT);
      728    13648    4         IF ((HDR_LEN + OPT_TBL.LEN(NEXT)) <= LO_WIDTH
      729    13649    4              AND BOGU = OPT_TBL.BOGU(NEXT))
      730    13650    4              OR HDR_LEN = 3
      731    13651    5         THEN DO;
      732    13652    5            CALL INSERT(OUT_BUF,HDR_LEN,OPT_TBL.LEN(NEXT),
      733    13653    5                 OPT_TBL.HDR(NEXT));
      734    13654    5            HDR_LEN = HDR_LEN + OPT_TBL.LEN(NEXT);
      735    13655    5            FIELDS = FIELDS + 1;
      736    13656    5            CUR_IDX = CUR_IDX + 1;
      737    13657    5            END;
      738    13658    4         ELSE
      739    13659    4            MORE = '0'B;
      740    13660    4         END;
      741    13661    3      ELSE
      742    13662    3         MORE = '0'B;
      743    13663    3      END;
PL6.E3A0      #002=ASL$LIST_OUT File=ASL$EXT.:E05TSI                             TUE 07/29/97 09:59 Page:60
      744    13664    2   NXT_IDX = CUR_IDX;
      745    13665    2   RETURN;
      746    13666    2   END BUILD_HDR;
      747    13667        %EJECT;
PL6.E3A0      #002=ASL$LIST_OUT File=ASL$EXT.:E05TSI                             TUE 07/29/97 09:59 Page:61
      748    13668    1   LIST_FIELDS: PROC;
      749    13669    2   DCL BOG_IDX SBIN;
      750    13670    2   DCL J SBIN;
      751    13671    2   DCL CUR_IDX SBIN;
      752    13672    2   DCL OFFSET SBIN;
      753    13673    2   DCL NEXT UBIN WORD ;
      754    13674    2   DCL TEMP UBIN ;
      755    13675    3   DO SELECT( BOGU ) ;
      756    13676    3      SELECT( 0 ) ;
      757    13677    3      TEMP = 0 ;
      758    13678    3      SELECT( 1 ) ;
      759    13679    3      TEMP = 3 ;
      760    13680    3      SELECT( 3 ) ;
      761    13681    3      TEMP = 4 ;
      762    13682    3      END ;            /* Do case */
      763    13683    2   IF ST_IDX > L_PRIV
      764    13684    2   THEN OFFSET = L_FEUSER ;
      765    13685    2   ELSE OFFSET = 0 ;
      766    13686    3   DO BOG_IDX=0 TO TEMP;
      767    13687    3      IF DO_FLAG(BOG_IDX + OFFSET) OR ~BOG(1)
      768    13688    4      THEN DO;                    /* Report this time through loop      */
      769    13689    4         IF BOG(1)
      770    13690    4         THEN
      771    13691    4            IF ST_IDX > L_PRIOB
      772    13692    4            THEN FMT_VEC(0) = VECTOR(BOG_FE_BUF(BOG_IDX)) ;
      773    13693    4            ELSE FMT_VEC(0) = VECTOR(BOG_BUF(BOG_IDX));
      774    13694    4         ELSE
      775    13695    4            FMT_VEC(0) = VECTOR(BOG_BUF(5));
      776    13696    4         FDS.NVECS# = 1;
      777    13697    4         CALL INSERT(FMT_BUF,0,2,'%A');
      778    13698    4         FDS.FMT_.BOUND = 1;
      779    13699    4         NEXT_TAB = 5;
      780    13700    4         SBIN_IDX = 0;
      781    13701    4         CUR_IDX = ST_IDX;
      782    13702    5         DO J=1 TO FIELDS;
      783    13703    5            NEXT = OPT_TBL.ORDR( CUR_IDX ) ;
      784    13704    6            DO WHILE(~DO_FLAG(NEXT) OR OPT_TBL.LEN(NEXT)=0);
PL6.E3A0      #002=ASL$LIST_OUT File=ASL$EXT.:E05TSI                             TUE 07/29/97 09:59 Page:62
      785    13705    6               CUR_IDX = CUR_IDX + 1;
      786    13706    6               NEXT = OPT_TBL.ORDR(CUR_IDX) ;
      787    13707    6               END;
      788    13708    5            SBINS(SBIN_IDX) = NEXT_TAB;
      789    13709    5            FMT_VEC(FDS.NVECS#) = VECTOR(SBINS(SBIN_IDX)); /* Next tab stop */
      790    13710    5            SBIN_IDX = SBIN_IDX + 1;
      791    13711    5            FDS.NVECS# = FDS.NVECS# + 1;
      792    13712    5            CALL INSERT(FMT_BUF,FDS.FMT_.BOUND+1,3,'%N-'); /* Tab over   */
      793    13713    5            FDS.FMT_.BOUND = FDS.FMT_.BOUND+3;
      794    13714    5            CALL INSERT_FIELD;
      795    13715    5            NEXT_TAB = NEXT_TAB + OPT_TBL.LEN(NEXT);
      796    13716    5            CUR_IDX = CUR_IDX + 1;
      797    13717    5            END;
      798    13718    4         CALL X$FORMAT(FDS);
      799    13719    4         END;
      800    13720    3      END;
      801    13721    2   RETURN;
      802    13722        %EJECT;
PL6.E3A0      #002=ASL$LIST_OUT File=ASL$EXT.:E05TSI                             TUE 07/29/97 09:59 Page:63
      803    13723    2   INSERT_FIELD: PROC;
      804    13724        %SUB C_MONEY = 4;
      805    13725        %SUB C_MODE_TEXT = 5;
      806    13726        %SUB C_MODE_SBIN = 6;
      807    13727        %SUB C_FEMODE_TEXT = 7;
      808    13728        %SUB C_FEMODE_SBIN = 8;
      809    13729    3   DCL YES_NO BIT(1) ALIGNED;
      810    13730    3   DCL SIDX SBIN;
      811    13731    3   DCL MACCT CHAR(21);
      812    13732    3   DCL I UBIN;
      813    13733    3   DCL NEXT UBIN WORD ;
      814    13734    3   NEXT = OPT_TBL.ORDR( CUR_IDX ) ;
      815    13735    4   DO SELECT(NEXT);
      816    13736    4      SELECT(L_HSET);
      817    13737    4      FMT_VEC(FDS.NVECS#) = VECTOR(KL_DREC.HPS.N);
      818    13738    4      CLASS = C_TEXT;
      819    13739    4      SELECT(L_NATIVE);
      820    13740    4      FMT_VEC(FDS.NVECS#) = VECTOR(AS_USERS.NAT_LANG);
      821    13741    4      CLASS = C_TEXT;
      822    13742    4      SELECT(L_PASS);
      823    13743    4      IF BLANK_PASS=KL_DREC.PASSWORD
      824    13744    4      THEN
      825    13745    4         YES_NO = '0'B;
      826    13746    4      ELSE
      827    13747    4         YES_NO = '1'B;
      828    13748    4      CLASS = C_YESNO;
      829    13749    4      SELECT(L_PRO);
      830    13750    4      IF KL_DREC.PNAME.CNT = 0 THEN
      831    13751    4         FMT_VEC(FDS.NVECS#) = VECTOR(NO_PROFILE_STR);
      832    13752    4      ELSE
      833    13753    4         FMT_VEC(FDS.NVECS#) = VECTOR(ADDR(KL_DREC.PNAME)->TEXT$C.C);
      834    13754    4      CLASS = C_TEXT;
      835    13755    4      SELECT(L_STEPACCT);
      836    13756    4      YES_NO = AS_USERS.STEPACCNT;
      837    13757    4      CLASS = C_YESNO;
      838    13758    4      SELECT(L_STARS_ACCT);
      839    13759    4      YES_NO = AS_USERS.FLAGS.STARSACC;
PL6.E3A0      #002=ASL$LIST_OUT File=ASL$EXT.:E05TSI                             TUE 07/29/97 09:59 Page:64
      840    13760    4      CLASS = C_YESNO;
      841    13761    4      SELECT(L_WSN);
      842    13762    4      FMT_VEC(FDS.NVECS#) = VECTOR(KL_DREC.WOO);
      843    13763    4      CLASS = C_TEXT;
      844    13764    4      SELECT(L_MEXP);
      845    13765    5      IF AS_USERS.MEXP=-1 THEN DO;
      846    13766    5         FMT_VEC(FDS.NVECS#) = VECTOR(NEVER_STR);
      847    13767    5         CLASS = C_TEXT;
      848    13768    5         END;
      849    13769    5      ELSE DO;
      850    13770    5         SBINS(SBIN_IDX) = AS_USERS.MEXP;
      851    13771    5         CLASS = C_SBIN;
      852    13772    5         END;
      853    13773    4      SELECT(L_DEXP);
      854    13774    5      IF AS_USERS.DEXP=-1 THEN DO;
      855    13775    5         FMT_VEC(FDS.NVECS#) = VECTOR(NEVER_STR);
      856    13776    5         CLASS = C_TEXT;
      857    13777    5         END;
      858    13778    5      ELSE DO;
      859    13779    5         SBINS(SBIN_IDX) = AS_USERS.DEXP;
      860    13780    5         CLASS = C_SBIN;
      861    13781    5         END;
      862    13782    4      SELECT(L_MAXC);
      863    13783    5      IF AS_USERS.BUDGET.MAXC = -1 THEN DO;
      864    13784    5         FMT_VEC(FDS.NVECS#) = VECTOR(NONE_STR);
      865    13785    5         CLASS = C_TEXT;
      866    13786    5         END;
      867    13787    5      ELSE DO;
      868    13788    5         SVAL = AS_USERS.BUDGET.MAXC;
      869    13789    5         CLASS = C_MONEY;
      870    13790    5         END;
      871    13791    4      SELECT(L_ACCUM);
      872    13792    4      SVAL = AS_USERS.BUDGET.ACCUM;
      873    13793    4      CLASS = C_MONEY;
      874    13794    4      SELECT(L_MACCT);
      875    13795    4      IF AS_USERS.BUDGET.MACCT = AS_NONE
      876    13796    4      THEN
PL6.E3A0      #002=ASL$LIST_OUT File=ASL$EXT.:E05TSI                             TUE 07/29/97 09:59 Page:65
      877    13797    4         MACCT = AS_NONE.TEXT;
      878    13798    5      ELSE DO;
      879    13799    5         CALL INDEX(SVAL,' ',AS_USERS.BUDGET.MACCT.ACCT);
      880    13800    5         CALL CONCAT(MACCT,SUBSTR(AS_USERS.BUDGET.MACCT.ACCT,0,SVAL),
      881    13801    5              ',',AS_USERS.BUDGET.MACCT.NAME);
      882    13802    5         END;
      883    13803    4      FMT_VEC(FDS.NVECS#) = VECTOR(MACCT);
      884    13804    4      CLASS = C_TEXT;
      885    13805    4      SELECT(L_BKACC);
      886    13806    4      YES_NO = AS_USERS.BUDGET.BKACC;
      887    13807    4      CLASS = C_YESNO;
      888    13808    4      SELECT(L_BUDLIM);
      889    13809    4      YES_NO = AS_USERS.BUDGET.BUDLIM;
      890    13810    4      CLASS = C_YESNO;
      891    13811    4      SELECT(L_ICHARGE);
      892    13812    4      YES_NO = AS_USERS.BUDGET.ICHARGES;
      893    13813    4      CLASS = C_YESNO;
      894    13814    4      SELECT(L_PCHARGE);
      895    13815    4      YES_NO = AS_USERS.BUDGET.PCHARGES;
      896    13816    4      CLASS = C_YESNO;
      897    13817    4      SELECT(L_BLINDACCTNG);
      898    13818    4      YES_NO = AS_USERS.BUDGET.BLINDACCTNG;
      899    13819    4      CLASS  = C_YESNO;
      900    13820    4      SELECT(L_OUTPUTPRIO);
      901    13821    4      SBINS(SBIN_IDX) = AS_USERS.OUTPUTPRIO;
      902    13822    4      CLASS = C_SBIN;
      903    13823    4      SELECT(L_BILLING);
      904    13824    4      FMT_VEC(FDS.NVECS#) = VECTOR(AS_USERS.BILL(BOG_IDX));
      905    13825    4      CLASS = C_TEXT;
      906    13826    4      SELECT(L_CPROC);
      907    13827    4      FMT_VEC(FDS.NVECS#) = VECTOR(ADDR(AS_USERS.CPROC(BOG_IDX))->TEXT$C.C);
      908    13828    4      CLASS = C_TEXT;
      909    13829    4      SELECT(L_LASTCPROC);
      910    13830    4      FMT_VEC(FDS.NVECS#) = VECTOR(ADDR(AS_USERS.LASTCPROC(BOG_IDX))->TEXT$C.C);
      911    13831    4      CLASS = C_TEXT;
      912    13832    4      SELECT(L_ACCESS);
      913    13833    5      DO SELECT(BOG_IDX);
PL6.E3A0      #002=ASL$LIST_OUT File=ASL$EXT.:E05TSI                             TUE 07/29/97 09:59 Page:66
      914    13834    5         SELECT(0);
      915    13835    5         YES_NO = KL_DREC.FLAGS.BATOK;
      916    13836    5         SELECT(1);
      917    13837    5         YES_NO = KL_DREC.FLAGS.GHOSTOK;
      918    13838    5         SELECT(2);
      919    13839    5         YES_NO = KL_DREC.FLAGS.OLOK;
      920    13840    5         SELECT(3);
      921    13841    5         YES_NO = KL_DREC.FLAGS.TPOK;
      922    13842    5         SELECT(4);
      923    13843    5         YES_NO = KL_DREC.FLAGS.FEOK;
      924    13844    5         END;
      925    13845    4      CLASS = C_YESNO;
      926    13846    4      SELECT(L_SETUP);
      927    13847    4      IF AS_USERS.SETUP(BOG_IDX) = -1
      928    13848    4      THEN FMT_VEC(FDS.NVECS#) = VECTOR(BL_STR) ;
      929    13849    5      ELSE DO ;
      930    13850    5         SIDX = AS_USERS.SETUP(BOG_IDX) ;
      931    13851    5         FMT_VEC(FDS.NVECS#) = VECTOR(ADDR(AS_USERS.SETUP_CHRA.TXT_UBIN(SIDX))->TEXT$C.
             13851                  C);
      932    13852    5         END ;
      933    13853    4      CLASS = C_TEXT;
      934    13854    4      SELECT(L_PERM_SETUP);
      935    13855                      /* The setup perm field is the alterable command, when
      936    13856                         the field is alterable, the bit is '0'b.  The value
      937    13857                         placed into the YES_NO val is therefore inverted so
      938    13858                         output says yes for alterable.      */
      939    13859    4      YES_NO = ~ AS_USERS.SETUP_PERM(BOG_IDX) ;
      940    13860    4      CLASS = C_YESNO;
      941    13861    4      SELECT (L_BANNER1, L_BANNER2, L_BANNER3, L_BANNER4, L_BANNER5,
      942    13862    4           L_BANNER6, L_BANNER7, L_BANNER8, L_BANNER9);
      943    13863    5      DO SELECT (NEXT);
      944    13864    5         SELECT (L_BANNER1);
      945    13865    5         I = 1;
      946    13866    5         SELECT (L_BANNER2);
      947    13867    5         I = 2;
      948    13868    5         SELECT (L_BANNER3);
      949    13869    5         I = 3;
PL6.E3A0      #002=ASL$LIST_OUT File=ASL$EXT.:E05TSI                             TUE 07/29/97 09:59 Page:67
      950    13870    5         SELECT (L_BANNER4);
      951    13871    5         I = 4;
      952    13872    5         SELECT (L_BANNER5);
      953    13873    5         I = 5;
      954    13874    5         SELECT (L_BANNER6);
      955    13875    5         I = 6;
      956    13876    5         SELECT (L_BANNER7);
      957    13877    5         I = 7;
      958    13878    5         SELECT (L_BANNER8);
      959    13879    5         I = 8;
      960    13880    5         SELECT (L_BANNER9);
      961    13881    5         I = 9;
      962    13882    5         END; /* Of case */
      963    13883    4      IF AS_USERS.BANNER (I) = -1
      964    13884    4      THEN FMT_VEC(FDS.NVECS#) = VECTOR(BL_STR) ;
      965    13885    5      ELSE DO ;
      966    13886    5         SIDX = AS_USERS.BANNER (I) ;
      967    13887    5         FMT_VEC(FDS.NVECS#) = VECTOR(ADDR(AS_USERS.SETUP_CHRA.TXT_UBIN(SIDX))->TEXT$C.
             13887                  C);
      968    13888    5         END ;
      969    13889    4      CLASS = C_TEXT;
      970    13890    4      SELECT (L_ALTERABLE_BANNER1, L_ALTERABLE_BANNER2, L_ALTERABLE_BANNER3,
      971    13891    4           L_ALTERABLE_BANNER4, L_ALTERABLE_BANNER5, L_ALTERABLE_BANNER6,
      972    13892    4           L_ALTERABLE_BANNER7, L_ALTERABLE_BANNER8, L_ALTERABLE_BANNER9);
      973    13893    5      DO SELECT (NEXT);
      974    13894    5         SELECT (L_ALTERABLE_BANNER1);
      975    13895    5         I = 1;
      976    13896    5         SELECT (L_ALTERABLE_BANNER2);
      977    13897    5         I = 2;
      978    13898    5         SELECT (L_ALTERABLE_BANNER3);
      979    13899    5         I = 3;
      980    13900    5         SELECT (L_ALTERABLE_BANNER4);
      981    13901    5         I = 4;
      982    13902    5         SELECT (L_ALTERABLE_BANNER5);
      983    13903    5         I = 5;
      984    13904    5         SELECT (L_ALTERABLE_BANNER6);
      985    13905    5         I = 6;
PL6.E3A0      #002=ASL$LIST_OUT File=ASL$EXT.:E05TSI                             TUE 07/29/97 09:59 Page:68
      986    13906    5         SELECT (L_ALTERABLE_BANNER7);
      987    13907    5         I = 7;
      988    13908    5         SELECT (L_ALTERABLE_BANNER8);
      989    13909    5         I = 8;
      990    13910    5         SELECT (L_ALTERABLE_BANNER9);
      991    13911    5         I = 9;
      992    13912    5         END; /* Of case */
      993    13913                      /* The banner perm field is the alterable command, when
      994    13914                         the field is alterable, the bit is '0'b.  The value
      995    13915                         placed into the YES_NO val is therefore inverted so
      996    13916                         output says yes for alterable.      */
      997    13917    4      YES_NO = ~ AS_USERS.BANNER_PERM (I);
      998    13918    4      CLASS = C_YESNO;
      999    13919    4      SELECT (L_ACCOUNT_OWNER);
     1000    13920    4      IF AS_USERS.BANNER (0) = -1
     1001    13921    4      THEN FMT_VEC(FDS.NVECS#) = VECTOR(BL_STR) ;
     1002    13922    5      ELSE DO ;
     1003    13923    5         SIDX = AS_USERS.BANNER (0) ;
     1004    13924    5         FMT_VEC(FDS.NVECS#) = VECTOR(ADDR(AS_USERS.SETUP_CHRA.TXT_UBIN(SIDX))->TEXT$C.
             13924                  C);
     1005    13925    5         END ;
     1006    13926    4      CLASS = C_TEXT;
     1007    13927    4      SELECT (L_LAST_LOGON_TIME);
     1008    13928    4      GET_LOGON.TSTAMP_ = VECTOR (AS_USERS.LAST_LOGON_TIME);
     1009    13929    4      CALL M$TIME (GET_LOGON);
     1010    13930    4      CALL CONCAT (LAST_LOGON_BUF, LOGON_DATE, ',', LOGON_TIME);
     1011    13931    4      FMT_VEC (FDS.NVECS#) = VECTOR (LAST_LOGON_BUF);
     1012    13932    4      CLASS = C_TEXT;
     1013    13933
     1014    13934    4      SELECT (L_SLAST_LOGON_TIME);
     1015    13935    4      GET_LOGON.TSTAMP_ = VECTOR (AS_USERS.LOGINS.LAST_LOGON_TIME(BOG_IDX));
     1016    13936    4      CALL M$TIME (GET_LOGON);
     1017    13937    4      CALL CONCAT (LAST_LOGON_BUF, LOGON_DATE, ',', LOGON_TIME);
     1018    13938    4      FMT_VEC (FDS.NVECS#) = VECTOR (LAST_LOGON_BUF);
     1019    13939    4      CLASS = C_TEXT;
     1020    13940
     1021    13941
PL6.E3A0      #002=ASL$LIST_OUT File=ASL$EXT.:E05TSI                             TUE 07/29/97 09:59 Page:69
     1022    13942    4      SELECT(L_BAD_LOGON_CNT) ;
     1023    13943    4      SBINS(SBIN_IDX) = AS_USERS.LOGINS.BAD_LOGON_CNT(BOG_IDX);
     1024    13944    4      CLASS = C_SBIN ;
     1025    13945
     1026    13946    4      SELECT (L_FORCE_SETUP);
     1027    13947    4      YES_NO = AS_USERS.SETUP_FORCE (BOG_IDX);
     1028    13948    4      CLASS = C_YESNO;
     1029    13949
     1030    13950    4      SELECT(L_BATNUM) ;
     1031    13951    4      SBINS(SBIN_IDX) = AS_USERS.BATNUM ;
     1032    13952    4      CLASS = C_SBIN ;
     1033    13953
     1034    13954    4      SELECT(L_QUAN) ;
     1035    13955    4      SBINS(SBIN_IDX) = AS_USERS.QUAN(BOG_IDX) ;
     1036    13956    4      CLASS = C_SBIN ;
     1037    13957
     1038    13958    4      SELECT(L_PRIOB) ;
     1039    13959    4      SBINS(SBIN_IDX) = AS_USERS.PRIOB(BOG_IDX) ;
     1040    13960    4      CLASS = C_SBIN ;
     1041    13961    4      SELECT(L_MAXENQ) ;
     1042    13962    4      SBINS(SBIN_IDX)= AS_USERS.MAXENQ(BOG_IDX);
     1043    13963    4      CLASS = C_SBIN ;
     1044    13964    4      SELECT(L_FEMINTS);
     1045    13965    4      SBINS(SBIN_IDX) = KL_DREC.KL_DREC_FEBLK.MINTS(BOG_IDX) ;
     1046    13966    4      CLASS = C_SBIN ;
     1047    13967    4      SELECT(L_FEMFPRG) ;
     1048    13968    4      SBINS(SBIN_IDX) = KL_DREC.KL_DREC_FEBLK.MFPRG ;
     1049    13969    4      CLASS = C_SBIN ;
     1050    13970    4      SELECT(L_FEMEMORY);
     1051    13971    4      SBINS(SBIN_IDX) = KL_DREC.KL_DREC_FEBLK.MMEM(BOG_IDX) ;
     1052    13972    4      CLASS = C_SBIN;
     1053    13973    4      SELECT(L_FETIME);
     1054    13974    4      SBINS(SBIN_IDX) = KL_DREC.KL_DREC_FEBLK.MTIME(BOG_IDX)/6000;
     1055    13975    4      CLASS = C_SBIN;
     1056    13976    4      SELECT(L_FEBILL);
     1057    13977    4      FMT_VEC(FDS.NVECS#) = VECTOR(KL_DREC.KL_DREC_FEBLK.BILL(BOG_IDX));
     1058    13978    4      CLASS = C_TEXT;
PL6.E3A0      #002=ASL$LIST_OUT File=ASL$EXT.:E05TSI                             TUE 07/29/97 09:59 Page:70
     1059    13979    4      SELECT(L_FEDBACCN);
     1060    13980    4      FMT_VEC(FDS.NVECS#) = VECTOR(KL_DREC.KL_DREC_FEBLK.DBACCN);
     1061    13981    4      CLASS = C_TEXT;
     1062    13982    4      SELECT(L_FESTEPACCNT);
     1063    13983    4      YES_NO = KL_DREC.KL_DREC_FEBLK.FLAGS.STEPACCT;
     1064    13984    4      CLASS = C_YESNO;
     1065    13985    4      SELECT(L_FEACCTMEM);
     1066    13986    4      SBINS(SBIN_IDX) = KL_DREC.KL_DREC_FEBLK.MACCTMEM ;
     1067    13987    4      CLASS = C_SBIN;
     1068    13988    4      SELECT(L_MMEM);
     1069    13989    4      SBINS(SBIN_IDX) = AS_USERS.MMEM(BOG_IDX);
     1070    13990    4      CLASS = C_SBIN;
     1071    13991    4      SELECT(L_DMEM);
     1072    13992    4      SBINS(SBIN_IDX) = AS_USERS.DMEM(BOG_IDX);
     1073    13993    4      CLASS = C_SBIN;
     1074    13994    4      SELECT(L_MTIME);
     1075    13995    4      SBINS(SBIN_IDX) = AS_USERS.MTIME(BOG_IDX)/6000;
     1076    13996    4      CLASS = C_SBIN;
     1077    13997    4      SELECT(L_DTIME);
     1078    13998    4      SBINS(SBIN_IDX) = AS_USERS.DTIME(BOG_IDX)/6000;
     1079    13999    4      CLASS = C_SBIN;
     1080    14000    4      SELECT(L_MLO);
     1081    14001    4      SBINS(SBIN_IDX) = AS_USERS.MLO(BOG_IDX);
     1082    14002    4      CLASS = C_SBIN;
     1083    14003    4      SELECT(L_DLO);
     1084    14004    4      SBINS(SBIN_IDX) = AS_USERS.DLO(BOG_IDX);
     1085    14005    4      CLASS = C_SBIN;
     1086    14006    4      SELECT(L_MPO);
     1087    14007    4      SBINS(SBIN_IDX) = AS_USERS.MPO(BOG_IDX);
     1088    14008    4      CLASS = C_SBIN;
     1089    14009    4      SELECT(L_DPO);
     1090    14010    4      SBINS(SBIN_IDX) = AS_USERS.DPO(BOG_IDX);
     1091    14011    4      CLASS = C_SBIN;
     1092    14012    4      SELECT(L_MDO);
     1093    14013    4      SBINS(SBIN_IDX) = AS_USERS.MDO(BOG_IDX);
     1094    14014    4      CLASS = C_SBIN;
     1095    14015    4      SELECT(L_DDO);
PL6.E3A0      #002=ASL$LIST_OUT File=ASL$EXT.:E05TSI                             TUE 07/29/97 09:59 Page:71
     1096    14016    4      SBINS(SBIN_IDX) = AS_USERS.DDO(BOG_IDX);
     1097    14017    4      CLASS = C_SBIN;
     1098    14018    4      SELECT(L_MTDP);
     1099    14019    4      SBINS(SBIN_IDX) = AS_USERS.MTDIS(BOG_IDX);
     1100    14020    4      CLASS = C_SBIN;
     1101    14021    4      SELECT(L_DTDP);
     1102    14022    4      SBINS(SBIN_IDX) = AS_USERS.DTDIS(BOG_IDX);
     1103    14023    4      CLASS = C_SBIN;
     1104    14024    4      SELECT(L_MPDP);
     1105    14025    4      SBINS(SBIN_IDX) = AS_USERS.MPDIS(BOG_IDX);
     1106    14026    4      CLASS = C_SBIN;
     1107    14027    4      SELECT(L_DPDP);
     1108    14028    4      SBINS(SBIN_IDX) = AS_USERS.DPDIS(BOG_IDX);
     1109    14029    4      CLASS = C_SBIN;
     1110    14030    4      SELECT(L_MPOOL);
     1111    14031    4      SBINS(SBIN_IDX) = AS_USERS.MFPOOLS(BOG_IDX);
     1112    14032    4      CLASS = C_SBIN;
     1113    14033    4      SELECT(L_DPOOL);
     1114    14034    4      SBINS(SBIN_IDX) = AS_USERS.DFPOOLS(BOG_IDX);
     1115    14035    4      CLASS = C_SBIN;
     1116    14036    4      SELECT(L_MPRI);
     1117    14037    4      SBINS(SBIN_IDX) = AS_USERS.MMPRIO(BOG_IDX);
     1118    14038    4      CLASS = C_SBIN;
     1119    14039    4      SELECT(L_DPRI);
     1120    14040    4      SBINS(SBIN_IDX) = AS_USERS.DMPRIO(BOG_IDX);
     1121    14041    4      CLASS = C_SBIN;
     1122    14042    4      SELECT(L_ACCTS_VAL);
     1123    14043    4      SBINS(SBIN_IDX) = AS_PROJECT_DFLT.BUDGET.PROJ_ALLOWED;
     1124    14044    4      CLASS = C_SBIN;
     1125    14045    4      SELECT(L_ACCT_ACCUM);
     1126    14046    4      SBINS(SBIN_IDX) = AS_PROJECT_DFLT.BUDGET.PROJ_CREATED;
     1127    14047    4      CLASS = C_SBIN;
     1128    14048    4      SELECT(L_MCHARGES_VAL);
     1129    14049    5      IF AS_PROJECT.BUDGET.PMAXC = -1 THEN DO;
     1130    14050    5         FMT_VEC(FDS.NVECS#) = VECTOR(NONE_STR);
     1131    14051    5         CLASS = C_TEXT;
     1132    14052    5         END;
PL6.E3A0      #002=ASL$LIST_OUT File=ASL$EXT.:E05TSI                             TUE 07/29/97 09:59 Page:72
     1133    14053    5      ELSE DO;
     1134    14054    5         SVAL = AS_PROJECT.BUDGET.PMAXC;
     1135    14055    5         CLASS = C_MONEY;
     1136    14056    5         END;
     1137    14057    4      SELECT(L_CHG_ACCUM);
     1138    14058    4      SVAL = AS_PROJECT.BUDGET.PACCUM;
     1139    14059    4      CLASS = C_MONEY;
     1140    14060    4      SELECT(L_PROJ_PROJ);
     1141    14061    4      SBINS(SBIN_IDX) = AS_PROJECT.BUDGET.MAX_PROJECTS;
     1142    14062    4      CLASS = C_SBIN;
     1143    14063    4      SELECT(L_PROJ_ACCUM);
     1144    14064    4      SBINS(SBIN_IDX) = AS_PROJECT_DFLT.BUDGET.SUB_PROJS;
     1145    14065    4      CLASS = C_SBIN;
     1146    14066    4      SELECT(L_PACK_ACCT);
     1147    14067    4      SBINS(SBIN_IDX) = AS$PROJ.MAX_NUM_ACCTS;
     1148    14068    4      CLASS = C_SBIN;
     1149    14069    4      SELECT(L_P_ACCT_ACCUM);
     1150    14070    4      SBINS(SBIN_IDX) = AS$PROJ.NUM_ACCTS + AS$PROJ.SUB_PROJ_ACCTS;
     1151    14071    4      CLASS = C_SBIN;
     1152    14072    4      SELECT(L_PACK_GRAN);
     1153    14073    4      SBINS(SBIN_IDX) = AS$PROJ.MAX_NUM_GRANS;
     1154    14074    4      CLASS = C_SBIN;
     1155    14075    4      SELECT(L_P_GRAN_ACCUM);
     1156    14076    4      SBINS(SBIN_IDX) = AS$PROJ.GRANS_ACCUM;
     1157    14077    4      CLASS = C_SBIN;
     1158    14078    4      SELECT(L_PACK_SKEL);
     1159    14079    4      FMT_VEC(FDS.NVECS#) = VECTOR( AS$PROJ.SKELETON );
     1160    14080    4      CLASS = C_TEXT;
     1161    14081    4      END;                           /* End case ... finally               */
     1162    14082    4   DO SELECT(CLASS);
     1163    14083    4      SELECT(C_TEXT);
     1164    14084    4      FDS.NVECS# = FDS.NVECS# + 1;
     1165    14085    4      CALL INSERT(FMT_BUF,FDS.FMT_.BOUND+1,3,'%>A');
     1166    14086    4      FDS.FMT_.BOUND = FDS.FMT_.BOUND + 3;
     1167    14087    4      SELECT(C_SBIN);
     1168    14088    4      FMT_VEC(FDS.NVECS#) = VECTOR(SBINS(SBIN_IDX));
     1169    14089    4      FDS.NVECS# = FDS.NVECS# + 1;
PL6.E3A0      #002=ASL$LIST_OUT File=ASL$EXT.:E05TSI                             TUE 07/29/97 09:59 Page:73
     1170    14090    4      SBIN_IDX = SBIN_IDX + 1;
     1171    14091    4      CALL INSERT(FMT_BUF,FDS.FMT_.BOUND+1,3,'%+D');
     1172    14092    4      FDS.FMT_.BOUND = FDS.FMT_.BOUND + 3;
     1173    14093    4      SELECT(C_YESNO);
     1174    14094    4      IF YES_NO
     1175    14095    4      THEN
     1176    14096    4         FMT_VEC(FDS.NVECS#) = VECTOR(YES_STR);
     1177    14097    4      ELSE
     1178    14098    4         FMT_VEC(FDS.NVECS#) = VECTOR(NO_STR);
     1179    14099    4      FDS.NVECS# = FDS.NVECS# + 1;
     1180    14100    4      CALL INSERT(FMT_BUF,FDS.FMT_.BOUND+1,3,'%>A');
     1181    14101    4      FDS.FMT_.BOUND = FDS.FMT_.BOUND + 3;
     1182    14102    4      SELECT(C_MONEY);
     1183    14103    4      SVAL = SVAL/100;             /* in pennies                         */
     1184    14104    4      SBINS(SBIN_IDX) = SVAL/100;  /* Dollar amount                      */
     1185    14105    4      SBINS(SBIN_IDX+1) = SVAL - SBINS(SBIN_IDX)*100;
     1186    14106    4      IF SBINS(SBIN_IDX+1)<0
     1187    14107    4      THEN
     1188    14108    4         SBINS(SBIN_IDX+1) = SBINS(SBIN_IDX+1)*-1;
     1189    14109    4      FMT_VEC(FDS.NVECS#) = VECTOR(SBINS(SBIN_IDX));
     1190    14110    4      FMT_VEC(FDS.NVECS#+1) = VECTOR(SBINS(SBIN_IDX+1));
     1191    14111    4      FDS.NVECS# = FDS.NVECS# + 2;
     1192    14112    4      SBIN_IDX = SBIN_IDX + 2;
     1193    14113    4      CALL INSERT(FMT_BUF,FDS.FMT_.BOUND+1,8,'$%D.%2ZD');
     1194    14114    4      FDS.FMT_.BOUND = FDS.FMT_.BOUND + 8;
     1195    14115    4      END;                           /* End case                           */
     1196    14116    3   RETURN;
     1197    14117    3   END INSERT_FIELD;
     1198    14118    2   END LIST_FIELDS;
     1199    14119        %EJECT;
PL6.E3A0      #002=ASL$LIST_OUT File=ASL$EXT.:E05TSI                             TUE 07/29/97 09:59 Page:74
     1200    14120    1   LIST_KEY: PROC;
     1201    14121
     1202    14122    2   DCL KEYS BIT(72) STATIC;
     1203    14123    2   DCL KEY_A(0:71) REDEF KEYS BIT(1) UNAL;
     1204    14124    2   DCL TAB UBIN STATIC INIT( 4 );
     1205    14125    2   DCL LEN UBIN STATIC;
     1206    14126    2   DCL I UBIN STATIC;
     1207    14127    2   DCL 1 ALL_KEYS CONSTANT,
     1208    14128    2          2 * BIT(36) INIT('777777777777'O),
     1209    14129    2          2 * BIT(36) INIT('777777777777'O);
     1210    14130
     1211    14131
     1212    14132    2   CALL ASB$WRITE_LO( AS_BLANK, 1 );
     1213    14133    2   CALL ASB$WRITE_LO( OPT_TBL.HDR(L_KEY), 6 );
     1214    14134    2   KEYS = AS_USERS.KEY;
     1215    14135    2   IF KEYS = AS_FALSE THEN
     1216    14136    2      CALL ASB$WRITE_LO('    NONE', 8);
     1217    14137    2   ELSE
     1218    14138    2      IF KEYS = ALL_KEYS THEN
     1219    14139    2         CALL ASB$WRITE_LO('    ALL', 7);
     1220    14140    3      ELSE DO;
     1221    14141    3         CALL FLUSH;
     1222    14142    4         DO I = 1 TO 72;
     1223    14143    5            IF KEY_A(I-1) THEN DO;
     1224    14144                    %NUMBER( NUM1=I );
             14152    5         CALL ASB$BINCHAR( AS_FIELD1.TEXT, 0, -1, I );
     1225    14174    5               LEN = AS_FIELD1.COUNT + 1;
     1226    14175    5               IF TAB + LEN > LO_WIDTH THEN CALL FLUSH;
     1227    14176    5               CALL INSERT( OUT_BUF, TAB, LEN, SUBSTR(AS_FIELD1.TEXT,0,AS_FIELD1.COUNT)
             14176                        , ',' );
     1228    14177    5               TAB = TAB + LEN;
     1229    14178    5               END;
     1230    14179    4            END;
     1231    14180    3         CALL FLUSH;
     1232    14181    3         END;
     1233    14182    2   RETURN;
     1234    14183
PL6.E3A0      #002=ASL$LIST_OUT File=ASL$EXT.:E05TSI                             TUE 07/29/97 09:59 Page:75
     1235    14184
     1236    14185    2   FLUSH: PROC;
     1237    14186
     1238    14187    4   IF TAB > 4 THEN DO;
     1239    14188    4      TAB = TAB - 1;
     1240    14189    4      CALL ASB$WRITE_LO( OUT_BUF, TAB );
     1241    14190    4      END;
     1242    14191    3   OUT_BUF = AS_BLANK;
     1243    14192    3   TAB = 4;
     1244    14193
     1245    14194    3   END FLUSH;
     1246    14195
     1247    14196    2   END LIST_KEY;
     1248    14197        %EJECT;
PL6.E3A0      #002=ASL$LIST_OUT File=ASL$EXT.:E05TSI                             TUE 07/29/97 09:59 Page:76
     1249    14198    1   LIST_PSEUDO: PROC;
     1250    14199    2   DCL PSEUDO_HDR CHAR(0) CONSTANT INIT
     1251    14200    2          ('        PSEUDO RESOURCES');
     1252    14201    2   DCL LEN SBIN;
     1253    14202    2   DCL I SBIN;
     1254    14203    2   DCL BOG_IDX SBIN;
     1255    14204    2   CALL INSERT(OUT_BUF,0,2,' ');
     1256    14205    2   LEN = 2;
     1257    14206    3   DO I=0 TO 7;
     1258    14207    3      IF AS_USERS.PSDOL.PSDO_NAME(I)~=' '
     1259    14208    4      THEN DO;
     1260    14209    4         CALL INSERT(OUT_BUF,LEN,9,' ',AS_USERS.PSDOL.PSDO_NAME(I));
     1261    14210    4         LEN = LEN + 9;
     1262    14211    4         END;
     1263    14212    3      END;
     1264    14213    2   IF LEN>3
     1265    14214    3   THEN DO;                       /* Some pseudos exist...report them   */
     1266    14215    3      CALL ASB$WRITE_LO(' ',1);
     1267    14216    3      CALL ASB$WRITE_LO(PSEUDO_HDR,SIZEC(PSEUDO_HDR));
     1268    14217    3      CALL ASB$WRITE_LO(' ',1);
     1269    14218    3      CALL ASB$WRITE_LO(OUT_BUF,LEN);
     1270    14219    4      DO BOG_IDX = 0 TO 3;
     1271    14220    4         IF DO_FLAG(BOG_IDX)
     1272    14221    5         THEN DO;                 /* Report on this mode                */
     1273    14222    5            FMT_VEC(0) = VECTOR(BOG_BUF(BOG_IDX));
     1274    14223    5            FDS.NVECS# = 1;
     1275    14224    5            CALL INSERT(FMT_BUF,0,6,'%3LA%S');
     1276    14225    5            FDS.FMT_.BOUND = 5;
     1277    14226    6            DO I=0 TO 7;
     1278    14227    6               IF AS_USERS.PSDOL.PSDO_NAME(I)~=' '
     1279    14228    7               THEN DO;           /* This entry exists                  */
     1280    14229    8                  DO SELECT(BOG_IDX);
     1281    14230    8                     SELECT(0);
     1282    14231    8                     FMT_VEC(FDS.NVECS#) = VECTOR(AS_USERS.PSDOL.BMAX(I));
     1283    14232    8                     SELECT(1);
     1284    14233    8                     FMT_VEC(FDS.NVECS#) = VECTOR(AS_USERS.PSDOL.GMAX(I));
     1285    14234    8                     SELECT(2);
PL6.E3A0      #002=ASL$LIST_OUT File=ASL$EXT.:E05TSI                             TUE 07/29/97 09:59 Page:77
     1286    14235    8                     FMT_VEC(FDS.NVECS#) = VECTOR(AS_USERS.PSDOL.OMAX(I));
     1287    14236    8                     SELECT(3);
     1288    14237    8                     FMT_VEC(FDS.NVECS#) = VECTOR(AS_USERS.PSDOL.TMAX(I));
     1289    14238    8                     END;
     1290    14239    7                  FDS.NVECS# = FDS.NVECS# + 1;
     1291    14240    7                  CALL INSERT(FMT_BUF,FDS.FMT_.BOUND+1,5,' %8LD');
     1292    14241    7                  FDS.FMT_.BOUND = FDS.FMT_.BOUND + 5;
     1293    14242    7                  END;
     1294    14243    6               END;
     1295    14244    5            CALL X$FORMAT(FDS);
     1296    14245    5            END;
     1297    14246    4         END;
     1298    14247    3      END;
     1299    14248    2   RETURN;
     1300    14249    2   END LIST_PSEUDO;
     1301    14250        %EJECT;
PL6.E3A0      #002=ASL$LIST_OUT File=ASL$EXT.:E05TSI                             TUE 07/29/97 09:59 Page:78
     1302    14251    1   LIST_FEPSEUDO: PROC;
     1303    14252    2   DCL FEPSEUDO_HDR CHAR(0) CONSTANT INIT
     1304    14253    2          ('        FEPSEUDO RESOURCES');
     1305    14254    2   DCL LEN SBIN;
     1306    14255    2   DCL I SBIN;
     1307    14256    2   DCL BOG_IDX SBIN;
     1308    14257    2   CALL INSERT(OUT_BUF,0,2,' ');
     1309    14258    2   LEN = 2;
     1310    14259    3   DO I=0 TO 7;
     1311    14260    3      IF KL_DREC.KL_DREC_FEBLK.PSDOL.PSDO_NAME(I)~=' '
     1312    14261    4      THEN DO;
     1313    14262    4         CALL INSERT(OUT_BUF,LEN,9,' ',KL_DREC.KL_DREC_FEBLK.PSDOL.PSDO_NAME(I));
     1314    14263    4         LEN = LEN + 9;
     1315    14264    4         END;
     1316    14265    3      END;
     1317    14266    2   IF LEN>3
     1318    14267    3   THEN DO;                       /* Some fepseudos exist...report them   */
     1319    14268    3      CALL ASB$WRITE_LO(' ',1);
     1320    14269    3      CALL ASB$WRITE_LO(FEPSEUDO_HDR,SIZEC(FEPSEUDO_HDR));
     1321    14270    3      CALL ASB$WRITE_LO(' ',1);
     1322    14271    3      CALL ASB$WRITE_LO(OUT_BUF,LEN);
     1323    14272    4      DO BOG_IDX = 0 TO 3;
     1324    14273    4         IF DO_FLAG (L_FEUSER + BOG_IDX)
     1325    14274    5         THEN DO;                 /* Report on this mode                */
     1326    14275    5            FMT_VEC(0) = VECTOR(BOG_FE_BUF(BOG_IDX));
     1327    14276    5            FDS.NVECS# = 1;
     1328    14277    5            CALL INSERT(FMT_BUF,0,6,'%3LA%S');
     1329    14278    5            FDS.FMT_.BOUND = 5;
     1330    14279    6            DO I=0 TO 7;
     1331    14280    6               IF KL_DREC.KL_DREC_FEBLK.PSDOL.PSDO_NAME(I)~=' '
     1332    14281    7               THEN DO;           /* This entry exists                  */
     1333    14282    8                  DO SELECT(BOG_IDX);
     1334    14283    8                     SELECT(0);
     1335    14284    8                     FMT_VEC(FDS.NVECS#) = VECTOR(KL_DREC.KL_DREC_FEBLK.PSDOL.UMAX(I));
     1336    14285    8                     SELECT(1);
     1337    14286    8                     FMT_VEC(FDS.NVECS#) = VECTOR(KL_DREC.KL_DREC_FEBLK.PSDOL.CMAX(I));
     1338    14287    8                     SELECT(2);
PL6.E3A0      #002=ASL$LIST_OUT File=ASL$EXT.:E05TSI                             TUE 07/29/97 09:59 Page:79
     1339    14288    8                     FMT_VEC(FDS.NVECS#) = VECTOR(KL_DREC.KL_DREC_FEBLK.PSDOL.HMAX(I));
     1340    14289    8                     SELECT(3);
     1341    14290    8                     FMT_VEC(FDS.NVECS#) = VECTOR(KL_DREC.KL_DREC_FEBLK.PSDOL.GMAX(I));
     1342    14291    8                     END;
     1343    14292    7                  FDS.NVECS# = FDS.NVECS# + 1;
     1344    14293    7                  CALL INSERT(FMT_BUF,FDS.FMT_.BOUND+1,5,' %8LD');
     1345    14294    7                  FDS.FMT_.BOUND = FDS.FMT_.BOUND + 5;
     1346    14295    7                  END;
     1347    14296    6               END;
     1348    14297    5            CALL X$FORMAT(FDS);
     1349    14298    5            END;
     1350    14299    4         END;
     1351    14300    3      END;
     1352    14301    2   RETURN;
     1353    14302    2   END LIST_FEPSEUDO;
     1354    14303        %EJECT;
PL6.E3A0      #002=ASL$LIST_OUT File=ASL$EXT.:E05TSI                             TUE 07/29/97 09:59 Page:80
     1355    14304    1   LIST_RESOURCE: PROC;
     1356    14305    2   DCL LEN SBIN;
     1357    14306    2   DCL I SBIN;
     1358    14307    2   DCL BOG_IDX SBIN;
     1359    14308    2   CALL INSERT(OUT_BUF,0,2,' ');
     1360    14309    2   LEN = 2;
     1361    14310    3   DO I=0 TO 7;
     1362    14311    3      IF AS_USERS.RESL.RNAME(I)~=' '
     1363    14312    4      THEN DO;
     1364    14313    4         CALL INSERT(OUT_BUF,LEN,6,' ',AS_USERS.RESL.RNAME(I));
     1365    14314    4         LEN = LEN + 6;
     1366    14315    4         END;
     1367    14316    3      END;
     1368    14317    2   IF LEN>3
     1369    14318    3   THEN DO;                  /* Some resourcess exist...report them     */
     1370    14319    3      CALL ASB$WRITE_LO(' ',1);
     1371    14320    3      CALL ASB$WRITE_LO( OPT_TBL.HDR(L_RES), LENGTHC(OPT_TBL.HDR(L_RES)) );
     1372    14321    3      CALL ASB$WRITE_LO(' ',1);
     1373    14322    3      CALL ASB$WRITE_LO(OUT_BUF,LEN);
     1374    14323    4      DO BOG_IDX = 0 TO 3;
     1375    14324    4         IF DO_FLAG(BOG_IDX)
     1376    14325    5         THEN DO;                 /* Report on this mode                */
     1377    14326    5            FMT_VEC(0) = VECTOR(BOG_BUF(BOG_IDX));
     1378    14327    5            FDS.NVECS# = 1;
     1379    14328    5            CALL INSERT(FMT_BUF,0,6,'%3LA%S');
     1380    14329    5            FDS.FMT_.BOUND = 5;
     1381    14330    6            DO I=0 TO 7;
     1382    14331    6               IF AS_USERS.RESL.RNAME(I)~=' '
     1383    14332    7               THEN DO;           /* This entry exists                  */
     1384    14333    8                  DO SELECT(BOG_IDX);
     1385    14334    8                     SELECT(0);
     1386    14335    8                     FMT_VEC(FDS.NVECS#) = VECTOR(AS_USERS.RESL.BMAX(I));
     1387    14336    8                     SELECT(1);
     1388    14337    8                     FMT_VEC(FDS.NVECS#) = VECTOR(AS_USERS.RESL.GMAX(I));
     1389    14338    8                     SELECT(2);
     1390    14339    8                     FMT_VEC(FDS.NVECS#) = VECTOR(AS_USERS.RESL.OMAX(I));
     1391    14340    8                     SELECT(3);
PL6.E3A0      #002=ASL$LIST_OUT File=ASL$EXT.:E05TSI                             TUE 07/29/97 09:59 Page:81
     1392    14341    8                     FMT_VEC(FDS.NVECS#) = VECTOR(AS_USERS.RESL.TMAX(I));
     1393    14342    8                     END;
     1394    14343    7                  FDS.NVECS# = FDS.NVECS# + 1;
     1395    14344    7                  CALL INSERT(FMT_BUF,FDS.FMT_.BOUND+1,5,' %5LD');
     1396    14345    7                  FDS.FMT_.BOUND = FDS.FMT_.BOUND + 5;
     1397    14346    7                  END;
     1398    14347    6               END;
     1399    14348    5            CALL X$FORMAT(FDS);
     1400    14349    5            END;
     1401    14350    4         END;
     1402    14351    3      END;
     1403    14352    2   RETURN;
     1404    14353    2   END LIST_RESOURCE;
     1405    14354        %EJECT;
PL6.E3A0      #002=ASL$LIST_OUT File=ASL$EXT.:E05TSI                             TUE 07/29/97 09:59 Page:82
     1406    14355    1   LIST_FERESOURCE: PROC;
     1407    14356    2   DCL LEN SBIN;
     1408    14357    2   DCL I SBIN;
     1409    14358    2   DCL BOG_IDX SBIN;
     1410    14359    2   CALL INSERT(OUT_BUF,0,2,' ');
     1411    14360    2   LEN = 2;
     1412    14361    3   DO I=0 TO KL_DREC.KL_DREC_FEBLK.RESL_CNT - 1 ;
     1413    14362    3      IF KL_DREC.KL_DREC_FEBLK.RESL.RNAME(I)~=' '
     1414    14363    4      THEN DO;
     1415    14364    4         CALL INSERT(OUT_BUF,LEN,6,' ',KL_DREC.KL_DREC_FEBLK.RESL.RNAME(I));
     1416    14365    4         LEN = LEN + 6;
     1417    14366    4         END;
     1418    14367    3      END;
     1419    14368    2   IF LEN>3
     1420    14369    3   THEN DO;                  /* Some feresourcess exist...report them     */
     1421    14370    3      CALL ASB$WRITE_LO(' ',1);
     1422    14371    3      CALL ASB$WRITE_LO( OPT_TBL.HDR(L_FERES), LENGTHC(OPT_TBL.HDR(L_FERES)) );
     1423    14372    3      CALL ASB$WRITE_LO(' ',1);
     1424    14373    3      CALL ASB$WRITE_LO(OUT_BUF,LEN);
     1425    14374    4      DO BOG_IDX = 0 TO 3;
     1426    14375    4         IF DO_FLAG (L_FEUSER + BOG_IDX)
     1427    14376    5         THEN DO;                 /* Report on this mode                */
     1428    14377    5            FMT_VEC(0) = VECTOR(BOG_FE_BUF(BOG_IDX));
     1429    14378    5            FDS.NVECS# = 1;
     1430    14379    5            CALL INSERT(FMT_BUF,0,6,'%3LA%S');
     1431    14380    5            FDS.FMT_.BOUND = 5;
     1432    14381    6            DO I=0 TO KL_DREC.KL_DREC_FEBLK.RESL_CNT-1 ;
     1433    14382    6               IF KL_DREC.KL_DREC_FEBLK.RESL.RNAME(I)~=' '
     1434    14383    7               THEN DO;           /* This entry exists                  */
     1435    14384    8                  DO SELECT(BOG_IDX);
     1436    14385    8                     SELECT(0);
     1437    14386    8                     FMT_VEC(FDS.NVECS#) = VECTOR(KL_DREC.KL_DREC_FEBLK.RESL.UMAX(I));
     1438    14387    8                     SELECT(1);
     1439    14388    8                     FMT_VEC(FDS.NVECS#) = VECTOR(KL_DREC.KL_DREC_FEBLK.RESL.CMAX(I));
     1440    14389    8                     SELECT(2);
     1441    14390    8                     FMT_VEC(FDS.NVECS#) = VECTOR(KL_DREC.KL_DREC_FEBLK.RESL.HMAX(I));
     1442    14391    8                     SELECT(3);
PL6.E3A0      #002=ASL$LIST_OUT File=ASL$EXT.:E05TSI                             TUE 07/29/97 09:59 Page:83
     1443    14392    8                     FMT_VEC(FDS.NVECS#) = VECTOR(KL_DREC.KL_DREC_FEBLK.RESL.GMAX(I));
     1444    14393    8                     END;
     1445    14394    7                  FDS.NVECS# = FDS.NVECS# + 1;
     1446    14395    7                  CALL INSERT(FMT_BUF,FDS.FMT_.BOUND+1,5,' %5LD');
     1447    14396    7                  FDS.FMT_.BOUND = FDS.FMT_.BOUND + 5;
     1448    14397    7                  END;
     1449    14398    6               END;
     1450    14399    5            CALL X$FORMAT(FDS);
     1451    14400    5            END;
     1452    14401    4         END;
     1453    14402    3      END;
     1454    14403    2   RETURN;
     1455    14404    2   END LIST_FERESOURCE;
     1456    14405        %EJECT;
PL6.E3A0      #002=ASL$LIST_OUT File=ASL$EXT.:E05TSI                             TUE 07/29/97 09:59 Page:84
     1457    14406    1   LIST_PRIV: PROC(PRIV_FLG);
     1458    14407    2   DCL PRIV_FLG BIT(1) ALIGNED;
     1459    14408    2   DCL BOG_IDX SBIN;
     1460    14409    2   DCL I SBIN;
     1461    14410    2   DCL MORE BIT(1) ALIGNED;
     1462    14411    2   DCL PRIV BIT(36);
     1463    14412    2   DCL END_IDX SBIN;
     1464    14413    2   DCL 1 PRIV_TBL(0:71) CONSTANT,
     1465    14414    2          2 LEN UBIN BYTE UNAL INIT
     1466    14415    2             ( 7, 9, 6, 6, 6,
     1467    14416    2               8, 8, 7, 5, 5,
     1468    14417    2               6, 5, 6, 6, 6,
     1469    14418    2               5, 8, 8, 8, 5,
     1470    14419    2               0*16,
     1471    14420    2               8, 8, 5, 5, 9,
     1472    14421    2               7, 8, 6, 6, 7,
     1473    14422    2               8, 9, 9, 7, 8,
     1474    14423    2               8, 8, 8, 9, 8,
     1475    14424    2               9, 0*15),
     1476    14425    2          2 HDR CHAR(8) UNAL INIT
     1477    14426    2             ('ASAVE   ', 'DISPJOB ', 'CFEP    ', 'EXMM    ', 'EXPM    ',
     1478    14427    2              'FMDIAG  ', 'FMREAD  ', 'FMSEC   ', 'GPP     ', 'IOQ     ',
     1479    14428    2              'IOQW    ', 'JIT     ', 'MAXM    ', 'MFEP    ', 'MSYS    ',
     1480    14429    2              'PM      ', 'SPCLMM  ', 'SYSCON  ', 'SYSLOG  ', 'TND     ',
     1481    14430    2               ' '*16,
     1482    14431    2              'CNTRLC  ', 'CNTRLD  ', 'EFT     ', 'EL      ', 'NETCON  ',
     1483    14432    2              'LABEL   ', 'PADMIN  ', 'PIGC    ', 'PIGD    ', 'RATES   ',
     1484    14433    2              'REPLAY  ', 'SPIDERC ', 'SPIDERD ', 'SUPER   ', 'SUPERA  ',
     1485    14434    2              'SUPERD  ', 'SUPERF  ', 'SUPERW  ', 'VOLINIT ', 'SYSCON  ',
     1486    14435    2              'PIGETTE ', ' '*15 ),
     1487    14436    2          2 MASK BIT(36) UNAL INIT
     1488    14437    2             (%PR_ASAVE#,    %PR_DISPJOB#,  %PR_CFEP#,     %PR_EXMM#,     %PR_EXPM#,
     1489    14438    2              %PR_FMDIAG#,   %PR_FMREAD#,   %PR_FMSEC#,    %PR_GPP#,      %PR_IOQ#,
     1490    14439    2              %PR_IOQW#,     %PR_JIT#,      %PR_MAXMEM#,   %PR_MFEP#,     %PR_MSYS#,
     1491    14440    2              %PR_PM#,       %PR_SPCLMM#,   %PR_SYSCON#,   %PR_SYSLOG#,   %PR_TND#,
     1492    14441    2              '0'B*16,
     1493    14442    2              %PPR_CNTRLC#,  %PPR_CNTRLD#,  %PPR_EFT#,     %PPR_EL#,      %PPR_NETCON#,
PL6.E3A0      #002=ASL$LIST_OUT File=ASL$EXT.:E05TSI                             TUE 07/29/97 09:59 Page:85
     1494    14443    2              %PPR_LABEL#,   %PPR_PADMIN#,  %PPR_PIGC#,    %PPR_PIGD#,    %PPR_RATES#,
     1495    14444    2              %PPR_REPLAY#,  %PPR_SPIDERC#, %PPR_SPIDERD#, %PPR_SUPER#,   %
             14444                       PPR_SUPERAUTH#,
     1496    14445    2              %PPR_SUPERD#,  %PPR_SUPERFORM#,%PPR_SUPERWSN#,%PPR_VOLINIT#,%PPR_SYSCON#,
     1497    14446    2              %PPR_PIGETTE#, '0'B*15 );
     1498    14447    2   DCL PPRIV_HDR CHAR(0) CONSTANT INIT
     1499    14448    2               ('        PROCESSOR PRIVILEGES');
     1500    14449        %EJECT;
PL6.E3A0      #002=ASL$LIST_OUT File=ASL$EXT.:E05TSI                             TUE 07/29/97 09:59 Page:86
     1501    14450    2   CALL ASB$WRITE_LO(' ',1);
     1502    14451    2   IF PRIV_FLG
     1503    14452    3   THEN DO;
     1504    14453    3      CALL ASB$WRITE_LO( OPT_TBL.HDR(L_PRIV), LENGTHC(OPT_TBL.HDR(L_PRIV)));
     1505    14454    3      NXT_IDX = 0;
     1506    14455    3      END_IDX = 36;
     1507    14456    3      END;
     1508    14457    3   ELSE DO;
     1509    14458    3      CALL ASB$WRITE_LO(PPRIV_HDR,SIZEC(PPRIV_HDR));
     1510    14459    3      NXT_IDX = 36;
     1511    14460    3      END_IDX = 72;
     1512    14461    3      END;
     1513    14462    2   ST_IDX = NXT_IDX;
     1514    14463    3   DO WHILE(ST_IDX < END_IDX);
     1515    14464    3      CALL INSERT(OUT_BUF,0,3,' ');
     1516    14465    3      HDR_LEN = 3;
     1517    14466    3      FIELDS = 0;
     1518    14467    3      MORE = '1'B;
     1519    14468    4      DO WHILE(MORE AND NXT_IDX < END_IDX);
     1520    14469    4         IF (HDR_LEN + PRIV_TBL.LEN(NXT_IDX)) <= LO_WIDTH
     1521    14470    4              OR FIELDS=0
     1522    14471    5         THEN DO;
     1523    14472    5            IF PRIV_TBL.LEN(NXT_IDX)>0
     1524    14473    6            THEN DO;
     1525    14474    6               CALL INSERT(OUT_BUF,HDR_LEN,PRIV_TBL.LEN(NXT_IDX),
     1526    14475    6                    PRIV_TBL.HDR(NXT_IDX));
     1527    14476    6               HDR_LEN = HDR_LEN + PRIV_TBL.LEN(NXT_IDX);
     1528    14477    6               FIELDS = FIELDS+1;
     1529    14478    6               END;
     1530    14479    5            NXT_IDX = NXT_IDX+1;
     1531    14480    5            END;
     1532    14481    4         ELSE
     1533    14482    4            MORE = '0'B;
     1534    14483    4         END;
     1535    14484    3      IF FIELDS>0
     1536    14485    4      THEN DO;
     1537    14486    4         CALL ASB$WRITE_LO(' ',1);
PL6.E3A0      #002=ASL$LIST_OUT File=ASL$EXT.:E05TSI                             TUE 07/29/97 09:59 Page:87
     1538    14487    4         CALL ASB$WRITE_LO(OUT_BUF,HDR_LEN); /* Put out the hdr          */
     1539    14488    5         DO BOG_IDX = 0 TO 3;
     1540    14489    5            IF DO_FLAG(BOG_IDX)
     1541    14490    6            THEN DO;
     1542    14491    6               IF PRIV_FLG
     1543    14492    6               THEN
     1544    14493    6                  PRIV = AS_USERS.PRIV(BOG_IDX);
     1545    14494    6               ELSE
     1546    14495    6                  PRIV = AS_USERS.PPRIV(BOG_IDX);
     1547    14496    6               CALL INSERT(FMT_BUF,0,2,'%A');
     1548    14497    6               FDS.FMT_.BOUND = 1;
     1549    14498    6               FMT_VEC(0) = VECTOR(BOG_BUF(BOG_IDX));
     1550    14499    6               FDS.NVECS# = 1;
     1551    14500    6               SBIN_IDX = 0;
     1552    14501    6               SBINS(SBIN_IDX) = 5;
     1553    14502    7               DO I=ST_IDX TO ST_IDX+FIELDS-1;
     1554    14503    7                  IF PRIV_TBL.LEN(I)>0
     1555    14504    8                  THEN DO;
     1556    14505    8                     FMT_VEC(FDS.NVECS#) = VECTOR(SBINS(SBIN_IDX));
     1557    14506    8                     IF PRIV & PRIV_TBL.MASK(I)
     1558    14507    8                     THEN
     1559    14508    8                        FMT_VEC(FDS.NVECS#+1) = VECTOR(YES_STR);
     1560    14509    8                     ELSE
     1561    14510    8                        FMT_VEC(FDS.NVECS#+1) = VECTOR(NO_STR);
     1562    14511    8                     FDS.NVECS# = FDS.NVECS# + 2;
     1563    14512    8                     SBINS(SBIN_IDX+1) = SBINS(SBIN_IDX) + PRIV_TBL.LEN(I);
     1564    14513    8                     SBIN_IDX = SBIN_IDX + 1;
     1565    14514    8                     CALL INSERT(FMT_BUF,FDS.FMT_.BOUND+1,5,'%N-%A');
     1566    14515    8                     FDS.FMT_.BOUND = FDS.FMT_.BOUND+5;
     1567    14516    8                     END;
     1568    14517    7                  END;
     1569    14518    6               CALL X$FORMAT(FDS);
     1570    14519    6               END;
     1571    14520    5            END;
     1572    14521    4         END;
     1573    14522    3      ST_IDX = NXT_IDX;
     1574    14523    3      END;
PL6.E3A0      #002=ASL$LIST_OUT File=ASL$EXT.:E05TSI                             TUE 07/29/97 09:59 Page:88
     1575    14524    2   RETURN;
     1576    14525    2   END LIST_PRIV;
     1577    14526        %EJECT;
PL6.E3A0      #002=ASL$LIST_OUT File=ASL$EXT.:E05TSI                             TUE 07/29/97 09:59 Page:89
     1578    14527    1   LIST_FEPRIV: PROC(PRIV_FLG);
     1579    14528    2   DCL PRIV_FLG BIT(1) ALIGNED;
     1580    14529    2   DCL BOG_IDX SBIN;
     1581    14530    2   DCL I SBIN;
     1582    14531    2   DCL MORE BIT(1) ALIGNED;
     1583    14532    2   DCL PRIV BIT(36);
     1584    14533    2   DCL END_IDX SBIN;
     1585    14534    2   DCL 1 PRIV_TBL(0:71) CONSTANT,
     1586    14535    2          2 LEN UBIN BYTE UNAL INIT
     1587    14536    2             ( 6, 6, 8, 7, 5,
     1588    14537    2               6, 6, 8, 8, 5,
     1589    14538    2               8, 5, 6, 9, 0,
     1590    14539    2               0*21,
     1591    14540    2               8, 8, 5, 5, 9,
     1592    14541    2               7, 8, 6, 6, 7,
     1593    14542    2               8, 9, 9, 7, 8,
     1594    14543    2               8, 8, 8, 9, 8,
     1595    14544    2               9, 0*15),
     1596    14545    2          2 HDR CHAR(8) UNAL INIT
     1597    14546    2             ('EXMM    ', 'EXPM    ', 'FMREAD  ', 'FMSEC   ', 'GPP     ',
     1598    14547    2              'MAXM    ', 'MSYS    ', 'SPCLMM  ', 'SYSLOG  ', 'TND     ',
     1599    14548    2              'INTCON  ', 'CQ      ', 'SNAP    ', 'SCREECH ', '        ',
     1600    14549    2              '        '*21,
     1601    14550    2              'CNTRLC  ', 'CNTRLD  ', 'EFT     ', 'EL      ', 'NETCON  ',
     1602    14551    2              'LABEL   ', 'PADMIN  ', 'PIGC    ', 'PIGD    ', 'RATES   ',
     1603    14552    2              'REPLAY  ', 'SPIDERC ', 'SPIDERD ', 'SUPER   ', 'SUPERA  ',
     1604    14553    2              'SUPERD  ', 'SUPERF  ', 'SUPERW  ', 'VOLINIT ', 'SYSCON  ',
     1605    14554    2              'PIGETTE ', ' '*15 ),
     1606    14555    2          2 MASK BIT(36) UNAL INIT
     1607    14556    2              (%PR_EXMM#,     %PR_EXPM#,     %PR_FMREAD#,   %PR_FMSEC#,    %PR_GPP#,
     1608    14557    2               %PR_MAXMEM#,   %PR_MSYS#,     %PR_SPCLMM#,   %PR_SYSLOG#,   %PR_TND#,
     1609    14558    2               %PR_INTCON#,   %PR_CQ#,       %PR_SNAP#,     %PR_SCREECH#,  '0'B,
     1610    14559    2               '0'B*21,
     1611    14560    2               %PPR_CNTRLC#,  %PPR_CNTRLD#,  %PPR_EFT#,     %PPR_EL#,      %PPR_NETCON#
             14560                        ,
     1612    14561    2               %PPR_LABEL#,   %PPR_PADMIN#,  %PPR_PIGC#,    %PPR_PIGD#,    %PPR_RATES#,
     1613    14562    2               %PPR_REPLAY#,  %PPR_SPIDERC#, %PPR_SPIDERD#, %PPR_SUPER#,   %
PL6.E3A0      #002=ASL$LIST_OUT File=ASL$EXT.:E05TSI                             TUE 07/29/97 09:59 Page:90
             14562                        PPR_SUPERAUTH#,
     1614    14563    2               %PPR_SUPERD#,  %PPR_SUPERFORM#,%PPR_SUPERWSN#,%PPR_VOLINIT#,%PPR_SYSCON#
             14563                        ,
     1615    14564    2               %PPR_PIGETTE#, '0'B*15 );
     1616    14565    2   DCL PPRIV_HDR CHAR(0) CONSTANT INIT
     1617    14566    2               ('        FE PROCESSOR PRIVILEGES');
     1618    14567        %EJECT;
PL6.E3A0      #002=ASL$LIST_OUT File=ASL$EXT.:E05TSI                             TUE 07/29/97 09:59 Page:91
     1619    14568    2   CALL ASB$WRITE_LO(' ',1);
     1620    14569    2   IF PRIV_FLG
     1621    14570    3   THEN DO;
     1622    14571    3      CALL ASB$WRITE_LO( OPT_TBL.HDR(L_FEPRIV), LENGTHC(OPT_TBL.HDR(L_FEPRIV)));
     1623    14572    3      NXT_IDX = 0;
     1624    14573    3      END_IDX = 36;
     1625    14574    3      END;
     1626    14575    3   ELSE DO;
     1627    14576    3      CALL ASB$WRITE_LO(PPRIV_HDR,SIZEC(PPRIV_HDR));
     1628    14577    3      NXT_IDX = 36;
     1629    14578    3      END_IDX = 72;
     1630    14579    3      END;
     1631    14580    2   ST_IDX = NXT_IDX;
     1632    14581    3   DO WHILE(ST_IDX < END_IDX);
     1633    14582    3      CALL INSERT(OUT_BUF,0,3,' ');
     1634    14583    3      HDR_LEN = 3;
     1635    14584    3      FIELDS = 0;
     1636    14585    3      MORE = '1'B;
     1637    14586    4      DO WHILE(MORE AND NXT_IDX < END_IDX);
     1638    14587    4         IF (HDR_LEN + PRIV_TBL.LEN(NXT_IDX)) <= LO_WIDTH
     1639    14588    4              OR FIELDS=0
     1640    14589    5         THEN DO;
     1641    14590    5            IF PRIV_TBL.LEN(NXT_IDX)>0
     1642    14591    6            THEN DO;
     1643    14592    6               CALL INSERT(OUT_BUF,HDR_LEN,PRIV_TBL.LEN(NXT_IDX),
     1644    14593    6                    PRIV_TBL.HDR(NXT_IDX));
     1645    14594    6               HDR_LEN = HDR_LEN + PRIV_TBL.LEN(NXT_IDX);
     1646    14595    6               FIELDS = FIELDS+1;
     1647    14596    6               END;
     1648    14597    5            NXT_IDX = NXT_IDX+1;
     1649    14598    5            END;
     1650    14599    4         ELSE
     1651    14600    4            MORE = '0'B;
     1652    14601    4         END;
     1653    14602    3      IF FIELDS>0
     1654    14603    4      THEN DO;
     1655    14604    4         CALL ASB$WRITE_LO(' ',1);
PL6.E3A0      #002=ASL$LIST_OUT File=ASL$EXT.:E05TSI                             TUE 07/29/97 09:59 Page:92
     1656    14605    4         CALL ASB$WRITE_LO(OUT_BUF,HDR_LEN); /* Put out the hdr          */
     1657    14606    5         DO BOG_IDX = 0 TO 3;
     1658    14607    5            IF DO_FLAG (L_FEUSER + BOG_IDX)
     1659    14608    6            THEN DO;
     1660    14609    6               IF PRIV_FLG
     1661    14610    6               THEN
     1662    14611    6                  PRIV = KL_DREC.KL_DREC_FEBLK.PRIV(BOG_IDX);
     1663    14612    6               ELSE
     1664    14613    6                  PRIV = KL_DREC.KL_DREC_FEBLK.PPRIV(BOG_IDX);
     1665    14614    6               CALL INSERT(FMT_BUF,0,2,'%A');
     1666    14615    6               FDS.FMT_.BOUND = 1;
     1667    14616    6               FMT_VEC(0) = VECTOR(BOG_FE_BUF(BOG_IDX));
     1668    14617    6               FDS.NVECS# = 1;
     1669    14618    6               SBIN_IDX = 0;
     1670    14619    6               SBINS(SBIN_IDX) = 5;
     1671    14620    7               DO I=ST_IDX TO ST_IDX+FIELDS-1;
     1672    14621    7                  IF PRIV_TBL.LEN(I)>0
     1673    14622    8                  THEN DO;
     1674    14623    8                     FMT_VEC(FDS.NVECS#) = VECTOR(SBINS(SBIN_IDX));
     1675    14624    8                     IF PRIV & PRIV_TBL.MASK(I)
     1676    14625    8                     THEN
     1677    14626    8                        FMT_VEC(FDS.NVECS#+1) = VECTOR(YES_STR);
     1678    14627    8                     ELSE
     1679    14628    8                        FMT_VEC(FDS.NVECS#+1) = VECTOR(NO_STR);
     1680    14629    8                     FDS.NVECS# = FDS.NVECS# + 2;
     1681    14630    8                     SBINS(SBIN_IDX+1) = SBINS(SBIN_IDX) + PRIV_TBL.LEN(I);
     1682    14631    8                     SBIN_IDX = SBIN_IDX + 1;
     1683    14632    8                     CALL INSERT(FMT_BUF,FDS.FMT_.BOUND+1,5,'%N-%A');
     1684    14633    8                     FDS.FMT_.BOUND = FDS.FMT_.BOUND+5;
     1685    14634    8                     END;
     1686    14635    7                  END;
     1687    14636    6               CALL X$FORMAT(FDS);
     1688    14637    6               END;
     1689    14638    5            END;
     1690    14639    4         END;
     1691    14640    3      ST_IDX = NXT_IDX;
     1692    14641    3      END;
PL6.E3A0      #002=ASL$LIST_OUT File=ASL$EXT.:E05TSI                             TUE 07/29/97 09:59 Page:93
     1693    14642    2   RETURN;
     1694    14643    2   END LIST_FEPRIV;
     1695    14644        %EJECT;
PL6.E3A0      #002=ASL$LIST_OUT File=ASL$EXT.:E05TSI                             TUE 07/29/97 09:59 Page:94
     1696    14645    1   LIST_FACCOUNT: PROC;
     1697    14646
     1698    14647        %SUPER_TO_PIG( STCLASS="BASED(DSEG1$)" );
     1699    14679
     1700    14680    2   IF DO_FLAG (L_JCL) THEN
     1701    14681    2      CALL ASB$WRITE_LO( JCL_OPT_TBL.HDR(L_FACCT), LENGTHC(JCL_OPT_TBL.HDR(L_FACCT)) );
     1702    14682    3   ELSE DO;
     1703    14683    3      CALL ASB$WRITE_LO( AS_BLANK, 1 );
     1704    14684    3      CALL ASB$WRITE_LO( OPT_TBL.HDR(L_FACCT), LENGTHC(OPT_TBL.HDR(L_FACCT)) );
     1705    14685    3      CALL ASB$WRITE_LO( AS_BLANK, 1 );
     1706    14686    3      END; /*  Not jcl  */
     1707    14687    2   SUPER_TO_PIG.TYPE = %LIST_ACCT;
     1708    14688    2   SUPER_TO_PIG.WIDTH = LO_WIDTH;
     1709    14689    2   SUPER_TO_PIG.PROJ = ( AS_PROJECT_ADMIN ~= AS_NONE );
     1710    14690    2   SUPER_TO_PIG.RESUPER = AS_LOGON_KEY.TEXT;
     1711    14691    2   SUPER_TO_PIG.PROJECT_TEXT = AS_PROJECT_ADMIN.TEXT;
     1712    14692    2   SUPER_TO_PIG.PACKSET = AS_USERS.HPSN;
     1713    14693    2   SUPER_TO_PIG.ACCT = AS_USERS.ACCT;
     1714    14694    2   SUPER_TO_PIG.ATTR.COUNT = 0;
     1715    14695    2   CALL ASB$PIG( SUPER_TO_PIG );
     1716    14696
     1717    14697    2   IF DO_FLAG (L_JCL) THEN
     1718    14698    2      CALL ASB$WRITE_LO( AS_BLANK, 1 );
     1719    14699    2   END LIST_FACCOUNT;
     1720    14700        %EJECT;
PL6.E3A0      #002=ASL$LIST_OUT File=ASL$EXT.:E05TSI                             TUE 07/29/97 09:59 Page:95
     1721    14701    1   BUILD_JCL_FMT: PROC  (START_INDEX, SUBOPTION_MODE );
     1722    14702    2   DCL START_INDEX            UBIN;
     1723    14703    2   DCL SUBOPTION_MODE         BIT(1);
     1724    14704
     1725    14705    2   DCL BOG_IDX                SBIN;
     1726    14706    2   DCL CNT1                   SBIN;
     1727    14707    2   DCL I                      UBIN;
     1728    14708    2   DCL MACCT                  CHAR(21);
     1729    14709    2   DCL NEXT                   UBIN WORD ;
     1730    14710    2   DCL NEXT_INDEX             UBIN;
     1731    14711    2   DCL SIDX                   SBIN;
     1732    14712    2   DCL YES_NO                 BIT(1) ALIGNED;
     1733    14713
     1734    14714    2   FMT_BUF = ' ';
     1735    14715    2   FDS.NVECS# = 0;
     1736    14716    2   NEXT_INDEX = START_INDEX;
     1737    14717    2   NEXT = JCL_OPT_TBL.ORDR( NEXT_INDEX ) ;
     1738    14718    3   DO WHILE NEXT > 0;
     1739    14719
     1740    14720    3      POSITION = %NO#;
     1741    14721    3      CALL INDEX (CNT1,'  ',JCL_OPT_TBL.HDR(NEXT));
     1742    14722    4      IF SUBOPTION_MODE THEN DO;
     1743    14723    4         CALL CONCAT (FMT_BUF, '   ',SUBSTR (JCL_OPT_TBL.HDR(NEXT),0,CNT1));
     1744    14724    4         FDS.FMT_.BOUND = CNT1 + 2;
     1745    14725    4         END;   /*  Suboption mode  */
     1746    14726    4      ELSE DO;
     1747    14727    4         FMT_BUF = SUBSTR (JCL_OPT_TBL.HDR(NEXT),0,CNT1) ;
     1748    14728    4         FDS.FMT_.BOUND = CNT1 - 1;
     1749    14729    4         END;   /*  Option mode  */
     1750    14730
     1751    14731    4      DO SELECT(NEXT);
     1752    14732
     1753    14733    4         SELECT(L_ACCESS);
             14733                  /* Access mode=yesno,mode=yesno,mode=yesno,mode=yesno,mode=yesno  */
     1754    14734
     1755    14735    4         IF KL_DREC.FLAGS.BATOK THEN
     1756    14736    4            FMT_VEC ( 1 ) = VECTOR ( YES_STR );
PL6.E3A0      #002=ASL$LIST_OUT File=ASL$EXT.:E05TSI                             TUE 07/29/97 09:59 Page:96
     1757    14737    4         ELSE
     1758    14738    4            FMT_VEC ( 1 ) = VECTOR ( NO_STR );
     1759    14739    4         IF KL_DREC.FLAGS.GHOSTOK THEN
     1760    14740    4            FMT_VEC ( 3 ) = VECTOR ( YES_STR );
     1761    14741    4         ELSE
     1762    14742    4            FMT_VEC ( 3 ) = VECTOR ( NO_STR );
     1763    14743    4         IF KL_DREC.FLAGS.OLOK THEN
     1764    14744    4            FMT_VEC ( 5 ) = VECTOR ( YES_STR );
     1765    14745    4         ELSE
     1766    14746    4            FMT_VEC ( 5 ) = VECTOR ( NO_STR );
     1767    14747    4         IF KL_DREC.FLAGS.TPOK THEN
     1768    14748    4            FMT_VEC ( 7 ) = VECTOR ( YES_STR );
     1769    14749    4         ELSE
     1770    14750    4            FMT_VEC ( 7 ) = VECTOR ( NO_STR );
     1771    14751    4         IF KL_DREC.FLAGS.FEOK THEN
     1772    14752    4            FMT_VEC ( 9 ) = VECTOR ( YES_STR );
     1773    14753    4         ELSE
     1774    14754    4            FMT_VEC ( 9 ) = VECTOR ( NO_STR );
     1775    14755    4         CLASS = C_MODE_TEXT;
     1776    14756    4         FDS.NVECS# = 10;
     1777    14757
     1778    14758    4         SELECT (L_ACCOUNT_OWNER); /*  ACCOUNT_OWNER = text  */
     1779    14759
     1780    14760    4         IF AS_USERS.BANNER (0) = -1 THEN
     1781    14761    4            FMT_VEC ( 0 ) = VECTOR(BL_STR) ;
     1782    14762    5         ELSE DO ;
     1783    14763    5            SIDX = AS_USERS.BANNER (0) ;
     1784    14764    5            FMT_VEC ( 0 ) = VECTOR(ADDR(AS_USERS.SETUP_CHRA.TXT_UBIN(SIDX))->TEXT$C.C);
     1785    14765    5            END ;
     1786    14766    4         CLASS = C_TEXT;
     1787    14767
     1788    14768    4         SELECT(L_ACCUM); /*  Acharges = dddddd.dd  budget suboption  */
     1789    14769
     1790    14770    4         SVAL = AS_USERS.BUDGET.ACCUM;
     1791    14771    4         CLASS = C_MONEY;
     1792    14772
     1793    14773    4         SELECT (L_BANNER1, L_BANNER2, L_BANNER3, L_BANNER4, L_BANNER5,
PL6.E3A0      #002=ASL$LIST_OUT File=ASL$EXT.:E05TSI                             TUE 07/29/97 09:59 Page:97
     1794    14774    4              L_BANNER6, L_BANNER7, L_BANNER8, L_BANNER9);
     1795    14775
     1796    14776    5         DO SELECT (NEXT);
     1797    14777    5            SELECT (L_BANNER1);
     1798    14778    5            I = 1;
     1799    14779    5            SELECT (L_BANNER2);
     1800    14780    5            I = 2;
     1801    14781    5            SELECT (L_BANNER3);
     1802    14782    5            I = 3;
     1803    14783    5            SELECT (L_BANNER4);
     1804    14784    5            I = 4;
     1805    14785    5            SELECT (L_BANNER5);
     1806    14786    5            I = 5;
     1807    14787    5            SELECT (L_BANNER6);
     1808    14788    5            I = 6;
     1809    14789    5            SELECT (L_BANNER7);
     1810    14790    5            I = 7;
     1811    14791    5            SELECT (L_BANNER8);
     1812    14792    5            I = 8;
     1813    14793    5            SELECT (L_BANNER9);
     1814    14794    5            I = 9;
     1815    14795    5            END; /* Of case */
     1816    14796    4         SUBSTR (FMT_BUF, FDS.FMT_.BOUND+1, SIZEC(BANNER_FMT)) = BANNER_FMT;
     1817    14797    4         FDS.FMT_.BOUND = FDS.FMT_.BOUND + SIZEC(BANNER_FMT);
     1818    14798    4         CLASS = 0;
     1819    14799    4         FDS.NVECS# = 2;
     1820    14800
     1821    14801    4         IF AS_USERS.BANNER (I) = -1 THEN
     1822    14802    4            FMT_VEC ( 0 ) = VECTOR(BL_STR) ;
     1823    14803    5         ELSE DO ;
     1824    14804    5            SIDX = AS_USERS.BANNER (I) ;
     1825    14805    5            FMT_VEC ( 0 ) = VECTOR(ADDR(AS_USERS.SETUP_CHRA.TXT_UBIN(SIDX))->TEXT$C.C);
     1826    14806    5            END ;
     1827    14807                      /* The banner perm field is the alterable command, when
     1828    14808                         the field is alterable, the bit is '0'b.  The value
     1829    14809                         placed into the YES_NO val is therefore inverted so
     1830    14810                         output says yes for alterable.      */
PL6.E3A0      #002=ASL$LIST_OUT File=ASL$EXT.:E05TSI                             TUE 07/29/97 09:59 Page:98
     1831    14811    4         IF AS_USERS.BANNER_PERM (I) THEN
     1832    14812    4            FMT_VEC (1) = VECTOR (UNALTERABLE_STR);
     1833    14813    4         ELSE
     1834    14814    4            FMT_VEC (1) = VECTOR (ALTERABLE_STR);
     1835    14815
     1836    14816    4         SELECT(L_BATNUM) ; /*  Batnum = {none | value}  */
     1837    14817
     1838    14818    5         IF AS_USERS.BATNUM = -1 THEN DO;
     1839    14819    5            CLASS = C_TEXT;
     1840    14820    5            FMT_VEC ( 0 ) = VECTOR ( NONE_STR );
     1841    14821    5            END; /*  No limit on batnum  */
     1842    14822    5         ELSE DO;
     1843    14823    5            SBINS ( 0 ) = AS_USERS.BATNUM ;
     1844    14824    5            FMT_VEC ( 0 ) = VECTOR ( SBINS (0) ) ;
     1845    14825    5            CLASS = C_SBIN ;
     1846    14826    5            END; /*  A limit on batnum  */
     1847    14827
     1848    14828    4         SELECT(L_BILLING); /*  Billing mode=text,mode=text,mode=text,mode=text  */
     1849    14829
     1850    14830    4         FMT_VEC ( 1 ) = VECTOR ( AS_USERS.BILL ( 0 ));
     1851    14831    4         FMT_VEC ( 3 ) = VECTOR ( AS_USERS.BILL ( 1 ));
     1852    14832    4         FMT_VEC ( 5 ) = VECTOR ( AS_USERS.BILL ( 2 ));
     1853    14833    4         FMT_VEC ( 7 ) = VECTOR ( AS_USERS.BILL ( 3 ));
     1854    14834    4         FDS.NVECS# = 8;
     1855    14835    4         CLASS = C_MODE_TEXT;
     1856    14836
     1857    14837    4         SELECT(L_BKACC); /*  Bkaccess = { yes | no }  budget suboption  */
     1858    14838
     1859    14839    4         SUBSTR (FMT_BUF, FDS.FMT_.BOUND+1, 9) = '%1.9.1.0P';
     1860    14840    4         FDS.FMT_.BOUND = FDS.FMT_.BOUND + 9;
     1861    14841    4         FMT_VEC ( 0 ) = VECTOR ( AS_USERS.BUDGET );
     1862    14842    4         CLASS = C_YESNO;
     1863    14843    4         POSITION = %YES#;
     1864    14844
     1865    14845    4         SELECT(L_BLINDACCTNG); /* Blindacctng = { yes | no } budget suboption */
     1866    14846
     1867    14847    4         SUBSTR (FMT_BUF, FDS.FMT_.BOUND+1, 9) = '%1.9.1.4P';
PL6.E3A0      #002=ASL$LIST_OUT File=ASL$EXT.:E05TSI                             TUE 07/29/97 09:59 Page:99
     1868    14848    4         FDS.FMT_.BOUND = FDS.FMT_.BOUND + 9;
     1869    14849    4         FMT_VEC ( 0 ) = VECTOR ( AS_USERS.BUDGET );
     1870    14850    4         POSITION = %YES#;
     1871    14851    4         CLASS = C_YESNO;
     1872    14852
     1873    14853    4         SELECT(L_BUDLIM); /*  Budlim = { yes | no }  budget suboption  */
     1874    14854
     1875    14855    4         SUBSTR (FMT_BUF, FDS.FMT_.BOUND+1, 9 ) = '%1.9.1.1P';
     1876    14856    4         FDS.FMT_.BOUND = FDS.FMT_.BOUND + 9;
     1877    14857    4         FMT_VEC ( 0 ) = VECTOR ( AS_USERS.BUDGET );
     1878    14858    4         CLASS = C_YESNO;
     1879    14859    4         POSITION = %YES#;
     1880    14860
     1881    14861    4         SELECT(L_CPROC); /* Cproc mode=cpname,mode=cpname,mode=cpname,mode=cpname  */
     1882    14862
     1883    14863    4         FMT_VEC ( 1 ) = VECTOR(ADDR(AS_USERS.CPROC(0))->TEXT$C.C);
     1884    14864    4         FMT_VEC ( 3 ) = VECTOR(ADDR(AS_USERS.CPROC(1))->TEXT$C.C);
     1885    14865    4         FMT_VEC ( 5 ) = VECTOR(ADDR(AS_USERS.CPROC(2))->TEXT$C.C);
     1886    14866    4         FMT_VEC ( 7 ) = VECTOR(ADDR(AS_USERS.CPROC(3))->TEXT$C.C);
     1887    14867    4         FDS.NVECS# = 8;
     1888    14868    4         CLASS = C_MODE_TEXT;
     1889    14869
     1890    14870    4         SELECT(L_DDO);
     1891    14871        /* Default do mode=val,mode=val,mode=val,mode=val services suboption  */
     1892    14872
     1893    14873    4         FDS.NVECS# = 8;
     1894    14874    5         DO BOG_IDX = 0 TO 3;
     1895    14875    5            FMT_VEC ( BOG_IDX*2+1 ) = VECTOR ( AS_USERS.DDO(BOG_IDX));
     1896    14876    5            END; /*  Loop on number of modes  */
     1897    14877    4         CLASS = C_MODE_SBIN ;
     1898    14878
     1899    14879    4         SELECT(L_DEXP); /*  Expire default = { never | days }  */
     1900    14880
     1901    14881    5         IF AS_USERS.DEXP=-1 THEN DO;
     1902    14882    5            FMT_VEC ( 0 ) = VECTOR ( NEVER_STR );
     1903    14883    5            CLASS = C_TEXT;
     1904    14884    5            END;
PL6.E3A0      #002=ASL$LIST_OUT File=ASL$EXT.:E05TSI                             TUE 07/29/97 09:59 Page:100
     1905    14885    5         ELSE DO;
     1906    14886    5            FMT_VEC ( 0 ) = VECTOR ( AS_USERS.DEXP );
     1907    14887    5            CLASS = C_SBIN;
     1908    14888    5            END;
     1909    14889
     1910    14890    4         SELECT(L_DLO);
     1911    14891        /* Default lo mode=val,mode=val,mode=val,mode=val services suboption  */
     1912    14892
     1913    14893    4         FDS.NVECS# = 8;
     1914    14894    5         DO BOG_IDX = 0 TO 3;
     1915    14895    5            FMT_VEC ( BOG_IDX*2+1 ) = VECTOR ( AS_USERS.DLO(BOG_IDX));
     1916    14896    5            END; /*  Loop on number of modes  */
     1917    14897    4         CLASS = C_MODE_SBIN ;
     1918    14898
     1919    14899    4         SELECT(L_DMEM);
     1920    14900        /*  Memory default mode=val,mode=val,mode=val,mode=val */
     1921    14901
     1922    14902    4         FDS.NVECS# = 8;
     1923    14903    5         DO BOG_IDX = 0 TO 3;
     1924    14904    5            FMT_VEC ( BOG_IDX*2+1 ) = VECTOR ( AS_USERS.DMEM(BOG_IDX) ) ;
     1925    14905    5            END; /*  Loop on number of modes  */
     1926    14906    4         CLASS = C_MODE_SBIN ;
     1927    14907
     1928    14908    4         SELECT(L_DPDP);
     1929    14909        /* Default pdis mode=val,mode=val,mode=val,mode=val services suboption  */
     1930    14910
     1931    14911    4         FDS.NVECS# = 8;
     1932    14912    5         DO BOG_IDX = 0 TO 3;
     1933    14913    5            FMT_VEC ( BOG_IDX*2+1 ) = VECTOR ( AS_USERS.DPDIS(BOG_IDX));
     1934    14914    5            END; /*  Loop on number of modes  */
     1935    14915    4         CLASS = C_MODE_SBIN ;
     1936    14916
     1937    14917    4         SELECT(L_DPO);
     1938    14918        /* Default po mode=val,mode=val,mode=val,mode=val services suboption  */
     1939    14919
     1940    14920    4         FDS.NVECS# = 8;
     1941    14921    5         DO BOG_IDX = 0 TO 3;
PL6.E3A0      #002=ASL$LIST_OUT File=ASL$EXT.:E05TSI                             TUE 07/29/97 09:59 Page:101
     1942    14922    5            FMT_VEC ( BOG_IDX*2+1 ) = VECTOR ( AS_USERS.DPO(BOG_IDX));
     1943    14923    5            END; /*  Loop on number of modes  */
     1944    14924    4         CLASS = C_MODE_SBIN ;
     1945    14925
     1946    14926    4         SELECT(L_DPOOL);
     1947    14927        /* Default fpools mode=val,mode=val,mode=val,mode=val services suboption  */
     1948    14928
     1949    14929    4         FDS.NVECS# = 8;
     1950    14930    5         DO BOG_IDX = 0 TO 3;
     1951    14931    5            FMT_VEC ( BOG_IDX*2+1 ) = VECTOR ( AS_USERS.DFPOOLS(BOG_IDX));
     1952    14932    5            END; /*  Loop on number of modes  */
     1953    14933    4         CLASS = C_MODE_SBIN ;
     1954    14934
     1955    14935    4         SELECT(L_DPRI);
     1956    14936        /* Default maxjobprio mode=val,mode=val,mode=val,mode=val services suboption  */
     1957    14937
     1958    14938    4         FDS.NVECS# = 8;
     1959    14939    5         DO BOG_IDX = 0 TO 3;
     1960    14940    5            FMT_VEC ( BOG_IDX*2+1 ) = VECTOR ( AS_USERS.DMPRIO(BOG_IDX));
     1961    14941    5            END; /*  Loop on number of modes  */
     1962    14942    4         CLASS = C_MODE_SBIN ;
     1963    14943
     1964    14944    4         SELECT(L_DTDP);
     1965    14945        /* Default tdis mode=val,mode=val,mode=val,mode=val services suboption  */
     1966    14946
     1967    14947    4         FDS.NVECS# = 8;
     1968    14948    5         DO BOG_IDX = 0 TO 3;
     1969    14949    5            FMT_VEC ( BOG_IDX*2+1 ) = VECTOR ( AS_USERS.DTDIS(BOG_IDX));
     1970    14950    5            END; /*  Loop on number of modes  */
     1971    14951    4         CLASS = C_MODE_SBIN ;
     1972    14952
     1973    14953    4         SELECT(L_DTIME);
     1974    14954        /* Time default mode=val,mode=val,mode=val,mode=val */
     1975    14955
     1976    14956    4         FDS.NVECS# = 8;
     1977    14957    5         DO BOG_IDX = 0 TO 3;
     1978    14958    5            SBINS ( BOG_IDX ) = AS_USERS.DTIME(BOG_IDX)/6000;
PL6.E3A0      #002=ASL$LIST_OUT File=ASL$EXT.:E05TSI                             TUE 07/29/97 09:59 Page:102
     1979    14959    5            FMT_VEC ( BOG_IDX*2+1 ) = VECTOR ( SBINS ( BOG_IDX ) ) ;
     1980    14960    5            END; /*  Loop on number of modes  */
     1981    14961    4         CLASS = C_MODE_SBIN ;
     1982    14962
     1983    14963    4         SELECT(L_FEACCTMEM); /* Femacctmem = num  */
     1984    14964
     1985    14965    4         FMT_VEC ( 0 ) = VECTOR ( KL_DREC.KL_DREC_FEBLK.MACCTMEM );
     1986    14966    4         CLASS = C_SBIN;
     1987    14967
     1988    14968    4         SELECT(L_FEBILL);
             14968                  /* Febilling = femode=sched,femode=sched,femode=sched,femode=sched  */
     1989    14969
     1990    14970    4         FDS.NVECS# = 8;
     1991    14971    5         DO BOG_IDX = 0 TO 3;
     1992    14972    5            FMT_VEC (BOG_IDX*2+1) = VECTOR ( KL_DREC.KL_DREC_FEBLK.BILL(BOG_IDX) );
     1993    14973    5            END; /*  Loop on number of modes  */
     1994    14974    4         CLASS = C_FEMODE_TEXT ;
     1995    14975
     1996    14976    4         SELECT(L_FEDBACCN); /* Fedbaccn = dbacctnm  */
     1997    14977
     1998    14978    4         FMT_VEC ( 0 ) = VECTOR ( KL_DREC.KL_DREC_FEBLK.DBACCN );
     1999    14979    4         CLASS = C_TEXT;
     2000    14980
     2001    14981    4         SELECT(L_FEMINTS); /* Femints femode=val,femode=val,femode=val,femode=val  */
     2002    14982
     2003    14983    4         FDS.NVECS# = 8;
     2004    14984    5         DO BOG_IDX = 0 TO 3;
     2005    14985    5            FMT_VEC ((BOG_IDX*2)+1) = VECTOR (KL_DREC.KL_DREC_FEBLK.MINTS(BOG_IDX));
     2006    14986    5            END; /*  Loop on number of modes  */
     2007    14987    4         CLASS = C_FEMODE_SBIN ;
     2008    14988
     2009    14989    4         SELECT(L_FEMEMORY);
             14989                  /* Femmemory femode=val,femode=val,femode=val,femode=val  */
     2010    14990
     2011    14991    4         FDS.NVECS# = 8;
     2012    14992    5         DO BOG_IDX = 0 TO 3;
     2013    14993    5            FMT_VEC ((BOG_IDX*2)+1) = VECTOR (KL_DREC.KL_DREC_FEBLK.MMEM(BOG_IDX));
PL6.E3A0      #002=ASL$LIST_OUT File=ASL$EXT.:E05TSI                             TUE 07/29/97 09:59 Page:103
     2014    14994    5            END; /*  Loop on number of modes  */
     2015    14995    4         CLASS = C_FEMODE_SBIN ;
     2016    14996
     2017    14997    4         SELECT(L_FEMFPRG) ; /*  Femfprg = value  */
     2018    14998
     2019    14999    4         FMT_VEC ( 0 ) = VECTOR ( KL_DREC.KL_DREC_FEBLK.MFPRG );
     2020    15000    4         CLASS = C_SBIN ;
     2021    15001
     2022    15002    4         SELECT(L_FESTEPACCNT); /* Festepaccnt = {yes|no}  */
     2023    15003
     2024    15004    4         FMT_VEC ( 0 ) = VECTOR ( KL_DREC.KL_DREC_FEBLK.FLAGS );
     2025    15005    4         POSITION = %YES#;
     2026    15006    4         CLASS = C_YESNO;
     2027    15007
     2028    15008    4         SELECT(L_FETIME); /* Femtime femode=val,femode=val,femode=val,femode=val  */
     2029    15009
     2030    15010    4         FDS.NVECS# = 8;
     2031    15011    5         DO BOG_IDX = 0 TO 3;
     2032    15012    5            SBINS ( BOG_IDX ) = KL_DREC.KL_DREC_FEBLK.MTIME(BOG_IDX)/6000;
     2033    15013    5            FMT_VEC (BOG_IDX*2+1) = VECTOR ( SBINS (BOG_IDX ) );
     2034    15014    5            END; /*  Loop on number of modes  */
     2035    15015    4         CLASS = C_FEMODE_SBIN ;
     2036    15016
     2037    15017    4         SELECT (L_FORCE_SETUP);
             15017                  /*  FORCE_SETUP mode=yesno,mode=yesno,mode=yesno,mode=yesno  */
     2038    15018
     2039    15019    4         FDS.NVECS# = 8;
     2040    15020    4         CLASS = C_MODE_TEXT;
     2041    15021    5         DO BOG_IDX = 0 TO 3;
     2042    15022    5            IF AS_USERS.SETUP_FORCE (BOG_IDX) THEN
     2043    15023    5               FMT_VEC ((BOG_IDX*2)+1) = VECTOR ( YES_STR );
     2044    15024    5            ELSE
     2045    15025    5               FMT_VEC ((BOG_IDX*2)+1) = VECTOR ( NO_STR );
     2046    15026    5            END; /*  Loop on number of modes  */
     2047    15027
     2048    15028    4         SELECT(L_HSET);  /*  Hset = DP#setna  */
     2049    15029
PL6.E3A0      #002=ASL$LIST_OUT File=ASL$EXT.:E05TSI                             TUE 07/29/97 09:59 Page:104
     2050    15030    4         SUBSTR (FMT_BUF, FDS.FMT_.BOUND+1, 9) = ' = DP#%>A';
     2051    15031    4         FDS.FMT_.BOUND = FDS.FMT_.BOUND + 9;
     2052    15032    4         FMT_VEC ( 0 ) = VECTOR ( KL_DREC.HPS.N );
     2053    15033    4         FDS.NVECS# = 1;
     2054    15034    4         CLASS = C_ALL_DONE ;
     2055    15035
     2056    15036    4         SELECT(L_ICHARGE); /*  Icharge = { yes | no }  budget suboption  */
     2057    15037
     2058    15038    4         SUBSTR (FMT_BUF, FDS.FMT_.BOUND+1, 9) = '%1.9.1.3P';
     2059    15039    4         FDS.FMT_.BOUND = FDS.FMT_.BOUND + 9;
     2060    15040    4         FMT_VEC ( 0 ) = VECTOR ( AS_USERS.BUDGET );
     2061    15041    4         CLASS = C_YESNO;
     2062    15042    4         POSITION = %YES#;
     2063    15043
     2064    15044    4         SELECT(L_LASTCPROC);
             15044                  /* Last cproc mode=cpname,mode=cpname,mode=cpname,mode=cpname  */
     2065    15045
     2066    15046    4         FMT_VEC ( 1 ) = VECTOR(ADDR(AS_USERS.LASTCPROC(0))->TEXT$C.C);
     2067    15047    4         FMT_VEC ( 3 ) = VECTOR(ADDR(AS_USERS.LASTCPROC(1))->TEXT$C.C);
     2068    15048    4         FMT_VEC ( 5 ) = VECTOR(ADDR(AS_USERS.LASTCPROC(2))->TEXT$C.C);
     2069    15049    4         FMT_VEC ( 7 ) = VECTOR(ADDR(AS_USERS.LASTCPROC(3))->TEXT$C.C);
     2070    15050    4         FDS.NVECS# = 8;
     2071    15051    4         CLASS = C_MODE_TEXT;
     2072    15052
     2073    15053    4         SELECT (L_LAST_LOGON_TIME); /* Lastlogon time = {date,time | time,date}  */
     2074    15054
     2075    15055    4         GET_LOGON.TSTAMP_ = VECTOR (AS_USERS.LAST_LOGON_TIME);
     2076    15056    4         CALL M$TIME (GET_LOGON);
     2077    15057    4         CALL CONCAT (LAST_LOGON_BUF, LOGON_DATE, ',', LOGON_TIME);
     2078    15058    4         FMT_VEC ( 0 ) = VECTOR (LAST_LOGON_BUF);
     2079    15059    4         CLASS = C_TEXT;
     2080    15060
     2081    15061    4         SELECT(L_MACCT); /*  non settable - comes from makeme account  */
     2082    15062
     2083    15063    5         IF NOT DO_FLAG (L_JCL) THEN DO;
     2084    15064    5            IF AS_USERS.BUDGET.MACCT = AS_NONE
     2085    15065    5            THEN
PL6.E3A0      #002=ASL$LIST_OUT File=ASL$EXT.:E05TSI                             TUE 07/29/97 09:59 Page:105
     2086    15066    5               MACCT = AS_NONE.TEXT;
     2087    15067    6            ELSE DO;
     2088    15068    6               MACCT = AS_BLANK;
     2089    15069    6               CALL INDEX(SVAL,' ',AS_USERS.BUDGET.MACCT.ACCT);
     2090    15070    6               CALL CONCAT(MACCT,SUBSTR(AS_USERS.BUDGET.MACCT.ACCT,0,SVAL),
     2091    15071    6                    ',',AS_USERS.BUDGET.MACCT.NAME);
     2092    15072    6               END;
     2093    15073    5            FMT_VEC ( 0 ) = VECTOR ( MACCT );
     2094    15074    5            CLASS = C_TEXT;
     2095    15075    5            END; /* Not jcl  */
     2096    15076    4         ELSE
     2097    15077    4            CLASS = -1;
     2098    15078
     2099    15079    4         SELECT(L_MAXC); /* Mcharges = ddddddd.dd  budget suboption  */
     2100    15080
     2101    15081    5         IF AS_USERS.BUDGET.MAXC = -1 THEN DO;
     2102    15082    5            FMT_VEC ( 0 ) = VECTOR ( NONE_STR );
     2103    15083    5            CLASS = C_TEXT;
     2104    15084    5            END;
     2105    15085    5         ELSE DO;
     2106    15086    5            SVAL = AS_USERS.BUDGET.MAXC;
     2107    15087    5            CLASS = C_MONEY;
     2108    15088    5            END;
     2109    15089
     2110    15090    4         SELECT(L_MEXP); /*  Expire max = { never | days }  */
     2111    15091
     2112    15092    5         IF AS_USERS.MEXP=-1 THEN DO;
     2113    15093    5            FMT_VEC ( 0 ) = VECTOR ( NEVER_STR );
     2114    15094    5            CLASS = C_TEXT;
     2115    15095    5            END;
     2116    15096    5         ELSE DO;
     2117    15097    5            FMT_VEC ( 0 ) = VECTOR ( AS_USERS.MEXP );
     2118    15098    5            CLASS = C_SBIN;
     2119    15099    5            END;
     2120    15100
     2121    15101    4         SELECT(L_MDO);
     2122    15102        /* Max do mode=val,mode=val,mode=val,mode=val  services suboption */
PL6.E3A0      #002=ASL$LIST_OUT File=ASL$EXT.:E05TSI                             TUE 07/29/97 09:59 Page:106
     2123    15103
     2124    15104    4         FDS.NVECS# = 8;
     2125    15105    5         DO BOG_IDX = 0 TO 3;
     2126    15106    5            FMT_VEC ( BOG_IDX*2+1 ) = VECTOR ( AS_USERS.MDO(BOG_IDX));
     2127    15107    5            END; /*  Loop on number of modes  */
     2128    15108    4         CLASS = C_MODE_SBIN ;
     2129    15109
     2130    15110    4         SELECT(L_MLO);
     2131    15111        /* Max lo mode=val,mode=val,mode=val,mode=val  services suboption */
     2132    15112
     2133    15113    4         FDS.NVECS# = 8;
     2134    15114    5         DO BOG_IDX = 0 TO 3;
     2135    15115    5            FMT_VEC ( BOG_IDX*2+1 ) = VECTOR ( AS_USERS.MLO(BOG_IDX));
     2136    15116    5            END; /*  Loop on number of modes  */
     2137    15117    4         CLASS = C_MODE_SBIN ;
     2138    15118
     2139    15119    4         SELECT(L_MMEM);
     2140    15120        /*  Memory max mode=val,mode=val,mode=val,mode=val */
     2141    15121
     2142    15122    4         FDS.NVECS# = 8;
     2143    15123    5         DO BOG_IDX = 0 TO 3;
     2144    15124    5            FMT_VEC ( BOG_IDX*2+1 ) = VECTOR ( AS_USERS.MMEM(BOG_IDX) ) ;
     2145    15125    5            END; /*  Loop on number of modes  */
     2146    15126    4         CLASS = C_MODE_SBIN ;
     2147    15127
     2148    15128    4         SELECT(L_MPDP);
     2149    15129        /* Max pdis mode=val,mode=val,mode=val,mode=val  services suboption */
     2150    15130
     2151    15131    4         FDS.NVECS# = 8;
     2152    15132    5         DO BOG_IDX = 0 TO 3;
     2153    15133    5            FMT_VEC ( BOG_IDX*2+1 ) = VECTOR ( AS_USERS.MPDIS(BOG_IDX));
     2154    15134    5            END; /*  Loop on number of modes  */
     2155    15135    4         CLASS = C_MODE_SBIN ;
     2156    15136
     2157    15137    4         SELECT(L_MPO);
     2158    15138        /* Max po mode=val,mode=val,mode=val,mode=val  services suboption */
     2159    15139
PL6.E3A0      #002=ASL$LIST_OUT File=ASL$EXT.:E05TSI                             TUE 07/29/97 09:59 Page:107
     2160    15140    4         FDS.NVECS# = 8;
     2161    15141    5         DO BOG_IDX = 0 TO 3;
     2162    15142    5            FMT_VEC ( BOG_IDX*2+1 ) = VECTOR ( AS_USERS.MPO(BOG_IDX));
     2163    15143    5            END; /*  Loop on number of modes  */
     2164    15144    4         CLASS = C_MODE_SBIN ;
     2165    15145
     2166    15146    4         SELECT(L_MPOOL);
     2167    15147        /* Max fpools mode=val,mode=val,mode=val,mode=val  services suboption */
     2168    15148
     2169    15149    4         FDS.NVECS# = 8;
     2170    15150    5         DO BOG_IDX = 0 TO 3;
     2171    15151    5            FMT_VEC ( BOG_IDX*2+1 ) = VECTOR ( AS_USERS.MFPOOLS(BOG_IDX));
     2172    15152    5            END; /*  Loop on number of modes  */
     2173    15153    4         CLASS = C_MODE_SBIN ;
     2174    15154
     2175    15155    4         SELECT(L_MPRI);
     2176    15156        /* Max maxjobprio mode=val,mode=val,mode=val,mode=val  services suboption */
     2177    15157
     2178    15158    4         FDS.NVECS# = 8;
     2179    15159    5         DO BOG_IDX = 0 TO 3;
     2180    15160    5            FMT_VEC ( BOG_IDX*2+1 ) = VECTOR ( AS_USERS.MMPRIO(BOG_IDX));
     2181    15161    5            END; /*  Loop on number of modes  */
     2182    15162    4         CLASS = C_MODE_SBIN ;
     2183    15163
     2184    15164    4         SELECT(L_MTDP);
     2185    15165        /* Max tdis mode=val,mode=val,mode=val,mode=val  services suboption */
     2186    15166
     2187    15167    4         FDS.NVECS# = 8;
     2188    15168    5         DO BOG_IDX = 0 TO 3;
     2189    15169    5            FMT_VEC ( BOG_IDX*2+1 ) = VECTOR ( AS_USERS.MTDIS(BOG_IDX));
     2190    15170    5            END; /*  Loop on number of modes  */
     2191    15171    4         CLASS = C_MODE_SBIN ;
     2192    15172
     2193    15173    4         SELECT(L_MTIME);
     2194    15174        /*  Time max mode=val,mode=val,mode=val,mode=val */
     2195    15175
     2196    15176    4         FDS.NVECS# = 8;
PL6.E3A0      #002=ASL$LIST_OUT File=ASL$EXT.:E05TSI                             TUE 07/29/97 09:59 Page:108
     2197    15177    5         DO BOG_IDX = 0 TO 3;
     2198    15178    5            SBINS ( BOG_IDX ) = AS_USERS.MTIME(BOG_IDX)/6000;
     2199    15179    5            FMT_VEC ( BOG_IDX*2+1 ) = VECTOR ( SBINS ( BOG_IDX ) ) ;
     2200    15180    5            END; /*  Loop on number of modes  */
     2201    15181    4         CLASS = C_MODE_SBIN ;
     2202    15182
     2203    15183    4         SELECT(L_NATIVE); /*  Nativel = {letter | none}  */
     2204    15184
     2205    15185    4         IF AS_USERS.NAT_LANG = ' ' THEN
     2206    15186    4            FMT_VEC ( 0 ) = VECTOR ( NONE_STR );
     2207    15187    4         ELSE
     2208    15188    4            FMT_VEC ( 0 ) = VECTOR ( AS_USERS.NAT_LANG );
     2209    15189    4         CLASS = C_TEXT;
     2210    15190
     2211    15191    4         SELECT(L_OUTPUTPRIO); /* Outputprio = value  */
     2212    15192
     2213    15193    4         FMT_VEC ( 0 ) = VECTOR ( AS_USERS.OUTPUTPRIO );
     2214    15194    4         CLASS = C_SBIN;
     2215    15195
     2216    15196    4         SELECT(L_PASS);
             15196                  /*  Password = o'dddddddddddddddddddddddd'  24 octal digits  */
     2217    15197
     2218    15198    4         SUBSTR (FMT_BUF, FDS.FMT_.BOUND+1, 16) = ' = O''%12ZO%12ZO''';
     2219    15199    4         FDS.FMT_.BOUND = FDS.FMT_.BOUND + 16;
     2220    15200    4         FMT_VEC ( 0 ) = VECTOR ( SUBSTR ( KL_DREC.PASSWORD ,0,4 ) );
     2221    15201    4         FMT_VEC ( 1 ) = VECTOR ( SUBSTR ( KL_DREC.PASSWORD, 4,4 ) );
     2222    15202    4         FDS.NVECS# = 2;
     2223    15203    4         CLASS = C_ALL_DONE ;
     2224    15204
     2225    15205    4         SELECT(L_PCHARGE); /*  Pcharge = { yes | no }  budget suboption  */
     2226    15206
     2227    15207    4         SUBSTR (FMT_BUF, FDS.FMT_.BOUND+1, 9) = '%1.9.1.2P';
     2228    15208    4         FDS.FMT_.BOUND = FDS.FMT_.BOUND + 9;
     2229    15209    4         FMT_VEC ( 0 ) = VECTOR ( AS_USERS.BUDGET );
     2230    15210    4         CLASS = C_YESNO;
     2231    15211    4         POSITION = %YES#;
     2232    15212
PL6.E3A0      #002=ASL$LIST_OUT File=ASL$EXT.:E05TSI                             TUE 07/29/97 09:59 Page:109
     2233    15213    4         SELECT(L_PRIOB) ; /* Priob mode=value,mode=value,mode=value,mode=value */
     2234    15214
     2235    15215    4         FDS.NVECS# = 8;
     2236    15216    5         DO BOG_IDX = 0 TO 3;
     2237    15217    5            FMT_VEC ((BOG_IDX*2)+1) = VECTOR ( AS_USERS.PRIOB (BOG_IDX) ) ;
     2238    15218    5            END; /*  Loop on number of modes  */
     2239    15219    4         CLASS = C_MODE_SBIN ;
     2240    15220
     2241    15221    4         SELECT(L_MAXENQ) ; /* Maxenq mode=value,mode=value,mode=value,mode=value */
     2242    15222
     2243    15223    4         FDS.NVECS#=8;
     2244    15224    5         DO BOG_IDX = 0 TO 3;
     2245    15225    5            FMT_VEC ((BOG_IDX*2)+1) = VECTOR ( AS_USERS.MAXENQ (BOG_IDX) );
     2246    15226    5            END; /*  Loop on number of modes  */
     2247    15227    4         CLASS = C_MODE_SBIN ;
     2248    15228
     2249    15229    4         SELECT(L_PRO);  /*  Profile = { profilename | none }  */
     2250    15230
     2251    15231    4         IF KL_DREC.PNAME.CNT = 0 THEN
     2252    15232    4            FMT_VEC ( 0 ) = VECTOR ( NONE_STR );
     2253    15233    4         ELSE
     2254    15234    4            FMT_VEC ( 0 ) = VECTOR(ADDR(KL_DREC.PNAME)->TEXT$C.C);
     2255    15235    4         CLASS = C_TEXT;
     2256    15236
     2257    15237    4         SELECT(L_QUAN) ; /* Quan mode=value,mode=value,mode=value,mode=value */
     2258    15238
     2259    15239    4         FDS.NVECS# = 8;
     2260    15240    5         DO BOG_IDX = 0 TO 3;
     2261    15241    5            FMT_VEC ((BOG_IDX*2)+1) = VECTOR ( AS_USERS.QUAN(BOG_IDX) ) ;
     2262    15242    5            END; /*  Loop on number of modes  */
     2263    15243    4         CLASS = C_MODE_SBIN ;
     2264    15244
     2265    15245    4         SELECT(L_SETUP); /*  Setup mode='string',{alterable|unalterable} */
     2266    15246                           /*  There must be one of these for each host mode  */
     2267    15247    4         SUBSTR (FMT_BUF, FDS.FMT_.BOUND+1, 13) = '%A = ''%>A'',%A';
     2268    15248    4         FDS.FMT_.BOUND = FDS.FMT_.BOUND + 13;
     2269    15249    4         CLASS = 0;
PL6.E3A0      #002=ASL$LIST_OUT File=ASL$EXT.:E05TSI                             TUE 07/29/97 09:59 Page:110
     2270    15250    4         FDS.NVECS# = 3;
     2271    15251
     2272    15252    5         DO BOG_IDX = 0 TO 3;
     2273    15253    5            FMT_VEC ( 0 ) = VECTOR ( JCL_MODES ( BOG_IDX ) ) ;
     2274    15254    5            IF AS_USERS.SETUP(BOG_IDX) = -1 THEN
     2275    15255    5               FMT_VEC ( 1 ) = VECTOR(BL_STR) ;
     2276    15256    6            ELSE DO ;
     2277    15257    6               SIDX = AS_USERS.SETUP(BOG_IDX) ;
     2278    15258    6               FMT_VEC ( 1 ) = VECTOR(ADDR(AS_USERS.SETUP_CHRA.TXT_UBIN(SIDX))->TEXT$C.
             15258                        C);
     2279    15259    6               END ; /*  SETUP(BOG_IDX) ~ blank  */
     2280    15260
     2281    15261                      /* The setup perm field is the alterable command, when
     2282    15262                         the field is alterable, the bit is '0'b.
     2283    15263         */
     2284    15264    5            IF AS_USERS.SETUP_PERM(BOG_IDX) THEN
     2285    15265    5               FMT_VEC (2) = VECTOR (UNALTERABLE_STR);
     2286    15266    5            ELSE
     2287    15267    5               FMT_VEC (2) = VECTOR (ALTERABLE_STR);
     2288    15268    5            CALL OUTPUT_FMT;
     2289    15269    5            END; /* Loop on modes  */
     2290    15270    4         CLASS = - 1;
     2291    15271
     2292    15272    4         SELECT(L_STARS_ACCT); /*  *S_ACCOUNTING = {yes | no }  */
     2293    15273
     2294    15274    4         SUBSTR (FMT_BUF, FDS.FMT_.BOUND+1, 9) = '%1.0.0.5P';
     2295    15275    4         FDS.FMT_.BOUND = FDS.FMT_.BOUND + 9;
     2296    15276    4         FMT_VEC ( 0 ) = VECTOR (AS_USERS.FLAGS );
     2297    15277    4         CLASS = C_YESNO;
     2298    15278    4         POSITION = %YES#;
     2299    15279
     2300    15280    4         SELECT(L_STEPACCT); /*  Stepaccnt = { yes | no }  */
     2301    15281
     2302    15282    4         SUBSTR (FMT_BUF, FDS.FMT_.BOUND+1, 9) = '%1.5.1.0P';
     2303    15283    4         FDS.FMT_.BOUND = FDS.FMT_.BOUND + 9;
     2304    15284    4         FMT_VEC ( 0 ) = VECTOR ( AS_USERS );
     2305    15285    4         CLASS = C_YESNO;
PL6.E3A0      #002=ASL$LIST_OUT File=ASL$EXT.:E05TSI                             TUE 07/29/97 09:59 Page:111
     2306    15286    4         POSITION = %YES#;
     2307    15287
     2308    15288    4         SELECT(L_WSN); /*  Wsn = workstat  */
     2309    15289
     2310    15290    5         IF KL_DREC.WOO = ' ' THEN DO;
     2311    15291    5            FMT_BUF = '/*  WSN =  */' ;
     2312    15292    5            FDS.FMT_.BOUND = 12;
     2313    15293    5            CLASS = 0;
     2314    15294    5            END;
     2315    15295    5         ELSE DO;
     2316    15296    5            FMT_VEC ( 0 ) = VECTOR ( KL_DREC.WOO );
     2317    15297    5            CLASS = C_TEXT;
     2318    15298    5            END;
     2319    15299
     2320    15300        /*
     2321    15301           Project and packset options
     2322    15302        */
     2323    15303    4         SELECT(L_ACCTS_VAL); /* Accounts = decimal  */
     2324    15304
     2325    15305    4         FMT_VEC ( 0 ) = VECTOR ( AS_PROJECT_DFLT.BUDGET.PROJ_ALLOWED ) ;
     2326    15306    4         CLASS = C_SBIN;
     2327    15307
     2328    15308    4         SELECT(L_ACCT_ACCUM); /* Accounts accum = decimal  */
     2329    15309
     2330    15310    4         FMT_VEC ( 0 ) = VECTOR ( AS_PROJECT_DFLT.BUDGET.PROJ_CREATED ) ;
     2331    15311    4         CLASS = C_SBIN;
     2332    15312
     2333    15313    4         SELECT(L_MCHARGES_VAL); /* Mcharges = {none | value} */
     2334    15314
     2335    15315    5         IF AS_PROJECT.BUDGET.PMAXC = -1 THEN DO;
     2336    15316    5            FMT_VEC ( 0 ) = VECTOR ( NONE_STR );
     2337    15317    5            CLASS = C_TEXT;
     2338    15318    5            END;
     2339    15319    5         ELSE DO;
     2340    15320    5            SVAL = AS_PROJECT.BUDGET.PMAXC;
     2341    15321    5            CLASS = C_MONEY;
     2342    15322    5            END;
PL6.E3A0      #002=ASL$LIST_OUT File=ASL$EXT.:E05TSI                             TUE 07/29/97 09:59 Page:112
     2343    15323
     2344    15324    4         SELECT(L_CHG_ACCUM); /* Acharges = decimal */
     2345    15325
     2346    15326    4         SVAL = AS_PROJECT.BUDGET.PACCUM;
     2347    15327    4         CLASS = C_MONEY;
     2348    15328
     2349    15329    4         SELECT(L_PROJ_PROJ); /* Projects = decimal  */
     2350    15330
     2351    15331    4         FMT_VEC ( 0 ) = VECTOR ( AS_PROJECT.BUDGET.MAX_PROJECTS );
     2352    15332    4         CLASS = C_SBIN;
     2353    15333
     2354    15334    4         SELECT(L_PROJ_ACCUM); /* Projects accum = decimal  */
     2355    15335
     2356    15336    4         FMT_VEC ( 0 ) = VECTOR ( AS_PROJECT_DFLT.BUDGET.SUB_PROJS );
     2357    15337    4         CLASS = C_SBIN;
     2358    15338
     2359    15339    4         SELECT(L_PACK_ACCT); /*  Accounts = value  */
     2360    15340
     2361    15341    4         FMT_VEC ( 0 ) = VECTOR ( AS$PROJ.MAX_NUM_ACCTS );
     2362    15342    4         CLASS = C_SBIN;
     2363    15343
     2364    15344    4         SELECT(L_P_ACCT_ACCUM); /*  Accounts accum = value  */
     2365    15345                                   /*  Projects accum = value  */
     2366    15346
     2367    15347    4         FMT_VEC ( 0 ) = VECTOR ( AS$PROJ.NUM_ACCTS );
     2368    15348    4         CLASS = C_SBIN;
     2369    15349    4         CALL OUTPUT_FMT ;
     2370    15350    4         FMT_VEC ( 0 ) = VECTOR ( AS$PROJ.SUB_PROJ_ACCTS );
     2371    15351    4         CLASS = 0;
     2372    15352
     2373    15353    4         SELECT(L_PACK_GRAN); /*  Granules = value  */
     2374    15354
     2375    15355    4         FMT_VEC ( 0 ) = VECTOR ( AS$PROJ.MAX_NUM_GRANS ) ;
     2376    15356    4         CLASS = C_SBIN;
     2377    15357
     2378    15358    4         SELECT(L_P_GRAN_ACCUM); /* Granules accum = value  */
     2379    15359
PL6.E3A0      #002=ASL$LIST_OUT File=ASL$EXT.:E05TSI                             TUE 07/29/97 09:59 Page:113
     2380    15360    4         FMT_VEC ( 0 ) = VECTOR ( AS$PROJ.GRANS_ACCUM );
     2381    15361    4         CLASS = C_SBIN;
     2382    15362
     2383    15363    4         SELECT(L_PACK_SKEL); /*  Skeleton = text  */
     2384    15364
     2385    15365    4         FMT_VEC ( 0 ) = VECTOR( AS$PROJ.SKELETON );
     2386    15366    4         CLASS = C_TEXT;
     2387    15367
     2388    15368    4         SELECT (ELSE) ;
     2389    15369
     2390    15370    4      CLASS = -1;
     2391    15371
     2392    15372    4         END;                        /* End case ... finally               */
     2393    15373    3   IF CLASS > -1 THEN
     2394    15374    3      CALL OUTPUT_FMT;
     2395    15375
     2396    15376    3   NEXT_INDEX = NEXT_INDEX + 1;
     2397    15377    3   NEXT = JCL_OPT_TBL.ORDR (NEXT_INDEX);
     2398    15378    3      END;   /*  While next > 0  */
     2399    15379    2   RETURN;
     2400    15380
     2401    15381    2   END BUILD_JCL_FMT;
     2402    15382        %EJECT;
PL6.E3A0      #002=ASL$LIST_OUT File=ASL$EXT.:E05TSI                             TUE 07/29/97 09:59 Page:114
     2403    15383
     2404    15384    1   OUTPUT_FMT: PROC;
     2405    15385
     2406    15386    2   DCL BOG_IDX        SBIN;
     2407    15387    2   DCL I              SBIN;
     2408    15388
     2409    15389    3   DO SELECT(CLASS);
     2410    15390
     2411    15391    3      SELECT(C_TEXT);
     2412    15392    3      FDS.NVECS# = 1;
     2413    15393    3      CALL INSERT(FMT_BUF,FDS.FMT_.BOUND+1,SIZEC(TEXT_FMT),TEXT_FMT);
     2414    15394    3      FDS.FMT_.BOUND = FDS.FMT_.BOUND + SIZEC(TEXT_FMT);
     2415    15395
     2416    15396    3      SELECT(C_SBIN);
     2417    15397    3      FDS.NVECS# = 1;
     2418    15398    3      CALL INSERT(FMT_BUF,FDS.FMT_.BOUND+1,SIZEC(SBIN_FMT),SBIN_FMT);
     2419    15399    3      FDS.FMT_.BOUND = FDS.FMT_.BOUND + SIZEC(SBIN_FMT);
     2420    15400
     2421    15401    3      SELECT(C_YESNO);
     2422    15402    3      FDS.NVECS# = 1;
     2423    15403    3      CALL INSERT(FMT_BUF,FDS.FMT_.BOUND+1,SIZEC(YESNO_FMT),YESNO_FMT);
     2424    15404    3      FDS.FMT_.BOUND = FDS.FMT_.BOUND + SIZEC(YESNO_FMT);
     2425    15405
     2426    15406    3      SELECT (C_MONEY);
     2427    15407
     2428    15408    3      SVAL = SVAL/100;             /* in pennies              */
     2429    15409    3      SBINS ( 0 ) = SVAL/100;          /* Dollar amount           */
     2430    15410    3      SBINS ( 1 ) = SVAL - SBINS(0)*100;
     2431    15411    3      IF SBINS(1) < 0 THEN
     2432    15412    3         SBINS ( 1 ) = SBINS ( 1 )*-1;
     2433    15413    3      FMT_VEC ( 0 ) = VECTOR ( SBINS ( 0 ) );
     2434    15414    3      FMT_VEC ( 1 ) = VECTOR ( SBINS ( 1 ) );
     2435    15415    3      FDS.NVECS# = 2;
     2436    15416    3      CALL INSERT(FMT_BUF,FDS.FMT_.BOUND+1,SIZEC(MONEY_FMT),MONEY_FMT);
     2437    15417    3      FDS.FMT_.BOUND = FDS.FMT_.BOUND + SIZEC(MONEY_FMT);
     2438    15418
     2439    15419    3      SELECT(C_MODE_TEXT);
PL6.E3A0      #002=ASL$LIST_OUT File=ASL$EXT.:E05TSI                             TUE 07/29/97 09:59 Page:115
     2440    15420    3      CALL INSERT(FMT_BUF,FDS.FMT_.BOUND+1,SIZEC(MODE_TEXT_FMT),MODE_TEXT_FMT);
     2441    15421    3      FDS.FMT_.BOUND = FDS.FMT_.BOUND + SIZEC(MODE_TEXT_FMT);
     2442    15422    4      IF FDS.NVECS# = 10 THEN DO;
     2443    15423    4         CALL INDEX (I,'3',FMT_BUF);
     2444    15424    4         SUBSTR (FMT_BUF,I,1) = '4';
     2445    15425    4         END;   /*  For access modes  */
     2446    15426    4      DO BOG_IDX = 0 TO FDS.NVECS#/2;
     2447    15427    4         FMT_VEC ( BOG_IDX*2 ) = VECTOR ( JCL_MODES ( BOG_IDX ) );
     2448    15428    4         END; /*  Loop through host modes  */
     2449    15429
     2450    15430    3      SELECT(C_MODE_SBIN);
     2451    15431    3      CALL INSERT(FMT_BUF,FDS.FMT_.BOUND+1,SIZEC(MODE_SBIN_FMT),MODE_SBIN_FMT);
     2452    15432    3      FDS.FMT_.BOUND = FDS.FMT_.BOUND + SIZEC(MODE_SBIN_FMT);
     2453    15433    4      DO BOG_IDX = 0 TO FDS.NVECS#/2;
     2454    15434    4         FMT_VEC ( BOG_IDX*2 ) = VECTOR ( JCL_MODES ( BOG_IDX ) );
     2455    15435    4         END; /*  Loop through host modes  */
     2456    15436
     2457    15437    3      SELECT(C_FEMODE_TEXT);
     2458    15438    3      CALL INSERT(FMT_BUF,FDS.FMT_.BOUND+1,SIZEC(MODE_TEXT_FMT),MODE_TEXT_FMT);
     2459    15439    3      FDS.FMT_.BOUND = FDS.FMT_.BOUND + SIZEC(MODE_TEXT_FMT);
     2460    15440    4      DO BOG_IDX = 0 TO FDS.NVECS#/2;
     2461    15441    4         FMT_VEC ( BOG_IDX*2 ) = VECTOR ( JCL_FE_MODES ( BOG_IDX ) );
     2462    15442    4         END; /*  Loop through fe modes  */
     2463    15443
     2464    15444    3      SELECT(C_FEMODE_SBIN);
     2465    15445    3      CALL INSERT(FMT_BUF,FDS.FMT_.BOUND+1,SIZEC(MODE_SBIN_FMT),MODE_SBIN_FMT);
     2466    15446    3      FDS.FMT_.BOUND = FDS.FMT_.BOUND + SIZEC(MODE_SBIN_FMT);
     2467    15447    4      DO BOG_IDX = 0 TO FDS.NVECS#/2;
     2468    15448    4         FMT_VEC ( BOG_IDX*2 ) = VECTOR ( JCL_FE_MODES ( BOG_IDX ) );
     2469    15449    4         END; /*  Loop through fe modes  */
     2470    15450
     2471    15451    3      SELECT (C_ALL_DONE);
     2472    15452              /*  Do nothing  */
     2473    15453    3      END;  /*  Case ( class )  */
     2474    15454
     2475    15455    3   IF POSITION THEN DO;
     2476    15456    3      SUBSTR (FMT_BUF, FDS.FMT_.BOUND+1,3) = '%2P';
PL6.E3A0      #002=ASL$LIST_OUT File=ASL$EXT.:E05TSI                             TUE 07/29/97 09:59 Page:116
     2477    15457    3      FDS.FMT_.BOUND = FDS.FMT_.BOUND + 3;
     2478    15458    3      POSITION = %NO#;
     2479    15459    3      END;   /*  Position  */
     2480    15460    2   CALL X$FORMAT (FDS);
     2481    15461
     2482    15462    2   RETURN;
     2483    15463
     2484    15464    2   END OUTPUT_FMT;
     2485    15465        %EJECT;
PL6.E3A0      #002=ASL$LIST_OUT File=ASL$EXT.:E05TSI                             TUE 07/29/97 09:59 Page:117
     2486    15466    1   LIST_BUDGET_SUBS_JCL: PROC;
     2487    15467
     2488    15468    2   CALL ASB$WRITE_LO (BUDGET_STR,SIZEC(BUDGET_STR));
     2489    15469    2   CALL BUILD_JCL_FMT ( 51, %YES# );
     2490    15470    2   CALL ASB$WRITE_LO (END_STR,SIZEC(END_STR));
     2491    15471    2   RETURN;
     2492    15472    2   END LIST_BUDGET_SUBS_JCL;
     2493    15473        %EJECT;
PL6.E3A0      #002=ASL$LIST_OUT File=ASL$EXT.:E05TSI                             TUE 07/29/97 09:59 Page:118
     2494    15474    1   LIST_FEPRIV_JCL: PROC(PRIV_FLG);
     2495    15475    2   DCL PRIV_FLG BIT(1) ALIGNED;
     2496    15476    2   DCL BOG_IDX SBIN;
     2497    15477    2   DCL I SBIN;
     2498    15478    2   DCL MORE BIT(1) ALIGNED;
     2499    15479    2   DCL PRIV BIT(36);
     2500    15480    2   DCL END_IDX SBIN;
     2501    15481    2   DCL 1 PRIV_TBL(0:71) CONSTANT,
     2502    15482    2          2 LEN UBIN BYTE UNAL INIT
     2503    15483    2             ( 6, 6, 8, 7, 5,
     2504    15484    2               6, 6, 8, 8, 5,
     2505    15485    2               8, 5, 6, 9, 0,
     2506    15486    2               0*21,
     2507    15487    2               8, 8, 5, 5, 9,
     2508    15488    2               7, 8, 6, 6, 7,
     2509    15489    2               8, 9, 9, 7, 8,
     2510    15490    2               8, 8, 8, 9, 8,
     2511    15491    2               9, 0*15),
     2512    15492    2          2 HDR CHAR(8) UNAL INIT
     2513    15493    2             ('EXMM    ', 'EXPM    ', 'FMREAD  ', 'FMSEC   ', 'GPP     ',
     2514    15494    2              'MAXM    ', 'MSYS    ', 'SPCLMM  ', 'SYSLOG  ', 'TND     ',
     2515    15495    2              'INTCON  ', 'CQ      ', 'SNAP    ', 'SCREECH ', '        ',
     2516    15496    2              '        '*21,
     2517    15497    2              'CNTRLC  ', 'CNTRLD  ', 'EFT     ', 'EL      ', 'NETCON  ',
     2518    15498    2              'LABEL   ', 'PADMIN  ', 'PIGC    ', 'PIGD    ', 'RATES   ',
     2519    15499    2              'REPLAY  ', 'SPIDERC ', 'SPIDERD ', 'SUPER   ', 'SUPERA  ',
     2520    15500    2              'SUPERD  ', 'SUPERF  ', 'SUPERW  ', 'VOLINIT ', 'SYSCON  ',
     2521    15501    2              'PIGETTE ', ' '*15 ),
     2522    15502    2          2 MASK BIT(36) UNAL INIT
     2523    15503    2              (%PR_EXMM#,     %PR_EXPM#,     %PR_FMREAD#,   %PR_FMSEC#,    %PR_GPP#,
     2524    15504    2               %PR_MAXMEM#,   %PR_MSYS#,     %PR_SPCLMM#,   %PR_SYSLOG#,   %PR_TND#,
     2525    15505    2               %PR_INTCON#,   %PR_CQ#,       %PR_SNAP#,     %PR_SCREECH#,  '0'B,
     2526    15506    2               '0'B*21,
     2527    15507    2               %PPR_CNTRLC#,  %PPR_CNTRLD#,  %PPR_EFT#,     %PPR_EL#,      %PPR_NETCON#
             15507                        ,
     2528    15508    2               %PPR_LABEL#,   %PPR_PADMIN#,  %PPR_PIGC#,    %PPR_PIGD#,    %PPR_RATES#,
     2529    15509    2               %PPR_REPLAY#,  %PPR_SPIDERC#, %PPR_SPIDERD#, %PPR_SUPER#,   %
PL6.E3A0      #002=ASL$LIST_OUT File=ASL$EXT.:E05TSI                             TUE 07/29/97 09:59 Page:119
             15509                        PPR_SUPERAUTH#,
     2530    15510    2               %PPR_SUPERD#,  %PPR_SUPERFORM#,%PPR_SUPERWSN#,%PPR_VOLINIT#,%PPR_SYSCON#
             15510                        ,
     2531    15511    2               %PPR_PIGETTE#, '0'B*15 );
     2532    15512        %EJECT;
PL6.E3A0      #002=ASL$LIST_OUT File=ASL$EXT.:E05TSI                             TUE 07/29/97 09:59 Page:120
     2533    15513    2   IF PRIV_FLG
     2534    15514    3   THEN DO;
     2535    15515    3      CALL ASB$WRITE_LO( JCL_OPT_TBL.HDR(L_FEPRIV), LENGTHC(JCL_OPT_TBL.HDR(L_FEPRIV)))
             15515               ;
     2536    15516    3      NXT_IDX = 0;
     2537    15517    3      END_IDX = 36;
     2538    15518    3      END;
     2539    15519    3   ELSE DO;
     2540    15520    3      CALL ASB$WRITE_LO( JCL_OPT_TBL.HDR(L_FEPPRIV), LENGTHC(JCL_OPT_TBL.HDR(L_FEPPRIV)
             15520               ));
     2541    15521    3      NXT_IDX = 36;
     2542    15522    3      END_IDX = 72;
     2543    15523    3      END;
     2544    15524    2   ST_IDX = NXT_IDX;
     2545    15525    3   DO WHILE(ST_IDX < END_IDX);
     2546    15526    3      IF PRIV_TBL.HDR(ST_IDX) ~= ' '
     2547    15527    4           AND PRIV_TBL.HDR(ST_IDX) ~= 'PADMIN' THEN DO;
     2548    15528    4         CALL CONCAT ( FMT_BUF,'   ',PRIV_TBL.HDR(ST_IDX) );
     2549    15529    4         FDS.FMT_.BOUND = SIZEC(PRIV_TBL.HDR(ST_IDX)) + 2;
     2550    15530    4         IF PRIV_TBL.LEN(ST_IDX)>0
     2551    15531    5         THEN DO;
     2552    15532    6            DO BOG_IDX = 0 TO 3;
     2553    15533    6               IF PRIV_FLG
     2554    15534    6               THEN
     2555    15535    6                  PRIV = KL_DREC.KL_DREC_FEBLK.PRIV(BOG_IDX);
     2556    15536    6               ELSE
     2557    15537    6                  PRIV = KL_DREC.KL_DREC_FEBLK.PPRIV(BOG_IDX);
     2558    15538    6               IF PRIV & PRIV_TBL.MASK(ST_IDX)
     2559    15539    6               THEN
     2560    15540    6                  FMT_VEC(BOG_IDX*2+1) = VECTOR(YES_STR);
     2561    15541    6               ELSE
     2562    15542    6                  FMT_VEC(BOG_IDX*2+1) = VECTOR(NO_STR);
     2563    15543    6               END; /*  Loop through femodes  */
     2564    15544    5            END;  /*  TBL.LEN > 0  */
     2565    15545    4         FDS.NVECS# = 8;
     2566    15546    4         CLASS = C_FEMODE_TEXT;
     2567    15547    4         CALL OUTPUT_FMT;
PL6.E3A0      #002=ASL$LIST_OUT File=ASL$EXT.:E05TSI                             TUE 07/29/97 09:59 Page:121
     2568    15548    4         END; /*  Non blank hdr  */
     2569    15549    3      ST_IDX = ST_IDX + 1;
     2570    15550    3      END;  /*  While ST_IDX < END_IDX  */
     2571    15551    2   CALL ASB$WRITE_LO(END_STR,LENGTHC(END_STR));
     2572    15552    2   RETURN;
     2573    15553    2   END LIST_FEPRIV_JCL;
     2574    15554        %EJECT;
PL6.E3A0      #002=ASL$LIST_OUT File=ASL$EXT.:E05TSI                             TUE 07/29/97 09:59 Page:122
     2575    15555    1   LIST_FEPSEUDO_JCL: PROC;
     2576    15556    2   DCL LEN SBIN;
     2577    15557    2   DCL I SBIN;
     2578    15558    2   DCL BOG_IDX SBIN;
     2579    15559
     2580    15560    2   CALL ASB$WRITE_LO(JCL_OPT_TBL.HDR(L_FEPSEUDO),SIZEC(JCL_OPT_TBL.HDR(L_FEPSEUDO)));
     2581    15561    3   DO I=0 TO 7;
     2582    15562    3      IF KL_DREC.KL_DREC_FEBLK.PSDOL.PSDO_NAME(I)~=' '
     2583    15563    4      THEN DO;           /* This entry exists                  */
     2584    15564    4         CALL CONCAT ( FMT_BUF, '   ', KL_DREC.KL_DREC_FEBLK.PSDOL.PSDO_NAME(I));
     2585    15565    4         FDS.FMT_.BOUND = SIZEC(KL_DREC.KL_DREC_FEBLK.PSDOL.PSDO_NAME(I)) + 2;
     2586    15566    5         DO BOG_IDX = 0 TO 3;
     2587    15567
     2588    15568    6            DO SELECT (BOG_IDX);
     2589    15569
     2590    15570    6               SELECT(0);
     2591    15571    6               FMT_VEC(BOG_IDX*2+1) = VECTOR(KL_DREC.KL_DREC_FEBLK.PSDOL.UMAX(I));
     2592    15572    6               SELECT(1);
     2593    15573    6               FMT_VEC(BOG_IDX*2+1) = VECTOR(KL_DREC.KL_DREC_FEBLK.PSDOL.CMAX(I));
     2594    15574    6               SELECT(2);
     2595    15575    6               FMT_VEC(BOG_IDX*2+1) = VECTOR(KL_DREC.KL_DREC_FEBLK.PSDOL.HMAX(I));
     2596    15576    6               SELECT(3);
     2597    15577    6               FMT_VEC(BOG_IDX*2+1) = VECTOR(KL_DREC.KL_DREC_FEBLK.PSDOL.GMAX(I));
     2598    15578
     2599    15579    6               END;   /*  Case ( BOG_IDX )  */
     2600    15580    5            END;     /*  Loop through the fe modes  */
     2601    15581    4         CLASS = C_FEMODE_SBIN;
     2602    15582    4         FDS.NVECS# = 8;
     2603    15583    4         CALL OUTPUT_FMT;
     2604    15584    4         END;    /*  If fe pseudo exists  */
     2605    15585    3      END;  /*  Loop through all pseudo name storage  */
     2606    15586    2   CALL ASB$WRITE_LO(END_STR,LENGTHC(END_STR));
     2607    15587    2   RETURN;
     2608    15588    2   END LIST_FEPSEUDO_JCL;
     2609    15589        %EJECT;
PL6.E3A0      #002=ASL$LIST_OUT File=ASL$EXT.:E05TSI                             TUE 07/29/97 09:59 Page:123
     2610    15590    1   LIST_FERESOURCE_JCL: PROC;
     2611    15591    2   DCL LEN SBIN;
     2612    15592    2   DCL I SBIN;
     2613    15593    2   DCL BOG_IDX SBIN;
     2614    15594
     2615    15595    2   CALL ASB$WRITE_LO(JCL_OPT_TBL.HDR(L_FERES),SIZEC(JCL_OPT_TBL.HDR(L_FERES)));
     2616    15596    3   DO I=0 TO KL_DREC.KL_DREC_FEBLK.RESL_CNT-1 ;
     2617    15597    3      IF KL_DREC.KL_DREC_FEBLK.RESL.RNAME(I)~=' '
     2618    15598    4      THEN DO;           /* This entry exists                  */
     2619    15599    4         CALL CONCAT ( FMT_BUF, '   ', KL_DREC.KL_DREC_FEBLK.RESL.RNAME(I));
     2620    15600    4         FDS.FMT_.BOUND = SIZEC(KL_DREC.KL_DREC_FEBLK.RESL.RNAME(I)) + 2;
     2621    15601    5         DO BOG_IDX = 0 TO 3;
     2622    15602
     2623    15603    6            DO SELECT (BOG_IDX);
     2624    15604
     2625    15605    6               SELECT(0);
     2626    15606    6               FMT_VEC(BOG_IDX*2+1) = VECTOR(KL_DREC.KL_DREC_FEBLK.RESL.UMAX(I));
     2627    15607    6               SELECT(1);
     2628    15608    6               FMT_VEC(BOG_IDX*2+1) = VECTOR(KL_DREC.KL_DREC_FEBLK.RESL.CMAX(I));
     2629    15609    6               SELECT(2);
     2630    15610    6               FMT_VEC(BOG_IDX*2+1) = VECTOR(KL_DREC.KL_DREC_FEBLK.RESL.HMAX(I));
     2631    15611    6               SELECT(3);
     2632    15612    6               FMT_VEC(BOG_IDX*2+1) = VECTOR(KL_DREC.KL_DREC_FEBLK.RESL.GMAX(I));
     2633    15613
     2634    15614    6               END;   /*  Case ( BOG_IDX )  */
     2635    15615    5            END;     /*  Loop through the fe modes  */
     2636    15616    4         CLASS = C_FEMODE_SBIN;
     2637    15617    4         FDS.NVECS# = 8;
     2638    15618    4         CALL OUTPUT_FMT;
     2639    15619    4         END;    /*  If fe resource exists  */
     2640    15620    3      END;  /*  Loop through all resource name storage  */
     2641    15621    2   CALL ASB$WRITE_LO(END_STR,LENGTHC(END_STR));
     2642    15622    2   RETURN;
     2643    15623    2   END LIST_FERESOURCE_JCL;
     2644    15624        %EJECT;
PL6.E3A0      #002=ASL$LIST_OUT File=ASL$EXT.:E05TSI                             TUE 07/29/97 09:59 Page:124
     2645    15625    1   LIST_KEY_JCL: PROC;
     2646    15626
     2647    15627    2   DCL KEYS BIT(72) STATIC;
     2648    15628    2   DCL KEY_A(0:71) REDEF KEYS BIT(1) UNAL;
     2649    15629    2   DCL TAB UBIN STATIC INIT( 4 );
     2650    15630    2   DCL LEN UBIN STATIC;
     2651    15631    2   DCL I UBIN STATIC;
     2652    15632    2   DCL 1 ALL_KEYS CONSTANT,
     2653    15633    2          2 * BIT(36) INIT('777777777777'O),
     2654    15634    2          2 * BIT(36) INIT('777777777777'O);
     2655    15635
     2656    15636
     2657    15637    2   FMT_BUF = JCL_OPT_TBL.HDR(L_KEY);
     2658    15638    2   FDS.FMT_.BOUND = 3;
     2659    15639    2   KEYS = AS_USERS.KEY;
     2660    15640    3   IF KEYS = %NO# THEN DO;
     2661    15641    3      SUBSTR (FMT_BUF, 3, 7) = ' = NONE';
     2662    15642    3      FDS.FMT_.BOUND = 9;
     2663    15643    3      FDS.NVECS# = 0;
     2664    15644    3      END;  /*  No keys  */
     2665    15645    2   ELSE
     2666    15646    3      IF KEYS = ALL_KEYS THEN DO;
     2667    15647    3         SUBSTR (FMT_BUF, 3, 6) = ' = ALL';
     2668    15648    3         FDS.FMT_.BOUND = 8;
     2669    15649    3         FDS.NVECS# = 0;
     2670    15650    3         END;  /*  All keys  */
     2671    15651    3      ELSE DO;
     2672    15652    3         SUBSTR (FMT_BUF, 3, SIZEC(KEY_FMT)) = KEY_FMT;
     2673    15653    3         FDS.FMT_.BOUND = FDS.FMT_.BOUND + SIZEC(KEY_FMT);
     2674    15654    3         SBIN_IDX = 0;
     2675    15655    3         FDS.NVECS# = 0;
     2676    15656    4         DO I = 1 TO 72;
     2677    15657    5            IF KEY_A(I-1) THEN DO;
     2678    15658    5               SBINS (SBIN_IDX) = I;
     2679    15659    5               FMT_VEC (FDS.NVECS#) = VECTOR ( SBINS (SBIN_IDX));
     2680    15660    5               FMT_VEC (FDS.NVECS#+1) = VECTOR ( YES_STR );
     2681    15661    5               FDS.NVECS# = FDS.NVECS# + 2;
PL6.E3A0      #002=ASL$LIST_OUT File=ASL$EXT.:E05TSI                             TUE 07/29/97 09:59 Page:125
     2682    15662    5               END;  /*  Key is set  */
     2683    15663    4            END;    /*  Check all keys  */
     2684    15664    3         END;   /*  Some but not all keys set  */
     2685    15665
     2686    15666    2   CALL X$FORMAT (FDS);
     2687    15667
     2688    15668    2   RETURN;
     2689    15669
     2690    15670    2   END LIST_KEY_JCL;
     2691    15671        %EJECT;
PL6.E3A0      #002=ASL$LIST_OUT File=ASL$EXT.:E05TSI                             TUE 07/29/97 09:59 Page:126
     2692    15672    1   LIST_PRIV_JCL: PROC(PRIV_FLG);
     2693    15673    2   DCL PRIV_FLG BIT(1) ALIGNED;
     2694    15674    2   DCL BOG_IDX SBIN;
     2695    15675    2   DCL I SBIN;
     2696    15676    2   DCL MORE BIT(1) ALIGNED;
     2697    15677    2   DCL PRIV BIT(36);
     2698    15678    2   DCL END_IDX SBIN;
     2699    15679    2   DCL 1 PRIV_TBL(0:71) CONSTANT,
     2700    15680    2          2 LEN UBIN BYTE UNAL INIT
     2701    15681    2             ( 7, 9, 6, 6, 6,
     2702    15682    2               8, 8, 7, 5, 5,
     2703    15683    2               6, 5, 6, 6, 6,
     2704    15684    2               5, 8, 8, 8, 5,
     2705    15685    2               0*16,
     2706    15686    2               8, 8, 5, 5, 9,
     2707    15687    2               7, 8, 6, 6, 7,
     2708    15688    2               8, 9, 9, 7, 8,
     2709    15689    2               8, 8, 8, 9, 8,
     2710    15690    2               9, 0*15),
     2711    15691    2          2 HDR CHAR(8) UNAL INIT
     2712    15692    2             ('ASAVE   ', 'DISPJOB ', 'CFEP    ', 'EXMM    ', 'EXPM    ',
     2713    15693    2              'FMDIAG  ', 'FMREAD  ', 'FMSEC   ', 'GPP     ', 'IOQ     ',
     2714    15694    2              'IOQW    ', 'JIT     ', 'MAXM    ', 'MFEP    ', 'MSYS    ',
     2715    15695    2              'PM      ', 'SPCLMM  ', 'SYSCON  ', 'SYSLOG  ', 'TND     ',
     2716    15696    2               ' '*16,
     2717    15697    2              'CNTRLC  ', 'CNTRLD  ', 'EFT     ', 'EL      ', 'NETCON  ',
     2718    15698    2              'LABEL   ', 'PADMIN  ', 'PIGC    ', 'PIGD    ', 'RATES   ',
     2719    15699    2              'REPLAY  ', 'SPIDERC ', 'SPIDERD ', 'SUPER   ', 'SUPERA  ',
     2720    15700    2              'SUPERD  ', 'SUPERF  ', 'SUPERW  ', 'VOLINIT ', 'SYSCON  ',
     2721    15701    2              'PIGETTE ', ' '*15 ),
     2722    15702    2          2 MASK BIT(36) UNAL INIT
     2723    15703    2             (%PR_ASAVE#,    %PR_DISPJOB#,  %PR_CFEP#,     %PR_EXMM#,     %PR_EXPM#,
     2724    15704    2              %PR_FMDIAG#,   %PR_FMREAD#,   %PR_FMSEC#,    %PR_GPP#,      %PR_IOQ#,
     2725    15705    2              %PR_IOQW#,     %PR_JIT#,      %PR_MAXMEM#,   %PR_MFEP#,     %PR_MSYS#,
     2726    15706    2              %PR_PM#,       %PR_SPCLMM#,   %PR_SYSCON#,   %PR_SYSLOG#,   %PR_TND#,
     2727    15707    2              '0'B*16,
     2728    15708    2              %PPR_CNTRLC#,  %PPR_CNTRLD#,  %PPR_EFT#,     %PPR_EL#,      %PPR_NETCON#,
PL6.E3A0      #002=ASL$LIST_OUT File=ASL$EXT.:E05TSI                             TUE 07/29/97 09:59 Page:127
     2729    15709    2              %PPR_LABEL#,   %PPR_PADMIN#,  %PPR_PIGC#,    %PPR_PIGD#,    %PPR_RATES#,
     2730    15710    2              %PPR_REPLAY#,  %PPR_SPIDERC#, %PPR_SPIDERD#, %PPR_SUPER#,   %
             15710                       PPR_SUPERAUTH#,
     2731    15711    2              %PPR_SUPERD#,  %PPR_SUPERFORM#,%PPR_SUPERWSN#,%PPR_VOLINIT#,%PPR_SYSCON#,
     2732    15712    2              %PPR_PIGETTE#, '0'B*15 );
     2733    15713        %EJECT;
PL6.E3A0      #002=ASL$LIST_OUT File=ASL$EXT.:E05TSI                             TUE 07/29/97 09:59 Page:128
     2734    15714    2   IF PRIV_FLG
     2735    15715    3   THEN DO;
     2736    15716    3      CALL ASB$WRITE_LO( JCL_OPT_TBL.HDR(L_PRIV), LENGTHC(OPT_TBL.HDR(L_PRIV)));
     2737    15717    3      NXT_IDX = 0;
     2738    15718    3      END_IDX = 36;
     2739    15719    3      END;
     2740    15720    3   ELSE DO;
     2741    15721    3      CALL ASB$WRITE_LO( JCL_OPT_TBL.HDR(L_PPRIV), LENGTHC(JCL_OPT_TBL.HDR(L_PPRIV)));
     2742    15722    3      NXT_IDX = 36;
     2743    15723    3      END_IDX = 72;
     2744    15724    3      END;
     2745    15725    2   ST_IDX = NXT_IDX;
     2746    15726    3   DO WHILE(ST_IDX < END_IDX);
     2747    15727    3      IF PRIV_TBL.HDR (ST_IDX) ~= ' '
     2748    15728    4           AND PRIV_TBL.HDR (ST_IDX) ~= 'PADMIN' THEN DO;
     2749    15729    4         CALL CONCAT ( FMT_BUF,'   ',PRIV_TBL.HDR(ST_IDX) );
     2750    15730    4         FDS.FMT_.BOUND = SIZEC(PRIV_TBL.HDR(ST_IDX)) + 2;
     2751    15731    4         IF PRIV_TBL.LEN(ST_IDX)>0
     2752    15732    5         THEN DO;
     2753    15733    6            DO BOG_IDX = 0 TO 3;
     2754    15734    6               IF PRIV_FLG
     2755    15735    6               THEN
     2756    15736    6                  PRIV = AS_USERS.PRIV(BOG_IDX);
     2757    15737    6               ELSE
     2758    15738    6                  PRIV = AS_USERS.PPRIV(BOG_IDX);
     2759    15739    6               IF PRIV & PRIV_TBL.MASK(ST_IDX)
     2760    15740    6               THEN
     2761    15741    6                  FMT_VEC(BOG_IDX*2+1) = VECTOR(YES_STR);
     2762    15742    6               ELSE
     2763    15743    6                  FMT_VEC(BOG_IDX*2+1) = VECTOR(NO_STR);
     2764    15744    6               END; /*  Loop through femodes  */
     2765    15745    5            END;  /*  TBL.LEN > 0  */
     2766    15746    4         FDS.NVECS# = 8;
     2767    15747    4         CLASS = C_MODE_TEXT;
     2768    15748    4         CALL OUTPUT_FMT;
     2769    15749    4         END; /*  Non blank hdr  */
     2770    15750    3      ST_IDX = ST_IDX + 1;
PL6.E3A0      #002=ASL$LIST_OUT File=ASL$EXT.:E05TSI                             TUE 07/29/97 09:59 Page:129
     2771    15751    3      END;  /*  While ST_IDX < END_IDX  */
     2772    15752    2   CALL ASB$WRITE_LO(END_STR,LENGTHC(END_STR));
     2773    15753    2   RETURN;
     2774    15754    2   END LIST_PRIV_JCL;
     2775    15755        %EJECT;
PL6.E3A0      #002=ASL$LIST_OUT File=ASL$EXT.:E05TSI                             TUE 07/29/97 09:59 Page:130
     2776    15756    1   LIST_PSEUDO_JCL: PROC;
     2777    15757    2   DCL LEN SBIN;
     2778    15758    2   DCL I SBIN;
     2779    15759    2   DCL BOG_IDX SBIN;
     2780    15760
     2781    15761    2   CALL ASB$WRITE_LO(JCL_OPT_TBL.HDR(L_PSEUDO),SIZEC(JCL_OPT_TBL.HDR(L_PSEUDO)));
     2782    15762    3   DO I=0 TO 7;
     2783    15763    3      IF AS_USERS.PSDOL.PSDO_NAME(I)~=' '
     2784    15764    4      THEN DO;           /* This entry exists                  */
     2785    15765    4         CALL CONCAT ( FMT_BUF, '   ', AS_USERS.PSDOL.PSDO_NAME(I));
     2786    15766    4         FDS.FMT_.BOUND = SIZEC(AS_USERS.PSDOL.PSDO_NAME(I)) + 2;
     2787    15767    5         DO BOG_IDX = 0 TO 3;
     2788    15768
     2789    15769    6            DO SELECT (BOG_IDX);
     2790    15770
     2791    15771    6               SELECT(0);
     2792    15772    6               FMT_VEC(BOG_IDX*2+1) = VECTOR(AS_USERS.PSDOL.BMAX(I));
     2793    15773    6               SELECT(1);
     2794    15774    6               FMT_VEC(BOG_IDX*2+1) = VECTOR(AS_USERS.PSDOL.GMAX(I));
     2795    15775    6               SELECT(2);
     2796    15776    6               FMT_VEC(BOG_IDX*2+1) = VECTOR(AS_USERS.PSDOL.OMAX(I));
     2797    15777    6               SELECT(3);
     2798    15778    6               FMT_VEC(BOG_IDX*2+1) = VECTOR(AS_USERS.PSDOL.TMAX(I));
     2799    15779
     2800    15780    6               END;   /*  Case ( BOG_IDX )  */
     2801    15781    5            END;     /*  Loop through the  modes  */
     2802    15782    4         CLASS = C_MODE_SBIN;
     2803    15783    4         FDS.NVECS# = 8;
     2804    15784    4         CALL OUTPUT_FMT;
     2805    15785    4         END;    /*  If  pseudo exists  */
     2806    15786    3      END;  /*  Loop through all pseudo name storage  */
     2807    15787    2   CALL ASB$WRITE_LO(END_STR,LENGTHC(END_STR));
     2808    15788    2   RETURN;
     2809    15789    2   END LIST_PSEUDO_JCL;
     2810    15790        %EJECT;
PL6.E3A0      #002=ASL$LIST_OUT File=ASL$EXT.:E05TSI                             TUE 07/29/97 09:59 Page:131
     2811    15791    1   LIST_RESOURCE_JCL: PROC;
     2812    15792    2   DCL LEN SBIN;
     2813    15793    2   DCL I SBIN;
     2814    15794    2   DCL BOG_IDX SBIN;
     2815    15795
     2816    15796    2   CALL ASB$WRITE_LO(JCL_OPT_TBL.HDR(L_RES),SIZEC(JCL_OPT_TBL.HDR(L_RES)));
     2817    15797    3   DO I=0 TO 7;
     2818    15798    3      IF AS_USERS.RESL.RNAME(I)~=' '
     2819    15799    4      THEN DO;           /* This entry exists                  */
     2820    15800    4         CALL CONCAT ( FMT_BUF, '   ', AS_USERS.RESL.RNAME(I));
     2821    15801    4         FDS.FMT_.BOUND = SIZEC(AS_USERS.RESL.RNAME(I)) + 2;
     2822    15802    5         DO BOG_IDX = 0 TO 3;
     2823    15803
     2824    15804    6            DO SELECT (BOG_IDX);
     2825    15805    6               SELECT(0);
     2826    15806    6               FMT_VEC(BOG_IDX*2+1) = VECTOR(AS_USERS.RESL.BMAX(I));
     2827    15807    6               SELECT(1);
     2828    15808    6               FMT_VEC(BOG_IDX*2+1) = VECTOR(AS_USERS.RESL.GMAX(I));
     2829    15809    6               SELECT(2);
     2830    15810    6               FMT_VEC(BOG_IDX*2+1) = VECTOR(AS_USERS.RESL.OMAX(I));
     2831    15811    6               SELECT(3);
     2832    15812    6               FMT_VEC(BOG_IDX*2+1) = VECTOR(AS_USERS.RESL.TMAX(I));
     2833    15813
     2834    15814    6               END;   /*  Case ( BOG_IDX )  */
     2835    15815    5            END;     /*  Loop through the  modes  */
     2836    15816    4         CLASS = C_MODE_SBIN;
     2837    15817    4         FDS.NVECS# = 8;
     2838    15818    4         CALL OUTPUT_FMT;
     2839    15819    4         END;    /*  If  resource exists  */
     2840    15820    3      END;  /*  Loop through all resource name storage  */
     2841    15821    2   CALL ASB$WRITE_LO(END_STR,LENGTHC(END_STR));
     2842    15822    2   RETURN;
     2843    15823    2   END LIST_RESOURCE_JCL;
     2844    15824        %EJECT;
PL6.E3A0      #002=ASL$LIST_OUT File=ASL$EXT.:E05TSI                             TUE 07/29/97 09:59 Page:132
     2845    15825    1   LIST_SERVICES_JCL: PROC;
     2846    15826
     2847    15827    2   CALL ASB$WRITE_LO (SERVICES_STR,SIZEC(SERVICES_STR));
     2848    15828    2   CALL BUILD_JCL_FMT ( 61, %YES# );
     2849    15829    2   CALL ASB$WRITE_LO (END_STR,SIZEC(END_STR));
     2850    15830    2   RETURN;
     2851    15831    2   END LIST_SERVICES_JCL;
     2852    15832    1   END ASL$LIST_OUT;

PL6.E3A0      #002=ASL$LIST_OUT File=ASL$EXT.:E05TSI                             TUE 07/29/97 09:59 Page:133
--  Include file information  --

   AS_SUPER_R.:E05TOU  cannot be made into a system file and is referenced.
   XU_FORMAT_C.:E05TOU  is referenced.
   XU_MACRO_C.:E05TOU  is referenced.
   KL_SUPER_C.:E05TOU  is referenced.
   CP_6.:E05TOU  cannot be made into a system file and is referenced.
   AS_MAC_C.:E05TOU  cannot be made into a system file and is referenced.
   AS_SUBS_C.:E05TOU  is referenced.
   AS_SUPER_C.:E05TOU  is referenced.
   AS_ENTRIES_M.:E05TOU  is referenced.
   CP_6_SUBS.:E05TOU  is referenced.
   B$JIT_C.:E05TOU  was found in the system file and is referenced.
   CP_6_C.:E05TOU  was found in the system file and is referenced.
      No diagnostics issued in procedure ASL$LIST_OUT.

   Procedure ASL$LIST_OUT requires 6179 words for executable code.
   Procedure ASL$LIST_OUT requires 152 words of local(AUTO) storage.

    No errors detected in file ASL$EXT.:E05TSI    .

PL6.E3A0      #002=ASL$LIST_OUT File=ASL$EXT.:E05TSI                             TUE 07/29/97 09:59 Page:134

 Object Unit name= ASL$LIST_OUT                               File name= ASL$EXT.:E05TOU
 UTS= JUL 29 '97 09:59:05.20 TUE                              Compiler= PL-6/E31         Sev=      00
 SharedLib= :SHARED_SYSTEM                                    Alt SharedLib=


    ****  Control sections  ****

 Sect   Type Bound  Init  Size OctSiz  Section name(segment info)
    0   DCB   even  none     0      0  M$UC
    1   DCB   even  none     0      0  M$LO
    2  RoData even  UTS   2718   5236  ASL$LIST_OUT
    3   Data  even  none    60     74  ASL$LIST_OUT
    4   Proc  even  none  6179  14043  ASL$LIST_OUT
    5  RoData even  none   231    347  ASL$LIST_OUT

    ****  Entry defs  ****

                              Check   Calling
                             calling  sequence
  Sect OctLoc Primary Altret sequence   type   Parms  Name
     4      0   yes            yes      Std        1  ASL$LIST_OUT
     4    253                  yes      Std        1  ASL$LIST_OUTPUT
     4    566                  yes      Std        1  ASL$LIST_PROJ_OUT
     4    644                  yes      Std        1  ASL$LIST_PACK_OUT
PL6.E3A0      #002=ASL$LIST_OUT File=ASL$EXT.:E05TSI                             TUE 07/29/97 09:59 Page:135

  ****  Entry refs  ****

         Check        Calling
        calling       sequence
Altret sequence SRef   type   Args  Name
         yes          ~proc      0 XU_OUTPUT_OPTIONS
         yes           Std       2 ASB$WRITE_LO
         yes           Std       1 X$FORMAT
         yes           Std       4 ASB$BINCHAR
 yes     yes           Std       1 ASB$PIG
                       nStd      0 X66_AUTO_1
                       Std       0 B_CONSPOOL_D
                       nStd      0 X66_ARET

  ****  Data refs  ****

  Flags:  r = read only, s = secondary
Flgs Name                             Flgs Name                             Flgs Name
     M$UC                                  B$JIT$                           r    AS_BLANK
r    AS_FALSE                         r    AS_NONE                          r    AS_MODE
r    AS_FE_MODE                            M$LO                                  USERS_KEY
     LO_WIDTH                              FDS                                   FMT_BUF
     FMT_VEC                               BLANK_PASS                            OUT_BUF
     LIST_ACCT_FLG                         ERR_CODE                              AS_FIELD1
     REMEM_VAR                             REM_FCMD                              ASA_BRKS_LOC
     DSEG1$                                DSEG2$                                AS_PROJECT_ADMIN
     AS_LOGON_KEY                          AS_USERS                              AS_PROJECT
     AS_PROJECT_DFLT                       KL_DREC                               B_VECTNIL

  ****  Segment refs  ****

  Flags:  r = read only, s = secondary
Flgs Name                             Flgs Name                             Flgs Name
     ISSID                                 NULLSID
PL6.E3A0      #002=ASL$LIST_OUT File=ASL$EXT.:E05TSI                             TUE 07/29/97 09:59 Page:136


      187        1        /*T***********************************************************/
      188        2        /*T*                                                         */
      189        3        /*T* Copyright (c) Bull HN Information Systems Inc., 1997    */
      190        4        /*T*                                                         */
      191        5        /*T***********************************************************/
      192        6        ASL$LIST_OUT: PROC(DO_FLAG);

      6  4 000000   000000 700200 xent  ASL$LIST_OUT TSX0  ! X66_AUTO_1
         4 000001   000230 000001                    ZERO    152,1

      193        7        /********************************************************************/
      194        8        /*   Parameters      parameters      parameters      parameters     */
      195        9        /********************************************************************/
      196       10    1   DCL DO_FLAG(0:143) BIT(1);
      197       11    1   DCL 1 FLAGS REDEF DO_FLAG,
      198       12    1          2 MODE(0:4) BIT(1) UNAL,
      199       13    1          2 OPTS1(0:98) BIT(1) UNAL,
      200       14    1          2 FE_MODE(0:3) BIT(1) UNAL ,
      201       15    1          2 OPTS2(0:35) BIT(1) UNAL;
      202       16        /********************************************************************/
      203       17        /*   Include files   include files   include files   include files  */
      204       18        /********************************************************************/
      205       19        %INCLUDE CP_6_SUBS;
      206      559        %INCLUDE AS_ENTRIES_M;
      207     1609        %INCLUDE AS_SUPER_C;
      208     2044        %INCLUDE AS_SUBS_C;
      209     3458        %INCLUDE AS_MAC_C;
      210     3538        %INCLUDE CP_6;
      211     3619        %INCLUDE KL_SUPER_C;
      212     6521        %INCLUDE XU_MACRO_C;
      213     9627        %INCLUDE XU_FORMAT_C;
      214     9789        %INCLUDE AS_SUPER_R;
      215    12805 S      %INCLUDE B$JIT_C ;
      216    12806              %B$JIT0 ;
      217    12895              %U$JIT1 ;
      218    12969              %M$JIT2 ;
PL6.E3A0      #002=ASL$LIST_OUT File=ASL$EXT.:E05TSI                             TUE 07/29/97 09:59 Page:137
      219    12979              %F$JIT3 ;
      220    12984              %S$JIT4 ;
      221    12990              %J$JIT5 ;
      222    13078              %A$JIT6 ;
      223    13088        /********************************************************************/
      224    13089        /*   Entry dcls      entry dcls      entry dcls      entry dcls     */
      225    13090        /********************************************************************/
      226    13091        %ASB$WRITE_LO ;
      227    13094        %ASB$PIG ;
      228    13097    1   DCL X$FORMAT ENTRY(1);
      229    13098        /********************************************************************/
      230    13099        /*   Local based     local based     local based     local based    */
      231    13100        /********************************************************************/
      232    13101        %AS$PROJ( STCLASS="BASED(DSEG2$)" );
      233    13135    1   DCL 1 TEXT$C BASED,
      234    13136    1          2 L UBIN BYTE UNAL,
      235    13137    1          2 C CHAR(TEXT$C.L) UNAL;
      236    13138        /********************************************************************/
      237    13139        /*   Dcbs            dcbs            dcbs            dcbs           */
      238    13140        /********************************************************************/
      239    13141        /********************************************************************/
      240    13142        /*   Constant data   constant data   constant data   constant data  */
      241    13143        /********************************************************************/
      242    13144    1   DCL 1 OPT_TBL(0:147) CONSTANT,
      243    13145    1          2 LEN UBIN BYTE UNAL INIT
      244    13146    1           (0*7,
      245    13147    1           %(LENGTHC('HSET')+4),%(LENGTHC('NATIVEL')+2),
      246    13148    1           %(LENGTHC('PASSWORD')+2),%(LENGTHC('PROFILE')+5),
      247    13149    1           %(LENGTHC('STEPACCNT')+2),%(LENGTHC('WSN')+9),
      248    13150    1           %(LENGTHC('EXPIRE MAX')+2),%(LENGTHC('EXPIRE DEF')+2),
      249    13151    1           %(LENGTHC('MCHARGES')+4),%(LENGTHC('ACHARGES')+4),
      250    13152    1           %(LENGTHC('PROJECT ADMIN')+9),%(LENGTHC('BKACCESS')+2),
      251    13153    1           %(LENGTHC('BUDLIM')+2),%(LENGTHC('ICHARGE')+2),
      252    13154    1           %(LENGTHC('PCHARGE')+2),%(LENGTHC('BILLING')+2),
      253    13155    1           %(LENGTHC('CPROC')+18),%(LENGTHC('LAST CPROC')+13),
      254    13156    1           %(LENGTHC('*S_ACCOUNTING')+2),%(LENGTHC('ACCESS')+2),
      255    13157    1           %(LENGTHC('SETUP')+135),%(LENGTHC('MEM MAX')+2),
PL6.E3A0      #002=ASL$LIST_OUT File=ASL$EXT.:E05TSI                             TUE 07/29/97 09:59 Page:138
      256    13158    1           %(LENGTHC('MEM DEF')+2),%(LENGTHC('TIME MAX')+2),
      257    13159    1           %(LENGTHC('TIME DEF')+2),%(LENGTHC('MAX LO')+2),
      258    13160    1           %(LENGTHC('DEF LO')+2),%(LENGTHC('MAX PO')+2),
      259    13161    1           %(LENGTHC('DEF PO')+2),%(LENGTHC('MAX DO')+2),
      260    13162    1           %(LENGTHC('DEF DO')+2),%(LENGTHC('MAX TDIS')+2),
      261    13163    1           %(LENGTHC('DEF TDIS')+2),%(LENGTHC('MAX PDIS')+2),
      262    13164    1           %(LENGTHC('DEF PDIS')+2),%(LENGTHC('MAX FPOOLS')+2),
      263    13165    1           %(LENGTHC('DEF FPOOLS')+2),%(LENGTHC('MAX PRIO')+2),
      264    13166    1           %(LENGTHC('DEF PRIO')+2),%(LENGTHC('OUTPUTPRIO')+2),
      265    13167    1           %(LENGTHC('BLINDACCOUNTING')+2), %(LENGTHC('BATNUM')+2),
      266    13168    1           %(LENGTHC('ALTERABLE SETUP')+125),%(LENGTHC('  QUAN')+4),
      267    13169    1           80*9, /* Make the size of the banner fields 80 char long. */
      268    13170    1           %(LENGTHC('ALTERABLE BANNER1')+2),%(LENGTHC('ALTERABLE BANNER2')+2),
      269    13171    1           %(LENGTHC('ALTERABLE BANNER3')+2),%(LENGTHC('ALTERABLE BANNER4')+2),
      270    13172    1           %(LENGTHC('ALTERABLE BANNER5')+2),%(LENGTHC('ALTERABLE BANNER6')+2),
      271    13173    1           %(LENGTHC('ALTERABLE BANNER7')+2),%(LENGTHC('ALTERABLE BANNER8')+2),
      272    13174    1           %(LENGTHC('ALTERABLE BANNER9')+2),
      273    13175    1           %(LENGTHC('ACCOUNT OWNER')+67),%(LENGTHC('LASTLOGON TIME')+9),
      274    13176    1           %(LENGTHC('PREVIOUS LOGON TIME')+21),%(LENGTHC('BAD LOGON COUNT')+25),
      275    13177    1           0*2, %(LENGTHC('FORCE SETUP')+69),
      276    13178    1           %(LENGTHC('PRIOB')+2),
      277    13179    1           0*4,
      278    13180    1           %(LENGTHC('        FACCOUNT')+2), %(LENGTHC('   KEY')+2),
      279    13181    1           %(LENGTHC('FE MINTS')+2), %(LENGTHC('FE MFPRG')+2),
      280    13182    1           %(LENGTHC('FE BILLING')+2), %(LENGTHC('FE MAX TIME')+2),
      281    13183    1           %(LENGTHC('FE MAX MEM')+2), %(LENGTHC('FE MAX ACCT MEM')+2),
      282    13184    1           %(LENGTHC('FE DBACCN')+2),%(LENGTHC('FE STEPACCOUNTING')+2),
      283    13185    1           0*21,
      284    13186    1           %(LENGTHC('ACCOUNTS MAX')+2), %(LENGTHC('ACCOUNTS ACCUM')+2),
      285    13187    1           %(LENGTHC('CHARGES MAX')+2),%(LENGTHC('CHARGES ACCUM')+2),
      286    13188    1           %(LENGTHC('PROJECTS MAX')+2),%(LENGTHC('PROJECTS ACCUM')+2),
      287    13189    1           0*3,
      288    13190    1           %(LENGTHC('ACCOUNTS MAX')+2),%(LENGTHC('ACCOUNTS ACCUM')+2),
      289    13191    1           %(LENGTHC('GRANULES MAX')+2),%(LENGTHC('GRANULES ACCUM')+2),
      290    13192    1           %(LENGTHC('SKELETON')+2),%(LENGTHC('ATTRIBUTES')+2),
      291    13193    1           %(LENGTHC('MAXENQ')+2),
      292    13194    1           0*20 ),
PL6.E3A0      #002=ASL$LIST_OUT File=ASL$EXT.:E05TSI                             TUE 07/29/97 09:59 Page:139
      293    13195    1          2 HDR CHAR(20) UNAL INIT
      294    13196    1           (' '*7,
      295    13197    1           'HSET', 'NATIVEL',
      296    13198    1           'PASSWORD', 'PROFILE',
      297    13199    1           'STEPACCNT', 'WSN',
      298    13200    1           'EXPIRE MAX', 'EXPIRE DEF',
      299    13201    1           'MCHARGES', 'ACHARGES',
      300    13202    1           'PROJECT ADMIN', 'BKACCESS',
      301    13203    1           'BUDLIM', 'ICHARGE',
      302    13204    1           'PCHARGE', 'BILLING',
      303    13205    1           'CPROC', 'LAST CPROC',
      304    13206    1           '*S_ACCOUNTING', 'ACCESS',
      305    13207    1           'SETUP', 'MEM MAX',
      306    13208    1           'MEM DEF', 'TIME MAX',
      307    13209    1           'TIME DEF','MAX LO',
      308    13210    1           'DEF LO','MAX PO',
      309    13211    1           'DEF PO','MAX DO',
      310    13212    1           'DEF DO','MAX TDIS',
      311    13213    1           'DEF TDIS','MAX PDIS',
      312    13214    1           'DEF PDIS','MAX FPOOLS',
      313    13215    1           'DEF FPOOLS','MAX PRIO',
      314    13216    1           'DEF PRIO','OUTPUTPRIO',
      315    13217    1           'BLINDACCOUNTING','BATNUM',
      316    13218    1           'ALTERABLE SETUP', 'QUAN',
      317    13219    1           'BANNER1','BANNER2',
      318    13220    1           'BANNER3','BANNER4',
      319    13221    1           'BANNER5','BANNER6',
      320    13222    1           'BANNER7','BANNER8',
      321    13223    1           'BANNER9',
      322    13224    1           'BANNER1 ALTERABLE','BANNER2 ALTERABLE',
      323    13225    1           'BANNER3 ALTERABLE','BANNER4 ALTERABLE',
      324    13226    1           'BANNER5 ALTERABLE','BANNER6 ALTERABLE',
      325    13227    1           'BANNER7 ALTERABLE','BANNER8 ALTERABLE',
      326    13228    1           'BANNER9 ALTERABLE',
      327    13229    1           'ACCOUNT_OWNER','LASTLOGON TIME',
      328    13230    1           'PREVIOUS LOGON', 'BAD LOGON COUNT',
      329    13231    1           ' '*2,
PL6.E3A0      #002=ASL$LIST_OUT File=ASL$EXT.:E05TSI                             TUE 07/29/97 09:59 Page:140
      330    13232    1           'FORCE SETUP','PRIOB',
      331    13233    1           '       PRIVILEGES', 'PPRIVILEGES',
      332    13234    1           '     RESOURCES','PSEUDO',
      333    13235    1           '      FACCOUNT', '   KEY',
      334    13236    1           'FE-MINTS', 'FE-MFPRG',
      335    13237    1           'FE-BILLING',
      336    13238    1           'FE-MAX-TIME', 'FE-MAX-MEM',
      337    13239    1           'FE-MAX-ACCT-MEM', 'FE-DBACCN',
      338    13240    1           'FE-STEPACCOUNTING', '     FE-PRIVILEGES',
      339    13241    1           'FE-PPRIVILEGES', '      FE-RESOURCES',
      340    13242    1           'FE-PSEUDO', 'FE-CXT-MEM',
      341    13243    1           ' '*16,
      342    13244    1           'ACCOUNTS MAX','ACCOUNTS ACCUM',
      343    13245    1           'CHARGES MAX','CHARGES ACCUM',
      344    13246    1           'PROJECTS MAX','PROJECTS ACCUM',
      345    13247    1           ' '*3,
      346    13248    1           'ACCOUNTS MAX','ACCOUNTS ACCUM',
      347    13249    1           'GRANULES MAX','GRANULES ACCUM',
      348    13250    1           'SKELETON', 'ATTRIBUTES',
      349    13251    1           'MAXENQ',
      350    13252    1           ' '*20 ),
      351    13253    1          2 BOGU UBIN(2) UNAL INIT
      352    13254    1           ( 0, 0, 0, 0, 0, 0,
      353    13255    1           0, 0, 0, 0, 0,
      354    13256    1           0, 0, 0, 0, 0,
      355    13257    1           0, 0, 0, 0, 0,
      356    13258    1           0, 1, 1, 1, 0,
      357    13259    1           3, 1, 1, 1,
      358    13260    1           1, 1, 1, 1,
      359    13261    1           1, 1, 1, 1, 1,
      360    13262    1           1, 1, 1, 1, 1,
      361    13263    1           1, 1, 0, 1, 1,
      362    13264    1           1, 1, 0*19, 0, 1*3,
      363    13265    1           1, 1, 1, 1, 1, 1,
      364    13266    1           0, 0, 1, 1, 1,
      365    13267    1           1, 1, 1, 0, 0, 0,
      366    13268    1           1, 1, 1, 1, 0,
PL6.E3A0      #002=ASL$LIST_OUT File=ASL$EXT.:E05TSI                             TUE 07/29/97 09:59 Page:141
      367    13269    1           0*31, 1, 0*0),
      368    13270    1          2 ORDR UBIN BYTE UNAL INIT
      369    13271    1           (0, 0, 0, 0, 0, 0,
      370    13272    1           0, L_ACCUM, L_MAXC, L_BKACC, L_BUDLIM,
      371    13273    1           L_ICHARGE, L_PCHARGE, L_BLINDACCTNG, L_MACCT, L_HSET,
      372    13274    1           L_NATIVE, L_PASS, L_PRO, L_WSN, L_OUTPUTPRIO,
      373    13275    1           L_STEPACCT, L_STARS_ACCT, L_MEXP, L_DEXP, L_BATNUM,
      374    13276    1           L_ACCOUNT_OWNER, L_LAST_LOGON_TIME,
      375    13277    1           L_SLAST_LOGON_TIME, L_BAD_LOGON_CNT,
      376    13278    1           L_ALTERABLE_BANNER1,L_ALTERABLE_BANNER2,L_ALTERABLE_BANNER3,
      377    13279    1           L_ALTERABLE_BANNER4,L_ALTERABLE_BANNER5,L_ALTERABLE_BANNER6,
      378    13280    1           L_ALTERABLE_BANNER7,L_ALTERABLE_BANNER8,L_ALTERABLE_BANNER9,
      379    13281    1           L_BANNER1,L_BANNER2,L_BANNER3,L_BANNER4,L_BANNER5,L_BANNER6,
      380    13282    1           L_BANNER7,L_BANNER8,L_BANNER9,
      381    13283    1           L_PERM_SETUP, L_FORCE_SETUP, L_SETUP, L_BILLING, L_MMEM,
      382    13284    1           L_DMEM,
      383    13285    1           L_MTIME, L_DTIME, L_QUAN, L_PRIOB, L_MAXENQ, L_CPROC,
      384    13286    1           L_LASTCPROC, L_MLO, L_DLO, L_MPO, L_DPO,
      385    13287    1           L_MDO, L_DDO, L_MTDP, L_DTDP, L_MPDP,
      386    13288    1           L_DPDP, L_MPOOL, L_DPOOL, L_MPRI, L_DPRI,
      387    13289    1           L_ACCESS, L_PRIV, L_PPRIV, L_RES, L_PSEUDO,
      388    13290    1           L_FACCT, L_KEY, 0, L_FEMFPRG, L_FEACCTMEM, L_FEDBACCN, L_FESTEPACCNT,
      389    13291    1           L_FEMINTS, L_FETIME, L_FEMEMORY, L_FEBILL, L_FEPRIV,
      390    13292    1           L_FEPPRIV, L_FERES, L_FEPSEUDO, L_FECXTMEM,
      391    13293    1           0*16,
      392    13294    1           L_ACCTS_VAL, L_ACCT_ACCUM, L_MCHARGES_VAL, L_CHG_ACCUM, L_PROJ_PROJ,
      393    13295    1           L_PROJ_ACCUM, 0*3, L_PACK_ACCT,
      394    13296    1           L_P_ACCT_ACCUM, L_PACK_GRAN, L_P_GRAN_ACCUM, L_PACK_SKEL, L_PACK_ATTR,
      395    13297    1           0*21 );
      396    13298    1   DCL 1 JCL_OPT_TBL   (0:144) CONSTANT,
      397    13299    1          2 HDR CHAR(20) UNAL INIT
      398    13300    1           (' '*5,
      399    13301    1            ' ',' ', 'HSET', 'NATIVEL', 'PASSWORD',
      400    13302    1            'PROFILE','STEPACCNT','WSN','EXPIRE MAX','EXPIRE DEF',
      401    13303    1            'MCHARGES','ACHARGES','PROJECT ADMIN','BKACCESS','BUDLIM',
      402    13304    1            'ICHARGE','PCHARGE','BILLING','CPROC','LAST CPROC',
      403    13305    1            '*S_ACCOUNTING','ACCESS','SETUP','MEMORY MAX','MEMORY DEFAULT',
PL6.E3A0      #002=ASL$LIST_OUT File=ASL$EXT.:E05TSI                             TUE 07/29/97 09:59 Page:142
      404    13306    1            'TIME MAX','TIME DEFAULT','MAX LO','DEFAULT LO','MAX PO',
      405    13307    1            'DEFAULT PO','MAX DO','DEFAULT DO','MAX TDIS','DEFAULT TDIS',
      406    13308    1            'MAX PDIS','DEFAULT PDIS','MAX FPOOLS','DEFAULT FPOOLS','MAX MAXJOBPRIO',
      407    13309    1            'DEFAULT MAXJOBPRIO','OUTPUTPRIO','BLINDACCOUNTING','BATNUM',' ',
      408    13310    1            'QUAN','BANNERTEXT1','BANNERTEXT2','BANNERTEXT3','BANNERTEXT4',
      409    13311    1            'BANNERTEXT5','BANNERTEXT6','BANNERTEXT7','BANNERTEXT8','BANNERTEXT9',
      410    13312    1            ' '*9,
      411    13313    1            'ACCOUNT_OWNER', 'LASTLOGON TIME', 'PREVIOUS LOGON','BAD LOGON COUNT',' ',
             13313                     ' ',
      412    13314    1            'FORCE_SETUP','PRIOB','PRIVILEGE','PPRIVILEGE',
      413    13315    1            'RESOURCES','PSEUDO','FACCOUNT','KEY','FEMINTS',
      414    13316    1            'FEMFPRG','FEBILLING','FEMTIME','FEMMEMORY','FEMACCTMEM',
      415    13317    1            'FEDBACCN','FESTEPACCNT','FEPRIVILEGE','FEPPRIVILEGE','FERESOURCES',
      416    13318    1            'FEPSEUDO', 'FECXTMEM',
      417    13319    1            ' '*16,
      418    13320    1            'ACCOUNTS',' ','MCHARGES','ACHARGES', 'PROJECTS',
      419    13321    1            ' '*4, 'ACCOUNTS',
      420    13322    1            ' ','GRANULES',' ', 'SKELETON', 'ATTRIBUTES',
      421    13323    1            'MAXENQ',' '*17 ),
      422    13324    1          2 ORDR UBIN BYTE UNAL INIT
      423    13325    1   /*  0*/  (L_ACCESS, L_ACCOUNT_OWNER,
      424    13326    1             L_BANNER1,L_BANNER2,L_BANNER3,L_BANNER4,L_BANNER5,
      425    13327    1             L_BANNER6,L_BANNER7,L_BANNER8,L_BANNER9,
      426    13328    1             L_BATNUM, L_BILLING,
      427    13329    1             L_CPROC, L_MEXP, L_DEXP,
      428    13330    1             L_FEBILL, L_FECXTMEM, L_FEDBACCN, L_FEACCTMEM,
      429    13331    1             L_FEMFPRG, L_FEMINTS, L_FEMEMORY, L_FETIME, L_FESTEPACCNT,
      430    13332    1             L_FORCE_SETUP, L_HSET, L_LASTCPROC, L_LAST_LOGON_TIME,
      431    13333    1             L_MMEM, L_DMEM, L_NATIVE, L_OUTPUTPRIO, L_PASS,
      432    13334    1             L_PRIOB, L_MAXENQ, L_PRO, L_QUAN, L_STARS_ACCT, L_SETUP,
      433    13335    1             L_STEPACCT, L_MTIME, L_DTIME, L_WSN,
      434    13336    1             0*7,
      435    13337    1   /* 50*/   L_ACCUM, L_BKACC, L_BLINDACCTNG, L_BUDLIM, L_ICHARGE,
      436    13338    1             L_MAXC, L_PCHARGE,
      437    13339    1             0*3,
      438    13340    1   /* 60*/   L_MPOOL, L_DPOOL, L_MPRI, L_DPRI,
      439    13341    1             L_MDO, L_DDO, L_MLO, L_DLO, L_MPO, L_DPO,
PL6.E3A0      #002=ASL$LIST_OUT File=ASL$EXT.:E05TSI                             TUE 07/29/97 09:59 Page:143
      440    13342    1             L_MTDP, L_DTDP, L_MPDP, L_DPDP,
      441    13343    1             0*6,
      442    13344    1   /* 80*/   L_ACCTS_VAL, L_CHG_ACCUM, L_MCHARGES_VAL, L_PROJ_PROJ,
      443    13345    1             0*6,
      444    13346    1   /* 90*/   L_PACK_ACCT, L_PACK_GRAN, L_PACK_SKEL,
      445    13347    1             0*51);
      446    13348    1   DCL BANNER_FMT CHAR(0) CONSTANT INIT (' = ''%>A'',%A');
      447    13349    1   DCL KEY_FMT CHAR(0) CONSTANT INIT
      448    13350    1        (' %D=%>A%N(,%D=%>A%)');
      449    13351    1   DCL MODE_SBIN_FMT CHAR(0) CONSTANT INIT (' %A = %+D%3(, %A = %+D%)');
      450    13352    1   DCL MODE_TEXT_FMT CHAR(0) CONSTANT INIT (' %A = %>A%3(, %A = %>A%)');
      451    13353    1   DCL MONEY_FMT CHAR(0) CONSTANT INIT (' = %D.%2ZD');
      452    13354    1   DCL SBIN_FMT CHAR(0) CONSTANT INIT (' = %+D');
      453    13355    1   DCL TEXT_FMT CHAR(0) CONSTANT INIT (' = %>A');
      454    13356    1   DCL YESNO_FMT CHAR(0) CONSTANT INIT (' = %1.1N[YES%0?NO%]');
      455    13357    1   DCL BOG_BUF(0:5) CHAR(4) UNAL CONSTANT INIT
      456    13358    1        (' B: ',' G: ',' O: ',' T: ',' F: ',' ' );
      457    13359    1   DCL BOG_FE_BUF(0:4) CHAR(4) UNAL CONSTANT INIT
      458    13360    1        (' U: ',' C: ',' H: ',' G: ',' ' );
      459    13361    1   DCL NEVER_STR CHAR(0) CONSTANT INIT('NEVER');
      460    13362    1   DCL YES_STR CHAR(0) CONSTANT INIT('YES');
      461    13363    1   DCL NO_STR CHAR(0) CONSTANT INIT('NO');
      462    13364    1   DCL NONE_STR CHAR(0) CONSTANT INIT('NONE');
      463    13365    1   DCL NO_PROFILE_STR CHAR(0) CONSTANT INIT('No profile');
      464    13366    1   DCL BL_STR CHAR(0) CONSTANT INIT(' ');
      465    13367    1   DCL JCL_MODES  (0:5)  CHAR(2) UNAL CONSTANT INIT
      466    13368    1          (' B', ' G', ' O', ' T', 'FE', ' ');
      467    13369    1   DCL JCL_FE_MODES (0:4) CHAR(2) UNAL CONSTANT INIT
      468    13370    1          (' U', ' C', ' H', ' G', ' ');
      469    13371    1   DCL BUDGET_STR CHAR(0) CONSTANT INIT ('BUDGET');
      470    13372    1   DCL SERVICES_STR CHAR(0) CONSTANT INIT ('SERVICES');
      471    13373    1   DCL UNALTERABLE_STR  CHAR(0) CONSTANT INIT ('UNALTERABLE');
      472    13374    1   DCL ALTERABLE_STR  CHAR(0) CONSTANT INIT ('ALTERABLE');
      473    13375    1   DCL END_STR  CHAR(0) CONSTANT INIT ('END');
      474    13376        /********************************************************************/
      475    13377        /*   Static data     static data     static data     static data    */
      476    13378        /********************************************************************/
PL6.E3A0      #002=ASL$LIST_OUT File=ASL$EXT.:E05TSI                             TUE 07/29/97 09:59 Page:144
      477    13379    1   DCL ACCT_ARRY     (0:3)      CHAR(24) ALIGNED STATIC ;
      478    13380    1   DCL FRST_CHR                 CHAR(1) ALIGNED STATIC INIT(' ') ;
      479    13381        %FPT_TIME ( FPTN      = GET_LOGON,
      480    13382                    STCLASS   = STATIC,
      481    13383                    DATE      = LOGON_DATE,
      482    13384                    DAY       = LOGON_DAY,
      483    13385                    TIME      = LOGON_TIME,
      484    13386                    DEST      = LOCAL,
      485    13387                    SOURCE    = UTS);
      486    13406    1   DCL LAST_LOGON_BUF           CHAR (22) STATIC INIT (' ');
      487    13407    1   DCL LOGON_DATE               CHAR (8) STATIC;
      488    13408    1   DCL LOGON_DAY                CHAR (3) STATIC;
      489    13409    1   DCL LOGON_TIME               CHAR (11) STATIC;
      490    13410        /********************************************************************/
      491    13411        /*   Auto data       auto data       auto data       auto data      */
      492    13412        /********************************************************************/
      493    13413    1   DCL BOGU                     UBIN(2) ALIGNED;
      494    13414    1   DCL BOG  (0:35)  REDEF BOGU  BIT(1) ;
      495    13415    1   DCL CLASS                    SBIN;
      496    13416    1   DCL FIELDS                   SBIN;
      497    13417    1   DCL HDR_LEN                  SBIN;
      498    13418    1   DCL I                        SBIN;
      499    13419    1   DCL INDX                     SBIN;
      500    13420    1   DCL J                        SBIN;
      501    13421    1   DCL LEN                      SBIN;
      502    13422    1   DCL NEW_CHR                  CHAR(1) ALIGNED ;
      503    13423    1   DCL NEXT_TAB                 SBIN;
      504    13424    1   DCL NXT_IDX                  SBIN;
      505    13425    1   DCL POSITION                 BIT (1) ;
      506    13426    1   DCL SBINS     (0:99)         SBIN;
      507    13427    1   DCL SBIN_IDX                 SBIN;
      508    13428    1   DCL SVAL                     SBIN;
      509    13429    1   DCL ST_IDX                   SBIN;
      510    13430    1   DCL TEMP_BUF                 CHAR(24) ALIGNED ;
      511    13431    1   DCL TMP_LEN                  UBIN WORD ;
      512    13432        %EJECT;
PL6.E3A0      #002=ASL$LIST_OUT File=ASL$EXT.:E05TSI                             TUE 07/29/97 09:59 Page:145
      513    13433        /********************************************************************/
      514    13434        /*   Procedure       procedure       procedure       procedure      */
      515    13435        /********************************************************************/
      516    13436    2   IF USERS_KEY.COUNT > 20 THEN DO;

  13436  4 000002   000000 236000 xsym               LDQ     USERS_KEY
         4 000003   777000 376003                    ANQ     -512,DU
         4 000004   025000 116003                    CMPQ    10752,DU
         4 000005   000016 602000 4                  TNC     s:13441

      517    13437    2      CALL INDEX( TMP_LEN, AS_BLANK, USERS_KEY.UKEY.UNAME );

  13437  4 000006   000000 124400                    SCM     mask='000'O
         4 000007   000002 200014 xsym               ADSC9   USERS_KEY+2              cn=1,n=12
         4 000010   000000 000001 xsym               ADSC9   AS_BLANK                 cn=0,n=1
         4 000011   200175 000100                    ARG     TMP_LEN,,AUTO

      518    13438    2      TMP_LEN = TMP_LEN + 8;

  13438  4 000012   200175 235100                    LDA     TMP_LEN,,AUTO
         4 000013   000010 035007                    ADLA    8,DL
         4 000014   200175 755100                    STA     TMP_LEN,,AUTO

      519    13439    2      END;

  13439  4 000015   000021 710000 4                  TRA     s:13442

      520    13440    1   ELSE
      521    13441    1      TMP_LEN = USERS_KEY.COUNT;

  13441  4 000016   000000 236000 xsym               LDQ     USERS_KEY
         4 000017   000033 772000                    QRL     27
         4 000020   200175 756100                    STQ     TMP_LEN,,AUTO

      522    13442    2   IF TMP_LEN < 9 THEN DO;

  13442  4 000021   200175 235100                    LDA     TMP_LEN,,AUTO
PL6.E3A0      #002=ASL$LIST_OUT File=ASL$EXT.:E05TSI                             TUE 07/29/97 09:59 Page:146
         4 000022   000011 115007                    CMPA    9,DL
         4 000023   000033 603000 4                  TRC     s:13447

      523    13443    2      OUT_BUF = SUBSTR( USERS_KEY.TXTC, 0, TMP_LEN );

  13443  4 000024   000000 620005                    EAX0    0,AL
         4 000025   040000 100440                    MLR     fill='040'O
         4 000026   000000 200010 xsym               ADSC9   USERS_KEY                cn=1,n=*X0
         4 000027   000000 000214 xsym               ADSC9   OUT_BUF                  cn=0,n=140

      524    13444    2      LEN = TMP_LEN;

  13444  4 000030   200175 235100                    LDA     TMP_LEN,,AUTO
         4 000031   200013 755100                    STA     LEN,,AUTO

      525    13445    2      END;

  13445  4 000032   000066 710000 4                  TRA     s:13451

      526    13446    2   ELSE DO;

      527    13447    2      CALL INDEX( LEN, AS_BLANK, USERS_KEY.UKEY.ACCT );

  13447  4 000033   000000 124400                    SCM     mask='000'O
         4 000034   000000 200010 xsym               ADSC9   USERS_KEY                cn=1,n=8
         4 000035   000000 000001 xsym               ADSC9   AS_BLANK                 cn=0,n=1
         4 000036   200013 000100                    ARG     LEN,,AUTO

      528    13448    2     CALL CONCAT( OUT_BUF, SUBSTR(USERS_KEY.TXTC,0,LEN), ',', SUBSTR(USERS_KEY.TXTC,8,
             13448               TMP_LEN-8) );

  13448  4 000037   200013 720100                    LXL0    LEN,,AUTO
         4 000040   040000 100440                    MLR     fill='040'O
         4 000041   000000 200010 xsym               ADSC9   USERS_KEY                cn=1,n=*X0
         4 000042   000000 000214 xsym               ADSC9   OUT_BUF                  cn=0,n=140
         4 000043   200013 236100                    LDQ     LEN,,AUTO
         4 000044   000214 116007                    CMPQ    140,DL
PL6.E3A0      #002=ASL$LIST_OUT File=ASL$EXT.:E05TSI                             TUE 07/29/97 09:59 Page:147
         4 000045   000063 605000 4                  TPL     s:13449
         4 000046   777563 621006                    EAX1    -141,QL
         4 000047   777777 661003                    ERX1    -1,DU
         4 000050   040046 100400                    MLR     fill='040'O
         4 000051   000000 000001 5                  ADSC9   0                        cn=0,n=1
         4 000052   000000 000011 xsym               ADSC9   OUT_BUF,Q                cn=0,n=*X1
         4 000053   000213 116007                    CMPQ    139,DL
         4 000054   000063 605000 4                  TPL     s:13449
         4 000055   777770 622005                    EAX2    -8,AL
         4 000056   777564 623006                    EAX3    -140,QL
         4 000057   777777 663003                    ERX3    -1,DU
         4 000060   040046 100440                    MLR     fill='040'O
         4 000061   000002 200012 xsym               ADSC9   USERS_KEY+2              cn=1,n=*X2
         4 000062   000000 200013 xsym               ADSC9   OUT_BUF,Q                cn=1,n=*X3

      529    13449    2      LEN = LEN + TMP_LEN - 7;

  13449  4 000063   200175 036100                    ADLQ    TMP_LEN,,AUTO
         4 000064   000007 136007                    SBLQ    7,DL
         4 000065   200013 756100                    STQ     LEN,,AUTO

      530    13450    2      END;

      531    13451    1   IF FLAGS.OPTS1 ~= '0'B  OR  FLAGS.OPTS2 ~= '0'B

  13451  4 000066   200003 470500                    LDP0    @DO_FLAG,,AUTO
         4 000067   000000 066500                    CMPB    filb='0'B
         4 000070   000000 050143                    BDSC    0,,PR0                   by=0,bit=5,n=99
         4 000071   000002 000022 xsym               BDSC    B_VECTNIL+2              by=0,bit=0,n=18
         4 000072   000077 601000 4                  TNZ     s:13453
         4 000073   000000 066500                    CMPB    filb='0'B
         4 000074   000003 000044                    BDSC    3,,PR0                   by=0,bit=0,n=36
         4 000075   000002 000022 xsym               BDSC    B_VECTNIL+2              by=0,bit=0,n=18
         4 000076   000137 600000 4                  TZE     s:13461

      532    13452    1   THEN                           /* List with options.                 */
      533    13453    2      IF DO_FLAG (L_JCL) THEN DO;
PL6.E3A0      #002=ASL$LIST_OUT File=ASL$EXT.:E05TSI                             TUE 07/29/97 09:59 Page:148

  13453  4 000077   000000 066500                    CMPB    filb='0'B
         4 000100   000003 670001                    BDSC    3,,PR0                   by=3,bit=7,n=1
         4 000101   000002 000022 xsym               BDSC    B_VECTNIL+2              by=0,bit=0,n=18
         4 000102   000126 600000 4                  TZE     s:13458

      534    13454    2         CALL CONCAT (FMT_BUF, 'CREATE ', SUBSTR (OUT_BUF,0,LEN));

  13454  4 000103   040000 100400                    MLR     fill='040'O
         4 000104   005132 000007 2                  ADSC9   PRIV_TBL+234             cn=0,n=7
         4 000105   000000 000007 xsym               ADSC9   FMT_BUF                  cn=0,n=7
         4 000106   200013 720100                    LXL0    LEN,,AUTO
         4 000107   040000 100440                    MLR     fill='040'O
         4 000110   000000 000010 xsym               ADSC9   OUT_BUF                  cn=0,n=*X0
         4 000111   000001 600370 xsym               ADSC9   FMT_BUF+1                cn=3,n=248

      535    13455    2         CALL ASB$WRITE_LO (FMT_BUF, LEN + 7);

  13455  4 000112   200013 235100                    LDA     LEN,,AUTO
         4 000113   000007 035007                    ADLA    7,DL
         4 000114   200224 755100                    STA     I+2,,AUTO
         4 000115   200224 630500                    EPPR0   I+2,,AUTO
         4 000116   200227 450500                    STP0    I+5,,AUTO
         4 000117   000001 236000 5                  LDQ     1
         4 000120   200226 756100                    STQ     I+4,,AUTO
         4 000121   200226 630500                    EPPR0   I+4,,AUTO
         4 000122   000020 631400 xsym               EPPR1   B_VECTNIL+16
         4 000123   000000 701000 xent               TSX1    ASB$WRITE_LO
         4 000124   000000 011000                    NOP     0

      536    13456    2         END;   /*  Jcl  */

  13456  4 000125   000252 710000 4                  TRA     s:13489+1

      537    13457    1      ELSE
      538    13458    1         CALL ASB$WRITE_LO(OUT_BUF,LEN); /* User id                         */

PL6.E3A0      #002=ASL$LIST_OUT File=ASL$EXT.:E05TSI                             TUE 07/29/97 09:59 Page:149
  13458  4 000126   200013 631500                    EPPR1   LEN,,AUTO
         4 000127   200225 451500                    STP1    I+3,,AUTO
         4 000130   000002 236000 5                  LDQ     2
         4 000131   200224 756100                    STQ     I+2,,AUTO
         4 000132   200224 630500                    EPPR0   I+2,,AUTO
         4 000133   000020 631400 xsym               EPPR1   B_VECTNIL+16
         4 000134   000000 701000 xent               TSX1    ASB$WRITE_LO
         4 000135   000000 011000                    NOP     0
         4 000136   000252 710000 4                  TRA     s:13489+1

      539    13459    1   ELSE                           /* List with no options.              */
      540    13460    2   DO ;

      541    13461    2      IF LIST_ACCT_FLG = '0'B

  13461  4 000137   000000 234000 xsym               SZN     LIST_ACCT_FLG
         4 000140   000147 604000 4                  TMI     s:13467

      542    13462    2      THEN                        /* First time thru.                   */
      543    13463    3      DO ;

      544    13464    3         FRST_CHR = OUT_BUF ;

  13464  4 000141   000000 236000 xsym               LDQ     OUT_BUF
         4 000142   777000 376003                    ANQ     -512,DU
         4 000143   000003 276000 5                  ORQ     3
         4 000144   000030 756000 3                  STQ     FRST_CHR

      545    13465    3         LIST_ACCT_FLG = '1'B ;

  13465  4 000145   400000 236003                    LDQ     -131072,DU
         4 000146   000000 756000 xsym               STQ     LIST_ACCT_FLG

      546    13466    3         END ;                    /* Then do                            */

      547    13467    2      NEW_CHR = OUT_BUF ;

PL6.E3A0      #002=ASL$LIST_OUT File=ASL$EXT.:E05TSI                             TUE 07/29/97 09:59 Page:150
  13467  4 000147   000000 236000 xsym               LDQ     OUT_BUF
         4 000150   777000 376003                    ANQ     -512,DU
         4 000151   000003 276000 5                  ORQ     3
         4 000152   200014 756100                    STQ     NEW_CHR,,AUTO

      548    13468    2      TEMP_BUF = SUBSTR(OUT_BUF,0,LEN) ;

  13468  4 000153   200013 720100                    LXL0    LEN,,AUTO
         4 000154   040100 100440                    MLR     fill='040'O
         4 000155   000000 000010 xsym               ADSC9   OUT_BUF                  cn=0,n=*X0
         4 000156   200167 000030                    ADSC9   TEMP_BUF,,AUTO           cn=0,n=24

      549    13469    2      IF NEW_CHR ~= FRST_CHR

  13469  4 000157   200014 236100                    LDQ     NEW_CHR,,AUTO
         4 000160   000030 676000 3                  ERQ     FRST_CHR
         4 000161   777000 376003                    ANQ     -512,DU
         4 000162   000200 600000 4                  TZE     s:13477

      550    13470    2      THEN                        /* Output old, start anew.            */
      551    13471    3      DO ;

      552    13472    3         CALL X$FORMAT(FDS) ;

  13472  4 000163   000004 630400 5                  EPPR0   4
         4 000164   000017 631400 xsym               EPPR1   B_VECTNIL+15
         4 000165   000000 701000 xent               TSX1    X$FORMAT
         4 000166   000000 011000                    NOP     0

      553    13473    3         CALL ASB$WRITE_LO(' ',1) ; /* Blank line                        */

  13473  4 000167   000005 630400 5                  EPPR0   5
         4 000170   000020 631400 xsym               EPPR1   B_VECTNIL+16
         4 000171   000000 701000 xent               TSX1    ASB$WRITE_LO
         4 000172   000000 011000                    NOP     0

      554    13474    3         FDS.NVECS# = 0 ;
PL6.E3A0      #002=ASL$LIST_OUT File=ASL$EXT.:E05TSI                             TUE 07/29/97 09:59 Page:151

  13474  4 000173   000011 450000 xsym               STZ     FDS+9

      555    13475    3         FRST_CHR = NEW_CHR ;

  13475  4 000174   200014 236100                    LDQ     NEW_CHR,,AUTO
         4 000175   777000 376003                    ANQ     -512,DU
         4 000176   000003 276000 5                  ORQ     3
         4 000177   000030 756000 3                  STQ     FRST_CHR

      556    13476    3         END ;                    /* Then do                            */

      557    13477    2      IF (FDS.NVECS#+1)*LENGTHC(ACCT_ARRY(0)) > LO_WIDTH

  13477  4 000200   000011 236000 xsym               LDQ     FDS+9
         4 000201   000030 402007                    MPY     24,DL
         4 000202   000030 036007                    ADLQ    24,DL
         4 000203   000214 604000 4                  TMI     s:13484
         4 000204   000000 116000 xsym               CMPQ    LO_WIDTH
         4 000205   000214 602000 4                  TNC     s:13484
         4 000206   000214 600000 4                  TZE     s:13484

      558    13478    2      THEN                        /* Buffer already full. Flush.        */
      559    13479    3      DO ;

      560    13480    3         CALL X$FORMAT(FDS) ;

  13480  4 000207   000004 630400 5                  EPPR0   4
         4 000210   000017 631400 xsym               EPPR1   B_VECTNIL+15
         4 000211   000000 701000 xent               TSX1    X$FORMAT
         4 000212   000000 011000                    NOP     0

      561    13481    3         FDS.NVECS# = 0 ;

  13481  4 000213   000011 450000 xsym               STZ     FDS+9

      562    13482    3         END ;                    /* Then do                            */
PL6.E3A0      #002=ASL$LIST_OUT File=ASL$EXT.:E05TSI                             TUE 07/29/97 09:59 Page:152

      563    13483                                                /* Move next entry                    */
      564    13484    2      ACCT_ARRY(FDS.NVECS#) = TEMP_BUF ;

  13484  4 000214   000011 236000 xsym               LDQ     FDS+9
         4 000215   000030 402007                    MPY     24,DL
         4 000216   040006 100500                    MLR     fill='040'O
         4 000217   200167 000030                    ADSC9   TEMP_BUF,,AUTO           cn=0,n=24
         4 000220   000000 000030 3                  ADSC9   ACCT_ARRY,Q              cn=0,n=24

      565    13485    2      FMT_VEC(FDS.NVECS#) = VECTOR(ACCT_ARRY(FDS.NVECS#)) ;

  13485  4 000221   000011 235000 xsym               LDA     FDS+9
         4 000222   000001 735000                    ALS     1
         4 000223   000000 620005                    EAX0    0,AL
         4 000224   000007 235000 5                  LDA     7
         4 000225   000011 236000 xsym               LDQ     FDS+9
         4 000226   200224 755100                    STA     I+2,,AUTO
         4 000227   000006 402003                    MPY     6,DU
         4 000230   000010 036000 5                  ADLQ    8
         4 000231   200224 235100                    LDA     I+2,,AUTO
         4 000232   000000 755010 xsym               STA     FMT_VEC,X0
         4 000233   000001 756010 xsym               STQ     FMT_VEC+1,X0

      566    13486    2      CALL INSERT(FMT_BUF,FDS.NVECS#*2,2,'%A') ;

  13486  4 000234   000011 235000 xsym               LDA     FDS+9
         4 000235   000001 735000                    ALS     1
         4 000236   040005 100400                    MLR     fill='040'O
         4 000237   005134 000002 2                  ADSC9   PRIV_TBL+236             cn=0,n=2
         4 000240   000000 000002 xsym               ADSC9   FMT_BUF,A                cn=0,n=2

      567    13487    2      FDS.NVECS# = FDS.NVECS# + 1 ;

  13487  4 000241   000011 054000 xsym               AOS     FDS+9

      568    13488    2      FDS.FMT_.BOUND = FDS.NVECS#*2-1 ;
PL6.E3A0      #002=ASL$LIST_OUT File=ASL$EXT.:E05TSI                             TUE 07/29/97 09:59 Page:153

  13488  4 000242   000011 236000 xsym               LDQ     FDS+9
         4 000243   000001 736000                    QLS     1
         4 000244   000001 136007                    SBLQ    1,DL
         4 000245   000020 736000                    QLS     16
         4 000246   000000 676000 xsym               ERQ     FDS
         4 000247   000034 376000 xsym               ANQ     B_VECTNIL+28
         4 000250   000000 656000 xsym               ERSQ    FDS

      569    13489    2      RETURN ;

  13489  4 000251   000000 702200 xent               TSX2  ! X66_ARET
         4 000252   000255 710000 4                  TRA     s:13494

      570    13490    2      END ;                       /* Else do                            */
      571    13491                                                                  /**/
      572    13492    1   ASL$LIST_OUTPUT: ENTRY( DO_FLAG );

  13492  4 000253   000000 700200 xent  ASL$LIST_OU* TSX0  ! X66_AUTO_1
         4 000254   000230 000001                    ZERO    152,1

      573    13493                                                                  /**/
      574    13494    2   IF DO_FLAG (L_JCL) THEN DO;

  13494  4 000255   200003 470500                    LDP0    @DO_FLAG,,AUTO
         4 000256   000000 066500                    CMPB    filb='0'B
         4 000257   000003 670001                    BDSC    3,,PR0                   by=3,bit=7,n=1
         4 000260   000002 000022 xsym               BDSC    B_VECTNIL+2              by=0,bit=0,n=18
         4 000261   000341 600000 4                  TZE     s:13511

      575    13495    2      CALL BUILD_JCL_FMT ( 0, %NO# );

  13495  4 000262   000011 236000 5                  LDQ     9
         4 000263   200202 756100                    STQ     BOG_IDX+1,,AUTO
         4 000264   200201 756100                    STQ     I+1,,AUTO
         4 000265   006664 701000 4                  TSX1    BUILD_JCL_FMT
         4 000266   000000 011000                    NOP     0
PL6.E3A0      #002=ASL$LIST_OUT File=ASL$EXT.:E05TSI                             TUE 07/29/97 09:59 Page:154

      576    13496    2      CALL LIST_BUDGET_SUBS_JCL;

  13496  4 000267   012476 701000 4                  TSX1    LIST_BUDGET_SUBS_JCL
         4 000270   000000 011000                    NOP     0

      577    13497    2      IF DO_FLAG ( L_FACCT ) THEN CALL LIST_FACCOUNT;

  13497  4 000271   200003 470500                    LDP0    @DO_FLAG,,AUTO
         4 000272   000000 066500                    CMPB    filb='0'B
         4 000273   000002 200001                    BDSC    2,,PR0                   by=1,bit=0,n=1
         4 000274   000002 000022 xsym               BDSC    B_VECTNIL+2              by=0,bit=0,n=18
         4 000275   000300 600000 4                  TZE     s:13498

  13497  4 000276   006551 701000 4                  TSX1    LIST_FACCOUNT
         4 000277   000000 011000                    NOP     0

      578    13498    2      CALL LIST_FEPRIV_JCL (%YES#);

  13498  4 000300   000012 236000 5                  LDQ     10
         4 000301   200177 756100                    STQ     TMP_LEN+2,,AUTO
         4 000302   012517 701000 4                  TSX1    LIST_FEPRIV_JCL
         4 000303   000000 011000                    NOP     0

      579    13499    2      CALL LIST_FEPRIV_JCL (%NO#);

  13499  4 000304   000011 236000 5                  LDQ     9
         4 000305   200177 756100                    STQ     TMP_LEN+2,,AUTO
         4 000306   012517 701000 4                  TSX1    LIST_FEPRIV_JCL
         4 000307   000000 011000                    NOP     0

      580    13500    2      CALL LIST_FEPSEUDO_JCL;

  13500  4 000310   012674 701000 4                  TSX1    LIST_FEPSEUDO_JCL
         4 000311   000000 011000                    NOP     0

      581    13501    2      CALL LIST_FERESOURCE_JCL;
PL6.E3A0      #002=ASL$LIST_OUT File=ASL$EXT.:E05TSI                             TUE 07/29/97 09:59 Page:155

  13501  4 000312   013033 701000 4                  TSX1    LIST_FERESOURCE_JCL
         4 000313   000000 011000                    NOP     0

      582    13502    2      CALL LIST_KEY_JCL;

  13502  4 000314   013206 701000 4                  TSX1    LIST_KEY_JCL
         4 000315   000000 011000                    NOP     0

      583    13503    2      CALL LIST_PRIV_JCL (%YES#);

  13503  4 000316   000012 236000 5                  LDQ     10
         4 000317   200177 756100                    STQ     TMP_LEN+2,,AUTO
         4 000320   013333 701000 4                  TSX1    LIST_PRIV_JCL
         4 000321   000000 011000                    NOP     0

      584    13504    2      CALL LIST_PRIV_JCL (%NO#);

  13504  4 000322   000011 236000 5                  LDQ     9
         4 000323   200177 756100                    STQ     TMP_LEN+2,,AUTO
         4 000324   013333 701000 4                  TSX1    LIST_PRIV_JCL
         4 000325   000000 011000                    NOP     0

      585    13505    2      CALL LIST_PSEUDO_JCL;

  13505  4 000326   013510 701000 4                  TSX1    LIST_PSEUDO_JCL
         4 000327   000000 011000                    NOP     0

      586    13506    2      CALL LIST_RESOURCE_JCL;

  13506  4 000330   013650 701000 4                  TSX1    LIST_RESOURCE_JCL
         4 000331   000000 011000                    NOP     0

      587    13507    2      CALL LIST_SERVICES_JCL;

  13507  4 000332   014022 701000 4                  TSX1    LIST_SERVICES_JCL
         4 000333   000000 011000                    NOP     0
PL6.E3A0      #002=ASL$LIST_OUT File=ASL$EXT.:E05TSI                             TUE 07/29/97 09:59 Page:156

      588    13508    2      CALL ASB$WRITE_LO ('END', 3);

  13508  4 000334   000013 630400 5                  EPPR0   11
         4 000335   000020 631400 xsym               EPPR1   B_VECTNIL+16
         4 000336   000000 701000 xent               TSX1    ASB$WRITE_LO
         4 000337   000000 011000                    NOP     0

      589    13509    2      END;  /*  Jcl  */

  13509  4 000340   000565 710000 4                  TRA     s:13557

      590    13510    2   ELSE DO;

      591    13511    2      ST_IDX = L_HSET;

  13511  4 000341   000007 235007                    LDA     7,DL
         4 000342   200166 755100                    STA     ST_IDX,,AUTO

      592    13512        /***
      593    13513         *** Report the 'easy' fields
      594    13514         ***/
      595    13515    3      DO WHILE(ST_IDX < L_PRIV);

  13515  4 000343   000115 115007                    CMPA    77,DL
         4 000344   000400 605000 4                  TPL     s:13529

      596    13516    3         FIELDS = 0;

  13516  4 000345   200006 450100                    STZ     FIELDS,,AUTO

      597    13517    3         CALL BUILD_HDR( HDR_LEN, L_PRIV );

  13517  4 000346   000016 236000 5                  LDQ     14
         4 000347   200200 756100                    STQ     @PRIV_FLG+1,,AUTO
         4 000350   200007 630500                    EPPR0   HDR_LEN,,AUTO
         4 000351   200177 450500                    STP0    TMP_LEN+2,,AUTO
PL6.E3A0      #002=ASL$LIST_OUT File=ASL$EXT.:E05TSI                             TUE 07/29/97 09:59 Page:157
         4 000352   001076 701000 4                  TSX1    BUILD_HDR
         4 000353   000000 011000                    NOP     0

      598    13518    3         IF FIELDS > 0

  13518  4 000354   200006 235100                    LDA     FIELDS,,AUTO
         4 000355   000374 604400 4                  TMOZ    s:13524

      599    13519    4         THEN DO;                     /* Some hdr was built           */

      600    13520    4            CALL ASB$WRITE_LO(' ',1);

  13520  4 000356   000005 630400 5                  EPPR0   5
         4 000357   000020 631400 xsym               EPPR1   B_VECTNIL+16
         4 000360   000000 701000 xent               TSX1    ASB$WRITE_LO
         4 000361   000000 011000                    NOP     0

      601    13521    4            CALL ASB$WRITE_LO(OUT_BUF,HDR_LEN); /* Put out hdr        */

  13521  4 000362   200007 630500                    EPPR0   HDR_LEN,,AUTO
         4 000363   200225 450500                    STP0    I+3,,AUTO
         4 000364   000002 236000 5                  LDQ     2
         4 000365   200224 756100                    STQ     I+2,,AUTO
         4 000366   200224 630500                    EPPR0   I+2,,AUTO
         4 000367   000020 631400 xsym               EPPR1   B_VECTNIL+16
         4 000370   000000 701000 xent               TSX1    ASB$WRITE_LO
         4 000371   000000 011000                    NOP     0

      602    13522    4            CALL LIST_FIELDS;

  13522  4 000372   001257 701000 4                  TSX1    LIST_FIELDS
         4 000373   000000 011000                    NOP     0

      603    13523    4            END;   /*  Some header was built  */

      604    13524    3         ST_IDX = NXT_IDX;

PL6.E3A0      #002=ASL$LIST_OUT File=ASL$EXT.:E05TSI                             TUE 07/29/97 09:59 Page:158
  13524  4 000374   200016 235100                    LDA     NXT_IDX,,AUTO
         4 000375   200166 755100                    STA     ST_IDX,,AUTO

      605    13525    3         END;  /*  ST_IDX < L_PRIV  */

  13525  4 000376   000115 115007                    CMPA    77,DL
         4 000377   000345 604000 4                  TMI     s:13516

      606    13526        /***
      607    13527         *** Report the rest
      608    13528         ***/
      609    13529    2      IF DO_FLAG(L_KEY) THEN CALL LIST_KEY;

  13529  4 000400   200003 470500                    LDP0    @DO_FLAG,,AUTO
         4 000401   000000 066500                    CMPB    filb='0'B
         4 000402   000002 210001                    BDSC    2,,PR0                   by=1,bit=1,n=1
         4 000403   000002 000022 xsym               BDSC    B_VECTNIL+2              by=0,bit=0,n=18
         4 000404   000407 600000 4                  TZE     s:13530

  13529  4 000405   004327 701000 4                  TSX1    LIST_KEY
         4 000406   000000 011000                    NOP     0

      610    13530    2      IF DO_FLAG(L_PRIV) THEN CALL LIST_PRIV('1'B);

  13530  4 000407   200003 470500                    LDP0    @DO_FLAG,,AUTO
         4 000410   000000 066500                    CMPB    filb='0'B
         4 000411   000002 050001                    BDSC    2,,PR0                   by=0,bit=5,n=1
         4 000412   000002 000022 xsym               BDSC    B_VECTNIL+2              by=0,bit=0,n=18
         4 000413   000420 600000 4                  TZE     s:13531

  13530  4 000414   000012 236000 5                  LDQ     10
         4 000415   200177 756100                    STQ     TMP_LEN+2,,AUTO
         4 000416   005701 701000 4                  TSX1    LIST_PRIV
         4 000417   000000 011000                    NOP     0

      611    13531    2      IF DO_FLAG(L_PPRIV) THEN CALL LIST_PRIV('0'B);

PL6.E3A0      #002=ASL$LIST_OUT File=ASL$EXT.:E05TSI                             TUE 07/29/97 09:59 Page:159
  13531  4 000420   200003 470500                    LDP0    @DO_FLAG,,AUTO
         4 000421   000000 066500                    CMPB    filb='0'B
         4 000422   000002 060001                    BDSC    2,,PR0                   by=0,bit=6,n=1
         4 000423   000002 000022 xsym               BDSC    B_VECTNIL+2              by=0,bit=0,n=18
         4 000424   000431 600000 4                  TZE     s:13532

  13531  4 000425   000011 236000 5                  LDQ     9
         4 000426   200177 756100                    STQ     TMP_LEN+2,,AUTO
         4 000427   005701 701000 4                  TSX1    LIST_PRIV
         4 000430   000000 011000                    NOP     0

      612    13532    2      IF DO_FLAG(L_PSEUDO) THEN CALL LIST_PSEUDO;

  13532  4 000431   200003 470500                    LDP0    @DO_FLAG,,AUTO
         4 000432   000000 066500                    CMPB    filb='0'B
         4 000433   000002 100001                    BDSC    2,,PR0                   by=0,bit=8,n=1
         4 000434   000002 000022 xsym               BDSC    B_VECTNIL+2              by=0,bit=0,n=18
         4 000435   000440 600000 4                  TZE     s:13533

  13532  4 000436   004475 701000 4                  TSX1    LIST_PSEUDO
         4 000437   000000 011000                    NOP     0

      613    13533    2      IF DO_FLAG(L_RES) THEN CALL LIST_RESOURCE;

  13533  4 000440   200003 470500                    LDP0    @DO_FLAG,,AUTO
         4 000441   000000 066500                    CMPB    filb='0'B
         4 000442   000002 070001                    BDSC    2,,PR0                   by=0,bit=7,n=1
         4 000443   000002 000022 xsym               BDSC    B_VECTNIL+2              by=0,bit=0,n=18
         4 000444   000447 600000 4                  TZE     s:13534

  13533  4 000445   005165 701000 4                  TSX1    LIST_RESOURCE
         4 000446   000000 011000                    NOP     0

      614    13534    2      IF DO_FLAG(L_FACCT) THEN CALL LIST_FACCOUNT;

  13534  4 000447   200003 470500                    LDP0    @DO_FLAG,,AUTO
         4 000450   000000 066500                    CMPB    filb='0'B
PL6.E3A0      #002=ASL$LIST_OUT File=ASL$EXT.:E05TSI                             TUE 07/29/97 09:59 Page:160
         4 000451   000002 200001                    BDSC    2,,PR0                   by=1,bit=0,n=1
         4 000452   000002 000022 xsym               BDSC    B_VECTNIL+2              by=0,bit=0,n=18
         4 000453   000456 600000 4                  TZE     s:13535

  13534  4 000454   006551 701000 4                  TSX1    LIST_FACCOUNT
         4 000455   000000 011000                    NOP     0

      615    13535    2      ST_IDX = L_FEMINTS;

  13535  4 000456   000123 235007                    LDA     83,DL
         4 000457   200166 755100                    STA     ST_IDX,,AUTO

      616    13536        /***
      617    13537         *** Report the 'easy' fe fields
      618    13538         ***/
      619    13539    3      DO WHILE(ST_IDX < L_FEPRIV);

  13539  4 000460   000133 115007                    CMPA    91,DL
         4 000461   000515 605000 4                  TPL     s:13550

      620    13540    3         FIELDS = 0;

  13540  4 000462   200006 450100                    STZ     FIELDS,,AUTO

      621    13541    3         CALL BUILD_HDR( HDR_LEN, L_FEPRIV );

  13541  4 000463   000020 236000 5                  LDQ     16
         4 000464   200200 756100                    STQ     @PRIV_FLG+1,,AUTO
         4 000465   200007 630500                    EPPR0   HDR_LEN,,AUTO
         4 000466   200177 450500                    STP0    TMP_LEN+2,,AUTO
         4 000467   001076 701000 4                  TSX1    BUILD_HDR
         4 000470   000000 011000                    NOP     0

      622    13542    3         IF FIELDS > 0

  13542  4 000471   200006 235100                    LDA     FIELDS,,AUTO
         4 000472   000511 604400 4                  TMOZ    s:13548
PL6.E3A0      #002=ASL$LIST_OUT File=ASL$EXT.:E05TSI                             TUE 07/29/97 09:59 Page:161

      623    13543    4         THEN DO;                    /* Some hdr was built            */

      624    13544    4            CALL ASB$WRITE_LO(' ',1);

  13544  4 000473   000005 630400 5                  EPPR0   5
         4 000474   000020 631400 xsym               EPPR1   B_VECTNIL+16
         4 000475   000000 701000 xent               TSX1    ASB$WRITE_LO
         4 000476   000000 011000                    NOP     0

      625    13545    4            CALL ASB$WRITE_LO(OUT_BUF,HDR_LEN); /* Put out hdr        */

  13545  4 000477   200007 630500                    EPPR0   HDR_LEN,,AUTO
         4 000500   200225 450500                    STP0    I+3,,AUTO
         4 000501   000002 236000 5                  LDQ     2
         4 000502   200224 756100                    STQ     I+2,,AUTO
         4 000503   200224 630500                    EPPR0   I+2,,AUTO
         4 000504   000020 631400 xsym               EPPR1   B_VECTNIL+16
         4 000505   000000 701000 xent               TSX1    ASB$WRITE_LO
         4 000506   000000 011000                    NOP     0

      626    13546    4            CALL LIST_FIELDS;

  13546  4 000507   001257 701000 4                  TSX1    LIST_FIELDS
         4 000510   000000 011000                    NOP     0

      627    13547    4            END;  /*  Some header was built  */

      628    13548    3         ST_IDX = NXT_IDX;

  13548  4 000511   200016 235100                    LDA     NXT_IDX,,AUTO
         4 000512   200166 755100                    STA     ST_IDX,,AUTO

      629    13549    3         END;   /*  ST_IDX < L_FEPRIV  */

  13549  4 000513   000133 115007                    CMPA    91,DL
         4 000514   000462 604000 4                  TMI     s:13540
PL6.E3A0      #002=ASL$LIST_OUT File=ASL$EXT.:E05TSI                             TUE 07/29/97 09:59 Page:162

      630    13550    2      IF DO_FLAG(L_FEPRIV) THEN CALL LIST_FEPRIV('1'B);

  13550  4 000515   200003 470500                    LDP0    @DO_FLAG,,AUTO
         4 000516   000000 066500                    CMPB    filb='0'B
         4 000517   000002 410001                    BDSC    2,,PR0                   by=2,bit=1,n=1
         4 000520   000002 000022 xsym               BDSC    B_VECTNIL+2              by=0,bit=0,n=18
         4 000521   000526 600000 4                  TZE     s:13551

  13550  4 000522   000012 236000 5                  LDQ     10
         4 000523   200177 756100                    STQ     TMP_LEN+2,,AUTO
         4 000524   006225 701000 4                  TSX1    LIST_FEPRIV
         4 000525   000000 011000                    NOP     0

      631    13551    2      IF DO_FLAG(L_FEPPRIV) THEN CALL LIST_FEPRIV('0'B);

  13551  4 000526   200003 470500                    LDP0    @DO_FLAG,,AUTO
         4 000527   000000 066500                    CMPB    filb='0'B
         4 000530   000002 420001                    BDSC    2,,PR0                   by=2,bit=2,n=1
         4 000531   000002 000022 xsym               BDSC    B_VECTNIL+2              by=0,bit=0,n=18
         4 000532   000537 600000 4                  TZE     s:13552

  13551  4 000533   000011 236000 5                  LDQ     9
         4 000534   200177 756100                    STQ     TMP_LEN+2,,AUTO
         4 000535   006225 701000 4                  TSX1    LIST_FEPRIV
         4 000536   000000 011000                    NOP     0

      632    13552    2      IF DO_FLAG(L_FEPSEUDO) THEN CALL LIST_FEPSEUDO;

  13552  4 000537   200003 470500                    LDP0    @DO_FLAG,,AUTO
         4 000540   000000 066500                    CMPB    filb='0'B
         4 000541   000002 440001                    BDSC    2,,PR0                   by=2,bit=4,n=1
         4 000542   000002 000022 xsym               BDSC    B_VECTNIL+2              by=0,bit=0,n=18
         4 000543   000546 600000 4                  TZE     s:13553

  13552  4 000544   004731 701000 4                  TSX1    LIST_FEPSEUDO
         4 000545   000000 011000                    NOP     0
PL6.E3A0      #002=ASL$LIST_OUT File=ASL$EXT.:E05TSI                             TUE 07/29/97 09:59 Page:163

      633    13553    2      IF DO_FLAG(L_FERES) THEN CALL LIST_FERESOURCE;

  13553  4 000546   200003 470500                    LDP0    @DO_FLAG,,AUTO
         4 000547   000000 066500                    CMPB    filb='0'B
         4 000550   000002 430001                    BDSC    2,,PR0                   by=2,bit=3,n=1
         4 000551   000002 000022 xsym               BDSC    B_VECTNIL+2              by=0,bit=0,n=18
         4 000552   000555 600000 4                  TZE     s:13554

  13553  4 000553   005431 701000 4                  TSX1    LIST_FERESOURCE
         4 000554   000000 011000                    NOP     0

      634    13554    2      CALL ASB$WRITE_LO(' ',1);       /* A blank line                 */

  13554  4 000555   000005 630400 5                  EPPR0   5
         4 000556   000020 631400 xsym               EPPR1   B_VECTNIL+16
         4 000557   000000 701000 xent               TSX1    ASB$WRITE_LO
         4 000560   000000 011000                    NOP     0

      635    13555    2      CALL ASB$WRITE_LO(' ',1);       /* A blank line                 */

  13555  4 000561   000005 630400 5                  EPPR0   5
         4 000562   000020 631400 xsym               EPPR1   B_VECTNIL+16
         4 000563   000000 701000 xent               TSX1    ASB$WRITE_LO
         4 000564   000000 011000                    NOP     0

      636    13556    2      END;  /*  Not jcl  */

      637    13557    1   RETURN;

  13557  4 000565   000000 702200 xent               TSX2  ! X66_ARET

      638    13558        %EJECT;
PL6.E3A0      #002=ASL$LIST_OUT File=ASL$EXT.:E05TSI                             TUE 07/29/97 09:59 Page:164
      639    13559    1   ASL$LIST_PROJ_OUT: ENTRY( DO_FLAG );

  13559  4 000566   000000 700200 xent  ASL$LIST_PR* TSX0  ! X66_AUTO_1
         4 000567   000230 000001                    ZERO    152,1

      640    13560
      641    13561
      642    13562    2   IF DO_FLAG (L_JCL) THEN DO;

  13562  4 000570   200003 470500                    LDP0    @DO_FLAG,,AUTO
         4 000571   000000 066500                    CMPB    filb='0'B
         4 000572   000003 670001                    BDSC    3,,PR0                   by=3,bit=7,n=1
         4 000573   000002 000022 xsym               BDSC    B_VECTNIL+2              by=0,bit=0,n=18
         4 000574   000604 600000 4                  TZE     s:13566

      643    13563    2      CALL BUILD_JCL_FMT ( 81, %NO# );

  13563  4 000575   000011 236000 5                  LDQ     9
         4 000576   200202 756100                    STQ     BOG_IDX+1,,AUTO
         4 000577   000022 236000 5                  LDQ     18
         4 000600   200201 756100                    STQ     I+1,,AUTO
         4 000601   006664 701000 4                  TSX1    BUILD_JCL_FMT
         4 000602   000000 011000                    NOP     0

      644    13564    2      END;  /*  Jcl  */

  13564  4 000603   000643 710000 4                  TRA     s:13578

      645    13565    2   ELSE DO;   /*  Not jcl  */

      646    13566    2      ST_IDX = L_ACCTS_VAL;

  13566  4 000604   000160 235007                    LDA     112,DL
         4 000605   200166 755100                    STA     ST_IDX,,AUTO

      647    13567    3      DO WHILE( ST_IDX < L_ADMIN_VAL );

PL6.E3A0      #002=ASL$LIST_OUT File=ASL$EXT.:E05TSI                             TUE 07/29/97 09:59 Page:165
  13567  4 000606   000166 115007                    CMPA    118,DL
         4 000607   000643 605000 4                  TPL     s:13578

      648    13568    3         FIELDS = 0;

  13568  4 000610   200006 450100                    STZ     FIELDS,,AUTO

      649    13569    3         CALL BUILD_HDR( HDR_LEN, L_ADMIN_VAL );

  13569  4 000611   000024 236000 5                  LDQ     20
         4 000612   200200 756100                    STQ     @PRIV_FLG+1,,AUTO
         4 000613   200007 630500                    EPPR0   HDR_LEN,,AUTO
         4 000614   200177 450500                    STP0    TMP_LEN+2,,AUTO
         4 000615   001076 701000 4                  TSX1    BUILD_HDR
         4 000616   000000 011000                    NOP     0

      650    13570    4         IF FIELDS > 0 THEN DO;

  13570  4 000617   200006 235100                    LDA     FIELDS,,AUTO
         4 000620   000637 604400 4                  TMOZ    s:13575

      651    13571    4            CALL ASB$WRITE_LO( AS_BLANK, 1 );

  13571  4 000621   000025 630400 5                  EPPR0   21
         4 000622   000020 631400 xsym               EPPR1   B_VECTNIL+16
         4 000623   000000 701000 xent               TSX1    ASB$WRITE_LO
         4 000624   000000 011000                    NOP     0

      652    13572    4            CALL ASB$WRITE_LO( OUT_BUF, HDR_LEN );

  13572  4 000625   200007 630500                    EPPR0   HDR_LEN,,AUTO
         4 000626   200225 450500                    STP0    I+3,,AUTO
         4 000627   000002 236000 5                  LDQ     2
         4 000630   200224 756100                    STQ     I+2,,AUTO
         4 000631   200224 630500                    EPPR0   I+2,,AUTO
         4 000632   000020 631400 xsym               EPPR1   B_VECTNIL+16
         4 000633   000000 701000 xent               TSX1    ASB$WRITE_LO
PL6.E3A0      #002=ASL$LIST_OUT File=ASL$EXT.:E05TSI                             TUE 07/29/97 09:59 Page:166
         4 000634   000000 011000                    NOP     0

      653    13573    4            CALL LIST_FIELDS;

  13573  4 000635   001257 701000 4                  TSX1    LIST_FIELDS
         4 000636   000000 011000                    NOP     0

      654    13574    4            END;  /*  Some header was built  */

      655    13575    3         ST_IDX = NXT_IDX;

  13575  4 000637   200016 235100                    LDA     NXT_IDX,,AUTO
         4 000640   200166 755100                    STA     ST_IDX,,AUTO

      656    13576    3         END;  /*  ST_IDX < L_ADMIN_VAL  */

  13576  4 000641   000166 115007                    CMPA    118,DL
         4 000642   000610 604000 4                  TMI     s:13568

      657    13577    2      END;   /*  Not jcl  */

      658    13578    1   RETURN;

  13578  4 000643   000000 702200 xent               TSX2  ! X66_ARET

      659    13579
      660    13580        %EJECT;
PL6.E3A0      #002=ASL$LIST_OUT File=ASL$EXT.:E05TSI                             TUE 07/29/97 09:59 Page:167
      661    13581    1   ASL$LIST_PACK_OUT: ENTRY( DO_FLAG );

  13581  4 000644   000000 700200 xent  ASL$LIST_PA* TSX0  ! X66_AUTO_1
         4 000645   000230 000001                    ZERO    152,1

      662    13582
      663    13583
      664    13584    2   IF DO_FLAG (L_JCL) THEN DO;

  13584  4 000646   200003 470500                    LDP0    @DO_FLAG,,AUTO
         4 000647   000000 066500                    CMPB    filb='0'B
         4 000650   000003 670001                    BDSC    3,,PR0                   by=3,bit=7,n=1
         4 000651   000002 000022 xsym               BDSC    B_VECTNIL+2              by=0,bit=0,n=18
         4 000652   000662 600000 4                  TZE     s:13588

      665    13585    2      CALL BUILD_JCL_FMT ( 91, %YES# );

  13585  4 000653   000012 236000 5                  LDQ     10
         4 000654   200202 756100                    STQ     BOG_IDX+1,,AUTO
         4 000655   000020 236000 5                  LDQ     16
         4 000656   200201 756100                    STQ     I+1,,AUTO
         4 000657   006664 701000 4                  TSX1    BUILD_JCL_FMT
         4 000660   000000 011000                    NOP     0

      666    13586    2      END;  /*  Jcl  */

  13586  4 000661   000721 710000 4                  TRA     s:13600

      667    13587    2   ELSE DO;   /*  Not jcl  */

      668    13588    2      ST_IDX = L_PACK_ACCT;

  13588  4 000662   000171 235007                    LDA     121,DL
         4 000663   200166 755100                    STA     ST_IDX,,AUTO

      669    13589    3      DO WHILE( ST_IDX < L_PACK_ATTR );

PL6.E3A0      #002=ASL$LIST_OUT File=ASL$EXT.:E05TSI                             TUE 07/29/97 09:59 Page:168
  13589  4 000664   000176 115007                    CMPA    126,DL
         4 000665   000721 605000 4                  TPL     s:13600

      670    13590    3         FIELDS = 0;

  13590  4 000666   200006 450100                    STZ     FIELDS,,AUTO

      671    13591    3         CALL BUILD_HDR( HDR_LEN, L_PACK_ATTR );

  13591  4 000667   000030 236000 5                  LDQ     24
         4 000670   200200 756100                    STQ     @PRIV_FLG+1,,AUTO
         4 000671   200007 630500                    EPPR0   HDR_LEN,,AUTO
         4 000672   200177 450500                    STP0    TMP_LEN+2,,AUTO
         4 000673   001076 701000 4                  TSX1    BUILD_HDR
         4 000674   000000 011000                    NOP     0

      672    13592    4         IF FIELDS > 0 THEN DO;

  13592  4 000675   200006 235100                    LDA     FIELDS,,AUTO
         4 000676   000715 604400 4                  TMOZ    s:13597

      673    13593    4            CALL ASB$WRITE_LO( AS_BLANK, 1 );

  13593  4 000677   000025 630400 5                  EPPR0   21
         4 000700   000020 631400 xsym               EPPR1   B_VECTNIL+16
         4 000701   000000 701000 xent               TSX1    ASB$WRITE_LO
         4 000702   000000 011000                    NOP     0

      674    13594    4            CALL ASB$WRITE_LO( OUT_BUF, HDR_LEN );

  13594  4 000703   200007 630500                    EPPR0   HDR_LEN,,AUTO
         4 000704   200225 450500                    STP0    I+3,,AUTO
         4 000705   000002 236000 5                  LDQ     2
         4 000706   200224 756100                    STQ     I+2,,AUTO
         4 000707   200224 630500                    EPPR0   I+2,,AUTO
         4 000710   000020 631400 xsym               EPPR1   B_VECTNIL+16
         4 000711   000000 701000 xent               TSX1    ASB$WRITE_LO
PL6.E3A0      #002=ASL$LIST_OUT File=ASL$EXT.:E05TSI                             TUE 07/29/97 09:59 Page:169
         4 000712   000000 011000                    NOP     0

      675    13595    4            CALL LIST_FIELDS;

  13595  4 000713   001257 701000 4                  TSX1    LIST_FIELDS
         4 000714   000000 011000                    NOP     0

      676    13596    4            END;  /*  Some header was built  */

      677    13597    3         ST_IDX = NXT_IDX;

  13597  4 000715   200016 235100                    LDA     NXT_IDX,,AUTO
         4 000716   200166 755100                    STA     ST_IDX,,AUTO

      678    13598    3         END;  /*  ST_IDX < L_PACK_ATTR  */

  13598  4 000717   000176 115007                    CMPA    126,DL
         4 000720   000666 604000 4                  TMI     s:13590

      679    13599    2      END;   /*  Not jcl  */

      680    13600    1   IF (DO_FLAG(L_PACK_ATTR) OR DO_FLAG(L_JCL))

  13600  4 000721   200003 470500                    LDP0    @DO_FLAG,,AUTO
         4 000722   000000 066500                    CMPB    filb='0'B
         4 000723   000003 400001                    BDSC    3,,PR0                   by=2,bit=0,n=1
         4 000724   000002 000022 xsym               BDSC    B_VECTNIL+2              by=0,bit=0,n=18
         4 000725   000732 601000 4                  TNZ     s:13600+9
         4 000726   000000 066500                    CMPB    filb='0'B
         4 000727   000003 670001                    BDSC    3,,PR0                   by=3,bit=7,n=1
         4 000730   000002 000022 xsym               BDSC    B_VECTNIL+2              by=0,bit=0,n=18
         4 000731   001075 600000 4                  TZE     s:13624
         4 000732   000000 471400 xsym               LDP1    DSEG2$
         4 000733   100014 220100                    LDX0    12,,PR1
         4 000734   001075 600000 4                  TZE     s:13624

      681    13601    1        AND  AS$PROJ.ATTRIBUTES.COUNT > 0
PL6.E3A0      #002=ASL$LIST_OUT File=ASL$EXT.:E05TSI                             TUE 07/29/97 09:59 Page:170
      682    13602    2   THEN DO;

      683    13603    2      IF NOT DO_FLAG (L_JCL) THEN

  13603  4 000735   000000 066500                    CMPB    filb='0'B
         4 000736   000003 670001                    BDSC    3,,PR0                   by=3,bit=7,n=1
         4 000737   000002 000022 xsym               BDSC    B_VECTNIL+2              by=0,bit=0,n=18
         4 000740   000745 601000 4                  TNZ     s:13605

      684    13604    2         CALL ASB$WRITE_LO( AS_BLANK, 1 );

  13604  4 000741   000025 630400 5                  EPPR0   21
         4 000742   000020 631400 xsym               EPPR1   B_VECTNIL+16
         4 000743   000000 701000 xent               TSX1    ASB$WRITE_LO
         4 000744   000000 011000                    NOP     0

      685    13605    2      CALL ASB$WRITE_LO( '   ATTRIBUTES', 13 );

  13605  4 000745   000032 630400 5                  EPPR0   26
         4 000746   000020 631400 xsym               EPPR1   B_VECTNIL+16
         4 000747   000000 701000 xent               TSX1    ASB$WRITE_LO
         4 000750   000000 011000                    NOP     0

      686    13606    2      OUT_BUF = AS_BLANK;

  13606  4 000751   040000 100400                    MLR     fill='040'O
         4 000752   000000 000001 xsym               ADSC9   AS_BLANK                 cn=0,n=1
         4 000753   000000 000214 xsym               ADSC9   OUT_BUF                  cn=0,n=140

      687    13607    2      I = 0;

  13607  4 000754   200010 450100                    STZ     I,,AUTO

      688    13608    2      INDX = 4;

  13608  4 000755   000004 235007                    LDA     4,DL
         4 000756   200011 755100                    STA     INDX,,AUTO
PL6.E3A0      #002=ASL$LIST_OUT File=ASL$EXT.:E05TSI                             TUE 07/29/97 09:59 Page:171

      689    13609    3      DO WHILE( I < AS$PROJ.ATTRIBUTES.COUNT );

  13609  4 000757   000000 470400 xsym               LDP0    DSEG2$
         4 000760   000014 236100                    LDQ     12,,PR0
         4 000761   000022 772000                    QRL     18
         4 000762   200010 116100                    CMPQ    I,,AUTO
         4 000763   001051 604400 4                  TMOZ    s:13620

      690    13610    3         CALL INDEX( J, AS_BLANK, AS$PROJ.ATTRIBUTES.TEXT, I );

  13610  4 000764   000000 470400 xsym               LDP0    DSEG2$
         4 000765   000014 220100                    LDX0    12,,PR0
         4 000766   000000 636010                    EAQ     0,X0
         4 000767   000022 772000                    QRL     18
         4 000770   200010 136100                    SBLQ    I,,AUTO
         4 000771   200224 756100                    STQ     I+2,,AUTO
         4 000772   200010 236100                    LDQ     I,,AUTO
         4 000773   200224 720100                    LXL0    I+2,,AUTO
         4 000774   200010 235100                    LDA     I,,AUTO
         4 000775   000000 124545                    SCM     mask='000'O
         4 000776   000014 400010                    ADSC9   12,A,PR0                 cn=2,n=*X0
         4 000777   000000 000001 xsym               ADSC9   AS_BLANK                 cn=0,n=1
         4 001000   200012 000100                    ARG     J,,AUTO
         4 001001   200012 056100                    ASQ     J,,AUTO

      691    13611    3         LEN = J - I;

  13611  4 001002   200012 236100                    LDQ     J,,AUTO
         4 001003   200010 136100                    SBLQ    I,,AUTO
         4 001004   200013 756100                    STQ     LEN,,AUTO

      692    13612    4         IF INDX + LEN > LO_WIDTH THEN DO;

  13612  4 001005   200011 036100                    ADLQ    INDX,,AUTO
         4 001006   001024 604000 4                  TMI     s:13616
         4 001007   000000 116000 xsym               CMPQ    LO_WIDTH
PL6.E3A0      #002=ASL$LIST_OUT File=ASL$EXT.:E05TSI                             TUE 07/29/97 09:59 Page:172
         4 001010   001024 602000 4                  TNC     s:13616
         4 001011   001024 600000 4                  TZE     s:13616

      693    13613    4            CALL ASB$WRITE_LO( OUT_BUF, INDX );

  13613  4 001012   200011 631500                    EPPR1   INDX,,AUTO
         4 001013   200225 451500                    STP1    I+3,,AUTO
         4 001014   000002 236000 5                  LDQ     2
         4 001015   200224 756100                    STQ     I+2,,AUTO
         4 001016   200224 630500                    EPPR0   I+2,,AUTO
         4 001017   000020 631400 xsym               EPPR1   B_VECTNIL+16
         4 001020   000000 701000 xent               TSX1    ASB$WRITE_LO
         4 001021   000000 011000                    NOP     0

      694    13614    4            INDX = 4;

  13614  4 001022   000004 235007                    LDA     4,DL
         4 001023   200011 755100                    STA     INDX,,AUTO

      695    13615    4            END;

      696    13616    3         CALL INSERT( OUT_BUF, INDX, , SUBSTR(AS$PROJ.ATTRIBUTES.TEXT,I,LEN) );

  13616  4 001024   000000 470400 xsym               LDP0    DSEG2$
         4 001025   000014 220100                    LDX0    12,,PR0
         4 001026   200011 721100                    LXL1    INDX,,AUTO
         4 001027   777563 621011                    EAX1    -141,X1
         4 001030   777777 661003                    ERX1    -1,DU
         4 001031   200013 722100                    LXL2    LEN,,AUTO
         4 001032   200010 235100                    LDA     I,,AUTO
         4 001033   200011 236100                    LDQ     INDX,,AUTO
         4 001034   040046 100545                    MLR     fill='040'O
         4 001035   000014 400012                    ADSC9   12,A,PR0                 cn=2,n=*X2
         4 001036   000000 000011 xsym               ADSC9   OUT_BUF,Q                cn=0,n=*X1

      697    13617    3         INDX = INDX + LEN + 1;

PL6.E3A0      #002=ASL$LIST_OUT File=ASL$EXT.:E05TSI                             TUE 07/29/97 09:59 Page:173
  13617  4 001037   200013 036100                    ADLQ    LEN,,AUTO
         4 001040   000001 036007                    ADLQ    1,DL
         4 001041   200011 756100                    STQ     INDX,,AUTO

      698    13618    3         I = J + 1;

  13618  4 001042   200012 235100                    LDA     J,,AUTO
         4 001043   000001 035007                    ADLA    1,DL
         4 001044   200010 755100                    STA     I,,AUTO

      699    13619    3         END;

  13619  4 001045   000014 236100                    LDQ     12,,PR0
         4 001046   000022 772000                    QRL     18
         4 001047   200010 116100                    CMPQ    I,,AUTO
         4 001050   000764 605400 4                  TPNZ    s:13610

      700    13620    2      IF INDX > 4 THEN CALL ASB$WRITE_LO( OUT_BUF, INDX );

  13620  4 001051   200011 235100                    LDA     INDX,,AUTO
         4 001052   000004 115007                    CMPA    4,DL
         4 001053   001064 604400 4                  TMOZ    s:13621

  13620  4 001054   200011 631500                    EPPR1   INDX,,AUTO
         4 001055   200225 451500                    STP1    I+3,,AUTO
         4 001056   000002 236000 5                  LDQ     2
         4 001057   200224 756100                    STQ     I+2,,AUTO
         4 001060   200224 630500                    EPPR0   I+2,,AUTO
         4 001061   000020 631400 xsym               EPPR1   B_VECTNIL+16
         4 001062   000000 701000 xent               TSX1    ASB$WRITE_LO
         4 001063   000000 011000                    NOP     0

      701    13621    2      IF DO_FLAG (L_JCL) THEN

  13621  4 001064   200003 470500                    LDP0    @DO_FLAG,,AUTO
         4 001065   000000 066500                    CMPB    filb='0'B
         4 001066   000003 670001                    BDSC    3,,PR0                   by=3,bit=7,n=1
PL6.E3A0      #002=ASL$LIST_OUT File=ASL$EXT.:E05TSI                             TUE 07/29/97 09:59 Page:174
         4 001067   000002 000022 xsym               BDSC    B_VECTNIL+2              by=0,bit=0,n=18
         4 001070   001075 600000 4                  TZE     s:13624

      702    13622    2         CALL ASB$WRITE_LO( AS_BLANK, 1 );

  13622  4 001071   000025 630400 5                  EPPR0   21
         4 001072   000020 631400 xsym               EPPR1   B_VECTNIL+16
         4 001073   000000 701000 xent               TSX1    ASB$WRITE_LO
         4 001074   000000 011000                    NOP     0

      703    13623    2      END;

      704    13624    1   RETURN;

  13624  4 001075   000000 702200 xent               TSX2  ! X66_ARET

      705    13625
      706    13626        %EJECT;
PL6.E3A0      #002=ASL$LIST_OUT File=ASL$EXT.:E05TSI                             TUE 07/29/97 09:59 Page:175
      707    13627    1   BUILD_HDR: PROC( HDR_LEN, STOP );

  13627  4 001076   200176 741300       BUILD_HDR    STX1  ! TMP_LEN+1,,AUTO

      708    13628    2   DCL HDR_LEN SBIN;
      709    13629    2   DCL STOP UBIN;
      710    13630    2   DCL CUR_IDX SBIN;
      711    13631    2   DCL MORE BIT(1) ALIGNED;
      712    13632    2   DCL NEXT UBIN WORD ;
      713    13633    2   CUR_IDX = ST_IDX;

  13633  4 001077   200166 235100                    LDA     ST_IDX,,AUTO
         4 001100   200201 755100                    STA     CUR_IDX,,AUTO

      714    13634    2   CALL INSERT(OUT_BUF,0,3,' ');

  13634  4 001101   000034 236000 5                  LDQ     28
         4 001102   000000 552070 xsym               STBQ    OUT_BUF,'70'O

      715    13635    2   HDR_LEN = 3;

  13635  4 001103   000003 235007                    LDA     3,DL
         4 001104   200177 470500                    LDP0    @HDR_LEN,,AUTO
         4 001105   000000 755100                    STA     0,,PR0

      716    13636    2   MORE = '1'B;

  13636  4 001106   400000 236003                    LDQ     -131072,DU
         4 001107   200202 756100                    STQ     MORE,,AUTO

      717    13637    3   DO WHILE(MORE);

  13637  4 001110   200202 234100                    SZN     MORE,,AUTO
         4 001111   001253 605000 4                  TPL     s:13664

      718    13638    3      NEXT = OPT_TBL.ORDR( CUR_IDX ) ;

PL6.E3A0      #002=ASL$LIST_OUT File=ASL$EXT.:E05TSI                             TUE 07/29/97 09:59 Page:176
  13638  4 001112   200201 236100                    LDQ     CUR_IDX,,AUTO
         4 001113   000317 402007                    MPY     207,DL
         4 001114   000000 116003                    CMPQ    0,DU
         4 001115   001117 605000 4                  TPL     s:13638+5
         4 001116   000044 036003                    ADLQ    36,DU
         4 001117   003100 061406                    CSR     bolr='003'O
         4 001120   000005 220011 2                  BDSC    OPT_TBL+5,Q              by=1,bit=2,n=9
         4 001121   200203 000044                    BDSC    NEXT,,AUTO               by=0,bit=0,n=36

      719    13639    4      DO WHILE (~DO_FLAG(NEXT) OR OPT_TBL.LEN(NEXT)=0);

  13639  4 001122   001134 710000 4                  TRA     s:13642

      720    13640    4         CUR_IDX = CUR_IDX + 1;

  13640  4 001123   200201 054100                    AOS     CUR_IDX,,AUTO

      721    13641    4         NEXT = OPT_TBL.ORDR( CUR_IDX ) ;

  13641  4 001124   200201 236100                    LDQ     CUR_IDX,,AUTO
         4 001125   000317 402007                    MPY     207,DL
         4 001126   000000 116003                    CMPQ    0,DU
         4 001127   001131 605000 4                  TPL     s:13641+5
         4 001130   000044 036003                    ADLQ    36,DU
         4 001131   003100 061406                    CSR     bolr='003'O
         4 001132   000005 220011 2                  BDSC    OPT_TBL+5,Q              by=1,bit=2,n=9
         4 001133   200203 000044                    BDSC    NEXT,,AUTO               by=0,bit=0,n=36

      722    13642    4         END;

  13642  4 001134   200003 470500                    LDP0    @DO_FLAG,,AUTO
         4 001135   200203 235100                    LDA     NEXT,,AUTO
         4 001136   003100 060505                    CSL     bolr='003'O
         4 001137   000000 000001                    BDSC    0,A,PR0                  by=0,bit=0,n=1
         4 001140   200224 000044                    BDSC    I+2,,AUTO                by=0,bit=0,n=36
         4 001141   200224 236100                    LDQ     I+2,,AUTO
         4 001142   400000 676003                    ERQ     -131072,DU
PL6.E3A0      #002=ASL$LIST_OUT File=ASL$EXT.:E05TSI                             TUE 07/29/97 09:59 Page:177
         4 001143   001123 601000 4                  TNZ     s:13640
         4 001144   200203 236100                    LDQ     NEXT,,AUTO
         4 001145   000027 402007                    MPY     23,DL
         4 001146   000100 101406                    MRL     fill='000'O
         4 001147   000000 000001 2                  ADSC9   OPT_TBL,Q                cn=0,n=1
         4 001150   200225 000004                    ADSC9   I+3,,AUTO                cn=0,n=4
         4 001151   200225 236100                    LDQ     I+3,,AUTO
         4 001152   000000 116003                    CMPQ    0,DU
         4 001153   001123 600000 4                  TZE     s:13640

      723    13643    3      IF CUR_IDX < STOP

  13643  4 001154   200200 471500                    LDP1    @STOP,,AUTO
         4 001155   200201 236100                    LDQ     CUR_IDX,,AUTO
         4 001156   001161 604000 4                  TMI     s:13645
         4 001157   100000 116100                    CMPQ    0,,PR1
         4 001160   001250 603000 4                  TRC     s:13662

      724    13644    4      THEN DO;

      725    13645    4         IF HDR_LEN=3

  13645  4 001161   200177 473500                    LDP3    @HDR_LEN,,AUTO
         4 001162   300000 235100                    LDA     0,,PR3
         4 001163   000003 115007                    CMPA    3,DL
         4 001164   001172 601000 4                  TNZ     s:13648

      726    13646    4         THEN
      727    13647    4            BOGU = OPT_TBL.BOGU(NEXT);

  13647  4 001165   200203 236100                    LDQ     NEXT,,AUTO
         4 001166   000317 402007                    MPY     207,DL
         4 001167   003100 060406                    CSL     bolr='003'O
         4 001170   000005 200002 2                  BDSC    OPT_TBL+5,Q              by=1,bit=0,n=2
         4 001171   200004 000002                    BDSC    BOGU,,AUTO               by=0,bit=0,n=2

      728    13648    4         IF ((HDR_LEN + OPT_TBL.LEN(NEXT)) <= LO_WIDTH
PL6.E3A0      #002=ASL$LIST_OUT File=ASL$EXT.:E05TSI                             TUE 07/29/97 09:59 Page:178

  13648  4 001172   200203 236100                    LDQ     NEXT,,AUTO
         4 001173   000027 402007                    MPY     23,DL
         4 001174   000100 101406                    MRL     fill='000'O
         4 001175   000000 000001 2                  ADSC9   OPT_TBL,Q                cn=0,n=1
         4 001176   200224 000004                    ADSC9   I+2,,AUTO                cn=0,n=4
         4 001177   200224 236100                    LDQ     I+2,,AUTO
         4 001200   300000 036100                    ADLQ    0,,PR3
         4 001201   001205 604000 4                  TMI     s:13648+11
         4 001202   000000 116000 xsym               CMPQ    LO_WIDTH
         4 001203   001205 600000 4                  TZE     s:13648+11
         4 001204   001216 603000 4                  TRC     s:13648+20
         4 001205   200203 236100                    LDQ     NEXT,,AUTO
         4 001206   000317 402007                    MPY     207,DL
         4 001207   003100 061406                    CSR     bolr='003'O
         4 001210   000005 200002 2                  BDSC    OPT_TBL+5,Q              by=1,bit=0,n=2
         4 001211   200225 000044                    BDSC    I+3,,AUTO                by=0,bit=0,n=36
         4 001212   200004 236100                    LDQ     BOGU,,AUTO
         4 001213   000042 772000                    QRL     34
         4 001214   200225 116100                    CMPQ    I+3,,AUTO
         4 001215   001221 600000 4                  TZE     s:13652
         4 001216   300000 235100                    LDA     0,,PR3
         4 001217   000003 115007                    CMPA    3,DL
         4 001220   001246 601000 4                  TNZ     s:13659

      729    13649    4              AND BOGU = OPT_TBL.BOGU(NEXT))
      730    13650    4              OR HDR_LEN = 3
      731    13651    5         THEN DO;

      732    13652    5            CALL INSERT(OUT_BUF,HDR_LEN,OPT_TBL.LEN(NEXT),

  13652  4 001221   300000 235100                    LDA     0,,PR3
         4 001222   200203 236100                    LDQ     NEXT,,AUTO
         4 001223   200225 755100                    STA     I+3,,AUTO
         4 001224   000027 402007                    MPY     23,DL
         4 001225   000100 101406                    MRL     fill='000'O
         4 001226   000000 000001 2                  ADSC9   OPT_TBL,Q                cn=0,n=1
PL6.E3A0      #002=ASL$LIST_OUT File=ASL$EXT.:E05TSI                             TUE 07/29/97 09:59 Page:179
         4 001227   200224 000002                    ADSC9   I+2,,AUTO                cn=0,n=2
         4 001230   200224 220100                    LDX0    I+2,,AUTO
         4 001231   200225 235100                    LDA     I+3,,AUTO
         4 001232   040045 100406                    MLR     fill='040'O
         4 001233   000000 200024 2                  ADSC9   OPT_TBL,Q                cn=1,n=20
         4 001234   000000 000010 xsym               ADSC9   OUT_BUF,A                cn=0,n=*X0

      733    13653    5                 OPT_TBL.HDR(NEXT));
      734    13654    5            HDR_LEN = HDR_LEN + OPT_TBL.LEN(NEXT);

  13654  4 001235   000100 101406                    MRL     fill='000'O
         4 001236   000000 000001 2                  ADSC9   OPT_TBL,Q                cn=0,n=1
         4 001237   200224 000004                    ADSC9   I+2,,AUTO                cn=0,n=4
         4 001240   200224 236100                    LDQ     I+2,,AUTO
         4 001241   300000 036100                    ADLQ    0,,PR3
         4 001242   300000 756100                    STQ     0,,PR3

      735    13655    5            FIELDS = FIELDS + 1;

  13655  4 001243   200006 054100                    AOS     FIELDS,,AUTO

      736    13656    5            CUR_IDX = CUR_IDX + 1;

  13656  4 001244   200201 054100                    AOS     CUR_IDX,,AUTO

      737    13657    5            END;

  13657  4 001245   001251 710000 4                  TRA     s:13663

      738    13658    4         ELSE
      739    13659    4            MORE = '0'B;

  13659  4 001246   200202 450100                    STZ     MORE,,AUTO

      740    13660    4         END;

  13660  4 001247   001251 710000 4                  TRA     s:13663
PL6.E3A0      #002=ASL$LIST_OUT File=ASL$EXT.:E05TSI                             TUE 07/29/97 09:59 Page:180

      741    13661    3      ELSE
      742    13662    3         MORE = '0'B;

  13662  4 001250   200202 450100                    STZ     MORE,,AUTO

      743    13663    3      END;

  13663  4 001251   200202 234100                    SZN     MORE,,AUTO
         4 001252   001112 604000 4                  TMI     s:13638

      744    13664    2   NXT_IDX = CUR_IDX;

  13664  4 001253   200201 235100                    LDA     CUR_IDX,,AUTO
         4 001254   200016 755100                    STA     NXT_IDX,,AUTO

      745    13665    2   RETURN;

  13665  4 001255   200176 221300                    LDX1  ! TMP_LEN+1,,AUTO
         4 001256   000001 702211                    TSX2  ! 1,X1

      746    13666    2   END BUILD_HDR;
      747    13667        %EJECT;
PL6.E3A0      #002=ASL$LIST_OUT File=ASL$EXT.:E05TSI                             TUE 07/29/97 09:59 Page:181
      748    13668    1   LIST_FIELDS: PROC;

  13668  4 001257   200176 741300       LIST_FIELDS  STX1  ! TMP_LEN+1,,AUTO

      749    13669    2   DCL BOG_IDX SBIN;
      750    13670    2   DCL J SBIN;
      751    13671    2   DCL CUR_IDX SBIN;
      752    13672    2   DCL OFFSET SBIN;
      753    13673    2   DCL NEXT UBIN WORD ;
      754    13674    2   DCL TEMP UBIN ;
      755    13675    3   DO SELECT( BOGU ) ;

  13675  4 001260   200004 236100                    LDQ     BOGU,,AUTO
         4 001261   000042 772000                    QRL     34
         4 001262   000001 116007                    CMPQ    1,DL
         4 001263   001271 602000 4                  TNC     s:13675+9
         4 001264   001277 600000 4                  TZE     s:13679
         4 001265   000042 736000                    QLS     34
         4 001266   600000 116003                    CMPQ    -65536,DU
         4 001267   001304 601000 4                  TNZ     s:13683
         4 001270   001302 710000 4                  TRA     s:13681
         4 001271   200004 236100                    LDQ     BOGU,,AUTO
         4 001272   600000 316003                    CANQ    -65536,DU
         4 001273   001275 600000 4                  TZE     s:13677
         4 001274   001304 710000 4                  TRA     s:13683

      756    13676    3      SELECT( 0 ) ;

      757    13677    3      TEMP = 0 ;

  13677  4 001275   200204 450100                    STZ     TEMP,,AUTO
         4 001276   001304 710000 4                  TRA     s:13683

      758    13678    3      SELECT( 1 ) ;

      759    13679    3      TEMP = 3 ;

PL6.E3A0      #002=ASL$LIST_OUT File=ASL$EXT.:E05TSI                             TUE 07/29/97 09:59 Page:182
  13679  4 001277   000003 235007                    LDA     3,DL
         4 001300   200204 755100                    STA     TEMP,,AUTO
         4 001301   001304 710000 4                  TRA     s:13683

      760    13680    3      SELECT( 3 ) ;

      761    13681    3      TEMP = 4 ;

  13681  4 001302   000004 235007                    LDA     4,DL
         4 001303   200204 755100                    STA     TEMP,,AUTO

      762    13682    3      END ;            /* Do case */

      763    13683    2   IF ST_IDX > L_PRIV

  13683  4 001304   200166 235100                    LDA     ST_IDX,,AUTO
         4 001305   000115 115007                    CMPA    77,DL
         4 001306   001312 604400 4                  TMOZ    s:13685

      764    13684    2   THEN OFFSET = L_FEUSER ;

  13684  4 001307   000154 236007                    LDQ     108,DL
         4 001310   200202 756100                    STQ     OFFSET,,AUTO
         4 001311   001313 710000 4                  TRA     s:13686

      765    13685    2   ELSE OFFSET = 0 ;

  13685  4 001312   200202 450100                    STZ     OFFSET,,AUTO

      766    13686    3   DO BOG_IDX=0 TO TEMP;

  13686  4 001313   200177 450100                    STZ     BOG_IDX,,AUTO
         4 001314   001522 710000 4                  TRA     s:13720+1

      767    13687    3      IF DO_FLAG(BOG_IDX + OFFSET) OR ~BOG(1)

  13687  4 001315   200177 236100                    LDQ     BOG_IDX,,AUTO
PL6.E3A0      #002=ASL$LIST_OUT File=ASL$EXT.:E05TSI                             TUE 07/29/97 09:59 Page:183
         4 001316   200202 036100                    ADLQ    OFFSET,,AUTO
         4 001317   001321 605000 4                  TPL     s:13687+4
         4 001320   000044 036003                    ADLQ    36,DU
         4 001321   200003 470500                    LDP0    @DO_FLAG,,AUTO
         4 001322   000000 066506                    CMPB    filb='0'B
         4 001323   000000 000001                    BDSC    0,Q,PR0                  by=0,bit=0,n=1
         4 001324   000002 000022 xsym               BDSC    B_VECTNIL+2              by=0,bit=0,n=18
         4 001325   001333 601000 4                  TNZ     s:13689
         4 001326   200004 236100                    LDQ     BOGU,,AUTO
         4 001327   000001 736000                    QLS     1
         4 001330   400000 376003                    ANQ     -131072,DU
         4 001331   400000 676003                    ERQ     -131072,DU
         4 001332   001521 600000 4                  TZE     s:13720

      768    13688    4      THEN DO;                    /* Report this time through loop      */

      769    13689    4         IF BOG(1)

  13689  4 001333   200004 236100                    LDQ     BOGU,,AUTO
         4 001334   200000 316003                    CANQ    65536,DU
         4 001335   001357 600000 4                  TZE     s:13695

      770    13690    4         THEN
      771    13691    4            IF ST_IDX > L_PRIOB

  13691  4 001336   200166 235100                    LDA     ST_IDX,,AUTO
         4 001337   000114 115007                    CMPA    76,DL
         4 001340   001350 604400 4                  TMOZ    s:13693

      772    13692    4            THEN FMT_VEC(0) = VECTOR(BOG_FE_BUF(BOG_IDX)) ;

  13692  4 001341   777640 235007                    LDA     -96,DL
         4 001342   200177 236100                    LDQ     BOG_IDX,,AUTO
         4 001343   000022 736000                    QLS     18
         4 001344   000035 036000 5                  ADLQ    29
         4 001345   000000 755000 xsym               STA     FMT_VEC
         4 001346   000001 756000 xsym               STQ     FMT_VEC+1
PL6.E3A0      #002=ASL$LIST_OUT File=ASL$EXT.:E05TSI                             TUE 07/29/97 09:59 Page:184
         4 001347   001362 710000 4                  TRA     s:13696

      773    13693    4            ELSE FMT_VEC(0) = VECTOR(BOG_BUF(BOG_IDX));

  13693  4 001350   777640 235007                    LDA     -96,DL
         4 001351   200177 236100                    LDQ     BOG_IDX,,AUTO
         4 001352   000022 736000                    QLS     18
         4 001353   000036 036000 5                  ADLQ    30
         4 001354   000000 755000 xsym               STA     FMT_VEC
         4 001355   000001 756000 xsym               STQ     FMT_VEC+1
         4 001356   001362 710000 4                  TRA     s:13696

      774    13694    4         ELSE
      775    13695    4            FMT_VEC(0) = VECTOR(BOG_BUF(5));

  13695  4 001357   000040 237000 5                  LDAQ    32
         4 001360   000000 755000 xsym               STA     FMT_VEC
         4 001361   000001 756000 xsym               STQ     FMT_VEC+1

      776    13696    4         FDS.NVECS# = 1;

  13696  4 001362   000001 235007                    LDA     1,DL
         4 001363   000011 755000 xsym               STA     FDS+9

      777    13697    4         CALL INSERT(FMT_BUF,0,2,'%A');

  13697  4 001364   005134 220000 2                  LDX0    PRIV_TBL+236
         4 001365   000000 740000 xsym               STX0    FMT_BUF

      778    13698    4         FDS.FMT_.BOUND = 1;

  13698  4 001366   000000 236000 xsym               LDQ     FDS
         4 001367   177777 376007                    ANQ     65535,DL
         4 001370   200000 276007                    ORQ     65536,DL
         4 001371   000000 756000 xsym               STQ     FDS

      779    13699    4         NEXT_TAB = 5;
PL6.E3A0      #002=ASL$LIST_OUT File=ASL$EXT.:E05TSI                             TUE 07/29/97 09:59 Page:185

  13699  4 001372   000005 235007                    LDA     5,DL
         4 001373   200015 755100                    STA     NEXT_TAB,,AUTO

      780    13700    4         SBIN_IDX = 0;

  13700  4 001374   200164 450100                    STZ     SBIN_IDX,,AUTO

      781    13701    4         CUR_IDX = ST_IDX;

  13701  4 001375   200166 235100                    LDA     ST_IDX,,AUTO
         4 001376   200201 755100                    STA     CUR_IDX,,AUTO

      782    13702    5         DO J=1 TO FIELDS;

  13702  4 001377   000001 235007                    LDA     1,DL
         4 001400   200200 755100                    STA     J,,AUTO
         4 001401   001512 710000 4                  TRA     s:13717+1

      783    13703    5            NEXT = OPT_TBL.ORDR( CUR_IDX ) ;

  13703  4 001402   200201 236100                    LDQ     CUR_IDX,,AUTO
         4 001403   000317 402007                    MPY     207,DL
         4 001404   000000 116003                    CMPQ    0,DU
         4 001405   001407 605000 4                  TPL     s:13703+5
         4 001406   000044 036003                    ADLQ    36,DU
         4 001407   003100 061406                    CSR     bolr='003'O
         4 001410   000005 220011 2                  BDSC    OPT_TBL+5,Q              by=1,bit=2,n=9
         4 001411   200203 000044                    BDSC    NEXT,,AUTO               by=0,bit=0,n=36

      784    13704    6            DO WHILE(~DO_FLAG(NEXT) OR OPT_TBL.LEN(NEXT)=0);

  13704  4 001412   001424 710000 4                  TRA     s:13707

      785    13705    6               CUR_IDX = CUR_IDX + 1;

  13705  4 001413   200201 054100                    AOS     CUR_IDX,,AUTO
PL6.E3A0      #002=ASL$LIST_OUT File=ASL$EXT.:E05TSI                             TUE 07/29/97 09:59 Page:186

      786    13706    6               NEXT = OPT_TBL.ORDR(CUR_IDX) ;

  13706  4 001414   200201 236100                    LDQ     CUR_IDX,,AUTO
         4 001415   000317 402007                    MPY     207,DL
         4 001416   000000 116003                    CMPQ    0,DU
         4 001417   001421 605000 4                  TPL     s:13706+5
         4 001420   000044 036003                    ADLQ    36,DU
         4 001421   003100 061406                    CSR     bolr='003'O
         4 001422   000005 220011 2                  BDSC    OPT_TBL+5,Q              by=1,bit=2,n=9
         4 001423   200203 000044                    BDSC    NEXT,,AUTO               by=0,bit=0,n=36

      787    13707    6               END;

  13707  4 001424   200003 470500                    LDP0    @DO_FLAG,,AUTO
         4 001425   200203 235100                    LDA     NEXT,,AUTO
         4 001426   003100 060505                    CSL     bolr='003'O
         4 001427   000000 000001                    BDSC    0,A,PR0                  by=0,bit=0,n=1
         4 001430   200224 000044                    BDSC    I+2,,AUTO                by=0,bit=0,n=36
         4 001431   200224 236100                    LDQ     I+2,,AUTO
         4 001432   400000 676003                    ERQ     -131072,DU
         4 001433   001413 601000 4                  TNZ     s:13705
         4 001434   200203 236100                    LDQ     NEXT,,AUTO
         4 001435   000027 402007                    MPY     23,DL
         4 001436   000100 101406                    MRL     fill='000'O
         4 001437   000000 000001 2                  ADSC9   OPT_TBL,Q                cn=0,n=1
         4 001440   200225 000004                    ADSC9   I+3,,AUTO                cn=0,n=4
         4 001441   200225 236100                    LDQ     I+3,,AUTO
         4 001442   000000 116003                    CMPQ    0,DU
         4 001443   001413 600000 4                  TZE     s:13705

      788    13708    5            SBINS(SBIN_IDX) = NEXT_TAB;

  13708  4 001444   200164 720100                    LXL0    SBIN_IDX,,AUTO
         4 001445   200015 235100                    LDA     NEXT_TAB,,AUTO
         4 001446   200020 755110                    STA     SBINS,X0,AUTO

PL6.E3A0      #002=ASL$LIST_OUT File=ASL$EXT.:E05TSI                             TUE 07/29/97 09:59 Page:187
      789    13709    5            FMT_VEC(FDS.NVECS#) = VECTOR(SBINS(SBIN_IDX)); /* Next tab stop */

  13709  4 001447   000011 236000 xsym               LDQ     FDS+9
         4 001450   000001 736000                    QLS     1
         4 001451   777640 235007                    LDA     -96,DL
         4 001452   200224 452500                    STP2    I+2,,AUTO
         4 001453   000000 621006                    EAX1    0,QL
         4 001454   200164 236100                    LDQ     SBIN_IDX,,AUTO
         4 001455   000022 736000                    QLS     18
         4 001456   000020 036003                    ADLQ    16,DU
         4 001457   200224 036100                    ADLQ    I+2,,AUTO
         4 001460   000000 755011 xsym               STA     FMT_VEC,X1
         4 001461   000001 756011 xsym               STQ     FMT_VEC+1,X1

      790    13710    5            SBIN_IDX = SBIN_IDX + 1;

  13710  4 001462   200164 054100                    AOS     SBIN_IDX,,AUTO

      791    13711    5            FDS.NVECS# = FDS.NVECS# + 1;

  13711  4 001463   000011 054000 xsym               AOS     FDS+9

      792    13712    5            CALL INSERT(FMT_BUF,FDS.FMT_.BOUND+1,3,'%N-'); /* Tab over   */

  13712  4 001464   000000 236000 xsym               LDQ     FDS
         4 001465   000020 772000                    QRL     16
         4 001466   040006 100400                    MLR     fill='040'O
         4 001467   005142 000003 2                  ADSC9   PRIV_TBL+242             cn=0,n=3
         4 001470   000000 200003 xsym               ADSC9   FMT_BUF,Q                cn=1,n=3

      793    13713    5            FDS.FMT_.BOUND = FDS.FMT_.BOUND+3;

  13713  4 001471   000003 036007                    ADLQ    3,DL
         4 001472   000020 736000                    QLS     16
         4 001473   000000 676000 xsym               ERQ     FDS
         4 001474   000034 376000 xsym               ANQ     B_VECTNIL+28
         4 001475   000000 656000 xsym               ERSQ    FDS
PL6.E3A0      #002=ASL$LIST_OUT File=ASL$EXT.:E05TSI                             TUE 07/29/97 09:59 Page:188

      794    13714    5            CALL INSERT_FIELD;

  13714  4 001476   001530 701000 4                  TSX1    INSERT_FIELD
         4 001477   000000 011000                    NOP     0

      795    13715    5            NEXT_TAB = NEXT_TAB + OPT_TBL.LEN(NEXT);

  13715  4 001500   200203 236100                    LDQ     NEXT,,AUTO
         4 001501   000027 402007                    MPY     23,DL
         4 001502   000100 101406                    MRL     fill='000'O
         4 001503   000000 000001 2                  ADSC9   OPT_TBL,Q                cn=0,n=1
         4 001504   200224 000004                    ADSC9   I+2,,AUTO                cn=0,n=4
         4 001505   200224 236100                    LDQ     I+2,,AUTO
         4 001506   200015 036100                    ADLQ    NEXT_TAB,,AUTO
         4 001507   200015 756100                    STQ     NEXT_TAB,,AUTO

      796    13716    5            CUR_IDX = CUR_IDX + 1;

  13716  4 001510   200201 054100                    AOS     CUR_IDX,,AUTO

      797    13717    5            END;

  13717  4 001511   200200 054100                    AOS     J,,AUTO
         4 001512   200200 236100                    LDQ     J,,AUTO
         4 001513   200006 116100                    CMPQ    FIELDS,,AUTO
         4 001514   001402 604400 4                  TMOZ    s:13703

      798    13718    4         CALL X$FORMAT(FDS);

  13718  4 001515   000004 630400 5                  EPPR0   4
         4 001516   000017 631400 xsym               EPPR1   B_VECTNIL+15
         4 001517   000000 701000 xent               TSX1    X$FORMAT
         4 001520   000000 011000                    NOP     0

      799    13719    4         END;

PL6.E3A0      #002=ASL$LIST_OUT File=ASL$EXT.:E05TSI                             TUE 07/29/97 09:59 Page:189
      800    13720    3      END;

  13720  4 001521   200177 054100                    AOS     BOG_IDX,,AUTO
         4 001522   200204 236100                    LDQ     TEMP,,AUTO
         4 001523   001315 604000 4                  TMI     s:13687
         4 001524   200177 116100                    CMPQ    BOG_IDX,,AUTO
         4 001525   001315 605000 4                  TPL     s:13687

      801    13721    2   RETURN;

  13721  4 001526   200176 221300                    LDX1  ! TMP_LEN+1,,AUTO
         4 001527   000001 702211                    TSX2  ! 1,X1

      802    13722        %EJECT;
PL6.E3A0      #002=ASL$LIST_OUT File=ASL$EXT.:E05TSI                             TUE 07/29/97 09:59 Page:190
      803    13723    2   INSERT_FIELD: PROC;

  13723  4 001530   200206 741300       INSERT_FIELD STX1  ! I+1,,AUTO

      804    13724        %SUB C_MONEY = 4;
      805    13725        %SUB C_MODE_TEXT = 5;
      806    13726        %SUB C_MODE_SBIN = 6;
      807    13727        %SUB C_FEMODE_TEXT = 7;
      808    13728        %SUB C_FEMODE_SBIN = 8;
      809    13729    3   DCL YES_NO BIT(1) ALIGNED;
      810    13730    3   DCL SIDX SBIN;
      811    13731    3   DCL MACCT CHAR(21);
      812    13732    3   DCL I UBIN;
      813    13733    3   DCL NEXT UBIN WORD ;
      814    13734    3   NEXT = OPT_TBL.ORDR( CUR_IDX ) ;

  13734  4 001531   200201 236100                    LDQ     CUR_IDX,,AUTO
         4 001532   000317 402007                    MPY     207,DL
         4 001533   000000 116003                    CMPQ    0,DU
         4 001534   001536 605000 4                  TPL     s:13734+5
         4 001535   000044 036003                    ADLQ    36,DU
         4 001536   003100 061406                    CSR     bolr='003'O
         4 001537   000005 220011 2                  BDSC    OPT_TBL+5,Q              by=1,bit=2,n=9
         4 001540   200220 000044                    BDSC    NEXT,,AUTO               by=0,bit=0,n=36

      815    13735    4   DO SELECT(NEXT);

  13735  4 001541   200220 236100                    LDQ     NEXT,,AUTO
         4 001542   000064 116007                    CMPQ    52,DL
         4 001543   001754 602000 4                  TNC     s:13735+139
         4 001544   002766 600000 4                  TZE     s:13863
         4 001545   000104 116007                    CMPQ    68,DL
         4 001546   001675 602000 4                  TNC     s:13735+92
         4 001547   003130 600000 4                  TZE     s:13893
         4 001550   000132 116007                    CMPQ    90,DL
         4 001551   001620 602000 4                  TNC     s:13735+47
         4 001552   003540 600000 4                  TZE     s:13983
PL6.E3A0      #002=ASL$LIST_OUT File=ASL$EXT.:E05TSI                             TUE 07/29/97 09:59 Page:191
         4 001553   000172 116007                    CMPQ    122,DL
         4 001554   001573 602000 4                  TNC     s:13735+26
         4 001555   004070 600000 4                  TZE     s:14070
         4 001556   000174 116007                    CMPQ    124,DL
         4 001557   001570 602000 4                  TNC     s:13735+23
         4 001560   004110 600000 4                  TZE     s:14076
         4 001561   000177 116007                    CMPQ    127,DL
         4 001562   001565 602000 4                  TNC     s:13735+20
         4 001563   003434 600000 4                  TZE     s:13962
         4 001564   004131 710000 4                  TRA     s:14082
         4 001565   000175 116007                    CMPQ    125,DL
         4 001566   004131 601000 4                  TNZ     s:14082
         4 001567   004117 710000 4                  TRA     s:14079
         4 001570   000173 116007                    CMPQ    123,DL
         4 001571   004131 601000 4                  TNZ     s:14082
         4 001572   004101 710000 4                  TRA     s:14073
         4 001573   000163 116007                    CMPQ    115,DL
         4 001574   001607 602000 4                  TNC     s:13735+38
         4 001575   004034 600000 4                  TZE     s:14058
         4 001576   000165 116007                    CMPQ    117,DL
         4 001577   001604 602000 4                  TNC     s:13735+35
         4 001600   004051 600000 4                  TZE     s:14064
         4 001601   000171 116007                    CMPQ    121,DL
         4 001602   004131 601000 4                  TNZ     s:14082
         4 001603   004061 710000 4                  TRA     s:14067
         4 001604   000164 116007                    CMPQ    116,DL
         4 001605   004131 601000 4                  TNZ     s:14082
         4 001606   004041 710000 4                  TRA     s:14061
         4 001607   000161 116007                    CMPQ    113,DL
         4 001610   001615 602000 4                  TNC     s:13735+44
         4 001611   004005 600000 4                  TZE     s:14046
         4 001612   000162 116007                    CMPQ    114,DL
         4 001613   004131 601000 4                  TNZ     s:14082
         4 001614   004013 710000 4                  TRA     s:14049
         4 001615   000160 116007                    CMPQ    112,DL
         4 001616   004131 601000 4                  TNZ     s:14082
         4 001617   003777 710000 4                  TRA     s:14043
PL6.E3A0      #002=ASL$LIST_OUT File=ASL$EXT.:E05TSI                             TUE 07/29/97 09:59 Page:192
         4 001620   000124 116007                    CMPQ    84,DL
         4 001621   001646 602000 4                  TNC     s:13735+69
         4 001622   003457 600000 4                  TZE     s:13968
         4 001623   000127 116007                    CMPQ    87,DL
         4 001624   001636 602000 4                  TNC     s:13735+61
         4 001625   003466 600000 4                  TZE     s:13971
         4 001626   000131 116007                    CMPQ    89,DL
         4 001627   001632 602000 4                  TNC     s:13735+57
         4 001630   003526 600000 4                  TZE     s:13980
         4 001631   004131 710000 4                  TRA     s:14082
         4 001632   200220 235100                    LDA     NEXT,,AUTO
         4 001633   000130 115007                    CMPA    88,DL
         4 001634   004131 601000 4                  TNZ     s:14082
         4 001635   003547 710000 4                  TRA     s:13986
         4 001636   200220 236100                    LDQ     NEXT,,AUTO
         4 001637   000126 116007                    CMPQ    86,DL
         4 001640   001643 602000 4                  TNC     s:13735+66
         4 001641   003500 600000 4                  TZE     s:13974
         4 001642   004131 710000 4                  TRA     s:14082
         4 001643   000125 116007                    CMPQ    85,DL
         4 001644   004131 601000 4                  TNZ     s:14082
         4 001645   003510 710000 4                  TRA     s:13977
         4 001646   000110 116007                    CMPQ    72,DL
         4 001647   001663 602000 4                  TNC     s:13735+82
         4 001650   003354 600000 4                  TZE     s:13943
         4 001651   000114 116007                    CMPQ    76,DL
         4 001652   001657 602000 4                  TNC     s:13735+78
         4 001653   003421 600000 4                  TZE     s:13959
         4 001654   000123 116007                    CMPQ    83,DL
         4 001655   004131 601000 4                  TNZ     s:14082
         4 001656   003446 710000 4                  TRA     s:13965
         4 001657   200220 235100                    LDA     NEXT,,AUTO
         4 001660   000113 115007                    CMPA    75,DL
         4 001661   004131 601000 4                  TNZ     s:14082
         4 001662   003364 710000 4                  TRA     s:13947
         4 001663   200220 236100                    LDQ     NEXT,,AUTO
         4 001664   000106 116007                    CMPQ    70,DL
PL6.E3A0      #002=ASL$LIST_OUT File=ASL$EXT.:E05TSI                             TUE 07/29/97 09:59 Page:193
         4 001665   001672 602000 4                  TNC     s:13735+89
         4 001666   003275 600000 4                  TZE     s:13928
         4 001667   000107 116007                    CMPQ    71,DL
         4 001670   004131 601000 4                  TNZ     s:14082
         4 001671   003323 710000 4                  TRA     s:13935
         4 001672   000105 116007                    CMPQ    69,DL
         4 001673   004131 601000 4                  TNZ     s:14082
         4 001674   003233 710000 4                  TRA     s:13920
         4 001675   000074 116007                    CMPQ    60,DL
         4 001676   001727 602000 4                  TNC     s:13735+118
         4 001677   003130 600000 4                  TZE     s:13893
         4 001700   000100 116007                    CMPQ    64,DL
         4 001701   001715 602000 4                  TNC     s:13735+108
         4 001702   003130 600000 4                  TZE     s:13893
         4 001703   000102 116007                    CMPQ    66,DL
         4 001704   001711 602000 4                  TNC     s:13735+104
         4 001705   003130 600000 4                  TZE     s:13893
         4 001706   000103 116007                    CMPQ    67,DL
         4 001707   004131 601000 4                  TNZ     s:14082
         4 001710   003130 710000 4                  TRA     s:13893
         4 001711   200220 235100                    LDA     NEXT,,AUTO
         4 001712   000101 115007                    CMPA    65,DL
         4 001713   004131 601000 4                  TNZ     s:14082
         4 001714   003130 710000 4                  TRA     s:13893
         4 001715   200220 236100                    LDQ     NEXT,,AUTO
         4 001716   000076 116007                    CMPQ    62,DL
         4 001717   001724 602000 4                  TNC     s:13735+115
         4 001720   003130 600000 4                  TZE     s:13893
         4 001721   000077 116007                    CMPQ    63,DL
         4 001722   004131 601000 4                  TNZ     s:14082
         4 001723   003130 710000 4                  TRA     s:13893
         4 001724   000075 116007                    CMPQ    61,DL
         4 001725   004131 601000 4                  TNZ     s:14082
         4 001726   003130 710000 4                  TRA     s:13893
         4 001727   000070 116007                    CMPQ    56,DL
         4 001730   001743 602000 4                  TNC     s:13735+130
         4 001731   002766 600000 4                  TZE     s:13863
PL6.E3A0      #002=ASL$LIST_OUT File=ASL$EXT.:E05TSI                             TUE 07/29/97 09:59 Page:194
         4 001732   000072 116007                    CMPQ    58,DL
         4 001733   001740 602000 4                  TNC     s:13735+127
         4 001734   002766 600000 4                  TZE     s:13863
         4 001735   000073 116007                    CMPQ    59,DL
         4 001736   004131 601000 4                  TNZ     s:14082
         4 001737   002766 710000 4                  TRA     s:13863
         4 001740   000071 116007                    CMPQ    57,DL
         4 001741   004131 601000 4                  TNZ     s:14082
         4 001742   002766 710000 4                  TRA     s:13863
         4 001743   000066 116007                    CMPQ    54,DL
         4 001744   001751 602000 4                  TNC     s:13735+136
         4 001745   002766 600000 4                  TZE     s:13863
         4 001746   000067 116007                    CMPQ    55,DL
         4 001747   004131 601000 4                  TNZ     s:14082
         4 001750   002766 710000 4                  TRA     s:13863
         4 001751   000065 116007                    CMPQ    53,DL
         4 001752   004131 601000 4                  TNZ     s:14082
         4 001753   002766 710000 4                  TRA     s:13863
         4 001754   000035 116007                    CMPQ    29,DL
         4 001755   002073 602000 4                  TNC     s:13735+218
         4 001756   003571 600000 4                  TZE     s:13992
         4 001757   000051 116007                    CMPQ    41,DL
         4 001760   002025 602000 4                  TNC     s:13735+180
         4 001761   003724 600000 4                  TZE     s:14028
         4 001762   000056 116007                    CMPQ    46,DL
         4 001763   002007 602000 4                  TNC     s:13735+166
         4 001764   002535 600000 4                  TZE     s:13821
         4 001765   000061 116007                    CMPQ    49,DL
         4 001766   002000 602000 4                  TNC     s:13735+159
         4 001767   002752 600000 4                  TZE     s:13859
         4 001770   000063 116007                    CMPQ    51,DL
         4 001771   001774 602000 4                  TNC     s:13735+155
         4 001772   002766 600000 4                  TZE     s:13863
         4 001773   004131 710000 4                  TRA     s:14082
         4 001774   200220 235100                    LDA     NEXT,,AUTO
         4 001775   000062 115007                    CMPA    50,DL
         4 001776   004131 601000 4                  TNZ     s:14082
PL6.E3A0      #002=ASL$LIST_OUT File=ASL$EXT.:E05TSI                             TUE 07/29/97 09:59 Page:195
         4 001777   003405 710000 4                  TRA     s:13955
         4 002000   200220 236100                    LDQ     NEXT,,AUTO
         4 002001   000057 116007                    CMPQ    47,DL
         4 002002   004131 602000 4                  TNC     s:14082
         4 002003   002526 600000 4                  TZE     s:13818
         4 002004   000060 116007                    CMPQ    48,DL
         4 002005   004131 601000 4                  TNZ     s:14082
         4 002006   003375 710000 4                  TRA     s:13951
         4 002007   200220 236100                    LDQ     NEXT,,AUTO
         4 002010   000053 116007                    CMPQ    43,DL
         4 002011   002021 602000 4                  TNC     s:13735+176
         4 002012   003744 600000 4                  TZE     s:14034
         4 002013   000054 116007                    CMPQ    44,DL
         4 002014   004131 602000 4                  TNC     s:14082
         4 002015   003755 600000 4                  TZE     s:14037
         4 002016   000055 116007                    CMPQ    45,DL
         4 002017   004131 601000 4                  TNZ     s:14082
         4 002020   003766 710000 4                  TRA     s:14040
         4 002021   200220 235100                    LDA     NEXT,,AUTO
         4 002022   000052 115007                    CMPA    42,DL
         4 002023   004131 601000 4                  TNZ     s:14082
         4 002024   003733 710000 4                  TRA     s:14031
         4 002025   200220 236100                    LDQ     NEXT,,AUTO
         4 002026   000045 116007                    CMPQ    37,DL
         4 002027   002043 602000 4                  TNC     s:13735+194
         4 002030   003670 600000 4                  TZE     s:14016
         4 002031   000047 116007                    CMPQ    39,DL
         4 002032   002037 602000 4                  TNC     s:13735+190
         4 002033   003706 600000 4                  TZE     s:14022
         4 002034   000050 116007                    CMPQ    40,DL
         4 002035   004131 601000 4                  TNZ     s:14082
         4 002036   003715 710000 4                  TRA     s:14025
         4 002037   200220 235100                    LDA     NEXT,,AUTO
         4 002040   000046 115007                    CMPA    38,DL
         4 002041   004131 601000 4                  TNZ     s:14082
         4 002042   003677 710000 4                  TRA     s:14019
         4 002043   200220 236100                    LDQ     NEXT,,AUTO
PL6.E3A0      #002=ASL$LIST_OUT File=ASL$EXT.:E05TSI                             TUE 07/29/97 09:59 Page:196
         4 002044   000041 116007                    CMPQ    33,DL
         4 002045   002061 602000 4                  TNC     s:13735+208
         4 002046   003634 600000 4                  TZE     s:14004
         4 002047   000043 116007                    CMPQ    35,DL
         4 002050   002055 602000 4                  TNC     s:13735+204
         4 002051   003652 600000 4                  TZE     s:14010
         4 002052   000044 116007                    CMPQ    36,DL
         4 002053   004131 601000 4                  TNZ     s:14082
         4 002054   003661 710000 4                  TRA     s:14013
         4 002055   200220 235100                    LDA     NEXT,,AUTO
         4 002056   000042 115007                    CMPA    34,DL
         4 002057   004131 601000 4                  TNZ     s:14082
         4 002060   003643 710000 4                  TRA     s:14007
         4 002061   200220 236100                    LDQ     NEXT,,AUTO
         4 002062   000037 116007                    CMPQ    31,DL
         4 002063   002070 602000 4                  TNC     s:13735+215
         4 002064   003614 600000 4                  TZE     s:13998
         4 002065   000040 116007                    CMPQ    32,DL
         4 002066   004131 601000 4                  TNZ     s:14082
         4 002067   003625 710000 4                  TRA     s:14001
         4 002070   000036 116007                    CMPQ    30,DL
         4 002071   004131 601000 4                  TNZ     s:14082
         4 002072   003603 710000 4                  TRA     s:13995
         4 002073   000024 116007                    CMPQ    20,DL
         4 002074   002131 602000 4                  TNC     s:13735+248
         4 002075   002510 600000 4                  TZE     s:13812
         4 002076   000031 116007                    CMPQ    25,DL
         4 002077   002113 602000 4                  TNC     s:13735+234
         4 002100   002304 600000 4                  TZE     s:13759
         4 002101   000033 116007                    CMPQ    27,DL
         4 002102   002107 602000 4                  TNC     s:13735+230
         4 002103   002700 600000 4                  TZE     s:13847
         4 002104   000034 116007                    CMPQ    28,DL
         4 002105   004131 601000 4                  TNZ     s:14082
         4 002106   003557 710000 4                  TRA     s:13989
         4 002107   200220 235100                    LDA     NEXT,,AUTO
         4 002110   000032 115007                    CMPA    26,DL
PL6.E3A0      #002=ASL$LIST_OUT File=ASL$EXT.:E05TSI                             TUE 07/29/97 09:59 Page:197
         4 002111   004131 601000 4                  TNZ     s:14082
         4 002112   002624 710000 4                  TRA     s:13833
         4 002113   200220 236100                    LDQ     NEXT,,AUTO
         4 002114   000026 116007                    CMPQ    22,DL
         4 002115   002125 602000 4                  TNC     s:13735+244
         4 002116   002544 600000 4                  TZE     s:13824
         4 002117   000027 116007                    CMPQ    23,DL
         4 002120   004131 602000 4                  TNC     s:14082
         4 002121   002562 600000 4                  TZE     s:13827
         4 002122   000030 116007                    CMPQ    24,DL
         4 002123   004131 601000 4                  TNZ     s:14082
         4 002124   002603 710000 4                  TRA     s:13830
         4 002125   200220 235100                    LDA     NEXT,,AUTO
         4 002126   000025 115007                    CMPA    21,DL
         4 002127   004131 601000 4                  TNZ     s:14082
         4 002130   002517 710000 4                  TRA     s:13815
         4 002131   200220 236100                    LDQ     NEXT,,AUTO
         4 002132   000016 116007                    CMPQ    14,DL
         4 002133   002156 602000 4                  TNC     s:13735+269
         4 002134   002347 600000 4                  TZE     s:13774
         4 002135   000022 116007                    CMPQ    18,DL
         4 002136   002143 602000 4                  TNC     s:13735+258
         4 002137   002472 600000 4                  TZE     s:13806
         4 002140   000023 116007                    CMPQ    19,DL
         4 002141   004131 601000 4                  TNZ     s:14082
         4 002142   002501 710000 4                  TRA     s:13809
         4 002143   200220 236100                    LDQ     NEXT,,AUTO
         4 002144   000020 116007                    CMPQ    16,DL
         4 002145   002152 602000 4                  TNC     s:13735+265
         4 002146   002412 600000 4                  TZE     s:13792
         4 002147   000021 116007                    CMPQ    17,DL
         4 002150   004131 601000 4                  TNZ     s:14082
         4 002151   002417 710000 4                  TRA     s:13795
         4 002152   200220 235100                    LDA     NEXT,,AUTO
         4 002153   000017 115007                    CMPA    15,DL
         4 002154   004131 601000 4                  TNZ     s:14082
         4 002155   002371 710000 4                  TRA     s:13783
PL6.E3A0      #002=ASL$LIST_OUT File=ASL$EXT.:E05TSI                             TUE 07/29/97 09:59 Page:198
         4 002156   200220 236100                    LDQ     NEXT,,AUTO
         4 002157   000012 116007                    CMPQ    10,DL
         4 002160   002174 602000 4                  TNC     s:13735+283
         4 002161   002245 600000 4                  TZE     s:13750
         4 002162   000014 116007                    CMPQ    12,DL
         4 002163   002170 602000 4                  TNC     s:13735+279
         4 002164   002313 600000 4                  TZE     s:13762
         4 002165   000015 116007                    CMPQ    13,DL
         4 002166   004131 601000 4                  TNZ     s:14082
         4 002167   002325 710000 4                  TRA     s:13765
         4 002170   200220 235100                    LDA     NEXT,,AUTO
         4 002171   000013 115007                    CMPA    11,DL
         4 002172   004131 601000 4                  TNZ     s:14082
         4 002173   002275 710000 4                  TRA     s:13756
         4 002174   200220 236100                    LDQ     NEXT,,AUTO
         4 002175   000010 116007                    CMPQ    8,DL
         4 002176   002203 602000 4                  TNC     s:13735+290
         4 002177   002220 600000 4                  TZE     s:13740
         4 002200   000011 116007                    CMPQ    9,DL
         4 002201   004131 601000 4                  TNZ     s:14082
         4 002202   002232 710000 4                  TRA     s:13743
         4 002203   000007 116007                    CMPQ    7,DL
         4 002204   004131 601000 4                  TNZ     s:14082
         4 002205   002206 710000 4                  TRA     s:13737

      816    13736    4      SELECT(L_HSET);

      817    13737    4      FMT_VEC(FDS.NVECS#) = VECTOR(KL_DREC.HPS.N);

  13737  4 002206   000011 235000 xsym               LDA     FDS+9
         4 002207   000001 735000                    ALS     1
         4 002210   000000 620005                    EAX0    0,AL
         4 002211   000000 621005                    EAX1    0,AL
         4 002212   000042 237000 5                  LDAQ    34
         4 002213   000000 755010 xsym               STA     FMT_VEC,X0
         4 002214   000001 756011 xsym               STQ     FMT_VEC+1,X1

PL6.E3A0      #002=ASL$LIST_OUT File=ASL$EXT.:E05TSI                             TUE 07/29/97 09:59 Page:199
      818    13738    4      CLASS = C_TEXT;

  13738  4 002215   000001 235007                    LDA     1,DL
         4 002216   200005 755100                    STA     CLASS,,AUTO
         4 002217   004131 710000 4                  TRA     s:14082

      819    13739    4      SELECT(L_NATIVE);

      820    13740    4      FMT_VEC(FDS.NVECS#) = VECTOR(AS_USERS.NAT_LANG);

  13740  4 002220   000011 235000 xsym               LDA     FDS+9
         4 002221   000001 735000                    ALS     1
         4 002222   000000 620005                    EAX0    0,AL
         4 002223   000000 621005                    EAX1    0,AL
         4 002224   000044 237000 5                  LDAQ    36
         4 002225   000000 755010 xsym               STA     FMT_VEC,X0
         4 002226   000001 756011 xsym               STQ     FMT_VEC+1,X1

      821    13741    4      CLASS = C_TEXT;

  13741  4 002227   000001 235007                    LDA     1,DL
         4 002230   200005 755100                    STA     CLASS,,AUTO
         4 002231   004131 710000 4                  TRA     s:14082

      822    13742    4      SELECT(L_PASS);

      823    13743    4      IF BLANK_PASS=KL_DREC.PASSWORD

  13743  4 002232   040000 106400                    CMPC    fill='040'O
         4 002233   000000 000010 xsym               ADSC9   BLANK_PASS               cn=0,n=8
         4 002234   000002 000010 xsym               ADSC9   KL_DREC+2                cn=0,n=8
         4 002235   002240 601000 4                  TNZ     s:13747

      824    13744    4      THEN
      825    13745    4         YES_NO = '0'B;

  13745  4 002236   200207 450100                    STZ     YES_NO,,AUTO
PL6.E3A0      #002=ASL$LIST_OUT File=ASL$EXT.:E05TSI                             TUE 07/29/97 09:59 Page:200
         4 002237   002242 710000 4                  TRA     s:13748

      826    13746    4      ELSE
      827    13747    4         YES_NO = '1'B;

  13747  4 002240   400000 236003                    LDQ     -131072,DU
         4 002241   200207 756100                    STQ     YES_NO,,AUTO

      828    13748    4      CLASS = C_YESNO;

  13748  4 002242   000002 235007                    LDA     2,DL
         4 002243   200005 755100                    STA     CLASS,,AUTO
         4 002244   004131 710000 4                  TRA     s:14082

      829    13749    4      SELECT(L_PRO);

      830    13750    4      IF KL_DREC.PNAME.CNT = 0 THEN

  13750  4 002245   000004 236000 xsym               LDQ     KL_DREC+4
         4 002246   777000 316003                    CANQ    -512,DU
         4 002247   002260 601000 4                  TNZ     s:13753

      831    13751    4         FMT_VEC(FDS.NVECS#) = VECTOR(NO_PROFILE_STR);

  13751  4 002250   000011 235000 xsym               LDA     FDS+9
         4 002251   000001 735000                    ALS     1
         4 002252   000000 620005                    EAX0    0,AL
         4 002253   000000 621005                    EAX1    0,AL
         4 002254   000046 237000 5                  LDAQ    38
         4 002255   000000 755010 xsym               STA     FMT_VEC,X0
         4 002256   000001 756011 xsym               STQ     FMT_VEC+1,X1
         4 002257   002272 710000 4                  TRA     s:13754

      832    13752    4      ELSE
      833    13753    4         FMT_VEC(FDS.NVECS#) = VECTOR(ADDR(KL_DREC.PNAME)->TEXT$C.C);

  13753  4 002260   000011 235000 xsym               LDA     FDS+9
PL6.E3A0      #002=ASL$LIST_OUT File=ASL$EXT.:E05TSI                             TUE 07/29/97 09:59 Page:201
         4 002261   000001 735000                    ALS     1
         4 002262   000004 236000 xsym               LDQ     KL_DREC+4
         4 002263   000033 772000                    QRL     27
         4 002264   000000 620005                    EAX0    0,AL
         4 002265   000064 737000                    LLS     52
         4 002266   000140 135007                    SBLA    96,DL
         4 002267   000050 236000 5                  LDQ     40
         4 002270   000000 755010 xsym               STA     FMT_VEC,X0
         4 002271   000001 756010 xsym               STQ     FMT_VEC+1,X0

      834    13754    4      CLASS = C_TEXT;

  13754  4 002272   000001 235007                    LDA     1,DL
         4 002273   200005 755100                    STA     CLASS,,AUTO
         4 002274   004131 710000 4                  TRA     s:14082

      835    13755    4      SELECT(L_STEPACCT);

      836    13756    4      YES_NO = AS_USERS.STEPACCNT;

  13756  4 002275   000005 236000 xsym               LDQ     AS_USERS+5
         4 002276   000011 736000                    QLS     9
         4 002277   400000 376003                    ANQ     -131072,DU
         4 002300   200207 756100                    STQ     YES_NO,,AUTO

      837    13757    4      CLASS = C_YESNO;

  13757  4 002301   000002 235007                    LDA     2,DL
         4 002302   200005 755100                    STA     CLASS,,AUTO
         4 002303   004131 710000 4                  TRA     s:14082

      838    13758    4      SELECT(L_STARS_ACCT);

      839    13759    4      YES_NO = AS_USERS.FLAGS.STARSACC;

  13759  4 002304   000244 236000 xsym               LDQ     AS_USERS+164
         4 002305   000005 736000                    QLS     5
PL6.E3A0      #002=ASL$LIST_OUT File=ASL$EXT.:E05TSI                             TUE 07/29/97 09:59 Page:202
         4 002306   400000 376003                    ANQ     -131072,DU
         4 002307   200207 756100                    STQ     YES_NO,,AUTO

      840    13760    4      CLASS = C_YESNO;

  13760  4 002310   000002 235007                    LDA     2,DL
         4 002311   200005 755100                    STA     CLASS,,AUTO
         4 002312   004131 710000 4                  TRA     s:14082

      841    13761    4      SELECT(L_WSN);

      842    13762    4      FMT_VEC(FDS.NVECS#) = VECTOR(KL_DREC.WOO);

  13762  4 002313   000011 235000 xsym               LDA     FDS+9
         4 002314   000001 735000                    ALS     1
         4 002315   000000 620005                    EAX0    0,AL
         4 002316   000000 621005                    EAX1    0,AL
         4 002317   000052 237000 5                  LDAQ    42
         4 002320   000000 755010 xsym               STA     FMT_VEC,X0
         4 002321   000001 756011 xsym               STQ     FMT_VEC+1,X1

      843    13763    4      CLASS = C_TEXT;

  13763  4 002322   000001 235007                    LDA     1,DL
         4 002323   200005 755100                    STA     CLASS,,AUTO
         4 002324   004131 710000 4                  TRA     s:14082

      844    13764    4      SELECT(L_MEXP);

      845    13765    5      IF AS_USERS.MEXP=-1 THEN DO;

  13765  4 002325   000242 235000 xsym               LDA     AS_USERS+162
         4 002326   000027 115000 xsym               CMPA    B_VECTNIL+23
         4 002327   002342 601000 4                  TNZ     s:13770

      846    13766    5         FMT_VEC(FDS.NVECS#) = VECTOR(NEVER_STR);

PL6.E3A0      #002=ASL$LIST_OUT File=ASL$EXT.:E05TSI                             TUE 07/29/97 09:59 Page:203
  13766  4 002330   000011 236000 xsym               LDQ     FDS+9
         4 002331   000001 736000                    QLS     1
         4 002332   000000 620006                    EAX0    0,QL
         4 002333   000000 621006                    EAX1    0,QL
         4 002334   000054 237000 5                  LDAQ    44
         4 002335   000000 755010 xsym               STA     FMT_VEC,X0
         4 002336   000001 756011 xsym               STQ     FMT_VEC+1,X1

      847    13767    5         CLASS = C_TEXT;

  13767  4 002337   000001 235007                    LDA     1,DL
         4 002340   200005 755100                    STA     CLASS,,AUTO

      848    13768    5         END;

  13768  4 002341   004131 710000 4                  TRA     s:14082

      849    13769    5      ELSE DO;

      850    13770    5         SBINS(SBIN_IDX) = AS_USERS.MEXP;

  13770  4 002342   200164 720100                    LXL0    SBIN_IDX,,AUTO
         4 002343   200020 755110                    STA     SBINS,X0,AUTO

      851    13771    5         CLASS = C_SBIN;

  13771  4 002344   000014 236007                    LDQ     12,DL
         4 002345   200005 756100                    STQ     CLASS,,AUTO

      852    13772    5         END;

  13772  4 002346   004131 710000 4                  TRA     s:14082

      853    13773    4      SELECT(L_DEXP);

      854    13774    5      IF AS_USERS.DEXP=-1 THEN DO;

PL6.E3A0      #002=ASL$LIST_OUT File=ASL$EXT.:E05TSI                             TUE 07/29/97 09:59 Page:204
  13774  4 002347   000243 235000 xsym               LDA     AS_USERS+163
         4 002350   000027 115000 xsym               CMPA    B_VECTNIL+23
         4 002351   002364 601000 4                  TNZ     s:13779

      855    13775    5         FMT_VEC(FDS.NVECS#) = VECTOR(NEVER_STR);

  13775  4 002352   000011 236000 xsym               LDQ     FDS+9
         4 002353   000001 736000                    QLS     1
         4 002354   000000 620006                    EAX0    0,QL
         4 002355   000000 621006                    EAX1    0,QL
         4 002356   000054 237000 5                  LDAQ    44
         4 002357   000000 755010 xsym               STA     FMT_VEC,X0
         4 002360   000001 756011 xsym               STQ     FMT_VEC+1,X1

      856    13776    5         CLASS = C_TEXT;

  13776  4 002361   000001 235007                    LDA     1,DL
         4 002362   200005 755100                    STA     CLASS,,AUTO

      857    13777    5         END;

  13777  4 002363   004131 710000 4                  TRA     s:14082

      858    13778    5      ELSE DO;

      859    13779    5         SBINS(SBIN_IDX) = AS_USERS.DEXP;

  13779  4 002364   200164 720100                    LXL0    SBIN_IDX,,AUTO
         4 002365   200020 755110                    STA     SBINS,X0,AUTO

      860    13780    5         CLASS = C_SBIN;

  13780  4 002366   000014 236007                    LDQ     12,DL
         4 002367   200005 756100                    STQ     CLASS,,AUTO

      861    13781    5         END;

PL6.E3A0      #002=ASL$LIST_OUT File=ASL$EXT.:E05TSI                             TUE 07/29/97 09:59 Page:205
  13781  4 002370   004131 710000 4                  TRA     s:14082

      862    13782    4      SELECT(L_MAXC);

      863    13783    5      IF AS_USERS.BUDGET.MAXC = -1 THEN DO;

  13783  4 002371   000006 235000 xsym               LDA     AS_USERS+6
         4 002372   000027 115000 xsym               CMPA    B_VECTNIL+23
         4 002373   002406 601000 4                  TNZ     s:13788

      864    13784    5         FMT_VEC(FDS.NVECS#) = VECTOR(NONE_STR);

  13784  4 002374   000011 236000 xsym               LDQ     FDS+9
         4 002375   000001 736000                    QLS     1
         4 002376   000000 620006                    EAX0    0,QL
         4 002377   000000 621006                    EAX1    0,QL
         4 002400   000056 237000 5                  LDAQ    46
         4 002401   000000 755010 xsym               STA     FMT_VEC,X0
         4 002402   000001 756011 xsym               STQ     FMT_VEC+1,X1

      865    13785    5         CLASS = C_TEXT;

  13785  4 002403   000001 235007                    LDA     1,DL
         4 002404   200005 755100                    STA     CLASS,,AUTO

      866    13786    5         END;

  13786  4 002405   004131 710000 4                  TRA     s:14082

      867    13787    5      ELSE DO;

      868    13788    5         SVAL = AS_USERS.BUDGET.MAXC;

  13788  4 002406   200165 755100                    STA     SVAL,,AUTO

      869    13789    5         CLASS = C_MONEY;

PL6.E3A0      #002=ASL$LIST_OUT File=ASL$EXT.:E05TSI                             TUE 07/29/97 09:59 Page:206
  13789  4 002407   000004 236007                    LDQ     4,DL
         4 002410   200005 756100                    STQ     CLASS,,AUTO

      870    13790    5         END;

  13790  4 002411   004131 710000 4                  TRA     s:14082

      871    13791    4      SELECT(L_ACCUM);

      872    13792    4      SVAL = AS_USERS.BUDGET.ACCUM;

  13792  4 002412   000007 235000 xsym               LDA     AS_USERS+7
         4 002413   200165 755100                    STA     SVAL,,AUTO

      873    13793    4      CLASS = C_MONEY;

  13793  4 002414   000004 236007                    LDQ     4,DL
         4 002415   200005 756100                    STQ     CLASS,,AUTO
         4 002416   004131 710000 4                  TRA     s:14082

      874    13794    4      SELECT(L_MACCT);

      875    13795    4      IF AS_USERS.BUDGET.MACCT = AS_NONE

  13795  4 002417   000000 106400                    CMPC    fill='000'O
         4 002420   000012 000025 xsym               ADSC9   AS_USERS+10              cn=0,n=21
         4 002421   000000 000025 xsym               ADSC9   AS_NONE                  cn=0,n=21
         4 002422   002427 601000 4                  TNZ     s:13799

      876    13796    4      THEN
      877    13797    4         MACCT = AS_NONE.TEXT;

  13797  4 002423   040100 100400                    MLR     fill='040'O
         4 002424   000000 200024 xsym               ADSC9   AS_NONE                  cn=1,n=20
         4 002425   200211 000025                    ADSC9   MACCT,,AUTO              cn=0,n=21
         4 002426   002456 710000 4                  TRA     s:13803

PL6.E3A0      #002=ASL$LIST_OUT File=ASL$EXT.:E05TSI                             TUE 07/29/97 09:59 Page:207
      878    13798    5      ELSE DO;

      879    13799    5         CALL INDEX(SVAL,' ',AS_USERS.BUDGET.MACCT.ACCT);

  13799  4 002427   000000 124400                    SCM     mask='000'O
         4 002430   000012 200010 xsym               ADSC9   AS_USERS+10              cn=1,n=8
         4 002431   000035 000001 xsym               ADSC9   B_VECTNIL+29             cn=0,n=1
         4 002432   200165 000100                    ARG     SVAL,,AUTO

      880    13800    5         CALL CONCAT(MACCT,SUBSTR(AS_USERS.BUDGET.MACCT.ACCT,0,SVAL),

  13800  4 002433   200165 720100                    LXL0    SVAL,,AUTO
         4 002434   040100 100440                    MLR     fill='040'O
         4 002435   000012 200010 xsym               ADSC9   AS_USERS+10              cn=1,n=*X0
         4 002436   200211 000025                    ADSC9   MACCT,,AUTO              cn=0,n=21
         4 002437   200165 236100                    LDQ     SVAL,,AUTO
         4 002440   000025 116007                    CMPQ    21,DL
         4 002441   002456 605000 4                  TPL     s:13803
         4 002442   777752 621006                    EAX1    -22,QL
         4 002443   777777 661003                    ERX1    -1,DU
         4 002444   040146 100400                    MLR     fill='040'O
         4 002445   000000 000001 5                  ADSC9   0                        cn=0,n=1
         4 002446   200211 000011                    ADSC9   MACCT,Q,AUTO             cn=0,n=*X1
         4 002447   000024 116007                    CMPQ    20,DL
         4 002450   002456 605000 4                  TPL     s:13803
         4 002451   777753 622006                    EAX2    -21,QL
         4 002452   777777 662003                    ERX2    -1,DU
         4 002453   040146 100400                    MLR     fill='040'O
         4 002454   000014 200014 xsym               ADSC9   AS_USERS+12              cn=1,n=12
         4 002455   200211 200012                    ADSC9   MACCT,Q,AUTO             cn=1,n=*X2

      881    13801    5              ',',AS_USERS.BUDGET.MACCT.NAME);
      882    13802    5         END;

      883    13803    4      FMT_VEC(FDS.NVECS#) = VECTOR(MACCT);

  13803  4 002456   000011 235000 xsym               LDA     FDS+9
PL6.E3A0      #002=ASL$LIST_OUT File=ASL$EXT.:E05TSI                             TUE 07/29/97 09:59 Page:208
         4 002457   000001 735000                    ALS     1
         4 002460   000000 620005                    EAX0    0,AL
         4 002461   000060 235000 5                  LDA     48
         4 002462   200224 452500                    STP2    I+2,,AUTO
         4 002463   200224 236100                    LDQ     I+2,,AUTO
         4 002464   000211 036003                    ADLQ    137,DU
         4 002465   000000 755010 xsym               STA     FMT_VEC,X0
         4 002466   000001 756010 xsym               STQ     FMT_VEC+1,X0

      884    13804    4      CLASS = C_TEXT;

  13804  4 002467   000001 235007                    LDA     1,DL
         4 002470   200005 755100                    STA     CLASS,,AUTO
         4 002471   004131 710000 4                  TRA     s:14082

      885    13805    4      SELECT(L_BKACC);

      886    13806    4      YES_NO = AS_USERS.BUDGET.BKACC;

  13806  4 002472   000017 236000 xsym               LDQ     AS_USERS+15
         4 002473   000011 736000                    QLS     9
         4 002474   400000 376003                    ANQ     -131072,DU
         4 002475   200207 756100                    STQ     YES_NO,,AUTO

      887    13807    4      CLASS = C_YESNO;

  13807  4 002476   000002 235007                    LDA     2,DL
         4 002477   200005 755100                    STA     CLASS,,AUTO
         4 002500   004131 710000 4                  TRA     s:14082

      888    13808    4      SELECT(L_BUDLIM);

      889    13809    4      YES_NO = AS_USERS.BUDGET.BUDLIM;

  13809  4 002501   000017 236000 xsym               LDQ     AS_USERS+15
         4 002502   000012 736000                    QLS     10
         4 002503   400000 376003                    ANQ     -131072,DU
PL6.E3A0      #002=ASL$LIST_OUT File=ASL$EXT.:E05TSI                             TUE 07/29/97 09:59 Page:209
         4 002504   200207 756100                    STQ     YES_NO,,AUTO

      890    13810    4      CLASS = C_YESNO;

  13810  4 002505   000002 235007                    LDA     2,DL
         4 002506   200005 755100                    STA     CLASS,,AUTO
         4 002507   004131 710000 4                  TRA     s:14082

      891    13811    4      SELECT(L_ICHARGE);

      892    13812    4      YES_NO = AS_USERS.BUDGET.ICHARGES;

  13812  4 002510   000017 236000 xsym               LDQ     AS_USERS+15
         4 002511   000014 736000                    QLS     12
         4 002512   400000 376003                    ANQ     -131072,DU
         4 002513   200207 756100                    STQ     YES_NO,,AUTO

      893    13813    4      CLASS = C_YESNO;

  13813  4 002514   000002 235007                    LDA     2,DL
         4 002515   200005 755100                    STA     CLASS,,AUTO
         4 002516   004131 710000 4                  TRA     s:14082

      894    13814    4      SELECT(L_PCHARGE);

      895    13815    4      YES_NO = AS_USERS.BUDGET.PCHARGES;

  13815  4 002517   000017 236000 xsym               LDQ     AS_USERS+15
         4 002520   000013 736000                    QLS     11
         4 002521   400000 376003                    ANQ     -131072,DU
         4 002522   200207 756100                    STQ     YES_NO,,AUTO

      896    13816    4      CLASS = C_YESNO;

  13816  4 002523   000002 235007                    LDA     2,DL
         4 002524   200005 755100                    STA     CLASS,,AUTO
         4 002525   004131 710000 4                  TRA     s:14082
PL6.E3A0      #002=ASL$LIST_OUT File=ASL$EXT.:E05TSI                             TUE 07/29/97 09:59 Page:210

      897    13817    4      SELECT(L_BLINDACCTNG);

      898    13818    4      YES_NO = AS_USERS.BUDGET.BLINDACCTNG;

  13818  4 002526   000017 236000 xsym               LDQ     AS_USERS+15
         4 002527   000015 736000                    QLS     13
         4 002530   400000 376003                    ANQ     -131072,DU
         4 002531   200207 756100                    STQ     YES_NO,,AUTO

      899    13819    4      CLASS  = C_YESNO;

  13819  4 002532   000002 235007                    LDA     2,DL
         4 002533   200005 755100                    STA     CLASS,,AUTO
         4 002534   004131 710000 4                  TRA     s:14082

      900    13820    4      SELECT(L_OUTPUTPRIO);

      901    13821    4      SBINS(SBIN_IDX) = AS_USERS.OUTPUTPRIO;

  13821  4 002535   000035 236000 xsym               LDQ     AS_USERS+29
         4 002536   000777 376007                    ANQ     511,DL
         4 002537   200164 720100                    LXL0    SBIN_IDX,,AUTO
         4 002540   200020 756110                    STQ     SBINS,X0,AUTO

      902    13822    4      CLASS = C_SBIN;

  13822  4 002541   000014 235007                    LDA     12,DL
         4 002542   200005 755100                    STA     CLASS,,AUTO
         4 002543   004131 710000 4                  TRA     s:14082

      903    13823    4      SELECT(L_BILLING);

      904    13824    4      FMT_VEC(FDS.NVECS#) = VECTOR(AS_USERS.BILL(BOG_IDX));

  13824  4 002544   000011 235000 xsym               LDA     FDS+9
         4 002545   000001 735000                    ALS     1
PL6.E3A0      #002=ASL$LIST_OUT File=ASL$EXT.:E05TSI                             TUE 07/29/97 09:59 Page:211
         4 002546   000000 620005                    EAX0    0,AL
         4 002547   000042 235000 5                  LDA     34
         4 002550   200177 236100                    LDQ     BOG_IDX,,AUTO
         4 002551   200224 755100                    STA     I+2,,AUTO
         4 002552   000062 402000 5                  MPY     50
         4 002553   000061 036000 5                  ADLQ    49
         4 002554   200224 235100                    LDA     I+2,,AUTO
         4 002555   000000 755010 xsym               STA     FMT_VEC,X0
         4 002556   000001 756010 xsym               STQ     FMT_VEC+1,X0

      905    13825    4      CLASS = C_TEXT;

  13825  4 002557   000001 235007                    LDA     1,DL
         4 002560   200005 755100                    STA     CLASS,,AUTO
         4 002561   004131 710000 4                  TRA     s:14082

      906    13826    4      SELECT(L_CPROC);

      907    13827    4      FMT_VEC(FDS.NVECS#) = VECTOR(ADDR(AS_USERS.CPROC(BOG_IDX))->TEXT$C.C);

  13827  4 002562   000011 235000 xsym               LDA     FDS+9
         4 002563   000001 735000                    ALS     1
         4 002564   200177 236100                    LDQ     BOG_IDX,,AUTO
         4 002565   000003 736000                    QLS     3
         4 002566   000125 236006 xsym               LDQ     AS_USERS+85,QL
         4 002567   000033 772000                    QRL     27
         4 002570   000000 620005                    EAX0    0,AL
         4 002571   000064 737000                    LLS     52
         4 002572   000140 135007                    SBLA    96,DL
         4 002573   200177 236100                    LDQ     BOG_IDX,,AUTO
         4 002574   000025 736000                    QLS     21
         4 002575   000063 036000 5                  ADLQ    51
         4 002576   000000 755010 xsym               STA     FMT_VEC,X0
         4 002577   000001 756010 xsym               STQ     FMT_VEC+1,X0

      908    13828    4      CLASS = C_TEXT;

PL6.E3A0      #002=ASL$LIST_OUT File=ASL$EXT.:E05TSI                             TUE 07/29/97 09:59 Page:212
  13828  4 002600   000001 235007                    LDA     1,DL
         4 002601   200005 755100                    STA     CLASS,,AUTO
         4 002602   004131 710000 4                  TRA     s:14082

      909    13829    4      SELECT(L_LASTCPROC);

      910    13830    4      FMT_VEC(FDS.NVECS#) = VECTOR(ADDR(AS_USERS.LASTCPROC(BOG_IDX))->TEXT$C.C);

  13830  4 002603   000011 235000 xsym               LDA     FDS+9
         4 002604   000001 735000                    ALS     1
         4 002605   200177 236100                    LDQ     BOG_IDX,,AUTO
         4 002606   000003 736000                    QLS     3
         4 002607   000165 236006 xsym               LDQ     AS_USERS+117,QL
         4 002610   000033 772000                    QRL     27
         4 002611   000000 620005                    EAX0    0,AL
         4 002612   000064 737000                    LLS     52
         4 002613   000140 135007                    SBLA    96,DL
         4 002614   200177 236100                    LDQ     BOG_IDX,,AUTO
         4 002615   000025 736000                    QLS     21
         4 002616   000064 036000 5                  ADLQ    52
         4 002617   000000 755010 xsym               STA     FMT_VEC,X0
         4 002620   000001 756010 xsym               STQ     FMT_VEC+1,X0

      911    13831    4      CLASS = C_TEXT;

  13831  4 002621   000001 235007                    LDA     1,DL
         4 002622   200005 755100                    STA     CLASS,,AUTO
         4 002623   004131 710000 4                  TRA     s:14082

      912    13832    4      SELECT(L_ACCESS);

      913    13833    5      DO SELECT(BOG_IDX);

  13833  4 002624   200177 236100                    LDQ     BOG_IDX,,AUTO
         4 002625   000001 116007                    CMPQ    1,DL
         4 002626   002642 604000 4                  TMI     s:13833+14
         4 002627   002652 600000 4                  TZE     s:13837
PL6.E3A0      #002=ASL$LIST_OUT File=ASL$EXT.:E05TSI                             TUE 07/29/97 09:59 Page:213
         4 002630   000003 116007                    CMPQ    3,DL
         4 002631   002636 604000 4                  TMI     s:13833+10
         4 002632   002664 600000 4                  TZE     s:13841
         4 002633   000004 116007                    CMPQ    4,DL
         4 002634   002675 601000 4                  TNZ     s:13845
         4 002635   002671 710000 4                  TRA     s:13843
         4 002636   200177 235100                    LDA     BOG_IDX,,AUTO
         4 002637   000002 115007                    CMPA    2,DL
         4 002640   002675 601000 4                  TNZ     s:13845
         4 002641   002657 710000 4                  TRA     s:13839
         4 002642   200177 235100                    LDA     BOG_IDX,,AUTO
         4 002643   002675 601000 4                  TNZ     s:13845
         4 002644   002645 710000 4                  TRA     s:13835

      914    13834    5         SELECT(0);

      915    13835    5         YES_NO = KL_DREC.FLAGS.BATOK;

  13835  4 002645   000000 236000 xsym               LDQ     KL_DREC
         4 002646   000014 736000                    QLS     12
         4 002647   400000 376003                    ANQ     -131072,DU
         4 002650   200207 756100                    STQ     YES_NO,,AUTO
         4 002651   002675 710000 4                  TRA     s:13845

      916    13836    5         SELECT(1);

      917    13837    5         YES_NO = KL_DREC.FLAGS.GHOSTOK;

  13837  4 002652   000000 236000 xsym               LDQ     KL_DREC
         4 002653   000012 736000                    QLS     10
         4 002654   400000 376003                    ANQ     -131072,DU
         4 002655   200207 756100                    STQ     YES_NO,,AUTO
         4 002656   002675 710000 4                  TRA     s:13845

      918    13838    5         SELECT(2);

      919    13839    5         YES_NO = KL_DREC.FLAGS.OLOK;
PL6.E3A0      #002=ASL$LIST_OUT File=ASL$EXT.:E05TSI                             TUE 07/29/97 09:59 Page:214

  13839  4 002657   000000 236000 xsym               LDQ     KL_DREC
         4 002660   000013 736000                    QLS     11
         4 002661   400000 376003                    ANQ     -131072,DU
         4 002662   200207 756100                    STQ     YES_NO,,AUTO
         4 002663   002675 710000 4                  TRA     s:13845

      920    13840    5         SELECT(3);

      921    13841    5         YES_NO = KL_DREC.FLAGS.TPOK;

  13841  4 002664   000000 236000 xsym               LDQ     KL_DREC
         4 002665   000021 736000                    QLS     17
         4 002666   400000 376003                    ANQ     -131072,DU
         4 002667   200207 756100                    STQ     YES_NO,,AUTO
         4 002670   002675 710000 4                  TRA     s:13845

      922    13842    5         SELECT(4);

      923    13843    5         YES_NO = KL_DREC.FLAGS.FEOK;

  13843  4 002671   000000 236000 xsym               LDQ     KL_DREC
         4 002672   000022 736000                    QLS     18
         4 002673   400000 376003                    ANQ     -131072,DU
         4 002674   200207 756100                    STQ     YES_NO,,AUTO

      924    13844    5         END;

      925    13845    4      CLASS = C_YESNO;

  13845  4 002675   000002 235007                    LDA     2,DL
         4 002676   200005 755100                    STA     CLASS,,AUTO
         4 002677   004131 710000 4                  TRA     s:14082

      926    13846    4      SELECT(L_SETUP);

      927    13847    4      IF AS_USERS.SETUP(BOG_IDX) = -1
PL6.E3A0      #002=ASL$LIST_OUT File=ASL$EXT.:E05TSI                             TUE 07/29/97 09:59 Page:215

  13847  4 002700   200177 235100                    LDA     BOG_IDX,,AUTO
         4 002701   000001 735000                    ALS     1
         4 002702   000100 100405                    MLR     fill='000'O
         4 002703   000352 000002 xsym               ADSC9   AS_USERS+234,A           cn=0,n=2
         4 002704   200224 000004                    ADSC9   I+2,,AUTO                cn=0,n=4
         4 002705   200224 236100                    LDQ     I+2,,AUTO
         4 002706   000022 732000                    QRS     18
         4 002707   000027 116000 xsym               CMPQ    B_VECTNIL+23
         4 002710   002721 601000 4                  TNZ     s:13850

      928    13848    4      THEN FMT_VEC(FDS.NVECS#) = VECTOR(BL_STR) ;

  13848  4 002711   000011 236000 xsym               LDQ     FDS+9
         4 002712   000001 736000                    QLS     1
         4 002713   000000 620006                    EAX0    0,QL
         4 002714   000000 621006                    EAX1    0,QL
         4 002715   000066 237000 5                  LDAQ    54
         4 002716   000000 755010 xsym               STA     FMT_VEC,X0
         4 002717   000001 756011 xsym               STQ     FMT_VEC+1,X1
         4 002720   002747 710000 4                  TRA     s:13853

      929    13849    5      ELSE DO ;

      930    13850    5         SIDX = AS_USERS.SETUP(BOG_IDX) ;

  13850  4 002721   000100 100405                    MLR     fill='000'O
         4 002722   000352 000002 xsym               ADSC9   AS_USERS+234,A           cn=0,n=2
         4 002723   200224 000004                    ADSC9   I+2,,AUTO                cn=0,n=4
         4 002724   200224 236100                    LDQ     I+2,,AUTO
         4 002725   000022 732000                    QRS     18
         4 002726   200210 756100                    STQ     SIDX,,AUTO

      931    13851    5        FMT_VEC(FDS.NVECS#) = VECTOR(ADDR(AS_USERS.SETUP_CHRA.TXT_UBIN(SIDX))->TEXT$C.
             13851                  C);

  13851  4 002727   000011 235000 xsym               LDA     FDS+9
PL6.E3A0      #002=ASL$LIST_OUT File=ASL$EXT.:E05TSI                             TUE 07/29/97 09:59 Page:216
         4 002730   000001 735000                    ALS     1
         4 002731   000100 101406                    MRL     fill='000'O
         4 002732   000362 000001 xsym               ADSC9   AS_USERS+242,Q           cn=0,n=1
         4 002733   200224 000002                    ADSC9   I+2,,AUTO                cn=0,n=2
         4 002734   200224 220100                    LDX0    I+2,,AUTO
         4 002735   000000 636010                    EAQ     0,X0
         4 002736   000022 772000                    QRL     18
         4 002737   000000 621005                    EAX1    0,AL
         4 002740   000064 737000                    LLS     52
         4 002741   000140 135007                    SBLA    96,DL
         4 002742   200210 236100                    LDQ     SIDX,,AUTO
         4 002743   000020 736000                    QLS     16
         4 002744   000070 036000 5                  ADLQ    56
         4 002745   000000 755011 xsym               STA     FMT_VEC,X1
         4 002746   000001 756011 xsym               STQ     FMT_VEC+1,X1

      932    13852    5         END ;

      933    13853    4      CLASS = C_TEXT;

  13853  4 002747   000001 235007                    LDA     1,DL
         4 002750   200005 755100                    STA     CLASS,,AUTO
         4 002751   004131 710000 4                  TRA     s:14082

      934    13854    4      SELECT(L_PERM_SETUP);

      935    13855                      /* The setup perm field is the alterable command, when
      936    13856                         the field is alterable, the bit is '0'b.  The value
      937    13857                         placed into the YES_NO val is therefore inverted so
      938    13858                         output says yes for alterable.      */
      939    13859    4      YES_NO = ~ AS_USERS.SETUP_PERM(BOG_IDX) ;

  13859  4 002752   200177 235100                    LDA     BOG_IDX,,AUTO
         4 002753   002755 605000 4                  TPL     s:13859+3
         4 002754   000044 035003                    ADLA    36,DU
         4 002755   003100 060405                    CSL     bolr='003'O
         4 002756   000351 400001 xsym               BDSC    AS_USERS+233,A           by=2,bit=0,n=1
PL6.E3A0      #002=ASL$LIST_OUT File=ASL$EXT.:E05TSI                             TUE 07/29/97 09:59 Page:217
         4 002757   200224 000044                    BDSC    I+2,,AUTO                by=0,bit=0,n=36
         4 002760   200224 236100                    LDQ     I+2,,AUTO
         4 002761   400000 676003                    ERQ     -131072,DU
         4 002762   200207 756100                    STQ     YES_NO,,AUTO

      940    13860    4      CLASS = C_YESNO;

  13860  4 002763   000002 235007                    LDA     2,DL
         4 002764   200005 755100                    STA     CLASS,,AUTO
         4 002765   004131 710000 4                  TRA     s:14082

      941    13861    4      SELECT (L_BANNER1, L_BANNER2, L_BANNER3, L_BANNER4, L_BANNER5,

      942    13862    4           L_BANNER6, L_BANNER7, L_BANNER8, L_BANNER9);
      943    13863    5      DO SELECT (NEXT);

  13863  4 002766   000066 116007                    CMPQ    54,DL
         4 002767   003012 602000 4                  TNC     s:13863+20
         4 002770   003035 600000 4                  TZE     s:13871
         4 002771   000070 116007                    CMPQ    56,DL
         4 002772   003006 602000 4                  TNC     s:13863+16
         4 002773   003043 600000 4                  TZE     s:13875
         4 002774   000072 116007                    CMPQ    58,DL
         4 002775   003002 602000 4                  TNC     s:13863+12
         4 002776   003051 600000 4                  TZE     s:13879
         4 002777   000073 116007                    CMPQ    59,DL
         4 003000   003056 601000 4                  TNZ     s:13883
         4 003001   003054 710000 4                  TRA     s:13881
         4 003002   200220 235100                    LDA     NEXT,,AUTO
         4 003003   000071 115007                    CMPA    57,DL
         4 003004   003056 601000 4                  TNZ     s:13883
         4 003005   003046 710000 4                  TRA     s:13877
         4 003006   200220 235100                    LDA     NEXT,,AUTO
         4 003007   000067 115007                    CMPA    55,DL
         4 003010   003056 601000 4                  TNZ     s:13883
         4 003011   003040 710000 4                  TRA     s:13873
         4 003012   200220 236100                    LDQ     NEXT,,AUTO
PL6.E3A0      #002=ASL$LIST_OUT File=ASL$EXT.:E05TSI                             TUE 07/29/97 09:59 Page:218
         4 003013   000064 116007                    CMPQ    52,DL
         4 003014   003021 602000 4                  TNC     s:13863+27
         4 003015   003027 600000 4                  TZE     s:13867
         4 003016   000065 116007                    CMPQ    53,DL
         4 003017   003056 601000 4                  TNZ     s:13883
         4 003020   003032 710000 4                  TRA     s:13869
         4 003021   000063 116007                    CMPQ    51,DL
         4 003022   003056 601000 4                  TNZ     s:13883
         4 003023   003024 710000 4                  TRA     s:13865

      944    13864    5         SELECT (L_BANNER1);

      945    13865    5         I = 1;

  13865  4 003024   000001 235007                    LDA     1,DL
         4 003025   200217 755100                    STA     I,,AUTO
         4 003026   003056 710000 4                  TRA     s:13883

      946    13866    5         SELECT (L_BANNER2);

      947    13867    5         I = 2;

  13867  4 003027   000002 235007                    LDA     2,DL
         4 003030   200217 755100                    STA     I,,AUTO
         4 003031   003056 710000 4                  TRA     s:13883

      948    13868    5         SELECT (L_BANNER3);

      949    13869    5         I = 3;

  13869  4 003032   000003 235007                    LDA     3,DL
         4 003033   200217 755100                    STA     I,,AUTO
         4 003034   003056 710000 4                  TRA     s:13883

      950    13870    5         SELECT (L_BANNER4);

      951    13871    5         I = 4;
PL6.E3A0      #002=ASL$LIST_OUT File=ASL$EXT.:E05TSI                             TUE 07/29/97 09:59 Page:219

  13871  4 003035   000004 235007                    LDA     4,DL
         4 003036   200217 755100                    STA     I,,AUTO
         4 003037   003056 710000 4                  TRA     s:13883

      952    13872    5         SELECT (L_BANNER5);

      953    13873    5         I = 5;

  13873  4 003040   000005 235007                    LDA     5,DL
         4 003041   200217 755100                    STA     I,,AUTO
         4 003042   003056 710000 4                  TRA     s:13883

      954    13874    5         SELECT (L_BANNER6);

      955    13875    5         I = 6;

  13875  4 003043   000006 235007                    LDA     6,DL
         4 003044   200217 755100                    STA     I,,AUTO
         4 003045   003056 710000 4                  TRA     s:13883

      956    13876    5         SELECT (L_BANNER7);

      957    13877    5         I = 7;

  13877  4 003046   000007 235007                    LDA     7,DL
         4 003047   200217 755100                    STA     I,,AUTO
         4 003050   003056 710000 4                  TRA     s:13883

      958    13878    5         SELECT (L_BANNER8);

      959    13879    5         I = 8;

  13879  4 003051   000010 235007                    LDA     8,DL
         4 003052   200217 755100                    STA     I,,AUTO
         4 003053   003056 710000 4                  TRA     s:13883

PL6.E3A0      #002=ASL$LIST_OUT File=ASL$EXT.:E05TSI                             TUE 07/29/97 09:59 Page:220
      960    13880    5         SELECT (L_BANNER9);

      961    13881    5         I = 9;

  13881  4 003054   000011 235007                    LDA     9,DL
         4 003055   200217 755100                    STA     I,,AUTO

      962    13882    5         END; /* Of case */

      963    13883    4      IF AS_USERS.BANNER (I) = -1

  13883  4 003056   200217 235100                    LDA     I,,AUTO
         4 003057   000001 735000                    ALS     1
         4 003060   000100 100405                    MLR     fill='000'O
         4 003061   000354 000002 xsym               ADSC9   AS_USERS+236,A           cn=0,n=2
         4 003062   200224 000004                    ADSC9   I+2,,AUTO                cn=0,n=4
         4 003063   200224 236100                    LDQ     I+2,,AUTO
         4 003064   000022 732000                    QRS     18
         4 003065   000027 116000 xsym               CMPQ    B_VECTNIL+23
         4 003066   003077 601000 4                  TNZ     s:13886

      964    13884    4      THEN FMT_VEC(FDS.NVECS#) = VECTOR(BL_STR) ;

  13884  4 003067   000011 236000 xsym               LDQ     FDS+9
         4 003070   000001 736000                    QLS     1
         4 003071   000000 620006                    EAX0    0,QL
         4 003072   000000 621006                    EAX1    0,QL
         4 003073   000066 237000 5                  LDAQ    54
         4 003074   000000 755010 xsym               STA     FMT_VEC,X0
         4 003075   000001 756011 xsym               STQ     FMT_VEC+1,X1
         4 003076   003125 710000 4                  TRA     s:13889

      965    13885    5      ELSE DO ;

      966    13886    5         SIDX = AS_USERS.BANNER (I) ;

  13886  4 003077   000100 100405                    MLR     fill='000'O
PL6.E3A0      #002=ASL$LIST_OUT File=ASL$EXT.:E05TSI                             TUE 07/29/97 09:59 Page:221
         4 003100   000354 000002 xsym               ADSC9   AS_USERS+236,A           cn=0,n=2
         4 003101   200224 000004                    ADSC9   I+2,,AUTO                cn=0,n=4
         4 003102   200224 236100                    LDQ     I+2,,AUTO
         4 003103   000022 732000                    QRS     18
         4 003104   200210 756100                    STQ     SIDX,,AUTO

      967    13887    5        FMT_VEC(FDS.NVECS#) = VECTOR(ADDR(AS_USERS.SETUP_CHRA.TXT_UBIN(SIDX))->TEXT$C.
             13887                  C);

  13887  4 003105   000011 235000 xsym               LDA     FDS+9
         4 003106   000001 735000                    ALS     1
         4 003107   000100 101406                    MRL     fill='000'O
         4 003110   000362 000001 xsym               ADSC9   AS_USERS+242,Q           cn=0,n=1
         4 003111   200224 000002                    ADSC9   I+2,,AUTO                cn=0,n=2
         4 003112   200224 220100                    LDX0    I+2,,AUTO
         4 003113   000000 636010                    EAQ     0,X0
         4 003114   000022 772000                    QRL     18
         4 003115   000000 621005                    EAX1    0,AL
         4 003116   000064 737000                    LLS     52
         4 003117   000140 135007                    SBLA    96,DL
         4 003120   200210 236100                    LDQ     SIDX,,AUTO
         4 003121   000020 736000                    QLS     16
         4 003122   000070 036000 5                  ADLQ    56
         4 003123   000000 755011 xsym               STA     FMT_VEC,X1
         4 003124   000001 756011 xsym               STQ     FMT_VEC+1,X1

      968    13888    5         END ;

      969    13889    4      CLASS = C_TEXT;

  13889  4 003125   000001 235007                    LDA     1,DL
         4 003126   200005 755100                    STA     CLASS,,AUTO
         4 003127   004131 710000 4                  TRA     s:14082

      970    13890    4      SELECT (L_ALTERABLE_BANNER1, L_ALTERABLE_BANNER2, L_ALTERABLE_BANNER3,

      971    13891    4           L_ALTERABLE_BANNER4, L_ALTERABLE_BANNER5, L_ALTERABLE_BANNER6,
PL6.E3A0      #002=ASL$LIST_OUT File=ASL$EXT.:E05TSI                             TUE 07/29/97 09:59 Page:222
      972    13892    4           L_ALTERABLE_BANNER7, L_ALTERABLE_BANNER8, L_ALTERABLE_BANNER9);
      973    13893    5      DO SELECT (NEXT);

  13893  4 003130   200220 236100                    LDQ     NEXT,,AUTO
         4 003131   000077 116007                    CMPQ    63,DL
         4 003132   003155 602000 4                  TNC     s:13893+21
         4 003133   003200 600000 4                  TZE     s:13901
         4 003134   000101 116007                    CMPQ    65,DL
         4 003135   003151 602000 4                  TNC     s:13893+17
         4 003136   003206 600000 4                  TZE     s:13905
         4 003137   000103 116007                    CMPQ    67,DL
         4 003140   003145 602000 4                  TNC     s:13893+13
         4 003141   003214 600000 4                  TZE     s:13909
         4 003142   000104 116007                    CMPQ    68,DL
         4 003143   003221 601000 4                  TNZ     s:13917
         4 003144   003217 710000 4                  TRA     s:13911
         4 003145   200220 235100                    LDA     NEXT,,AUTO
         4 003146   000102 115007                    CMPA    66,DL
         4 003147   003221 601000 4                  TNZ     s:13917
         4 003150   003211 710000 4                  TRA     s:13907
         4 003151   200220 235100                    LDA     NEXT,,AUTO
         4 003152   000100 115007                    CMPA    64,DL
         4 003153   003221 601000 4                  TNZ     s:13917
         4 003154   003203 710000 4                  TRA     s:13903
         4 003155   200220 236100                    LDQ     NEXT,,AUTO
         4 003156   000075 116007                    CMPQ    61,DL
         4 003157   003164 602000 4                  TNC     s:13893+28
         4 003160   003172 600000 4                  TZE     s:13897
         4 003161   000076 116007                    CMPQ    62,DL
         4 003162   003221 601000 4                  TNZ     s:13917
         4 003163   003175 710000 4                  TRA     s:13899
         4 003164   000074 116007                    CMPQ    60,DL
         4 003165   003221 601000 4                  TNZ     s:13917
         4 003166   003167 710000 4                  TRA     s:13895

      974    13894    5         SELECT (L_ALTERABLE_BANNER1);

PL6.E3A0      #002=ASL$LIST_OUT File=ASL$EXT.:E05TSI                             TUE 07/29/97 09:59 Page:223
      975    13895    5         I = 1;

  13895  4 003167   000001 235007                    LDA     1,DL
         4 003170   200217 755100                    STA     I,,AUTO
         4 003171   003221 710000 4                  TRA     s:13917

      976    13896    5         SELECT (L_ALTERABLE_BANNER2);

      977    13897    5         I = 2;

  13897  4 003172   000002 235007                    LDA     2,DL
         4 003173   200217 755100                    STA     I,,AUTO
         4 003174   003221 710000 4                  TRA     s:13917

      978    13898    5         SELECT (L_ALTERABLE_BANNER3);

      979    13899    5         I = 3;

  13899  4 003175   000003 235007                    LDA     3,DL
         4 003176   200217 755100                    STA     I,,AUTO
         4 003177   003221 710000 4                  TRA     s:13917

      980    13900    5         SELECT (L_ALTERABLE_BANNER4);

      981    13901    5         I = 4;

  13901  4 003200   000004 235007                    LDA     4,DL
         4 003201   200217 755100                    STA     I,,AUTO
         4 003202   003221 710000 4                  TRA     s:13917

      982    13902    5         SELECT (L_ALTERABLE_BANNER5);

      983    13903    5         I = 5;

  13903  4 003203   000005 235007                    LDA     5,DL
         4 003204   200217 755100                    STA     I,,AUTO
         4 003205   003221 710000 4                  TRA     s:13917
PL6.E3A0      #002=ASL$LIST_OUT File=ASL$EXT.:E05TSI                             TUE 07/29/97 09:59 Page:224

      984    13904    5         SELECT (L_ALTERABLE_BANNER6);

      985    13905    5         I = 6;

  13905  4 003206   000006 235007                    LDA     6,DL
         4 003207   200217 755100                    STA     I,,AUTO
         4 003210   003221 710000 4                  TRA     s:13917

      986    13906    5         SELECT (L_ALTERABLE_BANNER7);

      987    13907    5         I = 7;

  13907  4 003211   000007 235007                    LDA     7,DL
         4 003212   200217 755100                    STA     I,,AUTO
         4 003213   003221 710000 4                  TRA     s:13917

      988    13908    5         SELECT (L_ALTERABLE_BANNER8);

      989    13909    5         I = 8;

  13909  4 003214   000010 235007                    LDA     8,DL
         4 003215   200217 755100                    STA     I,,AUTO
         4 003216   003221 710000 4                  TRA     s:13917

      990    13910    5         SELECT (L_ALTERABLE_BANNER9);

      991    13911    5         I = 9;

  13911  4 003217   000011 235007                    LDA     9,DL
         4 003220   200217 755100                    STA     I,,AUTO

      992    13912    5         END; /* Of case */

      993    13913                      /* The banner perm field is the alterable command, when
      994    13914                         the field is alterable, the bit is '0'b.  The value
      995    13915                         placed into the YES_NO val is therefore inverted so
PL6.E3A0      #002=ASL$LIST_OUT File=ASL$EXT.:E05TSI                             TUE 07/29/97 09:59 Page:225
      996    13916                         output says yes for alterable.      */
      997    13917    4      YES_NO = ~ AS_USERS.BANNER_PERM (I);

  13917  4 003221   200217 235100                    LDA     I,,AUTO
         4 003222   003100 060405                    CSL     bolr='003'O
         4 003223   000351 440001 xsym               BDSC    AS_USERS+233,A           by=2,bit=4,n=1
         4 003224   200224 000044                    BDSC    I+2,,AUTO                by=0,bit=0,n=36
         4 003225   200224 236100                    LDQ     I+2,,AUTO
         4 003226   400000 676003                    ERQ     -131072,DU
         4 003227   200207 756100                    STQ     YES_NO,,AUTO

      998    13918    4      CLASS = C_YESNO;

  13918  4 003230   000002 235007                    LDA     2,DL
         4 003231   200005 755100                    STA     CLASS,,AUTO
         4 003232   004131 710000 4                  TRA     s:14082

      999    13919    4      SELECT (L_ACCOUNT_OWNER);

     1000    13920    4      IF AS_USERS.BANNER (0) = -1

  13920  4 003233   000354 220000 xsym               LDX0    AS_USERS+236
         4 003234   777777 100003                    CMPX0   -1,DU
         4 003235   003246 601000 4                  TNZ     s:13923

     1001    13921    4      THEN FMT_VEC(FDS.NVECS#) = VECTOR(BL_STR) ;

  13921  4 003236   000011 235000 xsym               LDA     FDS+9
         4 003237   000001 735000                    ALS     1
         4 003240   000000 621005                    EAX1    0,AL
         4 003241   000000 622005                    EAX2    0,AL
         4 003242   000066 237000 5                  LDAQ    54
         4 003243   000000 755011 xsym               STA     FMT_VEC,X1
         4 003244   000001 756012 xsym               STQ     FMT_VEC+1,X2
         4 003245   003272 710000 4                  TRA     s:13926

     1002    13922    5      ELSE DO ;
PL6.E3A0      #002=ASL$LIST_OUT File=ASL$EXT.:E05TSI                             TUE 07/29/97 09:59 Page:226

     1003    13923    5         SIDX = AS_USERS.BANNER (0) ;

  13923  4 003246   000354 235000 xsym               LDA     AS_USERS+236
         4 003247   000022 731000                    ARS     18
         4 003250   200210 755100                    STA     SIDX,,AUTO

     1004    13924    5        FMT_VEC(FDS.NVECS#) = VECTOR(ADDR(AS_USERS.SETUP_CHRA.TXT_UBIN(SIDX))->TEXT$C.
             13924                  C);

  13924  4 003251   000011 235000 xsym               LDA     FDS+9
         4 003252   000001 735000                    ALS     1
         4 003253   200210 236100                    LDQ     SIDX,,AUTO
         4 003254   000100 101406                    MRL     fill='000'O
         4 003255   000362 000001 xsym               ADSC9   AS_USERS+242,Q           cn=0,n=1
         4 003256   200224 000002                    ADSC9   I+2,,AUTO                cn=0,n=2
         4 003257   200224 221100                    LDX1    I+2,,AUTO
         4 003260   000000 636011                    EAQ     0,X1
         4 003261   000022 772000                    QRL     18
         4 003262   000000 622005                    EAX2    0,AL
         4 003263   000064 737000                    LLS     52
         4 003264   000140 135007                    SBLA    96,DL
         4 003265   200210 236100                    LDQ     SIDX,,AUTO
         4 003266   000020 736000                    QLS     16
         4 003267   000070 036000 5                  ADLQ    56
         4 003270   000000 755012 xsym               STA     FMT_VEC,X2
         4 003271   000001 756012 xsym               STQ     FMT_VEC+1,X2

     1005    13925    5         END ;

     1006    13926    4      CLASS = C_TEXT;

  13926  4 003272   000001 235007                    LDA     1,DL
         4 003273   200005 755100                    STA     CLASS,,AUTO
         4 003274   004131 710000 4                  TRA     s:14082

     1007    13927    4      SELECT (L_LAST_LOGON_TIME);
PL6.E3A0      #002=ASL$LIST_OUT File=ASL$EXT.:E05TSI                             TUE 07/29/97 09:59 Page:227

     1008    13928    4      GET_LOGON.TSTAMP_ = VECTOR (AS_USERS.LAST_LOGON_TIME);

  13928  4 003275   000072 237000 5                  LDAQ    58
         4 003276   000042 757000 3                  STAQ    GET_LOGON+8

     1009    13929    4      CALL M$TIME (GET_LOGON);

  13929  4 003277   000032 630400 3                  EPPR0   GET_LOGON
         4 003300   020004 713400                    CLIMB   8196
         4 003301   402000 401760                    pmme    nvectors=5

     1010    13930    4      CALL CONCAT (LAST_LOGON_BUF, LOGON_DATE, ',', LOGON_TIME);

  13930  4 003302   000054 237000 3                  LDAQ    LOGON_DATE
         4 003303   000046 757000 3                  STAQ    LAST_LOGON_BUF
         4 003304   054000 236003                    LDQ     22528,DU
         4 003305   000050 756000 3                  STQ     LAST_LOGON_BUF+2
         4 003306   040000 100400                    MLR     fill='040'O
         4 003307   000057 000013 3                  ADSC9   LOGON_TIME               cn=0,n=11
         4 003310   000050 200015 3                  ADSC9   LAST_LOGON_BUF+2         cn=1,n=13

     1011    13931    4      FMT_VEC (FDS.NVECS#) = VECTOR (LAST_LOGON_BUF);

  13931  4 003311   000011 235000 xsym               LDA     FDS+9
         4 003312   000001 735000                    ALS     1
         4 003313   000000 620005                    EAX0    0,AL
         4 003314   000000 621005                    EAX1    0,AL
         4 003315   000074 237000 5                  LDAQ    60
         4 003316   000000 755010 xsym               STA     FMT_VEC,X0
         4 003317   000001 756011 xsym               STQ     FMT_VEC+1,X1

     1012    13932    4      CLASS = C_TEXT;

  13932  4 003320   000001 235007                    LDA     1,DL
         4 003321   200005 755100                    STA     CLASS,,AUTO
         4 003322   004131 710000 4                  TRA     s:14082
PL6.E3A0      #002=ASL$LIST_OUT File=ASL$EXT.:E05TSI                             TUE 07/29/97 09:59 Page:228

     1013    13933
     1014    13934    4      SELECT (L_SLAST_LOGON_TIME);

     1015    13935    4      GET_LOGON.TSTAMP_ = VECTOR (AS_USERS.LOGINS.LAST_LOGON_TIME(BOG_IDX));

  13935  4 003323   777640 235007                    LDA     -96,DL
         4 003324   200177 236100                    LDQ     BOG_IDX,,AUTO
         4 003325   000023 736000                    QLS     19
         4 003326   000076 036000 5                  ADLQ    62
         4 003327   000042 757000 3                  STAQ    GET_LOGON+8

     1016    13936    4      CALL M$TIME (GET_LOGON);

  13936  4 003330   000032 630400 3                  EPPR0   GET_LOGON
         4 003331   020004 713400                    CLIMB   8196
         4 003332   402000 401760                    pmme    nvectors=5

     1017    13937    4      CALL CONCAT (LAST_LOGON_BUF, LOGON_DATE, ',', LOGON_TIME);

  13937  4 003333   000054 237000 3                  LDAQ    LOGON_DATE
         4 003334   000046 757000 3                  STAQ    LAST_LOGON_BUF
         4 003335   054000 236003                    LDQ     22528,DU
         4 003336   000050 756000 3                  STQ     LAST_LOGON_BUF+2
         4 003337   040000 100400                    MLR     fill='040'O
         4 003340   000057 000013 3                  ADSC9   LOGON_TIME               cn=0,n=11
         4 003341   000050 200015 3                  ADSC9   LAST_LOGON_BUF+2         cn=1,n=13

     1018    13938    4      FMT_VEC (FDS.NVECS#) = VECTOR (LAST_LOGON_BUF);

  13938  4 003342   000011 235000 xsym               LDA     FDS+9
         4 003343   000001 735000                    ALS     1
         4 003344   000000 620005                    EAX0    0,AL
         4 003345   000000 621005                    EAX1    0,AL
         4 003346   000074 237000 5                  LDAQ    60
         4 003347   000000 755010 xsym               STA     FMT_VEC,X0
         4 003350   000001 756011 xsym               STQ     FMT_VEC+1,X1
PL6.E3A0      #002=ASL$LIST_OUT File=ASL$EXT.:E05TSI                             TUE 07/29/97 09:59 Page:229

     1019    13939    4      CLASS = C_TEXT;

  13939  4 003351   000001 235007                    LDA     1,DL
         4 003352   200005 755100                    STA     CLASS,,AUTO
         4 003353   004131 710000 4                  TRA     s:14082

     1020    13940
     1021    13941
     1022    13942    4      SELECT(L_BAD_LOGON_CNT) ;

     1023    13943    4      SBINS(SBIN_IDX) = AS_USERS.LOGINS.BAD_LOGON_CNT(BOG_IDX);

  13943  4 003354   200177 235100                    LDA     BOG_IDX,,AUTO
         4 003355   000001 735000                    ALS     1
         4 003356   000765 235005 xsym               LDA     AS_USERS+501,AL
         4 003357   200164 720100                    LXL0    SBIN_IDX,,AUTO
         4 003360   200020 755110                    STA     SBINS,X0,AUTO

     1024    13944    4      CLASS = C_SBIN ;

  13944  4 003361   000014 236007                    LDQ     12,DL
         4 003362   200005 756100                    STQ     CLASS,,AUTO
         4 003363   004131 710000 4                  TRA     s:14082

     1025    13945
     1026    13946    4      SELECT (L_FORCE_SETUP);

     1027    13947    4      YES_NO = AS_USERS.SETUP_FORCE (BOG_IDX);

  13947  4 003364   200177 235100                    LDA     BOG_IDX,,AUTO
         4 003365   003367 605000 4                  TPL     s:13947+3
         4 003366   000044 035003                    ADLA    36,DU
         4 003367   003100 060405                    CSL     bolr='003'O
         4 003370   000351 650001 xsym               BDSC    AS_USERS+233,A           by=3,bit=5,n=1
         4 003371   200207 000001                    BDSC    YES_NO,,AUTO             by=0,bit=0,n=1

PL6.E3A0      #002=ASL$LIST_OUT File=ASL$EXT.:E05TSI                             TUE 07/29/97 09:59 Page:230
     1028    13948    4      CLASS = C_YESNO;

  13948  4 003372   000002 235007                    LDA     2,DL
         4 003373   200005 755100                    STA     CLASS,,AUTO
         4 003374   004131 710000 4                  TRA     s:14082

     1029    13949
     1030    13950    4      SELECT(L_BATNUM) ;

     1031    13951    4      SBINS(SBIN_IDX) = AS_USERS.BATNUM ;

  13951  4 003375   000005 236000 xsym               LDQ     AS_USERS+5
         4 003376   000022 736000                    QLS     18
         4 003377   000022 732000                    QRS     18
         4 003400   200164 720100                    LXL0    SBIN_IDX,,AUTO
         4 003401   200020 756110                    STQ     SBINS,X0,AUTO

     1032    13952    4      CLASS = C_SBIN ;

  13952  4 003402   000014 235007                    LDA     12,DL
         4 003403   200005 755100                    STA     CLASS,,AUTO
         4 003404   004131 710000 4                  TRA     s:14082

     1033    13953
     1034    13954    4      SELECT(L_QUAN) ;

     1035    13955    4      SBINS(SBIN_IDX) = AS_USERS.QUAN(BOG_IDX) ;

  13955  4 003405   200177 235100                    LDA     BOG_IDX,,AUTO
         4 003406   000001 735000                    ALS     1
         4 003407   000100 100405                    MLR     fill='000'O
         4 003410   000235 000002 xsym               ADSC9   AS_USERS+157,A           cn=0,n=2
         4 003411   200224 000004                    ADSC9   I+2,,AUTO                cn=0,n=4
         4 003412   200224 236100                    LDQ     I+2,,AUTO
         4 003413   000022 732000                    QRS     18
         4 003414   200164 720100                    LXL0    SBIN_IDX,,AUTO
         4 003415   200020 756110                    STQ     SBINS,X0,AUTO
PL6.E3A0      #002=ASL$LIST_OUT File=ASL$EXT.:E05TSI                             TUE 07/29/97 09:59 Page:231

     1036    13956    4      CLASS = C_SBIN ;

  13956  4 003416   000014 235007                    LDA     12,DL
         4 003417   200005 755100                    STA     CLASS,,AUTO
         4 003420   004131 710000 4                  TRA     s:14082

     1037    13957
     1038    13958    4      SELECT(L_PRIOB) ;

     1039    13959    4      SBINS(SBIN_IDX) = AS_USERS.PRIOB(BOG_IDX) ;

  13959  4 003421   200177 235100                    LDA     BOG_IDX,,AUTO
         4 003422   000100 100405                    MLR     fill='000'O
         4 003423   000241 000001 xsym               ADSC9   AS_USERS+161,A           cn=0,n=1
         4 003424   200224 000004                    ADSC9   I+2,,AUTO                cn=0,n=4
         4 003425   200224 236100                    LDQ     I+2,,AUTO
         4 003426   000033 732000                    QRS     27
         4 003427   200164 720100                    LXL0    SBIN_IDX,,AUTO
         4 003430   200020 756110                    STQ     SBINS,X0,AUTO

     1040    13960    4      CLASS = C_SBIN ;

  13960  4 003431   000014 235007                    LDA     12,DL
         4 003432   200005 755100                    STA     CLASS,,AUTO
         4 003433   004131 710000 4                  TRA     s:14082

     1041    13961    4      SELECT(L_MAXENQ) ;

     1042    13962    4      SBINS(SBIN_IDX)= AS_USERS.MAXENQ(BOG_IDX);

  13962  4 003434   200177 235100                    LDA     BOG_IDX,,AUTO
         4 003435   000001 735000                    ALS     1
         4 003436   200164 236100                    LDQ     SBIN_IDX,,AUTO
         4 003437   000002 736000                    QLS     2
         4 003440   000106 101405                    MRL     fill='000'O
         4 003441   000775 000002 xsym               ADSC9   AS_USERS+509,A           cn=0,n=2
PL6.E3A0      #002=ASL$LIST_OUT File=ASL$EXT.:E05TSI                             TUE 07/29/97 09:59 Page:232
         4 003442   200020 000004                    ADSC9   SBINS,Q,AUTO             cn=0,n=4

     1043    13963    4      CLASS = C_SBIN ;

  13963  4 003443   000014 235007                    LDA     12,DL
         4 003444   200005 755100                    STA     CLASS,,AUTO
         4 003445   004131 710000 4                  TRA     s:14082

     1044    13964    4      SELECT(L_FEMINTS);

     1045    13965    4      SBINS(SBIN_IDX) = KL_DREC.KL_DREC_FEBLK.MINTS(BOG_IDX) ;

  13965  4 003446   200164 235100                    LDA     SBIN_IDX,,AUTO
         4 003447   000002 735000                    ALS     2
         4 003450   200177 236100                    LDQ     BOG_IDX,,AUTO
         4 003451   000105 101406                    MRL     fill='000'O
         4 003452   000030 000001 xsym               ADSC9   KL_DREC+24,Q             cn=0,n=1
         4 003453   200020 000004                    ADSC9   SBINS,A,AUTO             cn=0,n=4

     1046    13966    4      CLASS = C_SBIN ;

  13966  4 003454   000014 235007                    LDA     12,DL
         4 003455   200005 755100                    STA     CLASS,,AUTO
         4 003456   004131 710000 4                  TRA     s:14082

     1047    13967    4      SELECT(L_FEMFPRG) ;

     1048    13968    4      SBINS(SBIN_IDX) = KL_DREC.KL_DREC_FEBLK.MFPRG ;

  13968  4 003457   000031 236000 xsym               LDQ     KL_DREC+25
         4 003460   000033 772000                    QRL     27
         4 003461   200164 720100                    LXL0    SBIN_IDX,,AUTO
         4 003462   200020 756110                    STQ     SBINS,X0,AUTO

     1049    13969    4      CLASS = C_SBIN ;

  13969  4 003463   000014 235007                    LDA     12,DL
PL6.E3A0      #002=ASL$LIST_OUT File=ASL$EXT.:E05TSI                             TUE 07/29/97 09:59 Page:233
         4 003464   200005 755100                    STA     CLASS,,AUTO
         4 003465   004131 710000 4                  TRA     s:14082

     1050    13970    4      SELECT(L_FEMEMORY);

     1051    13971    4      SBINS(SBIN_IDX) = KL_DREC.KL_DREC_FEBLK.MMEM(BOG_IDX) ;

  13971  4 003466   200177 235100                    LDA     BOG_IDX,,AUTO
         4 003467   000001 735000                    ALS     1
         4 003470   200164 236100                    LDQ     SBIN_IDX,,AUTO
         4 003471   000002 736000                    QLS     2
         4 003472   000106 101405                    MRL     fill='000'O
         4 003473   000046 000002 xsym               ADSC9   KL_DREC+38,A             cn=0,n=2
         4 003474   200020 000004                    ADSC9   SBINS,Q,AUTO             cn=0,n=4

     1052    13972    4      CLASS = C_SBIN;

  13972  4 003475   000014 235007                    LDA     12,DL
         4 003476   200005 755100                    STA     CLASS,,AUTO
         4 003477   004131 710000 4                  TRA     s:14082

     1053    13973    4      SELECT(L_FETIME);

     1054    13974    4      SBINS(SBIN_IDX) = KL_DREC.KL_DREC_FEBLK.MTIME(BOG_IDX)/6000;

  13974  4 003500   200177 720100                    LXL0    BOG_IDX,,AUTO
         4 003501   000042 236010 xsym               LDQ     KL_DREC+34,X0
         4 003502   013560 506007                    DIV     6000,DL
         4 003503   200164 721100                    LXL1    SBIN_IDX,,AUTO
         4 003504   200020 756111                    STQ     SBINS,X1,AUTO

     1055    13975    4      CLASS = C_SBIN;

  13975  4 003505   000014 235007                    LDA     12,DL
         4 003506   200005 755100                    STA     CLASS,,AUTO
         4 003507   004131 710000 4                  TRA     s:14082

PL6.E3A0      #002=ASL$LIST_OUT File=ASL$EXT.:E05TSI                             TUE 07/29/97 09:59 Page:234
     1056    13976    4      SELECT(L_FEBILL);

     1057    13977    4      FMT_VEC(FDS.NVECS#) = VECTOR(KL_DREC.KL_DREC_FEBLK.BILL(BOG_IDX));

  13977  4 003510   000011 235000 xsym               LDA     FDS+9
         4 003511   000001 735000                    ALS     1
         4 003512   000000 620005                    EAX0    0,AL
         4 003513   000042 235000 5                  LDA     34
         4 003514   200177 236100                    LDQ     BOG_IDX,,AUTO
         4 003515   200224 755100                    STA     I+2,,AUTO
         4 003516   000062 402000 5                  MPY     50
         4 003517   000077 036000 5                  ADLQ    63
         4 003520   200224 235100                    LDA     I+2,,AUTO
         4 003521   000000 755010 xsym               STA     FMT_VEC,X0
         4 003522   000001 756010 xsym               STQ     FMT_VEC+1,X0

     1058    13978    4      CLASS = C_TEXT;

  13978  4 003523   000001 235007                    LDA     1,DL
         4 003524   200005 755100                    STA     CLASS,,AUTO
         4 003525   004131 710000 4                  TRA     s:14082

     1059    13979    4      SELECT(L_FEDBACCN);

     1060    13980    4      FMT_VEC(FDS.NVECS#) = VECTOR(KL_DREC.KL_DREC_FEBLK.DBACCN);

  13980  4 003526   000011 235000 xsym               LDA     FDS+9
         4 003527   000001 735000                    ALS     1
         4 003530   000000 620005                    EAX0    0,AL
         4 003531   000000 621005                    EAX1    0,AL
         4 003532   000100 237000 5                  LDAQ    64
         4 003533   000000 755010 xsym               STA     FMT_VEC,X0
         4 003534   000001 756011 xsym               STQ     FMT_VEC+1,X1

     1061    13981    4      CLASS = C_TEXT;

  13981  4 003535   000001 235007                    LDA     1,DL
PL6.E3A0      #002=ASL$LIST_OUT File=ASL$EXT.:E05TSI                             TUE 07/29/97 09:59 Page:235
         4 003536   200005 755100                    STA     CLASS,,AUTO
         4 003537   004131 710000 4                  TRA     s:14082

     1062    13982    4      SELECT(L_FESTEPACCNT);

     1063    13983    4      YES_NO = KL_DREC.KL_DREC_FEBLK.FLAGS.STEPACCT;

  13983  4 003540   000031 236000 xsym               LDQ     KL_DREC+25
         4 003541   000033 736000                    QLS     27
         4 003542   400000 376003                    ANQ     -131072,DU
         4 003543   200207 756100                    STQ     YES_NO,,AUTO

     1064    13984    4      CLASS = C_YESNO;

  13984  4 003544   000002 235007                    LDA     2,DL
         4 003545   200005 755100                    STA     CLASS,,AUTO
         4 003546   004131 710000 4                  TRA     s:14082

     1065    13985    4      SELECT(L_FEACCTMEM);

     1066    13986    4      SBINS(SBIN_IDX) = KL_DREC.KL_DREC_FEBLK.MACCTMEM ;

  13986  4 003547   000031 236000 xsym               LDQ     KL_DREC+25
         4 003550   000011 772000                    QRL     9
         4 003551   777777 376007                    ANQ     -1,DL
         4 003552   200164 720100                    LXL0    SBIN_IDX,,AUTO
         4 003553   200020 756110                    STQ     SBINS,X0,AUTO

     1067    13987    4      CLASS = C_SBIN;

  13987  4 003554   000014 235007                    LDA     12,DL
         4 003555   200005 755100                    STA     CLASS,,AUTO
         4 003556   004131 710000 4                  TRA     s:14082

     1068    13988    4      SELECT(L_MMEM);

     1069    13989    4      SBINS(SBIN_IDX) = AS_USERS.MMEM(BOG_IDX);
PL6.E3A0      #002=ASL$LIST_OUT File=ASL$EXT.:E05TSI                             TUE 07/29/97 09:59 Page:236

  13989  4 003557   200177 235100                    LDA     BOG_IDX,,AUTO
         4 003560   000001 735000                    ALS     1
         4 003561   200164 236100                    LDQ     SBIN_IDX,,AUTO
         4 003562   000002 736000                    QLS     2
         4 003563   000106 101405                    MRL     fill='000'O
         4 003564   000261 000002 xsym               ADSC9   AS_USERS+177,A           cn=0,n=2
         4 003565   200020 000004                    ADSC9   SBINS,Q,AUTO             cn=0,n=4

     1070    13990    4      CLASS = C_SBIN;

  13990  4 003566   000014 235007                    LDA     12,DL
         4 003567   200005 755100                    STA     CLASS,,AUTO
         4 003570   004131 710000 4                  TRA     s:14082

     1071    13991    4      SELECT(L_DMEM);

     1072    13992    4      SBINS(SBIN_IDX) = AS_USERS.DMEM(BOG_IDX);

  13992  4 003571   200177 235100                    LDA     BOG_IDX,,AUTO
         4 003572   000001 735000                    ALS     1
         4 003573   200164 236100                    LDQ     SBIN_IDX,,AUTO
         4 003574   000002 736000                    QLS     2
         4 003575   000106 101405                    MRL     fill='000'O
         4 003576   000263 000002 xsym               ADSC9   AS_USERS+179,A           cn=0,n=2
         4 003577   200020 000004                    ADSC9   SBINS,Q,AUTO             cn=0,n=4

     1073    13993    4      CLASS = C_SBIN;

  13993  4 003600   000014 235007                    LDA     12,DL
         4 003601   200005 755100                    STA     CLASS,,AUTO
         4 003602   004131 710000 4                  TRA     s:14082

     1074    13994    4      SELECT(L_MTIME);

     1075    13995    4      SBINS(SBIN_IDX) = AS_USERS.MTIME(BOG_IDX)/6000;

PL6.E3A0      #002=ASL$LIST_OUT File=ASL$EXT.:E05TSI                             TUE 07/29/97 09:59 Page:237
  13995  4 003603   200177 720100                    LXL0    BOG_IDX,,AUTO
         4 003604   000251 236010 xsym               LDQ     AS_USERS+169,X0
         4 003605   000001 772000                    QRL     1
         4 003606   005670 506007                    DIV     3000,DL
         4 003607   200164 721100                    LXL1    SBIN_IDX,,AUTO
         4 003610   200020 756111                    STQ     SBINS,X1,AUTO

     1076    13996    4      CLASS = C_SBIN;

  13996  4 003611   000014 235007                    LDA     12,DL
         4 003612   200005 755100                    STA     CLASS,,AUTO
         4 003613   004131 710000 4                  TRA     s:14082

     1077    13997    4      SELECT(L_DTIME);

     1078    13998    4      SBINS(SBIN_IDX) = AS_USERS.DTIME(BOG_IDX)/6000;

  13998  4 003614   200177 720100                    LXL0    BOG_IDX,,AUTO
         4 003615   000255 236010 xsym               LDQ     AS_USERS+173,X0
         4 003616   000001 772000                    QRL     1
         4 003617   005670 506007                    DIV     3000,DL
         4 003620   200164 721100                    LXL1    SBIN_IDX,,AUTO
         4 003621   200020 756111                    STQ     SBINS,X1,AUTO

     1079    13999    4      CLASS = C_SBIN;

  13999  4 003622   000014 235007                    LDA     12,DL
         4 003623   200005 755100                    STA     CLASS,,AUTO
         4 003624   004131 710000 4                  TRA     s:14082

     1080    14000    4      SELECT(L_MLO);

     1081    14001    4      SBINS(SBIN_IDX) = AS_USERS.MLO(BOG_IDX);

  14001  4 003625   200177 720100                    LXL0    BOG_IDX,,AUTO
         4 003626   000036 235010 xsym               LDA     AS_USERS+30,X0
         4 003627   200164 721100                    LXL1    SBIN_IDX,,AUTO
PL6.E3A0      #002=ASL$LIST_OUT File=ASL$EXT.:E05TSI                             TUE 07/29/97 09:59 Page:238
         4 003630   200020 755111                    STA     SBINS,X1,AUTO

     1082    14002    4      CLASS = C_SBIN;

  14002  4 003631   000014 236007                    LDQ     12,DL
         4 003632   200005 756100                    STQ     CLASS,,AUTO
         4 003633   004131 710000 4                  TRA     s:14082

     1083    14003    4      SELECT(L_DLO);

     1084    14004    4      SBINS(SBIN_IDX) = AS_USERS.DLO(BOG_IDX);

  14004  4 003634   200177 720100                    LXL0    BOG_IDX,,AUTO
         4 003635   000042 235010 xsym               LDA     AS_USERS+34,X0
         4 003636   200164 721100                    LXL1    SBIN_IDX,,AUTO
         4 003637   200020 755111                    STA     SBINS,X1,AUTO

     1085    14005    4      CLASS = C_SBIN;

  14005  4 003640   000014 236007                    LDQ     12,DL
         4 003641   200005 756100                    STQ     CLASS,,AUTO
         4 003642   004131 710000 4                  TRA     s:14082

     1086    14006    4      SELECT(L_MPO);

     1087    14007    4      SBINS(SBIN_IDX) = AS_USERS.MPO(BOG_IDX);

  14007  4 003643   200177 720100                    LXL0    BOG_IDX,,AUTO
         4 003644   000056 235010 xsym               LDA     AS_USERS+46,X0
         4 003645   200164 721100                    LXL1    SBIN_IDX,,AUTO
         4 003646   200020 755111                    STA     SBINS,X1,AUTO

     1088    14008    4      CLASS = C_SBIN;

  14008  4 003647   000014 236007                    LDQ     12,DL
         4 003650   200005 756100                    STQ     CLASS,,AUTO
         4 003651   004131 710000 4                  TRA     s:14082
PL6.E3A0      #002=ASL$LIST_OUT File=ASL$EXT.:E05TSI                             TUE 07/29/97 09:59 Page:239

     1089    14009    4      SELECT(L_DPO);

     1090    14010    4      SBINS(SBIN_IDX) = AS_USERS.DPO(BOG_IDX);

  14010  4 003652   200177 720100                    LXL0    BOG_IDX,,AUTO
         4 003653   000062 235010 xsym               LDA     AS_USERS+50,X0
         4 003654   200164 721100                    LXL1    SBIN_IDX,,AUTO
         4 003655   200020 755111                    STA     SBINS,X1,AUTO

     1091    14011    4      CLASS = C_SBIN;

  14011  4 003656   000014 236007                    LDQ     12,DL
         4 003657   200005 756100                    STQ     CLASS,,AUTO
         4 003660   004131 710000 4                  TRA     s:14082

     1092    14012    4      SELECT(L_MDO);

     1093    14013    4      SBINS(SBIN_IDX) = AS_USERS.MDO(BOG_IDX);

  14013  4 003661   200177 720100                    LXL0    BOG_IDX,,AUTO
         4 003662   000046 235010 xsym               LDA     AS_USERS+38,X0
         4 003663   200164 721100                    LXL1    SBIN_IDX,,AUTO
         4 003664   200020 755111                    STA     SBINS,X1,AUTO

     1094    14014    4      CLASS = C_SBIN;

  14014  4 003665   000014 236007                    LDQ     12,DL
         4 003666   200005 756100                    STQ     CLASS,,AUTO
         4 003667   004131 710000 4                  TRA     s:14082

     1095    14015    4      SELECT(L_DDO);

     1096    14016    4      SBINS(SBIN_IDX) = AS_USERS.DDO(BOG_IDX);

  14016  4 003670   200177 720100                    LXL0    BOG_IDX,,AUTO
         4 003671   000052 235010 xsym               LDA     AS_USERS+42,X0
PL6.E3A0      #002=ASL$LIST_OUT File=ASL$EXT.:E05TSI                             TUE 07/29/97 09:59 Page:240
         4 003672   200164 721100                    LXL1    SBIN_IDX,,AUTO
         4 003673   200020 755111                    STA     SBINS,X1,AUTO

     1097    14017    4      CLASS = C_SBIN;

  14017  4 003674   000014 236007                    LDQ     12,DL
         4 003675   200005 756100                    STQ     CLASS,,AUTO
         4 003676   004131 710000 4                  TRA     s:14082

     1098    14018    4      SELECT(L_MTDP);

     1099    14019    4      SBINS(SBIN_IDX) = AS_USERS.MTDIS(BOG_IDX);

  14019  4 003677   200177 720100                    LXL0    BOG_IDX,,AUTO
         4 003700   000076 235010 xsym               LDA     AS_USERS+62,X0
         4 003701   200164 721100                    LXL1    SBIN_IDX,,AUTO
         4 003702   200020 755111                    STA     SBINS,X1,AUTO

     1100    14020    4      CLASS = C_SBIN;

  14020  4 003703   000014 236007                    LDQ     12,DL
         4 003704   200005 756100                    STQ     CLASS,,AUTO
         4 003705   004131 710000 4                  TRA     s:14082

     1101    14021    4      SELECT(L_DTDP);

     1102    14022    4      SBINS(SBIN_IDX) = AS_USERS.DTDIS(BOG_IDX);

  14022  4 003706   200177 720100                    LXL0    BOG_IDX,,AUTO
         4 003707   000102 235010 xsym               LDA     AS_USERS+66,X0
         4 003710   200164 721100                    LXL1    SBIN_IDX,,AUTO
         4 003711   200020 755111                    STA     SBINS,X1,AUTO

     1103    14023    4      CLASS = C_SBIN;

  14023  4 003712   000014 236007                    LDQ     12,DL
         4 003713   200005 756100                    STQ     CLASS,,AUTO
PL6.E3A0      #002=ASL$LIST_OUT File=ASL$EXT.:E05TSI                             TUE 07/29/97 09:59 Page:241
         4 003714   004131 710000 4                  TRA     s:14082

     1104    14024    4      SELECT(L_MPDP);

     1105    14025    4      SBINS(SBIN_IDX) = AS_USERS.MPDIS(BOG_IDX);

  14025  4 003715   200177 720100                    LXL0    BOG_IDX,,AUTO
         4 003716   000066 235010 xsym               LDA     AS_USERS+54,X0
         4 003717   200164 721100                    LXL1    SBIN_IDX,,AUTO
         4 003720   200020 755111                    STA     SBINS,X1,AUTO

     1106    14026    4      CLASS = C_SBIN;

  14026  4 003721   000014 236007                    LDQ     12,DL
         4 003722   200005 756100                    STQ     CLASS,,AUTO
         4 003723   004131 710000 4                  TRA     s:14082

     1107    14027    4      SELECT(L_DPDP);

     1108    14028    4      SBINS(SBIN_IDX) = AS_USERS.DPDIS(BOG_IDX);

  14028  4 003724   200177 720100                    LXL0    BOG_IDX,,AUTO
         4 003725   000072 235010 xsym               LDA     AS_USERS+58,X0
         4 003726   200164 721100                    LXL1    SBIN_IDX,,AUTO
         4 003727   200020 755111                    STA     SBINS,X1,AUTO

     1109    14029    4      CLASS = C_SBIN;

  14029  4 003730   000014 236007                    LDQ     12,DL
         4 003731   200005 756100                    STQ     CLASS,,AUTO
         4 003732   004131 710000 4                  TRA     s:14082

     1110    14030    4      SELECT(L_MPOOL);

     1111    14031    4      SBINS(SBIN_IDX) = AS_USERS.MFPOOLS(BOG_IDX);

  14031  4 003733   200164 235100                    LDA     SBIN_IDX,,AUTO
PL6.E3A0      #002=ASL$LIST_OUT File=ASL$EXT.:E05TSI                             TUE 07/29/97 09:59 Page:242
         4 003734   000002 735000                    ALS     2
         4 003735   200177 236100                    LDQ     BOG_IDX,,AUTO
         4 003736   000105 101406                    MRL     fill='000'O
         4 003737   000106 000001 xsym               ADSC9   AS_USERS+70,Q            cn=0,n=1
         4 003740   200020 000004                    ADSC9   SBINS,A,AUTO             cn=0,n=4

     1112    14032    4      CLASS = C_SBIN;

  14032  4 003741   000014 235007                    LDA     12,DL
         4 003742   200005 755100                    STA     CLASS,,AUTO
         4 003743   004131 710000 4                  TRA     s:14082

     1113    14033    4      SELECT(L_DPOOL);

     1114    14034    4      SBINS(SBIN_IDX) = AS_USERS.DFPOOLS(BOG_IDX);

  14034  4 003744   200164 235100                    LDA     SBIN_IDX,,AUTO
         4 003745   000002 735000                    ALS     2
         4 003746   200177 236100                    LDQ     BOG_IDX,,AUTO
         4 003747   000105 101406                    MRL     fill='000'O
         4 003750   000107 000001 xsym               ADSC9   AS_USERS+71,Q            cn=0,n=1
         4 003751   200020 000004                    ADSC9   SBINS,A,AUTO             cn=0,n=4

     1115    14035    4      CLASS = C_SBIN;

  14035  4 003752   000014 235007                    LDA     12,DL
         4 003753   200005 755100                    STA     CLASS,,AUTO
         4 003754   004131 710000 4                  TRA     s:14082

     1116    14036    4      SELECT(L_MPRI);

     1117    14037    4      SBINS(SBIN_IDX) = AS_USERS.MMPRIO(BOG_IDX);

  14037  4 003755   200164 235100                    LDA     SBIN_IDX,,AUTO
         4 003756   000002 735000                    ALS     2
         4 003757   200177 236100                    LDQ     BOG_IDX,,AUTO
         4 003760   000105 101406                    MRL     fill='000'O
PL6.E3A0      #002=ASL$LIST_OUT File=ASL$EXT.:E05TSI                             TUE 07/29/97 09:59 Page:243
         4 003761   000110 000001 xsym               ADSC9   AS_USERS+72,Q            cn=0,n=1
         4 003762   200020 000004                    ADSC9   SBINS,A,AUTO             cn=0,n=4

     1118    14038    4      CLASS = C_SBIN;

  14038  4 003763   000014 235007                    LDA     12,DL
         4 003764   200005 755100                    STA     CLASS,,AUTO
         4 003765   004131 710000 4                  TRA     s:14082

     1119    14039    4      SELECT(L_DPRI);

     1120    14040    4      SBINS(SBIN_IDX) = AS_USERS.DMPRIO(BOG_IDX);

  14040  4 003766   200164 235100                    LDA     SBIN_IDX,,AUTO
         4 003767   000002 735000                    ALS     2
         4 003770   200177 236100                    LDQ     BOG_IDX,,AUTO
         4 003771   000105 101406                    MRL     fill='000'O
         4 003772   000111 000001 xsym               ADSC9   AS_USERS+73,Q            cn=0,n=1
         4 003773   200020 000004                    ADSC9   SBINS,A,AUTO             cn=0,n=4

     1121    14041    4      CLASS = C_SBIN;

  14041  4 003774   000014 235007                    LDA     12,DL
         4 003775   200005 755100                    STA     CLASS,,AUTO
         4 003776   004131 710000 4                  TRA     s:14082

     1122    14042    4      SELECT(L_ACCTS_VAL);

     1123    14043    4      SBINS(SBIN_IDX) = AS_PROJECT_DFLT.BUDGET.PROJ_ALLOWED;

  14043  4 003777   200164 720100                    LXL0    SBIN_IDX,,AUTO
         4 004000   000010 235000 xsym               LDA     AS_PROJECT_DFLT+8
         4 004001   200020 755110                    STA     SBINS,X0,AUTO

     1124    14044    4      CLASS = C_SBIN;

  14044  4 004002   000014 235007                    LDA     12,DL
PL6.E3A0      #002=ASL$LIST_OUT File=ASL$EXT.:E05TSI                             TUE 07/29/97 09:59 Page:244
         4 004003   200005 755100                    STA     CLASS,,AUTO
         4 004004   004131 710000 4                  TRA     s:14082

     1125    14045    4      SELECT(L_ACCT_ACCUM);

     1126    14046    4      SBINS(SBIN_IDX) = AS_PROJECT_DFLT.BUDGET.PROJ_CREATED;

  14046  4 004005   200164 720100                    LXL0    SBIN_IDX,,AUTO
         4 004006   000011 235000 xsym               LDA     AS_PROJECT_DFLT+9
         4 004007   200020 755110                    STA     SBINS,X0,AUTO

     1127    14047    4      CLASS = C_SBIN;

  14047  4 004010   000014 235007                    LDA     12,DL
         4 004011   200005 755100                    STA     CLASS,,AUTO
         4 004012   004131 710000 4                  TRA     s:14082

     1128    14048    4      SELECT(L_MCHARGES_VAL);

     1129    14049    5      IF AS_PROJECT.BUDGET.PMAXC = -1 THEN DO;

  14049  4 004013   000010 235000 xsym               LDA     AS_PROJECT+8
         4 004014   000027 115000 xsym               CMPA    B_VECTNIL+23
         4 004015   004030 601000 4                  TNZ     s:14054

     1130    14050    5         FMT_VEC(FDS.NVECS#) = VECTOR(NONE_STR);

  14050  4 004016   000011 235000 xsym               LDA     FDS+9
         4 004017   000001 735000                    ALS     1
         4 004020   000000 620005                    EAX0    0,AL
         4 004021   000000 622005                    EAX2    0,AL
         4 004022   000056 237000 5                  LDAQ    46
         4 004023   000000 755010 xsym               STA     FMT_VEC,X0
         4 004024   000001 756012 xsym               STQ     FMT_VEC+1,X2

     1131    14051    5         CLASS = C_TEXT;

PL6.E3A0      #002=ASL$LIST_OUT File=ASL$EXT.:E05TSI                             TUE 07/29/97 09:59 Page:245
  14051  4 004025   000001 235007                    LDA     1,DL
         4 004026   200005 755100                    STA     CLASS,,AUTO

     1132    14052    5         END;

  14052  4 004027   004131 710000 4                  TRA     s:14082

     1133    14053    5      ELSE DO;

     1134    14054    5         SVAL = AS_PROJECT.BUDGET.PMAXC;

  14054  4 004030   200165 755100                    STA     SVAL,,AUTO

     1135    14055    5         CLASS = C_MONEY;

  14055  4 004031   000004 235007                    LDA     4,DL
         4 004032   200005 755100                    STA     CLASS,,AUTO

     1136    14056    5         END;

  14056  4 004033   004131 710000 4                  TRA     s:14082

     1137    14057    4      SELECT(L_CHG_ACCUM);

     1138    14058    4      SVAL = AS_PROJECT.BUDGET.PACCUM;

  14058  4 004034   000011 235000 xsym               LDA     AS_PROJECT+9
         4 004035   200165 755100                    STA     SVAL,,AUTO

     1139    14059    4      CLASS = C_MONEY;

  14059  4 004036   000004 235007                    LDA     4,DL
         4 004037   200005 755100                    STA     CLASS,,AUTO
         4 004040   004131 710000 4                  TRA     s:14082

     1140    14060    4      SELECT(L_PROJ_PROJ);

PL6.E3A0      #002=ASL$LIST_OUT File=ASL$EXT.:E05TSI                             TUE 07/29/97 09:59 Page:246
     1141    14061    4      SBINS(SBIN_IDX) = AS_PROJECT.BUDGET.MAX_PROJECTS;

  14061  4 004041   000017 236000 xsym               LDQ     AS_PROJECT+15
         4 004042   000022 736000                    QLS     18
         4 004043   000022 732000                    QRS     18
         4 004044   200164 720100                    LXL0    SBIN_IDX,,AUTO
         4 004045   200020 756110                    STQ     SBINS,X0,AUTO

     1142    14062    4      CLASS = C_SBIN;

  14062  4 004046   000014 235007                    LDA     12,DL
         4 004047   200005 755100                    STA     CLASS,,AUTO
         4 004050   004131 710000 4                  TRA     s:14082

     1143    14063    4      SELECT(L_PROJ_ACCUM);

     1144    14064    4      SBINS(SBIN_IDX) = AS_PROJECT_DFLT.BUDGET.SUB_PROJS;

  14064  4 004051   000017 236000 xsym               LDQ     AS_PROJECT_DFLT+15
         4 004052   000022 736000                    QLS     18
         4 004053   000022 732000                    QRS     18
         4 004054   200164 720100                    LXL0    SBIN_IDX,,AUTO
         4 004055   200020 756110                    STQ     SBINS,X0,AUTO

     1145    14065    4      CLASS = C_SBIN;

  14065  4 004056   000014 235007                    LDA     12,DL
         4 004057   200005 755100                    STA     CLASS,,AUTO
         4 004060   004131 710000 4                  TRA     s:14082

     1146    14066    4      SELECT(L_PACK_ACCT);

     1147    14067    4      SBINS(SBIN_IDX) = AS$PROJ.MAX_NUM_ACCTS;

  14067  4 004061   000000 470400 xsym               LDP0    DSEG2$
         4 004062   000012 235100                    LDA     10,,PR0
         4 004063   200164 720100                    LXL0    SBIN_IDX,,AUTO
PL6.E3A0      #002=ASL$LIST_OUT File=ASL$EXT.:E05TSI                             TUE 07/29/97 09:59 Page:247
         4 004064   200020 755110                    STA     SBINS,X0,AUTO

     1148    14068    4      CLASS = C_SBIN;

  14068  4 004065   000014 235007                    LDA     12,DL
         4 004066   200005 755100                    STA     CLASS,,AUTO
         4 004067   004131 710000 4                  TRA     s:14082

     1149    14069    4      SELECT(L_P_ACCT_ACCUM);

     1150    14070    4      SBINS(SBIN_IDX) = AS$PROJ.NUM_ACCTS + AS$PROJ.SUB_PROJ_ACCTS;

  14070  4 004070   000000 470400 xsym               LDP0    DSEG2$
         4 004071   000005 236100                    LDQ     5,,PR0
         4 004072   777777 376007                    ANQ     -1,DL
         4 004073   000013 036100                    ADLQ    11,,PR0
         4 004074   200164 720100                    LXL0    SBIN_IDX,,AUTO
         4 004075   200020 756110                    STQ     SBINS,X0,AUTO

     1151    14071    4      CLASS = C_SBIN;

  14071  4 004076   000014 235007                    LDA     12,DL
         4 004077   200005 755100                    STA     CLASS,,AUTO
         4 004100   004131 710000 4                  TRA     s:14082

     1152    14072    4      SELECT(L_PACK_GRAN);

     1153    14073    4      SBINS(SBIN_IDX) = AS$PROJ.MAX_NUM_GRANS;

  14073  4 004101   000000 470400 xsym               LDP0    DSEG2$
         4 004102   000006 235100                    LDA     6,,PR0
         4 004103   200164 720100                    LXL0    SBIN_IDX,,AUTO
         4 004104   200020 755110                    STA     SBINS,X0,AUTO

     1154    14074    4      CLASS = C_SBIN;

  14074  4 004105   000014 235007                    LDA     12,DL
PL6.E3A0      #002=ASL$LIST_OUT File=ASL$EXT.:E05TSI                             TUE 07/29/97 09:59 Page:248
         4 004106   200005 755100                    STA     CLASS,,AUTO
         4 004107   004131 710000 4                  TRA     s:14082

     1155    14075    4      SELECT(L_P_GRAN_ACCUM);

     1156    14076    4      SBINS(SBIN_IDX) = AS$PROJ.GRANS_ACCUM;

  14076  4 004110   000000 470400 xsym               LDP0    DSEG2$
         4 004111   200164 720100                    LXL0    SBIN_IDX,,AUTO
         4 004112   000007 235100                    LDA     7,,PR0
         4 004113   200020 755110                    STA     SBINS,X0,AUTO

     1157    14077    4      CLASS = C_SBIN;

  14077  4 004114   000014 235007                    LDA     12,DL
         4 004115   200005 755100                    STA     CLASS,,AUTO
         4 004116   004131 710000 4                  TRA     s:14082

     1158    14078    4      SELECT(L_PACK_SKEL);

     1159    14079    4      FMT_VEC(FDS.NVECS#) = VECTOR( AS$PROJ.SKELETON );

  14079  4 004117   000011 235000 xsym               LDA     FDS+9
         4 004120   000001 735000                    ALS     1
         4 004121   000000 620005                    EAX0    0,AL
         4 004122   000052 235000 5                  LDA     42
         4 004123   000000 236000 xsym               LDQ     DSEG2$
         4 004124   000010 036003                    ADLQ    8,DU
         4 004125   000000 755010 xsym               STA     FMT_VEC,X0
         4 004126   000001 756010 xsym               STQ     FMT_VEC+1,X0

     1160    14080    4      CLASS = C_TEXT;

  14080  4 004127   000001 235007                    LDA     1,DL
         4 004130   200005 755100                    STA     CLASS,,AUTO

     1161    14081    4      END;                           /* End case ... finally               */
PL6.E3A0      #002=ASL$LIST_OUT File=ASL$EXT.:E05TSI                             TUE 07/29/97 09:59 Page:249

     1162    14082    4   DO SELECT(CLASS);

  14082  4 004131   200005 236100                    LDQ     CLASS,,AUTO
         4 004132   000002 116007                    CMPQ    2,DL
         4 004133   004144 604000 4                  TMI     s:14082+11
         4 004134   004213 600000 4                  TZE     s:14094
         4 004135   000014 116007                    CMPQ    12,DL
         4 004136   004141 604000 4                  TMI     s:14082+8
         4 004137   004163 600000 4                  TZE     s:14088
         4 004140   004325 710000 4                  TRA     s:14116
         4 004141   000004 116007                    CMPQ    4,DL
         4 004142   004325 601000 4                  TNZ     s:14116
         4 004143   004250 710000 4                  TRA     s:14103
         4 004144   000001 116007                    CMPQ    1,DL
         4 004145   004325 601000 4                  TNZ     s:14116
         4 004146   004147 710000 4                  TRA     s:14084

     1163    14083    4      SELECT(C_TEXT);

     1164    14084    4      FDS.NVECS# = FDS.NVECS# + 1;

  14084  4 004147   000011 054000 xsym               AOS     FDS+9

     1165    14085    4      CALL INSERT(FMT_BUF,FDS.FMT_.BOUND+1,3,'%>A');

  14085  4 004150   000000 236000 xsym               LDQ     FDS
         4 004151   000020 772000                    QRL     16
         4 004152   040006 100400                    MLR     fill='040'O
         4 004153   005143 000003 2                  ADSC9   PRIV_TBL+243             cn=0,n=3
         4 004154   000000 200003 xsym               ADSC9   FMT_BUF,Q                cn=1,n=3

     1166    14086    4      FDS.FMT_.BOUND = FDS.FMT_.BOUND + 3;

  14086  4 004155   000003 036007                    ADLQ    3,DL
         4 004156   000020 736000                    QLS     16
         4 004157   000000 676000 xsym               ERQ     FDS
PL6.E3A0      #002=ASL$LIST_OUT File=ASL$EXT.:E05TSI                             TUE 07/29/97 09:59 Page:250
         4 004160   000034 376000 xsym               ANQ     B_VECTNIL+28
         4 004161   000000 656000 xsym               ERSQ    FDS
         4 004162   004325 710000 4                  TRA     s:14116

     1167    14087    4      SELECT(C_SBIN);

     1168    14088    4      FMT_VEC(FDS.NVECS#) = VECTOR(SBINS(SBIN_IDX));

  14088  4 004163   000011 235000 xsym               LDA     FDS+9
         4 004164   000001 735000                    ALS     1
         4 004165   000000 620005                    EAX0    0,AL
         4 004166   777640 235007                    LDA     -96,DL
         4 004167   200224 452500                    STP2    I+2,,AUTO
         4 004170   200164 236100                    LDQ     SBIN_IDX,,AUTO
         4 004171   000022 736000                    QLS     18
         4 004172   000020 036003                    ADLQ    16,DU
         4 004173   200224 036100                    ADLQ    I+2,,AUTO
         4 004174   000000 755010 xsym               STA     FMT_VEC,X0
         4 004175   000001 756010 xsym               STQ     FMT_VEC+1,X0

     1169    14089    4      FDS.NVECS# = FDS.NVECS# + 1;

  14089  4 004176   000011 054000 xsym               AOS     FDS+9

     1170    14090    4      SBIN_IDX = SBIN_IDX + 1;

  14090  4 004177   200164 054100                    AOS     SBIN_IDX,,AUTO

     1171    14091    4      CALL INSERT(FMT_BUF,FDS.FMT_.BOUND+1,3,'%+D');

  14091  4 004200   000000 236000 xsym               LDQ     FDS
         4 004201   000020 772000                    QRL     16
         4 004202   040006 100400                    MLR     fill='040'O
         4 004203   005144 000003 2                  ADSC9   PRIV_TBL+244             cn=0,n=3
         4 004204   000000 200003 xsym               ADSC9   FMT_BUF,Q                cn=1,n=3

     1172    14092    4      FDS.FMT_.BOUND = FDS.FMT_.BOUND + 3;
PL6.E3A0      #002=ASL$LIST_OUT File=ASL$EXT.:E05TSI                             TUE 07/29/97 09:59 Page:251

  14092  4 004205   000003 036007                    ADLQ    3,DL
         4 004206   000020 736000                    QLS     16
         4 004207   000000 676000 xsym               ERQ     FDS
         4 004210   000034 376000 xsym               ANQ     B_VECTNIL+28
         4 004211   000000 656000 xsym               ERSQ    FDS
         4 004212   004325 710000 4                  TRA     s:14116

     1173    14093    4      SELECT(C_YESNO);

     1174    14094    4      IF YES_NO

  14094  4 004213   200207 234100                    SZN     YES_NO,,AUTO
         4 004214   004225 605000 4                  TPL     s:14098

     1175    14095    4      THEN
     1176    14096    4         FMT_VEC(FDS.NVECS#) = VECTOR(YES_STR);

  14096  4 004215   000011 235000 xsym               LDA     FDS+9
         4 004216   000001 735000                    ALS     1
         4 004217   000000 620005                    EAX0    0,AL
         4 004220   000000 621005                    EAX1    0,AL
         4 004221   000102 237000 5                  LDAQ    66
         4 004222   000000 755010 xsym               STA     FMT_VEC,X0
         4 004223   000001 756011 xsym               STQ     FMT_VEC+1,X1
         4 004224   004234 710000 4                  TRA     s:14099

     1177    14097    4      ELSE
     1178    14098    4         FMT_VEC(FDS.NVECS#) = VECTOR(NO_STR);

  14098  4 004225   000011 235000 xsym               LDA     FDS+9
         4 004226   000001 735000                    ALS     1
         4 004227   000000 620005                    EAX0    0,AL
         4 004230   000000 621005                    EAX1    0,AL
         4 004231   000104 237000 5                  LDAQ    68
         4 004232   000000 755010 xsym               STA     FMT_VEC,X0
         4 004233   000001 756011 xsym               STQ     FMT_VEC+1,X1
PL6.E3A0      #002=ASL$LIST_OUT File=ASL$EXT.:E05TSI                             TUE 07/29/97 09:59 Page:252

     1179    14099    4      FDS.NVECS# = FDS.NVECS# + 1;

  14099  4 004234   000011 054000 xsym               AOS     FDS+9

     1180    14100    4      CALL INSERT(FMT_BUF,FDS.FMT_.BOUND+1,3,'%>A');

  14100  4 004235   000000 236000 xsym               LDQ     FDS
         4 004236   000020 772000                    QRL     16
         4 004237   040006 100400                    MLR     fill='040'O
         4 004240   005143 000003 2                  ADSC9   PRIV_TBL+243             cn=0,n=3
         4 004241   000000 200003 xsym               ADSC9   FMT_BUF,Q                cn=1,n=3

     1181    14101    4      FDS.FMT_.BOUND = FDS.FMT_.BOUND + 3;

  14101  4 004242   000003 036007                    ADLQ    3,DL
         4 004243   000020 736000                    QLS     16
         4 004244   000000 676000 xsym               ERQ     FDS
         4 004245   000034 376000 xsym               ANQ     B_VECTNIL+28
         4 004246   000000 656000 xsym               ERSQ    FDS
         4 004247   004325 710000 4                  TRA     s:14116

     1182    14102    4      SELECT(C_MONEY);

     1183    14103    4      SVAL = SVAL/100;             /* in pennies                         */

  14103  4 004250   200165 236100                    LDQ     SVAL,,AUTO
         4 004251   000144 506007                    DIV     100,DL
         4 004252   200165 756100                    STQ     SVAL,,AUTO

     1184    14104    4      SBINS(SBIN_IDX) = SVAL/100;  /* Dollar amount                      */

  14104  4 004253   000144 506007                    DIV     100,DL
         4 004254   200164 720100                    LXL0    SBIN_IDX,,AUTO
         4 004255   200020 756110                    STQ     SBINS,X0,AUTO

     1185    14105    4      SBINS(SBIN_IDX+1) = SVAL - SBINS(SBIN_IDX)*100;
PL6.E3A0      #002=ASL$LIST_OUT File=ASL$EXT.:E05TSI                             TUE 07/29/97 09:59 Page:253

  14105  4 004256   000106 402000 5                  MPY     70
         4 004257   200165 036100                    ADLQ    SVAL,,AUTO
         4 004260   200021 756110                    STQ     SBINS+1,X0,AUTO

     1186    14106    4      IF SBINS(SBIN_IDX+1)<0

  14106  4 004261   004265 605000 4                  TPL     s:14109

     1187    14107    4      THEN
     1188    14108    4         SBINS(SBIN_IDX+1) = SBINS(SBIN_IDX+1)*-1;

  14108  4 004262   200021 235110                    LDA     SBINS+1,X0,AUTO
         4 004263   000000 531000                    NEG     0
         4 004264   200021 755110                    STA     SBINS+1,X0,AUTO

     1189    14109    4      FMT_VEC(FDS.NVECS#) = VECTOR(SBINS(SBIN_IDX));

  14109  4 004265   000011 235000 xsym               LDA     FDS+9
         4 004266   000001 735000                    ALS     1
         4 004267   000000 621005                    EAX1    0,AL
         4 004270   777640 235007                    LDA     -96,DL
         4 004271   200224 452500                    STP2    I+2,,AUTO
         4 004272   200164 236100                    LDQ     SBIN_IDX,,AUTO
         4 004273   000022 736000                    QLS     18
         4 004274   000020 036003                    ADLQ    16,DU
         4 004275   200224 036100                    ADLQ    I+2,,AUTO
         4 004276   000000 755011 xsym               STA     FMT_VEC,X1
         4 004277   000001 756011 xsym               STQ     FMT_VEC+1,X1

     1190    14110    4      FMT_VEC(FDS.NVECS#+1) = VECTOR(SBINS(SBIN_IDX+1));

  14110  4 004300   777640 235007                    LDA     -96,DL
         4 004301   200224 452500                    STP2    I+2,,AUTO
         4 004302   200164 236100                    LDQ     SBIN_IDX,,AUTO
         4 004303   000022 736000                    QLS     18
         4 004304   000021 036003                    ADLQ    17,DU
PL6.E3A0      #002=ASL$LIST_OUT File=ASL$EXT.:E05TSI                             TUE 07/29/97 09:59 Page:254
         4 004305   200224 036100                    ADLQ    I+2,,AUTO
         4 004306   000002 755011 xsym               STA     FMT_VEC+2,X1
         4 004307   000003 756011 xsym               STQ     FMT_VEC+3,X1

     1191    14111    4      FDS.NVECS# = FDS.NVECS# + 2;

  14111  4 004310   000002 236007                    LDQ     2,DL
         4 004311   000011 056000 xsym               ASQ     FDS+9

     1192    14112    4      SBIN_IDX = SBIN_IDX + 2;

  14112  4 004312   200164 056100                    ASQ     SBIN_IDX,,AUTO

     1193    14113    4      CALL INSERT(FMT_BUF,FDS.FMT_.BOUND+1,8,'$%D.%2ZD');

  14113  4 004313   000000 236000 xsym               LDQ     FDS
         4 004314   000020 772000                    QRL     16
         4 004315   040006 100400                    MLR     fill='040'O
         4 004316   005145 000010 2                  ADSC9   PRIV_TBL+245             cn=0,n=8
         4 004317   000000 200010 xsym               ADSC9   FMT_BUF,Q                cn=1,n=8

     1194    14114    4      FDS.FMT_.BOUND = FDS.FMT_.BOUND + 8;

  14114  4 004320   000010 036007                    ADLQ    8,DL
         4 004321   000020 736000                    QLS     16
         4 004322   000000 676000 xsym               ERQ     FDS
         4 004323   000034 376000 xsym               ANQ     B_VECTNIL+28
         4 004324   000000 656000 xsym               ERSQ    FDS

     1195    14115    4      END;                           /* End case                           */

     1196    14116    3   RETURN;

  14116  4 004325   200206 221300                    LDX1  ! I+1,,AUTO
         4 004326   000001 702211                    TSX2  ! 1,X1

     1197    14117    3   END INSERT_FIELD;
PL6.E3A0      #002=ASL$LIST_OUT File=ASL$EXT.:E05TSI                             TUE 07/29/97 09:59 Page:255
     1198    14118    2   END LIST_FIELDS;
     1199    14119        %EJECT;
PL6.E3A0      #002=ASL$LIST_OUT File=ASL$EXT.:E05TSI                             TUE 07/29/97 09:59 Page:256
     1200    14120    1   LIST_KEY: PROC;

  14120  4 004327   200176 741300       LIST_KEY     STX1  ! TMP_LEN+1,,AUTO

     1201    14121
     1202    14122    2   DCL KEYS BIT(72) STATIC;
     1203    14123    2   DCL KEY_A(0:71) REDEF KEYS BIT(1) UNAL;
     1204    14124    2   DCL TAB UBIN STATIC INIT( 4 );
     1205    14125    2   DCL LEN UBIN STATIC;
     1206    14126    2   DCL I UBIN STATIC;
     1207    14127    2   DCL 1 ALL_KEYS CONSTANT,
     1208    14128    2          2 * BIT(36) INIT('777777777777'O),
     1209    14129    2          2 * BIT(36) INIT('777777777777'O);
     1210    14130
     1211    14131
     1212    14132    2   CALL ASB$WRITE_LO( AS_BLANK, 1 );

  14132  4 004330   000025 630400 5                  EPPR0   21
         4 004331   000020 631400 xsym               EPPR1   B_VECTNIL+16
         4 004332   000000 701000 xent               TSX1    ASB$WRITE_LO
         4 004333   000000 011000                    NOP     0

     1213    14133    2   CALL ASB$WRITE_LO( OPT_TBL.HDR(L_KEY), 6 );

  14133  4 004334   000107 630400 5                  EPPR0   71
         4 004335   000020 631400 xsym               EPPR1   B_VECTNIL+16
         4 004336   000000 701000 xent               TSX1    ASB$WRITE_LO
         4 004337   000000 011000                    NOP     0

     1214    14134    2   KEYS = AS_USERS.KEY;

  14134  4 004340   000000 100400                    MLR     fill='000'O
         4 004341   000026 000010 xsym               ADSC9   AS_USERS+22              cn=0,n=8
         4 004342   000062 000010 3                  ADSC9   KEYS                     cn=0,n=8

     1215    14135    2   IF KEYS = AS_FALSE THEN

PL6.E3A0      #002=ASL$LIST_OUT File=ASL$EXT.:E05TSI                             TUE 07/29/97 09:59 Page:257
  14135  4 004343   000000 066400                    CMPB    filb='0'B
         4 004344   000062 000110 3                  BDSC    KEYS                     by=0,bit=0,n=72
         4 004345   000000 000001 xsym               BDSC    AS_FALSE                 by=0,bit=0,n=1
         4 004346   004354 601000 4                  TNZ     s:14138

     1216    14136    2      CALL ASB$WRITE_LO('    NONE', 8);

  14136  4 004347   000111 630400 5                  EPPR0   73
         4 004350   000020 631400 xsym               EPPR1   B_VECTNIL+16
         4 004351   000000 701000 xent               TSX1    ASB$WRITE_LO
         4 004352   000000 011000                    NOP     0
         4 004353   004452 710000 4                  TRA     s:14182

     1217    14137    2   ELSE
     1218    14138    2      IF KEYS = ALL_KEYS THEN

  14138  4 004354   000062 237000 3                  LDAQ    KEYS
         4 004355   003222 117000 2                  CMPAQ   ALL_KEYS
         4 004356   004364 601000 4                  TNZ     s:14141

     1219    14139    2         CALL ASB$WRITE_LO('    ALL', 7);

  14139  4 004357   000113 630400 5                  EPPR0   75
         4 004360   000020 631400 xsym               EPPR1   B_VECTNIL+16
         4 004361   000000 701000 xent               TSX1    ASB$WRITE_LO
         4 004362   000000 011000                    NOP     0
         4 004363   004452 710000 4                  TRA     s:14182

     1220    14140    3      ELSE DO;

     1221    14141    3         CALL FLUSH;

  14141  4 004364   004454 701000 4                  TSX1    FLUSH
         4 004365   000000 011000                    NOP     0

     1222    14142    4         DO I = 1 TO 72;

PL6.E3A0      #002=ASL$LIST_OUT File=ASL$EXT.:E05TSI                             TUE 07/29/97 09:59 Page:258
  14142  4 004366   000001 235007                    LDA     1,DL
         4 004367   000066 755000 3                  STA     I

     1223    14143    5            IF KEY_A(I-1) THEN DO;

  14143  4 004370   000066 235000 3                  LDA     I
         4 004371   000000 066405                    CMPB    filb='0'B
         4 004372   000061 700001 3                  BDSC    LOGON_TIME+2,A           by=3,bit=8,n=1
         4 004373   000002 000022 xsym               BDSC    B_VECTNIL+2              by=0,bit=0,n=18
         4 004374   004443 600000 4                  TZE     s:14179

     1224    14144                    %NUMBER( NUM1=I );
             14152    5         CALL ASB$BINCHAR( AS_FIELD1.TEXT, 0, -1, I );

  14152  4 004375   000115 630400 5                  EPPR0   77
         4 004376   000022 631400 xsym               EPPR1   B_VECTNIL+18
         4 004377   000000 701000 xent               TSX1    ASB$BINCHAR
         4 004400   000000 011000                    NOP     0

     1225    14174    5               LEN = AS_FIELD1.COUNT + 1;

  14174  4 004401   000000 236000 xsym               LDQ     AS_FIELD1
         4 004402   000033 772000                    QRL     27
         4 004403   000001 036007                    ADLQ    1,DL
         4 004404   000065 756000 3                  STQ     LEN

     1226    14175    5               IF TAB + LEN > LO_WIDTH THEN CALL FLUSH;

  14175  4 004405   000064 036000 3                  ADLQ    TAB
         4 004406   000000 116000 xsym               CMPQ    LO_WIDTH
         4 004407   004413 602000 4                  TNC     s:14176
         4 004410   004413 600000 4                  TZE     s:14176

  14175  4 004411   004454 701000 4                  TSX1    FLUSH
         4 004412   000000 011000                    NOP     0

     1227    14176    5              CALL INSERT( OUT_BUF, TAB, LEN, SUBSTR(AS_FIELD1.TEXT,0,AS_FIELD1.COUNT)
PL6.E3A0      #002=ASL$LIST_OUT File=ASL$EXT.:E05TSI                             TUE 07/29/97 09:59 Page:259
             14176                        , ',' );

  14176  4 004413   000000 236000 xsym               LDQ     AS_FIELD1
         4 004414   000033 772000                    QRL     27
         4 004415   000000 620006                    EAX0    0,QL
         4 004416   000065 721000 3                  LXL1    LEN
         4 004417   000064 235000 3                  LDA     TAB
         4 004420   040045 100440                    MLR     fill='040'O
         4 004421   000000 200010 xsym               ADSC9   AS_FIELD1                cn=1,n=*X0
         4 004422   000000 000011 xsym               ADSC9   OUT_BUF,A                cn=0,n=*X1
         4 004423   200224 756100                    STQ     I+2,,AUTO
         4 004424   000000 620006                    EAX0    0,QL
         4 004425   000065 236000 3                  LDQ     LEN
         4 004426   200224 136100                    SBLQ    I+2,,AUTO
         4 004427   004440 604400 4                  TMOZ    s:14177
         4 004430   200225 756100                    STQ     I+3,,AUTO
         4 004431   000000 636010                    EAQ     0,X0
         4 004432   000022 772000                    QRL     18
         4 004433   000064 036000 3                  ADLQ    TAB
         4 004434   200225 722100                    LXL2    I+3,,AUTO
         4 004435   040046 100400                    MLR     fill='040'O
         4 004436   000000 000001 5                  ADSC9   0                        cn=0,n=1
         4 004437   000000 000012 xsym               ADSC9   OUT_BUF,Q                cn=0,n=*X2

     1228    14177    5               TAB = TAB + LEN;

  14177  4 004440   000064 236000 3                  LDQ     TAB
         4 004441   000065 036000 3                  ADLQ    LEN
         4 004442   000064 756000 3                  STQ     TAB

     1229    14178    5               END;

     1230    14179    4            END;

  14179  4 004443   000066 235000 3                  LDA     I
         4 004444   000001 035007                    ADLA    1,DL
         4 004445   000066 755000 3                  STA     I
PL6.E3A0      #002=ASL$LIST_OUT File=ASL$EXT.:E05TSI                             TUE 07/29/97 09:59 Page:260
         4 004446   000111 115007                    CMPA    73,DL
         4 004447   004370 602000 4                  TNC     s:14143

     1231    14180    3         CALL FLUSH;

  14180  4 004450   004454 701000 4                  TSX1    FLUSH
         4 004451   000000 011000                    NOP     0

     1232    14181    3         END;

     1233    14182    2   RETURN;

  14182  4 004452   200176 221300                    LDX1  ! TMP_LEN+1,,AUTO
         4 004453   000001 702211                    TSX2  ! 1,X1

     1234    14183
     1235    14184
     1236    14185    2   FLUSH: PROC;

  14185  4 004454   200200 741300       FLUSH        STX1  ! J,,AUTO

     1237    14186
     1238    14187    4   IF TAB > 4 THEN DO;

  14187  4 004455   000064 235000 3                  LDA     TAB
         4 004456   000005 115007                    CMPA    5,DL
         4 004457   004466 602000 4                  TNC     s:14191

     1239    14188    4      TAB = TAB - 1;

  14188  4 004460   000001 135007                    SBLA    1,DL
         4 004461   000064 755000 3                  STA     TAB

     1240    14189    4      CALL ASB$WRITE_LO( OUT_BUF, TAB );

  14189  4 004462   000121 630400 5                  EPPR0   81
         4 004463   000020 631400 xsym               EPPR1   B_VECTNIL+16
PL6.E3A0      #002=ASL$LIST_OUT File=ASL$EXT.:E05TSI                             TUE 07/29/97 09:59 Page:261
         4 004464   000000 701000 xent               TSX1    ASB$WRITE_LO
         4 004465   000000 011000                    NOP     0

     1241    14190    4      END;

     1242    14191    3   OUT_BUF = AS_BLANK;

  14191  4 004466   040000 100400                    MLR     fill='040'O
         4 004467   000000 000001 xsym               ADSC9   AS_BLANK                 cn=0,n=1
         4 004470   000000 000214 xsym               ADSC9   OUT_BUF                  cn=0,n=140

     1243    14192    3   TAB = 4;

  14192  4 004471   000004 235007                    LDA     4,DL
         4 004472   000064 755000 3                  STA     TAB

     1244    14193
     1245    14194    3   END FLUSH;

  14194  4 004473   200200 221300                    LDX1  ! J,,AUTO
         4 004474   000001 702211                    TSX2  ! 1,X1

     1246    14195
     1247    14196    2   END LIST_KEY;
     1248    14197        %EJECT;
PL6.E3A0      #002=ASL$LIST_OUT File=ASL$EXT.:E05TSI                             TUE 07/29/97 09:59 Page:262
     1249    14198    1   LIST_PSEUDO: PROC;

  14198  4 004475   200176 741300       LIST_PSEUDO  STX1  ! TMP_LEN+1,,AUTO

     1250    14199    2   DCL PSEUDO_HDR CHAR(0) CONSTANT INIT
     1251    14200    2          ('        PSEUDO RESOURCES');
     1252    14201    2   DCL LEN SBIN;
     1253    14202    2   DCL I SBIN;
     1254    14203    2   DCL BOG_IDX SBIN;
     1255    14204    2   CALL INSERT(OUT_BUF,0,2,' ');

  14204  4 004476   040040 220003                    LDX0    16416,DU
         4 004477   000000 740000 xsym               STX0    OUT_BUF

     1256    14205    2   LEN = 2;

  14205  4 004500   000002 235007                    LDA     2,DL
         4 004501   200177 755100                    STA     LEN,,AUTO

     1257    14206    3   DO I=0 TO 7;

  14206  4 004502   200200 450100                    STZ     I,,AUTO

     1258    14207    3      IF AS_USERS.PSDOL.PSDO_NAME(I)~=' '

  14207  4 004503   200200 235100                    LDA     I,,AUTO
         4 004504   000004 735000                    ALS     4
         4 004505   040000 106405                    CMPC    fill='040'O
         4 004506   000265 000010 xsym               ADSC9   AS_USERS+181,A           cn=0,n=8
         4 004507   000035 000001 xsym               ADSC9   B_VECTNIL+29             cn=0,n=1
         4 004510   004522 600000 4                  TZE     s:14212

     1259    14208    4      THEN DO;

     1260    14209    4         CALL INSERT(OUT_BUF,LEN,9,' ',AS_USERS.PSDOL.PSDO_NAME(I));

  14209  4 004511   200177 236100                    LDQ     LEN,,AUTO
PL6.E3A0      #002=ASL$LIST_OUT File=ASL$EXT.:E05TSI                             TUE 07/29/97 09:59 Page:263
         4 004512   040006 100400                    MLR     fill='040'O
         4 004513   000035 000001 xsym               ADSC9   B_VECTNIL+29             cn=0,n=1
         4 004514   000000 000001 xsym               ADSC9   OUT_BUF,Q                cn=0,n=1
         4 004515   040006 100405                    MLR     fill='040'O
         4 004516   000265 000010 xsym               ADSC9   AS_USERS+181,A           cn=0,n=8
         4 004517   000000 200010 xsym               ADSC9   OUT_BUF,Q                cn=1,n=8

     1261    14210    4         LEN = LEN + 9;

  14210  4 004520   000011 236007                    LDQ     9,DL
         4 004521   200177 056100                    ASQ     LEN,,AUTO

     1262    14211    4         END;

     1263    14212    3      END;

  14212  4 004522   200200 054100                    AOS     I,,AUTO
         4 004523   200200 235100                    LDA     I,,AUTO
         4 004524   000007 115007                    CMPA    7,DL
         4 004525   004503 604400 4                  TMOZ    s:14207

     1264    14213    2   IF LEN>3

  14213  4 004526   200177 236100                    LDQ     LEN,,AUTO
         4 004527   000003 116007                    CMPQ    3,DL
         4 004530   004727 604400 4                  TMOZ    s:14248

     1265    14214    3   THEN DO;                       /* Some pseudos exist...report them   */

     1266    14215    3      CALL ASB$WRITE_LO(' ',1);

  14215  4 004531   000005 630400 5                  EPPR0   5
         4 004532   000020 631400 xsym               EPPR1   B_VECTNIL+16
         4 004533   000000 701000 xent               TSX1    ASB$WRITE_LO
         4 004534   000000 011000                    NOP     0

     1267    14216    3      CALL ASB$WRITE_LO(PSEUDO_HDR,SIZEC(PSEUDO_HDR));
PL6.E3A0      #002=ASL$LIST_OUT File=ASL$EXT.:E05TSI                             TUE 07/29/97 09:59 Page:264

  14216  4 004535   000124 630400 5                  EPPR0   84
         4 004536   000020 631400 xsym               EPPR1   B_VECTNIL+16
         4 004537   000000 701000 xent               TSX1    ASB$WRITE_LO
         4 004540   000000 011000                    NOP     0

     1268    14217    3      CALL ASB$WRITE_LO(' ',1);

  14217  4 004541   000005 630400 5                  EPPR0   5
         4 004542   000020 631400 xsym               EPPR1   B_VECTNIL+16
         4 004543   000000 701000 xent               TSX1    ASB$WRITE_LO
         4 004544   000000 011000                    NOP     0

     1269    14218    3      CALL ASB$WRITE_LO(OUT_BUF,LEN);

  14218  4 004545   200177 630500                    EPPR0   LEN,,AUTO
         4 004546   200225 450500                    STP0    I+3,,AUTO
         4 004547   000002 236000 5                  LDQ     2
         4 004550   200224 756100                    STQ     I+2,,AUTO
         4 004551   200224 630500                    EPPR0   I+2,,AUTO
         4 004552   000020 631400 xsym               EPPR1   B_VECTNIL+16
         4 004553   000000 701000 xent               TSX1    ASB$WRITE_LO
         4 004554   000000 011000                    NOP     0

     1270    14219    4      DO BOG_IDX = 0 TO 3;

  14219  4 004555   200201 450100                    STZ     BOG_IDX,,AUTO

     1271    14220    4         IF DO_FLAG(BOG_IDX)

  14220  4 004556   200201 235100                    LDA     BOG_IDX,,AUTO
         4 004557   004561 605000 4                  TPL     s:14220+3
         4 004560   000044 035003                    ADLA    36,DU
         4 004561   200003 470500                    LDP0    @DO_FLAG,,AUTO
         4 004562   000000 066505                    CMPB    filb='0'B
         4 004563   000000 000001                    BDSC    0,A,PR0                  by=0,bit=0,n=1
         4 004564   000002 000022 xsym               BDSC    B_VECTNIL+2              by=0,bit=0,n=18
PL6.E3A0      #002=ASL$LIST_OUT File=ASL$EXT.:E05TSI                             TUE 07/29/97 09:59 Page:265
         4 004565   004723 600000 4                  TZE     s:14246

     1272    14221    5         THEN DO;                 /* Report on this mode                */

     1273    14222    5            FMT_VEC(0) = VECTOR(BOG_BUF(BOG_IDX));

  14222  4 004566   777640 235007                    LDA     -96,DL
         4 004567   200201 236100                    LDQ     BOG_IDX,,AUTO
         4 004570   000022 736000                    QLS     18
         4 004571   000036 036000 5                  ADLQ    30
         4 004572   000000 755000 xsym               STA     FMT_VEC
         4 004573   000001 756000 xsym               STQ     FMT_VEC+1

     1274    14223    5            FDS.NVECS# = 1;

  14223  4 004574   000001 235007                    LDA     1,DL
         4 004575   000011 755000 xsym               STA     FDS+9

     1275    14224    5            CALL INSERT(FMT_BUF,0,6,'%3LA%S');

  14224  4 004576   040000 100400                    MLR     fill='040'O
         4 004577   005153 000006 2                  ADSC9   PRIV_TBL+251             cn=0,n=6
         4 004600   000000 000006 xsym               ADSC9   FMT_BUF                  cn=0,n=6

     1276    14225    5            FDS.FMT_.BOUND = 5;

  14225  4 004601   000000 236000 xsym               LDQ     FDS
         4 004602   177777 376007                    ANQ     65535,DL
         4 004603   000126 276000 5                  ORQ     86
         4 004604   000000 756000 xsym               STQ     FDS

     1277    14226    6            DO I=0 TO 7;

  14226  4 004605   200200 450100                    STZ     I,,AUTO

     1278    14227    6               IF AS_USERS.PSDOL.PSDO_NAME(I)~=' '

PL6.E3A0      #002=ASL$LIST_OUT File=ASL$EXT.:E05TSI                             TUE 07/29/97 09:59 Page:266
  14227  4 004606   200200 235100                    LDA     I,,AUTO
         4 004607   000004 735000                    ALS     4
         4 004610   040000 106405                    CMPC    fill='040'O
         4 004611   000265 000010 xsym               ADSC9   AS_USERS+181,A           cn=0,n=8
         4 004612   000035 000001 xsym               ADSC9   B_VECTNIL+29             cn=0,n=1
         4 004613   004713 600000 4                  TZE     s:14243

     1279    14228    7               THEN DO;           /* This entry exists                  */

     1280    14229    8                  DO SELECT(BOG_IDX);

  14229  4 004614   200201 236100                    LDQ     BOG_IDX,,AUTO
         4 004615   000001 116007                    CMPQ    1,DL
         4 004616   004626 604000 4                  TMI     s:14229+10
         4 004617   004643 600000 4                  TZE     s:14233
         4 004620   000002 116007                    CMPQ    2,DL
         4 004621   004700 604000 4                  TMI     s:14239
         4 004622   004655 600000 4                  TZE     s:14235
         4 004623   000003 116007                    CMPQ    3,DL
         4 004624   004700 601000 4                  TNZ     s:14239
         4 004625   004667 710000 4                  TRA     s:14237
         4 004626   000000 116003                    CMPQ    0,DU
         4 004627   004700 601000 4                  TNZ     s:14239
         4 004630   004631 710000 4                  TRA     s:14231

     1281    14230    8                     SELECT(0);

     1282    14231    8                     FMT_VEC(FDS.NVECS#) = VECTOR(AS_USERS.PSDOL.BMAX(I));

  14231  4 004631   000011 235000 xsym               LDA     FDS+9
         4 004632   000001 735000                    ALS     1
         4 004633   000000 620005                    EAX0    0,AL
         4 004634   377640 235007                    LDA     130976,DL
         4 004635   200200 236100                    LDQ     I,,AUTO
         4 004636   000024 736000                    QLS     20
         4 004637   000127 036000 5                  ADLQ    87
         4 004640   000000 755010 xsym               STA     FMT_VEC,X0
PL6.E3A0      #002=ASL$LIST_OUT File=ASL$EXT.:E05TSI                             TUE 07/29/97 09:59 Page:267
         4 004641   000001 756010 xsym               STQ     FMT_VEC+1,X0
         4 004642   004700 710000 4                  TRA     s:14239

     1283    14232    8                     SELECT(1);

     1284    14233    8                     FMT_VEC(FDS.NVECS#) = VECTOR(AS_USERS.PSDOL.GMAX(I));

  14233  4 004643   000011 235000 xsym               LDA     FDS+9
         4 004644   000001 735000                    ALS     1
         4 004645   000000 620005                    EAX0    0,AL
         4 004646   377640 235007                    LDA     130976,DL
         4 004647   200200 236100                    LDQ     I,,AUTO
         4 004650   000024 736000                    QLS     20
         4 004651   000130 036000 5                  ADLQ    88
         4 004652   000000 755010 xsym               STA     FMT_VEC,X0
         4 004653   000001 756010 xsym               STQ     FMT_VEC+1,X0
         4 004654   004700 710000 4                  TRA     s:14239

     1285    14234    8                     SELECT(2);

     1286    14235    8                     FMT_VEC(FDS.NVECS#) = VECTOR(AS_USERS.PSDOL.OMAX(I));

  14235  4 004655   000011 235000 xsym               LDA     FDS+9
         4 004656   000001 735000                    ALS     1
         4 004657   000000 620005                    EAX0    0,AL
         4 004660   377640 235007                    LDA     130976,DL
         4 004661   200200 236100                    LDQ     I,,AUTO
         4 004662   000024 736000                    QLS     20
         4 004663   000131 036000 5                  ADLQ    89
         4 004664   000000 755010 xsym               STA     FMT_VEC,X0
         4 004665   000001 756010 xsym               STQ     FMT_VEC+1,X0
         4 004666   004700 710000 4                  TRA     s:14239

     1287    14236    8                     SELECT(3);

     1288    14237    8                     FMT_VEC(FDS.NVECS#) = VECTOR(AS_USERS.PSDOL.TMAX(I));

PL6.E3A0      #002=ASL$LIST_OUT File=ASL$EXT.:E05TSI                             TUE 07/29/97 09:59 Page:268
  14237  4 004667   000011 235000 xsym               LDA     FDS+9
         4 004670   000001 735000                    ALS     1
         4 004671   000000 620005                    EAX0    0,AL
         4 004672   377640 235007                    LDA     130976,DL
         4 004673   200200 236100                    LDQ     I,,AUTO
         4 004674   000024 736000                    QLS     20
         4 004675   000132 036000 5                  ADLQ    90
         4 004676   000000 755010 xsym               STA     FMT_VEC,X0
         4 004677   000001 756010 xsym               STQ     FMT_VEC+1,X0

     1289    14238    8                     END;

     1290    14239    7                  FDS.NVECS# = FDS.NVECS# + 1;

  14239  4 004700   000011 054000 xsym               AOS     FDS+9

     1291    14240    7                  CALL INSERT(FMT_BUF,FDS.FMT_.BOUND+1,5,' %8LD');

  14240  4 004701   000000 236000 xsym               LDQ     FDS
         4 004702   000020 772000                    QRL     16
         4 004703   040006 100400                    MLR     fill='040'O
         4 004704   005155 000005 2                  ADSC9   PRIV_TBL+253             cn=0,n=5
         4 004705   000000 200005 xsym               ADSC9   FMT_BUF,Q                cn=1,n=5

     1292    14241    7                  FDS.FMT_.BOUND = FDS.FMT_.BOUND + 5;

  14241  4 004706   000005 036007                    ADLQ    5,DL
         4 004707   000020 736000                    QLS     16
         4 004710   000000 676000 xsym               ERQ     FDS
         4 004711   000034 376000 xsym               ANQ     B_VECTNIL+28
         4 004712   000000 656000 xsym               ERSQ    FDS

     1293    14242    7                  END;

     1294    14243    6               END;

  14243  4 004713   200200 054100                    AOS     I,,AUTO
PL6.E3A0      #002=ASL$LIST_OUT File=ASL$EXT.:E05TSI                             TUE 07/29/97 09:59 Page:269
         4 004714   200200 235100                    LDA     I,,AUTO
         4 004715   000007 115007                    CMPA    7,DL
         4 004716   004606 604400 4                  TMOZ    s:14227

     1295    14244    5            CALL X$FORMAT(FDS);

  14244  4 004717   000004 630400 5                  EPPR0   4
         4 004720   000017 631400 xsym               EPPR1   B_VECTNIL+15
         4 004721   000000 701000 xent               TSX1    X$FORMAT
         4 004722   000000 011000                    NOP     0

     1296    14245    5            END;

     1297    14246    4         END;

  14246  4 004723   200201 054100                    AOS     BOG_IDX,,AUTO
         4 004724   200201 235100                    LDA     BOG_IDX,,AUTO
         4 004725   000003 115007                    CMPA    3,DL
         4 004726   004556 604400 4                  TMOZ    s:14220

     1298    14247    3      END;

     1299    14248    2   RETURN;

  14248  4 004727   200176 221300                    LDX1  ! TMP_LEN+1,,AUTO
         4 004730   000001 702211                    TSX2  ! 1,X1

     1300    14249    2   END LIST_PSEUDO;
     1301    14250        %EJECT;
PL6.E3A0      #002=ASL$LIST_OUT File=ASL$EXT.:E05TSI                             TUE 07/29/97 09:59 Page:270
     1302    14251    1   LIST_FEPSEUDO: PROC;

  14251  4 004731   200176 741300       LIST_FEPSEU* STX1  ! TMP_LEN+1,,AUTO

     1303    14252    2   DCL FEPSEUDO_HDR CHAR(0) CONSTANT INIT
     1304    14253    2          ('        FEPSEUDO RESOURCES');
     1305    14254    2   DCL LEN SBIN;
     1306    14255    2   DCL I SBIN;
     1307    14256    2   DCL BOG_IDX SBIN;
     1308    14257    2   CALL INSERT(OUT_BUF,0,2,' ');

  14257  4 004732   040040 220003                    LDX0    16416,DU
         4 004733   000000 740000 xsym               STX0    OUT_BUF

     1309    14258    2   LEN = 2;

  14258  4 004734   000002 235007                    LDA     2,DL
         4 004735   200177 755100                    STA     LEN,,AUTO

     1310    14259    3   DO I=0 TO 7;

  14259  4 004736   200200 450100                    STZ     I,,AUTO

     1311    14260    3      IF KL_DREC.KL_DREC_FEBLK.PSDOL.PSDO_NAME(I)~=' '

  14260  4 004737   200200 235100                    LDA     I,,AUTO
         4 004740   000004 735000                    ALS     4
         4 004741   040000 106405                    CMPC    fill='040'O
         4 004742   000070 000010 xsym               ADSC9   KL_DREC+56,A             cn=0,n=8
         4 004743   000035 000001 xsym               ADSC9   B_VECTNIL+29             cn=0,n=1
         4 004744   004756 600000 4                  TZE     s:14265

     1312    14261    4      THEN DO;

     1313    14262    4         CALL INSERT(OUT_BUF,LEN,9,' ',KL_DREC.KL_DREC_FEBLK.PSDOL.PSDO_NAME(I));

  14262  4 004745   200177 236100                    LDQ     LEN,,AUTO
PL6.E3A0      #002=ASL$LIST_OUT File=ASL$EXT.:E05TSI                             TUE 07/29/97 09:59 Page:271
         4 004746   040006 100400                    MLR     fill='040'O
         4 004747   000035 000001 xsym               ADSC9   B_VECTNIL+29             cn=0,n=1
         4 004750   000000 000001 xsym               ADSC9   OUT_BUF,Q                cn=0,n=1
         4 004751   040006 100405                    MLR     fill='040'O
         4 004752   000070 000010 xsym               ADSC9   KL_DREC+56,A             cn=0,n=8
         4 004753   000000 200010 xsym               ADSC9   OUT_BUF,Q                cn=1,n=8

     1314    14263    4         LEN = LEN + 9;

  14263  4 004754   000011 236007                    LDQ     9,DL
         4 004755   200177 056100                    ASQ     LEN,,AUTO

     1315    14264    4         END;

     1316    14265    3      END;

  14265  4 004756   200200 054100                    AOS     I,,AUTO
         4 004757   200200 235100                    LDA     I,,AUTO
         4 004760   000007 115007                    CMPA    7,DL
         4 004761   004737 604400 4                  TMOZ    s:14260

     1317    14266    2   IF LEN>3

  14266  4 004762   200177 236100                    LDQ     LEN,,AUTO
         4 004763   000003 116007                    CMPQ    3,DL
         4 004764   005163 604400 4                  TMOZ    s:14301

     1318    14267    3   THEN DO;                       /* Some fepseudos exist...report them   */

     1319    14268    3      CALL ASB$WRITE_LO(' ',1);

  14268  4 004765   000005 630400 5                  EPPR0   5
         4 004766   000020 631400 xsym               EPPR1   B_VECTNIL+16
         4 004767   000000 701000 xent               TSX1    ASB$WRITE_LO
         4 004770   000000 011000                    NOP     0

     1320    14269    3      CALL ASB$WRITE_LO(FEPSEUDO_HDR,SIZEC(FEPSEUDO_HDR));
PL6.E3A0      #002=ASL$LIST_OUT File=ASL$EXT.:E05TSI                             TUE 07/29/97 09:59 Page:272

  14269  4 004771   000134 630400 5                  EPPR0   92
         4 004772   000020 631400 xsym               EPPR1   B_VECTNIL+16
         4 004773   000000 701000 xent               TSX1    ASB$WRITE_LO
         4 004774   000000 011000                    NOP     0

     1321    14270    3      CALL ASB$WRITE_LO(' ',1);

  14270  4 004775   000005 630400 5                  EPPR0   5
         4 004776   000020 631400 xsym               EPPR1   B_VECTNIL+16
         4 004777   000000 701000 xent               TSX1    ASB$WRITE_LO
         4 005000   000000 011000                    NOP     0

     1322    14271    3      CALL ASB$WRITE_LO(OUT_BUF,LEN);

  14271  4 005001   200177 630500                    EPPR0   LEN,,AUTO
         4 005002   200225 450500                    STP0    I+3,,AUTO
         4 005003   000002 236000 5                  LDQ     2
         4 005004   200224 756100                    STQ     I+2,,AUTO
         4 005005   200224 630500                    EPPR0   I+2,,AUTO
         4 005006   000020 631400 xsym               EPPR1   B_VECTNIL+16
         4 005007   000000 701000 xent               TSX1    ASB$WRITE_LO
         4 005010   000000 011000                    NOP     0

     1323    14272    4      DO BOG_IDX = 0 TO 3;

  14272  4 005011   200201 450100                    STZ     BOG_IDX,,AUTO

     1324    14273    4         IF DO_FLAG (L_FEUSER + BOG_IDX)

  14273  4 005012   200201 235100                    LDA     BOG_IDX,,AUTO
         4 005013   005015 605000 4                  TPL     s:14273+3
         4 005014   000044 035003                    ADLA    36,DU
         4 005015   200003 470500                    LDP0    @DO_FLAG,,AUTO
         4 005016   000000 066505                    CMPB    filb='0'B
         4 005017   000003 000001                    BDSC    3,A,PR0                  by=0,bit=0,n=1
         4 005020   000002 000022 xsym               BDSC    B_VECTNIL+2              by=0,bit=0,n=18
PL6.E3A0      #002=ASL$LIST_OUT File=ASL$EXT.:E05TSI                             TUE 07/29/97 09:59 Page:273
         4 005021   005157 600000 4                  TZE     s:14299

     1325    14274    5         THEN DO;                 /* Report on this mode                */

     1326    14275    5            FMT_VEC(0) = VECTOR(BOG_FE_BUF(BOG_IDX));

  14275  4 005022   777640 235007                    LDA     -96,DL
         4 005023   200201 236100                    LDQ     BOG_IDX,,AUTO
         4 005024   000022 736000                    QLS     18
         4 005025   000035 036000 5                  ADLQ    29
         4 005026   000000 755000 xsym               STA     FMT_VEC
         4 005027   000001 756000 xsym               STQ     FMT_VEC+1

     1327    14276    5            FDS.NVECS# = 1;

  14276  4 005030   000001 235007                    LDA     1,DL
         4 005031   000011 755000 xsym               STA     FDS+9

     1328    14277    5            CALL INSERT(FMT_BUF,0,6,'%3LA%S');

  14277  4 005032   040000 100400                    MLR     fill='040'O
         4 005033   005153 000006 2                  ADSC9   PRIV_TBL+251             cn=0,n=6
         4 005034   000000 000006 xsym               ADSC9   FMT_BUF                  cn=0,n=6

     1329    14278    5            FDS.FMT_.BOUND = 5;

  14278  4 005035   000000 236000 xsym               LDQ     FDS
         4 005036   177777 376007                    ANQ     65535,DL
         4 005037   000126 276000 5                  ORQ     86
         4 005040   000000 756000 xsym               STQ     FDS

     1330    14279    6            DO I=0 TO 7;

  14279  4 005041   200200 450100                    STZ     I,,AUTO

     1331    14280    6               IF KL_DREC.KL_DREC_FEBLK.PSDOL.PSDO_NAME(I)~=' '

PL6.E3A0      #002=ASL$LIST_OUT File=ASL$EXT.:E05TSI                             TUE 07/29/97 09:59 Page:274
  14280  4 005042   200200 235100                    LDA     I,,AUTO
         4 005043   000004 735000                    ALS     4
         4 005044   040000 106405                    CMPC    fill='040'O
         4 005045   000070 000010 xsym               ADSC9   KL_DREC+56,A             cn=0,n=8
         4 005046   000035 000001 xsym               ADSC9   B_VECTNIL+29             cn=0,n=1
         4 005047   005147 600000 4                  TZE     s:14296

     1332    14281    7               THEN DO;           /* This entry exists                  */

     1333    14282    8                  DO SELECT(BOG_IDX);

  14282  4 005050   200201 236100                    LDQ     BOG_IDX,,AUTO
         4 005051   000001 116007                    CMPQ    1,DL
         4 005052   005062 604000 4                  TMI     s:14282+10
         4 005053   005077 600000 4                  TZE     s:14286
         4 005054   000002 116007                    CMPQ    2,DL
         4 005055   005134 604000 4                  TMI     s:14292
         4 005056   005111 600000 4                  TZE     s:14288
         4 005057   000003 116007                    CMPQ    3,DL
         4 005060   005134 601000 4                  TNZ     s:14292
         4 005061   005123 710000 4                  TRA     s:14290
         4 005062   000000 116003                    CMPQ    0,DU
         4 005063   005134 601000 4                  TNZ     s:14292
         4 005064   005065 710000 4                  TRA     s:14284

     1334    14283    8                     SELECT(0);

     1335    14284    8                    FMT_VEC(FDS.NVECS#) = VECTOR(KL_DREC.KL_DREC_FEBLK.PSDOL.UMAX(I));

  14284  4 005065   000011 235000 xsym               LDA     FDS+9
         4 005066   000001 735000                    ALS     1
         4 005067   000000 620005                    EAX0    0,AL
         4 005070   377640 235007                    LDA     130976,DL
         4 005071   200200 236100                    LDQ     I,,AUTO
         4 005072   000024 736000                    QLS     20
         4 005073   000136 036000 5                  ADLQ    94
         4 005074   000000 755010 xsym               STA     FMT_VEC,X0
PL6.E3A0      #002=ASL$LIST_OUT File=ASL$EXT.:E05TSI                             TUE 07/29/97 09:59 Page:275
         4 005075   000001 756010 xsym               STQ     FMT_VEC+1,X0
         4 005076   005134 710000 4                  TRA     s:14292

     1336    14285    8                     SELECT(1);

     1337    14286    8                    FMT_VEC(FDS.NVECS#) = VECTOR(KL_DREC.KL_DREC_FEBLK.PSDOL.CMAX(I));

  14286  4 005077   000011 235000 xsym               LDA     FDS+9
         4 005100   000001 735000                    ALS     1
         4 005101   000000 620005                    EAX0    0,AL
         4 005102   377640 235007                    LDA     130976,DL
         4 005103   200200 236100                    LDQ     I,,AUTO
         4 005104   000024 736000                    QLS     20
         4 005105   000137 036000 5                  ADLQ    95
         4 005106   000000 755010 xsym               STA     FMT_VEC,X0
         4 005107   000001 756010 xsym               STQ     FMT_VEC+1,X0
         4 005110   005134 710000 4                  TRA     s:14292

     1338    14287    8                     SELECT(2);

     1339    14288    8                    FMT_VEC(FDS.NVECS#) = VECTOR(KL_DREC.KL_DREC_FEBLK.PSDOL.HMAX(I));

  14288  4 005111   000011 235000 xsym               LDA     FDS+9
         4 005112   000001 735000                    ALS     1
         4 005113   000000 620005                    EAX0    0,AL
         4 005114   377640 235007                    LDA     130976,DL
         4 005115   200200 236100                    LDQ     I,,AUTO
         4 005116   000024 736000                    QLS     20
         4 005117   000140 036000 5                  ADLQ    96
         4 005120   000000 755010 xsym               STA     FMT_VEC,X0
         4 005121   000001 756010 xsym               STQ     FMT_VEC+1,X0
         4 005122   005134 710000 4                  TRA     s:14292

     1340    14289    8                     SELECT(3);

     1341    14290    8                    FMT_VEC(FDS.NVECS#) = VECTOR(KL_DREC.KL_DREC_FEBLK.PSDOL.GMAX(I));

PL6.E3A0      #002=ASL$LIST_OUT File=ASL$EXT.:E05TSI                             TUE 07/29/97 09:59 Page:276
  14290  4 005123   000011 235000 xsym               LDA     FDS+9
         4 005124   000001 735000                    ALS     1
         4 005125   000000 620005                    EAX0    0,AL
         4 005126   377640 235007                    LDA     130976,DL
         4 005127   200200 236100                    LDQ     I,,AUTO
         4 005130   000024 736000                    QLS     20
         4 005131   000141 036000 5                  ADLQ    97
         4 005132   000000 755010 xsym               STA     FMT_VEC,X0
         4 005133   000001 756010 xsym               STQ     FMT_VEC+1,X0

     1342    14291    8                     END;

     1343    14292    7                  FDS.NVECS# = FDS.NVECS# + 1;

  14292  4 005134   000011 054000 xsym               AOS     FDS+9

     1344    14293    7                  CALL INSERT(FMT_BUF,FDS.FMT_.BOUND+1,5,' %8LD');

  14293  4 005135   000000 236000 xsym               LDQ     FDS
         4 005136   000020 772000                    QRL     16
         4 005137   040006 100400                    MLR     fill='040'O
         4 005140   005155 000005 2                  ADSC9   PRIV_TBL+253             cn=0,n=5
         4 005141   000000 200005 xsym               ADSC9   FMT_BUF,Q                cn=1,n=5

     1345    14294    7                  FDS.FMT_.BOUND = FDS.FMT_.BOUND + 5;

  14294  4 005142   000005 036007                    ADLQ    5,DL
         4 005143   000020 736000                    QLS     16
         4 005144   000000 676000 xsym               ERQ     FDS
         4 005145   000034 376000 xsym               ANQ     B_VECTNIL+28
         4 005146   000000 656000 xsym               ERSQ    FDS

     1346    14295    7                  END;

     1347    14296    6               END;

  14296  4 005147   200200 054100                    AOS     I,,AUTO
PL6.E3A0      #002=ASL$LIST_OUT File=ASL$EXT.:E05TSI                             TUE 07/29/97 09:59 Page:277
         4 005150   200200 235100                    LDA     I,,AUTO
         4 005151   000007 115007                    CMPA    7,DL
         4 005152   005042 604400 4                  TMOZ    s:14280

     1348    14297    5            CALL X$FORMAT(FDS);

  14297  4 005153   000004 630400 5                  EPPR0   4
         4 005154   000017 631400 xsym               EPPR1   B_VECTNIL+15
         4 005155   000000 701000 xent               TSX1    X$FORMAT
         4 005156   000000 011000                    NOP     0

     1349    14298    5            END;

     1350    14299    4         END;

  14299  4 005157   200201 054100                    AOS     BOG_IDX,,AUTO
         4 005160   200201 235100                    LDA     BOG_IDX,,AUTO
         4 005161   000003 115007                    CMPA    3,DL
         4 005162   005012 604400 4                  TMOZ    s:14273

     1351    14300    3      END;

     1352    14301    2   RETURN;

  14301  4 005163   200176 221300                    LDX1  ! TMP_LEN+1,,AUTO
         4 005164   000001 702211                    TSX2  ! 1,X1

     1353    14302    2   END LIST_FEPSEUDO;
     1354    14303        %EJECT;
PL6.E3A0      #002=ASL$LIST_OUT File=ASL$EXT.:E05TSI                             TUE 07/29/97 09:59 Page:278
     1355    14304    1   LIST_RESOURCE: PROC;

  14304  4 005165   200176 741300       LIST_RESOUR* STX1  ! TMP_LEN+1,,AUTO

     1356    14305    2   DCL LEN SBIN;
     1357    14306    2   DCL I SBIN;
     1358    14307    2   DCL BOG_IDX SBIN;
     1359    14308    2   CALL INSERT(OUT_BUF,0,2,' ');

  14308  4 005166   040040 220003                    LDX0    16416,DU
         4 005167   000000 740000 xsym               STX0    OUT_BUF

     1360    14309    2   LEN = 2;

  14309  4 005170   000002 235007                    LDA     2,DL
         4 005171   200177 755100                    STA     LEN,,AUTO

     1361    14310    3   DO I=0 TO 7;

  14310  4 005172   200200 450100                    STZ     I,,AUTO

     1362    14311    3      IF AS_USERS.RESL.RNAME(I)~=' '

  14311  4 005173   200200 236100                    LDQ     I,,AUTO
         4 005174   000012 402007                    MPY     10,DL
         4 005175   040000 106406                    CMPC    fill='040'O
         4 005176   000325 400002 xsym               ADSC9   AS_USERS+213,Q           cn=2,n=2
         4 005177   000035 000001 xsym               ADSC9   B_VECTNIL+29             cn=0,n=1
         4 005200   005212 600000 4                  TZE     s:14316

     1363    14312    4      THEN DO;

     1364    14313    4         CALL INSERT(OUT_BUF,LEN,6,' ',AS_USERS.RESL.RNAME(I));

  14313  4 005201   200177 235100                    LDA     LEN,,AUTO
         4 005202   040005 100400                    MLR     fill='040'O
         4 005203   000035 000001 xsym               ADSC9   B_VECTNIL+29             cn=0,n=1
PL6.E3A0      #002=ASL$LIST_OUT File=ASL$EXT.:E05TSI                             TUE 07/29/97 09:59 Page:279
         4 005204   000000 000001 xsym               ADSC9   OUT_BUF,A                cn=0,n=1
         4 005205   040005 100406                    MLR     fill='040'O
         4 005206   000325 400002 xsym               ADSC9   AS_USERS+213,Q           cn=2,n=2
         4 005207   000000 200005 xsym               ADSC9   OUT_BUF,A                cn=1,n=5

     1365    14314    4         LEN = LEN + 6;

  14314  4 005210   000006 236007                    LDQ     6,DL
         4 005211   200177 056100                    ASQ     LEN,,AUTO

     1366    14315    4         END;

     1367    14316    3      END;

  14316  4 005212   200200 054100                    AOS     I,,AUTO
         4 005213   200200 235100                    LDA     I,,AUTO
         4 005214   000007 115007                    CMPA    7,DL
         4 005215   005173 604400 4                  TMOZ    s:14311

     1368    14317    2   IF LEN>3

  14317  4 005216   200177 236100                    LDQ     LEN,,AUTO
         4 005217   000003 116007                    CMPQ    3,DL
         4 005220   005427 604400 4                  TMOZ    s:14352

     1369    14318    3   THEN DO;                  /* Some resourcess exist...report them     */

     1370    14319    3      CALL ASB$WRITE_LO(' ',1);

  14319  4 005221   000005 630400 5                  EPPR0   5
         4 005222   000020 631400 xsym               EPPR1   B_VECTNIL+16
         4 005223   000000 701000 xent               TSX1    ASB$WRITE_LO
         4 005224   000000 011000                    NOP     0

     1371    14320    3      CALL ASB$WRITE_LO( OPT_TBL.HDR(L_RES), LENGTHC(OPT_TBL.HDR(L_RES)) );

  14320  4 005225   000143 630400 5                  EPPR0   99
PL6.E3A0      #002=ASL$LIST_OUT File=ASL$EXT.:E05TSI                             TUE 07/29/97 09:59 Page:280
         4 005226   000020 631400 xsym               EPPR1   B_VECTNIL+16
         4 005227   000000 701000 xent               TSX1    ASB$WRITE_LO
         4 005230   000000 011000                    NOP     0

     1372    14321    3      CALL ASB$WRITE_LO(' ',1);

  14321  4 005231   000005 630400 5                  EPPR0   5
         4 005232   000020 631400 xsym               EPPR1   B_VECTNIL+16
         4 005233   000000 701000 xent               TSX1    ASB$WRITE_LO
         4 005234   000000 011000                    NOP     0

     1373    14322    3      CALL ASB$WRITE_LO(OUT_BUF,LEN);

  14322  4 005235   200177 630500                    EPPR0   LEN,,AUTO
         4 005236   200225 450500                    STP0    I+3,,AUTO
         4 005237   000002 236000 5                  LDQ     2
         4 005240   200224 756100                    STQ     I+2,,AUTO
         4 005241   200224 630500                    EPPR0   I+2,,AUTO
         4 005242   000020 631400 xsym               EPPR1   B_VECTNIL+16
         4 005243   000000 701000 xent               TSX1    ASB$WRITE_LO
         4 005244   000000 011000                    NOP     0

     1374    14323    4      DO BOG_IDX = 0 TO 3;

  14323  4 005245   200201 450100                    STZ     BOG_IDX,,AUTO

     1375    14324    4         IF DO_FLAG(BOG_IDX)

  14324  4 005246   200201 235100                    LDA     BOG_IDX,,AUTO
         4 005247   005251 605000 4                  TPL     s:14324+3
         4 005250   000044 035003                    ADLA    36,DU
         4 005251   200003 470500                    LDP0    @DO_FLAG,,AUTO
         4 005252   000000 066505                    CMPB    filb='0'B
         4 005253   000000 000001                    BDSC    0,A,PR0                  by=0,bit=0,n=1
         4 005254   000002 000022 xsym               BDSC    B_VECTNIL+2              by=0,bit=0,n=18
         4 005255   005423 600000 4                  TZE     s:14350

PL6.E3A0      #002=ASL$LIST_OUT File=ASL$EXT.:E05TSI                             TUE 07/29/97 09:59 Page:281
     1376    14325    5         THEN DO;                 /* Report on this mode                */

     1377    14326    5            FMT_VEC(0) = VECTOR(BOG_BUF(BOG_IDX));

  14326  4 005256   777640 235007                    LDA     -96,DL
         4 005257   200201 236100                    LDQ     BOG_IDX,,AUTO
         4 005260   000022 736000                    QLS     18
         4 005261   000036 036000 5                  ADLQ    30
         4 005262   000000 755000 xsym               STA     FMT_VEC
         4 005263   000001 756000 xsym               STQ     FMT_VEC+1

     1378    14327    5            FDS.NVECS# = 1;

  14327  4 005264   000001 235007                    LDA     1,DL
         4 005265   000011 755000 xsym               STA     FDS+9

     1379    14328    5            CALL INSERT(FMT_BUF,0,6,'%3LA%S');

  14328  4 005266   040000 100400                    MLR     fill='040'O
         4 005267   005153 000006 2                  ADSC9   PRIV_TBL+251             cn=0,n=6
         4 005270   000000 000006 xsym               ADSC9   FMT_BUF                  cn=0,n=6

     1380    14329    5            FDS.FMT_.BOUND = 5;

  14329  4 005271   000000 236000 xsym               LDQ     FDS
         4 005272   177777 376007                    ANQ     65535,DL
         4 005273   000126 276000 5                  ORQ     86
         4 005274   000000 756000 xsym               STQ     FDS

     1381    14330    6            DO I=0 TO 7;

  14330  4 005275   200200 450100                    STZ     I,,AUTO

     1382    14331    6               IF AS_USERS.RESL.RNAME(I)~=' '

  14331  4 005276   200200 236100                    LDQ     I,,AUTO
         4 005277   000012 402007                    MPY     10,DL
PL6.E3A0      #002=ASL$LIST_OUT File=ASL$EXT.:E05TSI                             TUE 07/29/97 09:59 Page:282
         4 005300   040000 106406                    CMPC    fill='040'O
         4 005301   000325 400002 xsym               ADSC9   AS_USERS+213,Q           cn=2,n=2
         4 005302   000035 000001 xsym               ADSC9   B_VECTNIL+29             cn=0,n=1
         4 005303   005413 600000 4                  TZE     s:14347

     1383    14332    7               THEN DO;           /* This entry exists                  */

     1384    14333    8                  DO SELECT(BOG_IDX);

  14333  4 005304   200201 236100                    LDQ     BOG_IDX,,AUTO
         4 005305   000001 116007                    CMPQ    1,DL
         4 005306   005316 604000 4                  TMI     s:14333+10
         4 005307   005335 600000 4                  TZE     s:14337
         4 005310   000002 116007                    CMPQ    2,DL
         4 005311   005400 604000 4                  TMI     s:14343
         4 005312   005351 600000 4                  TZE     s:14339
         4 005313   000003 116007                    CMPQ    3,DL
         4 005314   005400 601000 4                  TNZ     s:14343
         4 005315   005365 710000 4                  TRA     s:14341
         4 005316   000000 116003                    CMPQ    0,DU
         4 005317   005400 601000 4                  TNZ     s:14343
         4 005320   005321 710000 4                  TRA     s:14335

     1385    14334    8                     SELECT(0);

     1386    14335    8                     FMT_VEC(FDS.NVECS#) = VECTOR(AS_USERS.RESL.BMAX(I));

  14335  4 005321   000011 235000 xsym               LDA     FDS+9
         4 005322   000001 735000                    ALS     1
         4 005323   000000 620005                    EAX0    0,AL
         4 005324   377640 235007                    LDA     130976,DL
         4 005325   200200 236100                    LDQ     I,,AUTO
         4 005326   200224 755100                    STA     I+2,,AUTO
         4 005327   000146 402000 5                  MPY     102
         4 005330   000145 036000 5                  ADLQ    101
         4 005331   200224 235100                    LDA     I+2,,AUTO
         4 005332   000000 755010 xsym               STA     FMT_VEC,X0
PL6.E3A0      #002=ASL$LIST_OUT File=ASL$EXT.:E05TSI                             TUE 07/29/97 09:59 Page:283
         4 005333   000001 756010 xsym               STQ     FMT_VEC+1,X0
         4 005334   005400 710000 4                  TRA     s:14343

     1387    14336    8                     SELECT(1);

     1388    14337    8                     FMT_VEC(FDS.NVECS#) = VECTOR(AS_USERS.RESL.GMAX(I));

  14337  4 005335   000011 235000 xsym               LDA     FDS+9
         4 005336   000001 735000                    ALS     1
         4 005337   000000 620005                    EAX0    0,AL
         4 005340   377640 235007                    LDA     130976,DL
         4 005341   200200 236100                    LDQ     I,,AUTO
         4 005342   200224 755100                    STA     I+2,,AUTO
         4 005343   000146 402000 5                  MPY     102
         4 005344   000147 036000 5                  ADLQ    103
         4 005345   200224 235100                    LDA     I+2,,AUTO
         4 005346   000000 755010 xsym               STA     FMT_VEC,X0
         4 005347   000001 756010 xsym               STQ     FMT_VEC+1,X0
         4 005350   005400 710000 4                  TRA     s:14343

     1389    14338    8                     SELECT(2);

     1390    14339    8                     FMT_VEC(FDS.NVECS#) = VECTOR(AS_USERS.RESL.OMAX(I));

  14339  4 005351   000011 235000 xsym               LDA     FDS+9
         4 005352   000001 735000                    ALS     1
         4 005353   000000 620005                    EAX0    0,AL
         4 005354   377640 235007                    LDA     130976,DL
         4 005355   200200 236100                    LDQ     I,,AUTO
         4 005356   200224 755100                    STA     I+2,,AUTO
         4 005357   000146 402000 5                  MPY     102
         4 005360   000150 036000 5                  ADLQ    104
         4 005361   200224 235100                    LDA     I+2,,AUTO
         4 005362   000000 755010 xsym               STA     FMT_VEC,X0
         4 005363   000001 756010 xsym               STQ     FMT_VEC+1,X0
         4 005364   005400 710000 4                  TRA     s:14343

PL6.E3A0      #002=ASL$LIST_OUT File=ASL$EXT.:E05TSI                             TUE 07/29/97 09:59 Page:284
     1391    14340    8                     SELECT(3);

     1392    14341    8                     FMT_VEC(FDS.NVECS#) = VECTOR(AS_USERS.RESL.TMAX(I));

  14341  4 005365   000011 235000 xsym               LDA     FDS+9
         4 005366   000001 735000                    ALS     1
         4 005367   000000 620005                    EAX0    0,AL
         4 005370   377640 235007                    LDA     130976,DL
         4 005371   200200 236100                    LDQ     I,,AUTO
         4 005372   200224 755100                    STA     I+2,,AUTO
         4 005373   000146 402000 5                  MPY     102
         4 005374   000151 036000 5                  ADLQ    105
         4 005375   200224 235100                    LDA     I+2,,AUTO
         4 005376   000000 755010 xsym               STA     FMT_VEC,X0
         4 005377   000001 756010 xsym               STQ     FMT_VEC+1,X0

     1393    14342    8                     END;

     1394    14343    7                  FDS.NVECS# = FDS.NVECS# + 1;

  14343  4 005400   000011 054000 xsym               AOS     FDS+9

     1395    14344    7                  CALL INSERT(FMT_BUF,FDS.FMT_.BOUND+1,5,' %5LD');

  14344  4 005401   000000 236000 xsym               LDQ     FDS
         4 005402   000020 772000                    QRL     16
         4 005403   040006 100400                    MLR     fill='040'O
         4 005404   005157 000005 2                  ADSC9   PRIV_TBL+255             cn=0,n=5
         4 005405   000000 200005 xsym               ADSC9   FMT_BUF,Q                cn=1,n=5

     1396    14345    7                  FDS.FMT_.BOUND = FDS.FMT_.BOUND + 5;

  14345  4 005406   000005 036007                    ADLQ    5,DL
         4 005407   000020 736000                    QLS     16
         4 005410   000000 676000 xsym               ERQ     FDS
         4 005411   000034 376000 xsym               ANQ     B_VECTNIL+28
         4 005412   000000 656000 xsym               ERSQ    FDS
PL6.E3A0      #002=ASL$LIST_OUT File=ASL$EXT.:E05TSI                             TUE 07/29/97 09:59 Page:285

     1397    14346    7                  END;

     1398    14347    6               END;

  14347  4 005413   200200 054100                    AOS     I,,AUTO
         4 005414   200200 235100                    LDA     I,,AUTO
         4 005415   000007 115007                    CMPA    7,DL
         4 005416   005276 604400 4                  TMOZ    s:14331

     1399    14348    5            CALL X$FORMAT(FDS);

  14348  4 005417   000004 630400 5                  EPPR0   4
         4 005420   000017 631400 xsym               EPPR1   B_VECTNIL+15
         4 005421   000000 701000 xent               TSX1    X$FORMAT
         4 005422   000000 011000                    NOP     0

     1400    14349    5            END;

     1401    14350    4         END;

  14350  4 005423   200201 054100                    AOS     BOG_IDX,,AUTO
         4 005424   200201 235100                    LDA     BOG_IDX,,AUTO
         4 005425   000003 115007                    CMPA    3,DL
         4 005426   005246 604400 4                  TMOZ    s:14324

     1402    14351    3      END;

     1403    14352    2   RETURN;

  14352  4 005427   200176 221300                    LDX1  ! TMP_LEN+1,,AUTO
         4 005430   000001 702211                    TSX2  ! 1,X1

     1404    14353    2   END LIST_RESOURCE;
     1405    14354        %EJECT;
PL6.E3A0      #002=ASL$LIST_OUT File=ASL$EXT.:E05TSI                             TUE 07/29/97 09:59 Page:286
     1406    14355    1   LIST_FERESOURCE: PROC;

  14355  4 005431   200176 741300       LIST_FERESO* STX1  ! TMP_LEN+1,,AUTO

     1407    14356    2   DCL LEN SBIN;
     1408    14357    2   DCL I SBIN;
     1409    14358    2   DCL BOG_IDX SBIN;
     1410    14359    2   CALL INSERT(OUT_BUF,0,2,' ');

  14359  4 005432   040040 220003                    LDX0    16416,DU
         4 005433   000000 740000 xsym               STX0    OUT_BUF

     1411    14360    2   LEN = 2;

  14360  4 005434   000002 235007                    LDA     2,DL
         4 005435   200177 755100                    STA     LEN,,AUTO

     1412    14361    3   DO I=0 TO KL_DREC.KL_DREC_FEBLK.RESL_CNT - 1 ;

  14361  4 005436   200200 450100                    STZ     I,,AUTO
         4 005437   005460 710000 4                  TRA     s:14367+1

     1413    14362    3      IF KL_DREC.KL_DREC_FEBLK.RESL.RNAME(I)~=' '

  14362  4 005440   200200 236100                    LDQ     I,,AUTO
         4 005441   000012 402007                    MPY     10,DL
         4 005442   040000 106406                    CMPC    fill='040'O
         4 005443   000130 400002 xsym               ADSC9   KL_DREC+88,Q             cn=2,n=2
         4 005444   000035 000001 xsym               ADSC9   B_VECTNIL+29             cn=0,n=1
         4 005445   005457 600000 4                  TZE     s:14367

     1414    14363    4      THEN DO;

     1415    14364    4         CALL INSERT(OUT_BUF,LEN,6,' ',KL_DREC.KL_DREC_FEBLK.RESL.RNAME(I));

  14364  4 005446   200177 235100                    LDA     LEN,,AUTO
         4 005447   040005 100400                    MLR     fill='040'O
PL6.E3A0      #002=ASL$LIST_OUT File=ASL$EXT.:E05TSI                             TUE 07/29/97 09:59 Page:287
         4 005450   000035 000001 xsym               ADSC9   B_VECTNIL+29             cn=0,n=1
         4 005451   000000 000001 xsym               ADSC9   OUT_BUF,A                cn=0,n=1
         4 005452   040005 100406                    MLR     fill='040'O
         4 005453   000130 400002 xsym               ADSC9   KL_DREC+88,Q             cn=2,n=2
         4 005454   000000 200005 xsym               ADSC9   OUT_BUF,A                cn=1,n=5

     1416    14365    4         LEN = LEN + 6;

  14365  4 005455   000006 236007                    LDQ     6,DL
         4 005456   200177 056100                    ASQ     LEN,,AUTO

     1417    14366    4         END;

     1418    14367    3      END;

  14367  4 005457   200200 054100                    AOS     I,,AUTO
         4 005460   000130 236000 xsym               LDQ     KL_DREC+88
         4 005461   000022 772000                    QRL     18
         4 005462   200200 116100                    CMPQ    I,,AUTO
         4 005463   005440 605400 4                  TPNZ    s:14362

     1419    14368    2   IF LEN>3

  14368  4 005464   200177 235100                    LDA     LEN,,AUTO
         4 005465   000003 115007                    CMPA    3,DL
         4 005466   005677 604400 4                  TMOZ    s:14403

     1420    14369    3   THEN DO;                  /* Some feresourcess exist...report them     */

     1421    14370    3      CALL ASB$WRITE_LO(' ',1);

  14370  4 005467   000005 630400 5                  EPPR0   5
         4 005470   000020 631400 xsym               EPPR1   B_VECTNIL+16
         4 005471   000000 701000 xent               TSX1    ASB$WRITE_LO
         4 005472   000000 011000                    NOP     0

     1422    14371    3      CALL ASB$WRITE_LO( OPT_TBL.HDR(L_FERES), LENGTHC(OPT_TBL.HDR(L_FERES)) );
PL6.E3A0      #002=ASL$LIST_OUT File=ASL$EXT.:E05TSI                             TUE 07/29/97 09:59 Page:288

  14371  4 005473   000152 630400 5                  EPPR0   106
         4 005474   000020 631400 xsym               EPPR1   B_VECTNIL+16
         4 005475   000000 701000 xent               TSX1    ASB$WRITE_LO
         4 005476   000000 011000                    NOP     0

     1423    14372    3      CALL ASB$WRITE_LO(' ',1);

  14372  4 005477   000005 630400 5                  EPPR0   5
         4 005500   000020 631400 xsym               EPPR1   B_VECTNIL+16
         4 005501   000000 701000 xent               TSX1    ASB$WRITE_LO
         4 005502   000000 011000                    NOP     0

     1424    14373    3      CALL ASB$WRITE_LO(OUT_BUF,LEN);

  14373  4 005503   200177 630500                    EPPR0   LEN,,AUTO
         4 005504   200225 450500                    STP0    I+3,,AUTO
         4 005505   000002 236000 5                  LDQ     2
         4 005506   200224 756100                    STQ     I+2,,AUTO
         4 005507   200224 630500                    EPPR0   I+2,,AUTO
         4 005510   000020 631400 xsym               EPPR1   B_VECTNIL+16
         4 005511   000000 701000 xent               TSX1    ASB$WRITE_LO
         4 005512   000000 011000                    NOP     0

     1425    14374    4      DO BOG_IDX = 0 TO 3;

  14374  4 005513   200201 450100                    STZ     BOG_IDX,,AUTO

     1426    14375    4         IF DO_FLAG (L_FEUSER + BOG_IDX)

  14375  4 005514   200201 235100                    LDA     BOG_IDX,,AUTO
         4 005515   005517 605000 4                  TPL     s:14375+3
         4 005516   000044 035003                    ADLA    36,DU
         4 005517   200003 470500                    LDP0    @DO_FLAG,,AUTO
         4 005520   000000 066505                    CMPB    filb='0'B
         4 005521   000003 000001                    BDSC    3,A,PR0                  by=0,bit=0,n=1
         4 005522   000002 000022 xsym               BDSC    B_VECTNIL+2              by=0,bit=0,n=18
PL6.E3A0      #002=ASL$LIST_OUT File=ASL$EXT.:E05TSI                             TUE 07/29/97 09:59 Page:289
         4 005523   005673 600000 4                  TZE     s:14401

     1427    14376    5         THEN DO;                 /* Report on this mode                */

     1428    14377    5            FMT_VEC(0) = VECTOR(BOG_FE_BUF(BOG_IDX));

  14377  4 005524   777640 235007                    LDA     -96,DL
         4 005525   200201 236100                    LDQ     BOG_IDX,,AUTO
         4 005526   000022 736000                    QLS     18
         4 005527   000035 036000 5                  ADLQ    29
         4 005530   000000 755000 xsym               STA     FMT_VEC
         4 005531   000001 756000 xsym               STQ     FMT_VEC+1

     1429    14378    5            FDS.NVECS# = 1;

  14378  4 005532   000001 235007                    LDA     1,DL
         4 005533   000011 755000 xsym               STA     FDS+9

     1430    14379    5            CALL INSERT(FMT_BUF,0,6,'%3LA%S');

  14379  4 005534   040000 100400                    MLR     fill='040'O
         4 005535   005153 000006 2                  ADSC9   PRIV_TBL+251             cn=0,n=6
         4 005536   000000 000006 xsym               ADSC9   FMT_BUF                  cn=0,n=6

     1431    14380    5            FDS.FMT_.BOUND = 5;

  14380  4 005537   000000 236000 xsym               LDQ     FDS
         4 005540   177777 376007                    ANQ     65535,DL
         4 005541   000126 276000 5                  ORQ     86
         4 005542   000000 756000 xsym               STQ     FDS

     1432    14381    6            DO I=0 TO KL_DREC.KL_DREC_FEBLK.RESL_CNT-1 ;

  14381  4 005543   200200 450100                    STZ     I,,AUTO
         4 005544   005663 710000 4                  TRA     s:14398+1

     1433    14382    6               IF KL_DREC.KL_DREC_FEBLK.RESL.RNAME(I)~=' '
PL6.E3A0      #002=ASL$LIST_OUT File=ASL$EXT.:E05TSI                             TUE 07/29/97 09:59 Page:290

  14382  4 005545   200200 236100                    LDQ     I,,AUTO
         4 005546   000012 402007                    MPY     10,DL
         4 005547   040000 106406                    CMPC    fill='040'O
         4 005550   000130 400002 xsym               ADSC9   KL_DREC+88,Q             cn=2,n=2
         4 005551   000035 000001 xsym               ADSC9   B_VECTNIL+29             cn=0,n=1
         4 005552   005662 600000 4                  TZE     s:14398

     1434    14383    7               THEN DO;           /* This entry exists                  */

     1435    14384    8                  DO SELECT(BOG_IDX);

  14384  4 005553   200201 236100                    LDQ     BOG_IDX,,AUTO
         4 005554   000001 116007                    CMPQ    1,DL
         4 005555   005565 604000 4                  TMI     s:14384+10
         4 005556   005604 600000 4                  TZE     s:14388
         4 005557   000002 116007                    CMPQ    2,DL
         4 005560   005647 604000 4                  TMI     s:14394
         4 005561   005620 600000 4                  TZE     s:14390
         4 005562   000003 116007                    CMPQ    3,DL
         4 005563   005647 601000 4                  TNZ     s:14394
         4 005564   005634 710000 4                  TRA     s:14392
         4 005565   000000 116003                    CMPQ    0,DU
         4 005566   005647 601000 4                  TNZ     s:14394
         4 005567   005570 710000 4                  TRA     s:14386

     1436    14385    8                     SELECT(0);

     1437    14386    8                     FMT_VEC(FDS.NVECS#) = VECTOR(KL_DREC.KL_DREC_FEBLK.RESL.UMAX(I));

  14386  4 005570   000011 235000 xsym               LDA     FDS+9
         4 005571   000001 735000                    ALS     1
         4 005572   000000 620005                    EAX0    0,AL
         4 005573   377640 235007                    LDA     130976,DL
         4 005574   200200 236100                    LDQ     I,,AUTO
         4 005575   200224 755100                    STA     I+2,,AUTO
         4 005576   000146 402000 5                  MPY     102
PL6.E3A0      #002=ASL$LIST_OUT File=ASL$EXT.:E05TSI                             TUE 07/29/97 09:59 Page:291
         4 005577   000154 036000 5                  ADLQ    108
         4 005600   200224 235100                    LDA     I+2,,AUTO
         4 005601   000000 755010 xsym               STA     FMT_VEC,X0
         4 005602   000001 756010 xsym               STQ     FMT_VEC+1,X0
         4 005603   005647 710000 4                  TRA     s:14394

     1438    14387    8                     SELECT(1);

     1439    14388    8                     FMT_VEC(FDS.NVECS#) = VECTOR(KL_DREC.KL_DREC_FEBLK.RESL.CMAX(I));

  14388  4 005604   000011 235000 xsym               LDA     FDS+9
         4 005605   000001 735000                    ALS     1
         4 005606   000000 620005                    EAX0    0,AL
         4 005607   377640 235007                    LDA     130976,DL
         4 005610   200200 236100                    LDQ     I,,AUTO
         4 005611   200224 755100                    STA     I+2,,AUTO
         4 005612   000146 402000 5                  MPY     102
         4 005613   000155 036000 5                  ADLQ    109
         4 005614   200224 235100                    LDA     I+2,,AUTO
         4 005615   000000 755010 xsym               STA     FMT_VEC,X0
         4 005616   000001 756010 xsym               STQ     FMT_VEC+1,X0
         4 005617   005647 710000 4                  TRA     s:14394

     1440    14389    8                     SELECT(2);

     1441    14390    8                     FMT_VEC(FDS.NVECS#) = VECTOR(KL_DREC.KL_DREC_FEBLK.RESL.HMAX(I));

  14390  4 005620   000011 235000 xsym               LDA     FDS+9
         4 005621   000001 735000                    ALS     1
         4 005622   000000 620005                    EAX0    0,AL
         4 005623   377640 235007                    LDA     130976,DL
         4 005624   200200 236100                    LDQ     I,,AUTO
         4 005625   200224 755100                    STA     I+2,,AUTO
         4 005626   000146 402000 5                  MPY     102
         4 005627   000156 036000 5                  ADLQ    110
         4 005630   200224 235100                    LDA     I+2,,AUTO
         4 005631   000000 755010 xsym               STA     FMT_VEC,X0
PL6.E3A0      #002=ASL$LIST_OUT File=ASL$EXT.:E05TSI                             TUE 07/29/97 09:59 Page:292
         4 005632   000001 756010 xsym               STQ     FMT_VEC+1,X0
         4 005633   005647 710000 4                  TRA     s:14394

     1442    14391    8                     SELECT(3);

     1443    14392    8                     FMT_VEC(FDS.NVECS#) = VECTOR(KL_DREC.KL_DREC_FEBLK.RESL.GMAX(I));

  14392  4 005634   000011 235000 xsym               LDA     FDS+9
         4 005635   000001 735000                    ALS     1
         4 005636   000000 620005                    EAX0    0,AL
         4 005637   377640 235007                    LDA     130976,DL
         4 005640   200200 236100                    LDQ     I,,AUTO
         4 005641   200224 755100                    STA     I+2,,AUTO
         4 005642   000146 402000 5                  MPY     102
         4 005643   000157 036000 5                  ADLQ    111
         4 005644   200224 235100                    LDA     I+2,,AUTO
         4 005645   000000 755010 xsym               STA     FMT_VEC,X0
         4 005646   000001 756010 xsym               STQ     FMT_VEC+1,X0

     1444    14393    8                     END;

     1445    14394    7                  FDS.NVECS# = FDS.NVECS# + 1;

  14394  4 005647   000011 054000 xsym               AOS     FDS+9

     1446    14395    7                  CALL INSERT(FMT_BUF,FDS.FMT_.BOUND+1,5,' %5LD');

  14395  4 005650   000000 236000 xsym               LDQ     FDS
         4 005651   000020 772000                    QRL     16
         4 005652   040006 100400                    MLR     fill='040'O
         4 005653   005157 000005 2                  ADSC9   PRIV_TBL+255             cn=0,n=5
         4 005654   000000 200005 xsym               ADSC9   FMT_BUF,Q                cn=1,n=5

     1447    14396    7                  FDS.FMT_.BOUND = FDS.FMT_.BOUND + 5;

  14396  4 005655   000005 036007                    ADLQ    5,DL
         4 005656   000020 736000                    QLS     16
PL6.E3A0      #002=ASL$LIST_OUT File=ASL$EXT.:E05TSI                             TUE 07/29/97 09:59 Page:293
         4 005657   000000 676000 xsym               ERQ     FDS
         4 005660   000034 376000 xsym               ANQ     B_VECTNIL+28
         4 005661   000000 656000 xsym               ERSQ    FDS

     1448    14397    7                  END;

     1449    14398    6               END;

  14398  4 005662   200200 054100                    AOS     I,,AUTO
         4 005663   000130 236000 xsym               LDQ     KL_DREC+88
         4 005664   000022 772000                    QRL     18
         4 005665   200200 116100                    CMPQ    I,,AUTO
         4 005666   005545 605400 4                  TPNZ    s:14382

     1450    14399    5            CALL X$FORMAT(FDS);

  14399  4 005667   000004 630400 5                  EPPR0   4
         4 005670   000017 631400 xsym               EPPR1   B_VECTNIL+15
         4 005671   000000 701000 xent               TSX1    X$FORMAT
         4 005672   000000 011000                    NOP     0

     1451    14400    5            END;

     1452    14401    4         END;

  14401  4 005673   200201 054100                    AOS     BOG_IDX,,AUTO
         4 005674   200201 235100                    LDA     BOG_IDX,,AUTO
         4 005675   000003 115007                    CMPA    3,DL
         4 005676   005514 604400 4                  TMOZ    s:14375

     1453    14402    3      END;

     1454    14403    2   RETURN;

  14403  4 005677   200176 221300                    LDX1  ! TMP_LEN+1,,AUTO
         4 005700   000001 702211                    TSX2  ! 1,X1

PL6.E3A0      #002=ASL$LIST_OUT File=ASL$EXT.:E05TSI                             TUE 07/29/97 09:59 Page:294
     1455    14404    2   END LIST_FERESOURCE;
     1456    14405        %EJECT;
PL6.E3A0      #002=ASL$LIST_OUT File=ASL$EXT.:E05TSI                             TUE 07/29/97 09:59 Page:295
     1457    14406    1   LIST_PRIV: PROC(PRIV_FLG);

  14406  4 005701   200176 741300       LIST_PRIV    STX1  ! TMP_LEN+1,,AUTO

     1458    14407    2   DCL PRIV_FLG BIT(1) ALIGNED;
     1459    14408    2   DCL BOG_IDX SBIN;
     1460    14409    2   DCL I SBIN;
     1461    14410    2   DCL MORE BIT(1) ALIGNED;
     1462    14411    2   DCL PRIV BIT(36);
     1463    14412    2   DCL END_IDX SBIN;
     1464    14413    2   DCL 1 PRIV_TBL(0:71) CONSTANT,
     1465    14414    2          2 LEN UBIN BYTE UNAL INIT
     1466    14415    2             ( 7, 9, 6, 6, 6,
     1467    14416    2               8, 8, 7, 5, 5,
     1468    14417    2               6, 5, 6, 6, 6,
     1469    14418    2               5, 8, 8, 8, 5,
     1470    14419    2               0*16,
     1471    14420    2               8, 8, 5, 5, 9,
     1472    14421    2               7, 8, 6, 6, 7,
     1473    14422    2               8, 9, 9, 7, 8,
     1474    14423    2               8, 8, 8, 9, 8,
     1475    14424    2               9, 0*15),
     1476    14425    2          2 HDR CHAR(8) UNAL INIT
     1477    14426    2             ('ASAVE   ', 'DISPJOB ', 'CFEP    ', 'EXMM    ', 'EXPM    ',
     1478    14427    2              'FMDIAG  ', 'FMREAD  ', 'FMSEC   ', 'GPP     ', 'IOQ     ',
     1479    14428    2              'IOQW    ', 'JIT     ', 'MAXM    ', 'MFEP    ', 'MSYS    ',
     1480    14429    2              'PM      ', 'SPCLMM  ', 'SYSCON  ', 'SYSLOG  ', 'TND     ',
     1481    14430    2               ' '*16,
     1482    14431    2              'CNTRLC  ', 'CNTRLD  ', 'EFT     ', 'EL      ', 'NETCON  ',
     1483    14432    2              'LABEL   ', 'PADMIN  ', 'PIGC    ', 'PIGD    ', 'RATES   ',
     1484    14433    2              'REPLAY  ', 'SPIDERC ', 'SPIDERD ', 'SUPER   ', 'SUPERA  ',
     1485    14434    2              'SUPERD  ', 'SUPERF  ', 'SUPERW  ', 'VOLINIT ', 'SYSCON  ',
     1486    14435    2              'PIGETTE ', ' '*15 ),
     1487    14436    2          2 MASK BIT(36) UNAL INIT
     1488    14437    2             (%PR_ASAVE#,    %PR_DISPJOB#,  %PR_CFEP#,     %PR_EXMM#,     %PR_EXPM#,
     1489    14438    2              %PR_FMDIAG#,   %PR_FMREAD#,   %PR_FMSEC#,    %PR_GPP#,      %PR_IOQ#,
     1490    14439    2              %PR_IOQW#,     %PR_JIT#,      %PR_MAXMEM#,   %PR_MFEP#,     %PR_MSYS#,
PL6.E3A0      #002=ASL$LIST_OUT File=ASL$EXT.:E05TSI                             TUE 07/29/97 09:59 Page:296
     1491    14440    2              %PR_PM#,       %PR_SPCLMM#,   %PR_SYSCON#,   %PR_SYSLOG#,   %PR_TND#,
     1492    14441    2              '0'B*16,
     1493    14442    2              %PPR_CNTRLC#,  %PPR_CNTRLD#,  %PPR_EFT#,     %PPR_EL#,     %PPR_NETCON#,
     1494    14443    2              %PPR_LABEL#,   %PPR_PADMIN#,  %PPR_PIGC#,    %PPR_PIGD#,    %PPR_RATES#,
     1495    14444    2              %PPR_REPLAY#,  %PPR_SPIDERC#, %PPR_SPIDERD#, %PPR_SUPER#,   %
             14444                       PPR_SUPERAUTH#,
     1496    14445    2              %PPR_SUPERD#, %PPR_SUPERFORM#,%PPR_SUPERWSN#,%PPR_VOLINIT#,%PPR_SYSCON#,
     1497    14446    2              %PPR_PIGETTE#, '0'B*15 );
     1498    14447    2   DCL PPRIV_HDR CHAR(0) CONSTANT INIT
     1499    14448    2               ('        PROCESSOR PRIVILEGES');
     1500    14449        %EJECT;
PL6.E3A0      #002=ASL$LIST_OUT File=ASL$EXT.:E05TSI                             TUE 07/29/97 09:59 Page:297
     1501    14450    2   CALL ASB$WRITE_LO(' ',1);

  14450  4 005702   000005 630400 5                  EPPR0   5
         4 005703   000020 631400 xsym               EPPR1   B_VECTNIL+16
         4 005704   000000 701000 xent               TSX1    ASB$WRITE_LO
         4 005705   000000 011000                    NOP     0

     1502    14451    2   IF PRIV_FLG

  14451  4 005706   200177 470500                    LDP0    @PRIV_FLG,,AUTO
         4 005707   000000 234100                    SZN     0,,PR0
         4 005710   005721 605000 4                  TPL     s:14458

     1503    14452    3   THEN DO;

     1504    14453    3      CALL ASB$WRITE_LO( OPT_TBL.HDR(L_PRIV), LENGTHC(OPT_TBL.HDR(L_PRIV)));

  14453  4 005711   000160 630400 5                  EPPR0   112
         4 005712   000020 631400 xsym               EPPR1   B_VECTNIL+16
         4 005713   000000 701000 xent               TSX1    ASB$WRITE_LO
         4 005714   000000 011000                    NOP     0

     1505    14454    3      NXT_IDX = 0;

  14454  4 005715   200016 450100                    STZ     NXT_IDX,,AUTO

     1506    14455    3      END_IDX = 36;

  14455  4 005716   000044 235007                    LDA     36,DL
         4 005717   200204 755100                    STA     END_IDX,,AUTO

     1507    14456    3      END;

  14456  4 005720   005731 710000 4                  TRA     s:14462

     1508    14457    3   ELSE DO;

PL6.E3A0      #002=ASL$LIST_OUT File=ASL$EXT.:E05TSI                             TUE 07/29/97 09:59 Page:298
     1509    14458    3      CALL ASB$WRITE_LO(PPRIV_HDR,SIZEC(PPRIV_HDR));

  14458  4 005721   000163 630400 5                  EPPR0   115
         4 005722   000020 631400 xsym               EPPR1   B_VECTNIL+16
         4 005723   000000 701000 xent               TSX1    ASB$WRITE_LO
         4 005724   000000 011000                    NOP     0

     1510    14459    3      NXT_IDX = 36;

  14459  4 005725   000044 235007                    LDA     36,DL
         4 005726   200016 755100                    STA     NXT_IDX,,AUTO

     1511    14460    3      END_IDX = 72;

  14460  4 005727   000110 236007                    LDQ     72,DL
         4 005730   200204 756100                    STQ     END_IDX,,AUTO

     1512    14461    3      END;

     1513    14462    2   ST_IDX = NXT_IDX;

  14462  4 005731   200016 236100                    LDQ     NXT_IDX,,AUTO
         4 005732   200166 756100                    STQ     ST_IDX,,AUTO

     1514    14463    3   DO WHILE(ST_IDX < END_IDX);

  14463  4 005733   200204 116100                    CMPQ    END_IDX,,AUTO
         4 005734   006223 605000 4                  TPL     s:14524

     1515    14464    3      CALL INSERT(OUT_BUF,0,3,' ');

  14464  4 005735   000034 236000 5                  LDQ     28
         4 005736   000000 552070 xsym               STBQ    OUT_BUF,'70'O

     1516    14465    3      HDR_LEN = 3;

  14465  4 005737   000003 235007                    LDA     3,DL
PL6.E3A0      #002=ASL$LIST_OUT File=ASL$EXT.:E05TSI                             TUE 07/29/97 09:59 Page:299
         4 005740   200007 755100                    STA     HDR_LEN,,AUTO

     1517    14466    3      FIELDS = 0;

  14466  4 005741   200006 450100                    STZ     FIELDS,,AUTO

     1518    14467    3      MORE = '1'B;

  14467  4 005742   400000 236003                    LDQ     -131072,DU
         4 005743   200202 756100                    STQ     MORE,,AUTO

     1519    14468    4      DO WHILE(MORE AND NXT_IDX < END_IDX);

  14468  4 005744   006016 710000 4                  TRA     s:14483

     1520    14469    4         IF (HDR_LEN + PRIV_TBL.LEN(NXT_IDX)) <= LO_WIDTH

  14469  4 005745   200016 236100                    LDQ     NXT_IDX,,AUTO
         4 005746   000015 402007                    MPY     13,DL
         4 005747   000100 101406                    MRL     fill='000'O
         4 005750   003241 000001 2                  ADSC9   PRIV_TBL,Q               cn=0,n=1
         4 005751   200224 000004                    ADSC9   I+2,,AUTO                cn=0,n=4
         4 005752   200224 236100                    LDQ     I+2,,AUTO
         4 005753   200007 036100                    ADLQ    HDR_LEN,,AUTO
         4 005754   005762 604000 4                  TMI     s:14472
         4 005755   000000 116000 xsym               CMPQ    LO_WIDTH
         4 005756   005762 602000 4                  TNC     s:14472
         4 005757   005762 600000 4                  TZE     s:14472
         4 005760   200006 235100                    LDA     FIELDS,,AUTO
         4 005761   006015 601000 4                  TNZ     s:14482

     1521    14470    4              OR FIELDS=0
     1522    14471    5         THEN DO;

     1523    14472    5            IF PRIV_TBL.LEN(NXT_IDX)>0

  14472  4 005762   200016 236100                    LDQ     NXT_IDX,,AUTO
PL6.E3A0      #002=ASL$LIST_OUT File=ASL$EXT.:E05TSI                             TUE 07/29/97 09:59 Page:300
         4 005763   000015 402007                    MPY     13,DL
         4 005764   000100 101406                    MRL     fill='000'O
         4 005765   003241 000001 2                  ADSC9   PRIV_TBL,Q               cn=0,n=1
         4 005766   200224 000004                    ADSC9   I+2,,AUTO                cn=0,n=4
         4 005767   200224 236100                    LDQ     I+2,,AUTO
         4 005770   000000 116003                    CMPQ    0,DU
         4 005771   006013 600000 4                  TZE     s:14479

     1524    14473    6            THEN DO;

     1525    14474    6               CALL INSERT(OUT_BUF,HDR_LEN,PRIV_TBL.LEN(NXT_IDX),

  14474  4 005772   200016 236100                    LDQ     NXT_IDX,,AUTO
         4 005773   000015 402007                    MPY     13,DL
         4 005774   000100 101406                    MRL     fill='000'O
         4 005775   003241 000001 2                  ADSC9   PRIV_TBL,Q               cn=0,n=1
         4 005776   200224 000002                    ADSC9   I+2,,AUTO                cn=0,n=2
         4 005777   200224 220100                    LDX0    I+2,,AUTO
         4 006000   200007 235100                    LDA     HDR_LEN,,AUTO
         4 006001   040045 100406                    MLR     fill='040'O
         4 006002   003241 200010 2                  ADSC9   PRIV_TBL,Q               cn=1,n=8
         4 006003   000000 000010 xsym               ADSC9   OUT_BUF,A                cn=0,n=*X0

     1526    14475    6                    PRIV_TBL.HDR(NXT_IDX));
     1527    14476    6               HDR_LEN = HDR_LEN + PRIV_TBL.LEN(NXT_IDX);

  14476  4 006004   000100 101406                    MRL     fill='000'O
         4 006005   003241 000001 2                  ADSC9   PRIV_TBL,Q               cn=0,n=1
         4 006006   200224 000004                    ADSC9   I+2,,AUTO                cn=0,n=4
         4 006007   200224 236100                    LDQ     I+2,,AUTO
         4 006010   200007 036100                    ADLQ    HDR_LEN,,AUTO
         4 006011   200007 756100                    STQ     HDR_LEN,,AUTO

     1528    14477    6               FIELDS = FIELDS+1;

  14477  4 006012   200006 054100                    AOS     FIELDS,,AUTO

PL6.E3A0      #002=ASL$LIST_OUT File=ASL$EXT.:E05TSI                             TUE 07/29/97 09:59 Page:301
     1529    14478    6               END;

     1530    14479    5            NXT_IDX = NXT_IDX+1;

  14479  4 006013   200016 054100                    AOS     NXT_IDX,,AUTO

     1531    14480    5            END;

  14480  4 006014   006016 710000 4                  TRA     s:14483

     1532    14481    4         ELSE
     1533    14482    4            MORE = '0'B;

  14482  4 006015   200202 450100                    STZ     MORE,,AUTO

     1534    14483    4         END;

  14483  4 006016   200202 234100                    SZN     MORE,,AUTO
         4 006017   006023 605000 4                  TPL     s:14484
         4 006020   200016 236100                    LDQ     NXT_IDX,,AUTO
         4 006021   200204 116100                    CMPQ    END_IDX,,AUTO
         4 006022   005745 604000 4                  TMI     s:14469

     1535    14484    3      IF FIELDS>0

  14484  4 006023   200006 235100                    LDA     FIELDS,,AUTO
         4 006024   006216 604400 4                  TMOZ    s:14522

     1536    14485    4      THEN DO;

     1537    14486    4         CALL ASB$WRITE_LO(' ',1);

  14486  4 006025   000005 630400 5                  EPPR0   5
         4 006026   000020 631400 xsym               EPPR1   B_VECTNIL+16
         4 006027   000000 701000 xent               TSX1    ASB$WRITE_LO
         4 006030   000000 011000                    NOP     0

PL6.E3A0      #002=ASL$LIST_OUT File=ASL$EXT.:E05TSI                             TUE 07/29/97 09:59 Page:302
     1538    14487    4         CALL ASB$WRITE_LO(OUT_BUF,HDR_LEN); /* Put out the hdr          */

  14487  4 006031   200007 630500                    EPPR0   HDR_LEN,,AUTO
         4 006032   200225 450500                    STP0    I+3,,AUTO
         4 006033   000002 236000 5                  LDQ     2
         4 006034   200224 756100                    STQ     I+2,,AUTO
         4 006035   200224 630500                    EPPR0   I+2,,AUTO
         4 006036   000020 631400 xsym               EPPR1   B_VECTNIL+16
         4 006037   000000 701000 xent               TSX1    ASB$WRITE_LO
         4 006040   000000 011000                    NOP     0

     1539    14488    5         DO BOG_IDX = 0 TO 3;

  14488  4 006041   200200 450100                    STZ     BOG_IDX,,AUTO

     1540    14489    5            IF DO_FLAG(BOG_IDX)

  14489  4 006042   200200 235100                    LDA     BOG_IDX,,AUTO
         4 006043   006045 605000 4                  TPL     s:14489+3
         4 006044   000044 035003                    ADLA    36,DU
         4 006045   200003 470500                    LDP0    @DO_FLAG,,AUTO
         4 006046   000000 066505                    CMPB    filb='0'B
         4 006047   000000 000001                    BDSC    0,A,PR0                  by=0,bit=0,n=1
         4 006050   000002 000022 xsym               BDSC    B_VECTNIL+2              by=0,bit=0,n=18
         4 006051   006212 600000 4                  TZE     s:14520

     1541    14490    6            THEN DO;

     1542    14491    6               IF PRIV_FLG

  14491  4 006052   200177 471500                    LDP1    @PRIV_FLG,,AUTO
         4 006053   100000 234100                    SZN     0,,PR1
         4 006054   006061 605000 4                  TPL     s:14495

     1543    14492    6               THEN
     1544    14493    6                  PRIV = AS_USERS.PRIV(BOG_IDX);

PL6.E3A0      #002=ASL$LIST_OUT File=ASL$EXT.:E05TSI                             TUE 07/29/97 09:59 Page:303
  14493  4 006055   200200 720100                    LXL0    BOG_IDX,,AUTO
         4 006056   000225 236010 xsym               LDQ     AS_USERS+149,X0
         4 006057   200203 756100                    STQ     PRIV,,AUTO
         4 006060   006064 710000 4                  TRA     s:14496

     1545    14494    6               ELSE
     1546    14495    6                  PRIV = AS_USERS.PPRIV(BOG_IDX);

  14495  4 006061   200200 720100                    LXL0    BOG_IDX,,AUTO
         4 006062   000231 236010 xsym               LDQ     AS_USERS+153,X0
         4 006063   200203 756100                    STQ     PRIV,,AUTO

     1547    14496    6               CALL INSERT(FMT_BUF,0,2,'%A');

  14496  4 006064   005134 221000 2                  LDX1    PRIV_TBL+236
         4 006065   000000 741000 xsym               STX1    FMT_BUF

     1548    14497    6               FDS.FMT_.BOUND = 1;

  14497  4 006066   000000 236000 xsym               LDQ     FDS
         4 006067   177777 376007                    ANQ     65535,DL
         4 006070   200000 276007                    ORQ     65536,DL
         4 006071   000000 756000 xsym               STQ     FDS

     1549    14498    6               FMT_VEC(0) = VECTOR(BOG_BUF(BOG_IDX));

  14498  4 006072   777640 235007                    LDA     -96,DL
         4 006073   200200 236100                    LDQ     BOG_IDX,,AUTO
         4 006074   000022 736000                    QLS     18
         4 006075   000036 036000 5                  ADLQ    30
         4 006076   000000 755000 xsym               STA     FMT_VEC
         4 006077   000001 756000 xsym               STQ     FMT_VEC+1

     1550    14499    6               FDS.NVECS# = 1;

  14499  4 006100   000001 235007                    LDA     1,DL
         4 006101   000011 755000 xsym               STA     FDS+9
PL6.E3A0      #002=ASL$LIST_OUT File=ASL$EXT.:E05TSI                             TUE 07/29/97 09:59 Page:304

     1551    14500    6               SBIN_IDX = 0;

  14500  4 006102   200164 450100                    STZ     SBIN_IDX,,AUTO

     1552    14501    6               SBINS(SBIN_IDX) = 5;

  14501  4 006103   000005 235007                    LDA     5,DL
         4 006104   200164 722100                    LXL2    SBIN_IDX,,AUTO
         4 006105   200020 755112                    STA     SBINS,X2,AUTO

     1553    14502    7               DO I=ST_IDX TO ST_IDX+FIELDS-1;

  14502  4 006106   200166 235100                    LDA     ST_IDX,,AUTO
         4 006107   200201 755100                    STA     I,,AUTO
         4 006110   006202 710000 4                  TRA     s:14517+1

     1554    14503    7                  IF PRIV_TBL.LEN(I)>0

  14503  4 006111   200201 236100                    LDQ     I,,AUTO
         4 006112   000015 402007                    MPY     13,DL
         4 006113   000100 101406                    MRL     fill='000'O
         4 006114   003241 000001 2                  ADSC9   PRIV_TBL,Q               cn=0,n=1
         4 006115   200224 000004                    ADSC9   I+2,,AUTO                cn=0,n=4
         4 006116   200224 236100                    LDQ     I+2,,AUTO
         4 006117   000000 116003                    CMPQ    0,DU
         4 006120   006201 600000 4                  TZE     s:14517

     1555    14504    8                  THEN DO;

     1556    14505    8                     FMT_VEC(FDS.NVECS#) = VECTOR(SBINS(SBIN_IDX));

  14505  4 006121   000011 235000 xsym               LDA     FDS+9
         4 006122   000001 735000                    ALS     1
         4 006123   000000 620005                    EAX0    0,AL
         4 006124   777640 235007                    LDA     -96,DL
         4 006125   200224 452500                    STP2    I+2,,AUTO
PL6.E3A0      #002=ASL$LIST_OUT File=ASL$EXT.:E05TSI                             TUE 07/29/97 09:59 Page:305
         4 006126   200164 236100                    LDQ     SBIN_IDX,,AUTO
         4 006127   000022 736000                    QLS     18
         4 006130   000020 036003                    ADLQ    16,DU
         4 006131   200224 036100                    ADLQ    I+2,,AUTO
         4 006132   000000 755010 xsym               STA     FMT_VEC,X0
         4 006133   000001 756010 xsym               STQ     FMT_VEC+1,X0

     1557    14506    8                     IF PRIV & PRIV_TBL.MASK(I)

  14506  4 006134   200201 236100                    LDQ     I,,AUTO
         4 006135   000015 402007                    MPY     13,DL
         4 006136   000100 100406                    MLR     fill='000'O
         4 006137   003243 200004 2                  ADSC9   PRIV_TBL+2,Q             cn=1,n=4
         4 006140   200224 000004                    ADSC9   I+2,,AUTO                cn=0,n=4
         4 006141   200224 236100                    LDQ     I+2,,AUTO
         4 006142   200203 376100                    ANQ     PRIV,,AUTO
         4 006143   006150 600000 4                  TZE     s:14510

     1558    14507    8                     THEN
     1559    14508    8                        FMT_VEC(FDS.NVECS#+1) = VECTOR(YES_STR);

  14508  4 006144   000102 237000 5                  LDAQ    66
         4 006145   000002 755010 xsym               STA     FMT_VEC+2,X0
         4 006146   000003 756010 xsym               STQ     FMT_VEC+3,X0
         4 006147   006153 710000 4                  TRA     s:14511

     1560    14509    8                     ELSE
     1561    14510    8                        FMT_VEC(FDS.NVECS#+1) = VECTOR(NO_STR);

  14510  4 006150   000104 237000 5                  LDAQ    68
         4 006151   000002 755010 xsym               STA     FMT_VEC+2,X0
         4 006152   000003 756010 xsym               STQ     FMT_VEC+3,X0

     1562    14511    8                     FDS.NVECS# = FDS.NVECS# + 2;

  14511  4 006153   000002 236007                    LDQ     2,DL
         4 006154   000011 056000 xsym               ASQ     FDS+9
PL6.E3A0      #002=ASL$LIST_OUT File=ASL$EXT.:E05TSI                             TUE 07/29/97 09:59 Page:306

     1563    14512    8                     SBINS(SBIN_IDX+1) = SBINS(SBIN_IDX) + PRIV_TBL.LEN(I);

  14512  4 006155   200164 720100                    LXL0    SBIN_IDX,,AUTO
         4 006156   200201 236100                    LDQ     I,,AUTO
         4 006157   000015 402007                    MPY     13,DL
         4 006160   000100 101406                    MRL     fill='000'O
         4 006161   003241 000001 2                  ADSC9   PRIV_TBL,Q               cn=0,n=1
         4 006162   200224 000004                    ADSC9   I+2,,AUTO                cn=0,n=4
         4 006163   200224 236100                    LDQ     I+2,,AUTO
         4 006164   200020 036110                    ADLQ    SBINS,X0,AUTO
         4 006165   200021 756110                    STQ     SBINS+1,X0,AUTO

     1564    14513    8                     SBIN_IDX = SBIN_IDX + 1;

  14513  4 006166   200164 054100                    AOS     SBIN_IDX,,AUTO

     1565    14514    8                     CALL INSERT(FMT_BUF,FDS.FMT_.BOUND+1,5,'%N-%A');

  14514  4 006167   000000 236000 xsym               LDQ     FDS
         4 006170   000020 772000                    QRL     16
         4 006171   040006 100400                    MLR     fill='040'O
         4 006172   005161 000005 2                  ADSC9   PRIV_TBL+257             cn=0,n=5
         4 006173   000000 200005 xsym               ADSC9   FMT_BUF,Q                cn=1,n=5

     1566    14515    8                     FDS.FMT_.BOUND = FDS.FMT_.BOUND+5;

  14515  4 006174   000005 036007                    ADLQ    5,DL
         4 006175   000020 736000                    QLS     16
         4 006176   000000 676000 xsym               ERQ     FDS
         4 006177   000034 376000 xsym               ANQ     B_VECTNIL+28
         4 006200   000000 656000 xsym               ERSQ    FDS

     1567    14516    8                     END;

     1568    14517    7                  END;

PL6.E3A0      #002=ASL$LIST_OUT File=ASL$EXT.:E05TSI                             TUE 07/29/97 09:59 Page:307
  14517  4 006201   200201 054100                    AOS     I,,AUTO
         4 006202   200166 236100                    LDQ     ST_IDX,,AUTO
         4 006203   200006 036100                    ADLQ    FIELDS,,AUTO
         4 006204   200201 116100                    CMPQ    I,,AUTO
         4 006205   006111 605400 4                  TPNZ    s:14503

     1569    14518    6               CALL X$FORMAT(FDS);

  14518  4 006206   000004 630400 5                  EPPR0   4
         4 006207   000017 631400 xsym               EPPR1   B_VECTNIL+15
         4 006210   000000 701000 xent               TSX1    X$FORMAT
         4 006211   000000 011000                    NOP     0

     1570    14519    6               END;

     1571    14520    5            END;

  14520  4 006212   200200 054100                    AOS     BOG_IDX,,AUTO
         4 006213   200200 235100                    LDA     BOG_IDX,,AUTO
         4 006214   000003 115007                    CMPA    3,DL
         4 006215   006042 604400 4                  TMOZ    s:14489

     1572    14521    4         END;

     1573    14522    3      ST_IDX = NXT_IDX;

  14522  4 006216   200016 235100                    LDA     NXT_IDX,,AUTO
         4 006217   200166 755100                    STA     ST_IDX,,AUTO

     1574    14523    3      END;

  14523  4 006220   200166 236100                    LDQ     ST_IDX,,AUTO
         4 006221   200204 116100                    CMPQ    END_IDX,,AUTO
         4 006222   005735 604000 4                  TMI     s:14464

     1575    14524    2   RETURN;

PL6.E3A0      #002=ASL$LIST_OUT File=ASL$EXT.:E05TSI                             TUE 07/29/97 09:59 Page:308
  14524  4 006223   200176 221300                    LDX1  ! TMP_LEN+1,,AUTO
         4 006224   000001 702211                    TSX2  ! 1,X1

     1576    14525    2   END LIST_PRIV;
     1577    14526        %EJECT;
PL6.E3A0      #002=ASL$LIST_OUT File=ASL$EXT.:E05TSI                             TUE 07/29/97 09:59 Page:309
     1578    14527    1   LIST_FEPRIV: PROC(PRIV_FLG);

  14527  4 006225   200176 741300       LIST_FEPRIV  STX1  ! TMP_LEN+1,,AUTO

     1579    14528    2   DCL PRIV_FLG BIT(1) ALIGNED;
     1580    14529    2   DCL BOG_IDX SBIN;
     1581    14530    2   DCL I SBIN;
     1582    14531    2   DCL MORE BIT(1) ALIGNED;
     1583    14532    2   DCL PRIV BIT(36);
     1584    14533    2   DCL END_IDX SBIN;
     1585    14534    2   DCL 1 PRIV_TBL(0:71) CONSTANT,
     1586    14535    2          2 LEN UBIN BYTE UNAL INIT
     1587    14536    2             ( 6, 6, 8, 7, 5,
     1588    14537    2               6, 6, 8, 8, 5,
     1589    14538    2               8, 5, 6, 9, 0,
     1590    14539    2               0*21,
     1591    14540    2               8, 8, 5, 5, 9,
     1592    14541    2               7, 8, 6, 6, 7,
     1593    14542    2               8, 9, 9, 7, 8,
     1594    14543    2               8, 8, 8, 9, 8,
     1595    14544    2               9, 0*15),
     1596    14545    2          2 HDR CHAR(8) UNAL INIT
     1597    14546    2             ('EXMM    ', 'EXPM    ', 'FMREAD  ', 'FMSEC   ', 'GPP     ',
     1598    14547    2              'MAXM    ', 'MSYS    ', 'SPCLMM  ', 'SYSLOG  ', 'TND     ',
     1599    14548    2              'INTCON  ', 'CQ      ', 'SNAP    ', 'SCREECH ', '        ',
     1600    14549    2              '        '*21,
     1601    14550    2              'CNTRLC  ', 'CNTRLD  ', 'EFT     ', 'EL      ', 'NETCON  ',
     1602    14551    2              'LABEL   ', 'PADMIN  ', 'PIGC    ', 'PIGD    ', 'RATES   ',
     1603    14552    2              'REPLAY  ', 'SPIDERC ', 'SPIDERD ', 'SUPER   ', 'SUPERA  ',
     1604    14553    2              'SUPERD  ', 'SUPERF  ', 'SUPERW  ', 'VOLINIT ', 'SYSCON  ',
     1605    14554    2              'PIGETTE ', ' '*15 ),
     1606    14555    2          2 MASK BIT(36) UNAL INIT
     1607    14556    2              (%PR_EXMM#,     %PR_EXPM#,     %PR_FMREAD#,   %PR_FMSEC#,    %PR_GPP#,
     1608    14557    2               %PR_MAXMEM#,   %PR_MSYS#,     %PR_SPCLMM#,   %PR_SYSLOG#,   %PR_TND#,
     1609    14558    2               %PR_INTCON#,   %PR_CQ#,       %PR_SNAP#,     %PR_SCREECH#,  '0'B,
     1610    14559    2               '0'B*21,
     1611    14560    2               %PPR_CNTRLC#,  %PPR_CNTRLD#,  %PPR_EFT#,     %PPR_EL#,     %PPR_NETCON#
PL6.E3A0      #002=ASL$LIST_OUT File=ASL$EXT.:E05TSI                             TUE 07/29/97 09:59 Page:310
             14560                        ,
     1612    14561    2               %PPR_LABEL#,   %PPR_PADMIN#,  %PPR_PIGC#,    %PPR_PIGD#,   %PPR_RATES#,
     1613    14562    2               %PPR_REPLAY#,  %PPR_SPIDERC#, %PPR_SPIDERD#, %PPR_SUPER#,   %
             14562                        PPR_SUPERAUTH#,
     1614    14563    2               %PPR_SUPERD#, %PPR_SUPERFORM#,%PPR_SUPERWSN#,%PPR_VOLINIT#,%PPR_SYSCON#
             14563                        ,
     1615    14564    2               %PPR_PIGETTE#, '0'B*15 );
     1616    14565    2   DCL PPRIV_HDR CHAR(0) CONSTANT INIT
     1617    14566    2               ('        FE PROCESSOR PRIVILEGES');
     1618    14567        %EJECT;
PL6.E3A0      #002=ASL$LIST_OUT File=ASL$EXT.:E05TSI                             TUE 07/29/97 09:59 Page:311
     1619    14568    2   CALL ASB$WRITE_LO(' ',1);

  14568  4 006226   000005 630400 5                  EPPR0   5
         4 006227   000020 631400 xsym               EPPR1   B_VECTNIL+16
         4 006230   000000 701000 xent               TSX1    ASB$WRITE_LO
         4 006231   000000 011000                    NOP     0

     1620    14569    2   IF PRIV_FLG

  14569  4 006232   200177 470500                    LDP0    @PRIV_FLG,,AUTO
         4 006233   000000 234100                    SZN     0,,PR0
         4 006234   006245 605000 4                  TPL     s:14576

     1621    14570    3   THEN DO;

     1622    14571    3      CALL ASB$WRITE_LO( OPT_TBL.HDR(L_FEPRIV), LENGTHC(OPT_TBL.HDR(L_FEPRIV)));

  14571  4 006235   000165 630400 5                  EPPR0   117
         4 006236   000020 631400 xsym               EPPR1   B_VECTNIL+16
         4 006237   000000 701000 xent               TSX1    ASB$WRITE_LO
         4 006240   000000 011000                    NOP     0

     1623    14572    3      NXT_IDX = 0;

  14572  4 006241   200016 450100                    STZ     NXT_IDX,,AUTO

     1624    14573    3      END_IDX = 36;

  14573  4 006242   000044 235007                    LDA     36,DL
         4 006243   200204 755100                    STA     END_IDX,,AUTO

     1625    14574    3      END;

  14574  4 006244   006255 710000 4                  TRA     s:14580

     1626    14575    3   ELSE DO;

PL6.E3A0      #002=ASL$LIST_OUT File=ASL$EXT.:E05TSI                             TUE 07/29/97 09:59 Page:312
     1627    14576    3      CALL ASB$WRITE_LO(PPRIV_HDR,SIZEC(PPRIV_HDR));

  14576  4 006245   000170 630400 5                  EPPR0   120
         4 006246   000020 631400 xsym               EPPR1   B_VECTNIL+16
         4 006247   000000 701000 xent               TSX1    ASB$WRITE_LO
         4 006250   000000 011000                    NOP     0

     1628    14577    3      NXT_IDX = 36;

  14577  4 006251   000044 235007                    LDA     36,DL
         4 006252   200016 755100                    STA     NXT_IDX,,AUTO

     1629    14578    3      END_IDX = 72;

  14578  4 006253   000110 236007                    LDQ     72,DL
         4 006254   200204 756100                    STQ     END_IDX,,AUTO

     1630    14579    3      END;

     1631    14580    2   ST_IDX = NXT_IDX;

  14580  4 006255   200016 236100                    LDQ     NXT_IDX,,AUTO
         4 006256   200166 756100                    STQ     ST_IDX,,AUTO

     1632    14581    3   DO WHILE(ST_IDX < END_IDX);

  14581  4 006257   200204 116100                    CMPQ    END_IDX,,AUTO
         4 006260   006547 605000 4                  TPL     s:14642

     1633    14582    3      CALL INSERT(OUT_BUF,0,3,' ');

  14582  4 006261   000034 236000 5                  LDQ     28
         4 006262   000000 552070 xsym               STBQ    OUT_BUF,'70'O

     1634    14583    3      HDR_LEN = 3;

  14583  4 006263   000003 235007                    LDA     3,DL
PL6.E3A0      #002=ASL$LIST_OUT File=ASL$EXT.:E05TSI                             TUE 07/29/97 09:59 Page:313
         4 006264   200007 755100                    STA     HDR_LEN,,AUTO

     1635    14584    3      FIELDS = 0;

  14584  4 006265   200006 450100                    STZ     FIELDS,,AUTO

     1636    14585    3      MORE = '1'B;

  14585  4 006266   400000 236003                    LDQ     -131072,DU
         4 006267   200202 756100                    STQ     MORE,,AUTO

     1637    14586    4      DO WHILE(MORE AND NXT_IDX < END_IDX);

  14586  4 006270   006342 710000 4                  TRA     s:14601

     1638    14587    4         IF (HDR_LEN + PRIV_TBL.LEN(NXT_IDX)) <= LO_WIDTH

  14587  4 006271   200016 236100                    LDQ     NXT_IDX,,AUTO
         4 006272   000015 402007                    MPY     13,DL
         4 006273   000100 101406                    MRL     fill='000'O
         4 006274   003622 000001 2                  ADSC9   PRIV_TBL,Q               cn=0,n=1
         4 006275   200224 000004                    ADSC9   I+2,,AUTO                cn=0,n=4
         4 006276   200224 236100                    LDQ     I+2,,AUTO
         4 006277   200007 036100                    ADLQ    HDR_LEN,,AUTO
         4 006300   006306 604000 4                  TMI     s:14590
         4 006301   000000 116000 xsym               CMPQ    LO_WIDTH
         4 006302   006306 602000 4                  TNC     s:14590
         4 006303   006306 600000 4                  TZE     s:14590
         4 006304   200006 235100                    LDA     FIELDS,,AUTO
         4 006305   006341 601000 4                  TNZ     s:14600

     1639    14588    4              OR FIELDS=0
     1640    14589    5         THEN DO;

     1641    14590    5            IF PRIV_TBL.LEN(NXT_IDX)>0

  14590  4 006306   200016 236100                    LDQ     NXT_IDX,,AUTO
PL6.E3A0      #002=ASL$LIST_OUT File=ASL$EXT.:E05TSI                             TUE 07/29/97 09:59 Page:314
         4 006307   000015 402007                    MPY     13,DL
         4 006310   000100 101406                    MRL     fill='000'O
         4 006311   003622 000001 2                  ADSC9   PRIV_TBL,Q               cn=0,n=1
         4 006312   200224 000004                    ADSC9   I+2,,AUTO                cn=0,n=4
         4 006313   200224 236100                    LDQ     I+2,,AUTO
         4 006314   000000 116003                    CMPQ    0,DU
         4 006315   006337 600000 4                  TZE     s:14597

     1642    14591    6            THEN DO;

     1643    14592    6               CALL INSERT(OUT_BUF,HDR_LEN,PRIV_TBL.LEN(NXT_IDX),

  14592  4 006316   200016 236100                    LDQ     NXT_IDX,,AUTO
         4 006317   000015 402007                    MPY     13,DL
         4 006320   000100 101406                    MRL     fill='000'O
         4 006321   003622 000001 2                  ADSC9   PRIV_TBL,Q               cn=0,n=1
         4 006322   200224 000002                    ADSC9   I+2,,AUTO                cn=0,n=2
         4 006323   200224 220100                    LDX0    I+2,,AUTO
         4 006324   200007 235100                    LDA     HDR_LEN,,AUTO
         4 006325   040045 100406                    MLR     fill='040'O
         4 006326   003622 200010 2                  ADSC9   PRIV_TBL,Q               cn=1,n=8
         4 006327   000000 000010 xsym               ADSC9   OUT_BUF,A                cn=0,n=*X0

     1644    14593    6                    PRIV_TBL.HDR(NXT_IDX));
     1645    14594    6               HDR_LEN = HDR_LEN + PRIV_TBL.LEN(NXT_IDX);

  14594  4 006330   000100 101406                    MRL     fill='000'O
         4 006331   003622 000001 2                  ADSC9   PRIV_TBL,Q               cn=0,n=1
         4 006332   200224 000004                    ADSC9   I+2,,AUTO                cn=0,n=4
         4 006333   200224 236100                    LDQ     I+2,,AUTO
         4 006334   200007 036100                    ADLQ    HDR_LEN,,AUTO
         4 006335   200007 756100                    STQ     HDR_LEN,,AUTO

     1646    14595    6               FIELDS = FIELDS+1;

  14595  4 006336   200006 054100                    AOS     FIELDS,,AUTO

PL6.E3A0      #002=ASL$LIST_OUT File=ASL$EXT.:E05TSI                             TUE 07/29/97 09:59 Page:315
     1647    14596    6               END;

     1648    14597    5            NXT_IDX = NXT_IDX+1;

  14597  4 006337   200016 054100                    AOS     NXT_IDX,,AUTO

     1649    14598    5            END;

  14598  4 006340   006342 710000 4                  TRA     s:14601

     1650    14599    4         ELSE
     1651    14600    4            MORE = '0'B;

  14600  4 006341   200202 450100                    STZ     MORE,,AUTO

     1652    14601    4         END;

  14601  4 006342   200202 234100                    SZN     MORE,,AUTO
         4 006343   006347 605000 4                  TPL     s:14602
         4 006344   200016 236100                    LDQ     NXT_IDX,,AUTO
         4 006345   200204 116100                    CMPQ    END_IDX,,AUTO
         4 006346   006271 604000 4                  TMI     s:14587

     1653    14602    3      IF FIELDS>0

  14602  4 006347   200006 235100                    LDA     FIELDS,,AUTO
         4 006350   006542 604400 4                  TMOZ    s:14640

     1654    14603    4      THEN DO;

     1655    14604    4         CALL ASB$WRITE_LO(' ',1);

  14604  4 006351   000005 630400 5                  EPPR0   5
         4 006352   000020 631400 xsym               EPPR1   B_VECTNIL+16
         4 006353   000000 701000 xent               TSX1    ASB$WRITE_LO
         4 006354   000000 011000                    NOP     0

PL6.E3A0      #002=ASL$LIST_OUT File=ASL$EXT.:E05TSI                             TUE 07/29/97 09:59 Page:316
     1656    14605    4         CALL ASB$WRITE_LO(OUT_BUF,HDR_LEN); /* Put out the hdr          */

  14605  4 006355   200007 630500                    EPPR0   HDR_LEN,,AUTO
         4 006356   200225 450500                    STP0    I+3,,AUTO
         4 006357   000002 236000 5                  LDQ     2
         4 006360   200224 756100                    STQ     I+2,,AUTO
         4 006361   200224 630500                    EPPR0   I+2,,AUTO
         4 006362   000020 631400 xsym               EPPR1   B_VECTNIL+16
         4 006363   000000 701000 xent               TSX1    ASB$WRITE_LO
         4 006364   000000 011000                    NOP     0

     1657    14606    5         DO BOG_IDX = 0 TO 3;

  14606  4 006365   200200 450100                    STZ     BOG_IDX,,AUTO

     1658    14607    5            IF DO_FLAG (L_FEUSER + BOG_IDX)

  14607  4 006366   200200 235100                    LDA     BOG_IDX,,AUTO
         4 006367   006371 605000 4                  TPL     s:14607+3
         4 006370   000044 035003                    ADLA    36,DU
         4 006371   200003 470500                    LDP0    @DO_FLAG,,AUTO
         4 006372   000000 066505                    CMPB    filb='0'B
         4 006373   000003 000001                    BDSC    3,A,PR0                  by=0,bit=0,n=1
         4 006374   000002 000022 xsym               BDSC    B_VECTNIL+2              by=0,bit=0,n=18
         4 006375   006536 600000 4                  TZE     s:14638

     1659    14608    6            THEN DO;

     1660    14609    6               IF PRIV_FLG

  14609  4 006376   200177 471500                    LDP1    @PRIV_FLG,,AUTO
         4 006377   100000 234100                    SZN     0,,PR1
         4 006400   006405 605000 4                  TPL     s:14613

     1661    14610    6               THEN
     1662    14611    6                  PRIV = KL_DREC.KL_DREC_FEBLK.PRIV(BOG_IDX);

PL6.E3A0      #002=ASL$LIST_OUT File=ASL$EXT.:E05TSI                             TUE 07/29/97 09:59 Page:317
  14611  4 006401   200200 720100                    LXL0    BOG_IDX,,AUTO
         4 006402   000032 236010 xsym               LDQ     KL_DREC+26,X0
         4 006403   200203 756100                    STQ     PRIV,,AUTO
         4 006404   006410 710000 4                  TRA     s:14614

     1663    14612    6               ELSE
     1664    14613    6                  PRIV = KL_DREC.KL_DREC_FEBLK.PPRIV(BOG_IDX);

  14613  4 006405   200200 720100                    LXL0    BOG_IDX,,AUTO
         4 006406   000036 236010 xsym               LDQ     KL_DREC+30,X0
         4 006407   200203 756100                    STQ     PRIV,,AUTO

     1665    14614    6               CALL INSERT(FMT_BUF,0,2,'%A');

  14614  4 006410   005134 221000 2                  LDX1    PRIV_TBL+236
         4 006411   000000 741000 xsym               STX1    FMT_BUF

     1666    14615    6               FDS.FMT_.BOUND = 1;

  14615  4 006412   000000 236000 xsym               LDQ     FDS
         4 006413   177777 376007                    ANQ     65535,DL
         4 006414   200000 276007                    ORQ     65536,DL
         4 006415   000000 756000 xsym               STQ     FDS

     1667    14616    6               FMT_VEC(0) = VECTOR(BOG_FE_BUF(BOG_IDX));

  14616  4 006416   777640 235007                    LDA     -96,DL
         4 006417   200200 236100                    LDQ     BOG_IDX,,AUTO
         4 006420   000022 736000                    QLS     18
         4 006421   000035 036000 5                  ADLQ    29
         4 006422   000000 755000 xsym               STA     FMT_VEC
         4 006423   000001 756000 xsym               STQ     FMT_VEC+1

     1668    14617    6               FDS.NVECS# = 1;

  14617  4 006424   000001 235007                    LDA     1,DL
         4 006425   000011 755000 xsym               STA     FDS+9
PL6.E3A0      #002=ASL$LIST_OUT File=ASL$EXT.:E05TSI                             TUE 07/29/97 09:59 Page:318

     1669    14618    6               SBIN_IDX = 0;

  14618  4 006426   200164 450100                    STZ     SBIN_IDX,,AUTO

     1670    14619    6               SBINS(SBIN_IDX) = 5;

  14619  4 006427   000005 235007                    LDA     5,DL
         4 006430   200164 722100                    LXL2    SBIN_IDX,,AUTO
         4 006431   200020 755112                    STA     SBINS,X2,AUTO

     1671    14620    7               DO I=ST_IDX TO ST_IDX+FIELDS-1;

  14620  4 006432   200166 235100                    LDA     ST_IDX,,AUTO
         4 006433   200201 755100                    STA     I,,AUTO
         4 006434   006526 710000 4                  TRA     s:14635+1

     1672    14621    7                  IF PRIV_TBL.LEN(I)>0

  14621  4 006435   200201 236100                    LDQ     I,,AUTO
         4 006436   000015 402007                    MPY     13,DL
         4 006437   000100 101406                    MRL     fill='000'O
         4 006440   003622 000001 2                  ADSC9   PRIV_TBL,Q               cn=0,n=1
         4 006441   200224 000004                    ADSC9   I+2,,AUTO                cn=0,n=4
         4 006442   200224 236100                    LDQ     I+2,,AUTO
         4 006443   000000 116003                    CMPQ    0,DU
         4 006444   006525 600000 4                  TZE     s:14635

     1673    14622    8                  THEN DO;

     1674    14623    8                     FMT_VEC(FDS.NVECS#) = VECTOR(SBINS(SBIN_IDX));

  14623  4 006445   000011 235000 xsym               LDA     FDS+9
         4 006446   000001 735000                    ALS     1
         4 006447   000000 620005                    EAX0    0,AL
         4 006450   777640 235007                    LDA     -96,DL
         4 006451   200224 452500                    STP2    I+2,,AUTO
PL6.E3A0      #002=ASL$LIST_OUT File=ASL$EXT.:E05TSI                             TUE 07/29/97 09:59 Page:319
         4 006452   200164 236100                    LDQ     SBIN_IDX,,AUTO
         4 006453   000022 736000                    QLS     18
         4 006454   000020 036003                    ADLQ    16,DU
         4 006455   200224 036100                    ADLQ    I+2,,AUTO
         4 006456   000000 755010 xsym               STA     FMT_VEC,X0
         4 006457   000001 756010 xsym               STQ     FMT_VEC+1,X0

     1675    14624    8                     IF PRIV & PRIV_TBL.MASK(I)

  14624  4 006460   200201 236100                    LDQ     I,,AUTO
         4 006461   000015 402007                    MPY     13,DL
         4 006462   000100 100406                    MLR     fill='000'O
         4 006463   003624 200004 2                  ADSC9   PRIV_TBL+2,Q             cn=1,n=4
         4 006464   200224 000004                    ADSC9   I+2,,AUTO                cn=0,n=4
         4 006465   200224 236100                    LDQ     I+2,,AUTO
         4 006466   200203 376100                    ANQ     PRIV,,AUTO
         4 006467   006474 600000 4                  TZE     s:14628

     1676    14625    8                     THEN
     1677    14626    8                        FMT_VEC(FDS.NVECS#+1) = VECTOR(YES_STR);

  14626  4 006470   000102 237000 5                  LDAQ    66
         4 006471   000002 755010 xsym               STA     FMT_VEC+2,X0
         4 006472   000003 756010 xsym               STQ     FMT_VEC+3,X0
         4 006473   006477 710000 4                  TRA     s:14629

     1678    14627    8                     ELSE
     1679    14628    8                        FMT_VEC(FDS.NVECS#+1) = VECTOR(NO_STR);

  14628  4 006474   000104 237000 5                  LDAQ    68
         4 006475   000002 755010 xsym               STA     FMT_VEC+2,X0
         4 006476   000003 756010 xsym               STQ     FMT_VEC+3,X0

     1680    14629    8                     FDS.NVECS# = FDS.NVECS# + 2;

  14629  4 006477   000002 236007                    LDQ     2,DL
         4 006500   000011 056000 xsym               ASQ     FDS+9
PL6.E3A0      #002=ASL$LIST_OUT File=ASL$EXT.:E05TSI                             TUE 07/29/97 09:59 Page:320

     1681    14630    8                     SBINS(SBIN_IDX+1) = SBINS(SBIN_IDX) + PRIV_TBL.LEN(I);

  14630  4 006501   200164 720100                    LXL0    SBIN_IDX,,AUTO
         4 006502   200201 236100                    LDQ     I,,AUTO
         4 006503   000015 402007                    MPY     13,DL
         4 006504   000100 101406                    MRL     fill='000'O
         4 006505   003622 000001 2                  ADSC9   PRIV_TBL,Q               cn=0,n=1
         4 006506   200224 000004                    ADSC9   I+2,,AUTO                cn=0,n=4
         4 006507   200224 236100                    LDQ     I+2,,AUTO
         4 006510   200020 036110                    ADLQ    SBINS,X0,AUTO
         4 006511   200021 756110                    STQ     SBINS+1,X0,AUTO

     1682    14631    8                     SBIN_IDX = SBIN_IDX + 1;

  14631  4 006512   200164 054100                    AOS     SBIN_IDX,,AUTO

     1683    14632    8                     CALL INSERT(FMT_BUF,FDS.FMT_.BOUND+1,5,'%N-%A');

  14632  4 006513   000000 236000 xsym               LDQ     FDS
         4 006514   000020 772000                    QRL     16
         4 006515   040006 100400                    MLR     fill='040'O
         4 006516   005161 000005 2                  ADSC9   PRIV_TBL+257             cn=0,n=5
         4 006517   000000 200005 xsym               ADSC9   FMT_BUF,Q                cn=1,n=5

     1684    14633    8                     FDS.FMT_.BOUND = FDS.FMT_.BOUND+5;

  14633  4 006520   000005 036007                    ADLQ    5,DL
         4 006521   000020 736000                    QLS     16
         4 006522   000000 676000 xsym               ERQ     FDS
         4 006523   000034 376000 xsym               ANQ     B_VECTNIL+28
         4 006524   000000 656000 xsym               ERSQ    FDS

     1685    14634    8                     END;

     1686    14635    7                  END;

PL6.E3A0      #002=ASL$LIST_OUT File=ASL$EXT.:E05TSI                             TUE 07/29/97 09:59 Page:321
  14635  4 006525   200201 054100                    AOS     I,,AUTO
         4 006526   200166 236100                    LDQ     ST_IDX,,AUTO
         4 006527   200006 036100                    ADLQ    FIELDS,,AUTO
         4 006530   200201 116100                    CMPQ    I,,AUTO
         4 006531   006435 605400 4                  TPNZ    s:14621

     1687    14636    6               CALL X$FORMAT(FDS);

  14636  4 006532   000004 630400 5                  EPPR0   4
         4 006533   000017 631400 xsym               EPPR1   B_VECTNIL+15
         4 006534   000000 701000 xent               TSX1    X$FORMAT
         4 006535   000000 011000                    NOP     0

     1688    14637    6               END;

     1689    14638    5            END;

  14638  4 006536   200200 054100                    AOS     BOG_IDX,,AUTO
         4 006537   200200 235100                    LDA     BOG_IDX,,AUTO
         4 006540   000003 115007                    CMPA    3,DL
         4 006541   006366 604400 4                  TMOZ    s:14607

     1690    14639    4         END;

     1691    14640    3      ST_IDX = NXT_IDX;

  14640  4 006542   200016 235100                    LDA     NXT_IDX,,AUTO
         4 006543   200166 755100                    STA     ST_IDX,,AUTO

     1692    14641    3      END;

  14641  4 006544   200166 236100                    LDQ     ST_IDX,,AUTO
         4 006545   200204 116100                    CMPQ    END_IDX,,AUTO
         4 006546   006261 604000 4                  TMI     s:14582

     1693    14642    2   RETURN;

PL6.E3A0      #002=ASL$LIST_OUT File=ASL$EXT.:E05TSI                             TUE 07/29/97 09:59 Page:322
  14642  4 006547   200176 221300                    LDX1  ! TMP_LEN+1,,AUTO
         4 006550   000001 702211                    TSX2  ! 1,X1

     1694    14643    2   END LIST_FEPRIV;
     1695    14644        %EJECT;
PL6.E3A0      #002=ASL$LIST_OUT File=ASL$EXT.:E05TSI                             TUE 07/29/97 09:59 Page:323
     1696    14645    1   LIST_FACCOUNT: PROC;

  14645  4 006551   200176 741300       LIST_FACCOU* STX1  ! TMP_LEN+1,,AUTO

     1697    14646
     1698    14647        %SUPER_TO_PIG( STCLASS="BASED(DSEG1$)" );
     1699    14679
     1700    14680    2   IF DO_FLAG (L_JCL) THEN

  14680  4 006552   200003 470500                    LDP0    @DO_FLAG,,AUTO
         4 006553   000000 066500                    CMPB    filb='0'B
         4 006554   000003 670001                    BDSC    3,,PR0                   by=3,bit=7,n=1
         4 006555   000002 000022 xsym               BDSC    B_VECTNIL+2              by=0,bit=0,n=18
         4 006556   006564 600000 4                  TZE     s:14683

     1701    14681    2     CALL ASB$WRITE_LO( JCL_OPT_TBL.HDR(L_FACCT), LENGTHC(JCL_OPT_TBL.HDR(L_FACCT)) );

  14681  4 006557   000172 630400 5                  EPPR0   122
         4 006560   000020 631400 xsym               EPPR1   B_VECTNIL+16
         4 006561   000000 701000 xent               TSX1    ASB$WRITE_LO
         4 006562   000000 011000                    NOP     0
         4 006563   006600 710000 4                  TRA     s:14687

     1702    14682    3   ELSE DO;

     1703    14683    3      CALL ASB$WRITE_LO( AS_BLANK, 1 );

  14683  4 006564   000025 630400 5                  EPPR0   21
         4 006565   000020 631400 xsym               EPPR1   B_VECTNIL+16
         4 006566   000000 701000 xent               TSX1    ASB$WRITE_LO
         4 006567   000000 011000                    NOP     0

     1704    14684    3      CALL ASB$WRITE_LO( OPT_TBL.HDR(L_FACCT), LENGTHC(OPT_TBL.HDR(L_FACCT)) );

  14684  4 006570   000174 630400 5                  EPPR0   124
         4 006571   000020 631400 xsym               EPPR1   B_VECTNIL+16
         4 006572   000000 701000 xent               TSX1    ASB$WRITE_LO
PL6.E3A0      #002=ASL$LIST_OUT File=ASL$EXT.:E05TSI                             TUE 07/29/97 09:59 Page:324
         4 006573   000000 011000                    NOP     0

     1705    14685    3      CALL ASB$WRITE_LO( AS_BLANK, 1 );

  14685  4 006574   000025 630400 5                  EPPR0   21
         4 006575   000020 631400 xsym               EPPR1   B_VECTNIL+16
         4 006576   000000 701000 xent               TSX1    ASB$WRITE_LO
         4 006577   000000 011000                    NOP     0

     1706    14686    3      END; /*  Not jcl  */

     1707    14687    2   SUPER_TO_PIG.TYPE = %LIST_ACCT;

  14687  4 006600   000000 470400 xsym               LDP0    DSEG1$
         4 006601   002000 236003                    LDQ     1024,DU
         4 006602   000000 552140                    STBQ    0,'40'O,PR0

     1708    14688    2   SUPER_TO_PIG.WIDTH = LO_WIDTH;

  14688  4 006603   000000 470400 xsym               LDP0    DSEG1$
         4 006604   000000 236000 xsym               LDQ     LO_WIDTH
         4 006605   000022 736000                    QLS     18
         4 006606   000000 676100                    ERQ     0,,PR0
         4 006607   000377 376003                    ANQ     255,DU
         4 006610   000000 656100                    ERSQ    0,,PR0

     1709    14689    2   SUPER_TO_PIG.PROJ = ( AS_PROJECT_ADMIN ~= AS_NONE );

  14689  4 006611   400000 220003                    LDX0    -131072,DU
         4 006612   000000 106400                    CMPC    fill='000'O
         4 006613   000000 000025 xsym               ADSC9   AS_PROJECT_ADMIN         cn=0,n=21
         4 006614   000000 000025 xsym               ADSC9   AS_NONE                  cn=0,n=21
         4 006615   006617 601000 4                  TNZ     s:14689+6
         4 006616   000000 220003                    LDX0    0,DU
         4 006617   000000 470400 xsym               LDP0    DSEG1$
         4 006620   000000 636010                    EAQ     0,X0
         4 006621   000011 772000                    QRL     9
PL6.E3A0      #002=ASL$LIST_OUT File=ASL$EXT.:E05TSI                             TUE 07/29/97 09:59 Page:325
         4 006622   000000 676100                    ERQ     0,,PR0
         4 006623   000400 376003                    ANQ     256,DU
         4 006624   000000 656100                    ERSQ    0,,PR0

     1710    14690    2   SUPER_TO_PIG.RESUPER = AS_LOGON_KEY.TEXT;

  14690  4 006625   000000 470400 xsym               LDP0    DSEG1$
         4 006626   040100 100400                    MLR     fill='040'O
         4 006627   000000 200024 xsym               ADSC9   AS_LOGON_KEY             cn=1,n=20
         4 006630   000000 400024                    ADSC9   0,,PR0                   cn=2,n=20

     1711    14691    2   SUPER_TO_PIG.PROJECT_TEXT = AS_PROJECT_ADMIN.TEXT;

  14691  4 006631   000000 470400 xsym               LDP0    DSEG1$
         4 006632   040100 100400                    MLR     fill='040'O
         4 006633   000000 200024 xsym               ADSC9   AS_PROJECT_ADMIN         cn=1,n=20
         4 006634   000005 400024                    ADSC9   5,,PR0                   cn=2,n=20

     1712    14692    2   SUPER_TO_PIG.PACKSET = AS_USERS.HPSN;

  14692  4 006635   040100 100400                    MLR     fill='040'O
         4 006636   000123 000006 xsym               ADSC9   AS_USERS+83              cn=0,n=6
         4 006637   000012 400006                    ADSC9   10,,PR0                  cn=2,n=6

     1713    14693    2   SUPER_TO_PIG.ACCT = AS_USERS.ACCT;

  14693  4 006640   040100 100400                    MLR     fill='040'O
         4 006641   000000 000010 xsym               ADSC9   AS_USERS                 cn=0,n=8
         4 006642   000014 000010                    ADSC9   12,,PR0                  cn=0,n=8

     1714    14694    2   SUPER_TO_PIG.ATTR.COUNT = 0;

  14694  4 006643   000000 220003                    LDX0    0,DU
         4 006644   000016 740100                    STX0    14,,PR0

     1715    14695    2   CALL ASB$PIG( SUPER_TO_PIG );

PL6.E3A0      #002=ASL$LIST_OUT File=ASL$EXT.:E05TSI                             TUE 07/29/97 09:59 Page:326
  14695  4 006645   000000 630400 xsym               EPPR0   DSEG1$
         4 006646   000017 631400 xsym               EPPR1   B_VECTNIL+15
         4 006647   000000 701000 xent               TSX1    ASB$PIG
         4 006650   000000 011000                    NOP     0

     1716    14696
     1717    14697    2   IF DO_FLAG (L_JCL) THEN

  14697  4 006651   200003 470500                    LDP0    @DO_FLAG,,AUTO
         4 006652   000000 066500                    CMPB    filb='0'B
         4 006653   000003 670001                    BDSC    3,,PR0                   by=3,bit=7,n=1
         4 006654   000002 000022 xsym               BDSC    B_VECTNIL+2              by=0,bit=0,n=18
         4 006655   006662 600000 4                  TZE     s:14699

     1718    14698    2      CALL ASB$WRITE_LO( AS_BLANK, 1 );

  14698  4 006656   000025 630400 5                  EPPR0   21
         4 006657   000020 631400 xsym               EPPR1   B_VECTNIL+16
         4 006660   000000 701000 xent               TSX1    ASB$WRITE_LO
         4 006661   000000 011000                    NOP     0

     1719    14699    2   END LIST_FACCOUNT;

  14699  4 006662   200176 221300                    LDX1  ! TMP_LEN+1,,AUTO
         4 006663   000001 702211                    TSX2  ! 1,X1

     1720    14700        %EJECT;
PL6.E3A0      #002=ASL$LIST_OUT File=ASL$EXT.:E05TSI                             TUE 07/29/97 09:59 Page:327
     1721    14701    1   BUILD_JCL_FMT: PROC  (START_INDEX, SUBOPTION_MODE );

  14701  4 006664   200200 741300       BUILD_JCL_F* STX1  ! BOG_IDX,,AUTO

     1722    14702    2   DCL START_INDEX            UBIN;
     1723    14703    2   DCL SUBOPTION_MODE         BIT(1);
     1724    14704
     1725    14705    2   DCL BOG_IDX                SBIN;
     1726    14706    2   DCL CNT1                   SBIN;
     1727    14707    2   DCL I                      UBIN;
     1728    14708    2   DCL MACCT                  CHAR(21);
     1729    14709    2   DCL NEXT                   UBIN WORD ;
     1730    14710    2   DCL NEXT_INDEX             UBIN;
     1731    14711    2   DCL SIDX                   SBIN;
     1732    14712    2   DCL YES_NO                 BIT(1) ALIGNED;
     1733    14713
     1734    14714    2   FMT_BUF = ' ';

  14714  4 006665   040000 100400                    MLR     fill='040'O
         4 006666   000035 000001 xsym               ADSC9   B_VECTNIL+29             cn=0,n=1
         4 006667   000000 000377 xsym               ADSC9   FMT_BUF                  cn=0,n=255

     1735    14715    2   FDS.NVECS# = 0;

  14715  4 006670   000011 450000 xsym               STZ     FDS+9

     1736    14716    2   NEXT_INDEX = START_INDEX;

  14716  4 006671   200201 470500                    LDP0    @START_INDEX,,AUTO
         4 006672   000000 235100                    LDA     0,,PR0
         4 006673   200215 755100                    STA     NEXT_INDEX,,AUTO

     1737    14717    2   NEXT = JCL_OPT_TBL.ORDR( NEXT_INDEX ) ;

  14717  4 006674   200215 236100                    LDQ     NEXT_INDEX,,AUTO
         4 006675   000025 402007                    MPY     21,DL
         4 006676   000100 101406                    MRL     fill='000'O
PL6.E3A0      #002=ASL$LIST_OUT File=ASL$EXT.:E05TSI                             TUE 07/29/97 09:59 Page:328
         4 006677   001530 000001 2                  ADSC9   JCL_OPT_TBL+5,Q          cn=0,n=1
         4 006700   200214 000004                    ADSC9   NEXT,,AUTO               cn=0,n=4

     1738    14718    3   DO WHILE NEXT > 0;

  14718  4 006701   200214 235100                    LDA     NEXT,,AUTO
         4 006702   012112 600000 4                  TZE     s:15379

     1739    14719
     1740    14720    3      POSITION = %NO#;

  14720  4 006703   200017 450100                    STZ     POSITION,,AUTO

     1741    14721    3      CALL INDEX (CNT1,'  ',JCL_OPT_TBL.HDR(NEXT));

  14721  4 006704   200214 236100                    LDQ     NEXT,,AUTO
         4 006705   000025 402007                    MPY     21,DL
         4 006706   000000 120406                    SCD
         4 006707   001523 000024 2                  ADSC9   JCL_OPT_TBL,Q            cn=0,n=20
         4 006710   005136 000002 2                  ADSC9   PRIV_TBL+238             cn=0,n=2
         4 006711   200204 000100                    ARG     CNT1,,AUTO
         4 006712   006714 607000 4                  TTF     s:14722
         4 006713   200204 054100                    AOS     CNT1,,AUTO

     1742    14722    4      IF SUBOPTION_MODE THEN DO;

  14722  4 006714   200202 470500                    LDP0    @SUBOPTION_MODE,,AUTO
         4 006715   000000 066500                    CMPB    filb='0'B
         4 006716   000000 000001                    BDSC    0,,PR0                   by=0,bit=0,n=1
         4 006717   000002 000022 xsym               BDSC    B_VECTNIL+2              by=0,bit=0,n=18
         4 006720   006742 600000 4                  TZE     s:14727

     1743    14723    4         CALL CONCAT (FMT_BUF, '   ',SUBSTR (JCL_OPT_TBL.HDR(NEXT),0,CNT1));

  14723  4 006721   005136 236000 2                  LDQ     PRIV_TBL+238
         4 006722   000176 376000 5                  ANQ     126
         4 006723   000040 276007                    ORQ     32,DL
PL6.E3A0      #002=ASL$LIST_OUT File=ASL$EXT.:E05TSI                             TUE 07/29/97 09:59 Page:329
         4 006724   000000 756000 xsym               STQ     FMT_BUF
         4 006725   200214 236100                    LDQ     NEXT,,AUTO
         4 006726   000025 402007                    MPY     21,DL
         4 006727   200204 720100                    LXL0    CNT1,,AUTO
         4 006730   040000 100446                    MLR     fill='040'O
         4 006731   001523 000010 2                  ADSC9   JCL_OPT_TBL,Q            cn=0,n=*X0
         4 006732   000000 600374 xsym               ADSC9   FMT_BUF                  cn=3,n=252

     1744    14724    4         FDS.FMT_.BOUND = CNT1 + 2;

  14724  4 006733   200204 236100                    LDQ     CNT1,,AUTO
         4 006734   000002 036007                    ADLQ    2,DL
         4 006735   000020 736000                    QLS     16
         4 006736   000000 676000 xsym               ERQ     FDS
         4 006737   000034 376000 xsym               ANQ     B_VECTNIL+28
         4 006740   000000 656000 xsym               ERSQ    FDS

     1745    14725    4         END;   /*  Suboption mode  */

  14725  4 006741   006754 710000 4                  TRA     s:14731

     1746    14726    4      ELSE DO;

     1747    14727    4         FMT_BUF = SUBSTR (JCL_OPT_TBL.HDR(NEXT),0,CNT1) ;

  14727  4 006742   200204 720100                    LXL0    CNT1,,AUTO
         4 006743   040000 100446                    MLR     fill='040'O
         4 006744   001523 000010 2                  ADSC9   JCL_OPT_TBL,Q            cn=0,n=*X0
         4 006745   000000 000377 xsym               ADSC9   FMT_BUF                  cn=0,n=255

     1748    14728    4         FDS.FMT_.BOUND = CNT1 - 1;

  14728  4 006746   200204 236100                    LDQ     CNT1,,AUTO
         4 006747   000001 136007                    SBLQ    1,DL
         4 006750   000020 736000                    QLS     16
         4 006751   000000 676000 xsym               ERQ     FDS
         4 006752   000034 376000 xsym               ANQ     B_VECTNIL+28
PL6.E3A0      #002=ASL$LIST_OUT File=ASL$EXT.:E05TSI                             TUE 07/29/97 09:59 Page:330
         4 006753   000000 656000 xsym               ERSQ    FDS

     1749    14729    4         END;   /*  Option mode  */

     1750    14730
     1751    14731    4      DO SELECT(NEXT);

  14731  4 006754   200214 236100                    LDQ     NEXT,,AUTO
         4 006755   000064 116007                    CMPQ    52,DL
         4 006756   007124 602000 4                  TNC     s:14731+104
         4 006757   007503 600000 4                  TZE     s:14776
         4 006760   000125 116007                    CMPQ    85,DL
         4 006761   007050 602000 4                  TNC     s:14731+60
         4 006762   010373 600000 4                  TZE     s:14970
         4 006763   000161 116007                    CMPQ    113,DL
         4 006764   007025 602000 4                  TNC     s:14731+41
         4 006765   011746 600000 4                  TZE     s:15310
         4 006766   000165 116007                    CMPQ    117,DL
         4 006767   007014 602000 4                  TNC     s:14731+32
         4 006770   012004 600000 4                  TZE     s:15336
         4 006771   000174 116007                    CMPQ    124,DL
         4 006772   007003 602000 4                  TNC     s:14731+23
         4 006773   012052 600000 4                  TZE     s:15360
         4 006774   000177 116007                    CMPQ    127,DL
         4 006775   007000 602000 4                  TNC     s:14731+20
         4 006776   011451 600000 4                  TZE     s:15223
         4 006777   012072 710000 4                  TRA     s:15370
         4 007000   000175 116007                    CMPQ    125,DL
         4 007001   012072 601000 4                  TNZ     s:15370
         4 007002   012062 710000 4                  TRA     s:15365
         4 007003   000172 116007                    CMPQ    122,DL
         4 007004   007011 602000 4                  TNC     s:14731+29
         4 007005   012022 600000 4                  TZE     s:15347
         4 007006   000173 116007                    CMPQ    123,DL
         4 007007   012072 601000 4                  TNZ     s:15370
         4 007010   012042 710000 4                  TRA     s:15355
         4 007011   000171 116007                    CMPQ    121,DL
PL6.E3A0      #002=ASL$LIST_OUT File=ASL$EXT.:E05TSI                             TUE 07/29/97 09:59 Page:331
         4 007012   012072 601000 4                  TNZ     s:15370
         4 007013   012012 710000 4                  TRA     s:15341
         4 007014   000163 116007                    CMPQ    115,DL
         4 007015   007022 602000 4                  TNC     s:14731+38
         4 007016   011771 600000 4                  TZE     s:15326
         4 007017   000164 116007                    CMPQ    116,DL
         4 007020   012072 601000 4                  TNZ     s:15370
         4 007021   011776 710000 4                  TRA     s:15331
         4 007022   000162 116007                    CMPQ    114,DL
         4 007023   012072 601000 4                  TNZ     s:15370
         4 007024   011754 710000 4                  TRA     s:15315
         4 007025   000130 116007                    CMPQ    88,DL
         4 007026   007041 602000 4                  TNC     s:14731+53
         4 007027   010365 600000 4                  TZE     s:14965
         4 007030   000132 116007                    CMPQ    90,DL
         4 007031   007036 602000 4                  TNC     s:14731+50
         4 007032   010502 600000 4                  TZE     s:15004
         4 007033   000160 116007                    CMPQ    112,DL
         4 007034   012072 601000 4                  TNZ     s:15370
         4 007035   011740 710000 4                  TRA     s:15305
         4 007036   000131 116007                    CMPQ    89,DL
         4 007037   012072 601000 4                  TNZ     s:15370
         4 007040   010420 710000 4                  TRA     s:14978
         4 007041   000127 116007                    CMPQ    87,DL
         4 007042   007045 602000 4                  TNC     s:14731+57
         4 007043   010451 600000 4                  TZE     s:14991
         4 007044   012072 710000 4                  TRA     s:15370
         4 007045   000126 116007                    CMPQ    86,DL
         4 007046   012072 601000 4                  TNZ     s:15370
         4 007047   010512 710000 4                  TRA     s:15010
         4 007050   000105 116007                    CMPQ    69,DL
         4 007051   007074 602000 4                  TNC     s:14731+80
         4 007052   007444 600000 4                  TZE     s:14760
         4 007053   000123 116007                    CMPQ    83,DL
         4 007054   007061 602000 4                  TNC     s:14731+69
         4 007055   010426 600000 4                  TZE     s:14983
         4 007056   000124 116007                    CMPQ    84,DL
PL6.E3A0      #002=ASL$LIST_OUT File=ASL$EXT.:E05TSI                             TUE 07/29/97 09:59 Page:332
         4 007057   012072 601000 4                  TNZ     s:15370
         4 007060   010474 710000 4                  TRA     s:14999
         4 007061   200214 236100                    LDQ     NEXT,,AUTO
         4 007062   000113 116007                    CMPQ    75,DL
         4 007063   007070 602000 4                  TNC     s:14731+76
         4 007064   010543 600000 4                  TZE     s:15019
         4 007065   000114 116007                    CMPQ    76,DL
         4 007066   012072 601000 4                  TNZ     s:15370
         4 007067   011426 710000 4                  TRA     s:15215
         4 007070   200214 235100                    LDA     NEXT,,AUTO
         4 007071   000106 115007                    CMPA    70,DL
         4 007072   012072 601000 4                  TNZ     s:15370
         4 007073   010710 710000 4                  TRA     s:15055
         4 007074   200214 236100                    LDQ     NEXT,,AUTO
         4 007075   000070 116007                    CMPQ    56,DL
         4 007076   007112 602000 4                  TNC     s:14731+94
         4 007077   007503 600000 4                  TZE     s:14776
         4 007100   000072 116007                    CMPQ    58,DL
         4 007101   007106 602000 4                  TNC     s:14731+90
         4 007102   007503 600000 4                  TZE     s:14776
         4 007103   000073 116007                    CMPQ    59,DL
         4 007104   012072 601000 4                  TNZ     s:15370
         4 007105   007503 710000 4                  TRA     s:14776
         4 007106   200214 235100                    LDA     NEXT,,AUTO
         4 007107   000071 115007                    CMPA    57,DL
         4 007110   012072 601000 4                  TNZ     s:15370
         4 007111   007503 710000 4                  TRA     s:14776
         4 007112   200214 236100                    LDQ     NEXT,,AUTO
         4 007113   000066 116007                    CMPQ    54,DL
         4 007114   007121 602000 4                  TNC     s:14731+101
         4 007115   007503 600000 4                  TZE     s:14776
         4 007116   000067 116007                    CMPQ    55,DL
         4 007117   012072 601000 4                  TNZ     s:15370
         4 007120   007503 710000 4                  TRA     s:14776
         4 007121   000065 116007                    CMPQ    53,DL
         4 007122   012072 601000 4                  TNZ     s:15370
         4 007123   007503 710000 4                  TRA     s:14776
PL6.E3A0      #002=ASL$LIST_OUT File=ASL$EXT.:E05TSI                             TUE 07/29/97 09:59 Page:333
         4 007124   000032 116007                    CMPQ    26,DL
         4 007125   007254 602000 4                  TNC     s:14731+192
         4 007126   007355 600000 4                  TZE     s:14735
         4 007127   000045 116007                    CMPQ    37,DL
         4 007130   007210 602000 4                  TNC     s:14731+156
         4 007131   010064 600000 4                  TZE     s:14873
         4 007132   000053 116007                    CMPQ    43,DL
         4 007133   007165 602000 4                  TNC     s:14731+137
         4 007134   010242 600000 4                  TZE     s:14929
         4 007135   000057 116007                    CMPQ    47,DL
         4 007136   007152 602000 4                  TNC     s:14731+126
         4 007137   007757 600000 4                  TZE     s:14847
         4 007140   000062 116007                    CMPQ    50,DL
         4 007141   007146 602000 4                  TNC     s:14731+122
         4 007142   011515 600000 4                  TZE     s:15239
         4 007143   000063 116007                    CMPQ    51,DL
         4 007144   012072 601000 4                  TNZ     s:15370
         4 007145   007503 710000 4                  TRA     s:14776
         4 007146   200214 235100                    LDA     NEXT,,AUTO
         4 007147   000060 115007                    CMPA    48,DL
         4 007150   012072 601000 4                  TNZ     s:15370
         4 007151   007666 710000 4                  TRA     s:14818
         4 007152   200214 236100                    LDQ     NEXT,,AUTO
         4 007153   000055 116007                    CMPQ    45,DL
         4 007154   007161 602000 4                  TNC     s:14731+133
         4 007155   010265 600000 4                  TZE     s:14938
         4 007156   000056 116007                    CMPQ    46,DL
         4 007157   012072 601000 4                  TNZ     s:15370
         4 007160   011351 710000 4                  TRA     s:15193
         4 007161   200214 235100                    LDA     NEXT,,AUTO
         4 007162   000054 115007                    CMPA    44,DL
         4 007163   012072 601000 4                  TNZ     s:15370
         4 007164   011233 710000 4                  TRA     s:15158
         4 007165   200214 236100                    LDQ     NEXT,,AUTO
         4 007166   000050 116007                    CMPQ    40,DL
         4 007167   007177 602000 4                  TNC     s:14731+147
         4 007170   011142 600000 4                  TZE     s:15131
PL6.E3A0      #002=ASL$LIST_OUT File=ASL$EXT.:E05TSI                             TUE 07/29/97 09:59 Page:334
         4 007171   000051 116007                    CMPQ    41,DL
         4 007172   012072 602000 4                  TNC     s:15370
         4 007173   010174 600000 4                  TZE     s:14911
         4 007174   000052 116007                    CMPQ    42,DL
         4 007175   012072 601000 4                  TNZ     s:15370
         4 007176   011210 710000 4                  TRA     s:15149
         4 007177   200214 236100                    LDQ     NEXT,,AUTO
         4 007200   000047 116007                    CMPQ    39,DL
         4 007201   007204 602000 4                  TNC     s:14731+152
         4 007202   010310 600000 4                  TZE     s:14947
         4 007203   012072 710000 4                  TRA     s:15370
         4 007204   200214 235100                    LDA     NEXT,,AUTO
         4 007205   000046 115007                    CMPA    38,DL
         4 007206   012072 601000 4                  TNZ     s:15370
         4 007207   011256 710000 4                  TRA     s:15167
         4 007210   200214 236100                    LDQ     NEXT,,AUTO
         4 007211   000041 116007                    CMPQ    33,DL
         4 007212   007226 602000 4                  TNC     s:14731+170
         4 007213   010126 600000 4                  TZE     s:14893
         4 007214   000043 116007                    CMPQ    35,DL
         4 007215   007222 602000 4                  TNC     s:14731+166
         4 007216   010217 600000 4                  TZE     s:14920
         4 007217   000044 116007                    CMPQ    36,DL
         4 007220   012072 601000 4                  TNZ     s:15370
         4 007221   011051 710000 4                  TRA     s:15104
         4 007222   200214 235100                    LDA     NEXT,,AUTO
         4 007223   000042 115007                    CMPA    34,DL
         4 007224   012072 601000 4                  TNZ     s:15370
         4 007225   011165 710000 4                  TRA     s:15140
         4 007226   200214 236100                    LDQ     NEXT,,AUTO
         4 007227   000035 116007                    CMPQ    29,DL
         4 007230   007244 602000 4                  TNC     s:14731+184
         4 007231   010151 600000 4                  TZE     s:14902
         4 007232   000037 116007                    CMPQ    31,DL
         4 007233   007240 602000 4                  TNC     s:14731+180
         4 007234   010333 600000 4                  TZE     s:14956
         4 007235   000040 116007                    CMPQ    32,DL
PL6.E3A0      #002=ASL$LIST_OUT File=ASL$EXT.:E05TSI                             TUE 07/29/97 09:59 Page:335
         4 007236   012072 601000 4                  TNZ     s:15370
         4 007237   011074 710000 4                  TRA     s:15113
         4 007240   200214 235100                    LDA     NEXT,,AUTO
         4 007241   000036 115007                    CMPA    30,DL
         4 007242   012072 601000 4                  TNZ     s:15370
         4 007243   011301 710000 4                  TRA     s:15176
         4 007244   200214 236100                    LDQ     NEXT,,AUTO
         4 007245   000034 116007                    CMPQ    28,DL
         4 007246   007251 602000 4                  TNC     s:14731+189
         4 007247   011117 600000 4                  TZE     s:15122
         4 007250   012072 710000 4                  TRA     s:15370
         4 007251   000033 116007                    CMPQ    27,DL
         4 007252   012072 601000 4                  TNZ     s:15370
         4 007253   011540 710000 4                  TRA     s:15247
         4 007254   000022 116007                    CMPQ    18,DL
         4 007255   007307 602000 4                  TNC     s:14731+219
         4 007256   007735 600000 4                  TZE     s:14839
         4 007257   000026 116007                    CMPQ    22,DL
         4 007260   007274 602000 4                  TNC     s:14731+208
         4 007261   007714 600000 4                  TZE     s:14830
         4 007262   000030 116007                    CMPQ    24,DL
         4 007263   007270 602000 4                  TNC     s:14731+204
         4 007264   010647 600000 4                  TZE     s:15046
         4 007265   000031 116007                    CMPQ    25,DL
         4 007266   012072 601000 4                  TNZ     s:15370
         4 007267   011651 710000 4                  TRA     s:15274
         4 007270   200214 235100                    LDA     NEXT,,AUTO
         4 007271   000027 115007                    CMPA    23,DL
         4 007272   012072 601000 4                  TNZ     s:15370
         4 007273   010023 710000 4                  TRA     s:14863
         4 007274   200214 236100                    LDQ     NEXT,,AUTO
         4 007275   000024 116007                    CMPQ    20,DL
         4 007276   007303 602000 4                  TNC     s:14731+215
         4 007277   010625 600000 4                  TZE     s:15038
         4 007300   000025 116007                    CMPQ    21,DL
         4 007301   012072 601000 4                  TNZ     s:15370
         4 007302   011404 710000 4                  TRA     s:15207
PL6.E3A0      #002=ASL$LIST_OUT File=ASL$EXT.:E05TSI                             TUE 07/29/97 09:59 Page:336
         4 007303   200214 235100                    LDA     NEXT,,AUTO
         4 007304   000023 115007                    CMPA    19,DL
         4 007305   012072 601000 4                  TNZ     s:15370
         4 007306   010001 710000 4                  TRA     s:14855
         4 007307   200214 236100                    LDQ     NEXT,,AUTO
         4 007310   000016 116007                    CMPQ    14,DL
         4 007311   007325 602000 4                  TNC     s:14731+233
         4 007312   010107 600000 4                  TZE     s:14881
         4 007313   000020 116007                    CMPQ    16,DL
         4 007314   007321 602000 4                  TNC     s:14731+229
         4 007315   007476 600000 4                  TZE     s:14770
         4 007316   000021 116007                    CMPQ    17,DL
         4 007317   012072 601000 4                  TNZ     s:15370
         4 007320   010732 710000 4                  TRA     s:15063
         4 007321   200214 235100                    LDA     NEXT,,AUTO
         4 007322   000017 115007                    CMPA    15,DL
         4 007323   012072 601000 4                  TNZ     s:15370
         4 007324   011015 710000 4                  TRA     s:15081
         4 007325   200214 236100                    LDQ     NEXT,,AUTO
         4 007326   000012 116007                    CMPQ    10,DL
         4 007327   007343 602000 4                  TNC     s:14731+247
         4 007330   011474 600000 4                  TZE     s:15231
         4 007331   000014 116007                    CMPQ    12,DL
         4 007332   007337 602000 4                  TNC     s:14731+243
         4 007333   011715 600000 4                  TZE     s:15290
         4 007334   000015 116007                    CMPQ    13,DL
         4 007335   012072 601000 4                  TNZ     s:15370
         4 007336   011032 710000 4                  TRA     s:15092
         4 007337   200214 235100                    LDA     NEXT,,AUTO
         4 007340   000013 115007                    CMPA    11,DL
         4 007341   012072 601000 4                  TNZ     s:15370
         4 007342   011673 710000 4                  TRA     s:15282
         4 007343   200214 236100                    LDQ     NEXT,,AUTO
         4 007344   000010 116007                    CMPQ    8,DL
         4 007345   007352 602000 4                  TNC     s:14731+254
         4 007346   011333 600000 4                  TZE     s:15185
         4 007347   000011 116007                    CMPQ    9,DL
PL6.E3A0      #002=ASL$LIST_OUT File=ASL$EXT.:E05TSI                             TUE 07/29/97 09:59 Page:337
         4 007350   012072 601000 4                  TNZ     s:15370
         4 007351   011357 710000 4                  TRA     s:15198
         4 007352   000007 116007                    CMPQ    7,DL
         4 007353   012072 601000 4                  TNZ     s:15370
         4 007354   010603 710000 4                  TRA     s:15030

     1752    14732
     1753    14733    4         SELECT(L_ACCESS);
             14733                  /* Access mode=yesno,mode=yesno,mode=yesno,mode=yesno,mode=yesno  */

     1754    14734
     1755    14735    4         IF KL_DREC.FLAGS.BATOK THEN

  14735  4 007355   000000 236000 xsym               LDQ     KL_DREC
         4 007356   000040 316003                    CANQ    32,DU
         4 007357   007364 600000 4                  TZE     s:14738

     1756    14736    4            FMT_VEC ( 1 ) = VECTOR ( YES_STR );

  14736  4 007360   000102 237000 5                  LDAQ    66
         4 007361   000002 755000 xsym               STA     FMT_VEC+2
         4 007362   000003 756000 xsym               STQ     FMT_VEC+3
         4 007363   007367 710000 4                  TRA     s:14739

     1757    14737    4         ELSE
     1758    14738    4            FMT_VEC ( 1 ) = VECTOR ( NO_STR );

  14738  4 007364   000104 237000 5                  LDAQ    68
         4 007365   000002 755000 xsym               STA     FMT_VEC+2
         4 007366   000003 756000 xsym               STQ     FMT_VEC+3

     1759    14739    4         IF KL_DREC.FLAGS.GHOSTOK THEN

  14739  4 007367   000000 236000 xsym               LDQ     KL_DREC
         4 007370   000200 316003                    CANQ    128,DU
         4 007371   007376 600000 4                  TZE     s:14742

PL6.E3A0      #002=ASL$LIST_OUT File=ASL$EXT.:E05TSI                             TUE 07/29/97 09:59 Page:338
     1760    14740    4            FMT_VEC ( 3 ) = VECTOR ( YES_STR );

  14740  4 007372   000102 237000 5                  LDAQ    66
         4 007373   000006 755000 xsym               STA     FMT_VEC+6
         4 007374   000007 756000 xsym               STQ     FMT_VEC+7
         4 007375   007401 710000 4                  TRA     s:14743

     1761    14741    4         ELSE
     1762    14742    4            FMT_VEC ( 3 ) = VECTOR ( NO_STR );

  14742  4 007376   000104 237000 5                  LDAQ    68
         4 007377   000006 755000 xsym               STA     FMT_VEC+6
         4 007400   000007 756000 xsym               STQ     FMT_VEC+7

     1763    14743    4         IF KL_DREC.FLAGS.OLOK THEN

  14743  4 007401   000000 236000 xsym               LDQ     KL_DREC
         4 007402   000100 316003                    CANQ    64,DU
         4 007403   007410 600000 4                  TZE     s:14746

     1764    14744    4            FMT_VEC ( 5 ) = VECTOR ( YES_STR );

  14744  4 007404   000102 237000 5                  LDAQ    66
         4 007405   000012 755000 xsym               STA     FMT_VEC+10
         4 007406   000013 756000 xsym               STQ     FMT_VEC+11
         4 007407   007413 710000 4                  TRA     s:14747

     1765    14745    4         ELSE
     1766    14746    4            FMT_VEC ( 5 ) = VECTOR ( NO_STR );

  14746  4 007410   000104 237000 5                  LDAQ    68
         4 007411   000012 755000 xsym               STA     FMT_VEC+10
         4 007412   000013 756000 xsym               STQ     FMT_VEC+11

     1767    14747    4         IF KL_DREC.FLAGS.TPOK THEN

  14747  4 007413   000000 236000 xsym               LDQ     KL_DREC
PL6.E3A0      #002=ASL$LIST_OUT File=ASL$EXT.:E05TSI                             TUE 07/29/97 09:59 Page:339
         4 007414   000001 316003                    CANQ    1,DU
         4 007415   007422 600000 4                  TZE     s:14750

     1768    14748    4            FMT_VEC ( 7 ) = VECTOR ( YES_STR );

  14748  4 007416   000102 237000 5                  LDAQ    66
         4 007417   000016 755000 xsym               STA     FMT_VEC+14
         4 007420   000017 756000 xsym               STQ     FMT_VEC+15
         4 007421   007425 710000 4                  TRA     s:14751

     1769    14749    4         ELSE
     1770    14750    4            FMT_VEC ( 7 ) = VECTOR ( NO_STR );

  14750  4 007422   000104 237000 5                  LDAQ    68
         4 007423   000016 755000 xsym               STA     FMT_VEC+14
         4 007424   000017 756000 xsym               STQ     FMT_VEC+15

     1771    14751    4         IF KL_DREC.FLAGS.FEOK THEN

  14751  4 007425   000000 236000 xsym               LDQ     KL_DREC
         4 007426   400000 316007                    CANQ    -131072,DL
         4 007427   007434 600000 4                  TZE     s:14754

     1772    14752    4            FMT_VEC ( 9 ) = VECTOR ( YES_STR );

  14752  4 007430   000102 237000 5                  LDAQ    66
         4 007431   000022 755000 xsym               STA     FMT_VEC+18
         4 007432   000023 756000 xsym               STQ     FMT_VEC+19
         4 007433   007437 710000 4                  TRA     s:14755

     1773    14753    4         ELSE
     1774    14754    4            FMT_VEC ( 9 ) = VECTOR ( NO_STR );

  14754  4 007434   000104 237000 5                  LDAQ    68
         4 007435   000022 755000 xsym               STA     FMT_VEC+18
         4 007436   000023 756000 xsym               STQ     FMT_VEC+19

PL6.E3A0      #002=ASL$LIST_OUT File=ASL$EXT.:E05TSI                             TUE 07/29/97 09:59 Page:340
     1775    14755    4         CLASS = C_MODE_TEXT;

  14755  4 007437   000005 235007                    LDA     5,DL
         4 007440   200005 755100                    STA     CLASS,,AUTO

     1776    14756    4         FDS.NVECS# = 10;

  14756  4 007441   000012 236007                    LDQ     10,DL
         4 007442   000011 756000 xsym               STQ     FDS+9
         4 007443   012074 710000 4                  TRA     s:15373

     1777    14757
     1778    14758    4         SELECT (L_ACCOUNT_OWNER); /*  ACCOUNT_OWNER = text  */

     1779    14759
     1780    14760    4         IF AS_USERS.BANNER (0) = -1 THEN

  14760  4 007444   000354 220000 xsym               LDX0    AS_USERS+236
         4 007445   777777 100003                    CMPX0   -1,DU
         4 007446   007453 601000 4                  TNZ     s:14763

     1781    14761    4            FMT_VEC ( 0 ) = VECTOR(BL_STR) ;

  14761  4 007447   000066 237000 5                  LDAQ    54
         4 007450   000000 755000 xsym               STA     FMT_VEC
         4 007451   000001 756000 xsym               STQ     FMT_VEC+1
         4 007452   007473 710000 4                  TRA     s:14766

     1782    14762    5         ELSE DO ;

     1783    14763    5            SIDX = AS_USERS.BANNER (0) ;

  14763  4 007453   000354 235000 xsym               LDA     AS_USERS+236
         4 007454   000022 731000                    ARS     18
         4 007455   200216 755100                    STA     SIDX,,AUTO

     1784    14764    5           FMT_VEC ( 0 ) = VECTOR(ADDR(AS_USERS.SETUP_CHRA.TXT_UBIN(SIDX))->TEXT$C.C);
PL6.E3A0      #002=ASL$LIST_OUT File=ASL$EXT.:E05TSI                             TUE 07/29/97 09:59 Page:341

  14764  4 007456   000100 101405                    MRL     fill='000'O
         4 007457   000362 000001 xsym               ADSC9   AS_USERS+242,A           cn=0,n=1
         4 007460   200224 000002                    ADSC9   I+2,,AUTO                cn=0,n=2
         4 007461   200224 220100                    LDX0    I+2,,AUTO
         4 007462   000000 636010                    EAQ     0,X0
         4 007463   000022 772000                    QRL     18
         4 007464   000064 737000                    LLS     52
         4 007465   000140 135007                    SBLA    96,DL
         4 007466   200216 236100                    LDQ     SIDX,,AUTO
         4 007467   000020 736000                    QLS     16
         4 007470   000070 036000 5                  ADLQ    56
         4 007471   000000 755000 xsym               STA     FMT_VEC
         4 007472   000001 756000 xsym               STQ     FMT_VEC+1

     1785    14765    5            END ;

     1786    14766    4         CLASS = C_TEXT;

  14766  4 007473   000001 235007                    LDA     1,DL
         4 007474   200005 755100                    STA     CLASS,,AUTO
         4 007475   012074 710000 4                  TRA     s:15373

     1787    14767
     1788    14768    4         SELECT(L_ACCUM); /*  Acharges = dddddd.dd  budget suboption  */

     1789    14769
     1790    14770    4         SVAL = AS_USERS.BUDGET.ACCUM;

  14770  4 007476   000007 235000 xsym               LDA     AS_USERS+7
         4 007477   200165 755100                    STA     SVAL,,AUTO

     1791    14771    4         CLASS = C_MONEY;

  14771  4 007500   000004 236007                    LDQ     4,DL
         4 007501   200005 756100                    STQ     CLASS,,AUTO
         4 007502   012074 710000 4                  TRA     s:15373
PL6.E3A0      #002=ASL$LIST_OUT File=ASL$EXT.:E05TSI                             TUE 07/29/97 09:59 Page:342

     1792    14772
     1793    14773    4         SELECT (L_BANNER1, L_BANNER2, L_BANNER3, L_BANNER4, L_BANNER5,

     1794    14774    4              L_BANNER6, L_BANNER7, L_BANNER8, L_BANNER9);
     1795    14775
     1796    14776    5         DO SELECT (NEXT);

  14776  4 007503   200214 236100                    LDQ     NEXT,,AUTO
         4 007504   000066 116007                    CMPQ    54,DL
         4 007505   007530 602000 4                  TNC     s:14776+21
         4 007506   007553 600000 4                  TZE     s:14784
         4 007507   000070 116007                    CMPQ    56,DL
         4 007510   007524 602000 4                  TNC     s:14776+17
         4 007511   007561 600000 4                  TZE     s:14788
         4 007512   000072 116007                    CMPQ    58,DL
         4 007513   007520 602000 4                  TNC     s:14776+13
         4 007514   007567 600000 4                  TZE     s:14792
         4 007515   000073 116007                    CMPQ    59,DL
         4 007516   007574 601000 4                  TNZ     s:14796
         4 007517   007572 710000 4                  TRA     s:14794
         4 007520   200214 235100                    LDA     NEXT,,AUTO
         4 007521   000071 115007                    CMPA    57,DL
         4 007522   007574 601000 4                  TNZ     s:14796
         4 007523   007564 710000 4                  TRA     s:14790
         4 007524   200214 235100                    LDA     NEXT,,AUTO
         4 007525   000067 115007                    CMPA    55,DL
         4 007526   007574 601000 4                  TNZ     s:14796
         4 007527   007556 710000 4                  TRA     s:14786
         4 007530   200214 236100                    LDQ     NEXT,,AUTO
         4 007531   000064 116007                    CMPQ    52,DL
         4 007532   007537 602000 4                  TNC     s:14776+28
         4 007533   007545 600000 4                  TZE     s:14780
         4 007534   000065 116007                    CMPQ    53,DL
         4 007535   007574 601000 4                  TNZ     s:14796
         4 007536   007550 710000 4                  TRA     s:14782
         4 007537   000063 116007                    CMPQ    51,DL
PL6.E3A0      #002=ASL$LIST_OUT File=ASL$EXT.:E05TSI                             TUE 07/29/97 09:59 Page:343
         4 007540   007574 601000 4                  TNZ     s:14796
         4 007541   007542 710000 4                  TRA     s:14778

     1797    14777    5            SELECT (L_BANNER1);

     1798    14778    5            I = 1;

  14778  4 007542   000001 235007                    LDA     1,DL
         4 007543   200205 755100                    STA     I,,AUTO
         4 007544   007574 710000 4                  TRA     s:14796

     1799    14779    5            SELECT (L_BANNER2);

     1800    14780    5            I = 2;

  14780  4 007545   000002 235007                    LDA     2,DL
         4 007546   200205 755100                    STA     I,,AUTO
         4 007547   007574 710000 4                  TRA     s:14796

     1801    14781    5            SELECT (L_BANNER3);

     1802    14782    5            I = 3;

  14782  4 007550   000003 235007                    LDA     3,DL
         4 007551   200205 755100                    STA     I,,AUTO
         4 007552   007574 710000 4                  TRA     s:14796

     1803    14783    5            SELECT (L_BANNER4);

     1804    14784    5            I = 4;

  14784  4 007553   000004 235007                    LDA     4,DL
         4 007554   200205 755100                    STA     I,,AUTO
         4 007555   007574 710000 4                  TRA     s:14796

     1805    14785    5            SELECT (L_BANNER5);

PL6.E3A0      #002=ASL$LIST_OUT File=ASL$EXT.:E05TSI                             TUE 07/29/97 09:59 Page:344
     1806    14786    5            I = 5;

  14786  4 007556   000005 235007                    LDA     5,DL
         4 007557   200205 755100                    STA     I,,AUTO
         4 007560   007574 710000 4                  TRA     s:14796

     1807    14787    5            SELECT (L_BANNER6);

     1808    14788    5            I = 6;

  14788  4 007561   000006 235007                    LDA     6,DL
         4 007562   200205 755100                    STA     I,,AUTO
         4 007563   007574 710000 4                  TRA     s:14796

     1809    14789    5            SELECT (L_BANNER7);

     1810    14790    5            I = 7;

  14790  4 007564   000007 235007                    LDA     7,DL
         4 007565   200205 755100                    STA     I,,AUTO
         4 007566   007574 710000 4                  TRA     s:14796

     1811    14791    5            SELECT (L_BANNER8);

     1812    14792    5            I = 8;

  14792  4 007567   000010 235007                    LDA     8,DL
         4 007570   200205 755100                    STA     I,,AUTO
         4 007571   007574 710000 4                  TRA     s:14796

     1813    14793    5            SELECT (L_BANNER9);

     1814    14794    5            I = 9;

  14794  4 007572   000011 235007                    LDA     9,DL
         4 007573   200205 755100                    STA     I,,AUTO

PL6.E3A0      #002=ASL$LIST_OUT File=ASL$EXT.:E05TSI                             TUE 07/29/97 09:59 Page:345
     1815    14795    5            END; /* Of case */

     1816    14796    4         SUBSTR (FMT_BUF, FDS.FMT_.BOUND+1, SIZEC(BANNER_FMT)) = BANNER_FMT;

  14796  4 007574   000000 236000 xsym               LDQ     FDS
         4 007575   000020 772000                    QRL     16
         4 007576   040006 100400                    MLR     fill='040'O
         4 007577   003115 000013 2                  ADSC9   BANNER_FMT               cn=0,n=11
         4 007600   000000 200013 xsym               ADSC9   FMT_BUF,Q                cn=1,n=11

     1817    14797    4         FDS.FMT_.BOUND = FDS.FMT_.BOUND + SIZEC(BANNER_FMT);

  14797  4 007601   000013 036007                    ADLQ    11,DL
         4 007602   000020 736000                    QLS     16
         4 007603   000000 676000 xsym               ERQ     FDS
         4 007604   000034 376000 xsym               ANQ     B_VECTNIL+28
         4 007605   000000 656000 xsym               ERSQ    FDS

     1818    14798    4         CLASS = 0;

  14798  4 007606   200005 450100                    STZ     CLASS,,AUTO

     1819    14799    4         FDS.NVECS# = 2;

  14799  4 007607   000002 235007                    LDA     2,DL
         4 007610   000011 755000 xsym               STA     FDS+9

     1820    14800
     1821    14801    4         IF AS_USERS.BANNER (I) = -1 THEN

  14801  4 007611   200205 236100                    LDQ     I,,AUTO
         4 007612   000001 736000                    QLS     1
         4 007613   000100 100406                    MLR     fill='000'O
         4 007614   000354 000002 xsym               ADSC9   AS_USERS+236,Q           cn=0,n=2
         4 007615   200224 000004                    ADSC9   I+2,,AUTO                cn=0,n=4
         4 007616   200224 236100                    LDQ     I+2,,AUTO
         4 007617   000022 732000                    QRS     18
PL6.E3A0      #002=ASL$LIST_OUT File=ASL$EXT.:E05TSI                             TUE 07/29/97 09:59 Page:346
         4 007620   000027 116000 xsym               CMPQ    B_VECTNIL+23
         4 007621   007626 601000 4                  TNZ     s:14804

     1822    14802    4            FMT_VEC ( 0 ) = VECTOR(BL_STR) ;

  14802  4 007622   000066 237000 5                  LDAQ    54
         4 007623   000000 755000 xsym               STA     FMT_VEC
         4 007624   000001 756000 xsym               STQ     FMT_VEC+1
         4 007625   007651 710000 4                  TRA     s:14811

     1823    14803    5         ELSE DO ;

     1824    14804    5            SIDX = AS_USERS.BANNER (I) ;

  14804  4 007626   200205 236100                    LDQ     I,,AUTO
         4 007627   000001 736000                    QLS     1
         4 007630   000100 100406                    MLR     fill='000'O
         4 007631   000354 000002 xsym               ADSC9   AS_USERS+236,Q           cn=0,n=2
         4 007632   200224 000004                    ADSC9   I+2,,AUTO                cn=0,n=4
         4 007633   200224 236100                    LDQ     I+2,,AUTO
         4 007634   000022 732000                    QRS     18
         4 007635   200216 756100                    STQ     SIDX,,AUTO

     1825    14805    5           FMT_VEC ( 0 ) = VECTOR(ADDR(AS_USERS.SETUP_CHRA.TXT_UBIN(SIDX))->TEXT$C.C);

  14805  4 007636   000100 101406                    MRL     fill='000'O
         4 007637   000362 000001 xsym               ADSC9   AS_USERS+242,Q           cn=0,n=1
         4 007640   200224 000002                    ADSC9   I+2,,AUTO                cn=0,n=2
         4 007641   200224 220100                    LDX0    I+2,,AUTO
         4 007642   000000 635010                    EAA     0,X0
         4 007643   000002 771000                    ARL     2
         4 007644   000140 135007                    SBLA    96,DL
         4 007645   000020 736000                    QLS     16
         4 007646   000070 036000 5                  ADLQ    56
         4 007647   000000 755000 xsym               STA     FMT_VEC
         4 007650   000001 756000 xsym               STQ     FMT_VEC+1

PL6.E3A0      #002=ASL$LIST_OUT File=ASL$EXT.:E05TSI                             TUE 07/29/97 09:59 Page:347
     1826    14806    5            END ;

     1827    14807                      /* The banner perm field is the alterable command, when
     1828    14808                         the field is alterable, the bit is '0'b.  The value
     1829    14809                         placed into the YES_NO val is therefore inverted so
     1830    14810                         output says yes for alterable.      */
     1831    14811    4         IF AS_USERS.BANNER_PERM (I) THEN

  14811  4 007651   200205 235100                    LDA     I,,AUTO
         4 007652   000000 066405                    CMPB    filb='0'B
         4 007653   000351 440001 xsym               BDSC    AS_USERS+233,A           by=2,bit=4,n=1
         4 007654   000002 000022 xsym               BDSC    B_VECTNIL+2              by=0,bit=0,n=18
         4 007655   007662 600000 4                  TZE     s:14814

     1832    14812    4            FMT_VEC (1) = VECTOR (UNALTERABLE_STR);

  14812  4 007656   000200 237000 5                  LDAQ    128
         4 007657   000002 755000 xsym               STA     FMT_VEC+2
         4 007660   000003 756000 xsym               STQ     FMT_VEC+3
         4 007661   012074 710000 4                  TRA     s:15373

     1833    14813    4         ELSE
     1834    14814    4            FMT_VEC (1) = VECTOR (ALTERABLE_STR);

  14814  4 007662   000202 237000 5                  LDAQ    130
         4 007663   000002 755000 xsym               STA     FMT_VEC+2
         4 007664   000003 756000 xsym               STQ     FMT_VEC+3
         4 007665   012074 710000 4                  TRA     s:15373

     1835    14815
     1836    14816    4         SELECT(L_BATNUM) ; /*  Batnum = {none | value}  */

     1837    14817
     1838    14818    5         IF AS_USERS.BATNUM = -1 THEN DO;

  14818  4 007666   000005 720000 xsym               LXL0    AS_USERS+5
         4 007667   777777 100003                    CMPX0   -1,DU
PL6.E3A0      #002=ASL$LIST_OUT File=ASL$EXT.:E05TSI                             TUE 07/29/97 09:59 Page:348
         4 007670   007677 601000 4                  TNZ     s:14823

     1839    14819    5            CLASS = C_TEXT;

  14819  4 007671   000001 235007                    LDA     1,DL
         4 007672   200005 755100                    STA     CLASS,,AUTO

     1840    14820    5            FMT_VEC ( 0 ) = VECTOR ( NONE_STR );

  14820  4 007673   000056 237000 5                  LDAQ    46
         4 007674   000000 755000 xsym               STA     FMT_VEC
         4 007675   000001 756000 xsym               STQ     FMT_VEC+1

     1841    14821    5            END; /*  No limit on batnum  */

  14821  4 007676   012074 710000 4                  TRA     s:15373

     1842    14822    5         ELSE DO;

     1843    14823    5            SBINS ( 0 ) = AS_USERS.BATNUM ;

  14823  4 007677   000005 236000 xsym               LDQ     AS_USERS+5
         4 007700   000022 736000                    QLS     18
         4 007701   000022 732000                    QRS     18
         4 007702   200020 756100                    STQ     SBINS,,AUTO

     1844    14824    5            FMT_VEC ( 0 ) = VECTOR ( SBINS (0) ) ;

  14824  4 007703   777640 235007                    LDA     -96,DL
         4 007704   200224 452500                    STP2    I+2,,AUTO
         4 007705   200224 236100                    LDQ     I+2,,AUTO
         4 007706   000020 036003                    ADLQ    16,DU
         4 007707   000000 755000 xsym               STA     FMT_VEC
         4 007710   000001 756000 xsym               STQ     FMT_VEC+1

     1845    14825    5            CLASS = C_SBIN ;

PL6.E3A0      #002=ASL$LIST_OUT File=ASL$EXT.:E05TSI                             TUE 07/29/97 09:59 Page:349
  14825  4 007711   000014 235007                    LDA     12,DL
         4 007712   200005 755100                    STA     CLASS,,AUTO

     1846    14826    5            END; /*  A limit on batnum  */

  14826  4 007713   012074 710000 4                  TRA     s:15373

     1847    14827
     1848    14828    4         SELECT(L_BILLING); /*  Billing mode=text,mode=text,mode=text,mode=text  */

     1849    14829
     1850    14830    4         FMT_VEC ( 1 ) = VECTOR ( AS_USERS.BILL ( 0 ));

  14830  4 007714   000204 237000 5                  LDAQ    132
         4 007715   000002 755000 xsym               STA     FMT_VEC+2
         4 007716   000003 756000 xsym               STQ     FMT_VEC+3

     1851    14831    4         FMT_VEC ( 3 ) = VECTOR ( AS_USERS.BILL ( 1 ));

  14831  4 007717   000206 237000 5                  LDAQ    134
         4 007720   000006 755000 xsym               STA     FMT_VEC+6
         4 007721   000007 756000 xsym               STQ     FMT_VEC+7

     1852    14832    4         FMT_VEC ( 5 ) = VECTOR ( AS_USERS.BILL ( 2 ));

  14832  4 007722   000210 237000 5                  LDAQ    136
         4 007723   000012 755000 xsym               STA     FMT_VEC+10
         4 007724   000013 756000 xsym               STQ     FMT_VEC+11

     1853    14833    4         FMT_VEC ( 7 ) = VECTOR ( AS_USERS.BILL ( 3 ));

  14833  4 007725   000212 237000 5                  LDAQ    138
         4 007726   000016 755000 xsym               STA     FMT_VEC+14
         4 007727   000017 756000 xsym               STQ     FMT_VEC+15

     1854    14834    4         FDS.NVECS# = 8;

PL6.E3A0      #002=ASL$LIST_OUT File=ASL$EXT.:E05TSI                             TUE 07/29/97 09:59 Page:350
  14834  4 007730   000010 235007                    LDA     8,DL
         4 007731   000011 755000 xsym               STA     FDS+9

     1855    14835    4         CLASS = C_MODE_TEXT;

  14835  4 007732   000005 235007                    LDA     5,DL
         4 007733   200005 755100                    STA     CLASS,,AUTO
         4 007734   012074 710000 4                  TRA     s:15373

     1856    14836
     1857    14837    4         SELECT(L_BKACC); /*  Bkaccess = { yes | no }  budget suboption  */

     1858    14838
     1859    14839    4         SUBSTR (FMT_BUF, FDS.FMT_.BOUND+1, 9) = '%1.9.1.0P';

  14839  4 007735   000000 236000 xsym               LDQ     FDS
         4 007736   000020 772000                    QRL     16
         4 007737   040006 100400                    MLR     fill='040'O
         4 007740   005163 000011 2                  ADSC9   PRIV_TBL+259             cn=0,n=9
         4 007741   000000 200011 xsym               ADSC9   FMT_BUF,Q                cn=1,n=9

     1860    14840    4         FDS.FMT_.BOUND = FDS.FMT_.BOUND + 9;

  14840  4 007742   000011 036007                    ADLQ    9,DL
         4 007743   000020 736000                    QLS     16
         4 007744   000000 676000 xsym               ERQ     FDS
         4 007745   000034 376000 xsym               ANQ     B_VECTNIL+28
         4 007746   000000 656000 xsym               ERSQ    FDS

     1861    14841    4         FMT_VEC ( 0 ) = VECTOR ( AS_USERS.BUDGET );

  14841  4 007747   000214 237000 5                  LDAQ    140
         4 007750   000000 755000 xsym               STA     FMT_VEC
         4 007751   000001 756000 xsym               STQ     FMT_VEC+1

     1862    14842    4         CLASS = C_YESNO;

PL6.E3A0      #002=ASL$LIST_OUT File=ASL$EXT.:E05TSI                             TUE 07/29/97 09:59 Page:351
  14842  4 007752   000002 235007                    LDA     2,DL
         4 007753   200005 755100                    STA     CLASS,,AUTO

     1863    14843    4         POSITION = %YES#;

  14843  4 007754   400000 236003                    LDQ     -131072,DU
         4 007755   200017 756100                    STQ     POSITION,,AUTO
         4 007756   012074 710000 4                  TRA     s:15373

     1864    14844
     1865    14845    4         SELECT(L_BLINDACCTNG); /* Blindacctng = { yes | no } budget suboption */

     1866    14846
     1867    14847    4         SUBSTR (FMT_BUF, FDS.FMT_.BOUND+1, 9) = '%1.9.1.4P';

  14847  4 007757   000000 236000 xsym               LDQ     FDS
         4 007760   000020 772000                    QRL     16
         4 007761   040006 100400                    MLR     fill='040'O
         4 007762   005166 000011 2                  ADSC9   PRIV_TBL+262             cn=0,n=9
         4 007763   000000 200011 xsym               ADSC9   FMT_BUF,Q                cn=1,n=9

     1868    14848    4         FDS.FMT_.BOUND = FDS.FMT_.BOUND + 9;

  14848  4 007764   000011 036007                    ADLQ    9,DL
         4 007765   000020 736000                    QLS     16
         4 007766   000000 676000 xsym               ERQ     FDS
         4 007767   000034 376000 xsym               ANQ     B_VECTNIL+28
         4 007770   000000 656000 xsym               ERSQ    FDS

     1869    14849    4         FMT_VEC ( 0 ) = VECTOR ( AS_USERS.BUDGET );

  14849  4 007771   000214 237000 5                  LDAQ    140
         4 007772   000000 755000 xsym               STA     FMT_VEC
         4 007773   000001 756000 xsym               STQ     FMT_VEC+1

     1870    14850    4         POSITION = %YES#;

PL6.E3A0      #002=ASL$LIST_OUT File=ASL$EXT.:E05TSI                             TUE 07/29/97 09:59 Page:352
  14850  4 007774   400000 236003                    LDQ     -131072,DU
         4 007775   200017 756100                    STQ     POSITION,,AUTO

     1871    14851    4         CLASS = C_YESNO;

  14851  4 007776   000002 235007                    LDA     2,DL
         4 007777   200005 755100                    STA     CLASS,,AUTO
         4 010000   012074 710000 4                  TRA     s:15373

     1872    14852
     1873    14853    4         SELECT(L_BUDLIM); /*  Budlim = { yes | no }  budget suboption  */

     1874    14854
     1875    14855    4         SUBSTR (FMT_BUF, FDS.FMT_.BOUND+1, 9 ) = '%1.9.1.1P';

  14855  4 010001   000000 236000 xsym               LDQ     FDS
         4 010002   000020 772000                    QRL     16
         4 010003   040006 100400                    MLR     fill='040'O
         4 010004   005171 000011 2                  ADSC9   PRIV_TBL+265             cn=0,n=9
         4 010005   000000 200011 xsym               ADSC9   FMT_BUF,Q                cn=1,n=9

     1876    14856    4         FDS.FMT_.BOUND = FDS.FMT_.BOUND + 9;

  14856  4 010006   000011 036007                    ADLQ    9,DL
         4 010007   000020 736000                    QLS     16
         4 010010   000000 676000 xsym               ERQ     FDS
         4 010011   000034 376000 xsym               ANQ     B_VECTNIL+28
         4 010012   000000 656000 xsym               ERSQ    FDS

     1877    14857    4         FMT_VEC ( 0 ) = VECTOR ( AS_USERS.BUDGET );

  14857  4 010013   000214 237000 5                  LDAQ    140
         4 010014   000000 755000 xsym               STA     FMT_VEC
         4 010015   000001 756000 xsym               STQ     FMT_VEC+1

     1878    14858    4         CLASS = C_YESNO;

PL6.E3A0      #002=ASL$LIST_OUT File=ASL$EXT.:E05TSI                             TUE 07/29/97 09:59 Page:353
  14858  4 010016   000002 235007                    LDA     2,DL
         4 010017   200005 755100                    STA     CLASS,,AUTO

     1879    14859    4         POSITION = %YES#;

  14859  4 010020   400000 236003                    LDQ     -131072,DU
         4 010021   200017 756100                    STQ     POSITION,,AUTO
         4 010022   012074 710000 4                  TRA     s:15373

     1880    14860
     1881    14861    4         SELECT(L_CPROC); /* Cproc mode=cpname,mode=cpname,mode=cpname,mode=cpname  */

     1882    14862
     1883    14863    4         FMT_VEC ( 1 ) = VECTOR(ADDR(AS_USERS.CPROC(0))->TEXT$C.C);

  14863  4 010023   000125 236000 xsym               LDQ     AS_USERS+85
         4 010024   000033 772000                    QRL     27
         4 010025   000064 737000                    LLS     52
         4 010026   000140 135007                    SBLA    96,DL
         4 010027   000063 236000 5                  LDQ     51
         4 010030   000002 755000 xsym               STA     FMT_VEC+2
         4 010031   000003 756000 xsym               STQ     FMT_VEC+3

     1884    14864    4         FMT_VEC ( 3 ) = VECTOR(ADDR(AS_USERS.CPROC(1))->TEXT$C.C);

  14864  4 010032   000135 236000 xsym               LDQ     AS_USERS+93
         4 010033   000033 772000                    QRL     27
         4 010034   000064 737000                    LLS     52
         4 010035   000140 135007                    SBLA    96,DL
         4 010036   000177 236000 5                  LDQ     127
         4 010037   000006 755000 xsym               STA     FMT_VEC+6
         4 010040   000007 756000 xsym               STQ     FMT_VEC+7

     1885    14865    4         FMT_VEC ( 5 ) = VECTOR(ADDR(AS_USERS.CPROC(2))->TEXT$C.C);

  14865  4 010041   000145 236000 xsym               LDQ     AS_USERS+101
         4 010042   000033 772000                    QRL     27
PL6.E3A0      #002=ASL$LIST_OUT File=ASL$EXT.:E05TSI                             TUE 07/29/97 09:59 Page:354
         4 010043   000064 737000                    LLS     52
         4 010044   000140 135007                    SBLA    96,DL
         4 010045   000216 236000 5                  LDQ     142
         4 010046   000012 755000 xsym               STA     FMT_VEC+10
         4 010047   000013 756000 xsym               STQ     FMT_VEC+11

     1886    14866    4         FMT_VEC ( 7 ) = VECTOR(ADDR(AS_USERS.CPROC(3))->TEXT$C.C);

  14866  4 010050   000155 236000 xsym               LDQ     AS_USERS+109
         4 010051   000033 772000                    QRL     27
         4 010052   000064 737000                    LLS     52
         4 010053   000140 135007                    SBLA    96,DL
         4 010054   000217 236000 5                  LDQ     143
         4 010055   000016 755000 xsym               STA     FMT_VEC+14
         4 010056   000017 756000 xsym               STQ     FMT_VEC+15

     1887    14867    4         FDS.NVECS# = 8;

  14867  4 010057   000010 235007                    LDA     8,DL
         4 010060   000011 755000 xsym               STA     FDS+9

     1888    14868    4         CLASS = C_MODE_TEXT;

  14868  4 010061   000005 235007                    LDA     5,DL
         4 010062   200005 755100                    STA     CLASS,,AUTO
         4 010063   012074 710000 4                  TRA     s:15373

     1889    14869
     1890    14870    4         SELECT(L_DDO);

     1891    14871        /* Default do mode=val,mode=val,mode=val,mode=val services suboption  */
     1892    14872
     1893    14873    4         FDS.NVECS# = 8;

  14873  4 010064   000010 235007                    LDA     8,DL
         4 010065   000011 755000 xsym               STA     FDS+9

PL6.E3A0      #002=ASL$LIST_OUT File=ASL$EXT.:E05TSI                             TUE 07/29/97 09:59 Page:355
     1894    14874    5         DO BOG_IDX = 0 TO 3;

  14874  4 010066   200203 450100                    STZ     BOG_IDX,,AUTO

     1895    14875    5            FMT_VEC ( BOG_IDX*2+1 ) = VECTOR ( AS_USERS.DDO(BOG_IDX));

  14875  4 010067   200203 235100                    LDA     BOG_IDX,,AUTO
         4 010070   000002 735000                    ALS     2
         4 010071   000000 620005                    EAX0    0,AL
         4 010072   777640 235007                    LDA     -96,DL
         4 010073   200203 236100                    LDQ     BOG_IDX,,AUTO
         4 010074   000022 736000                    QLS     18
         4 010075   000220 036000 5                  ADLQ    144
         4 010076   000002 755010 xsym               STA     FMT_VEC+2,X0
         4 010077   000003 756010 xsym               STQ     FMT_VEC+3,X0

     1896    14876    5            END; /*  Loop on number of modes  */

  14876  4 010100   200203 054100                    AOS     BOG_IDX,,AUTO
         4 010101   200203 235100                    LDA     BOG_IDX,,AUTO
         4 010102   000003 115007                    CMPA    3,DL
         4 010103   010067 604400 4                  TMOZ    s:14875

     1897    14877    4         CLASS = C_MODE_SBIN ;

  14877  4 010104   000006 236007                    LDQ     6,DL
         4 010105   200005 756100                    STQ     CLASS,,AUTO
         4 010106   012074 710000 4                  TRA     s:15373

     1898    14878
     1899    14879    4         SELECT(L_DEXP); /*  Expire default = { never | days }  */

     1900    14880
     1901    14881    5         IF AS_USERS.DEXP=-1 THEN DO;

  14881  4 010107   000243 235000 xsym               LDA     AS_USERS+163
         4 010110   000027 115000 xsym               CMPA    B_VECTNIL+23
PL6.E3A0      #002=ASL$LIST_OUT File=ASL$EXT.:E05TSI                             TUE 07/29/97 09:59 Page:356
         4 010111   010120 601000 4                  TNZ     s:14886

     1902    14882    5            FMT_VEC ( 0 ) = VECTOR ( NEVER_STR );

  14882  4 010112   000054 237000 5                  LDAQ    44
         4 010113   000000 755000 xsym               STA     FMT_VEC
         4 010114   000001 756000 xsym               STQ     FMT_VEC+1

     1903    14883    5            CLASS = C_TEXT;

  14883  4 010115   000001 235007                    LDA     1,DL
         4 010116   200005 755100                    STA     CLASS,,AUTO

     1904    14884    5            END;

  14884  4 010117   012074 710000 4                  TRA     s:15373

     1905    14885    5         ELSE DO;

     1906    14886    5            FMT_VEC ( 0 ) = VECTOR ( AS_USERS.DEXP );

  14886  4 010120   000222 237000 5                  LDAQ    146
         4 010121   000000 755000 xsym               STA     FMT_VEC
         4 010122   000001 756000 xsym               STQ     FMT_VEC+1

     1907    14887    5            CLASS = C_SBIN;

  14887  4 010123   000014 235007                    LDA     12,DL
         4 010124   200005 755100                    STA     CLASS,,AUTO

     1908    14888    5            END;

  14888  4 010125   012074 710000 4                  TRA     s:15373

     1909    14889
     1910    14890    4         SELECT(L_DLO);

PL6.E3A0      #002=ASL$LIST_OUT File=ASL$EXT.:E05TSI                             TUE 07/29/97 09:59 Page:357
     1911    14891        /* Default lo mode=val,mode=val,mode=val,mode=val services suboption  */
     1912    14892
     1913    14893    4         FDS.NVECS# = 8;

  14893  4 010126   000010 235007                    LDA     8,DL
         4 010127   000011 755000 xsym               STA     FDS+9

     1914    14894    5         DO BOG_IDX = 0 TO 3;

  14894  4 010130   200203 450100                    STZ     BOG_IDX,,AUTO

     1915    14895    5            FMT_VEC ( BOG_IDX*2+1 ) = VECTOR ( AS_USERS.DLO(BOG_IDX));

  14895  4 010131   200203 235100                    LDA     BOG_IDX,,AUTO
         4 010132   000002 735000                    ALS     2
         4 010133   000000 620005                    EAX0    0,AL
         4 010134   777640 235007                    LDA     -96,DL
         4 010135   200203 236100                    LDQ     BOG_IDX,,AUTO
         4 010136   000022 736000                    QLS     18
         4 010137   000224 036000 5                  ADLQ    148
         4 010140   000002 755010 xsym               STA     FMT_VEC+2,X0
         4 010141   000003 756010 xsym               STQ     FMT_VEC+3,X0

     1916    14896    5            END; /*  Loop on number of modes  */

  14896  4 010142   200203 054100                    AOS     BOG_IDX,,AUTO
         4 010143   200203 235100                    LDA     BOG_IDX,,AUTO
         4 010144   000003 115007                    CMPA    3,DL
         4 010145   010131 604400 4                  TMOZ    s:14895

     1917    14897    4         CLASS = C_MODE_SBIN ;

  14897  4 010146   000006 236007                    LDQ     6,DL
         4 010147   200005 756100                    STQ     CLASS,,AUTO
         4 010150   012074 710000 4                  TRA     s:15373

     1918    14898
PL6.E3A0      #002=ASL$LIST_OUT File=ASL$EXT.:E05TSI                             TUE 07/29/97 09:59 Page:358
     1919    14899    4         SELECT(L_DMEM);

     1920    14900        /*  Memory default mode=val,mode=val,mode=val,mode=val */
     1921    14901
     1922    14902    4         FDS.NVECS# = 8;

  14902  4 010151   000010 235007                    LDA     8,DL
         4 010152   000011 755000 xsym               STA     FDS+9

     1923    14903    5         DO BOG_IDX = 0 TO 3;

  14903  4 010153   200203 450100                    STZ     BOG_IDX,,AUTO

     1924    14904    5            FMT_VEC ( BOG_IDX*2+1 ) = VECTOR ( AS_USERS.DMEM(BOG_IDX) ) ;

  14904  4 010154   200203 235100                    LDA     BOG_IDX,,AUTO
         4 010155   000002 735000                    ALS     2
         4 010156   000000 620005                    EAX0    0,AL
         4 010157   377640 235007                    LDA     130976,DL
         4 010160   200203 236100                    LDQ     BOG_IDX,,AUTO
         4 010161   000021 736000                    QLS     17
         4 010162   000225 036000 5                  ADLQ    149
         4 010163   000002 755010 xsym               STA     FMT_VEC+2,X0
         4 010164   000003 756010 xsym               STQ     FMT_VEC+3,X0

     1925    14905    5            END; /*  Loop on number of modes  */

  14905  4 010165   200203 054100                    AOS     BOG_IDX,,AUTO
         4 010166   200203 235100                    LDA     BOG_IDX,,AUTO
         4 010167   000003 115007                    CMPA    3,DL
         4 010170   010154 604400 4                  TMOZ    s:14904

     1926    14906    4         CLASS = C_MODE_SBIN ;

  14906  4 010171   000006 236007                    LDQ     6,DL
         4 010172   200005 756100                    STQ     CLASS,,AUTO
         4 010173   012074 710000 4                  TRA     s:15373
PL6.E3A0      #002=ASL$LIST_OUT File=ASL$EXT.:E05TSI                             TUE 07/29/97 09:59 Page:359

     1927    14907
     1928    14908    4         SELECT(L_DPDP);

     1929    14909        /* Default pdis mode=val,mode=val,mode=val,mode=val services suboption  */
     1930    14910
     1931    14911    4         FDS.NVECS# = 8;

  14911  4 010174   000010 235007                    LDA     8,DL
         4 010175   000011 755000 xsym               STA     FDS+9

     1932    14912    5         DO BOG_IDX = 0 TO 3;

  14912  4 010176   200203 450100                    STZ     BOG_IDX,,AUTO

     1933    14913    5            FMT_VEC ( BOG_IDX*2+1 ) = VECTOR ( AS_USERS.DPDIS(BOG_IDX));

  14913  4 010177   200203 235100                    LDA     BOG_IDX,,AUTO
         4 010200   000002 735000                    ALS     2
         4 010201   000000 620005                    EAX0    0,AL
         4 010202   777640 235007                    LDA     -96,DL
         4 010203   200203 236100                    LDQ     BOG_IDX,,AUTO
         4 010204   000022 736000                    QLS     18
         4 010205   000226 036000 5                  ADLQ    150
         4 010206   000002 755010 xsym               STA     FMT_VEC+2,X0
         4 010207   000003 756010 xsym               STQ     FMT_VEC+3,X0

     1934    14914    5            END; /*  Loop on number of modes  */

  14914  4 010210   200203 054100                    AOS     BOG_IDX,,AUTO
         4 010211   200203 235100                    LDA     BOG_IDX,,AUTO
         4 010212   000003 115007                    CMPA    3,DL
         4 010213   010177 604400 4                  TMOZ    s:14913

     1935    14915    4         CLASS = C_MODE_SBIN ;

  14915  4 010214   000006 236007                    LDQ     6,DL
PL6.E3A0      #002=ASL$LIST_OUT File=ASL$EXT.:E05TSI                             TUE 07/29/97 09:59 Page:360
         4 010215   200005 756100                    STQ     CLASS,,AUTO
         4 010216   012074 710000 4                  TRA     s:15373

     1936    14916
     1937    14917    4         SELECT(L_DPO);

     1938    14918        /* Default po mode=val,mode=val,mode=val,mode=val services suboption  */
     1939    14919
     1940    14920    4         FDS.NVECS# = 8;

  14920  4 010217   000010 235007                    LDA     8,DL
         4 010220   000011 755000 xsym               STA     FDS+9

     1941    14921    5         DO BOG_IDX = 0 TO 3;

  14921  4 010221   200203 450100                    STZ     BOG_IDX,,AUTO

     1942    14922    5            FMT_VEC ( BOG_IDX*2+1 ) = VECTOR ( AS_USERS.DPO(BOG_IDX));

  14922  4 010222   200203 235100                    LDA     BOG_IDX,,AUTO
         4 010223   000002 735000                    ALS     2
         4 010224   000000 620005                    EAX0    0,AL
         4 010225   777640 235007                    LDA     -96,DL
         4 010226   200203 236100                    LDQ     BOG_IDX,,AUTO
         4 010227   000022 736000                    QLS     18
         4 010230   000227 036000 5                  ADLQ    151
         4 010231   000002 755010 xsym               STA     FMT_VEC+2,X0
         4 010232   000003 756010 xsym               STQ     FMT_VEC+3,X0

     1943    14923    5            END; /*  Loop on number of modes  */

  14923  4 010233   200203 054100                    AOS     BOG_IDX,,AUTO
         4 010234   200203 235100                    LDA     BOG_IDX,,AUTO
         4 010235   000003 115007                    CMPA    3,DL
         4 010236   010222 604400 4                  TMOZ    s:14922

     1944    14924    4         CLASS = C_MODE_SBIN ;
PL6.E3A0      #002=ASL$LIST_OUT File=ASL$EXT.:E05TSI                             TUE 07/29/97 09:59 Page:361

  14924  4 010237   000006 236007                    LDQ     6,DL
         4 010240   200005 756100                    STQ     CLASS,,AUTO
         4 010241   012074 710000 4                  TRA     s:15373

     1945    14925
     1946    14926    4         SELECT(L_DPOOL);

     1947    14927        /* Default fpools mode=val,mode=val,mode=val,mode=val services suboption  */
     1948    14928
     1949    14929    4         FDS.NVECS# = 8;

  14929  4 010242   000010 235007                    LDA     8,DL
         4 010243   000011 755000 xsym               STA     FDS+9

     1950    14930    5         DO BOG_IDX = 0 TO 3;

  14930  4 010244   200203 450100                    STZ     BOG_IDX,,AUTO

     1951    14931    5            FMT_VEC ( BOG_IDX*2+1 ) = VECTOR ( AS_USERS.DFPOOLS(BOG_IDX));

  14931  4 010245   200203 235100                    LDA     BOG_IDX,,AUTO
         4 010246   000002 735000                    ALS     2
         4 010247   000000 620005                    EAX0    0,AL
         4 010250   177640 235007                    LDA     65440,DL
         4 010251   200203 236100                    LDQ     BOG_IDX,,AUTO
         4 010252   000020 736000                    QLS     16
         4 010253   000230 036000 5                  ADLQ    152
         4 010254   000002 755010 xsym               STA     FMT_VEC+2,X0
         4 010255   000003 756010 xsym               STQ     FMT_VEC+3,X0

     1952    14932    5            END; /*  Loop on number of modes  */

  14932  4 010256   200203 054100                    AOS     BOG_IDX,,AUTO
         4 010257   200203 235100                    LDA     BOG_IDX,,AUTO
         4 010260   000003 115007                    CMPA    3,DL
         4 010261   010245 604400 4                  TMOZ    s:14931
PL6.E3A0      #002=ASL$LIST_OUT File=ASL$EXT.:E05TSI                             TUE 07/29/97 09:59 Page:362

     1953    14933    4         CLASS = C_MODE_SBIN ;

  14933  4 010262   000006 236007                    LDQ     6,DL
         4 010263   200005 756100                    STQ     CLASS,,AUTO
         4 010264   012074 710000 4                  TRA     s:15373

     1954    14934
     1955    14935    4         SELECT(L_DPRI);

     1956    14936        /* Default maxjobprio mode=val,mode=val,mode=val,mode=val services suboption  */
     1957    14937
     1958    14938    4         FDS.NVECS# = 8;

  14938  4 010265   000010 235007                    LDA     8,DL
         4 010266   000011 755000 xsym               STA     FDS+9

     1959    14939    5         DO BOG_IDX = 0 TO 3;

  14939  4 010267   200203 450100                    STZ     BOG_IDX,,AUTO

     1960    14940    5            FMT_VEC ( BOG_IDX*2+1 ) = VECTOR ( AS_USERS.DMPRIO(BOG_IDX));

  14940  4 010270   200203 235100                    LDA     BOG_IDX,,AUTO
         4 010271   000002 735000                    ALS     2
         4 010272   000000 620005                    EAX0    0,AL
         4 010273   177640 235007                    LDA     65440,DL
         4 010274   200203 236100                    LDQ     BOG_IDX,,AUTO
         4 010275   000020 736000                    QLS     16
         4 010276   000231 036000 5                  ADLQ    153
         4 010277   000002 755010 xsym               STA     FMT_VEC+2,X0
         4 010300   000003 756010 xsym               STQ     FMT_VEC+3,X0

     1961    14941    5            END; /*  Loop on number of modes  */

  14941  4 010301   200203 054100                    AOS     BOG_IDX,,AUTO
         4 010302   200203 235100                    LDA     BOG_IDX,,AUTO
PL6.E3A0      #002=ASL$LIST_OUT File=ASL$EXT.:E05TSI                             TUE 07/29/97 09:59 Page:363
         4 010303   000003 115007                    CMPA    3,DL
         4 010304   010270 604400 4                  TMOZ    s:14940

     1962    14942    4         CLASS = C_MODE_SBIN ;

  14942  4 010305   000006 236007                    LDQ     6,DL
         4 010306   200005 756100                    STQ     CLASS,,AUTO
         4 010307   012074 710000 4                  TRA     s:15373

     1963    14943
     1964    14944    4         SELECT(L_DTDP);

     1965    14945        /* Default tdis mode=val,mode=val,mode=val,mode=val services suboption  */
     1966    14946
     1967    14947    4         FDS.NVECS# = 8;

  14947  4 010310   000010 235007                    LDA     8,DL
         4 010311   000011 755000 xsym               STA     FDS+9

     1968    14948    5         DO BOG_IDX = 0 TO 3;

  14948  4 010312   200203 450100                    STZ     BOG_IDX,,AUTO

     1969    14949    5            FMT_VEC ( BOG_IDX*2+1 ) = VECTOR ( AS_USERS.DTDIS(BOG_IDX));

  14949  4 010313   200203 235100                    LDA     BOG_IDX,,AUTO
         4 010314   000002 735000                    ALS     2
         4 010315   000000 620005                    EAX0    0,AL
         4 010316   777640 235007                    LDA     -96,DL
         4 010317   200203 236100                    LDQ     BOG_IDX,,AUTO
         4 010320   000022 736000                    QLS     18
         4 010321   000232 036000 5                  ADLQ    154
         4 010322   000002 755010 xsym               STA     FMT_VEC+2,X0
         4 010323   000003 756010 xsym               STQ     FMT_VEC+3,X0

     1970    14950    5            END; /*  Loop on number of modes  */

PL6.E3A0      #002=ASL$LIST_OUT File=ASL$EXT.:E05TSI                             TUE 07/29/97 09:59 Page:364
  14950  4 010324   200203 054100                    AOS     BOG_IDX,,AUTO
         4 010325   200203 235100                    LDA     BOG_IDX,,AUTO
         4 010326   000003 115007                    CMPA    3,DL
         4 010327   010313 604400 4                  TMOZ    s:14949

     1971    14951    4         CLASS = C_MODE_SBIN ;

  14951  4 010330   000006 236007                    LDQ     6,DL
         4 010331   200005 756100                    STQ     CLASS,,AUTO
         4 010332   012074 710000 4                  TRA     s:15373

     1972    14952
     1973    14953    4         SELECT(L_DTIME);

     1974    14954        /* Time default mode=val,mode=val,mode=val,mode=val */
     1975    14955
     1976    14956    4         FDS.NVECS# = 8;

  14956  4 010333   000010 235007                    LDA     8,DL
         4 010334   000011 755000 xsym               STA     FDS+9

     1977    14957    5         DO BOG_IDX = 0 TO 3;

  14957  4 010335   200203 450100                    STZ     BOG_IDX,,AUTO

     1978    14958    5            SBINS ( BOG_IDX ) = AS_USERS.DTIME(BOG_IDX)/6000;

  14958  4 010336   200203 720100                    LXL0    BOG_IDX,,AUTO
         4 010337   000255 236010 xsym               LDQ     AS_USERS+173,X0
         4 010340   000001 772000                    QRL     1
         4 010341   005670 506007                    DIV     3000,DL
         4 010342   200020 756110                    STQ     SBINS,X0,AUTO

     1979    14959    5            FMT_VEC ( BOG_IDX*2+1 ) = VECTOR ( SBINS ( BOG_IDX ) ) ;

  14959  4 010343   200203 235100                    LDA     BOG_IDX,,AUTO
         4 010344   000002 735000                    ALS     2
PL6.E3A0      #002=ASL$LIST_OUT File=ASL$EXT.:E05TSI                             TUE 07/29/97 09:59 Page:365
         4 010345   000000 621005                    EAX1    0,AL
         4 010346   777640 235007                    LDA     -96,DL
         4 010347   200224 452500                    STP2    I+2,,AUTO
         4 010350   200203 236100                    LDQ     BOG_IDX,,AUTO
         4 010351   000022 736000                    QLS     18
         4 010352   000020 036003                    ADLQ    16,DU
         4 010353   200224 036100                    ADLQ    I+2,,AUTO
         4 010354   000002 755011 xsym               STA     FMT_VEC+2,X1
         4 010355   000003 756011 xsym               STQ     FMT_VEC+3,X1

     1980    14960    5            END; /*  Loop on number of modes  */

  14960  4 010356   200203 054100                    AOS     BOG_IDX,,AUTO
         4 010357   200203 235100                    LDA     BOG_IDX,,AUTO
         4 010360   000003 115007                    CMPA    3,DL
         4 010361   010336 604400 4                  TMOZ    s:14958

     1981    14961    4         CLASS = C_MODE_SBIN ;

  14961  4 010362   000006 236007                    LDQ     6,DL
         4 010363   200005 756100                    STQ     CLASS,,AUTO
         4 010364   012074 710000 4                  TRA     s:15373

     1982    14962
     1983    14963    4         SELECT(L_FEACCTMEM); /* Femacctmem = num  */

     1984    14964
     1985    14965    4         FMT_VEC ( 0 ) = VECTOR ( KL_DREC.KL_DREC_FEBLK.MACCTMEM );

  14965  4 010365   000234 237000 5                  LDAQ    156
         4 010366   000000 755000 xsym               STA     FMT_VEC
         4 010367   000001 756000 xsym               STQ     FMT_VEC+1

     1986    14966    4         CLASS = C_SBIN;

  14966  4 010370   000014 235007                    LDA     12,DL
         4 010371   200005 755100                    STA     CLASS,,AUTO
PL6.E3A0      #002=ASL$LIST_OUT File=ASL$EXT.:E05TSI                             TUE 07/29/97 09:59 Page:366
         4 010372   012074 710000 4                  TRA     s:15373

     1987    14967
     1988    14968    4         SELECT(L_FEBILL);
             14968                  /* Febilling = femode=sched,femode=sched,femode=sched,femode=sched  */

     1989    14969
     1990    14970    4         FDS.NVECS# = 8;

  14970  4 010373   000010 235007                    LDA     8,DL
         4 010374   000011 755000 xsym               STA     FDS+9

     1991    14971    5         DO BOG_IDX = 0 TO 3;

  14971  4 010375   200203 450100                    STZ     BOG_IDX,,AUTO

     1992    14972    5            FMT_VEC (BOG_IDX*2+1) = VECTOR ( KL_DREC.KL_DREC_FEBLK.BILL(BOG_IDX) );

  14972  4 010376   200203 235100                    LDA     BOG_IDX,,AUTO
         4 010377   000002 735000                    ALS     2
         4 010400   000000 620005                    EAX0    0,AL
         4 010401   000042 235000 5                  LDA     34
         4 010402   200203 236100                    LDQ     BOG_IDX,,AUTO
         4 010403   200224 755100                    STA     I+2,,AUTO
         4 010404   000062 402000 5                  MPY     50
         4 010405   000077 036000 5                  ADLQ    63
         4 010406   200224 235100                    LDA     I+2,,AUTO
         4 010407   000002 755010 xsym               STA     FMT_VEC+2,X0
         4 010410   000003 756010 xsym               STQ     FMT_VEC+3,X0

     1993    14973    5            END; /*  Loop on number of modes  */

  14973  4 010411   200203 054100                    AOS     BOG_IDX,,AUTO
         4 010412   200203 235100                    LDA     BOG_IDX,,AUTO
         4 010413   000003 115007                    CMPA    3,DL
         4 010414   010376 604400 4                  TMOZ    s:14972

PL6.E3A0      #002=ASL$LIST_OUT File=ASL$EXT.:E05TSI                             TUE 07/29/97 09:59 Page:367
     1994    14974    4         CLASS = C_FEMODE_TEXT ;

  14974  4 010415   000007 236007                    LDQ     7,DL
         4 010416   200005 756100                    STQ     CLASS,,AUTO
         4 010417   012074 710000 4                  TRA     s:15373

     1995    14975
     1996    14976    4         SELECT(L_FEDBACCN); /* Fedbaccn = dbacctnm  */

     1997    14977
     1998    14978    4         FMT_VEC ( 0 ) = VECTOR ( KL_DREC.KL_DREC_FEBLK.DBACCN );

  14978  4 010420   000100 237000 5                  LDAQ    64
         4 010421   000000 755000 xsym               STA     FMT_VEC
         4 010422   000001 756000 xsym               STQ     FMT_VEC+1

     1999    14979    4         CLASS = C_TEXT;

  14979  4 010423   000001 235007                    LDA     1,DL
         4 010424   200005 755100                    STA     CLASS,,AUTO
         4 010425   012074 710000 4                  TRA     s:15373

     2000    14980
     2001    14981    4         SELECT(L_FEMINTS); /* Femints femode=val,femode=val,femode=val,femode=val  */

     2002    14982
     2003    14983    4         FDS.NVECS# = 8;

  14983  4 010426   000010 235007                    LDA     8,DL
         4 010427   000011 755000 xsym               STA     FDS+9

     2004    14984    5         DO BOG_IDX = 0 TO 3;

  14984  4 010430   200203 450100                    STZ     BOG_IDX,,AUTO

     2005    14985    5            FMT_VEC ((BOG_IDX*2)+1) = VECTOR (KL_DREC.KL_DREC_FEBLK.MINTS(BOG_IDX));

PL6.E3A0      #002=ASL$LIST_OUT File=ASL$EXT.:E05TSI                             TUE 07/29/97 09:59 Page:368
  14985  4 010431   200203 235100                    LDA     BOG_IDX,,AUTO
         4 010432   000002 735000                    ALS     2
         4 010433   000000 620005                    EAX0    0,AL
         4 010434   177640 235007                    LDA     65440,DL
         4 010435   200203 236100                    LDQ     BOG_IDX,,AUTO
         4 010436   000020 736000                    QLS     16
         4 010437   000236 036000 5                  ADLQ    158
         4 010440   000002 755010 xsym               STA     FMT_VEC+2,X0
         4 010441   000003 756010 xsym               STQ     FMT_VEC+3,X0

     2006    14986    5            END; /*  Loop on number of modes  */

  14986  4 010442   200203 054100                    AOS     BOG_IDX,,AUTO
         4 010443   200203 235100                    LDA     BOG_IDX,,AUTO
         4 010444   000003 115007                    CMPA    3,DL
         4 010445   010431 604400 4                  TMOZ    s:14985

     2007    14987    4         CLASS = C_FEMODE_SBIN ;

  14987  4 010446   000010 236007                    LDQ     8,DL
         4 010447   200005 756100                    STQ     CLASS,,AUTO
         4 010450   012074 710000 4                  TRA     s:15373

     2008    14988
     2009    14989    4         SELECT(L_FEMEMORY);
             14989                  /* Femmemory femode=val,femode=val,femode=val,femode=val  */

     2010    14990
     2011    14991    4         FDS.NVECS# = 8;

  14991  4 010451   000010 235007                    LDA     8,DL
         4 010452   000011 755000 xsym               STA     FDS+9

     2012    14992    5         DO BOG_IDX = 0 TO 3;

  14992  4 010453   200203 450100                    STZ     BOG_IDX,,AUTO

PL6.E3A0      #002=ASL$LIST_OUT File=ASL$EXT.:E05TSI                             TUE 07/29/97 09:59 Page:369
     2013    14993    5            FMT_VEC ((BOG_IDX*2)+1) = VECTOR (KL_DREC.KL_DREC_FEBLK.MMEM(BOG_IDX));

  14993  4 010454   200203 235100                    LDA     BOG_IDX,,AUTO
         4 010455   000002 735000                    ALS     2
         4 010456   000000 620005                    EAX0    0,AL
         4 010457   377640 235007                    LDA     130976,DL
         4 010460   200203 236100                    LDQ     BOG_IDX,,AUTO
         4 010461   000021 736000                    QLS     17
         4 010462   000237 036000 5                  ADLQ    159
         4 010463   000002 755010 xsym               STA     FMT_VEC+2,X0
         4 010464   000003 756010 xsym               STQ     FMT_VEC+3,X0

     2014    14994    5            END; /*  Loop on number of modes  */

  14994  4 010465   200203 054100                    AOS     BOG_IDX,,AUTO
         4 010466   200203 235100                    LDA     BOG_IDX,,AUTO
         4 010467   000003 115007                    CMPA    3,DL
         4 010470   010454 604400 4                  TMOZ    s:14993

     2015    14995    4         CLASS = C_FEMODE_SBIN ;

  14995  4 010471   000010 236007                    LDQ     8,DL
         4 010472   200005 756100                    STQ     CLASS,,AUTO
         4 010473   012074 710000 4                  TRA     s:15373

     2016    14996
     2017    14997    4         SELECT(L_FEMFPRG) ; /*  Femfprg = value  */

     2018    14998
     2019    14999    4         FMT_VEC ( 0 ) = VECTOR ( KL_DREC.KL_DREC_FEBLK.MFPRG );

  14999  4 010474   000240 237000 5                  LDAQ    160
         4 010475   000000 755000 xsym               STA     FMT_VEC
         4 010476   000001 756000 xsym               STQ     FMT_VEC+1

     2020    15000    4         CLASS = C_SBIN ;

PL6.E3A0      #002=ASL$LIST_OUT File=ASL$EXT.:E05TSI                             TUE 07/29/97 09:59 Page:370
  15000  4 010477   000014 235007                    LDA     12,DL
         4 010500   200005 755100                    STA     CLASS,,AUTO
         4 010501   012074 710000 4                  TRA     s:15373

     2021    15001
     2022    15002    4         SELECT(L_FESTEPACCNT); /* Festepaccnt = {yes|no}  */

     2023    15003
     2024    15004    4         FMT_VEC ( 0 ) = VECTOR ( KL_DREC.KL_DREC_FEBLK.FLAGS );

  15004  4 010502   000242 237000 5                  LDAQ    162
         4 010503   000000 755000 xsym               STA     FMT_VEC
         4 010504   000001 756000 xsym               STQ     FMT_VEC+1

     2025    15005    4         POSITION = %YES#;

  15005  4 010505   400000 236003                    LDQ     -131072,DU
         4 010506   200017 756100                    STQ     POSITION,,AUTO

     2026    15006    4         CLASS = C_YESNO;

  15006  4 010507   000002 235007                    LDA     2,DL
         4 010510   200005 755100                    STA     CLASS,,AUTO
         4 010511   012074 710000 4                  TRA     s:15373

     2027    15007
     2028    15008    4         SELECT(L_FETIME); /* Femtime femode=val,femode=val,femode=val,femode=val  */

     2029    15009
     2030    15010    4         FDS.NVECS# = 8;

  15010  4 010512   000010 235007                    LDA     8,DL
         4 010513   000011 755000 xsym               STA     FDS+9

     2031    15011    5         DO BOG_IDX = 0 TO 3;

  15011  4 010514   200203 450100                    STZ     BOG_IDX,,AUTO
PL6.E3A0      #002=ASL$LIST_OUT File=ASL$EXT.:E05TSI                             TUE 07/29/97 09:59 Page:371

     2032    15012    5            SBINS ( BOG_IDX ) = KL_DREC.KL_DREC_FEBLK.MTIME(BOG_IDX)/6000;

  15012  4 010515   200203 720100                    LXL0    BOG_IDX,,AUTO
         4 010516   000042 236010 xsym               LDQ     KL_DREC+34,X0
         4 010517   013560 506007                    DIV     6000,DL
         4 010520   200020 756110                    STQ     SBINS,X0,AUTO

     2033    15013    5            FMT_VEC (BOG_IDX*2+1) = VECTOR ( SBINS (BOG_IDX ) );

  15013  4 010521   200203 235100                    LDA     BOG_IDX,,AUTO
         4 010522   000002 735000                    ALS     2
         4 010523   000000 621005                    EAX1    0,AL
         4 010524   777640 235007                    LDA     -96,DL
         4 010525   200224 452500                    STP2    I+2,,AUTO
         4 010526   200203 236100                    LDQ     BOG_IDX,,AUTO
         4 010527   000022 736000                    QLS     18
         4 010530   000020 036003                    ADLQ    16,DU
         4 010531   200224 036100                    ADLQ    I+2,,AUTO
         4 010532   000002 755011 xsym               STA     FMT_VEC+2,X1
         4 010533   000003 756011 xsym               STQ     FMT_VEC+3,X1

     2034    15014    5            END; /*  Loop on number of modes  */

  15014  4 010534   200203 054100                    AOS     BOG_IDX,,AUTO
         4 010535   200203 235100                    LDA     BOG_IDX,,AUTO
         4 010536   000003 115007                    CMPA    3,DL
         4 010537   010515 604400 4                  TMOZ    s:15012

     2035    15015    4         CLASS = C_FEMODE_SBIN ;

  15015  4 010540   000010 236007                    LDQ     8,DL
         4 010541   200005 756100                    STQ     CLASS,,AUTO
         4 010542   012074 710000 4                  TRA     s:15373

     2036    15016
     2037    15017    4         SELECT (L_FORCE_SETUP);
PL6.E3A0      #002=ASL$LIST_OUT File=ASL$EXT.:E05TSI                             TUE 07/29/97 09:59 Page:372
             15017                  /*  FORCE_SETUP mode=yesno,mode=yesno,mode=yesno,mode=yesno  */

     2038    15018
     2039    15019    4         FDS.NVECS# = 8;

  15019  4 010543   000010 235007                    LDA     8,DL
         4 010544   000011 755000 xsym               STA     FDS+9

     2040    15020    4         CLASS = C_MODE_TEXT;

  15020  4 010545   000005 236007                    LDQ     5,DL
         4 010546   200005 756100                    STQ     CLASS,,AUTO

     2041    15021    5         DO BOG_IDX = 0 TO 3;

  15021  4 010547   200203 450100                    STZ     BOG_IDX,,AUTO

     2042    15022    5            IF AS_USERS.SETUP_FORCE (BOG_IDX) THEN

  15022  4 010550   200203 235100                    LDA     BOG_IDX,,AUTO
         4 010551   010553 605000 4                  TPL     s:15022+3
         4 010552   000044 035003                    ADLA    36,DU
         4 010553   000000 066405                    CMPB    filb='0'B
         4 010554   000351 650001 xsym               BDSC    AS_USERS+233,A           by=3,bit=5,n=1
         4 010555   000002 000022 xsym               BDSC    B_VECTNIL+2              by=0,bit=0,n=18
         4 010556   010567 600000 4                  TZE     s:15025

     2043    15023    5               FMT_VEC ((BOG_IDX*2)+1) = VECTOR ( YES_STR );

  15023  4 010557   200203 235100                    LDA     BOG_IDX,,AUTO
         4 010560   000002 735000                    ALS     2
         4 010561   000000 620005                    EAX0    0,AL
         4 010562   000000 621005                    EAX1    0,AL
         4 010563   000102 237000 5                  LDAQ    66
         4 010564   000002 755010 xsym               STA     FMT_VEC+2,X0
         4 010565   000003 756011 xsym               STQ     FMT_VEC+3,X1
         4 010566   010576 710000 4                  TRA     s:15026
PL6.E3A0      #002=ASL$LIST_OUT File=ASL$EXT.:E05TSI                             TUE 07/29/97 09:59 Page:373

     2044    15024    5            ELSE
     2045    15025    5               FMT_VEC ((BOG_IDX*2)+1) = VECTOR ( NO_STR );

  15025  4 010567   200203 235100                    LDA     BOG_IDX,,AUTO
         4 010570   000002 735000                    ALS     2
         4 010571   000000 620005                    EAX0    0,AL
         4 010572   000000 621005                    EAX1    0,AL
         4 010573   000104 237000 5                  LDAQ    68
         4 010574   000002 755010 xsym               STA     FMT_VEC+2,X0
         4 010575   000003 756011 xsym               STQ     FMT_VEC+3,X1

     2046    15026    5            END; /*  Loop on number of modes  */

  15026  4 010576   200203 054100                    AOS     BOG_IDX,,AUTO
         4 010577   200203 235100                    LDA     BOG_IDX,,AUTO
         4 010600   000003 115007                    CMPA    3,DL
         4 010601   010550 604400 4                  TMOZ    s:15022
         4 010602   012074 710000 4                  TRA     s:15373

     2047    15027
     2048    15028    4         SELECT(L_HSET);  /*  Hset = DP#setna  */

     2049    15029
     2050    15030    4         SUBSTR (FMT_BUF, FDS.FMT_.BOUND+1, 9) = ' = DP#%>A';

  15030  4 010603   000000 236000 xsym               LDQ     FDS
         4 010604   000020 772000                    QRL     16
         4 010605   040006 100400                    MLR     fill='040'O
         4 010606   005174 000011 2                  ADSC9   PRIV_TBL+268             cn=0,n=9
         4 010607   000000 200011 xsym               ADSC9   FMT_BUF,Q                cn=1,n=9

     2051    15031    4         FDS.FMT_.BOUND = FDS.FMT_.BOUND + 9;

  15031  4 010610   000011 036007                    ADLQ    9,DL
         4 010611   000020 736000                    QLS     16
         4 010612   000000 676000 xsym               ERQ     FDS
PL6.E3A0      #002=ASL$LIST_OUT File=ASL$EXT.:E05TSI                             TUE 07/29/97 09:59 Page:374
         4 010613   000034 376000 xsym               ANQ     B_VECTNIL+28
         4 010614   000000 656000 xsym               ERSQ    FDS

     2052    15032    4         FMT_VEC ( 0 ) = VECTOR ( KL_DREC.HPS.N );

  15032  4 010615   000042 237000 5                  LDAQ    34
         4 010616   000000 755000 xsym               STA     FMT_VEC
         4 010617   000001 756000 xsym               STQ     FMT_VEC+1

     2053    15033    4         FDS.NVECS# = 1;

  15033  4 010620   000001 235007                    LDA     1,DL
         4 010621   000011 755000 xsym               STA     FDS+9

     2054    15034    4         CLASS = C_ALL_DONE ;

  15034  4 010622   000034 235007                    LDA     28,DL
         4 010623   200005 755100                    STA     CLASS,,AUTO
         4 010624   012074 710000 4                  TRA     s:15373

     2055    15035
     2056    15036    4         SELECT(L_ICHARGE); /*  Icharge = { yes | no }  budget suboption  */

     2057    15037
     2058    15038    4         SUBSTR (FMT_BUF, FDS.FMT_.BOUND+1, 9) = '%1.9.1.3P';

  15038  4 010625   000000 236000 xsym               LDQ     FDS
         4 010626   000020 772000                    QRL     16
         4 010627   040006 100400                    MLR     fill='040'O
         4 010630   005177 000011 2                  ADSC9   PRIV_TBL+271             cn=0,n=9
         4 010631   000000 200011 xsym               ADSC9   FMT_BUF,Q                cn=1,n=9

     2059    15039    4         FDS.FMT_.BOUND = FDS.FMT_.BOUND + 9;

  15039  4 010632   000011 036007                    ADLQ    9,DL
         4 010633   000020 736000                    QLS     16
         4 010634   000000 676000 xsym               ERQ     FDS
PL6.E3A0      #002=ASL$LIST_OUT File=ASL$EXT.:E05TSI                             TUE 07/29/97 09:59 Page:375
         4 010635   000034 376000 xsym               ANQ     B_VECTNIL+28
         4 010636   000000 656000 xsym               ERSQ    FDS

     2060    15040    4         FMT_VEC ( 0 ) = VECTOR ( AS_USERS.BUDGET );

  15040  4 010637   000214 237000 5                  LDAQ    140
         4 010640   000000 755000 xsym               STA     FMT_VEC
         4 010641   000001 756000 xsym               STQ     FMT_VEC+1

     2061    15041    4         CLASS = C_YESNO;

  15041  4 010642   000002 235007                    LDA     2,DL
         4 010643   200005 755100                    STA     CLASS,,AUTO

     2062    15042    4         POSITION = %YES#;

  15042  4 010644   400000 236003                    LDQ     -131072,DU
         4 010645   200017 756100                    STQ     POSITION,,AUTO
         4 010646   012074 710000 4                  TRA     s:15373

     2063    15043
     2064    15044    4         SELECT(L_LASTCPROC);
             15044                  /* Last cproc mode=cpname,mode=cpname,mode=cpname,mode=cpname  */

     2065    15045
     2066    15046    4         FMT_VEC ( 1 ) = VECTOR(ADDR(AS_USERS.LASTCPROC(0))->TEXT$C.C);

  15046  4 010647   000165 236000 xsym               LDQ     AS_USERS+117
         4 010650   000033 772000                    QRL     27
         4 010651   000064 737000                    LLS     52
         4 010652   000140 135007                    SBLA    96,DL
         4 010653   000064 236000 5                  LDQ     52
         4 010654   000002 755000 xsym               STA     FMT_VEC+2
         4 010655   000003 756000 xsym               STQ     FMT_VEC+3

     2067    15047    4         FMT_VEC ( 3 ) = VECTOR(ADDR(AS_USERS.LASTCPROC(1))->TEXT$C.C);

PL6.E3A0      #002=ASL$LIST_OUT File=ASL$EXT.:E05TSI                             TUE 07/29/97 09:59 Page:376
  15047  4 010656   000175 236000 xsym               LDQ     AS_USERS+125
         4 010657   000033 772000                    QRL     27
         4 010660   000064 737000                    LLS     52
         4 010661   000140 135007                    SBLA    96,DL
         4 010662   000244 236000 5                  LDQ     164
         4 010663   000006 755000 xsym               STA     FMT_VEC+6
         4 010664   000007 756000 xsym               STQ     FMT_VEC+7

     2068    15048    4         FMT_VEC ( 5 ) = VECTOR(ADDR(AS_USERS.LASTCPROC(2))->TEXT$C.C);

  15048  4 010665   000205 236000 xsym               LDQ     AS_USERS+133
         4 010666   000033 772000                    QRL     27
         4 010667   000064 737000                    LLS     52
         4 010670   000140 135007                    SBLA    96,DL
         4 010671   000245 236000 5                  LDQ     165
         4 010672   000012 755000 xsym               STA     FMT_VEC+10
         4 010673   000013 756000 xsym               STQ     FMT_VEC+11

     2069    15049    4         FMT_VEC ( 7 ) = VECTOR(ADDR(AS_USERS.LASTCPROC(3))->TEXT$C.C);

  15049  4 010674   000215 236000 xsym               LDQ     AS_USERS+141
         4 010675   000033 772000                    QRL     27
         4 010676   000064 737000                    LLS     52
         4 010677   000140 135007                    SBLA    96,DL
         4 010700   000246 236000 5                  LDQ     166
         4 010701   000016 755000 xsym               STA     FMT_VEC+14
         4 010702   000017 756000 xsym               STQ     FMT_VEC+15

     2070    15050    4         FDS.NVECS# = 8;

  15050  4 010703   000010 235007                    LDA     8,DL
         4 010704   000011 755000 xsym               STA     FDS+9

     2071    15051    4         CLASS = C_MODE_TEXT;

  15051  4 010705   000005 235007                    LDA     5,DL
         4 010706   200005 755100                    STA     CLASS,,AUTO
PL6.E3A0      #002=ASL$LIST_OUT File=ASL$EXT.:E05TSI                             TUE 07/29/97 09:59 Page:377
         4 010707   012074 710000 4                  TRA     s:15373

     2072    15052
     2073    15053    4         SELECT (L_LAST_LOGON_TIME); /* Lastlogon time = {date,time | time,date}  */

     2074    15054
     2075    15055    4         GET_LOGON.TSTAMP_ = VECTOR (AS_USERS.LAST_LOGON_TIME);

  15055  4 010710   000072 237000 5                  LDAQ    58
         4 010711   000042 757000 3                  STAQ    GET_LOGON+8

     2076    15056    4         CALL M$TIME (GET_LOGON);

  15056  4 010712   000032 630400 3                  EPPR0   GET_LOGON
         4 010713   020004 713400                    CLIMB   8196
         4 010714   402000 401760                    pmme    nvectors=5

     2077    15057    4         CALL CONCAT (LAST_LOGON_BUF, LOGON_DATE, ',', LOGON_TIME);

  15057  4 010715   000054 237000 3                  LDAQ    LOGON_DATE
         4 010716   000046 757000 3                  STAQ    LAST_LOGON_BUF
         4 010717   054000 236003                    LDQ     22528,DU
         4 010720   000050 756000 3                  STQ     LAST_LOGON_BUF+2
         4 010721   040000 100400                    MLR     fill='040'O
         4 010722   000057 000013 3                  ADSC9   LOGON_TIME               cn=0,n=11
         4 010723   000050 200015 3                  ADSC9   LAST_LOGON_BUF+2         cn=1,n=13

     2078    15058    4         FMT_VEC ( 0 ) = VECTOR (LAST_LOGON_BUF);

  15058  4 010724   000074 237000 5                  LDAQ    60
         4 010725   000000 755000 xsym               STA     FMT_VEC
         4 010726   000001 756000 xsym               STQ     FMT_VEC+1

     2079    15059    4         CLASS = C_TEXT;

  15059  4 010727   000001 235007                    LDA     1,DL
         4 010730   200005 755100                    STA     CLASS,,AUTO
PL6.E3A0      #002=ASL$LIST_OUT File=ASL$EXT.:E05TSI                             TUE 07/29/97 09:59 Page:378
         4 010731   012074 710000 4                  TRA     s:15373

     2080    15060
     2081    15061    4         SELECT(L_MACCT); /*  non settable - comes from makeme account  */

     2082    15062
     2083    15063    5         IF NOT DO_FLAG (L_JCL) THEN DO;

  15063  4 010732   200003 470500                    LDP0    @DO_FLAG,,AUTO
         4 010733   000000 066500                    CMPB    filb='0'B
         4 010734   000003 670001                    BDSC    3,,PR0                   by=3,bit=7,n=1
         4 010735   000002 000022 xsym               BDSC    B_VECTNIL+2              by=0,bit=0,n=18
         4 010736   011012 601000 4                  TNZ     s:15077

     2084    15064    5            IF AS_USERS.BUDGET.MACCT = AS_NONE

  15064  4 010737   000000 106400                    CMPC    fill='000'O
         4 010740   000012 000025 xsym               ADSC9   AS_USERS+10              cn=0,n=21
         4 010741   000000 000025 xsym               ADSC9   AS_NONE                  cn=0,n=21
         4 010742   010747 601000 4                  TNZ     s:15068

     2085    15065    5            THEN
     2086    15066    5               MACCT = AS_NONE.TEXT;

  15066  4 010743   040100 100400                    MLR     fill='040'O
         4 010744   000000 200024 xsym               ADSC9   AS_NONE                  cn=1,n=20
         4 010745   200206 000025                    ADSC9   MACCT,,AUTO              cn=0,n=21
         4 010746   011001 710000 4                  TRA     s:15073

     2087    15067    6            ELSE DO;

     2088    15068    6               MACCT = AS_BLANK;

  15068  4 010747   040100 100400                    MLR     fill='040'O
         4 010750   000000 000001 xsym               ADSC9   AS_BLANK                 cn=0,n=1
         4 010751   200206 000025                    ADSC9   MACCT,,AUTO              cn=0,n=21

PL6.E3A0      #002=ASL$LIST_OUT File=ASL$EXT.:E05TSI                             TUE 07/29/97 09:59 Page:379
     2089    15069    6               CALL INDEX(SVAL,' ',AS_USERS.BUDGET.MACCT.ACCT);

  15069  4 010752   000000 124400                    SCM     mask='000'O
         4 010753   000012 200010 xsym               ADSC9   AS_USERS+10              cn=1,n=8
         4 010754   000035 000001 xsym               ADSC9   B_VECTNIL+29             cn=0,n=1
         4 010755   200165 000100                    ARG     SVAL,,AUTO

     2090    15070    6               CALL CONCAT(MACCT,SUBSTR(AS_USERS.BUDGET.MACCT.ACCT,0,SVAL),

  15070  4 010756   200165 720100                    LXL0    SVAL,,AUTO
         4 010757   040100 100440                    MLR     fill='040'O
         4 010760   000012 200010 xsym               ADSC9   AS_USERS+10              cn=1,n=*X0
         4 010761   200206 000025                    ADSC9   MACCT,,AUTO              cn=0,n=21
         4 010762   200165 236100                    LDQ     SVAL,,AUTO
         4 010763   000025 116007                    CMPQ    21,DL
         4 010764   011001 605000 4                  TPL     s:15073
         4 010765   777752 621006                    EAX1    -22,QL
         4 010766   777777 661003                    ERX1    -1,DU
         4 010767   040146 100400                    MLR     fill='040'O
         4 010770   000000 000001 5                  ADSC9   0                        cn=0,n=1
         4 010771   200206 000011                    ADSC9   MACCT,Q,AUTO             cn=0,n=*X1
         4 010772   000024 116007                    CMPQ    20,DL
         4 010773   011001 605000 4                  TPL     s:15073
         4 010774   777753 622006                    EAX2    -21,QL
         4 010775   777777 662003                    ERX2    -1,DU
         4 010776   040146 100400                    MLR     fill='040'O
         4 010777   000014 200014 xsym               ADSC9   AS_USERS+12              cn=1,n=12
         4 011000   200206 200012                    ADSC9   MACCT,Q,AUTO             cn=1,n=*X2

     2091    15071    6                    ',',AS_USERS.BUDGET.MACCT.NAME);
     2092    15072    6               END;

     2093    15073    5            FMT_VEC ( 0 ) = VECTOR ( MACCT );

  15073  4 011001   000060 235000 5                  LDA     48
         4 011002   200224 452500                    STP2    I+2,,AUTO
         4 011003   200224 236100                    LDQ     I+2,,AUTO
PL6.E3A0      #002=ASL$LIST_OUT File=ASL$EXT.:E05TSI                             TUE 07/29/97 09:59 Page:380
         4 011004   000206 036003                    ADLQ    134,DU
         4 011005   000000 755000 xsym               STA     FMT_VEC
         4 011006   000001 756000 xsym               STQ     FMT_VEC+1

     2094    15074    5            CLASS = C_TEXT;

  15074  4 011007   000001 235007                    LDA     1,DL
         4 011010   200005 755100                    STA     CLASS,,AUTO

     2095    15075    5            END; /* Not jcl  */

  15075  4 011011   012074 710000 4                  TRA     s:15373

     2096    15076    4         ELSE
     2097    15077    4            CLASS = -1;

  15077  4 011012   000001 335007                    LCA     1,DL
         4 011013   200005 755100                    STA     CLASS,,AUTO
         4 011014   012074 710000 4                  TRA     s:15373

     2098    15078
     2099    15079    4         SELECT(L_MAXC); /* Mcharges = ddddddd.dd  budget suboption  */

     2100    15080
     2101    15081    5         IF AS_USERS.BUDGET.MAXC = -1 THEN DO;

  15081  4 011015   000006 235000 xsym               LDA     AS_USERS+6
         4 011016   000027 115000 xsym               CMPA    B_VECTNIL+23
         4 011017   011026 601000 4                  TNZ     s:15086

     2102    15082    5            FMT_VEC ( 0 ) = VECTOR ( NONE_STR );

  15082  4 011020   000056 237000 5                  LDAQ    46
         4 011021   000000 755000 xsym               STA     FMT_VEC
         4 011022   000001 756000 xsym               STQ     FMT_VEC+1

     2103    15083    5            CLASS = C_TEXT;
PL6.E3A0      #002=ASL$LIST_OUT File=ASL$EXT.:E05TSI                             TUE 07/29/97 09:59 Page:381

  15083  4 011023   000001 235007                    LDA     1,DL
         4 011024   200005 755100                    STA     CLASS,,AUTO

     2104    15084    5            END;

  15084  4 011025   012074 710000 4                  TRA     s:15373

     2105    15085    5         ELSE DO;

     2106    15086    5            SVAL = AS_USERS.BUDGET.MAXC;

  15086  4 011026   200165 755100                    STA     SVAL,,AUTO

     2107    15087    5            CLASS = C_MONEY;

  15087  4 011027   000004 236007                    LDQ     4,DL
         4 011030   200005 756100                    STQ     CLASS,,AUTO

     2108    15088    5            END;

  15088  4 011031   012074 710000 4                  TRA     s:15373

     2109    15089
     2110    15090    4         SELECT(L_MEXP); /*  Expire max = { never | days }  */

     2111    15091
     2112    15092    5         IF AS_USERS.MEXP=-1 THEN DO;

  15092  4 011032   000242 235000 xsym               LDA     AS_USERS+162
         4 011033   000027 115000 xsym               CMPA    B_VECTNIL+23
         4 011034   011043 601000 4                  TNZ     s:15097

     2113    15093    5            FMT_VEC ( 0 ) = VECTOR ( NEVER_STR );

  15093  4 011035   000054 237000 5                  LDAQ    44
         4 011036   000000 755000 xsym               STA     FMT_VEC
PL6.E3A0      #002=ASL$LIST_OUT File=ASL$EXT.:E05TSI                             TUE 07/29/97 09:59 Page:382
         4 011037   000001 756000 xsym               STQ     FMT_VEC+1

     2114    15094    5            CLASS = C_TEXT;

  15094  4 011040   000001 235007                    LDA     1,DL
         4 011041   200005 755100                    STA     CLASS,,AUTO

     2115    15095    5            END;

  15095  4 011042   012074 710000 4                  TRA     s:15373

     2116    15096    5         ELSE DO;

     2117    15097    5            FMT_VEC ( 0 ) = VECTOR ( AS_USERS.MEXP );

  15097  4 011043   000250 237000 5                  LDAQ    168
         4 011044   000000 755000 xsym               STA     FMT_VEC
         4 011045   000001 756000 xsym               STQ     FMT_VEC+1

     2118    15098    5            CLASS = C_SBIN;

  15098  4 011046   000014 235007                    LDA     12,DL
         4 011047   200005 755100                    STA     CLASS,,AUTO

     2119    15099    5            END;

  15099  4 011050   012074 710000 4                  TRA     s:15373

     2120    15100
     2121    15101    4         SELECT(L_MDO);

     2122    15102        /* Max do mode=val,mode=val,mode=val,mode=val  services suboption */
     2123    15103
     2124    15104    4         FDS.NVECS# = 8;

  15104  4 011051   000010 235007                    LDA     8,DL
         4 011052   000011 755000 xsym               STA     FDS+9
PL6.E3A0      #002=ASL$LIST_OUT File=ASL$EXT.:E05TSI                             TUE 07/29/97 09:59 Page:383

     2125    15105    5         DO BOG_IDX = 0 TO 3;

  15105  4 011053   200203 450100                    STZ     BOG_IDX,,AUTO

     2126    15106    5            FMT_VEC ( BOG_IDX*2+1 ) = VECTOR ( AS_USERS.MDO(BOG_IDX));

  15106  4 011054   200203 235100                    LDA     BOG_IDX,,AUTO
         4 011055   000002 735000                    ALS     2
         4 011056   000000 620005                    EAX0    0,AL
         4 011057   777640 235007                    LDA     -96,DL
         4 011060   200203 236100                    LDQ     BOG_IDX,,AUTO
         4 011061   000022 736000                    QLS     18
         4 011062   000252 036000 5                  ADLQ    170
         4 011063   000002 755010 xsym               STA     FMT_VEC+2,X0
         4 011064   000003 756010 xsym               STQ     FMT_VEC+3,X0

     2127    15107    5            END; /*  Loop on number of modes  */

  15107  4 011065   200203 054100                    AOS     BOG_IDX,,AUTO
         4 011066   200203 235100                    LDA     BOG_IDX,,AUTO
         4 011067   000003 115007                    CMPA    3,DL
         4 011070   011054 604400 4                  TMOZ    s:15106

     2128    15108    4         CLASS = C_MODE_SBIN ;

  15108  4 011071   000006 236007                    LDQ     6,DL
         4 011072   200005 756100                    STQ     CLASS,,AUTO
         4 011073   012074 710000 4                  TRA     s:15373

     2129    15109
     2130    15110    4         SELECT(L_MLO);

     2131    15111        /* Max lo mode=val,mode=val,mode=val,mode=val  services suboption */
     2132    15112
     2133    15113    4         FDS.NVECS# = 8;

PL6.E3A0      #002=ASL$LIST_OUT File=ASL$EXT.:E05TSI                             TUE 07/29/97 09:59 Page:384
  15113  4 011074   000010 235007                    LDA     8,DL
         4 011075   000011 755000 xsym               STA     FDS+9

     2134    15114    5         DO BOG_IDX = 0 TO 3;

  15114  4 011076   200203 450100                    STZ     BOG_IDX,,AUTO

     2135    15115    5            FMT_VEC ( BOG_IDX*2+1 ) = VECTOR ( AS_USERS.MLO(BOG_IDX));

  15115  4 011077   200203 235100                    LDA     BOG_IDX,,AUTO
         4 011100   000002 735000                    ALS     2
         4 011101   000000 620005                    EAX0    0,AL
         4 011102   777640 235007                    LDA     -96,DL
         4 011103   200203 236100                    LDQ     BOG_IDX,,AUTO
         4 011104   000022 736000                    QLS     18
         4 011105   000253 036000 5                  ADLQ    171
         4 011106   000002 755010 xsym               STA     FMT_VEC+2,X0
         4 011107   000003 756010 xsym               STQ     FMT_VEC+3,X0

     2136    15116    5            END; /*  Loop on number of modes  */

  15116  4 011110   200203 054100                    AOS     BOG_IDX,,AUTO
         4 011111   200203 235100                    LDA     BOG_IDX,,AUTO
         4 011112   000003 115007                    CMPA    3,DL
         4 011113   011077 604400 4                  TMOZ    s:15115

     2137    15117    4         CLASS = C_MODE_SBIN ;

  15117  4 011114   000006 236007                    LDQ     6,DL
         4 011115   200005 756100                    STQ     CLASS,,AUTO
         4 011116   012074 710000 4                  TRA     s:15373

     2138    15118
     2139    15119    4         SELECT(L_MMEM);

     2140    15120        /*  Memory max mode=val,mode=val,mode=val,mode=val */
     2141    15121
PL6.E3A0      #002=ASL$LIST_OUT File=ASL$EXT.:E05TSI                             TUE 07/29/97 09:59 Page:385
     2142    15122    4         FDS.NVECS# = 8;

  15122  4 011117   000010 235007                    LDA     8,DL
         4 011120   000011 755000 xsym               STA     FDS+9

     2143    15123    5         DO BOG_IDX = 0 TO 3;

  15123  4 011121   200203 450100                    STZ     BOG_IDX,,AUTO

     2144    15124    5            FMT_VEC ( BOG_IDX*2+1 ) = VECTOR ( AS_USERS.MMEM(BOG_IDX) ) ;

  15124  4 011122   200203 235100                    LDA     BOG_IDX,,AUTO
         4 011123   000002 735000                    ALS     2
         4 011124   000000 620005                    EAX0    0,AL
         4 011125   377640 235007                    LDA     130976,DL
         4 011126   200203 236100                    LDQ     BOG_IDX,,AUTO
         4 011127   000021 736000                    QLS     17
         4 011130   000254 036000 5                  ADLQ    172
         4 011131   000002 755010 xsym               STA     FMT_VEC+2,X0
         4 011132   000003 756010 xsym               STQ     FMT_VEC+3,X0

     2145    15125    5            END; /*  Loop on number of modes  */

  15125  4 011133   200203 054100                    AOS     BOG_IDX,,AUTO
         4 011134   200203 235100                    LDA     BOG_IDX,,AUTO
         4 011135   000003 115007                    CMPA    3,DL
         4 011136   011122 604400 4                  TMOZ    s:15124

     2146    15126    4         CLASS = C_MODE_SBIN ;

  15126  4 011137   000006 236007                    LDQ     6,DL
         4 011140   200005 756100                    STQ     CLASS,,AUTO
         4 011141   012074 710000 4                  TRA     s:15373

     2147    15127
     2148    15128    4         SELECT(L_MPDP);

PL6.E3A0      #002=ASL$LIST_OUT File=ASL$EXT.:E05TSI                             TUE 07/29/97 09:59 Page:386
     2149    15129        /* Max pdis mode=val,mode=val,mode=val,mode=val  services suboption */
     2150    15130
     2151    15131    4         FDS.NVECS# = 8;

  15131  4 011142   000010 235007                    LDA     8,DL
         4 011143   000011 755000 xsym               STA     FDS+9

     2152    15132    5         DO BOG_IDX = 0 TO 3;

  15132  4 011144   200203 450100                    STZ     BOG_IDX,,AUTO

     2153    15133    5            FMT_VEC ( BOG_IDX*2+1 ) = VECTOR ( AS_USERS.MPDIS(BOG_IDX));

  15133  4 011145   200203 235100                    LDA     BOG_IDX,,AUTO
         4 011146   000002 735000                    ALS     2
         4 011147   000000 620005                    EAX0    0,AL
         4 011150   777640 235007                    LDA     -96,DL
         4 011151   200203 236100                    LDQ     BOG_IDX,,AUTO
         4 011152   000022 736000                    QLS     18
         4 011153   000255 036000 5                  ADLQ    173
         4 011154   000002 755010 xsym               STA     FMT_VEC+2,X0
         4 011155   000003 756010 xsym               STQ     FMT_VEC+3,X0

     2154    15134    5            END; /*  Loop on number of modes  */

  15134  4 011156   200203 054100                    AOS     BOG_IDX,,AUTO
         4 011157   200203 235100                    LDA     BOG_IDX,,AUTO
         4 011160   000003 115007                    CMPA    3,DL
         4 011161   011145 604400 4                  TMOZ    s:15133

     2155    15135    4         CLASS = C_MODE_SBIN ;

  15135  4 011162   000006 236007                    LDQ     6,DL
         4 011163   200005 756100                    STQ     CLASS,,AUTO
         4 011164   012074 710000 4                  TRA     s:15373

     2156    15136
PL6.E3A0      #002=ASL$LIST_OUT File=ASL$EXT.:E05TSI                             TUE 07/29/97 09:59 Page:387
     2157    15137    4         SELECT(L_MPO);

     2158    15138        /* Max po mode=val,mode=val,mode=val,mode=val  services suboption */
     2159    15139
     2160    15140    4         FDS.NVECS# = 8;

  15140  4 011165   000010 235007                    LDA     8,DL
         4 011166   000011 755000 xsym               STA     FDS+9

     2161    15141    5         DO BOG_IDX = 0 TO 3;

  15141  4 011167   200203 450100                    STZ     BOG_IDX,,AUTO

     2162    15142    5            FMT_VEC ( BOG_IDX*2+1 ) = VECTOR ( AS_USERS.MPO(BOG_IDX));

  15142  4 011170   200203 235100                    LDA     BOG_IDX,,AUTO
         4 011171   000002 735000                    ALS     2
         4 011172   000000 620005                    EAX0    0,AL
         4 011173   777640 235007                    LDA     -96,DL
         4 011174   200203 236100                    LDQ     BOG_IDX,,AUTO
         4 011175   000022 736000                    QLS     18
         4 011176   000256 036000 5                  ADLQ    174
         4 011177   000002 755010 xsym               STA     FMT_VEC+2,X0
         4 011200   000003 756010 xsym               STQ     FMT_VEC+3,X0

     2163    15143    5            END; /*  Loop on number of modes  */

  15143  4 011201   200203 054100                    AOS     BOG_IDX,,AUTO
         4 011202   200203 235100                    LDA     BOG_IDX,,AUTO
         4 011203   000003 115007                    CMPA    3,DL
         4 011204   011170 604400 4                  TMOZ    s:15142

     2164    15144    4         CLASS = C_MODE_SBIN ;

  15144  4 011205   000006 236007                    LDQ     6,DL
         4 011206   200005 756100                    STQ     CLASS,,AUTO
         4 011207   012074 710000 4                  TRA     s:15373
PL6.E3A0      #002=ASL$LIST_OUT File=ASL$EXT.:E05TSI                             TUE 07/29/97 09:59 Page:388

     2165    15145
     2166    15146    4         SELECT(L_MPOOL);

     2167    15147        /* Max fpools mode=val,mode=val,mode=val,mode=val  services suboption */
     2168    15148
     2169    15149    4         FDS.NVECS# = 8;

  15149  4 011210   000010 235007                    LDA     8,DL
         4 011211   000011 755000 xsym               STA     FDS+9

     2170    15150    5         DO BOG_IDX = 0 TO 3;

  15150  4 011212   200203 450100                    STZ     BOG_IDX,,AUTO

     2171    15151    5            FMT_VEC ( BOG_IDX*2+1 ) = VECTOR ( AS_USERS.MFPOOLS(BOG_IDX));

  15151  4 011213   200203 235100                    LDA     BOG_IDX,,AUTO
         4 011214   000002 735000                    ALS     2
         4 011215   000000 620005                    EAX0    0,AL
         4 011216   177640 235007                    LDA     65440,DL
         4 011217   200203 236100                    LDQ     BOG_IDX,,AUTO
         4 011220   000020 736000                    QLS     16
         4 011221   000257 036000 5                  ADLQ    175
         4 011222   000002 755010 xsym               STA     FMT_VEC+2,X0
         4 011223   000003 756010 xsym               STQ     FMT_VEC+3,X0

     2172    15152    5            END; /*  Loop on number of modes  */

  15152  4 011224   200203 054100                    AOS     BOG_IDX,,AUTO
         4 011225   200203 235100                    LDA     BOG_IDX,,AUTO
         4 011226   000003 115007                    CMPA    3,DL
         4 011227   011213 604400 4                  TMOZ    s:15151

     2173    15153    4         CLASS = C_MODE_SBIN ;

  15153  4 011230   000006 236007                    LDQ     6,DL
PL6.E3A0      #002=ASL$LIST_OUT File=ASL$EXT.:E05TSI                             TUE 07/29/97 09:59 Page:389
         4 011231   200005 756100                    STQ     CLASS,,AUTO
         4 011232   012074 710000 4                  TRA     s:15373

     2174    15154
     2175    15155    4         SELECT(L_MPRI);

     2176    15156        /* Max maxjobprio mode=val,mode=val,mode=val,mode=val  services suboption */
     2177    15157
     2178    15158    4         FDS.NVECS# = 8;

  15158  4 011233   000010 235007                    LDA     8,DL
         4 011234   000011 755000 xsym               STA     FDS+9

     2179    15159    5         DO BOG_IDX = 0 TO 3;

  15159  4 011235   200203 450100                    STZ     BOG_IDX,,AUTO

     2180    15160    5            FMT_VEC ( BOG_IDX*2+1 ) = VECTOR ( AS_USERS.MMPRIO(BOG_IDX));

  15160  4 011236   200203 235100                    LDA     BOG_IDX,,AUTO
         4 011237   000002 735000                    ALS     2
         4 011240   000000 620005                    EAX0    0,AL
         4 011241   177640 235007                    LDA     65440,DL
         4 011242   200203 236100                    LDQ     BOG_IDX,,AUTO
         4 011243   000020 736000                    QLS     16
         4 011244   000260 036000 5                  ADLQ    176
         4 011245   000002 755010 xsym               STA     FMT_VEC+2,X0
         4 011246   000003 756010 xsym               STQ     FMT_VEC+3,X0

     2181    15161    5            END; /*  Loop on number of modes  */

  15161  4 011247   200203 054100                    AOS     BOG_IDX,,AUTO
         4 011250   200203 235100                    LDA     BOG_IDX,,AUTO
         4 011251   000003 115007                    CMPA    3,DL
         4 011252   011236 604400 4                  TMOZ    s:15160

     2182    15162    4         CLASS = C_MODE_SBIN ;
PL6.E3A0      #002=ASL$LIST_OUT File=ASL$EXT.:E05TSI                             TUE 07/29/97 09:59 Page:390

  15162  4 011253   000006 236007                    LDQ     6,DL
         4 011254   200005 756100                    STQ     CLASS,,AUTO
         4 011255   012074 710000 4                  TRA     s:15373

     2183    15163
     2184    15164    4         SELECT(L_MTDP);

     2185    15165        /* Max tdis mode=val,mode=val,mode=val,mode=val  services suboption */
     2186    15166
     2187    15167    4         FDS.NVECS# = 8;

  15167  4 011256   000010 235007                    LDA     8,DL
         4 011257   000011 755000 xsym               STA     FDS+9

     2188    15168    5         DO BOG_IDX = 0 TO 3;

  15168  4 011260   200203 450100                    STZ     BOG_IDX,,AUTO

     2189    15169    5            FMT_VEC ( BOG_IDX*2+1 ) = VECTOR ( AS_USERS.MTDIS(BOG_IDX));

  15169  4 011261   200203 235100                    LDA     BOG_IDX,,AUTO
         4 011262   000002 735000                    ALS     2
         4 011263   000000 620005                    EAX0    0,AL
         4 011264   777640 235007                    LDA     -96,DL
         4 011265   200203 236100                    LDQ     BOG_IDX,,AUTO
         4 011266   000022 736000                    QLS     18
         4 011267   000261 036000 5                  ADLQ    177
         4 011270   000002 755010 xsym               STA     FMT_VEC+2,X0
         4 011271   000003 756010 xsym               STQ     FMT_VEC+3,X0

     2190    15170    5            END; /*  Loop on number of modes  */

  15170  4 011272   200203 054100                    AOS     BOG_IDX,,AUTO
         4 011273   200203 235100                    LDA     BOG_IDX,,AUTO
         4 011274   000003 115007                    CMPA    3,DL
         4 011275   011261 604400 4                  TMOZ    s:15169
PL6.E3A0      #002=ASL$LIST_OUT File=ASL$EXT.:E05TSI                             TUE 07/29/97 09:59 Page:391

     2191    15171    4         CLASS = C_MODE_SBIN ;

  15171  4 011276   000006 236007                    LDQ     6,DL
         4 011277   200005 756100                    STQ     CLASS,,AUTO
         4 011300   012074 710000 4                  TRA     s:15373

     2192    15172
     2193    15173    4         SELECT(L_MTIME);

     2194    15174        /*  Time max mode=val,mode=val,mode=val,mode=val */
     2195    15175
     2196    15176    4         FDS.NVECS# = 8;

  15176  4 011301   000010 235007                    LDA     8,DL
         4 011302   000011 755000 xsym               STA     FDS+9

     2197    15177    5         DO BOG_IDX = 0 TO 3;

  15177  4 011303   200203 450100                    STZ     BOG_IDX,,AUTO

     2198    15178    5            SBINS ( BOG_IDX ) = AS_USERS.MTIME(BOG_IDX)/6000;

  15178  4 011304   200203 720100                    LXL0    BOG_IDX,,AUTO
         4 011305   000251 236010 xsym               LDQ     AS_USERS+169,X0
         4 011306   000001 772000                    QRL     1
         4 011307   005670 506007                    DIV     3000,DL
         4 011310   200020 756110                    STQ     SBINS,X0,AUTO

     2199    15179    5            FMT_VEC ( BOG_IDX*2+1 ) = VECTOR ( SBINS ( BOG_IDX ) ) ;

  15179  4 011311   200203 235100                    LDA     BOG_IDX,,AUTO
         4 011312   000002 735000                    ALS     2
         4 011313   000000 621005                    EAX1    0,AL
         4 011314   777640 235007                    LDA     -96,DL
         4 011315   200224 452500                    STP2    I+2,,AUTO
         4 011316   200203 236100                    LDQ     BOG_IDX,,AUTO
PL6.E3A0      #002=ASL$LIST_OUT File=ASL$EXT.:E05TSI                             TUE 07/29/97 09:59 Page:392
         4 011317   000022 736000                    QLS     18
         4 011320   000020 036003                    ADLQ    16,DU
         4 011321   200224 036100                    ADLQ    I+2,,AUTO
         4 011322   000002 755011 xsym               STA     FMT_VEC+2,X1
         4 011323   000003 756011 xsym               STQ     FMT_VEC+3,X1

     2200    15180    5            END; /*  Loop on number of modes  */

  15180  4 011324   200203 054100                    AOS     BOG_IDX,,AUTO
         4 011325   200203 235100                    LDA     BOG_IDX,,AUTO
         4 011326   000003 115007                    CMPA    3,DL
         4 011327   011304 604400 4                  TMOZ    s:15178

     2201    15181    4         CLASS = C_MODE_SBIN ;

  15181  4 011330   000006 236007                    LDQ     6,DL
         4 011331   200005 756100                    STQ     CLASS,,AUTO
         4 011332   012074 710000 4                  TRA     s:15373

     2202    15182
     2203    15183    4         SELECT(L_NATIVE); /*  Nativel = {letter | none}  */

     2204    15184
     2205    15185    4         IF AS_USERS.NAT_LANG = ' ' THEN

  15185  4 011333   000005 236000 xsym               LDQ     AS_USERS+5
         4 011334   777000 376003                    ANQ     -512,DU
         4 011335   040000 116003                    CMPQ    16384,DU
         4 011336   011343 601000 4                  TNZ     s:15188

     2206    15186    4            FMT_VEC ( 0 ) = VECTOR ( NONE_STR );

  15186  4 011337   000056 237000 5                  LDAQ    46
         4 011340   000000 755000 xsym               STA     FMT_VEC
         4 011341   000001 756000 xsym               STQ     FMT_VEC+1
         4 011342   011346 710000 4                  TRA     s:15189

PL6.E3A0      #002=ASL$LIST_OUT File=ASL$EXT.:E05TSI                             TUE 07/29/97 09:59 Page:393
     2207    15187    4         ELSE
     2208    15188    4            FMT_VEC ( 0 ) = VECTOR ( AS_USERS.NAT_LANG );

  15188  4 011343   000044 237000 5                  LDAQ    36
         4 011344   000000 755000 xsym               STA     FMT_VEC
         4 011345   000001 756000 xsym               STQ     FMT_VEC+1

     2209    15189    4         CLASS = C_TEXT;

  15189  4 011346   000001 235007                    LDA     1,DL
         4 011347   200005 755100                    STA     CLASS,,AUTO
         4 011350   012074 710000 4                  TRA     s:15373

     2210    15190
     2211    15191    4         SELECT(L_OUTPUTPRIO); /* Outputprio = value  */

     2212    15192
     2213    15193    4         FMT_VEC ( 0 ) = VECTOR ( AS_USERS.OUTPUTPRIO );

  15193  4 011351   000262 237000 5                  LDAQ    178
         4 011352   000000 755000 xsym               STA     FMT_VEC
         4 011353   000001 756000 xsym               STQ     FMT_VEC+1

     2214    15194    4         CLASS = C_SBIN;

  15194  4 011354   000014 235007                    LDA     12,DL
         4 011355   200005 755100                    STA     CLASS,,AUTO
         4 011356   012074 710000 4                  TRA     s:15373

     2215    15195
     2216    15196    4         SELECT(L_PASS);
             15196                  /*  Password = o'dddddddddddddddddddddddd'  24 octal digits  */

     2217    15197
     2218    15198    4         SUBSTR (FMT_BUF, FDS.FMT_.BOUND+1, 16) = ' = O''%12ZO%12ZO''';

  15198  4 011357   000000 236000 xsym               LDQ     FDS
PL6.E3A0      #002=ASL$LIST_OUT File=ASL$EXT.:E05TSI                             TUE 07/29/97 09:59 Page:394
         4 011360   000020 772000                    QRL     16
         4 011361   040006 100400                    MLR     fill='040'O
         4 011362   005202 000020 2                  ADSC9   PRIV_TBL+274             cn=0,n=16
         4 011363   000000 200020 xsym               ADSC9   FMT_BUF,Q                cn=1,n=16

     2219    15199    4         FDS.FMT_.BOUND = FDS.FMT_.BOUND + 16;

  15199  4 011364   000020 036007                    ADLQ    16,DL
         4 011365   000020 736000                    QLS     16
         4 011366   000000 676000 xsym               ERQ     FDS
         4 011367   000034 376000 xsym               ANQ     B_VECTNIL+28
         4 011370   000000 656000 xsym               ERSQ    FDS

     2220    15200    4         FMT_VEC ( 0 ) = VECTOR ( SUBSTR ( KL_DREC.PASSWORD ,0,4 ) );

  15200  4 011371   000264 237000 5                  LDAQ    180
         4 011372   000000 755000 xsym               STA     FMT_VEC
         4 011373   000001 756000 xsym               STQ     FMT_VEC+1

     2221    15201    4         FMT_VEC ( 1 ) = VECTOR ( SUBSTR ( KL_DREC.PASSWORD, 4,4 ) );

  15201  4 011374   000266 237000 5                  LDAQ    182
         4 011375   000002 755000 xsym               STA     FMT_VEC+2
         4 011376   000003 756000 xsym               STQ     FMT_VEC+3

     2222    15202    4         FDS.NVECS# = 2;

  15202  4 011377   000002 235007                    LDA     2,DL
         4 011400   000011 755000 xsym               STA     FDS+9

     2223    15203    4         CLASS = C_ALL_DONE ;

  15203  4 011401   000034 235007                    LDA     28,DL
         4 011402   200005 755100                    STA     CLASS,,AUTO
         4 011403   012074 710000 4                  TRA     s:15373

     2224    15204
PL6.E3A0      #002=ASL$LIST_OUT File=ASL$EXT.:E05TSI                             TUE 07/29/97 09:59 Page:395
     2225    15205    4         SELECT(L_PCHARGE); /*  Pcharge = { yes | no }  budget suboption  */

     2226    15206
     2227    15207    4         SUBSTR (FMT_BUF, FDS.FMT_.BOUND+1, 9) = '%1.9.1.2P';

  15207  4 011404   000000 236000 xsym               LDQ     FDS
         4 011405   000020 772000                    QRL     16
         4 011406   040006 100400                    MLR     fill='040'O
         4 011407   005206 000011 2                  ADSC9   PRIV_TBL+278             cn=0,n=9
         4 011410   000000 200011 xsym               ADSC9   FMT_BUF,Q                cn=1,n=9

     2228    15208    4         FDS.FMT_.BOUND = FDS.FMT_.BOUND + 9;

  15208  4 011411   000011 036007                    ADLQ    9,DL
         4 011412   000020 736000                    QLS     16
         4 011413   000000 676000 xsym               ERQ     FDS
         4 011414   000034 376000 xsym               ANQ     B_VECTNIL+28
         4 011415   000000 656000 xsym               ERSQ    FDS

     2229    15209    4         FMT_VEC ( 0 ) = VECTOR ( AS_USERS.BUDGET );

  15209  4 011416   000214 237000 5                  LDAQ    140
         4 011417   000000 755000 xsym               STA     FMT_VEC
         4 011420   000001 756000 xsym               STQ     FMT_VEC+1

     2230    15210    4         CLASS = C_YESNO;

  15210  4 011421   000002 235007                    LDA     2,DL
         4 011422   200005 755100                    STA     CLASS,,AUTO

     2231    15211    4         POSITION = %YES#;

  15211  4 011423   400000 236003                    LDQ     -131072,DU
         4 011424   200017 756100                    STQ     POSITION,,AUTO
         4 011425   012074 710000 4                  TRA     s:15373

     2232    15212
PL6.E3A0      #002=ASL$LIST_OUT File=ASL$EXT.:E05TSI                             TUE 07/29/97 09:59 Page:396
     2233    15213    4         SELECT(L_PRIOB) ; /* Priob mode=value,mode=value,mode=value,mode=value */

     2234    15214
     2235    15215    4         FDS.NVECS# = 8;

  15215  4 011426   000010 235007                    LDA     8,DL
         4 011427   000011 755000 xsym               STA     FDS+9

     2236    15216    5         DO BOG_IDX = 0 TO 3;

  15216  4 011430   200203 450100                    STZ     BOG_IDX,,AUTO

     2237    15217    5            FMT_VEC ((BOG_IDX*2)+1) = VECTOR ( AS_USERS.PRIOB (BOG_IDX) ) ;

  15217  4 011431   200203 235100                    LDA     BOG_IDX,,AUTO
         4 011432   000002 735000                    ALS     2
         4 011433   000000 620005                    EAX0    0,AL
         4 011434   177640 235007                    LDA     65440,DL
         4 011435   200203 236100                    LDQ     BOG_IDX,,AUTO
         4 011436   000020 736000                    QLS     16
         4 011437   000270 036000 5                  ADLQ    184
         4 011440   000002 755010 xsym               STA     FMT_VEC+2,X0
         4 011441   000003 756010 xsym               STQ     FMT_VEC+3,X0

     2238    15218    5            END; /*  Loop on number of modes  */

  15218  4 011442   200203 054100                    AOS     BOG_IDX,,AUTO
         4 011443   200203 235100                    LDA     BOG_IDX,,AUTO
         4 011444   000003 115007                    CMPA    3,DL
         4 011445   011431 604400 4                  TMOZ    s:15217

     2239    15219    4         CLASS = C_MODE_SBIN ;

  15219  4 011446   000006 236007                    LDQ     6,DL
         4 011447   200005 756100                    STQ     CLASS,,AUTO
         4 011450   012074 710000 4                  TRA     s:15373

PL6.E3A0      #002=ASL$LIST_OUT File=ASL$EXT.:E05TSI                             TUE 07/29/97 09:59 Page:397
     2240    15220
     2241    15221    4         SELECT(L_MAXENQ) ; /* Maxenq mode=value,mode=value,mode=value,mode=value */

     2242    15222
     2243    15223    4         FDS.NVECS#=8;

  15223  4 011451   000010 235007                    LDA     8,DL
         4 011452   000011 755000 xsym               STA     FDS+9

     2244    15224    5         DO BOG_IDX = 0 TO 3;

  15224  4 011453   200203 450100                    STZ     BOG_IDX,,AUTO

     2245    15225    5            FMT_VEC ((BOG_IDX*2)+1) = VECTOR ( AS_USERS.MAXENQ (BOG_IDX) );

  15225  4 011454   200203 235100                    LDA     BOG_IDX,,AUTO
         4 011455   000002 735000                    ALS     2
         4 011456   000000 620005                    EAX0    0,AL
         4 011457   377640 235007                    LDA     130976,DL
         4 011460   200203 236100                    LDQ     BOG_IDX,,AUTO
         4 011461   000021 736000                    QLS     17
         4 011462   000271 036000 5                  ADLQ    185
         4 011463   000002 755010 xsym               STA     FMT_VEC+2,X0
         4 011464   000003 756010 xsym               STQ     FMT_VEC+3,X0

     2246    15226    5            END; /*  Loop on number of modes  */

  15226  4 011465   200203 054100                    AOS     BOG_IDX,,AUTO
         4 011466   200203 235100                    LDA     BOG_IDX,,AUTO
         4 011467   000003 115007                    CMPA    3,DL
         4 011470   011454 604400 4                  TMOZ    s:15225

     2247    15227    4         CLASS = C_MODE_SBIN ;

  15227  4 011471   000006 236007                    LDQ     6,DL
         4 011472   200005 756100                    STQ     CLASS,,AUTO
         4 011473   012074 710000 4                  TRA     s:15373
PL6.E3A0      #002=ASL$LIST_OUT File=ASL$EXT.:E05TSI                             TUE 07/29/97 09:59 Page:398

     2248    15228
     2249    15229    4         SELECT(L_PRO);  /*  Profile = { profilename | none }  */

     2250    15230
     2251    15231    4         IF KL_DREC.PNAME.CNT = 0 THEN

  15231  4 011474   000004 236000 xsym               LDQ     KL_DREC+4
         4 011475   777000 316003                    CANQ    -512,DU
         4 011476   011503 601000 4                  TNZ     s:15234

     2252    15232    4            FMT_VEC ( 0 ) = VECTOR ( NONE_STR );

  15232  4 011477   000056 237000 5                  LDAQ    46
         4 011500   000000 755000 xsym               STA     FMT_VEC
         4 011501   000001 756000 xsym               STQ     FMT_VEC+1
         4 011502   011512 710000 4                  TRA     s:15235

     2253    15233    4         ELSE
     2254    15234    4            FMT_VEC ( 0 ) = VECTOR(ADDR(KL_DREC.PNAME)->TEXT$C.C);

  15234  4 011503   000004 236000 xsym               LDQ     KL_DREC+4
         4 011504   000033 772000                    QRL     27
         4 011505   000064 737000                    LLS     52
         4 011506   000140 135007                    SBLA    96,DL
         4 011507   000050 236000 5                  LDQ     40
         4 011510   000000 755000 xsym               STA     FMT_VEC
         4 011511   000001 756000 xsym               STQ     FMT_VEC+1

     2255    15235    4         CLASS = C_TEXT;

  15235  4 011512   000001 235007                    LDA     1,DL
         4 011513   200005 755100                    STA     CLASS,,AUTO
         4 011514   012074 710000 4                  TRA     s:15373

     2256    15236
     2257    15237    4         SELECT(L_QUAN) ; /* Quan mode=value,mode=value,mode=value,mode=value */
PL6.E3A0      #002=ASL$LIST_OUT File=ASL$EXT.:E05TSI                             TUE 07/29/97 09:59 Page:399

     2258    15238
     2259    15239    4         FDS.NVECS# = 8;

  15239  4 011515   000010 235007                    LDA     8,DL
         4 011516   000011 755000 xsym               STA     FDS+9

     2260    15240    5         DO BOG_IDX = 0 TO 3;

  15240  4 011517   200203 450100                    STZ     BOG_IDX,,AUTO

     2261    15241    5            FMT_VEC ((BOG_IDX*2)+1) = VECTOR ( AS_USERS.QUAN(BOG_IDX) ) ;

  15241  4 011520   200203 235100                    LDA     BOG_IDX,,AUTO
         4 011521   000002 735000                    ALS     2
         4 011522   000000 620005                    EAX0    0,AL
         4 011523   377640 235007                    LDA     130976,DL
         4 011524   200203 236100                    LDQ     BOG_IDX,,AUTO
         4 011525   000021 736000                    QLS     17
         4 011526   000272 036000 5                  ADLQ    186
         4 011527   000002 755010 xsym               STA     FMT_VEC+2,X0
         4 011530   000003 756010 xsym               STQ     FMT_VEC+3,X0

     2262    15242    5            END; /*  Loop on number of modes  */

  15242  4 011531   200203 054100                    AOS     BOG_IDX,,AUTO
         4 011532   200203 235100                    LDA     BOG_IDX,,AUTO
         4 011533   000003 115007                    CMPA    3,DL
         4 011534   011520 604400 4                  TMOZ    s:15241

     2263    15243    4         CLASS = C_MODE_SBIN ;

  15243  4 011535   000006 236007                    LDQ     6,DL
         4 011536   200005 756100                    STQ     CLASS,,AUTO
         4 011537   012074 710000 4                  TRA     s:15373

     2264    15244
PL6.E3A0      #002=ASL$LIST_OUT File=ASL$EXT.:E05TSI                             TUE 07/29/97 09:59 Page:400
     2265    15245    4         SELECT(L_SETUP); /*  Setup mode='string',{alterable|unalterable} */

     2266    15246                           /*  There must be one of these for each host mode  */
     2267    15247    4         SUBSTR (FMT_BUF, FDS.FMT_.BOUND+1, 13) = '%A = ''%>A'',%A';

  15247  4 011540   000000 236000 xsym               LDQ     FDS
         4 011541   000020 772000                    QRL     16
         4 011542   040006 100400                    MLR     fill='040'O
         4 011543   005211 000015 2                  ADSC9   PRIV_TBL+281             cn=0,n=13
         4 011544   000000 200015 xsym               ADSC9   FMT_BUF,Q                cn=1,n=13

     2268    15248    4         FDS.FMT_.BOUND = FDS.FMT_.BOUND + 13;

  15248  4 011545   000015 036007                    ADLQ    13,DL
         4 011546   000020 736000                    QLS     16
         4 011547   000000 676000 xsym               ERQ     FDS
         4 011550   000034 376000 xsym               ANQ     B_VECTNIL+28
         4 011551   000000 656000 xsym               ERSQ    FDS

     2269    15249    4         CLASS = 0;

  15249  4 011552   200005 450100                    STZ     CLASS,,AUTO

     2270    15250    4         FDS.NVECS# = 3;

  15250  4 011553   000003 235007                    LDA     3,DL
         4 011554   000011 755000 xsym               STA     FDS+9

     2271    15251
     2272    15252    5         DO BOG_IDX = 0 TO 3;

  15252  4 011555   200203 450100                    STZ     BOG_IDX,,AUTO

     2273    15253    5            FMT_VEC ( 0 ) = VECTOR ( JCL_MODES ( BOG_IDX ) ) ;

  15253  4 011556   377640 235007                    LDA     130976,DL
         4 011557   200203 236100                    LDQ     BOG_IDX,,AUTO
PL6.E3A0      #002=ASL$LIST_OUT File=ASL$EXT.:E05TSI                             TUE 07/29/97 09:59 Page:401
         4 011560   000021 736000                    QLS     17
         4 011561   000273 036000 5                  ADLQ    187
         4 011562   000000 755000 xsym               STA     FMT_VEC
         4 011563   000001 756000 xsym               STQ     FMT_VEC+1

     2274    15254    5            IF AS_USERS.SETUP(BOG_IDX) = -1 THEN

  15254  4 011564   200203 235100                    LDA     BOG_IDX,,AUTO
         4 011565   000001 735000                    ALS     1
         4 011566   000100 100405                    MLR     fill='000'O
         4 011567   000352 000002 xsym               ADSC9   AS_USERS+234,A           cn=0,n=2
         4 011570   200224 000004                    ADSC9   I+2,,AUTO                cn=0,n=4
         4 011571   200224 236100                    LDQ     I+2,,AUTO
         4 011572   000022 732000                    QRS     18
         4 011573   000027 116000 xsym               CMPQ    B_VECTNIL+23
         4 011574   011601 601000 4                  TNZ     s:15257

     2275    15255    5               FMT_VEC ( 1 ) = VECTOR(BL_STR) ;

  15255  4 011575   000066 237000 5                  LDAQ    54
         4 011576   000002 755000 xsym               STA     FMT_VEC+2
         4 011577   000003 756000 xsym               STQ     FMT_VEC+3
         4 011600   011622 710000 4                  TRA     s:15264

     2276    15256    6            ELSE DO ;

     2277    15257    6               SIDX = AS_USERS.SETUP(BOG_IDX) ;

  15257  4 011601   000100 100405                    MLR     fill='000'O
         4 011602   000352 000002 xsym               ADSC9   AS_USERS+234,A           cn=0,n=2
         4 011603   200224 000004                    ADSC9   I+2,,AUTO                cn=0,n=4
         4 011604   200224 236100                    LDQ     I+2,,AUTO
         4 011605   000022 732000                    QRS     18
         4 011606   200216 756100                    STQ     SIDX,,AUTO

     2278    15258    6              FMT_VEC ( 1 ) = VECTOR(ADDR(AS_USERS.SETUP_CHRA.TXT_UBIN(SIDX))->TEXT$C.
             15258                        C);
PL6.E3A0      #002=ASL$LIST_OUT File=ASL$EXT.:E05TSI                             TUE 07/29/97 09:59 Page:402

  15258  4 011607   000100 101406                    MRL     fill='000'O
         4 011610   000362 000001 xsym               ADSC9   AS_USERS+242,Q           cn=0,n=1
         4 011611   200224 000002                    ADSC9   I+2,,AUTO                cn=0,n=2
         4 011612   200224 220100                    LDX0    I+2,,AUTO
         4 011613   000000 635010                    EAA     0,X0
         4 011614   000002 771000                    ARL     2
         4 011615   000140 135007                    SBLA    96,DL
         4 011616   000020 736000                    QLS     16
         4 011617   000070 036000 5                  ADLQ    56
         4 011620   000002 755000 xsym               STA     FMT_VEC+2
         4 011621   000003 756000 xsym               STQ     FMT_VEC+3

     2279    15259    6               END ; /*  SETUP(BOG_IDX) ~ blank  */

     2280    15260
     2281    15261                      /* The setup perm field is the alterable command, when
     2282    15262                         the field is alterable, the bit is '0'b.
     2283    15263         */
     2284    15264    5            IF AS_USERS.SETUP_PERM(BOG_IDX) THEN

  15264  4 011622   200203 235100                    LDA     BOG_IDX,,AUTO
         4 011623   011625 605000 4                  TPL     s:15264+3
         4 011624   000044 035003                    ADLA    36,DU
         4 011625   000000 066405                    CMPB    filb='0'B
         4 011626   000351 400001 xsym               BDSC    AS_USERS+233,A           by=2,bit=0,n=1
         4 011627   000002 000022 xsym               BDSC    B_VECTNIL+2              by=0,bit=0,n=18
         4 011630   011635 600000 4                  TZE     s:15267

     2285    15265    5               FMT_VEC (2) = VECTOR (UNALTERABLE_STR);

  15265  4 011631   000200 237000 5                  LDAQ    128
         4 011632   000004 755000 xsym               STA     FMT_VEC+4
         4 011633   000005 756000 xsym               STQ     FMT_VEC+5
         4 011634   011640 710000 4                  TRA     s:15268

     2286    15266    5            ELSE
PL6.E3A0      #002=ASL$LIST_OUT File=ASL$EXT.:E05TSI                             TUE 07/29/97 09:59 Page:403
     2287    15267    5               FMT_VEC (2) = VECTOR (ALTERABLE_STR);

  15267  4 011635   000202 237000 5                  LDAQ    130
         4 011636   000004 755000 xsym               STA     FMT_VEC+4
         4 011637   000005 756000 xsym               STQ     FMT_VEC+5

     2288    15268    5            CALL OUTPUT_FMT;

  15268  4 011640   012114 701000 4                  TSX1    OUTPUT_FMT
         4 011641   000000 011000                    NOP     0

     2289    15269    5            END; /* Loop on modes  */

  15269  4 011642   200203 054100                    AOS     BOG_IDX,,AUTO
         4 011643   200203 235100                    LDA     BOG_IDX,,AUTO
         4 011644   000003 115007                    CMPA    3,DL
         4 011645   011556 604400 4                  TMOZ    s:15253

     2290    15270    4         CLASS = - 1;

  15270  4 011646   000001 336007                    LCQ     1,DL
         4 011647   200005 756100                    STQ     CLASS,,AUTO
         4 011650   012074 710000 4                  TRA     s:15373

     2291    15271
     2292    15272    4         SELECT(L_STARS_ACCT); /*  *S_ACCOUNTING = {yes | no }  */

     2293    15273
     2294    15274    4         SUBSTR (FMT_BUF, FDS.FMT_.BOUND+1, 9) = '%1.0.0.5P';

  15274  4 011651   000000 236000 xsym               LDQ     FDS
         4 011652   000020 772000                    QRL     16
         4 011653   040006 100400                    MLR     fill='040'O
         4 011654   005215 000011 2                  ADSC9   PRIV_TBL+285             cn=0,n=9
         4 011655   000000 200011 xsym               ADSC9   FMT_BUF,Q                cn=1,n=9

     2295    15275    4         FDS.FMT_.BOUND = FDS.FMT_.BOUND + 9;
PL6.E3A0      #002=ASL$LIST_OUT File=ASL$EXT.:E05TSI                             TUE 07/29/97 09:59 Page:404

  15275  4 011656   000011 036007                    ADLQ    9,DL
         4 011657   000020 736000                    QLS     16
         4 011660   000000 676000 xsym               ERQ     FDS
         4 011661   000034 376000 xsym               ANQ     B_VECTNIL+28
         4 011662   000000 656000 xsym               ERSQ    FDS

     2296    15276    4         FMT_VEC ( 0 ) = VECTOR (AS_USERS.FLAGS );

  15276  4 011663   000274 237000 5                  LDAQ    188
         4 011664   000000 755000 xsym               STA     FMT_VEC
         4 011665   000001 756000 xsym               STQ     FMT_VEC+1

     2297    15277    4         CLASS = C_YESNO;

  15277  4 011666   000002 235007                    LDA     2,DL
         4 011667   200005 755100                    STA     CLASS,,AUTO

     2298    15278    4         POSITION = %YES#;

  15278  4 011670   400000 236003                    LDQ     -131072,DU
         4 011671   200017 756100                    STQ     POSITION,,AUTO
         4 011672   012074 710000 4                  TRA     s:15373

     2299    15279
     2300    15280    4         SELECT(L_STEPACCT); /*  Stepaccnt = { yes | no }  */

     2301    15281
     2302    15282    4         SUBSTR (FMT_BUF, FDS.FMT_.BOUND+1, 9) = '%1.5.1.0P';

  15282  4 011673   000000 236000 xsym               LDQ     FDS
         4 011674   000020 772000                    QRL     16
         4 011675   040006 100400                    MLR     fill='040'O
         4 011676   005220 000011 2                  ADSC9   PRIV_TBL+288             cn=0,n=9
         4 011677   000000 200011 xsym               ADSC9   FMT_BUF,Q                cn=1,n=9

     2303    15283    4         FDS.FMT_.BOUND = FDS.FMT_.BOUND + 9;
PL6.E3A0      #002=ASL$LIST_OUT File=ASL$EXT.:E05TSI                             TUE 07/29/97 09:59 Page:405

  15283  4 011700   000011 036007                    ADLQ    9,DL
         4 011701   000020 736000                    QLS     16
         4 011702   000000 676000 xsym               ERQ     FDS
         4 011703   000034 376000 xsym               ANQ     B_VECTNIL+28
         4 011704   000000 656000 xsym               ERSQ    FDS

     2304    15284    4         FMT_VEC ( 0 ) = VECTOR ( AS_USERS );

  15284  4 011705   000276 237000 5                  LDAQ    190
         4 011706   000000 755000 xsym               STA     FMT_VEC
         4 011707   000001 756000 xsym               STQ     FMT_VEC+1

     2305    15285    4         CLASS = C_YESNO;

  15285  4 011710   000002 235007                    LDA     2,DL
         4 011711   200005 755100                    STA     CLASS,,AUTO

     2306    15286    4         POSITION = %YES#;

  15286  4 011712   400000 236003                    LDQ     -131072,DU
         4 011713   200017 756100                    STQ     POSITION,,AUTO
         4 011714   012074 710000 4                  TRA     s:15373

     2307    15287
     2308    15288    4         SELECT(L_WSN); /*  Wsn = workstat  */

     2309    15289
     2310    15290    5         IF KL_DREC.WOO = ' ' THEN DO;

  15290  4 011715   040000 106400                    CMPC    fill='040'O
         4 011716   000007 000010 xsym               ADSC9   KL_DREC+7                cn=0,n=8
         4 011717   000035 000001 xsym               ADSC9   B_VECTNIL+29             cn=0,n=1
         4 011720   011732 601000 4                  TNZ     s:15296

     2311    15291    5            FMT_BUF = '/*  WSN =  */' ;

PL6.E3A0      #002=ASL$LIST_OUT File=ASL$EXT.:E05TSI                             TUE 07/29/97 09:59 Page:406
  15291  4 011721   040000 100400                    MLR     fill='040'O
         4 011722   005223 000015 2                  ADSC9   PRIV_TBL+291             cn=0,n=13
         4 011723   000000 000377 xsym               ADSC9   FMT_BUF                  cn=0,n=255

     2312    15292    5            FDS.FMT_.BOUND = 12;

  15292  4 011724   000000 236000 xsym               LDQ     FDS
         4 011725   177777 376007                    ANQ     65535,DL
         4 011726   000003 276003                    ORQ     3,DU
         4 011727   000000 756000 xsym               STQ     FDS

     2313    15293    5            CLASS = 0;

  15293  4 011730   200005 450100                    STZ     CLASS,,AUTO

     2314    15294    5            END;

  15294  4 011731   012074 710000 4                  TRA     s:15373

     2315    15295    5         ELSE DO;

     2316    15296    5            FMT_VEC ( 0 ) = VECTOR ( KL_DREC.WOO );

  15296  4 011732   000052 237000 5                  LDAQ    42
         4 011733   000000 755000 xsym               STA     FMT_VEC
         4 011734   000001 756000 xsym               STQ     FMT_VEC+1

     2317    15297    5            CLASS = C_TEXT;

  15297  4 011735   000001 235007                    LDA     1,DL
         4 011736   200005 755100                    STA     CLASS,,AUTO

     2318    15298    5            END;

  15298  4 011737   012074 710000 4                  TRA     s:15373

     2319    15299
PL6.E3A0      #002=ASL$LIST_OUT File=ASL$EXT.:E05TSI                             TUE 07/29/97 09:59 Page:407
     2320    15300        /*
     2321    15301           Project and packset options
     2322    15302        */
     2323    15303    4         SELECT(L_ACCTS_VAL); /* Accounts = decimal  */

     2324    15304
     2325    15305    4         FMT_VEC ( 0 ) = VECTOR ( AS_PROJECT_DFLT.BUDGET.PROJ_ALLOWED ) ;

  15305  4 011740   000300 237000 5                  LDAQ    192
         4 011741   000000 755000 xsym               STA     FMT_VEC
         4 011742   000001 756000 xsym               STQ     FMT_VEC+1

     2326    15306    4         CLASS = C_SBIN;

  15306  4 011743   000014 235007                    LDA     12,DL
         4 011744   200005 755100                    STA     CLASS,,AUTO
         4 011745   012074 710000 4                  TRA     s:15373

     2327    15307
     2328    15308    4         SELECT(L_ACCT_ACCUM); /* Accounts accum = decimal  */

     2329    15309
     2330    15310    4         FMT_VEC ( 0 ) = VECTOR ( AS_PROJECT_DFLT.BUDGET.PROJ_CREATED ) ;

  15310  4 011746   000302 237000 5                  LDAQ    194
         4 011747   000000 755000 xsym               STA     FMT_VEC
         4 011750   000001 756000 xsym               STQ     FMT_VEC+1

     2331    15311    4         CLASS = C_SBIN;

  15311  4 011751   000014 235007                    LDA     12,DL
         4 011752   200005 755100                    STA     CLASS,,AUTO
         4 011753   012074 710000 4                  TRA     s:15373

     2332    15312
     2333    15313    4         SELECT(L_MCHARGES_VAL); /* Mcharges = {none | value} */

PL6.E3A0      #002=ASL$LIST_OUT File=ASL$EXT.:E05TSI                             TUE 07/29/97 09:59 Page:408
     2334    15314
     2335    15315    5         IF AS_PROJECT.BUDGET.PMAXC = -1 THEN DO;

  15315  4 011754   000010 235000 xsym               LDA     AS_PROJECT+8
         4 011755   000027 115000 xsym               CMPA    B_VECTNIL+23
         4 011756   011765 601000 4                  TNZ     s:15320

     2336    15316    5            FMT_VEC ( 0 ) = VECTOR ( NONE_STR );

  15316  4 011757   000056 237000 5                  LDAQ    46
         4 011760   000000 755000 xsym               STA     FMT_VEC
         4 011761   000001 756000 xsym               STQ     FMT_VEC+1

     2337    15317    5            CLASS = C_TEXT;

  15317  4 011762   000001 235007                    LDA     1,DL
         4 011763   200005 755100                    STA     CLASS,,AUTO

     2338    15318    5            END;

  15318  4 011764   012074 710000 4                  TRA     s:15373

     2339    15319    5         ELSE DO;

     2340    15320    5            SVAL = AS_PROJECT.BUDGET.PMAXC;

  15320  4 011765   200165 755100                    STA     SVAL,,AUTO

     2341    15321    5            CLASS = C_MONEY;

  15321  4 011766   000004 235007                    LDA     4,DL
         4 011767   200005 755100                    STA     CLASS,,AUTO

     2342    15322    5            END;

  15322  4 011770   012074 710000 4                  TRA     s:15373

PL6.E3A0      #002=ASL$LIST_OUT File=ASL$EXT.:E05TSI                             TUE 07/29/97 09:59 Page:409
     2343    15323
     2344    15324    4         SELECT(L_CHG_ACCUM); /* Acharges = decimal */

     2345    15325
     2346    15326    4         SVAL = AS_PROJECT.BUDGET.PACCUM;

  15326  4 011771   000011 235000 xsym               LDA     AS_PROJECT+9
         4 011772   200165 755100                    STA     SVAL,,AUTO

     2347    15327    4         CLASS = C_MONEY;

  15327  4 011773   000004 235007                    LDA     4,DL
         4 011774   200005 755100                    STA     CLASS,,AUTO
         4 011775   012074 710000 4                  TRA     s:15373

     2348    15328
     2349    15329    4         SELECT(L_PROJ_PROJ); /* Projects = decimal  */

     2350    15330
     2351    15331    4         FMT_VEC ( 0 ) = VECTOR ( AS_PROJECT.BUDGET.MAX_PROJECTS );

  15331  4 011776   000304 237000 5                  LDAQ    196
         4 011777   000000 755000 xsym               STA     FMT_VEC
         4 012000   000001 756000 xsym               STQ     FMT_VEC+1

     2352    15332    4         CLASS = C_SBIN;

  15332  4 012001   000014 235007                    LDA     12,DL
         4 012002   200005 755100                    STA     CLASS,,AUTO
         4 012003   012074 710000 4                  TRA     s:15373

     2353    15333
     2354    15334    4         SELECT(L_PROJ_ACCUM); /* Projects accum = decimal  */

     2355    15335
     2356    15336    4         FMT_VEC ( 0 ) = VECTOR ( AS_PROJECT_DFLT.BUDGET.SUB_PROJS );

PL6.E3A0      #002=ASL$LIST_OUT File=ASL$EXT.:E05TSI                             TUE 07/29/97 09:59 Page:410
  15336  4 012004   000306 237000 5                  LDAQ    198
         4 012005   000000 755000 xsym               STA     FMT_VEC
         4 012006   000001 756000 xsym               STQ     FMT_VEC+1

     2357    15337    4         CLASS = C_SBIN;

  15337  4 012007   000014 235007                    LDA     12,DL
         4 012010   200005 755100                    STA     CLASS,,AUTO
         4 012011   012074 710000 4                  TRA     s:15373

     2358    15338
     2359    15339    4         SELECT(L_PACK_ACCT); /*  Accounts = value  */

     2360    15340
     2361    15341    4         FMT_VEC ( 0 ) = VECTOR ( AS$PROJ.MAX_NUM_ACCTS );

  15341  4 012012   777640 235007                    LDA     -96,DL
         4 012013   000000 236000 xsym               LDQ     DSEG2$
         4 012014   000012 036003                    ADLQ    10,DU
         4 012015   000000 755000 xsym               STA     FMT_VEC
         4 012016   000001 756000 xsym               STQ     FMT_VEC+1

     2362    15342    4         CLASS = C_SBIN;

  15342  4 012017   000014 235007                    LDA     12,DL
         4 012020   200005 755100                    STA     CLASS,,AUTO
         4 012021   012074 710000 4                  TRA     s:15373

     2363    15343
     2364    15344    4         SELECT(L_P_ACCT_ACCUM); /*  Accounts accum = value  */

     2365    15345                                   /*  Projects accum = value  */
     2366    15346
     2367    15347    4         FMT_VEC ( 0 ) = VECTOR ( AS$PROJ.NUM_ACCTS );

  15347  4 012022   777640 235007                    LDA     -96,DL
         4 012023   000000 236000 xsym               LDQ     DSEG2$
PL6.E3A0      #002=ASL$LIST_OUT File=ASL$EXT.:E05TSI                             TUE 07/29/97 09:59 Page:411
         4 012024   000013 036003                    ADLQ    11,DU
         4 012025   000000 755000 xsym               STA     FMT_VEC
         4 012026   000001 756000 xsym               STQ     FMT_VEC+1

     2368    15348    4         CLASS = C_SBIN;

  15348  4 012027   000014 235007                    LDA     12,DL
         4 012030   200005 755100                    STA     CLASS,,AUTO

     2369    15349    4         CALL OUTPUT_FMT ;

  15349  4 012031   012114 701000 4                  TSX1    OUTPUT_FMT
         4 012032   000000 011000                    NOP     0

     2370    15350    4         FMT_VEC ( 0 ) = VECTOR ( AS$PROJ.SUB_PROJ_ACCTS );

  15350  4 012033   377640 235007                    LDA     130976,DL
         4 012034   000000 236000 xsym               LDQ     DSEG2$
         4 012035   000310 036000 5                  ADLQ    200
         4 012036   000000 755000 xsym               STA     FMT_VEC
         4 012037   000001 756000 xsym               STQ     FMT_VEC+1

     2371    15351    4         CLASS = 0;

  15351  4 012040   200005 450100                    STZ     CLASS,,AUTO
         4 012041   012074 710000 4                  TRA     s:15373

     2372    15352
     2373    15353    4         SELECT(L_PACK_GRAN); /*  Granules = value  */

     2374    15354
     2375    15355    4         FMT_VEC ( 0 ) = VECTOR ( AS$PROJ.MAX_NUM_GRANS ) ;

  15355  4 012042   777640 235007                    LDA     -96,DL
         4 012043   000000 236000 xsym               LDQ     DSEG2$
         4 012044   000006 036003                    ADLQ    6,DU
         4 012045   000000 755000 xsym               STA     FMT_VEC
PL6.E3A0      #002=ASL$LIST_OUT File=ASL$EXT.:E05TSI                             TUE 07/29/97 09:59 Page:412
         4 012046   000001 756000 xsym               STQ     FMT_VEC+1

     2376    15356    4         CLASS = C_SBIN;

  15356  4 012047   000014 235007                    LDA     12,DL
         4 012050   200005 755100                    STA     CLASS,,AUTO
         4 012051   012074 710000 4                  TRA     s:15373

     2377    15357
     2378    15358    4         SELECT(L_P_GRAN_ACCUM); /* Granules accum = value  */

     2379    15359
     2380    15360    4         FMT_VEC ( 0 ) = VECTOR ( AS$PROJ.GRANS_ACCUM );

  15360  4 012052   777640 235007                    LDA     -96,DL
         4 012053   000000 236000 xsym               LDQ     DSEG2$
         4 012054   000007 036003                    ADLQ    7,DU
         4 012055   000000 755000 xsym               STA     FMT_VEC
         4 012056   000001 756000 xsym               STQ     FMT_VEC+1

     2381    15361    4         CLASS = C_SBIN;

  15361  4 012057   000014 235007                    LDA     12,DL
         4 012060   200005 755100                    STA     CLASS,,AUTO
         4 012061   012074 710000 4                  TRA     s:15373

     2382    15362
     2383    15363    4         SELECT(L_PACK_SKEL); /*  Skeleton = text  */

     2384    15364
     2385    15365    4         FMT_VEC ( 0 ) = VECTOR( AS$PROJ.SKELETON );

  15365  4 012062   000052 235000 5                  LDA     42
         4 012063   000000 236000 xsym               LDQ     DSEG2$
         4 012064   000010 036003                    ADLQ    8,DU
         4 012065   000000 755000 xsym               STA     FMT_VEC
         4 012066   000001 756000 xsym               STQ     FMT_VEC+1
PL6.E3A0      #002=ASL$LIST_OUT File=ASL$EXT.:E05TSI                             TUE 07/29/97 09:59 Page:413

     2386    15366    4         CLASS = C_TEXT;

  15366  4 012067   000001 235007                    LDA     1,DL
         4 012070   200005 755100                    STA     CLASS,,AUTO
         4 012071   012074 710000 4                  TRA     s:15373

     2387    15367
     2388    15368    4         SELECT (ELSE) ;

     2389    15369
     2390    15370    4      CLASS = -1;

  15370  4 012072   000001 335007                    LCA     1,DL
         4 012073   200005 755100                    STA     CLASS,,AUTO

     2391    15371
     2392    15372    4         END;                        /* End case ... finally               */

     2393    15373    3   IF CLASS > -1 THEN

  15373  4 012074   200005 235100                    LDA     CLASS,,AUTO
         4 012075   012100 604000 4                  TMI     s:15376

     2394    15374    3      CALL OUTPUT_FMT;

  15374  4 012076   012114 701000 4                  TSX1    OUTPUT_FMT
         4 012077   000000 011000                    NOP     0

     2395    15375
     2396    15376    3   NEXT_INDEX = NEXT_INDEX + 1;

  15376  4 012100   200215 235100                    LDA     NEXT_INDEX,,AUTO
         4 012101   000001 035007                    ADLA    1,DL
         4 012102   200215 755100                    STA     NEXT_INDEX,,AUTO

     2397    15377    3   NEXT = JCL_OPT_TBL.ORDR (NEXT_INDEX);
PL6.E3A0      #002=ASL$LIST_OUT File=ASL$EXT.:E05TSI                             TUE 07/29/97 09:59 Page:414

  15377  4 012103   200215 236100                    LDQ     NEXT_INDEX,,AUTO
         4 012104   000025 402007                    MPY     21,DL
         4 012105   000100 101406                    MRL     fill='000'O
         4 012106   001530 000001 2                  ADSC9   JCL_OPT_TBL+5,Q          cn=0,n=1
         4 012107   200214 000004                    ADSC9   NEXT,,AUTO               cn=0,n=4

     2398    15378    3      END;   /*  While next > 0  */

  15378  4 012110   200214 235100                    LDA     NEXT,,AUTO
         4 012111   006703 601000 4                  TNZ     s:14720

     2399    15379    2   RETURN;

  15379  4 012112   200200 221300                    LDX1  ! BOG_IDX,,AUTO
         4 012113   000001 702211                    TSX2  ! 1,X1

     2400    15380
     2401    15381    2   END BUILD_JCL_FMT;
     2402    15382        %EJECT;
PL6.E3A0      #002=ASL$LIST_OUT File=ASL$EXT.:E05TSI                             TUE 07/29/97 09:59 Page:415
     2403    15383
     2404    15384    1   OUTPUT_FMT: PROC;

  15384  4 012114   200220 741300       OUTPUT_FMT   STX1  ! NEXT,,AUTO

     2405    15385
     2406    15386    2   DCL BOG_IDX        SBIN;
     2407    15387    2   DCL I              SBIN;
     2408    15388
     2409    15389    3   DO SELECT(CLASS);

  15389  4 012115   200005 236100                    LDQ     CLASS,,AUTO
         4 012116   000005 116007                    CMPQ    5,DL
         4 012117   012140 604000 4                  TMI     s:15389+19
         4 012120   012264 600000 4                  TZE     s:15420
         4 012121   000007 116007                    CMPQ    7,DL
         4 012122   012135 604000 4                  TMI     s:15389+16
         4 012123   012365 600000 4                  TZE     s:15438
         4 012124   000014 116007                    CMPQ    12,DL
         4 012125   012132 604000 4                  TMI     s:15389+13
         4 012126   012166 600000 4                  TZE     s:15397
         4 012127   000034 116007                    CMPQ    28,DL
         4 012130   012453 601000 4                  TNZ     s:15455
         4 012131   012453 710000 4                  TRA     s:15455
         4 012132   000010 116007                    CMPQ    8,DL
         4 012133   012453 601000 4                  TNZ     s:15455
         4 012134   012420 710000 4                  TRA     s:15445
         4 012135   000006 116007                    CMPQ    6,DL
         4 012136   012453 601000 4                  TNZ     s:15455
         4 012137   012332 710000 4                  TRA     s:15431
         4 012140   000002 116007                    CMPQ    2,DL
         4 012141   012146 604000 4                  TMI     s:15389+25
         4 012142   012203 600000 4                  TZE     s:15402
         4 012143   000004 116007                    CMPQ    4,DL
         4 012144   012453 601000 4                  TNZ     s:15455
         4 012145   012220 710000 4                  TRA     s:15408
         4 012146   000001 116007                    CMPQ    1,DL
PL6.E3A0      #002=ASL$LIST_OUT File=ASL$EXT.:E05TSI                             TUE 07/29/97 09:59 Page:416
         4 012147   012453 601000 4                  TNZ     s:15455
         4 012150   012151 710000 4                  TRA     s:15392

     2410    15390
     2411    15391    3      SELECT(C_TEXT);

     2412    15392    3      FDS.NVECS# = 1;

  15392  4 012151   000001 235007                    LDA     1,DL
         4 012152   000011 755000 xsym               STA     FDS+9

     2413    15393    3      CALL INSERT(FMT_BUF,FDS.FMT_.BOUND+1,SIZEC(TEXT_FMT),TEXT_FMT);

  15393  4 012153   000000 236000 xsym               LDQ     FDS
         4 012154   000020 772000                    QRL     16
         4 012155   040006 100400                    MLR     fill='040'O
         4 012156   003146 000006 2                  ADSC9   TEXT_FMT                 cn=0,n=6
         4 012157   000000 200006 xsym               ADSC9   FMT_BUF,Q                cn=1,n=6

     2414    15394    3      FDS.FMT_.BOUND = FDS.FMT_.BOUND + SIZEC(TEXT_FMT);

  15394  4 012160   000006 036007                    ADLQ    6,DL
         4 012161   000020 736000                    QLS     16
         4 012162   000000 676000 xsym               ERQ     FDS
         4 012163   000034 376000 xsym               ANQ     B_VECTNIL+28
         4 012164   000000 656000 xsym               ERSQ    FDS
         4 012165   012453 710000 4                  TRA     s:15455

     2415    15395
     2416    15396    3      SELECT(C_SBIN);

     2417    15397    3      FDS.NVECS# = 1;

  15397  4 012166   000001 235007                    LDA     1,DL
         4 012167   000011 755000 xsym               STA     FDS+9

     2418    15398    3      CALL INSERT(FMT_BUF,FDS.FMT_.BOUND+1,SIZEC(SBIN_FMT),SBIN_FMT);
PL6.E3A0      #002=ASL$LIST_OUT File=ASL$EXT.:E05TSI                             TUE 07/29/97 09:59 Page:417

  15398  4 012170   000000 236000 xsym               LDQ     FDS
         4 012171   000020 772000                    QRL     16
         4 012172   040006 100400                    MLR     fill='040'O
         4 012173   003144 000006 2                  ADSC9   SBIN_FMT                 cn=0,n=6
         4 012174   000000 200006 xsym               ADSC9   FMT_BUF,Q                cn=1,n=6

     2419    15399    3      FDS.FMT_.BOUND = FDS.FMT_.BOUND + SIZEC(SBIN_FMT);

  15399  4 012175   000006 036007                    ADLQ    6,DL
         4 012176   000020 736000                    QLS     16
         4 012177   000000 676000 xsym               ERQ     FDS
         4 012200   000034 376000 xsym               ANQ     B_VECTNIL+28
         4 012201   000000 656000 xsym               ERSQ    FDS
         4 012202   012453 710000 4                  TRA     s:15455

     2420    15400
     2421    15401    3      SELECT(C_YESNO);

     2422    15402    3      FDS.NVECS# = 1;

  15402  4 012203   000001 235007                    LDA     1,DL
         4 012204   000011 755000 xsym               STA     FDS+9

     2423    15403    3      CALL INSERT(FMT_BUF,FDS.FMT_.BOUND+1,SIZEC(YESNO_FMT),YESNO_FMT);

  15403  4 012205   000000 236000 xsym               LDQ     FDS
         4 012206   000020 772000                    QRL     16
         4 012207   040006 100400                    MLR     fill='040'O
         4 012210   003150 000023 2                  ADSC9   YESNO_FMT                cn=0,n=19
         4 012211   000000 200023 xsym               ADSC9   FMT_BUF,Q                cn=1,n=19

     2424    15404    3      FDS.FMT_.BOUND = FDS.FMT_.BOUND + SIZEC(YESNO_FMT);

  15404  4 012212   000023 036007                    ADLQ    19,DL
         4 012213   000020 736000                    QLS     16
         4 012214   000000 676000 xsym               ERQ     FDS
PL6.E3A0      #002=ASL$LIST_OUT File=ASL$EXT.:E05TSI                             TUE 07/29/97 09:59 Page:418
         4 012215   000034 376000 xsym               ANQ     B_VECTNIL+28
         4 012216   000000 656000 xsym               ERSQ    FDS
         4 012217   012453 710000 4                  TRA     s:15455

     2425    15405
     2426    15406    3      SELECT (C_MONEY);

     2427    15407
     2428    15408    3      SVAL = SVAL/100;             /* in pennies              */

  15408  4 012220   200165 236100                    LDQ     SVAL,,AUTO
         4 012221   000144 506007                    DIV     100,DL
         4 012222   200165 756100                    STQ     SVAL,,AUTO

     2429    15409    3      SBINS ( 0 ) = SVAL/100;          /* Dollar amount           */

  15409  4 012223   000144 506007                    DIV     100,DL
         4 012224   200020 756100                    STQ     SBINS,,AUTO

     2430    15410    3      SBINS ( 1 ) = SVAL - SBINS(0)*100;

  15410  4 012225   000106 402000 5                  MPY     70
         4 012226   200165 036100                    ADLQ    SVAL,,AUTO
         4 012227   200021 756100                    STQ     SBINS+1,,AUTO

     2431    15411    3      IF SBINS(1) < 0 THEN

  15411  4 012230   012233 605000 4                  TPL     s:15413

     2432    15412    3         SBINS ( 1 ) = SBINS ( 1 )*-1;

  15412  4 012231   200021 335100                    LCA     SBINS+1,,AUTO
         4 012232   200021 755100                    STA     SBINS+1,,AUTO

     2433    15413    3      FMT_VEC ( 0 ) = VECTOR ( SBINS ( 0 ) );

  15413  4 012233   777640 235007                    LDA     -96,DL
PL6.E3A0      #002=ASL$LIST_OUT File=ASL$EXT.:E05TSI                             TUE 07/29/97 09:59 Page:419
         4 012234   200224 452500                    STP2    I+2,,AUTO
         4 012235   200224 236100                    LDQ     I+2,,AUTO
         4 012236   000020 036003                    ADLQ    16,DU
         4 012237   000000 755000 xsym               STA     FMT_VEC
         4 012240   000001 756000 xsym               STQ     FMT_VEC+1

     2434    15414    3      FMT_VEC ( 1 ) = VECTOR ( SBINS ( 1 ) );

  15414  4 012241   777640 235007                    LDA     -96,DL
         4 012242   200224 452500                    STP2    I+2,,AUTO
         4 012243   200224 236100                    LDQ     I+2,,AUTO
         4 012244   000021 036003                    ADLQ    17,DU
         4 012245   000002 755000 xsym               STA     FMT_VEC+2
         4 012246   000003 756000 xsym               STQ     FMT_VEC+3

     2435    15415    3      FDS.NVECS# = 2;

  15415  4 012247   000002 235007                    LDA     2,DL
         4 012250   000011 755000 xsym               STA     FDS+9

     2436    15416    3      CALL INSERT(FMT_BUF,FDS.FMT_.BOUND+1,SIZEC(MONEY_FMT),MONEY_FMT);

  15416  4 012251   000000 236000 xsym               LDQ     FDS
         4 012252   000020 772000                    QRL     16
         4 012253   040006 100400                    MLR     fill='040'O
         4 012254   003141 000012 2                  ADSC9   MONEY_FMT                cn=0,n=10
         4 012255   000000 200012 xsym               ADSC9   FMT_BUF,Q                cn=1,n=10

     2437    15417    3      FDS.FMT_.BOUND = FDS.FMT_.BOUND + SIZEC(MONEY_FMT);

  15417  4 012256   000012 036007                    ADLQ    10,DL
         4 012257   000020 736000                    QLS     16
         4 012260   000000 676000 xsym               ERQ     FDS
         4 012261   000034 376000 xsym               ANQ     B_VECTNIL+28
         4 012262   000000 656000 xsym               ERSQ    FDS
         4 012263   012453 710000 4                  TRA     s:15455

PL6.E3A0      #002=ASL$LIST_OUT File=ASL$EXT.:E05TSI                             TUE 07/29/97 09:59 Page:420
     2438    15418
     2439    15419    3      SELECT(C_MODE_TEXT);

     2440    15420    3      CALL INSERT(FMT_BUF,FDS.FMT_.BOUND+1,SIZEC(MODE_TEXT_FMT),MODE_TEXT_FMT);

  15420  4 012264   000000 236000 xsym               LDQ     FDS
         4 012265   000020 772000                    QRL     16
         4 012266   040006 100400                    MLR     fill='040'O
         4 012267   003133 000030 2                  ADSC9   MODE_TEXT_FMT            cn=0,n=24
         4 012270   000000 200030 xsym               ADSC9   FMT_BUF,Q                cn=1,n=24

     2441    15421    3      FDS.FMT_.BOUND = FDS.FMT_.BOUND + SIZEC(MODE_TEXT_FMT);

  15421  4 012271   000030 036007                    ADLQ    24,DL
         4 012272   000020 736000                    QLS     16
         4 012273   000000 676000 xsym               ERQ     FDS
         4 012274   000034 376000 xsym               ANQ     B_VECTNIL+28
         4 012275   000000 656000 xsym               ERSQ    FDS

     2442    15422    4      IF FDS.NVECS# = 10 THEN DO;

  15422  4 012276   000011 235000 xsym               LDA     FDS+9
         4 012277   000012 115007                    CMPA    10,DL
         4 012300   012311 601000 4                  TNZ     s:15426

     2443    15423    4         CALL INDEX (I,'3',FMT_BUF);

  15423  4 012301   000000 124400                    SCM     mask='000'O
         4 012302   000000 000377 xsym               ADSC9   FMT_BUF                  cn=0,n=255
         4 012303   000311 000001 5                  ADSC9   201                      cn=0,n=1
         4 012304   200222 000100                    ARG     I,,AUTO

     2444    15424    4         SUBSTR (FMT_BUF,I,1) = '4';

  15424  4 012305   200222 236100                    LDQ     I,,AUTO
         4 012306   040006 100400                    MLR     fill='040'O
         4 012307   000312 000001 5                  ADSC9   202                      cn=0,n=1
PL6.E3A0      #002=ASL$LIST_OUT File=ASL$EXT.:E05TSI                             TUE 07/29/97 09:59 Page:421
         4 012310   000000 000001 xsym               ADSC9   FMT_BUF,Q                cn=0,n=1

     2445    15425    4         END;   /*  For access modes  */

     2446    15426    4      DO BOG_IDX = 0 TO FDS.NVECS#/2;

  15426  4 012311   200221 450100                    STZ     BOG_IDX,,AUTO
         4 012312   012325 710000 4                  TRA     s:15428+1

     2447    15427    4         FMT_VEC ( BOG_IDX*2 ) = VECTOR ( JCL_MODES ( BOG_IDX ) );

  15427  4 012313   200221 235100                    LDA     BOG_IDX,,AUTO
         4 012314   000002 735000                    ALS     2
         4 012315   000000 620005                    EAX0    0,AL
         4 012316   377640 235007                    LDA     130976,DL
         4 012317   200221 236100                    LDQ     BOG_IDX,,AUTO
         4 012320   000021 736000                    QLS     17
         4 012321   000273 036000 5                  ADLQ    187
         4 012322   000000 755010 xsym               STA     FMT_VEC,X0
         4 012323   000001 756010 xsym               STQ     FMT_VEC+1,X0

     2448    15428    4         END; /*  Loop through host modes  */

  15428  4 012324   200221 054100                    AOS     BOG_IDX,,AUTO
         4 012325   000011 236000 xsym               LDQ     FDS+9
         4 012326   000002 506007                    DIV     2,DL
         4 012327   200221 116100                    CMPQ    BOG_IDX,,AUTO
         4 012330   012313 605000 4                  TPL     s:15427
         4 012331   012453 710000 4                  TRA     s:15455

     2449    15429
     2450    15430    3      SELECT(C_MODE_SBIN);

     2451    15431    3      CALL INSERT(FMT_BUF,FDS.FMT_.BOUND+1,SIZEC(MODE_SBIN_FMT),MODE_SBIN_FMT);

  15431  4 012332   000000 236000 xsym               LDQ     FDS
         4 012333   000020 772000                    QRL     16
PL6.E3A0      #002=ASL$LIST_OUT File=ASL$EXT.:E05TSI                             TUE 07/29/97 09:59 Page:422
         4 012334   040006 100400                    MLR     fill='040'O
         4 012335   003125 000030 2                  ADSC9   MODE_SBIN_FMT            cn=0,n=24
         4 012336   000000 200030 xsym               ADSC9   FMT_BUF,Q                cn=1,n=24

     2452    15432    3      FDS.FMT_.BOUND = FDS.FMT_.BOUND + SIZEC(MODE_SBIN_FMT);

  15432  4 012337   000030 036007                    ADLQ    24,DL
         4 012340   000020 736000                    QLS     16
         4 012341   000000 676000 xsym               ERQ     FDS
         4 012342   000034 376000 xsym               ANQ     B_VECTNIL+28
         4 012343   000000 656000 xsym               ERSQ    FDS

     2453    15433    4      DO BOG_IDX = 0 TO FDS.NVECS#/2;

  15433  4 012344   200221 450100                    STZ     BOG_IDX,,AUTO
         4 012345   012360 710000 4                  TRA     s:15435+1

     2454    15434    4         FMT_VEC ( BOG_IDX*2 ) = VECTOR ( JCL_MODES ( BOG_IDX ) );

  15434  4 012346   200221 235100                    LDA     BOG_IDX,,AUTO
         4 012347   000002 735000                    ALS     2
         4 012350   000000 620005                    EAX0    0,AL
         4 012351   377640 235007                    LDA     130976,DL
         4 012352   200221 236100                    LDQ     BOG_IDX,,AUTO
         4 012353   000021 736000                    QLS     17
         4 012354   000273 036000 5                  ADLQ    187
         4 012355   000000 755010 xsym               STA     FMT_VEC,X0
         4 012356   000001 756010 xsym               STQ     FMT_VEC+1,X0

     2455    15435    4         END; /*  Loop through host modes  */

  15435  4 012357   200221 054100                    AOS     BOG_IDX,,AUTO
         4 012360   000011 236000 xsym               LDQ     FDS+9
         4 012361   000002 506007                    DIV     2,DL
         4 012362   200221 116100                    CMPQ    BOG_IDX,,AUTO
         4 012363   012346 605000 4                  TPL     s:15434
         4 012364   012453 710000 4                  TRA     s:15455
PL6.E3A0      #002=ASL$LIST_OUT File=ASL$EXT.:E05TSI                             TUE 07/29/97 09:59 Page:423

     2456    15436
     2457    15437    3      SELECT(C_FEMODE_TEXT);

     2458    15438    3      CALL INSERT(FMT_BUF,FDS.FMT_.BOUND+1,SIZEC(MODE_TEXT_FMT),MODE_TEXT_FMT);

  15438  4 012365   000000 236000 xsym               LDQ     FDS
         4 012366   000020 772000                    QRL     16
         4 012367   040006 100400                    MLR     fill='040'O
         4 012370   003133 000030 2                  ADSC9   MODE_TEXT_FMT            cn=0,n=24
         4 012371   000000 200030 xsym               ADSC9   FMT_BUF,Q                cn=1,n=24

     2459    15439    3      FDS.FMT_.BOUND = FDS.FMT_.BOUND + SIZEC(MODE_TEXT_FMT);

  15439  4 012372   000030 036007                    ADLQ    24,DL
         4 012373   000020 736000                    QLS     16
         4 012374   000000 676000 xsym               ERQ     FDS
         4 012375   000034 376000 xsym               ANQ     B_VECTNIL+28
         4 012376   000000 656000 xsym               ERSQ    FDS

     2460    15440    4      DO BOG_IDX = 0 TO FDS.NVECS#/2;

  15440  4 012377   200221 450100                    STZ     BOG_IDX,,AUTO
         4 012400   012413 710000 4                  TRA     s:15442+1

     2461    15441    4         FMT_VEC ( BOG_IDX*2 ) = VECTOR ( JCL_FE_MODES ( BOG_IDX ) );

  15441  4 012401   200221 235100                    LDA     BOG_IDX,,AUTO
         4 012402   000002 735000                    ALS     2
         4 012403   000000 620005                    EAX0    0,AL
         4 012404   377640 235007                    LDA     130976,DL
         4 012405   200221 236100                    LDQ     BOG_IDX,,AUTO
         4 012406   000021 736000                    QLS     17
         4 012407   000313 036000 5                  ADLQ    203
         4 012410   000000 755010 xsym               STA     FMT_VEC,X0
         4 012411   000001 756010 xsym               STQ     FMT_VEC+1,X0

PL6.E3A0      #002=ASL$LIST_OUT File=ASL$EXT.:E05TSI                             TUE 07/29/97 09:59 Page:424
     2462    15442    4         END; /*  Loop through fe modes  */

  15442  4 012412   200221 054100                    AOS     BOG_IDX,,AUTO
         4 012413   000011 236000 xsym               LDQ     FDS+9
         4 012414   000002 506007                    DIV     2,DL
         4 012415   200221 116100                    CMPQ    BOG_IDX,,AUTO
         4 012416   012401 605000 4                  TPL     s:15441
         4 012417   012453 710000 4                  TRA     s:15455

     2463    15443
     2464    15444    3      SELECT(C_FEMODE_SBIN);

     2465    15445    3      CALL INSERT(FMT_BUF,FDS.FMT_.BOUND+1,SIZEC(MODE_SBIN_FMT),MODE_SBIN_FMT);

  15445  4 012420   000000 236000 xsym               LDQ     FDS
         4 012421   000020 772000                    QRL     16
         4 012422   040006 100400                    MLR     fill='040'O
         4 012423   003125 000030 2                  ADSC9   MODE_SBIN_FMT            cn=0,n=24
         4 012424   000000 200030 xsym               ADSC9   FMT_BUF,Q                cn=1,n=24

     2466    15446    3      FDS.FMT_.BOUND = FDS.FMT_.BOUND + SIZEC(MODE_SBIN_FMT);

  15446  4 012425   000030 036007                    ADLQ    24,DL
         4 012426   000020 736000                    QLS     16
         4 012427   000000 676000 xsym               ERQ     FDS
         4 012430   000034 376000 xsym               ANQ     B_VECTNIL+28
         4 012431   000000 656000 xsym               ERSQ    FDS

     2467    15447    4      DO BOG_IDX = 0 TO FDS.NVECS#/2;

  15447  4 012432   200221 450100                    STZ     BOG_IDX,,AUTO
         4 012433   012446 710000 4                  TRA     s:15449+1

     2468    15448    4         FMT_VEC ( BOG_IDX*2 ) = VECTOR ( JCL_FE_MODES ( BOG_IDX ) );

  15448  4 012434   200221 235100                    LDA     BOG_IDX,,AUTO
         4 012435   000002 735000                    ALS     2
PL6.E3A0      #002=ASL$LIST_OUT File=ASL$EXT.:E05TSI                             TUE 07/29/97 09:59 Page:425
         4 012436   000000 620005                    EAX0    0,AL
         4 012437   377640 235007                    LDA     130976,DL
         4 012440   200221 236100                    LDQ     BOG_IDX,,AUTO
         4 012441   000021 736000                    QLS     17
         4 012442   000313 036000 5                  ADLQ    203
         4 012443   000000 755010 xsym               STA     FMT_VEC,X0
         4 012444   000001 756010 xsym               STQ     FMT_VEC+1,X0

     2469    15449    4         END; /*  Loop through fe modes  */

  15449  4 012445   200221 054100                    AOS     BOG_IDX,,AUTO
         4 012446   000011 236000 xsym               LDQ     FDS+9
         4 012447   000002 506007                    DIV     2,DL
         4 012450   200221 116100                    CMPQ    BOG_IDX,,AUTO
         4 012451   012434 605000 4                  TPL     s:15448
         4 012452   012453 710000 4                  TRA     s:15455

     2470    15450
     2471    15451    3      SELECT (C_ALL_DONE);

     2472    15452              /*  Do nothing  */
     2473    15453    3      END;  /*  Case ( class )  */

     2474    15454
     2475    15455    3   IF POSITION THEN DO;

  15455  4 012453   200017 234100                    SZN     POSITION,,AUTO
         4 012454   012470 605000 4                  TPL     s:15460

     2476    15456    3      SUBSTR (FMT_BUF, FDS.FMT_.BOUND+1,3) = '%2P';

  15456  4 012455   000000 236000 xsym               LDQ     FDS
         4 012456   000020 772000                    QRL     16
         4 012457   040006 100400                    MLR     fill='040'O
         4 012460   005227 000003 2                  ADSC9   PRIV_TBL+295             cn=0,n=3
         4 012461   000000 200003 xsym               ADSC9   FMT_BUF,Q                cn=1,n=3

PL6.E3A0      #002=ASL$LIST_OUT File=ASL$EXT.:E05TSI                             TUE 07/29/97 09:59 Page:426
     2477    15457    3      FDS.FMT_.BOUND = FDS.FMT_.BOUND + 3;

  15457  4 012462   000003 036007                    ADLQ    3,DL
         4 012463   000020 736000                    QLS     16
         4 012464   000000 676000 xsym               ERQ     FDS
         4 012465   000034 376000 xsym               ANQ     B_VECTNIL+28
         4 012466   000000 656000 xsym               ERSQ    FDS

     2478    15458    3      POSITION = %NO#;

  15458  4 012467   200017 450100                    STZ     POSITION,,AUTO

     2479    15459    3      END;   /*  Position  */

     2480    15460    2   CALL X$FORMAT (FDS);

  15460  4 012470   000004 630400 5                  EPPR0   4
         4 012471   000017 631400 xsym               EPPR1   B_VECTNIL+15
         4 012472   000000 701000 xent               TSX1    X$FORMAT
         4 012473   000000 011000                    NOP     0

     2481    15461
     2482    15462    2   RETURN;

  15462  4 012474   200220 221300                    LDX1  ! NEXT,,AUTO
         4 012475   000001 702211                    TSX2  ! 1,X1

     2483    15463
     2484    15464    2   END OUTPUT_FMT;
     2485    15465        %EJECT;
PL6.E3A0      #002=ASL$LIST_OUT File=ASL$EXT.:E05TSI                             TUE 07/29/97 09:59 Page:427
     2486    15466    1   LIST_BUDGET_SUBS_JCL: PROC;

  15466  4 012476   200176 741300       LIST_BUDGET* STX1  ! TMP_LEN+1,,AUTO

     2487    15467
     2488    15468    2   CALL ASB$WRITE_LO (BUDGET_STR,SIZEC(BUDGET_STR));

  15468  4 012477   000314 630400 5                  EPPR0   204
         4 012500   000020 631400 xsym               EPPR1   B_VECTNIL+16
         4 012501   000000 701000 xent               TSX1    ASB$WRITE_LO
         4 012502   000000 011000                    NOP     0

     2489    15469    2   CALL BUILD_JCL_FMT ( 51, %YES# );

  15469  4 012503   000012 236000 5                  LDQ     10
         4 012504   200202 756100                    STQ     @SUBOPTION_MODE,,AUTO
         4 012505   000317 236000 5                  LDQ     207
         4 012506   200201 756100                    STQ     @START_INDEX,,AUTO
         4 012507   006664 701000 4                  TSX1    BUILD_JCL_FMT
         4 012510   000000 011000                    NOP     0

     2490    15470    2   CALL ASB$WRITE_LO (END_STR,SIZEC(END_STR));

  15470  4 012511   000320 630400 5                  EPPR0   208
         4 012512   000020 631400 xsym               EPPR1   B_VECTNIL+16
         4 012513   000000 701000 xent               TSX1    ASB$WRITE_LO
         4 012514   000000 011000                    NOP     0

     2491    15471    2   RETURN;

  15471  4 012515   200176 221300                    LDX1  ! TMP_LEN+1,,AUTO
         4 012516   000001 702211                    TSX2  ! 1,X1

     2492    15472    2   END LIST_BUDGET_SUBS_JCL;
     2493    15473        %EJECT;
PL6.E3A0      #002=ASL$LIST_OUT File=ASL$EXT.:E05TSI                             TUE 07/29/97 09:59 Page:428
     2494    15474    1   LIST_FEPRIV_JCL: PROC(PRIV_FLG);

  15474  4 012517   200176 741300       LIST_FEPRIV* STX1  ! TMP_LEN+1,,AUTO

     2495    15475    2   DCL PRIV_FLG BIT(1) ALIGNED;
     2496    15476    2   DCL BOG_IDX SBIN;
     2497    15477    2   DCL I SBIN;
     2498    15478    2   DCL MORE BIT(1) ALIGNED;
     2499    15479    2   DCL PRIV BIT(36);
     2500    15480    2   DCL END_IDX SBIN;
     2501    15481    2   DCL 1 PRIV_TBL(0:71) CONSTANT,
     2502    15482    2          2 LEN UBIN BYTE UNAL INIT
     2503    15483    2             ( 6, 6, 8, 7, 5,
     2504    15484    2               6, 6, 8, 8, 5,
     2505    15485    2               8, 5, 6, 9, 0,
     2506    15486    2               0*21,
     2507    15487    2               8, 8, 5, 5, 9,
     2508    15488    2               7, 8, 6, 6, 7,
     2509    15489    2               8, 9, 9, 7, 8,
     2510    15490    2               8, 8, 8, 9, 8,
     2511    15491    2               9, 0*15),
     2512    15492    2          2 HDR CHAR(8) UNAL INIT
     2513    15493    2             ('EXMM    ', 'EXPM    ', 'FMREAD  ', 'FMSEC   ', 'GPP     ',
     2514    15494    2              'MAXM    ', 'MSYS    ', 'SPCLMM  ', 'SYSLOG  ', 'TND     ',
     2515    15495    2              'INTCON  ', 'CQ      ', 'SNAP    ', 'SCREECH ', '        ',
     2516    15496    2              '        '*21,
     2517    15497    2              'CNTRLC  ', 'CNTRLD  ', 'EFT     ', 'EL      ', 'NETCON  ',
     2518    15498    2              'LABEL   ', 'PADMIN  ', 'PIGC    ', 'PIGD    ', 'RATES   ',
     2519    15499    2              'REPLAY  ', 'SPIDERC ', 'SPIDERD ', 'SUPER   ', 'SUPERA  ',
     2520    15500    2              'SUPERD  ', 'SUPERF  ', 'SUPERW  ', 'VOLINIT ', 'SYSCON  ',
     2521    15501    2              'PIGETTE ', ' '*15 ),
     2522    15502    2          2 MASK BIT(36) UNAL INIT
     2523    15503    2              (%PR_EXMM#,     %PR_EXPM#,     %PR_FMREAD#,   %PR_FMSEC#,    %PR_GPP#,
     2524    15504    2               %PR_MAXMEM#,   %PR_MSYS#,     %PR_SPCLMM#,   %PR_SYSLOG#,   %PR_TND#,
     2525    15505    2               %PR_INTCON#,   %PR_CQ#,       %PR_SNAP#,     %PR_SCREECH#,  '0'B,
     2526    15506    2               '0'B*21,
     2527    15507    2               %PPR_CNTRLC#,  %PPR_CNTRLD#,  %PPR_EFT#,     %PPR_EL#,     %PPR_NETCON#
PL6.E3A0      #002=ASL$LIST_OUT File=ASL$EXT.:E05TSI                             TUE 07/29/97 09:59 Page:429
             15507                        ,
     2528    15508    2               %PPR_LABEL#,   %PPR_PADMIN#,  %PPR_PIGC#,    %PPR_PIGD#,   %PPR_RATES#,
     2529    15509    2               %PPR_REPLAY#,  %PPR_SPIDERC#, %PPR_SPIDERD#, %PPR_SUPER#,   %
             15509                        PPR_SUPERAUTH#,
     2530    15510    2               %PPR_SUPERD#, %PPR_SUPERFORM#,%PPR_SUPERWSN#,%PPR_VOLINIT#,%PPR_SYSCON#
             15510                        ,
     2531    15511    2               %PPR_PIGETTE#, '0'B*15 );
     2532    15512        %EJECT;
PL6.E3A0      #002=ASL$LIST_OUT File=ASL$EXT.:E05TSI                             TUE 07/29/97 09:59 Page:430
     2533    15513    2   IF PRIV_FLG

  15513  4 012520   200177 470500                    LDP0    @PRIV_FLG,,AUTO
         4 012521   000000 234100                    SZN     0,,PR0
         4 012522   012533 605000 4                  TPL     s:15520

     2534    15514    3   THEN DO;

     2535    15515    3     CALL ASB$WRITE_LO( JCL_OPT_TBL.HDR(L_FEPRIV), LENGTHC(JCL_OPT_TBL.HDR(L_FEPRIV)))
             15515               ;

  15515  4 012523   000322 630400 5                  EPPR0   210
         4 012524   000020 631400 xsym               EPPR1   B_VECTNIL+16
         4 012525   000000 701000 xent               TSX1    ASB$WRITE_LO
         4 012526   000000 011000                    NOP     0

     2536    15516    3      NXT_IDX = 0;

  15516  4 012527   200016 450100                    STZ     NXT_IDX,,AUTO

     2537    15517    3      END_IDX = 36;

  15517  4 012530   000044 235007                    LDA     36,DL
         4 012531   200204 755100                    STA     END_IDX,,AUTO

     2538    15518    3      END;

  15518  4 012532   012543 710000 4                  TRA     s:15524

     2539    15519    3   ELSE DO;

     2540    15520    3     CALL ASB$WRITE_LO( JCL_OPT_TBL.HDR(L_FEPPRIV), LENGTHC(JCL_OPT_TBL.HDR(L_FEPPRIV)
             15520               ));

  15520  4 012533   000324 630400 5                  EPPR0   212
         4 012534   000020 631400 xsym               EPPR1   B_VECTNIL+16
         4 012535   000000 701000 xent               TSX1    ASB$WRITE_LO
PL6.E3A0      #002=ASL$LIST_OUT File=ASL$EXT.:E05TSI                             TUE 07/29/97 09:59 Page:431
         4 012536   000000 011000                    NOP     0

     2541    15521    3      NXT_IDX = 36;

  15521  4 012537   000044 235007                    LDA     36,DL
         4 012540   200016 755100                    STA     NXT_IDX,,AUTO

     2542    15522    3      END_IDX = 72;

  15522  4 012541   000110 236007                    LDQ     72,DL
         4 012542   200204 756100                    STQ     END_IDX,,AUTO

     2543    15523    3      END;

     2544    15524    2   ST_IDX = NXT_IDX;

  15524  4 012543   200016 236100                    LDQ     NXT_IDX,,AUTO
         4 012544   200166 756100                    STQ     ST_IDX,,AUTO

     2545    15525    3   DO WHILE(ST_IDX < END_IDX);

  15525  4 012545   200204 116100                    CMPQ    END_IDX,,AUTO
         4 012546   012666 605000 4                  TPL     s:15551

     2546    15526    3      IF PRIV_TBL.HDR(ST_IDX) ~= ' '

  15526  4 012547   200166 236100                    LDQ     ST_IDX,,AUTO
         4 012550   000015 402007                    MPY     13,DL
         4 012551   040000 106406                    CMPC    fill='040'O
         4 012552   004204 200010 2                  ADSC9   PRIV_TBL,Q               cn=1,n=8
         4 012553   000035 000001 xsym               ADSC9   B_VECTNIL+29             cn=0,n=1
         4 012554   012662 600000 4                  TZE     s:15549
         4 012555   040000 106406                    CMPC    fill='040'O
         4 012556   004204 200010 2                  ADSC9   PRIV_TBL,Q               cn=1,n=8
         4 012557   005230 000006 2                  ADSC9   PRIV_TBL+296             cn=0,n=6
         4 012560   012662 600000 4                  TZE     s:15549

PL6.E3A0      #002=ASL$LIST_OUT File=ASL$EXT.:E05TSI                             TUE 07/29/97 09:59 Page:432
     2547    15527    4           AND PRIV_TBL.HDR(ST_IDX) ~= 'PADMIN' THEN DO;

     2548    15528    4         CALL CONCAT ( FMT_BUF,'   ',PRIV_TBL.HDR(ST_IDX) );

  15528  4 012561   005136 236000 2                  LDQ     PRIV_TBL+238
         4 012562   000176 376000 5                  ANQ     126
         4 012563   000040 276007                    ORQ     32,DL
         4 012564   000000 756000 xsym               STQ     FMT_BUF
         4 012565   200166 236100                    LDQ     ST_IDX,,AUTO
         4 012566   000015 402007                    MPY     13,DL
         4 012567   040000 100406                    MLR     fill='040'O
         4 012570   004204 200010 2                  ADSC9   PRIV_TBL,Q               cn=1,n=8
         4 012571   000000 600374 xsym               ADSC9   FMT_BUF                  cn=3,n=252

     2549    15529    4         FDS.FMT_.BOUND = SIZEC(PRIV_TBL.HDR(ST_IDX)) + 2;

  15529  4 012572   000000 236000 xsym               LDQ     FDS
         4 012573   177777 376007                    ANQ     65535,DL
         4 012574   000146 276000 5                  ORQ     102
         4 012575   000000 756000 xsym               STQ     FDS

     2550    15530    4         IF PRIV_TBL.LEN(ST_IDX)>0

  15530  4 012576   200166 236100                    LDQ     ST_IDX,,AUTO
         4 012577   000015 402007                    MPY     13,DL
         4 012600   000100 101406                    MRL     fill='000'O
         4 012601   004204 000001 2                  ADSC9   PRIV_TBL,Q               cn=0,n=1
         4 012602   200224 000004                    ADSC9   I+2,,AUTO                cn=0,n=4
         4 012603   200224 236100                    LDQ     I+2,,AUTO
         4 012604   000000 116003                    CMPQ    0,DU
         4 012605   012654 600000 4                  TZE     s:15545

     2551    15531    5         THEN DO;

     2552    15532    6            DO BOG_IDX = 0 TO 3;

  15532  4 012606   200200 450100                    STZ     BOG_IDX,,AUTO
PL6.E3A0      #002=ASL$LIST_OUT File=ASL$EXT.:E05TSI                             TUE 07/29/97 09:59 Page:433

     2553    15533    6               IF PRIV_FLG

  15533  4 012607   200177 470500                    LDP0    @PRIV_FLG,,AUTO
         4 012610   000000 234100                    SZN     0,,PR0
         4 012611   012616 605000 4                  TPL     s:15537

     2554    15534    6               THEN
     2555    15535    6                  PRIV = KL_DREC.KL_DREC_FEBLK.PRIV(BOG_IDX);

  15535  4 012612   200200 720100                    LXL0    BOG_IDX,,AUTO
         4 012613   000032 236010 xsym               LDQ     KL_DREC+26,X0
         4 012614   200203 756100                    STQ     PRIV,,AUTO
         4 012615   012621 710000 4                  TRA     s:15538

     2556    15536    6               ELSE
     2557    15537    6                  PRIV = KL_DREC.KL_DREC_FEBLK.PPRIV(BOG_IDX);

  15537  4 012616   200200 720100                    LXL0    BOG_IDX,,AUTO
         4 012617   000036 236010 xsym               LDQ     KL_DREC+30,X0
         4 012620   200203 756100                    STQ     PRIV,,AUTO

     2558    15538    6               IF PRIV & PRIV_TBL.MASK(ST_IDX)

  15538  4 012621   200166 236100                    LDQ     ST_IDX,,AUTO
         4 012622   000015 402007                    MPY     13,DL
         4 012623   000100 100406                    MLR     fill='000'O
         4 012624   004206 200004 2                  ADSC9   PRIV_TBL+2,Q             cn=1,n=4
         4 012625   200224 000004                    ADSC9   I+2,,AUTO                cn=0,n=4
         4 012626   200224 236100                    LDQ     I+2,,AUTO
         4 012627   200203 376100                    ANQ     PRIV,,AUTO
         4 012630   012641 600000 4                  TZE     s:15542

     2559    15539    6               THEN
     2560    15540    6                  FMT_VEC(BOG_IDX*2+1) = VECTOR(YES_STR);

  15540  4 012631   200200 235100                    LDA     BOG_IDX,,AUTO
PL6.E3A0      #002=ASL$LIST_OUT File=ASL$EXT.:E05TSI                             TUE 07/29/97 09:59 Page:434
         4 012632   000002 735000                    ALS     2
         4 012633   000000 621005                    EAX1    0,AL
         4 012634   000000 622005                    EAX2    0,AL
         4 012635   000102 237000 5                  LDAQ    66
         4 012636   000002 755011 xsym               STA     FMT_VEC+2,X1
         4 012637   000003 756012 xsym               STQ     FMT_VEC+3,X2
         4 012640   012650 710000 4                  TRA     s:15543

     2561    15541    6               ELSE
     2562    15542    6                  FMT_VEC(BOG_IDX*2+1) = VECTOR(NO_STR);

  15542  4 012641   200200 235100                    LDA     BOG_IDX,,AUTO
         4 012642   000002 735000                    ALS     2
         4 012643   000000 621005                    EAX1    0,AL
         4 012644   000000 622005                    EAX2    0,AL
         4 012645   000104 237000 5                  LDAQ    68
         4 012646   000002 755011 xsym               STA     FMT_VEC+2,X1
         4 012647   000003 756012 xsym               STQ     FMT_VEC+3,X2

     2563    15543    6               END; /*  Loop through femodes  */

  15543  4 012650   200200 054100                    AOS     BOG_IDX,,AUTO
         4 012651   200200 235100                    LDA     BOG_IDX,,AUTO
         4 012652   000003 115007                    CMPA    3,DL
         4 012653   012607 604400 4                  TMOZ    s:15533

     2564    15544    5            END;  /*  TBL.LEN > 0  */

     2565    15545    4         FDS.NVECS# = 8;

  15545  4 012654   000010 235007                    LDA     8,DL
         4 012655   000011 755000 xsym               STA     FDS+9

     2566    15546    4         CLASS = C_FEMODE_TEXT;

  15546  4 012656   000007 236007                    LDQ     7,DL
         4 012657   200005 756100                    STQ     CLASS,,AUTO
PL6.E3A0      #002=ASL$LIST_OUT File=ASL$EXT.:E05TSI                             TUE 07/29/97 09:59 Page:435

     2567    15547    4         CALL OUTPUT_FMT;

  15547  4 012660   012114 701000 4                  TSX1    OUTPUT_FMT
         4 012661   000000 011000                    NOP     0

     2568    15548    4         END; /*  Non blank hdr  */

     2569    15549    3      ST_IDX = ST_IDX + 1;

  15549  4 012662   200166 054100                    AOS     ST_IDX,,AUTO

     2570    15550    3      END;  /*  While ST_IDX < END_IDX  */

  15550  4 012663   200166 236100                    LDQ     ST_IDX,,AUTO
         4 012664   200204 116100                    CMPQ    END_IDX,,AUTO
         4 012665   012547 604000 4                  TMI     s:15526

     2571    15551    2   CALL ASB$WRITE_LO(END_STR,LENGTHC(END_STR));

  15551  4 012666   000320 630400 5                  EPPR0   208
         4 012667   000020 631400 xsym               EPPR1   B_VECTNIL+16
         4 012670   000000 701000 xent               TSX1    ASB$WRITE_LO
         4 012671   000000 011000                    NOP     0

     2572    15552    2   RETURN;

  15552  4 012672   200176 221300                    LDX1  ! TMP_LEN+1,,AUTO
         4 012673   000001 702211                    TSX2  ! 1,X1

     2573    15553    2   END LIST_FEPRIV_JCL;
     2574    15554        %EJECT;
PL6.E3A0      #002=ASL$LIST_OUT File=ASL$EXT.:E05TSI                             TUE 07/29/97 09:59 Page:436
     2575    15555    1   LIST_FEPSEUDO_JCL: PROC;

  15555  4 012674   200176 741300       LIST_FEPSEU* STX1  ! TMP_LEN+1,,AUTO

     2576    15556    2   DCL LEN SBIN;
     2577    15557    2   DCL I SBIN;
     2578    15558    2   DCL BOG_IDX SBIN;
     2579    15559
     2580    15560    2   CALL ASB$WRITE_LO(JCL_OPT_TBL.HDR(L_FEPSEUDO),SIZEC(JCL_OPT_TBL.HDR(L_FEPSEUDO)));

  15560  4 012675   000326 630400 5                  EPPR0   214
         4 012676   000020 631400 xsym               EPPR1   B_VECTNIL+16
         4 012677   000000 701000 xent               TSX1    ASB$WRITE_LO
         4 012700   000000 011000                    NOP     0

     2581    15561    3   DO I=0 TO 7;

  15561  4 012701   200200 450100                    STZ     I,,AUTO

     2582    15562    3      IF KL_DREC.KL_DREC_FEBLK.PSDOL.PSDO_NAME(I)~=' '

  15562  4 012702   200200 235100                    LDA     I,,AUTO
         4 012703   000004 735000                    ALS     4
         4 012704   040000 106405                    CMPC    fill='040'O
         4 012705   000070 000010 xsym               ADSC9   KL_DREC+56,A             cn=0,n=8
         4 012706   000035 000001 xsym               ADSC9   B_VECTNIL+29             cn=0,n=1
         4 012707   013021 600000 4                  TZE     s:15585

     2583    15563    4      THEN DO;           /* This entry exists                  */

     2584    15564    4         CALL CONCAT ( FMT_BUF, '   ', KL_DREC.KL_DREC_FEBLK.PSDOL.PSDO_NAME(I));

  15564  4 012710   005136 236000 2                  LDQ     PRIV_TBL+238
         4 012711   000176 376000 5                  ANQ     126
         4 012712   000040 276007                    ORQ     32,DL
         4 012713   000000 756000 xsym               STQ     FMT_BUF
         4 012714   040000 100405                    MLR     fill='040'O
PL6.E3A0      #002=ASL$LIST_OUT File=ASL$EXT.:E05TSI                             TUE 07/29/97 09:59 Page:437
         4 012715   000070 000010 xsym               ADSC9   KL_DREC+56,A             cn=0,n=8
         4 012716   000000 600374 xsym               ADSC9   FMT_BUF                  cn=3,n=252

     2585    15565    4         FDS.FMT_.BOUND = SIZEC(KL_DREC.KL_DREC_FEBLK.PSDOL.PSDO_NAME(I)) + 2;

  15565  4 012717   000000 236000 xsym               LDQ     FDS
         4 012720   177777 376007                    ANQ     65535,DL
         4 012721   000146 276000 5                  ORQ     102
         4 012722   000000 756000 xsym               STQ     FDS

     2586    15566    5         DO BOG_IDX = 0 TO 3;

  15566  4 012723   200201 450100                    STZ     BOG_IDX,,AUTO

     2587    15567
     2588    15568    6            DO SELECT (BOG_IDX);

  15568  4 012724   200201 236100                    LDQ     BOG_IDX,,AUTO
         4 012725   000001 116007                    CMPQ    1,DL
         4 012726   012736 604000 4                  TMI     s:15568+10
         4 012727   012753 600000 4                  TZE     s:15573
         4 012730   000002 116007                    CMPQ    2,DL
         4 012731   013010 604000 4                  TMI     s:15580
         4 012732   012765 600000 4                  TZE     s:15575
         4 012733   000003 116007                    CMPQ    3,DL
         4 012734   013010 601000 4                  TNZ     s:15580
         4 012735   012777 710000 4                  TRA     s:15577
         4 012736   000000 116003                    CMPQ    0,DU
         4 012737   013010 601000 4                  TNZ     s:15580
         4 012740   012741 710000 4                  TRA     s:15571

     2589    15569
     2590    15570    6               SELECT(0);

     2591    15571    6               FMT_VEC(BOG_IDX*2+1) = VECTOR(KL_DREC.KL_DREC_FEBLK.PSDOL.UMAX(I));

  15571  4 012741   200201 235100                    LDA     BOG_IDX,,AUTO
PL6.E3A0      #002=ASL$LIST_OUT File=ASL$EXT.:E05TSI                             TUE 07/29/97 09:59 Page:438
         4 012742   000002 735000                    ALS     2
         4 012743   000000 620005                    EAX0    0,AL
         4 012744   377640 235007                    LDA     130976,DL
         4 012745   200200 236100                    LDQ     I,,AUTO
         4 012746   000024 736000                    QLS     20
         4 012747   000136 036000 5                  ADLQ    94
         4 012750   000002 755010 xsym               STA     FMT_VEC+2,X0
         4 012751   000003 756010 xsym               STQ     FMT_VEC+3,X0
         4 012752   013010 710000 4                  TRA     s:15580

     2592    15572    6               SELECT(1);

     2593    15573    6               FMT_VEC(BOG_IDX*2+1) = VECTOR(KL_DREC.KL_DREC_FEBLK.PSDOL.CMAX(I));

  15573  4 012753   200201 235100                    LDA     BOG_IDX,,AUTO
         4 012754   000002 735000                    ALS     2
         4 012755   000000 620005                    EAX0    0,AL
         4 012756   377640 235007                    LDA     130976,DL
         4 012757   200200 236100                    LDQ     I,,AUTO
         4 012760   000024 736000                    QLS     20
         4 012761   000137 036000 5                  ADLQ    95
         4 012762   000002 755010 xsym               STA     FMT_VEC+2,X0
         4 012763   000003 756010 xsym               STQ     FMT_VEC+3,X0
         4 012764   013010 710000 4                  TRA     s:15580

     2594    15574    6               SELECT(2);

     2595    15575    6               FMT_VEC(BOG_IDX*2+1) = VECTOR(KL_DREC.KL_DREC_FEBLK.PSDOL.HMAX(I));

  15575  4 012765   200201 235100                    LDA     BOG_IDX,,AUTO
         4 012766   000002 735000                    ALS     2
         4 012767   000000 620005                    EAX0    0,AL
         4 012770   377640 235007                    LDA     130976,DL
         4 012771   200200 236100                    LDQ     I,,AUTO
         4 012772   000024 736000                    QLS     20
         4 012773   000140 036000 5                  ADLQ    96
         4 012774   000002 755010 xsym               STA     FMT_VEC+2,X0
PL6.E3A0      #002=ASL$LIST_OUT File=ASL$EXT.:E05TSI                             TUE 07/29/97 09:59 Page:439
         4 012775   000003 756010 xsym               STQ     FMT_VEC+3,X0
         4 012776   013010 710000 4                  TRA     s:15580

     2596    15576    6               SELECT(3);

     2597    15577    6               FMT_VEC(BOG_IDX*2+1) = VECTOR(KL_DREC.KL_DREC_FEBLK.PSDOL.GMAX(I));

  15577  4 012777   200201 235100                    LDA     BOG_IDX,,AUTO
         4 013000   000002 735000                    ALS     2
         4 013001   000000 620005                    EAX0    0,AL
         4 013002   377640 235007                    LDA     130976,DL
         4 013003   200200 236100                    LDQ     I,,AUTO
         4 013004   000024 736000                    QLS     20
         4 013005   000141 036000 5                  ADLQ    97
         4 013006   000002 755010 xsym               STA     FMT_VEC+2,X0
         4 013007   000003 756010 xsym               STQ     FMT_VEC+3,X0

     2598    15578
     2599    15579    6               END;   /*  Case ( BOG_IDX )  */

     2600    15580    5            END;     /*  Loop through the fe modes  */

  15580  4 013010   200201 054100                    AOS     BOG_IDX,,AUTO
         4 013011   200201 235100                    LDA     BOG_IDX,,AUTO
         4 013012   000003 115007                    CMPA    3,DL
         4 013013   012724 604400 4                  TMOZ    s:15568

     2601    15581    4         CLASS = C_FEMODE_SBIN;

  15581  4 013014   000010 236007                    LDQ     8,DL
         4 013015   200005 756100                    STQ     CLASS,,AUTO

     2602    15582    4         FDS.NVECS# = 8;

  15582  4 013016   000011 756000 xsym               STQ     FDS+9

     2603    15583    4         CALL OUTPUT_FMT;
PL6.E3A0      #002=ASL$LIST_OUT File=ASL$EXT.:E05TSI                             TUE 07/29/97 09:59 Page:440

  15583  4 013017   012114 701000 4                  TSX1    OUTPUT_FMT
         4 013020   000000 011000                    NOP     0

     2604    15584    4         END;    /*  If fe pseudo exists  */

     2605    15585    3      END;  /*  Loop through all pseudo name storage  */

  15585  4 013021   200200 054100                    AOS     I,,AUTO
         4 013022   200200 235100                    LDA     I,,AUTO
         4 013023   000007 115007                    CMPA    7,DL
         4 013024   012702 604400 4                  TMOZ    s:15562

     2606    15586    2   CALL ASB$WRITE_LO(END_STR,LENGTHC(END_STR));

  15586  4 013025   000320 630400 5                  EPPR0   208
         4 013026   000020 631400 xsym               EPPR1   B_VECTNIL+16
         4 013027   000000 701000 xent               TSX1    ASB$WRITE_LO
         4 013030   000000 011000                    NOP     0

     2607    15587    2   RETURN;

  15587  4 013031   200176 221300                    LDX1  ! TMP_LEN+1,,AUTO
         4 013032   000001 702211                    TSX2  ! 1,X1

     2608    15588    2   END LIST_FEPSEUDO_JCL;
     2609    15589        %EJECT;
PL6.E3A0      #002=ASL$LIST_OUT File=ASL$EXT.:E05TSI                             TUE 07/29/97 09:59 Page:441
     2610    15590    1   LIST_FERESOURCE_JCL: PROC;

  15590  4 013033   200176 741300       LIST_FERESO* STX1  ! TMP_LEN+1,,AUTO

     2611    15591    2   DCL LEN SBIN;
     2612    15592    2   DCL I SBIN;
     2613    15593    2   DCL BOG_IDX SBIN;
     2614    15594
     2615    15595    2   CALL ASB$WRITE_LO(JCL_OPT_TBL.HDR(L_FERES),SIZEC(JCL_OPT_TBL.HDR(L_FERES)));

  15595  4 013034   000330 630400 5                  EPPR0   216
         4 013035   000020 631400 xsym               EPPR1   B_VECTNIL+16
         4 013036   000000 701000 xent               TSX1    ASB$WRITE_LO
         4 013037   000000 011000                    NOP     0

     2616    15596    3   DO I=0 TO KL_DREC.KL_DREC_FEBLK.RESL_CNT-1 ;

  15596  4 013040   200200 450100                    STZ     I,,AUTO
         4 013041   013174 710000 4                  TRA     s:15620+1

     2617    15597    3      IF KL_DREC.KL_DREC_FEBLK.RESL.RNAME(I)~=' '

  15597  4 013042   200200 236100                    LDQ     I,,AUTO
         4 013043   000012 402007                    MPY     10,DL
         4 013044   040000 106406                    CMPC    fill='040'O
         4 013045   000130 400002 xsym               ADSC9   KL_DREC+88,Q             cn=2,n=2
         4 013046   000035 000001 xsym               ADSC9   B_VECTNIL+29             cn=0,n=1
         4 013047   013173 600000 4                  TZE     s:15620

     2618    15598    4      THEN DO;           /* This entry exists                  */

     2619    15599    4         CALL CONCAT ( FMT_BUF, '   ', KL_DREC.KL_DREC_FEBLK.RESL.RNAME(I));

  15599  4 013050   005136 236000 2                  LDQ     PRIV_TBL+238
         4 013051   000176 376000 5                  ANQ     126
         4 013052   000040 276007                    ORQ     32,DL
         4 013053   000000 756000 xsym               STQ     FMT_BUF
PL6.E3A0      #002=ASL$LIST_OUT File=ASL$EXT.:E05TSI                             TUE 07/29/97 09:59 Page:442
         4 013054   200200 236100                    LDQ     I,,AUTO
         4 013055   000012 402007                    MPY     10,DL
         4 013056   040000 100406                    MLR     fill='040'O
         4 013057   000130 400002 xsym               ADSC9   KL_DREC+88,Q             cn=2,n=2
         4 013060   000000 600374 xsym               ADSC9   FMT_BUF                  cn=3,n=252

     2620    15600    4         FDS.FMT_.BOUND = SIZEC(KL_DREC.KL_DREC_FEBLK.RESL.RNAME(I)) + 2;

  15600  4 013061   000000 236000 xsym               LDQ     FDS
         4 013062   177777 376007                    ANQ     65535,DL
         4 013063   000001 276003                    ORQ     1,DU
         4 013064   000000 756000 xsym               STQ     FDS

     2621    15601    5         DO BOG_IDX = 0 TO 3;

  15601  4 013065   200201 450100                    STZ     BOG_IDX,,AUTO

     2622    15602
     2623    15603    6            DO SELECT (BOG_IDX);

  15603  4 013066   200201 236100                    LDQ     BOG_IDX,,AUTO
         4 013067   000001 116007                    CMPQ    1,DL
         4 013070   013100 604000 4                  TMI     s:15603+10
         4 013071   013117 600000 4                  TZE     s:15608
         4 013072   000002 116007                    CMPQ    2,DL
         4 013073   013162 604000 4                  TMI     s:15615
         4 013074   013133 600000 4                  TZE     s:15610
         4 013075   000003 116007                    CMPQ    3,DL
         4 013076   013162 601000 4                  TNZ     s:15615
         4 013077   013147 710000 4                  TRA     s:15612
         4 013100   000000 116003                    CMPQ    0,DU
         4 013101   013162 601000 4                  TNZ     s:15615
         4 013102   013103 710000 4                  TRA     s:15606

     2624    15604
     2625    15605    6               SELECT(0);

PL6.E3A0      #002=ASL$LIST_OUT File=ASL$EXT.:E05TSI                             TUE 07/29/97 09:59 Page:443
     2626    15606    6               FMT_VEC(BOG_IDX*2+1) = VECTOR(KL_DREC.KL_DREC_FEBLK.RESL.UMAX(I));

  15606  4 013103   200201 235100                    LDA     BOG_IDX,,AUTO
         4 013104   000002 735000                    ALS     2
         4 013105   000000 620005                    EAX0    0,AL
         4 013106   377640 235007                    LDA     130976,DL
         4 013107   200200 236100                    LDQ     I,,AUTO
         4 013110   200224 755100                    STA     I+2,,AUTO
         4 013111   000146 402000 5                  MPY     102
         4 013112   000154 036000 5                  ADLQ    108
         4 013113   200224 235100                    LDA     I+2,,AUTO
         4 013114   000002 755010 xsym               STA     FMT_VEC+2,X0
         4 013115   000003 756010 xsym               STQ     FMT_VEC+3,X0
         4 013116   013162 710000 4                  TRA     s:15615

     2627    15607    6               SELECT(1);

     2628    15608    6               FMT_VEC(BOG_IDX*2+1) = VECTOR(KL_DREC.KL_DREC_FEBLK.RESL.CMAX(I));

  15608  4 013117   200201 235100                    LDA     BOG_IDX,,AUTO
         4 013120   000002 735000                    ALS     2
         4 013121   000000 620005                    EAX0    0,AL
         4 013122   377640 235007                    LDA     130976,DL
         4 013123   200200 236100                    LDQ     I,,AUTO
         4 013124   200224 755100                    STA     I+2,,AUTO
         4 013125   000146 402000 5                  MPY     102
         4 013126   000155 036000 5                  ADLQ    109
         4 013127   200224 235100                    LDA     I+2,,AUTO
         4 013130   000002 755010 xsym               STA     FMT_VEC+2,X0
         4 013131   000003 756010 xsym               STQ     FMT_VEC+3,X0
         4 013132   013162 710000 4                  TRA     s:15615

     2629    15609    6               SELECT(2);

     2630    15610    6               FMT_VEC(BOG_IDX*2+1) = VECTOR(KL_DREC.KL_DREC_FEBLK.RESL.HMAX(I));

  15610  4 013133   200201 235100                    LDA     BOG_IDX,,AUTO
PL6.E3A0      #002=ASL$LIST_OUT File=ASL$EXT.:E05TSI                             TUE 07/29/97 09:59 Page:444
         4 013134   000002 735000                    ALS     2
         4 013135   000000 620005                    EAX0    0,AL
         4 013136   377640 235007                    LDA     130976,DL
         4 013137   200200 236100                    LDQ     I,,AUTO
         4 013140   200224 755100                    STA     I+2,,AUTO
         4 013141   000146 402000 5                  MPY     102
         4 013142   000156 036000 5                  ADLQ    110
         4 013143   200224 235100                    LDA     I+2,,AUTO
         4 013144   000002 755010 xsym               STA     FMT_VEC+2,X0
         4 013145   000003 756010 xsym               STQ     FMT_VEC+3,X0
         4 013146   013162 710000 4                  TRA     s:15615

     2631    15611    6               SELECT(3);

     2632    15612    6               FMT_VEC(BOG_IDX*2+1) = VECTOR(KL_DREC.KL_DREC_FEBLK.RESL.GMAX(I));

  15612  4 013147   200201 235100                    LDA     BOG_IDX,,AUTO
         4 013150   000002 735000                    ALS     2
         4 013151   000000 620005                    EAX0    0,AL
         4 013152   377640 235007                    LDA     130976,DL
         4 013153   200200 236100                    LDQ     I,,AUTO
         4 013154   200224 755100                    STA     I+2,,AUTO
         4 013155   000146 402000 5                  MPY     102
         4 013156   000157 036000 5                  ADLQ    111
         4 013157   200224 235100                    LDA     I+2,,AUTO
         4 013160   000002 755010 xsym               STA     FMT_VEC+2,X0
         4 013161   000003 756010 xsym               STQ     FMT_VEC+3,X0

     2633    15613
     2634    15614    6               END;   /*  Case ( BOG_IDX )  */

     2635    15615    5            END;     /*  Loop through the fe modes  */

  15615  4 013162   200201 054100                    AOS     BOG_IDX,,AUTO
         4 013163   200201 235100                    LDA     BOG_IDX,,AUTO
         4 013164   000003 115007                    CMPA    3,DL
         4 013165   013066 604400 4                  TMOZ    s:15603
PL6.E3A0      #002=ASL$LIST_OUT File=ASL$EXT.:E05TSI                             TUE 07/29/97 09:59 Page:445

     2636    15616    4         CLASS = C_FEMODE_SBIN;

  15616  4 013166   000010 236007                    LDQ     8,DL
         4 013167   200005 756100                    STQ     CLASS,,AUTO

     2637    15617    4         FDS.NVECS# = 8;

  15617  4 013170   000011 756000 xsym               STQ     FDS+9

     2638    15618    4         CALL OUTPUT_FMT;

  15618  4 013171   012114 701000 4                  TSX1    OUTPUT_FMT
         4 013172   000000 011000                    NOP     0

     2639    15619    4         END;    /*  If fe resource exists  */

     2640    15620    3      END;  /*  Loop through all resource name storage  */

  15620  4 013173   200200 054100                    AOS     I,,AUTO
         4 013174   000130 236000 xsym               LDQ     KL_DREC+88
         4 013175   000022 772000                    QRL     18
         4 013176   200200 116100                    CMPQ    I,,AUTO
         4 013177   013042 605400 4                  TPNZ    s:15597

     2641    15621    2   CALL ASB$WRITE_LO(END_STR,LENGTHC(END_STR));

  15621  4 013200   000320 630400 5                  EPPR0   208
         4 013201   000020 631400 xsym               EPPR1   B_VECTNIL+16
         4 013202   000000 701000 xent               TSX1    ASB$WRITE_LO
         4 013203   000000 011000                    NOP     0

     2642    15622    2   RETURN;

  15622  4 013204   200176 221300                    LDX1  ! TMP_LEN+1,,AUTO
         4 013205   000001 702211                    TSX2  ! 1,X1

PL6.E3A0      #002=ASL$LIST_OUT File=ASL$EXT.:E05TSI                             TUE 07/29/97 09:59 Page:446
     2643    15623    2   END LIST_FERESOURCE_JCL;
     2644    15624        %EJECT;
PL6.E3A0      #002=ASL$LIST_OUT File=ASL$EXT.:E05TSI                             TUE 07/29/97 09:59 Page:447
     2645    15625    1   LIST_KEY_JCL: PROC;

  15625  4 013206   200176 741300       LIST_KEY_JCL STX1  ! TMP_LEN+1,,AUTO

     2646    15626
     2647    15627    2   DCL KEYS BIT(72) STATIC;
     2648    15628    2   DCL KEY_A(0:71) REDEF KEYS BIT(1) UNAL;
     2649    15629    2   DCL TAB UBIN STATIC INIT( 4 );
     2650    15630    2   DCL LEN UBIN STATIC;
     2651    15631    2   DCL I UBIN STATIC;
     2652    15632    2   DCL 1 ALL_KEYS CONSTANT,
     2653    15633    2          2 * BIT(36) INIT('777777777777'O),
     2654    15634    2          2 * BIT(36) INIT('777777777777'O);
     2655    15635
     2656    15636
     2657    15637    2   FMT_BUF = JCL_OPT_TBL.HDR(L_KEY);

  15637  4 013207   040000 100400                    MLR     fill='040'O
         4 013210   002401 400024 2                  ADSC9   JCL_OPT_TBL+430          cn=2,n=20
         4 013211   000000 000377 xsym               ADSC9   FMT_BUF                  cn=0,n=255

     2658    15638    2   FDS.FMT_.BOUND = 3;

  15638  4 013212   000000 236000 xsym               LDQ     FDS
         4 013213   177777 376007                    ANQ     65535,DL
         4 013214   600000 276007                    ORQ     -65536,DL
         4 013215   000000 756000 xsym               STQ     FDS

     2659    15639    2   KEYS = AS_USERS.KEY;

  15639  4 013216   000000 100400                    MLR     fill='000'O
         4 013217   000026 000010 xsym               ADSC9   AS_USERS+22              cn=0,n=8
         4 013220   000067 000010 3                  ADSC9   KEYS                     cn=0,n=8

     2660    15640    3   IF KEYS = %NO# THEN DO;

  15640  4 013221   000000 106400                    CMPC    fill='000'O
PL6.E3A0      #002=ASL$LIST_OUT File=ASL$EXT.:E05TSI                             TUE 07/29/97 09:59 Page:448
         4 013222   000067 000010 3                  ADSC9   KEYS                     cn=0,n=8
         4 013223   000002 000002 xsym               ADSC9   B_VECTNIL+2              cn=0,n=2
         4 013224   013236 601000 4                  TNZ     s:15646

     2661    15641    3      SUBSTR (FMT_BUF, 3, 7) = ' = NONE';

  15641  4 013225   040000 100400                    MLR     fill='040'O
         4 013226   005232 000007 2                  ADSC9   PRIV_TBL+298             cn=0,n=7
         4 013227   000000 600007 xsym               ADSC9   FMT_BUF                  cn=3,n=7

     2662    15642    3      FDS.FMT_.BOUND = 9;

  15642  4 013230   000000 236000 xsym               LDQ     FDS
         4 013231   177777 376007                    ANQ     65535,DL
         4 013232   000332 276000 5                  ORQ     218
         4 013233   000000 756000 xsym               STQ     FDS

     2663    15643    3      FDS.NVECS# = 0;

  15643  4 013234   000011 450000 xsym               STZ     FDS+9

     2664    15644    3      END;  /*  No keys  */

  15644  4 013235   013325 710000 4                  TRA     s:15666

     2665    15645    2   ELSE
     2666    15646    3      IF KEYS = ALL_KEYS THEN DO;

  15646  4 013236   000000 106400                    CMPC    fill='000'O
         4 013237   000067 000010 3                  ADSC9   KEYS                     cn=0,n=8
         4 013240   004556 000010 2                  ADSC9   ALL_KEYS                 cn=0,n=8
         4 013241   013253 601000 4                  TNZ     s:15652

     2667    15647    3         SUBSTR (FMT_BUF, 3, 6) = ' = ALL';

  15647  4 013242   040000 100400                    MLR     fill='040'O
         4 013243   005234 000006 2                  ADSC9   PRIV_TBL+300             cn=0,n=6
PL6.E3A0      #002=ASL$LIST_OUT File=ASL$EXT.:E05TSI                             TUE 07/29/97 09:59 Page:449
         4 013244   000000 600006 xsym               ADSC9   FMT_BUF                  cn=3,n=6

     2668    15648    3         FDS.FMT_.BOUND = 8;

  15648  4 013245   000000 236000 xsym               LDQ     FDS
         4 013246   177777 376007                    ANQ     65535,DL
         4 013247   000002 276003                    ORQ     2,DU
         4 013250   000000 756000 xsym               STQ     FDS

     2669    15649    3         FDS.NVECS# = 0;

  15649  4 013251   000011 450000 xsym               STZ     FDS+9

     2670    15650    3         END;  /*  All keys  */

  15650  4 013252   013325 710000 4                  TRA     s:15666

     2671    15651    3      ELSE DO;

     2672    15652    3         SUBSTR (FMT_BUF, 3, SIZEC(KEY_FMT)) = KEY_FMT;

  15652  4 013253   040000 100400                    MLR     fill='040'O
         4 013254   003120 000023 2                  ADSC9   KEY_FMT                  cn=0,n=19
         4 013255   000000 600023 xsym               ADSC9   FMT_BUF                  cn=3,n=19

     2673    15653    3         FDS.FMT_.BOUND = FDS.FMT_.BOUND + SIZEC(KEY_FMT);

  15653  4 013256   000000 236000 xsym               LDQ     FDS
         4 013257   000020 772000                    QRL     16
         4 013260   000023 036007                    ADLQ    19,DL
         4 013261   000020 736000                    QLS     16
         4 013262   000000 676000 xsym               ERQ     FDS
         4 013263   000034 376000 xsym               ANQ     B_VECTNIL+28
         4 013264   000000 656000 xsym               ERSQ    FDS

     2674    15654    3         SBIN_IDX = 0;

PL6.E3A0      #002=ASL$LIST_OUT File=ASL$EXT.:E05TSI                             TUE 07/29/97 09:59 Page:450
  15654  4 013265   200164 450100                    STZ     SBIN_IDX,,AUTO

     2675    15655    3         FDS.NVECS# = 0;

  15655  4 013266   000011 450000 xsym               STZ     FDS+9

     2676    15656    4         DO I = 1 TO 72;

  15656  4 013267   000001 235007                    LDA     1,DL
         4 013270   000073 755000 3                  STA     I

     2677    15657    5            IF KEY_A(I-1) THEN DO;

  15657  4 013271   000073 235000 3                  LDA     I
         4 013272   000000 066405                    CMPB    filb='0'B
         4 013273   000066 700001 3                  BDSC    I,A                      by=3,bit=8,n=1
         4 013274   000002 000022 xsym               BDSC    B_VECTNIL+2              by=0,bit=0,n=18
         4 013275   013320 600000 4                  TZE     s:15663

     2678    15658    5               SBINS (SBIN_IDX) = I;

  15658  4 013276   200164 720100                    LXL0    SBIN_IDX,,AUTO
         4 013277   200020 755110                    STA     SBINS,X0,AUTO

     2679    15659    5               FMT_VEC (FDS.NVECS#) = VECTOR ( SBINS (SBIN_IDX));

  15659  4 013300   000011 236000 xsym               LDQ     FDS+9
         4 013301   000001 736000                    QLS     1
         4 013302   777640 235007                    LDA     -96,DL
         4 013303   200224 452500                    STP2    I+2,,AUTO
         4 013304   000000 621006                    EAX1    0,QL
         4 013305   200164 236100                    LDQ     SBIN_IDX,,AUTO
         4 013306   000022 736000                    QLS     18
         4 013307   000020 036003                    ADLQ    16,DU
         4 013310   200224 036100                    ADLQ    I+2,,AUTO
         4 013311   000000 755011 xsym               STA     FMT_VEC,X1
         4 013312   000001 756011 xsym               STQ     FMT_VEC+1,X1
PL6.E3A0      #002=ASL$LIST_OUT File=ASL$EXT.:E05TSI                             TUE 07/29/97 09:59 Page:451

     2680    15660    5               FMT_VEC (FDS.NVECS#+1) = VECTOR ( YES_STR );

  15660  4 013313   000102 237000 5                  LDAQ    66
         4 013314   000002 755011 xsym               STA     FMT_VEC+2,X1
         4 013315   000003 756011 xsym               STQ     FMT_VEC+3,X1

     2681    15661    5               FDS.NVECS# = FDS.NVECS# + 2;

  15661  4 013316   000002 236007                    LDQ     2,DL
         4 013317   000011 056000 xsym               ASQ     FDS+9

     2682    15662    5               END;  /*  Key is set  */

     2683    15663    4            END;    /*  Check all keys  */

  15663  4 013320   000073 235000 3                  LDA     I
         4 013321   000001 035007                    ADLA    1,DL
         4 013322   000073 755000 3                  STA     I
         4 013323   000111 115007                    CMPA    73,DL
         4 013324   013271 602000 4                  TNC     s:15657

     2684    15664    3         END;   /*  Some but not all keys set  */

     2685    15665
     2686    15666    2   CALL X$FORMAT (FDS);

  15666  4 013325   000004 630400 5                  EPPR0   4
         4 013326   000017 631400 xsym               EPPR1   B_VECTNIL+15
         4 013327   000000 701000 xent               TSX1    X$FORMAT
         4 013330   000000 011000                    NOP     0

     2687    15667
     2688    15668    2   RETURN;

  15668  4 013331   200176 221300                    LDX1  ! TMP_LEN+1,,AUTO
         4 013332   000001 702211                    TSX2  ! 1,X1
PL6.E3A0      #002=ASL$LIST_OUT File=ASL$EXT.:E05TSI                             TUE 07/29/97 09:59 Page:452

     2689    15669
     2690    15670    2   END LIST_KEY_JCL;
     2691    15671        %EJECT;
PL6.E3A0      #002=ASL$LIST_OUT File=ASL$EXT.:E05TSI                             TUE 07/29/97 09:59 Page:453
     2692    15672    1   LIST_PRIV_JCL: PROC(PRIV_FLG);

  15672  4 013333   200176 741300       LIST_PRIV_J* STX1  ! TMP_LEN+1,,AUTO

     2693    15673    2   DCL PRIV_FLG BIT(1) ALIGNED;
     2694    15674    2   DCL BOG_IDX SBIN;
     2695    15675    2   DCL I SBIN;
     2696    15676    2   DCL MORE BIT(1) ALIGNED;
     2697    15677    2   DCL PRIV BIT(36);
     2698    15678    2   DCL END_IDX SBIN;
     2699    15679    2   DCL 1 PRIV_TBL(0:71) CONSTANT,
     2700    15680    2          2 LEN UBIN BYTE UNAL INIT
     2701    15681    2             ( 7, 9, 6, 6, 6,
     2702    15682    2               8, 8, 7, 5, 5,
     2703    15683    2               6, 5, 6, 6, 6,
     2704    15684    2               5, 8, 8, 8, 5,
     2705    15685    2               0*16,
     2706    15686    2               8, 8, 5, 5, 9,
     2707    15687    2               7, 8, 6, 6, 7,
     2708    15688    2               8, 9, 9, 7, 8,
     2709    15689    2               8, 8, 8, 9, 8,
     2710    15690    2               9, 0*15),
     2711    15691    2          2 HDR CHAR(8) UNAL INIT
     2712    15692    2             ('ASAVE   ', 'DISPJOB ', 'CFEP    ', 'EXMM    ', 'EXPM    ',
     2713    15693    2              'FMDIAG  ', 'FMREAD  ', 'FMSEC   ', 'GPP     ', 'IOQ     ',
     2714    15694    2              'IOQW    ', 'JIT     ', 'MAXM    ', 'MFEP    ', 'MSYS    ',
     2715    15695    2              'PM      ', 'SPCLMM  ', 'SYSCON  ', 'SYSLOG  ', 'TND     ',
     2716    15696    2               ' '*16,
     2717    15697    2              'CNTRLC  ', 'CNTRLD  ', 'EFT     ', 'EL      ', 'NETCON  ',
     2718    15698    2              'LABEL   ', 'PADMIN  ', 'PIGC    ', 'PIGD    ', 'RATES   ',
     2719    15699    2              'REPLAY  ', 'SPIDERC ', 'SPIDERD ', 'SUPER   ', 'SUPERA  ',
     2720    15700    2              'SUPERD  ', 'SUPERF  ', 'SUPERW  ', 'VOLINIT ', 'SYSCON  ',
     2721    15701    2              'PIGETTE ', ' '*15 ),
     2722    15702    2          2 MASK BIT(36) UNAL INIT
     2723    15703    2             (%PR_ASAVE#,    %PR_DISPJOB#,  %PR_CFEP#,     %PR_EXMM#,     %PR_EXPM#,
     2724    15704    2              %PR_FMDIAG#,   %PR_FMREAD#,   %PR_FMSEC#,    %PR_GPP#,      %PR_IOQ#,
     2725    15705    2              %PR_IOQW#,     %PR_JIT#,      %PR_MAXMEM#,   %PR_MFEP#,     %PR_MSYS#,
PL6.E3A0      #002=ASL$LIST_OUT File=ASL$EXT.:E05TSI                             TUE 07/29/97 09:59 Page:454
     2726    15706    2              %PR_PM#,       %PR_SPCLMM#,   %PR_SYSCON#,   %PR_SYSLOG#,   %PR_TND#,
     2727    15707    2              '0'B*16,
     2728    15708    2              %PPR_CNTRLC#,  %PPR_CNTRLD#,  %PPR_EFT#,     %PPR_EL#,     %PPR_NETCON#,
     2729    15709    2              %PPR_LABEL#,   %PPR_PADMIN#,  %PPR_PIGC#,    %PPR_PIGD#,    %PPR_RATES#,
     2730    15710    2              %PPR_REPLAY#,  %PPR_SPIDERC#, %PPR_SPIDERD#, %PPR_SUPER#,   %
             15710                       PPR_SUPERAUTH#,
     2731    15711    2              %PPR_SUPERD#, %PPR_SUPERFORM#,%PPR_SUPERWSN#,%PPR_VOLINIT#,%PPR_SYSCON#,
     2732    15712    2              %PPR_PIGETTE#, '0'B*15 );
     2733    15713        %EJECT;
PL6.E3A0      #002=ASL$LIST_OUT File=ASL$EXT.:E05TSI                             TUE 07/29/97 09:59 Page:455
     2734    15714    2   IF PRIV_FLG

  15714  4 013334   200177 470500                    LDP0    @PRIV_FLG,,AUTO
         4 013335   000000 234100                    SZN     0,,PR0
         4 013336   013347 605000 4                  TPL     s:15721

     2735    15715    3   THEN DO;

     2736    15716    3      CALL ASB$WRITE_LO( JCL_OPT_TBL.HDR(L_PRIV), LENGTHC(OPT_TBL.HDR(L_PRIV)));

  15716  4 013337   000333 630400 5                  EPPR0   219
         4 013340   000020 631400 xsym               EPPR1   B_VECTNIL+16
         4 013341   000000 701000 xent               TSX1    ASB$WRITE_LO
         4 013342   000000 011000                    NOP     0

     2737    15717    3      NXT_IDX = 0;

  15717  4 013343   200016 450100                    STZ     NXT_IDX,,AUTO

     2738    15718    3      END_IDX = 36;

  15718  4 013344   000044 235007                    LDA     36,DL
         4 013345   200204 755100                    STA     END_IDX,,AUTO

     2739    15719    3      END;

  15719  4 013346   013357 710000 4                  TRA     s:15725

     2740    15720    3   ELSE DO;

     2741    15721    3      CALL ASB$WRITE_LO( JCL_OPT_TBL.HDR(L_PPRIV), LENGTHC(JCL_OPT_TBL.HDR(L_PPRIV)));

  15721  4 013347   000335 630400 5                  EPPR0   221
         4 013350   000020 631400 xsym               EPPR1   B_VECTNIL+16
         4 013351   000000 701000 xent               TSX1    ASB$WRITE_LO
         4 013352   000000 011000                    NOP     0

PL6.E3A0      #002=ASL$LIST_OUT File=ASL$EXT.:E05TSI                             TUE 07/29/97 09:59 Page:456
     2742    15722    3      NXT_IDX = 36;

  15722  4 013353   000044 235007                    LDA     36,DL
         4 013354   200016 755100                    STA     NXT_IDX,,AUTO

     2743    15723    3      END_IDX = 72;

  15723  4 013355   000110 236007                    LDQ     72,DL
         4 013356   200204 756100                    STQ     END_IDX,,AUTO

     2744    15724    3      END;

     2745    15725    2   ST_IDX = NXT_IDX;

  15725  4 013357   200016 236100                    LDQ     NXT_IDX,,AUTO
         4 013360   200166 756100                    STQ     ST_IDX,,AUTO

     2746    15726    3   DO WHILE(ST_IDX < END_IDX);

  15726  4 013361   200204 116100                    CMPQ    END_IDX,,AUTO
         4 013362   013502 605000 4                  TPL     s:15752

     2747    15727    3      IF PRIV_TBL.HDR (ST_IDX) ~= ' '

  15727  4 013363   200166 236100                    LDQ     ST_IDX,,AUTO
         4 013364   000015 402007                    MPY     13,DL
         4 013365   040000 106406                    CMPC    fill='040'O
         4 013366   004560 200010 2                  ADSC9   PRIV_TBL,Q               cn=1,n=8
         4 013367   000035 000001 xsym               ADSC9   B_VECTNIL+29             cn=0,n=1
         4 013370   013476 600000 4                  TZE     s:15750
         4 013371   040000 106406                    CMPC    fill='040'O
         4 013372   004560 200010 2                  ADSC9   PRIV_TBL,Q               cn=1,n=8
         4 013373   005230 000006 2                  ADSC9   PRIV_TBL+296             cn=0,n=6
         4 013374   013476 600000 4                  TZE     s:15750

     2748    15728    4           AND PRIV_TBL.HDR (ST_IDX) ~= 'PADMIN' THEN DO;

PL6.E3A0      #002=ASL$LIST_OUT File=ASL$EXT.:E05TSI                             TUE 07/29/97 09:59 Page:457
     2749    15729    4         CALL CONCAT ( FMT_BUF,'   ',PRIV_TBL.HDR(ST_IDX) );

  15729  4 013375   005136 236000 2                  LDQ     PRIV_TBL+238
         4 013376   000176 376000 5                  ANQ     126
         4 013377   000040 276007                    ORQ     32,DL
         4 013400   000000 756000 xsym               STQ     FMT_BUF
         4 013401   200166 236100                    LDQ     ST_IDX,,AUTO
         4 013402   000015 402007                    MPY     13,DL
         4 013403   040000 100406                    MLR     fill='040'O
         4 013404   004560 200010 2                  ADSC9   PRIV_TBL,Q               cn=1,n=8
         4 013405   000000 600374 xsym               ADSC9   FMT_BUF                  cn=3,n=252

     2750    15730    4         FDS.FMT_.BOUND = SIZEC(PRIV_TBL.HDR(ST_IDX)) + 2;

  15730  4 013406   000000 236000 xsym               LDQ     FDS
         4 013407   177777 376007                    ANQ     65535,DL
         4 013410   000146 276000 5                  ORQ     102
         4 013411   000000 756000 xsym               STQ     FDS

     2751    15731    4         IF PRIV_TBL.LEN(ST_IDX)>0

  15731  4 013412   200166 236100                    LDQ     ST_IDX,,AUTO
         4 013413   000015 402007                    MPY     13,DL
         4 013414   000100 101406                    MRL     fill='000'O
         4 013415   004560 000001 2                  ADSC9   PRIV_TBL,Q               cn=0,n=1
         4 013416   200224 000004                    ADSC9   I+2,,AUTO                cn=0,n=4
         4 013417   200224 236100                    LDQ     I+2,,AUTO
         4 013420   000000 116003                    CMPQ    0,DU
         4 013421   013470 600000 4                  TZE     s:15746

     2752    15732    5         THEN DO;

     2753    15733    6            DO BOG_IDX = 0 TO 3;

  15733  4 013422   200200 450100                    STZ     BOG_IDX,,AUTO

     2754    15734    6               IF PRIV_FLG
PL6.E3A0      #002=ASL$LIST_OUT File=ASL$EXT.:E05TSI                             TUE 07/29/97 09:59 Page:458

  15734  4 013423   200177 470500                    LDP0    @PRIV_FLG,,AUTO
         4 013424   000000 234100                    SZN     0,,PR0
         4 013425   013432 605000 4                  TPL     s:15738

     2755    15735    6               THEN
     2756    15736    6                  PRIV = AS_USERS.PRIV(BOG_IDX);

  15736  4 013426   200200 720100                    LXL0    BOG_IDX,,AUTO
         4 013427   000225 236010 xsym               LDQ     AS_USERS+149,X0
         4 013430   200203 756100                    STQ     PRIV,,AUTO
         4 013431   013435 710000 4                  TRA     s:15739

     2757    15737    6               ELSE
     2758    15738    6                  PRIV = AS_USERS.PPRIV(BOG_IDX);

  15738  4 013432   200200 720100                    LXL0    BOG_IDX,,AUTO
         4 013433   000231 236010 xsym               LDQ     AS_USERS+153,X0
         4 013434   200203 756100                    STQ     PRIV,,AUTO

     2759    15739    6               IF PRIV & PRIV_TBL.MASK(ST_IDX)

  15739  4 013435   200166 236100                    LDQ     ST_IDX,,AUTO
         4 013436   000015 402007                    MPY     13,DL
         4 013437   000100 100406                    MLR     fill='000'O
         4 013440   004562 200004 2                  ADSC9   PRIV_TBL+2,Q             cn=1,n=4
         4 013441   200224 000004                    ADSC9   I+2,,AUTO                cn=0,n=4
         4 013442   200224 236100                    LDQ     I+2,,AUTO
         4 013443   200203 376100                    ANQ     PRIV,,AUTO
         4 013444   013455 600000 4                  TZE     s:15743

     2760    15740    6               THEN
     2761    15741    6                  FMT_VEC(BOG_IDX*2+1) = VECTOR(YES_STR);

  15741  4 013445   200200 235100                    LDA     BOG_IDX,,AUTO
         4 013446   000002 735000                    ALS     2
         4 013447   000000 621005                    EAX1    0,AL
PL6.E3A0      #002=ASL$LIST_OUT File=ASL$EXT.:E05TSI                             TUE 07/29/97 09:59 Page:459
         4 013450   000000 622005                    EAX2    0,AL
         4 013451   000102 237000 5                  LDAQ    66
         4 013452   000002 755011 xsym               STA     FMT_VEC+2,X1
         4 013453   000003 756012 xsym               STQ     FMT_VEC+3,X2
         4 013454   013464 710000 4                  TRA     s:15744

     2762    15742    6               ELSE
     2763    15743    6                  FMT_VEC(BOG_IDX*2+1) = VECTOR(NO_STR);

  15743  4 013455   200200 235100                    LDA     BOG_IDX,,AUTO
         4 013456   000002 735000                    ALS     2
         4 013457   000000 621005                    EAX1    0,AL
         4 013460   000000 622005                    EAX2    0,AL
         4 013461   000104 237000 5                  LDAQ    68
         4 013462   000002 755011 xsym               STA     FMT_VEC+2,X1
         4 013463   000003 756012 xsym               STQ     FMT_VEC+3,X2

     2764    15744    6               END; /*  Loop through femodes  */

  15744  4 013464   200200 054100                    AOS     BOG_IDX,,AUTO
         4 013465   200200 235100                    LDA     BOG_IDX,,AUTO
         4 013466   000003 115007                    CMPA    3,DL
         4 013467   013423 604400 4                  TMOZ    s:15734

     2765    15745    5            END;  /*  TBL.LEN > 0  */

     2766    15746    4         FDS.NVECS# = 8;

  15746  4 013470   000010 235007                    LDA     8,DL
         4 013471   000011 755000 xsym               STA     FDS+9

     2767    15747    4         CLASS = C_MODE_TEXT;

  15747  4 013472   000005 236007                    LDQ     5,DL
         4 013473   200005 756100                    STQ     CLASS,,AUTO

     2768    15748    4         CALL OUTPUT_FMT;
PL6.E3A0      #002=ASL$LIST_OUT File=ASL$EXT.:E05TSI                             TUE 07/29/97 09:59 Page:460

  15748  4 013474   012114 701000 4                  TSX1    OUTPUT_FMT
         4 013475   000000 011000                    NOP     0

     2769    15749    4         END; /*  Non blank hdr  */

     2770    15750    3      ST_IDX = ST_IDX + 1;

  15750  4 013476   200166 054100                    AOS     ST_IDX,,AUTO

     2771    15751    3      END;  /*  While ST_IDX < END_IDX  */

  15751  4 013477   200166 236100                    LDQ     ST_IDX,,AUTO
         4 013500   200204 116100                    CMPQ    END_IDX,,AUTO
         4 013501   013363 604000 4                  TMI     s:15727

     2772    15752    2   CALL ASB$WRITE_LO(END_STR,LENGTHC(END_STR));

  15752  4 013502   000320 630400 5                  EPPR0   208
         4 013503   000020 631400 xsym               EPPR1   B_VECTNIL+16
         4 013504   000000 701000 xent               TSX1    ASB$WRITE_LO
         4 013505   000000 011000                    NOP     0

     2773    15753    2   RETURN;

  15753  4 013506   200176 221300                    LDX1  ! TMP_LEN+1,,AUTO
         4 013507   000001 702211                    TSX2  ! 1,X1

     2774    15754    2   END LIST_PRIV_JCL;
     2775    15755        %EJECT;
PL6.E3A0      #002=ASL$LIST_OUT File=ASL$EXT.:E05TSI                             TUE 07/29/97 09:59 Page:461
     2776    15756    1   LIST_PSEUDO_JCL: PROC;

  15756  4 013510   200176 741300       LIST_PSEUDO* STX1  ! TMP_LEN+1,,AUTO

     2777    15757    2   DCL LEN SBIN;
     2778    15758    2   DCL I SBIN;
     2779    15759    2   DCL BOG_IDX SBIN;
     2780    15760
     2781    15761    2   CALL ASB$WRITE_LO(JCL_OPT_TBL.HDR(L_PSEUDO),SIZEC(JCL_OPT_TBL.HDR(L_PSEUDO)));

  15761  4 013511   000337 630400 5                  EPPR0   223
         4 013512   000020 631400 xsym               EPPR1   B_VECTNIL+16
         4 013513   000000 701000 xent               TSX1    ASB$WRITE_LO
         4 013514   000000 011000                    NOP     0

     2782    15762    3   DO I=0 TO 7;

  15762  4 013515   200200 450100                    STZ     I,,AUTO

     2783    15763    3      IF AS_USERS.PSDOL.PSDO_NAME(I)~=' '

  15763  4 013516   200200 235100                    LDA     I,,AUTO
         4 013517   000004 735000                    ALS     4
         4 013520   040000 106405                    CMPC    fill='040'O
         4 013521   000265 000010 xsym               ADSC9   AS_USERS+181,A           cn=0,n=8
         4 013522   000035 000001 xsym               ADSC9   B_VECTNIL+29             cn=0,n=1
         4 013523   013636 600000 4                  TZE     s:15786

     2784    15764    4      THEN DO;           /* This entry exists                  */

     2785    15765    4         CALL CONCAT ( FMT_BUF, '   ', AS_USERS.PSDOL.PSDO_NAME(I));

  15765  4 013524   005136 236000 2                  LDQ     PRIV_TBL+238
         4 013525   000176 376000 5                  ANQ     126
         4 013526   000040 276007                    ORQ     32,DL
         4 013527   000000 756000 xsym               STQ     FMT_BUF
         4 013530   040000 100405                    MLR     fill='040'O
PL6.E3A0      #002=ASL$LIST_OUT File=ASL$EXT.:E05TSI                             TUE 07/29/97 09:59 Page:462
         4 013531   000265 000010 xsym               ADSC9   AS_USERS+181,A           cn=0,n=8
         4 013532   000000 600374 xsym               ADSC9   FMT_BUF                  cn=3,n=252

     2786    15766    4         FDS.FMT_.BOUND = SIZEC(AS_USERS.PSDOL.PSDO_NAME(I)) + 2;

  15766  4 013533   000000 236000 xsym               LDQ     FDS
         4 013534   177777 376007                    ANQ     65535,DL
         4 013535   000146 276000 5                  ORQ     102
         4 013536   000000 756000 xsym               STQ     FDS

     2787    15767    5         DO BOG_IDX = 0 TO 3;

  15767  4 013537   200201 450100                    STZ     BOG_IDX,,AUTO

     2788    15768
     2789    15769    6            DO SELECT (BOG_IDX);

  15769  4 013540   200201 236100                    LDQ     BOG_IDX,,AUTO
         4 013541   000001 116007                    CMPQ    1,DL
         4 013542   013552 604000 4                  TMI     s:15769+10
         4 013543   013567 600000 4                  TZE     s:15774
         4 013544   000002 116007                    CMPQ    2,DL
         4 013545   013624 604000 4                  TMI     s:15781
         4 013546   013601 600000 4                  TZE     s:15776
         4 013547   000003 116007                    CMPQ    3,DL
         4 013550   013624 601000 4                  TNZ     s:15781
         4 013551   013613 710000 4                  TRA     s:15778
         4 013552   000000 116003                    CMPQ    0,DU
         4 013553   013624 601000 4                  TNZ     s:15781
         4 013554   013555 710000 4                  TRA     s:15772

     2790    15770
     2791    15771    6               SELECT(0);

     2792    15772    6               FMT_VEC(BOG_IDX*2+1) = VECTOR(AS_USERS.PSDOL.BMAX(I));

  15772  4 013555   200201 235100                    LDA     BOG_IDX,,AUTO
PL6.E3A0      #002=ASL$LIST_OUT File=ASL$EXT.:E05TSI                             TUE 07/29/97 09:59 Page:463
         4 013556   000002 735000                    ALS     2
         4 013557   000000 620005                    EAX0    0,AL
         4 013560   377640 235007                    LDA     130976,DL
         4 013561   200200 236100                    LDQ     I,,AUTO
         4 013562   000024 736000                    QLS     20
         4 013563   000127 036000 5                  ADLQ    87
         4 013564   000002 755010 xsym               STA     FMT_VEC+2,X0
         4 013565   000003 756010 xsym               STQ     FMT_VEC+3,X0
         4 013566   013624 710000 4                  TRA     s:15781

     2793    15773    6               SELECT(1);

     2794    15774    6               FMT_VEC(BOG_IDX*2+1) = VECTOR(AS_USERS.PSDOL.GMAX(I));

  15774  4 013567   200201 235100                    LDA     BOG_IDX,,AUTO
         4 013570   000002 735000                    ALS     2
         4 013571   000000 620005                    EAX0    0,AL
         4 013572   377640 235007                    LDA     130976,DL
         4 013573   200200 236100                    LDQ     I,,AUTO
         4 013574   000024 736000                    QLS     20
         4 013575   000130 036000 5                  ADLQ    88
         4 013576   000002 755010 xsym               STA     FMT_VEC+2,X0
         4 013577   000003 756010 xsym               STQ     FMT_VEC+3,X0
         4 013600   013624 710000 4                  TRA     s:15781

     2795    15775    6               SELECT(2);

     2796    15776    6               FMT_VEC(BOG_IDX*2+1) = VECTOR(AS_USERS.PSDOL.OMAX(I));

  15776  4 013601   200201 235100                    LDA     BOG_IDX,,AUTO
         4 013602   000002 735000                    ALS     2
         4 013603   000000 620005                    EAX0    0,AL
         4 013604   377640 235007                    LDA     130976,DL
         4 013605   200200 236100                    LDQ     I,,AUTO
         4 013606   000024 736000                    QLS     20
         4 013607   000131 036000 5                  ADLQ    89
         4 013610   000002 755010 xsym               STA     FMT_VEC+2,X0
PL6.E3A0      #002=ASL$LIST_OUT File=ASL$EXT.:E05TSI                             TUE 07/29/97 09:59 Page:464
         4 013611   000003 756010 xsym               STQ     FMT_VEC+3,X0
         4 013612   013624 710000 4                  TRA     s:15781

     2797    15777    6               SELECT(3);

     2798    15778    6               FMT_VEC(BOG_IDX*2+1) = VECTOR(AS_USERS.PSDOL.TMAX(I));

  15778  4 013613   200201 235100                    LDA     BOG_IDX,,AUTO
         4 013614   000002 735000                    ALS     2
         4 013615   000000 620005                    EAX0    0,AL
         4 013616   377640 235007                    LDA     130976,DL
         4 013617   200200 236100                    LDQ     I,,AUTO
         4 013620   000024 736000                    QLS     20
         4 013621   000132 036000 5                  ADLQ    90
         4 013622   000002 755010 xsym               STA     FMT_VEC+2,X0
         4 013623   000003 756010 xsym               STQ     FMT_VEC+3,X0

     2799    15779
     2800    15780    6               END;   /*  Case ( BOG_IDX )  */

     2801    15781    5            END;     /*  Loop through the  modes  */

  15781  4 013624   200201 054100                    AOS     BOG_IDX,,AUTO
         4 013625   200201 235100                    LDA     BOG_IDX,,AUTO
         4 013626   000003 115007                    CMPA    3,DL
         4 013627   013540 604400 4                  TMOZ    s:15769

     2802    15782    4         CLASS = C_MODE_SBIN;

  15782  4 013630   000006 236007                    LDQ     6,DL
         4 013631   200005 756100                    STQ     CLASS,,AUTO

     2803    15783    4         FDS.NVECS# = 8;

  15783  4 013632   000010 235007                    LDA     8,DL
         4 013633   000011 755000 xsym               STA     FDS+9

PL6.E3A0      #002=ASL$LIST_OUT File=ASL$EXT.:E05TSI                             TUE 07/29/97 09:59 Page:465
     2804    15784    4         CALL OUTPUT_FMT;

  15784  4 013634   012114 701000 4                  TSX1    OUTPUT_FMT
         4 013635   000000 011000                    NOP     0

     2805    15785    4         END;    /*  If  pseudo exists  */

     2806    15786    3      END;  /*  Loop through all pseudo name storage  */

  15786  4 013636   200200 054100                    AOS     I,,AUTO
         4 013637   200200 235100                    LDA     I,,AUTO
         4 013640   000007 115007                    CMPA    7,DL
         4 013641   013516 604400 4                  TMOZ    s:15763

     2807    15787    2   CALL ASB$WRITE_LO(END_STR,LENGTHC(END_STR));

  15787  4 013642   000320 630400 5                  EPPR0   208
         4 013643   000020 631400 xsym               EPPR1   B_VECTNIL+16
         4 013644   000000 701000 xent               TSX1    ASB$WRITE_LO
         4 013645   000000 011000                    NOP     0

     2808    15788    2   RETURN;

  15788  4 013646   200176 221300                    LDX1  ! TMP_LEN+1,,AUTO
         4 013647   000001 702211                    TSX2  ! 1,X1

     2809    15789    2   END LIST_PSEUDO_JCL;
     2810    15790        %EJECT;
PL6.E3A0      #002=ASL$LIST_OUT File=ASL$EXT.:E05TSI                             TUE 07/29/97 09:59 Page:466
     2811    15791    1   LIST_RESOURCE_JCL: PROC;

  15791  4 013650   200176 741300       LIST_RESOUR* STX1  ! TMP_LEN+1,,AUTO

     2812    15792    2   DCL LEN SBIN;
     2813    15793    2   DCL I SBIN;
     2814    15794    2   DCL BOG_IDX SBIN;
     2815    15795
     2816    15796    2   CALL ASB$WRITE_LO(JCL_OPT_TBL.HDR(L_RES),SIZEC(JCL_OPT_TBL.HDR(L_RES)));

  15796  4 013651   000341 630400 5                  EPPR0   225
         4 013652   000020 631400 xsym               EPPR1   B_VECTNIL+16
         4 013653   000000 701000 xent               TSX1    ASB$WRITE_LO
         4 013654   000000 011000                    NOP     0

     2817    15797    3   DO I=0 TO 7;

  15797  4 013655   200200 450100                    STZ     I,,AUTO

     2818    15798    3      IF AS_USERS.RESL.RNAME(I)~=' '

  15798  4 013656   200200 236100                    LDQ     I,,AUTO
         4 013657   000012 402007                    MPY     10,DL
         4 013660   040000 106406                    CMPC    fill='040'O
         4 013661   000325 400002 xsym               ADSC9   AS_USERS+213,Q           cn=2,n=2
         4 013662   000035 000001 xsym               ADSC9   B_VECTNIL+29             cn=0,n=1
         4 013663   014010 600000 4                  TZE     s:15820

     2819    15799    4      THEN DO;           /* This entry exists                  */

     2820    15800    4         CALL CONCAT ( FMT_BUF, '   ', AS_USERS.RESL.RNAME(I));

  15800  4 013664   005136 236000 2                  LDQ     PRIV_TBL+238
         4 013665   000176 376000 5                  ANQ     126
         4 013666   000040 276007                    ORQ     32,DL
         4 013667   000000 756000 xsym               STQ     FMT_BUF
         4 013670   200200 236100                    LDQ     I,,AUTO
PL6.E3A0      #002=ASL$LIST_OUT File=ASL$EXT.:E05TSI                             TUE 07/29/97 09:59 Page:467
         4 013671   000012 402007                    MPY     10,DL
         4 013672   040000 100406                    MLR     fill='040'O
         4 013673   000325 400002 xsym               ADSC9   AS_USERS+213,Q           cn=2,n=2
         4 013674   000000 600374 xsym               ADSC9   FMT_BUF                  cn=3,n=252

     2821    15801    4         FDS.FMT_.BOUND = SIZEC(AS_USERS.RESL.RNAME(I)) + 2;

  15801  4 013675   000000 236000 xsym               LDQ     FDS
         4 013676   177777 376007                    ANQ     65535,DL
         4 013677   000001 276003                    ORQ     1,DU
         4 013700   000000 756000 xsym               STQ     FDS

     2822    15802    5         DO BOG_IDX = 0 TO 3;

  15802  4 013701   200201 450100                    STZ     BOG_IDX,,AUTO

     2823    15803
     2824    15804    6            DO SELECT (BOG_IDX);

  15804  4 013702   200201 236100                    LDQ     BOG_IDX,,AUTO
         4 013703   000001 116007                    CMPQ    1,DL
         4 013704   013714 604000 4                  TMI     s:15804+10
         4 013705   013733 600000 4                  TZE     s:15808
         4 013706   000002 116007                    CMPQ    2,DL
         4 013707   013776 604000 4                  TMI     s:15815
         4 013710   013747 600000 4                  TZE     s:15810
         4 013711   000003 116007                    CMPQ    3,DL
         4 013712   013776 601000 4                  TNZ     s:15815
         4 013713   013763 710000 4                  TRA     s:15812
         4 013714   000000 116003                    CMPQ    0,DU
         4 013715   013776 601000 4                  TNZ     s:15815
         4 013716   013717 710000 4                  TRA     s:15806

     2825    15805    6               SELECT(0);

     2826    15806    6               FMT_VEC(BOG_IDX*2+1) = VECTOR(AS_USERS.RESL.BMAX(I));

PL6.E3A0      #002=ASL$LIST_OUT File=ASL$EXT.:E05TSI                             TUE 07/29/97 09:59 Page:468
  15806  4 013717   200201 235100                    LDA     BOG_IDX,,AUTO
         4 013720   000002 735000                    ALS     2
         4 013721   000000 620005                    EAX0    0,AL
         4 013722   377640 235007                    LDA     130976,DL
         4 013723   200200 236100                    LDQ     I,,AUTO
         4 013724   200224 755100                    STA     I+2,,AUTO
         4 013725   000146 402000 5                  MPY     102
         4 013726   000145 036000 5                  ADLQ    101
         4 013727   200224 235100                    LDA     I+2,,AUTO
         4 013730   000002 755010 xsym               STA     FMT_VEC+2,X0
         4 013731   000003 756010 xsym               STQ     FMT_VEC+3,X0
         4 013732   013776 710000 4                  TRA     s:15815

     2827    15807    6               SELECT(1);

     2828    15808    6               FMT_VEC(BOG_IDX*2+1) = VECTOR(AS_USERS.RESL.GMAX(I));

  15808  4 013733   200201 235100                    LDA     BOG_IDX,,AUTO
         4 013734   000002 735000                    ALS     2
         4 013735   000000 620005                    EAX0    0,AL
         4 013736   377640 235007                    LDA     130976,DL
         4 013737   200200 236100                    LDQ     I,,AUTO
         4 013740   200224 755100                    STA     I+2,,AUTO
         4 013741   000146 402000 5                  MPY     102
         4 013742   000147 036000 5                  ADLQ    103
         4 013743   200224 235100                    LDA     I+2,,AUTO
         4 013744   000002 755010 xsym               STA     FMT_VEC+2,X0
         4 013745   000003 756010 xsym               STQ     FMT_VEC+3,X0
         4 013746   013776 710000 4                  TRA     s:15815

     2829    15809    6               SELECT(2);

     2830    15810    6               FMT_VEC(BOG_IDX*2+1) = VECTOR(AS_USERS.RESL.OMAX(I));

  15810  4 013747   200201 235100                    LDA     BOG_IDX,,AUTO
         4 013750   000002 735000                    ALS     2
         4 013751   000000 620005                    EAX0    0,AL
PL6.E3A0      #002=ASL$LIST_OUT File=ASL$EXT.:E05TSI                             TUE 07/29/97 09:59 Page:469
         4 013752   377640 235007                    LDA     130976,DL
         4 013753   200200 236100                    LDQ     I,,AUTO
         4 013754   200224 755100                    STA     I+2,,AUTO
         4 013755   000146 402000 5                  MPY     102
         4 013756   000150 036000 5                  ADLQ    104
         4 013757   200224 235100                    LDA     I+2,,AUTO
         4 013760   000002 755010 xsym               STA     FMT_VEC+2,X0
         4 013761   000003 756010 xsym               STQ     FMT_VEC+3,X0
         4 013762   013776 710000 4                  TRA     s:15815

     2831    15811    6               SELECT(3);

     2832    15812    6               FMT_VEC(BOG_IDX*2+1) = VECTOR(AS_USERS.RESL.TMAX(I));

  15812  4 013763   200201 235100                    LDA     BOG_IDX,,AUTO
         4 013764   000002 735000                    ALS     2
         4 013765   000000 620005                    EAX0    0,AL
         4 013766   377640 235007                    LDA     130976,DL
         4 013767   200200 236100                    LDQ     I,,AUTO
         4 013770   200224 755100                    STA     I+2,,AUTO
         4 013771   000146 402000 5                  MPY     102
         4 013772   000151 036000 5                  ADLQ    105
         4 013773   200224 235100                    LDA     I+2,,AUTO
         4 013774   000002 755010 xsym               STA     FMT_VEC+2,X0
         4 013775   000003 756010 xsym               STQ     FMT_VEC+3,X0

     2833    15813
     2834    15814    6               END;   /*  Case ( BOG_IDX )  */

     2835    15815    5            END;     /*  Loop through the  modes  */

  15815  4 013776   200201 054100                    AOS     BOG_IDX,,AUTO
         4 013777   200201 235100                    LDA     BOG_IDX,,AUTO
         4 014000   000003 115007                    CMPA    3,DL
         4 014001   013702 604400 4                  TMOZ    s:15804

     2836    15816    4         CLASS = C_MODE_SBIN;
PL6.E3A0      #002=ASL$LIST_OUT File=ASL$EXT.:E05TSI                             TUE 07/29/97 09:59 Page:470

  15816  4 014002   000006 236007                    LDQ     6,DL
         4 014003   200005 756100                    STQ     CLASS,,AUTO

     2837    15817    4         FDS.NVECS# = 8;

  15817  4 014004   000010 235007                    LDA     8,DL
         4 014005   000011 755000 xsym               STA     FDS+9

     2838    15818    4         CALL OUTPUT_FMT;

  15818  4 014006   012114 701000 4                  TSX1    OUTPUT_FMT
         4 014007   000000 011000                    NOP     0

     2839    15819    4         END;    /*  If  resource exists  */

     2840    15820    3      END;  /*  Loop through all resource name storage  */

  15820  4 014010   200200 054100                    AOS     I,,AUTO
         4 014011   200200 235100                    LDA     I,,AUTO
         4 014012   000007 115007                    CMPA    7,DL
         4 014013   013656 604400 4                  TMOZ    s:15798

     2841    15821    2   CALL ASB$WRITE_LO(END_STR,LENGTHC(END_STR));

  15821  4 014014   000320 630400 5                  EPPR0   208
         4 014015   000020 631400 xsym               EPPR1   B_VECTNIL+16
         4 014016   000000 701000 xent               TSX1    ASB$WRITE_LO
         4 014017   000000 011000                    NOP     0

     2842    15822    2   RETURN;

  15822  4 014020   200176 221300                    LDX1  ! TMP_LEN+1,,AUTO
         4 014021   000001 702211                    TSX2  ! 1,X1

     2843    15823    2   END LIST_RESOURCE_JCL;
     2844    15824        %EJECT;
PL6.E3A0      #002=ASL$LIST_OUT File=ASL$EXT.:E05TSI                             TUE 07/29/97 09:59 Page:471
     2845    15825    1   LIST_SERVICES_JCL: PROC;

  15825  4 014022   200176 741300       LIST_SERVIC* STX1  ! TMP_LEN+1,,AUTO

     2846    15826
     2847    15827    2   CALL ASB$WRITE_LO (SERVICES_STR,SIZEC(SERVICES_STR));

  15827  4 014023   000343 630400 5                  EPPR0   227
         4 014024   000020 631400 xsym               EPPR1   B_VECTNIL+16
         4 014025   000000 701000 xent               TSX1    ASB$WRITE_LO
         4 014026   000000 011000                    NOP     0

     2848    15828    2   CALL BUILD_JCL_FMT ( 61, %YES# );

  15828  4 014027   000012 236000 5                  LDQ     10
         4 014030   200202 756100                    STQ     @SUBOPTION_MODE,,AUTO
         4 014031   000346 236000 5                  LDQ     230
         4 014032   200201 756100                    STQ     BOG_IDX,,AUTO
         4 014033   006664 701000 4                  TSX1    BUILD_JCL_FMT
         4 014034   000000 011000                    NOP     0

     2849    15829    2   CALL ASB$WRITE_LO (END_STR,SIZEC(END_STR));

  15829  4 014035   000320 630400 5                  EPPR0   208
         4 014036   000020 631400 xsym               EPPR1   B_VECTNIL+16
         4 014037   000000 701000 xent               TSX1    ASB$WRITE_LO
         4 014040   000000 011000                    NOP     0

     2850    15830    2   RETURN;

  15830  4 014041   200176 221300                    LDX1  ! TMP_LEN+1,,AUTO
         4 014042   000001 702211                    TSX2  ! 1,X1
     2851    15831    2   END LIST_SERVICES_JCL;
     2852    15832    1   END ASL$LIST_OUT;

PL6.E3A0      #002=ASL$LIST_OUT File=ASL$EXT.:E05TSI                             TUE 07/29/97 09:59 Page:472
--  Include file information  --

   AS_SUPER_R.:E05TOU  cannot be made into a system file and is referenced.
   XU_FORMAT_C.:E05TOU  is referenced.
   XU_MACRO_C.:E05TOU  is referenced.
   KL_SUPER_C.:E05TOU  is referenced.
   CP_6.:E05TOU  cannot be made into a system file and is referenced.
   AS_MAC_C.:E05TOU  cannot be made into a system file and is referenced.
   AS_SUBS_C.:E05TOU  is referenced.
   AS_SUPER_C.:E05TOU  is referenced.
   AS_ENTRIES_M.:E05TOU  is referenced.
   CP_6_SUBS.:E05TOU  is referenced.
   B$JIT_C.:E05TOU  was found in the system file and is referenced.
   CP_6_C.:E05TOU  was found in the system file and is referenced.
      No diagnostics issued in procedure ASL$LIST_OUT.
PL6.E3A0      #002=ASL$LIST_OUT File=ASL$EXT.:E05TSI                             TUE 07/29/97 09:59 Page:473

 **** Variables and constants ****

  ****  Section 002 RoData ASL$LIST_OUT

  ****  Scalars and arrays  ****
OctLoc.c.b A Datatyp(siz) R M Lvl/name                 OctLoc.c.b A Datatyp(siz) R M Lvl/name

  3222-0-0/b STRC(72)    r     1 ALL_KEYS                4556-0-0/b STRC(72)    r     1 ALL_KEYS
  3216-0-0/c CHAR(9)     r     1 ALTERABLE_STR           3115-0-0/c CHAR(11)    r     1 BANNER_FMT
  3200-0-0/c CHAR        r     1 BL_STR
  3155-0-0/c CHAR(4)     r     1 BOG_BUF(0:5)
  3163-0-0/c CHAR(4)     r     1 BOG_FE_BUF(0:4)
  3207-0-0/c CHAR(6)     r     1 BUDGET_STR              3221-0-0/c CHAR(3)     r     1 END_STR
  3232-0-0/c CHAR(26)    r     1 FEPSEUDO_HDR
  3204-0-0/c CHAR(2)     r     1 JCL_FE_MODES(0:4)
  3201-0-0/c CHAR(2)     r     1 JCL_MODES(0:5)
  1523-0-0/c STRC(189)   r     1 JCL_OPT_TBL(0:144)
  3120-0-0/c CHAR(19)    r     1 KEY_FMT                 3125-0-0/c CHAR(24)    r     1 MODE_SBIN_FMT
  3133-0-0/c CHAR(24)    r     1 MODE_TEXT_FMT           3141-0-0/c CHAR(10)    r     1 MONEY_FMT
  3170-0-0/c CHAR(5)     r     1 NEVER_STR               3174-0-0/c CHAR(4)     r     1 NONE_STR
  3175-0-0/c CHAR(10)    r     1 NO_PROFILE_STR          3173-0-0/c CHAR(2)     r     1 NO_STR
     0-0-0/c STRC(200)   r     1 OPT_TBL(0:147)          3613-0-0/c CHAR(28)    r     1 PPRIV_HDR
  4174-0-0/c CHAR(31)    r     1 PPRIV_HDR
  3241-0-0/c STRC(117)   r     1 PRIV_TBL(0:71)
  3622-0-0/c STRC(117)   r     1 PRIV_TBL(0:71)
  4204-0-0/c STRC(117)   r     1 PRIV_TBL(0:71)
  4560-0-0/c STRC(117)   r     1 PRIV_TBL(0:71)
  3224-0-0/c CHAR(24)    r     1 PSEUDO_HDR              3144-0-0/c CHAR(6)     r     1 SBIN_FMT
  3211-0-0/c CHAR(8)     r     1 SERVICES_STR            3146-0-0/c CHAR(6)     r     1 TEXT_FMT
  3213-0-0/c CHAR(11)    r     1 UNALTERABLE_STR         3150-0-0/c CHAR(19)    r     1 YESNO_FMT
  3172-0-0/c CHAR(3)     r     1 YES_STR

  ****  Section 003  Data  ASL$LIST_OUT

  ****  Scalars and arrays  ****
OctLoc.c.b A Datatyp(siz) R M Lvl/name                 OctLoc.c.b A Datatyp(siz) R M Lvl/name

PL6.E3A0      #002=ASL$LIST_OUT File=ASL$EXT.:E05TSI                             TUE 07/29/97 09:59 Page:474
     0-0-0/w CHAR(24)    r     1 ACCT_ARRY(0:3)
    30-0-0/w CHAR        r     1 FRST_CHR                  32-0-0/d STRC(432)   r     1 GET_LOGON
    66-0-0/w UBIN        r     1 I                         73-0-0/w UBIN        r     1 I
    62-0-0/b BIT (72)    r     1 KEYS                      67-0-0/b BIT (72)    r     1 KEYS
    62-0-0/b BIT         r     1 KEY_A(0:71)               67-0-0/b BIT         r     1 KEY_A(0:71)
    46-0-0/c CHAR(22)    r     1 LAST_LOGON_BUF            65-0-0/w UBIN        r     1 LEN
    54-0-0/c CHAR(8)     r     1 LOGON_DATE                56-0-0/c CHAR(3)     r     1 LOGON_DAY
    57-0-0/c CHAR(11)    r     1 LOGON_TIME                64-0-0/w UBIN        r     1 TAB

  ****  Auto variables  ****

  ****  Scalars and arrays  ****
OctLoc.c.b A Datatyp(siz) R M Lvl/name                 OctLoc.c.b A Datatyp(siz) R M Lvl/name

     3-0-0/w PTR         r     1 @DO_FLAG                 177-0-0/w PTR         r     1 @HDR_LEN
   177-0-0/w PTR         r     1 @PRIV_FLG                177-0-0/w PTR         r     1 @PRIV_FLG
   177-0-0/w PTR         r     1 @PRIV_FLG                177-0-0/w PTR         r     1 @PRIV_FLG
   201-0-0/w PTR         r     1 @START_INDEX             200-0-0/w PTR         r     1 @STOP
   202-0-0/w PTR         r     1 @SUBOPTION_MODE            4-0-0/w BIT         r     1 BOG(0:35)
     4-0-0/w UBIN(2)     r     1 BOGU                     177-0-0/w SBIN        r     1 BOG_IDX
   201-0-0/w SBIN        r     1 BOG_IDX                  201-0-0/w SBIN        r     1 BOG_IDX
   201-0-0/w SBIN        r     1 BOG_IDX                  201-0-0/w SBIN        r     1 BOG_IDX
   200-0-0/w SBIN        r     1 BOG_IDX                  200-0-0/w SBIN        r     1 BOG_IDX
   203-0-0/w SBIN        r     1 BOG_IDX                  221-0-0/w SBIN        r     1 BOG_IDX
   200-0-0/w SBIN        r     1 BOG_IDX                  201-0-0/w SBIN        r     1 BOG_IDX
   201-0-0/w SBIN        r     1 BOG_IDX                  200-0-0/w SBIN        r     1 BOG_IDX
   201-0-0/w SBIN        r     1 BOG_IDX                  201-0-0/w SBIN        r     1 BOG_IDX
     5-0-0/w SBIN        r     1 CLASS                    204-0-0/w SBIN        r     1 CNT1
   201-0-0/w SBIN        r     1 CUR_IDX                  201-0-0/w SBIN        r     1 CUR_IDX
    *0-0-0/b BIT         r     1 DO_FLAG(0:143)           204-0-0/w SBIN        r     1 END_IDX
   204-0-0/w SBIN        r     1 END_IDX                  204-0-0/w SBIN        r     1 END_IDX
   204-0-0/w SBIN        r     1 END_IDX                    6-0-0/w SBIN        r     1 FIELDS
    *0-0-0/b STRC(144)   r     1 FLAGS                      7-0-0/w SBIN        r     1 HDR_LEN
    *0-0-0/w SBIN        r     1 HDR_LEN                   10-0-0/w SBIN        r     1 I
   217-0-0/w UBIN        r     1 I                        200-0-0/w SBIN        r     1 I
   200-0-0/w SBIN        r     1 I                        200-0-0/w SBIN        r     1 I
   200-0-0/w SBIN        r     1 I                        201-0-0/w SBIN        r     1 I
PL6.E3A0      #002=ASL$LIST_OUT File=ASL$EXT.:E05TSI                             TUE 07/29/97 09:59 Page:475
   201-0-0/w SBIN        r     1 I                        205-0-0/w UBIN        r     1 I
   222-0-0/w SBIN        r     1 I                        200-0-0/w SBIN        r     1 I
   200-0-0/w SBIN        r     1 I                        200-0-0/w SBIN        r     1 I
   200-0-0/w SBIN        r     1 I                         11-0-0/w SBIN        r     1 INDX
    12-0-0/w SBIN        r     1 J                        200-0-0/w SBIN        r     1 J
    13-0-0/w SBIN        r     1 LEN                      177-0-0/w SBIN        r     1 LEN
   177-0-0/w SBIN        r     1 LEN                      177-0-0/w SBIN        r     1 LEN
   177-0-0/w SBIN        r     1 LEN                      211-0-0/c CHAR(21)    r     1 MACCT
   206-0-0/c CHAR(21)    r     1 MACCT                    202-0-0/w BIT         r     1 MORE
   202-0-0/w BIT         r     1 MORE                     202-0-0/w BIT         r     1 MORE
    14-0-0/w CHAR        r     1 NEW_CHR                  203-0-0/w UBIN        r     1 NEXT
   203-0-0/w UBIN        r     1 NEXT                     220-0-0/w UBIN        r     1 NEXT
   214-0-0/w UBIN        r     1 NEXT                     215-0-0/w UBIN        r     1 NEXT_INDEX
    15-0-0/w SBIN        r     1 NEXT_TAB                  16-0-0/w SBIN        r     1 NXT_IDX
   202-0-0/w SBIN        r     1 OFFSET                    17-0-0/b BIT         r     1 POSITION
   203-0-0/b BIT         r     1 PRIV                     203-0-0/b BIT         r     1 PRIV
   203-0-0/b BIT         r     1 PRIV                     203-0-0/b BIT         r     1 PRIV
    *0-0-0/w BIT         r     1 PRIV_FLG                  *0-0-0/w BIT         r     1 PRIV_FLG
    *0-0-0/w BIT         r     1 PRIV_FLG                  *0-0-0/w BIT         r     1 PRIV_FLG
    20-0-0/w SBIN        r     1 SBINS(0:99)              164-0-0/w SBIN        r     1 SBIN_IDX
   210-0-0/w SBIN        r     1 SIDX                     216-0-0/w SBIN        r     1 SIDX
    *0-0-0/w UBIN        r     1 START_INDEX               *0-0-0/w UBIN        r     1 STOP
   166-0-0/w SBIN        r     1 ST_IDX                    *0-0-0/b BIT         r     1 SUBOPTION_MODE
   165-0-0/w SBIN        r     1 SVAL                     204-0-0/w UBIN        r     1 TEMP
   167-0-0/w CHAR(24)    r     1 TEMP_BUF                 175-0-0/w UBIN        r     1 TMP_LEN
   207-0-0/w BIT         r     1 YES_NO

  ****  SYMREF variables  ****

  ****  Scalars and arrays  ****
OctLoc.c.b A Datatyp(siz) R M Lvl/name                 OctLoc.c.b A Datatyp(siz) R M Lvl/name

     0-0-0/c CHAR        r     1 AS_BLANK                   0-0-0/b BIT         r     1 AS_FALSE
     0-0-0/w STRC(369)   r     1 AS_FIELD1                  0-0-0/c STRC(189)   r     1 AS_LOGON_KEY
     0-0-0/c STRC(189)   r     1 AS_NONE                    0-0-0/w STRC(18576) r     1 AS_PROJECT
     0-0-0/c STRC(189)   r     1 AS_PROJECT_ADMIN           0-0-0/w STRC(18576) r     1 AS_PROJECT_DFLT
     0-0-0/w STRC(18576) r     1 AS_USERS                   0-0-0/w PTR         r     1 B$JIT$
PL6.E3A0      #002=ASL$LIST_OUT File=ASL$EXT.:E05TSI                             TUE 07/29/97 09:59 Page:476
     0-0-0/c CHAR(8)     r     1 BLANK_PASS                 0-0-0/w PTR         r     1 DSEG1$
     0-0-0/w PTR         r     1 DSEG2$                     0-0-0/w STRC(1080)  r     1 FDS
     0-0-0/c CHAR(255)   r     1 FMT_BUF                    0-0-0/w STRC(72)    r     1 FMT_VEC(0:75)
     0-0-0/w STRC(6084)  r     1 KL_DREC                    0-0-0/b BIT         r     1 LIST_ACCT_FLG
     0-0-0/w UBIN        r     1 LO_WIDTH                   0-0-0/c CHAR(140)   r     1 OUT_BUF
     0-0-0/c STRC(378)   r     1 USERS_KEY

  ****  BASED and DCB variables  ****

  ****  Scalars and arrays  ****
OctLoc.c.b A Datatyp(siz) R M Lvl/name                 OctLoc.c.b A Datatyp(siz) R M Lvl/name

     0-0-0/w ASTR(468)   r     1 AS$PROJ                    0-0-0/w ASTR(522)   r     1 SUPER_TO_PIG
     0-0-0/c ASTR(9)     r     1 TEXT$C


   Procedure ASL$LIST_OUT requires 6179 words for executable code.
   Procedure ASL$LIST_OUT requires 152 words of local(AUTO) storage.

    No errors detected in file ASL$EXT.:E05TSI    .
PL6.E3A0      #002=ASL$LIST_OUT File=ASL$EXT.:E05TSI                             TUE 07/29/97 09:59 Page:477
          *** CROSS REFERENCE LISTING ***
**     DENOTES     IDENTIFIER DEFINITION
<<                 IDENTIFIER'S VALUE SET
>>                 IDENTIFIER'S VALUE USED
<>                 IDENTIFIER SET AND/OR USED
--                 IDENTIFIER REFERENCED
PL6.E3A0      #002=ASL$LIST_OUT File=ASL$EXT.:E05TSI                             TUE 07/29/97 09:59 Page:478
          MINI XREF LISTING

ACCT_ARRY
     13379**DCL     13477--IF      13484<<ASSIGN  13485--ASSIGN
ALL_KEYS IN PROCEDURE LIST_KEY
     14127**DCL     14138>>IF
ALL_KEYS IN PROCEDURE LIST_KEY_JCL
     15632**DCL     15646>>IF
ALTERABLE_STR
     13374**DCL     14814--ASSIGN  15267--ASSIGN
AS$PROJ.ATTRIBUTES.COUNT
     13132**DCL     13133--IMP-SIZ 13600>>IF      13609>>DOWHILE 13610>>CALLBLT 13616>>CALLBLT
AS$PROJ.ATTRIBUTES.TEXT
     13133**DCL     13610>>CALLBLT 13616>>CALLBLT
AS$PROJ.GRANS_ACCUM
     13123**DCL     14076>>ASSIGN  15360--ASSIGN
AS$PROJ.MAX_NUM_ACCTS
     13127**DCL     14067>>ASSIGN  15341--ASSIGN
AS$PROJ.MAX_NUM_GRANS
     13121**DCL     14073>>ASSIGN  15355--ASSIGN
AS$PROJ.NUM_ACCTS
     13129**DCL     14070>>ASSIGN  15347--ASSIGN
AS$PROJ.SKELETON
     13125**DCL     14079--ASSIGN  15365--ASSIGN
AS$PROJ.SUB_PROJ_ACCTS
     13119**DCL     14070>>ASSIGN  15350--ASSIGN
ASA_BRKS_LOC
      9953**DCL      9953--REDEF
ASB$BINCHAR
      3536**DCL-ENT 14152--CALL
ASB$PIG
     13095**DCL-ENT 14695--CALL
ASB$WRITE_LO
     13092**DCL-ENT 13455--CALL    13458--CALL    13473--CALL    13508--CALL    13520--CALL    13521--CALL
PL6.E3A0      #002=ASL$LIST_OUT File=ASL$EXT.:E05TSI                             TUE 07/29/97 09:59 Page:479
     13544--CALL    13545--CALL    13554--CALL    13555--CALL    13571--CALL    13572--CALL    13593--CALL
     13594--CALL    13604--CALL    13605--CALL    13613--CALL    13620--CALL    13622--CALL    14132--CALL
     14133--CALL    14136--CALL    14139--CALL    14189--CALL    14215--CALL    14216--CALL    14217--CALL
     14218--CALL    14268--CALL    14269--CALL    14270--CALL    14271--CALL    14319--CALL    14320--CALL
     14321--CALL    14322--CALL    14370--CALL    14371--CALL    14372--CALL    14373--CALL    14450--CALL
     14453--CALL    14458--CALL    14486--CALL    14487--CALL    14568--CALL    14571--CALL    14576--CALL
     14604--CALL    14605--CALL    14681--CALL    14683--CALL    14684--CALL    14685--CALL    14698--CALL
     15468--CALL    15470--CALL    15515--CALL    15520--CALL    15551--CALL    15560--CALL    15586--CALL
     15595--CALL    15621--CALL    15716--CALL    15721--CALL    15752--CALL    15761--CALL    15787--CALL
     15796--CALL    15821--CALL    15827--CALL    15829--CALL
AS_BLANK
      9813**DCL     13437>>CALLBLT 13447>>CALLBLT 13571<>CALL    13593<>CALL    13604<>CALL    13606>>ASSIGN
     13610>>CALLBLT 13622<>CALL    14132<>CALL    14191>>ASSIGN  14683<>CALL    14685<>CALL    14698<>CALL
     15068>>ASSIGN
AS_DEFAULT.BANNER_PERM
     10646**DCL     10647--REDEF
AS_DEFAULT.BUDGET.MACCT
     10551**DCL     10555--REDEF
AS_DEFAULT.BUDGET.MAX_PROJECTS
     10564**DCL     10567--REDEF
AS_DEFAULT.BUDGET.PACCUM
     10547**DCL     10549--REDEF
AS_DEFAULT.BUDGET.PMAXC
     10542**DCL     10544--REDEF
AS_DEFAULT.SETUP_CHRA.TXT
     10662**DCL     10663--REDEF   10664--REDEF
AS_DEFAULT_DREC.PASSWORD
     11916**DCL     11920--REDEF
AS_DEFAULT_DREC.RENAME
     11939**DCL     11940--REDEF
AS_DFLT.BANNER_PERM
     10468**DCL     10469--REDEF
AS_DFLT.BUDGET.MACCT
     10373**DCL     10377--REDEF
AS_DFLT.BUDGET.MAX_PROJECTS
     10386**DCL     10389--REDEF
PL6.E3A0      #002=ASL$LIST_OUT File=ASL$EXT.:E05TSI                             TUE 07/29/97 09:59 Page:480
AS_DFLT.BUDGET.PACCUM
     10369**DCL     10371--REDEF
AS_DFLT.BUDGET.PMAXC
     10364**DCL     10366--REDEF
AS_DFLT.SETUP_CHRA.TXT
     10484**DCL     10485--REDEF   10486--REDEF
AS_FALSE
      9813**DCL     14135>>IF
AS_FE_MODE
      9819**DCL      9820--REDEF
AS_FIELD1.COUNT
      9950**DCL     14174>>ASSIGN  14176>>CALLBLT
AS_FIELD1.TEXT
      9950**DCL     14152<>CALL    14176>>CALLBLT
AS_LOGON_KEY.TEXT
      9958**DCL     14690>>ASSIGN
AS_MODE
      9816**DCL      9818--REDEF
AS_MOD_USER.ACCESS
     12681**DCL     12682--REDEF
AS_MOD_USER.BANNER
     12668**DCL     12669--REDEF
AS_MOD_USER.BANNER_PERM
     12670**DCL     12671--REDEF
AS_MOD_USER.BILL
     12676**DCL     12677--REDEF
AS_MOD_USER.CPROC
     12672**DCL     12673--REDEF
AS_MOD_USER.FEBILL
     12752**DCL     12753--REDEF
AS_MOD_USER.FECXTMEM
     12769**DCL     12770--REDEF
AS_MOD_USER.FEMINTS
     12754**DCL     12755--REDEF
AS_MOD_USER.FEMMEM
     12765**DCL     12766--REDEF
PL6.E3A0      #002=ASL$LIST_OUT File=ASL$EXT.:E05TSI                             TUE 07/29/97 09:59 Page:481
AS_MOD_USER.FEMTIME
     12763**DCL     12764--REDEF
AS_MOD_USER.FEPPRIV
     12760**DCL     12762--REDEF
AS_MOD_USER.FEPRIV
     12757**DCL     12759--REDEF
AS_MOD_USER.FORCE_BIT
     12666**DCL     12667--REDEF
AS_MOD_USER.KEY
     12748**DCL     12750--REDEF
AS_MOD_USER.LASTCPROC
     12674**DCL     12675--REDEF
AS_MOD_USER.LIMITS.DO_
     12722**DCL     12723--REDEF
AS_MOD_USER.LIMITS.FPOOLS
     12738**DCL     12739--REDEF
AS_MOD_USER.LIMITS.LO
     12718**DCL     12719--REDEF
AS_MOD_USER.LIMITS.MEM
     12714**DCL     12715--REDEF
AS_MOD_USER.LIMITS.MPRIO
     12742**DCL     12743--REDEF
AS_MOD_USER.LIMITS.PDIS
     12730**DCL     12731--REDEF
AS_MOD_USER.LIMITS.PO
     12726**DCL     12727--REDEF
AS_MOD_USER.LIMITS.TDIS
     12734**DCL     12735--REDEF
AS_MOD_USER.LIMITS.TIME
     12710**DCL     12711--REDEF
AS_MOD_USER.MAXENQ
     12691**DCL     12692--REDEF
AS_MOD_USER.PERM_BIT
     12664**DCL     12665--REDEF
AS_MOD_USER.PPRIV
     12686**DCL     12688--REDEF
PL6.E3A0      #002=ASL$LIST_OUT File=ASL$EXT.:E05TSI                             TUE 07/29/97 09:59 Page:482
AS_MOD_USER.PRIOB
     12693**DCL     12694--REDEF
AS_MOD_USER.PRIV
     12683**DCL     12685--REDEF
AS_MOD_USER.QUAN
     12689**DCL     12690--REDEF
AS_MOD_USER.SETUP
     12662**DCL     12663--REDEF
AS_NONE
      9814**DCL     13795>>IF      14689>>ASSIGN  15064>>IF
AS_NONE.TEXT
      9814**DCL     13797>>ASSIGN  15066>>ASSIGN
AS_PROJECT.BANNER_PERM
     11002**DCL     11003--REDEF
AS_PROJECT.BUDGET.MACCT
     10907**DCL     10911--REDEF
AS_PROJECT.BUDGET.MAX_PROJECTS
     10920**DCL     10923--REDEF   14061>>ASSIGN  15331--ASSIGN
AS_PROJECT.BUDGET.PACCUM
     10903**DCL     10905--REDEF   14058>>ASSIGN  15326>>ASSIGN
AS_PROJECT.BUDGET.PMAXC
     10898**DCL     10900--REDEF   14049>>IF      14054>>ASSIGN  15315>>IF      15320>>ASSIGN
AS_PROJECT.SETUP_CHRA.TXT
     11018**DCL     11019--REDEF   11020--REDEF
AS_PROJECT_ADMIN
      9957**DCL     14689>>ASSIGN
AS_PROJECT_ADMIN.TEXT
      9957**DCL     14691>>ASSIGN
AS_PROJECT_DFLT.BANNER_PERM
     11180**DCL     11181--REDEF
AS_PROJECT_DFLT.BUDGET.MACCT
     11085**DCL     11089--REDEF
AS_PROJECT_DFLT.BUDGET.MAX_PROJECTS
     11098**DCL     11101--REDEF
AS_PROJECT_DFLT.BUDGET.PACCUM
     11081**DCL     11083--REDEF
PL6.E3A0      #002=ASL$LIST_OUT File=ASL$EXT.:E05TSI                             TUE 07/29/97 09:59 Page:483
AS_PROJECT_DFLT.BUDGET.PMAXC
     11076**DCL     11078--REDEF
AS_PROJECT_DFLT.BUDGET.PROJ_ALLOWED
     11078**DCL     14043>>ASSIGN  15305--ASSIGN
AS_PROJECT_DFLT.BUDGET.PROJ_CREATED
     11083**DCL     14046>>ASSIGN  15310--ASSIGN
AS_PROJECT_DFLT.BUDGET.SUB_PROJS
     11101**DCL     14064>>ASSIGN  15336--ASSIGN
AS_PROJECT_DFLT.SETUP_CHRA.TXT
     11196**DCL     11197--REDEF   11198--REDEF
AS_PROJECT_DFLT_DREC.PASSWORD
     12402**DCL     12406--REDEF
AS_PROJECT_DFLT_DREC.RENAME
     12425**DCL     12426--REDEF
AS_PROJECT_DREC.PASSWORD
     12240**DCL     12244--REDEF
AS_PROJECT_DREC.RENAME
     12263**DCL     12264--REDEF
AS_PROJ_ADMIN.BANNER_PERM
     10824**DCL     10825--REDEF
AS_PROJ_ADMIN.BUDGET.MACCT
     10729**DCL     10733--REDEF
AS_PROJ_ADMIN.BUDGET.MAX_PROJECTS
     10742**DCL     10745--REDEF
AS_PROJ_ADMIN.BUDGET.PACCUM
     10725**DCL     10727--REDEF
AS_PROJ_ADMIN.BUDGET.PMAXC
     10720**DCL     10722--REDEF
AS_PROJ_ADMIN.SETUP_CHRA.TXT
     10840**DCL     10841--REDEF   10842--REDEF
AS_PROJ_ADMIN_DREC.PASSWORD
     12078**DCL     12082--REDEF
AS_PROJ_ADMIN_DREC.RENAME
     12101**DCL     12102--REDEF
AS_USERS
     10175**DCL     15284--ASSIGN
PL6.E3A0      #002=ASL$LIST_OUT File=ASL$EXT.:E05TSI                             TUE 07/29/97 09:59 Page:484
AS_USERS.ACCT
     10176**DCL     14693>>ASSIGN
AS_USERS.BANNER
     10303**DCL     13883>>IF      13886>>ASSIGN  13920>>IF      13923>>ASSIGN  14760>>IF      14763>>ASSIGN
     14801>>IF      14804>>ASSIGN
AS_USERS.BANNER_PERM
     10290**DCL     10291--REDEF   13917>>ASSIGN  14811>>IF
AS_USERS.BATNUM
     10182**DCL     13951>>ASSIGN  14818>>IF      14823>>ASSIGN
AS_USERS.BILL
     10214**DCL     13824--ASSIGN  14830--ASSIGN  14831--ASSIGN  14832--ASSIGN  14833--ASSIGN
AS_USERS.BUDGET
     10183**DCL     14841--ASSIGN  14849--ASSIGN  14857--ASSIGN  15040--ASSIGN  15209--ASSIGN
AS_USERS.BUDGET.ACCUM
     10185**DCL     13792>>ASSIGN  14770>>ASSIGN
AS_USERS.BUDGET.BKACC
     10202**DCL     13806>>ASSIGN
AS_USERS.BUDGET.BLINDACCTNG
     10206**DCL     13818>>ASSIGN
AS_USERS.BUDGET.BUDLIM
     10203**DCL     13809>>ASSIGN
AS_USERS.BUDGET.ICHARGES
     10205**DCL     13812>>ASSIGN
AS_USERS.BUDGET.MACCT
     10195**DCL     10199--REDEF   13795>>IF      15064>>IF
AS_USERS.BUDGET.MACCT.ACCT
     10197**DCL     13799>>CALLBLT 13800>>CALLBLT 15069>>CALLBLT 15070>>CALLBLT
AS_USERS.BUDGET.MACCT.NAME
     10198**DCL     13800>>CALLBLT 15070>>CALLBLT
AS_USERS.BUDGET.MAXC
     10184**DCL     13783>>IF      13788>>ASSIGN  15081>>IF      15086>>ASSIGN
AS_USERS.BUDGET.MAX_PROJECTS
     10208**DCL     10211--REDEF
AS_USERS.BUDGET.PACCUM
     10191**DCL     10193--REDEF
AS_USERS.BUDGET.PCHARGES
PL6.E3A0      #002=ASL$LIST_OUT File=ASL$EXT.:E05TSI                             TUE 07/29/97 09:59 Page:485
     10204**DCL     13815>>ASSIGN
AS_USERS.BUDGET.PMAXC
     10186**DCL     10188--REDEF
AS_USERS.CPROC
     10243**DCL     13827--ASSIGN  13827--ASSIGN  14863--ASSIGN  14863--ASSIGN  14864--ASSIGN  14864--ASSIGN
     14865--ASSIGN  14865--ASSIGN  14866--ASSIGN  14866--ASSIGN
AS_USERS.DDO
     10227**DCL     14016>>ASSIGN  14875--ASSIGN
AS_USERS.DEXP
     10264**DCL     13774>>IF      13779>>ASSIGN  14881>>IF      14886--ASSIGN
AS_USERS.DFPOOLS
     10235**DCL     14034>>ASSIGN  14931--ASSIGN
AS_USERS.DLO
     10225**DCL     14004>>ASSIGN  14895--ASSIGN
AS_USERS.DMEM
     10275**DCL     13992>>ASSIGN  14904--ASSIGN
AS_USERS.DMPRIO
     10237**DCL     14040>>ASSIGN  14940--ASSIGN
AS_USERS.DPDIS
     10231**DCL     14028>>ASSIGN  14913--ASSIGN
AS_USERS.DPO
     10229**DCL     14010>>ASSIGN  14922--ASSIGN
AS_USERS.DTDIS
     10233**DCL     14022>>ASSIGN  14949--ASSIGN
AS_USERS.DTIME
     10272**DCL     13998>>ASSIGN  14958>>ASSIGN
AS_USERS.FLAGS
     10265**DCL     15276--ASSIGN
AS_USERS.FLAGS.STARSACC
     10267**DCL     13759>>ASSIGN
AS_USERS.HPSN
     10240**DCL     14692>>ASSIGN
AS_USERS.KEY
     10215**DCL     14134>>ASSIGN  15639>>ASSIGN
AS_USERS.LASTCPROC
     10248**DCL     13830--ASSIGN  13830--ASSIGN  15046--ASSIGN  15046--ASSIGN  15047--ASSIGN  15047--ASSIGN
PL6.E3A0      #002=ASL$LIST_OUT File=ASL$EXT.:E05TSI                             TUE 07/29/97 09:59 Page:486
     15048--ASSIGN  15048--ASSIGN  15049--ASSIGN  15049--ASSIGN
AS_USERS.LAST_LOGON_TIME
     10315**DCL     13928--ASSIGN  15055--ASSIGN
AS_USERS.LOGINS.BAD_LOGON_CNT
     10325**DCL     13943>>ASSIGN
AS_USERS.LOGINS.LAST_LOGON_TIME
     10323**DCL     13935--ASSIGN
AS_USERS.MAXENQ
     10330**DCL     13962>>ASSIGN  15225--ASSIGN
AS_USERS.MDO
     10226**DCL     14013>>ASSIGN  15106--ASSIGN
AS_USERS.MEXP
     10263**DCL     13765>>IF      13770>>ASSIGN  15092>>IF      15097--ASSIGN
AS_USERS.MFPOOLS
     10234**DCL     14031>>ASSIGN  15151--ASSIGN
AS_USERS.MLO
     10224**DCL     14001>>ASSIGN  15115--ASSIGN
AS_USERS.MMEM
     10274**DCL     13989>>ASSIGN  15124--ASSIGN
AS_USERS.MMPRIO
     10236**DCL     14037>>ASSIGN  15160--ASSIGN
AS_USERS.MPDIS
     10230**DCL     14025>>ASSIGN  15133--ASSIGN
AS_USERS.MPO
     10228**DCL     14007>>ASSIGN  15142--ASSIGN
AS_USERS.MTDIS
     10232**DCL     14019>>ASSIGN  15169--ASSIGN
AS_USERS.MTIME
     10271**DCL     13995>>ASSIGN  15178>>ASSIGN
AS_USERS.NAT_LANG
     10178**DCL     13740--ASSIGN  15185>>IF      15188--ASSIGN
AS_USERS.OUTPUTPRIO
     10217**DCL     13821>>ASSIGN  15193--ASSIGN
AS_USERS.PPRIV
     10254**DCL     14495>>ASSIGN  15738>>ASSIGN
AS_USERS.PRIOB
PL6.E3A0      #002=ASL$LIST_OUT File=ASL$EXT.:E05TSI                             TUE 07/29/97 09:59 Page:487
     10262**DCL     13959>>ASSIGN  15217--ASSIGN
AS_USERS.PRIV
     10253**DCL     14493>>ASSIGN  15736>>ASSIGN
AS_USERS.PSDOL.BMAX
     10278**DCL     14231--ASSIGN  15772--ASSIGN
AS_USERS.PSDOL.GMAX
     10279**DCL     14233--ASSIGN  15774--ASSIGN
AS_USERS.PSDOL.OMAX
     10280**DCL     14235--ASSIGN  15776--ASSIGN
AS_USERS.PSDOL.PSDO_NAME
     10277**DCL     14207>>IF      14209>>CALLBLT 14227>>IF      15763>>IF      15765>>CALLBLT 15766--ASSIGN
AS_USERS.PSDOL.TMAX
     10281**DCL     14237--ASSIGN  15778--ASSIGN
AS_USERS.QUAN
     10260**DCL     13955>>ASSIGN  15241--ASSIGN
AS_USERS.RESL.BMAX
     10285**DCL     14335--ASSIGN  15806--ASSIGN
AS_USERS.RESL.GMAX
     10286**DCL     14337--ASSIGN  15808--ASSIGN
AS_USERS.RESL.OMAX
     10287**DCL     14339--ASSIGN  15810--ASSIGN
AS_USERS.RESL.RNAME
     10284**DCL     14311>>IF      14313>>CALLBLT 14331>>IF      15798>>IF      15800>>CALLBLT 15801--ASSIGN
AS_USERS.RESL.TMAX
     10288**DCL     14341--ASSIGN  15812--ASSIGN
AS_USERS.SETUP
     10302**DCL     13847>>IF      13850>>ASSIGN  15254>>IF      15257>>ASSIGN
AS_USERS.SETUP_CHRA.TXT
     10306**DCL     10307--REDEF   10308--REDEF
AS_USERS.SETUP_CHRA.TXT_UBIN
     10308**DCL     13851--ASSIGN  13851--ASSIGN  13887--ASSIGN  13887--ASSIGN  13924--ASSIGN  13924--ASSIGN
     14764--ASSIGN  14764--ASSIGN  14805--ASSIGN  14805--ASSIGN  15258--ASSIGN  15258--ASSIGN
AS_USERS.SETUP_FORCE
     10292**DCL     13947>>ASSIGN  15022>>IF
AS_USERS.SETUP_PERM
     10289**DCL     13859>>ASSIGN  15264>>IF
PL6.E3A0      #002=ASL$LIST_OUT File=ASL$EXT.:E05TSI                             TUE 07/29/97 09:59 Page:488
AS_USERS.STEPACCNT
     10179**DCL     13756>>ASSIGN
AS_USERS_CONSTANT.BANNER_PERM
     11358**DCL     11359--REDEF
AS_USERS_CONSTANT.BUDGET.MACCT
     11263**DCL     11267--REDEF
AS_USERS_CONSTANT.BUDGET.MAX_PROJECTS
     11276**DCL     11279--REDEF
AS_USERS_CONSTANT.BUDGET.PACCUM
     11259**DCL     11261--REDEF
AS_USERS_CONSTANT.BUDGET.PMAXC
     11254**DCL     11256--REDEF
AS_USERS_CONSTANT.SETUP_CHRA.TXT
     11374**DCL     11375--REDEF   11376--REDEF
B$JIT.CPFLAGS1.SLEAZE
     12906**DCL     12906--REDEF
B$JIT.ERR.MID
     12813**DCL     12813--REDEF
B$JIT.JRESPEAK
     12974**DCL     12975--REDEF
B$JIT.ORIGINATOR_PORT.FROM_CR
     13083**DCL     13083--REDEF   13084--REDEF
B$JIT.PNR
     12987**DCL     12987--REDEF
B$JIT.TSLINE
     13081**DCL     13082--REDEF
B$JIT$
      9808**DCL     12807--IMP-PTR
BANNER_FMT
     13348**DCL     14796--ASSIGN  14796>>ASSIGN  14797--ASSIGN
BLANK_PASS
      9944**DCL     13743>>IF
BL_STR
     13366**DCL     13848--ASSIGN  13884--ASSIGN  13921--ASSIGN  14761--ASSIGN  14802--ASSIGN  15255--ASSIGN
BOG
     13414**DCL     13687>>IF      13689>>IF
PL6.E3A0      #002=ASL$LIST_OUT File=ASL$EXT.:E05TSI                             TUE 07/29/97 09:59 Page:489
BOGU
     13413**DCL     13414--REDEF   13647<<ASSIGN  13648>>IF      13675>>DOSELCT
BOG_BUF
     13357**DCL     13693--ASSIGN  13695--ASSIGN  14222--ASSIGN  14326--ASSIGN  14498--ASSIGN
BOG_FE_BUF
     13359**DCL     13692--ASSIGN  14275--ASSIGN  14377--ASSIGN  14616--ASSIGN
BOG_IDX IN PROCEDURE BUILD_JCL_FMT
     14705**DCL     14874<<DOINDEX 14875>>ASSIGN  14875>>ASSIGN  14894<<DOINDEX 14895>>ASSIGN  14895>>ASSIGN
     14903<<DOINDEX 14904>>ASSIGN  14904>>ASSIGN  14912<<DOINDEX 14913>>ASSIGN  14913>>ASSIGN  14921<<DOINDEX
     14922>>ASSIGN  14922>>ASSIGN  14930<<DOINDEX 14931>>ASSIGN  14931>>ASSIGN  14939<<DOINDEX 14940>>ASSIGN
     14940>>ASSIGN  14948<<DOINDEX 14949>>ASSIGN  14949>>ASSIGN  14957<<DOINDEX 14958>>ASSIGN  14958>>ASSIGN
     14959>>ASSIGN  14959>>ASSIGN  14971<<DOINDEX 14972>>ASSIGN  14972>>ASSIGN  14984<<DOINDEX 14985>>ASSIGN
     14985>>ASSIGN  14992<<DOINDEX 14993>>ASSIGN  14993>>ASSIGN  15011<<DOINDEX 15012>>ASSIGN  15012>>ASSIGN
     15013>>ASSIGN  15013>>ASSIGN  15021<<DOINDEX 15022>>IF      15023>>ASSIGN  15025>>ASSIGN  15105<<DOINDEX
     15106>>ASSIGN  15106>>ASSIGN  15114<<DOINDEX 15115>>ASSIGN  15115>>ASSIGN  15123<<DOINDEX 15124>>ASSIGN
     15124>>ASSIGN  15132<<DOINDEX 15133>>ASSIGN  15133>>ASSIGN  15141<<DOINDEX 15142>>ASSIGN  15142>>ASSIGN
     15150<<DOINDEX 15151>>ASSIGN  15151>>ASSIGN  15159<<DOINDEX 15160>>ASSIGN  15160>>ASSIGN  15168<<DOINDEX
     15169>>ASSIGN  15169>>ASSIGN  15177<<DOINDEX 15178>>ASSIGN  15178>>ASSIGN  15179>>ASSIGN  15179>>ASSIGN
     15216<<DOINDEX 15217>>ASSIGN  15217>>ASSIGN  15224<<DOINDEX 15225>>ASSIGN  15225>>ASSIGN  15240<<DOINDEX
     15241>>ASSIGN  15241>>ASSIGN  15252<<DOINDEX 15253>>ASSIGN  15254>>IF      15257>>ASSIGN  15264>>IF
BOG_IDX IN PROCEDURE LIST_FEPRIV
     14529**DCL     14606<<DOINDEX 14607>>IF      14611>>ASSIGN  14613>>ASSIGN  14616>>ASSIGN
BOG_IDX IN PROCEDURE LIST_FEPRIV_JCL
     15476**DCL     15532<<DOINDEX 15535>>ASSIGN  15537>>ASSIGN  15540>>ASSIGN  15542>>ASSIGN
BOG_IDX IN PROCEDURE LIST_FEPSEUDO
     14256**DCL     14272<<DOINDEX 14273>>IF      14275>>ASSIGN  14282>>DOSELCT
BOG_IDX IN PROCEDURE LIST_FEPSEUDO_JCL
     15558**DCL     15566<<DOINDEX 15568>>DOSELCT 15571>>ASSIGN  15573>>ASSIGN  15575>>ASSIGN  15577>>ASSIGN
BOG_IDX IN PROCEDURE LIST_FERESOURCE
     14358**DCL     14374<<DOINDEX 14375>>IF      14377>>ASSIGN  14384>>DOSELCT
BOG_IDX IN PROCEDURE LIST_FERESOURCE_JCL
     15593**DCL     15601<<DOINDEX 15603>>DOSELCT 15606>>ASSIGN  15608>>ASSIGN  15610>>ASSIGN  15612>>ASSIGN
BOG_IDX IN PROCEDURE LIST_FIELDS
     13669**DCL     13686<<DOINDEX 13687>>IF      13692>>ASSIGN  13693>>ASSIGN  13824>>ASSIGN  13827>>ASSIGN
     13827>>ASSIGN  13830>>ASSIGN  13830>>ASSIGN  13833>>DOSELCT 13847>>IF      13850>>ASSIGN  13859>>ASSIGN
     13935>>ASSIGN  13943>>ASSIGN  13947>>ASSIGN  13955>>ASSIGN  13959>>ASSIGN  13962>>ASSIGN  13965>>ASSIGN
PL6.E3A0      #002=ASL$LIST_OUT File=ASL$EXT.:E05TSI                             TUE 07/29/97 09:59 Page:490
     13971>>ASSIGN  13974>>ASSIGN  13977>>ASSIGN  13989>>ASSIGN  13992>>ASSIGN  13995>>ASSIGN  13998>>ASSIGN
     14001>>ASSIGN  14004>>ASSIGN  14007>>ASSIGN  14010>>ASSIGN  14013>>ASSIGN  14016>>ASSIGN  14019>>ASSIGN
     14022>>ASSIGN  14025>>ASSIGN  14028>>ASSIGN  14031>>ASSIGN  14034>>ASSIGN  14037>>ASSIGN  14040>>ASSIGN
BOG_IDX IN PROCEDURE LIST_PRIV
     14408**DCL     14488<<DOINDEX 14489>>IF      14493>>ASSIGN  14495>>ASSIGN  14498>>ASSIGN
BOG_IDX IN PROCEDURE LIST_PRIV_JCL
     15674**DCL     15733<<DOINDEX 15736>>ASSIGN  15738>>ASSIGN  15741>>ASSIGN  15743>>ASSIGN
BOG_IDX IN PROCEDURE LIST_PSEUDO
     14203**DCL     14219<<DOINDEX 14220>>IF      14222>>ASSIGN  14229>>DOSELCT
BOG_IDX IN PROCEDURE LIST_PSEUDO_JCL
     15759**DCL     15767<<DOINDEX 15769>>DOSELCT 15772>>ASSIGN  15774>>ASSIGN  15776>>ASSIGN  15778>>ASSIGN
BOG_IDX IN PROCEDURE LIST_RESOURCE
     14307**DCL     14323<<DOINDEX 14324>>IF      14326>>ASSIGN  14333>>DOSELCT
BOG_IDX IN PROCEDURE LIST_RESOURCE_JCL
     15794**DCL     15802<<DOINDEX 15804>>DOSELCT 15806>>ASSIGN  15808>>ASSIGN  15810>>ASSIGN  15812>>ASSIGN
BOG_IDX IN PROCEDURE OUTPUT_FMT
     15386**DCL     15426<<DOINDEX 15427>>ASSIGN  15427>>ASSIGN  15433<<DOINDEX 15434>>ASSIGN  15434>>ASSIGN
     15440<<DOINDEX 15441>>ASSIGN  15441>>ASSIGN  15447<<DOINDEX 15448>>ASSIGN  15448>>ASSIGN
BUDGET_STR
     13371**DCL     15468<>CALL    15468--CALL
BUILD_HDR
     13627**PROC    13517--CALL    13541--CALL    13569--CALL    13591--CALL
BUILD_JCL_FMT
     14701**PROC    13495--CALL    13563--CALL    13585--CALL    15469--CALL    15828--CALL
CLASS
     13415**DCL     13738<<ASSIGN  13741<<ASSIGN  13748<<ASSIGN  13754<<ASSIGN  13757<<ASSIGN  13760<<ASSIGN
     13763<<ASSIGN  13767<<ASSIGN  13771<<ASSIGN  13776<<ASSIGN  13780<<ASSIGN  13785<<ASSIGN  13789<<ASSIGN
     13793<<ASSIGN  13804<<ASSIGN  13807<<ASSIGN  13810<<ASSIGN  13813<<ASSIGN  13816<<ASSIGN  13819<<ASSIGN
     13822<<ASSIGN  13825<<ASSIGN  13828<<ASSIGN  13831<<ASSIGN  13845<<ASSIGN  13853<<ASSIGN  13860<<ASSIGN
     13889<<ASSIGN  13918<<ASSIGN  13926<<ASSIGN  13932<<ASSIGN  13939<<ASSIGN  13944<<ASSIGN  13948<<ASSIGN
     13952<<ASSIGN  13956<<ASSIGN  13960<<ASSIGN  13963<<ASSIGN  13966<<ASSIGN  13969<<ASSIGN  13972<<ASSIGN
     13975<<ASSIGN  13978<<ASSIGN  13981<<ASSIGN  13984<<ASSIGN  13987<<ASSIGN  13990<<ASSIGN  13993<<ASSIGN
     13996<<ASSIGN  13999<<ASSIGN  14002<<ASSIGN  14005<<ASSIGN  14008<<ASSIGN  14011<<ASSIGN  14014<<ASSIGN
     14017<<ASSIGN  14020<<ASSIGN  14023<<ASSIGN  14026<<ASSIGN  14029<<ASSIGN  14032<<ASSIGN  14035<<ASSIGN
     14038<<ASSIGN  14041<<ASSIGN  14044<<ASSIGN  14047<<ASSIGN  14051<<ASSIGN  14055<<ASSIGN  14059<<ASSIGN
     14062<<ASSIGN  14065<<ASSIGN  14068<<ASSIGN  14071<<ASSIGN  14074<<ASSIGN  14077<<ASSIGN  14080<<ASSIGN
PL6.E3A0      #002=ASL$LIST_OUT File=ASL$EXT.:E05TSI                             TUE 07/29/97 09:59 Page:491
     14082>>DOSELCT 14755<<ASSIGN  14766<<ASSIGN  14771<<ASSIGN  14798<<ASSIGN  14819<<ASSIGN  14825<<ASSIGN
     14835<<ASSIGN  14842<<ASSIGN  14851<<ASSIGN  14858<<ASSIGN  14868<<ASSIGN  14877<<ASSIGN  14883<<ASSIGN
     14887<<ASSIGN  14897<<ASSIGN  14906<<ASSIGN  14915<<ASSIGN  14924<<ASSIGN  14933<<ASSIGN  14942<<ASSIGN
     14951<<ASSIGN  14961<<ASSIGN  14966<<ASSIGN  14974<<ASSIGN  14979<<ASSIGN  14987<<ASSIGN  14995<<ASSIGN
     15000<<ASSIGN  15006<<ASSIGN  15015<<ASSIGN  15020<<ASSIGN  15034<<ASSIGN  15041<<ASSIGN  15051<<ASSIGN
     15059<<ASSIGN  15074<<ASSIGN  15077<<ASSIGN  15083<<ASSIGN  15087<<ASSIGN  15094<<ASSIGN  15098<<ASSIGN
     15108<<ASSIGN  15117<<ASSIGN  15126<<ASSIGN  15135<<ASSIGN  15144<<ASSIGN  15153<<ASSIGN  15162<<ASSIGN
     15171<<ASSIGN  15181<<ASSIGN  15189<<ASSIGN  15194<<ASSIGN  15203<<ASSIGN  15210<<ASSIGN  15219<<ASSIGN
     15227<<ASSIGN  15235<<ASSIGN  15243<<ASSIGN  15249<<ASSIGN  15270<<ASSIGN  15277<<ASSIGN  15285<<ASSIGN
     15293<<ASSIGN  15297<<ASSIGN  15306<<ASSIGN  15311<<ASSIGN  15317<<ASSIGN  15321<<ASSIGN  15327<<ASSIGN
     15332<<ASSIGN  15337<<ASSIGN  15342<<ASSIGN  15348<<ASSIGN  15351<<ASSIGN  15356<<ASSIGN  15361<<ASSIGN
     15366<<ASSIGN  15370<<ASSIGN  15373>>IF      15389>>DOSELCT 15546<<ASSIGN  15581<<ASSIGN  15616<<ASSIGN
     15747<<ASSIGN  15782<<ASSIGN  15816<<ASSIGN
CNT1 IN PROCEDURE BUILD_JCL_FMT
     14706**DCL     14721<<CALLBLT 14723>>CALLBLT 14724>>ASSIGN  14727>>ASSIGN  14728>>ASSIGN
CUR_IDX IN PROCEDURE BUILD_HDR
     13630**DCL     13633<<ASSIGN  13638>>ASSIGN  13640<<ASSIGN  13640>>ASSIGN  13641>>ASSIGN  13643>>IF
     13656<<ASSIGN  13656>>ASSIGN  13664>>ASSIGN
CUR_IDX IN PROCEDURE LIST_FIELDS
     13671**DCL     13701<<ASSIGN  13703>>ASSIGN  13705<<ASSIGN  13705>>ASSIGN  13706>>ASSIGN  13716<<ASSIGN
     13716>>ASSIGN  13734>>ASSIGN
DO_FLAG
        10**DCL         6--PROC       11--REDEF   13453>>IF      13492--ENTRY   13494>>IF      13497>>IF
     13529>>IF      13530>>IF      13531>>IF      13532>>IF      13533>>IF      13534>>IF      13550>>IF
     13551>>IF      13552>>IF      13553>>IF      13559--ENTRY   13562>>IF      13581--ENTRY   13584>>IF
     13600>>IF      13600>>IF      13603>>IF      13621>>IF      13639>>DOWHILE 13687>>IF      13704>>DOWHILE
     14220>>IF      14273>>IF      14324>>IF      14375>>IF      14489>>IF      14607>>IF      14680>>IF
     14697>>IF      15063>>IF
DSEG1$
      9954**DCL     14648--IMP-PTR 14687>>ASSIGN  14688>>ASSIGN  14689>>ASSIGN  14690>>ASSIGN  14691>>ASSIGN
     14692>>ASSIGN  14693>>ASSIGN  14694>>ASSIGN  14695>>CALL    14695>>CALL
DSEG2$
      9955**DCL     13112--IMP-PTR 13600>>IF      13609>>DOWHILE 13610>>CALLBLT 13610>>CALLBLT 13616>>CALLBLT
     13616>>CALLBLT 14067>>ASSIGN  14070>>ASSIGN  14070>>ASSIGN  14073>>ASSIGN  14076>>ASSIGN  14079>>ASSIGN
     15341>>ASSIGN  15347>>ASSIGN  15350>>ASSIGN  15355>>ASSIGN  15360>>ASSIGN  15365>>ASSIGN
END_IDX IN PROCEDURE LIST_FEPRIV
PL6.E3A0      #002=ASL$LIST_OUT File=ASL$EXT.:E05TSI                             TUE 07/29/97 09:59 Page:492
     14533**DCL     14573<<ASSIGN  14578<<ASSIGN  14581>>DOWHILE 14586>>DOWHILE
END_IDX IN PROCEDURE LIST_FEPRIV_JCL
     15480**DCL     15517<<ASSIGN  15522<<ASSIGN  15525>>DOWHILE
END_IDX IN PROCEDURE LIST_PRIV
     14412**DCL     14455<<ASSIGN  14460<<ASSIGN  14463>>DOWHILE 14468>>DOWHILE
END_IDX IN PROCEDURE LIST_PRIV_JCL
     15678**DCL     15718<<ASSIGN  15723<<ASSIGN  15726>>DOWHILE
END_STR
     13375**DCL     15470<>CALL    15470--CALL    15551<>CALL    15551--CALL    15586<>CALL    15586--CALL
     15621<>CALL    15621--CALL    15752<>CALL    15752--CALL    15787<>CALL    15787--CALL    15821<>CALL
     15821--CALL    15829<>CALL    15829--CALL
ERR_CODE
      9948**DCL      9949--REDEF
FDS
      9845**DCL     13472<>CALL    13480<>CALL    13718<>CALL    14244<>CALL    14297<>CALL    14348<>CALL
     14399<>CALL    14518<>CALL    14636<>CALL    15460<>CALL    15666<>CALL
FDS.FMT_.BOUND
      9850**DCL     13488<<ASSIGN  13698<<ASSIGN  13712>>CALLBLT 13713<<ASSIGN  13713>>ASSIGN  14085>>CALLBLT
     14086<<ASSIGN  14086>>ASSIGN  14091>>CALLBLT 14092<<ASSIGN  14092>>ASSIGN  14100>>CALLBLT 14101<<ASSIGN
     14101>>ASSIGN  14113>>CALLBLT 14114<<ASSIGN  14114>>ASSIGN  14225<<ASSIGN  14240>>CALLBLT 14241<<ASSIGN
     14241>>ASSIGN  14278<<ASSIGN  14293>>CALLBLT 14294<<ASSIGN  14294>>ASSIGN  14329<<ASSIGN  14344>>CALLBLT
     14345<<ASSIGN  14345>>ASSIGN  14380<<ASSIGN  14395>>CALLBLT 14396<<ASSIGN  14396>>ASSIGN  14497<<ASSIGN
     14514>>CALLBLT 14515<<ASSIGN  14515>>ASSIGN  14615<<ASSIGN  14632>>CALLBLT 14633<<ASSIGN  14633>>ASSIGN
     14724<<ASSIGN  14728<<ASSIGN  14796>>ASSIGN  14797<<ASSIGN  14797>>ASSIGN  14839>>ASSIGN  14840<<ASSIGN
     14840>>ASSIGN  14847>>ASSIGN  14848<<ASSIGN  14848>>ASSIGN  14855>>ASSIGN  14856<<ASSIGN  14856>>ASSIGN
     15030>>ASSIGN  15031<<ASSIGN  15031>>ASSIGN  15038>>ASSIGN  15039<<ASSIGN  15039>>ASSIGN  15198>>ASSIGN
     15199<<ASSIGN  15199>>ASSIGN  15207>>ASSIGN  15208<<ASSIGN  15208>>ASSIGN  15247>>ASSIGN  15248<<ASSIGN
     15248>>ASSIGN  15274>>ASSIGN  15275<<ASSIGN  15275>>ASSIGN  15282>>ASSIGN  15283<<ASSIGN  15283>>ASSIGN
     15292<<ASSIGN  15393>>CALLBLT 15394<<ASSIGN  15394>>ASSIGN  15398>>CALLBLT 15399<<ASSIGN  15399>>ASSIGN
     15403>>CALLBLT 15404<<ASSIGN  15404>>ASSIGN  15416>>CALLBLT 15417<<ASSIGN  15417>>ASSIGN  15420>>CALLBLT
     15421<<ASSIGN  15421>>ASSIGN  15431>>CALLBLT 15432<<ASSIGN  15432>>ASSIGN  15438>>CALLBLT 15439<<ASSIGN
     15439>>ASSIGN  15445>>CALLBLT 15446<<ASSIGN  15446>>ASSIGN  15456>>ASSIGN  15457<<ASSIGN  15457>>ASSIGN
     15529<<ASSIGN  15565<<ASSIGN  15600<<ASSIGN  15638<<ASSIGN  15642<<ASSIGN  15648<<ASSIGN  15653<<ASSIGN
     15653>>ASSIGN  15730<<ASSIGN  15766<<ASSIGN  15801<<ASSIGN
FDS.NVECS#
      9873**DCL     13474<<ASSIGN  13477>>IF      13481<<ASSIGN  13484>>ASSIGN  13485>>ASSIGN  13485>>ASSIGN
PL6.E3A0      #002=ASL$LIST_OUT File=ASL$EXT.:E05TSI                             TUE 07/29/97 09:59 Page:493
     13486>>CALLBLT 13487<<ASSIGN  13487>>ASSIGN  13488>>ASSIGN  13696<<ASSIGN  13709>>ASSIGN  13711<<ASSIGN
     13711>>ASSIGN  13737>>ASSIGN  13740>>ASSIGN  13751>>ASSIGN  13753>>ASSIGN  13762>>ASSIGN  13766>>ASSIGN
     13775>>ASSIGN  13784>>ASSIGN  13803>>ASSIGN  13824>>ASSIGN  13827>>ASSIGN  13830>>ASSIGN  13848>>ASSIGN
     13851>>ASSIGN  13884>>ASSIGN  13887>>ASSIGN  13921>>ASSIGN  13924>>ASSIGN  13931>>ASSIGN  13938>>ASSIGN
     13977>>ASSIGN  13980>>ASSIGN  14050>>ASSIGN  14079>>ASSIGN  14084<<ASSIGN  14084>>ASSIGN  14088>>ASSIGN
     14089<<ASSIGN  14089>>ASSIGN  14096>>ASSIGN  14098>>ASSIGN  14099<<ASSIGN  14099>>ASSIGN  14109>>ASSIGN
     14110>>ASSIGN  14111<<ASSIGN  14111>>ASSIGN  14223<<ASSIGN  14231>>ASSIGN  14233>>ASSIGN  14235>>ASSIGN
     14237>>ASSIGN  14239<<ASSIGN  14239>>ASSIGN  14276<<ASSIGN  14284>>ASSIGN  14286>>ASSIGN  14288>>ASSIGN
     14290>>ASSIGN  14292<<ASSIGN  14292>>ASSIGN  14327<<ASSIGN  14335>>ASSIGN  14337>>ASSIGN  14339>>ASSIGN
     14341>>ASSIGN  14343<<ASSIGN  14343>>ASSIGN  14378<<ASSIGN  14386>>ASSIGN  14388>>ASSIGN  14390>>ASSIGN
     14392>>ASSIGN  14394<<ASSIGN  14394>>ASSIGN  14499<<ASSIGN  14505>>ASSIGN  14508>>ASSIGN  14510>>ASSIGN
     14511<<ASSIGN  14511>>ASSIGN  14617<<ASSIGN  14623>>ASSIGN  14626>>ASSIGN  14628>>ASSIGN  14629<<ASSIGN
     14629>>ASSIGN  14715<<ASSIGN  14756<<ASSIGN  14799<<ASSIGN  14834<<ASSIGN  14867<<ASSIGN  14873<<ASSIGN
     14893<<ASSIGN  14902<<ASSIGN  14911<<ASSIGN  14920<<ASSIGN  14929<<ASSIGN  14938<<ASSIGN  14947<<ASSIGN
     14956<<ASSIGN  14970<<ASSIGN  14983<<ASSIGN  14991<<ASSIGN  15010<<ASSIGN  15019<<ASSIGN  15033<<ASSIGN
     15050<<ASSIGN  15104<<ASSIGN  15113<<ASSIGN  15122<<ASSIGN  15131<<ASSIGN  15140<<ASSIGN  15149<<ASSIGN
     15158<<ASSIGN  15167<<ASSIGN  15176<<ASSIGN  15202<<ASSIGN  15215<<ASSIGN  15223<<ASSIGN  15239<<ASSIGN
     15250<<ASSIGN  15392<<ASSIGN  15397<<ASSIGN  15402<<ASSIGN  15415<<ASSIGN  15422>>IF      15426>>DOINDEX
     15433>>DOINDEX 15440>>DOINDEX 15447>>DOINDEX 15545<<ASSIGN  15582<<ASSIGN  15617<<ASSIGN  15643<<ASSIGN
     15649<<ASSIGN  15655<<ASSIGN  15659>>ASSIGN  15660>>ASSIGN  15661<<ASSIGN  15661>>ASSIGN  15746<<ASSIGN
     15783<<ASSIGN  15817<<ASSIGN
FEPSEUDO_HDR IN PROCEDURE LIST_FEPSEUDO
     14252**DCL     14269<>CALL    14269--CALL
FIELDS
     13416**DCL     13516<<ASSIGN  13518>>IF      13540<<ASSIGN  13542>>IF      13568<<ASSIGN  13570>>IF
     13590<<ASSIGN  13592>>IF      13655<<ASSIGN  13655>>ASSIGN  13702>>DOINDEX 14466<<ASSIGN  14469>>IF
     14477<<ASSIGN  14477>>ASSIGN  14484>>IF      14502>>DOINDEX 14584<<ASSIGN  14587>>IF      14595<<ASSIGN
     14595>>ASSIGN  14602>>IF      14620>>DOINDEX
FLAGS.OPTS1
        13**DCL     13451>>IF
FLAGS.OPTS2
        15**DCL     13451>>IF
FLUSH IN PROCEDURE LIST_KEY
     14185**PROC    14141--CALL    14175--CALL    14180--CALL
FMT_BUF
      9944**DCL     13454<<CALLBLT 13455<>CALL    13486<<CALLBLT 13697<<CALLBLT 13712<<CALLBLT 14085<<CALLBLT
PL6.E3A0      #002=ASL$LIST_OUT File=ASL$EXT.:E05TSI                             TUE 07/29/97 09:59 Page:494
     14091<<CALLBLT 14100<<CALLBLT 14113<<CALLBLT 14224<<CALLBLT 14240<<CALLBLT 14277<<CALLBLT 14293<<CALLBLT
     14328<<CALLBLT 14344<<CALLBLT 14379<<CALLBLT 14395<<CALLBLT 14496<<CALLBLT 14514<<CALLBLT 14614<<CALLBLT
     14632<<CALLBLT 14714<<ASSIGN  14723<<CALLBLT 14727<<ASSIGN  14796<<ASSIGN  14839<<ASSIGN  14847<<ASSIGN
     14855<<ASSIGN  15030<<ASSIGN  15038<<ASSIGN  15198<<ASSIGN  15207<<ASSIGN  15247<<ASSIGN  15274<<ASSIGN
     15282<<ASSIGN  15291<<ASSIGN  15393<<CALLBLT 15398<<CALLBLT 15403<<CALLBLT 15416<<CALLBLT 15420<<CALLBLT
     15423>>CALLBLT 15424<<ASSIGN  15431<<CALLBLT 15438<<CALLBLT 15445<<CALLBLT 15456<<ASSIGN  15528<<CALLBLT
     15564<<CALLBLT 15599<<CALLBLT 15637<<ASSIGN  15641<<ASSIGN  15647<<ASSIGN  15652<<ASSIGN  15729<<CALLBLT
     15765<<CALLBLT 15800<<CALLBLT
FMT_VEC
      9944**DCL     13485<<ASSIGN  13692<<ASSIGN  13693<<ASSIGN  13695<<ASSIGN  13709<<ASSIGN  13737<<ASSIGN
     13740<<ASSIGN  13751<<ASSIGN  13753<<ASSIGN  13762<<ASSIGN  13766<<ASSIGN  13775<<ASSIGN  13784<<ASSIGN
     13803<<ASSIGN  13824<<ASSIGN  13827<<ASSIGN  13830<<ASSIGN  13848<<ASSIGN  13851<<ASSIGN  13884<<ASSIGN
     13887<<ASSIGN  13921<<ASSIGN  13924<<ASSIGN  13931<<ASSIGN  13938<<ASSIGN  13977<<ASSIGN  13980<<ASSIGN
     14050<<ASSIGN  14079<<ASSIGN  14088<<ASSIGN  14096<<ASSIGN  14098<<ASSIGN  14109<<ASSIGN  14110<<ASSIGN
     14222<<ASSIGN  14231<<ASSIGN  14233<<ASSIGN  14235<<ASSIGN  14237<<ASSIGN  14275<<ASSIGN  14284<<ASSIGN
     14286<<ASSIGN  14288<<ASSIGN  14290<<ASSIGN  14326<<ASSIGN  14335<<ASSIGN  14337<<ASSIGN  14339<<ASSIGN
     14341<<ASSIGN  14377<<ASSIGN  14386<<ASSIGN  14388<<ASSIGN  14390<<ASSIGN  14392<<ASSIGN  14498<<ASSIGN
     14505<<ASSIGN  14508<<ASSIGN  14510<<ASSIGN  14616<<ASSIGN  14623<<ASSIGN  14626<<ASSIGN  14628<<ASSIGN
     14736<<ASSIGN  14738<<ASSIGN  14740<<ASSIGN  14742<<ASSIGN  14744<<ASSIGN  14746<<ASSIGN  14748<<ASSIGN
     14750<<ASSIGN  14752<<ASSIGN  14754<<ASSIGN  14761<<ASSIGN  14764<<ASSIGN  14802<<ASSIGN  14805<<ASSIGN
     14812<<ASSIGN  14814<<ASSIGN  14820<<ASSIGN  14824<<ASSIGN  14830<<ASSIGN  14831<<ASSIGN  14832<<ASSIGN
     14833<<ASSIGN  14841<<ASSIGN  14849<<ASSIGN  14857<<ASSIGN  14863<<ASSIGN  14864<<ASSIGN  14865<<ASSIGN
     14866<<ASSIGN  14875<<ASSIGN  14882<<ASSIGN  14886<<ASSIGN  14895<<ASSIGN  14904<<ASSIGN  14913<<ASSIGN
     14922<<ASSIGN  14931<<ASSIGN  14940<<ASSIGN  14949<<ASSIGN  14959<<ASSIGN  14965<<ASSIGN  14972<<ASSIGN
     14978<<ASSIGN  14985<<ASSIGN  14993<<ASSIGN  14999<<ASSIGN  15004<<ASSIGN  15013<<ASSIGN  15023<<ASSIGN
     15025<<ASSIGN  15032<<ASSIGN  15040<<ASSIGN  15046<<ASSIGN  15047<<ASSIGN  15048<<ASSIGN  15049<<ASSIGN
     15058<<ASSIGN  15073<<ASSIGN  15082<<ASSIGN  15093<<ASSIGN  15097<<ASSIGN  15106<<ASSIGN  15115<<ASSIGN
     15124<<ASSIGN  15133<<ASSIGN  15142<<ASSIGN  15151<<ASSIGN  15160<<ASSIGN  15169<<ASSIGN  15179<<ASSIGN
     15186<<ASSIGN  15188<<ASSIGN  15193<<ASSIGN  15200<<ASSIGN  15201<<ASSIGN  15209<<ASSIGN  15217<<ASSIGN
     15225<<ASSIGN  15232<<ASSIGN  15234<<ASSIGN  15241<<ASSIGN  15253<<ASSIGN  15255<<ASSIGN  15258<<ASSIGN
     15265<<ASSIGN  15267<<ASSIGN  15276<<ASSIGN  15284<<ASSIGN  15296<<ASSIGN  15305<<ASSIGN  15310<<ASSIGN
     15316<<ASSIGN  15331<<ASSIGN  15336<<ASSIGN  15341<<ASSIGN  15347<<ASSIGN  15350<<ASSIGN  15355<<ASSIGN
     15360<<ASSIGN  15365<<ASSIGN  15413<<ASSIGN  15414<<ASSIGN  15427<<ASSIGN  15434<<ASSIGN  15441<<ASSIGN
     15448<<ASSIGN  15540<<ASSIGN  15542<<ASSIGN  15571<<ASSIGN  15573<<ASSIGN  15575<<ASSIGN  15577<<ASSIGN
     15606<<ASSIGN  15608<<ASSIGN  15610<<ASSIGN  15612<<ASSIGN  15659<<ASSIGN  15660<<ASSIGN  15741<<ASSIGN
     15743<<ASSIGN  15772<<ASSIGN  15774<<ASSIGN  15776<<ASSIGN  15778<<ASSIGN  15806<<ASSIGN  15808<<ASSIGN
PL6.E3A0      #002=ASL$LIST_OUT File=ASL$EXT.:E05TSI                             TUE 07/29/97 09:59 Page:495
     15810<<ASSIGN  15812<<ASSIGN
FRST_CHR
     13380**DCL     13464<<ASSIGN  13469>>IF      13475<<ASSIGN
GET_LOGON
     13398**DCL     13929<>CALL    13936<>CALL    15056<>CALL
GET_LOGON.TSTAMP_
     13401**DCL     13928<<ASSIGN  13935<<ASSIGN  15055<<ASSIGN
GET_LOGON.V
     13402**DCL     13398--DCLINIT
HDR_LEN
     13417**DCL     13517<>CALL    13521<>CALL    13541<>CALL    13545<>CALL    13569<>CALL    13572<>CALL
     13591<>CALL    13594<>CALL    14465<<ASSIGN  14469>>IF      14474>>CALLBLT 14476<<ASSIGN  14476>>ASSIGN
     14487<>CALL    14583<<ASSIGN  14587>>IF      14592>>CALLBLT 14594<<ASSIGN  14594>>ASSIGN  14605<>CALL
HDR_LEN IN PROCEDURE BUILD_HDR
     13628**DCL     13627--PROC    13635<<ASSIGN  13645>>IF      13648>>IF      13648>>IF      13652>>CALLBLT
     13654<<ASSIGN  13654>>ASSIGN
I
     13418**DCL     13607<<ASSIGN  13609>>DOWHILE 13610>>CALLBLT 13611>>ASSIGN  13616>>CALLBLT 13618<<ASSIGN
I IN PROCEDURE BUILD_JCL_FMT
     14707**DCL     14778<<ASSIGN  14780<<ASSIGN  14782<<ASSIGN  14784<<ASSIGN  14786<<ASSIGN  14788<<ASSIGN
     14790<<ASSIGN  14792<<ASSIGN  14794<<ASSIGN  14801>>IF      14804>>ASSIGN  14811>>IF
I IN PROCEDURE INSERT_FIELD
     13732**DCL     13865<<ASSIGN  13867<<ASSIGN  13869<<ASSIGN  13871<<ASSIGN  13873<<ASSIGN  13875<<ASSIGN
     13877<<ASSIGN  13879<<ASSIGN  13881<<ASSIGN  13883>>IF      13886>>ASSIGN  13895<<ASSIGN  13897<<ASSIGN
     13899<<ASSIGN  13901<<ASSIGN  13903<<ASSIGN  13905<<ASSIGN  13907<<ASSIGN  13909<<ASSIGN  13911<<ASSIGN
     13917>>ASSIGN
I IN PROCEDURE LIST_FEPRIV
     14530**DCL     14620<<DOINDEX 14621>>IF      14624>>IF      14630>>ASSIGN
I IN PROCEDURE LIST_FEPSEUDO
     14255**DCL     14259<<DOINDEX 14260>>IF      14262>>CALLBLT 14279<<DOINDEX 14280>>IF      14284>>ASSIGN
     14286>>ASSIGN  14288>>ASSIGN  14290>>ASSIGN
I IN PROCEDURE LIST_FEPSEUDO_JCL
     15557**DCL     15561<<DOINDEX 15562>>IF      15564>>CALLBLT 15565>>ASSIGN  15571>>ASSIGN  15573>>ASSIGN
     15575>>ASSIGN  15577>>ASSIGN
I IN PROCEDURE LIST_FERESOURCE
     14357**DCL     14361<<DOINDEX 14362>>IF      14364>>CALLBLT 14381<<DOINDEX 14382>>IF      14386>>ASSIGN
PL6.E3A0      #002=ASL$LIST_OUT File=ASL$EXT.:E05TSI                             TUE 07/29/97 09:59 Page:496
     14388>>ASSIGN  14390>>ASSIGN  14392>>ASSIGN
I IN PROCEDURE LIST_FERESOURCE_JCL
     15592**DCL     15596<<DOINDEX 15597>>IF      15599>>CALLBLT 15600>>ASSIGN  15606>>ASSIGN  15608>>ASSIGN
     15610>>ASSIGN  15612>>ASSIGN
I IN PROCEDURE LIST_KEY
     14126**DCL     14142<<DOINDEX 14143>>IF      14152<>CALL
I IN PROCEDURE LIST_KEY_JCL
     15631**DCL     15656<<DOINDEX 15657>>IF      15658>>ASSIGN
I IN PROCEDURE LIST_PRIV
     14409**DCL     14502<<DOINDEX 14503>>IF      14506>>IF      14512>>ASSIGN
I IN PROCEDURE LIST_PSEUDO
     14202**DCL     14206<<DOINDEX 14207>>IF      14209>>CALLBLT 14226<<DOINDEX 14227>>IF      14231>>ASSIGN
     14233>>ASSIGN  14235>>ASSIGN  14237>>ASSIGN
I IN PROCEDURE LIST_PSEUDO_JCL
     15758**DCL     15762<<DOINDEX 15763>>IF      15765>>CALLBLT 15766>>ASSIGN  15772>>ASSIGN  15774>>ASSIGN
     15776>>ASSIGN  15778>>ASSIGN
I IN PROCEDURE LIST_RESOURCE
     14306**DCL     14310<<DOINDEX 14311>>IF      14313>>CALLBLT 14330<<DOINDEX 14331>>IF      14335>>ASSIGN
     14337>>ASSIGN  14339>>ASSIGN  14341>>ASSIGN
I IN PROCEDURE LIST_RESOURCE_JCL
     15793**DCL     15797<<DOINDEX 15798>>IF      15800>>CALLBLT 15801>>ASSIGN  15806>>ASSIGN  15808>>ASSIGN
     15810>>ASSIGN  15812>>ASSIGN
I IN PROCEDURE OUTPUT_FMT
     15387**DCL     15423<<CALLBLT 15424>>ASSIGN
INDX
     13419**DCL     13608<<ASSIGN  13612>>IF      13613<>CALL    13614<<ASSIGN  13616>>CALLBLT 13617<<ASSIGN
     13617>>ASSIGN  13620>>IF      13620<>CALL
INSERT_FIELD IN PROCEDURE LIST_FIELDS
     13723**PROC    13714--CALL
J
     13420**DCL     13610<<CALLBLT 13611>>ASSIGN  13618>>ASSIGN
J IN PROCEDURE LIST_FIELDS
     13670**DCL     13702<<DOINDEX
JCL_FE_MODES
     13369**DCL     15441--ASSIGN  15448--ASSIGN
JCL_MODES
PL6.E3A0      #002=ASL$LIST_OUT File=ASL$EXT.:E05TSI                             TUE 07/29/97 09:59 Page:497
     13367**DCL     15253--ASSIGN  15427--ASSIGN  15434--ASSIGN
JCL_OPT_TBL.HDR
     13299**DCL     14681<>CALL    14681--CALL    14721>>CALLBLT 14723>>CALLBLT 14727>>ASSIGN  15515<>CALL
     15515--CALL    15520<>CALL    15520--CALL    15560<>CALL    15560--CALL    15595<>CALL    15595--CALL
     15637>>ASSIGN  15716<>CALL    15721<>CALL    15721--CALL    15761<>CALL    15761--CALL    15796<>CALL
     15796--CALL
JCL_OPT_TBL.ORDR
     13324**DCL     14717>>ASSIGN  15377>>ASSIGN
KEYS IN PROCEDURE LIST_KEY
     14122**DCL     14123--REDEF   14134<<ASSIGN  14135>>IF      14138>>IF
KEYS IN PROCEDURE LIST_KEY_JCL
     15627**DCL     15628--REDEF   15639<<ASSIGN  15640>>IF      15646>>IF
KEY_A IN PROCEDURE LIST_KEY
     14123**DCL     14143>>IF
KEY_A IN PROCEDURE LIST_KEY_JCL
     15628**DCL     15657>>IF
KEY_FMT
     13349**DCL     15652--ASSIGN  15652>>ASSIGN  15653--ASSIGN
KL_DEFAULT.PASSWORD
     12564**DCL     12568--REDEF
KL_DEFAULT.RENAME
     12587**DCL     12588--REDEF
KL_DFLT.PASSWORD
     11754**DCL     11758--REDEF
KL_DFLT.RENAME
     11777**DCL     11778--REDEF
KL_DREC.FLAGS.BATOK
     11556**DCL     13835>>ASSIGN  14735>>IF
KL_DREC.FLAGS.FEOK
     11580**DCL     13843>>ASSIGN  14751>>IF
KL_DREC.FLAGS.GHOSTOK
     11549**DCL     13837>>ASSIGN  14739>>IF
KL_DREC.FLAGS.OLOK
     11552**DCL     13839>>ASSIGN  14743>>IF
KL_DREC.FLAGS.TPOK
     11576**DCL     13841>>ASSIGN  14747>>IF
PL6.E3A0      #002=ASL$LIST_OUT File=ASL$EXT.:E05TSI                             TUE 07/29/97 09:59 Page:498
KL_DREC.HPS.N
     11620**DCL     13737--ASSIGN  15032--ASSIGN
KL_DREC.KL_DREC_FEBLK.BILL
     11652**DCL     13977--ASSIGN  14972--ASSIGN
KL_DREC.KL_DREC_FEBLK.DBACCN
     11653**DCL     13980--ASSIGN  14978--ASSIGN
KL_DREC.KL_DREC_FEBLK.FLAGS
     11657**DCL     15004--ASSIGN
KL_DREC.KL_DREC_FEBLK.FLAGS.STEPACCT
     11658**DCL     13983>>ASSIGN
KL_DREC.KL_DREC_FEBLK.MACCTMEM
     11656**DCL     13986>>ASSIGN  14965--ASSIGN
KL_DREC.KL_DREC_FEBLK.MFPRG
     11655**DCL     13968>>ASSIGN  14999--ASSIGN
KL_DREC.KL_DREC_FEBLK.MINTS
     11654**DCL     13965>>ASSIGN  14985--ASSIGN
KL_DREC.KL_DREC_FEBLK.MMEM
     11663**DCL     13971>>ASSIGN  14993--ASSIGN
KL_DREC.KL_DREC_FEBLK.MTIME
     11662**DCL     13974>>ASSIGN  15012>>ASSIGN
KL_DREC.KL_DREC_FEBLK.PPRIV
     11661**DCL     14613>>ASSIGN  15537>>ASSIGN
KL_DREC.KL_DREC_FEBLK.PRIV
     11660**DCL     14611>>ASSIGN  15535>>ASSIGN
KL_DREC.KL_DREC_FEBLK.PSDOL.CMAX
     11672**DCL     14286--ASSIGN  15573--ASSIGN
KL_DREC.KL_DREC_FEBLK.PSDOL.GMAX
     11674**DCL     14290--ASSIGN  15577--ASSIGN
KL_DREC.KL_DREC_FEBLK.PSDOL.HMAX
     11673**DCL     14288--ASSIGN  15575--ASSIGN
KL_DREC.KL_DREC_FEBLK.PSDOL.PSDO_NAME
     11670**DCL     14260>>IF      14262>>CALLBLT 14280>>IF      15562>>IF      15564>>CALLBLT 15565--ASSIGN
KL_DREC.KL_DREC_FEBLK.PSDOL.UMAX
     11671**DCL     14284--ASSIGN  15571--ASSIGN
KL_DREC.KL_DREC_FEBLK.RESL.CMAX
     11679**DCL     14388--ASSIGN  15608--ASSIGN
PL6.E3A0      #002=ASL$LIST_OUT File=ASL$EXT.:E05TSI                             TUE 07/29/97 09:59 Page:499
KL_DREC.KL_DREC_FEBLK.RESL.GMAX
     11681**DCL     14392--ASSIGN  15612--ASSIGN
KL_DREC.KL_DREC_FEBLK.RESL.HMAX
     11680**DCL     14390--ASSIGN  15610--ASSIGN
KL_DREC.KL_DREC_FEBLK.RESL.RNAME
     11677**DCL     14362>>IF      14364>>CALLBLT 14382>>IF      15597>>IF      15599>>CALLBLT 15600--ASSIGN
KL_DREC.KL_DREC_FEBLK.RESL.UMAX
     11678**DCL     14386--ASSIGN  15606--ASSIGN
KL_DREC.KL_DREC_FEBLK.RESL_CNT
     11675**DCL     14361>>DOINDEX 14381>>DOINDEX 15596>>DOINDEX
KL_DREC.PASSWORD
     11592**DCL     11596--REDEF   13743>>IF      15200--ASSIGN  15201--ASSIGN
KL_DREC.PNAME
     11598**DCL     13753--ASSIGN  13753--ASSIGN  15234--ASSIGN  15234--ASSIGN
KL_DREC.PNAME.CNT
     11606**DCL     13750>>IF      15231>>IF
KL_DREC.RENAME
     11615**DCL     11616--REDEF
KL_DREC.WOO
     11612**DCL     13762--ASSIGN  15290>>IF      15296--ASSIGN
KL_DREC_CNT.PASSWORD
     11479**DCL     11483--REDEF
KL_DREC_CNT.RENAME
     11502**DCL     11503--REDEF
LAST_LOGON_BUF
     13406**DCL     13930<<CALLBLT 13931--ASSIGN  13937<<CALLBLT 13938--ASSIGN  15057<<CALLBLT 15058--ASSIGN
LEN
     13421**DCL     13444<<ASSIGN  13447<<CALLBLT 13448>>CALLBLT 13449<<ASSIGN  13449>>ASSIGN  13454>>CALLBLT
     13455>>CALL    13458<>CALL    13468>>ASSIGN  13611<<ASSIGN  13612>>IF      13616>>CALLBLT 13617>>ASSIGN
LEN IN PROCEDURE LIST_FEPSEUDO
     14254**DCL     14258<<ASSIGN  14262>>CALLBLT 14263<<ASSIGN  14263>>ASSIGN  14266>>IF      14271<>CALL
LEN IN PROCEDURE LIST_FERESOURCE
     14356**DCL     14360<<ASSIGN  14364>>CALLBLT 14365<<ASSIGN  14365>>ASSIGN  14368>>IF      14373<>CALL
LEN IN PROCEDURE LIST_KEY
     14125**DCL     14174<<ASSIGN  14175>>IF      14176>>CALLBLT 14177>>ASSIGN
LEN IN PROCEDURE LIST_PSEUDO
PL6.E3A0      #002=ASL$LIST_OUT File=ASL$EXT.:E05TSI                             TUE 07/29/97 09:59 Page:500
     14201**DCL     14205<<ASSIGN  14209>>CALLBLT 14210<<ASSIGN  14210>>ASSIGN  14213>>IF      14218<>CALL
LEN IN PROCEDURE LIST_RESOURCE
     14305**DCL     14309<<ASSIGN  14313>>CALLBLT 14314<<ASSIGN  14314>>ASSIGN  14317>>IF      14322<>CALL
LIST_ACCT_FLG
      9946**DCL     13461>>IF      13465<<ASSIGN
LIST_BUDGET_SUBS_JCL
     15466**PROC    13496--CALL
LIST_FACCOUNT
     14645**PROC    13497--CALL    13534--CALL
LIST_FEPRIV
     14527**PROC    13550--CALL    13551--CALL
LIST_FEPRIV_JCL
     15474**PROC    13498--CALL    13499--CALL
LIST_FEPSEUDO
     14251**PROC    13552--CALL
LIST_FEPSEUDO_JCL
     15555**PROC    13500--CALL
LIST_FERESOURCE
     14355**PROC    13553--CALL
LIST_FERESOURCE_JCL
     15590**PROC    13501--CALL
LIST_FIELDS
     13668**PROC    13522--CALL    13546--CALL    13573--CALL    13595--CALL
LIST_KEY
     14120**PROC    13529--CALL
LIST_KEY_JCL
     15625**PROC    13502--CALL
LIST_PRIV
     14406**PROC    13530--CALL    13531--CALL
LIST_PRIV_JCL
     15672**PROC    13503--CALL    13504--CALL
LIST_PSEUDO
     14198**PROC    13532--CALL
LIST_PSEUDO_JCL
     15756**PROC    13505--CALL
LIST_RESOURCE
PL6.E3A0      #002=ASL$LIST_OUT File=ASL$EXT.:E05TSI                             TUE 07/29/97 09:59 Page:501
     14304**PROC    13533--CALL
LIST_RESOURCE_JCL
     15791**PROC    13506--CALL
LIST_SERVICES_JCL
     15825**PROC    13507--CALL
LOGON_DATE
     13407**DCL     13398--DCLINIT 13399--DCLINIT 13930>>CALLBLT 13937>>CALLBLT 15057>>CALLBLT
LOGON_DAY
     13408**DCL     13401--DCLINIT
LOGON_TIME
     13409**DCL     13400--DCLINIT 13401--DCLINIT 13930>>CALLBLT 13937>>CALLBLT 15057>>CALLBLT
LO_WIDTH
      9830**DCL     13477>>IF      13612>>IF      13648>>IF      14175>>IF      14469>>IF      14587>>IF
     14688>>ASSIGN
M$TIME
      3614**DCL-ENT 13929--CALL    13936--CALL    15056--CALL
MACCT IN PROCEDURE BUILD_JCL_FMT
     14708**DCL     15066<<ASSIGN  15068<<ASSIGN  15070<<CALLBLT 15073--ASSIGN
MACCT IN PROCEDURE INSERT_FIELD
     13731**DCL     13797<<ASSIGN  13800<<CALLBLT 13803--ASSIGN
MODE_SBIN_FMT
     13351**DCL     15431--CALLBLT 15431>>CALLBLT 15432--ASSIGN  15445--CALLBLT 15445>>CALLBLT 15446--ASSIGN
MODE_TEXT_FMT
     13352**DCL     15420--CALLBLT 15420>>CALLBLT 15421--ASSIGN  15438--CALLBLT 15438>>CALLBLT 15439--ASSIGN
MONEY_FMT
     13353**DCL     15416--CALLBLT 15416>>CALLBLT 15417--ASSIGN
MORE IN PROCEDURE BUILD_HDR
     13631**DCL     13636<<ASSIGN  13637>>DOWHILE 13659<<ASSIGN  13662<<ASSIGN
MORE IN PROCEDURE LIST_FEPRIV
     14531**DCL     14585<<ASSIGN  14586>>DOWHILE 14600<<ASSIGN
MORE IN PROCEDURE LIST_PRIV
     14410**DCL     14467<<ASSIGN  14468>>DOWHILE 14482<<ASSIGN
NEVER_STR
     13361**DCL     13766--ASSIGN  13775--ASSIGN  14882--ASSIGN  15093--ASSIGN
NEW_CHR
     13422**DCL     13467<<ASSIGN  13469>>IF      13475>>ASSIGN
PL6.E3A0      #002=ASL$LIST_OUT File=ASL$EXT.:E05TSI                             TUE 07/29/97 09:59 Page:502
NEXT IN PROCEDURE BUILD_HDR
     13632**DCL     13638<<ASSIGN  13639>>DOWHILE 13639>>DOWHILE 13641<<ASSIGN  13647>>ASSIGN  13648>>IF
     13648>>IF      13652>>CALLBLT 13652>>CALLBLT 13654>>ASSIGN
NEXT IN PROCEDURE BUILD_JCL_FMT
     14709**DCL     14717<<ASSIGN  14718>>DOWHILE 14721>>CALLBLT 14723>>CALLBLT 14727>>ASSIGN  14731>>DOSELCT
     14776>>DOSELCT 15377<<ASSIGN
NEXT IN PROCEDURE INSERT_FIELD
     13733**DCL     13734<<ASSIGN  13735>>DOSELCT 13863>>DOSELCT 13893>>DOSELCT
NEXT IN PROCEDURE LIST_FIELDS
     13673**DCL     13703<<ASSIGN  13704>>DOWHILE 13704>>DOWHILE 13706<<ASSIGN  13715>>ASSIGN
NEXT_INDEX IN PROCEDURE BUILD_JCL_FMT
     14710**DCL     14716<<ASSIGN  14717>>ASSIGN  15376<<ASSIGN  15376>>ASSIGN  15377>>ASSIGN
NEXT_TAB
     13423**DCL     13699<<ASSIGN  13708>>ASSIGN  13715<<ASSIGN  13715>>ASSIGN
NONE_STR
     13364**DCL     13784--ASSIGN  14050--ASSIGN  14820--ASSIGN  15082--ASSIGN  15186--ASSIGN  15232--ASSIGN
     15316--ASSIGN
NO_PROFILE_STR
     13365**DCL     13751--ASSIGN
NO_STR
     13363**DCL     14098--ASSIGN  14510--ASSIGN  14628--ASSIGN  14738--ASSIGN  14742--ASSIGN  14746--ASSIGN
     14750--ASSIGN  14754--ASSIGN  15025--ASSIGN  15542--ASSIGN  15743--ASSIGN
NXT_IDX
     13424**DCL     13524>>ASSIGN  13548>>ASSIGN  13575>>ASSIGN  13597>>ASSIGN  13664<<ASSIGN  14454<<ASSIGN
     14459<<ASSIGN  14462>>ASSIGN  14468>>DOWHILE 14469>>IF      14472>>IF      14474>>CALLBLT 14474>>CALLBLT
     14476>>ASSIGN  14479<<ASSIGN  14479>>ASSIGN  14522>>ASSIGN  14572<<ASSIGN  14577<<ASSIGN  14580>>ASSIGN
     14586>>DOWHILE 14587>>IF      14590>>IF      14592>>CALLBLT 14592>>CALLBLT 14594>>ASSIGN  14597<<ASSIGN
     14597>>ASSIGN  14640>>ASSIGN  15516<<ASSIGN  15521<<ASSIGN  15524>>ASSIGN  15717<<ASSIGN  15722<<ASSIGN
     15725>>ASSIGN
OFFSET IN PROCEDURE LIST_FIELDS
     13672**DCL     13684<<ASSIGN  13685<<ASSIGN  13687>>IF
OPT_TBL.BOGU
     13253**DCL     13647>>ASSIGN  13648>>IF
OPT_TBL.HDR
     13195**DCL     13652>>CALLBLT 14133<>CALL    14320<>CALL    14320--CALL    14371<>CALL    14371--CALL
     14453<>CALL    14453--CALL    14571<>CALL    14571--CALL    14684<>CALL    14684--CALL    15716--CALL
PL6.E3A0      #002=ASL$LIST_OUT File=ASL$EXT.:E05TSI                             TUE 07/29/97 09:59 Page:503
OPT_TBL.LEN
     13145**DCL     13639>>DOWHILE 13648>>IF      13652>>CALLBLT 13654>>ASSIGN  13704>>DOWHILE 13715>>ASSIGN
OPT_TBL.ORDR
     13270**DCL     13638>>ASSIGN  13641>>ASSIGN  13703>>ASSIGN  13706>>ASSIGN  13734>>ASSIGN
OUTPUT_FMT
     15384**PROC    15268--CALL    15349--CALL    15374--CALL    15547--CALL    15583--CALL    15618--CALL
     15748--CALL    15784--CALL    15818--CALL
OUT_BUF
      9945**DCL     13443<<ASSIGN  13448<<CALLBLT 13454>>CALLBLT 13458<>CALL    13464>>ASSIGN  13467>>ASSIGN
     13468>>ASSIGN  13521<>CALL    13545<>CALL    13572<>CALL    13594<>CALL    13606<<ASSIGN  13613<>CALL
     13616<<CALLBLT 13620<>CALL    13634<<CALLBLT 13652<<CALLBLT 14176<<CALLBLT 14189<>CALL    14191<<ASSIGN
     14204<<CALLBLT 14209<<CALLBLT 14218<>CALL    14257<<CALLBLT 14262<<CALLBLT 14271<>CALL    14308<<CALLBLT
     14313<<CALLBLT 14322<>CALL    14359<<CALLBLT 14364<<CALLBLT 14373<>CALL    14464<<CALLBLT 14474<<CALLBLT
     14487<>CALL    14582<<CALLBLT 14592<<CALLBLT 14605<>CALL
POSITION
     13425**DCL     14720<<ASSIGN  14843<<ASSIGN  14850<<ASSIGN  14859<<ASSIGN  15005<<ASSIGN  15042<<ASSIGN
     15211<<ASSIGN  15278<<ASSIGN  15286<<ASSIGN  15455>>IF      15458<<ASSIGN
PPRIV_HDR IN PROCEDURE LIST_FEPRIV
     14565**DCL     14576<>CALL    14576--CALL
PPRIV_HDR IN PROCEDURE LIST_PRIV
     14447**DCL     14458<>CALL    14458--CALL
PRIV IN PROCEDURE LIST_FEPRIV
     14532**DCL     14611<<ASSIGN  14613<<ASSIGN  14624>>IF
PRIV IN PROCEDURE LIST_FEPRIV_JCL
     15479**DCL     15535<<ASSIGN  15537<<ASSIGN  15538>>IF
PRIV IN PROCEDURE LIST_PRIV
     14411**DCL     14493<<ASSIGN  14495<<ASSIGN  14506>>IF
PRIV IN PROCEDURE LIST_PRIV_JCL
     15677**DCL     15736<<ASSIGN  15738<<ASSIGN  15739>>IF
PRIV_FLG IN PROCEDURE LIST_FEPRIV
     14528**DCL     14527--PROC    14569>>IF      14609>>IF
PRIV_FLG IN PROCEDURE LIST_FEPRIV_JCL
     15475**DCL     15474--PROC    15513>>IF      15533>>IF
PRIV_FLG IN PROCEDURE LIST_PRIV
     14407**DCL     14406--PROC    14451>>IF      14491>>IF
PRIV_FLG IN PROCEDURE LIST_PRIV_JCL
PL6.E3A0      #002=ASL$LIST_OUT File=ASL$EXT.:E05TSI                             TUE 07/29/97 09:59 Page:504
     15673**DCL     15672--PROC    15714>>IF      15734>>IF
PRIV_TBL.HDR IN PROCEDURE LIST_FEPRIV
     14545**DCL     14592>>CALLBLT
PRIV_TBL.LEN IN PROCEDURE LIST_FEPRIV
     14535**DCL     14587>>IF      14590>>IF      14592>>CALLBLT 14594>>ASSIGN  14621>>IF      14630>>ASSIGN
PRIV_TBL.MASK IN PROCEDURE LIST_FEPRIV
     14555**DCL     14624>>IF
PRIV_TBL.HDR IN PROCEDURE LIST_FEPRIV_JCL
     15492**DCL     15526>>IF      15526>>IF      15528>>CALLBLT 15529--ASSIGN
PRIV_TBL.LEN IN PROCEDURE LIST_FEPRIV_JCL
     15482**DCL     15530>>IF
PRIV_TBL.MASK IN PROCEDURE LIST_FEPRIV_JCL
     15502**DCL     15538>>IF
PRIV_TBL.HDR IN PROCEDURE LIST_PRIV
     14425**DCL     14474>>CALLBLT
PRIV_TBL.LEN IN PROCEDURE LIST_PRIV
     14414**DCL     14469>>IF      14472>>IF      14474>>CALLBLT 14476>>ASSIGN  14503>>IF      14512>>ASSIGN
PRIV_TBL.MASK IN PROCEDURE LIST_PRIV
     14436**DCL     14506>>IF
PRIV_TBL.HDR IN PROCEDURE LIST_PRIV_JCL
     15691**DCL     15727>>IF      15727>>IF      15729>>CALLBLT 15730--ASSIGN
PRIV_TBL.LEN IN PROCEDURE LIST_PRIV_JCL
     15680**DCL     15731>>IF
PRIV_TBL.MASK IN PROCEDURE LIST_PRIV_JCL
     15702**DCL     15739>>IF
PROJ_KEY.TEXT
      9826**DCL      9826--REDEF
PROJ_KEY.TXT.PROJECT
      9826**DCL      9826--REDEF
PSEUDO_HDR IN PROCEDURE LIST_PSEUDO
     14199**DCL     14216<>CALL    14216--CALL
REMEM_VAR
      9952**DCL      9952--REDEF
REM_FCMD
      9952**DCL      9953--REDEF
SBINS
PL6.E3A0      #002=ASL$LIST_OUT File=ASL$EXT.:E05TSI                             TUE 07/29/97 09:59 Page:505
     13426**DCL     13708<<ASSIGN  13709--ASSIGN  13770<<ASSIGN  13779<<ASSIGN  13821<<ASSIGN  13943<<ASSIGN
     13951<<ASSIGN  13955<<ASSIGN  13959<<ASSIGN  13962<<ASSIGN  13965<<ASSIGN  13968<<ASSIGN  13971<<ASSIGN
     13974<<ASSIGN  13986<<ASSIGN  13989<<ASSIGN  13992<<ASSIGN  13995<<ASSIGN  13998<<ASSIGN  14001<<ASSIGN
     14004<<ASSIGN  14007<<ASSIGN  14010<<ASSIGN  14013<<ASSIGN  14016<<ASSIGN  14019<<ASSIGN  14022<<ASSIGN
     14025<<ASSIGN  14028<<ASSIGN  14031<<ASSIGN  14034<<ASSIGN  14037<<ASSIGN  14040<<ASSIGN  14043<<ASSIGN
     14046<<ASSIGN  14061<<ASSIGN  14064<<ASSIGN  14067<<ASSIGN  14070<<ASSIGN  14073<<ASSIGN  14076<<ASSIGN
     14088--ASSIGN  14104<<ASSIGN  14105<<ASSIGN  14105>>ASSIGN  14106>>IF      14108<<ASSIGN  14108>>ASSIGN
     14109--ASSIGN  14110--ASSIGN  14501<<ASSIGN  14505--ASSIGN  14512<<ASSIGN  14512>>ASSIGN  14619<<ASSIGN
     14623--ASSIGN  14630<<ASSIGN  14630>>ASSIGN  14823<<ASSIGN  14824--ASSIGN  14958<<ASSIGN  14959--ASSIGN
     15012<<ASSIGN  15013--ASSIGN  15178<<ASSIGN  15179--ASSIGN  15409<<ASSIGN  15410<<ASSIGN  15410>>ASSIGN
     15411>>IF      15412<<ASSIGN  15412>>ASSIGN  15413--ASSIGN  15414--ASSIGN  15658<<ASSIGN  15659--ASSIGN
SBIN_FMT
     13354**DCL     15398--CALLBLT 15398>>CALLBLT 15399--ASSIGN
SBIN_IDX
     13427**DCL     13700<<ASSIGN  13708>>ASSIGN  13709>>ASSIGN  13710<<ASSIGN  13710>>ASSIGN  13770>>ASSIGN
     13779>>ASSIGN  13821>>ASSIGN  13943>>ASSIGN  13951>>ASSIGN  13955>>ASSIGN  13959>>ASSIGN  13962>>ASSIGN
     13965>>ASSIGN  13968>>ASSIGN  13971>>ASSIGN  13974>>ASSIGN  13986>>ASSIGN  13989>>ASSIGN  13992>>ASSIGN
     13995>>ASSIGN  13998>>ASSIGN  14001>>ASSIGN  14004>>ASSIGN  14007>>ASSIGN  14010>>ASSIGN  14013>>ASSIGN
     14016>>ASSIGN  14019>>ASSIGN  14022>>ASSIGN  14025>>ASSIGN  14028>>ASSIGN  14031>>ASSIGN  14034>>ASSIGN
     14037>>ASSIGN  14040>>ASSIGN  14043>>ASSIGN  14046>>ASSIGN  14061>>ASSIGN  14064>>ASSIGN  14067>>ASSIGN
     14070>>ASSIGN  14073>>ASSIGN  14076>>ASSIGN  14088>>ASSIGN  14090<<ASSIGN  14090>>ASSIGN  14104>>ASSIGN
     14105>>ASSIGN  14105>>ASSIGN  14106>>IF      14108>>ASSIGN  14108>>ASSIGN  14109>>ASSIGN  14110>>ASSIGN
     14112<<ASSIGN  14112>>ASSIGN  14500<<ASSIGN  14501>>ASSIGN  14505>>ASSIGN  14512>>ASSIGN  14512>>ASSIGN
     14513<<ASSIGN  14513>>ASSIGN  14618<<ASSIGN  14619>>ASSIGN  14623>>ASSIGN  14630>>ASSIGN  14630>>ASSIGN
     14631<<ASSIGN  14631>>ASSIGN  15654<<ASSIGN  15658>>ASSIGN  15659>>ASSIGN
SERVICES_STR
     13372**DCL     15827<>CALL    15827--CALL
SIDX IN PROCEDURE BUILD_JCL_FMT
     14711**DCL     14763<<ASSIGN  14764>>ASSIGN  14764>>ASSIGN  14804<<ASSIGN  14805>>ASSIGN  14805>>ASSIGN
     15257<<ASSIGN  15258>>ASSIGN  15258>>ASSIGN
SIDX IN PROCEDURE INSERT_FIELD
     13730**DCL     13850<<ASSIGN  13851>>ASSIGN  13851>>ASSIGN  13886<<ASSIGN  13887>>ASSIGN  13887>>ASSIGN
     13923<<ASSIGN  13924>>ASSIGN  13924>>ASSIGN
START_INDEX IN PROCEDURE BUILD_JCL_FMT
     14702**DCL     14701--PROC    14716>>ASSIGN
STOP IN PROCEDURE BUILD_HDR
PL6.E3A0      #002=ASL$LIST_OUT File=ASL$EXT.:E05TSI                             TUE 07/29/97 09:59 Page:506
     13629**DCL     13627--PROC    13643>>IF
ST_IDX
     13429**DCL     13511<<ASSIGN  13515>>DOWHILE 13524<<ASSIGN  13535<<ASSIGN  13539>>DOWHILE 13548<<ASSIGN
     13566<<ASSIGN  13567>>DOWHILE 13575<<ASSIGN  13588<<ASSIGN  13589>>DOWHILE 13597<<ASSIGN  13633>>ASSIGN
     13683>>IF      13691>>IF      13701>>ASSIGN  14462<<ASSIGN  14463>>DOWHILE 14502>>DOINDEX 14502>>DOINDEX
     14522<<ASSIGN  14580<<ASSIGN  14581>>DOWHILE 14620>>DOINDEX 14620>>DOINDEX 14640<<ASSIGN  15524<<ASSIGN
     15525>>DOWHILE 15526>>IF      15526>>IF      15528>>CALLBLT 15529>>ASSIGN  15530>>IF      15538>>IF
     15549<<ASSIGN  15549>>ASSIGN  15725<<ASSIGN  15726>>DOWHILE 15727>>IF      15727>>IF      15729>>CALLBLT
     15730>>ASSIGN  15731>>IF      15739>>IF      15750<<ASSIGN  15750>>ASSIGN
SUBOPTION_MODE IN PROCEDURE BUILD_JCL_FMT
     14703**DCL     14701--PROC    14722>>IF
SUPER_TO_PIG IN PROCEDURE LIST_FACCOUNT
     14648**DCL     14695<>CALL
SUPER_TO_PIG.ACCT IN PROCEDURE LIST_FACCOUNT
     14669**DCL     14693<<ASSIGN
SUPER_TO_PIG.ATTR.COUNT IN PROCEDURE LIST_FACCOUNT
     14671**DCL     14674--IMP-SIZ 14694<<ASSIGN  14695>>CALL
SUPER_TO_PIG.PACKSET IN PROCEDURE LIST_FACCOUNT
     14668**DCL     14692<<ASSIGN
SUPER_TO_PIG.PROJ IN PROCEDURE LIST_FACCOUNT
     14657**DCL     14689<<ASSIGN
SUPER_TO_PIG.PROJECT IN PROCEDURE LIST_FACCOUNT
     14664**DCL     14667--REDEF
SUPER_TO_PIG.PROJECT_TEXT IN PROCEDURE LIST_FACCOUNT
     14667**DCL     14691<<ASSIGN
SUPER_TO_PIG.RESUPER IN PROCEDURE LIST_FACCOUNT
     14663**DCL     14690<<ASSIGN
SUPER_TO_PIG.SUPER IN PROCEDURE LIST_FACCOUNT
     14660**DCL     14663--REDEF
SUPER_TO_PIG.TYPE IN PROCEDURE LIST_FACCOUNT
     14649**DCL     14687<<ASSIGN
SUPER_TO_PIG.WIDTH IN PROCEDURE LIST_FACCOUNT
     14659**DCL     14688<<ASSIGN
SVAL
     13428**DCL     13788<<ASSIGN  13792<<ASSIGN  13799<<CALLBLT 13800>>CALLBLT 14054<<ASSIGN  14058<<ASSIGN
     14103<<ASSIGN  14103>>ASSIGN  14104>>ASSIGN  14105>>ASSIGN  14770<<ASSIGN  15069<<CALLBLT 15070>>CALLBLT
PL6.E3A0      #002=ASL$LIST_OUT File=ASL$EXT.:E05TSI                             TUE 07/29/97 09:59 Page:507
     15086<<ASSIGN  15320<<ASSIGN  15326<<ASSIGN  15408<<ASSIGN  15408>>ASSIGN  15409>>ASSIGN  15410>>ASSIGN
TAB IN PROCEDURE LIST_KEY
     14124**DCL     14175>>IF      14176>>CALLBLT 14177<<ASSIGN  14177>>ASSIGN  14187>>IF      14188<<ASSIGN
     14188>>ASSIGN  14189<>CALL    14192<<ASSIGN
TEMP IN PROCEDURE LIST_FIELDS
     13674**DCL     13677<<ASSIGN  13679<<ASSIGN  13681<<ASSIGN  13686>>DOINDEX
TEMP_BUF
     13430**DCL     13468<<ASSIGN  13484>>ASSIGN
TEXT$C.C
     13137**DCL     13753--ASSIGN  13827--ASSIGN  13830--ASSIGN  13851--ASSIGN  13887--ASSIGN  13924--ASSIGN
     14764--ASSIGN  14805--ASSIGN  14863--ASSIGN  14864--ASSIGN  14865--ASSIGN  14866--ASSIGN  15046--ASSIGN
     15047--ASSIGN  15048--ASSIGN  15049--ASSIGN  15234--ASSIGN  15258--ASSIGN
TEXT$C.L
     13136**DCL     13137--IMP-SIZ 13753>>ASSIGN  13827>>ASSIGN  13830>>ASSIGN  13851>>ASSIGN  13887>>ASSIGN
     13924>>ASSIGN  14764>>ASSIGN  14805>>ASSIGN  14863>>ASSIGN  14864>>ASSIGN  14865>>ASSIGN  14866>>ASSIGN
     15046>>ASSIGN  15047>>ASSIGN  15048>>ASSIGN  15049>>ASSIGN  15234>>ASSIGN  15258>>ASSIGN
TEXT_FMT
     13355**DCL     15393--CALLBLT 15393>>CALLBLT 15394--ASSIGN
TMP_LEN
     13431**DCL     13437<<CALLBLT 13438<<ASSIGN  13438>>ASSIGN  13441<<ASSIGN  13442>>IF      13443>>ASSIGN
     13444>>ASSIGN  13448>>CALLBLT 13449>>ASSIGN
UNALTERABLE_STR
     13373**DCL     14812--ASSIGN  15265--ASSIGN
USERS_KEY.COUNT
      9823**DCL     13436>>IF      13441>>ASSIGN
USERS_KEY.TEXT
      9823**DCL      9824--REDEF    9824--REDEF    9824--REDEF    9825--REDEF
USERS_KEY.TXTC
      9824**DCL     13443>>ASSIGN  13448>>CALLBLT 13448>>CALLBLT
USERS_KEY.UKEY.ACCT
      9824**DCL     13447>>CALLBLT
USERS_KEY.UKEY.UNAME
      9825**DCL     13437>>CALLBLT
X$FORMAT
     13097**DCL-ENT 13472--CALL    13480--CALL    13718--CALL    14244--CALL    14297--CALL    14348--CALL
     14399--CALL    14518--CALL    14636--CALL    15460--CALL    15666--CALL
PL6.E3A0      #002=ASL$LIST_OUT File=ASL$EXT.:E05TSI                             TUE 07/29/97 09:59 Page:508
YESNO_FMT
     13356**DCL     15403--CALLBLT 15403>>CALLBLT 15404--ASSIGN
YES_NO IN PROCEDURE INSERT_FIELD
     13729**DCL     13745<<ASSIGN  13747<<ASSIGN  13756<<ASSIGN  13759<<ASSIGN  13806<<ASSIGN  13809<<ASSIGN
     13812<<ASSIGN  13815<<ASSIGN  13818<<ASSIGN  13835<<ASSIGN  13837<<ASSIGN  13839<<ASSIGN  13841<<ASSIGN
     13843<<ASSIGN  13859<<ASSIGN  13917<<ASSIGN  13947<<ASSIGN  13983<<ASSIGN  14094>>IF
YES_STR
     13362**DCL     14096--ASSIGN  14508--ASSIGN  14626--ASSIGN  14736--ASSIGN  14740--ASSIGN  14744--ASSIGN
     14748--ASSIGN  14752--ASSIGN  15023--ASSIGN  15540--ASSIGN  15660--ASSIGN  15741--ASSIGN
