VERSION E05

PL6.E3A0      #001=ASL$LIST_OPTS File=ASL$EXT.:E05TSI                            TUE 07/29/97 09:57 Page:1
        1        1        /*M* ASL$EXT:   EXTERNAL ROUTINE TO HANDLE LIST OPTION.    */
        2        2        /*T***********************************************************/
        3        3        /*T*                                                         */
        4        4        /*T* Copyright (c) Bull HN Information Systems Inc., 1997    */
        5        5        /*T*                                                         */
        6        6        /*T***********************************************************/
        7        7        /*X*  DMC,DMR,CCC,PLM=0,IND=3,CTI=5,DCI=6,IAD=0,DTI=0,IDT=0,ENI=3,
        8        8              ECU=3,CSU=3,SDI=3                                           */
        9        9        /**/
       10       10        /*  ASL$EXT - this module consists of procedures:
       11       11                      ASL$LIST_OPTS
       12       12                      ASL$LIST_OUT
       13       13        */
       14       14        /**/
       15       15        ASL$LIST_OPTS: PROC(DO_FLAG);
       16       16        /********************************************************************/
       17       17        /*   Parameters      parameters      parameters      parameters     */
       18       18        /********************************************************************/
       19       19    1   DCL DO_FLAG(0:143) BIT(1);
       20       20    1   DCL 1 DOFLAG REDEF DO_FLAG,
       21       21    1          2 USER BIT(72),
       22       22    1          2 FE_MODE BIT(36),
       23       23    1          2 PROJ BIT(36);
       24       24        /********************************************************************/
       25       25        /*   Include files   include files   include files   include files  */
       26       26        /********************************************************************/
       27       27        %INCLUDE AS_ENTRIES_M;
       28     1077        %INCLUDE AS_SUPER_C;
       29     1512        %INCLUDE AS_SUBS_C;
       30     2926        %INCLUDE AS_MAC_C;
       31     3006        %INCLUDE CP_6;
       32     3087        %INCLUDE KL_SUPER_C;
       33     5989        %INCLUDE XU_MACRO_C;
       34     9095        %INCLUDE XU_FORMAT_C;
       35     9257        %INCLUDE AS_SUPER_R;
       36    12273        /********************************************************************/
       37    12274        /*   Entry dcls      entry dcls      entry dcls      entry dcls     */
PL6.E3A0      #001=ASL$LIST_OPTS File=ASL$EXT.:E05TSI                            TUE 07/29/97 09:57 Page:2
       38    12275        /********************************************************************/
       39    12276        %ASB$READ_SI ;
       40    12279        %ASB$SET_PROMPT ;
       41    12282    1   DCL X$PARSE ENTRY(1) ALTRET;
       42    12283        %ASH$HELP ;
       43    12286        %ASH$ERROR ;
       44    12289        %ASH$DQUEST ;
       45    12292        %ASH$QUEST ;
       46    12295        /********************************************************************/
       47    12296        /*   Local based     local based     local based     local based    */
       48    12297        /********************************************************************/
       49    12298        %PARSE$OUT(NAME=P$B,STCLASS="BASED(P_PCB.OUT$)",
       50    12299                        NDTYPE=TYPE,NSUBLKS=NSUBLKS);
       51    12344        /********************************************************************/
       52    12345        /*   Auto data       auto data       auto data       auto data      */
       53    12346        /********************************************************************/
       54    12347    1   DCL ARS UBIN;
       55    12348    1   DCL MORE BIT(1) ALIGNED;
       56    12349    1   DCL ND$ PTR;
       57    12350    1   DCL I UBIN;
       58    12351        /********************************************************************/
       59    12352        /*   Constant data   constant data   constant data   constant data  */
       60    12353        /********************************************************************/
       61    12354        %EJECT;
PL6.E3A0      #001=ASL$LIST_OPTS File=ASL$EXT.:E05TSI                            TUE 07/29/97 09:57 Page:3
       62    12355        /********************************************************************/
       63    12356        /*   Procedure       procedure       procedure       procedure      */
       64    12357        /********************************************************************/
       65    12358    1   DO_FLAG = '0'B;
       66    12359    1   MORE = '1'B;
       67    12360    1   LIST1: P_PCB.ROOT$ = ADDR(LIST_S_OPT);
       68    12361    2   DO WHILE(MORE);
       69    12362    2      REMEMBER LIST1 IN REMEM_VAR;
       70    12363                                                /*  Set prompt                        */
       71    12364    2      CALL ASB$SET_PROMPT ( %PROMPT_OPT ) ;
       72    12365    2      CALL ASB$READ_SI(IN_BUF,ARS);
       73    12366    2      P_PCB.NCHARS = ARS;
       74    12367    2      CALL X$PARSE(P_PCB) ALTRET(PARSE_ALT);
       75    12368    3      DO SELECT(P$B.SUBLK$(0)->P$B.CODE);
       76    12369    3         SELECT(BLANK_LINE_VAL);
       77    12370    3         MORE = '0'B;
       78    12371    3         SELECT(LIST_OPTIONS_VAL);
       79    12372    3         I = 0;
       80    12373    4         DO WHILE(MORE AND I<P$B.SUBLK$(0)->P$B.NSUBLKS);
       81    12374    4            ND$ = P$B.SUBLK$(0)->P$B.SUBLK$(I);
       82    12375    5            DO SELECT(ND$->P$B.CODE);
       83    12376    5               SELECT(L_EXPIRE);
       84    12377    5               DO_FLAG(L_MEXP) = '1'B;
       85    12378    5               DO_FLAG(L_DEXP) = '1'B;
       86    12379    5               SELECT(L_BUDGET);
       87    12380    5               DO_FLAG(L_MAXC) = '1'B;
       88    12381    5               DO_FLAG(L_ACCUM) = '1'B;
       89    12382    5               DO_FLAG(L_MACCT) = '1'B;
       90    12383    5               DO_FLAG(L_BKACC) = '1'B;
       91    12384    5               DO_FLAG(L_BUDLIM) = '1'B;
       92    12385    5               DO_FLAG(L_ICHARGE) = '1'B;
       93    12386    5               DO_FLAG(L_PCHARGE) = '1'B;
       94    12387    5               DO_FLAG(L_BLINDACCTNG) = '1'B;
       95    12388    5               SELECT( L_OUTPUTPRIO );
       96    12389    5               DO_FLAG(L_OUTPUTPRIO) = '1'B;
       97    12390    5               SELECT(L_MEMORY);
       98    12391    5               DO_FLAG(L_MMEM) = '1'B;
PL6.E3A0      #001=ASL$LIST_OPTS File=ASL$EXT.:E05TSI                            TUE 07/29/97 09:57 Page:4
       99    12392    5               DO_FLAG(L_DMEM) = '1'B;
      100    12393    5               SELECT(L_TIME);
      101    12394    5               DO_FLAG(L_MTIME) = '1'B;
      102    12395    5               DO_FLAG(L_DTIME) = '1'B;
      103    12396    5               SELECT(L_SERVICE);
      104    12397    5               DO_FLAG(L_MLO) = '1'B;
      105    12398    5               DO_FLAG(L_DLO) = '1'B;
      106    12399    5               DO_FLAG(L_MPO) = '1'B;
      107    12400    5               DO_FLAG(L_DPO) = '1'B;
      108    12401    5               DO_FLAG(L_MDO) = '1'B;
      109    12402    5               DO_FLAG(L_DDO) = '1'B;
      110    12403    5               DO_FLAG(L_MTDP) = '1'B;
      111    12404    5               DO_FLAG(L_DTDP) = '1'B;
      112    12405    5               DO_FLAG(L_MPDP) = '1'B;
      113    12406    5               DO_FLAG(L_DPDP) = '1'B;
      114    12407    5               DO_FLAG(L_MPOOL) = '1'B;
      115    12408    5               DO_FLAG(L_DPOOL) = '1'B;
      116    12409    5               DO_FLAG(L_MPRI) = '1'B;
      117    12410    5               DO_FLAG(L_DPRI) = '1'B;
      118    12411    5               SELECT(L_BANNER1);
      119    12412    5               DO_FLAG(L_BANNER1) = '1'B;
      120    12413    5               DO_FLAG(L_BANNER2) = '1'B;
      121    12414    5               DO_FLAG(L_BANNER3) = '1'B;
      122    12415    5               DO_FLAG(L_BANNER4) = '1'B;
      123    12416    5               DO_FLAG(L_BANNER5) = '1'B;
      124    12417    5               DO_FLAG(L_BANNER6) = '1'B;
      125    12418    5               DO_FLAG(L_BANNER7) = '1'B;
      126    12419    5               DO_FLAG(L_BANNER8) = '1'B;
      127    12420    5               DO_FLAG(L_BANNER9) = '1'B;
      128    12421    5               DO_FLAG(L_ALTERABLE_BANNER1) = '1'B;
      129    12422    5               DO_FLAG(L_ALTERABLE_BANNER2) = '1'B;
      130    12423    5               DO_FLAG(L_ALTERABLE_BANNER3) = '1'B;
      131    12424    5               DO_FLAG(L_ALTERABLE_BANNER4) = '1'B;
      132    12425    5               DO_FLAG(L_ALTERABLE_BANNER5) = '1'B;
      133    12426    5               DO_FLAG(L_ALTERABLE_BANNER6) = '1'B;
      134    12427    5               DO_FLAG(L_ALTERABLE_BANNER7) = '1'B;
      135    12428    5               DO_FLAG(L_ALTERABLE_BANNER8) = '1'B;
PL6.E3A0      #001=ASL$LIST_OPTS File=ASL$EXT.:E05TSI                            TUE 07/29/97 09:57 Page:5
      136    12429    5               DO_FLAG(L_ALTERABLE_BANNER9) = '1'B;
      137    12430    5               SELECT(L_ALL);
      138    12431    5               DOFLAG.USER = DOFLAG.USER | '003777777777777777777777'O;
      139    12432    5               DOFLAG.FE_MODE = DOFLAG.FE_MODE | '777777777760'O;
      140    12433    5               DO_FLAG(L_MAXENQ) = '1'B;
      141    12434    5               MORE = '0'B;
      142    12435    5               SELECT(L_END);
      143    12436    5               MORE = '0'B;
      144    12437    5               SELECT(ELSE);
      145    12438    5            DO_FLAG(ND$->P$B.CODE) = '1'B;
      146    12439    5               END;                  /* End case                           */
      147    12440    4         I = I + 1;
      148    12441    4            END;
      149    12442    3         SELECT( HELP_VAL );
      150    12443    3         CALL ASH$HELP ;
      151    12444    3         SELECT( QUESTION_VAL );
      152    12445    3         CALL ASH$QUEST;
      153    12446    3         SELECT( DQUESTION_VAL );
      154    12447    3         CALL ASH$DQUEST ;
      155    12448    3         END;
      156    12449    3      DO WHILE('0'B);
      157    12450    3   PARSE_ALT: MERR_CODE = P_PCB.ERROR;
      158    12451    3         MERR_CODE.SEV = 0;
      159    12452    3         CALL ASH$ERROR(MERR_CODE);
      160    12453    3         END;
      161    12454    2      END;
      162    12455    1   IF NOT (DO_FLAG(L_BATCH)
      163    12456    1        OR DO_FLAG(L_GHOST)
      164    12457    1        OR DO_FLAG(L_INT)
      165    12458    1        OR DO_FLAG(L_TP)
      166    12459    1        OR DO_FLAG(L_FE))
      167    12460    2   THEN DO;                       /* Default is all modes get reported  */
      168    12461    2      DO_FLAG(L_BATCH) = AS_TRUE;
      169    12462    2      DO_FLAG(L_GHOST) = AS_TRUE;
      170    12463    2      DO_FLAG(L_INT) = AS_TRUE;
      171    12464    2      DO_FLAG(L_TP) = AS_TRUE;
      172    12465    2      DO_FLAG(L_FE) = AS_TRUE;
PL6.E3A0      #001=ASL$LIST_OPTS File=ASL$EXT.:E05TSI                            TUE 07/29/97 09:57 Page:6
      173    12466    2      END;
      174    12467    1   IF NOT (DO_FLAG(L_FEUSER)
      175    12468    1        OR DO_FLAG(L_FECG)
      176    12469    1        OR DO_FLAG(L_FEHANDLR)
      177    12470    1        OR DO_FLAG(L_FEGHOST))
      178    12471    2   THEN DO;                       /* Default is all modes get reported  */
      179    12472    2      DO_FLAG(L_FEUSER) = AS_TRUE;
      180    12473    2      DO_FLAG(L_FECG) = AS_TRUE;
      181    12474    2      DO_FLAG(L_FEHANDLR) = AS_TRUE;
      182    12475    2      DO_FLAG(L_FEGHOST) = AS_TRUE;
      183    12476    2      END;
      184    12477    1   RETURN;
      185    12478    1   END ASL$LIST_OPTS;
      186    12479        %EOD;

PL6.E3A0      #001=ASL$LIST_OPTS File=ASL$EXT.:E05TSI                            TUE 07/29/97 09:57 Page:7
--  Include file information  --

   AS_SUPER_R.:E05TOU  cannot be made into a system file and is referenced.
   XU_FORMAT_C.:E05TOU  is referenced.
   XU_MACRO_C.:E05TOU  is referenced.
   KL_SUPER_C.:E05TOU  is referenced.
   CP_6.:E05TOU  cannot be made into a system file and is referenced.
   AS_MAC_C.:E05TOU  cannot be made into a system file and is referenced.
   AS_SUBS_C.:E05TOU  is referenced.
   AS_SUPER_C.:E05TOU  is referenced.
   AS_ENTRIES_M.:E05TOU  is referenced.
   B$JIT_C.:E05TOU  was found in the system file and is never referenced.
   CP_6_C.:E05TOU  was found in the system file and is referenced.
      No diagnostics issued in procedure ASL$LIST_OPTS.

   Procedure ASL$LIST_OPTS requires 384 words for executable code.
   Procedure ASL$LIST_OPTS requires 12 words of local(AUTO) storage.

PL6.E3A0      #001=ASL$LIST_OPTS File=ASL$EXT.:E05TSI                            TUE 07/29/97 09:57 Page:8

 Object Unit name= ASL$LIST_OPTS                              File name= ASL$EXT.:E05TOU
 UTS= JUL 29 '97 09:57:45.60 TUE                              Compiler= PL-6/E31         Sev=      00
 SharedLib= :SHARED_SYSTEM                                    Alt SharedLib=


    ****  Control sections  ****

 Sect   Type Bound  Init  Size OctSiz  Section name(segment info)
    0   DCB   even  none     0      0  M$UC
    1   DCB   even  none     0      0  M$LO
    2  RoData even  UTS      3      3  ASL$LIST_OPTS
    3   Proc  even  none   384    600  ASL$LIST_OPTS
    4  RoData even  none     6      6  ASL$LIST_OPTS

    ****  Entry defs  ****

                              Check   Calling
                             calling  sequence
  Sect OctLoc Primary Altret sequence   type   Parms  Name
     3      0   yes            yes      Std        1  ASL$LIST_OPTS

  ****  Entry refs  ****

         Check        Calling
        calling       sequence
Altret sequence SRef   type   Args  Name
         yes          ~proc      0 XU_OUTPUT_OPTIONS
         yes           Std       2 ASB$READ_SI
 yes     yes           Std       3 ASB$SET_PROMPT
         yes           Std       0 ASH$HELP
         yes           Std       0 ASH$QUEST
         yes           Std       2 ASH$ERROR
 yes     yes           Std       1 X$PARSE
         yes           Std       0 ASH$DQUEST
                       nStd      0 X66_AUTO_1
                       Std       0 B_CONSPOOL_D
                       nStd      0 X66_ARET
PL6.E3A0      #001=ASL$LIST_OPTS File=ASL$EXT.:E05TSI                            TUE 07/29/97 09:57 Page:9

  ****  Data refs  ****

  Flags:  r = read only, s = secondary
Flgs Name                             Flgs Name                             Flgs Name
     M$UC                                  LIST_S_OPT                       r    AS_TRUE
r    AS_MODE                          r    AS_FE_MODE                            M$LO
     IN_BUF                                ERR_CODE                              REMEM_VAR
     REM_FCMD                              ASA_BRKS_LOC                          P_PCB
     B_VECTNIL

  ****  Segment refs  ****

  Flags:  r = read only, s = secondary
Flgs Name                             Flgs Name                             Flgs Name
     ISSID
PL6.E3A0      #001=ASL$LIST_OPTS File=ASL$EXT.:E05TSI                            TUE 07/29/97 09:57 Page:10


        1        1        /*M* ASL$EXT:   EXTERNAL ROUTINE TO HANDLE LIST OPTION.    */
        2        2        /*T***********************************************************/
        3        3        /*T*                                                         */
        4        4        /*T* Copyright (c) Bull HN Information Systems Inc., 1997    */
        5        5        /*T*                                                         */
        6        6        /*T***********************************************************/
        7        7        /*X*  DMC,DMR,CCC,PLM=0,IND=3,CTI=5,DCI=6,IAD=0,DTI=0,IDT=0,ENI=3,
        8        8              ECU=3,CSU=3,SDI=3                                           */
        9        9        /**/
       10       10        /*  ASL$EXT - this module consists of procedures:
       11       11                      ASL$LIST_OPTS
       12       12                      ASL$LIST_OUT
       13       13        */
       14       14        /**/
       15       15        ASL$LIST_OPTS: PROC(DO_FLAG);

     15  3 000000   000000 700200 xent  ASL$LIST_OP* TSX0  ! X66_AUTO_1
         3 000001   000014 000001                    ZERO    12,1

       16       16        /********************************************************************/
       17       17        /*   Parameters      parameters      parameters      parameters     */
       18       18        /********************************************************************/
       19       19    1   DCL DO_FLAG(0:143) BIT(1);
       20       20    1   DCL 1 DOFLAG REDEF DO_FLAG,
       21       21    1          2 USER BIT(72),
       22       22    1          2 FE_MODE BIT(36),
       23       23    1          2 PROJ BIT(36);
       24       24        /********************************************************************/
       25       25        /*   Include files   include files   include files   include files  */
       26       26        /********************************************************************/
       27       27        %INCLUDE AS_ENTRIES_M;
       28     1077        %INCLUDE AS_SUPER_C;
       29     1512        %INCLUDE AS_SUBS_C;
       30     2926        %INCLUDE AS_MAC_C;
       31     3006        %INCLUDE CP_6;
       32     3087        %INCLUDE KL_SUPER_C;
PL6.E3A0      #001=ASL$LIST_OPTS File=ASL$EXT.:E05TSI                            TUE 07/29/97 09:57 Page:11
       33     5989        %INCLUDE XU_MACRO_C;
       34     9095        %INCLUDE XU_FORMAT_C;
       35     9257        %INCLUDE AS_SUPER_R;
       36    12273        /********************************************************************/
       37    12274        /*   Entry dcls      entry dcls      entry dcls      entry dcls     */
       38    12275        /********************************************************************/
       39    12276        %ASB$READ_SI ;
       40    12279        %ASB$SET_PROMPT ;
       41    12282    1   DCL X$PARSE ENTRY(1) ALTRET;
       42    12283        %ASH$HELP ;
       43    12286        %ASH$ERROR ;
       44    12289        %ASH$DQUEST ;
       45    12292        %ASH$QUEST ;
       46    12295        /********************************************************************/
       47    12296        /*   Local based     local based     local based     local based    */
       48    12297        /********************************************************************/
       49    12298        %PARSE$OUT(NAME=P$B,STCLASS="BASED(P_PCB.OUT$)",
       50    12299                        NDTYPE=TYPE,NSUBLKS=NSUBLKS);
       51    12344        /********************************************************************/
       52    12345        /*   Auto data       auto data       auto data       auto data      */
       53    12346        /********************************************************************/
       54    12347    1   DCL ARS UBIN;
       55    12348    1   DCL MORE BIT(1) ALIGNED;
       56    12349    1   DCL ND$ PTR;
       57    12350    1   DCL I UBIN;
       58    12351        /********************************************************************/
       59    12352        /*   Constant data   constant data   constant data   constant data  */
       60    12353        /********************************************************************/
       61    12354        %EJECT;
PL6.E3A0      #001=ASL$LIST_OPTS File=ASL$EXT.:E05TSI                            TUE 07/29/97 09:57 Page:12
       62    12355        /********************************************************************/
       63    12356        /*   Procedure       procedure       procedure       procedure      */
       64    12357        /********************************************************************/
       65    12358    1   DO_FLAG = '0'B;

  12358  3 000002   200003 470500                    LDP0    @DO_FLAG,,AUTO
         3 000003   003100 060400                    CSL     bolr='003'O
         3 000004   000002 000011 xsym               BDSC    B_VECTNIL+2              by=0,bit=0,n=9
         3 000005   000000 000220                    BDSC    0,,PR0                   by=0,bit=0,n=144

       66    12359    1   MORE = '1'B;

  12359  3 000006   400000 236003                    LDQ     -131072,DU
         3 000007   200005 756100                    STQ     MORE,,AUTO

       67    12360    1   LIST1: P_PCB.ROOT$ = ADDR(LIST_S_OPT);

  12360  3 000010   000000 236000 4     LIST1        LDQ     0
         3 000011   000001 756000 xsym               STQ     P_PCB+1

       68    12361    2   DO WHILE(MORE);

  12361  3 000012   200005 234100                    SZN     MORE,,AUTO
         3 000013   000477 605000 3                  TPL     s:12455

       69    12362    2      REMEMBER LIST1 IN REMEM_VAR;

  12362  3 000014   000010 635000 3                  EAA     LIST1
         3 000015   000000 452400 xsym               STP2    REMEM_VAR
         3 000016   000001 755000 xsym               STA     REMEM_VAR+1

       70    12363                                                /*  Set prompt                        */
       71    12364    2      CALL ASB$SET_PROMPT ( %PROMPT_OPT ) ;

  12364  3 000017   000001 630400 4                  EPPR0   1
         3 000020   000017 631400 xsym               EPPR1   B_VECTNIL+15
         3 000021   000000 701000 xent               TSX1    ASB$SET_PROMPT
PL6.E3A0      #001=ASL$LIST_OPTS File=ASL$EXT.:E05TSI                            TUE 07/29/97 09:57 Page:13
         3 000022   000000 011000                    NOP     0

       72    12365    2      CALL ASB$READ_SI(IN_BUF,ARS);

  12365  3 000023   200004 630500                    EPPR0   ARS,,AUTO
         3 000024   200011 450500                    STP0    I+2,,AUTO
         3 000025   000002 236000 4                  LDQ     2
         3 000026   200010 756100                    STQ     I+1,,AUTO
         3 000027   200010 630500                    EPPR0   I+1,,AUTO
         3 000030   000020 631400 xsym               EPPR1   B_VECTNIL+16
         3 000031   000000 701000 xent               TSX1    ASB$READ_SI
         3 000032   000000 011000                    NOP     0

       73    12366    2      P_PCB.NCHARS = ARS;

  12366  3 000033   200004 235100                    LDA     ARS,,AUTO
         3 000034   000011 755000 xsym               STA     P_PCB+9

       74    12367    2      CALL X$PARSE(P_PCB) ALTRET(PARSE_ALT);

  12367  3 000035   000003 630400 4                  EPPR0   3
         3 000036   000017 631400 xsym               EPPR1   B_VECTNIL+15
         3 000037   000000 701000 xent               TSX1    X$PARSE
         3 000040   000465 702000 3                  TSX2    PARSE_ALT

       75    12368    3      DO SELECT(P$B.SUBLK$(0)->P$B.CODE);

  12368  3 000041   000003 470400 xsym               LDP0    P_PCB+3
         3 000042   000003 471500                    LDP1    3,,PR0
         3 000043   100000 236100                    LDQ     0,,PR1
         3 000044   777777 376007                    ANQ     -1,DL
         3 000045   000166 116007                    CMPQ    118,DL
         3 000046   000063 602000 3                  TNC     s:12368+18
         3 000047   000071 600000 3                  TZE     s:12372
         3 000050   000455 116007                    CMPQ    301,DL
         3 000051   000057 602000 3                  TNC     s:12368+14
         3 000052   000455 600000 3                  TZE     s:12445
PL6.E3A0      #001=ASL$LIST_OPTS File=ASL$EXT.:E05TSI                            TUE 07/29/97 09:57 Page:14
         3 000053   100000 720100                    LXL0    0,,PR1
         3 000054   000456 100003                    CMPX0   302,DU
         3 000055   000464 601000 3                  TNZ     s:12449
         3 000056   000451 710000 3                  TRA     s:12443
         3 000057   100000 720100                    LXL0    0,,PR1
         3 000060   000454 100003                    CMPX0   300,DU
         3 000061   000464 601000 3                  TNZ     s:12449
         3 000062   000461 710000 3                  TRA     s:12447
         3 000063   100000 720100                    LXL0    0,,PR1
         3 000064   000032 100003                    CMPX0   26,DU
         3 000065   000464 601000 3                  TNZ     s:12449
         3 000066   000067 710000 3                  TRA     s:12370

       76    12369    3         SELECT(BLANK_LINE_VAL);

       77    12370    3         MORE = '0'B;

  12370  3 000067   200005 450100                    STZ     MORE,,AUTO
         3 000070   000464 710000 3                  TRA     s:12449

       78    12371    3         SELECT(LIST_OPTIONS_VAL);

       79    12372    3         I = 0;

  12372  3 000071   200007 450100                    STZ     I,,AUTO

       80    12373    4         DO WHILE(MORE AND I<P$B.SUBLK$(0)->P$B.NSUBLKS);

  12373  3 000072   000437 710000 3                  TRA     s:12441

       81    12374    4            ND$ = P$B.SUBLK$(0)->P$B.SUBLK$(I);

  12374  3 000073   000003 470400 xsym               LDP0    P_PCB+3
         3 000074   000003 471500                    LDP1    3,,PR0
         3 000075   200007 720100                    LXL0    I,,AUTO
         3 000076   100003 236110                    LDQ     3,X0,PR1
         3 000077   200006 756100                    STQ     ND$,,AUTO
PL6.E3A0      #001=ASL$LIST_OPTS File=ASL$EXT.:E05TSI                            TUE 07/29/97 09:57 Page:15

       82    12375    5            DO SELECT(ND$->P$B.CODE);

  12375  3 000100   200006 473500                    LDP3    ND$,,AUTO
         3 000101   300000 236100                    LDQ     0,,PR3
         3 000102   777777 376007                    ANQ     -1,DL
         3 000103   000036 116007                    CMPQ    30,DL
         3 000104   000130 602000 3                  TNC     s:12375+24
         3 000105   000222 600000 3                  TZE     s:12394
         3 000106   000056 116007                    CMPQ    46,DL
         3 000107   000124 602000 3                  TNC     s:12375+20
         3 000110   000205 600000 3                  TZE     s:12389
         3 000111   000217 116007                    CMPQ    143,DL
         3 000112   000120 602000 3                  TNC     s:12375+16
         3 000113   000376 600000 3                  TZE     s:12431
         3 000114   300000 721100                    LXL1    0,,PR3
         3 000115   000220 101003                    CMPX1   144,DU
         3 000116   000430 601000 3                  TNZ     s:12438
         3 000117   000426 710000 3                  TRA     s:12436
         3 000120   300000 721100                    LXL1    0,,PR3
         3 000121   000063 101003                    CMPX1   51,DU
         3 000122   000430 601000 3                  TNZ     s:12438
         3 000123   000306 710000 3                  TRA     s:12412
         3 000124   300000 721100                    LXL1    0,,PR3
         3 000125   000040 101003                    CMPX1   32,DU
         3 000126   000430 601000 3                  TNZ     s:12438
         3 000127   000232 710000 3                  TRA     s:12397
         3 000130   000017 116007                    CMPQ    15,DL
         3 000131   000137 602000 3                  TNC     s:12375+31
         3 000132   000153 600000 3                  TZE     s:12380
         3 000133   300000 721100                    LXL1    0,,PR3
         3 000134   000034 101003                    CMPX1   28,DU
         3 000135   000430 601000 3                  TNZ     s:12438
         3 000136   000212 710000 3                  TRA     s:12391
         3 000137   300000 721100                    LXL1    0,,PR3
         3 000140   000015 101003                    CMPX1   13,DU
         3 000141   000430 601000 3                  TNZ     s:12438
PL6.E3A0      #001=ASL$LIST_OPTS File=ASL$EXT.:E05TSI                            TUE 07/29/97 09:57 Page:16
         3 000142   000143 710000 3                  TRA     s:12377

       83    12376    5               SELECT(L_EXPIRE);

       84    12377    5               DO_FLAG(L_MEXP) = '1'B;

  12377  3 000143   200003 474500                    LDP4    @DO_FLAG,,AUTO
         3 000144   003100 060400                    CSL     bolr='003'O
         3 000145   000030 000001 xsym               BDSC    B_VECTNIL+24             by=0,bit=0,n=1
         3 000146   400000 240001                    BDSC    0,,PR4                   by=1,bit=4,n=1

       85    12378    5               DO_FLAG(L_DEXP) = '1'B;

  12378  3 000147   003100 060400                    CSL     bolr='003'O
         3 000150   000030 000001 xsym               BDSC    B_VECTNIL+24             by=0,bit=0,n=1
         3 000151   400000 250001                    BDSC    0,,PR4                   by=1,bit=5,n=1
         3 000152   000434 710000 3                  TRA     s:12440

       86    12379    5               SELECT(L_BUDGET);

       87    12380    5               DO_FLAG(L_MAXC) = '1'B;

  12380  3 000153   200003 474500                    LDP4    @DO_FLAG,,AUTO
         3 000154   003100 060400                    CSL     bolr='003'O
         3 000155   000030 000001 xsym               BDSC    B_VECTNIL+24             by=0,bit=0,n=1
         3 000156   400000 260001                    BDSC    0,,PR4                   by=1,bit=6,n=1

       88    12381    5               DO_FLAG(L_ACCUM) = '1'B;

  12381  3 000157   003100 060400                    CSL     bolr='003'O
         3 000160   000030 000001 xsym               BDSC    B_VECTNIL+24             by=0,bit=0,n=1
         3 000161   400000 270001                    BDSC    0,,PR4                   by=1,bit=7,n=1

       89    12382    5               DO_FLAG(L_MACCT) = '1'B;

  12382  3 000162   003100 060400                    CSL     bolr='003'O
         3 000163   000030 000001 xsym               BDSC    B_VECTNIL+24             by=0,bit=0,n=1
PL6.E3A0      #001=ASL$LIST_OPTS File=ASL$EXT.:E05TSI                            TUE 07/29/97 09:57 Page:17
         3 000164   400000 300001                    BDSC    0,,PR4                   by=1,bit=8,n=1

       90    12383    5               DO_FLAG(L_BKACC) = '1'B;

  12383  3 000165   003100 060400                    CSL     bolr='003'O
         3 000166   000030 000001 xsym               BDSC    B_VECTNIL+24             by=0,bit=0,n=1
         3 000167   400000 400001                    BDSC    0,,PR4                   by=2,bit=0,n=1

       91    12384    5               DO_FLAG(L_BUDLIM) = '1'B;

  12384  3 000170   003100 060400                    CSL     bolr='003'O
         3 000171   000030 000001 xsym               BDSC    B_VECTNIL+24             by=0,bit=0,n=1
         3 000172   400000 410001                    BDSC    0,,PR4                   by=2,bit=1,n=1

       92    12385    5               DO_FLAG(L_ICHARGE) = '1'B;

  12385  3 000173   003100 060400                    CSL     bolr='003'O
         3 000174   000030 000001 xsym               BDSC    B_VECTNIL+24             by=0,bit=0,n=1
         3 000175   400000 420001                    BDSC    0,,PR4                   by=2,bit=2,n=1

       93    12386    5               DO_FLAG(L_PCHARGE) = '1'B;

  12386  3 000176   003100 060400                    CSL     bolr='003'O
         3 000177   000030 000001 xsym               BDSC    B_VECTNIL+24             by=0,bit=0,n=1
         3 000200   400000 430001                    BDSC    0,,PR4                   by=2,bit=3,n=1

       94    12387    5               DO_FLAG(L_BLINDACCTNG) = '1'B;

  12387  3 000201   003100 060400                    CSL     bolr='003'O
         3 000202   000030 000001 xsym               BDSC    B_VECTNIL+24             by=0,bit=0,n=1
         3 000203   400001 220001                    BDSC    1,,PR4                   by=1,bit=2,n=1
         3 000204   000434 710000 3                  TRA     s:12440

       95    12388    5               SELECT( L_OUTPUTPRIO );

       96    12389    5               DO_FLAG(L_OUTPUTPRIO) = '1'B;

PL6.E3A0      #001=ASL$LIST_OPTS File=ASL$EXT.:E05TSI                            TUE 07/29/97 09:57 Page:18
  12389  3 000205   200003 474500                    LDP4    @DO_FLAG,,AUTO
         3 000206   003100 060400                    CSL     bolr='003'O
         3 000207   000030 000001 xsym               BDSC    B_VECTNIL+24             by=0,bit=0,n=1
         3 000210   400001 210001                    BDSC    1,,PR4                   by=1,bit=1,n=1
         3 000211   000434 710000 3                  TRA     s:12440

       97    12390    5               SELECT(L_MEMORY);

       98    12391    5               DO_FLAG(L_MMEM) = '1'B;

  12391  3 000212   200003 474500                    LDP4    @DO_FLAG,,AUTO
         3 000213   003100 060400                    CSL     bolr='003'O
         3 000214   000030 000001 xsym               BDSC    B_VECTNIL+24             by=0,bit=0,n=1
         3 000215   400000 610001                    BDSC    0,,PR4                   by=3,bit=1,n=1

       99    12392    5               DO_FLAG(L_DMEM) = '1'B;

  12392  3 000216   003100 060400                    CSL     bolr='003'O
         3 000217   000030 000001 xsym               BDSC    B_VECTNIL+24             by=0,bit=0,n=1
         3 000220   400000 620001                    BDSC    0,,PR4                   by=3,bit=2,n=1
         3 000221   000434 710000 3                  TRA     s:12440

      100    12393    5               SELECT(L_TIME);

      101    12394    5               DO_FLAG(L_MTIME) = '1'B;

  12394  3 000222   200003 474500                    LDP4    @DO_FLAG,,AUTO
         3 000223   003100 060400                    CSL     bolr='003'O
         3 000224   000030 000001 xsym               BDSC    B_VECTNIL+24             by=0,bit=0,n=1
         3 000225   400000 630001                    BDSC    0,,PR4                   by=3,bit=3,n=1

      102    12395    5               DO_FLAG(L_DTIME) = '1'B;

  12395  3 000226   003100 060400                    CSL     bolr='003'O
         3 000227   000030 000001 xsym               BDSC    B_VECTNIL+24             by=0,bit=0,n=1
         3 000230   400000 640001                    BDSC    0,,PR4                   by=3,bit=4,n=1
         3 000231   000434 710000 3                  TRA     s:12440
PL6.E3A0      #001=ASL$LIST_OPTS File=ASL$EXT.:E05TSI                            TUE 07/29/97 09:57 Page:19

      103    12396    5               SELECT(L_SERVICE);

      104    12397    5               DO_FLAG(L_MLO) = '1'B;

  12397  3 000232   200003 474500                    LDP4    @DO_FLAG,,AUTO
         3 000233   003100 060400                    CSL     bolr='003'O
         3 000234   000030 000001 xsym               BDSC    B_VECTNIL+24             by=0,bit=0,n=1
         3 000235   400000 650001                    BDSC    0,,PR4                   by=3,bit=5,n=1

      105    12398    5               DO_FLAG(L_DLO) = '1'B;

  12398  3 000236   003100 060400                    CSL     bolr='003'O
         3 000237   000030 000001 xsym               BDSC    B_VECTNIL+24             by=0,bit=0,n=1
         3 000240   400000 660001                    BDSC    0,,PR4                   by=3,bit=6,n=1

      106    12399    5               DO_FLAG(L_MPO) = '1'B;

  12399  3 000241   003100 060400                    CSL     bolr='003'O
         3 000242   000030 000001 xsym               BDSC    B_VECTNIL+24             by=0,bit=0,n=1
         3 000243   400000 670001                    BDSC    0,,PR4                   by=3,bit=7,n=1

      107    12400    5               DO_FLAG(L_DPO) = '1'B;

  12400  3 000244   003100 060400                    CSL     bolr='003'O
         3 000245   000030 000001 xsym               BDSC    B_VECTNIL+24             by=0,bit=0,n=1
         3 000246   400000 700001                    BDSC    0,,PR4                   by=3,bit=8,n=1

      108    12401    5               DO_FLAG(L_MDO) = '1'B;

  12401  3 000247   003100 060400                    CSL     bolr='003'O
         3 000250   000030 000001 xsym               BDSC    B_VECTNIL+24             by=0,bit=0,n=1
         3 000251   400001 000001                    BDSC    1,,PR4                   by=0,bit=0,n=1

      109    12402    5               DO_FLAG(L_DDO) = '1'B;

  12402  3 000252   003100 060400                    CSL     bolr='003'O
PL6.E3A0      #001=ASL$LIST_OPTS File=ASL$EXT.:E05TSI                            TUE 07/29/97 09:57 Page:20
         3 000253   000030 000001 xsym               BDSC    B_VECTNIL+24             by=0,bit=0,n=1
         3 000254   400001 010001                    BDSC    1,,PR4                   by=0,bit=1,n=1

      110    12403    5               DO_FLAG(L_MTDP) = '1'B;

  12403  3 000255   003100 060400                    CSL     bolr='003'O
         3 000256   000030 000001 xsym               BDSC    B_VECTNIL+24             by=0,bit=0,n=1
         3 000257   400001 020001                    BDSC    1,,PR4                   by=0,bit=2,n=1

      111    12404    5               DO_FLAG(L_DTDP) = '1'B;

  12404  3 000260   003100 060400                    CSL     bolr='003'O
         3 000261   000030 000001 xsym               BDSC    B_VECTNIL+24             by=0,bit=0,n=1
         3 000262   400001 030001                    BDSC    1,,PR4                   by=0,bit=3,n=1

      112    12405    5               DO_FLAG(L_MPDP) = '1'B;

  12405  3 000263   003100 060400                    CSL     bolr='003'O
         3 000264   000030 000001 xsym               BDSC    B_VECTNIL+24             by=0,bit=0,n=1
         3 000265   400001 040001                    BDSC    1,,PR4                   by=0,bit=4,n=1

      113    12406    5               DO_FLAG(L_DPDP) = '1'B;

  12406  3 000266   003100 060400                    CSL     bolr='003'O
         3 000267   000030 000001 xsym               BDSC    B_VECTNIL+24             by=0,bit=0,n=1
         3 000270   400001 050001                    BDSC    1,,PR4                   by=0,bit=5,n=1

      114    12407    5               DO_FLAG(L_MPOOL) = '1'B;

  12407  3 000271   003100 060400                    CSL     bolr='003'O
         3 000272   000030 000001 xsym               BDSC    B_VECTNIL+24             by=0,bit=0,n=1
         3 000273   400001 060001                    BDSC    1,,PR4                   by=0,bit=6,n=1

      115    12408    5               DO_FLAG(L_DPOOL) = '1'B;

  12408  3 000274   003100 060400                    CSL     bolr='003'O
         3 000275   000030 000001 xsym               BDSC    B_VECTNIL+24             by=0,bit=0,n=1
PL6.E3A0      #001=ASL$LIST_OPTS File=ASL$EXT.:E05TSI                            TUE 07/29/97 09:57 Page:21
         3 000276   400001 070001                    BDSC    1,,PR4                   by=0,bit=7,n=1

      116    12409    5               DO_FLAG(L_MPRI) = '1'B;

  12409  3 000277   003100 060400                    CSL     bolr='003'O
         3 000300   000030 000001 xsym               BDSC    B_VECTNIL+24             by=0,bit=0,n=1
         3 000301   400001 100001                    BDSC    1,,PR4                   by=0,bit=8,n=1

      117    12410    5               DO_FLAG(L_DPRI) = '1'B;

  12410  3 000302   003100 060400                    CSL     bolr='003'O
         3 000303   000030 000001 xsym               BDSC    B_VECTNIL+24             by=0,bit=0,n=1
         3 000304   400001 200001                    BDSC    1,,PR4                   by=1,bit=0,n=1
         3 000305   000434 710000 3                  TRA     s:12440

      118    12411    5               SELECT(L_BANNER1);

      119    12412    5               DO_FLAG(L_BANNER1) = '1'B;

  12412  3 000306   200003 474500                    LDP4    @DO_FLAG,,AUTO
         3 000307   003100 060400                    CSL     bolr='003'O
         3 000310   000030 000001 xsym               BDSC    B_VECTNIL+24             by=0,bit=0,n=1
         3 000311   400001 260001                    BDSC    1,,PR4                   by=1,bit=6,n=1

      120    12413    5               DO_FLAG(L_BANNER2) = '1'B;

  12413  3 000312   003100 060400                    CSL     bolr='003'O
         3 000313   000030 000001 xsym               BDSC    B_VECTNIL+24             by=0,bit=0,n=1
         3 000314   400001 270001                    BDSC    1,,PR4                   by=1,bit=7,n=1

      121    12414    5               DO_FLAG(L_BANNER3) = '1'B;

  12414  3 000315   003100 060400                    CSL     bolr='003'O
         3 000316   000030 000001 xsym               BDSC    B_VECTNIL+24             by=0,bit=0,n=1
         3 000317   400001 300001                    BDSC    1,,PR4                   by=1,bit=8,n=1

      122    12415    5               DO_FLAG(L_BANNER4) = '1'B;
PL6.E3A0      #001=ASL$LIST_OPTS File=ASL$EXT.:E05TSI                            TUE 07/29/97 09:57 Page:22

  12415  3 000320   003100 060400                    CSL     bolr='003'O
         3 000321   000030 000001 xsym               BDSC    B_VECTNIL+24             by=0,bit=0,n=1
         3 000322   400001 400001                    BDSC    1,,PR4                   by=2,bit=0,n=1

      123    12416    5               DO_FLAG(L_BANNER5) = '1'B;

  12416  3 000323   003100 060400                    CSL     bolr='003'O
         3 000324   000030 000001 xsym               BDSC    B_VECTNIL+24             by=0,bit=0,n=1
         3 000325   400001 410001                    BDSC    1,,PR4                   by=2,bit=1,n=1

      124    12417    5               DO_FLAG(L_BANNER6) = '1'B;

  12417  3 000326   003100 060400                    CSL     bolr='003'O
         3 000327   000030 000001 xsym               BDSC    B_VECTNIL+24             by=0,bit=0,n=1
         3 000330   400001 420001                    BDSC    1,,PR4                   by=2,bit=2,n=1

      125    12418    5               DO_FLAG(L_BANNER7) = '1'B;

  12418  3 000331   003100 060400                    CSL     bolr='003'O
         3 000332   000030 000001 xsym               BDSC    B_VECTNIL+24             by=0,bit=0,n=1
         3 000333   400001 430001                    BDSC    1,,PR4                   by=2,bit=3,n=1

      126    12419    5               DO_FLAG(L_BANNER8) = '1'B;

  12419  3 000334   003100 060400                    CSL     bolr='003'O
         3 000335   000030 000001 xsym               BDSC    B_VECTNIL+24             by=0,bit=0,n=1
         3 000336   400001 440001                    BDSC    1,,PR4                   by=2,bit=4,n=1

      127    12420    5               DO_FLAG(L_BANNER9) = '1'B;

  12420  3 000337   003100 060400                    CSL     bolr='003'O
         3 000340   000030 000001 xsym               BDSC    B_VECTNIL+24             by=0,bit=0,n=1
         3 000341   400001 450001                    BDSC    1,,PR4                   by=2,bit=5,n=1

      128    12421    5               DO_FLAG(L_ALTERABLE_BANNER1) = '1'B;

PL6.E3A0      #001=ASL$LIST_OPTS File=ASL$EXT.:E05TSI                            TUE 07/29/97 09:57 Page:23
  12421  3 000342   003100 060400                    CSL     bolr='003'O
         3 000343   000030 000001 xsym               BDSC    B_VECTNIL+24             by=0,bit=0,n=1
         3 000344   400001 460001                    BDSC    1,,PR4                   by=2,bit=6,n=1

      129    12422    5               DO_FLAG(L_ALTERABLE_BANNER2) = '1'B;

  12422  3 000345   003100 060400                    CSL     bolr='003'O
         3 000346   000030 000001 xsym               BDSC    B_VECTNIL+24             by=0,bit=0,n=1
         3 000347   400001 470001                    BDSC    1,,PR4                   by=2,bit=7,n=1

      130    12423    5               DO_FLAG(L_ALTERABLE_BANNER3) = '1'B;

  12423  3 000350   003100 060400                    CSL     bolr='003'O
         3 000351   000030 000001 xsym               BDSC    B_VECTNIL+24             by=0,bit=0,n=1
         3 000352   400001 500001                    BDSC    1,,PR4                   by=2,bit=8,n=1

      131    12424    5               DO_FLAG(L_ALTERABLE_BANNER4) = '1'B;

  12424  3 000353   003100 060400                    CSL     bolr='003'O
         3 000354   000030 000001 xsym               BDSC    B_VECTNIL+24             by=0,bit=0,n=1
         3 000355   400001 600001                    BDSC    1,,PR4                   by=3,bit=0,n=1

      132    12425    5               DO_FLAG(L_ALTERABLE_BANNER5) = '1'B;

  12425  3 000356   003100 060400                    CSL     bolr='003'O
         3 000357   000030 000001 xsym               BDSC    B_VECTNIL+24             by=0,bit=0,n=1
         3 000360   400001 610001                    BDSC    1,,PR4                   by=3,bit=1,n=1

      133    12426    5               DO_FLAG(L_ALTERABLE_BANNER6) = '1'B;

  12426  3 000361   003100 060400                    CSL     bolr='003'O
         3 000362   000030 000001 xsym               BDSC    B_VECTNIL+24             by=0,bit=0,n=1
         3 000363   400001 620001                    BDSC    1,,PR4                   by=3,bit=2,n=1

      134    12427    5               DO_FLAG(L_ALTERABLE_BANNER7) = '1'B;

  12427  3 000364   003100 060400                    CSL     bolr='003'O
PL6.E3A0      #001=ASL$LIST_OPTS File=ASL$EXT.:E05TSI                            TUE 07/29/97 09:57 Page:24
         3 000365   000030 000001 xsym               BDSC    B_VECTNIL+24             by=0,bit=0,n=1
         3 000366   400001 630001                    BDSC    1,,PR4                   by=3,bit=3,n=1

      135    12428    5               DO_FLAG(L_ALTERABLE_BANNER8) = '1'B;

  12428  3 000367   003100 060400                    CSL     bolr='003'O
         3 000370   000030 000001 xsym               BDSC    B_VECTNIL+24             by=0,bit=0,n=1
         3 000371   400001 640001                    BDSC    1,,PR4                   by=3,bit=4,n=1

      136    12429    5               DO_FLAG(L_ALTERABLE_BANNER9) = '1'B;

  12429  3 000372   003100 060400                    CSL     bolr='003'O
         3 000373   000030 000001 xsym               BDSC    B_VECTNIL+24             by=0,bit=0,n=1
         3 000374   400001 650001                    BDSC    1,,PR4                   by=3,bit=5,n=1
         3 000375   000434 710000 3                  TRA     s:12440

      137    12430    5               SELECT(L_ALL);

      138    12431    5               DOFLAG.USER = DOFLAG.USER | '003777777777777777777777'O;

  12431  3 000376   200003 474500                    LDP4    @DO_FLAG,,AUTO
         3 000377   003100 060500                    CSL     bolr='003'O
         3 000400   400000 000110                    BDSC    0,,PR4                   by=0,bit=0,n=72
         3 000401   200010 000110                    BDSC    I+1,,AUTO                by=0,bit=0,n=72
         3 000402   200010 237100                    LDAQ    I+1,,AUTO
         3 000403   000000 277000 2                  ORAQ    0
         3 000404   200012 757100                    STAQ    I+3,,AUTO
         3 000405   003100 060500                    CSL     bolr='003'O
         3 000406   200012 000110                    BDSC    I+3,,AUTO                by=0,bit=0,n=72
         3 000407   400000 000110                    BDSC    0,,PR4                   by=0,bit=0,n=72

      139    12432    5               DOFLAG.FE_MODE = DOFLAG.FE_MODE | '777777777760'O;

  12432  3 000410   003100 060500                    CSL     bolr='003'O
         3 000411   400002 000044                    BDSC    2,,PR4                   by=0,bit=0,n=36
         3 000412   200010 000044                    BDSC    I+1,,AUTO                by=0,bit=0,n=36
         3 000413   200010 236100                    LDQ     I+1,,AUTO
PL6.E3A0      #001=ASL$LIST_OPTS File=ASL$EXT.:E05TSI                            TUE 07/29/97 09:57 Page:25
         3 000414   000002 276000 2                  ORQ     2
         3 000415   200011 756100                    STQ     I+2,,AUTO
         3 000416   003100 060500                    CSL     bolr='003'O
         3 000417   200011 000044                    BDSC    I+2,,AUTO                by=0,bit=0,n=36
         3 000420   400002 000044                    BDSC    2,,PR4                   by=0,bit=0,n=36

      140    12433    5               DO_FLAG(L_MAXENQ) = '1'B;

  12433  3 000421   003100 060400                    CSL     bolr='003'O
         3 000422   000030 000001 xsym               BDSC    B_VECTNIL+24             by=0,bit=0,n=1
         3 000423   400003 410001                    BDSC    3,,PR4                   by=2,bit=1,n=1

      141    12434    5               MORE = '0'B;

  12434  3 000424   200005 450100                    STZ     MORE,,AUTO
         3 000425   000434 710000 3                  TRA     s:12440

      142    12435    5               SELECT(L_END);

      143    12436    5               MORE = '0'B;

  12436  3 000426   200005 450100                    STZ     MORE,,AUTO
         3 000427   000434 710000 3                  TRA     s:12440

      144    12437    5               SELECT(ELSE);

      145    12438    5            DO_FLAG(ND$->P$B.CODE) = '1'B;

  12438  3 000430   200003 474500                    LDP4    @DO_FLAG,,AUTO
         3 000431   003106 060400                    CSL     bolr='003'O
         3 000432   000030 000001 xsym               BDSC    B_VECTNIL+24             by=0,bit=0,n=1
         3 000433   400000 000001                    BDSC    0,Q,PR4                  by=0,bit=0,n=1

      146    12439    5               END;                  /* End case                           */

      147    12440    4         I = I + 1;

PL6.E3A0      #001=ASL$LIST_OPTS File=ASL$EXT.:E05TSI                            TUE 07/29/97 09:57 Page:26
  12440  3 000434   200007 235100                    LDA     I,,AUTO
         3 000435   000001 035007                    ADLA    1,DL
         3 000436   200007 755100                    STA     I,,AUTO

      148    12441    4            END;

  12441  3 000437   200005 234100                    SZN     MORE,,AUTO
         3 000440   000450 605000 3                  TPL     s:12441+9
         3 000441   000003 470400 xsym               LDP0    P_PCB+3
         3 000442   000003 471500                    LDP1    3,,PR0
         3 000443   100001 236100                    LDQ     1,,PR1
         3 000444   000022 772000                    QRL     18
         3 000445   200007 116100                    CMPQ    I,,AUTO
         3 000446   000450 600000 3                  TZE     s:12441+9
         3 000447   000073 603000 3                  TRC     s:12374
         3 000450   000464 710000 3                  TRA     s:12449

      149    12442    3         SELECT( HELP_VAL );

      150    12443    3         CALL ASH$HELP ;

  12443  3 000451   000002 631400 xsym               EPPR1   B_VECTNIL+2
         3 000452   000000 701000 xent               TSX1    ASH$HELP
         3 000453   000000 011000                    NOP     0
         3 000454   000464 710000 3                  TRA     s:12449

      151    12444    3         SELECT( QUESTION_VAL );

      152    12445    3         CALL ASH$QUEST;

  12445  3 000455   000002 631400 xsym               EPPR1   B_VECTNIL+2
         3 000456   000000 701000 xent               TSX1    ASH$QUEST
         3 000457   000000 011000                    NOP     0
         3 000460   000464 710000 3                  TRA     s:12449

      153    12446    3         SELECT( DQUESTION_VAL );

PL6.E3A0      #001=ASL$LIST_OPTS File=ASL$EXT.:E05TSI                            TUE 07/29/97 09:57 Page:27
      154    12447    3         CALL ASH$DQUEST ;

  12447  3 000461   000002 631400 xsym               EPPR1   B_VECTNIL+2
         3 000462   000000 701000 xent               TSX1    ASH$DQUEST
         3 000463   000000 011000                    NOP     0

      155    12448    3         END;

      156    12449    3      DO WHILE('0'B);

  12449  3 000464   000475 710000 3                  TRA     s:12454

      157    12450    3   PARSE_ALT: MERR_CODE = P_PCB.ERROR;

  12450  3 000465   000006 236000 xsym  PARSE_ALT    LDQ     P_PCB+6
         3 000466   000000 756000 xsym               STQ     ERR_CODE

      158    12451    3         MERR_CODE.SEV = 0;

  12451  3 000467   000004 236000 4                  LDQ     4
         3 000470   000000 356000 xsym               ANSQ    ERR_CODE

      159    12452    3         CALL ASH$ERROR(MERR_CODE);

  12452  3 000471   000005 630400 4                  EPPR0   5
         3 000472   000017 631400 xsym               EPPR1   B_VECTNIL+15
         3 000473   000000 701000 xent               TSX1    ASH$ERROR
         3 000474   000000 011000                    NOP     0

      160    12453    3         END;

      161    12454    2      END;

  12454  3 000475   200005 234100                    SZN     MORE,,AUTO
         3 000476   000014 604000 3                  TMI     s:12362

      162    12455    1   IF NOT (DO_FLAG(L_BATCH)
PL6.E3A0      #001=ASL$LIST_OPTS File=ASL$EXT.:E05TSI                            TUE 07/29/97 09:57 Page:28

  12455  3 000477   200003 470500                    LDP0    @DO_FLAG,,AUTO
         3 000500   000000 066500                    CMPB    filb='0'B
         3 000501   000000 000001                    BDSC    0,,PR0                   by=0,bit=0,n=1
         3 000502   000002 000022 xsym               BDSC    B_VECTNIL+2              by=0,bit=0,n=18
         3 000503   000543 601000 3                  TNZ     s:12467
         3 000504   000000 066500                    CMPB    filb='0'B
         3 000505   000000 010001                    BDSC    0,,PR0                   by=0,bit=1,n=1
         3 000506   000002 000022 xsym               BDSC    B_VECTNIL+2              by=0,bit=0,n=18
         3 000507   000543 601000 3                  TNZ     s:12467
         3 000510   000000 066500                    CMPB    filb='0'B
         3 000511   000000 020001                    BDSC    0,,PR0                   by=0,bit=2,n=1
         3 000512   000002 000022 xsym               BDSC    B_VECTNIL+2              by=0,bit=0,n=18
         3 000513   000543 601000 3                  TNZ     s:12467
         3 000514   000000 066500                    CMPB    filb='0'B
         3 000515   000000 030001                    BDSC    0,,PR0                   by=0,bit=3,n=1
         3 000516   000002 000022 xsym               BDSC    B_VECTNIL+2              by=0,bit=0,n=18
         3 000517   000543 601000 3                  TNZ     s:12467
         3 000520   000000 066500                    CMPB    filb='0'B
         3 000521   000000 040001                    BDSC    0,,PR0                   by=0,bit=4,n=1
         3 000522   000002 000022 xsym               BDSC    B_VECTNIL+2              by=0,bit=0,n=18
         3 000523   000543 601000 3                  TNZ     s:12467

      163    12456    1        OR DO_FLAG(L_GHOST)
      164    12457    1        OR DO_FLAG(L_INT)
      165    12458    1        OR DO_FLAG(L_TP)
      166    12459    1        OR DO_FLAG(L_FE))
      167    12460    2   THEN DO;                       /* Default is all modes get reported  */

      168    12461    2      DO_FLAG(L_BATCH) = AS_TRUE;

  12461  3 000524   003100 060400                    CSL     bolr='003'O
         3 000525   000000 000001 xsym               BDSC    AS_TRUE                  by=0,bit=0,n=1
         3 000526   000000 000001                    BDSC    0,,PR0                   by=0,bit=0,n=1

      169    12462    2      DO_FLAG(L_GHOST) = AS_TRUE;

PL6.E3A0      #001=ASL$LIST_OPTS File=ASL$EXT.:E05TSI                            TUE 07/29/97 09:57 Page:29
  12462  3 000527   003100 060400                    CSL     bolr='003'O
         3 000530   000000 000001 xsym               BDSC    AS_TRUE                  by=0,bit=0,n=1
         3 000531   000000 010001                    BDSC    0,,PR0                   by=0,bit=1,n=1

      170    12463    2      DO_FLAG(L_INT) = AS_TRUE;

  12463  3 000532   003100 060400                    CSL     bolr='003'O
         3 000533   000000 000001 xsym               BDSC    AS_TRUE                  by=0,bit=0,n=1
         3 000534   000000 020001                    BDSC    0,,PR0                   by=0,bit=2,n=1

      171    12464    2      DO_FLAG(L_TP) = AS_TRUE;

  12464  3 000535   003100 060400                    CSL     bolr='003'O
         3 000536   000000 000001 xsym               BDSC    AS_TRUE                  by=0,bit=0,n=1
         3 000537   000000 030001                    BDSC    0,,PR0                   by=0,bit=3,n=1

      172    12465    2      DO_FLAG(L_FE) = AS_TRUE;

  12465  3 000540   003100 060400                    CSL     bolr='003'O
         3 000541   000000 000001 xsym               BDSC    AS_TRUE                  by=0,bit=0,n=1
         3 000542   000000 040001                    BDSC    0,,PR0                   by=0,bit=4,n=1

      173    12466    2      END;

      174    12467    1   IF NOT (DO_FLAG(L_FEUSER)

  12467  3 000543   000000 066500                    CMPB    filb='0'B
         3 000544   000003 000001                    BDSC    3,,PR0                   by=0,bit=0,n=1
         3 000545   000002 000022 xsym               BDSC    B_VECTNIL+2              by=0,bit=0,n=18
         3 000546   000577 601000 3                  TNZ     s:12477
         3 000547   000000 066500                    CMPB    filb='0'B
         3 000550   000003 010001                    BDSC    3,,PR0                   by=0,bit=1,n=1
         3 000551   000002 000022 xsym               BDSC    B_VECTNIL+2              by=0,bit=0,n=18
         3 000552   000577 601000 3                  TNZ     s:12477
         3 000553   000000 066500                    CMPB    filb='0'B
         3 000554   000003 020001                    BDSC    3,,PR0                   by=0,bit=2,n=1
         3 000555   000002 000022 xsym               BDSC    B_VECTNIL+2              by=0,bit=0,n=18
PL6.E3A0      #001=ASL$LIST_OPTS File=ASL$EXT.:E05TSI                            TUE 07/29/97 09:57 Page:30
         3 000556   000577 601000 3                  TNZ     s:12477
         3 000557   000000 066500                    CMPB    filb='0'B
         3 000560   000003 030001                    BDSC    3,,PR0                   by=0,bit=3,n=1
         3 000561   000002 000022 xsym               BDSC    B_VECTNIL+2              by=0,bit=0,n=18
         3 000562   000577 601000 3                  TNZ     s:12477

      175    12468    1        OR DO_FLAG(L_FECG)
      176    12469    1        OR DO_FLAG(L_FEHANDLR)
      177    12470    1        OR DO_FLAG(L_FEGHOST))
      178    12471    2   THEN DO;                       /* Default is all modes get reported  */

      179    12472    2      DO_FLAG(L_FEUSER) = AS_TRUE;

  12472  3 000563   003100 060400                    CSL     bolr='003'O
         3 000564   000000 000001 xsym               BDSC    AS_TRUE                  by=0,bit=0,n=1
         3 000565   000003 000001                    BDSC    3,,PR0                   by=0,bit=0,n=1

      180    12473    2      DO_FLAG(L_FECG) = AS_TRUE;

  12473  3 000566   003100 060400                    CSL     bolr='003'O
         3 000567   000000 000001 xsym               BDSC    AS_TRUE                  by=0,bit=0,n=1
         3 000570   000003 010001                    BDSC    3,,PR0                   by=0,bit=1,n=1

      181    12474    2      DO_FLAG(L_FEHANDLR) = AS_TRUE;

  12474  3 000571   003100 060400                    CSL     bolr='003'O
         3 000572   000000 000001 xsym               BDSC    AS_TRUE                  by=0,bit=0,n=1
         3 000573   000003 020001                    BDSC    3,,PR0                   by=0,bit=2,n=1

      182    12475    2      DO_FLAG(L_FEGHOST) = AS_TRUE;

  12475  3 000574   003100 060400                    CSL     bolr='003'O
         3 000575   000000 000001 xsym               BDSC    AS_TRUE                  by=0,bit=0,n=1
         3 000576   000003 030001                    BDSC    3,,PR0                   by=0,bit=3,n=1

      183    12476    2      END;

PL6.E3A0      #001=ASL$LIST_OPTS File=ASL$EXT.:E05TSI                            TUE 07/29/97 09:57 Page:31
      184    12477    1   RETURN;

  12477  3 000577   000000 702200 xent               TSX2  ! X66_ARET
      185    12478    1   END ASL$LIST_OPTS;
      186    12479        %EOD;

PL6.E3A0      #001=ASL$LIST_OPTS File=ASL$EXT.:E05TSI                            TUE 07/29/97 09:57 Page:32
--  Include file information  --

   AS_SUPER_R.:E05TOU  cannot be made into a system file and is referenced.
   XU_FORMAT_C.:E05TOU  is referenced.
   XU_MACRO_C.:E05TOU  is referenced.
   KL_SUPER_C.:E05TOU  is referenced.
   CP_6.:E05TOU  cannot be made into a system file and is referenced.
   AS_MAC_C.:E05TOU  cannot be made into a system file and is referenced.
   AS_SUBS_C.:E05TOU  is referenced.
   AS_SUPER_C.:E05TOU  is referenced.
   AS_ENTRIES_M.:E05TOU  is referenced.
   B$JIT_C.:E05TOU  was found in the system file and is never referenced.
   CP_6_C.:E05TOU  was found in the system file and is referenced.
      No diagnostics issued in procedure ASL$LIST_OPTS.
PL6.E3A0      #001=ASL$LIST_OPTS File=ASL$EXT.:E05TSI                            TUE 07/29/97 09:57 Page:33

 **** Variables and constants ****

  ****  Auto variables  ****

  ****  Scalars and arrays  ****
OctLoc.c.b A Datatyp(siz) R M Lvl/name                 OctLoc.c.b A Datatyp(siz) R M Lvl/name

     3-0-0/w PTR         r     1 @DO_FLAG                   4-0-0/w UBIN        r     1 ARS
    *0-0-0/b STRC(144)   r     1 DOFLAG                    *0-0-0/b BIT         r     1 DO_FLAG(0:143)
     7-0-0/w UBIN        r     1 I                          5-0-0/w BIT         r     1 MORE
     6-0-0/w PTR         r     1 ND$

  ****  SYMREF variables  ****

  ****  Scalars and arrays  ****
OctLoc.c.b A Datatyp(siz) R M Lvl/name                 OctLoc.c.b A Datatyp(siz) R M Lvl/name

     0-0-0/b BIT         r     1 AS_TRUE                    0-0-0/b STRC        r     1 ERR_CODE
     0-0-0/c CHAR(255)   r     1 IN_BUF                     0-0-0/w UBIN        r     1 LIST_S_OPT
     0-0-0/b STRC        r     1 MERR_CODE                  0-0-0/w STRC(504)   r     1 P_PCB
     0-0-0/d REMB        r     1 REMEM_VAR

  ****  BASED and DCB variables  ****

  ****  Scalars and arrays  ****
OctLoc.c.b A Datatyp(siz) R M Lvl/name                 OctLoc.c.b A Datatyp(siz) R M Lvl/name

     0-0-0/w STRC(144)   r     1 P$B


   Procedure ASL$LIST_OPTS requires 384 words for executable code.
   Procedure ASL$LIST_OPTS requires 12 words of local(AUTO) storage.
PL6.E3A0      #001=ASL$LIST_OPTS File=ASL$EXT.:E05TSI                            TUE 07/29/97 09:57 Page:34
          *** CROSS REFERENCE LISTING ***
**     DENOTES     IDENTIFIER DEFINITION
<<                 IDENTIFIER'S VALUE SET
>>                 IDENTIFIER'S VALUE USED
<>                 IDENTIFIER SET AND/OR USED
--                 IDENTIFIER REFERENCED
PL6.E3A0      #001=ASL$LIST_OPTS File=ASL$EXT.:E05TSI                            TUE 07/29/97 09:57 Page:35
          MINI XREF LISTING

ARS
     12347**DCL     12365<>CALL    12366>>ASSIGN
ASA_BRKS_LOC
      9421**DCL      9421--REDEF
ASB$READ_SI
     12277**DCL-ENT 12365--CALL
ASB$SET_PROMPT
     12280**DCL-ENT 12364--CALL
ASH$DQUEST
     12290**DCL-ENT 12447--CALL
ASH$ERROR
     12287**DCL-ENT 12452--CALL
ASH$HELP
     12284**DCL-ENT 12443--CALL
ASH$QUEST
     12293**DCL-ENT 12445--CALL
AS_DEFAULT.BANNER_PERM
     10114**DCL     10115--REDEF
AS_DEFAULT.BUDGET.MACCT
     10019**DCL     10023--REDEF
AS_DEFAULT.BUDGET.MAX_PROJECTS
     10032**DCL     10035--REDEF
AS_DEFAULT.BUDGET.PACCUM
     10015**DCL     10017--REDEF
AS_DEFAULT.BUDGET.PMAXC
     10010**DCL     10012--REDEF
AS_DEFAULT.SETUP_CHRA.TXT
     10130**DCL     10131--REDEF   10132--REDEF
AS_DEFAULT_DREC.PASSWORD
     11384**DCL     11388--REDEF
AS_DEFAULT_DREC.RENAME
     11407**DCL     11408--REDEF
PL6.E3A0      #001=ASL$LIST_OPTS File=ASL$EXT.:E05TSI                            TUE 07/29/97 09:57 Page:36
AS_DFLT.BANNER_PERM
      9936**DCL      9937--REDEF
AS_DFLT.BUDGET.MACCT
      9841**DCL      9845--REDEF
AS_DFLT.BUDGET.MAX_PROJECTS
      9854**DCL      9857--REDEF
AS_DFLT.BUDGET.PACCUM
      9837**DCL      9839--REDEF
AS_DFLT.BUDGET.PMAXC
      9832**DCL      9834--REDEF
AS_DFLT.SETUP_CHRA.TXT
      9952**DCL      9953--REDEF    9954--REDEF
AS_FE_MODE
      9287**DCL      9288--REDEF
AS_MODE
      9284**DCL      9286--REDEF
AS_MOD_USER.ACCESS
     12149**DCL     12150--REDEF
AS_MOD_USER.BANNER
     12136**DCL     12137--REDEF
AS_MOD_USER.BANNER_PERM
     12138**DCL     12139--REDEF
AS_MOD_USER.BILL
     12144**DCL     12145--REDEF
AS_MOD_USER.CPROC
     12140**DCL     12141--REDEF
AS_MOD_USER.FEBILL
     12220**DCL     12221--REDEF
AS_MOD_USER.FECXTMEM
     12237**DCL     12238--REDEF
AS_MOD_USER.FEMINTS
     12222**DCL     12223--REDEF
AS_MOD_USER.FEMMEM
     12233**DCL     12234--REDEF
AS_MOD_USER.FEMTIME
     12231**DCL     12232--REDEF
PL6.E3A0      #001=ASL$LIST_OPTS File=ASL$EXT.:E05TSI                            TUE 07/29/97 09:57 Page:37
AS_MOD_USER.FEPPRIV
     12228**DCL     12230--REDEF
AS_MOD_USER.FEPRIV
     12225**DCL     12227--REDEF
AS_MOD_USER.FORCE_BIT
     12134**DCL     12135--REDEF
AS_MOD_USER.KEY
     12216**DCL     12218--REDEF
AS_MOD_USER.LASTCPROC
     12142**DCL     12143--REDEF
AS_MOD_USER.LIMITS.DO_
     12190**DCL     12191--REDEF
AS_MOD_USER.LIMITS.FPOOLS
     12206**DCL     12207--REDEF
AS_MOD_USER.LIMITS.LO
     12186**DCL     12187--REDEF
AS_MOD_USER.LIMITS.MEM
     12182**DCL     12183--REDEF
AS_MOD_USER.LIMITS.MPRIO
     12210**DCL     12211--REDEF
AS_MOD_USER.LIMITS.PDIS
     12198**DCL     12199--REDEF
AS_MOD_USER.LIMITS.PO
     12194**DCL     12195--REDEF
AS_MOD_USER.LIMITS.TDIS
     12202**DCL     12203--REDEF
AS_MOD_USER.LIMITS.TIME
     12178**DCL     12179--REDEF
AS_MOD_USER.MAXENQ
     12159**DCL     12160--REDEF
AS_MOD_USER.PERM_BIT
     12132**DCL     12133--REDEF
AS_MOD_USER.PPRIV
     12154**DCL     12156--REDEF
AS_MOD_USER.PRIOB
     12161**DCL     12162--REDEF
PL6.E3A0      #001=ASL$LIST_OPTS File=ASL$EXT.:E05TSI                            TUE 07/29/97 09:57 Page:38
AS_MOD_USER.PRIV
     12151**DCL     12153--REDEF
AS_MOD_USER.QUAN
     12157**DCL     12158--REDEF
AS_MOD_USER.SETUP
     12130**DCL     12131--REDEF
AS_PROJECT.BANNER_PERM
     10470**DCL     10471--REDEF
AS_PROJECT.BUDGET.MACCT
     10375**DCL     10379--REDEF
AS_PROJECT.BUDGET.MAX_PROJECTS
     10388**DCL     10391--REDEF
AS_PROJECT.BUDGET.PACCUM
     10371**DCL     10373--REDEF
AS_PROJECT.BUDGET.PMAXC
     10366**DCL     10368--REDEF
AS_PROJECT.SETUP_CHRA.TXT
     10486**DCL     10487--REDEF   10488--REDEF
AS_PROJECT_DFLT.BANNER_PERM
     10648**DCL     10649--REDEF
AS_PROJECT_DFLT.BUDGET.MACCT
     10553**DCL     10557--REDEF
AS_PROJECT_DFLT.BUDGET.MAX_PROJECTS
     10566**DCL     10569--REDEF
AS_PROJECT_DFLT.BUDGET.PACCUM
     10549**DCL     10551--REDEF
AS_PROJECT_DFLT.BUDGET.PMAXC
     10544**DCL     10546--REDEF
AS_PROJECT_DFLT.SETUP_CHRA.TXT
     10664**DCL     10665--REDEF   10666--REDEF
AS_PROJECT_DFLT_DREC.PASSWORD
     11870**DCL     11874--REDEF
AS_PROJECT_DFLT_DREC.RENAME
     11893**DCL     11894--REDEF
AS_PROJECT_DREC.PASSWORD
     11708**DCL     11712--REDEF
PL6.E3A0      #001=ASL$LIST_OPTS File=ASL$EXT.:E05TSI                            TUE 07/29/97 09:57 Page:39
AS_PROJECT_DREC.RENAME
     11731**DCL     11732--REDEF
AS_PROJ_ADMIN.BANNER_PERM
     10292**DCL     10293--REDEF
AS_PROJ_ADMIN.BUDGET.MACCT
     10197**DCL     10201--REDEF
AS_PROJ_ADMIN.BUDGET.MAX_PROJECTS
     10210**DCL     10213--REDEF
AS_PROJ_ADMIN.BUDGET.PACCUM
     10193**DCL     10195--REDEF
AS_PROJ_ADMIN.BUDGET.PMAXC
     10188**DCL     10190--REDEF
AS_PROJ_ADMIN.SETUP_CHRA.TXT
     10308**DCL     10309--REDEF   10310--REDEF
AS_PROJ_ADMIN_DREC.PASSWORD
     11546**DCL     11550--REDEF
AS_PROJ_ADMIN_DREC.RENAME
     11569**DCL     11570--REDEF
AS_TRUE
      9281**DCL     12461>>ASSIGN  12462>>ASSIGN  12463>>ASSIGN  12464>>ASSIGN  12465>>ASSIGN  12472>>ASSIGN
     12473>>ASSIGN  12474>>ASSIGN  12475>>ASSIGN
AS_USERS.BANNER_PERM
      9758**DCL      9759--REDEF
AS_USERS.BUDGET.MACCT
      9663**DCL      9667--REDEF
AS_USERS.BUDGET.MAX_PROJECTS
      9676**DCL      9679--REDEF
AS_USERS.BUDGET.PACCUM
      9659**DCL      9661--REDEF
AS_USERS.BUDGET.PMAXC
      9654**DCL      9656--REDEF
AS_USERS.SETUP_CHRA.TXT
      9774**DCL      9775--REDEF    9776--REDEF
AS_USERS_CONSTANT.BANNER_PERM
     10826**DCL     10827--REDEF
AS_USERS_CONSTANT.BUDGET.MACCT
PL6.E3A0      #001=ASL$LIST_OPTS File=ASL$EXT.:E05TSI                            TUE 07/29/97 09:57 Page:40
     10731**DCL     10735--REDEF
AS_USERS_CONSTANT.BUDGET.MAX_PROJECTS
     10744**DCL     10747--REDEF
AS_USERS_CONSTANT.BUDGET.PACCUM
     10727**DCL     10729--REDEF
AS_USERS_CONSTANT.BUDGET.PMAXC
     10722**DCL     10724--REDEF
AS_USERS_CONSTANT.SETUP_CHRA.TXT
     10842**DCL     10843--REDEF   10844--REDEF
DOFLAG.FE_MODE
        22**DCL     12432<<ASSIGN  12432>>ASSIGN
DOFLAG.USER
        21**DCL     12431<<ASSIGN  12431>>ASSIGN
DO_FLAG
        19**DCL        15--PROC       20--REDEF   12358<<ASSIGN  12377<<ASSIGN  12378<<ASSIGN  12380<<ASSIGN
     12381<<ASSIGN  12382<<ASSIGN  12383<<ASSIGN  12384<<ASSIGN  12385<<ASSIGN  12386<<ASSIGN  12387<<ASSIGN
     12389<<ASSIGN  12391<<ASSIGN  12392<<ASSIGN  12394<<ASSIGN  12395<<ASSIGN  12397<<ASSIGN  12398<<ASSIGN
     12399<<ASSIGN  12400<<ASSIGN  12401<<ASSIGN  12402<<ASSIGN  12403<<ASSIGN  12404<<ASSIGN  12405<<ASSIGN
     12406<<ASSIGN  12407<<ASSIGN  12408<<ASSIGN  12409<<ASSIGN  12410<<ASSIGN  12412<<ASSIGN  12413<<ASSIGN
     12414<<ASSIGN  12415<<ASSIGN  12416<<ASSIGN  12417<<ASSIGN  12418<<ASSIGN  12419<<ASSIGN  12420<<ASSIGN
     12421<<ASSIGN  12422<<ASSIGN  12423<<ASSIGN  12424<<ASSIGN  12425<<ASSIGN  12426<<ASSIGN  12427<<ASSIGN
     12428<<ASSIGN  12429<<ASSIGN  12433<<ASSIGN  12438<<ASSIGN  12455>>IF      12455>>IF      12455>>IF
     12455>>IF      12455>>IF      12461<<ASSIGN  12462<<ASSIGN  12463<<ASSIGN  12464<<ASSIGN  12465<<ASSIGN
     12467>>IF      12467>>IF      12467>>IF      12467>>IF      12472<<ASSIGN  12473<<ASSIGN  12474<<ASSIGN
     12475<<ASSIGN
ERR_CODE
      9416**DCL      9417--REDEF
I
     12350**DCL     12372<<ASSIGN  12373>>DOWHILE 12374>>ASSIGN  12440<<ASSIGN  12440>>ASSIGN
IN_BUF
      9412**DCL     12365<>CALL
KL_DEFAULT.PASSWORD
     12032**DCL     12036--REDEF
KL_DEFAULT.RENAME
     12055**DCL     12056--REDEF
KL_DFLT.PASSWORD
PL6.E3A0      #001=ASL$LIST_OPTS File=ASL$EXT.:E05TSI                            TUE 07/29/97 09:57 Page:41
     11222**DCL     11226--REDEF
KL_DFLT.RENAME
     11245**DCL     11246--REDEF
KL_DREC.PASSWORD
     11060**DCL     11064--REDEF
KL_DREC.RENAME
     11083**DCL     11084--REDEF
KL_DREC_CNT.PASSWORD
     10947**DCL     10951--REDEF
KL_DREC_CNT.RENAME
     10970**DCL     10971--REDEF
LIST1
     12360**LABEL   12362--REMEMBR
LIST_S_OPT
      9274**DCL     12360--ASSIGN
MERR_CODE
      9417**DCL     12450<<ASSIGN  12452<>CALL
MERR_CODE.SEV
      9417**DCL     12451<<ASSIGN
MORE
     12348**DCL     12359<<ASSIGN  12361>>DOWHILE 12370<<ASSIGN  12373>>DOWHILE 12434<<ASSIGN  12436<<ASSIGN
ND$
     12349**DCL     12374<<ASSIGN  12375>>DOSELCT 12438>>ASSIGN
P$B.CODE
     12313**DCL     12368>>DOSELCT 12375>>DOSELCT 12438>>ASSIGN
P$B.NSUBLKS
     12317**DCL     12373>>DOWHILE
P$B.SUBLK$
     12338**DCL     12368>>DOSELCT 12373>>DOWHILE 12374>>ASSIGN  12374>>ASSIGN
PARSE_ALT
     12450**LABEL   12367--CALLALT
PROJ_KEY.TEXT
      9294**DCL      9294--REDEF
PROJ_KEY.TXT.PROJECT
      9294**DCL      9294--REDEF
P_PCB
PL6.E3A0      #001=ASL$LIST_OPTS File=ASL$EXT.:E05TSI                            TUE 07/29/97 09:57 Page:42
      9449**DCL     12367<>CALL
P_PCB.ERROR
      9553**DCL     12450>>ASSIGN
P_PCB.NCHARS
      9596**DCL     12366<<ASSIGN
P_PCB.OUT$
      9462**DCL     12305--IMP-PTR 12368>>DOSELCT 12373>>DOWHILE 12374>>ASSIGN
P_PCB.ROOT$
      9454**DCL     12360<<ASSIGN
REMEM_VAR
      9420**DCL      9420--REDEF   12362<<REMEMBR
REM_FCMD
      9420**DCL      9421--REDEF
USERS_KEY.TEXT
      9291**DCL      9292--REDEF    9292--REDEF    9292--REDEF    9293--REDEF
X$PARSE
     12282**DCL-ENT 12367--CALL

