VERSION E05

PL6.E3A0      #001=ASL$LIST File=ASL$LIST.:E05TSI                                TUE 07/29/97 09:59 Page:1
        1        1        /*M* ASL$LIST:   EXTERNAL ROUTINE TO HANDLE LIST OPTION.    */
        2        2        /*T***********************************************************/
        3        3        /*T*                                                         */
        4        4        /*T* Copyright (c) Bull HN Information Systems Inc., 1997    */
        5        5        /*T*                                                         */
        6        6        /*T***********************************************************/
        7        7        /*X*  DMC,DMR,CCC,PLM=0,IND=3,CTI=5,DCI=6,IAD=0,DTI=0,IDT=0,ENI=3,
        8        8              ECU=3,CSU=3,SDI=3                                           */
        9        9        ASL$LIST: PROC (DISP_CODE);
       10       10        /**********************************************************/
       11       11
       12       12        /*D* NAME:     ASL$LIST
       13       13             CALL:     CALL ASL$LIST
       14       14             INPUT:    DISP_CODE - ubin word - the node number.
       15       15             OUTPUT:   Nothing is returned.
       16       16             DESCRIPTION:  ASL$LIST is a subroutine to handle
       17       17                           the LIST/DISPLAY command for SUPER.
       18       18                           ASL$LIST will parse the LIST/DISPLAY command
       19       19                           and then call the appropriate object routines,
       20       20                           based on the parse nodes.
       21       21        */
       22       22        %EJECT;
PL6.E3A0      #001=ASL$LIST File=ASL$LIST.:E05TSI                                TUE 07/29/97 09:59 Page:2
       23       23        /********************************************************************/
       24       24        /*   Include files   include files   include files   include files  */
       25       25        /********************************************************************/
       26       26        %INCLUDE AS_ENTRIES_M;
       27     1076        %INCLUDE AS_PERR_C;
       28     1678        %INCLUDE AS_SUPER_C;
       29     2113        %INCLUDE AS_SUBS_C;
       30     3527        %INCLUDE AS_MAC_C;
       31     3607        %INCLUDE CP_6;
       32     3688        %INCLUDE CP_6_SUBS;
       33     4228        %INCLUDE KL_SUPER_C;
       34     7130        %INCLUDE XU_MACRO_C;
       35    10236        %INCLUDE XU_FORMAT_C;
       36    10398        %INCLUDE AS_SUPER_R;
       37    13414        /********************************************************************/
       38    13415        /*   Parameters      parameters      parameters      parameters     */
       39    13416        /********************************************************************/
       40    13417    1   DCL DISP_CODE UBIN;
       41    13418        /********************************************************************/
       42    13419        /*   Entry dcls      entry dcls      entry dcls      entry dcls     */
       43    13420        /********************************************************************/
       44    13421        %ASB$GETSEG ;
       45    13424        %ASH$ERROR ;
       46    13427        %ASL$LIST_ALL_CHARSETS;
       47    13430        %ASL$LIST_ALL_LINES;
       48    13433        %ASL$LIST_ALL_PROFILES;
       49    13436        %ASL$LIST_ALL_STATIONS;
       50    13439        %ASL$LIST_ALL_WORKSTATIONS;
       51    13442        %ASL$LIST_ALL_DEVICES;
       52    13445        %ASL$LIST_ALL_TERMINALS;
       53    13448        %ASL$LIST_ALL_CONSOLES;
       54    13451        %ASL$LIST_ALL_CONTROLLERS;
       55    13454        %ASL$LIST_ALL_LINE_DEVICES;
       56    13457        %ASL$LIST_ALL_LINKS;
       57    13460        %ASL$LIST_ALL_VIRCIRS;
       58    13463        %ASL$LIST_ALL_LINKDEVS;
       59    13466        %ASL$LIST_ALL_PROJECTS;
PL6.E3A0      #001=ASL$LIST File=ASL$LIST.:E05TSI                                TUE 07/29/97 09:59 Page:3
       60    13469        %ASL$LIST_ALL_USERS;
       61    13472        %ASL$LIST_ALL_FORMSETS;
       62    13475    1   DCL X$PARSE ENTRY(1) ALTRET;
       63    13476        /********************************************************************/
       64    13477        /*   Local based     local based     local based     local based    */
       65    13478        /********************************************************************/
       66    13479        %PARSE$OUT( NAME=P$B, STCLASS="BASED(NODE$)",
       67    13480                    NDTYPE=TYPE, NSUBLKS=NSUBLKS);
       68    13525        /********************************************************************/
       69    13526        /*   Auto data       auto data       auto data       auto data      */
       70    13527        /********************************************************************/
       71    13528    1   DCL DISP BIT(1);
       72    13529    1   DCL ALL BIT (1) ;
       73    13530    1   DCL LIST_CODE SBIN;
       74    13531        %EJECT;
PL6.E3A0      #001=ASL$LIST File=ASL$LIST.:E05TSI                                TUE 07/29/97 09:59 Page:4
       75    13532        /********************************************************************/
       76    13533        /*   Procedure       procedure       procedure       procedure      */
       77    13534        /********************************************************************/
       78    13535    1   ASA_BRKS_LOC=REMEM_VAR;           /* List will have
       79    13536                                                      break control */
       80    13537    1   FDS.BUF_.BOUND = LO_WIDTH - 1;
       81    13538    2   IF DISP_CODE = %DISPLAY_CMD_VAL THEN DO;  /*  A display command  */
       82    13539    2      P_PCB.ROOT$ = ADDR(DISPLAY_CMD);
       83    13540    2      DISP = %YES#;
       84    13541    2      END; /*  A display command  */
       85    13542    2   ELSE DO;  /*  Not a display command  */
       86    13543    2      P_PCB.ROOT$ = ADDR(LIST_CMD);
       87    13544    2      DISP = %NO#;
       88    13545    2      END; /*  Not a display command  */
       89    13546    1   CALL X$PARSE(P_PCB)
       90    13547    2   WHENALTRETURN DO;
       91    13548    2      MERR_CODE = P_PCB.ERROR;
       92    13549    2      MERR_CODE.SEV = 0;
       93    13550    2      CALL ASH$ERROR(MERR_CODE);
       94    13551    2      RETURN;
       95    13552    2      END; /*  Whenaltreturn from X$PARSE  */
       96    13553    1   CODE = P_PCB.OUT$->P$B.SUBLK$(0)->P$B.CODE;
       97    13554
       98    13555    2   DO SELECT( CODE );
       99    13556
      100    13557    2      SELECT ( %LIST_USER_VAL, %LIST_PROJECT_VAL,
      101    13558    2           %DISPLAY_USER_VAL, %DISPLAY_PROJECT_VAL,
      102    13559    2           %LIST_ALL_VAL, %DISPLAY_ALL_VAL );
      103    13560
      104    13561    3      IF NOT SUPERAUTH AND NOT PADMIN AND NOT SUPERD THEN DO;
      105    13562        /*E*  ERROR:  ASL-E$CANT_LIST_USER_PROJ-C
      106    13563              MESSAGE: You do not have SUPERAUTH, PADMIN, or SUPERD pprivilege.
      107    13564        */
      108    13565              %SCREAM( ERR#=E$CANT_LIST_USER_PROJ, LEVEL=ERROR, MID='L' );
      109    13580    3         RETURN;
      110    13581    3         END;
      111    13582
PL6.E3A0      #001=ASL$LIST File=ASL$LIST.:E05TSI                                TUE 07/29/97 09:59 Page:5
      112    13583    2      SELECT ( %LIST_FORM_VAL, %LIST_CHARSET_VAL,
      113    13584    2           %DISPLAY_FORM_VAL, %DISPLAY_CHARSET_VAL );
      114    13585
      115    13586    3      IF NOT SUPERFORM AND NOT SUPERD THEN DO;
      116    13587        /*E*  ERROR:  ASL-E$CANT_LIST_FORM-C
      117    13588              MESSAGE: You do not have SUPERFORM or SUPERD pprivilege.
      118    13589        */
      119    13590              %SCREAM( ERR#=E$CANT_LIST_FORM, LEVEL=ERROR, MID='L' );
      120    13605    3         RETURN;
      121    13606    3         END;
      122    13607
      123    13608    2      SELECT( ELSE );
      124    13609
      125    13610    3   IF NOT SUPERWSN AND NOT SUPERD THEN DO;
      126    13611        /*E*  ERROR:  ASL-E$CANT_LIST_WSN-C
      127    13612              MESSAGE: You do not have SUPERWSN or SUPERD pprivilege.
      128    13613        */
      129    13614           %SCREAM( ERR#=E$CANT_LIST_WSN, LEVEL=ERROR, MID='L' );
      130    13629    3      RETURN;
      131    13630    3      END;
      132    13631    2      END;
      133    13632
      134    13633    1   IF NOT DSEG_FLG THEN
      135    13634    1      CALL ASB$GETSEG
      136    13635    2      WHENALTRETURN DO;
      137    13636              %SCREAM (ERR#=%E$GETSEGERR, LEVEL=ERROR, MID='L');
      138    13651    2         RETURN;
      139    13652    2         END;  /*  Whenaltreturn from ASB$GETSEG  */
      140    13653
      141    13654    2   DO SELECT( CODE );
      142    13655
      143    13656        %EJECT;
PL6.E3A0      #001=ASL$LIST File=ASL$LIST.:E05TSI                                TUE 07/29/97 09:59 Page:6
      144    13657    2      SELECT (%LIST_ALL_VAL, %DISPLAY_ALL_VAL );
      145    13658
      146    13659    2      ALL = %YES#;
      147    13660    2      IF P_PCB.OUT$->P$B.SUBLK$(0)->P$B.NSUBLKS > 0 AND
      148    13661    2           P_PCB.OUT$->P$B.SUBLK$(0)->P$B.SUBLK$(0)->P$B.CODE ~= %JCL_VAL THEN
      149    13662    3      DO; /*  If object in command  */
      150    13663    3         CODE = P_PCB.OUT$->P$B.SUBLK$(0)->P$B.SUBLK$(0)->P$B.CODE;
      151    13664
      152    13665    4         DO SELECT (CODE);
      153    13666
      154    13667    4            SELECT (%CHARSET_OBJ_VAL);
      155    13668
      156    13669    4            CALL ASL$LIST_ALL_CHARSETS ;
      157    13670
      158    13671    4            SELECT (%PROFILE_OBJ_VAL);
      159    13672
      160    13673    4            CALL ASL$LIST_ALL_PROFILES ;
      161    13674
      162    13675    4            SELECT (%FORM_OBJ_VAL);
      163    13676
      164    13677    4            CALL ASL$LIST_ALL_FORMSETS ;
      165    13678
      166    13679    4            SELECT (%FORMSET_OBJ_VAL);
      167    13680
      168    13681    4            CALL ASL$LIST_ALL_FORMSETS ;
      169    13682
      170    13683    4            SELECT (%PROJECT_OBJ_VAL);
      171    13684
      172    13685    4            CALL ASL$LIST_ALL_PROJECTS ;
      173    13686
      174    13687    4            SELECT (%USER_OBJ_VAL);
      175    13688
      176    13689    4            CALL ASL$LIST_ALL_USERS ;
      177    13690
      178    13691    4            SELECT (%LINE_OBJ_VAL);
      179    13692
      180    13693    4            CALL ASL$LIST_ALL_LINES ;
PL6.E3A0      #001=ASL$LIST File=ASL$LIST.:E05TSI                                TUE 07/29/97 09:59 Page:7
      181    13694
      182    13695    4            SELECT (%STATION_OBJ_VAL);
      183    13696
      184    13697    4            CALL ASL$LIST_ALL_STATIONS ;
      185    13698
      186    13699    4            SELECT (%TERMINAL_OBJ_VAL);
      187    13700
      188    13701    4            CALL ASL$LIST_ALL_TERMINALS ;
      189    13702
      190    13703    4            SELECT (%LINK_OBJ_VAL);
      191    13704
      192    13705    4            CALL ASL$LIST_ALL_LINKS ;
      193    13706
      194    13707    4            SELECT (%CONTROLLER_OBJ_VAL);
      195    13708
      196    13709    4            CALL ASL$LIST_ALL_CONTROLLERS ;
      197    13710
      198    13711    4            SELECT (%DEVICE_OBJ_VAL);
      199    13712
      200    13713    4            CALL ASL$LIST_ALL_DEVICES ;
      201    13714
      202    13715    4            SELECT (%CONSOLE_OBJ_VAL);
      203    13716
      204    13717    4            CALL ASL$LIST_ALL_CONSOLES ;
      205    13718
      206    13719    4            SELECT (%VIRCIR_OBJ_VAL);
      207    13720
      208    13721    4            CALL ASL$LIST_ALL_VIRCIRS ;
      209    13722
      210    13723    4            SELECT (%WSN_OBJ_VAL);
      211    13724
      212    13725    4            CALL ASL$LIST_ALL_WORKSTATIONS ;
      213    13726
      214    13727    4            END; /*  Do case  */
      215    13728    3         END; /*  If object in command  */
      216    13729        %EJECT;
PL6.E3A0      #001=ASL$LIST File=ASL$LIST.:E05TSI                                TUE 07/29/97 09:59 Page:8
      217    13730    3      ELSE DO;
      218    13731
      219    13732    3         CALL ASL$LIST_ALL_CHARSETS ;
      220    13733
      221    13734    3         CALL ASL$LIST_ALL_PROFILES ;
      222    13735
      223    13736    3         CALL ASL$LIST_ALL_FORMSETS ;
      224    13737
      225    13738    3         CALL ASL$LIST_ALL_PROJECTS ;
      226    13739
      227    13740    3         CALL ASL$LIST_ALL_USERS ;
      228    13741
      229    13742    3         CALL ASL$LIST_ALL_LINES ;
      230    13743    3         CALL ASL$LIST_ALL_CONTROLLERS;
      231    13744    3         CALL ASL$LIST_ALL_LINE_DEVICES;
      232    13745
      233    13746    3         CALL ASL$LIST_ALL_STATIONS ;
      234    13747
      235    13748    3         CALL ASL$LIST_ALL_TERMINALS ;
      236    13749
      237    13750    3         CALL ASL$LIST_ALL_LINKS ;
      238    13751    3         CALL ASL$LIST_ALL_VIRCIRS ;
      239    13752    3         CALL ASL$LIST_ALL_LINKDEVS;
      240    13753
      241    13754    3         CALL ASL$LIST_ALL_DEVICES ;
      242    13755
      243    13756    3         CALL ASL$LIST_ALL_CONSOLES ;
      244    13757
      245    13758    3         CALL ASL$LIST_ALL_WORKSTATIONS ;
      246    13759
      247    13760    3         END; /*  Else  */
      248    13761        %EJECT;
PL6.E3A0      #001=ASL$LIST File=ASL$LIST.:E05TSI                                TUE 07/29/97 09:59 Page:9
      249    13762
      250    13763    2      SELECT ( %LIST_USER_VAL,
      251    13764    2           %DISPLAY_USER_VAL );
      252    13765
      253    13766    2      CALL ASL$LIST_ALL_USERS;
      254    13767
      255    13768    2      SELECT ( %LIST_PROJECT_VAL,
      256    13769    2           %DISPLAY_PROJECT_VAL );
      257    13770
      258    13771    2      CALL ASL$LIST_ALL_PROJECTS;
      259    13772
      260    13773    2      SELECT ( %LIST_TERM_VAL,
      261    13774    2           %DISPLAY_TERM_VAL );
      262    13775
      263    13776    2      CALL ASL$LIST_ALL_TERMINALS;
      264    13777
      265    13778    2      SELECT ( %LIST_STATION_VAL,
      266    13779    2           %DISPLAY_STATION_VAL );
      267    13780
      268    13781    2      CALL ASL$LIST_ALL_STATIONS ;
      269    13782
      270    13783    2      SELECT ( %LIST_WSN_VAL,
      271    13784    2           %DISPLAY_WSN_VAL );
      272    13785
      273    13786    2      CALL ASL$LIST_ALL_WORKSTATIONS;
      274    13787
      275    13788    2      SELECT ( %LIST_FORM_VAL,
      276    13789    2           %DISPLAY_FORM_VAL,
      277    13790    2           %LIST_FORMSET_VAL,
      278    13791    2           %DISPLAY_FORMSET_VAL );
      279    13792
      280    13793    2      CALL ASL$LIST_ALL_FORMSETS;
      281    13794
      282    13795    2      SELECT ( %LIST_CHARSET_VAL,
      283    13796    2           %DISPLAY_CHARSET_VAL );
      284    13797
      285    13798    2      CALL ASL$LIST_ALL_CHARSETS;
PL6.E3A0      #001=ASL$LIST File=ASL$LIST.:E05TSI                                TUE 07/29/97 09:59 Page:10
      286    13799
      287    13800    2      SELECT ( %DISPLAY_PROFILE_VAL,
      288    13801    2           %LIST_PROFILE_VAL );
      289    13802
      290    13803    2      CALL ASL$LIST_ALL_PROFILES;
      291    13804
      292    13805    2      SELECT ( %LIST_DEVICE_VAL,
      293    13806    2           %DISPLAY_DEVICE_VAL );
      294    13807
      295    13808    2      LIST_CODE = 0;
      296    13809    2      IF P_PCB.OUT$->P$B.NSUBLKS > 1 THEN
      297    13810    2         LIST_CODE = P_PCB.OUT$->P$B.SUBLK$(1)->P$B.CODE;
      298    13811    2      IF LIST_CODE = %DEVICE_NAME_WILD_VAL THEN
      299    13812    2         IF P_PCB.OUT$->P$B.NSUBLKS > 2 THEN
      300    13813    2            LIST_CODE = P_PCB.OUT$->P$B.SUBLK$(2)->P$B.CODE;
      301    13814
      302    13815    3      DO SELECT (LIST_CODE);
      303    13816
      304    13817    3         SELECT ( ELSE );
      305    13818
      306    13819    3      CALL ASL$LIST_ALL_DEVICES ;
      307    13820
      308    13821    3      SELECT ( %LINE_NAME_WILD_VAL );
      309    13822
      310    13823    3      CALL ASL$LIST_ALL_LINE_DEVICES ;
      311    13824
      312    13825    3      SELECT ( %LINK_NAME_WILD_VAL );
      313    13826
      314    13827    3      CALL ASL$LIST_ALL_LINKDEVS ;
      315    13828
      316    13829    3         END; /*  Do case (LIST_CODE)  */
      317    13830
      318    13831    2   SELECT ( %LIST_TPDEV_VAL,
      319    13832    2        %DISPLAY_TPDEV_VAL );
      320    13833
      321    13834    2   CALL ASL$LIST_ALL_DEVICES ;
      322    13835
PL6.E3A0      #001=ASL$LIST File=ASL$LIST.:E05TSI                                TUE 07/29/97 09:59 Page:11
      323    13836    2   SELECT ( %LIST_CONS_VAL,
      324    13837    2        %DISPLAY_CONS_VAL );
      325    13838
      326    13839    2   CALL ASL$LIST_ALL_CONSOLES;
      327    13840
      328    13841    2   SELECT ( %LIST_VIRCIR_VAL,
      329    13842    2        %DISPLAY_VIRCIR_VAL );
      330    13843
      331    13844    2   CALL ASL$LIST_ALL_VIRCIRS ;
      332    13845
      333    13846    2   SELECT ( %LIST_LINE_VAL,
      334    13847    2        %DISPLAY_LINE_VAL );
      335    13848
      336    13849    2   CALL ASL$LIST_ALL_LINES ;
      337    13850
      338    13851    2   SELECT ( %LIST_CONT_VAL,
      339    13852    2        %DISPLAY_CONT_VAL );
      340    13853
      341    13854    2   CALL ASL$LIST_ALL_CONTROLLERS ;
      342    13855
      343    13856    2   SELECT ( %LIST_LINK_VAL,
      344    13857    2        %DISPLAY_LINK_VAL );
      345    13858
      346    13859    2   CALL ASL$LIST_ALL_LINKS ;
      347    13860
      348    13861    2      END; /*  Do case (code)  */
      349    13862    1   RETURN;
      350    13863        %EJECT;
PL6.E3A0      #001=ASL$LIST File=ASL$LIST.:E05TSI                                TUE 07/29/97 09:59 Page:12
      351    13864    1   END ASL$LIST;

PL6.E3A0      #001=ASL$LIST File=ASL$LIST.:E05TSI                                TUE 07/29/97 09:59 Page:13
--  Include file information  --

   AS_SUPER_R.:E05TOU  cannot be made into a system file and is referenced.
   XU_FORMAT_C.:E05TOU  is referenced.
   XU_MACRO_C.:E05TOU  is referenced.
   KL_SUPER_C.:E05TOU  is referenced.
   CP_6_SUBS.:E05TOU  is referenced.
   CP_6.:E05TOU  cannot be made into a system file and is referenced.
   AS_MAC_C.:E05TOU  cannot be made into a system file and is referenced.
   AS_SUBS_C.:E05TOU  is referenced.
   AS_SUPER_C.:E05TOU  is referenced.
   AS_PERR_C.:E05TOU  is referenced.
   AS_ENTRIES_M.:E05TOU  is referenced.
   B$JIT_C.:E05TOU  was found in the system file and is never referenced.
   CP_6_C.:E05TOU  was found in the system file and is referenced.
      No diagnostics issued in procedure ASL$LIST.

   Procedure ASL$LIST requires 484 words for executable code.
   Procedure ASL$LIST requires 8 words of local(AUTO) storage.

    No errors detected in file ASL$LIST.:E05TSI    .

PL6.E3A0      #001=ASL$LIST File=ASL$LIST.:E05TSI                                TUE 07/29/97 09:59 Page:14

 Object Unit name= ASL$LIST                                   File name= ASL$LIST.:E05TOU
 UTS= JUL 29 '97 09:59:42.36 TUE                              Compiler= PL-6/E31         Sev=      00
 SharedLib= :SHARED_SYSTEM                                    Alt SharedLib=


    ****  Control sections  ****

 Sect   Type Bound  Init  Size OctSiz  Section name(segment info)
    0   DCB   even  none     0      0  M$UC
    1   DCB   even  none     0      0  M$LO
    2  RoData even  UTS      4      4  ASL$LIST
    3   Proc  even  none   484    744  ASL$LIST
    4  RoData even  none     9     11  ASL$LIST

    ****  Entry defs  ****

                              Check   Calling
                             calling  sequence
  Sect OctLoc Primary Altret sequence   type   Parms  Name
     3      0   yes            yes      Std        1  ASL$LIST
PL6.E3A0      #001=ASL$LIST File=ASL$LIST.:E05TSI                                TUE 07/29/97 09:59 Page:15

  ****  Entry refs  ****

         Check        Calling
        calling       sequence
Altret sequence SRef   type   Args  Name
         yes          ~proc      0 XU_OUTPUT_OPTIONS
         yes           Std       0 ASL$LIST_ALL_USERS
         yes           Std       0 ASL$LIST_ALL_STATIONS
         yes           Std       0 ASL$LIST_ALL_CONTROLLERS
         yes           Std       0 ASL$LIST_ALL_VIRCIRS
 yes     yes           Std       1 X$PARSE
         yes           Std       2 ASH$ERROR
         yes           Std       0 ASL$LIST_ALL_CHARSETS
         yes           Std       0 ASL$LIST_ALL_PROFILES
         yes           Std       0 ASL$LIST_ALL_LINE_DEVICES
         yes           Std       0 ASL$LIST_ALL_DEVICES
         yes           Std       0 ASL$LIST_ALL_FORMSETS
         yes           Std       0 ASL$LIST_ALL_LINES
         yes           Std       0 ASL$LIST_ALL_PROJECTS
         yes           Std       0 ASL$LIST_ALL_LINKDEVS
 yes     yes           Std       0 ASB$GETSEG
         yes           Std       0 ASL$LIST_ALL_LINKS
         yes           Std       0 ASL$LIST_ALL_CONSOLES
         yes           Std       0 ASL$LIST_ALL_WORKSTATIONS
         yes           Std       0 ASL$LIST_ALL_TERMINALS
                       nStd      0 X66_AUTO_1
                       Std       0 B_CONSPOOL_D
                       nStd      0 X66_ARET
PL6.E3A0      #001=ASL$LIST File=ASL$LIST.:E05TSI                                TUE 07/29/97 09:59 Page:16

  ****  Data refs  ****

  Flags:  r = read only, s = secondary
Flgs Name                             Flgs Name                             Flgs Name
     M$UC                                  LIST_CMD                              DISPLAY_CMD
r    AS_MODE                          r    AS_FE_MODE                            M$LO
     LO_WIDTH                              FDS                                   NODE$
     CODE                                  SUPERAUTH                             SUPERWSN
     SUPERFORM                             SUPERD                                PADMIN
     ERR_CODE                              REMEM_VAR                             REM_FCMD
     ASA_BRKS_LOC                          DSEG_FLG                              P_PCB
     B_VECTNIL

  ****  Segment refs  ****

  Flags:  r = read only, s = secondary
Flgs Name                             Flgs Name                             Flgs Name
     ISSID
PL6.E3A0      #001=ASL$LIST File=ASL$LIST.:E05TSI                                TUE 07/29/97 09:59 Page:17


        1        1        /*M* ASL$LIST:   EXTERNAL ROUTINE TO HANDLE LIST OPTION.    */
        2        2        /*T***********************************************************/
        3        3        /*T*                                                         */
        4        4        /*T* Copyright (c) Bull HN Information Systems Inc., 1997    */
        5        5        /*T*                                                         */
        6        6        /*T***********************************************************/
        7        7        /*X*  DMC,DMR,CCC,PLM=0,IND=3,CTI=5,DCI=6,IAD=0,DTI=0,IDT=0,ENI=3,
        8        8              ECU=3,CSU=3,SDI=3                                           */
        9        9        ASL$LIST: PROC (DISP_CODE);

      9  3 000000   000000 700200 xent  ASL$LIST     TSX0  ! X66_AUTO_1
         3 000001   000010 000001                    ZERO    8,1

       10       10        /**********************************************************/
       11       11
       12       12        /*D* NAME:     ASL$LIST
       13       13             CALL:     CALL ASL$LIST
       14       14             INPUT:    DISP_CODE - ubin word - the node number.
       15       15             OUTPUT:   Nothing is returned.
       16       16             DESCRIPTION:  ASL$LIST is a subroutine to handle
       17       17                           the LIST/DISPLAY command for SUPER.
       18       18                           ASL$LIST will parse the LIST/DISPLAY command
       19       19                           and then call the appropriate object routines,
       20       20                           based on the parse nodes.
       21       21        */
       22       22        %EJECT;
PL6.E3A0      #001=ASL$LIST File=ASL$LIST.:E05TSI                                TUE 07/29/97 09:59 Page:18
       23       23        /********************************************************************/
       24       24        /*   Include files   include files   include files   include files  */
       25       25        /********************************************************************/
       26       26        %INCLUDE AS_ENTRIES_M;
       27     1076        %INCLUDE AS_PERR_C;
       28     1678        %INCLUDE AS_SUPER_C;
       29     2113        %INCLUDE AS_SUBS_C;
       30     3527        %INCLUDE AS_MAC_C;
       31     3607        %INCLUDE CP_6;
       32     3688        %INCLUDE CP_6_SUBS;
       33     4228        %INCLUDE KL_SUPER_C;
       34     7130        %INCLUDE XU_MACRO_C;
       35    10236        %INCLUDE XU_FORMAT_C;
       36    10398        %INCLUDE AS_SUPER_R;
       37    13414        /********************************************************************/
       38    13415        /*   Parameters      parameters      parameters      parameters     */
       39    13416        /********************************************************************/
       40    13417    1   DCL DISP_CODE UBIN;
       41    13418        /********************************************************************/
       42    13419        /*   Entry dcls      entry dcls      entry dcls      entry dcls     */
       43    13420        /********************************************************************/
       44    13421        %ASB$GETSEG ;
       45    13424        %ASH$ERROR ;
       46    13427        %ASL$LIST_ALL_CHARSETS;
       47    13430        %ASL$LIST_ALL_LINES;
       48    13433        %ASL$LIST_ALL_PROFILES;
       49    13436        %ASL$LIST_ALL_STATIONS;
       50    13439        %ASL$LIST_ALL_WORKSTATIONS;
       51    13442        %ASL$LIST_ALL_DEVICES;
       52    13445        %ASL$LIST_ALL_TERMINALS;
       53    13448        %ASL$LIST_ALL_CONSOLES;
       54    13451        %ASL$LIST_ALL_CONTROLLERS;
       55    13454        %ASL$LIST_ALL_LINE_DEVICES;
       56    13457        %ASL$LIST_ALL_LINKS;
       57    13460        %ASL$LIST_ALL_VIRCIRS;
       58    13463        %ASL$LIST_ALL_LINKDEVS;
       59    13466        %ASL$LIST_ALL_PROJECTS;
PL6.E3A0      #001=ASL$LIST File=ASL$LIST.:E05TSI                                TUE 07/29/97 09:59 Page:19
       60    13469        %ASL$LIST_ALL_USERS;
       61    13472        %ASL$LIST_ALL_FORMSETS;
       62    13475    1   DCL X$PARSE ENTRY(1) ALTRET;
       63    13476        /********************************************************************/
       64    13477        /*   Local based     local based     local based     local based    */
       65    13478        /********************************************************************/
       66    13479        %PARSE$OUT( NAME=P$B, STCLASS="BASED(NODE$)",
       67    13480                    NDTYPE=TYPE, NSUBLKS=NSUBLKS);
       68    13525        /********************************************************************/
       69    13526        /*   Auto data       auto data       auto data       auto data      */
       70    13527        /********************************************************************/
       71    13528    1   DCL DISP BIT(1);
       72    13529    1   DCL ALL BIT (1) ;
       73    13530    1   DCL LIST_CODE SBIN;
       74    13531        %EJECT;
PL6.E3A0      #001=ASL$LIST File=ASL$LIST.:E05TSI                                TUE 07/29/97 09:59 Page:20
       75    13532        /********************************************************************/
       76    13533        /*   Procedure       procedure       procedure       procedure      */
       77    13534        /********************************************************************/
       78    13535    1   ASA_BRKS_LOC=REMEM_VAR;           /* List will have

  13535  3 000002   000000 237000 xsym               LDAQ    REMEM_VAR
         3 000003   000000 757000 xsym               STAQ    ASA_BRKS_LOC

       79    13536                                                      break control */
       80    13537    1   FDS.BUF_.BOUND = LO_WIDTH - 1;

  13537  3 000004   000000 236000 xsym               LDQ     LO_WIDTH
         3 000005   000001 136007                    SBLQ    1,DL
         3 000006   000020 736000                    QLS     16
         3 000007   000005 676000 xsym               ERQ     FDS+5
         3 000010   000034 376000 xsym               ANQ     B_VECTNIL+28
         3 000011   000005 656000 xsym               ERSQ    FDS+5

       81    13538    2   IF DISP_CODE = %DISPLAY_CMD_VAL THEN DO;  /*  A display command  */

  13538  3 000012   200003 470500                    LDP0    @DISP_CODE,,AUTO
         3 000013   000000 235100                    LDA     0,,PR0
         3 000014   000121 115007                    CMPA    81,DL
         3 000015   000023 601000 3                  TNZ     s:13543

       82    13539    2      P_PCB.ROOT$ = ADDR(DISPLAY_CMD);

  13539  3 000016   000000 236000 4                  LDQ     0
         3 000017   000001 756000 xsym               STQ     P_PCB+1

       83    13540    2      DISP = %YES#;

  13540  3 000020   400000 236003                    LDQ     -131072,DU
         3 000021   200004 756100                    STQ     DISP,,AUTO

       84    13541    2      END; /*  A display command  */

PL6.E3A0      #001=ASL$LIST File=ASL$LIST.:E05TSI                                TUE 07/29/97 09:59 Page:21
  13541  3 000022   000026 710000 3                  TRA     s:13546

       85    13542    2   ELSE DO;  /*  Not a display command  */

       86    13543    2      P_PCB.ROOT$ = ADDR(LIST_CMD);

  13543  3 000023   000001 236000 4                  LDQ     1
         3 000024   000001 756000 xsym               STQ     P_PCB+1

       87    13544    2      DISP = %NO#;

  13544  3 000025   200004 450100                    STZ     DISP,,AUTO

       88    13545    2      END; /*  Not a display command  */

       89    13546    1   CALL X$PARSE(P_PCB)

  13546  3 000026   000002 630400 4                  EPPR0   2
         3 000027   000017 631400 xsym               EPPR1   B_VECTNIL+15
         3 000030   000000 701000 xent               TSX1    X$PARSE
         3 000031   000033 702000 3                  TSX2    s:13548
         3 000032   000044 710000 3                  TRA     s:13553

       90    13547    2   WHENALTRETURN DO;

       91    13548    2      MERR_CODE = P_PCB.ERROR;

  13548  3 000033   000006 236000 xsym               LDQ     P_PCB+6
         3 000034   000000 756000 xsym               STQ     ERR_CODE

       92    13549    2      MERR_CODE.SEV = 0;

  13549  3 000035   000003 236000 4                  LDQ     3
         3 000036   000000 356000 xsym               ANSQ    ERR_CODE

       93    13550    2      CALL ASH$ERROR(MERR_CODE);

PL6.E3A0      #001=ASL$LIST File=ASL$LIST.:E05TSI                                TUE 07/29/97 09:59 Page:22
  13550  3 000037   000004 630400 4                  EPPR0   4
         3 000040   000017 631400 xsym               EPPR1   B_VECTNIL+15
         3 000041   000000 701000 xent               TSX1    ASH$ERROR
         3 000042   000000 011000                    NOP     0

       94    13551    2      RETURN;

  13551  3 000043   000000 702200 xent               TSX2  ! X66_ARET

       95    13552    2      END; /*  Whenaltreturn from X$PARSE  */
       96    13553    1   CODE = P_PCB.OUT$->P$B.SUBLK$(0)->P$B.CODE;

  13553  3 000044   000003 470400 xsym               LDP0    P_PCB+3
         3 000045   000003 471500                    LDP1    3,,PR0
         3 000046   100000 236100                    LDQ     0,,PR1
         3 000047   777777 376007                    ANQ     -1,DL
         3 000050   000000 756000 xsym               STQ     CODE

       97    13554
       98    13555    2   DO SELECT( CODE );

  13555  3 000051   000022 116007                    CMPQ    18,DL
         3 000052   000074 602000 3                  TNC     s:13555+19
         3 000053   000111 600000 3                  TZE     s:13561
         3 000054   000133 116007                    CMPQ    91,DL
         3 000055   000065 602000 3                  TNC     s:13555+12
         3 000056   000111 600000 3                  TZE     s:13561
         3 000057   000141 116007                    CMPQ    97,DL
         3 000060   000135 602000 3                  TNC     s:13610
         3 000061   000111 600000 3                  TZE     s:13561
         3 000062   000144 116007                    CMPQ    100,DL
         3 000063   000135 601000 3                  TNZ     s:13610
         3 000064   000111 710000 3                  TRA     s:13561
         3 000065   000126 116007                    CMPQ    86,DL
         3 000066   000071 602000 3                  TNC     s:13555+16
         3 000067   000124 600000 3                  TZE     s:13586
         3 000070   000135 710000 3                  TRA     s:13610
PL6.E3A0      #001=ASL$LIST File=ASL$LIST.:E05TSI                                TUE 07/29/97 09:59 Page:23
         3 000071   000122 116007                    CMPQ    82,DL
         3 000072   000135 601000 3                  TNZ     s:13610
         3 000073   000124 710000 3                  TRA     s:13586
         3 000074   000010 116007                    CMPQ    8,DL
         3 000075   000102 602000 3                  TNC     s:13555+25
         3 000076   000111 600000 3                  TZE     s:13561
         3 000077   000021 116007                    CMPQ    17,DL
         3 000100   000135 601000 3                  TNZ     s:13610
         3 000101   000124 710000 3                  TRA     s:13586
         3 000102   000007 116007                    CMPQ    7,DL
         3 000103   000106 602000 3                  TNC     s:13555+29
         3 000104   000111 600000 3                  TZE     s:13561
         3 000105   000135 710000 3                  TRA     s:13610
         3 000106   000004 116007                    CMPQ    4,DL
         3 000107   000135 601000 3                  TNZ     s:13610
         3 000110   000124 710000 3                  TRA     s:13586

       99    13556
      100    13557    2      SELECT ( %LIST_USER_VAL, %LIST_PROJECT_VAL,

      101    13558    2           %DISPLAY_USER_VAL, %DISPLAY_PROJECT_VAL,
      102    13559    2           %LIST_ALL_VAL, %DISPLAY_ALL_VAL );
      103    13560
      104    13561    3      IF NOT SUPERAUTH AND NOT PADMIN AND NOT SUPERD THEN DO;

  13561  3 000111   000000 234000 xsym               SZN     SUPERAUTH
         3 000112   000146 604000 3                  TMI     s:13633
         3 000113   000000 234000 xsym               SZN     PADMIN
         3 000114   000146 604000 3                  TMI     s:13633
         3 000115   000000 234000 xsym               SZN     SUPERD
         3 000116   000146 604000 3                  TMI     s:13633

      105    13562        /*E*  ERROR:  ASL-E$CANT_LIST_USER_PROJ-C
      106    13563              MESSAGE: You do not have SUPERAUTH, PADMIN, or SUPERD pprivilege.
      107    13564        */
      108    13565              %SCREAM( ERR#=E$CANT_LIST_USER_PROJ, LEVEL=ERROR, MID='L' );

PL6.E3A0      #001=ASL$LIST File=ASL$LIST.:E05TSI                                TUE 07/29/97 09:59 Page:24
  13577  3 000117   000005 630400 4                  EPPR0   5
         3 000120   000017 631400 xsym               EPPR1   B_VECTNIL+15
         3 000121   000000 701000 xent               TSX1    ASH$ERROR
         3 000122   000000 011000                    NOP     0

      109    13580    3         RETURN;

  13580  3 000123   000000 702200 xent               TSX2  ! X66_ARET

      110    13581    3         END;
      111    13582
      112    13583    2      SELECT ( %LIST_FORM_VAL, %LIST_CHARSET_VAL,

      113    13584    2           %DISPLAY_FORM_VAL, %DISPLAY_CHARSET_VAL );
      114    13585
      115    13586    3      IF NOT SUPERFORM AND NOT SUPERD THEN DO;

  13586  3 000124   000000 234000 xsym               SZN     SUPERFORM
         3 000125   000146 604000 3                  TMI     s:13633
         3 000126   000000 234000 xsym               SZN     SUPERD
         3 000127   000146 604000 3                  TMI     s:13633

      116    13587        /*E*  ERROR:  ASL-E$CANT_LIST_FORM-C
      117    13588              MESSAGE: You do not have SUPERFORM or SUPERD pprivilege.
      118    13589        */
      119    13590              %SCREAM( ERR#=E$CANT_LIST_FORM, LEVEL=ERROR, MID='L' );

  13602  3 000130   000006 630400 4                  EPPR0   6
         3 000131   000017 631400 xsym               EPPR1   B_VECTNIL+15
         3 000132   000000 701000 xent               TSX1    ASH$ERROR
         3 000133   000000 011000                    NOP     0

      120    13605    3         RETURN;

  13605  3 000134   000000 702200 xent               TSX2  ! X66_ARET

      121    13606    3         END;
PL6.E3A0      #001=ASL$LIST File=ASL$LIST.:E05TSI                                TUE 07/29/97 09:59 Page:25
      122    13607
      123    13608    2      SELECT( ELSE );

      124    13609
      125    13610    3   IF NOT SUPERWSN AND NOT SUPERD THEN DO;

  13610  3 000135   000000 234000 xsym               SZN     SUPERWSN
         3 000136   000146 604000 3                  TMI     s:13633
         3 000137   000000 234000 xsym               SZN     SUPERD
         3 000140   000146 604000 3                  TMI     s:13633

      126    13611        /*E*  ERROR:  ASL-E$CANT_LIST_WSN-C
      127    13612              MESSAGE: You do not have SUPERWSN or SUPERD pprivilege.
      128    13613        */
      129    13614           %SCREAM( ERR#=E$CANT_LIST_WSN, LEVEL=ERROR, MID='L' );

  13626  3 000141   000007 630400 4                  EPPR0   7
         3 000142   000017 631400 xsym               EPPR1   B_VECTNIL+15
         3 000143   000000 701000 xent               TSX1    ASH$ERROR
         3 000144   000000 011000                    NOP     0

      130    13629    3      RETURN;

  13629  3 000145   000000 702200 xent               TSX2  ! X66_ARET

      131    13630    3      END;
      132    13631    2      END;

      133    13632
      134    13633    1   IF NOT DSEG_FLG THEN

  13633  3 000146   000000 234000 xsym               SZN     DSEG_FLG
         3 000147   000161 604000 3                  TMI     s:13654

      135    13634    1      CALL ASB$GETSEG

  13634  3 000150   000002 631400 xsym               EPPR1   B_VECTNIL+2
PL6.E3A0      #001=ASL$LIST File=ASL$LIST.:E05TSI                                TUE 07/29/97 09:59 Page:26
         3 000151   000000 701000 xent               TSX1    ASB$GETSEG
         3 000152   000154 702000 3                  TSX2    s:13648
         3 000153   000161 710000 3                  TRA     s:13654

      136    13635    2      WHENALTRETURN DO;

      137    13636              %SCREAM (ERR#=%E$GETSEGERR, LEVEL=ERROR, MID='L');

  13648  3 000154   000010 630400 4                  EPPR0   8
         3 000155   000017 631400 xsym               EPPR1   B_VECTNIL+15
         3 000156   000000 701000 xent               TSX1    ASH$ERROR
         3 000157   000000 011000                    NOP     0

      138    13651    2         RETURN;

  13651  3 000160   000000 702200 xent               TSX2  ! X66_ARET

      139    13652    2         END;  /*  Whenaltreturn from ASB$GETSEG  */
      140    13653
      141    13654    2   DO SELECT( CODE );

  13654  3 000161   000000 236000 xsym               LDQ     CODE
         3 000162   000022 116007                    CMPQ    18,DL
         3 000163   000261 602000 3                  TNC     s:13654+64
         3 000164   000331 600000 3                  TZE     s:13659
         3 000165   000137 116007                    CMPQ    95,DL
         3 000166   000212 602000 3                  TNC     s:13654+25
         3 000167   000617 600000 3                  TZE     s:13776
         3 000170   000143 116007                    CMPQ    99,DL
         3 000171   000201 602000 3                  TNC     s:13654+16
         3 000172   000627 600000 3                  TZE     s:13786
         3 000173   000144 116007                    CMPQ    100,DL
         3 000174   000743 602000 3                  TNC     s:13862
         3 000175   000331 600000 3                  TZE     s:13659
         3 000176   000145 116007                    CMPQ    101,DL
         3 000177   000743 601000 3                  TNZ     s:13862
         3 000200   000633 710000 3                  TRA     s:13793
PL6.E3A0      #001=ASL$LIST File=ASL$LIST.:E05TSI                                TUE 07/29/97 09:59 Page:27
         3 000201   000141 116007                    CMPQ    97,DL
         3 000202   000207 602000 3                  TNC     s:13654+22
         3 000203   000607 600000 3                  TZE     s:13766
         3 000204   000142 116007                    CMPQ    98,DL
         3 000205   000743 601000 3                  TNZ     s:13862
         3 000206   000724 710000 3                  TRA     s:13844
         3 000207   000140 116007                    CMPQ    96,DL
         3 000210   000743 601000 3                  TNZ     s:13862
         3 000211   000714 710000 3                  TRA     s:13834
         3 000212   000126 116007                    CMPQ    86,DL
         3 000213   000234 602000 3                  TNC     s:13654+43
         3 000214   000633 600000 3                  TZE     s:13793
         3 000215   000133 116007                    CMPQ    91,DL
         3 000216   000223 602000 3                  TNC     s:13654+34
         3 000217   000613 600000 3                  TZE     s:13771
         3 000220   000134 116007                    CMPQ    92,DL
         3 000221   000743 601000 3                  TNZ     s:13862
         3 000222   000623 710000 3                  TRA     s:13781
         3 000223   000131 116007                    CMPQ    89,DL
         3 000224   000231 602000 3                  TNC     s:13654+40
         3 000225   000740 600000 3                  TZE     s:13859
         3 000226   000132 116007                    CMPQ    90,DL
         3 000227   000743 601000 3                  TNZ     s:13862
         3 000230   000643 710000 3                  TRA     s:13803
         3 000231   000127 116007                    CMPQ    87,DL
         3 000232   000743 601000 3                  TNZ     s:13862
         3 000233   000730 710000 3                  TRA     s:13849
         3 000234   000122 116007                    CMPQ    82,DL
         3 000235   000250 602000 3                  TNC     s:13654+55
         3 000236   000637 600000 3                  TZE     s:13798
         3 000237   000124 116007                    CMPQ    84,DL
         3 000240   000245 602000 3                  TNC     s:13654+52
         3 000241   000734 600000 3                  TZE     s:13854
         3 000242   000125 116007                    CMPQ    85,DL
         3 000243   000743 601000 3                  TNZ     s:13862
         3 000244   000647 710000 3                  TRA     s:13808
         3 000245   000123 116007                    CMPQ    83,DL
PL6.E3A0      #001=ASL$LIST File=ASL$LIST.:E05TSI                                TUE 07/29/97 09:59 Page:28
         3 000246   000743 601000 3                  TNZ     s:13862
         3 000247   000720 710000 3                  TRA     s:13839
         3 000250   000025 116007                    CMPQ    21,DL
         3 000251   000256 602000 3                  TNC     s:13654+61
         3 000252   000623 600000 3                  TZE     s:13781
         3 000253   000040 116007                    CMPQ    32,DL
         3 000254   000743 601000 3                  TNZ     s:13862
         3 000255   000714 710000 3                  TRA     s:13834
         3 000256   000024 116007                    CMPQ    20,DL
         3 000257   000743 601000 3                  TNZ     s:13862
         3 000260   000633 710000 3                  TRA     s:13793
         3 000261   000007 116007                    CMPQ    7,DL
         3 000262   000312 602000 3                  TNC     s:13654+89
         3 000263   000607 600000 3                  TZE     s:13766
         3 000264   000015 116007                    CMPQ    13,DL
         3 000265   000276 602000 3                  TNC     s:13654+77
         3 000266   000720 600000 3                  TZE     s:13839
         3 000267   000021 116007                    CMPQ    17,DL
         3 000270   000273 602000 3                  TNC     s:13654+74
         3 000271   000637 600000 3                  TZE     s:13798
         3 000272   000743 710000 3                  TRA     s:13862
         3 000273   000020 116007                    CMPQ    16,DL
         3 000274   000743 601000 3                  TNZ     s:13862
         3 000275   000724 710000 3                  TRA     s:13844
         3 000276   000011 116007                    CMPQ    9,DL
         3 000277   000307 602000 3                  TNC     s:13654+86
         3 000300   000730 600000 3                  TZE     s:13849
         3 000301   000013 116007                    CMPQ    11,DL
         3 000302   000743 602000 3                  TNC     s:13862
         3 000303   000734 600000 3                  TZE     s:13854
         3 000304   000014 116007                    CMPQ    12,DL
         3 000305   000743 601000 3                  TNZ     s:13862
         3 000306   000740 710000 3                  TRA     s:13859
         3 000307   000010 116007                    CMPQ    8,DL
         3 000310   000743 601000 3                  TNZ     s:13862
         3 000311   000613 710000 3                  TRA     s:13771
         3 000312   000003 116007                    CMPQ    3,DL
PL6.E3A0      #001=ASL$LIST File=ASL$LIST.:E05TSI                                TUE 07/29/97 09:59 Page:29
         3 000313   000326 602000 3                  TNC     s:13654+101
         3 000314   000627 600000 3                  TZE     s:13786
         3 000315   000005 116007                    CMPQ    5,DL
         3 000316   000323 602000 3                  TNC     s:13654+98
         3 000317   000647 600000 3                  TZE     s:13808
         3 000320   000006 116007                    CMPQ    6,DL
         3 000321   000743 601000 3                  TNZ     s:13862
         3 000322   000643 710000 3                  TRA     s:13803
         3 000323   000004 116007                    CMPQ    4,DL
         3 000324   000743 601000 3                  TNZ     s:13862
         3 000325   000633 710000 3                  TRA     s:13793
         3 000326   000002 116007                    CMPQ    2,DL
         3 000327   000743 601000 3                  TNZ     s:13862
         3 000330   000617 710000 3                  TRA     s:13776

      142    13655
      143    13656        %EJECT;
PL6.E3A0      #001=ASL$LIST File=ASL$LIST.:E05TSI                                TUE 07/29/97 09:59 Page:30
      144    13657    2      SELECT (%LIST_ALL_VAL, %DISPLAY_ALL_VAL );

      145    13658
      146    13659    2      ALL = %YES#;

  13659  3 000331   400000 236003                    LDQ     -131072,DU
         3 000332   200005 756100                    STQ     ALL,,AUTO

      147    13660    2      IF P_PCB.OUT$->P$B.SUBLK$(0)->P$B.NSUBLKS > 0 AND

  13660  3 000333   000003 470400 xsym               LDP0    P_PCB+3
         3 000334   000003 471500                    LDP1    3,,PR0
         3 000335   100001 220100                    LDX0    1,,PR1
         3 000336   000526 600000 3                  TZE     s:13732
         3 000337   100003 473500                    LDP3    3,,PR1
         3 000340   300000 721100                    LXL1    0,,PR3
         3 000341   000001 101003                    CMPX1   1,DU
         3 000342   000526 600000 3                  TZE     s:13732

      148    13661    2           P_PCB.OUT$->P$B.SUBLK$(0)->P$B.SUBLK$(0)->P$B.CODE ~= %JCL_VAL THEN
      149    13662    3      DO; /*  If object in command  */

      150    13663    3         CODE = P_PCB.OUT$->P$B.SUBLK$(0)->P$B.SUBLK$(0)->P$B.CODE;

  13663  3 000343   300000 236100                    LDQ     0,,PR3
         3 000344   777777 376007                    ANQ     -1,DL
         3 000345   000000 756000 xsym               STQ     CODE

      151    13664
      152    13665    4         DO SELECT (CODE);

  13665  3 000346   000013 116007                    CMPQ    11,DL
         3 000347   000370 602000 3                  TNC     s:13665+18
         3 000350   000462 600000 3                  TZE     s:13693
         3 000351   000016 116007                    CMPQ    14,DL
         3 000352   000362 602000 3                  TNC     s:13665+12
         3 000353   000442 600000 3                  TZE     s:13677
PL6.E3A0      #001=ASL$LIST File=ASL$LIST.:E05TSI                                TUE 07/29/97 09:59 Page:31
         3 000354   000017 116007                    CMPQ    15,DL
         3 000355   000743 602000 3                  TNC     s:13862
         3 000356   000432 600000 3                  TZE     s:13669
         3 000357   000020 116007                    CMPQ    16,DL
         3 000360   000743 601000 3                  TNZ     s:13862
         3 000361   000446 710000 3                  TRA     s:13681
         3 000362   000014 116007                    CMPQ    12,DL
         3 000363   000743 602000 3                  TNC     s:13862
         3 000364   000476 600000 3                  TZE     s:13705
         3 000365   000015 116007                    CMPQ    13,DL
         3 000366   000743 601000 3                  TNZ     s:13862
         3 000367   000516 710000 3                  TRA     s:13721
         3 000370   000006 116007                    CMPQ    6,DL
         3 000371   000412 602000 3                  TNC     s:13665+36
         3 000372   000452 600000 3                  TZE     s:13685
         3 000373   000010 116007                    CMPQ    8,DL
         3 000374   000406 602000 3                  TNC     s:13665+32
         3 000375   000506 600000 3                  TZE     s:13713
         3 000376   000012 116007                    CMPQ    10,DL
         3 000377   000402 602000 3                  TNC     s:13665+28
         3 000400   000502 600000 3                  TZE     s:13709
         3 000401   000743 710000 3                  TRA     s:13862
         3 000402   000000 235000 xsym               LDA     CODE
         3 000403   000011 115007                    CMPA    9,DL
         3 000404   000743 601000 3                  TNZ     s:13862
         3 000405   000512 710000 3                  TRA     s:13717
         3 000406   000000 235000 xsym               LDA     CODE
         3 000407   000007 115007                    CMPA    7,DL
         3 000410   000743 601000 3                  TNZ     s:13862
         3 000411   000456 710000 3                  TRA     s:13689
         3 000412   000000 236000 xsym               LDQ     CODE
         3 000413   000003 116007                    CMPQ    3,DL
         3 000414   000426 602000 3                  TNC     s:13665+48
         3 000415   000472 600000 3                  TZE     s:13701
         3 000416   000005 116007                    CMPQ    5,DL
         3 000417   000422 602000 3                  TNC     s:13665+44
         3 000420   000436 600000 3                  TZE     s:13673
PL6.E3A0      #001=ASL$LIST File=ASL$LIST.:E05TSI                                TUE 07/29/97 09:59 Page:32
         3 000421   000743 710000 3                  TRA     s:13862
         3 000422   000000 235000 xsym               LDA     CODE
         3 000423   000004 115007                    CMPA    4,DL
         3 000424   000743 601000 3                  TNZ     s:13862
         3 000425   000522 710000 3                  TRA     s:13725
         3 000426   000000 235000 xsym               LDA     CODE
         3 000427   000002 115007                    CMPA    2,DL
         3 000430   000743 601000 3                  TNZ     s:13862
         3 000431   000466 710000 3                  TRA     s:13697

      153    13666
      154    13667    4            SELECT (%CHARSET_OBJ_VAL);

      155    13668
      156    13669    4            CALL ASL$LIST_ALL_CHARSETS ;

  13669  3 000432   000002 631400 xsym               EPPR1   B_VECTNIL+2
         3 000433   000000 701000 xent               TSX1    ASL$LIST_ALL_CHARSETS
         3 000434   000000 011000                    NOP     0
         3 000435   000743 710000 3                  TRA     s:13862

      157    13670
      158    13671    4            SELECT (%PROFILE_OBJ_VAL);

      159    13672
      160    13673    4            CALL ASL$LIST_ALL_PROFILES ;

  13673  3 000436   000002 631400 xsym               EPPR1   B_VECTNIL+2
         3 000437   000000 701000 xent               TSX1    ASL$LIST_ALL_PROFILES
         3 000440   000000 011000                    NOP     0
         3 000441   000743 710000 3                  TRA     s:13862

      161    13674
      162    13675    4            SELECT (%FORM_OBJ_VAL);

      163    13676
      164    13677    4            CALL ASL$LIST_ALL_FORMSETS ;
PL6.E3A0      #001=ASL$LIST File=ASL$LIST.:E05TSI                                TUE 07/29/97 09:59 Page:33

  13677  3 000442   000002 631400 xsym               EPPR1   B_VECTNIL+2
         3 000443   000000 701000 xent               TSX1    ASL$LIST_ALL_FORMSETS
         3 000444   000000 011000                    NOP     0
         3 000445   000743 710000 3                  TRA     s:13862

      165    13678
      166    13679    4            SELECT (%FORMSET_OBJ_VAL);

      167    13680
      168    13681    4            CALL ASL$LIST_ALL_FORMSETS ;

  13681  3 000446   000002 631400 xsym               EPPR1   B_VECTNIL+2
         3 000447   000000 701000 xent               TSX1    ASL$LIST_ALL_FORMSETS
         3 000450   000000 011000                    NOP     0
         3 000451   000743 710000 3                  TRA     s:13862

      169    13682
      170    13683    4            SELECT (%PROJECT_OBJ_VAL);

      171    13684
      172    13685    4            CALL ASL$LIST_ALL_PROJECTS ;

  13685  3 000452   000002 631400 xsym               EPPR1   B_VECTNIL+2
         3 000453   000000 701000 xent               TSX1    ASL$LIST_ALL_PROJECTS
         3 000454   000000 011000                    NOP     0
         3 000455   000743 710000 3                  TRA     s:13862

      173    13686
      174    13687    4            SELECT (%USER_OBJ_VAL);

      175    13688
      176    13689    4            CALL ASL$LIST_ALL_USERS ;

  13689  3 000456   000002 631400 xsym               EPPR1   B_VECTNIL+2
         3 000457   000000 701000 xent               TSX1    ASL$LIST_ALL_USERS
         3 000460   000000 011000                    NOP     0
PL6.E3A0      #001=ASL$LIST File=ASL$LIST.:E05TSI                                TUE 07/29/97 09:59 Page:34
         3 000461   000743 710000 3                  TRA     s:13862

      177    13690
      178    13691    4            SELECT (%LINE_OBJ_VAL);

      179    13692
      180    13693    4            CALL ASL$LIST_ALL_LINES ;

  13693  3 000462   000002 631400 xsym               EPPR1   B_VECTNIL+2
         3 000463   000000 701000 xent               TSX1    ASL$LIST_ALL_LINES
         3 000464   000000 011000                    NOP     0
         3 000465   000743 710000 3                  TRA     s:13862

      181    13694
      182    13695    4            SELECT (%STATION_OBJ_VAL);

      183    13696
      184    13697    4            CALL ASL$LIST_ALL_STATIONS ;

  13697  3 000466   000002 631400 xsym               EPPR1   B_VECTNIL+2
         3 000467   000000 701000 xent               TSX1    ASL$LIST_ALL_STATIONS
         3 000470   000000 011000                    NOP     0
         3 000471   000743 710000 3                  TRA     s:13862

      185    13698
      186    13699    4            SELECT (%TERMINAL_OBJ_VAL);

      187    13700
      188    13701    4            CALL ASL$LIST_ALL_TERMINALS ;

  13701  3 000472   000002 631400 xsym               EPPR1   B_VECTNIL+2
         3 000473   000000 701000 xent               TSX1    ASL$LIST_ALL_TERMINALS
         3 000474   000000 011000                    NOP     0
         3 000475   000743 710000 3                  TRA     s:13862

      189    13702
      190    13703    4            SELECT (%LINK_OBJ_VAL);
PL6.E3A0      #001=ASL$LIST File=ASL$LIST.:E05TSI                                TUE 07/29/97 09:59 Page:35

      191    13704
      192    13705    4            CALL ASL$LIST_ALL_LINKS ;

  13705  3 000476   000002 631400 xsym               EPPR1   B_VECTNIL+2
         3 000477   000000 701000 xent               TSX1    ASL$LIST_ALL_LINKS
         3 000500   000000 011000                    NOP     0
         3 000501   000743 710000 3                  TRA     s:13862

      193    13706
      194    13707    4            SELECT (%CONTROLLER_OBJ_VAL);

      195    13708
      196    13709    4            CALL ASL$LIST_ALL_CONTROLLERS ;

  13709  3 000502   000002 631400 xsym               EPPR1   B_VECTNIL+2
         3 000503   000000 701000 xent               TSX1    ASL$LIST_ALL_CONTROLLERS
         3 000504   000000 011000                    NOP     0
         3 000505   000743 710000 3                  TRA     s:13862

      197    13710
      198    13711    4            SELECT (%DEVICE_OBJ_VAL);

      199    13712
      200    13713    4            CALL ASL$LIST_ALL_DEVICES ;

  13713  3 000506   000002 631400 xsym               EPPR1   B_VECTNIL+2
         3 000507   000000 701000 xent               TSX1    ASL$LIST_ALL_DEVICES
         3 000510   000000 011000                    NOP     0
         3 000511   000743 710000 3                  TRA     s:13862

      201    13714
      202    13715    4            SELECT (%CONSOLE_OBJ_VAL);

      203    13716
      204    13717    4            CALL ASL$LIST_ALL_CONSOLES ;

PL6.E3A0      #001=ASL$LIST File=ASL$LIST.:E05TSI                                TUE 07/29/97 09:59 Page:36
  13717  3 000512   000002 631400 xsym               EPPR1   B_VECTNIL+2
         3 000513   000000 701000 xent               TSX1    ASL$LIST_ALL_CONSOLES
         3 000514   000000 011000                    NOP     0
         3 000515   000743 710000 3                  TRA     s:13862

      205    13718
      206    13719    4            SELECT (%VIRCIR_OBJ_VAL);

      207    13720
      208    13721    4            CALL ASL$LIST_ALL_VIRCIRS ;

  13721  3 000516   000002 631400 xsym               EPPR1   B_VECTNIL+2
         3 000517   000000 701000 xent               TSX1    ASL$LIST_ALL_VIRCIRS
         3 000520   000000 011000                    NOP     0
         3 000521   000743 710000 3                  TRA     s:13862

      209    13722
      210    13723    4            SELECT (%WSN_OBJ_VAL);

      211    13724
      212    13725    4            CALL ASL$LIST_ALL_WORKSTATIONS ;

  13725  3 000522   000002 631400 xsym               EPPR1   B_VECTNIL+2
         3 000523   000000 701000 xent               TSX1    ASL$LIST_ALL_WORKSTATIONS
         3 000524   000000 011000                    NOP     0

      213    13726
      214    13727    4            END; /*  Do case  */

      215    13728    3         END; /*  If object in command  */

  13728  3 000525   000743 710000 3                  TRA     s:13862

      216    13729        %EJECT;
PL6.E3A0      #001=ASL$LIST File=ASL$LIST.:E05TSI                                TUE 07/29/97 09:59 Page:37
      217    13730    3      ELSE DO;

      218    13731
      219    13732    3         CALL ASL$LIST_ALL_CHARSETS ;

  13732  3 000526   000002 631400 xsym               EPPR1   B_VECTNIL+2
         3 000527   000000 701000 xent               TSX1    ASL$LIST_ALL_CHARSETS
         3 000530   000000 011000                    NOP     0

      220    13733
      221    13734    3         CALL ASL$LIST_ALL_PROFILES ;

  13734  3 000531   000002 631400 xsym               EPPR1   B_VECTNIL+2
         3 000532   000000 701000 xent               TSX1    ASL$LIST_ALL_PROFILES
         3 000533   000000 011000                    NOP     0

      222    13735
      223    13736    3         CALL ASL$LIST_ALL_FORMSETS ;

  13736  3 000534   000002 631400 xsym               EPPR1   B_VECTNIL+2
         3 000535   000000 701000 xent               TSX1    ASL$LIST_ALL_FORMSETS
         3 000536   000000 011000                    NOP     0

      224    13737
      225    13738    3         CALL ASL$LIST_ALL_PROJECTS ;

  13738  3 000537   000002 631400 xsym               EPPR1   B_VECTNIL+2
         3 000540   000000 701000 xent               TSX1    ASL$LIST_ALL_PROJECTS
         3 000541   000000 011000                    NOP     0

      226    13739
      227    13740    3         CALL ASL$LIST_ALL_USERS ;

  13740  3 000542   000002 631400 xsym               EPPR1   B_VECTNIL+2
         3 000543   000000 701000 xent               TSX1    ASL$LIST_ALL_USERS
         3 000544   000000 011000                    NOP     0

PL6.E3A0      #001=ASL$LIST File=ASL$LIST.:E05TSI                                TUE 07/29/97 09:59 Page:38
      228    13741
      229    13742    3         CALL ASL$LIST_ALL_LINES ;

  13742  3 000545   000002 631400 xsym               EPPR1   B_VECTNIL+2
         3 000546   000000 701000 xent               TSX1    ASL$LIST_ALL_LINES
         3 000547   000000 011000                    NOP     0

      230    13743    3         CALL ASL$LIST_ALL_CONTROLLERS;

  13743  3 000550   000002 631400 xsym               EPPR1   B_VECTNIL+2
         3 000551   000000 701000 xent               TSX1    ASL$LIST_ALL_CONTROLLERS
         3 000552   000000 011000                    NOP     0

      231    13744    3         CALL ASL$LIST_ALL_LINE_DEVICES;

  13744  3 000553   000002 631400 xsym               EPPR1   B_VECTNIL+2
         3 000554   000000 701000 xent               TSX1    ASL$LIST_ALL_LINE_DEVICES
         3 000555   000000 011000                    NOP     0

      232    13745
      233    13746    3         CALL ASL$LIST_ALL_STATIONS ;

  13746  3 000556   000002 631400 xsym               EPPR1   B_VECTNIL+2
         3 000557   000000 701000 xent               TSX1    ASL$LIST_ALL_STATIONS
         3 000560   000000 011000                    NOP     0

      234    13747
      235    13748    3         CALL ASL$LIST_ALL_TERMINALS ;

  13748  3 000561   000002 631400 xsym               EPPR1   B_VECTNIL+2
         3 000562   000000 701000 xent               TSX1    ASL$LIST_ALL_TERMINALS
         3 000563   000000 011000                    NOP     0

      236    13749
      237    13750    3         CALL ASL$LIST_ALL_LINKS ;

  13750  3 000564   000002 631400 xsym               EPPR1   B_VECTNIL+2
PL6.E3A0      #001=ASL$LIST File=ASL$LIST.:E05TSI                                TUE 07/29/97 09:59 Page:39
         3 000565   000000 701000 xent               TSX1    ASL$LIST_ALL_LINKS
         3 000566   000000 011000                    NOP     0

      238    13751    3         CALL ASL$LIST_ALL_VIRCIRS ;

  13751  3 000567   000002 631400 xsym               EPPR1   B_VECTNIL+2
         3 000570   000000 701000 xent               TSX1    ASL$LIST_ALL_VIRCIRS
         3 000571   000000 011000                    NOP     0

      239    13752    3         CALL ASL$LIST_ALL_LINKDEVS;

  13752  3 000572   000002 631400 xsym               EPPR1   B_VECTNIL+2
         3 000573   000000 701000 xent               TSX1    ASL$LIST_ALL_LINKDEVS
         3 000574   000000 011000                    NOP     0

      240    13753
      241    13754    3         CALL ASL$LIST_ALL_DEVICES ;

  13754  3 000575   000002 631400 xsym               EPPR1   B_VECTNIL+2
         3 000576   000000 701000 xent               TSX1    ASL$LIST_ALL_DEVICES
         3 000577   000000 011000                    NOP     0

      242    13755
      243    13756    3         CALL ASL$LIST_ALL_CONSOLES ;

  13756  3 000600   000002 631400 xsym               EPPR1   B_VECTNIL+2
         3 000601   000000 701000 xent               TSX1    ASL$LIST_ALL_CONSOLES
         3 000602   000000 011000                    NOP     0

      244    13757
      245    13758    3         CALL ASL$LIST_ALL_WORKSTATIONS ;

  13758  3 000603   000002 631400 xsym               EPPR1   B_VECTNIL+2
         3 000604   000000 701000 xent               TSX1    ASL$LIST_ALL_WORKSTATIONS
         3 000605   000000 011000                    NOP     0

      246    13759
PL6.E3A0      #001=ASL$LIST File=ASL$LIST.:E05TSI                                TUE 07/29/97 09:59 Page:40
      247    13760    3         END; /*  Else  */

  13760  3 000606   000743 710000 3                  TRA     s:13862

      248    13761        %EJECT;
PL6.E3A0      #001=ASL$LIST File=ASL$LIST.:E05TSI                                TUE 07/29/97 09:59 Page:41
      249    13762
      250    13763    2      SELECT ( %LIST_USER_VAL,

      251    13764    2           %DISPLAY_USER_VAL );
      252    13765
      253    13766    2      CALL ASL$LIST_ALL_USERS;

  13766  3 000607   000002 631400 xsym               EPPR1   B_VECTNIL+2
         3 000610   000000 701000 xent               TSX1    ASL$LIST_ALL_USERS
         3 000611   000000 011000                    NOP     0
         3 000612   000743 710000 3                  TRA     s:13862

      254    13767
      255    13768    2      SELECT ( %LIST_PROJECT_VAL,

      256    13769    2           %DISPLAY_PROJECT_VAL );
      257    13770
      258    13771    2      CALL ASL$LIST_ALL_PROJECTS;

  13771  3 000613   000002 631400 xsym               EPPR1   B_VECTNIL+2
         3 000614   000000 701000 xent               TSX1    ASL$LIST_ALL_PROJECTS
         3 000615   000000 011000                    NOP     0
         3 000616   000743 710000 3                  TRA     s:13862

      259    13772
      260    13773    2      SELECT ( %LIST_TERM_VAL,

      261    13774    2           %DISPLAY_TERM_VAL );
      262    13775
      263    13776    2      CALL ASL$LIST_ALL_TERMINALS;

  13776  3 000617   000002 631400 xsym               EPPR1   B_VECTNIL+2
         3 000620   000000 701000 xent               TSX1    ASL$LIST_ALL_TERMINALS
         3 000621   000000 011000                    NOP     0
         3 000622   000743 710000 3                  TRA     s:13862

      264    13777
PL6.E3A0      #001=ASL$LIST File=ASL$LIST.:E05TSI                                TUE 07/29/97 09:59 Page:42
      265    13778    2      SELECT ( %LIST_STATION_VAL,

      266    13779    2           %DISPLAY_STATION_VAL );
      267    13780
      268    13781    2      CALL ASL$LIST_ALL_STATIONS ;

  13781  3 000623   000002 631400 xsym               EPPR1   B_VECTNIL+2
         3 000624   000000 701000 xent               TSX1    ASL$LIST_ALL_STATIONS
         3 000625   000000 011000                    NOP     0
         3 000626   000743 710000 3                  TRA     s:13862

      269    13782
      270    13783    2      SELECT ( %LIST_WSN_VAL,

      271    13784    2           %DISPLAY_WSN_VAL );
      272    13785
      273    13786    2      CALL ASL$LIST_ALL_WORKSTATIONS;

  13786  3 000627   000002 631400 xsym               EPPR1   B_VECTNIL+2
         3 000630   000000 701000 xent               TSX1    ASL$LIST_ALL_WORKSTATIONS
         3 000631   000000 011000                    NOP     0
         3 000632   000743 710000 3                  TRA     s:13862

      274    13787
      275    13788    2      SELECT ( %LIST_FORM_VAL,

      276    13789    2           %DISPLAY_FORM_VAL,
      277    13790    2           %LIST_FORMSET_VAL,
      278    13791    2           %DISPLAY_FORMSET_VAL );
      279    13792
      280    13793    2      CALL ASL$LIST_ALL_FORMSETS;

  13793  3 000633   000002 631400 xsym               EPPR1   B_VECTNIL+2
         3 000634   000000 701000 xent               TSX1    ASL$LIST_ALL_FORMSETS
         3 000635   000000 011000                    NOP     0
         3 000636   000743 710000 3                  TRA     s:13862

PL6.E3A0      #001=ASL$LIST File=ASL$LIST.:E05TSI                                TUE 07/29/97 09:59 Page:43
      281    13794
      282    13795    2      SELECT ( %LIST_CHARSET_VAL,

      283    13796    2           %DISPLAY_CHARSET_VAL );
      284    13797
      285    13798    2      CALL ASL$LIST_ALL_CHARSETS;

  13798  3 000637   000002 631400 xsym               EPPR1   B_VECTNIL+2
         3 000640   000000 701000 xent               TSX1    ASL$LIST_ALL_CHARSETS
         3 000641   000000 011000                    NOP     0
         3 000642   000743 710000 3                  TRA     s:13862

      286    13799
      287    13800    2      SELECT ( %DISPLAY_PROFILE_VAL,

      288    13801    2           %LIST_PROFILE_VAL );
      289    13802
      290    13803    2      CALL ASL$LIST_ALL_PROFILES;

  13803  3 000643   000002 631400 xsym               EPPR1   B_VECTNIL+2
         3 000644   000000 701000 xent               TSX1    ASL$LIST_ALL_PROFILES
         3 000645   000000 011000                    NOP     0
         3 000646   000743 710000 3                  TRA     s:13862

      291    13804
      292    13805    2      SELECT ( %LIST_DEVICE_VAL,

      293    13806    2           %DISPLAY_DEVICE_VAL );
      294    13807
      295    13808    2      LIST_CODE = 0;

  13808  3 000647   200006 450100                    STZ     LIST_CODE,,AUTO

      296    13809    2      IF P_PCB.OUT$->P$B.NSUBLKS > 1 THEN

  13809  3 000650   000003 470400 xsym               LDP0    P_PCB+3
         3 000651   000001 220100                    LDX0    1,,PR0
PL6.E3A0      #001=ASL$LIST File=ASL$LIST.:E05TSI                                TUE 07/29/97 09:59 Page:44
         3 000652   000002 100003                    CMPX0   2,DU
         3 000653   000660 602000 3                  TNC     s:13811

      297    13810    2         LIST_CODE = P_PCB.OUT$->P$B.SUBLK$(1)->P$B.CODE;

  13810  3 000654   000004 471500                    LDP1    4,,PR0
         3 000655   100000 236100                    LDQ     0,,PR1
         3 000656   777777 376007                    ANQ     -1,DL
         3 000657   200006 756100                    STQ     LIST_CODE,,AUTO

      298    13811    2      IF LIST_CODE = %DEVICE_NAME_WILD_VAL THEN

  13811  3 000660   200006 235100                    LDA     LIST_CODE,,AUTO
         3 000661   000337 115007                    CMPA    223,DL
         3 000662   000671 601000 3                  TNZ     s:13815

      299    13812    2         IF P_PCB.OUT$->P$B.NSUBLKS > 2 THEN

  13812  3 000663   000003 100003                    CMPX0   3,DU
         3 000664   000671 602000 3                  TNC     s:13815

      300    13813    2            LIST_CODE = P_PCB.OUT$->P$B.SUBLK$(2)->P$B.CODE;

  13813  3 000665   000005 471500                    LDP1    5,,PR0
         3 000666   100000 236100                    LDQ     0,,PR1
         3 000667   777777 376007                    ANQ     -1,DL
         3 000670   200006 756100                    STQ     LIST_CODE,,AUTO

      301    13814
      302    13815    3      DO SELECT (LIST_CODE);

  13815  3 000671   200006 236100                    LDQ     LIST_CODE,,AUTO
         3 000672   000353 116007                    CMPQ    235,DL
         3 000673   000700 604000 3                  TMI     s:13819
         3 000674   000704 600000 3                  TZE     s:13823
         3 000675   000355 116007                    CMPQ    237,DL
         3 000676   000700 601000 3                  TNZ     s:13819
PL6.E3A0      #001=ASL$LIST File=ASL$LIST.:E05TSI                                TUE 07/29/97 09:59 Page:45
         3 000677   000710 710000 3                  TRA     s:13827

      303    13816
      304    13817    3         SELECT ( ELSE );

      305    13818
      306    13819    3      CALL ASL$LIST_ALL_DEVICES ;

  13819  3 000700   000002 631400 xsym               EPPR1   B_VECTNIL+2
         3 000701   000000 701000 xent               TSX1    ASL$LIST_ALL_DEVICES
         3 000702   000000 011000                    NOP     0
         3 000703   000743 710000 3                  TRA     s:13862

      307    13820
      308    13821    3      SELECT ( %LINE_NAME_WILD_VAL );

      309    13822
      310    13823    3      CALL ASL$LIST_ALL_LINE_DEVICES ;

  13823  3 000704   000002 631400 xsym               EPPR1   B_VECTNIL+2
         3 000705   000000 701000 xent               TSX1    ASL$LIST_ALL_LINE_DEVICES
         3 000706   000000 011000                    NOP     0
         3 000707   000743 710000 3                  TRA     s:13862

      311    13824
      312    13825    3      SELECT ( %LINK_NAME_WILD_VAL );

      313    13826
      314    13827    3      CALL ASL$LIST_ALL_LINKDEVS ;

  13827  3 000710   000002 631400 xsym               EPPR1   B_VECTNIL+2
         3 000711   000000 701000 xent               TSX1    ASL$LIST_ALL_LINKDEVS
         3 000712   000000 011000                    NOP     0

      315    13828
      316    13829    3         END; /*  Do case (LIST_CODE)  */

PL6.E3A0      #001=ASL$LIST File=ASL$LIST.:E05TSI                                TUE 07/29/97 09:59 Page:46
  13829  3 000713   000743 710000 3                  TRA     s:13862

      317    13830
      318    13831    2   SELECT ( %LIST_TPDEV_VAL,

      319    13832    2        %DISPLAY_TPDEV_VAL );
      320    13833
      321    13834    2   CALL ASL$LIST_ALL_DEVICES ;

  13834  3 000714   000002 631400 xsym               EPPR1   B_VECTNIL+2
         3 000715   000000 701000 xent               TSX1    ASL$LIST_ALL_DEVICES
         3 000716   000000 011000                    NOP     0
         3 000717   000743 710000 3                  TRA     s:13862

      322    13835
      323    13836    2   SELECT ( %LIST_CONS_VAL,

      324    13837    2        %DISPLAY_CONS_VAL );
      325    13838
      326    13839    2   CALL ASL$LIST_ALL_CONSOLES;

  13839  3 000720   000002 631400 xsym               EPPR1   B_VECTNIL+2
         3 000721   000000 701000 xent               TSX1    ASL$LIST_ALL_CONSOLES
         3 000722   000000 011000                    NOP     0
         3 000723   000743 710000 3                  TRA     s:13862

      327    13840
      328    13841    2   SELECT ( %LIST_VIRCIR_VAL,

      329    13842    2        %DISPLAY_VIRCIR_VAL );
      330    13843
      331    13844    2   CALL ASL$LIST_ALL_VIRCIRS ;

  13844  3 000724   000002 631400 xsym               EPPR1   B_VECTNIL+2
         3 000725   000000 701000 xent               TSX1    ASL$LIST_ALL_VIRCIRS
         3 000726   000000 011000                    NOP     0
         3 000727   000743 710000 3                  TRA     s:13862
PL6.E3A0      #001=ASL$LIST File=ASL$LIST.:E05TSI                                TUE 07/29/97 09:59 Page:47

      332    13845
      333    13846    2   SELECT ( %LIST_LINE_VAL,

      334    13847    2        %DISPLAY_LINE_VAL );
      335    13848
      336    13849    2   CALL ASL$LIST_ALL_LINES ;

  13849  3 000730   000002 631400 xsym               EPPR1   B_VECTNIL+2
         3 000731   000000 701000 xent               TSX1    ASL$LIST_ALL_LINES
         3 000732   000000 011000                    NOP     0
         3 000733   000743 710000 3                  TRA     s:13862

      337    13850
      338    13851    2   SELECT ( %LIST_CONT_VAL,

      339    13852    2        %DISPLAY_CONT_VAL );
      340    13853
      341    13854    2   CALL ASL$LIST_ALL_CONTROLLERS ;

  13854  3 000734   000002 631400 xsym               EPPR1   B_VECTNIL+2
         3 000735   000000 701000 xent               TSX1    ASL$LIST_ALL_CONTROLLERS
         3 000736   000000 011000                    NOP     0
         3 000737   000743 710000 3                  TRA     s:13862

      342    13855
      343    13856    2   SELECT ( %LIST_LINK_VAL,

      344    13857    2        %DISPLAY_LINK_VAL );
      345    13858
      346    13859    2   CALL ASL$LIST_ALL_LINKS ;

  13859  3 000740   000002 631400 xsym               EPPR1   B_VECTNIL+2
         3 000741   000000 701000 xent               TSX1    ASL$LIST_ALL_LINKS
         3 000742   000000 011000                    NOP     0

      347    13860
PL6.E3A0      #001=ASL$LIST File=ASL$LIST.:E05TSI                                TUE 07/29/97 09:59 Page:48
      348    13861    2      END; /*  Do case (code)  */

      349    13862    1   RETURN;

  13862  3 000743   000000 702200 xent               TSX2  ! X66_ARET
      350    13863        %EJECT;
PL6.E3A0      #001=ASL$LIST File=ASL$LIST.:E05TSI                                TUE 07/29/97 09:59 Page:49
      351    13864    1   END ASL$LIST;

PL6.E3A0      #001=ASL$LIST File=ASL$LIST.:E05TSI                                TUE 07/29/97 09:59 Page:50
--  Include file information  --

   AS_SUPER_R.:E05TOU  cannot be made into a system file and is referenced.
   XU_FORMAT_C.:E05TOU  is referenced.
   XU_MACRO_C.:E05TOU  is referenced.
   KL_SUPER_C.:E05TOU  is referenced.
   CP_6_SUBS.:E05TOU  is referenced.
   CP_6.:E05TOU  cannot be made into a system file and is referenced.
   AS_MAC_C.:E05TOU  cannot be made into a system file and is referenced.
   AS_SUBS_C.:E05TOU  is referenced.
   AS_SUPER_C.:E05TOU  is referenced.
   AS_PERR_C.:E05TOU  is referenced.
   AS_ENTRIES_M.:E05TOU  is referenced.
   B$JIT_C.:E05TOU  was found in the system file and is never referenced.
   CP_6_C.:E05TOU  was found in the system file and is referenced.
      No diagnostics issued in procedure ASL$LIST.
PL6.E3A0      #001=ASL$LIST File=ASL$LIST.:E05TSI                                TUE 07/29/97 09:59 Page:51

 **** Variables and constants ****

  ****  Auto variables  ****

  ****  Scalars and arrays  ****
OctLoc.c.b A Datatyp(siz) R M Lvl/name                 OctLoc.c.b A Datatyp(siz) R M Lvl/name

     3-0-0/w PTR         r     1 @DISP_CODE                 5-0-0/b BIT         r     1 ALL
     4-0-0/b BIT         r     1 DISP                      *0-0-0/w UBIN        r     1 DISP_CODE
     6-0-0/w SBIN        r     1 LIST_CODE

  ****  SYMREF variables  ****

  ****  Scalars and arrays  ****
OctLoc.c.b A Datatyp(siz) R M Lvl/name                 OctLoc.c.b A Datatyp(siz) R M Lvl/name

     0-0-0/d REMB        r     1 ASA_BRKS_LOC               0-0-0/w UBIN        r     1 CODE
     0-0-0/w UBIN        r     1 DISPLAY_CMD                0-0-0/b BIT         r     1 DSEG_FLG
     0-0-0/b STRC        r     1 ERR_CODE                   0-0-0/w STRC(1080)  r     1 FDS
     0-0-0/w UBIN        r     1 LIST_CMD                   0-0-0/w UBIN        r     1 LO_WIDTH
     0-0-0/b STRC        r     1 MERR_CODE                  0-0-0/w PTR         r     1 NODE$
     0-0-0/b BIT         r     1 PADMIN                     0-0-0/w STRC(504)   r     1 P_PCB
     0-0-0/d REMB        r     1 REMEM_VAR                  0-0-0/b BIT         r     1 SUPERAUTH
     0-0-0/b BIT         r     1 SUPERD                     0-0-0/b BIT         r     1 SUPERFORM
     0-0-0/b BIT         r     1 SUPERWSN

  ****  BASED and DCB variables  ****

  ****  Scalars and arrays  ****
OctLoc.c.b A Datatyp(siz) R M Lvl/name                 OctLoc.c.b A Datatyp(siz) R M Lvl/name

     0-0-0/w STRC(144)   r     1 P$B


   Procedure ASL$LIST requires 484 words for executable code.
   Procedure ASL$LIST requires 8 words of local(AUTO) storage.
PL6.E3A0      #001=ASL$LIST File=ASL$LIST.:E05TSI                                TUE 07/29/97 09:59 Page:52

    No errors detected in file ASL$LIST.:E05TSI    .
PL6.E3A0      #001=ASL$LIST File=ASL$LIST.:E05TSI                                TUE 07/29/97 09:59 Page:53
          *** CROSS REFERENCE LISTING ***
**     DENOTES     IDENTIFIER DEFINITION
<<                 IDENTIFIER'S VALUE SET
>>                 IDENTIFIER'S VALUE USED
<>                 IDENTIFIER SET AND/OR USED
--                 IDENTIFIER REFERENCED
PL6.E3A0      #001=ASL$LIST File=ASL$LIST.:E05TSI                                TUE 07/29/97 09:59 Page:54
          MINI XREF LISTING

ALL
     13529**DCL     13659<<ASSIGN
ASA_BRKS_LOC
     10562**DCL     10562--REDEF   13535<<ASSIGN
ASB$GETSEG
     13422**DCL-ENT 13634--CALL
ASH$ERROR
     13425**DCL-ENT 13550--CALL    13577--CALL    13602--CALL    13626--CALL    13648--CALL
ASL$LIST_ALL_CHARSETS
     13428**DCL-ENT 13669--CALL    13732--CALL    13798--CALL
ASL$LIST_ALL_CONSOLES
     13449**DCL-ENT 13717--CALL    13756--CALL    13839--CALL
ASL$LIST_ALL_CONTROLLERS
     13452**DCL-ENT 13709--CALL    13743--CALL    13854--CALL
ASL$LIST_ALL_DEVICES
     13443**DCL-ENT 13713--CALL    13754--CALL    13819--CALL    13834--CALL
ASL$LIST_ALL_FORMSETS
     13473**DCL-ENT 13677--CALL    13681--CALL    13736--CALL    13793--CALL
ASL$LIST_ALL_LINES
     13431**DCL-ENT 13693--CALL    13742--CALL    13849--CALL
ASL$LIST_ALL_LINE_DEVICES
     13455**DCL-ENT 13744--CALL    13823--CALL
ASL$LIST_ALL_LINKDEVS
     13464**DCL-ENT 13752--CALL    13827--CALL
ASL$LIST_ALL_LINKS
     13458**DCL-ENT 13705--CALL    13750--CALL    13859--CALL
ASL$LIST_ALL_PROFILES
     13434**DCL-ENT 13673--CALL    13734--CALL    13803--CALL
ASL$LIST_ALL_PROJECTS
     13467**DCL-ENT 13685--CALL    13738--CALL    13771--CALL
ASL$LIST_ALL_STATIONS
     13437**DCL-ENT 13697--CALL    13746--CALL    13781--CALL
PL6.E3A0      #001=ASL$LIST File=ASL$LIST.:E05TSI                                TUE 07/29/97 09:59 Page:55
ASL$LIST_ALL_TERMINALS
     13446**DCL-ENT 13701--CALL    13748--CALL    13776--CALL
ASL$LIST_ALL_USERS
     13470**DCL-ENT 13689--CALL    13740--CALL    13766--CALL
ASL$LIST_ALL_VIRCIRS
     13461**DCL-ENT 13721--CALL    13751--CALL    13844--CALL
ASL$LIST_ALL_WORKSTATIONS
     13440**DCL-ENT 13725--CALL    13758--CALL    13786--CALL
AS_DEFAULT.BANNER_PERM
     11255**DCL     11256--REDEF
AS_DEFAULT.BUDGET.MACCT
     11160**DCL     11164--REDEF
AS_DEFAULT.BUDGET.MAX_PROJECTS
     11173**DCL     11176--REDEF
AS_DEFAULT.BUDGET.PACCUM
     11156**DCL     11158--REDEF
AS_DEFAULT.BUDGET.PMAXC
     11151**DCL     11153--REDEF
AS_DEFAULT.SETUP_CHRA.TXT
     11271**DCL     11272--REDEF   11273--REDEF
AS_DEFAULT_DREC.PASSWORD
     12525**DCL     12529--REDEF
AS_DEFAULT_DREC.RENAME
     12548**DCL     12549--REDEF
AS_DFLT.BANNER_PERM
     11077**DCL     11078--REDEF
AS_DFLT.BUDGET.MACCT
     10982**DCL     10986--REDEF
AS_DFLT.BUDGET.MAX_PROJECTS
     10995**DCL     10998--REDEF
AS_DFLT.BUDGET.PACCUM
     10978**DCL     10980--REDEF
AS_DFLT.BUDGET.PMAXC
     10973**DCL     10975--REDEF
AS_DFLT.SETUP_CHRA.TXT
     11093**DCL     11094--REDEF   11095--REDEF
PL6.E3A0      #001=ASL$LIST File=ASL$LIST.:E05TSI                                TUE 07/29/97 09:59 Page:56
AS_FE_MODE
     10428**DCL     10429--REDEF
AS_MODE
     10425**DCL     10427--REDEF
AS_MOD_USER.ACCESS
     13290**DCL     13291--REDEF
AS_MOD_USER.BANNER
     13277**DCL     13278--REDEF
AS_MOD_USER.BANNER_PERM
     13279**DCL     13280--REDEF
AS_MOD_USER.BILL
     13285**DCL     13286--REDEF
AS_MOD_USER.CPROC
     13281**DCL     13282--REDEF
AS_MOD_USER.FEBILL
     13361**DCL     13362--REDEF
AS_MOD_USER.FECXTMEM
     13378**DCL     13379--REDEF
AS_MOD_USER.FEMINTS
     13363**DCL     13364--REDEF
AS_MOD_USER.FEMMEM
     13374**DCL     13375--REDEF
AS_MOD_USER.FEMTIME
     13372**DCL     13373--REDEF
AS_MOD_USER.FEPPRIV
     13369**DCL     13371--REDEF
AS_MOD_USER.FEPRIV
     13366**DCL     13368--REDEF
AS_MOD_USER.FORCE_BIT
     13275**DCL     13276--REDEF
AS_MOD_USER.KEY
     13357**DCL     13359--REDEF
AS_MOD_USER.LASTCPROC
     13283**DCL     13284--REDEF
AS_MOD_USER.LIMITS.DO_
     13331**DCL     13332--REDEF
PL6.E3A0      #001=ASL$LIST File=ASL$LIST.:E05TSI                                TUE 07/29/97 09:59 Page:57
AS_MOD_USER.LIMITS.FPOOLS
     13347**DCL     13348--REDEF
AS_MOD_USER.LIMITS.LO
     13327**DCL     13328--REDEF
AS_MOD_USER.LIMITS.MEM
     13323**DCL     13324--REDEF
AS_MOD_USER.LIMITS.MPRIO
     13351**DCL     13352--REDEF
AS_MOD_USER.LIMITS.PDIS
     13339**DCL     13340--REDEF
AS_MOD_USER.LIMITS.PO
     13335**DCL     13336--REDEF
AS_MOD_USER.LIMITS.TDIS
     13343**DCL     13344--REDEF
AS_MOD_USER.LIMITS.TIME
     13319**DCL     13320--REDEF
AS_MOD_USER.MAXENQ
     13300**DCL     13301--REDEF
AS_MOD_USER.PERM_BIT
     13273**DCL     13274--REDEF
AS_MOD_USER.PPRIV
     13295**DCL     13297--REDEF
AS_MOD_USER.PRIOB
     13302**DCL     13303--REDEF
AS_MOD_USER.PRIV
     13292**DCL     13294--REDEF
AS_MOD_USER.QUAN
     13298**DCL     13299--REDEF
AS_MOD_USER.SETUP
     13271**DCL     13272--REDEF
AS_PROJECT.BANNER_PERM
     11611**DCL     11612--REDEF
AS_PROJECT.BUDGET.MACCT
     11516**DCL     11520--REDEF
AS_PROJECT.BUDGET.MAX_PROJECTS
     11529**DCL     11532--REDEF
PL6.E3A0      #001=ASL$LIST File=ASL$LIST.:E05TSI                                TUE 07/29/97 09:59 Page:58
AS_PROJECT.BUDGET.PACCUM
     11512**DCL     11514--REDEF
AS_PROJECT.BUDGET.PMAXC
     11507**DCL     11509--REDEF
AS_PROJECT.SETUP_CHRA.TXT
     11627**DCL     11628--REDEF   11629--REDEF
AS_PROJECT_DFLT.BANNER_PERM
     11789**DCL     11790--REDEF
AS_PROJECT_DFLT.BUDGET.MACCT
     11694**DCL     11698--REDEF
AS_PROJECT_DFLT.BUDGET.MAX_PROJECTS
     11707**DCL     11710--REDEF
AS_PROJECT_DFLT.BUDGET.PACCUM
     11690**DCL     11692--REDEF
AS_PROJECT_DFLT.BUDGET.PMAXC
     11685**DCL     11687--REDEF
AS_PROJECT_DFLT.SETUP_CHRA.TXT
     11805**DCL     11806--REDEF   11807--REDEF
AS_PROJECT_DFLT_DREC.PASSWORD
     13011**DCL     13015--REDEF
AS_PROJECT_DFLT_DREC.RENAME
     13034**DCL     13035--REDEF
AS_PROJECT_DREC.PASSWORD
     12849**DCL     12853--REDEF
AS_PROJECT_DREC.RENAME
     12872**DCL     12873--REDEF
AS_PROJ_ADMIN.BANNER_PERM
     11433**DCL     11434--REDEF
AS_PROJ_ADMIN.BUDGET.MACCT
     11338**DCL     11342--REDEF
AS_PROJ_ADMIN.BUDGET.MAX_PROJECTS
     11351**DCL     11354--REDEF
AS_PROJ_ADMIN.BUDGET.PACCUM
     11334**DCL     11336--REDEF
AS_PROJ_ADMIN.BUDGET.PMAXC
     11329**DCL     11331--REDEF
PL6.E3A0      #001=ASL$LIST File=ASL$LIST.:E05TSI                                TUE 07/29/97 09:59 Page:59
AS_PROJ_ADMIN.SETUP_CHRA.TXT
     11449**DCL     11450--REDEF   11451--REDEF
AS_PROJ_ADMIN_DREC.PASSWORD
     12687**DCL     12691--REDEF
AS_PROJ_ADMIN_DREC.RENAME
     12710**DCL     12711--REDEF
AS_USERS.BANNER_PERM
     10899**DCL     10900--REDEF
AS_USERS.BUDGET.MACCT
     10804**DCL     10808--REDEF
AS_USERS.BUDGET.MAX_PROJECTS
     10817**DCL     10820--REDEF
AS_USERS.BUDGET.PACCUM
     10800**DCL     10802--REDEF
AS_USERS.BUDGET.PMAXC
     10795**DCL     10797--REDEF
AS_USERS.SETUP_CHRA.TXT
     10915**DCL     10916--REDEF   10917--REDEF
AS_USERS_CONSTANT.BANNER_PERM
     11967**DCL     11968--REDEF
AS_USERS_CONSTANT.BUDGET.MACCT
     11872**DCL     11876--REDEF
AS_USERS_CONSTANT.BUDGET.MAX_PROJECTS
     11885**DCL     11888--REDEF
AS_USERS_CONSTANT.BUDGET.PACCUM
     11868**DCL     11870--REDEF
AS_USERS_CONSTANT.BUDGET.PMAXC
     11863**DCL     11865--REDEF
AS_USERS_CONSTANT.SETUP_CHRA.TXT
     11983**DCL     11984--REDEF   11985--REDEF
CODE
     10555**DCL     13553<<ASSIGN  13555>>DOSELCT 13654>>DOSELCT 13663<<ASSIGN  13665>>DOSELCT
DISP
     13528**DCL     13540<<ASSIGN  13544<<ASSIGN
DISPLAY_CMD
     10415**DCL     13539--ASSIGN
PL6.E3A0      #001=ASL$LIST File=ASL$LIST.:E05TSI                                TUE 07/29/97 09:59 Page:60
DISP_CODE
     13417**DCL         9--PROC    13538>>IF
DSEG_FLG
     10563**DCL     13633>>IF
ERR_CODE
     10557**DCL     10558--REDEF
FDS.BUF_.BOUND
     10472**DCL     13537<<ASSIGN
KL_DEFAULT.PASSWORD
     13173**DCL     13177--REDEF
KL_DEFAULT.RENAME
     13196**DCL     13197--REDEF
KL_DFLT.PASSWORD
     12363**DCL     12367--REDEF
KL_DFLT.RENAME
     12386**DCL     12387--REDEF
KL_DREC.PASSWORD
     12201**DCL     12205--REDEF
KL_DREC.RENAME
     12224**DCL     12225--REDEF
KL_DREC_CNT.PASSWORD
     12088**DCL     12092--REDEF
KL_DREC_CNT.RENAME
     12111**DCL     12112--REDEF
LIST_CMD
     10415**DCL     13543--ASSIGN
LIST_CODE
     13530**DCL     13808<<ASSIGN  13810<<ASSIGN  13811>>IF      13813<<ASSIGN  13815>>DOSELCT
LO_WIDTH
     10439**DCL     13537>>ASSIGN
MERR_CODE
     10558**DCL     13548<<ASSIGN  13550<>CALL
MERR_CODE.SEV
     10558**DCL     13549<<ASSIGN
NODE$
     10555**DCL     13486--IMP-PTR
PL6.E3A0      #001=ASL$LIST File=ASL$LIST.:E05TSI                                TUE 07/29/97 09:59 Page:61
P$B.CODE
     13494**DCL     13553>>ASSIGN  13660>>IF      13663>>ASSIGN  13810>>ASSIGN  13813>>ASSIGN
P$B.NSUBLKS
     13498**DCL     13660>>IF      13809>>IF      13812>>IF
P$B.SUBLK$
     13519**DCL     13553>>ASSIGN  13660>>IF      13660>>IF      13660>>IF      13663>>ASSIGN  13663>>ASSIGN
     13810>>ASSIGN  13813>>ASSIGN
PADMIN
     10557**DCL     13561>>IF
PROJ_KEY.TEXT
     10435**DCL     10435--REDEF
PROJ_KEY.TXT.PROJECT
     10435**DCL     10435--REDEF
P_PCB
     10590**DCL     13546<>CALL
P_PCB.ERROR
     10694**DCL     13548>>ASSIGN
P_PCB.OUT$
     10603**DCL     13553>>ASSIGN  13660>>IF      13660>>IF      13663>>ASSIGN  13809>>IF      13810>>ASSIGN
     13812>>IF      13813>>ASSIGN
P_PCB.ROOT$
     10595**DCL     13539<<ASSIGN  13543<<ASSIGN
REMEM_VAR
     10561**DCL     10561--REDEF   13535>>ASSIGN
REM_FCMD
     10561**DCL     10562--REDEF
SUPERAUTH
     10556**DCL     13561>>IF
SUPERD
     10556**DCL     13561>>IF      13586>>IF      13610>>IF
SUPERFORM
     10556**DCL     13586>>IF
SUPERWSN
     10556**DCL     13610>>IF
USERS_KEY.TEXT
     10432**DCL     10433--REDEF   10433--REDEF   10433--REDEF   10434--REDEF
PL6.E3A0      #001=ASL$LIST File=ASL$LIST.:E05TSI                                TUE 07/29/97 09:59 Page:62
X$PARSE
     13475**DCL-ENT 13546--CALL
