PL6.E3A0      #003=ASL$DISP_ONE_DEVICE File=ASL$LIST_DEVICES.:E05TSI             TUE 07/29/97 10:12 Page:171
      874        1        /*T***********************************************************/
      875        2        /*T*                                                         */
      876        3        /*T* Copyright (c) Bull HN Information Systems Inc., 1997    */
      877        4        /*T*                                                         */
      878        5        /*T***********************************************************/
      879        6        %EJECT;
PL6.E3A0      #003=ASL$DISP_ONE_DEVICE File=ASL$LIST_DEVICES.:E05TSI             TUE 07/29/97 10:12 Page:172
      880        7        /*M* ASL$DISP_ONE_DEVICE:  Routine to display one DEVICE. */
      881        8        /*X*  DMC,DMR,CCC,PLM=0,IND=3,CTI=5,DCI=6,IAD=0,DTI=0,IDT=0,ENI=3,
      882        9              ECU=3,CSU=3,SDI=3                                           */
      883       10        ASL$DISP_ONE_DEVICE: PROC (JCL, TERMINAL);
      884       11
      885       12        /********************************************************************/
      886       13        /*   Include files   include files   include files   include files  */
      887       14        /********************************************************************/
      888       15        %INCLUDE AS_SUBS_C;
      889     1429        %INCLUDE AS_MAC_C;
      890     1509        %INCLUDE AS_SSUBS_C;
      891     1601        %INCLUDE AS_PERR_C;
      892     2203        %INCLUDE AS_ENTRIES_M;
      893     3253        %INCLUDE AS_SUPER_C;
      894     3688        %INCLUDE KC$CGBLK;
      895     3736        %INCLUDE QQ_SUPER_C;
      896     3791        %INCLUDE FOO_MAC_C;
      897     4539        %INCLUDE FI_MAC_C;
      898     4909        %INCLUDE OC$INFO;
      899     4965        %INCLUDE OCI_SUBS_C;
      900     5063        %INCLUDE CP_6;
      901     5144        %INCLUDE KL_SUPER_C;
      902     8046        %INCLUDE XU_MACRO_C;
      903    11152        %INCLUDE XU_FORMAT_C;
      904    11314        %INCLUDE AS_SUPER_R;
      905    14330        /********************************************************************/
      906    14331        /*   Parameters      parameters      parameters      parameters     */
      907    14332        /********************************************************************/
      908    14333    1   DCL JCL      BIT (1);
      909    14334    1   DCL TERMINAL BIT (1);
      910    14335        /********************************************************************/
      911    14336        /*   Entry dcls      entry dcls      entry dcls      entry dcls     */
      912    14337        /********************************************************************/
      913    14338        %ASB$READ_HLP ;
      914    14341        %ASA$ERROR ;
      915    14344        %ASB$WRITE_LO ;
      916    14347    1   DCL X$FORMAT ENTRY(1);
PL6.E3A0      #003=ASL$DISP_ONE_DEVICE File=ASL$LIST_DEVICES.:E05TSI             TUE 07/29/97 10:12 Page:173
      917    14348        /********************************************************************/
      918    14349        /*   Local based     local based     local based     local based    */
      919    14350        /********************************************************************/
      920    14351        %KL_DREC       ( NAME = KL$DREC, LAST = ",", STCLASS = "BASED(DSEG3$)" );
      921    14464        %KC$CGID       ( FPTN = KC$CGID, LVL = 2, LAST = ";", STCLASS = BASED );
      922    14490        %KL_DREC       ( NAME = RES$DREC, LAST = ";", STCLASS = "BASED(DSEG3$)" );
      923    14603        %KL_DREC       ( NAME = RESCL$DREC, LAST = ",", STCLASS = "BASED(DSEG3$)" );
      924    14716        %KL_RES_CL_DEV ( NAME = CL_DEV, LAST = ";", LVL = 2, STCLASS = BASED);
      925    14776        %KL_DREC       ( NAME = CON$DREC, LAST = ",", STCLASS = "BASED(DSEG3$)" );
      926    14889        %KC$CGID       ( FPTN = KC$CGID, LVL = 2, LAST = ",", STCLASS = BASED );
      927    14915        %OC$INFO       ( FPTN = OCINFO, LVL = 2, LAST = ";", STCLASS = BASED );
      928    14952        %KL_DREC       ( NAME = IN$DEV, LAST = ",", STCLASS = "BASED(DSEG3$)" );
      929    15065        %KC$CGID       ( FPTN = KC$CGID, LVL = 2, LAST = ",", STCLASS = BASED );
      930    15091        %FI_CONINFO    ( FPTN = ISINFO, LVL = 2, LAST = ";", STCLASS = BASED );
      931    15135        %KL_DREC       ( NAME = OUT$DEV, LAST = ",", STCLASS = "BASED(DSEG3$)" );
      932    15248        %KC$CGID       ( FPTN = KC$CGID, LVL = 2, LAST = ",", STCLASS = BASED );
      933    15274        %FO_CONINFO    ( FPTN = OSINFO, LVL = 2, LAST = ";", STCLASS = BASED );
      934    15305        %KL_DREC       ( NAME = CG$DEV, LAST = ",", STCLASS = "BASED(DSEG3$)" );
      935    15418        %KC$CGID       ( FPTN = KC$CGID, LVL = 2, LAST = ",", STCLASS = BASED );
      936    15444        %B$CGAUINFO    ( FPTN = B$CGAUINFO, LVL = 2, STCLASS = BASED );
      937    15464        %KL_DREC       ( NAME = TP$DEV, LAST = ",", STCLASS = "BASED(DSEG3$)" );
      938    15577        %KC$CGID       ( FPTN = KC$CGID, LVL = 2, LAST = ",", STCLASS = BASED );
      939    15603        %QQ$LOGON      ( FPTN = QQ$LOGON, LVL = 2, LAST = ";", STCLASS = BASED );
      940    15639        %KL_WSNDEV     ( NAME = DEVWSNS, STCLASS = "BASED (DSEG1$)");
      941    15644    1   DCL 1 TEXT$C BASED,
      942    15645    1          2 L UBIN BYTE UNAL,
      943    15646    1          2 C CHAR(TEXT$C.L) UNAL;
      944    15647    1   DCL OPT$ORDR(0:0) UBIN BYTE UNAL BASED(OPT_ORDR$);
      945    15648        /********************************************************************/
      946    15649        /*   Constant data   constant data   constant data   constant data  */
      947    15650        /********************************************************************/
      948    15651    1   DCL 1 OPT_TBL  CONSTANT,
      949    15652    1          2 HDR(0:70) CHAR(18) CALIGNED INIT(
      950    15653    1             '   PROFILE =',
      951    15654    1             '   PASSWORD =',
      952    15655    1             '   MAXPRIO =',
      953    15656    1             '   WSN =',
PL6.E3A0      #003=ASL$DISP_ONE_DEVICE File=ASL$LIST_DEVICES.:E05TSI             TUE 07/29/97 10:12 Page:174
      954    15657    1             '   SYSTEM =',
      955    15658    1             '   ADMIN =',
      956    15659    1             '   COMMUNICATION =',
      957    15660    1             '   DEVICE =',
      958    15661    1             '   SLAVE =',
      959    15662    1             '   CMD =',
      960    15663    1             '   USE =',
      961    15664    1             '   TYPE =',
      962    15665    1             '   UPLOCKED =',
      963    15666    1             '   FORM =',
      964    15667    1             '   DEFPRIO =',
      965    15668    1             '   NCTL =',
      966    15669    1             '   NCOK =',
      967    15670    1             '   NCACCT =',
      968    15671    1             '   NCFID =',
      969    15672    1             '   COMGROUP =',
      970    15673    1             '   SNAME =',
      971    15674    1             '   NOCG =',
      972    15675    1             '   USER1 =',
      973    15676    1             '   USER2 =',
      974    15677    1             '   USER3 =',
      975    15678    1             '   USER4 =',
      976    15679    1             '   INSTANCE =',
      977    15680    1             '   PRIORITY =',
      978    15681    1             '   MCT =',
      979    15682    1             '   NATIVEL =',
      980    15683    1             '   TP =',
      981    15684    1             '   MODE =',
      982    15685    1             '   RNAME =',
      983    15686    1             '   AUACCOUNT =',
      984    15687    1             '   B300 =',
      985    15688    1             '   B1200 =',
      986    15689    1             '   B2400 =',
      987    15690    1             '   HAYES =',
      988    15691    1             '   X28 =',
      989    15692    1             '   RFU1 =',
      990    15693    1             '   RFU2 =',
PL6.E3A0      #003=ASL$DISP_ONE_DEVICE File=ASL$LIST_DEVICES.:E05TSI             TUE 07/29/97 10:12 Page:175
      991    15694    1             '   RFU3 =',
      992    15695    1             '   RFU4 =',
      993    15696    1             '   RFU5 =',
      994    15697    1             '   RFU6 =',
      995    15698    1             '   RFU7 =',
      996    15699    1             '   RFU8 =',
      997    15700    1             '   RFU9 =',
      998    15701    1             '   RFU10 =',
      999    15702    1             '   RFU11 =',
     1000    15703    1             '   TCPIP =',
     1001    15704    1             '   RFU13 =',
     1002    15705    1             '   PRIVILEGED =',
     1003    15706    1             '   TCP =',
     1004    15707    1             '   IP =',
     1005    15708    1             ' '*0),
     1006    15709    1          2 CON_ORDR(0:11) UBIN BYTE CALIGNED INIT(
     1007    15710    1             L_CD_PROFILE, L_CD_PASSWORD, L_CD_MAXPRIO, L_CD_WSN, L_CD_NATIVEL,
     1008    15711    1             L_CD_SYS, L_CD_ADMIN, L_CD_COMM, L_CD_DEV, L_CD_SLAVE,
     1009    15712    1             L_CD_TP, L_CD_CMD ),
     1010    15713    1          2 OUT_ORDR(0:5) UBIN BYTE CALIGNED INIT(
     1011    15714    1             L_CD_PROFILE, L_CD_PASSWORD, L_CD_USE, L_CD_TYPE, L_CD_FORM,
     1012    15715    1             L_CD_UPLOCK ),
     1013    15716    1          2 IN_ORDR(0:10) UBIN BYTE CALIGNED INIT(
     1014    15717    1             L_CD_PROFILE, L_CD_PASSWORD, L_CD_USE, L_CD_TYPE, L_CD_WSN,
     1015    15718    1             L_CD_DEFPRIO, L_CD_MAXPRIO, L_CD_NCTL, L_CD_NCOK, L_CD_NCACCT,
     1016    15719    1             L_CD_NCFID ),
     1017    15720    1          2 CG_ORDR(0:10) UBIN BYTE CALIGNED INIT(
     1018    15721    1             L_CD_PROFILE, L_CD_PASSWORD, L_CD_USE, L_CD_SNAME, L_CD_NOCG,
     1019    15722    1             L_CD_USER1, L_CD_USER2, L_CD_USER3, L_CD_USER4,L_CD_COMGROUP,
     1020    15723    1             L_CD_CMD ),
     1021    15724    1          2 TP_ORDR(0:8) UBIN BYTE CALIGNED INIT(
     1022    15725    1             L_CD_PROFILE, L_CD_PASSWORD, L_CD_USE, L_CD_INSTANCE, L_CD_SNAME,
     1023    15726    1             L_CD_PRIORITY, L_CD_MCT, L_CD_NOCG, L_CD_CMD ),
     1024    15727    1          2 RES_CL_ORDR(0:24) UBIN BYTE CALIGNED INIT(
     1025    15728    1             L_CD_USE, L_CD_TYPE, L_CD_PROFILE, L_CD_PASSWORD,
     1026    15729    1             L_CD_MODE, L_CD_RNAME, L_CD_AUACCT, L_CD_HAYES, L_CD_X28, L_CD_TCPIP,
     1027    15730    1             L_CD_B300, L_CD_B1200, L_CD_B2400, L_CD_RFU1, L_CD_RFU2,
PL6.E3A0      #003=ASL$DISP_ONE_DEVICE File=ASL$LIST_DEVICES.:E05TSI             TUE 07/29/97 10:12 Page:176
     1028    15731    1             L_CD_RFU3, L_CD_RFU4, L_CD_RFU5, L_CD_RFU6, L_CD_RFU7,
     1029    15732    1             L_CD_RFU8, L_CD_RFU9, L_CD_RFU10, L_CD_RFU11, L_CD_RFU13 ),
     1030    15733    1          2 RES_ORDR(0:3) UBIN BYTE CALIGNED INIT(
     1031    15734    1             L_CD_USE, L_CD_TYPE, L_CD_PROFILE, L_CD_PASSWORD );
     1032    15735    1   DCL CG_STR         CHAR(0) CONSTANT INIT('CG');
     1033    15736    1   DCL COMMANDS_STR   CHAR(0) CONSTANT INIT('COMMANDS');
     1034    15737    1   DCL CONSOLE_STR    CHAR(0) CONSTANT INIT('CONSOLE');
     1035    15738    1   DCL DEVICE_STR     CHAR(0) CONSTANT INIT('DEVICE');
     1036    15739    1   DCL DEVWSNS_HDR    CHAR(0) CONSTANT INIT (
             15739            'The WSNs associated with this device are:');
     1037    15740    1   DCL DISPLAY_STR    CHAR(0) CONSTANT INIT('DISPLAY');
     1038    15741    1   DCL FIXED_STR      CHAR(0) CONSTANT INIT('FIXED');
     1039    15742    1   DCL INCOMING_STR   CHAR(0) CONSTANT INIT('INCOMING ');
     1040    15743    1   DCL INFORM_STR     CHAR(0) CONSTANT INIT('INFORM');
     1041    15744    1   DCL IN_STR         CHAR(0) CONSTANT INIT('IN');
     1042    15745    1   DCL KEYIN_STR      CHAR(0) CONSTANT INIT('KEYIN');
     1043    15746    1   DCL LINK_STR       CHAR(0) CONSTANT INIT(' FOR LINK ');
     1044    15747    1   DCL NONE_STR       CHAR(0) CONSTANT INIT('NONE');
     1045    15748    1   DCL NO_STR         CHAR(0) CONSTANT INIT('NO');
     1046    15749    1   DCL OK_STR         CHAR(0) CONSTANT INIT('OK');
     1047    15750    1   DCL OUTGOING_STR   CHAR(0) CONSTANT INIT('OUTGOING');
     1048    15751    1   DCL OUT_STR        CHAR(0) CONSTANT INIT('OUT');
     1049    15752    1   DCL REJECT_STR     CHAR(0) CONSTANT INIT('REJECT');
     1050    15753    1   DCL RES_STR        CHAR(0) CONSTANT INIT('RESOURCE');
     1051    15754    1   DCL STATION_STR    CHAR(0) CONSTANT INIT(' FOR STATION ');
     1052    15755    1   DCL TERMINAL_STR   CHAR(0) CONSTANT INIT(' FOR TERMINAL ');
     1053    15756    1   DCL TP_STR         CHAR(0) CONSTANT INIT('TP');
     1054    15757    1   DCL YES_STR        CHAR(0) CONSTANT INIT('YES');
     1055    15758        /********************************************************************/
     1056    15759        /*   Auto data       auto data       auto data       auto data      */
     1057    15760        /********************************************************************/
     1058    15761    1   DCL CG                            CHAR(32);
     1059    15762    1   DCL CGCNT                         UBIN;
     1060    15763    1   DCL CMD                           CHAR(80);
     1061    15764    1   DCL CMDCNT                        UBIN;
     1062    15765    1   DCL 1 DEV_NAME,
     1063    15766    1          2 COUNT                    UBIN BYTE CALIGNED,
PL6.E3A0      #003=ASL$DISP_ONE_DEVICE File=ASL$LIST_DEVICES.:E05TSI             TUE 07/29/97 10:12 Page:177
     1064    15767    1          2 TEXT                     CHAR(8) CALIGNED,
     1065    15768    1          2 UNAME                    CHAR(12) CALIGNED,
     1066    15769    1          2 *                        CHAR(21) CALIGNED;
     1067    15770    1   DCL I                             SBIN;
     1068    15771    1   DCL INSTANCE                      CHAR(18);
     1069    15772    1   DCL INSTANCECNT                   UBIN;
     1070    15773    1   DCL LEN                           SBIN;
     1071    15774    1   DCL L_TYPE                        UBIN;
     1072    15775    1   DCL MASK                          BIT(18);
     1073    15776    1   DCL NEXT                          SBIN;
     1074    15777    1   DCL NUM_OPTS                      UBIN;
     1075    15778    1   DCL OPT_ORDR$                     PTR;
     1076    15779    1   DCL SBINS   (0:99)                SBIN;
     1077    15780    1   DCL SBIN_IDX                      SBIN;
     1078    15781    1   DCL ST_IDX                        SBIN;
     1079    15782    1   DCL T_SNAME                       CHAR(8) ;
     1080    15783        %EJECT;
PL6.E3A0      #003=ASL$DISP_ONE_DEVICE File=ASL$LIST_DEVICES.:E05TSI             TUE 07/29/97 10:12 Page:178
     1081    15784        /********************************************************************/
     1082    15785        /*   Procedure       procedure       procedure       procedure      */
     1083    15786        /********************************************************************/
     1084    15787
     1085    15788    1   IF (KL$DREC.ATYP = 0) THEN RETURN; /* This stops the listing of wsndev
     1086    15789                                               records */
     1087    15790    2   DO SELECT ( KL$DREC.SUPER );
     1088    15791    2      SELECT ( AS_IN_DEV# );
     1089    15792    2      L_TYPE = L_IN_DEV;
     1090    15793    2      OPT_ORDR$ = ADDR(OPT_TBL.IN_ORDR);
     1091    15794    2      NUM_OPTS  = LENGTHC(OPT_TBL.IN_ORDR);
     1092    15795    2      SELECT ( AS_OUT_DEV# );
     1093    15796    2      L_TYPE = L_OUT_DEV;
     1094    15797    2      OPT_ORDR$ = ADDR(OPT_TBL.OUT_ORDR);
     1095    15798    2      NUM_OPTS  = LENGTHC(OPT_TBL.OUT_ORDR);
     1096    15799    2      SELECT ( AS_CG_DEV# );
     1097    15800    2      L_TYPE = L_CG_DEV;
     1098    15801    2      OPT_ORDR$ = ADDR(OPT_TBL.CG_ORDR);
     1099    15802    2      NUM_OPTS  = LENGTHC(OPT_TBL.CG_ORDR);
     1100    15803    2      SELECT ( AS_TP_DEV# );
     1101    15804    2      L_TYPE = L_TP_DEV;
     1102    15805    2      OPT_ORDR$ = ADDR(OPT_TBL.TP_ORDR);
     1103    15806    2      NUM_OPTS  = LENGTHC(OPT_TBL.TP_ORDR);
     1104    15807    2      SELECT ( AS_CON# );
     1105    15808    2      L_TYPE = L_CONSOLE;
     1106    15809    2      OPT_ORDR$ = ADDR(OPT_TBL.CON_ORDR);
     1107    15810    2      NUM_OPTS  = LENGTHC(OPT_TBL.CON_ORDR);
     1108    15811    2      SELECT ( AS_RES_DEV# );
     1109    15812    2      L_TYPE = L_RES_DEV;
     1110    15813    3      IF SUBSTR (RESCL$DREC.RENAME,0,2) = 'CL' THEN DO;
     1111    15814    3         OPT_ORDR$ = ADDR(OPT_TBL.RES_CL_ORDR);
     1112    15815    3         NUM_OPTS  = LENGTHC(OPT_TBL.RES_CL_ORDR);
     1113    15816    3         END;   /*  Type = cl  */
     1114    15817    3      ELSE DO;
     1115    15818    3         OPT_ORDR$ = ADDR(OPT_TBL.RES_ORDR);
     1116    15819    3         NUM_OPTS  = LENGTHC(OPT_TBL.RES_ORDR);
     1117    15820    3         END;   /*  Not type = cl  */
PL6.E3A0      #003=ASL$DISP_ONE_DEVICE File=ASL$LIST_DEVICES.:E05TSI             TUE 07/29/97 10:12 Page:179
     1118    15821
     1119    15822    2      SELECT ( ELSE );
     1120    15823    2   RETURN;
     1121    15824    2      END;
     1122    15825    1   DEV_NAME = USERS_KEY;
     1123    15826    2   DO SELECT ( L_TYPE );
     1124    15827    2      SELECT ( L_CONSOLE );
     1125    15828    2      FMT_VEC(0) = VECTOR(CONSOLE_STR);
     1126    15829    2      SELECT ( ELSE );
     1127    15830    2   FMT_VEC(0) = VECTOR(DEVICE_STR);
     1128    15831    2      END;  /*  Case L_TYPE  */
     1129    15832    2   IF DEV_NAME.COUNT = 8 THEN DO;
     1130    15833    2      LEN = 4;
     1131    15834    2      END;  /*  Count = 8  */
     1132    15835    2   ELSE DO;
     1133    15836    2      LEN = 8;
     1134    15837    2      END; /*  If count ~= 8  */
     1135    15838    2   IF NOT TERMINAL THEN DO;
     1136    15839    2      FMT_VEC(1) = VECTOR( SUBSTR(DEV_NAME.TEXT,0,LEN) );
     1137    15840    2      FDS.NVECS# = 2;
     1138    15841    3      IF JCL THEN DO;
     1139    15842    3         FMT_BUF = 'CREATE ';
     1140    15843    3         FDS.FMT_.BOUND = 6;
     1141    15844    3         END;   /*  Jcl  */
     1142    15845    3      ELSE DO;
     1143    15846    3         FMT_BUF = ' ';
     1144    15847    3         FDS.FMT_.BOUND = 0;
     1145    15848    3         END;  /*   Not jcl  */
     1146    15849    3      IF L_TYPE = L_TP_DEV AND DEV_NAME.UNAME ~= '*' THEN DO;
     1147    15850    3         SUBSTR (FMT_BUF,FDS.FMT_.BOUND+1,13) = 'TP %A %>A,%>A';
     1148    15851    3         FDS.FMT_.BOUND = FDS.FMT_.BOUND + 13;
     1149    15852    3         FMT_VEC (FDS.NVECS#) = VECTOR (DEV_NAME.UNAME);
     1150    15853    3         FDS.NVECS# = FDS.NVECS# + 1;
     1151    15854    3         END;   /*  Tp dev with a uname  */
     1152    15855    3      ELSE DO;
     1153    15856    3         SUBSTR (FMT_BUF, FDS.FMT_.BOUND+1, 6) = '%A %>A';
     1154    15857    3         FDS.FMT_.BOUND = FDS.FMT_.BOUND + 6;
PL6.E3A0      #003=ASL$DISP_ONE_DEVICE File=ASL$LIST_DEVICES.:E05TSI             TUE 07/29/97 10:12 Page:180
     1155    15858    3         END;  /*  Not tp  */
     1156    15859    2      END;   /*  Not terminal  */
     1157    15860    2   ELSE DO;
     1158    15861    2      FDS.NVECS# = 1;
     1159    15862    2      FMT_BUF = '%A';
     1160    15863    2      FDS.FMT_.BOUND = 1;
     1161    15864    2      END;  /*  Terminal  */
     1162    15865    2   IF NOT TERMINAL THEN DO;
     1163    15866    2      IF ((L_TYPE = L_CG_DEV) OR (L_TYPE = L_TP_DEV)) AND DEV_NAME.COUNT ~= 8 THEN
     1164    15867    2         GOTO NO_STATION;
     1165    15868    2      IF KL$DREC.TNAME = ' '
     1166    15869                                           /*  Is it a tdev??  */
     1167    15870    3      THEN DO;
     1168    15871    3         USERS_KEY.COUNT = 15;
     1169    15872    3         T_SNAME = KL$DREC.SNAME ;
     1170    15873    3         CALL CONCAT( USERS_KEY.TXTC, T_SNAME, 'STATION' );
     1171    15874    3         END; /* Then do */
     1172    15875    3      ELSE DO;
     1173    15876    4         IF JCL THEN DO;
     1174    15877    4            FMT_BUF = ' ';
     1175    15878    4            FDS.FMT_.BOUND = 0;
     1176    15879    4            FDS.NVECS# = 0;
     1177    15880    4            RETURN;
     1178    15881    4            END;   /*  Jcl  */
     1179    15882    4         ELSE DO;
     1180    15883    4            USERS_KEY.COUNT = 9;
     1181    15884    4            T_SNAME = KL$DREC.TNAME ;
     1182    15885    4            CALL CONCAT( USERS_KEY.TXTC, T_SNAME, '*' );
     1183    15886    4            END;  /*  Else do  */
     1184    15887    3         END; /* Else do */
     1185    15888    2      I = DSEG1SIZE;
     1186    15889    2      CALL ASB$READ_HLP( DSEG1$, I ) WHENALTRETURN
     1187    15890    3      DO ;
     1188    15891    3         CALL ASA$ERROR( USERS_KEY, E$UNABLE_TO_READ_HLP );
     1189    15892    3         RETURN;
     1190    15893    3         END;  /*  Whenaltreturn  */
     1191    15894    2      IF DSEG1$->KL$DREC.ATYP = %KLAT_STA# THEN
PL6.E3A0      #003=ASL$DISP_ONE_DEVICE File=ASL$LIST_DEVICES.:E05TSI             TUE 07/29/97 10:12 Page:181
     1192    15895    2         FMT_VEC(FDS.NVECS#) = VECTOR(STATION_STR);
     1193    15896    2      ELSE
     1194    15897    2         IF DSEG1$->KL$DREC.ATYP = %KLAT_TRM# THEN
     1195    15898    2            FMT_VEC(FDS.NVECS#) = VECTOR(TERMINAL_STR);
     1196    15899    2      FDS.NVECS# = FDS.NVECS# + 1;
     1197    15900    2      FMT_VEC(FDS.NVECS#) = VECTOR(T_SNAME);
     1198    15901    2      FDS.NVECS# = FDS.NVECS# + 1;
     1199    15902    2      SUBSTR (FMT_BUF,FDS.FMT_.BOUND+1,5) = '%A%>A';
     1200    15903    2      FDS.FMT_.BOUND = FDS.FMT_.BOUND + 5;
     1201    15904    2      IF (L_TYPE = L_TP_DEV) AND
     1202    15905    2           (DEV_NAME.UNAME ~= '*') AND
     1203    15906    2           (DEV_NAME.COUNT > 8) THEN
     1204    15907    3      DO;
     1205    15908    3         SUBSTR (FMT_BUF,FDS.FMT_.BOUND+1,4) = ',%>A';
     1206    15909    3         FDS.FMT_.BOUND = FDS.FMT_.BOUND + 4;
     1207    15910    3         FMT_VEC (FDS.NVECS#) = VECTOR (DEV_NAME.UNAME);
     1208    15911    3         FDS.NVECS# = FDS.NVECS# + 1;
     1209    15912    3         END;
     1210    15913    2      END;  /*  Terminal  */
     1211    15914    1   NO_STATION:
     1212    15915    1   CALL X$FORMAT(FDS);
     1213    15916    1   FDS.NVECS# = 0;
     1214    15917
     1215    15918    1   ST_IDX = 0;
     1216    15919
     1217    15920    1   FDS.TABDFLT# = 36;
     1218    15921    1   FMT_BUF = '%\';
     1219    15922    1   FDS.FMT_.BOUND = 1;
     1220    15923    1   SBIN_IDX = 0 ;
     1221    15924    1   FDS.NVECS# = 0 ;
     1222    15925
     1223    15926    2   DO WHILE(ST_IDX < NUM_OPTS );
     1224    15927
     1225    15928    2      NEXT = OPT$ORDR(ST_IDX);
     1226    15929        /*  Get the option values length  */
     1227    15930        /*  For the variable options  */
     1228    15931
PL6.E3A0      #003=ASL$DISP_ONE_DEVICE File=ASL$LIST_DEVICES.:E05TSI             TUE 07/29/97 10:12 Page:182
     1229    15932    3      DO SELECT ( NEXT );
     1230    15933    3         SELECT ( L_CD_CMD );
     1231    15934    4         DO SELECT (L_TYPE);
     1232    15935    4            SELECT (L_CONSOLE);
     1233    15936    4            CMDCNT = CON$DREC.OCINFO.CMDCNT;
     1234    15937    4            CMD = CON$DREC.OCINFO.CMD;
     1235    15938    4            SELECT (L_CG_DEV);
     1236    15939    4            CMDCNT = CG$DEV.B$CGAUINFO.UCMDCNT;
     1237    15940    4            CMD = CG$DEV.B$CGAUINFO.UCMD;
     1238    15941    4            SELECT (L_TP_DEV);
     1239    15942    4            CMDCNT = TP$DEV.QQ$LOGON.CMDCNT;
     1240    15943    4            CMD = TP$DEV.QQ$LOGON.CMD;
     1241    15944    4            END;
     1242    15945    3         SELECT ( L_CD_COMGROUP );
     1243    15946    3         CALL INDEX( I, AS_BLANK, CG$DEV.KC$CGID.PSN# );
     1244    15947    4         IF I > 0 THEN DO;
     1245    15948    4            CALL CONCAT( CG, 'CG#', SUBSTR(CG$DEV.KC$CGID.PSN#,0,I), '/' );
     1246    15949    4            CGCNT = I + 4;
     1247    15950    4            END;
     1248    15951    4         ELSE DO;
     1249    15952    4            CG = 'CG/';
     1250    15953    4            CGCNT = 3;
     1251    15954    4            END;
     1252    15955    3         CALL INSERT( CG, CGCNT, ,
     1253    15956    3              SUBSTR(CG$DEV.KC$CGID.NAME#.TXT,0,CG$DEV.KC$CGID.NAME#.CNT),
     1254    15957    3              '.', CG$DEV.KC$CGID.ACCT# );
     1255    15958    3         CALL INDEX( I, AS_BLANK, CG$DEV.KC$CGID.ACCT# );
     1256    15959    3         CGCNT = CGCNT + CG$DEV.KC$CGID.NAME#.CNT + I + 1;
     1257    15960    3         SELECT ( L_CD_INSTANCE );
     1258    15961    4         IF TP$DEV.KC$CGID.PSN# = AS_BLANK THEN DO;
     1259    15962    4            INSTANCE = TP$DEV.KC$CGID.NAME#.TXT;
     1260    15963    4            INSTANCECNT = TP$DEV.KC$CGID.NAME#.CNT;
     1261    15964    4            END;
     1262    15965    4         ELSE DO;
     1263    15966    4            CALL INDEX( I, AS_BLANK, TP$DEV.KC$CGID.PSN# );
     1264    15967    4            CALL CONCAT( INSTANCE, 'DP#', SUBSTR(TP$DEV.KC$CGID.PSN#,0,I),
     1265    15968    4                 '.', TP$DEV.KC$CGID.NAME#.TXT );
PL6.E3A0      #003=ASL$DISP_ONE_DEVICE File=ASL$LIST_DEVICES.:E05TSI             TUE 07/29/97 10:12 Page:183
     1266    15969    4            INSTANCECNT = TP$DEV.KC$CGID.NAME#.CNT + I + 4;
     1267    15970    4            END;
     1268    15971    3         END;
     1269    15972
     1270    15973    2      CALL INSERT_FIELD ;
     1271    15974    2      CALL X$FORMAT(FDS);
     1272    15975    2      FDS.NVECS# = 0;
     1273    15976    2      FMT_BUF = '%\%-';
     1274    15977    2      FDS.FMT_.BOUND = 3;
     1275    15978    2      ST_IDX = ST_IDX + 1;
     1276    15979    2      END;
     1277    15980    1   FMT_BUF = '%\%/';
     1278    15981    1   FDS.FMT_.BOUND = 3;
     1279    15982    1   FDS.NVECS# = 0;
     1280    15983    1   CALL X$FORMAT(FDS);
     1281    15984    1   FDS.NVECS# = 0;
     1282    15985    2   IF NOT JCL THEN DO;
     1283    15986    2      CALL CONCAT (USERS_KEY.TXTC, SUBSTR (DEV_NAME.TEXT, 0, 8),'WSNS');
     1284    15987    2      USERS_KEY.COUNT = 12; /* DEVNAME=8 + 4 for 'WSNS' */
     1285    15988    2      I = DSEG1SIZE;
     1286    15989    2      CALL ASB$READ_HLP (DSEG1$, I)
     1287    15990    3      WHENRETURN DO;
     1288    15991    3         IF (DEVWSNS.NDEV > 0)
     1289    15992    4         THEN DO;
     1290    15993    4            CALL CONCAT(FMT_BUF, '%1\', DEVWSNS_HDR, '%/');
     1291    15994    4            FDS.FMT_.BOUND = LENGTHC(DEVWSNS_HDR) + 4;
     1292    15995    4            CALL X$FORMAT (FDS);
     1293    15996    4            FDS.NVECS# = 0;
     1294    15997    4            FDS.TABDFLT# = 10;
     1295    15998    5            DO I = 0 TO (DEVWSNS.NDEV - 1);
     1296    15999    6               IF I = 0 THEN DO;
     1297    16000    6                  CALL CONCAT(FMT_BUF, '%\',SUBSTR(DEVWSNS.DEV(I),0,8));
     1298    16001    6                  FDS.FMT_.BOUND = 9;
     1299    16002    6                  END;
     1300    16003    6               ELSE DO;
     1301    16004    6                  CALL CONCAT(FMT_BUF, '%\%-%10R', SUBSTR(DEVWSNS.DEV(I),0,8));
     1302    16005    6                  FDS.FMT_.BOUND = 15;
PL6.E3A0      #003=ASL$DISP_ONE_DEVICE File=ASL$LIST_DEVICES.:E05TSI             TUE 07/29/97 10:12 Page:184
     1303    16006    6                  END;
     1304    16007    5               CALL X$FORMAT (FDS);
     1305    16008    5               END; /* Do i */
     1306    16009    4            FMT_BUF = '%\%/';
     1307    16010    4            FDS.FMT_.BOUND = 3;
     1308    16011    4            FDS.NVECS# = 0;
     1309    16012    4            CALL X$FORMAT (FDS);
     1310    16013    4            END; /* Do if DEVWSNS.NDEV > 0 */
     1311    16014    3         END; /* Whenreturn */
     1312    16015    3      WHENALTRETURN DO; /* Just in case there is no devwsn record */
     1313    16016    3         END;
     1314    16017    2      CALL ASB$WRITE_LO( AS_BLANK, 1 );
     1315    16018    2      END; /*  Not jcl  */
     1316    16019    1   RETURN;
     1317    16020
     1318    16021    1   INSERT_FIELD: PROC;
     1319    16022        %SUB C_ATTRIBUTES = 4;
     1320    16023        %SUB C_OCTAL = 5;
     1321    16024    2   DCL CLASS SBIN;
     1322    16025    2   DCL YES_NO BIT(1) ALIGNED;
     1323    16026
     1324    16027
     1325    16028    3   DO CASE (NEXT);
     1326    16029
     1327    16030    3      CASE (L_CD_PROFILE);
     1328    16031    4         IF KL$DREC.PNAME.CNT = 0 THEN DO;
     1329    16032    4            FMT_VEC(FDS.NVECS# + 2) = VECTOR ( NONE_STR) ;
     1330    16033    4            LEN = 4;
     1331    16034    4            END;   /*  Blank profile  */
     1332    16035    4         ELSE DO;
     1333    16036    4            FMT_VEC(FDS.NVECS# + 2) = VECTOR(ADDR(KL$DREC.PNAME)->TEXT$C.C);
     1334    16037    4            LEN = KL$DREC.PNAME.CNT;
     1335    16038    4            END;   /*  Non blank profile  */
     1336    16039    3         CLASS = C_TEXT;
     1337    16040
     1338    16041    3      CASE (L_CD_PASSWORD);
     1339    16042    4         IF NOT TERMINAL THEN DO;
PL6.E3A0      #003=ASL$DISP_ONE_DEVICE File=ASL$LIST_DEVICES.:E05TSI             TUE 07/29/97 10:12 Page:185
     1340    16043    5            IF KL$DREC.PASSWORD= BLANK_PASS THEN DO;
     1341    16044    5               FMT_VEC(FDS.NVECS# + 2) = VECTOR(NONE_STR);
     1342    16045    5               CLASS= C_TEXT;
     1343    16046    5               LEN = 4;
     1344    16047    5               END;
     1345    16048    5            ELSE DO;
     1346    16049    5               FMT_VEC(FDS.NVECS# + 2) = VECTOR ( SUBSTR(KL$DREC.PASSWORD,0,4) );
     1347    16050    5               FMT_VEC(FDS.NVECS# + 3) = VECTOR ( SUBSTR(KL$DREC.PASSWORD,4,4) );
     1348    16051    5               CLASS = C_OCTAL;
     1349    16052    5               LEN = 27;
     1350    16053    5               END;  /* BLANK_PASS */
     1351    16054    4            END;  /*  Not terminal  */
     1352    16055
     1353    16056    3      CASE (L_CD_MAXPRIO);
     1354    16057    4         DO CASE (L_TYPE);
     1355    16058    4            CASE (L_CONSOLE);
     1356    16059    4               SBINS(SBIN_IDX + 1) = CON$DREC.OCINFO.MXPRI;
     1357    16060    4            CASE (L_IN_DEV);
     1358    16061    4               SBINS(SBIN_IDX + 1) = IN$DEV.ISINFO.MXPRI;
     1359    16062    4            END;
     1360    16063    3         CLASS = C_SBIN;
     1361    16064    3         LEN = 3;
     1362    16065
     1363    16066    3      CASE (L_CD_WSN);
     1364    16067    4         DO CASE (L_TYPE);
     1365    16068    4            CASE (L_CONSOLE);
     1366    16069    5               IF CON$DREC.OCINFO.WSN = ' ' THEN DO;
     1367    16070    5                  FMT_VEC ( FDS.NVECS# + 2 ) = VECTOR (NONE_STR);
     1368    16071    5                  LEN = 4;
     1369    16072    5                  END;   /*  Blank wsn  */
     1370    16073    5               ELSE DO;
     1371    16074    5                  FMT_VEC(FDS.NVECS# + 2) = VECTOR( CON$DREC.OCINFO.WSN );
     1372    16075    5                  LEN = 8;
     1373    16076    5                  END;  /*  Non blank wsn  */
     1374    16077
     1375    16078    4            CASE (L_IN_DEV);
     1376    16079    5               IF IN$DEV.ISINFO.WSN = ' ' THEN DO;
PL6.E3A0      #003=ASL$DISP_ONE_DEVICE File=ASL$LIST_DEVICES.:E05TSI             TUE 07/29/97 10:12 Page:186
     1377    16080    5                  FMT_VEC ( FDS.NVECS# + 2 ) = VECTOR (NONE_STR);
     1378    16081    5                  LEN = 4;
     1379    16082    5                  END;   /*  Blank wsn  */
     1380    16083    5               ELSE DO;
     1381    16084    5                  FMT_VEC(FDS.NVECS# + 2) = VECTOR( IN$DEV.ISINFO.WSN );
     1382    16085    5                  LEN = 8;
     1383    16086    5                  END;  /*  Non blank wsn  */
     1384    16087    4            END;
     1385    16088    3         CLASS = C_TEXT;
     1386    16089
     1387    16090    3      CASE (L_CD_SYS);
     1388    16091    3         MASK = K_SYS;
     1389    16092    3         CLASS = C_ATTRIBUTES;
     1390    16093    3         LEN = 7;
     1391    16094
     1392    16095    3      CASE (L_CD_ADMIN);
     1393    16096    3         MASK = K_ADMIN;
     1394    16097    3         CLASS = C_ATTRIBUTES;
     1395    16098    3         LEN = 7;
     1396    16099
     1397    16100    3      CASE (L_CD_COMM);
     1398    16101    3         MASK = K_COMM;
     1399    16102    3         CLASS = C_ATTRIBUTES;
     1400    16103    3         LEN = 7;
     1401    16104
     1402    16105    3      CASE (L_CD_DEV);
     1403    16106    3         MASK = K_DEVC;
     1404    16107    3         CLASS = C_ATTRIBUTES;
     1405    16108    3         LEN = 7;
     1406    16109
     1407    16110    3      CASE (L_CD_SLAVE);
     1408    16111    3         MASK = K_SLAVE;
     1409    16112    3         CLASS = C_ATTRIBUTES;
     1410    16113    3         LEN = 7;
     1411    16114
     1412    16115    3      CASE (L_CD_TP);
     1413    16116    3         MASK = K_TP;
PL6.E3A0      #003=ASL$DISP_ONE_DEVICE File=ASL$LIST_DEVICES.:E05TSI             TUE 07/29/97 10:12 Page:187
     1414    16117    3         CLASS = C_ATTRIBUTES;
     1415    16118    3         LEN = 7;
     1416    16119
     1417    16120    3      CASE (L_CD_CMD);
     1418    16121    3         IF CMDCNT = 0 THEN
     1419    16122    4         DO;
     1420    16123    4            FMT_VEC(FDS.NVECS# + 2) = VECTOR( NONE_STR );
     1421    16124    4            LEN = 4;
     1422    16125    4            END;
     1423    16126    4         ELSE DO;
     1424    16127    4            FMT_VEC(FDS.NVECS# + 2) = VECTOR( SUBSTR(CMD,0,CMDCNT) );
     1425    16128    4            LEN = CMDCNT;
     1426    16129    4            END;
     1427    16130    3         CLASS = C_TEXT;
     1428    16131
     1429    16132    3      CASE (L_CD_NATIVEL);
     1430    16133    4         IF CON$DREC.OCINFO.LANG = ' ' THEN DO;
     1431    16134    4            FMT_VEC (FDS.NVECS# + 2) = VECTOR (NONE_STR) ;
     1432    16135    4            LEN = 4;
     1433    16136    4            END;  /*  Blank  */
     1434    16137    4         ELSE DO;
     1435    16138    4            FMT_VEC(FDS.NVECS# + 2) = VECTOR( CON$DREC.OCINFO.LANG );
     1436    16139    4            LEN = 1;
     1437    16140    4            END;  /*  Not blank  */
     1438    16141    3         CLASS = C_TEXT;
     1439    16142
     1440    16143    3      CASE (L_CD_USE);
     1441    16144    4         DO CASE (L_TYPE);
     1442    16145    4            CASE (L_OUT_DEV);
     1443    16146    4               FMT_VEC(FDS.NVECS# + 2) = VECTOR( OUT_STR);
     1444    16147    4            CASE (L_IN_DEV);
     1445    16148    4               FMT_VEC(FDS.NVECS# + 2) = VECTOR( IN_STR);
     1446    16149    4            CASE (L_CG_DEV);
     1447    16150    4               FMT_VEC(FDS.NVECS# + 2) = VECTOR( CG_STR);
     1448    16151    4            CASE (L_TP_DEV);
     1449    16152    4               FMT_VEC(FDS.NVECS# + 2) = VECTOR( TP_STR);
     1450    16153    4            CASE (L_RES_DEV);
PL6.E3A0      #003=ASL$DISP_ONE_DEVICE File=ASL$LIST_DEVICES.:E05TSI             TUE 07/29/97 10:12 Page:188
     1451    16154    4               FMT_VEC(FDS.NVECS# + 2) = VECTOR( RES_STR);
     1452    16155    4            END;
     1453    16156    3         CLASS = C_TEXT;
     1454    16157    3         LEN = 3;
     1455    16158
     1456    16159    3      CASE (L_CD_TYPE);
     1457    16160    3         IF DEV_NAME.COUNT = 8 THEN
     1458    16161    3            FMT_VEC(FDS.NVECS# + 2) = VECTOR( SUBSTR(DEV_NAME.TEXT,0,2) );
     1459    16162    3         ELSE
     1460    16163    3            FMT_VEC(FDS.NVECS# + 2) = VECTOR( SUBSTR(KL$DREC.RENAME,0,2) );
     1461    16164    3         CLASS = C_TEXT;
     1462    16165    3         LEN = 2;
     1463    16166
     1464    16167    3      CASE (L_CD_UPLOCK );
     1465    16168    3         YES_NO = OUT$DEV.OSINFO.UPLOCKED;
     1466    16169    3         CLASS = C_YESNO;
     1467    16170    3         LEN = 3;
     1468    16171
     1469    16172    3      CASE (L_CD_FORM);
     1470    16173    3         FMT_VEC(FDS.NVECS# + 2) = VECTOR( OUT$DEV.OSINFO.FNAME );
     1471    16174    3         CLASS = C_TEXT;
     1472    16175    3         LEN = SIZEC (OUT$DEV.OSINFO.FNAME);
     1473    16176
     1474    16177    3      CASE (L_CD_DEFPRIO);
     1475    16178    3         SBINS(SBIN_IDX + 1) = IN$DEV.ISINFO.DFPRI;
     1476    16179    3         CLASS = C_SBIN;
     1477    16180    3         LEN = 3;
     1478    16181
     1479    16182    3      CASE (L_CD_NCTL);
     1480    16183    3         YES_NO = IN$DEV.ISINFO.NCTL;
     1481    16184    3         CLASS = C_YESNO;
     1482    16185    3         LEN = 3;
     1483    16186
     1484    16187    3      CASE (L_CD_NCOK);
     1485    16188    3         YES_NO = IN$DEV.ISINFO.NCTLOK;
     1486    16189    3         CLASS = C_YESNO;
     1487    16190    3         LEN = 3;
PL6.E3A0      #003=ASL$DISP_ONE_DEVICE File=ASL$LIST_DEVICES.:E05TSI             TUE 07/29/97 10:12 Page:189
     1488    16191
     1489    16192    3      CASE (L_CD_NCACCT);
     1490    16193    3         FMT_VEC(FDS.NVECS# + 2) = VECTOR( IN$DEV.ISINFO.NCACCT );
     1491    16194    3         CLASS = C_TEXT;
     1492    16195    3         LEN = 12;
     1493    16196
     1494    16197    3      CASE (L_CD_NCFID);
     1495    16198    3         CALL INDEX (LEN, AS_BLANK, IN$DEV.ISINFO.NFID);
     1496    16199    4         IF LEN = 0 THEN DO;
     1497    16200    4            FMT_VEC ( FDS.NVECS# + 2) = VECTOR (NONE_STR);
     1498    16201    4            LEN = 4;
     1499    16202    4            END;   /*  Blank fid  */
     1500    16203    3         ELSE
     1501    16204    3            FMT_VEC(FDS.NVECS# + 2) = VECTOR(SUBSTR(IN$DEV.ISINFO.NFID,0,LEN));
     1502    16205    3         CLASS = C_TEXT;
     1503    16206
     1504    16207    3      CASE ( L_CD_COMGROUP );
     1505    16208    3         FMT_VEC(FDS.NVECS# + 2) = VECTOR( SUBSTR(CG,0,CGCNT) );
     1506    16209    3         CLASS = C_TEXT;
     1507    16210    3         LEN = CGCNT;
     1508    16211
     1509    16212    3      CASE (L_CD_SNAME);
     1510    16213    4         IF KL$DREC.RENAME = ' ' THEN DO;
     1511    16214    4            FMT_VEC(FDS.NVECS# + 2) = VECTOR( NONE_STR );
     1512    16215    4            LEN = SIZEC (NONE_STR);
     1513    16216    4            END;
     1514    16217    4         ELSE DO;
     1515    16218    4            FMT_VEC(FDS.NVECS# + 2) = VECTOR( KL$DREC.RENAME );
     1516    16219    4            LEN = SIZEC (KL$DREC.RENAME);
     1517    16220    4            END;
     1518    16221    3         CLASS = C_TEXT;
     1519    16222
     1520    16223    3      CASE (L_CD_NOCG);
     1521    16224    3         IF KL$DREC.FLAGS.NOCGREJ THEN
     1522    16225    4         DO;
     1523    16226    4            FMT_VEC(FDS.NVECS# + 2) = VECTOR( REJECT_STR );
     1524    16227    4            LEN = 6;
PL6.E3A0      #003=ASL$DISP_ONE_DEVICE File=ASL$LIST_DEVICES.:E05TSI             TUE 07/29/97 10:12 Page:190
     1525    16228    4            END;
     1526    16229    3         ELSE
     1527    16230    3            IF KL$DREC.FLAGS.NOCGINF THEN
     1528    16231    4            DO;
     1529    16232    4               FMT_VEC(FDS.NVECS# + 2) = VECTOR( INFORM_STR );
     1530    16233    4               LEN = 6;
     1531    16234    4               END;
     1532    16235    4            ELSE DO;
     1533    16236    4               FMT_VEC(FDS.NVECS# + 2) = VECTOR( OK_STR );
     1534    16237    4               LEN = 2;
     1535    16238    4               END;
     1536    16239    3         CLASS = C_TEXT;
     1537    16240
     1538    16241    3      CASE (L_CD_USER1);
     1539    16242    3         SBINS(SBIN_IDX + 1) = CG$DEV.B$CGAUINFO.USER1;
     1540    16243    3         CLASS = C_SBIN;
     1541    16244    3         LEN = 11;
     1542    16245
     1543    16246    3      CASE (L_CD_USER2);
     1544    16247    3         SBINS(SBIN_IDX + 1) = CG$DEV.B$CGAUINFO.USER2;
     1545    16248    3         CLASS = C_SBIN;
     1546    16249    3         LEN = 11;
     1547    16250
     1548    16251    3      CASE (L_CD_USER3);
     1549    16252    3         SBINS(SBIN_IDX + 1) = CG$DEV.B$CGAUINFO.USER3;
     1550    16253    3         CLASS = C_SBIN;
     1551    16254    3         LEN = 11;
     1552    16255
     1553    16256    3      CASE (L_CD_USER4);
     1554    16257    3         SBINS(SBIN_IDX + 1) = CG$DEV.B$CGAUINFO.USER4;
     1555    16258    3         CLASS = C_SBIN;
     1556    16259    3         LEN = 11;
     1557    16260
     1558    16261    3      CASE (L_CD_INSTANCE);
     1559    16262    3         FMT_VEC(FDS.NVECS# + 2) = VECTOR( SUBSTR(INSTANCE,0,INSTANCECNT) );
     1560    16263    3         CLASS = C_TEXT;
     1561    16264    3         LEN = INSTANCECNT;
PL6.E3A0      #003=ASL$DISP_ONE_DEVICE File=ASL$LIST_DEVICES.:E05TSI             TUE 07/29/97 10:12 Page:191
     1562    16265
     1563    16266    3      CASE (L_CD_PRIORITY);
     1564    16267    3         SBINS(SBIN_IDX + 1) = TP$DEV.QQ$LOGON.PRIO;
     1565    16268    3         CLASS = C_SBIN;
     1566    16269    3         LEN = 3;
     1567    16270
     1568    16271    3      CASE (L_CD_MCT );
     1569    16272        /*  This chart will show the use and combination of these bits...
     1570    16273                     | mct | mctcmd | mctd |
     1571    16274              -------|-----|--------|------|
     1572    16275                 yes |  1  |   1    |  0   |
     1573    16276              -------|-----|--------|------|
     1574    16277                 no  |  0  |   0    |  0   |
     1575    16278              -------|-----|--------|------|
     1576    16279              command|  0  |   1    |  0   |
     1577    16280              -------|-----|--------|------|
     1578    16281              display|  0  |   0    |  1   |
     1579    16282              ------------------------------
     1580    16283        and that's that!!!
     1581    16284        */
     1582    16285
     1583    16286    3         IF TP$DEV.QQ$LOGON.MCT THEN
     1584    16287    4         DO;
     1585    16288    4            FMT_VEC(FDS.NVECS# + 2) = VECTOR( YES_STR );
     1586    16289    4            LEN = 3;
     1587    16290    4            END;
     1588    16291    3         ELSE IF TP$DEV.QQ$LOGON.MCTD THEN
     1589    16292    4            DO;
     1590    16293    4               FMT_VEC(FDS.NVECS# + 2) = VECTOR( DISPLAY_STR );
     1591    16294    4               LEN = 7;
     1592    16295    4               END;
     1593    16296    3            ELSE IF TP$DEV.QQ$LOGON.MCTCMD THEN
     1594    16297    4               DO;
     1595    16298    4                  FMT_VEC(FDS.NVECS# + 2) = VECTOR( COMMANDS_STR );
     1596    16299    4                  LEN = 8;
     1597    16300    4                  END;
     1598    16301    4               ELSE DO;
PL6.E3A0      #003=ASL$DISP_ONE_DEVICE File=ASL$LIST_DEVICES.:E05TSI             TUE 07/29/97 10:12 Page:192
     1599    16302    4                  FMT_VEC(FDS.NVECS# + 2) = VECTOR( NO_STR );
     1600    16303    4                  LEN = 2;
     1601    16304    4                  END;
     1602    16305    3         CLASS = C_TEXT;
     1603    16306
     1604    16307    3      CASE ( L_CD_MODE );
     1605    16308
     1606    16309    4         DO CASE (RESCL$DREC.CL_DEV.MODE);
     1607    16310
     1608    16311    4            CASE (%KL_DEVMODE_INCOMING#);
     1609    16312
     1610    16313    4               FMT_VEC(FDS.NVECS# + 2) = VECTOR (INCOMING_STR);
     1611    16314    4               LEN = LENGTHC (INCOMING_STR);
     1612    16315
     1613    16316    4            CASE (%KL_DEVMODE_OUTGOING#);
     1614    16317
     1615    16318    4               FMT_VEC(FDS.NVECS# + 2) = VECTOR (OUTGOING_STR);
     1616    16319    4               LEN = LENGTHC (OUTGOING_STR);
     1617    16320
     1618    16321    4            CASE (%KL_DEVMODE_FIXED#);
     1619    16322
     1620    16323    4               FMT_VEC(FDS.NVECS# + 2) = VECTOR (FIXED_STR);
     1621    16324    4               LEN = LENGTHC (FIXED_STR);
     1622    16325
     1623    16326    4            CASE (ELSE);
     1624    16327
     1625    16328    4               FMT_VEC(FDS.NVECS# + 2) = VECTOR (NONE_STR);
     1626    16329    4               LEN = LENGTHC (NONE_STR);
     1627    16330
     1628    16331    4            END; /*  Do case mode  */
     1629    16332
     1630    16333    3         CLASS = C_TEXT;
     1631    16334
     1632    16335    3      CASE ( L_CD_RNAME );
     1633    16336
     1634    16337    3         FMT_VEC(FDS.NVECS# + 2) = VECTOR (RESCL$DREC.CL_DEV.RNAME);
     1635    16338    3         LEN = LENGTHC (RESCL$DREC.CL_DEV.RNAME);
PL6.E3A0      #003=ASL$DISP_ONE_DEVICE File=ASL$LIST_DEVICES.:E05TSI             TUE 07/29/97 10:12 Page:193
     1636    16339    3         CLASS = C_TEXT;
     1637    16340
     1638    16341    3      CASE ( L_CD_AUACCT );
     1639    16342
     1640    16343    4         IF RESCL$DREC.CL_DEV.AUACCOUNT = ' ' THEN DO;
     1641    16344    4            FMT_VEC(FDS.NVECS# + 2) = VECTOR ( NONE_STR );
     1642    16345    4            LEN = 4;
     1643    16346    4            END;  /*  Blank  */
     1644    16347    4         ELSE DO;
     1645    16348    4            FMT_VEC(FDS.NVECS# + 2) = VECTOR (RESCL$DREC.CL_DEV.AUACCOUNT);
     1646    16349    4            LEN = LENGTHC (RESCL$DREC.CL_DEV.AUACCOUNT);
     1647    16350    4            END;  /*  Non blank  */
     1648    16351    3         CLASS = C_TEXT;
     1649    16352
     1650    16353    3      CASE ( L_CD_B300 );
     1651    16354
     1652    16355    3         YES_NO = RESCL$DREC.CL_DEV.ATTR.B300#;
     1653    16356    3         GOTO CHECK_TCPIP_ATTR;
     1654    16357
     1655    16358    3      CASE ( L_CD_B1200 );
     1656    16359
     1657    16360    3         YES_NO = RESCL$DREC.CL_DEV.ATTR.B1200#;
     1658    16361    3         GOTO CHECK_TCPIP_ATTR;
     1659    16362
     1660    16363    3      CASE ( L_CD_B2400 );
     1661    16364
     1662    16365    3         YES_NO = RESCL$DREC.CL_DEV.ATTR.B2400#;
     1663    16366    3   CHECK_TCPIP_ATTR: ;
     1664    16367    3         IF RESCL$DREC.CL_DEV.ATTR.TCPIP# THEN
     1665    16368    3            NEXT = NEXT + L_CD_TCP_PRIV - L_CD_B300; /* Show tcpip names */
     1666    16369    3         CLASS = C_YESNO;
     1667    16370    3         LEN = 3;
     1668    16371
     1669    16372    3      CASE ( L_CD_HAYES );
     1670    16373
     1671    16374    3         YES_NO = RESCL$DREC.CL_DEV.ATTR.HAYES#;
     1672    16375    3         CLASS = C_YESNO;
PL6.E3A0      #003=ASL$DISP_ONE_DEVICE File=ASL$LIST_DEVICES.:E05TSI             TUE 07/29/97 10:12 Page:194
     1673    16376    3         LEN = 3;
     1674    16377
     1675    16378    3      CASE ( L_CD_X28 );
     1676    16379
     1677    16380    3         YES_NO = RESCL$DREC.CL_DEV.ATTR.X28#;
     1678    16381    3         CLASS = C_YESNO;
     1679    16382    3         LEN = 3;
     1680    16383
     1681    16384    3      CASE ( L_CD_RFU1 );
     1682    16385
     1683    16386    3         YES_NO = RESCL$DREC.CL_DEV.ATTR.RFU1#;
     1684    16387    3         CLASS = C_YESNO;
     1685    16388    3         LEN = 3;
     1686    16389
     1687    16390    3      CASE ( L_CD_RFU2 );
     1688    16391
     1689    16392    3         YES_NO = RESCL$DREC.CL_DEV.ATTR.RFU2#;
     1690    16393    3         CLASS = C_YESNO;
     1691    16394    3         LEN = 3;
     1692    16395
     1693    16396    3      CASE ( L_CD_RFU3 );
     1694    16397
     1695    16398    3         YES_NO = RESCL$DREC.CL_DEV.ATTR.RFU3#;
     1696    16399    3         CLASS = C_YESNO;
     1697    16400    3         LEN = 3;
     1698    16401
     1699    16402    3      CASE ( L_CD_RFU4 );
     1700    16403
     1701    16404    3         YES_NO = RESCL$DREC.CL_DEV.ATTR.RFU4#;
     1702    16405    3         CLASS = C_YESNO;
     1703    16406    3         LEN = 3;
     1704    16407
     1705    16408    3      CASE ( L_CD_RFU5 );
     1706    16409
     1707    16410    3         YES_NO = RESCL$DREC.CL_DEV.ATTR.RFU5#;
     1708    16411    3         CLASS = C_YESNO;
     1709    16412    3         LEN = 3;
PL6.E3A0      #003=ASL$DISP_ONE_DEVICE File=ASL$LIST_DEVICES.:E05TSI             TUE 07/29/97 10:12 Page:195
     1710    16413
     1711    16414    3      CASE ( L_CD_RFU6 );
     1712    16415
     1713    16416    3         YES_NO = RESCL$DREC.CL_DEV.ATTR.RFU6#;
     1714    16417    3         CLASS = C_YESNO;
     1715    16418    3         LEN = 3;
     1716    16419
     1717    16420    3      CASE ( L_CD_RFU7 );
     1718    16421
     1719    16422    3         YES_NO = RESCL$DREC.CL_DEV.ATTR.RFU7#;
     1720    16423    3         CLASS = C_YESNO;
     1721    16424    3         LEN = 3;
     1722    16425
     1723    16426    3      CASE ( L_CD_RFU8 );
     1724    16427
     1725    16428    3         YES_NO = RESCL$DREC.CL_DEV.ATTR.RFU8#;
     1726    16429    3         CLASS = C_YESNO;
     1727    16430    3         LEN = 3;
     1728    16431
     1729    16432    3      CASE ( L_CD_RFU9 );
     1730    16433
     1731    16434    3         YES_NO = RESCL$DREC.CL_DEV.ATTR.RFU9#;
     1732    16435    3         CLASS = C_YESNO;
     1733    16436    3         LEN = 3;
     1734    16437
     1735    16438    3      CASE ( L_CD_RFU10 );
     1736    16439
     1737    16440    3         YES_NO = RESCL$DREC.CL_DEV.ATTR.RFU10#;
     1738    16441    3         CLASS = C_YESNO;
     1739    16442    3         LEN = 3;
     1740    16443
     1741    16444    3      CASE ( L_CD_RFU11 );
     1742    16445
     1743    16446    3         YES_NO = RESCL$DREC.CL_DEV.ATTR.RFU11#;
     1744    16447    3         CLASS = C_YESNO;
     1745    16448    3         LEN = 3;
     1746    16449
PL6.E3A0      #003=ASL$DISP_ONE_DEVICE File=ASL$LIST_DEVICES.:E05TSI             TUE 07/29/97 10:12 Page:196
     1747    16450    3      CASE ( L_CD_TCPIP );
     1748    16451
     1749    16452    3         YES_NO = RESCL$DREC.CL_DEV.ATTR.TCPIP#;
     1750    16453    3         CLASS = C_YESNO;
     1751    16454    3         LEN = 3;
     1752    16455
     1753    16456    3      CASE ( L_CD_RFU13 );
     1754    16457
     1755    16458    3         YES_NO = RESCL$DREC.CL_DEV.ATTR.RFU13#;
     1756    16459    3         CLASS = C_YESNO;
     1757    16460    3         LEN = 3;
     1758    16461
     1759    16462    3      END;                           /* End case ... finally               */
     1760    16463    2   SBINS (SBIN_IDX) = LEN + SIZEC (OPT_TBL.HDR(NEXT));
     1761    16464    2   FMT_VEC (FDS.NVECS#) = VECTOR (SBINS(SBIN_IDX));
     1762    16465    2   FMT_VEC (FDS.NVECS#+1) = VECTOR (OPT_TBL.HDR(NEXT));
     1763    16466    2   FDS.NVECS# = FDS.NVECS# + 2;
     1764    16467    2   SBIN_IDX = SBIN_IDX + 1;
     1765    16468    2   SUBSTR (FMT_BUF, FDS.FMT_.BOUND+1,5) = '%NR%A';
     1766    16469    2   FDS.FMT_.BOUND = FDS.FMT_.BOUND + 5;
     1767    16470    3   DO SELECT (CLASS);
     1768    16471    3      SELECT (C_TEXT);
     1769    16472    3      FDS.NVECS# = FDS.NVECS# + 1;
     1770    16473    3      CALL INSERT(FMT_BUF,FDS.FMT_.BOUND+1,3,'%>A');
     1771    16474    3      FDS.FMT_.BOUND = FDS.FMT_.BOUND + 3;
     1772    16475    3      SELECT (C_SBIN);
     1773    16476    3      FMT_VEC(FDS.NVECS#) = VECTOR(SBINS(SBIN_IDX));
     1774    16477    3      FDS.NVECS# = FDS.NVECS# + 1;
     1775    16478    3      SBIN_IDX = SBIN_IDX + 1;
     1776    16479    3      CALL INSERT(FMT_BUF,FDS.FMT_.BOUND+1,3,'%+D');
     1777    16480    3      FDS.FMT_.BOUND = FDS.FMT_.BOUND + 3;
     1778    16481    3      SELECT (C_YESNO);
     1779    16482    3      IF YES_NO THEN
     1780    16483    3         FMT_VEC(FDS.NVECS#) = VECTOR(YES_STR);
     1781    16484    3      ELSE
     1782    16485    3         FMT_VEC(FDS.NVECS#) = VECTOR(NO_STR);
     1783    16486    3      FDS.NVECS# = FDS.NVECS# + 1;
PL6.E3A0      #003=ASL$DISP_ONE_DEVICE File=ASL$LIST_DEVICES.:E05TSI             TUE 07/29/97 10:12 Page:197
     1784    16487    3      CALL INSERT(FMT_BUF,FDS.FMT_.BOUND+1,3,'%>A');
     1785    16488    3      FDS.FMT_.BOUND = FDS.FMT_.BOUND + 3;
     1786    16489    3      SELECT (C_ATTRIBUTES);
     1787    16490    3      IF CON$DREC.OCINFO.KCADDR & MASK THEN
     1788    16491    3         IF CON$DREC.OCINFO.CADDR & MASK THEN
     1789    16492    3            FMT_VEC(FDS.NVECS#) = VECTOR( YES_STR );
     1790    16493    3         ELSE
     1791    16494    3            FMT_VEC(FDS.NVECS#) = VECTOR( KEYIN_STR );
     1792    16495    3      ELSE
     1793    16496    3         IF CON$DREC.OCINFO.CADDR & MASK THEN
     1794    16497    3            FMT_VEC(FDS.NVECS#) = VECTOR( DISPLAY_STR);
     1795    16498    3         ELSE
     1796    16499    3            FMT_VEC(FDS.NVECS#) = VECTOR( NO_STR );
     1797    16500    3      FDS.NVECS# = FDS.NVECS# + 1;
     1798    16501    3      CALL INSERT(FMT_BUF,FDS.FMT_.BOUND+1,3,'%>A');
     1799    16502    3      FDS.FMT_.BOUND = FDS.FMT_.BOUND + 3;
     1800    16503    3      SELECT  (C_OCTAL);
     1801    16504    3      FDS.NVECS# = FDS.NVECS# + 2;
     1802    16505    3      SUBSTR (FMT_BUF,FDS.FMT_.BOUND+1,13) = 'O''%12ZO%12ZO''';
     1803    16506    3      FDS.FMT_.BOUND = FDS.FMT_.BOUND + 13;
     1804    16507    3      END;                           /* End case                      */
     1805    16508    3   IF JCL THEN DO;
     1806    16509    3      SUBSTR (FMT_BUF,FDS.FMT_.BOUND+1,1) = ';';
     1807    16510    3      FDS.FMT_.BOUND = FDS.FMT_.BOUND + 1;
     1808    16511    3      END;  /*  Jcl  */
     1809    16512    2   RETURN;
     1810    16513    2   END INSERT_FIELD;
     1811    16514    1   END ASL$DISP_ONE_DEVICE;

PL6.E3A0      #003=ASL$DISP_ONE_DEVICE File=ASL$LIST_DEVICES.:E05TSI             TUE 07/29/97 10:12 Page:198
--  Include file information  --

   AS_SUPER_R.:E05TOU  cannot be made into a system file and is referenced.
   XU_FORMAT_C.:E05TOU  is referenced.
   XU_MACRO_C.:E05TOU  is referenced.
   KL_SUPER_C.:E05TOU  is referenced.
   CP_6.:E05TOU  cannot be made into a system file and is referenced.
   OCI_SUBS_C.:E05TOU  is referenced.
   OC$INFO.:E05TOU  is referenced.
   FI_MAC_C.:E05TOU  is referenced.
   FOO_MAC_C.:E05TOU  is referenced.
   QQ_SUPER_C.:E05TOU  is referenced.
   KC$CGBLK.:E05TOU  is referenced.
   AS_SUPER_C.:E05TOU  is referenced.
   AS_ENTRIES_M.:E05TOU  is referenced.
   AS_PERR_C.:E05TOU  is referenced.
   AS_SSUBS_C.:E05TOU  is referenced.
   AS_MAC_C.:E05TOU  cannot be made into a system file and is referenced.
   AS_SUBS_C.:E05TOU  is referenced.
   B$JIT_C.:E05TOU  was found in the system file and is never referenced.
   CP_6_C.:E05TOU  was found in the system file and is referenced.
      No diagnostics issued in procedure ASL$DISP_ONE_DEVICE.

   Procedure ASL$DISP_ONE_DEVICE requires 1796 words for executable code.
   Procedure ASL$DISP_ONE_DEVICE requires 170 words of local(AUTO) storage.

    No errors detected in file ASL$LIST_DEVICES.:E05TSI    .

PL6.E3A0      #003=ASL$DISP_ONE_DEVICE File=ASL$LIST_DEVICES.:E05TSI             TUE 07/29/97 10:12 Page:199

 Object Unit name= ASL$DISP_ONE_DEVICE                        File name= ASL$LIST_DEVICES.:E05TOU
 UTS= JUL 29 '97 10:12:18.88 TUE                              Compiler= PL-6/E31         Sev=      00
 SharedLib= :SHARED_SYSTEM                                    Alt SharedLib=


    ****  Control sections  ****

 Sect   Type Bound  Init  Size OctSiz  Section name(segment info)
    0   DCB   even  none     0      0  M$UC
    1   DCB   even  none     0      0  M$LO
    2  RoData even  UTS    425    651  ASL$DISP_ONE_DEVICE
    3   Proc  even  none  1796   3404  ASL$DISP_ONE_DEVICE
    4  RoData even  none    78    116  ASL$DISP_ONE_DEVICE

    ****  Entry defs  ****

                              Check   Calling
                             calling  sequence
  Sect OctLoc Primary Altret sequence   type   Parms  Name
     3      0   yes            yes      Std        2  ASL$DISP_ONE_DEVICE

  ****  Entry refs  ****

         Check        Calling
        calling       sequence
Altret sequence SRef   type   Args  Name
         yes          ~proc      0 XU_OUTPUT_OPTIONS
         yes           Std       2 ASB$WRITE_LO
 yes     yes           Std       3 ASB$READ_HLP
         yes           Std       1 X$FORMAT
         yes           Std       3 ASA$ERROR
                       nStd      0 X66_AUTO_2
                       nStd      0 X66_ARET
                       Std       0 B_CONSPOOL_D
PL6.E3A0      #003=ASL$DISP_ONE_DEVICE File=ASL$LIST_DEVICES.:E05TSI             TUE 07/29/97 10:12 Page:200

  ****  Data refs  ****

  Flags:  r = read only, s = secondary
Flgs Name                             Flgs Name                             Flgs Name
     M$UC                             r    AS_BLANK                         r    AS_MODE
r    AS_FE_MODE                            M$LO                                  USERS_KEY
     FDS                                   FMT_BUF                               FMT_VEC
     BLANK_PASS                            ERR_CODE                              REMEM_VAR
     REM_FCMD                              ASA_BRKS_LOC                          DSEG1$
     DSEG1SIZE                             DSEG3$                                B_VECTNIL

  ****  Segment refs  ****

  Flags:  r = read only, s = secondary
Flgs Name                             Flgs Name                             Flgs Name
     ISSID
PL6.E3A0      #003=ASL$DISP_ONE_DEVICE File=ASL$LIST_DEVICES.:E05TSI             TUE 07/29/97 10:12 Page:201


      874        1        /*T***********************************************************/
      875        2        /*T*                                                         */
      876        3        /*T* Copyright (c) Bull HN Information Systems Inc., 1997    */
      877        4        /*T*                                                         */
      878        5        /*T***********************************************************/
      879        6        %EJECT;
PL6.E3A0      #003=ASL$DISP_ONE_DEVICE File=ASL$LIST_DEVICES.:E05TSI             TUE 07/29/97 10:12 Page:202
      880        7        /*M* ASL$DISP_ONE_DEVICE:  Routine to display one DEVICE. */
      881        8        /*X*  DMC,DMR,CCC,PLM=0,IND=3,CTI=5,DCI=6,IAD=0,DTI=0,IDT=0,ENI=3,
      882        9              ECU=3,CSU=3,SDI=3                                           */
      883       10        ASL$DISP_ONE_DEVICE: PROC (JCL, TERMINAL);

     10  3 000000   000000 700200 xent  ASL$DISP_ON* TSX0  ! X66_AUTO_2
         3 000001   000252 000002                    ZERO    170,2

      884       11
      885       12        /********************************************************************/
      886       13        /*   Include files   include files   include files   include files  */
      887       14        /********************************************************************/
      888       15        %INCLUDE AS_SUBS_C;
      889     1429        %INCLUDE AS_MAC_C;
      890     1509        %INCLUDE AS_SSUBS_C;
      891     1601        %INCLUDE AS_PERR_C;
      892     2203        %INCLUDE AS_ENTRIES_M;
      893     3253        %INCLUDE AS_SUPER_C;
      894     3688        %INCLUDE KC$CGBLK;
      895     3736        %INCLUDE QQ_SUPER_C;
      896     3791        %INCLUDE FOO_MAC_C;
      897     4539        %INCLUDE FI_MAC_C;
      898     4909        %INCLUDE OC$INFO;
      899     4965        %INCLUDE OCI_SUBS_C;
      900     5063        %INCLUDE CP_6;
      901     5144        %INCLUDE KL_SUPER_C;
      902     8046        %INCLUDE XU_MACRO_C;
      903    11152        %INCLUDE XU_FORMAT_C;
      904    11314        %INCLUDE AS_SUPER_R;
      905    14330        /********************************************************************/
      906    14331        /*   Parameters      parameters      parameters      parameters     */
      907    14332        /********************************************************************/
      908    14333    1   DCL JCL      BIT (1);
      909    14334    1   DCL TERMINAL BIT (1);
      910    14335        /********************************************************************/
      911    14336        /*   Entry dcls      entry dcls      entry dcls      entry dcls     */
      912    14337        /********************************************************************/
PL6.E3A0      #003=ASL$DISP_ONE_DEVICE File=ASL$LIST_DEVICES.:E05TSI             TUE 07/29/97 10:12 Page:203
      913    14338        %ASB$READ_HLP ;
      914    14341        %ASA$ERROR ;
      915    14344        %ASB$WRITE_LO ;
      916    14347    1   DCL X$FORMAT ENTRY(1);
      917    14348        /********************************************************************/
      918    14349        /*   Local based     local based     local based     local based    */
      919    14350        /********************************************************************/
      920    14351        %KL_DREC       ( NAME = KL$DREC, LAST = ",", STCLASS = "BASED(DSEG3$)" );
      921    14464        %KC$CGID       ( FPTN = KC$CGID, LVL = 2, LAST = ";", STCLASS = BASED );
      922    14490        %KL_DREC       ( NAME = RES$DREC, LAST = ";", STCLASS = "BASED(DSEG3$)" );
      923    14603        %KL_DREC       ( NAME = RESCL$DREC, LAST = ",", STCLASS = "BASED(DSEG3$)" );
      924    14716        %KL_RES_CL_DEV ( NAME = CL_DEV, LAST = ";", LVL = 2, STCLASS = BASED);
      925    14776        %KL_DREC       ( NAME = CON$DREC, LAST = ",", STCLASS = "BASED(DSEG3$)" );
      926    14889        %KC$CGID       ( FPTN = KC$CGID, LVL = 2, LAST = ",", STCLASS = BASED );
      927    14915        %OC$INFO       ( FPTN = OCINFO, LVL = 2, LAST = ";", STCLASS = BASED );
      928    14952        %KL_DREC       ( NAME = IN$DEV, LAST = ",", STCLASS = "BASED(DSEG3$)" );
      929    15065        %KC$CGID       ( FPTN = KC$CGID, LVL = 2, LAST = ",", STCLASS = BASED );
      930    15091        %FI_CONINFO    ( FPTN = ISINFO, LVL = 2, LAST = ";", STCLASS = BASED );
      931    15135        %KL_DREC       ( NAME = OUT$DEV, LAST = ",", STCLASS = "BASED(DSEG3$)" );
      932    15248        %KC$CGID       ( FPTN = KC$CGID, LVL = 2, LAST = ",", STCLASS = BASED );
      933    15274        %FO_CONINFO    ( FPTN = OSINFO, LVL = 2, LAST = ";", STCLASS = BASED );
      934    15305        %KL_DREC       ( NAME = CG$DEV, LAST = ",", STCLASS = "BASED(DSEG3$)" );
      935    15418        %KC$CGID       ( FPTN = KC$CGID, LVL = 2, LAST = ",", STCLASS = BASED );
      936    15444        %B$CGAUINFO    ( FPTN = B$CGAUINFO, LVL = 2, STCLASS = BASED );
      937    15464        %KL_DREC       ( NAME = TP$DEV, LAST = ",", STCLASS = "BASED(DSEG3$)" );
      938    15577        %KC$CGID       ( FPTN = KC$CGID, LVL = 2, LAST = ",", STCLASS = BASED );
      939    15603        %QQ$LOGON      ( FPTN = QQ$LOGON, LVL = 2, LAST = ";", STCLASS = BASED );
      940    15639        %KL_WSNDEV     ( NAME = DEVWSNS, STCLASS = "BASED (DSEG1$)");
      941    15644    1   DCL 1 TEXT$C BASED,
      942    15645    1          2 L UBIN BYTE UNAL,
      943    15646    1          2 C CHAR(TEXT$C.L) UNAL;
      944    15647    1   DCL OPT$ORDR(0:0) UBIN BYTE UNAL BASED(OPT_ORDR$);
      945    15648        /********************************************************************/
      946    15649        /*   Constant data   constant data   constant data   constant data  */
      947    15650        /********************************************************************/
      948    15651    1   DCL 1 OPT_TBL  CONSTANT,
      949    15652    1          2 HDR(0:70) CHAR(18) CALIGNED INIT(
PL6.E3A0      #003=ASL$DISP_ONE_DEVICE File=ASL$LIST_DEVICES.:E05TSI             TUE 07/29/97 10:12 Page:204
      950    15653    1             '   PROFILE =',
      951    15654    1             '   PASSWORD =',
      952    15655    1             '   MAXPRIO =',
      953    15656    1             '   WSN =',
      954    15657    1             '   SYSTEM =',
      955    15658    1             '   ADMIN =',
      956    15659    1             '   COMMUNICATION =',
      957    15660    1             '   DEVICE =',
      958    15661    1             '   SLAVE =',
      959    15662    1             '   CMD =',
      960    15663    1             '   USE =',
      961    15664    1             '   TYPE =',
      962    15665    1             '   UPLOCKED =',
      963    15666    1             '   FORM =',
      964    15667    1             '   DEFPRIO =',
      965    15668    1             '   NCTL =',
      966    15669    1             '   NCOK =',
      967    15670    1             '   NCACCT =',
      968    15671    1             '   NCFID =',
      969    15672    1             '   COMGROUP =',
      970    15673    1             '   SNAME =',
      971    15674    1             '   NOCG =',
      972    15675    1             '   USER1 =',
      973    15676    1             '   USER2 =',
      974    15677    1             '   USER3 =',
      975    15678    1             '   USER4 =',
      976    15679    1             '   INSTANCE =',
      977    15680    1             '   PRIORITY =',
      978    15681    1             '   MCT =',
      979    15682    1             '   NATIVEL =',
      980    15683    1             '   TP =',
      981    15684    1             '   MODE =',
      982    15685    1             '   RNAME =',
      983    15686    1             '   AUACCOUNT =',
      984    15687    1             '   B300 =',
      985    15688    1             '   B1200 =',
      986    15689    1             '   B2400 =',
PL6.E3A0      #003=ASL$DISP_ONE_DEVICE File=ASL$LIST_DEVICES.:E05TSI             TUE 07/29/97 10:12 Page:205
      987    15690    1             '   HAYES =',
      988    15691    1             '   X28 =',
      989    15692    1             '   RFU1 =',
      990    15693    1             '   RFU2 =',
      991    15694    1             '   RFU3 =',
      992    15695    1             '   RFU4 =',
      993    15696    1             '   RFU5 =',
      994    15697    1             '   RFU6 =',
      995    15698    1             '   RFU7 =',
      996    15699    1             '   RFU8 =',
      997    15700    1             '   RFU9 =',
      998    15701    1             '   RFU10 =',
      999    15702    1             '   RFU11 =',
     1000    15703    1             '   TCPIP =',
     1001    15704    1             '   RFU13 =',
     1002    15705    1             '   PRIVILEGED =',
     1003    15706    1             '   TCP =',
     1004    15707    1             '   IP =',
     1005    15708    1             ' '*0),
     1006    15709    1          2 CON_ORDR(0:11) UBIN BYTE CALIGNED INIT(
     1007    15710    1             L_CD_PROFILE, L_CD_PASSWORD, L_CD_MAXPRIO, L_CD_WSN, L_CD_NATIVEL,
     1008    15711    1             L_CD_SYS, L_CD_ADMIN, L_CD_COMM, L_CD_DEV, L_CD_SLAVE,
     1009    15712    1             L_CD_TP, L_CD_CMD ),
     1010    15713    1          2 OUT_ORDR(0:5) UBIN BYTE CALIGNED INIT(
     1011    15714    1             L_CD_PROFILE, L_CD_PASSWORD, L_CD_USE, L_CD_TYPE, L_CD_FORM,
     1012    15715    1             L_CD_UPLOCK ),
     1013    15716    1          2 IN_ORDR(0:10) UBIN BYTE CALIGNED INIT(
     1014    15717    1             L_CD_PROFILE, L_CD_PASSWORD, L_CD_USE, L_CD_TYPE, L_CD_WSN,
     1015    15718    1             L_CD_DEFPRIO, L_CD_MAXPRIO, L_CD_NCTL, L_CD_NCOK, L_CD_NCACCT,
     1016    15719    1             L_CD_NCFID ),
     1017    15720    1          2 CG_ORDR(0:10) UBIN BYTE CALIGNED INIT(
     1018    15721    1             L_CD_PROFILE, L_CD_PASSWORD, L_CD_USE, L_CD_SNAME, L_CD_NOCG,
     1019    15722    1             L_CD_USER1, L_CD_USER2, L_CD_USER3, L_CD_USER4,L_CD_COMGROUP,
     1020    15723    1             L_CD_CMD ),
     1021    15724    1          2 TP_ORDR(0:8) UBIN BYTE CALIGNED INIT(
     1022    15725    1             L_CD_PROFILE, L_CD_PASSWORD, L_CD_USE, L_CD_INSTANCE, L_CD_SNAME,
     1023    15726    1             L_CD_PRIORITY, L_CD_MCT, L_CD_NOCG, L_CD_CMD ),
PL6.E3A0      #003=ASL$DISP_ONE_DEVICE File=ASL$LIST_DEVICES.:E05TSI             TUE 07/29/97 10:12 Page:206
     1024    15727    1          2 RES_CL_ORDR(0:24) UBIN BYTE CALIGNED INIT(
     1025    15728    1             L_CD_USE, L_CD_TYPE, L_CD_PROFILE, L_CD_PASSWORD,
     1026    15729    1             L_CD_MODE, L_CD_RNAME, L_CD_AUACCT, L_CD_HAYES, L_CD_X28, L_CD_TCPIP,
     1027    15730    1             L_CD_B300, L_CD_B1200, L_CD_B2400, L_CD_RFU1, L_CD_RFU2,
     1028    15731    1             L_CD_RFU3, L_CD_RFU4, L_CD_RFU5, L_CD_RFU6, L_CD_RFU7,
     1029    15732    1             L_CD_RFU8, L_CD_RFU9, L_CD_RFU10, L_CD_RFU11, L_CD_RFU13 ),
     1030    15733    1          2 RES_ORDR(0:3) UBIN BYTE CALIGNED INIT(
     1031    15734    1             L_CD_USE, L_CD_TYPE, L_CD_PROFILE, L_CD_PASSWORD );
     1032    15735    1   DCL CG_STR         CHAR(0) CONSTANT INIT('CG');
     1033    15736    1   DCL COMMANDS_STR   CHAR(0) CONSTANT INIT('COMMANDS');
     1034    15737    1   DCL CONSOLE_STR    CHAR(0) CONSTANT INIT('CONSOLE');
     1035    15738    1   DCL DEVICE_STR     CHAR(0) CONSTANT INIT('DEVICE');
     1036    15739    1   DCL DEVWSNS_HDR    CHAR(0) CONSTANT INIT (
             15739            'The WSNs associated with this device are:');
     1037    15740    1   DCL DISPLAY_STR    CHAR(0) CONSTANT INIT('DISPLAY');
     1038    15741    1   DCL FIXED_STR      CHAR(0) CONSTANT INIT('FIXED');
     1039    15742    1   DCL INCOMING_STR   CHAR(0) CONSTANT INIT('INCOMING ');
     1040    15743    1   DCL INFORM_STR     CHAR(0) CONSTANT INIT('INFORM');
     1041    15744    1   DCL IN_STR         CHAR(0) CONSTANT INIT('IN');
     1042    15745    1   DCL KEYIN_STR      CHAR(0) CONSTANT INIT('KEYIN');
     1043    15746    1   DCL LINK_STR       CHAR(0) CONSTANT INIT(' FOR LINK ');
     1044    15747    1   DCL NONE_STR       CHAR(0) CONSTANT INIT('NONE');
     1045    15748    1   DCL NO_STR         CHAR(0) CONSTANT INIT('NO');
     1046    15749    1   DCL OK_STR         CHAR(0) CONSTANT INIT('OK');
     1047    15750    1   DCL OUTGOING_STR   CHAR(0) CONSTANT INIT('OUTGOING');
     1048    15751    1   DCL OUT_STR        CHAR(0) CONSTANT INIT('OUT');
     1049    15752    1   DCL REJECT_STR     CHAR(0) CONSTANT INIT('REJECT');
     1050    15753    1   DCL RES_STR        CHAR(0) CONSTANT INIT('RESOURCE');
     1051    15754    1   DCL STATION_STR    CHAR(0) CONSTANT INIT(' FOR STATION ');
     1052    15755    1   DCL TERMINAL_STR   CHAR(0) CONSTANT INIT(' FOR TERMINAL ');
     1053    15756    1   DCL TP_STR         CHAR(0) CONSTANT INIT('TP');
     1054    15757    1   DCL YES_STR        CHAR(0) CONSTANT INIT('YES');
     1055    15758        /********************************************************************/
     1056    15759        /*   Auto data       auto data       auto data       auto data      */
     1057    15760        /********************************************************************/
     1058    15761    1   DCL CG                            CHAR(32);
     1059    15762    1   DCL CGCNT                         UBIN;
PL6.E3A0      #003=ASL$DISP_ONE_DEVICE File=ASL$LIST_DEVICES.:E05TSI             TUE 07/29/97 10:12 Page:207
     1060    15763    1   DCL CMD                           CHAR(80);
     1061    15764    1   DCL CMDCNT                        UBIN;
     1062    15765    1   DCL 1 DEV_NAME,
     1063    15766    1          2 COUNT                    UBIN BYTE CALIGNED,
     1064    15767    1          2 TEXT                     CHAR(8) CALIGNED,
     1065    15768    1          2 UNAME                    CHAR(12) CALIGNED,
     1066    15769    1          2 *                        CHAR(21) CALIGNED;
     1067    15770    1   DCL I                             SBIN;
     1068    15771    1   DCL INSTANCE                      CHAR(18);
     1069    15772    1   DCL INSTANCECNT                   UBIN;
     1070    15773    1   DCL LEN                           SBIN;
     1071    15774    1   DCL L_TYPE                        UBIN;
     1072    15775    1   DCL MASK                          BIT(18);
     1073    15776    1   DCL NEXT                          SBIN;
     1074    15777    1   DCL NUM_OPTS                      UBIN;
     1075    15778    1   DCL OPT_ORDR$                     PTR;
     1076    15779    1   DCL SBINS   (0:99)                SBIN;
     1077    15780    1   DCL SBIN_IDX                      SBIN;
     1078    15781    1   DCL ST_IDX                        SBIN;
     1079    15782    1   DCL T_SNAME                       CHAR(8) ;
     1080    15783        %EJECT;
PL6.E3A0      #003=ASL$DISP_ONE_DEVICE File=ASL$LIST_DEVICES.:E05TSI             TUE 07/29/97 10:12 Page:208
     1081    15784        /********************************************************************/
     1082    15785        /*   Procedure       procedure       procedure       procedure      */
     1083    15786        /********************************************************************/
     1084    15787
     1085    15788    1   IF (KL$DREC.ATYP = 0) THEN RETURN; /* This stops the listing of wsndev

  15788  3 000002   000000 470400 xsym               LDP0    DSEG3$
         3 000003   000000 236100                    LDQ     0,,PR0
         3 000004   777000 316003                    CANQ    -512,DU
         3 000005   000007 601000 3                  TNZ     s:15790

  15788  3 000006   000000 702200 xent               TSX2  ! X66_ARET

     1086    15789                                               records */
     1087    15790    2   DO SELECT ( KL$DREC.SUPER );

  15790  3 000007   000000 236100                    LDQ     0,,PR0
         3 000010   000777 376007                    ANQ     511,DL
         3 000011   000006 116007                    CMPQ    6,DL
         3 000012   000025 602000 3                  TNC     s:15790+14
         3 000013   000043 600000 3                  TZE     s:15796
         3 000014   000013 116007                    CMPQ    11,DL
         3 000015   000022 602000 3                  TNC     s:15790+11
         3 000016   000052 600000 3                  TZE     s:15800
         3 000017   000014 116007                    CMPQ    12,DL
         3 000020   000115 601000 3                  TNZ     s:15823
         3 000021   000076 710000 3                  TRA     s:15812
         3 000022   000007 116007                    CMPQ    7,DL
         3 000023   000115 601000 3                  TNZ     s:15823
         3 000024   000061 710000 3                  TRA     s:15804
         3 000025   000005 116007                    CMPQ    5,DL
         3 000026   000031 602000 3                  TNC     s:15790+18
         3 000027   000034 600000 3                  TZE     s:15792
         3 000030   000115 710000 3                  TRA     s:15823
         3 000031   000004 116007                    CMPQ    4,DL
         3 000032   000115 601000 3                  TNZ     s:15823
         3 000033   000070 710000 3                  TRA     s:15808
PL6.E3A0      #003=ASL$DISP_ONE_DEVICE File=ASL$LIST_DEVICES.:E05TSI             TUE 07/29/97 10:12 Page:209

     1088    15791    2      SELECT ( AS_IN_DEV# );

     1089    15792    2      L_TYPE = L_IN_DEV;

  15792  3 000034   000002 235007                    LDA     2,DL
         3 000035   200066 755100                    STA     L_TYPE,,AUTO

     1090    15793    2      OPT_ORDR$ = ADDR(OPT_TBL.IN_ORDR);

  15793  3 000036   000000 236000 4                  LDQ     0
         3 000037   200072 756100                    STQ     OPT_ORDR$,,AUTO

     1091    15794    2      NUM_OPTS  = LENGTHC(OPT_TBL.IN_ORDR);

  15794  3 000040   000013 235007                    LDA     11,DL
         3 000041   200071 755100                    STA     NUM_OPTS,,AUTO
         3 000042   000116 710000 3                  TRA     s:15825

     1092    15795    2      SELECT ( AS_OUT_DEV# );

     1093    15796    2      L_TYPE = L_OUT_DEV;

  15796  3 000043   000001 235007                    LDA     1,DL
         3 000044   200066 755100                    STA     L_TYPE,,AUTO

     1094    15797    2      OPT_ORDR$ = ADDR(OPT_TBL.OUT_ORDR);

  15797  3 000045   000001 236000 4                  LDQ     1
         3 000046   200072 756100                    STQ     OPT_ORDR$,,AUTO

     1095    15798    2      NUM_OPTS  = LENGTHC(OPT_TBL.OUT_ORDR);

  15798  3 000047   000006 235007                    LDA     6,DL
         3 000050   200071 755100                    STA     NUM_OPTS,,AUTO
         3 000051   000116 710000 3                  TRA     s:15825

PL6.E3A0      #003=ASL$DISP_ONE_DEVICE File=ASL$LIST_DEVICES.:E05TSI             TUE 07/29/97 10:12 Page:210
     1096    15799    2      SELECT ( AS_CG_DEV# );

     1097    15800    2      L_TYPE = L_CG_DEV;

  15800  3 000052   000003 235007                    LDA     3,DL
         3 000053   200066 755100                    STA     L_TYPE,,AUTO

     1098    15801    2      OPT_ORDR$ = ADDR(OPT_TBL.CG_ORDR);

  15801  3 000054   000002 236000 4                  LDQ     2
         3 000055   200072 756100                    STQ     OPT_ORDR$,,AUTO

     1099    15802    2      NUM_OPTS  = LENGTHC(OPT_TBL.CG_ORDR);

  15802  3 000056   000013 235007                    LDA     11,DL
         3 000057   200071 755100                    STA     NUM_OPTS,,AUTO
         3 000060   000116 710000 3                  TRA     s:15825

     1100    15803    2      SELECT ( AS_TP_DEV# );

     1101    15804    2      L_TYPE = L_TP_DEV;

  15804  3 000061   000004 235007                    LDA     4,DL
         3 000062   200066 755100                    STA     L_TYPE,,AUTO

     1102    15805    2      OPT_ORDR$ = ADDR(OPT_TBL.TP_ORDR);

  15805  3 000063   000003 236000 4                  LDQ     3
         3 000064   200072 756100                    STQ     OPT_ORDR$,,AUTO

     1103    15806    2      NUM_OPTS  = LENGTHC(OPT_TBL.TP_ORDR);

  15806  3 000065   000011 235007                    LDA     9,DL
         3 000066   200071 755100                    STA     NUM_OPTS,,AUTO
         3 000067   000116 710000 3                  TRA     s:15825

     1104    15807    2      SELECT ( AS_CON# );
PL6.E3A0      #003=ASL$DISP_ONE_DEVICE File=ASL$LIST_DEVICES.:E05TSI             TUE 07/29/97 10:12 Page:211

     1105    15808    2      L_TYPE = L_CONSOLE;

  15808  3 000070   200066 450100                    STZ     L_TYPE,,AUTO

     1106    15809    2      OPT_ORDR$ = ADDR(OPT_TBL.CON_ORDR);

  15809  3 000071   000004 236000 4                  LDQ     4
         3 000072   200072 756100                    STQ     OPT_ORDR$,,AUTO

     1107    15810    2      NUM_OPTS  = LENGTHC(OPT_TBL.CON_ORDR);

  15810  3 000073   000014 235007                    LDA     12,DL
         3 000074   200071 755100                    STA     NUM_OPTS,,AUTO
         3 000075   000116 710000 3                  TRA     s:15825

     1108    15811    2      SELECT ( AS_RES_DEV# );

     1109    15812    2      L_TYPE = L_RES_DEV;

  15812  3 000076   000006 235007                    LDA     6,DL
         3 000077   200066 755100                    STA     L_TYPE,,AUTO

     1110    15813    3      IF SUBSTR (RESCL$DREC.RENAME,0,2) = 'CL' THEN DO;

  15813  3 000100   000011 220100                    LDX0    9,,PR0
         3 000101   000610 100000 2                  CMPX0   YES_STR+1
         3 000102   000110 601000 3                  TNZ     s:15818

     1111    15814    3         OPT_ORDR$ = ADDR(OPT_TBL.RES_CL_ORDR);

  15814  3 000103   000005 236000 4                  LDQ     5
         3 000104   200072 756100                    STQ     OPT_ORDR$,,AUTO

     1112    15815    3         NUM_OPTS  = LENGTHC(OPT_TBL.RES_CL_ORDR);

  15815  3 000105   000031 235007                    LDA     25,DL
PL6.E3A0      #003=ASL$DISP_ONE_DEVICE File=ASL$LIST_DEVICES.:E05TSI             TUE 07/29/97 10:12 Page:212
         3 000106   200071 755100                    STA     NUM_OPTS,,AUTO

     1113    15816    3         END;   /*  Type = cl  */

  15816  3 000107   000116 710000 3                  TRA     s:15825

     1114    15817    3      ELSE DO;

     1115    15818    3         OPT_ORDR$ = ADDR(OPT_TBL.RES_ORDR);

  15818  3 000110   000006 236000 4                  LDQ     6
         3 000111   200072 756100                    STQ     OPT_ORDR$,,AUTO

     1116    15819    3         NUM_OPTS  = LENGTHC(OPT_TBL.RES_ORDR);

  15819  3 000112   000004 235007                    LDA     4,DL
         3 000113   200071 755100                    STA     NUM_OPTS,,AUTO

     1117    15820    3         END;   /*  Not type = cl  */

  15820  3 000114   000116 710000 3                  TRA     s:15825

     1118    15821
     1119    15822    2      SELECT ( ELSE );

     1120    15823    2   RETURN;

  15823  3 000115   000000 702200 xent               TSX2  ! X66_ARET

     1121    15824    2      END;

     1122    15825    1   DEV_NAME = USERS_KEY;

  15825  3 000116   000100 100400                    MLR     fill='000'O
         3 000117   000000 000052 xsym               ADSC9   USERS_KEY                cn=0,n=42
         3 000120   200043 000052                    ADSC9   DEV_NAME,,AUTO           cn=0,n=42

PL6.E3A0      #003=ASL$DISP_ONE_DEVICE File=ASL$LIST_DEVICES.:E05TSI             TUE 07/29/97 10:12 Page:213
     1123    15826    2   DO SELECT ( L_TYPE );

  15826  3 000121   200066 235100                    LDA     L_TYPE,,AUTO
         3 000122   000124 600000 3                  TZE     s:15828
         3 000123   000130 710000 3                  TRA     s:15830

     1124    15827    2      SELECT ( L_CONSOLE );

     1125    15828    2      FMT_VEC(0) = VECTOR(CONSOLE_STR);

  15828  3 000124   000010 237000 4                  LDAQ    8
         3 000125   000000 755000 xsym               STA     FMT_VEC
         3 000126   000001 756000 xsym               STQ     FMT_VEC+1
         3 000127   000133 710000 3                  TRA     s:15832

     1126    15829    2      SELECT ( ELSE );

     1127    15830    2   FMT_VEC(0) = VECTOR(DEVICE_STR);

  15830  3 000130   000012 237000 4                  LDAQ    10
         3 000131   000000 755000 xsym               STA     FMT_VEC
         3 000132   000001 756000 xsym               STQ     FMT_VEC+1

     1128    15831    2      END;  /*  Case L_TYPE  */

     1129    15832    2   IF DEV_NAME.COUNT = 8 THEN DO;

  15832  3 000133   200043 236100                    LDQ     DEV_NAME,,AUTO
         3 000134   777000 376003                    ANQ     -512,DU
         3 000135   010000 116003                    CMPQ    4096,DU
         3 000136   000142 601000 3                  TNZ     s:15836

     1130    15833    2      LEN = 4;

  15833  3 000137   000004 235007                    LDA     4,DL
         3 000140   200065 755100                    STA     LEN,,AUTO

PL6.E3A0      #003=ASL$DISP_ONE_DEVICE File=ASL$LIST_DEVICES.:E05TSI             TUE 07/29/97 10:12 Page:214
     1131    15834    2      END;  /*  Count = 8  */

  15834  3 000141   000144 710000 3                  TRA     s:15838

     1132    15835    2   ELSE DO;

     1133    15836    2      LEN = 8;

  15836  3 000142   000010 235007                    LDA     8,DL
         3 000143   200065 755100                    STA     LEN,,AUTO

     1134    15837    2      END; /*  If count ~= 8  */

     1135    15838    2   IF NOT TERMINAL THEN DO;

  15838  3 000144   200004 471500                    LDP1    @TERMINAL,,AUTO
         3 000145   000000 066500                    CMPB    filb='0'B
         3 000146   100000 000001                    BDSC    0,,PR1                   by=0,bit=0,n=1
         3 000147   000002 000022 xsym               BDSC    B_VECTNIL+2              by=0,bit=0,n=18
         3 000150   000252 601000 3                  TNZ     s:15861

     1136    15839    2      FMT_VEC(1) = VECTOR( SUBSTR(DEV_NAME.TEXT,0,LEN) );

  15839  3 000151   000020 735000                    ALS     16
         3 000152   000140 135007                    SBLA    96,DL
         3 000153   200250 452500                    STP2    YES_NO+2,,AUTO
         3 000154   200250 236100                    LDQ     YES_NO+2,,AUTO
         3 000155   000014 036000 4                  ADLQ    12
         3 000156   000002 755000 xsym               STA     FMT_VEC+2
         3 000157   000003 756000 xsym               STQ     FMT_VEC+3

     1137    15840    2      FDS.NVECS# = 2;

  15840  3 000160   000002 235007                    LDA     2,DL
         3 000161   000011 755000 xsym               STA     FDS+9

     1138    15841    3      IF JCL THEN DO;
PL6.E3A0      #003=ASL$DISP_ONE_DEVICE File=ASL$LIST_DEVICES.:E05TSI             TUE 07/29/97 10:12 Page:215

  15841  3 000162   200003 473500                    LDP3    @JCL,,AUTO
         3 000163   000000 066500                    CMPB    filb='0'B
         3 000164   300000 000001                    BDSC    0,,PR3                   by=0,bit=0,n=1
         3 000165   000002 000022 xsym               BDSC    B_VECTNIL+2              by=0,bit=0,n=18
         3 000166   000177 600000 3                  TZE     s:15846

     1139    15842    3         FMT_BUF = 'CREATE ';

  15842  3 000167   040000 100400                    MLR     fill='040'O
         3 000170   000611 000007 2                  ADSC9   YES_STR+2                cn=0,n=7
         3 000171   000000 000377 xsym               ADSC9   FMT_BUF                  cn=0,n=255

     1140    15843    3         FDS.FMT_.BOUND = 6;

  15843  3 000172   000000 236000 xsym               LDQ     FDS
         3 000173   177777 376007                    ANQ     65535,DL
         3 000174   000015 276000 4                  ORQ     13
         3 000175   000000 756000 xsym               STQ     FDS

     1141    15844    3         END;   /*  Jcl  */

  15844  3 000176   000204 710000 3                  TRA     s:15849

     1142    15845    3      ELSE DO;

     1143    15846    3         FMT_BUF = ' ';

  15846  3 000177   040000 100400                    MLR     fill='040'O
         3 000200   000035 000001 xsym               ADSC9   B_VECTNIL+29             cn=0,n=1
         3 000201   000000 000377 xsym               ADSC9   FMT_BUF                  cn=0,n=255

     1144    15847    3         FDS.FMT_.BOUND = 0;

  15847  3 000202   177777 236007                    LDQ     65535,DL
         3 000203   000000 356000 xsym               ANSQ    FDS

PL6.E3A0      #003=ASL$DISP_ONE_DEVICE File=ASL$LIST_DEVICES.:E05TSI             TUE 07/29/97 10:12 Page:216
     1145    15848    3         END;  /*   Not jcl  */

     1146    15849    3      IF L_TYPE = L_TP_DEV AND DEV_NAME.UNAME ~= '*' THEN DO;

  15849  3 000204   200066 236100                    LDQ     L_TYPE,,AUTO
         3 000205   000004 116007                    CMPQ    4,DL
         3 000206   000237 601000 3                  TNZ     s:15856
         3 000207   040000 106500                    CMPC    fill='040'O
         3 000210   200045 200014                    ADSC9   DEV_NAME+2,,AUTO         cn=1,n=12
         3 000211   000016 000001 4                  ADSC9   14                       cn=0,n=1
         3 000212   000237 600000 3                  TZE     s:15856

     1147    15850    3         SUBSTR (FMT_BUF,FDS.FMT_.BOUND+1,13) = 'TP %A %>A,%>A';

  15850  3 000213   000000 236000 xsym               LDQ     FDS
         3 000214   000020 772000                    QRL     16
         3 000215   040006 100400                    MLR     fill='040'O
         3 000216   000613 000015 2                  ADSC9   YES_STR+4                cn=0,n=13
         3 000217   000000 200015 xsym               ADSC9   FMT_BUF,Q                cn=1,n=13

     1148    15851    3         FDS.FMT_.BOUND = FDS.FMT_.BOUND + 13;

  15851  3 000220   000015 036007                    ADLQ    13,DL
         3 000221   000020 736000                    QLS     16
         3 000222   000000 676000 xsym               ERQ     FDS
         3 000223   000034 376000 xsym               ANQ     B_VECTNIL+28
         3 000224   000000 656000 xsym               ERSQ    FDS

     1149    15852    3         FMT_VEC (FDS.NVECS#) = VECTOR (DEV_NAME.UNAME);

  15852  3 000225   000001 735000                    ALS     1
         3 000226   000000 620005                    EAX0    0,AL
         3 000227   000017 235000 4                  LDA     15
         3 000230   200250 452500                    STP2    YES_NO+2,,AUTO
         3 000231   200250 236100                    LDQ     YES_NO+2,,AUTO
         3 000232   000020 036000 4                  ADLQ    16
         3 000233   000000 755010 xsym               STA     FMT_VEC,X0
PL6.E3A0      #003=ASL$DISP_ONE_DEVICE File=ASL$LIST_DEVICES.:E05TSI             TUE 07/29/97 10:12 Page:217
         3 000234   000001 756010 xsym               STQ     FMT_VEC+1,X0

     1150    15853    3         FDS.NVECS# = FDS.NVECS# + 1;

  15853  3 000235   000011 054000 xsym               AOS     FDS+9

     1151    15854    3         END;   /*  Tp dev with a uname  */

  15854  3 000236   000263 710000 3                  TRA     s:15865

     1152    15855    3      ELSE DO;

     1153    15856    3         SUBSTR (FMT_BUF, FDS.FMT_.BOUND+1, 6) = '%A %>A';

  15856  3 000237   000000 236000 xsym               LDQ     FDS
         3 000240   000020 772000                    QRL     16
         3 000241   040006 100400                    MLR     fill='040'O
         3 000242   000617 000006 2                  ADSC9   YES_STR+8                cn=0,n=6
         3 000243   000000 200006 xsym               ADSC9   FMT_BUF,Q                cn=1,n=6

     1154    15857    3         FDS.FMT_.BOUND = FDS.FMT_.BOUND + 6;

  15857  3 000244   000006 036007                    ADLQ    6,DL
         3 000245   000020 736000                    QLS     16
         3 000246   000000 676000 xsym               ERQ     FDS
         3 000247   000034 376000 xsym               ANQ     B_VECTNIL+28
         3 000250   000000 656000 xsym               ERSQ    FDS

     1155    15858    3         END;  /*  Not tp  */

     1156    15859    2      END;   /*  Not terminal  */

  15859  3 000251   000263 710000 3                  TRA     s:15865

     1157    15860    2   ELSE DO;

     1158    15861    2      FDS.NVECS# = 1;
PL6.E3A0      #003=ASL$DISP_ONE_DEVICE File=ASL$LIST_DEVICES.:E05TSI             TUE 07/29/97 10:12 Page:218

  15861  3 000252   000001 235007                    LDA     1,DL
         3 000253   000011 755000 xsym               STA     FDS+9

     1159    15862    2      FMT_BUF = '%A';

  15862  3 000254   040000 100400                    MLR     fill='040'O
         3 000255   000617 000002 2                  ADSC9   YES_STR+8                cn=0,n=2
         3 000256   000000 000377 xsym               ADSC9   FMT_BUF                  cn=0,n=255

     1160    15863    2      FDS.FMT_.BOUND = 1;

  15863  3 000257   000000 236000 xsym               LDQ     FDS
         3 000260   177777 376007                    ANQ     65535,DL
         3 000261   200000 276007                    ORQ     65536,DL
         3 000262   000000 756000 xsym               STQ     FDS

     1161    15864    2      END;  /*  Terminal  */

     1162    15865    2   IF NOT TERMINAL THEN DO;

  15865  3 000263   000000 066500                    CMPB    filb='0'B
         3 000264   100000 000001                    BDSC    0,,PR1                   by=0,bit=0,n=1
         3 000265   000002 000022 xsym               BDSC    B_VECTNIL+2              by=0,bit=0,n=18
         3 000266   000502 601000 3                  TNZ     NO_STATION

     1163    15866    2      IF ((L_TYPE = L_CG_DEV) OR (L_TYPE = L_TP_DEV)) AND DEV_NAME.COUNT ~= 8 THEN

  15866  3 000267   200066 235100                    LDA     L_TYPE,,AUTO
         3 000270   000003 115007                    CMPA    3,DL
         3 000271   000274 600000 3                  TZE     s:15866+5
         3 000272   000004 115007                    CMPA    4,DL
         3 000273   000300 601000 3                  TNZ     s:15868
         3 000274   200043 236100                    LDQ     DEV_NAME,,AUTO
         3 000275   777000 376003                    ANQ     -512,DU
         3 000276   010000 116003                    CMPQ    4096,DU
         3 000277   000502 601000 3                  TNZ     NO_STATION
PL6.E3A0      #003=ASL$DISP_ONE_DEVICE File=ASL$LIST_DEVICES.:E05TSI             TUE 07/29/97 10:12 Page:219

     1164    15867    2         GOTO NO_STATION;
     1165    15868    2      IF KL$DREC.TNAME = ' '

  15868  3 000300   040000 106500                    CMPC    fill='040'O
         3 000301   000013 000010                    ADSC9   11,,PR0                  cn=0,n=8
         3 000302   000035 000001 xsym               ADSC9   B_VECTNIL+29             cn=0,n=1
         3 000303   000320 601000 3                  TNZ     s:15876

     1166    15869                                           /*  Is it a tdev??  */
     1167    15870    3      THEN DO;

     1168    15871    3         USERS_KEY.COUNT = 15;

  15871  3 000304   017000 236003                    LDQ     7680,DU
         3 000305   000000 552040 xsym               STBQ    USERS_KEY,'40'O

     1169    15872    3         T_SNAME = KL$DREC.SNAME ;

  15872  3 000306   040100 100500                    MLR     fill='040'O
         3 000307   000015 000010                    ADSC9   13,,PR0                  cn=0,n=8
         3 000310   200241 000010                    ADSC9   T_SNAME,,AUTO            cn=0,n=8

     1170    15873    3         CALL CONCAT( USERS_KEY.TXTC, T_SNAME, 'STATION' );

  15873  3 000311   040000 100500                    MLR     fill='040'O
         3 000312   200241 000010                    ADSC9   T_SNAME,,AUTO            cn=0,n=8
         3 000313   000000 200010 xsym               ADSC9   USERS_KEY                cn=1,n=8
         3 000314   040000 100400                    MLR     fill='040'O
         3 000315   000621 000007 2                  ADSC9   YES_STR+10               cn=0,n=7
         3 000316   000002 200041 xsym               ADSC9   USERS_KEY+2              cn=1,n=33

     1171    15874    3         END; /* Then do */

  15874  3 000317   000347 710000 3                  TRA     s:15888

     1172    15875    3      ELSE DO;
PL6.E3A0      #003=ASL$DISP_ONE_DEVICE File=ASL$LIST_DEVICES.:E05TSI             TUE 07/29/97 10:12 Page:220

     1173    15876    4         IF JCL THEN DO;

  15876  3 000320   200003 473500                    LDP3    @JCL,,AUTO
         3 000321   000000 066500                    CMPB    filb='0'B
         3 000322   300000 000001                    BDSC    0,,PR3                   by=0,bit=0,n=1
         3 000323   000002 000022 xsym               BDSC    B_VECTNIL+2              by=0,bit=0,n=18
         3 000324   000334 600000 3                  TZE     s:15883

     1174    15877    4            FMT_BUF = ' ';

  15877  3 000325   040000 100400                    MLR     fill='040'O
         3 000326   000035 000001 xsym               ADSC9   B_VECTNIL+29             cn=0,n=1
         3 000327   000000 000377 xsym               ADSC9   FMT_BUF                  cn=0,n=255

     1175    15878    4            FDS.FMT_.BOUND = 0;

  15878  3 000330   177777 236007                    LDQ     65535,DL
         3 000331   000000 356000 xsym               ANSQ    FDS

     1176    15879    4            FDS.NVECS# = 0;

  15879  3 000332   000011 450000 xsym               STZ     FDS+9

     1177    15880    4            RETURN;

  15880  3 000333   000000 702200 xent               TSX2  ! X66_ARET

     1178    15881    4            END;   /*  Jcl  */
     1179    15882    4         ELSE DO;

     1180    15883    4            USERS_KEY.COUNT = 9;

  15883  3 000334   011000 236003                    LDQ     4608,DU
         3 000335   000000 552040 xsym               STBQ    USERS_KEY,'40'O

     1181    15884    4            T_SNAME = KL$DREC.TNAME ;
PL6.E3A0      #003=ASL$DISP_ONE_DEVICE File=ASL$LIST_DEVICES.:E05TSI             TUE 07/29/97 10:12 Page:221

  15884  3 000336   040100 100500                    MLR     fill='040'O
         3 000337   000013 000010                    ADSC9   11,,PR0                  cn=0,n=8
         3 000340   200241 000010                    ADSC9   T_SNAME,,AUTO            cn=0,n=8

     1182    15885    4            CALL CONCAT( USERS_KEY.TXTC, T_SNAME, '*' );

  15885  3 000341   040000 100500                    MLR     fill='040'O
         3 000342   200241 000010                    ADSC9   T_SNAME,,AUTO            cn=0,n=8
         3 000343   000000 200010 xsym               ADSC9   USERS_KEY                cn=1,n=8
         3 000344   040000 100400                    MLR     fill='040'O
         3 000345   000016 000001 4                  ADSC9   14                       cn=0,n=1
         3 000346   000002 200041 xsym               ADSC9   USERS_KEY+2              cn=1,n=33

     1183    15886    4            END;  /*  Else do  */

     1184    15887    3         END; /* Else do */

     1185    15888    2      I = DSEG1SIZE;

  15888  3 000347   000000 235000 xsym               LDA     DSEG1SIZE
         3 000350   200056 755100                    STA     I,,AUTO

     1186    15889    2      CALL ASB$READ_HLP( DSEG1$, I ) WHENALTRETURN

  15889  3 000351   200056 630500                    EPPR0   I,,AUTO
         3 000352   200251 450500                    STP0    YES_NO+3,,AUTO
         3 000353   000021 236000 4                  LDQ     17
         3 000354   200250 756100                    STQ     YES_NO+2,,AUTO
         3 000355   200250 630500                    EPPR0   YES_NO+2,,AUTO
         3 000356   000020 631400 xsym               EPPR1   B_VECTNIL+16
         3 000357   000000 701000 xent               TSX1    ASB$READ_HLP
         3 000360   000362 702000 3                  TSX2    s:15891
         3 000361   000367 710000 3                  TRA     s:15894

     1187    15890    3      DO ;

PL6.E3A0      #003=ASL$DISP_ONE_DEVICE File=ASL$LIST_DEVICES.:E05TSI             TUE 07/29/97 10:12 Page:222
     1188    15891    3         CALL ASA$ERROR( USERS_KEY, E$UNABLE_TO_READ_HLP );

  15891  3 000362   000023 630400 4                  EPPR0   19
         3 000363   000020 631400 xsym               EPPR1   B_VECTNIL+16
         3 000364   000000 701000 xent               TSX1    ASA$ERROR
         3 000365   000000 011000                    NOP     0

     1189    15892    3         RETURN;

  15892  3 000366   000000 702200 xent               TSX2  ! X66_ARET

     1190    15893    3         END;  /*  Whenaltreturn  */
     1191    15894    2      IF DSEG1$->KL$DREC.ATYP = %KLAT_STA# THEN

  15894  3 000367   000000 470400 xsym               LDP0    DSEG1$
         3 000370   000000 236100                    LDQ     0,,PR0
         3 000371   777000 316003                    CANQ    -512,DU
         3 000372   000403 601000 3                  TNZ     s:15897

     1192    15895    2         FMT_VEC(FDS.NVECS#) = VECTOR(STATION_STR);

  15895  3 000373   000011 235000 xsym               LDA     FDS+9
         3 000374   000001 735000                    ALS     1
         3 000375   000000 620005                    EAX0    0,AL
         3 000376   000000 621005                    EAX1    0,AL
         3 000377   000026 237000 4                  LDAQ    22
         3 000400   000000 755010 xsym               STA     FMT_VEC,X0
         3 000401   000001 756011 xsym               STQ     FMT_VEC+1,X1
         3 000402   000416 710000 3                  TRA     s:15899

     1193    15896    2      ELSE
     1194    15897    2         IF DSEG1$->KL$DREC.ATYP = %KLAT_TRM# THEN

  15897  3 000403   000000 236100                    LDQ     0,,PR0
         3 000404   777000 376003                    ANQ     -512,DU
         3 000405   004000 116003                    CMPQ    2048,DU
         3 000406   000416 601000 3                  TNZ     s:15899
PL6.E3A0      #003=ASL$DISP_ONE_DEVICE File=ASL$LIST_DEVICES.:E05TSI             TUE 07/29/97 10:12 Page:223

     1195    15898    2            FMT_VEC(FDS.NVECS#) = VECTOR(TERMINAL_STR);

  15898  3 000407   000011 235000 xsym               LDA     FDS+9
         3 000410   000001 735000                    ALS     1
         3 000411   000000 620005                    EAX0    0,AL
         3 000412   000000 621005                    EAX1    0,AL
         3 000413   000030 237000 4                  LDAQ    24
         3 000414   000000 755010 xsym               STA     FMT_VEC,X0
         3 000415   000001 756011 xsym               STQ     FMT_VEC+1,X1

     1196    15899    2      FDS.NVECS# = FDS.NVECS# + 1;

  15899  3 000416   000011 054000 xsym               AOS     FDS+9

     1197    15900    2      FMT_VEC(FDS.NVECS#) = VECTOR(T_SNAME);

  15900  3 000417   000011 235000 xsym               LDA     FDS+9
         3 000420   000001 735000                    ALS     1
         3 000421   000000 620005                    EAX0    0,AL
         3 000422   000032 235000 4                  LDA     26
         3 000423   200250 452500                    STP2    YES_NO+2,,AUTO
         3 000424   200250 236100                    LDQ     YES_NO+2,,AUTO
         3 000425   000241 036003                    ADLQ    161,DU
         3 000426   000000 755010 xsym               STA     FMT_VEC,X0
         3 000427   000001 756010 xsym               STQ     FMT_VEC+1,X0

     1198    15901    2      FDS.NVECS# = FDS.NVECS# + 1;

  15901  3 000430   000011 054000 xsym               AOS     FDS+9

     1199    15902    2      SUBSTR (FMT_BUF,FDS.FMT_.BOUND+1,5) = '%A%>A';

  15902  3 000431   000000 236000 xsym               LDQ     FDS
         3 000432   000020 772000                    QRL     16
         3 000433   040006 100400                    MLR     fill='040'O
         3 000434   000623 000005 2                  ADSC9   YES_STR+12               cn=0,n=5
PL6.E3A0      #003=ASL$DISP_ONE_DEVICE File=ASL$LIST_DEVICES.:E05TSI             TUE 07/29/97 10:12 Page:224
         3 000435   000000 200005 xsym               ADSC9   FMT_BUF,Q                cn=1,n=5

     1200    15903    2      FDS.FMT_.BOUND = FDS.FMT_.BOUND + 5;

  15903  3 000436   000005 036007                    ADLQ    5,DL
         3 000437   000020 736000                    QLS     16
         3 000440   000000 676000 xsym               ERQ     FDS
         3 000441   000034 376000 xsym               ANQ     B_VECTNIL+28
         3 000442   000000 656000 xsym               ERSQ    FDS

     1201    15904    2      IF (L_TYPE = L_TP_DEV) AND

  15904  3 000443   200066 235100                    LDA     L_TYPE,,AUTO
         3 000444   000004 115007                    CMPA    4,DL
         3 000445   000502 601000 3                  TNZ     NO_STATION
         3 000446   040000 106500                    CMPC    fill='040'O
         3 000447   200045 200014                    ADSC9   DEV_NAME+2,,AUTO         cn=1,n=12
         3 000450   000016 000001 4                  ADSC9   14                       cn=0,n=1
         3 000451   000502 600000 3                  TZE     NO_STATION
         3 000452   200043 236100                    LDQ     DEV_NAME,,AUTO
         3 000453   777000 376003                    ANQ     -512,DU
         3 000454   011000 116003                    CMPQ    4608,DU
         3 000455   000502 602000 3                  TNC     NO_STATION

     1202    15905    2           (DEV_NAME.UNAME ~= '*') AND
     1203    15906    2           (DEV_NAME.COUNT > 8) THEN
     1204    15907    3      DO;

     1205    15908    3         SUBSTR (FMT_BUF,FDS.FMT_.BOUND+1,4) = ',%>A';

  15908  3 000456   000000 236000 xsym               LDQ     FDS
         3 000457   000020 772000                    QRL     16
         3 000460   040006 100400                    MLR     fill='040'O
         3 000461   000625 000004 2                  ADSC9   YES_STR+14               cn=0,n=4
         3 000462   000000 200004 xsym               ADSC9   FMT_BUF,Q                cn=1,n=4

     1206    15909    3         FDS.FMT_.BOUND = FDS.FMT_.BOUND + 4;
PL6.E3A0      #003=ASL$DISP_ONE_DEVICE File=ASL$LIST_DEVICES.:E05TSI             TUE 07/29/97 10:12 Page:225

  15909  3 000463   000004 036007                    ADLQ    4,DL
         3 000464   000020 736000                    QLS     16
         3 000465   000000 676000 xsym               ERQ     FDS
         3 000466   000034 376000 xsym               ANQ     B_VECTNIL+28
         3 000467   000000 656000 xsym               ERSQ    FDS

     1207    15910    3         FMT_VEC (FDS.NVECS#) = VECTOR (DEV_NAME.UNAME);

  15910  3 000470   000011 236000 xsym               LDQ     FDS+9
         3 000471   000001 736000                    QLS     1
         3 000472   000017 235000 4                  LDA     15
         3 000473   200250 452500                    STP2    YES_NO+2,,AUTO
         3 000474   000000 620006                    EAX0    0,QL
         3 000475   200250 236100                    LDQ     YES_NO+2,,AUTO
         3 000476   000020 036000 4                  ADLQ    16
         3 000477   000000 755010 xsym               STA     FMT_VEC,X0
         3 000500   000001 756010 xsym               STQ     FMT_VEC+1,X0

     1208    15911    3         FDS.NVECS# = FDS.NVECS# + 1;

  15911  3 000501   000011 054000 xsym               AOS     FDS+9

     1209    15912    3         END;

     1210    15913    2      END;  /*  Terminal  */

     1211    15914    1   NO_STATION:
     1212    15915    1   CALL X$FORMAT(FDS);

  15915  3 000502   000033 630400 4     NO_STATION   EPPR0   27
         3 000503   000017 631400 xsym               EPPR1   B_VECTNIL+15
         3 000504   000000 701000 xent               TSX1    X$FORMAT
         3 000505   000000 011000                    NOP     0

     1213    15916    1   FDS.NVECS# = 0;

PL6.E3A0      #003=ASL$DISP_ONE_DEVICE File=ASL$LIST_DEVICES.:E05TSI             TUE 07/29/97 10:12 Page:226
  15916  3 000506   000011 450000 xsym               STZ     FDS+9

     1214    15917
     1215    15918    1   ST_IDX = 0;

  15918  3 000507   200240 450100                    STZ     ST_IDX,,AUTO

     1216    15919
     1217    15920    1   FDS.TABDFLT# = 36;

  15920  3 000510   000044 235007                    LDA     36,DL
         3 000511   000017 755000 xsym               STA     FDS+15

     1218    15921    1   FMT_BUF = '%\';

  15921  3 000512   040000 100400                    MLR     fill='040'O
         3 000513   000626 000002 2                  ADSC9   YES_STR+15               cn=0,n=2
         3 000514   000000 000377 xsym               ADSC9   FMT_BUF                  cn=0,n=255

     1219    15922    1   FDS.FMT_.BOUND = 1;

  15922  3 000515   000000 236000 xsym               LDQ     FDS
         3 000516   177777 376007                    ANQ     65535,DL
         3 000517   200000 276007                    ORQ     65536,DL
         3 000520   000000 756000 xsym               STQ     FDS

     1220    15923    1   SBIN_IDX = 0 ;

  15923  3 000521   200237 450100                    STZ     SBIN_IDX,,AUTO

     1221    15924    1   FDS.NVECS# = 0 ;

  15924  3 000522   000011 450000 xsym               STZ     FDS+9

     1222    15925
     1223    15926    2   DO WHILE(ST_IDX < NUM_OPTS );

PL6.E3A0      #003=ASL$DISP_ONE_DEVICE File=ASL$LIST_DEVICES.:E05TSI             TUE 07/29/97 10:12 Page:227
  15926  3 000523   200240 236100                    LDQ     ST_IDX,,AUTO
         3 000524   000527 604000 3                  TMI     s:15928
         3 000525   200071 116100                    CMPQ    NUM_OPTS,,AUTO
         3 000526   001024 603000 3                  TRC     s:15980

     1224    15927
     1225    15928    2      NEXT = OPT$ORDR(ST_IDX);

  15928  3 000527   200240 236100                    LDQ     ST_IDX,,AUTO
         3 000530   000011 402007                    MPY     9,DL
         3 000531   000000 116003                    CMPQ    0,DU
         3 000532   000534 605000 3                  TPL     s:15928+5
         3 000533   000044 036003                    ADLQ    36,DU
         3 000534   200072 470500                    LDP0    OPT_ORDR$,,AUTO
         3 000535   003100 061506                    CSR     bolr='003'O
         3 000536   000000 000011                    BDSC    0,Q,PR0                  by=0,bit=0,n=9
         3 000537   200070 000044                    BDSC    NEXT,,AUTO               by=0,bit=0,n=36

     1226    15929        /*  Get the option values length  */
     1227    15930        /*  For the variable options  */
     1228    15931
     1229    15932    3      DO SELECT ( NEXT );

  15932  3 000540   200070 236100                    LDQ     NEXT,,AUTO
         3 000541   000023 116007                    CMPQ    19,DL
         3 000542   000547 604000 3                  TMI     s:15932+7
         3 000543   000611 600000 3                  TZE     s:15946
         3 000544   000032 116007                    CMPQ    26,DL
         3 000545   001001 601000 3                  TNZ     s:15973
         3 000546   000724 710000 3                  TRA     s:15961
         3 000547   000011 116007                    CMPQ    9,DL
         3 000550   001001 601000 3                  TNZ     s:15973
         3 000551   000552 710000 3                  TRA     s:15934

     1230    15933    3         SELECT ( L_CD_CMD );

     1231    15934    4         DO SELECT (L_TYPE);
PL6.E3A0      #003=ASL$DISP_ONE_DEVICE File=ASL$LIST_DEVICES.:E05TSI             TUE 07/29/97 10:12 Page:228

  15934  3 000552   200066 236100                    LDQ     L_TYPE,,AUTO
         3 000553   000003 116007                    CMPQ    3,DL
         3 000554   000561 602000 3                  TNC     s:15934+7
         3 000555   000573 600000 3                  TZE     s:15939
         3 000556   000004 116007                    CMPQ    4,DL
         3 000557   001001 601000 3                  TNZ     s:15973
         3 000560   000602 710000 3                  TRA     s:15942
         3 000561   000000 116003                    CMPQ    0,DU
         3 000562   000564 600000 3                  TZE     s:15936
         3 000563   001001 710000 3                  TRA     s:15973

     1232    15935    4            SELECT (L_CONSOLE);

     1233    15936    4            CMDCNT = CON$DREC.OCINFO.CMDCNT;

  15936  3 000564   000000 471400 xsym               LDP1    DSEG3$
         3 000565   100043 235100                    LDA     35,,PR1
         3 000566   200042 755100                    STA     CMDCNT,,AUTO

     1234    15937    4            CMD = CON$DREC.OCINFO.CMD;

  15937  3 000567   040100 100500                    MLR     fill='040'O
         3 000570   100044 000120                    ADSC9   36,,PR1                  cn=0,n=80
         3 000571   200016 000120                    ADSC9   CMD,,AUTO                cn=0,n=80
         3 000572   001001 710000 3                  TRA     s:15973

     1235    15938    4            SELECT (L_CG_DEV);

     1236    15939    4            CMDCNT = CG$DEV.B$CGAUINFO.UCMDCNT;

  15939  3 000573   000000 471400 xsym               LDP1    DSEG3$
         3 000574   100040 235100                    LDA     32,,PR1
         3 000575   200042 755100                    STA     CMDCNT,,AUTO

     1237    15940    4            CMD = CG$DEV.B$CGAUINFO.UCMD;

PL6.E3A0      #003=ASL$DISP_ONE_DEVICE File=ASL$LIST_DEVICES.:E05TSI             TUE 07/29/97 10:12 Page:229
  15940  3 000576   040100 100500                    MLR     fill='040'O
         3 000577   100041 000120                    ADSC9   33,,PR1                  cn=0,n=80
         3 000600   200016 000120                    ADSC9   CMD,,AUTO                cn=0,n=80
         3 000601   001001 710000 3                  TRA     s:15973

     1238    15941    4            SELECT (L_TP_DEV);

     1239    15942    4            CMDCNT = TP$DEV.QQ$LOGON.CMDCNT;

  15942  3 000602   000000 471400 xsym               LDP1    DSEG3$
         3 000603   100045 235100                    LDA     37,,PR1
         3 000604   200042 755100                    STA     CMDCNT,,AUTO

     1240    15943    4            CMD = TP$DEV.QQ$LOGON.CMD;

  15943  3 000605   040100 100500                    MLR     fill='040'O
         3 000606   100046 000120                    ADSC9   38,,PR1                  cn=0,n=80
         3 000607   200016 000120                    ADSC9   CMD,,AUTO                cn=0,n=80

     1241    15944    4            END;

  15944  3 000610   001001 710000 3                  TRA     s:15973

     1242    15945    3         SELECT ( L_CD_COMGROUP );

     1243    15946    3         CALL INDEX( I, AS_BLANK, CG$DEV.KC$CGID.PSN# );

  15946  3 000611   000000 471400 xsym               LDP1    DSEG3$
         3 000612   000000 124500                    SCM     mask='000'O
         3 000613   100022 000006                    ADSC9   18,,PR1                  cn=0,n=6
         3 000614   000000 000001 xsym               ADSC9   AS_BLANK                 cn=0,n=1
         3 000615   200056 000100                    ARG     I,,AUTO

     1244    15947    4         IF I > 0 THEN DO;

  15947  3 000616   200056 235100                    LDA     I,,AUTO
         3 000617   000644 604400 3                  TMOZ    s:15952
PL6.E3A0      #003=ASL$DISP_ONE_DEVICE File=ASL$LIST_DEVICES.:E05TSI             TUE 07/29/97 10:12 Page:230

     1245    15948    4            CALL CONCAT( CG, 'CG#', SUBSTR(CG$DEV.KC$CGID.PSN#,0,I), '/' );

  15948  3 000620   000627 236000 2                  LDQ     YES_STR+16
         3 000621   000034 376000 4                  ANQ     28
         3 000622   000040 276007                    ORQ     32,DL
         3 000623   200005 756100                    STQ     CG,,AUTO
         3 000624   000000 620005                    EAX0    0,AL
         3 000625   040100 100540                    MLR     fill='040'O
         3 000626   100022 000010                    ADSC9   18,,PR1                  cn=0,n=*X0
         3 000627   200005 600035                    ADSC9   CG,,AUTO                 cn=3,n=29
         3 000630   200056 236100                    LDQ     I,,AUTO
         3 000631   000035 116007                    CMPQ    29,DL
         3 000632   000640 605000 3                  TPL     s:15949
         3 000633   777742 620006                    EAX0    -30,QL
         3 000634   777777 660003                    ERX0    -1,DU
         3 000635   040146 100400                    MLR     fill='040'O
         3 000636   000035 000001 4                  ADSC9   29                       cn=0,n=1
         3 000637   200005 600010                    ADSC9   CG,Q,AUTO                cn=3,n=*X0

     1246    15949    4            CGCNT = I + 4;

  15949  3 000640   200056 235100                    LDA     I,,AUTO
         3 000641   000004 035007                    ADLA    4,DL
         3 000642   200015 755100                    STA     CGCNT,,AUTO

     1247    15950    4            END;

  15950  3 000643   000651 710000 3                  TRA     s:15955

     1248    15951    4         ELSE DO;

     1249    15952    4            CG = 'CG/';

  15952  3 000644   040100 100400                    MLR     fill='040'O
         3 000645   000630 000003 2                  ADSC9   YES_STR+17               cn=0,n=3
         3 000646   200005 000040                    ADSC9   CG,,AUTO                 cn=0,n=32
PL6.E3A0      #003=ASL$DISP_ONE_DEVICE File=ASL$LIST_DEVICES.:E05TSI             TUE 07/29/97 10:12 Page:231

     1250    15953    4            CGCNT = 3;

  15953  3 000647   000003 235007                    LDA     3,DL
         3 000650   200015 755100                    STA     CGCNT,,AUTO

     1251    15954    4            END;

     1252    15955    3         CALL INSERT( CG, CGCNT, ,

  15955  3 000651   100024 236100                    LDQ     20,,PR1
         3 000652   000033 772000                    QRL     27
         3 000653   777737 620005                    EAX0    -33,AL
         3 000654   777777 660003                    ERX0    -1,DU
         3 000655   000000 621006                    EAX1    0,QL
         3 000656   040145 100540                    MLR     fill='040'O
         3 000657   100024 200011                    ADSC9   20,,PR1                  cn=1,n=*X1
         3 000660   200005 000010                    ADSC9   CG,A,AUTO                cn=0,n=*X0
         3 000661   000000 621006                    EAX1    0,QL
         3 000662   200015 036100                    ADLQ    CGCNT,,AUTO
         3 000663   000040 116007                    CMPQ    32,DL
         3 000664   000711 603000 3                  TRC     s:15958
         3 000665   200250 756100                    STQ     YES_NO+2,,AUTO
         3 000666   000000 636011                    EAQ     0,X1
         3 000667   000022 772000                    QRL     18
         3 000670   200015 036100                    ADLQ    CGCNT,,AUTO
         3 000671   200250 721100                    LXL1    YES_NO+2,,AUTO
         3 000672   777737 621011                    EAX1    -33,X1
         3 000673   777777 661003                    ERX1    -1,DU
         3 000674   040146 100400                    MLR     fill='040'O
         3 000675   000036 000001 4                  ADSC9   30                       cn=0,n=1
         3 000676   200005 000011                    ADSC9   CG,Q,AUTO                cn=0,n=*X1
         3 000677   200251 756100                    STQ     YES_NO+3,,AUTO
         3 000700   200250 236100                    LDQ     YES_NO+2,,AUTO
         3 000701   000037 116007                    CMPQ    31,DL
         3 000702   000711 603000 3                  TRC     s:15958
         3 000703   777740 622006                    EAX2    -32,QL
PL6.E3A0      #003=ASL$DISP_ONE_DEVICE File=ASL$LIST_DEVICES.:E05TSI             TUE 07/29/97 10:12 Page:232
         3 000704   777777 662003                    ERX2    -1,DU
         3 000705   200251 235100                    LDA     YES_NO+3,,AUTO
         3 000706   040145 100500                    MLR     fill='040'O
         3 000707   100020 000010                    ADSC9   16,,PR1                  cn=0,n=8
         3 000710   200005 200012                    ADSC9   CG,A,AUTO                cn=1,n=*X2

     1253    15956    3              SUBSTR(CG$DEV.KC$CGID.NAME#.TXT,0,CG$DEV.KC$CGID.NAME#.CNT),
     1254    15957    3              '.', CG$DEV.KC$CGID.ACCT# );
     1255    15958    3         CALL INDEX( I, AS_BLANK, CG$DEV.KC$CGID.ACCT# );

  15958  3 000711   000000 124500                    SCM     mask='000'O
         3 000712   100020 000010                    ADSC9   16,,PR1                  cn=0,n=8
         3 000713   000000 000001 xsym               ADSC9   AS_BLANK                 cn=0,n=1
         3 000714   200056 000100                    ARG     I,,AUTO

     1256    15959    3         CGCNT = CGCNT + CG$DEV.KC$CGID.NAME#.CNT + I + 1;

  15959  3 000715   100024 236100                    LDQ     20,,PR1
         3 000716   000033 772000                    QRL     27
         3 000717   200015 036100                    ADLQ    CGCNT,,AUTO
         3 000720   200056 036100                    ADLQ    I,,AUTO
         3 000721   000001 036007                    ADLQ    1,DL
         3 000722   200015 756100                    STQ     CGCNT,,AUTO
         3 000723   001001 710000 3                  TRA     s:15973

     1257    15960    3         SELECT ( L_CD_INSTANCE );

     1258    15961    4         IF TP$DEV.KC$CGID.PSN# = AS_BLANK THEN DO;

  15961  3 000724   000000 471400 xsym               LDP1    DSEG3$
         3 000725   040000 106500                    CMPC    fill='040'O
         3 000726   100022 000006                    ADSC9   18,,PR1                  cn=0,n=6
         3 000727   000000 000001 xsym               ADSC9   AS_BLANK                 cn=0,n=1
         3 000730   000740 601000 3                  TNZ     s:15966

     1259    15962    4            INSTANCE = TP$DEV.KC$CGID.NAME#.TXT;

PL6.E3A0      #003=ASL$DISP_ONE_DEVICE File=ASL$LIST_DEVICES.:E05TSI             TUE 07/29/97 10:12 Page:233
  15962  3 000731   040100 100500                    MLR     fill='040'O
         3 000732   100024 200022                    ADSC9   20,,PR1                  cn=1,n=18
         3 000733   200057 000022                    ADSC9   INSTANCE,,AUTO           cn=0,n=18

     1260    15963    4            INSTANCECNT = TP$DEV.KC$CGID.NAME#.CNT;

  15963  3 000734   100024 236100                    LDQ     20,,PR1
         3 000735   000033 772000                    QRL     27
         3 000736   200064 756100                    STQ     INSTANCECNT,,AUTO

     1261    15964    4            END;

  15964  3 000737   001001 710000 3                  TRA     s:15973

     1262    15965    4         ELSE DO;

     1263    15966    4            CALL INDEX( I, AS_BLANK, TP$DEV.KC$CGID.PSN# );

  15966  3 000740   000000 124500                    SCM     mask='000'O
         3 000741   100022 000006                    ADSC9   18,,PR1                  cn=0,n=6
         3 000742   000000 000001 xsym               ADSC9   AS_BLANK                 cn=0,n=1
         3 000743   200056 000100                    ARG     I,,AUTO

     1264    15967    4            CALL CONCAT( INSTANCE, 'DP#', SUBSTR(TP$DEV.KC$CGID.PSN#,0,I),

  15967  3 000744   000631 236000 2                  LDQ     YES_STR+18
         3 000745   000034 376000 4                  ANQ     28
         3 000746   000040 276007                    ORQ     32,DL
         3 000747   200057 756100                    STQ     INSTANCE,,AUTO
         3 000750   200056 720100                    LXL0    I,,AUTO
         3 000751   040100 100540                    MLR     fill='040'O
         3 000752   100022 000010                    ADSC9   18,,PR1                  cn=0,n=*X0
         3 000753   200057 600017                    ADSC9   INSTANCE,,AUTO           cn=3,n=15
         3 000754   200056 236100                    LDQ     I,,AUTO
         3 000755   000017 116007                    CMPQ    15,DL
         3 000756   000774 605000 3                  TPL     s:15969
         3 000757   777760 621006                    EAX1    -16,QL
PL6.E3A0      #003=ASL$DISP_ONE_DEVICE File=ASL$LIST_DEVICES.:E05TSI             TUE 07/29/97 10:12 Page:234
         3 000760   777777 661003                    ERX1    -1,DU
         3 000761   040146 100400                    MLR     fill='040'O
         3 000762   000036 000001 4                  ADSC9   30                       cn=0,n=1
         3 000763   200057 600011                    ADSC9   INSTANCE,Q,AUTO          cn=3,n=*X1
         3 000764   200056 236100                    LDQ     I,,AUTO
         3 000765   000016 116007                    CMPQ    14,DL
         3 000766   000774 605000 3                  TPL     s:15969
         3 000767   777761 620006                    EAX0    -15,QL
         3 000770   777777 660003                    ERX0    -1,DU
         3 000771   040146 100500                    MLR     fill='040'O
         3 000772   100024 200037                    ADSC9   20,,PR1                  cn=1,n=31
         3 000773   200060 000010                    ADSC9   INSTANCE+1,Q,AUTO        cn=0,n=*X0

     1265    15968    4                 '.', TP$DEV.KC$CGID.NAME#.TXT );
     1266    15969    4            INSTANCECNT = TP$DEV.KC$CGID.NAME#.CNT + I + 4;

  15969  3 000774   100024 236100                    LDQ     20,,PR1
         3 000775   000033 772000                    QRL     27
         3 000776   200056 036100                    ADLQ    I,,AUTO
         3 000777   000004 036007                    ADLQ    4,DL
         3 001000   200064 756100                    STQ     INSTANCECNT,,AUTO

     1267    15970    4            END;

     1268    15971    3         END;

     1269    15972
     1270    15973    2      CALL INSERT_FIELD ;

  15973  3 001001   001210 701000 3                  TSX1    INSERT_FIELD
         3 001002   000000 011000                    NOP     0

     1271    15974    2      CALL X$FORMAT(FDS);

  15974  3 001003   000033 630400 4                  EPPR0   27
         3 001004   000017 631400 xsym               EPPR1   B_VECTNIL+15
         3 001005   000000 701000 xent               TSX1    X$FORMAT
PL6.E3A0      #003=ASL$DISP_ONE_DEVICE File=ASL$LIST_DEVICES.:E05TSI             TUE 07/29/97 10:12 Page:235
         3 001006   000000 011000                    NOP     0

     1272    15975    2      FDS.NVECS# = 0;

  15975  3 001007   000011 450000 xsym               STZ     FDS+9

     1273    15976    2      FMT_BUF = '%\%-';

  15976  3 001010   040000 100400                    MLR     fill='040'O
         3 001011   000632 000004 2                  ADSC9   YES_STR+19               cn=0,n=4
         3 001012   000000 000377 xsym               ADSC9   FMT_BUF                  cn=0,n=255

     1274    15977    2      FDS.FMT_.BOUND = 3;

  15977  3 001013   000000 236000 xsym               LDQ     FDS
         3 001014   177777 376007                    ANQ     65535,DL
         3 001015   600000 276007                    ORQ     -65536,DL
         3 001016   000000 756000 xsym               STQ     FDS

     1275    15978    2      ST_IDX = ST_IDX + 1;

  15978  3 001017   200240 054100                    AOS     ST_IDX,,AUTO

     1276    15979    2      END;

  15979  3 001020   200240 236100                    LDQ     ST_IDX,,AUTO
         3 001021   000527 604000 3                  TMI     s:15928
         3 001022   200071 116100                    CMPQ    NUM_OPTS,,AUTO
         3 001023   000527 602000 3                  TNC     s:15928

     1277    15980    1   FMT_BUF = '%\%/';

  15980  3 001024   040000 100400                    MLR     fill='040'O
         3 001025   000633 000004 2                  ADSC9   YES_STR+20               cn=0,n=4
         3 001026   000000 000377 xsym               ADSC9   FMT_BUF                  cn=0,n=255

     1278    15981    1   FDS.FMT_.BOUND = 3;
PL6.E3A0      #003=ASL$DISP_ONE_DEVICE File=ASL$LIST_DEVICES.:E05TSI             TUE 07/29/97 10:12 Page:236

  15981  3 001027   000000 236000 xsym               LDQ     FDS
         3 001030   177777 376007                    ANQ     65535,DL
         3 001031   600000 276007                    ORQ     -65536,DL
         3 001032   000000 756000 xsym               STQ     FDS

     1279    15982    1   FDS.NVECS# = 0;

  15982  3 001033   000011 450000 xsym               STZ     FDS+9

     1280    15983    1   CALL X$FORMAT(FDS);

  15983  3 001034   000033 630400 4                  EPPR0   27
         3 001035   000017 631400 xsym               EPPR1   B_VECTNIL+15
         3 001036   000000 701000 xent               TSX1    X$FORMAT
         3 001037   000000 011000                    NOP     0

     1281    15984    1   FDS.NVECS# = 0;

  15984  3 001040   000011 450000 xsym               STZ     FDS+9

     1282    15985    2   IF NOT JCL THEN DO;

  15985  3 001041   200003 470500                    LDP0    @JCL,,AUTO
         3 001042   000000 066500                    CMPB    filb='0'B
         3 001043   000000 000001                    BDSC    0,,PR0                   by=0,bit=0,n=1
         3 001044   000002 000022 xsym               BDSC    B_VECTNIL+2              by=0,bit=0,n=18
         3 001045   001207 601000 3                  TNZ     s:16019

     1283    15986    2      CALL CONCAT (USERS_KEY.TXTC, SUBSTR (DEV_NAME.TEXT, 0, 8),'WSNS');

  15986  3 001046   040000 100500                    MLR     fill='040'O
         3 001047   200043 200010                    ADSC9   DEV_NAME,,AUTO           cn=1,n=8
         3 001050   000000 200010 xsym               ADSC9   USERS_KEY                cn=1,n=8
         3 001051   040000 100400                    MLR     fill='040'O
         3 001052   000634 000004 2                  ADSC9   YES_STR+21               cn=0,n=4
         3 001053   000002 200041 xsym               ADSC9   USERS_KEY+2              cn=1,n=33
PL6.E3A0      #003=ASL$DISP_ONE_DEVICE File=ASL$LIST_DEVICES.:E05TSI             TUE 07/29/97 10:12 Page:237

     1284    15987    2      USERS_KEY.COUNT = 12; /* DEVNAME=8 + 4 for 'WSNS' */

  15987  3 001054   014000 236003                    LDQ     6144,DU
         3 001055   000000 552040 xsym               STBQ    USERS_KEY,'40'O

     1285    15988    2      I = DSEG1SIZE;

  15988  3 001056   000000 235000 xsym               LDA     DSEG1SIZE
         3 001057   200056 755100                    STA     I,,AUTO

     1286    15989    2      CALL ASB$READ_HLP (DSEG1$, I)

  15989  3 001060   200056 630500                    EPPR0   I,,AUTO
         3 001061   200251 450500                    STP0    YES_NO+3,,AUTO
         3 001062   000021 236000 4                  LDQ     17
         3 001063   200250 756100                    STQ     YES_NO+2,,AUTO
         3 001064   200250 630500                    EPPR0   YES_NO+2,,AUTO
         3 001065   000020 631400 xsym               EPPR1   B_VECTNIL+16
         3 001066   000000 701000 xent               TSX1    ASB$READ_HLP
         3 001067   001203 702000 3                  TSX2    s:16017

     1287    15990    3      WHENRETURN DO;

     1288    15991    3         IF (DEVWSNS.NDEV > 0)

  15991  3 001070   000000 470400 xsym               LDP0    DSEG1$
         3 001071   000000 235100                    LDA     0,,PR0
         3 001072   001202 600000 3                  TZE     s:16014

     1289    15992    4         THEN DO;

     1290    15993    4            CALL CONCAT(FMT_BUF, '%1\', DEVWSNS_HDR, '%/');

  15993  3 001073   000635 236000 2                  LDQ     YES_STR+22
         3 001074   000034 376000 4                  ANQ     28
         3 001075   000040 276007                    ORQ     32,DL
PL6.E3A0      #003=ASL$DISP_ONE_DEVICE File=ASL$LIST_DEVICES.:E05TSI             TUE 07/29/97 10:12 Page:238
         3 001076   000000 756000 xsym               STQ     FMT_BUF
         3 001077   040000 100400                    MLR     fill='040'O
         3 001100   000532 000051 2                  ADSC9   DEVWSNS_HDR              cn=0,n=41
         3 001101   000000 600051 xsym               ADSC9   FMT_BUF                  cn=3,n=41
         3 001102   040000 100400                    MLR     fill='040'O
         3 001103   000636 000002 2                  ADSC9   YES_STR+23               cn=0,n=2
         3 001104   000013 000323 xsym               ADSC9   FMT_BUF+11               cn=0,n=211

     1291    15994    4            FDS.FMT_.BOUND = LENGTHC(DEVWSNS_HDR) + 4;

  15994  3 001105   000000 236000 xsym               LDQ     FDS
         3 001106   177777 376007                    ANQ     65535,DL
         3 001107   000037 276000 4                  ORQ     31
         3 001110   000000 756000 xsym               STQ     FDS

     1292    15995    4            CALL X$FORMAT (FDS);

  15995  3 001111   000033 630400 4                  EPPR0   27
         3 001112   000017 631400 xsym               EPPR1   B_VECTNIL+15
         3 001113   000000 701000 xent               TSX1    X$FORMAT
         3 001114   000000 011000                    NOP     0

     1293    15996    4            FDS.NVECS# = 0;

  15996  3 001115   000011 450000 xsym               STZ     FDS+9

     1294    15997    4            FDS.TABDFLT# = 10;

  15997  3 001116   000012 235007                    LDA     10,DL
         3 001117   000017 755000 xsym               STA     FDS+15

     1295    15998    5            DO I = 0 TO (DEVWSNS.NDEV - 1);

  15998  3 001120   200056 450100                    STZ     I,,AUTO
         3 001121   001161 710000 3                  TRA     s:16008+1

     1296    15999    6               IF I = 0 THEN DO;
PL6.E3A0      #003=ASL$DISP_ONE_DEVICE File=ASL$LIST_DEVICES.:E05TSI             TUE 07/29/97 10:12 Page:239

  15999  3 001122   200056 235100                    LDA     I,,AUTO
         3 001123   001140 601000 3                  TNZ     s:16004

     1297    16000    6                  CALL CONCAT(FMT_BUF, '%\',SUBSTR(DEVWSNS.DEV(I),0,8));

  16000  3 001124   000626 220000 2                  LDX0    YES_STR+15
         3 001125   000000 740000 xsym               STX0    FMT_BUF
         3 001126   000003 735000                    ALS     3
         3 001127   000000 470400 xsym               LDP0    DSEG1$
         3 001130   040000 100505                    MLR     fill='040'O
         3 001131   000001 000010                    ADSC9   1,A,PR0                  cn=0,n=8
         3 001132   000000 400375 xsym               ADSC9   FMT_BUF                  cn=2,n=253

     1298    16001    6                  FDS.FMT_.BOUND = 9;

  16001  3 001133   000000 236000 xsym               LDQ     FDS
         3 001134   177777 376007                    ANQ     65535,DL
         3 001135   000040 276000 4                  ORQ     32
         3 001136   000000 756000 xsym               STQ     FDS

     1299    16002    6                  END;

  16002  3 001137   001154 710000 3                  TRA     s:16007

     1300    16003    6               ELSE DO;

     1301    16004    6                  CALL CONCAT(FMT_BUF, '%\%-%10R', SUBSTR(DEVWSNS.DEV(I),0,8));

  16004  3 001140   040000 100400                    MLR     fill='040'O
         3 001141   000637 000010 2                  ADSC9   YES_STR+24               cn=0,n=8
         3 001142   000000 000010 xsym               ADSC9   FMT_BUF                  cn=0,n=8
         3 001143   000003 735000                    ALS     3
         3 001144   000000 470400 xsym               LDP0    DSEG1$
         3 001145   040000 100505                    MLR     fill='040'O
         3 001146   000001 000010                    ADSC9   1,A,PR0                  cn=0,n=8
         3 001147   000002 000367 xsym               ADSC9   FMT_BUF+2                cn=0,n=247
PL6.E3A0      #003=ASL$DISP_ONE_DEVICE File=ASL$LIST_DEVICES.:E05TSI             TUE 07/29/97 10:12 Page:240

     1302    16005    6                  FDS.FMT_.BOUND = 15;

  16005  3 001150   000000 236000 xsym               LDQ     FDS
         3 001151   177777 376007                    ANQ     65535,DL
         3 001152   000041 276000 4                  ORQ     33
         3 001153   000000 756000 xsym               STQ     FDS

     1303    16006    6                  END;

     1304    16007    5               CALL X$FORMAT (FDS);

  16007  3 001154   000033 630400 4                  EPPR0   27
         3 001155   000017 631400 xsym               EPPR1   B_VECTNIL+15
         3 001156   000000 701000 xent               TSX1    X$FORMAT
         3 001157   000000 011000                    NOP     0

     1305    16008    5               END; /* Do i */

  16008  3 001160   200056 054100                    AOS     I,,AUTO
         3 001161   000000 470400 xsym               LDP0    DSEG1$
         3 001162   200056 236100                    LDQ     I,,AUTO
         3 001163   001122 604000 3                  TMI     s:15999
         3 001164   000000 116100                    CMPQ    0,,PR0
         3 001165   001122 602000 3                  TNC     s:15999

     1306    16009    4            FMT_BUF = '%\%/';

  16009  3 001166   040000 100400                    MLR     fill='040'O
         3 001167   000633 000004 2                  ADSC9   YES_STR+20               cn=0,n=4
         3 001170   000000 000377 xsym               ADSC9   FMT_BUF                  cn=0,n=255

     1307    16010    4            FDS.FMT_.BOUND = 3;

  16010  3 001171   000000 236000 xsym               LDQ     FDS
         3 001172   177777 376007                    ANQ     65535,DL
         3 001173   600000 276007                    ORQ     -65536,DL
PL6.E3A0      #003=ASL$DISP_ONE_DEVICE File=ASL$LIST_DEVICES.:E05TSI             TUE 07/29/97 10:12 Page:241
         3 001174   000000 756000 xsym               STQ     FDS

     1308    16011    4            FDS.NVECS# = 0;

  16011  3 001175   000011 450000 xsym               STZ     FDS+9

     1309    16012    4            CALL X$FORMAT (FDS);

  16012  3 001176   000033 630400 4                  EPPR0   27
         3 001177   000017 631400 xsym               EPPR1   B_VECTNIL+15
         3 001200   000000 701000 xent               TSX1    X$FORMAT
         3 001201   000000 011000                    NOP     0

     1310    16013    4            END; /* Do if DEVWSNS.NDEV > 0 */

     1311    16014    3         END; /* Whenreturn */

  16014  3 001202   001203 710000 3                  TRA     s:16017

     1312    16015    3      WHENALTRETURN DO; /* Just in case there is no devwsn record */

     1313    16016    3         END;

     1314    16017    2      CALL ASB$WRITE_LO( AS_BLANK, 1 );

  16017  3 001203   000042 630400 4                  EPPR0   34
         3 001204   000020 631400 xsym               EPPR1   B_VECTNIL+16
         3 001205   000000 701000 xent               TSX1    ASB$WRITE_LO
         3 001206   000000 011000                    NOP     0

     1315    16018    2      END; /*  Not jcl  */

     1316    16019    1   RETURN;

  16019  3 001207   000000 702200 xent               TSX2  ! X66_ARET

     1317    16020
PL6.E3A0      #003=ASL$DISP_ONE_DEVICE File=ASL$LIST_DEVICES.:E05TSI             TUE 07/29/97 10:12 Page:242
     1318    16021    1   INSERT_FIELD: PROC;

  16021  3 001210   200244 741300       INSERT_FIELD STX1  ! T_SNAME+3,,AUTO

     1319    16022        %SUB C_ATTRIBUTES = 4;
     1320    16023        %SUB C_OCTAL = 5;
     1321    16024    2   DCL CLASS SBIN;
     1322    16025    2   DCL YES_NO BIT(1) ALIGNED;
     1323    16026
     1324    16027
     1325    16028    3   DO CASE (NEXT);

  16028  3 001211   200070 235100                    LDA     NEXT,,AUTO
         3 001212   000064 115007                    CMPA    52,DL
         3 001213   001215 602005 3                  TNC     s:16028+4,AL
         3 001214   003075 710000 3                  TRA     s:16463
         3 001215   001301 710000 3                  TRA     s:16031
         3 001216   001340 710000 3                  TRA     s:16042
         3 001217   001410 710000 3                  TRA     s:16057
         3 001220   001437 710000 3                  TRA     s:16067
         3 001221   001534 710000 3                  TRA     s:16091
         3 001222   001543 710000 3                  TRA     s:16096
         3 001223   001552 710000 3                  TRA     s:16101
         3 001224   001561 710000 3                  TRA     s:16106
         3 001225   001570 710000 3                  TRA     s:16111
         3 001226   001606 710000 3                  TRA     s:16121
         3 001227   001675 710000 3                  TRA     s:16144
         3 001230   001764 710000 3                  TRA     s:16160
         3 001231   002017 710000 3                  TRA     s:16168
         3 001232   002030 710000 3                  TRA     s:16173
         3 001233   002045 710000 3                  TRA     s:16178
         3 001234   002060 710000 3                  TRA     s:16183
         3 001235   002071 710000 3                  TRA     s:16188
         3 001236   002103 710000 3                  TRA     s:16193
         3 001237   002120 710000 3                  TRA     s:16198
         3 001240   002155 710000 3                  TRA     s:16208
         3 001241   002175 710000 3                  TRA     s:16213
PL6.E3A0      #003=ASL$DISP_ONE_DEVICE File=ASL$LIST_DEVICES.:E05TSI             TUE 07/29/97 10:12 Page:243
         3 001242   002231 710000 3                  TRA     s:16224
         3 001243   002277 710000 3                  TRA     s:16242
         3 001244   002310 710000 3                  TRA     s:16247
         3 001245   002321 710000 3                  TRA     s:16252
         3 001246   002332 710000 3                  TRA     s:16257
         3 001247   002343 710000 3                  TRA     s:16262
         3 001250   002363 710000 3                  TRA     s:16267
         3 001251   002376 710000 3                  TRA     s:16286
         3 001252   001641 710000 3                  TRA     s:16133
         3 001253   001577 710000 3                  TRA     s:16116
         3 001254   002460 710000 3                  TRA     s:16309
         3 001255   002544 710000 3                  TRA     s:16337
         3 001256   002561 710000 3                  TRA     s:16343
         3 001257   002615 710000 3                  TRA     s:16355
         3 001260   002623 710000 3                  TRA     s:16360
         3 001261   002631 710000 3                  TRA     s:16365
         3 001262   002650 710000 3                  TRA     s:16374
         3 001263   002662 710000 3                  TRA     s:16380
         3 001264   002674 710000 3                  TRA     s:16386
         3 001265   002706 710000 3                  TRA     s:16392
         3 001266   002720 710000 3                  TRA     s:16398
         3 001267   002732 710000 3                  TRA     s:16404
         3 001270   002744 710000 3                  TRA     s:16410
         3 001271   002756 710000 3                  TRA     s:16416
         3 001272   002770 710000 3                  TRA     s:16422
         3 001273   003002 710000 3                  TRA     s:16428
         3 001274   003014 710000 3                  TRA     s:16434
         3 001275   003026 710000 3                  TRA     s:16440
         3 001276   003040 710000 3                  TRA     s:16446
         3 001277   003052 710000 3                  TRA     s:16452
         3 001300   003064 710000 3                  TRA     s:16458

     1326    16029
     1327    16030    3      CASE (L_CD_PROFILE);

     1328    16031    4         IF KL$DREC.PNAME.CNT = 0 THEN DO;

PL6.E3A0      #003=ASL$DISP_ONE_DEVICE File=ASL$LIST_DEVICES.:E05TSI             TUE 07/29/97 10:12 Page:244
  16031  3 001301   000000 470400 xsym               LDP0    DSEG3$
         3 001302   000004 236100                    LDQ     4,,PR0
         3 001303   777000 316003                    CANQ    -512,DU
         3 001304   001317 601000 3                  TNZ     s:16036

     1329    16032    4            FMT_VEC(FDS.NVECS# + 2) = VECTOR ( NONE_STR) ;

  16032  3 001305   000011 235000 xsym               LDA     FDS+9
         3 001306   000001 735000                    ALS     1
         3 001307   000000 620005                    EAX0    0,AL
         3 001310   000000 622005                    EAX2    0,AL
         3 001311   000044 237000 4                  LDAQ    36
         3 001312   000004 755010 xsym               STA     FMT_VEC+4,X0
         3 001313   000005 756012 xsym               STQ     FMT_VEC+5,X2

     1330    16033    4            LEN = 4;

  16033  3 001314   000004 235007                    LDA     4,DL
         3 001315   200065 755100                    STA     LEN,,AUTO

     1331    16034    4            END;   /*  Blank profile  */

  16034  3 001316   001335 710000 3                  TRA     s:16039

     1332    16035    4         ELSE DO;

     1333    16036    4            FMT_VEC(FDS.NVECS# + 2) = VECTOR(ADDR(KL$DREC.PNAME)->TEXT$C.C);

  16036  3 001317   000011 235000 xsym               LDA     FDS+9
         3 001320   000001 735000                    ALS     1
         3 001321   000004 236100                    LDQ     4,,PR0
         3 001322   000033 772000                    QRL     27
         3 001323   000000 620005                    EAX0    0,AL
         3 001324   000064 737000                    LLS     52
         3 001325   000140 135007                    SBLA    96,DL
         3 001326   000000 236000 xsym               LDQ     DSEG3$
         3 001327   000046 036000 4                  ADLQ    38
PL6.E3A0      #003=ASL$DISP_ONE_DEVICE File=ASL$LIST_DEVICES.:E05TSI             TUE 07/29/97 10:12 Page:245
         3 001330   000004 755010 xsym               STA     FMT_VEC+4,X0
         3 001331   000005 756010 xsym               STQ     FMT_VEC+5,X0

     1334    16037    4            LEN = KL$DREC.PNAME.CNT;

  16037  3 001332   000004 236100                    LDQ     4,,PR0
         3 001333   000033 772000                    QRL     27
         3 001334   200065 756100                    STQ     LEN,,AUTO

     1335    16038    4            END;   /*  Non blank profile  */

     1336    16039    3         CLASS = C_TEXT;

  16039  3 001335   000001 235007                    LDA     1,DL
         3 001336   200245 755100                    STA     CLASS,,AUTO
         3 001337   003075 710000 3                  TRA     s:16463

     1337    16040
     1338    16041    3      CASE (L_CD_PASSWORD);

     1339    16042    4         IF NOT TERMINAL THEN DO;

  16042  3 001340   200004 470500                    LDP0    @TERMINAL,,AUTO
         3 001341   000000 066500                    CMPB    filb='0'B
         3 001342   000000 000001                    BDSC    0,,PR0                   by=0,bit=0,n=1
         3 001343   000002 000022 xsym               BDSC    B_VECTNIL+2              by=0,bit=0,n=18
         3 001344   003075 601000 3                  TNZ     s:16463

     1340    16043    5            IF KL$DREC.PASSWORD= BLANK_PASS THEN DO;

  16043  3 001345   000000 471400 xsym               LDP1    DSEG3$
         3 001346   040000 106500                    CMPC    fill='040'O
         3 001347   100002 000010                    ADSC9   2,,PR1                   cn=0,n=8
         3 001350   000000 000010 xsym               ADSC9   BLANK_PASS               cn=0,n=8
         3 001351   001366 601000 3                  TNZ     s:16049

     1341    16044    5               FMT_VEC(FDS.NVECS# + 2) = VECTOR(NONE_STR);
PL6.E3A0      #003=ASL$DISP_ONE_DEVICE File=ASL$LIST_DEVICES.:E05TSI             TUE 07/29/97 10:12 Page:246

  16044  3 001352   000011 236000 xsym               LDQ     FDS+9
         3 001353   000001 736000                    QLS     1
         3 001354   000000 620006                    EAX0    0,QL
         3 001355   000000 622006                    EAX2    0,QL
         3 001356   000044 237000 4                  LDAQ    36
         3 001357   000004 755010 xsym               STA     FMT_VEC+4,X0
         3 001360   000005 756012 xsym               STQ     FMT_VEC+5,X2

     1342    16045    5               CLASS= C_TEXT;

  16045  3 001361   000001 235007                    LDA     1,DL
         3 001362   200245 755100                    STA     CLASS,,AUTO

     1343    16046    5               LEN = 4;

  16046  3 001363   000004 235007                    LDA     4,DL
         3 001364   200065 755100                    STA     LEN,,AUTO

     1344    16047    5               END;

  16047  3 001365   003075 710000 3                  TRA     s:16463

     1345    16048    5            ELSE DO;

     1346    16049    5               FMT_VEC(FDS.NVECS# + 2) = VECTOR ( SUBSTR(KL$DREC.PASSWORD,0,4) );

  16049  3 001366   000011 236000 xsym               LDQ     FDS+9
         3 001367   000001 736000                    QLS     1
         3 001370   777640 235007                    LDA     -96,DL
         3 001371   000000 620006                    EAX0    0,QL
         3 001372   000000 236000 xsym               LDQ     DSEG3$
         3 001373   000002 036003                    ADLQ    2,DU
         3 001374   000004 755010 xsym               STA     FMT_VEC+4,X0
         3 001375   000005 756010 xsym               STQ     FMT_VEC+5,X0

     1347    16050    5               FMT_VEC(FDS.NVECS# + 3) = VECTOR ( SUBSTR(KL$DREC.PASSWORD,4,4) );
PL6.E3A0      #003=ASL$DISP_ONE_DEVICE File=ASL$LIST_DEVICES.:E05TSI             TUE 07/29/97 10:12 Page:247

  16050  3 001376   777640 235007                    LDA     -96,DL
         3 001377   000000 236000 xsym               LDQ     DSEG3$
         3 001400   000003 036003                    ADLQ    3,DU
         3 001401   000006 755010 xsym               STA     FMT_VEC+6,X0
         3 001402   000007 756010 xsym               STQ     FMT_VEC+7,X0

     1348    16051    5               CLASS = C_OCTAL;

  16051  3 001403   000005 235007                    LDA     5,DL
         3 001404   200245 755100                    STA     CLASS,,AUTO

     1349    16052    5               LEN = 27;

  16052  3 001405   000033 235007                    LDA     27,DL
         3 001406   200065 755100                    STA     LEN,,AUTO

     1350    16053    5               END;  /* BLANK_PASS */

     1351    16054    4            END;  /*  Not terminal  */

  16054  3 001407   003075 710000 3                  TRA     s:16463

     1352    16055
     1353    16056    3      CASE (L_CD_MAXPRIO);

     1354    16057    4         DO CASE (L_TYPE);

  16057  3 001410   200066 236100                    LDQ     L_TYPE,,AUTO
         3 001411   000003 116007                    CMPQ    3,DL
         3 001412   001414 602006 3                  TNC     s:16057+4,QL
         3 001413   001432 710000 3                  TRA     s:16063
         3 001414   001417 710000 3                  TRA     s:16059
         3 001415   001432 710000 3                  TRA     s:16063
         3 001416   001425 710000 3                  TRA     s:16061

     1355    16058    4            CASE (L_CONSOLE);
PL6.E3A0      #003=ASL$DISP_ONE_DEVICE File=ASL$LIST_DEVICES.:E05TSI             TUE 07/29/97 10:12 Page:248

     1356    16059    4               SBINS(SBIN_IDX + 1) = CON$DREC.OCINFO.MXPRI;

  16059  3 001417   000000 470400 xsym               LDP0    DSEG3$
         3 001420   000034 236100                    LDQ     28,,PR0
         3 001421   000777 376007                    ANQ     511,DL
         3 001422   200237 720100                    LXL0    SBIN_IDX,,AUTO
         3 001423   200074 756110                    STQ     SBINS+1,X0,AUTO
         3 001424   001432 710000 3                  TRA     s:16063

     1357    16060    4            CASE (L_IN_DEV);

     1358    16061    4               SBINS(SBIN_IDX + 1) = IN$DEV.ISINFO.MXPRI;

  16061  3 001425   000000 470400 xsym               LDP0    DSEG3$
         3 001426   000034 236100                    LDQ     28,,PR0
         3 001427   000777 376007                    ANQ     511,DL
         3 001430   200237 720100                    LXL0    SBIN_IDX,,AUTO
         3 001431   200074 756110                    STQ     SBINS+1,X0,AUTO

     1359    16062    4            END;

     1360    16063    3         CLASS = C_SBIN;

  16063  3 001432   000014 236007                    LDQ     12,DL
         3 001433   200245 756100                    STQ     CLASS,,AUTO

     1361    16064    3         LEN = 3;

  16064  3 001434   000003 235007                    LDA     3,DL
         3 001435   200065 755100                    STA     LEN,,AUTO
         3 001436   003075 710000 3                  TRA     s:16463

     1362    16065
     1363    16066    3      CASE (L_CD_WSN);

     1364    16067    4         DO CASE (L_TYPE);
PL6.E3A0      #003=ASL$DISP_ONE_DEVICE File=ASL$LIST_DEVICES.:E05TSI             TUE 07/29/97 10:12 Page:249

  16067  3 001437   200066 236100                    LDQ     L_TYPE,,AUTO
         3 001440   000003 116007                    CMPQ    3,DL
         3 001441   001443 602006 3                  TNC     s:16067+4,QL
         3 001442   001531 710000 3                  TRA     s:16088
         3 001443   001446 710000 3                  TRA     s:16069
         3 001444   001531 710000 3                  TRA     s:16088
         3 001445   001500 710000 3                  TRA     s:16079

     1365    16068    4            CASE (L_CONSOLE);

     1366    16069    5               IF CON$DREC.OCINFO.WSN = ' ' THEN DO;

  16069  3 001446   000000 470400 xsym               LDP0    DSEG3$
         3 001447   040000 106500                    CMPC    fill='040'O
         3 001450   000036 000010                    ADSC9   30,,PR0                  cn=0,n=8
         3 001451   000035 000001 xsym               ADSC9   B_VECTNIL+29             cn=0,n=1
         3 001452   001465 601000 3                  TNZ     s:16074

     1367    16070    5                  FMT_VEC ( FDS.NVECS# + 2 ) = VECTOR (NONE_STR);

  16070  3 001453   000011 235000 xsym               LDA     FDS+9
         3 001454   000001 735000                    ALS     1
         3 001455   000000 620005                    EAX0    0,AL
         3 001456   000000 622005                    EAX2    0,AL
         3 001457   000044 237000 4                  LDAQ    36
         3 001460   000004 755010 xsym               STA     FMT_VEC+4,X0
         3 001461   000005 756012 xsym               STQ     FMT_VEC+5,X2

     1368    16071    5                  LEN = 4;

  16071  3 001462   000004 235007                    LDA     4,DL
         3 001463   200065 755100                    STA     LEN,,AUTO

     1369    16072    5                  END;   /*  Blank wsn  */

  16072  3 001464   001531 710000 3                  TRA     s:16088
PL6.E3A0      #003=ASL$DISP_ONE_DEVICE File=ASL$LIST_DEVICES.:E05TSI             TUE 07/29/97 10:12 Page:250

     1370    16073    5               ELSE DO;

     1371    16074    5                  FMT_VEC(FDS.NVECS# + 2) = VECTOR( CON$DREC.OCINFO.WSN );

  16074  3 001465   000011 235000 xsym               LDA     FDS+9
         3 001466   000001 735000                    ALS     1
         3 001467   000000 620005                    EAX0    0,AL
         3 001470   000032 235000 4                  LDA     26
         3 001471   000000 236000 xsym               LDQ     DSEG3$
         3 001472   000036 036003                    ADLQ    30,DU
         3 001473   000004 755010 xsym               STA     FMT_VEC+4,X0
         3 001474   000005 756010 xsym               STQ     FMT_VEC+5,X0

     1372    16075    5                  LEN = 8;

  16075  3 001475   000010 235007                    LDA     8,DL
         3 001476   200065 755100                    STA     LEN,,AUTO

     1373    16076    5                  END;  /*  Non blank wsn  */

  16076  3 001477   001531 710000 3                  TRA     s:16088

     1374    16077
     1375    16078    4            CASE (L_IN_DEV);

     1376    16079    5               IF IN$DEV.ISINFO.WSN = ' ' THEN DO;

  16079  3 001500   000000 470400 xsym               LDP0    DSEG3$
         3 001501   040000 106500                    CMPC    fill='040'O
         3 001502   000065 000010                    ADSC9   53,,PR0                  cn=0,n=8
         3 001503   000035 000001 xsym               ADSC9   B_VECTNIL+29             cn=0,n=1
         3 001504   001517 601000 3                  TNZ     s:16084

     1377    16080    5                  FMT_VEC ( FDS.NVECS# + 2 ) = VECTOR (NONE_STR);

  16080  3 001505   000011 235000 xsym               LDA     FDS+9
PL6.E3A0      #003=ASL$DISP_ONE_DEVICE File=ASL$LIST_DEVICES.:E05TSI             TUE 07/29/97 10:12 Page:251
         3 001506   000001 735000                    ALS     1
         3 001507   000000 620005                    EAX0    0,AL
         3 001510   000000 622005                    EAX2    0,AL
         3 001511   000044 237000 4                  LDAQ    36
         3 001512   000004 755010 xsym               STA     FMT_VEC+4,X0
         3 001513   000005 756012 xsym               STQ     FMT_VEC+5,X2

     1378    16081    5                  LEN = 4;

  16081  3 001514   000004 235007                    LDA     4,DL
         3 001515   200065 755100                    STA     LEN,,AUTO

     1379    16082    5                  END;   /*  Blank wsn  */

  16082  3 001516   001531 710000 3                  TRA     s:16088

     1380    16083    5               ELSE DO;

     1381    16084    5                  FMT_VEC(FDS.NVECS# + 2) = VECTOR( IN$DEV.ISINFO.WSN );

  16084  3 001517   000011 235000 xsym               LDA     FDS+9
         3 001520   000001 735000                    ALS     1
         3 001521   000000 620005                    EAX0    0,AL
         3 001522   000032 235000 4                  LDA     26
         3 001523   000000 236000 xsym               LDQ     DSEG3$
         3 001524   000065 036003                    ADLQ    53,DU
         3 001525   000004 755010 xsym               STA     FMT_VEC+4,X0
         3 001526   000005 756010 xsym               STQ     FMT_VEC+5,X0

     1382    16085    5                  LEN = 8;

  16085  3 001527   000010 235007                    LDA     8,DL
         3 001530   200065 755100                    STA     LEN,,AUTO

     1383    16086    5                  END;  /*  Non blank wsn  */

     1384    16087    4            END;
PL6.E3A0      #003=ASL$DISP_ONE_DEVICE File=ASL$LIST_DEVICES.:E05TSI             TUE 07/29/97 10:12 Page:252

     1385    16088    3         CLASS = C_TEXT;

  16088  3 001531   000001 235007                    LDA     1,DL
         3 001532   200245 755100                    STA     CLASS,,AUTO
         3 001533   003075 710000 3                  TRA     s:16463

     1386    16089
     1387    16090    3      CASE (L_CD_SYS);

     1388    16091    3         MASK = K_SYS;

  16091  3 001534   200000 220003                    LDX0    65536,DU
         3 001535   200067 740100                    STX0    MASK,,AUTO

     1389    16092    3         CLASS = C_ATTRIBUTES;

  16092  3 001536   000004 236007                    LDQ     4,DL
         3 001537   200245 756100                    STQ     CLASS,,AUTO

     1390    16093    3         LEN = 7;

  16093  3 001540   000007 235007                    LDA     7,DL
         3 001541   200065 755100                    STA     LEN,,AUTO
         3 001542   003075 710000 3                  TRA     s:16463

     1391    16094
     1392    16095    3      CASE (L_CD_ADMIN);

     1393    16096    3         MASK = K_ADMIN;

  16096  3 001543   040000 220003                    LDX0    16384,DU
         3 001544   200067 740100                    STX0    MASK,,AUTO

     1394    16097    3         CLASS = C_ATTRIBUTES;

  16097  3 001545   000004 236007                    LDQ     4,DL
PL6.E3A0      #003=ASL$DISP_ONE_DEVICE File=ASL$LIST_DEVICES.:E05TSI             TUE 07/29/97 10:12 Page:253
         3 001546   200245 756100                    STQ     CLASS,,AUTO

     1395    16098    3         LEN = 7;

  16098  3 001547   000007 235007                    LDA     7,DL
         3 001550   200065 755100                    STA     LEN,,AUTO
         3 001551   003075 710000 3                  TRA     s:16463

     1396    16099
     1397    16100    3      CASE (L_CD_COMM);

     1398    16101    3         MASK = K_COMM;

  16101  3 001552   004000 220003                    LDX0    2048,DU
         3 001553   200067 740100                    STX0    MASK,,AUTO

     1399    16102    3         CLASS = C_ATTRIBUTES;

  16102  3 001554   000004 236007                    LDQ     4,DL
         3 001555   200245 756100                    STQ     CLASS,,AUTO

     1400    16103    3         LEN = 7;

  16103  3 001556   000007 235007                    LDA     7,DL
         3 001557   200065 755100                    STA     LEN,,AUTO
         3 001560   003075 710000 3                  TRA     s:16463

     1401    16104
     1402    16105    3      CASE (L_CD_DEV);

     1403    16106    3         MASK = K_DEVC;

  16106  3 001561   100000 220003                    LDX0    32768,DU
         3 001562   200067 740100                    STX0    MASK,,AUTO

     1404    16107    3         CLASS = C_ATTRIBUTES;

PL6.E3A0      #003=ASL$DISP_ONE_DEVICE File=ASL$LIST_DEVICES.:E05TSI             TUE 07/29/97 10:12 Page:254
  16107  3 001563   000004 236007                    LDQ     4,DL
         3 001564   200245 756100                    STQ     CLASS,,AUTO

     1405    16108    3         LEN = 7;

  16108  3 001565   000007 235007                    LDA     7,DL
         3 001566   200065 755100                    STA     LEN,,AUTO
         3 001567   003075 710000 3                  TRA     s:16463

     1406    16109
     1407    16110    3      CASE (L_CD_SLAVE);

     1408    16111    3         MASK = K_SLAVE;

  16111  3 001570   002000 220003                    LDX0    1024,DU
         3 001571   200067 740100                    STX0    MASK,,AUTO

     1409    16112    3         CLASS = C_ATTRIBUTES;

  16112  3 001572   000004 236007                    LDQ     4,DL
         3 001573   200245 756100                    STQ     CLASS,,AUTO

     1410    16113    3         LEN = 7;

  16113  3 001574   000007 235007                    LDA     7,DL
         3 001575   200065 755100                    STA     LEN,,AUTO
         3 001576   003075 710000 3                  TRA     s:16463

     1411    16114
     1412    16115    3      CASE (L_CD_TP);

     1413    16116    3         MASK = K_TP;

  16116  3 001577   001000 220003                    LDX0    512,DU
         3 001600   200067 740100                    STX0    MASK,,AUTO

     1414    16117    3         CLASS = C_ATTRIBUTES;
PL6.E3A0      #003=ASL$DISP_ONE_DEVICE File=ASL$LIST_DEVICES.:E05TSI             TUE 07/29/97 10:12 Page:255

  16117  3 001601   000004 236007                    LDQ     4,DL
         3 001602   200245 756100                    STQ     CLASS,,AUTO

     1415    16118    3         LEN = 7;

  16118  3 001603   000007 235007                    LDA     7,DL
         3 001604   200065 755100                    STA     LEN,,AUTO
         3 001605   003075 710000 3                  TRA     s:16463

     1416    16119
     1417    16120    3      CASE (L_CD_CMD);

     1418    16121    3         IF CMDCNT = 0 THEN

  16121  3 001606   200042 236100                    LDQ     CMDCNT,,AUTO
         3 001607   001622 601000 3                  TNZ     s:16127

     1419    16122    4         DO;

     1420    16123    4            FMT_VEC(FDS.NVECS# + 2) = VECTOR( NONE_STR );

  16123  3 001610   000011 235000 xsym               LDA     FDS+9
         3 001611   000001 735000                    ALS     1
         3 001612   000000 620005                    EAX0    0,AL
         3 001613   000000 622005                    EAX2    0,AL
         3 001614   000044 237000 4                  LDAQ    36
         3 001615   000004 755010 xsym               STA     FMT_VEC+4,X0
         3 001616   000005 756012 xsym               STQ     FMT_VEC+5,X2

     1421    16124    4            LEN = 4;

  16124  3 001617   000004 235007                    LDA     4,DL
         3 001620   200065 755100                    STA     LEN,,AUTO

     1422    16125    4            END;

PL6.E3A0      #003=ASL$DISP_ONE_DEVICE File=ASL$LIST_DEVICES.:E05TSI             TUE 07/29/97 10:12 Page:256
  16125  3 001621   001636 710000 3                  TRA     s:16130

     1423    16126    4         ELSE DO;

     1424    16127    4            FMT_VEC(FDS.NVECS# + 2) = VECTOR( SUBSTR(CMD,0,CMDCNT) );

  16127  3 001622   000011 235000 xsym               LDA     FDS+9
         3 001623   000001 735000                    ALS     1
         3 001624   000000 620005                    EAX0    0,AL
         3 001625   000064 737000                    LLS     52
         3 001626   000140 135007                    SBLA    96,DL
         3 001627   200250 452500                    STP2    YES_NO+2,,AUTO
         3 001630   200250 236100                    LDQ     YES_NO+2,,AUTO
         3 001631   000016 036003                    ADLQ    14,DU
         3 001632   000004 755010 xsym               STA     FMT_VEC+4,X0
         3 001633   000005 756010 xsym               STQ     FMT_VEC+5,X0

     1425    16128    4            LEN = CMDCNT;

  16128  3 001634   200042 235100                    LDA     CMDCNT,,AUTO
         3 001635   200065 755100                    STA     LEN,,AUTO

     1426    16129    4            END;

     1427    16130    3         CLASS = C_TEXT;

  16130  3 001636   000001 236007                    LDQ     1,DL
         3 001637   200245 756100                    STQ     CLASS,,AUTO
         3 001640   003075 710000 3                  TRA     s:16463

     1428    16131
     1429    16132    3      CASE (L_CD_NATIVEL);

     1430    16133    4         IF CON$DREC.OCINFO.LANG = ' ' THEN DO;

  16133  3 001641   000000 470400 xsym               LDP0    DSEG3$
         3 001642   000034 236100                    LDQ     28,,PR0
PL6.E3A0      #003=ASL$DISP_ONE_DEVICE File=ASL$LIST_DEVICES.:E05TSI             TUE 07/29/97 10:12 Page:257
         3 001643   777000 376007                    ANQ     -512,DL
         3 001644   040000 116007                    CMPQ    16384,DL
         3 001645   001660 601000 3                  TNZ     s:16138

     1431    16134    4            FMT_VEC (FDS.NVECS# + 2) = VECTOR (NONE_STR) ;

  16134  3 001646   000011 236000 xsym               LDQ     FDS+9
         3 001647   000001 736000                    QLS     1
         3 001650   000000 620006                    EAX0    0,QL
         3 001651   000000 622006                    EAX2    0,QL
         3 001652   000044 237000 4                  LDAQ    36
         3 001653   000004 755010 xsym               STA     FMT_VEC+4,X0
         3 001654   000005 756012 xsym               STQ     FMT_VEC+5,X2

     1432    16135    4            LEN = 4;

  16135  3 001655   000004 235007                    LDA     4,DL
         3 001656   200065 755100                    STA     LEN,,AUTO

     1433    16136    4            END;  /*  Blank  */

  16136  3 001657   001672 710000 3                  TRA     s:16141

     1434    16137    4         ELSE DO;

     1435    16138    4            FMT_VEC(FDS.NVECS# + 2) = VECTOR( CON$DREC.OCINFO.LANG );

  16138  3 001660   000011 236000 xsym               LDQ     FDS+9
         3 001661   000001 736000                    QLS     1
         3 001662   177640 235007                    LDA     65440,DL
         3 001663   000000 620006                    EAX0    0,QL
         3 001664   000000 236000 xsym               LDQ     DSEG3$
         3 001665   000047 036000 4                  ADLQ    39
         3 001666   000004 755010 xsym               STA     FMT_VEC+4,X0
         3 001667   000005 756010 xsym               STQ     FMT_VEC+5,X0

     1436    16139    4            LEN = 1;
PL6.E3A0      #003=ASL$DISP_ONE_DEVICE File=ASL$LIST_DEVICES.:E05TSI             TUE 07/29/97 10:12 Page:258

  16139  3 001670   000001 235007                    LDA     1,DL
         3 001671   200065 755100                    STA     LEN,,AUTO

     1437    16140    4            END;  /*  Not blank  */

     1438    16141    3         CLASS = C_TEXT;

  16141  3 001672   000001 236007                    LDQ     1,DL
         3 001673   200245 756100                    STQ     CLASS,,AUTO
         3 001674   003075 710000 3                  TRA     s:16463

     1439    16142
     1440    16143    3      CASE (L_CD_USE);

     1441    16144    4         DO CASE (L_TYPE);

  16144  3 001675   200066 236100                    LDQ     L_TYPE,,AUTO
         3 001676   000007 116007                    CMPQ    7,DL
         3 001677   001701 602006 3                  TNC     s:16144+4,QL
         3 001700   001757 710000 3                  TRA     s:16156
         3 001701   001757 710000 3                  TRA     s:16156
         3 001702   001710 710000 3                  TRA     s:16146
         3 001703   001720 710000 3                  TRA     s:16148
         3 001704   001730 710000 3                  TRA     s:16150
         3 001705   001740 710000 3                  TRA     s:16152
         3 001706   001757 710000 3                  TRA     s:16156
         3 001707   001750 710000 3                  TRA     s:16154

     1442    16145    4            CASE (L_OUT_DEV);

     1443    16146    4               FMT_VEC(FDS.NVECS# + 2) = VECTOR( OUT_STR);

  16146  3 001710   000011 235000 xsym               LDA     FDS+9
         3 001711   000001 735000                    ALS     1
         3 001712   000000 620005                    EAX0    0,AL
         3 001713   000000 622005                    EAX2    0,AL
PL6.E3A0      #003=ASL$DISP_ONE_DEVICE File=ASL$LIST_DEVICES.:E05TSI             TUE 07/29/97 10:12 Page:259
         3 001714   000050 237000 4                  LDAQ    40
         3 001715   000004 755010 xsym               STA     FMT_VEC+4,X0
         3 001716   000005 756012 xsym               STQ     FMT_VEC+5,X2
         3 001717   001757 710000 3                  TRA     s:16156

     1444    16147    4            CASE (L_IN_DEV);

     1445    16148    4               FMT_VEC(FDS.NVECS# + 2) = VECTOR( IN_STR);

  16148  3 001720   000011 235000 xsym               LDA     FDS+9
         3 001721   000001 735000                    ALS     1
         3 001722   000000 620005                    EAX0    0,AL
         3 001723   000000 622005                    EAX2    0,AL
         3 001724   000052 237000 4                  LDAQ    42
         3 001725   000004 755010 xsym               STA     FMT_VEC+4,X0
         3 001726   000005 756012 xsym               STQ     FMT_VEC+5,X2
         3 001727   001757 710000 3                  TRA     s:16156

     1446    16149    4            CASE (L_CG_DEV);

     1447    16150    4               FMT_VEC(FDS.NVECS# + 2) = VECTOR( CG_STR);

  16150  3 001730   000011 235000 xsym               LDA     FDS+9
         3 001731   000001 735000                    ALS     1
         3 001732   000000 620005                    EAX0    0,AL
         3 001733   000000 622005                    EAX2    0,AL
         3 001734   000054 237000 4                  LDAQ    44
         3 001735   000004 755010 xsym               STA     FMT_VEC+4,X0
         3 001736   000005 756012 xsym               STQ     FMT_VEC+5,X2
         3 001737   001757 710000 3                  TRA     s:16156

     1448    16151    4            CASE (L_TP_DEV);

     1449    16152    4               FMT_VEC(FDS.NVECS# + 2) = VECTOR( TP_STR);

  16152  3 001740   000011 235000 xsym               LDA     FDS+9
         3 001741   000001 735000                    ALS     1
PL6.E3A0      #003=ASL$DISP_ONE_DEVICE File=ASL$LIST_DEVICES.:E05TSI             TUE 07/29/97 10:12 Page:260
         3 001742   000000 620005                    EAX0    0,AL
         3 001743   000000 622005                    EAX2    0,AL
         3 001744   000056 237000 4                  LDAQ    46
         3 001745   000004 755010 xsym               STA     FMT_VEC+4,X0
         3 001746   000005 756012 xsym               STQ     FMT_VEC+5,X2
         3 001747   001757 710000 3                  TRA     s:16156

     1450    16153    4            CASE (L_RES_DEV);

     1451    16154    4               FMT_VEC(FDS.NVECS# + 2) = VECTOR( RES_STR);

  16154  3 001750   000011 235000 xsym               LDA     FDS+9
         3 001751   000001 735000                    ALS     1
         3 001752   000000 620005                    EAX0    0,AL
         3 001753   000000 622005                    EAX2    0,AL
         3 001754   000060 237000 4                  LDAQ    48
         3 001755   000004 755010 xsym               STA     FMT_VEC+4,X0
         3 001756   000005 756012 xsym               STQ     FMT_VEC+5,X2

     1452    16155    4            END;

     1453    16156    3         CLASS = C_TEXT;

  16156  3 001757   000001 235007                    LDA     1,DL
         3 001760   200245 755100                    STA     CLASS,,AUTO

     1454    16157    3         LEN = 3;

  16157  3 001761   000003 236007                    LDQ     3,DL
         3 001762   200065 756100                    STQ     LEN,,AUTO
         3 001763   003075 710000 3                  TRA     s:16463

     1455    16158
     1456    16159    3      CASE (L_CD_TYPE);

     1457    16160    3         IF DEV_NAME.COUNT = 8 THEN

PL6.E3A0      #003=ASL$DISP_ONE_DEVICE File=ASL$LIST_DEVICES.:E05TSI             TUE 07/29/97 10:12 Page:261
  16160  3 001764   200043 236100                    LDQ     DEV_NAME,,AUTO
         3 001765   777000 376003                    ANQ     -512,DU
         3 001766   010000 116003                    CMPQ    4096,DU
         3 001767   002002 601000 3                  TNZ     s:16163

     1458    16161    3            FMT_VEC(FDS.NVECS# + 2) = VECTOR( SUBSTR(DEV_NAME.TEXT,0,2) );

  16161  3 001770   000011 235000 xsym               LDA     FDS+9
         3 001771   000001 735000                    ALS     1
         3 001772   000000 620005                    EAX0    0,AL
         3 001773   377640 235007                    LDA     130976,DL
         3 001774   200250 452500                    STP2    YES_NO+2,,AUTO
         3 001775   200250 236100                    LDQ     YES_NO+2,,AUTO
         3 001776   000014 036000 4                  ADLQ    12
         3 001777   000004 755010 xsym               STA     FMT_VEC+4,X0
         3 002000   000005 756010 xsym               STQ     FMT_VEC+5,X0
         3 002001   002012 710000 3                  TRA     s:16164

     1459    16162    3         ELSE
     1460    16163    3            FMT_VEC(FDS.NVECS# + 2) = VECTOR( SUBSTR(KL$DREC.RENAME,0,2) );

  16163  3 002002   000011 235000 xsym               LDA     FDS+9
         3 002003   000001 735000                    ALS     1
         3 002004   000000 620005                    EAX0    0,AL
         3 002005   377640 235007                    LDA     130976,DL
         3 002006   000000 236000 xsym               LDQ     DSEG3$
         3 002007   000011 036003                    ADLQ    9,DU
         3 002010   000004 755010 xsym               STA     FMT_VEC+4,X0
         3 002011   000005 756010 xsym               STQ     FMT_VEC+5,X0

     1461    16164    3         CLASS = C_TEXT;

  16164  3 002012   000001 235007                    LDA     1,DL
         3 002013   200245 755100                    STA     CLASS,,AUTO

     1462    16165    3         LEN = 2;

PL6.E3A0      #003=ASL$DISP_ONE_DEVICE File=ASL$LIST_DEVICES.:E05TSI             TUE 07/29/97 10:12 Page:262
  16165  3 002014   000002 236007                    LDQ     2,DL
         3 002015   200065 756100                    STQ     LEN,,AUTO
         3 002016   003075 710000 3                  TRA     s:16463

     1463    16166
     1464    16167    3      CASE (L_CD_UPLOCK );

     1465    16168    3         YES_NO = OUT$DEV.OSINFO.UPLOCKED;

  16168  3 002017   000000 470400 xsym               LDP0    DSEG3$
         3 002020   000034 236100                    LDQ     28,,PR0
         3 002021   400000 376003                    ANQ     -131072,DU
         3 002022   200246 756100                    STQ     YES_NO,,AUTO

     1466    16169    3         CLASS = C_YESNO;

  16169  3 002023   000002 235007                    LDA     2,DL
         3 002024   200245 755100                    STA     CLASS,,AUTO

     1467    16170    3         LEN = 3;

  16170  3 002025   000003 235007                    LDA     3,DL
         3 002026   200065 755100                    STA     LEN,,AUTO
         3 002027   003075 710000 3                  TRA     s:16463

     1468    16171
     1469    16172    3      CASE (L_CD_FORM);

     1470    16173    3         FMT_VEC(FDS.NVECS# + 2) = VECTOR( OUT$DEV.OSINFO.FNAME );

  16173  3 002030   000011 236000 xsym               LDQ     FDS+9
         3 002031   000001 736000                    QLS     1
         3 002032   000012 235000 4                  LDA     10
         3 002033   000000 620006                    EAX0    0,QL
         3 002034   000000 236000 xsym               LDQ     DSEG3$
         3 002035   000035 036003                    ADLQ    29,DU
         3 002036   000004 755010 xsym               STA     FMT_VEC+4,X0
PL6.E3A0      #003=ASL$DISP_ONE_DEVICE File=ASL$LIST_DEVICES.:E05TSI             TUE 07/29/97 10:12 Page:263
         3 002037   000005 756010 xsym               STQ     FMT_VEC+5,X0

     1471    16174    3         CLASS = C_TEXT;

  16174  3 002040   000001 235007                    LDA     1,DL
         3 002041   200245 755100                    STA     CLASS,,AUTO

     1472    16175    3         LEN = SIZEC (OUT$DEV.OSINFO.FNAME);

  16175  3 002042   000006 235007                    LDA     6,DL
         3 002043   200065 755100                    STA     LEN,,AUTO
         3 002044   003075 710000 3                  TRA     s:16463

     1473    16176
     1474    16177    3      CASE (L_CD_DEFPRIO);

     1475    16178    3         SBINS(SBIN_IDX + 1) = IN$DEV.ISINFO.DFPRI;

  16178  3 002045   000000 470400 xsym               LDP0    DSEG3$
         3 002046   000034 236100                    LDQ     28,,PR0
         3 002047   000011 772000                    QRL     9
         3 002050   000777 376007                    ANQ     511,DL
         3 002051   200237 720100                    LXL0    SBIN_IDX,,AUTO
         3 002052   200074 756110                    STQ     SBINS+1,X0,AUTO

     1476    16179    3         CLASS = C_SBIN;

  16179  3 002053   000014 235007                    LDA     12,DL
         3 002054   200245 755100                    STA     CLASS,,AUTO

     1477    16180    3         LEN = 3;

  16180  3 002055   000003 235007                    LDA     3,DL
         3 002056   200065 755100                    STA     LEN,,AUTO
         3 002057   003075 710000 3                  TRA     s:16463

     1478    16181
PL6.E3A0      #003=ASL$DISP_ONE_DEVICE File=ASL$LIST_DEVICES.:E05TSI             TUE 07/29/97 10:12 Page:264
     1479    16182    3      CASE (L_CD_NCTL);

     1480    16183    3         YES_NO = IN$DEV.ISINFO.NCTL;

  16183  3 002060   000000 470400 xsym               LDP0    DSEG3$
         3 002061   000034 236100                    LDQ     28,,PR0
         3 002062   400000 376003                    ANQ     -131072,DU
         3 002063   200246 756100                    STQ     YES_NO,,AUTO

     1481    16184    3         CLASS = C_YESNO;

  16184  3 002064   000002 235007                    LDA     2,DL
         3 002065   200245 755100                    STA     CLASS,,AUTO

     1482    16185    3         LEN = 3;

  16185  3 002066   000003 235007                    LDA     3,DL
         3 002067   200065 755100                    STA     LEN,,AUTO
         3 002070   003075 710000 3                  TRA     s:16463

     1483    16186
     1484    16187    3      CASE (L_CD_NCOK);

     1485    16188    3         YES_NO = IN$DEV.ISINFO.NCTLOK;

  16188  3 002071   000000 470400 xsym               LDP0    DSEG3$
         3 002072   000034 236100                    LDQ     28,,PR0
         3 002073   000001 736000                    QLS     1
         3 002074   400000 376003                    ANQ     -131072,DU
         3 002075   200246 756100                    STQ     YES_NO,,AUTO

     1486    16189    3         CLASS = C_YESNO;

  16189  3 002076   000002 235007                    LDA     2,DL
         3 002077   200245 755100                    STA     CLASS,,AUTO

     1487    16190    3         LEN = 3;
PL6.E3A0      #003=ASL$DISP_ONE_DEVICE File=ASL$LIST_DEVICES.:E05TSI             TUE 07/29/97 10:12 Page:265

  16190  3 002100   000003 235007                    LDA     3,DL
         3 002101   200065 755100                    STA     LEN,,AUTO
         3 002102   003075 710000 3                  TRA     s:16463

     1488    16191
     1489    16192    3      CASE (L_CD_NCACCT);

     1490    16193    3         FMT_VEC(FDS.NVECS# + 2) = VECTOR( IN$DEV.ISINFO.NCACCT );

  16193  3 002103   000011 236000 xsym               LDQ     FDS+9
         3 002104   000001 736000                    QLS     1
         3 002105   000032 235000 4                  LDA     26
         3 002106   000000 620006                    EAX0    0,QL
         3 002107   000000 236000 xsym               LDQ     DSEG3$
         3 002110   000035 036003                    ADLQ    29,DU
         3 002111   000004 755010 xsym               STA     FMT_VEC+4,X0
         3 002112   000005 756010 xsym               STQ     FMT_VEC+5,X0

     1491    16194    3         CLASS = C_TEXT;

  16194  3 002113   000001 235007                    LDA     1,DL
         3 002114   200245 755100                    STA     CLASS,,AUTO

     1492    16195    3         LEN = 12;

  16195  3 002115   000014 235007                    LDA     12,DL
         3 002116   200065 755100                    STA     LEN,,AUTO
         3 002117   003075 710000 3                  TRA     s:16463

     1493    16196
     1494    16197    3      CASE (L_CD_NCFID);

     1495    16198    3         CALL INDEX (LEN, AS_BLANK, IN$DEV.ISINFO.NFID);

  16198  3 002120   000000 470400 xsym               LDP0    DSEG3$
         3 002121   000000 124500                    SCM     mask='000'O
PL6.E3A0      #003=ASL$DISP_ONE_DEVICE File=ASL$LIST_DEVICES.:E05TSI             TUE 07/29/97 10:12 Page:266
         3 002122   000037 000120                    ADSC9   31,,PR0                  cn=0,n=80
         3 002123   000000 000001 xsym               ADSC9   AS_BLANK                 cn=0,n=1
         3 002124   200065 000100                    ARG     LEN,,AUTO

     1496    16199    4         IF LEN = 0 THEN DO;

  16199  3 002125   200065 236100                    LDQ     LEN,,AUTO
         3 002126   002141 601000 3                  TNZ     s:16204

     1497    16200    4            FMT_VEC ( FDS.NVECS# + 2) = VECTOR (NONE_STR);

  16200  3 002127   000011 235000 xsym               LDA     FDS+9
         3 002130   000001 735000                    ALS     1
         3 002131   000000 620005                    EAX0    0,AL
         3 002132   000000 622005                    EAX2    0,AL
         3 002133   000044 237000 4                  LDAQ    36
         3 002134   000004 755010 xsym               STA     FMT_VEC+4,X0
         3 002135   000005 756012 xsym               STQ     FMT_VEC+5,X2

     1498    16201    4            LEN = 4;

  16201  3 002136   000004 235007                    LDA     4,DL
         3 002137   200065 755100                    STA     LEN,,AUTO

     1499    16202    4            END;   /*  Blank fid  */

  16202  3 002140   002152 710000 3                  TRA     s:16205

     1500    16203    3         ELSE
     1501    16204    3            FMT_VEC(FDS.NVECS# + 2) = VECTOR(SUBSTR(IN$DEV.ISINFO.NFID,0,LEN));

  16204  3 002141   000011 235000 xsym               LDA     FDS+9
         3 002142   000001 735000                    ALS     1
         3 002143   000000 620005                    EAX0    0,AL
         3 002144   000064 737000                    LLS     52
         3 002145   000140 135007                    SBLA    96,DL
         3 002146   000000 236000 xsym               LDQ     DSEG3$
PL6.E3A0      #003=ASL$DISP_ONE_DEVICE File=ASL$LIST_DEVICES.:E05TSI             TUE 07/29/97 10:12 Page:267
         3 002147   000037 036003                    ADLQ    31,DU
         3 002150   000004 755010 xsym               STA     FMT_VEC+4,X0
         3 002151   000005 756010 xsym               STQ     FMT_VEC+5,X0

     1502    16205    3         CLASS = C_TEXT;

  16205  3 002152   000001 235007                    LDA     1,DL
         3 002153   200245 755100                    STA     CLASS,,AUTO
         3 002154   003075 710000 3                  TRA     s:16463

     1503    16206
     1504    16207    3      CASE ( L_CD_COMGROUP );

     1505    16208    3         FMT_VEC(FDS.NVECS# + 2) = VECTOR( SUBSTR(CG,0,CGCNT) );

  16208  3 002155   000011 236000 xsym               LDQ     FDS+9
         3 002156   000001 736000                    QLS     1
         3 002157   200015 235100                    LDA     CGCNT,,AUTO
         3 002160   000020 735000                    ALS     16
         3 002161   000140 135007                    SBLA    96,DL
         3 002162   200250 452500                    STP2    YES_NO+2,,AUTO
         3 002163   000000 620006                    EAX0    0,QL
         3 002164   200250 236100                    LDQ     YES_NO+2,,AUTO
         3 002165   000005 036003                    ADLQ    5,DU
         3 002166   000004 755010 xsym               STA     FMT_VEC+4,X0
         3 002167   000005 756010 xsym               STQ     FMT_VEC+5,X0

     1506    16209    3         CLASS = C_TEXT;

  16209  3 002170   000001 235007                    LDA     1,DL
         3 002171   200245 755100                    STA     CLASS,,AUTO

     1507    16210    3         LEN = CGCNT;

  16210  3 002172   200015 235100                    LDA     CGCNT,,AUTO
         3 002173   200065 755100                    STA     LEN,,AUTO
         3 002174   003075 710000 3                  TRA     s:16463
PL6.E3A0      #003=ASL$DISP_ONE_DEVICE File=ASL$LIST_DEVICES.:E05TSI             TUE 07/29/97 10:12 Page:268

     1508    16211
     1509    16212    3      CASE (L_CD_SNAME);

     1510    16213    4         IF KL$DREC.RENAME = ' ' THEN DO;

  16213  3 002175   000000 470400 xsym               LDP0    DSEG3$
         3 002176   040000 106500                    CMPC    fill='040'O
         3 002177   000011 000010                    ADSC9   9,,PR0                   cn=0,n=8
         3 002200   000035 000001 xsym               ADSC9   B_VECTNIL+29             cn=0,n=1
         3 002201   002214 601000 3                  TNZ     s:16218

     1511    16214    4            FMT_VEC(FDS.NVECS# + 2) = VECTOR( NONE_STR );

  16214  3 002202   000011 236000 xsym               LDQ     FDS+9
         3 002203   000001 736000                    QLS     1
         3 002204   000000 620006                    EAX0    0,QL
         3 002205   000000 622006                    EAX2    0,QL
         3 002206   000044 237000 4                  LDAQ    36
         3 002207   000004 755010 xsym               STA     FMT_VEC+4,X0
         3 002210   000005 756012 xsym               STQ     FMT_VEC+5,X2

     1512    16215    4            LEN = SIZEC (NONE_STR);

  16215  3 002211   000004 235007                    LDA     4,DL
         3 002212   200065 755100                    STA     LEN,,AUTO

     1513    16216    4            END;

  16216  3 002213   002226 710000 3                  TRA     s:16221

     1514    16217    4         ELSE DO;

     1515    16218    4            FMT_VEC(FDS.NVECS# + 2) = VECTOR( KL$DREC.RENAME );

  16218  3 002214   000011 236000 xsym               LDQ     FDS+9
         3 002215   000001 736000                    QLS     1
PL6.E3A0      #003=ASL$DISP_ONE_DEVICE File=ASL$LIST_DEVICES.:E05TSI             TUE 07/29/97 10:12 Page:269
         3 002216   000032 235000 4                  LDA     26
         3 002217   000000 620006                    EAX0    0,QL
         3 002220   000000 236000 xsym               LDQ     DSEG3$
         3 002221   000011 036003                    ADLQ    9,DU
         3 002222   000004 755010 xsym               STA     FMT_VEC+4,X0
         3 002223   000005 756010 xsym               STQ     FMT_VEC+5,X0

     1516    16219    4            LEN = SIZEC (KL$DREC.RENAME);

  16219  3 002224   000010 235007                    LDA     8,DL
         3 002225   200065 755100                    STA     LEN,,AUTO

     1517    16220    4            END;

     1518    16221    3         CLASS = C_TEXT;

  16221  3 002226   000001 236007                    LDQ     1,DL
         3 002227   200245 756100                    STQ     CLASS,,AUTO
         3 002230   003075 710000 3                  TRA     s:16463

     1519    16222
     1520    16223    3      CASE (L_CD_NOCG);

     1521    16224    3         IF KL$DREC.FLAGS.NOCGREJ THEN

  16224  3 002231   000000 470400 xsym               LDP0    DSEG3$
         3 002232   000000 236100                    LDQ     0,,PR0
         3 002233   000004 316003                    CANQ    4,DU
         3 002234   002247 600000 3                  TZE     s:16230

     1522    16225    4         DO;

     1523    16226    4            FMT_VEC(FDS.NVECS# + 2) = VECTOR( REJECT_STR );

  16226  3 002235   000011 235000 xsym               LDA     FDS+9
         3 002236   000001 735000                    ALS     1
         3 002237   000000 620005                    EAX0    0,AL
PL6.E3A0      #003=ASL$DISP_ONE_DEVICE File=ASL$LIST_DEVICES.:E05TSI             TUE 07/29/97 10:12 Page:270
         3 002240   000000 622005                    EAX2    0,AL
         3 002241   000062 237000 4                  LDAQ    50
         3 002242   000004 755010 xsym               STA     FMT_VEC+4,X0
         3 002243   000005 756012 xsym               STQ     FMT_VEC+5,X2

     1524    16227    4            LEN = 6;

  16227  3 002244   000006 235007                    LDA     6,DL
         3 002245   200065 755100                    STA     LEN,,AUTO

     1525    16228    4            END;

  16228  3 002246   002274 710000 3                  TRA     s:16239

     1526    16229    3         ELSE
     1527    16230    3            IF KL$DREC.FLAGS.NOCGINF THEN

  16230  3 002247   000002 316003                    CANQ    2,DU
         3 002250   002263 600000 3                  TZE     s:16236

     1528    16231    4            DO;

     1529    16232    4               FMT_VEC(FDS.NVECS# + 2) = VECTOR( INFORM_STR );

  16232  3 002251   000011 235000 xsym               LDA     FDS+9
         3 002252   000001 735000                    ALS     1
         3 002253   000000 620005                    EAX0    0,AL
         3 002254   000000 622005                    EAX2    0,AL
         3 002255   000064 237000 4                  LDAQ    52
         3 002256   000004 755010 xsym               STA     FMT_VEC+4,X0
         3 002257   000005 756012 xsym               STQ     FMT_VEC+5,X2

     1530    16233    4               LEN = 6;

  16233  3 002260   000006 235007                    LDA     6,DL
         3 002261   200065 755100                    STA     LEN,,AUTO

PL6.E3A0      #003=ASL$DISP_ONE_DEVICE File=ASL$LIST_DEVICES.:E05TSI             TUE 07/29/97 10:12 Page:271
     1531    16234    4               END;

  16234  3 002262   002274 710000 3                  TRA     s:16239

     1532    16235    4            ELSE DO;

     1533    16236    4               FMT_VEC(FDS.NVECS# + 2) = VECTOR( OK_STR );

  16236  3 002263   000011 235000 xsym               LDA     FDS+9
         3 002264   000001 735000                    ALS     1
         3 002265   000000 620005                    EAX0    0,AL
         3 002266   000000 622005                    EAX2    0,AL
         3 002267   000066 237000 4                  LDAQ    54
         3 002270   000004 755010 xsym               STA     FMT_VEC+4,X0
         3 002271   000005 756012 xsym               STQ     FMT_VEC+5,X2

     1534    16237    4               LEN = 2;

  16237  3 002272   000002 235007                    LDA     2,DL
         3 002273   200065 755100                    STA     LEN,,AUTO

     1535    16238    4               END;

     1536    16239    3         CLASS = C_TEXT;

  16239  3 002274   000001 236007                    LDQ     1,DL
         3 002275   200245 756100                    STQ     CLASS,,AUTO
         3 002276   003075 710000 3                  TRA     s:16463

     1537    16240
     1538    16241    3      CASE (L_CD_USER1);

     1539    16242    3         SBINS(SBIN_IDX + 1) = CG$DEV.B$CGAUINFO.USER1;

  16242  3 002277   000000 470400 xsym               LDP0    DSEG3$
         3 002300   000034 235100                    LDA     28,,PR0
         3 002301   200237 720100                    LXL0    SBIN_IDX,,AUTO
PL6.E3A0      #003=ASL$DISP_ONE_DEVICE File=ASL$LIST_DEVICES.:E05TSI             TUE 07/29/97 10:12 Page:272
         3 002302   200074 755110                    STA     SBINS+1,X0,AUTO

     1540    16243    3         CLASS = C_SBIN;

  16243  3 002303   000014 236007                    LDQ     12,DL
         3 002304   200245 756100                    STQ     CLASS,,AUTO

     1541    16244    3         LEN = 11;

  16244  3 002305   000013 235007                    LDA     11,DL
         3 002306   200065 755100                    STA     LEN,,AUTO
         3 002307   003075 710000 3                  TRA     s:16463

     1542    16245
     1543    16246    3      CASE (L_CD_USER2);

     1544    16247    3         SBINS(SBIN_IDX + 1) = CG$DEV.B$CGAUINFO.USER2;

  16247  3 002310   000000 470400 xsym               LDP0    DSEG3$
         3 002311   000035 235100                    LDA     29,,PR0
         3 002312   200237 720100                    LXL0    SBIN_IDX,,AUTO
         3 002313   200074 755110                    STA     SBINS+1,X0,AUTO

     1545    16248    3         CLASS = C_SBIN;

  16248  3 002314   000014 236007                    LDQ     12,DL
         3 002315   200245 756100                    STQ     CLASS,,AUTO

     1546    16249    3         LEN = 11;

  16249  3 002316   000013 235007                    LDA     11,DL
         3 002317   200065 755100                    STA     LEN,,AUTO
         3 002320   003075 710000 3                  TRA     s:16463

     1547    16250
     1548    16251    3      CASE (L_CD_USER3);

PL6.E3A0      #003=ASL$DISP_ONE_DEVICE File=ASL$LIST_DEVICES.:E05TSI             TUE 07/29/97 10:12 Page:273
     1549    16252    3         SBINS(SBIN_IDX + 1) = CG$DEV.B$CGAUINFO.USER3;

  16252  3 002321   000000 470400 xsym               LDP0    DSEG3$
         3 002322   000036 235100                    LDA     30,,PR0
         3 002323   200237 720100                    LXL0    SBIN_IDX,,AUTO
         3 002324   200074 755110                    STA     SBINS+1,X0,AUTO

     1550    16253    3         CLASS = C_SBIN;

  16253  3 002325   000014 236007                    LDQ     12,DL
         3 002326   200245 756100                    STQ     CLASS,,AUTO

     1551    16254    3         LEN = 11;

  16254  3 002327   000013 235007                    LDA     11,DL
         3 002330   200065 755100                    STA     LEN,,AUTO
         3 002331   003075 710000 3                  TRA     s:16463

     1552    16255
     1553    16256    3      CASE (L_CD_USER4);

     1554    16257    3         SBINS(SBIN_IDX + 1) = CG$DEV.B$CGAUINFO.USER4;

  16257  3 002332   000000 470400 xsym               LDP0    DSEG3$
         3 002333   000037 235100                    LDA     31,,PR0
         3 002334   200237 720100                    LXL0    SBIN_IDX,,AUTO
         3 002335   200074 755110                    STA     SBINS+1,X0,AUTO

     1555    16258    3         CLASS = C_SBIN;

  16258  3 002336   000014 236007                    LDQ     12,DL
         3 002337   200245 756100                    STQ     CLASS,,AUTO

     1556    16259    3         LEN = 11;

  16259  3 002340   000013 235007                    LDA     11,DL
         3 002341   200065 755100                    STA     LEN,,AUTO
PL6.E3A0      #003=ASL$DISP_ONE_DEVICE File=ASL$LIST_DEVICES.:E05TSI             TUE 07/29/97 10:12 Page:274
         3 002342   003075 710000 3                  TRA     s:16463

     1557    16260
     1558    16261    3      CASE (L_CD_INSTANCE);

     1559    16262    3         FMT_VEC(FDS.NVECS# + 2) = VECTOR( SUBSTR(INSTANCE,0,INSTANCECNT) );

  16262  3 002343   000011 236000 xsym               LDQ     FDS+9
         3 002344   000001 736000                    QLS     1
         3 002345   200064 235100                    LDA     INSTANCECNT,,AUTO
         3 002346   000020 735000                    ALS     16
         3 002347   000140 135007                    SBLA    96,DL
         3 002350   200250 452500                    STP2    YES_NO+2,,AUTO
         3 002351   000000 620006                    EAX0    0,QL
         3 002352   200250 236100                    LDQ     YES_NO+2,,AUTO
         3 002353   000057 036003                    ADLQ    47,DU
         3 002354   000004 755010 xsym               STA     FMT_VEC+4,X0
         3 002355   000005 756010 xsym               STQ     FMT_VEC+5,X0

     1560    16263    3         CLASS = C_TEXT;

  16263  3 002356   000001 235007                    LDA     1,DL
         3 002357   200245 755100                    STA     CLASS,,AUTO

     1561    16264    3         LEN = INSTANCECNT;

  16264  3 002360   200064 235100                    LDA     INSTANCECNT,,AUTO
         3 002361   200065 755100                    STA     LEN,,AUTO
         3 002362   003075 710000 3                  TRA     s:16463

     1562    16265
     1563    16266    3      CASE (L_CD_PRIORITY);

     1564    16267    3         SBINS(SBIN_IDX + 1) = TP$DEV.QQ$LOGON.PRIO;

  16267  3 002363   000000 470400 xsym               LDP0    DSEG3$
         3 002364   000034 236100                    LDQ     28,,PR0
PL6.E3A0      #003=ASL$DISP_ONE_DEVICE File=ASL$LIST_DEVICES.:E05TSI             TUE 07/29/97 10:12 Page:275
         3 002365   000011 772000                    QRL     9
         3 002366   000777 376007                    ANQ     511,DL
         3 002367   200237 720100                    LXL0    SBIN_IDX,,AUTO
         3 002370   200074 756110                    STQ     SBINS+1,X0,AUTO

     1565    16268    3         CLASS = C_SBIN;

  16268  3 002371   000014 235007                    LDA     12,DL
         3 002372   200245 755100                    STA     CLASS,,AUTO

     1566    16269    3         LEN = 3;

  16269  3 002373   000003 235007                    LDA     3,DL
         3 002374   200065 755100                    STA     LEN,,AUTO
         3 002375   003075 710000 3                  TRA     s:16463

     1567    16270
     1568    16271    3      CASE (L_CD_MCT );

     1569    16272        /*  This chart will show the use and combination of these bits...
     1570    16273                     | mct | mctcmd | mctd |
     1571    16274              -------|-----|--------|------|
     1572    16275                 yes |  1  |   1    |  0   |
     1573    16276              -------|-----|--------|------|
     1574    16277                 no  |  0  |   0    |  0   |
     1575    16278              -------|-----|--------|------|
     1576    16279              command|  0  |   1    |  0   |
     1577    16280              -------|-----|--------|------|
     1578    16281              display|  0  |   0    |  1   |
     1579    16282              ------------------------------
     1580    16283        and that's that!!!
     1581    16284        */
     1582    16285
     1583    16286    3         IF TP$DEV.QQ$LOGON.MCT THEN

  16286  3 002376   000000 470400 xsym               LDP0    DSEG3$
         3 002377   000034 234100                    SZN     28,,PR0
PL6.E3A0      #003=ASL$DISP_ONE_DEVICE File=ASL$LIST_DEVICES.:E05TSI             TUE 07/29/97 10:12 Page:276
         3 002400   002413 605000 3                  TPL     s:16291

     1584    16287    4         DO;

     1585    16288    4            FMT_VEC(FDS.NVECS# + 2) = VECTOR( YES_STR );

  16288  3 002401   000011 236000 xsym               LDQ     FDS+9
         3 002402   000001 736000                    QLS     1
         3 002403   000000 620006                    EAX0    0,QL
         3 002404   000000 622006                    EAX2    0,QL
         3 002405   000070 237000 4                  LDAQ    56
         3 002406   000004 755010 xsym               STA     FMT_VEC+4,X0
         3 002407   000005 756012 xsym               STQ     FMT_VEC+5,X2

     1586    16289    4            LEN = 3;

  16289  3 002410   000003 235007                    LDA     3,DL
         3 002411   200065 755100                    STA     LEN,,AUTO

     1587    16290    4            END;

  16290  3 002412   002455 710000 3                  TRA     s:16305

     1588    16291    3         ELSE IF TP$DEV.QQ$LOGON.MCTD THEN

  16291  3 002413   000034 236100                    LDQ     28,,PR0
         3 002414   100000 316003                    CANQ    32768,DU
         3 002415   002430 600000 3                  TZE     s:16296

     1589    16292    4            DO;

     1590    16293    4               FMT_VEC(FDS.NVECS# + 2) = VECTOR( DISPLAY_STR );

  16293  3 002416   000011 235000 xsym               LDA     FDS+9
         3 002417   000001 735000                    ALS     1
         3 002420   000000 620005                    EAX0    0,AL
         3 002421   000000 622005                    EAX2    0,AL
PL6.E3A0      #003=ASL$DISP_ONE_DEVICE File=ASL$LIST_DEVICES.:E05TSI             TUE 07/29/97 10:12 Page:277
         3 002422   000072 237000 4                  LDAQ    58
         3 002423   000004 755010 xsym               STA     FMT_VEC+4,X0
         3 002424   000005 756012 xsym               STQ     FMT_VEC+5,X2

     1591    16294    4               LEN = 7;

  16294  3 002425   000007 235007                    LDA     7,DL
         3 002426   200065 755100                    STA     LEN,,AUTO

     1592    16295    4               END;

  16295  3 002427   002455 710000 3                  TRA     s:16305

     1593    16296    3            ELSE IF TP$DEV.QQ$LOGON.MCTCMD THEN

  16296  3 002430   200000 316003                    CANQ    65536,DU
         3 002431   002444 600000 3                  TZE     s:16302

     1594    16297    4               DO;

     1595    16298    4                  FMT_VEC(FDS.NVECS# + 2) = VECTOR( COMMANDS_STR );

  16298  3 002432   000011 235000 xsym               LDA     FDS+9
         3 002433   000001 735000                    ALS     1
         3 002434   000000 620005                    EAX0    0,AL
         3 002435   000000 622005                    EAX2    0,AL
         3 002436   000074 237000 4                  LDAQ    60
         3 002437   000004 755010 xsym               STA     FMT_VEC+4,X0
         3 002440   000005 756012 xsym               STQ     FMT_VEC+5,X2

     1596    16299    4                  LEN = 8;

  16299  3 002441   000010 235007                    LDA     8,DL
         3 002442   200065 755100                    STA     LEN,,AUTO

     1597    16300    4                  END;

PL6.E3A0      #003=ASL$DISP_ONE_DEVICE File=ASL$LIST_DEVICES.:E05TSI             TUE 07/29/97 10:12 Page:278
  16300  3 002443   002455 710000 3                  TRA     s:16305

     1598    16301    4               ELSE DO;

     1599    16302    4                  FMT_VEC(FDS.NVECS# + 2) = VECTOR( NO_STR );

  16302  3 002444   000011 235000 xsym               LDA     FDS+9
         3 002445   000001 735000                    ALS     1
         3 002446   000000 620005                    EAX0    0,AL
         3 002447   000000 622005                    EAX2    0,AL
         3 002450   000076 237000 4                  LDAQ    62
         3 002451   000004 755010 xsym               STA     FMT_VEC+4,X0
         3 002452   000005 756012 xsym               STQ     FMT_VEC+5,X2

     1600    16303    4                  LEN = 2;

  16303  3 002453   000002 235007                    LDA     2,DL
         3 002454   200065 755100                    STA     LEN,,AUTO

     1601    16304    4                  END;

     1602    16305    3         CLASS = C_TEXT;

  16305  3 002455   000001 236007                    LDQ     1,DL
         3 002456   200245 756100                    STQ     CLASS,,AUTO
         3 002457   003075 710000 3                  TRA     s:16463

     1603    16306
     1604    16307    3      CASE ( L_CD_MODE );

     1605    16308
     1606    16309    4         DO CASE (RESCL$DREC.CL_DEV.MODE);

  16309  3 002460   000000 470400 xsym               LDP0    DSEG3$
         3 002461   000020 236100                    LDQ     16,,PR0
         3 002462   000033 772000                    QRL     27
         3 002463   000004 116007                    CMPQ    4,DL
PL6.E3A0      #003=ASL$DISP_ONE_DEVICE File=ASL$LIST_DEVICES.:E05TSI             TUE 07/29/97 10:12 Page:279
         3 002464   002466 602006 3                  TNC     s:16309+6,QL
         3 002465   002530 710000 3                  TRA     s:16328
         3 002466   002530 710000 3                  TRA     s:16328
         3 002467   002472 710000 3                  TRA     s:16313
         3 002470   002504 710000 3                  TRA     s:16318
         3 002471   002516 710000 3                  TRA     s:16323

     1607    16310
     1608    16311    4            CASE (%KL_DEVMODE_INCOMING#);

     1609    16312
     1610    16313    4               FMT_VEC(FDS.NVECS# + 2) = VECTOR (INCOMING_STR);

  16313  3 002472   000011 235000 xsym               LDA     FDS+9
         3 002473   000001 735000                    ALS     1
         3 002474   000000 620005                    EAX0    0,AL
         3 002475   000000 622005                    EAX2    0,AL
         3 002476   000100 237000 4                  LDAQ    64
         3 002477   000004 755010 xsym               STA     FMT_VEC+4,X0
         3 002500   000005 756012 xsym               STQ     FMT_VEC+5,X2

     1611    16314    4               LEN = LENGTHC (INCOMING_STR);

  16314  3 002501   000011 235007                    LDA     9,DL
         3 002502   200065 755100                    STA     LEN,,AUTO
         3 002503   002541 710000 3                  TRA     s:16333

     1612    16315
     1613    16316    4            CASE (%KL_DEVMODE_OUTGOING#);

     1614    16317
     1615    16318    4               FMT_VEC(FDS.NVECS# + 2) = VECTOR (OUTGOING_STR);

  16318  3 002504   000011 235000 xsym               LDA     FDS+9
         3 002505   000001 735000                    ALS     1
         3 002506   000000 620005                    EAX0    0,AL
         3 002507   000000 622005                    EAX2    0,AL
PL6.E3A0      #003=ASL$DISP_ONE_DEVICE File=ASL$LIST_DEVICES.:E05TSI             TUE 07/29/97 10:12 Page:280
         3 002510   000102 237000 4                  LDAQ    66
         3 002511   000004 755010 xsym               STA     FMT_VEC+4,X0
         3 002512   000005 756012 xsym               STQ     FMT_VEC+5,X2

     1616    16319    4               LEN = LENGTHC (OUTGOING_STR);

  16319  3 002513   000010 235007                    LDA     8,DL
         3 002514   200065 755100                    STA     LEN,,AUTO
         3 002515   002541 710000 3                  TRA     s:16333

     1617    16320
     1618    16321    4            CASE (%KL_DEVMODE_FIXED#);

     1619    16322
     1620    16323    4               FMT_VEC(FDS.NVECS# + 2) = VECTOR (FIXED_STR);

  16323  3 002516   000011 235000 xsym               LDA     FDS+9
         3 002517   000001 735000                    ALS     1
         3 002520   000000 620005                    EAX0    0,AL
         3 002521   000000 622005                    EAX2    0,AL
         3 002522   000104 237000 4                  LDAQ    68
         3 002523   000004 755010 xsym               STA     FMT_VEC+4,X0
         3 002524   000005 756012 xsym               STQ     FMT_VEC+5,X2

     1621    16324    4               LEN = LENGTHC (FIXED_STR);

  16324  3 002525   000005 235007                    LDA     5,DL
         3 002526   200065 755100                    STA     LEN,,AUTO
         3 002527   002541 710000 3                  TRA     s:16333

     1622    16325
     1623    16326    4            CASE (ELSE);

     1624    16327
     1625    16328    4               FMT_VEC(FDS.NVECS# + 2) = VECTOR (NONE_STR);

  16328  3 002530   000011 235000 xsym               LDA     FDS+9
PL6.E3A0      #003=ASL$DISP_ONE_DEVICE File=ASL$LIST_DEVICES.:E05TSI             TUE 07/29/97 10:12 Page:281
         3 002531   000001 735000                    ALS     1
         3 002532   000000 620005                    EAX0    0,AL
         3 002533   000000 622005                    EAX2    0,AL
         3 002534   000044 237000 4                  LDAQ    36
         3 002535   000004 755010 xsym               STA     FMT_VEC+4,X0
         3 002536   000005 756012 xsym               STQ     FMT_VEC+5,X2

     1626    16329    4               LEN = LENGTHC (NONE_STR);

  16329  3 002537   000004 235007                    LDA     4,DL
         3 002540   200065 755100                    STA     LEN,,AUTO

     1627    16330
     1628    16331    4            END; /*  Do case mode  */

     1629    16332
     1630    16333    3         CLASS = C_TEXT;

  16333  3 002541   000001 236007                    LDQ     1,DL
         3 002542   200245 756100                    STQ     CLASS,,AUTO
         3 002543   003075 710000 3                  TRA     s:16463

     1631    16334
     1632    16335    3      CASE ( L_CD_RNAME );

     1633    16336
     1634    16337    3         FMT_VEC(FDS.NVECS# + 2) = VECTOR (RESCL$DREC.CL_DEV.RNAME);

  16337  3 002544   000011 236000 xsym               LDQ     FDS+9
         3 002545   000001 736000                    QLS     1
         3 002546   000012 235000 4                  LDA     10
         3 002547   000000 620006                    EAX0    0,QL
         3 002550   000000 236000 xsym               LDQ     DSEG3$
         3 002551   000106 036000 4                  ADLQ    70
         3 002552   000004 755010 xsym               STA     FMT_VEC+4,X0
         3 002553   000005 756010 xsym               STQ     FMT_VEC+5,X0

PL6.E3A0      #003=ASL$DISP_ONE_DEVICE File=ASL$LIST_DEVICES.:E05TSI             TUE 07/29/97 10:12 Page:282
     1635    16338    3         LEN = LENGTHC (RESCL$DREC.CL_DEV.RNAME);

  16338  3 002554   000006 235007                    LDA     6,DL
         3 002555   200065 755100                    STA     LEN,,AUTO

     1636    16339    3         CLASS = C_TEXT;

  16339  3 002556   000001 235007                    LDA     1,DL
         3 002557   200245 755100                    STA     CLASS,,AUTO
         3 002560   003075 710000 3                  TRA     s:16463

     1637    16340
     1638    16341    3      CASE ( L_CD_AUACCT );

     1639    16342
     1640    16343    4         IF RESCL$DREC.CL_DEV.AUACCOUNT = ' ' THEN DO;

  16343  3 002561   000000 470400 xsym               LDP0    DSEG3$
         3 002562   040000 106500                    CMPC    fill='040'O
         3 002563   000022 200010                    ADSC9   18,,PR0                  cn=1,n=8
         3 002564   000035 000001 xsym               ADSC9   B_VECTNIL+29             cn=0,n=1
         3 002565   002600 601000 3                  TNZ     s:16348

     1641    16344    4            FMT_VEC(FDS.NVECS# + 2) = VECTOR ( NONE_STR );

  16344  3 002566   000011 236000 xsym               LDQ     FDS+9
         3 002567   000001 736000                    QLS     1
         3 002570   000000 620006                    EAX0    0,QL
         3 002571   000000 622006                    EAX2    0,QL
         3 002572   000044 237000 4                  LDAQ    36
         3 002573   000004 755010 xsym               STA     FMT_VEC+4,X0
         3 002574   000005 756012 xsym               STQ     FMT_VEC+5,X2

     1642    16345    4            LEN = 4;

  16345  3 002575   000004 235007                    LDA     4,DL
         3 002576   200065 755100                    STA     LEN,,AUTO
PL6.E3A0      #003=ASL$DISP_ONE_DEVICE File=ASL$LIST_DEVICES.:E05TSI             TUE 07/29/97 10:12 Page:283

     1643    16346    4            END;  /*  Blank  */

  16346  3 002577   002612 710000 3                  TRA     s:16351

     1644    16347    4         ELSE DO;

     1645    16348    4            FMT_VEC(FDS.NVECS# + 2) = VECTOR (RESCL$DREC.CL_DEV.AUACCOUNT);

  16348  3 002600   000011 236000 xsym               LDQ     FDS+9
         3 002601   000001 736000                    QLS     1
         3 002602   000032 235000 4                  LDA     26
         3 002603   000000 620006                    EAX0    0,QL
         3 002604   000000 236000 xsym               LDQ     DSEG3$
         3 002605   000107 036000 4                  ADLQ    71
         3 002606   000004 755010 xsym               STA     FMT_VEC+4,X0
         3 002607   000005 756010 xsym               STQ     FMT_VEC+5,X0

     1646    16349    4            LEN = LENGTHC (RESCL$DREC.CL_DEV.AUACCOUNT);

  16349  3 002610   000010 235007                    LDA     8,DL
         3 002611   200065 755100                    STA     LEN,,AUTO

     1647    16350    4            END;  /*  Non blank  */

     1648    16351    3         CLASS = C_TEXT;

  16351  3 002612   000001 236007                    LDQ     1,DL
         3 002613   200245 756100                    STQ     CLASS,,AUTO
         3 002614   003075 710000 3                  TRA     s:16463

     1649    16352
     1650    16353    3      CASE ( L_CD_B300 );

     1651    16354
     1652    16355    3         YES_NO = RESCL$DREC.CL_DEV.ATTR.B300#;

PL6.E3A0      #003=ASL$DISP_ONE_DEVICE File=ASL$LIST_DEVICES.:E05TSI             TUE 07/29/97 10:12 Page:284
  16355  3 002615   000000 470400 xsym               LDP0    DSEG3$
         3 002616   000020 236100                    LDQ     16,,PR0
         3 002617   000011 736000                    QLS     9
         3 002620   400000 376003                    ANQ     -131072,DU
         3 002621   200246 756100                    STQ     YES_NO,,AUTO

     1653    16356    3         GOTO CHECK_TCPIP_ATTR;

  16356  3 002622   002636 710000 3                  TRA     CHECK_TCPIP_ATTR

     1654    16357
     1655    16358    3      CASE ( L_CD_B1200 );

     1656    16359
     1657    16360    3         YES_NO = RESCL$DREC.CL_DEV.ATTR.B1200#;

  16360  3 002623   000000 470400 xsym               LDP0    DSEG3$
         3 002624   000020 236100                    LDQ     16,,PR0
         3 002625   000012 736000                    QLS     10
         3 002626   400000 376003                    ANQ     -131072,DU
         3 002627   200246 756100                    STQ     YES_NO,,AUTO

     1658    16361    3         GOTO CHECK_TCPIP_ATTR;

  16361  3 002630   002636 710000 3                  TRA     CHECK_TCPIP_ATTR

     1659    16362
     1660    16363    3      CASE ( L_CD_B2400 );

     1661    16364
     1662    16365    3         YES_NO = RESCL$DREC.CL_DEV.ATTR.B2400#;

  16365  3 002631   000000 470400 xsym               LDP0    DSEG3$
         3 002632   000020 236100                    LDQ     16,,PR0
         3 002633   000013 736000                    QLS     11
         3 002634   400000 376003                    ANQ     -131072,DU
         3 002635   200246 756100                    STQ     YES_NO,,AUTO
PL6.E3A0      #003=ASL$DISP_ONE_DEVICE File=ASL$LIST_DEVICES.:E05TSI             TUE 07/29/97 10:12 Page:285

  16365  3 002636                       CHECK_TCPIP* null
     1663    16366    3   CHECK_TCPIP_ATTR: ;
     1664    16367    3         IF RESCL$DREC.CL_DEV.ATTR.TCPIP# THEN

  16367  3 002636   000020 236100                    LDQ     16,,PR0
         3 002637   000004 316003                    CANQ    4,DU
         3 002640   002643 600000 3                  TZE     s:16369

     1665    16368    3            NEXT = NEXT + L_CD_TCP_PRIV - L_CD_B300; /* Show tcpip names */

  16368  3 002641   000022 236007                    LDQ     18,DL
         3 002642   200070 056100                    ASQ     NEXT,,AUTO

     1666    16369    3         CLASS = C_YESNO;

  16369  3 002643   000002 235007                    LDA     2,DL
         3 002644   200245 755100                    STA     CLASS,,AUTO

     1667    16370    3         LEN = 3;

  16370  3 002645   000003 236007                    LDQ     3,DL
         3 002646   200065 756100                    STQ     LEN,,AUTO
         3 002647   003075 710000 3                  TRA     s:16463

     1668    16371
     1669    16372    3      CASE ( L_CD_HAYES );

     1670    16373
     1671    16374    3         YES_NO = RESCL$DREC.CL_DEV.ATTR.HAYES#;

  16374  3 002650   000000 470400 xsym               LDP0    DSEG3$
         3 002651   000020 236100                    LDQ     16,,PR0
         3 002652   000014 736000                    QLS     12
         3 002653   400000 376003                    ANQ     -131072,DU
         3 002654   200246 756100                    STQ     YES_NO,,AUTO

PL6.E3A0      #003=ASL$DISP_ONE_DEVICE File=ASL$LIST_DEVICES.:E05TSI             TUE 07/29/97 10:12 Page:286
     1672    16375    3         CLASS = C_YESNO;

  16375  3 002655   000002 235007                    LDA     2,DL
         3 002656   200245 755100                    STA     CLASS,,AUTO

     1673    16376    3         LEN = 3;

  16376  3 002657   000003 235007                    LDA     3,DL
         3 002660   200065 755100                    STA     LEN,,AUTO
         3 002661   003075 710000 3                  TRA     s:16463

     1674    16377
     1675    16378    3      CASE ( L_CD_X28 );

     1676    16379
     1677    16380    3         YES_NO = RESCL$DREC.CL_DEV.ATTR.X28#;

  16380  3 002662   000000 470400 xsym               LDP0    DSEG3$
         3 002663   000020 236100                    LDQ     16,,PR0
         3 002664   000015 736000                    QLS     13
         3 002665   400000 376003                    ANQ     -131072,DU
         3 002666   200246 756100                    STQ     YES_NO,,AUTO

     1678    16381    3         CLASS = C_YESNO;

  16381  3 002667   000002 235007                    LDA     2,DL
         3 002670   200245 755100                    STA     CLASS,,AUTO

     1679    16382    3         LEN = 3;

  16382  3 002671   000003 235007                    LDA     3,DL
         3 002672   200065 755100                    STA     LEN,,AUTO
         3 002673   003075 710000 3                  TRA     s:16463

     1680    16383
     1681    16384    3      CASE ( L_CD_RFU1 );

PL6.E3A0      #003=ASL$DISP_ONE_DEVICE File=ASL$LIST_DEVICES.:E05TSI             TUE 07/29/97 10:12 Page:287
     1682    16385
     1683    16386    3         YES_NO = RESCL$DREC.CL_DEV.ATTR.RFU1#;

  16386  3 002674   000000 470400 xsym               LDP0    DSEG3$
         3 002675   000020 236100                    LDQ     16,,PR0
         3 002676   000032 736000                    QLS     26
         3 002677   400000 376003                    ANQ     -131072,DU
         3 002700   200246 756100                    STQ     YES_NO,,AUTO

     1684    16387    3         CLASS = C_YESNO;

  16387  3 002701   000002 235007                    LDA     2,DL
         3 002702   200245 755100                    STA     CLASS,,AUTO

     1685    16388    3         LEN = 3;

  16388  3 002703   000003 235007                    LDA     3,DL
         3 002704   200065 755100                    STA     LEN,,AUTO
         3 002705   003075 710000 3                  TRA     s:16463

     1686    16389
     1687    16390    3      CASE ( L_CD_RFU2 );

     1688    16391
     1689    16392    3         YES_NO = RESCL$DREC.CL_DEV.ATTR.RFU2#;

  16392  3 002706   000000 470400 xsym               LDP0    DSEG3$
         3 002707   000020 236100                    LDQ     16,,PR0
         3 002710   000031 736000                    QLS     25
         3 002711   400000 376003                    ANQ     -131072,DU
         3 002712   200246 756100                    STQ     YES_NO,,AUTO

     1690    16393    3         CLASS = C_YESNO;

  16393  3 002713   000002 235007                    LDA     2,DL
         3 002714   200245 755100                    STA     CLASS,,AUTO

PL6.E3A0      #003=ASL$DISP_ONE_DEVICE File=ASL$LIST_DEVICES.:E05TSI             TUE 07/29/97 10:12 Page:288
     1691    16394    3         LEN = 3;

  16394  3 002715   000003 235007                    LDA     3,DL
         3 002716   200065 755100                    STA     LEN,,AUTO
         3 002717   003075 710000 3                  TRA     s:16463

     1692    16395
     1693    16396    3      CASE ( L_CD_RFU3 );

     1694    16397
     1695    16398    3         YES_NO = RESCL$DREC.CL_DEV.ATTR.RFU3#;

  16398  3 002720   000000 470400 xsym               LDP0    DSEG3$
         3 002721   000020 236100                    LDQ     16,,PR0
         3 002722   000030 736000                    QLS     24
         3 002723   400000 376003                    ANQ     -131072,DU
         3 002724   200246 756100                    STQ     YES_NO,,AUTO

     1696    16399    3         CLASS = C_YESNO;

  16399  3 002725   000002 235007                    LDA     2,DL
         3 002726   200245 755100                    STA     CLASS,,AUTO

     1697    16400    3         LEN = 3;

  16400  3 002727   000003 235007                    LDA     3,DL
         3 002730   200065 755100                    STA     LEN,,AUTO
         3 002731   003075 710000 3                  TRA     s:16463

     1698    16401
     1699    16402    3      CASE ( L_CD_RFU4 );

     1700    16403
     1701    16404    3         YES_NO = RESCL$DREC.CL_DEV.ATTR.RFU4#;

  16404  3 002732   000000 470400 xsym               LDP0    DSEG3$
         3 002733   000020 236100                    LDQ     16,,PR0
PL6.E3A0      #003=ASL$DISP_ONE_DEVICE File=ASL$LIST_DEVICES.:E05TSI             TUE 07/29/97 10:12 Page:289
         3 002734   000027 736000                    QLS     23
         3 002735   400000 376003                    ANQ     -131072,DU
         3 002736   200246 756100                    STQ     YES_NO,,AUTO

     1702    16405    3         CLASS = C_YESNO;

  16405  3 002737   000002 235007                    LDA     2,DL
         3 002740   200245 755100                    STA     CLASS,,AUTO

     1703    16406    3         LEN = 3;

  16406  3 002741   000003 235007                    LDA     3,DL
         3 002742   200065 755100                    STA     LEN,,AUTO
         3 002743   003075 710000 3                  TRA     s:16463

     1704    16407
     1705    16408    3      CASE ( L_CD_RFU5 );

     1706    16409
     1707    16410    3         YES_NO = RESCL$DREC.CL_DEV.ATTR.RFU5#;

  16410  3 002744   000000 470400 xsym               LDP0    DSEG3$
         3 002745   000020 236100                    LDQ     16,,PR0
         3 002746   000026 736000                    QLS     22
         3 002747   400000 376003                    ANQ     -131072,DU
         3 002750   200246 756100                    STQ     YES_NO,,AUTO

     1708    16411    3         CLASS = C_YESNO;

  16411  3 002751   000002 235007                    LDA     2,DL
         3 002752   200245 755100                    STA     CLASS,,AUTO

     1709    16412    3         LEN = 3;

  16412  3 002753   000003 235007                    LDA     3,DL
         3 002754   200065 755100                    STA     LEN,,AUTO
         3 002755   003075 710000 3                  TRA     s:16463
PL6.E3A0      #003=ASL$DISP_ONE_DEVICE File=ASL$LIST_DEVICES.:E05TSI             TUE 07/29/97 10:12 Page:290

     1710    16413
     1711    16414    3      CASE ( L_CD_RFU6 );

     1712    16415
     1713    16416    3         YES_NO = RESCL$DREC.CL_DEV.ATTR.RFU6#;

  16416  3 002756   000000 470400 xsym               LDP0    DSEG3$
         3 002757   000020 236100                    LDQ     16,,PR0
         3 002760   000025 736000                    QLS     21
         3 002761   400000 376003                    ANQ     -131072,DU
         3 002762   200246 756100                    STQ     YES_NO,,AUTO

     1714    16417    3         CLASS = C_YESNO;

  16417  3 002763   000002 235007                    LDA     2,DL
         3 002764   200245 755100                    STA     CLASS,,AUTO

     1715    16418    3         LEN = 3;

  16418  3 002765   000003 235007                    LDA     3,DL
         3 002766   200065 755100                    STA     LEN,,AUTO
         3 002767   003075 710000 3                  TRA     s:16463

     1716    16419
     1717    16420    3      CASE ( L_CD_RFU7 );

     1718    16421
     1719    16422    3         YES_NO = RESCL$DREC.CL_DEV.ATTR.RFU7#;

  16422  3 002770   000000 470400 xsym               LDP0    DSEG3$
         3 002771   000020 236100                    LDQ     16,,PR0
         3 002772   000024 736000                    QLS     20
         3 002773   400000 376003                    ANQ     -131072,DU
         3 002774   200246 756100                    STQ     YES_NO,,AUTO

     1720    16423    3         CLASS = C_YESNO;
PL6.E3A0      #003=ASL$DISP_ONE_DEVICE File=ASL$LIST_DEVICES.:E05TSI             TUE 07/29/97 10:12 Page:291

  16423  3 002775   000002 235007                    LDA     2,DL
         3 002776   200245 755100                    STA     CLASS,,AUTO

     1721    16424    3         LEN = 3;

  16424  3 002777   000003 235007                    LDA     3,DL
         3 003000   200065 755100                    STA     LEN,,AUTO
         3 003001   003075 710000 3                  TRA     s:16463

     1722    16425
     1723    16426    3      CASE ( L_CD_RFU8 );

     1724    16427
     1725    16428    3         YES_NO = RESCL$DREC.CL_DEV.ATTR.RFU8#;

  16428  3 003002   000000 470400 xsym               LDP0    DSEG3$
         3 003003   000020 236100                    LDQ     16,,PR0
         3 003004   000023 736000                    QLS     19
         3 003005   400000 376003                    ANQ     -131072,DU
         3 003006   200246 756100                    STQ     YES_NO,,AUTO

     1726    16429    3         CLASS = C_YESNO;

  16429  3 003007   000002 235007                    LDA     2,DL
         3 003010   200245 755100                    STA     CLASS,,AUTO

     1727    16430    3         LEN = 3;

  16430  3 003011   000003 235007                    LDA     3,DL
         3 003012   200065 755100                    STA     LEN,,AUTO
         3 003013   003075 710000 3                  TRA     s:16463

     1728    16431
     1729    16432    3      CASE ( L_CD_RFU9 );

     1730    16433
PL6.E3A0      #003=ASL$DISP_ONE_DEVICE File=ASL$LIST_DEVICES.:E05TSI             TUE 07/29/97 10:12 Page:292
     1731    16434    3         YES_NO = RESCL$DREC.CL_DEV.ATTR.RFU9#;

  16434  3 003014   000000 470400 xsym               LDP0    DSEG3$
         3 003015   000020 236100                    LDQ     16,,PR0
         3 003016   000022 736000                    QLS     18
         3 003017   400000 376003                    ANQ     -131072,DU
         3 003020   200246 756100                    STQ     YES_NO,,AUTO

     1732    16435    3         CLASS = C_YESNO;

  16435  3 003021   000002 235007                    LDA     2,DL
         3 003022   200245 755100                    STA     CLASS,,AUTO

     1733    16436    3         LEN = 3;

  16436  3 003023   000003 235007                    LDA     3,DL
         3 003024   200065 755100                    STA     LEN,,AUTO
         3 003025   003075 710000 3                  TRA     s:16463

     1734    16437
     1735    16438    3      CASE ( L_CD_RFU10 );

     1736    16439
     1737    16440    3         YES_NO = RESCL$DREC.CL_DEV.ATTR.RFU10#;

  16440  3 003026   000000 470400 xsym               LDP0    DSEG3$
         3 003027   000020 236100                    LDQ     16,,PR0
         3 003030   000021 736000                    QLS     17
         3 003031   400000 376003                    ANQ     -131072,DU
         3 003032   200246 756100                    STQ     YES_NO,,AUTO

     1738    16441    3         CLASS = C_YESNO;

  16441  3 003033   000002 235007                    LDA     2,DL
         3 003034   200245 755100                    STA     CLASS,,AUTO

     1739    16442    3         LEN = 3;
PL6.E3A0      #003=ASL$DISP_ONE_DEVICE File=ASL$LIST_DEVICES.:E05TSI             TUE 07/29/97 10:12 Page:293

  16442  3 003035   000003 235007                    LDA     3,DL
         3 003036   200065 755100                    STA     LEN,,AUTO
         3 003037   003075 710000 3                  TRA     s:16463

     1740    16443
     1741    16444    3      CASE ( L_CD_RFU11 );

     1742    16445
     1743    16446    3         YES_NO = RESCL$DREC.CL_DEV.ATTR.RFU11#;

  16446  3 003040   000000 470400 xsym               LDP0    DSEG3$
         3 003041   000020 236100                    LDQ     16,,PR0
         3 003042   000020 736000                    QLS     16
         3 003043   400000 376003                    ANQ     -131072,DU
         3 003044   200246 756100                    STQ     YES_NO,,AUTO

     1744    16447    3         CLASS = C_YESNO;

  16447  3 003045   000002 235007                    LDA     2,DL
         3 003046   200245 755100                    STA     CLASS,,AUTO

     1745    16448    3         LEN = 3;

  16448  3 003047   000003 235007                    LDA     3,DL
         3 003050   200065 755100                    STA     LEN,,AUTO
         3 003051   003075 710000 3                  TRA     s:16463

     1746    16449
     1747    16450    3      CASE ( L_CD_TCPIP );

     1748    16451
     1749    16452    3         YES_NO = RESCL$DREC.CL_DEV.ATTR.TCPIP#;

  16452  3 003052   000000 470400 xsym               LDP0    DSEG3$
         3 003053   000020 236100                    LDQ     16,,PR0
         3 003054   000017 736000                    QLS     15
PL6.E3A0      #003=ASL$DISP_ONE_DEVICE File=ASL$LIST_DEVICES.:E05TSI             TUE 07/29/97 10:12 Page:294
         3 003055   400000 376003                    ANQ     -131072,DU
         3 003056   200246 756100                    STQ     YES_NO,,AUTO

     1750    16453    3         CLASS = C_YESNO;

  16453  3 003057   000002 235007                    LDA     2,DL
         3 003060   200245 755100                    STA     CLASS,,AUTO

     1751    16454    3         LEN = 3;

  16454  3 003061   000003 235007                    LDA     3,DL
         3 003062   200065 755100                    STA     LEN,,AUTO
         3 003063   003075 710000 3                  TRA     s:16463

     1752    16455
     1753    16456    3      CASE ( L_CD_RFU13 );

     1754    16457
     1755    16458    3         YES_NO = RESCL$DREC.CL_DEV.ATTR.RFU13#;

  16458  3 003064   000000 470400 xsym               LDP0    DSEG3$
         3 003065   000020 236100                    LDQ     16,,PR0
         3 003066   000016 736000                    QLS     14
         3 003067   400000 376003                    ANQ     -131072,DU
         3 003070   200246 756100                    STQ     YES_NO,,AUTO

     1756    16459    3         CLASS = C_YESNO;

  16459  3 003071   000002 235007                    LDA     2,DL
         3 003072   200245 755100                    STA     CLASS,,AUTO

     1757    16460    3         LEN = 3;

  16460  3 003073   000003 235007                    LDA     3,DL
         3 003074   200065 755100                    STA     LEN,,AUTO

     1758    16461
PL6.E3A0      #003=ASL$DISP_ONE_DEVICE File=ASL$LIST_DEVICES.:E05TSI             TUE 07/29/97 10:12 Page:295
     1759    16462    3      END;                           /* End case ... finally               */

     1760    16463    2   SBINS (SBIN_IDX) = LEN + SIZEC (OPT_TBL.HDR(NEXT));

  16463  3 003075   200237 720100                    LXL0    SBIN_IDX,,AUTO
         3 003076   200065 235100                    LDA     LEN,,AUTO
         3 003077   000022 035007                    ADLA    18,DL
         3 003100   200073 755110                    STA     SBINS,X0,AUTO

     1761    16464    2   FMT_VEC (FDS.NVECS#) = VECTOR (SBINS(SBIN_IDX));

  16464  3 003101   000011 236000 xsym               LDQ     FDS+9
         3 003102   000001 736000                    QLS     1
         3 003103   777640 235007                    LDA     -96,DL
         3 003104   200250 452500                    STP2    YES_NO+2,,AUTO
         3 003105   000000 621006                    EAX1    0,QL
         3 003106   200237 236100                    LDQ     SBIN_IDX,,AUTO
         3 003107   000022 736000                    QLS     18
         3 003110   000073 036003                    ADLQ    59,DU
         3 003111   200250 036100                    ADLQ    YES_NO+2,,AUTO
         3 003112   000000 755011 xsym               STA     FMT_VEC,X1
         3 003113   000001 756011 xsym               STQ     FMT_VEC+1,X1

     1762    16465    2   FMT_VEC (FDS.NVECS#+1) = VECTOR (OPT_TBL.HDR(NEXT));

  16465  3 003114   000110 235000 4                  LDA     72
         3 003115   200070 236100                    LDQ     NEXT,,AUTO
         3 003116   200250 755100                    STA     YES_NO+2,,AUTO
         3 003117   000112 402000 4                  MPY     74
         3 003120   000111 036000 4                  ADLQ    73
         3 003121   200250 235100                    LDA     YES_NO+2,,AUTO
         3 003122   000002 755011 xsym               STA     FMT_VEC+2,X1
         3 003123   000003 756011 xsym               STQ     FMT_VEC+3,X1

     1763    16466    2   FDS.NVECS# = FDS.NVECS# + 2;

  16466  3 003124   000002 236007                    LDQ     2,DL
PL6.E3A0      #003=ASL$DISP_ONE_DEVICE File=ASL$LIST_DEVICES.:E05TSI             TUE 07/29/97 10:12 Page:296
         3 003125   000011 056000 xsym               ASQ     FDS+9

     1764    16467    2   SBIN_IDX = SBIN_IDX + 1;

  16467  3 003126   200237 054100                    AOS     SBIN_IDX,,AUTO

     1765    16468    2   SUBSTR (FMT_BUF, FDS.FMT_.BOUND+1,5) = '%NR%A';

  16468  3 003127   000000 236000 xsym               LDQ     FDS
         3 003130   000020 772000                    QRL     16
         3 003131   040006 100400                    MLR     fill='040'O
         3 003132   000641 000005 2                  ADSC9   YES_STR+26               cn=0,n=5
         3 003133   000000 200005 xsym               ADSC9   FMT_BUF,Q                cn=1,n=5

     1766    16469    2   FDS.FMT_.BOUND = FDS.FMT_.BOUND + 5;

  16469  3 003134   000005 036007                    ADLQ    5,DL
         3 003135   000020 736000                    QLS     16
         3 003136   000000 676000 xsym               ERQ     FDS
         3 003137   000034 376000 xsym               ANQ     B_VECTNIL+28
         3 003140   000000 656000 xsym               ERSQ    FDS

     1767    16470    3   DO SELECT (CLASS);

  16470  3 003141   200245 236100                    LDQ     CLASS,,AUTO
         3 003142   000002 116007                    CMPQ    2,DL
         3 003143   003156 604000 3                  TMI     s:16470+13
         3 003144   003225 600000 3                  TZE     s:16482
         3 003145   000005 116007                    CMPQ    5,DL
         3 003146   003153 604000 3                  TMI     s:16470+10
         3 003147   003347 600000 3                  TZE     s:16504
         3 003150   000014 116007                    CMPQ    12,DL
         3 003151   003363 601000 3                  TNZ     s:16508
         3 003152   003175 710000 3                  TRA     s:16476
         3 003153   000004 116007                    CMPQ    4,DL
         3 003154   003363 601000 3                  TNZ     s:16508
         3 003155   003262 710000 3                  TRA     s:16490
PL6.E3A0      #003=ASL$DISP_ONE_DEVICE File=ASL$LIST_DEVICES.:E05TSI             TUE 07/29/97 10:12 Page:297
         3 003156   000001 116007                    CMPQ    1,DL
         3 003157   003363 601000 3                  TNZ     s:16508
         3 003160   003161 710000 3                  TRA     s:16472

     1768    16471    3      SELECT (C_TEXT);

     1769    16472    3      FDS.NVECS# = FDS.NVECS# + 1;

  16472  3 003161   000011 054000 xsym               AOS     FDS+9

     1770    16473    3      CALL INSERT(FMT_BUF,FDS.FMT_.BOUND+1,3,'%>A');

  16473  3 003162   000000 236000 xsym               LDQ     FDS
         3 003163   000020 772000                    QRL     16
         3 003164   040006 100400                    MLR     fill='040'O
         3 003165   000643 000003 2                  ADSC9   YES_STR+28               cn=0,n=3
         3 003166   000000 200003 xsym               ADSC9   FMT_BUF,Q                cn=1,n=3

     1771    16474    3      FDS.FMT_.BOUND = FDS.FMT_.BOUND + 3;

  16474  3 003167   000003 036007                    ADLQ    3,DL
         3 003170   000020 736000                    QLS     16
         3 003171   000000 676000 xsym               ERQ     FDS
         3 003172   000034 376000 xsym               ANQ     B_VECTNIL+28
         3 003173   000000 656000 xsym               ERSQ    FDS
         3 003174   003363 710000 3                  TRA     s:16508

     1772    16475    3      SELECT (C_SBIN);

     1773    16476    3      FMT_VEC(FDS.NVECS#) = VECTOR(SBINS(SBIN_IDX));

  16476  3 003175   000011 235000 xsym               LDA     FDS+9
         3 003176   000001 735000                    ALS     1
         3 003177   000000 620005                    EAX0    0,AL
         3 003200   777640 235007                    LDA     -96,DL
         3 003201   200250 452500                    STP2    YES_NO+2,,AUTO
         3 003202   200237 236100                    LDQ     SBIN_IDX,,AUTO
PL6.E3A0      #003=ASL$DISP_ONE_DEVICE File=ASL$LIST_DEVICES.:E05TSI             TUE 07/29/97 10:12 Page:298
         3 003203   000022 736000                    QLS     18
         3 003204   000073 036003                    ADLQ    59,DU
         3 003205   200250 036100                    ADLQ    YES_NO+2,,AUTO
         3 003206   000000 755010 xsym               STA     FMT_VEC,X0
         3 003207   000001 756010 xsym               STQ     FMT_VEC+1,X0

     1774    16477    3      FDS.NVECS# = FDS.NVECS# + 1;

  16477  3 003210   000011 054000 xsym               AOS     FDS+9

     1775    16478    3      SBIN_IDX = SBIN_IDX + 1;

  16478  3 003211   200237 054100                    AOS     SBIN_IDX,,AUTO

     1776    16479    3      CALL INSERT(FMT_BUF,FDS.FMT_.BOUND+1,3,'%+D');

  16479  3 003212   000000 236000 xsym               LDQ     FDS
         3 003213   000020 772000                    QRL     16
         3 003214   040006 100400                    MLR     fill='040'O
         3 003215   000644 000003 2                  ADSC9   YES_STR+29               cn=0,n=3
         3 003216   000000 200003 xsym               ADSC9   FMT_BUF,Q                cn=1,n=3

     1777    16480    3      FDS.FMT_.BOUND = FDS.FMT_.BOUND + 3;

  16480  3 003217   000003 036007                    ADLQ    3,DL
         3 003220   000020 736000                    QLS     16
         3 003221   000000 676000 xsym               ERQ     FDS
         3 003222   000034 376000 xsym               ANQ     B_VECTNIL+28
         3 003223   000000 656000 xsym               ERSQ    FDS
         3 003224   003363 710000 3                  TRA     s:16508

     1778    16481    3      SELECT (C_YESNO);

     1779    16482    3      IF YES_NO THEN

  16482  3 003225   200246 234100                    SZN     YES_NO,,AUTO
         3 003226   003237 605000 3                  TPL     s:16485
PL6.E3A0      #003=ASL$DISP_ONE_DEVICE File=ASL$LIST_DEVICES.:E05TSI             TUE 07/29/97 10:12 Page:299

     1780    16483    3         FMT_VEC(FDS.NVECS#) = VECTOR(YES_STR);

  16483  3 003227   000011 235000 xsym               LDA     FDS+9
         3 003230   000001 735000                    ALS     1
         3 003231   000000 620005                    EAX0    0,AL
         3 003232   000000 621005                    EAX1    0,AL
         3 003233   000070 237000 4                  LDAQ    56
         3 003234   000000 755010 xsym               STA     FMT_VEC,X0
         3 003235   000001 756011 xsym               STQ     FMT_VEC+1,X1
         3 003236   003246 710000 3                  TRA     s:16486

     1781    16484    3      ELSE
     1782    16485    3         FMT_VEC(FDS.NVECS#) = VECTOR(NO_STR);

  16485  3 003237   000011 235000 xsym               LDA     FDS+9
         3 003240   000001 735000                    ALS     1
         3 003241   000000 620005                    EAX0    0,AL
         3 003242   000000 621005                    EAX1    0,AL
         3 003243   000076 237000 4                  LDAQ    62
         3 003244   000000 755010 xsym               STA     FMT_VEC,X0
         3 003245   000001 756011 xsym               STQ     FMT_VEC+1,X1

     1783    16486    3      FDS.NVECS# = FDS.NVECS# + 1;

  16486  3 003246   000011 054000 xsym               AOS     FDS+9

     1784    16487    3      CALL INSERT(FMT_BUF,FDS.FMT_.BOUND+1,3,'%>A');

  16487  3 003247   000000 236000 xsym               LDQ     FDS
         3 003250   000020 772000                    QRL     16
         3 003251   040006 100400                    MLR     fill='040'O
         3 003252   000643 000003 2                  ADSC9   YES_STR+28               cn=0,n=3
         3 003253   000000 200003 xsym               ADSC9   FMT_BUF,Q                cn=1,n=3

     1785    16488    3      FDS.FMT_.BOUND = FDS.FMT_.BOUND + 3;

PL6.E3A0      #003=ASL$DISP_ONE_DEVICE File=ASL$LIST_DEVICES.:E05TSI             TUE 07/29/97 10:12 Page:300
  16488  3 003254   000003 036007                    ADLQ    3,DL
         3 003255   000020 736000                    QLS     16
         3 003256   000000 676000 xsym               ERQ     FDS
         3 003257   000034 376000 xsym               ANQ     B_VECTNIL+28
         3 003260   000000 656000 xsym               ERSQ    FDS
         3 003261   003363 710000 3                  TRA     s:16508

     1786    16489    3      SELECT (C_ATTRIBUTES);

     1787    16490    3      IF CON$DREC.OCINFO.KCADDR & MASK THEN

  16490  3 003262   000000 470400 xsym               LDP0    DSEG3$
         3 003263   000035 220100                    LDX0    29,,PR0
         3 003264   200067 360100                    ANX0    MASK,,AUTO
         3 003265   003311 600000 3                  TZE     s:16496

     1788    16491    3         IF CON$DREC.OCINFO.CADDR & MASK THEN

  16491  3 003266   000034 220100                    LDX0    28,,PR0
         3 003267   200067 360100                    ANX0    MASK,,AUTO
         3 003270   003301 600000 3                  TZE     s:16494

     1789    16492    3            FMT_VEC(FDS.NVECS#) = VECTOR( YES_STR );

  16492  3 003271   000011 235000 xsym               LDA     FDS+9
         3 003272   000001 735000                    ALS     1
         3 003273   000000 620005                    EAX0    0,AL
         3 003274   000000 621005                    EAX1    0,AL
         3 003275   000070 237000 4                  LDAQ    56
         3 003276   000000 755010 xsym               STA     FMT_VEC,X0
         3 003277   000001 756011 xsym               STQ     FMT_VEC+1,X1
         3 003300   003333 710000 3                  TRA     s:16500

     1790    16493    3         ELSE
     1791    16494    3            FMT_VEC(FDS.NVECS#) = VECTOR( KEYIN_STR );

  16494  3 003301   000011 235000 xsym               LDA     FDS+9
PL6.E3A0      #003=ASL$DISP_ONE_DEVICE File=ASL$LIST_DEVICES.:E05TSI             TUE 07/29/97 10:12 Page:301
         3 003302   000001 735000                    ALS     1
         3 003303   000000 620005                    EAX0    0,AL
         3 003304   000000 621005                    EAX1    0,AL
         3 003305   000114 237000 4                  LDAQ    76
         3 003306   000000 755010 xsym               STA     FMT_VEC,X0
         3 003307   000001 756011 xsym               STQ     FMT_VEC+1,X1
         3 003310   003333 710000 3                  TRA     s:16500

     1792    16495    3      ELSE
     1793    16496    3         IF CON$DREC.OCINFO.CADDR & MASK THEN

  16496  3 003311   000034 220100                    LDX0    28,,PR0
         3 003312   200067 360100                    ANX0    MASK,,AUTO
         3 003313   003324 600000 3                  TZE     s:16499

     1794    16497    3            FMT_VEC(FDS.NVECS#) = VECTOR( DISPLAY_STR);

  16497  3 003314   000011 235000 xsym               LDA     FDS+9
         3 003315   000001 735000                    ALS     1
         3 003316   000000 620005                    EAX0    0,AL
         3 003317   000000 621005                    EAX1    0,AL
         3 003320   000072 237000 4                  LDAQ    58
         3 003321   000000 755010 xsym               STA     FMT_VEC,X0
         3 003322   000001 756011 xsym               STQ     FMT_VEC+1,X1
         3 003323   003333 710000 3                  TRA     s:16500

     1795    16498    3         ELSE
     1796    16499    3            FMT_VEC(FDS.NVECS#) = VECTOR( NO_STR );

  16499  3 003324   000011 235000 xsym               LDA     FDS+9
         3 003325   000001 735000                    ALS     1
         3 003326   000000 620005                    EAX0    0,AL
         3 003327   000000 621005                    EAX1    0,AL
         3 003330   000076 237000 4                  LDAQ    62
         3 003331   000000 755010 xsym               STA     FMT_VEC,X0
         3 003332   000001 756011 xsym               STQ     FMT_VEC+1,X1

PL6.E3A0      #003=ASL$DISP_ONE_DEVICE File=ASL$LIST_DEVICES.:E05TSI             TUE 07/29/97 10:12 Page:302
     1797    16500    3      FDS.NVECS# = FDS.NVECS# + 1;

  16500  3 003333   000011 054000 xsym               AOS     FDS+9

     1798    16501    3      CALL INSERT(FMT_BUF,FDS.FMT_.BOUND+1,3,'%>A');

  16501  3 003334   000000 236000 xsym               LDQ     FDS
         3 003335   000020 772000                    QRL     16
         3 003336   040006 100400                    MLR     fill='040'O
         3 003337   000643 000003 2                  ADSC9   YES_STR+28               cn=0,n=3
         3 003340   000000 200003 xsym               ADSC9   FMT_BUF,Q                cn=1,n=3

     1799    16502    3      FDS.FMT_.BOUND = FDS.FMT_.BOUND + 3;

  16502  3 003341   000003 036007                    ADLQ    3,DL
         3 003342   000020 736000                    QLS     16
         3 003343   000000 676000 xsym               ERQ     FDS
         3 003344   000034 376000 xsym               ANQ     B_VECTNIL+28
         3 003345   000000 656000 xsym               ERSQ    FDS
         3 003346   003363 710000 3                  TRA     s:16508

     1800    16503    3      SELECT  (C_OCTAL);

     1801    16504    3      FDS.NVECS# = FDS.NVECS# + 2;

  16504  3 003347   000002 236007                    LDQ     2,DL
         3 003350   000011 056000 xsym               ASQ     FDS+9

     1802    16505    3      SUBSTR (FMT_BUF,FDS.FMT_.BOUND+1,13) = 'O''%12ZO%12ZO''';

  16505  3 003351   000000 236000 xsym               LDQ     FDS
         3 003352   000020 772000                    QRL     16
         3 003353   040006 100400                    MLR     fill='040'O
         3 003354   000645 000015 2                  ADSC9   YES_STR+30               cn=0,n=13
         3 003355   000000 200015 xsym               ADSC9   FMT_BUF,Q                cn=1,n=13

     1803    16506    3      FDS.FMT_.BOUND = FDS.FMT_.BOUND + 13;
PL6.E3A0      #003=ASL$DISP_ONE_DEVICE File=ASL$LIST_DEVICES.:E05TSI             TUE 07/29/97 10:12 Page:303

  16506  3 003356   000015 036007                    ADLQ    13,DL
         3 003357   000020 736000                    QLS     16
         3 003360   000000 676000 xsym               ERQ     FDS
         3 003361   000034 376000 xsym               ANQ     B_VECTNIL+28
         3 003362   000000 656000 xsym               ERSQ    FDS

     1804    16507    3      END;                           /* End case                      */

     1805    16508    3   IF JCL THEN DO;

  16508  3 003363   200003 470500                    LDP0    @JCL,,AUTO
         3 003364   000000 066500                    CMPB    filb='0'B
         3 003365   000000 000001                    BDSC    0,,PR0                   by=0,bit=0,n=1
         3 003366   000002 000022 xsym               BDSC    B_VECTNIL+2              by=0,bit=0,n=18
         3 003367   003402 600000 3                  TZE     s:16512

     1806    16509    3      SUBSTR (FMT_BUF,FDS.FMT_.BOUND+1,1) = ';';

  16509  3 003370   000000 236000 xsym               LDQ     FDS
         3 003371   000020 772000                    QRL     16
         3 003372   040006 100400                    MLR     fill='040'O
         3 003373   000113 000001 4                  ADSC9   75                       cn=0,n=1
         3 003374   000000 200001 xsym               ADSC9   FMT_BUF,Q                cn=1,n=1

     1807    16510    3      FDS.FMT_.BOUND = FDS.FMT_.BOUND + 1;

  16510  3 003375   000001 036007                    ADLQ    1,DL
         3 003376   000020 736000                    QLS     16
         3 003377   000000 676000 xsym               ERQ     FDS
         3 003400   000034 376000 xsym               ANQ     B_VECTNIL+28
         3 003401   000000 656000 xsym               ERSQ    FDS

     1808    16511    3      END;  /*  Jcl  */

     1809    16512    2   RETURN;

PL6.E3A0      #003=ASL$DISP_ONE_DEVICE File=ASL$LIST_DEVICES.:E05TSI             TUE 07/29/97 10:12 Page:304
  16512  3 003402   200244 221300                    LDX1  ! T_SNAME+3,,AUTO
         3 003403   000001 702211                    TSX2  ! 1,X1
     1810    16513    2   END INSERT_FIELD;
     1811    16514    1   END ASL$DISP_ONE_DEVICE;

PL6.E3A0      #003=ASL$DISP_ONE_DEVICE File=ASL$LIST_DEVICES.:E05TSI             TUE 07/29/97 10:12 Page:305
--  Include file information  --

   AS_SUPER_R.:E05TOU  cannot be made into a system file and is referenced.
   XU_FORMAT_C.:E05TOU  is referenced.
   XU_MACRO_C.:E05TOU  is referenced.
   KL_SUPER_C.:E05TOU  is referenced.
   CP_6.:E05TOU  cannot be made into a system file and is referenced.
   OCI_SUBS_C.:E05TOU  is referenced.
   OC$INFO.:E05TOU  is referenced.
   FI_MAC_C.:E05TOU  is referenced.
   FOO_MAC_C.:E05TOU  is referenced.
   QQ_SUPER_C.:E05TOU  is referenced.
   KC$CGBLK.:E05TOU  is referenced.
   AS_SUPER_C.:E05TOU  is referenced.
   AS_ENTRIES_M.:E05TOU  is referenced.
   AS_PERR_C.:E05TOU  is referenced.
   AS_SSUBS_C.:E05TOU  is referenced.
   AS_MAC_C.:E05TOU  cannot be made into a system file and is referenced.
   AS_SUBS_C.:E05TOU  is referenced.
   B$JIT_C.:E05TOU  was found in the system file and is never referenced.
   CP_6_C.:E05TOU  was found in the system file and is referenced.
      No diagnostics issued in procedure ASL$DISP_ONE_DEVICE.
PL6.E3A0      #003=ASL$DISP_ONE_DEVICE File=ASL$LIST_DEVICES.:E05TSI             TUE 07/29/97 10:12 Page:306

 **** Variables and constants ****

  ****  Section 002 RoData ASL$DISP_ONE_DEVICE

  ****  Scalars and arrays  ****
OctLoc.c.b A Datatyp(siz) R M Lvl/name                 OctLoc.c.b A Datatyp(siz) R M Lvl/name

   523-0-0/c CHAR(2)     r     1 CG_STR                   524-0-0/c CHAR(8)     r     1 COMMANDS_STR
   526-0-0/c CHAR(7)     r     1 CONSOLE_STR              530-0-0/c CHAR(6)     r     1 DEVICE_STR
   532-0-0/c CHAR(41)    r     1 DEVWSNS_HDR              545-0-0/c CHAR(7)     r     1 DISPLAY_STR
   547-0-0/c CHAR(5)     r     1 FIXED_STR                551-0-0/c CHAR(9)     r     1 INCOMING_STR
   554-0-0/c CHAR(6)     r     1 INFORM_STR               556-0-0/c CHAR(2)     r     1 IN_STR
   557-0-0/c CHAR(5)     r     1 KEYIN_STR                564-0-0/c CHAR(4)     r     1 NONE_STR
   565-0-0/c CHAR(2)     r     1 NO_STR                   566-0-0/c CHAR(2)     r     1 OK_STR
     0-0-0/c STRC(12204) r     1 OPT_TBL                  567-0-0/c CHAR(8)     r     1 OUTGOING_STR
   571-0-0/c CHAR(3)     r     1 OUT_STR                  572-0-0/c CHAR(6)     r     1 REJECT_STR
   574-0-0/c CHAR(8)     r     1 RES_STR                  576-0-0/c CHAR(13)    r     1 STATION_STR
   602-0-0/c CHAR(14)    r     1 TERMINAL_STR             606-0-0/c CHAR(2)     r     1 TP_STR
   607-0-0/c CHAR(3)     r     1 YES_STR

  ****  Auto variables  ****

  ****  Scalars and arrays  ****
OctLoc.c.b A Datatyp(siz) R M Lvl/name                 OctLoc.c.b A Datatyp(siz) R M Lvl/name

     3-0-0/w PTR         r     1 @JCL                       4-0-0/w PTR         r     1 @TERMINAL
     5-0-0/c CHAR(32)    r     1 CG                        15-0-0/w UBIN        r     1 CGCNT
   245-0-0/w SBIN        r     1 CLASS                     16-0-0/c CHAR(80)    r     1 CMD
    42-0-0/w UBIN        r     1 CMDCNT                    43-0-0/c STRC(378)   r     1 DEV_NAME
    56-0-0/w SBIN        r     1 I                         57-0-0/c CHAR(18)    r     1 INSTANCE
    64-0-0/w UBIN        r     1 INSTANCECNT               *0-0-0/b BIT         r     1 JCL
    65-0-0/w SBIN        r     1 LEN                       66-0-0/w UBIN        r     1 L_TYPE
    67-0-0/b BIT (18)    r     1 MASK                      70-0-0/w SBIN        r     1 NEXT
    71-0-0/w UBIN        r     1 NUM_OPTS                  72-0-0/w PTR         r     1 OPT_ORDR$
    73-0-0/w SBIN        r     1 SBINS(0:99)              237-0-0/w SBIN        r     1 SBIN_IDX
   240-0-0/w SBIN        r     1 ST_IDX                    *0-0-0/b BIT         r     1 TERMINAL
   241-0-0/c CHAR(8)     r     1 T_SNAME                  246-0-0/w BIT         r     1 YES_NO
PL6.E3A0      #003=ASL$DISP_ONE_DEVICE File=ASL$LIST_DEVICES.:E05TSI             TUE 07/29/97 10:12 Page:307

  ****  SYMREF variables  ****

  ****  Scalars and arrays  ****
OctLoc.c.b A Datatyp(siz) R M Lvl/name                 OctLoc.c.b A Datatyp(siz) R M Lvl/name

     0-0-0/c CHAR        r     1 AS_BLANK                   0-0-0/c CHAR(8)     r     1 BLANK_PASS
     0-0-0/w PTR         r     1 DSEG1$                     0-0-0/w UBIN        r     1 DSEG1SIZE
     0-0-0/w PTR         r     1 DSEG3$                     0-0-0/w STRC(1080)  r     1 FDS
     0-0-0/c CHAR(255)   r     1 FMT_BUF                    0-0-0/w STRC(72)    r     1 FMT_VEC(0:75)
     0-0-0/c STRC(378)   r     1 USERS_KEY

  ****  BASED and DCB variables  ****

  ****  Scalars and arrays  ****
OctLoc.c.b A Datatyp(siz) R M Lvl/name                 OctLoc.c.b A Datatyp(siz) R M Lvl/name

     0-0-0/w STRC(1908)  r     1 CG$DEV                     0-0-0/w STRC(2016)  r     1 CON$DREC
     0-0-0/w STRC(108)   r     1 DEVWSNS                    0-0-0/w STRC(1980)  r     1 IN$DEV
     0-0-0/w STRC(1008)  r     1 KL$DREC
     0-0-0/b UBIN(9)     r     1 OPT$ORDR(0:0)
     0-0-0/w STRC(1188)  r     1 OUT$DEV                    0-0-0/w STRC(729)   r     1 RESCL$DREC
     0-0-0/c ASTR(9)     r     1 TEXT$C                     0-0-0/w STRC(2088)  r     1 TP$DEV


   Procedure ASL$DISP_ONE_DEVICE requires 1796 words for executable code.
   Procedure ASL$DISP_ONE_DEVICE requires 170 words of local(AUTO) storage.

    No errors detected in file ASL$LIST_DEVICES.:E05TSI    .
PL6.E3A0      #003=ASL$DISP_ONE_DEVICE File=ASL$LIST_DEVICES.:E05TSI             TUE 07/29/97 10:12 Page:308
          *** CROSS REFERENCE LISTING ***
**     DENOTES     IDENTIFIER DEFINITION
<<                 IDENTIFIER'S VALUE SET
>>                 IDENTIFIER'S VALUE USED
<>                 IDENTIFIER SET AND/OR USED
--                 IDENTIFIER REFERENCED
PL6.E3A0      #003=ASL$DISP_ONE_DEVICE File=ASL$LIST_DEVICES.:E05TSI             TUE 07/29/97 10:12 Page:309
          MINI XREF LISTING

ASA$ERROR
     14342**DCL-ENT 15891--CALL
ASA_BRKS_LOC
     11478**DCL     11478--REDEF
ASB$READ_HLP
     14339**DCL-ENT 15889--CALL    15989--CALL
ASB$WRITE_LO
     14345**DCL-ENT 16017--CALL
AS_BLANK
     11338**DCL     15946>>CALLBLT 15958>>CALLBLT 15961>>IF      15966>>CALLBLT 16017<>CALL    16198>>CALLBLT
AS_DEFAULT.BANNER_PERM
     12171**DCL     12172--REDEF
AS_DEFAULT.BUDGET.MACCT
     12076**DCL     12080--REDEF
AS_DEFAULT.BUDGET.MAX_PROJECTS
     12089**DCL     12092--REDEF
AS_DEFAULT.BUDGET.PACCUM
     12072**DCL     12074--REDEF
AS_DEFAULT.BUDGET.PMAXC
     12067**DCL     12069--REDEF
AS_DEFAULT.SETUP_CHRA.TXT
     12187**DCL     12188--REDEF   12189--REDEF
AS_DEFAULT_DREC.PASSWORD
     13441**DCL     13445--REDEF
AS_DEFAULT_DREC.RENAME
     13464**DCL     13465--REDEF
AS_DFLT.BANNER_PERM
     11993**DCL     11994--REDEF
AS_DFLT.BUDGET.MACCT
     11898**DCL     11902--REDEF
AS_DFLT.BUDGET.MAX_PROJECTS
     11911**DCL     11914--REDEF
PL6.E3A0      #003=ASL$DISP_ONE_DEVICE File=ASL$LIST_DEVICES.:E05TSI             TUE 07/29/97 10:12 Page:310
AS_DFLT.BUDGET.PACCUM
     11894**DCL     11896--REDEF
AS_DFLT.BUDGET.PMAXC
     11889**DCL     11891--REDEF
AS_DFLT.SETUP_CHRA.TXT
     12009**DCL     12010--REDEF   12011--REDEF
AS_FE_MODE
     11344**DCL     11345--REDEF
AS_MODE
     11341**DCL     11343--REDEF
AS_MOD_USER.ACCESS
     14206**DCL     14207--REDEF
AS_MOD_USER.BANNER
     14193**DCL     14194--REDEF
AS_MOD_USER.BANNER_PERM
     14195**DCL     14196--REDEF
AS_MOD_USER.BILL
     14201**DCL     14202--REDEF
AS_MOD_USER.CPROC
     14197**DCL     14198--REDEF
AS_MOD_USER.FEBILL
     14277**DCL     14278--REDEF
AS_MOD_USER.FECXTMEM
     14294**DCL     14295--REDEF
AS_MOD_USER.FEMINTS
     14279**DCL     14280--REDEF
AS_MOD_USER.FEMMEM
     14290**DCL     14291--REDEF
AS_MOD_USER.FEMTIME
     14288**DCL     14289--REDEF
AS_MOD_USER.FEPPRIV
     14285**DCL     14287--REDEF
AS_MOD_USER.FEPRIV
     14282**DCL     14284--REDEF
AS_MOD_USER.FORCE_BIT
     14191**DCL     14192--REDEF
PL6.E3A0      #003=ASL$DISP_ONE_DEVICE File=ASL$LIST_DEVICES.:E05TSI             TUE 07/29/97 10:12 Page:311
AS_MOD_USER.KEY
     14273**DCL     14275--REDEF
AS_MOD_USER.LASTCPROC
     14199**DCL     14200--REDEF
AS_MOD_USER.LIMITS.DO_
     14247**DCL     14248--REDEF
AS_MOD_USER.LIMITS.FPOOLS
     14263**DCL     14264--REDEF
AS_MOD_USER.LIMITS.LO
     14243**DCL     14244--REDEF
AS_MOD_USER.LIMITS.MEM
     14239**DCL     14240--REDEF
AS_MOD_USER.LIMITS.MPRIO
     14267**DCL     14268--REDEF
AS_MOD_USER.LIMITS.PDIS
     14255**DCL     14256--REDEF
AS_MOD_USER.LIMITS.PO
     14251**DCL     14252--REDEF
AS_MOD_USER.LIMITS.TDIS
     14259**DCL     14260--REDEF
AS_MOD_USER.LIMITS.TIME
     14235**DCL     14236--REDEF
AS_MOD_USER.MAXENQ
     14216**DCL     14217--REDEF
AS_MOD_USER.PERM_BIT
     14189**DCL     14190--REDEF
AS_MOD_USER.PPRIV
     14211**DCL     14213--REDEF
AS_MOD_USER.PRIOB
     14218**DCL     14219--REDEF
AS_MOD_USER.PRIV
     14208**DCL     14210--REDEF
AS_MOD_USER.QUAN
     14214**DCL     14215--REDEF
AS_MOD_USER.SETUP
     14187**DCL     14188--REDEF
PL6.E3A0      #003=ASL$DISP_ONE_DEVICE File=ASL$LIST_DEVICES.:E05TSI             TUE 07/29/97 10:12 Page:312
AS_PROJECT.BANNER_PERM
     12527**DCL     12528--REDEF
AS_PROJECT.BUDGET.MACCT
     12432**DCL     12436--REDEF
AS_PROJECT.BUDGET.MAX_PROJECTS
     12445**DCL     12448--REDEF
AS_PROJECT.BUDGET.PACCUM
     12428**DCL     12430--REDEF
AS_PROJECT.BUDGET.PMAXC
     12423**DCL     12425--REDEF
AS_PROJECT.SETUP_CHRA.TXT
     12543**DCL     12544--REDEF   12545--REDEF
AS_PROJECT_DFLT.BANNER_PERM
     12705**DCL     12706--REDEF
AS_PROJECT_DFLT.BUDGET.MACCT
     12610**DCL     12614--REDEF
AS_PROJECT_DFLT.BUDGET.MAX_PROJECTS
     12623**DCL     12626--REDEF
AS_PROJECT_DFLT.BUDGET.PACCUM
     12606**DCL     12608--REDEF
AS_PROJECT_DFLT.BUDGET.PMAXC
     12601**DCL     12603--REDEF
AS_PROJECT_DFLT.SETUP_CHRA.TXT
     12721**DCL     12722--REDEF   12723--REDEF
AS_PROJECT_DFLT_DREC.PASSWORD
     13927**DCL     13931--REDEF
AS_PROJECT_DFLT_DREC.RENAME
     13950**DCL     13951--REDEF
AS_PROJECT_DREC.PASSWORD
     13765**DCL     13769--REDEF
AS_PROJECT_DREC.RENAME
     13788**DCL     13789--REDEF
AS_PROJ_ADMIN.BANNER_PERM
     12349**DCL     12350--REDEF
AS_PROJ_ADMIN.BUDGET.MACCT
     12254**DCL     12258--REDEF
PL6.E3A0      #003=ASL$DISP_ONE_DEVICE File=ASL$LIST_DEVICES.:E05TSI             TUE 07/29/97 10:12 Page:313
AS_PROJ_ADMIN.BUDGET.MAX_PROJECTS
     12267**DCL     12270--REDEF
AS_PROJ_ADMIN.BUDGET.PACCUM
     12250**DCL     12252--REDEF
AS_PROJ_ADMIN.BUDGET.PMAXC
     12245**DCL     12247--REDEF
AS_PROJ_ADMIN.SETUP_CHRA.TXT
     12365**DCL     12366--REDEF   12367--REDEF
AS_PROJ_ADMIN_DREC.PASSWORD
     13603**DCL     13607--REDEF
AS_PROJ_ADMIN_DREC.RENAME
     13626**DCL     13627--REDEF
AS_USERS.BANNER_PERM
     11815**DCL     11816--REDEF
AS_USERS.BUDGET.MACCT
     11720**DCL     11724--REDEF
AS_USERS.BUDGET.MAX_PROJECTS
     11733**DCL     11736--REDEF
AS_USERS.BUDGET.PACCUM
     11716**DCL     11718--REDEF
AS_USERS.BUDGET.PMAXC
     11711**DCL     11713--REDEF
AS_USERS.SETUP_CHRA.TXT
     11831**DCL     11832--REDEF   11833--REDEF
AS_USERS_CONSTANT.BANNER_PERM
     12883**DCL     12884--REDEF
AS_USERS_CONSTANT.BUDGET.MACCT
     12788**DCL     12792--REDEF
AS_USERS_CONSTANT.BUDGET.MAX_PROJECTS
     12801**DCL     12804--REDEF
AS_USERS_CONSTANT.BUDGET.PACCUM
     12784**DCL     12786--REDEF
AS_USERS_CONSTANT.BUDGET.PMAXC
     12779**DCL     12781--REDEF
AS_USERS_CONSTANT.SETUP_CHRA.TXT
     12899**DCL     12900--REDEF   12901--REDEF
PL6.E3A0      #003=ASL$DISP_ONE_DEVICE File=ASL$LIST_DEVICES.:E05TSI             TUE 07/29/97 10:12 Page:314
BLANK_PASS
     11469**DCL     16043>>IF
CG
     15761**DCL     15948<<CALLBLT 15952<<ASSIGN  15955<<CALLBLT 16208--ASSIGN
CG$DEV.B$CGAUINFO.UCMD
     15462**DCL     15940>>ASSIGN
CG$DEV.B$CGAUINFO.UCMDCNT
     15461**DCL     15939>>ASSIGN
CG$DEV.B$CGAUINFO.USER1
     15460**DCL     16242>>ASSIGN
CG$DEV.B$CGAUINFO.USER2
     15460**DCL     16247>>ASSIGN
CG$DEV.B$CGAUINFO.USER3
     15460**DCL     16252>>ASSIGN
CG$DEV.B$CGAUINFO.USER4
     15461**DCL     16257>>ASSIGN
CG$DEV.KC$CGID.ACCT#
     15437**DCL     15955>>CALLBLT 15958>>CALLBLT
CG$DEV.KC$CGID.NAME#.CNT
     15441**DCL     15955>>CALLBLT 15959>>ASSIGN
CG$DEV.KC$CGID.NAME#.TXT
     15442**DCL     15955>>CALLBLT
CG$DEV.KC$CGID.PSN#
     15438**DCL     15946>>CALLBLT 15948>>CALLBLT
CG$DEV.PASSWORD
     15376**DCL     15380--REDEF
CG$DEV.RENAME
     15399**DCL     15400--REDEF
CGCNT
     15762**DCL     15949<<ASSIGN  15953<<ASSIGN  15955>>CALLBLT 15959<<ASSIGN  15959>>ASSIGN  16208>>ASSIGN
     16210>>ASSIGN
CG_STR
     15735**DCL     16150--ASSIGN
CHECK_TCPIP_ATTR IN PROCEDURE INSERT_FIELD
     16365**LABEL   16356--GOTO    16361--GOTO
CLASS IN PROCEDURE INSERT_FIELD
PL6.E3A0      #003=ASL$DISP_ONE_DEVICE File=ASL$LIST_DEVICES.:E05TSI             TUE 07/29/97 10:12 Page:315
     16024**DCL     16039<<ASSIGN  16045<<ASSIGN  16051<<ASSIGN  16063<<ASSIGN  16088<<ASSIGN  16092<<ASSIGN
     16097<<ASSIGN  16102<<ASSIGN  16107<<ASSIGN  16112<<ASSIGN  16117<<ASSIGN  16130<<ASSIGN  16141<<ASSIGN
     16156<<ASSIGN  16164<<ASSIGN  16169<<ASSIGN  16174<<ASSIGN  16179<<ASSIGN  16184<<ASSIGN  16189<<ASSIGN
     16194<<ASSIGN  16205<<ASSIGN  16209<<ASSIGN  16221<<ASSIGN  16239<<ASSIGN  16243<<ASSIGN  16248<<ASSIGN
     16253<<ASSIGN  16258<<ASSIGN  16263<<ASSIGN  16268<<ASSIGN  16305<<ASSIGN  16333<<ASSIGN  16339<<ASSIGN
     16351<<ASSIGN  16369<<ASSIGN  16375<<ASSIGN  16381<<ASSIGN  16387<<ASSIGN  16393<<ASSIGN  16399<<ASSIGN
     16405<<ASSIGN  16411<<ASSIGN  16417<<ASSIGN  16423<<ASSIGN  16429<<ASSIGN  16435<<ASSIGN  16441<<ASSIGN
     16447<<ASSIGN  16453<<ASSIGN  16459<<ASSIGN  16470>>DOSELCT
CMD
     15763**DCL     15937<<ASSIGN  15940<<ASSIGN  15943<<ASSIGN  16127--ASSIGN
CMDCNT
     15764**DCL     15936<<ASSIGN  15939<<ASSIGN  15942<<ASSIGN  16121>>IF      16127>>ASSIGN  16128>>ASSIGN
COMMANDS_STR
     15736**DCL     16298--ASSIGN
CON$DREC.OCINFO.CADDR
     14933**DCL     16491>>IF      16496>>IF
CON$DREC.OCINFO.CMD
     14949**DCL     15937>>ASSIGN
CON$DREC.OCINFO.CMDCNT
     14947**DCL     15936>>ASSIGN
CON$DREC.OCINFO.KCADDR
     14939**DCL     16490>>IF
CON$DREC.OCINFO.LANG
     14935**DCL     16133>>IF      16138--ASSIGN
CON$DREC.OCINFO.MXPRI
     14937**DCL     16059>>ASSIGN
CON$DREC.OCINFO.WSN
     14942**DCL     16069>>IF      16074--ASSIGN
CON$DREC.PASSWORD
     14847**DCL     14851--REDEF
CON$DREC.RENAME
     14870**DCL     14871--REDEF
CONSOLE_STR
     15737**DCL     15828--ASSIGN
DEVICE_STR
     15738**DCL     15830--ASSIGN
PL6.E3A0      #003=ASL$DISP_ONE_DEVICE File=ASL$LIST_DEVICES.:E05TSI             TUE 07/29/97 10:12 Page:316
DEVWSNS.DEV
     15642**DCL     16000>>CALLBLT 16004>>CALLBLT
DEVWSNS.NDEV
     15641**DCL     15991>>IF      15998>>DOINDEX
DEVWSNS_HDR
     15739**DCL     15993>>CALLBLT 15994--ASSIGN
DEV_NAME
     15765**DCL     15825<<ASSIGN
DEV_NAME.COUNT
     15766**DCL     15832>>IF      15866>>IF      15904>>IF      16160>>IF
DEV_NAME.TEXT
     15767**DCL     15839--ASSIGN  15986>>CALLBLT 16161--ASSIGN
DEV_NAME.UNAME
     15768**DCL     15849>>IF      15852--ASSIGN  15904>>IF      15910--ASSIGN
DISPLAY_STR
     15740**DCL     16293--ASSIGN  16497--ASSIGN
DSEG1$
     11479**DCL     15640--IMP-PTR 15889<>CALL    15894>>IF      15897>>IF      15989<>CALL    15991>>IF
     15998>>DOINDEX 16000>>CALLBLT 16004>>CALLBLT
DSEG1SIZE
     11480**DCL     15888>>ASSIGN  15988>>ASSIGN
DSEG3$
     11480**DCL     14364--IMP-PTR 14503--IMP-PTR 14616--IMP-PTR 14789--IMP-PTR 14965--IMP-PTR 15148--IMP-PTR
     15318--IMP-PTR 15477--IMP-PTR 15788>>IF      15790>>DOSELCT 15813>>IF      15868>>IF      15872>>ASSIGN
     15884>>ASSIGN  15936>>ASSIGN  15937>>ASSIGN  15939>>ASSIGN  15940>>ASSIGN  15942>>ASSIGN  15943>>ASSIGN
     15946>>CALLBLT 15948>>CALLBLT 15955>>CALLBLT 15955>>CALLBLT 15955>>CALLBLT 15958>>CALLBLT 15959>>ASSIGN
     15961>>IF      15962>>ASSIGN  15963>>ASSIGN  15966>>CALLBLT 15967>>CALLBLT 15967>>CALLBLT 15969>>ASSIGN
     16031>>IF      16036>>ASSIGN  16036>>ASSIGN  16037>>ASSIGN  16043>>IF      16049>>ASSIGN  16050>>ASSIGN
     16059>>ASSIGN  16061>>ASSIGN  16069>>IF      16074>>ASSIGN  16079>>IF      16084>>ASSIGN  16133>>IF
     16138>>ASSIGN  16163>>ASSIGN  16168>>ASSIGN  16173>>ASSIGN  16178>>ASSIGN  16183>>ASSIGN  16188>>ASSIGN
     16193>>ASSIGN  16198>>CALLBLT 16204>>ASSIGN  16213>>IF      16218>>ASSIGN  16224>>IF      16230>>IF
     16242>>ASSIGN  16247>>ASSIGN  16252>>ASSIGN  16257>>ASSIGN  16267>>ASSIGN  16286>>IF      16291>>IF
     16296>>IF      16309>>DOCASE  16337>>ASSIGN  16343>>IF      16348>>ASSIGN  16355>>ASSIGN  16360>>ASSIGN
     16365>>ASSIGN  16367>>IF      16374>>ASSIGN  16380>>ASSIGN  16386>>ASSIGN  16392>>ASSIGN  16398>>ASSIGN
     16404>>ASSIGN  16410>>ASSIGN  16416>>ASSIGN  16422>>ASSIGN  16428>>ASSIGN  16434>>ASSIGN  16440>>ASSIGN
     16446>>ASSIGN  16452>>ASSIGN  16458>>ASSIGN  16490>>IF      16491>>IF      16496>>IF
PL6.E3A0      #003=ASL$DISP_ONE_DEVICE File=ASL$LIST_DEVICES.:E05TSI             TUE 07/29/97 10:12 Page:317
ERR_CODE
     11473**DCL     11474--REDEF
FDS
     11370**DCL     15915<>CALL    15974<>CALL    15983<>CALL    15995<>CALL    16007<>CALL    16012<>CALL
FDS.FMT_.BOUND
     11375**DCL     15843<<ASSIGN  15847<<ASSIGN  15850>>ASSIGN  15851<<ASSIGN  15851>>ASSIGN  15856>>ASSIGN
     15857<<ASSIGN  15857>>ASSIGN  15863<<ASSIGN  15878<<ASSIGN  15902>>ASSIGN  15903<<ASSIGN  15903>>ASSIGN
     15908>>ASSIGN  15909<<ASSIGN  15909>>ASSIGN  15922<<ASSIGN  15977<<ASSIGN  15981<<ASSIGN  15994<<ASSIGN
     16001<<ASSIGN  16005<<ASSIGN  16010<<ASSIGN  16468>>ASSIGN  16469<<ASSIGN  16469>>ASSIGN  16473>>CALLBLT
     16474<<ASSIGN  16474>>ASSIGN  16479>>CALLBLT 16480<<ASSIGN  16480>>ASSIGN  16487>>CALLBLT 16488<<ASSIGN
     16488>>ASSIGN  16501>>CALLBLT 16502<<ASSIGN  16502>>ASSIGN  16505>>ASSIGN  16506<<ASSIGN  16506>>ASSIGN
     16509>>ASSIGN  16510<<ASSIGN  16510>>ASSIGN
FDS.NVECS#
     11398**DCL     15840<<ASSIGN  15852>>ASSIGN  15853<<ASSIGN  15853>>ASSIGN  15861<<ASSIGN  15879<<ASSIGN
     15895>>ASSIGN  15898>>ASSIGN  15899<<ASSIGN  15899>>ASSIGN  15900>>ASSIGN  15901<<ASSIGN  15901>>ASSIGN
     15910>>ASSIGN  15911<<ASSIGN  15911>>ASSIGN  15916<<ASSIGN  15924<<ASSIGN  15975<<ASSIGN  15982<<ASSIGN
     15984<<ASSIGN  15996<<ASSIGN  16011<<ASSIGN  16032>>ASSIGN  16036>>ASSIGN  16044>>ASSIGN  16049>>ASSIGN
     16050>>ASSIGN  16070>>ASSIGN  16074>>ASSIGN  16080>>ASSIGN  16084>>ASSIGN  16123>>ASSIGN  16127>>ASSIGN
     16134>>ASSIGN  16138>>ASSIGN  16146>>ASSIGN  16148>>ASSIGN  16150>>ASSIGN  16152>>ASSIGN  16154>>ASSIGN
     16161>>ASSIGN  16163>>ASSIGN  16173>>ASSIGN  16193>>ASSIGN  16200>>ASSIGN  16204>>ASSIGN  16208>>ASSIGN
     16214>>ASSIGN  16218>>ASSIGN  16226>>ASSIGN  16232>>ASSIGN  16236>>ASSIGN  16262>>ASSIGN  16288>>ASSIGN
     16293>>ASSIGN  16298>>ASSIGN  16302>>ASSIGN  16313>>ASSIGN  16318>>ASSIGN  16323>>ASSIGN  16328>>ASSIGN
     16337>>ASSIGN  16344>>ASSIGN  16348>>ASSIGN  16464>>ASSIGN  16465>>ASSIGN  16466<<ASSIGN  16466>>ASSIGN
     16472<<ASSIGN  16472>>ASSIGN  16476>>ASSIGN  16477<<ASSIGN  16477>>ASSIGN  16483>>ASSIGN  16485>>ASSIGN
     16486<<ASSIGN  16486>>ASSIGN  16492>>ASSIGN  16494>>ASSIGN  16497>>ASSIGN  16499>>ASSIGN  16500<<ASSIGN
     16500>>ASSIGN  16504<<ASSIGN  16504>>ASSIGN
FDS.TABDFLT#
     11436**DCL     15920<<ASSIGN  15997<<ASSIGN
FIXED_STR
     15741**DCL     16323--ASSIGN  16324--ASSIGN
FMT_BUF
     11469**DCL     15842<<ASSIGN  15846<<ASSIGN  15850<<ASSIGN  15856<<ASSIGN  15862<<ASSIGN  15877<<ASSIGN
     15902<<ASSIGN  15908<<ASSIGN  15921<<ASSIGN  15976<<ASSIGN  15980<<ASSIGN  15993<<CALLBLT 16000<<CALLBLT
     16004<<CALLBLT 16009<<ASSIGN  16468<<ASSIGN  16473<<CALLBLT 16479<<CALLBLT 16487<<CALLBLT 16501<<CALLBLT
     16505<<ASSIGN  16509<<ASSIGN
FMT_VEC
PL6.E3A0      #003=ASL$DISP_ONE_DEVICE File=ASL$LIST_DEVICES.:E05TSI             TUE 07/29/97 10:12 Page:318
     11469**DCL     15828<<ASSIGN  15830<<ASSIGN  15839<<ASSIGN  15852<<ASSIGN  15895<<ASSIGN  15898<<ASSIGN
     15900<<ASSIGN  15910<<ASSIGN  16032<<ASSIGN  16036<<ASSIGN  16044<<ASSIGN  16049<<ASSIGN  16050<<ASSIGN
     16070<<ASSIGN  16074<<ASSIGN  16080<<ASSIGN  16084<<ASSIGN  16123<<ASSIGN  16127<<ASSIGN  16134<<ASSIGN
     16138<<ASSIGN  16146<<ASSIGN  16148<<ASSIGN  16150<<ASSIGN  16152<<ASSIGN  16154<<ASSIGN  16161<<ASSIGN
     16163<<ASSIGN  16173<<ASSIGN  16193<<ASSIGN  16200<<ASSIGN  16204<<ASSIGN  16208<<ASSIGN  16214<<ASSIGN
     16218<<ASSIGN  16226<<ASSIGN  16232<<ASSIGN  16236<<ASSIGN  16262<<ASSIGN  16288<<ASSIGN  16293<<ASSIGN
     16298<<ASSIGN  16302<<ASSIGN  16313<<ASSIGN  16318<<ASSIGN  16323<<ASSIGN  16328<<ASSIGN  16337<<ASSIGN
     16344<<ASSIGN  16348<<ASSIGN  16464<<ASSIGN  16465<<ASSIGN  16476<<ASSIGN  16483<<ASSIGN  16485<<ASSIGN
     16492<<ASSIGN  16494<<ASSIGN  16497<<ASSIGN  16499<<ASSIGN
I
     15770**DCL     15888<<ASSIGN  15889<>CALL    15946<<CALLBLT 15947>>IF      15948>>CALLBLT 15949>>ASSIGN
     15958<<CALLBLT 15959>>ASSIGN  15966<<CALLBLT 15967>>CALLBLT 15969>>ASSIGN  15988<<ASSIGN  15989<>CALL
     15998<<DOINDEX 15999>>IF      16000>>CALLBLT 16004>>CALLBLT
IN$DEV.ISINFO.DFLTPRI
     15120**DCL     15121--REDEF
IN$DEV.ISINFO.DFPRI
     15121**DCL     16178>>ASSIGN
IN$DEV.ISINFO.MXPRI
     15122**DCL     16061>>ASSIGN
IN$DEV.ISINFO.NCACCT
     15124**DCL     16193--ASSIGN
IN$DEV.ISINFO.NCTL
     15111**DCL     16183>>ASSIGN
IN$DEV.ISINFO.NCTLOK
     15113**DCL     16188>>ASSIGN
IN$DEV.ISINFO.NFID
     15127**DCL     16198>>CALLBLT 16204--ASSIGN
IN$DEV.ISINFO.WSN
     15132**DCL     16079>>IF      16084--ASSIGN
IN$DEV.PASSWORD
     15023**DCL     15027--REDEF
IN$DEV.RENAME
     15046**DCL     15047--REDEF
INCOMING_STR
     15742**DCL     16313--ASSIGN  16314--ASSIGN
INFORM_STR
PL6.E3A0      #003=ASL$DISP_ONE_DEVICE File=ASL$LIST_DEVICES.:E05TSI             TUE 07/29/97 10:12 Page:319
     15743**DCL     16232--ASSIGN
INSERT_FIELD
     16021**PROC    15973--CALL
INSTANCE
     15771**DCL     15962<<ASSIGN  15967<<CALLBLT 16262--ASSIGN
INSTANCECNT
     15772**DCL     15963<<ASSIGN  15969<<ASSIGN  16262>>ASSIGN  16264>>ASSIGN
IN_STR
     15744**DCL     16148--ASSIGN
JCL
     14333**DCL        10--PROC    15841>>IF      15876>>IF      15985>>IF      16508>>IF
KEYIN_STR
     15745**DCL     16494--ASSIGN
KL$DREC.ATYP
     14369**DCL     15788>>IF      15894>>IF      15897>>IF
KL$DREC.FLAGS.NOCGINF
     14403**DCL     16230>>IF
KL$DREC.FLAGS.NOCGREJ
     14398**DCL     16224>>IF
KL$DREC.PASSWORD
     14422**DCL     14426--REDEF   16043>>IF      16049--ASSIGN  16050--ASSIGN
KL$DREC.PNAME
     14428**DCL     16036--ASSIGN  16036--ASSIGN
KL$DREC.PNAME.CNT
     14436**DCL     16031>>IF      16037>>ASSIGN
KL$DREC.RENAME
     14445**DCL     14446--REDEF   16163--ASSIGN  16213>>IF      16218--ASSIGN  16219--ASSIGN
KL$DREC.SNAME
     14459**DCL     15872>>ASSIGN
KL$DREC.SUPER
     14416**DCL     15790>>DOSELCT
KL$DREC.TNAME
     14455**DCL     15868>>IF      15884>>ASSIGN
KL_DEFAULT.PASSWORD
     14089**DCL     14093--REDEF
KL_DEFAULT.RENAME
PL6.E3A0      #003=ASL$DISP_ONE_DEVICE File=ASL$LIST_DEVICES.:E05TSI             TUE 07/29/97 10:12 Page:320
     14112**DCL     14113--REDEF
KL_DFLT.PASSWORD
     13279**DCL     13283--REDEF
KL_DFLT.RENAME
     13302**DCL     13303--REDEF
KL_DREC.PASSWORD
     13117**DCL     13121--REDEF
KL_DREC.RENAME
     13140**DCL     13141--REDEF
KL_DREC_CNT.PASSWORD
     13004**DCL     13008--REDEF
KL_DREC_CNT.RENAME
     13027**DCL     13028--REDEF
LEN
     15773**DCL     15833<<ASSIGN  15836<<ASSIGN  15839>>ASSIGN  16033<<ASSIGN  16037<<ASSIGN  16046<<ASSIGN
     16052<<ASSIGN  16064<<ASSIGN  16071<<ASSIGN  16075<<ASSIGN  16081<<ASSIGN  16085<<ASSIGN  16093<<ASSIGN
     16098<<ASSIGN  16103<<ASSIGN  16108<<ASSIGN  16113<<ASSIGN  16118<<ASSIGN  16124<<ASSIGN  16128<<ASSIGN
     16135<<ASSIGN  16139<<ASSIGN  16157<<ASSIGN  16165<<ASSIGN  16170<<ASSIGN  16175<<ASSIGN  16180<<ASSIGN
     16185<<ASSIGN  16190<<ASSIGN  16195<<ASSIGN  16198<<CALLBLT 16199>>IF      16201<<ASSIGN  16204>>ASSIGN
     16210<<ASSIGN  16215<<ASSIGN  16219<<ASSIGN  16227<<ASSIGN  16233<<ASSIGN  16237<<ASSIGN  16244<<ASSIGN
     16249<<ASSIGN  16254<<ASSIGN  16259<<ASSIGN  16264<<ASSIGN  16269<<ASSIGN  16289<<ASSIGN  16294<<ASSIGN
     16299<<ASSIGN  16303<<ASSIGN  16314<<ASSIGN  16319<<ASSIGN  16324<<ASSIGN  16329<<ASSIGN  16338<<ASSIGN
     16345<<ASSIGN  16349<<ASSIGN  16370<<ASSIGN  16376<<ASSIGN  16382<<ASSIGN  16388<<ASSIGN  16394<<ASSIGN
     16400<<ASSIGN  16406<<ASSIGN  16412<<ASSIGN  16418<<ASSIGN  16424<<ASSIGN  16430<<ASSIGN  16436<<ASSIGN
     16442<<ASSIGN  16448<<ASSIGN  16454<<ASSIGN  16460<<ASSIGN  16463>>ASSIGN
L_TYPE
     15774**DCL     15792<<ASSIGN  15796<<ASSIGN  15800<<ASSIGN  15804<<ASSIGN  15808<<ASSIGN  15812<<ASSIGN
     15826>>DOSELCT 15849>>IF      15866>>IF      15866>>IF      15904>>IF      15934>>DOSELCT 16057>>DOCASE
     16067>>DOCASE  16144>>DOCASE
MASK
     15775**DCL     16091<<ASSIGN  16096<<ASSIGN  16101<<ASSIGN  16106<<ASSIGN  16111<<ASSIGN  16116<<ASSIGN
     16490>>IF      16491>>IF      16496>>IF
NEXT
     15776**DCL     15928<<ASSIGN  15932>>DOSELCT 16028>>DOCASE  16368<<ASSIGN  16368>>ASSIGN  16463>>ASSIGN
     16465>>ASSIGN
NONE_STR
PL6.E3A0      #003=ASL$DISP_ONE_DEVICE File=ASL$LIST_DEVICES.:E05TSI             TUE 07/29/97 10:12 Page:321
     15747**DCL     16032--ASSIGN  16044--ASSIGN  16070--ASSIGN  16080--ASSIGN  16123--ASSIGN  16134--ASSIGN
     16200--ASSIGN  16214--ASSIGN  16215--ASSIGN  16328--ASSIGN  16329--ASSIGN  16344--ASSIGN
NO_STATION
     15915**LABEL   15867--GOTO
NO_STR
     15748**DCL     16302--ASSIGN  16485--ASSIGN  16499--ASSIGN
NUM_OPTS
     15777**DCL     15794<<ASSIGN  15798<<ASSIGN  15802<<ASSIGN  15806<<ASSIGN  15810<<ASSIGN  15815<<ASSIGN
     15819<<ASSIGN  15926>>DOWHILE
OK_STR
     15749**DCL     16236--ASSIGN
OPT$ORDR
     15647**DCL     15928>>ASSIGN
OPT_ORDR$
     15778**DCL     15647--IMP-PTR 15793<<ASSIGN  15797<<ASSIGN  15801<<ASSIGN  15805<<ASSIGN  15809<<ASSIGN
     15814<<ASSIGN  15818<<ASSIGN  15928>>ASSIGN
OPT_TBL.CG_ORDR
     15720**DCL     15801--ASSIGN  15802--ASSIGN
OPT_TBL.CON_ORDR
     15709**DCL     15809--ASSIGN  15810--ASSIGN
OPT_TBL.HDR
     15652**DCL     16463--ASSIGN  16465--ASSIGN
OPT_TBL.IN_ORDR
     15716**DCL     15793--ASSIGN  15794--ASSIGN
OPT_TBL.OUT_ORDR
     15713**DCL     15797--ASSIGN  15798--ASSIGN
OPT_TBL.RES_CL_ORDR
     15727**DCL     15814--ASSIGN  15815--ASSIGN
OPT_TBL.RES_ORDR
     15733**DCL     15818--ASSIGN  15819--ASSIGN
OPT_TBL.TP_ORDR
     15724**DCL     15805--ASSIGN  15806--ASSIGN
OUT$DEV.OSINFO.FNAME
     15297**DCL     15300--REDEF   15301--REDEF   16173--ASSIGN  16175--ASSIGN
OUT$DEV.OSINFO.UPLOCKED
     15294**DCL     16168>>ASSIGN
PL6.E3A0      #003=ASL$DISP_ONE_DEVICE File=ASL$LIST_DEVICES.:E05TSI             TUE 07/29/97 10:12 Page:322
OUT$DEV.PASSWORD
     15206**DCL     15210--REDEF
OUT$DEV.RENAME
     15229**DCL     15230--REDEF
OUTGOING_STR
     15750**DCL     16318--ASSIGN  16319--ASSIGN
OUT_STR
     15751**DCL     16146--ASSIGN
PROJ_KEY.TEXT
     11351**DCL     11351--REDEF
PROJ_KEY.TXT.PROJECT
     11351**DCL     11351--REDEF
REJECT_STR
     15752**DCL     16226--ASSIGN
REMEM_VAR
     11477**DCL     11477--REDEF
REM_FCMD
     11477**DCL     11478--REDEF
RES$DREC.PASSWORD
     14561**DCL     14565--REDEF
RES$DREC.RENAME
     14584**DCL     14585--REDEF
RESCL$DREC.CL_DEV.ATTR.B1200#
     14752**DCL     16360>>ASSIGN
RESCL$DREC.CL_DEV.ATTR.B2400#
     14753**DCL     16365>>ASSIGN
RESCL$DREC.CL_DEV.ATTR.B300#
     14751**DCL     16355>>ASSIGN
RESCL$DREC.CL_DEV.ATTR.HAYES#
     14754**DCL     16374>>ASSIGN
RESCL$DREC.CL_DEV.ATTR.RFU1#
     14768**DCL     16386>>ASSIGN
RESCL$DREC.CL_DEV.ATTR.RFU10#
     14759**DCL     16440>>ASSIGN
RESCL$DREC.CL_DEV.ATTR.RFU11#
     14758**DCL     16446>>ASSIGN
PL6.E3A0      #003=ASL$DISP_ONE_DEVICE File=ASL$LIST_DEVICES.:E05TSI             TUE 07/29/97 10:12 Page:323
RESCL$DREC.CL_DEV.ATTR.RFU13#
     14756**DCL     16458>>ASSIGN
RESCL$DREC.CL_DEV.ATTR.RFU2#
     14767**DCL     16392>>ASSIGN
RESCL$DREC.CL_DEV.ATTR.RFU3#
     14766**DCL     16398>>ASSIGN
RESCL$DREC.CL_DEV.ATTR.RFU4#
     14765**DCL     16404>>ASSIGN
RESCL$DREC.CL_DEV.ATTR.RFU5#
     14764**DCL     16410>>ASSIGN
RESCL$DREC.CL_DEV.ATTR.RFU6#
     14763**DCL     16416>>ASSIGN
RESCL$DREC.CL_DEV.ATTR.RFU7#
     14762**DCL     16422>>ASSIGN
RESCL$DREC.CL_DEV.ATTR.RFU8#
     14761**DCL     16428>>ASSIGN
RESCL$DREC.CL_DEV.ATTR.RFU9#
     14760**DCL     16434>>ASSIGN
RESCL$DREC.CL_DEV.ATTR.TCPIP#
     14757**DCL     16367>>IF      16452>>ASSIGN
RESCL$DREC.CL_DEV.ATTR.X28#
     14755**DCL     16380>>ASSIGN
RESCL$DREC.CL_DEV.AUACCOUNT
     14774**DCL     16343>>IF      16348--ASSIGN  16349--ASSIGN
RESCL$DREC.CL_DEV.MODE
     14747**DCL     16309>>DOCASE
RESCL$DREC.CL_DEV.RNAME
     14771**DCL     16337--ASSIGN  16338--ASSIGN
RESCL$DREC.PASSWORD
     14674**DCL     14678--REDEF
RESCL$DREC.RENAME
     14697**DCL     14698--REDEF   15813>>IF
RES_STR
     15753**DCL     16154--ASSIGN
SBINS
     15779**DCL     16059<<ASSIGN  16061<<ASSIGN  16178<<ASSIGN  16242<<ASSIGN  16247<<ASSIGN  16252<<ASSIGN
PL6.E3A0      #003=ASL$DISP_ONE_DEVICE File=ASL$LIST_DEVICES.:E05TSI             TUE 07/29/97 10:12 Page:324
     16257<<ASSIGN  16267<<ASSIGN  16463<<ASSIGN  16464--ASSIGN  16476--ASSIGN
SBIN_IDX
     15780**DCL     15923<<ASSIGN  16059>>ASSIGN  16061>>ASSIGN  16178>>ASSIGN  16242>>ASSIGN  16247>>ASSIGN
     16252>>ASSIGN  16257>>ASSIGN  16267>>ASSIGN  16463>>ASSIGN  16464>>ASSIGN  16467<<ASSIGN  16467>>ASSIGN
     16476>>ASSIGN  16478<<ASSIGN  16478>>ASSIGN
STATION_STR
     15754**DCL     15895--ASSIGN
ST_IDX
     15781**DCL     15918<<ASSIGN  15926>>DOWHILE 15928>>ASSIGN  15978<<ASSIGN  15978>>ASSIGN
TERMINAL
     14334**DCL        10--PROC    15838>>IF      15865>>IF      16042>>IF
TERMINAL_STR
     15755**DCL     15898--ASSIGN
TEXT$C.C
     15646**DCL     16036--ASSIGN
TEXT$C.L
     15645**DCL     15646--IMP-SIZ 16036>>ASSIGN
TP$DEV.KC$CGID.NAME#.CNT
     15600**DCL     15963>>ASSIGN  15969>>ASSIGN
TP$DEV.KC$CGID.NAME#.TXT
     15601**DCL     15962>>ASSIGN  15967>>CALLBLT
TP$DEV.KC$CGID.PSN#
     15597**DCL     15961>>IF      15966>>CALLBLT 15967>>CALLBLT
TP$DEV.PASSWORD
     15535**DCL     15539--REDEF
TP$DEV.QQ$LOGON.CMD
     15636**DCL     15943>>ASSIGN
TP$DEV.QQ$LOGON.CMDCNT
     15634**DCL     15942>>ASSIGN
TP$DEV.QQ$LOGON.MCT
     15621**DCL     16286>>IF
TP$DEV.QQ$LOGON.MCTCMD
     15623**DCL     16296>>IF
TP$DEV.QQ$LOGON.MCTD
     15625**DCL     16291>>IF
TP$DEV.QQ$LOGON.PRIO
PL6.E3A0      #003=ASL$DISP_ONE_DEVICE File=ASL$LIST_DEVICES.:E05TSI             TUE 07/29/97 10:12 Page:325
     15628**DCL     16267>>ASSIGN
TP$DEV.RENAME
     15558**DCL     15559--REDEF
TP_STR
     15756**DCL     16152--ASSIGN
T_SNAME
     15782**DCL     15872<<ASSIGN  15873>>CALLBLT 15884<<ASSIGN  15885>>CALLBLT 15900--ASSIGN
USERS_KEY
     11348**DCL     15825>>ASSIGN  15891<>CALL
USERS_KEY.COUNT
     11348**DCL     15871<<ASSIGN  15883<<ASSIGN  15987<<ASSIGN
USERS_KEY.TEXT
     11348**DCL     11349--REDEF   11349--REDEF   11349--REDEF   11350--REDEF
USERS_KEY.TXTC
     11349**DCL     15873<<CALLBLT 15885<<CALLBLT 15986<<CALLBLT
X$FORMAT
     14347**DCL-ENT 15915--CALL    15974--CALL    15983--CALL    15995--CALL    16007--CALL    16012--CALL
YES_NO IN PROCEDURE INSERT_FIELD
     16025**DCL     16168<<ASSIGN  16183<<ASSIGN  16188<<ASSIGN  16355<<ASSIGN  16360<<ASSIGN  16365<<ASSIGN
     16374<<ASSIGN  16380<<ASSIGN  16386<<ASSIGN  16392<<ASSIGN  16398<<ASSIGN  16404<<ASSIGN  16410<<ASSIGN
     16416<<ASSIGN  16422<<ASSIGN  16428<<ASSIGN  16434<<ASSIGN  16440<<ASSIGN  16446<<ASSIGN  16452<<ASSIGN
     16458<<ASSIGN  16482>>IF
YES_STR
     15757**DCL     16288--ASSIGN  16483--ASSIGN  16492--ASSIGN
