VERSION E05

PL6.E3A0      #001=ASL$LIST_ALL_DEVICES File=ASL$LIST_DEVICES.:E05TSI            TUE 07/29/97 10:07 Page:1
        1        1        /*M* ASL$LIST_ALL_DEVICES: Routine to list devices.    */
        2        2        /*T***********************************************************/
        3        3        /*T*                                                         */
        4        4        /*T* Copyright (c) Bull HN Information Systems Inc., 1997    */
        5        5        /*T*                                                         */
        6        6        /*T***********************************************************/
        7        7        /*X*  DMC,DMR,CCC,PLM=0,IND=3,CTI=5,DCI=6,IAD=0,DTI=0,IDT=0,ENI=3,
        8        8              ECU=3,CSU=3,SDI=3                                           */
        9        9        ASL$LIST_ALL_DEVICES: PROC ;
       10       10        /**********************************************************/
       11       11
       12       12        /*D* NAME:     ASL$LIST_ALL_DEVICES
       13       13             CALL:     CALL ASL$LIST_ALL_DEVICES ;
       14       14             INPUT:    None.
       15       15             OUTPUT:   Nothing is returned.
       16       16             DESCRIPTION:  ASL$LIST_ALL_DEVICES is the routine that
       17       17                           lists device names and calls the display
       18       18                           device routine.
       19       19                           This routine will read the following records
       20       20                           from :HLP  :
       21       21                                 device records - keys 'xxxxxxxx*'
       22       22                                 device records - keys 'xxxxxxxx'
       23       23                                 device records - keys 'xxxxxxxxxxxxxxxxxxxx'
       24       24                                 station records - keys 'xxxxxxxxSTATION'
       25       25                                 TERM record - keys 'TERM'
       26       26                                 TWSN records - keys 'TWSN9999'
       27       27                            And the device record from :CONFIG whose
       28       28                            key is 'term9999' where term is 4 characters of
       29       29                            device name and 9999 is 4 digits of subdevice
       30       30                            number.
       31       31                            Of the above records only the device records
       32       32                            are sure to be read in, the reading of the others
       33       33                            is dependent upon the actual command that was
       34       34                            input.
       35       35                       MEMORY UTILIZATION.
       36       36                            If the station clause was specified on the input
       37       37                            command, then the TERM record will be read into
PL6.E3A0      #001=ASL$LIST_ALL_DEVICES File=ASL$LIST_DEVICES.:E05TSI            TUE 07/29/97 10:07 Page:2
       38       38                            data segment 1 and the TWSNxxxx record will be
       39       39                            read into data segment 2.
       40       40                            If the terminal clause was specified on the input
       41       41                            command, then the terminals record will be read
       42       42                            into data segment 1 and the TWSNxxxx record will
       43       43                            be read into data segment 2.
       44       44                            The individual device records will be read into
       45       45                            data segment 3.
       46       46        */
       47       47        /********************************************************************/
       48       48        /*   Include files   include files   include files   include files  */
       49       49        /********************************************************************/
       50       50        %INCLUDE AS_PERR_C;
       51      652        %INCLUDE AS_SUPER_C;
       52     1087        %INCLUDE AS_SUBS_C;
       53     2501        %INCLUDE AS_MAC_C;
       54     2581        %INCLUDE AS_ENTRIES_M;
       55     3631        %INCLUDE AS_SSUBS_C;
       56     3723        %INCLUDE B_ERRORS_C;
       57     4850        %INCLUDE CP_6;
       58     4931        %INCLUDE CP_6_SUBS;
       59     5471        %INCLUDE KL_CONFIG_M;
       60     6233        %INCLUDE KL_MACRO_C;
       61     9585        %INCLUDE KL_SUPER_C;
       62    12487        %INCLUDE XU_MACRO_C;
       63    15593        %INCLUDE XU_FORMAT_C;
       64    15755        %INCLUDE OCI_SUBS_C;
       65    15853        %INCLUDE AS_SUPER_R;
       66    18869        /********************************************************************/
       67    18870        /*   Equs            equs            equs            equs           */
       68    18871        /********************************************************************/
       69    18872        %EQU SINGLE_DEVICE = 0;
       70    18873        %EQU SINGLE_TPDEVICE = 1;
       71    18874        %EQU DEV_WILD = 2;
       72    18875        %EQU TPDEV_WILD = 3;
       73    18876        %EQU TERMINAL = 4;
       74    18877        %EQU TERMINAL_WILD = 5;
PL6.E3A0      #001=ASL$LIST_ALL_DEVICES File=ASL$LIST_DEVICES.:E05TSI            TUE 07/29/97 10:07 Page:3
       75    18878        %EQU STATION = 6;
       76    18879        %EQU STATION_WILD = 7;
       77    18880        %EQU ALL = 8;
       78    18881        /********************************************************************/
       79    18882        /*   Static data     static data     static data     static data    */
       80    18883        /********************************************************************/
       81    18884        %KL$CONFIG_KEY  ( NAME = CONFIG_KEY, STCLASS = STATIC);
       82    18931    1   DCL LINCNFG_BUF (0:49)   UBIN WORD STATIC INIT(0*0);
       83    18932    1   DCL LINCNFG$             PTR STATIC INIT (ADDR(LINCNFG_BUF));
       84    18933        %KL$LINCNFG     ( NAME = LINCNFG, STCLASS = "BASED(LINCNFG$)");
       85    19091        %KL_SS;
       86    19126        /********************************************************************/
       87    19127        /*   Entry dcls      entry dcls      entry dcls      entry dcls     */
       88    19128        /********************************************************************/
       89    19129        %ASA$ERROR ;
       90    19132        %ASB$BOF_HLP ;
       91    19135        %ASB$CHECK_TYPE ;
       92    19138        %ASB$GET_NEXT_STATION ;
       93    19141        %ASB$INIT_GET_STATION ;
       94    19144        %ASB$PREC_AND_SKIP_HLP ;
       95    19147        %ASB$PREC_HLP ;
       96    19150        %ASB$READ_HLP ;
       97    19153        %ASB$READ_HLP_SEQ ;
       98    19156        %ASB$WILD_MATCH ;
       99    19159        %ASB$WRITE_LO ;
      100    19162        %ASH$ERROR ;
      101    19165        %ASL$DISP_ONE_DEVICE ;
      102    19168        %ASL$FORMAT_DEVNAME ;
      103    19171    1   DCL X$FORMAT ENTRY(1);
      104    19172        /********************************************************************/
      105    19173        /*   Local based     local based     local based     local based    */
      106    19174        /********************************************************************/
      107    19175        %KL_DREC      ( NAME = KL$TREC, STCLASS = "BASED(DSEG3$)", LAST = ",");
      108    19288        %KL_GJOB      ( NAME = GJOB, STCLASS = BASED, LVL = 2, LAST = "," );
      109    19312        %KL_HASP      ( NAME = HASP, STCLASS = BASED, LVL = 2 );
      110    19462        %KL_TWSNREC   ( NAME = KL$TWSNREC, STCLASS = "BASED(DSEG2$)");
      111    19487        %KL_DREC      ( NAME = KL$DREC, LAST = ";", STCLASS = BASED) ;
PL6.E3A0      #001=ASL$LIST_ALL_DEVICES File=ASL$LIST_DEVICES.:E05TSI            TUE 07/29/97 10:07 Page:4
      112    19600        %KL_WSNCVT    ( NAME = KL$WSNCVT, STCLASS = "BASED(DSEG1$)");
      113    19607        %PARSE$OUT    ( NAME = P$B, STCLASS = BASED,
      114    19608                        NDTYPE = TYPE);
      115    19653        %PARSE$SYM    ( NAME = OUT$SYM, STCLASS = "BASED(BLK$)" );
      116    19691        /********************************************************************/
      117    19692        /*   Auto data       auto data       auto data       auto data      */
      118    19693        /********************************************************************/
      119    19694    1   DCL ACCT                     CHAR(8);
      120    19695    1   DCL ACCT_LEN                 UBIN;
      121    19696    1   DCL ARS                      SBIN;
      122    19697    1   DCL 1 BEGIN_KEY,
      123    19698    1          2 COUNT               UBIN BYTE UNAL,
      124    19699    1          2 TEXT                CHAR(20) UNAL;
      125    19700    1   DCL BLK$                     PTR;
      126    19701    1   DCL CHECK                    BIT(1);
      127    19702    1   DCL COUNT                    UBIN WORD ;
      128    19703    1   DCL DEVICE_NAME_WILD         BIT(1);
      129    19704    1   DCL 1 DEV_NAME,
      130    19705    1          2 COUNT               UBIN BYTE UNAL,
      131    19706    1          2 TEXT                CHAR(8) UNAL,
      132    19707    1          2 *                   CHAR(33) UNAL;
      133    19708    1   DCL DEV_TYPE                 UBIN;
      134    19709    1   DCL DISP                     BIT(1);
      135    19710    1   DCL DISP_DEVICES             UBIN;
      136    19711    1   DCL 1 END_KEY,
      137    19712    1          2 COUNT               UBIN BYTE UNAL,
      138    19713    1          2 TEXT                CHAR(20) UNAL;
      139    19714    1   DCL I                        SBIN;
      140    19715    1   DCL JCL                      BIT(1);
      141    19716    1   DCL K                        SBIN;
      142    19717    1   DCL 1 LAST_KEY,
      143    19718    1          2 COUNT  UBIN BYTE UNAL,
      144    19719    1          2 TEXT   CHAR(41) UNAL;
      145    19720    1   DCL MATCH_LEN                UBIN;
      146    19721    1   DCL NAME                     CHAR(12);
      147    19722    1   DCL NAME_LEN                 UBIN;
      148    19723    1   DCL OPTION_CODE              UBIN;
PL6.E3A0      #001=ASL$LIST_ALL_DEVICES File=ASL$LIST_DEVICES.:E05TSI            TUE 07/29/97 10:07 Page:5
      149    19724    1   DCL 1 STATION_NAME,
      150    19725    1          2 COUNT               UBIN BYTE UNAL,
      151    19726    1          2 TEXT                CHAR(8) UNAL;
      152    19727    1   DCL 1 TERMINAL_NAME,
      153    19728    1          2 COUNT               UBIN BYTE UNAL,
      154    19729    1          2 TEXT                CHAR(8) UNAL;
      155    19730    1   DCL 1 TPDEV,
      156    19731    1          2 COUNT               UBIN BYTE UNAL,
      157    19732    1          2 ACCT                CHAR(8) UNAL,
      158    19733    1          2 NAME                CHAR(12) UNAL;
      159    19734    1   DCL TPDEV_ACCT_WILD          BIT(1);
      160    19735    1   DCL TPDEV_NAME_SPECIFIED     BIT(1);
      161    19736    1   DCL TPDEV_NAME_WILD          BIT(1);
      162    19737    1   DCL TPDEV_SPECIFIED          BIT(1);
      163    19738    1   DCL TWSN_CHAR                CHAR(4);
      164    19739    1   DCL TWSN_NUMBER              UBIN;
      165    19740        %EJECT;
PL6.E3A0      #001=ASL$LIST_ALL_DEVICES File=ASL$LIST_DEVICES.:E05TSI            TUE 07/29/97 10:07 Page:6
      166    19741        /********************************************************************/
      167    19742        /*   Constant data   constant data   constant data   constant data  */
      168    19743        /********************************************************************/
      169    19744    1   DCL DEVICE_STR CHAR(0) CONSTANT INIT ('device');
      170    19745    1   DCL DEVICES_STR CHAR(0) CONSTANT INIT ('devices');
      171    19746    1   DCL DISPLAY_STR CHAR(0) CONSTANT INIT ('displayed');
      172    19747    1   DCL LIST_STR CHAR(0) CONSTANT INIT ('listed');
      173    19748        %EJECT;
PL6.E3A0      #001=ASL$LIST_ALL_DEVICES File=ASL$LIST_DEVICES.:E05TSI            TUE 07/29/97 10:07 Page:7
      174    19749        /********************************************************************/
      175    19750        /*   Procedure       procedure       procedure       procedure      */
      176    19751        /********************************************************************/
      177    19752    1   JCL = %NO#;
      178    19753
      179    19754    1   TPDEV_SPECIFIED = %NO#;
      180    19755    1   TPDEV_NAME_SPECIFIED = %NO#;
      181    19756    1   OPTION_CODE = %SINGLE_DEVICE;
      182    19757    1   TPDEV.COUNT = 9;
      183    19758    1   TPDEV.ACCT = '?';
      184    19759    1   TPDEV.NAME = '?';
      185    19760    1   DEV_NAME.COUNT = 1;
      186    19761    1   DEV_NAME.TEXT = '?';
      187    19762    1   STATION_NAME.COUNT = 1;
      188    19763    1   STATION_NAME.TEXT = '?';
      189    19764    1   TERMINAL_NAME.COUNT = 1;
      190    19765    1   TERMINAL_NAME.TEXT = '?';
      191    19766    1   DISP_DEVICES = 0;
      192    19767
      193    19768    2   DO I = 0 TO P_PCB.OUT$->P$B.NSUBLKS - 1;
      194    19769
      195    19770    2      CODE = P_PCB.OUT$->P$B.SUBLK$(I)->P$B.CODE;
      196    19771
      197    19772    3      DO SELECT (CODE);
      198    19773
      199    19774    3         SELECT ( %LIST_ALL_VAL );
      200    19775
      201    19776    3         DISP = %NO#;
      202    19777    3         OPTION_CODE = %ALL ;
      203    19778    3         CHECK = %NO#;
      204    19779    3         DEV_TYPE = %AS_CG_DEV#;
      205    19780
      206    19781    3         SELECT ( %DISPLAY_ALL_VAL );
      207    19782
      208    19783    3         DISP = %YES#;
      209    19784    3         OPTION_CODE = %ALL ;
      210    19785    3         CHECK = %NO#;
PL6.E3A0      #001=ASL$LIST_ALL_DEVICES File=ASL$LIST_DEVICES.:E05TSI            TUE 07/29/97 10:07 Page:8
      211    19786    3         DEV_TYPE = %AS_CG_DEV#;
      212    19787    3         IF P_PCB.OUT$->P$B.SUBLK$(I)->P$B.NSUBLKS > 0 THEN
      213    19788    4         DO K = 0 TO P_PCB.OUT$->P$B.SUBLK$(I)->P$B.NSUBLKS - 1;
      214    19789    4            IF P_PCB.OUT$->P$B.SUBLK$(I)->P$B.SUBLK$(K)->P$B.CODE = %JCL_VAL THEN
      215    19790    4               JCL = %YES#;
      216    19791    4            END;
      217    19792
      218    19793    3         SELECT (%DISPLAY_TPDEV_VAL, %LIST_TPDEV_VAL);
      219    19794
      220    19795    3         DISP = (CODE = %DISPLAY_TPDEV_VAL);
      221    19796    3         DEV_TYPE = AS_TP_DEV#;
      222    19797    3         CHECK = %YES#;
      223    19798    3         TPDEV_SPECIFIED = %YES#;
      224    19799
      225    19800    3         SELECT (%TPDEV_ACCT_WILD_VAL);
      226    19801
      227    19802    3         BLK$ = P_PCB.OUT$->P$B.SUBLK$(I);
      228    19803    3         TPDEV.COUNT = OUT$SYM.COUNT;
      229    19804    3         TPDEV.ACCT = OUT$SYM.TEXT;
      230    19805
      231    19806    3         SELECT (%TPDEV_NAME_WILD_VAL);
      232    19807
      233    19808    3         BLK$ = P_PCB.OUT$->P$B.SUBLK$(I);
      234    19809    3         TPDEV.COUNT = OUT$SYM.COUNT + 8;
      235    19810    3         TPDEV.NAME = OUT$SYM.TEXT;
      236    19811    3         TPDEV_NAME_SPECIFIED = %YES#;
      237    19812
      238    19813    3         SELECT (%DISPLAY_DEVICE_VAL, %LIST_DEVICE_VAL);
      239    19814
      240    19815    3         DISP = (CODE = %DISPLAY_DEVICE_VAL);
      241    19816    3         DEV_TYPE = %AS_CG_DEV#;
      242    19817    3         CHECK = %NO#;
      243    19818
      244    19819    4         IF P_PCB.OUT$->P$B.SUBLK$(I)->P$B.NSUBLKS > 0 THEN DO;
      245    19820    4            DEV_TYPE = P_PCB.OUT$->P$B.SUBLK$(I)->P$B.SUBLK$(0)->P$B.CODE;
      246    19821    4            CHECK = %YES#;
      247    19822    4            END; /*  Nsublks > 0  */
PL6.E3A0      #001=ASL$LIST_ALL_DEVICES File=ASL$LIST_DEVICES.:E05TSI            TUE 07/29/97 10:07 Page:9
      248    19823
      249    19824    3         SELECT (%DEVICE_NAME_WILD_VAL);
      250    19825
      251    19826    3         BLK$ = P_PCB.OUT$->P$B.SUBLK$(I);
      252    19827    3         DEV_NAME.COUNT = OUT$SYM.COUNT;
      253    19828    3         DEV_NAME.TEXT = OUT$SYM.TEXT;
      254    19829
      255    19830    3         SELECT (%STATION_NAME_WILD_VAL);
      256    19831
      257    19832    3         BLK$ = P_PCB.OUT$->P$B.SUBLK$(I);
      258    19833    3         STATION_NAME.COUNT = OUT$SYM.COUNT;
      259    19834    3         STATION_NAME.TEXT = OUT$SYM.TEXT;
      260    19835    3         OPTION_CODE = %STATION;
      261    19836    3         CALL INDEX (K, '?', STATION_NAME.TEXT)
      262    19837    4         WHENRETURN DO;
      263    19838    4            OPTION_CODE = %STATION_WILD;
      264    19839    4            END; /*  Whenreturn  */
      265    19840
      266    19841    3         SELECT (%TERMINAL_NAME_WILD_VAL);
      267    19842
      268    19843    3         BLK$ = P_PCB.OUT$->P$B.SUBLK$(I);
      269    19844    3         TERMINAL_NAME.COUNT = OUT$SYM.COUNT;
      270    19845    3         TERMINAL_NAME.TEXT = OUT$SYM.TEXT;
      271    19846    3         OPTION_CODE = %TERMINAL;
      272    19847    3         CALL INDEX (K, '?', TERMINAL_NAME.TEXT)
      273    19848    4         WHENRETURN DO;
      274    19849    4            OPTION_CODE = %TERMINAL_WILD;
      275    19850    4            END; /*  Whenreturn  */
      276    19851
      277    19852    3         SELECT (%JCL_VAL);
      278    19853
      279    19854    3         JCL = %YES#;
      280    19855
      281    19856    3         END;  /*  Do select on code  */
      282    19857
      283    19858    2      END;  /*  Do i  */
      284    19859
PL6.E3A0      #001=ASL$LIST_ALL_DEVICES File=ASL$LIST_DEVICES.:E05TSI            TUE 07/29/97 10:07 Page:10
      285    19860    1   FDS.NVECS# = 0;
      286    19861    2   IF JCL THEN DO;
      287    19862    2      CALL CONCAT (FMT_BUF, '%1/"', DEVICES_STR, '%1/');
      288    19863    2      FDS.FMT_.BOUND = LENGTHC (DEVICES_STR) + 6;
      289    19864    2      END;   /*  Jcl  */
      290    19865    2   ELSE DO;
      291    19866    2      CALL CONCAT (FMT_BUF, '%1/', DEVICES_STR, '%1/');
      292    19867    2      FDS.FMT_.BOUND = LENGTHC (DEVICES_STR) + 5;
      293    19868    2      END;  /*  Not jcl  */
      294    19869    1   FDS.TABDFLT# = 10;
      295    19870    1   CALL X$FORMAT (FDS);
      296    19871
      297    19872    1   IF OPTION_CODE = %SINGLE_DEVICE THEN
      298    19873    2      IF TPDEV_SPECIFIED THEN DO;
      299    19874    3         IF TPDEV_NAME_SPECIFIED THEN DO;
      300    19875    3            OPTION_CODE = %SINGLE_TPDEVICE;
      301    19876    3            TPDEV_ACCT_WILD = %NO#;
      302    19877    3            CALL INDEX (I, '?', TPDEV.ACCT)
      303    19878    4            WHENRETURN DO;
      304    19879    4               TPDEV_ACCT_WILD = %YES#;
      305    19880    4               OPTION_CODE = %TPDEV_WILD;
      306    19881    4               END; /*  Whenreturn  */
      307    19882    3            TPDEV_NAME_WILD = %NO#;
      308    19883    3            CALL INDEX (I, '?', TPDEV.NAME)
      309    19884    4            WHENRETURN DO;
      310    19885    4               TPDEV_NAME_WILD = %YES#;
      311    19886    4               OPTION_CODE = %TPDEV_WILD;
      312    19887    4               END; /*  Whenreturn  */
      313    19888    3            END; /* TPDEV_NAME specified  */
      314    19889    3         ELSE DO;
      315    19890    3            TPDEV_ACCT_WILD = %YES#;
      316    19891    3            TPDEV_NAME_WILD = %YES#;
      317    19892    3            OPTION_CODE = %TPDEV_WILD;
      318    19893    3            END; /*  Else  */
      319    19894    2         END;  /*  Tpdev specified  */
      320    19895    2      ELSE DO;
      321    19896    2         DEVICE_NAME_WILD = %NO#;
PL6.E3A0      #001=ASL$LIST_ALL_DEVICES File=ASL$LIST_DEVICES.:E05TSI            TUE 07/29/97 10:07 Page:11
      322    19897    2         CALL INDEX (I, '?', DEV_NAME.TEXT)
      323    19898    3         WHENRETURN DO;
      324    19899    3            DEVICE_NAME_WILD = %YES#;
      325    19900    3            OPTION_CODE = %DEV_WILD;
      326    19901    3            END; /*  Whenreturn  */
      327    19902    2         END;  /*  Tpdev not specified  */
      328    19903
      329    19904    1   IF OPTION_CODE = %DEV_WILD THEN
      330    19905    1      IF DEV_NAME.TEXT = '?' THEN
      331    19906    1         OPTION_CODE = %ALL;
      332    19907    2      ELSE DO; END;
      333    19908    1   ELSE IF OPTION_CODE = %TPDEV_WILD THEN
      334    19909    1         IF TPDEV.ACCT = '?' AND TPDEV.NAME = '?' THEN
      335    19910    1            OPTION_CODE = %ALL;
      336    19911
      337    19912    2   DO SELECT  (OPTION_CODE);
      338    19913
      339    19914    2      SELECT  (%ALL); /*  List/display all devices  */
      340    19915
      341    19916    2      CALL ASB$BOF_HLP;
      342    19917    3      DO FOREVER;
      343    19918    3   NEXT: ARS = DSEG3SIZE;
      344    19919    3         CALL ASB$READ_HLP_SEQ( DSEG3$, ARS, 3 )
      345    19920    4         WHENRETURN DO;
      346    19921    4            CALL ASB$CHECK_TYPE( DSEG3$, ARS, DEV_TYPE ) ALTRET(NEXT);
      347    19922    4            DEV_NAME = USERS_KEY;
      348    19923    5            IF NOT CHECK OR DSEG3$->KL$DREC.SUPER = DEV_TYPE THEN DO;
      349    19924    6               IF DISP THEN DO;
      350    19925    6                  CALL ASL$DISP_ONE_DEVICE (JCL, %NO# );
      351    19926    6                  CALL ASB$WRITE_LO  (' ',1);
      352    19927    6                  END;   /*  Disp  */
      353    19928    6               ELSE DO; /*  list out the device name  */
      354    19929    6                  CALL ASL$FORMAT_DEVNAME (USERS_KEY, DISP_DEVICES);
      355    19930    6                  END; /*  List  */
      356    19931    5               DISP_DEVICES = DISP_DEVICES + 1;
      357    19932    5               END;  /*  The right type  */
      358    19933    5            IF DEV_NAME ~= USERS_KEY THEN DO;
PL6.E3A0      #001=ASL$LIST_ALL_DEVICES File=ASL$LIST_DEVICES.:E05TSI            TUE 07/29/97 10:07 Page:12
      359    19934    5               USERS_KEY = DEV_NAME;
      360    19935    5               CALL ASB$PREC_AND_SKIP_HLP;
      361    19936    5               END; /*  DEV_NAME ~= USERS_KEY  */
      362    19937    4            END; /*  Whenreturn  */
      363    19938    4         WHENALTRETURN DO;
      364    19939    4            IF MERR_CODE.CODE ~= %E$EOF THEN
      365    19940    4               CALL ASA$ERROR( USERS_KEY, E$UNABLE_TO_READ_HLP );
      366    19941    4            GOTO FINISH_UP;
      367    19942    4            END; /*  Whenaltreturn  */
      368    19943    3         END; /*  Do forever  */
      369    19944
      370    19945    2      SELECT  (%STATION_WILD);
      371    19946
      372    19947    2      CALL ASB$INIT_GET_STATION;
      373    19948    3      DO TWSN_NUMBER = 0 TO KL$WSNCVT.LTWSN ;
      374    19949    3         CALL INDEX (NAME_LEN, ' ', KL$WSNCVT.WSN(TWSN_NUMBER));
      375    19950    3         IF NAME_LEN = 0 THEN NAME_LEN = 1;
      376    19951    3         MATCH_LEN = STATION_NAME.COUNT;
      377    19952    3         CALL ASB$WILD_MATCH (NAME_LEN,KL$WSNCVT.WSN(TWSN_NUMBER),MATCH_LEN,
             19952                  STATION_NAME.TEXT) ALTRET (NEXT_STATION);
      378    19953    3         CALL ASB$GET_NEXT_STATION (TWSN_NUMBER) ALTRET (FINISH_UP);
      379    19954    4         DO I = 0 TO KL$TWSNREC.NDEV - 1;
      380    19955    5            IF ~KL$TWSNREC.DEVS.IOM_CONNECTED(I) THEN DO;
      381    19956    6               IF KL$TWSNREC.DEVS.TDEV(I) THEN DO; /*  A tdev  */
      382    19957    6                  NAME_LEN = 4;
      383    19958    6                  USERS_KEY.COUNT = 8;
      384    19959    6                  END; /*  A tdev  */
      385    19960    6               ELSE DO;          /* Not a tdev         */
      386    19961    6                  CALL INDEX (NAME_LEN, ' ', KL$TWSNREC.DEVS.ACCT(I));
      387    19962    6                  USERS_KEY.COUNT = 9;
      388    19963    6                  END; /*  Not a tdev  */
      389    19964    5               MATCH_LEN = DEV_NAME.COUNT;
      390    19965    5               CALL ASB$WILD_MATCH (NAME_LEN,KL$TWSNREC.DEVS.ACCT(I),MATCH_LEN,DEV_NAME
             19965                        .TEXT)
      391    19966    6               WHENRETURN DO;
      392    19967    6                  CALL INSERT(USERS_KEY.TXTC,0,9,KL$TWSNREC.DEVS.ACCT(I),'*');
      393    19968    6                  ARS = DSEG3SIZE;
PL6.E3A0      #001=ASL$LIST_ALL_DEVICES File=ASL$LIST_DEVICES.:E05TSI            TUE 07/29/97 10:07 Page:13
      394    19969    6                  CALL ASB$READ_HLP(DSEG3$, ARS, 3) ALTRET(NO_REC_FOR_STATION1);
      395    19970    6                  CALL ASB$CHECK_TYPE( DSEG3$, ARS, DEV_TYPE ) ALTRET(
             19970                           NO_REC_FOR_STATION1);
      396    19971    7                  IF NOT CHECK OR DSEG3$->KL$DREC.SUPER = DEV_TYPE THEN DO;
      397    19972    7                     IF ~ DISP THEN
      398    19973    7                        CALL ASL$FORMAT_DEVNAME (USERS_KEY, DISP_DEVICES);
      399    19974    8                     ELSE DO;
      400    19975    8                        CALL ASL$DISP_ONE_DEVICE (JCL, %NO# );
      401    19976    8                        CALL ASB$WRITE_LO  (' ',1);
      402    19977    8                        END;   /*  Disp  */
      403    19978    7                     DISP_DEVICES = DISP_DEVICES + 1;
      404    19979    7                     END; /*  The right type  */
      405    19980    6                  END; /*  Whenreturn  */
      406    19981    5               END; /*  Not iom connected  */
      407    19982    4   NO_REC_FOR_STATION1:
      408    19983    4            END; /*  Do ndevs times  */
      409    19984    3   NEXT_STATION:
      410    19985    3         END; /*  Do ltwsn  */
      411    19986    2      GOTO FINISH_UP;
      412    19987
      413    19988    2      SELECT  (%STATION);
      414    19989
      415    19990    2      USERS_KEY.COUNT = 15;
      416    19991    2      CALL CONCAT( USERS_KEY.TXTC, STATION_NAME.TEXT, 'STATION' );
      417    19992    2      ARS = DSEG1SIZE;
      418    19993    2      CALL ASB$READ_HLP(DSEG1$, ARS, 1 ) ALTRET( READ_ALT3 );
      419    19994    2      USERS_KEY.COUNT = 8;
      420    19995    2      CALL CONCAT( USERS_KEY.TXTC, 'TWSN', DSEG1$->KL$DREC.TWSN# );
      421    19996    2      ARS = DSEG2SIZE;
      422    19997    2      CALL ASB$READ_HLP( DSEG2$, ARS, 2 ) ALTRET( READ_ERR );
      423    19998    3      DO I = 0 TO KL$TWSNREC.NDEV - 1;
      424    19999    4         IF ~KL$TWSNREC.DEVS.IOM_CONNECTED(I) THEN DO;
      425    20000    5            IF KL$TWSNREC.DEVS.TDEV(I) THEN DO; /*  A tdev  */
      426    20001    5               NAME_LEN = 4;
      427    20002    5               USERS_KEY.COUNT = 8;
      428    20003    5               END; /*  A tdev  */
      429    20004    5            ELSE DO;          /* Not a tdev         */
PL6.E3A0      #001=ASL$LIST_ALL_DEVICES File=ASL$LIST_DEVICES.:E05TSI            TUE 07/29/97 10:07 Page:14
      430    20005    5               CALL INDEX (NAME_LEN, ' ', KL$TWSNREC.DEVS.ACCT(I));
      431    20006    5               USERS_KEY.COUNT = 9;
      432    20007    5               END; /*  Not a tdev  */
      433    20008    4            MATCH_LEN = DEV_NAME.COUNT;
      434    20009    4            CALL ASB$WILD_MATCH (NAME_LEN,KL$TWSNREC.DEVS.ACCT(I),MATCH_LEN,DEV_NAME.
             20009                     TEXT)
      435    20010    5            WHENRETURN DO;
      436    20011    5               CALL INSERT(USERS_KEY.TXTC,0,9,KL$TWSNREC.DEVS.ACCT(I),'*');
      437    20012    5               ARS = DSEG3SIZE;
      438    20013    5               CALL ASB$READ_HLP(DSEG3$, ARS, 3) ALTRET(NO_REC_FOR_STATION2);
      439    20014    5               CALL ASB$CHECK_TYPE( DSEG3$, ARS, DEV_TYPE ) ALTRET(NO_REC_FOR_STATION2)
             20014                        ;
      440    20015    6               IF NOT CHECK OR DSEG3$->KL$DREC.SUPER = DEV_TYPE THEN DO;
      441    20016    7                  IF ~ DISP THEN DO;
      442    20017    7                     CALL ASL$FORMAT_DEVNAME (USERS_KEY, DISP_DEVICES);
      443    20018    7                     END; /*  ~disp  */
      444    20019    7                  ELSE DO;
      445    20020    7                     CALL ASL$DISP_ONE_DEVICE (JCL, %NO# );
      446    20021    7                     CALL ASB$WRITE_LO (' ',1);
      447    20022    7                     END;   /*  Disp  */
      448    20023    6                  DISP_DEVICES = DISP_DEVICES + 1;
      449    20024    6                  END; /*  The right type  */
      450    20025    5               END; /*  Whenreturn  */
      451    20026    4            END; /*  Not iom connected  */
      452    20027    3   NO_REC_FOR_STATION2:
      453    20028    3         END; /*  Do ndevs times  */
      454    20029    2      GOTO FINISH_UP;
      455    20030
      456    20031    2      SELECT  (%TERMINAL_WILD);
      457    20032
      458    20033    2      USERS_KEY.COUNT = 4;
      459    20034    2      USERS_KEY.TXTC = 'TERM';
      460    20035    2      ARS = DSEG1SIZE;
      461    20036    2      CALL ASB$READ_HLP(DSEG1$, ARS, 1 ) ALTRET( READ_ERR );
      462    20037    3      DO TWSN_NUMBER = 0 TO KL$WSNCVT.LTWSN ;
      463    20038    4         IF KL$WSNCVT.WSN(TWSN_NUMBER) ~= ' ' THEN DO;
      464    20039    4            USERS_KEY.COUNT = 8;
PL6.E3A0      #001=ASL$LIST_ALL_DEVICES File=ASL$LIST_DEVICES.:E05TSI            TUE 07/29/97 10:07 Page:15
      465    20040    4            CALL BINCHAR (TWSN_CHAR, TWSN_NUMBER);
      466    20041    4            CALL CONCAT( USERS_KEY.TXTC, 'TWSN', TWSN_CHAR );
      467    20042    4            ARS = DSEG2SIZE;
      468    20043    4            CALL ASB$READ_HLP( DSEG2$, ARS, 2 ) ALTRET( READ_ERR );
      469    20044    5            DO I = 0 TO KL$TWSNREC.NDEV - 1;
      470    20045    6               IF KL$TWSNREC.DEVS.TDEV(I) THEN DO; /*  A tdev  */
      471    20046    6                  MATCH_LEN = DEV_NAME.COUNT;
      472    20047    6                  CALL ASB$WILD_MATCH (4,KL$TWSNREC.DEVS.ACCT(I),MATCH_LEN,DEV_NAME.
             20047                           TEXT)
      473    20048    7                  WHENRETURN DO;
      474    20049    7                     CALL INDEX (NAME_LEN,' ',KL$TWSNREC.DEVS.TERM(I));
      475    20050    7                     MATCH_LEN = TERMINAL_NAME.COUNT;
      476    20051    7                     CALL ASB$WILD_MATCH (NAME_LEN,KL$TWSNREC.DEVS.TERM(I),MATCH_LEN,
             20051                              TERMINAL_NAME.TEXT)
      477    20052    8                     WHENRETURN DO;
      478    20053    8                        USERS_KEY.COUNT = 8;
      479    20054    8                        CALL INSERT(USERS_KEY.TXTC,0,9,KL$TWSNREC.DEVS.ACCT(I),'*');
      480    20055    8                        ARS = DSEG3SIZE;
      481    20056    8                        CALL ASB$READ_HLP(DSEG3$, ARS, 3)
      482    20057    9                        WHENRETURN DO;
      483    20058    9                           CALL ASB$CHECK_TYPE( DSEG3$, ARS, DEV_TYPE ) ALTRET(
             20058                                    NO_REC_FOR_TERM1);
      484    20059   10                           IF NOT CHECK OR DSEG3$->KL$DREC.SUPER = DEV_TYPE THEN DO;
      485    20060   11                              IF ~ DISP THEN DO;
      486    20061   11                                 CALL ASL$FORMAT_DEVNAME (USERS_KEY, DISP_DEVICES);
      487    20062   11                                 END; /*  ~disp  */
      488    20063   11                              ELSE DO;
      489    20064   11                                 CALL ASL$DISP_ONE_DEVICE (JCL, %NO# );
      490    20065   11                                 CALL ASB$WRITE_LO (' ',1);
      491    20066   11                                 END; /*  Disp  */
      492    20067   10                              DISP_DEVICES = DISP_DEVICES + 1;
      493    20068   10                              END; /*  The right type  */
      494    20069    9                           END; /*  Whenreturn from READ_HLP of device record  */
      495    20070    9                        WHENALTRETURN DO;
      496    20071        /*E* ERROR: ASL-E$NODEVFORTERM-C
      497    20072             MESSAGE:  Device %U1 does not exist.
      498    20073             MESSAGE1:  It is listed in TWSN %U2 but can't be read from :HLP.
PL6.E3A0      #001=ASL$LIST_ALL_DEVICES File=ASL$LIST_DEVICES.:E05TSI            TUE 07/29/97 10:07 Page:16
      499    20074        */
      500    20075    9                           AS_FIELD1.TEXT = KL$TWSNREC.DEVS.ACCT(I);
      501    20076    9                           AS_FIELD1.COUNT = 4;
      502    20077    9                           AS_FIELD2.TEXT = TWSN_CHAR;
      503    20078    9                           AS_FIELD2.COUNT = 4;
      504    20079                                %SCREAM (ERR#=%E$NODEVFORTERM,LEVEL=ERROR,MID='L');
      505    20094    9                           END; /*  Whenaltreturn from READ_HLP  */
      506    20095    8                        END; /*  Whenreturn from WILD_MATCH of terminal name */
      507    20096    7                     END; /*  Whenreturn  from WILD_MATCH of device name  */
      508    20097    6                  END; /*  A tdev  */
      509    20098    5   NO_REC_FOR_TERM1:
      510    20099    5               END; /*  Do ndevs times  */
      511    20100    4            USERS_KEY.COUNT = 4;
      512    20101    4            USERS_KEY.TXTC = 'TERM';
      513    20102    4            ARS = DSEG1SIZE;
      514    20103    4            CALL ASB$READ_HLP(DSEG1$, ARS, 1 ) ALTRET( READ_ERR );
      515    20104    4            END; /*  If station name not blank  */
      516    20105    3         END; /*  Do 0 to KL$WSNCVT.LTWSN  */
      517    20106
      518    20107    2      SELECT  (%TERMINAL);
      519    20108
      520    20109    2      USERS_KEY.COUNT = 9;
      521    20110    2      CALL CONCAT( USERS_KEY.TXTC, TERMINAL_NAME.TEXT, '*' );
      522    20111    2      ARS = DSEG1SIZE;
      523    20112    2      STATION_NAME = TERMINAL_NAME;
      524    20113    2      CALL ASB$READ_HLP( DSEG1$, ARS, 1) ALTRET( READ_ALT3 );
      525    20114    2      CALL ASB$CHECK_TYPE( DSEG1$, ARS, AS_TERM#, %NO#, TERMINAL_NAME ) ALTRET(
             20114               FINISH_UP);
      526    20115    2      AS_FIELD1.COUNT = TERMINAL_NAME.COUNT;
      527    20116    2      AS_FIELD1.TEXT = TERMINAL_NAME.TEXT;
      528    20117    2      AS_FIELD2.COUNT = 8;
      529    20118    2      AS_FIELD2.TEXT = 'TERMINAL';
      530    20119    2      USERS_KEY.COUNT = 8;
      531    20120    2      CALL CONCAT( USERS_KEY.TXTC, 'TWSN', DSEG1$->KL$DREC.TWSN# );
      532    20121    2      ARS = DSEG2SIZE;
      533    20122    2      CALL ASB$READ_HLP( DSEG2$, ARS, 2 ) ALTRET( READ_ERR );
      534    20123    3      DO I = 0 TO KL$TWSNREC.NDEV - 1;
PL6.E3A0      #001=ASL$LIST_ALL_DEVICES File=ASL$LIST_DEVICES.:E05TSI            TUE 07/29/97 10:07 Page:17
      535    20124    3         USERS_KEY.COUNT = 8;
      536    20125    4         IF KL$TWSNREC.DEVS.TDEV(I) THEN DO; /*  A tdev  */
      537    20126    4            MATCH_LEN = DEV_NAME.COUNT;
      538    20127    4            CALL ASB$WILD_MATCH (4,KL$TWSNREC.DEVS.ACCT(I),MATCH_LEN,DEV_NAME.TEXT)
      539    20128    5            WHENRETURN DO;
      540    20129    5               CALL INDEX (NAME_LEN,' ',KL$TWSNREC.DEVS.TERM(I));
      541    20130    5               MATCH_LEN = TERMINAL_NAME.COUNT;
      542    20131    5               CALL ASB$WILD_MATCH (NAME_LEN,KL$TWSNREC.DEVS.TERM(I),MATCH_LEN,
             20131                        TERMINAL_NAME.TEXT)
      543    20132    6               WHENRETURN DO;
      544    20133    6                  CALL INSERT(USERS_KEY.TXTC,0,9,KL$TWSNREC.DEVS.ACCT(I),'*');
      545    20134    6                  ARS = DSEG3SIZE;
      546    20135    6                  CALL ASB$READ_HLP(DSEG3$, ARS, 3) ALTRET(NO_REC_FOR_TERM2);
      547    20136    6                  CALL ASB$CHECK_TYPE( DSEG3$, ARS, DEV_TYPE ) ALTRET(NO_REC_FOR_TERM2)
             20136                           ;
      548    20137    7                  IF NOT CHECK OR DSEG3$->KL$DREC.SUPER = DEV_TYPE THEN DO;
      549    20138    8                     IF ~ DISP THEN DO;
      550    20139    8                        CALL ASL$FORMAT_DEVNAME (USERS_KEY, DISP_DEVICES);
      551    20140    8                        END; /*  ~disp  */
      552    20141    8                     ELSE DO;
      553    20142    8                        CALL ASL$DISP_ONE_DEVICE (JCL, %NO# );
      554    20143    8                        CALL ASB$WRITE_LO (' ',1);
      555    20144    8                        END; /*  Disp  */
      556    20145    7                     DISP_DEVICES = DISP_DEVICES + 1;
      557    20146    7                     END; /*  The right type  */
      558    20147    6                  END; /*  Whenreturn  */
      559    20148    5               END; /*  Whenreturn  */
      560    20149    4            END; /*  A tdev  */
      561    20150    3   NO_REC_FOR_TERM2:
      562    20151    3         END; /*  Do ndevs times  */
      563    20152
      564    20153    2      SELECT  (%TPDEV_WILD);
      565    20154
      566    20155                 /*  Setup begin key  */
      567    20156                 /*  Setup end key  */
      568    20157    2      CALL INDEX (I,'?',TPDEV.ACCT);
      569    20158    2      BEGIN_KEY.TEXT = SUBSTR (TPDEV.ACCT,0,I);
PL6.E3A0      #001=ASL$LIST_ALL_DEVICES File=ASL$LIST_DEVICES.:E05TSI            TUE 07/29/97 10:07 Page:18
      570    20159    2      CALL CONCAT (END_KEY.TEXT,SUBSTR (TPDEV.ACCT,0,I),'~');
      571    20160    2      CALL INDEX (I,'?',TPDEV.NAME);
      572    20161    2      SUBSTR (BEGIN_KEY.TEXT,8,I) = SUBSTR (TPDEV.NAME,0,I);
      573    20162    2      BEGIN_KEY.COUNT = 8+I;
      574    20163    2      END_KEY.COUNT = 8+I+1;
      575    20164    2      SUBSTR (END_KEY.TEXT,8,I) = SUBSTR (TPDEV.NAME,0,I);
      576    20165    2      IF END_KEY.COUNT < 21 THEN
      577    20166    2         SUBSTR (END_KEY.TEXT,8+I,1) = '~';
      578    20167    2      USERS_KEY = BEGIN_KEY;
      579    20168    2      CALL ASB$PREC_HLP;
      580    20169    2      ARS = DSEG3SIZE;
      581    20170    3      CALL ASB$READ_HLP_SEQ (DSEG3$,ARS,3) WHENRETURN DO;
      582    20171    3         LAST_KEY = USERS_KEY;
      583    20172    4         DO WHILE USERS_KEY.TXTC < END_KEY.TEXT;
      584    20173    4            CALL ASB$CHECK_TYPE (DSEG3$, ARS, DEV_TYPE)
      585    20174    5            WHENRETURN DO;
      586    20175    6               IF NOT CHECK OR DSEG3$->KL$DREC.SUPER = DEV_TYPE THEN DO;
      587    20176        /*  Calculate ACCT_LEN and MATCH_LEN  */
      588    20177    6                  CALL INDEX (ACCT_LEN,' ',USERS_KEY.TXTC);
      589    20178    6                  IF ACCT_LEN > 7 THEN ACCT_LEN = 8;
      590    20179    6                  ELSE IF ACCT_LEN = 0 THEN ACCT_LEN = 1;
      591    20180    6                  CALL INDEX (MATCH_LEN,' ',TPDEV.ACCT);
      592    20181    6                  IF MATCH_LEN > 7 THEN MATCH_LEN = 8;
      593    20182    6                  ELSE IF MATCH_LEN = 0 THEN MATCH_LEN = 1;
      594    20183    6                  ACCT = SUBSTR (USERS_KEY.TXTC,0,ACCT_LEN);
      595    20184    6                  CALL ASB$WILD_MATCH (ACCT_LEN,ACCT,MATCH_LEN,TPDEV.ACCT)
      596    20185    7                  WHENRETURN DO;
      597    20186        /*  Calculate NAME_LEN and MATCH_LEN  */
      598    20187    7                     CALL INDEX (NAME_LEN,' ',USERS_KEY.TXTC,8);
      599    20188    7                     IF NAME_LEN > 19 THEN NAME_LEN = 12;
      600    20189    7                     ELSE IF NAME_LEN = 8 THEN NAME_LEN = 1;
      601    20190    7                        ELSE NAME_LEN = NAME_LEN - 8;
      602    20191    7                     CALL INDEX (MATCH_LEN,' ',TPDEV.NAME);
      603    20192    7                     IF MATCH_LEN > 11 THEN MATCH_LEN = 12;
      604    20193    7                     ELSE IF MATCH_LEN = 0 THEN MATCH_LEN = 1;
      605    20194    7                     NAME = SUBSTR (USERS_KEY.TXTC,8,NAME_LEN);
      606    20195    7                     CALL ASB$WILD_MATCH (NAME_LEN,NAME,MATCH_LEN,TPDEV.NAME)
PL6.E3A0      #001=ASL$LIST_ALL_DEVICES File=ASL$LIST_DEVICES.:E05TSI            TUE 07/29/97 10:07 Page:19
      607    20196    8                     WHENRETURN DO;
      608    20197    9                        IF DISP THEN DO;
      609    20198    9                           CALL ASL$DISP_ONE_DEVICE (JCL, %NO# );
      610    20199    9                           CALL ASB$WRITE_LO (' ',1);
      611    20200    9                           END;  /* Disp  */
      612    20201    9                        ELSE DO;
      613    20202    9                           CALL ASL$FORMAT_DEVNAME (USERS_KEY, DISP_DEVICES);
      614    20203    9                           END; /*  List  */
      615    20204    8                        DISP_DEVICES = DISP_DEVICES + 1;
      616    20205    8                        END; /*  Whenreturn from ASB$WILD_MATCH on name  */
      617    20206    7                     END; /*  Whenreturn from ASB$WILD_MATCH on acct  */
      618    20207    6                  END; /*  Not check or .SUPER=DEV_TYPE  */
      619    20208    5               END; /*  Whenreturn from ASB$CHECK_TYPE  */
      620    20209    5            IF LAST_KEY ~= USERS_KEY THEN DO;
      621    20210    5               USERS_KEY = LAST_KEY;
      622    20211    5               CALL ASB$PREC_AND_SKIP_HLP;
      623    20212    5               END; /*  Last ~= users  */
      624    20213    4            ARS = DSEG3SIZE;
      625    20214    4            CALL ASB$READ_HLP_SEQ (DSEG3$, ARS, 3) ALTRET(FINISH_UP);
      626    20215    4            LAST_KEY = USERS_KEY ;
      627    20216    4            END; /*  Do while USERS_KEY < END_KEY  */
      628    20217    3         END; /*  Whenreturn from ASB$READ_HLP_SEQ  */
      629    20218
      630    20219    2      SELECT  (%SINGLE_TPDEVICE);
      631    20220
      632    20221    2      ARS = DSEG3SIZE;
      633    20222    2      USERS_KEY = TPDEV;
      634    20223    2      CALL INDEX (I,' ',TPDEV.ACCT);
      635    20224    2      CALL INDEX (COUNT,' ',TPDEV.NAME);
      636    20225    2      CALL CONCAT (AS_FIELD1.TEXT,SUBSTR(TPDEV.ACCT,0,I),',',SUBSTR(TPDEV.NAME,0,COUNT)
             20225               );
      637    20226    2      AS_FIELD1.COUNT = I + COUNT + 1;
      638    20227    3      CALL ASB$READ_HLP (DSEG3$, ARS, 3) WHENALTRETURN DO;
      639    20228              %SCREAM (ERR#=E$DEV_NO_EXIST2,LEVEL=ERROR,MID='L');
      640    20243    3         RETURN;
      641    20244    3         END; /*   Whenreturn from ASB$READ_HLP  */
      642    20245    3      IF KL$TREC.SUPER = DEV_TYPE THEN DO;
PL6.E3A0      #001=ASL$LIST_ALL_DEVICES File=ASL$LIST_DEVICES.:E05TSI            TUE 07/29/97 10:07 Page:20
      643    20246    4         IF DISP THEN DO;
      644    20247    4            CALL ASL$DISP_ONE_DEVICE (JCL, %NO# );
      645    20248    4            CALL ASB$WRITE_LO (' ',1);
      646    20249    4            END;  /*  Disp  */
      647    20250    4         ELSE DO;
      648    20251    4            CALL ASL$FORMAT_DEVNAME (USERS_KEY, DISP_DEVICES);
      649    20252    4            END; /*  List  */
      650    20253    3         DISP_DEVICES = DISP_DEVICES + 1;
      651    20254    3         END; /*  KL$TREC.SUPER = DEV_TYPE  */
      652    20255
      653    20256    2      SELECT  (%DEV_WILD);
      654    20257
      655    20258                 /*  Setup begin key  */
      656    20259                 /*  Setup end key  */
      657    20260    2      CALL INDEX (I,'?',DEV_NAME.TEXT);
      658    20261    2      BEGIN_KEY.TEXT = SUBSTR (DEV_NAME.TEXT,0,I);
      659    20262    2      CALL CONCAT (END_KEY.TEXT,SUBSTR (DEV_NAME.TEXT,0,I),'~');
      660    20263    2      BEGIN_KEY.COUNT = 8;
      661    20264    2      END_KEY.COUNT = 8;
      662    20265    2      USERS_KEY = BEGIN_KEY;
      663    20266    2      CALL ASB$PREC_HLP;
      664    20267    2      ARS = DSEG3SIZE;
      665    20268    3      CALL ASB$READ_HLP_SEQ (DSEG3$,ARS,3) WHENRETURN DO;
      666    20269    3         LAST_KEY = USERS_KEY;
      667    20270    4         DO WHILE USERS_KEY.TXTC < END_KEY.TEXT;
      668    20271    4            CALL ASB$CHECK_TYPE (DSEG3$, ARS, DEV_TYPE)
      669    20272    5            WHENRETURN DO;
      670    20273    6               IF NOT CHECK OR KL$TREC.SUPER = DEV_TYPE THEN DO;
      671    20274        /*  Calculate ACCT_LEN and MATCH_LEN  */
      672    20275    6                  CALL INDEX (ACCT_LEN,' ',USERS_KEY.TXTC);
      673    20276    6                  IF ACCT_LEN > 7 THEN ACCT_LEN = 8;
      674    20277    6                  ELSE IF ACCT_LEN = 0 THEN ACCT_LEN = 1;
      675    20278    6                  CALL INDEX (MATCH_LEN,' ',DEV_NAME.TEXT);
      676    20279    6                  IF MATCH_LEN > 7 THEN MATCH_LEN = 8;
      677    20280    6                  ELSE IF MATCH_LEN = 0 THEN MATCH_LEN = 1;
      678    20281    6                  ACCT = SUBSTR (USERS_KEY.TXTC,0,ACCT_LEN);
      679    20282    6                  CALL ASB$WILD_MATCH (ACCT_LEN,ACCT,MATCH_LEN,DEV_NAME.TEXT)
PL6.E3A0      #001=ASL$LIST_ALL_DEVICES File=ASL$LIST_DEVICES.:E05TSI            TUE 07/29/97 10:07 Page:21
      680    20283    7                  WHENRETURN DO;
      681    20284    8                     IF DISP THEN DO;
      682    20285    8                        CALL ASL$DISP_ONE_DEVICE (JCL, %NO# );
      683    20286    8                        CALL ASB$WRITE_LO (' ',1);
      684    20287    8                        END;   /*  Disp  */
      685    20288    8                     ELSE DO;
      686    20289    8                        CALL ASL$FORMAT_DEVNAME (USERS_KEY, DISP_DEVICES);
      687    20290    8                        END; /*  List  */
      688    20291    7                     DISP_DEVICES = DISP_DEVICES + 1;
      689    20292    7                     END; /*  Whenreturn from ASB$WILD_MATCH on acct  */
      690    20293    6                  END; /*  Not check or .SUPER = DEV_TYPE  */
      691    20294    5               END; /*  Whenreturn from ASB$CHECK_TYPE  */
      692    20295    5            IF LAST_KEY ~= USERS_KEY THEN DO;
      693    20296    5               USERS_KEY = LAST_KEY;
      694    20297    5               CALL ASB$PREC_AND_SKIP_HLP;
      695    20298    5               END;  /*  Last ~= users  */
      696    20299    4            ARS = DSEG3SIZE;
      697    20300    4            CALL ASB$READ_HLP_SEQ (DSEG3$, ARS, 3) ALTRET(FINISH_UP);
      698    20301    4            LAST_KEY = USERS_KEY;
      699    20302    4            END; /*  Do while USERS_KEY < END_KEY  */
      700    20303    3         END; /*  Whenreturn from ASB$READ_HLP_SEQ  */
      701    20304
      702    20305    2      SELECT  (%SINGLE_DEVICE);
      703    20306
      704    20307    2      USERS_KEY.COUNT = 9;
      705    20308    2      CALL CONCAT( USERS_KEY.TXTC, DEV_NAME.TEXT, '*' );
      706    20309    2      ARS = DSEG3SIZE;
      707    20310    2      CALL ASB$READ_HLP( DSEG3$, ARS, 3) ALTRET(RD_ALT2);
      708    20311    2      CALL ASB$CHECK_TYPE( DSEG3$, ARS, DEV_TYPE, %NO#, DEV_NAME ) ALTRET(FINISH_UP);
      709    20312    3      IF NOT CHECK OR KL$TREC.SUPER = DEV_TYPE THEN DO;
      710    20313    4         IF DISP THEN DO;
      711    20314    4            CALL ASL$DISP_ONE_DEVICE (JCL, %NO# );
      712    20315    4            CALL ASB$WRITE_LO (' ',1);
      713    20316    4            END;   /*  Disp  */
      714    20317    4         ELSE DO;
      715    20318    4            CALL ASL$FORMAT_DEVNAME (USERS_KEY, DISP_DEVICES);
      716    20319    4            END; /*  List  */
PL6.E3A0      #001=ASL$LIST_ALL_DEVICES File=ASL$LIST_DEVICES.:E05TSI            TUE 07/29/97 10:07 Page:22
      717    20320    3         DISP_DEVICES = DISP_DEVICES + 1;
      718    20321    3         END;  /*  Not check or KL$TREC.SUPER = DEV_TYPE  */
      719    20322
      720    20323    2      END; /*  Do case (OPTION_CODE)  */
      721    20324
      722    20325    2   DO NEVER;
      723    20326    2   RD_ALT2:
      724    20327    3      IF MERR_CODE.CODE = %E$NOKEY THEN DO;
      725    20328        /*E*  ERROR:  ASL-E$DEV_NO_EXIST2-C
      726    20329              MESSAGE: %U1 does not exist.
      727    20330              MESSAGE1: The specified DEVICE does not exist.
      728    20331        */
      729    20332    3         AS_FIELD1 = DEV_NAME;
      730    20333              %SCREAM( ERR#=E$DEV_NO_EXIST2, LEVEL=ERROR, MID='L' );
      731    20348    3         END; /*  Error  */
      732    20349    2      ELSE CALL ASA$ERROR( USERS_KEY, E$UNABLE_TO_READ_HLP );
      733    20350    2      GOTO FINISH_UP;
      734    20351
      735    20352    3   READ_ALT3: IF MERR_CODE.CODE = %E$NOKEY THEN DO;
      736    20353    3         AS_FIELD1.COUNT = STATION_NAME.COUNT;
      737    20354    3         AS_FIELD1.TEXT  = STATION_NAME.TEXT;
      738    20355              %SCREAM( ERR#=E$TERMINAL_NOEXIST, LEVEL=ERROR, MID='L' );
      739    20370    3         END;  /*  No such key error  */
      740    20371    2      ELSE
      741    20372    2   READ_ERR: CALL ASA$ERROR( USERS_KEY, E$UNABLE_TO_READ_HLP );
      742    20373    2      END;  /*  Do never  */
      743    20374    1   FINISH_UP:
      744    20375    2   IF NOT DISP THEN DO;
      745    20376    2      FMT_BUF = '%\%/';
      746    20377    2      FDS.FMT_.BOUND = 3;
      747    20378    2      FDS.NVECS# = 0;
      748    20379    2      CALL X$FORMAT (FDS);
      749    20380    2      END; /*  If not disp  */
      750    20381    2   IF NOT JCL THEN DO;
      751    20382    2      FMT_VEC(0) = VECTOR (DISP_DEVICES);
      752    20383    2      IF DISP_DEVICES = 1 THEN
      753    20384    3      DO;
PL6.E3A0      #001=ASL$LIST_ALL_DEVICES File=ASL$LIST_DEVICES.:E05TSI            TUE 07/29/97 10:07 Page:23
      754    20385    3         FMT_VEC(1) = VECTOR (DEVICE_STR);
      755    20386    3         END; /*  DISP_DEVICES = 1  */
      756    20387    3      ELSE DO;
      757    20388    3         FMT_VEC(1) = VECTOR (DEVICES_STR);
      758    20389    3         END; /*  DISP_DEVICES ~= 1  */
      759    20390    2      IF DISP THEN
      760    20391    3      DO;
      761    20392    3         FMT_VEC(2) = VECTOR (DISPLAY_STR);
      762    20393    3         END; /*  If disp  */
      763    20394    3      ELSE DO;
      764    20395    3         FMT_VEC(2) = VECTOR (LIST_STR);
      765    20396    3         END; /*  If ~ disp  */
      766    20397    2      FDS.NVECS# = 3;
      767    20398    2      FMT_BUF = '   %5D %A %A.';
      768    20399    2      FDS.FMT_.BOUND = 12;
      769    20400    2      CALL X$FORMAT(FDS);
      770    20401    2      END; /* Not jcl */
      771    20402    1   RETURN;
      772    20403    1   END ASL$LIST_ALL_DEVICES;
      773    20404        %EOD;

PL6.E3A0      #001=ASL$LIST_ALL_DEVICES File=ASL$LIST_DEVICES.:E05TSI            TUE 07/29/97 10:07 Page:24
--  Include file information  --

   AS_SUPER_R.:E05TOU  cannot be made into a system file and is referenced.
   OCI_SUBS_C.:E05TOU  is referenced.
   XU_FORMAT_C.:E05TOU  is referenced.
   XU_MACRO_C.:E05TOU  is referenced.
   KL_SUPER_C.:E05TOU  is referenced.
   KL_MACRO_C.:E05TOU  is referenced.
   KL_CONFIG_M.:E05TOU  is referenced.
   CP_6_SUBS.:E05TOU  is referenced.
   CP_6.:E05TOU  cannot be made into a system file and is referenced.
   B_ERRORS_C.:E05TOU  is referenced.
   AS_SSUBS_C.:E05TOU  is referenced.
   AS_ENTRIES_M.:E05TOU  is referenced.
   AS_MAC_C.:E05TOU  cannot be made into a system file and is referenced.
   AS_SUBS_C.:E05TOU  is referenced.
   AS_SUPER_C.:E05TOU  is referenced.
   AS_PERR_C.:E05TOU  is referenced.
   B$JIT_C.:E05TOU  was found in the system file and is never referenced.
   CP_6_C.:E05TOU  was found in the system file and is referenced.
      No diagnostics issued in procedure ASL$LIST_ALL_DEVICES.

   Procedure ASL$LIST_ALL_DEVICES requires 1838 words for executable code.
   Procedure ASL$LIST_ALL_DEVICES requires 82 words of local(AUTO) storage.

PL6.E3A0      #001=ASL$LIST_ALL_DEVICES File=ASL$LIST_DEVICES.:E05TSI            TUE 07/29/97 10:07 Page:25

 Object Unit name= ASL$LIST_ALL_DEVICES                       File name= ASL$LIST_DEVICES.:E05TOU
 UTS= JUL 29 '97 10:07:29.72 TUE                              Compiler= PL-6/E31         Sev=      00
 SharedLib= :SHARED_SYSTEM                                    Alt SharedLib=


    ****  Control sections  ****

 Sect   Type Bound  Init  Size OctSiz  Section name(segment info)
    0   DCB   even  none     0      0  M$UC
    1   DCB   even  none     0      0  M$LO
    2   Data  even  none    63     77  ASL$LIST_ALL_DEVICES
    3  RoData even  UTS     24     30  ASL$LIST_ALL_DEVICES
    4   Proc  even  none  1838   3456  ASL$LIST_ALL_DEVICES
    5  RoData even  none    38     46  ASL$LIST_ALL_DEVICES

    ****  Entry defs  ****

                              Check   Calling
                             calling  sequence
  Sect OctLoc Primary Altret sequence   type   Parms  Name
     4      0   yes            yes      Std        0  ASL$LIST_ALL_DEVICES
PL6.E3A0      #001=ASL$LIST_ALL_DEVICES File=ASL$LIST_DEVICES.:E05TSI            TUE 07/29/97 10:07 Page:26

  ****  Entry refs  ****

         Check        Calling
        calling       sequence
Altret sequence SRef   type   Args  Name
         yes          ~proc      0 XU_OUTPUT_OPTIONS
 yes     yes           Std       0 ASB$BOF_HLP
         yes           Std       2 ASB$WRITE_LO
         yes           Std       2 ASL$FORMAT_DEVNAME
 yes     yes           Std       0 ASB$PREC_AND_SKIP_HLP
         yes           Std       1 X$FORMAT
 yes     yes           Std       3 ASB$READ_HLP_SEQ
         yes           Std       2 ASL$DISP_ONE_DEVICE
         yes           Std       3 ASA$ERROR
 yes     yes           Std       0 ASB$INIT_GET_STATION
 yes     yes           Std       3 ASB$READ_HLP
 yes     yes           Std       0 ASB$PREC_HLP
 yes     yes           Std       4 ASB$WILD_MATCH
         yes           Std       2 ASH$ERROR
 yes     yes           Std       5 ASB$CHECK_TYPE
 yes     yes           Std       1 ASB$GET_NEXT_STATION
                       nStd      0 X66_AUTO_0
                       Std       0 B_CONSPOOL_D
                       nStd      0 X66_ARET
PL6.E3A0      #001=ASL$LIST_ALL_DEVICES File=ASL$LIST_DEVICES.:E05TSI            TUE 07/29/97 10:07 Page:27

  ****  Data refs  ****

  Flags:  r = read only, s = secondary
Flgs Name                             Flgs Name                             Flgs Name
     M$UC                             r    AS_MODE                          r    AS_FE_MODE
     M$LO                                  USERS_KEY                             FDS
     FMT_BUF                               FMT_VEC                               CODE
     ERR_CODE                              AS_FIELD1                             AS_FIELD2
     REMEM_VAR                             REM_FCMD                              ASA_BRKS_LOC
     DSEG1$                                DSEG1SIZE                             DSEG2$
     DSEG2SIZE                             DSEG3$                                DSEG3SIZE
     P_PCB                                 B_VECTNIL

  ****  Segment refs  ****

  Flags:  r = read only, s = secondary
Flgs Name                             Flgs Name                             Flgs Name
     ISSID
PL6.E3A0      #001=ASL$LIST_ALL_DEVICES File=ASL$LIST_DEVICES.:E05TSI            TUE 07/29/97 10:07 Page:28


        1        1        /*M* ASL$LIST_ALL_DEVICES: Routine to list devices.    */
        2        2        /*T***********************************************************/
        3        3        /*T*                                                         */
        4        4        /*T* Copyright (c) Bull HN Information Systems Inc., 1997    */
        5        5        /*T*                                                         */
        6        6        /*T***********************************************************/
        7        7        /*X*  DMC,DMR,CCC,PLM=0,IND=3,CTI=5,DCI=6,IAD=0,DTI=0,IDT=0,ENI=3,
        8        8              ECU=3,CSU=3,SDI=3                                           */
        9        9        ASL$LIST_ALL_DEVICES: PROC ;

      9  4 000000   000000 700200 xent  ASL$LIST_AL* TSX0  ! X66_AUTO_0
         4 000001   000122 000000                    ZERO    82,0

       10       10        /**********************************************************/
       11       11
       12       12        /*D* NAME:     ASL$LIST_ALL_DEVICES
       13       13             CALL:     CALL ASL$LIST_ALL_DEVICES ;
       14       14             INPUT:    None.
       15       15             OUTPUT:   Nothing is returned.
       16       16             DESCRIPTION:  ASL$LIST_ALL_DEVICES is the routine that
       17       17                           lists device names and calls the display
       18       18                           device routine.
       19       19                           This routine will read the following records
       20       20                           from :HLP  :
       21       21                                 device records - keys 'xxxxxxxx*'
       22       22                                 device records - keys 'xxxxxxxx'
       23       23                                 device records - keys 'xxxxxxxxxxxxxxxxxxxx'
       24       24                                 station records - keys 'xxxxxxxxSTATION'
       25       25                                 TERM record - keys 'TERM'
       26       26                                 TWSN records - keys 'TWSN9999'
       27       27                            And the device record from :CONFIG whose
       28       28                            key is 'term9999' where term is 4 characters of
       29       29                            device name and 9999 is 4 digits of subdevice
       30       30                            number.
       31       31                            Of the above records only the device records
       32       32                            are sure to be read in, the reading of the others
PL6.E3A0      #001=ASL$LIST_ALL_DEVICES File=ASL$LIST_DEVICES.:E05TSI            TUE 07/29/97 10:07 Page:29
       33       33                            is dependent upon the actual command that was
       34       34                            input.
       35       35                       MEMORY UTILIZATION.
       36       36                            If the station clause was specified on the input
       37       37                            command, then the TERM record will be read into
       38       38                            data segment 1 and the TWSNxxxx record will be
       39       39                            read into data segment 2.
       40       40                            If the terminal clause was specified on the input
       41       41                            command, then the terminals record will be read
       42       42                            into data segment 1 and the TWSNxxxx record will
       43       43                            be read into data segment 2.
       44       44                            The individual device records will be read into
       45       45                            data segment 3.
       46       46        */
       47       47        /********************************************************************/
       48       48        /*   Include files   include files   include files   include files  */
       49       49        /********************************************************************/
       50       50        %INCLUDE AS_PERR_C;
       51      652        %INCLUDE AS_SUPER_C;
       52     1087        %INCLUDE AS_SUBS_C;
       53     2501        %INCLUDE AS_MAC_C;
       54     2581        %INCLUDE AS_ENTRIES_M;
       55     3631        %INCLUDE AS_SSUBS_C;
       56     3723        %INCLUDE B_ERRORS_C;
       57     4850        %INCLUDE CP_6;
       58     4931        %INCLUDE CP_6_SUBS;
       59     5471        %INCLUDE KL_CONFIG_M;
       60     6233        %INCLUDE KL_MACRO_C;
       61     9585        %INCLUDE KL_SUPER_C;
       62    12487        %INCLUDE XU_MACRO_C;
       63    15593        %INCLUDE XU_FORMAT_C;
       64    15755        %INCLUDE OCI_SUBS_C;
       65    15853        %INCLUDE AS_SUPER_R;
       66    18869        /********************************************************************/
       67    18870        /*   Equs            equs            equs            equs           */
       68    18871        /********************************************************************/
       69    18872        %EQU SINGLE_DEVICE = 0;
PL6.E3A0      #001=ASL$LIST_ALL_DEVICES File=ASL$LIST_DEVICES.:E05TSI            TUE 07/29/97 10:07 Page:30
       70    18873        %EQU SINGLE_TPDEVICE = 1;
       71    18874        %EQU DEV_WILD = 2;
       72    18875        %EQU TPDEV_WILD = 3;
       73    18876        %EQU TERMINAL = 4;
       74    18877        %EQU TERMINAL_WILD = 5;
       75    18878        %EQU STATION = 6;
       76    18879        %EQU STATION_WILD = 7;
       77    18880        %EQU ALL = 8;
       78    18881        /********************************************************************/
       79    18882        /*   Static data     static data     static data     static data    */
       80    18883        /********************************************************************/
       81    18884        %KL$CONFIG_KEY  ( NAME = CONFIG_KEY, STCLASS = STATIC);
       82    18931    1   DCL LINCNFG_BUF (0:49)   UBIN WORD STATIC INIT(0*0);
       83    18932    1   DCL LINCNFG$             PTR STATIC INIT (ADDR(LINCNFG_BUF));
       84    18933        %KL$LINCNFG     ( NAME = LINCNFG, STCLASS = "BASED(LINCNFG$)");
       85    19091        %KL_SS;
       86    19126        /********************************************************************/
       87    19127        /*   Entry dcls      entry dcls      entry dcls      entry dcls     */
       88    19128        /********************************************************************/
       89    19129        %ASA$ERROR ;
       90    19132        %ASB$BOF_HLP ;
       91    19135        %ASB$CHECK_TYPE ;
       92    19138        %ASB$GET_NEXT_STATION ;
       93    19141        %ASB$INIT_GET_STATION ;
       94    19144        %ASB$PREC_AND_SKIP_HLP ;
       95    19147        %ASB$PREC_HLP ;
       96    19150        %ASB$READ_HLP ;
       97    19153        %ASB$READ_HLP_SEQ ;
       98    19156        %ASB$WILD_MATCH ;
       99    19159        %ASB$WRITE_LO ;
      100    19162        %ASH$ERROR ;
      101    19165        %ASL$DISP_ONE_DEVICE ;
      102    19168        %ASL$FORMAT_DEVNAME ;
      103    19171    1   DCL X$FORMAT ENTRY(1);
      104    19172        /********************************************************************/
      105    19173        /*   Local based     local based     local based     local based    */
      106    19174        /********************************************************************/
PL6.E3A0      #001=ASL$LIST_ALL_DEVICES File=ASL$LIST_DEVICES.:E05TSI            TUE 07/29/97 10:07 Page:31
      107    19175        %KL_DREC      ( NAME = KL$TREC, STCLASS = "BASED(DSEG3$)", LAST = ",");
      108    19288        %KL_GJOB      ( NAME = GJOB, STCLASS = BASED, LVL = 2, LAST = "," );
      109    19312        %KL_HASP      ( NAME = HASP, STCLASS = BASED, LVL = 2 );
      110    19462        %KL_TWSNREC   ( NAME = KL$TWSNREC, STCLASS = "BASED(DSEG2$)");
      111    19487        %KL_DREC      ( NAME = KL$DREC, LAST = ";", STCLASS = BASED) ;
      112    19600        %KL_WSNCVT    ( NAME = KL$WSNCVT, STCLASS = "BASED(DSEG1$)");
      113    19607        %PARSE$OUT    ( NAME = P$B, STCLASS = BASED,
      114    19608                        NDTYPE = TYPE);
      115    19653        %PARSE$SYM    ( NAME = OUT$SYM, STCLASS = "BASED(BLK$)" );
      116    19691        /********************************************************************/
      117    19692        /*   Auto data       auto data       auto data       auto data      */
      118    19693        /********************************************************************/
      119    19694    1   DCL ACCT                     CHAR(8);
      120    19695    1   DCL ACCT_LEN                 UBIN;
      121    19696    1   DCL ARS                      SBIN;
      122    19697    1   DCL 1 BEGIN_KEY,
      123    19698    1          2 COUNT               UBIN BYTE UNAL,
      124    19699    1          2 TEXT                CHAR(20) UNAL;
      125    19700    1   DCL BLK$                     PTR;
      126    19701    1   DCL CHECK                    BIT(1);
      127    19702    1   DCL COUNT                    UBIN WORD ;
      128    19703    1   DCL DEVICE_NAME_WILD         BIT(1);
      129    19704    1   DCL 1 DEV_NAME,
      130    19705    1          2 COUNT               UBIN BYTE UNAL,
      131    19706    1          2 TEXT                CHAR(8) UNAL,
      132    19707    1          2 *                   CHAR(33) UNAL;
      133    19708    1   DCL DEV_TYPE                 UBIN;
      134    19709    1   DCL DISP                     BIT(1);
      135    19710    1   DCL DISP_DEVICES             UBIN;
      136    19711    1   DCL 1 END_KEY,
      137    19712    1          2 COUNT               UBIN BYTE UNAL,
      138    19713    1          2 TEXT                CHAR(20) UNAL;
      139    19714    1   DCL I                        SBIN;
      140    19715    1   DCL JCL                      BIT(1);
      141    19716    1   DCL K                        SBIN;
      142    19717    1   DCL 1 LAST_KEY,
      143    19718    1          2 COUNT  UBIN BYTE UNAL,
PL6.E3A0      #001=ASL$LIST_ALL_DEVICES File=ASL$LIST_DEVICES.:E05TSI            TUE 07/29/97 10:07 Page:32
      144    19719    1          2 TEXT   CHAR(41) UNAL;
      145    19720    1   DCL MATCH_LEN                UBIN;
      146    19721    1   DCL NAME                     CHAR(12);
      147    19722    1   DCL NAME_LEN                 UBIN;
      148    19723    1   DCL OPTION_CODE              UBIN;
      149    19724    1   DCL 1 STATION_NAME,
      150    19725    1          2 COUNT               UBIN BYTE UNAL,
      151    19726    1          2 TEXT                CHAR(8) UNAL;
      152    19727    1   DCL 1 TERMINAL_NAME,
      153    19728    1          2 COUNT               UBIN BYTE UNAL,
      154    19729    1          2 TEXT                CHAR(8) UNAL;
      155    19730    1   DCL 1 TPDEV,
      156    19731    1          2 COUNT               UBIN BYTE UNAL,
      157    19732    1          2 ACCT                CHAR(8) UNAL,
      158    19733    1          2 NAME                CHAR(12) UNAL;
      159    19734    1   DCL TPDEV_ACCT_WILD          BIT(1);
      160    19735    1   DCL TPDEV_NAME_SPECIFIED     BIT(1);
      161    19736    1   DCL TPDEV_NAME_WILD          BIT(1);
      162    19737    1   DCL TPDEV_SPECIFIED          BIT(1);
      163    19738    1   DCL TWSN_CHAR                CHAR(4);
      164    19739    1   DCL TWSN_NUMBER              UBIN;
      165    19740        %EJECT;
PL6.E3A0      #001=ASL$LIST_ALL_DEVICES File=ASL$LIST_DEVICES.:E05TSI            TUE 07/29/97 10:07 Page:33
      166    19741        /********************************************************************/
      167    19742        /*   Constant data   constant data   constant data   constant data  */
      168    19743        /********************************************************************/
      169    19744    1   DCL DEVICE_STR CHAR(0) CONSTANT INIT ('device');
      170    19745    1   DCL DEVICES_STR CHAR(0) CONSTANT INIT ('devices');
      171    19746    1   DCL DISPLAY_STR CHAR(0) CONSTANT INIT ('displayed');
      172    19747    1   DCL LIST_STR CHAR(0) CONSTANT INIT ('listed');
      173    19748        %EJECT;
PL6.E3A0      #001=ASL$LIST_ALL_DEVICES File=ASL$LIST_DEVICES.:E05TSI            TUE 07/29/97 10:07 Page:34
      174    19749        /********************************************************************/
      175    19750        /*   Procedure       procedure       procedure       procedure      */
      176    19751        /********************************************************************/
      177    19752    1   JCL = %NO#;

  19752  4 000002   200046 450100                    STZ     JCL,,AUTO

      178    19753
      179    19754    1   TPDEV_SPECIFIED = %NO#;

  19754  4 000003   200110 450100                    STZ     TPDEV_SPECIFIED,,AUTO

      180    19755    1   TPDEV_NAME_SPECIFIED = %NO#;

  19755  4 000004   200106 450100                    STZ     TPDEV_NAME_SPECIFIED,,AUTO

      181    19756    1   OPTION_CODE = %SINGLE_DEVICE;

  19756  4 000005   200070 450100                    STZ     OPTION_CODE,,AUTO

      182    19757    1   TPDEV.COUNT = 9;

  19757  4 000006   011000 236003                    LDQ     4608,DU
         4 000007   200077 552140                    STBQ    TPDEV,'40'O,AUTO

      183    19758    1   TPDEV.ACCT = '?';

  19758  4 000010   040100 100400                    MLR     fill='040'O
         4 000011   000000 000001 5                  ADSC9   0                        cn=0,n=1
         4 000012   200077 200010                    ADSC9   TPDEV,,AUTO              cn=1,n=8

      184    19759    1   TPDEV.NAME = '?';

  19759  4 000013   040100 100400                    MLR     fill='040'O
         4 000014   000000 000001 5                  ADSC9   0                        cn=0,n=1
         4 000015   200101 200014                    ADSC9   TPDEV+2,,AUTO            cn=1,n=12

PL6.E3A0      #001=ASL$LIST_ALL_DEVICES File=ASL$LIST_DEVICES.:E05TSI            TUE 07/29/97 10:07 Page:35
      185    19760    1   DEV_NAME.COUNT = 1;

  19760  4 000016   001000 236003                    LDQ     512,DU
         4 000017   200021 552140                    STBQ    DEV_NAME,'40'O,AUTO

      186    19761    1   DEV_NAME.TEXT = '?';

  19761  4 000020   040100 100400                    MLR     fill='040'O
         4 000021   000000 000001 5                  ADSC9   0                        cn=0,n=1
         4 000022   200021 200010                    ADSC9   DEV_NAME,,AUTO           cn=1,n=8

      187    19762    1   STATION_NAME.COUNT = 1;

  19762  4 000023   200071 552140                    STBQ    STATION_NAME,'40'O,AUTO

      188    19763    1   STATION_NAME.TEXT = '?';

  19763  4 000024   040100 100400                    MLR     fill='040'O
         4 000025   000000 000001 5                  ADSC9   0                        cn=0,n=1
         4 000026   200071 200010                    ADSC9   STATION_NAME,,AUTO       cn=1,n=8

      189    19764    1   TERMINAL_NAME.COUNT = 1;

  19764  4 000027   200074 552140                    STBQ    TERMINAL_NAME,'40'O,AUTO

      190    19765    1   TERMINAL_NAME.TEXT = '?';

  19765  4 000030   040100 100400                    MLR     fill='040'O
         4 000031   000000 000001 5                  ADSC9   0                        cn=0,n=1
         4 000032   200074 200010                    ADSC9   TERMINAL_NAME,,AUTO      cn=1,n=8

      191    19766    1   DISP_DEVICES = 0;

  19766  4 000033   200036 450100                    STZ     DISP_DEVICES,,AUTO

      192    19767
      193    19768    2   DO I = 0 TO P_PCB.OUT$->P$B.NSUBLKS - 1;
PL6.E3A0      #001=ASL$LIST_ALL_DEVICES File=ASL$LIST_DEVICES.:E05TSI            TUE 07/29/97 10:07 Page:36

  19768  4 000034   200045 450100                    STZ     I,,AUTO
         4 000035   000341 710000 4                  TRA     s:19858+1

      194    19769
      195    19770    2      CODE = P_PCB.OUT$->P$B.SUBLK$(I)->P$B.CODE;

  19770  4 000036   000003 470400 xsym               LDP0    P_PCB+3
         4 000037   200045 720100                    LXL0    I,,AUTO
         4 000040   000003 471510                    LDP1    3,X0,PR0
         4 000041   100000 236100                    LDQ     0,,PR1
         4 000042   777777 376007                    ANQ     -1,DL
         4 000043   000000 756000 xsym               STQ     CODE

      196    19771
      197    19772    3      DO SELECT (CODE);

  19772  4 000044   000140 116007                    CMPQ    96,DL
         4 000045   000071 602000 4                  TNC     s:19772+21
         4 000046   000154 600000 4                  TZE     s:19795
         4 000047   000341 116007                    CMPQ    225,DL
         4 000050   000060 602000 4                  TNC     s:19772+12
         4 000051   000204 600000 4                  TZE     s:19808
         4 000052   000343 116007                    CMPQ    227,DL
         4 000053   000340 602000 4                  TNC     s:19858
         4 000054   000170 600000 4                  TZE     s:19802
         4 000055   000351 116007                    CMPQ    233,DL
         4 000056   000340 601000 4                  TNZ     s:19858
         4 000057   000311 710000 4                  TRA     s:19843
         4 000060   000311 116007                    CMPQ    201,DL
         4 000061   000066 602000 4                  TNC     s:19772+18
         4 000062   000264 600000 4                  TZE     s:19832
         4 000063   000337 116007                    CMPQ    223,DL
         4 000064   000340 601000 4                  TNZ     s:19858
         4 000065   000250 710000 4                  TRA     s:19826
         4 000066   000144 116007                    CMPQ    100,DL
         4 000067   000340 601000 4                  TNZ     s:19858
PL6.E3A0      #001=ASL$LIST_ALL_DEVICES File=ASL$LIST_DEVICES.:E05TSI            TUE 07/29/97 10:07 Page:37
         4 000070   000117 710000 4                  TRA     s:19783
         4 000071   000040 116007                    CMPQ    32,DL
         4 000072   000077 602000 4                  TNC     s:19772+27
         4 000073   000154 600000 4                  TZE     s:19795
         4 000074   000125 116007                    CMPQ    85,DL
         4 000075   000340 601000 4                  TNZ     s:19858
         4 000076   000225 710000 4                  TRA     s:19815
         4 000077   000005 116007                    CMPQ    5,DL
         4 000100   000105 602000 4                  TNC     s:19772+33
         4 000101   000225 600000 4                  TZE     s:19815
         4 000102   000022 116007                    CMPQ    18,DL
         4 000103   000340 601000 4                  TNZ     s:19858
         4 000104   000110 710000 4                  TRA     s:19776
         4 000105   000001 116007                    CMPQ    1,DL
         4 000106   000340 601000 4                  TNZ     s:19858
         4 000107   000336 710000 4                  TRA     s:19854

      198    19773
      199    19774    3         SELECT ( %LIST_ALL_VAL );

      200    19775
      201    19776    3         DISP = %NO#;

  19776  4 000110   200035 450100                    STZ     DISP,,AUTO

      202    19777    3         OPTION_CODE = %ALL ;

  19777  4 000111   000010 235007                    LDA     8,DL
         4 000112   200070 755100                    STA     OPTION_CODE,,AUTO

      203    19778    3         CHECK = %NO#;

  19778  4 000113   200016 450100                    STZ     CHECK,,AUTO

      204    19779    3         DEV_TYPE = %AS_CG_DEV#;

  19779  4 000114   000013 235007                    LDA     11,DL
PL6.E3A0      #001=ASL$LIST_ALL_DEVICES File=ASL$LIST_DEVICES.:E05TSI            TUE 07/29/97 10:07 Page:38
         4 000115   200034 755100                    STA     DEV_TYPE,,AUTO
         4 000116   000340 710000 4                  TRA     s:19858

      205    19780
      206    19781    3         SELECT ( %DISPLAY_ALL_VAL );

      207    19782
      208    19783    3         DISP = %YES#;

  19783  4 000117   400000 236003                    LDQ     -131072,DU
         4 000120   200035 756100                    STQ     DISP,,AUTO

      209    19784    3         OPTION_CODE = %ALL ;

  19784  4 000121   000010 235007                    LDA     8,DL
         4 000122   200070 755100                    STA     OPTION_CODE,,AUTO

      210    19785    3         CHECK = %NO#;

  19785  4 000123   200016 450100                    STZ     CHECK,,AUTO

      211    19786    3         DEV_TYPE = %AS_CG_DEV#;

  19786  4 000124   000013 235007                    LDA     11,DL
         4 000125   200034 755100                    STA     DEV_TYPE,,AUTO

      212    19787    3         IF P_PCB.OUT$->P$B.SUBLK$(I)->P$B.NSUBLKS > 0 THEN

  19787  4 000126   000003 471510                    LDP1    3,X0,PR0
         4 000127   100001 221100                    LDX1    1,,PR1
         4 000130   000340 600000 4                  TZE     s:19858

      213    19788    4         DO K = 0 TO P_PCB.OUT$->P$B.SUBLK$(I)->P$B.NSUBLKS - 1;

  19788  4 000131   200047 450100                    STZ     K,,AUTO
         4 000132   000146 710000 4                  TRA     s:19791+1

PL6.E3A0      #001=ASL$LIST_ALL_DEVICES File=ASL$LIST_DEVICES.:E05TSI            TUE 07/29/97 10:07 Page:39
      214    19789    4            IF P_PCB.OUT$->P$B.SUBLK$(I)->P$B.SUBLK$(K)->P$B.CODE = %JCL_VAL THEN

  19789  4 000133   000003 470400 xsym               LDP0    P_PCB+3
         4 000134   200045 720100                    LXL0    I,,AUTO
         4 000135   000003 471510                    LDP1    3,X0,PR0
         4 000136   200047 721100                    LXL1    K,,AUTO
         4 000137   100003 473511                    LDP3    3,X1,PR1
         4 000140   300000 722100                    LXL2    0,,PR3
         4 000141   000001 102003                    CMPX2   1,DU
         4 000142   000145 601000 4                  TNZ     s:19791

      215    19790    4               JCL = %YES#;

  19790  4 000143   400000 236003                    LDQ     -131072,DU
         4 000144   200046 756100                    STQ     JCL,,AUTO

      216    19791    4            END;

  19791  4 000145   200047 054100                    AOS     K,,AUTO
         4 000146   000003 471510                    LDP1    3,X0,PR0
         4 000147   100001 236100                    LDQ     1,,PR1
         4 000150   000022 772000                    QRL     18
         4 000151   200047 116100                    CMPQ    K,,AUTO
         4 000152   000133 605400 4                  TPNZ    s:19789
         4 000153   000340 710000 4                  TRA     s:19858

      217    19792
      218    19793    3         SELECT (%DISPLAY_TPDEV_VAL, %LIST_TPDEV_VAL);

      219    19794
      220    19795    3         DISP = (CODE = %DISPLAY_TPDEV_VAL);

  19795  4 000154   400000 221003                    LDX1    -131072,DU
         4 000155   000140 116007                    CMPQ    96,DL
         4 000156   000160 600000 4                  TZE     s:19795+4
         4 000157   000000 221003                    LDX1    0,DU
         4 000160   000000 636011                    EAQ     0,X1
PL6.E3A0      #001=ASL$LIST_ALL_DEVICES File=ASL$LIST_DEVICES.:E05TSI            TUE 07/29/97 10:07 Page:40
         4 000161   200035 756100                    STQ     DISP,,AUTO

      221    19796    3         DEV_TYPE = AS_TP_DEV#;

  19796  4 000162   000007 235007                    LDA     7,DL
         4 000163   200034 755100                    STA     DEV_TYPE,,AUTO

      222    19797    3         CHECK = %YES#;

  19797  4 000164   400000 236003                    LDQ     -131072,DU
         4 000165   200016 756100                    STQ     CHECK,,AUTO

      223    19798    3         TPDEV_SPECIFIED = %YES#;

  19798  4 000166   200110 756100                    STQ     TPDEV_SPECIFIED,,AUTO
         4 000167   000340 710000 4                  TRA     s:19858

      224    19799
      225    19800    3         SELECT (%TPDEV_ACCT_WILD_VAL);

      226    19801
      227    19802    3         BLK$ = P_PCB.OUT$->P$B.SUBLK$(I);

  19802  4 000170   000003 236110                    LDQ     3,X0,PR0
         4 000171   200015 756100                    STQ     BLK$,,AUTO

      228    19803    3         TPDEV.COUNT = OUT$SYM.COUNT;

  19803  4 000172   200015 471500                    LDP1    BLK$,,AUTO
         4 000173   100004 236100                    LDQ     4,,PR1
         4 000174   200077 552140                    STBQ    TPDEV,'40'O,AUTO

      229    19804    3         TPDEV.ACCT = OUT$SYM.TEXT;

  19804  4 000175   100004 236100                    LDQ     4,,PR1
         4 000176   000033 772000                    QRL     27
         4 000177   000000 621006                    EAX1    0,QL
PL6.E3A0      #001=ASL$LIST_ALL_DEVICES File=ASL$LIST_DEVICES.:E05TSI            TUE 07/29/97 10:07 Page:41
         4 000200   040100 100540                    MLR     fill='040'O
         4 000201   100004 200011                    ADSC9   4,,PR1                   cn=1,n=*X1
         4 000202   200077 200010                    ADSC9   TPDEV,,AUTO              cn=1,n=8
         4 000203   000340 710000 4                  TRA     s:19858

      230    19805
      231    19806    3         SELECT (%TPDEV_NAME_WILD_VAL);

      232    19807
      233    19808    3         BLK$ = P_PCB.OUT$->P$B.SUBLK$(I);

  19808  4 000204   000003 236110                    LDQ     3,X0,PR0
         4 000205   200015 756100                    STQ     BLK$,,AUTO

      234    19809    3         TPDEV.COUNT = OUT$SYM.COUNT + 8;

  19809  4 000206   200015 471500                    LDP1    BLK$,,AUTO
         4 000207   100004 236100                    LDQ     4,,PR1
         4 000210   000033 772000                    QRL     27
         4 000211   000010 036007                    ADLQ    8,DL
         4 000212   000033 736000                    QLS     27
         4 000213   200077 552140                    STBQ    TPDEV,'40'O,AUTO

      235    19810    3         TPDEV.NAME = OUT$SYM.TEXT;

  19810  4 000214   100004 236100                    LDQ     4,,PR1
         4 000215   000033 772000                    QRL     27
         4 000216   000000 621006                    EAX1    0,QL
         4 000217   040100 100540                    MLR     fill='040'O
         4 000220   100004 200011                    ADSC9   4,,PR1                   cn=1,n=*X1
         4 000221   200101 200014                    ADSC9   TPDEV+2,,AUTO            cn=1,n=12

      236    19811    3         TPDEV_NAME_SPECIFIED = %YES#;

  19811  4 000222   400000 236003                    LDQ     -131072,DU
         4 000223   200106 756100                    STQ     TPDEV_NAME_SPECIFIED,,AUTO
         4 000224   000340 710000 4                  TRA     s:19858
PL6.E3A0      #001=ASL$LIST_ALL_DEVICES File=ASL$LIST_DEVICES.:E05TSI            TUE 07/29/97 10:07 Page:42

      237    19812
      238    19813    3         SELECT (%DISPLAY_DEVICE_VAL, %LIST_DEVICE_VAL);

      239    19814
      240    19815    3         DISP = (CODE = %DISPLAY_DEVICE_VAL);

  19815  4 000225   400000 221003                    LDX1    -131072,DU
         4 000226   000125 116007                    CMPQ    85,DL
         4 000227   000231 600000 4                  TZE     s:19815+4
         4 000230   000000 221003                    LDX1    0,DU
         4 000231   000000 636011                    EAQ     0,X1
         4 000232   200035 756100                    STQ     DISP,,AUTO

      241    19816    3         DEV_TYPE = %AS_CG_DEV#;

  19816  4 000233   000013 235007                    LDA     11,DL
         4 000234   200034 755100                    STA     DEV_TYPE,,AUTO

      242    19817    3         CHECK = %NO#;

  19817  4 000235   200016 450100                    STZ     CHECK,,AUTO

      243    19818
      244    19819    4         IF P_PCB.OUT$->P$B.SUBLK$(I)->P$B.NSUBLKS > 0 THEN DO;

  19819  4 000236   000003 471510                    LDP1    3,X0,PR0
         4 000237   100001 221100                    LDX1    1,,PR1
         4 000240   000340 600000 4                  TZE     s:19858

      245    19820    4            DEV_TYPE = P_PCB.OUT$->P$B.SUBLK$(I)->P$B.SUBLK$(0)->P$B.CODE;

  19820  4 000241   100003 473500                    LDP3    3,,PR1
         4 000242   300000 236100                    LDQ     0,,PR3
         4 000243   777777 376007                    ANQ     -1,DL
         4 000244   200034 756100                    STQ     DEV_TYPE,,AUTO

PL6.E3A0      #001=ASL$LIST_ALL_DEVICES File=ASL$LIST_DEVICES.:E05TSI            TUE 07/29/97 10:07 Page:43
      246    19821    4            CHECK = %YES#;

  19821  4 000245   400000 236003                    LDQ     -131072,DU
         4 000246   200016 756100                    STQ     CHECK,,AUTO

      247    19822    4            END; /*  Nsublks > 0  */

  19822  4 000247   000340 710000 4                  TRA     s:19858

      248    19823
      249    19824    3         SELECT (%DEVICE_NAME_WILD_VAL);

      250    19825
      251    19826    3         BLK$ = P_PCB.OUT$->P$B.SUBLK$(I);

  19826  4 000250   000003 236110                    LDQ     3,X0,PR0
         4 000251   200015 756100                    STQ     BLK$,,AUTO

      252    19827    3         DEV_NAME.COUNT = OUT$SYM.COUNT;

  19827  4 000252   200015 471500                    LDP1    BLK$,,AUTO
         4 000253   100004 236100                    LDQ     4,,PR1
         4 000254   200021 552140                    STBQ    DEV_NAME,'40'O,AUTO

      253    19828    3         DEV_NAME.TEXT = OUT$SYM.TEXT;

  19828  4 000255   100004 236100                    LDQ     4,,PR1
         4 000256   000033 772000                    QRL     27
         4 000257   000000 621006                    EAX1    0,QL
         4 000260   040100 100540                    MLR     fill='040'O
         4 000261   100004 200011                    ADSC9   4,,PR1                   cn=1,n=*X1
         4 000262   200021 200010                    ADSC9   DEV_NAME,,AUTO           cn=1,n=8
         4 000263   000340 710000 4                  TRA     s:19858

      254    19829
      255    19830    3         SELECT (%STATION_NAME_WILD_VAL);

PL6.E3A0      #001=ASL$LIST_ALL_DEVICES File=ASL$LIST_DEVICES.:E05TSI            TUE 07/29/97 10:07 Page:44
      256    19831
      257    19832    3         BLK$ = P_PCB.OUT$->P$B.SUBLK$(I);

  19832  4 000264   000003 236110                    LDQ     3,X0,PR0
         4 000265   200015 756100                    STQ     BLK$,,AUTO

      258    19833    3         STATION_NAME.COUNT = OUT$SYM.COUNT;

  19833  4 000266   200015 471500                    LDP1    BLK$,,AUTO
         4 000267   100004 236100                    LDQ     4,,PR1
         4 000270   200071 552140                    STBQ    STATION_NAME,'40'O,AUTO

      259    19834    3         STATION_NAME.TEXT = OUT$SYM.TEXT;

  19834  4 000271   100004 236100                    LDQ     4,,PR1
         4 000272   000033 772000                    QRL     27
         4 000273   000000 621006                    EAX1    0,QL
         4 000274   040100 100540                    MLR     fill='040'O
         4 000275   100004 200011                    ADSC9   4,,PR1                   cn=1,n=*X1
         4 000276   200071 200010                    ADSC9   STATION_NAME,,AUTO       cn=1,n=8

      260    19835    3         OPTION_CODE = %STATION;

  19835  4 000277   000006 235007                    LDA     6,DL
         4 000300   200070 755100                    STA     OPTION_CODE,,AUTO

      261    19836    3         CALL INDEX (K, '?', STATION_NAME.TEXT)

  19836  4 000301   000000 124500                    SCM     mask='000'O
         4 000302   200071 200010                    ADSC9   STATION_NAME,,AUTO       cn=1,n=8
         4 000303   000000 000001 5                  ADSC9   0                        cn=0,n=1
         4 000304   200047 000100                    ARG     K,,AUTO
         4 000305   000310 606400 4                  TTN     s:19839

      262    19837    4         WHENRETURN DO;

      263    19838    4            OPTION_CODE = %STATION_WILD;
PL6.E3A0      #001=ASL$LIST_ALL_DEVICES File=ASL$LIST_DEVICES.:E05TSI            TUE 07/29/97 10:07 Page:45

  19838  4 000306   000007 236007                    LDQ     7,DL
         4 000307   200070 756100                    STQ     OPTION_CODE,,AUTO

      264    19839    4            END; /*  Whenreturn  */

  19839  4 000310   000340 710000 4                  TRA     s:19858

      265    19840
      266    19841    3         SELECT (%TERMINAL_NAME_WILD_VAL);

      267    19842
      268    19843    3         BLK$ = P_PCB.OUT$->P$B.SUBLK$(I);

  19843  4 000311   000003 236110                    LDQ     3,X0,PR0
         4 000312   200015 756100                    STQ     BLK$,,AUTO

      269    19844    3         TERMINAL_NAME.COUNT = OUT$SYM.COUNT;

  19844  4 000313   200015 471500                    LDP1    BLK$,,AUTO
         4 000314   100004 236100                    LDQ     4,,PR1
         4 000315   200074 552140                    STBQ    TERMINAL_NAME,'40'O,AUTO

      270    19845    3         TERMINAL_NAME.TEXT = OUT$SYM.TEXT;

  19845  4 000316   100004 236100                    LDQ     4,,PR1
         4 000317   000033 772000                    QRL     27
         4 000320   000000 621006                    EAX1    0,QL
         4 000321   040100 100540                    MLR     fill='040'O
         4 000322   100004 200011                    ADSC9   4,,PR1                   cn=1,n=*X1
         4 000323   200074 200010                    ADSC9   TERMINAL_NAME,,AUTO      cn=1,n=8

      271    19846    3         OPTION_CODE = %TERMINAL;

  19846  4 000324   000004 235007                    LDA     4,DL
         4 000325   200070 755100                    STA     OPTION_CODE,,AUTO

PL6.E3A0      #001=ASL$LIST_ALL_DEVICES File=ASL$LIST_DEVICES.:E05TSI            TUE 07/29/97 10:07 Page:46
      272    19847    3         CALL INDEX (K, '?', TERMINAL_NAME.TEXT)

  19847  4 000326   000000 124500                    SCM     mask='000'O
         4 000327   200074 200010                    ADSC9   TERMINAL_NAME,,AUTO      cn=1,n=8
         4 000330   000000 000001 5                  ADSC9   0                        cn=0,n=1
         4 000331   200047 000100                    ARG     K,,AUTO
         4 000332   000335 606400 4                  TTN     s:19850

      273    19848    4         WHENRETURN DO;

      274    19849    4            OPTION_CODE = %TERMINAL_WILD;

  19849  4 000333   000005 236007                    LDQ     5,DL
         4 000334   200070 756100                    STQ     OPTION_CODE,,AUTO

      275    19850    4            END; /*  Whenreturn  */

  19850  4 000335   000340 710000 4                  TRA     s:19858

      276    19851
      277    19852    3         SELECT (%JCL_VAL);

      278    19853
      279    19854    3         JCL = %YES#;

  19854  4 000336   400000 236003                    LDQ     -131072,DU
         4 000337   200046 756100                    STQ     JCL,,AUTO

      280    19855
      281    19856    3         END;  /*  Do select on code  */

      282    19857
      283    19858    2      END;  /*  Do i  */

  19858  4 000340   200045 054100                    AOS     I,,AUTO
         4 000341   000003 470400 xsym               LDP0    P_PCB+3
         4 000342   000001 236100                    LDQ     1,,PR0
PL6.E3A0      #001=ASL$LIST_ALL_DEVICES File=ASL$LIST_DEVICES.:E05TSI            TUE 07/29/97 10:07 Page:47
         4 000343   000022 772000                    QRL     18
         4 000344   200045 116100                    CMPQ    I,,AUTO
         4 000345   000036 605400 4                  TPNZ    s:19770

      284    19859
      285    19860    1   FDS.NVECS# = 0;

  19860  4 000346   000011 450000 xsym               STZ     FDS+9

      286    19861    2   IF JCL THEN DO;

  19861  4 000347   200046 234100                    SZN     JCL,,AUTO
         4 000350   000366 605000 4                  TPL     s:19866

      287    19862    2      CALL CONCAT (FMT_BUF, '%1/"', DEVICES_STR, '%1/');

  19862  4 000351   000011 236000 3                  LDQ     LIST_STR+2
         4 000352   000000 756000 xsym               STQ     FMT_BUF
         4 000353   040000 100400                    MLR     fill='040'O
         4 000354   000002 000007 3                  ADSC9   DEVICES_STR              cn=0,n=7
         4 000355   000001 000007 xsym               ADSC9   FMT_BUF+1                cn=0,n=7
         4 000356   040000 100400                    MLR     fill='040'O
         4 000357   000011 000003 3                  ADSC9   LIST_STR+2               cn=0,n=3
         4 000360   000002 600364 xsym               ADSC9   FMT_BUF+2                cn=3,n=244

      288    19863    2      FDS.FMT_.BOUND = LENGTHC (DEVICES_STR) + 6;

  19863  4 000361   000000 236000 xsym               LDQ     FDS
         4 000362   177777 376007                    ANQ     65535,DL
         4 000363   000001 276000 5                  ORQ     1
         4 000364   000000 756000 xsym               STQ     FDS

      289    19864    2      END;   /*  Jcl  */

  19864  4 000365   000404 710000 4                  TRA     s:19869

      290    19865    2   ELSE DO;
PL6.E3A0      #001=ASL$LIST_ALL_DEVICES File=ASL$LIST_DEVICES.:E05TSI            TUE 07/29/97 10:07 Page:48

      291    19866    2      CALL CONCAT (FMT_BUF, '%1/', DEVICES_STR, '%1/');

  19866  4 000366   000011 236000 3                  LDQ     LIST_STR+2
         4 000367   000002 376000 5                  ANQ     2
         4 000370   000040 276007                    ORQ     32,DL
         4 000371   000000 756000 xsym               STQ     FMT_BUF
         4 000372   040000 100400                    MLR     fill='040'O
         4 000373   000002 000007 3                  ADSC9   DEVICES_STR              cn=0,n=7
         4 000374   000000 600007 xsym               ADSC9   FMT_BUF                  cn=3,n=7
         4 000375   040000 100400                    MLR     fill='040'O
         4 000376   000011 000003 3                  ADSC9   LIST_STR+2               cn=0,n=3
         4 000377   000002 400365 xsym               ADSC9   FMT_BUF+2                cn=2,n=245

      292    19867    2      FDS.FMT_.BOUND = LENGTHC (DEVICES_STR) + 5;

  19867  4 000400   000000 236000 xsym               LDQ     FDS
         4 000401   177777 376007                    ANQ     65535,DL
         4 000402   000003 276003                    ORQ     3,DU
         4 000403   000000 756000 xsym               STQ     FDS

      293    19868    2      END;  /*  Not jcl  */

      294    19869    1   FDS.TABDFLT# = 10;

  19869  4 000404   000012 235007                    LDA     10,DL
         4 000405   000017 755000 xsym               STA     FDS+15

      295    19870    1   CALL X$FORMAT (FDS);

  19870  4 000406   000003 630400 5                  EPPR0   3
         4 000407   000017 631400 xsym               EPPR1   B_VECTNIL+15
         4 000410   000000 701000 xent               TSX1    X$FORMAT
         4 000411   000000 011000                    NOP     0

      296    19871
      297    19872    1   IF OPTION_CODE = %SINGLE_DEVICE THEN
PL6.E3A0      #001=ASL$LIST_ALL_DEVICES File=ASL$LIST_DEVICES.:E05TSI            TUE 07/29/97 10:07 Page:49

  19872  4 000412   200070 235100                    LDA     OPTION_CODE,,AUTO
         4 000413   000467 601000 4                  TNZ     s:19904

      298    19873    2      IF TPDEV_SPECIFIED THEN DO;

  19873  4 000414   200110 234100                    SZN     TPDEV_SPECIFIED,,AUTO
         4 000415   000455 605000 4                  TPL     s:19896

      299    19874    3         IF TPDEV_NAME_SPECIFIED THEN DO;

  19874  4 000416   200106 234100                    SZN     TPDEV_NAME_SPECIFIED,,AUTO
         4 000417   000447 605000 4                  TPL     s:19890

      300    19875    3            OPTION_CODE = %SINGLE_TPDEVICE;

  19875  4 000420   000001 236007                    LDQ     1,DL
         4 000421   200070 756100                    STQ     OPTION_CODE,,AUTO

      301    19876    3            TPDEV_ACCT_WILD = %NO#;

  19876  4 000422   200105 450100                    STZ     TPDEV_ACCT_WILD,,AUTO

      302    19877    3            CALL INDEX (I, '?', TPDEV.ACCT)

  19877  4 000423   000000 124500                    SCM     mask='000'O
         4 000424   200077 200010                    ADSC9   TPDEV,,AUTO              cn=1,n=8
         4 000425   000000 000001 5                  ADSC9   0                        cn=0,n=1
         4 000426   200045 000100                    ARG     I,,AUTO
         4 000427   000434 606400 4                  TTN     s:19882

      303    19878    4            WHENRETURN DO;

      304    19879    4               TPDEV_ACCT_WILD = %YES#;

  19879  4 000430   400000 236003                    LDQ     -131072,DU
         4 000431   200105 756100                    STQ     TPDEV_ACCT_WILD,,AUTO
PL6.E3A0      #001=ASL$LIST_ALL_DEVICES File=ASL$LIST_DEVICES.:E05TSI            TUE 07/29/97 10:07 Page:50

      305    19880    4               OPTION_CODE = %TPDEV_WILD;

  19880  4 000432   000003 235007                    LDA     3,DL
         4 000433   200070 755100                    STA     OPTION_CODE,,AUTO

      306    19881    4               END; /*  Whenreturn  */

      307    19882    3            TPDEV_NAME_WILD = %NO#;

  19882  4 000434   200107 450100                    STZ     TPDEV_NAME_WILD,,AUTO

      308    19883    3            CALL INDEX (I, '?', TPDEV.NAME)

  19883  4 000435   000000 124500                    SCM     mask='000'O
         4 000436   200101 200014                    ADSC9   TPDEV+2,,AUTO            cn=1,n=12
         4 000437   000000 000001 5                  ADSC9   0                        cn=0,n=1
         4 000440   200045 000100                    ARG     I,,AUTO
         4 000441   000446 606400 4                  TTN     s:19888

      309    19884    4            WHENRETURN DO;

      310    19885    4               TPDEV_NAME_WILD = %YES#;

  19885  4 000442   400000 236003                    LDQ     -131072,DU
         4 000443   200107 756100                    STQ     TPDEV_NAME_WILD,,AUTO

      311    19886    4               OPTION_CODE = %TPDEV_WILD;

  19886  4 000444   000003 235007                    LDA     3,DL
         4 000445   200070 755100                    STA     OPTION_CODE,,AUTO

      312    19887    4               END; /*  Whenreturn  */

      313    19888    3            END; /* TPDEV_NAME specified  */

  19888  4 000446   000467 710000 4                  TRA     s:19904
PL6.E3A0      #001=ASL$LIST_ALL_DEVICES File=ASL$LIST_DEVICES.:E05TSI            TUE 07/29/97 10:07 Page:51

      314    19889    3         ELSE DO;

      315    19890    3            TPDEV_ACCT_WILD = %YES#;

  19890  4 000447   400000 236003                    LDQ     -131072,DU
         4 000450   200105 756100                    STQ     TPDEV_ACCT_WILD,,AUTO

      316    19891    3            TPDEV_NAME_WILD = %YES#;

  19891  4 000451   200107 756100                    STQ     TPDEV_NAME_WILD,,AUTO

      317    19892    3            OPTION_CODE = %TPDEV_WILD;

  19892  4 000452   000003 235007                    LDA     3,DL
         4 000453   200070 755100                    STA     OPTION_CODE,,AUTO

      318    19893    3            END; /*  Else  */

      319    19894    2         END;  /*  Tpdev specified  */

  19894  4 000454   000467 710000 4                  TRA     s:19904

      320    19895    2      ELSE DO;

      321    19896    2         DEVICE_NAME_WILD = %NO#;

  19896  4 000455   200020 450100                    STZ     DEVICE_NAME_WILD,,AUTO

      322    19897    2         CALL INDEX (I, '?', DEV_NAME.TEXT)

  19897  4 000456   000000 124500                    SCM     mask='000'O
         4 000457   200021 200010                    ADSC9   DEV_NAME,,AUTO           cn=1,n=8
         4 000460   000000 000001 5                  ADSC9   0                        cn=0,n=1
         4 000461   200045 000100                    ARG     I,,AUTO
         4 000462   000467 606400 4                  TTN     s:19904

PL6.E3A0      #001=ASL$LIST_ALL_DEVICES File=ASL$LIST_DEVICES.:E05TSI            TUE 07/29/97 10:07 Page:52
      323    19898    3         WHENRETURN DO;

      324    19899    3            DEVICE_NAME_WILD = %YES#;

  19899  4 000463   400000 236003                    LDQ     -131072,DU
         4 000464   200020 756100                    STQ     DEVICE_NAME_WILD,,AUTO

      325    19900    3            OPTION_CODE = %DEV_WILD;

  19900  4 000465   000002 235007                    LDA     2,DL
         4 000466   200070 755100                    STA     OPTION_CODE,,AUTO

      326    19901    3            END; /*  Whenreturn  */

      327    19902    2         END;  /*  Tpdev not specified  */

      328    19903
      329    19904    1   IF OPTION_CODE = %DEV_WILD THEN

  19904  4 000467   200070 235100                    LDA     OPTION_CODE,,AUTO
         4 000470   000002 115007                    CMPA    2,DL
         4 000471   000502 601000 4                  TNZ     s:19908

      330    19905    1      IF DEV_NAME.TEXT = '?' THEN

  19905  4 000472   040000 106500                    CMPC    fill='040'O
         4 000473   200021 200010                    ADSC9   DEV_NAME,,AUTO           cn=1,n=8
         4 000474   000000 000001 5                  ADSC9   0                        cn=0,n=1
         4 000475   000501 601000 4                  TNZ     s:19907

      331    19906    1         OPTION_CODE = %ALL;

  19906  4 000476   000010 236007                    LDQ     8,DL
         4 000477   200070 756100                    STQ     OPTION_CODE,,AUTO
         4 000500   000516 710000 4                  TRA     s:19912

      332    19907    2      ELSE DO; END;
PL6.E3A0      #001=ASL$LIST_ALL_DEVICES File=ASL$LIST_DEVICES.:E05TSI            TUE 07/29/97 10:07 Page:53

  19907  4 000501   000516 710000 4                  TRA     s:19912

      333    19908    1   ELSE IF OPTION_CODE = %TPDEV_WILD THEN

  19908  4 000502   000003 115007                    CMPA    3,DL
         4 000503   000516 601000 4                  TNZ     s:19912

      334    19909    1         IF TPDEV.ACCT = '?' AND TPDEV.NAME = '?' THEN

  19909  4 000504   040000 106500                    CMPC    fill='040'O
         4 000505   200077 200010                    ADSC9   TPDEV,,AUTO              cn=1,n=8
         4 000506   000000 000001 5                  ADSC9   0                        cn=0,n=1
         4 000507   000516 601000 4                  TNZ     s:19912
         4 000510   040000 106500                    CMPC    fill='040'O
         4 000511   200101 200014                    ADSC9   TPDEV+2,,AUTO            cn=1,n=12
         4 000512   000000 000001 5                  ADSC9   0                        cn=0,n=1
         4 000513   000516 601000 4                  TNZ     s:19912

      335    19910    1            OPTION_CODE = %ALL;

  19910  4 000514   000010 236007                    LDQ     8,DL
         4 000515   200070 756100                    STQ     OPTION_CODE,,AUTO

      336    19911
      337    19912    2   DO SELECT  (OPTION_CODE);

  19912  4 000516   200070 236100                    LDQ     OPTION_CODE,,AUTO
         4 000517   000005 116007                    CMPQ    5,DL
         4 000520   000533 602000 4                  TNC     s:19912+13
         4 000521   001406 600000 4                  TZE     s:20033
         4 000522   000007 116007                    CMPQ    7,DL
         4 000523   000530 602000 4                  TNC     s:19912+10
         4 000524   000674 600000 4                  TZE     s:19947
         4 000525   000010 116007                    CMPQ    8,DL
         4 000526   003323 601000 4                  TNZ     s:20325
         4 000527   000552 710000 4                  TRA     s:19916
PL6.E3A0      #001=ASL$LIST_ALL_DEVICES File=ASL$LIST_DEVICES.:E05TSI            TUE 07/29/97 10:07 Page:54
         4 000530   000006 116007                    CMPQ    6,DL
         4 000531   003323 601000 4                  TNZ     s:20325
         4 000532   001145 710000 4                  TRA     s:19990
         4 000533   000003 116007                    CMPQ    3,DL
         4 000534   000541 602000 4                  TNC     s:19912+19
         4 000535   002244 600000 4                  TZE     s:20157
         4 000536   000004 116007                    CMPQ    4,DL
         4 000537   003323 601000 4                  TNZ     s:20325
         4 000540   001743 710000 4                  TRA     s:20109
         4 000541   000001 116007                    CMPQ    1,DL
         4 000542   000547 602000 4                  TNC     s:19912+25
         4 000543   002625 600000 4                  TZE     s:20221
         4 000544   000002 116007                    CMPQ    2,DL
         4 000545   003323 601000 4                  TNZ     s:20325
         4 000546   002752 710000 4                  TRA     s:20260
         4 000547   000000 116003                    CMPQ    0,DU
         4 000550   003220 600000 4                  TZE     s:20307
         4 000551   003323 710000 4                  TRA     s:20325

      338    19913
      339    19914    2      SELECT  (%ALL); /*  List/display all devices  */

      340    19915
      341    19916    2      CALL ASB$BOF_HLP;

  19916  4 000552   000002 631400 xsym               EPPR1   B_VECTNIL+2
         4 000553   000000 701000 xent               TSX1    ASB$BOF_HLP
         4 000554   000000 011000                    NOP     0

      342    19917    3      DO FOREVER;

      343    19918    3   NEXT: ARS = DSEG3SIZE;

  19918  4 000555   000000 235000 xsym  NEXT         LDA     DSEG3SIZE
         4 000556   200006 755100                    STA     ARS,,AUTO

      344    19919    3         CALL ASB$READ_HLP_SEQ( DSEG3$, ARS, 3 )
PL6.E3A0      #001=ASL$LIST_ALL_DEVICES File=ASL$LIST_DEVICES.:E05TSI            TUE 07/29/97 10:07 Page:55

  19919  4 000557   000004 236000 5                  LDQ     4
         4 000560   200116 756100                    STQ     TWSN_NUMBER+4,,AUTO
         4 000561   200006 630500                    EPPR0   ARS,,AUTO
         4 000562   200115 450500                    STP0    TWSN_NUMBER+3,,AUTO
         4 000563   000005 236000 5                  LDQ     5
         4 000564   200114 756100                    STQ     TWSN_NUMBER+2,,AUTO
         4 000565   200114 630500                    EPPR0   TWSN_NUMBER+2,,AUTO
         4 000566   000021 631400 xsym               EPPR1   B_VECTNIL+17
         4 000567   000000 701000 xent               TSX1    ASB$READ_HLP_SEQ
         4 000570   000662 702000 4                  TSX2    s:19939

      345    19920    4         WHENRETURN DO;

      346    19921    4            CALL ASB$CHECK_TYPE( DSEG3$, ARS, DEV_TYPE ) ALTRET(NEXT);

  19921  4 000571   200034 630500                    EPPR0   DEV_TYPE,,AUTO
         4 000572   200116 450500                    STP0    TWSN_NUMBER+4,,AUTO
         4 000573   200006 631500                    EPPR1   ARS,,AUTO
         4 000574   200115 451500                    STP1    TWSN_NUMBER+3,,AUTO
         4 000575   000005 236000 5                  LDQ     5
         4 000576   200114 756100                    STQ     TWSN_NUMBER+2,,AUTO
         4 000577   200114 630500                    EPPR0   TWSN_NUMBER+2,,AUTO
         4 000600   000021 631400 xsym               EPPR1   B_VECTNIL+17
         4 000601   000000 701000 xent               TSX1    ASB$CHECK_TYPE
         4 000602   000555 702000 4                  TSX2    NEXT

      347    19922    4            DEV_NAME = USERS_KEY;

  19922  4 000603   000100 100400                    MLR     fill='000'O
         4 000604   000000 000052 xsym               ADSC9   USERS_KEY                cn=0,n=42
         4 000605   200021 000052                    ADSC9   DEV_NAME,,AUTO           cn=0,n=42

      348    19923    5            IF NOT CHECK OR DSEG3$->KL$DREC.SUPER = DEV_TYPE THEN DO;

  19923  4 000606   200016 234100                    SZN     CHECK,,AUTO
         4 000607   000615 605000 4                  TPL     s:19924
PL6.E3A0      #001=ASL$LIST_ALL_DEVICES File=ASL$LIST_DEVICES.:E05TSI            TUE 07/29/97 10:07 Page:56
         4 000610   000000 470400 xsym               LDP0    DSEG3$
         4 000611   000000 236100                    LDQ     0,,PR0
         4 000612   000777 376007                    ANQ     511,DL
         4 000613   200034 116100                    CMPQ    DEV_TYPE,,AUTO
         4 000614   000647 601000 4                  TNZ     s:19933

      349    19924    6               IF DISP THEN DO;

  19924  4 000615   200035 234100                    SZN     DISP,,AUTO
         4 000616   000634 605000 4                  TPL     s:19929

      350    19925    6                  CALL ASL$DISP_ONE_DEVICE (JCL, %NO# );

  19925  4 000617   000006 236000 5                  LDQ     6
         4 000620   200115 756100                    STQ     TWSN_NUMBER+3,,AUTO
         4 000621   200046 630500                    EPPR0   JCL,,AUTO
         4 000622   200114 450500                    STP0    TWSN_NUMBER+2,,AUTO
         4 000623   200114 630500                    EPPR0   TWSN_NUMBER+2,,AUTO
         4 000624   000020 631400 xsym               EPPR1   B_VECTNIL+16
         4 000625   000000 701000 xent               TSX1    ASL$DISP_ONE_DEVICE
         4 000626   000000 011000                    NOP     0

      351    19926    6                  CALL ASB$WRITE_LO  (' ',1);

  19926  4 000627   000007 630400 5                  EPPR0   7
         4 000630   000020 631400 xsym               EPPR1   B_VECTNIL+16
         4 000631   000000 701000 xent               TSX1    ASB$WRITE_LO
         4 000632   000000 011000                    NOP     0

      352    19927    6                  END;   /*  Disp  */

  19927  4 000633   000644 710000 4                  TRA     s:19931

      353    19928    6               ELSE DO; /*  list out the device name  */

      354    19929    6                  CALL ASL$FORMAT_DEVNAME (USERS_KEY, DISP_DEVICES);

PL6.E3A0      #001=ASL$LIST_ALL_DEVICES File=ASL$LIST_DEVICES.:E05TSI            TUE 07/29/97 10:07 Page:57
  19929  4 000634   200036 630500                    EPPR0   DISP_DEVICES,,AUTO
         4 000635   200115 450500                    STP0    TWSN_NUMBER+3,,AUTO
         4 000636   000011 236000 5                  LDQ     9
         4 000637   200114 756100                    STQ     TWSN_NUMBER+2,,AUTO
         4 000640   200114 630500                    EPPR0   TWSN_NUMBER+2,,AUTO
         4 000641   000020 631400 xsym               EPPR1   B_VECTNIL+16
         4 000642   000000 701000 xent               TSX1    ASL$FORMAT_DEVNAME
         4 000643   000000 011000                    NOP     0

      355    19930    6                  END; /*  List  */

      356    19931    5               DISP_DEVICES = DISP_DEVICES + 1;

  19931  4 000644   200036 235100                    LDA     DISP_DEVICES,,AUTO
         4 000645   000001 035007                    ADLA    1,DL
         4 000646   200036 755100                    STA     DISP_DEVICES,,AUTO

      357    19932    5               END;  /*  The right type  */

      358    19933    5            IF DEV_NAME ~= USERS_KEY THEN DO;

  19933  4 000647   000000 106500                    CMPC    fill='000'O
         4 000650   200021 000052                    ADSC9   DEV_NAME,,AUTO           cn=0,n=42
         4 000651   000000 000052 xsym               ADSC9   USERS_KEY                cn=0,n=42
         4 000652   000661 600000 4                  TZE     s:19937

      359    19934    5               USERS_KEY = DEV_NAME;

  19934  4 000653   000000 100500                    MLR     fill='000'O
         4 000654   200021 000052                    ADSC9   DEV_NAME,,AUTO           cn=0,n=42
         4 000655   000000 000052 xsym               ADSC9   USERS_KEY                cn=0,n=42

      360    19935    5               CALL ASB$PREC_AND_SKIP_HLP;

  19935  4 000656   000002 631400 xsym               EPPR1   B_VECTNIL+2
         4 000657   000000 701000 xent               TSX1    ASB$PREC_AND_SKIP_HLP
         4 000660   000000 011000                    NOP     0
PL6.E3A0      #001=ASL$LIST_ALL_DEVICES File=ASL$LIST_DEVICES.:E05TSI            TUE 07/29/97 10:07 Page:58

      361    19936    5               END; /*  DEV_NAME ~= USERS_KEY  */

      362    19937    4            END; /*  Whenreturn  */

  19937  4 000661   000673 710000 4                  TRA     s:19943

      363    19938    4         WHENALTRETURN DO;

      364    19939    4            IF MERR_CODE.CODE ~= %E$EOF THEN

  19939  4 000662   000000 236000 xsym               LDQ     ERR_CODE
         4 000663   377770 376007                    ANQ     131064,DL
         4 000664   000060 116007                    CMPQ    48,DL
         4 000665   000672 600000 4                  TZE     s:19941

      365    19940    4               CALL ASA$ERROR( USERS_KEY, E$UNABLE_TO_READ_HLP );

  19940  4 000666   000013 630400 5                  EPPR0   11
         4 000667   000020 631400 xsym               EPPR1   B_VECTNIL+16
         4 000670   000000 701000 xent               TSX1    ASA$ERROR
         4 000671   000000 011000                    NOP     0

      366    19941    4            GOTO FINISH_UP;

  19941  4 000672   003367 710000 4                  TRA     FINISH_UP

      367    19942    4            END; /*  Whenaltreturn  */
      368    19943    3         END; /*  Do forever  */

  19943  4 000673   000555 710000 4                  TRA     NEXT

      369    19944
      370    19945    2      SELECT  (%STATION_WILD);

      371    19946
      372    19947    2      CALL ASB$INIT_GET_STATION;
PL6.E3A0      #001=ASL$LIST_ALL_DEVICES File=ASL$LIST_DEVICES.:E05TSI            TUE 07/29/97 10:07 Page:59

  19947  4 000674   000002 631400 xsym               EPPR1   B_VECTNIL+2
         4 000675   000000 701000 xent               TSX1    ASB$INIT_GET_STATION
         4 000676   000000 011000                    NOP     0

      373    19948    3      DO TWSN_NUMBER = 0 TO KL$WSNCVT.LTWSN ;

  19948  4 000677   200112 450100                    STZ     TWSN_NUMBER,,AUTO
         4 000700   001140 710000 4                  TRA     NEXT_STATION+3

      374    19949    3         CALL INDEX (NAME_LEN, ' ', KL$WSNCVT.WSN(TWSN_NUMBER));

  19949  4 000701   200112 235100                    LDA     TWSN_NUMBER,,AUTO
         4 000702   000003 735000                    ALS     3
         4 000703   000000 470400 xsym               LDP0    DSEG1$
         4 000704   000000 124505                    SCM     mask='000'O
         4 000705   000002 000010                    ADSC9   2,A,PR0                  cn=0,n=8
         4 000706   000035 000001 xsym               ADSC9   B_VECTNIL+29             cn=0,n=1
         4 000707   200067 000100                    ARG     NAME_LEN,,AUTO

      375    19950    3         IF NAME_LEN = 0 THEN NAME_LEN = 1;

  19950  4 000710   200067 236100                    LDQ     NAME_LEN,,AUTO
         4 000711   000714 601000 4                  TNZ     s:19951

  19950  4 000712   000001 235007                    LDA     1,DL
         4 000713   200067 755100                    STA     NAME_LEN,,AUTO

      376    19951    3         MATCH_LEN = STATION_NAME.COUNT;

  19951  4 000714   200071 236100                    LDQ     STATION_NAME,,AUTO
         4 000715   000033 772000                    QRL     27
         4 000716   200063 756100                    STQ     MATCH_LEN,,AUTO

      377    19952    3         CALL ASB$WILD_MATCH (NAME_LEN,KL$WSNCVT.WSN(TWSN_NUMBER),MATCH_LEN,
             19952                  STATION_NAME.TEXT) ALTRET (NEXT_STATION);

PL6.E3A0      #001=ASL$LIST_ALL_DEVICES File=ASL$LIST_DEVICES.:E05TSI            TUE 07/29/97 10:07 Page:60
  19952  4 000717   200120 452500                    STP2    TWSN_NUMBER+6,,AUTO
         4 000720   200120 236100                    LDQ     TWSN_NUMBER+6,,AUTO
         4 000721   000015 036000 5                  ADLQ    13
         4 000722   200117 756100                    STQ     TWSN_NUMBER+5,,AUTO
         4 000723   200063 631500                    EPPR1   MATCH_LEN,,AUTO
         4 000724   200116 451500                    STP1    TWSN_NUMBER+4,,AUTO
         4 000725   200112 236100                    LDQ     TWSN_NUMBER,,AUTO
         4 000726   000023 736000                    QLS     19
         4 000727   000002 036003                    ADLQ    2,DU
         4 000730   000000 036000 xsym               ADLQ    DSEG1$
         4 000731   200115 756100                    STQ     TWSN_NUMBER+3,,AUTO
         4 000732   200067 633500                    EPPR3   NAME_LEN,,AUTO
         4 000733   200114 453500                    STP3    TWSN_NUMBER+2,,AUTO
         4 000734   200114 630500                    EPPR0   TWSN_NUMBER+2,,AUTO
         4 000735   000022 631400 xsym               EPPR1   B_VECTNIL+18
         4 000736   000000 701000 xent               TSX1    ASB$WILD_MATCH
         4 000737   001135 702000 4                  TSX2    NEXT_STATION

      378    19953    3         CALL ASB$GET_NEXT_STATION (TWSN_NUMBER) ALTRET (FINISH_UP);

  19953  4 000740   200112 630500                    EPPR0   TWSN_NUMBER,,AUTO
         4 000741   200114 450500                    STP0    TWSN_NUMBER+2,,AUTO
         4 000742   200114 630500                    EPPR0   TWSN_NUMBER+2,,AUTO
         4 000743   000017 631400 xsym               EPPR1   B_VECTNIL+15
         4 000744   000000 701000 xent               TSX1    ASB$GET_NEXT_STATION
         4 000745   003367 702000 4                  TSX2    FINISH_UP

      379    19954    4         DO I = 0 TO KL$TWSNREC.NDEV - 1;

  19954  4 000746   200045 450100                    STZ     I,,AUTO
         4 000747   001130 710000 4                  TRA     NO_REC_FOR_STATION1+1

      380    19955    5            IF ~KL$TWSNREC.DEVS.IOM_CONNECTED(I) THEN DO;

  19955  4 000750   200045 236100                    LDQ     I,,AUTO
         4 000751   000013 402007                    MPY     11,DL
         4 000752   000000 470400 xsym               LDP0    DSEG2$
PL6.E3A0      #001=ASL$LIST_ALL_DEVICES File=ASL$LIST_DEVICES.:E05TSI            TUE 07/29/97 10:07 Page:61
         4 000753   000006 236106                    LDQ     6,QL,PR0
         4 000754   000036 736000                    QLS     30
         4 000755   400000 376003                    ANQ     -131072,DU
         4 000756   400000 676003                    ERQ     -131072,DU
         4 000757   001127 600000 4                  TZE     NO_REC_FOR_STATION1

      381    19956    6               IF KL$TWSNREC.DEVS.TDEV(I) THEN DO; /*  A tdev  */

  19956  4 000760   200045 236100                    LDQ     I,,AUTO
         4 000761   000013 402007                    MPY     11,DL
         4 000762   000006 236106                    LDQ     6,QL,PR0
         4 000763   000100 316007                    CANQ    64,DL
         4 000764   000772 600000 4                  TZE     s:19961

      382    19957    6                  NAME_LEN = 4;

  19957  4 000765   000004 235007                    LDA     4,DL
         4 000766   200067 755100                    STA     NAME_LEN,,AUTO

      383    19958    6                  USERS_KEY.COUNT = 8;

  19958  4 000767   010000 236003                    LDQ     4096,DU
         4 000770   000000 552040 xsym               STBQ    USERS_KEY,'40'O

      384    19959    6                  END; /*  A tdev  */

  19959  4 000771   001002 710000 4                  TRA     s:19964

      385    19960    6               ELSE DO;          /* Not a tdev         */

      386    19961    6                  CALL INDEX (NAME_LEN, ' ', KL$TWSNREC.DEVS.ACCT(I));

  19961  4 000772   200045 236100                    LDQ     I,,AUTO
         4 000773   000054 402007                    MPY     44,DL
         4 000774   000000 124506                    SCM     mask='000'O
         4 000775   000011 000010                    ADSC9   9,Q,PR0                  cn=0,n=8
         4 000776   000035 000001 xsym               ADSC9   B_VECTNIL+29             cn=0,n=1
PL6.E3A0      #001=ASL$LIST_ALL_DEVICES File=ASL$LIST_DEVICES.:E05TSI            TUE 07/29/97 10:07 Page:62
         4 000777   200067 000100                    ARG     NAME_LEN,,AUTO

      387    19962    6                  USERS_KEY.COUNT = 9;

  19962  4 001000   011000 236003                    LDQ     4608,DU
         4 001001   000000 552040 xsym               STBQ    USERS_KEY,'40'O

      388    19963    6                  END; /*  Not a tdev  */

      389    19964    5               MATCH_LEN = DEV_NAME.COUNT;

  19964  4 001002   200021 236100                    LDQ     DEV_NAME,,AUTO
         4 001003   000033 772000                    QRL     27
         4 001004   200063 756100                    STQ     MATCH_LEN,,AUTO

      390    19965    5              CALL ASB$WILD_MATCH (NAME_LEN,KL$TWSNREC.DEVS.ACCT(I),MATCH_LEN,DEV_NAME
             19965                        .TEXT)

  19965  4 001005   200120 452500                    STP2    TWSN_NUMBER+6,,AUTO
         4 001006   200120 236100                    LDQ     TWSN_NUMBER+6,,AUTO
         4 001007   000016 036000 5                  ADLQ    14
         4 001010   200117 756100                    STQ     TWSN_NUMBER+5,,AUTO
         4 001011   200063 631500                    EPPR1   MATCH_LEN,,AUTO
         4 001012   200116 451500                    STP1    TWSN_NUMBER+4,,AUTO
         4 001013   200045 236100                    LDQ     I,,AUTO
         4 001014   000013 402003                    MPY     11,DU
         4 001015   000011 036003                    ADLQ    9,DU
         4 001016   000000 036000 xsym               ADLQ    DSEG2$
         4 001017   200115 756100                    STQ     TWSN_NUMBER+3,,AUTO
         4 001020   200067 633500                    EPPR3   NAME_LEN,,AUTO
         4 001021   200114 453500                    STP3    TWSN_NUMBER+2,,AUTO
         4 001022   200114 630500                    EPPR0   TWSN_NUMBER+2,,AUTO
         4 001023   000022 631400 xsym               EPPR1   B_VECTNIL+18
         4 001024   000000 701000 xent               TSX1    ASB$WILD_MATCH
         4 001025   001127 702000 4                  TSX2    NO_REC_FOR_STATION1

      391    19966    6               WHENRETURN DO;
PL6.E3A0      #001=ASL$LIST_ALL_DEVICES File=ASL$LIST_DEVICES.:E05TSI            TUE 07/29/97 10:07 Page:63

      392    19967    6                  CALL INSERT(USERS_KEY.TXTC,0,9,KL$TWSNREC.DEVS.ACCT(I),'*');

  19967  4 001026   200045 236100                    LDQ     I,,AUTO
         4 001027   000054 402007                    MPY     44,DL
         4 001030   000000 470400 xsym               LDP0    DSEG2$
         4 001031   040000 100506                    MLR     fill='040'O
         4 001032   000011 000010                    ADSC9   9,Q,PR0                  cn=0,n=8
         4 001033   000000 200010 xsym               ADSC9   USERS_KEY                cn=1,n=8
         4 001034   000052 236003                    LDQ     42,DU
         4 001035   000002 552020 xsym               STBQ    USERS_KEY+2,'20'O

      393    19968    6                  ARS = DSEG3SIZE;

  19968  4 001036   000000 235000 xsym               LDA     DSEG3SIZE
         4 001037   200006 755100                    STA     ARS,,AUTO

      394    19969    6                  CALL ASB$READ_HLP(DSEG3$, ARS, 3) ALTRET(NO_REC_FOR_STATION1);

  19969  4 001040   000004 236000 5                  LDQ     4
         4 001041   200116 756100                    STQ     TWSN_NUMBER+4,,AUTO
         4 001042   200006 630500                    EPPR0   ARS,,AUTO
         4 001043   200115 450500                    STP0    TWSN_NUMBER+3,,AUTO
         4 001044   000005 236000 5                  LDQ     5
         4 001045   200114 756100                    STQ     TWSN_NUMBER+2,,AUTO
         4 001046   200114 630500                    EPPR0   TWSN_NUMBER+2,,AUTO
         4 001047   000021 631400 xsym               EPPR1   B_VECTNIL+17
         4 001050   000000 701000 xent               TSX1    ASB$READ_HLP
         4 001051   001127 702000 4                  TSX2    NO_REC_FOR_STATION1

      395    19970    6                  CALL ASB$CHECK_TYPE( DSEG3$, ARS, DEV_TYPE ) ALTRET(
             19970                           NO_REC_FOR_STATION1);

  19970  4 001052   200034 630500                    EPPR0   DEV_TYPE,,AUTO
         4 001053   200116 450500                    STP0    TWSN_NUMBER+4,,AUTO
         4 001054   200006 631500                    EPPR1   ARS,,AUTO
         4 001055   200115 451500                    STP1    TWSN_NUMBER+3,,AUTO
PL6.E3A0      #001=ASL$LIST_ALL_DEVICES File=ASL$LIST_DEVICES.:E05TSI            TUE 07/29/97 10:07 Page:64
         4 001056   000005 236000 5                  LDQ     5
         4 001057   200114 756100                    STQ     TWSN_NUMBER+2,,AUTO
         4 001060   200114 630500                    EPPR0   TWSN_NUMBER+2,,AUTO
         4 001061   000021 631400 xsym               EPPR1   B_VECTNIL+17
         4 001062   000000 701000 xent               TSX1    ASB$CHECK_TYPE
         4 001063   001127 702000 4                  TSX2    NO_REC_FOR_STATION1

      396    19971    7                  IF NOT CHECK OR DSEG3$->KL$DREC.SUPER = DEV_TYPE THEN DO;

  19971  4 001064   200016 234100                    SZN     CHECK,,AUTO
         4 001065   001073 605000 4                  TPL     s:19972
         4 001066   000000 470400 xsym               LDP0    DSEG3$
         4 001067   000000 236100                    LDQ     0,,PR0
         4 001070   000777 376007                    ANQ     511,DL
         4 001071   200034 116100                    CMPQ    DEV_TYPE,,AUTO
         4 001072   001127 601000 4                  TNZ     NO_REC_FOR_STATION1

      397    19972    7                     IF ~ DISP THEN

  19972  4 001073   200035 236100                    LDQ     DISP,,AUTO
         4 001074   400000 376003                    ANQ     -131072,DU
         4 001075   400000 676003                    ERQ     -131072,DU
         4 001076   001110 600000 4                  TZE     s:19975

      398    19973    7                        CALL ASL$FORMAT_DEVNAME (USERS_KEY, DISP_DEVICES);

  19973  4 001077   200036 630500                    EPPR0   DISP_DEVICES,,AUTO
         4 001100   200115 450500                    STP0    TWSN_NUMBER+3,,AUTO
         4 001101   000011 236000 5                  LDQ     9
         4 001102   200114 756100                    STQ     TWSN_NUMBER+2,,AUTO
         4 001103   200114 630500                    EPPR0   TWSN_NUMBER+2,,AUTO
         4 001104   000020 631400 xsym               EPPR1   B_VECTNIL+16
         4 001105   000000 701000 xent               TSX1    ASL$FORMAT_DEVNAME
         4 001106   000000 011000                    NOP     0
         4 001107   001124 710000 4                  TRA     s:19978

      399    19974    8                     ELSE DO;
PL6.E3A0      #001=ASL$LIST_ALL_DEVICES File=ASL$LIST_DEVICES.:E05TSI            TUE 07/29/97 10:07 Page:65

      400    19975    8                        CALL ASL$DISP_ONE_DEVICE (JCL, %NO# );

  19975  4 001110   000006 236000 5                  LDQ     6
         4 001111   200115 756100                    STQ     TWSN_NUMBER+3,,AUTO
         4 001112   200046 630500                    EPPR0   JCL,,AUTO
         4 001113   200114 450500                    STP0    TWSN_NUMBER+2,,AUTO
         4 001114   200114 630500                    EPPR0   TWSN_NUMBER+2,,AUTO
         4 001115   000020 631400 xsym               EPPR1   B_VECTNIL+16
         4 001116   000000 701000 xent               TSX1    ASL$DISP_ONE_DEVICE
         4 001117   000000 011000                    NOP     0

      401    19976    8                        CALL ASB$WRITE_LO  (' ',1);

  19976  4 001120   000007 630400 5                  EPPR0   7
         4 001121   000020 631400 xsym               EPPR1   B_VECTNIL+16
         4 001122   000000 701000 xent               TSX1    ASB$WRITE_LO
         4 001123   000000 011000                    NOP     0

      402    19977    8                        END;   /*  Disp  */

      403    19978    7                     DISP_DEVICES = DISP_DEVICES + 1;

  19978  4 001124   200036 235100                    LDA     DISP_DEVICES,,AUTO
         4 001125   000001 035007                    ADLA    1,DL
         4 001126   200036 755100                    STA     DISP_DEVICES,,AUTO

      404    19979    7                     END; /*  The right type  */

      405    19980    6                  END; /*  Whenreturn  */

      406    19981    5               END; /*  Not iom connected  */

      407    19982    4   NO_REC_FOR_STATION1:
      408    19983    4            END; /*  Do ndevs times  */

  19983  4 001127   200045 054100       NO_REC_FOR_* AOS     I,,AUTO
PL6.E3A0      #001=ASL$LIST_ALL_DEVICES File=ASL$LIST_DEVICES.:E05TSI            TUE 07/29/97 10:07 Page:66
         4 001130   000000 470400 xsym               LDP0    DSEG2$
         4 001131   200045 236100                    LDQ     I,,AUTO
         4 001132   000750 604000 4                  TMI     s:19955
         4 001133   000004 116100                    CMPQ    4,,PR0
         4 001134   000750 602000 4                  TNC     s:19955

      409    19984    3   NEXT_STATION:
      410    19985    3         END; /*  Do ltwsn  */

  19985  4 001135   200112 235100       NEXT_STATION LDA     TWSN_NUMBER,,AUTO
         4 001136   000001 035007                    ADLA    1,DL
         4 001137   200112 755100                    STA     TWSN_NUMBER,,AUTO
         4 001140   000000 470400 xsym               LDP0    DSEG1$
         4 001141   000001 236100                    LDQ     1,,PR0
         4 001142   200112 116100                    CMPQ    TWSN_NUMBER,,AUTO
         4 001143   000701 603000 4                  TRC     s:19949

      411    19986    2      GOTO FINISH_UP;

  19986  4 001144   003367 710000 4                  TRA     FINISH_UP

      412    19987
      413    19988    2      SELECT  (%STATION);

      414    19989
      415    19990    2      USERS_KEY.COUNT = 15;

  19990  4 001145   017000 236003                    LDQ     7680,DU
         4 001146   000000 552040 xsym               STBQ    USERS_KEY,'40'O

      416    19991    2      CALL CONCAT( USERS_KEY.TXTC, STATION_NAME.TEXT, 'STATION' );

  19991  4 001147   040000 100500                    MLR     fill='040'O
         4 001150   200071 200010                    ADSC9   STATION_NAME,,AUTO       cn=1,n=8
         4 001151   000000 200010 xsym               ADSC9   USERS_KEY                cn=1,n=8
         4 001152   040000 100400                    MLR     fill='040'O
         4 001153   000012 000007 3                  ADSC9   LIST_STR+3               cn=0,n=7
PL6.E3A0      #001=ASL$LIST_ALL_DEVICES File=ASL$LIST_DEVICES.:E05TSI            TUE 07/29/97 10:07 Page:67
         4 001154   000002 200041 xsym               ADSC9   USERS_KEY+2              cn=1,n=33

      417    19992    2      ARS = DSEG1SIZE;

  19992  4 001155   000000 235000 xsym               LDA     DSEG1SIZE
         4 001156   200006 755100                    STA     ARS,,AUTO

      418    19993    2      CALL ASB$READ_HLP(DSEG1$, ARS, 1 ) ALTRET( READ_ALT3 );

  19993  4 001157   000010 236000 5                  LDQ     8
         4 001160   200116 756100                    STQ     TWSN_NUMBER+4,,AUTO
         4 001161   200006 630500                    EPPR0   ARS,,AUTO
         4 001162   200115 450500                    STP0    TWSN_NUMBER+3,,AUTO
         4 001163   000017 236000 5                  LDQ     15
         4 001164   200114 756100                    STQ     TWSN_NUMBER+2,,AUTO
         4 001165   200114 630500                    EPPR0   TWSN_NUMBER+2,,AUTO
         4 001166   000021 631400 xsym               EPPR1   B_VECTNIL+17
         4 001167   000000 701000 xent               TSX1    ASB$READ_HLP
         4 001170   003345 702000 4                  TSX2    READ_ALT3

      419    19994    2      USERS_KEY.COUNT = 8;

  19994  4 001171   010000 236003                    LDQ     4096,DU
         4 001172   000000 552040 xsym               STBQ    USERS_KEY,'40'O

      420    19995    2      CALL CONCAT( USERS_KEY.TXTC, 'TWSN', DSEG1$->KL$DREC.TWSN# );

  19995  4 001173   040000 100400                    MLR     fill='040'O
         4 001174   000014 000004 3                  ADSC9   LIST_STR+5               cn=0,n=4
         4 001175   000000 200004 xsym               ADSC9   USERS_KEY                cn=1,n=4
         4 001176   000000 470400 xsym               LDP0    DSEG1$
         4 001177   040000 100500                    MLR     fill='040'O
         4 001200   000001 000004                    ADSC9   1,,PR0                   cn=0,n=4
         4 001201   000001 200045 xsym               ADSC9   USERS_KEY+1              cn=1,n=37

      421    19996    2      ARS = DSEG2SIZE;

PL6.E3A0      #001=ASL$LIST_ALL_DEVICES File=ASL$LIST_DEVICES.:E05TSI            TUE 07/29/97 10:07 Page:68
  19996  4 001202   000000 235000 xsym               LDA     DSEG2SIZE
         4 001203   200006 755100                    STA     ARS,,AUTO

      422    19997    2      CALL ASB$READ_HLP( DSEG2$, ARS, 2 ) ALTRET( READ_ERR );

  19997  4 001204   000020 236000 5                  LDQ     16
         4 001205   200116 756100                    STQ     TWSN_NUMBER+4,,AUTO
         4 001206   200006 630500                    EPPR0   ARS,,AUTO
         4 001207   200115 450500                    STP0    TWSN_NUMBER+3,,AUTO
         4 001210   000021 236000 5                  LDQ     17
         4 001211   200114 756100                    STQ     TWSN_NUMBER+2,,AUTO
         4 001212   200114 630500                    EPPR0   TWSN_NUMBER+2,,AUTO
         4 001213   000021 631400 xsym               EPPR1   B_VECTNIL+17
         4 001214   000000 701000 xent               TSX1    ASB$READ_HLP
         4 001215   003363 702000 4                  TSX2    READ_ERR

      423    19998    3      DO I = 0 TO KL$TWSNREC.NDEV - 1;

  19998  4 001216   200045 450100                    STZ     I,,AUTO
         4 001217   001400 710000 4                  TRA     NO_REC_FOR_STATION2+1

      424    19999    4         IF ~KL$TWSNREC.DEVS.IOM_CONNECTED(I) THEN DO;

  19999  4 001220   200045 236100                    LDQ     I,,AUTO
         4 001221   000013 402007                    MPY     11,DL
         4 001222   000000 470400 xsym               LDP0    DSEG2$
         4 001223   000006 236106                    LDQ     6,QL,PR0
         4 001224   000036 736000                    QLS     30
         4 001225   400000 376003                    ANQ     -131072,DU
         4 001226   400000 676003                    ERQ     -131072,DU
         4 001227   001377 600000 4                  TZE     NO_REC_FOR_STATION2

      425    20000    5            IF KL$TWSNREC.DEVS.TDEV(I) THEN DO; /*  A tdev  */

  20000  4 001230   200045 236100                    LDQ     I,,AUTO
         4 001231   000013 402007                    MPY     11,DL
         4 001232   000006 236106                    LDQ     6,QL,PR0
PL6.E3A0      #001=ASL$LIST_ALL_DEVICES File=ASL$LIST_DEVICES.:E05TSI            TUE 07/29/97 10:07 Page:69
         4 001233   000100 316007                    CANQ    64,DL
         4 001234   001242 600000 4                  TZE     s:20005

      426    20001    5               NAME_LEN = 4;

  20001  4 001235   000004 235007                    LDA     4,DL
         4 001236   200067 755100                    STA     NAME_LEN,,AUTO

      427    20002    5               USERS_KEY.COUNT = 8;

  20002  4 001237   010000 236003                    LDQ     4096,DU
         4 001240   000000 552040 xsym               STBQ    USERS_KEY,'40'O

      428    20003    5               END; /*  A tdev  */

  20003  4 001241   001252 710000 4                  TRA     s:20008

      429    20004    5            ELSE DO;          /* Not a tdev         */

      430    20005    5               CALL INDEX (NAME_LEN, ' ', KL$TWSNREC.DEVS.ACCT(I));

  20005  4 001242   200045 236100                    LDQ     I,,AUTO
         4 001243   000054 402007                    MPY     44,DL
         4 001244   000000 124506                    SCM     mask='000'O
         4 001245   000011 000010                    ADSC9   9,Q,PR0                  cn=0,n=8
         4 001246   000035 000001 xsym               ADSC9   B_VECTNIL+29             cn=0,n=1
         4 001247   200067 000100                    ARG     NAME_LEN,,AUTO

      431    20006    5               USERS_KEY.COUNT = 9;

  20006  4 001250   011000 236003                    LDQ     4608,DU
         4 001251   000000 552040 xsym               STBQ    USERS_KEY,'40'O

      432    20007    5               END; /*  Not a tdev  */

      433    20008    4            MATCH_LEN = DEV_NAME.COUNT;

PL6.E3A0      #001=ASL$LIST_ALL_DEVICES File=ASL$LIST_DEVICES.:E05TSI            TUE 07/29/97 10:07 Page:70
  20008  4 001252   200021 236100                    LDQ     DEV_NAME,,AUTO
         4 001253   000033 772000                    QRL     27
         4 001254   200063 756100                    STQ     MATCH_LEN,,AUTO

      434    20009    4            CALL ASB$WILD_MATCH (NAME_LEN,KL$TWSNREC.DEVS.ACCT(I),MATCH_LEN,DEV_NAME.
             20009                     TEXT)

  20009  4 001255   200120 452500                    STP2    TWSN_NUMBER+6,,AUTO
         4 001256   200120 236100                    LDQ     TWSN_NUMBER+6,,AUTO
         4 001257   000016 036000 5                  ADLQ    14
         4 001260   200117 756100                    STQ     TWSN_NUMBER+5,,AUTO
         4 001261   200063 631500                    EPPR1   MATCH_LEN,,AUTO
         4 001262   200116 451500                    STP1    TWSN_NUMBER+4,,AUTO
         4 001263   200045 236100                    LDQ     I,,AUTO
         4 001264   000013 402003                    MPY     11,DU
         4 001265   000011 036003                    ADLQ    9,DU
         4 001266   000000 036000 xsym               ADLQ    DSEG2$
         4 001267   200115 756100                    STQ     TWSN_NUMBER+3,,AUTO
         4 001270   200067 633500                    EPPR3   NAME_LEN,,AUTO
         4 001271   200114 453500                    STP3    TWSN_NUMBER+2,,AUTO
         4 001272   200114 630500                    EPPR0   TWSN_NUMBER+2,,AUTO
         4 001273   000022 631400 xsym               EPPR1   B_VECTNIL+18
         4 001274   000000 701000 xent               TSX1    ASB$WILD_MATCH
         4 001275   001377 702000 4                  TSX2    NO_REC_FOR_STATION2

      435    20010    5            WHENRETURN DO;

      436    20011    5               CALL INSERT(USERS_KEY.TXTC,0,9,KL$TWSNREC.DEVS.ACCT(I),'*');

  20011  4 001276   200045 236100                    LDQ     I,,AUTO
         4 001277   000054 402007                    MPY     44,DL
         4 001300   000000 470400 xsym               LDP0    DSEG2$
         4 001301   040000 100506                    MLR     fill='040'O
         4 001302   000011 000010                    ADSC9   9,Q,PR0                  cn=0,n=8
         4 001303   000000 200010 xsym               ADSC9   USERS_KEY                cn=1,n=8
         4 001304   000052 236003                    LDQ     42,DU
         4 001305   000002 552020 xsym               STBQ    USERS_KEY+2,'20'O
PL6.E3A0      #001=ASL$LIST_ALL_DEVICES File=ASL$LIST_DEVICES.:E05TSI            TUE 07/29/97 10:07 Page:71

      437    20012    5               ARS = DSEG3SIZE;

  20012  4 001306   000000 235000 xsym               LDA     DSEG3SIZE
         4 001307   200006 755100                    STA     ARS,,AUTO

      438    20013    5               CALL ASB$READ_HLP(DSEG3$, ARS, 3) ALTRET(NO_REC_FOR_STATION2);

  20013  4 001310   000004 236000 5                  LDQ     4
         4 001311   200116 756100                    STQ     TWSN_NUMBER+4,,AUTO
         4 001312   200006 630500                    EPPR0   ARS,,AUTO
         4 001313   200115 450500                    STP0    TWSN_NUMBER+3,,AUTO
         4 001314   000005 236000 5                  LDQ     5
         4 001315   200114 756100                    STQ     TWSN_NUMBER+2,,AUTO
         4 001316   200114 630500                    EPPR0   TWSN_NUMBER+2,,AUTO
         4 001317   000021 631400 xsym               EPPR1   B_VECTNIL+17
         4 001320   000000 701000 xent               TSX1    ASB$READ_HLP
         4 001321   001377 702000 4                  TSX2    NO_REC_FOR_STATION2

      439    20014    5              CALL ASB$CHECK_TYPE( DSEG3$, ARS, DEV_TYPE ) ALTRET(NO_REC_FOR_STATION2)
             20014                        ;

  20014  4 001322   200034 630500                    EPPR0   DEV_TYPE,,AUTO
         4 001323   200116 450500                    STP0    TWSN_NUMBER+4,,AUTO
         4 001324   200006 631500                    EPPR1   ARS,,AUTO
         4 001325   200115 451500                    STP1    TWSN_NUMBER+3,,AUTO
         4 001326   000005 236000 5                  LDQ     5
         4 001327   200114 756100                    STQ     TWSN_NUMBER+2,,AUTO
         4 001330   200114 630500                    EPPR0   TWSN_NUMBER+2,,AUTO
         4 001331   000021 631400 xsym               EPPR1   B_VECTNIL+17
         4 001332   000000 701000 xent               TSX1    ASB$CHECK_TYPE
         4 001333   001377 702000 4                  TSX2    NO_REC_FOR_STATION2

      440    20015    6               IF NOT CHECK OR DSEG3$->KL$DREC.SUPER = DEV_TYPE THEN DO;

  20015  4 001334   200016 234100                    SZN     CHECK,,AUTO
         4 001335   001343 605000 4                  TPL     s:20016
PL6.E3A0      #001=ASL$LIST_ALL_DEVICES File=ASL$LIST_DEVICES.:E05TSI            TUE 07/29/97 10:07 Page:72
         4 001336   000000 470400 xsym               LDP0    DSEG3$
         4 001337   000000 236100                    LDQ     0,,PR0
         4 001340   000777 376007                    ANQ     511,DL
         4 001341   200034 116100                    CMPQ    DEV_TYPE,,AUTO
         4 001342   001377 601000 4                  TNZ     NO_REC_FOR_STATION2

      441    20016    7                  IF ~ DISP THEN DO;

  20016  4 001343   200035 236100                    LDQ     DISP,,AUTO
         4 001344   400000 376003                    ANQ     -131072,DU
         4 001345   400000 676003                    ERQ     -131072,DU
         4 001346   001360 600000 4                  TZE     s:20020

      442    20017    7                     CALL ASL$FORMAT_DEVNAME (USERS_KEY, DISP_DEVICES);

  20017  4 001347   200036 630500                    EPPR0   DISP_DEVICES,,AUTO
         4 001350   200115 450500                    STP0    TWSN_NUMBER+3,,AUTO
         4 001351   000011 236000 5                  LDQ     9
         4 001352   200114 756100                    STQ     TWSN_NUMBER+2,,AUTO
         4 001353   200114 630500                    EPPR0   TWSN_NUMBER+2,,AUTO
         4 001354   000020 631400 xsym               EPPR1   B_VECTNIL+16
         4 001355   000000 701000 xent               TSX1    ASL$FORMAT_DEVNAME
         4 001356   000000 011000                    NOP     0

      443    20018    7                     END; /*  ~disp  */

  20018  4 001357   001374 710000 4                  TRA     s:20023

      444    20019    7                  ELSE DO;

      445    20020    7                     CALL ASL$DISP_ONE_DEVICE (JCL, %NO# );

  20020  4 001360   000006 236000 5                  LDQ     6
         4 001361   200115 756100                    STQ     TWSN_NUMBER+3,,AUTO
         4 001362   200046 630500                    EPPR0   JCL,,AUTO
         4 001363   200114 450500                    STP0    TWSN_NUMBER+2,,AUTO
         4 001364   200114 630500                    EPPR0   TWSN_NUMBER+2,,AUTO
PL6.E3A0      #001=ASL$LIST_ALL_DEVICES File=ASL$LIST_DEVICES.:E05TSI            TUE 07/29/97 10:07 Page:73
         4 001365   000020 631400 xsym               EPPR1   B_VECTNIL+16
         4 001366   000000 701000 xent               TSX1    ASL$DISP_ONE_DEVICE
         4 001367   000000 011000                    NOP     0

      446    20021    7                     CALL ASB$WRITE_LO (' ',1);

  20021  4 001370   000007 630400 5                  EPPR0   7
         4 001371   000020 631400 xsym               EPPR1   B_VECTNIL+16
         4 001372   000000 701000 xent               TSX1    ASB$WRITE_LO
         4 001373   000000 011000                    NOP     0

      447    20022    7                     END;   /*  Disp  */

      448    20023    6                  DISP_DEVICES = DISP_DEVICES + 1;

  20023  4 001374   200036 235100                    LDA     DISP_DEVICES,,AUTO
         4 001375   000001 035007                    ADLA    1,DL
         4 001376   200036 755100                    STA     DISP_DEVICES,,AUTO

      449    20024    6                  END; /*  The right type  */

      450    20025    5               END; /*  Whenreturn  */

      451    20026    4            END; /*  Not iom connected  */

      452    20027    3   NO_REC_FOR_STATION2:
      453    20028    3         END; /*  Do ndevs times  */

  20028  4 001377   200045 054100       NO_REC_FOR_* AOS     I,,AUTO
         4 001400   000000 470400 xsym               LDP0    DSEG2$
         4 001401   200045 236100                    LDQ     I,,AUTO
         4 001402   001220 604000 4                  TMI     s:19999
         4 001403   000004 116100                    CMPQ    4,,PR0
         4 001404   001220 602000 4                  TNC     s:19999

      454    20029    2      GOTO FINISH_UP;

PL6.E3A0      #001=ASL$LIST_ALL_DEVICES File=ASL$LIST_DEVICES.:E05TSI            TUE 07/29/97 10:07 Page:74
  20029  4 001405   003367 710000 4                  TRA     FINISH_UP

      455    20030
      456    20031    2      SELECT  (%TERMINAL_WILD);

      457    20032
      458    20033    2      USERS_KEY.COUNT = 4;

  20033  4 001406   004000 236003                    LDQ     2048,DU
         4 001407   000000 552040 xsym               STBQ    USERS_KEY,'40'O

      459    20034    2      USERS_KEY.TXTC = 'TERM';

  20034  4 001410   040000 100400                    MLR     fill='040'O
         4 001411   000015 000004 3                  ADSC9   LIST_STR+6               cn=0,n=4
         4 001412   000000 200051 xsym               ADSC9   USERS_KEY                cn=1,n=41

      460    20035    2      ARS = DSEG1SIZE;

  20035  4 001413   000000 235000 xsym               LDA     DSEG1SIZE
         4 001414   200006 755100                    STA     ARS,,AUTO

      461    20036    2      CALL ASB$READ_HLP(DSEG1$, ARS, 1 ) ALTRET( READ_ERR );

  20036  4 001415   000010 236000 5                  LDQ     8
         4 001416   200116 756100                    STQ     TWSN_NUMBER+4,,AUTO
         4 001417   200006 630500                    EPPR0   ARS,,AUTO
         4 001420   200115 450500                    STP0    TWSN_NUMBER+3,,AUTO
         4 001421   000017 236000 5                  LDQ     15
         4 001422   200114 756100                    STQ     TWSN_NUMBER+2,,AUTO
         4 001423   200114 630500                    EPPR0   TWSN_NUMBER+2,,AUTO
         4 001424   000021 631400 xsym               EPPR1   B_VECTNIL+17
         4 001425   000000 701000 xent               TSX1    ASB$READ_HLP
         4 001426   003363 702000 4                  TSX2    READ_ERR

      462    20037    3      DO TWSN_NUMBER = 0 TO KL$WSNCVT.LTWSN ;

PL6.E3A0      #001=ASL$LIST_ALL_DEVICES File=ASL$LIST_DEVICES.:E05TSI            TUE 07/29/97 10:07 Page:75
  20037  4 001427   200112 450100                    STZ     TWSN_NUMBER,,AUTO
         4 001430   001736 710000 4                  TRA     s:20105+3

      463    20038    4         IF KL$WSNCVT.WSN(TWSN_NUMBER) ~= ' ' THEN DO;

  20038  4 001431   200112 235100                    LDA     TWSN_NUMBER,,AUTO
         4 001432   000003 735000                    ALS     3
         4 001433   000000 470400 xsym               LDP0    DSEG1$
         4 001434   040000 106505                    CMPC    fill='040'O
         4 001435   000002 000010                    ADSC9   2,A,PR0                  cn=0,n=8
         4 001436   000035 000001 xsym               ADSC9   B_VECTNIL+29             cn=0,n=1
         4 001437   001733 600000 4                  TZE     s:20105

      464    20039    4            USERS_KEY.COUNT = 8;

  20039  4 001440   010000 236003                    LDQ     4096,DU
         4 001441   000000 552040 xsym               STBQ    USERS_KEY,'40'O

      465    20040    4            CALL BINCHAR (TWSN_CHAR, TWSN_NUMBER);

  20040  4 001442   200112 235100                    LDA     TWSN_NUMBER,,AUTO
         4 001443   000044 773000                    LRL     36
         4 001444   200114 757100                    STAQ    TWSN_NUMBER+2,,AUTO
         4 001445   000100 301500                    BTD
         4 001446   200114 000010                    NDSC9   TWSN_NUMBER+2,,AUTO      cn=0,s=lsgnf,sf=0,n=8
         4 001447   200111 030004                    NDSC9   TWSN_CHAR,,AUTO          cn=0,s=nosgn,sf=0,n=4

      466    20041    4            CALL CONCAT( USERS_KEY.TXTC, 'TWSN', TWSN_CHAR );

  20041  4 001450   040000 100400                    MLR     fill='040'O
         4 001451   000014 000004 3                  ADSC9   LIST_STR+5               cn=0,n=4
         4 001452   000000 200004 xsym               ADSC9   USERS_KEY                cn=1,n=4
         4 001453   040000 100500                    MLR     fill='040'O
         4 001454   200111 000004                    ADSC9   TWSN_CHAR,,AUTO          cn=0,n=4
         4 001455   000001 200045 xsym               ADSC9   USERS_KEY+1              cn=1,n=37

      467    20042    4            ARS = DSEG2SIZE;
PL6.E3A0      #001=ASL$LIST_ALL_DEVICES File=ASL$LIST_DEVICES.:E05TSI            TUE 07/29/97 10:07 Page:76

  20042  4 001456   000000 235000 xsym               LDA     DSEG2SIZE
         4 001457   200006 755100                    STA     ARS,,AUTO

      468    20043    4            CALL ASB$READ_HLP( DSEG2$, ARS, 2 ) ALTRET( READ_ERR );

  20043  4 001460   000020 236000 5                  LDQ     16
         4 001461   200116 756100                    STQ     TWSN_NUMBER+4,,AUTO
         4 001462   200006 630500                    EPPR0   ARS,,AUTO
         4 001463   200115 450500                    STP0    TWSN_NUMBER+3,,AUTO
         4 001464   000021 236000 5                  LDQ     17
         4 001465   200114 756100                    STQ     TWSN_NUMBER+2,,AUTO
         4 001466   200114 630500                    EPPR0   TWSN_NUMBER+2,,AUTO
         4 001467   000021 631400 xsym               EPPR1   B_VECTNIL+17
         4 001470   000000 701000 xent               TSX1    ASB$READ_HLP
         4 001471   003363 702000 4                  TSX2    READ_ERR

      469    20044    5            DO I = 0 TO KL$TWSNREC.NDEV - 1;

  20044  4 001472   200045 450100                    STZ     I,,AUTO
         4 001473   001705 710000 4                  TRA     NO_REC_FOR_TERM1+1

      470    20045    6               IF KL$TWSNREC.DEVS.TDEV(I) THEN DO; /*  A tdev  */

  20045  4 001474   200045 236100                    LDQ     I,,AUTO
         4 001475   000013 402007                    MPY     11,DL
         4 001476   000000 470400 xsym               LDP0    DSEG2$
         4 001477   000006 236106                    LDQ     6,QL,PR0
         4 001500   000100 316007                    CANQ    64,DL
         4 001501   001704 600000 4                  TZE     NO_REC_FOR_TERM1

      471    20046    6                  MATCH_LEN = DEV_NAME.COUNT;

  20046  4 001502   200021 236100                    LDQ     DEV_NAME,,AUTO
         4 001503   000033 772000                    QRL     27
         4 001504   200063 756100                    STQ     MATCH_LEN,,AUTO

PL6.E3A0      #001=ASL$LIST_ALL_DEVICES File=ASL$LIST_DEVICES.:E05TSI            TUE 07/29/97 10:07 Page:77
      472    20047    6                  CALL ASB$WILD_MATCH (4,KL$TWSNREC.DEVS.ACCT(I),MATCH_LEN,DEV_NAME.
             20047                           TEXT)

  20047  4 001505   200120 452500                    STP2    TWSN_NUMBER+6,,AUTO
         4 001506   200120 236100                    LDQ     TWSN_NUMBER+6,,AUTO
         4 001507   000016 036000 5                  ADLQ    14
         4 001510   200117 756100                    STQ     TWSN_NUMBER+5,,AUTO
         4 001511   200063 631500                    EPPR1   MATCH_LEN,,AUTO
         4 001512   200116 451500                    STP1    TWSN_NUMBER+4,,AUTO
         4 001513   200045 236100                    LDQ     I,,AUTO
         4 001514   000013 402003                    MPY     11,DU
         4 001515   000011 036003                    ADLQ    9,DU
         4 001516   000000 036000 xsym               ADLQ    DSEG2$
         4 001517   000022 235000 5                  LDA     18
         4 001520   200114 757100                    STAQ    TWSN_NUMBER+2,,AUTO
         4 001521   200114 630500                    EPPR0   TWSN_NUMBER+2,,AUTO
         4 001522   000022 631400 xsym               EPPR1   B_VECTNIL+18
         4 001523   000000 701000 xent               TSX1    ASB$WILD_MATCH
         4 001524   001704 702000 4                  TSX2    NO_REC_FOR_TERM1

      473    20048    7                  WHENRETURN DO;

      474    20049    7                     CALL INDEX (NAME_LEN,' ',KL$TWSNREC.DEVS.TERM(I));

  20049  4 001525   200045 236100                    LDQ     I,,AUTO
         4 001526   000054 402007                    MPY     44,DL
         4 001527   000000 470400 xsym               LDP0    DSEG2$
         4 001530   000000 124506                    SCM     mask='000'O
         4 001531   000013 000010                    ADSC9   11,Q,PR0                 cn=0,n=8
         4 001532   000035 000001 xsym               ADSC9   B_VECTNIL+29             cn=0,n=1
         4 001533   200067 000100                    ARG     NAME_LEN,,AUTO

      475    20050    7                     MATCH_LEN = TERMINAL_NAME.COUNT;

  20050  4 001534   200074 236100                    LDQ     TERMINAL_NAME,,AUTO
         4 001535   000033 772000                    QRL     27
         4 001536   200063 756100                    STQ     MATCH_LEN,,AUTO
PL6.E3A0      #001=ASL$LIST_ALL_DEVICES File=ASL$LIST_DEVICES.:E05TSI            TUE 07/29/97 10:07 Page:78

      476    20051    7                     CALL ASB$WILD_MATCH (NAME_LEN,KL$TWSNREC.DEVS.TERM(I),MATCH_LEN,
             20051                              TERMINAL_NAME.TEXT)

  20051  4 001537   200120 452500                    STP2    TWSN_NUMBER+6,,AUTO
         4 001540   200120 236100                    LDQ     TWSN_NUMBER+6,,AUTO
         4 001541   000023 036000 5                  ADLQ    19
         4 001542   200117 756100                    STQ     TWSN_NUMBER+5,,AUTO
         4 001543   200063 631500                    EPPR1   MATCH_LEN,,AUTO
         4 001544   200116 451500                    STP1    TWSN_NUMBER+4,,AUTO
         4 001545   200045 236100                    LDQ     I,,AUTO
         4 001546   000013 402003                    MPY     11,DU
         4 001547   000013 036003                    ADLQ    11,DU
         4 001550   000000 036000 xsym               ADLQ    DSEG2$
         4 001551   200115 756100                    STQ     TWSN_NUMBER+3,,AUTO
         4 001552   200067 633500                    EPPR3   NAME_LEN,,AUTO
         4 001553   200114 453500                    STP3    TWSN_NUMBER+2,,AUTO
         4 001554   200114 630500                    EPPR0   TWSN_NUMBER+2,,AUTO
         4 001555   000022 631400 xsym               EPPR1   B_VECTNIL+18
         4 001556   000000 701000 xent               TSX1    ASB$WILD_MATCH
         4 001557   001704 702000 4                  TSX2    NO_REC_FOR_TERM1

      477    20052    8                     WHENRETURN DO;

      478    20053    8                        USERS_KEY.COUNT = 8;

  20053  4 001560   010000 236003                    LDQ     4096,DU
         4 001561   000000 552040 xsym               STBQ    USERS_KEY,'40'O

      479    20054    8                        CALL INSERT(USERS_KEY.TXTC,0,9,KL$TWSNREC.DEVS.ACCT(I),'*');

  20054  4 001562   200045 236100                    LDQ     I,,AUTO
         4 001563   000054 402007                    MPY     44,DL
         4 001564   000000 470400 xsym               LDP0    DSEG2$
         4 001565   040000 100506                    MLR     fill='040'O
         4 001566   000011 000010                    ADSC9   9,Q,PR0                  cn=0,n=8
         4 001567   000000 200010 xsym               ADSC9   USERS_KEY                cn=1,n=8
PL6.E3A0      #001=ASL$LIST_ALL_DEVICES File=ASL$LIST_DEVICES.:E05TSI            TUE 07/29/97 10:07 Page:79
         4 001570   000052 236003                    LDQ     42,DU
         4 001571   000002 552020 xsym               STBQ    USERS_KEY+2,'20'O

      480    20055    8                        ARS = DSEG3SIZE;

  20055  4 001572   000000 235000 xsym               LDA     DSEG3SIZE
         4 001573   200006 755100                    STA     ARS,,AUTO

      481    20056    8                        CALL ASB$READ_HLP(DSEG3$, ARS, 3)

  20056  4 001574   000004 236000 5                  LDQ     4
         4 001575   200116 756100                    STQ     TWSN_NUMBER+4,,AUTO
         4 001576   200006 630500                    EPPR0   ARS,,AUTO
         4 001577   200115 450500                    STP0    TWSN_NUMBER+3,,AUTO
         4 001600   000005 236000 5                  LDQ     5
         4 001601   200114 756100                    STQ     TWSN_NUMBER+2,,AUTO
         4 001602   200114 630500                    EPPR0   TWSN_NUMBER+2,,AUTO
         4 001603   000021 631400 xsym               EPPR1   B_VECTNIL+17
         4 001604   000000 701000 xent               TSX1    ASB$READ_HLP
         4 001605   001664 702000 4                  TSX2    s:20075

      482    20057    9                        WHENRETURN DO;

      483    20058    9                           CALL ASB$CHECK_TYPE( DSEG3$, ARS, DEV_TYPE ) ALTRET(
             20058                                    NO_REC_FOR_TERM1);

  20058  4 001606   200034 630500                    EPPR0   DEV_TYPE,,AUTO
         4 001607   200116 450500                    STP0    TWSN_NUMBER+4,,AUTO
         4 001610   200006 631500                    EPPR1   ARS,,AUTO
         4 001611   200115 451500                    STP1    TWSN_NUMBER+3,,AUTO
         4 001612   000005 236000 5                  LDQ     5
         4 001613   200114 756100                    STQ     TWSN_NUMBER+2,,AUTO
         4 001614   200114 630500                    EPPR0   TWSN_NUMBER+2,,AUTO
         4 001615   000021 631400 xsym               EPPR1   B_VECTNIL+17
         4 001616   000000 701000 xent               TSX1    ASB$CHECK_TYPE
         4 001617   001704 702000 4                  TSX2    NO_REC_FOR_TERM1

PL6.E3A0      #001=ASL$LIST_ALL_DEVICES File=ASL$LIST_DEVICES.:E05TSI            TUE 07/29/97 10:07 Page:80
      484    20059   10                           IF NOT CHECK OR DSEG3$->KL$DREC.SUPER = DEV_TYPE THEN DO;

  20059  4 001620   200016 234100                    SZN     CHECK,,AUTO
         4 001621   001627 605000 4                  TPL     s:20060
         4 001622   000000 470400 xsym               LDP0    DSEG3$
         4 001623   000000 236100                    LDQ     0,,PR0
         4 001624   000777 376007                    ANQ     511,DL
         4 001625   200034 116100                    CMPQ    DEV_TYPE,,AUTO
         4 001626   001663 601000 4                  TNZ     s:20069

      485    20060   11                              IF ~ DISP THEN DO;

  20060  4 001627   200035 236100                    LDQ     DISP,,AUTO
         4 001630   400000 376003                    ANQ     -131072,DU
         4 001631   400000 676003                    ERQ     -131072,DU
         4 001632   001644 600000 4                  TZE     s:20064

      486    20061   11                                 CALL ASL$FORMAT_DEVNAME (USERS_KEY, DISP_DEVICES);

  20061  4 001633   200036 630500                    EPPR0   DISP_DEVICES,,AUTO
         4 001634   200115 450500                    STP0    TWSN_NUMBER+3,,AUTO
         4 001635   000011 236000 5                  LDQ     9
         4 001636   200114 756100                    STQ     TWSN_NUMBER+2,,AUTO
         4 001637   200114 630500                    EPPR0   TWSN_NUMBER+2,,AUTO
         4 001640   000020 631400 xsym               EPPR1   B_VECTNIL+16
         4 001641   000000 701000 xent               TSX1    ASL$FORMAT_DEVNAME
         4 001642   000000 011000                    NOP     0

      487    20062   11                                 END; /*  ~disp  */

  20062  4 001643   001660 710000 4                  TRA     s:20067

      488    20063   11                              ELSE DO;

      489    20064   11                                 CALL ASL$DISP_ONE_DEVICE (JCL, %NO# );

  20064  4 001644   000006 236000 5                  LDQ     6
PL6.E3A0      #001=ASL$LIST_ALL_DEVICES File=ASL$LIST_DEVICES.:E05TSI            TUE 07/29/97 10:07 Page:81
         4 001645   200115 756100                    STQ     TWSN_NUMBER+3,,AUTO
         4 001646   200046 630500                    EPPR0   JCL,,AUTO
         4 001647   200114 450500                    STP0    TWSN_NUMBER+2,,AUTO
         4 001650   200114 630500                    EPPR0   TWSN_NUMBER+2,,AUTO
         4 001651   000020 631400 xsym               EPPR1   B_VECTNIL+16
         4 001652   000000 701000 xent               TSX1    ASL$DISP_ONE_DEVICE
         4 001653   000000 011000                    NOP     0

      490    20065   11                                 CALL ASB$WRITE_LO (' ',1);

  20065  4 001654   000007 630400 5                  EPPR0   7
         4 001655   000020 631400 xsym               EPPR1   B_VECTNIL+16
         4 001656   000000 701000 xent               TSX1    ASB$WRITE_LO
         4 001657   000000 011000                    NOP     0

      491    20066   11                                 END; /*  Disp  */

      492    20067   10                              DISP_DEVICES = DISP_DEVICES + 1;

  20067  4 001660   200036 235100                    LDA     DISP_DEVICES,,AUTO
         4 001661   000001 035007                    ADLA    1,DL
         4 001662   200036 755100                    STA     DISP_DEVICES,,AUTO

      493    20068   10                              END; /*  The right type  */

      494    20069    9                           END; /*  Whenreturn from READ_HLP of device record  */

  20069  4 001663   001704 710000 4                  TRA     NO_REC_FOR_TERM1

      495    20070    9                        WHENALTRETURN DO;

      496    20071        /*E* ERROR: ASL-E$NODEVFORTERM-C
      497    20072             MESSAGE:  Device %U1 does not exist.
      498    20073             MESSAGE1:  It is listed in TWSN %U2 but can't be read from :HLP.
      499    20074        */
      500    20075    9                           AS_FIELD1.TEXT = KL$TWSNREC.DEVS.ACCT(I);

PL6.E3A0      #001=ASL$LIST_ALL_DEVICES File=ASL$LIST_DEVICES.:E05TSI            TUE 07/29/97 10:07 Page:82
  20075  4 001664   200045 236100                    LDQ     I,,AUTO
         4 001665   000054 402007                    MPY     44,DL
         4 001666   000000 470400 xsym               LDP0    DSEG2$
         4 001667   040000 100506                    MLR     fill='040'O
         4 001670   000011 000010                    ADSC9   9,Q,PR0                  cn=0,n=8
         4 001671   000000 200050 xsym               ADSC9   AS_FIELD1                cn=1,n=40

      501    20076    9                           AS_FIELD1.COUNT = 4;

  20076  4 001672   004000 236003                    LDQ     2048,DU
         4 001673   000000 552040 xsym               STBQ    AS_FIELD1,'40'O

      502    20077    9                           AS_FIELD2.TEXT = TWSN_CHAR;

  20077  4 001674   040000 100500                    MLR     fill='040'O
         4 001675   200111 000004                    ADSC9   TWSN_CHAR,,AUTO          cn=0,n=4
         4 001676   000000 200050 xsym               ADSC9   AS_FIELD2                cn=1,n=40

      503    20078    9                           AS_FIELD2.COUNT = 4;

  20078  4 001677   000000 552040 xsym               STBQ    AS_FIELD2,'40'O

      504    20079                                %SCREAM (ERR#=%E$NODEVFORTERM,LEVEL=ERROR,MID='L');

  20091  4 001700   000024 630400 5                  EPPR0   20
         4 001701   000017 631400 xsym               EPPR1   B_VECTNIL+15
         4 001702   000000 701000 xent               TSX1    ASH$ERROR
         4 001703   000000 011000                    NOP     0

      505    20094    9                           END; /*  Whenaltreturn from READ_HLP  */

      506    20095    8                        END; /*  Whenreturn from WILD_MATCH of terminal name */

      507    20096    7                     END; /*  Whenreturn  from WILD_MATCH of device name  */

      508    20097    6                  END; /*  A tdev  */

PL6.E3A0      #001=ASL$LIST_ALL_DEVICES File=ASL$LIST_DEVICES.:E05TSI            TUE 07/29/97 10:07 Page:83
      509    20098    5   NO_REC_FOR_TERM1:
      510    20099    5               END; /*  Do ndevs times  */

  20099  4 001704   200045 054100       NO_REC_FOR_* AOS     I,,AUTO
         4 001705   000000 470400 xsym               LDP0    DSEG2$
         4 001706   200045 236100                    LDQ     I,,AUTO
         4 001707   001474 604000 4                  TMI     s:20045
         4 001710   000004 116100                    CMPQ    4,,PR0
         4 001711   001474 602000 4                  TNC     s:20045

      511    20100    4            USERS_KEY.COUNT = 4;

  20100  4 001712   004000 236003                    LDQ     2048,DU
         4 001713   000000 552040 xsym               STBQ    USERS_KEY,'40'O

      512    20101    4            USERS_KEY.TXTC = 'TERM';

  20101  4 001714   040000 100400                    MLR     fill='040'O
         4 001715   000015 000004 3                  ADSC9   LIST_STR+6               cn=0,n=4
         4 001716   000000 200051 xsym               ADSC9   USERS_KEY                cn=1,n=41

      513    20102    4            ARS = DSEG1SIZE;

  20102  4 001717   000000 235000 xsym               LDA     DSEG1SIZE
         4 001720   200006 755100                    STA     ARS,,AUTO

      514    20103    4            CALL ASB$READ_HLP(DSEG1$, ARS, 1 ) ALTRET( READ_ERR );

  20103  4 001721   000010 236000 5                  LDQ     8
         4 001722   200116 756100                    STQ     TWSN_NUMBER+4,,AUTO
         4 001723   200006 631500                    EPPR1   ARS,,AUTO
         4 001724   200115 451500                    STP1    TWSN_NUMBER+3,,AUTO
         4 001725   000017 236000 5                  LDQ     15
         4 001726   200114 756100                    STQ     TWSN_NUMBER+2,,AUTO
         4 001727   200114 630500                    EPPR0   TWSN_NUMBER+2,,AUTO
         4 001730   000021 631400 xsym               EPPR1   B_VECTNIL+17
         4 001731   000000 701000 xent               TSX1    ASB$READ_HLP
PL6.E3A0      #001=ASL$LIST_ALL_DEVICES File=ASL$LIST_DEVICES.:E05TSI            TUE 07/29/97 10:07 Page:84
         4 001732   003363 702000 4                  TSX2    READ_ERR

      515    20104    4            END; /*  If station name not blank  */

      516    20105    3         END; /*  Do 0 to KL$WSNCVT.LTWSN  */

  20105  4 001733   200112 235100                    LDA     TWSN_NUMBER,,AUTO
         4 001734   000001 035007                    ADLA    1,DL
         4 001735   200112 755100                    STA     TWSN_NUMBER,,AUTO
         4 001736   000000 470400 xsym               LDP0    DSEG1$
         4 001737   000001 236100                    LDQ     1,,PR0
         4 001740   200112 116100                    CMPQ    TWSN_NUMBER,,AUTO
         4 001741   001431 603000 4                  TRC     s:20038
         4 001742   003323 710000 4                  TRA     s:20325

      517    20106
      518    20107    2      SELECT  (%TERMINAL);

      519    20108
      520    20109    2      USERS_KEY.COUNT = 9;

  20109  4 001743   011000 236003                    LDQ     4608,DU
         4 001744   000000 552040 xsym               STBQ    USERS_KEY,'40'O

      521    20110    2      CALL CONCAT( USERS_KEY.TXTC, TERMINAL_NAME.TEXT, '*' );

  20110  4 001745   040000 100500                    MLR     fill='040'O
         4 001746   200074 200010                    ADSC9   TERMINAL_NAME,,AUTO      cn=1,n=8
         4 001747   000000 200010 xsym               ADSC9   USERS_KEY                cn=1,n=8
         4 001750   040000 100400                    MLR     fill='040'O
         4 001751   000025 000001 5                  ADSC9   21                       cn=0,n=1
         4 001752   000002 200041 xsym               ADSC9   USERS_KEY+2              cn=1,n=33

      522    20111    2      ARS = DSEG1SIZE;

  20111  4 001753   000000 235000 xsym               LDA     DSEG1SIZE
         4 001754   200006 755100                    STA     ARS,,AUTO
PL6.E3A0      #001=ASL$LIST_ALL_DEVICES File=ASL$LIST_DEVICES.:E05TSI            TUE 07/29/97 10:07 Page:85

      523    20112    2      STATION_NAME = TERMINAL_NAME;

  20112  4 001755   000100 100500                    MLR     fill='000'O
         4 001756   200074 000011                    ADSC9   TERMINAL_NAME,,AUTO      cn=0,n=9
         4 001757   200071 000011                    ADSC9   STATION_NAME,,AUTO       cn=0,n=9

      524    20113    2      CALL ASB$READ_HLP( DSEG1$, ARS, 1) ALTRET( READ_ALT3 );

  20113  4 001760   000010 236000 5                  LDQ     8
         4 001761   200116 756100                    STQ     TWSN_NUMBER+4,,AUTO
         4 001762   200006 630500                    EPPR0   ARS,,AUTO
         4 001763   200115 450500                    STP0    TWSN_NUMBER+3,,AUTO
         4 001764   000017 236000 5                  LDQ     15
         4 001765   200114 756100                    STQ     TWSN_NUMBER+2,,AUTO
         4 001766   200114 630500                    EPPR0   TWSN_NUMBER+2,,AUTO
         4 001767   000021 631400 xsym               EPPR1   B_VECTNIL+17
         4 001770   000000 701000 xent               TSX1    ASB$READ_HLP
         4 001771   003345 702000 4                  TSX2    READ_ALT3

      525    20114    2      CALL ASB$CHECK_TYPE( DSEG1$, ARS, AS_TERM#, %NO#, TERMINAL_NAME ) ALTRET(
             20114               FINISH_UP);

  20114  4 001772   200074 630500                    EPPR0   TERMINAL_NAME,,AUTO
         4 001773   200120 450500                    STP0    TWSN_NUMBER+6,,AUTO
         4 001774   000026 237000 5                  LDAQ    22
         4 001775   200116 757100                    STAQ    TWSN_NUMBER+4,,AUTO
         4 001776   200006 631500                    EPPR1   ARS,,AUTO
         4 001777   200115 451500                    STP1    TWSN_NUMBER+3,,AUTO
         4 002000   000017 236000 5                  LDQ     15
         4 002001   200114 756100                    STQ     TWSN_NUMBER+2,,AUTO
         4 002002   200114 630500                    EPPR0   TWSN_NUMBER+2,,AUTO
         4 002003   000023 631400 xsym               EPPR1   B_VECTNIL+19
         4 002004   000000 701000 xent               TSX1    ASB$CHECK_TYPE
         4 002005   003367 702000 4                  TSX2    FINISH_UP

      526    20115    2      AS_FIELD1.COUNT = TERMINAL_NAME.COUNT;
PL6.E3A0      #001=ASL$LIST_ALL_DEVICES File=ASL$LIST_DEVICES.:E05TSI            TUE 07/29/97 10:07 Page:86

  20115  4 002006   200074 236100                    LDQ     TERMINAL_NAME,,AUTO
         4 002007   000000 552040 xsym               STBQ    AS_FIELD1,'40'O

      527    20116    2      AS_FIELD1.TEXT = TERMINAL_NAME.TEXT;

  20116  4 002010   040000 100500                    MLR     fill='040'O
         4 002011   200074 200010                    ADSC9   TERMINAL_NAME,,AUTO      cn=1,n=8
         4 002012   000000 200050 xsym               ADSC9   AS_FIELD1                cn=1,n=40

      528    20117    2      AS_FIELD2.COUNT = 8;

  20117  4 002013   010000 236003                    LDQ     4096,DU
         4 002014   000000 552040 xsym               STBQ    AS_FIELD2,'40'O

      529    20118    2      AS_FIELD2.TEXT = 'TERMINAL';

  20118  4 002015   040000 100400                    MLR     fill='040'O
         4 002016   000017 000010 3                  ADSC9   LIST_STR+8               cn=0,n=8
         4 002017   000000 200050 xsym               ADSC9   AS_FIELD2                cn=1,n=40

      530    20119    2      USERS_KEY.COUNT = 8;

  20119  4 002020   000000 552040 xsym               STBQ    USERS_KEY,'40'O

      531    20120    2      CALL CONCAT( USERS_KEY.TXTC, 'TWSN', DSEG1$->KL$DREC.TWSN# );

  20120  4 002021   040000 100400                    MLR     fill='040'O
         4 002022   000014 000004 3                  ADSC9   LIST_STR+5               cn=0,n=4
         4 002023   000000 200004 xsym               ADSC9   USERS_KEY                cn=1,n=4
         4 002024   000000 470400 xsym               LDP0    DSEG1$
         4 002025   040000 100500                    MLR     fill='040'O
         4 002026   000001 000004                    ADSC9   1,,PR0                   cn=0,n=4
         4 002027   000001 200045 xsym               ADSC9   USERS_KEY+1              cn=1,n=37

      532    20121    2      ARS = DSEG2SIZE;

PL6.E3A0      #001=ASL$LIST_ALL_DEVICES File=ASL$LIST_DEVICES.:E05TSI            TUE 07/29/97 10:07 Page:87
  20121  4 002030   000000 235000 xsym               LDA     DSEG2SIZE
         4 002031   200006 755100                    STA     ARS,,AUTO

      533    20122    2      CALL ASB$READ_HLP( DSEG2$, ARS, 2 ) ALTRET( READ_ERR );

  20122  4 002032   000020 236000 5                  LDQ     16
         4 002033   200116 756100                    STQ     TWSN_NUMBER+4,,AUTO
         4 002034   200006 630500                    EPPR0   ARS,,AUTO
         4 002035   200115 450500                    STP0    TWSN_NUMBER+3,,AUTO
         4 002036   000021 236000 5                  LDQ     17
         4 002037   200114 756100                    STQ     TWSN_NUMBER+2,,AUTO
         4 002040   200114 630500                    EPPR0   TWSN_NUMBER+2,,AUTO
         4 002041   000021 631400 xsym               EPPR1   B_VECTNIL+17
         4 002042   000000 701000 xent               TSX1    ASB$READ_HLP
         4 002043   003363 702000 4                  TSX2    READ_ERR

      534    20123    3      DO I = 0 TO KL$TWSNREC.NDEV - 1;

  20123  4 002044   200045 450100                    STZ     I,,AUTO
         4 002045   002236 710000 4                  TRA     NO_REC_FOR_TERM2+1

      535    20124    3         USERS_KEY.COUNT = 8;

  20124  4 002046   010000 236003                    LDQ     4096,DU
         4 002047   000000 552040 xsym               STBQ    USERS_KEY,'40'O

      536    20125    4         IF KL$TWSNREC.DEVS.TDEV(I) THEN DO; /*  A tdev  */

  20125  4 002050   200045 236100                    LDQ     I,,AUTO
         4 002051   000013 402007                    MPY     11,DL
         4 002052   000000 470400 xsym               LDP0    DSEG2$
         4 002053   000006 236106                    LDQ     6,QL,PR0
         4 002054   000100 316007                    CANQ    64,DL
         4 002055   002235 600000 4                  TZE     NO_REC_FOR_TERM2

      537    20126    4            MATCH_LEN = DEV_NAME.COUNT;

PL6.E3A0      #001=ASL$LIST_ALL_DEVICES File=ASL$LIST_DEVICES.:E05TSI            TUE 07/29/97 10:07 Page:88
  20126  4 002056   200021 236100                    LDQ     DEV_NAME,,AUTO
         4 002057   000033 772000                    QRL     27
         4 002060   200063 756100                    STQ     MATCH_LEN,,AUTO

      538    20127    4            CALL ASB$WILD_MATCH (4,KL$TWSNREC.DEVS.ACCT(I),MATCH_LEN,DEV_NAME.TEXT)

  20127  4 002061   200120 452500                    STP2    TWSN_NUMBER+6,,AUTO
         4 002062   200120 236100                    LDQ     TWSN_NUMBER+6,,AUTO
         4 002063   000016 036000 5                  ADLQ    14
         4 002064   200117 756100                    STQ     TWSN_NUMBER+5,,AUTO
         4 002065   200063 631500                    EPPR1   MATCH_LEN,,AUTO
         4 002066   200116 451500                    STP1    TWSN_NUMBER+4,,AUTO
         4 002067   200045 236100                    LDQ     I,,AUTO
         4 002070   000013 402003                    MPY     11,DU
         4 002071   000011 036003                    ADLQ    9,DU
         4 002072   000000 036000 xsym               ADLQ    DSEG2$
         4 002073   000022 235000 5                  LDA     18
         4 002074   200114 757100                    STAQ    TWSN_NUMBER+2,,AUTO
         4 002075   200114 630500                    EPPR0   TWSN_NUMBER+2,,AUTO
         4 002076   000022 631400 xsym               EPPR1   B_VECTNIL+18
         4 002077   000000 701000 xent               TSX1    ASB$WILD_MATCH
         4 002100   002235 702000 4                  TSX2    NO_REC_FOR_TERM2

      539    20128    5            WHENRETURN DO;

      540    20129    5               CALL INDEX (NAME_LEN,' ',KL$TWSNREC.DEVS.TERM(I));

  20129  4 002101   200045 236100                    LDQ     I,,AUTO
         4 002102   000054 402007                    MPY     44,DL
         4 002103   000000 470400 xsym               LDP0    DSEG2$
         4 002104   000000 124506                    SCM     mask='000'O
         4 002105   000013 000010                    ADSC9   11,Q,PR0                 cn=0,n=8
         4 002106   000035 000001 xsym               ADSC9   B_VECTNIL+29             cn=0,n=1
         4 002107   200067 000100                    ARG     NAME_LEN,,AUTO

      541    20130    5               MATCH_LEN = TERMINAL_NAME.COUNT;

PL6.E3A0      #001=ASL$LIST_ALL_DEVICES File=ASL$LIST_DEVICES.:E05TSI            TUE 07/29/97 10:07 Page:89
  20130  4 002110   200074 236100                    LDQ     TERMINAL_NAME,,AUTO
         4 002111   000033 772000                    QRL     27
         4 002112   200063 756100                    STQ     MATCH_LEN,,AUTO

      542    20131    5               CALL ASB$WILD_MATCH (NAME_LEN,KL$TWSNREC.DEVS.TERM(I),MATCH_LEN,
             20131                        TERMINAL_NAME.TEXT)

  20131  4 002113   200120 452500                    STP2    TWSN_NUMBER+6,,AUTO
         4 002114   200120 236100                    LDQ     TWSN_NUMBER+6,,AUTO
         4 002115   000023 036000 5                  ADLQ    19
         4 002116   200117 756100                    STQ     TWSN_NUMBER+5,,AUTO
         4 002117   200063 631500                    EPPR1   MATCH_LEN,,AUTO
         4 002120   200116 451500                    STP1    TWSN_NUMBER+4,,AUTO
         4 002121   200045 236100                    LDQ     I,,AUTO
         4 002122   000013 402003                    MPY     11,DU
         4 002123   000013 036003                    ADLQ    11,DU
         4 002124   000000 036000 xsym               ADLQ    DSEG2$
         4 002125   200115 756100                    STQ     TWSN_NUMBER+3,,AUTO
         4 002126   200067 633500                    EPPR3   NAME_LEN,,AUTO
         4 002127   200114 453500                    STP3    TWSN_NUMBER+2,,AUTO
         4 002130   200114 630500                    EPPR0   TWSN_NUMBER+2,,AUTO
         4 002131   000022 631400 xsym               EPPR1   B_VECTNIL+18
         4 002132   000000 701000 xent               TSX1    ASB$WILD_MATCH
         4 002133   002235 702000 4                  TSX2    NO_REC_FOR_TERM2

      543    20132    6               WHENRETURN DO;

      544    20133    6                  CALL INSERT(USERS_KEY.TXTC,0,9,KL$TWSNREC.DEVS.ACCT(I),'*');

  20133  4 002134   200045 236100                    LDQ     I,,AUTO
         4 002135   000054 402007                    MPY     44,DL
         4 002136   000000 470400 xsym               LDP0    DSEG2$
         4 002137   040000 100506                    MLR     fill='040'O
         4 002140   000011 000010                    ADSC9   9,Q,PR0                  cn=0,n=8
         4 002141   000000 200010 xsym               ADSC9   USERS_KEY                cn=1,n=8
         4 002142   000052 236003                    LDQ     42,DU
         4 002143   000002 552020 xsym               STBQ    USERS_KEY+2,'20'O
PL6.E3A0      #001=ASL$LIST_ALL_DEVICES File=ASL$LIST_DEVICES.:E05TSI            TUE 07/29/97 10:07 Page:90

      545    20134    6                  ARS = DSEG3SIZE;

  20134  4 002144   000000 235000 xsym               LDA     DSEG3SIZE
         4 002145   200006 755100                    STA     ARS,,AUTO

      546    20135    6                  CALL ASB$READ_HLP(DSEG3$, ARS, 3) ALTRET(NO_REC_FOR_TERM2);

  20135  4 002146   000004 236000 5                  LDQ     4
         4 002147   200116 756100                    STQ     TWSN_NUMBER+4,,AUTO
         4 002150   200006 630500                    EPPR0   ARS,,AUTO
         4 002151   200115 450500                    STP0    TWSN_NUMBER+3,,AUTO
         4 002152   000005 236000 5                  LDQ     5
         4 002153   200114 756100                    STQ     TWSN_NUMBER+2,,AUTO
         4 002154   200114 630500                    EPPR0   TWSN_NUMBER+2,,AUTO
         4 002155   000021 631400 xsym               EPPR1   B_VECTNIL+17
         4 002156   000000 701000 xent               TSX1    ASB$READ_HLP
         4 002157   002235 702000 4                  TSX2    NO_REC_FOR_TERM2

      547    20136    6                 CALL ASB$CHECK_TYPE( DSEG3$, ARS, DEV_TYPE ) ALTRET(NO_REC_FOR_TERM2)
             20136                           ;

  20136  4 002160   200034 630500                    EPPR0   DEV_TYPE,,AUTO
         4 002161   200116 450500                    STP0    TWSN_NUMBER+4,,AUTO
         4 002162   200006 631500                    EPPR1   ARS,,AUTO
         4 002163   200115 451500                    STP1    TWSN_NUMBER+3,,AUTO
         4 002164   000005 236000 5                  LDQ     5
         4 002165   200114 756100                    STQ     TWSN_NUMBER+2,,AUTO
         4 002166   200114 630500                    EPPR0   TWSN_NUMBER+2,,AUTO
         4 002167   000021 631400 xsym               EPPR1   B_VECTNIL+17
         4 002170   000000 701000 xent               TSX1    ASB$CHECK_TYPE
         4 002171   002235 702000 4                  TSX2    NO_REC_FOR_TERM2

      548    20137    7                  IF NOT CHECK OR DSEG3$->KL$DREC.SUPER = DEV_TYPE THEN DO;

  20137  4 002172   200016 234100                    SZN     CHECK,,AUTO
         4 002173   002201 605000 4                  TPL     s:20138
PL6.E3A0      #001=ASL$LIST_ALL_DEVICES File=ASL$LIST_DEVICES.:E05TSI            TUE 07/29/97 10:07 Page:91
         4 002174   000000 470400 xsym               LDP0    DSEG3$
         4 002175   000000 236100                    LDQ     0,,PR0
         4 002176   000777 376007                    ANQ     511,DL
         4 002177   200034 116100                    CMPQ    DEV_TYPE,,AUTO
         4 002200   002235 601000 4                  TNZ     NO_REC_FOR_TERM2

      549    20138    8                     IF ~ DISP THEN DO;

  20138  4 002201   200035 236100                    LDQ     DISP,,AUTO
         4 002202   400000 376003                    ANQ     -131072,DU
         4 002203   400000 676003                    ERQ     -131072,DU
         4 002204   002216 600000 4                  TZE     s:20142

      550    20139    8                        CALL ASL$FORMAT_DEVNAME (USERS_KEY, DISP_DEVICES);

  20139  4 002205   200036 630500                    EPPR0   DISP_DEVICES,,AUTO
         4 002206   200115 450500                    STP0    TWSN_NUMBER+3,,AUTO
         4 002207   000011 236000 5                  LDQ     9
         4 002210   200114 756100                    STQ     TWSN_NUMBER+2,,AUTO
         4 002211   200114 630500                    EPPR0   TWSN_NUMBER+2,,AUTO
         4 002212   000020 631400 xsym               EPPR1   B_VECTNIL+16
         4 002213   000000 701000 xent               TSX1    ASL$FORMAT_DEVNAME
         4 002214   000000 011000                    NOP     0

      551    20140    8                        END; /*  ~disp  */

  20140  4 002215   002232 710000 4                  TRA     s:20145

      552    20141    8                     ELSE DO;

      553    20142    8                        CALL ASL$DISP_ONE_DEVICE (JCL, %NO# );

  20142  4 002216   000006 236000 5                  LDQ     6
         4 002217   200115 756100                    STQ     TWSN_NUMBER+3,,AUTO
         4 002220   200046 630500                    EPPR0   JCL,,AUTO
         4 002221   200114 450500                    STP0    TWSN_NUMBER+2,,AUTO
         4 002222   200114 630500                    EPPR0   TWSN_NUMBER+2,,AUTO
PL6.E3A0      #001=ASL$LIST_ALL_DEVICES File=ASL$LIST_DEVICES.:E05TSI            TUE 07/29/97 10:07 Page:92
         4 002223   000020 631400 xsym               EPPR1   B_VECTNIL+16
         4 002224   000000 701000 xent               TSX1    ASL$DISP_ONE_DEVICE
         4 002225   000000 011000                    NOP     0

      554    20143    8                        CALL ASB$WRITE_LO (' ',1);

  20143  4 002226   000007 630400 5                  EPPR0   7
         4 002227   000020 631400 xsym               EPPR1   B_VECTNIL+16
         4 002230   000000 701000 xent               TSX1    ASB$WRITE_LO
         4 002231   000000 011000                    NOP     0

      555    20144    8                        END; /*  Disp  */

      556    20145    7                     DISP_DEVICES = DISP_DEVICES + 1;

  20145  4 002232   200036 235100                    LDA     DISP_DEVICES,,AUTO
         4 002233   000001 035007                    ADLA    1,DL
         4 002234   200036 755100                    STA     DISP_DEVICES,,AUTO

      557    20146    7                     END; /*  The right type  */

      558    20147    6                  END; /*  Whenreturn  */

      559    20148    5               END; /*  Whenreturn  */

      560    20149    4            END; /*  A tdev  */

      561    20150    3   NO_REC_FOR_TERM2:
      562    20151    3         END; /*  Do ndevs times  */

  20151  4 002235   200045 054100       NO_REC_FOR_* AOS     I,,AUTO
         4 002236   000000 470400 xsym               LDP0    DSEG2$
         4 002237   200045 236100                    LDQ     I,,AUTO
         4 002240   002046 604000 4                  TMI     s:20124
         4 002241   000004 116100                    CMPQ    4,,PR0
         4 002242   002046 602000 4                  TNC     s:20124
         4 002243   003323 710000 4                  TRA     s:20325
PL6.E3A0      #001=ASL$LIST_ALL_DEVICES File=ASL$LIST_DEVICES.:E05TSI            TUE 07/29/97 10:07 Page:93

      563    20152
      564    20153    2      SELECT  (%TPDEV_WILD);

      565    20154
      566    20155                 /*  Setup begin key  */
      567    20156                 /*  Setup end key  */
      568    20157    2      CALL INDEX (I,'?',TPDEV.ACCT);

  20157  4 002244   000000 124500                    SCM     mask='000'O
         4 002245   200077 200010                    ADSC9   TPDEV,,AUTO              cn=1,n=8
         4 002246   000000 000001 5                  ADSC9   0                        cn=0,n=1
         4 002247   200045 000100                    ARG     I,,AUTO

      569    20158    2      BEGIN_KEY.TEXT = SUBSTR (TPDEV.ACCT,0,I);

  20158  4 002250   200045 720100                    LXL0    I,,AUTO
         4 002251   040100 100540                    MLR     fill='040'O
         4 002252   200077 200010                    ADSC9   TPDEV,,AUTO              cn=1,n=*X0
         4 002253   200007 200024                    ADSC9   BEGIN_KEY,,AUTO          cn=1,n=20

      570    20159    2      CALL CONCAT (END_KEY.TEXT,SUBSTR (TPDEV.ACCT,0,I),'~');

  20159  4 002254   040100 100540                    MLR     fill='040'O
         4 002255   200077 200010                    ADSC9   TPDEV,,AUTO              cn=1,n=*X0
         4 002256   200037 200024                    ADSC9   END_KEY,,AUTO            cn=1,n=20
         4 002257   200045 236100                    LDQ     I,,AUTO
         4 002260   000024 116007                    CMPQ    20,DL
         4 002261   002267 605000 4                  TPL     s:20160
         4 002262   777753 621006                    EAX1    -21,QL
         4 002263   777777 661003                    ERX1    -1,DU
         4 002264   040146 100400                    MLR     fill='040'O
         4 002265   000030 000001 5                  ADSC9   24                       cn=0,n=1
         4 002266   200037 200011                    ADSC9   END_KEY,Q,AUTO           cn=1,n=*X1

      571    20160    2      CALL INDEX (I,'?',TPDEV.NAME);

PL6.E3A0      #001=ASL$LIST_ALL_DEVICES File=ASL$LIST_DEVICES.:E05TSI            TUE 07/29/97 10:07 Page:94
  20160  4 002267   000000 124500                    SCM     mask='000'O
         4 002270   200101 200014                    ADSC9   TPDEV+2,,AUTO            cn=1,n=12
         4 002271   000000 000001 5                  ADSC9   0                        cn=0,n=1
         4 002272   200045 000100                    ARG     I,,AUTO

      572    20161    2      SUBSTR (BEGIN_KEY.TEXT,8,I) = SUBSTR (TPDEV.NAME,0,I);

  20161  4 002273   200045 720100                    LXL0    I,,AUTO
         4 002274   040140 100540                    MLR     fill='040'O
         4 002275   200101 200010                    ADSC9   TPDEV+2,,AUTO            cn=1,n=*X0
         4 002276   200011 200010                    ADSC9   BEGIN_KEY+2,,AUTO        cn=1,n=*X0

      573    20162    2      BEGIN_KEY.COUNT = 8+I;

  20162  4 002277   200045 236100                    LDQ     I,,AUTO
         4 002300   000010 036007                    ADLQ    8,DL
         4 002301   000033 736000                    QLS     27
         4 002302   200007 552140                    STBQ    BEGIN_KEY,'40'O,AUTO

      574    20163    2      END_KEY.COUNT = 8+I+1;

  20163  4 002303   200045 236100                    LDQ     I,,AUTO
         4 002304   000011 036007                    ADLQ    9,DL
         4 002305   000033 736000                    QLS     27
         4 002306   200037 552140                    STBQ    END_KEY,'40'O,AUTO

      575    20164    2      SUBSTR (END_KEY.TEXT,8,I) = SUBSTR (TPDEV.NAME,0,I);

  20164  4 002307   040140 100540                    MLR     fill='040'O
         4 002310   200101 200010                    ADSC9   TPDEV+2,,AUTO            cn=1,n=*X0
         4 002311   200041 200010                    ADSC9   END_KEY+2,,AUTO          cn=1,n=*X0

      576    20165    2      IF END_KEY.COUNT < 21 THEN

  20165  4 002312   200037 236100                    LDQ     END_KEY,,AUTO
         4 002313   777000 376003                    ANQ     -512,DU
         4 002314   025000 116003                    CMPQ    10752,DU
PL6.E3A0      #001=ASL$LIST_ALL_DEVICES File=ASL$LIST_DEVICES.:E05TSI            TUE 07/29/97 10:07 Page:95
         4 002315   002322 603000 4                  TRC     s:20167

      577    20166    2         SUBSTR (END_KEY.TEXT,8+I,1) = '~';

  20166  4 002316   200045 235100                    LDA     I,,AUTO
         4 002317   040105 100400                    MLR     fill='040'O
         4 002320   000030 000001 5                  ADSC9   24                       cn=0,n=1
         4 002321   200041 200001                    ADSC9   END_KEY+2,A,AUTO         cn=1,n=1

      578    20167    2      USERS_KEY = BEGIN_KEY;

  20167  4 002322   000000 100500                    MLR     fill='000'O
         4 002323   200007 000025                    ADSC9   BEGIN_KEY,,AUTO          cn=0,n=21
         4 002324   000000 000052 xsym               ADSC9   USERS_KEY                cn=0,n=42

      579    20168    2      CALL ASB$PREC_HLP;

  20168  4 002325   000002 631400 xsym               EPPR1   B_VECTNIL+2
         4 002326   000000 701000 xent               TSX1    ASB$PREC_HLP
         4 002327   000000 011000                    NOP     0

      580    20169    2      ARS = DSEG3SIZE;

  20169  4 002330   000000 235000 xsym               LDA     DSEG3SIZE
         4 002331   200006 755100                    STA     ARS,,AUTO

      581    20170    3      CALL ASB$READ_HLP_SEQ (DSEG3$,ARS,3) WHENRETURN DO;

  20170  4 002332   000004 236000 5                  LDQ     4
         4 002333   200116 756100                    STQ     TWSN_NUMBER+4,,AUTO
         4 002334   200006 630500                    EPPR0   ARS,,AUTO
         4 002335   200115 450500                    STP0    TWSN_NUMBER+3,,AUTO
         4 002336   000005 236000 5                  LDQ     5
         4 002337   200114 756100                    STQ     TWSN_NUMBER+2,,AUTO
         4 002340   200114 630500                    EPPR0   TWSN_NUMBER+2,,AUTO
         4 002341   000021 631400 xsym               EPPR1   B_VECTNIL+17
         4 002342   000000 701000 xent               TSX1    ASB$READ_HLP_SEQ
PL6.E3A0      #001=ASL$LIST_ALL_DEVICES File=ASL$LIST_DEVICES.:E05TSI            TUE 07/29/97 10:07 Page:96
         4 002343   002624 702000 4                  TSX2    s:20217

      582    20171    3         LAST_KEY = USERS_KEY;

  20171  4 002344   000100 100400                    MLR     fill='000'O
         4 002345   000000 000052 xsym               ADSC9   USERS_KEY                cn=0,n=42
         4 002346   200050 000052                    ADSC9   LAST_KEY,,AUTO           cn=0,n=42

      583    20172    4         DO WHILE USERS_KEY.TXTC < END_KEY.TEXT;

  20172  4 002347   040100 106400                    CMPC    fill='040'O
         4 002350   000000 200051 xsym               ADSC9   USERS_KEY                cn=1,n=41
         4 002351   200037 200024                    ADSC9   END_KEY,,AUTO            cn=1,n=20
         4 002352   002624 603000 4                  TRC     s:20217

      584    20173    4            CALL ASB$CHECK_TYPE (DSEG3$, ARS, DEV_TYPE)

  20173  4 002353   200034 630500                    EPPR0   DEV_TYPE,,AUTO
         4 002354   200116 450500                    STP0    TWSN_NUMBER+4,,AUTO
         4 002355   200006 631500                    EPPR1   ARS,,AUTO
         4 002356   200115 451500                    STP1    TWSN_NUMBER+3,,AUTO
         4 002357   000005 236000 5                  LDQ     5
         4 002360   200114 756100                    STQ     TWSN_NUMBER+2,,AUTO
         4 002361   200114 630500                    EPPR0   TWSN_NUMBER+2,,AUTO
         4 002362   000021 631400 xsym               EPPR1   B_VECTNIL+17
         4 002363   000000 701000 xent               TSX1    ASB$CHECK_TYPE
         4 002364   002567 702000 4                  TSX2    s:20209

      585    20174    5            WHENRETURN DO;

      586    20175    6               IF NOT CHECK OR DSEG3$->KL$DREC.SUPER = DEV_TYPE THEN DO;

  20175  4 002365   200016 234100                    SZN     CHECK,,AUTO
         4 002366   002374 605000 4                  TPL     s:20177
         4 002367   000000 470400 xsym               LDP0    DSEG3$
         4 002370   000000 236100                    LDQ     0,,PR0
         4 002371   000777 376007                    ANQ     511,DL
PL6.E3A0      #001=ASL$LIST_ALL_DEVICES File=ASL$LIST_DEVICES.:E05TSI            TUE 07/29/97 10:07 Page:97
         4 002372   200034 116100                    CMPQ    DEV_TYPE,,AUTO
         4 002373   002567 601000 4                  TNZ     s:20209

      587    20176        /*  Calculate ACCT_LEN and MATCH_LEN  */
      588    20177    6                  CALL INDEX (ACCT_LEN,' ',USERS_KEY.TXTC);

  20177  4 002374   000000 124400                    SCM     mask='000'O
         4 002375   000000 200051 xsym               ADSC9   USERS_KEY                cn=1,n=41
         4 002376   000035 000001 xsym               ADSC9   B_VECTNIL+29             cn=0,n=1
         4 002377   200005 000100                    ARG     ACCT_LEN,,AUTO

      589    20178    6                  IF ACCT_LEN > 7 THEN ACCT_LEN = 8;

  20178  4 002400   200005 235100                    LDA     ACCT_LEN,,AUTO
         4 002401   000010 115007                    CMPA    8,DL
         4 002402   002406 602000 4                  TNC     s:20179

  20178  4 002403   000010 236007                    LDQ     8,DL
         4 002404   200005 756100                    STQ     ACCT_LEN,,AUTO
         4 002405   002412 710000 4                  TRA     s:20180

      590    20179    6                  ELSE IF ACCT_LEN = 0 THEN ACCT_LEN = 1;

  20179  4 002406   000000 115003                    CMPA    0,DU
         4 002407   002412 601000 4                  TNZ     s:20180

  20179  4 002410   000001 236007                    LDQ     1,DL
         4 002411   200005 756100                    STQ     ACCT_LEN,,AUTO

      591    20180    6                  CALL INDEX (MATCH_LEN,' ',TPDEV.ACCT);

  20180  4 002412   000000 124500                    SCM     mask='000'O
         4 002413   200077 200010                    ADSC9   TPDEV,,AUTO              cn=1,n=8
         4 002414   000035 000001 xsym               ADSC9   B_VECTNIL+29             cn=0,n=1
         4 002415   200063 000100                    ARG     MATCH_LEN,,AUTO

      592    20181    6                  IF MATCH_LEN > 7 THEN MATCH_LEN = 8;
PL6.E3A0      #001=ASL$LIST_ALL_DEVICES File=ASL$LIST_DEVICES.:E05TSI            TUE 07/29/97 10:07 Page:98

  20181  4 002416   200063 235100                    LDA     MATCH_LEN,,AUTO
         4 002417   000010 115007                    CMPA    8,DL
         4 002420   002424 602000 4                  TNC     s:20182

  20181  4 002421   000010 236007                    LDQ     8,DL
         4 002422   200063 756100                    STQ     MATCH_LEN,,AUTO
         4 002423   002430 710000 4                  TRA     s:20183

      593    20182    6                  ELSE IF MATCH_LEN = 0 THEN MATCH_LEN = 1;

  20182  4 002424   000000 115003                    CMPA    0,DU
         4 002425   002430 601000 4                  TNZ     s:20183

  20182  4 002426   000001 236007                    LDQ     1,DL
         4 002427   200063 756100                    STQ     MATCH_LEN,,AUTO

      594    20183    6                  ACCT = SUBSTR (USERS_KEY.TXTC,0,ACCT_LEN);

  20183  4 002430   200005 720100                    LXL0    ACCT_LEN,,AUTO
         4 002431   040100 100440                    MLR     fill='040'O
         4 002432   000000 200010 xsym               ADSC9   USERS_KEY                cn=1,n=*X0
         4 002433   200003 000010                    ADSC9   ACCT,,AUTO               cn=0,n=8

      595    20184    6                  CALL ASB$WILD_MATCH (ACCT_LEN,ACCT,MATCH_LEN,TPDEV.ACCT)

  20184  4 002434   200120 452500                    STP2    TWSN_NUMBER+6,,AUTO
         4 002435   200120 236100                    LDQ     TWSN_NUMBER+6,,AUTO
         4 002436   000031 036000 5                  ADLQ    25
         4 002437   200117 756100                    STQ     TWSN_NUMBER+5,,AUTO
         4 002440   200063 630500                    EPPR0   MATCH_LEN,,AUTO
         4 002441   200116 450500                    STP0    TWSN_NUMBER+4,,AUTO
         4 002442   200003 631500                    EPPR1   ACCT,,AUTO
         4 002443   200115 451500                    STP1    TWSN_NUMBER+3,,AUTO
         4 002444   200005 633500                    EPPR3   ACCT_LEN,,AUTO
         4 002445   200114 453500                    STP3    TWSN_NUMBER+2,,AUTO
         4 002446   200114 630500                    EPPR0   TWSN_NUMBER+2,,AUTO
PL6.E3A0      #001=ASL$LIST_ALL_DEVICES File=ASL$LIST_DEVICES.:E05TSI            TUE 07/29/97 10:07 Page:99
         4 002447   000022 631400 xsym               EPPR1   B_VECTNIL+18
         4 002450   000000 701000 xent               TSX1    ASB$WILD_MATCH
         4 002451   002567 702000 4                  TSX2    s:20209

      596    20185    7                  WHENRETURN DO;

      597    20186        /*  Calculate NAME_LEN and MATCH_LEN  */
      598    20187    7                     CALL INDEX (NAME_LEN,' ',USERS_KEY.TXTC,8);

  20187  4 002452   000000 124400                    SCM     mask='000'O
         4 002453   000002 200041 xsym               ADSC9   USERS_KEY+2              cn=1,n=33
         4 002454   000035 000001 xsym               ADSC9   B_VECTNIL+29             cn=0,n=1
         4 002455   200067 000100                    ARG     NAME_LEN,,AUTO
         4 002456   200067 235100                    LDA     NAME_LEN,,AUTO
         4 002457   000010 035007                    ADLA    8,DL
         4 002460   200067 755100                    STA     NAME_LEN,,AUTO

      599    20188    7                     IF NAME_LEN > 19 THEN NAME_LEN = 12;

  20188  4 002461   000024 115007                    CMPA    20,DL
         4 002462   002466 602000 4                  TNC     s:20189

  20188  4 002463   000014 236007                    LDQ     12,DL
         4 002464   200067 756100                    STQ     NAME_LEN,,AUTO
         4 002465   002475 710000 4                  TRA     s:20191

      600    20189    7                     ELSE IF NAME_LEN = 8 THEN NAME_LEN = 1;

  20189  4 002466   000010 115007                    CMPA    8,DL
         4 002467   002473 601000 4                  TNZ     s:20190

  20189  4 002470   000001 236007                    LDQ     1,DL
         4 002471   200067 756100                    STQ     NAME_LEN,,AUTO
         4 002472   002475 710000 4                  TRA     s:20191

      601    20190    7                        ELSE NAME_LEN = NAME_LEN - 8;

PL6.E3A0      #001=ASL$LIST_ALL_DEVICES File=ASL$LIST_DEVICES.:E05TSI            TUE 07/29/97 10:07 Page:100
  20190  4 002473   000010 135007                    SBLA    8,DL
         4 002474   200067 755100                    STA     NAME_LEN,,AUTO

      602    20191    7                     CALL INDEX (MATCH_LEN,' ',TPDEV.NAME);

  20191  4 002475   000000 124500                    SCM     mask='000'O
         4 002476   200101 200014                    ADSC9   TPDEV+2,,AUTO            cn=1,n=12
         4 002477   000035 000001 xsym               ADSC9   B_VECTNIL+29             cn=0,n=1
         4 002500   200063 000100                    ARG     MATCH_LEN,,AUTO

      603    20192    7                     IF MATCH_LEN > 11 THEN MATCH_LEN = 12;

  20192  4 002501   200063 235100                    LDA     MATCH_LEN,,AUTO
         4 002502   000014 115007                    CMPA    12,DL
         4 002503   002507 602000 4                  TNC     s:20193

  20192  4 002504   000014 236007                    LDQ     12,DL
         4 002505   200063 756100                    STQ     MATCH_LEN,,AUTO
         4 002506   002513 710000 4                  TRA     s:20194

      604    20193    7                     ELSE IF MATCH_LEN = 0 THEN MATCH_LEN = 1;

  20193  4 002507   000000 115003                    CMPA    0,DU
         4 002510   002513 601000 4                  TNZ     s:20194

  20193  4 002511   000001 236007                    LDQ     1,DL
         4 002512   200063 756100                    STQ     MATCH_LEN,,AUTO

      605    20194    7                     NAME = SUBSTR (USERS_KEY.TXTC,8,NAME_LEN);

  20194  4 002513   200067 720100                    LXL0    NAME_LEN,,AUTO
         4 002514   040100 100440                    MLR     fill='040'O
         4 002515   000002 200010 xsym               ADSC9   USERS_KEY+2              cn=1,n=*X0
         4 002516   200064 000014                    ADSC9   NAME,,AUTO               cn=0,n=12

      606    20195    7                     CALL ASB$WILD_MATCH (NAME_LEN,NAME,MATCH_LEN,TPDEV.NAME)

PL6.E3A0      #001=ASL$LIST_ALL_DEVICES File=ASL$LIST_DEVICES.:E05TSI            TUE 07/29/97 10:07 Page:101
  20195  4 002517   200120 452500                    STP2    TWSN_NUMBER+6,,AUTO
         4 002520   200120 236100                    LDQ     TWSN_NUMBER+6,,AUTO
         4 002521   000032 036000 5                  ADLQ    26
         4 002522   200117 756100                    STQ     TWSN_NUMBER+5,,AUTO
         4 002523   200063 630500                    EPPR0   MATCH_LEN,,AUTO
         4 002524   200116 450500                    STP0    TWSN_NUMBER+4,,AUTO
         4 002525   200064 631500                    EPPR1   NAME,,AUTO
         4 002526   200115 451500                    STP1    TWSN_NUMBER+3,,AUTO
         4 002527   200067 633500                    EPPR3   NAME_LEN,,AUTO
         4 002530   200114 453500                    STP3    TWSN_NUMBER+2,,AUTO
         4 002531   200114 630500                    EPPR0   TWSN_NUMBER+2,,AUTO
         4 002532   000022 631400 xsym               EPPR1   B_VECTNIL+18
         4 002533   000000 701000 xent               TSX1    ASB$WILD_MATCH
         4 002534   002567 702000 4                  TSX2    s:20209

      607    20196    8                     WHENRETURN DO;

      608    20197    9                        IF DISP THEN DO;

  20197  4 002535   200035 234100                    SZN     DISP,,AUTO
         4 002536   002554 605000 4                  TPL     s:20202

      609    20198    9                           CALL ASL$DISP_ONE_DEVICE (JCL, %NO# );

  20198  4 002537   000006 236000 5                  LDQ     6
         4 002540   200115 756100                    STQ     TWSN_NUMBER+3,,AUTO
         4 002541   200046 630500                    EPPR0   JCL,,AUTO
         4 002542   200114 450500                    STP0    TWSN_NUMBER+2,,AUTO
         4 002543   200114 630500                    EPPR0   TWSN_NUMBER+2,,AUTO
         4 002544   000020 631400 xsym               EPPR1   B_VECTNIL+16
         4 002545   000000 701000 xent               TSX1    ASL$DISP_ONE_DEVICE
         4 002546   000000 011000                    NOP     0

      610    20199    9                           CALL ASB$WRITE_LO (' ',1);

  20199  4 002547   000007 630400 5                  EPPR0   7
         4 002550   000020 631400 xsym               EPPR1   B_VECTNIL+16
PL6.E3A0      #001=ASL$LIST_ALL_DEVICES File=ASL$LIST_DEVICES.:E05TSI            TUE 07/29/97 10:07 Page:102
         4 002551   000000 701000 xent               TSX1    ASB$WRITE_LO
         4 002552   000000 011000                    NOP     0

      611    20200    9                           END;  /* Disp  */

  20200  4 002553   002564 710000 4                  TRA     s:20204

      612    20201    9                        ELSE DO;

      613    20202    9                           CALL ASL$FORMAT_DEVNAME (USERS_KEY, DISP_DEVICES);

  20202  4 002554   200036 630500                    EPPR0   DISP_DEVICES,,AUTO
         4 002555   200115 450500                    STP0    TWSN_NUMBER+3,,AUTO
         4 002556   000011 236000 5                  LDQ     9
         4 002557   200114 756100                    STQ     TWSN_NUMBER+2,,AUTO
         4 002560   200114 630500                    EPPR0   TWSN_NUMBER+2,,AUTO
         4 002561   000020 631400 xsym               EPPR1   B_VECTNIL+16
         4 002562   000000 701000 xent               TSX1    ASL$FORMAT_DEVNAME
         4 002563   000000 011000                    NOP     0

      614    20203    9                           END; /*  List  */

      615    20204    8                        DISP_DEVICES = DISP_DEVICES + 1;

  20204  4 002564   200036 235100                    LDA     DISP_DEVICES,,AUTO
         4 002565   000001 035007                    ADLA    1,DL
         4 002566   200036 755100                    STA     DISP_DEVICES,,AUTO

      616    20205    8                        END; /*  Whenreturn from ASB$WILD_MATCH on name  */

      617    20206    7                     END; /*  Whenreturn from ASB$WILD_MATCH on acct  */

      618    20207    6                  END; /*  Not check or .SUPER=DEV_TYPE  */

      619    20208    5               END; /*  Whenreturn from ASB$CHECK_TYPE  */

      620    20209    5            IF LAST_KEY ~= USERS_KEY THEN DO;
PL6.E3A0      #001=ASL$LIST_ALL_DEVICES File=ASL$LIST_DEVICES.:E05TSI            TUE 07/29/97 10:07 Page:103

  20209  4 002567   000000 106500                    CMPC    fill='000'O
         4 002570   200050 000052                    ADSC9   LAST_KEY,,AUTO           cn=0,n=42
         4 002571   000000 000052 xsym               ADSC9   USERS_KEY                cn=0,n=42
         4 002572   002601 600000 4                  TZE     s:20213

      621    20210    5               USERS_KEY = LAST_KEY;

  20210  4 002573   000000 100500                    MLR     fill='000'O
         4 002574   200050 000052                    ADSC9   LAST_KEY,,AUTO           cn=0,n=42
         4 002575   000000 000052 xsym               ADSC9   USERS_KEY                cn=0,n=42

      622    20211    5               CALL ASB$PREC_AND_SKIP_HLP;

  20211  4 002576   000002 631400 xsym               EPPR1   B_VECTNIL+2
         4 002577   000000 701000 xent               TSX1    ASB$PREC_AND_SKIP_HLP
         4 002600   000000 011000                    NOP     0

      623    20212    5               END; /*  Last ~= users  */

      624    20213    4            ARS = DSEG3SIZE;

  20213  4 002601   000000 235000 xsym               LDA     DSEG3SIZE
         4 002602   200006 755100                    STA     ARS,,AUTO

      625    20214    4            CALL ASB$READ_HLP_SEQ (DSEG3$, ARS, 3) ALTRET(FINISH_UP);

  20214  4 002603   000004 236000 5                  LDQ     4
         4 002604   200116 756100                    STQ     TWSN_NUMBER+4,,AUTO
         4 002605   200006 630500                    EPPR0   ARS,,AUTO
         4 002606   200115 450500                    STP0    TWSN_NUMBER+3,,AUTO
         4 002607   000005 236000 5                  LDQ     5
         4 002610   200114 756100                    STQ     TWSN_NUMBER+2,,AUTO
         4 002611   200114 630500                    EPPR0   TWSN_NUMBER+2,,AUTO
         4 002612   000021 631400 xsym               EPPR1   B_VECTNIL+17
         4 002613   000000 701000 xent               TSX1    ASB$READ_HLP_SEQ
         4 002614   003367 702000 4                  TSX2    FINISH_UP
PL6.E3A0      #001=ASL$LIST_ALL_DEVICES File=ASL$LIST_DEVICES.:E05TSI            TUE 07/29/97 10:07 Page:104

      626    20215    4            LAST_KEY = USERS_KEY ;

  20215  4 002615   000100 100400                    MLR     fill='000'O
         4 002616   000000 000052 xsym               ADSC9   USERS_KEY                cn=0,n=42
         4 002617   200050 000052                    ADSC9   LAST_KEY,,AUTO           cn=0,n=42

      627    20216    4            END; /*  Do while USERS_KEY < END_KEY  */

  20216  4 002620   040100 106400                    CMPC    fill='040'O
         4 002621   000000 200051 xsym               ADSC9   USERS_KEY                cn=1,n=41
         4 002622   200037 200024                    ADSC9   END_KEY,,AUTO            cn=1,n=20
         4 002623   002353 602000 4                  TNC     s:20173

      628    20217    3         END; /*  Whenreturn from ASB$READ_HLP_SEQ  */

  20217  4 002624   003323 710000 4                  TRA     s:20325

      629    20218
      630    20219    2      SELECT  (%SINGLE_TPDEVICE);

      631    20220
      632    20221    2      ARS = DSEG3SIZE;

  20221  4 002625   000000 235000 xsym               LDA     DSEG3SIZE
         4 002626   200006 755100                    STA     ARS,,AUTO

      633    20222    2      USERS_KEY = TPDEV;

  20222  4 002627   000000 100500                    MLR     fill='000'O
         4 002630   200077 000025                    ADSC9   TPDEV,,AUTO              cn=0,n=21
         4 002631   000000 000052 xsym               ADSC9   USERS_KEY                cn=0,n=42

      634    20223    2      CALL INDEX (I,' ',TPDEV.ACCT);

  20223  4 002632   000000 124500                    SCM     mask='000'O
         4 002633   200077 200010                    ADSC9   TPDEV,,AUTO              cn=1,n=8
PL6.E3A0      #001=ASL$LIST_ALL_DEVICES File=ASL$LIST_DEVICES.:E05TSI            TUE 07/29/97 10:07 Page:105
         4 002634   000035 000001 xsym               ADSC9   B_VECTNIL+29             cn=0,n=1
         4 002635   200045 000100                    ARG     I,,AUTO

      635    20224    2      CALL INDEX (COUNT,' ',TPDEV.NAME);

  20224  4 002636   000000 124500                    SCM     mask='000'O
         4 002637   200101 200014                    ADSC9   TPDEV+2,,AUTO            cn=1,n=12
         4 002640   000035 000001 xsym               ADSC9   B_VECTNIL+29             cn=0,n=1
         4 002641   200017 000100                    ARG     COUNT,,AUTO

      636    20225    2     CALL CONCAT (AS_FIELD1.TEXT,SUBSTR(TPDEV.ACCT,0,I),',',SUBSTR(TPDEV.NAME,0,COUNT)
             20225               );

  20225  4 002642   200045 720100                    LXL0    I,,AUTO
         4 002643   040000 100540                    MLR     fill='040'O
         4 002644   200077 200010                    ADSC9   TPDEV,,AUTO              cn=1,n=*X0
         4 002645   000000 200050 xsym               ADSC9   AS_FIELD1                cn=1,n=40
         4 002646   200045 236100                    LDQ     I,,AUTO
         4 002647   000050 116007                    CMPQ    40,DL
         4 002650   002666 605000 4                  TPL     s:20226
         4 002651   777727 621006                    EAX1    -41,QL
         4 002652   777777 661003                    ERX1    -1,DU
         4 002653   040046 100400                    MLR     fill='040'O
         4 002654   000033 000001 5                  ADSC9   27                       cn=0,n=1
         4 002655   000000 200011 xsym               ADSC9   AS_FIELD1,Q              cn=1,n=*X1
         4 002656   000047 116007                    CMPQ    39,DL
         4 002657   002666 605000 4                  TPL     s:20226
         4 002660   777730 622006                    EAX2    -40,QL
         4 002661   777777 662003                    ERX2    -1,DU
         4 002662   200017 723100                    LXL3    COUNT,,AUTO
         4 002663   040046 100540                    MLR     fill='040'O
         4 002664   200101 200013                    ADSC9   TPDEV+2,,AUTO            cn=1,n=*X3
         4 002665   000000 400012 xsym               ADSC9   AS_FIELD1,Q              cn=2,n=*X2

      637    20226    2      AS_FIELD1.COUNT = I + COUNT + 1;

  20226  4 002666   200017 036100                    ADLQ    COUNT,,AUTO
PL6.E3A0      #001=ASL$LIST_ALL_DEVICES File=ASL$LIST_DEVICES.:E05TSI            TUE 07/29/97 10:07 Page:106
         4 002667   000001 036007                    ADLQ    1,DL
         4 002670   000033 736000                    QLS     27
         4 002671   000000 552040 xsym               STBQ    AS_FIELD1,'40'O

      638    20227    3      CALL ASB$READ_HLP (DSEG3$, ARS, 3) WHENALTRETURN DO;

  20227  4 002672   000004 236000 5                  LDQ     4
         4 002673   200116 756100                    STQ     TWSN_NUMBER+4,,AUTO
         4 002674   200006 630500                    EPPR0   ARS,,AUTO
         4 002675   200115 450500                    STP0    TWSN_NUMBER+3,,AUTO
         4 002676   000005 236000 5                  LDQ     5
         4 002677   200114 756100                    STQ     TWSN_NUMBER+2,,AUTO
         4 002700   200114 630500                    EPPR0   TWSN_NUMBER+2,,AUTO
         4 002701   000021 631400 xsym               EPPR1   B_VECTNIL+17
         4 002702   000000 701000 xent               TSX1    ASB$READ_HLP
         4 002703   002705 702000 4                  TSX2    s:20240
         4 002704   002712 710000 4                  TRA     s:20245

      639    20228              %SCREAM (ERR#=E$DEV_NO_EXIST2,LEVEL=ERROR,MID='L');

  20240  4 002705   000034 630400 5                  EPPR0   28
         4 002706   000017 631400 xsym               EPPR1   B_VECTNIL+15
         4 002707   000000 701000 xent               TSX1    ASH$ERROR
         4 002710   000000 011000                    NOP     0

      640    20243    3         RETURN;

  20243  4 002711   000000 702200 xent               TSX2  ! X66_ARET

      641    20244    3         END; /*   Whenreturn from ASB$READ_HLP  */
      642    20245    3      IF KL$TREC.SUPER = DEV_TYPE THEN DO;

  20245  4 002712   000000 470400 xsym               LDP0    DSEG3$
         4 002713   000000 236100                    LDQ     0,,PR0
         4 002714   000777 376007                    ANQ     511,DL
         4 002715   200034 116100                    CMPQ    DEV_TYPE,,AUTO
         4 002716   003323 601000 4                  TNZ     s:20325
PL6.E3A0      #001=ASL$LIST_ALL_DEVICES File=ASL$LIST_DEVICES.:E05TSI            TUE 07/29/97 10:07 Page:107

      643    20246    4         IF DISP THEN DO;

  20246  4 002717   200035 234100                    SZN     DISP,,AUTO
         4 002720   002736 605000 4                  TPL     s:20251

      644    20247    4            CALL ASL$DISP_ONE_DEVICE (JCL, %NO# );

  20247  4 002721   000006 236000 5                  LDQ     6
         4 002722   200115 756100                    STQ     TWSN_NUMBER+3,,AUTO
         4 002723   200046 631500                    EPPR1   JCL,,AUTO
         4 002724   200114 451500                    STP1    TWSN_NUMBER+2,,AUTO
         4 002725   200114 630500                    EPPR0   TWSN_NUMBER+2,,AUTO
         4 002726   000020 631400 xsym               EPPR1   B_VECTNIL+16
         4 002727   000000 701000 xent               TSX1    ASL$DISP_ONE_DEVICE
         4 002730   000000 011000                    NOP     0

      645    20248    4            CALL ASB$WRITE_LO (' ',1);

  20248  4 002731   000007 630400 5                  EPPR0   7
         4 002732   000020 631400 xsym               EPPR1   B_VECTNIL+16
         4 002733   000000 701000 xent               TSX1    ASB$WRITE_LO
         4 002734   000000 011000                    NOP     0

      646    20249    4            END;  /*  Disp  */

  20249  4 002735   002746 710000 4                  TRA     s:20253

      647    20250    4         ELSE DO;

      648    20251    4            CALL ASL$FORMAT_DEVNAME (USERS_KEY, DISP_DEVICES);

  20251  4 002736   200036 631500                    EPPR1   DISP_DEVICES,,AUTO
         4 002737   200115 451500                    STP1    TWSN_NUMBER+3,,AUTO
         4 002740   000011 236000 5                  LDQ     9
         4 002741   200114 756100                    STQ     TWSN_NUMBER+2,,AUTO
         4 002742   200114 630500                    EPPR0   TWSN_NUMBER+2,,AUTO
PL6.E3A0      #001=ASL$LIST_ALL_DEVICES File=ASL$LIST_DEVICES.:E05TSI            TUE 07/29/97 10:07 Page:108
         4 002743   000020 631400 xsym               EPPR1   B_VECTNIL+16
         4 002744   000000 701000 xent               TSX1    ASL$FORMAT_DEVNAME
         4 002745   000000 011000                    NOP     0

      649    20252    4            END; /*  List  */

      650    20253    3         DISP_DEVICES = DISP_DEVICES + 1;

  20253  4 002746   200036 235100                    LDA     DISP_DEVICES,,AUTO
         4 002747   000001 035007                    ADLA    1,DL
         4 002750   200036 755100                    STA     DISP_DEVICES,,AUTO

      651    20254    3         END; /*  KL$TREC.SUPER = DEV_TYPE  */

  20254  4 002751   003323 710000 4                  TRA     s:20325

      652    20255
      653    20256    2      SELECT  (%DEV_WILD);

      654    20257
      655    20258                 /*  Setup begin key  */
      656    20259                 /*  Setup end key  */
      657    20260    2      CALL INDEX (I,'?',DEV_NAME.TEXT);

  20260  4 002752   000000 124500                    SCM     mask='000'O
         4 002753   200021 200010                    ADSC9   DEV_NAME,,AUTO           cn=1,n=8
         4 002754   000000 000001 5                  ADSC9   0                        cn=0,n=1
         4 002755   200045 000100                    ARG     I,,AUTO

      658    20261    2      BEGIN_KEY.TEXT = SUBSTR (DEV_NAME.TEXT,0,I);

  20261  4 002756   200045 720100                    LXL0    I,,AUTO
         4 002757   040100 100540                    MLR     fill='040'O
         4 002760   200021 200010                    ADSC9   DEV_NAME,,AUTO           cn=1,n=*X0
         4 002761   200007 200024                    ADSC9   BEGIN_KEY,,AUTO          cn=1,n=20

      659    20262    2      CALL CONCAT (END_KEY.TEXT,SUBSTR (DEV_NAME.TEXT,0,I),'~');
PL6.E3A0      #001=ASL$LIST_ALL_DEVICES File=ASL$LIST_DEVICES.:E05TSI            TUE 07/29/97 10:07 Page:109

  20262  4 002762   040100 100540                    MLR     fill='040'O
         4 002763   200021 200010                    ADSC9   DEV_NAME,,AUTO           cn=1,n=*X0
         4 002764   200037 200024                    ADSC9   END_KEY,,AUTO            cn=1,n=20
         4 002765   200045 236100                    LDQ     I,,AUTO
         4 002766   000024 116007                    CMPQ    20,DL
         4 002767   002775 605000 4                  TPL     s:20263
         4 002770   777753 621006                    EAX1    -21,QL
         4 002771   777777 661003                    ERX1    -1,DU
         4 002772   040146 100400                    MLR     fill='040'O
         4 002773   000030 000001 5                  ADSC9   24                       cn=0,n=1
         4 002774   200037 200011                    ADSC9   END_KEY,Q,AUTO           cn=1,n=*X1

      660    20263    2      BEGIN_KEY.COUNT = 8;

  20263  4 002775   010000 236003                    LDQ     4096,DU
         4 002776   200007 552140                    STBQ    BEGIN_KEY,'40'O,AUTO

      661    20264    2      END_KEY.COUNT = 8;

  20264  4 002777   200037 552140                    STBQ    END_KEY,'40'O,AUTO

      662    20265    2      USERS_KEY = BEGIN_KEY;

  20265  4 003000   000000 100500                    MLR     fill='000'O
         4 003001   200007 000025                    ADSC9   BEGIN_KEY,,AUTO          cn=0,n=21
         4 003002   000000 000052 xsym               ADSC9   USERS_KEY                cn=0,n=42

      663    20266    2      CALL ASB$PREC_HLP;

  20266  4 003003   000002 631400 xsym               EPPR1   B_VECTNIL+2
         4 003004   000000 701000 xent               TSX1    ASB$PREC_HLP
         4 003005   000000 011000                    NOP     0

      664    20267    2      ARS = DSEG3SIZE;

  20267  4 003006   000000 235000 xsym               LDA     DSEG3SIZE
PL6.E3A0      #001=ASL$LIST_ALL_DEVICES File=ASL$LIST_DEVICES.:E05TSI            TUE 07/29/97 10:07 Page:110
         4 003007   200006 755100                    STA     ARS,,AUTO

      665    20268    3      CALL ASB$READ_HLP_SEQ (DSEG3$,ARS,3) WHENRETURN DO;

  20268  4 003010   000004 236000 5                  LDQ     4
         4 003011   200116 756100                    STQ     TWSN_NUMBER+4,,AUTO
         4 003012   200006 630500                    EPPR0   ARS,,AUTO
         4 003013   200115 450500                    STP0    TWSN_NUMBER+3,,AUTO
         4 003014   000005 236000 5                  LDQ     5
         4 003015   200114 756100                    STQ     TWSN_NUMBER+2,,AUTO
         4 003016   200114 630500                    EPPR0   TWSN_NUMBER+2,,AUTO
         4 003017   000021 631400 xsym               EPPR1   B_VECTNIL+17
         4 003020   000000 701000 xent               TSX1    ASB$READ_HLP_SEQ
         4 003021   003217 702000 4                  TSX2    s:20303

      666    20269    3         LAST_KEY = USERS_KEY;

  20269  4 003022   000100 100400                    MLR     fill='000'O
         4 003023   000000 000052 xsym               ADSC9   USERS_KEY                cn=0,n=42
         4 003024   200050 000052                    ADSC9   LAST_KEY,,AUTO           cn=0,n=42

      667    20270    4         DO WHILE USERS_KEY.TXTC < END_KEY.TEXT;

  20270  4 003025   040100 106400                    CMPC    fill='040'O
         4 003026   000000 200051 xsym               ADSC9   USERS_KEY                cn=1,n=41
         4 003027   200037 200024                    ADSC9   END_KEY,,AUTO            cn=1,n=20
         4 003030   003217 603000 4                  TRC     s:20303

      668    20271    4            CALL ASB$CHECK_TYPE (DSEG3$, ARS, DEV_TYPE)

  20271  4 003031   200034 630500                    EPPR0   DEV_TYPE,,AUTO
         4 003032   200116 450500                    STP0    TWSN_NUMBER+4,,AUTO
         4 003033   200006 631500                    EPPR1   ARS,,AUTO
         4 003034   200115 451500                    STP1    TWSN_NUMBER+3,,AUTO
         4 003035   000005 236000 5                  LDQ     5
         4 003036   200114 756100                    STQ     TWSN_NUMBER+2,,AUTO
         4 003037   200114 630500                    EPPR0   TWSN_NUMBER+2,,AUTO
PL6.E3A0      #001=ASL$LIST_ALL_DEVICES File=ASL$LIST_DEVICES.:E05TSI            TUE 07/29/97 10:07 Page:111
         4 003040   000021 631400 xsym               EPPR1   B_VECTNIL+17
         4 003041   000000 701000 xent               TSX1    ASB$CHECK_TYPE
         4 003042   003162 702000 4                  TSX2    s:20295

      669    20272    5            WHENRETURN DO;

      670    20273    6               IF NOT CHECK OR KL$TREC.SUPER = DEV_TYPE THEN DO;

  20273  4 003043   200016 234100                    SZN     CHECK,,AUTO
         4 003044   003052 605000 4                  TPL     s:20275
         4 003045   000000 470400 xsym               LDP0    DSEG3$
         4 003046   000000 236100                    LDQ     0,,PR0
         4 003047   000777 376007                    ANQ     511,DL
         4 003050   200034 116100                    CMPQ    DEV_TYPE,,AUTO
         4 003051   003162 601000 4                  TNZ     s:20295

      671    20274        /*  Calculate ACCT_LEN and MATCH_LEN  */
      672    20275    6                  CALL INDEX (ACCT_LEN,' ',USERS_KEY.TXTC);

  20275  4 003052   000000 124400                    SCM     mask='000'O
         4 003053   000000 200051 xsym               ADSC9   USERS_KEY                cn=1,n=41
         4 003054   000035 000001 xsym               ADSC9   B_VECTNIL+29             cn=0,n=1
         4 003055   200005 000100                    ARG     ACCT_LEN,,AUTO

      673    20276    6                  IF ACCT_LEN > 7 THEN ACCT_LEN = 8;

  20276  4 003056   200005 235100                    LDA     ACCT_LEN,,AUTO
         4 003057   000010 115007                    CMPA    8,DL
         4 003060   003064 602000 4                  TNC     s:20277

  20276  4 003061   000010 236007                    LDQ     8,DL
         4 003062   200005 756100                    STQ     ACCT_LEN,,AUTO
         4 003063   003070 710000 4                  TRA     s:20278

      674    20277    6                  ELSE IF ACCT_LEN = 0 THEN ACCT_LEN = 1;

  20277  4 003064   000000 115003                    CMPA    0,DU
PL6.E3A0      #001=ASL$LIST_ALL_DEVICES File=ASL$LIST_DEVICES.:E05TSI            TUE 07/29/97 10:07 Page:112
         4 003065   003070 601000 4                  TNZ     s:20278

  20277  4 003066   000001 236007                    LDQ     1,DL
         4 003067   200005 756100                    STQ     ACCT_LEN,,AUTO

      675    20278    6                  CALL INDEX (MATCH_LEN,' ',DEV_NAME.TEXT);

  20278  4 003070   000000 124500                    SCM     mask='000'O
         4 003071   200021 200010                    ADSC9   DEV_NAME,,AUTO           cn=1,n=8
         4 003072   000035 000001 xsym               ADSC9   B_VECTNIL+29             cn=0,n=1
         4 003073   200063 000100                    ARG     MATCH_LEN,,AUTO

      676    20279    6                  IF MATCH_LEN > 7 THEN MATCH_LEN = 8;

  20279  4 003074   200063 235100                    LDA     MATCH_LEN,,AUTO
         4 003075   000010 115007                    CMPA    8,DL
         4 003076   003102 602000 4                  TNC     s:20280

  20279  4 003077   000010 236007                    LDQ     8,DL
         4 003100   200063 756100                    STQ     MATCH_LEN,,AUTO
         4 003101   003106 710000 4                  TRA     s:20281

      677    20280    6                  ELSE IF MATCH_LEN = 0 THEN MATCH_LEN = 1;

  20280  4 003102   000000 115003                    CMPA    0,DU
         4 003103   003106 601000 4                  TNZ     s:20281

  20280  4 003104   000001 236007                    LDQ     1,DL
         4 003105   200063 756100                    STQ     MATCH_LEN,,AUTO

      678    20281    6                  ACCT = SUBSTR (USERS_KEY.TXTC,0,ACCT_LEN);

  20281  4 003106   200005 720100                    LXL0    ACCT_LEN,,AUTO
         4 003107   040100 100440                    MLR     fill='040'O
         4 003110   000000 200010 xsym               ADSC9   USERS_KEY                cn=1,n=*X0
         4 003111   200003 000010                    ADSC9   ACCT,,AUTO               cn=0,n=8

PL6.E3A0      #001=ASL$LIST_ALL_DEVICES File=ASL$LIST_DEVICES.:E05TSI            TUE 07/29/97 10:07 Page:113
      679    20282    6                  CALL ASB$WILD_MATCH (ACCT_LEN,ACCT,MATCH_LEN,DEV_NAME.TEXT)

  20282  4 003112   200120 452500                    STP2    TWSN_NUMBER+6,,AUTO
         4 003113   200120 236100                    LDQ     TWSN_NUMBER+6,,AUTO
         4 003114   000016 036000 5                  ADLQ    14
         4 003115   200117 756100                    STQ     TWSN_NUMBER+5,,AUTO
         4 003116   200063 630500                    EPPR0   MATCH_LEN,,AUTO
         4 003117   200116 450500                    STP0    TWSN_NUMBER+4,,AUTO
         4 003120   200003 631500                    EPPR1   ACCT,,AUTO
         4 003121   200115 451500                    STP1    TWSN_NUMBER+3,,AUTO
         4 003122   200005 633500                    EPPR3   ACCT_LEN,,AUTO
         4 003123   200114 453500                    STP3    TWSN_NUMBER+2,,AUTO
         4 003124   200114 630500                    EPPR0   TWSN_NUMBER+2,,AUTO
         4 003125   000022 631400 xsym               EPPR1   B_VECTNIL+18
         4 003126   000000 701000 xent               TSX1    ASB$WILD_MATCH
         4 003127   003162 702000 4                  TSX2    s:20295

      680    20283    7                  WHENRETURN DO;

      681    20284    8                     IF DISP THEN DO;

  20284  4 003130   200035 234100                    SZN     DISP,,AUTO
         4 003131   003147 605000 4                  TPL     s:20289

      682    20285    8                        CALL ASL$DISP_ONE_DEVICE (JCL, %NO# );

  20285  4 003132   000006 236000 5                  LDQ     6
         4 003133   200115 756100                    STQ     TWSN_NUMBER+3,,AUTO
         4 003134   200046 630500                    EPPR0   JCL,,AUTO
         4 003135   200114 450500                    STP0    TWSN_NUMBER+2,,AUTO
         4 003136   200114 630500                    EPPR0   TWSN_NUMBER+2,,AUTO
         4 003137   000020 631400 xsym               EPPR1   B_VECTNIL+16
         4 003140   000000 701000 xent               TSX1    ASL$DISP_ONE_DEVICE
         4 003141   000000 011000                    NOP     0

      683    20286    8                        CALL ASB$WRITE_LO (' ',1);

PL6.E3A0      #001=ASL$LIST_ALL_DEVICES File=ASL$LIST_DEVICES.:E05TSI            TUE 07/29/97 10:07 Page:114
  20286  4 003142   000007 630400 5                  EPPR0   7
         4 003143   000020 631400 xsym               EPPR1   B_VECTNIL+16
         4 003144   000000 701000 xent               TSX1    ASB$WRITE_LO
         4 003145   000000 011000                    NOP     0

      684    20287    8                        END;   /*  Disp  */

  20287  4 003146   003157 710000 4                  TRA     s:20291

      685    20288    8                     ELSE DO;

      686    20289    8                        CALL ASL$FORMAT_DEVNAME (USERS_KEY, DISP_DEVICES);

  20289  4 003147   200036 630500                    EPPR0   DISP_DEVICES,,AUTO
         4 003150   200115 450500                    STP0    TWSN_NUMBER+3,,AUTO
         4 003151   000011 236000 5                  LDQ     9
         4 003152   200114 756100                    STQ     TWSN_NUMBER+2,,AUTO
         4 003153   200114 630500                    EPPR0   TWSN_NUMBER+2,,AUTO
         4 003154   000020 631400 xsym               EPPR1   B_VECTNIL+16
         4 003155   000000 701000 xent               TSX1    ASL$FORMAT_DEVNAME
         4 003156   000000 011000                    NOP     0

      687    20290    8                        END; /*  List  */

      688    20291    7                     DISP_DEVICES = DISP_DEVICES + 1;

  20291  4 003157   200036 235100                    LDA     DISP_DEVICES,,AUTO
         4 003160   000001 035007                    ADLA    1,DL
         4 003161   200036 755100                    STA     DISP_DEVICES,,AUTO

      689    20292    7                     END; /*  Whenreturn from ASB$WILD_MATCH on acct  */

      690    20293    6                  END; /*  Not check or .SUPER = DEV_TYPE  */

      691    20294    5               END; /*  Whenreturn from ASB$CHECK_TYPE  */

      692    20295    5            IF LAST_KEY ~= USERS_KEY THEN DO;
PL6.E3A0      #001=ASL$LIST_ALL_DEVICES File=ASL$LIST_DEVICES.:E05TSI            TUE 07/29/97 10:07 Page:115

  20295  4 003162   000000 106500                    CMPC    fill='000'O
         4 003163   200050 000052                    ADSC9   LAST_KEY,,AUTO           cn=0,n=42
         4 003164   000000 000052 xsym               ADSC9   USERS_KEY                cn=0,n=42
         4 003165   003174 600000 4                  TZE     s:20299

      693    20296    5               USERS_KEY = LAST_KEY;

  20296  4 003166   000000 100500                    MLR     fill='000'O
         4 003167   200050 000052                    ADSC9   LAST_KEY,,AUTO           cn=0,n=42
         4 003170   000000 000052 xsym               ADSC9   USERS_KEY                cn=0,n=42

      694    20297    5               CALL ASB$PREC_AND_SKIP_HLP;

  20297  4 003171   000002 631400 xsym               EPPR1   B_VECTNIL+2
         4 003172   000000 701000 xent               TSX1    ASB$PREC_AND_SKIP_HLP
         4 003173   000000 011000                    NOP     0

      695    20298    5               END;  /*  Last ~= users  */

      696    20299    4            ARS = DSEG3SIZE;

  20299  4 003174   000000 235000 xsym               LDA     DSEG3SIZE
         4 003175   200006 755100                    STA     ARS,,AUTO

      697    20300    4            CALL ASB$READ_HLP_SEQ (DSEG3$, ARS, 3) ALTRET(FINISH_UP);

  20300  4 003176   000004 236000 5                  LDQ     4
         4 003177   200116 756100                    STQ     TWSN_NUMBER+4,,AUTO
         4 003200   200006 630500                    EPPR0   ARS,,AUTO
         4 003201   200115 450500                    STP0    TWSN_NUMBER+3,,AUTO
         4 003202   000005 236000 5                  LDQ     5
         4 003203   200114 756100                    STQ     TWSN_NUMBER+2,,AUTO
         4 003204   200114 630500                    EPPR0   TWSN_NUMBER+2,,AUTO
         4 003205   000021 631400 xsym               EPPR1   B_VECTNIL+17
         4 003206   000000 701000 xent               TSX1    ASB$READ_HLP_SEQ
         4 003207   003367 702000 4                  TSX2    FINISH_UP
PL6.E3A0      #001=ASL$LIST_ALL_DEVICES File=ASL$LIST_DEVICES.:E05TSI            TUE 07/29/97 10:07 Page:116

      698    20301    4            LAST_KEY = USERS_KEY;

  20301  4 003210   000100 100400                    MLR     fill='000'O
         4 003211   000000 000052 xsym               ADSC9   USERS_KEY                cn=0,n=42
         4 003212   200050 000052                    ADSC9   LAST_KEY,,AUTO           cn=0,n=42

      699    20302    4            END; /*  Do while USERS_KEY < END_KEY  */

  20302  4 003213   040100 106400                    CMPC    fill='040'O
         4 003214   000000 200051 xsym               ADSC9   USERS_KEY                cn=1,n=41
         4 003215   200037 200024                    ADSC9   END_KEY,,AUTO            cn=1,n=20
         4 003216   003031 602000 4                  TNC     s:20271

      700    20303    3         END; /*  Whenreturn from ASB$READ_HLP_SEQ  */

  20303  4 003217   003323 710000 4                  TRA     s:20325

      701    20304
      702    20305    2      SELECT  (%SINGLE_DEVICE);

      703    20306
      704    20307    2      USERS_KEY.COUNT = 9;

  20307  4 003220   011000 236003                    LDQ     4608,DU
         4 003221   000000 552040 xsym               STBQ    USERS_KEY,'40'O

      705    20308    2      CALL CONCAT( USERS_KEY.TXTC, DEV_NAME.TEXT, '*' );

  20308  4 003222   040000 100500                    MLR     fill='040'O
         4 003223   200021 200010                    ADSC9   DEV_NAME,,AUTO           cn=1,n=8
         4 003224   000000 200010 xsym               ADSC9   USERS_KEY                cn=1,n=8
         4 003225   040000 100400                    MLR     fill='040'O
         4 003226   000025 000001 5                  ADSC9   21                       cn=0,n=1
         4 003227   000002 200041 xsym               ADSC9   USERS_KEY+2              cn=1,n=33

      706    20309    2      ARS = DSEG3SIZE;
PL6.E3A0      #001=ASL$LIST_ALL_DEVICES File=ASL$LIST_DEVICES.:E05TSI            TUE 07/29/97 10:07 Page:117

  20309  4 003230   000000 235000 xsym               LDA     DSEG3SIZE
         4 003231   200006 755100                    STA     ARS,,AUTO

      707    20310    2      CALL ASB$READ_HLP( DSEG3$, ARS, 3) ALTRET(RD_ALT2);

  20310  4 003232   000004 236000 5                  LDQ     4
         4 003233   200116 756100                    STQ     TWSN_NUMBER+4,,AUTO
         4 003234   200006 630500                    EPPR0   ARS,,AUTO
         4 003235   200115 450500                    STP0    TWSN_NUMBER+3,,AUTO
         4 003236   000005 236000 5                  LDQ     5
         4 003237   200114 756100                    STQ     TWSN_NUMBER+2,,AUTO
         4 003240   200114 630500                    EPPR0   TWSN_NUMBER+2,,AUTO
         4 003241   000021 631400 xsym               EPPR1   B_VECTNIL+17
         4 003242   000000 701000 xent               TSX1    ASB$READ_HLP
         4 003243   003324 702000 4                  TSX2    RD_ALT2

      708    20311    2      CALL ASB$CHECK_TYPE( DSEG3$, ARS, DEV_TYPE, %NO#, DEV_NAME ) ALTRET(FINISH_UP);

  20311  4 003244   200021 630500                    EPPR0   DEV_NAME,,AUTO
         4 003245   200120 450500                    STP0    TWSN_NUMBER+6,,AUTO
         4 003246   000006 236000 5                  LDQ     6
         4 003247   200117 756100                    STQ     TWSN_NUMBER+5,,AUTO
         4 003250   200034 631500                    EPPR1   DEV_TYPE,,AUTO
         4 003251   200116 451500                    STP1    TWSN_NUMBER+4,,AUTO
         4 003252   200006 633500                    EPPR3   ARS,,AUTO
         4 003253   200115 453500                    STP3    TWSN_NUMBER+3,,AUTO
         4 003254   000005 236000 5                  LDQ     5
         4 003255   200114 756100                    STQ     TWSN_NUMBER+2,,AUTO
         4 003256   200114 630500                    EPPR0   TWSN_NUMBER+2,,AUTO
         4 003257   000023 631400 xsym               EPPR1   B_VECTNIL+19
         4 003260   000000 701000 xent               TSX1    ASB$CHECK_TYPE
         4 003261   003367 702000 4                  TSX2    FINISH_UP

      709    20312    3      IF NOT CHECK OR KL$TREC.SUPER = DEV_TYPE THEN DO;

  20312  4 003262   200016 234100                    SZN     CHECK,,AUTO
PL6.E3A0      #001=ASL$LIST_ALL_DEVICES File=ASL$LIST_DEVICES.:E05TSI            TUE 07/29/97 10:07 Page:118
         4 003263   003271 605000 4                  TPL     s:20313
         4 003264   000000 470400 xsym               LDP0    DSEG3$
         4 003265   000000 236100                    LDQ     0,,PR0
         4 003266   000777 376007                    ANQ     511,DL
         4 003267   200034 116100                    CMPQ    DEV_TYPE,,AUTO
         4 003270   003323 601000 4                  TNZ     s:20325

      710    20313    4         IF DISP THEN DO;

  20313  4 003271   200035 234100                    SZN     DISP,,AUTO
         4 003272   003310 605000 4                  TPL     s:20318

      711    20314    4            CALL ASL$DISP_ONE_DEVICE (JCL, %NO# );

  20314  4 003273   000006 236000 5                  LDQ     6
         4 003274   200115 756100                    STQ     TWSN_NUMBER+3,,AUTO
         4 003275   200046 630500                    EPPR0   JCL,,AUTO
         4 003276   200114 450500                    STP0    TWSN_NUMBER+2,,AUTO
         4 003277   200114 630500                    EPPR0   TWSN_NUMBER+2,,AUTO
         4 003300   000020 631400 xsym               EPPR1   B_VECTNIL+16
         4 003301   000000 701000 xent               TSX1    ASL$DISP_ONE_DEVICE
         4 003302   000000 011000                    NOP     0

      712    20315    4            CALL ASB$WRITE_LO (' ',1);

  20315  4 003303   000007 630400 5                  EPPR0   7
         4 003304   000020 631400 xsym               EPPR1   B_VECTNIL+16
         4 003305   000000 701000 xent               TSX1    ASB$WRITE_LO
         4 003306   000000 011000                    NOP     0

      713    20316    4            END;   /*  Disp  */

  20316  4 003307   003320 710000 4                  TRA     s:20320

      714    20317    4         ELSE DO;

      715    20318    4            CALL ASL$FORMAT_DEVNAME (USERS_KEY, DISP_DEVICES);
PL6.E3A0      #001=ASL$LIST_ALL_DEVICES File=ASL$LIST_DEVICES.:E05TSI            TUE 07/29/97 10:07 Page:119

  20318  4 003310   200036 630500                    EPPR0   DISP_DEVICES,,AUTO
         4 003311   200115 450500                    STP0    TWSN_NUMBER+3,,AUTO
         4 003312   000011 236000 5                  LDQ     9
         4 003313   200114 756100                    STQ     TWSN_NUMBER+2,,AUTO
         4 003314   200114 630500                    EPPR0   TWSN_NUMBER+2,,AUTO
         4 003315   000020 631400 xsym               EPPR1   B_VECTNIL+16
         4 003316   000000 701000 xent               TSX1    ASL$FORMAT_DEVNAME
         4 003317   000000 011000                    NOP     0

      716    20319    4            END; /*  List  */

      717    20320    3         DISP_DEVICES = DISP_DEVICES + 1;

  20320  4 003320   200036 235100                    LDA     DISP_DEVICES,,AUTO
         4 003321   000001 035007                    ADLA    1,DL
         4 003322   200036 755100                    STA     DISP_DEVICES,,AUTO

      718    20321    3         END;  /*  Not check or KL$TREC.SUPER = DEV_TYPE  */

      719    20322
      720    20323    2      END; /*  Do case (OPTION_CODE)  */

      721    20324
      722    20325    2   DO NEVER;

  20325  4 003323   003367 710000 4                  TRA     FINISH_UP

      723    20326    2   RD_ALT2:
      724    20327    3      IF MERR_CODE.CODE = %E$NOKEY THEN DO;

  20327  4 003324   000000 236000 xsym  RD_ALT2      LDQ     ERR_CODE
         4 003325   377770 376007                    ANQ     131064,DL
         4 003326   001020 116007                    CMPQ    528,DL
         4 003327   003340 601000 4                  TNZ     s:20349

      725    20328        /*E*  ERROR:  ASL-E$DEV_NO_EXIST2-C
PL6.E3A0      #001=ASL$LIST_ALL_DEVICES File=ASL$LIST_DEVICES.:E05TSI            TUE 07/29/97 10:07 Page:120
      726    20329              MESSAGE: %U1 does not exist.
      727    20330              MESSAGE1: The specified DEVICE does not exist.
      728    20331        */
      729    20332    3         AS_FIELD1 = DEV_NAME;

  20332  4 003330   000000 100500                    MLR     fill='000'O
         4 003331   200021 000051                    ADSC9   DEV_NAME,,AUTO           cn=0,n=41
         4 003332   000000 000051 xsym               ADSC9   AS_FIELD1                cn=0,n=41

      730    20333              %SCREAM( ERR#=E$DEV_NO_EXIST2, LEVEL=ERROR, MID='L' );

  20345  4 003333   000034 630400 5                  EPPR0   28
         4 003334   000017 631400 xsym               EPPR1   B_VECTNIL+15
         4 003335   000000 701000 xent               TSX1    ASH$ERROR
         4 003336   000000 011000                    NOP     0

      731    20348    3         END; /*  Error  */

  20348  4 003337   003344 710000 4                  TRA     s:20350

      732    20349    2      ELSE CALL ASA$ERROR( USERS_KEY, E$UNABLE_TO_READ_HLP );

  20349  4 003340   000013 630400 5                  EPPR0   11
         4 003341   000020 631400 xsym               EPPR1   B_VECTNIL+16
         4 003342   000000 701000 xent               TSX1    ASA$ERROR
         4 003343   000000 011000                    NOP     0

      733    20350    2      GOTO FINISH_UP;

  20350  4 003344   003367 710000 4                  TRA     FINISH_UP

      734    20351
      735    20352    3   READ_ALT3: IF MERR_CODE.CODE = %E$NOKEY THEN DO;

  20352  4 003345   000000 236000 xsym  READ_ALT3    LDQ     ERR_CODE
         4 003346   377770 376007                    ANQ     131064,DL
         4 003347   001020 116007                    CMPQ    528,DL
PL6.E3A0      #001=ASL$LIST_ALL_DEVICES File=ASL$LIST_DEVICES.:E05TSI            TUE 07/29/97 10:07 Page:121
         4 003350   003363 601000 4                  TNZ     READ_ERR

      736    20353    3         AS_FIELD1.COUNT = STATION_NAME.COUNT;

  20353  4 003351   200071 236100                    LDQ     STATION_NAME,,AUTO
         4 003352   000000 552040 xsym               STBQ    AS_FIELD1,'40'O

      737    20354    3         AS_FIELD1.TEXT  = STATION_NAME.TEXT;

  20354  4 003353   040000 100500                    MLR     fill='040'O
         4 003354   200071 200010                    ADSC9   STATION_NAME,,AUTO       cn=1,n=8
         4 003355   000000 200050 xsym               ADSC9   AS_FIELD1                cn=1,n=40

      738    20355              %SCREAM( ERR#=E$TERMINAL_NOEXIST, LEVEL=ERROR, MID='L' );

  20367  4 003356   000035 630400 5                  EPPR0   29
         4 003357   000017 631400 xsym               EPPR1   B_VECTNIL+15
         4 003360   000000 701000 xent               TSX1    ASH$ERROR
         4 003361   000000 011000                    NOP     0

      739    20370    3         END;  /*  No such key error  */

  20370  4 003362   003367 710000 4                  TRA     FINISH_UP

      740    20371    2      ELSE
      741    20372    2   READ_ERR: CALL ASA$ERROR( USERS_KEY, E$UNABLE_TO_READ_HLP );

  20372  4 003363   000013 630400 5     READ_ERR     EPPR0   11
         4 003364   000020 631400 xsym               EPPR1   B_VECTNIL+16
         4 003365   000000 701000 xent               TSX1    ASA$ERROR
         4 003366   000000 011000                    NOP     0

      742    20373    2      END;  /*  Do never  */

      743    20374    1   FINISH_UP:
      744    20375    2   IF NOT DISP THEN DO;

PL6.E3A0      #001=ASL$LIST_ALL_DEVICES File=ASL$LIST_DEVICES.:E05TSI            TUE 07/29/97 10:07 Page:122
  20375  4 003367   200035 234100       FINISH_UP    SZN     DISP,,AUTO
         4 003370   003405 604000 4                  TMI     s:20381

      745    20376    2      FMT_BUF = '%\%/';

  20376  4 003371   040000 100400                    MLR     fill='040'O
         4 003372   000023 000004 3                  ADSC9   LIST_STR+12              cn=0,n=4
         4 003373   000000 000377 xsym               ADSC9   FMT_BUF                  cn=0,n=255

      746    20377    2      FDS.FMT_.BOUND = 3;

  20377  4 003374   000000 236000 xsym               LDQ     FDS
         4 003375   177777 376007                    ANQ     65535,DL
         4 003376   600000 276007                    ORQ     -65536,DL
         4 003377   000000 756000 xsym               STQ     FDS

      747    20378    2      FDS.NVECS# = 0;

  20378  4 003400   000011 450000 xsym               STZ     FDS+9

      748    20379    2      CALL X$FORMAT (FDS);

  20379  4 003401   000003 630400 5                  EPPR0   3
         4 003402   000017 631400 xsym               EPPR1   B_VECTNIL+15
         4 003403   000000 701000 xent               TSX1    X$FORMAT
         4 003404   000000 011000                    NOP     0

      749    20380    2      END; /*  If not disp  */

      750    20381    2   IF NOT JCL THEN DO;

  20381  4 003405   200046 234100                    SZN     JCL,,AUTO
         4 003406   003455 604000 4                  TMI     s:20402

      751    20382    2      FMT_VEC(0) = VECTOR (DISP_DEVICES);

  20382  4 003407   777640 235007                    LDA     -96,DL
PL6.E3A0      #001=ASL$LIST_ALL_DEVICES File=ASL$LIST_DEVICES.:E05TSI            TUE 07/29/97 10:07 Page:123
         4 003410   200114 452500                    STP2    TWSN_NUMBER+2,,AUTO
         4 003411   200114 236100                    LDQ     TWSN_NUMBER+2,,AUTO
         4 003412   000036 036003                    ADLQ    30,DU
         4 003413   000000 755000 xsym               STA     FMT_VEC
         4 003414   000001 756000 xsym               STQ     FMT_VEC+1

      752    20383    2      IF DISP_DEVICES = 1 THEN

  20383  4 003415   200036 235100                    LDA     DISP_DEVICES,,AUTO
         4 003416   000001 115007                    CMPA    1,DL
         4 003417   003424 601000 4                  TNZ     s:20388

      753    20384    3      DO;

      754    20385    3         FMT_VEC(1) = VECTOR (DEVICE_STR);

  20385  4 003420   000036 237000 5                  LDAQ    30
         4 003421   000002 755000 xsym               STA     FMT_VEC+2
         4 003422   000003 756000 xsym               STQ     FMT_VEC+3

      755    20386    3         END; /*  DISP_DEVICES = 1  */

  20386  4 003423   003427 710000 4                  TRA     s:20390

      756    20387    3      ELSE DO;

      757    20388    3         FMT_VEC(1) = VECTOR (DEVICES_STR);

  20388  4 003424   000040 237000 5                  LDAQ    32
         4 003425   000002 755000 xsym               STA     FMT_VEC+2
         4 003426   000003 756000 xsym               STQ     FMT_VEC+3

      758    20389    3         END; /*  DISP_DEVICES ~= 1  */

      759    20390    2      IF DISP THEN

  20390  4 003427   200035 234100                    SZN     DISP,,AUTO
PL6.E3A0      #001=ASL$LIST_ALL_DEVICES File=ASL$LIST_DEVICES.:E05TSI            TUE 07/29/97 10:07 Page:124
         4 003430   003435 605000 4                  TPL     s:20395

      760    20391    3      DO;

      761    20392    3         FMT_VEC(2) = VECTOR (DISPLAY_STR);

  20392  4 003431   000042 237000 5                  LDAQ    34
         4 003432   000004 755000 xsym               STA     FMT_VEC+4
         4 003433   000005 756000 xsym               STQ     FMT_VEC+5

      762    20393    3         END; /*  If disp  */

  20393  4 003434   003440 710000 4                  TRA     s:20397

      763    20394    3      ELSE DO;

      764    20395    3         FMT_VEC(2) = VECTOR (LIST_STR);

  20395  4 003435   000044 237000 5                  LDAQ    36
         4 003436   000004 755000 xsym               STA     FMT_VEC+4
         4 003437   000005 756000 xsym               STQ     FMT_VEC+5

      765    20396    3         END; /*  If ~ disp  */

      766    20397    2      FDS.NVECS# = 3;

  20397  4 003440   000003 235007                    LDA     3,DL
         4 003441   000011 755000 xsym               STA     FDS+9

      767    20398    2      FMT_BUF = '   %5D %A %A.';

  20398  4 003442   040000 100400                    MLR     fill='040'O
         4 003443   000024 000015 3                  ADSC9   LIST_STR+13              cn=0,n=13
         4 003444   000000 000377 xsym               ADSC9   FMT_BUF                  cn=0,n=255

      768    20399    2      FDS.FMT_.BOUND = 12;

PL6.E3A0      #001=ASL$LIST_ALL_DEVICES File=ASL$LIST_DEVICES.:E05TSI            TUE 07/29/97 10:07 Page:125
  20399  4 003445   000000 236000 xsym               LDQ     FDS
         4 003446   177777 376007                    ANQ     65535,DL
         4 003447   000003 276003                    ORQ     3,DU
         4 003450   000000 756000 xsym               STQ     FDS

      769    20400    2      CALL X$FORMAT(FDS);

  20400  4 003451   000003 630400 5                  EPPR0   3
         4 003452   000017 631400 xsym               EPPR1   B_VECTNIL+15
         4 003453   000000 701000 xent               TSX1    X$FORMAT
         4 003454   000000 011000                    NOP     0

      770    20401    2      END; /* Not jcl */

      771    20402    1   RETURN;

  20402  4 003455   000000 702200 xent               TSX2  ! X66_ARET
      772    20403    1   END ASL$LIST_ALL_DEVICES;
      773    20404        %EOD;

PL6.E3A0      #001=ASL$LIST_ALL_DEVICES File=ASL$LIST_DEVICES.:E05TSI            TUE 07/29/97 10:07 Page:126
--  Include file information  --

   AS_SUPER_R.:E05TOU  cannot be made into a system file and is referenced.
   OCI_SUBS_C.:E05TOU  is referenced.
   XU_FORMAT_C.:E05TOU  is referenced.
   XU_MACRO_C.:E05TOU  is referenced.
   KL_SUPER_C.:E05TOU  is referenced.
   KL_MACRO_C.:E05TOU  is referenced.
   KL_CONFIG_M.:E05TOU  is referenced.
   CP_6_SUBS.:E05TOU  is referenced.
   CP_6.:E05TOU  cannot be made into a system file and is referenced.
   B_ERRORS_C.:E05TOU  is referenced.
   AS_SSUBS_C.:E05TOU  is referenced.
   AS_ENTRIES_M.:E05TOU  is referenced.
   AS_MAC_C.:E05TOU  cannot be made into a system file and is referenced.
   AS_SUBS_C.:E05TOU  is referenced.
   AS_SUPER_C.:E05TOU  is referenced.
   AS_PERR_C.:E05TOU  is referenced.
   B$JIT_C.:E05TOU  was found in the system file and is never referenced.
   CP_6_C.:E05TOU  was found in the system file and is referenced.
      No diagnostics issued in procedure ASL$LIST_ALL_DEVICES.
PL6.E3A0      #001=ASL$LIST_ALL_DEVICES File=ASL$LIST_DEVICES.:E05TSI            TUE 07/29/97 10:07 Page:127

 **** Variables and constants ****

  ****  Section 002  Data  ASL$LIST_ALL_DEVICES

  ****  Scalars and arrays  ****
OctLoc.c.b A Datatyp(siz) R M Lvl/name                 OctLoc.c.b A Datatyp(siz) R M Lvl/name

    67-0-0/w PTR         r     1 LINCNFG$
     5-0-0/w UBIN        r     1 LINCNFG_BUF(0:49)

  ****  Section 003 RoData ASL$LIST_ALL_DEVICES

  ****  Scalars and arrays  ****
OctLoc.c.b A Datatyp(siz) R M Lvl/name                 OctLoc.c.b A Datatyp(siz) R M Lvl/name

     2-0-0/c CHAR(7)     r     1 DEVICES_STR                0-0-0/c CHAR(6)     r     1 DEVICE_STR
     4-0-0/c CHAR(9)     r     1 DISPLAY_STR                7-0-0/c CHAR(6)     r     1 LIST_STR

  ****  Auto variables  ****

  ****  Scalars and arrays  ****
OctLoc.c.b A Datatyp(siz) R M Lvl/name                 OctLoc.c.b A Datatyp(siz) R M Lvl/name

     3-0-0/c CHAR(8)     r     1 ACCT                       5-0-0/w UBIN        r     1 ACCT_LEN
     6-0-0/w SBIN        r     1 ARS                        7-0-0/c STRC(189)   r     1 BEGIN_KEY
    15-0-0/w PTR         r     1 BLK$                      16-0-0/b BIT         r     1 CHECK
    17-0-0/w UBIN        r     1 COUNT                     20-0-0/b BIT         r     1 DEVICE_NAME_WILD
    21-0-0/c STRC(378)   r     1 DEV_NAME                  34-0-0/w UBIN        r     1 DEV_TYPE
    35-0-0/b BIT         r     1 DISP                      36-0-0/w UBIN        r     1 DISP_DEVICES
    37-0-0/c STRC(189)   r     1 END_KEY                   45-0-0/w SBIN        r     1 I
    46-0-0/b BIT         r     1 JCL                       47-0-0/w SBIN        r     1 K
    50-0-0/c STRC(378)   r     1 LAST_KEY                  63-0-0/w UBIN        r     1 MATCH_LEN
    64-0-0/c CHAR(12)    r     1 NAME                      67-0-0/w UBIN        r     1 NAME_LEN
    70-0-0/w UBIN        r     1 OPTION_CODE               71-0-0/c STRC(81)    r     1 STATION_NAME
    74-0-0/c STRC(81)    r     1 TERMINAL_NAME             77-0-0/c STRC(189)   r     1 TPDEV
   105-0-0/b BIT         r     1 TPDEV_ACCT_WILD          106-0-0/b BIT         r     1 TPDEV_NAME_SPECIFIED
   107-0-0/b BIT         r     1 TPDEV_NAME_WILD          110-0-0/b BIT         r     1 TPDEV_SPECIFIED
PL6.E3A0      #001=ASL$LIST_ALL_DEVICES File=ASL$LIST_DEVICES.:E05TSI            TUE 07/29/97 10:07 Page:128
   111-0-0/c CHAR(4)     r     1 TWSN_CHAR                112-0-0/w UBIN        r     1 TWSN_NUMBER

  ****  SYMREF variables  ****

  ****  Scalars and arrays  ****
OctLoc.c.b A Datatyp(siz) R M Lvl/name                 OctLoc.c.b A Datatyp(siz) R M Lvl/name

     0-0-0/w STRC(369)   r     1 AS_FIELD1                  0-0-0/w STRC(369)   r     1 AS_FIELD2
     0-0-0/w UBIN        r     1 CODE                       0-0-0/w PTR         r     1 DSEG1$
     0-0-0/w UBIN        r     1 DSEG1SIZE                  0-0-0/w PTR         r     1 DSEG2$
     0-0-0/w UBIN        r     1 DSEG2SIZE                  0-0-0/w PTR         r     1 DSEG3$
     0-0-0/w UBIN        r     1 DSEG3SIZE                  0-0-0/b STRC        r     1 ERR_CODE
     0-0-0/w STRC(1080)  r     1 FDS                        0-0-0/c CHAR(255)   r     1 FMT_BUF
     0-0-0/w STRC(72)    r     1 FMT_VEC(0:75)              0-0-0/b STRC        r     1 MERR_CODE
     0-0-0/w STRC(504)   r     1 P_PCB                      0-0-0/c STRC(378)   r     1 USERS_KEY

  ****  BASED and DCB variables  ****

  ****  Scalars and arrays  ****
OctLoc.c.b A Datatyp(siz) R M Lvl/name                 OctLoc.c.b A Datatyp(siz) R M Lvl/name

     0-0-0/w STRC(576)   r     1 KL$DREC                    0-0-0/w STRC(2412)  r     1 KL$TREC
     0-0-0/w STRC(576)   r     1 KL$TWSNREC                 0-0-0/w STRC(144)   r     1 KL$WSNCVT
     0-0-0/w ASTR(387)   r     1 LINCNFG                    0-0-0/w ASTR(153)   r     1 OUT$SYM
     0-0-0/w STRC(144)   r     1 P$B


   Procedure ASL$LIST_ALL_DEVICES requires 1838 words for executable code.
   Procedure ASL$LIST_ALL_DEVICES requires 82 words of local(AUTO) storage.
PL6.E3A0      #001=ASL$LIST_ALL_DEVICES File=ASL$LIST_DEVICES.:E05TSI            TUE 07/29/97 10:07 Page:129
          *** CROSS REFERENCE LISTING ***
**     DENOTES     IDENTIFIER DEFINITION
<<                 IDENTIFIER'S VALUE SET
>>                 IDENTIFIER'S VALUE USED
<>                 IDENTIFIER SET AND/OR USED
--                 IDENTIFIER REFERENCED
PL6.E3A0      #001=ASL$LIST_ALL_DEVICES File=ASL$LIST_DEVICES.:E05TSI            TUE 07/29/97 10:07 Page:130
          MINI XREF LISTING

ACCT
     19694**DCL     20183<<ASSIGN  20184<>CALL    20281<<ASSIGN  20282<>CALL
ACCT_LEN
     19695**DCL     20177<<CALLBLT 20178>>IF      20178<<ASSIGN  20179>>IF      20179<<ASSIGN  20183>>ASSIGN
     20184<>CALL    20275<<CALLBLT 20276>>IF      20276<<ASSIGN  20277>>IF      20277<<ASSIGN  20281>>ASSIGN
     20282<>CALL
ARS
     19696**DCL     19918<<ASSIGN  19919<>CALL    19921<>CALL    19968<<ASSIGN  19969<>CALL    19970<>CALL
     19992<<ASSIGN  19993<>CALL    19996<<ASSIGN  19997<>CALL    20012<<ASSIGN  20013<>CALL    20014<>CALL
     20035<<ASSIGN  20036<>CALL    20042<<ASSIGN  20043<>CALL    20055<<ASSIGN  20056<>CALL    20058<>CALL
     20102<<ASSIGN  20103<>CALL    20111<<ASSIGN  20113<>CALL    20114<>CALL    20121<<ASSIGN  20122<>CALL
     20134<<ASSIGN  20135<>CALL    20136<>CALL    20169<<ASSIGN  20170<>CALL    20173<>CALL    20213<<ASSIGN
     20214<>CALL    20221<<ASSIGN  20227<>CALL    20267<<ASSIGN  20268<>CALL    20271<>CALL    20299<<ASSIGN
     20300<>CALL    20309<<ASSIGN  20310<>CALL    20311<>CALL
ASA$ERROR
     19130**DCL-ENT 19940--CALL    20349--CALL    20372--CALL
ASA_BRKS_LOC
     16017**DCL     16017--REDEF
ASB$BOF_HLP
     19133**DCL-ENT 19916--CALL
ASB$CHECK_TYPE
     19136**DCL-ENT 19921--CALL    19970--CALL    20014--CALL    20058--CALL    20114--CALL    20136--CALL
     20173--CALL    20271--CALL    20311--CALL
ASB$GET_NEXT_STATION
     19139**DCL-ENT 19953--CALL
ASB$INIT_GET_STATION
     19142**DCL-ENT 19947--CALL
ASB$PREC_AND_SKIP_HLP
     19145**DCL-ENT 19935--CALL    20211--CALL    20297--CALL
ASB$PREC_HLP
     19148**DCL-ENT 20168--CALL    20266--CALL
ASB$READ_HLP
PL6.E3A0      #001=ASL$LIST_ALL_DEVICES File=ASL$LIST_DEVICES.:E05TSI            TUE 07/29/97 10:07 Page:131
     19151**DCL-ENT 19969--CALL    19993--CALL    19997--CALL    20013--CALL    20036--CALL    20043--CALL
     20056--CALL    20103--CALL    20113--CALL    20122--CALL    20135--CALL    20227--CALL    20310--CALL
ASB$READ_HLP_SEQ
     19154**DCL-ENT 19919--CALL    20170--CALL    20214--CALL    20268--CALL    20300--CALL
ASB$WILD_MATCH
     19157**DCL-ENT 19952--CALL    19965--CALL    20009--CALL    20047--CALL    20051--CALL    20127--CALL
     20131--CALL    20184--CALL    20195--CALL    20282--CALL
ASB$WRITE_LO
     19160**DCL-ENT 19926--CALL    19976--CALL    20021--CALL    20065--CALL    20143--CALL    20199--CALL
     20248--CALL    20286--CALL    20315--CALL
ASH$ERROR
     19163**DCL-ENT 20091--CALL    20240--CALL    20345--CALL    20367--CALL
ASL$DISP_ONE_DEVICE
     19166**DCL-ENT 19925--CALL    19975--CALL    20020--CALL    20064--CALL    20142--CALL    20198--CALL
     20247--CALL    20285--CALL    20314--CALL
ASL$FORMAT_DEVNAME
     19169**DCL-ENT 19929--CALL    19973--CALL    20017--CALL    20061--CALL    20139--CALL    20202--CALL
     20251--CALL    20289--CALL    20318--CALL
AS_DEFAULT.BANNER_PERM
     16710**DCL     16711--REDEF
AS_DEFAULT.BUDGET.MACCT
     16615**DCL     16619--REDEF
AS_DEFAULT.BUDGET.MAX_PROJECTS
     16628**DCL     16631--REDEF
AS_DEFAULT.BUDGET.PACCUM
     16611**DCL     16613--REDEF
AS_DEFAULT.BUDGET.PMAXC
     16606**DCL     16608--REDEF
AS_DEFAULT.SETUP_CHRA.TXT
     16726**DCL     16727--REDEF   16728--REDEF
AS_DEFAULT_DREC.PASSWORD
     17980**DCL     17984--REDEF
AS_DEFAULT_DREC.RENAME
     18003**DCL     18004--REDEF
AS_DFLT.BANNER_PERM
     16532**DCL     16533--REDEF
PL6.E3A0      #001=ASL$LIST_ALL_DEVICES File=ASL$LIST_DEVICES.:E05TSI            TUE 07/29/97 10:07 Page:132
AS_DFLT.BUDGET.MACCT
     16437**DCL     16441--REDEF
AS_DFLT.BUDGET.MAX_PROJECTS
     16450**DCL     16453--REDEF
AS_DFLT.BUDGET.PACCUM
     16433**DCL     16435--REDEF
AS_DFLT.BUDGET.PMAXC
     16428**DCL     16430--REDEF
AS_DFLT.SETUP_CHRA.TXT
     16548**DCL     16549--REDEF   16550--REDEF
AS_FE_MODE
     15883**DCL     15884--REDEF
AS_FIELD1
     16013**DCL     20332<<ASSIGN
AS_FIELD1.COUNT
     16014**DCL     20076<<ASSIGN  20115<<ASSIGN  20226<<ASSIGN  20353<<ASSIGN
AS_FIELD1.TEXT
     16014**DCL     20075<<ASSIGN  20116<<ASSIGN  20225<<CALLBLT 20354<<ASSIGN
AS_FIELD2.COUNT
     16014**DCL     20078<<ASSIGN  20117<<ASSIGN
AS_FIELD2.TEXT
     16014**DCL     20077<<ASSIGN  20118<<ASSIGN
AS_MODE
     15880**DCL     15882--REDEF
AS_MOD_USER.ACCESS
     18745**DCL     18746--REDEF
AS_MOD_USER.BANNER
     18732**DCL     18733--REDEF
AS_MOD_USER.BANNER_PERM
     18734**DCL     18735--REDEF
AS_MOD_USER.BILL
     18740**DCL     18741--REDEF
AS_MOD_USER.CPROC
     18736**DCL     18737--REDEF
AS_MOD_USER.FEBILL
     18816**DCL     18817--REDEF
PL6.E3A0      #001=ASL$LIST_ALL_DEVICES File=ASL$LIST_DEVICES.:E05TSI            TUE 07/29/97 10:07 Page:133
AS_MOD_USER.FECXTMEM
     18833**DCL     18834--REDEF
AS_MOD_USER.FEMINTS
     18818**DCL     18819--REDEF
AS_MOD_USER.FEMMEM
     18829**DCL     18830--REDEF
AS_MOD_USER.FEMTIME
     18827**DCL     18828--REDEF
AS_MOD_USER.FEPPRIV
     18824**DCL     18826--REDEF
AS_MOD_USER.FEPRIV
     18821**DCL     18823--REDEF
AS_MOD_USER.FORCE_BIT
     18730**DCL     18731--REDEF
AS_MOD_USER.KEY
     18812**DCL     18814--REDEF
AS_MOD_USER.LASTCPROC
     18738**DCL     18739--REDEF
AS_MOD_USER.LIMITS.DO_
     18786**DCL     18787--REDEF
AS_MOD_USER.LIMITS.FPOOLS
     18802**DCL     18803--REDEF
AS_MOD_USER.LIMITS.LO
     18782**DCL     18783--REDEF
AS_MOD_USER.LIMITS.MEM
     18778**DCL     18779--REDEF
AS_MOD_USER.LIMITS.MPRIO
     18806**DCL     18807--REDEF
AS_MOD_USER.LIMITS.PDIS
     18794**DCL     18795--REDEF
AS_MOD_USER.LIMITS.PO
     18790**DCL     18791--REDEF
AS_MOD_USER.LIMITS.TDIS
     18798**DCL     18799--REDEF
AS_MOD_USER.LIMITS.TIME
     18774**DCL     18775--REDEF
PL6.E3A0      #001=ASL$LIST_ALL_DEVICES File=ASL$LIST_DEVICES.:E05TSI            TUE 07/29/97 10:07 Page:134
AS_MOD_USER.MAXENQ
     18755**DCL     18756--REDEF
AS_MOD_USER.PERM_BIT
     18728**DCL     18729--REDEF
AS_MOD_USER.PPRIV
     18750**DCL     18752--REDEF
AS_MOD_USER.PRIOB
     18757**DCL     18758--REDEF
AS_MOD_USER.PRIV
     18747**DCL     18749--REDEF
AS_MOD_USER.QUAN
     18753**DCL     18754--REDEF
AS_MOD_USER.SETUP
     18726**DCL     18727--REDEF
AS_PROJECT.BANNER_PERM
     17066**DCL     17067--REDEF
AS_PROJECT.BUDGET.MACCT
     16971**DCL     16975--REDEF
AS_PROJECT.BUDGET.MAX_PROJECTS
     16984**DCL     16987--REDEF
AS_PROJECT.BUDGET.PACCUM
     16967**DCL     16969--REDEF
AS_PROJECT.BUDGET.PMAXC
     16962**DCL     16964--REDEF
AS_PROJECT.SETUP_CHRA.TXT
     17082**DCL     17083--REDEF   17084--REDEF
AS_PROJECT_DFLT.BANNER_PERM
     17244**DCL     17245--REDEF
AS_PROJECT_DFLT.BUDGET.MACCT
     17149**DCL     17153--REDEF
AS_PROJECT_DFLT.BUDGET.MAX_PROJECTS
     17162**DCL     17165--REDEF
AS_PROJECT_DFLT.BUDGET.PACCUM
     17145**DCL     17147--REDEF
AS_PROJECT_DFLT.BUDGET.PMAXC
     17140**DCL     17142--REDEF
PL6.E3A0      #001=ASL$LIST_ALL_DEVICES File=ASL$LIST_DEVICES.:E05TSI            TUE 07/29/97 10:07 Page:135
AS_PROJECT_DFLT.SETUP_CHRA.TXT
     17260**DCL     17261--REDEF   17262--REDEF
AS_PROJECT_DFLT_DREC.PASSWORD
     18466**DCL     18470--REDEF
AS_PROJECT_DFLT_DREC.RENAME
     18489**DCL     18490--REDEF
AS_PROJECT_DREC.PASSWORD
     18304**DCL     18308--REDEF
AS_PROJECT_DREC.RENAME
     18327**DCL     18328--REDEF
AS_PROJ_ADMIN.BANNER_PERM
     16888**DCL     16889--REDEF
AS_PROJ_ADMIN.BUDGET.MACCT
     16793**DCL     16797--REDEF
AS_PROJ_ADMIN.BUDGET.MAX_PROJECTS
     16806**DCL     16809--REDEF
AS_PROJ_ADMIN.BUDGET.PACCUM
     16789**DCL     16791--REDEF
AS_PROJ_ADMIN.BUDGET.PMAXC
     16784**DCL     16786--REDEF
AS_PROJ_ADMIN.SETUP_CHRA.TXT
     16904**DCL     16905--REDEF   16906--REDEF
AS_PROJ_ADMIN_DREC.PASSWORD
     18142**DCL     18146--REDEF
AS_PROJ_ADMIN_DREC.RENAME
     18165**DCL     18166--REDEF
AS_USERS.BANNER_PERM
     16354**DCL     16355--REDEF
AS_USERS.BUDGET.MACCT
     16259**DCL     16263--REDEF
AS_USERS.BUDGET.MAX_PROJECTS
     16272**DCL     16275--REDEF
AS_USERS.BUDGET.PACCUM
     16255**DCL     16257--REDEF
AS_USERS.BUDGET.PMAXC
     16250**DCL     16252--REDEF
PL6.E3A0      #001=ASL$LIST_ALL_DEVICES File=ASL$LIST_DEVICES.:E05TSI            TUE 07/29/97 10:07 Page:136
AS_USERS.SETUP_CHRA.TXT
     16370**DCL     16371--REDEF   16372--REDEF
AS_USERS_CONSTANT.BANNER_PERM
     17422**DCL     17423--REDEF
AS_USERS_CONSTANT.BUDGET.MACCT
     17327**DCL     17331--REDEF
AS_USERS_CONSTANT.BUDGET.MAX_PROJECTS
     17340**DCL     17343--REDEF
AS_USERS_CONSTANT.BUDGET.PACCUM
     17323**DCL     17325--REDEF
AS_USERS_CONSTANT.BUDGET.PMAXC
     17318**DCL     17320--REDEF
AS_USERS_CONSTANT.SETUP_CHRA.TXT
     17438**DCL     17439--REDEF   17440--REDEF
BEGIN_KEY
     19697**DCL     20167>>ASSIGN  20265>>ASSIGN
BEGIN_KEY.COUNT
     19698**DCL     20162<<ASSIGN  20263<<ASSIGN
BEGIN_KEY.TEXT
     19699**DCL     20158<<ASSIGN  20161<<ASSIGN  20261<<ASSIGN
BLK$
     19700**DCL     19660--IMP-PTR 19802<<ASSIGN  19803>>ASSIGN  19804>>ASSIGN  19804>>ASSIGN  19808<<ASSIGN
     19809>>ASSIGN  19810>>ASSIGN  19810>>ASSIGN  19826<<ASSIGN  19827>>ASSIGN  19828>>ASSIGN  19828>>ASSIGN
     19832<<ASSIGN  19833>>ASSIGN  19834>>ASSIGN  19834>>ASSIGN  19843<<ASSIGN  19844>>ASSIGN  19845>>ASSIGN
     19845>>ASSIGN
CHECK
     19701**DCL     19778<<ASSIGN  19785<<ASSIGN  19797<<ASSIGN  19817<<ASSIGN  19821<<ASSIGN  19923>>IF
     19971>>IF      20015>>IF      20059>>IF      20137>>IF      20175>>IF      20273>>IF      20312>>IF
CODE
     16010**DCL     19770<<ASSIGN  19772>>DOSELCT 19795>>ASSIGN  19815>>ASSIGN
CONFIG_KEY.TERMID.TERM
     18919**DCL     18928--REDEF
COUNT
     19702**DCL     20224<<CALLBLT 20225>>CALLBLT 20226>>ASSIGN
DEVICES_STR
     19745**DCL     19862>>CALLBLT 19863--ASSIGN  19866>>CALLBLT 19867--ASSIGN  20388--ASSIGN
PL6.E3A0      #001=ASL$LIST_ALL_DEVICES File=ASL$LIST_DEVICES.:E05TSI            TUE 07/29/97 10:07 Page:137
DEVICE_NAME_WILD
     19703**DCL     19896<<ASSIGN  19899<<ASSIGN
DEVICE_STR
     19744**DCL     20385--ASSIGN
DEV_NAME
     19704**DCL     19922<<ASSIGN  19933>>IF      19934>>ASSIGN  20311<>CALL    20332>>ASSIGN
DEV_NAME.COUNT
     19705**DCL     19760<<ASSIGN  19827<<ASSIGN  19964>>ASSIGN  20008>>ASSIGN  20046>>ASSIGN  20126>>ASSIGN
DEV_NAME.TEXT
     19706**DCL     19761<<ASSIGN  19828<<ASSIGN  19897>>CALLBLT 19905>>IF      19965<>CALL    20009<>CALL
     20047<>CALL    20127<>CALL    20260>>CALLBLT 20261>>ASSIGN  20262>>CALLBLT 20278>>CALLBLT 20282<>CALL
     20308>>CALLBLT
DEV_TYPE
     19708**DCL     19779<<ASSIGN  19786<<ASSIGN  19796<<ASSIGN  19816<<ASSIGN  19820<<ASSIGN  19921<>CALL
     19923>>IF      19970<>CALL    19971>>IF      20014<>CALL    20015>>IF      20058<>CALL    20059>>IF
     20136<>CALL    20137>>IF      20173<>CALL    20175>>IF      20245>>IF      20271<>CALL    20273>>IF
     20311<>CALL    20312>>IF
DISP
     19709**DCL     19776<<ASSIGN  19783<<ASSIGN  19795<<ASSIGN  19815<<ASSIGN  19924>>IF      19972>>IF
     20016>>IF      20060>>IF      20138>>IF      20197>>IF      20246>>IF      20284>>IF      20313>>IF
     20375>>IF      20390>>IF
DISPLAY_STR
     19746**DCL     20392--ASSIGN
DISP_DEVICES
     19710**DCL     19766<<ASSIGN  19929<>CALL    19931<<ASSIGN  19931>>ASSIGN  19973<>CALL    19978<<ASSIGN
     19978>>ASSIGN  20017<>CALL    20023<<ASSIGN  20023>>ASSIGN  20061<>CALL    20067<<ASSIGN  20067>>ASSIGN
     20139<>CALL    20145<<ASSIGN  20145>>ASSIGN  20202<>CALL    20204<<ASSIGN  20204>>ASSIGN  20251<>CALL
     20253<<ASSIGN  20253>>ASSIGN  20289<>CALL    20291<<ASSIGN  20291>>ASSIGN  20318<>CALL    20320<<ASSIGN
     20320>>ASSIGN  20382--ASSIGN  20383>>IF
DSEG1$
     16018**DCL     19601--IMP-PTR 19948>>DOINDEX 19949>>CALLBLT 19952>>CALL    19993<>CALL    19995>>CALLBLT
     20036<>CALL    20037>>DOINDEX 20038>>IF      20103<>CALL    20113<>CALL    20114<>CALL    20120>>CALLBLT
DSEG1SIZE
     16019**DCL     19992>>ASSIGN  20035>>ASSIGN  20102>>ASSIGN  20111>>ASSIGN
DSEG2$
     16019**DCL     19463--IMP-PTR 19954>>DOINDEX 19955>>IF      19956>>IF      19961>>CALLBLT 19965>>CALL
PL6.E3A0      #001=ASL$LIST_ALL_DEVICES File=ASL$LIST_DEVICES.:E05TSI            TUE 07/29/97 10:07 Page:138
     19967>>CALLBLT 19997<>CALL    19998>>DOINDEX 19999>>IF      20000>>IF      20005>>CALLBLT 20009>>CALL
     20011>>CALLBLT 20043<>CALL    20044>>DOINDEX 20045>>IF      20047>>CALL    20049>>CALLBLT 20051>>CALL
     20054>>CALLBLT 20075>>ASSIGN  20122<>CALL    20123>>DOINDEX 20125>>IF      20127>>CALL    20129>>CALLBLT
     20131>>CALL    20133>>CALLBLT
DSEG2SIZE
     16019**DCL     19996>>ASSIGN  20042>>ASSIGN  20121>>ASSIGN
DSEG3$
     16019**DCL     19188--IMP-PTR 19919<>CALL    19921<>CALL    19923>>IF      19969<>CALL    19970<>CALL
     19971>>IF      20013<>CALL    20014<>CALL    20015>>IF      20056<>CALL    20058<>CALL    20059>>IF
     20135<>CALL    20136<>CALL    20137>>IF      20170<>CALL    20173<>CALL    20175>>IF      20214<>CALL
     20227<>CALL    20245>>IF      20268<>CALL    20271<>CALL    20273>>IF      20300<>CALL    20310<>CALL
     20311<>CALL    20312>>IF
DSEG3SIZE
     16019**DCL     19918>>ASSIGN  19968>>ASSIGN  20012>>ASSIGN  20055>>ASSIGN  20134>>ASSIGN  20169>>ASSIGN
     20213>>ASSIGN  20221>>ASSIGN  20267>>ASSIGN  20299>>ASSIGN  20309>>ASSIGN
END_KEY.COUNT
     19712**DCL     20163<<ASSIGN  20165>>IF      20264<<ASSIGN
END_KEY.TEXT
     19713**DCL     20159<<CALLBLT 20164<<ASSIGN  20166<<ASSIGN  20172>>DOWHILE 20262<<CALLBLT 20270>>DOWHILE
ERR_CODE
     16012**DCL     16013--REDEF
FDS
     15909**DCL     19870<>CALL    20379<>CALL    20400<>CALL
FDS.FMT_.BOUND
     15914**DCL     19863<<ASSIGN  19867<<ASSIGN  20377<<ASSIGN  20399<<ASSIGN
FDS.NVECS#
     15937**DCL     19860<<ASSIGN  20378<<ASSIGN  20397<<ASSIGN
FDS.TABDFLT#
     15975**DCL     19869<<ASSIGN
FINISH_UP
     20375**LABEL   19941--GOTO    19953--CALLALT 19986--GOTO    20029--GOTO    20114--CALLALT 20214--CALLALT
     20300--CALLALT 20311--CALLALT 20350--GOTO
FMT_BUF
     16008**DCL     19862<<CALLBLT 19866<<CALLBLT 20376<<ASSIGN  20398<<ASSIGN
FMT_VEC
     16008**DCL     20382<<ASSIGN  20385<<ASSIGN  20388<<ASSIGN  20392<<ASSIGN  20395<<ASSIGN
PL6.E3A0      #001=ASL$LIST_ALL_DEVICES File=ASL$LIST_DEVICES.:E05TSI            TUE 07/29/97 10:07 Page:139
I
     19714**DCL     19768<<DOINDEX 19770>>ASSIGN  19787>>IF      19788>>DOINDEX 19789>>IF      19802>>ASSIGN
     19808>>ASSIGN  19819>>IF      19820>>ASSIGN  19826>>ASSIGN  19832>>ASSIGN  19843>>ASSIGN  19877<<CALLBLT
     19883<<CALLBLT 19897<<CALLBLT 19954<<DOINDEX 19955>>IF      19956>>IF      19961>>CALLBLT 19965>>CALL
     19967>>CALLBLT 19998<<DOINDEX 19999>>IF      20000>>IF      20005>>CALLBLT 20009>>CALL    20011>>CALLBLT
     20044<<DOINDEX 20045>>IF      20047>>CALL    20049>>CALLBLT 20051>>CALL    20054>>CALLBLT 20075>>ASSIGN
     20123<<DOINDEX 20125>>IF      20127>>CALL    20129>>CALLBLT 20131>>CALL    20133>>CALLBLT 20157<<CALLBLT
     20158>>ASSIGN  20159>>CALLBLT 20160<<CALLBLT 20161>>ASSIGN  20161>>ASSIGN  20162>>ASSIGN  20163>>ASSIGN
     20164>>ASSIGN  20164>>ASSIGN  20166>>ASSIGN  20223<<CALLBLT 20225>>CALLBLT 20226>>ASSIGN  20260<<CALLBLT
     20261>>ASSIGN  20262>>CALLBLT
JCL
     19715**DCL     19752<<ASSIGN  19790<<ASSIGN  19854<<ASSIGN  19861>>IF      19925<>CALL    19975<>CALL
     20020<>CALL    20064<>CALL    20142<>CALL    20198<>CALL    20247<>CALL    20285<>CALL    20314<>CALL
     20381>>IF
K
     19716**DCL     19788<<DOINDEX 19789>>IF      19836<<CALLBLT 19847<<CALLBLT
KL$DREC.PASSWORD
     19558**DCL     19562--REDEF
KL$DREC.RENAME
     19581**DCL     19582--REDEF
KL$DREC.SUPER
     19552**DCL     19923>>IF      19971>>IF      20015>>IF      20059>>IF      20137>>IF      20175>>IF
KL$DREC.TWSN#
     19555**DCL     19995>>CALLBLT 20120>>CALLBLT
KL$TREC.PASSWORD
     19246**DCL     19250--REDEF
KL$TREC.RENAME
     19269**DCL     19270--REDEF
KL$TREC.SUPER
     19240**DCL     20245>>IF      20273>>IF      20312>>IF
KL$TWSNREC.DEVS.ACCT
     19481**DCL     19961>>CALLBLT 19965<>CALL    19967>>CALLBLT 20005>>CALLBLT 20009<>CALL    20011>>CALLBLT
     20047<>CALL    20054>>CALLBLT 20075>>ASSIGN  20127<>CALL    20133>>CALLBLT
KL$TWSNREC.DEVS.IOM_CONNECTED
     19476**DCL     19955>>IF      19999>>IF
KL$TWSNREC.DEVS.TDEV
PL6.E3A0      #001=ASL$LIST_ALL_DEVICES File=ASL$LIST_DEVICES.:E05TSI            TUE 07/29/97 10:07 Page:140
     19475**DCL     19956>>IF      20000>>IF      20045>>IF      20125>>IF
KL$TWSNREC.DEVS.TERM
     19482**DCL     20049>>CALLBLT 20051<>CALL    20129>>CALLBLT 20131<>CALL
KL$TWSNREC.NDEV
     19466**DCL     19954>>DOINDEX 19998>>DOINDEX 20044>>DOINDEX 20123>>DOINDEX
KL$WSNCVT.LTWSN
     19604**DCL     19948>>DOINDEX 20037>>DOINDEX
KL$WSNCVT.WSN
     19605**DCL     19949>>CALLBLT 19952<>CALL    20038>>IF
KL_DEFAULT.PASSWORD
     18628**DCL     18632--REDEF
KL_DEFAULT.RENAME
     18651**DCL     18652--REDEF
KL_DFLT.PASSWORD
     17818**DCL     17822--REDEF
KL_DFLT.RENAME
     17841**DCL     17842--REDEF
KL_DREC.PASSWORD
     17656**DCL     17660--REDEF
KL_DREC.RENAME
     17679**DCL     17680--REDEF
KL_DREC_CNT.PASSWORD
     17543**DCL     17547--REDEF
KL_DREC_CNT.RENAME
     17566**DCL     17567--REDEF
KL_SS.SGN
     19115**DCL     19124--REDEF
LAST_KEY
     19717**DCL     20171<<ASSIGN  20209>>IF      20210>>ASSIGN  20215<<ASSIGN  20269<<ASSIGN  20295>>IF
     20296>>ASSIGN  20301<<ASSIGN
LINCNFG.LGN.LGNSIZE
     19088**DCL     19089--IMP-SIZ
LINCNFG$
     18932**DCL     18951--IMP-PTR
LINCNFG_BUF
     18931**DCL     18932--DCLINIT
PL6.E3A0      #001=ASL$LIST_ALL_DEVICES File=ASL$LIST_DEVICES.:E05TSI            TUE 07/29/97 10:07 Page:141
LIST_STR
     19747**DCL     20395--ASSIGN
MATCH_LEN
     19720**DCL     19951<<ASSIGN  19952<>CALL    19964<<ASSIGN  19965<>CALL    20008<<ASSIGN  20009<>CALL
     20046<<ASSIGN  20047<>CALL    20050<<ASSIGN  20051<>CALL    20126<<ASSIGN  20127<>CALL    20130<<ASSIGN
     20131<>CALL    20180<<CALLBLT 20181>>IF      20181<<ASSIGN  20182>>IF      20182<<ASSIGN  20184<>CALL
     20191<<CALLBLT 20192>>IF      20192<<ASSIGN  20193>>IF      20193<<ASSIGN  20195<>CALL    20278<<CALLBLT
     20279>>IF      20279<<ASSIGN  20280>>IF      20280<<ASSIGN  20282<>CALL
MERR_CODE.CODE
     16013**DCL     19939>>IF      20327>>IF      20352>>IF
NAME
     19721**DCL     20194<<ASSIGN  20195<>CALL
NAME_LEN
     19722**DCL     19949<<CALLBLT 19950>>IF      19950<<ASSIGN  19952<>CALL    19957<<ASSIGN  19961<<CALLBLT
     19965<>CALL    20001<<ASSIGN  20005<<CALLBLT 20009<>CALL    20049<<CALLBLT 20051<>CALL    20129<<CALLBLT
     20131<>CALL    20187<<CALLBLT 20188>>IF      20188<<ASSIGN  20189>>IF      20189<<ASSIGN  20190<<ASSIGN
     20190>>ASSIGN  20194>>ASSIGN  20195<>CALL
NEXT
     19918**LABEL   19921--CALLALT
NEXT_STATION
     19985**LABEL   19952--CALLALT
NO_REC_FOR_STATION1
     19983**LABEL   19969--CALLALT 19970--CALLALT
NO_REC_FOR_STATION2
     20028**LABEL   20013--CALLALT 20014--CALLALT
NO_REC_FOR_TERM1
     20099**LABEL   20058--CALLALT
NO_REC_FOR_TERM2
     20151**LABEL   20135--CALLALT 20136--CALLALT
OPTION_CODE
     19723**DCL     19756<<ASSIGN  19777<<ASSIGN  19784<<ASSIGN  19835<<ASSIGN  19838<<ASSIGN  19846<<ASSIGN
     19849<<ASSIGN  19872>>IF      19875<<ASSIGN  19880<<ASSIGN  19886<<ASSIGN  19892<<ASSIGN  19900<<ASSIGN
     19904>>IF      19906<<ASSIGN  19908>>IF      19910<<ASSIGN  19912>>DOSELCT
OUT$SYM.COUNT
     19683**DCL     19686--IMP-SIZ 19803>>ASSIGN  19804>>ASSIGN  19809>>ASSIGN  19810>>ASSIGN  19827>>ASSIGN
     19828>>ASSIGN  19833>>ASSIGN  19834>>ASSIGN  19844>>ASSIGN  19845>>ASSIGN
PL6.E3A0      #001=ASL$LIST_ALL_DEVICES File=ASL$LIST_DEVICES.:E05TSI            TUE 07/29/97 10:07 Page:142
OUT$SYM.TEXT
     19686**DCL     19804>>ASSIGN  19810>>ASSIGN  19828>>ASSIGN  19834>>ASSIGN  19845>>ASSIGN
P$B.CODE
     19622**DCL     19770>>ASSIGN  19789>>IF      19820>>ASSIGN
P$B.NSUBLKS
     19626**DCL     19768>>DOINDEX 19787>>IF      19788>>DOINDEX 19819>>IF
P$B.SUBLK$
     19647**DCL     19770>>ASSIGN  19787>>IF      19788>>DOINDEX 19789>>IF      19789>>IF      19802>>ASSIGN
     19808>>ASSIGN  19819>>IF      19820>>ASSIGN  19820>>ASSIGN  19826>>ASSIGN  19832>>ASSIGN  19843>>ASSIGN
PROJ_KEY.TEXT
     15890**DCL     15890--REDEF
PROJ_KEY.TXT.PROJECT
     15890**DCL     15890--REDEF
P_PCB.OUT$
     16058**DCL     19768>>DOINDEX 19770>>ASSIGN  19787>>IF      19788>>DOINDEX 19789>>IF      19802>>ASSIGN
     19808>>ASSIGN  19819>>IF      19820>>ASSIGN  19826>>ASSIGN  19832>>ASSIGN  19843>>ASSIGN
RD_ALT2
     20327**LABEL   20310--CALLALT
READ_ALT3
     20352**LABEL   19993--CALLALT 20113--CALLALT
READ_ERR
     20372**LABEL   19997--CALLALT 20036--CALLALT 20043--CALLALT 20103--CALLALT 20122--CALLALT
REMEM_VAR
     16016**DCL     16016--REDEF
REM_FCMD
     16016**DCL     16017--REDEF
STATION_NAME
     19724**DCL     20112<<ASSIGN
STATION_NAME.COUNT
     19725**DCL     19762<<ASSIGN  19833<<ASSIGN  19951>>ASSIGN  20353>>ASSIGN
STATION_NAME.TEXT
     19726**DCL     19763<<ASSIGN  19834<<ASSIGN  19836>>CALLBLT 19952<>CALL    19991>>CALLBLT 20354>>ASSIGN
TERMINAL_NAME
     19727**DCL     20112>>ASSIGN  20114<>CALL
TERMINAL_NAME.COUNT
     19728**DCL     19764<<ASSIGN  19844<<ASSIGN  20050>>ASSIGN  20115>>ASSIGN  20130>>ASSIGN
PL6.E3A0      #001=ASL$LIST_ALL_DEVICES File=ASL$LIST_DEVICES.:E05TSI            TUE 07/29/97 10:07 Page:143
TERMINAL_NAME.TEXT
     19729**DCL     19765<<ASSIGN  19845<<ASSIGN  19847>>CALLBLT 20051<>CALL    20110>>CALLBLT 20116>>ASSIGN
     20131<>CALL
TPDEV
     19730**DCL     20222>>ASSIGN
TPDEV.ACCT
     19732**DCL     19758<<ASSIGN  19804<<ASSIGN  19877>>CALLBLT 19909>>IF      20157>>CALLBLT 20158>>ASSIGN
     20159>>CALLBLT 20180>>CALLBLT 20184<>CALL    20223>>CALLBLT 20225>>CALLBLT
TPDEV.COUNT
     19731**DCL     19757<<ASSIGN  19803<<ASSIGN  19809<<ASSIGN
TPDEV.NAME
     19733**DCL     19759<<ASSIGN  19810<<ASSIGN  19883>>CALLBLT 19909>>IF      20160>>CALLBLT 20161>>ASSIGN
     20164>>ASSIGN  20191>>CALLBLT 20195<>CALL    20224>>CALLBLT 20225>>CALLBLT
TPDEV_ACCT_WILD
     19734**DCL     19876<<ASSIGN  19879<<ASSIGN  19890<<ASSIGN
TPDEV_NAME_SPECIFIED
     19735**DCL     19755<<ASSIGN  19811<<ASSIGN  19874>>IF
TPDEV_NAME_WILD
     19736**DCL     19882<<ASSIGN  19885<<ASSIGN  19891<<ASSIGN
TPDEV_SPECIFIED
     19737**DCL     19754<<ASSIGN  19798<<ASSIGN  19873>>IF
TWSN_CHAR
     19738**DCL     20040<<CALLBLT 20041>>CALLBLT 20077>>ASSIGN
TWSN_NUMBER
     19739**DCL     19948<<DOINDEX 19949>>CALLBLT 19952>>CALL    19953<>CALL    20037<<DOINDEX 20038>>IF
     20040>>CALLBLT
USERS_KEY
     15887**DCL     19922>>ASSIGN  19929<>CALL    19933>>IF      19934<<ASSIGN  19940<>CALL    19973<>CALL
     20017<>CALL    20061<>CALL    20139<>CALL    20167<<ASSIGN  20171>>ASSIGN  20202<>CALL    20209>>IF
     20210<<ASSIGN  20215>>ASSIGN  20222<<ASSIGN  20251<>CALL    20265<<ASSIGN  20269>>ASSIGN  20289<>CALL
     20295>>IF      20296<<ASSIGN  20301>>ASSIGN  20318<>CALL    20349<>CALL    20372<>CALL
USERS_KEY.COUNT
     15887**DCL     19958<<ASSIGN  19962<<ASSIGN  19990<<ASSIGN  19994<<ASSIGN  20002<<ASSIGN  20006<<ASSIGN
     20033<<ASSIGN  20039<<ASSIGN  20053<<ASSIGN  20100<<ASSIGN  20109<<ASSIGN  20119<<ASSIGN  20124<<ASSIGN
     20307<<ASSIGN
USERS_KEY.TEXT
PL6.E3A0      #001=ASL$LIST_ALL_DEVICES File=ASL$LIST_DEVICES.:E05TSI            TUE 07/29/97 10:07 Page:144
     15887**DCL     15888--REDEF   15888--REDEF   15888--REDEF   15889--REDEF
USERS_KEY.TXTC
     15888**DCL     19967<<CALLBLT 19991<<CALLBLT 19995<<CALLBLT 20011<<CALLBLT 20034<<ASSIGN  20041<<CALLBLT
     20054<<CALLBLT 20101<<ASSIGN  20110<<CALLBLT 20120<<CALLBLT 20133<<CALLBLT 20172>>DOWHILE 20177>>CALLBLT
     20183>>ASSIGN  20187>>CALLBLT 20194>>ASSIGN  20270>>DOWHILE 20275>>CALLBLT 20281>>ASSIGN  20308<<CALLBLT
X$FORMAT
     19171**DCL-ENT 19870--CALL    20379--CALL    20400--CALL

