PL6.E3A0      #002=ASL$FORMAT_DEVNAME File=ASL$LIST_DEVICES.:E05TSI              TUE 07/29/97 10:10 Page:145
      774        1        /*T***********************************************************/
      775        2        /*T*                                                         */
      776        3        /*T* Copyright (c) Bull HN Information Systems Inc., 1997    */
      777        4        /*T*                                                         */
      778        5        /*T***********************************************************/
      779        6        %EJECT;
PL6.E3A0      #002=ASL$FORMAT_DEVNAME File=ASL$LIST_DEVICES.:E05TSI              TUE 07/29/97 10:10 Page:146
      780        7        ASL$FORMAT_DEVNAME: PROC (TEXT$C, NUMBER);
      781        8        /**********************************************************/
      782        9
      783       10        /*D* NAME:     ASL$FORMAT_DEVNAME
      784       11             CALL:     CALL ASL$FORMAT_DEVNAME ;
      785       12             INPUT:    TEXT$C - A TEXTC string containing the key of the
      786       13                                 last device record read.
      787       14             OUTPUT:   Nothing is returned.
      788       15             DESCRIPTION:  ASL$FORMAT_DEVNAME is the routine that
      789       16                           formats the device records key into a device name
      790       17                           that can be recognized and used by a user.
      791       18                           This routine recognizes the following types of
      792       19                           record keys from :HLP:
      793       20                                 type 1 - device records - keys 'xxxxxxxx*'
      794       21                                 type 2 - device records - keys 'ddnn9999'
      795       22                                 type 3 - device records - keys 'xxxxxxxxxxxxxxxxxxxx'
      796       23                           And will format them like the following:
      797       24                                 type 1 - 'xxxxxxxx'  format - %>A
      798       25                                 type 2 - 'ddnn'      format - %A
      799       26                                 type 3 - 'xxxxxxxxxxxxxxxxxxxx' format - %8A','%12A
      800       27
      801       28                           The keys belong to the following types of devices:
      802       29                                 type 1 - regular devices and tp devices created
      803       30                                          with an account but no name.
      804       31                                 type 2 - devices belonging to a terminal.
      805       32                                 type 3 - tpdevices created with both an
      806       33                                          account and a name.
      807       34        */
      808       35        /********************************************************************/
      809       36        /*   Include files   include files   include files   include files  */
      810       37        /********************************************************************/
      811       38        %INCLUDE AS_SUPER_C;
      812      473        %INCLUDE AS_SUBS_C;
      813     1887        %INCLUDE AS_MAC_C;
      814     1967        %INCLUDE KL_SUPER_C;
      815     4869        %INCLUDE XU_MACRO_C;
      816     7975        %INCLUDE XU_FORMAT_C;
PL6.E3A0      #002=ASL$FORMAT_DEVNAME File=ASL$LIST_DEVICES.:E05TSI              TUE 07/29/97 10:10 Page:147
      817     8137        %INCLUDE AS_SUPER_R;
      818    11153        /********************************************************************/
      819    11154        /*   Entry dcls      entry dcls      entry dcls      entry dcls     */
      820    11155        /********************************************************************/
      821    11156    1   DCL X$FORMAT ENTRY(1);
      822    11157        /********************************************************************/
      823    11158        /*   Parameters      parameters      parameters      parameters     */
      824    11159        /********************************************************************/
      825    11160    1   DCL NUMBER UBIN;
      826    11161    1   DCL 1 TEXT$C,
      827    11162    1          2 COUNT UBIN BYTE UNAL,
      828    11163    1          2 TEXT CHAR(41) UNAL;
      829    11164        /********************************************************************/
      830    11165        /*   Auto data       auto data       auto data       auto data      */
      831    11166        /********************************************************************/
      832    11167    1   DCL ACCT                     CHAR(8);
      833    11168    1   DCL ACCT_LEN                 UBIN;
      834    11169    1   DCL 1 DEV_NAME,
      835    11170    1          2 COUNT               UBIN BYTE UNAL,
      836    11171    1          2 TEXT                CHAR(41) UNAL;
      837    11172    1   DCL LEN                      UBIN;
      838    11173    1   DCL NAME_LEN                 UBIN;
      839    11174    1   DCL NAME                     CHAR(12);
      840    11175        %EJECT;
PL6.E3A0      #002=ASL$FORMAT_DEVNAME File=ASL$LIST_DEVICES.:E05TSI              TUE 07/29/97 10:10 Page:148
      841    11176        /********************************************************************/
      842    11177        /*   Procedure       procedure       procedure       procedure      */
      843    11178        /********************************************************************/
      844    11179    2   IF TEXT$C.COUNT = 8 THEN DO;
      845    11180    2      DEV_NAME.COUNT = 4;
      846    11181    2      DEV_NAME.TEXT = SUBSTR (TEXT$C.TEXT,0,4);
      847    11182    2      END;  /*  Count = 8  */
      848    11183    2   ELSE IF TEXT$C.COUNT = 9 THEN DO;
      849    11184    2         CALL INDEX (LEN, ' ', SUBSTR (TEXT$C.TEXT,0,8));
      850    11185    2         DEV_NAME.TEXT = SUBSTR (TEXT$C.TEXT,0,LEN);
      851    11186    2         DEV_NAME.COUNT = LEN;
      852    11187    2         END; /*  If count = 9  */
      853    11188    2      ELSE DO;
      854    11189    2         CALL INDEX(ACCT_LEN, ' ', SUBSTR(TEXT$C.TEXT,0,8));
      855    11190    2         ACCT = SUBSTR (TEXT$C.TEXT,0,ACCT_LEN);
      856    11191    2         CALL INDEX (NAME_LEN, ' ', SUBSTR(TEXT$C.TEXT,8,12));
      857    11192    2         NAME = SUBSTR (TEXT$C.TEXT,8,NAME_LEN);
      858    11193    2         CALL CONCAT (DEV_NAME.TEXT, SUBSTR (ACCT,0,ACCT_LEN), ',', SUBSTR(NAME,0,
             11193                  NAME_LEN));
      859    11194    2         DEV_NAME.COUNT = ACCT_LEN + NAME_LEN + 1;
      860    11195    2         END; /*   Else  */
      861    11196    2   IF NUMBER = 0 THEN DO;
      862    11197    2      CALL CONCAT (FMT_BUF, '%\', SUBSTR(DEV_NAME.TEXT,0,DEV_NAME.COUNT));
      863    11198    2      FDS.FMT_.BOUND = DEV_NAME.COUNT + 1;
      864    11199    2      END; /*  Number = 0  */
      865    11200    2   ELSE DO;
      866    11201    2      FMT_VEC(0) = VECTOR (DEV_NAME.COUNT);
      867    11202    2      FDS.NVECS# = 1;
      868    11203    2      CALL CONCAT (FMT_BUF, '%\%-%NR', SUBSTR(DEV_NAME.TEXT,0,DEV_NAME.COUNT));
      869    11204    2      FDS.FMT_.BOUND = DEV_NAME.COUNT + 6;
      870    11205    2      END; /*  Else  */
      871    11206    1   CALL X$FORMAT(FDS);
      872    11207    1   END  ASL$FORMAT_DEVNAME;
      873    11208        %EOD;

PL6.E3A0      #002=ASL$FORMAT_DEVNAME File=ASL$LIST_DEVICES.:E05TSI              TUE 07/29/97 10:10 Page:149
--  Include file information  --

   AS_SUPER_R.:E05TOU  cannot be made into a system file and is referenced.
   XU_FORMAT_C.:E05TOU  is referenced.
   XU_MACRO_C.:E05TOU  is referenced.
   KL_SUPER_C.:E05TOU  is referenced.
   AS_MAC_C.:E05TOU  cannot be made into a system file and is referenced.
   AS_SUBS_C.:E05TOU  is referenced.
   AS_SUPER_C.:E05TOU  is referenced.
   B$JIT_C.:E05TOU  was found in the system file and is never referenced.
   CP_6_C.:E05TOU  was found in the system file and is never referenced.
      No diagnostics issued in procedure ASL$FORMAT_DEVNAME.

   Procedure ASL$FORMAT_DEVNAME requires 119 words for executable code.
   Procedure ASL$FORMAT_DEVNAME requires 26 words of local(AUTO) storage.

PL6.E3A0      #002=ASL$FORMAT_DEVNAME File=ASL$LIST_DEVICES.:E05TSI              TUE 07/29/97 10:10 Page:150

 Object Unit name= ASL$FORMAT_DEVNAME                         File name= ASL$LIST_DEVICES.:E05TOU
 UTS= JUL 29 '97 10:10:53.12 TUE                              Compiler= PL-6/E31         Sev=      00
 SharedLib= :SHARED_SYSTEM                                    Alt SharedLib=


    ****  Control sections  ****

 Sect   Type Bound  Init  Size OctSiz  Section name(segment info)
    0   DCB   even  none     0      0  M$LO
    1  RoData even  UTS      3      3  ASL$FORMAT_DEVNAME
    2   Proc  even  none   119    167  ASL$FORMAT_DEVNAME
    3  RoData even  none     2      2  ASL$FORMAT_DEVNAME

    ****  Entry defs  ****

                              Check   Calling
                             calling  sequence
  Sect OctLoc Primary Altret sequence   type   Parms  Name
     2      0   yes            yes      Std        2  ASL$FORMAT_DEVNAME

  ****  Entry refs  ****

         Check        Calling
        calling       sequence
Altret sequence SRef   type   Args  Name
         yes          ~proc      0 XU_OUTPUT_OPTIONS
         yes           Std       1 X$FORMAT
                       nStd      0 X66_AUTO_2
                       Std       0 B_CONSPOOL_D
                       nStd      0 X66_ARET
PL6.E3A0      #002=ASL$FORMAT_DEVNAME File=ASL$LIST_DEVICES.:E05TSI              TUE 07/29/97 10:10 Page:151

  ****  Data refs  ****

  Flags:  r = read only, s = secondary
Flgs Name                             Flgs Name                             Flgs Name
r    AS_MODE                          r    AS_FE_MODE                            M$LO
     FDS                                   FMT_BUF                               FMT_VEC
     ERR_CODE                              REMEM_VAR                             REM_FCMD
     ASA_BRKS_LOC                          B_VECTNIL

  ****  Segment refs  ****

  Flags:  r = read only, s = secondary
Flgs Name                             Flgs Name                             Flgs Name
     ISSID
PL6.E3A0      #002=ASL$FORMAT_DEVNAME File=ASL$LIST_DEVICES.:E05TSI              TUE 07/29/97 10:10 Page:152


      774        1        /*T***********************************************************/
      775        2        /*T*                                                         */
      776        3        /*T* Copyright (c) Bull HN Information Systems Inc., 1997    */
      777        4        /*T*                                                         */
      778        5        /*T***********************************************************/
      779        6        %EJECT;
PL6.E3A0      #002=ASL$FORMAT_DEVNAME File=ASL$LIST_DEVICES.:E05TSI              TUE 07/29/97 10:10 Page:153
      780        7        ASL$FORMAT_DEVNAME: PROC (TEXT$C, NUMBER);

      7  2 000000   000000 700200 xent  ASL$FORMAT_* TSX0  ! X66_AUTO_2
         2 000001   000032 000002                    ZERO    26,2

      781        8        /**********************************************************/
      782        9
      783       10        /*D* NAME:     ASL$FORMAT_DEVNAME
      784       11             CALL:     CALL ASL$FORMAT_DEVNAME ;
      785       12             INPUT:    TEXT$C - A TEXTC string containing the key of the
      786       13                                 last device record read.
      787       14             OUTPUT:   Nothing is returned.
      788       15             DESCRIPTION:  ASL$FORMAT_DEVNAME is the routine that
      789       16                           formats the device records key into a device name
      790       17                           that can be recognized and used by a user.
      791       18                           This routine recognizes the following types of
      792       19                           record keys from :HLP:
      793       20                                 type 1 - device records - keys 'xxxxxxxx*'
      794       21                                 type 2 - device records - keys 'ddnn9999'
      795       22                                 type 3 - device records - keys 'xxxxxxxxxxxxxxxxxxxx'
      796       23                           And will format them like the following:
      797       24                                 type 1 - 'xxxxxxxx'  format - %>A
      798       25                                 type 2 - 'ddnn'      format - %A
      799       26                                 type 3 - 'xxxxxxxxxxxxxxxxxxxx' format - %8A','%12A
      800       27
      801       28                           The keys belong to the following types of devices:
      802       29                                 type 1 - regular devices and tp devices created
      803       30                                          with an account but no name.
      804       31                                 type 2 - devices belonging to a terminal.
      805       32                                 type 3 - tpdevices created with both an
      806       33                                          account and a name.
      807       34        */
      808       35        /********************************************************************/
      809       36        /*   Include files   include files   include files   include files  */
      810       37        /********************************************************************/
      811       38        %INCLUDE AS_SUPER_C;
      812      473        %INCLUDE AS_SUBS_C;
PL6.E3A0      #002=ASL$FORMAT_DEVNAME File=ASL$LIST_DEVICES.:E05TSI              TUE 07/29/97 10:10 Page:154
      813     1887        %INCLUDE AS_MAC_C;
      814     1967        %INCLUDE KL_SUPER_C;
      815     4869        %INCLUDE XU_MACRO_C;
      816     7975        %INCLUDE XU_FORMAT_C;
      817     8137        %INCLUDE AS_SUPER_R;
      818    11153        /********************************************************************/
      819    11154        /*   Entry dcls      entry dcls      entry dcls      entry dcls     */
      820    11155        /********************************************************************/
      821    11156    1   DCL X$FORMAT ENTRY(1);
      822    11157        /********************************************************************/
      823    11158        /*   Parameters      parameters      parameters      parameters     */
      824    11159        /********************************************************************/
      825    11160    1   DCL NUMBER UBIN;
      826    11161    1   DCL 1 TEXT$C,
      827    11162    1          2 COUNT UBIN BYTE UNAL,
      828    11163    1          2 TEXT CHAR(41) UNAL;
      829    11164        /********************************************************************/
      830    11165        /*   Auto data       auto data       auto data       auto data      */
      831    11166        /********************************************************************/
      832    11167    1   DCL ACCT                     CHAR(8);
      833    11168    1   DCL ACCT_LEN                 UBIN;
      834    11169    1   DCL 1 DEV_NAME,
      835    11170    1          2 COUNT               UBIN BYTE UNAL,
      836    11171    1          2 TEXT                CHAR(41) UNAL;
      837    11172    1   DCL LEN                      UBIN;
      838    11173    1   DCL NAME_LEN                 UBIN;
      839    11174    1   DCL NAME                     CHAR(12);
      840    11175        %EJECT;
PL6.E3A0      #002=ASL$FORMAT_DEVNAME File=ASL$LIST_DEVICES.:E05TSI              TUE 07/29/97 10:10 Page:155
      841    11176        /********************************************************************/
      842    11177        /*   Procedure       procedure       procedure       procedure      */
      843    11178        /********************************************************************/
      844    11179    2   IF TEXT$C.COUNT = 8 THEN DO;

  11179  2 000002   200003 470500                    LDP0    @TEXT$C,,AUTO
         2 000003   000100 101500                    MRL     fill='000'O
         2 000004   000000 000001                    ADSC9   0,,PR0                   cn=0,n=1
         2 000005   200030 000004                    ADSC9   NAME+3,,AUTO             cn=0,n=4
         2 000006   200030 236100                    LDQ     NAME+3,,AUTO
         2 000007   000010 116007                    CMPQ    8,DL
         2 000010   000017 601000 2                  TNZ     s:11183

      845    11180    2      DEV_NAME.COUNT = 4;

  11180  2 000011   004000 236003                    LDQ     2048,DU
         2 000012   200010 552140                    STBQ    DEV_NAME,'40'O,AUTO

      846    11181    2      DEV_NAME.TEXT = SUBSTR (TEXT$C.TEXT,0,4);

  11181  2 000013   040100 100500                    MLR     fill='040'O
         2 000014   000000 200004                    ADSC9   0,,PR0                   cn=1,n=4
         2 000015   200010 200051                    ADSC9   DEV_NAME,,AUTO           cn=1,n=41

      847    11182    2      END;  /*  Count = 8  */

  11182  2 000016   000107 710000 2                  TRA     s:11196

      848    11183    2   ELSE IF TEXT$C.COUNT = 9 THEN DO;

  11183  2 000017   000100 101500                    MRL     fill='000'O
         2 000020   000000 000001                    ADSC9   0,,PR0                   cn=0,n=1
         2 000021   200030 000004                    ADSC9   NAME+3,,AUTO             cn=0,n=4
         2 000022   200030 236100                    LDQ     NAME+3,,AUTO
         2 000023   000011 116007                    CMPQ    9,DL
         2 000024   000041 601000 2                  TNZ     s:11189

PL6.E3A0      #002=ASL$FORMAT_DEVNAME File=ASL$LIST_DEVICES.:E05TSI              TUE 07/29/97 10:10 Page:156
      849    11184    2         CALL INDEX (LEN, ' ', SUBSTR (TEXT$C.TEXT,0,8));

  11184  2 000025   000000 124500                    SCM     mask='000'O
         2 000026   000000 200010                    ADSC9   0,,PR0                   cn=1,n=8
         2 000027   000035 000001 xsym               ADSC9   B_VECTNIL+29             cn=0,n=1
         2 000030   200023 000100                    ARG     LEN,,AUTO

      850    11185    2         DEV_NAME.TEXT = SUBSTR (TEXT$C.TEXT,0,LEN);

  11185  2 000031   200023 720100                    LXL0    LEN,,AUTO
         2 000032   040100 100540                    MLR     fill='040'O
         2 000033   000000 200010                    ADSC9   0,,PR0                   cn=1,n=*X0
         2 000034   200010 200051                    ADSC9   DEV_NAME,,AUTO           cn=1,n=41

      851    11186    2         DEV_NAME.COUNT = LEN;

  11186  2 000035   200023 236100                    LDQ     LEN,,AUTO
         2 000036   000033 736000                    QLS     27
         2 000037   200010 552140                    STBQ    DEV_NAME,'40'O,AUTO

      852    11187    2         END; /*  If count = 9  */

  11187  2 000040   000107 710000 2                  TRA     s:11196

      853    11188    2      ELSE DO;

      854    11189    2         CALL INDEX(ACCT_LEN, ' ', SUBSTR(TEXT$C.TEXT,0,8));

  11189  2 000041   000000 124500                    SCM     mask='000'O
         2 000042   000000 200010                    ADSC9   0,,PR0                   cn=1,n=8
         2 000043   000035 000001 xsym               ADSC9   B_VECTNIL+29             cn=0,n=1
         2 000044   200007 000100                    ARG     ACCT_LEN,,AUTO

      855    11190    2         ACCT = SUBSTR (TEXT$C.TEXT,0,ACCT_LEN);

  11190  2 000045   200007 720100                    LXL0    ACCT_LEN,,AUTO
         2 000046   040100 100540                    MLR     fill='040'O
PL6.E3A0      #002=ASL$FORMAT_DEVNAME File=ASL$LIST_DEVICES.:E05TSI              TUE 07/29/97 10:10 Page:157
         2 000047   000000 200010                    ADSC9   0,,PR0                   cn=1,n=*X0
         2 000050   200005 000010                    ADSC9   ACCT,,AUTO               cn=0,n=8

      856    11191    2         CALL INDEX (NAME_LEN, ' ', SUBSTR(TEXT$C.TEXT,8,12));

  11191  2 000051   000000 124500                    SCM     mask='000'O
         2 000052   000002 200014                    ADSC9   2,,PR0                   cn=1,n=12
         2 000053   000035 000001 xsym               ADSC9   B_VECTNIL+29             cn=0,n=1
         2 000054   200024 000100                    ARG     NAME_LEN,,AUTO

      857    11192    2         NAME = SUBSTR (TEXT$C.TEXT,8,NAME_LEN);

  11192  2 000055   200024 721100                    LXL1    NAME_LEN,,AUTO
         2 000056   040100 100540                    MLR     fill='040'O
         2 000057   000002 200011                    ADSC9   2,,PR0                   cn=1,n=*X1
         2 000060   200025 000014                    ADSC9   NAME,,AUTO               cn=0,n=12

      858    11193    2         CALL CONCAT (DEV_NAME.TEXT, SUBSTR (ACCT,0,ACCT_LEN), ',', SUBSTR(NAME,0,
             11193                  NAME_LEN));

  11193  2 000061   040100 100540                    MLR     fill='040'O
         2 000062   200005 000010                    ADSC9   ACCT,,AUTO               cn=0,n=*X0
         2 000063   200010 200051                    ADSC9   DEV_NAME,,AUTO           cn=1,n=41
         2 000064   200007 236100                    LDQ     ACCT_LEN,,AUTO
         2 000065   000051 116007                    CMPQ    41,DL
         2 000066   000103 603000 2                  TRC     s:11194
         2 000067   777726 622006                    EAX2    -42,QL
         2 000070   777777 662003                    ERX2    -1,DU
         2 000071   040146 100400                    MLR     fill='040'O
         2 000072   000000 000001 3                  ADSC9   0                        cn=0,n=1
         2 000073   200010 200012                    ADSC9   DEV_NAME,Q,AUTO          cn=1,n=*X2
         2 000074   000050 116007                    CMPQ    40,DL
         2 000075   000103 603000 2                  TRC     s:11194
         2 000076   777727 623006                    EAX3    -41,QL
         2 000077   777777 663003                    ERX3    -1,DU
         2 000100   040146 100540                    MLR     fill='040'O
         2 000101   200025 000011                    ADSC9   NAME,,AUTO               cn=0,n=*X1
PL6.E3A0      #002=ASL$FORMAT_DEVNAME File=ASL$LIST_DEVICES.:E05TSI              TUE 07/29/97 10:10 Page:158
         2 000102   200010 400013                    ADSC9   DEV_NAME,Q,AUTO          cn=2,n=*X3

      859    11194    2         DEV_NAME.COUNT = ACCT_LEN + NAME_LEN + 1;

  11194  2 000103   200024 036100                    ADLQ    NAME_LEN,,AUTO
         2 000104   000001 036007                    ADLQ    1,DL
         2 000105   000033 736000                    QLS     27
         2 000106   200010 552140                    STBQ    DEV_NAME,'40'O,AUTO

      860    11195    2         END; /*   Else  */

      861    11196    2   IF NUMBER = 0 THEN DO;

  11196  2 000107   200004 471500                    LDP1    @NUMBER,,AUTO
         2 000110   100000 235100                    LDA     0,,PR1
         2 000111   000132 601000 2                  TNZ     s:11201

      862    11197    2      CALL CONCAT (FMT_BUF, '%\', SUBSTR(DEV_NAME.TEXT,0,DEV_NAME.COUNT));

  11197  2 000112   200010 236100                    LDQ     DEV_NAME,,AUTO
         2 000113   000033 772000                    QRL     27
         2 000114   000000 220000 1                  LDX0    0
         2 000115   000000 740000 xsym               STX0    FMT_BUF
         2 000116   000000 621006                    EAX1    0,QL
         2 000117   040000 100540                    MLR     fill='040'O
         2 000120   200010 200011                    ADSC9   DEV_NAME,,AUTO           cn=1,n=*X1
         2 000121   000000 400375 xsym               ADSC9   FMT_BUF                  cn=2,n=253

      863    11198    2      FDS.FMT_.BOUND = DEV_NAME.COUNT + 1;

  11198  2 000122   200010 236100                    LDQ     DEV_NAME,,AUTO
         2 000123   000033 772000                    QRL     27
         2 000124   000001 036007                    ADLQ    1,DL
         2 000125   000020 736000                    QLS     16
         2 000126   000000 676000 xsym               ERQ     FDS
         2 000127   000034 376000 xsym               ANQ     B_VECTNIL+28
         2 000130   000000 656000 xsym               ERSQ    FDS
PL6.E3A0      #002=ASL$FORMAT_DEVNAME File=ASL$LIST_DEVICES.:E05TSI              TUE 07/29/97 10:10 Page:159

      864    11199    2      END; /*  Number = 0  */

  11199  2 000131   000162 710000 2                  TRA     s:11206

      865    11200    2   ELSE DO;

      866    11201    2      FMT_VEC(0) = VECTOR (DEV_NAME.COUNT);

  11201  2 000132   177640 235007                    LDA     65440,DL
         2 000133   200030 452500                    STP2    NAME+3,,AUTO
         2 000134   200030 236100                    LDQ     NAME+3,,AUTO
         2 000135   000010 036003                    ADLQ    8,DU
         2 000136   000000 755000 xsym               STA     FMT_VEC
         2 000137   000001 756000 xsym               STQ     FMT_VEC+1

      867    11202    2      FDS.NVECS# = 1;

  11202  2 000140   000001 235007                    LDA     1,DL
         2 000141   000011 755000 xsym               STA     FDS+9

      868    11203    2      CALL CONCAT (FMT_BUF, '%\%-%NR', SUBSTR(DEV_NAME.TEXT,0,DEV_NAME.COUNT));

  11203  2 000142   200010 236100                    LDQ     DEV_NAME,,AUTO
         2 000143   000033 772000                    QRL     27
         2 000144   040000 100400                    MLR     fill='040'O
         2 000145   000001 000007 1                  ADSC9   1                        cn=0,n=7
         2 000146   000000 000007 xsym               ADSC9   FMT_BUF                  cn=0,n=7
         2 000147   000000 620006                    EAX0    0,QL
         2 000150   040000 100540                    MLR     fill='040'O
         2 000151   200010 200010                    ADSC9   DEV_NAME,,AUTO           cn=1,n=*X0
         2 000152   000001 600370 xsym               ADSC9   FMT_BUF+1                cn=3,n=248

      869    11204    2      FDS.FMT_.BOUND = DEV_NAME.COUNT + 6;

  11204  2 000153   200010 236100                    LDQ     DEV_NAME,,AUTO
         2 000154   000033 772000                    QRL     27
PL6.E3A0      #002=ASL$FORMAT_DEVNAME File=ASL$LIST_DEVICES.:E05TSI              TUE 07/29/97 10:10 Page:160
         2 000155   000006 036007                    ADLQ    6,DL
         2 000156   000020 736000                    QLS     16
         2 000157   000000 676000 xsym               ERQ     FDS
         2 000160   000034 376000 xsym               ANQ     B_VECTNIL+28
         2 000161   000000 656000 xsym               ERSQ    FDS

      870    11205    2      END; /*  Else  */

      871    11206    1   CALL X$FORMAT(FDS);

  11206  2 000162   000001 630400 3                  EPPR0   1
         2 000163   000017 631400 xsym               EPPR1   B_VECTNIL+15
         2 000164   000000 701000 xent               TSX1    X$FORMAT
         2 000165   000000 011000                    NOP     0

      872    11207    1   END  ASL$FORMAT_DEVNAME;

  11207  2 000166   000000 702200 xent               TSX2  ! X66_ARET
      873    11208        %EOD;

PL6.E3A0      #002=ASL$FORMAT_DEVNAME File=ASL$LIST_DEVICES.:E05TSI              TUE 07/29/97 10:10 Page:161
--  Include file information  --

   AS_SUPER_R.:E05TOU  cannot be made into a system file and is referenced.
   XU_FORMAT_C.:E05TOU  is referenced.
   XU_MACRO_C.:E05TOU  is referenced.
   KL_SUPER_C.:E05TOU  is referenced.
   AS_MAC_C.:E05TOU  cannot be made into a system file and is referenced.
   AS_SUBS_C.:E05TOU  is referenced.
   AS_SUPER_C.:E05TOU  is referenced.
   B$JIT_C.:E05TOU  was found in the system file and is never referenced.
   CP_6_C.:E05TOU  was found in the system file and is never referenced.
      No diagnostics issued in procedure ASL$FORMAT_DEVNAME.
PL6.E3A0      #002=ASL$FORMAT_DEVNAME File=ASL$LIST_DEVICES.:E05TSI              TUE 07/29/97 10:10 Page:162

 **** Variables and constants ****

  ****  Auto variables  ****

  ****  Scalars and arrays  ****
OctLoc.c.b A Datatyp(siz) R M Lvl/name                 OctLoc.c.b A Datatyp(siz) R M Lvl/name

     4-0-0/w PTR         r     1 @NUMBER                    3-0-0/w PTR         r     1 @TEXT$C
     5-0-0/c CHAR(8)     r     1 ACCT                       7-0-0/w UBIN        r     1 ACCT_LEN
    10-0-0/c STRC(378)   r     1 DEV_NAME                  23-0-0/w UBIN        r     1 LEN
    25-0-0/c CHAR(12)    r     1 NAME                      24-0-0/w UBIN        r     1 NAME_LEN
    *0-0-0/w UBIN        r     1 NUMBER                    *0-0-0/c STRC(378)   r     1 TEXT$C

  ****  SYMREF variables  ****

  ****  Scalars and arrays  ****
OctLoc.c.b A Datatyp(siz) R M Lvl/name                 OctLoc.c.b A Datatyp(siz) R M Lvl/name

     0-0-0/w STRC(1080)  r     1 FDS                        0-0-0/c CHAR(255)   r     1 FMT_BUF
     0-0-0/w STRC(72)    r     1 FMT_VEC(0:75)


   Procedure ASL$FORMAT_DEVNAME requires 119 words for executable code.
   Procedure ASL$FORMAT_DEVNAME requires 26 words of local(AUTO) storage.
PL6.E3A0      #002=ASL$FORMAT_DEVNAME File=ASL$LIST_DEVICES.:E05TSI              TUE 07/29/97 10:10 Page:163
          *** CROSS REFERENCE LISTING ***
**     DENOTES     IDENTIFIER DEFINITION
<<                 IDENTIFIER'S VALUE SET
>>                 IDENTIFIER'S VALUE USED
<>                 IDENTIFIER SET AND/OR USED
--                 IDENTIFIER REFERENCED
PL6.E3A0      #002=ASL$FORMAT_DEVNAME File=ASL$LIST_DEVICES.:E05TSI              TUE 07/29/97 10:10 Page:164
          MINI XREF LISTING

ACCT
     11167**DCL     11190<<ASSIGN  11193>>CALLBLT
ACCT_LEN
     11168**DCL     11189<<CALLBLT 11190>>ASSIGN  11193>>CALLBLT 11194>>ASSIGN
ASA_BRKS_LOC
      8301**DCL      8301--REDEF
AS_DEFAULT.BANNER_PERM
      8994**DCL      8995--REDEF
AS_DEFAULT.BUDGET.MACCT
      8899**DCL      8903--REDEF
AS_DEFAULT.BUDGET.MAX_PROJECTS
      8912**DCL      8915--REDEF
AS_DEFAULT.BUDGET.PACCUM
      8895**DCL      8897--REDEF
AS_DEFAULT.BUDGET.PMAXC
      8890**DCL      8892--REDEF
AS_DEFAULT.SETUP_CHRA.TXT
      9010**DCL      9011--REDEF    9012--REDEF
AS_DEFAULT_DREC.PASSWORD
     10264**DCL     10268--REDEF
AS_DEFAULT_DREC.RENAME
     10287**DCL     10288--REDEF
AS_DFLT.BANNER_PERM
      8816**DCL      8817--REDEF
AS_DFLT.BUDGET.MACCT
      8721**DCL      8725--REDEF
AS_DFLT.BUDGET.MAX_PROJECTS
      8734**DCL      8737--REDEF
AS_DFLT.BUDGET.PACCUM
      8717**DCL      8719--REDEF
AS_DFLT.BUDGET.PMAXC
      8712**DCL      8714--REDEF
PL6.E3A0      #002=ASL$FORMAT_DEVNAME File=ASL$LIST_DEVICES.:E05TSI              TUE 07/29/97 10:10 Page:165
AS_DFLT.SETUP_CHRA.TXT
      8832**DCL      8833--REDEF    8834--REDEF
AS_FE_MODE
      8167**DCL      8168--REDEF
AS_MODE
      8164**DCL      8166--REDEF
AS_MOD_USER.ACCESS
     11029**DCL     11030--REDEF
AS_MOD_USER.BANNER
     11016**DCL     11017--REDEF
AS_MOD_USER.BANNER_PERM
     11018**DCL     11019--REDEF
AS_MOD_USER.BILL
     11024**DCL     11025--REDEF
AS_MOD_USER.CPROC
     11020**DCL     11021--REDEF
AS_MOD_USER.FEBILL
     11100**DCL     11101--REDEF
AS_MOD_USER.FECXTMEM
     11117**DCL     11118--REDEF
AS_MOD_USER.FEMINTS
     11102**DCL     11103--REDEF
AS_MOD_USER.FEMMEM
     11113**DCL     11114--REDEF
AS_MOD_USER.FEMTIME
     11111**DCL     11112--REDEF
AS_MOD_USER.FEPPRIV
     11108**DCL     11110--REDEF
AS_MOD_USER.FEPRIV
     11105**DCL     11107--REDEF
AS_MOD_USER.FORCE_BIT
     11014**DCL     11015--REDEF
AS_MOD_USER.KEY
     11096**DCL     11098--REDEF
AS_MOD_USER.LASTCPROC
     11022**DCL     11023--REDEF
PL6.E3A0      #002=ASL$FORMAT_DEVNAME File=ASL$LIST_DEVICES.:E05TSI              TUE 07/29/97 10:10 Page:166
AS_MOD_USER.LIMITS.DO_
     11070**DCL     11071--REDEF
AS_MOD_USER.LIMITS.FPOOLS
     11086**DCL     11087--REDEF
AS_MOD_USER.LIMITS.LO
     11066**DCL     11067--REDEF
AS_MOD_USER.LIMITS.MEM
     11062**DCL     11063--REDEF
AS_MOD_USER.LIMITS.MPRIO
     11090**DCL     11091--REDEF
AS_MOD_USER.LIMITS.PDIS
     11078**DCL     11079--REDEF
AS_MOD_USER.LIMITS.PO
     11074**DCL     11075--REDEF
AS_MOD_USER.LIMITS.TDIS
     11082**DCL     11083--REDEF
AS_MOD_USER.LIMITS.TIME
     11058**DCL     11059--REDEF
AS_MOD_USER.MAXENQ
     11039**DCL     11040--REDEF
AS_MOD_USER.PERM_BIT
     11012**DCL     11013--REDEF
AS_MOD_USER.PPRIV
     11034**DCL     11036--REDEF
AS_MOD_USER.PRIOB
     11041**DCL     11042--REDEF
AS_MOD_USER.PRIV
     11031**DCL     11033--REDEF
AS_MOD_USER.QUAN
     11037**DCL     11038--REDEF
AS_MOD_USER.SETUP
     11010**DCL     11011--REDEF
AS_PROJECT.BANNER_PERM
      9350**DCL      9351--REDEF
AS_PROJECT.BUDGET.MACCT
      9255**DCL      9259--REDEF
PL6.E3A0      #002=ASL$FORMAT_DEVNAME File=ASL$LIST_DEVICES.:E05TSI              TUE 07/29/97 10:10 Page:167
AS_PROJECT.BUDGET.MAX_PROJECTS
      9268**DCL      9271--REDEF
AS_PROJECT.BUDGET.PACCUM
      9251**DCL      9253--REDEF
AS_PROJECT.BUDGET.PMAXC
      9246**DCL      9248--REDEF
AS_PROJECT.SETUP_CHRA.TXT
      9366**DCL      9367--REDEF    9368--REDEF
AS_PROJECT_DFLT.BANNER_PERM
      9528**DCL      9529--REDEF
AS_PROJECT_DFLT.BUDGET.MACCT
      9433**DCL      9437--REDEF
AS_PROJECT_DFLT.BUDGET.MAX_PROJECTS
      9446**DCL      9449--REDEF
AS_PROJECT_DFLT.BUDGET.PACCUM
      9429**DCL      9431--REDEF
AS_PROJECT_DFLT.BUDGET.PMAXC
      9424**DCL      9426--REDEF
AS_PROJECT_DFLT.SETUP_CHRA.TXT
      9544**DCL      9545--REDEF    9546--REDEF
AS_PROJECT_DFLT_DREC.PASSWORD
     10750**DCL     10754--REDEF
AS_PROJECT_DFLT_DREC.RENAME
     10773**DCL     10774--REDEF
AS_PROJECT_DREC.PASSWORD
     10588**DCL     10592--REDEF
AS_PROJECT_DREC.RENAME
     10611**DCL     10612--REDEF
AS_PROJ_ADMIN.BANNER_PERM
      9172**DCL      9173--REDEF
AS_PROJ_ADMIN.BUDGET.MACCT
      9077**DCL      9081--REDEF
AS_PROJ_ADMIN.BUDGET.MAX_PROJECTS
      9090**DCL      9093--REDEF
AS_PROJ_ADMIN.BUDGET.PACCUM
      9073**DCL      9075--REDEF
PL6.E3A0      #002=ASL$FORMAT_DEVNAME File=ASL$LIST_DEVICES.:E05TSI              TUE 07/29/97 10:10 Page:168
AS_PROJ_ADMIN.BUDGET.PMAXC
      9068**DCL      9070--REDEF
AS_PROJ_ADMIN.SETUP_CHRA.TXT
      9188**DCL      9189--REDEF    9190--REDEF
AS_PROJ_ADMIN_DREC.PASSWORD
     10426**DCL     10430--REDEF
AS_PROJ_ADMIN_DREC.RENAME
     10449**DCL     10450--REDEF
AS_USERS.BANNER_PERM
      8638**DCL      8639--REDEF
AS_USERS.BUDGET.MACCT
      8543**DCL      8547--REDEF
AS_USERS.BUDGET.MAX_PROJECTS
      8556**DCL      8559--REDEF
AS_USERS.BUDGET.PACCUM
      8539**DCL      8541--REDEF
AS_USERS.BUDGET.PMAXC
      8534**DCL      8536--REDEF
AS_USERS.SETUP_CHRA.TXT
      8654**DCL      8655--REDEF    8656--REDEF
AS_USERS_CONSTANT.BANNER_PERM
      9706**DCL      9707--REDEF
AS_USERS_CONSTANT.BUDGET.MACCT
      9611**DCL      9615--REDEF
AS_USERS_CONSTANT.BUDGET.MAX_PROJECTS
      9624**DCL      9627--REDEF
AS_USERS_CONSTANT.BUDGET.PACCUM
      9607**DCL      9609--REDEF
AS_USERS_CONSTANT.BUDGET.PMAXC
      9602**DCL      9604--REDEF
AS_USERS_CONSTANT.SETUP_CHRA.TXT
      9722**DCL      9723--REDEF    9724--REDEF
DEV_NAME.COUNT
     11170**DCL     11180<<ASSIGN  11186<<ASSIGN  11194<<ASSIGN  11197>>CALLBLT 11198>>ASSIGN  11201--ASSIGN
     11203>>CALLBLT 11204>>ASSIGN
DEV_NAME.TEXT
PL6.E3A0      #002=ASL$FORMAT_DEVNAME File=ASL$LIST_DEVICES.:E05TSI              TUE 07/29/97 10:10 Page:169
     11171**DCL     11181<<ASSIGN  11185<<ASSIGN  11193<<CALLBLT 11197>>CALLBLT 11203>>CALLBLT
ERR_CODE
      8296**DCL      8297--REDEF
FDS
      8193**DCL     11206<>CALL
FDS.FMT_.BOUND
      8198**DCL     11198<<ASSIGN  11204<<ASSIGN
FDS.NVECS#
      8221**DCL     11202<<ASSIGN
FMT_BUF
      8292**DCL     11197<<CALLBLT 11203<<CALLBLT
FMT_VEC
      8292**DCL     11201<<ASSIGN
KL_DEFAULT.PASSWORD
     10912**DCL     10916--REDEF
KL_DEFAULT.RENAME
     10935**DCL     10936--REDEF
KL_DFLT.PASSWORD
     10102**DCL     10106--REDEF
KL_DFLT.RENAME
     10125**DCL     10126--REDEF
KL_DREC.PASSWORD
      9940**DCL      9944--REDEF
KL_DREC.RENAME
      9963**DCL      9964--REDEF
KL_DREC_CNT.PASSWORD
      9827**DCL      9831--REDEF
KL_DREC_CNT.RENAME
      9850**DCL      9851--REDEF
LEN
     11172**DCL     11184<<CALLBLT 11185>>ASSIGN  11186>>ASSIGN
NAME
     11174**DCL     11192<<ASSIGN  11193>>CALLBLT
NAME_LEN
     11173**DCL     11191<<CALLBLT 11192>>ASSIGN  11193>>CALLBLT 11194>>ASSIGN
NUMBER
PL6.E3A0      #002=ASL$FORMAT_DEVNAME File=ASL$LIST_DEVICES.:E05TSI              TUE 07/29/97 10:10 Page:170
     11160**DCL         7--PROC    11196>>IF
PROJ_KEY.TEXT
      8174**DCL      8174--REDEF
PROJ_KEY.TXT.PROJECT
      8174**DCL      8174--REDEF
REMEM_VAR
      8300**DCL      8300--REDEF
REM_FCMD
      8300**DCL      8301--REDEF
TEXT$C
     11161**DCL         7--PROC
TEXT$C.COUNT
     11162**DCL     11179>>IF      11183>>IF
TEXT$C.TEXT
     11163**DCL     11181>>ASSIGN  11184>>CALLBLT 11185>>ASSIGN  11189>>CALLBLT 11190>>ASSIGN  11191>>CALLBLT
     11192>>ASSIGN
USERS_KEY.TEXT
      8171**DCL      8172--REDEF    8172--REDEF    8172--REDEF    8173--REDEF
X$FORMAT
     11156**DCL-ENT 11206--CALL

