VERSION E05

PL6.E3A0      #001=ASL$LIST_ALL_PROJECTS File=ASL$LIST_PROJECTS.:E05TSI          TUE 07/29/97 10:19 Page:1
        1        1        /*M* ASL$LIST_ALL_PROJECTS: Routine to list projects.    */
        2        2        /*T***********************************************************/
        3        3        /*T*                                                         */
        4        4        /*T* Copyright (c) Bull HN Information Systems Inc., 1997    */
        5        5        /*T*                                                         */
        6        6        /*T***********************************************************/
        7        7        /*X*  DMC,DMR,CCC,PLM=0,IND=3,CTI=5,DCI=6,IAD=0,DTI=0,IDT=0,ENI=3,
        8        8              ECU=3,CSU=3,SDI=3                                           */
        9        9        ASL$LIST_ALL_PROJECTS: PROC ;
       10       10        /**********************************************************/
       11       11
       12       12        /*D* NAME:     ASL$LIST_ALL_PROJECTS
       13       13             CALL:     CALL ASL$LIST_ALL_PROJECTS
       14       14             INPUT:    None.
       15       15             OUTPUT:   Nothing is returned.
       16       16             DESCRIPTION:  ASL$LIST_ALL_PROJECTS is a subroutine to handle
       17       17                           the LIST/DISPLAY PROJECT command for SUPER.
       18       18                           ASL$LIST_ALL_PROJECTS will parse the LIST/DISPLAY
       19       19                           command and then cause the appropriate user/project
       20       20                           record(s) to be input into memory where the
       21       21                           other routines that deal with projects and users
       22       22                           records will work with them.  Those routines are:
       23       23                                 ASL$LIST_OUT
       24       24                                 ASL$LIST_PROJ_OPTS
       25       25                           These routines reside in the ASL$EXT module.
       26       26        */
       27       27        %EJECT;
PL6.E3A0      #001=ASL$LIST_ALL_PROJECTS File=ASL$LIST_PROJECTS.:E05TSI          TUE 07/29/97 10:19 Page:2
       28       28        /********************************************************************/
       29       29        /*   Include files   include files   include files   include files  */
       30       30        /********************************************************************/
       31       31        %INCLUDE AS_PERR_C;
       32      633        %INCLUDE AS_SUPER_C;
       33     1068        %INCLUDE AS_SUBS_C;
       34     2482        %INCLUDE AS_MAC_C;
       35     2562        %INCLUDE AS_ENTRIES_M;
       36     3612        %INCLUDE OCI_SUBS_C;
       37     3710        %INCLUDE AS_SSUBS_C;
       38     3802        %INCLUDE B_ERRORS_C;
       39     4929        %INCLUDE CP_6_SUBS;
       40     5469        %INCLUDE KL_SUPER_C;
       41     8371        %INCLUDE XU_MACRO_C;
       42    11477        %INCLUDE XU_FORMAT_C;
       43    11639        %INCLUDE AS_SUPER_R;
       44    14655        /********************************************************************/
       45    14656        /*   Entry dcls      entry dcls      entry dcls      entry dcls     */
       46    14657        /********************************************************************/
       47    14658        %ASB$KEYMAKER ;
       48    14661        %ASB$GET ;
       49    14664        %ASB$INIT_GET_NEXT ;
       50    14667        %ASB$GET_NEXT ;
       51    14670        %ASB$PREC_USERS ;
       52    14673        %ASB$PREC_AND_SKIP_USERS ;
       53    14676        %ASB$WRITE_LO ;
       54    14679        %ASH$INFO ;
       55    14682        %ASL$LIST_OUT ;
       56    14685        %ASL$LIST_PROJ_OPTS ;
       57    14688    1   DCL X$FORMAT ENTRY(1);
       58    14689        /********************************************************************/
       59    14690        /*   Local based     local based     local based     local based    */
       60    14691        /********************************************************************/
       61    14692        %PARSE$OUT( NAME=P$B, STCLASS="BASED(NODE$)",
       62    14693                    NDTYPE=TYPE, NSUBLKS=NSUBLKS);
       63    14738        /********************************************************************/
       64    14739        /*   Auto data       auto data       auto data       auto data      */
PL6.E3A0      #001=ASL$LIST_ALL_PROJECTS File=ASL$LIST_PROJECTS.:E05TSI          TUE 07/29/97 10:19 Page:3
       65    14740        /********************************************************************/
       66    14741    1   DCL CODE2  UBIN;
       67    14742    1   DCL COUNT UBIN WORD ;
       68    14743    1   DCL 1 CURRENT_PROJ,
       69    14744    1          2 CNT   UBIN BYTE CALIGNED,
       70    14745    1          2 TXT   CHAR(20)  CALIGNED;
       71    14746    1   DCL 1 CURRENT_PROJ_KEY  STATIC,
       72    14747    1          2 CNT   UBIN BYTE CALIGNED INIT(0),
       73    14748    1          2 *     UBIN BYTE CALIGNED INIT(1),
       74    14749    1          2 TXT   CHAR(40)  CALIGNED INIT (' ');
       75    14750    1   DCL DISP BIT(1);
       76    14751    1   DCL I   UBIN;
       77    14752    1   DCL INDX   SBIN;
       78    14753    1   DCL JCL   BIT(1);
       79    14754    1   DCL MACCT CHAR(21);
       80    14755    1   DCL 1 SAVE (0:63),
       81    14756    1          2 CNT   UBIN BYTE CALIGNED,
       82    14757    1          2 TXT   CHAR(41) CALIGNED;
       83    14758        %KL$UBWORD( NAME=KL_UBWORD, STCLASS=AUTO );
       84    14768
       85    14769    1   DCL ADMIN_FLAGS(0:143) BIT(1);
       86    14770    1   DCL 1 ADMINFLAGS REDEF ADMIN_FLAGS,
       87    14771    1          2 MODE(0:4) BIT(1) UNAL,
       88    14772    1          2 OPTS(0:138) BIT(1) UNAL;
       89    14773    1   DCL 1 ADMINBITS REDEF ADMIN_FLAGS,
       90    14774    1          2 USER BIT(72),
       91    14775    1          2 FE_MODE BIT(36),
       92    14776    1          2 *  BIT(36);
       93    14777    1   DCL DEFAULT_FLAGS(0:143) BIT(1);
       94    14778    1   DCL 1 DEFAULTFLAGS REDEF DEFAULT_FLAGS,
       95    14779    1          2 MODE(0:4) BIT(1) UNAL,
       96    14780    1          2 OPTS(0:138) BIT(1) UNAL;
       97    14781    1   DCL 1 DEFAULTBITS REDEF DEFAULT_FLAGS,
       98    14782    1          2 USER BIT(72),
       99    14783    1          2 FE_MODE BIT(36),
      100    14784    1          2 * BIT(36);
      101    14785    1   DCL PROJ_FLAGS(0:143) BIT(1);
PL6.E3A0      #001=ASL$LIST_ALL_PROJECTS File=ASL$LIST_PROJECTS.:E05TSI          TUE 07/29/97 10:19 Page:4
      102    14786    1   DCL 1 PROJ REDEF PROJ_FLAGS,
      103    14787    1          2 * BIT(72),
      104    14788    1          2 * BIT(36),
      105    14789    1          2 FLAGS(0:35) BIT(1);
      106    14790        /********************************************************************/
      107    14791        /*   Constant data   constant data   constant data   constant data  */
      108    14792        /********************************************************************/
      109    14793    1   DCL MAKEME_STR  CHAR(0) CONSTANT INIT ('MAKEME ');
      110    14794    1   DCL PROJECTS_STR CHAR(0) CONSTANT INIT ('projects');
      111    14795    1   DCL RESET_STR CHAR(0) CONSTANT INIT ('RESET');
      112    14796    1   DCL ZERO_FLAGS (0:143)  BIT(1) CONSTANT INIT ('0'B*0);
      113    14797
      114    14798        %EJECT;
PL6.E3A0      #001=ASL$LIST_ALL_PROJECTS File=ASL$LIST_PROJECTS.:E05TSI          TUE 07/29/97 10:19 Page:5
      115    14799        /********************************************************************/
      116    14800        /*   Procedure       procedure       procedure       procedure      */
      117    14801        /********************************************************************/
      118    14802    1   CODE = P_PCB.OUT$->P$B.SUBLK$(0)->P$B.CODE;
      119    14803    1   JCL = %NO#;
      120    14804    2   DO SELECT (CODE);
      121    14805
      122    14806    2      SELECT (%LIST_ALL_VAL);
      123    14807
      124    14808    2      DISP = %NO#;
      125    14809    2      JCL = %NO#;
      126    14810    2      IF P_PCB.OUT$ -> P$B.SUBLK$(0) -> P$B.NSUBLKS = 0 THEN
      127    14811    2         NODE$ = P_PCB.OUT$ -> P$B.SUBLK$(0) ;
      128    14812    2      ELSE
      129    14813    2         NODE$ = P_PCB.OUT$ -> P$B.SUBLK$(0) -> P$B.SUBLK$(0) ;
      130    14814
      131    14815    2      SELECT (%DISPLAY_ALL_VAL);
      132    14816
      133    14817    2      DISP = %YES#;
      134    14818    2      NODE$ = P_PCB.OUT$ -> P$B.SUBLK$(0);
      135    14819    3      IF P_PCB.OUT$->P$B.SUBLK$(0)->P$B.NSUBLKS > 0 THEN DO;
      136    14820    3         NODE$ = P_PCB.OUT$ -> P$B.SUBLK$(0) -> P$B.SUBLK$(0);
      137    14821    3         IF P_PCB.OUT$->P$B.SUBLK$(0)->P$B.SUBLK$(0)->P$B.CODE = %JCL_VAL THEN
      138    14822    3            JCL = %YES#;
      139    14823    4         ELSE IF P_PCB.OUT$->P$B.SUBLK$(0)->P$B.NSUBLKS = 2 THEN DO;
      140    14824    4               IF P_PCB.OUT$->P$B.SUBLK$(0)->P$B.SUBLK$(1)->P$B.CODE = %JCL_VAL THEN
      141    14825    4                  JCL = %YES#;
      142    14826    4               END; /*  Nsublks = 2  */
      143    14827    3         END; /*  Nsublks > 0  */
      144    14828
      145    14829    2      SELECT (%LIST_PROJECT_VAL);
      146    14830
      147    14831    2      DISP = %NO#;
      148    14832    2      JCL = %NO#;
      149    14833    2      IF P_PCB.OUT$ -> P$B.NSUBLKS = 1 THEN
      150    14834    2         NODE$ = P_PCB.OUT$ -> P$B.SUBLK$(0) ;
      151    14835    2      ELSE
PL6.E3A0      #001=ASL$LIST_ALL_PROJECTS File=ASL$LIST_PROJECTS.:E05TSI          TUE 07/29/97 10:19 Page:6
      152    14836    2         NODE$ = P_PCB.OUT$ -> P$B.SUBLK$(1) ;
      153    14837
      154    14838    2      SELECT (%DISPLAY_PROJECT_VAL);
      155    14839
      156    14840    2      DISP = %YES#;
      157    14841    3      DO I = 1 TO P_PCB.OUT$->P$B.NSUBLKS - 1;
      158    14842    3         CODE2 = P_PCB.OUT$->P$B.SUBLK$(I)->P$B.CODE;
      159    14843
      160    14844    4         DO SELECT (CODE2);
      161    14845
      162    14846    4            SELECT (%JCL_VAL);
      163    14847
      164    14848    4            JCL = %YES#;
      165    14849
      166    14850    4            END;  /* Do case (CODE2) */
      167    14851
      168    14852    3         END;  /*  Do i  */
      169    14853
      170    14854    2      IF P_PCB.OUT$ -> P$B.NSUBLKS = 1 THEN  /* Disp proj  */
      171    14855    2         NODE$ = P_PCB.OUT$ -> P$B.SUBLK$(0);
      172    14856    3      ELSE DO;                               /* Disp proj ? */
      173    14857    3         NODE$ = P_PCB.OUT$ -> P$B.SUBLK$(1);
      174    14858    3         IF NODE$ -> P$B.NSUBLKS = 1 THEN    /*  Disp proj acct  */
      175    14859                                                     /*  Or disp proj (jcl) */
      176    14860    3            IF NODE$ -> P$B.SUBLK$(0) -> P$B.CODE = %JCL_VAL THEN
      177    14861    3               NODE$ = P_PCB.OUT$ -> P$B.SUBLK$(0);
      178    14862    4            ELSE DO; END;
      179    14863    3         ELSE IF NODE$ -> P$B.NSUBLKS > 1 THEN  /* Disp proj acct,name  */
      180    14864                                                      /*  Or disp proj acct (jcl) */
      181    14865    3               IF NODE$ -> P$B.SUBLK$(1) -> P$B.CODE = %JCL_VAL THEN
      182    14866    3                  NODE$ -> P$B.NSUBLKS = 1;
      183    14867    3         END;  /*  Nsublks > 1  */
      184    14868
      185    14869    2      END;  /*  Do case (code)  */
      186    14870
      187    14871    1   FDS.NVECS# = 0;
      188    14872    2   IF JCL THEN DO;
PL6.E3A0      #001=ASL$LIST_ALL_PROJECTS File=ASL$LIST_PROJECTS.:E05TSI          TUE 07/29/97 10:19 Page:7
      189    14873    2      CALL CONCAT (FMT_BUF, '%1/"', PROJECTS_STR, '%1/');
      190    14874    2      FDS.FMT_.BOUND = LENGTHC (PROJECTS_STR) + 6;
      191    14875    2      END;   /*  Jcl  */
      192    14876    2   ELSE DO;
      193    14877    2      CALL CONCAT (FMT_BUF, '%1/', PROJECTS_STR, '%1/');
      194    14878    2      FDS.FMT_.BOUND = LENGTHC (PROJECTS_STR) + 5;
      195    14879    2      END;   /*  Not jcl  */
      196    14880    1   FDS.TABDFLT# = 10;
      197    14881    1   CALL X$FORMAT (FDS);
      198    14882    1   CALL ASB$KEYMAKER( USERS_KEY, P$B, %YES#, %LIST_PROJECT_VAL) ALTRET(JUSTRET);
      199    14883    2   IF DISP THEN DO;
      200    14884    3      IF JCL THEN DO;
      201    14885    3         PROJ.FLAGS    = '777777777777'O;
      202    14886    3         ADMINBITS.USER = ADMINBITS.USER | '763777777777777777777777'O;
      203    14887    3         ADMINBITS.FE_MODE = ADMINBITS.FE_MODE | '777777777777'O;
      204    14888    3         DEFAULTBITS.USER = DEFAULTBITS.USER | '763777777777777777777777'O;
      205    14889    3         DEFAULTBITS.FE_MODE = DEFAULTBITS.FE_MODE | '777777777777'O;
      206    14890    3         DEFAULT_FLAGS (L_FACCT) = '0'B;
      207    14891    3         ADMIN_FLAGS ( L_JCL ) = %YES#;
      208    14892    3         DEFAULT_FLAGS ( L_JCL ) = %YES#;
      209    14893    3         PROJ_FLAGS ( L_JCL ) = %YES#;
      210    14894    3         END;  /*  Jcl  */
      211    14895    3      ELSE DO;
      212    14896    3         CALL ASL$LIST_PROJ_OPTS( PROJ_FLAGS, ADMIN_FLAGS, DEFAULT_FLAGS );
      213    14897    3         PROJ_FLAGS (L_JCL) = %NO#;
      214    14898    3         ADMIN_FLAGS (L_JCL) = %NO#;
      215    14899    3         DEFAULT_FLAGS (L_JCL) = %NO#;
      216    14900    3         END;   /*  Not jcl  */
      217    14901    2      END;  /*  Disp  */
      218    14902    2   ELSE DO;  /*  Not disp  */
      219    14903    2      PROJ_FLAGS = ZERO_FLAGS;
      220    14904    2      ADMIN_FLAGS = ZERO_FLAGS;
      221    14905    2      DEFAULT_FLAGS = ZERO_FLAGS;
      222    14906    2      END;  /*  Not disp  */
      223    14907    1   CALL ASB$WRITE_LO( AS_BLANK, 1 );
      224    14908    1   FDS.NVECS# = 0;
      225    14909    1   IF NOT AS_WILD_USER
PL6.E3A0      #001=ASL$LIST_ALL_PROJECTS File=ASL$LIST_PROJECTS.:E05TSI          TUE 07/29/97 10:19 Page:8
      226    14910    2   THEN DO ;
      227    14911    2      CALL ASB$GET( %YES#, %LIST_PROJECT_VAL, AS_PROJECT, AS_PROJECT_DREC$,
      228    14912    2           AS_PROJECT_DFLT, AS_PROJECT_DFLT_DREC$ ) ALTRET(JUSTRET);
      229    14913    3      IF AS_USERS.BUDGET.MACCT_.TEXT ~= ' ' AND JCL THEN DO;
      230    14914    3         MACCT = AS_BLANK;
      231    14915    3         CALL INDEX ( I, ' ', AS_USERS.BUDGET.MACCT.ACCT);
      232    14916    3         CALL CONCAT (MACCT,SUBSTR(AS_USERS.BUDGET.MACCT.ACCT,0,I),
      233    14917    3              ',',AS_USERS.BUDGET.MACCT.NAME);
      234    14918    3         CALL CONCAT (OUT_BUF, MAKEME_STR, MACCT);
      235    14919    3         CALL ASB$WRITE_LO (OUT_BUF, SIZEC(MAKEME_STR)+SIZEC(MACCT) );
      236    14920    3         END;   /*  Jcl and BUDGET.MACCT_.TEXT ~= blank  */
      237    14921    2      CALL LIST_THIS_PROJ;
      238    14922    3      IF AS_USERS.BUDGET.MACCT_.TEXT ~= ' ' AND JCL THEN DO;
      239    14923    3         CALL CONCAT (OUT_BUF, MAKEME_STR, RESET_STR);
      240    14924    3         CALL ASB$WRITE_LO (OUT_BUF, SIZEC(MAKEME_STR)+SIZEC(RESET_STR) );
      241    14925    3         END;   /*  Jcl and BUDGET.MACCT_.TEXT ~= blank  */
      242    14926    2      COUNT = 1 ;
      243    14927    2      END ;  /*  Not AS_WILD_USER  */
      244    14928    2   ELSE DO ;
      245    14929    2      COUNT = 0 ;
      246    14930    2      INDX = 0;
      247    14931    2      CURRENT_PROJ = AS_NONE;
      248    14932    2      CURRENT_PROJ_KEY.CNT = 5;
      249    14933    2      CURRENT_PROJ_KEY.TXT = SUBSTR ( AS_NONE.TEXT,0,SIZEC(AS_NONE.TEXT));
      250    14934    2      USERS_KEY = CURRENT_PROJ_KEY;
      251    14935    2      CALL ASB$PREC_USERS;
      252    14936    2   WIDTH_LOOP:
      253    14937    3      DO FOREVER;
      254    14938
      255    14939    3   DEPTH_LOOP:
      256    14940    4         DO FOREVER;
      257    14941
      258    14942    5            IF SUBSTR (USERS_KEY.TXTC,1,20) = CURRENT_PROJ.TXT THEN DO;
      259    14943    5               SAVE (INDX) = USERS_KEY;
      260    14944    5               INDX = INDX + 1;
      261    14945    6               IF JCL THEN DO;
      262    14946    7                  IF CURRENT_PROJ ~= AS_NONE THEN DO;
PL6.E3A0      #001=ASL$LIST_ALL_PROJECTS File=ASL$LIST_PROJECTS.:E05TSI          TUE 07/29/97 10:19 Page:9
      263    14947    7                     MACCT = AS_BLANK;
      264    14948    7                     CALL INDEX ( I, ' ', SUBSTR(USERS_KEY.TXTC,1,8));
      265    14949    7                     CALL CONCAT (MACCT,SUBSTR(USERS_KEY.TXTC,1,I),
      266    14950    7                          ',',SUBSTR(USERS_KEY.TXTC,9,12));
      267    14951    7                     CALL CONCAT (OUT_BUF, MAKEME_STR, MACCT);
      268    14952    7                     CALL ASB$WRITE_LO (OUT_BUF, SIZEC(MAKEME_STR)+SIZEC(MACCT) );
      269    14953    7                     END;   /*  CURRENT_PROJ ~= AS_NONE  */
      270    14954    6                  END;  /*  Jcl  */
      271    14955    5               CURRENT_PROJ.CNT = USERS_KEY.COUNT - 21;
      272    14956    5               CURRENT_PROJ.TXT = SUBSTR ( USERS_KEY.TXTC,21,CURRENT_PROJ.CNT);
      273    14957    5               USERS_KEY = CURRENT_PROJ;
      274    14958    5               IF JCL THEN
      275    14959    5                  IF USERS_KEY.COUNT < 9 THEN
      276    14960    5                     GOTO SKIP_THIS_ONE;
      277    14961    5               CALL ASB$GET( %YES#, %LIST_PROJECT_VAL, AS_PROJECT, AS_PROJECT_DREC$,
      278    14962    5                    AS_PROJECT_DFLT, AS_PROJECT_DFLT_DREC$ ) ALTRET(SKIP_THIS_ONE);
      279    14963    5               CALL LIST_THIS_PROJ;
      280    14964    5   SKIP_THIS_ONE:
      281    14965    5               CURRENT_PROJ_KEY.CNT = CURRENT_PROJ.CNT + 1;
      282    14966    5               CURRENT_PROJ_KEY.TXT = CURRENT_PROJ.TXT;
      283    14967    5               USERS_KEY = CURRENT_PROJ_KEY;
      284    14968    5               CALL ASB$PREC_USERS;
      285    14969    5               COUNT = COUNT + 1 ;
      286    14970    5               END;   /*  We have a sub project  */
      287    14971    4            ELSE
      288    14972    4               EXIT DEPTH_LOOP;
      289    14973    4            END DEPTH_LOOP;
      290    14974    3         INDX = INDX - 1;
      291    14975    3         IF INDX < 0 THEN
      292    14976    3            EXIT WIDTH_LOOP;
      293    14977    3         IF SUBSTR ( SAVE.TXT(INDX),1,20 ) = AS_NONE.TEXT THEN
      294    14978    3            CURRENT_PROJ = AS_NONE;
      295    14979    4         ELSE DO;
      296    14980    4            CALL INDEX (I, ' ', SUBSTR(SAVE.TXT(INDX),9,12));
      297    14981    4            CURRENT_PROJ.CNT = I + 9;
      298    14982    4            CURRENT_PROJ.TXT = SUBSTR ( SAVE.TXT(INDX), 1, CURRENT_PROJ.CNT);
      299    14983    4            END;
PL6.E3A0      #001=ASL$LIST_ALL_PROJECTS File=ASL$LIST_PROJECTS.:E05TSI          TUE 07/29/97 10:19 Page:10
      300    14984    3         USERS_KEY = SAVE (INDX) ;
      301    14985    3         CALL ASB$PREC_AND_SKIP_USERS;
      302    14986    4         IF JCL THEN DO;
      303    14987    5            IF INDX = 0 THEN DO;
      304    14988    5               CALL CONCAT (OUT_BUF, MAKEME_STR, RESET_STR);
      305    14989    5               CALL ASB$WRITE_LO (OUT_BUF, SIZEC(MAKEME_STR)+SIZEC(RESET_STR) );
      306    14990    5               END;   /* Indx = 0  */
      307    14991    4            END;   /*  Jcl  */
      308    14992    3         END WIDTH_LOOP;  /*  Forever  */
      309    14993    2      END ;   /*  AS_WILD_USER  */
      310    14994    1   FINISHED:
      311    14995    1   IF PROJ_FLAGS = '0'B  AND  FDS.NVECS#  ~= 0
      312    14996    2   THEN DO ;
      313    14997    2      CALL X$FORMAT( FDS ) ;
      314    14998    2      CALL ASB$WRITE_LO( AS_BLANK, 1 ) ;
      315    14999    2      LIST_ACCT_FLG = '0'B ;
      316    15000    2      END ;   /*  No PROJ_FLAGS set and FDS.NVECS# ~= 0  */
      317    15001    2   IF NOT JCL THEN DO;
      318    15002    3      IF COUNT = 0 THEN DO ;
      319    15003        /*   ERROR:   ASL-E$NOTHING_TO_LIST-C
      320    15004             DESCRIPTION: Nothing to list.
      321    15005        */
      322    15006              %SCREAM( ERR#=E$NOTHING_TO_LIST, LEVEL=INFO, MID='L' ) ;
      323    15021    3         END ; /*  Count = 0  */
      324    15022    3      ELSE DO ;
      325    15023              %NUMBER( NUM1=COUNT ) ;
             15031    3         CALL ASB$BINCHAR( AS_FIELD1.TEXT, 0, -1, COUNT );
      326    15053    4         IF DISP THEN DO;
      327    15054        /*E* ERROR:   ASL-E$PROJ_DISP_MESS-C
      328    15055             MESSAGE:.. %U1 projects displayed.
      329    15056        */
      330    15057                 %SCREAM( ERR#=E$DISP_MESS, MID='L', LEVEL=INFO ) ;
      331    15072    4            END ; /*  Disp  */
      332    15073    4         ELSE DO;
      333    15074        /*E* ERROR:   ASL-E$PROJ_LISTED_MESS-C
      334    15075             MESSAGE:.. %U1 projects listed.
      335    15076        */
PL6.E3A0      #001=ASL$LIST_ALL_PROJECTS File=ASL$LIST_PROJECTS.:E05TSI          TUE 07/29/97 10:19 Page:11
      336    15077                 %SCREAM( ERR#=E$PROJ_LISTED_MESS, MID='L', LEVEL=INFO ) ;
      337    15092    4            END ; /*  Not disp  */
      338    15093    3         END; /*  Not count = 0  */
      339    15094    2      END; /*  Not jcl  */
      340    15095    1   JUSTRET: ;
      341    15096    1   RETURN ;
      342    15097
      343    15098        %EJECT;
PL6.E3A0      #001=ASL$LIST_ALL_PROJECTS File=ASL$LIST_PROJECTS.:E05TSI          TUE 07/29/97 10:19 Page:12
      344    15099    1   LIST_THIS_PROJ: PROC;
      345    15100
      346    15101        %ASL$LIST_OUTPUT ;
      347    15104        %ASL$LIST_PROJ_OUT ;
      348    15107    2   DCL I   UBIN;
      349    15108
      350    15109    2   IF PROJ_FLAGS = '0'B THEN CALL ASL$LIST_OUT(ADMIN_FLAGS);
      351    15110    3   ELSE DO;
      352    15111    3      CALL ASB$WRITE_LO( AS_BLANK, 1 );
      353    15112    3      CALL ASB$WRITE_LO( AS_BLANK, 1 );
      354    15113    4      IF USERS_KEY.COUNT < 9 THEN DO;
      355    15114    4         OUT_BUF = USERS_KEY.UKEY.ACCT;
      356    15115    4         I = USERS_KEY.COUNT;
      357    15116    4         END;
      358    15117    4      ELSE DO;
      359    15118    5         IF NOT JCL THEN DO;
      360    15119    5            CALL INDEX( I, AS_BLANK, USERS_KEY.UKEY.ACCT );
      361    15120    5            CALL CONCAT( OUT_BUF, SUBSTR(USERS_KEY.UKEY.ACCT,0,I), ',',
      362    15121    5                 USERS_KEY.UKEY.UNAME );
      363    15122    5            I = USERS_KEY.COUNT - ( 8 - I ) + 1;
      364    15123    5            END;   /*  Not jcl  */
      365    15124    5         ELSE DO;
      366    15125    5            CALL INDEX( I, AS_BLANK, USERS_KEY.UKEY.ACCT );
      367    15126    5            CALL CONCAT( OUT_BUF, 'CREATE PROJECT ',SUBSTR(USERS_KEY.UKEY.ACCT,0,I),
             15126                     ',',
      368    15127    5                 USERS_KEY.UKEY.UNAME );
      369    15128    5            I = USERS_KEY.COUNT - ( 8 - I ) + 16;
      370    15129    5            END;   /*  Jcl  */
      371    15130    4         END;
      372    15131    3      CALL ASB$WRITE_LO( OUT_BUF, I );
      373    15132    3      IF PROJ_FLAGS(L_ACCTS_VAL)  OR  PROJ_FLAGS(L_MCHARGES_VAL)
      374    15133    3           OR  PROJ_FLAGS(L_CHG_ACCUM)  OR  PROJ_FLAGS(L_PROJ_PROJ)
      375    15134    3      THEN CALL ASL$LIST_PROJ_OUT( PROJ_FLAGS );
      376    15135    3      IF PROJ_FLAGS(L_PACKSET_VAL) THEN CALL LIST_PACKSET;
      377    15136    4      IF PROJ_FLAGS(L_ADMIN_VAL) AND ADMINFLAGS.OPTS ~= '0'B THEN DO;
      378    15137    5         IF NOT JCL THEN DO;
      379    15138    5            CALL ASB$WRITE_LO( AS_BLANK, 1 );
PL6.E3A0      #001=ASL$LIST_ALL_PROJECTS File=ASL$LIST_PROJECTS.:E05TSI          TUE 07/29/97 10:19 Page:13
      380    15139    5            CALL ASB$WRITE_LO( '        PROJECT ADMINISTRATOR', 29);
      381    15140    5            CALL ASB$WRITE_LO( '        ---------------------', 29);
      382    15141    5            END;  /*  Not jcl  */
      383    15142    5         ELSE DO;
      384    15143    5            CALL ASB$WRITE_LO ('   ADMIN',8);
      385    15144    5            END;  /*  Jcl  */
      386    15145    4         AS_USERS = AS_PROJECT;
      387    15146    4         KL_DREC = AS_PROJECT_DREC;
      388    15147    4         CALL ASL$LIST_OUTPUT( ADMIN_FLAGS );
      389    15148    4         END;
      390    15149    4      IF PROJ_FLAGS(L_DEFAULT_VAL) AND DEFAULTFLAGS.OPTS ~= '0'B THEN DO;
      391    15150    5         IF NOT JCL THEN DO;
      392    15151    5            CALL ASB$WRITE_LO( AS_BLANK, 1 );
      393    15152    5            CALL ASB$WRITE_LO( '        DEFAULT RECORD FOR PROJECT', 34);
      394    15153    5            CALL ASB$WRITE_LO( '        --------------------------',34);
      395    15154    5            END;  /*  Not jcl  */
      396    15155    5         ELSE DO;
      397    15156    5            CALL ASB$WRITE_LO ('   DEFAULT',10);
      398    15157    5            END;  /*  Jcl  */
      399    15158    4         AS_USERS = AS_PROJECT_DFLT;
      400    15159    4         KL_DREC = AS_PROJECT_DFLT_DREC;
      401    15160    4         CALL ASL$LIST_OUTPUT( DEFAULT_FLAGS );
      402    15161    4         IF JCL THEN
      403    15162    4            CALL ASB$WRITE_LO  ('   END',6);
      404    15163    4         END;
      405    15164    3      END;
      406    15165
      407    15166    2   END LIST_THIS_PROJ;
      408    15167
      409    15168        %EJECT;
PL6.E3A0      #001=ASL$LIST_ALL_PROJECTS File=ASL$LIST_PROJECTS.:E05TSI          TUE 07/29/97 10:19 Page:14
      410    15169    1   LIST_PACKSET: PROC;
      411    15170
      412    15171    2   DCL 1 PACKSET_HDR STATIC,
      413    15172    2          2 * CHAR(0) INIT ('        PACKSET DP#'),
      414    15173    2          2 PACKSET CHAR(6);
      415    15174    2   DCL PROJECT CHAR(20);
      416    15175    2   DCL ARS  SBIN;
      417    15176
      418    15177        %ASB$READ_PROJ_SEQ ;
      419    15180        %ASB$PREC_PROJ ;
      420    15183        %ASL$LIST_PACK_OUT ;
      421    15186
      422    15187
      423    15188    2   PROJECT = SUBSTR( USERS_KEY.TXTC, 0 ,20 );
      424    15189    2   PROJ_KEY.COUNT = 20;
      425    15190    2   PROJ_KEY.TEXT  = PROJECT;
      426    15191    2   CALL ASB$PREC_PROJ;
      427    15192    2   ARS = 1500;
      428    15193    2   CALL ASB$READ_PROJ_SEQ( DSEG2$, ARS ) ALTRET(FINISHED);
      429    15194    3   DO WHILE( PROJ_KEY.TXT.PROJECT = PROJECT );
      430    15195    3      PACKSET_HDR.PACKSET = PROJ_KEY.TXT.PACKSET;
      431    15196    4      IF NOT JCL THEN DO;
      432    15197    4         CALL ASB$WRITE_LO( AS_BLANK, 1 );
      433    15198    4         CALL ASB$WRITE_LO( PACKSET_HDR, LENGTHC(PACKSET_HDR) );
      434    15199    4         END;  /*  Not jcl  */
      435    15200    4      ELSE DO;
      436    15201    4         CALL CONCAT (OUT_BUF, '   PACKSET = DP#',PACKSET_HDR.PACKSET);
      437    15202    4         CALL ASB$WRITE_LO (OUT_BUF, 22);
      438    15203    4         END;  /*  Jcl  */
      439    15204    3      CALL ASL$LIST_PACK_OUT( PROJ_FLAGS );
      440    15205    3      IF JCL THEN
      441    15206    3         CALL ASB$WRITE_LO ('   END',6);
      442    15207    3      ARS = 1500;
      443    15208    3      CALL ASB$READ_PROJ_SEQ( DSEG2$, ARS ) ALTRET(FINISHED);
      444    15209    3      END;
      445    15210    2   FINISHED:
      446    15211    2   RETURN;
PL6.E3A0      #001=ASL$LIST_ALL_PROJECTS File=ASL$LIST_PROJECTS.:E05TSI          TUE 07/29/97 10:19 Page:15
      447    15212
      448    15213    2   END LIST_PACKSET;
      449    15214
      450    15215    1   END ASL$LIST_ALL_PROJECTS;
      451    15216        %EOD;

PL6.E3A0      #001=ASL$LIST_ALL_PROJECTS File=ASL$LIST_PROJECTS.:E05TSI          TUE 07/29/97 10:19 Page:16
--  Include file information  --

   AS_SUPER_R.:E05TOU  cannot be made into a system file and is referenced.
   XU_FORMAT_C.:E05TOU  is referenced.
   XU_MACRO_C.:E05TOU  is referenced.
   KL_SUPER_C.:E05TOU  is referenced.
   CP_6_SUBS.:E05TOU  is referenced.
   B_ERRORS_C.:E05TOU  is referenced.
   AS_SSUBS_C.:E05TOU  is referenced.
   OCI_SUBS_C.:E05TOU  is referenced.
   AS_ENTRIES_M.:E05TOU  is referenced.
   AS_MAC_C.:E05TOU  cannot be made into a system file and is referenced.
   AS_SUBS_C.:E05TOU  is referenced.
   AS_SUPER_C.:E05TOU  is referenced.
   AS_PERR_C.:E05TOU  is referenced.
   B$JIT_C.:E05TOU  was found in the system file and is never referenced.
   CP_6_C.:E05TOU  was found in the system file and is never referenced.
      No diagnostics issued in procedure ASL$LIST_ALL_PROJECTS.

   Procedure ASL$LIST_ALL_PROJECTS requires 777 words for executable code.
   Procedure ASL$LIST_ALL_PROJECTS requires 720 words of local(AUTO) storage.

PL6.E3A0      #001=ASL$LIST_ALL_PROJECTS File=ASL$LIST_PROJECTS.:E05TSI          TUE 07/29/97 10:19 Page:17

 Object Unit name= ASL$LIST_ALL_PROJECTS                      File name= ASL$LIST_PROJECTS.:E05TOU
 UTS= JUL 29 '97 10:19:43.56 TUE                              Compiler= PL-6/E31         Sev=      00
 SharedLib= :SHARED_SYSTEM                                    Alt SharedLib=


    ****  Control sections  ****

 Sect   Type Bound  Init  Size OctSiz  Section name(segment info)
    0   DCB   even  none     0      0  M$LO
    1   Data  even  none    18     22  ASL$LIST_ALL_PROJECTS
    2  RoData even  UTS     66    102  ASL$LIST_ALL_PROJECTS
    3   Proc  even  none   777   1411  ASL$LIST_ALL_PROJECTS
    4  RoData even  none    53     65  ASL$LIST_ALL_PROJECTS

    ****  Entry defs  ****

                              Check   Calling
                             calling  sequence
  Sect OctLoc Primary Altret sequence   type   Parms  Name
     3      0   yes            yes      Std        0  ASL$LIST_ALL_PROJECTS
PL6.E3A0      #001=ASL$LIST_ALL_PROJECTS File=ASL$LIST_PROJECTS.:E05TSI          TUE 07/29/97 10:19 Page:18

  ****  Entry refs  ****

         Check        Calling
        calling       sequence
Altret sequence SRef   type   Args  Name
         yes          ~proc      0 XU_OUTPUT_OPTIONS
         yes           Std       3 ASL$LIST_PROJ_OPTS
         yes           Std       2 ASB$WRITE_LO
 yes     yes           Std       0 ASB$PREC_USERS
         yes           Std       4 ASB$BINCHAR
         yes           Std       1 X$FORMAT
 yes     yes           Std       4 ASB$KEYMAKER
 yes     yes           Std       6 ASB$GET
 yes     yes           Std       0 ASB$PREC_AND_SKIP_USERS
         yes           Std       2 ASH$INFO
         yes           Std       1 ASL$LIST_OUT
         yes           Std       1 ASL$LIST_OUTPUT
         yes           Std       1 ASL$LIST_PROJ_OUT
 yes     yes           Std       0 ASB$PREC_PROJ
 yes     yes           Std       3 ASB$READ_PROJ_SEQ
         yes           Std       1 ASL$LIST_PACK_OUT
                       Std       0 B_CONSPOOL_D
                       nStd      0 X66_AUTO_0
                       nStd      0 X66_ARET
PL6.E3A0      #001=ASL$LIST_ALL_PROJECTS File=ASL$LIST_PROJECTS.:E05TSI          TUE 07/29/97 10:19 Page:19

  ****  Data refs  ****

  Flags:  r = read only, s = secondary
Flgs Name                             Flgs Name                             Flgs Name
r    AS_BLANK                         r    AS_NONE                          r    AS_MODE
r    AS_FE_MODE                       r    AS_PROJECT_DREC$                 r    AS_PROJECT_DFLT_DREC$
     M$LO                                  USERS_KEY                             PROJ_KEY
     FDS                                   FMT_BUF                               OUT_BUF
     NODE$                                 CODE                                  LIST_ACCT_FLG
     ERR_CODE                              AS_FIELD1                             REMEM_VAR
     REM_FCMD                              ASA_BRKS_LOC                          DSEG2$
     AS_WILD_USER                          P_PCB                                 AS_USERS
     AS_PROJECT                            AS_PROJECT_DFLT                       KL_DREC
     AS_PROJECT_DREC                       AS_PROJECT_DFLT_DREC                  B_VECTNIL

  ****  Segment refs  ****

  Flags:  r = read only, s = secondary
Flgs Name                             Flgs Name                             Flgs Name
     ISSID
PL6.E3A0      #001=ASL$LIST_ALL_PROJECTS File=ASL$LIST_PROJECTS.:E05TSI          TUE 07/29/97 10:19 Page:20


        1        1        /*M* ASL$LIST_ALL_PROJECTS: Routine to list projects.    */
        2        2        /*T***********************************************************/
        3        3        /*T*                                                         */
        4        4        /*T* Copyright (c) Bull HN Information Systems Inc., 1997    */
        5        5        /*T*                                                         */
        6        6        /*T***********************************************************/
        7        7        /*X*  DMC,DMR,CCC,PLM=0,IND=3,CTI=5,DCI=6,IAD=0,DTI=0,IDT=0,ENI=3,
        8        8              ECU=3,CSU=3,SDI=3                                           */
        9        9        ASL$LIST_ALL_PROJECTS: PROC ;

      9  3 000000   000000 700200 xent  ASL$LIST_AL* TSX0  ! X66_AUTO_0
         3 000001   001320 000000                    ZERO    720,0

       10       10        /**********************************************************/
       11       11
       12       12        /*D* NAME:     ASL$LIST_ALL_PROJECTS
       13       13             CALL:     CALL ASL$LIST_ALL_PROJECTS
       14       14             INPUT:    None.
       15       15             OUTPUT:   Nothing is returned.
       16       16             DESCRIPTION:  ASL$LIST_ALL_PROJECTS is a subroutine to handle
       17       17                           the LIST/DISPLAY PROJECT command for SUPER.
       18       18                           ASL$LIST_ALL_PROJECTS will parse the LIST/DISPLAY
       19       19                           command and then cause the appropriate user/project
       20       20                           record(s) to be input into memory where the
       21       21                           other routines that deal with projects and users
       22       22                           records will work with them.  Those routines are:
       23       23                                 ASL$LIST_OUT
       24       24                                 ASL$LIST_PROJ_OPTS
       25       25                           These routines reside in the ASL$EXT module.
       26       26        */
       27       27        %EJECT;
PL6.E3A0      #001=ASL$LIST_ALL_PROJECTS File=ASL$LIST_PROJECTS.:E05TSI          TUE 07/29/97 10:19 Page:21
       28       28        /********************************************************************/
       29       29        /*   Include files   include files   include files   include files  */
       30       30        /********************************************************************/
       31       31        %INCLUDE AS_PERR_C;
       32      633        %INCLUDE AS_SUPER_C;
       33     1068        %INCLUDE AS_SUBS_C;
       34     2482        %INCLUDE AS_MAC_C;
       35     2562        %INCLUDE AS_ENTRIES_M;
       36     3612        %INCLUDE OCI_SUBS_C;
       37     3710        %INCLUDE AS_SSUBS_C;
       38     3802        %INCLUDE B_ERRORS_C;
       39     4929        %INCLUDE CP_6_SUBS;
       40     5469        %INCLUDE KL_SUPER_C;
       41     8371        %INCLUDE XU_MACRO_C;
       42    11477        %INCLUDE XU_FORMAT_C;
       43    11639        %INCLUDE AS_SUPER_R;
       44    14655        /********************************************************************/
       45    14656        /*   Entry dcls      entry dcls      entry dcls      entry dcls     */
       46    14657        /********************************************************************/
       47    14658        %ASB$KEYMAKER ;
       48    14661        %ASB$GET ;
       49    14664        %ASB$INIT_GET_NEXT ;
       50    14667        %ASB$GET_NEXT ;
       51    14670        %ASB$PREC_USERS ;
       52    14673        %ASB$PREC_AND_SKIP_USERS ;
       53    14676        %ASB$WRITE_LO ;
       54    14679        %ASH$INFO ;
       55    14682        %ASL$LIST_OUT ;
       56    14685        %ASL$LIST_PROJ_OPTS ;
       57    14688    1   DCL X$FORMAT ENTRY(1);
       58    14689        /********************************************************************/
       59    14690        /*   Local based     local based     local based     local based    */
       60    14691        /********************************************************************/
       61    14692        %PARSE$OUT( NAME=P$B, STCLASS="BASED(NODE$)",
       62    14693                    NDTYPE=TYPE, NSUBLKS=NSUBLKS);
       63    14738        /********************************************************************/
       64    14739        /*   Auto data       auto data       auto data       auto data      */
PL6.E3A0      #001=ASL$LIST_ALL_PROJECTS File=ASL$LIST_PROJECTS.:E05TSI          TUE 07/29/97 10:19 Page:22
       65    14740        /********************************************************************/
       66    14741    1   DCL CODE2  UBIN;
       67    14742    1   DCL COUNT UBIN WORD ;
       68    14743    1   DCL 1 CURRENT_PROJ,
       69    14744    1          2 CNT   UBIN BYTE CALIGNED,
       70    14745    1          2 TXT   CHAR(20)  CALIGNED;
       71    14746    1   DCL 1 CURRENT_PROJ_KEY  STATIC,
       72    14747    1          2 CNT   UBIN BYTE CALIGNED INIT(0),
       73    14748    1          2 *     UBIN BYTE CALIGNED INIT(1),
       74    14749    1          2 TXT   CHAR(40)  CALIGNED INIT (' ');
       75    14750    1   DCL DISP BIT(1);
       76    14751    1   DCL I   UBIN;
       77    14752    1   DCL INDX   SBIN;
       78    14753    1   DCL JCL   BIT(1);
       79    14754    1   DCL MACCT CHAR(21);
       80    14755    1   DCL 1 SAVE (0:63),
       81    14756    1          2 CNT   UBIN BYTE CALIGNED,
       82    14757    1          2 TXT   CHAR(41) CALIGNED;
       83    14758        %KL$UBWORD( NAME=KL_UBWORD, STCLASS=AUTO );
       84    14768
       85    14769    1   DCL ADMIN_FLAGS(0:143) BIT(1);
       86    14770    1   DCL 1 ADMINFLAGS REDEF ADMIN_FLAGS,
       87    14771    1          2 MODE(0:4) BIT(1) UNAL,
       88    14772    1          2 OPTS(0:138) BIT(1) UNAL;
       89    14773    1   DCL 1 ADMINBITS REDEF ADMIN_FLAGS,
       90    14774    1          2 USER BIT(72),
       91    14775    1          2 FE_MODE BIT(36),
       92    14776    1          2 *  BIT(36);
       93    14777    1   DCL DEFAULT_FLAGS(0:143) BIT(1);
       94    14778    1   DCL 1 DEFAULTFLAGS REDEF DEFAULT_FLAGS,
       95    14779    1          2 MODE(0:4) BIT(1) UNAL,
       96    14780    1          2 OPTS(0:138) BIT(1) UNAL;
       97    14781    1   DCL 1 DEFAULTBITS REDEF DEFAULT_FLAGS,
       98    14782    1          2 USER BIT(72),
       99    14783    1          2 FE_MODE BIT(36),
      100    14784    1          2 * BIT(36);
      101    14785    1   DCL PROJ_FLAGS(0:143) BIT(1);
PL6.E3A0      #001=ASL$LIST_ALL_PROJECTS File=ASL$LIST_PROJECTS.:E05TSI          TUE 07/29/97 10:19 Page:23
      102    14786    1   DCL 1 PROJ REDEF PROJ_FLAGS,
      103    14787    1          2 * BIT(72),
      104    14788    1          2 * BIT(36),
      105    14789    1          2 FLAGS(0:35) BIT(1);
      106    14790        /********************************************************************/
      107    14791        /*   Constant data   constant data   constant data   constant data  */
      108    14792        /********************************************************************/
      109    14793    1   DCL MAKEME_STR  CHAR(0) CONSTANT INIT ('MAKEME ');
      110    14794    1   DCL PROJECTS_STR CHAR(0) CONSTANT INIT ('projects');
      111    14795    1   DCL RESET_STR CHAR(0) CONSTANT INIT ('RESET');
      112    14796    1   DCL ZERO_FLAGS (0:143)  BIT(1) CONSTANT INIT ('0'B*0);
      113    14797
      114    14798        %EJECT;
PL6.E3A0      #001=ASL$LIST_ALL_PROJECTS File=ASL$LIST_PROJECTS.:E05TSI          TUE 07/29/97 10:19 Page:24
      115    14799        /********************************************************************/
      116    14800        /*   Procedure       procedure       procedure       procedure      */
      117    14801        /********************************************************************/
      118    14802    1   CODE = P_PCB.OUT$->P$B.SUBLK$(0)->P$B.CODE;

  14802  3 000002   000003 470400 xsym               LDP0    P_PCB+3
         3 000003   000003 471500                    LDP1    3,,PR0
         3 000004   100000 236100                    LDQ     0,,PR1
         3 000005   777777 376007                    ANQ     -1,DL
         3 000006   000000 756000 xsym               STQ     CODE

      119    14803    1   JCL = %NO#;

  14803  3 000007   200016 450100                    STZ     JCL,,AUTO

      120    14804    2   DO SELECT (CODE);

  14804  3 000010   000022 116007                    CMPQ    18,DL
         3 000011   000022 602000 3                  TNC     s:14804+10
         3 000012   000025 600000 3                  TZE     s:14808
         3 000013   000144 116007                    CMPQ    100,DL
         3 000014   000017 602000 3                  TNC     s:14804+7
         3 000015   000037 600000 3                  TZE     s:14817
         3 000016   000166 710000 3                  TRA     s:14871
         3 000017   000133 116007                    CMPQ    91,DL
         3 000020   000166 601000 3                  TNZ     s:14871
         3 000021   000102 710000 3                  TRA     s:14840
         3 000022   000010 116007                    CMPQ    8,DL
         3 000023   000166 601000 3                  TNZ     s:14871
         3 000024   000067 710000 3                  TRA     s:14831

      121    14805
      122    14806    2      SELECT (%LIST_ALL_VAL);

      123    14807
      124    14808    2      DISP = %NO#;

PL6.E3A0      #001=ASL$LIST_ALL_PROJECTS File=ASL$LIST_PROJECTS.:E05TSI          TUE 07/29/97 10:19 Page:25
  14808  3 000025   200013 450100                    STZ     DISP,,AUTO

      125    14809    2      JCL = %NO#;

  14809  3 000026   200016 450100                    STZ     JCL,,AUTO

      126    14810    2      IF P_PCB.OUT$ -> P$B.SUBLK$(0) -> P$B.NSUBLKS = 0 THEN

  14810  3 000027   100001 220100                    LDX0    1,,PR1
         3 000030   000034 601000 3                  TNZ     s:14813

      127    14811    2         NODE$ = P_PCB.OUT$ -> P$B.SUBLK$(0) ;

  14811  3 000031   000003 236100                    LDQ     3,,PR0
         3 000032   000000 756000 xsym               STQ     NODE$
         3 000033   000166 710000 3                  TRA     s:14871

      128    14812    2      ELSE
      129    14813    2         NODE$ = P_PCB.OUT$ -> P$B.SUBLK$(0) -> P$B.SUBLK$(0) ;

  14813  3 000034   100003 236100                    LDQ     3,,PR1
         3 000035   000000 756000 xsym               STQ     NODE$
         3 000036   000166 710000 3                  TRA     s:14871

      130    14814
      131    14815    2      SELECT (%DISPLAY_ALL_VAL);

      132    14816
      133    14817    2      DISP = %YES#;

  14817  3 000037   400000 236003                    LDQ     -131072,DU
         3 000040   200013 756100                    STQ     DISP,,AUTO

      134    14818    2      NODE$ = P_PCB.OUT$ -> P$B.SUBLK$(0);

  14818  3 000041   000003 236100                    LDQ     3,,PR0
         3 000042   000000 756000 xsym               STQ     NODE$
PL6.E3A0      #001=ASL$LIST_ALL_PROJECTS File=ASL$LIST_PROJECTS.:E05TSI          TUE 07/29/97 10:19 Page:26

      135    14819    3      IF P_PCB.OUT$->P$B.SUBLK$(0)->P$B.NSUBLKS > 0 THEN DO;

  14819  3 000043   100001 220100                    LDX0    1,,PR1
         3 000044   000166 600000 3                  TZE     s:14871

      136    14820    3         NODE$ = P_PCB.OUT$ -> P$B.SUBLK$(0) -> P$B.SUBLK$(0);

  14820  3 000045   100003 236100                    LDQ     3,,PR1
         3 000046   000000 756000 xsym               STQ     NODE$

      137    14821    3         IF P_PCB.OUT$->P$B.SUBLK$(0)->P$B.SUBLK$(0)->P$B.CODE = %JCL_VAL THEN

  14821  3 000047   100003 473500                    LDP3    3,,PR1
         3 000050   300000 721100                    LXL1    0,,PR3
         3 000051   000001 101003                    CMPX1   1,DU
         3 000052   000056 601000 3                  TNZ     s:14823

      138    14822    3            JCL = %YES#;

  14822  3 000053   400000 236003                    LDQ     -131072,DU
         3 000054   200016 756100                    STQ     JCL,,AUTO
         3 000055   000166 710000 3                  TRA     s:14871

      139    14823    4         ELSE IF P_PCB.OUT$->P$B.SUBLK$(0)->P$B.NSUBLKS = 2 THEN DO;

  14823  3 000056   000002 100003                    CMPX0   2,DU
         3 000057   000166 601000 3                  TNZ     s:14871

      140    14824    4               IF P_PCB.OUT$->P$B.SUBLK$(0)->P$B.SUBLK$(1)->P$B.CODE = %JCL_VAL THEN

  14824  3 000060   100004 474500                    LDP4    4,,PR1
         3 000061   400000 722100                    LXL2    0,,PR4
         3 000062   000001 102003                    CMPX2   1,DU
         3 000063   000166 601000 3                  TNZ     s:14871

      141    14825    4                  JCL = %YES#;
PL6.E3A0      #001=ASL$LIST_ALL_PROJECTS File=ASL$LIST_PROJECTS.:E05TSI          TUE 07/29/97 10:19 Page:27

  14825  3 000064   400000 236003                    LDQ     -131072,DU
         3 000065   200016 756100                    STQ     JCL,,AUTO

      142    14826    4               END; /*  Nsublks = 2  */

      143    14827    3         END; /*  Nsublks > 0  */

  14827  3 000066   000166 710000 3                  TRA     s:14871

      144    14828
      145    14829    2      SELECT (%LIST_PROJECT_VAL);

      146    14830
      147    14831    2      DISP = %NO#;

  14831  3 000067   200013 450100                    STZ     DISP,,AUTO

      148    14832    2      JCL = %NO#;

  14832  3 000070   200016 450100                    STZ     JCL,,AUTO

      149    14833    2      IF P_PCB.OUT$ -> P$B.NSUBLKS = 1 THEN

  14833  3 000071   000001 220100                    LDX0    1,,PR0
         3 000072   000001 100003                    CMPX0   1,DU
         3 000073   000077 601000 3                  TNZ     s:14836

      150    14834    2         NODE$ = P_PCB.OUT$ -> P$B.SUBLK$(0) ;

  14834  3 000074   000003 236100                    LDQ     3,,PR0
         3 000075   000000 756000 xsym               STQ     NODE$
         3 000076   000166 710000 3                  TRA     s:14871

      151    14835    2      ELSE
      152    14836    2         NODE$ = P_PCB.OUT$ -> P$B.SUBLK$(1) ;

PL6.E3A0      #001=ASL$LIST_ALL_PROJECTS File=ASL$LIST_PROJECTS.:E05TSI          TUE 07/29/97 10:19 Page:28
  14836  3 000077   000004 236100                    LDQ     4,,PR0
         3 000100   000000 756000 xsym               STQ     NODE$
         3 000101   000166 710000 3                  TRA     s:14871

      153    14837
      154    14838    2      SELECT (%DISPLAY_PROJECT_VAL);

      155    14839
      156    14840    2      DISP = %YES#;

  14840  3 000102   400000 236003                    LDQ     -131072,DU
         3 000103   200013 756100                    STQ     DISP,,AUTO

      157    14841    3      DO I = 1 TO P_PCB.OUT$->P$B.NSUBLKS - 1;

  14841  3 000104   000001 235007                    LDA     1,DL
         3 000105   200014 755100                    STA     I,,AUTO
         3 000106   000125 710000 3                  TRA     s:14852+3

      158    14842    3         CODE2 = P_PCB.OUT$->P$B.SUBLK$(I)->P$B.CODE;

  14842  3 000107   000003 470400 xsym               LDP0    P_PCB+3
         3 000110   200014 720100                    LXL0    I,,AUTO
         3 000111   000003 471510                    LDP1    3,X0,PR0
         3 000112   100000 236100                    LDQ     0,,PR1
         3 000113   777777 376007                    ANQ     -1,DL
         3 000114   200003 756100                    STQ     CODE2,,AUTO

      159    14843
      160    14844    4         DO SELECT (CODE2);

  14844  3 000115   000001 116007                    CMPQ    1,DL
         3 000116   000122 601000 3                  TNZ     s:14852
         3 000117   000120 710000 3                  TRA     s:14848

      161    14845
      162    14846    4            SELECT (%JCL_VAL);
PL6.E3A0      #001=ASL$LIST_ALL_PROJECTS File=ASL$LIST_PROJECTS.:E05TSI          TUE 07/29/97 10:19 Page:29

      163    14847
      164    14848    4            JCL = %YES#;

  14848  3 000120   400000 236003                    LDQ     -131072,DU
         3 000121   200016 756100                    STQ     JCL,,AUTO

      165    14849
      166    14850    4            END;  /* Do case (CODE2) */

      167    14851
      168    14852    3         END;  /*  Do i  */

  14852  3 000122   200014 235100                    LDA     I,,AUTO
         3 000123   000001 035007                    ADLA    1,DL
         3 000124   200014 755100                    STA     I,,AUTO
         3 000125   000001 236100                    LDQ     1,,PR0
         3 000126   000022 772000                    QRL     18
         3 000127   200014 116100                    CMPQ    I,,AUTO
         3 000130   000132 600000 3                  TZE     s:14854
         3 000131   000107 603000 3                  TRC     s:14842

      169    14853
      170    14854    2      IF P_PCB.OUT$ -> P$B.NSUBLKS = 1 THEN  /* Disp proj  */

  14854  3 000132   000001 220100                    LDX0    1,,PR0
         3 000133   000001 100003                    CMPX0   1,DU
         3 000134   000140 601000 3                  TNZ     s:14857

      171    14855    2         NODE$ = P_PCB.OUT$ -> P$B.SUBLK$(0);

  14855  3 000135   000003 236100                    LDQ     3,,PR0
         3 000136   000000 756000 xsym               STQ     NODE$
         3 000137   000166 710000 3                  TRA     s:14871

      172    14856    3      ELSE DO;                               /* Disp proj ? */

PL6.E3A0      #001=ASL$LIST_ALL_PROJECTS File=ASL$LIST_PROJECTS.:E05TSI          TUE 07/29/97 10:19 Page:30
      173    14857    3         NODE$ = P_PCB.OUT$ -> P$B.SUBLK$(1);

  14857  3 000140   000004 236100                    LDQ     4,,PR0
         3 000141   000000 756000 xsym               STQ     NODE$

      174    14858    3         IF NODE$ -> P$B.NSUBLKS = 1 THEN    /*  Disp proj acct  */

  14858  3 000142   000000 471400 xsym               LDP1    NODE$
         3 000143   100001 221100                    LDX1    1,,PR1
         3 000144   000001 101003                    CMPX1   1,DU
         3 000145   000156 601000 3                  TNZ     s:14863

      175    14859                                                     /*  Or disp proj (jcl) */
      176    14860    3            IF NODE$ -> P$B.SUBLK$(0) -> P$B.CODE = %JCL_VAL THEN

  14860  3 000146   100003 473500                    LDP3    3,,PR1
         3 000147   300000 722100                    LXL2    0,,PR3
         3 000150   000001 102003                    CMPX2   1,DU
         3 000151   000155 601000 3                  TNZ     s:14862

      177    14861    3               NODE$ = P_PCB.OUT$ -> P$B.SUBLK$(0);

  14861  3 000152   000003 236100                    LDQ     3,,PR0
         3 000153   000000 756000 xsym               STQ     NODE$
         3 000154   000166 710000 3                  TRA     s:14871

      178    14862    4            ELSE DO; END;

  14862  3 000155   000166 710000 3                  TRA     s:14871

      179    14863    3         ELSE IF NODE$ -> P$B.NSUBLKS > 1 THEN  /* Disp proj acct,name  */

  14863  3 000156   000002 101003                    CMPX1   2,DU
         3 000157   000166 602000 3                  TNC     s:14871

      180    14864                                                      /*  Or disp proj acct (jcl) */
      181    14865    3               IF NODE$ -> P$B.SUBLK$(1) -> P$B.CODE = %JCL_VAL THEN
PL6.E3A0      #001=ASL$LIST_ALL_PROJECTS File=ASL$LIST_PROJECTS.:E05TSI          TUE 07/29/97 10:19 Page:31

  14865  3 000160   100004 473500                    LDP3    4,,PR1
         3 000161   300000 722100                    LXL2    0,,PR3
         3 000162   000001 102003                    CMPX2   1,DU
         3 000163   000166 601000 3                  TNZ     s:14871

      182    14866    3                  NODE$ -> P$B.NSUBLKS = 1;

  14866  3 000164   000001 223003                    LDX3    1,DU
         3 000165   100001 743100                    STX3    1,,PR1

      183    14867    3         END;  /*  Nsublks > 1  */

      184    14868
      185    14869    2      END;  /*  Do case (code)  */

      186    14870
      187    14871    1   FDS.NVECS# = 0;

  14871  3 000166   000011 450000 xsym               STZ     FDS+9

      188    14872    2   IF JCL THEN DO;

  14872  3 000167   200016 234100                    SZN     JCL,,AUTO
         3 000170   000206 605000 3                  TPL     s:14877

      189    14873    2      CALL CONCAT (FMT_BUF, '%1/"', PROJECTS_STR, '%1/');

  14873  3 000171   000012 236000 2                  LDQ     ZERO_FLAGS+4
         3 000172   000000 756000 xsym               STQ     FMT_BUF
         3 000173   000002 237000 2                  LDAQ    PROJECTS_STR
         3 000174   000001 755000 xsym               STA     FMT_BUF+1
         3 000175   000002 756000 xsym               STQ     FMT_BUF+2
         3 000176   040000 100400                    MLR     fill='040'O
         3 000177   000012 000003 2                  ADSC9   ZERO_FLAGS+4             cn=0,n=3
         3 000200   000003 000363 xsym               ADSC9   FMT_BUF+3                cn=0,n=243

PL6.E3A0      #001=ASL$LIST_ALL_PROJECTS File=ASL$LIST_PROJECTS.:E05TSI          TUE 07/29/97 10:19 Page:32
      190    14874    2      FDS.FMT_.BOUND = LENGTHC (PROJECTS_STR) + 6;

  14874  3 000201   000000 236000 xsym               LDQ     FDS
         3 000202   177777 376007                    ANQ     65535,DL
         3 000203   000000 276000 4                  ORQ     0
         3 000204   000000 756000 xsym               STQ     FDS

      191    14875    2      END;   /*  Jcl  */

  14875  3 000205   000224 710000 3                  TRA     s:14880

      192    14876    2   ELSE DO;

      193    14877    2      CALL CONCAT (FMT_BUF, '%1/', PROJECTS_STR, '%1/');

  14877  3 000206   000012 236000 2                  LDQ     ZERO_FLAGS+4
         3 000207   000001 376000 4                  ANQ     1
         3 000210   000040 276007                    ORQ     32,DL
         3 000211   000000 756000 xsym               STQ     FMT_BUF
         3 000212   040000 100400                    MLR     fill='040'O
         3 000213   000002 000010 2                  ADSC9   PROJECTS_STR             cn=0,n=8
         3 000214   000000 600010 xsym               ADSC9   FMT_BUF                  cn=3,n=8
         3 000215   040000 100400                    MLR     fill='040'O
         3 000216   000012 000003 2                  ADSC9   ZERO_FLAGS+4             cn=0,n=3
         3 000217   000002 600364 xsym               ADSC9   FMT_BUF+2                cn=3,n=244

      194    14878    2      FDS.FMT_.BOUND = LENGTHC (PROJECTS_STR) + 5;

  14878  3 000220   000000 236000 xsym               LDQ     FDS
         3 000221   177777 376007                    ANQ     65535,DL
         3 000222   000002 276000 4                  ORQ     2
         3 000223   000000 756000 xsym               STQ     FDS

      195    14879    2      END;   /*  Not jcl  */

      196    14880    1   FDS.TABDFLT# = 10;

PL6.E3A0      #001=ASL$LIST_ALL_PROJECTS File=ASL$LIST_PROJECTS.:E05TSI          TUE 07/29/97 10:19 Page:33
  14880  3 000224   000012 235007                    LDA     10,DL
         3 000225   000017 755000 xsym               STA     FDS+15

      197    14881    1   CALL X$FORMAT (FDS);

  14881  3 000226   000003 630400 4                  EPPR0   3
         3 000227   000017 631400 xsym               EPPR1   B_VECTNIL+15
         3 000230   000000 701000 xent               TSX1    X$FORMAT
         3 000231   000000 011000                    NOP     0

      198    14882    1   CALL ASB$KEYMAKER( USERS_KEY, P$B, %YES#, %LIST_PROJECT_VAL) ALTRET(JUSTRET);

  14882  3 000232   000004 237000 4                  LDAQ    4
         3 000233   201316 757100                    STAQ    ARS+4,,AUTO
         3 000234   000000 236000 xsym               LDQ     NODE$
         3 000235   000006 235000 4                  LDA     6
         3 000236   201314 757100                    STAQ    ARS+2,,AUTO
         3 000237   201314 630500                    EPPR0   ARS+2,,AUTO
         3 000240   000022 631400 xsym               EPPR1   B_VECTNIL+18
         3 000241   000000 701000 xent               TSX1    ASB$KEYMAKER
         3 000242   000755 702000 3                  TSX2    JUSTRET

      199    14883    2   IF DISP THEN DO;

  14883  3 000243   200013 234100                    SZN     DISP,,AUTO
         3 000244   000313 605000 3                  TPL     s:14903

      200    14884    3      IF JCL THEN DO;

  14884  3 000245   200016 234100                    SZN     JCL,,AUTO
         3 000246   000274 605000 3                  TPL     s:14896

      201    14885    3         PROJ.FLAGS    = '777777777777'O;

  14885  3 000247   000027 236000 xsym               LDQ     B_VECTNIL+23
         3 000250   201301 756100                    STQ     PROJ_FLAGS+3,,AUTO

PL6.E3A0      #001=ASL$LIST_ALL_PROJECTS File=ASL$LIST_PROJECTS.:E05TSI          TUE 07/29/97 10:19 Page:34
      202    14886    3         ADMINBITS.USER = ADMINBITS.USER | '763777777777777777777777'O;

  14886  3 000251   201266 237100                    LDAQ    ADMIN_FLAGS,,AUTO
         3 000252   000014 277000 2                  ORAQ    ZERO_FLAGS+6
         3 000253   201266 757100                    STAQ    ADMIN_FLAGS,,AUTO

      203    14887    3         ADMINBITS.FE_MODE = ADMINBITS.FE_MODE | '777777777777'O;

  14887  3 000254   201270 236100                    LDQ     ADMIN_FLAGS+2,,AUTO
         3 000255   000027 276000 xsym               ORQ     B_VECTNIL+23
         3 000256   201270 756100                    STQ     ADMIN_FLAGS+2,,AUTO

      204    14888    3         DEFAULTBITS.USER = DEFAULTBITS.USER | '763777777777777777777777'O;

  14888  3 000257   201272 237100                    LDAQ    DEFAULT_FLAGS,,AUTO
         3 000260   000014 277000 2                  ORAQ    ZERO_FLAGS+6
         3 000261   201272 757100                    STAQ    DEFAULT_FLAGS,,AUTO

      205    14889    3         DEFAULTBITS.FE_MODE = DEFAULTBITS.FE_MODE | '777777777777'O;

  14889  3 000262   201274 236100                    LDQ     DEFAULT_FLAGS+2,,AUTO
         3 000263   000027 276000 xsym               ORQ     B_VECTNIL+23
         3 000264   201274 756100                    STQ     DEFAULT_FLAGS+2,,AUTO

      206    14890    3         DEFAULT_FLAGS (L_FACCT) = '0'B;

  14890  3 000265   000007 236000 4                  LDQ     7
         3 000266   201274 356100                    ANSQ    DEFAULT_FLAGS+2,,AUTO

      207    14891    3         ADMIN_FLAGS ( L_JCL ) = %YES#;

  14891  3 000267   000002 236007                    LDQ     2,DL
         3 000270   201271 256100                    ORSQ    ADMIN_FLAGS+3,,AUTO

      208    14892    3         DEFAULT_FLAGS ( L_JCL ) = %YES#;

  14892  3 000271   201275 256100                    ORSQ    DEFAULT_FLAGS+3,,AUTO
PL6.E3A0      #001=ASL$LIST_ALL_PROJECTS File=ASL$LIST_PROJECTS.:E05TSI          TUE 07/29/97 10:19 Page:35

      209    14893    3         PROJ_FLAGS ( L_JCL ) = %YES#;

  14893  3 000272   201301 256100                    ORSQ    PROJ_FLAGS+3,,AUTO

      210    14894    3         END;  /*  Jcl  */

  14894  3 000273   000324 710000 3                  TRA     s:14907

      211    14895    3      ELSE DO;

      212    14896    3         CALL ASL$LIST_PROJ_OPTS( PROJ_FLAGS, ADMIN_FLAGS, DEFAULT_FLAGS );

  14896  3 000274   201272 630500                    EPPR0   DEFAULT_FLAGS,,AUTO
         3 000275   201316 450500                    STP0    ARS+4,,AUTO
         3 000276   201266 631500                    EPPR1   ADMIN_FLAGS,,AUTO
         3 000277   201315 451500                    STP1    ARS+3,,AUTO
         3 000300   201276 633500                    EPPR3   PROJ_FLAGS,,AUTO
         3 000301   201314 453500                    STP3    ARS+2,,AUTO
         3 000302   201314 630500                    EPPR0   ARS+2,,AUTO
         3 000303   000021 631400 xsym               EPPR1   B_VECTNIL+17
         3 000304   000000 701000 xent               TSX1    ASL$LIST_PROJ_OPTS
         3 000305   000000 011000                    NOP     0

      213    14897    3         PROJ_FLAGS (L_JCL) = %NO#;

  14897  3 000306   000010 236000 4                  LDQ     8
         3 000307   201301 356100                    ANSQ    PROJ_FLAGS+3,,AUTO

      214    14898    3         ADMIN_FLAGS (L_JCL) = %NO#;

  14898  3 000310   201271 356100                    ANSQ    ADMIN_FLAGS+3,,AUTO

      215    14899    3         DEFAULT_FLAGS (L_JCL) = %NO#;

  14899  3 000311   201275 356100                    ANSQ    DEFAULT_FLAGS+3,,AUTO

PL6.E3A0      #001=ASL$LIST_ALL_PROJECTS File=ASL$LIST_PROJECTS.:E05TSI          TUE 07/29/97 10:19 Page:36
      216    14900    3         END;   /*  Not jcl  */

      217    14901    2      END;  /*  Disp  */

  14901  3 000312   000324 710000 3                  TRA     s:14907

      218    14902    2   ELSE DO;  /*  Not disp  */

      219    14903    2      PROJ_FLAGS = ZERO_FLAGS;

  14903  3 000313   000100 100400                    MLR     fill='000'O
         3 000314   000006 000020 2                  ADSC9   ZERO_FLAGS               cn=0,n=16
         3 000315   201276 000020                    ADSC9   PROJ_FLAGS,,AUTO         cn=0,n=16

      220    14904    2      ADMIN_FLAGS = ZERO_FLAGS;

  14904  3 000316   000100 100400                    MLR     fill='000'O
         3 000317   000006 000020 2                  ADSC9   ZERO_FLAGS               cn=0,n=16
         3 000320   201266 000020                    ADSC9   ADMIN_FLAGS,,AUTO        cn=0,n=16

      221    14905    2      DEFAULT_FLAGS = ZERO_FLAGS;

  14905  3 000321   000100 100400                    MLR     fill='000'O
         3 000322   000006 000020 2                  ADSC9   ZERO_FLAGS               cn=0,n=16
         3 000323   201272 000020                    ADSC9   DEFAULT_FLAGS,,AUTO      cn=0,n=16

      222    14906    2      END;  /*  Not disp  */

      223    14907    1   CALL ASB$WRITE_LO( AS_BLANK, 1 );

  14907  3 000324   000011 630400 4                  EPPR0   9
         3 000325   000020 631400 xsym               EPPR1   B_VECTNIL+16
         3 000326   000000 701000 xent               TSX1    ASB$WRITE_LO
         3 000327   000000 011000                    NOP     0

      224    14908    1   FDS.NVECS# = 0;

PL6.E3A0      #001=ASL$LIST_ALL_PROJECTS File=ASL$LIST_PROJECTS.:E05TSI          TUE 07/29/97 10:19 Page:37
  14908  3 000330   000011 450000 xsym               STZ     FDS+9

      225    14909    1   IF NOT AS_WILD_USER

  14909  3 000331   000000 234000 xsym               SZN     AS_WILD_USER
         3 000332   000436 604000 3                  TMI     s:14929

      226    14910    2   THEN DO ;

      227    14911    2      CALL ASB$GET( %YES#, %LIST_PROJECT_VAL, AS_PROJECT, AS_PROJECT_DREC$,

  14911  3 000333   000013 630400 4                  EPPR0   11
         3 000334   000024 631400 xsym               EPPR1   B_VECTNIL+20
         3 000335   000000 701000 xent               TSX1    ASB$GET
         3 000336   000755 702000 3                  TSX2    JUSTRET

      228    14912    2           AS_PROJECT_DFLT, AS_PROJECT_DFLT_DREC$ ) ALTRET(JUSTRET);
      229    14913    3      IF AS_USERS.BUDGET.MACCT_.TEXT ~= ' ' AND JCL THEN DO;

  14913  3 000337   040000 106400                    CMPC    fill='040'O
         3 000340   000012 200024 xsym               ADSC9   AS_USERS+10              cn=1,n=20
         3 000341   000035 000001 xsym               ADSC9   B_VECTNIL+29             cn=0,n=1
         3 000342   000411 600000 3                  TZE     s:14921
         3 000343   200016 234100                    SZN     JCL,,AUTO
         3 000344   000411 605000 3                  TPL     s:14921

      230    14914    3         MACCT = AS_BLANK;

  14914  3 000345   040100 100400                    MLR     fill='040'O
         3 000346   000000 000001 xsym               ADSC9   AS_BLANK                 cn=0,n=1
         3 000347   200017 000025                    ADSC9   MACCT,,AUTO              cn=0,n=21

      231    14915    3         CALL INDEX ( I, ' ', AS_USERS.BUDGET.MACCT.ACCT);

  14915  3 000350   000000 124400                    SCM     mask='000'O
         3 000351   000012 200010 xsym               ADSC9   AS_USERS+10              cn=1,n=8
         3 000352   000035 000001 xsym               ADSC9   B_VECTNIL+29             cn=0,n=1
PL6.E3A0      #001=ASL$LIST_ALL_PROJECTS File=ASL$LIST_PROJECTS.:E05TSI          TUE 07/29/97 10:19 Page:38
         3 000353   200014 000100                    ARG     I,,AUTO

      232    14916    3         CALL CONCAT (MACCT,SUBSTR(AS_USERS.BUDGET.MACCT.ACCT,0,I),

  14916  3 000354   200014 720100                    LXL0    I,,AUTO
         3 000355   040100 100440                    MLR     fill='040'O
         3 000356   000012 200010 xsym               ADSC9   AS_USERS+10              cn=1,n=*X0
         3 000357   200017 000025                    ADSC9   MACCT,,AUTO              cn=0,n=21
         3 000360   200014 236100                    LDQ     I,,AUTO
         3 000361   000025 116007                    CMPQ    21,DL
         3 000362   000377 603000 3                  TRC     s:14918
         3 000363   777752 621006                    EAX1    -22,QL
         3 000364   777777 661003                    ERX1    -1,DU
         3 000365   040146 100400                    MLR     fill='040'O
         3 000366   000021 000001 4                  ADSC9   17                       cn=0,n=1
         3 000367   200017 000011                    ADSC9   MACCT,Q,AUTO             cn=0,n=*X1
         3 000370   000024 116007                    CMPQ    20,DL
         3 000371   000377 603000 3                  TRC     s:14918
         3 000372   777753 622006                    EAX2    -21,QL
         3 000373   777777 662003                    ERX2    -1,DU
         3 000374   040146 100400                    MLR     fill='040'O
         3 000375   000014 200014 xsym               ADSC9   AS_USERS+12              cn=1,n=12
         3 000376   200017 200012                    ADSC9   MACCT,Q,AUTO             cn=1,n=*X2

      233    14917    3              ',',AS_USERS.BUDGET.MACCT.NAME);
      234    14918    3         CALL CONCAT (OUT_BUF, MAKEME_STR, MACCT);

  14918  3 000377   040000 100400                    MLR     fill='040'O
         3 000400   000000 000007 2                  ADSC9   MAKEME_STR               cn=0,n=7
         3 000401   000000 000007 xsym               ADSC9   OUT_BUF                  cn=0,n=7
         3 000402   040000 100500                    MLR     fill='040'O
         3 000403   200017 000025                    ADSC9   MACCT,,AUTO              cn=0,n=21
         3 000404   000001 600205 xsym               ADSC9   OUT_BUF+1                cn=3,n=133

      235    14919    3         CALL ASB$WRITE_LO (OUT_BUF, SIZEC(MAKEME_STR)+SIZEC(MACCT) );

  14919  3 000405   000023 630400 4                  EPPR0   19
PL6.E3A0      #001=ASL$LIST_ALL_PROJECTS File=ASL$LIST_PROJECTS.:E05TSI          TUE 07/29/97 10:19 Page:39
         3 000406   000020 631400 xsym               EPPR1   B_VECTNIL+16
         3 000407   000000 701000 xent               TSX1    ASB$WRITE_LO
         3 000410   000000 011000                    NOP     0

      236    14920    3         END;   /*  Jcl and BUDGET.MACCT_.TEXT ~= blank  */

      237    14921    2      CALL LIST_THIS_PROJ;

  14921  3 000411   000756 701000 3                  TSX1    LIST_THIS_PROJ
         3 000412   000000 011000                    NOP     0

      238    14922    3      IF AS_USERS.BUDGET.MACCT_.TEXT ~= ' ' AND JCL THEN DO;

  14922  3 000413   040000 106400                    CMPC    fill='040'O
         3 000414   000012 200024 xsym               ADSC9   AS_USERS+10              cn=1,n=20
         3 000415   000035 000001 xsym               ADSC9   B_VECTNIL+29             cn=0,n=1
         3 000416   000433 600000 3                  TZE     s:14926
         3 000417   200016 234100                    SZN     JCL,,AUTO
         3 000420   000433 605000 3                  TPL     s:14926

      239    14923    3         CALL CONCAT (OUT_BUF, MAKEME_STR, RESET_STR);

  14923  3 000421   040000 100400                    MLR     fill='040'O
         3 000422   000000 000007 2                  ADSC9   MAKEME_STR               cn=0,n=7
         3 000423   000000 000007 xsym               ADSC9   OUT_BUF                  cn=0,n=7
         3 000424   040000 100400                    MLR     fill='040'O
         3 000425   000004 000005 2                  ADSC9   RESET_STR                cn=0,n=5
         3 000426   000001 600205 xsym               ADSC9   OUT_BUF+1                cn=3,n=133

      240    14924    3         CALL ASB$WRITE_LO (OUT_BUF, SIZEC(MAKEME_STR)+SIZEC(RESET_STR) );

  14924  3 000427   000026 630400 4                  EPPR0   22
         3 000430   000020 631400 xsym               EPPR1   B_VECTNIL+16
         3 000431   000000 701000 xent               TSX1    ASB$WRITE_LO
         3 000432   000000 011000                    NOP     0

      241    14925    3         END;   /*  Jcl and BUDGET.MACCT_.TEXT ~= blank  */
PL6.E3A0      #001=ASL$LIST_ALL_PROJECTS File=ASL$LIST_PROJECTS.:E05TSI          TUE 07/29/97 10:19 Page:40

      242    14926    2      COUNT = 1 ;

  14926  3 000433   000001 235007                    LDA     1,DL
         3 000434   200004 755100                    STA     COUNT,,AUTO

      243    14927    2      END ;  /*  Not AS_WILD_USER  */

  14927  3 000435   000700 710000 3                  TRA     FINISHED

      244    14928    2   ELSE DO ;

      245    14929    2      COUNT = 0 ;

  14929  3 000436   200004 450100                    STZ     COUNT,,AUTO

      246    14930    2      INDX = 0;

  14930  3 000437   200015 450100                    STZ     INDX,,AUTO

      247    14931    2      CURRENT_PROJ = AS_NONE;

  14931  3 000440   000100 100400                    MLR     fill='000'O
         3 000441   000000 000025 xsym               ADSC9   AS_NONE                  cn=0,n=21
         3 000442   200005 000025                    ADSC9   CURRENT_PROJ,,AUTO       cn=0,n=21

      248    14932    2      CURRENT_PROJ_KEY.CNT = 5;

  14932  3 000443   005000 236003                    LDQ     2560,DU
         3 000444   000000 552040 1                  STBQ    CURRENT_PROJ_KEY,'40'O

      249    14933    2      CURRENT_PROJ_KEY.TXT = SUBSTR ( AS_NONE.TEXT,0,SIZEC(AS_NONE.TEXT));

  14933  3 000445   040000 100400                    MLR     fill='040'O
         3 000446   000000 200024 xsym               ADSC9   AS_NONE                  cn=1,n=20
         3 000447   000000 400050 1                  ADSC9   CURRENT_PROJ_KEY         cn=2,n=40

PL6.E3A0      #001=ASL$LIST_ALL_PROJECTS File=ASL$LIST_PROJECTS.:E05TSI          TUE 07/29/97 10:19 Page:41
      250    14934    2      USERS_KEY = CURRENT_PROJ_KEY;

  14934  3 000450   000000 100400                    MLR     fill='000'O
         3 000451   000000 000052 1                  ADSC9   CURRENT_PROJ_KEY         cn=0,n=42
         3 000452   000000 000052 xsym               ADSC9   USERS_KEY                cn=0,n=42

      251    14935    2      CALL ASB$PREC_USERS;

  14935  3 000453   000002 631400 xsym               EPPR1   B_VECTNIL+2
         3 000454   000000 701000 xent               TSX1    ASB$PREC_USERS
         3 000455   000000 011000                    NOP     0

      252    14936    2   WIDTH_LOOP:
      253    14937    3      DO FOREVER;

  14937  3 000456                       WIDTH_LOOP   null
      254    14938
      255    14939    3   DEPTH_LOOP:
      256    14940    4         DO FOREVER;

  14940  3 000456                       DEPTH_LOOP   null
      257    14941
      258    14942    5            IF SUBSTR (USERS_KEY.TXTC,1,20) = CURRENT_PROJ.TXT THEN DO;

  14942  3 000456   040100 106400                    CMPC    fill='040'O
         3 000457   000000 400024 xsym               ADSC9   USERS_KEY                cn=2,n=20
         3 000460   200005 200024                    ADSC9   CURRENT_PROJ,,AUTO       cn=1,n=20
         3 000461   000616 601000 3                  TNZ     s:14974

      259    14943    5               SAVE (INDX) = USERS_KEY;

  14943  3 000462   200015 236100                    LDQ     INDX,,AUTO
         3 000463   000052 402007                    MPY     42,DL
         3 000464   000106 100400                    MLR     fill='000'O
         3 000465   000000 000052 xsym               ADSC9   USERS_KEY                cn=0,n=42
         3 000466   200025 000052                    ADSC9   SAVE,Q,AUTO              cn=0,n=42

PL6.E3A0      #001=ASL$LIST_ALL_PROJECTS File=ASL$LIST_PROJECTS.:E05TSI          TUE 07/29/97 10:19 Page:42
      260    14944    5               INDX = INDX + 1;

  14944  3 000467   200015 054100                    AOS     INDX,,AUTO

      261    14945    6               IF JCL THEN DO;

  14945  3 000470   200016 234100                    SZN     JCL,,AUTO
         3 000471   000542 605000 3                  TPL     s:14955

      262    14946    7                  IF CURRENT_PROJ ~= AS_NONE THEN DO;

  14946  3 000472   000000 106500                    CMPC    fill='000'O
         3 000473   200005 000025                    ADSC9   CURRENT_PROJ,,AUTO       cn=0,n=21
         3 000474   000000 000025 xsym               ADSC9   AS_NONE                  cn=0,n=21
         3 000475   000542 600000 3                  TZE     s:14955

      263    14947    7                     MACCT = AS_BLANK;

  14947  3 000476   040100 100400                    MLR     fill='040'O
         3 000477   000000 000001 xsym               ADSC9   AS_BLANK                 cn=0,n=1
         3 000500   200017 000025                    ADSC9   MACCT,,AUTO              cn=0,n=21

      264    14948    7                     CALL INDEX ( I, ' ', SUBSTR(USERS_KEY.TXTC,1,8));

  14948  3 000501   000000 124400                    SCM     mask='000'O
         3 000502   000000 400010 xsym               ADSC9   USERS_KEY                cn=2,n=8
         3 000503   000035 000001 xsym               ADSC9   B_VECTNIL+29             cn=0,n=1
         3 000504   200014 000100                    ARG     I,,AUTO

      265    14949    7                     CALL CONCAT (MACCT,SUBSTR(USERS_KEY.TXTC,1,I),

  14949  3 000505   200014 720100                    LXL0    I,,AUTO
         3 000506   040100 100440                    MLR     fill='040'O
         3 000507   000000 400010 xsym               ADSC9   USERS_KEY                cn=2,n=*X0
         3 000510   200017 000025                    ADSC9   MACCT,,AUTO              cn=0,n=21
         3 000511   200014 236100                    LDQ     I,,AUTO
         3 000512   000025 116007                    CMPQ    21,DL
PL6.E3A0      #001=ASL$LIST_ALL_PROJECTS File=ASL$LIST_PROJECTS.:E05TSI          TUE 07/29/97 10:19 Page:43
         3 000513   000530 603000 3                  TRC     s:14951
         3 000514   777752 621006                    EAX1    -22,QL
         3 000515   777777 661003                    ERX1    -1,DU
         3 000516   040146 100400                    MLR     fill='040'O
         3 000517   000021 000001 4                  ADSC9   17                       cn=0,n=1
         3 000520   200017 000011                    ADSC9   MACCT,Q,AUTO             cn=0,n=*X1
         3 000521   000024 116007                    CMPQ    20,DL
         3 000522   000530 603000 3                  TRC     s:14951
         3 000523   777753 622006                    EAX2    -21,QL
         3 000524   777777 662003                    ERX2    -1,DU
         3 000525   040146 100400                    MLR     fill='040'O
         3 000526   000002 400014 xsym               ADSC9   USERS_KEY+2              cn=2,n=12
         3 000527   200017 200012                    ADSC9   MACCT,Q,AUTO             cn=1,n=*X2

      266    14950    7                          ',',SUBSTR(USERS_KEY.TXTC,9,12));
      267    14951    7                     CALL CONCAT (OUT_BUF, MAKEME_STR, MACCT);

  14951  3 000530   040000 100400                    MLR     fill='040'O
         3 000531   000000 000007 2                  ADSC9   MAKEME_STR               cn=0,n=7
         3 000532   000000 000007 xsym               ADSC9   OUT_BUF                  cn=0,n=7
         3 000533   040000 100500                    MLR     fill='040'O
         3 000534   200017 000025                    ADSC9   MACCT,,AUTO              cn=0,n=21
         3 000535   000001 600205 xsym               ADSC9   OUT_BUF+1                cn=3,n=133

      268    14952    7                     CALL ASB$WRITE_LO (OUT_BUF, SIZEC(MAKEME_STR)+SIZEC(MACCT) );

  14952  3 000536   000023 630400 4                  EPPR0   19
         3 000537   000020 631400 xsym               EPPR1   B_VECTNIL+16
         3 000540   000000 701000 xent               TSX1    ASB$WRITE_LO
         3 000541   000000 011000                    NOP     0

      269    14953    7                     END;   /*  CURRENT_PROJ ~= AS_NONE  */

      270    14954    6                  END;  /*  Jcl  */

      271    14955    5               CURRENT_PROJ.CNT = USERS_KEY.COUNT - 21;

PL6.E3A0      #001=ASL$LIST_ALL_PROJECTS File=ASL$LIST_PROJECTS.:E05TSI          TUE 07/29/97 10:19 Page:44
  14955  3 000542   000000 236000 xsym               LDQ     USERS_KEY
         3 000543   000033 772000                    QRL     27
         3 000544   000025 136007                    SBLQ    21,DL
         3 000545   000033 736000                    QLS     27
         3 000546   200005 552140                    STBQ    CURRENT_PROJ,'40'O,AUTO

      272    14956    5               CURRENT_PROJ.TXT = SUBSTR ( USERS_KEY.TXTC,21,CURRENT_PROJ.CNT);

  14956  3 000547   200005 236100                    LDQ     CURRENT_PROJ,,AUTO
         3 000550   000033 772000                    QRL     27
         3 000551   000000 620006                    EAX0    0,QL
         3 000552   040100 100440                    MLR     fill='040'O
         3 000553   000005 400010 xsym               ADSC9   USERS_KEY+5              cn=2,n=*X0
         3 000554   200005 200024                    ADSC9   CURRENT_PROJ,,AUTO       cn=1,n=20

      273    14957    5               USERS_KEY = CURRENT_PROJ;

  14957  3 000555   000000 100500                    MLR     fill='000'O
         3 000556   200005 000025                    ADSC9   CURRENT_PROJ,,AUTO       cn=0,n=21
         3 000557   000000 000052 xsym               ADSC9   USERS_KEY                cn=0,n=42

      274    14958    5               IF JCL THEN

  14958  3 000560   200016 234100                    SZN     JCL,,AUTO
         3 000561   000566 605000 3                  TPL     s:14961

      275    14959    5                  IF USERS_KEY.COUNT < 9 THEN

  14959  3 000562   000000 236000 xsym               LDQ     USERS_KEY
         3 000563   777000 376003                    ANQ     -512,DU
         3 000564   011000 116003                    CMPQ    4608,DU
         3 000565   000574 602000 3                  TNC     SKIP_THIS_ONE

      276    14960    5                     GOTO SKIP_THIS_ONE;
      277    14961    5               CALL ASB$GET( %YES#, %LIST_PROJECT_VAL, AS_PROJECT, AS_PROJECT_DREC$,

  14961  3 000566   000013 630400 4                  EPPR0   11
PL6.E3A0      #001=ASL$LIST_ALL_PROJECTS File=ASL$LIST_PROJECTS.:E05TSI          TUE 07/29/97 10:19 Page:45
         3 000567   000024 631400 xsym               EPPR1   B_VECTNIL+20
         3 000570   000000 701000 xent               TSX1    ASB$GET
         3 000571   000574 702000 3                  TSX2    SKIP_THIS_ONE

      278    14962    5                    AS_PROJECT_DFLT, AS_PROJECT_DFLT_DREC$ ) ALTRET(SKIP_THIS_ONE);
      279    14963    5               CALL LIST_THIS_PROJ;

  14963  3 000572   000756 701000 3                  TSX1    LIST_THIS_PROJ
         3 000573   000000 011000                    NOP     0

      280    14964    5   SKIP_THIS_ONE:
      281    14965    5               CURRENT_PROJ_KEY.CNT = CURRENT_PROJ.CNT + 1;

  14965  3 000574   200005 236100       SKIP_THIS_O* LDQ     CURRENT_PROJ,,AUTO
         3 000575   000033 772000                    QRL     27
         3 000576   000001 036007                    ADLQ    1,DL
         3 000577   000033 736000                    QLS     27
         3 000600   000000 552040 1                  STBQ    CURRENT_PROJ_KEY,'40'O

      282    14966    5               CURRENT_PROJ_KEY.TXT = CURRENT_PROJ.TXT;

  14966  3 000601   040000 100500                    MLR     fill='040'O
         3 000602   200005 200024                    ADSC9   CURRENT_PROJ,,AUTO       cn=1,n=20
         3 000603   000000 400050 1                  ADSC9   CURRENT_PROJ_KEY         cn=2,n=40

      283    14967    5               USERS_KEY = CURRENT_PROJ_KEY;

  14967  3 000604   000000 100400                    MLR     fill='000'O
         3 000605   000000 000052 1                  ADSC9   CURRENT_PROJ_KEY         cn=0,n=42
         3 000606   000000 000052 xsym               ADSC9   USERS_KEY                cn=0,n=42

      284    14968    5               CALL ASB$PREC_USERS;

  14968  3 000607   000002 631400 xsym               EPPR1   B_VECTNIL+2
         3 000610   000000 701000 xent               TSX1    ASB$PREC_USERS
         3 000611   000000 011000                    NOP     0

PL6.E3A0      #001=ASL$LIST_ALL_PROJECTS File=ASL$LIST_PROJECTS.:E05TSI          TUE 07/29/97 10:19 Page:46
      285    14969    5               COUNT = COUNT + 1 ;

  14969  3 000612   200004 235100                    LDA     COUNT,,AUTO
         3 000613   000001 035007                    ADLA    1,DL
         3 000614   200004 755100                    STA     COUNT,,AUTO

      286    14970    5               END;   /*  We have a sub project  */

  14970  3 000615   000456 710000 3                  TRA     WIDTH_LOOP

      287    14971    4            ELSE
      288    14972    4               EXIT DEPTH_LOOP;
      289    14973    4            END DEPTH_LOOP;

      290    14974    3         INDX = INDX - 1;

  14974  3 000616   000001 336007                    LCQ     1,DL
         3 000617   200015 056100                    ASQ     INDX,,AUTO

      291    14975    3         IF INDX < 0 THEN

  14975  3 000620   000700 604000 3                  TMI     FINISHED

      292    14976    3            EXIT WIDTH_LOOP;
      293    14977    3         IF SUBSTR ( SAVE.TXT(INDX),1,20 ) = AS_NONE.TEXT THEN

  14977  3 000621   200015 236100                    LDQ     INDX,,AUTO
         3 000622   000052 402007                    MPY     42,DL
         3 000623   040000 106506                    CMPC    fill='040'O
         3 000624   200025 400024                    ADSC9   SAVE,Q,AUTO              cn=2,n=20
         3 000625   000000 200024 xsym               ADSC9   AS_NONE                  cn=1,n=20
         3 000626   000633 601000 3                  TNZ     s:14980

      294    14978    3            CURRENT_PROJ = AS_NONE;

  14978  3 000627   000100 100400                    MLR     fill='000'O
         3 000630   000000 000025 xsym               ADSC9   AS_NONE                  cn=0,n=21
PL6.E3A0      #001=ASL$LIST_ALL_PROJECTS File=ASL$LIST_PROJECTS.:E05TSI          TUE 07/29/97 10:19 Page:47
         3 000631   200005 000025                    ADSC9   CURRENT_PROJ,,AUTO       cn=0,n=21
         3 000632   000653 710000 3                  TRA     s:14984

      295    14979    4         ELSE DO;

      296    14980    4            CALL INDEX (I, ' ', SUBSTR(SAVE.TXT(INDX),9,12));

  14980  3 000633   000000 124506                    SCM     mask='000'O
         3 000634   200027 400014                    ADSC9   SAVE+2,Q,AUTO            cn=2,n=12
         3 000635   000035 000001 xsym               ADSC9   B_VECTNIL+29             cn=0,n=1
         3 000636   200014 000100                    ARG     I,,AUTO

      297    14981    4            CURRENT_PROJ.CNT = I + 9;

  14981  3 000637   200014 236100                    LDQ     I,,AUTO
         3 000640   000011 036007                    ADLQ    9,DL
         3 000641   000033 736000                    QLS     27
         3 000642   200005 552140                    STBQ    CURRENT_PROJ,'40'O,AUTO

      298    14982    4            CURRENT_PROJ.TXT = SUBSTR ( SAVE.TXT(INDX), 1, CURRENT_PROJ.CNT);

  14982  3 000643   200005 236100                    LDQ     CURRENT_PROJ,,AUTO
         3 000644   000033 772000                    QRL     27
         3 000645   000000 620006                    EAX0    0,QL
         3 000646   200015 236100                    LDQ     INDX,,AUTO
         3 000647   000052 402007                    MPY     42,DL
         3 000650   040100 100546                    MLR     fill='040'O
         3 000651   200025 400010                    ADSC9   SAVE,Q,AUTO              cn=2,n=*X0
         3 000652   200005 200024                    ADSC9   CURRENT_PROJ,,AUTO       cn=1,n=20

      299    14983    4            END;

      300    14984    3         USERS_KEY = SAVE (INDX) ;

  14984  3 000653   000000 100506                    MLR     fill='000'O
         3 000654   200025 000052                    ADSC9   SAVE,Q,AUTO              cn=0,n=42
         3 000655   000000 000052 xsym               ADSC9   USERS_KEY                cn=0,n=42
PL6.E3A0      #001=ASL$LIST_ALL_PROJECTS File=ASL$LIST_PROJECTS.:E05TSI          TUE 07/29/97 10:19 Page:48

      301    14985    3         CALL ASB$PREC_AND_SKIP_USERS;

  14985  3 000656   000002 631400 xsym               EPPR1   B_VECTNIL+2
         3 000657   000000 701000 xent               TSX1    ASB$PREC_AND_SKIP_USERS
         3 000660   000000 011000                    NOP     0

      302    14986    4         IF JCL THEN DO;

  14986  3 000661   200016 234100                    SZN     JCL,,AUTO
         3 000662   000456 605000 3                  TPL     WIDTH_LOOP

      303    14987    5            IF INDX = 0 THEN DO;

  14987  3 000663   200015 235100                    LDA     INDX,,AUTO
         3 000664   000456 601000 3                  TNZ     WIDTH_LOOP

      304    14988    5               CALL CONCAT (OUT_BUF, MAKEME_STR, RESET_STR);

  14988  3 000665   040000 100400                    MLR     fill='040'O
         3 000666   000000 000007 2                  ADSC9   MAKEME_STR               cn=0,n=7
         3 000667   000000 000007 xsym               ADSC9   OUT_BUF                  cn=0,n=7
         3 000670   040000 100400                    MLR     fill='040'O
         3 000671   000004 000005 2                  ADSC9   RESET_STR                cn=0,n=5
         3 000672   000001 600205 xsym               ADSC9   OUT_BUF+1                cn=3,n=133

      305    14989    5               CALL ASB$WRITE_LO (OUT_BUF, SIZEC(MAKEME_STR)+SIZEC(RESET_STR) );

  14989  3 000673   000026 630400 4                  EPPR0   22
         3 000674   000020 631400 xsym               EPPR1   B_VECTNIL+16
         3 000675   000000 701000 xent               TSX1    ASB$WRITE_LO
         3 000676   000000 011000                    NOP     0

      306    14990    5               END;   /* Indx = 0  */

      307    14991    4            END;   /*  Jcl  */

PL6.E3A0      #001=ASL$LIST_ALL_PROJECTS File=ASL$LIST_PROJECTS.:E05TSI          TUE 07/29/97 10:19 Page:49
      308    14992    3         END WIDTH_LOOP;  /*  Forever  */

  14992  3 000677   000456 710000 3                  TRA     WIDTH_LOOP

      309    14993    2      END ;   /*  AS_WILD_USER  */

      310    14994    1   FINISHED:
      311    14995    1   IF PROJ_FLAGS = '0'B  AND  FDS.NVECS#  ~= 0

  14995  3 000700   000000 106500       FINISHED     CMPC    fill='000'O
         3 000701   201276 000020                    ADSC9   PROJ_FLAGS,,AUTO         cn=0,n=16
         3 000702   000002 000002 xsym               ADSC9   B_VECTNIL+2              cn=0,n=2
         3 000703   000717 601000 3                  TNZ     s:15001
         3 000704   000011 235000 xsym               LDA     FDS+9
         3 000705   000717 600000 3                  TZE     s:15001

      312    14996    2   THEN DO ;

      313    14997    2      CALL X$FORMAT( FDS ) ;

  14997  3 000706   000003 630400 4                  EPPR0   3
         3 000707   000017 631400 xsym               EPPR1   B_VECTNIL+15
         3 000710   000000 701000 xent               TSX1    X$FORMAT
         3 000711   000000 011000                    NOP     0

      314    14998    2      CALL ASB$WRITE_LO( AS_BLANK, 1 ) ;

  14998  3 000712   000011 630400 4                  EPPR0   9
         3 000713   000020 631400 xsym               EPPR1   B_VECTNIL+16
         3 000714   000000 701000 xent               TSX1    ASB$WRITE_LO
         3 000715   000000 011000                    NOP     0

      315    14999    2      LIST_ACCT_FLG = '0'B ;

  14999  3 000716   000000 450000 xsym               STZ     LIST_ACCT_FLG

      316    15000    2      END ;   /*  No PROJ_FLAGS set and FDS.NVECS# ~= 0  */
PL6.E3A0      #001=ASL$LIST_ALL_PROJECTS File=ASL$LIST_PROJECTS.:E05TSI          TUE 07/29/97 10:19 Page:50

      317    15001    2   IF NOT JCL THEN DO;

  15001  3 000717   200016 234100                    SZN     JCL,,AUTO
         3 000720   000755 604000 3                  TMI     JUSTRET

      318    15002    3      IF COUNT = 0 THEN DO ;

  15002  3 000721   200004 235100                    LDA     COUNT,,AUTO
         3 000722   000730 601000 3                  TNZ     s:15031

      319    15003        /*   ERROR:   ASL-E$NOTHING_TO_LIST-C
      320    15004             DESCRIPTION: Nothing to list.
      321    15005        */
      322    15006              %SCREAM( ERR#=E$NOTHING_TO_LIST, LEVEL=INFO, MID='L' ) ;

  15014  3 000723   000030 630400 4                  EPPR0   24
         3 000724   000017 631400 xsym               EPPR1   B_VECTNIL+15
         3 000725   000000 701000 xent               TSX1    ASH$INFO
         3 000726   000000 011000                    NOP     0

      323    15021    3         END ; /*  Count = 0  */

  15021  3 000727   000755 710000 3                  TRA     JUSTRET

      324    15022    3      ELSE DO ;

      325    15023              %NUMBER( NUM1=COUNT ) ;
             15031    3         CALL ASB$BINCHAR( AS_FIELD1.TEXT, 0, -1, COUNT );

  15031  3 000730   200004 630500                    EPPR0   COUNT,,AUTO
         3 000731   201317 450500                    STP0    ARS+5,,AUTO
         3 000732   000031 236000 4                  LDQ     25
         3 000733   201316 756100                    STQ     ARS+4,,AUTO
         3 000734   000032 237000 4                  LDAQ    26
         3 000735   201314 757100                    STAQ    ARS+2,,AUTO
         3 000736   201314 630500                    EPPR0   ARS+2,,AUTO
PL6.E3A0      #001=ASL$LIST_ALL_PROJECTS File=ASL$LIST_PROJECTS.:E05TSI          TUE 07/29/97 10:19 Page:51
         3 000737   000022 631400 xsym               EPPR1   B_VECTNIL+18
         3 000740   000000 701000 xent               TSX1    ASB$BINCHAR
         3 000741   000000 011000                    NOP     0

      326    15053    4         IF DISP THEN DO;

  15053  3 000742   200013 234100                    SZN     DISP,,AUTO
         3 000743   000751 605000 3                  TPL     s:15085

      327    15054        /*E* ERROR:   ASL-E$PROJ_DISP_MESS-C
      328    15055             MESSAGE:.. %U1 projects displayed.
      329    15056        */
      330    15057                 %SCREAM( ERR#=E$DISP_MESS, MID='L', LEVEL=INFO ) ;

  15065  3 000744   000034 630400 4                  EPPR0   28
         3 000745   000017 631400 xsym               EPPR1   B_VECTNIL+15
         3 000746   000000 701000 xent               TSX1    ASH$INFO
         3 000747   000000 011000                    NOP     0

      331    15072    4            END ; /*  Disp  */

  15072  3 000750   000755 710000 3                  TRA     JUSTRET

      332    15073    4         ELSE DO;

      333    15074        /*E* ERROR:   ASL-E$PROJ_LISTED_MESS-C
      334    15075             MESSAGE:.. %U1 projects listed.
      335    15076        */
      336    15077                 %SCREAM( ERR#=E$PROJ_LISTED_MESS, MID='L', LEVEL=INFO ) ;

  15085  3 000751   000035 630400 4                  EPPR0   29
         3 000752   000017 631400 xsym               EPPR1   B_VECTNIL+15
         3 000753   000000 701000 xent               TSX1    ASH$INFO
         3 000754   000000 011000                    NOP     0

      337    15092    4            END ; /*  Not disp  */

PL6.E3A0      #001=ASL$LIST_ALL_PROJECTS File=ASL$LIST_PROJECTS.:E05TSI          TUE 07/29/97 10:19 Page:52
      338    15093    3         END; /*  Not count = 0  */

      339    15094    2      END; /*  Not jcl  */

  15073  3 000755                       JUSTRET      null
      340    15095    1   JUSTRET: ;
      341    15096    1   RETURN ;

  15096  3 000755   000000 702200 xent               TSX2  ! X66_ARET

      342    15097
      343    15098        %EJECT;
PL6.E3A0      #001=ASL$LIST_ALL_PROJECTS File=ASL$LIST_PROJECTS.:E05TSI          TUE 07/29/97 10:19 Page:53
      344    15099    1   LIST_THIS_PROJ: PROC;

  15099  3 000756   201302 741300       LIST_THIS_P* STX1  ! PROJ_FLAGS+4,,AUTO

      345    15100
      346    15101        %ASL$LIST_OUTPUT ;
      347    15104        %ASL$LIST_PROJ_OUT ;
      348    15107    2   DCL I   UBIN;
      349    15108
      350    15109    2   IF PROJ_FLAGS = '0'B THEN CALL ASL$LIST_OUT(ADMIN_FLAGS);

  15109  3 000757   000000 106500                    CMPC    fill='000'O
         3 000760   201276 000020                    ADSC9   PROJ_FLAGS,,AUTO         cn=0,n=16
         3 000761   000002 000002 xsym               ADSC9   B_VECTNIL+2              cn=0,n=2
         3 000762   000772 601000 3                  TNZ     s:15111

  15109  3 000763   201266 630500                    EPPR0   ADMIN_FLAGS,,AUTO
         3 000764   201314 450500                    STP0    ARS+2,,AUTO
         3 000765   201314 630500                    EPPR0   ARS+2,,AUTO
         3 000766   000017 631400 xsym               EPPR1   B_VECTNIL+15
         3 000767   000000 701000 xent               TSX1    ASL$LIST_OUT
         3 000770   000000 011000                    NOP     0
         3 000771   001271 710000 3                  TRA     s:15166

      351    15110    3   ELSE DO;

      352    15111    3      CALL ASB$WRITE_LO( AS_BLANK, 1 );

  15111  3 000772   000011 630400 4                  EPPR0   9
         3 000773   000020 631400 xsym               EPPR1   B_VECTNIL+16
         3 000774   000000 701000 xent               TSX1    ASB$WRITE_LO
         3 000775   000000 011000                    NOP     0

      353    15112    3      CALL ASB$WRITE_LO( AS_BLANK, 1 );

  15112  3 000776   000011 630400 4                  EPPR0   9
         3 000777   000020 631400 xsym               EPPR1   B_VECTNIL+16
PL6.E3A0      #001=ASL$LIST_ALL_PROJECTS File=ASL$LIST_PROJECTS.:E05TSI          TUE 07/29/97 10:19 Page:54
         3 001000   000000 701000 xent               TSX1    ASB$WRITE_LO
         3 001001   000000 011000                    NOP     0

      354    15113    4      IF USERS_KEY.COUNT < 9 THEN DO;

  15113  3 001002   000000 236000 xsym               LDQ     USERS_KEY
         3 001003   777000 376003                    ANQ     -512,DU
         3 001004   011000 116003                    CMPQ    4608,DU
         3 001005   001015 603000 3                  TRC     s:15118

      355    15114    4         OUT_BUF = USERS_KEY.UKEY.ACCT;

  15114  3 001006   040000 100400                    MLR     fill='040'O
         3 001007   000000 200010 xsym               ADSC9   USERS_KEY                cn=1,n=8
         3 001010   000000 000214 xsym               ADSC9   OUT_BUF                  cn=0,n=140

      356    15115    4         I = USERS_KEY.COUNT;

  15115  3 001011   000000 236000 xsym               LDQ     USERS_KEY
         3 001012   000033 772000                    QRL     27
         3 001013   201303 756100                    STQ     I,,AUTO

      357    15116    4         END;

  15116  3 001014   001113 710000 3                  TRA     s:15131

      358    15117    4      ELSE DO;

      359    15118    5         IF NOT JCL THEN DO;

  15118  3 001015   200016 234100                    SZN     JCL,,AUTO
         3 001016   001054 604000 3                  TMI     s:15125

      360    15119    5            CALL INDEX( I, AS_BLANK, USERS_KEY.UKEY.ACCT );

  15119  3 001017   000000 124400                    SCM     mask='000'O
         3 001020   000000 200010 xsym               ADSC9   USERS_KEY                cn=1,n=8
PL6.E3A0      #001=ASL$LIST_ALL_PROJECTS File=ASL$LIST_PROJECTS.:E05TSI          TUE 07/29/97 10:19 Page:55
         3 001021   000000 000001 xsym               ADSC9   AS_BLANK                 cn=0,n=1
         3 001022   201303 000100                    ARG     I,,AUTO

      361    15120    5            CALL CONCAT( OUT_BUF, SUBSTR(USERS_KEY.UKEY.ACCT,0,I), ',',

  15120  3 001023   201303 720100                    LXL0    I,,AUTO
         3 001024   040000 100440                    MLR     fill='040'O
         3 001025   000000 200010 xsym               ADSC9   USERS_KEY                cn=1,n=*X0
         3 001026   000000 000214 xsym               ADSC9   OUT_BUF                  cn=0,n=140
         3 001027   201303 236100                    LDQ     I,,AUTO
         3 001030   000214 116007                    CMPQ    140,DL
         3 001031   001046 603000 3                  TRC     s:15122
         3 001032   777563 621006                    EAX1    -141,QL
         3 001033   777777 661003                    ERX1    -1,DU
         3 001034   040046 100400                    MLR     fill='040'O
         3 001035   000021 000001 4                  ADSC9   17                       cn=0,n=1
         3 001036   000000 000011 xsym               ADSC9   OUT_BUF,Q                cn=0,n=*X1
         3 001037   000213 116007                    CMPQ    139,DL
         3 001040   001046 603000 3                  TRC     s:15122
         3 001041   777564 622006                    EAX2    -140,QL
         3 001042   777777 662003                    ERX2    -1,DU
         3 001043   040046 100400                    MLR     fill='040'O
         3 001044   000002 200014 xsym               ADSC9   USERS_KEY+2              cn=1,n=12
         3 001045   000000 200012 xsym               ADSC9   OUT_BUF,Q                cn=1,n=*X2

      362    15121    5                 USERS_KEY.UKEY.UNAME );
      363    15122    5            I = USERS_KEY.COUNT - ( 8 - I ) + 1;

  15122  3 001046   000000 236000 xsym               LDQ     USERS_KEY
         3 001047   000033 772000                    QRL     27
         3 001050   201303 036100                    ADLQ    I,,AUTO
         3 001051   000007 136007                    SBLQ    7,DL
         3 001052   201303 756100                    STQ     I,,AUTO

      364    15123    5            END;   /*  Not jcl  */

  15123  3 001053   001113 710000 3                  TRA     s:15131
PL6.E3A0      #001=ASL$LIST_ALL_PROJECTS File=ASL$LIST_PROJECTS.:E05TSI          TUE 07/29/97 10:19 Page:56

      365    15124    5         ELSE DO;

      366    15125    5            CALL INDEX( I, AS_BLANK, USERS_KEY.UKEY.ACCT );

  15125  3 001054   000000 124400                    SCM     mask='000'O
         3 001055   000000 200010 xsym               ADSC9   USERS_KEY                cn=1,n=8
         3 001056   000000 000001 xsym               ADSC9   AS_BLANK                 cn=0,n=1
         3 001057   201303 000100                    ARG     I,,AUTO

      367    15126    5            CALL CONCAT( OUT_BUF, 'CREATE PROJECT ',SUBSTR(USERS_KEY.UKEY.ACCT,0,I),
             15126                     ',',

  15126  3 001060   040000 100400                    MLR     fill='040'O
         3 001061   000021 000017 2                  ADSC9   ZERO_FLAGS+11            cn=0,n=15
         3 001062   000000 000017 xsym               ADSC9   OUT_BUF                  cn=0,n=15
         3 001063   201303 720100                    LXL0    I,,AUTO
         3 001064   040000 100440                    MLR     fill='040'O
         3 001065   000000 200010 xsym               ADSC9   USERS_KEY                cn=1,n=*X0
         3 001066   000003 600175 xsym               ADSC9   OUT_BUF+3                cn=3,n=125
         3 001067   201303 236100                    LDQ     I,,AUTO
         3 001070   000175 116007                    CMPQ    125,DL
         3 001071   001106 603000 3                  TRC     s:15128
         3 001072   777602 621006                    EAX1    -126,QL
         3 001073   777777 661003                    ERX1    -1,DU
         3 001074   040046 100400                    MLR     fill='040'O
         3 001075   000021 000001 4                  ADSC9   17                       cn=0,n=1
         3 001076   000003 600011 xsym               ADSC9   OUT_BUF+3,Q              cn=3,n=*X1
         3 001077   000174 116007                    CMPQ    124,DL
         3 001100   001106 603000 3                  TRC     s:15128
         3 001101   777603 622006                    EAX2    -125,QL
         3 001102   777777 662003                    ERX2    -1,DU
         3 001103   040046 100400                    MLR     fill='040'O
         3 001104   000002 200014 xsym               ADSC9   USERS_KEY+2              cn=1,n=12
         3 001105   000004 000012 xsym               ADSC9   OUT_BUF+4,Q              cn=0,n=*X2

      368    15127    5                 USERS_KEY.UKEY.UNAME );
PL6.E3A0      #001=ASL$LIST_ALL_PROJECTS File=ASL$LIST_PROJECTS.:E05TSI          TUE 07/29/97 10:19 Page:57
      369    15128    5            I = USERS_KEY.COUNT - ( 8 - I ) + 16;

  15128  3 001106   000000 236000 xsym               LDQ     USERS_KEY
         3 001107   000033 772000                    QRL     27
         3 001110   201303 036100                    ADLQ    I,,AUTO
         3 001111   000010 036007                    ADLQ    8,DL
         3 001112   201303 756100                    STQ     I,,AUTO

      370    15129    5            END;   /*  Jcl  */

      371    15130    4         END;

      372    15131    3      CALL ASB$WRITE_LO( OUT_BUF, I );

  15131  3 001113   201303 630500                    EPPR0   I,,AUTO
         3 001114   201315 450500                    STP0    ARS+3,,AUTO
         3 001115   000023 236000 4                  LDQ     19
         3 001116   201314 756100                    STQ     ARS+2,,AUTO
         3 001117   201314 630500                    EPPR0   ARS+2,,AUTO
         3 001120   000020 631400 xsym               EPPR1   B_VECTNIL+16
         3 001121   000000 701000 xent               TSX1    ASB$WRITE_LO
         3 001122   000000 011000                    NOP     0

      373    15132    3      IF PROJ_FLAGS(L_ACCTS_VAL)  OR  PROJ_FLAGS(L_MCHARGES_VAL)

  15132  3 001123   201301 236100                    LDQ     PROJ_FLAGS+3,,AUTO
         3 001124   020000 316003                    CANQ    8192,DU
         3 001125   001134 601000 3                  TNZ     s:15134
         3 001126   004000 316003                    CANQ    2048,DU
         3 001127   001134 601000 3                  TNZ     s:15134
         3 001130   002000 316003                    CANQ    1024,DU
         3 001131   001134 601000 3                  TNZ     s:15134
         3 001132   201301 430100                    FSZN    PROJ_FLAGS+3,,AUTO
         3 001133   001142 605000 3                  TPL     s:15135

      374    15133    3           OR  PROJ_FLAGS(L_CHG_ACCUM)  OR  PROJ_FLAGS(L_PROJ_PROJ)
      375    15134    3      THEN CALL ASL$LIST_PROJ_OUT( PROJ_FLAGS );
PL6.E3A0      #001=ASL$LIST_ALL_PROJECTS File=ASL$LIST_PROJECTS.:E05TSI          TUE 07/29/97 10:19 Page:58

  15134  3 001134   201276 630500                    EPPR0   PROJ_FLAGS,,AUTO
         3 001135   201314 450500                    STP0    ARS+2,,AUTO
         3 001136   201314 630500                    EPPR0   ARS+2,,AUTO
         3 001137   000017 631400 xsym               EPPR1   B_VECTNIL+15
         3 001140   000000 701000 xent               TSX1    ASL$LIST_PROJ_OUT
         3 001141   000000 011000                    NOP     0

      376    15135    3      IF PROJ_FLAGS(L_PACKSET_VAL) THEN CALL LIST_PACKSET;

  15135  3 001142   201301 236100                    LDQ     PROJ_FLAGS+3,,AUTO
         3 001143   000040 316003                    CANQ    32,DU
         3 001144   001147 600000 3                  TZE     s:15136

  15135  3 001145   001273 701000 3                  TSX1    LIST_PACKSET
         3 001146   000000 011000                    NOP     0

      377    15136    4      IF PROJ_FLAGS(L_ADMIN_VAL) AND ADMINFLAGS.OPTS ~= '0'B THEN DO;

  15136  3 001147   201301 236100                    LDQ     PROJ_FLAGS+3,,AUTO
         3 001150   000200 316003                    CANQ    128,DU
         3 001151   001215 600000 3                  TZE     s:15149
         3 001152   000000 066500                    CMPB    filb='0'B
         3 001153   201266 050213                    BDSC    ADMIN_FLAGS,,AUTO        by=0,bit=5,n=139
         3 001154   000002 000022 xsym               BDSC    B_VECTNIL+2              by=0,bit=0,n=18
         3 001155   001215 600000 3                  TZE     s:15149

      378    15137    5         IF NOT JCL THEN DO;

  15137  3 001156   200016 234100                    SZN     JCL,,AUTO
         3 001157   001175 604000 3                  TMI     s:15143

      379    15138    5            CALL ASB$WRITE_LO( AS_BLANK, 1 );

  15138  3 001160   000011 630400 4                  EPPR0   9
         3 001161   000020 631400 xsym               EPPR1   B_VECTNIL+16
         3 001162   000000 701000 xent               TSX1    ASB$WRITE_LO
PL6.E3A0      #001=ASL$LIST_ALL_PROJECTS File=ASL$LIST_PROJECTS.:E05TSI          TUE 07/29/97 10:19 Page:59
         3 001163   000000 011000                    NOP     0

      380    15139    5            CALL ASB$WRITE_LO( '        PROJECT ADMINISTRATOR', 29);

  15139  3 001164   000037 630400 4                  EPPR0   31
         3 001165   000020 631400 xsym               EPPR1   B_VECTNIL+16
         3 001166   000000 701000 xent               TSX1    ASB$WRITE_LO
         3 001167   000000 011000                    NOP     0

      381    15140    5            CALL ASB$WRITE_LO( '        ---------------------', 29);

  15140  3 001170   000041 630400 4                  EPPR0   33
         3 001171   000020 631400 xsym               EPPR1   B_VECTNIL+16
         3 001172   000000 701000 xent               TSX1    ASB$WRITE_LO
         3 001173   000000 011000                    NOP     0

      382    15141    5            END;  /*  Not jcl  */

  15141  3 001174   001201 710000 3                  TRA     s:15145

      383    15142    5         ELSE DO;

      384    15143    5            CALL ASB$WRITE_LO ('   ADMIN',8);

  15143  3 001175   000043 630400 4                  EPPR0   35
         3 001176   000020 631400 xsym               EPPR1   B_VECTNIL+16
         3 001177   000000 701000 xent               TSX1    ASB$WRITE_LO
         3 001200   000000 011000                    NOP     0

      385    15144    5            END;  /*  Jcl  */

      386    15145    4         AS_USERS = AS_PROJECT;

  15145  3 001201   000000 100400                    MLR     fill='000'O
         3 001202   000000 004020 xsym               ADSC9   AS_PROJECT               cn=0,n=2064
         3 001203   000000 004020 xsym               ADSC9   AS_USERS                 cn=0,n=2064

PL6.E3A0      #001=ASL$LIST_ALL_PROJECTS File=ASL$LIST_PROJECTS.:E05TSI          TUE 07/29/97 10:19 Page:60
      387    15146    4         KL_DREC = AS_PROJECT_DREC;

  15146  3 001204   000000 100400                    MLR     fill='000'O
         3 001205   000000 001244 xsym               ADSC9   AS_PROJECT_DREC          cn=0,n=676
         3 001206   000000 001244 xsym               ADSC9   KL_DREC                  cn=0,n=676

      388    15147    4         CALL ASL$LIST_OUTPUT( ADMIN_FLAGS );

  15147  3 001207   201266 630500                    EPPR0   ADMIN_FLAGS,,AUTO
         3 001210   201314 450500                    STP0    ARS+2,,AUTO
         3 001211   201314 630500                    EPPR0   ARS+2,,AUTO
         3 001212   000017 631400 xsym               EPPR1   B_VECTNIL+15
         3 001213   000000 701000 xent               TSX1    ASL$LIST_OUTPUT
         3 001214   000000 011000                    NOP     0

      389    15148    4         END;

      390    15149    4      IF PROJ_FLAGS(L_DEFAULT_VAL) AND DEFAULTFLAGS.OPTS ~= '0'B THEN DO;

  15149  3 001215   201301 236100                    LDQ     PROJ_FLAGS+3,,AUTO
         3 001216   000100 316003                    CANQ    64,DU
         3 001217   001271 600000 3                  TZE     s:15166
         3 001220   000000 066500                    CMPB    filb='0'B
         3 001221   201272 050213                    BDSC    DEFAULT_FLAGS,,AUTO      by=0,bit=5,n=139
         3 001222   000002 000022 xsym               BDSC    B_VECTNIL+2              by=0,bit=0,n=18
         3 001223   001271 600000 3                  TZE     s:15166

      391    15150    5         IF NOT JCL THEN DO;

  15150  3 001224   200016 234100                    SZN     JCL,,AUTO
         3 001225   001243 604000 3                  TMI     s:15156

      392    15151    5            CALL ASB$WRITE_LO( AS_BLANK, 1 );

  15151  3 001226   000011 630400 4                  EPPR0   9
         3 001227   000020 631400 xsym               EPPR1   B_VECTNIL+16
         3 001230   000000 701000 xent               TSX1    ASB$WRITE_LO
PL6.E3A0      #001=ASL$LIST_ALL_PROJECTS File=ASL$LIST_PROJECTS.:E05TSI          TUE 07/29/97 10:19 Page:61
         3 001231   000000 011000                    NOP     0

      393    15152    5            CALL ASB$WRITE_LO( '        DEFAULT RECORD FOR PROJECT', 34);

  15152  3 001232   000046 630400 4                  EPPR0   38
         3 001233   000020 631400 xsym               EPPR1   B_VECTNIL+16
         3 001234   000000 701000 xent               TSX1    ASB$WRITE_LO
         3 001235   000000 011000                    NOP     0

      394    15153    5            CALL ASB$WRITE_LO( '        --------------------------',34);

  15153  3 001236   000050 630400 4                  EPPR0   40
         3 001237   000020 631400 xsym               EPPR1   B_VECTNIL+16
         3 001240   000000 701000 xent               TSX1    ASB$WRITE_LO
         3 001241   000000 011000                    NOP     0

      395    15154    5            END;  /*  Not jcl  */

  15154  3 001242   001247 710000 3                  TRA     s:15158

      396    15155    5         ELSE DO;

      397    15156    5            CALL ASB$WRITE_LO ('   DEFAULT',10);

  15156  3 001243   000052 630400 4                  EPPR0   42
         3 001244   000020 631400 xsym               EPPR1   B_VECTNIL+16
         3 001245   000000 701000 xent               TSX1    ASB$WRITE_LO
         3 001246   000000 011000                    NOP     0

      398    15157    5            END;  /*  Jcl  */

      399    15158    4         AS_USERS = AS_PROJECT_DFLT;

  15158  3 001247   000000 100400                    MLR     fill='000'O
         3 001250   000000 004020 xsym               ADSC9   AS_PROJECT_DFLT          cn=0,n=2064
         3 001251   000000 004020 xsym               ADSC9   AS_USERS                 cn=0,n=2064

PL6.E3A0      #001=ASL$LIST_ALL_PROJECTS File=ASL$LIST_PROJECTS.:E05TSI          TUE 07/29/97 10:19 Page:62
      400    15159    4         KL_DREC = AS_PROJECT_DFLT_DREC;

  15159  3 001252   000000 100400                    MLR     fill='000'O
         3 001253   000000 001244 xsym               ADSC9   AS_PROJECT_DFLT_DREC     cn=0,n=676
         3 001254   000000 001244 xsym               ADSC9   KL_DREC                  cn=0,n=676

      401    15160    4         CALL ASL$LIST_OUTPUT( DEFAULT_FLAGS );

  15160  3 001255   201272 630500                    EPPR0   DEFAULT_FLAGS,,AUTO
         3 001256   201314 450500                    STP0    ARS+2,,AUTO
         3 001257   201314 630500                    EPPR0   ARS+2,,AUTO
         3 001260   000017 631400 xsym               EPPR1   B_VECTNIL+15
         3 001261   000000 701000 xent               TSX1    ASL$LIST_OUTPUT
         3 001262   000000 011000                    NOP     0

      402    15161    4         IF JCL THEN

  15161  3 001263   200016 234100                    SZN     JCL,,AUTO
         3 001264   001271 605000 3                  TPL     s:15166

      403    15162    4            CALL ASB$WRITE_LO  ('   END',6);

  15162  3 001265   000054 630400 4                  EPPR0   44
         3 001266   000020 631400 xsym               EPPR1   B_VECTNIL+16
         3 001267   000000 701000 xent               TSX1    ASB$WRITE_LO
         3 001270   000000 011000                    NOP     0

      404    15163    4         END;

      405    15164    3      END;

      406    15165
      407    15166    2   END LIST_THIS_PROJ;

  15166  3 001271   201302 221300                    LDX1  ! PROJ_FLAGS+4,,AUTO
         3 001272   000001 702211                    TSX2  ! 1,X1

PL6.E3A0      #001=ASL$LIST_ALL_PROJECTS File=ASL$LIST_PROJECTS.:E05TSI          TUE 07/29/97 10:19 Page:63
      408    15167
      409    15168        %EJECT;
PL6.E3A0      #001=ASL$LIST_ALL_PROJECTS File=ASL$LIST_PROJECTS.:E05TSI          TUE 07/29/97 10:19 Page:64
      410    15169    1   LIST_PACKSET: PROC;

  15169  3 001273   201304 741300       LIST_PACKSET STX1  ! I+1,,AUTO

      411    15170
      412    15171    2   DCL 1 PACKSET_HDR STATIC,
      413    15172    2          2 * CHAR(0) INIT ('        PACKSET DP#'),
      414    15173    2          2 PACKSET CHAR(6);
      415    15174    2   DCL PROJECT CHAR(20);
      416    15175    2   DCL ARS  SBIN;
      417    15176
      418    15177        %ASB$READ_PROJ_SEQ ;
      419    15180        %ASB$PREC_PROJ ;
      420    15183        %ASL$LIST_PACK_OUT ;
      421    15186
      422    15187
      423    15188    2   PROJECT = SUBSTR( USERS_KEY.TXTC, 0 ,20 );

  15188  3 001274   040100 100400                    MLR     fill='040'O
         3 001275   000000 200024 xsym               ADSC9   USERS_KEY                cn=1,n=20
         3 001276   201305 000024                    ADSC9   PROJECT,,AUTO            cn=0,n=20

      424    15189    2   PROJ_KEY.COUNT = 20;

  15189  3 001277   024000 236003                    LDQ     10240,DU
         3 001300   000000 552040 xsym               STBQ    PROJ_KEY,'40'O

      425    15190    2   PROJ_KEY.TEXT  = PROJECT;

  15190  3 001301   040000 100500                    MLR     fill='040'O
         3 001302   201305 000024                    ADSC9   PROJECT,,AUTO            cn=0,n=20
         3 001303   000000 200032 xsym               ADSC9   PROJ_KEY                 cn=1,n=26

      426    15191    2   CALL ASB$PREC_PROJ;

  15191  3 001304   000002 631400 xsym               EPPR1   B_VECTNIL+2
         3 001305   000000 701000 xent               TSX1    ASB$PREC_PROJ
PL6.E3A0      #001=ASL$LIST_ALL_PROJECTS File=ASL$LIST_PROJECTS.:E05TSI          TUE 07/29/97 10:19 Page:65
         3 001306   000000 011000                    NOP     0

      427    15192    2   ARS = 1500;

  15192  3 001307   002734 235007                    LDA     1500,DL
         3 001310   201312 755100                    STA     ARS,,AUTO

      428    15193    2   CALL ASB$READ_PROJ_SEQ( DSEG2$, ARS ) ALTRET(FINISHED);

  15193  3 001311   201312 630500                    EPPR0   ARS,,AUTO
         3 001312   201315 450500                    STP0    ARS+3,,AUTO
         3 001313   000056 236000 4                  LDQ     46
         3 001314   201314 756100                    STQ     ARS+2,,AUTO
         3 001315   201314 630500                    EPPR0   ARS+2,,AUTO
         3 001316   000020 631400 xsym               EPPR1   B_VECTNIL+16
         3 001317   000000 701000 xent               TSX1    ASB$READ_PROJ_SEQ
         3 001320   001407 702000 3                  TSX2    FINISHED

      429    15194    3   DO WHILE( PROJ_KEY.TXT.PROJECT = PROJECT );

  15194  3 001321   040100 106400                    CMPC    fill='040'O
         3 001322   000000 200024 xsym               ADSC9   PROJ_KEY                 cn=1,n=20
         3 001323   201305 000024                    ADSC9   PROJECT,,AUTO            cn=0,n=20
         3 001324   001407 601000 3                  TNZ     FINISHED

      430    15195    3      PACKSET_HDR.PACKSET = PROJ_KEY.TXT.PACKSET;

  15195  3 001325   040000 100400                    MLR     fill='040'O
         3 001326   000005 200006 xsym               ADSC9   PROJ_KEY+5               cn=1,n=6
         3 001327   000017 600006 1                  ADSC9   PACKSET_HDR+4            cn=3,n=6

      431    15196    4      IF NOT JCL THEN DO;

  15196  3 001330   200016 234100                    SZN     JCL,,AUTO
         3 001331   001343 604000 3                  TMI     s:15201

      432    15197    4         CALL ASB$WRITE_LO( AS_BLANK, 1 );
PL6.E3A0      #001=ASL$LIST_ALL_PROJECTS File=ASL$LIST_PROJECTS.:E05TSI          TUE 07/29/97 10:19 Page:66

  15197  3 001332   000011 630400 4                  EPPR0   9
         3 001333   000020 631400 xsym               EPPR1   B_VECTNIL+16
         3 001334   000000 701000 xent               TSX1    ASB$WRITE_LO
         3 001335   000000 011000                    NOP     0

      433    15198    4         CALL ASB$WRITE_LO( PACKSET_HDR, LENGTHC(PACKSET_HDR) );

  15198  3 001336   000060 630400 4                  EPPR0   48
         3 001337   000020 631400 xsym               EPPR1   B_VECTNIL+16
         3 001340   000000 701000 xent               TSX1    ASB$WRITE_LO
         3 001341   000000 011000                    NOP     0

      434    15199    4         END;  /*  Not jcl  */

  15199  3 001342   001355 710000 3                  TRA     s:15204

      435    15200    4      ELSE DO;

      436    15201    4         CALL CONCAT (OUT_BUF, '   PACKSET = DP#',PACKSET_HDR.PACKSET);

  15201  3 001343   040000 100400                    MLR     fill='040'O
         3 001344   000076 000020 2                  ADSC9   ZERO_FLAGS+56            cn=0,n=16
         3 001345   000000 000020 xsym               ADSC9   OUT_BUF                  cn=0,n=16
         3 001346   040000 100400                    MLR     fill='040'O
         3 001347   000017 600006 1                  ADSC9   PACKSET_HDR+4            cn=3,n=6
         3 001350   000004 000174 xsym               ADSC9   OUT_BUF+4                cn=0,n=124

      437    15202    4         CALL ASB$WRITE_LO (OUT_BUF, 22);

  15202  3 001351   000063 630400 4                  EPPR0   51
         3 001352   000020 631400 xsym               EPPR1   B_VECTNIL+16
         3 001353   000000 701000 xent               TSX1    ASB$WRITE_LO
         3 001354   000000 011000                    NOP     0

      438    15203    4         END;  /*  Jcl  */

PL6.E3A0      #001=ASL$LIST_ALL_PROJECTS File=ASL$LIST_PROJECTS.:E05TSI          TUE 07/29/97 10:19 Page:67
      439    15204    3      CALL ASL$LIST_PACK_OUT( PROJ_FLAGS );

  15204  3 001355   201276 630500                    EPPR0   PROJ_FLAGS,,AUTO
         3 001356   201314 450500                    STP0    ARS+2,,AUTO
         3 001357   201314 630500                    EPPR0   ARS+2,,AUTO
         3 001360   000017 631400 xsym               EPPR1   B_VECTNIL+15
         3 001361   000000 701000 xent               TSX1    ASL$LIST_PACK_OUT
         3 001362   000000 011000                    NOP     0

      440    15205    3      IF JCL THEN

  15205  3 001363   200016 234100                    SZN     JCL,,AUTO
         3 001364   001371 605000 3                  TPL     s:15207

      441    15206    3         CALL ASB$WRITE_LO ('   END',6);

  15206  3 001365   000054 630400 4                  EPPR0   44
         3 001366   000020 631400 xsym               EPPR1   B_VECTNIL+16
         3 001367   000000 701000 xent               TSX1    ASB$WRITE_LO
         3 001370   000000 011000                    NOP     0

      442    15207    3      ARS = 1500;

  15207  3 001371   002734 235007                    LDA     1500,DL
         3 001372   201312 755100                    STA     ARS,,AUTO

      443    15208    3      CALL ASB$READ_PROJ_SEQ( DSEG2$, ARS ) ALTRET(FINISHED);

  15208  3 001373   201312 630500                    EPPR0   ARS,,AUTO
         3 001374   201315 450500                    STP0    ARS+3,,AUTO
         3 001375   000056 236000 4                  LDQ     46
         3 001376   201314 756100                    STQ     ARS+2,,AUTO
         3 001377   201314 630500                    EPPR0   ARS+2,,AUTO
         3 001400   000020 631400 xsym               EPPR1   B_VECTNIL+16
         3 001401   000000 701000 xent               TSX1    ASB$READ_PROJ_SEQ
         3 001402   001407 702000 3                  TSX2    FINISHED

PL6.E3A0      #001=ASL$LIST_ALL_PROJECTS File=ASL$LIST_PROJECTS.:E05TSI          TUE 07/29/97 10:19 Page:68
      444    15209    3      END;

  15209  3 001403   040100 106400                    CMPC    fill='040'O
         3 001404   000000 200024 xsym               ADSC9   PROJ_KEY                 cn=1,n=20
         3 001405   201305 000024                    ADSC9   PROJECT,,AUTO            cn=0,n=20
         3 001406   001325 600000 3                  TZE     s:15195

      445    15210    2   FINISHED:
      446    15211    2   RETURN;

  15211  3 001407   201304 221300       FINISHED     LDX1  ! I+1,,AUTO
         3 001410   000001 702211                    TSX2  ! 1,X1
      447    15212
      448    15213    2   END LIST_PACKSET;
      449    15214
      450    15215    1   END ASL$LIST_ALL_PROJECTS;
      451    15216        %EOD;

PL6.E3A0      #001=ASL$LIST_ALL_PROJECTS File=ASL$LIST_PROJECTS.:E05TSI          TUE 07/29/97 10:19 Page:69
--  Include file information  --

   AS_SUPER_R.:E05TOU  cannot be made into a system file and is referenced.
   XU_FORMAT_C.:E05TOU  is referenced.
   XU_MACRO_C.:E05TOU  is referenced.
   KL_SUPER_C.:E05TOU  is referenced.
   CP_6_SUBS.:E05TOU  is referenced.
   B_ERRORS_C.:E05TOU  is referenced.
   AS_SSUBS_C.:E05TOU  is referenced.
   OCI_SUBS_C.:E05TOU  is referenced.
   AS_ENTRIES_M.:E05TOU  is referenced.
   AS_MAC_C.:E05TOU  cannot be made into a system file and is referenced.
   AS_SUBS_C.:E05TOU  is referenced.
   AS_SUPER_C.:E05TOU  is referenced.
   AS_PERR_C.:E05TOU  is referenced.
   B$JIT_C.:E05TOU  was found in the system file and is never referenced.
   CP_6_C.:E05TOU  was found in the system file and is never referenced.
      No diagnostics issued in procedure ASL$LIST_ALL_PROJECTS.
PL6.E3A0      #001=ASL$LIST_ALL_PROJECTS File=ASL$LIST_PROJECTS.:E05TSI          TUE 07/29/97 10:19 Page:70

 **** Variables and constants ****

  ****  Section 001  Data  ASL$LIST_ALL_PROJECTS

  ****  Scalars and arrays  ****
OctLoc.c.b A Datatyp(siz) R M Lvl/name                 OctLoc.c.b A Datatyp(siz) R M Lvl/name

     0-0-0/c STRC(378)   r     1 CURRENT_PROJ_KEY          13-0-0/c STRC(225)   r     1 PACKSET_HDR

  ****  Section 002 RoData ASL$LIST_ALL_PROJECTS

  ****  Scalars and arrays  ****
OctLoc.c.b A Datatyp(siz) R M Lvl/name                 OctLoc.c.b A Datatyp(siz) R M Lvl/name

     0-0-0/c CHAR(7)     r     1 MAKEME_STR                 2-0-0/c CHAR(8)     r     1 PROJECTS_STR
     4-0-0/c CHAR(5)     r     1 RESET_STR
     6-0-0/b BIT         r     1 ZERO_FLAGS(0:143)

  ****  Auto variables  ****

  ****  Scalars and arrays  ****
OctLoc.c.b A Datatyp(siz) R M Lvl/name                 OctLoc.c.b A Datatyp(siz) R M Lvl/name

  1266-0-0/b STRC(144)   r     1 ADMINBITS               1266-0-0/b STRC(144)   r     1 ADMINFLAGS
  1266-0-0/b BIT         r     1 ADMIN_FLAGS(0:143)
  1312-0-0/w SBIN        r     1 ARS                        3-0-0/w UBIN        r     1 CODE2
     4-0-0/w UBIN        r     1 COUNT                      5-0-0/c STRC(189)   r     1 CURRENT_PROJ
  1272-0-0/b STRC(144)   r     1 DEFAULTBITS             1272-0-0/b STRC(144)   r     1 DEFAULTFLAGS
  1272-0-0/b BIT         r     1 DEFAULT_FLAGS(0:143)
    13-0-0/b BIT         r     1 DISP                      14-0-0/w UBIN        r     1 I
  1303-0-0/w UBIN        r     1 I                         15-0-0/w SBIN        r     1 INDX
    16-0-0/b BIT         r     1 JCL                       17-0-0/c CHAR(21)    r     1 MACCT
  1276-0-0/b STRC(144)   r     1 PROJ                    1305-0-0/c CHAR(20)    r     1 PROJECT
  1276-0-0/b BIT         r     1 PROJ_FLAGS(0:143)
    25-0-0/c STRC(378)   r     1 SAVE(0:63)

  ****  SYMREF variables  ****
PL6.E3A0      #001=ASL$LIST_ALL_PROJECTS File=ASL$LIST_PROJECTS.:E05TSI          TUE 07/29/97 10:19 Page:71

  ****  Scalars and arrays  ****
OctLoc.c.b A Datatyp(siz) R M Lvl/name                 OctLoc.c.b A Datatyp(siz) R M Lvl/name

     0-0-0/c CHAR        r     1 AS_BLANK                   0-0-0/w STRC(369)   r     1 AS_FIELD1
     0-0-0/c STRC(189)   r     1 AS_NONE                    0-0-0/w STRC(18576) r     1 AS_PROJECT
     0-0-0/w STRC(18576) r     1 AS_PROJECT_DFLT            0-0-0/w STRC(6084)  r     1 AS_PROJECT_DFLT_DREC
     0-0-0/w PTR         r     1 AS_PROJECT_DFLT_DREC$
     0-0-0/w STRC(6084)  r     1 AS_PROJECT_DREC            0-0-0/w PTR         r     1 AS_PROJECT_DREC$
     0-0-0/w STRC(18576) r     1 AS_USERS                   0-0-0/b BIT         r     1 AS_WILD_USER
     0-0-0/w UBIN        r     1 CODE                       0-0-0/w PTR         r     1 DSEG2$
     0-0-0/w STRC(1080)  r     1 FDS                        0-0-0/c CHAR(255)   r     1 FMT_BUF
     0-0-0/w STRC(6084)  r     1 KL_DREC                    0-0-0/b BIT         r     1 LIST_ACCT_FLG
     0-0-0/w PTR         r     1 NODE$                      0-0-0/c CHAR(140)   r     1 OUT_BUF
     0-0-0/c STRC(243)   r     1 PROJ_KEY                   0-0-0/w STRC(504)   r     1 P_PCB
     0-0-0/c STRC(378)   r     1 USERS_KEY

  ****  BASED and DCB variables  ****

  ****  Scalars and arrays  ****
OctLoc.c.b A Datatyp(siz) R M Lvl/name                 OctLoc.c.b A Datatyp(siz) R M Lvl/name

     0-0-0/w STRC(144)   r     1 P$B


   Procedure ASL$LIST_ALL_PROJECTS requires 777 words for executable code.
   Procedure ASL$LIST_ALL_PROJECTS requires 720 words of local(AUTO) storage.
PL6.E3A0      #001=ASL$LIST_ALL_PROJECTS File=ASL$LIST_PROJECTS.:E05TSI          TUE 07/29/97 10:19 Page:72
          *** CROSS REFERENCE LISTING ***
**     DENOTES     IDENTIFIER DEFINITION
<<                 IDENTIFIER'S VALUE SET
>>                 IDENTIFIER'S VALUE USED
<>                 IDENTIFIER SET AND/OR USED
--                 IDENTIFIER REFERENCED
PL6.E3A0      #001=ASL$LIST_ALL_PROJECTS File=ASL$LIST_PROJECTS.:E05TSI          TUE 07/29/97 10:19 Page:73
          MINI XREF LISTING

ADMINBITS.FE_MODE
     14775**DCL     14887<<ASSIGN  14887>>ASSIGN
ADMINBITS.USER
     14774**DCL     14886<<ASSIGN  14886>>ASSIGN
ADMINFLAGS.OPTS
     14772**DCL     15136>>IF
ADMIN_FLAGS
     14769**DCL     14770--REDEF   14773--REDEF   14891<<ASSIGN  14896<>CALL    14898<<ASSIGN  14904<<ASSIGN
     15109<>CALL    15147<>CALL
ARS IN PROCEDURE LIST_PACKSET
     15175**DCL     15192<<ASSIGN  15193<>CALL    15207<<ASSIGN  15208<>CALL
ASA_BRKS_LOC
     11803**DCL     11803--REDEF
ASB$BINCHAR
      2560**DCL-ENT 15031--CALL
ASB$GET
     14662**DCL-ENT 14911--CALL    14961--CALL
ASB$KEYMAKER
     14659**DCL-ENT 14882--CALL
ASB$PREC_AND_SKIP_USERS
     14674**DCL-ENT 14985--CALL
ASB$PREC_PROJ IN PROCEDURE LIST_PACKSET
     15181**DCL-ENT 15191--CALL
ASB$PREC_USERS
     14671**DCL-ENT 14935--CALL    14968--CALL
ASB$READ_PROJ_SEQ IN PROCEDURE LIST_PACKSET
     15178**DCL-ENT 15193--CALL    15208--CALL
ASB$WRITE_LO
     14677**DCL-ENT 14907--CALL    14919--CALL    14924--CALL    14952--CALL    14989--CALL    14998--CALL
     15111--CALL    15112--CALL    15131--CALL    15138--CALL    15139--CALL    15140--CALL    15143--CALL
     15151--CALL    15152--CALL    15153--CALL    15156--CALL    15162--CALL    15197--CALL    15198--CALL
     15202--CALL    15206--CALL
PL6.E3A0      #001=ASL$LIST_ALL_PROJECTS File=ASL$LIST_PROJECTS.:E05TSI          TUE 07/29/97 10:19 Page:74
ASH$INFO
     14680**DCL-ENT 15014--CALL    15065--CALL    15085--CALL
ASL$LIST_OUT
     14683**DCL-ENT 15109--CALL
ASL$LIST_OUTPUT IN PROCEDURE LIST_THIS_PROJ
     15102**DCL-ENT 15147--CALL    15160--CALL
ASL$LIST_PACK_OUT IN PROCEDURE LIST_PACKSET
     15184**DCL-ENT 15204--CALL
ASL$LIST_PROJ_OPTS
     14686**DCL-ENT 14896--CALL
ASL$LIST_PROJ_OUT IN PROCEDURE LIST_THIS_PROJ
     15105**DCL-ENT 15134--CALL
AS_BLANK
     11663**DCL     14907<>CALL    14914>>ASSIGN  14947>>ASSIGN  14998<>CALL    15111<>CALL    15112<>CALL
     15119>>CALLBLT 15125>>CALLBLT 15138<>CALL    15151<>CALL    15197<>CALL
AS_DEFAULT.BANNER_PERM
     12496**DCL     12497--REDEF
AS_DEFAULT.BUDGET.MACCT
     12401**DCL     12405--REDEF
AS_DEFAULT.BUDGET.MAX_PROJECTS
     12414**DCL     12417--REDEF
AS_DEFAULT.BUDGET.PACCUM
     12397**DCL     12399--REDEF
AS_DEFAULT.BUDGET.PMAXC
     12392**DCL     12394--REDEF
AS_DEFAULT.SETUP_CHRA.TXT
     12512**DCL     12513--REDEF   12514--REDEF
AS_DEFAULT_DREC.PASSWORD
     13766**DCL     13770--REDEF
AS_DEFAULT_DREC.RENAME
     13789**DCL     13790--REDEF
AS_DFLT.BANNER_PERM
     12318**DCL     12319--REDEF
AS_DFLT.BUDGET.MACCT
     12223**DCL     12227--REDEF
AS_DFLT.BUDGET.MAX_PROJECTS
PL6.E3A0      #001=ASL$LIST_ALL_PROJECTS File=ASL$LIST_PROJECTS.:E05TSI          TUE 07/29/97 10:19 Page:75
     12236**DCL     12239--REDEF
AS_DFLT.BUDGET.PACCUM
     12219**DCL     12221--REDEF
AS_DFLT.BUDGET.PMAXC
     12214**DCL     12216--REDEF
AS_DFLT.SETUP_CHRA.TXT
     12334**DCL     12335--REDEF   12336--REDEF
AS_FE_MODE
     11669**DCL     11670--REDEF
AS_FIELD1.TEXT
     11800**DCL     15031<>CALL
AS_MODE
     11666**DCL     11668--REDEF
AS_MOD_USER.ACCESS
     14531**DCL     14532--REDEF
AS_MOD_USER.BANNER
     14518**DCL     14519--REDEF
AS_MOD_USER.BANNER_PERM
     14520**DCL     14521--REDEF
AS_MOD_USER.BILL
     14526**DCL     14527--REDEF
AS_MOD_USER.CPROC
     14522**DCL     14523--REDEF
AS_MOD_USER.FEBILL
     14602**DCL     14603--REDEF
AS_MOD_USER.FECXTMEM
     14619**DCL     14620--REDEF
AS_MOD_USER.FEMINTS
     14604**DCL     14605--REDEF
AS_MOD_USER.FEMMEM
     14615**DCL     14616--REDEF
AS_MOD_USER.FEMTIME
     14613**DCL     14614--REDEF
AS_MOD_USER.FEPPRIV
     14610**DCL     14612--REDEF
AS_MOD_USER.FEPRIV
PL6.E3A0      #001=ASL$LIST_ALL_PROJECTS File=ASL$LIST_PROJECTS.:E05TSI          TUE 07/29/97 10:19 Page:76
     14607**DCL     14609--REDEF
AS_MOD_USER.FORCE_BIT
     14516**DCL     14517--REDEF
AS_MOD_USER.KEY
     14598**DCL     14600--REDEF
AS_MOD_USER.LASTCPROC
     14524**DCL     14525--REDEF
AS_MOD_USER.LIMITS.DO_
     14572**DCL     14573--REDEF
AS_MOD_USER.LIMITS.FPOOLS
     14588**DCL     14589--REDEF
AS_MOD_USER.LIMITS.LO
     14568**DCL     14569--REDEF
AS_MOD_USER.LIMITS.MEM
     14564**DCL     14565--REDEF
AS_MOD_USER.LIMITS.MPRIO
     14592**DCL     14593--REDEF
AS_MOD_USER.LIMITS.PDIS
     14580**DCL     14581--REDEF
AS_MOD_USER.LIMITS.PO
     14576**DCL     14577--REDEF
AS_MOD_USER.LIMITS.TDIS
     14584**DCL     14585--REDEF
AS_MOD_USER.LIMITS.TIME
     14560**DCL     14561--REDEF
AS_MOD_USER.MAXENQ
     14541**DCL     14542--REDEF
AS_MOD_USER.PERM_BIT
     14514**DCL     14515--REDEF
AS_MOD_USER.PPRIV
     14536**DCL     14538--REDEF
AS_MOD_USER.PRIOB
     14543**DCL     14544--REDEF
AS_MOD_USER.PRIV
     14533**DCL     14535--REDEF
AS_MOD_USER.QUAN
PL6.E3A0      #001=ASL$LIST_ALL_PROJECTS File=ASL$LIST_PROJECTS.:E05TSI          TUE 07/29/97 10:19 Page:77
     14539**DCL     14540--REDEF
AS_MOD_USER.SETUP
     14512**DCL     14513--REDEF
AS_NONE
     11664**DCL     14931>>ASSIGN  14946>>IF      14978>>ASSIGN
AS_NONE.TEXT
     11664**DCL     14933>>ASSIGN  14933--ASSIGN  14977>>IF
AS_PROJECT
     12737**DCL     14911<>CALL    14961<>CALL    15145>>ASSIGN
AS_PROJECT.BANNER_PERM
     12852**DCL     12853--REDEF
AS_PROJECT.BUDGET.MACCT
     12757**DCL     12761--REDEF
AS_PROJECT.BUDGET.MAX_PROJECTS
     12770**DCL     12773--REDEF
AS_PROJECT.BUDGET.PACCUM
     12753**DCL     12755--REDEF
AS_PROJECT.BUDGET.PMAXC
     12748**DCL     12750--REDEF
AS_PROJECT.SETUP_CHRA.TXT
     12868**DCL     12869--REDEF   12870--REDEF
AS_PROJECT_DFLT
     12915**DCL     14911<>CALL    14961<>CALL    15158>>ASSIGN
AS_PROJECT_DFLT.BANNER_PERM
     13030**DCL     13031--REDEF
AS_PROJECT_DFLT.BUDGET.MACCT
     12935**DCL     12939--REDEF
AS_PROJECT_DFLT.BUDGET.MAX_PROJECTS
     12948**DCL     12951--REDEF
AS_PROJECT_DFLT.BUDGET.PACCUM
     12931**DCL     12933--REDEF
AS_PROJECT_DFLT.BUDGET.PMAXC
     12926**DCL     12928--REDEF
AS_PROJECT_DFLT.SETUP_CHRA.TXT
     13046**DCL     13047--REDEF   13048--REDEF
AS_PROJECT_DFLT_DREC
PL6.E3A0      #001=ASL$LIST_ALL_PROJECTS File=ASL$LIST_PROJECTS.:E05TSI          TUE 07/29/97 10:19 Page:78
     14194**DCL     15159>>ASSIGN
AS_PROJECT_DFLT_DREC.PASSWORD
     14252**DCL     14256--REDEF
AS_PROJECT_DFLT_DREC.RENAME
     14275**DCL     14276--REDEF
AS_PROJECT_DFLT_DREC$
     11673**DCL     14911<>CALL    14961<>CALL
AS_PROJECT_DREC
     14032**DCL     15146>>ASSIGN
AS_PROJECT_DREC.PASSWORD
     14090**DCL     14094--REDEF
AS_PROJECT_DREC.RENAME
     14113**DCL     14114--REDEF
AS_PROJECT_DREC$
     11672**DCL     14911<>CALL    14961<>CALL
AS_PROJ_ADMIN.BANNER_PERM
     12674**DCL     12675--REDEF
AS_PROJ_ADMIN.BUDGET.MACCT
     12579**DCL     12583--REDEF
AS_PROJ_ADMIN.BUDGET.MAX_PROJECTS
     12592**DCL     12595--REDEF
AS_PROJ_ADMIN.BUDGET.PACCUM
     12575**DCL     12577--REDEF
AS_PROJ_ADMIN.BUDGET.PMAXC
     12570**DCL     12572--REDEF
AS_PROJ_ADMIN.SETUP_CHRA.TXT
     12690**DCL     12691--REDEF   12692--REDEF
AS_PROJ_ADMIN_DREC.PASSWORD
     13928**DCL     13932--REDEF
AS_PROJ_ADMIN_DREC.RENAME
     13951**DCL     13952--REDEF
AS_USERS
     12025**DCL     15145<<ASSIGN  15158<<ASSIGN
AS_USERS.BANNER_PERM
     12140**DCL     12141--REDEF
AS_USERS.BUDGET.MACCT
PL6.E3A0      #001=ASL$LIST_ALL_PROJECTS File=ASL$LIST_PROJECTS.:E05TSI          TUE 07/29/97 10:19 Page:79
     12045**DCL     12049--REDEF
AS_USERS.BUDGET.MACCT.ACCT
     12047**DCL     14915>>CALLBLT 14916>>CALLBLT
AS_USERS.BUDGET.MACCT.NAME
     12048**DCL     14916>>CALLBLT
AS_USERS.BUDGET.MACCT_.TEXT
     12051**DCL     14913>>IF      14922>>IF
AS_USERS.BUDGET.MAX_PROJECTS
     12058**DCL     12061--REDEF
AS_USERS.BUDGET.PACCUM
     12041**DCL     12043--REDEF
AS_USERS.BUDGET.PMAXC
     12036**DCL     12038--REDEF
AS_USERS.SETUP_CHRA.TXT
     12156**DCL     12157--REDEF   12158--REDEF
AS_USERS_CONSTANT.BANNER_PERM
     13208**DCL     13209--REDEF
AS_USERS_CONSTANT.BUDGET.MACCT
     13113**DCL     13117--REDEF
AS_USERS_CONSTANT.BUDGET.MAX_PROJECTS
     13126**DCL     13129--REDEF
AS_USERS_CONSTANT.BUDGET.PACCUM
     13109**DCL     13111--REDEF
AS_USERS_CONSTANT.BUDGET.PMAXC
     13104**DCL     13106--REDEF
AS_USERS_CONSTANT.SETUP_CHRA.TXT
     13224**DCL     13225--REDEF   13226--REDEF
AS_WILD_USER
     11808**DCL     14909>>IF
CODE
     11796**DCL     14802<<ASSIGN  14804>>DOSELCT
CODE2
     14741**DCL     14842<<ASSIGN  14844>>DOSELCT
COUNT
     14742**DCL     14926<<ASSIGN  14929<<ASSIGN  14969<<ASSIGN  14969>>ASSIGN  15002>>IF      15031<>CALL
CURRENT_PROJ
PL6.E3A0      #001=ASL$LIST_ALL_PROJECTS File=ASL$LIST_PROJECTS.:E05TSI          TUE 07/29/97 10:19 Page:80
     14743**DCL     14931<<ASSIGN  14946>>IF      14957>>ASSIGN  14978<<ASSIGN
CURRENT_PROJ.CNT
     14744**DCL     14955<<ASSIGN  14956>>ASSIGN  14965>>ASSIGN  14981<<ASSIGN  14982>>ASSIGN
CURRENT_PROJ.TXT
     14745**DCL     14942>>IF      14956<<ASSIGN  14966>>ASSIGN  14982<<ASSIGN
CURRENT_PROJ_KEY
     14746**DCL     14934>>ASSIGN  14967>>ASSIGN
CURRENT_PROJ_KEY.CNT
     14747**DCL     14932<<ASSIGN  14965<<ASSIGN
CURRENT_PROJ_KEY.TXT
     14749**DCL     14933<<ASSIGN  14966<<ASSIGN
DEFAULTBITS.FE_MODE
     14783**DCL     14889<<ASSIGN  14889>>ASSIGN
DEFAULTBITS.USER
     14782**DCL     14888<<ASSIGN  14888>>ASSIGN
DEFAULTFLAGS.OPTS
     14780**DCL     15149>>IF
DEFAULT_FLAGS
     14777**DCL     14778--REDEF   14781--REDEF   14890<<ASSIGN  14892<<ASSIGN  14896<>CALL    14899<<ASSIGN
     14905<<ASSIGN  15160<>CALL
DEPTH_LOOP
     14940**LABEL   14972--EXIT
DISP
     14750**DCL     14808<<ASSIGN  14817<<ASSIGN  14831<<ASSIGN  14840<<ASSIGN  14883>>IF      15053>>IF
DSEG2$
     11805**DCL     15193<>CALL    15208<>CALL
ERR_CODE
     11798**DCL     11799--REDEF
FDS
     11695**DCL     14881<>CALL    14997<>CALL
FDS.FMT_.BOUND
     11700**DCL     14874<<ASSIGN  14878<<ASSIGN
FDS.NVECS#
     11723**DCL     14871<<ASSIGN  14908<<ASSIGN  14995>>IF
FDS.TABDFLT#
     11761**DCL     14880<<ASSIGN
PL6.E3A0      #001=ASL$LIST_ALL_PROJECTS File=ASL$LIST_PROJECTS.:E05TSI          TUE 07/29/97 10:19 Page:81
FINISHED IN PROCEDURE LIST_PACKSET
     15211**LABEL   15193--CALLALT 15208--CALLALT
FMT_BUF
     11794**DCL     14873<<CALLBLT 14877<<CALLBLT
I
     14751**DCL     14841<<DOINDEX 14842>>ASSIGN  14915<<CALLBLT 14916>>CALLBLT 14948<<CALLBLT 14949>>CALLBLT
     14980<<CALLBLT 14981>>ASSIGN
I IN PROCEDURE LIST_THIS_PROJ
     15107**DCL     15115<<ASSIGN  15119<<CALLBLT 15120>>CALLBLT 15122<<ASSIGN  15122>>ASSIGN  15125<<CALLBLT
     15126>>CALLBLT 15128<<ASSIGN  15128>>ASSIGN  15131<>CALL
INDX
     14752**DCL     14930<<ASSIGN  14943>>ASSIGN  14944<<ASSIGN  14944>>ASSIGN  14974<<ASSIGN  14974>>ASSIGN
     14975>>IF      14977>>IF      14980>>CALLBLT 14982>>ASSIGN  14984>>ASSIGN  14987>>IF
JCL
     14753**DCL     14803<<ASSIGN  14809<<ASSIGN  14822<<ASSIGN  14825<<ASSIGN  14832<<ASSIGN  14848<<ASSIGN
     14872>>IF      14884>>IF      14913>>IF      14922>>IF      14945>>IF      14958>>IF      14986>>IF
     15001>>IF      15118>>IF      15137>>IF      15150>>IF      15161>>IF      15196>>IF      15205>>IF
JUSTRET
     15073**LABEL   14882--CALLALT 14911--CALLALT
KL_DEFAULT.PASSWORD
     14414**DCL     14418--REDEF
KL_DEFAULT.RENAME
     14437**DCL     14438--REDEF
KL_DFLT.PASSWORD
     13604**DCL     13608--REDEF
KL_DFLT.RENAME
     13627**DCL     13628--REDEF
KL_DREC
     13384**DCL     15146<<ASSIGN  15159<<ASSIGN
KL_DREC.PASSWORD
     13442**DCL     13446--REDEF
KL_DREC.RENAME
     13465**DCL     13466--REDEF
KL_DREC_CNT.PASSWORD
     13329**DCL     13333--REDEF
KL_DREC_CNT.RENAME
PL6.E3A0      #001=ASL$LIST_ALL_PROJECTS File=ASL$LIST_PROJECTS.:E05TSI          TUE 07/29/97 10:19 Page:82
     13352**DCL     13353--REDEF
KL_UBWORD.NUM
     14761**DCL     14762--REDEF
LIST_ACCT_FLG
     11796**DCL     14999<<ASSIGN
LIST_PACKSET
     15169**PROC    15135--CALL
LIST_THIS_PROJ
     15099**PROC    14921--CALL    14963--CALL
MACCT
     14754**DCL     14914<<ASSIGN  14916<<CALLBLT 14918>>CALLBLT 14919--CALL    14947<<ASSIGN  14949<<CALLBLT
     14951>>CALLBLT 14952--CALL
MAKEME_STR
     14793**DCL     14918>>CALLBLT 14919--CALL    14923>>CALLBLT 14924--CALL    14951>>CALLBLT 14952--CALL
     14988>>CALLBLT 14989--CALL
NODE$
     11796**DCL     14699--IMP-PTR 14811<<ASSIGN  14813<<ASSIGN  14818<<ASSIGN  14820<<ASSIGN  14834<<ASSIGN
     14836<<ASSIGN  14855<<ASSIGN  14857<<ASSIGN  14858>>IF      14860>>IF      14861<<ASSIGN  14863>>IF
     14865>>IF      14866>>ASSIGN  14882>>CALL
OUT_BUF
     11795**DCL     14918<<CALLBLT 14919<>CALL    14923<<CALLBLT 14924<>CALL    14951<<CALLBLT 14952<>CALL
     14988<<CALLBLT 14989<>CALL    15114<<ASSIGN  15120<<CALLBLT 15126<<CALLBLT 15131<>CALL    15201<<CALLBLT
     15202<>CALL
P$B
     14699**DCL     14882<>CALL
P$B.CODE
     14707**DCL     14802>>ASSIGN  14821>>IF      14824>>IF      14842>>ASSIGN  14860>>IF      14865>>IF
P$B.NSUBLKS
     14711**DCL     14810>>IF      14819>>IF      14823>>IF      14833>>IF      14841>>DOINDEX 14854>>IF
     14858>>IF      14863>>IF      14866<<ASSIGN
P$B.SUBLK$
     14732**DCL     14802>>ASSIGN  14810>>IF      14811>>ASSIGN  14813>>ASSIGN  14813>>ASSIGN  14818>>ASSIGN
     14819>>IF      14820>>ASSIGN  14820>>ASSIGN  14821>>IF      14821>>IF      14823>>IF      14824>>IF
     14824>>IF      14834>>ASSIGN  14836>>ASSIGN  14842>>ASSIGN  14855>>ASSIGN  14857>>ASSIGN  14860>>IF
     14861>>ASSIGN  14865>>IF
PACKSET_HDR IN PROCEDURE LIST_PACKSET
PL6.E3A0      #001=ASL$LIST_ALL_PROJECTS File=ASL$LIST_PROJECTS.:E05TSI          TUE 07/29/97 10:19 Page:83
     15171**DCL     15198<>CALL    15198--CALL
PACKSET_HDR.PACKSET IN PROCEDURE LIST_PACKSET
     15173**DCL     15195<<ASSIGN  15201>>CALLBLT
PROJ.FLAGS
     14789**DCL     14885<<ASSIGN
PROJECT IN PROCEDURE LIST_PACKSET
     15174**DCL     15188<<ASSIGN  15190>>ASSIGN  15194>>DOWHILE
PROJECTS_STR
     14794**DCL     14873>>CALLBLT 14874--ASSIGN  14877>>CALLBLT 14878--ASSIGN
PROJ_FLAGS
     14785**DCL     14786--REDEF   14893<<ASSIGN  14896<>CALL    14897<<ASSIGN  14903<<ASSIGN  14995>>IF
     15109>>IF      15132>>IF      15132>>IF      15132>>IF      15132>>IF      15134<>CALL    15135>>IF
     15136>>IF      15149>>IF      15204<>CALL
PROJ_KEY.COUNT
     11676**DCL     15189<<ASSIGN
PROJ_KEY.TEXT
     11676**DCL     11676--REDEF   15190<<ASSIGN
PROJ_KEY.TXT.PACKSET
     11677**DCL     15195>>ASSIGN
PROJ_KEY.TXT.PROJECT
     11676**DCL     11676--REDEF   15194>>DOWHILE
P_PCB.OUT$
     11844**DCL     14802>>ASSIGN  14810>>IF      14811>>ASSIGN  14813>>ASSIGN  14818>>ASSIGN  14819>>IF
     14820>>ASSIGN  14821>>IF      14823>>IF      14824>>IF      14833>>IF      14834>>ASSIGN  14836>>ASSIGN
     14841>>DOINDEX 14842>>ASSIGN  14854>>IF      14855>>ASSIGN  14857>>ASSIGN  14861>>ASSIGN
REMEM_VAR
     11802**DCL     11802--REDEF
REM_FCMD
     11802**DCL     11803--REDEF
RESET_STR
     14795**DCL     14923>>CALLBLT 14924--CALL    14988>>CALLBLT 14989--CALL
SAVE
     14755**DCL     14943<<ASSIGN  14984>>ASSIGN
SAVE.TXT
     14757**DCL     14977>>IF      14980>>CALLBLT 14982>>ASSIGN
SKIP_THIS_ONE
PL6.E3A0      #001=ASL$LIST_ALL_PROJECTS File=ASL$LIST_PROJECTS.:E05TSI          TUE 07/29/97 10:19 Page:84
     14965**LABEL   14960--GOTO    14961--CALLALT
USERS_KEY
     11673**DCL     14882<>CALL    14934<<ASSIGN  14943>>ASSIGN  14957<<ASSIGN  14967<<ASSIGN  14984<<ASSIGN
USERS_KEY.COUNT
     11673**DCL     14955>>ASSIGN  14959>>IF      15113>>IF      15115>>ASSIGN  15122>>ASSIGN  15128>>ASSIGN
USERS_KEY.TEXT
     11673**DCL     11674--REDEF   11674--REDEF   11674--REDEF   11675--REDEF
USERS_KEY.TXTC
     11674**DCL     14942>>IF      14948>>CALLBLT 14949>>CALLBLT 14949>>CALLBLT 14956>>ASSIGN  15188>>ASSIGN
USERS_KEY.UKEY.ACCT
     11674**DCL     15114>>ASSIGN  15119>>CALLBLT 15120>>CALLBLT 15125>>CALLBLT 15126>>CALLBLT
USERS_KEY.UKEY.UNAME
     11675**DCL     15120>>CALLBLT 15126>>CALLBLT
WIDTH_LOOP
     14937**LABEL   14976--EXIT
X$FORMAT
     14688**DCL-ENT 14881--CALL    14997--CALL
ZERO_FLAGS
     14796**DCL     14903>>ASSIGN  14904>>ASSIGN  14905>>ASSIGN

PL6.E3A0      #002=ASL$LIST_PROJ_OPTS File=ASL$LIST_PROJECTS.:E05TSI             TUE 07/29/97 10:22 Page:85
      452        1        /*T***********************************************************/
      453        2        /*T*                                                         */
      454        3        /*T* Copyright (c) Bull HN Information Systems Inc., 1997    */
      455        4        /*T*                                                         */
      456        5        /*T***********************************************************/
      457        6        %EJECT;
PL6.E3A0      #002=ASL$LIST_PROJ_OPTS File=ASL$LIST_PROJECTS.:E05TSI             TUE 07/29/97 10:22 Page:86
      458        7        ASL$LIST_PROJ_OPTS: PROC( PROJ_FLAGS, ADMIN_FLAGS, DEFAULT_FLAGS );
      459        8        /********************************************************************/
      460        9        /*   Parameters      parameters      parameters      parameters     */
      461       10        /********************************************************************/
      462       11    1   DCL PROJ_FLAGS(0:143) BIT(1);
      463       12    1   DCL 1 PROJ REDEF PROJ_FLAGS,
      464       13    1          2 * BIT(72),
      465       14    1          2 * BIT(36),
      466       15    1          2 FLAGS(0:35) BIT(1);
      467       16    1   DCL ADMIN_FLAGS(0:143) BIT(1);
      468       17    1   DCL DEFAULT_FLAGS(0:143) BIT(1);
      469       18        /********************************************************************/
      470       19        /*   Include files   include files   include files   include files  */
      471       20        /********************************************************************/
      472       21        %INCLUDE AS_ENTRIES_M;
      473     1071        %INCLUDE AS_SUPER_C;
      474     1506        %INCLUDE AS_SUBS_C;
      475     2920        %INCLUDE AS_MAC_C;
      476     3000        %INCLUDE CP_6;
      477     3081        %INCLUDE KL_SUPER_C;
      478     5983        %INCLUDE XU_MACRO_C;
      479     9089        %INCLUDE XU_FORMAT_C;
      480     9251        %INCLUDE AS_SUPER_R;
      481    12267        /********************************************************************/
      482    12268        /*   Entry dcls      entry dcls      entry dcls      entry dcls     */
      483    12269        /********************************************************************/
      484    12270        %ASL$LIST_OPTS ;
      485    12273        %ASB$READ_SI ;
      486    12276        %ASB$SET_PROMPT ;
      487    12279    1   DCL X$PARSE ENTRY(1) ALTRET;
      488    12280        %ASH$HELP ;
      489    12283        %ASH$ERROR ;
      490    12286        %ASH$DQUEST ;
      491    12289        %ASH$QUEST ;
      492    12292        /********************************************************************/
      493    12293        /*   Local based     local based     local based     local based    */
      494    12294        /********************************************************************/
PL6.E3A0      #002=ASL$LIST_PROJ_OPTS File=ASL$LIST_PROJECTS.:E05TSI             TUE 07/29/97 10:22 Page:87
      495    12295        %PARSE$OUT(NAME=P$B,STCLASS="BASED(P_PCB.OUT$)",
      496    12296                        NDTYPE=TYPE,NSUBLKS=NSUBLKS);
      497    12341        /********************************************************************/
      498    12342        /*   Auto data       auto data       auto data       auto data      */
      499    12343        /********************************************************************/
      500    12344    1   DCL ARS UBIN;
      501    12345    1   DCL MORE BIT(1) ALIGNED;
      502    12346    1   DCL ND$ PTR;
      503    12347    1   DCL I UBIN;
      504    12348    1   DCL NSUBS SBIN;
      505    12349        /********************************************************************/
      506    12350        /*   Constant data   constant data   constant data   constant data  */
      507    12351        /********************************************************************/
      508    12352        %EJECT;
PL6.E3A0      #002=ASL$LIST_PROJ_OPTS File=ASL$LIST_PROJECTS.:E05TSI             TUE 07/29/97 10:22 Page:88
      509    12353        /********************************************************************/
      510    12354        /*   Procedure       procedure       procedure       procedure      */
      511    12355        /********************************************************************/
      512    12356    1   PROJ_FLAGS = '0'B;
      513    12357    1   ADMIN_FLAGS = '0'B;
      514    12358    1   DEFAULT_FLAGS = '0'B;
      515    12359    1   MORE = AS_TRUE;
      516    12360    2   DO WHILE( MORE );
      517    12361    2   LIST1: P_PCB.ROOT$ = ADDR( LIST_P_OPT );
      518    12362    2      REMEMBER LIST1 IN REMEM_VAR;
      519    12363    2      CALL ASB$SET_PROMPT ( %PROMPT_PROJ ) ;
      520    12364    2      CALL ASB$READ_SI( IN_BUF, ARS );
      521    12365    2      P_PCB.NCHARS = ARS;
      522    12366    2      CALL X$PARSE( P_PCB ) ALTRET( PARSE_ALT );
      523    12367    3      DO SELECT( P$B.SUBLK$(0) -> P$B.CODE );
      524    12368    3         SELECT( BLANK_LINE_VAL );
      525    12369    3         MORE = AS_FALSE;
      526    12370
      527    12371    3         SELECT( LIST_PROJ_OPTIONS_VAL );
      528    12372    3         NSUBS = P$B.SUBLK$(0)->P$B.NSUBLKS - 1;
      529    12373    4         DO I = 0 TO NSUBS;
      530    12374    4            ND$ = P$B.SUBLK$(0)->P$B.SUBLK$(I);
      531    12375    5            DO SELECT( ND$->P$B.CODE );
      532    12376    5               SELECT( L_ACCTS_VAL );
      533    12377    5               PROJ_FLAGS(L_ACCTS_VAL) = AS_TRUE;
      534    12378    5               PROJ_FLAGS(L_ACCT_ACCUM) = AS_TRUE;
      535    12379    5               SELECT( L_MCHARGES_VAL );
      536    12380    5               PROJ_FLAGS(L_MCHARGES_VAL) = AS_TRUE;
      537    12381    5               SELECT( L_CHG_ACCUM );
      538    12382    5               PROJ_FLAGS(L_CHG_ACCUM) = AS_TRUE;
      539    12383    5               SELECT( L_PROJ_PROJ );
      540    12384    5               PROJ_FLAGS(L_PROJ_PROJ) = AS_TRUE;
      541    12385    5               PROJ_FLAGS(L_PROJ_ACCUM) = AS_TRUE;
      542    12386    5               SELECT( L_ADMIN_VAL );
      543    12387    5               PROJ_FLAGS(L_ADMIN_VAL) = AS_TRUE;
      544    12388    5               IF I = NSUBS THEN
      545    12389    5                  CALL ASL$LIST_OPTS( ADMIN_FLAGS );
PL6.E3A0      #002=ASL$LIST_PROJ_OPTS File=ASL$LIST_PROJECTS.:E05TSI             TUE 07/29/97 10:22 Page:89
      546    12390    5               ELSE
      547    12391    6               DO ;
      548    12392    6                  ADMIN_FLAGS = '1'B ;
      549    12393    6                  END ;
      550    12394    5               SELECT( L_DEFAULT_VAL );
      551    12395    5               PROJ_FLAGS(L_DEFAULT_VAL) = AS_TRUE;
      552    12396    5               IF I = NSUBS THEN
      553    12397    5                  CALL ASL$LIST_OPTS( DEFAULT_FLAGS );
      554    12398    5               ELSE
      555    12399    6               DO ;
      556    12400    6                  DEFAULT_FLAGS = '1'B ;
      557    12401    6                  END ;
      558    12402    5               SELECT( L_PACKSET_VAL );
      559    12403    5               PROJ_FLAGS(L_PACKSET_VAL) = AS_TRUE;
      560    12404    5               PROJ_FLAGS(L_PACK_ACCT) = AS_TRUE;
      561    12405    5               PROJ_FLAGS(L_P_ACCT_ACCUM) = AS_TRUE;
      562    12406    5               PROJ_FLAGS(L_PACK_GRAN) = AS_TRUE;
      563    12407    5               PROJ_FLAGS(L_P_GRAN_ACCUM) = AS_TRUE;
      564    12408    5               PROJ_FLAGS(L_PACK_SKEL) = AS_TRUE;
      565    12409    5               PROJ_FLAGS(L_PACK_ATTR) = AS_TRUE;
      566    12410    5               SELECT( L_ALL );
      567    12411    5               PROJ.FLAGS    = '777777777777'O;
      568    12412    5               ADMIN_FLAGS = '1'B ;
      569    12413    5               MORE = '0'B;
      570    12414    5               DEFAULT_FLAGS = '1'B ;
      571    12415    5               DEFAULT_FLAGS(L_FACCT) = '0'B ;
      572    12416    5               SELECT( L_END );
      573    12417    5               MORE = AS_FALSE;
      574    12418    5               SELECT( ELSE );
      575    12419
      576    12420    5               END;
      577    12421    4            END;
      578    12422    3         SELECT( HELP_VAL );
      579    12423    3         CALL ASH$HELP;
      580    12424    3         SELECT( QUESTION_VAL );
      581    12425    3         CALL ASH$QUEST;
      582    12426    3         SELECT( DQUESTION_VAL );
PL6.E3A0      #002=ASL$LIST_PROJ_OPTS File=ASL$LIST_PROJECTS.:E05TSI             TUE 07/29/97 10:22 Page:90
      583    12427    3         CALL ASH$DQUEST;
      584    12428    3         END;
      585    12429    3      DO WHILE( '0'B );
      586    12430    3   PARSE_ALT: CALL ASH$ERROR( P_PCB.ERROR );
      587    12431    3         END;
      588    12432    2      END;
      589    12433
      590    12434    1   END ASL$LIST_PROJ_OPTS;

PL6.E3A0      #002=ASL$LIST_PROJ_OPTS File=ASL$LIST_PROJECTS.:E05TSI             TUE 07/29/97 10:22 Page:91
--  Include file information  --

   AS_SUPER_R.:E05TOU  cannot be made into a system file and is referenced.
   XU_FORMAT_C.:E05TOU  is referenced.
   XU_MACRO_C.:E05TOU  is referenced.
   KL_SUPER_C.:E05TOU  is referenced.
   CP_6.:E05TOU  cannot be made into a system file and is referenced.
   AS_MAC_C.:E05TOU  cannot be made into a system file and is referenced.
   AS_SUBS_C.:E05TOU  is referenced.
   AS_SUPER_C.:E05TOU  is referenced.
   AS_ENTRIES_M.:E05TOU  is referenced.
   B$JIT_C.:E05TOU  was found in the system file and is never referenced.
   CP_6_C.:E05TOU  was found in the system file and is referenced.
      No diagnostics issued in procedure ASL$LIST_PROJ_OPTS.

   Procedure ASL$LIST_PROJ_OPTS requires 247 words for executable code.
   Procedure ASL$LIST_PROJ_OPTS requires 14 words of local(AUTO) storage.

    No errors detected in file ASL$LIST_PROJECTS.:E05TSI    .

PL6.E3A0      #002=ASL$LIST_PROJ_OPTS File=ASL$LIST_PROJECTS.:E05TSI             TUE 07/29/97 10:22 Page:92

 Object Unit name= ASL$LIST_PROJ_OPTS                         File name= ASL$LIST_PROJECTS.:E05TOU
 UTS= JUL 29 '97 10:22:17.64 TUE                              Compiler= PL-6/E31         Sev=      00
 SharedLib= :SHARED_SYSTEM                                    Alt SharedLib=


    ****  Control sections  ****

 Sect   Type Bound  Init  Size OctSiz  Section name(segment info)
    0   DCB   even  none     0      0  M$UC
    1   DCB   even  none     0      0  M$LO
    2   Proc  even  none   247    367  ASL$LIST_PROJ_OPTS
    3  RoData even  none     5      5  ASL$LIST_PROJ_OPTS

    ****  Entry defs  ****

                              Check   Calling
                             calling  sequence
  Sect OctLoc Primary Altret sequence   type   Parms  Name
     2      0   yes            yes      Std        3  ASL$LIST_PROJ_OPTS

  ****  Entry refs  ****

         Check        Calling
        calling       sequence
Altret sequence SRef   type   Args  Name
         yes          ~proc      0 XU_OUTPUT_OPTIONS
         yes           Std       2 ASB$READ_SI
         yes           Std       1 ASL$LIST_OPTS
 yes     yes           Std       3 ASB$SET_PROMPT
         yes           Std       0 ASH$HELP
         yes           Std       0 ASH$QUEST
         yes           Std       2 ASH$ERROR
 yes     yes           Std       1 X$PARSE
         yes           Std       0 ASH$DQUEST
                       Std       0 B_CONSPOOL_D
                       nStd      0 X66_AUTO_3
                       nStd      0 X66_ARET
PL6.E3A0      #002=ASL$LIST_PROJ_OPTS File=ASL$LIST_PROJECTS.:E05TSI             TUE 07/29/97 10:22 Page:93

  ****  Data refs  ****

  Flags:  r = read only, s = secondary
Flgs Name                             Flgs Name                             Flgs Name
     M$UC                                  LIST_P_OPT                       r    AS_TRUE
r    AS_FALSE                         r    AS_MODE                          r    AS_FE_MODE
     M$LO                                  IN_BUF                                ERR_CODE
     REMEM_VAR                             REM_FCMD                              ASA_BRKS_LOC
     P_PCB                                 B_VECTNIL

  ****  Segment refs  ****

  Flags:  r = read only, s = secondary
Flgs Name                             Flgs Name                             Flgs Name
     ISSID
PL6.E3A0      #002=ASL$LIST_PROJ_OPTS File=ASL$LIST_PROJECTS.:E05TSI             TUE 07/29/97 10:22 Page:94


      452        1        /*T***********************************************************/
      453        2        /*T*                                                         */
      454        3        /*T* Copyright (c) Bull HN Information Systems Inc., 1997    */
      455        4        /*T*                                                         */
      456        5        /*T***********************************************************/
      457        6        %EJECT;
PL6.E3A0      #002=ASL$LIST_PROJ_OPTS File=ASL$LIST_PROJECTS.:E05TSI             TUE 07/29/97 10:22 Page:95
      458        7        ASL$LIST_PROJ_OPTS: PROC( PROJ_FLAGS, ADMIN_FLAGS, DEFAULT_FLAGS );

      7  2 000000   000000 700200 xent  ASL$LIST_PR* TSX0  ! X66_AUTO_3
         2 000001   000016 000003                    ZERO    14,3

      459        8        /********************************************************************/
      460        9        /*   Parameters      parameters      parameters      parameters     */
      461       10        /********************************************************************/
      462       11    1   DCL PROJ_FLAGS(0:143) BIT(1);
      463       12    1   DCL 1 PROJ REDEF PROJ_FLAGS,
      464       13    1          2 * BIT(72),
      465       14    1          2 * BIT(36),
      466       15    1          2 FLAGS(0:35) BIT(1);
      467       16    1   DCL ADMIN_FLAGS(0:143) BIT(1);
      468       17    1   DCL DEFAULT_FLAGS(0:143) BIT(1);
      469       18        /********************************************************************/
      470       19        /*   Include files   include files   include files   include files  */
      471       20        /********************************************************************/
      472       21        %INCLUDE AS_ENTRIES_M;
      473     1071        %INCLUDE AS_SUPER_C;
      474     1506        %INCLUDE AS_SUBS_C;
      475     2920        %INCLUDE AS_MAC_C;
      476     3000        %INCLUDE CP_6;
      477     3081        %INCLUDE KL_SUPER_C;
      478     5983        %INCLUDE XU_MACRO_C;
      479     9089        %INCLUDE XU_FORMAT_C;
      480     9251        %INCLUDE AS_SUPER_R;
      481    12267        /********************************************************************/
      482    12268        /*   Entry dcls      entry dcls      entry dcls      entry dcls     */
      483    12269        /********************************************************************/
      484    12270        %ASL$LIST_OPTS ;
      485    12273        %ASB$READ_SI ;
      486    12276        %ASB$SET_PROMPT ;
      487    12279    1   DCL X$PARSE ENTRY(1) ALTRET;
      488    12280        %ASH$HELP ;
      489    12283        %ASH$ERROR ;
      490    12286        %ASH$DQUEST ;
PL6.E3A0      #002=ASL$LIST_PROJ_OPTS File=ASL$LIST_PROJECTS.:E05TSI             TUE 07/29/97 10:22 Page:96
      491    12289        %ASH$QUEST ;
      492    12292        /********************************************************************/
      493    12293        /*   Local based     local based     local based     local based    */
      494    12294        /********************************************************************/
      495    12295        %PARSE$OUT(NAME=P$B,STCLASS="BASED(P_PCB.OUT$)",
      496    12296                        NDTYPE=TYPE,NSUBLKS=NSUBLKS);
      497    12341        /********************************************************************/
      498    12342        /*   Auto data       auto data       auto data       auto data      */
      499    12343        /********************************************************************/
      500    12344    1   DCL ARS UBIN;
      501    12345    1   DCL MORE BIT(1) ALIGNED;
      502    12346    1   DCL ND$ PTR;
      503    12347    1   DCL I UBIN;
      504    12348    1   DCL NSUBS SBIN;
      505    12349        /********************************************************************/
      506    12350        /*   Constant data   constant data   constant data   constant data  */
      507    12351        /********************************************************************/
      508    12352        %EJECT;
PL6.E3A0      #002=ASL$LIST_PROJ_OPTS File=ASL$LIST_PROJECTS.:E05TSI             TUE 07/29/97 10:22 Page:97
      509    12353        /********************************************************************/
      510    12354        /*   Procedure       procedure       procedure       procedure      */
      511    12355        /********************************************************************/
      512    12356    1   PROJ_FLAGS = '0'B;

  12356  2 000002   200003 470500                    LDP0    @PROJ_FLAGS,,AUTO
         2 000003   003100 060400                    CSL     bolr='003'O
         2 000004   000002 000011 xsym               BDSC    B_VECTNIL+2              by=0,bit=0,n=9
         2 000005   000000 000220                    BDSC    0,,PR0                   by=0,bit=0,n=144

      513    12357    1   ADMIN_FLAGS = '0'B;

  12357  2 000006   200004 471500                    LDP1    @ADMIN_FLAGS,,AUTO
         2 000007   003100 060400                    CSL     bolr='003'O
         2 000010   000002 000011 xsym               BDSC    B_VECTNIL+2              by=0,bit=0,n=9
         2 000011   100000 000220                    BDSC    0,,PR1                   by=0,bit=0,n=144

      514    12358    1   DEFAULT_FLAGS = '0'B;

  12358  2 000012   200005 473500                    LDP3    @DEFAULT_FLAGS,,AUTO
         2 000013   003100 060400                    CSL     bolr='003'O
         2 000014   000002 000011 xsym               BDSC    B_VECTNIL+2              by=0,bit=0,n=9
         2 000015   300000 000220                    BDSC    0,,PR3                   by=0,bit=0,n=144

      515    12359    1   MORE = AS_TRUE;

  12359  2 000016   000000 236000 xsym               LDQ     AS_TRUE
         2 000017   400000 376003                    ANQ     -131072,DU
         2 000020   200007 756100                    STQ     MORE,,AUTO

      516    12360    2   DO WHILE( MORE );

  12360  2 000021   200007 234100                    SZN     MORE,,AUTO
         2 000022   000366 605000 2                  TPL     s:12434

      517    12361    2   LIST1: P_PCB.ROOT$ = ADDR( LIST_P_OPT );

PL6.E3A0      #002=ASL$LIST_PROJ_OPTS File=ASL$LIST_PROJECTS.:E05TSI             TUE 07/29/97 10:22 Page:98
  12361  2 000023   000000 236000 3     LIST1        LDQ     0
         2 000024   000001 756000 xsym               STQ     P_PCB+1

      518    12362    2      REMEMBER LIST1 IN REMEM_VAR;

  12362  2 000025   000023 635000 2                  EAA     LIST1
         2 000026   000000 452400 xsym               STP2    REMEM_VAR
         2 000027   000001 755000 xsym               STA     REMEM_VAR+1

      519    12363    2      CALL ASB$SET_PROMPT ( %PROMPT_PROJ ) ;

  12363  2 000030   000001 630400 3                  EPPR0   1
         2 000031   000017 631400 xsym               EPPR1   B_VECTNIL+15
         2 000032   000000 701000 xent               TSX1    ASB$SET_PROMPT
         2 000033   000000 011000                    NOP     0

      520    12364    2      CALL ASB$READ_SI( IN_BUF, ARS );

  12364  2 000034   200006 630500                    EPPR0   ARS,,AUTO
         2 000035   200015 450500                    STP0    NSUBS+3,,AUTO
         2 000036   000002 236000 3                  LDQ     2
         2 000037   200014 756100                    STQ     NSUBS+2,,AUTO
         2 000040   200014 630500                    EPPR0   NSUBS+2,,AUTO
         2 000041   000020 631400 xsym               EPPR1   B_VECTNIL+16
         2 000042   000000 701000 xent               TSX1    ASB$READ_SI
         2 000043   000000 011000                    NOP     0

      521    12365    2      P_PCB.NCHARS = ARS;

  12365  2 000044   200006 235100                    LDA     ARS,,AUTO
         2 000045   000011 755000 xsym               STA     P_PCB+9

      522    12366    2      CALL X$PARSE( P_PCB ) ALTRET( PARSE_ALT );

  12366  2 000046   000003 630400 3                  EPPR0   3
         2 000047   000017 631400 xsym               EPPR1   B_VECTNIL+15
         2 000050   000000 701000 xent               TSX1    X$PARSE
PL6.E3A0      #002=ASL$LIST_PROJ_OPTS File=ASL$LIST_PROJECTS.:E05TSI             TUE 07/29/97 10:22 Page:99
         2 000051   000360 702000 2                  TSX2    PARSE_ALT

      523    12367    3      DO SELECT( P$B.SUBLK$(0) -> P$B.CODE );

  12367  2 000052   000003 470400 xsym               LDP0    P_PCB+3
         2 000053   000003 471500                    LDP1    3,,PR0
         2 000054   100000 236100                    LDQ     0,,PR1
         2 000055   777777 376007                    ANQ     -1,DL
         2 000056   000314 116007                    CMPQ    204,DL
         2 000057   000074 602000 2                  TNC     s:12367+18
         2 000060   000104 600000 2                  TZE     s:12372
         2 000061   000455 116007                    CMPQ    301,DL
         2 000062   000070 602000 2                  TNC     s:12367+14
         2 000063   000350 600000 2                  TZE     s:12425
         2 000064   100000 720100                    LXL0    0,,PR1
         2 000065   000456 100003                    CMPX0   302,DU
         2 000066   000357 601000 2                  TNZ     s:12429
         2 000067   000344 710000 2                  TRA     s:12423
         2 000070   100000 720100                    LXL0    0,,PR1
         2 000071   000454 100003                    CMPX0   300,DU
         2 000072   000357 601000 2                  TNZ     s:12429
         2 000073   000354 710000 2                  TRA     s:12427
         2 000074   100000 720100                    LXL0    0,,PR1
         2 000075   000032 100003                    CMPX0   26,DU
         2 000076   000357 601000 2                  TNZ     s:12429
         2 000077   000100 710000 2                  TRA     s:12369

      524    12368    3         SELECT( BLANK_LINE_VAL );

      525    12369    3         MORE = AS_FALSE;

  12369  2 000100   000000 236000 xsym               LDQ     AS_FALSE
         2 000101   400000 376003                    ANQ     -131072,DU
         2 000102   200007 756100                    STQ     MORE,,AUTO
         2 000103   000357 710000 2                  TRA     s:12429

      526    12370
PL6.E3A0      #002=ASL$LIST_PROJ_OPTS File=ASL$LIST_PROJECTS.:E05TSI             TUE 07/29/97 10:22 Page:100
      527    12371    3         SELECT( LIST_PROJ_OPTIONS_VAL );

      528    12372    3         NSUBS = P$B.SUBLK$(0)->P$B.NSUBLKS - 1;

  12372  2 000104   100001 236100                    LDQ     1,,PR1
         2 000105   000022 772000                    QRL     18
         2 000106   000001 136007                    SBLQ    1,DL
         2 000107   200012 756100                    STQ     NSUBS,,AUTO

      529    12373    4         DO I = 0 TO NSUBS;

  12373  2 000110   200011 450100                    STZ     I,,AUTO
         2 000111   000337 710000 2                  TRA     s:12421+3

      530    12374    4            ND$ = P$B.SUBLK$(0)->P$B.SUBLK$(I);

  12374  2 000112   000003 470400 xsym               LDP0    P_PCB+3
         2 000113   000003 471500                    LDP1    3,,PR0
         2 000114   200011 720100                    LXL0    I,,AUTO
         2 000115   100003 236110                    LDQ     3,X0,PR1
         2 000116   200010 756100                    STQ     ND$,,AUTO

      531    12375    5            DO SELECT( ND$->P$B.CODE );

  12375  2 000117   200010 473500                    LDP3    ND$,,AUTO
         2 000120   300000 236100                    LDQ     0,,PR3
         2 000121   777777 376007                    ANQ     -1,DL
         2 000122   000164 116007                    CMPQ    116,DL
         2 000123   000147 602000 2                  TNC     s:12375+24
         2 000124   000204 600000 2                  TZE     s:12384
         2 000125   000167 116007                    CMPQ    119,DL
         2 000126   000143 602000 2                  TNC     s:12375+20
         2 000127   000236 600000 2                  TZE     s:12395
         2 000130   000217 116007                    CMPQ    143,DL
         2 000131   000137 602000 2                  TNC     s:12375+16
         2 000132   000307 600000 2                  TZE     s:12411
         2 000133   300000 721100                    LXL1    0,,PR3
PL6.E3A0      #002=ASL$LIST_PROJ_OPTS File=ASL$LIST_PROJECTS.:E05TSI             TUE 07/29/97 10:22 Page:101
         2 000134   000220 101003                    CMPX1   144,DU
         2 000135   000334 601000 2                  TNZ     s:12421
         2 000136   000330 710000 2                  TRA     s:12417
         2 000137   300000 721100                    LXL1    0,,PR3
         2 000140   000170 101003                    CMPX1   120,DU
         2 000141   000334 601000 2                  TNZ     s:12421
         2 000142   000260 710000 2                  TRA     s:12403
         2 000143   300000 721100                    LXL1    0,,PR3
         2 000144   000166 101003                    CMPX1   118,DU
         2 000145   000334 601000 2                  TNZ     s:12421
         2 000146   000214 710000 2                  TRA     s:12387
         2 000147   000162 116007                    CMPQ    114,DL
         2 000150   000156 602000 2                  TNC     s:12375+31
         2 000151   000172 600000 2                  TZE     s:12380
         2 000152   300000 721100                    LXL1    0,,PR3
         2 000153   000163 101003                    CMPX1   115,DU
         2 000154   000334 601000 2                  TNZ     s:12421
         2 000155   000177 710000 2                  TRA     s:12382
         2 000156   300000 721100                    LXL1    0,,PR3
         2 000157   000160 101003                    CMPX1   112,DU
         2 000160   000334 601000 2                  TNZ     s:12421
         2 000161   000162 710000 2                  TRA     s:12377

      532    12376    5               SELECT( L_ACCTS_VAL );

      533    12377    5               PROJ_FLAGS(L_ACCTS_VAL) = AS_TRUE;

  12377  2 000162   200003 474500                    LDP4    @PROJ_FLAGS,,AUTO
         2 000163   003100 060400                    CSL     bolr='003'O
         2 000164   000000 000001 xsym               BDSC    AS_TRUE                  by=0,bit=0,n=1
         2 000165   400003 040001                    BDSC    3,,PR4                   by=0,bit=4,n=1

      534    12378    5               PROJ_FLAGS(L_ACCT_ACCUM) = AS_TRUE;

  12378  2 000166   003100 060400                    CSL     bolr='003'O
         2 000167   000000 000001 xsym               BDSC    AS_TRUE                  by=0,bit=0,n=1
         2 000170   400003 050001                    BDSC    3,,PR4                   by=0,bit=5,n=1
PL6.E3A0      #002=ASL$LIST_PROJ_OPTS File=ASL$LIST_PROJECTS.:E05TSI             TUE 07/29/97 10:22 Page:102
         2 000171   000334 710000 2                  TRA     s:12421

      535    12379    5               SELECT( L_MCHARGES_VAL );

      536    12380    5               PROJ_FLAGS(L_MCHARGES_VAL) = AS_TRUE;

  12380  2 000172   200003 474500                    LDP4    @PROJ_FLAGS,,AUTO
         2 000173   003100 060400                    CSL     bolr='003'O
         2 000174   000000 000001 xsym               BDSC    AS_TRUE                  by=0,bit=0,n=1
         2 000175   400003 060001                    BDSC    3,,PR4                   by=0,bit=6,n=1
         2 000176   000334 710000 2                  TRA     s:12421

      537    12381    5               SELECT( L_CHG_ACCUM );

      538    12382    5               PROJ_FLAGS(L_CHG_ACCUM) = AS_TRUE;

  12382  2 000177   200003 474500                    LDP4    @PROJ_FLAGS,,AUTO
         2 000200   003100 060400                    CSL     bolr='003'O
         2 000201   000000 000001 xsym               BDSC    AS_TRUE                  by=0,bit=0,n=1
         2 000202   400003 070001                    BDSC    3,,PR4                   by=0,bit=7,n=1
         2 000203   000334 710000 2                  TRA     s:12421

      539    12383    5               SELECT( L_PROJ_PROJ );

      540    12384    5               PROJ_FLAGS(L_PROJ_PROJ) = AS_TRUE;

  12384  2 000204   200003 474500                    LDP4    @PROJ_FLAGS,,AUTO
         2 000205   003100 060400                    CSL     bolr='003'O
         2 000206   000000 000001 xsym               BDSC    AS_TRUE                  by=0,bit=0,n=1
         2 000207   400003 100001                    BDSC    3,,PR4                   by=0,bit=8,n=1

      541    12385    5               PROJ_FLAGS(L_PROJ_ACCUM) = AS_TRUE;

  12385  2 000210   003100 060400                    CSL     bolr='003'O
         2 000211   000000 000001 xsym               BDSC    AS_TRUE                  by=0,bit=0,n=1
         2 000212   400003 200001                    BDSC    3,,PR4                   by=1,bit=0,n=1
         2 000213   000334 710000 2                  TRA     s:12421
PL6.E3A0      #002=ASL$LIST_PROJ_OPTS File=ASL$LIST_PROJECTS.:E05TSI             TUE 07/29/97 10:22 Page:103

      542    12386    5               SELECT( L_ADMIN_VAL );

      543    12387    5               PROJ_FLAGS(L_ADMIN_VAL) = AS_TRUE;

  12387  2 000214   200003 474500                    LDP4    @PROJ_FLAGS,,AUTO
         2 000215   003100 060400                    CSL     bolr='003'O
         2 000216   000000 000001 xsym               BDSC    AS_TRUE                  by=0,bit=0,n=1
         2 000217   400003 210001                    BDSC    3,,PR4                   by=1,bit=1,n=1

      544    12388    5               IF I = NSUBS THEN

  12388  2 000220   200011 236100                    LDQ     I,,AUTO
         2 000221   000231 604000 2                  TMI     s:12392
         2 000222   200012 116100                    CMPQ    NSUBS,,AUTO
         2 000223   000231 601000 2                  TNZ     s:12392

      545    12389    5                  CALL ASL$LIST_OPTS( ADMIN_FLAGS );

  12389  2 000224   200004 630500                    EPPR0   @ADMIN_FLAGS,,AUTO
         2 000225   000017 631400 xsym               EPPR1   B_VECTNIL+15
         2 000226   000000 701000 xent               TSX1    ASL$LIST_OPTS
         2 000227   000000 011000                    NOP     0
         2 000230   000334 710000 2                  TRA     s:12421

      546    12390    5               ELSE
      547    12391    6               DO ;

      548    12392    6                  ADMIN_FLAGS = '1'B ;

  12392  2 000231   200004 470500                    LDP0    @ADMIN_FLAGS,,AUTO
         2 000232   003100 060400                    CSL     bolr='003'O
         2 000233   000030 000011 xsym               BDSC    B_VECTNIL+24             by=0,bit=0,n=9
         2 000234   000000 000220                    BDSC    0,,PR0                   by=0,bit=0,n=144

      549    12393    6                  END ;

PL6.E3A0      #002=ASL$LIST_PROJ_OPTS File=ASL$LIST_PROJECTS.:E05TSI             TUE 07/29/97 10:22 Page:104
  12393  2 000235   000334 710000 2                  TRA     s:12421

      550    12394    5               SELECT( L_DEFAULT_VAL );

      551    12395    5               PROJ_FLAGS(L_DEFAULT_VAL) = AS_TRUE;

  12395  2 000236   200003 474500                    LDP4    @PROJ_FLAGS,,AUTO
         2 000237   003100 060400                    CSL     bolr='003'O
         2 000240   000000 000001 xsym               BDSC    AS_TRUE                  by=0,bit=0,n=1
         2 000241   400003 220001                    BDSC    3,,PR4                   by=1,bit=2,n=1

      552    12396    5               IF I = NSUBS THEN

  12396  2 000242   200011 236100                    LDQ     I,,AUTO
         2 000243   000253 604000 2                  TMI     s:12400
         2 000244   200012 116100                    CMPQ    NSUBS,,AUTO
         2 000245   000253 601000 2                  TNZ     s:12400

      553    12397    5                  CALL ASL$LIST_OPTS( DEFAULT_FLAGS );

  12397  2 000246   200005 630500                    EPPR0   @DEFAULT_FLAGS,,AUTO
         2 000247   000017 631400 xsym               EPPR1   B_VECTNIL+15
         2 000250   000000 701000 xent               TSX1    ASL$LIST_OPTS
         2 000251   000000 011000                    NOP     0
         2 000252   000334 710000 2                  TRA     s:12421

      554    12398    5               ELSE
      555    12399    6               DO ;

      556    12400    6                  DEFAULT_FLAGS = '1'B ;

  12400  2 000253   200005 470500                    LDP0    @DEFAULT_FLAGS,,AUTO
         2 000254   003100 060400                    CSL     bolr='003'O
         2 000255   000030 000011 xsym               BDSC    B_VECTNIL+24             by=0,bit=0,n=9
         2 000256   000000 000220                    BDSC    0,,PR0                   by=0,bit=0,n=144

      557    12401    6                  END ;
PL6.E3A0      #002=ASL$LIST_PROJ_OPTS File=ASL$LIST_PROJECTS.:E05TSI             TUE 07/29/97 10:22 Page:105

  12401  2 000257   000334 710000 2                  TRA     s:12421

      558    12402    5               SELECT( L_PACKSET_VAL );

      559    12403    5               PROJ_FLAGS(L_PACKSET_VAL) = AS_TRUE;

  12403  2 000260   200003 474500                    LDP4    @PROJ_FLAGS,,AUTO
         2 000261   003100 060400                    CSL     bolr='003'O
         2 000262   000000 000001 xsym               BDSC    AS_TRUE                  by=0,bit=0,n=1
         2 000263   400003 230001                    BDSC    3,,PR4                   by=1,bit=3,n=1

      560    12404    5               PROJ_FLAGS(L_PACK_ACCT) = AS_TRUE;

  12404  2 000264   003100 060400                    CSL     bolr='003'O
         2 000265   000000 000001 xsym               BDSC    AS_TRUE                  by=0,bit=0,n=1
         2 000266   400003 240001                    BDSC    3,,PR4                   by=1,bit=4,n=1

      561    12405    5               PROJ_FLAGS(L_P_ACCT_ACCUM) = AS_TRUE;

  12405  2 000267   003100 060400                    CSL     bolr='003'O
         2 000270   000000 000001 xsym               BDSC    AS_TRUE                  by=0,bit=0,n=1
         2 000271   400003 250001                    BDSC    3,,PR4                   by=1,bit=5,n=1

      562    12406    5               PROJ_FLAGS(L_PACK_GRAN) = AS_TRUE;

  12406  2 000272   003100 060400                    CSL     bolr='003'O
         2 000273   000000 000001 xsym               BDSC    AS_TRUE                  by=0,bit=0,n=1
         2 000274   400003 260001                    BDSC    3,,PR4                   by=1,bit=6,n=1

      563    12407    5               PROJ_FLAGS(L_P_GRAN_ACCUM) = AS_TRUE;

  12407  2 000275   003100 060400                    CSL     bolr='003'O
         2 000276   000000 000001 xsym               BDSC    AS_TRUE                  by=0,bit=0,n=1
         2 000277   400003 270001                    BDSC    3,,PR4                   by=1,bit=7,n=1

      564    12408    5               PROJ_FLAGS(L_PACK_SKEL) = AS_TRUE;
PL6.E3A0      #002=ASL$LIST_PROJ_OPTS File=ASL$LIST_PROJECTS.:E05TSI             TUE 07/29/97 10:22 Page:106

  12408  2 000300   003100 060400                    CSL     bolr='003'O
         2 000301   000000 000001 xsym               BDSC    AS_TRUE                  by=0,bit=0,n=1
         2 000302   400003 300001                    BDSC    3,,PR4                   by=1,bit=8,n=1

      565    12409    5               PROJ_FLAGS(L_PACK_ATTR) = AS_TRUE;

  12409  2 000303   003100 060400                    CSL     bolr='003'O
         2 000304   000000 000001 xsym               BDSC    AS_TRUE                  by=0,bit=0,n=1
         2 000305   400003 400001                    BDSC    3,,PR4                   by=2,bit=0,n=1
         2 000306   000334 710000 2                  TRA     s:12421

      566    12410    5               SELECT( L_ALL );

      567    12411    5               PROJ.FLAGS    = '777777777777'O;

  12411  2 000307   200003 474500                    LDP4    @PROJ_FLAGS,,AUTO
         2 000310   003100 060400                    CSL     bolr='003'O
         2 000311   000027 000044 xsym               BDSC    B_VECTNIL+23             by=0,bit=0,n=36
         2 000312   400003 000044                    BDSC    3,,PR4                   by=0,bit=0,n=36

      568    12412    5               ADMIN_FLAGS = '1'B ;

  12412  2 000313   200004 470500                    LDP0    @ADMIN_FLAGS,,AUTO
         2 000314   003100 060400                    CSL     bolr='003'O
         2 000315   000030 000011 xsym               BDSC    B_VECTNIL+24             by=0,bit=0,n=9
         2 000316   000000 000220                    BDSC    0,,PR0                   by=0,bit=0,n=144

      569    12413    5               MORE = '0'B;

  12413  2 000317   200007 450100                    STZ     MORE,,AUTO

      570    12414    5               DEFAULT_FLAGS = '1'B ;

  12414  2 000320   200005 471500                    LDP1    @DEFAULT_FLAGS,,AUTO
         2 000321   003100 060400                    CSL     bolr='003'O
         2 000322   000030 000011 xsym               BDSC    B_VECTNIL+24             by=0,bit=0,n=9
PL6.E3A0      #002=ASL$LIST_PROJ_OPTS File=ASL$LIST_PROJECTS.:E05TSI             TUE 07/29/97 10:22 Page:107
         2 000323   100000 000220                    BDSC    0,,PR1                   by=0,bit=0,n=144

      571    12415    5               DEFAULT_FLAGS(L_FACCT) = '0'B ;

  12415  2 000324   003100 060400                    CSL     bolr='003'O
         2 000325   000002 000001 xsym               BDSC    B_VECTNIL+2              by=0,bit=0,n=1
         2 000326   100002 200001                    BDSC    2,,PR1                   by=1,bit=0,n=1
         2 000327   000334 710000 2                  TRA     s:12421

      572    12416    5               SELECT( L_END );

      573    12417    5               MORE = AS_FALSE;

  12417  2 000330   000000 236000 xsym               LDQ     AS_FALSE
         2 000331   400000 376003                    ANQ     -131072,DU
         2 000332   200007 756100                    STQ     MORE,,AUTO
         2 000333   000334 710000 2                  TRA     s:12421

      574    12418    5               SELECT( ELSE );

      575    12419
      576    12420    5               END;

      577    12421    4            END;

  12421  2 000334   200011 235100                    LDA     I,,AUTO
         2 000335   000001 035007                    ADLA    1,DL
         2 000336   200011 755100                    STA     I,,AUTO
         2 000337   200011 236100                    LDQ     I,,AUTO
         2 000340   000343 604000 2                  TMI     s:12421+7
         2 000341   200012 116100                    CMPQ    NSUBS,,AUTO
         2 000342   000112 604400 2                  TMOZ    s:12374
         2 000343   000357 710000 2                  TRA     s:12429

      578    12422    3         SELECT( HELP_VAL );

      579    12423    3         CALL ASH$HELP;
PL6.E3A0      #002=ASL$LIST_PROJ_OPTS File=ASL$LIST_PROJECTS.:E05TSI             TUE 07/29/97 10:22 Page:108

  12423  2 000344   000002 631400 xsym               EPPR1   B_VECTNIL+2
         2 000345   000000 701000 xent               TSX1    ASH$HELP
         2 000346   000000 011000                    NOP     0
         2 000347   000357 710000 2                  TRA     s:12429

      580    12424    3         SELECT( QUESTION_VAL );

      581    12425    3         CALL ASH$QUEST;

  12425  2 000350   000002 631400 xsym               EPPR1   B_VECTNIL+2
         2 000351   000000 701000 xent               TSX1    ASH$QUEST
         2 000352   000000 011000                    NOP     0
         2 000353   000357 710000 2                  TRA     s:12429

      582    12426    3         SELECT( DQUESTION_VAL );

      583    12427    3         CALL ASH$DQUEST;

  12427  2 000354   000002 631400 xsym               EPPR1   B_VECTNIL+2
         2 000355   000000 701000 xent               TSX1    ASH$DQUEST
         2 000356   000000 011000                    NOP     0

      584    12428    3         END;

      585    12429    3      DO WHILE( '0'B );

  12429  2 000357   000364 710000 2                  TRA     s:12432

      586    12430    3   PARSE_ALT: CALL ASH$ERROR( P_PCB.ERROR );

  12430  2 000360   000004 630400 3     PARSE_ALT    EPPR0   4
         2 000361   000017 631400 xsym               EPPR1   B_VECTNIL+15
         2 000362   000000 701000 xent               TSX1    ASH$ERROR
         2 000363   000000 011000                    NOP     0

      587    12431    3         END;
PL6.E3A0      #002=ASL$LIST_PROJ_OPTS File=ASL$LIST_PROJECTS.:E05TSI             TUE 07/29/97 10:22 Page:109

      588    12432    2      END;

  12432  2 000364   200007 234100                    SZN     MORE,,AUTO
         2 000365   000023 604000 2                  TMI     LIST1

      589    12433
      590    12434    1   END ASL$LIST_PROJ_OPTS;

  12434  2 000366   000000 702200 xent               TSX2  ! X66_ARET

PL6.E3A0      #002=ASL$LIST_PROJ_OPTS File=ASL$LIST_PROJECTS.:E05TSI             TUE 07/29/97 10:22 Page:110
--  Include file information  --

   AS_SUPER_R.:E05TOU  cannot be made into a system file and is referenced.
   XU_FORMAT_C.:E05TOU  is referenced.
   XU_MACRO_C.:E05TOU  is referenced.
   KL_SUPER_C.:E05TOU  is referenced.
   CP_6.:E05TOU  cannot be made into a system file and is referenced.
   AS_MAC_C.:E05TOU  cannot be made into a system file and is referenced.
   AS_SUBS_C.:E05TOU  is referenced.
   AS_SUPER_C.:E05TOU  is referenced.
   AS_ENTRIES_M.:E05TOU  is referenced.
   B$JIT_C.:E05TOU  was found in the system file and is never referenced.
   CP_6_C.:E05TOU  was found in the system file and is referenced.
      No diagnostics issued in procedure ASL$LIST_PROJ_OPTS.
PL6.E3A0      #002=ASL$LIST_PROJ_OPTS File=ASL$LIST_PROJECTS.:E05TSI             TUE 07/29/97 10:22 Page:111

 **** Variables and constants ****

  ****  Auto variables  ****

  ****  Scalars and arrays  ****
OctLoc.c.b A Datatyp(siz) R M Lvl/name                 OctLoc.c.b A Datatyp(siz) R M Lvl/name

     4-0-0/w PTR         r     1 @ADMIN_FLAGS               5-0-0/w PTR         r     1 @DEFAULT_FLAGS
     3-0-0/w PTR         r     1 @PROJ_FLAGS
    *0-0-0/b BIT         r     1 ADMIN_FLAGS(0:143)
     6-0-0/w UBIN        r     1 ARS
    *0-0-0/b BIT         r     1 DEFAULT_FLAGS(0:143)
    11-0-0/w UBIN        r     1 I                          7-0-0/w BIT         r     1 MORE
    10-0-0/w PTR         r     1 ND$                       12-0-0/w SBIN        r     1 NSUBS
    *0-0-0/b STRC(144)   r     1 PROJ
    *0-0-0/b BIT         r     1 PROJ_FLAGS(0:143)

  ****  SYMREF variables  ****

  ****  Scalars and arrays  ****
OctLoc.c.b A Datatyp(siz) R M Lvl/name                 OctLoc.c.b A Datatyp(siz) R M Lvl/name

     0-0-0/b BIT         r     1 AS_FALSE                   0-0-0/b BIT         r     1 AS_TRUE
     0-0-0/c CHAR(255)   r     1 IN_BUF                     0-0-0/w UBIN        r     1 LIST_P_OPT
     0-0-0/w STRC(504)   r     1 P_PCB                      0-0-0/d REMB        r     1 REMEM_VAR

  ****  BASED and DCB variables  ****

  ****  Scalars and arrays  ****
OctLoc.c.b A Datatyp(siz) R M Lvl/name                 OctLoc.c.b A Datatyp(siz) R M Lvl/name

     0-0-0/w STRC(144)   r     1 P$B


   Procedure ASL$LIST_PROJ_OPTS requires 247 words for executable code.
   Procedure ASL$LIST_PROJ_OPTS requires 14 words of local(AUTO) storage.
PL6.E3A0      #002=ASL$LIST_PROJ_OPTS File=ASL$LIST_PROJECTS.:E05TSI             TUE 07/29/97 10:22 Page:112

    No errors detected in file ASL$LIST_PROJECTS.:E05TSI    .
PL6.E3A0      #002=ASL$LIST_PROJ_OPTS File=ASL$LIST_PROJECTS.:E05TSI             TUE 07/29/97 10:22 Page:113
          *** CROSS REFERENCE LISTING ***
**     DENOTES     IDENTIFIER DEFINITION
<<                 IDENTIFIER'S VALUE SET
>>                 IDENTIFIER'S VALUE USED
<>                 IDENTIFIER SET AND/OR USED
--                 IDENTIFIER REFERENCED
PL6.E3A0      #002=ASL$LIST_PROJ_OPTS File=ASL$LIST_PROJECTS.:E05TSI             TUE 07/29/97 10:22 Page:114
          MINI XREF LISTING

ADMIN_FLAGS
        16**DCL         7--PROC    12357<<ASSIGN  12389<>CALL    12392<<ASSIGN  12412<<ASSIGN
ARS
     12344**DCL     12364<>CALL    12365>>ASSIGN
ASA_BRKS_LOC
      9415**DCL      9415--REDEF
ASB$READ_SI
     12274**DCL-ENT 12364--CALL
ASB$SET_PROMPT
     12277**DCL-ENT 12363--CALL
ASH$DQUEST
     12287**DCL-ENT 12427--CALL
ASH$ERROR
     12284**DCL-ENT 12430--CALL
ASH$HELP
     12281**DCL-ENT 12423--CALL
ASH$QUEST
     12290**DCL-ENT 12425--CALL
ASL$LIST_OPTS
     12271**DCL-ENT 12389--CALL    12397--CALL
AS_DEFAULT.BANNER_PERM
     10108**DCL     10109--REDEF
AS_DEFAULT.BUDGET.MACCT
     10013**DCL     10017--REDEF
AS_DEFAULT.BUDGET.MAX_PROJECTS
     10026**DCL     10029--REDEF
AS_DEFAULT.BUDGET.PACCUM
     10009**DCL     10011--REDEF
AS_DEFAULT.BUDGET.PMAXC
     10004**DCL     10006--REDEF
AS_DEFAULT.SETUP_CHRA.TXT
     10124**DCL     10125--REDEF   10126--REDEF
PL6.E3A0      #002=ASL$LIST_PROJ_OPTS File=ASL$LIST_PROJECTS.:E05TSI             TUE 07/29/97 10:22 Page:115
AS_DEFAULT_DREC.PASSWORD
     11378**DCL     11382--REDEF
AS_DEFAULT_DREC.RENAME
     11401**DCL     11402--REDEF
AS_DFLT.BANNER_PERM
      9930**DCL      9931--REDEF
AS_DFLT.BUDGET.MACCT
      9835**DCL      9839--REDEF
AS_DFLT.BUDGET.MAX_PROJECTS
      9848**DCL      9851--REDEF
AS_DFLT.BUDGET.PACCUM
      9831**DCL      9833--REDEF
AS_DFLT.BUDGET.PMAXC
      9826**DCL      9828--REDEF
AS_DFLT.SETUP_CHRA.TXT
      9946**DCL      9947--REDEF    9948--REDEF
AS_FALSE
      9275**DCL     12369>>ASSIGN  12417>>ASSIGN
AS_FE_MODE
      9281**DCL      9282--REDEF
AS_MODE
      9278**DCL      9280--REDEF
AS_MOD_USER.ACCESS
     12143**DCL     12144--REDEF
AS_MOD_USER.BANNER
     12130**DCL     12131--REDEF
AS_MOD_USER.BANNER_PERM
     12132**DCL     12133--REDEF
AS_MOD_USER.BILL
     12138**DCL     12139--REDEF
AS_MOD_USER.CPROC
     12134**DCL     12135--REDEF
AS_MOD_USER.FEBILL
     12214**DCL     12215--REDEF
AS_MOD_USER.FECXTMEM
     12231**DCL     12232--REDEF
PL6.E3A0      #002=ASL$LIST_PROJ_OPTS File=ASL$LIST_PROJECTS.:E05TSI             TUE 07/29/97 10:22 Page:116
AS_MOD_USER.FEMINTS
     12216**DCL     12217--REDEF
AS_MOD_USER.FEMMEM
     12227**DCL     12228--REDEF
AS_MOD_USER.FEMTIME
     12225**DCL     12226--REDEF
AS_MOD_USER.FEPPRIV
     12222**DCL     12224--REDEF
AS_MOD_USER.FEPRIV
     12219**DCL     12221--REDEF
AS_MOD_USER.FORCE_BIT
     12128**DCL     12129--REDEF
AS_MOD_USER.KEY
     12210**DCL     12212--REDEF
AS_MOD_USER.LASTCPROC
     12136**DCL     12137--REDEF
AS_MOD_USER.LIMITS.DO_
     12184**DCL     12185--REDEF
AS_MOD_USER.LIMITS.FPOOLS
     12200**DCL     12201--REDEF
AS_MOD_USER.LIMITS.LO
     12180**DCL     12181--REDEF
AS_MOD_USER.LIMITS.MEM
     12176**DCL     12177--REDEF
AS_MOD_USER.LIMITS.MPRIO
     12204**DCL     12205--REDEF
AS_MOD_USER.LIMITS.PDIS
     12192**DCL     12193--REDEF
AS_MOD_USER.LIMITS.PO
     12188**DCL     12189--REDEF
AS_MOD_USER.LIMITS.TDIS
     12196**DCL     12197--REDEF
AS_MOD_USER.LIMITS.TIME
     12172**DCL     12173--REDEF
AS_MOD_USER.MAXENQ
     12153**DCL     12154--REDEF
PL6.E3A0      #002=ASL$LIST_PROJ_OPTS File=ASL$LIST_PROJECTS.:E05TSI             TUE 07/29/97 10:22 Page:117
AS_MOD_USER.PERM_BIT
     12126**DCL     12127--REDEF
AS_MOD_USER.PPRIV
     12148**DCL     12150--REDEF
AS_MOD_USER.PRIOB
     12155**DCL     12156--REDEF
AS_MOD_USER.PRIV
     12145**DCL     12147--REDEF
AS_MOD_USER.QUAN
     12151**DCL     12152--REDEF
AS_MOD_USER.SETUP
     12124**DCL     12125--REDEF
AS_PROJECT.BANNER_PERM
     10464**DCL     10465--REDEF
AS_PROJECT.BUDGET.MACCT
     10369**DCL     10373--REDEF
AS_PROJECT.BUDGET.MAX_PROJECTS
     10382**DCL     10385--REDEF
AS_PROJECT.BUDGET.PACCUM
     10365**DCL     10367--REDEF
AS_PROJECT.BUDGET.PMAXC
     10360**DCL     10362--REDEF
AS_PROJECT.SETUP_CHRA.TXT
     10480**DCL     10481--REDEF   10482--REDEF
AS_PROJECT_DFLT.BANNER_PERM
     10642**DCL     10643--REDEF
AS_PROJECT_DFLT.BUDGET.MACCT
     10547**DCL     10551--REDEF
AS_PROJECT_DFLT.BUDGET.MAX_PROJECTS
     10560**DCL     10563--REDEF
AS_PROJECT_DFLT.BUDGET.PACCUM
     10543**DCL     10545--REDEF
AS_PROJECT_DFLT.BUDGET.PMAXC
     10538**DCL     10540--REDEF
AS_PROJECT_DFLT.SETUP_CHRA.TXT
     10658**DCL     10659--REDEF   10660--REDEF
PL6.E3A0      #002=ASL$LIST_PROJ_OPTS File=ASL$LIST_PROJECTS.:E05TSI             TUE 07/29/97 10:22 Page:118
AS_PROJECT_DFLT_DREC.PASSWORD
     11864**DCL     11868--REDEF
AS_PROJECT_DFLT_DREC.RENAME
     11887**DCL     11888--REDEF
AS_PROJECT_DREC.PASSWORD
     11702**DCL     11706--REDEF
AS_PROJECT_DREC.RENAME
     11725**DCL     11726--REDEF
AS_PROJ_ADMIN.BANNER_PERM
     10286**DCL     10287--REDEF
AS_PROJ_ADMIN.BUDGET.MACCT
     10191**DCL     10195--REDEF
AS_PROJ_ADMIN.BUDGET.MAX_PROJECTS
     10204**DCL     10207--REDEF
AS_PROJ_ADMIN.BUDGET.PACCUM
     10187**DCL     10189--REDEF
AS_PROJ_ADMIN.BUDGET.PMAXC
     10182**DCL     10184--REDEF
AS_PROJ_ADMIN.SETUP_CHRA.TXT
     10302**DCL     10303--REDEF   10304--REDEF
AS_PROJ_ADMIN_DREC.PASSWORD
     11540**DCL     11544--REDEF
AS_PROJ_ADMIN_DREC.RENAME
     11563**DCL     11564--REDEF
AS_TRUE
      9275**DCL     12359>>ASSIGN  12377>>ASSIGN  12378>>ASSIGN  12380>>ASSIGN  12382>>ASSIGN  12384>>ASSIGN
     12385>>ASSIGN  12387>>ASSIGN  12395>>ASSIGN  12403>>ASSIGN  12404>>ASSIGN  12405>>ASSIGN  12406>>ASSIGN
     12407>>ASSIGN  12408>>ASSIGN  12409>>ASSIGN
AS_USERS.BANNER_PERM
      9752**DCL      9753--REDEF
AS_USERS.BUDGET.MACCT
      9657**DCL      9661--REDEF
AS_USERS.BUDGET.MAX_PROJECTS
      9670**DCL      9673--REDEF
AS_USERS.BUDGET.PACCUM
      9653**DCL      9655--REDEF
PL6.E3A0      #002=ASL$LIST_PROJ_OPTS File=ASL$LIST_PROJECTS.:E05TSI             TUE 07/29/97 10:22 Page:119
AS_USERS.BUDGET.PMAXC
      9648**DCL      9650--REDEF
AS_USERS.SETUP_CHRA.TXT
      9768**DCL      9769--REDEF    9770--REDEF
AS_USERS_CONSTANT.BANNER_PERM
     10820**DCL     10821--REDEF
AS_USERS_CONSTANT.BUDGET.MACCT
     10725**DCL     10729--REDEF
AS_USERS_CONSTANT.BUDGET.MAX_PROJECTS
     10738**DCL     10741--REDEF
AS_USERS_CONSTANT.BUDGET.PACCUM
     10721**DCL     10723--REDEF
AS_USERS_CONSTANT.BUDGET.PMAXC
     10716**DCL     10718--REDEF
AS_USERS_CONSTANT.SETUP_CHRA.TXT
     10836**DCL     10837--REDEF   10838--REDEF
DEFAULT_FLAGS
        17**DCL         7--PROC    12358<<ASSIGN  12397<>CALL    12400<<ASSIGN  12414<<ASSIGN  12415<<ASSIGN
ERR_CODE
      9410**DCL      9411--REDEF
I
     12347**DCL     12373<<DOINDEX 12374>>ASSIGN  12388>>IF      12396>>IF
IN_BUF
      9406**DCL     12364<>CALL
KL_DEFAULT.PASSWORD
     12026**DCL     12030--REDEF
KL_DEFAULT.RENAME
     12049**DCL     12050--REDEF
KL_DFLT.PASSWORD
     11216**DCL     11220--REDEF
KL_DFLT.RENAME
     11239**DCL     11240--REDEF
KL_DREC.PASSWORD
     11054**DCL     11058--REDEF
KL_DREC.RENAME
     11077**DCL     11078--REDEF
PL6.E3A0      #002=ASL$LIST_PROJ_OPTS File=ASL$LIST_PROJECTS.:E05TSI             TUE 07/29/97 10:22 Page:120
KL_DREC_CNT.PASSWORD
     10941**DCL     10945--REDEF
KL_DREC_CNT.RENAME
     10964**DCL     10965--REDEF
LIST1
     12361**LABEL   12362--REMEMBR
LIST_P_OPT
      9269**DCL     12361--ASSIGN
MORE
     12345**DCL     12359<<ASSIGN  12360>>DOWHILE 12369<<ASSIGN  12413<<ASSIGN  12417<<ASSIGN
ND$
     12346**DCL     12374<<ASSIGN  12375>>DOSELCT
NSUBS
     12348**DCL     12372<<ASSIGN  12373>>DOINDEX 12388>>IF      12396>>IF
P$B.CODE
     12310**DCL     12367>>DOSELCT 12375>>DOSELCT
P$B.NSUBLKS
     12314**DCL     12372>>ASSIGN
P$B.SUBLK$
     12335**DCL     12367>>DOSELCT 12372>>ASSIGN  12374>>ASSIGN  12374>>ASSIGN
PARSE_ALT
     12430**LABEL   12366--CALLALT
PROJ.FLAGS
        15**DCL     12411<<ASSIGN
PROJ_FLAGS
        11**DCL         7--PROC       12--REDEF   12356<<ASSIGN  12377<<ASSIGN  12378<<ASSIGN  12380<<ASSIGN
     12382<<ASSIGN  12384<<ASSIGN  12385<<ASSIGN  12387<<ASSIGN  12395<<ASSIGN  12403<<ASSIGN  12404<<ASSIGN
     12405<<ASSIGN  12406<<ASSIGN  12407<<ASSIGN  12408<<ASSIGN  12409<<ASSIGN
PROJ_KEY.TEXT
      9288**DCL      9288--REDEF
PROJ_KEY.TXT.PROJECT
      9288**DCL      9288--REDEF
P_PCB
      9443**DCL     12366<>CALL
P_PCB.ERROR
      9547**DCL     12430<>CALL
PL6.E3A0      #002=ASL$LIST_PROJ_OPTS File=ASL$LIST_PROJECTS.:E05TSI             TUE 07/29/97 10:22 Page:121
P_PCB.NCHARS
      9590**DCL     12365<<ASSIGN
P_PCB.OUT$
      9456**DCL     12302--IMP-PTR 12367>>DOSELCT 12372>>ASSIGN  12374>>ASSIGN
P_PCB.ROOT$
      9448**DCL     12361<<ASSIGN
REMEM_VAR
      9414**DCL      9414--REDEF   12362<<REMEMBR
REM_FCMD
      9414**DCL      9415--REDEF
USERS_KEY.TEXT
      9285**DCL      9286--REDEF    9286--REDEF    9286--REDEF    9287--REDEF
X$PARSE
     12279**DCL-ENT 12366--CALL
