PL6.E3A0      #001=ASL$DISP_ONE_PROFILE File=ASL$L_PRO.:E05TSI                   TUE 07/29/97 10:26 Page:494
         4 015633   000011 056000 xsym               ASQ     FDS+9

     2668    20247    4      SBIN_IDX = SBIN_IDX + 2 ;

  20247  4 015634   200077 056100                    ASQ     SBIN_IDX,,AUTO

     2669    20248    4      CALL INSERT(FMT_BUF,FDS.FMT_.BOUND+1,8,'%+D.%1ZD') ;

  20248  4 015635   000000 236000 xsym               LDQ     FDS
         4 015636   000020 772000                    QRL     16
         4 015637   040006 100400                    MLR     fill='040'O
         4 015640   003767 000010 3                  ADSC9   FUNKEY_NAMES+1548        cn=0,n=8
         4 015641   000000 200010 xsym               ADSC9   FMT_BUF,Q                cn=1,n=8

     2670    20249    4      FDS.FMT_.BOUND = FDS.FMT_.BOUND + 8 ;

  20249  4 015642   000010 036007                    ADLQ    8,DL
         4 015643   000020 736000                    QLS     16
         4 015644   000000 676000 xsym               ERQ     FDS
         4 015645   000034 376000 xsym               ANQ     B_VECTNIL+28
         4 015646   000000 656000 xsym               ERSQ    FDS
         4 015647   016271 710000 4                  TRA     s:20332

     2671    20250    4      SELECT(14 /* C_HEX */) ;

     2672    20251    5      DO I = 5 TO 8 ;

  20251  4 015650   000005 235007                    LDA     5,DL
         4 015651   200163 755100                    STA     I,,AUTO

     2673    20252    5         RHEX_BUF(I-5) = HEX_CHARS(HEX_NUM(I)) ;

  20252  4 015652   200163 235100                    LDA     I,,AUTO
         4 015653   000002 735000                    ALS     2
         4 015654   003100 061505                    CSR     bolr='003'O
         4 015655   200144 000004                    BDSC    UHEX_NUM,A,AUTO          by=0,bit=0,n=4
         4 015656   200366 000044                    BDSC    TEMP+4,,AUTO             by=0,bit=0,n=36
PL6.E3A0      #001=ASL$DISP_ONE_PROFILE File=ASL$L_PRO.:E05TSI                   TUE 07/29/97 10:26 Page:495
         4 015657   200366 236100                    LDQ     TEMP+4,,AUTO
         4 015660   200163 235100                    LDA     I,,AUTO
         4 015661   040105 100406                    MLR     fill='040'O
         4 015662   000042 000001 2                  ADSC9   HEX_CHARS,Q              cn=0,n=1
         4 015663   200143 600001                    ADSC9   SPLIT$,A,AUTO            cn=3,n=1

     2674    20253    5         END ;                     /* Do i                               */

  20253  4 015664   000001 035007                    ADLA    1,DL
         4 015665   200163 755100                    STA     I,,AUTO
         4 015666   000011 115007                    CMPA    9,DL
         4 015667   015652 602000 4                  TNC     s:20252

     2675    20254    4      CALL EDITSTR( HEX_BUF, 0, 4, MOP_STR, HEX_BUF );

  20254  4 015670   100000 020500                    MVE
         4 015671   200145 000004                    ADSC9   HEX_BUF,,AUTO            cn=0,n=4
         4 015672   000733 000002 3                  ADSC9   MOP_STR                  cn=0,n=2
         4 015673   200145 000004                    ADSC9   HEX_BUF,,AUTO            cn=0,n=4

     2676    20255    4      CALL INDEX1R( I, AS_BLANK, HEX_BUF )

  20255  4 015674   000000 125500                    SCMR    mask='000'O
         4 015675   200145 000004                    ADSC9   HEX_BUF,,AUTO            cn=0,n=4
         4 015676   000000 000001 xsym               ADSC9   AS_BLANK                 cn=0,n=1
         4 015677   200163 000100                    ARG     I,,AUTO
         4 015700   015707 606400 4                  TTN     s:20260
         4 015701   000003 236007                    LDQ     3,DL
         4 015702   200163 156100                    SSQ     I,,AUTO

     2677    20256    5      WHENRETURN DO;

     2678    20257    5         I = I + 1;

  20257  4 015703   200163 235100                    LDA     I,,AUTO
         4 015704   000001 035007                    ADLA    1,DL
         4 015705   200163 755100                    STA     I,,AUTO
PL6.E3A0      #001=ASL$DISP_ONE_PROFILE File=ASL$L_PRO.:E05TSI                   TUE 07/29/97 10:26 Page:496

     2679    20258    5         END;

  20258  4 015706   015710 710000 4                  TRA     s:20262

     2680    20259    5      WHENALTRETURN DO;

     2681    20260    5         I = 0;

  20260  4 015707   200163 450100                    STZ     I,,AUTO

     2682    20261    5         END ;

     2683    20262    4      CALL INSERT(FMT_BUF,FDS.FMT_.BOUND+1,7-I,'X''',SUBSTR(HEX_BUF,I,4-I),'''') ;

  20262  4 015710   000000 236000 xsym               LDQ     FDS
         4 015711   000020 772000                    QRL     16
         4 015712   200163 720100                    LXL0    I,,AUTO
         4 015713   777770 620010                    EAX0    -8,X0
         4 015714   777777 660003                    ERX0    -1,DU
         4 015715   040046 100400                    MLR     fill='040'O
         4 015716   003771 000002 3                  ADSC9   FUNKEY_NAMES+1550        cn=0,n=2
         4 015717   000000 200010 xsym               ADSC9   FMT_BUF,Q                cn=1,n=*X0
         4 015720   200366 756100                    STQ     TEMP+4,,AUTO
         4 015721   200163 236100                    LDQ     I,,AUTO
         4 015722   000005 116007                    CMPQ    5,DL
         4 015723   015747 603000 4                  TRC     s:20263
         4 015724   777773 621006                    EAX1    -5,QL
         4 015725   777777 661003                    ERX1    -1,DU
         4 015726   777772 622006                    EAX2    -6,QL
         4 015727   777777 662003                    ERX2    -1,DU
         4 015730   200366 235100                    LDA     TEMP+4,,AUTO
         4 015731   040045 100546                    MLR     fill='040'O
         4 015732   200145 000011                    ADSC9   HEX_BUF,Q,AUTO           cn=0,n=*X1
         4 015733   000000 600012 xsym               ADSC9   FMT_BUF,A                cn=3,n=*X2
         4 015734   200163 136100                    SBLQ    I,,AUTO
         4 015735   000027 116000 xsym               CMPQ    B_VECTNIL+23
PL6.E3A0      #001=ASL$DISP_ONE_PROFILE File=ASL$L_PRO.:E05TSI                   TUE 07/29/97 10:26 Page:497
         4 015736   015747 604400 4                  TMOZ    s:20263
         4 015737   200367 756100                    STQ     TEMP+5,,AUTO
         4 015740   200366 236100                    LDQ     TEMP+4,,AUTO
         4 015741   200163 136100                    SBLQ    I,,AUTO
         4 015742   200367 723100                    LXL3    TEMP+5,,AUTO
         4 015743   000001 624013                    EAX4    1,X3
         4 015744   040046 100400                    MLR     fill='040'O
         4 015745   000242 000001 5                  ADSC9   162                      cn=0,n=1
         4 015746   000001 600014 xsym               ADSC9   FMT_BUF+1,Q              cn=3,n=*X4

     2684    20263    4      FDS.FMT_.BOUND = FDS.FMT_.BOUND + 7-I ;

  20263  4 015747   000000 236000 xsym               LDQ     FDS
         4 015750   000020 772000                    QRL     16
         4 015751   200163 136100                    SBLQ    I,,AUTO
         4 015752   000007 036007                    ADLQ    7,DL
         4 015753   000020 736000                    QLS     16
         4 015754   000000 676000 xsym               ERQ     FDS
         4 015755   000034 376000 xsym               ANQ     B_VECTNIL+28
         4 015756   000000 656000 xsym               ERSQ    FDS
         4 015757   016271 710000 4                  TRA     s:20332

     2685    20264    4      SELECT(15 /*C_HEX_LIST */) ;

     2686    20265    4      IF PTR$ = SETUP_CHR$ THEN

  20265  4 015760   200153 236100                    LDQ     PTR$,,AUTO
         4 015761   000157 116000 2                  CMPQ    SETUP_CHR$
         4 015762   015766 601000 4                  TNZ     s:20268

     2687    20266    4         PTR$ = PINCRC (PTR$,1);

  20266  4 015763   200000 036007                    ADLQ    65536,DL
         4 015764   200153 756100                    STQ     PTR$,,AUTO
         4 015765   016005 710000 4                  TRA     s:20270

     2688    20267    4      ELSE
PL6.E3A0      #001=ASL$DISP_ONE_PROFILE File=ASL$L_PRO.:E05TSI                   TUE 07/29/97 10:26 Page:498
     2689    20268    4         IF PTR$ -> ABYTE ~= 0 THEN

  20268  4 015766   200153 470500                    LDP0    PTR$,,AUTO
         4 015767   000100 101500                    MRL     fill='000'O
         4 015770   000000 000001                    ADSC9   0,,PR0                   cn=0,n=1
         4 015771   200366 000004                    ADSC9   TEMP+4,,AUTO             cn=0,n=4
         4 015772   200366 236100                    LDQ     TEMP+4,,AUTO
         4 015773   000000 116003                    CMPQ    0,DU
         4 015774   016005 600000 4                  TZE     s:20270

     2690    20269    4            PTR$ = PINCRC (ADDR(TCCHR$->KL$CCHR.TXT_UBIN),PTR$->ABYTE);

  20269  4 015775   000100 101500                    MRL     fill='000'O
         4 015776   000000 000001                    ADSC9   0,,PR0                   cn=0,n=1
         4 015777   200366 000004                    ADSC9   TEMP+4,,AUTO             cn=0,n=4
         4 016000   200366 236100                    LDQ     TEMP+4,,AUTO
         4 016001   000020 736000                    QLS     16
         4 016002   000236 036000 5                  ADLQ    158
         4 016003   000137 036000 2                  ADLQ    TCCHR$
         4 016004   200153 756100                    STQ     PTR$,,AUTO

     2691    20270    4      CALL DO_HEX_LIST (PTR$);

  20270  4 016005   200153 630500                    EPPR0   PTR$,,AUTO
         4 016006   200273 450500                    STP0    SET+3,,AUTO
         4 016007   016273 701000 4                  TSX1    DO_HEX_LIST
         4 016010   000000 011000                    NOP     0
         4 016011   016271 710000 4                  TRA     s:20332

     2692    20271    4      SELECT( 16 /* C_VDH_ALG_TYPE */ );

     2693    20272    5      DO SELECT( VDH_ALG_TYPE );

  20272  4 016012   200161 236100                    LDQ     VDH_ALG_TYPE,,AUTO
         4 016013   000001 116007                    CMPQ    1,DL
         4 016014   016024 602000 4                  TNC     s:20272+10
         4 016015   016037 600000 4                  TZE     s:20276
PL6.E3A0      #001=ASL$DISP_ONE_PROFILE File=ASL$L_PRO.:E05TSI                   TUE 07/29/97 10:26 Page:499
         4 016016   000002 116007                    CMPQ    2,DL
         4 016017   016066 602000 4                  TNC     s:20282
         4 016020   016047 600000 4                  TZE     s:20278
         4 016021   000003 116007                    CMPQ    3,DL
         4 016022   016066 601000 4                  TNZ     s:20282
         4 016023   016057 710000 4                  TRA     s:20280
         4 016024   000000 116003                    CMPQ    0,DU
         4 016025   016027 600000 4                  TZE     s:20274
         4 016026   016066 710000 4                  TRA     s:20282

     2694    20273    5         SELECT( 0 /* NONE */ );

     2695    20274    5         FMT_VEC(FDS.NVECS#) = VECTOR(NONE_STR);

  20274  4 016027   000011 235000 xsym               LDA     FDS+9
         4 016030   000001 735000                    ALS     1
         4 016031   000000 620005                    EAX0    0,AL
         4 016032   000000 621005                    EAX1    0,AL
         4 016033   000100 237000 5                  LDAQ    64
         4 016034   000000 755010 xsym               STA     FMT_VEC,X0
         4 016035   000001 756011 xsym               STQ     FMT_VEC+1,X1
         4 016036   016066 710000 4                  TRA     s:20282

     2696    20275    5         SELECT( 1 /* ANS */ );

     2697    20276    5         FMT_VEC(FDS.NVECS#) = VECTOR(ANS_STR);

  20276  4 016037   000011 235000 xsym               LDA     FDS+9
         4 016040   000001 735000                    ALS     1
         4 016041   000000 620005                    EAX0    0,AL
         4 016042   000000 621005                    EAX1    0,AL
         4 016043   000102 237000 5                  LDAQ    66
         4 016044   000000 755010 xsym               STA     FMT_VEC,X0
         4 016045   000001 756011 xsym               STQ     FMT_VEC+1,X1
         4 016046   016066 710000 4                  TRA     s:20282

     2698    20277    5         SELECT( 2 /* 2 */ );
PL6.E3A0      #001=ASL$DISP_ONE_PROFILE File=ASL$L_PRO.:E05TSI                   TUE 07/29/97 10:26 Page:500

     2699    20278    5         FMT_VEC(FDS.NVECS#) = VECTOR(TWO_STR);

  20278  4 016047   000011 235000 xsym               LDA     FDS+9
         4 016050   000001 735000                    ALS     1
         4 016051   000000 620005                    EAX0    0,AL
         4 016052   000000 621005                    EAX1    0,AL
         4 016053   000244 237000 5                  LDAQ    164
         4 016054   000000 755010 xsym               STA     FMT_VEC,X0
         4 016055   000001 756011 xsym               STQ     FMT_VEC+1,X1
         4 016056   016066 710000 4                  TRA     s:20282

     2700    20279    5         SELECT( 3 /* 3 */ );

     2701    20280    5         FMT_VEC(FDS.NVECS#) = VECTOR(THREE_STR);

  20280  4 016057   000011 235000 xsym               LDA     FDS+9
         4 016060   000001 735000                    ALS     1
         4 016061   000000 620005                    EAX0    0,AL
         4 016062   000000 621005                    EAX1    0,AL
         4 016063   000246 237000 5                  LDAQ    166
         4 016064   000000 755010 xsym               STA     FMT_VEC,X0
         4 016065   000001 756011 xsym               STQ     FMT_VEC+1,X1

     2702    20281    5         END;

     2703    20282    4      FDS.NVECS# = FDS.NVECS# + 1;

  20282  4 016066   000011 054000 xsym               AOS     FDS+9

     2704    20283    4      CALL INSERT(FMT_BUF,FDS.FMT_.BOUND+1,3,'%>A');

  20283  4 016067   000000 236000 xsym               LDQ     FDS
         4 016070   000020 772000                    QRL     16
         4 016071   040006 100400                    MLR     fill='040'O
         4 016072   003765 000003 3                  ADSC9   FUNKEY_NAMES+1546        cn=0,n=3
         4 016073   000000 200003 xsym               ADSC9   FMT_BUF,Q                cn=1,n=3
PL6.E3A0      #001=ASL$DISP_ONE_PROFILE File=ASL$L_PRO.:E05TSI                   TUE 07/29/97 10:26 Page:501

     2705    20284    4      FDS.FMT_.BOUND = FDS.FMT_.BOUND + 3;

  20284  4 016074   000003 036007                    ADLQ    3,DL
         4 016075   000020 736000                    QLS     16
         4 016076   000000 676000 xsym               ERQ     FDS
         4 016077   000034 376000 xsym               ANQ     B_VECTNIL+28
         4 016100   000000 656000 xsym               ERSQ    FDS
         4 016101   016271 710000 4                  TRA     s:20332

     2706    20285    4      SELECT( 17 /* C_ABSGRPRND */ );

     2707    20286    4      CALL INSERT( FMT_BUF, FDS.FMT_.BOUND+1, 12, '%N(%>A,%)%>A' );

  20286  4 016102   000000 236000 xsym               LDQ     FDS
         4 016103   000020 772000                    QRL     16
         4 016104   040006 100400                    MLR     fill='040'O
         4 016105   003772 000014 3                  ADSC9   FUNKEY_NAMES+1551        cn=0,n=12
         4 016106   000000 200014 xsym               ADSC9   FMT_BUF,Q                cn=1,n=12

     2708    20287    4      FDS.FMT_.BOUND = FDS.FMT_.BOUND + 12;

  20287  4 016107   000014 036007                    ADLQ    12,DL
         4 016110   000020 736000                    QLS     16
         4 016111   000000 676000 xsym               ERQ     FDS
         4 016112   000034 376000 xsym               ANQ     B_VECTNIL+28
         4 016113   000000 656000 xsym               ERSQ    FDS

     2709    20288    4      FMT_VEC(FDS.NVECS#) = VECTOR(SBINS(SBIN_IDX));

  20288  4 016114   000011 235000 xsym               LDA     FDS+9
         4 016115   000001 735000                    ALS     1
         4 016116   000000 620005                    EAX0    0,AL
         4 016117   777640 235007                    LDA     -96,DL
         4 016120   200366 452500                    STP2    TEMP+4,,AUTO
         4 016121   200077 236100                    LDQ     SBIN_IDX,,AUTO
         4 016122   000022 736000                    QLS     18
PL6.E3A0      #001=ASL$DISP_ONE_PROFILE File=ASL$L_PRO.:E05TSI                   TUE 07/29/97 10:26 Page:502
         4 016123   000007 036003                    ADLQ    7,DU
         4 016124   200366 036100                    ADLQ    TEMP+4,,AUTO
         4 016125   000000 755010 xsym               STA     FMT_VEC,X0
         4 016126   000001 756010 xsym               STQ     FMT_VEC+1,X0

     2710    20289    4      FDS.NVECS# = FDS.NVECS# + 1;

  20289  4 016127   000011 054000 xsym               AOS     FDS+9

     2711    20290    4      SBINS(SBIN_IDX) = -1;

  20290  4 016130   000001 335007                    LCA     1,DL
         4 016131   200077 720100                    LXL0    SBIN_IDX,,AUTO
         4 016132   200007 755110                    STA     SBINS,X0,AUTO

     2712    20291    5      IF KL$ABSGRPRND.FLAGS.HDN# THEN DO;

  20291  4 016133   000145 470400 2                  LDP0    KL_ABSGRPRND$
         4 016134   000000 066500                    CMPB    filb='0'B
         4 016135   000000 420001                    BDSC    0,,PR0                   by=2,bit=2,n=1
         4 016136   000002 000022 xsym               BDSC    B_VECTNIL+2              by=0,bit=0,n=18
         4 016137   016151 600000 4                  TZE     s:20296

     2713    20292    5         FMT_VEC(FDS.NVECS#) = VECTOR(HDN_STR);

  20292  4 016140   000011 236000 xsym               LDQ     FDS+9
         4 016141   000001 736000                    QLS     1
         4 016142   000000 621006                    EAX1    0,QL
         4 016143   000000 622006                    EAX2    0,QL
         4 016144   000250 237000 5                  LDAQ    168
         4 016145   000000 755011 xsym               STA     FMT_VEC,X1
         4 016146   000001 756012 xsym               STQ     FMT_VEC+1,X2

     2714    20293    5         FDS.NVECS# = FDS.NVECS# + 1;

  20293  4 016147   000011 054000 xsym               AOS     FDS+9

PL6.E3A0      #001=ASL$DISP_ONE_PROFILE File=ASL$L_PRO.:E05TSI                   TUE 07/29/97 10:26 Page:503
     2715    20294    5         SBINS(SBIN_IDX) = SBINS(SBIN_IDX) + 1;

  20294  4 016150   200007 054110                    AOS     SBINS,X0,AUTO

     2716    20295    5         END;

     2717    20296    5      IF KL$ABSGRPRND.FLAGS.INCINT# THEN DO;

  20296  4 016151   000000 066500                    CMPB    filb='0'B
         4 016152   000000 430001                    BDSC    0,,PR0                   by=2,bit=3,n=1
         4 016153   000002 000022 xsym               BDSC    B_VECTNIL+2              by=0,bit=0,n=18
         4 016154   016166 600000 4                  TZE     s:20301

     2718    20297    5         FMT_VEC(FDS.NVECS#) = VECTOR(INCINT_STR);

  20297  4 016155   000011 235000 xsym               LDA     FDS+9
         4 016156   000001 735000                    ALS     1
         4 016157   000000 621005                    EAX1    0,AL
         4 016160   000000 622005                    EAX2    0,AL
         4 016161   000252 237000 5                  LDAQ    170
         4 016162   000000 755011 xsym               STA     FMT_VEC,X1
         4 016163   000001 756012 xsym               STQ     FMT_VEC+1,X2

     2719    20298    5         FDS.NVECS# = FDS.NVECS# + 1;

  20298  4 016164   000011 054000 xsym               AOS     FDS+9

     2720    20299    5         SBINS(SBIN_IDX) = SBINS(SBIN_IDX) + 1;

  20299  4 016165   200007 054110                    AOS     SBINS,X0,AUTO

     2721    20300    5         END;

     2722    20301    5      IF KL$ABSGRPRND.FLAGS.DCRINT# THEN DO;

  20301  4 016166   000000 066500                    CMPB    filb='0'B
         4 016167   000000 440001                    BDSC    0,,PR0                   by=2,bit=4,n=1
PL6.E3A0      #001=ASL$DISP_ONE_PROFILE File=ASL$L_PRO.:E05TSI                   TUE 07/29/97 10:26 Page:504
         4 016170   000002 000022 xsym               BDSC    B_VECTNIL+2              by=0,bit=0,n=18
         4 016171   016203 600000 4                  TZE     s:20306

     2723    20302    5         FMT_VEC(FDS.NVECS#) = VECTOR(DCRINT_STR);

  20302  4 016172   000011 235000 xsym               LDA     FDS+9
         4 016173   000001 735000                    ALS     1
         4 016174   000000 621005                    EAX1    0,AL
         4 016175   000000 622005                    EAX2    0,AL
         4 016176   000254 237000 5                  LDAQ    172
         4 016177   000000 755011 xsym               STA     FMT_VEC,X1
         4 016200   000001 756012 xsym               STQ     FMT_VEC+1,X2

     2724    20303    5         FDS.NVECS# = FDS.NVECS# + 1;

  20303  4 016201   000011 054000 xsym               AOS     FDS+9

     2725    20304    5         SBINS(SBIN_IDX) = SBINS(SBIN_IDX) + 1;

  20304  4 016202   200007 054110                    AOS     SBINS,X0,AUTO

     2726    20305    5         END;

     2727    20306    5      IF KL$ABSGRPRND.FLAGS.UNDSCR# THEN DO;

  20306  4 016203   000000 066500                    CMPB    filb='0'B
         4 016204   000000 450001                    BDSC    0,,PR0                   by=2,bit=5,n=1
         4 016205   000002 000022 xsym               BDSC    B_VECTNIL+2              by=0,bit=0,n=18
         4 016206   016220 600000 4                  TZE     s:20311

     2728    20307    5         FMT_VEC(FDS.NVECS#) = VECTOR(UNDSCR_STR);

  20307  4 016207   000011 235000 xsym               LDA     FDS+9
         4 016210   000001 735000                    ALS     1
         4 016211   000000 621005                    EAX1    0,AL
         4 016212   000000 622005                    EAX2    0,AL
         4 016213   000256 237000 5                  LDAQ    174
PL6.E3A0      #001=ASL$DISP_ONE_PROFILE File=ASL$L_PRO.:E05TSI                   TUE 07/29/97 10:26 Page:505
         4 016214   000000 755011 xsym               STA     FMT_VEC,X1
         4 016215   000001 756012 xsym               STQ     FMT_VEC+1,X2

     2729    20308    5         FDS.NVECS# = FDS.NVECS# + 1;

  20308  4 016216   000011 054000 xsym               AOS     FDS+9

     2730    20309    5         SBINS(SBIN_IDX) = SBINS(SBIN_IDX) + 1;

  20309  4 016217   200007 054110                    AOS     SBINS,X0,AUTO

     2731    20310    5         END;

     2732    20311    5      IF KL$ABSGRPRND.FLAGS.SLWBLN# THEN DO;

  20311  4 016220   000000 066500                    CMPB    filb='0'B
         4 016221   000000 460001                    BDSC    0,,PR0                   by=2,bit=6,n=1
         4 016222   000002 000022 xsym               BDSC    B_VECTNIL+2              by=0,bit=0,n=18
         4 016223   016235 600000 4                  TZE     s:20316

     2733    20312    5         FMT_VEC(FDS.NVECS#) = VECTOR(SLWBLN_STR);

  20312  4 016224   000011 235000 xsym               LDA     FDS+9
         4 016225   000001 735000                    ALS     1
         4 016226   000000 621005                    EAX1    0,AL
         4 016227   000000 622005                    EAX2    0,AL
         4 016230   000260 237000 5                  LDAQ    176
         4 016231   000000 755011 xsym               STA     FMT_VEC,X1
         4 016232   000001 756012 xsym               STQ     FMT_VEC+1,X2

     2734    20313    5         FDS.NVECS# = FDS.NVECS# + 1;

  20313  4 016233   000011 054000 xsym               AOS     FDS+9

     2735    20314    5         SBINS(SBIN_IDX) = SBINS(SBIN_IDX) + 1;

  20314  4 016234   200007 054110                    AOS     SBINS,X0,AUTO
PL6.E3A0      #001=ASL$DISP_ONE_PROFILE File=ASL$L_PRO.:E05TSI                   TUE 07/29/97 10:26 Page:506

     2736    20315    5         END;

     2737    20316    5      IF KL$ABSGRPRND.FLAGS.FSTBLN# THEN DO;

  20316  4 016235   000000 066500                    CMPB    filb='0'B
         4 016236   000000 470001                    BDSC    0,,PR0                   by=2,bit=7,n=1
         4 016237   000002 000022 xsym               BDSC    B_VECTNIL+2              by=0,bit=0,n=18
         4 016240   016252 600000 4                  TZE     s:20321

     2738    20317    5         FMT_VEC(FDS.NVECS#) = VECTOR(FSTBLN_STR);

  20317  4 016241   000011 235000 xsym               LDA     FDS+9
         4 016242   000001 735000                    ALS     1
         4 016243   000000 621005                    EAX1    0,AL
         4 016244   000000 622005                    EAX2    0,AL
         4 016245   000262 237000 5                  LDAQ    178
         4 016246   000000 755011 xsym               STA     FMT_VEC,X1
         4 016247   000001 756012 xsym               STQ     FMT_VEC+1,X2

     2739    20318    5         FDS.NVECS# = FDS.NVECS# + 1;

  20318  4 016250   000011 054000 xsym               AOS     FDS+9

     2740    20319    5         SBINS(SBIN_IDX) = SBINS(SBIN_IDX) + 1;

  20319  4 016251   200007 054110                    AOS     SBINS,X0,AUTO

     2741    20320    5         END;

     2742    20321    5      IF KL$ABSGRPRND.FLAGS.RVRVID# THEN DO;

  20321  4 016252   000000 066500                    CMPB    filb='0'B
         4 016253   000000 500001                    BDSC    0,,PR0                   by=2,bit=8,n=1
         4 016254   000002 000022 xsym               BDSC    B_VECTNIL+2              by=0,bit=0,n=18
         4 016255   016267 600000 4                  TZE     s:20326

PL6.E3A0      #001=ASL$DISP_ONE_PROFILE File=ASL$L_PRO.:E05TSI                   TUE 07/29/97 10:26 Page:507
     2743    20322    5         FMT_VEC(FDS.NVECS#) = VECTOR(RVRVID_STR);

  20322  4 016256   000011 235000 xsym               LDA     FDS+9
         4 016257   000001 735000                    ALS     1
         4 016260   000000 621005                    EAX1    0,AL
         4 016261   000000 622005                    EAX2    0,AL
         4 016262   000264 237000 5                  LDAQ    180
         4 016263   000000 755011 xsym               STA     FMT_VEC,X1
         4 016264   000001 756012 xsym               STQ     FMT_VEC+1,X2

     2744    20323    5         FDS.NVECS# = FDS.NVECS# + 1;

  20323  4 016265   000011 054000 xsym               AOS     FDS+9

     2745    20324    5         SBINS(SBIN_IDX) = SBINS(SBIN_IDX) + 1;

  20324  4 016266   200007 054110                    AOS     SBINS,X0,AUTO

     2746    20325    5         END;

     2747    20326    4      SBIN_IDX = SBIN_IDX + 1;

  20326  4 016267   200077 054100                    AOS     SBIN_IDX,,AUTO
         4 016270   016271 710000 4                  TRA     s:20332

     2748    20327    4      SELECT (28 /* C_ALL_DONE */);

     2749    20328              /* This case is empty because all the building of the format
     2750    20329                 buffer has been completed.  The templates are done, all that
     2751    20330                 remains is to call X$FORMAT.  */
     2752    20331    4      END ;                          /* Do case                            */

     2753    20332    3   RETURN ;

  20332  4 016271   200160 221300                    LDX1  ! MORE,,AUTO
         4 016272   000001 702211                    TSX2  ! 1,X1

PL6.E3A0      #001=ASL$DISP_ONE_PROFILE File=ASL$L_PRO.:E05TSI                   TUE 07/29/97 10:26 Page:508
     2754    20333        %EJECT ;
PL6.E3A0      #001=ASL$DISP_ONE_PROFILE File=ASL$L_PRO.:E05TSI                   TUE 07/29/97 10:26 Page:509
     2755    20334    3   END   INSERT_FIELD ;
     2756    20335    2   END   LIST_FIELDS ;
     2757    20336        %EJECT;
PL6.E3A0      #001=ASL$DISP_ONE_PROFILE File=ASL$L_PRO.:E05TSI                   TUE 07/29/97 10:26 Page:510
     2758    20337    1   DO_HEX_LIST: PROC (PTR$);

  20337  4 016273   200272 741300       DO_HEX_LIST  STX1  ! SET+2,,AUTO

     2759    20338
     2760    20339        /*
     2761    20340           In setting up for this routine,  there will be some indexing into
     2762    20341           the KL$CCHR.TXT_UBIN array.  If the index is 0, it means that the
     2763    20342           field we are currently trying do display was not set, or was set
     2764    20343           to none.  So, we will leave the pointer, PTR$, pointing at the
     2765    20344           index and not at the place in the KL$CCHR.TXT_UBIN array where
     2766    20345           the field starts.
     2767    20346           I also assume that PTR$ is pointing at a textc type structure,
     2768    20347           ie. a string with a count as the first byte followed by count
     2769    20348           number of bytes that represent the field we are interested in.
     2770    20349        */
     2771    20350    2   DCL PTR$ PTR;
     2772    20351    2   DCL TEMP$ PTR;
     2773    20352    2   DCL I  UBIN;
     2774    20353    2   DCL COUNT UBIN;
     2775    20354    2   DCL POS UBIN ;
     2776    20355    2   DCL STRING  CHAR(256)  BASED;
     2777    20356    2   DCL ABYTE  UBIN BYTE BASED CALIGNED;
     2778    20357
     2779    20358    2   COUNT = PTR$ -> ABYTE;

  20358  4 016274   200273 470500                    LDP0    @PTR$,,AUTO
         4 016275   000000 471500                    LDP1    0,,PR0
         4 016276   000100 101500                    MRL     fill='000'O
         4 016277   100000 000001                    ADSC9   0,,PR1                   cn=0,n=1
         4 016300   200276 000004                    ADSC9   COUNT,,AUTO              cn=0,n=4

     2780    20359    2   PTR$ = PINCRC(PTR$,1);

  20359  4 016301   000000 236100                    LDQ     0,,PR0
         4 016302   200000 036007                    ADLQ    65536,DL
         4 016303   000000 756100                    STQ     0,,PR0
PL6.E3A0      #001=ASL$DISP_ONE_PROFILE File=ASL$L_PRO.:E05TSI                   TUE 07/29/97 10:26 Page:511

     2781    20360
     2782    20361    3   IF COUNT ~= 0 THEN DO;

  20361  4 016304   200276 235100                    LDA     COUNT,,AUTO
         4 016305   016651 600000 4                  TZE     s:20429

     2783    20362    3      I = 1;

  20362  4 016306   000001 235007                    LDA     1,DL
         4 016307   200275 755100                    STA     I,,AUTO

     2784    20363    4      DO WHILE I <= COUNT;

  20363  4 016310   200276 236100                    LDQ     COUNT,,AUTO
         4 016311   200275 116100                    CMPQ    I,,AUTO
         4 016312   016641 602000 4                  TNC     s:20426

     2785    20364    4         IF (PTR$ -> ABYTE = 127) OR

  20364  4 016313   200273 470500                    LDP0    @PTR$,,AUTO
         4 016314   000000 471500                    LDP1    0,,PR0
         4 016315   000100 101500                    MRL     fill='000'O
         4 016316   100000 000001                    ADSC9   0,,PR1                   cn=0,n=1
         4 016317   200366 000004                    ADSC9   TEMP+4,,AUTO             cn=0,n=4
         4 016320   200366 236100                    LDQ     TEMP+4,,AUTO
         4 016321   000177 116007                    CMPQ    127,DL
         4 016322   016341 600000 4                  TZE     s:20372
         4 016323   000000 471500                    LDP1    0,,PR0
         4 016324   000100 101500                    MRL     fill='000'O
         4 016325   100000 000001                    ADSC9   0,,PR1                   cn=0,n=1
         4 016326   200367 000004                    ADSC9   TEMP+5,,AUTO             cn=0,n=4
         4 016327   200367 236100                    LDQ     TEMP+5,,AUTO
         4 016330   000000 116003                    CMPQ    0,DU
         4 016331   016427 600000 4                  TZE     s:20388
         4 016332   000000 471500                    LDP1    0,,PR0
         4 016333   000100 101500                    MRL     fill='000'O
PL6.E3A0      #001=ASL$DISP_ONE_PROFILE File=ASL$L_PRO.:E05TSI                   TUE 07/29/97 10:26 Page:512
         4 016334   100000 000001                    ADSC9   0,,PR1                   cn=0,n=1
         4 016335   200370 000004                    ADSC9   TEMP+6,,AUTO             cn=0,n=4
         4 016336   200370 236100                    LDQ     TEMP+6,,AUTO
         4 016337   000040 116007                    CMPQ    32,DL
         4 016340   016427 605000 4                  TPL     s:20388

     2786    20365    5              ((PTR$->ABYTE > 0) AND (PTR$->ABYTE < 32)) THEN DO;

     2787    20366                                            /*  Unprintable characters
     2788    20367                 case (  0,  1,  2,  3,  4,  5,  6,  7,
     2789    20368                         8,  9, 10, 11, 12, 13, 14, 15,
     2790    20369                        16, 17, 18, 19, 20, 21, 22, 23,
     2791    20370                        24, 25, 26, 27, 28, 29, 30, 31, 127);    */
     2792    20371
     2793    20372    6            IF FDS.FMT_.BOUND + 4 > SIZEC (FMT_BUF) THEN DO;

  20372  4 016341   000000 236000 xsym               LDQ     FDS
         4 016342   000034 376000 xsym               ANQ     B_VECTNIL+28
         4 016343   000077 116003                    CMPQ    63,DU
         4 016344   016367 602000 4                  TNC     s:20379

     2794    20373    6               FDS.FMT_.BOUND = FDS.FMT_.BOUND - 1;

  20373  4 016345   000000 236000 xsym               LDQ     FDS
         4 016346   000020 772000                    QRL     16
         4 016347   000001 136007                    SBLQ    1,DL
         4 016350   000020 736000                    QLS     16
         4 016351   000000 676000 xsym               ERQ     FDS
         4 016352   000034 376000 xsym               ANQ     B_VECTNIL+28
         4 016353   000000 656000 xsym               ERSQ    FDS

     2795    20374    6               CALL X$FORMAT (FDS) ;

  20374  4 016354   000004 630400 5                  EPPR0   4
         4 016355   000017 631400 xsym               EPPR1   B_VECTNIL+15
         4 016356   000000 701000 xent               TSX1    X$FORMAT
         4 016357   000000 011000                    NOP     0
PL6.E3A0      #001=ASL$DISP_ONE_PROFILE File=ASL$L_PRO.:E05TSI                   TUE 07/29/97 10:26 Page:513

     2796    20375    6               FDS.NVECS# = 0;

  20375  4 016360   000011 450000 xsym               STZ     FDS+9

     2797    20376    6               SUBSTR (FMT_BUF,0,3) = '%4-';

  20376  4 016361   003775 236000 3                  LDQ     FUNKEY_NAMES+1554
         4 016362   000000 552070 xsym               STBQ    FMT_BUF,'70'O

     2798    20377    6               FDS.FMT_.BOUND = 2;

  20377  4 016363   000000 236000 xsym               LDQ     FDS
         4 016364   177777 376007                    ANQ     65535,DL
         4 016365   400000 276007                    ORQ     -131072,DL
         4 016366   000000 756000 xsym               STQ     FDS

     2799    20378    6               END;   /*  out of space in FMT_BUF  */

     2800    20379    5            FMT_VEC (FDS.NVECS#) = VECTOR (UNPRINT_TABLE.TXT(PTR$->ABYTE));

  20379  4 016367   000011 235000 xsym               LDA     FDS+9
         4 016370   000001 735000                    ALS     1
         4 016371   200273 470500                    LDP0    @PTR$,,AUTO
         4 016372   000000 471500                    LDP1    0,,PR0
         4 016373   000100 101500                    MRL     fill='000'O
         4 016374   100000 000001                    ADSC9   0,,PR1                   cn=0,n=1
         4 016375   200366 000002                    ADSC9   TEMP+4,,AUTO             cn=0,n=2
         4 016376   200366 220100                    LDX0    TEMP+4,,AUTO
         4 016377   000000 621005                    EAX1    0,AL
         4 016400   577640 235007                    LDA     -65632,DL
         4 016401   000000 636010                    EAQ     0,X0
         4 016402   000243 036000 5                  ADLQ    163
         4 016403   000000 755011 xsym               STA     FMT_VEC,X1
         4 016404   000001 756011 xsym               STQ     FMT_VEC+1,X1

     2801    20380    5            FDS.NVECS# = FDS.NVECS# + 1;
PL6.E3A0      #001=ASL$DISP_ONE_PROFILE File=ASL$L_PRO.:E05TSI                   TUE 07/29/97 10:26 Page:514

  20380  4 016405   000011 054000 xsym               AOS     FDS+9

     2802    20381    5            SUBSTR (FMT_BUF,FDS.FMT_.BOUND+1,4) = '%>A,';

  20381  4 016406   000000 236000 xsym               LDQ     FDS
         4 016407   000020 772000                    QRL     16
         4 016410   040006 100400                    MLR     fill='040'O
         4 016411   003776 000004 3                  ADSC9   FUNKEY_NAMES+1555        cn=0,n=4
         4 016412   000000 200004 xsym               ADSC9   FMT_BUF,Q                cn=1,n=4

     2803    20382    5            FDS.FMT_.BOUND = FDS.FMT_.BOUND + 4;

  20382  4 016413   000004 036007                    ADLQ    4,DL
         4 016414   000020 736000                    QLS     16
         4 016415   000000 676000 xsym               ERQ     FDS
         4 016416   000034 376000 xsym               ANQ     B_VECTNIL+28
         4 016417   000000 656000 xsym               ERSQ    FDS

     2804    20383    5            I = I + 1;

  20383  4 016420   200275 235100                    LDA     I,,AUTO
         4 016421   000001 035007                    ADLA    1,DL
         4 016422   200275 755100                    STA     I,,AUTO

     2805    20384    5            PTR$ = PINCRC (PTR$,1);

  20384  4 016423   000000 236100                    LDQ     0,,PR0
         4 016424   200000 036007                    ADLQ    65536,DL
         4 016425   000000 756100                    STQ     0,,PR0

     2806    20385
     2807    20386    5            END;   /*  Unprintable characters  */

  20386  4 016426   016636 710000 4                  TRA     s:20425

     2808    20387    4         ELSE
PL6.E3A0      #001=ASL$DISP_ONE_PROFILE File=ASL$L_PRO.:E05TSI                   TUE 07/29/97 10:26 Page:515
     2809    20388    5            IF ((PTR$->ABYTE > 31) AND (PTR$->ABYTE < 127)) THEN DO;

  20388  4 016427   000000 471500                    LDP1    0,,PR0
         4 016430   000100 101500                    MRL     fill='000'O
         4 016431   100000 000001                    ADSC9   0,,PR1                   cn=0,n=1
         4 016432   200366 000004                    ADSC9   TEMP+4,,AUTO             cn=0,n=4
         4 016433   200366 236100                    LDQ     TEMP+4,,AUTO
         4 016434   000040 116007                    CMPQ    32,DL
         4 016435   016560 604000 4                  TMI     s:20412
         4 016436   000000 471500                    LDP1    0,,PR0
         4 016437   000100 101500                    MRL     fill='000'O
         4 016440   100000 000001                    ADSC9   0,,PR1                   cn=0,n=1
         4 016441   200367 000004                    ADSC9   TEMP+5,,AUTO             cn=0,n=4
         4 016442   200367 236100                    LDQ     TEMP+5,,AUTO
         4 016443   000177 116007                    CMPQ    127,DL
         4 016444   016560 605000 4                  TPL     s:20412

     2810    20389                                         /*  Printable characters  */
     2811    20390    6               IF FDS.FMT_.BOUND + 5 > SIZEC (FMT_BUF) THEN DO;

  20390  4 016445   000000 236000 xsym               LDQ     FDS
         4 016446   000034 376000 xsym               ANQ     B_VECTNIL+28
         4 016447   000266 116000 5                  CMPQ    182
         4 016450   016473 602000 4                  TNC     s:20397

     2812    20391    6                  FDS.FMT_.BOUND = FDS.FMT_.BOUND - 1;

  20391  4 016451   000000 236000 xsym               LDQ     FDS
         4 016452   000020 772000                    QRL     16
         4 016453   000001 136007                    SBLQ    1,DL
         4 016454   000020 736000                    QLS     16
         4 016455   000000 676000 xsym               ERQ     FDS
         4 016456   000034 376000 xsym               ANQ     B_VECTNIL+28
         4 016457   000000 656000 xsym               ERSQ    FDS

     2813    20392    6                  CALL X$FORMAT (FDS) ;

PL6.E3A0      #001=ASL$DISP_ONE_PROFILE File=ASL$L_PRO.:E05TSI                   TUE 07/29/97 10:26 Page:516
  20392  4 016460   000004 630400 5                  EPPR0   4
         4 016461   000017 631400 xsym               EPPR1   B_VECTNIL+15
         4 016462   000000 701000 xent               TSX1    X$FORMAT
         4 016463   000000 011000                    NOP     0

     2814    20393    6                  FDS.NVECS# = 0;

  20393  4 016464   000011 450000 xsym               STZ     FDS+9

     2815    20394    6                  SUBSTR (FMT_BUF,0,3) = '%4-';

  20394  4 016465   003775 236000 3                  LDQ     FUNKEY_NAMES+1554
         4 016466   000000 552070 xsym               STBQ    FMT_BUF,'70'O

     2816    20395    6                  FDS.FMT_.BOUND = 2;

  20395  4 016467   000000 236000 xsym               LDQ     FDS
         4 016470   177777 376007                    ANQ     65535,DL
         4 016471   400000 276007                    ORQ     -131072,DL
         4 016472   000000 756000 xsym               STQ     FDS

     2817    20396    6                  END; /*  out of space in FMT_BUF  */

     2818    20397    5               POS = 0;

  20397  4 016473   200277 450100                    STZ     POS,,AUTO

     2819    20398    5               TEMP$ = PTR$;

  20398  4 016474   200273 470500                    LDP0    @PTR$,,AUTO
         4 016475   000000 236100                    LDQ     0,,PR0
         4 016476   200274 756100                    STQ     TEMP$,,AUTO

     2820    20399    6               DO WHILE PTR$->ABYTE > 31 AND PTR$ -> ABYTE < 127;

  20399  4 016477   016515 710000 4                  TRA     s:20405

PL6.E3A0      #001=ASL$DISP_ONE_PROFILE File=ASL$L_PRO.:E05TSI                   TUE 07/29/97 10:26 Page:517
     2821    20400    6                  PTR$ = PINCRC (PTR$,1);

  20400  4 016500   200273 470500                    LDP0    @PTR$,,AUTO
         4 016501   000000 236100                    LDQ     0,,PR0
         4 016502   200000 036007                    ADLQ    65536,DL
         4 016503   000000 756100                    STQ     0,,PR0

     2822    20401    6                  POS = POS + 1;

  20401  4 016504   200277 235100                    LDA     POS,,AUTO
         4 016505   000001 035007                    ADLA    1,DL
         4 016506   200277 755100                    STA     POS,,AUTO

     2823    20402    6                  I = I + 1;

  20402  4 016507   200275 235100                    LDA     I,,AUTO
         4 016510   000001 035007                    ADLA    1,DL
         4 016511   200275 755100                    STA     I,,AUTO

     2824    20403    6                  IF I > COUNT THEN

  20403  4 016512   200276 236100                    LDQ     COUNT,,AUTO
         4 016513   200275 116100                    CMPQ    I,,AUTO
         4 016514   016533 602000 4                  TNC     s:20406

     2825    20404    6                     EXIT;
     2826    20405    6                  END; /*   Do while a printable character  */

  20405  4 016515   000000 471500                    LDP1    0,,PR0
         4 016516   000100 101500                    MRL     fill='000'O
         4 016517   100000 000001                    ADSC9   0,,PR1                   cn=0,n=1
         4 016520   200366 000004                    ADSC9   TEMP+4,,AUTO             cn=0,n=4
         4 016521   200366 236100                    LDQ     TEMP+4,,AUTO
         4 016522   000040 116007                    CMPQ    32,DL
         4 016523   016533 604000 4                  TMI     s:20406
         4 016524   000000 471500                    LDP1    0,,PR0
         4 016525   000100 101500                    MRL     fill='000'O
PL6.E3A0      #001=ASL$DISP_ONE_PROFILE File=ASL$L_PRO.:E05TSI                   TUE 07/29/97 10:26 Page:518
         4 016526   100000 000001                    ADSC9   0,,PR1                   cn=0,n=1
         4 016527   200367 000004                    ADSC9   TEMP+5,,AUTO             cn=0,n=4
         4 016530   200367 236100                    LDQ     TEMP+5,,AUTO
         4 016531   000177 116007                    CMPQ    127,DL
         4 016532   016500 604000 4                  TMI     s:20400

     2827    20406    5               CALL INSERT (FMT_BUF,FDS.FMT_.BOUND+1,5,'''%A'',');

  20406  4 016533   000000 236000 xsym               LDQ     FDS
         4 016534   000020 772000                    QRL     16
         4 016535   040006 100400                    MLR     fill='040'O
         4 016536   003777 000005 3                  ADSC9   FUNKEY_NAMES+1556        cn=0,n=5
         4 016537   000000 200005 xsym               ADSC9   FMT_BUF,Q                cn=1,n=5

     2828    20407    5               FDS.FMT_.BOUND = FDS.FMT_.BOUND + 5;

  20407  4 016540   000005 036007                    ADLQ    5,DL
         4 016541   000020 736000                    QLS     16
         4 016542   000000 676000 xsym               ERQ     FDS
         4 016543   000034 376000 xsym               ANQ     B_VECTNIL+28
         4 016544   000000 656000 xsym               ERSQ    FDS

     2829    20408    5               FMT_VEC (FDS.NVECS#) = VECTOR (SUBSTR(TEMP$->STRING,0,POS));

  20408  4 016545   000011 235000 xsym               LDA     FDS+9
         4 016546   000001 735000                    ALS     1
         4 016547   200277 236100                    LDQ     POS,,AUTO
         4 016550   000000 620005                    EAX0    0,AL
         4 016551   000064 737000                    LLS     52
         4 016552   000140 135007                    SBLA    96,DL
         4 016553   200274 236100                    LDQ     TEMP$,,AUTO
         4 016554   000000 755010 xsym               STA     FMT_VEC,X0
         4 016555   000001 756010 xsym               STQ     FMT_VEC+1,X0

     2830    20409    5               FDS.NVECS# = FDS.NVECS# + 1;

  20409  4 016556   000011 054000 xsym               AOS     FDS+9
PL6.E3A0      #001=ASL$DISP_ONE_PROFILE File=ASL$L_PRO.:E05TSI                   TUE 07/29/97 10:26 Page:519

     2831    20410    5               END;   /*  Printable characters  */

  20410  4 016557   016636 710000 4                  TRA     s:20425

     2832    20411    5            ELSE DO;   /*  Character values > 127  */

     2833    20412    6               IF FDS.FMT_.BOUND + 7 > SIZEC (FMT_BUF) THEN DO;

  20412  4 016560   000000 236000 xsym               LDQ     FDS
         4 016561   000034 376000 xsym               ANQ     B_VECTNIL+28
         4 016562   000267 116000 5                  CMPQ    183
         4 016563   016606 602000 4                  TNC     s:20419

     2834    20413    6                  FDS.FMT_.BOUND = FDS.FMT_.BOUND - 1;

  20413  4 016564   000000 236000 xsym               LDQ     FDS
         4 016565   000020 772000                    QRL     16
         4 016566   000001 136007                    SBLQ    1,DL
         4 016567   000020 736000                    QLS     16
         4 016570   000000 676000 xsym               ERQ     FDS
         4 016571   000034 376000 xsym               ANQ     B_VECTNIL+28
         4 016572   000000 656000 xsym               ERSQ    FDS

     2835    20414    6                  CALL X$FORMAT (FDS) ;

  20414  4 016573   000004 630400 5                  EPPR0   4
         4 016574   000017 631400 xsym               EPPR1   B_VECTNIL+15
         4 016575   000000 701000 xent               TSX1    X$FORMAT
         4 016576   000000 011000                    NOP     0

     2836    20415    6                  FDS.NVECS# = 0;

  20415  4 016577   000011 450000 xsym               STZ     FDS+9

     2837    20416    6                  SUBSTR (FMT_BUF,0,3) = '%4-';

PL6.E3A0      #001=ASL$DISP_ONE_PROFILE File=ASL$L_PRO.:E05TSI                   TUE 07/29/97 10:26 Page:520
  20416  4 016600   003775 236000 3                  LDQ     FUNKEY_NAMES+1554
         4 016601   000000 552070 xsym               STBQ    FMT_BUF,'70'O

     2838    20417    6                  FDS.FMT_.BOUND = 2;

  20417  4 016602   000000 236000 xsym               LDQ     FDS
         4 016603   177777 376007                    ANQ     65535,DL
         4 016604   400000 276007                    ORQ     -131072,DL
         4 016605   000000 756000 xsym               STQ     FDS

     2839    20418    6                  END; /*  out of space in FMT_BUF  */

     2840    20419    5               CALL INSERT (FMT_BUF,FDS.FMT_.BOUND+1,7,'X''%2H'',');

  20419  4 016606   000000 236000 xsym               LDQ     FDS
         4 016607   000020 772000                    QRL     16
         4 016610   040006 100400                    MLR     fill='040'O
         4 016611   004001 000007 3                  ADSC9   FUNKEY_NAMES+1558        cn=0,n=7
         4 016612   000000 200007 xsym               ADSC9   FMT_BUF,Q                cn=1,n=7

     2841    20420    5               FDS.FMT_.BOUND = FDS.FMT_.BOUND + 7;

  20420  4 016613   000007 036007                    ADLQ    7,DL
         4 016614   000020 736000                    QLS     16
         4 016615   000000 676000 xsym               ERQ     FDS
         4 016616   000034 376000 xsym               ANQ     B_VECTNIL+28
         4 016617   000000 656000 xsym               ERSQ    FDS

     2842    20421    5               FMT_VEC (FDS.NVECS#) = VECTOR (PTR$->ABYTE);

  20421  4 016620   000011 235000 xsym               LDA     FDS+9
         4 016621   000001 735000                    ALS     1
         4 016622   200273 470500                    LDP0    @PTR$,,AUTO
         4 016623   000000 471500                    LDP1    0,,PR0
         4 016624   000000 620005                    EAX0    0,AL
         4 016625   177640 235007                    LDA     65440,DL
         4 016626   200366 451500                    STP1    TEMP+4,,AUTO
PL6.E3A0      #001=ASL$DISP_ONE_PROFILE File=ASL$L_PRO.:E05TSI                   TUE 07/29/97 10:26 Page:521
         4 016627   200366 236100                    LDQ     TEMP+4,,AUTO
         4 016630   000000 755010 xsym               STA     FMT_VEC,X0
         4 016631   000001 756010 xsym               STQ     FMT_VEC+1,X0

     2843    20422    5               FDS.NVECS# = FDS.NVECS# + 1;

  20422  4 016632   000011 054000 xsym               AOS     FDS+9

     2844    20423    5               I = I + 1;

  20423  4 016633   200275 235100                    LDA     I,,AUTO
         4 016634   000001 035007                    ADLA    1,DL
         4 016635   200275 755100                    STA     I,,AUTO

     2845    20424    5               END;

     2846    20425    4         END;  /*  Do while i < count  */

  20425  4 016636   200276 236100                    LDQ     COUNT,,AUTO
         4 016637   200275 116100                    CMPQ    I,,AUTO
         4 016640   016313 603000 4                  TRC     s:20364

     2847    20426    3      FDS.FMT_.BOUND = FDS.FMT_.BOUND - 1;

  20426  4 016641   000000 236000 xsym               LDQ     FDS
         4 016642   000020 772000                    QRL     16
         4 016643   000001 136007                    SBLQ    1,DL
         4 016644   000020 736000                    QLS     16
         4 016645   000000 676000 xsym               ERQ     FDS
         4 016646   000034 376000 xsym               ANQ     B_VECTNIL+28
         4 016647   000000 656000 xsym               ERSQ    FDS

     2848    20427    3      END; /*  If not 0  */

  20427  4 016650   016673 710000 4                  TRA     s:20434

     2849    20428    3   ELSE DO;
PL6.E3A0      #001=ASL$DISP_ONE_PROFILE File=ASL$L_PRO.:E05TSI                   TUE 07/29/97 10:26 Page:522

     2850    20429    3      FMT_VEC (FDS.NVECS#) = VECTOR (NONE_STR);

  20429  4 016651   000011 235000 xsym               LDA     FDS+9
         4 016652   000001 735000                    ALS     1
         4 016653   000000 620005                    EAX0    0,AL
         4 016654   000000 621005                    EAX1    0,AL
         4 016655   000100 237000 5                  LDAQ    64
         4 016656   000000 755010 xsym               STA     FMT_VEC,X0
         4 016657   000001 756011 xsym               STQ     FMT_VEC+1,X1

     2851    20430    3      FDS.NVECS# = FDS.NVECS# + 1;

  20430  4 016660   000011 054000 xsym               AOS     FDS+9

     2852    20431    3      CALL INSERT (FMT_BUF, FDS.FMT_.BOUND+1,3,'%>A');

  20431  4 016661   000000 236000 xsym               LDQ     FDS
         4 016662   000020 772000                    QRL     16
         4 016663   040006 100400                    MLR     fill='040'O
         4 016664   003765 000003 3                  ADSC9   FUNKEY_NAMES+1546        cn=0,n=3
         4 016665   000000 200003 xsym               ADSC9   FMT_BUF,Q                cn=1,n=3

     2853    20432    3      FDS.FMT_.BOUND = FDS.FMT_.BOUND + 3;

  20432  4 016666   000003 036007                    ADLQ    3,DL
         4 016667   000020 736000                    QLS     16
         4 016670   000000 676000 xsym               ERQ     FDS
         4 016671   000034 376000 xsym               ANQ     B_VECTNIL+28
         4 016672   000000 656000 xsym               ERSQ    FDS

     2854    20433    3      END;   /*  Else  */

     2855    20434    2   RETURN;

  20434  4 016673   200272 221300                    LDX1  ! SET+2,,AUTO
         4 016674   000001 702211                    TSX2  ! 1,X1
PL6.E3A0      #001=ASL$DISP_ONE_PROFILE File=ASL$L_PRO.:E05TSI                   TUE 07/29/97 10:26 Page:523

     2856    20435    2   END DO_HEX_LIST;
     2857    20436        %EJECT ;
PL6.E3A0      #001=ASL$DISP_ONE_PROFILE File=ASL$L_PRO.:E05TSI                   TUE 07/29/97 10:26 Page:524
     2858    20437    1   LIST_TABS: PROC ;

  20437  4 016675   200170 741300       LIST_TABS    STX1  ! NEXT+1,,AUTO

     2859    20438    2   DCL I UBIN ;
     2860    20439    2   DCL TABS_HDR CHAR(0) CONSTANT INIT('    ') ;
     2861    20440    2   FMT_VEC(0) = VECTOR(TABS_HDR) ;

  20440  4 016676   000270 237000 5                  LDAQ    184
         4 016677   000000 755000 xsym               STA     FMT_VEC
         4 016700   000001 756000 xsym               STQ     FMT_VEC+1

     2862    20441    2   FDS.NVECS# = 1 ;

  20441  4 016701   000001 235007                    LDA     1,DL
         4 016702   000011 755000 xsym               STA     FDS+9

     2863    20442    2   SBIN_IDX = 0 ;

  20442  4 016703   200077 450100                    STZ     SBIN_IDX,,AUTO

     2864    20443    2   CALL INSERT(FMT_BUF,0,2,'%A') ;

  20443  4 016704   003763 220000 3                  LDX0    FUNKEY_NAMES+1544
         4 016705   000000 740000 xsym               STX0    FMT_BUF

     2865    20444    2   FDS.FMT_.BOUND = 1 ;

  20444  4 016706   000000 236000 xsym               LDQ     FDS
         4 016707   177777 376007                    ANQ     65535,DL
         4 016710   200000 276007                    ORQ     65536,DL
         4 016711   000000 756000 xsym               STQ     FDS

     2866    20445    2   T_TAB = DTABS$ -> VLP$TAB ;

  20445  4 016712   000136 470400 2                  LDP0    DTABS$
         4 016713   000000 100500                    MLR     fill='000'O
PL6.E3A0      #001=ASL$DISP_ONE_PROFILE File=ASL$L_PRO.:E05TSI                   TUE 07/29/97 10:26 Page:525
         4 016714   000000 000040                    ADSC9   0,,PR0                   cn=0,n=32
         4 016715   000160 000040 2                  ADSC9   T_TAB                    cn=0,n=32

     2867    20446    3   DO I = 0 TO 31 ;

  20446  4 016716   200171 450100                    STZ     I,,AUTO

     2868    20447    3      IF T_TAB(I) = 0 AND I ~= 0

  20447  4 016717   200171 235100                    LDA     I,,AUTO
         4 016720   000100 101405                    MRL     fill='000'O
         4 016721   000160 000001 2                  ADSC9   T_TAB,A                  cn=0,n=1
         4 016722   200366 000004                    ADSC9   TEMP+4,,AUTO             cn=0,n=4
         4 016723   200366 236100                    LDQ     TEMP+4,,AUTO
         4 016724   000000 116003                    CMPQ    0,DU
         4 016725   016730 601000 4                  TNZ     s:20450
         4 016726   000000 115003                    CMPA    0,DU
         4 016727   017005 601000 4                  TNZ     OUTPUT_TABS

     2869    20448    3      THEN
     2870    20449    3         GOTO OUTPUT_TABS ;
     2871    20450    3      SBINS(SBIN_IDX) = T_TAB(I) ;

  20450  4 016730   200077 236100                    LDQ     SBIN_IDX,,AUTO
         4 016731   000002 736000                    QLS     2
         4 016732   000106 101405                    MRL     fill='000'O
         4 016733   000160 000001 2                  ADSC9   T_TAB,A                  cn=0,n=1
         4 016734   200007 000004                    ADSC9   SBINS,Q,AUTO             cn=0,n=4

     2872    20451    3      FMT_VEC(FDS.NVECS#) = VECTOR(SBINS(SBIN_IDX)) ;

  20451  4 016735   000011 235000 xsym               LDA     FDS+9
         4 016736   000001 735000                    ALS     1
         4 016737   000000 620005                    EAX0    0,AL
         4 016740   777640 235007                    LDA     -96,DL
         4 016741   200366 452500                    STP2    TEMP+4,,AUTO
         4 016742   200077 236100                    LDQ     SBIN_IDX,,AUTO
PL6.E3A0      #001=ASL$DISP_ONE_PROFILE File=ASL$L_PRO.:E05TSI                   TUE 07/29/97 10:26 Page:526
         4 016743   000022 736000                    QLS     18
         4 016744   000007 036003                    ADLQ    7,DU
         4 016745   200366 036100                    ADLQ    TEMP+4,,AUTO
         4 016746   000000 755010 xsym               STA     FMT_VEC,X0
         4 016747   000001 756010 xsym               STQ     FMT_VEC+1,X0

     2873    20452    3      FDS.NVECS# = FDS.NVECS# + 1 ;

  20452  4 016750   000011 054000 xsym               AOS     FDS+9

     2874    20453    3      SBIN_IDX = SBIN_IDX + 1 ;

  20453  4 016751   200077 054100                    AOS     SBIN_IDX,,AUTO

     2875    20454    3      IF I > 0

  20454  4 016752   200171 235100                    LDA     I,,AUTO
         4 016753   016767 600000 4                  TZE     s:20462

     2876    20455    3      THEN
     2877    20456    4      DO ;

     2878    20457    4         CALL INSERT(FMT_BUF,FDS.FMT_.BOUND+1,4,',%+D') ;

  20457  4 016754   000000 236000 xsym               LDQ     FDS
         4 016755   000020 772000                    QRL     16
         4 016756   040006 100400                    MLR     fill='040'O
         4 016757   004003 000004 3                  ADSC9   FUNKEY_NAMES+1560        cn=0,n=4
         4 016760   000000 200004 xsym               ADSC9   FMT_BUF,Q                cn=1,n=4

     2879    20458    4         FDS.FMT_.BOUND = FDS.FMT_.BOUND + 4 ;

  20458  4 016761   000004 036007                    ADLQ    4,DL
         4 016762   000020 736000                    QLS     16
         4 016763   000000 676000 xsym               ERQ     FDS
         4 016764   000034 376000 xsym               ANQ     B_VECTNIL+28
         4 016765   000000 656000 xsym               ERSQ    FDS
PL6.E3A0      #001=ASL$DISP_ONE_PROFILE File=ASL$L_PRO.:E05TSI                   TUE 07/29/97 10:26 Page:527

     2880    20459    4         END ;                    /* Then do                            */

  20459  4 016766   017001 710000 4                  TRA     s:20465

     2881    20460    3      ELSE
     2882    20461    4      DO ;

     2883    20462    4         CALL INSERT(FMT_BUF,FDS.FMT_.BOUND+1,3,'%+D') ;

  20462  4 016767   000000 236000 xsym               LDQ     FDS
         4 016770   000020 772000                    QRL     16
         4 016771   040006 100400                    MLR     fill='040'O
         4 016772   003766 000003 3                  ADSC9   FUNKEY_NAMES+1547        cn=0,n=3
         4 016773   000000 200003 xsym               ADSC9   FMT_BUF,Q                cn=1,n=3

     2884    20463    4         FDS.FMT_.BOUND = FDS.FMT_.BOUND + 3 ;

  20463  4 016774   000003 036007                    ADLQ    3,DL
         4 016775   000020 736000                    QLS     16
         4 016776   000000 676000 xsym               ERQ     FDS
         4 016777   000034 376000 xsym               ANQ     B_VECTNIL+28
         4 017000   000000 656000 xsym               ERSQ    FDS

     2885    20464    4         END ;                    /* Else do                            */

     2886    20465    3      END ;                        /* Do i                               */

  20465  4 017001   000001 035007                    ADLA    1,DL
         4 017002   200171 755100                    STA     I,,AUTO
         4 017003   000040 115007                    CMPA    32,DL
         4 017004   016717 602000 4                  TNC     s:20447

     2887    20466    2   OUTPUT_TABS:
     2888    20467                                                /**/
     2889    20468    2   RETURN ;

PL6.E3A0      #001=ASL$DISP_ONE_PROFILE File=ASL$L_PRO.:E05TSI                   TUE 07/29/97 10:26 Page:528
  20468  4 017005   200170 221300       OUTPUT_TABS  LDX1  ! NEXT+1,,AUTO
         4 017006   000001 702211                    TSX2  ! 1,X1

     2890    20469                                                /**/
     2891    20470    2   END   LIST_TABS ;
     2892    20471        %EJECT;
PL6.E3A0      #001=ASL$DISP_ONE_PROFILE File=ASL$L_PRO.:E05TSI                   TUE 07/29/97 10:26 Page:529
     2893    20472    1   LIST_GR_ESCAPES: PROC;

  20472  4 017007   200154 741300       LIST_GR_ESC* STX1  ! PTR$+1,,AUTO

     2894    20473    2   DCL GR_ESC_FMT CHAR (0) CONSTANT INIT ('%N-GR_ESCAPE %D');
     2895    20474    2   DCL SINGLHORS_FMT CHAR (0) CONSTANT INIT ('%N-%A');
     2896    20475    2   DCL FOUR UBIN CONSTANT INIT (4);
     2897    20476    2   DCL 1 SECOND (0:10) ALIGNED,
     2898    20477    2          2 TAB UBIN ALIGNED,
     2899    20478    2          2 HORS CHAR (8) ALIGNED;
     2900    20479    2   DCL CMP_CNT SBIN;
     2901    20480    2   DCL CUR_IDX SBIN;
     2902    20481    2   DCL NEXT UBIN ;
     2903    20482    2   DCL NUM_ESCAPES SBIN;
     2904    20483    2   DCL HARDWARE CHAR (0) CONSTANT INIT ('HARDWARE');
     2905    20484    2   DCL SOFTWARE CHAR (0) CONSTANT INIT ('SOFTWARE');
     2906    20485    2   DCL POS UBIN; /* Position in array of next element to output */
     2907    20486    2   DCL LINE_POS UBIN;
     2908    20487    2   DCL I UBIN;
     2909    20488    2   DCL FMT_LEN UBIN;
     2910    20489
     2911    20490    3   DO I = 0 TO 280 /* L_PRO_END */;

  20490  4 017010   200224 450100                    STZ     I,,AUTO

     2912    20491    3      IF ASL_PRO_OPT_TBL.ORDR (I) = 242 /* L_GR_ESCAPE */

  20491  4 017011   200224 235100                    LDA     I,,AUTO
         4 017012   000003 735000                    ALS     3
         4 017013   000005 236005 xsym               LDQ     ASL_PRO_OPT_TBL+5,AL
         4 017014   777000 376007                    ANQ     -512,DL
         4 017015   362000 116007                    CMPQ    123904,DL
         4 017016   017024 600000 4                  TZE     s:20496

     2913    20492    3      THEN EXIT;
     2914    20493    3      END;  /* That finds where the escape is in the order */

PL6.E3A0      #001=ASL$DISP_ONE_PROFILE File=ASL$L_PRO.:E05TSI                   TUE 07/29/97 10:26 Page:530
  20493  4 017017   200224 235100                    LDA     I,,AUTO
         4 017020   000001 035007                    ADLA    1,DL
         4 017021   200224 755100                    STA     I,,AUTO
         4 017022   000431 115007                    CMPA    281,DL
         4 017023   017011 602000 4                  TNC     s:20491

     2915    20494
     2916    20495        /* Now we have to find the next element to output after the escape. */
     2917    20496    3   DO NEXT = I+1 TO 280 /* L_PRO_END */;

  20496  4 017024   200224 235100                    LDA     I,,AUTO
         4 017025   000001 035007                    ADLA    1,DL
         4 017026   200220 755100                    STA     NEXT,,AUTO
         4 017027   017047 710000 4                  TRA     s:20500+3

     2918    20497    3      IF (PRO_FLAGS (ASL_PRO_OPT_TBL.ORDR (NEXT)) AND

  20497  4 017030   200220 235100                    LDA     NEXT,,AUTO
         4 017031   000003 735000                    ALS     3
         4 017032   000005 236005 xsym               LDQ     ASL_PRO_OPT_TBL+5,AL
         4 017033   000011 772000                    QRL     9
         4 017034   000777 376007                    ANQ     511,DL
         4 017035   000000 066406                    CMPB    filb='0'B
         4 017036   000046 000001 2                  BDSC    PRO_FLAGS,Q              by=0,bit=0,n=1
         4 017037   000002 000022 xsym               BDSC    B_VECTNIL+2              by=0,bit=0,n=18
         4 017040   017044 600000 4                  TZE     s:20500
         4 017041   000000 236005 xsym               LDQ     ASL_PRO_OPT_TBL,AL
         4 017042   777000 316003                    CANQ    -512,DU
         4 017043   017052 601000 4                  TNZ     s:20502

     2919    20498    3           (ASL_PRO_OPT_TBL.LEN (NEXT) ~= 0))
     2920    20499    3      THEN EXIT;
     2921    20500    3      END;

  20500  4 017044   200220 236100                    LDQ     NEXT,,AUTO
         4 017045   000001 036007                    ADLQ    1,DL
         4 017046   200220 756100                    STQ     NEXT,,AUTO
PL6.E3A0      #001=ASL$DISP_ONE_PROFILE File=ASL$L_PRO.:E05TSI                   TUE 07/29/97 10:26 Page:531
         4 017047   200220 235100                    LDA     NEXT,,AUTO
         4 017050   000431 115007                    CMPA    281,DL
         4 017051   017030 602000 4                  TNC     s:20497

     2922    20501
     2923    20502    2   CUR_IDX = NEXT;

  20502  4 017052   200220 235100                    LDA     NEXT,,AUTO
         4 017053   200217 755100                    STA     CUR_IDX,,AUTO

     2924    20503
     2925    20504    2   IF (NEXT = 280 /* L_PRO_END */)

  20504  4 017054   000430 115007                    CMPA    280,DL
         4 017055   017061 601000 4                  TNZ     s:20509

     2926    20505    3   THEN DO;

     2927    20506    3      NXT_IDX = CUR_IDX + 1 ;

  20506  4 017056   000001 035007                    ADLA    1,DL
         4 017057   200102 755100                    STA     NXT_IDX,,AUTO

     2928    20507    3      END;

  20507  4 017060   017062 710000 4                  TRA     s:20513

     2929    20508    3   ELSE DO;

     2930    20509    3      NXT_IDX = CUR_IDX ;

  20509  4 017061   200102 755100                    STA     NXT_IDX,,AUTO

     2931    20510    3      END;

     2932    20511        /* That was to set up for the next element, now put out escapes. */
     2933    20512
PL6.E3A0      #001=ASL$DISP_ONE_PROFILE File=ASL$L_PRO.:E05TSI                   TUE 07/29/97 10:26 Page:532
     2934    20513    2   NUM_ESCAPES = GRA$->GRA$REC.NUM_ESCAPES - 1;

  20513  4 017062   200142 470500                    LDP0    GRA$,,AUTO
         4 017063   000045 235100                    LDA     37,,PR0
         4 017064   000001 135007                    SBLA    1,DL
         4 017065   200221 755100                    STA     NUM_ESCAPES,,AUTO

     2935    20514    2   IF (NUM_ESCAPES < 0)

  20514  4 017066   017101 605000 4                  TPL     s:20521

     2936    20515    3   THEN DO;

     2937    20516    3      CALL ASB$WRITE_LO (' ', 1);  /* Blank line */

  20516  4 017067   000007 630400 5                  EPPR0   7
         4 017070   000020 631400 xsym               EPPR1   B_VECTNIL+16
         4 017071   000000 701000 xent               TSX1    ASB$WRITE_LO
         4 017072   000000 011000                    NOP     0

     2938    20517    3      CALL ASB$WRITE_LO ('  There are no GR_ESCAPE values set.',36);

  20517  4 017073   000273 630400 5                  EPPR0   187
         4 017074   000020 631400 xsym               EPPR1   B_VECTNIL+16
         4 017075   000000 701000 xent               TSX1    ASB$WRITE_LO
         4 017076   000000 011000                    NOP     0

     2939    20518    3      RETURN;

  20518  4 017077   200154 221300                    LDX1  ! PTR$+1,,AUTO
         4 017100   000001 702211                    TSX2  ! 1,X1

     2940    20519    3      END;
     2941    20520
     2942    20521    2   POS = 0;

  20521  4 017101   200222 450100                    STZ     POS,,AUTO
PL6.E3A0      #001=ASL$DISP_ONE_PROFILE File=ASL$L_PRO.:E05TSI                   TUE 07/29/97 10:26 Page:533

     2943    20522    2   IF (LO_WIDTH < 49) /* If we cant fit >= 2 per line do this */

  20522  4 017102   000000 236000 xsym               LDQ     LO_WIDTH
         4 017103   000061 116007                    CMPQ    49,DL
         4 017104   017203 603000 4                  TRC     s:20551

     2944    20523    3   THEN DO;

     2945    20524    4      DO WHILE (NUM_ESCAPES >= 0);

  20524  4 017105   000000 115003                    CMPA    0,DU
         4 017106   017200 604000 4                  TMI     s:20545

     2946    20525    4         FMT_BUF = GR_ESC_FMT;

  20525  4 017107   040000 100400                    MLR     fill='040'O
         4 017110   000740 000017 3                  ADSC9   GR_ESC_FMT               cn=0,n=15
         4 017111   000000 000377 xsym               ADSC9   FMT_BUF                  cn=0,n=255

     2947    20526    4         FDS.FMT_.BOUND = LENGTHC (GR_ESC_FMT);

  20526  4 017112   000000 236000 xsym               LDQ     FDS
         4 017113   177777 376007                    ANQ     65535,DL
         4 017114   000275 276000 5                  ORQ     189
         4 017115   000000 756000 xsym               STQ     FDS

     2948    20527    4         FDS.NVECS# = 2;

  20527  4 017116   000002 235007                    LDA     2,DL
         4 017117   000011 755000 xsym               STA     FDS+9

     2949    20528    4         FMT_VEC (0) = VECTOR (FOUR);

  20528  4 017120   000276 237000 5                  LDAQ    190
         4 017121   000000 755000 xsym               STA     FMT_VEC
         4 017122   000001 756000 xsym               STQ     FMT_VEC+1
PL6.E3A0      #001=ASL$DISP_ONE_PROFILE File=ASL$L_PRO.:E05TSI                   TUE 07/29/97 10:26 Page:534

     2950    20529    4         FMT_VEC(1) = VECTOR (GRA$->GRA$REC.GR_ESCAPES.ESCAPE_FUNCTION(POS));

  20529  4 017123   377640 235007                    LDA     130976,DL
         4 017124   200222 236100                    LDQ     POS,,AUTO
         4 017125   000022 736000                    QLS     18
         4 017126   000046 036003                    ADLQ    38,DU
         4 017127   200142 036100                    ADLQ    GRA$,,AUTO
         4 017130   000002 755000 xsym               STA     FMT_VEC+2
         4 017131   000003 756000 xsym               STQ     FMT_VEC+3

     2951    20530    4         CALL X$FORMAT (FDS);

  20530  4 017132   000004 630400 5                  EPPR0   4
         4 017133   000017 631400 xsym               EPPR1   B_VECTNIL+15
         4 017134   000000 701000 xent               TSX1    X$FORMAT
         4 017135   000000 011000                    NOP     0

     2952    20531    4         FMT_VEC (0) = VECTOR (FOUR);

  20531  4 017136   000276 237000 5                  LDAQ    190
         4 017137   000000 755000 xsym               STA     FMT_VEC
         4 017140   000001 756000 xsym               STQ     FMT_VEC+1

     2953    20532    4         IF (GRA$->GRA$REC.GR_ESCAPES.ESCAPE_SUPPORT(POS) = 1)

  20532  4 017141   200142 470500                    LDP0    GRA$,,AUTO
         4 017142   200222 720100                    LXL0    POS,,AUTO
         4 017143   000046 236110                    LDQ     38,X0,PR0
         4 017144   777000 376007                    ANQ     -512,DL
         4 017145   001000 116007                    CMPQ    512,DL
         4 017146   017153 601000 4                  TNZ     s:20537

     2954    20533    5         THEN DO;

     2955    20534    5            FMT_VEC(1) = VECTOR (HARDWARE);

PL6.E3A0      #001=ASL$DISP_ONE_PROFILE File=ASL$L_PRO.:E05TSI                   TUE 07/29/97 10:26 Page:535
  20534  4 017147   000300 237000 5                  LDAQ    192
         4 017150   000002 755000 xsym               STA     FMT_VEC+2
         4 017151   000003 756000 xsym               STQ     FMT_VEC+3

     2956    20535    5            END;

  20535  4 017152   017156 710000 4                  TRA     s:20539

     2957    20536    5         ELSE DO;

     2958    20537    5            FMT_VEC(1) = VECTOR (SOFTWARE);

  20537  4 017153   000302 237000 5                  LDAQ    194
         4 017154   000002 755000 xsym               STA     FMT_VEC+2
         4 017155   000003 756000 xsym               STQ     FMT_VEC+3

     2959    20538    5            END;

     2960    20539    4         POS = POS + 1;

  20539  4 017156   200222 235100                    LDA     POS,,AUTO
         4 017157   000001 035007                    ADLA    1,DL
         4 017160   200222 755100                    STA     POS,,AUTO

     2961    20540    4         FMT_BUF = SINGLHORS_FMT;

  20540  4 017161   040000 100400                    MLR     fill='040'O
         4 017162   000744 000005 3                  ADSC9   SINGLHORS_FMT            cn=0,n=5
         4 017163   000000 000377 xsym               ADSC9   FMT_BUF                  cn=0,n=255

     2962    20541    4         NUM_ESCAPES = NUM_ESCAPES - 1;

  20541  4 017164   000001 336007                    LCQ     1,DL
         4 017165   200221 056100                    ASQ     NUM_ESCAPES,,AUTO

     2963    20542    4         CALL X$FORMAT (FDS);

PL6.E3A0      #001=ASL$DISP_ONE_PROFILE File=ASL$L_PRO.:E05TSI                   TUE 07/29/97 10:26 Page:536
  20542  4 017166   000004 630400 5                  EPPR0   4
         4 017167   000017 631400 xsym               EPPR1   B_VECTNIL+15
         4 017170   000000 701000 xent               TSX1    X$FORMAT
         4 017171   000000 011000                    NOP     0

     2964    20543    4         CALL ASB$WRITE_LO (' ',1) ; /* Blank line. */

  20543  4 017172   000007 630400 5                  EPPR0   7
         4 017173   000020 631400 xsym               EPPR1   B_VECTNIL+16
         4 017174   000000 701000 xent               TSX1    ASB$WRITE_LO
         4 017175   000000 011000                    NOP     0

     2965    20544    4         END;

  20544  4 017176   200221 235100                    LDA     NUM_ESCAPES,,AUTO
         4 017177   017107 605000 4                  TPL     s:20525

     2966    20545    3      FDS.NVECS# = 0;

  20545  4 017200   000011 450000 xsym               STZ     FDS+9

     2967    20546    3      RETURN;

  20546  4 017201   200154 221300                    LDX1  ! PTR$+1,,AUTO
         4 017202   000001 702211                    TSX2  ! 1,X1

     2968    20547    3      END;
     2969    20548
     2970    20549        /* Multiple entries per line lets do it or screw it! */
     2971    20550
     2972    20551    3   DO WHILE (NUM_ESCAPES >= 0); /* Coded in 1 hour */

  20551  4 017203   000000 115003                    CMPA    0,DU
         4 017204   017467 604000 4                  TMI     s:20609

     2973    20552    3      LINE_POS = 0;

PL6.E3A0      #001=ASL$DISP_ONE_PROFILE File=ASL$L_PRO.:E05TSI                   TUE 07/29/97 10:26 Page:537
  20552  4 017205   200223 450100                    STZ     LINE_POS,,AUTO

     2974    20553    3      I = 0;

  20553  4 017206   200224 450100                    STZ     I,,AUTO

     2975    20554    3      FDS.NVECS# = 0;

  20554  4 017207   000011 450000 xsym               STZ     FDS+9

     2976    20555    3      FMT_BUF = ' ';

  20555  4 017210   040000 100400                    MLR     fill='040'O
         4 017211   000035 000001 xsym               ADSC9   B_VECTNIL+29             cn=0,n=1
         4 017212   000000 000377 xsym               ADSC9   FMT_BUF                  cn=0,n=255

     2977    20556    3      FMT_LEN = 0;

  20556  4 017213   200225 450100                    STZ     FMT_LEN,,AUTO

     2978    20557    3      SBIN_IDX = 0; /* Index into sbins. */

  20557  4 017214   200077 450100                    STZ     SBIN_IDX,,AUTO

     2979    20558    3      FDS.FMT_.BOUND = 0;

  20558  4 017215   177777 236007                    LDQ     65535,DL
         4 017216   000000 356000 xsym               ANSQ    FDS

     2980    20559    3      NEXT = 0; /* This tracks the entries into second. */

  20559  4 017217   200220 450100                    STZ     NEXT,,AUTO

     2981    20560    4      DO WHILE ((LINE_POS <= (LO_WIDTH - 23)) AND

  20560  4 017220   017350 710000 4                  TRA     s:20588

PL6.E3A0      #001=ASL$DISP_ONE_PROFILE File=ASL$L_PRO.:E05TSI                   TUE 07/29/97 10:26 Page:538
     2982    20561    4           (NUM_ESCAPES >= 0) );
     2983    20562    4         CALL INSERT (FMT_BUF, FMT_LEN, SIZEC (GR_ESC_FMT), GR_ESC_FMT);

  20562  4 017221   200225 235100                    LDA     FMT_LEN,,AUTO
         4 017222   040005 100400                    MLR     fill='040'O
         4 017223   000740 000017 3                  ADSC9   GR_ESC_FMT               cn=0,n=15
         4 017224   000000 000017 xsym               ADSC9   FMT_BUF,A                cn=0,n=15

     2984    20563    4         IF (LINE_POS = 0) /* Start of the line */

  20563  4 017225   200223 236100                    LDQ     LINE_POS,,AUTO
         4 017226   017233 601000 4                  TNZ     s:20565

     2985    20564    4         THEN SBINS (SBIN_IDX) = 4; /* Tab 4 spaces to start of line. */

  20564  4 017227   000004 235007                    LDA     4,DL
         4 017230   200077 720100                    LXL0    SBIN_IDX,,AUTO
         4 017231   200007 755110                    STA     SBINS,X0,AUTO
         4 017232   017236 710000 4                  TRA     s:20566

     2986    20565    4         ELSE SBINS (SBIN_IDX) = 4 + LINE_POS; /* Tab to entry */

  20565  4 017233   000004 036007                    ADLQ    4,DL
         4 017234   200077 720100                    LXL0    SBIN_IDX,,AUTO
         4 017235   200007 756110                    STQ     SBINS,X0,AUTO

     2987    20566    4         FMT_VEC (I) = VECTOR (SBINS (SBIN_IDX));

  20566  4 017236   200224 235100                    LDA     I,,AUTO
         4 017237   000001 735000                    ALS     1
         4 017240   000000 621005                    EAX1    0,AL
         4 017241   777640 235007                    LDA     -96,DL
         4 017242   200366 452500                    STP2    TEMP+4,,AUTO
         4 017243   200077 236100                    LDQ     SBIN_IDX,,AUTO
         4 017244   000022 736000                    QLS     18
         4 017245   000007 036003                    ADLQ    7,DU
         4 017246   200366 036100                    ADLQ    TEMP+4,,AUTO
PL6.E3A0      #001=ASL$DISP_ONE_PROFILE File=ASL$L_PRO.:E05TSI                   TUE 07/29/97 10:26 Page:539
         4 017247   000000 755011 xsym               STA     FMT_VEC,X1
         4 017250   000001 756011 xsym               STQ     FMT_VEC+1,X1

     2988    20567    4         SECOND.TAB (NEXT) = SBINS (SBIN_IDX) + 1;

  20567  4 017251   200220 236100                    LDQ     NEXT,,AUTO
         4 017252   000003 402007                    MPY     3,DL
         4 017253   200007 235110                    LDA     SBINS,X0,AUTO
         4 017254   000001 035007                    ADLA    1,DL
         4 017255   200155 755106                    STA     SECOND,QL,AUTO

     2989    20568    4         SBIN_IDX = SBIN_IDX + 1;

  20568  4 017256   200077 054100                    AOS     SBIN_IDX,,AUTO

     2990    20569    4         I = I + 1;

  20569  4 017257   200224 235100                    LDA     I,,AUTO
         4 017260   000001 035007                    ADLA    1,DL
         4 017261   200224 755100                    STA     I,,AUTO

     2991    20570
     2992    20571    4         FDS.FMT_.BOUND = FDS.FMT_.BOUND + LENGTHC (GR_ESC_FMT);

  20571  4 017262   000000 236000 xsym               LDQ     FDS
         4 017263   000020 772000                    QRL     16
         4 017264   000017 036007                    ADLQ    15,DL
         4 017265   000020 736000                    QLS     16
         4 017266   000000 676000 xsym               ERQ     FDS
         4 017267   000034 376000 xsym               ANQ     B_VECTNIL+28
         4 017270   000000 656000 xsym               ERSQ    FDS

     2993    20572    4         FMT_LEN = FMT_LEN + SIZEC (GR_ESC_FMT);

  20572  4 017271   200225 236100                    LDQ     FMT_LEN,,AUTO
         4 017272   000017 036007                    ADLQ    15,DL
         4 017273   200225 756100                    STQ     FMT_LEN,,AUTO
PL6.E3A0      #001=ASL$DISP_ONE_PROFILE File=ASL$L_PRO.:E05TSI                   TUE 07/29/97 10:26 Page:540

     2994    20573    4         FMT_VEC (I) = VECTOR (GRA$->GRA$REC.GR_ESCAPES.ESCAPE_FUNCTION(POS));

  20573  4 017274   000001 735000                    ALS     1
         4 017275   000000 620005                    EAX0    0,AL
         4 017276   377640 235007                    LDA     130976,DL
         4 017277   200222 236100                    LDQ     POS,,AUTO
         4 017300   000022 736000                    QLS     18
         4 017301   000046 036003                    ADLQ    38,DU
         4 017302   200142 036100                    ADLQ    GRA$,,AUTO
         4 017303   000000 755010 xsym               STA     FMT_VEC,X0
         4 017304   000001 756010 xsym               STQ     FMT_VEC+1,X0

     2995    20574    4         FDS.NVECS# = FDS.NVECS# + 2;

  20574  4 017305   000002 236007                    LDQ     2,DL
         4 017306   000011 056000 xsym               ASQ     FDS+9

     2996    20575    4         IF (GRA$->GRA$REC.GR_ESCAPES.ESCAPE_SUPPORT(POS) = 1)

  20575  4 017307   200142 470500                    LDP0    GRA$,,AUTO
         4 017310   200222 720100                    LXL0    POS,,AUTO
         4 017311   000046 236110                    LDQ     38,X0,PR0
         4 017312   777000 376007                    ANQ     -512,DL
         4 017313   001000 116007                    CMPQ    512,DL
         4 017314   017324 601000 4                  TNZ     s:20580

     2997    20576    5         THEN DO;

     2998    20577    5            SECOND.HORS (NEXT) = HARDWARE;

  20577  4 017315   200220 236100                    LDQ     NEXT,,AUTO
         4 017316   000003 402007                    MPY     3,DL
         4 017317   000002 736000                    QLS     2
         4 017320   040106 100400                    MLR     fill='040'O
         4 017321   000747 000010 3                  ADSC9   HARDWARE                 cn=0,n=8
         4 017322   200156 000010                    ADSC9   CUR_IDX,Q,AUTO           cn=0,n=8
PL6.E3A0      #001=ASL$DISP_ONE_PROFILE File=ASL$L_PRO.:E05TSI                   TUE 07/29/97 10:26 Page:541

     2999    20578    5            END;

  20578  4 017323   017332 710000 4                  TRA     s:20583

     3000    20579    5         ELSE DO;

     3001    20580    5            SECOND.HORS (NEXT) = SOFTWARE;

  20580  4 017324   200220 236100                    LDQ     NEXT,,AUTO
         4 017325   000003 402007                    MPY     3,DL
         4 017326   000002 736000                    QLS     2
         4 017327   040106 100400                    MLR     fill='040'O
         4 017330   000751 000010 3                  ADSC9   SOFTWARE                 cn=0,n=8
         4 017331   200156 000010                    ADSC9   CUR_IDX,Q,AUTO           cn=0,n=8

     3002    20581    5            END;

     3003    20582
     3004    20583    4         I = I + 1;

  20583  4 017332   200224 235100                    LDA     I,,AUTO
         4 017333   000001 035007                    ADLA    1,DL
         4 017334   200224 755100                    STA     I,,AUTO

     3005    20584    4         NEXT = NEXT + 1;

  20584  4 017335   200220 236100                    LDQ     NEXT,,AUTO
         4 017336   000001 036007                    ADLQ    1,DL
         4 017337   200220 756100                    STQ     NEXT,,AUTO

     3006    20585    4         POS = POS + 1;

  20585  4 017340   200222 235100                    LDA     POS,,AUTO
         4 017341   000001 035007                    ADLA    1,DL
         4 017342   200222 755100                    STA     POS,,AUTO

PL6.E3A0      #001=ASL$DISP_ONE_PROFILE File=ASL$L_PRO.:E05TSI                   TUE 07/29/97 10:26 Page:542
     3007    20586    4         LINE_POS = LINE_POS + 20;

  20586  4 017343   200223 235100                    LDA     LINE_POS,,AUTO
         4 017344   000024 035007                    ADLA    20,DL
         4 017345   200223 755100                    STA     LINE_POS,,AUTO

     3008    20587    4         NUM_ESCAPES = NUM_ESCAPES - 1;

  20587  4 017346   000001 336007                    LCQ     1,DL
         4 017347   200221 056100                    ASQ     NUM_ESCAPES,,AUTO

     3009    20588    4         END;  /* We are now done going through a page. */

  20588  4 017350   000000 236000 xsym               LDQ     LO_WIDTH
         4 017351   000027 136007                    SBLQ    23,DL
         4 017352   017357 604000 4                  TMI     s:20589
         4 017353   200223 116100                    CMPQ    LINE_POS,,AUTO
         4 017354   017357 602000 4                  TNC     s:20589
         4 017355   200221 235100                    LDA     NUM_ESCAPES,,AUTO
         4 017356   017221 605000 4                  TPL     s:20562

     3010    20589    3      CALL ASB$WRITE_LO (' ', 1); /* Blank line */

  20589  4 017357   000007 630400 5                  EPPR0   7
         4 017360   000020 631400 xsym               EPPR1   B_VECTNIL+16
         4 017361   000000 701000 xent               TSX1    ASB$WRITE_LO
         4 017362   000000 011000                    NOP     0

     3011    20590    3      CALL X$FORMAT (FDS);   /* Write out the headings. */

  20590  4 017363   000004 630400 5                  EPPR0   4
         4 017364   000017 631400 xsym               EPPR1   B_VECTNIL+15
         4 017365   000000 701000 xent               TSX1    X$FORMAT
         4 017366   000000 011000                    NOP     0

     3012    20591
     3013    20592    3      FDS.NVECS# = 0;
PL6.E3A0      #001=ASL$DISP_ONE_PROFILE File=ASL$L_PRO.:E05TSI                   TUE 07/29/97 10:26 Page:543

  20592  4 017367   000011 450000 xsym               STZ     FDS+9

     3014    20593    3      FMT_LEN = 0;

  20593  4 017370   200225 450100                    STZ     FMT_LEN,,AUTO

     3015    20594    3      FMT_BUF = ' ';

  20594  4 017371   040000 100400                    MLR     fill='040'O
         4 017372   000035 000001 xsym               ADSC9   B_VECTNIL+29             cn=0,n=1
         4 017373   000000 000377 xsym               ADSC9   FMT_BUF                  cn=0,n=255

     3016    20595    3      FDS.FMT_.BOUND = 0;

  20595  4 017374   177777 236007                    LDQ     65535,DL
         4 017375   000000 356000 xsym               ANSQ    FDS

     3017    20596    3      LINE_POS = 0;

  20596  4 017376   200223 450100                    STZ     LINE_POS,,AUTO

     3018    20597    4      DO I = 0 TO NEXT - 1; /* Next is the number of entries in second */

  20597  4 017377   200224 450100                    STZ     I,,AUTO
         4 017400   017456 710000 4                  TRA     s:20605+3

     3019    20598    4         CALL INSERT (FMT_BUF, FMT_LEN, SIZEC (SINGLHORS_FMT), SINGLHORS_FMT);

  20598  4 017401   200225 235100                    LDA     FMT_LEN,,AUTO
         4 017402   040005 100400                    MLR     fill='040'O
         4 017403   000744 000005 3                  ADSC9   SINGLHORS_FMT            cn=0,n=5
         4 017404   000000 000005 xsym               ADSC9   FMT_BUF,A                cn=0,n=5

     3020    20599    4         FMT_VEC (LINE_POS) = VECTOR (SECOND.TAB (I));

  20599  4 017405   200223 236100                    LDQ     LINE_POS,,AUTO
PL6.E3A0      #001=ASL$DISP_ONE_PROFILE File=ASL$L_PRO.:E05TSI                   TUE 07/29/97 10:26 Page:544
         4 017406   000001 736000                    QLS     1
         4 017407   777640 235007                    LDA     -96,DL
         4 017410   200366 452500                    STP2    TEMP+4,,AUTO
         4 017411   000000 620006                    EAX0    0,QL
         4 017412   200224 236100                    LDQ     I,,AUTO
         4 017413   200367 755100                    STA     TEMP+5,,AUTO
         4 017414   000003 402003                    MPY     3,DU
         4 017415   000155 036003                    ADLQ    109,DU
         4 017416   200366 036100                    ADLQ    TEMP+4,,AUTO
         4 017417   200367 235100                    LDA     TEMP+5,,AUTO
         4 017420   000000 755010 xsym               STA     FMT_VEC,X0
         4 017421   000001 756010 xsym               STQ     FMT_VEC+1,X0

     3021    20600    4         FMT_VEC (LINE_POS + 1) = VECTOR (SECOND.HORS (I));

  20600  4 017422   000076 235000 5                  LDA     62
         4 017423   200366 452500                    STP2    TEMP+4,,AUTO
         4 017424   200224 236100                    LDQ     I,,AUTO
         4 017425   200367 755100                    STA     TEMP+5,,AUTO
         4 017426   000003 402003                    MPY     3,DU
         4 017427   000156 036003                    ADLQ    110,DU
         4 017430   200366 036100                    ADLQ    TEMP+4,,AUTO
         4 017431   200367 235100                    LDA     TEMP+5,,AUTO
         4 017432   000002 755010 xsym               STA     FMT_VEC+2,X0
         4 017433   000003 756010 xsym               STQ     FMT_VEC+3,X0

     3022    20601    4         LINE_POS = LINE_POS + 2;

  20601  4 017434   200223 235100                    LDA     LINE_POS,,AUTO
         4 017435   000002 035007                    ADLA    2,DL
         4 017436   200223 755100                    STA     LINE_POS,,AUTO

     3023    20602    4         FDS.NVECS# = FDS.NVECS# + 2;

  20602  4 017437   000002 236007                    LDQ     2,DL
         4 017440   000011 056000 xsym               ASQ     FDS+9

PL6.E3A0      #001=ASL$DISP_ONE_PROFILE File=ASL$L_PRO.:E05TSI                   TUE 07/29/97 10:26 Page:545
     3024    20603    4         FMT_LEN = FMT_LEN + SIZEC (SINGLHORS_FMT);

  20603  4 017441   200225 235100                    LDA     FMT_LEN,,AUTO
         4 017442   000005 035007                    ADLA    5,DL
         4 017443   200225 755100                    STA     FMT_LEN,,AUTO

     3025    20604    4         FDS.FMT_.BOUND = FDS.FMT_.BOUND + LENGTHC (SINGLHORS_FMT);

  20604  4 017444   000000 236000 xsym               LDQ     FDS
         4 017445   000020 772000                    QRL     16
         4 017446   000005 036007                    ADLQ    5,DL
         4 017447   000020 736000                    QLS     16
         4 017450   000000 676000 xsym               ERQ     FDS
         4 017451   000034 376000 xsym               ANQ     B_VECTNIL+28
         4 017452   000000 656000 xsym               ERSQ    FDS

     3026    20605    4         END;

  20605  4 017453   200224 236100                    LDQ     I,,AUTO
         4 017454   000001 036007                    ADLQ    1,DL
         4 017455   200224 756100                    STQ     I,,AUTO
         4 017456   200224 236100                    LDQ     I,,AUTO
         4 017457   200220 116100                    CMPQ    NEXT,,AUTO
         4 017460   017401 602000 4                  TNC     s:20598

     3027    20606    3      CALL X$FORMAT (FDS);

  20606  4 017461   000004 630400 5                  EPPR0   4
         4 017462   000017 631400 xsym               EPPR1   B_VECTNIL+15
         4 017463   000000 701000 xent               TSX1    X$FORMAT
         4 017464   000000 011000                    NOP     0

     3028    20607    3      END;

  20607  4 017465   200221 235100                    LDA     NUM_ESCAPES,,AUTO
         4 017466   017205 605000 4                  TPL     s:20552

PL6.E3A0      #001=ASL$DISP_ONE_PROFILE File=ASL$L_PRO.:E05TSI                   TUE 07/29/97 10:26 Page:546
     3029    20608
     3030    20609    2   FMT_LEN = 0;

  20609  4 017467   200225 450100                    STZ     FMT_LEN,,AUTO

     3031    20610    2   FMT_BUF = ' ';

  20610  4 017470   040000 100400                    MLR     fill='040'O
         4 017471   000035 000001 xsym               ADSC9   B_VECTNIL+29             cn=0,n=1
         4 017472   000000 000377 xsym               ADSC9   FMT_BUF                  cn=0,n=255

     3032    20611    2   FDS.FMT_.BOUND = 0;

  20611  4 017473   177777 236007                    LDQ     65535,DL
         4 017474   000000 356000 xsym               ANSQ    FDS

     3033    20612    2   FDS.NVECS# = 0;

  20612  4 017475   000011 450000 xsym               STZ     FDS+9

     3034    20613    2   RETURN;

  20613  4 017476   200154 221300                    LDX1  ! PTR$+1,,AUTO
         4 017477   000001 702211                    TSX2  ! 1,X1

     3035    20614    2   END LIST_GR_ESCAPES;
     3036    20615        %EJECT;
PL6.E3A0      #001=ASL$DISP_ONE_PROFILE File=ASL$L_PRO.:E05TSI                   TUE 07/29/97 10:26 Page:547
     3037    20616        /* This routine lists the key definition block of profiles.  See the
     3038    20617           file AS_FUNKEY_DEFS_C fo a description of this block.  This routine
     3039    20618           is self contained.  To add new key definitions, a equ must be added
     3040    20619           to KV$INPFNC, the name must be added to the list of FUNKEY_NAMES in
     3041    20620           the position corresponding to the equate for the key (the equate
     3042    20621           must be less than 256) and the nodes in ASP$FUNKEY_NODS must be
     3043    20622           added.  That is all.
     3044    20623        */
     3045    20624    1   LIST_FUNKEY_DEFS: PROC;

  20624  4 017500   200272 741300       LIST_FUNKEY* STX1  ! SET+2,,AUTO

     3046    20625    2   DCL J UBIN WORD;
     3047    20626    2   DCL NUM_ON_LINE UBIN WORD;
     3048    20627    2   DCL CUR_KEY SBIN WORD;
     3049    20628    2   DCL ENTRY_LENGTH UBIN STATIC INIT (46);
     3050    20629    2   DCL KEYNAME (0:5)  CHAR (24) ALIGNED;
     3051    20630    2   DCL START UBIN WORD ALIGNED;
     3052    20631    2   DCL LAST UBIN WORD ALIGNED;
     3053    20632    2   DCL KEYNMOD UBIN WORD ALIGNED;
     3054    20633    2   DCL MODIFIER    (0:5) SBIN WORD ALIGNED;
     3055    20634    2   DCL TAB_POS    (0:5) SBIN WORD ALIGNED;
     3056    20635    2   DCL TEMP_LEN UBIN WORD ALIGNED;
     3057    20636    2   DCL TEMP CHAR (12) ALIGNED;
     3058    20637    2   DCL CHAR2 CHAR (2) ALIGNED;
     3059    20638
     3060    20639        /*  WARNING... WARNING... WARNING...  The values in the following
     3061    20640              array correspond directly with the equates for the specific
     3062    20641              name as they are defined in the file KV$INPFNC and in the
     3063    20642              macro KV_INPFNCKEY_E.   If a new key is added the name must
     3064    20643              be correctly inserted.
     3065    20644        */
     3066    20645    2   DCL FUNKEY_NAMES (0:256) CHAR (24) ALIGNED CONSTANT INIT (
     3067    20646    2                    'F0' ,
     3068    20647    2                    'F1' ,
     3069    20648    2                    'F2' ,
     3070    20649    2                    'F3' ,
PL6.E3A0      #001=ASL$DISP_ONE_PROFILE File=ASL$L_PRO.:E05TSI                   TUE 07/29/97 10:26 Page:548
     3071    20650    2                    'F4' ,
     3072    20651    2                    'F5' ,
     3073    20652    2                    'F6' ,
     3074    20653    2                    'F7' ,
     3075    20654    2                    'F8' ,
     3076    20655    2                    'F9' ,
     3077    20656    2                    'F10' ,
     3078    20657    2                    'F11' ,
     3079    20658    2                    'F12' ,
     3080    20659    2                    'F13' ,
     3081    20660    2                    'F14' ,
     3082    20661    2                    'F15' ,
     3083    20662    2                    'F16' ,
     3084    20663    2                    'F17' ,
     3085    20664    2                    'F18' ,
     3086    20665    2                    'F19' ,
     3087    20666    2                    'F20' ,
     3088    20667    2                    'F21' ,
     3089    20668    2                    'F22' ,
     3090    20669    2                    'F23' ,
     3091    20670    2                    'F24' ,
     3092    20671    2                    'F25' ,
     3093    20672    2                    'SPARE12' ,
     3094    20673    2                    'SPARE13' ,
     3095    20674    2                    'SPARE14' ,
     3096    20675    2                    'SPARE15' ,
     3097    20676    2                    'SPARE16' ,
     3098    20677    2                    'SPARE17' ,
     3099    20678    2                    'SPARE18' ,
     3100    20679    2                    'SPARE19' ,
     3101    20680    2                    'SPARE20' ,
     3102    20681    2                    'SPARE21' ,
     3103    20682    2                    'SPARE22' ,
     3104    20683    2                    'SPARE23' ,
     3105    20684    2                    'HELP',
     3106    20685    2                    'C_END' ,
     3107    20686    2                    'SF0' ,
PL6.E3A0      #001=ASL$DISP_ONE_PROFILE File=ASL$L_PRO.:E05TSI                   TUE 07/29/97 10:26 Page:549
     3108    20687    2                    'SF1' ,
     3109    20688    2                    'SF2' ,
     3110    20689    2                    'SF3' ,
     3111    20690    2                    'SF4' ,
     3112    20691    2                    'SF5' ,
     3113    20692    2                    'SF6' ,
     3114    20693    2                    'SF7' ,
     3115    20694    2                    'SF8' ,
     3116    20695    2                    'SF9' ,
     3117    20696    2                    'SF10' ,
     3118    20697    2                    'SF11' ,
     3119    20698    2                    'SF12' ,
     3120    20699    2                    'SF13' ,
     3121    20700    2                    'SF14' ,
     3122    20701    2                    'SF15' ,
     3123    20702    2                    'SF16' ,
     3124    20703    2                    'SF17' ,
     3125    20704    2                    'SF18' ,
     3126    20705    2                    'SF19' ,
     3127    20706    2                    'SF20' ,
     3128    20707    2                    'SF21' ,
     3129    20708    2                    'SF22' ,
     3130    20709    2                    'SF23' ,
     3131    20710    2                    'SF24' ,
     3132    20711    2                    'SF25' ,
     3133    20712    2                    'UF0' ,
     3134    20713    2                    'UF1' ,
     3135    20714    2                    'UF2' ,
     3136    20715    2                    'UF3' ,
     3137    20716    2                    'UF4' ,
     3138    20717    2                    'UF5' ,
     3139    20718    2                    'UF6' ,
     3140    20719    2                    'UF7' ,
     3141    20720    2                    'UF8' ,
     3142    20721    2                    'UF9' ,
     3143    20722    2                    'UF10' ,
     3144    20723    2                    'UF11' ,
PL6.E3A0      #001=ASL$DISP_ONE_PROFILE File=ASL$L_PRO.:E05TSI                   TUE 07/29/97 10:26 Page:550
     3145    20724    2                    'UF12' ,
     3146    20725    2                    'UF13' ,
     3147    20726    2                    'UF14' ,
     3148    20727    2                    'UF15' ,
     3149    20728    2                    'UF16' ,
     3150    20729    2                    'UF17' ,
     3151    20730    2                    'UF18' ,
     3152    20731    2                    'UF19' ,
     3153    20732    2                    'UF20' ,
     3154    20733    2                    'UF21' ,
     3155    20734    2                    'UF22' ,
     3156    20735    2                    'UF23' ,
     3157    20736    2                    'UF24' ,
     3158    20737    2                    'ARC' ,
     3159    20738    2                    'AREA_FILL' ,
     3160    20739    2                    'ASSIGN_INPUT' ,
     3161    20740    2                    'ASSIGN_OUTPUT' ,
     3162    20741    2                    'ATTRIBUTE_OFF' ,
     3163    20742    2                    'ATTRIBUTE_ON' ,
     3164    20743    2                    'AUX' ,
     3165    20744    2                    'AUX_ON' ,
     3166    20745    2                    'AUX_SEND' ,
     3167    20746    2                    'ENTER' ,
     3168    20747    2                    'CLEAR' ,
     3169    20748    2                    'PA1' ,
     3170    20749    2                    'PA2' ,
     3171    20750    2                    'PA3' ,
     3172    20751    2                    'PA4' ,
     3173    20752    2                    'ATTENTION' ,
     3174    20753    2                    'C_HOME' ,
     3175    20754    2                    'BACK_TAB' ,
     3176    20755    2                    'BLACK' ,
     3177    20756    2                    'BLINK' ,
     3178    20757    2                    'BLUE' ,
     3179    20758    2                    'C_PGUP' ,
     3180    20759    2                    'CALC_MODE' ,
     3181    20760    2                    'CHANGE' ,
PL6.E3A0      #001=ASL$DISP_ONE_PROFILE File=ASL$L_PRO.:E05TSI                   TUE 07/29/97 10:26 Page:551
     3182    20761    2                    'CHARACTER_MODE' ,
     3183    20762    2                    'CIRCLE' ,
     3184    20763    2                    'CLEAR_ENTRY' ,
     3185    20764    2                    'CLEAR_TO_RT_MARGIN' ,
     3186    20765    2                    'COLOR_SWAP' ,
     3187    20766    2                    'CONCAT_VECTOR' ,
     3188    20767    2                    'COPY' ,
     3189    20768    2                    'CREATE' ,
     3190    20769    2                    'CURSOR_ON' ,
     3191    20770    2                    'CURVE' ,
     3192    20771    2                    'DEFINE' ,
     3193    20772    2                    'C_PGDN' ,
     3194    20773    2                    'DELETE_CHAR_EOP' ,
     3195    20774    2                    'DELETE_CHARACTER' ,
     3196    20775    2                    'DELETE_LINE' ,
     3197    20776    2                    'DELETE_MODE_EOL' ,
     3198    20777    2                    'DELETE_MODE_EOP' ,
     3199    20778    2                    'DNARROW' ,
     3200    20779    2                    'DOS' ,
     3201    20780    2                    'DOT' ,
     3202    20781    2                    'E_AUX' ,
     3203    20782    2                    'END_OF_FIELD' ,
     3204    20783    2                    'END_OF_LINE' ,
     3205    20784    2                    'END_OF_PAGE' ,
     3206    20785    2                    'ERASE_ALL' ,
     3207    20786    2                    'ERASE_EOF' ,
     3208    20787    2                    'ERASE_EOP' ,
     3209    20788    2                    'EXECUTE' ,
     3210    20789    2                    'EXIT' ,
     3211    20790    2                    'FILL' ,
     3212    20791    2                    'FORMS' ,
     3213    20792    2                    'FORM_MODE' ,
     3214    20793    2                    'SU0' ,
     3215    20794    2                    'SU1' ,
     3216    20795    2                    'SU2' ,
     3217    20796    2                    'SU3' ,
     3218    20797    2                    'SU4' ,
PL6.E3A0      #001=ASL$DISP_ONE_PROFILE File=ASL$L_PRO.:E05TSI                   TUE 07/29/97 10:26 Page:552
     3219    20798    2                    'SU5' ,
     3220    20799    2                    'SU6' ,
     3221    20800    2                    'SU7' ,
     3222    20801    2                    'SU8' ,
     3223    20802    2                    'SU9' ,
     3224    20803    2                    'SU10' ,
     3225    20804    2                    'SU11' ,
     3226    20805    2                    'SU12' ,
     3227    20806    2                    'SU13' ,
     3228    20807    2                    'SU14' ,
     3229    20808    2                    'SU15' ,
     3230    20809    2                    'SU16' ,
     3231    20810    2                    'SU17' ,
     3232    20811    2                    'SU18' ,
     3233    20812    2                    'SU19' ,
     3234    20813    2                    'SU20' ,
     3235    20814    2                    'SU21' ,
     3236    20815    2                    'SU22' ,
     3237    20816    2                    'SU23' ,
     3238    20817    2                    'SU24' ,
     3239    20818    2                    'GOTO_RIGHT_MARGIN' ,
     3240    20819    2                    'GREEN' ,
     3241    20820    2                    'HOME' ,
     3242    20821    2                    'IDRIS' ,
     3243    20822    2                    'INCREMENT_X_BAR' ,
     3244    20823    2                    'INCREMENT_Y_BAR' ,
     3245    20824    2                    'INC_VECTOR' ,
     3246    20825    2                    'INIT' ,
     3247    20826    2                    'INSERT_CHARACTER' ,
     3248    20827    2                    'INSERT_LINE' ,
     3249    20828    2                    'INSERT_MODE' ,
     3250    20829    2                    'INSERT_MODE_EOL' ,
     3251    20830    2                    'INSERT_MODE_EOP' ,
     3252    20831    2                    'LINE' ,
     3253    20832    2                    'LOCAL' ,
     3254    20833    2                    'LTARROW' ,
     3255    20834    2                    'M1' ,
PL6.E3A0      #001=ASL$DISP_ONE_PROFILE File=ASL$L_PRO.:E05TSI                   TUE 07/29/97 10:26 Page:553
     3256    20835    2                    'M2' ,
     3257    20836    2                    'MEMORY_LOCK' ,
     3258    20837    2                    'MONITOR' ,
     3259    20838    2                    'MOVE_X_Y' ,
     3260    20839    2                    'OTHER_XMIT' ,
     3261    20840    2                    'OVERLAY' ,
     3262    20841    2                    'PAGE' ,
     3263    20842    2                    'PAN_X_Y' ,
     3264    20843    2                    'PLOT' ,
     3265    20844    2                    'PLOT_MODE' ,
     3266    20845    2                    'POLYGON' ,
     3267    20846    2                    'PRINT' ,
     3268    20847    2                    'PURPLE' ,
     3269    20848    2                    'RAY' ,
     3270    20849    2                    'RECALL' ,
     3271    20850    2                    'RECTANGLE' ,
     3272    20851    2                    'RED' ,
     3273    20852    2                    'REDRAW' ,
     3274    20853    2                    'RESET' ,
     3275    20854    2                    'RESET_INSERT_MODE' ,
     3276    20855    2                    'ROLL' ,
     3277    20856    2                    'RTARROW' ,
     3278    20857    2                    'RUBBER_BAND' ,
     3279    20858    2                    'C_LTARROW' ,
     3280    20859    2                    'SCALE' ,
     3281    20860    2                    'SCROLL_SEG_DOWN' ,
     3282    20861    2                    'SCROLL_SEG_UP' ,
     3283    20862    2                    'SEND' ,
     3284    20863    2                    'SET' ,
     3285    20864    2                    'SPARE0' ,
     3286    20865    2                    'SPARE1' ,
     3287    20866    2                    'SPARE2' ,
     3288    20867    2                    'SPARE3' ,
     3289    20868    2                    'SPARE4' ,
     3290    20869    2                    'SPARE5' ,
     3291    20870    2                    'SPARE6' ,
     3292    20871    2                    'SPARE7' ,
PL6.E3A0      #001=ASL$DISP_ONE_PROFILE File=ASL$L_PRO.:E05TSI                   TUE 07/29/97 10:26 Page:554
     3293    20872    2                    'SPARE8' ,
     3294    20873    2                    'SPARE9' ,
     3295    20874    2                    'SPARE10' ,
     3296    20875    2                    'SPARE11' ,
     3297    20876    2                    'SIZE' ,
     3298    20877    2                    'TAB_CLEAR_1' ,
     3299    20878    2                    'TAB_CLEAR_ALL' ,
     3300    20879    2                    'TAB_SET' ,
     3301    20880    2                    'TERMINAL' ,
     3302    20881    2                    'TEST' ,
     3303    20882    2                    'TEST_TONE' ,
     3304    20883    2                    'TEXT_MODE' ,
     3305    20884    2                    'THAW' ,
     3306    20885    2                    'TRANSMIT' ,
     3307    20886    2                    'TRIANGLE' ,
     3308    20887    2                    'TURQUOISE' ,
     3309    20888    2                    'UPARROW' ,
     3310    20889    2                    'VECTOR' ,
     3311    20890    2                    'VERTICAL_WIDTH' ,
     3312    20891    2                    'VIEW' ,
     3313    20892    2                    'WHITE' ,
     3314    20893    2                    'WINDOW' ,
     3315    20894    2                    'YELLOW' ,
     3316    20895    2                    'C_RTARROW',
     3317    20896    2                    'C_UPARROW',
     3318    20897    2                    'C_DNARROW',
     3319    20898    2                    'S_LTARROW',
     3320    20899    2                    'S_RTARROW',
     3321    20900    2                    'S_UPARROW',
     3322    20901    2                    'S_DNARROW',
     3323    20902    2                    'IGNORE' );
     3324    20903
     3325    20904    2   CALL ASB$WRITE_LO ('   FUNCTION_KEY', 15);

  20904  4 017501   000305 630400 5                  EPPR0   197
         4 017502   000020 631400 xsym               EPPR1   B_VECTNIL+16
         4 017503   000000 701000 xent               TSX1    ASB$WRITE_LO
PL6.E3A0      #001=ASL$DISP_ONE_PROFILE File=ASL$L_PRO.:E05TSI                   TUE 07/29/97 10:26 Page:555
         4 017504   000000 011000                    NOP     0

     3326    20905    2   IF (KL$FUNKEY.NUM_DEFS = 0)

  20905  4 017505   000156 470400 2                  LDP0    FUNKEY$
         4 017506   000100 100500                    MLR     fill='000'O
         4 017507   000002 400002                    ADSC9   2,,PR0                   cn=2,n=2
         4 017510   200366 000004                    ADSC9   TEMP+4,,AUTO             cn=0,n=4
         4 017511   200366 236100                    LDQ     TEMP+4,,AUTO
         4 017512   000022 732000                    QRS     18
         4 017513   000000 116003                    CMPQ    0,DU
         4 017514   017530 601000 4                  TNZ     s:20912

     3327    20906    3   THEN DO;

     3328    20907    3      IF NOT JCL THEN

  20907  4 017515   200004 471500                    LDP1    @JCL,,AUTO
         4 017516   000000 066500                    CMPB    filb='0'B
         4 017517   100000 000001                    BDSC    0,,PR1                   by=0,bit=0,n=1
         4 017520   000002 000022 xsym               BDSC    B_VECTNIL+2              by=0,bit=0,n=18
         4 017521   017526 601000 4                  TNZ     s:20909

     3329    20908    3         CALL ASB$WRITE_LO ('    None', 8);

  20908  4 017522   000307 630400 5                  EPPR0   199
         4 017523   000020 631400 xsym               EPPR1   B_VECTNIL+16
         4 017524   000000 701000 xent               TSX1    ASB$WRITE_LO
         4 017525   000000 011000                    NOP     0

     3330    20909    3      RETURN;

  20909  4 017526   200272 221300                    LDX1  ! SET+2,,AUTO
         4 017527   000001 702211                    TSX2  ! 1,X1

     3331    20910    3      END;
     3332    20911
PL6.E3A0      #001=ASL$DISP_ONE_PROFILE File=ASL$L_PRO.:E05TSI                   TUE 07/29/97 10:26 Page:556
     3333    20912    2   TAB_POS (0) = 5;

  20912  4 017530   000005 235007                    LDA     5,DL
         4 017531   200353 755100                    STA     TAB_POS,,AUTO

     3334    20913    3   DO J = 1 TO 5;

  20913  4 017532   000001 236007                    LDQ     1,DL
         4 017533   200273 756100                    STQ     J,,AUTO

     3335    20914    3      TAB_POS (J) = ENTRY_LENGTH + TAB_POS (J - 1);

  20914  4 017534   200273 720100                    LXL0    J,,AUTO
         4 017535   000573 236000 2                  LDQ     ENTRY_LENGTH
         4 017536   200352 036110                    ADLQ    MODIFIER+5,X0,AUTO
         4 017537   200353 756110                    STQ     TAB_POS,X0,AUTO

     3336    20915    3      END;

  20915  4 017540   200273 235100                    LDA     J,,AUTO
         4 017541   000001 035007                    ADLA    1,DL
         4 017542   200273 755100                    STA     J,,AUTO
         4 017543   000006 115007                    CMPA    6,DL
         4 017544   017534 602000 4                  TNC     s:20914

     3337    20916    2   CUR_KEY = -1;  /* This sets up to inc the current key before each new

  20916  4 017545   000001 336007                    LCQ     1,DL
         4 017546   200275 756100                    STQ     CUR_KEY,,AUTO

     3338    20917                          key is taken. */
     3339    20918    3   DO WHILE (CUR_KEY < KL$FUNKEY.NUM_DEFS - 1);

  20918  4 017547   021537 710000 4                  TRA     s:21192

     3340    20919
     3341    20920    3      FMT_VEC ( 0 ) = VECTOR ( TAB_POS ( 0 ) );
PL6.E3A0      #001=ASL$DISP_ONE_PROFILE File=ASL$L_PRO.:E05TSI                   TUE 07/29/97 10:26 Page:557

  20920  4 017550   777640 235007                    LDA     -96,DL
         4 017551   200366 452500                    STP2    TEMP+4,,AUTO
         4 017552   200366 236100                    LDQ     TEMP+4,,AUTO
         4 017553   000353 036003                    ADLQ    235,DU
         4 017554   000000 755000 xsym               STA     FMT_VEC
         4 017555   000001 756000 xsym               STQ     FMT_VEC+1

     3342    20921    3      SBIN_IDX = 0;

  20921  4 017556   200077 450100                    STZ     SBIN_IDX,,AUTO

     3343    20922    3      NUM_ON_LINE = 0;

  20922  4 017557   200274 450100                    STZ     NUM_ON_LINE,,AUTO

     3344    20923    3      FDS.NVECS# = 1;

  20923  4 017560   000001 235007                    LDA     1,DL
         4 017561   000011 755000 xsym               STA     FDS+9

     3345    20924    3      FMT_BUF = '%N-';

  20924  4 017562   040000 100400                    MLR     fill='040'O
         4 017563   003764 000003 3                  ADSC9   FUNKEY_NAMES+1545        cn=0,n=3
         4 017564   000000 000377 xsym               ADSC9   FMT_BUF                  cn=0,n=255

     3346    20925    3      FDS.FMT_.BOUND = 2;

  20925  4 017565   000000 236000 xsym               LDQ     FDS
         4 017566   177777 376007                    ANQ     65535,DL
         4 017567   400000 276007                    ORQ     -131072,DL
         4 017570   000000 756000 xsym               STQ     FDS

     3347    20926    4      DO WHILE ((((NUM_ON_LINE + 1) * ENTRY_LENGTH) <= LO_WIDTH) AND

  20926  4 017571   021510 710000 4                  TRA     s:21185
PL6.E3A0      #001=ASL$DISP_ONE_PROFILE File=ASL$L_PRO.:E05TSI                   TUE 07/29/97 10:26 Page:558

     3348    20927    4           (CUR_KEY < KL$FUNKEY.NUM_DEFS - 1) );
     3349    20928
     3350    20929    4         MODIFIER(NUM_ON_LINE) = -1;

  20929  4 017572   000001 335007                    LCA     1,DL
         4 017573   200274 720100                    LXL0    NUM_ON_LINE,,AUTO
         4 017574   200345 755110                    STA     MODIFIER,X0,AUTO

     3351    20930    4         CUR_KEY = CUR_KEY + 1; /* This starts us with the next key */

  20930  4 017575   200275 054100                    AOS     CUR_KEY,,AUTO

     3352    20931              /* Frist we get the name of the key. */
     3353    20932    4         IF (KL$FUNKEY.FCNKEY.FCN_BYTE2 (CUR_KEY) = %KV_INPFNCTYP_CTR)

  20932  4 017576   200275 236100                    LDQ     CUR_KEY,,AUTO
         4 017577   000002 736000                    QLS     2
         4 017600   000156 470400 2                  LDP0    FUNKEY$
         4 017601   000100 101506                    MRL     fill='000'O
         4 017602   000003 400001                    ADSC9   3,Q,PR0                  cn=2,n=1
         4 017603   200366 000004                    ADSC9   TEMP+4,,AUTO             cn=0,n=4
         4 017604   200366 236100                    LDQ     TEMP+4,,AUTO
         4 017605   000003 116007                    CMPQ    3,DL
         4 017606   017633 601000 4                  TNZ     s:20942

     3354    20933    5         THEN DO;  /* The key is a line function */

     3355    20934    5            IF (KL$FUNKEY.FCNKEY.FCN_BYTE3 (CUR_KEY) = 1)

  20934  4 017607   200275 236100                    LDQ     CUR_KEY,,AUTO
         4 017610   000002 736000                    QLS     2
         4 017611   000100 101506                    MRL     fill='000'O
         4 017612   000003 600001                    ADSC9   3,Q,PR0                  cn=3,n=1
         4 017613   200366 000004                    ADSC9   TEMP+4,,AUTO             cn=0,n=4
         4 017614   200366 236100                    LDQ     TEMP+4,,AUTO
         4 017615   000001 116007                    CMPQ    1,DL
PL6.E3A0      #001=ASL$DISP_ONE_PROFILE File=ASL$L_PRO.:E05TSI                   TUE 07/29/97 10:26 Page:559
         4 017616   017625 601000 4                  TNZ     s:20939

     3356    20935    6            THEN DO;  /* code for break */

     3357    20936    6               KEYNAME (NUM_ON_LINE) = 'BREAK';

  20936  4 017617   200274 236100                    LDQ     NUM_ON_LINE,,AUTO
         4 017620   000030 402007                    MPY     24,DL
         4 017621   040106 100400                    MLR     fill='040'O
         4 017622   004023 000005 3                  ADSC9   FUNKEY_NAMES+1576        cn=0,n=5
         4 017623   200276 000030                    ADSC9   KEYNAME,Q,AUTO           cn=0,n=24

     3358    20937    6               END;   /* If */

  20937  4 017624   020336 710000 4                  TRA     s:21015

     3359    20938    6            ELSE DO;

     3360    20939    6               KEYNAME (NUM_ON_LINE) = 'Unrecognized key';

  20939  4 017625   200274 236100                    LDQ     NUM_ON_LINE,,AUTO
         4 017626   000030 402007                    MPY     24,DL
         4 017627   040106 100400                    MLR     fill='040'O
         4 017630   004025 000020 3                  ADSC9   FUNKEY_NAMES+1578        cn=0,n=16
         4 017631   200276 000030                    ADSC9   KEYNAME,Q,AUTO           cn=0,n=24

     3361    20940    6               END;   /*  Else  */

     3362    20941    5            END;

  20941  4 017632   020336 710000 4                  TRA     s:21015

     3363    20942    4         ELSE IF (KL$FUNKEY.FCNKEY.FCN_BYTE2 (CUR_KEY) = %KV_INPFNCTYP_SPCCHR)

  20942  4 017633   200275 235100                    LDA     CUR_KEY,,AUTO
         4 017634   000002 735000                    ALS     2
         4 017635   000100 101505                    MRL     fill='000'O
PL6.E3A0      #001=ASL$DISP_ONE_PROFILE File=ASL$L_PRO.:E05TSI                   TUE 07/29/97 10:26 Page:560
         4 017636   000003 400001                    ADSC9   3,A,PR0                  cn=2,n=1
         4 017637   200366 000004                    ADSC9   TEMP+4,,AUTO             cn=0,n=4
         4 017640   200366 236100                    LDQ     TEMP+4,,AUTO
         4 017641   000002 116007                    CMPQ    2,DL
         4 017642   020035 601000 4                  TNZ     s:20969

     3364    20943    5            THEN DO;

     3365    20944    5               IF (KL$FUNKEY.FCNKEY.FCN_BYTE3(CUR_KEY) < 33) OR

  20944  4 017643   000100 101505                    MRL     fill='000'O
         4 017644   000003 600001                    ADSC9   3,A,PR0                  cn=3,n=1
         4 017645   200366 000004                    ADSC9   TEMP+4,,AUTO             cn=0,n=4
         4 017646   200366 236100                    LDQ     TEMP+4,,AUTO
         4 017647   000041 116007                    CMPQ    33,DL
         4 017650   017657 604000 4                  TMI     s:20946
         4 017651   000100 101505                    MRL     fill='000'O
         4 017652   000003 600001                    ADSC9   3,A,PR0                  cn=3,n=1
         4 017653   200367 000004                    ADSC9   TEMP+5,,AUTO             cn=0,n=4
         4 017654   200367 236100                    LDQ     TEMP+5,,AUTO
         4 017655   000177 116007                    CMPQ    127,DL
         4 017656   017675 601000 4                  TNZ     s:20948

     3366    20945    5                    (KL$FUNKEY.FCNKEY.FCN_BYTE3(CUR_KEY) = 127) THEN
     3367    20946    5                 KEYNAME (NUM_ON_LINE) = UNPRINT_TABLE.TXT (KL$FUNKEY.FCNKEY.FCN_BYTE3
             20946                           (CUR_KEY));

  20946  4 017657   000100 101505                    MRL     fill='000'O
         4 017660   000003 600001                    ADSC9   3,A,PR0                  cn=3,n=1
         4 017661   200366 000002                    ADSC9   TEMP+4,,AUTO             cn=0,n=2
         4 017662   200366 221100                    LDX1    TEMP+4,,AUTO
         4 017663   000000 636011                    EAQ     0,X1
         4 017664   000020 772000                    QRL     16
         4 017665   200367 756100                    STQ     TEMP+5,,AUTO
         4 017666   200274 236100                    LDQ     NUM_ON_LINE,,AUTO
         4 017667   000030 402007                    MPY     24,DL
         4 017670   200367 235100                    LDA     TEMP+5,,AUTO
PL6.E3A0      #001=ASL$DISP_ONE_PROFILE File=ASL$L_PRO.:E05TSI                   TUE 07/29/97 10:26 Page:561
         4 017671   040106 100405                    MLR     fill='040'O
         4 017672   000340 200003 3                  ADSC9   UNPRINT_TABLE,A          cn=1,n=3
         4 017673   200276 000030                    ADSC9   KEYNAME,Q,AUTO           cn=0,n=24
         4 017674   020336 710000 4                  TRA     s:21015

     3368    20947    5               ELSE
     3369    20948    5                  IF (KL$FUNKEY.FCNKEY.FCN_BYTE3(CUR_KEY) < 127)

  20948  4 017675   000100 101505                    MRL     fill='000'O
         4 017676   000003 600001                    ADSC9   3,A,PR0                  cn=3,n=1
         4 017677   200366 000004                    ADSC9   TEMP+4,,AUTO             cn=0,n=4
         4 017700   200366 236100                    LDQ     TEMP+4,,AUTO
         4 017701   000177 116007                    CMPQ    127,DL
         4 017702   017735 605000 4                  TPL     s:20954

     3370    20949    6                  THEN DO;  /* It is printable */

     3371    20950    6                     TEMP = BINASC (KL$FUNKEY.FCNKEY.FCN_BYTE3(CUR_KEY));

  20950  4 017703   000100 101505                    MRL     fill='000'O
         4 017704   000003 600001                    ADSC9   3,A,PR0                  cn=3,n=1
         4 017705   200366 000004                    ADSC9   TEMP+4,,AUTO             cn=0,n=4
         4 017706   200366 236100                    LDQ     TEMP+4,,AUTO
         4 017707   000033 736000                    QLS     27
         4 017710   000006 276000 5                  ORQ     6
         4 017711   200367 756100                    STQ     TEMP+5,,AUTO
         4 017712   040100 100500                    MLR     fill='040'O
         4 017713   200367 000004                    ADSC9   TEMP+5,,AUTO             cn=0,n=4
         4 017714   200362 000014                    ADSC9   TEMP,,AUTO               cn=0,n=12

     3372    20951    6                     CALL CONCAT (KEYNAME (NUM_ON_LINE), '''', SUBSTR (TEMP, 0, 1),
             20951                              '''');

  20951  4 017715   200274 236100                    LDQ     NUM_ON_LINE,,AUTO
         4 017716   000006 402007                    MPY     6,DL
         4 017717   000000 621006                    EAX1    0,QL
         4 017720   047000 236003                    LDQ     19968,DU
PL6.E3A0      #001=ASL$DISP_ONE_PROFILE File=ASL$L_PRO.:E05TSI                   TUE 07/29/97 10:26 Page:562
         4 017721   200276 756111                    STQ     KEYNAME,X1,AUTO
         4 017722   200362 236100                    LDQ     TEMP,,AUTO
         4 017723   000011 772000                    QRL     9
         4 017724   200276 676111                    ERQ     KEYNAME,X1,AUTO
         4 017725   000777 376003                    ANQ     511,DU
         4 017726   200276 656111                    ERSQ    KEYNAME,X1,AUTO
         4 017727   200274 236100                    LDQ     NUM_ON_LINE,,AUTO
         4 017730   000030 402007                    MPY     24,DL
         4 017731   040106 100400                    MLR     fill='040'O
         4 017732   000242 000001 5                  ADSC9   162                      cn=0,n=1
         4 017733   200276 400026                    ADSC9   KEYNAME,Q,AUTO           cn=2,n=22

     3373    20952    6                     END; /*  Printable BYTE3  */

  20952  4 017734   020336 710000 4                  TRA     s:21015

     3374    20953    6                  ELSE DO;

     3375    20954    6                     UHEX_NUM = KL$FUNKEY.FCNKEY.FCN_BYTE3 (CUR_KEY);

  20954  4 017735   000100 101505                    MRL     fill='000'O
         4 017736   000003 600001                    ADSC9   3,A,PR0                  cn=3,n=1
         4 017737   200144 000004                    ADSC9   UHEX_NUM,,AUTO           cn=0,n=4

     3376    20955    7                     DO I = 5 TO 8 ;

  20955  4 017740   000005 235007                    LDA     5,DL
         4 017741   200133 755100                    STA     I,,AUTO

     3377    20956    7                        RHEX_BUF(I-5) = HEX_CHARS(HEX_NUM(I)) ;

  20956  4 017742   200133 235100                    LDA     I,,AUTO
         4 017743   000002 735000                    ALS     2
         4 017744   003100 061505                    CSR     bolr='003'O
         4 017745   200144 000004                    BDSC    UHEX_NUM,A,AUTO          by=0,bit=0,n=4
         4 017746   200366 000044                    BDSC    TEMP+4,,AUTO             by=0,bit=0,n=36
         4 017747   200366 236100                    LDQ     TEMP+4,,AUTO
PL6.E3A0      #001=ASL$DISP_ONE_PROFILE File=ASL$L_PRO.:E05TSI                   TUE 07/29/97 10:26 Page:563
         4 017750   200133 235100                    LDA     I,,AUTO
         4 017751   040105 100406                    MLR     fill='040'O
         4 017752   000042 000001 2                  ADSC9   HEX_CHARS,Q              cn=0,n=1
         4 017753   200143 600001                    ADSC9   SPLIT$,A,AUTO            cn=3,n=1

     3378    20957    7                        END ;                  /* Do i */

  20957  4 017754   000001 035007                    ADLA    1,DL
         4 017755   200133 755100                    STA     I,,AUTO
         4 017756   000011 115007                    CMPA    9,DL
         4 017757   017742 602000 4                  TNC     s:20956

     3379    20958    6                     CALL EDITSTR( HEX_BUF, 0, 4, MOP_STR, HEX_BUF );

  20958  4 017760   100000 020500                    MVE
         4 017761   200145 000004                    ADSC9   HEX_BUF,,AUTO            cn=0,n=4
         4 017762   000733 000002 3                  ADSC9   MOP_STR                  cn=0,n=2
         4 017763   200145 000004                    ADSC9   HEX_BUF,,AUTO            cn=0,n=4

     3380    20959    6                     CALL INDEX1R( I, AS_BLANK, HEX_BUF )

  20959  4 017764   000000 125500                    SCMR    mask='000'O
         4 017765   200145 000004                    ADSC9   HEX_BUF,,AUTO            cn=0,n=4
         4 017766   000000 000001 xsym               ADSC9   AS_BLANK                 cn=0,n=1
         4 017767   200133 000100                    ARG     I,,AUTO
         4 017770   017777 606400 4                  TTN     s:20964
         4 017771   000003 236007                    LDQ     3,DL
         4 017772   200133 156100                    SSQ     I,,AUTO

     3381    20960    7                     WHENRETURN DO;

     3382    20961    7                        I = I + 1;

  20961  4 017773   200133 235100                    LDA     I,,AUTO
         4 017774   000001 035007                    ADLA    1,DL
         4 017775   200133 755100                    STA     I,,AUTO

PL6.E3A0      #001=ASL$DISP_ONE_PROFILE File=ASL$L_PRO.:E05TSI                   TUE 07/29/97 10:26 Page:564
     3383    20962    7                        END; /*  Whenreturn  */

  20962  4 017776   020000 710000 4                  TRA     s:20966

     3384    20963    7                     WHENALTRETURN DO;

     3385    20964    7                        I = 0;

  20964  4 017777   200133 450100                    STZ     I,,AUTO

     3386    20965    7                        END ; /*  Whenaltreturn  */

     3387    20966    6                     CALL CONCAT (KEYNAME (NUM_ON_LINE), 'X''',SUBSTR(HEX_BUF,I,4-I),
             20966                              '''') ;

  20966  4 020000   200274 236100                    LDQ     NUM_ON_LINE,,AUTO
         4 020001   000006 402007                    MPY     6,DL
         4 020002   003771 220000 3                  LDX0    FUNKEY_NAMES+1550
         4 020003   200276 740106                    STX0    KEYNAME,QL,AUTO
         4 020004   200133 721100                    LXL1    I,,AUTO
         4 020005   777773 621011                    EAX1    -5,X1
         4 020006   777777 661003                    ERX1    -1,DU
         4 020007   200274 236100                    LDQ     NUM_ON_LINE,,AUTO
         4 020010   000030 402007                    MPY     24,DL
         4 020011   200133 235100                    LDA     I,,AUTO
         4 020012   040106 100545                    MLR     fill='040'O
         4 020013   200145 000011                    ADSC9   HEX_BUF,A,AUTO           cn=0,n=*X1
         4 020014   200276 400026                    ADSC9   KEYNAME,Q,AUTO           cn=2,n=22
         4 020015   200133 236100                    LDQ     I,,AUTO
         4 020016   020021 604000 4                  TMI     s:20966+17
         4 020017   000311 116000 5                  CMPQ    201
         4 020020   020034 604000 4                  TMI     s:20968
         4 020021   000000 236003                    LDQ     0,DU
         4 020022   200274 136100                    SBLQ    NUM_ON_LINE,,AUTO
         4 020023   000030 402007                    MPY     24,DL
         4 020024   200133 036100                    ADLQ    I,,AUTO
         4 020025   200133 722100                    LXL2    I,,AUTO
PL6.E3A0      #001=ASL$DISP_ONE_PROFILE File=ASL$L_PRO.:E05TSI                   TUE 07/29/97 10:26 Page:565
         4 020026   000022 623012                    EAX3    18,X2
         4 020027   000027 676000 xsym               ERQ     B_VECTNIL+23
         4 020030   000001 036007                    ADLQ    1,DL
         4 020031   040146 100400                    MLR     fill='040'O
         4 020032   000242 000001 5                  ADSC9   162                      cn=0,n=1
         4 020033   200277 400013                    ADSC9   POS,Q,AUTO               cn=2,n=*X3

     3388    20967    6                     END; /*  Hex number  */

     3389    20968    5               END;  /*  BYTE2 = spcchr  */

  20968  4 020034   020336 710000 4                  TRA     s:21015

     3390    20969    4            ELSE IF (KL$FUNKEY.FCNKEY.FCN_BYTE2 (CUR_KEY) = %KV_INPFNCTYP_FNCKEY)

  20969  4 020035   000100 101505                    MRL     fill='000'O
         4 020036   000003 400001                    ADSC9   3,A,PR0                  cn=2,n=1
         4 020037   200366 000004                    ADSC9   TEMP+4,,AUTO             cn=0,n=4
         4 020040   200366 236100                    LDQ     TEMP+4,,AUTO
         4 020041   000004 116007                    CMPQ    4,DL
         4 020042   020063 601000 4                  TNZ     s:20973

     3391    20970    5               THEN DO;

     3392    20971    5                  KEYNAME (NUM_ON_LINE) = FUNKEY_NAMES (KL$FUNKEY.FCNKEY.FCN_BYTE3 (
             20971                           CUR_KEY));

  20971  4 020043   000100 101505                    MRL     fill='000'O
         4 020044   000003 600001                    ADSC9   3,A,PR0                  cn=3,n=1
         4 020045   200366 000002                    ADSC9   TEMP+4,,AUTO             cn=0,n=2
         4 020046   200366 221100                    LDX1    TEMP+4,,AUTO
         4 020047   200366 021100                    ADLX1   TEMP+4,,AUTO
         4 020050   200366 021100                    ADLX1   TEMP+4,,AUTO
         4 020051   000000 636011                    EAQ     0,X1
         4 020052   000017 772000                    QRL     15
         4 020053   200367 756100                    STQ     TEMP+5,,AUTO
         4 020054   200274 236100                    LDQ     NUM_ON_LINE,,AUTO
PL6.E3A0      #001=ASL$DISP_ONE_PROFILE File=ASL$L_PRO.:E05TSI                   TUE 07/29/97 10:26 Page:566
         4 020055   000030 402007                    MPY     24,DL
         4 020056   200367 235100                    LDA     TEMP+5,,AUTO
         4 020057   040106 100405                    MLR     fill='040'O
         4 020060   000753 000030 3                  ADSC9   FUNKEY_NAMES,A           cn=0,n=24
         4 020061   200276 000030                    ADSC9   KEYNAME,Q,AUTO           cn=0,n=24

     3393    20972    5                  END;  /*  BYTE2 = fnckey  */

  20972  4 020062   020336 710000 4                  TRA     s:21015

     3394    20973    4               ELSE IF (KL$FUNKEY.FCNKEY.FCN_BYTE2 (CUR_KEY) = %KV_INPFNCKEY_IGNORE)

  20973  4 020063   000100 101505                    MRL     fill='000'O
         4 020064   000003 400001                    ADSC9   3,A,PR0                  cn=2,n=1
         4 020065   200366 000004                    ADSC9   TEMP+4,,AUTO             cn=0,n=4
         4 020066   200366 236100                    LDQ     TEMP+4,,AUTO
         4 020067   000777 116007                    CMPQ    511,DL
         4 020070   020077 601000 4                  TNZ     s:20978

     3395    20974    5                  THEN DO;

     3396    20975    5                     KEYNAME (NUM_ON_LINE) = FUNKEY_NAMES (256);

  20975  4 020071   200274 236100                    LDQ     NUM_ON_LINE,,AUTO
         4 020072   000030 402007                    MPY     24,DL
         4 020073   040106 100400                    MLR     fill='040'O
         4 020074   003753 000030 3                  ADSC9   FUNKEY_NAMES+1536        cn=0,n=24
         4 020075   200276 000030                    ADSC9   KEYNAME,Q,AUTO           cn=0,n=24

     3397    20976    5                     END;  /*  BYTE2 = ignore  */

  20976  4 020076   020336 710000 4                  TRA     s:21015

     3398    20977    5                  ELSE DO; /* Deal with a modifier for the key. */

     3399    20978    5                     KEYNMOD = KL$FUNKEY.FCNKEY.FCN_BYTE2 (CUR_KEY);

PL6.E3A0      #001=ASL$DISP_ONE_PROFILE File=ASL$L_PRO.:E05TSI                   TUE 07/29/97 10:26 Page:567
  20978  4 020077   000100 101505                    MRL     fill='000'O
         4 020100   000003 400001                    ADSC9   3,A,PR0                  cn=2,n=1
         4 020101   200344 000004                    ADSC9   KEYNMOD,,AUTO            cn=0,n=4

     3400    20979    5                     IF ((KEYNMOD >= %KV_FCNKEY_MODIFIER_BASE) AND

  20979  4 020102   200344 235100                    LDA     KEYNMOD,,AUTO
         4 020103   000012 115007                    CMPA    10,DL
         4 020104   020132 602000 4                  TNC     s:20985
         4 020105   000200 115007                    CMPA    128,DL
         4 020106   020132 603000 4                  TRC     s:20985

     3401    20980    5                          (KEYNMOD < %KV_SPCCHR_MODIFIER_BASE) )
     3402    20981    6                     THEN DO; /* This is a modifier for a function key */

     3403    20982    6                        MODIFIER(NUM_ON_LINE) = KEYNMOD - %KV_FCNKEY_MODIFIER_BASE;

  20982  4 020107   000012 135007                    SBLA    10,DL
         4 020110   200345 755110                    STA     MODIFIER,X0,AUTO

     3404    20983    6                        KEYNAME (NUM_ON_LINE) = FUNKEY_NAMES (KL$FUNKEY.FCNKEY.
             20983                                 FCN_BYTE3 (CUR_KEY));

  20983  4 020111   200275 235100                    LDA     CUR_KEY,,AUTO
         4 020112   000002 735000                    ALS     2
         4 020113   000100 101505                    MRL     fill='000'O
         4 020114   000003 600001                    ADSC9   3,A,PR0                  cn=3,n=1
         4 020115   200366 000002                    ADSC9   TEMP+4,,AUTO             cn=0,n=2
         4 020116   200366 221100                    LDX1    TEMP+4,,AUTO
         4 020117   200366 021100                    ADLX1   TEMP+4,,AUTO
         4 020120   200366 021100                    ADLX1   TEMP+4,,AUTO
         4 020121   000000 636011                    EAQ     0,X1
         4 020122   000017 772000                    QRL     15
         4 020123   200367 756100                    STQ     TEMP+5,,AUTO
         4 020124   200274 236100                    LDQ     NUM_ON_LINE,,AUTO
         4 020125   000030 402007                    MPY     24,DL
         4 020126   200367 235100                    LDA     TEMP+5,,AUTO
PL6.E3A0      #001=ASL$DISP_ONE_PROFILE File=ASL$L_PRO.:E05TSI                   TUE 07/29/97 10:26 Page:568
         4 020127   040106 100405                    MLR     fill='040'O
         4 020130   000753 000030 3                  ADSC9   FUNKEY_NAMES,A           cn=0,n=24
         4 020131   200276 000030                    ADSC9   KEYNAME,Q,AUTO           cn=0,n=24

     3405    20984    6                        END; /* Function key modifier */

     3406    20985    5                     IF (KEYNMOD >= %KV_SPCCHR_MODIFIER_BASE)

  20985  4 020132   200344 235100                    LDA     KEYNMOD,,AUTO
         4 020133   000200 115007                    CMPA    128,DL
         4 020134   020336 602000 4                  TNC     s:21015

     3407    20986    6                     THEN DO;

     3408    20987    6                        MODIFIER(NUM_ON_LINE) = KEYNMOD - %KV_SPCCHR_MODIFIER_BASE;

  20987  4 020135   000200 135007                    SBLA    128,DL
         4 020136   200345 755110                    STA     MODIFIER,X0,AUTO

     3409    20988    6                        IF (KL$FUNKEY.FCNKEY.FCN_BYTE3(CUR_KEY) < 33) OR

  20988  4 020137   200275 236100                    LDQ     CUR_KEY,,AUTO
         4 020140   000002 736000                    QLS     2
         4 020141   000100 101506                    MRL     fill='000'O
         4 020142   000003 600001                    ADSC9   3,Q,PR0                  cn=3,n=1
         4 020143   200366 000004                    ADSC9   TEMP+4,,AUTO             cn=0,n=4
         4 020144   200366 236100                    LDQ     TEMP+4,,AUTO
         4 020145   000041 116007                    CMPQ    33,DL
         4 020146   020157 604000 4                  TMI     s:20990
         4 020147   200275 235100                    LDA     CUR_KEY,,AUTO
         4 020150   000002 735000                    ALS     2
         4 020151   000100 101505                    MRL     fill='000'O
         4 020152   000003 600001                    ADSC9   3,A,PR0                  cn=3,n=1
         4 020153   200367 000004                    ADSC9   TEMP+5,,AUTO             cn=0,n=4
         4 020154   200367 236100                    LDQ     TEMP+5,,AUTO
         4 020155   000177 116007                    CMPQ    127,DL
         4 020156   020177 601000 4                  TNZ     s:20992
PL6.E3A0      #001=ASL$DISP_ONE_PROFILE File=ASL$L_PRO.:E05TSI                   TUE 07/29/97 10:26 Page:569

     3410    20989    6                             (KL$FUNKEY.FCNKEY.FCN_BYTE3(CUR_KEY) = 127) THEN
     3411    20990    6                          KEYNAME (NUM_ON_LINE) = UNPRINT_TABLE.TXT (KL$FUNKEY.FCNKEY.
             20990                                    FCN_BYTE3(CUR_KEY));

  20990  4 020157   200275 235100                    LDA     CUR_KEY,,AUTO
         4 020160   000002 735000                    ALS     2
         4 020161   000100 101505                    MRL     fill='000'O
         4 020162   000003 600001                    ADSC9   3,A,PR0                  cn=3,n=1
         4 020163   200366 000002                    ADSC9   TEMP+4,,AUTO             cn=0,n=2
         4 020164   200366 221100                    LDX1    TEMP+4,,AUTO
         4 020165   000000 636011                    EAQ     0,X1
         4 020166   000020 772000                    QRL     16
         4 020167   200367 756100                    STQ     TEMP+5,,AUTO
         4 020170   200274 236100                    LDQ     NUM_ON_LINE,,AUTO
         4 020171   000030 402007                    MPY     24,DL
         4 020172   200367 235100                    LDA     TEMP+5,,AUTO
         4 020173   040106 100405                    MLR     fill='040'O
         4 020174   000340 200003 3                  ADSC9   UNPRINT_TABLE,A          cn=1,n=3
         4 020175   200276 000030                    ADSC9   KEYNAME,Q,AUTO           cn=0,n=24
         4 020176   020336 710000 4                  TRA     s:21015

     3412    20991    6                        ELSE
     3413    20992    6                           IF (KL$FUNKEY.FCNKEY.FCN_BYTE3(CUR_KEY) < 127)

  20992  4 020177   000100 101505                    MRL     fill='000'O
         4 020200   000003 600001                    ADSC9   3,A,PR0                  cn=3,n=1
         4 020201   200366 000004                    ADSC9   TEMP+4,,AUTO             cn=0,n=4
         4 020202   200366 236100                    LDQ     TEMP+4,,AUTO
         4 020203   000177 116007                    CMPQ    127,DL
         4 020204   020237 605000 4                  TPL     s:20998

     3414    20993    7                           THEN DO; /* It is printable */

     3415    20994    7                              TEMP = BINASC (KL$FUNKEY.FCNKEY.FCN_BYTE3(CUR_KEY));

  20994  4 020205   000100 101505                    MRL     fill='000'O
PL6.E3A0      #001=ASL$DISP_ONE_PROFILE File=ASL$L_PRO.:E05TSI                   TUE 07/29/97 10:26 Page:570
         4 020206   000003 600001                    ADSC9   3,A,PR0                  cn=3,n=1
         4 020207   200366 000004                    ADSC9   TEMP+4,,AUTO             cn=0,n=4
         4 020210   200366 236100                    LDQ     TEMP+4,,AUTO
         4 020211   000033 736000                    QLS     27
         4 020212   000006 276000 5                  ORQ     6
         4 020213   200367 756100                    STQ     TEMP+5,,AUTO
         4 020214   040100 100500                    MLR     fill='040'O
         4 020215   200367 000004                    ADSC9   TEMP+5,,AUTO             cn=0,n=4
         4 020216   200362 000014                    ADSC9   TEMP,,AUTO               cn=0,n=12

     3416    20995    7                             CALL CONCAT (KEYNAME (NUM_ON_LINE), '''', SUBSTR (TEMP, 0
             20995                                       , 1), '''');

  20995  4 020217   200274 236100                    LDQ     NUM_ON_LINE,,AUTO
         4 020220   000006 402007                    MPY     6,DL
         4 020221   000000 621006                    EAX1    0,QL
         4 020222   047000 236003                    LDQ     19968,DU
         4 020223   200276 756111                    STQ     KEYNAME,X1,AUTO
         4 020224   200362 236100                    LDQ     TEMP,,AUTO
         4 020225   000011 772000                    QRL     9
         4 020226   200276 676111                    ERQ     KEYNAME,X1,AUTO
         4 020227   000777 376003                    ANQ     511,DU
         4 020230   200276 656111                    ERSQ    KEYNAME,X1,AUTO
         4 020231   200274 236100                    LDQ     NUM_ON_LINE,,AUTO
         4 020232   000030 402007                    MPY     24,DL
         4 020233   040106 100400                    MLR     fill='040'O
         4 020234   000242 000001 5                  ADSC9   162                      cn=0,n=1
         4 020235   200276 400026                    ADSC9   KEYNAME,Q,AUTO           cn=2,n=22

     3417    20996    7                              END; /*  Printable single char  */

  20996  4 020236   020336 710000 4                  TRA     s:21015

     3418    20997    7                           ELSE DO;

     3419    20998    7                              UHEX_NUM = KL$FUNKEY.FCNKEY.FCN_BYTE3 (CUR_KEY);

PL6.E3A0      #001=ASL$DISP_ONE_PROFILE File=ASL$L_PRO.:E05TSI                   TUE 07/29/97 10:26 Page:571
  20998  4 020237   000100 101505                    MRL     fill='000'O
         4 020240   000003 600001                    ADSC9   3,A,PR0                  cn=3,n=1
         4 020241   200144 000004                    ADSC9   UHEX_NUM,,AUTO           cn=0,n=4

     3420    20999    8                              DO I = 5 TO 8 ;

  20999  4 020242   000005 235007                    LDA     5,DL
         4 020243   200133 755100                    STA     I,,AUTO

     3421    21000    8                                 RHEX_BUF(I-5) = HEX_CHARS(HEX_NUM(I)) ;

  21000  4 020244   200133 235100                    LDA     I,,AUTO
         4 020245   000002 735000                    ALS     2
         4 020246   003100 061505                    CSR     bolr='003'O
         4 020247   200144 000004                    BDSC    UHEX_NUM,A,AUTO          by=0,bit=0,n=4
         4 020250   200366 000044                    BDSC    TEMP+4,,AUTO             by=0,bit=0,n=36
         4 020251   200366 236100                    LDQ     TEMP+4,,AUTO
         4 020252   200133 235100                    LDA     I,,AUTO
         4 020253   040105 100406                    MLR     fill='040'O
         4 020254   000042 000001 2                  ADSC9   HEX_CHARS,Q              cn=0,n=1
         4 020255   200143 600001                    ADSC9   SPLIT$,A,AUTO            cn=3,n=1

     3422    21001    8                                 END ;         /* Do i */

  21001  4 020256   000001 035007                    ADLA    1,DL
         4 020257   200133 755100                    STA     I,,AUTO
         4 020260   000011 115007                    CMPA    9,DL
         4 020261   020244 602000 4                  TNC     s:21000

     3423    21002    7                              CALL EDITSTR( HEX_BUF, 0, 4, MOP_STR, HEX_BUF );

  21002  4 020262   100000 020500                    MVE
         4 020263   200145 000004                    ADSC9   HEX_BUF,,AUTO            cn=0,n=4
         4 020264   000733 000002 3                  ADSC9   MOP_STR                  cn=0,n=2
         4 020265   200145 000004                    ADSC9   HEX_BUF,,AUTO            cn=0,n=4

     3424    21003    7                              CALL INDEX1R( I, AS_BLANK, HEX_BUF )
PL6.E3A0      #001=ASL$DISP_ONE_PROFILE File=ASL$L_PRO.:E05TSI                   TUE 07/29/97 10:26 Page:572

  21003  4 020266   000000 125500                    SCMR    mask='000'O
         4 020267   200145 000004                    ADSC9   HEX_BUF,,AUTO            cn=0,n=4
         4 020270   000000 000001 xsym               ADSC9   AS_BLANK                 cn=0,n=1
         4 020271   200133 000100                    ARG     I,,AUTO
         4 020272   020301 606400 4                  TTN     s:21008
         4 020273   000003 236007                    LDQ     3,DL
         4 020274   200133 156100                    SSQ     I,,AUTO

     3425    21004    8                              WHENRETURN DO;

     3426    21005    8                                 I = I + 1;

  21005  4 020275   200133 235100                    LDA     I,,AUTO
         4 020276   000001 035007                    ADLA    1,DL
         4 020277   200133 755100                    STA     I,,AUTO

     3427    21006    8                                 END; /*  Whenreturn  */

  21006  4 020300   020302 710000 4                  TRA     s:21010

     3428    21007    8                              WHENALTRETURN DO;

     3429    21008    8                                 I = 0;

  21008  4 020301   200133 450100                    STZ     I,,AUTO

     3430    21009    8                                 END ; /*  Whenaltreturn  */

     3431    21010    7                             CALL CONCAT (KEYNAME (NUM_ON_LINE), 'X''',SUBSTR(HEX_BUF,
             21010                                       I,4-I),'''') ;

  21010  4 020302   200274 236100                    LDQ     NUM_ON_LINE,,AUTO
         4 020303   000006 402007                    MPY     6,DL
         4 020304   003771 220000 3                  LDX0    FUNKEY_NAMES+1550
         4 020305   200276 740106                    STX0    KEYNAME,QL,AUTO
         4 020306   200133 721100                    LXL1    I,,AUTO
PL6.E3A0      #001=ASL$DISP_ONE_PROFILE File=ASL$L_PRO.:E05TSI                   TUE 07/29/97 10:26 Page:573
         4 020307   777773 621011                    EAX1    -5,X1
         4 020310   777777 661003                    ERX1    -1,DU
         4 020311   200274 236100                    LDQ     NUM_ON_LINE,,AUTO
         4 020312   000030 402007                    MPY     24,DL
         4 020313   200133 235100                    LDA     I,,AUTO
         4 020314   040106 100545                    MLR     fill='040'O
         4 020315   200145 000011                    ADSC9   HEX_BUF,A,AUTO           cn=0,n=*X1
         4 020316   200276 400026                    ADSC9   KEYNAME,Q,AUTO           cn=2,n=22
         4 020317   200133 236100                    LDQ     I,,AUTO
         4 020320   020323 604000 4                  TMI     s:21010+17
         4 020321   000311 116000 5                  CMPQ    201
         4 020322   020336 604000 4                  TMI     s:21015
         4 020323   000000 236003                    LDQ     0,DU
         4 020324   200274 136100                    SBLQ    NUM_ON_LINE,,AUTO
         4 020325   000030 402007                    MPY     24,DL
         4 020326   200133 036100                    ADLQ    I,,AUTO
         4 020327   200133 722100                    LXL2    I,,AUTO
         4 020330   000022 623012                    EAX3    18,X2
         4 020331   000027 676000 xsym               ERQ     B_VECTNIL+23
         4 020332   000001 036007                    ADLQ    1,DL
         4 020333   040146 100400                    MLR     fill='040'O
         4 020334   000242 000001 5                  ADSC9   162                      cn=0,n=1
         4 020335   200277 400013                    ADSC9   POS,Q,AUTO               cn=2,n=*X3

     3432    21011    7                              END; /*  Hex number  */

     3433    21012    6                        END; /* Special character modifier */

     3434    21013    5                     END; /* Else do */

     3435    21014
     3436    21015    4         FMT_VEC (FDS.NVECS#) = VECTOR ( KEYNAME (NUM_ON_LINE) );

  21015  4 020336   000011 235000 xsym               LDA     FDS+9
         4 020337   000001 735000                    ALS     1
         4 020340   000000 620005                    EAX0    0,AL
         4 020341   000312 235000 5                  LDA     202
PL6.E3A0      #001=ASL$DISP_ONE_PROFILE File=ASL$L_PRO.:E05TSI                   TUE 07/29/97 10:26 Page:574
         4 020342   200366 452500                    STP2    TEMP+4,,AUTO
         4 020343   200274 236100                    LDQ     NUM_ON_LINE,,AUTO
         4 020344   200367 755100                    STA     TEMP+5,,AUTO
         4 020345   000006 402003                    MPY     6,DU
         4 020346   000276 036003                    ADLQ    190,DU
         4 020347   200366 036100                    ADLQ    TEMP+4,,AUTO
         4 020350   200367 235100                    LDA     TEMP+5,,AUTO
         4 020351   000000 755010 xsym               STA     FMT_VEC,X0
         4 020352   000001 756010 xsym               STQ     FMT_VEC+1,X0

     3437    21016    4         FDS.NVECS# = FDS.NVECS# + 1;

  21016  4 020353   000011 054000 xsym               AOS     FDS+9

     3438    21017    4         CALL INSERT (FMT_BUF,FDS.FMT_.BOUND+1,6,'%>A = ');

  21017  4 020354   000000 236000 xsym               LDQ     FDS
         4 020355   000020 772000                    QRL     16
         4 020356   040006 100400                    MLR     fill='040'O
         4 020357   004031 000006 3                  ADSC9   FUNKEY_NAMES+1582        cn=0,n=6
         4 020360   000000 200006 xsym               ADSC9   FMT_BUF,Q                cn=1,n=6

     3439    21018    4         FDS.FMT_.BOUND = FDS.FMT_.BOUND + 6;

  21018  4 020361   000006 036007                    ADLQ    6,DL
         4 020362   000020 736000                    QLS     16
         4 020363   000000 676000 xsym               ERQ     FDS
         4 020364   000034 376000 xsym               ANQ     B_VECTNIL+28
         4 020365   000000 656000 xsym               ERSQ    FDS

     3440    21019
     3441    21020              /* Next we put the introducers and character into the array*/
     3442    21021
     3443    21022    4         IF (KL$FUNKEY.FCNKEY.FCN_BYTE0 (CUR_KEY) = 0)

  21022  4 020366   200275 235100                    LDA     CUR_KEY,,AUTO
         4 020367   000002 735000                    ALS     2
PL6.E3A0      #001=ASL$DISP_ONE_PROFILE File=ASL$L_PRO.:E05TSI                   TUE 07/29/97 10:26 Page:575
         4 020370   000156 470400 2                  LDP0    FUNKEY$
         4 020371   000100 101505                    MRL     fill='000'O
         4 020372   000003 000001                    ADSC9   3,A,PR0                  cn=0,n=1
         4 020373   200366 000004                    ADSC9   TEMP+4,,AUTO             cn=0,n=4
         4 020374   200366 236100                    LDQ     TEMP+4,,AUTO
         4 020375   000000 116003                    CMPQ    0,DU
         4 020376   020721 601000 4                  TNZ     s:21078

     3444    21023    5         THEN DO; /* Use the first introducer */

     3445    21024    5            IF (KL$FUNKEY.INTRO1.CHR1 < 33) OR

  21024  4 020377   000100 100500                    MLR     fill='000'O
         4 020400   000000 000002                    ADSC9   0,,PR0                   cn=0,n=2
         4 020401   200366 000004                    ADSC9   TEMP+4,,AUTO             cn=0,n=4
         4 020402   200366 236100                    LDQ     TEMP+4,,AUTO
         4 020403   000022 732000                    QRS     18
         4 020404   000041 116007                    CMPQ    33,DL
         4 020405   020415 604000 4                  TMI     s:21026
         4 020406   000100 100500                    MLR     fill='000'O
         4 020407   000000 000002                    ADSC9   0,,PR0                   cn=0,n=2
         4 020410   200367 000004                    ADSC9   TEMP+5,,AUTO             cn=0,n=4
         4 020411   200367 236100                    LDQ     TEMP+5,,AUTO
         4 020412   000022 732000                    QRS     18
         4 020413   000177 116007                    CMPQ    127,DL
         4 020414   020446 601000 4                  TNZ     s:21032

     3446    21025    6                 (KL$FUNKEY.INTRO1.CHR1 = 127) THEN DO;  /*  Mnemonic  */

     3447    21026    6              FMT_VEC ( FDS.NVECS# ) = VECTOR (UNPRINT_TABLE.TXT(KL$FUNKEY.INTRO1.CHR1
             21026                        ));

  21026  4 020415   000011 236000 xsym               LDQ     FDS+9
         4 020416   000001 736000                    QLS     1
         4 020417   000100 100500                    MLR     fill='000'O
         4 020420   000000 000002                    ADSC9   0,,PR0                   cn=0,n=2
         4 020421   200366 000004                    ADSC9   TEMP+4,,AUTO             cn=0,n=4
PL6.E3A0      #001=ASL$DISP_ONE_PROFILE File=ASL$L_PRO.:E05TSI                   TUE 07/29/97 10:26 Page:576
         4 020422   000000 620006                    EAX0    0,QL
         4 020423   200366 236100                    LDQ     TEMP+4,,AUTO
         4 020424   000022 732000                    QRS     18
         4 020425   577640 235007                    LDA     -65632,DL
         4 020426   000022 736000                    QLS     18
         4 020427   000243 036000 5                  ADLQ    163
         4 020430   000000 755010 xsym               STA     FMT_VEC,X0
         4 020431   000001 756010 xsym               STQ     FMT_VEC+1,X0

     3448    21027    6               FDS.NVECS# = FDS.NVECS# + 1;

  21027  4 020432   000011 054000 xsym               AOS     FDS+9

     3449    21028    6               CALL INSERT (FMT_BUF,FDS.FMT_.BOUND+1,4,'%>A,');

  21028  4 020433   000000 236000 xsym               LDQ     FDS
         4 020434   000020 772000                    QRL     16
         4 020435   040006 100400                    MLR     fill='040'O
         4 020436   003776 000004 3                  ADSC9   FUNKEY_NAMES+1555        cn=0,n=4
         4 020437   000000 200004 xsym               ADSC9   FMT_BUF,Q                cn=1,n=4

     3450    21029    6               FDS.FMT_.BOUND = FDS.FMT_.BOUND + 4;

  21029  4 020440   000004 036007                    ADLQ    4,DL
         4 020441   000020 736000                    QLS     16
         4 020442   000000 676000 xsym               ERQ     FDS
         4 020443   000034 376000 xsym               ANQ     B_VECTNIL+28
         4 020444   000000 656000 xsym               ERSQ    FDS

     3451    21030    6               END;  /*  Mnemonic  */

  21030  4 020445   020543 710000 4                  TRA     s:21049

     3452    21031    5            ELSE
     3453    21032    5               IF (KL$FUNKEY.INTRO1.CHR1 < 127)

  21032  4 020446   000100 100500                    MLR     fill='000'O
PL6.E3A0      #001=ASL$DISP_ONE_PROFILE File=ASL$L_PRO.:E05TSI                   TUE 07/29/97 10:26 Page:577
         4 020447   000000 000002                    ADSC9   0,,PR0                   cn=0,n=2
         4 020450   200366 000004                    ADSC9   TEMP+4,,AUTO             cn=0,n=4
         4 020451   200366 236100                    LDQ     TEMP+4,,AUTO
         4 020452   000022 732000                    QRS     18
         4 020453   000177 116007                    CMPQ    127,DL
         4 020454   020521 605000 4                  TPL     s:21044

     3454    21033    6               THEN DO;  /* It is printable */

     3455    21034    6                  FMT_VEC (FDS.NVECS#) = VECTOR ( SBINS (SBIN_IDX) );

  21034  4 020455   000011 236000 xsym               LDQ     FDS+9
         4 020456   000001 736000                    QLS     1
         4 020457   777640 235007                    LDA     -96,DL
         4 020460   200366 452500                    STP2    TEMP+4,,AUTO
         4 020461   000000 620006                    EAX0    0,QL
         4 020462   200077 236100                    LDQ     SBIN_IDX,,AUTO
         4 020463   000022 736000                    QLS     18
         4 020464   000007 036003                    ADLQ    7,DU
         4 020465   200366 036100                    ADLQ    TEMP+4,,AUTO
         4 020466   000000 755010 xsym               STA     FMT_VEC,X0
         4 020467   000001 756010 xsym               STQ     FMT_VEC+1,X0

     3456    21035    6                  FDS.NVECS# = FDS.NVECS# + 1;

  21035  4 020470   000011 054000 xsym               AOS     FDS+9

     3457    21036    6                  SBINS (SBIN_IDX) = FDS.NVECS# + 1;

  21036  4 020471   200077 720100                    LXL0    SBIN_IDX,,AUTO
         4 020472   000011 235000 xsym               LDA     FDS+9
         4 020473   000001 035007                    ADLA    1,DL
         4 020474   200007 755110                    STA     SBINS,X0,AUTO

     3458    21037    6                  SBIN_IDX = SBIN_IDX + 1;

  21037  4 020475   200077 054100                    AOS     SBIN_IDX,,AUTO
PL6.E3A0      #001=ASL$DISP_ONE_PROFILE File=ASL$L_PRO.:E05TSI                   TUE 07/29/97 10:26 Page:578

     3459    21038    6                  FMT_VEC (FDS.NVECS#) = VECTOR (KL$FUNKEY.INTRO1.CHR1);

  21038  4 020476   000011 236000 xsym               LDQ     FDS+9
         4 020477   000001 736000                    QLS     1
         4 020500   377640 235007                    LDA     130976,DL
         4 020501   000000 620006                    EAX0    0,QL
         4 020502   000156 236000 2                  LDQ     FUNKEY$
         4 020503   000000 755010 xsym               STA     FMT_VEC,X0
         4 020504   000001 756010 xsym               STQ     FMT_VEC+1,X0

     3460    21039    6                  FDS.NVECS# = FDS.NVECS# + 1;

  21039  4 020505   000011 054000 xsym               AOS     FDS+9

     3461    21040    6                  CALL INSERT (FMT_BUF,FDS.FMT_.BOUND+1,13,'%N..1P''%.1A'',');

  21040  4 020506   000000 236000 xsym               LDQ     FDS
         4 020507   000020 772000                    QRL     16
         4 020510   040006 100400                    MLR     fill='040'O
         4 020511   004033 000015 3                  ADSC9   FUNKEY_NAMES+1584        cn=0,n=13
         4 020512   000000 200015 xsym               ADSC9   FMT_BUF,Q                cn=1,n=13

     3462    21041    6                  FDS.FMT_.BOUND = FDS.FMT_.BOUND + 13;

  21041  4 020513   000015 036007                    ADLQ    13,DL
         4 020514   000020 736000                    QLS     16
         4 020515   000000 676000 xsym               ERQ     FDS
         4 020516   000034 376000 xsym               ANQ     B_VECTNIL+28
         4 020517   000000 656000 xsym               ERSQ    FDS

     3463    21042    6                  END;   /*  Printable  */

  21042  4 020520   020543 710000 4                  TRA     s:21049

     3464    21043    6               ELSE DO;   /*  Non printable  */

PL6.E3A0      #001=ASL$DISP_ONE_PROFILE File=ASL$L_PRO.:E05TSI                   TUE 07/29/97 10:26 Page:579
     3465    21044    6                  FMT_VEC (FDS.NVECS#) = VECTOR (KL$FUNKEY.INTRO1.CHR1);

  21044  4 020521   000011 236000 xsym               LDQ     FDS+9
         4 020522   000001 736000                    QLS     1
         4 020523   377640 235007                    LDA     130976,DL
         4 020524   000000 620006                    EAX0    0,QL
         4 020525   000156 236000 2                  LDQ     FUNKEY$
         4 020526   000000 755010 xsym               STA     FMT_VEC,X0
         4 020527   000001 756010 xsym               STQ     FMT_VEC+1,X0

     3466    21045    6                  FDS.NVECS# = FDS.NVECS# + 1;

  21045  4 020530   000011 054000 xsym               AOS     FDS+9

     3467    21046    6                  CALL INSERT (FMT_BUF,FDS.FMT_.BOUND+1,6,'X''%H'',');

  21046  4 020531   000000 236000 xsym               LDQ     FDS
         4 020532   000020 772000                    QRL     16
         4 020533   040006 100400                    MLR     fill='040'O
         4 020534   004037 000006 3                  ADSC9   FUNKEY_NAMES+1588        cn=0,n=6
         4 020535   000000 200006 xsym               ADSC9   FMT_BUF,Q                cn=1,n=6

     3468    21047    6                  FDS.FMT_.BOUND = FDS.FMT_.BOUND + 6;

  21047  4 020536   000006 036007                    ADLQ    6,DL
         4 020537   000020 736000                    QLS     16
         4 020540   000000 676000 xsym               ERQ     FDS
         4 020541   000034 376000 xsym               ANQ     B_VECTNIL+28
         4 020542   000000 656000 xsym               ERSQ    FDS

     3469    21048    6                  END;   /*  Non printable  */

     3470    21049    5            IF (KL$FUNKEY.INTRO1.CHR2 ~= -1)

  21049  4 020543   000100 100500                    MLR     fill='000'O
         4 020544   000000 400002                    ADSC9   0,,PR0                   cn=2,n=2
         4 020545   200366 000004                    ADSC9   TEMP+4,,AUTO             cn=0,n=4
PL6.E3A0      #001=ASL$DISP_ONE_PROFILE File=ASL$L_PRO.:E05TSI                   TUE 07/29/97 10:26 Page:580
         4 020546   200366 236100                    LDQ     TEMP+4,,AUTO
         4 020547   000022 732000                    QRS     18
         4 020550   000027 116000 xsym               CMPQ    B_VECTNIL+23
         4 020551   021253 600000 4                  TZE     s:21139

     3471    21050    6            THEN DO;

     3472    21051    6               IF (KL$FUNKEY.INTRO1.CHR2 < 33) OR

  21051  4 020552   000100 100500                    MLR     fill='000'O
         4 020553   000000 400002                    ADSC9   0,,PR0                   cn=2,n=2
         4 020554   200366 000004                    ADSC9   TEMP+4,,AUTO             cn=0,n=4
         4 020555   200366 236100                    LDQ     TEMP+4,,AUTO
         4 020556   000022 732000                    QRS     18
         4 020557   000041 116007                    CMPQ    33,DL
         4 020560   020570 604000 4                  TMI     s:21053
         4 020561   000100 100500                    MLR     fill='000'O
         4 020562   000000 400002                    ADSC9   0,,PR0                   cn=2,n=2
         4 020563   200367 000004                    ADSC9   TEMP+5,,AUTO             cn=0,n=4
         4 020564   200367 236100                    LDQ     TEMP+5,,AUTO
         4 020565   000022 732000                    QRS     18
         4 020566   000177 116007                    CMPQ    127,DL
         4 020567   020621 601000 4                  TNZ     s:21059

     3473    21052    7                    (KL$FUNKEY.INTRO1.CHR2 = 127) THEN DO; /*  Mnemonic  */

     3474    21053    7                  FMT_VEC ( FDS.NVECS# ) = VECTOR (UNPRINT_TABLE.TXT(KL$FUNKEY.INTRO1.
             21053                           CHR2));

  21053  4 020570   000011 235000 xsym               LDA     FDS+9
         4 020571   000001 735000                    ALS     1
         4 020572   000100 100500                    MLR     fill='000'O
         4 020573   000000 400002                    ADSC9   0,,PR0                   cn=2,n=2
         4 020574   200366 000004                    ADSC9   TEMP+4,,AUTO             cn=0,n=4
         4 020575   200366 236100                    LDQ     TEMP+4,,AUTO
         4 020576   000022 732000                    QRS     18
         4 020577   000000 620005                    EAX0    0,AL
PL6.E3A0      #001=ASL$DISP_ONE_PROFILE File=ASL$L_PRO.:E05TSI                   TUE 07/29/97 10:26 Page:581
         4 020600   577640 235007                    LDA     -65632,DL
         4 020601   000022 736000                    QLS     18
         4 020602   000243 036000 5                  ADLQ    163
         4 020603   000000 755010 xsym               STA     FMT_VEC,X0
         4 020604   000001 756010 xsym               STQ     FMT_VEC+1,X0

     3475    21054    7                  FDS.NVECS# = FDS.NVECS# + 1;

  21054  4 020605   000011 054000 xsym               AOS     FDS+9

     3476    21055    7                  CALL INSERT (FMT_BUF,FDS.FMT_.BOUND+1,4,'%>A,');

  21055  4 020606   000000 236000 xsym               LDQ     FDS
         4 020607   000020 772000                    QRL     16
         4 020610   040006 100400                    MLR     fill='040'O
         4 020611   003776 000004 3                  ADSC9   FUNKEY_NAMES+1555        cn=0,n=4
         4 020612   000000 200004 xsym               ADSC9   FMT_BUF,Q                cn=1,n=4

     3477    21056    7                  FDS.FMT_.BOUND = FDS.FMT_.BOUND + 4;

  21056  4 020613   000004 036007                    ADLQ    4,DL
         4 020614   000020 736000                    QLS     16
         4 020615   000000 676000 xsym               ERQ     FDS
         4 020616   000034 376000 xsym               ANQ     B_VECTNIL+28
         4 020617   000000 656000 xsym               ERSQ    FDS

     3478    21057    7                  END;  /*  Mnemonic  */

  21057  4 020620   021253 710000 4                  TRA     s:21139

     3479    21058    6               ELSE
     3480    21059    6                  IF (KL$FUNKEY.INTRO1.CHR2 < 127)

  21059  4 020621   000100 100500                    MLR     fill='000'O
         4 020622   000000 400002                    ADSC9   0,,PR0                   cn=2,n=2
         4 020623   200366 000004                    ADSC9   TEMP+4,,AUTO             cn=0,n=4
         4 020624   200366 236100                    LDQ     TEMP+4,,AUTO
PL6.E3A0      #001=ASL$DISP_ONE_PROFILE File=ASL$L_PRO.:E05TSI                   TUE 07/29/97 10:26 Page:582
         4 020625   000022 732000                    QRS     18
         4 020626   000177 116007                    CMPQ    127,DL
         4 020627   020675 605000 4                  TPL     s:21071

     3481    21060    7                  THEN DO;  /* It is printable */

     3482    21061    7                     FMT_VEC (FDS.NVECS#) = VECTOR ( SBINS (SBIN_IDX) );

  21061  4 020630   000011 235000 xsym               LDA     FDS+9
         4 020631   000001 735000                    ALS     1
         4 020632   000000 620005                    EAX0    0,AL
         4 020633   777640 235007                    LDA     -96,DL
         4 020634   200366 452500                    STP2    TEMP+4,,AUTO
         4 020635   200077 236100                    LDQ     SBIN_IDX,,AUTO
         4 020636   000022 736000                    QLS     18
         4 020637   000007 036003                    ADLQ    7,DU
         4 020640   200366 036100                    ADLQ    TEMP+4,,AUTO
         4 020641   000000 755010 xsym               STA     FMT_VEC,X0
         4 020642   000001 756010 xsym               STQ     FMT_VEC+1,X0

     3483    21062    7                     FDS.NVECS# = FDS.NVECS# + 1;

  21062  4 020643   000011 054000 xsym               AOS     FDS+9

     3484    21063    7                     SBINS (SBIN_IDX) = FDS.NVECS# + 1;

  21063  4 020644   200077 720100                    LXL0    SBIN_IDX,,AUTO
         4 020645   000011 235000 xsym               LDA     FDS+9
         4 020646   000001 035007                    ADLA    1,DL
         4 020647   200007 755110                    STA     SBINS,X0,AUTO

     3485    21064    7                     SBIN_IDX = SBIN_IDX + 1;

  21064  4 020650   200077 054100                    AOS     SBIN_IDX,,AUTO

     3486    21065    7                     FMT_VEC (FDS.NVECS#) = VECTOR (KL$FUNKEY.INTRO1.CHR2);

PL6.E3A0      #001=ASL$DISP_ONE_PROFILE File=ASL$L_PRO.:E05TSI                   TUE 07/29/97 10:26 Page:583
  21065  4 020651   000011 236000 xsym               LDQ     FDS+9
         4 020652   000001 736000                    QLS     1
         4 020653   377640 235007                    LDA     130976,DL
         4 020654   000000 620006                    EAX0    0,QL
         4 020655   000156 236000 2                  LDQ     FUNKEY$
         4 020656   400000 036007                    ADLQ    -131072,DL
         4 020657   000000 755010 xsym               STA     FMT_VEC,X0
         4 020660   000001 756010 xsym               STQ     FMT_VEC+1,X0

     3487    21066    7                     FDS.NVECS# = FDS.NVECS# + 1;

  21066  4 020661   000011 054000 xsym               AOS     FDS+9

     3488    21067    7                     CALL INSERT (FMT_BUF,FDS.FMT_.BOUND+1,13,'%N..1P''%.1A'',');

  21067  4 020662   000000 236000 xsym               LDQ     FDS
         4 020663   000020 772000                    QRL     16
         4 020664   040006 100400                    MLR     fill='040'O
         4 020665   004033 000015 3                  ADSC9   FUNKEY_NAMES+1584        cn=0,n=13
         4 020666   000000 200015 xsym               ADSC9   FMT_BUF,Q                cn=1,n=13

     3489    21068    7                     FDS.FMT_.BOUND = FDS.FMT_.BOUND + 13;

  21068  4 020667   000015 036007                    ADLQ    13,DL
         4 020670   000020 736000                    QLS     16
         4 020671   000000 676000 xsym               ERQ     FDS
         4 020672   000034 376000 xsym               ANQ     B_VECTNIL+28
         4 020673   000000 656000 xsym               ERSQ    FDS

     3490    21069    7                     END; /*  Printable  */

  21069  4 020674   021253 710000 4                  TRA     s:21139

     3491    21070    7                  ELSE DO; /*  Non printable  */

     3492    21071    7                     FMT_VEC (FDS.NVECS#) = VECTOR (KL$FUNKEY.INTRO1.CHR2);

PL6.E3A0      #001=ASL$DISP_ONE_PROFILE File=ASL$L_PRO.:E05TSI                   TUE 07/29/97 10:26 Page:584
  21071  4 020675   000011 235000 xsym               LDA     FDS+9
         4 020676   000001 735000                    ALS     1
         4 020677   000000 620005                    EAX0    0,AL
         4 020700   377640 235007                    LDA     130976,DL
         4 020701   000156 236000 2                  LDQ     FUNKEY$
         4 020702   400000 036007                    ADLQ    -131072,DL
         4 020703   000000 755010 xsym               STA     FMT_VEC,X0
         4 020704   000001 756010 xsym               STQ     FMT_VEC+1,X0

     3493    21072    7                     FDS.NVECS# = FDS.NVECS# + 1;

  21072  4 020705   000011 054000 xsym               AOS     FDS+9

     3494    21073    7                     CALL INSERT (FMT_BUF,FDS.FMT_.BOUND+1,6,'X''%H'',');

  21073  4 020706   000000 236000 xsym               LDQ     FDS
         4 020707   000020 772000                    QRL     16
         4 020710   040006 100400                    MLR     fill='040'O
         4 020711   004037 000006 3                  ADSC9   FUNKEY_NAMES+1588        cn=0,n=6
         4 020712   000000 200006 xsym               ADSC9   FMT_BUF,Q                cn=1,n=6

     3495    21074    7                     FDS.FMT_.BOUND = FDS.FMT_.BOUND + 6;

  21074  4 020713   000006 036007                    ADLQ    6,DL
         4 020714   000020 736000                    QLS     16
         4 020715   000000 676000 xsym               ERQ     FDS
         4 020716   000034 376000 xsym               ANQ     B_VECTNIL+28
         4 020717   000000 656000 xsym               ERSQ    FDS

     3496    21075    7                     END; /*  Non printable  */

     3497    21076    6               END;   /*  Of chr 2  */

     3498    21077    5            END; /* Of intro 1 */

  21077  4 020720   021253 710000 4                  TRA     s:21139

PL6.E3A0      #001=ASL$DISP_ONE_PROFILE File=ASL$L_PRO.:E05TSI                   TUE 07/29/97 10:26 Page:585
     3499    21078    4         ELSE IF (KL$FUNKEY.FCNKEY.FCN_BYTE0 (CUR_KEY) = 1)

  21078  4 020721   000100 101505                    MRL     fill='000'O
         4 020722   000003 000001                    ADSC9   3,A,PR0                  cn=0,n=1
         4 020723   200366 000004                    ADSC9   TEMP+4,,AUTO             cn=0,n=4
         4 020724   200366 236100                    LDQ     TEMP+4,,AUTO
         4 020725   000001 116007                    CMPQ    1,DL
         4 020726   021253 601000 4                  TNZ     s:21139

     3500    21079    5            THEN DO; /* Use the second introducer */

     3501    21080    5               IF (KL$FUNKEY.INTRO2.CHR1 < 33) OR

  21080  4 020727   000100 100500                    MLR     fill='000'O
         4 020730   000001 000002                    ADSC9   1,,PR0                   cn=0,n=2
         4 020731   200366 000004                    ADSC9   TEMP+4,,AUTO             cn=0,n=4
         4 020732   200366 236100                    LDQ     TEMP+4,,AUTO
         4 020733   000022 732000                    QRS     18
         4 020734   000041 116007                    CMPQ    33,DL
         4 020735   020745 604000 4                  TMI     s:21082
         4 020736   000100 100500                    MLR     fill='000'O
         4 020737   000001 000002                    ADSC9   1,,PR0                   cn=0,n=2
         4 020740   200367 000004                    ADSC9   TEMP+5,,AUTO             cn=0,n=4
         4 020741   200367 236100                    LDQ     TEMP+5,,AUTO
         4 020742   000022 732000                    QRS     18
         4 020743   000177 116007                    CMPQ    127,DL
         4 020744   020776 601000 4                  TNZ     s:21088

     3502    21081    6                    (KL$FUNKEY.INTRO2.CHR1 = 127) THEN DO; /*  Mnemonic  */

     3503    21082    6                  FMT_VEC ( FDS.NVECS# ) = VECTOR (UNPRINT_TABLE.TXT(KL$FUNKEY.INTRO2.
             21082                           CHR1));

  21082  4 020745   000011 236000 xsym               LDQ     FDS+9
         4 020746   000001 736000                    QLS     1
         4 020747   000100 100500                    MLR     fill='000'O
         4 020750   000001 000002                    ADSC9   1,,PR0                   cn=0,n=2
PL6.E3A0      #001=ASL$DISP_ONE_PROFILE File=ASL$L_PRO.:E05TSI                   TUE 07/29/97 10:26 Page:586
         4 020751   200366 000004                    ADSC9   TEMP+4,,AUTO             cn=0,n=4
         4 020752   000000 620006                    EAX0    0,QL
         4 020753   200366 236100                    LDQ     TEMP+4,,AUTO
         4 020754   000022 732000                    QRS     18
         4 020755   577640 235007                    LDA     -65632,DL
         4 020756   000022 736000                    QLS     18
         4 020757   000243 036000 5                  ADLQ    163
         4 020760   000000 755010 xsym               STA     FMT_VEC,X0
         4 020761   000001 756010 xsym               STQ     FMT_VEC+1,X0

     3504    21083    6                  FDS.NVECS# = FDS.NVECS# + 1;

  21083  4 020762   000011 054000 xsym               AOS     FDS+9

     3505    21084    6                  CALL INSERT (FMT_BUF,FDS.FMT_.BOUND+1,4,'%>A,');

  21084  4 020763   000000 236000 xsym               LDQ     FDS
         4 020764   000020 772000                    QRL     16
         4 020765   040006 100400                    MLR     fill='040'O
         4 020766   003776 000004 3                  ADSC9   FUNKEY_NAMES+1555        cn=0,n=4
         4 020767   000000 200004 xsym               ADSC9   FMT_BUF,Q                cn=1,n=4

     3506    21085    6                  FDS.FMT_.BOUND = FDS.FMT_.BOUND + 4;

  21085  4 020770   000004 036007                    ADLQ    4,DL
         4 020771   000020 736000                    QLS     16
         4 020772   000000 676000 xsym               ERQ     FDS
         4 020773   000034 376000 xsym               ANQ     B_VECTNIL+28
         4 020774   000000 656000 xsym               ERSQ    FDS

     3507    21086    6                  END;  /*  Mnemonic  */

  21086  4 020775   021075 710000 4                  TRA     s:21105

     3508    21087    5               ELSE
     3509    21088    5                  IF (KL$FUNKEY.INTRO2.CHR1 < 127)

PL6.E3A0      #001=ASL$DISP_ONE_PROFILE File=ASL$L_PRO.:E05TSI                   TUE 07/29/97 10:26 Page:587
  21088  4 020776   000100 100500                    MLR     fill='000'O
         4 020777   000001 000002                    ADSC9   1,,PR0                   cn=0,n=2
         4 021000   200366 000004                    ADSC9   TEMP+4,,AUTO             cn=0,n=4
         4 021001   200366 236100                    LDQ     TEMP+4,,AUTO
         4 021002   000022 732000                    QRS     18
         4 021003   000177 116007                    CMPQ    127,DL
         4 021004   021052 605000 4                  TPL     s:21100

     3510    21089    6                  THEN DO;  /* It is printable */

     3511    21090    6                     FMT_VEC (FDS.NVECS#) = VECTOR ( SBINS (SBIN_IDX) );

  21090  4 021005   000011 236000 xsym               LDQ     FDS+9
         4 021006   000001 736000                    QLS     1
         4 021007   777640 235007                    LDA     -96,DL
         4 021010   200366 452500                    STP2    TEMP+4,,AUTO
         4 021011   000000 620006                    EAX0    0,QL
         4 021012   200077 236100                    LDQ     SBIN_IDX,,AUTO
         4 021013   000022 736000                    QLS     18
         4 021014   000007 036003                    ADLQ    7,DU
         4 021015   200366 036100                    ADLQ    TEMP+4,,AUTO
         4 021016   000000 755010 xsym               STA     FMT_VEC,X0
         4 021017   000001 756010 xsym               STQ     FMT_VEC+1,X0

     3512    21091    6                     FDS.NVECS# = FDS.NVECS# + 1;

  21091  4 021020   000011 054000 xsym               AOS     FDS+9

     3513    21092    6                     SBINS (SBIN_IDX) = FDS.NVECS# + 1;

  21092  4 021021   200077 720100                    LXL0    SBIN_IDX,,AUTO
         4 021022   000011 235000 xsym               LDA     FDS+9
         4 021023   000001 035007                    ADLA    1,DL
         4 021024   200007 755110                    STA     SBINS,X0,AUTO

     3514    21093    6                     SBIN_IDX = SBIN_IDX + 1;

PL6.E3A0      #001=ASL$DISP_ONE_PROFILE File=ASL$L_PRO.:E05TSI                   TUE 07/29/97 10:26 Page:588
  21093  4 021025   200077 054100                    AOS     SBIN_IDX,,AUTO

     3515    21094    6                     FMT_VEC (FDS.NVECS#) = VECTOR (KL$FUNKEY.INTRO2.CHR1);

  21094  4 021026   000011 236000 xsym               LDQ     FDS+9
         4 021027   000001 736000                    QLS     1
         4 021030   377640 235007                    LDA     130976,DL
         4 021031   000000 620006                    EAX0    0,QL
         4 021032   000156 236000 2                  LDQ     FUNKEY$
         4 021033   000001 036003                    ADLQ    1,DU
         4 021034   000000 755010 xsym               STA     FMT_VEC,X0
         4 021035   000001 756010 xsym               STQ     FMT_VEC+1,X0

     3516    21095    6                     FDS.NVECS# = FDS.NVECS# + 1;

  21095  4 021036   000011 054000 xsym               AOS     FDS+9

     3517    21096    6                     CALL INSERT (FMT_BUF,FDS.FMT_.BOUND+1,13,'%N..1P''%.1A'',');

  21096  4 021037   000000 236000 xsym               LDQ     FDS
         4 021040   000020 772000                    QRL     16
         4 021041   040006 100400                    MLR     fill='040'O
         4 021042   004033 000015 3                  ADSC9   FUNKEY_NAMES+1584        cn=0,n=13
         4 021043   000000 200015 xsym               ADSC9   FMT_BUF,Q                cn=1,n=13

     3518    21097    6                     FDS.FMT_.BOUND = FDS.FMT_.BOUND + 13;

  21097  4 021044   000015 036007                    ADLQ    13,DL
         4 021045   000020 736000                    QLS     16
         4 021046   000000 676000 xsym               ERQ     FDS
         4 021047   000034 376000 xsym               ANQ     B_VECTNIL+28
         4 021050   000000 656000 xsym               ERSQ    FDS

     3519    21098    6                     END; /*  Printable  */

  21098  4 021051   021075 710000 4                  TRA     s:21105

PL6.E3A0      #001=ASL$DISP_ONE_PROFILE File=ASL$L_PRO.:E05TSI                   TUE 07/29/97 10:26 Page:589
     3520    21099    6                  ELSE DO; /*  Non printable  */

     3521    21100    6                     FMT_VEC (FDS.NVECS#) = VECTOR (KL$FUNKEY.INTRO2.CHR1);

  21100  4 021052   000011 236000 xsym               LDQ     FDS+9
         4 021053   000001 736000                    QLS     1
         4 021054   377640 235007                    LDA     130976,DL
         4 021055   000000 620006                    EAX0    0,QL
         4 021056   000156 236000 2                  LDQ     FUNKEY$
         4 021057   000001 036003                    ADLQ    1,DU
         4 021060   000000 755010 xsym               STA     FMT_VEC,X0
         4 021061   000001 756010 xsym               STQ     FMT_VEC+1,X0

     3522    21101    6                     FDS.NVECS# = FDS.NVECS# + 1;

  21101  4 021062   000011 054000 xsym               AOS     FDS+9

     3523    21102    6                     CALL INSERT (FMT_BUF,FDS.FMT_.BOUND+1,6,'X''%H'',');

  21102  4 021063   000000 236000 xsym               LDQ     FDS
         4 021064   000020 772000                    QRL     16
         4 021065   040006 100400                    MLR     fill='040'O
         4 021066   004037 000006 3                  ADSC9   FUNKEY_NAMES+1588        cn=0,n=6
         4 021067   000000 200006 xsym               ADSC9   FMT_BUF,Q                cn=1,n=6

     3524    21103    6                     FDS.FMT_.BOUND = FDS.FMT_.BOUND + 6;

  21103  4 021070   000006 036007                    ADLQ    6,DL
         4 021071   000020 736000                    QLS     16
         4 021072   000000 676000 xsym               ERQ     FDS
         4 021073   000034 376000 xsym               ANQ     B_VECTNIL+28
         4 021074   000000 656000 xsym               ERSQ    FDS

     3525    21104    6                     END; /*  Non printable  */

     3526    21105    5               IF (KL$FUNKEY.INTRO2.CHR2 ~= -1)

PL6.E3A0      #001=ASL$DISP_ONE_PROFILE File=ASL$L_PRO.:E05TSI                   TUE 07/29/97 10:26 Page:590
  21105  4 021075   000100 100500                    MLR     fill='000'O
         4 021076   000001 400002                    ADSC9   1,,PR0                   cn=2,n=2
         4 021077   200366 000004                    ADSC9   TEMP+4,,AUTO             cn=0,n=4
         4 021100   200366 236100                    LDQ     TEMP+4,,AUTO
         4 021101   000022 732000                    QRS     18
         4 021102   000027 116000 xsym               CMPQ    B_VECTNIL+23
         4 021103   021253 600000 4                  TZE     s:21139

     3527    21106    6               THEN DO;

     3528    21107    6                  IF (KL$FUNKEY.INTRO2.CHR2 < 33) OR

  21107  4 021104   000100 100500                    MLR     fill='000'O
         4 021105   000001 400002                    ADSC9   1,,PR0                   cn=2,n=2
         4 021106   200366 000004                    ADSC9   TEMP+4,,AUTO             cn=0,n=4
         4 021107   200366 236100                    LDQ     TEMP+4,,AUTO
         4 021110   000022 732000                    QRS     18
         4 021111   000041 116007                    CMPQ    33,DL
         4 021112   021122 604000 4                  TMI     s:21109
         4 021113   000100 100500                    MLR     fill='000'O
         4 021114   000001 400002                    ADSC9   1,,PR0                   cn=2,n=2
         4 021115   200367 000004                    ADSC9   TEMP+5,,AUTO             cn=0,n=4
         4 021116   200367 236100                    LDQ     TEMP+5,,AUTO
         4 021117   000022 732000                    QRS     18
         4 021120   000177 116007                    CMPQ    127,DL
         4 021121   021153 601000 4                  TNZ     s:21115

     3529    21108    7                       (KL$FUNKEY.INTRO2.CHR2 = 127) THEN DO; /*  Mnemonic  */

     3530    21109    7                     FMT_VEC ( FDS.NVECS# ) = VECTOR (UNPRINT_TABLE.TXT(KL$FUNKEY.
             21109                              INTRO2.CHR2));

  21109  4 021122   000011 235000 xsym               LDA     FDS+9
         4 021123   000001 735000                    ALS     1
         4 021124   000100 100500                    MLR     fill='000'O
         4 021125   000001 400002                    ADSC9   1,,PR0                   cn=2,n=2
         4 021126   200366 000004                    ADSC9   TEMP+4,,AUTO             cn=0,n=4
PL6.E3A0      #001=ASL$DISP_ONE_PROFILE File=ASL$L_PRO.:E05TSI                   TUE 07/29/97 10:26 Page:591
         4 021127   200366 236100                    LDQ     TEMP+4,,AUTO
         4 021130   000022 732000                    QRS     18
         4 021131   000000 620005                    EAX0    0,AL
         4 021132   577640 235007                    LDA     -65632,DL
         4 021133   000022 736000                    QLS     18
         4 021134   000243 036000 5                  ADLQ    163
         4 021135   000000 755010 xsym               STA     FMT_VEC,X0
         4 021136   000001 756010 xsym               STQ     FMT_VEC+1,X0

     3531    21110    7                     FDS.NVECS# = FDS.NVECS# + 1;

  21110  4 021137   000011 054000 xsym               AOS     FDS+9

     3532    21111    7                     CALL INSERT (FMT_BUF,FDS.FMT_.BOUND+1,4,'%>A,');

  21111  4 021140   000000 236000 xsym               LDQ     FDS
         4 021141   000020 772000                    QRL     16
         4 021142   040006 100400                    MLR     fill='040'O
         4 021143   003776 000004 3                  ADSC9   FUNKEY_NAMES+1555        cn=0,n=4
         4 021144   000000 200004 xsym               ADSC9   FMT_BUF,Q                cn=1,n=4

     3533    21112    7                     FDS.FMT_.BOUND = FDS.FMT_.BOUND + 4;

  21112  4 021145   000004 036007                    ADLQ    4,DL
         4 021146   000020 736000                    QLS     16
         4 021147   000000 676000 xsym               ERQ     FDS
         4 021150   000034 376000 xsym               ANQ     B_VECTNIL+28
         4 021151   000000 656000 xsym               ERSQ    FDS

     3534    21113    7                     END; /*  Mnemonic  */

  21113  4 021152   021253 710000 4                  TRA     s:21139

     3535    21114    6                  ELSE
     3536    21115    6                     IF (KL$FUNKEY.INTRO2.CHR2 < 127)

  21115  4 021153   000100 100500                    MLR     fill='000'O
PL6.E3A0      #001=ASL$DISP_ONE_PROFILE File=ASL$L_PRO.:E05TSI                   TUE 07/29/97 10:26 Page:592
         4 021154   000001 400002                    ADSC9   1,,PR0                   cn=2,n=2
         4 021155   200366 000004                    ADSC9   TEMP+4,,AUTO             cn=0,n=4
         4 021156   200366 236100                    LDQ     TEMP+4,,AUTO
         4 021157   000022 732000                    QRS     18
         4 021160   000177 116007                    CMPQ    127,DL
         4 021161   021227 605000 4                  TPL     s:21127

     3537    21116    7                     THEN DO; /* It is printable */

     3538    21117    7                        FMT_VEC (FDS.NVECS#) = VECTOR ( SBINS (SBIN_IDX) );

  21117  4 021162   000011 235000 xsym               LDA     FDS+9
         4 021163   000001 735000                    ALS     1
         4 021164   000000 620005                    EAX0    0,AL
         4 021165   777640 235007                    LDA     -96,DL
         4 021166   200366 452500                    STP2    TEMP+4,,AUTO
         4 021167   200077 236100                    LDQ     SBIN_IDX,,AUTO
         4 021170   000022 736000                    QLS     18
         4 021171   000007 036003                    ADLQ    7,DU
         4 021172   200366 036100                    ADLQ    TEMP+4,,AUTO
         4 021173   000000 755010 xsym               STA     FMT_VEC,X0
         4 021174   000001 756010 xsym               STQ     FMT_VEC+1,X0

     3539    21118    7                        FDS.NVECS# = FDS.NVECS# + 1;

  21118  4 021175   000011 054000 xsym               AOS     FDS+9

     3540    21119    7                        SBINS (SBIN_IDX) = FDS.NVECS# + 1;

  21119  4 021176   200077 720100                    LXL0    SBIN_IDX,,AUTO
         4 021177   000011 235000 xsym               LDA     FDS+9
         4 021200   000001 035007                    ADLA    1,DL
         4 021201   200007 755110                    STA     SBINS,X0,AUTO

     3541    21120    7                        SBIN_IDX = SBIN_IDX + 1;

  21120  4 021202   200077 054100                    AOS     SBIN_IDX,,AUTO
PL6.E3A0      #001=ASL$DISP_ONE_PROFILE File=ASL$L_PRO.:E05TSI                   TUE 07/29/97 10:26 Page:593

     3542    21121    7                        FMT_VEC (FDS.NVECS#) = VECTOR (KL$FUNKEY.INTRO2.CHR2);

  21121  4 021203   000011 236000 xsym               LDQ     FDS+9
         4 021204   000001 736000                    QLS     1
         4 021205   377640 235007                    LDA     130976,DL
         4 021206   000000 620006                    EAX0    0,QL
         4 021207   000156 236000 2                  LDQ     FUNKEY$
         4 021210   000313 036000 5                  ADLQ    203
         4 021211   000000 755010 xsym               STA     FMT_VEC,X0
         4 021212   000001 756010 xsym               STQ     FMT_VEC+1,X0

     3543    21122    7                        FDS.NVECS# = FDS.NVECS# + 1;

  21122  4 021213   000011 054000 xsym               AOS     FDS+9

     3544    21123    7                        CALL INSERT (FMT_BUF,FDS.FMT_.BOUND+1,13,'%N..1P''%.1A'',');

  21123  4 021214   000000 236000 xsym               LDQ     FDS
         4 021215   000020 772000                    QRL     16
         4 021216   040006 100400                    MLR     fill='040'O
         4 021217   004033 000015 3                  ADSC9   FUNKEY_NAMES+1584        cn=0,n=13
         4 021220   000000 200015 xsym               ADSC9   FMT_BUF,Q                cn=1,n=13

     3545    21124    7                        FDS.FMT_.BOUND = FDS.FMT_.BOUND + 13;

  21124  4 021221   000015 036007                    ADLQ    13,DL
         4 021222   000020 736000                    QLS     16
         4 021223   000000 676000 xsym               ERQ     FDS
         4 021224   000034 376000 xsym               ANQ     B_VECTNIL+28
         4 021225   000000 656000 xsym               ERSQ    FDS

     3546    21125    7                        END; /*  Printable  */

  21125  4 021226   021253 710000 4                  TRA     s:21139

     3547    21126    7                     ELSE DO; /*  Non printable  */
PL6.E3A0      #001=ASL$DISP_ONE_PROFILE File=ASL$L_PRO.:E05TSI                   TUE 07/29/97 10:26 Page:594

     3548    21127    7                        FMT_VEC (FDS.NVECS#) = VECTOR (KL$FUNKEY.INTRO2.CHR2);

  21127  4 021227   000011 235000 xsym               LDA     FDS+9
         4 021230   000001 735000                    ALS     1
         4 021231   000000 620005                    EAX0    0,AL
         4 021232   377640 235007                    LDA     130976,DL
         4 021233   000156 236000 2                  LDQ     FUNKEY$
         4 021234   000313 036000 5                  ADLQ    203
         4 021235   000000 755010 xsym               STA     FMT_VEC,X0
         4 021236   000001 756010 xsym               STQ     FMT_VEC+1,X0

     3549    21128    7                        FDS.NVECS# = FDS.NVECS# + 1;

  21128  4 021237   000011 054000 xsym               AOS     FDS+9

     3550    21129    7                        CALL INSERT (FMT_BUF,FDS.FMT_.BOUND+1,6,'X''%H'',');

  21129  4 021240   000000 236000 xsym               LDQ     FDS
         4 021241   000020 772000                    QRL     16
         4 021242   040006 100400                    MLR     fill='040'O
         4 021243   004037 000006 3                  ADSC9   FUNKEY_NAMES+1588        cn=0,n=6
         4 021244   000000 200006 xsym               ADSC9   FMT_BUF,Q                cn=1,n=6

     3551    21130    7                        FDS.FMT_.BOUND = FDS.FMT_.BOUND + 6;

  21130  4 021245   000006 036007                    ADLQ    6,DL
         4 021246   000020 736000                    QLS     16
         4 021247   000000 676000 xsym               ERQ     FDS
         4 021250   000034 376000 xsym               ANQ     B_VECTNIL+28
         4 021251   000000 656000 xsym               ERSQ    FDS

     3552    21131    7                        END; /*  Non printable  */

     3553    21132    6                  END; /*  Of chr 2  */

     3554    21133    5               END; /* Of intro 2 */
PL6.E3A0      #001=ASL$DISP_ONE_PROFILE File=ASL$L_PRO.:E05TSI                   TUE 07/29/97 10:26 Page:595

  21133  4 021252   021253 710000 4                  TRA     s:21139

     3555    21134    5            ELSE DO; /* There is no introducer to use. */

     3556    21135    5               END;

     3557    21136
     3558    21137               /* Put the modifier of the key into the array if it exists  */
     3559    21138
     3560    21139    4         IF (MODIFIER(NUM_ON_LINE) > -1)

  21139  4 021253   200274 720100                    LXL0    NUM_ON_LINE,,AUTO
         4 021254   200345 235110                    LDA     MODIFIER,X0,AUTO
         4 021255   021304 604000 4                  TMI     s:21149

     3561    21140    5         THEN DO;

     3562    21141    5            FMT_VEC (FDS.NVECS#) = VECTOR (MODIFIER (NUM_ON_LINE));

  21141  4 021256   000011 236000 xsym               LDQ     FDS+9
         4 021257   000001 736000                    QLS     1
         4 021260   777640 235007                    LDA     -96,DL
         4 021261   200366 452500                    STP2    TEMP+4,,AUTO
         4 021262   000000 621006                    EAX1    0,QL
         4 021263   200274 236100                    LDQ     NUM_ON_LINE,,AUTO
         4 021264   000022 736000                    QLS     18
         4 021265   000345 036003                    ADLQ    229,DU
         4 021266   200366 036100                    ADLQ    TEMP+4,,AUTO
         4 021267   000000 755011 xsym               STA     FMT_VEC,X1
         4 021270   000001 756011 xsym               STQ     FMT_VEC+1,X1

     3563    21142    5            FDS.NVECS# = FDS.NVECS# + 1;

  21142  4 021271   000011 054000 xsym               AOS     FDS+9

     3564    21143    5            CALL INSERT (FMT_BUF,FDS.FMT_.BOUND+1,3,'%D,');
PL6.E3A0      #001=ASL$DISP_ONE_PROFILE File=ASL$L_PRO.:E05TSI                   TUE 07/29/97 10:26 Page:596

  21143  4 021272   000000 236000 xsym               LDQ     FDS
         4 021273   000020 772000                    QRL     16
         4 021274   040006 100400                    MLR     fill='040'O
         4 021275   004041 000003 3                  ADSC9   FUNKEY_NAMES+1590        cn=0,n=3
         4 021276   000000 200003 xsym               ADSC9   FMT_BUF,Q                cn=1,n=3

     3565    21144    5            FDS.FMT_.BOUND = FDS.FMT_.BOUND + 3;

  21144  4 021277   000003 036007                    ADLQ    3,DL
         4 021300   000020 736000                    QLS     16
         4 021301   000000 676000 xsym               ERQ     FDS
         4 021302   000034 376000 xsym               ANQ     B_VECTNIL+28
         4 021303   000000 656000 xsym               ERSQ    FDS

     3566    21145    5            END;

     3567    21146
     3568    21147                    /* Put the key being introduced into the array */
     3569    21148
     3570    21149    4         IF (KL$FUNKEY.FCNKEY.FCN_BYTE1 (CUR_KEY) < 33) OR

  21149  4 021304   200275 235100                    LDA     CUR_KEY,,AUTO
         4 021305   000002 735000                    ALS     2
         4 021306   000100 101505                    MRL     fill='000'O
         4 021307   000003 200001                    ADSC9   3,A,PR0                  cn=1,n=1
         4 021310   200366 000004                    ADSC9   TEMP+4,,AUTO             cn=0,n=4
         4 021311   200366 236100                    LDQ     TEMP+4,,AUTO
         4 021312   000041 116007                    CMPQ    33,DL
         4 021313   021322 604000 4                  TMI     s:21151
         4 021314   000100 101505                    MRL     fill='000'O
         4 021315   000003 200001                    ADSC9   3,A,PR0                  cn=1,n=1
         4 021316   200367 000004                    ADSC9   TEMP+5,,AUTO             cn=0,n=4
         4 021317   200367 236100                    LDQ     TEMP+5,,AUTO
         4 021320   000177 116007                    CMPQ    127,DL
         4 021321   021352 601000 4                  TNZ     s:21157

PL6.E3A0      #001=ASL$DISP_ONE_PROFILE File=ASL$L_PRO.:E05TSI                   TUE 07/29/97 10:26 Page:597
     3571    21150    5              (KL$FUNKEY.FCNKEY.FCN_BYTE1 (CUR_KEY) = 127) THEN DO;  /*  Mnemonic  */

     3572    21151    5            FMT_VEC ( FDS.NVECS# ) = VECTOR (UNPRINT_TABLE.TXT(KL$FUNKEY.FCNKEY.
             21151                     FCN_BYTE1 (CUR_KEY)));

  21151  4 021322   000011 236000 xsym               LDQ     FDS+9
         4 021323   000001 736000                    QLS     1
         4 021324   000100 101505                    MRL     fill='000'O
         4 021325   000003 200001                    ADSC9   3,A,PR0                  cn=1,n=1
         4 021326   200366 000002                    ADSC9   TEMP+4,,AUTO             cn=0,n=2
         4 021327   200366 221100                    LDX1    TEMP+4,,AUTO
         4 021330   577640 235007                    LDA     -65632,DL
         4 021331   000000 622006                    EAX2    0,QL
         4 021332   000000 636011                    EAQ     0,X1
         4 021333   000243 036000 5                  ADLQ    163
         4 021334   000000 755012 xsym               STA     FMT_VEC,X2
         4 021335   000001 756012 xsym               STQ     FMT_VEC+1,X2

     3573    21152    5            FDS.NVECS# = FDS.NVECS# + 1;

  21152  4 021336   000011 054000 xsym               AOS     FDS+9

     3574    21153    5            CALL INSERT (FMT_BUF,FDS.FMT_.BOUND+1,3,'%>A');

  21153  4 021337   000000 236000 xsym               LDQ     FDS
         4 021340   000020 772000                    QRL     16
         4 021341   040006 100400                    MLR     fill='040'O
         4 021342   003765 000003 3                  ADSC9   FUNKEY_NAMES+1546        cn=0,n=3
         4 021343   000000 200003 xsym               ADSC9   FMT_BUF,Q                cn=1,n=3

     3575    21154    5            FDS.FMT_.BOUND = FDS.FMT_.BOUND + 3;

  21154  4 021344   000003 036007                    ADLQ    3,DL
         4 021345   000020 736000                    QLS     16
         4 021346   000000 676000 xsym               ERQ     FDS
         4 021347   000034 376000 xsym               ANQ     B_VECTNIL+28
         4 021350   000000 656000 xsym               ERSQ    FDS
PL6.E3A0      #001=ASL$DISP_ONE_PROFILE File=ASL$L_PRO.:E05TSI                   TUE 07/29/97 10:26 Page:598

     3576    21155    5            END;  /*  Mnemonic  */

  21155  4 021351   021433 710000 4                  TRA     s:21173

     3577    21156    4         ELSE
     3578    21157    4            IF (KL$FUNKEY.FCNKEY.FCN_BYTE1 (CUR_KEY) < 127)

  21157  4 021352   000100 101505                    MRL     fill='000'O
         4 021353   000003 200001                    ADSC9   3,A,PR0                  cn=1,n=1
         4 021354   200366 000004                    ADSC9   TEMP+4,,AUTO             cn=0,n=4
         4 021355   200366 236100                    LDQ     TEMP+4,,AUTO
         4 021356   000177 116007                    CMPQ    127,DL
         4 021357   021406 605000 4                  TPL     s:21165

     3579    21158    5            THEN DO;  /* It is printable */

     3580    21159    5               FMT_VEC (FDS.NVECS#) = VECTOR (KL$FUNKEY.FCNKEY.FCN_BYTE1 (CUR_KEY));

  21159  4 021360   000011 236000 xsym               LDQ     FDS+9
         4 021361   000001 736000                    QLS     1
         4 021362   177640 235007                    LDA     65440,DL
         4 021363   000000 621006                    EAX1    0,QL
         4 021364   200275 236100                    LDQ     CUR_KEY,,AUTO
         4 021365   000022 736000                    QLS     18
         4 021366   000314 036000 5                  ADLQ    204
         4 021367   000156 036000 2                  ADLQ    FUNKEY$
         4 021370   000000 755011 xsym               STA     FMT_VEC,X1
         4 021371   000001 756011 xsym               STQ     FMT_VEC+1,X1

     3581    21160    5               FDS.NVECS# = FDS.NVECS# + 1;

  21160  4 021372   000011 054000 xsym               AOS     FDS+9

     3582    21161    5               CALL INSERT (FMT_BUF,FDS.FMT_.BOUND+1,4,'''%A''');

  21161  4 021373   000000 236000 xsym               LDQ     FDS
PL6.E3A0      #001=ASL$DISP_ONE_PROFILE File=ASL$L_PRO.:E05TSI                   TUE 07/29/97 10:26 Page:599
         4 021374   000020 772000                    QRL     16
         4 021375   040006 100400                    MLR     fill='040'O
         4 021376   003777 000004 3                  ADSC9   FUNKEY_NAMES+1556        cn=0,n=4
         4 021377   000000 200004 xsym               ADSC9   FMT_BUF,Q                cn=1,n=4

     3583    21162    5               FDS.FMT_.BOUND = FDS.FMT_.BOUND + 4;

  21162  4 021400   000004 036007                    ADLQ    4,DL
         4 021401   000020 736000                    QLS     16
         4 021402   000000 676000 xsym               ERQ     FDS
         4 021403   000034 376000 xsym               ANQ     B_VECTNIL+28
         4 021404   000000 656000 xsym               ERSQ    FDS

     3584    21163    5               END;   /*  Printable  */

  21163  4 021405   021433 710000 4                  TRA     s:21173

     3585    21164    5            ELSE DO;   /*  Non printable  */

     3586    21165    5               FMT_VEC (FDS.NVECS#) = VECTOR (KL$FUNKEY.FCNKEY.FCN_BYTE1 (CUR_KEY));

  21165  4 021406   000011 235000 xsym               LDA     FDS+9
         4 021407   000001 735000                    ALS     1
         4 021410   000000 621005                    EAX1    0,AL
         4 021411   177640 235007                    LDA     65440,DL
         4 021412   200275 236100                    LDQ     CUR_KEY,,AUTO
         4 021413   000022 736000                    QLS     18
         4 021414   000314 036000 5                  ADLQ    204
         4 021415   000156 036000 2                  ADLQ    FUNKEY$
         4 021416   000000 755011 xsym               STA     FMT_VEC,X1
         4 021417   000001 756011 xsym               STQ     FMT_VEC+1,X1

     3587    21166    5               FDS.NVECS# = FDS.NVECS# + 1;

  21166  4 021420   000011 054000 xsym               AOS     FDS+9

     3588    21167    5               CALL INSERT (FMT_BUF,FDS.FMT_.BOUND+1,5,'X''%H''');
PL6.E3A0      #001=ASL$DISP_ONE_PROFILE File=ASL$L_PRO.:E05TSI                   TUE 07/29/97 10:26 Page:600

  21167  4 021421   000000 236000 xsym               LDQ     FDS
         4 021422   000020 772000                    QRL     16
         4 021423   040006 100400                    MLR     fill='040'O
         4 021424   004037 000005 3                  ADSC9   FUNKEY_NAMES+1588        cn=0,n=5
         4 021425   000000 200005 xsym               ADSC9   FMT_BUF,Q                cn=1,n=5

     3589    21168    5               FDS.FMT_.BOUND = FDS.FMT_.BOUND + 5;

  21168  4 021426   000005 036007                    ADLQ    5,DL
         4 021427   000020 736000                    QLS     16
         4 021430   000000 676000 xsym               ERQ     FDS
         4 021431   000034 376000 xsym               ANQ     B_VECTNIL+28
         4 021432   000000 656000 xsym               ERSQ    FDS

     3590    21169    5               END;   /*  Non printable  */

     3591    21170
     3592    21171             /*  Set up the tab position  */
     3593    21172
     3594    21173    4         NUM_ON_LINE = NUM_ON_LINE + 1;

  21173  4 021433   200274 235100                    LDA     NUM_ON_LINE,,AUTO
         4 021434   000001 035007                    ADLA    1,DL
         4 021435   200274 755100                    STA     NUM_ON_LINE,,AUTO

     3595    21174    5         IF (NUM_ON_LINE+1) * ENTRY_LENGTH < LO_WIDTH THEN DO;

  21174  4 021436   200274 236100                    LDQ     NUM_ON_LINE,,AUTO
         4 021437   000001 036007                    ADLQ    1,DL
         4 021440   000573 402000 2                  MPY     ENTRY_LENGTH
         4 021441   000000 116000 xsym               CMPQ    LO_WIDTH
         4 021442   021510 603000 4                  TRC     s:21185

     3596    21175    6            IF JCL THEN DO;

  21175  4 021443   200004 471500                    LDP1    @JCL,,AUTO
PL6.E3A0      #001=ASL$DISP_ONE_PROFILE File=ASL$L_PRO.:E05TSI                   TUE 07/29/97 10:26 Page:601
         4 021444   000000 066500                    CMPB    filb='0'B
         4 021445   100000 000001                    BDSC    0,,PR1                   by=0,bit=0,n=1
         4 021446   000002 000022 xsym               BDSC    B_VECTNIL+2              by=0,bit=0,n=18
         4 021447   021462 600000 4                  TZE     s:21179

     3597    21176    6               CALL INSERT (FMT_BUF,FDS.FMT_.BOUND+1,1,';');

  21176  4 021450   000000 236000 xsym               LDQ     FDS
         4 021451   000020 772000                    QRL     16
         4 021452   040006 100400                    MLR     fill='040'O
         4 021453   000315 000001 5                  ADSC9   205                      cn=0,n=1
         4 021454   000000 200001 xsym               ADSC9   FMT_BUF,Q                cn=1,n=1

     3598    21177    6               FDS.FMT_.BOUND = FDS.FMT_.BOUND + 1;

  21177  4 021455   000001 036007                    ADLQ    1,DL
         4 021456   000020 736000                    QLS     16
         4 021457   000000 676000 xsym               ERQ     FDS
         4 021460   000034 376000 xsym               ANQ     B_VECTNIL+28
         4 021461   000000 656000 xsym               ERSQ    FDS

     3599    21178    6               END;   /*  Jcl  */

     3600    21179    5            FMT_VEC (FDS.NVECS#) = VECTOR (TAB_POS(NUM_ON_LINE));

  21179  4 021462   000011 235000 xsym               LDA     FDS+9
         4 021463   000001 735000                    ALS     1
         4 021464   000000 620005                    EAX0    0,AL
         4 021465   777640 235007                    LDA     -96,DL
         4 021466   200366 452500                    STP2    TEMP+4,,AUTO
         4 021467   200274 236100                    LDQ     NUM_ON_LINE,,AUTO
         4 021470   000022 736000                    QLS     18
         4 021471   000353 036003                    ADLQ    235,DU
         4 021472   200366 036100                    ADLQ    TEMP+4,,AUTO
         4 021473   000000 755010 xsym               STA     FMT_VEC,X0
         4 021474   000001 756010 xsym               STQ     FMT_VEC+1,X0

PL6.E3A0      #001=ASL$DISP_ONE_PROFILE File=ASL$L_PRO.:E05TSI                   TUE 07/29/97 10:26 Page:602
     3601    21180    5            FDS.NVECS# = FDS.NVECS# + 1;

  21180  4 021475   000011 054000 xsym               AOS     FDS+9

     3602    21181    5            CALL INSERT (FMT_BUF,FDS.FMT_.BOUND+1,4,'%>N-');

  21181  4 021476   000000 236000 xsym               LDQ     FDS
         4 021477   000020 772000                    QRL     16
         4 021500   040006 100400                    MLR     fill='040'O
         4 021501   004042 000004 3                  ADSC9   FUNKEY_NAMES+1591        cn=0,n=4
         4 021502   000000 200004 xsym               ADSC9   FMT_BUF,Q                cn=1,n=4

     3603    21182    5            FDS.FMT_.BOUND = FDS.FMT_.BOUND + 4;

  21182  4 021503   000004 036007                    ADLQ    4,DL
         4 021504   000020 736000                    QLS     16
         4 021505   000000 676000 xsym               ERQ     FDS
         4 021506   000034 376000 xsym               ANQ     B_VECTNIL+28
         4 021507   000000 656000 xsym               ERSQ    FDS

     3604    21183
     3605    21184    5            END; /* If  < LO_WIDTH */

     3606    21185    4         END; /* Do while < LO_WIDTH */

  21185  4 021510   200274 236100                    LDQ     NUM_ON_LINE,,AUTO
         4 021511   000001 036007                    ADLQ    1,DL
         4 021512   000573 402000 2                  MPY     ENTRY_LENGTH
         4 021513   000000 116000 xsym               CMPQ    LO_WIDTH
         4 021514   021516 600000 4                  TZE     s:21185+6
         4 021515   021527 603000 4                  TRC     s:21187
         4 021516   000156 470400 2                  LDP0    FUNKEY$
         4 021517   000100 100500                    MLR     fill='000'O
         4 021520   000002 400002                    ADSC9   2,,PR0                   cn=2,n=2
         4 021521   200366 000004                    ADSC9   TEMP+4,,AUTO             cn=0,n=4
         4 021522   200366 236100                    LDQ     TEMP+4,,AUTO
         4 021523   000022 732000                    QRS     18
PL6.E3A0      #001=ASL$DISP_ONE_PROFILE File=ASL$L_PRO.:E05TSI                   TUE 07/29/97 10:26 Page:603
         4 021524   000001 136007                    SBLQ    1,DL
         4 021525   200275 116100                    CMPQ    CUR_KEY,,AUTO
         4 021526   017572 605400 4                  TPNZ    s:20929

     3607    21186
     3608    21187    3      IF (FDS.FMT_.BOUND > 0)

  21187  4 021527   000000 236000 xsym               LDQ     FDS
         4 021530   000034 316000 xsym               CANQ    B_VECTNIL+28
         4 021531   021537 600000 4                  TZE     s:21192

     3609    21188    4      THEN DO;   /* There is something to write out */

     3610    21189    4         CALL X$FORMAT (FDS);

  21189  4 021532   000004 630400 5                  EPPR0   4
         4 021533   000017 631400 xsym               EPPR1   B_VECTNIL+15
         4 021534   000000 701000 xent               TSX1    X$FORMAT
         4 021535   000000 011000                    NOP     0

     3611    21190    4         FDS.NVECS# = 0;

  21190  4 021536   000011 450000 xsym               STZ     FDS+9

     3612    21191    4         END;

     3613    21192    3      END; /* Do while */

  21192  4 021537   000156 470400 2                  LDP0    FUNKEY$
         4 021540   000100 100500                    MLR     fill='000'O
         4 021541   000002 400002                    ADSC9   2,,PR0                   cn=2,n=2
         4 021542   200366 000004                    ADSC9   TEMP+4,,AUTO             cn=0,n=4
         4 021543   200366 236100                    LDQ     TEMP+4,,AUTO
         4 021544   000022 732000                    QRS     18
         4 021545   000001 136007                    SBLQ    1,DL
         4 021546   200275 116100                    CMPQ    CUR_KEY,,AUTO
         4 021547   017550 605400 4                  TPNZ    s:20920
PL6.E3A0      #001=ASL$DISP_ONE_PROFILE File=ASL$L_PRO.:E05TSI                   TUE 07/29/97 10:26 Page:604

     3614    21193
     3615    21194    2   RETURN;

  21194  4 021550   200272 221300                    LDX1  ! SET+2,,AUTO
         4 021551   000001 702211                    TSX2  ! 1,X1

     3616    21195    2   END LIST_FUNKEY_DEFS;
     3617    21196        %EJECT ;
PL6.E3A0      #001=ASL$DISP_ONE_PROFILE File=ASL$L_PRO.:E05TSI                   TUE 07/29/97 10:26 Page:605
     3618    21197    1   BUILD_JCL_FMT: PROC ;

  21197  4 021552   200154 741300       BUILD_JCL_F* STX1  ! PTR$+1,,AUTO

     3619    21198        /********************************************************************/
     3620    21199        /*   Auto            auto            auto            auto           */
     3621    21200        /********************************************************************/
     3622    21201    2   DCL ABYTE UBIN BYTE CALIGNED BASED;
     3623    21202    2   DCL CLASS SBIN ;
     3624    21203    2   DCL I UBIN ;
     3625    21204    2   DCL LENGTH UBIN ;
     3626    21205    2   DCL J UBIN ;
     3627    21206    2   DCL NEXT UBIN WORD ;
     3628    21207    2   DCL OPT_INDEX   UBIN;
     3629    21208    2   DCL SVAL SBIN ;
     3630    21209    2   DCL FORMAT    CHAR(255);
     3631    21210    2   DCL POSITION   CHAR (12);
     3632    21211    2   DCL FIRST      BIT (1);
     3633    21212    2   DCL SET      BIT (1);
     3634    21213
     3635    21214        /*  begin procecure BUILD_JCL_FMT  */
     3636    21215
     3637    21216    3   DO OPT_INDEX = 0 TO 280 /* L_PRO_END */ - 1;

  21216  4 021553   200162 450100                    STZ     OPT_INDEX,,AUTO
         4 021554   026351 710000 4                  TRA     s:22088+3

     3638    21217
     3639    21218    3      NEXT = ASL_PRO_OPT_TBL.ORDR(OPT_INDEX) ;

  21218  4 021555   200162 235100                    LDA     OPT_INDEX,,AUTO
         4 021556   000003 735000                    ALS     3
         4 021557   000005 236005 xsym               LDQ     ASL_PRO_OPT_TBL+5,AL
         4 021560   000011 772000                    QRL     9
         4 021561   000777 376007                    ANQ     511,DL
         4 021562   200161 756100                    STQ     NEXT,,AUTO

PL6.E3A0      #001=ASL$DISP_ONE_PROFILE File=ASL$L_PRO.:E05TSI                   TUE 07/29/97 10:26 Page:606
     3640    21219    4      IF (PRO_FLAGS(NEXT) AND (ASL_PRO_OPT_TBL.LEN(NEXT) ~= 0))THEN DO;

  21219  4 021563   000000 066406                    CMPB    filb='0'B
         4 021564   000046 000001 2                  BDSC    PRO_FLAGS,Q              by=0,bit=0,n=1
         4 021565   000002 000022 xsym               BDSC    B_VECTNIL+2              by=0,bit=0,n=18
         4 021566   026346 600000 4                  TZE     s:22088
         4 021567   200161 235100                    LDA     NEXT,,AUTO
         4 021570   000003 735000                    ALS     3
         4 021571   000000 236005 xsym               LDQ     ASL_PRO_OPT_TBL,AL
         4 021572   777000 316003                    CANQ    -512,DU
         4 021573   026346 600000 4                  TZE     s:22088

     3641    21220
     3642    21221    4         CALL CONCAT (FMT_BUF, '   ', ASL_PRO_OPT_TBL.HDR (NEXT), ' = ');

  21221  4 021574   004015 236000 3                  LDQ     FUNKEY_NAMES+1570
         4 021575   000316 376000 5                  ANQ     206
         4 021576   000040 276007                    ORQ     32,DL
         4 021577   000000 756000 xsym               STQ     FMT_BUF
         4 021600   200161 235100                    LDA     NEXT,,AUTO
         4 021601   000005 735000                    ALS     5
         4 021602   040000 100405                    MLR     fill='040'O
         4 021603   000000 200024 xsym               ADSC9   ASL_PRO_OPT_TBL,A        cn=1,n=20
         4 021604   000000 600024 xsym               ADSC9   FMT_BUF                  cn=3,n=20
         4 021605   040000 100400                    MLR     fill='040'O
         4 021606   003762 000003 3                  ADSC9   FUNKEY_NAMES+1543        cn=0,n=3
         4 021607   000005 600350 xsym               ADSC9   FMT_BUF+5                cn=3,n=232

     3643    21222    4         FDS.FMT_.BOUND = LENGTHC (ASL_PRO_OPT_TBL.HDR (NEXT)) + 5;

  21222  4 021610   000000 236000 xsym               LDQ     FDS
         4 021611   177777 376007                    ANQ     65535,DL
         4 021612   000317 276000 5                  ORQ     207
         4 021613   000000 756000 xsym               STQ     FDS

     3644    21223    4         FDS.NVECS# = 1;

PL6.E3A0      #001=ASL$DISP_ONE_PROFILE File=ASL$L_PRO.:E05TSI                   TUE 07/29/97 10:26 Page:607
  21223  4 021614   000001 235007                    LDA     1,DL
         4 021615   000011 755000 xsym               STA     FDS+9

     3645    21224
     3646    21225    5         DO SELECT(NEXT) ;

  21225  4 021616   200161 236100                    LDQ     NEXT,,AUTO
         4 021617   000277 116007                    CMPQ    191,DL
         4 021620   022240 602000 4                  TNC     s:21225+274
         4 021621   023431 600000 4                  TZE     s:21273
         4 021622   000371 116007                    CMPQ    249,DL
         4 021623   021760 602000 4                  TNC     s:21225+98
         4 021624   023615 600000 4                  TZE     s:21501
         4 021625   000406 116007                    CMPQ    262,DL
         4 021626   021714 602000 4                  TNC     s:21225+62
         4 021627   023600 600000 4                  TZE     s:21437
         4 021630   000416 116007                    CMPQ    270,DL
         4 021631   021666 602000 4                  TNC     s:21225+40
         4 021632   023615 600000 4                  TZE     s:21501
         4 021633   000422 116007                    CMPQ    274,DL
         4 021634   021655 602000 4                  TNC     s:21225+31
         4 021635   023615 600000 4                  TZE     s:21501
         4 021636   000424 116007                    CMPQ    276,DL
         4 021637   021652 602000 4                  TNC     s:21225+28
         4 021640   023615 600000 4                  TZE     s:21501
         4 021641   000426 116007                    CMPQ    278,DL
         4 021642   021647 602000 4                  TNC     s:21225+25
         4 021643   023615 600000 4                  TZE     s:21501
         4 021644   000427 116007                    CMPQ    279,DL
         4 021645   025444 601000 4                  TNZ     s:21933
         4 021646   024444 710000 4                  TRA     s:21706
         4 021647   000425 116007                    CMPQ    277,DL
         4 021650   025444 601000 4                  TNZ     s:21933
         4 021651   023615 710000 4                  TRA     s:21501
         4 021652   000423 116007                    CMPQ    275,DL
         4 021653   025444 601000 4                  TNZ     s:21933
         4 021654   023615 710000 4                  TRA     s:21501
PL6.E3A0      #001=ASL$DISP_ONE_PROFILE File=ASL$L_PRO.:E05TSI                   TUE 07/29/97 10:26 Page:608
         4 021655   000420 116007                    CMPQ    272,DL
         4 021656   021663 602000 4                  TNC     s:21225+37
         4 021657   023615 600000 4                  TZE     s:21501
         4 021660   000421 116007                    CMPQ    273,DL
         4 021661   025444 601000 4                  TNZ     s:21933
         4 021662   023615 710000 4                  TRA     s:21501
         4 021663   000417 116007                    CMPQ    271,DL
         4 021664   025444 601000 4                  TNZ     s:21933
         4 021665   023615 710000 4                  TRA     s:21501
         4 021666   000411 116007                    CMPQ    265,DL
         4 021667   021706 602000 4                  TNC     s:21225+56
         4 021670   023615 600000 4                  TZE     s:21501
         4 021671   000414 116007                    CMPQ    268,DL
         4 021672   021677 602000 4                  TNC     s:21225+49
         4 021673   023615 600000 4                  TZE     s:21501
         4 021674   000415 116007                    CMPQ    269,DL
         4 021675   025444 601000 4                  TNZ     s:21933
         4 021676   023615 710000 4                  TRA     s:21501
         4 021677   000413 116007                    CMPQ    267,DL
         4 021700   021703 602000 4                  TNC     s:21225+53
         4 021701   023615 600000 4                  TZE     s:21501
         4 021702   025444 710000 4                  TRA     s:21933
         4 021703   000412 116007                    CMPQ    266,DL
         4 021704   025444 601000 4                  TNZ     s:21933
         4 021705   023615 710000 4                  TRA     s:21501
         4 021706   000407 116007                    CMPQ    263,DL
         4 021707   025444 602000 4                  TNC     s:21933
         4 021710   023615 600000 4                  TZE     s:21501
         4 021711   000410 116007                    CMPQ    264,DL
         4 021712   025444 601000 4                  TNZ     s:21933
         4 021713   023615 710000 4                  TRA     s:21501
         4 021714   000377 116007                    CMPQ    255,DL
         4 021715   021741 602000 4                  TNC     s:21225+83
         4 021716   023615 600000 4                  TZE     s:21501
         4 021717   000403 116007                    CMPQ    259,DL
         4 021720   021730 602000 4                  TNC     s:21225+74
         4 021721   023615 600000 4                  TZE     s:21501
PL6.E3A0      #001=ASL$DISP_ONE_PROFILE File=ASL$L_PRO.:E05TSI                   TUE 07/29/97 10:26 Page:609
         4 021722   000404 116007                    CMPQ    260,DL
         4 021723   025444 602000 4                  TNC     s:21933
         4 021724   023615 600000 4                  TZE     s:21501
         4 021725   000405 116007                    CMPQ    261,DL
         4 021726   025444 601000 4                  TNZ     s:21933
         4 021727   023615 710000 4                  TRA     s:21501
         4 021730   000401 116007                    CMPQ    257,DL
         4 021731   021736 602000 4                  TNC     s:21225+80
         4 021732   023615 600000 4                  TZE     s:21501
         4 021733   000402 116007                    CMPQ    258,DL
         4 021734   025444 601000 4                  TNZ     s:21933
         4 021735   023615 710000 4                  TRA     s:21501
         4 021736   000400 116007                    CMPQ    256,DL
         4 021737   025444 601000 4                  TNZ     s:21933
         4 021740   023615 710000 4                  TRA     s:21501
         4 021741   000373 116007                    CMPQ    251,DL
         4 021742   021755 602000 4                  TNC     s:21225+95
         4 021743   023615 600000 4                  TZE     s:21501
         4 021744   000375 116007                    CMPQ    253,DL
         4 021745   021752 602000 4                  TNC     s:21225+92
         4 021746   023615 600000 4                  TZE     s:21501
         4 021747   000376 116007                    CMPQ    254,DL
         4 021750   025444 601000 4                  TNZ     s:21933
         4 021751   023615 710000 4                  TRA     s:21501
         4 021752   000374 116007                    CMPQ    252,DL
         4 021753   025444 601000 4                  TNZ     s:21933
         4 021754   023615 710000 4                  TRA     s:21501
         4 021755   000372 116007                    CMPQ    250,DL
         4 021756   025444 601000 4                  TNZ     s:21933
         4 021757   023615 710000 4                  TRA     s:21501
         4 021760   000333 116007                    CMPQ    219,DL
         4 021761   022115 602000 4                  TNC     s:21225+191
         4 021762   023534 600000 4                  TZE     s:21420
         4 021763   000352 116007                    CMPQ    234,DL
         4 021764   022041 602000 4                  TNC     s:21225+147
         4 021765   023615 600000 4                  TZE     s:21501
         4 021766   000357 116007                    CMPQ    239,DL
PL6.E3A0      #001=ASL$DISP_ONE_PROFILE File=ASL$L_PRO.:E05TSI                   TUE 07/29/97 10:26 Page:610
         4 021767   022024 602000 4                  TNC     s:21225+134
         4 021770   023615 600000 4                  TZE     s:21501
         4 021771   000364 116007                    CMPQ    244,DL
         4 021772   022010 602000 4                  TNC     s:21225+122
         4 021773   023615 600000 4                  TZE     s:21501
         4 021774   000366 116007                    CMPQ    246,DL
         4 021775   022005 602000 4                  TNC     s:21225+119
         4 021776   023615 600000 4                  TZE     s:21501
         4 021777   000367 116007                    CMPQ    247,DL
         4 022000   025444 602000 4                  TNC     s:21933
         4 022001   023615 600000 4                  TZE     s:21501
         4 022002   000370 116007                    CMPQ    248,DL
         4 022003   025444 601000 4                  TNZ     s:21933
         4 022004   023615 710000 4                  TRA     s:21501
         4 022005   000365 116007                    CMPQ    245,DL
         4 022006   025444 601000 4                  TNZ     s:21933
         4 022007   023615 710000 4                  TRA     s:21501
         4 022010   000361 116007                    CMPQ    241,DL
         4 022011   022021 602000 4                  TNC     s:21225+131
         4 022012   023615 600000 4                  TZE     s:21501
         4 022013   000362 116007                    CMPQ    242,DL
         4 022014   025444 602000 4                  TNC     s:21933
         4 022015   023501 600000 4                  TZE     s:21405
         4 022016   000363 116007                    CMPQ    243,DL
         4 022017   025444 601000 4                  TNZ     s:21933
         4 022020   023615 710000 4                  TRA     s:21501
         4 022021   000360 116007                    CMPQ    240,DL
         4 022022   025444 601000 4                  TNZ     s:21933
         4 022023   023615 710000 4                  TRA     s:21501
         4 022024   000354 116007                    CMPQ    236,DL
         4 022025   022036 602000 4                  TNC     s:21225+144
         4 022026   023615 600000 4                  TZE     s:21501
         4 022027   000356 116007                    CMPQ    238,DL
         4 022030   022033 602000 4                  TNC     s:21225+141
         4 022031   023615 600000 4                  TZE     s:21501
         4 022032   025444 710000 4                  TRA     s:21933
         4 022033   000355 116007                    CMPQ    237,DL
PL6.E3A0      #001=ASL$DISP_ONE_PROFILE File=ASL$L_PRO.:E05TSI                   TUE 07/29/97 10:26 Page:611
         4 022034   025444 601000 4                  TNZ     s:21933
         4 022035   023615 710000 4                  TRA     s:21501
         4 022036   000353 116007                    CMPQ    235,DL
         4 022037   025444 601000 4                  TNZ     s:21933
         4 022040   023615 710000 4                  TRA     s:21501
         4 022041   000345 116007                    CMPQ    229,DL
         4 022042   022061 602000 4                  TNC     s:21225+163
         4 022043   023615 600000 4                  TZE     s:21501
         4 022044   000347 116007                    CMPQ    231,DL
         4 022045   022056 602000 4                  TNC     s:21225+160
         4 022046   023615 600000 4                  TZE     s:21501
         4 022047   000351 116007                    CMPQ    233,DL
         4 022050   022053 602000 4                  TNC     s:21225+157
         4 022051   023615 600000 4                  TZE     s:21501
         4 022052   025444 710000 4                  TRA     s:21933
         4 022053   000350 116007                    CMPQ    232,DL
         4 022054   025444 601000 4                  TNZ     s:21933
         4 022055   023615 710000 4                  TRA     s:21501
         4 022056   000346 116007                    CMPQ    230,DL
         4 022057   025444 601000 4                  TNZ     s:21933
         4 022060   023615 710000 4                  TRA     s:21501
         4 022061   000336 116007                    CMPQ    222,DL
         4 022062   022106 602000 4                  TNC     s:21225+184
         4 022063   023615 600000 4                  TZE     s:21501
         4 022064   000342 116007                    CMPQ    226,DL
         4 022065   022075 602000 4                  TNC     s:21225+175
         4 022066   023615 600000 4                  TZE     s:21501
         4 022067   000343 116007                    CMPQ    227,DL
         4 022070   025444 602000 4                  TNC     s:21933
         4 022071   023615 600000 4                  TZE     s:21501
         4 022072   000344 116007                    CMPQ    228,DL
         4 022073   025444 601000 4                  TNZ     s:21933
         4 022074   023615 710000 4                  TRA     s:21501
         4 022075   000340 116007                    CMPQ    224,DL
         4 022076   022103 602000 4                  TNC     s:21225+181
         4 022077   023615 600000 4                  TZE     s:21501
         4 022100   000341 116007                    CMPQ    225,DL
PL6.E3A0      #001=ASL$DISP_ONE_PROFILE File=ASL$L_PRO.:E05TSI                   TUE 07/29/97 10:26 Page:612
         4 022101   025444 601000 4                  TNZ     s:21933
         4 022102   023615 710000 4                  TRA     s:21501
         4 022103   000337 116007                    CMPQ    223,DL
         4 022104   025444 601000 4                  TNZ     s:21933
         4 022105   023615 710000 4                  TRA     s:21501
         4 022106   000335 116007                    CMPQ    221,DL
         4 022107   022112 602000 4                  TNC     s:21225+188
         4 022110   023615 600000 4                  TZE     s:21501
         4 022111   025444 710000 4                  TRA     s:21933
         4 022112   000334 116007                    CMPQ    220,DL
         4 022113   025444 601000 4                  TNZ     s:21933
         4 022114   023615 710000 4                  TRA     s:21501
         4 022115   000320 116007                    CMPQ    208,DL
         4 022116   022156 602000 4                  TNC     s:21225+224
         4 022117   023474 600000 4                  TZE     s:21401
         4 022120   000326 116007                    CMPQ    214,DL
         4 022121   022137 602000 4                  TNC     s:21225+209
         4 022122   023431 600000 4                  TZE     s:21273
         4 022123   000330 116007                    CMPQ    216,DL
         4 022124   022134 602000 4                  TNC     s:21225+206
         4 022125   023450 600000 4                  TZE     s:21329
         4 022126   000331 116007                    CMPQ    217,DL
         4 022127   025444 602000 4                  TNC     s:21933
         4 022130   023450 600000 4                  TZE     s:21329
         4 022131   000332 116007                    CMPQ    218,DL
         4 022132   025444 601000 4                  TNZ     s:21933
         4 022133   025070 710000 4                  TRA     s:21841
         4 022134   000327 116007                    CMPQ    215,DL
         4 022135   025444 601000 4                  TNZ     s:21933
         4 022136   023431 710000 4                  TRA     s:21273
         4 022137   000324 116007                    CMPQ    212,DL
         4 022140   022145 602000 4                  TNC     s:21225+215
         4 022141   023474 600000 4                  TZE     s:21401
         4 022142   000325 116007                    CMPQ    213,DL
         4 022143   025444 601000 4                  TNZ     s:21933
         4 022144   023431 710000 4                  TRA     s:21273
         4 022145   000322 116007                    CMPQ    210,DL
PL6.E3A0      #001=ASL$DISP_ONE_PROFILE File=ASL$L_PRO.:E05TSI                   TUE 07/29/97 10:26 Page:613
         4 022146   022153 602000 4                  TNC     s:21225+221
         4 022147   023474 600000 4                  TZE     s:21401
         4 022150   000323 116007                    CMPQ    211,DL
         4 022151   025444 601000 4                  TNZ     s:21933
         4 022152   023474 710000 4                  TRA     s:21401
         4 022153   000321 116007                    CMPQ    209,DL
         4 022154   025444 601000 4                  TNZ     s:21933
         4 022155   024507 710000 4                  TRA     s:21728
         4 022156   000305 116007                    CMPQ    197,DL
         4 022157   022220 602000 4                  TNC     s:21225+258
         4 022160   023450 600000 4                  TZE     s:21329
         4 022161   000314 116007                    CMPQ    204,DL
         4 022162   022175 602000 4                  TNC     s:21225+239
         4 022163   023474 600000 4                  TZE     s:21401
         4 022164   000316 116007                    CMPQ    206,DL
         4 022165   022172 602000 4                  TNC     s:21225+236
         4 022166   023474 600000 4                  TZE     s:21401
         4 022167   000317 116007                    CMPQ    207,DL
         4 022170   025444 601000 4                  TNZ     s:21933
         4 022171   023474 710000 4                  TRA     s:21401
         4 022172   000315 116007                    CMPQ    205,DL
         4 022173   025444 601000 4                  TNZ     s:21933
         4 022174   023474 710000 4                  TRA     s:21401
         4 022175   000310 116007                    CMPQ    200,DL
         4 022176   022211 602000 4                  TNC     s:21225+251
         4 022177   023775 600000 4                  TZE     s:21548
         4 022200   000312 116007                    CMPQ    202,DL
         4 022201   022206 602000 4                  TNC     s:21225+248
         4 022202   023474 600000 4                  TZE     s:21401
         4 022203   000313 116007                    CMPQ    203,DL
         4 022204   025444 601000 4                  TNZ     s:21933
         4 022205   023474 710000 4                  TRA     s:21401
         4 022206   000311 116007                    CMPQ    201,DL
         4 022207   025444 601000 4                  TNZ     s:21933
         4 022210   025412 710000 4                  TRA     s:21924
         4 022211   000307 116007                    CMPQ    199,DL
         4 022212   022215 602000 4                  TNC     s:21225+255
PL6.E3A0      #001=ASL$DISP_ONE_PROFILE File=ASL$L_PRO.:E05TSI                   TUE 07/29/97 10:26 Page:614
         4 022213   024265 600000 4                  TZE     s:21652
         4 022214   025444 710000 4                  TRA     s:21933
         4 022215   000306 116007                    CMPQ    198,DL
         4 022216   025444 601000 4                  TNZ     s:21933
         4 022217   023462 710000 4                  TRA     s:21374
         4 022220   000302 116007                    CMPQ    194,DL
         4 022221   022232 602000 4                  TNC     s:21225+268
         4 022222   023431 600000 4                  TZE     s:21273
         4 022223   000304 116007                    CMPQ    196,DL
         4 022224   022227 602000 4                  TNC     s:21225+265
         4 022225   023450 600000 4                  TZE     s:21329
         4 022226   025444 710000 4                  TRA     s:21933
         4 022227   000303 116007                    CMPQ    195,DL
         4 022230   025444 601000 4                  TNZ     s:21933
         4 022231   025002 710000 4                  TRA     s:21815
         4 022232   000300 116007                    CMPQ    192,DL
         4 022233   025444 602000 4                  TNC     s:21933
         4 022234   023431 600000 4                  TZE     s:21273
         4 022235   000301 116007                    CMPQ    193,DL
         4 022236   025444 601000 4                  TNZ     s:21933
         4 022237   023431 710000 4                  TRA     s:21273
         4 022240   000151 116007                    CMPQ    105,DL
         4 022241   022667 602000 4                  TNC     s:21225+553
         4 022242   023436 600000 4                  TZE     s:21289
         4 022243   000236 116007                    CMPQ    158,DL
         4 022244   022417 602000 4                  TNC     s:21225+385
         4 022245   023423 600000 4                  TZE     s:21235
         4 022246   000263 116007                    CMPQ    179,DL
         4 022247   022315 602000 4                  TNC     s:21225+319
         4 022250   023450 600000 4                  TZE     s:21329
         4 022251   000271 116007                    CMPQ    185,DL
         4 022252   022275 602000 4                  TNC     s:21225+303
         4 022253   023462 600000 4                  TZE     s:21374
         4 022254   000275 116007                    CMPQ    189,DL
         4 022255   022262 602000 4                  TNC     s:21225+292
         4 022256   023431 600000 4                  TZE     s:21273
         4 022257   000276 116007                    CMPQ    190,DL
PL6.E3A0      #001=ASL$DISP_ONE_PROFILE File=ASL$L_PRO.:E05TSI                   TUE 07/29/97 10:26 Page:615
         4 022260   025444 601000 4                  TNZ     s:21933
         4 022261   023431 710000 4                  TRA     s:21273
         4 022262   200161 236100                    LDQ     NEXT,,AUTO
         4 022263   000273 116007                    CMPQ    187,DL
         4 022264   022271 602000 4                  TNC     s:21225+299
         4 022265   023462 600000 4                  TZE     s:21374
         4 022266   000274 116007                    CMPQ    188,DL
         4 022267   025444 601000 4                  TNZ     s:21933
         4 022270   023462 710000 4                  TRA     s:21374
         4 022271   200161 235100                    LDA     NEXT,,AUTO
         4 022272   000272 115007                    CMPA    186,DL
         4 022273   025444 601000 4                  TNZ     s:21933
         4 022274   023462 710000 4                  TRA     s:21374
         4 022275   200161 236100                    LDQ     NEXT,,AUTO
         4 022276   000267 116007                    CMPQ    183,DL
         4 022277   022304 602000 4                  TNC     s:21225+310
         4 022300   023462 600000 4                  TZE     s:21374
         4 022301   000270 116007                    CMPQ    184,DL
         4 022302   025444 601000 4                  TNZ     s:21933
         4 022303   023462 710000 4                  TRA     s:21374
         4 022304   000265 116007                    CMPQ    181,DL
         4 022305   022312 602000 4                  TNC     s:21225+316
         4 022306   024233 600000 4                  TZE     s:21638
         4 022307   000266 116007                    CMPQ    182,DL
         4 022310   025444 601000 4                  TNZ     s:21933
         4 022311   023462 710000 4                  TRA     s:21374
         4 022312   000264 116007                    CMPQ    180,DL
         4 022313   025444 601000 4                  TNZ     s:21933
         4 022314   024544 710000 4                  TRA     s:21742
         4 022315   200161 236100                    LDQ     NEXT,,AUTO
         4 022316   000253 116007                    CMPQ    171,DL
         4 022317   022352 602000 4                  TNC     s:21225+348
         4 022320   023474 600000 4                  TZE     s:21401
         4 022321   000260 116007                    CMPQ    176,DL
         4 022322   022332 602000 4                  TNC     s:21225+332
         4 022323   023467 600000 4                  TZE     s:21384
         4 022324   000261 116007                    CMPQ    177,DL
PL6.E3A0      #001=ASL$DISP_ONE_PROFILE File=ASL$L_PRO.:E05TSI                   TUE 07/29/97 10:26 Page:616
         4 022325   025444 602000 4                  TNC     s:21933
         4 022326   023474 600000 4                  TZE     s:21401
         4 022327   000262 116007                    CMPQ    178,DL
         4 022330   025444 601000 4                  TNZ     s:21933
         4 022331   024316 710000 4                  TRA     s:21663
         4 022332   200161 236100                    LDQ     NEXT,,AUTO
         4 022333   000255 116007                    CMPQ    173,DL
         4 022334   022346 602000 4                  TNC     s:21225+344
         4 022335   025024 600000 4                  TZE     s:21824
         4 022336   000257 116007                    CMPQ    175,DL
         4 022337   022342 602000 4                  TNC     s:21225+340
         4 022340   023474 600000 4                  TZE     s:21401
         4 022341   025444 710000 4                  TRA     s:21933
         4 022342   200161 235100                    LDA     NEXT,,AUTO
         4 022343   000256 115007                    CMPA    174,DL
         4 022344   025444 601000 4                  TNZ     s:21933
         4 022345   025036 710000 4                  TRA     s:21829
         4 022346   200161 235100                    LDA     NEXT,,AUTO
         4 022347   000254 115007                    CMPA    172,DL
         4 022350   025444 601000 4                  TNZ     s:21933
         4 022351   023474 710000 4                  TRA     s:21401
         4 022352   200161 236100                    LDQ     NEXT,,AUTO
         4 022353   000245 116007                    CMPQ    165,DL
         4 022354   022373 602000 4                  TNC     s:21225+365
         4 022355   023450 600000 4                  TZE     s:21329
         4 022356   000247 116007                    CMPQ    167,DL
         4 022357   022367 602000 4                  TNC     s:21225+361
         4 022360   023431 600000 4                  TZE     s:21273
         4 022361   000251 116007                    CMPQ    169,DL
         4 022362   025444 602000 4                  TNC     s:21933
         4 022363   024645 600000 4                  TZE     s:21771
         4 022364   000252 116007                    CMPQ    170,DL
         4 022365   025444 601000 4                  TNZ     s:21933
         4 022366   024657 710000 4                  TRA     s:21776
         4 022367   200161 235100                    LDA     NEXT,,AUTO
         4 022370   000246 115007                    CMPA    166,DL
         4 022371   025444 601000 4                  TNZ     s:21933
PL6.E3A0      #001=ASL$DISP_ONE_PROFILE File=ASL$L_PRO.:E05TSI                   TUE 07/29/97 10:26 Page:617
         4 022372   023450 710000 4                  TRA     s:21329
         4 022373   200161 236100                    LDQ     NEXT,,AUTO
         4 022374   000241 116007                    CMPQ    161,DL
         4 022375   022410 602000 4                  TNC     s:21225+378
         4 022376   023423 600000 4                  TZE     s:21235
         4 022377   000243 116007                    CMPQ    163,DL
         4 022400   022405 602000 4                  TNC     s:21225+375
         4 022401   023450 600000 4                  TZE     s:21329
         4 022402   000244 116007                    CMPQ    164,DL
         4 022403   025444 601000 4                  TNZ     s:21933
         4 022404   023431 710000 4                  TRA     s:21273
         4 022405   000242 116007                    CMPQ    162,DL
         4 022406   025444 601000 4                  TNZ     s:21933
         4 022407   023462 710000 4                  TRA     s:21374
         4 022410   000240 116007                    CMPQ    160,DL
         4 022411   022414 602000 4                  TNC     s:21225+382
         4 022412   023423 600000 4                  TZE     s:21235
         4 022413   025444 710000 4                  TRA     s:21933
         4 022414   000237 116007                    CMPQ    159,DL
         4 022415   025444 601000 4                  TNZ     s:21933
         4 022416   023423 710000 4                  TRA     s:21235
         4 022417   000210 116007                    CMPQ    136,DL
         4 022420   022526 602000 4                  TNC     s:21225+456
         4 022421   023462 600000 4                  TZE     s:21374
         4 022422   000220 116007                    CMPQ    144,DL
         4 022423   022500 602000 4                  TNC     s:21225+434
         4 022424   023462 600000 4                  TZE     s:21374
         4 022425   000231 116007                    CMPQ    153,DL
         4 022426   022445 602000 4                  TNC     s:21225+407
         4 022427   023443 600000 4                  TZE     s:21294
         4 022430   000233 116007                    CMPQ    155,DL
         4 022431   022441 602000 4                  TNC     s:21225+403
         4 022432   023423 600000 4                  TZE     s:21235
         4 022433   000234 116007                    CMPQ    156,DL
         4 022434   025444 602000 4                  TNC     s:21933
         4 022435   023423 600000 4                  TZE     s:21235
         4 022436   000235 116007                    CMPQ    157,DL
PL6.E3A0      #001=ASL$DISP_ONE_PROFILE File=ASL$L_PRO.:E05TSI                   TUE 07/29/97 10:26 Page:618
         4 022437   025444 601000 4                  TNZ     s:21933
         4 022440   023423 710000 4                  TRA     s:21235
         4 022441   200161 235100                    LDA     NEXT,,AUTO
         4 022442   000232 115007                    CMPA    154,DL
         4 022443   025444 601000 4                  TNZ     s:21933
         4 022444   023443 710000 4                  TRA     s:21294
         4 022445   200161 236100                    LDQ     NEXT,,AUTO
         4 022446   000225 116007                    CMPQ    149,DL
         4 022447   022463 602000 4                  TNC     s:21225+421
         4 022450   024134 600000 4                  TZE     s:21604
         4 022451   000227 116007                    CMPQ    151,DL
         4 022452   022457 602000 4                  TNC     s:21225+417
         4 022453   024130 600000 4                  TZE     s:21601
         4 022454   000230 116007                    CMPQ    152,DL
         4 022455   025444 601000 4                  TNZ     s:21933
         4 022456   024357 710000 4                  TRA     s:21681
         4 022457   200161 235100                    LDA     NEXT,,AUTO
         4 022460   000226 115007                    CMPA    150,DL
         4 022461   025444 601000 4                  TNZ     s:21933
         4 022462   024237 710000 4                  TRA     s:21641
         4 022463   200161 236100                    LDQ     NEXT,,AUTO
         4 022464   000222 116007                    CMPQ    146,DL
         4 022465   022475 602000 4                  TNC     s:21225+431
         4 022466   023462 600000 4                  TZE     s:21374
         4 022467   000223 116007                    CMPQ    147,DL
         4 022470   025444 602000 4                  TNC     s:21933
         4 022471   024124 600000 4                  TZE     s:21598
         4 022472   000224 116007                    CMPQ    148,DL
         4 022473   025444 601000 4                  TNZ     s:21933
         4 022474   024540 710000 4                  TRA     s:21739
         4 022475   000221 116007                    CMPQ    145,DL
         4 022476   025444 601000 4                  TNZ     s:21933
         4 022477   023462 710000 4                  TRA     s:21374
         4 022500   000215 116007                    CMPQ    141,DL
         4 022501   022511 602000 4                  TNC     s:21225+443
         4 022502   023462 600000 4                  TZE     s:21374
         4 022503   000216 116007                    CMPQ    142,DL
PL6.E3A0      #001=ASL$DISP_ONE_PROFILE File=ASL$L_PRO.:E05TSI                   TUE 07/29/97 10:26 Page:619
         4 022504   025444 602000 4                  TNC     s:21933
         4 022505   023462 600000 4                  TZE     s:21374
         4 022506   000217 116007                    CMPQ    143,DL
         4 022507   025444 601000 4                  TNZ     s:21933
         4 022510   023462 710000 4                  TRA     s:21374
         4 022511   000213 116007                    CMPQ    139,DL
         4 022512   022517 602000 4                  TNC     s:21225+449
         4 022513   023462 600000 4                  TZE     s:21374
         4 022514   000214 116007                    CMPQ    140,DL
         4 022515   025444 601000 4                  TNZ     s:21933
         4 022516   023462 710000 4                  TRA     s:21374
         4 022517   000212 116007                    CMPQ    138,DL
         4 022520   022523 602000 4                  TNC     s:21225+453
         4 022521   023462 600000 4                  TZE     s:21374
         4 022522   025444 710000 4                  TRA     s:21933
         4 022523   000211 116007                    CMPQ    137,DL
         4 022524   025444 601000 4                  TNZ     s:21933
         4 022525   023462 710000 4                  TRA     s:21374
         4 022526   000166 116007                    CMPQ    118,DL
         4 022527   022620 602000 4                  TNC     s:21225+514
         4 022530   023467 600000 4                  TZE     s:21384
         4 022531   000175 116007                    CMPQ    125,DL
         4 022532   022576 602000 4                  TNC     s:21225+496
         4 022533   023462 600000 4                  TZE     s:21374
         4 022534   000202 116007                    CMPQ    130,DL
         4 022535   022560 602000 4                  TNC     s:21225+482
         4 022536   023462 600000 4                  TZE     s:21374
         4 022537   000206 116007                    CMPQ    134,DL
         4 022540   022545 602000 4                  TNC     s:21225+471
         4 022541   023462 600000 4                  TZE     s:21374
         4 022542   000207 116007                    CMPQ    135,DL
         4 022543   025444 601000 4                  TNZ     s:21933
         4 022544   023462 710000 4                  TRA     s:21374
         4 022545   200161 236100                    LDQ     NEXT,,AUTO
         4 022546   000204 116007                    CMPQ    132,DL
         4 022547   022554 602000 4                  TNC     s:21225+478
         4 022550   024227 600000 4                  TZE     s:21635
PL6.E3A0      #001=ASL$DISP_ONE_PROFILE File=ASL$L_PRO.:E05TSI                   TUE 07/29/97 10:26 Page:620
         4 022551   000205 116007                    CMPQ    133,DL
         4 022552   025444 601000 4                  TNZ     s:21933
         4 022553   024722 710000 4                  TRA     s:21792
         4 022554   200161 235100                    LDA     NEXT,,AUTO
         4 022555   000203 115007                    CMPA    131,DL
         4 022556   025444 601000 4                  TNZ     s:21933
         4 022557   024106 710000 4                  TRA     s:21590
         4 022560   200161 236100                    LDQ     NEXT,,AUTO
         4 022561   000200 116007                    CMPQ    128,DL
         4 022562   022567 602000 4                  TNC     s:21225+489
         4 022563   023462 600000 4                  TZE     s:21374
         4 022564   000201 116007                    CMPQ    129,DL
         4 022565   025444 601000 4                  TNZ     s:21933
         4 022566   024112 710000 4                  TRA     s:21593
         4 022567   000177 116007                    CMPQ    127,DL
         4 022570   022573 602000 4                  TNC     s:21225+493
         4 022571   024076 600000 4                  TZE     s:21584
         4 022572   025444 710000 4                  TRA     s:21933
         4 022573   000176 116007                    CMPQ    126,DL
         4 022574   025444 601000 4                  TNZ     s:21933
         4 022575   025020 710000 4                  TRA     s:21821
         4 022576   000172 116007                    CMPQ    122,DL
         4 022577   022607 602000 4                  TNC     s:21225+505
         4 022600   023450 600000 4                  TZE     s:21329
         4 022601   000173 116007                    CMPQ    123,DL
         4 022602   025444 602000 4                  TNC     s:21933
         4 022603   023450 600000 4                  TZE     s:21329
         4 022604   000174 116007                    CMPQ    124,DL
         4 022605   025444 601000 4                  TNZ     s:21933
         4 022606   023462 710000 4                  TRA     s:21374
         4 022607   000170 116007                    CMPQ    120,DL
         4 022610   022615 602000 4                  TNC     s:21225+511
         4 022611   023467 600000 4                  TZE     s:21384
         4 022612   000171 116007                    CMPQ    121,DL
         4 022613   025444 601000 4                  TNZ     s:21933
         4 022614   023467 710000 4                  TRA     s:21384
         4 022615   000167 116007                    CMPQ    119,DL
PL6.E3A0      #001=ASL$DISP_ONE_PROFILE File=ASL$L_PRO.:E05TSI                   TUE 07/29/97 10:26 Page:621
         4 022616   025444 601000 4                  TNZ     s:21933
         4 022617   024671 710000 4                  TRA     s:21781
         4 022620   000161 116007                    CMPQ    113,DL
         4 022621   022640 602000 4                  TNC     s:21225+530
         4 022622   023436 600000 4                  TZE     s:21289
         4 022623   000164 116007                    CMPQ    116,DL
         4 022624   022631 602000 4                  TNC     s:21225+523
         4 022625   023436 600000 4                  TZE     s:21289
         4 022626   000165 116007                    CMPQ    117,DL
         4 022627   025444 601000 4                  TNZ     s:21933
         4 022630   023436 710000 4                  TRA     s:21289
         4 022631   200161 236100                    LDQ     NEXT,,AUTO
         4 022632   000162 116007                    CMPQ    114,DL
         4 022633   025444 602000 4                  TNC     s:21933
         4 022634   023744 600000 4                  TZE     s:21535
         4 022635   000163 116007                    CMPQ    115,DL
         4 022636   025444 601000 4                  TNZ     s:21933
         4 022637   024726 710000 4                  TRA     s:21795
         4 022640   000155 116007                    CMPQ    109,DL
         4 022641   022655 602000 4                  TNC     s:21225+543
         4 022642   023467 600000 4                  TZE     s:21384
         4 022643   000157 116007                    CMPQ    111,DL
         4 022644   022651 602000 4                  TNC     s:21225+539
         4 022645   023467 600000 4                  TZE     s:21384
         4 022646   000160 116007                    CMPQ    112,DL
         4 022647   025444 601000 4                  TNZ     s:21933
         4 022650   024371 710000 4                  TRA     s:21686
         4 022651   200161 235100                    LDA     NEXT,,AUTO
         4 022652   000156 115007                    CMPA    110,DL
         4 022653   025444 601000 4                  TNZ     s:21933
         4 022654   023467 710000 4                  TRA     s:21384
         4 022655   200161 236100                    LDQ     NEXT,,AUTO
         4 022656   000153 116007                    CMPQ    107,DL
         4 022657   022664 602000 4                  TNC     s:21225+550
         4 022660   023436 600000 4                  TZE     s:21289
         4 022661   000154 116007                    CMPQ    108,DL
         4 022662   025444 601000 4                  TNZ     s:21933
PL6.E3A0      #001=ASL$DISP_ONE_PROFILE File=ASL$L_PRO.:E05TSI                   TUE 07/29/97 10:26 Page:622
         4 022663   024026 710000 4                  TRA     s:21559
         4 022664   000152 116007                    CMPQ    106,DL
         4 022665   025444 601000 4                  TNZ     s:21933
         4 022666   023436 710000 4                  TRA     s:21289
         4 022667   000047 116007                    CMPQ    39,DL
         4 022670   023237 602000 4                  TNC     s:21225+785
         4 022671   023431 600000 4                  TZE     s:21273
         4 022672   000101 116007                    CMPQ    65,DL
         4 022673   023107 602000 4                  TNC     s:21225+697
         4 022674   023462 600000 4                  TZE     s:21374
         4 022675   000130 116007                    CMPQ    88,DL
         4 022676   022767 602000 4                  TNC     s:21225+617
         4 022677   023436 600000 4                  TZE     s:21289
         4 022700   000140 116007                    CMPQ    96,DL
         4 022701   022736 602000 4                  TNC     s:21225+592
         4 022702   024217 600000 4                  TZE     s:21629
         4 022703   000144 116007                    CMPQ    100,DL
         4 022704   022723 602000 4                  TNC     s:21225+581
         4 022705   024477 600000 4                  TZE     s:21721
         4 022706   000146 116007                    CMPQ    102,DL
         4 022707   022717 602000 4                  TNC     s:21225+577
         4 022710   024772 600000 4                  TZE     s:21809
         4 022711   000147 116007                    CMPQ    103,DL
         4 022712   025444 602000 4                  TNC     s:21933
         4 022713   024776 600000 4                  TZE     s:21812
         4 022714   000150 116007                    CMPQ    104,DL
         4 022715   025444 601000 4                  TNZ     s:21933
         4 022716   025144 710000 4                  TRA     s:21857
         4 022717   200161 235100                    LDA     NEXT,,AUTO
         4 022720   000145 115007                    CMPA    101,DL
         4 022721   025444 601000 4                  TNZ     s:21933
         4 022722   024503 710000 4                  TRA     s:21724
         4 022723   200161 236100                    LDQ     NEXT,,AUTO
         4 022724   000142 116007                    CMPQ    98,DL
         4 022725   022732 602000 4                  TNC     s:21225+588
         4 022726   024403 600000 4                  TZE     s:21691
         4 022727   000143 116007                    CMPQ    99,DL
PL6.E3A0      #001=ASL$DISP_ONE_PROFILE File=ASL$L_PRO.:E05TSI                   TUE 07/29/97 10:26 Page:623
         4 022730   025444 601000 4                  TNZ     s:21933
         4 022731   024461 710000 4                  TRA     s:21713
         4 022732   200161 235100                    LDA     NEXT,,AUTO
         4 022733   000141 115007                    CMPA    97,DL
         4 022734   025444 601000 4                  TNZ     s:21933
         4 022735   024223 710000 4                  TRA     s:21632
         4 022736   200161 236100                    LDQ     NEXT,,AUTO
         4 022737   000134 116007                    CMPQ    92,DL
         4 022740   022754 602000 4                  TNC     s:21225+606
         4 022741   024066 600000 4                  TZE     s:21578
         4 022742   000136 116007                    CMPQ    94,DL
         4 022743   022750 602000 4                  TNC     s:21225+602
         4 022744   024102 600000 4                  TZE     s:21587
         4 022745   000137 116007                    CMPQ    95,DL
         4 022746   025444 601000 4                  TNZ     s:21933
         4 022747   024213 710000 4                  TRA     s:21626
         4 022750   200161 235100                    LDA     NEXT,,AUTO
         4 022751   000135 115007                    CMPA    93,DL
         4 022752   025444 601000 4                  TNZ     s:21933
         4 022753   024072 710000 4                  TRA     s:21581
         4 022754   200161 236100                    LDQ     NEXT,,AUTO
         4 022755   000132 116007                    CMPQ    90,DL
         4 022756   022763 602000 4                  TNC     s:21225+613
         4 022757   024044 600000 4                  TZE     s:21567
         4 022760   000133 116007                    CMPQ    91,DL
         4 022761   025444 601000 4                  TNZ     s:21933
         4 022762   024050 710000 4                  TRA     s:21570
         4 022763   200161 235100                    LDA     NEXT,,AUTO
         4 022764   000131 115007                    CMPA    89,DL
         4 022765   025444 601000 4                  TNZ     s:21933
         4 022766   024040 710000 4                  TRA     s:21564
         4 022767   200161 236100                    LDQ     NEXT,,AUTO
         4 022770   000116 116007                    CMPQ    78,DL
         4 022771   023033 602000 4                  TNC     s:21225+653
         4 022772   024322 600000 4                  TZE     s:21667
         4 022773   000121 116007                    CMPQ    81,DL
         4 022774   023024 602000 4                  TNC     s:21225+646
PL6.E3A0      #001=ASL$DISP_ONE_PROFILE File=ASL$L_PRO.:E05TSI                   TUE 07/29/97 10:26 Page:624
         4 022775   023436 600000 4                  TZE     s:21289
         4 022776   000125 116007                    CMPQ    85,DL
         4 022777   023011 602000 4                  TNC     s:21225+635
         4 023000   024550 600000 4                  TZE     s:21745
         4 023001   000127 116007                    CMPQ    87,DL
         4 023002   023005 602000 4                  TNC     s:21225+631
         4 023003   023462 600000 4                  TZE     s:21374
         4 023004   025444 710000 4                  TRA     s:21933
         4 023005   200161 235100                    LDA     NEXT,,AUTO
         4 023006   000126 115007                    CMPA    86,DL
         4 023007   025444 601000 4                  TNZ     s:21933
         4 023010   024562 710000 4                  TRA     s:21750
         4 023011   200161 236100                    LDQ     NEXT,,AUTO
         4 023012   000123 116007                    CMPQ    83,DL
         4 023013   023020 602000 4                  TNC     s:21225+642
         4 023014   024140 600000 4                  TZE     s:21607
         4 023015   000124 116007                    CMPQ    84,DL
         4 023016   025444 601000 4                  TNZ     s:21933
         4 023017   024465 710000 4                  TRA     s:21716
         4 023020   200161 235100                    LDA     NEXT,,AUTO
         4 023021   000122 115007                    CMPA    82,DL
         4 023022   025444 601000 4                  TNZ     s:21933
         4 023023   024054 710000 4                  TRA     s:21573
         4 023024   200161 236100                    LDQ     NEXT,,AUTO
         4 023025   000117 116007                    CMPQ    79,DL
         4 023026   025444 602000 4                  TNC     s:21933
         4 023027   023756 600000 4                  TZE     s:21541
         4 023030   000120 116007                    CMPQ    80,DL
         4 023031   025444 601000 4                  TNZ     s:21933
         4 023032   023436 710000 4                  TRA     s:21289
         4 023033   200161 236100                    LDQ     NEXT,,AUTO
         4 023034   000106 116007                    CMPQ    70,DL
         4 023035   023067 602000 4                  TNC     s:21225+681
         4 023036   025172 600000 4                  TZE     s:21867
         4 023037   000112 116007                    CMPQ    74,DL
         4 023040   023054 602000 4                  TNC     s:21225+670
         4 023041   025302 600000 4                  TZE     s:21895
PL6.E3A0      #001=ASL$DISP_ONE_PROFILE File=ASL$L_PRO.:E05TSI                   TUE 07/29/97 10:26 Page:625
         4 023042   000114 116007                    CMPQ    76,DL
         4 023043   023050 602000 4                  TNC     s:21225+666
         4 023044   025346 600000 4                  TZE     s:21909
         4 023045   000115 116007                    CMPQ    77,DL
         4 023046   025444 601000 4                  TNZ     s:21933
         4 023047   025370 710000 4                  TRA     s:21916
         4 023050   200161 235100                    LDA     NEXT,,AUTO
         4 023051   000113 115007                    CMPA    75,DL
         4 023052   025444 601000 4                  TNZ     s:21933
         4 023053   025324 710000 4                  TRA     s:21902
         4 023054   200161 236100                    LDQ     NEXT,,AUTO
         4 023055   000110 116007                    CMPQ    72,DL
         4 023056   023063 602000 4                  TNC     s:21225+677
         4 023057   025236 600000 4                  TZE     s:21881
         4 023060   000111 116007                    CMPQ    73,DL
         4 023061   025444 601000 4                  TNZ     s:21933
         4 023062   025260 710000 4                  TRA     s:21888
         4 023063   200161 235100                    LDA     NEXT,,AUTO
         4 023064   000107 115007                    CMPA    71,DL
         4 023065   025444 601000 4                  TNZ     s:21933
         4 023066   025214 710000 4                  TRA     s:21874
         4 023067   200161 236100                    LDQ     NEXT,,AUTO
         4 023070   000104 116007                    CMPQ    68,DL
         4 023071   023076 602000 4                  TNC     s:21225+688
         4 023072   024243 600000 4                  TZE     s:21644
         4 023073   000105 116007                    CMPQ    69,DL
         4 023074   025444 601000 4                  TNZ     s:21933
         4 023075   025150 710000 4                  TRA     s:21860
         4 023076   200161 236100                    LDQ     NEXT,,AUTO
         4 023077   000103 116007                    CMPQ    67,DL
         4 023100   023103 602000 4                  TNC     s:21225+693
         4 023101   023722 600000 4                  TZE     s:21528
         4 023102   025444 710000 4                  TRA     s:21933
         4 023103   200161 235100                    LDA     NEXT,,AUTO
         4 023104   000102 115007                    CMPA    66,DL
         4 023105   025444 601000 4                  TNZ     s:21933
         4 023106   023462 710000 4                  TRA     s:21374
PL6.E3A0      #001=ASL$DISP_ONE_PROFILE File=ASL$L_PRO.:E05TSI                   TUE 07/29/97 10:26 Page:626
         4 023107   200161 236100                    LDQ     NEXT,,AUTO
         4 023110   000061 116007                    CMPQ    49,DL
         4 023111   023200 602000 4                  TNC     s:21225+754
         4 023112   023436 600000 4                  TZE     s:21289
         4 023113   000072 116007                    CMPQ    58,DL
         4 023114   023144 602000 4                  TNC     s:21225+726
         4 023115   023431 600000 4                  TZE     s:21273
         4 023116   000075 116007                    CMPQ    61,DL
         4 023117   023133 602000 4                  TNC     s:21225+717
         4 023120   023462 600000 4                  TZE     s:21374
         4 023121   000077 116007                    CMPQ    63,DL
         4 023122   023127 602000 4                  TNC     s:21225+713
         4 023123   023462 600000 4                  TZE     s:21374
         4 023124   000100 116007                    CMPQ    64,DL
         4 023125   025444 601000 4                  TNZ     s:21933
         4 023126   023462 710000 4                  TRA     s:21374
         4 023127   200161 235100                    LDA     NEXT,,AUTO
         4 023130   000076 115007                    CMPA    62,DL
         4 023131   025444 601000 4                  TNZ     s:21933
         4 023132   023462 710000 4                  TRA     s:21374
         4 023133   200161 236100                    LDQ     NEXT,,AUTO
         4 023134   000074 116007                    CMPQ    60,DL
         4 023135   023140 602000 4                  TNC     s:21225+722
         4 023136   023462 600000 4                  TZE     s:21374
         4 023137   025444 710000 4                  TRA     s:21933
         4 023140   200161 235100                    LDA     NEXT,,AUTO
         4 023141   000073 115007                    CMPA    59,DL
         4 023142   025444 601000 4                  TNZ     s:21933
         4 023143   025050 710000 4                  TRA     s:21834
         4 023144   200161 236100                    LDQ     NEXT,,AUTO
         4 023145   000065 116007                    CMPQ    53,DL
         4 023146   023165 602000 4                  TNC     s:21225+743
         4 023147   023455 600000 4                  TZE     s:21335
         4 023150   000070 116007                    CMPQ    56,DL
         4 023151   023156 602000 4                  TNC     s:21225+736
         4 023152   023450 600000 4                  TZE     s:21329
         4 023153   000071 116007                    CMPQ    57,DL
PL6.E3A0      #001=ASL$DISP_ONE_PROFILE File=ASL$L_PRO.:E05TSI                   TUE 07/29/97 10:26 Page:627
         4 023154   025444 601000 4                  TNZ     s:21933
         4 023155   023436 710000 4                  TRA     s:21289
         4 023156   200161 236100                    LDQ     NEXT,,AUTO
         4 023157   000066 116007                    CMPQ    54,DL
         4 023160   025444 602000 4                  TNC     s:21933
         4 023161   023455 600000 4                  TZE     s:21335
         4 023162   000067 116007                    CMPQ    55,DL
         4 023163   025444 601000 4                  TNZ     s:21933
         4 023164   024574 710000 4                  TRA     s:21755
         4 023165   200161 236100                    LDQ     NEXT,,AUTO
         4 023166   000063 116007                    CMPQ    51,DL
         4 023167   023174 602000 4                  TNC     s:21225+750
         4 023170   023455 600000 4                  TZE     s:21335
         4 023171   000064 116007                    CMPQ    52,DL
         4 023172   025444 601000 4                  TNZ     s:21933
         4 023173   023450 710000 4                  TRA     s:21329
         4 023174   200161 235100                    LDA     NEXT,,AUTO
         4 023175   000062 115007                    CMPA    50,DL
         4 023176   025444 601000 4                  TNZ     s:21933
         4 023177   024152 710000 4                  TRA     s:21612
         4 023200   200161 236100                    LDQ     NEXT,,AUTO
         4 023201   000052 116007                    CMPQ    42,DL
         4 023202   023230 602000 4                  TNC     s:21225+778
         4 023203   023431 600000 4                  TZE     s:21273
         4 023204   000055 116007                    CMPQ    45,DL
         4 023205   023221 602000 4                  TNC     s:21225+771
         4 023206   023431 600000 4                  TZE     s:21273
         4 023207   000057 116007                    CMPQ    47,DL
         4 023210   023215 602000 4                  TNC     s:21225+767
         4 023211   023672 600000 4                  TZE     s:21520
         4 023212   000060 116007                    CMPQ    48,DL
         4 023213   025444 601000 4                  TNZ     s:21933
         4 023214   023436 710000 4                  TRA     s:21289
         4 023215   200161 235100                    LDA     NEXT,,AUTO
         4 023216   000056 115007                    CMPA    46,DL
         4 023217   025444 601000 4                  TNZ     s:21933
         4 023220   023621 710000 4                  TRA     s:21504
PL6.E3A0      #001=ASL$DISP_ONE_PROFILE File=ASL$L_PRO.:E05TSI                   TUE 07/29/97 10:26 Page:628
         4 023221   200161 236100                    LDQ     NEXT,,AUTO
         4 023222   000053 116007                    CMPQ    43,DL
         4 023223   025444 602000 4                  TNC     s:21933
         4 023224   023450 600000 4                  TZE     s:21329
         4 023225   000054 116007                    CMPQ    44,DL
         4 023226   025444 601000 4                  TNZ     s:21933
         4 023227   023450 710000 4                  TRA     s:21329
         4 023230   000051 116007                    CMPQ    41,DL
         4 023231   023234 602000 4                  TNC     s:21225+782
         4 023232   023431 600000 4                  TZE     s:21273
         4 023233   025444 710000 4                  TRA     s:21933
         4 023234   000050 116007                    CMPQ    40,DL
         4 023235   025444 601000 4                  TNZ     s:21933
         4 023236   023431 710000 4                  TRA     s:21273
         4 023237   000022 116007                    CMPQ    18,DL
         4 023240   023336 602000 4                  TNC     s:21225+848
         4 023241   023431 600000 4                  TZE     s:21273
         4 023242   000037 116007                    CMPQ    31,DL
         4 023243   023274 602000 4                  TNC     s:21225+814
         4 023244   023431 600000 4                  TZE     s:21273
         4 023245   000043 116007                    CMPQ    35,DL
         4 023246   023262 602000 4                  TNC     s:21225+804
         4 023247   023431 600000 4                  TZE     s:21273
         4 023250   000045 116007                    CMPQ    37,DL
         4 023251   023256 602000 4                  TNC     s:21225+800
         4 023252   023431 600000 4                  TZE     s:21273
         4 023253   000046 116007                    CMPQ    38,DL
         4 023254   025444 601000 4                  TNZ     s:21933
         4 023255   023431 710000 4                  TRA     s:21273
         4 023256   200161 235100                    LDA     NEXT,,AUTO
         4 023257   000044 115007                    CMPA    36,DL
         4 023260   025444 601000 4                  TNZ     s:21933
         4 023261   023431 710000 4                  TRA     s:21273
         4 023262   200161 236100                    LDQ     NEXT,,AUTO
         4 023263   000041 116007                    CMPQ    33,DL
         4 023264   023271 602000 4                  TNC     s:21225+811
         4 023265   023450 600000 4                  TZE     s:21329
PL6.E3A0      #001=ASL$DISP_ONE_PROFILE File=ASL$L_PRO.:E05TSI                   TUE 07/29/97 10:26 Page:629
         4 023266   000042 116007                    CMPQ    34,DL
         4 023267   025444 601000 4                  TNZ     s:21933
         4 023270   023431 710000 4                  TRA     s:21273
         4 023271   000040 116007                    CMPQ    32,DL
         4 023272   025444 601000 4                  TNZ     s:21933
         4 023273   023450 710000 4                  TRA     s:21329
         4 023274   000031 116007                    CMPQ    25,DL
         4 023275   023316 602000 4                  TNC     s:21225+832
         4 023276   023431 600000 4                  TZE     s:21273
         4 023277   000035 116007                    CMPQ    29,DL
         4 023300   023305 602000 4                  TNC     s:21225+823
         4 023301   023431 600000 4                  TZE     s:21273
         4 023302   000036 116007                    CMPQ    30,DL
         4 023303   025444 601000 4                  TNZ     s:21933
         4 023304   023431 710000 4                  TRA     s:21273
         4 023305   000033 116007                    CMPQ    27,DL
         4 023306   023313 602000 4                  TNC     s:21225+829
         4 023307   023450 600000 4                  TZE     s:21329
         4 023310   000034 116007                    CMPQ    28,DL
         4 023311   025444 601000 4                  TNZ     s:21933
         4 023312   023431 710000 4                  TRA     s:21273
         4 023313   000032 116007                    CMPQ    26,DL
         4 023314   025444 601000 4                  TNZ     s:21933
         4 023315   023450 710000 4                  TRA     s:21329
         4 023316   000026 116007                    CMPQ    22,DL
         4 023317   023330 602000 4                  TNC     s:21225+842
         4 023320   023431 600000 4                  TZE     s:21273
         4 023321   000030 116007                    CMPQ    24,DL
         4 023322   023325 602000 4                  TNC     s:21225+839
         4 023323   023436 600000 4                  TZE     s:21289
         4 023324   025444 710000 4                  TRA     s:21933
         4 023325   000027 116007                    CMPQ    23,DL
         4 023326   025444 601000 4                  TNZ     s:21933
         4 023327   023450 710000 4                  TRA     s:21329
         4 023330   000023 116007                    CMPQ    19,DL
         4 023331   025444 602000 4                  TNC     s:21933
         4 023332   023450 600000 4                  TZE     s:21329
PL6.E3A0      #001=ASL$DISP_ONE_PROFILE File=ASL$L_PRO.:E05TSI                   TUE 07/29/97 10:26 Page:630
         4 023333   000025 116007                    CMPQ    21,DL
         4 023334   025444 601000 4                  TNZ     s:21933
         4 023335   023450 710000 4                  TRA     s:21329
         4 023336   000011 116007                    CMPQ    9,DL
         4 023337   023371 602000 4                  TNC     s:21225+875
         4 023340   023450 600000 4                  TZE     s:21329
         4 023341   000014 116007                    CMPQ    12,DL
         4 023342   023363 602000 4                  TNC     s:21225+869
         4 023343   023450 600000 4                  TZE     s:21329
         4 023344   000017 116007                    CMPQ    15,DL
         4 023345   023355 602000 4                  TNC     s:21225+863
         4 023346   023431 600000 4                  TZE     s:21273
         4 023347   000020 116007                    CMPQ    16,DL
         4 023350   025444 602000 4                  TNC     s:21933
         4 023351   023431 600000 4                  TZE     s:21273
         4 023352   000021 116007                    CMPQ    17,DL
         4 023353   025444 601000 4                  TNZ     s:21933
         4 023354   023431 710000 4                  TRA     s:21273
         4 023355   000015 116007                    CMPQ    13,DL
         4 023356   025444 602000 4                  TNC     s:21933
         4 023357   023450 600000 4                  TZE     s:21329
         4 023360   000016 116007                    CMPQ    14,DL
         4 023361   025444 601000 4                  TNZ     s:21933
         4 023362   023450 710000 4                  TRA     s:21329
         4 023363   000012 116007                    CMPQ    10,DL
         4 023364   025444 602000 4                  TNC     s:21933
         4 023365   023450 600000 4                  TZE     s:21329
         4 023366   000013 116007                    CMPQ    11,DL
         4 023367   025444 601000 4                  TNZ     s:21933
         4 023370   023450 710000 4                  TRA     s:21329
         4 023371   000004 116007                    CMPQ    4,DL
         4 023372   023410 602000 4                  TNC     s:21225+890
         4 023373   023450 600000 4                  TZE     s:21329
         4 023374   000006 116007                    CMPQ    6,DL
         4 023375   023405 602000 4                  TNC     s:21225+887
         4 023376   023450 600000 4                  TZE     s:21329
         4 023377   000007 116007                    CMPQ    7,DL
PL6.E3A0      #001=ASL$DISP_ONE_PROFILE File=ASL$L_PRO.:E05TSI                   TUE 07/29/97 10:26 Page:631
         4 023400   025444 602000 4                  TNC     s:21933
         4 023401   023462 600000 4                  TZE     s:21374
         4 023402   000010 116007                    CMPQ    8,DL
         4 023403   025444 601000 4                  TNZ     s:21933
         4 023404   023462 710000 4                  TRA     s:21374
         4 023405   000005 116007                    CMPQ    5,DL
         4 023406   025444 601000 4                  TNZ     s:21933
         4 023407   023450 710000 4                  TRA     s:21329
         4 023410   000002 116007                    CMPQ    2,DL
         4 023411   023416 602000 4                  TNC     s:21225+896
         4 023412   023431 600000 4                  TZE     s:21273
         4 023413   000003 116007                    CMPQ    3,DL
         4 023414   025444 601000 4                  TNZ     s:21933
         4 023415   023450 710000 4                  TRA     s:21329
         4 023416   000000 116003                    CMPQ    0,DU
         4 023417   023431 600000 4                  TZE     s:21273
         4 023420   000001 116007                    CMPQ    1,DL
         4 023421   025444 601000 4                  TNZ     s:21933
         4 023422   023450 710000 4                  TRA     s:21329

     3647    21226
     3648    21227    5            SELECT( 155 /* ABSGRPRND_NULL */,

     3649    21228    5                 156 /* ABSGRPRND_HIDDEN */,
     3650    21229    5                 157 /* ABSGRPRND_EMPHASIS */,
     3651    21230    5                 158 /* ABSGRPRND_INPUT */,
     3652    21231    5                 159 /* ABSGRPRND_OUTPUT */,
     3653    21232    5                 160 /* ABSGRPRND_ERROR */,
     3654    21233    5                 161 /* ABSGRPRND_WARNING */ );
     3655    21234
     3656    21235    5            KL_ABSGRPRND$ = ABSGRPRND$(NEXT-155 /* ABSGRPRND_NULL */+1);

  21235  4 023423   777714 236006 2                  LDQ     STRING-434,QL
         4 023424   000145 756000 2                  STQ     KL_ABSGRPRND$

     3657    21236    5            FMT_VEC ( 0 ) = VECTOR ( KL_ABSGRPRND$->KL$ABSGRPRND );

PL6.E3A0      #001=ASL$DISP_ONE_PROFILE File=ASL$L_PRO.:E05TSI                   TUE 07/29/97 10:26 Page:632
  21236  4 023425   777640 235007                    LDA     -96,DL
         4 023426   000000 755000 xsym               STA     FMT_VEC
         4 023427   000001 756000 xsym               STQ     FMT_VEC+1
         4 023430   025444 710000 4                  TRA     s:21933

     3658    21237
     3659    21238    5            SELECT ( 0 /* ACTONTRN */ ,

     3660    21239    5                 2 /* APLLCNRM */,
     3661    21240    5                 214 /* L_AUTOCURSOR */,
     3662    21241    5                 194 /* L_AUTOTABCLM */,
     3663    21242    5                 213 /* L_CURSORREAD */,
     3664    21243    5                 15 /* DISPINPUT */,
     3665    21244    5                 16 /* EDITOVR */,
     3666    21245    5                 17 /* FULLDUXPAPERTAPE */,
     3667    21246    5                 18 /* HALFDUXPAPERTAPE */,
     3668    21247    5                 192 /* L_HSCROLL */ ,
     3669    21248    5                 191 /* L_INSERTMODE */ ,
     3670    21249    5                 215 /* L_KEEPTYPAHD */,
     3671    21250    5                 22 /* LOWERCASE */,
     3672    21251    5                 189 /* L_MSGHALT */ ,
     3673    21252    5                 190 /* L_MSGLINE */ ,
     3674    21253    5                 25 /* NOOPTMIZ */,
     3675    21254    5                 28 /* OUTDISCARDPUT */,
     3676    21255    5                 29 /* PAGEHALT */,
     3677    21256    5                 167 /* PARKCURSOR */,
     3678    21257    5                 30 /* PARITYCHECK */,
     3679    21258    5                 31 /* PRINTHALT */,
     3680    21259    5                 34 /* RELPAGE */,
     3681    21260    5                 35 /* RETYPOVR */,
     3682    21261    5                 36 /* SCROLL */,
     3683    21262    5                 37 /* SENDBKSPACE */,
     3684    21263    5                 38 /* SIMPERF */,
     3685    21264    5                 58 /* SINPUTSZ */,
     3686    21265    5                 39 /* SPACEINSERT */,
     3687    21266    5                 40 /* TABRELATIVE */,
     3688    21267    5                 41 /* TABSIM */,
PL6.E3A0      #001=ASL$DISP_ONE_PROFILE File=ASL$L_PRO.:E05TSI                   TUE 07/29/97 10:26 Page:633
     3689    21268    5                 42 /* TRUNCATE */,
     3690    21269    5                 45 /* UPPERCASE */,
     3691    21270    5                 193 /* L_WORDWRAPCLM */,
     3692    21271    5                 164 /* WRAPPAGE */ );
     3693    21272
     3694    21273    5            FMT_VEC ( 0 ) = VECTOR ( TCTL$ -> VLP$TRMCTRL );

  21273  4 023431   000320 235000 5                  LDA     208
         4 023432   000133 236000 2                  LDQ     TCTL$
         4 023433   000000 755000 xsym               STA     FMT_VEC
         4 023434   000001 756000 xsym               STQ     FMT_VEC+1
         4 023435   025444 710000 4                  TRA     s:21933

     3695    21274
     3696    21275    5            SELECT ( 48 /* BLKRECS */,

     3697    21276    5                 49 /* DELAYS */ ,
     3698    21277    5                 80 /* EMCHR */,
     3699    21278    5                 105 /* ERRDUPBLK */,
     3700    21279    5                 107 /* INTERVAL */,
     3701    21280    5                 81 /* IRSCHR */,
     3702    21281    5                 88 /* LSTRECCTN */,
     3703    21282    5                 24 /* MULSTRM */,
     3704    21283    5                 117 /* PADSIGNON */,
     3705    21284    5                 57 /* RETRYS */,
     3706    21285    5                 106 /* RRR */,
     3707    21286    5                 113 /* SLC */,
     3708    21287    5                 116 /* SLCALLBLK */ );
     3709    21288
     3710    21289    5            FMT_VEC ( 0 ) = VECTOR ( TRMD$ -> KL$TRMD );

  21289  4 023436   000321 235000 5                  LDA     209
         4 023437   000140 236000 2                  LDQ     TRMD$
         4 023440   000000 755000 xsym               STA     FMT_VEC
         4 023441   000001 756000 xsym               STQ     FMT_VEC+1
         4 023442   025444 710000 4                  TRA     s:21933

PL6.E3A0      #001=ASL$DISP_ONE_PROFILE File=ASL$L_PRO.:E05TSI                   TUE 07/29/97 10:26 Page:634
     3711    21290
     3712    21291    5            SELECT ( 153 /* EWALT */ ,

     3713    21292    5                 154 /* SIOPT */ );
     3714    21293
     3715    21294    5            FMT_VEC ( 0 ) = VECTOR ( KL$3270 );

  21294  4 023443   777640 235007                    LDA     -96,DL
         4 023444   000144 236000 2                  LDQ     KL_3270$
         4 023445   000000 755000 xsym               STA     FMT_VEC
         4 023446   000001 756000 xsym               STQ     FMT_VEC+1
         4 023447   025444 710000 4                  TRA     s:21933

     3716    21295
     3717    21296    5            SELECT ( 1 /* APL */,

     3718    21297    5                 123 /* ATRSCRNPOS */ ,
     3719    21298    5                 3 /* AUTONL */,
     3720    21299    5                 4 /* BIN */,
     3721    21300    5                 5 /* BLANKERASES */,
     3722    21301    5                 6 /* CRISNL */,
     3723    21302    5                 9 /* CURSORUP */,
     3724    21303    5                 196 /* DCHMOVFLD */,
     3725    21304    5                 10 /* DEVICEBS */,
     3726    21305    5                 11 /* DEVICECR */,
     3727    21306    5                 12 /* DEVICELF */,
     3728    21307    5                 13 /* DEVPOSOPTS */,
     3729    21308    5                 14 /* DEVSCROLL */,
     3730    21309    5                 197 /* DSPHEIGHT */,
     3731    21310    5                 179 /* FF_FLUSH */,
     3732    21311    5                 216 /* L_FF_INCCR    */,
     3733    21312    5                 52 /* HEIGHT */,
     3734    21313    5                 19 /* INPUT */ ,
     3735    21314    5                 21 /* LFISNL */,
     3736    21315    5                 165 /* LIMBOCLM */,
     3737    21316    5                 166 /* LOCALECHO */,
     3738    21317    5                 23 /* LOWERCASEPRINTS */,
PL6.E3A0      #001=ASL$DISP_ONE_PROFILE File=ASL$L_PRO.:E05TSI                   TUE 07/29/97 10:26 Page:635
     3739    21318    5                 122 /* MAXATRS */ ,
     3740    21319    5                 217 /* L_MICROFPL   */,
     3741    21320    5                 56 /* MINREC */,
     3742    21321    5                 26 /* OPDTAB */,
     3743    21322    5                 27 /* OUTPUT */,
     3744    21323    5                 32 /* PRINTTYPE */,
     3745    21324    5                 33 /* PROGDTAB */,
     3746    21325    5                 163 /* SPCBFRPRT */,
     3747    21326    5                 43 /* TRUOVRPRT */,
     3748    21327    5                 44 /* TTYTYPE */ ) ;
     3749    21328
     3750    21329    5            FMT_VEC ( 0 ) = VECTOR ( TATR$ -> VLP$TRMATTR );

  21329  4 023450   000322 235000 5                  LDA     210
         4 023451   000134 236000 2                  LDQ     TATR$
         4 023452   000000 755000 xsym               STA     FMT_VEC
         4 023453   000001 756000 xsym               STQ     FMT_VEC+1
         4 023454   025444 710000 4                  TRA     s:21933

     3751    21330
     3752    21331    5            SELECT ( 51 /* FIRSTLINE */,

     3753    21332    5                 53 /* LENGTH */,
     3754    21333    5                 54 /* LIMBO */ );
     3755    21334
     3756    21335    5            FMT_VEC ( 0 ) = VECTOR ( PLTN$ -> VLP$PLATEN );

  21335  4 023455   000320 235000 5                  LDA     208
         4 023456   000135 236000 2                  LDQ     PLTN$
         4 023457   000000 755000 xsym               STA     FMT_VEC
         4 023460   000001 756000 xsym               STQ     FMT_VEC+1
         4 023461   025444 710000 4                  TRA     s:21933

     3757    21336
     3758    21337    5            SELECT ( 87 /* CUP_BIS */,

     3759    21338    5                 7 /* CUP_CLMFRS */ ,
PL6.E3A0      #001=ASL$DISP_ONE_PROFILE File=ASL$L_PRO.:E05TSI                   TUE 07/29/97 10:26 Page:636
     3760    21339    5                 8 /* CUP_CMP */ ,
     3761    21340    5                 125 /* DAQ_ALG */ ,
     3762    21341    5                 145 /* DAQINP_CHR */ ,
     3763    21342    5                 144 /* DAQPRT_CHR */ ,
     3764    21343    5                 146 /* DAQPRTGRD_CHR */ ,
     3765    21344    5                 130 /* DCLFLD_ALG */ ,
     3766    21345    5                 184 /* L_ED0DLTFLD */ ,
     3767    21346    5                 185 /* L_ED2DLTFLD */ ,
     3768    21347    5                 183 /* L_EL0DLTFLD */ ,
     3769    21348    5                 188 /* L_FRSCLMFLD */ ,
     3770    21349    5                 186 /* L_ICHRQRDCH */ ,
     3771    21350    5                 187 /* L_ILNRQRDLN */ ,
     3772    21351    5                 198 /* L_RGNSCROLL */ ,
     3773    21352    5                 136 /* SGRDCRINT_CHR */ ,
     3774    21353    5                 139 /* SGRFSTBLN_CHR */ ,
     3775    21354    5                 134 /* SGRHDN_CHR */ ,
     3776    21355    5                 128 /* SGRINCDAQ */ ,
     3777    21356    5                 135 /* SGRINCINT_CHR */ ,
     3778    21357    5                 142 /* SGRINP_CHR */ ,
     3779    21358    5                 141 /* SGRPRT_CHR */ ,
     3780    21359    5                 143 /* SGRPRTGRD_CHR */ ,
     3781    21360    5                 140 /* SGRRVRVID_CHR */ ,
     3782    21361    5                 138 /* SGRSLWBLN_CHR */ ,
     3783    21362    5                 137 /* SGRUNDSCR_CHR */ ,
     3784    21363    5                 124 /* SGR_ALG */ ,
     3785    21364    5                 182 /* L_SPCDLTFLD */ ,
     3786    21365    5                 61 /* TMNALG_AFTCR */ ,
     3787    21366    5                 60 /* TMNALG_AFTCUP */ ,
     3788    21367    5                 62 /* TMNALG_AFTHPA */ ,
     3789    21368    5                 63 /* TMNALG_AFTHT */ ,
     3790    21369    5                 64 /* TMNALG_AFTLF */ ,
     3791    21370    5                 65 /* TMNALG_BFRCR */ ,
     3792    21371    5                 66 /* TMNALG_BFRLF */ ,
     3793    21372    5                 162 /* TMNALG_FILCHR */ );
     3794    21373
     3795    21374    5            FMT_VEC ( 0 ) = VECTOR ( TCCHR$->KL$CCHR ) ;

PL6.E3A0      #001=ASL$DISP_ONE_PROFILE File=ASL$L_PRO.:E05TSI                   TUE 07/29/97 10:26 Page:637
  21374  4 023462   000323 235000 5                  LDA     211
         4 023463   000137 236000 2                  LDQ     TCCHR$
         4 023464   000000 755000 xsym               STA     FMT_VEC
         4 023465   000001 756000 xsym               STQ     FMT_VEC+1
         4 023466   025444 710000 4                  TRA     s:21933

     3796    21375
     3797    21376    5            SELECT ( 176 /* FAST SELECT ACCEPT */,

     3798    21377    5                 118 /* MAXWINDOW */ ,
     3799    21378    5                 121 /* RESTART_RETRYS */ ,
     3800    21379    5                 120 /* RESTART_TIM */ ,
     3801    21380    5                 110 /* RETRANSMISSIONS */,
     3802    21381    5                 109 /* TIMEOUT*/ ,
     3803    21382    5                 111 /* WINDOW */ ) ;
     3804    21383
     3805    21384    5            FMT_VEC ( 0 ) = VECTOR ( LINK$ -> KL$LINK );

  21384  4 023467   000003 235000 5                  LDA     3
         4 023470   000142 236000 2                  LDQ     LINK$
         4 023471   000000 755000 xsym               STA     FMT_VEC
         4 023472   000001 756000 xsym               STQ     FMT_VEC+1
         4 023473   025444 710000 4                  TRA     s:21933

     3806    21385
     3807    21386    5            SELECT ( 208 /* L_INT_TIM */ ,

     3808    21387    5                 171 /* RECEIVE WINDOW */ ,
     3809    21388    5                 207 /* L_DATA_RETRYS */ ,
     3810    21389    5                 206 /* L_DATA_TIM */ ,
     3811    21390    5                 205 /* L_CLEAR_RETRYS */ ,
     3812    21391    5                 204 /* L_CLEAR_TIM */ ,
     3813    21392    5                 212 /* L_CALL_DELAY */ ,
     3814    21393    5                 211 /* L_CALL_RETRYS */ ,
     3815    21394    5                 210 /* L_CALL_TIM */ ,
     3816    21395    5                 177 /* RESPONSE TIMER */ ,
     3817    21396    5                 172 /* RESPOND TO COMPLETE */ ,
PL6.E3A0      #001=ASL$DISP_ONE_PROFILE File=ASL$L_PRO.:E05TSI                   TUE 07/29/97 10:26 Page:638
     3818    21397    5                 203 /* L_RESET_RETRYS */ ,
     3819    21398    5                 202 /* L_RESET_TIM */ ,
     3820    21399    5                 175 /* SEND WINDOW */ );
     3821    21400
     3822    21401    5            FMT_VEC ( 0 ) = VECTOR ( VIRCIR$ -> KL$VIRCIR );

  21401  4 023474   000324 235000 5                  LDA     212
         4 023475   000143 236000 2                  LDQ     VIRCIR$
         4 023476   000000 755000 xsym               STA     FMT_VEC
         4 023477   000001 756000 xsym               STQ     FMT_VEC+1
         4 023500   025444 710000 4                  TRA     s:21933

     3823    21402
     3824    21403    5            SELECT( 242 /* L_GR_ESCAPE */ );

     3825    21404
     3826    21405    6            IF GRA$->GRA$REC.NUM_ESCAPES = 0 THEN DO;

  21405  4 023501   200142 470500                    LDP0    GRA$,,AUTO
         4 023502   000045 235100                    LDA     37,,PR0
         4 023503   023517 601000 4                  TNZ     s:21412

     3827    21406    6               FMT_BUF = '%\';

  21406  4 023504   040000 100400                    MLR     fill='040'O
         4 023505   004043 000002 3                  ADSC9   FUNKEY_NAMES+1592        cn=0,n=2
         4 023506   000000 000377 xsym               ADSC9   FMT_BUF                  cn=0,n=255

     3828    21407    6               FDS.FMT_.BOUND = 1;

  21407  4 023507   000000 236000 xsym               LDQ     FDS
         4 023510   177777 376007                    ANQ     65535,DL
         4 023511   200000 276007                    ORQ     65536,DL
         4 023512   000000 756000 xsym               STQ     FDS

     3829    21408    6               FDS.NVECS# = 0;

PL6.E3A0      #001=ASL$DISP_ONE_PROFILE File=ASL$L_PRO.:E05TSI                   TUE 07/29/97 10:26 Page:639
  21408  4 023513   000011 450000 xsym               STZ     FDS+9

     3830    21409    6               CLASS = 28 /* C_ALL_DONE */;

  21409  4 023514   000034 235007                    LDA     28,DL
         4 023515   200155 755100                    STA     CLASS,,AUTO

     3831    21410    6               END; /*  No GR_ESCAPE  */

  21410  4 023516   025444 710000 4                  TRA     s:21933

     3832    21411    6            ELSE DO;

     3833    21412    6               FMT_VEC ( 0 ) = VECTOR ( GRA_BUF );

  21412  4 023517   000326 237000 5                  LDAQ    214
         4 023520   000000 755000 xsym               STA     FMT_VEC
         4 023521   000001 756000 xsym               STQ     FMT_VEC+1

     3834    21413    6               FMT_BUF =
             21413              '%\%.37P%N(  GR_ESCAPE %.18D = %1.9N[HARDWARE%?SOFTWARE%]%0.9N[ %? %]%/%)%2P'
             21413                        ;

  21413  4 023522   040000 100400                    MLR     fill='040'O
         4 023523   004044 000114 3                  ADSC9   FUNKEY_NAMES+1593        cn=0,n=76
         4 023524   000000 000377 xsym               ADSC9   FMT_BUF                  cn=0,n=255

     3835    21414    6               FDS.FMT_.BOUND = 75;

  21414  4 023525   000000 236000 xsym               LDQ     FDS
         4 023526   177777 376007                    ANQ     65535,DL
         4 023527   000230 276000 5                  ORQ     152
         4 023530   000000 756000 xsym               STQ     FDS

     3836    21415    6               CLASS = 28 /* C_ALL_DONE */;

  21415  4 023531   000034 235007                    LDA     28,DL
PL6.E3A0      #001=ASL$DISP_ONE_PROFILE File=ASL$L_PRO.:E05TSI                   TUE 07/29/97 10:26 Page:640
         4 023532   200155 755100                    STA     CLASS,,AUTO

     3837    21416    6               END; /*  GR_ESCAPES  */

  21416  4 023533   025444 710000 4                  TRA     s:21933

     3838    21417
     3839    21418    5            SELECT( 219 /* L_GR_FPRG */ ) ;

     3840    21419
     3841    21420    6            IF DSEG1$->PRO$HDR.GR_FPRG = ' ' THEN DO;

  21420  4 023534   000000 470400 xsym               LDP0    DSEG1$
         4 023535   040000 106500                    CMPC    fill='040'O
         4 023536   000002 000100                    ADSC9   2,,PR0                   cn=0,n=64
         4 023537   000035 000001 xsym               ADSC9   B_VECTNIL+29             cn=0,n=1
         4 023540   023562 601000 4                  TNZ     s:21429

     3842    21421    6               FDS.NVECS# = 0;

  21421  4 023541   000011 450000 xsym               STZ     FDS+9

     3843    21422    6               POSITION = ' ';

  21422  4 023542   040100 100400                    MLR     fill='040'O
         4 023543   000035 000001 xsym               ADSC9   B_VECTNIL+29             cn=0,n=1
         4 023544   200264 000014                    ADSC9   POSITION,,AUTO           cn=0,n=12

     3844    21423    6               FORMAT = ';';

  21423  4 023545   040100 100400                    MLR     fill='040'O
         4 023546   000315 000001 5                  ADSC9   205                      cn=0,n=1
         4 023547   200164 000377                    ADSC9   FORMAT,,AUTO             cn=0,n=255

     3845    21424    6               FMT_BUF = '%\';

  21424  4 023550   040000 100400                    MLR     fill='040'O
PL6.E3A0      #001=ASL$DISP_ONE_PROFILE File=ASL$L_PRO.:E05TSI                   TUE 07/29/97 10:26 Page:641
         4 023551   004043 000002 3                  ADSC9   FUNKEY_NAMES+1592        cn=0,n=2
         4 023552   000000 000377 xsym               ADSC9   FMT_BUF                  cn=0,n=255

     3846    21425    6               FDS.FMT_.BOUND = 1;

  21425  4 023553   000000 236000 xsym               LDQ     FDS
         4 023554   177777 376007                    ANQ     65535,DL
         4 023555   200000 276007                    ORQ     65536,DL
         4 023556   000000 756000 xsym               STQ     FDS

     3847    21426    6               CLASS = 28 /* C_ALL_DONE */;

  21426  4 023557   000034 235007                    LDA     28,DL
         4 023560   200155 755100                    STA     CLASS,,AUTO

     3848    21427    6               END; /*  Blank .GR_FPRG  */

  21427  4 023561   025444 710000 4                  TRA     s:21933

     3849    21428    6            ELSE DO;

     3850    21429    6               POSITION = ' ';

  21429  4 023562   040100 100400                    MLR     fill='040'O
         4 023563   000035 000001 xsym               ADSC9   B_VECTNIL+29             cn=0,n=1
         4 023564   200264 000014                    ADSC9   POSITION,,AUTO           cn=0,n=12

     3851    21430    6               FORMAT = '%>A;';

  21430  4 023565   040100 100400                    MLR     fill='040'O
         4 023566   004067 000004 3                  ADSC9   FUNKEY_NAMES+1612        cn=0,n=4
         4 023567   200164 000377                    ADSC9   FORMAT,,AUTO             cn=0,n=255

     3852    21431    6               FMT_VEC( 0 ) = VECTOR( PHDR$->PRO$HDR.GR_FPRG ) ;

  21431  4 023570   000237 235000 5                  LDA     159
         4 023571   200141 236100                    LDQ     PHDR$,,AUTO
PL6.E3A0      #001=ASL$DISP_ONE_PROFILE File=ASL$L_PRO.:E05TSI                   TUE 07/29/97 10:26 Page:642
         4 023572   000002 036003                    ADLQ    2,DU
         4 023573   000000 755000 xsym               STA     FMT_VEC
         4 023574   000001 756000 xsym               STQ     FMT_VEC+1

     3853    21432    6               CLASS = 1 /* C_TEXT */;

  21432  4 023575   000001 235007                    LDA     1,DL
         4 023576   200155 755100                    STA     CLASS,,AUTO

     3854    21433    6               END;

  21433  4 023577   025444 710000 4                  TRA     s:21933

     3855    21434
     3856    21435    5            SELECT( 262 /* L_GR_OUTLEVEL */ ) ;

     3857    21436
     3858    21437    5            FDS.NVECS# = 1;

  21437  4 023600   000011 755000 xsym               STA     FDS+9

     3859    21438    5            POSITION = ' ';

  21438  4 023601   040100 100400                    MLR     fill='040'O
         4 023602   000035 000001 xsym               ADSC9   B_VECTNIL+29             cn=0,n=1
         4 023603   200264 000014                    ADSC9   POSITION,,AUTO           cn=0,n=12

     3860    21439    5            FORMAT = '%.6D%2P;';

  21439  4 023604   040100 100400                    MLR     fill='040'O
         4 023605   004070 000010 3                  ADSC9   FUNKEY_NAMES+1613        cn=0,n=8
         4 023606   200164 000377                    ADSC9   FORMAT,,AUTO             cn=0,n=255

     3861    21440    5            FMT_VEC ( 0 ) = VECTOR ( GRA_BUF );

  21440  4 023607   000326 237000 5                  LDAQ    214
         4 023610   000000 755000 xsym               STA     FMT_VEC
PL6.E3A0      #001=ASL$DISP_ONE_PROFILE File=ASL$L_PRO.:E05TSI                   TUE 07/29/97 10:26 Page:643
         4 023611   000001 756000 xsym               STQ     FMT_VEC+1

     3862    21441    5            CLASS = 28 /* C_ALL_DONE */;

  21441  4 023612   000034 235007                    LDA     28,DL
         4 023613   200155 755100                    STA     CLASS,,AUTO
         4 023614   025444 710000 4                  TRA     s:21933

     3863    21442
     3864    21443    5            SELECT ( 263 /* L_GR_BATCHMODE */,

     3865    21444    5                 274 /* L_GR_BKGRNDCOLOR */ ,
     3866    21445    5                 270 /* L_GR_BKGRNDTYPE */ ,
     3867    21446    5                 255 /* L_GR_CHSIZECOUNT */ ,
     3868    21447    5                 260 /* L_GR_CHSIZESUPPORT */ ,
     3869    21448    5                 275 /* L_GR_COLRACTION */ ,
     3870    21449    5                 273 /* L_GR_COLRMODEL */ ,
     3871    21450    5                 249 /* L_GR_COLRTABSIZE */ ,
     3872    21451    5                 269 /* L_GR_COLRTABTYPE */ ,
     3873    21452    5                 234 /* L_GR_DEPTHUSE */ ,
     3874    21453    5                 271 /* L_GR_DEVTYPE */ ,
     3875    21454    5                 265 /* L_GR_DIMLEVEL */ ,
     3876    21455    5                 268 /* L_GR_EDGETYPE */ ,
     3877    21456    5                 253 /* L_GR_FONTCOUNT */ ,
     3878    21457    5                 220 /* L_GR_GLBLCOLORS */ ,
     3879    21458    5                 221 /* L_GR_GLBLINTENSITIES */ ,
     3880    21459    5                 233 /* L_GR_HEIGHTUSE */ ,
     3881    21460    5                 264 /* L_GR_HIDDENLEVEL */ ,
     3882    21461    5                 261 /* L_GR_HIGHLTSUPPORT */ ,
     3883    21462    5                 272 /* L_GR_IMAGETRANS */ ,
     3884    21463    5                 276 /* L_GR_INTNACTION */ ,
     3885    21464    5                 259 /* L_GR_INTNSUPPORT */ ,
     3886    21465    5                 250 /* L_GR_INTNTABSIZE */ ,
     3887    21466    5                 251 /* L_GR_LINESTYLEHWCOUNT */ ,
     3888    21467    5                 277 /* L_GR_LINESTYLESWCOUNT */ ,
     3889    21468    5                 252 /* L_GR_LINEWCOUNT */ ,
     3890    21469    5                 257 /* L_GR_LINEWSUPPORT */ ,
PL6.E3A0      #001=ASL$DISP_ONE_PROFILE File=ASL$L_PRO.:E05TSI                   TUE 07/29/97 10:26 Page:644
     3891    21470    5                 256 /* L_GR_MARKERHWCOUNT */ ,
     3892    21471    5                 258 /* L_GR_MARKERSWCOUNT */ ,
     3893    21472    5                 241 /* L_GR_MAXCHSIZE */ ,
     3894    21473    5                 239 /* L_GR_MAXLINEWIDTH */ ,
     3895    21474    5                 222 /* L_GR_MAXPICK */ ,
     3896    21475    5                 240 /* L_GR_MINCHSIZE */ ,
     3897    21476    5                 238 /* L_GR_MINLINEWIDTH */ ,
     3898    21477    5                 229 /* L_GR_NDCDCHARS */ ,
     3899    21478    5                 235 /* L_GR_NDCDCURRENT */ ,
     3900    21479    5                 228 /* L_GR_NDCDSPACE */ ,
     3901    21480    5                 230 /* L_GR_NDCHCHARS */ ,
     3902    21481    5                 236 /* L_GR_NDCHCURRENT */ ,
     3903    21482    5                 227 /* L_GR_NDCHSPACE */ ,
     3904    21483    5                 231 /* L_GR_NDCWCHARS */ ,
     3905    21484    5                 237 /* L_GR_NDCWCURRENT */ ,
     3906    21485    5                 226 /* L_GR_NDCWSPACE */ ,
     3907    21486    5                 254 /* L_GR_PENHWCOUNT */ ,
     3908    21487    5                 278 /* L_GR_PENSWCOUNT */ ,
     3909    21488    5                 267 /* L_GR_PIXELTYPE */ ,
     3910    21489    5                 244 /* L_GR_POLYGONFILL */ ,
     3911    21490    5                 246 /* L_GR_POLYGONFILL_PATTERNED */ ,
     3912    21491    5                 245 /* L_GR_POLYGONFILL_SHADED */ ,
     3913    21492    5                 243 /* L_GR_VIEWSURFACE */ ,
     3914    21493    5                 266 /* L_GR_VIEWTYPE */ ,
     3915    21494    5                 232 /* L_GR_WIDTHUSE */ ,
     3916    21495    5                 247 /* L_GR_XPIXMAX */ ,
     3917    21496    5                 223 /* L_GR_XSPACE */ ,
     3918    21497    5                 248 /* L_GR_YPIXMAX */ ,
     3919    21498    5                 224 /* L_GR_YSPACE */ ,
     3920    21499    5                 225 /* L_GR_ZSPACE */ );
     3921    21500
     3922    21501    5            FMT_VEC ( 0 ) = VECTOR ( GRA_BUF );

  21501  4 023615   000326 237000 5                  LDAQ    214
         4 023616   000000 755000 xsym               STA     FMT_VEC
         4 023617   000001 756000 xsym               STQ     FMT_VEC+1
         4 023620   025444 710000 4                  TRA     s:21933
PL6.E3A0      #001=ASL$DISP_ONE_PROFILE File=ASL$L_PRO.:E05TSI                   TUE 07/29/97 10:26 Page:645

     3923    21502
     3924    21503    5            SELECT(46 /* AWIDTH */) ;

     3925    21504    5            IF TATR$ -> VLP$TRMATTR.WIDTH# = 255

  21504  4 023621   000134 470400 2                  LDP0    TATR$
         4 023622   003100 061500                    CSR     bolr='003'O
         4 023623   000001 610010                    BDSC    1,,PR0                   by=3,bit=1,n=8
         4 023624   200366 000044                    BDSC    TEMP+4,,AUTO             by=0,bit=0,n=36
         4 023625   200366 236100                    LDQ     TEMP+4,,AUTO
         4 023626   000377 116007                    CMPQ    255,DL
         4 023627   023642 601000 4                  TNZ     s:21510
         4 023630   000000 066500                    CMPB    filb='0'B
         4 023631   000001 050001                    BDSC    1,,PR0                   by=0,bit=5,n=1
         4 023632   000002 000022 xsym               BDSC    B_VECTNIL+2              by=0,bit=0,n=18
         4 023633   023642 601000 4                  TNZ     s:21510

     3926    21505    6                 AND NOT TATR$ -> VLP$TRMATTR.EXTWID# THEN DO;

     3927    21506    6               FORMAT = 'DC;';

  21506  4 023634   040100 100400                    MLR     fill='040'O
         4 023635   004072 000003 3                  ADSC9   FUNKEY_NAMES+1615        cn=0,n=3
         4 023636   200164 000377                    ADSC9   FORMAT,,AUTO             cn=0,n=255

     3928    21507    6               CLASS = 28 /* C_ALL_DONE */;

  21507  4 023637   000034 235007                    LDA     28,DL
         4 023640   200155 755100                    STA     CLASS,,AUTO

     3929    21508    6               END;

  21508  4 023641   025444 710000 4                  TRA     s:21933

     3930    21509    6            ELSE DO;

PL6.E3A0      #001=ASL$DISP_ONE_PROFILE File=ASL$L_PRO.:E05TSI                   TUE 07/29/97 10:26 Page:646
     3931    21510    6               SBINS( 0 ) = TATR$ -> VLP$TRMATTR.WIDTH# ;

  21510  4 023642   003100 061500                    CSR     bolr='003'O
         4 023643   000001 610010                    BDSC    1,,PR0                   by=3,bit=1,n=8
         4 023644   200007 000044                    BDSC    SBINS,,AUTO              by=0,bit=0,n=36

     3932    21511    6               IF TATR$ -> VLP$TRMATTR.EXTWID#

  21511  4 023645   000000 066500                    CMPB    filb='0'B
         4 023646   000001 050001                    BDSC    1,,PR0                   by=0,bit=5,n=1
         4 023647   000002 000022 xsym               BDSC    B_VECTNIL+2              by=0,bit=0,n=18
         4 023650   023653 600000 4                  TZE     s:21514

     3933    21512    6               THEN
     3934    21513    6                  SBINS( 0 ) = SBINS( 0 ) + 254 ;

  21513  4 023651   000376 236007                    LDQ     254,DL
         4 023652   200007 056100                    ASQ     SBINS,,AUTO

     3935    21514    6               FMT_VEC ( 0 ) = VECTOR ( SBINS ( 0 ) ) ;

  21514  4 023653   777640 235007                    LDA     -96,DL
         4 023654   200366 452500                    STP2    TEMP+4,,AUTO
         4 023655   200366 236100                    LDQ     TEMP+4,,AUTO
         4 023656   000007 036003                    ADLQ    7,DU
         4 023657   000000 755000 xsym               STA     FMT_VEC
         4 023660   000001 756000 xsym               STQ     FMT_VEC+1

     3936    21515    6               CALL CONCAT (FORMAT,FMT_TABLE ( 12 /* C_SBIN */ ),';');

  21515  4 023661   040100 100400                    MLR     fill='040'O
         4 023662   000132 000036 3                  ADSC9   FMT_TABLE+90             cn=0,n=30
         4 023663   200164 000036                    ADSC9   FORMAT,,AUTO             cn=0,n=30
         4 023664   040100 100400                    MLR     fill='040'O
         4 023665   000315 000001 5                  ADSC9   205                      cn=0,n=1
         4 023666   200173 400341                    ADSC9   I+2,,AUTO                cn=2,n=225

PL6.E3A0      #001=ASL$DISP_ONE_PROFILE File=ASL$L_PRO.:E05TSI                   TUE 07/29/97 10:26 Page:647
     3937    21516    6               CLASS = 12 /* C_SBIN */;

  21516  4 023667   000014 235007                    LDA     12,DL
         4 023670   200155 755100                    STA     CLASS,,AUTO

     3938    21517    6               END;

  21517  4 023671   025444 710000 4                  TRA     s:21933

     3939    21518
     3940    21519    5            SELECT(47 /* BLKBYTES */) ;

     3941    21520    5            SBINS( 0 ) = 0 ;

  21520  4 023672   200007 450100                    STZ     SBINS,,AUTO

     3942    21521    5            SPLIT$ = ADDR(SBINS( 0 )) ;

  21521  4 023673   200007 630500                    EPPR0   SBINS,,AUTO
         4 023674   200143 450500                    STP0    SPLIT$,,AUTO

     3943    21522    5            KL$UBWORD.NUM = TRMD$ -> KL$TRMD.BLKBYTES# ;

  21522  4 023675   000140 471400 2                  LDP1    TRMD$
         4 023676   000100 100500                    MLR     fill='000'O
         4 023677   100000 400002                    ADSC9   0,,PR1                   cn=2,n=2
         4 023700   200005 400002                    ADSC9   KL$UBWORD,,AUTO          cn=2,n=2

     3944    21523    5            SPLIT$ -> KL$UWORD.T = KL$UBWORD.REPLACE.T ;

  21523  4 023701   200005 236100                    LDQ     KL$UBWORD,,AUTO
         4 023702   377000 376007                    ANQ     130560,DL
         4 023703   000001 772000                    QRL     1
         4 023704   000000 676100                    ERQ     0,,PR0
         4 023705   000033 376000 5                  ANQ     27
         4 023706   000000 656100                    ERSQ    0,,PR0

PL6.E3A0      #001=ASL$DISP_ONE_PROFILE File=ASL$L_PRO.:E05TSI                   TUE 07/29/97 10:26 Page:648
     3945    21524    5            SPLIT$ -> KL$UWORD.B = KL$UBWORD.REPLACE.B ;

  21524  4 023707   200005 236100                    LDQ     KL$UBWORD,,AUTO
         4 023710   000000 676100                    ERQ     0,,PR0
         4 023711   000377 376007                    ANQ     255,DL
         4 023712   000000 656100                    ERSQ    0,,PR0

     3946    21525    5            FMT_VEC ( 0 ) = VECTOR (SBINS ( 0 ));

  21525  4 023713   777640 235007                    LDA     -96,DL
         4 023714   200366 452500                    STP2    TEMP+4,,AUTO
         4 023715   200366 236100                    LDQ     TEMP+4,,AUTO
         4 023716   000007 036003                    ADLQ    7,DU
         4 023717   000000 755000 xsym               STA     FMT_VEC
         4 023720   000001 756000 xsym               STQ     FMT_VEC+1
         4 023721   025444 710000 4                  TRA     s:21933

     3947    21526
     3948    21527    5            SELECT(67 /* BS_TIM */) ;

     3949    21528    5            SBINS( 0 ) = 0 ;

  21528  4 023722   200007 450100                    STZ     SBINS,,AUTO

     3950    21529    5            SPLIT$ = ADDR(SBINS( 0 )) ;

  21529  4 023723   200007 630500                    EPPR0   SBINS,,AUTO
         4 023724   200143 450500                    STP0    SPLIT$,,AUTO

     3951    21530    5            KL$UBWORD.NUM = TCCHR$ -> KL$CCHR.BS_TIM ;

  21530  4 023725   000137 471400 2                  LDP1    TCCHR$
         4 023726   000100 100500                    MLR     fill='000'O
         4 023727   100002 400002                    ADSC9   2,,PR1                   cn=2,n=2
         4 023730   200005 400002                    ADSC9   KL$UBWORD,,AUTO          cn=2,n=2

     3952    21531    5            SPLIT$ -> KL$UWORD.T = KL$UBWORD.REPLACE.T ;
PL6.E3A0      #001=ASL$DISP_ONE_PROFILE File=ASL$L_PRO.:E05TSI                   TUE 07/29/97 10:26 Page:649

  21531  4 023731   200005 236100                    LDQ     KL$UBWORD,,AUTO
         4 023732   377000 376007                    ANQ     130560,DL
         4 023733   000001 772000                    QRL     1
         4 023734   000000 676100                    ERQ     0,,PR0
         4 023735   000033 376000 5                  ANQ     27
         4 023736   000000 656100                    ERSQ    0,,PR0

     3953    21532    5            SPLIT$ -> KL$UWORD.B = KL$UBWORD.REPLACE.B ;

  21532  4 023737   200005 236100                    LDQ     KL$UBWORD,,AUTO
         4 023740   000000 676100                    ERQ     0,,PR0
         4 023741   000377 376007                    ANQ     255,DL
         4 023742   000000 656100                    ERSQ    0,,PR0
         4 023743   025444 710000 4                  TRA     s:21933

     3954    21533
     3955    21534    5            SELECT(114 /* CALLS */);

     3956    21535    5            FMT_VEC ( 0 ) = VECTOR ( LINK$ -> KL$LINK );

  21535  4 023744   000003 235000 5                  LDA     3
         4 023745   000142 236000 2                  LDQ     LINK$
         4 023746   000000 755000 xsym               STA     FMT_VEC
         4 023747   000001 756000 xsym               STQ     FMT_VEC+1

     3957    21536    5            FORMAT = '%3.2N[ALL%0?NONE%1?X25%2?X29%]%2P;';

  21536  4 023750   040100 100400                    MLR     fill='040'O
         4 023751   004073 000042 3                  ADSC9   FUNKEY_NAMES+1616        cn=0,n=34
         4 023752   200164 000377                    ADSC9   FORMAT,,AUTO             cn=0,n=255

     3958    21537    5            CLASS = 28 /* C_ALL_DONE */;

  21537  4 023753   000034 235007                    LDA     28,DL
         4 023754   200155 755100                    STA     CLASS,,AUTO
         4 023755   025444 710000 4                  TRA     s:21933
PL6.E3A0      #001=ASL$DISP_ONE_PROFILE File=ASL$L_PRO.:E05TSI                   TUE 07/29/97 10:26 Page:650

     3959    21538
     3960    21539    5            SELECT ( 79 /* CHARSETNAME */ );

     3961    21540
     3962    21541    5            IF TATR$->VLP$TRMATTR.CHARSETNAME# = AS_BLANK THEN

  21541  4 023756   000134 470400 2                  LDP0    TATR$
         4 023757   040000 106500                    CMPC    fill='040'O
         4 023760   000003 000010                    ADSC9   3,,PR0                   cn=0,n=8
         4 023761   000000 000001 xsym               ADSC9   AS_BLANK                 cn=0,n=1
         4 023762   023767 601000 4                  TNZ     s:21544

     3963    21542    5               FMT_VEC( 0 ) = VECTOR(NONE_STR) ;

  21542  4 023763   000100 237000 5                  LDAQ    64
         4 023764   000000 755000 xsym               STA     FMT_VEC
         4 023765   000001 756000 xsym               STQ     FMT_VEC+1
         4 023766   025444 710000 4                  TRA     s:21933

     3964    21543    5            ELSE
     3965    21544    5               FMT_VEC( 0 ) = VECTOR ( TATR$->VLP$TRMATTR.CHARSETNAME#);

  21544  4 023767   000076 235000 5                  LDA     62
         4 023770   000134 236000 2                  LDQ     TATR$
         4 023771   000003 036003                    ADLQ    3,DU
         4 023772   000000 755000 xsym               STA     FMT_VEC
         4 023773   000001 756000 xsym               STQ     FMT_VEC+1
         4 023774   025444 710000 4                  TRA     s:21933

     3966    21545
     3967    21546    5            SELECT ( 200 /* L_CHA_INFO */ ) ;

     3968    21547
     3969    21548    6            IF DSEG1$ -> PRO$HDR.TTYP = %KLTY_LINK# THEN DO;

  21548  4 023775   000000 470400 xsym               LDP0    DSEG1$
PL6.E3A0      #001=ASL$DISP_ONE_PROFILE File=ASL$L_PRO.:E05TSI                   TUE 07/29/97 10:26 Page:651
         4 023776   000100 101500                    MRL     fill='000'O
         4 023777   000000 000001                    ADSC9   0,,PR0                   cn=0,n=1
         4 024000   200366 000004                    ADSC9   TEMP+4,,AUTO             cn=0,n=4
         4 024001   200366 236100                    LDQ     TEMP+4,,AUTO
         4 024002   000004 116007                    CMPQ    4,DL
         4 024003   024014 601000 4                  TNZ     s:21553

     3970    21549    6               FMT_VEC ( 0 ) = VECTOR ( LINK$ -> KL$LINK ) ;

  21549  4 024004   000003 235000 5                  LDA     3
         4 024005   000142 236000 2                  LDQ     LINK$
         4 024006   000000 755000 xsym               STA     FMT_VEC
         4 024007   000001 756000 xsym               STQ     FMT_VEC+1

     3971    21550    6               POSITION = '%0.0.1.1P';

  21550  4 024010   040100 100400                    MLR     fill='040'O
         4 024011   004104 000011 3                  ADSC9   FUNKEY_NAMES+1625        cn=0,n=9
         4 024012   200264 000014                    ADSC9   POSITION,,AUTO           cn=0,n=12

     3972    21551    6               END; /*  If link  */

  21551  4 024013   024023 710000 4                  TRA     s:21556

     3973    21552    6            ELSE DO;

     3974    21553    6               FMT_VEC ( 0 ) = VECTOR ( VIRCIR$ -> KL$VIRCIR );

  21553  4 024014   000324 235000 5                  LDA     212
         4 024015   000143 236000 2                  LDQ     VIRCIR$
         4 024016   000000 755000 xsym               STA     FMT_VEC
         4 024017   000001 756000 xsym               STQ     FMT_VEC+1

     3975    21554    6               POSITION = '%0.4.2.1P';

  21554  4 024020   040100 100400                    MLR     fill='040'O
         4 024021   004107 000011 3                  ADSC9   FUNKEY_NAMES+1628        cn=0,n=9
PL6.E3A0      #001=ASL$DISP_ONE_PROFILE File=ASL$L_PRO.:E05TSI                   TUE 07/29/97 10:26 Page:652
         4 024022   200264 000014                    ADSC9   POSITION,,AUTO           cn=0,n=12

     3976    21555    6               END; /*  If vircir  */

     3977    21556    5            CLASS = 2 /* C_YESNO */ ;

  21556  4 024023   000002 235007                    LDA     2,DL
         4 024024   200155 755100                    STA     CLASS,,AUTO
         4 024025   025444 710000 4                  TRA     s:21933

     3978    21557
     3979    21558    5            SELECT(108 /* COMPRESSION */);

     3980    21559    5            FMT_VEC ( 0 ) = VECTOR ( TRMD$ -> KL$TRMD );

  21559  4 024026   000321 235000 5                  LDA     209
         4 024027   000140 236000 2                  LDQ     TRMD$
         4 024030   000000 755000 xsym               STA     FMT_VEC
         4 024031   000001 756000 xsym               STQ     FMT_VEC+1

     3981    21560    5            FORMAT = '%3.6N[BLANKS%1?YES%0?NO%2?LINE%]%2P;';

  21560  4 024032   040100 100400                    MLR     fill='040'O
         4 024033   004112 000044 3                  ADSC9   FUNKEY_NAMES+1631        cn=0,n=36
         4 024034   200164 000377                    ADSC9   FORMAT,,AUTO             cn=0,n=255

     3982    21561    5            CLASS = 28 /* C_ALL_DONE */;

  21561  4 024035   000034 235007                    LDA     28,DL
         4 024036   200155 755100                    STA     CLASS,,AUTO
         4 024037   025444 710000 4                  TRA     s:21933

     3983    21562
     3984    21563    5            SELECT(89 /* CUB_CHR */) ;

     3985    21564    5            PTR$ =ADDR( TCCHR$->KL$CCHR.CUB_CHR) ;

PL6.E3A0      #001=ASL$DISP_ONE_PROFILE File=ASL$L_PRO.:E05TSI                   TUE 07/29/97 10:26 Page:653
  21564  4 024040   000137 236000 2                  LDQ     TCCHR$
         4 024041   000017 036003                    ADLQ    15,DU
         4 024042   200153 756100                    STQ     PTR$,,AUTO
         4 024043   025444 710000 4                  TRA     s:21933

     3986    21565
     3987    21566    5            SELECT(90 /* CUD_CHR */) ;

     3988    21567    5            PTR$ =ADDR( TCCHR$->KL$CCHR.CUD_CHR) ;

  21567  4 024044   000137 236000 2                  LDQ     TCCHR$
         4 024045   000146 036000 5                  ADLQ    102
         4 024046   200153 756100                    STQ     PTR$,,AUTO
         4 024047   025444 710000 4                  TRA     s:21933

     3989    21568
     3990    21569    5            SELECT(91 /* CUF_CHR */) ;

     3991    21570    5            PTR$ =ADDR( TCCHR$->KL$CCHR.CUF_CHR) ;

  21570  4 024050   000137 236000 2                  LDQ     TCCHR$
         4 024051   000147 036000 5                  ADLQ    103
         4 024052   200153 756100                    STQ     PTR$,,AUTO
         4 024053   025444 710000 4                  TRA     s:21933

     3992    21571
     3993    21572    5            SELECT(82 /* CUP_ALG */) ;

     3994    21573    5            FMT_VEC ( 0 ) = VECTOR ( TCCHR$->KL$CCHR ) ;

  21573  4 024054   000323 235000 5                  LDA     211
         4 024055   000137 236000 2                  LDQ     TCCHR$
         4 024056   000000 755000 xsym               STA     FMT_VEC
         4 024057   000001 756000 xsym               STQ     FMT_VEC+1

     3995    21574    5            FORMAT = '%1.9N:=[ANS%2?TBL%?%.#KD%]%2P;';

PL6.E3A0      #001=ASL$DISP_ONE_PROFILE File=ASL$L_PRO.:E05TSI                   TUE 07/29/97 10:26 Page:654
  21574  4 024060   040100 100400                    MLR     fill='040'O
         4 024061   004123 000036 3                  ADSC9   FUNKEY_NAMES+1640        cn=0,n=30
         4 024062   200164 000377                    ADSC9   FORMAT,,AUTO             cn=0,n=255

     3996    21575    5            CLASS = 28 /* C_ALL_DONE */;

  21575  4 024063   000034 235007                    LDA     28,DL
         4 024064   200155 755100                    STA     CLASS,,AUTO
         4 024065   025444 710000 4                  TRA     s:21933

     3997    21576
     3998    21577    5            SELECT(92 /* CUP_CHR */) ;

     3999    21578    5            PTR$ =ADDR( TCCHR$->KL$CCHR.CUP_CHR) ;

  21578  4 024066   000137 236000 2                  LDQ     TCCHR$
         4 024067   000150 036000 5                  ADLQ    104
         4 024070   200153 756100                    STQ     PTR$,,AUTO
         4 024071   025444 710000 4                  TRA     s:21933

     4000    21579
     4001    21580    5            SELECT(93 /* CUU_CHR */) ;

     4002    21581    5            PTR$ =ADDR( TCCHR$->KL$CCHR.CUU_CHR) ;

  21581  4 024072   000137 236000 2                  LDQ     TCCHR$
         4 024073   000151 036000 5                  ADLQ    105
         4 024074   200153 756100                    STQ     PTR$,,AUTO
         4 024075   025444 710000 4                  TRA     s:21933

     4003    21582
     4004    21583    5            SELECT( 127 /* DAQINTRO_CHR */ );

     4005    21584    5            PTR$ =ADDR( TCCHR$ -> KL$CCHR.DAQINTRO_CHR#) ;

  21584  4 024076   000137 236000 2                  LDQ     TCCHR$
         4 024077   000221 036000 5                  ADLQ    145
PL6.E3A0      #001=ASL$DISP_ONE_PROFILE File=ASL$L_PRO.:E05TSI                   TUE 07/29/97 10:26 Page:655
         4 024100   200153 756100                    STQ     PTR$,,AUTO
         4 024101   025444 710000 4                  TRA     s:21933

     4006    21585
     4007    21586    5            SELECT(94 /* DCH_CHR */) ;

     4008    21587    5            PTR$ =ADDR( TCCHR$->KL$CCHR.DCH_CHR) ;

  21587  4 024102   000137 236000 2                  LDQ     TCCHR$
         4 024103   000152 036000 5                  ADLQ    106
         4 024104   200153 756100                    STQ     PTR$,,AUTO
         4 024105   025444 710000 4                  TRA     s:21933

     4009    21588
     4010    21589    5            SELECT( 131 /* DCLFRM_CHR */ );

     4011    21590    5            PTR$ =ADDR( TCCHR$ -> KL$CCHR.DCLFRM_CHR#) ;

  21590  4 024106   000137 236000 2                  LDQ     TCCHR$
         4 024107   000022 036003                    ADLQ    18,DU
         4 024110   200153 756100                    STQ     PTR$,,AUTO
         4 024111   025444 710000 4                  TRA     s:21933

     4012    21591
     4013    21592    5            SELECT( 129 /* DFLTPRTMODE */ );

     4014    21593    5            FMT_VEC ( 0 ) = VECTOR ( TCCHR$->KL$CCHR ) ;

  21593  4 024112   000323 235000 5                  LDA     211
         4 024113   000137 236000 2                  LDQ     TCCHR$
         4 024114   000000 755000 xsym               STA     FMT_VEC
         4 024115   000001 756000 xsym               STQ     FMT_VEC+1

     4015    21594    5            FORMAT = '%1.1N[PROTECTED%0?UNPROTECTED%]%2P;';

  21594  4 024116   040100 100400                    MLR     fill='040'O
         4 024117   004133 000043 3                  ADSC9   FUNKEY_NAMES+1648        cn=0,n=35
PL6.E3A0      #001=ASL$DISP_ONE_PROFILE File=ASL$L_PRO.:E05TSI                   TUE 07/29/97 10:26 Page:656
         4 024120   200164 000377                    ADSC9   FORMAT,,AUTO             cn=0,n=255

     4016    21595    5            CLASS = 28 /* C_ALL_DONE */;

  21595  4 024121   000034 235007                    LDA     28,DL
         4 024122   200155 755100                    STA     CLASS,,AUTO
         4 024123   025444 710000 4                  TRA     s:21933

     4017    21596
     4018    21597    5            SELECT( 147 /* DLTALLFLDS_CHR */ );

     4019    21598    5            PTR$ =ADDR( TCCHR$ -> KL$CCHR.DLTALLFLDS_CHR#) ;

  21598  4 024124   000137 236000 2                  LDQ     TCCHR$
         4 024125   000230 036000 5                  ADLQ    152
         4 024126   200153 756100                    STQ     PTR$,,AUTO
         4 024127   025444 710000 4                  TRA     s:21933

     4020    21599
     4021    21600    5            SELECT( 151 /* DLTFLD_CHR */ );

     4022    21601    5            PTR$ =ADDR( TCCHR$ -> KL$CCHR.DLTFLD_CHR#) ;

  21601  4 024130   000137 236000 2                  LDQ     TCCHR$
         4 024131   000233 036000 5                  ADLQ    155
         4 024132   200153 756100                    STQ     PTR$,,AUTO
         4 024133   025444 710000 4                  TRA     s:21933

     4023    21602
     4024    21603    5            SELECT( 149 /* DLTLIN_CHR */ );

     4025    21604    5            PTR$ =ADDR( TCCHR$ -> KL$CCHR.DLTLIN_CHR#) ;

  21604  4 024134   000137 236000 2                  LDQ     TCCHR$
         4 024135   000231 036000 5                  ADLQ    153
         4 024136   200153 756100                    STQ     PTR$,,AUTO
         4 024137   025444 710000 4                  TRA     s:21933
PL6.E3A0      #001=ASL$DISP_ONE_PROFILE File=ASL$L_PRO.:E05TSI                   TUE 07/29/97 10:26 Page:657

     4026    21605
     4027    21606    5            SELECT(83 /* DVCFLWCTRALG */) ;

     4028    21607    5            FMT_VEC ( 0 ) = VECTOR ( TATR$->VLP$TRMATTR ) ;

  21607  4 024140   000322 235000 5                  LDA     210
         4 024141   000134 236000 2                  LDQ     TATR$
         4 024142   000000 755000 xsym               STA     FMT_VEC
         4 024143   000001 756000 xsym               STQ     FMT_VEC+1

     4029    21608    5            FORMAT = '%1.3N:=[ENQACK%2?ETXACK%3?DC1DC3%7?DC%?%.#KD%]%2P;';

  21608  4 024144   040100 100400                    MLR     fill='040'O
         4 024145   004144 000062 3                  ADSC9   FUNKEY_NAMES+1657        cn=0,n=50
         4 024146   200164 000377                    ADSC9   FORMAT,,AUTO             cn=0,n=255

     4030    21609    5            CLASS = 28 /* C_ALL_DONE */;

  21609  4 024147   000034 235007                    LDA     28,DL
         4 024150   200155 755100                    STA     CLASS,,AUTO
         4 024151   025444 710000 4                  TRA     s:21933

     4031    21610
     4032    21611    5            SELECT(50 /* DVCOTPBFRSIZ */) ;

     4033    21612    5            SBINS( 0 ) = 0 ;

  21612  4 024152   200007 450100                    STZ     SBINS,,AUTO

     4034    21613    5            SPLIT$ = ADDR(SBINS( 0 )) ;

  21613  4 024153   200007 630500                    EPPR0   SBINS,,AUTO
         4 024154   200143 450500                    STP0    SPLIT$,,AUTO

     4035    21614    5            IF PRO_TYP = ASL_3270_TYP

PL6.E3A0      #001=ASL$DISP_ONE_PROFILE File=ASL$L_PRO.:E05TSI                   TUE 07/29/97 10:26 Page:658
  21614  4 024155   000572 236000 2                  LDQ     PRO_TYP
         4 024156   000000 676000 xsym               ERQ     ASL_3270_TYP
         4 024157   777000 376003                    ANQ     -512,DU
         4 024160   024166 601000 4                  TNZ     s:21619

     4036    21615    6            THEN DO;

     4037    21616    6               KL$UBWORD.NUM = KL$3270.DVCBFRSIZ ;

  21616  4 024161   000144 471400 2                  LDP1    KL_3270$
         4 024162   000100 100500                    MLR     fill='000'O
         4 024163   100000 400002                    ADSC9   0,,PR1                   cn=2,n=2
         4 024164   200005 400002                    ADSC9   KL$UBWORD,,AUTO          cn=2,n=2

     4038    21617    6               END;

  21617  4 024165   024172 710000 4                  TRA     s:21621

     4039    21618    6            ELSE DO;

     4040    21619    6               KL$UBWORD.NUM = TCCHR$ -> KL$CCHR.DVCOTPBFRSIZ ;

  21619  4 024166   000137 471400 2                  LDP1    TCCHR$
         4 024167   000100 100500                    MLR     fill='000'O
         4 024170   100007 400002                    ADSC9   7,,PR1                   cn=2,n=2
         4 024171   200005 400002                    ADSC9   KL$UBWORD,,AUTO          cn=2,n=2

     4041    21620    6               END;

     4042    21621    5            SPLIT$ -> KL$UWORD.T = KL$UBWORD.REPLACE.T ;

  21621  4 024172   200005 236100                    LDQ     KL$UBWORD,,AUTO
         4 024173   377000 376007                    ANQ     130560,DL
         4 024174   000001 772000                    QRL     1
         4 024175   000000 676100                    ERQ     0,,PR0
         4 024176   000033 376000 5                  ANQ     27
         4 024177   000000 656100                    ERSQ    0,,PR0
PL6.E3A0      #001=ASL$DISP_ONE_PROFILE File=ASL$L_PRO.:E05TSI                   TUE 07/29/97 10:26 Page:659

     4043    21622    5            SPLIT$ -> KL$UWORD.B = KL$UBWORD.REPLACE.B ;

  21622  4 024200   200005 236100                    LDQ     KL$UBWORD,,AUTO
         4 024201   000000 676100                    ERQ     0,,PR0
         4 024202   000377 376007                    ANQ     255,DL
         4 024203   000000 656100                    ERSQ    0,,PR0

     4044    21623    5            FMT_VEC ( 0 ) = VECTOR (SBINS ( 0 ) ) ;

  21623  4 024204   777640 235007                    LDA     -96,DL
         4 024205   200366 452500                    STP2    TEMP+4,,AUTO
         4 024206   200366 236100                    LDQ     TEMP+4,,AUTO
         4 024207   000007 036003                    ADLQ    7,DU
         4 024210   000000 755000 xsym               STA     FMT_VEC
         4 024211   000001 756000 xsym               STQ     FMT_VEC+1
         4 024212   025444 710000 4                  TRA     s:21933

     4045    21624
     4046    21625    5            SELECT(95 /* ED0_CHR */) ;

     4047    21626    5            PTR$ =ADDR( TCCHR$->KL$CCHR.ED0_CHR) ;

  21626  4 024213   000137 236000 2                  LDQ     TCCHR$
         4 024214   000153 036000 5                  ADLQ    107
         4 024215   200153 756100                    STQ     PTR$,,AUTO
         4 024216   025444 710000 4                  TRA     s:21933

     4048    21627
     4049    21628    5            SELECT(96 /* ED2_CHR */) ;

     4050    21629    5            PTR$ =ADDR( TCCHR$->KL$CCHR.ED2_CHR) ;

  21629  4 024217   000137 236000 2                  LDQ     TCCHR$
         4 024220   000020 036003                    ADLQ    16,DU
         4 024221   200153 756100                    STQ     PTR$,,AUTO
         4 024222   025444 710000 4                  TRA     s:21933
PL6.E3A0      #001=ASL$DISP_ONE_PROFILE File=ASL$L_PRO.:E05TSI                   TUE 07/29/97 10:26 Page:660

     4051    21630
     4052    21631    5            SELECT(97 /* EL0_CHR */) ;

     4053    21632    5            PTR$ =ADDR( TCCHR$->KL$CCHR.EL0_CHR) ;

  21632  4 024223   000137 236000 2                  LDQ     TCCHR$
         4 024224   000154 036000 5                  ADLQ    108
         4 024225   200153 756100                    STQ     PTR$,,AUTO
         4 024226   025444 710000 4                  TRA     s:21933

     4054    21633
     4055    21634    5            SELECT( 132 /* ENDDCLFRM_CHR */ );

     4056    21635    5            PTR$ =ADDR( TCCHR$ -> KL$CCHR.ENDDCLFRM_CHR#) ;

  21635  4 024227   000137 236000 2                  LDQ     TCCHR$
         4 024230   000226 036000 5                  ADLQ    150
         4 024231   200153 756100                    STQ     PTR$,,AUTO
         4 024232   025444 710000 4                  TRA     s:21933

     4057    21636
     4058    21637    5            SELECT( 181 /* L_ENDMSGLIN_CHR */ );

     4059    21638    5            PTR$ =ADDR( TCCHR$ -> KL$CCHR.ENDMSGLIN_CHR#) ;

  21638  4 024233   000137 236000 2                  LDQ     TCCHR$
         4 024234   000024 036003                    ADLQ    20,DU
         4 024235   200153 756100                    STQ     PTR$,,AUTO
         4 024236   025444 710000 4                  TRA     s:21933

     4060    21639
     4061    21640    5            SELECT( 150 /* ERASEFLD_CHR */ );

     4062    21641    5            PTR$ =ADDR( TCCHR$ -> KL$CCHR.ERASEFLD_CHR#) ;

  21641  4 024237   000137 236000 2                  LDQ     TCCHR$
PL6.E3A0      #001=ASL$DISP_ONE_PROFILE File=ASL$L_PRO.:E05TSI                   TUE 07/29/97 10:26 Page:661
         4 024240   000232 036000 5                  ADLQ    154
         4 024241   200153 756100                    STQ     PTR$,,AUTO
         4 024242   025444 710000 4                  TRA     s:21933

     4063    21642
     4064    21643    5            SELECT(68 /* ERSTIM */) ;

     4065    21644    5            SBINS( 0 ) = 0 ;

  21644  4 024243   200007 450100                    STZ     SBINS,,AUTO

     4066    21645    5            SPLIT$ = ADDR(SBINS( 0 )) ;

  21645  4 024244   200007 630500                    EPPR0   SBINS,,AUTO
         4 024245   200143 450500                    STP0    SPLIT$,,AUTO

     4067    21646    5            KL$UBWORD.NUM = TCCHR$ -> KL$CCHR.ERSTIM ;

  21646  4 024246   000137 471400 2                  LDP1    TCCHR$
         4 024247   000100 100500                    MLR     fill='000'O
         4 024250   100003 000002                    ADSC9   3,,PR1                   cn=0,n=2
         4 024251   200005 400002                    ADSC9   KL$UBWORD,,AUTO          cn=2,n=2

     4068    21647    5            SPLIT$ -> KL$UWORD.T = KL$UBWORD.REPLACE.T ;

  21647  4 024252   200005 236100                    LDQ     KL$UBWORD,,AUTO
         4 024253   377000 376007                    ANQ     130560,DL
         4 024254   000001 772000                    QRL     1
         4 024255   000000 676100                    ERQ     0,,PR0
         4 024256   000033 376000 5                  ANQ     27
         4 024257   000000 656100                    ERSQ    0,,PR0

     4069    21648    5            SPLIT$ -> KL$UWORD.B = KL$UBWORD.REPLACE.B ;

  21648  4 024260   200005 236100                    LDQ     KL$UBWORD,,AUTO
         4 024261   000000 676100                    ERQ     0,,PR0
         4 024262   000377 376007                    ANQ     255,DL
PL6.E3A0      #001=ASL$DISP_ONE_PROFILE File=ASL$L_PRO.:E05TSI                   TUE 07/29/97 10:26 Page:662
         4 024263   000000 656100                    ERSQ    0,,PR0
         4 024264   025444 710000 4                  TRA     s:21933

     4070    21649
     4071    21650    5            SELECT ( 199 /* L_EXT_SEQ */ ) ;

     4072    21651
     4073    21652    6            IF DSEG1$ -> PRO$HDR.TTYP = %KLTY_LINK# THEN DO;

  21652  4 024265   000000 470400 xsym               LDP0    DSEG1$
         4 024266   000100 101500                    MRL     fill='000'O
         4 024267   000000 000001                    ADSC9   0,,PR0                   cn=0,n=1
         4 024270   200366 000004                    ADSC9   TEMP+4,,AUTO             cn=0,n=4
         4 024271   200366 236100                    LDQ     TEMP+4,,AUTO
         4 024272   000004 116007                    CMPQ    4,DL
         4 024273   024304 601000 4                  TNZ     s:21657

     4074    21653    6               FMT_VEC ( 0 ) = VECTOR ( LINK$ -> KL$LINK );

  21653  4 024274   000003 235000 5                  LDA     3
         4 024275   000142 236000 2                  LDQ     LINK$
         4 024276   000000 755000 xsym               STA     FMT_VEC
         4 024277   000001 756000 xsym               STQ     FMT_VEC+1

     4075    21654    6               POSITION = '%0.0.2.1P';

  21654  4 024300   040100 100400                    MLR     fill='040'O
         4 024301   004161 000011 3                  ADSC9   FUNKEY_NAMES+1670        cn=0,n=9
         4 024302   200264 000014                    ADSC9   POSITION,,AUTO           cn=0,n=12

     4076    21655    6               END; /* If link  */

  21655  4 024303   024313 710000 4                  TRA     s:21660

     4077    21656    6            ELSE DO;

     4078    21657    6               FMT_VEC ( 0 ) = VECTOR ( VIRCIR$ -> KL$VIRCIR );
PL6.E3A0      #001=ASL$DISP_ONE_PROFILE File=ASL$L_PRO.:E05TSI                   TUE 07/29/97 10:26 Page:663

  21657  4 024304   000324 235000 5                  LDA     212
         4 024305   000143 236000 2                  LDQ     VIRCIR$
         4 024306   000000 755000 xsym               STA     FMT_VEC
         4 024307   000001 756000 xsym               STQ     FMT_VEC+1

     4079    21658    6               POSITION = '%0.4.0.1P';

  21658  4 024310   040100 100400                    MLR     fill='040'O
         4 024311   004164 000011 3                  ADSC9   FUNKEY_NAMES+1673        cn=0,n=9
         4 024312   200264 000014                    ADSC9   POSITION,,AUTO           cn=0,n=12

     4080    21659    6               END; /* If vircir  */

     4081    21660    5            CLASS = 2 /* C_YESNO */ ;

  21660  4 024313   000002 235007                    LDA     2,DL
         4 024314   200155 755100                    STA     CLASS,,AUTO
         4 024315   025444 710000 4                  TRA     s:21933

     4082    21661
     4083    21662    5            SELECT(178 /* L_EXTSRD_CHR */) ;

     4084    21663    5            PTR$ =ADDR( TCCHR$->KL$CCHR.EXTSRD_CHR#) ;

  21663  4 024316   000137 236000 2                  LDQ     TCCHR$
         4 024317   000236 036000 5                  ADLQ    158
         4 024320   200153 756100                    STQ     PTR$,,AUTO
         4 024321   025444 710000 4                  TRA     s:21933

     4085    21664
     4086    21665    5            SELECT ( 78 /* FCNTBL */ );

     4087    21666
     4088    21667    6            IF TATR$->VLP$TRMATTR.FCNTBL# = ' ' THEN DO;

  21667  4 024322   000134 470400 2                  LDP0    TATR$
PL6.E3A0      #001=ASL$DISP_ONE_PROFILE File=ASL$L_PRO.:E05TSI                   TUE 07/29/97 10:26 Page:664
         4 024323   040000 106500                    CMPC    fill='040'O
         4 024324   000005 000010                    ADSC9   5,,PR0                   cn=0,n=8
         4 024325   000035 000001 xsym               ADSC9   B_VECTNIL+29             cn=0,n=1
         4 024326   024341 601000 4                  TNZ     s:21674

     4089    21668    6               FDS.NVECS# = 0;

  21668  4 024327   000011 450000 xsym               STZ     FDS+9

     4090    21669    6               POSITION = ' ';

  21669  4 024330   040100 100400                    MLR     fill='040'O
         4 024331   000035 000001 xsym               ADSC9   B_VECTNIL+29             cn=0,n=1
         4 024332   200264 000014                    ADSC9   POSITION,,AUTO           cn=0,n=12

     4091    21670    6               FORMAT = 'NONE;';

  21670  4 024333   040100 100400                    MLR     fill='040'O
         4 024334   004167 000005 3                  ADSC9   FUNKEY_NAMES+1676        cn=0,n=5
         4 024335   200164 000377                    ADSC9   FORMAT,,AUTO             cn=0,n=255

     4092    21671    6               CLASS = 28 /* C_ALL_DONE */;

  21671  4 024336   000034 235007                    LDA     28,DL
         4 024337   200155 755100                    STA     CLASS,,AUTO

     4093    21672    6               END; /*  Blank fcntbl  */

  21672  4 024340   025444 710000 4                  TRA     s:21933

     4094    21673    6            ELSE DO;

     4095    21674    6               POSITION = ' ';

  21674  4 024341   040100 100400                    MLR     fill='040'O
         4 024342   000035 000001 xsym               ADSC9   B_VECTNIL+29             cn=0,n=1
         4 024343   200264 000014                    ADSC9   POSITION,,AUTO           cn=0,n=12
PL6.E3A0      #001=ASL$DISP_ONE_PROFILE File=ASL$L_PRO.:E05TSI                   TUE 07/29/97 10:26 Page:665

     4096    21675    6               FORMAT = '%>A;';

  21675  4 024344   040100 100400                    MLR     fill='040'O
         4 024345   004067 000004 3                  ADSC9   FUNKEY_NAMES+1612        cn=0,n=4
         4 024346   200164 000377                    ADSC9   FORMAT,,AUTO             cn=0,n=255

     4097    21676    6               FMT_VEC ( 0 ) = VECTOR ( TATR$->VLP$TRMATTR.FCNTBL#);

  21676  4 024347   000076 235000 5                  LDA     62
         4 024350   000134 236000 2                  LDQ     TATR$
         4 024351   000005 036003                    ADLQ    5,DU
         4 024352   000000 755000 xsym               STA     FMT_VEC
         4 024353   000001 756000 xsym               STQ     FMT_VEC+1

     4098    21677    6               CLASS = 1 /* C_TEXT */;

  21677  4 024354   000001 235007                    LDA     1,DL
         4 024355   200155 755100                    STA     CLASS,,AUTO

     4099    21678    6               END;

  21678  4 024356   025444 710000 4                  TRA     s:21933

     4100    21679
     4101    21680    5            SELECT( 152 /* FLDTRM */ );

     4102    21681    5            FMT_VEC ( 0 ) = VECTOR ( TATR$ -> VLP$TRMATTR );

  21681  4 024357   000322 235000 5                  LDA     210
         4 024360   000134 236000 2                  LDQ     TATR$
         4 024361   000000 755000 xsym               STA     FMT_VEC
         4 024362   000001 756000 xsym               STQ     FMT_VEC+1

     4103    21682    5            FORMAT = '%2.2N[PAGE%0?LINE%1?DC%]%2P;';

  21682  4 024363   040100 100400                    MLR     fill='040'O
PL6.E3A0      #001=ASL$DISP_ONE_PROFILE File=ASL$L_PRO.:E05TSI                   TUE 07/29/97 10:26 Page:666
         4 024364   004171 000034 3                  ADSC9   FUNKEY_NAMES+1678        cn=0,n=28
         4 024365   200164 000377                    ADSC9   FORMAT,,AUTO             cn=0,n=255

     4104    21683    5            CLASS = 28 /* C_ALL_DONE */;

  21683  4 024366   000034 235007                    LDA     28,DL
         4 024367   200155 755100                    STA     CLASS,,AUTO
         4 024370   025444 710000 4                  TRA     s:21933

     4105    21684
     4106    21685    5            SELECT ( 112 /* FRAME */ );

     4107    21686    5            FMT_VEC ( 0 ) = VECTOR ( LINK$ -> KL$LINK );

  21686  4 024371   000003 235000 5                  LDA     3
         4 024372   000142 236000 2                  LDQ     LINK$
         4 024373   000000 755000 xsym               STA     FMT_VEC
         4 024374   000001 756000 xsym               STQ     FMT_VEC+1

     4108    21687    5            FORMAT = '%0.4N[128%1?256%2?512%3?1024%4?2048%5?4096%??%]%2P;';

  21687  4 024375   040100 100400                    MLR     fill='040'O
         4 024376   004200 000063 3                  ADSC9   FUNKEY_NAMES+1685        cn=0,n=51
         4 024377   200164 000377                    ADSC9   FORMAT,,AUTO             cn=0,n=255

     4109    21688    5            CLASS = 28 /* C_ALL_DONE */;

  21688  4 024400   000034 235007                    LDA     28,DL
         4 024401   200155 755100                    STA     CLASS,,AUTO
         4 024402   025444 710000 4                  TRA     s:21933

     4110    21689
     4111    21690    5            SELECT(98 /* FRMFED_CHR */) ;

     4112    21691    5            IF PRO_TYP = ASL_3270_TYP

  21691  4 024403   000572 236000 2                  LDQ     PRO_TYP
PL6.E3A0      #001=ASL$DISP_ONE_PROFILE File=ASL$L_PRO.:E05TSI                   TUE 07/29/97 10:26 Page:667
         4 024404   000000 676000 xsym               ERQ     ASL_3270_TYP
         4 024405   777000 376003                    ANQ     -512,DU
         4 024406   024427 601000 4                  TNZ     s:21699

     4113    21692    6            THEN DO;

     4114    21693    6               FMT_VEC ( 0 ) = VECTOR ( KL$3270 ) ;

  21693  4 024407   777640 235007                    LDA     -96,DL
         4 024410   000144 236000 2                  LDQ     KL_3270$
         4 024411   000000 755000 xsym               STA     FMT_VEC
         4 024412   000001 756000 xsym               STQ     FMT_VEC+1

     4115    21694    6               CLASS = 2 /* C_YESNO */ ;

  21694  4 024413   000002 235007                    LDA     2,DL
         4 024414   200155 755100                    STA     CLASS,,AUTO

     4116    21695    6               POSITION = '%0.0.0.4P';

  21695  4 024415   040100 100400                    MLR     fill='040'O
         4 024416   004215 000011 3                  ADSC9   FUNKEY_NAMES+1698        cn=0,n=9
         4 024417   200264 000014                    ADSC9   POSITION,,AUTO           cn=0,n=12

     4117    21696    6               CALL CONCAT (FORMAT,FMT_TABLE ( 2 /* C_YESNO */ ),';');

  21696  4 024420   040100 100400                    MLR     fill='040'O
         4 024421   000017 000036 3                  ADSC9   FMT_TABLE+15             cn=0,n=30
         4 024422   200164 000036                    ADSC9   FORMAT,,AUTO             cn=0,n=30
         4 024423   040100 100400                    MLR     fill='040'O
         4 024424   000315 000001 5                  ADSC9   205                      cn=0,n=1
         4 024425   200173 400341                    ADSC9   I+2,,AUTO                cn=2,n=225

     4118    21697    6               END; /* If 3270  */

  21697  4 024426   025444 710000 4                  TRA     s:21933

PL6.E3A0      #001=ASL$DISP_ONE_PROFILE File=ASL$L_PRO.:E05TSI                   TUE 07/29/97 10:26 Page:668
     4119    21698    6            ELSE DO;

     4120    21699    6               FMT_VEC ( 0 ) = VECTOR ( TCCHR$->KL$CCHR ) ;

  21699  4 024427   000323 235000 5                  LDA     211
         4 024430   000137 236000 2                  LDQ     TCCHR$
         4 024431   000000 755000 xsym               STA     FMT_VEC
         4 024432   000001 756000 xsym               STQ     FMT_VEC+1

     4121    21700    6               PTR$ =ADDR( TCCHR$->KL$CCHR.FRMFED_CHR) ;

  21700  4 024433   000137 236000 2                  LDQ     TCCHR$
         4 024434   000155 036000 5                  ADLQ    109
         4 024435   200153 756100                    STQ     PTR$,,AUTO

     4122    21701    6               FORMAT = ';';

  21701  4 024436   040100 100400                    MLR     fill='040'O
         4 024437   000315 000001 5                  ADSC9   205                      cn=0,n=1
         4 024440   200164 000377                    ADSC9   FORMAT,,AUTO             cn=0,n=255

     4123    21702    6               CLASS = 15 /*C_HEX_LIST */ ;

  21702  4 024441   000017 235007                    LDA     15,DL
         4 024442   200155 755100                    STA     CLASS,,AUTO

     4124    21703    6               END; /* Not 3270  */

  21703  4 024443   025444 710000 4                  TRA     s:21933

     4125    21704
     4126    21705    5            SELECT(279 /* L_FUNCTION_KEY */);

     4127    21706    5            CALL LIST_FUNKEY_DEFS;

  21706  4 024444   017500 701000 4                  TSX1    LIST_FUNKEY_DEFS
         4 024445   000000 011000                    NOP     0
PL6.E3A0      #001=ASL$DISP_ONE_PROFILE File=ASL$L_PRO.:E05TSI                   TUE 07/29/97 10:26 Page:669

     4128    21707    5            FMT_BUF = '     END';

  21707  4 024446   040000 100400                    MLR     fill='040'O
         4 024447   004220 000010 3                  ADSC9   FUNKEY_NAMES+1701        cn=0,n=8
         4 024450   000000 000377 xsym               ADSC9   FMT_BUF                  cn=0,n=255

     4129    21708    5            FDS.FMT_.BOUND = 8;

  21708  4 024451   000000 236000 xsym               LDQ     FDS
         4 024452   177777 376007                    ANQ     65535,DL
         4 024453   000002 276003                    ORQ     2,DU
         4 024454   000000 756000 xsym               STQ     FDS

     4130    21709    5            FDS.NVECS# = 0;

  21709  4 024455   000011 450000 xsym               STZ     FDS+9

     4131    21710    5            CLASS = 28 /* C_ALL_DONE */;

  21710  4 024456   000034 235007                    LDA     28,DL
         4 024457   200155 755100                    STA     CLASS,,AUTO
         4 024460   025444 710000 4                  TRA     s:21933

     4132    21711
     4133    21712    5            SELECT(99 /* HOM_CHR */) ;

     4134    21713    5            PTR$ =ADDR( TCCHR$->KL$CCHR.HOM_CHR) ;

  21713  4 024461   000137 236000 2                  LDQ     TCCHR$
         4 024462   000156 036000 5                  ADLQ    110
         4 024463   200153 756100                    STQ     PTR$,,AUTO
         4 024464   025444 710000 4                  TRA     s:21933

     4135    21714
     4136    21715    5            SELECT(84 /* HPA_ALG */) ;

PL6.E3A0      #001=ASL$DISP_ONE_PROFILE File=ASL$L_PRO.:E05TSI                   TUE 07/29/97 10:26 Page:670
     4137    21716    5            FMT_VEC ( 0 ) = VECTOR ( TCCHR$->KL$CCHR ) ;

  21716  4 024465   000323 235000 5                  LDA     211
         4 024466   000137 236000 2                  LDQ     TCCHR$
         4 024467   000000 755000 xsym               STA     FMT_VEC
         4 024470   000001 756000 xsym               STQ     FMT_VEC+1

     4138    21717    5            FORMAT = '%1.9N:=[ANS%2?DBL%3?NEC%4?CHA%?%.#KD%]%2P;';

  21717  4 024471   040100 100400                    MLR     fill='040'O
         4 024472   004222 000052 3                  ADSC9   FUNKEY_NAMES+1703        cn=0,n=42
         4 024473   200164 000377                    ADSC9   FORMAT,,AUTO             cn=0,n=255

     4139    21718    5            CLASS = 28 /* C_ALL_DONE */;

  21718  4 024474   000034 235007                    LDA     28,DL
         4 024475   200155 755100                    STA     CLASS,,AUTO
         4 024476   025444 710000 4                  TRA     s:21933

     4140    21719
     4141    21720    5            SELECT(100 /* HTS_CHR */) ;

     4142    21721    5            PTR$ =ADDR( TCCHR$->KL$CCHR.HTS_CHR) ;

  21721  4 024477   000137 236000 2                  LDQ     TCCHR$
         4 024500   000157 036000 5                  ADLQ    111
         4 024501   200153 756100                    STQ     PTR$,,AUTO
         4 024502   025444 710000 4                  TRA     s:21933

     4143    21722
     4144    21723    5            SELECT(101 /* ICH_CHR */) ;

     4145    21724    5            PTR$ =ADDR( TCCHR$->KL$CCHR.ICH_CHR) ;

  21724  4 024503   000137 236000 2                  LDQ     TCCHR$
         4 024504   000160 036000 5                  ADLQ    112
         4 024505   200153 756100                    STQ     PTR$,,AUTO
PL6.E3A0      #001=ASL$DISP_ONE_PROFILE File=ASL$L_PRO.:E05TSI                   TUE 07/29/97 10:26 Page:671
         4 024506   025444 710000 4                  TRA     s:21933

     4146    21725
     4147    21726    5            SELECT ( 209 /* L_IDLE_TIM */ ) ;

     4148    21727
     4149    21728    6            IF DSEG1$ -> PRO$HDR.TTYP = %KLTY_LINK# THEN DO;

  21728  4 024507   000000 470400 xsym               LDP0    DSEG1$
         4 024510   000100 101500                    MRL     fill='000'O
         4 024511   000000 000001                    ADSC9   0,,PR0                   cn=0,n=1
         4 024512   200366 000004                    ADSC9   TEMP+4,,AUTO             cn=0,n=4
         4 024513   200366 236100                    LDQ     TEMP+4,,AUTO
         4 024514   000004 116007                    CMPQ    4,DL
         4 024515   024526 601000 4                  TNZ     s:21733

     4150    21729    6               FMT_VEC ( 0 ) = VECTOR ( LINK$ -> KL$LINK );

  21729  4 024516   000003 235000 5                  LDA     3
         4 024517   000142 236000 2                  LDQ     LINK$
         4 024520   000000 755000 xsym               STA     FMT_VEC
         4 024521   000001 756000 xsym               STQ     FMT_VEC+1

     4151    21730    6               POSITION = '%0.2.0.0P';

  21730  4 024522   040100 100400                    MLR     fill='040'O
         4 024523   004235 000011 3                  ADSC9   FUNKEY_NAMES+1714        cn=0,n=9
         4 024524   200264 000014                    ADSC9   POSITION,,AUTO           cn=0,n=12

     4152    21731    6               END; /* If link  */

  21731  4 024525   024535 710000 4                  TRA     s:21736

     4153    21732    6            ELSE DO;

     4154    21733    6               FMT_VEC ( 0 ) = VECTOR ( VIRCIR$ -> KL$VIRCIR );

PL6.E3A0      #001=ASL$DISP_ONE_PROFILE File=ASL$L_PRO.:E05TSI                   TUE 07/29/97 10:26 Page:672
  21733  4 024526   000324 235000 5                  LDA     212
         4 024527   000143 236000 2                  LDQ     VIRCIR$
         4 024530   000000 755000 xsym               STA     FMT_VEC
         4 024531   000001 756000 xsym               STQ     FMT_VEC+1

     4155    21734    6               POSITION = '%0.2.1.0P';

  21734  4 024532   040100 100400                    MLR     fill='040'O
         4 024533   004240 000011 3                  ADSC9   FUNKEY_NAMES+1717        cn=0,n=9
         4 024534   200264 000014                    ADSC9   POSITION,,AUTO           cn=0,n=12

     4156    21735    6               END; /* If vircir  */

     4157    21736    5            CLASS = 10 /* C_BYTE_UBIN */ ;

  21736  4 024535   000012 235007                    LDA     10,DL
         4 024536   200155 755100                    STA     CLASS,,AUTO
         4 024537   025444 710000 4                  TRA     s:21933

     4158    21737
     4159    21738    5            SELECT( 148 /* INSLIN_CHR */ );

     4160    21739    5            PTR$ =ADDR( TCCHR$ -> KL$CCHR.INSLIN_CHR#) ;

  21739  4 024540   000137 236000 2                  LDQ     TCCHR$
         4 024541   000023 036003                    ADLQ    19,DU
         4 024542   200153 756100                    STQ     PTR$,,AUTO
         4 024543   025444 710000 4                  TRA     s:21933

     4161    21740
     4162    21741    5            SELECT( 180 /* L_MSGLIN_CHR */ ) ;

     4163    21742    5            PTR$ =ADDR( TCCHR$ -> KL$CCHR.MSGLIN_CHR#) ;

  21742  4 024544   000137 236000 2                  LDQ     TCCHR$
         4 024545   000240 036000 5                  ADLQ    160
         4 024546   200153 756100                    STQ     PTR$,,AUTO
PL6.E3A0      #001=ASL$DISP_ONE_PROFILE File=ASL$L_PRO.:E05TSI                   TUE 07/29/97 10:26 Page:673
         4 024547   025444 710000 4                  TRA     s:21933

     4164    21743
     4165    21744    5            SELECT(85 /* PARITY */) ;

     4166    21745    5            FMT_VEC ( 0 ) = VECTOR ( TATR$ -> VLP$TRMATTR );

  21745  4 024550   000322 235000 5                  LDA     210
         4 024551   000134 236000 2                  LDQ     TATR$
         4 024552   000000 755000 xsym               STA     FMT_VEC
         4 024553   000001 756000 xsym               STQ     FMT_VEC+1

     4167    21746    5            FORMAT = '%0.3N[NONE%1?ODD%2?EVEN%3?ONE%4?ZERO%7?DC%??%]%2P;';

  21746  4 024554   040100 100400                    MLR     fill='040'O
         4 024555   004243 000062 3                  ADSC9   FUNKEY_NAMES+1720        cn=0,n=50
         4 024556   200164 000377                    ADSC9   FORMAT,,AUTO             cn=0,n=255

     4168    21747    5            CLASS = 28 /* C_ALL_DONE */;

  21747  4 024557   000034 235007                    LDA     28,DL
         4 024560   200155 755100                    STA     CLASS,,AUTO
         4 024561   025444 710000 4                  TRA     s:21933

     4169    21748
     4170    21749    5            SELECT(86 /* PROTYP */) ;

     4171    21750    5            FMT_VEC ( 0 ) = VECTOR ( TRMD$ -> KL$TRMD );

  21750  4 024562   000321 235000 5                  LDA     209
         4 024563   000140 236000 2                  LDQ     TRMD$
         4 024564   000000 755000 xsym               STA     FMT_VEC
         4 024565   000001 756000 xsym               STQ     FMT_VEC+1

     4172    21751    5            FORMAT = '%1.9N[2780%2?3780%3?HASP%4?POLLED%5?3275%6?HIP%7?NJE%??%]%2P;';

  21751  4 024566   040100 100400                    MLR     fill='040'O
PL6.E3A0      #001=ASL$DISP_ONE_PROFILE File=ASL$L_PRO.:E05TSI                   TUE 07/29/97 10:26 Page:674
         4 024567   004260 000075 3                  ADSC9   FUNKEY_NAMES+1733        cn=0,n=61
         4 024570   200164 000377                    ADSC9   FORMAT,,AUTO             cn=0,n=255

     4173    21752    5            CLASS = 28 /* C_ALL_DONE */;

  21752  4 024571   000034 235007                    LDA     28,DL
         4 024572   200155 755100                    STA     CLASS,,AUTO
         4 024573   025444 710000 4                  TRA     s:21933

     4174    21753
     4175    21754    5            SELECT(55 /* PWIDTH */) ;

     4176    21755    5            IF PLTN$ -> VLP$PLATEN.WIDTH# = 255

  21755  4 024574   000135 470400 2                  LDP0    PLTN$
         4 024575   003100 061500                    CSR     bolr='003'O
         4 024576   000000 010010                    BDSC    0,,PR0                   by=0,bit=1,n=8
         4 024577   200366 000044                    BDSC    TEMP+4,,AUTO             by=0,bit=0,n=36
         4 024600   200366 236100                    LDQ     TEMP+4,,AUTO
         4 024601   000377 116007                    CMPQ    255,DL
         4 024602   024615 601000 4                  TNZ     s:21761
         4 024603   000000 066500                    CMPB    filb='0'B
         4 024604   000001 100001                    BDSC    1,,PR0                   by=0,bit=8,n=1
         4 024605   000002 000022 xsym               BDSC    B_VECTNIL+2              by=0,bit=0,n=18
         4 024606   024615 601000 4                  TNZ     s:21761

     4177    21756    6                 AND NOT PLTN$ -> VLP$PLATEN.EXTWID# THEN DO;

     4178    21757    6               FORMAT = 'DC;';

  21757  4 024607   040100 100400                    MLR     fill='040'O
         4 024610   004300 000003 3                  ADSC9   FUNKEY_NAMES+1749        cn=0,n=3
         4 024611   200164 000377                    ADSC9   FORMAT,,AUTO             cn=0,n=255

     4179    21758    6               CLASS = 28 /* C_ALL_DONE */;

  21758  4 024612   000034 235007                    LDA     28,DL
PL6.E3A0      #001=ASL$DISP_ONE_PROFILE File=ASL$L_PRO.:E05TSI                   TUE 07/29/97 10:26 Page:675
         4 024613   200155 755100                    STA     CLASS,,AUTO

     4180    21759    6               END;

  21759  4 024614   025444 710000 4                  TRA     s:21933

     4181    21760    6            ELSE DO;

     4182    21761    6               SBINS( 0 ) = PLTN$ -> VLP$PLATEN.WIDTH# ;

  21761  4 024615   003100 061500                    CSR     bolr='003'O
         4 024616   000000 010010                    BDSC    0,,PR0                   by=0,bit=1,n=8
         4 024617   200007 000044                    BDSC    SBINS,,AUTO              by=0,bit=0,n=36

     4183    21762    6               IF PLTN$ -> VLP$PLATEN.EXTWID#

  21762  4 024620   000000 066500                    CMPB    filb='0'B
         4 024621   000001 100001                    BDSC    1,,PR0                   by=0,bit=8,n=1
         4 024622   000002 000022 xsym               BDSC    B_VECTNIL+2              by=0,bit=0,n=18
         4 024623   024626 600000 4                  TZE     s:21765

     4184    21763    6               THEN
     4185    21764    6                  SBINS( 0 ) = SBINS( 0 ) + 254 ;

  21764  4 024624   000376 236007                    LDQ     254,DL
         4 024625   200007 056100                    ASQ     SBINS,,AUTO

     4186    21765    6               FMT_VEC ( 0 ) = VECTOR ( SBINS ( 0 ) ) ;

  21765  4 024626   777640 235007                    LDA     -96,DL
         4 024627   200366 452500                    STP2    TEMP+4,,AUTO
         4 024630   200366 236100                    LDQ     TEMP+4,,AUTO
         4 024631   000007 036003                    ADLQ    7,DU
         4 024632   000000 755000 xsym               STA     FMT_VEC
         4 024633   000001 756000 xsym               STQ     FMT_VEC+1

     4187    21766    6               CALL CONCAT (FORMAT,FMT_TABLE ( 12 /* C_SBIN */ ),';');
PL6.E3A0      #001=ASL$DISP_ONE_PROFILE File=ASL$L_PRO.:E05TSI                   TUE 07/29/97 10:26 Page:676

  21766  4 024634   040100 100400                    MLR     fill='040'O
         4 024635   000132 000036 3                  ADSC9   FMT_TABLE+90             cn=0,n=30
         4 024636   200164 000036                    ADSC9   FORMAT,,AUTO             cn=0,n=30
         4 024637   040100 100400                    MLR     fill='040'O
         4 024640   000315 000001 5                  ADSC9   205                      cn=0,n=1
         4 024641   200173 400341                    ADSC9   I+2,,AUTO                cn=2,n=225

     4188    21767    6               CLASS = 12 /* C_SBIN */;

  21767  4 024642   000014 235007                    LDA     12,DL
         4 024643   200155 755100                    STA     CLASS,,AUTO

     4189    21768    6               END;

  21768  4 024644   025444 710000 4                  TRA     s:21933

     4190    21769
     4191    21770    5            SELECT( 169 /* RECEIVE SIZE */ ) ;

     4192    21771    5            FMT_VEC ( 0 ) = VECTOR ( VIRCIR$ -> KL$VIRCIR );

  21771  4 024645   000324 235000 5                  LDA     212
         4 024646   000143 236000 2                  LDQ     VIRCIR$
         4 024647   000000 755000 xsym               STA     FMT_VEC
         4 024650   000001 756000 xsym               STQ     FMT_VEC+1

     4193    21772    5            FORMAT = '%0.4N[128%1?256%2?512%3?1024%4?2048%5?4096%??%]%2P;';

  21772  4 024651   040100 100400                    MLR     fill='040'O
         4 024652   004301 000063 3                  ADSC9   FUNKEY_NAMES+1750        cn=0,n=51
         4 024653   200164 000377                    ADSC9   FORMAT,,AUTO             cn=0,n=255

     4194    21773    5            CLASS = 28 /* C_ALL_DONE */;

  21773  4 024654   000034 235007                    LDA     28,DL
         4 024655   200155 755100                    STA     CLASS,,AUTO
PL6.E3A0      #001=ASL$DISP_ONE_PROFILE File=ASL$L_PRO.:E05TSI                   TUE 07/29/97 10:26 Page:677
         4 024656   025444 710000 4                  TRA     s:21933

     4195    21774
     4196    21775    5            SELECT( 170 /* RECEIVE THROUGHPUT */ );

     4197    21776    5            FMT_VEC ( 0 ) = VECTOR ( VIRCIR$ -> KL$VIRCIR );

  21776  4 024657   000324 235000 5                  LDA     212
         4 024660   000143 236000 2                  LDQ     VIRCIR$
         4 024661   000000 755000 xsym               STA     FMT_VEC
         4 024662   000001 756000 xsym               STQ     FMT_VEC+1

     4198    21777    5           FORMAT = '%0.4N[NONE%1?75%2?150%3?300%4?600%5?1200%6?2400%7?4800%8?9600%9?1
             21777        9200%10?48000%??%]%2P;';

  21777  4 024663   040100 100400                    MLR     fill='040'O
         4 024664   004316 000127 3                  ADSC9   FUNKEY_NAMES+1763        cn=0,n=87
         4 024665   200164 000377                    ADSC9   FORMAT,,AUTO             cn=0,n=255

     4199    21778    5            CLASS = 28 /* C_ALL_DONE */;

  21778  4 024666   000034 235007                    LDA     28,DL
         4 024667   200155 755100                    STA     CLASS,,AUTO
         4 024670   025444 710000 4                  TRA     s:21933

     4200    21779
     4201    21780    5            SELECT( 119 /* RESPDELAY */ ) ;

     4202    21781    6            IF DSEG1$ -> PRO$HDR.TTYP = %KLTY_VIRCIR# THEN DO;

  21781  4 024671   000000 470400 xsym               LDP0    DSEG1$
         4 024672   000100 101500                    MRL     fill='000'O
         4 024673   000000 000001                    ADSC9   0,,PR0                   cn=0,n=1
         4 024674   200366 000004                    ADSC9   TEMP+4,,AUTO             cn=0,n=4
         4 024675   200366 236100                    LDQ     TEMP+4,,AUTO
         4 024676   000010 116007                    CMPQ    8,DL
         4 024677   024710 601000 4                  TNZ     s:21786
PL6.E3A0      #001=ASL$DISP_ONE_PROFILE File=ASL$L_PRO.:E05TSI                   TUE 07/29/97 10:26 Page:678

     4203    21782    6               FMT_VEC ( 0 ) = VECTOR ( VIRCIR$ -> KL$VIRCIR );

  21782  4 024700   000324 235000 5                  LDA     212
         4 024701   000143 236000 2                  LDQ     VIRCIR$
         4 024702   000000 755000 xsym               STA     FMT_VEC
         4 024703   000001 756000 xsym               STQ     FMT_VEC+1

     4204    21783    6               POSITION = '%0.4.0.2P';

  21783  4 024704   040100 100400                    MLR     fill='040'O
         4 024705   004344 000011 3                  ADSC9   FUNKEY_NAMES+1785        cn=0,n=9
         4 024706   200264 000014                    ADSC9   POSITION,,AUTO           cn=0,n=12

     4205    21784    6               END; /*  If vircir  */

  21784  4 024707   024717 710000 4                  TRA     s:21789

     4206    21785    6            ELSE DO;

     4207    21786    6               FMT_VEC ( 0 ) = VECTOR ( LINK$ -> KL$LINK );

  21786  4 024710   000003 235000 5                  LDA     3
         4 024711   000142 236000 2                  LDQ     LINK$
         4 024712   000000 755000 xsym               STA     FMT_VEC
         4 024713   000001 756000 xsym               STQ     FMT_VEC+1

     4208    21787    6               POSITION = '%0.0.1.2P';

  21787  4 024714   040100 100400                    MLR     fill='040'O
         4 024715   004347 000011 3                  ADSC9   FUNKEY_NAMES+1788        cn=0,n=9
         4 024716   200264 000014                    ADSC9   POSITION,,AUTO           cn=0,n=12

     4209    21788    6               END; /*  If link  */

     4210    21789    5            CLASS = 9 /* C_7BIT_UBIN */ ;

PL6.E3A0      #001=ASL$DISP_ONE_PROFILE File=ASL$L_PRO.:E05TSI                   TUE 07/29/97 10:26 Page:679
  21789  4 024717   000011 235007                    LDA     9,DL
         4 024720   200155 755100                    STA     CLASS,,AUTO
         4 024721   025444 710000 4                  TRA     s:21933

     4211    21790
     4212    21791    5            SELECT( 133 /* RESTORE_DFLTSCRN_CHR */ );

     4213    21792    5            PTR$ =ADDR( TCCHR$ -> KL$CCHR.RESTORE_DFLTSCRN_CHR#) ;

  21792  4 024722   000137 236000 2                  LDQ     TCCHR$
         4 024723   000227 036000 5                  ADLQ    151
         4 024724   200153 756100                    STQ     PTR$,,AUTO
         4 024725   025444 710000 4                  TRA     s:21933

     4214    21793
     4215    21794    5            SELECT(115 /* REVERSE */);

     4216    21795    6            IF DSEG1$ -> PRO$HDR.TTYP = %KLTY_VIRCIR# THEN DO;

  21795  4 024726   000000 470400 xsym               LDP0    DSEG1$
         4 024727   000100 101500                    MRL     fill='000'O
         4 024730   000000 000001                    ADSC9   0,,PR0                   cn=0,n=1
         4 024731   200366 000004                    ADSC9   TEMP+4,,AUTO             cn=0,n=4
         4 024732   200366 236100                    LDQ     TEMP+4,,AUTO
         4 024733   000010 116007                    CMPQ    8,DL
         4 024734   024752 601000 4                  TNZ     s:21802

     4217    21796    6               FMT_VEC ( 0 ) = VECTOR ( VIRCIR$ -> KL$VIRCIR );

  21796  4 024735   000324 235000 5                  LDA     212
         4 024736   000143 236000 2                  LDQ     VIRCIR$
         4 024737   000000 755000 xsym               STA     FMT_VEC
         4 024740   000001 756000 xsym               STQ     FMT_VEC+1

     4218    21797    6               POSITION = '%0.4.3.1P';

  21797  4 024741   040100 100400                    MLR     fill='040'O
PL6.E3A0      #001=ASL$DISP_ONE_PROFILE File=ASL$L_PRO.:E05TSI                   TUE 07/29/97 10:26 Page:680
         4 024742   004352 000011 3                  ADSC9   FUNKEY_NAMES+1791        cn=0,n=9
         4 024743   200264 000014                    ADSC9   POSITION,,AUTO           cn=0,n=12

     4219    21798    6               CLASS = 28 /* C_ALL_DONE */ ;

  21798  4 024744   000034 235007                    LDA     28,DL
         4 024745   200155 755100                    STA     CLASS,,AUTO

     4220    21799    6               FORMAT = '%0.2N[TRY%1?YES%2?NO%]%2P;';

  21799  4 024746   040100 100400                    MLR     fill='040'O
         4 024747   004355 000032 3                  ADSC9   FUNKEY_NAMES+1794        cn=0,n=26
         4 024750   200164 000377                    ADSC9   FORMAT,,AUTO             cn=0,n=255

     4221    21800    6               END; /*  If vircir  */

  21800  4 024751   025444 710000 4                  TRA     s:21933

     4222    21801    6            ELSE DO;

     4223    21802    6               FMT_VEC ( 0 ) = VECTOR ( LINK$ -> KL$LINK );

  21802  4 024752   000003 235000 5                  LDA     3
         4 024753   000142 236000 2                  LDQ     LINK$
         4 024754   000000 755000 xsym               STA     FMT_VEC
         4 024755   000001 756000 xsym               STQ     FMT_VEC+1

     4224    21803    6               POSITION = '%0.0.0.7P';

  21803  4 024756   040100 100400                    MLR     fill='040'O
         4 024757   004364 000011 3                  ADSC9   FUNKEY_NAMES+1801        cn=0,n=9
         4 024760   200264 000014                    ADSC9   POSITION,,AUTO           cn=0,n=12

     4225    21804    6               CALL CONCAT (FORMAT, FMT_TABLE(2 /* C_YESNO */),';');

  21804  4 024761   040100 100400                    MLR     fill='040'O
         4 024762   000017 000036 3                  ADSC9   FMT_TABLE+15             cn=0,n=30
PL6.E3A0      #001=ASL$DISP_ONE_PROFILE File=ASL$L_PRO.:E05TSI                   TUE 07/29/97 10:26 Page:681
         4 024763   200164 000036                    ADSC9   FORMAT,,AUTO             cn=0,n=30
         4 024764   040100 100400                    MLR     fill='040'O
         4 024765   000315 000001 5                  ADSC9   205                      cn=0,n=1
         4 024766   200173 400341                    ADSC9   I+2,,AUTO                cn=2,n=225

     4226    21805    6               CLASS = 2 /* C_YESNO */ ;

  21805  4 024767   000002 235007                    LDA     2,DL
         4 024770   200155 755100                    STA     CLASS,,AUTO

     4227    21806    6               END; /*  If link  */

  21806  4 024771   025444 710000 4                  TRA     s:21933

     4228    21807
     4229    21808    5            SELECT(102 /* RSTINSMOD_CHR */) ;

     4230    21809    5            PTR$ =ADDR( TCCHR$->KL$CCHR.RSTINSMOD_CHR) ;

  21809  4 024772   000137 236000 2                  LDQ     TCCHR$
         4 024773   000016 036003                    ADLQ    14,DU
         4 024774   200153 756100                    STQ     PTR$,,AUTO
         4 024775   025444 710000 4                  TRA     s:21933

     4231    21810
     4232    21811    5            SELECT(103 /* SETFRMLNG_CHR */) ;

     4233    21812    5            PTR$ =ADDR( TCCHR$->KL$CCHR.SETFRMLNG_CHR) ;

  21812  4 024776   000137 236000 2                  LDQ     TCCHR$
         4 024777   000021 036003                    ADLQ    17,DU
         4 025000   200153 756100                    STQ     PTR$,,AUTO
         4 025001   025444 710000 4                  TRA     s:21933

     4234    21813
     4235    21814    5            SELECT (195 /* L_SETUP_CHR */);

PL6.E3A0      #001=ASL$DISP_ONE_PROFILE File=ASL$L_PRO.:E05TSI                   TUE 07/29/97 10:26 Page:682
     4236    21815    5            PTR$ = PINCRC (SETUP_CHR$,1);

  21815  4 025002   000157 236000 2                  LDQ     SETUP_CHR$
         4 025003   200000 036007                    ADLQ    65536,DL
         4 025004   200153 756100                    STQ     PTR$,,AUTO

     4237    21816    5            LENGTH = FDS.FMT_.BOUND;

  21816  4 025005   000000 236000 xsym               LDQ     FDS
         4 025006   000020 772000                    QRL     16
         4 025007   200157 756100                    STQ     LENGTH,,AUTO

     4238    21817    5            FDS.NVECS# = 0;

  21817  4 025010   000011 450000 xsym               STZ     FDS+9

     4239    21818    5            CALL DO_SETUP_CHR_JCL (PTR$, LENGTH);

  21818  4 025011   200157 630500                    EPPR0   LENGTH,,AUTO
         4 025012   200274 450500                    STP0    NUM_ON_LINE,,AUTO
         4 025013   200153 631500                    EPPR1   PTR$,,AUTO
         4 025014   200273 451500                    STP1    J,,AUTO
         4 025015   026363 701000 4                  TSX1    DO_SETUP_CHR_JCL
         4 025016   000000 011000                    NOP     0
         4 025017   025444 710000 4                  TRA     s:21933

     4240    21819
     4241    21820    5            SELECT( 126 /* SGRINTRO_CHR */ );

     4242    21821    5            PTR$ =ADDR( TCCHR$ -> KL$CCHR.SGRINTRO_CHR#) ;

  21821  4 025020   000137 236000 2                  LDQ     TCCHR$
         4 025021   000220 036000 5                  ADLQ    144
         4 025022   200153 756100                    STQ     PTR$,,AUTO
         4 025023   025444 710000 4                  TRA     s:21933

     4243    21822
PL6.E3A0      #001=ASL$DISP_ONE_PROFILE File=ASL$L_PRO.:E05TSI                   TUE 07/29/97 10:26 Page:683
     4244    21823    5            SELECT( 173 /* SEND SIZE */ ) ;

     4245    21824    5            FMT_VEC ( 0 ) = VECTOR ( VIRCIR$ -> KL$VIRCIR );

  21824  4 025024   000324 235000 5                  LDA     212
         4 025025   000143 236000 2                  LDQ     VIRCIR$
         4 025026   000000 755000 xsym               STA     FMT_VEC
         4 025027   000001 756000 xsym               STQ     FMT_VEC+1

     4246    21825    5            FORMAT = '%0.4N[128%1?256%2?512%3?1024%4?2048%5?4096%??%]%2P;';

  21825  4 025030   040100 100400                    MLR     fill='040'O
         4 025031   004301 000063 3                  ADSC9   FUNKEY_NAMES+1750        cn=0,n=51
         4 025032   200164 000377                    ADSC9   FORMAT,,AUTO             cn=0,n=255

     4247    21826    5            CLASS = 28 /* C_ALL_DONE */;

  21826  4 025033   000034 235007                    LDA     28,DL
         4 025034   200155 755100                    STA     CLASS,,AUTO
         4 025035   025444 710000 4                  TRA     s:21933

     4248    21827
     4249    21828    5            SELECT( 174 /* SEND THROUGHPUT */ ) ;

     4250    21829    5            FMT_VEC ( 0 ) = VECTOR ( VIRCIR$ -> KL$VIRCIR );

  21829  4 025036   000324 235000 5                  LDA     212
         4 025037   000143 236000 2                  LDQ     VIRCIR$
         4 025040   000000 755000 xsym               STA     FMT_VEC
         4 025041   000001 756000 xsym               STQ     FMT_VEC+1

     4251    21830    5           FORMAT = '%0.4N[NONE%1?75%2?150%3?300%4?600%5?1200%6?2400%7?4800%8?9600%9?1
             21830        9200%10?48000%??%]%2P;';

  21830  4 025042   040100 100400                    MLR     fill='040'O
         4 025043   004316 000127 3                  ADSC9   FUNKEY_NAMES+1763        cn=0,n=87
         4 025044   200164 000377                    ADSC9   FORMAT,,AUTO             cn=0,n=255
PL6.E3A0      #001=ASL$DISP_ONE_PROFILE File=ASL$L_PRO.:E05TSI                   TUE 07/29/97 10:26 Page:684

     4252    21831    5            CLASS = 28 /* C_ALL_DONE */;

  21831  4 025045   000034 235007                    LDA     28,DL
         4 025046   200155 755100                    STA     CLASS,,AUTO
         4 025047   025444 710000 4                  TRA     s:21933

     4253    21832
     4254    21833    5            SELECT(59 /* SPEED */) ;

     4255    21834    5            FMT_VEC ( 0 ) = VECTOR ( TATR$ -> VLP$TRMATTR );

  21834  4 025050   000322 235000 5                  LDA     210
         4 025051   000134 236000 2                  LDQ     TATR$
         4 025052   000000 755000 xsym               STA     FMT_VEC
         4 025053   000001 756000 xsym               STQ     FMT_VEC+1

     4256    21835    5            FORMAT = '%0.8N[50%1?75%2?75%3?134.5%4?150%5?200%6?300%7?600';

  21835  4 025054   040100 100400                    MLR     fill='040'O
         4 025055   004367 000062 3                  ADSC9   FUNKEY_NAMES+1804        cn=0,n=50
         4 025056   200164 000377                    ADSC9   FORMAT,,AUTO             cn=0,n=255

     4257    21836    5            SUBSTR (FORMAT, 50, 38) = '%8?1050%9?1200%10?1800%11?2000%12?2400';

  21836  4 025057   040100 100400                    MLR     fill='040'O
         4 025060   004404 000046 3                  ADSC9   FUNKEY_NAMES+1817        cn=0,n=38
         4 025061   200200 400046                    ADSC9   I+7,,AUTO                cn=2,n=38

     4258    21837    5            SUBSTR (FORMAT, 88, 41) = '%13?4800%14?9600%15?19200%255?DC%??%]%2P;';

  21837  4 025062   040100 100400                    MLR     fill='040'O
         4 025063   004416 000051 3                  ADSC9   FUNKEY_NAMES+1827        cn=0,n=41
         4 025064   200212 000051                    ADSC9   I+17,,AUTO               cn=0,n=41

     4259    21838    5            CLASS = 28 /* C_ALL_DONE */;

PL6.E3A0      #001=ASL$DISP_ONE_PROFILE File=ASL$L_PRO.:E05TSI                   TUE 07/29/97 10:26 Page:685
  21838  4 025065   000034 235007                    LDA     28,DL
         4 025066   200155 755100                    STA     CLASS,,AUTO
         4 025067   025444 710000 4                  TRA     s:21933

     4260    21839
     4261    21840    5            SELECT ( 218 /* TABS */ );

     4262    21841    5            FORMAT = '%D%N(,%D%);';

  21841  4 025070   040100 100400                    MLR     fill='040'O
         4 025071   004431 000013 3                  ADSC9   FUNKEY_NAMES+1838        cn=0,n=11
         4 025072   200164 000377                    ADSC9   FORMAT,,AUTO             cn=0,n=255

     4263    21842    5            CLASS = 28 /* C_ALL_DONE */;

  21842  4 025073   000034 235007                    LDA     28,DL
         4 025074   200155 755100                    STA     CLASS,,AUTO

     4264    21843    5            T_TAB = DTABS$ -> VLP$TAB;

  21843  4 025075   000136 470400 2                  LDP0    DTABS$
         4 025076   000000 100500                    MLR     fill='000'O
         4 025077   000000 000040                    ADSC9   0,,PR0                   cn=0,n=32
         4 025100   000160 000040 2                  ADSC9   T_TAB                    cn=0,n=32

     4265    21844    5            SBINS ( 0 ) = 0;

  21844  4 025101   200007 450100                    STZ     SBINS,,AUTO

     4266    21845    5            FMT_VEC ( 0 ) = VECTOR ( T_TAB (0) );

  21845  4 025102   000330 237000 5                  LDAQ    216
         4 025103   000000 755000 xsym               STA     FMT_VEC
         4 025104   000001 756000 xsym               STQ     FMT_VEC+1

     4267    21846    5            FMT_VEC ( 1 ) = VECTOR ( SBINS (0) );

PL6.E3A0      #001=ASL$DISP_ONE_PROFILE File=ASL$L_PRO.:E05TSI                   TUE 07/29/97 10:26 Page:686
  21846  4 025105   777640 235007                    LDA     -96,DL
         4 025106   200366 452500                    STP2    TEMP+4,,AUTO
         4 025107   200366 236100                    LDQ     TEMP+4,,AUTO
         4 025110   000007 036003                    ADLQ    7,DU
         4 025111   000002 755000 xsym               STA     FMT_VEC+2
         4 025112   000003 756000 xsym               STQ     FMT_VEC+3

     4268    21847    5            FDS.NVECS# = 2 ;

  21847  4 025113   000002 235007                    LDA     2,DL
         4 025114   000011 755000 xsym               STA     FDS+9

     4269    21848    6            DO WHILE ( SBINS (0)+1 < 31 );

  21848  4 025115   025140 710000 4                  TRA     s:21854

     4270    21849    6               IF T_TAB ( SBINS (0)+1 ) = 0 THEN

  21849  4 025116   200007 235100                    LDA     SBINS,,AUTO
         4 025117   000100 101405                    MRL     fill='000'O
         4 025120   000160 200001 2                  ADSC9   T_TAB,A                  cn=1,n=1
         4 025121   200366 000004                    ADSC9   TEMP+4,,AUTO             cn=0,n=4
         4 025122   200366 236100                    LDQ     TEMP+4,,AUTO
         4 025123   000000 116003                    CMPQ    0,DU
         4 025124   025143 600000 4                  TZE     s:21854+3

     4271    21850    6                  EXIT ;
     4272    21851    6               FMT_VEC(FDS.NVECS#) = VECTOR( T_TAB (SBINS(0)+1));

  21851  4 025125   000011 236000 xsym               LDQ     FDS+9
         4 025126   000001 736000                    QLS     1
         4 025127   177640 235007                    LDA     65440,DL
         4 025130   000000 620006                    EAX0    0,QL
         4 025131   200007 236100                    LDQ     SBINS,,AUTO
         4 025132   000020 736000                    QLS     16
         4 025133   000325 036000 5                  ADLQ    213
         4 025134   000000 755010 xsym               STA     FMT_VEC,X0
PL6.E3A0      #001=ASL$DISP_ONE_PROFILE File=ASL$L_PRO.:E05TSI                   TUE 07/29/97 10:26 Page:687
         4 025135   000001 756010 xsym               STQ     FMT_VEC+1,X0

     4273    21852    6               FDS.NVECS# = FDS.NVECS# + 1 ;

  21852  4 025136   000011 054000 xsym               AOS     FDS+9

     4274    21853    6               SBINS ( 0 ) = SBINS ( 0 ) + 1;

  21853  4 025137   200007 054100                    AOS     SBINS,,AUTO

     4275    21854    6               END ;                  /* Do while                           */

  21854  4 025140   200007 235100                    LDA     SBINS,,AUTO
         4 025141   000036 115007                    CMPA    30,DL
         4 025142   025116 604000 4                  TMI     s:21849
         4 025143   025444 710000 4                  TRA     s:21933

     4276    21855
     4277    21856    5            SELECT(104 /* TBC3_CHR */) ;

     4278    21857    5            PTR$ =ADDR( TCCHR$->KL$CCHR.TBC3_CHR) ;

  21857  4 025144   000137 236000 2                  LDQ     TCCHR$
         4 025145   000161 036000 5                  ADLQ    113
         4 025146   200153 756100                    STQ     PTR$,,AUTO
         4 025147   025444 710000 4                  TRA     s:21933

     4279    21858
     4280    21859    5            SELECT(69 /* TIMAFTCTRFNC */) ;

     4281    21860    5            SBINS( 0 ) = 0 ;

  21860  4 025150   200007 450100                    STZ     SBINS,,AUTO

     4282    21861    5            SPLIT$ = ADDR(SBINS( 0 )) ;

  21861  4 025151   200007 630500                    EPPR0   SBINS,,AUTO
PL6.E3A0      #001=ASL$DISP_ONE_PROFILE File=ASL$L_PRO.:E05TSI                   TUE 07/29/97 10:26 Page:688
         4 025152   200143 450500                    STP0    SPLIT$,,AUTO

     4283    21862    5            KL$UBWORD.NUM = TCCHR$ -> KL$CCHR.CTRFNCTIM ;

  21862  4 025153   000137 471400 2                  LDP1    TCCHR$
         4 025154   000100 100500                    MLR     fill='000'O
         4 025155   100002 000002                    ADSC9   2,,PR1                   cn=0,n=2
         4 025156   200005 400002                    ADSC9   KL$UBWORD,,AUTO          cn=2,n=2

     4284    21863    5            SPLIT$ -> KL$UWORD.T = KL$UBWORD.REPLACE.T ;

  21863  4 025157   200005 236100                    LDQ     KL$UBWORD,,AUTO
         4 025160   377000 376007                    ANQ     130560,DL
         4 025161   000001 772000                    QRL     1
         4 025162   000000 676100                    ERQ     0,,PR0
         4 025163   000033 376000 5                  ANQ     27
         4 025164   000000 656100                    ERSQ    0,,PR0

     4285    21864    5            SPLIT$ -> KL$UWORD.B = KL$UBWORD.REPLACE.B ;

  21864  4 025165   200005 236100                    LDQ     KL$UBWORD,,AUTO
         4 025166   000000 676100                    ERQ     0,,PR0
         4 025167   000377 376007                    ANQ     255,DL
         4 025170   000000 656100                    ERSQ    0,,PR0
         4 025171   025444 710000 4                  TRA     s:21933

     4286    21865
     4287    21866    5            SELECT(70 /* TMNALG_PRM1 */) ;

     4288    21867    5            SBINS( 0 ) = 0 ;

  21867  4 025172   200007 450100                    STZ     SBINS,,AUTO

     4289    21868    5            SPLIT$ = ADDR(SBINS( 0 )) ;

  21868  4 025173   200007 630500                    EPPR0   SBINS,,AUTO
         4 025174   200143 450500                    STP0    SPLIT$,,AUTO
PL6.E3A0      #001=ASL$DISP_ONE_PROFILE File=ASL$L_PRO.:E05TSI                   TUE 07/29/97 10:26 Page:689

     4290    21869    5            KL$UBWORD.NUM = TCCHR$ -> KL$CCHR.TMNALG_PRM1 ;

  21869  4 025175   000137 471400 2                  LDP1    TCCHR$
         4 025176   000100 100500                    MLR     fill='000'O
         4 025177   100003 400002                    ADSC9   3,,PR1                   cn=2,n=2
         4 025200   200005 400002                    ADSC9   KL$UBWORD,,AUTO          cn=2,n=2

     4291    21870    5            SPLIT$ -> KL$UWORD.T = KL$UBWORD.REPLACE.T ;

  21870  4 025201   200005 236100                    LDQ     KL$UBWORD,,AUTO
         4 025202   377000 376007                    ANQ     130560,DL
         4 025203   000001 772000                    QRL     1
         4 025204   000000 676100                    ERQ     0,,PR0
         4 025205   000033 376000 5                  ANQ     27
         4 025206   000000 656100                    ERSQ    0,,PR0

     4292    21871    5            SPLIT$ -> KL$UWORD.B = KL$UBWORD.REPLACE.B ;

  21871  4 025207   200005 236100                    LDQ     KL$UBWORD,,AUTO
         4 025210   000000 676100                    ERQ     0,,PR0
         4 025211   000377 376007                    ANQ     255,DL
         4 025212   000000 656100                    ERSQ    0,,PR0
         4 025213   025444 710000 4                  TRA     s:21933

     4293    21872
     4294    21873    5            SELECT(71 /* TMNALG_PRM2 */) ;

     4295    21874    5            SBINS( 0 ) = 0 ;

  21874  4 025214   200007 450100                    STZ     SBINS,,AUTO

     4296    21875    5            SPLIT$ = ADDR(SBINS( 0 )) ;

  21875  4 025215   200007 630500                    EPPR0   SBINS,,AUTO
         4 025216   200143 450500                    STP0    SPLIT$,,AUTO

PL6.E3A0      #001=ASL$DISP_ONE_PROFILE File=ASL$L_PRO.:E05TSI                   TUE 07/29/97 10:26 Page:690
     4297    21876    5            KL$UBWORD.NUM = TCCHR$ -> KL$CCHR.TMNALG_PRM2 ;

  21876  4 025217   000137 471400 2                  LDP1    TCCHR$
         4 025220   000100 100500                    MLR     fill='000'O
         4 025221   100004 000002                    ADSC9   4,,PR1                   cn=0,n=2
         4 025222   200005 400002                    ADSC9   KL$UBWORD,,AUTO          cn=2,n=2

     4298    21877    5            SPLIT$ -> KL$UWORD.T = KL$UBWORD.REPLACE.T ;

  21877  4 025223   200005 236100                    LDQ     KL$UBWORD,,AUTO
         4 025224   377000 376007                    ANQ     130560,DL
         4 025225   000001 772000                    QRL     1
         4 025226   000000 676100                    ERQ     0,,PR0
         4 025227   000033 376000 5                  ANQ     27
         4 025230   000000 656100                    ERSQ    0,,PR0

     4299    21878    5            SPLIT$ -> KL$UWORD.B = KL$UBWORD.REPLACE.B ;

  21878  4 025231   200005 236100                    LDQ     KL$UBWORD,,AUTO
         4 025232   000000 676100                    ERQ     0,,PR0
         4 025233   000377 376007                    ANQ     255,DL
         4 025234   000000 656100                    ERSQ    0,,PR0
         4 025235   025444 710000 4                  TRA     s:21933

     4300    21879
     4301    21880    5            SELECT(72 /* TMNALG_PRM3 */) ;

     4302    21881    5            SBINS( 0 ) = 0 ;

  21881  4 025236   200007 450100                    STZ     SBINS,,AUTO

     4303    21882    5            SPLIT$ = ADDR(SBINS( 0 )) ;

  21882  4 025237   200007 630500                    EPPR0   SBINS,,AUTO
         4 025240   200143 450500                    STP0    SPLIT$,,AUTO

     4304    21883    5            KL$UBWORD.NUM = TCCHR$ -> KL$CCHR.TMNALG_PRM3 ;
PL6.E3A0      #001=ASL$DISP_ONE_PROFILE File=ASL$L_PRO.:E05TSI                   TUE 07/29/97 10:26 Page:691

  21883  4 025241   000137 471400 2                  LDP1    TCCHR$
         4 025242   000100 100500                    MLR     fill='000'O
         4 025243   100004 400002                    ADSC9   4,,PR1                   cn=2,n=2
         4 025244   200005 400002                    ADSC9   KL$UBWORD,,AUTO          cn=2,n=2

     4305    21884    5            SPLIT$ -> KL$UWORD.T = KL$UBWORD.REPLACE.T ;

  21884  4 025245   200005 236100                    LDQ     KL$UBWORD,,AUTO
         4 025246   377000 376007                    ANQ     130560,DL
         4 025247   000001 772000                    QRL     1
         4 025250   000000 676100                    ERQ     0,,PR0
         4 025251   000033 376000 5                  ANQ     27
         4 025252   000000 656100                    ERSQ    0,,PR0

     4306    21885    5            SPLIT$ -> KL$UWORD.B = KL$UBWORD.REPLACE.B ;

  21885  4 025253   200005 236100                    LDQ     KL$UBWORD,,AUTO
         4 025254   000000 676100                    ERQ     0,,PR0
         4 025255   000377 376007                    ANQ     255,DL
         4 025256   000000 656100                    ERSQ    0,,PR0
         4 025257   025444 710000 4                  TRA     s:21933

     4307    21886
     4308    21887    5            SELECT(73 /* TMNALG_PRM4 */) ;

     4309    21888    5            SBINS( 0 ) = 0 ;

  21888  4 025260   200007 450100                    STZ     SBINS,,AUTO

     4310    21889    5            SPLIT$ = ADDR(SBINS( 0 )) ;

  21889  4 025261   200007 630500                    EPPR0   SBINS,,AUTO
         4 025262   200143 450500                    STP0    SPLIT$,,AUTO

     4311    21890    5            KL$UBWORD.NUM = TCCHR$ -> KL$CCHR.TMNALG_PRM4 ;

PL6.E3A0      #001=ASL$DISP_ONE_PROFILE File=ASL$L_PRO.:E05TSI                   TUE 07/29/97 10:26 Page:692
  21890  4 025263   000137 471400 2                  LDP1    TCCHR$
         4 025264   000100 100500                    MLR     fill='000'O
         4 025265   100005 000002                    ADSC9   5,,PR1                   cn=0,n=2
         4 025266   200005 400002                    ADSC9   KL$UBWORD,,AUTO          cn=2,n=2

     4312    21891    5            SPLIT$ -> KL$UWORD.T = KL$UBWORD.REPLACE.T ;

  21891  4 025267   200005 236100                    LDQ     KL$UBWORD,,AUTO
         4 025270   377000 376007                    ANQ     130560,DL
         4 025271   000001 772000                    QRL     1
         4 025272   000000 676100                    ERQ     0,,PR0
         4 025273   000033 376000 5                  ANQ     27
         4 025274   000000 656100                    ERSQ    0,,PR0

     4313    21892    5            SPLIT$ -> KL$UWORD.B = KL$UBWORD.REPLACE.B ;

  21892  4 025275   200005 236100                    LDQ     KL$UBWORD,,AUTO
         4 025276   000000 676100                    ERQ     0,,PR0
         4 025277   000377 376007                    ANQ     255,DL
         4 025300   000000 656100                    ERSQ    0,,PR0
         4 025301   025444 710000 4                  TRA     s:21933

     4314    21893
     4315    21894    5            SELECT(74 /* TMNALG_PRM5 */) ;

     4316    21895    5            SBINS( 0 ) = 0 ;

  21895  4 025302   200007 450100                    STZ     SBINS,,AUTO

     4317    21896    5            SPLIT$ = ADDR(SBINS( 0 )) ;

  21896  4 025303   200007 630500                    EPPR0   SBINS,,AUTO
         4 025304   200143 450500                    STP0    SPLIT$,,AUTO

     4318    21897    5            KL$UBWORD.NUM = TCCHR$ -> KL$CCHR.TMNALG_PRM5 ;

  21897  4 025305   000137 471400 2                  LDP1    TCCHR$
PL6.E3A0      #001=ASL$DISP_ONE_PROFILE File=ASL$L_PRO.:E05TSI                   TUE 07/29/97 10:26 Page:693
         4 025306   000100 100500                    MLR     fill='000'O
         4 025307   100005 400002                    ADSC9   5,,PR1                   cn=2,n=2
         4 025310   200005 400002                    ADSC9   KL$UBWORD,,AUTO          cn=2,n=2

     4319    21898    5            SPLIT$ -> KL$UWORD.T = KL$UBWORD.REPLACE.T ;

  21898  4 025311   200005 236100                    LDQ     KL$UBWORD,,AUTO
         4 025312   377000 376007                    ANQ     130560,DL
         4 025313   000001 772000                    QRL     1
         4 025314   000000 676100                    ERQ     0,,PR0
         4 025315   000033 376000 5                  ANQ     27
         4 025316   000000 656100                    ERSQ    0,,PR0

     4320    21899    5            SPLIT$ -> KL$UWORD.B = KL$UBWORD.REPLACE.B ;

  21899  4 025317   200005 236100                    LDQ     KL$UBWORD,,AUTO
         4 025320   000000 676100                    ERQ     0,,PR0
         4 025321   000377 376007                    ANQ     255,DL
         4 025322   000000 656100                    ERSQ    0,,PR0
         4 025323   025444 710000 4                  TRA     s:21933

     4321    21900
     4322    21901    5            SELECT(75 /* TMNALG_PRM6 */) ;

     4323    21902    5            SBINS( 0 ) = 0 ;

  21902  4 025324   200007 450100                    STZ     SBINS,,AUTO

     4324    21903    5            SPLIT$ = ADDR(SBINS( 0 )) ;

  21903  4 025325   200007 630500                    EPPR0   SBINS,,AUTO
         4 025326   200143 450500                    STP0    SPLIT$,,AUTO

     4325    21904    5            KL$UBWORD.NUM = TCCHR$ -> KL$CCHR.TMNALG_PRM6 ;

  21904  4 025327   000137 471400 2                  LDP1    TCCHR$
         4 025330   000100 100500                    MLR     fill='000'O
PL6.E3A0      #001=ASL$DISP_ONE_PROFILE File=ASL$L_PRO.:E05TSI                   TUE 07/29/97 10:26 Page:694
         4 025331   100006 000002                    ADSC9   6,,PR1                   cn=0,n=2
         4 025332   200005 400002                    ADSC9   KL$UBWORD,,AUTO          cn=2,n=2

     4326    21905    5            SPLIT$ -> KL$UWORD.T = KL$UBWORD.REPLACE.T ;

  21905  4 025333   200005 236100                    LDQ     KL$UBWORD,,AUTO
         4 025334   377000 376007                    ANQ     130560,DL
         4 025335   000001 772000                    QRL     1
         4 025336   000000 676100                    ERQ     0,,PR0
         4 025337   000033 376000 5                  ANQ     27
         4 025340   000000 656100                    ERSQ    0,,PR0

     4327    21906    5            SPLIT$ -> KL$UWORD.B = KL$UBWORD.REPLACE.B ;

  21906  4 025341   200005 236100                    LDQ     KL$UBWORD,,AUTO
         4 025342   000000 676100                    ERQ     0,,PR0
         4 025343   000377 376007                    ANQ     255,DL
         4 025344   000000 656100                    ERSQ    0,,PR0
         4 025345   025444 710000 4                  TRA     s:21933

     4328    21907
     4329    21908    5            SELECT(76 /* TMNALG_PRM7 */) ;

     4330    21909    5            SBINS( 0 ) = 0 ;

  21909  4 025346   200007 450100                    STZ     SBINS,,AUTO

     4331    21910    5            SPLIT$ = ADDR(SBINS( 0 )) ;

  21910  4 025347   200007 630500                    EPPR0   SBINS,,AUTO
         4 025350   200143 450500                    STP0    SPLIT$,,AUTO

     4332    21911    5            KL$UBWORD.NUM = TCCHR$ -> KL$CCHR.TMNALG_PRM7 ;

  21911  4 025351   000137 471400 2                  LDP1    TCCHR$
         4 025352   000100 100500                    MLR     fill='000'O
         4 025353   100006 400002                    ADSC9   6,,PR1                   cn=2,n=2
PL6.E3A0      #001=ASL$DISP_ONE_PROFILE File=ASL$L_PRO.:E05TSI                   TUE 07/29/97 10:26 Page:695
         4 025354   200005 400002                    ADSC9   KL$UBWORD,,AUTO          cn=2,n=2

     4333    21912    5            SPLIT$ -> KL$UWORD.T = KL$UBWORD.REPLACE.T ;

  21912  4 025355   200005 236100                    LDQ     KL$UBWORD,,AUTO
         4 025356   377000 376007                    ANQ     130560,DL
         4 025357   000001 772000                    QRL     1
         4 025360   000000 676100                    ERQ     0,,PR0
         4 025361   000033 376000 5                  ANQ     27
         4 025362   000000 656100                    ERSQ    0,,PR0

     4334    21913    5            SPLIT$ -> KL$UWORD.B = KL$UBWORD.REPLACE.B ;

  21913  4 025363   200005 236100                    LDQ     KL$UBWORD,,AUTO
         4 025364   000000 676100                    ERQ     0,,PR0
         4 025365   000377 376007                    ANQ     255,DL
         4 025366   000000 656100                    ERSQ    0,,PR0
         4 025367   025444 710000 4                  TRA     s:21933

     4335    21914
     4336    21915    5            SELECT(77 /* TMNALG_PRM8 */) ;

     4337    21916    5            SBINS( 0 ) = 0 ;

  21916  4 025370   200007 450100                    STZ     SBINS,,AUTO

     4338    21917    5            SPLIT$ = ADDR(SBINS( 0 )) ;

  21917  4 025371   200007 630500                    EPPR0   SBINS,,AUTO
         4 025372   200143 450500                    STP0    SPLIT$,,AUTO

     4339    21918    5            KL$UBWORD.NUM = TCCHR$ -> KL$CCHR.TMNALG_PRM8 ;

  21918  4 025373   000137 471400 2                  LDP1    TCCHR$
         4 025374   000100 100500                    MLR     fill='000'O
         4 025375   100007 000002                    ADSC9   7,,PR1                   cn=0,n=2
         4 025376   200005 400002                    ADSC9   KL$UBWORD,,AUTO          cn=2,n=2
PL6.E3A0      #001=ASL$DISP_ONE_PROFILE File=ASL$L_PRO.:E05TSI                   TUE 07/29/97 10:26 Page:696

     4340    21919    5            SPLIT$ -> KL$UWORD.T = KL$UBWORD.REPLACE.T ;

  21919  4 025377   200005 236100                    LDQ     KL$UBWORD,,AUTO
         4 025400   377000 376007                    ANQ     130560,DL
         4 025401   000001 772000                    QRL     1
         4 025402   000000 676100                    ERQ     0,,PR0
         4 025403   000033 376000 5                  ANQ     27
         4 025404   000000 656100                    ERSQ    0,,PR0

     4341    21920    5            SPLIT$ -> KL$UWORD.B = KL$UBWORD.REPLACE.B ;

  21920  4 025405   200005 236100                    LDQ     KL$UBWORD,,AUTO
         4 025406   000000 676100                    ERQ     0,,PR0
         4 025407   000377 376007                    ANQ     255,DL
         4 025410   000000 656100                    ERSQ    0,,PR0
         4 025411   025444 710000 4                  TRA     s:21933

     4342    21921
     4343    21922    5            SELECT ( 201 /* L_TRANS_DEL */ );

     4344    21923
     4345    21924    5            SBINS( 0 ) = 0 ;

  21924  4 025412   200007 450100                    STZ     SBINS,,AUTO

     4346    21925    5            SPLIT$ = ADDR (SBINS( 0 )) ;

  21925  4 025413   200007 630500                    EPPR0   SBINS,,AUTO
         4 025414   200143 450500                    STP0    SPLIT$,,AUTO

     4347    21926    5            KL$UBWORD.NUM = BITBIN (VIRCIR$ -> KL$VIRCIR.TRADEL) ;

  21926  4 025415   000143 471400 2                  LDP1    VIRCIR$
         4 025416   000100 101500                    MRL     fill='000'O
         4 025417   100000 000002                    ADSC9   0,,PR1                   cn=0,n=2
         4 025420   200366 000004                    ADSC9   TEMP+4,,AUTO             cn=0,n=4
PL6.E3A0      #001=ASL$DISP_ONE_PROFILE File=ASL$L_PRO.:E05TSI                   TUE 07/29/97 10:26 Page:697
         4 025421   200366 236100                    LDQ     TEMP+4,,AUTO
         4 025422   000000 620006                    EAX0    0,QL
         4 025423   200005 440100                    SXL0    KL$UBWORD,,AUTO

     4348    21927    5            SPLIT$ -> KL$UWORD.T = KL$UBWORD.REPLACE.T ;

  21927  4 025424   200005 236100                    LDQ     KL$UBWORD,,AUTO
         4 025425   377000 376007                    ANQ     130560,DL
         4 025426   000001 772000                    QRL     1
         4 025427   000000 676100                    ERQ     0,,PR0
         4 025430   000033 376000 5                  ANQ     27
         4 025431   000000 656100                    ERSQ    0,,PR0

     4349    21928    5            SPLIT$ -> KL$UWORD.B = KL$UBWORD.REPLACE.B ;

  21928  4 025432   200005 236100                    LDQ     KL$UBWORD,,AUTO
         4 025433   000000 676100                    ERQ     0,,PR0
         4 025434   000377 376007                    ANQ     255,DL
         4 025435   000000 656100                    ERSQ    0,,PR0

     4350    21929    5            FMT_VEC ( 0 ) = VECTOR ( SBINS ( 0 ) );

  21929  4 025436   777640 235007                    LDA     -96,DL
         4 025437   200366 452500                    STP2    TEMP+4,,AUTO
         4 025440   200366 236100                    LDQ     TEMP+4,,AUTO
         4 025441   000007 036003                    ADLQ    7,DU
         4 025442   000000 755000 xsym               STA     FMT_VEC
         4 025443   000001 756000 xsym               STQ     FMT_VEC+1

     4351    21930
     4352    21931    5            END ;                    /* Do case                            */

     4353    21932
     4354    21933    5         DO SELECT (ASL_PRO_OPT_TBL.FMT_IDX (NEXT) );

  21933  4 025444   200161 235100                    LDA     NEXT,,AUTO
         4 025445   000003 735000                    ALS     3
PL6.E3A0      #001=ASL$DISP_ONE_PROFILE File=ASL$L_PRO.:E05TSI                   TUE 07/29/97 10:26 Page:698
         4 025446   000007 236005 xsym               LDQ     ASL_PRO_OPT_TBL+7,AL
         4 025447   000777 376007                    ANQ     511,DL
         4 025450   000032 116007                    CMPQ    26,DL
         4 025451   025461 602000 4                  TNC     s:21933+13
         4 025452   025527 600000 4                  TZE     s:21946
         4 025453   000033 116007                    CMPQ    27,DL
         4 025454   025653 602000 4                  TNC     s:21971
         4 025455   025470 600000 4                  TZE     s:21937
         4 025456   000034 116007                    CMPQ    28,DL
         4 025457   025653 601000 4                  TNZ     s:21971
         4 025460   025651 710000 4                  TRA     s:21967
         4 025461   000031 116007                    CMPQ    25,DL
         4 025462   025465 602000 4                  TNC     s:21933+17
         4 025463   025576 600000 4                  TZE     s:21955
         4 025464   025653 710000 4                  TRA     s:21971
         4 025465   000017 116007                    CMPQ    15,DL
         4 025466   025653 601000 4                  TNZ     s:21971
         4 025467   025651 710000 4                  TRA     s:21967

     4355    21934
     4356    21935    5            SELECT (27 /* C_SPECIAL */);

     4357    21936
     4358    21937    5            CALL INDEX (I,' ',POSITION);

  21937  4 025470   000000 124500                    SCM     mask='000'O
         4 025471   200264 000014                    ADSC9   POSITION,,AUTO           cn=0,n=12
         4 025472   000035 000001 xsym               ADSC9   B_VECTNIL+29             cn=0,n=1
         4 025473   200156 000100                    ARG     I,,AUTO

     4359    21938    5            SUBSTR (FMT_BUF, FDS.FMT_.BOUND+1, I ) = SUBSTR (POSITION, 0, I );

  21938  4 025474   000000 236000 xsym               LDQ     FDS
         4 025475   000020 772000                    QRL     16
         4 025476   200156 720100                    LXL0    I,,AUTO
         4 025477   040046 100540                    MLR     fill='040'O
         4 025500   200264 000010                    ADSC9   POSITION,,AUTO           cn=0,n=*X0
PL6.E3A0      #001=ASL$DISP_ONE_PROFILE File=ASL$L_PRO.:E05TSI                   TUE 07/29/97 10:26 Page:699
         4 025501   000000 200010 xsym               ADSC9   FMT_BUF,Q                cn=1,n=*X0

     4360    21939    5            FDS.FMT_.BOUND = FDS.FMT_.BOUND + I;

  21939  4 025502   200156 036100                    ADLQ    I,,AUTO
         4 025503   000020 736000                    QLS     16
         4 025504   000000 676000 xsym               ERQ     FDS
         4 025505   000034 376000 xsym               ANQ     B_VECTNIL+28
         4 025506   000000 656000 xsym               ERSQ    FDS

     4361    21940    5            CALL INDEX (I,';',FORMAT);

  21940  4 025507   000000 124500                    SCM     mask='000'O
         4 025510   200164 000377                    ADSC9   FORMAT,,AUTO             cn=0,n=255
         4 025511   000315 000001 5                  ADSC9   205                      cn=0,n=1
         4 025512   200156 000100                    ARG     I,,AUTO

     4362    21941    5            SUBSTR (FMT_BUF, FDS.FMT_.BOUND+1, I ) = SUBSTR (FORMAT, 0, I );

  21941  4 025513   000000 236000 xsym               LDQ     FDS
         4 025514   000020 772000                    QRL     16
         4 025515   200156 720100                    LXL0    I,,AUTO
         4 025516   040046 100540                    MLR     fill='040'O
         4 025517   200164 000010                    ADSC9   FORMAT,,AUTO             cn=0,n=*X0
         4 025520   000000 200010 xsym               ADSC9   FMT_BUF,Q                cn=1,n=*X0

     4363    21942    5            FDS.FMT_.BOUND = FDS.FMT_.BOUND + I;

  21942  4 025521   200156 036100                    ADLQ    I,,AUTO
         4 025522   000020 736000                    QLS     16
         4 025523   000000 676000 xsym               ERQ     FDS
         4 025524   000034 376000 xsym               ANQ     B_VECTNIL+28
         4 025525   000000 656000 xsym               ERSQ    FDS
         4 025526   025750 710000 4                  TRA     s:21983

     4364    21943
     4365    21944    5            SELECT (26 /* C_SPECIAL_POSITION */);
PL6.E3A0      #001=ASL$DISP_ONE_PROFILE File=ASL$L_PRO.:E05TSI                   TUE 07/29/97 10:26 Page:700

     4366    21945
     4367    21946    5            CALL INDEX (I,' ',POSITION);

  21946  4 025527   000000 124500                    SCM     mask='000'O
         4 025530   200264 000014                    ADSC9   POSITION,,AUTO           cn=0,n=12
         4 025531   000035 000001 xsym               ADSC9   B_VECTNIL+29             cn=0,n=1
         4 025532   200156 000100                    ARG     I,,AUTO

     4368    21947    5            SUBSTR (FMT_BUF, FDS.FMT_.BOUND+1, I ) = SUBSTR (POSITION, 0, I );

  21947  4 025533   000000 236000 xsym               LDQ     FDS
         4 025534   000020 772000                    QRL     16
         4 025535   200156 720100                    LXL0    I,,AUTO
         4 025536   040046 100540                    MLR     fill='040'O
         4 025537   200264 000010                    ADSC9   POSITION,,AUTO           cn=0,n=*X0
         4 025540   000000 200010 xsym               ADSC9   FMT_BUF,Q                cn=1,n=*X0

     4369    21948    5            FDS.FMT_.BOUND = FDS.FMT_.BOUND + I;

  21948  4 025541   200156 036100                    ADLQ    I,,AUTO
         4 025542   000020 736000                    QLS     16
         4 025543   000000 676000 xsym               ERQ     FDS
         4 025544   000034 376000 xsym               ANQ     B_VECTNIL+28
         4 025545   000000 656000 xsym               ERSQ    FDS

     4370    21949    5            CALL INDEX (I, ' ', FMT_TABLE ( CLASS ) );

  21949  4 025546   200155 236100                    LDQ     CLASS,,AUTO
         4 025547   000036 402007                    MPY     30,DL
         4 025550   000000 124406                    SCM     mask='000'O
         4 025551   000000 000036 3                  ADSC9   FMT_TABLE,Q              cn=0,n=30
         4 025552   000035 000001 xsym               ADSC9   B_VECTNIL+29             cn=0,n=1
         4 025553   200156 000100                    ARG     I,,AUTO

     4371    21950    5           SUBSTR (FMT_BUF, FDS.FMT_.BOUND+1, I ) = SUBSTR (FMT_TABLE( CLASS ), 0, I )
             21950                     ;
PL6.E3A0      #001=ASL$DISP_ONE_PROFILE File=ASL$L_PRO.:E05TSI                   TUE 07/29/97 10:26 Page:701

  21950  4 025554   000000 236000 xsym               LDQ     FDS
         4 025555   000020 772000                    QRL     16
         4 025556   200366 756100                    STQ     TEMP+4,,AUTO
         4 025557   200155 236100                    LDQ     CLASS,,AUTO
         4 025560   000036 402007                    MPY     30,DL
         4 025561   200156 720100                    LXL0    I,,AUTO
         4 025562   200366 235100                    LDA     TEMP+4,,AUTO
         4 025563   040045 100446                    MLR     fill='040'O
         4 025564   000000 000010 3                  ADSC9   FMT_TABLE,Q              cn=0,n=*X0
         4 025565   000000 200010 xsym               ADSC9   FMT_BUF,A                cn=1,n=*X0

     4372    21951    5            FDS.FMT_.BOUND = FDS.FMT_.BOUND + I;

  21951  4 025566   000000 236000 xsym               LDQ     FDS
         4 025567   000020 772000                    QRL     16
         4 025570   200156 036100                    ADLQ    I,,AUTO
         4 025571   000020 736000                    QLS     16
         4 025572   000000 676000 xsym               ERQ     FDS
         4 025573   000034 376000 xsym               ANQ     B_VECTNIL+28
         4 025574   000000 656000 xsym               ERSQ    FDS
         4 025575   025750 710000 4                  TRA     s:21983

     4373    21952
     4374    21953    5            SELECT (25 /* C_SPECIAL_FORMAT */);

     4375    21954
     4376    21955    5            CALL INDEX (I, ' ', ASL_PRO_OPT_TBL.POS(NEXT));

  21955  4 025576   200161 235100                    LDA     NEXT,,AUTO
         4 025577   000005 735000                    ALS     5
         4 025600   000000 124405                    SCM     mask='000'O
         4 025601   000005 600010 xsym               ADSC9   ASL_PRO_OPT_TBL+5,A      cn=3,n=8
         4 025602   000035 000001 xsym               ADSC9   B_VECTNIL+29             cn=0,n=1
         4 025603   200156 000100                    ARG     I,,AUTO

     4377    21956    5            SUBSTR (FMT_BUF, FDS.FMT_.BOUND+1, 1 ) = '%';
PL6.E3A0      #001=ASL$DISP_ONE_PROFILE File=ASL$L_PRO.:E05TSI                   TUE 07/29/97 10:26 Page:702

  21956  4 025604   000000 236000 xsym               LDQ     FDS
         4 025605   000020 772000                    QRL     16
         4 025606   040006 100400                    MLR     fill='040'O
         4 025607   000332 000001 5                  ADSC9   218                      cn=0,n=1
         4 025610   000000 200001 xsym               ADSC9   FMT_BUF,Q                cn=1,n=1

     4378    21957    5           SUBSTR (FMT_BUF, FDS.FMT_.BOUND+2, I ) = SUBSTR (ASL_PRO_OPT_TBL.POS(NEXT),
             21957                     0, I );

  21957  4 025611   200156 720100                    LXL0    I,,AUTO
         4 025612   040046 100445                    MLR     fill='040'O
         4 025613   000005 600010 xsym               ADSC9   ASL_PRO_OPT_TBL+5,A      cn=3,n=*X0
         4 025614   000000 400010 xsym               ADSC9   FMT_BUF,Q                cn=2,n=*X0

     4379    21958    5            SUBSTR (FMT_BUF, FDS.FMT_.BOUND+I+2, 1 ) = 'P';

  21958  4 025615   200156 036100                    ADLQ    I,,AUTO
         4 025616   040006 100400                    MLR     fill='040'O
         4 025617   000333 000001 5                  ADSC9   219                      cn=0,n=1
         4 025620   000000 400001 xsym               ADSC9   FMT_BUF,Q                cn=2,n=1

     4380    21959    5            FDS.FMT_.BOUND = FDS.FMT_.BOUND + I + 2;

  21959  4 025621   000000 236000 xsym               LDQ     FDS
         4 025622   000020 772000                    QRL     16
         4 025623   200156 036100                    ADLQ    I,,AUTO
         4 025624   000002 036007                    ADLQ    2,DL
         4 025625   000020 736000                    QLS     16
         4 025626   000000 676000 xsym               ERQ     FDS
         4 025627   000034 376000 xsym               ANQ     B_VECTNIL+28
         4 025630   000000 656000 xsym               ERSQ    FDS

     4381    21960    5            CALL INDEX (I,';',FORMAT);

  21960  4 025631   000000 124500                    SCM     mask='000'O
         4 025632   200164 000377                    ADSC9   FORMAT,,AUTO             cn=0,n=255
PL6.E3A0      #001=ASL$DISP_ONE_PROFILE File=ASL$L_PRO.:E05TSI                   TUE 07/29/97 10:26 Page:703
         4 025633   000315 000001 5                  ADSC9   205                      cn=0,n=1
         4 025634   200156 000100                    ARG     I,,AUTO

     4382    21961    5            SUBSTR (FMT_BUF, FDS.FMT_.BOUND+1, I ) = SUBSTR (FORMAT, 0, I );

  21961  4 025635   000000 236000 xsym               LDQ     FDS
         4 025636   000020 772000                    QRL     16
         4 025637   200156 720100                    LXL0    I,,AUTO
         4 025640   040046 100540                    MLR     fill='040'O
         4 025641   200164 000010                    ADSC9   FORMAT,,AUTO             cn=0,n=*X0
         4 025642   000000 200010 xsym               ADSC9   FMT_BUF,Q                cn=1,n=*X0

     4383    21962    5            FDS.FMT_.BOUND = FDS.FMT_.BOUND + I;

  21962  4 025643   200156 036100                    ADLQ    I,,AUTO
         4 025644   000020 736000                    QLS     16
         4 025645   000000 676000 xsym               ERQ     FDS
         4 025646   000034 376000 xsym               ANQ     B_VECTNIL+28
         4 025647   000000 656000 xsym               ERSQ    FDS
         4 025650   025750 710000 4                  TRA     s:21983

     4384    21963
     4385    21964    5            SELECT (28 /* C_ALL_DONE */,

     4386    21965    5                 15 /*C_HEX_LIST */ );
     4387    21966
     4388    21967    5            CLASS = ASL_PRO_OPT_TBL.FMT_IDX(NEXT);

  21967  4 025651   200155 756100                    STQ     CLASS,,AUTO
         4 025652   025750 710000 4                  TRA     s:21983

     4389    21968
     4390    21969    5            SELECT (ELSE);

     4391    21970
     4392    21971    5         CALL INDEX (I, ' ', ASL_PRO_OPT_TBL.POS(NEXT));

PL6.E3A0      #001=ASL$DISP_ONE_PROFILE File=ASL$L_PRO.:E05TSI                   TUE 07/29/97 10:26 Page:704
  21971  4 025653   200161 235100                    LDA     NEXT,,AUTO
         4 025654   000005 735000                    ALS     5
         4 025655   000000 124405                    SCM     mask='000'O
         4 025656   000005 600010 xsym               ADSC9   ASL_PRO_OPT_TBL+5,A      cn=3,n=8
         4 025657   000035 000001 xsym               ADSC9   B_VECTNIL+29             cn=0,n=1
         4 025660   200156 000100                    ARG     I,,AUTO

     4393    21972    5         SUBSTR (FMT_BUF, FDS.FMT_.BOUND+1, 1 ) = '%';

  21972  4 025661   000000 236000 xsym               LDQ     FDS
         4 025662   000020 772000                    QRL     16
         4 025663   040006 100400                    MLR     fill='040'O
         4 025664   000332 000001 5                  ADSC9   218                      cn=0,n=1
         4 025665   000000 200001 xsym               ADSC9   FMT_BUF,Q                cn=1,n=1

     4394    21973    5        SUBSTR (FMT_BUF, FDS.FMT_.BOUND+2, I ) = SUBSTR (ASL_PRO_OPT_TBL.POS(NEXT), 0,
             21973                  I );

  21973  4 025666   200156 720100                    LXL0    I,,AUTO
         4 025667   040046 100445                    MLR     fill='040'O
         4 025670   000005 600010 xsym               ADSC9   ASL_PRO_OPT_TBL+5,A      cn=3,n=*X0
         4 025671   000000 400010 xsym               ADSC9   FMT_BUF,Q                cn=2,n=*X0

     4395    21974    5         SUBSTR (FMT_BUF, FDS.FMT_.BOUND+I+2, 1 ) = 'P';

  21974  4 025672   200156 036100                    ADLQ    I,,AUTO
         4 025673   040006 100400                    MLR     fill='040'O
         4 025674   000333 000001 5                  ADSC9   219                      cn=0,n=1
         4 025675   000000 400001 xsym               ADSC9   FMT_BUF,Q                cn=2,n=1

     4396    21975    5         FDS.FMT_.BOUND = FDS.FMT_.BOUND + I + 2;

  21975  4 025676   000000 236000 xsym               LDQ     FDS
         4 025677   000020 772000                    QRL     16
         4 025700   200156 036100                    ADLQ    I,,AUTO
         4 025701   000002 036007                    ADLQ    2,DL
         4 025702   000020 736000                    QLS     16
PL6.E3A0      #001=ASL$DISP_ONE_PROFILE File=ASL$L_PRO.:E05TSI                   TUE 07/29/97 10:26 Page:705
         4 025703   000000 676000 xsym               ERQ     FDS
         4 025704   000034 376000 xsym               ANQ     B_VECTNIL+28
         4 025705   000000 656000 xsym               ERSQ    FDS

     4397    21976    5         CALL INDEX (I, ' ', FMT_TABLE (ASL_PRO_OPT_TBL.FMT_IDX(NEXT)));

  21976  4 025706   200161 236100                    LDQ     NEXT,,AUTO
         4 025707   000003 736000                    QLS     3
         4 025710   000007 236006 xsym               LDQ     ASL_PRO_OPT_TBL+7,QL
         4 025711   000777 376007                    ANQ     511,DL
         4 025712   000036 402007                    MPY     30,DL
         4 025713   000000 124406                    SCM     mask='000'O
         4 025714   000000 000036 3                  ADSC9   FMT_TABLE,Q              cn=0,n=30
         4 025715   000035 000001 xsym               ADSC9   B_VECTNIL+29             cn=0,n=1
         4 025716   200156 000100                    ARG     I,,AUTO

     4398    21977    5         SUBSTR (FMT_BUF, FDS.FMT_.BOUND+1, I ) = SUBSTR (FMT_TABLE(ASL_PRO_OPT_TBL.
             21977                  FMT_IDX(NEXT)), 0, I );

  21977  4 025717   000000 236000 xsym               LDQ     FDS
         4 025720   000020 772000                    QRL     16
         4 025721   200161 235100                    LDA     NEXT,,AUTO
         4 025722   000003 735000                    ALS     3
         4 025723   200366 756100                    STQ     TEMP+4,,AUTO
         4 025724   000007 236005 xsym               LDQ     ASL_PRO_OPT_TBL+7,AL
         4 025725   000777 376007                    ANQ     511,DL
         4 025726   000036 402007                    MPY     30,DL
         4 025727   200156 720100                    LXL0    I,,AUTO
         4 025730   200366 235100                    LDA     TEMP+4,,AUTO
         4 025731   040045 100446                    MLR     fill='040'O
         4 025732   000000 000010 3                  ADSC9   FMT_TABLE,Q              cn=0,n=*X0
         4 025733   000000 200010 xsym               ADSC9   FMT_BUF,A                cn=1,n=*X0

     4399    21978    5         FDS.FMT_.BOUND = FDS.FMT_.BOUND + I;

  21978  4 025734   000000 236000 xsym               LDQ     FDS
         4 025735   000020 772000                    QRL     16
PL6.E3A0      #001=ASL$DISP_ONE_PROFILE File=ASL$L_PRO.:E05TSI                   TUE 07/29/97 10:26 Page:706
         4 025736   200156 036100                    ADLQ    I,,AUTO
         4 025737   000020 736000                    QLS     16
         4 025740   000000 676000 xsym               ERQ     FDS
         4 025741   000034 376000 xsym               ANQ     B_VECTNIL+28
         4 025742   000000 656000 xsym               ERSQ    FDS

     4400    21979    5         CLASS = ASL_PRO_OPT_TBL.FMT_IDX(NEXT);

  21979  4 025743   200161 235100                    LDA     NEXT,,AUTO
         4 025744   000003 735000                    ALS     3
         4 025745   000007 236005 xsym               LDQ     ASL_PRO_OPT_TBL+7,AL
         4 025746   000777 376007                    ANQ     511,DL
         4 025747   200155 756100                    STQ     CLASS,,AUTO

     4401    21980
     4402    21981    5            END; /* Do case ( .FMT_IDX )  */

     4403    21982
     4404    21983    5      DO SELECT( CLASS ) ;

  21983  4 025750   200155 236100                    LDQ     CLASS,,AUTO
         4 025751   000006 116007                    CMPQ    6,DL
         4 025752   026020 604000 4                  TMI     s:21983+40
         4 025753   026037 600000 4                  TZE     s:22000
         4 025754   000014 116007                    CMPQ    12,DL
         4 025755   026001 604000 4                  TMI     s:21983+25
         4 025756   026037 600000 4                  TZE     s:22000
         4 025757   000020 116007                    CMPQ    16,DL
         4 025760   025770 604000 4                  TMI     s:21983+16
         4 025761   026037 600000 4                  TZE     s:22000
         4 025762   000021 116007                    CMPQ    17,DL
         4 025763   026342 604000 4                  TMI     s:22085
         4 025764   026132 600000 4                  TZE     s:22021
         4 025765   000034 116007                    CMPQ    28,DL
         4 025766   026342 601000 4                  TNZ     s:22085
         4 025767   026342 710000 4                  TRA     s:22085
         4 025770   000016 116007                    CMPQ    14,DL
PL6.E3A0      #001=ASL$DISP_ONE_PROFILE File=ASL$L_PRO.:E05TSI                   TUE 07/29/97 10:26 Page:707
         4 025771   025776 604000 4                  TMI     s:21983+22
         4 025772   026037 600000 4                  TZE     s:22000
         4 025773   000017 116007                    CMPQ    15,DL
         4 025774   026342 601000 4                  TNZ     s:22085
         4 025775   026105 710000 4                  TRA     s:22015
         4 025776   000015 116007                    CMPQ    13,DL
         4 025777   026342 601000 4                  TNZ     s:22085
         4 026000   026052 710000 4                  TRA     s:22004
         4 026001   000010 116007                    CMPQ    8,DL
         4 026002   026015 604000 4                  TMI     s:21983+37
         4 026003   026037 600000 4                  TZE     s:22000
         4 026004   000012 116007                    CMPQ    10,DL
         4 026005   026012 604000 4                  TMI     s:21983+34
         4 026006   026037 600000 4                  TZE     s:22000
         4 026007   000013 116007                    CMPQ    11,DL
         4 026010   026342 601000 4                  TNZ     s:22085
         4 026011   026037 710000 4                  TRA     s:22000
         4 026012   000011 116007                    CMPQ    9,DL
         4 026013   026342 601000 4                  TNZ     s:22085
         4 026014   026037 710000 4                  TRA     s:22000
         4 026015   000007 116007                    CMPQ    7,DL
         4 026016   026342 601000 4                  TNZ     s:22085
         4 026017   026037 710000 4                  TRA     s:22000
         4 026020   000004 116007                    CMPQ    4,DL
         4 026021   026026 604000 4                  TMI     s:21983+46
         4 026022   026037 600000 4                  TZE     s:22000
         4 026023   000005 116007                    CMPQ    5,DL
         4 026024   026342 601000 4                  TNZ     s:22085
         4 026025   026037 710000 4                  TRA     s:22000
         4 026026   000002 116007                    CMPQ    2,DL
         4 026027   026034 604000 4                  TMI     s:21983+52
         4 026030   026037 600000 4                  TZE     s:22000
         4 026031   000003 116007                    CMPQ    3,DL
         4 026032   026342 601000 4                  TNZ     s:22085
         4 026033   026037 710000 4                  TRA     s:22000
         4 026034   000001 116007                    CMPQ    1,DL
         4 026035   026342 601000 4                  TNZ     s:22085
PL6.E3A0      #001=ASL$DISP_ONE_PROFILE File=ASL$L_PRO.:E05TSI                   TUE 07/29/97 10:26 Page:708
         4 026036   026037 710000 4                  TRA     s:22000

     4405    21984
     4406    21985    5         SELECT ( 1 /* C_TEXT */,

     4407    21986    5              2 /* C_YESNO */,
     4408    21987    5              12 /* C_SBIN */,
     4409    21988    5              14 /* C_HEX */,
     4410    21989    5              16 /* C_VDH_ALG_TYPE */,
     4411    21990    5              3  /* C_YESNODC */,
     4412    21991    5              4 /* C_8BIT_DC */,
     4413    21992    5              5 /* C_BYTE_DC */,
     4414    21993    5              6 /* C_WORD_DC */,
     4415    21994    5              7 /* C_2BIT_UBIN */,
     4416    21995    5              8 /* C_4BIT_UBIN */,
     4417    21996    5              9 /* C_7BIT_UBIN */,
     4418    21997    5              10 /* C_BYTE_UBIN */,
     4419    21998    5              11 /* C_18BIT_UBIN */ );
     4420    21999
     4421    22000    5         SUBSTR (FMT_BUF, FDS.FMT_.BOUND+1, 3 ) = '%2P';

  22000  4 026037   000000 236000 xsym               LDQ     FDS
         4 026040   000020 772000                    QRL     16
         4 026041   040006 100400                    MLR     fill='040'O
         4 026042   004434 000003 3                  ADSC9   FUNKEY_NAMES+1841        cn=0,n=3
         4 026043   000000 200003 xsym               ADSC9   FMT_BUF,Q                cn=1,n=3

     4422    22001    5         FDS.FMT_.BOUND = FDS.FMT_.BOUND + 3;

  22001  4 026044   000003 036007                    ADLQ    3,DL
         4 026045   000020 736000                    QLS     16
         4 026046   000000 676000 xsym               ERQ     FDS
         4 026047   000034 376000 xsym               ANQ     B_VECTNIL+28
         4 026050   000000 656000 xsym               ERSQ    FDS
         4 026051   026342 710000 4                  TRA     s:22085

     4423    22002
PL6.E3A0      #001=ASL$DISP_ONE_PROFILE File=ASL$L_PRO.:E05TSI                   TUE 07/29/97 10:26 Page:709
     4424    22003    5         SELECT(13 /* C_REAL */) ;

     4425    22004    5         SVAL = SBINS(0)/10 ;

  22004  4 026052   200007 236100                    LDQ     SBINS,,AUTO
         4 026053   000012 506007                    DIV     10,DL
         4 026054   200163 756100                    STQ     SVAL,,AUTO

     4426    22005    5         SBINS(1) = SBINS(0) - SVAL*10 ;

  22005  4 026055   000241 402000 5                  MPY     161
         4 026056   200007 036100                    ADLQ    SBINS,,AUTO
         4 026057   200010 756100                    STQ     SBINS+1,,AUTO

     4427    22006    5         SBINS(0) = SVAL ;

  22006  4 026060   200163 235100                    LDA     SVAL,,AUTO
         4 026061   200007 755100                    STA     SBINS,,AUTO

     4428    22007    5         IF SBINS(1)<0

  22007  4 026062   000000 116003                    CMPQ    0,DU
         4 026063   026066 605000 4                  TPL     s:22010

     4429    22008    5         THEN
     4430    22009    5            SBINS(1) = SBINS(1)*-1 ;

  22009  4 026064   200010 335100                    LCA     SBINS+1,,AUTO
         4 026065   200010 755100                    STA     SBINS+1,,AUTO

     4431    22010    5         FMT_VEC( 0 ) = VECTOR(SBINS(0)) ;

  22010  4 026066   777640 235007                    LDA     -96,DL
         4 026067   200366 452500                    STP2    TEMP+4,,AUTO
         4 026070   200366 236100                    LDQ     TEMP+4,,AUTO
         4 026071   000007 036003                    ADLQ    7,DU
         4 026072   000000 755000 xsym               STA     FMT_VEC
PL6.E3A0      #001=ASL$DISP_ONE_PROFILE File=ASL$L_PRO.:E05TSI                   TUE 07/29/97 10:26 Page:710
         4 026073   000001 756000 xsym               STQ     FMT_VEC+1

     4432    22011    5         FMT_VEC( 1 ) = VECTOR(SBINS(1)) ;

  22011  4 026074   777640 235007                    LDA     -96,DL
         4 026075   200366 452500                    STP2    TEMP+4,,AUTO
         4 026076   200366 236100                    LDQ     TEMP+4,,AUTO
         4 026077   000010 036003                    ADLQ    8,DU
         4 026100   000002 755000 xsym               STA     FMT_VEC+2
         4 026101   000003 756000 xsym               STQ     FMT_VEC+3

     4433    22012    5         FDS.NVECS# = 2 ;

  22012  4 026102   000002 235007                    LDA     2,DL
         4 026103   000011 755000 xsym               STA     FDS+9
         4 026104   026342 710000 4                  TRA     s:22085

     4434    22013
     4435    22014    5         SELECT(15 /*C_HEX_LIST */) ;

     4436    22015    5         IF PTR$ -> ABYTE ~= 0 THEN

  22015  4 026105   200153 470500                    LDP0    PTR$,,AUTO
         4 026106   000100 101500                    MRL     fill='000'O
         4 026107   000000 000001                    ADSC9   0,,PR0                   cn=0,n=1
         4 026110   200366 000004                    ADSC9   TEMP+4,,AUTO             cn=0,n=4
         4 026111   200366 236100                    LDQ     TEMP+4,,AUTO
         4 026112   000000 116003                    CMPQ    0,DU
         4 026113   026124 600000 4                  TZE     s:22017

     4437    22016    5            PTR$ = PINCRC (ADDR(TCCHR$->KL$CCHR.TXT_UBIN),PTR$->ABYTE);

  22016  4 026114   000100 101500                    MRL     fill='000'O
         4 026115   000000 000001                    ADSC9   0,,PR0                   cn=0,n=1
         4 026116   200366 000004                    ADSC9   TEMP+4,,AUTO             cn=0,n=4
         4 026117   200366 236100                    LDQ     TEMP+4,,AUTO
         4 026120   000020 736000                    QLS     16
PL6.E3A0      #001=ASL$DISP_ONE_PROFILE File=ASL$L_PRO.:E05TSI                   TUE 07/29/97 10:26 Page:711
         4 026121   000236 036000 5                  ADLQ    158
         4 026122   000137 036000 2                  ADLQ    TCCHR$
         4 026123   200153 756100                    STQ     PTR$,,AUTO

     4438    22017    5         FDS.NVECS# = 0;

  22017  4 026124   000011 450000 xsym               STZ     FDS+9

     4439    22018    5         CALL DO_HEX_LIST (PTR$);

  22018  4 026125   200153 630500                    EPPR0   PTR$,,AUTO
         4 026126   200273 450500                    STP0    J,,AUTO
         4 026127   016273 701000 4                  TSX1    DO_HEX_LIST
         4 026130   000000 011000                    NOP     0
         4 026131   026342 710000 4                  TRA     s:22085

     4440    22019
     4441    22020    5         SELECT( 17 /* C_ABSGRPRND */ );

     4442    22021    5         FIRST = %YES#;

  22021  4 026132   400000 236003                    LDQ     -131072,DU
         4 026133   200267 756100                    STQ     FIRST,,AUTO

     4443    22022    6         DO I = 18 /* C_ABSGRPRND_DCRINT */ TO 24 /* C_ABSGRPRND_UNDSCR */;

  22022  4 026134   000022 235007                    LDA     18,DL
         4 026135   200156 755100                    STA     I,,AUTO

     4444    22023
     4445    22024    6            SET = %NO#;

  22024  4 026136   200270 450100                    STZ     SET,,AUTO

     4446    22025    7            DO SELECT ( I );

  22025  4 026137   200156 236100                    LDQ     I,,AUTO
PL6.E3A0      #001=ASL$DISP_ONE_PROFILE File=ASL$L_PRO.:E05TSI                   TUE 07/29/97 10:26 Page:712
         4 026140   000025 116007                    CMPQ    21,DL
         4 026141   026154 602000 4                  TNC     s:22025+13
         4 026142   026215 600000 4                  TZE     s:22044
         4 026143   000027 116007                    CMPQ    23,DL
         4 026144   026151 602000 4                  TNC     s:22025+10
         4 026145   026225 600000 4                  TZE     s:22049
         4 026146   000030 116007                    CMPQ    24,DL
         4 026147   026254 601000 4                  TNZ     s:22064
         4 026150   026245 710000 4                  TRA     s:22059
         4 026151   000026 116007                    CMPQ    22,DL
         4 026152   026254 601000 4                  TNZ     s:22064
         4 026153   026235 710000 4                  TRA     s:22054
         4 026154   000023 116007                    CMPQ    19,DL
         4 026155   026162 602000 4                  TNC     s:22025+19
         4 026156   026175 600000 4                  TZE     s:22034
         4 026157   000024 116007                    CMPQ    20,DL
         4 026160   026254 601000 4                  TNZ     s:22064
         4 026161   026205 710000 4                  TRA     s:22039
         4 026162   000022 116007                    CMPQ    18,DL
         4 026163   026254 601000 4                  TNZ     s:22064
         4 026164   026165 710000 4                  TRA     s:22029

     4447    22026
     4448    22027    7               SELECT ( 18 /* C_ABSGRPRND_DCRINT */ );

     4449    22028
     4450    22029    7               IF KL$ABSGRPRND.FLAGS.DCRINT# THEN

  22029  4 026165   000145 470400 2                  LDP0    KL_ABSGRPRND$
         4 026166   000000 066500                    CMPB    filb='0'B
         4 026167   000000 440001                    BDSC    0,,PR0                   by=2,bit=4,n=1
         4 026170   000002 000022 xsym               BDSC    B_VECTNIL+2              by=0,bit=0,n=18
         4 026171   026254 600000 4                  TZE     s:22064

     4451    22030    7                  SET = %YES#;

  22030  4 026172   400000 236003                    LDQ     -131072,DU
PL6.E3A0      #001=ASL$DISP_ONE_PROFILE File=ASL$L_PRO.:E05TSI                   TUE 07/29/97 10:26 Page:713
         4 026173   200270 756100                    STQ     SET,,AUTO
         4 026174   026254 710000 4                  TRA     s:22064

     4452    22031
     4453    22032    7               SELECT ( 19 /* C_ABSGRPRND_FSTBLN */ );

     4454    22033
     4455    22034    7               IF KL$ABSGRPRND.FLAGS.FSTBLN# THEN

  22034  4 026175   000145 470400 2                  LDP0    KL_ABSGRPRND$
         4 026176   000000 066500                    CMPB    filb='0'B
         4 026177   000000 470001                    BDSC    0,,PR0                   by=2,bit=7,n=1
         4 026200   000002 000022 xsym               BDSC    B_VECTNIL+2              by=0,bit=0,n=18
         4 026201   026254 600000 4                  TZE     s:22064

     4456    22035    7                  SET = %YES#;

  22035  4 026202   400000 236003                    LDQ     -131072,DU
         4 026203   200270 756100                    STQ     SET,,AUTO
         4 026204   026254 710000 4                  TRA     s:22064

     4457    22036
     4458    22037    7               SELECT ( 20 /* C_ABSGRPRND_HDN */ );

     4459    22038
     4460    22039    7               IF KL$ABSGRPRND.FLAGS.HDN# THEN

  22039  4 026205   000145 470400 2                  LDP0    KL_ABSGRPRND$
         4 026206   000000 066500                    CMPB    filb='0'B
         4 026207   000000 420001                    BDSC    0,,PR0                   by=2,bit=2,n=1
         4 026210   000002 000022 xsym               BDSC    B_VECTNIL+2              by=0,bit=0,n=18
         4 026211   026254 600000 4                  TZE     s:22064

     4461    22040    7                  SET = %YES#;

  22040  4 026212   400000 236003                    LDQ     -131072,DU
         4 026213   200270 756100                    STQ     SET,,AUTO
PL6.E3A0      #001=ASL$DISP_ONE_PROFILE File=ASL$L_PRO.:E05TSI                   TUE 07/29/97 10:26 Page:714
         4 026214   026254 710000 4                  TRA     s:22064

     4462    22041
     4463    22042    7               SELECT ( 21 /* C_ABSGRPRND_INCINT */ );

     4464    22043
     4465    22044    7               IF KL$ABSGRPRND.FLAGS.INCINT# THEN

  22044  4 026215   000145 470400 2                  LDP0    KL_ABSGRPRND$
         4 026216   000000 066500                    CMPB    filb='0'B
         4 026217   000000 430001                    BDSC    0,,PR0                   by=2,bit=3,n=1
         4 026220   000002 000022 xsym               BDSC    B_VECTNIL+2              by=0,bit=0,n=18
         4 026221   026254 600000 4                  TZE     s:22064

     4466    22045    7                  SET = %YES#;

  22045  4 026222   400000 236003                    LDQ     -131072,DU
         4 026223   200270 756100                    STQ     SET,,AUTO
         4 026224   026254 710000 4                  TRA     s:22064

     4467    22046
     4468    22047    7               SELECT ( 23 /* C_ABSGRPRND_SLWBLN */ );

     4469    22048
     4470    22049    7               IF KL$ABSGRPRND.FLAGS.SLWBLN# THEN

  22049  4 026225   000145 470400 2                  LDP0    KL_ABSGRPRND$
         4 026226   000000 066500                    CMPB    filb='0'B
         4 026227   000000 460001                    BDSC    0,,PR0                   by=2,bit=6,n=1
         4 026230   000002 000022 xsym               BDSC    B_VECTNIL+2              by=0,bit=0,n=18
         4 026231   026254 600000 4                  TZE     s:22064

     4471    22050    7                  SET = %YES#;

  22050  4 026232   400000 236003                    LDQ     -131072,DU
         4 026233   200270 756100                    STQ     SET,,AUTO
         4 026234   026254 710000 4                  TRA     s:22064
PL6.E3A0      #001=ASL$DISP_ONE_PROFILE File=ASL$L_PRO.:E05TSI                   TUE 07/29/97 10:26 Page:715

     4472    22051
     4473    22052    7               SELECT ( 22 /* C_ABSGRPRND_RVRVID */ );

     4474    22053
     4475    22054    7               IF KL$ABSGRPRND.FLAGS.RVRVID# THEN

  22054  4 026235   000145 470400 2                  LDP0    KL_ABSGRPRND$
         4 026236   000000 066500                    CMPB    filb='0'B
         4 026237   000000 500001                    BDSC    0,,PR0                   by=2,bit=8,n=1
         4 026240   000002 000022 xsym               BDSC    B_VECTNIL+2              by=0,bit=0,n=18
         4 026241   026254 600000 4                  TZE     s:22064

     4476    22055    7                  SET = %YES#;

  22055  4 026242   400000 236003                    LDQ     -131072,DU
         4 026243   200270 756100                    STQ     SET,,AUTO
         4 026244   026254 710000 4                  TRA     s:22064

     4477    22056
     4478    22057    7               SELECT ( 24 /* C_ABSGRPRND_UNDSCR */ );

     4479    22058
     4480    22059    7               IF KL$ABSGRPRND.FLAGS.UNDSCR# THEN

  22059  4 026245   000145 470400 2                  LDP0    KL_ABSGRPRND$
         4 026246   000000 066500                    CMPB    filb='0'B
         4 026247   000000 450001                    BDSC    0,,PR0                   by=2,bit=5,n=1
         4 026250   000002 000022 xsym               BDSC    B_VECTNIL+2              by=0,bit=0,n=18
         4 026251   026254 600000 4                  TZE     s:22064

     4481    22060    7                  SET = %YES#;

  22060  4 026252   400000 236003                    LDQ     -131072,DU
         4 026253   200270 756100                    STQ     SET,,AUTO

     4482    22061
PL6.E3A0      #001=ASL$DISP_ONE_PROFILE File=ASL$L_PRO.:E05TSI                   TUE 07/29/97 10:26 Page:716
     4483    22062    7               END; /*  Do case (i)  */

     4484    22063
     4485    22064    7            IF SET THEN DO;

  22064  4 026254   200270 234100                    SZN     SET,,AUTO
         4 026255   026322 605000 4                  TPL     s:22075

     4486    22065    8               IF NOT FIRST THEN DO;

  22065  4 026256   200267 234100                    SZN     FIRST,,AUTO
         4 026257   026272 604000 4                  TMI     s:22069

     4487    22066    8                  SUBSTR (FMT_BUF, FDS.FMT_.BOUND+1, 1 ) = ',';

  22066  4 026260   000000 236000 xsym               LDQ     FDS
         4 026261   000020 772000                    QRL     16
         4 026262   040006 100400                    MLR     fill='040'O
         4 026263   000334 000001 5                  ADSC9   220                      cn=0,n=1
         4 026264   000000 200001 xsym               ADSC9   FMT_BUF,Q                cn=1,n=1

     4488    22067    8                  FDS.FMT_.BOUND = FDS.FMT_.BOUND + 1;

  22067  4 026265   000001 036007                    ADLQ    1,DL
         4 026266   000020 736000                    QLS     16
         4 026267   000000 676000 xsym               ERQ     FDS
         4 026270   000034 376000 xsym               ANQ     B_VECTNIL+28
         4 026271   000000 656000 xsym               ERSQ    FDS

     4489    22068    8                  END; /*  Not first  */

     4490    22069    7               CALL INDEX (J, ' ', FMT_TABLE ( I ));

  22069  4 026272   200156 236100                    LDQ     I,,AUTO
         4 026273   000036 402007                    MPY     30,DL
         4 026274   000000 124406                    SCM     mask='000'O
         4 026275   000000 000036 3                  ADSC9   FMT_TABLE,Q              cn=0,n=30
PL6.E3A0      #001=ASL$DISP_ONE_PROFILE File=ASL$L_PRO.:E05TSI                   TUE 07/29/97 10:26 Page:717
         4 026276   000035 000001 xsym               ADSC9   B_VECTNIL+29             cn=0,n=1
         4 026277   200160 000100                    ARG     J,,AUTO

     4491    22070    7               SUBSTR (FMT_BUF, FDS.FMT_.BOUND+1, J) = SUBSTR (FMT_TABLE(I),0,J);

  22070  4 026300   000000 236000 xsym               LDQ     FDS
         4 026301   000020 772000                    QRL     16
         4 026302   200366 756100                    STQ     TEMP+4,,AUTO
         4 026303   200156 236100                    LDQ     I,,AUTO
         4 026304   000036 402007                    MPY     30,DL
         4 026305   200160 720100                    LXL0    J,,AUTO
         4 026306   200366 235100                    LDA     TEMP+4,,AUTO
         4 026307   040045 100446                    MLR     fill='040'O
         4 026310   000000 000010 3                  ADSC9   FMT_TABLE,Q              cn=0,n=*X0
         4 026311   000000 200010 xsym               ADSC9   FMT_BUF,A                cn=1,n=*X0

     4492    22071    7               FDS.FMT_.BOUND = FDS.FMT_.BOUND + J;

  22071  4 026312   000000 236000 xsym               LDQ     FDS
         4 026313   000020 772000                    QRL     16
         4 026314   200160 036100                    ADLQ    J,,AUTO
         4 026315   000020 736000                    QLS     16
         4 026316   000000 676000 xsym               ERQ     FDS
         4 026317   000034 376000 xsym               ANQ     B_VECTNIL+28
         4 026320   000000 656000 xsym               ERSQ    FDS

     4493    22072    7               FIRST = %NO#;

  22072  4 026321   200267 450100                    STZ     FIRST,,AUTO

     4494    22073    7               END; /*  If set  */

     4495    22074
     4496    22075    6            END; /*  Do i  */

  22075  4 026322   200156 235100                    LDA     I,,AUTO
         4 026323   000001 035007                    ADLA    1,DL
PL6.E3A0      #001=ASL$DISP_ONE_PROFILE File=ASL$L_PRO.:E05TSI                   TUE 07/29/97 10:26 Page:718
         4 026324   200156 755100                    STA     I,,AUTO
         4 026325   000031 115007                    CMPA    25,DL
         4 026326   026136 602000 4                  TNC     s:22024

     4497    22076    5         SUBSTR (FMT_BUF, FDS.FMT_.BOUND+1, 3 ) = '%2P';

  22076  4 026327   000000 236000 xsym               LDQ     FDS
         4 026330   000020 772000                    QRL     16
         4 026331   040006 100400                    MLR     fill='040'O
         4 026332   004434 000003 3                  ADSC9   FUNKEY_NAMES+1841        cn=0,n=3
         4 026333   000000 200003 xsym               ADSC9   FMT_BUF,Q                cn=1,n=3

     4498    22077    5         FDS.FMT_.BOUND = FDS.FMT_.BOUND + 3;

  22077  4 026334   000003 036007                    ADLQ    3,DL
         4 026335   000020 736000                    QLS     16
         4 026336   000000 676000 xsym               ERQ     FDS
         4 026337   000034 376000 xsym               ANQ     B_VECTNIL+28
         4 026340   000000 656000 xsym               ERSQ    FDS
         4 026341   026342 710000 4                  TRA     s:22085

     4499    22078
     4500    22079    5         SELECT (28 /* C_ALL_DONE */);

     4501    22080              /* This case is empty because all the building of the format
     4502    22081                 buffer has been completed.  The templates are done, all that
     4503    22082                 remains is to call X$FORMAT.  */
     4504    22083    5         END ;                    /* Do case ( class )                  */

     4505    22084
     4506    22085    4      CALL X$FORMAT (FDS);

  22085  4 026342   000004 630400 5                  EPPR0   4
         4 026343   000017 631400 xsym               EPPR1   B_VECTNIL+15
         4 026344   000000 701000 xent               TSX1    X$FORMAT
         4 026345   000000 011000                    NOP     0

PL6.E3A0      #001=ASL$DISP_ONE_PROFILE File=ASL$L_PRO.:E05TSI                   TUE 07/29/97 10:26 Page:719
     4507    22086
     4508    22087    4         END; /*  If flag set and .LEN > 0  */

     4509    22088    3      END;   /*  Do OPT_INDEX  */

  22088  4 026346   200162 235100                    LDA     OPT_INDEX,,AUTO
         4 026347   000001 035007                    ADLA    1,DL
         4 026350   200162 755100                    STA     OPT_INDEX,,AUTO
         4 026351   200162 235100                    LDA     OPT_INDEX,,AUTO
         4 026352   000430 115007                    CMPA    280,DL
         4 026353   021555 602000 4                  TNC     s:21218

     4510    22089    2   FDS.NVECS# = 0;

  22089  4 026354   000011 450000 xsym               STZ     FDS+9

     4511    22090    2   CALL ASB$WRITE_LO ('   END', 6);

  22090  4 026355   000335 630400 5                  EPPR0   221
         4 026356   000020 631400 xsym               EPPR1   B_VECTNIL+16
         4 026357   000000 701000 xent               TSX1    ASB$WRITE_LO
         4 026360   000000 011000                    NOP     0

     4512    22091    2   RETURN ;

  22091  4 026361   200154 221300                    LDX1  ! PTR$+1,,AUTO
         4 026362   000001 702211                    TSX2  ! 1,X1

     4513    22092    2   END  BUILD_JCL_FMT;
     4514    22093        %EJECT ;
PL6.E3A0      #001=ASL$DISP_ONE_PROFILE File=ASL$L_PRO.:E05TSI                   TUE 07/29/97 10:26 Page:720
     4515    22094    1   DO_SETUP_CHR_JCL: PROC (PTR$, LENGTH);

  22094  4 026363   200272 741300       DO_SETUP_CH* STX1  ! SET+2,,AUTO

     4516    22095
     4517    22096        /*
     4518    22097           In setting up for this routine,  there will be some indexing into
     4519    22098           the KL$CCHR.TXT_UBIN array.  If the index is 0, it means that the
     4520    22099           field we are currently trying to display was not set, or was set
     4521    22100           to none.  So, we will leave the pointer, PTR$, pointing at the
     4522    22101           index and not at the place in the KL$CCHR.TXT_UBIN array where
     4523    22102           the field starts.
     4524    22103           I also assume that PTR$ is pointing at a textc type structure,
     4525    22104           ie. a string with a count as the first byte followed by count
     4526    22105           number of bytes that represent the field we are interested in.
     4527    22106        */
     4528    22107    2   DCL PTR$ PTR;
     4529    22108    2   DCL I  UBIN;
     4530    22109    2   DCL LENGTH   UBIN;
     4531    22110    2   DCL COUNT UBIN;
     4532    22111    2   DCL ABYTE  UBIN BYTE BASED CALIGNED;
     4533    22112    2   DCL OLD_POS UBIN STATIC INIT (0);
     4534    22113    2   DCL NEW_POS UBIN STATIC INIT (0);
     4535    22114    2   DCL STRING  CHAR(512)  STATIC INIT(' ');
     4536    22115
     4537    22116    2   OLD_POS = 0;

  22116  4 026364   000574 450000 2                  STZ     OLD_POS

     4538    22117    2   NEW_POS = 0;

  22117  4 026365   000575 450000 2                  STZ     NEW_POS

     4539    22118    2   STRING = ' ';

  22118  4 026366   040000 100400                    MLR     fill='040'O
         4 026367   000035 000001 xsym               ADSC9   B_VECTNIL+29             cn=0,n=1
PL6.E3A0      #001=ASL$DISP_ONE_PROFILE File=ASL$L_PRO.:E05TSI                   TUE 07/29/97 10:26 Page:721
         4 026370   000576 001000 2                  ADSC9   STRING                   cn=0,n=512

     4540    22119    2   COUNT = PTR$ -> ABYTE;

  22119  4 026371   200273 470500                    LDP0    @PTR$,,AUTO
         4 026372   000000 471500                    LDP1    0,,PR0
         4 026373   000100 101500                    MRL     fill='000'O
         4 026374   100000 000001                    ADSC9   0,,PR1                   cn=0,n=1
         4 026375   200276 000004                    ADSC9   COUNT,,AUTO              cn=0,n=4

     4541    22120    2   PTR$ = PINCRC(PTR$,1);

  22120  4 026376   000000 236100                    LDQ     0,,PR0
         4 026377   200000 036007                    ADLQ    65536,DL
         4 026400   000000 756100                    STQ     0,,PR0

     4542    22121
     4543    22122    3   IF COUNT ~= 0 THEN DO;

  22122  4 026401   200276 235100                    LDA     COUNT,,AUTO
         4 026402   027030 600000 4                  TZE     s:22201

     4544    22123    3      I = 1;

  22123  4 026403   000001 235007                    LDA     1,DL
         4 026404   200275 755100                    STA     I,,AUTO

     4545    22124    4      DO WHILE I <= COUNT;

  22124  4 026405   200276 236100                    LDQ     COUNT,,AUTO
         4 026406   200275 116100                    CMPQ    I,,AUTO
         4 026407   027020 602000 4                  TNC     s:22198

     4546    22125    4         IF (PTR$ -> ABYTE = 127) OR

  22125  4 026410   200273 470500                    LDP0    @PTR$,,AUTO
         4 026411   000000 471500                    LDP1    0,,PR0
PL6.E3A0      #001=ASL$DISP_ONE_PROFILE File=ASL$L_PRO.:E05TSI                   TUE 07/29/97 10:26 Page:722
         4 026412   000100 101500                    MRL     fill='000'O
         4 026413   100000 000001                    ADSC9   0,,PR1                   cn=0,n=1
         4 026414   200366 000004                    ADSC9   TEMP+4,,AUTO             cn=0,n=4
         4 026415   200366 236100                    LDQ     TEMP+4,,AUTO
         4 026416   000177 116007                    CMPQ    127,DL
         4 026417   026427 600000 4                  TZE     s:22133
         4 026420   000000 471500                    LDP1    0,,PR0
         4 026421   000100 101500                    MRL     fill='000'O
         4 026422   100000 000001                    ADSC9   0,,PR1                   cn=0,n=1
         4 026423   200367 000004                    ADSC9   TEMP+5,,AUTO             cn=0,n=4
         4 026424   200367 236100                    LDQ     TEMP+5,,AUTO
         4 026425   000040 116007                    CMPQ    32,DL
         4 026426   026527 605000 4                  TPL     s:22151

     4547    22126    5              (PTR$->ABYTE < 32) THEN DO;

     4548    22127                                            /*  Unprintable characters
     4549    22128                 case (  0,  1,  2,  3,  4,  5,  6,  7,
     4550    22129                         8,  9, 10, 11, 12, 13, 14, 15,
     4551    22130                        16, 17, 18, 19, 20, 21, 22, 23,
     4552    22131                        24, 25, 26, 27, 28, 29, 30, 31, 127);    */
     4553    22132
     4554    22133    6            IF (LENGTH+4) > LO_WIDTH THEN DO;

  22133  4 026427   200274 471500                    LDP1    @LENGTH,,AUTO
         4 026430   100000 236100                    LDQ     0,,PR1
         4 026431   000004 036007                    ADLQ    4,DL
         4 026432   000000 116000 xsym               CMPQ    LO_WIDTH
         4 026433   026463 602000 4                  TNC     s:22141
         4 026434   026463 600000 4                  TZE     s:22141

     4555    22134    6               FDS.FMT_.BOUND = FDS.FMT_.BOUND - 1;

  22134  4 026435   000000 236000 xsym               LDQ     FDS
         4 026436   000020 772000                    QRL     16
         4 026437   000001 136007                    SBLQ    1,DL
         4 026440   000020 736000                    QLS     16
PL6.E3A0      #001=ASL$DISP_ONE_PROFILE File=ASL$L_PRO.:E05TSI                   TUE 07/29/97 10:26 Page:723
         4 026441   000000 676000 xsym               ERQ     FDS
         4 026442   000034 376000 xsym               ANQ     B_VECTNIL+28
         4 026443   000000 656000 xsym               ERSQ    FDS

     4556    22135    6               CALL X$FORMAT (FDS) ;

  22135  4 026444   000004 630400 5                  EPPR0   4
         4 026445   000017 631400 xsym               EPPR1   B_VECTNIL+15
         4 026446   000000 701000 xent               TSX1    X$FORMAT
         4 026447   000000 011000                    NOP     0

     4557    22136    6               FDS.NVECS# = 0;

  22136  4 026450   000011 450000 xsym               STZ     FDS+9

     4558    22137    6               SUBSTR (FMT_BUF,0,17) = '%4-SETUP_CHR = + ';

  22137  4 026451   040000 100400                    MLR     fill='040'O
         4 026452   004437 000021 3                  ADSC9   FUNKEY_NAMES+1844        cn=0,n=17
         4 026453   000000 000021 xsym               ADSC9   FMT_BUF                  cn=0,n=17

     4559    22138    6               FDS.FMT_.BOUND = 16;

  22138  4 026454   000000 236000 xsym               LDQ     FDS
         4 026455   177777 376007                    ANQ     65535,DL
         4 026456   000004 276003                    ORQ     4,DU
         4 026457   000000 756000 xsym               STQ     FDS

     4560    22139    6               LENGTH = 18;

  22139  4 026460   000022 235007                    LDA     18,DL
         4 026461   200274 470500                    LDP0    @LENGTH,,AUTO
         4 026462   000000 755100                    STA     0,,PR0

     4561    22140    6               END;   /*  out of space on the output line  */

     4562    22141    5            FMT_VEC (FDS.NVECS#) = VECTOR (UNPRINT_TABLE.TXT(PTR$->ABYTE));
PL6.E3A0      #001=ASL$DISP_ONE_PROFILE File=ASL$L_PRO.:E05TSI                   TUE 07/29/97 10:26 Page:724

  22141  4 026463   000011 235000 xsym               LDA     FDS+9
         4 026464   000001 735000                    ALS     1
         4 026465   200273 470500                    LDP0    @PTR$,,AUTO
         4 026466   000000 471500                    LDP1    0,,PR0
         4 026467   000100 101500                    MRL     fill='000'O
         4 026470   100000 000001                    ADSC9   0,,PR1                   cn=0,n=1
         4 026471   200366 000002                    ADSC9   TEMP+4,,AUTO             cn=0,n=2
         4 026472   200366 220100                    LDX0    TEMP+4,,AUTO
         4 026473   000000 621005                    EAX1    0,AL
         4 026474   577640 235007                    LDA     -65632,DL
         4 026475   000000 636010                    EAQ     0,X0
         4 026476   000243 036000 5                  ADLQ    163
         4 026477   000000 755011 xsym               STA     FMT_VEC,X1
         4 026500   000001 756011 xsym               STQ     FMT_VEC+1,X1

     4563    22142    5            FDS.NVECS# = FDS.NVECS# + 1;

  22142  4 026501   000011 054000 xsym               AOS     FDS+9

     4564    22143    5            SUBSTR (FMT_BUF,FDS.FMT_.BOUND+1,4) = '%>A,';

  22143  4 026502   000000 236000 xsym               LDQ     FDS
         4 026503   000020 772000                    QRL     16
         4 026504   040006 100400                    MLR     fill='040'O
         4 026505   004444 000004 3                  ADSC9   FUNKEY_NAMES+1849        cn=0,n=4
         4 026506   000000 200004 xsym               ADSC9   FMT_BUF,Q                cn=1,n=4

     4565    22144    5            FDS.FMT_.BOUND = FDS.FMT_.BOUND + 4;

  22144  4 026507   000004 036007                    ADLQ    4,DL
         4 026510   000020 736000                    QLS     16
         4 026511   000000 676000 xsym               ERQ     FDS
         4 026512   000034 376000 xsym               ANQ     B_VECTNIL+28
         4 026513   000000 656000 xsym               ERSQ    FDS

     4566    22145    5            I = I + 1;
PL6.E3A0      #001=ASL$DISP_ONE_PROFILE File=ASL$L_PRO.:E05TSI                   TUE 07/29/97 10:26 Page:725

  22145  4 026514   200275 235100                    LDA     I,,AUTO
         4 026515   000001 035007                    ADLA    1,DL
         4 026516   200275 755100                    STA     I,,AUTO

     4567    22146    5            PTR$ = PINCRC (PTR$,1);

  22146  4 026517   000000 236100                    LDQ     0,,PR0
         4 026520   200000 036007                    ADLQ    65536,DL
         4 026521   000000 756100                    STQ     0,,PR0

     4568    22147    5            LENGTH = LENGTH + 4;

  22147  4 026522   200274 471500                    LDP1    @LENGTH,,AUTO
         4 026523   100000 235100                    LDA     0,,PR1
         4 026524   000004 035007                    ADLA    4,DL
         4 026525   100000 755100                    STA     0,,PR1

     4569    22148
     4570    22149    5            END;   /*  Unprintable characters  */

  22149  4 026526   027015 710000 4                  TRA     s:22197

     4571    22150    4         ELSE
     4572    22151    5            IF (PTR$->ABYTE < 127) THEN DO;

  22151  4 026527   000000 471500                    LDP1    0,,PR0
         4 026530   000100 101500                    MRL     fill='000'O
         4 026531   100000 000001                    ADSC9   0,,PR1                   cn=0,n=1
         4 026532   200366 000004                    ADSC9   TEMP+4,,AUTO             cn=0,n=4
         4 026533   200366 236100                    LDQ     TEMP+4,,AUTO
         4 026534   000177 116007                    CMPQ    127,DL
         4 026535   026725 605000 4                  TPL     s:22182

     4573    22152                                         /*  Printable characters  */
     4574    22153    6               IF LENGTH + 3 > LO_WIDTH THEN DO;

PL6.E3A0      #001=ASL$DISP_ONE_PROFILE File=ASL$L_PRO.:E05TSI                   TUE 07/29/97 10:26 Page:726
  22153  4 026536   200274 471500                    LDP1    @LENGTH,,AUTO
         4 026537   100000 236100                    LDQ     0,,PR1
         4 026540   000003 036007                    ADLQ    3,DL
         4 026541   000000 116000 xsym               CMPQ    LO_WIDTH
         4 026542   026572 602000 4                  TNC     s:22163
         4 026543   026572 600000 4                  TZE     s:22163

     4575    22154    6                  FDS.FMT_.BOUND = FDS.FMT_.BOUND - 1;

  22154  4 026544   000000 236000 xsym               LDQ     FDS
         4 026545   000020 772000                    QRL     16
         4 026546   000001 136007                    SBLQ    1,DL
         4 026547   000020 736000                    QLS     16
         4 026550   000000 676000 xsym               ERQ     FDS
         4 026551   000034 376000 xsym               ANQ     B_VECTNIL+28
         4 026552   000000 656000 xsym               ERSQ    FDS

     4576    22155    6                  CALL X$FORMAT (FDS) ;

  22155  4 026553   000004 630400 5                  EPPR0   4
         4 026554   000017 631400 xsym               EPPR1   B_VECTNIL+15
         4 026555   000000 701000 xent               TSX1    X$FORMAT
         4 026556   000000 011000                    NOP     0

     4577    22156    6                  FDS.NVECS# = 0;

  22156  4 026557   000011 450000 xsym               STZ     FDS+9

     4578    22157    6                  SUBSTR (FMT_BUF,0,16) = '%4-SETUP_CHR = + ';

  22157  4 026560   040000 100400                    MLR     fill='040'O
         4 026561   004437 000020 3                  ADSC9   FUNKEY_NAMES+1844        cn=0,n=16
         4 026562   000000 000020 xsym               ADSC9   FMT_BUF                  cn=0,n=16

     4579    22158    6                  FDS.FMT_.BOUND = 16;

  22158  4 026563   000000 236000 xsym               LDQ     FDS
PL6.E3A0      #001=ASL$DISP_ONE_PROFILE File=ASL$L_PRO.:E05TSI                   TUE 07/29/97 10:26 Page:727
         4 026564   177777 376007                    ANQ     65535,DL
         4 026565   000004 276003                    ORQ     4,DU
         4 026566   000000 756000 xsym               STQ     FDS

     4580    22159    6                  LENGTH = 18;

  22159  4 026567   000022 235007                    LDA     18,DL
         4 026570   200274 470500                    LDP0    @LENGTH,,AUTO
         4 026571   000000 755100                    STA     0,,PR0

     4581    22160    6                  END;   /*  out of space on the output line  */

     4582    22161                            /*  OLD_POS is the last position in string
     4583    22162                                NEW_POS is the next position in string  */
     4584    22163    5               NEW_POS = OLD_POS + 1;

  22163  4 026572   000574 235000 2                  LDA     OLD_POS
         4 026573   000001 035007                    ADLA    1,DL
         4 026574   000575 755000 2                  STA     NEW_POS

     4585    22164    6               DO WHILE PTR$->ABYTE > 31 AND PTR$ -> ABYTE < 127;

  22164  4 026575   026636 710000 4                  TRA     s:22172

     4586    22165    6                  SUBSTR (STRING,NEW_POS,1) = BINASC (PTR$->ABYTE);

  22165  4 026576   200273 470500                    LDP0    @PTR$,,AUTO
         4 026577   000000 471500                    LDP1    0,,PR0
         4 026600   000100 101500                    MRL     fill='000'O
         4 026601   100000 000001                    ADSC9   0,,PR1                   cn=0,n=1
         4 026602   200366 000004                    ADSC9   TEMP+4,,AUTO             cn=0,n=4
         4 026603   200366 236100                    LDQ     TEMP+4,,AUTO
         4 026604   000033 736000                    QLS     27
         4 026605   000006 276000 5                  ORQ     6
         4 026606   200367 756100                    STQ     TEMP+5,,AUTO
         4 026607   000575 235000 2                  LDA     NEW_POS
         4 026610   040005 100500                    MLR     fill='040'O
PL6.E3A0      #001=ASL$DISP_ONE_PROFILE File=ASL$L_PRO.:E05TSI                   TUE 07/29/97 10:26 Page:728
         4 026611   200367 000004                    ADSC9   TEMP+5,,AUTO             cn=0,n=4
         4 026612   000576 000001 2                  ADSC9   STRING,A                 cn=0,n=1

     4587    22166    6                  PTR$ = PINCRC (PTR$,1);

  22166  4 026613   000000 236100                    LDQ     0,,PR0
         4 026614   200000 036007                    ADLQ    65536,DL
         4 026615   000000 756100                    STQ     0,,PR0

     4588    22167    6                  NEW_POS = NEW_POS + 1;

  22167  4 026616   000001 035007                    ADLA    1,DL
         4 026617   000575 755000 2                  STA     NEW_POS

     4589    22168    6                  I = I + 1;

  22168  4 026620   200275 235100                    LDA     I,,AUTO
         4 026621   000001 035007                    ADLA    1,DL
         4 026622   200275 755100                    STA     I,,AUTO

     4590    22169    6                  LENGTH = LENGTH + 1;

  22169  4 026623   200274 471500                    LDP1    @LENGTH,,AUTO
         4 026624   100000 235100                    LDA     0,,PR1
         4 026625   000001 035007                    ADLA    1,DL
         4 026626   100000 755100                    STA     0,,PR1

     4591    22170    6                  IF (I > COUNT) OR ((LENGTH+2) >= LO_WIDTH) THEN

  22170  4 026627   200276 236100                    LDQ     COUNT,,AUTO
         4 026630   200275 116100                    CMPQ    I,,AUTO
         4 026631   026655 602000 4                  TNC     s:22173
         4 026632   100000 236100                    LDQ     0,,PR1
         4 026633   000002 036007                    ADLQ    2,DL
         4 026634   000000 116000 xsym               CMPQ    LO_WIDTH
         4 026635   026655 603000 4                  TRC     s:22173

PL6.E3A0      #001=ASL$DISP_ONE_PROFILE File=ASL$L_PRO.:E05TSI                   TUE 07/29/97 10:26 Page:729
     4592    22171    6                     EXIT;
     4593    22172    6                  END; /*   Do while a printable character  */

  22172  4 026636   200273 470500                    LDP0    @PTR$,,AUTO
         4 026637   000000 471500                    LDP1    0,,PR0
         4 026640   000100 101500                    MRL     fill='000'O
         4 026641   100000 000001                    ADSC9   0,,PR1                   cn=0,n=1
         4 026642   200366 000004                    ADSC9   TEMP+4,,AUTO             cn=0,n=4
         4 026643   200366 236100                    LDQ     TEMP+4,,AUTO
         4 026644   000040 116007                    CMPQ    32,DL
         4 026645   026655 604000 4                  TMI     s:22173
         4 026646   000000 471500                    LDP1    0,,PR0
         4 026647   000100 101500                    MRL     fill='000'O
         4 026650   100000 000001                    ADSC9   0,,PR1                   cn=0,n=1
         4 026651   200367 000004                    ADSC9   TEMP+5,,AUTO             cn=0,n=4
         4 026652   200367 236100                    LDQ     TEMP+5,,AUTO
         4 026653   000177 116007                    CMPQ    127,DL
         4 026654   026576 604000 4                  TMI     s:22165

     4594    22173    5               SUBSTR (STRING,OLD_POS,1) = BINASC(NEW_POS-OLD_POS-1);

  22173  4 026655   000575 236000 2                  LDQ     NEW_POS
         4 026656   000574 136000 2                  SBLQ    OLD_POS
         4 026657   000001 136007                    SBLQ    1,DL
         4 026660   000033 736000                    QLS     27
         4 026661   000006 276000 5                  ORQ     6
         4 026662   200366 756100                    STQ     TEMP+4,,AUTO
         4 026663   000574 235000 2                  LDA     OLD_POS
         4 026664   040005 100500                    MLR     fill='040'O
         4 026665   200366 000004                    ADSC9   TEMP+4,,AUTO             cn=0,n=4
         4 026666   000576 000001 2                  ADSC9   STRING,A                 cn=0,n=1

     4595    22174    5               FMT_VEC (FDS.NVECS#) = VECTOR (SUBSTR(STRING,OLD_POS,NEW_POS-OLD_POS));

  22174  4 026667   000011 236000 xsym               LDQ     FDS+9
         4 026670   000001 736000                    QLS     1
         4 026671   000000 620006                    EAX0    0,QL
PL6.E3A0      #001=ASL$DISP_ONE_PROFILE File=ASL$L_PRO.:E05TSI                   TUE 07/29/97 10:26 Page:730
         4 026672   000575 236000 2                  LDQ     NEW_POS
         4 026673   000574 136000 2                  SBLQ    OLD_POS
         4 026674   000064 737000                    LLS     52
         4 026675   000140 135007                    SBLA    96,DL
         4 026676   000574 236000 2                  LDQ     OLD_POS
         4 026677   000020 736000                    QLS     16
         4 026700   000337 036000 5                  ADLQ    223
         4 026701   000000 755010 xsym               STA     FMT_VEC,X0
         4 026702   000001 756010 xsym               STQ     FMT_VEC+1,X0

     4596    22175    5               FDS.NVECS# = FDS.NVECS# + 1;

  22175  4 026703   000011 054000 xsym               AOS     FDS+9

     4597    22176    5               SUBSTR (FMT_BUF,FDS.FMT_.BOUND+1,5) = '''%T'',';

  22176  4 026704   000000 236000 xsym               LDQ     FDS
         4 026705   000020 772000                    QRL     16
         4 026706   040006 100400                    MLR     fill='040'O
         4 026707   004445 000005 3                  ADSC9   FUNKEY_NAMES+1850        cn=0,n=5
         4 026710   000000 200005 xsym               ADSC9   FMT_BUF,Q                cn=1,n=5

     4598    22177    5               FDS.FMT_.BOUND = FDS.FMT_.BOUND + 5;

  22177  4 026711   000005 036007                    ADLQ    5,DL
         4 026712   000020 736000                    QLS     16
         4 026713   000000 676000 xsym               ERQ     FDS
         4 026714   000034 376000 xsym               ANQ     B_VECTNIL+28
         4 026715   000000 656000 xsym               ERSQ    FDS

     4599    22178    5               OLD_POS = NEW_POS;

  22178  4 026716   000575 235000 2                  LDA     NEW_POS
         4 026717   000574 755000 2                  STA     OLD_POS

     4600    22179    5               LENGTH = LENGTH + 3;

PL6.E3A0      #001=ASL$DISP_ONE_PROFILE File=ASL$L_PRO.:E05TSI                   TUE 07/29/97 10:26 Page:731
  22179  4 026720   200274 471500                    LDP1    @LENGTH,,AUTO
         4 026721   100000 235100                    LDA     0,,PR1
         4 026722   000003 035007                    ADLA    3,DL
         4 026723   100000 755100                    STA     0,,PR1

     4601    22180    5               END;   /*  Printable characters  */

  22180  4 026724   027015 710000 4                  TRA     s:22197

     4602    22181    5            ELSE DO;   /*  Character values > 127  */

     4603    22182    6               IF LENGTH + 6 > LO_WIDTH THEN DO;

  22182  4 026725   200274 471500                    LDP1    @LENGTH,,AUTO
         4 026726   100000 236100                    LDQ     0,,PR1
         4 026727   000006 036007                    ADLQ    6,DL
         4 026730   000000 116000 xsym               CMPQ    LO_WIDTH
         4 026731   026761 602000 4                  TNC     s:22190
         4 026732   026761 600000 4                  TZE     s:22190

     4604    22183    6                  FDS.FMT_.BOUND = FDS.FMT_.BOUND - 1;

  22183  4 026733   000000 236000 xsym               LDQ     FDS
         4 026734   000020 772000                    QRL     16
         4 026735   000001 136007                    SBLQ    1,DL
         4 026736   000020 736000                    QLS     16
         4 026737   000000 676000 xsym               ERQ     FDS
         4 026740   000034 376000 xsym               ANQ     B_VECTNIL+28
         4 026741   000000 656000 xsym               ERSQ    FDS

     4605    22184    6                  CALL X$FORMAT (FDS) ;

  22184  4 026742   000004 630400 5                  EPPR0   4
         4 026743   000017 631400 xsym               EPPR1   B_VECTNIL+15
         4 026744   000000 701000 xent               TSX1    X$FORMAT
         4 026745   000000 011000                    NOP     0

PL6.E3A0      #001=ASL$DISP_ONE_PROFILE File=ASL$L_PRO.:E05TSI                   TUE 07/29/97 10:26 Page:732
     4606    22185    6                  FDS.NVECS# = 0;

  22185  4 026746   000011 450000 xsym               STZ     FDS+9

     4607    22186    6                  SUBSTR (FMT_BUF,0,16) = '%4-SETUP_CHR = + ';

  22186  4 026747   040000 100400                    MLR     fill='040'O
         4 026750   004437 000020 3                  ADSC9   FUNKEY_NAMES+1844        cn=0,n=16
         4 026751   000000 000020 xsym               ADSC9   FMT_BUF                  cn=0,n=16

     4608    22187    6                  FDS.FMT_.BOUND = 16;

  22187  4 026752   000000 236000 xsym               LDQ     FDS
         4 026753   177777 376007                    ANQ     65535,DL
         4 026754   000004 276003                    ORQ     4,DU
         4 026755   000000 756000 xsym               STQ     FDS

     4609    22188    6                  LENGTH = 18;

  22188  4 026756   000022 235007                    LDA     18,DL
         4 026757   200274 470500                    LDP0    @LENGTH,,AUTO
         4 026760   000000 755100                    STA     0,,PR0

     4610    22189    6                  END;   /*  out of space on the output line  */

     4611    22190    5               CALL INSERT (FMT_BUF,FDS.FMT_.BOUND+1,7,'X''%2H'',');

  22190  4 026761   000000 236000 xsym               LDQ     FDS
         4 026762   000020 772000                    QRL     16
         4 026763   040006 100400                    MLR     fill='040'O
         4 026764   004447 000007 3                  ADSC9   FUNKEY_NAMES+1852        cn=0,n=7
         4 026765   000000 200007 xsym               ADSC9   FMT_BUF,Q                cn=1,n=7

     4612    22191    5               FDS.FMT_.BOUND = FDS.FMT_.BOUND + 7;

  22191  4 026766   000007 036007                    ADLQ    7,DL
         4 026767   000020 736000                    QLS     16
PL6.E3A0      #001=ASL$DISP_ONE_PROFILE File=ASL$L_PRO.:E05TSI                   TUE 07/29/97 10:26 Page:733
         4 026770   000000 676000 xsym               ERQ     FDS
         4 026771   000034 376000 xsym               ANQ     B_VECTNIL+28
         4 026772   000000 656000 xsym               ERSQ    FDS

     4613    22192    5               FMT_VEC (FDS.NVECS#) = VECTOR (PTR$->ABYTE);

  22192  4 026773   000011 235000 xsym               LDA     FDS+9
         4 026774   000001 735000                    ALS     1
         4 026775   200273 470500                    LDP0    @PTR$,,AUTO
         4 026776   000000 471500                    LDP1    0,,PR0
         4 026777   000000 620005                    EAX0    0,AL
         4 027000   177640 235007                    LDA     65440,DL
         4 027001   200366 451500                    STP1    TEMP+4,,AUTO
         4 027002   200366 236100                    LDQ     TEMP+4,,AUTO
         4 027003   000000 755010 xsym               STA     FMT_VEC,X0
         4 027004   000001 756010 xsym               STQ     FMT_VEC+1,X0

     4614    22193    5               FDS.NVECS# = FDS.NVECS# + 1;

  22193  4 027005   000011 054000 xsym               AOS     FDS+9

     4615    22194    5               I = I + 1;

  22194  4 027006   200275 235100                    LDA     I,,AUTO
         4 027007   000001 035007                    ADLA    1,DL
         4 027010   200275 755100                    STA     I,,AUTO

     4616    22195    5               LENGTH = LENGTH + 6;

  22195  4 027011   200274 471500                    LDP1    @LENGTH,,AUTO
         4 027012   100000 235100                    LDA     0,,PR1
         4 027013   000006 035007                    ADLA    6,DL
         4 027014   100000 755100                    STA     0,,PR1

     4617    22196    5               END;

     4618    22197    4         END;  /*  Do while i < count  */
PL6.E3A0      #001=ASL$DISP_ONE_PROFILE File=ASL$L_PRO.:E05TSI                   TUE 07/29/97 10:26 Page:734

  22197  4 027015   200276 236100                    LDQ     COUNT,,AUTO
         4 027016   200275 116100                    CMPQ    I,,AUTO
         4 027017   026410 603000 4                  TRC     s:22125

     4619    22198    3      FDS.FMT_.BOUND = FDS.FMT_.BOUND - 1;

  22198  4 027020   000000 236000 xsym               LDQ     FDS
         4 027021   000020 772000                    QRL     16
         4 027022   000001 136007                    SBLQ    1,DL
         4 027023   000020 736000                    QLS     16
         4 027024   000000 676000 xsym               ERQ     FDS
         4 027025   000034 376000 xsym               ANQ     B_VECTNIL+28
         4 027026   000000 656000 xsym               ERSQ    FDS

     4620    22199    3      END; /*  If not 0  */

  22199  4 027027   027047 710000 4                  TRA     s:22206

     4621    22200    3   ELSE DO;

     4622    22201    3      FMT_VEC ( 0 ) = VECTOR (NONE_STR);

  22201  4 027030   000100 237000 5                  LDAQ    64
         4 027031   000000 755000 xsym               STA     FMT_VEC
         4 027032   000001 756000 xsym               STQ     FMT_VEC+1

     4623    22202    3      FDS.NVECS# = 1;

  22202  4 027033   000001 235007                    LDA     1,DL
         4 027034   000011 755000 xsym               STA     FDS+9

     4624    22203    3      CALL INSERT (FMT_BUF, FDS.FMT_.BOUND+1,3,'%>A');

  22203  4 027035   000000 236000 xsym               LDQ     FDS
         4 027036   000020 772000                    QRL     16
         4 027037   040006 100400                    MLR     fill='040'O
PL6.E3A0      #001=ASL$DISP_ONE_PROFILE File=ASL$L_PRO.:E05TSI                   TUE 07/29/97 10:26 Page:735
         4 027040   004444 000003 3                  ADSC9   FUNKEY_NAMES+1849        cn=0,n=3
         4 027041   000000 200003 xsym               ADSC9   FMT_BUF,Q                cn=1,n=3

     4625    22204    3      FDS.FMT_.BOUND = FDS.FMT_.BOUND + 3;

  22204  4 027042   000003 036007                    ADLQ    3,DL
         4 027043   000020 736000                    QLS     16
         4 027044   000000 676000 xsym               ERQ     FDS
         4 027045   000034 376000 xsym               ANQ     B_VECTNIL+28
         4 027046   000000 656000 xsym               ERSQ    FDS

     4626    22205    3      END;   /*  Else  */

     4627    22206    2   RETURN;

  22206  4 027047   200272 221300                    LDX1  ! SET+2,,AUTO
         4 027050   000001 702211                    TSX2  ! 1,X1
     4628    22207    2   END DO_SETUP_CHR_JCL;
     4629    22208    1   END   ASL$DISP_ONE_PROFILE ;

PL6.E3A0      #001=ASL$DISP_ONE_PROFILE File=ASL$L_PRO.:E05TSI                   TUE 07/29/97 10:26 Page:736
--  Include file information  --

   AS_SUPER_R.:E05TOU  cannot be made into a system file and is referenced.
   XG_SUBS_C.:E05TOU  is referenced.
   XG_PROFILE_C.:E05TOU  is referenced.
   XU_FORMAT_C.:E05TOU  is referenced.
   XU_MACRO_C.:E05TOU  is referenced.
   KL_SUPER_C.:E05TOU  is referenced.
   KV$INPFNC.:E05TOU  is referenced.
   AS_FUNKEY_DEFS_C.:E05TOU  is referenced.
   B_MICROPS_C.:E05TOU  is referenced.
   KV_PRMID_E.:E05TOU  is referenced.
   CP_6_SUBS.:E05TOU  is referenced.
   CP_6.:E05TOU  cannot be made into a system file and is referenced.
   AS_ENTRIES_M.:E05TOU  is referenced.
   AS_PERR_C.:E05TOU  is referenced.
   AS_SSUBS_C.:E05TOU  is referenced.
   AS_SUPER_C.:E05TOU  is referenced.
   AS_MAC_C.:E05TOU  cannot be made into a system file and is referenced.
   AS_SUBS_C.:E05TOU  is referenced.
   B$JIT_C.:E05TOU  was found in the system file and is never referenced.
   CP_6_C.:E05TOU  was found in the system file and is referenced.
      No diagnostics issued in procedure ASL$DISP_ONE_PROFILE.
PL6.E3A0      #001=ASL$DISP_ONE_PROFILE File=ASL$L_PRO.:E05TSI                   TUE 07/29/97 10:26 Page:737

 **** Variables and constants ****

  ****  Section 002  Data  ASL$DISP_ONE_PROFILE

  ****  Scalars and arrays  ****
OctLoc.c.b A Datatyp(siz) R M Lvl/name                 OctLoc.c.b A Datatyp(siz) R M Lvl/name

   146-0-0/w PTR         r     1 ABSGRPRND$(0:7)
    57-0-0/w CHAR(12)    r     1 ACCT_ARRY(0:7)
   170-0-0/c CHAR(4)     r     1 BLANK_BUF                136-0-0/w PTR         r     1 DTABS$
   573-0-0/w UBIN        r     1 ENTRY_LENGTH              56-0-0/w CHAR        r     1 FRST_CHR
   156-0-0/w PTR         r     1 FUNKEY$                  172-0-0/c CHAR(1024)  r     1 GRA_BUF
   171-0-0/b BIT         r     1 GR_FLAG
    42-0-0/c CHAR        r     1 HEX_CHARS(0:15)
   144-0-0/w PTR         r     1 KL_3270$                 145-0-0/w PTR         r     1 KL_ABSGRPRND$
   142-0-0/w PTR         r     1 LINK$                    575-0-0/w UBIN        r     1 NEW_POS
   574-0-0/w UBIN        r     1 OLD_POS                  135-0-0/w PTR         r     1 PLTN$
   141-0-0/w PTR         r     1 PNM$
    46-0-0/b BIT         r     1 PRO_FLAGS(0:280)
   107-0-0/c STRC(720)   r     1 PRO_HDR                  572-0-0/w BIT (9)     r     1 PRO_TYP
   157-0-0/w PTR         r     1 SETUP_CHR$               576-0-0/c CHAR(512)   r     1 STRING
   134-0-0/w PTR         r     1 TATR$                    137-0-0/w PTR         r     1 TCCHR$
   133-0-0/w PTR         r     1 TCTL$                    140-0-0/w PTR         r     1 TRMD$
   160-0-0/b UBIN(9)     r     1 T_TAB(0:31)              143-0-0/w PTR         r     1 VIRCIR$

  ****  Section 003 RoData ASL$DISP_ONE_PROFILE

  ****  Scalars and arrays  ****
OctLoc.c.b A Datatyp(siz) R M Lvl/name                 OctLoc.c.b A Datatyp(siz) R M Lvl/name

   566-0-0/c CHAR(3)     r     1 ALL_STR                  543-0-0/c CHAR(3)     r     1 ANS_STR
   654-0-0/c CHAR(5)     r     1 ASYNC_STR                714-0-0/c CHAR(6)     r     1 BLANKS_STR
   545-0-0/c CHAR(3)     r     1 DBL_STR                  553-0-0/c CHAR(6)     r     1 DC1DC3_STR
   721-0-0/c CHAR(6)     r     1 DCRINT_STR               653-0-0/c CHAR(2)     r     1 DC_STR
   547-0-0/c CHAR(6)     r     1 ENQACK_STR               551-0-0/c CHAR(6)     r     1 ETXACK_STR
   640-0-0/c CHAR(4)     r     1 EVEN_STR                 734-0-0/w STRC        r     1 E_BADLSTPROOPT
   736-0-0/w STRC        r     1 E_NOGRAFND               735-0-0/w STRC        r     1 E_NOGRAREC
PL6.E3A0      #001=ASL$DISP_ONE_PROFILE File=ASL$L_PRO.:E05TSI                   TUE 07/29/97 10:26 Page:738
     0-0-0/c CHAR(30)    r     1 FMT_TABLE(0:28)
   746-0-0/w UBIN        r     1 FOUR                     727-0-0/c CHAR(6)     r     1 FSTBLN_STR
   753-0-0/w CHAR(24)    r     1 FUNKEY_NAMES(0:256)
   740-0-0/c CHAR(15)    r     1 GR_ESC_FMT               747-0-0/c CHAR(8)     r     1 HARDWARE
   557-0-0/c CHAR(4)     r     1 HASP_STR                 716-0-0/c CHAR(3)     r     1 HDN_STR
   563-0-0/c CHAR(3)     r     1 HIP_STR                  717-0-0/c CHAR(6)     r     1 INCINT_STR
   712-0-0/c CHAR(4)     r     1 LINE_STR                 570-0-0/c CHAR(4)     r     1 LINK_STR
   733-0-0/b BIT (9)     r     1 MOP_STR(0:1)
   546-0-0/c CHAR(3)     r     1 NEC_STR                  564-0-0/c CHAR(3)     r     1 NJE_STR
   710-0-0/c CHAR(8)     r     1 NONE_SET_STR             565-0-0/c CHAR(4)     r     1 NONE_STR
   541-0-0/c CHAR(2)     r     1 NO_STR                   637-0-0/c CHAR(3)     r     1 ODD_STR
   641-0-0/c CHAR(3)     r     1 ONE_STR                  663-0-0/c CHAR(4)     r     1 P3270_STR
   713-0-0/c CHAR(4)     r     1 PAGE_STR                 560-0-0/c CHAR(6)     r     1 POLLED_STR
   661-0-0/c CHAR(7)     r     1 POLLVIP_STR              645-0-0/c CHAR(9)     r     1 PROTECT_STR
   332-0-0/c CHAR(22)    r     1 PRO_JCL_FMT              656-0-0/c CHAR(4)     r     1 RBTD_STR
   657-0-0/c CHAR(3)     r     1 RBT_STR                  731-0-0/c CHAR(6)     r     1 RVRVID_STR
   555-0-0/c CHAR(4)     r     1 S2780_STR                562-0-0/c CHAR(4)     r     1 S3275_STR
   556-0-0/c CHAR(4)     r     1 S3780_STR                744-0-0/c CHAR(5)     r     1 SINGLHORS_FMT
   725-0-0/c CHAR(6)     r     1 SLWBLN_STR               751-0-0/c CHAR(8)     r     1 SOFTWARE
   632-0-0/c CHAR(4)     r     1 SPD1050_STR              626-0-0/c CHAR(3)     r     1 SPD110_STR
   627-0-0/c CHAR(5)     r     1 SPD1345_STR              633-0-0/c CHAR(4)     r     1 SPD1800_STR
   634-0-0/c CHAR(4)     r     1 SPD2000_STR              631-0-0/c CHAR(3)     r     1 SPD200_STR
   625-0-0/c CHAR(2)     r     1 SPD50_STR                737-0-0/c CHAR(4)     r     1 TABS_HDR
   544-0-0/c CHAR(3)     r     1 TBL_STR                  644-0-0/c CHAR        r     1 THREE_STR
   542-0-0/c CHAR(3)     r     1 TRY_STR                  643-0-0/c CHAR        r     1 TWO_STR
   723-0-0/c CHAR(6)     r     1 UNDSCR_STR
   340-0-0/c STRC        r     1 UNPRINT_TABLE(0:127)
   650-0-0/c CHAR(11)    r     1 UNPROTECT_STR            660-0-0/c CHAR(3)     r     1 URP_STR
   577-0-0/c CHAR(4)     r     1 V1024_STR                574-0-0/c CHAR(3)     r     1 V128_STR
   600-0-0/c CHAR(4)     r     1 V2048_STR                575-0-0/c CHAR(3)     r     1 V256_STR
   601-0-0/c CHAR(4)     r     1 V4096_STR                576-0-0/c CHAR(3)     r     1 V512_STR
   615-0-0/c CHAR(4)     r     1 VC1200_STR               612-0-0/c CHAR(3)     r     1 VC150_STR
   621-0-0/c CHAR(5)     r     1 VC19200_STR              616-0-0/c CHAR(4)     r     1 VC2400_STR
   613-0-0/c CHAR(3)     r     1 VC300_STR                623-0-0/c CHAR(5)     r     1 VC48000_STR
   617-0-0/c CHAR(4)     r     1 VC4800_STR               614-0-0/c CHAR(3)     r     1 VC600_STR
   611-0-0/c CHAR(2)     r     1 VC75_STR                 620-0-0/c CHAR(4)     r     1 VC9600_STR
   571-0-0/c CHAR(6)     r     1 VIRCIR_STR               567-0-0/c CHAR(3)     r     1 X25_STR
PL6.E3A0      #001=ASL$DISP_ONE_PROFILE File=ASL$L_PRO.:E05TSI                   TUE 07/29/97 10:26 Page:739
   573-0-0/c CHAR(3)     r     1 X29_STR                  540-0-0/c CHAR(3)     r     1 YES_STR
   642-0-0/c CHAR(4)     r     1 ZERO_STR

  ****  Auto variables  ****

  ****  Scalars and arrays  ****
OctLoc.c.b A Datatyp(siz) R M Lvl/name                 OctLoc.c.b A Datatyp(siz) R M Lvl/name

   156-0-0/w PTR         r     1 @CMP_CNT                 155-0-0/w PTR         r     1 @HDR_LEN
     4-0-0/w PTR         r     1 @JCL                     274-0-0/w PTR         r     1 @LENGTH
   273-0-0/w PTR         r     1 @PTR$                    273-0-0/w PTR         r     1 @PTR$
     3-0-0/w PTR         r     1 @P_ARS                   127-0-0/w UBIN        r     1 ARS
   162-0-0/w SBIN        r     1 CLASS                    155-0-0/w SBIN        r     1 CLASS
    *0-0-0/w SBIN        r     1 CMP_CNT                  276-0-0/w UBIN        r     1 COUNT
   276-0-0/w UBIN        r     1 COUNT                    157-0-0/w SBIN        r     1 CUR_IDX
   156-0-0/w SBIN        r     1 CUR_IDX                  217-0-0/w SBIN        r     1 CUR_IDX
   275-0-0/w SBIN        r     1 CUR_KEY                  136-0-0/w BIT         r     1 DO_GRAPHIC
   103-0-0/w SBIN        r     1 FIELDS                   267-0-0/b BIT         r     1 FIRST
   225-0-0/w UBIN        r     1 FMT_LEN                  164-0-0/c CHAR(255)   r     1 FORMAT
   142-0-0/w PTR         r     1 GRA$                     137-0-0/w UBIN        r     1 GR_ESC_IDX
   140-0-0/w UBIN        r     1 GR_FPRG_IDX              130-0-0/w UBIN        r     1 G_ARS
   100-0-0/w SBIN        r     1 HDR_LEN                   *0-0-0/w SBIN        r     1 HDR_LEN
   145-0-0/c CHAR(4)     r     1 HEX_BUF
   144-0-0/w UBIN(4)     r     1 HEX_NUM(0:8)
   133-0-0/w UBIN        r     1 I                        163-0-0/w UBIN        r     1 I
   275-0-0/w UBIN        r     1 I                        171-0-0/w UBIN        r     1 I
   224-0-0/w UBIN        r     1 I                        156-0-0/w UBIN        r     1 I
   275-0-0/w UBIN        r     1 I                        134-0-0/w UBIN        r     1 J
   155-0-0/w SBIN        r     1 J                        273-0-0/w UBIN        r     1 J
   160-0-0/w UBIN        r     1 J                         *0-0-0/b BIT         r     1 JCL
   135-0-0/w UBIN        r     1 K
   276-0-0/w CHAR(24)    r     1 KEYNAME(0:5)
   344-0-0/w UBIN        r     1 KEYNMOD                    5-0-0/w STRC        r     1 KL$UBWORD
   105-0-0/w SBIN        r     1 LEN                      106-0-0/w UBIN        r     1 LEN2
   157-0-0/w UBIN        r     1 LENGTH                    *0-0-0/w UBIN        r     1 LENGTH
   223-0-0/w UBIN        r     1 LINE_POS
   345-0-0/w SBIN        r     1 MODIFIER(0:5)
PL6.E3A0      #001=ASL$DISP_ONE_PROFILE File=ASL$L_PRO.:E05TSI                   TUE 07/29/97 10:26 Page:740
   131-0-0/w BIT         r     1 MORE                     160-0-0/w BIT         r     1 MORE
   132-0-0/w PTR         r     1 ND$                      107-0-0/w CHAR        r     1 NEW_CHR
   161-0-0/w UBIN        r     1 NEXT                     157-0-0/w UBIN        r     1 NEXT
   167-0-0/w UBIN        r     1 NEXT                     220-0-0/w UBIN        r     1 NEXT
   161-0-0/w UBIN        r     1 NEXT                       6-0-0/w SBIN        r     1 NEXT_TAB
   221-0-0/w SBIN        r     1 NUM_ESCAPES              274-0-0/w UBIN        r     1 NUM_ON_LINE
   102-0-0/w SBIN        r     1 NXT_IDX                  121-0-0/c CHAR        r     1 ONE_CHAR_STR
   162-0-0/w UBIN        r     1 OPT_INDEX                141-0-0/w PTR         r     1 PHDR$
   277-0-0/w UBIN        r     1 POS                      222-0-0/w UBIN        r     1 POS
   264-0-0/c CHAR(12)    r     1 POSITION                 122-0-0/w PTR         r     1 PP$
   123-0-0/w PTR         r     1 PP_END$                  126-0-0/w UBIN        r     1 PP_SIZE
   125-0-0/w UBIN        r     1 PP_TYPE                  153-0-0/w PTR         r     1 PTR$
    *0-0-0/w PTR         r     1 PTR$                      *0-0-0/w PTR         r     1 PTR$
    *0-0-0/w UBIN        r     1 P_ARS
   145-0-0/c CHAR        r     1 RHEX_BUF(0:3)
     7-0-0/w SBIN        r     1 SBINS(0:55)                7-0-0/w STRC        r     1 SBINS_2(0:55)
     7-0-0/w STRC        r     1 SBINS_4(0:55)              7-0-0/w STRC        r     1 SBINS_6(0:55)
    77-0-0/w SBIN        r     1 SBIN_IDX                 155-0-0/w STRC(108)   r     1 SECOND(0:10)
   270-0-0/b BIT         r     1 SET                      143-0-0/w PTR         r     1 SPLIT$
   101-0-0/w SBIN        r     1 ST_IDX                   166-0-0/w SBIN        r     1 SVAL
   163-0-0/w SBIN        r     1 SVAL
   353-0-0/w SBIN        r     1 TAB_POS(0:5)
   362-0-0/w CHAR(12)    r     1 TEMP                     274-0-0/w PTR         r     1 TEMP$
   110-0-0/w CHAR(24)    r     1 TEMP_BUF                 116-0-0/c CHAR(10)    r     1 TEMP_STR
   144-0-0/w UBIN        r     1 UHEX_NUM                 161-0-0/w UBIN        r     1 VDH_ALG_TYPE
   165-0-0/w BIT         r     1 YES_NO

  ****  SYMREF variables  ****

  ****  Scalars and arrays  ****
OctLoc.c.b A Datatyp(siz) R M Lvl/name                 OctLoc.c.b A Datatyp(siz) R M Lvl/name

     0-0-0/w BIT (9)     r     1 ASL_3270_TYP               0-0-0/w BIT (9)     r     1 ASL_ASYNC_TYP
     0-0-0/w BIT (9)     r     1 ASL_LINK_TYP               0-0-0/w BIT (9)     r     1 ASL_POLLVIP_TYP
     0-0-0/c STRC(288)   r     1 ASL_PRO_OPT_TBL(0:8191)
     0-0-0/w BIT (9)     r     1 ASL_RBTD_TYP               0-0-0/w BIT (9)     r     1 ASL_RBT_TYP
     0-0-0/w BIT (9)     r     1 ASL_URP_TYP                0-0-0/w BIT (9)     r     1 ASL_VIRCIR_TYP
PL6.E3A0      #001=ASL$DISP_ONE_PROFILE File=ASL$L_PRO.:E05TSI                   TUE 07/29/97 10:26 Page:741
     0-0-0/c CHAR        r     1 AS_BLANK                   0-0-0/b BIT         r     1 AS_TRUE
     0-0-0/w UBIN        r     1 CODE                       0-0-0/w PTR         r     1 DSEG1$
     0-0-0/w STRC(1080)  r     1 FDS                        0-0-0/c CHAR(255)   r     1 FMT_BUF
     0-0-0/w STRC(72)    r     1 FMT_VEC(0:75)              0-0-0/c CHAR(255)   r     1 IN_BUF
     0-0-0/b BIT         r     1 LIST_ACCT_FLG              0-0-0/w UBIN        r     1 LIST_PRO_S_OPT
     0-0-0/w UBIN        r     1 LO_WIDTH                   0-0-0/w PTR         r     1 NODE$
     0-0-0/c CHAR(140)   r     1 OUT_BUF                    0-0-0/w STRC(504)   r     1 P_PCB
     0-0-0/d REMB        r     1 REMEM_VAR                  0-0-0/c STRC(378)   r     1 USERS_KEY

  ****  BASED and DCB variables  ****

  ****  Scalars and arrays  ****
OctLoc.c.b A Datatyp(siz) R M Lvl/name                 OctLoc.c.b A Datatyp(siz) R M Lvl/name

     0-0-0/c UBIN(9)     r     1 ABYTE                      0-0-0/c UBIN(9)     r     1 ABYTE
     0-0-0/c UBIN(9)     r     1 ABYTE                      0-0-0/c UBIN(9)     r     1 ABYTE
     0-0-0/w STRC(1404)  r     1 GRA$REC                    0-0-0/c STRC        r     1 KL$3270
     0-0-0/c STRC        r     1 KL$ABSGRPRND               0-0-0/c STRC(747)   r     1 KL$CCHR
     0-0-0/c STRC(144)   r     1 KL$FUNKEY                  0-0-0/c STRC(90)    r     1 KL$LINK
     0-0-0/c STRC(126)   r     1 KL$TRMD                    0-0-0/w STRC        r     1 KL$UWORD
     0-0-0/c STRC(180)   r     1 KL$VIRCIR                  0-0-0/w STRC(144)   r     1 P$B
     0-0-0/b STRC        r     1 PP$BIG_STRCT               0-0-0/b STRC(18)    r     1 PP$STRCT
     0-0-0/c STRC(720)   r     1 PRO$HDR                    0-0-0/c CHAR(256)   r     1 STRING
     0-0-0/c ASTR(9)     r     1 TEXT$C                     0-0-0/c STRC(144)   r     1 VLP$PLATEN
     0-0-0/c ASTR(9)     r     1 VLP$PNAME                  0-0-0/w STRC(288)   r     1 VLP$TAB
     0-0-0/c STRC(360)   r     1 VLP$TRMATTR                0-0-0/c STRC(144)   r     1 VLP$TRMCTRL


   Procedure ASL$DISP_ONE_PROFILE requires 11817 words for executable code.
   Procedure ASL$DISP_ONE_PROFILE requires 264 words of local(AUTO) storage.

    No errors detected in file ASL$L_PRO.:E05TSI    .
PL6.E3A0      #001=ASL$DISP_ONE_PROFILE File=ASL$L_PRO.:E05TSI                   TUE 07/29/97 10:26 Page:742
          *** CROSS REFERENCE LISTING ***
**     DENOTES     IDENTIFIER DEFINITION
<<                 IDENTIFIER'S VALUE SET
>>                 IDENTIFIER'S VALUE USED
<>                 IDENTIFIER SET AND/OR USED
--                 IDENTIFIER REFERENCED
PL6.E3A0      #001=ASL$DISP_ONE_PROFILE File=ASL$L_PRO.:E05TSI                   TUE 07/29/97 10:26 Page:743
          MINI XREF LISTING

ABSGRPRND$
     17839**DCL     18022<<ASSIGN  19841>>ASSIGN  21235>>ASSIGN
ABYTE IN PROCEDURE BUILD_JCL_FMT
     21201**DCL     22015>>IF      22016>>ASSIGN
ABYTE IN PROCEDURE DO_HEX_LIST
     20356**DCL     20358>>ASSIGN  20364>>IF      20364>>IF      20364>>IF      20379>>ASSIGN  20388>>IF
     20388>>IF      20399>>DOWHILE 20399>>DOWHILE 20421--ASSIGN
ABYTE IN PROCEDURE DO_SETUP_CHR_JCL
     22111**DCL     22119>>ASSIGN  22125>>IF      22125>>IF      22141>>ASSIGN  22151>>IF      22164>>DOWHILE
     22164>>DOWHILE 22165>>ASSIGN  22192--ASSIGN
ABYTE IN PROCEDURE INSERT_FIELD
     18397**DCL     20268>>IF      20269>>ASSIGN
ACCT_ARRY
     17785**DCL     18101--IF      18108<<ASSIGN  18109--ASSIGN
ALL_STR
     17551**DCL     19470--ASSIGN
ANS_STR
     17536**DCL     19194--ASSIGN  19222--ASSIGN  20276--ASSIGN
ARS
     17941**DCL     18253<>CALL    18254>>ASSIGN
ASA_BRKS_LOC
     12981**DCL     12981--REDEF
ASB$PAGE_LO
     15845**DCL-ENT 18215--CALL
ASB$READ_SI
     15848**DCL-ENT 18253--CALL
ASB$SET_PROMPT
     15851**DCL-ENT 18252--CALL
ASB$WRITE_LO
     15842**DCL-ENT 18079--CALL    18097--CALL    18144--CALL    18145--CALL    18176--CALL    18177--CALL
     18208--CALL    18212--CALL    18214--CALL    20516--CALL    20517--CALL    20543--CALL    20589--CALL
     20904--CALL    20908--CALL    22090--CALL
PL6.E3A0      #001=ASL$DISP_ONE_PROFILE File=ASL$L_PRO.:E05TSI                   TUE 07/29/97 10:26 Page:744
ASD$GR_READ_PRO
     15854**DCL-ENT 18129--CALL    18167--CALL
ASH$DQUEST
     15863**DCL-ENT 18290--CALL
ASH$ERROR
     15860**DCL-ENT 18131--CALL    18196--CALL    18204--CALL    18281--CALL    18294--CALL
ASH$HELP
     15857**DCL-ENT 18286--CALL
ASH$QUEST
     15866**DCL-ENT 18288--CALL
ASL_3270_TYP
     12839**DCL     18240>>ASSIGN  18942>>IF      19384>>IF      21614>>IF      21691>>IF
ASL_ASYNC_TYP
     12838**DCL     18227>>ASSIGN
ASL_LINK_TYP
     12838**DCL     18233>>ASSIGN
ASL_POLLVIP_TYP
     12837**DCL     18242>>ASSIGN
ASL_PRO_OPT_TBL.FMT_IDX
     12841**DCL     21933>>DOSELCT 21967>>ASSIGN  21976>>CALLBLT 21977>>ASSIGN  21979>>ASSIGN
ASL_PRO_OPT_TBL.HDR
     12840**DCL     18334>>CALLBLT 21221>>CALLBLT 21222--ASSIGN
ASL_PRO_OPT_TBL.LEN
     12840**DCL     18316>>DOWHILE 18330>>IF      18334>>CALLBLT 18336>>ASSIGN  18367>>DOWHILE 18379>>ASSIGN
     20497>>IF      21219>>IF
ASL_PRO_OPT_TBL.ORDR
     12840**DCL     18120>>IF      18122>>IF      18315>>ASSIGN  18320>>ASSIGN  18366>>ASSIGN  18369>>ASSIGN
     18400>>ASSIGN  20491>>IF      20497>>IF      21218>>ASSIGN
ASL_PRO_OPT_TBL.POS
     12840**DCL     21955>>CALLBLT 21957>>ASSIGN  21971>>CALLBLT 21973>>ASSIGN
ASL_PRO_OPT_TBL.TYP
     12840**DCL     18269>>IF      18277>>IF
ASL_RBTD_TYP
     12838**DCL     18229>>ASSIGN
ASL_RBT_TYP
     12837**DCL     18231>>ASSIGN
PL6.E3A0      #001=ASL$DISP_ONE_PROFILE File=ASL$L_PRO.:E05TSI                   TUE 07/29/97 10:26 Page:745
ASL_URP_TYP
     12839**DCL     18238>>ASSIGN
ASL_VIRCIR_TYP
     12837**DCL     18236>>ASSIGN
ASYNC_STR
     17593**DCL     18049--ASSIGN  18050>>ASSIGN
AS_BLANK
     12841**DCL     19178>>IF      19185>>IF      20255>>CALLBLT 20959>>CALLBLT 21003>>CALLBLT 21541>>IF
AS_DEFAULT.BANNER_PERM
     13674**DCL     13675--REDEF
AS_DEFAULT.BUDGET.MACCT
     13579**DCL     13583--REDEF
AS_DEFAULT.BUDGET.MAX_PROJECTS
     13592**DCL     13595--REDEF
AS_DEFAULT.BUDGET.PACCUM
     13575**DCL     13577--REDEF
AS_DEFAULT.BUDGET.PMAXC
     13570**DCL     13572--REDEF
AS_DEFAULT.SETUP_CHRA.TXT
     13690**DCL     13691--REDEF   13692--REDEF
AS_DEFAULT_DREC.PASSWORD
     14944**DCL     14948--REDEF
AS_DEFAULT_DREC.RENAME
     14967**DCL     14968--REDEF
AS_DFLT.BANNER_PERM
     13496**DCL     13497--REDEF
AS_DFLT.BUDGET.MACCT
     13401**DCL     13405--REDEF
AS_DFLT.BUDGET.MAX_PROJECTS
     13414**DCL     13417--REDEF
AS_DFLT.BUDGET.PACCUM
     13397**DCL     13399--REDEF
AS_DFLT.BUDGET.PMAXC
     13392**DCL     13394--REDEF
AS_DFLT.SETUP_CHRA.TXT
     13512**DCL     13513--REDEF   13514--REDEF
PL6.E3A0      #001=ASL$DISP_ONE_PROFILE File=ASL$L_PRO.:E05TSI                   TUE 07/29/97 10:26 Page:746
AS_FE_MODE
     12847**DCL     12848--REDEF
AS_MODE
     12844**DCL     12846--REDEF
AS_MOD_USER.ACCESS
     15709**DCL     15710--REDEF
AS_MOD_USER.BANNER
     15696**DCL     15697--REDEF
AS_MOD_USER.BANNER_PERM
     15698**DCL     15699--REDEF
AS_MOD_USER.BILL
     15704**DCL     15705--REDEF
AS_MOD_USER.CPROC
     15700**DCL     15701--REDEF
AS_MOD_USER.FEBILL
     15780**DCL     15781--REDEF
AS_MOD_USER.FECXTMEM
     15797**DCL     15798--REDEF
AS_MOD_USER.FEMINTS
     15782**DCL     15783--REDEF
AS_MOD_USER.FEMMEM
     15793**DCL     15794--REDEF
AS_MOD_USER.FEMTIME
     15791**DCL     15792--REDEF
AS_MOD_USER.FEPPRIV
     15788**DCL     15790--REDEF
AS_MOD_USER.FEPRIV
     15785**DCL     15787--REDEF
AS_MOD_USER.FORCE_BIT
     15694**DCL     15695--REDEF
AS_MOD_USER.KEY
     15776**DCL     15778--REDEF
AS_MOD_USER.LASTCPROC
     15702**DCL     15703--REDEF
AS_MOD_USER.LIMITS.DO_
     15750**DCL     15751--REDEF
PL6.E3A0      #001=ASL$DISP_ONE_PROFILE File=ASL$L_PRO.:E05TSI                   TUE 07/29/97 10:26 Page:747
AS_MOD_USER.LIMITS.FPOOLS
     15766**DCL     15767--REDEF
AS_MOD_USER.LIMITS.LO
     15746**DCL     15747--REDEF
AS_MOD_USER.LIMITS.MEM
     15742**DCL     15743--REDEF
AS_MOD_USER.LIMITS.MPRIO
     15770**DCL     15771--REDEF
AS_MOD_USER.LIMITS.PDIS
     15758**DCL     15759--REDEF
AS_MOD_USER.LIMITS.PO
     15754**DCL     15755--REDEF
AS_MOD_USER.LIMITS.TDIS
     15762**DCL     15763--REDEF
AS_MOD_USER.LIMITS.TIME
     15738**DCL     15739--REDEF
AS_MOD_USER.MAXENQ
     15719**DCL     15720--REDEF
AS_MOD_USER.PERM_BIT
     15692**DCL     15693--REDEF
AS_MOD_USER.PPRIV
     15714**DCL     15716--REDEF
AS_MOD_USER.PRIOB
     15721**DCL     15722--REDEF
AS_MOD_USER.PRIV
     15711**DCL     15713--REDEF
AS_MOD_USER.QUAN
     15717**DCL     15718--REDEF
AS_MOD_USER.SETUP
     15690**DCL     15691--REDEF
AS_PROJECT.BANNER_PERM
     14030**DCL     14031--REDEF
AS_PROJECT.BUDGET.MACCT
     13935**DCL     13939--REDEF
AS_PROJECT.BUDGET.MAX_PROJECTS
     13948**DCL     13951--REDEF
PL6.E3A0      #001=ASL$DISP_ONE_PROFILE File=ASL$L_PRO.:E05TSI                   TUE 07/29/97 10:26 Page:748
AS_PROJECT.BUDGET.PACCUM
     13931**DCL     13933--REDEF
AS_PROJECT.BUDGET.PMAXC
     13926**DCL     13928--REDEF
AS_PROJECT.SETUP_CHRA.TXT
     14046**DCL     14047--REDEF   14048--REDEF
AS_PROJECT_DFLT.BANNER_PERM
     14208**DCL     14209--REDEF
AS_PROJECT_DFLT.BUDGET.MACCT
     14113**DCL     14117--REDEF
AS_PROJECT_DFLT.BUDGET.MAX_PROJECTS
     14126**DCL     14129--REDEF
AS_PROJECT_DFLT.BUDGET.PACCUM
     14109**DCL     14111--REDEF
AS_PROJECT_DFLT.BUDGET.PMAXC
     14104**DCL     14106--REDEF
AS_PROJECT_DFLT.SETUP_CHRA.TXT
     14224**DCL     14225--REDEF   14226--REDEF
AS_PROJECT_DFLT_DREC.PASSWORD
     15430**DCL     15434--REDEF
AS_PROJECT_DFLT_DREC.RENAME
     15453**DCL     15454--REDEF
AS_PROJECT_DREC.PASSWORD
     15268**DCL     15272--REDEF
AS_PROJECT_DREC.RENAME
     15291**DCL     15292--REDEF
AS_PROJ_ADMIN.BANNER_PERM
     13852**DCL     13853--REDEF
AS_PROJ_ADMIN.BUDGET.MACCT
     13757**DCL     13761--REDEF
AS_PROJ_ADMIN.BUDGET.MAX_PROJECTS
     13770**DCL     13773--REDEF
AS_PROJ_ADMIN.BUDGET.PACCUM
     13753**DCL     13755--REDEF
AS_PROJ_ADMIN.BUDGET.PMAXC
     13748**DCL     13750--REDEF
PL6.E3A0      #001=ASL$DISP_ONE_PROFILE File=ASL$L_PRO.:E05TSI                   TUE 07/29/97 10:26 Page:749
AS_PROJ_ADMIN.SETUP_CHRA.TXT
     13868**DCL     13869--REDEF   13870--REDEF
AS_PROJ_ADMIN_DREC.PASSWORD
     15106**DCL     15110--REDEF
AS_PROJ_ADMIN_DREC.RENAME
     15129**DCL     15130--REDEF
AS_TRUE
     12841**DCL     18914>>IF      19005>>IF
AS_USERS.BANNER_PERM
     13318**DCL     13319--REDEF
AS_USERS.BUDGET.MACCT
     13223**DCL     13227--REDEF
AS_USERS.BUDGET.MAX_PROJECTS
     13236**DCL     13239--REDEF
AS_USERS.BUDGET.PACCUM
     13219**DCL     13221--REDEF
AS_USERS.BUDGET.PMAXC
     13214**DCL     13216--REDEF
AS_USERS.SETUP_CHRA.TXT
     13334**DCL     13335--REDEF   13336--REDEF
AS_USERS_CONSTANT.BANNER_PERM
     14386**DCL     14387--REDEF
AS_USERS_CONSTANT.BUDGET.MACCT
     14291**DCL     14295--REDEF
AS_USERS_CONSTANT.BUDGET.MAX_PROJECTS
     14304**DCL     14307--REDEF
AS_USERS_CONSTANT.BUDGET.PACCUM
     14287**DCL     14289--REDEF
AS_USERS_CONSTANT.BUDGET.PMAXC
     14282**DCL     14284--REDEF
AS_USERS_CONSTANT.SETUP_CHRA.TXT
     14402**DCL     14403--REDEF   14404--REDEF
BLANKS_STR
     17612**DCL     19430--ASSIGN
BLANK_BUF
     17843**DCL     18358--ASSIGN
PL6.E3A0      #001=ASL$DISP_ONE_PROFILE File=ASL$L_PRO.:E05TSI                   TUE 07/29/97 10:26 Page:750
BOG
     17928**DCL     17929--REDEF
BUILD_HDR
     18304**PROC    18141--CALL    18173--CALL
BUILD_JCL_FMT
     21197**PROC    18136--CALL
CLASS IN PROCEDURE BUILD_JCL_FMT
     21202**DCL     21409<<ASSIGN  21415<<ASSIGN  21426<<ASSIGN  21432<<ASSIGN  21441<<ASSIGN  21507<<ASSIGN
     21516<<ASSIGN  21537<<ASSIGN  21556<<ASSIGN  21561<<ASSIGN  21575<<ASSIGN  21595<<ASSIGN  21609<<ASSIGN
     21660<<ASSIGN  21671<<ASSIGN  21677<<ASSIGN  21683<<ASSIGN  21688<<ASSIGN  21694<<ASSIGN  21702<<ASSIGN
     21710<<ASSIGN  21718<<ASSIGN  21736<<ASSIGN  21747<<ASSIGN  21752<<ASSIGN  21758<<ASSIGN  21767<<ASSIGN
     21773<<ASSIGN  21778<<ASSIGN  21789<<ASSIGN  21798<<ASSIGN  21805<<ASSIGN  21826<<ASSIGN  21831<<ASSIGN
     21838<<ASSIGN  21842<<ASSIGN  21949>>CALLBLT 21950>>ASSIGN  21967<<ASSIGN  21979<<ASSIGN  21983>>DOSELCT
CLASS IN PROCEDURE INSERT_FIELD
     18390**DCL     18399<<ASSIGN  18407<<ASSIGN  18411<<ASSIGN  18418<<ASSIGN  18422<<ASSIGN  18429<<ASSIGN
     18433<<ASSIGN  18440<<ASSIGN  18444<<ASSIGN  18451<<ASSIGN  18455<<ASSIGN  18462<<ASSIGN  18466<<ASSIGN
     18473<<ASSIGN  18477<<ASSIGN  18482<<ASSIGN  18486<<ASSIGN  18492<<ASSIGN  18496<<ASSIGN  18503<<ASSIGN
     18507<<ASSIGN  18514<<ASSIGN  18518<<ASSIGN  18525<<ASSIGN  18529<<ASSIGN  18536<<ASSIGN  18540<<ASSIGN
     18547<<ASSIGN  18551<<ASSIGN  18558<<ASSIGN  18562<<ASSIGN  18569<<ASSIGN  18573<<ASSIGN  18579<<ASSIGN
     18583<<ASSIGN  18589<<ASSIGN  18593<<ASSIGN  18600<<ASSIGN  18604<<ASSIGN  18611<<ASSIGN  18615<<ASSIGN
     18622<<ASSIGN  18626<<ASSIGN  18633<<ASSIGN  18637<<ASSIGN  18644<<ASSIGN  18648<<ASSIGN  18654<<ASSIGN
     18658<<ASSIGN  18662<<ASSIGN  18668<<ASSIGN  18672<<ASSIGN  18679<<ASSIGN  18683<<ASSIGN  18690<<ASSIGN
     18694<<ASSIGN  18701<<ASSIGN  18705<<ASSIGN  18712<<ASSIGN  18716<<ASSIGN  18723<<ASSIGN  18727<<ASSIGN
     18734<<ASSIGN  18738<<ASSIGN  18745<<ASSIGN  18749<<ASSIGN  18756<<ASSIGN  18760<<ASSIGN  18767<<ASSIGN
     18771<<ASSIGN  18778<<ASSIGN  18782<<ASSIGN  18789<<ASSIGN  18793<<ASSIGN  18800<<ASSIGN  18804<<ASSIGN
     18811<<ASSIGN  18815<<ASSIGN  18822<<ASSIGN  18826<<ASSIGN  18833<<ASSIGN  18837<<ASSIGN  18844<<ASSIGN
     18848<<ASSIGN  18855<<ASSIGN  18859<<ASSIGN  18866<<ASSIGN  18870<<ASSIGN  18877<<ASSIGN  18881<<ASSIGN
     18888<<ASSIGN  18892<<ASSIGN  18899<<ASSIGN  18903<<ASSIGN  18910<<ASSIGN  18917<<ASSIGN  18926<<ASSIGN
     18929<<ASSIGN  18933<<ASSIGN  18937<<ASSIGN  18951<<ASSIGN  18957<<ASSIGN  18961<<ASSIGN  18968<<ASSIGN
     18972<<ASSIGN  18979<<ASSIGN  18983<<ASSIGN  18990<<ASSIGN  18994<<ASSIGN  19001<<ASSIGN  19008<<ASSIGN
     19015<<ASSIGN  19019<<ASSIGN  19024<<ASSIGN  19030<<ASSIGN  19034<<ASSIGN  19074<<ASSIGN  19077<<ASSIGN
     19080<<ASSIGN  19083<<ASSIGN  19086<<ASSIGN  19089<<ASSIGN  19092<<ASSIGN  19095<<ASSIGN  19098<<ASSIGN
     19105<<ASSIGN  19112<<ASSIGN  19119<<ASSIGN  19126<<ASSIGN  19133<<ASSIGN  19140<<ASSIGN  19147<<ASSIGN
     19154<<ASSIGN  19161<<ASSIGN  19168<<ASSIGN  19175<<ASSIGN  19182<<ASSIGN  19189<<ASSIGN  19201<<ASSIGN
     19218<<ASSIGN  19231<<ASSIGN  19247<<ASSIGN  19265<<ASSIGN  19268<<ASSIGN  19272<<ASSIGN  19276<<ASSIGN
     19280<<ASSIGN  19284<<ASSIGN  19288<<ASSIGN  19292<<ASSIGN  19296<<ASSIGN  19300<<ASSIGN  19306<<ASSIGN
PL6.E3A0      #001=ASL$DISP_ONE_PROFILE File=ASL$L_PRO.:E05TSI                   TUE 07/29/97 10:26 Page:751
     19310<<ASSIGN  19317<<ASSIGN  19321<<ASSIGN  19328<<ASSIGN  19332<<ASSIGN  19339<<ASSIGN  19343<<ASSIGN
     19349<<ASSIGN  19353<<ASSIGN  19357<<ASSIGN  19361<<ASSIGN  19365<<ASSIGN  19369<<ASSIGN  19373<<ASSIGN
     19377<<ASSIGN  19381<<ASSIGN  19387<<ASSIGN  19391<<ASSIGN  19396<<ASSIGN  19400<<ASSIGN  19404<<ASSIGN
     19408<<ASSIGN  19412<<ASSIGN  19416<<ASSIGN  19420<<ASSIGN  19432<<ASSIGN  19435<<ASSIGN  19439<<ASSIGN
     19442<<ASSIGN  19459<<ASSIGN  19472<<ASSIGN  19484<<ASSIGN  19488<<ASSIGN  19493<<ASSIGN  19498<<ASSIGN
     19503<<ASSIGN  19508<<ASSIGN  19516<<ASSIGN  19521<<ASSIGN  19526<<ASSIGN  19531<<ASSIGN  19536<<ASSIGN
     19544<<ASSIGN  19549<<ASSIGN  19557<<ASSIGN  19562<<ASSIGN  19568<<ASSIGN  19573<<ASSIGN  19578<<ASSIGN
     19583<<ASSIGN  19592<<ASSIGN  19611<<ASSIGN  19638<<ASSIGN  19641<<ASSIGN  19644<<ASSIGN  19661<<ASSIGN
     19688<<ASSIGN  19691<<ASSIGN  19694<<ASSIGN  19700<<ASSIGN  19704<<ASSIGN  19711<<ASSIGN  19715<<ASSIGN
     19719<<ASSIGN  19722<<ASSIGN  19726<<ASSIGN  19730<<ASSIGN  19734<<ASSIGN  19741<<ASSIGN  19745<<ASSIGN
     19749<<ASSIGN  19753<<ASSIGN  19757<<ASSIGN  19761<<ASSIGN  19764<<ASSIGN  19767<<ASSIGN  19770<<ASSIGN
     19773<<ASSIGN  19776<<ASSIGN  19779<<ASSIGN  19782<<ASSIGN  19785<<ASSIGN  19788<<ASSIGN  19791<<ASSIGN
     19794<<ASSIGN  19797<<ASSIGN  19801<<ASSIGN  19805<<ASSIGN  19809<<ASSIGN  19813<<ASSIGN  19817<<ASSIGN
     19827<<ASSIGN  19830<<ASSIGN  19833<<ASSIGN  19843<<ASSIGN  19846<<ASSIGN  19853<<ASSIGN  19857<<ASSIGN
     19864<<ASSIGN  19868<<ASSIGN  19875<<ASSIGN  19879<<ASSIGN  19884<<ASSIGN  19888<<ASSIGN  19892<<ASSIGN
     19896<<ASSIGN  19900<<ASSIGN  19903<<ASSIGN  19906<<ASSIGN  19909<<ASSIGN  19912<<ASSIGN  19915<<ASSIGN
     19918<<ASSIGN  19921<<ASSIGN  19926<<ASSIGN  19930<<ASSIGN  19936<<ASSIGN  19940<<ASSIGN  19946<<ASSIGN
     19950<<ASSIGN  19956<<ASSIGN  19960<<ASSIGN  19967<<ASSIGN  19971<<ASSIGN  19978<<ASSIGN  19982<<ASSIGN
     19987<<ASSIGN  19993<<ASSIGN  19997<<ASSIGN  20004<<ASSIGN  20008<<ASSIGN  20012<<ASSIGN  20017<<ASSIGN
     20021<<ASSIGN  20025<<ASSIGN  20028<<ASSIGN  20031<<ASSIGN  20034<<ASSIGN  20037<<ASSIGN  20040<<ASSIGN
     20043<<ASSIGN  20046<<ASSIGN  20049<<ASSIGN  20052<<ASSIGN  20055<<ASSIGN  20058<<ASSIGN  20061<<ASSIGN
     20064<<ASSIGN  20067<<ASSIGN  20070<<ASSIGN  20073<<ASSIGN  20076<<ASSIGN  20079<<ASSIGN  20082<<ASSIGN
     20085<<ASSIGN  20088<<ASSIGN  20091<<ASSIGN  20094<<ASSIGN  20097<<ASSIGN  20100<<ASSIGN  20103<<ASSIGN
     20106<<ASSIGN  20109<<ASSIGN  20112<<ASSIGN  20115<<ASSIGN  20118<<ASSIGN  20121<<ASSIGN  20124<<ASSIGN
     20127<<ASSIGN  20130<<ASSIGN  20133<<ASSIGN  20136<<ASSIGN  20139<<ASSIGN  20143<<ASSIGN  20147<<ASSIGN
     20151<<ASSIGN  20155<<ASSIGN  20159<<ASSIGN  20163<<ASSIGN  20167<<ASSIGN  20171<<ASSIGN  20175<<ASSIGN
     20179<<ASSIGN  20183<<ASSIGN  20187<<ASSIGN  20191<<ASSIGN  20195<<ASSIGN  20199<<ASSIGN  20203<<ASSIGN
     20207<<ASSIGN  20211<<ASSIGN  20215<<ASSIGN  20217>>DOSELCT
CMP_CNT IN PROCEDURE BUILD_HDR
     18306**DCL     18304--PROC    18316>>DOWHILE 18327>>IF
CODE
     12974**DCL     18224<<ASSIGN  18225>>DOSELCT
COUNT IN PROCEDURE DO_HEX_LIST
     20353**DCL     20358<<ASSIGN  20361>>IF      20363>>DOWHILE 20403>>IF
COUNT IN PROCEDURE DO_SETUP_CHR_JCL
     22110**DCL     22119<<ASSIGN  22122>>IF      22124>>DOWHILE 22170>>IF
PL6.E3A0      #001=ASL$DISP_ONE_PROFILE File=ASL$L_PRO.:E05TSI                   TUE 07/29/97 10:26 Page:752
CUR_IDX IN PROCEDURE BUILD_HDR
     18307**DCL     18310<<ASSIGN  18315>>ASSIGN  18319<<ASSIGN  18319>>ASSIGN  18320>>ASSIGN  18322>>IF
     18324>>ASSIGN  18338<<ASSIGN  18338>>ASSIGN  18347>>ASSIGN  18348>>ASSIGN
CUR_IDX IN PROCEDURE LIST_FIELDS
     18354**DCL     18364<<ASSIGN  18366>>ASSIGN  18368<<ASSIGN  18368>>ASSIGN  18369>>ASSIGN  18380<<ASSIGN
     18380>>ASSIGN  18400>>ASSIGN
CUR_IDX IN PROCEDURE LIST_GR_ESCAPES
     20480**DCL     20502<<ASSIGN  20506>>ASSIGN  20509>>ASSIGN
CUR_KEY IN PROCEDURE LIST_FUNKEY_DEFS
     20627**DCL     20916<<ASSIGN  20918>>DOWHILE 20926>>DOWHILE 20930<<ASSIGN  20930>>ASSIGN  20932>>IF
     20934>>IF      20942>>IF      20944>>IF      20944>>IF      20946>>ASSIGN  20948>>IF      20950>>ASSIGN
     20954>>ASSIGN  20969>>IF      20971>>ASSIGN  20973>>IF      20978>>ASSIGN  20983>>ASSIGN  20988>>IF
     20988>>IF      20990>>ASSIGN  20992>>IF      20994>>ASSIGN  20998>>ASSIGN  21022>>IF      21078>>IF
     21149>>IF      21149>>IF      21151>>ASSIGN  21157>>IF      21159>>ASSIGN  21165>>ASSIGN
DBL_STR
     17538**DCL     19224--ASSIGN
DC1DC3_STR
     17542**DCL     19209--ASSIGN
DCRINT_STR
     17615**DCL     20302--ASSIGN
DC_STR
     17592**DCL     18406--ASSIGN  18417--ASSIGN  18428--ASSIGN  18439--ASSIGN  18450--ASSIGN  18461--ASSIGN
     18472--ASSIGN  18491--ASSIGN  18502--ASSIGN  18513--ASSIGN  18524--ASSIGN  18535--ASSIGN  18546--ASSIGN
     18557--ASSIGN  18568--ASSIGN  18578--ASSIGN  18588--ASSIGN  18599--ASSIGN  18610--ASSIGN  18621--ASSIGN
     18632--ASSIGN  18643--ASSIGN  18653--ASSIGN  18667--ASSIGN  18678--ASSIGN  18689--ASSIGN  18700--ASSIGN
     18711--ASSIGN  18722--ASSIGN  18733--ASSIGN  18744--ASSIGN  18755--ASSIGN  18766--ASSIGN  18777--ASSIGN
     18788--ASSIGN  18799--ASSIGN  18810--ASSIGN  18821--ASSIGN  18832--ASSIGN  18843--ASSIGN  18854--ASSIGN
     18865--ASSIGN  18876--ASSIGN  18887--ASSIGN  18898--ASSIGN  18909--ASSIGN  18956--ASSIGN  18967--ASSIGN
     18978--ASSIGN  18989--ASSIGN  19000--ASSIGN  19014--ASSIGN  19029--ASSIGN  19040--ASSIGN  19213--ASSIGN
     19245--ASSIGN  19305--ASSIGN  19316--ASSIGN  19327--ASSIGN  19338--ASSIGN  19699--ASSIGN  19710--ASSIGN
     19821--ASSIGN  19852--ASSIGN  19863--ASSIGN  19874--ASSIGN  19925--ASSIGN  19935--ASSIGN  19945--ASSIGN
     19955--ASSIGN  19966--ASSIGN  19977--ASSIGN  19992--ASSIGN  20003--ASSIGN  20016--ASSIGN
DO_ALL
     18267**LABEL   18248--GOTO
DO_GRAPHIC
     17950**DCL     18154<<ASSIGN  18158<<ASSIGN  18163>>IF
PL6.E3A0      #001=ASL$DISP_ONE_PROFILE File=ASL$L_PRO.:E05TSI                   TUE 07/29/97 10:26 Page:753
DO_HEX_LIST
     20337**PROC    20270--CALL    22018--CALL
DO_SETUP_CHR_JCL
     22094**PROC    21818--CALL
DSEG1$
     12982**DCL     17968>>ASSIGN  17969>>ASSIGN  18047>>DOSELCT 18127>>IF      18165>>IF      18223>>ASSIGN
     19474>>IF      19495>>IF      19512>>IF      19540>>IF      19553>>IF      19887>>ASSIGN  21420>>IF
     21548>>IF      21652>>IF      21728>>IF      21781>>IF      21795>>IF
DTABS$
     17831**DCL     17998<<ASSIGN  20445>>ASSIGN  21843>>ASSIGN
ENQACK_STR
     17540**DCL     19205--ASSIGN
ENTRY_LENGTH IN PROCEDURE LIST_FUNKEY_DEFS
     20628**DCL     20914>>ASSIGN  20926>>DOWHILE 21174>>IF
ERR_CODE
     12976**DCL     12977--REDEF
ETXACK_STR
     17541**DCL     19207--ASSIGN
EVEN_STR
     17585**DCL     19239--ASSIGN
E_BADLSTPROOPT
     17856**DCL     18281<>CALL
E_NOGRAFND
     17896**DCL     18131<>CALL    18204<>CALL
E_NOGRAREC
     17876**DCL     18196<>CALL
FDS
     12873**DCL     18075<>CALL    18096<>CALL    18104<>CALL    18382<>CALL    20374<>CALL    20392<>CALL
     20414<>CALL    20530<>CALL    20542<>CALL    20590<>CALL    20606<>CALL    21189<>CALL    22085<>CALL
     22135<>CALL    22155<>CALL    22184<>CALL
FDS.BUF_.BOUND
     12891**DCL     18357<<ASSIGN  18384<<ASSIGN
FDS.FMT_.BOUND
     12878**DCL     18035<<ASSIGN  18112<<ASSIGN  18361<<ASSIGN  18376>>CALLBLT 18377<<ASSIGN  18377>>ASSIGN
     20220>>CALLBLT 20221<<ASSIGN  20221>>ASSIGN  20229>>CALLBLT 20230<<ASSIGN  20230>>ASSIGN  20235>>CALLBLT
     20236<<ASSIGN  20236>>ASSIGN  20248>>CALLBLT 20249<<ASSIGN  20249>>ASSIGN  20262>>CALLBLT 20263<<ASSIGN
PL6.E3A0      #001=ASL$DISP_ONE_PROFILE File=ASL$L_PRO.:E05TSI                   TUE 07/29/97 10:26 Page:754
     20263>>ASSIGN  20283>>CALLBLT 20284<<ASSIGN  20284>>ASSIGN  20286>>CALLBLT 20287<<ASSIGN  20287>>ASSIGN
     20372>>IF      20373<<ASSIGN  20373>>ASSIGN  20377<<ASSIGN  20381>>ASSIGN  20382<<ASSIGN  20382>>ASSIGN
     20390>>IF      20391<<ASSIGN  20391>>ASSIGN  20395<<ASSIGN  20406>>CALLBLT 20407<<ASSIGN  20407>>ASSIGN
     20412>>IF      20413<<ASSIGN  20413>>ASSIGN  20417<<ASSIGN  20419>>CALLBLT 20420<<ASSIGN  20420>>ASSIGN
     20426<<ASSIGN  20426>>ASSIGN  20431>>CALLBLT 20432<<ASSIGN  20432>>ASSIGN  20444<<ASSIGN  20457>>CALLBLT
     20458<<ASSIGN  20458>>ASSIGN  20462>>CALLBLT 20463<<ASSIGN  20463>>ASSIGN  20526<<ASSIGN  20558<<ASSIGN
     20571<<ASSIGN  20571>>ASSIGN  20595<<ASSIGN  20604<<ASSIGN  20604>>ASSIGN  20611<<ASSIGN  20925<<ASSIGN
     21017>>CALLBLT 21018<<ASSIGN  21018>>ASSIGN  21028>>CALLBLT 21029<<ASSIGN  21029>>ASSIGN  21040>>CALLBLT
     21041<<ASSIGN  21041>>ASSIGN  21046>>CALLBLT 21047<<ASSIGN  21047>>ASSIGN  21055>>CALLBLT 21056<<ASSIGN
     21056>>ASSIGN  21067>>CALLBLT 21068<<ASSIGN  21068>>ASSIGN  21073>>CALLBLT 21074<<ASSIGN  21074>>ASSIGN
     21084>>CALLBLT 21085<<ASSIGN  21085>>ASSIGN  21096>>CALLBLT 21097<<ASSIGN  21097>>ASSIGN  21102>>CALLBLT
     21103<<ASSIGN  21103>>ASSIGN  21111>>CALLBLT 21112<<ASSIGN  21112>>ASSIGN  21123>>CALLBLT 21124<<ASSIGN
     21124>>ASSIGN  21129>>CALLBLT 21130<<ASSIGN  21130>>ASSIGN  21143>>CALLBLT 21144<<ASSIGN  21144>>ASSIGN
     21153>>CALLBLT 21154<<ASSIGN  21154>>ASSIGN  21161>>CALLBLT 21162<<ASSIGN  21162>>ASSIGN  21167>>CALLBLT
     21168<<ASSIGN  21168>>ASSIGN  21176>>CALLBLT 21177<<ASSIGN  21177>>ASSIGN  21181>>CALLBLT 21182<<ASSIGN
     21182>>ASSIGN  21187>>IF      21222<<ASSIGN  21407<<ASSIGN  21414<<ASSIGN  21425<<ASSIGN  21708<<ASSIGN
     21816>>ASSIGN  21938>>ASSIGN  21939<<ASSIGN  21939>>ASSIGN  21941>>ASSIGN  21942<<ASSIGN  21942>>ASSIGN
     21947>>ASSIGN  21948<<ASSIGN  21948>>ASSIGN  21950>>ASSIGN  21951<<ASSIGN  21951>>ASSIGN  21956>>ASSIGN
     21957>>ASSIGN  21958>>ASSIGN  21959<<ASSIGN  21959>>ASSIGN  21961>>ASSIGN  21962<<ASSIGN  21962>>ASSIGN
     21972>>ASSIGN  21973>>ASSIGN  21974>>ASSIGN  21975<<ASSIGN  21975>>ASSIGN  21977>>ASSIGN  21978<<ASSIGN
     21978>>ASSIGN  22000>>ASSIGN  22001<<ASSIGN  22001>>ASSIGN  22066>>ASSIGN  22067<<ASSIGN  22067>>ASSIGN
     22070>>ASSIGN  22071<<ASSIGN  22071>>ASSIGN  22076>>ASSIGN  22077<<ASSIGN  22077>>ASSIGN  22134<<ASSIGN
     22134>>ASSIGN  22138<<ASSIGN  22143>>ASSIGN  22144<<ASSIGN  22144>>ASSIGN  22154<<ASSIGN  22154>>ASSIGN
     22158<<ASSIGN  22176>>ASSIGN  22177<<ASSIGN  22177>>ASSIGN  22183<<ASSIGN  22183>>ASSIGN  22187<<ASSIGN
     22190>>CALLBLT 22191<<ASSIGN  22191>>ASSIGN  22198<<ASSIGN  22198>>ASSIGN  22203>>CALLBLT 22204<<ASSIGN
     22204>>ASSIGN
FDS.NVECS#
     12901**DCL     18036<<ASSIGN  18098<<ASSIGN  18101>>IF      18105<<ASSIGN  18108>>ASSIGN  18109>>ASSIGN
     18109>>ASSIGN  18110>>CALLBLT 18111<<ASSIGN  18111>>ASSIGN  18112>>ASSIGN  18359<<ASSIGN  18372>>ASSIGN
     18375<<ASSIGN  18375>>ASSIGN  18383<<ASSIGN  18406>>ASSIGN  18417>>ASSIGN  18428>>ASSIGN  18439>>ASSIGN
     18450>>ASSIGN  18461>>ASSIGN  18472>>ASSIGN  18491>>ASSIGN  18502>>ASSIGN  18513>>ASSIGN  18524>>ASSIGN
     18535>>ASSIGN  18546>>ASSIGN  18557>>ASSIGN  18568>>ASSIGN  18578>>ASSIGN  18588>>ASSIGN  18599>>ASSIGN
     18610>>ASSIGN  18621>>ASSIGN  18632>>ASSIGN  18643>>ASSIGN  18653>>ASSIGN  18667>>ASSIGN  18678>>ASSIGN
     18689>>ASSIGN  18700>>ASSIGN  18711>>ASSIGN  18722>>ASSIGN  18733>>ASSIGN  18744>>ASSIGN  18755>>ASSIGN
     18766>>ASSIGN  18777>>ASSIGN  18788>>ASSIGN  18799>>ASSIGN  18810>>ASSIGN  18821>>ASSIGN  18832>>ASSIGN
     18843>>ASSIGN  18854>>ASSIGN  18865>>ASSIGN  18876>>ASSIGN  18887>>ASSIGN  18898>>ASSIGN  18909>>ASSIGN
PL6.E3A0      #001=ASL$DISP_ONE_PROFILE File=ASL$L_PRO.:E05TSI                   TUE 07/29/97 10:26 Page:755
     18956>>ASSIGN  18967>>ASSIGN  18978>>ASSIGN  18989>>ASSIGN  19000>>ASSIGN  19014>>ASSIGN  19029>>ASSIGN
     19040>>ASSIGN  19042>>ASSIGN  19044>>ASSIGN  19046>>ASSIGN  19048>>ASSIGN  19050>>ASSIGN  19052>>ASSIGN
     19054>>ASSIGN  19056>>ASSIGN  19058>>ASSIGN  19060>>ASSIGN  19062>>ASSIGN  19064>>ASSIGN  19066>>ASSIGN
     19068>>ASSIGN  19070>>ASSIGN  19072>>ASSIGN  19179>>ASSIGN  19181>>ASSIGN  19186>>ASSIGN  19188>>ASSIGN
     19194>>ASSIGN  19196>>ASSIGN  19199>>ASSIGN  19205>>ASSIGN  19207>>ASSIGN  19209>>ASSIGN  19211>>ASSIGN
     19213>>ASSIGN  19216>>ASSIGN  19222>>ASSIGN  19224>>ASSIGN  19226>>ASSIGN  19229>>ASSIGN  19235>>ASSIGN
     19237>>ASSIGN  19239>>ASSIGN  19241>>ASSIGN  19243>>ASSIGN  19245>>ASSIGN  19251>>ASSIGN  19253>>ASSIGN
     19255>>ASSIGN  19257>>ASSIGN  19259>>ASSIGN  19261>>ASSIGN  19263>>ASSIGN  19305>>ASSIGN  19316>>ASSIGN
     19327>>ASSIGN  19338>>ASSIGN  19424>>ASSIGN  19426>>ASSIGN  19428>>ASSIGN  19430>>ASSIGN  19447>>ASSIGN
     19449>>ASSIGN  19451>>ASSIGN  19453>>ASSIGN  19455>>ASSIGN  19457>>ASSIGN  19464>>ASSIGN  19466>>ASSIGN
     19468>>ASSIGN  19470>>ASSIGN  19478>>ASSIGN  19480>>ASSIGN  19482>>ASSIGN  19599>>ASSIGN  19601>>ASSIGN
     19603>>ASSIGN  19605>>ASSIGN  19607>>ASSIGN  19609>>ASSIGN  19616>>ASSIGN  19618>>ASSIGN  19620>>ASSIGN
     19622>>ASSIGN  19624>>ASSIGN  19626>>ASSIGN  19628>>ASSIGN  19630>>ASSIGN  19632>>ASSIGN  19634>>ASSIGN
     19636>>ASSIGN  19649>>ASSIGN  19651>>ASSIGN  19653>>ASSIGN  19655>>ASSIGN  19657>>ASSIGN  19659>>ASSIGN
     19666>>ASSIGN  19668>>ASSIGN  19670>>ASSIGN  19672>>ASSIGN  19674>>ASSIGN  19676>>ASSIGN  19678>>ASSIGN
     19680>>ASSIGN  19682>>ASSIGN  19684>>ASSIGN  19686>>ASSIGN  19699>>ASSIGN  19710>>ASSIGN  19738>>ASSIGN
     19740>>ASSIGN  19821>>ASSIGN  19824>>ASSIGN  19826>>ASSIGN  19845>>ASSIGN  19852>>ASSIGN  19863>>ASSIGN
     19874>>ASSIGN  19887>>ASSIGN  19925>>ASSIGN  19935>>ASSIGN  19945>>ASSIGN  19955>>ASSIGN  19966>>ASSIGN
     19977>>ASSIGN  19992>>ASSIGN  20003>>ASSIGN  20016>>ASSIGN  20219<<ASSIGN  20219>>ASSIGN  20225>>ASSIGN
     20227>>ASSIGN  20228<<ASSIGN  20228>>ASSIGN  20232>>ASSIGN  20233<<ASSIGN  20233>>ASSIGN  20244>>ASSIGN
     20245>>ASSIGN  20246<<ASSIGN  20246>>ASSIGN  20274>>ASSIGN  20276>>ASSIGN  20278>>ASSIGN  20280>>ASSIGN
     20282<<ASSIGN  20282>>ASSIGN  20288>>ASSIGN  20289<<ASSIGN  20289>>ASSIGN  20292>>ASSIGN  20293<<ASSIGN
     20293>>ASSIGN  20297>>ASSIGN  20298<<ASSIGN  20298>>ASSIGN  20302>>ASSIGN  20303<<ASSIGN  20303>>ASSIGN
     20307>>ASSIGN  20308<<ASSIGN  20308>>ASSIGN  20312>>ASSIGN  20313<<ASSIGN  20313>>ASSIGN  20317>>ASSIGN
     20318<<ASSIGN  20318>>ASSIGN  20322>>ASSIGN  20323<<ASSIGN  20323>>ASSIGN  20375<<ASSIGN  20379>>ASSIGN
     20380<<ASSIGN  20380>>ASSIGN  20393<<ASSIGN  20408>>ASSIGN  20409<<ASSIGN  20409>>ASSIGN  20415<<ASSIGN
     20421>>ASSIGN  20422<<ASSIGN  20422>>ASSIGN  20429>>ASSIGN  20430<<ASSIGN  20430>>ASSIGN  20441<<ASSIGN
     20451>>ASSIGN  20452<<ASSIGN  20452>>ASSIGN  20527<<ASSIGN  20545<<ASSIGN  20554<<ASSIGN  20574<<ASSIGN
     20574>>ASSIGN  20592<<ASSIGN  20602<<ASSIGN  20602>>ASSIGN  20612<<ASSIGN  20923<<ASSIGN  21015>>ASSIGN
     21016<<ASSIGN  21016>>ASSIGN  21026>>ASSIGN  21027<<ASSIGN  21027>>ASSIGN  21034>>ASSIGN  21035<<ASSIGN
     21035>>ASSIGN  21036>>ASSIGN  21038>>ASSIGN  21039<<ASSIGN  21039>>ASSIGN  21044>>ASSIGN  21045<<ASSIGN
     21045>>ASSIGN  21053>>ASSIGN  21054<<ASSIGN  21054>>ASSIGN  21061>>ASSIGN  21062<<ASSIGN  21062>>ASSIGN
     21063>>ASSIGN  21065>>ASSIGN  21066<<ASSIGN  21066>>ASSIGN  21071>>ASSIGN  21072<<ASSIGN  21072>>ASSIGN
     21082>>ASSIGN  21083<<ASSIGN  21083>>ASSIGN  21090>>ASSIGN  21091<<ASSIGN  21091>>ASSIGN  21092>>ASSIGN
     21094>>ASSIGN  21095<<ASSIGN  21095>>ASSIGN  21100>>ASSIGN  21101<<ASSIGN  21101>>ASSIGN  21109>>ASSIGN
     21110<<ASSIGN  21110>>ASSIGN  21117>>ASSIGN  21118<<ASSIGN  21118>>ASSIGN  21119>>ASSIGN  21121>>ASSIGN
PL6.E3A0      #001=ASL$DISP_ONE_PROFILE File=ASL$L_PRO.:E05TSI                   TUE 07/29/97 10:26 Page:756
     21122<<ASSIGN  21122>>ASSIGN  21127>>ASSIGN  21128<<ASSIGN  21128>>ASSIGN  21141>>ASSIGN  21142<<ASSIGN
     21142>>ASSIGN  21151>>ASSIGN  21152<<ASSIGN  21152>>ASSIGN  21159>>ASSIGN  21160<<ASSIGN  21160>>ASSIGN
     21165>>ASSIGN  21166<<ASSIGN  21166>>ASSIGN  21179>>ASSIGN  21180<<ASSIGN  21180>>ASSIGN  21190<<ASSIGN
     21223<<ASSIGN  21408<<ASSIGN  21421<<ASSIGN  21437<<ASSIGN  21668<<ASSIGN  21709<<ASSIGN  21817<<ASSIGN
     21847<<ASSIGN  21851>>ASSIGN  21852<<ASSIGN  21852>>ASSIGN  22012<<ASSIGN  22017<<ASSIGN  22089<<ASSIGN
     22136<<ASSIGN  22141>>ASSIGN  22142<<ASSIGN  22142>>ASSIGN  22156<<ASSIGN  22174>>ASSIGN  22175<<ASSIGN
     22175>>ASSIGN  22185<<ASSIGN  22192>>ASSIGN  22193<<ASSIGN  22193>>ASSIGN  22202<<ASSIGN
FIELDS
     17927**DCL     18140<<ASSIGN  18142>>IF      18172<<ASSIGN  18174>>IF      18337<<ASSIGN  18337>>ASSIGN
     18365>>DOINDEX
FIRST IN PROCEDURE BUILD_JCL_FMT
     21211**DCL     22021<<ASSIGN  22065>>IF      22072<<ASSIGN
FMT_BUF
     12972**DCL     18034<<ASSIGN  18110<<CALLBLT 18360<<CALLBLT 18376<<CALLBLT 20220<<CALLBLT 20229<<CALLBLT
     20235<<CALLBLT 20248<<CALLBLT 20262<<CALLBLT 20283<<CALLBLT 20286<<CALLBLT 20372--IF      20376<<ASSIGN
     20381<<ASSIGN  20390--IF      20394<<ASSIGN  20406<<CALLBLT 20412--IF      20416<<ASSIGN  20419<<CALLBLT
     20431<<CALLBLT 20443<<CALLBLT 20457<<CALLBLT 20462<<CALLBLT 20525<<ASSIGN  20540<<ASSIGN  20555<<ASSIGN
     20562<<CALLBLT 20594<<ASSIGN  20598<<CALLBLT 20610<<ASSIGN  20924<<ASSIGN  21017<<CALLBLT 21028<<CALLBLT
     21040<<CALLBLT 21046<<CALLBLT 21055<<CALLBLT 21067<<CALLBLT 21073<<CALLBLT 21084<<CALLBLT 21096<<CALLBLT
     21102<<CALLBLT 21111<<CALLBLT 21123<<CALLBLT 21129<<CALLBLT 21143<<CALLBLT 21153<<CALLBLT 21161<<CALLBLT
     21167<<CALLBLT 21176<<CALLBLT 21181<<CALLBLT 21221<<CALLBLT 21406<<ASSIGN  21413<<ASSIGN  21424<<ASSIGN
     21707<<ASSIGN  21938<<ASSIGN  21941<<ASSIGN  21947<<ASSIGN  21950<<ASSIGN  21956<<ASSIGN  21957<<ASSIGN
     21958<<ASSIGN  21961<<ASSIGN  21972<<ASSIGN  21973<<ASSIGN  21974<<ASSIGN  21977<<ASSIGN  22000<<ASSIGN
     22066<<ASSIGN  22070<<ASSIGN  22076<<ASSIGN  22137<<ASSIGN  22143<<ASSIGN  22157<<ASSIGN  22176<<ASSIGN
     22186<<ASSIGN  22190<<CALLBLT 22203<<CALLBLT
FMT_LEN IN PROCEDURE LIST_GR_ESCAPES
     20488**DCL     20556<<ASSIGN  20562>>CALLBLT 20572<<ASSIGN  20572>>ASSIGN  20593<<ASSIGN  20598>>CALLBLT
     20603<<ASSIGN  20603>>ASSIGN  20609<<ASSIGN
FMT_TABLE
     17467**DCL     21515>>CALLBLT 21696>>CALLBLT 21766>>CALLBLT 21804>>CALLBLT 21949>>CALLBLT 21950>>ASSIGN
     21976>>CALLBLT 21977>>ASSIGN  22069>>CALLBLT 22070>>ASSIGN
FMT_VEC
     12972**DCL     18037<<ASSIGN  18038<<ASSIGN  18109<<ASSIGN  18358<<ASSIGN  18372<<ASSIGN  18406<<ASSIGN
     18417<<ASSIGN  18428<<ASSIGN  18439<<ASSIGN  18450<<ASSIGN  18461<<ASSIGN  18472<<ASSIGN  18491<<ASSIGN
     18502<<ASSIGN  18513<<ASSIGN  18524<<ASSIGN  18535<<ASSIGN  18546<<ASSIGN  18557<<ASSIGN  18568<<ASSIGN
     18578<<ASSIGN  18588<<ASSIGN  18599<<ASSIGN  18610<<ASSIGN  18621<<ASSIGN  18632<<ASSIGN  18643<<ASSIGN
PL6.E3A0      #001=ASL$DISP_ONE_PROFILE File=ASL$L_PRO.:E05TSI                   TUE 07/29/97 10:26 Page:757
     18653<<ASSIGN  18667<<ASSIGN  18678<<ASSIGN  18689<<ASSIGN  18700<<ASSIGN  18711<<ASSIGN  18722<<ASSIGN
     18733<<ASSIGN  18744<<ASSIGN  18755<<ASSIGN  18766<<ASSIGN  18777<<ASSIGN  18788<<ASSIGN  18799<<ASSIGN
     18810<<ASSIGN  18821<<ASSIGN  18832<<ASSIGN  18843<<ASSIGN  18854<<ASSIGN  18865<<ASSIGN  18876<<ASSIGN
     18887<<ASSIGN  18898<<ASSIGN  18909<<ASSIGN  18956<<ASSIGN  18967<<ASSIGN  18978<<ASSIGN  18989<<ASSIGN
     19000<<ASSIGN  19014<<ASSIGN  19029<<ASSIGN  19040<<ASSIGN  19042<<ASSIGN  19044<<ASSIGN  19046<<ASSIGN
     19048<<ASSIGN  19050<<ASSIGN  19052<<ASSIGN  19054<<ASSIGN  19056<<ASSIGN  19058<<ASSIGN  19060<<ASSIGN
     19062<<ASSIGN  19064<<ASSIGN  19066<<ASSIGN  19068<<ASSIGN  19070<<ASSIGN  19072<<ASSIGN  19179<<ASSIGN
     19181<<ASSIGN  19186<<ASSIGN  19188<<ASSIGN  19194<<ASSIGN  19196<<ASSIGN  19199<<ASSIGN  19205<<ASSIGN
     19207<<ASSIGN  19209<<ASSIGN  19211<<ASSIGN  19213<<ASSIGN  19216<<ASSIGN  19222<<ASSIGN  19224<<ASSIGN
     19226<<ASSIGN  19229<<ASSIGN  19235<<ASSIGN  19237<<ASSIGN  19239<<ASSIGN  19241<<ASSIGN  19243<<ASSIGN
     19245<<ASSIGN  19251<<ASSIGN  19253<<ASSIGN  19255<<ASSIGN  19257<<ASSIGN  19259<<ASSIGN  19261<<ASSIGN
     19263<<ASSIGN  19305<<ASSIGN  19316<<ASSIGN  19327<<ASSIGN  19338<<ASSIGN  19424<<ASSIGN  19426<<ASSIGN
     19428<<ASSIGN  19430<<ASSIGN  19447<<ASSIGN  19449<<ASSIGN  19451<<ASSIGN  19453<<ASSIGN  19455<<ASSIGN
     19457<<ASSIGN  19464<<ASSIGN  19466<<ASSIGN  19468<<ASSIGN  19470<<ASSIGN  19478<<ASSIGN  19480<<ASSIGN
     19482<<ASSIGN  19599<<ASSIGN  19601<<ASSIGN  19603<<ASSIGN  19605<<ASSIGN  19607<<ASSIGN  19609<<ASSIGN
     19616<<ASSIGN  19618<<ASSIGN  19620<<ASSIGN  19622<<ASSIGN  19624<<ASSIGN  19626<<ASSIGN  19628<<ASSIGN
     19630<<ASSIGN  19632<<ASSIGN  19634<<ASSIGN  19636<<ASSIGN  19649<<ASSIGN  19651<<ASSIGN  19653<<ASSIGN
     19655<<ASSIGN  19657<<ASSIGN  19659<<ASSIGN  19666<<ASSIGN  19668<<ASSIGN  19670<<ASSIGN  19672<<ASSIGN
     19674<<ASSIGN  19676<<ASSIGN  19678<<ASSIGN  19680<<ASSIGN  19682<<ASSIGN  19684<<ASSIGN  19686<<ASSIGN
     19699<<ASSIGN  19710<<ASSIGN  19738<<ASSIGN  19740<<ASSIGN  19821<<ASSIGN  19824<<ASSIGN  19826<<ASSIGN
     19845<<ASSIGN  19852<<ASSIGN  19863<<ASSIGN  19874<<ASSIGN  19887<<ASSIGN  19925<<ASSIGN  19935<<ASSIGN
     19945<<ASSIGN  19955<<ASSIGN  19966<<ASSIGN  19977<<ASSIGN  19992<<ASSIGN  20003<<ASSIGN  20016<<ASSIGN
     20225<<ASSIGN  20227<<ASSIGN  20232<<ASSIGN  20244<<ASSIGN  20245<<ASSIGN  20274<<ASSIGN  20276<<ASSIGN
     20278<<ASSIGN  20280<<ASSIGN  20288<<ASSIGN  20292<<ASSIGN  20297<<ASSIGN  20302<<ASSIGN  20307<<ASSIGN
     20312<<ASSIGN  20317<<ASSIGN  20322<<ASSIGN  20379<<ASSIGN  20408<<ASSIGN  20421<<ASSIGN  20429<<ASSIGN
     20440<<ASSIGN  20451<<ASSIGN  20528<<ASSIGN  20529<<ASSIGN  20531<<ASSIGN  20534<<ASSIGN  20537<<ASSIGN
     20566<<ASSIGN  20573<<ASSIGN  20599<<ASSIGN  20600<<ASSIGN  20920<<ASSIGN  21015<<ASSIGN  21026<<ASSIGN
     21034<<ASSIGN  21038<<ASSIGN  21044<<ASSIGN  21053<<ASSIGN  21061<<ASSIGN  21065<<ASSIGN  21071<<ASSIGN
     21082<<ASSIGN  21090<<ASSIGN  21094<<ASSIGN  21100<<ASSIGN  21109<<ASSIGN  21117<<ASSIGN  21121<<ASSIGN
     21127<<ASSIGN  21141<<ASSIGN  21151<<ASSIGN  21159<<ASSIGN  21165<<ASSIGN  21179<<ASSIGN  21236<<ASSIGN
     21273<<ASSIGN  21289<<ASSIGN  21294<<ASSIGN  21329<<ASSIGN  21335<<ASSIGN  21374<<ASSIGN  21384<<ASSIGN
     21401<<ASSIGN  21412<<ASSIGN  21431<<ASSIGN  21440<<ASSIGN  21501<<ASSIGN  21514<<ASSIGN  21525<<ASSIGN
     21535<<ASSIGN  21542<<ASSIGN  21544<<ASSIGN  21549<<ASSIGN  21553<<ASSIGN  21559<<ASSIGN  21573<<ASSIGN
     21593<<ASSIGN  21607<<ASSIGN  21623<<ASSIGN  21653<<ASSIGN  21657<<ASSIGN  21676<<ASSIGN  21681<<ASSIGN
     21686<<ASSIGN  21693<<ASSIGN  21699<<ASSIGN  21716<<ASSIGN  21729<<ASSIGN  21733<<ASSIGN  21745<<ASSIGN
     21750<<ASSIGN  21765<<ASSIGN  21771<<ASSIGN  21776<<ASSIGN  21782<<ASSIGN  21786<<ASSIGN  21796<<ASSIGN
PL6.E3A0      #001=ASL$DISP_ONE_PROFILE File=ASL$L_PRO.:E05TSI                   TUE 07/29/97 10:26 Page:758
     21802<<ASSIGN  21824<<ASSIGN  21829<<ASSIGN  21834<<ASSIGN  21845<<ASSIGN  21846<<ASSIGN  21851<<ASSIGN
     21929<<ASSIGN  22010<<ASSIGN  22011<<ASSIGN  22141<<ASSIGN  22174<<ASSIGN  22192<<ASSIGN  22201<<ASSIGN
FORMAT IN PROCEDURE BUILD_JCL_FMT
     21209**DCL     21423<<ASSIGN  21430<<ASSIGN  21439<<ASSIGN  21506<<ASSIGN  21515<<CALLBLT 21536<<ASSIGN
     21560<<ASSIGN  21574<<ASSIGN  21594<<ASSIGN  21608<<ASSIGN  21670<<ASSIGN  21675<<ASSIGN  21682<<ASSIGN
     21687<<ASSIGN  21696<<CALLBLT 21701<<ASSIGN  21717<<ASSIGN  21746<<ASSIGN  21751<<ASSIGN  21757<<ASSIGN
     21766<<CALLBLT 21772<<ASSIGN  21777<<ASSIGN  21799<<ASSIGN  21804<<CALLBLT 21825<<ASSIGN  21830<<ASSIGN
     21835<<ASSIGN  21836<<ASSIGN  21837<<ASSIGN  21841<<ASSIGN  21940>>CALLBLT 21941>>ASSIGN  21960>>CALLBLT
     21961>>ASSIGN
FOUR IN PROCEDURE LIST_GR_ESCAPES
     20475**DCL     20528--ASSIGN  20531--ASSIGN
FRST_CHR
     17784**DCL     18088<<ASSIGN  18093>>IF      18099<<ASSIGN
FSTBLN_STR
     17618**DCL     20317--ASSIGN
FUNKEY$
     17840**DCL     17407--IMP-PTR 18007<<ASSIGN  20905>>IF      20918>>DOWHILE 20926>>DOWHILE 20932>>IF
     20934>>IF      20942>>IF      20944>>IF      20944>>IF      20946>>ASSIGN  20948>>IF      20950>>ASSIGN
     20954>>ASSIGN  20969>>IF      20971>>ASSIGN  20973>>IF      20978>>ASSIGN  20983>>ASSIGN  20988>>IF
     20988>>IF      20990>>ASSIGN  20992>>IF      20994>>ASSIGN  20998>>ASSIGN  21022>>IF      21024>>IF
     21024>>IF      21026>>ASSIGN  21032>>IF      21038>>ASSIGN  21044>>ASSIGN  21049>>IF      21051>>IF
     21051>>IF      21053>>ASSIGN  21059>>IF      21065>>ASSIGN  21071>>ASSIGN  21078>>IF      21080>>IF
     21080>>IF      21082>>ASSIGN  21088>>IF      21094>>ASSIGN  21100>>ASSIGN  21105>>IF      21107>>IF
     21107>>IF      21109>>ASSIGN  21115>>IF      21121>>ASSIGN  21127>>ASSIGN  21149>>IF      21149>>IF
     21151>>ASSIGN  21157>>IF      21159>>ASSIGN  21165>>ASSIGN
FUNKEY_NAMES IN PROCEDURE LIST_FUNKEY_DEFS
     20645**DCL     20971>>ASSIGN  20975>>ASSIGN  20983>>ASSIGN
GRA$
     17954**DCL     18134<<ASSIGN  18168<<ASSIGN  20024>>ASSIGN  20027>>ASSIGN  20030>>ASSIGN  20033>>ASSIGN
     20036>>ASSIGN  20039>>ASSIGN  20042>>ASSIGN  20045>>ASSIGN  20048>>ASSIGN  20051>>ASSIGN  20054>>ASSIGN
     20057>>ASSIGN  20060>>ASSIGN  20063>>ASSIGN  20066>>ASSIGN  20069>>ASSIGN  20072>>ASSIGN  20075>>ASSIGN
     20078>>ASSIGN  20081>>ASSIGN  20084>>ASSIGN  20087>>ASSIGN  20090>>ASSIGN  20093>>ASSIGN  20096>>ASSIGN
     20099>>ASSIGN  20102>>ASSIGN  20105>>ASSIGN  20108>>ASSIGN  20111>>ASSIGN  20114>>ASSIGN  20117>>ASSIGN
     20120>>ASSIGN  20123>>ASSIGN  20126>>ASSIGN  20129>>ASSIGN  20132>>ASSIGN  20135>>ASSIGN  20138>>ASSIGN
     20142>>ASSIGN  20146>>ASSIGN  20150>>ASSIGN  20154>>ASSIGN  20158>>ASSIGN  20162>>ASSIGN  20166>>ASSIGN
     20170>>ASSIGN  20174>>ASSIGN  20178>>ASSIGN  20182>>ASSIGN  20186>>ASSIGN  20190>>ASSIGN  20194>>ASSIGN
PL6.E3A0      #001=ASL$DISP_ONE_PROFILE File=ASL$L_PRO.:E05TSI                   TUE 07/29/97 10:26 Page:759
     20198>>ASSIGN  20202>>ASSIGN  20206>>ASSIGN  20210>>ASSIGN  20214>>ASSIGN  20513>>ASSIGN  20529>>ASSIGN
     20532>>IF      20573>>ASSIGN  20575>>IF      21405>>IF
GRA$REC.BACKGROUND_COLOR
     16288**DCL     20206>>ASSIGN
GRA$REC.BACKGROUND_TYPE
     16263**DCL     20190>>ASSIGN
GRA$REC.BATCH_MODE
     16210**DCL     20162>>ASSIGN
GRA$REC.CHARSIZE_SUPPORT
     16176**DCL     20150>>ASSIGN
GRA$REC.CHAR_SIZE_COUNT
     16137**DCL     20132>>ASSIGN
GRA$REC.COLOR_ACTION
     16294**DCL     20210>>ASSIGN
GRA$REC.COLOR_MODEL
     16283**DCL     20202>>ASSIGN
GRA$REC.COLOR_TABLE_TYPE
     16256**DCL     20186>>ASSIGN
GRA$REC.COLOR_TAB_SIZE
     16088**DCL     20108>>ASSIGN
GRA$REC.DEPTH_USABLE
     16002**DCL     20066>>ASSIGN
GRA$REC.DEVICE_TYPE
     16268**DCL     20194>>ASSIGN
GRA$REC.DIMENSION_LEVEL
     16227**DCL     20170>>ASSIGN
GRA$REC.EDGE_TYPE
     16248**DCL     20182>>ASSIGN
GRA$REC.FONT_COUNT
     16118**DCL     20123>>ASSIGN
GRA$REC.GLOBAL_COLORS
     15932**DCL     20024>>ASSIGN
GRA$REC.GLOBAL_INTENSITIES
     15937**DCL     20027>>ASSIGN
GRA$REC.GR_ESCAPES.ESCAPE_FUNCTION
     16325**DCL     20529--ASSIGN  20573--ASSIGN
PL6.E3A0      #001=ASL$DISP_ONE_PROFILE File=ASL$L_PRO.:E05TSI                   TUE 07/29/97 10:26 Page:760
GRA$REC.GR_ESCAPES.ESCAPE_SUPPORT
     16330**DCL     20532>>IF      20575>>IF
GRA$REC.HEIGHT_USABLE
     15997**DCL     20063>>ASSIGN
GRA$REC.HIDDEN_SURFACE_LEVEL
     16218**DCL     20166>>ASSIGN
GRA$REC.HIGHLIGHT_SUPPORT
     16191**DCL     20154>>ASSIGN
GRA$REC.IMAGE_TRANSF
     16273**DCL     20198>>ASSIGN
GRA$REC.INTENSITY_ACTION
     16301**DCL     20214>>ASSIGN
GRA$REC.INTENSITY_SUPPORT
     16183**DCL     20146>>ASSIGN
GRA$REC.INTENSITY_TAB_SIZE
     16094**DCL     20111>>ASSIGN
GRA$REC.LINESTYLE_HARDWARE_COUNT
     16101**DCL     20114>>ASSIGN
GRA$REC.LINESTYLE_SOFTWARE_COUNT
     16107**DCL     20117>>ASSIGN
GRA$REC.LINEWIDTH_COUNT
     16113**DCL     20120>>ASSIGN
GRA$REC.LINEWIDTH_SUPPORT
     16168**DCL     20142>>ASSIGN
GRA$REC.MARKER_HARDWARE_COUNT
     16142**DCL     20135>>ASSIGN
GRA$REC.MARKER_SOFTWARE_COUNT
     16161**DCL     20138>>ASSIGN
GRA$REC.MAXIMUM_LINEWIDTH
     16027**DCL     20081>>ASSIGN
GRA$REC.MAX_CHAR_SIZE
     16043**DCL     20087>>ASSIGN
GRA$REC.MAX_PICK_ID
     15942**DCL     20030>>ASSIGN
GRA$REC.MINIMUM_LINEWIDTH
     16019**DCL     20078>>ASSIGN
PL6.E3A0      #001=ASL$DISP_ONE_PROFILE File=ASL$L_PRO.:E05TSI                   TUE 07/29/97 10:26 Page:761
GRA$REC.MIN_CHAR_SIZE
     16035**DCL     20084>>ASSIGN
GRA$REC.NDC_DEPTH_ADDR_SPACE
     15972**DCL     20048>>ASSIGN
GRA$REC.NDC_DEPTH_CHAR_POS
     15987**DCL     20057>>ASSIGN
GRA$REC.NDC_DEPTH_CURRENT
     16015**DCL     20075>>ASSIGN
GRA$REC.NDC_HEIGHT_ADDR_SPACE
     15967**DCL     20045>>ASSIGN
GRA$REC.NDC_HEIGHT_CHAR_POS
     15982**DCL     20054>>ASSIGN
GRA$REC.NDC_HEIGHT_CURRENT
     16011**DCL     20072>>ASSIGN
GRA$REC.NDC_WIDTH_ADDR_SPACE
     15962**DCL     20042>>ASSIGN
GRA$REC.NDC_WIDTH_CHAR_POS
     15977**DCL     20051>>ASSIGN
GRA$REC.NDC_WIDTH_CURRENT
     16007**DCL     20069>>ASSIGN
GRA$REC.NUM_ESCAPES
     16317**DCL     20513>>ASSIGN  21405>>IF
GRA$REC.OUTPUT_LEVEL
     16201**DCL     20158>>ASSIGN
GRA$REC.PEN_HARDWARE_COUNT
     16123**DCL     20126>>ASSIGN
GRA$REC.PEN_SOFTWARE_COUNT
     16130**DCL     20129>>ASSIGN
GRA$REC.PIXEL_TYPE
     16240**DCL     20178>>ASSIGN
GRA$REC.PIX_ARRAY_MAXX
     16078**DCL     20102>>ASSIGN
GRA$REC.PIX_ARRAY_MAXY
     16083**DCL     20105>>ASSIGN
GRA$REC.POLYGON_FILL.PATTERNED
     16073**DCL     20099>>ASSIGN
PL6.E3A0      #001=ASL$DISP_ONE_PROFILE File=ASL$L_PRO.:E05TSI                   TUE 07/29/97 10:26 Page:762
GRA$REC.POLYGON_FILL.PLAIN
     16063**DCL     20093>>ASSIGN
GRA$REC.POLYGON_FILL.SHADED
     16068**DCL     20096>>ASSIGN
GRA$REC.VIEW_SURFACE
     16051**DCL     20090>>ASSIGN
GRA$REC.VIEW_SURFACE_TYPE
     16233**DCL     20174>>ASSIGN
GRA$REC.WIDTH_USABLE
     15992**DCL     20060>>ASSIGN
GRA$REC.X_PER_CM
     15947**DCL     20033>>ASSIGN
GRA$REC.Y_PER_CM
     15952**DCL     20036>>ASSIGN
GRA$REC.Z_PER_CM
     15957**DCL     20039>>ASSIGN
GRAPHIC_CK
     18155**LABEL   18160--EXIT
GRA_BUF
     17944**DCL     18129<>CALL    18134--ASSIGN  18167<>CALL    18168--ASSIGN  21412--ASSIGN  21440--ASSIGN
     21501--ASSIGN
GRA_ERR
     18195**LABEL   18167--CALLALT
GR_ESC_FMT IN PROCEDURE LIST_GR_ESCAPES
     20473**DCL     20525>>ASSIGN  20526--ASSIGN  20562--CALLBLT 20562>>CALLBLT 20571--ASSIGN  20572--ASSIGN
GR_ESC_IDX
     17951**DCL     18121<<ASSIGN  18170>>IF      18322>>IF
GR_FLAG
     17943**DCL     18189>>IF      18244<<ASSIGN  18267<<ASSIGN
GR_FPRG_IDX
     17952**DCL     18123<<ASSIGN  18139>>DOWHILE 18141>>CALL    18191>>DOINDEX
G_ARS
     17942**DCL     18129<>CALL    18167<>CALL
HARDWARE IN PROCEDURE LIST_GR_ESCAPES
     20483**DCL     20534--ASSIGN  20577>>ASSIGN
HASP_STR
PL6.E3A0      #001=ASL$DISP_ONE_PROFILE File=ASL$L_PRO.:E05TSI                   TUE 07/29/97 10:26 Page:763
     17545**DCL     19255--ASSIGN
HDN_STR
     17613**DCL     20292--ASSIGN
HDR_LEN
     17924**DCL     18141<>CALL    18145<>CALL    18173<>CALL    18177<>CALL
HDR_LEN IN PROCEDURE BUILD_HDR
     18305**DCL     18304--PROC    18312<<ASSIGN  18330>>IF      18330>>IF      18334>>CALLBLT 18336<<ASSIGN
     18336>>ASSIGN
HEX_BUF
     17959**DCL     17960--REDEF   20254<<CALLBLT 20254>>CALLBLT 20255>>CALLBLT 20262>>CALLBLT 20958<<CALLBLT
     20958>>CALLBLT 20959>>CALLBLT 20966>>CALLBLT 21002<<CALLBLT 21002>>CALLBLT 21003>>CALLBLT 21010>>CALLBLT
HEX_CHARS
     17620**DCL     20252>>ASSIGN  20956>>ASSIGN  21000>>ASSIGN
HEX_NUM
     17958**DCL     20252>>ASSIGN  20956>>ASSIGN  21000>>ASSIGN
HIP_STR
     17548**DCL     19261--ASSIGN
I
     17947**DCL     18026<<ASSIGN  18027>>ASSIGN  18191<<DOINDEX 18192>>IF      18192>>IF      18195<<ASSIGN
     18261<<ASSIGN  18262>>DOWHILE 18263>>ASSIGN  18283<<ASSIGN  18283>>ASSIGN  18298<<DOINDEX 18299>>ASSIGN
     20955<<DOINDEX 20956>>ASSIGN  20956>>ASSIGN  20959<<CALLBLT 20961<<ASSIGN  20961>>ASSIGN  20964<<ASSIGN
     20966>>CALLBLT 20966>>CALLBLT 20999<<DOINDEX 21000>>ASSIGN  21000>>ASSIGN  21003<<CALLBLT 21005<<ASSIGN
     21005>>ASSIGN  21008<<ASSIGN  21010>>CALLBLT 21010>>CALLBLT
I IN PROCEDURE BUILD_JCL_FMT
     21203**DCL     21937<<CALLBLT 21938>>ASSIGN  21938>>ASSIGN  21939>>ASSIGN  21940<<CALLBLT 21941>>ASSIGN
     21941>>ASSIGN  21942>>ASSIGN  21946<<CALLBLT 21947>>ASSIGN  21947>>ASSIGN  21948>>ASSIGN  21949<<CALLBLT
     21950>>ASSIGN  21950>>ASSIGN  21951>>ASSIGN  21955<<CALLBLT 21957>>ASSIGN  21957>>ASSIGN  21958>>ASSIGN
     21959>>ASSIGN  21960<<CALLBLT 21961>>ASSIGN  21961>>ASSIGN  21962>>ASSIGN  21971<<CALLBLT 21973>>ASSIGN
     21973>>ASSIGN  21974>>ASSIGN  21975>>ASSIGN  21976<<CALLBLT 21977>>ASSIGN  21977>>ASSIGN  21978>>ASSIGN
     22022<<DOINDEX 22025>>DOSELCT 22069>>CALLBLT 22070>>ASSIGN
I IN PROCEDURE DO_HEX_LIST
     20352**DCL     20362<<ASSIGN  20363>>DOWHILE 20383<<ASSIGN  20383>>ASSIGN  20402<<ASSIGN  20402>>ASSIGN
     20403>>IF      20423<<ASSIGN  20423>>ASSIGN
I IN PROCEDURE DO_SETUP_CHR_JCL
     22108**DCL     22123<<ASSIGN  22124>>DOWHILE 22145<<ASSIGN  22145>>ASSIGN  22168<<ASSIGN  22168>>ASSIGN
     22170>>IF      22194<<ASSIGN  22194>>ASSIGN
PL6.E3A0      #001=ASL$DISP_ONE_PROFILE File=ASL$L_PRO.:E05TSI                   TUE 07/29/97 10:26 Page:764
I IN PROCEDURE INSERT_FIELD
     18391**DCL     20251<<DOINDEX 20252>>ASSIGN  20252>>ASSIGN  20255<<CALLBLT 20257<<ASSIGN  20257>>ASSIGN
     20260<<ASSIGN  20262>>CALLBLT 20262>>CALLBLT 20262>>CALLBLT 20263>>ASSIGN
I IN PROCEDURE LIST_GR_ESCAPES
     20487**DCL     20490<<DOINDEX 20491>>IF      20496>>DOINDEX 20553<<ASSIGN  20566>>ASSIGN  20569<<ASSIGN
     20569>>ASSIGN  20573>>ASSIGN  20583<<ASSIGN  20583>>ASSIGN  20597<<DOINDEX 20599>>ASSIGN  20600>>ASSIGN
I IN PROCEDURE LIST_TABS
     20438**DCL     20446<<DOINDEX 20447>>IF      20447>>IF      20450>>ASSIGN  20454>>IF
INCINT_STR
     17614**DCL     20297--ASSIGN
INSERT_FIELD IN PROCEDURE LIST_FIELDS
     18388**PROC    18378--CALL
IN_BUF
     12972**DCL     18253<>CALL
J
     17948**DCL     18268<<DOINDEX 18269>>IF      18271>>ASSIGN
J IN PROCEDURE BUILD_JCL_FMT
     21205**DCL     22069<<CALLBLT 22070>>ASSIGN  22070>>ASSIGN  22071>>ASSIGN
J IN PROCEDURE LIST_FIELDS
     18353**DCL     18365<<DOINDEX
J IN PROCEDURE LIST_FUNKEY_DEFS
     20625**DCL     20913<<DOINDEX 20914>>ASSIGN  20914>>ASSIGN
JCL
        15**DCL         9--PROC    18033>>IF      18074>>IF      18126>>IF      18219--ENTRY   18248>>IF
     18297>>IF      20907>>IF      21175>>IF
K
     17949**DCL     18119<<DOINDEX 18120>>IF      18121>>ASSIGN  18122>>IF      18123>>ASSIGN  18155<<DOINDEX
     18156>>IF      18159<<ASSIGN
KEYNAME IN PROCEDURE LIST_FUNKEY_DEFS
     20629**DCL     20936<<ASSIGN  20939<<ASSIGN  20946<<ASSIGN  20951<<CALLBLT 20966<<CALLBLT 20971<<ASSIGN
     20975<<ASSIGN  20983<<ASSIGN  20990<<ASSIGN  20995<<CALLBLT 21010<<CALLBLT 21015--ASSIGN
KEYNMOD IN PROCEDURE LIST_FUNKEY_DEFS
     20632**DCL     20978<<ASSIGN  20979>>IF      20979>>IF      20982>>ASSIGN  20985>>IF      20987>>ASSIGN
KL$3270
     17344**DCL     21294--ASSIGN  21693--ASSIGN
KL$3270.DVCBFRSIZ
PL6.E3A0      #001=ASL$DISP_ONE_PROFILE File=ASL$L_PRO.:E05TSI                   TUE 07/29/97 10:26 Page:765
     17353**DCL     18944>>ASSIGN  21616>>ASSIGN
KL$3270.EWALT#
     17350**DCL     19829>>ASSIGN
KL$3270.FRMFED
     17349**DCL     19386>>ASSIGN
KL$3270.SIOPT#
     17351**DCL     19832>>ASSIGN
KL$ABSGRPRND
     17370**DCL     21236--ASSIGN
KL$ABSGRPRND.FLAGS
     17380**DCL     19842>>IF
KL$ABSGRPRND.FLAGS.DCRINT#
     17384**DCL     20301>>IF      22029>>IF
KL$ABSGRPRND.FLAGS.FSTBLN#
     17387**DCL     20316>>IF      22034>>IF
KL$ABSGRPRND.FLAGS.HDN#
     17382**DCL     20291>>IF      22039>>IF
KL$ABSGRPRND.FLAGS.INCINT#
     17383**DCL     20296>>IF      22044>>IF
KL$ABSGRPRND.FLAGS.RVRVID#
     17388**DCL     20321>>IF      22054>>IF
KL$ABSGRPRND.FLAGS.SLWBLN#
     17386**DCL     20311>>IF      22049>>IF
KL$ABSGRPRND.FLAGS.UNDSCR#
     17385**DCL     20306>>IF      22059>>IF
KL$ABSGRPRND.ID#
     17375**DCL     18022>>ASSIGN
KL$CCHR
     16732**DCL     21374--ASSIGN  21573--ASSIGN  21593--ASSIGN  21699--ASSIGN  21716--ASSIGN
KL$CCHR.BS_TIM
     16750**DCL     19102>>ASSIGN  21530>>ASSIGN
KL$CCHR.CCHR_ARY
     16815**DCL     16816--REDEF
KL$CCHR.CTRFNCTIM
     16748**DCL     19116>>ASSIGN  21862>>ASSIGN
KL$CCHR.CUB_CHR
PL6.E3A0      #001=ASL$DISP_ONE_PROFILE File=ASL$L_PRO.:E05TSI                   TUE 07/29/97 10:26 Page:766
     16822**DCL     19348--ASSIGN  21564--ASSIGN
KL$CCHR.CUD_CHR
     16825**DCL     19352--ASSIGN  21567--ASSIGN
KL$CCHR.CUF_CHR
     16823**DCL     19356--ASSIGN  21570--ASSIGN
KL$CCHR.CUP_ALG
     16773**DCL     19192>>DOSELCT 19198>>CALLBLT
KL$CCHR.CUP_BIS
     16774**DCL     19267>>ASSIGN
KL$CCHR.CUP_CHR
     16819**DCL     19360--ASSIGN  21578--ASSIGN
KL$CCHR.CUP_CLMFRS
     16778**DCL     18481>>ASSIGN
KL$CCHR.CUP_CMP
     16779**DCL     18485>>ASSIGN
KL$CCHR.CUU_CHR
     16824**DCL     19364--ASSIGN  21581--ASSIGN
KL$CCHR.DAQINP_CHR#
     16805**DCL     19793>>ASSIGN
KL$CCHR.DAQINTRO_CHR#
     16833**DCL     19729--ASSIGN  21584--ASSIGN
KL$CCHR.DAQPRTGRD_CHR#
     16806**DCL     19796>>ASSIGN
KL$CCHR.DAQPRT_CHR#
     16804**DCL     19790>>ASSIGN
KL$CCHR.DAQ_ALG#
     16792**DCL     19721>>ASSIGN
KL$CCHR.DCH_CHR
     16817**DCL     19368--ASSIGN  21587--ASSIGN
KL$CCHR.DCLFLD_ALG#
     16793**DCL     19744>>ASSIGN
KL$CCHR.DCLFRM_CHR#
     16834**DCL     19748--ASSIGN  21590--ASSIGN
KL$CCHR.DFLTPRTMODE#
     16783**DCL     19737>>IF
KL$CCHR.DLTALLFLDS_CHR#
PL6.E3A0      #001=ASL$DISP_ONE_PROFILE File=ASL$L_PRO.:E05TSI                   TUE 07/29/97 10:26 Page:767
     16837**DCL     19800--ASSIGN  21598--ASSIGN
KL$CCHR.DLTFLD_CHR#
     16843**DCL     19816--ASSIGN  21601--ASSIGN
KL$CCHR.DLTLIN_CHR#
     16839**DCL     19808--ASSIGN  21604--ASSIGN
KL$CCHR.DVCOTPBFRSIZ
     16770**DCL     18947>>ASSIGN  21619>>ASSIGN
KL$CCHR.ED0DLTFLD#
     16789**DCL     19908>>ASSIGN
KL$CCHR.ED0_CHR
     16820**DCL     19372--ASSIGN  21626--ASSIGN
KL$CCHR.ED2DLTFLD#
     16790**DCL     19911>>ASSIGN
KL$CCHR.ED2_CHR
     16826**DCL     19376--ASSIGN  21629--ASSIGN
KL$CCHR.EL0DLTFLD#
     16788**DCL     19905>>ASSIGN
KL$CCHR.EL0_CHR
     16821**DCL     19380--ASSIGN  21632--ASSIGN
KL$CCHR.ENDDCLFRM_CHR#
     16835**DCL     19752--ASSIGN  21635--ASSIGN
KL$CCHR.ENDMSGLIN_CHR#
     16842**DCL     19895--ASSIGN  21638--ASSIGN
KL$CCHR.ERASEFLD_CHR#
     16840**DCL     19812--ASSIGN  21641--ASSIGN
KL$CCHR.ERSTIM
     16752**DCL     19109>>ASSIGN  21646>>ASSIGN
KL$CCHR.EXTSRD_CHR#
     16844**DCL     16845--REDEF   16846--REDEF   16847--REDEF   19883--ASSIGN  21663--ASSIGN
KL$CCHR.FRMFED_CHR
     16831**DCL     19390--ASSIGN  21700--ASSIGN
KL$CCHR.FRSCLMFLD#
     16784**DCL     19920>>ASSIGN
KL$CCHR.HOM_CHR
     16827**DCL     19395--ASSIGN  21713--ASSIGN
KL$CCHR.HPA_ALG
PL6.E3A0      #001=ASL$DISP_ONE_PROFILE File=ASL$L_PRO.:E05TSI                   TUE 07/29/97 10:26 Page:768
     16772**DCL     19220>>DOSELCT 19228>>CALLBLT
KL$CCHR.HTS_CHR
     16828**DCL     19399--ASSIGN  21721--ASSIGN
KL$CCHR.ICHRQRDCH#
     16780**DCL     19914>>ASSIGN
KL$CCHR.ICH_CHR
     16816**DCL     19403--ASSIGN  21724--ASSIGN
KL$CCHR.ILNRQRDLN#
     16781**DCL     19917>>ASSIGN
KL$CCHR.INSLIN_CHR#
     16838**DCL     19804--ASSIGN  21739--ASSIGN
KL$CCHR.MSGLIN_CHR#
     16841**DCL     19891--ASSIGN  21742--ASSIGN
KL$CCHR.RESTORE_DFLTSCRN_CHR#
     16836**DCL     19756--ASSIGN  21792--ASSIGN
KL$CCHR.RGNSCROLL#
     16787**DCL     19902>>ASSIGN
KL$CCHR.RSTINSMOD_CHR
     16818**DCL     19407--ASSIGN  21809--ASSIGN
KL$CCHR.SETFRMLNG_CHR
     16830**DCL     19411--ASSIGN  21812--ASSIGN
KL$CCHR.SGRDCRINT_CHR#
     16796**DCL     19766>>ASSIGN
KL$CCHR.SGRFSTBLN_CHR#
     16799**DCL     19775>>ASSIGN
KL$CCHR.SGRHDN_CHR#
     16794**DCL     19760>>ASSIGN
KL$CCHR.SGRINCDAQ#
     16782**DCL     19733>>ASSIGN
KL$CCHR.SGRINCINT_CHR#
     16795**DCL     19763>>ASSIGN
KL$CCHR.SGRINP_CHR#
     16802**DCL     19784>>ASSIGN
KL$CCHR.SGRINTRO_CHR#
     16832**DCL     19725--ASSIGN  21821--ASSIGN
KL$CCHR.SGRPRTGRD_CHR#
PL6.E3A0      #001=ASL$DISP_ONE_PROFILE File=ASL$L_PRO.:E05TSI                   TUE 07/29/97 10:26 Page:769
     16803**DCL     19787>>ASSIGN
KL$CCHR.SGRPRT_CHR#
     16801**DCL     19781>>ASSIGN
KL$CCHR.SGRRVRVID_CHR#
     16800**DCL     19778>>ASSIGN
KL$CCHR.SGRSLWBLN_CHR#
     16798**DCL     19772>>ASSIGN
KL$CCHR.SGRUNDSCR_CHR#
     16797**DCL     19769>>ASSIGN
KL$CCHR.SGR_ALG#
     16791**DCL     19718>>ASSIGN
KL$CCHR.SPCDLTFLD#
     16785**DCL     19899>>ASSIGN
KL$CCHR.TBC3_CHR
     16829**DCL     19415--ASSIGN  21857--ASSIGN
KL$CCHR.TMNALG_AFTCR
     16739**DCL     19079>>ASSIGN
KL$CCHR.TMNALG_AFTCUP
     16744**DCL     19076>>ASSIGN
KL$CCHR.TMNALG_AFTHPA
     16745**DCL     19082>>ASSIGN
KL$CCHR.TMNALG_AFTHT
     16743**DCL     19085>>ASSIGN
KL$CCHR.TMNALG_AFTLF
     16741**DCL     19088>>ASSIGN
KL$CCHR.TMNALG_BFRCR
     16740**DCL     19091>>ASSIGN
KL$CCHR.TMNALG_BFRLF
     16742**DCL     19094>>ASSIGN
KL$CCHR.TMNALG_FILCHR
     16746**DCL     19097>>ASSIGN
KL$CCHR.TMNALG_PRM1
     16754**DCL     19123>>ASSIGN  21869>>ASSIGN
KL$CCHR.TMNALG_PRM2
     16756**DCL     19130>>ASSIGN  21876>>ASSIGN
KL$CCHR.TMNALG_PRM3
PL6.E3A0      #001=ASL$DISP_ONE_PROFILE File=ASL$L_PRO.:E05TSI                   TUE 07/29/97 10:26 Page:770
     16758**DCL     19137>>ASSIGN  21883>>ASSIGN
KL$CCHR.TMNALG_PRM4
     16760**DCL     19144>>ASSIGN  21890>>ASSIGN
KL$CCHR.TMNALG_PRM5
     16762**DCL     19151>>ASSIGN  21897>>ASSIGN
KL$CCHR.TMNALG_PRM6
     16764**DCL     19158>>ASSIGN  21904>>ASSIGN
KL$CCHR.TMNALG_PRM7
     16766**DCL     19165>>ASSIGN  21911>>ASSIGN
KL$CCHR.TMNALG_PRM8
     16768**DCL     19172>>ASSIGN  21918>>ASSIGN
KL$CCHR.TXT_UBIN
     16847**DCL     20269--ASSIGN  22016--ASSIGN
KL$FUNKEY.FCNKEY
     17451**DCL     17456--REDEF   17459--REDEF   17460--REDEF   17461--REDEF
KL$FUNKEY.FCNKEY.FCN_BYTE0
     17452**DCL     21022>>IF      21078>>IF
KL$FUNKEY.FCNKEY.FCN_BYTE1
     17453**DCL     21149>>IF      21149>>IF      21151>>ASSIGN  21157>>IF      21159--ASSIGN  21165--ASSIGN
KL$FUNKEY.FCNKEY.FCN_BYTE2
     17454**DCL     20932>>IF      20942>>IF      20969>>IF      20973>>IF      20978>>ASSIGN
KL$FUNKEY.FCNKEY.FCN_BYTE3
     17455**DCL     20934>>IF      20944>>IF      20944>>IF      20946>>ASSIGN  20948>>IF      20950>>ASSIGN
     20954>>ASSIGN  20971>>ASSIGN  20983>>ASSIGN  20988>>IF      20988>>IF      20990>>ASSIGN  20992>>IF
     20994>>ASSIGN  20998>>ASSIGN
KL$FUNKEY.INTRO1
     17419**DCL     17422--REDEF
KL$FUNKEY.INTRO1.CHR1
     17420**DCL     21024>>IF      21024>>IF      21026>>ASSIGN  21032>>IF      21038--ASSIGN  21044--ASSIGN
KL$FUNKEY.INTRO1.CHR2
     17421**DCL     21049>>IF      21051>>IF      21051>>IF      21053>>ASSIGN  21059>>IF      21065--ASSIGN
     21071--ASSIGN
KL$FUNKEY.INTRO2
     17423**DCL     17426--REDEF
KL$FUNKEY.INTRO2.CHR1
     17424**DCL     21080>>IF      21080>>IF      21082>>ASSIGN  21088>>IF      21094--ASSIGN  21100--ASSIGN
PL6.E3A0      #001=ASL$DISP_ONE_PROFILE File=ASL$L_PRO.:E05TSI                   TUE 07/29/97 10:26 Page:771
KL$FUNKEY.INTRO2.CHR2
     17425**DCL     21105>>IF      21107>>IF      21107>>IF      21109>>ASSIGN  21115>>IF      21121--ASSIGN
     21127--ASSIGN
KL$FUNKEY.NUM_DEFS
     17450**DCL     20905>>IF      20918>>DOWHILE 20926>>DOWHILE
KL$LINK
     17037**DCL     21384--ASSIGN  21535--ASSIGN  21549--ASSIGN  21653--ASSIGN  21686--ASSIGN  21729--ASSIGN
     21786--ASSIGN  21802--ASSIGN
KL$LINK.CHARGE#
     17079**DCL     19513>>ASSIGN
KL$LINK.CLS#
     17044**DCL     19462>>DOSELCT
KL$LINK.EXTSEQ#
     17092**DCL     19541>>ASSIGN
KL$LINK.FRMSIZ#
     17055**DCL     19445>>DOSELCT
KL$LINK.FSA#
     17072**DCL     19548>>ASSIGN
KL$LINK.IDLTIM#
     17116**DCL     19554>>ASSIGN
KL$LINK.MAXWND#
     17096**DCL     19492>>ASSIGN
KL$LINK.RESRTY#
     17115**DCL     19577>>ASSIGN
KL$LINK.RESTIM#
     17114**DCL     19582>>ASSIGN
KL$LINK.RSPDLY#
     17084**DCL     19497>>ASSIGN
KL$LINK.RTR#
     17101**DCL     19438>>ASSIGN
KL$LINK.RVR#
     17068**DCL     19487>>ASSIGN
KL$LINK.TMT#
     17105**DCL     19434>>ASSIGN
KL$LINK.WND#
     17110**DCL     19441>>ASSIGN
PL6.E3A0      #001=ASL$DISP_ONE_PROFILE File=ASL$L_PRO.:E05TSI                   TUE 07/29/97 10:26 Page:772
KL$TRMD
     16874**DCL     21289--ASSIGN  21559--ASSIGN  21750--ASSIGN
KL$TRMD.BLKBYTES#
     16896**DCL     18923>>ASSIGN  21522>>ASSIGN
KL$TRMD.BLKRECS#
     16891**DCL     18928>>ASSIGN
KL$TRMD.COMPRESS#
     16931**DCL     19422>>DOSELCT
KL$TRMD.DELAYS#
     16905**DCL     18932>>ASSIGN
KL$TRMD.EMCHR#
     16942**DCL     19295>>ASSIGN
KL$TRMD.ERRDUPBLK#
     16969**DCL     19275>>ASSIGN
KL$TRMD.INTERVAL#
     16926**DCL     19419>>ASSIGN
KL$TRMD.IRSCHR#
     16949**DCL     19299>>ASSIGN
KL$TRMD.LSTRECCTN#
     16959**DCL     19271>>ASSIGN
KL$TRMD.MULSTRM#
     16913**DCL     18661>>ASSIGN
KL$TRMD.PADSIGNON#
     17012**DCL     19291>>ASSIGN
KL$TRMD.PROTYP#
     16878**DCL     19249>>DOSELCT
KL$TRMD.RETRYS#
     16901**DCL     19023>>ASSIGN
KL$TRMD.RRR#
     16978**DCL     19279>>ASSIGN
KL$TRMD.SLC#
     16997**DCL     19283>>ASSIGN
KL$TRMD.SLCALLBLK#
     17005**DCL     19287>>ASSIGN
KL$UBWORD.NUM
     16410**DCL     16411--REDEF   18923<<ASSIGN  18944<<ASSIGN  18947<<ASSIGN  19102<<ASSIGN  19109<<ASSIGN
PL6.E3A0      #001=ASL$DISP_ONE_PROFILE File=ASL$L_PRO.:E05TSI                   TUE 07/29/97 10:26 Page:773
     19116<<ASSIGN  19123<<ASSIGN  19130<<ASSIGN  19137<<ASSIGN  19144<<ASSIGN  19151<<ASSIGN  19158<<ASSIGN
     19165<<ASSIGN  19172<<ASSIGN  19589<<ASSIGN  21522<<ASSIGN  21530<<ASSIGN  21616<<ASSIGN  21619<<ASSIGN
     21646<<ASSIGN  21862<<ASSIGN  21869<<ASSIGN  21876<<ASSIGN  21883<<ASSIGN  21890<<ASSIGN  21897<<ASSIGN
     21904<<ASSIGN  21911<<ASSIGN  21918<<ASSIGN  21926<<ASSIGN
KL$UBWORD.REPLACE.B
     16415**DCL     18925>>ASSIGN  18950>>ASSIGN  19104>>ASSIGN  19111>>ASSIGN  19118>>ASSIGN  19125>>ASSIGN
     19132>>ASSIGN  19139>>ASSIGN  19146>>ASSIGN  19153>>ASSIGN  19160>>ASSIGN  19167>>ASSIGN  19174>>ASSIGN
     19591>>ASSIGN  21524>>ASSIGN  21532>>ASSIGN  21622>>ASSIGN  21648>>ASSIGN  21864>>ASSIGN  21871>>ASSIGN
     21878>>ASSIGN  21885>>ASSIGN  21892>>ASSIGN  21899>>ASSIGN  21906>>ASSIGN  21913>>ASSIGN  21920>>ASSIGN
     21928>>ASSIGN
KL$UBWORD.REPLACE.T
     16413**DCL     18924>>ASSIGN  18949>>ASSIGN  19103>>ASSIGN  19110>>ASSIGN  19117>>ASSIGN  19124>>ASSIGN
     19131>>ASSIGN  19138>>ASSIGN  19145>>ASSIGN  19152>>ASSIGN  19159>>ASSIGN  19166>>ASSIGN  19173>>ASSIGN
     19590>>ASSIGN  21523>>ASSIGN  21531>>ASSIGN  21621>>ASSIGN  21647>>ASSIGN  21863>>ASSIGN  21870>>ASSIGN
     21877>>ASSIGN  21884>>ASSIGN  21891>>ASSIGN  21898>>ASSIGN  21905>>ASSIGN  21912>>ASSIGN  21919>>ASSIGN
     21927>>ASSIGN
KL$UWORD.B
     16399**DCL     18925<<ASSIGN  18950<<ASSIGN  19104<<ASSIGN  19111<<ASSIGN  19118<<ASSIGN  19125<<ASSIGN
     19132<<ASSIGN  19139<<ASSIGN  19146<<ASSIGN  19153<<ASSIGN  19160<<ASSIGN  19167<<ASSIGN  19174<<ASSIGN
     19591<<ASSIGN  21524<<ASSIGN  21532<<ASSIGN  21622<<ASSIGN  21648<<ASSIGN  21864<<ASSIGN  21871<<ASSIGN
     21878<<ASSIGN  21885<<ASSIGN  21892<<ASSIGN  21899<<ASSIGN  21906<<ASSIGN  21913<<ASSIGN  21920<<ASSIGN
     21928<<ASSIGN
KL$UWORD.T
     16398**DCL     18924<<ASSIGN  18949<<ASSIGN  19103<<ASSIGN  19110<<ASSIGN  19117<<ASSIGN  19124<<ASSIGN
     19131<<ASSIGN  19138<<ASSIGN  19145<<ASSIGN  19152<<ASSIGN  19159<<ASSIGN  19166<<ASSIGN  19173<<ASSIGN
     19590<<ASSIGN  21523<<ASSIGN  21531<<ASSIGN  21621<<ASSIGN  21647<<ASSIGN  21863<<ASSIGN  21870<<ASSIGN
     21877<<ASSIGN  21884<<ASSIGN  21891<<ASSIGN  21898<<ASSIGN  21905<<ASSIGN  21912<<ASSIGN  21919<<ASSIGN
     21927<<ASSIGN
KL$VIRCIR
     17134**DCL     21401--ASSIGN  21553--ASSIGN  21657--ASSIGN  21733--ASSIGN  21771--ASSIGN  21776--ASSIGN
     21782--ASSIGN  21796--ASSIGN  21824--ASSIGN  21829--ASSIGN
KL$VIRCIR.CDLY#
     17190**DCL     18936>>ASSIGN
KL$VIRCIR.CHARGE#
     17305**DCL     19515>>ASSIGN
KL$VIRCIR.CLRRET#
PL6.E3A0      #001=ASL$DISP_ONE_PROFILE File=ASL$L_PRO.:E05TSI                   TUE 07/29/97 10:26 Page:774
     17165**DCL     19520>>ASSIGN
KL$VIRCIR.CLRTIM#
     17160**DCL     19525>>ASSIGN
KL$VIRCIR.CRTR#
     17195**DCL     19502>>ASSIGN
KL$VIRCIR.CTMT#
     17200**DCL     19507>>ASSIGN
KL$VIRCIR.DATRET#
     17175**DCL     19530>>ASSIGN
KL$VIRCIR.DATTIM#
     17170**DCL     19535>>ASSIGN
KL$VIRCIR.EXTSEQ#
     17258**DCL     19543>>ASSIGN
KL$VIRCIR.IDLTIM#
     17185**DCL     19556>>ASSIGN
KL$VIRCIR.INTTIM#
     17180**DCL     19561>>ASSIGN
KL$VIRCIR.RCVSIZ#
     17213**DCL     19597>>DOSELCT
KL$VIRCIR.RCVTHR#
     17226**DCL     19614>>DOSELCT
KL$VIRCIR.RCVWND#
     17251**DCL     19640>>ASSIGN
KL$VIRCIR.RESRET#
     17155**DCL     19567>>ASSIGN
KL$VIRCIR.RESTIM#
     17150**DCL     19572>>ASSIGN
KL$VIRCIR.RSPDLY#
     17262**DCL     19496>>ASSIGN
KL$VIRCIR.RSPTMR#
     17205**DCL     19693>>ASSIGN
KL$VIRCIR.RSPTOCMP#
     17247**DCL     19643>>ASSIGN
KL$VIRCIR.RVR#
     17317**DCL     19476>>DOSELCT
KL$VIRCIR.SNDSIZ#
PL6.E3A0      #001=ASL$DISP_ONE_PROFILE File=ASL$L_PRO.:E05TSI                   TUE 07/29/97 10:26 Page:775
     17289**DCL     19647>>DOSELCT
KL$VIRCIR.SNDTHR#
     17270**DCL     19664>>DOSELCT
KL$VIRCIR.SNDWND#
     17310**DCL     19690>>ASSIGN
KL$VIRCIR.TRADEL
     17138**DCL     19589>>ASSIGN  21926>>ASSIGN
KL_3270$
     17837**DCL     17344--IMP-PTR 18019<<ASSIGN  18944>>ASSIGN  19386>>ASSIGN  19829>>ASSIGN  19832>>ASSIGN
     21294>>ASSIGN  21616>>ASSIGN  21693>>ASSIGN
KL_ABSGRPRND$
     17838**DCL     17370--IMP-PTR 19841<<ASSIGN  19842>>IF      20291>>IF      20296>>IF      20301>>IF
     20306>>IF      20311>>IF      20316>>IF      20321>>IF      21235<<ASSIGN  21236>>ASSIGN  22029>>IF
     22034>>IF      22039>>IF      22044>>IF      22049>>IF      22054>>IF      22059>>IF
KL_DEFAULT.PASSWORD
     15592**DCL     15596--REDEF
KL_DEFAULT.RENAME
     15615**DCL     15616--REDEF
KL_DFLT.PASSWORD
     14782**DCL     14786--REDEF
KL_DFLT.RENAME
     14805**DCL     14806--REDEF
KL_DREC.PASSWORD
     14620**DCL     14624--REDEF
KL_DREC.RENAME
     14643**DCL     14644--REDEF
KL_DREC_CNT.PASSWORD
     14507**DCL     14511--REDEF
KL_DREC_CNT.RENAME
     14530**DCL     14531--REDEF
LEN
     17930**DCL     18042<<CALLBLT 18077>>CALLBLT 18078<<ASSIGN  18078>>ASSIGN  18079<>CALL    18092>>ASSIGN
LEN2
     17931**DCL     18049<<ASSIGN  18052<<ASSIGN  18055<<ASSIGN  18058<<ASSIGN  18062<<ASSIGN  18065<<ASSIGN
     18068<<ASSIGN  18071<<ASSIGN  18077>>CALLBLT 18078>>ASSIGN
LENGTH IN PROCEDURE BUILD_JCL_FMT
PL6.E3A0      #001=ASL$DISP_ONE_PROFILE File=ASL$L_PRO.:E05TSI                   TUE 07/29/97 10:26 Page:776
     21204**DCL     21816<<ASSIGN  21818<>CALL
LENGTH IN PROCEDURE DO_SETUP_CHR_JCL
     22109**DCL     22094--PROC    22133>>IF      22139<<ASSIGN  22147<<ASSIGN  22147>>ASSIGN  22153>>IF
     22159<<ASSIGN  22169<<ASSIGN  22169>>ASSIGN  22170>>IF      22179<<ASSIGN  22179>>ASSIGN  22182>>IF
     22188<<ASSIGN  22195<<ASSIGN  22195>>ASSIGN
LINE_POS IN PROCEDURE LIST_GR_ESCAPES
     20486**DCL     20552<<ASSIGN  20560>>DOWHILE 20563>>IF      20565>>ASSIGN  20586<<ASSIGN  20586>>ASSIGN
     20596<<ASSIGN  20599>>ASSIGN  20600>>ASSIGN  20601<<ASSIGN  20601>>ASSIGN
LINE_STR
     17610**DCL     19428--ASSIGN  19826--ASSIGN
LINK$
     17835**DCL     18013<<ASSIGN  19434>>ASSIGN  19438>>ASSIGN  19441>>ASSIGN  19445>>DOSELCT 19462>>DOSELCT
     19487>>ASSIGN  19492>>ASSIGN  19497>>ASSIGN  19513>>ASSIGN  19541>>ASSIGN  19548>>ASSIGN  19554>>ASSIGN
     19577>>ASSIGN  19582>>ASSIGN  21384>>ASSIGN  21535>>ASSIGN  21549>>ASSIGN  21653>>ASSIGN  21686>>ASSIGN
     21729>>ASSIGN  21786>>ASSIGN  21802>>ASSIGN
LINK_STR
     17553**DCL     18058--ASSIGN  18059>>ASSIGN
LIST1
     18249**LABEL   18247--REMEMBR
LIST_ACCT_FLG
     12974**DCL     18085>>IF      18089<<ASSIGN
LIST_FIELDS
     18352**PROC    18146--CALL    18178--CALL
LIST_FUNKEY_DEFS
     20624**PROC    18211--CALL    21706--CALL
LIST_GR_ESCAPES
     20472**PROC    18183--CALL
LIST_PRO_S_OPT
     12835**DCL     18249--ASSIGN
LIST_TABS
     20437**PROC    20011--CALL
LO_WIDTH
     12858**DCL     18101>>IF      18330>>IF      18357>>ASSIGN  20522>>IF      20560>>DOWHILE 20926>>DOWHILE
     21174>>IF      22133>>IF      22153>>IF      22170>>IF      22182>>IF
MODIFIER IN PROCEDURE LIST_FUNKEY_DEFS
     20633**DCL     20929<<ASSIGN  20982<<ASSIGN  20987<<ASSIGN  21139>>IF      21141--ASSIGN
PL6.E3A0      #001=ASL$DISP_ONE_PROFILE File=ASL$L_PRO.:E05TSI                   TUE 07/29/97 10:26 Page:777
MOP_STR
     17623**DCL     20254>>CALLBLT 20958>>CALLBLT 21002>>CALLBLT
MORE
     17945**DCL     18246<<ASSIGN  18250>>DOWHILE 18259<<ASSIGN  18262>>DOWHILE 18273<<ASSIGN  18275<<ASSIGN
MORE IN PROCEDURE BUILD_HDR
     18308**DCL     18313<<ASSIGN  18314>>DOWHILE 18341<<ASSIGN  18344<<ASSIGN
ND$
     17946**DCL     18263<<ASSIGN  18264>>DOSELCT 18277>>IF      18279>>ASSIGN
NEC_STR
     17539**DCL     19226--ASSIGN
NEW_CHR
     17932**DCL     18091<<ASSIGN  18093>>IF      18099>>ASSIGN
NEW_POS IN PROCEDURE DO_SETUP_CHR_JCL
     22113**DCL     22117<<ASSIGN  22163<<ASSIGN  22165>>ASSIGN  22167<<ASSIGN  22167>>ASSIGN  22173>>ASSIGN
     22174>>ASSIGN  22178>>ASSIGN
NEXT IN PROCEDURE BUILD_HDR
     18309**DCL     18315<<ASSIGN  18316>>DOWHILE 18316>>DOWHILE 18316>>DOWHILE 18320<<ASSIGN  18327>>IF
     18330>>IF      18334>>CALLBLT 18334>>CALLBLT 18336>>ASSIGN  18346>>IF
NEXT IN PROCEDURE BUILD_JCL_FMT
     21206**DCL     21218<<ASSIGN  21219>>IF      21219>>IF      21221>>CALLBLT 21222>>ASSIGN  21225>>DOSELCT
     21235>>ASSIGN  21933>>DOSELCT 21955>>CALLBLT 21957>>ASSIGN  21967>>ASSIGN  21971>>CALLBLT 21973>>ASSIGN
     21976>>CALLBLT 21977>>ASSIGN  21979>>ASSIGN
NEXT IN PROCEDURE INSERT_FIELD
     18395**DCL     18400<<ASSIGN  18401>>DOSELCT 19841>>ASSIGN
NEXT IN PROCEDURE LIST_FIELDS
     18355**DCL     18366<<ASSIGN  18367>>DOWHILE 18367>>DOWHILE 18369<<ASSIGN  18379>>ASSIGN
NEXT IN PROCEDURE LIST_GR_ESCAPES
     20481**DCL     20496<<DOINDEX 20497>>IF      20497>>IF      20502>>ASSIGN  20504>>IF      20559<<ASSIGN
     20567>>ASSIGN  20577>>ASSIGN  20580>>ASSIGN  20584<<ASSIGN  20584>>ASSIGN  20597>>DOINDEX
NEXT_TAB
     17912**DCL     18362<<ASSIGN  18371>>ASSIGN  18379<<ASSIGN  18379>>ASSIGN
NJE_STR
     17549**DCL     19263--ASSIGN
NODE$
     12974**DCL     18256<<ASSIGN
NONE_SET_STR
PL6.E3A0      #001=ASL$DISP_ONE_PROFILE File=ASL$L_PRO.:E05TSI                   TUE 07/29/97 10:26 Page:778
     17609**DCL     19179--ASSIGN  19845--ASSIGN
NONE_STR
     17550**DCL     19186--ASSIGN  19211--ASSIGN  19235--ASSIGN  19464--ASSIGN  19616--ASSIGN  19666--ASSIGN
     20274--ASSIGN  20429--ASSIGN  21542--ASSIGN  22201--ASSIGN
NO_STR
     17534**DCL     19424--ASSIGN  19480--ASSIGN  20227--ASSIGN
NUM_ESCAPES IN PROCEDURE LIST_GR_ESCAPES
     20482**DCL     20513<<ASSIGN  20514>>IF      20524>>DOWHILE 20541<<ASSIGN  20541>>ASSIGN  20551>>DOWHILE
     20560>>DOWHILE 20587<<ASSIGN  20587>>ASSIGN
NUM_ON_LINE IN PROCEDURE LIST_FUNKEY_DEFS
     20626**DCL     20922<<ASSIGN  20926>>DOWHILE 20929>>ASSIGN  20936>>ASSIGN  20939>>ASSIGN  20946>>ASSIGN
     20951>>CALLBLT 20966>>CALLBLT 20971>>ASSIGN  20975>>ASSIGN  20982>>ASSIGN  20983>>ASSIGN  20987>>ASSIGN
     20990>>ASSIGN  20995>>CALLBLT 21010>>CALLBLT 21015>>ASSIGN  21139>>IF      21141>>ASSIGN  21173<<ASSIGN
     21173>>ASSIGN  21174>>IF      21179>>ASSIGN
NXT_IDX
     17926**DCL     18148>>ASSIGN  18180>>ASSIGN  18184>>ASSIGN  18324<<ASSIGN  18347<<ASSIGN  18348<<ASSIGN
     20506<<ASSIGN  20509<<ASSIGN
ODD_STR
     17584**DCL     19237--ASSIGN
OLD_POS IN PROCEDURE DO_SETUP_CHR_JCL
     22112**DCL     22116<<ASSIGN  22163>>ASSIGN  22173>>ASSIGN  22173>>ASSIGN  22174>>ASSIGN  22174>>ASSIGN
     22178<<ASSIGN
ONE_CHAR_STR
     17935**DCL     19198<<CALLBLT 19199--ASSIGN  19215<<CALLBLT 19216--ASSIGN  19228<<CALLBLT 19229--ASSIGN
ONE_STR
     17586**DCL     19241--ASSIGN
OPT_INDEX IN PROCEDURE BUILD_JCL_FMT
     21207**DCL     21216<<DOINDEX 21218>>ASSIGN
OUTPUT_TABS IN PROCEDURE LIST_TABS
     20468**LABEL   20449--GOTO
OUT_BUF
     12973**DCL     18041<<ASSIGN  18042>>CALLBLT 18077<<CALLBLT 18079<>CALL    18088>>ASSIGN  18091>>ASSIGN
     18092>>ASSIGN  18145<>CALL    18177<>CALL    18311<<CALLBLT 18334<<CALLBLT 18384--ASSIGN
P$B.CODE
     16365**DCL     18257>>DOSELCT 18264>>DOSELCT 18277>>IF      18279>>ASSIGN
P$B.NSUBLKS
PL6.E3A0      #001=ASL$DISP_ONE_PROFILE File=ASL$L_PRO.:E05TSI                   TUE 07/29/97 10:26 Page:779
     16369**DCL     18262>>DOWHILE
P$B.SUBLK$
     16390**DCL     18257>>DOSELCT 18262>>DOWHILE 18263>>ASSIGN  18263>>ASSIGN
P3270_STR
     17598**DCL     18068--ASSIGN  18069>>ASSIGN
PAGE_STR
     17611**DCL     19824--ASSIGN
PARSE_ALT
     18281**LABEL   18255--CALLALT
PHDR$
     17953**DCL     18223<<ASSIGN  18224>>ASSIGN  18297>>IF      21431>>ASSIGN
PLTN$
     17830**DCL     17995<<ASSIGN  18954>>IF      18960>>ASSIGN  18976>>IF      18982>>ASSIGN  18987>>IF
     18993>>ASSIGN  18998>>IF      19004>>ASSIGN  19005>>IF      21335>>ASSIGN  21755>>IF      21755>>IF
     21761>>ASSIGN  21762>>IF
PNM$
     17834**DCL     17986<<ASSIGN
POLLED_STR
     17546**DCL     19257--ASSIGN
POLLVIP_STR
     17597**DCL     18071--ASSIGN  18072>>ASSIGN
POS IN PROCEDURE DO_HEX_LIST
     20354**DCL     20397<<ASSIGN  20401<<ASSIGN  20401>>ASSIGN  20408>>ASSIGN
POS IN PROCEDURE LIST_GR_ESCAPES
     20485**DCL     20521<<ASSIGN  20529>>ASSIGN  20532>>IF      20539<<ASSIGN  20539>>ASSIGN  20573>>ASSIGN
     20575>>IF      20585<<ASSIGN  20585>>ASSIGN
POSITION IN PROCEDURE BUILD_JCL_FMT
     21210**DCL     21422<<ASSIGN  21429<<ASSIGN  21438<<ASSIGN  21550<<ASSIGN  21554<<ASSIGN  21654<<ASSIGN
     21658<<ASSIGN  21669<<ASSIGN  21674<<ASSIGN  21695<<ASSIGN  21730<<ASSIGN  21734<<ASSIGN  21783<<ASSIGN
     21787<<ASSIGN  21797<<ASSIGN  21803<<ASSIGN  21937>>CALLBLT 21938>>ASSIGN  21946>>CALLBLT 21947>>ASSIGN
PP$
     17936**DCL     16339--IMP-PTR 16342--IMP-PTR 17969<<ASSIGN  17971>>DOWHILE 17972>>IF      17973>>ASSIGN
     17974>>ASSIGN  17974>>ASSIGN  17975<<ASSIGN  17975>>ASSIGN  17978>>ASSIGN  17979>>ASSIGN  17980<<ASSIGN
     17980>>ASSIGN  17986>>ASSIGN  17989>>ASSIGN  17992>>ASSIGN  17995>>ASSIGN  17998>>ASSIGN  18001>>ASSIGN
     18004>>ASSIGN  18007>>ASSIGN  18010>>ASSIGN  18013>>ASSIGN  18016>>ASSIGN  18019>>ASSIGN  18022>>ASSIGN
     18022>>ASSIGN  18027<<ASSIGN  18027>>ASSIGN
PL6.E3A0      #001=ASL$DISP_ONE_PROFILE File=ASL$L_PRO.:E05TSI                   TUE 07/29/97 10:26 Page:780
PP$BIG_STRCT.SIZE.B
     16349**DCL     17974>>ASSIGN
PP$BIG_STRCT.SIZE.T
     16347**DCL     17974>>ASSIGN
PP$BIG_STRCT.TYPE
     16344**DCL     17973>>ASSIGN
PP$STRCT.SIZE
     16341**DCL     17979>>ASSIGN
PP$STRCT.TYPE
     16340**DCL     17972>>IF      17978>>ASSIGN
PP_END$
     17937**DCL     17968<<ASSIGN  17971>>DOWHILE
PP_SIZE
     17940**DCL     17974<<ASSIGN  17979<<ASSIGN  18026>>ASSIGN  18026>>ASSIGN
PP_TYPE
     17939**DCL     17973<<ASSIGN  17978<<ASSIGN  17983>>DOSELCT
PRO$HDR.DDEV.GRAPHICS_OK
     15911**DCL     18127>>IF      18165>>IF      18297>>IF
PRO$HDR.GR_FPRG
     15913**DCL     19887--ASSIGN  21420>>IF      21431--ASSIGN
PRO$HDR.TTYP
     15889**DCL     18047>>DOSELCT 18224>>ASSIGN  19474>>IF      19495>>IF      19512>>IF      19540>>IF
     19553>>IF      21548>>IF      21652>>IF      21728>>IF      21781>>IF      21795>>IF
PROJ_KEY.TEXT
     12854**DCL     12854--REDEF
PROJ_KEY.TXT.PROJECT
     12854**DCL     12854--REDEF
PROTECT_STR
     17590**DCL     19738--ASSIGN
PRO_FLAGS
     17783**DCL     18044>>IF      18156>>IF      18192>>IF      18209>>IF      18245<<ASSIGN  18271<<ASSIGN
     18279<<ASSIGN  18299<<ASSIGN  18316>>DOWHILE 18367>>DOWHILE 20497>>IF      21219>>IF
PRO_HDR
     17800**DCL     17969--ASSIGN
PRO_JCL_FMT
     17494**DCL     18034>>ASSIGN  18035--ASSIGN
PL6.E3A0      #001=ASL$DISP_ONE_PROFILE File=ASL$L_PRO.:E05TSI                   TUE 07/29/97 10:26 Page:781
PRO_TYP
     17956**DCL     18227<<ASSIGN  18229<<ASSIGN  18231<<ASSIGN  18233<<ASSIGN  18236<<ASSIGN  18238<<ASSIGN
     18240<<ASSIGN  18242<<ASSIGN  18269>>IF      18269>>IF      18277>>IF      18277>>IF      18942>>IF
     19384>>IF      21614>>IF      21691>>IF
PTR$
     17963**DCL     19348<<ASSIGN  19352<<ASSIGN  19356<<ASSIGN  19360<<ASSIGN  19364<<ASSIGN  19368<<ASSIGN
     19372<<ASSIGN  19376<<ASSIGN  19380<<ASSIGN  19390<<ASSIGN  19395<<ASSIGN  19399<<ASSIGN  19403<<ASSIGN
     19407<<ASSIGN  19411<<ASSIGN  19415<<ASSIGN  19725<<ASSIGN  19729<<ASSIGN  19748<<ASSIGN  19752<<ASSIGN
     19756<<ASSIGN  19800<<ASSIGN  19804<<ASSIGN  19808<<ASSIGN  19812<<ASSIGN  19816<<ASSIGN  19883<<ASSIGN
     19891<<ASSIGN  19895<<ASSIGN  19986<<ASSIGN  20265>>IF      20266<<ASSIGN  20266>>ASSIGN  20268>>IF
     20269<<ASSIGN  20269>>ASSIGN  20270<>CALL    21564<<ASSIGN  21567<<ASSIGN  21570<<ASSIGN  21578<<ASSIGN
     21581<<ASSIGN  21584<<ASSIGN  21587<<ASSIGN  21590<<ASSIGN  21598<<ASSIGN  21601<<ASSIGN  21604<<ASSIGN
     21626<<ASSIGN  21629<<ASSIGN  21632<<ASSIGN  21635<<ASSIGN  21638<<ASSIGN  21641<<ASSIGN  21663<<ASSIGN
     21700<<ASSIGN  21713<<ASSIGN  21721<<ASSIGN  21724<<ASSIGN  21739<<ASSIGN  21742<<ASSIGN  21792<<ASSIGN
     21809<<ASSIGN  21812<<ASSIGN  21815<<ASSIGN  21818<>CALL    21821<<ASSIGN  21857<<ASSIGN  22015>>IF
     22016<<ASSIGN  22016>>ASSIGN  22018<>CALL
PTR$ IN PROCEDURE DO_HEX_LIST
     20350**DCL     20337--PROC    20358>>ASSIGN  20359<<ASSIGN  20359>>ASSIGN  20364>>IF      20364>>IF
     20364>>IF      20379>>ASSIGN  20384<<ASSIGN  20384>>ASSIGN  20388>>IF      20388>>IF      20398>>ASSIGN
     20399>>DOWHILE 20399>>DOWHILE 20400<<ASSIGN  20400>>ASSIGN  20421>>ASSIGN
PTR$ IN PROCEDURE DO_SETUP_CHR_JCL
     22107**DCL     22094--PROC    22119>>ASSIGN  22120<<ASSIGN  22120>>ASSIGN  22125>>IF      22125>>IF
     22141>>ASSIGN  22146<<ASSIGN  22146>>ASSIGN  22151>>IF      22164>>DOWHILE 22164>>DOWHILE 22165>>ASSIGN
     22166<<ASSIGN  22166>>ASSIGN  22192>>ASSIGN
P_ARS
        14**DCL         9--PROC    17968>>ASSIGN  18219--ENTRY
P_PCB
     13009**DCL     18255<>CALL
P_PCB.ERROR
     13113**DCL     18294<>CALL
P_PCB.NCHARS
     13156**DCL     18254<<ASSIGN
P_PCB.OUT$
     13022**DCL     16357--IMP-PTR 18256>>ASSIGN  18257>>DOSELCT 18262>>DOWHILE 18263>>ASSIGN
P_PCB.ROOT$
     13014**DCL     18249<<ASSIGN
PL6.E3A0      #001=ASL$DISP_ONE_PROFILE File=ASL$L_PRO.:E05TSI                   TUE 07/29/97 10:26 Page:782
RBTD_STR
     17594**DCL     18052--ASSIGN  18053>>ASSIGN
RBT_STR
     17595**DCL     18055--ASSIGN  18056>>ASSIGN
REMEM_VAR
     12980**DCL     12980--REDEF   18247<<REMEMBR
REM_FCMD
     12980**DCL     12981--REDEF
RHEX_BUF
     17960**DCL     20252<<ASSIGN  20956<<ASSIGN  21000<<ASSIGN
RVRVID_STR
     17619**DCL     20322--ASSIGN
S2780_STR
     17543**DCL     19251--ASSIGN
S3275_STR
     17547**DCL     19259--ASSIGN
S3780_STR
     17544**DCL     19253--ASSIGN
SBINS
     17913**DCL     17914--REDEF   17917--REDEF   17920--REDEF   18371<<ASSIGN  18372--ASSIGN  18913<<ASSIGN
     18916<<ASSIGN  18916>>ASSIGN  18921<<ASSIGN  18922--ASSIGN  18928<<ASSIGN  18932<<ASSIGN  18936<<ASSIGN
     18940<<ASSIGN  18941--ASSIGN  18960<<ASSIGN  18971<<ASSIGN  18982<<ASSIGN  18993<<ASSIGN  19004<<ASSIGN
     19007<<ASSIGN  19007>>ASSIGN  19018<<ASSIGN  19023<<ASSIGN  19033<<ASSIGN  19076<<ASSIGN  19079<<ASSIGN
     19082<<ASSIGN  19085<<ASSIGN  19088<<ASSIGN  19091<<ASSIGN  19094<<ASSIGN  19100<<ASSIGN  19101--ASSIGN
     19107<<ASSIGN  19108--ASSIGN  19114<<ASSIGN  19115--ASSIGN  19121<<ASSIGN  19122--ASSIGN  19128<<ASSIGN
     19129--ASSIGN  19135<<ASSIGN  19136--ASSIGN  19142<<ASSIGN  19143--ASSIGN  19149<<ASSIGN  19150--ASSIGN
     19156<<ASSIGN  19157--ASSIGN  19163<<ASSIGN  19164--ASSIGN  19170<<ASSIGN  19171--ASSIGN  19267<<ASSIGN
     19419<<ASSIGN  19434<<ASSIGN  19438<<ASSIGN  19441<<ASSIGN  19492<<ASSIGN  19496<<ASSIGN  19497<<ASSIGN
     19502<<ASSIGN  19507<<ASSIGN  19520<<ASSIGN  19525<<ASSIGN  19530<<ASSIGN  19535<<ASSIGN  19554<<ASSIGN
     19556<<ASSIGN  19561<<ASSIGN  19567<<ASSIGN  19572<<ASSIGN  19577<<ASSIGN  19582<<ASSIGN  19587<<ASSIGN
     19588--ASSIGN  19640<<ASSIGN  19690<<ASSIGN  19693<<ASSIGN  19703<<ASSIGN  19970<<ASSIGN  19981<<ASSIGN
     20007<<ASSIGN  20024<<ASSIGN  20027<<ASSIGN  20030<<ASSIGN  20033<<ASSIGN  20036<<ASSIGN  20039<<ASSIGN
     20042<<ASSIGN  20045<<ASSIGN  20048<<ASSIGN  20051<<ASSIGN  20054<<ASSIGN  20057<<ASSIGN  20060<<ASSIGN
     20063<<ASSIGN  20066<<ASSIGN  20069<<ASSIGN  20072<<ASSIGN  20075<<ASSIGN  20078<<ASSIGN  20081<<ASSIGN
     20084<<ASSIGN  20087<<ASSIGN  20090<<ASSIGN  20093<<ASSIGN  20096<<ASSIGN  20099<<ASSIGN  20102<<ASSIGN
     20105<<ASSIGN  20108<<ASSIGN  20111<<ASSIGN  20114<<ASSIGN  20117<<ASSIGN  20120<<ASSIGN  20123<<ASSIGN
PL6.E3A0      #001=ASL$DISP_ONE_PROFILE File=ASL$L_PRO.:E05TSI                   TUE 07/29/97 10:26 Page:783
     20126<<ASSIGN  20129<<ASSIGN  20132<<ASSIGN  20135<<ASSIGN  20138<<ASSIGN  20141<<ASSIGN  20145<<ASSIGN
     20149<<ASSIGN  20153<<ASSIGN  20157<<ASSIGN  20161<<ASSIGN  20165<<ASSIGN  20169<<ASSIGN  20173<<ASSIGN
     20177<<ASSIGN  20181<<ASSIGN  20185<<ASSIGN  20189<<ASSIGN  20193<<ASSIGN  20197<<ASSIGN  20201<<ASSIGN
     20205<<ASSIGN  20209<<ASSIGN  20213<<ASSIGN  20232--ASSIGN  20238>>ASSIGN  20239<<ASSIGN  20239>>ASSIGN
     20240<<ASSIGN  20241>>IF      20243<<ASSIGN  20243>>ASSIGN  20244--ASSIGN  20245--ASSIGN  20288--ASSIGN
     20290<<ASSIGN  20294<<ASSIGN  20294>>ASSIGN  20299<<ASSIGN  20299>>ASSIGN  20304<<ASSIGN  20304>>ASSIGN
     20309<<ASSIGN  20309>>ASSIGN  20314<<ASSIGN  20314>>ASSIGN  20319<<ASSIGN  20319>>ASSIGN  20324<<ASSIGN
     20324>>ASSIGN  20450<<ASSIGN  20451--ASSIGN  20564<<ASSIGN  20565<<ASSIGN  20566--ASSIGN  20567>>ASSIGN
     21034--ASSIGN  21036<<ASSIGN  21061--ASSIGN  21063<<ASSIGN  21090--ASSIGN  21092<<ASSIGN  21117--ASSIGN
     21119<<ASSIGN  21510<<ASSIGN  21513<<ASSIGN  21513>>ASSIGN  21514--ASSIGN  21520<<ASSIGN  21521--ASSIGN
     21525--ASSIGN  21528<<ASSIGN  21529--ASSIGN  21612<<ASSIGN  21613--ASSIGN  21623--ASSIGN  21644<<ASSIGN
     21645--ASSIGN  21761<<ASSIGN  21764<<ASSIGN  21764>>ASSIGN  21765--ASSIGN  21844<<ASSIGN  21846--ASSIGN
     21848>>DOWHILE 21849>>IF      21851>>ASSIGN  21853<<ASSIGN  21853>>ASSIGN  21860<<ASSIGN  21861--ASSIGN
     21867<<ASSIGN  21868--ASSIGN  21874<<ASSIGN  21875--ASSIGN  21881<<ASSIGN  21882--ASSIGN  21888<<ASSIGN
     21889--ASSIGN  21895<<ASSIGN  21896--ASSIGN  21902<<ASSIGN  21903--ASSIGN  21909<<ASSIGN  21910--ASSIGN
     21916<<ASSIGN  21917--ASSIGN  21924<<ASSIGN  21925--ASSIGN  21929--ASSIGN  22004>>ASSIGN  22005<<ASSIGN
     22005>>ASSIGN  22006<<ASSIGN  22007>>IF      22009<<ASSIGN  22009>>ASSIGN  22010--ASSIGN  22011--ASSIGN
SBINS_2.TWO
     17916**DCL     20170<<ASSIGN  20190<<ASSIGN  20194<<ASSIGN  20202<<ASSIGN  20206<<ASSIGN
SBINS_4.FOUR
     17919**DCL     20142<<ASSIGN  20146<<ASSIGN  20150<<ASSIGN  20154<<ASSIGN  20162<<ASSIGN  20166<<ASSIGN
     20174<<ASSIGN  20178<<ASSIGN  20182<<ASSIGN  20186<<ASSIGN  20198<<ASSIGN  20210<<ASSIGN  20214<<ASSIGN
SBINS_6.SIX
     17922**DCL     20158<<ASSIGN
SBIN_IDX
     17923**DCL     18363<<ASSIGN  18371>>ASSIGN  18372>>ASSIGN  18374<<ASSIGN  18374>>ASSIGN  18913>>ASSIGN
     18916>>ASSIGN  18916>>ASSIGN  18921>>ASSIGN  18922>>ASSIGN  18928>>ASSIGN  18932>>ASSIGN  18936>>ASSIGN
     18940>>ASSIGN  18941>>ASSIGN  18960>>ASSIGN  18971>>ASSIGN  18982>>ASSIGN  18993>>ASSIGN  19004>>ASSIGN
     19007>>ASSIGN  19007>>ASSIGN  19018>>ASSIGN  19023>>ASSIGN  19033>>ASSIGN  19076>>ASSIGN  19079>>ASSIGN
     19082>>ASSIGN  19085>>ASSIGN  19088>>ASSIGN  19091>>ASSIGN  19094>>ASSIGN  19100>>ASSIGN  19101>>ASSIGN
     19107>>ASSIGN  19108>>ASSIGN  19114>>ASSIGN  19115>>ASSIGN  19121>>ASSIGN  19122>>ASSIGN  19128>>ASSIGN
     19129>>ASSIGN  19135>>ASSIGN  19136>>ASSIGN  19142>>ASSIGN  19143>>ASSIGN  19149>>ASSIGN  19150>>ASSIGN
     19156>>ASSIGN  19157>>ASSIGN  19163>>ASSIGN  19164>>ASSIGN  19170>>ASSIGN  19171>>ASSIGN  19267>>ASSIGN
     19419>>ASSIGN  19434>>ASSIGN  19438>>ASSIGN  19441>>ASSIGN  19492>>ASSIGN  19496>>ASSIGN  19497>>ASSIGN
     19502>>ASSIGN  19507>>ASSIGN  19520>>ASSIGN  19525>>ASSIGN  19530>>ASSIGN  19535>>ASSIGN  19554>>ASSIGN
     19556>>ASSIGN  19561>>ASSIGN  19567>>ASSIGN  19572>>ASSIGN  19577>>ASSIGN  19582>>ASSIGN  19587>>ASSIGN
PL6.E3A0      #001=ASL$DISP_ONE_PROFILE File=ASL$L_PRO.:E05TSI                   TUE 07/29/97 10:26 Page:784
     19588>>ASSIGN  19640>>ASSIGN  19690>>ASSIGN  19693>>ASSIGN  19703>>ASSIGN  19970>>ASSIGN  19981>>ASSIGN
     20007>>ASSIGN  20024>>ASSIGN  20027>>ASSIGN  20030>>ASSIGN  20033>>ASSIGN  20036>>ASSIGN  20039>>ASSIGN
     20042>>ASSIGN  20045>>ASSIGN  20048>>ASSIGN  20051>>ASSIGN  20054>>ASSIGN  20057>>ASSIGN  20060>>ASSIGN
     20063>>ASSIGN  20066>>ASSIGN  20069>>ASSIGN  20072>>ASSIGN  20075>>ASSIGN  20078>>ASSIGN  20081>>ASSIGN
     20084>>ASSIGN  20087>>ASSIGN  20090>>ASSIGN  20093>>ASSIGN  20096>>ASSIGN  20099>>ASSIGN  20102>>ASSIGN
     20105>>ASSIGN  20108>>ASSIGN  20111>>ASSIGN  20114>>ASSIGN  20117>>ASSIGN  20120>>ASSIGN  20123>>ASSIGN
     20126>>ASSIGN  20129>>ASSIGN  20132>>ASSIGN  20135>>ASSIGN  20138>>ASSIGN  20141>>ASSIGN  20142>>ASSIGN
     20145>>ASSIGN  20146>>ASSIGN  20149>>ASSIGN  20150>>ASSIGN  20153>>ASSIGN  20154>>ASSIGN  20157>>ASSIGN
     20158>>ASSIGN  20161>>ASSIGN  20162>>ASSIGN  20165>>ASSIGN  20166>>ASSIGN  20169>>ASSIGN  20170>>ASSIGN
     20173>>ASSIGN  20174>>ASSIGN  20177>>ASSIGN  20178>>ASSIGN  20181>>ASSIGN  20182>>ASSIGN  20185>>ASSIGN
     20186>>ASSIGN  20189>>ASSIGN  20190>>ASSIGN  20193>>ASSIGN  20194>>ASSIGN  20197>>ASSIGN  20198>>ASSIGN
     20201>>ASSIGN  20202>>ASSIGN  20205>>ASSIGN  20206>>ASSIGN  20209>>ASSIGN  20210>>ASSIGN  20213>>ASSIGN
     20214>>ASSIGN  20232>>ASSIGN  20234<<ASSIGN  20234>>ASSIGN  20238>>ASSIGN  20239>>ASSIGN  20239>>ASSIGN
     20240>>ASSIGN  20241>>IF      20243>>ASSIGN  20243>>ASSIGN  20244>>ASSIGN  20245>>ASSIGN  20247<<ASSIGN
     20247>>ASSIGN  20288>>ASSIGN  20290>>ASSIGN  20294>>ASSIGN  20294>>ASSIGN  20299>>ASSIGN  20299>>ASSIGN
     20304>>ASSIGN  20304>>ASSIGN  20309>>ASSIGN  20309>>ASSIGN  20314>>ASSIGN  20314>>ASSIGN  20319>>ASSIGN
     20319>>ASSIGN  20324>>ASSIGN  20324>>ASSIGN  20326<<ASSIGN  20326>>ASSIGN  20442<<ASSIGN  20450>>ASSIGN
     20451>>ASSIGN  20453<<ASSIGN  20453>>ASSIGN  20557<<ASSIGN  20564>>ASSIGN  20565>>ASSIGN  20566>>ASSIGN
     20567>>ASSIGN  20568<<ASSIGN  20568>>ASSIGN  20921<<ASSIGN  21034>>ASSIGN  21036>>ASSIGN  21037<<ASSIGN
     21037>>ASSIGN  21061>>ASSIGN  21063>>ASSIGN  21064<<ASSIGN  21064>>ASSIGN  21090>>ASSIGN  21092>>ASSIGN
     21093<<ASSIGN  21093>>ASSIGN  21117>>ASSIGN  21119>>ASSIGN  21120<<ASSIGN  21120>>ASSIGN
SECOND.HORS IN PROCEDURE LIST_GR_ESCAPES
     20478**DCL     20577<<ASSIGN  20580<<ASSIGN  20600--ASSIGN
SECOND.TAB IN PROCEDURE LIST_GR_ESCAPES
     20477**DCL     20567<<ASSIGN  20599--ASSIGN
SET IN PROCEDURE BUILD_JCL_FMT
     21212**DCL     22024<<ASSIGN  22030<<ASSIGN  22035<<ASSIGN  22040<<ASSIGN  22045<<ASSIGN  22050<<ASSIGN
     22055<<ASSIGN  22060<<ASSIGN  22064>>IF
SETUP_CHR$
     17841**DCL     18010<<ASSIGN  19986>>ASSIGN  20265>>IF      21815>>ASSIGN
SINGLHORS_FMT IN PROCEDURE LIST_GR_ESCAPES
     20474**DCL     20540>>ASSIGN  20598--CALLBLT 20598>>CALLBLT 20603--ASSIGN  20604--ASSIGN
SLWBLN_STR
     17617**DCL     20312--ASSIGN
SOFTWARE IN PROCEDURE LIST_GR_ESCAPES
     20484**DCL     20537--ASSIGN  20580>>ASSIGN
PL6.E3A0      #001=ASL$DISP_ONE_PROFILE File=ASL$L_PRO.:E05TSI                   TUE 07/29/97 10:26 Page:785
SPD1050_STR
     17579**DCL     19058--ASSIGN
SPD110_STR
     17576**DCL     19046--ASSIGN
SPD1345_STR
     17577**DCL     19048--ASSIGN
SPD1800_STR
     17580**DCL     19062--ASSIGN
SPD2000_STR
     17581**DCL     19064--ASSIGN
SPD200_STR
     17578**DCL     19052--ASSIGN
SPD50_STR
     17575**DCL     19042--ASSIGN
SPLIT$
     17955**DCL     18922<<ASSIGN  18924>>ASSIGN  18925>>ASSIGN  18941<<ASSIGN  18949>>ASSIGN  18950>>ASSIGN
     19101<<ASSIGN  19103>>ASSIGN  19104>>ASSIGN  19108<<ASSIGN  19110>>ASSIGN  19111>>ASSIGN  19115<<ASSIGN
     19117>>ASSIGN  19118>>ASSIGN  19122<<ASSIGN  19124>>ASSIGN  19125>>ASSIGN  19129<<ASSIGN  19131>>ASSIGN
     19132>>ASSIGN  19136<<ASSIGN  19138>>ASSIGN  19139>>ASSIGN  19143<<ASSIGN  19145>>ASSIGN  19146>>ASSIGN
     19150<<ASSIGN  19152>>ASSIGN  19153>>ASSIGN  19157<<ASSIGN  19159>>ASSIGN  19160>>ASSIGN  19164<<ASSIGN
     19166>>ASSIGN  19167>>ASSIGN  19171<<ASSIGN  19173>>ASSIGN  19174>>ASSIGN  19588<<ASSIGN  19590>>ASSIGN
     19591>>ASSIGN  21521<<ASSIGN  21523>>ASSIGN  21524>>ASSIGN  21529<<ASSIGN  21531>>ASSIGN  21532>>ASSIGN
     21613<<ASSIGN  21621>>ASSIGN  21622>>ASSIGN  21645<<ASSIGN  21647>>ASSIGN  21648>>ASSIGN  21861<<ASSIGN
     21863>>ASSIGN  21864>>ASSIGN  21868<<ASSIGN  21870>>ASSIGN  21871>>ASSIGN  21875<<ASSIGN  21877>>ASSIGN
     21878>>ASSIGN  21882<<ASSIGN  21884>>ASSIGN  21885>>ASSIGN  21889<<ASSIGN  21891>>ASSIGN  21892>>ASSIGN
     21896<<ASSIGN  21898>>ASSIGN  21899>>ASSIGN  21903<<ASSIGN  21905>>ASSIGN  21906>>ASSIGN  21910<<ASSIGN
     21912>>ASSIGN  21913>>ASSIGN  21917<<ASSIGN  21919>>ASSIGN  21920>>ASSIGN  21925<<ASSIGN  21927>>ASSIGN
     21928>>ASSIGN
STRING IN PROCEDURE DO_HEX_LIST
     20355**DCL     20408--ASSIGN
STRING IN PROCEDURE DO_SETUP_CHR_JCL
     22114**DCL     22118<<ASSIGN  22165<<ASSIGN  22173<<ASSIGN  22174--ASSIGN
ST_IDX
     17925**DCL     18115<<ASSIGN  18139>>DOWHILE 18148<<ASSIGN  18155>>DOINDEX 18169>>DOWHILE 18170>>IF
     18180<<ASSIGN  18184<<ASSIGN  18310>>ASSIGN  18364>>ASSIGN
SVAL IN PROCEDURE BUILD_JCL_FMT
PL6.E3A0      #001=ASL$DISP_ONE_PROFILE File=ASL$L_PRO.:E05TSI                   TUE 07/29/97 10:26 Page:786
     21208**DCL     22004<<ASSIGN  22005>>ASSIGN  22006>>ASSIGN
SVAL IN PROCEDURE INSERT_FIELD
     18394**DCL     20238<<ASSIGN  20239>>ASSIGN  20240>>ASSIGN
TABS_HDR IN PROCEDURE LIST_TABS
     20439**DCL     20440--ASSIGN
TAB_POS IN PROCEDURE LIST_FUNKEY_DEFS
     20634**DCL     20912<<ASSIGN  20914<<ASSIGN  20914>>ASSIGN  20920--ASSIGN  21179--ASSIGN
TATR$
     17829**DCL     17992<<ASSIGN  18415>>IF      18421>>ASSIGN  18437>>IF      18443>>ASSIGN  18448>>IF
     18454>>ASSIGN  18459>>IF      18465>>ASSIGN  18470>>IF      18476>>ASSIGN  18489>>IF      18495>>ASSIGN
     18500>>IF      18506>>ASSIGN  18511>>IF      18517>>ASSIGN  18522>>IF      18528>>ASSIGN  18533>>IF
     18539>>ASSIGN  18544>>IF      18550>>ASSIGN  18576>>IF      18582>>ASSIGN  18608>>IF      18614>>ASSIGN
     18619>>IF      18625>>ASSIGN  18641>>IF      18647>>ASSIGN  18651>>IF      18657>>ASSIGN  18676>>IF
     18682>>ASSIGN  18687>>IF      18693>>ASSIGN  18742>>IF      18748>>ASSIGN  18753>>IF      18759>>ASSIGN
     18874>>IF      18880>>ASSIGN  18885>>IF      18891>>ASSIGN  18907>>IF      18913>>ASSIGN  18914>>IF
     18965>>IF      18971>>ASSIGN  19012>>IF      19018>>ASSIGN  19038>>DOSELCT 19178>>IF      19181>>ASSIGN
     19185>>IF      19188>>ASSIGN  19203>>DOSELCT 19215>>CALLBLT 19233>>DOSELCT 19697>>IF      19703>>ASSIGN
     19708>>IF      19714>>ASSIGN  19820>>IF      19823>>IF      19850>>IF      19856>>ASSIGN  19861>>IF
     19867>>ASSIGN  19872>>IF      19878>>ASSIGN  19990>>IF      19996>>ASSIGN  20001>>IF      20007>>ASSIGN
     20014>>IF      20020>>ASSIGN  21329>>ASSIGN  21504>>IF      21504>>IF      21510>>ASSIGN  21511>>IF
     21541>>IF      21544>>ASSIGN  21607>>ASSIGN  21667>>IF      21676>>ASSIGN  21681>>ASSIGN  21745>>ASSIGN
     21834>>ASSIGN
TBL_STR
     17537**DCL     19196--ASSIGN
TCCHR$
     17832**DCL     18001<<ASSIGN  18481>>ASSIGN  18485>>ASSIGN  18947>>ASSIGN  19076>>ASSIGN  19079>>ASSIGN
     19082>>ASSIGN  19085>>ASSIGN  19088>>ASSIGN  19091>>ASSIGN  19094>>ASSIGN  19097>>ASSIGN  19102>>ASSIGN
     19109>>ASSIGN  19116>>ASSIGN  19123>>ASSIGN  19130>>ASSIGN  19137>>ASSIGN  19144>>ASSIGN  19151>>ASSIGN
     19158>>ASSIGN  19165>>ASSIGN  19172>>ASSIGN  19192>>DOSELCT 19198>>CALLBLT 19220>>DOSELCT 19228>>CALLBLT
     19267>>ASSIGN  19348>>ASSIGN  19352>>ASSIGN  19356>>ASSIGN  19360>>ASSIGN  19364>>ASSIGN  19368>>ASSIGN
     19372>>ASSIGN  19376>>ASSIGN  19380>>ASSIGN  19390>>ASSIGN  19395>>ASSIGN  19399>>ASSIGN  19403>>ASSIGN
     19407>>ASSIGN  19411>>ASSIGN  19415>>ASSIGN  19718>>ASSIGN  19721>>ASSIGN  19725>>ASSIGN  19729>>ASSIGN
     19733>>ASSIGN  19737>>IF      19744>>ASSIGN  19748>>ASSIGN  19752>>ASSIGN  19756>>ASSIGN  19760>>ASSIGN
     19763>>ASSIGN  19766>>ASSIGN  19769>>ASSIGN  19772>>ASSIGN  19775>>ASSIGN  19778>>ASSIGN  19781>>ASSIGN
     19784>>ASSIGN  19787>>ASSIGN  19790>>ASSIGN  19793>>ASSIGN  19796>>ASSIGN  19800>>ASSIGN  19804>>ASSIGN
     19808>>ASSIGN  19812>>ASSIGN  19816>>ASSIGN  19883>>ASSIGN  19891>>ASSIGN  19895>>ASSIGN  19899>>ASSIGN
PL6.E3A0      #001=ASL$DISP_ONE_PROFILE File=ASL$L_PRO.:E05TSI                   TUE 07/29/97 10:26 Page:787
     19902>>ASSIGN  19905>>ASSIGN  19908>>ASSIGN  19911>>ASSIGN  19914>>ASSIGN  19917>>ASSIGN  19920>>ASSIGN
     20269>>ASSIGN  21374>>ASSIGN  21530>>ASSIGN  21564>>ASSIGN  21567>>ASSIGN  21570>>ASSIGN  21573>>ASSIGN
     21578>>ASSIGN  21581>>ASSIGN  21584>>ASSIGN  21587>>ASSIGN  21590>>ASSIGN  21593>>ASSIGN  21598>>ASSIGN
     21601>>ASSIGN  21604>>ASSIGN  21619>>ASSIGN  21626>>ASSIGN  21629>>ASSIGN  21632>>ASSIGN  21635>>ASSIGN
     21638>>ASSIGN  21641>>ASSIGN  21646>>ASSIGN  21663>>ASSIGN  21699>>ASSIGN  21700>>ASSIGN  21713>>ASSIGN
     21716>>ASSIGN  21721>>ASSIGN  21724>>ASSIGN  21739>>ASSIGN  21742>>ASSIGN  21792>>ASSIGN  21809>>ASSIGN
     21812>>ASSIGN  21821>>ASSIGN  21857>>ASSIGN  21862>>ASSIGN  21869>>ASSIGN  21876>>ASSIGN  21883>>ASSIGN
     21890>>ASSIGN  21897>>ASSIGN  21904>>ASSIGN  21911>>ASSIGN  21918>>ASSIGN  22016>>ASSIGN
TCTL$
     17828**DCL     17989<<ASSIGN  18404>>IF      18410>>ASSIGN  18426>>IF      18432>>ASSIGN  18555>>IF
     18561>>ASSIGN  18566>>IF      18572>>ASSIGN  18586>>IF      18592>>ASSIGN  18597>>IF      18603>>ASSIGN
     18630>>IF      18636>>ASSIGN  18665>>IF      18671>>ASSIGN  18698>>IF      18704>>ASSIGN  18709>>IF
     18715>>ASSIGN  18720>>IF      18726>>ASSIGN  18731>>IF      18737>>ASSIGN  18764>>IF      18770>>ASSIGN
     18775>>IF      18781>>ASSIGN  18786>>IF      18792>>ASSIGN  18797>>IF      18803>>ASSIGN  18808>>IF
     18814>>ASSIGN  18819>>IF      18825>>ASSIGN  18830>>IF      18836>>ASSIGN  18841>>IF      18847>>ASSIGN
     18852>>IF      18858>>ASSIGN  18863>>IF      18869>>ASSIGN  18896>>IF      18902>>ASSIGN  19027>>IF
     19033>>ASSIGN  19303>>IF      19309>>ASSIGN  19314>>IF      19320>>ASSIGN  19325>>IF      19331>>ASSIGN
     19336>>IF      19342>>ASSIGN  19923>>IF      19929>>ASSIGN  19933>>IF      19939>>ASSIGN  19943>>IF
     19949>>ASSIGN  19953>>IF      19959>>ASSIGN  19964>>IF      19970>>ASSIGN  19975>>IF      19981>>ASSIGN
     21273>>ASSIGN
TEMP IN PROCEDURE LIST_FUNKEY_DEFS
     20636**DCL     20950<<ASSIGN  20951>>CALLBLT 20994<<ASSIGN  20995>>CALLBLT
TEMP$ IN PROCEDURE DO_HEX_LIST
     20351**DCL     20398<<ASSIGN  20408>>ASSIGN
TEMP_BUF
     17933**DCL     18092<<ASSIGN  18108>>ASSIGN
TEMP_STR
     17934**DCL     18032<<ASSIGN  18038--ASSIGN  18050<<ASSIGN  18053<<ASSIGN  18056<<ASSIGN  18059<<ASSIGN
     18063<<ASSIGN  18066<<ASSIGN  18069<<ASSIGN  18072<<ASSIGN  18077>>CALLBLT
TEXT$C.C
     15873**DCL     18041>>ASSIGN
TEXT$C.L
     15872**DCL     15873--IMP-SIZ 18041>>ASSIGN
THREE_STR
     17589**DCL     20280--ASSIGN
TRMD$
PL6.E3A0      #001=ASL$DISP_ONE_PROFILE File=ASL$L_PRO.:E05TSI                   TUE 07/29/97 10:26 Page:788
     17833**DCL     18004<<ASSIGN  18661>>ASSIGN  18923>>ASSIGN  18928>>ASSIGN  18932>>ASSIGN  19023>>ASSIGN
     19249>>DOSELCT 19271>>ASSIGN  19275>>ASSIGN  19279>>ASSIGN  19283>>ASSIGN  19287>>ASSIGN  19291>>ASSIGN
     19295>>ASSIGN  19299>>ASSIGN  19419>>ASSIGN  19422>>DOSELCT 21289>>ASSIGN  21522>>ASSIGN  21559>>ASSIGN
     21750>>ASSIGN
TRY_STR
     17535**DCL     19478--ASSIGN
TWO_STR
     17588**DCL     20278--ASSIGN
T_TAB
     17842**DCL     20445<<ASSIGN  20447>>IF      20450>>ASSIGN  21843<<ASSIGN  21845--ASSIGN  21849>>IF
     21851--ASSIGN
UHEX_NUM
     17957**DCL     17958--REDEF   19097<<ASSIGN  19295<<ASSIGN  19299<<ASSIGN  19760<<ASSIGN  19763<<ASSIGN
     19766<<ASSIGN  19769<<ASSIGN  19772<<ASSIGN  19775<<ASSIGN  19778<<ASSIGN  19781<<ASSIGN  19784<<ASSIGN
     19787<<ASSIGN  19790<<ASSIGN  19793<<ASSIGN  19796<<ASSIGN  20954<<ASSIGN  20998<<ASSIGN
UNDSCR_STR
     17616**DCL     20307--ASSIGN
UNPRINT_TABLE.TXT
     17498**DCL     20379--ASSIGN  20946>>ASSIGN  20990>>ASSIGN  21026--ASSIGN  21053--ASSIGN  21082--ASSIGN
     21109--ASSIGN  21151--ASSIGN  22141--ASSIGN
UNPROTECT_STR
     17591**DCL     19740--ASSIGN
URP_STR
     17596**DCL     18065--ASSIGN  18066>>ASSIGN
USERS_KEY
     12851**DCL     18041--ASSIGN  18041--ASSIGN  18129<>CALL    18167<>CALL
USERS_KEY.COUNT
     12851**DCL     18037>>ASSIGN
USERS_KEY.TEXT
     12851**DCL     12852--REDEF   12852--REDEF   12852--REDEF   12853--REDEF
USERS_KEY.TXTC
     12852**DCL     18037--ASSIGN
V1024_STR
     17559**DCL     19453--ASSIGN  19605--ASSIGN  19655--ASSIGN
V128_STR
     17556**DCL     19447--ASSIGN  19599--ASSIGN  19649--ASSIGN
PL6.E3A0      #001=ASL$DISP_ONE_PROFILE File=ASL$L_PRO.:E05TSI                   TUE 07/29/97 10:26 Page:789
V2048_STR
     17560**DCL     19455--ASSIGN  19607--ASSIGN  19657--ASSIGN
V256_STR
     17557**DCL     19449--ASSIGN  19601--ASSIGN  19651--ASSIGN
V4096_STR
     17561**DCL     19457--ASSIGN  19609--ASSIGN  19659--ASSIGN
V512_STR
     17558**DCL     19451--ASSIGN  19603--ASSIGN  19653--ASSIGN
VC1200_STR
     17569**DCL     19060--ASSIGN  19626--ASSIGN  19676--ASSIGN
VC150_STR
     17566**DCL     19050--ASSIGN  19620--ASSIGN  19670--ASSIGN
VC19200_STR
     17573**DCL     19072--ASSIGN  19634--ASSIGN  19684--ASSIGN
VC2400_STR
     17570**DCL     19066--ASSIGN  19628--ASSIGN  19678--ASSIGN
VC300_STR
     17567**DCL     19054--ASSIGN  19622--ASSIGN  19672--ASSIGN
VC48000_STR
     17574**DCL     19636--ASSIGN  19686--ASSIGN
VC4800_STR
     17571**DCL     19068--ASSIGN  19630--ASSIGN  19680--ASSIGN
VC600_STR
     17568**DCL     19056--ASSIGN  19624--ASSIGN  19674--ASSIGN
VC75_STR
     17565**DCL     19044--ASSIGN  19618--ASSIGN  19668--ASSIGN
VC9600_STR
     17572**DCL     19070--ASSIGN  19632--ASSIGN  19682--ASSIGN
VDH_ALG_TYPE IN PROCEDURE INSERT_FIELD
     18389**DCL     19718<<ASSIGN  19721<<ASSIGN  19744<<ASSIGN  20272>>DOSELCT
VIRCIR$
     17836**DCL     18016<<ASSIGN  18936>>ASSIGN  19476>>DOSELCT 19496>>ASSIGN  19502>>ASSIGN  19507>>ASSIGN
     19515>>ASSIGN  19520>>ASSIGN  19525>>ASSIGN  19530>>ASSIGN  19535>>ASSIGN  19543>>ASSIGN  19556>>ASSIGN
     19561>>ASSIGN  19567>>ASSIGN  19572>>ASSIGN  19589>>ASSIGN  19597>>DOSELCT 19614>>DOSELCT 19640>>ASSIGN
     19643>>ASSIGN  19647>>DOSELCT 19664>>DOSELCT 19690>>ASSIGN  19693>>ASSIGN  21401>>ASSIGN  21553>>ASSIGN
     21657>>ASSIGN  21733>>ASSIGN  21771>>ASSIGN  21776>>ASSIGN  21782>>ASSIGN  21796>>ASSIGN  21824>>ASSIGN
PL6.E3A0      #001=ASL$DISP_ONE_PROFILE File=ASL$L_PRO.:E05TSI                   TUE 07/29/97 10:26 Page:790
     21829>>ASSIGN  21926>>ASSIGN
VIRCIR_STR
     17554**DCL     18062--ASSIGN  18063>>ASSIGN
VLP$PLATEN
     16697**DCL     21335--ASSIGN
VLP$PLATEN.EXTWID#
     16699**DCL     19005>>IF      21755>>IF      21762>>IF
VLP$PLATEN.FIRSTLINE#
     16698**DCL     18954>>IF      18960>>ASSIGN
VLP$PLATEN.LENGTH#
     16697**DCL     18976>>IF      18982>>ASSIGN
VLP$PLATEN.LIMBO#
     16698**DCL     18987>>IF      18993>>ASSIGN
VLP$PLATEN.WIDTH#
     16697**DCL     18998>>IF      19004>>ASSIGN  21755>>IF      21761>>ASSIGN
VLP$PNAME.L#
     16594**DCL     16594--IMP-SIZ
VLP$TAB
     16714**DCL     20445>>ASSIGN  21843>>ASSIGN
VLP$TRMATTR
     16657**DCL     21329--ASSIGN  21607--ASSIGN  21681--ASSIGN  21745--ASSIGN  21834--ASSIGN
VLP$TRMATTR.APL#
     16663**DCL     18415>>IF      18421>>ASSIGN
VLP$TRMATTR.ATRSCRNPOS#
     16668**DCL     19708>>IF      19714>>ASSIGN
VLP$TRMATTR.AUTONL#
     16660**DCL     18437>>IF      18443>>ASSIGN
VLP$TRMATTR.BIN#
     16663**DCL     18448>>IF      18454>>ASSIGN
VLP$TRMATTR.BLANKERASES#
     16661**DCL     18459>>IF      18465>>ASSIGN
VLP$TRMATTR.CHARSETNAME#
     16673**DCL     19185>>IF      19188--ASSIGN  21541>>IF      21544--ASSIGN
VLP$TRMATTR.CRISNL#
     16660**DCL     18470>>IF      18476>>ASSIGN
VLP$TRMATTR.CURSORUP#
PL6.E3A0      #001=ASL$DISP_ONE_PROFILE File=ASL$L_PRO.:E05TSI                   TUE 07/29/97 10:26 Page:791
     16658**DCL     18489>>IF      18495>>ASSIGN
VLP$TRMATTR.DCHMOVFLD#
     16669**DCL     19990>>IF      19996>>ASSIGN
VLP$TRMATTR.DEVICEBS#
     16659**DCL     18500>>IF      18506>>ASSIGN
VLP$TRMATTR.DEVICECR#
     16658**DCL     18511>>IF      18517>>ASSIGN
VLP$TRMATTR.DEVICELF#
     16659**DCL     18522>>IF      18528>>ASSIGN
VLP$TRMATTR.DEVPOSOPTS#
     16662**DCL     18533>>IF      18539>>ASSIGN
VLP$TRMATTR.DEVSCROLL#
     16658**DCL     18544>>IF      18550>>ASSIGN
VLP$TRMATTR.DSPHEIGHT#
     16674**DCL     20001>>IF      20007>>ASSIGN
VLP$TRMATTR.DVCFLWCTRALG#
     16672**DCL     19203>>DOSELCT 19215>>CALLBLT
VLP$TRMATTR.EXTWID#
     16665**DCL     18914>>IF      21504>>IF      21511>>IF
VLP$TRMATTR.FCNTBL#
     16673**DCL     19178>>IF      19181--ASSIGN  21667>>IF      21676--ASSIGN
VLP$TRMATTR.FF_FLUSH#
     16671**DCL     20014>>IF      20020>>ASSIGN
VLP$TRMATTR.FF_INCCR#
     16675**DCL     18576>>IF      18582>>ASSIGN
VLP$TRMATTR.HEIGHT#
     16670**DCL     18965>>IF      18971>>ASSIGN
VLP$TRMATTR.INPUT#
     16666**DCL     18608>>IF      18614>>ASSIGN
VLP$TRMATTR.LFISNL#
     16661**DCL     18619>>IF      18625>>ASSIGN
VLP$TRMATTR.LIMBOCLM#
     16664**DCL     19861>>IF      19867>>ASSIGN
VLP$TRMATTR.LOCALECHO#
     16664**DCL     19872>>IF      19878>>ASSIGN
VLP$TRMATTR.LOWERCASEPRINTS#
PL6.E3A0      #001=ASL$DISP_ONE_PROFILE File=ASL$L_PRO.:E05TSI                   TUE 07/29/97 10:26 Page:792
     16663**DCL     18641>>IF      18647>>ASSIGN
VLP$TRMATTR.MAXATRS#
     16674**DCL     19697>>IF      19703>>ASSIGN
VLP$TRMATTR.MICROFPL#
     16672**DCL     18651>>IF      18657>>ASSIGN
VLP$TRMATTR.MINREC#
     16670**DCL     19012>>IF      19018>>ASSIGN
VLP$TRMATTR.NO_FLDTRM#
     16668**DCL     19820>>IF      19823>>IF
VLP$TRMATTR.OPDTAB#
     16657**DCL     18676>>IF      18682>>ASSIGN
VLP$TRMATTR.OUTPUT#
     16666**DCL     18687>>IF      18693>>ASSIGN
VLP$TRMATTR.PARITY#
     16665**DCL     19233>>DOSELCT
VLP$TRMATTR.PRINTTYPE#
     16666**DCL     18742>>IF      18748>>ASSIGN
VLP$TRMATTR.PROGDTAB#
     16657**DCL     18753>>IF      18759>>ASSIGN
VLP$TRMATTR.SPCBFRPRT#
     16667**DCL     19850>>IF      19856>>ASSIGN
VLP$TRMATTR.SPEED#
     16671**DCL     19038>>DOSELCT
VLP$TRMATTR.TRUOVRPRT#
     16662**DCL     18874>>IF      18880>>ASSIGN
VLP$TRMATTR.TTYTYPE#
     16667**DCL     18885>>IF      18891>>ASSIGN
VLP$TRMATTR.WIDTH#
     16669**DCL     18907>>IF      18913>>ASSIGN  21504>>IF      21510>>ASSIGN
VLP$TRMCTRL
     16615**DCL     21273--ASSIGN
VLP$TRMCTRL.ACTONTRN#
     16621**DCL     18404>>IF      18410>>ASSIGN
VLP$TRMCTRL.APLLCNRM#
     16621**DCL     18426>>IF      18432>>ASSIGN
VLP$TRMCTRL.AUTOCURSOR#
PL6.E3A0      #001=ASL$DISP_ONE_PROFILE File=ASL$L_PRO.:E05TSI                   TUE 07/29/97 10:26 Page:793
     16634**DCL     19325>>IF      19331>>ASSIGN
VLP$TRMCTRL.AUTOTABCLM#
     16631**DCL     19975>>IF      19981>>ASSIGN
VLP$TRMCTRL.BREAKCOUNT
     16626**DCL     16627--REDEF
VLP$TRMCTRL.CURSORREAD#
     16633**DCL     19314>>IF      19320>>ASSIGN
VLP$TRMCTRL.DISPINPUT#
     16617**DCL     18555>>IF      18561>>ASSIGN
VLP$TRMCTRL.EDITOVR#
     16622**DCL     18566>>IF      18572>>ASSIGN
VLP$TRMCTRL.FULLDUXPAPERTAPE#
     16619**DCL     18586>>IF      18592>>ASSIGN
VLP$TRMCTRL.HALFDUXPAPERTAPE#
     16620**DCL     18597>>IF      18603>>ASSIGN
VLP$TRMCTRL.HSCROLL#
     16627**DCL     19953>>IF      19959>>ASSIGN
VLP$TRMCTRL.INSERTMODE#
     16628**DCL     19943>>IF      19949>>ASSIGN
VLP$TRMCTRL.KEEPTYPAHD#
     16634**DCL     19336>>IF      19342>>ASSIGN
VLP$TRMCTRL.LOWERCASE#
     16619**DCL     18630>>IF      18636>>ASSIGN
VLP$TRMCTRL.MSGHALT#
     16628**DCL     19923>>IF      19929>>ASSIGN
VLP$TRMCTRL.MSGLINE#
     16629**DCL     19933>>IF      19939>>ASSIGN
VLP$TRMCTRL.NOOPTMIZ#
     16625**DCL     18665>>IF      18671>>ASSIGN
VLP$TRMCTRL.OUTPUTDISCARD#
     16618**DCL     18698>>IF      18704>>ASSIGN
VLP$TRMCTRL.PAGEHALT#
     16623**DCL     18709>>IF      18715>>ASSIGN
VLP$TRMCTRL.PARITYCHECK#
     16617**DCL     18720>>IF      18726>>ASSIGN
VLP$TRMCTRL.PARKCURSOR#
PL6.E3A0      #001=ASL$DISP_ONE_PROFILE File=ASL$L_PRO.:E05TSI                   TUE 07/29/97 10:26 Page:794
     16633**DCL     19303>>IF      19309>>ASSIGN
VLP$TRMCTRL.PRINTHALT#
     16623**DCL     18731>>IF      18737>>ASSIGN
VLP$TRMCTRL.RELPAGE#
     16624**DCL     18764>>IF      18770>>ASSIGN
VLP$TRMCTRL.RETYPOVR#
     16621**DCL     18775>>IF      18781>>ASSIGN
VLP$TRMCTRL.SCROLL#
     16622**DCL     18786>>IF      18792>>ASSIGN
VLP$TRMCTRL.SENDBKSPACE#
     16616**DCL     18797>>IF      18803>>ASSIGN
VLP$TRMCTRL.SIMPERF#
     16624**DCL     18808>>IF      18814>>ASSIGN
VLP$TRMCTRL.SINPUTSZ#
     16626**DCL     19027>>IF      19033>>ASSIGN
VLP$TRMCTRL.SPACEINSERT#
     16616**DCL     18819>>IF      18825>>ASSIGN
VLP$TRMCTRL.TABRELATIVE#
     16615**DCL     18830>>IF      18836>>ASSIGN
VLP$TRMCTRL.TABSIM#
     16615**DCL     18841>>IF      18847>>ASSIGN
VLP$TRMCTRL.TRUNCATE#
     16625**DCL     18852>>IF      18858>>ASSIGN
VLP$TRMCTRL.UPPERCASE#
     16618**DCL     18896>>IF      18902>>ASSIGN
VLP$TRMCTRL.WORDWRAPCLM#
     16631**DCL     19964>>IF      19970>>ASSIGN
VLP$TRMCTRL.WRAPPAGE#
     16625**DCL     18863>>IF      18869>>ASSIGN
VLP_TRMCTL.BREAKCOUNT
     16478**DCL     16479--REDEF
X$FORMAT
     15840**DCL-ENT 18075--CALL    18096--CALL    18104--CALL    18382--CALL    20374--CALL    20392--CALL
     20414--CALL    20530--CALL    20542--CALL    20590--CALL    20606--CALL    21189--CALL    22085--CALL
     22135--CALL    22155--CALL    22184--CALL
X$PARSE
PL6.E3A0      #001=ASL$DISP_ONE_PROFILE File=ASL$L_PRO.:E05TSI                   TUE 07/29/97 10:26 Page:795
     15839**DCL-ENT 18255--CALL
X25_STR
     17552**DCL     19466--ASSIGN
X29_STR
     17555**DCL     19468--ASSIGN
YES_NO IN PROCEDURE INSERT_FIELD
     18393**DCL     18410<<ASSIGN  18421<<ASSIGN  18432<<ASSIGN  18443<<ASSIGN  18454<<ASSIGN  18465<<ASSIGN
     18476<<ASSIGN  18481<<ASSIGN  18485<<ASSIGN  18495<<ASSIGN  18506<<ASSIGN  18517<<ASSIGN  18528<<ASSIGN
     18539<<ASSIGN  18550<<ASSIGN  18561<<ASSIGN  18572<<ASSIGN  18582<<ASSIGN  18592<<ASSIGN  18603<<ASSIGN
     18614<<ASSIGN  18625<<ASSIGN  18636<<ASSIGN  18647<<ASSIGN  18657<<ASSIGN  18661<<ASSIGN  18671<<ASSIGN
     18682<<ASSIGN  18693<<ASSIGN  18704<<ASSIGN  18715<<ASSIGN  18726<<ASSIGN  18737<<ASSIGN  18748<<ASSIGN
     18759<<ASSIGN  18770<<ASSIGN  18781<<ASSIGN  18792<<ASSIGN  18803<<ASSIGN  18814<<ASSIGN  18825<<ASSIGN
     18836<<ASSIGN  18847<<ASSIGN  18858<<ASSIGN  18869<<ASSIGN  18880<<ASSIGN  18891<<ASSIGN  18902<<ASSIGN
     19271<<ASSIGN  19275<<ASSIGN  19279<<ASSIGN  19283<<ASSIGN  19287<<ASSIGN  19291<<ASSIGN  19309<<ASSIGN
     19320<<ASSIGN  19331<<ASSIGN  19342<<ASSIGN  19386<<ASSIGN  19487<<ASSIGN  19513<<ASSIGN  19515<<ASSIGN
     19541<<ASSIGN  19543<<ASSIGN  19548<<ASSIGN  19643<<ASSIGN  19714<<ASSIGN  19733<<ASSIGN  19829<<ASSIGN
     19832<<ASSIGN  19856<<ASSIGN  19867<<ASSIGN  19878<<ASSIGN  19899<<ASSIGN  19902<<ASSIGN  19905<<ASSIGN
     19908<<ASSIGN  19911<<ASSIGN  19914<<ASSIGN  19917<<ASSIGN  19920<<ASSIGN  19929<<ASSIGN  19939<<ASSIGN
     19949<<ASSIGN  19959<<ASSIGN  19996<<ASSIGN  20020<<ASSIGN  20223>>IF
YES_STR
     17533**DCL     19426--ASSIGN  19482--ASSIGN  20225--ASSIGN
ZERO_STR
     17587**DCL     19243--ASSIGN
