PL6.E3A0      #001=ASL$DISP_ONE_PROFILE File=ASL$L_PRO.:E05TSI                   TUE 07/29/97 10:26 Page:1
        1        1        /*M* ASL$L_PRO:  Routine to list out PROFILES.    */
        2        2        /*T***********************************************************/
        3        3        /*T*                                                         */
        4        4        /*T* Copyright (c) Bull HN Information Systems Inc., 1997    */
        5        5        /*T*                                                         */
        6        6        /*T***********************************************************/
        7        7        /*X*  DMC,DMR,CCC,PLM=0,IND=3,CTI=5,DCI=6,IAD=0,DTI=0,IDT=0,ENI=3,
        8        8              ECU=3,CSU=3,SDI=3                                           */
        9        9        ASL$DISP_ONE_PROFILE: PROC(P_ARS,JCL);
       10       10        %SET LISTSUB = '1'B ;
       11       11        /********************************************************************/
       12       12        /*   Parameters      parameters      parameters      parameters     */
       13       13        /********************************************************************/
       14       14    1   DCL P_ARS UBIN WORD ;
       15       15    1   DCL JCL   BIT(1) ;
       16       16        /********************************************************************/
       17       17        /*   Include files   include files   include files   include files  */
       18       18        /********************************************************************/
       19       19        %INCLUDE AS_SUBS_C;
       20     1433        %INCLUDE AS_MAC_C;
       21     1513        %INCLUDE AS_SUPER_C;
       22     1948        %INCLUDE AS_SSUBS_C ;
       23     2040        %INCLUDE AS_PERR_C ;
       24     2642        %INCLUDE AS_ENTRIES_M;
       25     3692        %INCLUDE CP_6 ;
       26     3773        %INCLUDE CP_6_SUBS;
       27     4313        %INCLUDE KV_PRMID_E ;
       28     4487        %INCLUDE B_MICROPS_C;
       29     4659        %INCLUDE AS_FUNKEY_DEFS_C;
       30     4764        %INCLUDE KV$INPFNC;
       31     5323           %KV_INPFNC_E;
       32     5337           %KV_INPFNCKEY_E;
       33     5599        %INCLUDE KL_SUPER_C;
       34     8501        %INCLUDE XU_MACRO_C;
       35    11607        %INCLUDE XU_FORMAT_C;
       36    11769        %INCLUDE XG_PROFILE_C;
       37    12323        %INCLUDE XG_SUBS_C;
PL6.E3A0      #001=ASL$DISP_ONE_PROFILE File=ASL$L_PRO.:E05TSI                   TUE 07/29/97 10:26 Page:2
       38    12817        %INCLUDE AS_SUPER_R;
       39    15833        /********************************************************************/
       40    15834        /*   subs            subs            subs            subs           */
       41    15835        /********************************************************************/
       42    15836        /********************************************************************/
       43    15837        /*   Entry dcls      entry dcls      entry dcls      entry dcls     */
       44    15838        /********************************************************************/
       45    15839    1   DCL X$PARSE ENTRY(1) ALTRET;
       46    15840    1   DCL X$FORMAT ENTRY(1);
       47    15841        %ASB$WRITE_LO ;
       48    15844        %ASB$PAGE_LO ;
       49    15847        %ASB$READ_SI ;
       50    15850        %ASB$SET_PROMPT ;
       51    15853        %ASD$GR_READ_PRO ;
       52    15856        %ASH$HELP ;
       53    15859        %ASH$ERROR ;
       54    15862        %ASH$DQUEST ;
       55    15865        %ASH$QUEST ;
       56    15868        /********************************************************************/
       57    15869        /*   Local based     local based     local based     local based    */
       58    15870        /********************************************************************/
       59    15871    1   DCL 1 TEXT$C BASED,
       60    15872    1          2 L UBIN BYTE UNAL,
       61    15873    1          2 C CHAR(TEXT$C.L) UNAL;
       62    15874              %KL_PHDR ( NAME = PRO$HDR ,
       63    15875                          STCLASS = BASED ) ;
       64    15916        %XG$PROFILE( PRON = GRA$REC,
       65    15917                     STCLASS = BASED );
       66    16339    1   DCL 1 PP$STRCT BASED( PP$ ) UNAL ,
       67    16340    1          2 TYPE UBIN BYTE UNAL ,
       68    16341    1          2 SIZE UBIN BYTE UNAL ;
       69    16342    1   DCL 1 PP$BIG_STRCT BASED( PP$ ) UNAL ,
       70    16343    1          2 BIG  UBIN BYTE UNAL ,
       71    16344    1          2 TYPE UBIN BYTE UNAL ,
       72    16345    1          2 SIZE ,
       73    16346    1             3 *   UBIN (1) UNAL ,
       74    16347    1             3 T   UBIN (8) UNAL ,
PL6.E3A0      #001=ASL$DISP_ONE_PROFILE File=ASL$L_PRO.:E05TSI                   TUE 07/29/97 10:26 Page:3
       75    16348    1             3 *   UBIN (1) UNAL ,
       76    16349    1             3 B   UBIN (8) UNAL ;
       77    16350        %PARSE$OUT(NAME=P$B,STCLASS="BASED(P_PCB.OUT$)",
       78    16351                        NDTYPE=TYPE,NSUBLKS=NSUBLKS);
       79    16396        %KL$UWORD(NAME=KL$UWORD,STCLASS=BASED) ;
       80    16401        %KL$BWORD(NAME=KL$BWORD,STCLASS=BASED) ;
       81    16407        %KL$UBWORD(NAME=KL$UBWORD,STCLASS=AUTO) ;
       82    16417        /********************************************************************/
       83    16418        /*   Vlps            vlps            vlps            vlps            */
       84    16419        /*********************************************************************/
       85    16420                                                /**/
       86    16421              %VLP_NAME ( FPTN = VLP_PNAME ,
       87    16422                          STCLASS = STATIC ) ;
       88    16449              %VLP_TRMCTL ( FPTN = VLP_TRMCTL ,
       89    16450                            STCLASS = STATIC ) ;
       90    16490              %VLP_TRMATTR (  FPTN = VLP_TRMATTR ,
       91    16491                              STCLASS = STATIC ) ;
       92    16529              %VLP_PLATEN ( FPTN = VLP_PLATEN ,
       93    16530                            STCLASS = STATIC ) ;
       94    16552              %VLP_TAB (  FPTN = VLP_TAB ,
       95    16553                          STCLASS = STATIC ) ;
       96    16567              %VLP_NAME         ( FPTN    = VLP$PNAME ,
       97    16568                                  STCLASS = "BASED CALIGNED",
       98    16569                                  LEN     = VLP$PNAME.L# ) ;
       99    16596              %VLP_TRMCTL       ( FPTN    = VLP$TRMCTRL ,
      100    16597                                  ALGN    = CALIGNED ,
      101    16598                                  STCLASS = BASED ) ;
      102    16638              %VLP_TRMATTR      ( FPTN    = VLP$TRMATTR ,
      103    16639                                  ALGN    = CALIGNED ,
      104    16640                                  STCLASS = BASED ) ;
      105    16678              %VLP_PLATEN       ( FPTN    = VLP$PLATEN ,
      106    16679                                  ALGN    = CALIGNED ,
      107    16680                                  STCLASS = BASED ) ;
      108    16702              %VLP_TAB          ( FPTN    = VLP$TAB ,
      109    16703                                  STCLASS = BASED )  ;
      110    16717              %KL_CCHR          ( NAME    = KL$CCHR ,
      111    16718                                  STCLASS = "BASED CALIGNED") ;
PL6.E3A0      #001=ASL$DISP_ONE_PROFILE File=ASL$L_PRO.:E05TSI                   TUE 07/29/97 10:26 Page:4
      112    16859              %KL_TRMD          ( NAME    = KL$TRMD ,
      113    16860                                  STCLASS = "BASED CALIGNED") ;
      114    17022              %KL_LINK          ( NAME    = KL$LINK ,
      115    17023                                  STCLASS = "BASED" ) ;
      116    17119              %KL_VIRCIR        ( NAME    = KL$VIRCIR,
      117    17120                                  STCLASS = "BASED") ;
      118    17329              %KL_3270          ( NAME    = KL$3270,
      119    17330                                  STCLASS = "BASED(KL_3270$) CALIGNED" );
      120    17355              %KL_ABSGRPRND     ( NAME    = KL$ABSGRPRND,
      121    17356                                  STCLASS = "BASED(KL_ABSGRPRND$) CALIGNED" );
      122    17391              %AS_FUNKEY        ( NAME    = KL$FUNKEY,
      123    17392                                  STCLASS = "BASED (FUNKEY$) CALIGNED") ;
      124    17463
      125    17464        /********************************************************************/
      126    17465        /*   Constant data   constant data   constant data   constant data  */
      127    17466        /********************************************************************/
      128    17467    1   DCL FMT_TABLE   (0:28 /* C_ALL_DONE */) CHAR(30) CONSTANT INIT
      129    17468    1             (' ',
      130    17469    1              '%>A',
      131    17470    1              '%1.1N[YES%0?NO%]',
      132    17471    1              '%2.2N[YES%0?NO%1?DC%]',
      133    17472    1              '%255.8N:=[DC%?%.#KD%]',
      134    17473    1              '%255.9N:=[DC%?%.#KD%]',
      135    17474    1              '%255.N:=[DC%?%.#K+D%]',
      136    17475    1              '%.2D',
      137    17476    1              '%.4D',
      138    17477    1              '%.7D',
      139    17478    1              '%.9D',
      140    17479    1              '%.18D',
      141    17480    1              '%+D',
      142    17481    1              '%+D.%1ZD',
      143    17482    1              'X''%.9H''',
      144    17483    1              'X''%H''%N(,X''%H''%)',
      145    17484    1              '%.9N:=[NONE%1?ANS%?%.#KD%]',
      146    17485    1              '%..2.2P%.7N[NONE%]',
      147    17486    1              '%..2.4P%1.1N[DCRINT%]',
      148    17487    1              '%..2.7P%1.1N[FSTBLN%]',
PL6.E3A0      #001=ASL$DISP_ONE_PROFILE File=ASL$L_PRO.:E05TSI                   TUE 07/29/97 10:26 Page:5
      149    17488    1              '%..2.2P%1.1N[HDN%]',
      150    17489    1              '%..2.3P%1.1N[INCINT%]',
      151    17490    1              '%..2.8P%1.1N[RVRVID%]',
      152    17491    1              '%..2.6P%1.1N[SLWBLN%]',
      153    17492    1              '%..2.5P%1.1N[UNDSCR%]%1P',
      154    17493    1              ' '*0);
      155    17494    1   DCL PRO_JCL_FMT  CHAR(0) CONSTANT INIT ('MODIFY PROFILE %>A %>A');
      156    17495    1   DCL 1 UNPRINT_TABLE (0:127) CONSTANT,
      157    17496    1          2 CNT  UBIN BYTE CALIGNED
      158    17497    1              INIT (3*8, 2*8, 3*9, 2, 3*2, 2*4, 0*95, 3),
      159    17498    1          2 TXT  CHAR(3)  CALIGNED
      160    17499    1             INIT (    'NUL',
      161    17500    1                       'SOH',
      162    17501    1                       'STX',
      163    17502    1                       'ETX',
      164    17503    1                       'EOT',
      165    17504    1                       'ENQ',
      166    17505    1                       'ACK',
      167    17506    1                       'BEL',
      168    17507    1                       'BS ',
      169    17508    1                       'HT ',
      170    17509    1                       'LF ',
      171    17510    1                       'VT ',
      172    17511    1                       'FF ',
      173    17512    1                       'CR ',
      174    17513    1                       'SO ',
      175    17514    1                       'SI ',
      176    17515    1                       'DLE',
      177    17516    1                       'DC1',
      178    17517    1                       'DC2',
      179    17518    1                       'DC3',
      180    17519    1                       'DC4',
      181    17520    1                       'NAK',
      182    17521    1                       'SYN',
      183    17522    1                       'ETB',
      184    17523    1                       'CAN',
      185    17524    1                       'EM ',
PL6.E3A0      #001=ASL$DISP_ONE_PROFILE File=ASL$L_PRO.:E05TSI                   TUE 07/29/97 10:26 Page:6
      186    17525    1                       'SUB',
      187    17526    1                       'ESC',
      188    17527    1                       'FS ',
      189    17528    1                       'GS ',
      190    17529    1                       'RS ',
      191    17530    1                       'US ',
      192    17531    1                       '   '*95,
      193    17532    1                       'DEL');
      194    17533    1   DCL YES_STR CHAR(0) CONSTANT INIT('Yes') ;
      195    17534    1   DCL NO_STR CHAR(0) CONSTANT INIT('No') ;
      196    17535    1   DCL TRY_STR CHAR(0) CONSTANT INIT('Try') ;
      197    17536    1   DCL ANS_STR CHAR(0) CONSTANT INIT('ANS') ;
      198    17537    1   DCL TBL_STR CHAR(0) CONSTANT INIT('TBL') ;
      199    17538    1   DCL DBL_STR CHAR(0) CONSTANT INIT('DBL') ;
      200    17539    1   DCL NEC_STR CHAR(0) CONSTANT INIT('NEC') ;
      201    17540    1   DCL ENQACK_STR CHAR(0) CONSTANT INIT('ENQACK') ;
      202    17541    1   DCL ETXACK_STR CHAR(0) CONSTANT INIT('ETXACK') ;
      203    17542    1   DCL DC1DC3_STR CHAR(0) CONSTANT INIT('DC1DC3') ;
      204    17543    1   DCL S2780_STR CHAR(0) CONSTANT INIT('2780') ;
      205    17544    1   DCL S3780_STR CHAR(0) CONSTANT INIT('3780') ;
      206    17545    1   DCL HASP_STR CHAR(0) CONSTANT INIT('HASP') ;
      207    17546    1   DCL POLLED_STR CHAR(0) CONSTANT INIT('POLLED') ;
      208    17547    1   DCL S3275_STR CHAR(0) CONSTANT INIT('3270') ;
      209    17548    1   DCL HIP_STR CHAR(0) CONSTANT INIT('HIP');
      210    17549    1   DCL NJE_STR CHAR(0) CONSTANT INIT('NJE');
      211    17550    1   DCL NONE_STR CHAR(0) CONSTANT INIT('NONE') ;
      212    17551    1   DCL ALL_STR CHAR(0) CONSTANT INIT('ALL') ;
      213    17552    1   DCL X25_STR CHAR(0) CONSTANT INIT('X25') ;
      214    17553    1   DCL LINK_STR CHAR(0) CONSTANT INIT('LINK') ;
      215    17554    1   DCL VIRCIR_STR CHAR(0) CONSTANT INIT('VIRCIR') ;
      216    17555    1   DCL X29_STR CHAR(0) CONSTANT INIT('X29') ;
      217    17556    1   DCL V128_STR CHAR(0) CONSTANT INIT('128') ;
      218    17557    1   DCL V256_STR CHAR(0) CONSTANT INIT('256') ;
      219    17558    1   DCL V512_STR CHAR(0) CONSTANT INIT('512') ;
      220    17559    1   DCL V1024_STR CHAR(0) CONSTANT INIT('1024') ;
      221    17560    1   DCL V2048_STR CHAR(0) CONSTANT INIT('2048') ;
      222    17561    1   DCL V4096_STR CHAR(0) CONSTANT INIT('4096') ;
PL6.E3A0      #001=ASL$DISP_ONE_PROFILE File=ASL$L_PRO.:E05TSI                   TUE 07/29/97 10:26 Page:7
      223    17562    1   DCL PRM_STR CHAR(0) CONSTANT INIT('PRIMARY');
      224    17563    1   DCL SECND_STR CHAR(0) CONSTANT INIT('SECONDARY');
      225    17564    1   DCL BCK_STR CHAR(0) CONSTANT INIT('BACKUP');
      226    17565    1   DCL VC75_STR CHAR(0) CONSTANT INIT('75');
      227    17566    1   DCL VC150_STR CHAR(0) CONSTANT INIT('150');
      228    17567    1   DCL VC300_STR CHAR(0) CONSTANT INIT('300');
      229    17568    1   DCL VC600_STR CHAR(0) CONSTANT INIT('600');
      230    17569    1   DCL VC1200_STR CHAR(0) CONSTANT INIT('1200');
      231    17570    1   DCL VC2400_STR CHAR(0) CONSTANT INIT('2400');
      232    17571    1   DCL VC4800_STR CHAR(0) CONSTANT INIT('4800');
      233    17572    1   DCL VC9600_STR CHAR(0) CONSTANT INIT('9600');
      234    17573    1   DCL VC19200_STR CHAR(0) CONSTANT INIT('19200');
      235    17574    1   DCL VC48000_STR CHAR(0) CONSTANT INIT('48000');
      236    17575    1   DCL SPD50_STR CHAR(0) CONSTANT INIT('50');
      237    17576    1   DCL SPD110_STR CHAR(0) CONSTANT INIT('110');
      238    17577    1   DCL SPD1345_STR CHAR(0) CONSTANT INIT('134.5');
      239    17578    1   DCL SPD200_STR CHAR(0) CONSTANT INIT('200');
      240    17579    1   DCL SPD1050_STR CHAR(0) CONSTANT INIT('1050');
      241    17580    1   DCL SPD1800_STR CHAR(0) CONSTANT INIT('1800');
      242    17581    1   DCL SPD2000_STR CHAR(0) CONSTANT INIT('2000');
      243    17582    1   DCL DTE_STR CHAR(0) CONSTANT INIT('DTE') ;
      244    17583    1   DCL DCE_STR CHAR(0) CONSTANT INIT('DCE') ;
      245    17584    1   DCL ODD_STR CHAR(0) CONSTANT INIT('ODD') ;
      246    17585    1   DCL EVEN_STR CHAR(0) CONSTANT INIT('EVEN') ;
      247    17586    1   DCL ONE_STR CHAR(0) CONSTANT INIT('ONE') ;
      248    17587    1   DCL ZERO_STR CHAR(0) CONSTANT INIT('ZERO') ;
      249    17588    1   DCL TWO_STR CHAR(0) CONSTANT INIT('2');
      250    17589    1   DCL THREE_STR CHAR(0) CONSTANT INIT('3');
      251    17590    1   DCL PROTECT_STR CHAR(0) CONSTANT INIT('PROTECTED');
      252    17591    1   DCL UNPROTECT_STR CHAR(0) CONSTANT INIT('UNPROTECTED');
      253    17592    1   DCL DC_STR CHAR(0) CONSTANT INIT('DC') ;
      254    17593    1   DCL ASYNC_STR CHAR(0) CONSTANT INIT('ASYNC') ;
      255    17594    1   DCL RBTD_STR CHAR(0) CONSTANT INIT('RBTD') ;
      256    17595    1   DCL RBT_STR CHAR(0) CONSTANT INIT('RBT') ;
      257    17596    1   DCL URP_STR CHAR(0) CONSTANT INIT('URP') ;
      258    17597    1   DCL POLLVIP_STR CHAR(0) CONSTANT INIT('POLLVIP') ;
      259    17598    1   DCL P3270_STR CHAR(0) CONSTANT INIT('3270');
PL6.E3A0      #001=ASL$DISP_ONE_PROFILE File=ASL$L_PRO.:E05TSI                   TUE 07/29/97 10:26 Page:8
      260    17599    1   DCL S2780LP_STR CHAR(0) CONSTANT INIT('2780LP') ;
      261    17600    1   DCL S2780CR_STR CHAR(0) CONSTANT INIT('2780CR') ;
      262    17601    1   DCL S2780CP_STR CHAR(0) CONSTANT INIT('2780CP') ;
      263    17602    1   DCL S3780LP_STR CHAR(0) CONSTANT INIT('3780LP') ;
      264    17603    1   DCL S3780CR_STR CHAR(0) CONSTANT INIT('3780CR') ;
      265    17604    1   DCL S3780CP_STR CHAR(0) CONSTANT INIT('3780CP') ;
      266    17605    1   DCL HASPOC_STR CHAR(0) CONSTANT INIT('HASPOC') ;
      267    17606    1   DCL HASPLP_STR CHAR(0) CONSTANT INIT('HASPLP') ;
      268    17607    1   DCL HASPCR_STR CHAR(0) CONSTANT INIT('HASPCR') ;
      269    17608    1   DCL HASPCP_STR CHAR(0) CONSTANT INIT('HASPCP') ;
      270    17609    1   DCL NONE_SET_STR CHAR(0) CONSTANT INIT('None set') ;
      271    17610    1   DCL LINE_STR CHAR(0) CONSTANT INIT('LINE') ;
      272    17611    1   DCL PAGE_STR CHAR(0) CONSTANT INIT('PAGE') ;
      273    17612    1   DCL BLANKS_STR CHAR(0) CONSTANT INIT('BLANKS') ;
      274    17613    1   DCL HDN_STR CHAR(0) CONSTANT INIT('HDN');
      275    17614    1   DCL INCINT_STR CHAR(0) CONSTANT INIT('INCINT');
      276    17615    1   DCL DCRINT_STR CHAR(0) CONSTANT INIT('DCRINT');
      277    17616    1   DCL UNDSCR_STR CHAR(0) CONSTANT INIT('UNDSCR');
      278    17617    1   DCL SLWBLN_STR CHAR(0) CONSTANT INIT('SLWBLN');
      279    17618    1   DCL FSTBLN_STR CHAR(0) CONSTANT INIT('FSTBLN');
      280    17619    1   DCL RVRVID_STR CHAR(0) CONSTANT INIT('RVRVID');
      281    17620    1   DCL HEX_CHARS(0:15) CHAR(1) STATIC INIT( '0', '1', '2', '3', '4', '5',
      282    17621    1                                            '6', '7', '8', '9', 'A', 'B',
      283    17622    1                                            'C', 'D', 'E', 'F' ) ;
      284    17623    1   DCL MOP_STR(0:1) BIT(9) CONSTANT INIT(%MVZB2,%MVC2);
      285    17624        %KV_PRMID_E ;
      286    17780        /********************************************************************/
      287    17781        /*   Static data     static data     static data     static data    */
      288    17782        /********************************************************************/
      289    17783    1   DCL PRO_FLAGS(0:280 /* L_PRO_END */) BIT(1) STATIC SYMDEF; /*To make .X tool work*/
      290    17784    1   DCL FRST_CHR CHAR(1) ALIGNED STATIC INIT(' ') ;
      291    17785    1   DCL ACCT_ARRY(0:7) CHAR(12) ALIGNED STATIC ;
      292    17786              %KL_PHDR (  NAME = PRO_HDR ,
      293    17787                          STCLASS = STATIC ) ;
      294    17828    1   DCL TCTL$ PTR STATIC INIT( ADDR(NIL) ) ;
      295    17829    1   DCL TATR$ PTR STATIC INIT( ADDR(NIL) ) ;
      296    17830    1   DCL PLTN$ PTR STATIC INIT( ADDR(NIL) ) ;
PL6.E3A0      #001=ASL$DISP_ONE_PROFILE File=ASL$L_PRO.:E05TSI                   TUE 07/29/97 10:26 Page:9
      297    17831    1   DCL DTABS$ PTR STATIC INIT( ADDR(NIL) ) ;
      298    17832    1   DCL TCCHR$ PTR STATIC INIT( ADDR(NIL) ) ;
      299    17833    1   DCL TRMD$ PTR STATIC INIT( ADDR(NIL) ) ;
      300    17834    1   DCL PNM$ PTR STATIC INIT( ADDR(NIL) ) ;
      301    17835    1   DCL LINK$ PTR STATIC INIT(ADDR(NIL));
      302    17836    1   DCL VIRCIR$ PTR STATIC INIT(ADDR(NIL));
      303    17837    1   DCL KL_3270$ PTR STATIC INIT(ADDR(NIL));
      304    17838    1   DCL KL_ABSGRPRND$ PTR STATIC INIT(ADDR(NIL));
      305    17839    1   DCL ABSGRPRND$(0:7) PTR STATIC INIT(ADDR(NIL)*0);
      306    17840    1   DCL FUNKEY$ PTR STATIC INIT (ADDR (NIL));
      307    17841    1   DCL SETUP_CHR$ PTR STATIC INIT (ADDR (NIL));
      308    17842    1   DCL T_TAB(0:31) UBIN BYTE UNAL STATIC INIT(0*0) ;
      309    17843    1   DCL BLANK_BUF CHAR(4) STATIC INIT(' ') ;
      310    17844        /********************************************************************/
      311    17845        /*   Err codes       err codes       err codes       err codes      */
      312    17846        /********************************************************************/
      313    17847        %ERR_CODE(NAME = E_BADLSTPROOPT,MID# = '14'O,CODE# = E$BADLSTPROOPT );
      314    17863        /*E* ERROR: ASL-E$BADLSTPROOPT-C
      315    17864             MESSAGE0: Illegal option.
      316    17865             MESSAGE1: Illegal LIST option for this PROFILE type.
      317    17866        */
      318    17867        %ERR_CODE(NAME = E_NOGRAREC,MID# = '14'O,CODE# = E$NOGRAREC );
      319    17883        /*E* ERROR: ASL-E$NOGRAREC-C
      320    17884             MESSAGE0: This PROFILE is not graphics capable.
      321    17885             MESSAGE1: Illegal LIST option for this PROFILE type.
      322    17886        */
      323    17887        %ERR_CODE(NAME = E_NOGRAFND,MID# = '14'O,CODE# = E$NOGRAFND );
      324    17903        /*E* ERROR: ASL-E$NOGRAFND-C
      325    17904             MESSAGE0: GRAPHICS are allowed, but no graphics are defined.
      326    17905             MESSAGE1: The GRAPHICS_OK bit is set, but there is no graphics record.
      327    17906             MESSAGE2: Modifying this profile will automatically create the
      328    17907                        necessary default graphics record.
      329    17908        */
      330    17909        /********************************************************************/
      331    17910        /*   Auto data       auto data       auto data       auto data      */
      332    17911        /********************************************************************/
      333    17912    1   DCL NEXT_TAB SBIN;
PL6.E3A0      #001=ASL$DISP_ONE_PROFILE File=ASL$L_PRO.:E05TSI                   TUE 07/29/97 10:26 Page:10
      334    17913    1   DCL SBINS(0:55) SBIN;
      335    17914    1   DCL 1 SBINS_2(0:55) REDEF SBINS,
      336    17915    1          2 * BIT(34),
      337    17916    1          2 TWO BIT(2) ;
      338    17917    1   DCL 1 SBINS_4(0:55) REDEF SBINS,
      339    17918    1          2 * BIT(32),
      340    17919    1          2 FOUR BIT(4) ;
      341    17920    1   DCL 1 SBINS_6(0:55) REDEF SBINS,
      342    17921    1          2 * BIT(30),
      343    17922    1          2 SIX BIT(6) ;
      344    17923    1   DCL SBIN_IDX SBIN;
      345    17924    1   DCL HDR_LEN SBIN;
      346    17925    1   DCL ST_IDX SBIN;
      347    17926    1   DCL NXT_IDX SBIN;
      348    17927    1   DCL FIELDS SBIN;
      349    17928    1   DCL BOG BIT(1) ALIGNED;
      350    17929    1   DCL BOGU REDEF BOG UBIN(1) ALIGNED;
      351    17930    1   DCL LEN SBIN;
      352    17931    1   DCL LEN2 UBIN ;
      353    17932    1   DCL NEW_CHR CHAR(1) ALIGNED ;
      354    17933    1   DCL TEMP_BUF CHAR(24) ALIGNED ;
      355    17934    1   DCL TEMP_STR CHAR(10) ;
      356    17935    1   DCL ONE_CHAR_STR CHAR(1) ;
      357    17936    1   DCL PP$ PTR ;
      358    17937    1   DCL PP_END$ PTR ;
      359    17938    1   DCL P_TYPE UBIN WORD ;
      360    17939    1   DCL PP_TYPE UBIN WORD ;
      361    17940    1   DCL PP_SIZE UBIN WORD ;
      362    17941    1   DCL ARS UBIN;
      363    17942    1   DCL G_ARS UBIN;
      364    17943    1   DCL GR_FLAG BIT(1) STATIC ;
      365    17944    1   DCL GRA_BUF STATIC CHAR(1024 /* AS_PRO_BUF_SIZEC */) INIT(' ');
      366    17945    1   DCL MORE BIT(1) ALIGNED;
      367    17946    1   DCL ND$ PTR;
      368    17947    1   DCL I UBIN;
      369    17948    1   DCL J UBIN WORD ;
      370    17949    1   DCL K UBIN WORD ;
PL6.E3A0      #001=ASL$DISP_ONE_PROFILE File=ASL$L_PRO.:E05TSI                   TUE 07/29/97 10:26 Page:11
      371    17950    1   DCL DO_GRAPHIC BIT (1) ALIGNED;
      372    17951    1   DCL GR_ESC_IDX UBIN WORD ;
      373    17952    1   DCL GR_FPRG_IDX UBIN WORD;
      374    17953    1   DCL PHDR$ PTR ;
      375    17954    1   DCL GRA$ PTR ;
      376    17955    1   DCL SPLIT$ PTR ;
      377    17956    1   DCL PRO_TYP BIT(9) ALIGNED SYMDEF STATIC; /* To make .X tool work */
      378    17957    1   DCL UHEX_NUM UBIN WORD ;
      379    17958    1   DCL HEX_NUM(0:8) REDEF UHEX_NUM UBIN(4) UNAL ;
      380    17959    1   DCL HEX_BUF CHAR(4) ;
      381    17960    1   DCL RHEX_BUF(0:3) REDEF HEX_BUF CHAR(1) ;
      382    17961    1   DCL ADDRESS(0:13) CHAR(1);
      383    17962    1   DCL NINE_BIT BIT(9) ;
      384    17963    1   DCL PTR$ PTR ;
      385    17964        %EJECT ;
PL6.E3A0      #001=ASL$DISP_ONE_PROFILE File=ASL$L_PRO.:E05TSI                   TUE 07/29/97 10:26 Page:12
      386    17965        /********************************************************************/
      387    17966        /*   Procedure       procedure       procedure       procedure      */
      388    17967        /********************************************************************/
      389    17968    1   PP_END$ = PINCRC( DSEG1$, P_ARS ) ;
      390    17969    1   PP$ = PINCRW( DSEG1$, SIZEW( PRO_HDR ) ) ;
      391    17970                                                /*  Find all vlps.                    */
      392    17971    2   DO WHILE ( PP$ < PP_END$ ) ;
      393    17972    3      IF PP$STRCT.TYPE = %KV_PRMID_BIGTL THEN DO;
      394    17973    3         PP_TYPE = PP$BIG_STRCT.TYPE;
      395    17974    3         PP_SIZE = PP$BIG_STRCT.SIZE.T * 256 + PP$BIG_STRCT.SIZE.B;
      396    17975    3         PP$ = PINCRC ( PP$, 4 );
      397    17976    3         END;   /*  Bigtl  */
      398    17977    3      ELSE DO;
      399    17978    3         PP_TYPE = PP$STRCT.TYPE ;
      400    17979    3         PP_SIZE = PP$STRCT.SIZE ;
      401    17980    3         PP$ = PINCRC( PP$, 2 ) ;
      402    17981    3         END;   /*  Regular type  */
      403    17982                                                /**/
      404    17983    3      DO SELECT( PP_TYPE ) ;
      405    17984                                                /**/
      406    17985    3         SELECT( %KV_PRMID_PROFILE  /* Pname */) ;
      407    17986    3         PNM$ = PP$ ;
      408    17987                                                /**/
      409    17988    3         SELECT( %KV_PRMID_TRMCTL  /* Term control */ ) ;
      410    17989    3         TCTL$ = PP$ ;
      411    17990                                                /**/
      412    17991    3         SELECT( %KV_PRMID_TRMATTR  /* Term attr */ ) ;
      413    17992    3         TATR$ = PP$ ;
      414    17993                                                /**/
      415    17994    3         SELECT( %KV_PRMID_PLATEN  /* Platen */ ) ;
      416    17995    3         PLTN$ = PP$ ;
      417    17996                                                /**/
      418    17997    3         SELECT( %KV_PRMID_TRMTAB  /* Device tabs */ ) ;
      419    17998    3         DTABS$ = PP$ ;
      420    17999                                                /**/
      421    18000    3         SELECT( %KV_PRMID_CTRCHR  /* Control char. */ ) ;
      422    18001    3         TCCHR$ = PP$ ;
PL6.E3A0      #001=ASL$DISP_ONE_PROFILE File=ASL$L_PRO.:E05TSI                   TUE 07/29/97 10:26 Page:13
      423    18002                                                /**/
      424    18003    3         SELECT( %KL_PRMID_TRMD  ) ;
      425    18004    3         TRMD$ = PP$ ;
      426    18005                                                /**/
      427    18006    3         SELECT (%KV_PRMID_KEYDEFS) ;
      428    18007    3         FUNKEY$ = PP$;
      429    18008
      430    18009    3         SELECT (%KV_PRMID_SETUP_CHR) ;
      431    18010    3         SETUP_CHR$ = PINCRC (PP$, -2);
      432    18011
      433    18012    3         SELECT( %KL_PRMID_LINK  ) ;
      434    18013    3         LINK$ = PP$ ;
      435    18014
      436    18015    3         SELECT( %KL_PRMID_VIRCIR  ) ;
      437    18016    3         VIRCIR$ = PP$ ;
      438    18017
      439    18018    3         SELECT( %KV_PRMID_3270   /* 3270 */ );
      440    18019    3         KL_3270$ = PP$;
      441    18020
      442    18021    3         SELECT( %KV_PRMID_ABSGRPRND  /* Absgrprnd */ );
      443    18022    3         ABSGRPRND$(PP$->KL$ABSGRPRND.ID#) = PP$;
      444    18023
      445    18024    3         END ;                       /*  Do case                           */
      446    18025                                                /**/
      447    18026    2      I = PP_SIZE + (MOD (PP_SIZE, 2)) ;
      448    18027    2      PP$ = PINCRC ( PP$, I ) ;
      449    18028                                                /**/
      450    18029    2      END ;                        /*  Do while                          */
      451    18030                                                /**/
      452    18031                                                /* Set up profile name                */
      453    18032    1   TEMP_STR = ' ';
      454    18033    2   IF JCL THEN DO;
      455    18034    2      FMT_BUF = PRO_JCL_FMT;
      456    18035    2      FDS.FMT_.BOUND = SIZEC (PRO_JCL_FMT);
      457    18036    2      FDS.NVECS# = 2;
      458    18037    2      FMT_VEC ( 0 ) = VECTOR ( SUBSTR (USERS_KEY.TXTC,0,USERS_KEY.COUNT) ) ;
      459    18038    2      FMT_VEC ( 1 ) = VECTOR ( TEMP_STR );
PL6.E3A0      #001=ASL$DISP_ONE_PROFILE File=ASL$L_PRO.:E05TSI                   TUE 07/29/97 10:26 Page:14
      460    18039    2      END;   /*  Jcl  */
      461    18040    2   ELSE DO;
      462    18041    2      OUT_BUF = ADDR(USERS_KEY) -> TEXT$C.C ;
      463    18042    2      CALL INDEX(LEN,' ',OUT_BUF) ;
      464    18043    2      END;  /* Not jcl  */
      465    18044    1   IF PRO_FLAGS ~= '0'B
      466    18045    1   THEN                           /* List with options.                 */
      467    18046    2   DO ;
      468    18047    3      DO SELECT( DSEG1$ -> PRO$HDR.TTYP ) ;
      469    18048    3         SELECT(%KLTY_TTY#) ;
      470    18049    3         LEN2 = LENGTHC(ASYNC_STR) ;
      471    18050    3         TEMP_STR = ASYNC_STR ;
      472    18051    3         SELECT(%KLTY_SDEV#) ;
      473    18052    3         LEN2 = LENGTHC(RBTD_STR) ;
      474    18053    3         TEMP_STR = RBTD_STR ;
      475    18054    3         SELECT(%KLTY_STRM#) ;
      476    18055    3         LEN2 = LENGTHC(RBT_STR) ;
      477    18056    3         TEMP_STR = RBT_STR ;
      478    18057    3         SELECT( %KLTY_LINK# );
      479    18058    3         LEN2 = LENGTHC(LINK_STR);
      480    18059    3         TEMP_STR = LINK_STR;
      481    18060
      482    18061    3         SELECT( %KLTY_VIRCIR#);
      483    18062    3         LEN2 = LENGTHC(VIRCIR_STR);
      484    18063    3         TEMP_STR = VIRCIR_STR;
      485    18064    3         SELECT( %KLTY_URP# );
      486    18065    3         LEN2 = LENGTHC(URP_STR);
      487    18066    3         TEMP_STR = URP_STR;
      488    18067    3         SELECT( %KLTY_LINEDEV# );
      489    18068    3         LEN2 = LENGTHC(P3270_STR);
      490    18069    3         TEMP_STR = P3270_STR;
      491    18070    3         SELECT( %KLTY_HIP_DEV# );
      492    18071    3         LEN2 = LENGTHC(POLLVIP_STR);
      493    18072    3         TEMP_STR = POLLVIP_STR;
      494    18073    3         END ;                       /* Do case                            */
      495    18074    2      IF JCL THEN
      496    18075    2         CALL X$FORMAT (FDS) ;
PL6.E3A0      #001=ASL$DISP_ONE_PROFILE File=ASL$L_PRO.:E05TSI                   TUE 07/29/97 10:26 Page:15
      497    18076    3      ELSE DO;
      498    18077    3         CALL INSERT(OUT_BUF,LEN+10,LEN2+7,'Type = ',TEMP_STR) ;
      499    18078    3         LEN = LEN + 17 + LEN2 ;
      500    18079    3         CALL ASB$WRITE_LO(OUT_BUF,LEN) ;
      501    18080    3         END;   /*  Not jcl  */
      502    18081    2      END ;                       /* Then do                            */
      503    18082    1   ELSE
      504    18083                                                /* List with no options.              */
      505    18084    2   DO ;
      506    18085    2      IF LIST_ACCT_FLG = '0'B
      507    18086    2      THEN                        /* First time thru.                   */
      508    18087    3      DO ;
      509    18088    3         FRST_CHR = OUT_BUF ;
      510    18089    3         LIST_ACCT_FLG = '1'B ;
      511    18090    3         END ;                    /* Then do                            */
      512    18091    2      NEW_CHR = OUT_BUF ;
      513    18092    2      TEMP_BUF = SUBSTR(OUT_BUF,0,LEN) ;
      514    18093    2      IF NEW_CHR ~= FRST_CHR
      515    18094    2      THEN                        /* Output old, start anew.            */
      516    18095    3      DO ;
      517    18096    3         CALL X$FORMAT(FDS) ;
      518    18097    3         CALL ASB$WRITE_LO(' ',1) ; /* Blank line                        */
      519    18098    3         FDS.NVECS# = 0 ;
      520    18099    3         FRST_CHR = NEW_CHR ;
      521    18100    3         END ;                    /* Then do                            */
      522    18101    2      IF (FDS.NVECS#+1)*LENGTHC(ACCT_ARRY(0)) > LO_WIDTH
      523    18102    2      THEN                        /* Buffer already full. Flush.        */
      524    18103    3      DO ;
      525    18104    3         CALL X$FORMAT(FDS) ;
      526    18105    3         FDS.NVECS# = 0 ;
      527    18106    3         END ;                    /* Then do                            */
      528    18107                                                /* Move next entry                    */
      529    18108    2      ACCT_ARRY(FDS.NVECS#) = TEMP_BUF ;
      530    18109    2      FMT_VEC(FDS.NVECS#) = VECTOR(ACCT_ARRY(FDS.NVECS#)) ;
      531    18110    2      CALL INSERT(FMT_BUF,FDS.NVECS#*2,2,'%A') ;
      532    18111    2      FDS.NVECS# = FDS.NVECS# + 1 ;
      533    18112    2      FDS.FMT_.BOUND = FDS.NVECS#*2-1 ;
PL6.E3A0      #001=ASL$DISP_ONE_PROFILE File=ASL$L_PRO.:E05TSI                   TUE 07/29/97 10:26 Page:16
      534    18113    2      RETURN ;
      535    18114    2      END ;                       /* Else do                            */
      536    18115    1   ST_IDX = 0 ;
      537    18116        /***
      538    18117         ***  Report the easy fields.
      539    18118         ***/
      540    18119    2   DO K = 0 TO 280 /* L_PRO_END */;
      541    18120    2      IF (ASL_PRO_OPT_TBL.ORDR (K) = 242 /* L_GR_ESCAPE */)
      542    18121    2      THEN GR_ESC_IDX = K;
      543    18122    2      IF (ASL_PRO_OPT_TBL.ORDR (K) = 219 /* L_GR_FPRG */)
      544    18123    2      THEN GR_FPRG_IDX = K;
      545    18124    2      END;
      546    18125
      547    18126    2   IF JCL THEN DO;
      548    18127    2      IF DSEG1$->PRO$HDR.DDEV.GRAPHICS_OK
      549    18128    3      THEN DO;
      550    18129    3         CALL ASD$GR_READ_PRO( USERS_KEY, GRA_BUF, G_ARS)
      551    18130    4         WHENALTRETURN DO;
      552    18131    4            CALL ASH$ERROR( E_NOGRAFND ) ;
      553    18132    4            RETURN;
      554    18133    4            END;  /*  Whenaltret from ASD$GR_READ_PRO  */
      555    18134    3         GRA$ = ADDR( GRA_BUF ) ;
      556    18135    3         END;  /*  Get graphics record  */
      557    18136    2      CALL BUILD_JCL_FMT;
      558    18137    2      END;   /*  Jcl  */
      559    18138    2   ELSE DO;
      560    18139    3      DO WHILE (ST_IDX <= GR_FPRG_IDX) ;
      561    18140    3         FIELDS = 0 ;
      562    18141    3         CALL BUILD_HDR(HDR_LEN, GR_FPRG_IDX + 1); /* BUILD_HDR stops 1 early */
      563    18142    3         IF FIELDS > 0
      564    18143    4         THEN DO;                 /* Some hdr was built. */
      565    18144    4            CALL ASB$WRITE_LO(' ',1) ;
      566    18145    4            CALL ASB$WRITE_LO(OUT_BUF,HDR_LEN) ; /* Put out hdr. */
      567    18146    4            CALL LIST_FIELDS ;
      568    18147    4            END ;                 /* Then do */
      569    18148    3         ST_IDX = NXT_IDX ;
      570    18149    3         END ; /* Do while */
PL6.E3A0      #001=ASL$DISP_ONE_PROFILE File=ASL$L_PRO.:E05TSI                   TUE 07/29/97 10:26 Page:17
      571    18150
      572    18151        /***
      573    18152         ***       Report the graphics fields.
      574    18153         ***/
      575    18154    2      DO_GRAPHIC = '0'B;
      576    18155    3   GRAPHIC_CK: DO K = ST_IDX TO 280 /* L_PRO_END */ - 2;
      577    18156    3         IF PRO_FLAGS (K)
      578    18157    4         THEN DO;
      579    18158    4            DO_GRAPHIC = '1'B;
      580    18159    4            K = 280 /* L_PRO_END */;
      581    18160    4            EXIT GRAPHIC_CK;
      582    18161    4            END;
      583    18162    3         END GRAPHIC_CK;
      584    18163    2      IF DO_GRAPHIC
      585    18164    3      THEN DO;
      586    18165    3         IF DSEG1$->PRO$HDR.DDEV.GRAPHICS_OK
      587    18166    4         THEN DO;
      588    18167    4            CALL ASD$GR_READ_PRO( USERS_KEY, GRA_BUF, G_ARS) ALTRET(GRA_ERR) ;
      589    18168    4            GRA$ = ADDR( GRA_BUF ) ;
      590    18169    5            DO WHILE ( ST_IDX < 280 /* L_PRO_END */ ) ;
      591    18170    5               IF (ST_IDX ~= GR_ESC_IDX)
      592    18171    6               THEN DO;
      593    18172    6                  FIELDS = 0 ;
      594    18173    6                  CALL BUILD_HDR ( HDR_LEN, 280 /* L_PRO_END */-1 ) ;
      595    18174    6                  IF FIELDS > 0
      596    18175    7                  THEN DO;
      597    18176    7                     CALL ASB$WRITE_LO( ' ',1 );
      598    18177    7                     CALL ASB$WRITE_LO( OUT_BUF, HDR_LEN );
      599    18178    7                     CALL LIST_FIELDS ;
      600    18179    7                     END ;
      601    18180    6                  ST_IDX = NXT_IDX ;
      602    18181    6                  END ;
      603    18182    6               ELSE DO;
      604    18183    6                  CALL LIST_GR_ESCAPES;
      605    18184    6                  ST_IDX = NXT_IDX ;
      606    18185    6                  END;
      607    18186    5               END;
PL6.E3A0      #001=ASL$DISP_ONE_PROFILE File=ASL$L_PRO.:E05TSI                   TUE 07/29/97 10:26 Page:18
      608    18187    4            END ;
      609    18188    4         ELSE DO;
      610    18189    4            IF GR_FLAG = '0'B
      611    18190    5            THEN DO;
      612    18191    6               DO I = GR_FPRG_IDX+1 TO 280 /* L_PRO_END */-1 ;
      613    18192    6                  IF (PRO_FLAGS (I) AND
      614    18193    6                       (I ~= 279 /* L_FUNCTION_KEY */) )
      615    18194    7                  THEN DO;
      616    18195    7                     I = 280 /* L_PRO_END */ ;
      617    18196    7                     CALL ASH$ERROR( E_NOGRAREC ) ;
      618    18197    7                     END ;
      619    18198    6                  END ;
      620    18199    5               END;
      621    18200    4            END;
      622    18201    3         END; /* If DO_GRAPHIC */
      623    18202    3      DO WHILE ('0'B);
      624    18203    3   GRA_ERR: ;
      625    18204    3         CALL ASH$ERROR( E_NOGRAFND ) ;
      626    18205    3         END ;
      627    18206
      628    18207                                                /* Done with this profile.            */
      629    18208    2      CALL ASB$WRITE_LO(' ',1) ;   /* Blank line.*/
      630    18209    2      IF (PRO_FLAGS (279 /* L_FUNCTION_KEY */))
      631    18210    3      THEN DO;
      632    18211    3         CALL LIST_FUNKEY_DEFS;
      633    18212    3         CALL ASB$WRITE_LO(' ',1) ;   /* Blank line.*/
      634    18213    3         END;
      635    18214    2      CALL ASB$WRITE_LO(' ',1) ;   /* Blank line.                        */
      636    18215    2      CALL ASB$PAGE_LO ;           /* Page eject.                        */
      637    18216    2      END; /*  Not jcl  */
      638    18217    1   RETURN ;
      639    18218        %EJECT ;
PL6.E3A0      #001=ASL$DISP_ONE_PROFILE File=ASL$L_PRO.:E05TSI                   TUE 07/29/97 10:26 Page:19
      640    18219    1   ASL$LIST_PRO_OPTS: ENTRY (P_ARS,JCL);
      641    18220        /********************************************************************/
      642    18221        /*   Procedure       procedure       procedure       procedure      */
      643    18222        /********************************************************************/
      644    18223    1   PHDR$ = DSEG1$ ;
      645    18224    1   CODE = PHDR$ -> PRO$HDR.TTYP ;
      646    18225    2   DO SELECT( CODE ) ;
      647    18226    2      SELECT(%KLTY_TTY#) ;
      648    18227    2      PRO_TYP = ASL_ASYNC_TYP ;
      649    18228    2      SELECT(%KLTY_SDEV#) ;
      650    18229    2      PRO_TYP = ASL_RBTD_TYP ;
      651    18230    2      SELECT(%KLTY_STRM#) ;
      652    18231    2      PRO_TYP = ASL_RBT_TYP ;
      653    18232    2      SELECT( %KLTY_LINK# );
      654    18233    2      PRO_TYP = ASL_LINK_TYP ;
      655    18234
      656    18235    2      SELECT( %KLTY_VIRCIR# );
      657    18236    2      PRO_TYP = ASL_VIRCIR_TYP ;
      658    18237    2      SELECT(%KLTY_URP#);
      659    18238    2      PRO_TYP = ASL_URP_TYP ;
      660    18239    2      SELECT(%KLTY_LINEDEV#);
      661    18240    2      PRO_TYP = ASL_3270_TYP;
      662    18241    2      SELECT(%KLTY_HIP_DEV#);
      663    18242    2      PRO_TYP = ASL_POLLVIP_TYP;
      664    18243    2      END ;                          /* Do case                            */
      665    18244    1   GR_FLAG = '0'B ;
      666    18245    1   PRO_FLAGS = '0'B;
      667    18246    1   MORE = '1'B;
      668    18247    1   REMEMBER LIST1 IN REMEM_VAR ;
      669    18248    1   IF JCL THEN GOTO DO_ALL;
      670    18249    1   LIST1: P_PCB.ROOT$ = ADDR(LIST_PRO_S_OPT);
      671    18250    2   DO WHILE(MORE);
      672    18251                                                /*  Set prompt                        */
      673    18252    2      CALL ASB$SET_PROMPT ( %PROMPT_OPT ) ;
      674    18253    2      CALL ASB$READ_SI(IN_BUF,ARS);
      675    18254    2      P_PCB.NCHARS = ARS;
      676    18255    2      CALL X$PARSE(P_PCB) ALTRET(PARSE_ALT);
PL6.E3A0      #001=ASL$DISP_ONE_PROFILE File=ASL$L_PRO.:E05TSI                   TUE 07/29/97 10:26 Page:20
      677    18256    2      NODE$ = P_PCB.OUT$ ;
      678    18257    3      DO SELECT(P$B.SUBLK$(0)->P$B.CODE);
      679    18258    3         SELECT(26   /*  BLANK_LINE_VAL */);
      680    18259    3         MORE = '0'B;
      681    18260    3         SELECT(31 /* LIST_PRO_OPTIONS */);
      682    18261    3         I = 0;
      683    18262    4         DO WHILE(MORE AND I<P$B.SUBLK$(0)->P$B.NSUBLKS);
      684    18263    4            ND$ = P$B.SUBLK$(0)->P$B.SUBLK$(I);
      685    18264    5            DO SELECT(ND$->P$B.CODE);
      686    18265    5               SELECT( 281 /* L_PRO_ALL */ ) ;
      687    18266    5   DO_ALL:
      688    18267    5               GR_FLAG = '1'B ;
      689    18268    6               DO J = 0 TO 280 /* L_PRO_END */ ;
      690    18269    6                  IF PRO_TYP = (ASL_PRO_OPT_TBL.TYP(J) & PRO_TYP)
      691    18270    6                  THEN
      692    18271    6                     PRO_FLAGS(J) = '1'B ;
      693    18272    6                  END ;            /* Do j                               */
      694    18273    5               MORE = '0'B ;
      695    18274    5               SELECT( 280 /* L_PRO_END */ ) ;
      696    18275    5               MORE = '0'B ;
      697    18276    5               SELECT( ELSE ) ;
      698    18277    5            IF PRO_TYP = (ASL_PRO_OPT_TBL.TYP(ND$->P$B.CODE) & PRO_TYP)
      699    18278    5            THEN
      700    18279    5               PRO_FLAGS(ND$->P$B.CODE) = '1'B ;
      701    18280    5            ELSE
      702    18281    5               CALL ASH$ERROR( E_BADLSTPROOPT ) ;
      703    18282    5               END ;                 /* Do case                            */
      704    18283    4         I = I + 1 ;
      705    18284    4            END ;                  /* Do while                           */
      706    18285    3         SELECT( 302 /* HELP_VAL */ );
      707    18286    3         CALL ASH$HELP;
      708    18287    3         SELECT( 301 /* QUESTION_VAL */ );
      709    18288    3         CALL ASH$QUEST;
      710    18289    3         SELECT( 300 /* DQUESTION_VAL */ );
      711    18290    3         CALL ASH$DQUEST;
      712    18291    3         END ;                       /* Do case                            */
      713    18292    3      DO WHILE('0'B) ;
PL6.E3A0      #001=ASL$DISP_ONE_PROFILE File=ASL$L_PRO.:E05TSI                   TUE 07/29/97 10:26 Page:21
      714    18293    3   PARSE_ALT: ;
      715    18294    3         CALL ASH$ERROR( P_PCB.ERROR );
      716    18295    3         END ;                     /* Do while                           */
      717    18296    2      END ;                        /* Do while                           */
      718    18297    1   IF JCL AND NOT PHDR$->PRO$HDR.DDEV.GRAPHICS_OK THEN
      719    18298    2   DO I = (219 /* L_GR_FPRG */+1) TO (279 /* L_FUNCTION_KEY */-1);
      720    18299    2      PRO_FLAGS(I) = %NO#;
      721    18300    2      END;  /*  Do i  */
      722    18301                                                /**/
      723    18302    1   RETURN ;
      724    18303        %EJECT ;
PL6.E3A0      #001=ASL$DISP_ONE_PROFILE File=ASL$L_PRO.:E05TSI                   TUE 07/29/97 10:26 Page:22
      725    18304    1   BUILD_HDR: PROC(HDR_LEN, CMP_CNT) ;
      726    18305    2   DCL HDR_LEN SBIN ;
      727    18306    2   DCL CMP_CNT SBIN ;
      728    18307    2   DCL CUR_IDX SBIN ;
      729    18308    2   DCL MORE BIT(1) ALIGNED ;
      730    18309    2   DCL NEXT UBIN WORD ;
      731    18310    2   CUR_IDX = ST_IDX ;
      732    18311    2   CALL INSERT(OUT_BUF,0,3,' ') ;
      733    18312    2   HDR_LEN = 3 ;
      734    18313    2   MORE = '1'B ;
      735    18314    3   DO WHILE(MORE) ;
      736    18315    3      NEXT = ASL_PRO_OPT_TBL.ORDR( CUR_IDX ) ;
      737    18316    4      DO WHILE ((NEXT < CMP_CNT) AND
      738    18317    4           ((~ PRO_FLAGS (NEXT)) OR
      739    18318    4           (ASL_PRO_OPT_TBL.LEN (NEXT) = 0)));
      740    18319    4         CUR_IDX = CUR_IDX + 1 ;
      741    18320    4         NEXT = ASL_PRO_OPT_TBL.ORDR(CUR_IDX) ;
      742    18321    4         END ;                     /* Do while                           */
      743    18322    3      IF (CUR_IDX = GR_ESC_IDX)
      744    18323    4      THEN DO;
      745    18324    4         NXT_IDX = CUR_IDX;
      746    18325    4         RETURN;
      747    18326    4         END;
      748    18327    3      IF NEXT < CMP_CNT
      749    18328    3      THEN
      750    18329    4      DO ;
      751    18330    4         IF (HDR_LEN + ASL_PRO_OPT_TBL.LEN(NEXT)) <= LO_WIDTH
      752    18331    4              OR HDR_LEN = 3
      753    18332    4         THEN
      754    18333    5         DO ;
      755    18334    5            CALL INSERT(OUT_BUF,HDR_LEN,ASL_PRO_OPT_TBL.LEN(NEXT),
      756    18335    5                 ASL_PRO_OPT_TBL.HDR(NEXT)) ;
      757    18336    5            HDR_LEN = HDR_LEN + ASL_PRO_OPT_TBL.LEN(NEXT) ;
      758    18337    5            FIELDS = FIELDS + 1 ;
      759    18338    5            CUR_IDX = CUR_IDX + 1 ;
      760    18339    5            END ;                 /* Then do                            */
      761    18340    4         ELSE
PL6.E3A0      #001=ASL$DISP_ONE_PROFILE File=ASL$L_PRO.:E05TSI                   TUE 07/29/97 10:26 Page:23
      762    18341    4            MORE = '0'B ;
      763    18342    4         END ;                    /* Then do                            */
      764    18343    3      ELSE
      765    18344    3         MORE = '0'B ;
      766    18345    3      END ;                        /* Do while                           */
      767    18346    2   IF NEXT = 280 /* L_PRO_END */ - 1
      768    18347    2   THEN NXT_IDX = CUR_IDX + 1 ;
      769    18348    2   ELSE NXT_IDX = CUR_IDX ;
      770    18349    2   RETURN ;
      771    18350    2   END   BUILD_HDR ;
      772    18351        %EJECT ;
PL6.E3A0      #001=ASL$DISP_ONE_PROFILE File=ASL$L_PRO.:E05TSI                   TUE 07/29/97 10:26 Page:24
      773    18352    1   LIST_FIELDS: PROC ;
      774    18353    2   DCL J SBIN ;
      775    18354    2   DCL CUR_IDX SBIN ;
      776    18355    2   DCL NEXT UBIN WORD ;
      777    18356
      778    18357    2   FDS.BUF_.BOUND = LO_WIDTH - 1;
      779    18358    2   FMT_VEC(0) = VECTOR(BLANK_BUF) ;
      780    18359    2   FDS.NVECS# = 1 ;
      781    18360    2   CALL INSERT(FMT_BUF,0,2,'%A') ;
      782    18361    2   FDS.FMT_.BOUND = 1 ;
      783    18362    2   NEXT_TAB = 5 ;
      784    18363    2   SBIN_IDX = 0 ;
      785    18364    2   CUR_IDX = ST_IDX ;
      786    18365    3   DO J = 1 TO FIELDS ;
      787    18366    3      NEXT = ASL_PRO_OPT_TBL.ORDR(CUR_IDX) ;
      788    18367    4      DO WHILE(~PRO_FLAGS(NEXT) OR ASL_PRO_OPT_TBL.LEN(NEXT)=0) ;
      789    18368    4         CUR_IDX = CUR_IDX + 1 ;
      790    18369    4         NEXT = ASL_PRO_OPT_TBL.ORDR(CUR_IDX) ;
      791    18370    4         END ;                     /* Do while                           */
      792    18371    3      SBINS(SBIN_IDX) = NEXT_TAB ;
      793    18372    3      FMT_VEC(FDS.NVECS#) = VECTOR(SBINS(SBIN_IDX)) ;
      794    18373                                                /* Next tab stop.                     */
      795    18374    3      SBIN_IDX = SBIN_IDX + 1 ;
      796    18375    3      FDS.NVECS# = FDS.NVECS# + 1 ;
      797    18376    3      CALL INSERT(FMT_BUF,FDS.FMT_.BOUND+1,3,'%N-') ; /* Tab over.       */
      798    18377    3      FDS.FMT_.BOUND = FDS.FMT_.BOUND + 3 ;
      799    18378    3      CALL INSERT_FIELD ;
      800    18379    3      NEXT_TAB = NEXT_TAB + ASL_PRO_OPT_TBL.LEN(NEXT) ;
      801    18380    3      CUR_IDX = CUR_IDX + 1 ;
      802    18381    3      END ;                        /* Do j                               */
      803    18382    2   CALL X$FORMAT(FDS) ;
      804    18383    2   FDS.NVECS# = 0 ;
      805    18384    2   FDS.BUF_.BOUND = LENGTHC (OUT_BUF);
      806    18385
      807    18386    2   RETURN ;
      808    18387        %EJECT ;
PL6.E3A0      #001=ASL$DISP_ONE_PROFILE File=ASL$L_PRO.:E05TSI                   TUE 07/29/97 10:26 Page:25
      809    18388    2   INSERT_FIELD: PROC ;
      810    18389    3   DCL VDH_ALG_TYPE UBIN WORD;
      811    18390    3   DCL CLASS SBIN ;
      812    18391    3   DCL I UBIN ;
      813    18392    3   DCL J UBIN ;
      814    18393    3   DCL YES_NO BIT(1) ALIGNED ;
      815    18394    3   DCL SVAL SBIN ;
      816    18395    3   DCL NEXT UBIN WORD ;
      817    18396    3   DCL INT9 UBIN BYTE UNAL BASED ;
      818    18397    3   DCL ABYTE UBIN BYTE CALIGNED BASED;
      819    18398
      820    18399    3   CLASS = 0;
      821    18400    3   NEXT = ASL_PRO_OPT_TBL.ORDR(CUR_IDX) ;
      822    18401    4   DO SELECT(NEXT) ;
      823    18402
      824    18403    4      SELECT(0 /* ACTONTRN */) ;
      825    18404    4      IF TCTL$ -> VLP$TRMCTRL.ACTONTRN# = '01'B
      826    18405    5      THEN DO;
      827    18406    5         FMT_VEC(FDS.NVECS#)=VECTOR(DC_STR);
      828    18407    5         CLASS=1 /* C_TEXT */;
      829    18408    5         END;
      830    18409    5      ELSE DO;
      831    18410    5         YES_NO=TCTL$->VLP$TRMCTRL.ACTONTRN#;
      832    18411    5         CLASS=2 /* C_YESNO */;
      833    18412    5         END;
      834    18413
      835    18414    4      SELECT(1 /* APL */) ;
      836    18415    4      IF TATR$ -> VLP$TRMATTR.APL# = '01'B
      837    18416    5      THEN DO;
      838    18417    5         FMT_VEC(FDS.NVECS#)=VECTOR(DC_STR);
      839    18418    5         CLASS=1 /* C_TEXT */;
      840    18419    5         END;
      841    18420    5      ELSE DO;
      842    18421    5         YES_NO=TATR$->VLP$TRMATTR.APL#;
      843    18422    5         CLASS=2 /* C_YESNO */;
      844    18423    5         END;
      845    18424
PL6.E3A0      #001=ASL$DISP_ONE_PROFILE File=ASL$L_PRO.:E05TSI                   TUE 07/29/97 10:26 Page:26
      846    18425    4      SELECT(2 /* APLLCNRM */) ;
      847    18426    4      IF TCTL$ -> VLP$TRMCTRL.APLLCNRM# = '01'B
      848    18427    5      THEN DO;
      849    18428    5         FMT_VEC(FDS.NVECS#)=VECTOR(DC_STR);
      850    18429    5         CLASS=1 /* C_TEXT */;
      851    18430    5         END;
      852    18431    5      ELSE DO;
      853    18432    5         YES_NO=TCTL$->VLP$TRMCTRL.APLLCNRM#;
      854    18433    5         CLASS=2 /* C_YESNO */;
      855    18434    5         END;
      856    18435
      857    18436    4      SELECT(3 /* AUTONL */) ;
      858    18437    4      IF TATR$ -> VLP$TRMATTR.AUTONL# = '01'B
      859    18438    5      THEN DO;
      860    18439    5         FMT_VEC(FDS.NVECS#)=VECTOR(DC_STR);
      861    18440    5         CLASS=1 /* C_TEXT */;
      862    18441    5         END;
      863    18442    5      ELSE DO;
      864    18443    5         YES_NO=TATR$->VLP$TRMATTR.AUTONL#;
      865    18444    5         CLASS=2 /* C_YESNO */;
      866    18445    5         END;
      867    18446
      868    18447    4      SELECT(4 /* BIN */) ;
      869    18448    4      IF TATR$ -> VLP$TRMATTR.BIN# = '01'B
      870    18449    5      THEN DO;
      871    18450    5         FMT_VEC(FDS.NVECS#)=VECTOR(DC_STR);
      872    18451    5         CLASS=1 /* C_TEXT */;
      873    18452    5         END;
      874    18453    5      ELSE DO;
      875    18454    5         YES_NO=TATR$->VLP$TRMATTR.BIN#;
      876    18455    5         CLASS=2 /* C_YESNO */;
      877    18456    5         END;
      878    18457
      879    18458    4      SELECT(5 /* BLANKERASES */) ;
      880    18459    4      IF TATR$ -> VLP$TRMATTR.BLANKERASES# = '01'B
      881    18460    5      THEN DO;
      882    18461    5         FMT_VEC(FDS.NVECS#)=VECTOR(DC_STR);
PL6.E3A0      #001=ASL$DISP_ONE_PROFILE File=ASL$L_PRO.:E05TSI                   TUE 07/29/97 10:26 Page:27
      883    18462    5         CLASS=1 /* C_TEXT */;
      884    18463    5         END;
      885    18464    5      ELSE DO;
      886    18465    5         YES_NO=TATR$->VLP$TRMATTR.BLANKERASES#;
      887    18466    5         CLASS=2 /* C_YESNO */;
      888    18467    5         END;
      889    18468
      890    18469    4      SELECT(6 /* CRISNL */) ;
      891    18470    4      IF TATR$ -> VLP$TRMATTR.CRISNL# = '01'B
      892    18471    5      THEN DO;
      893    18472    5         FMT_VEC(FDS.NVECS#)=VECTOR(DC_STR);
      894    18473    5         CLASS=1 /* C_TEXT */;
      895    18474    5         END;
      896    18475    5      ELSE DO;
      897    18476    5         YES_NO=TATR$->VLP$TRMATTR.CRISNL#;
      898    18477    5         CLASS=2 /* C_YESNO */;
      899    18478    5         END;
      900    18479
      901    18480    4      SELECT(7 /* CUP_CLMFRS */) ;
      902    18481    4      YES_NO = TCCHR$ -> KL$CCHR.CUP_CLMFRS ;
      903    18482    4      CLASS = 2 /* C_YESNO */ ;
      904    18483
      905    18484    4      SELECT(8 /* CUP_CMP */) ;
      906    18485    4      YES_NO = TCCHR$ -> KL$CCHR.CUP_CMP ;
      907    18486    4      CLASS = 2 /* C_YESNO */ ;
      908    18487
      909    18488    4      SELECT(9 /* CURSORUP */) ;
      910    18489    4      IF TATR$ -> VLP$TRMATTR.CURSORUP# = '01'B
      911    18490    5      THEN DO;
      912    18491    5         FMT_VEC(FDS.NVECS#)=VECTOR(DC_STR);
      913    18492    5         CLASS=1 /* C_TEXT */;
      914    18493    5         END;
      915    18494    5      ELSE DO;
      916    18495    5         YES_NO=TATR$->VLP$TRMATTR.CURSORUP#;
      917    18496    5         CLASS=2 /* C_YESNO */;
      918    18497    5         END;
      919    18498
PL6.E3A0      #001=ASL$DISP_ONE_PROFILE File=ASL$L_PRO.:E05TSI                   TUE 07/29/97 10:26 Page:28
      920    18499    4      SELECT(10 /* DEVICEBS */) ;
      921    18500    4      IF TATR$ -> VLP$TRMATTR.DEVICEBS# = '01'B
      922    18501    5      THEN DO;
      923    18502    5         FMT_VEC(FDS.NVECS#)=VECTOR(DC_STR);
      924    18503    5         CLASS=1 /* C_TEXT */;
      925    18504    5         END;
      926    18505    5      ELSE DO;
      927    18506    5         YES_NO=TATR$->VLP$TRMATTR.DEVICEBS#;
      928    18507    5         CLASS=2 /* C_YESNO */;
      929    18508    5         END;
      930    18509
      931    18510    4      SELECT(11 /* DEVICECR */) ;
      932    18511    4      IF TATR$ -> VLP$TRMATTR.DEVICECR# = '01'B
      933    18512    5      THEN DO;
      934    18513    5         FMT_VEC(FDS.NVECS#)=VECTOR(DC_STR);
      935    18514    5         CLASS=1 /* C_TEXT */;
      936    18515    5         END;
      937    18516    5      ELSE DO;
      938    18517    5         YES_NO=TATR$->VLP$TRMATTR.DEVICECR#;
      939    18518    5         CLASS=2 /* C_YESNO */;
      940    18519    5         END;
      941    18520
      942    18521    4      SELECT(12 /* DEVICELF */) ;
      943    18522    4      IF TATR$ -> VLP$TRMATTR.DEVICELF# = '01'B
      944    18523    5      THEN DO;
      945    18524    5         FMT_VEC(FDS.NVECS#)=VECTOR(DC_STR);
      946    18525    5         CLASS=1 /* C_TEXT */;
      947    18526    5         END;
      948    18527    5      ELSE DO;
      949    18528    5         YES_NO=TATR$->VLP$TRMATTR.DEVICELF#;
      950    18529    5         CLASS=2 /* C_YESNO */;
      951    18530    5         END;
      952    18531
      953    18532    4      SELECT(13 /* DEVPOSOPTS */) ;
      954    18533    4      IF TATR$ -> VLP$TRMATTR.DEVPOSOPTS# = '01'B
      955    18534    5      THEN DO;
      956    18535    5         FMT_VEC(FDS.NVECS#)=VECTOR(DC_STR);
PL6.E3A0      #001=ASL$DISP_ONE_PROFILE File=ASL$L_PRO.:E05TSI                   TUE 07/29/97 10:26 Page:29
      957    18536    5         CLASS=1 /* C_TEXT */;
      958    18537    5         END;
      959    18538    5      ELSE DO;
      960    18539    5         YES_NO=TATR$->VLP$TRMATTR.DEVPOSOPTS#;
      961    18540    5         CLASS=2 /* C_YESNO */;
      962    18541    5         END;
      963    18542
      964    18543    4      SELECT(14 /* DEVSCROLL */) ;
      965    18544    4      IF TATR$ -> VLP$TRMATTR.DEVSCROLL# = '01'B
      966    18545    5      THEN DO;
      967    18546    5         FMT_VEC(FDS.NVECS#)=VECTOR(DC_STR);
      968    18547    5         CLASS=1 /* C_TEXT */;
      969    18548    5         END;
      970    18549    5      ELSE DO;
      971    18550    5         YES_NO=TATR$->VLP$TRMATTR.DEVSCROLL#;
      972    18551    5         CLASS=2 /* C_YESNO */;
      973    18552    5         END;
      974    18553
      975    18554    4      SELECT(15 /* DISPINPUT */) ;
      976    18555    4      IF TCTL$ -> VLP$TRMCTRL.DISPINPUT# = '01'B
      977    18556    5      THEN DO;
      978    18557    5         FMT_VEC(FDS.NVECS#)=VECTOR(DC_STR);
      979    18558    5         CLASS=1 /* C_TEXT */;
      980    18559    5         END;
      981    18560    5      ELSE DO;
      982    18561    5         YES_NO=TCTL$->VLP$TRMCTRL.DISPINPUT#;
      983    18562    5         CLASS=2 /* C_YESNO */;
      984    18563    5         END;
      985    18564
      986    18565    4      SELECT(16 /* EDITOVR */) ;
      987    18566    4      IF TCTL$ -> VLP$TRMCTRL.EDITOVR# = '01'B
      988    18567    5      THEN DO;
      989    18568    5         FMT_VEC(FDS.NVECS#)=VECTOR(DC_STR);
      990    18569    5         CLASS=1 /* C_TEXT */;
      991    18570    5         END;
      992    18571    5      ELSE DO;
      993    18572    5         YES_NO=TCTL$->VLP$TRMCTRL.EDITOVR#;
PL6.E3A0      #001=ASL$DISP_ONE_PROFILE File=ASL$L_PRO.:E05TSI                   TUE 07/29/97 10:26 Page:30
      994    18573    5         CLASS=2 /* C_YESNO */;
      995    18574    5         END;
      996    18575    4      SELECT  (216 /* L_FF_INCCR    */);
      997    18576    4      IF TATR$ ->VLP$TRMATTR.FF_INCCR# = '01'B
      998    18577    5      THEN DO;
      999    18578    5         FMT_VEC(FDS.NVECS#)=VECTOR(DC_STR);
     1000    18579    5         CLASS=1 /* C_TEXT */;
     1001    18580    5         END;
     1002    18581    5      ELSE DO;
     1003    18582    5         YES_NO=TATR$ -> VLP$TRMATTR.FF_INCCR#;
     1004    18583    5         CLASS = 2 /* C_YESNO */;
     1005    18584    5         END;
     1006    18585    4      SELECT(17 /* FULLDUXPAPERTAPE */);
     1007    18586    4      IF TCTL$ -> VLP$TRMCTRL.FULLDUXPAPERTAPE# = '01'B
     1008    18587    5      THEN DO;
     1009    18588    5         FMT_VEC(FDS.NVECS#)=VECTOR(DC_STR);
     1010    18589    5         CLASS=1 /* C_TEXT */;
     1011    18590    5         END;
     1012    18591    5      ELSE DO;
     1013    18592    5         YES_NO=TCTL$->VLP$TRMCTRL.FULLDUXPAPERTAPE#;
     1014    18593    5         CLASS=2 /* C_YESNO */;
     1015    18594    5         END;
     1016    18595
     1017    18596    4      SELECT(18 /* HALFDUXPAPERTAPE */) ;
     1018    18597    4      IF TCTL$ -> VLP$TRMCTRL.HALFDUXPAPERTAPE# = '01'B
     1019    18598    5      THEN DO;
     1020    18599    5         FMT_VEC(FDS.NVECS#)=VECTOR(DC_STR);
     1021    18600    5         CLASS=1 /* C_TEXT */;
     1022    18601    5         END;
     1023    18602    5      ELSE DO;
     1024    18603    5         YES_NO=TCTL$->VLP$TRMCTRL.HALFDUXPAPERTAPE#;
     1025    18604    5         CLASS=2 /* C_YESNO */;
     1026    18605    5         END;
     1027    18606
     1028    18607    4      SELECT(19 /* INPUT */) ;
     1029    18608    4      IF TATR$ -> VLP$TRMATTR.INPUT# = '01'B
     1030    18609    5      THEN DO;
PL6.E3A0      #001=ASL$DISP_ONE_PROFILE File=ASL$L_PRO.:E05TSI                   TUE 07/29/97 10:26 Page:31
     1031    18610    5         FMT_VEC(FDS.NVECS#)=VECTOR(DC_STR);
     1032    18611    5         CLASS=1 /* C_TEXT */;
     1033    18612    5         END;
     1034    18613    5      ELSE DO;
     1035    18614    5         YES_NO=TATR$->VLP$TRMATTR.INPUT#;
     1036    18615    5         CLASS=2 /* C_YESNO */;
     1037    18616    5         END;
     1038    18617
     1039    18618    4      SELECT(21 /* LFISNL */) ;
     1040    18619    4      IF TATR$ -> VLP$TRMATTR.LFISNL# = '01'B
     1041    18620    5      THEN DO;
     1042    18621    5         FMT_VEC(FDS.NVECS#)=VECTOR(DC_STR);
     1043    18622    5         CLASS=1 /* C_TEXT */;
     1044    18623    5         END;
     1045    18624    5      ELSE DO;
     1046    18625    5         YES_NO=TATR$->VLP$TRMATTR.LFISNL#;
     1047    18626    5         CLASS=2 /* C_YESNO */;
     1048    18627    5         END;
     1049    18628
     1050    18629    4      SELECT(22 /* LOWERCASE */) ;
     1051    18630    4      IF TCTL$ -> VLP$TRMCTRL.LOWERCASE# = '01'B
     1052    18631    5      THEN DO;
     1053    18632    5         FMT_VEC(FDS.NVECS#)=VECTOR(DC_STR);
     1054    18633    5         CLASS=1 /* C_TEXT */;
     1055    18634    5         END;
     1056    18635    5      ELSE DO;
     1057    18636    5         YES_NO=TCTL$->VLP$TRMCTRL.LOWERCASE#;
     1058    18637    5         CLASS=2 /* C_YESNO */;
     1059    18638    5         END;
     1060    18639
     1061    18640    4      SELECT(23 /* LOWERCASEPRINTS */) ;
     1062    18641    4      IF TATR$ -> VLP$TRMATTR.LOWERCASEPRINTS# = '01'B
     1063    18642    5      THEN DO;
     1064    18643    5         FMT_VEC(FDS.NVECS#)=VECTOR(DC_STR);
     1065    18644    5         CLASS=1 /* C_TEXT */;
     1066    18645    5         END;
     1067    18646    5      ELSE DO;
PL6.E3A0      #001=ASL$DISP_ONE_PROFILE File=ASL$L_PRO.:E05TSI                   TUE 07/29/97 10:26 Page:32
     1068    18647    5         YES_NO=TATR$->VLP$TRMATTR.LOWERCASEPRINTS#;
     1069    18648    5         CLASS=2 /* C_YESNO */;
     1070    18649    5         END;
     1071    18650    4      SELECT  (217 /* L_MICROFPL   */);
     1072    18651    4      IF TATR$ ->VLP$TRMATTR.MICROFPL# = '01'B
     1073    18652    5      THEN DO;
     1074    18653    5         FMT_VEC(FDS.NVECS#)=VECTOR(DC_STR);
     1075    18654    5         CLASS=1 /* C_TEXT */;
     1076    18655    5         END;
     1077    18656    5      ELSE DO;
     1078    18657    5         YES_NO=TATR$ -> VLP$TRMATTR.MICROFPL#;
     1079    18658    5         CLASS = 2 /* C_YESNO */;
     1080    18659    5         END;
     1081    18660    4      SELECT(24 /* MULSTRM */) ;
     1082    18661    4      YES_NO = TRMD$ -> KL$TRMD.MULSTRM# ;
     1083    18662    4      CLASS = 2 /* C_YESNO */ ;
     1084    18663
     1085    18664    4      SELECT(25 /* NOOPTMIZ */) ;
     1086    18665    4      IF TCTL$ -> VLP$TRMCTRL.NOOPTMIZ# = '01'B
     1087    18666    5      THEN DO;
     1088    18667    5         FMT_VEC(FDS.NVECS#)=VECTOR(DC_STR);
     1089    18668    5         CLASS=1 /* C_TEXT */;
     1090    18669    5         END;
     1091    18670    5      ELSE DO;
     1092    18671    5         YES_NO=TCTL$->VLP$TRMCTRL.NOOPTMIZ#;
     1093    18672    5         CLASS=2 /* C_YESNO */;
     1094    18673    5         END;
     1095    18674
     1096    18675    4      SELECT(26 /* OPDTAB */) ;
     1097    18676    4      IF TATR$ -> VLP$TRMATTR.OPDTAB# = '01'B
     1098    18677    5      THEN DO;
     1099    18678    5         FMT_VEC(FDS.NVECS#)=VECTOR(DC_STR);
     1100    18679    5         CLASS=1 /* C_TEXT */;
     1101    18680    5         END;
     1102    18681    5      ELSE DO;
     1103    18682    5         YES_NO=TATR$->VLP$TRMATTR.OPDTAB#;
     1104    18683    5         CLASS=2 /* C_YESNO */;
PL6.E3A0      #001=ASL$DISP_ONE_PROFILE File=ASL$L_PRO.:E05TSI                   TUE 07/29/97 10:26 Page:33
     1105    18684    5         END;
     1106    18685
     1107    18686    4      SELECT(27 /* OUTPUT */) ;
     1108    18687    4      IF TATR$ -> VLP$TRMATTR.OUTPUT# = '01'B
     1109    18688    5      THEN DO;
     1110    18689    5         FMT_VEC(FDS.NVECS#)=VECTOR(DC_STR);
     1111    18690    5         CLASS=1 /* C_TEXT */;
     1112    18691    5         END;
     1113    18692    5      ELSE DO;
     1114    18693    5         YES_NO=TATR$->VLP$TRMATTR.OUTPUT#;
     1115    18694    5         CLASS=2 /* C_YESNO */;
     1116    18695    5         END;
     1117    18696
     1118    18697    4      SELECT(28 /* OUTDISCARDPUT */) ;
     1119    18698    4      IF TCTL$ -> VLP$TRMCTRL.OUTPUTDISCARD# = '01'B
     1120    18699    5      THEN DO;
     1121    18700    5         FMT_VEC(FDS.NVECS#)=VECTOR(DC_STR);
     1122    18701    5         CLASS=1 /* C_TEXT */;
     1123    18702    5         END;
     1124    18703    5      ELSE DO;
     1125    18704    5         YES_NO=TCTL$->VLP$TRMCTRL.OUTPUTDISCARD#;
     1126    18705    5         CLASS=2 /* C_YESNO */;
     1127    18706    5         END;
     1128    18707
     1129    18708    4      SELECT(29 /* PAGEHALT */) ;
     1130    18709    4      IF TCTL$ -> VLP$TRMCTRL.PAGEHALT# = '01'B
     1131    18710    5      THEN DO;
     1132    18711    5         FMT_VEC(FDS.NVECS#)=VECTOR(DC_STR);
     1133    18712    5         CLASS=1 /* C_TEXT */;
     1134    18713    5         END;
     1135    18714    5      ELSE DO;
     1136    18715    5         YES_NO=TCTL$->VLP$TRMCTRL.PAGEHALT#;
     1137    18716    5         CLASS=2 /* C_YESNO */;
     1138    18717    5         END;
     1139    18718
     1140    18719    4      SELECT(30 /* PARITYCHECK */) ;
     1141    18720    4      IF TCTL$ -> VLP$TRMCTRL.PARITYCHECK# = '01'B
PL6.E3A0      #001=ASL$DISP_ONE_PROFILE File=ASL$L_PRO.:E05TSI                   TUE 07/29/97 10:26 Page:34
     1142    18721    5      THEN DO;
     1143    18722    5         FMT_VEC(FDS.NVECS#)=VECTOR(DC_STR);
     1144    18723    5         CLASS=1 /* C_TEXT */;
     1145    18724    5         END;
     1146    18725    5      ELSE DO;
     1147    18726    5         YES_NO=TCTL$->VLP$TRMCTRL.PARITYCHECK#;
     1148    18727    5         CLASS=2 /* C_YESNO */;
     1149    18728    5         END;
     1150    18729
     1151    18730    4      SELECT(31 /* PRINTHALT */) ;
     1152    18731    4      IF TCTL$ -> VLP$TRMCTRL.PRINTHALT# = '01'B
     1153    18732    5      THEN DO;
     1154    18733    5         FMT_VEC(FDS.NVECS#)=VECTOR(DC_STR);
     1155    18734    5         CLASS=1 /* C_TEXT */;
     1156    18735    5         END;
     1157    18736    5      ELSE DO;
     1158    18737    5         YES_NO=TCTL$->VLP$TRMCTRL.PRINTHALT#;
     1159    18738    5         CLASS=2 /* C_YESNO */;
     1160    18739    5         END;
     1161    18740
     1162    18741    4      SELECT(32 /* PRINTTYPE */) ;
     1163    18742    4      IF TATR$ -> VLP$TRMATTR.PRINTTYPE# = '01'B
     1164    18743    5      THEN DO;
     1165    18744    5         FMT_VEC(FDS.NVECS#)=VECTOR(DC_STR);
     1166    18745    5         CLASS=1 /* C_TEXT */;
     1167    18746    5         END;
     1168    18747    5      ELSE DO;
     1169    18748    5         YES_NO=TATR$->VLP$TRMATTR.PRINTTYPE#;
     1170    18749    5         CLASS=2 /* C_YESNO */;
     1171    18750    5         END;
     1172    18751
     1173    18752    4      SELECT(33 /* PROGDTAB */) ;
     1174    18753    4      IF TATR$ -> VLP$TRMATTR.PROGDTAB# = '01'B
     1175    18754    5      THEN DO;
     1176    18755    5         FMT_VEC(FDS.NVECS#)=VECTOR(DC_STR);
     1177    18756    5         CLASS=1 /* C_TEXT */;
     1178    18757    5         END;
PL6.E3A0      #001=ASL$DISP_ONE_PROFILE File=ASL$L_PRO.:E05TSI                   TUE 07/29/97 10:26 Page:35
     1179    18758    5      ELSE DO;
     1180    18759    5         YES_NO=TATR$->VLP$TRMATTR.PROGDTAB#;
     1181    18760    5         CLASS=2 /* C_YESNO */;
     1182    18761    5         END;
     1183    18762
     1184    18763    4      SELECT(34 /* RELPAGE */) ;
     1185    18764    4      IF TCTL$ -> VLP$TRMCTRL.RELPAGE# = '01'B
     1186    18765    5      THEN DO;
     1187    18766    5         FMT_VEC(FDS.NVECS#)=VECTOR(DC_STR);
     1188    18767    5         CLASS=1 /* C_TEXT */;
     1189    18768    5         END;
     1190    18769    5      ELSE DO;
     1191    18770    5         YES_NO=TCTL$->VLP$TRMCTRL.RELPAGE#;
     1192    18771    5         CLASS=2 /* C_YESNO */;
     1193    18772    5         END;
     1194    18773
     1195    18774    4      SELECT(35 /* RETYPOVR */) ;
     1196    18775    4      IF TCTL$ -> VLP$TRMCTRL.RETYPOVR# = '01'B
     1197    18776    5      THEN DO;
     1198    18777    5         FMT_VEC(FDS.NVECS#)=VECTOR(DC_STR);
     1199    18778    5         CLASS=1 /* C_TEXT */;
     1200    18779    5         END;
     1201    18780    5      ELSE DO;
     1202    18781    5         YES_NO=TCTL$->VLP$TRMCTRL.RETYPOVR#;
     1203    18782    5         CLASS=2 /* C_YESNO */;
     1204    18783    5         END;
     1205    18784
     1206    18785    4      SELECT(36 /* SCROLL */) ;
     1207    18786    4      IF TCTL$ -> VLP$TRMCTRL.SCROLL# = '01'B
     1208    18787    5      THEN DO;
     1209    18788    5         FMT_VEC(FDS.NVECS#)=VECTOR(DC_STR);
     1210    18789    5         CLASS=1 /* C_TEXT */;
     1211    18790    5         END;
     1212    18791    5      ELSE DO;
     1213    18792    5         YES_NO=TCTL$->VLP$TRMCTRL.SCROLL#;
     1214    18793    5         CLASS=2 /* C_YESNO */;
     1215    18794    5         END;
PL6.E3A0      #001=ASL$DISP_ONE_PROFILE File=ASL$L_PRO.:E05TSI                   TUE 07/29/97 10:26 Page:36
     1216    18795
     1217    18796    4      SELECT(37 /* SENDBKSPACE */) ;
     1218    18797    4      IF TCTL$ -> VLP$TRMCTRL.SENDBKSPACE# = '01'B
     1219    18798    5      THEN DO;
     1220    18799    5         FMT_VEC(FDS.NVECS#)=VECTOR(DC_STR);
     1221    18800    5         CLASS=1 /* C_TEXT */;
     1222    18801    5         END;
     1223    18802    5      ELSE DO;
     1224    18803    5         YES_NO=TCTL$->VLP$TRMCTRL.SENDBKSPACE#;
     1225    18804    5         CLASS=2 /* C_YESNO */;
     1226    18805    5         END;
     1227    18806
     1228    18807    4      SELECT(38 /* SIMPERF */) ;
     1229    18808    4      IF TCTL$ -> VLP$TRMCTRL.SIMPERF# = '01'B
     1230    18809    5      THEN DO;
     1231    18810    5         FMT_VEC(FDS.NVECS#)=VECTOR(DC_STR);
     1232    18811    5         CLASS=1 /* C_TEXT */;
     1233    18812    5         END;
     1234    18813    5      ELSE DO;
     1235    18814    5         YES_NO=TCTL$->VLP$TRMCTRL.SIMPERF#;
     1236    18815    5         CLASS=2 /* C_YESNO */;
     1237    18816    5         END;
     1238    18817
     1239    18818    4      SELECT(39 /* SPACEINSERT */);
     1240    18819    4      IF TCTL$ -> VLP$TRMCTRL.SPACEINSERT# = '01'B
     1241    18820    5      THEN DO;
     1242    18821    5         FMT_VEC(FDS.NVECS#)=VECTOR(DC_STR);
     1243    18822    5         CLASS=1 /* C_TEXT */;
     1244    18823    5         END;
     1245    18824    5      ELSE DO;
     1246    18825    5         YES_NO=TCTL$->VLP$TRMCTRL.SPACEINSERT#;
     1247    18826    5         CLASS=2 /* C_YESNO */;
     1248    18827    5         END;
     1249    18828
     1250    18829    4      SELECT(40 /* TABRELATIVE */) ;
     1251    18830    4      IF TCTL$ -> VLP$TRMCTRL.TABRELATIVE# = '01'B
     1252    18831    5      THEN DO;
PL6.E3A0      #001=ASL$DISP_ONE_PROFILE File=ASL$L_PRO.:E05TSI                   TUE 07/29/97 10:26 Page:37
     1253    18832    5         FMT_VEC(FDS.NVECS#)=VECTOR(DC_STR);
     1254    18833    5         CLASS=1 /* C_TEXT */;
     1255    18834    5         END;
     1256    18835    5      ELSE DO;
     1257    18836    5         YES_NO=TCTL$->VLP$TRMCTRL.TABRELATIVE#;
     1258    18837    5         CLASS=2 /* C_YESNO */;
     1259    18838    5         END;
     1260    18839
     1261    18840    4      SELECT(41 /* TABSIM */) ;
     1262    18841    4      IF TCTL$ -> VLP$TRMCTRL.TABSIM# = '01'B
     1263    18842    5      THEN DO;
     1264    18843    5         FMT_VEC(FDS.NVECS#)=VECTOR(DC_STR);
     1265    18844    5         CLASS=1 /* C_TEXT */;
     1266    18845    5         END;
     1267    18846    5      ELSE DO;
     1268    18847    5         YES_NO=TCTL$->VLP$TRMCTRL.TABSIM#;
     1269    18848    5         CLASS=2 /* C_YESNO */;
     1270    18849    5         END;
     1271    18850
     1272    18851    4      SELECT(42 /* TRUNCATE */) ;
     1273    18852    4      IF TCTL$ -> VLP$TRMCTRL.TRUNCATE# = '01'B
     1274    18853    5      THEN DO;
     1275    18854    5         FMT_VEC(FDS.NVECS#)=VECTOR(DC_STR);
     1276    18855    5         CLASS=1 /* C_TEXT */;
     1277    18856    5         END;
     1278    18857    5      ELSE DO;
     1279    18858    5         YES_NO=TCTL$->VLP$TRMCTRL.TRUNCATE#;
     1280    18859    5         CLASS=2 /* C_YESNO */;
     1281    18860    5         END;
     1282    18861
     1283    18862    4      SELECT(164 /* WRAPPAGE */);
     1284    18863    4      IF TCTL$ -> VLP$TRMCTRL.WRAPPAGE# = '01'B
     1285    18864    5      THEN DO;
     1286    18865    5         FMT_VEC(FDS.NVECS#)=VECTOR(DC_STR);
     1287    18866    5         CLASS=1 /* C_TEXT */;
     1288    18867    5         END;
     1289    18868    5      ELSE DO;
PL6.E3A0      #001=ASL$DISP_ONE_PROFILE File=ASL$L_PRO.:E05TSI                   TUE 07/29/97 10:26 Page:38
     1290    18869    5         YES_NO=TCTL$->VLP$TRMCTRL.WRAPPAGE#;
     1291    18870    5         CLASS=2 /* C_YESNO */;
     1292    18871    5         END;
     1293    18872
     1294    18873    4      SELECT(43 /* TRUOVRPRT */) ;
     1295    18874    4      IF TATR$ -> VLP$TRMATTR.TRUOVRPRT# = '01'B
     1296    18875    5      THEN DO;
     1297    18876    5         FMT_VEC(FDS.NVECS#)=VECTOR(DC_STR);
     1298    18877    5         CLASS=1 /* C_TEXT */;
     1299    18878    5         END;
     1300    18879    5      ELSE DO;
     1301    18880    5         YES_NO=TATR$->VLP$TRMATTR.TRUOVRPRT#;
     1302    18881    5         CLASS=2 /* C_YESNO */;
     1303    18882    5         END;
     1304    18883
     1305    18884    4      SELECT(44 /* TTYTYPE */) ;
     1306    18885    4      IF TATR$ -> VLP$TRMATTR.TTYTYPE# = '01'B
     1307    18886    5      THEN DO;
     1308    18887    5         FMT_VEC(FDS.NVECS#)=VECTOR(DC_STR);
     1309    18888    5         CLASS=1 /* C_TEXT */;
     1310    18889    5         END;
     1311    18890    5      ELSE DO;
     1312    18891    5         YES_NO=TATR$->VLP$TRMATTR.TTYTYPE#;
     1313    18892    5         CLASS=2 /* C_YESNO */;
     1314    18893    5         END;
     1315    18894
     1316    18895    4      SELECT(45 /* UPPERCASE */) ;
     1317    18896    4      IF TCTL$ -> VLP$TRMCTRL.UPPERCASE# = '01'B
     1318    18897    5      THEN DO;
     1319    18898    5         FMT_VEC(FDS.NVECS#)=VECTOR(DC_STR);
     1320    18899    5         CLASS=1 /* C_TEXT */;
     1321    18900    5         END;
     1322    18901    5      ELSE DO;
     1323    18902    5         YES_NO=TCTL$->VLP$TRMCTRL.UPPERCASE#;
     1324    18903    5         CLASS=2 /* C_YESNO */;
     1325    18904    5         END;
     1326    18905
PL6.E3A0      #001=ASL$DISP_ONE_PROFILE File=ASL$L_PRO.:E05TSI                   TUE 07/29/97 10:26 Page:39
     1327    18906    4      SELECT(46 /* AWIDTH */) ;
     1328    18907    4      IF TATR$ -> VLP$TRMATTR.WIDTH# = 255
     1329    18908    5      THEN DO;
     1330    18909    5         FMT_VEC(FDS.NVECS#)=VECTOR(DC_STR);
     1331    18910    5         CLASS=1 /* C_TEXT */;
     1332    18911    5         END;
     1333    18912    5      ELSE DO;
     1334    18913    5         SBINS(SBIN_IDX) = TATR$ -> VLP$TRMATTR.WIDTH# ;
     1335    18914    5         IF TATR$ -> VLP$TRMATTR.EXTWID# = AS_TRUE
     1336    18915    5         THEN
     1337    18916    5            SBINS(SBIN_IDX) = SBINS(SBIN_IDX) + 254 ;
     1338    18917    5         CLASS = 12 /* C_SBIN */ ;
     1339    18918    5         END;
     1340    18919
     1341    18920    4      SELECT(47 /* BLKBYTES */) ;
     1342    18921    4      SBINS(SBIN_IDX) = 0 ;
     1343    18922    4      SPLIT$ = ADDR(SBINS(SBIN_IDX)) ;
     1344    18923    4      KL$UBWORD.NUM = TRMD$ -> KL$TRMD.BLKBYTES# ;
     1345    18924    4      SPLIT$ -> KL$UWORD.T = KL$UBWORD.REPLACE.T ;
     1346    18925    4      SPLIT$ -> KL$UWORD.B = KL$UBWORD.REPLACE.B ;
     1347    18926    4      CLASS = 12 /* C_SBIN */ ;
     1348    18927    4      SELECT(48 /* BLKRECS */) ;
     1349    18928    4      SBINS(SBIN_IDX) = TRMD$ -> KL$TRMD.BLKRECS# ;
     1350    18929    4      CLASS = 12 /* C_SBIN */ ;
     1351    18930
     1352    18931    4      SELECT ( 49 /* DELAYS */ ) ;
     1353    18932    4      SBINS(SBIN_IDX) = TRMD$ -> KL$TRMD.DELAYS# ;
     1354    18933    4      CLASS = 12 /* C_SBIN */ ;
     1355    18934
     1356    18935    4      SELECT ( 212 /* L_CALL_DELAY */ ) ;
     1357    18936    4      SBINS(SBIN_IDX) = VIRCIR$ -> KL$VIRCIR.CDLY#;
     1358    18937    4      CLASS = 12 /* C_SBIN */ ;
     1359    18938
     1360    18939    4      SELECT(50 /* DVCOTPBFRSIZ */) ;
     1361    18940    4      SBINS(SBIN_IDX) = 0 ;
     1362    18941    4      SPLIT$ = ADDR(SBINS(SBIN_IDX)) ;
     1363    18942    4      IF PRO_TYP = ASL_3270_TYP
PL6.E3A0      #001=ASL$DISP_ONE_PROFILE File=ASL$L_PRO.:E05TSI                   TUE 07/29/97 10:26 Page:40
     1364    18943    5      THEN DO;
     1365    18944    5         KL$UBWORD.NUM = KL$3270.DVCBFRSIZ ;
     1366    18945    5         END;
     1367    18946    5      ELSE DO;
     1368    18947    5         KL$UBWORD.NUM = TCCHR$ -> KL$CCHR.DVCOTPBFRSIZ ;
     1369    18948    5         END;
     1370    18949    4      SPLIT$ -> KL$UWORD.T = KL$UBWORD.REPLACE.T ;
     1371    18950    4      SPLIT$ -> KL$UWORD.B = KL$UBWORD.REPLACE.B ;
     1372    18951    4      CLASS = 12 /* C_SBIN */ ;
     1373    18952
     1374    18953    4      SELECT(51 /* FIRSTLINE */) ;
     1375    18954    4      IF PLTN$ -> VLP$PLATEN.FIRSTLINE# = 255
     1376    18955    5      THEN DO;
     1377    18956    5         FMT_VEC(FDS.NVECS#)=VECTOR(DC_STR);
     1378    18957    5         CLASS=1 /* C_TEXT */;
     1379    18958    5         END;
     1380    18959    5      ELSE DO;
     1381    18960    5         SBINS(SBIN_IDX) = PLTN$ -> VLP$PLATEN.FIRSTLINE# ;
     1382    18961    5         CLASS = 12 /* C_SBIN */ ;
     1383    18962    5         END;
     1384    18963
     1385    18964    4      SELECT(52 /* HEIGHT */) ;
     1386    18965    4      IF TATR$ -> VLP$TRMATTR.HEIGHT# = 255
     1387    18966    5      THEN DO;
     1388    18967    5         FMT_VEC(FDS.NVECS#)=VECTOR(DC_STR);
     1389    18968    5         CLASS=1 /* C_TEXT */;
     1390    18969    5         END;
     1391    18970    5      ELSE DO;
     1392    18971    5         SBINS(SBIN_IDX) = TATR$ -> VLP$TRMATTR.HEIGHT# ;
     1393    18972    5         CLASS = 12 /* C_SBIN */ ;
     1394    18973    5         END;
     1395    18974
     1396    18975    4      SELECT(53 /* LENGTH */) ;
     1397    18976    4      IF PLTN$ -> VLP$PLATEN.LENGTH# = 255
     1398    18977    5      THEN DO;
     1399    18978    5         FMT_VEC(FDS.NVECS#)=VECTOR(DC_STR);
     1400    18979    5         CLASS=1 /* C_TEXT */;
PL6.E3A0      #001=ASL$DISP_ONE_PROFILE File=ASL$L_PRO.:E05TSI                   TUE 07/29/97 10:26 Page:41
     1401    18980    5         END;
     1402    18981    5      ELSE DO;
     1403    18982    5         SBINS(SBIN_IDX) = PLTN$ -> VLP$PLATEN.LENGTH# ;
     1404    18983    5         CLASS = 12 /* C_SBIN */ ;
     1405    18984    5         END;
     1406    18985
     1407    18986    4      SELECT(54 /* LIMBO */) ;
     1408    18987    4      IF PLTN$ -> VLP$PLATEN.LIMBO# = 255
     1409    18988    5      THEN DO;
     1410    18989    5         FMT_VEC(FDS.NVECS#)=VECTOR(DC_STR);
     1411    18990    5         CLASS=1 /* C_TEXT */;
     1412    18991    5         END;
     1413    18992    5      ELSE DO;
     1414    18993    5         SBINS(SBIN_IDX) = PLTN$ -> VLP$PLATEN.LIMBO# ;
     1415    18994    5         CLASS = 12 /* C_SBIN */ ;
     1416    18995    5         END;
     1417    18996
     1418    18997    4      SELECT(55 /* PWIDTH */) ;
     1419    18998    4      IF PLTN$ -> VLP$PLATEN.WIDTH# = 255
     1420    18999    5      THEN DO;
     1421    19000    5         FMT_VEC(FDS.NVECS#)=VECTOR(DC_STR);
     1422    19001    5         CLASS=1 /* C_TEXT */;
     1423    19002    5         END;
     1424    19003    5      ELSE DO;
     1425    19004    5         SBINS(SBIN_IDX) = PLTN$ -> VLP$PLATEN.WIDTH# ;
     1426    19005    5         IF PLTN$ -> VLP$PLATEN.EXTWID# = AS_TRUE
     1427    19006    5         THEN
     1428    19007    5            SBINS(SBIN_IDX) = SBINS(SBIN_IDX) + 254 ;
     1429    19008    5         CLASS = 12 /* C_SBIN */ ;
     1430    19009    5         END;
     1431    19010
     1432    19011    4      SELECT(56 /* MINREC */) ;
     1433    19012    4      IF TATR$ -> VLP$TRMATTR.MINREC# = 255
     1434    19013    5      THEN DO;
     1435    19014    5         FMT_VEC(FDS.NVECS#)=VECTOR(DC_STR);
     1436    19015    5         CLASS=1 /* C_TEXT */;
     1437    19016    5         END;
PL6.E3A0      #001=ASL$DISP_ONE_PROFILE File=ASL$L_PRO.:E05TSI                   TUE 07/29/97 10:26 Page:42
     1438    19017    5      ELSE DO;
     1439    19018    5         SBINS(SBIN_IDX) = TATR$ -> VLP$TRMATTR.MINREC# ;
     1440    19019    5         CLASS = 12 /* C_SBIN */ ;
     1441    19020    5         END;
     1442    19021
     1443    19022    4      SELECT(57 /* RETRYS */) ;
     1444    19023    4      SBINS(SBIN_IDX) = TRMD$ -> KL$TRMD.RETRYS# ;
     1445    19024    4      CLASS = 12 /* C_SBIN */ ;
     1446    19025
     1447    19026    4      SELECT(58 /* SINPUTSZ */) ;
     1448    19027    4      IF TCTL$ -> VLP$TRMCTRL.SINPUTSZ# = 255
     1449    19028    5      THEN DO;
     1450    19029    5         FMT_VEC(FDS.NVECS#)=VECTOR(DC_STR);
     1451    19030    5         CLASS=1 /* C_TEXT */;
     1452    19031    5         END;
     1453    19032    5      ELSE DO;
     1454    19033    5         SBINS(SBIN_IDX) = TCTL$ -> VLP$TRMCTRL.SINPUTSZ# ;
     1455    19034    5         CLASS = 12 /* C_SBIN */ ;
     1456    19035    5         END;
     1457    19036
     1458    19037    4      SELECT(59 /* SPEED */) ;
     1459    19038    5      DO SELECT (TATR$ -> VLP$TRMATTR.SPEED#) ;
     1460    19039    5         SELECT( 255       /* NONE-BAUD */ );
     1461    19040    5         FMT_VEC(FDS.NVECS#) = VECTOR (DC_STR);
     1462    19041    5         SELECT( 0         /* 50-BAUD */ );
     1463    19042    5         FMT_VEC(FDS.NVECS#) = VECTOR(SPD50_STR);
     1464    19043    5         SELECT( 1         /* 75-BAUD */ );
     1465    19044    5         FMT_VEC(FDS.NVECS#) = VECTOR(VC75_STR);
     1466    19045    5         SELECT( 2         /* 110-BAUD */ );
     1467    19046    5         FMT_VEC(FDS.NVECS#) = VECTOR(SPD110_STR);
     1468    19047    5         SELECT( 3         /* 134.5-BAUD */ );
     1469    19048    5         FMT_VEC(FDS.NVECS#) = VECTOR(SPD1345_STR);
     1470    19049    5         SELECT( 4         /* 150-BAUD */ );
     1471    19050    5         FMT_VEC(FDS.NVECS#) = VECTOR(VC150_STR);
     1472    19051    5         SELECT( 5         /* 200-BAUD */ );
     1473    19052    5         FMT_VEC(FDS.NVECS#) = VECTOR(SPD200_STR);
     1474    19053    5         SELECT( 6         /* 300-BAUD */ );
PL6.E3A0      #001=ASL$DISP_ONE_PROFILE File=ASL$L_PRO.:E05TSI                   TUE 07/29/97 10:26 Page:43
     1475    19054    5         FMT_VEC(FDS.NVECS#) = VECTOR(VC300_STR);
     1476    19055    5         SELECT( 7         /* 600-BAUD */ );
     1477    19056    5         FMT_VEC(FDS.NVECS#) = VECTOR(VC600_STR);
     1478    19057    5         SELECT( 8         /* 1050-BAUD */ );
     1479    19058    5         FMT_VEC(FDS.NVECS#) = VECTOR(SPD1050_STR);
     1480    19059    5         SELECT( 9         /* 1200-BAUD */ );
     1481    19060    5         FMT_VEC(FDS.NVECS#) = VECTOR(VC1200_STR);
     1482    19061    5         SELECT( 10        /* 1800-BAUD */ );
     1483    19062    5         FMT_VEC(FDS.NVECS#) = VECTOR(SPD1800_STR);
     1484    19063    5         SELECT( 11        /* 2000-BAUD */ );
     1485    19064    5         FMT_VEC(FDS.NVECS#) = VECTOR(SPD2000_STR);
     1486    19065    5         SELECT( 12        /* 2400-BAUD */ );
     1487    19066    5         FMT_VEC(FDS.NVECS#) = VECTOR(VC2400_STR);
     1488    19067    5         SELECT( 13        /* 4800-BAUD */ );
     1489    19068    5         FMT_VEC(FDS.NVECS#) = VECTOR(VC4800_STR);
     1490    19069    5         SELECT( 14        /* 9600-BAUD */ );
     1491    19070    5         FMT_VEC(FDS.NVECS#) = VECTOR(VC9600_STR);
     1492    19071    5         SELECT( 15        /* 19200-BAUD */ );
     1493    19072    5         FMT_VEC(FDS.NVECS#) = VECTOR(VC19200_STR);
     1494    19073    5         END ;
     1495    19074    4      CLASS = 1 /* C_TEXT */ ;
     1496    19075    4      SELECT(60 /* TMNALG_AFTCUP */) ;
     1497    19076    4      SBINS(SBIN_IDX) = TCCHR$ -> KL$CCHR.TMNALG_AFTCUP ;
     1498    19077    4      CLASS = 12 /* C_SBIN */ ;
     1499    19078    4      SELECT(61 /* TMNALG_AFTCR */) ;
     1500    19079    4      SBINS(SBIN_IDX) = TCCHR$ -> KL$CCHR.TMNALG_AFTCR ;
     1501    19080    4      CLASS = 12 /* C_SBIN */ ;
     1502    19081    4      SELECT(62 /* TMNALG_AFTHPA */) ;
     1503    19082    4      SBINS(SBIN_IDX) = TCCHR$ -> KL$CCHR.TMNALG_AFTHPA ;
     1504    19083    4      CLASS = 12 /* C_SBIN */ ;
     1505    19084    4      SELECT(63 /* TMNALG_AFTHT */) ;
     1506    19085    4      SBINS(SBIN_IDX) = TCCHR$ -> KL$CCHR.TMNALG_AFTHT ;
     1507    19086    4      CLASS = 12 /* C_SBIN */ ;
     1508    19087    4      SELECT(64 /* TMNALG_AFTLF */) ;
     1509    19088    4      SBINS(SBIN_IDX) = TCCHR$ -> KL$CCHR.TMNALG_AFTLF ;
     1510    19089    4      CLASS = 12 /* C_SBIN */ ;
     1511    19090    4      SELECT(65 /* TMNALG_BFRCR */) ;
PL6.E3A0      #001=ASL$DISP_ONE_PROFILE File=ASL$L_PRO.:E05TSI                   TUE 07/29/97 10:26 Page:44
     1512    19091    4      SBINS(SBIN_IDX) = TCCHR$ -> KL$CCHR.TMNALG_BFRCR ;
     1513    19092    4      CLASS = 12 /* C_SBIN */ ;
     1514    19093    4      SELECT(66 /* TMNALG_BFRLF */) ;
     1515    19094    4      SBINS(SBIN_IDX) = TCCHR$ -> KL$CCHR.TMNALG_BFRLF ;
     1516    19095    4      CLASS = 12 /* C_SBIN */ ;
     1517    19096    4      SELECT( 162 /* TMNALG_FILCHR */ );
     1518    19097    4      UHEX_NUM = TCCHR$ -> KL$CCHR.TMNALG_FILCHR;
     1519    19098    4      CLASS = 14 /* C_HEX */;
     1520    19099    4      SELECT(67 /* BS_TIM */) ;
     1521    19100    4      SBINS(SBIN_IDX) = 0 ;
     1522    19101    4      SPLIT$ = ADDR(SBINS(SBIN_IDX)) ;
     1523    19102    4      KL$UBWORD.NUM = TCCHR$ -> KL$CCHR.BS_TIM ;
     1524    19103    4      SPLIT$ -> KL$UWORD.T = KL$UBWORD.REPLACE.T ;
     1525    19104    4      SPLIT$ -> KL$UWORD.B = KL$UBWORD.REPLACE.B ;
     1526    19105    4      CLASS = 13 /* C_REAL */ ;
     1527    19106    4      SELECT(68 /* ERSTIM */) ;
     1528    19107    4      SBINS(SBIN_IDX) = 0 ;
     1529    19108    4      SPLIT$ = ADDR(SBINS(SBIN_IDX)) ;
     1530    19109    4      KL$UBWORD.NUM = TCCHR$ -> KL$CCHR.ERSTIM ;
     1531    19110    4      SPLIT$ -> KL$UWORD.T = KL$UBWORD.REPLACE.T ;
     1532    19111    4      SPLIT$ -> KL$UWORD.B = KL$UBWORD.REPLACE.B ;
     1533    19112    4      CLASS = 13 /* C_REAL */ ;
     1534    19113    4      SELECT(69 /* TIMAFTCTRFNC */) ;
     1535    19114    4      SBINS(SBIN_IDX) = 0 ;
     1536    19115    4      SPLIT$ = ADDR(SBINS(SBIN_IDX)) ;
     1537    19116    4      KL$UBWORD.NUM = TCCHR$ -> KL$CCHR.CTRFNCTIM ;
     1538    19117    4      SPLIT$ -> KL$UWORD.T = KL$UBWORD.REPLACE.T ;
     1539    19118    4      SPLIT$ -> KL$UWORD.B = KL$UBWORD.REPLACE.B ;
     1540    19119    4      CLASS = 13 /* C_REAL */ ;
     1541    19120    4      SELECT(70 /* TMNALG_PRM1 */) ;
     1542    19121    4      SBINS(SBIN_IDX) = 0 ;
     1543    19122    4      SPLIT$ = ADDR(SBINS(SBIN_IDX)) ;
     1544    19123    4      KL$UBWORD.NUM = TCCHR$ -> KL$CCHR.TMNALG_PRM1 ;
     1545    19124    4      SPLIT$ -> KL$UWORD.T = KL$UBWORD.REPLACE.T ;
     1546    19125    4      SPLIT$ -> KL$UWORD.B = KL$UBWORD.REPLACE.B ;
     1547    19126    4      CLASS = 13 /* C_REAL */ ;
     1548    19127    4      SELECT(71 /* TMNALG_PRM2 */) ;
PL6.E3A0      #001=ASL$DISP_ONE_PROFILE File=ASL$L_PRO.:E05TSI                   TUE 07/29/97 10:26 Page:45
     1549    19128    4      SBINS(SBIN_IDX) = 0 ;
     1550    19129    4      SPLIT$ = ADDR(SBINS(SBIN_IDX)) ;
     1551    19130    4      KL$UBWORD.NUM = TCCHR$ -> KL$CCHR.TMNALG_PRM2 ;
     1552    19131    4      SPLIT$ -> KL$UWORD.T = KL$UBWORD.REPLACE.T ;
     1553    19132    4      SPLIT$ -> KL$UWORD.B = KL$UBWORD.REPLACE.B ;
     1554    19133    4      CLASS = 13 /* C_REAL */ ;
     1555    19134    4      SELECT(72 /* TMNALG_PRM3 */) ;
     1556    19135    4      SBINS(SBIN_IDX) = 0 ;
     1557    19136    4      SPLIT$ = ADDR(SBINS(SBIN_IDX)) ;
     1558    19137    4      KL$UBWORD.NUM = TCCHR$ -> KL$CCHR.TMNALG_PRM3 ;
     1559    19138    4      SPLIT$ -> KL$UWORD.T = KL$UBWORD.REPLACE.T ;
     1560    19139    4      SPLIT$ -> KL$UWORD.B = KL$UBWORD.REPLACE.B ;
     1561    19140    4      CLASS = 13 /* C_REAL */ ;
     1562    19141    4      SELECT(73 /* TMNALG_PRM4 */) ;
     1563    19142    4      SBINS(SBIN_IDX) = 0 ;
     1564    19143    4      SPLIT$ = ADDR(SBINS(SBIN_IDX)) ;
     1565    19144    4      KL$UBWORD.NUM = TCCHR$ -> KL$CCHR.TMNALG_PRM4 ;
     1566    19145    4      SPLIT$ -> KL$UWORD.T = KL$UBWORD.REPLACE.T ;
     1567    19146    4      SPLIT$ -> KL$UWORD.B = KL$UBWORD.REPLACE.B ;
     1568    19147    4      CLASS = 13 /* C_REAL */ ;
     1569    19148    4      SELECT(74 /* TMNALG_PRM5 */) ;
     1570    19149    4      SBINS(SBIN_IDX) = 0 ;
     1571    19150    4      SPLIT$ = ADDR(SBINS(SBIN_IDX)) ;
     1572    19151    4      KL$UBWORD.NUM = TCCHR$ -> KL$CCHR.TMNALG_PRM5 ;
     1573    19152    4      SPLIT$ -> KL$UWORD.T = KL$UBWORD.REPLACE.T ;
     1574    19153    4      SPLIT$ -> KL$UWORD.B = KL$UBWORD.REPLACE.B ;
     1575    19154    4      CLASS = 13 /* C_REAL */ ;
     1576    19155    4      SELECT(75 /* TMNALG_PRM6 */) ;
     1577    19156    4      SBINS(SBIN_IDX) = 0 ;
     1578    19157    4      SPLIT$ = ADDR(SBINS(SBIN_IDX)) ;
     1579    19158    4      KL$UBWORD.NUM = TCCHR$ -> KL$CCHR.TMNALG_PRM6 ;
     1580    19159    4      SPLIT$ -> KL$UWORD.T = KL$UBWORD.REPLACE.T ;
     1581    19160    4      SPLIT$ -> KL$UWORD.B = KL$UBWORD.REPLACE.B ;
     1582    19161    4      CLASS = 13 /* C_REAL */ ;
     1583    19162    4      SELECT(76 /* TMNALG_PRM7 */) ;
     1584    19163    4      SBINS(SBIN_IDX) = 0 ;
     1585    19164    4      SPLIT$ = ADDR(SBINS(SBIN_IDX)) ;
PL6.E3A0      #001=ASL$DISP_ONE_PROFILE File=ASL$L_PRO.:E05TSI                   TUE 07/29/97 10:26 Page:46
     1586    19165    4      KL$UBWORD.NUM = TCCHR$ -> KL$CCHR.TMNALG_PRM7 ;
     1587    19166    4      SPLIT$ -> KL$UWORD.T = KL$UBWORD.REPLACE.T ;
     1588    19167    4      SPLIT$ -> KL$UWORD.B = KL$UBWORD.REPLACE.B ;
     1589    19168    4      CLASS = 13 /* C_REAL */ ;
     1590    19169    4      SELECT(77 /* TMNALG_PRM8 */) ;
     1591    19170    4      SBINS(SBIN_IDX) = 0 ;
     1592    19171    4      SPLIT$ = ADDR(SBINS(SBIN_IDX)) ;
     1593    19172    4      KL$UBWORD.NUM = TCCHR$ -> KL$CCHR.TMNALG_PRM8 ;
     1594    19173    4      SPLIT$ -> KL$UWORD.T = KL$UBWORD.REPLACE.T ;
     1595    19174    4      SPLIT$ -> KL$UWORD.B = KL$UBWORD.REPLACE.B ;
     1596    19175    4      CLASS = 13 /* C_REAL */ ;
     1597    19176
     1598    19177    4      SELECT(78 /* FCNTBL */) ;
     1599    19178    4      IF TATR$->VLP$TRMATTR.FCNTBL# = AS_BLANK THEN
     1600    19179    4         FMT_VEC(FDS.NVECS#) = VECTOR(NONE_SET_STR) ;
     1601    19180    4      ELSE
     1602    19181    4         FMT_VEC(FDS.NVECS#) = VECTOR(TATR$ -> VLP$TRMATTR.FCNTBL#) ;
     1603    19182    4      CLASS = 1 /* C_TEXT */ ;
     1604    19183
     1605    19184    4      SELECT(79 /* CHARSETNAME */) ;
     1606    19185    4      IF TATR$->VLP$TRMATTR.CHARSETNAME# = AS_BLANK THEN
     1607    19186    4         FMT_VEC(FDS.NVECS#) = VECTOR(NONE_STR) ;
     1608    19187    4      ELSE
     1609    19188    4         FMT_VEC(FDS.NVECS#) = VECTOR(TATR$ -> VLP$TRMATTR.CHARSETNAME#) ;
     1610    19189    4      CLASS = 1 /* C_TEXT */ ;
     1611    19190
     1612    19191    4      SELECT(82 /* CUP_ALG */) ;
     1613    19192    5      DO SELECT(TCCHR$->KL$CCHR.CUP_ALG) ;
     1614    19193    5         SELECT(1 /* P_SC_ANS */) ;
     1615    19194    5         FMT_VEC(FDS.NVECS#) = VECTOR(ANS_STR) ;
     1616    19195    5         SELECT(2 /* P_SC_TBL */) ;
     1617    19196    5         FMT_VEC(FDS.NVECS#) = VECTOR(TBL_STR) ;
     1618    19197    5         SELECT(ELSE) ;
     1619    19198    5      CALL BINCHAR(ONE_CHAR_STR,TCCHR$->KL$CCHR.CUP_ALG) ;
     1620    19199    5      FMT_VEC(FDS.NVECS#) = VECTOR(ONE_CHAR_STR) ;
     1621    19200    5         END ;                       /* Do case                            */
     1622    19201    4   CLASS = 1 /* C_TEXT */ ;
PL6.E3A0      #001=ASL$DISP_ONE_PROFILE File=ASL$L_PRO.:E05TSI                   TUE 07/29/97 10:26 Page:47
     1623    19202    4   SELECT(83 /* DVCFLWCTRALG */) ;
     1624    19203    5   DO SELECT(TATR$->VLP$TRMATTR.DVCFLWCTRALG#) ;
     1625    19204    5      SELECT(1 /* P_SC_ENQACK */) ;
     1626    19205    5      FMT_VEC(FDS.NVECS#) = VECTOR(ENQACK_STR) ;
     1627    19206    5      SELECT(2 /* P_SC_EXTACK */) ;
     1628    19207    5      FMT_VEC(FDS.NVECS#) = VECTOR(ETXACK_STR) ;
     1629    19208    5      SELECT(3 /* P_SC_DC1DC3 */) ;
     1630    19209    5      FMT_VEC(FDS.NVECS#) = VECTOR(DC1DC3_STR) ;
     1631    19210    5      SELECT ( 0 /* P_SC_ZERO */);
     1632    19211    5      FMT_VEC(FDS.NVECS#) = VECTOR(NONE_STR) ;
     1633    19212    5      SELECT (7 /* P_SC_SEVEN */ );
     1634    19213    5      FMT_VEC(FDS.NVECS#) = VECTOR(DC_STR) ;
     1635    19214    5      SELECT(ELSE) ;
     1636    19215    5   CALL BINCHAR(ONE_CHAR_STR,TATR$->VLP$TRMATTR.DVCFLWCTRALG#) ;
     1637    19216    5   FMT_VEC(FDS.NVECS#) = VECTOR(ONE_CHAR_STR) ;
     1638    19217    5      END ;                       /* Do case                            */
     1639    19218    4   CLASS = 1 /* C_TEXT */ ;
     1640    19219    4   SELECT(84 /* HPA_ALG */) ;
     1641    19220    5   DO SELECT(TCCHR$->KL$CCHR.HPA_ALG) ;
     1642    19221    5      SELECT(1 /* P_SC_ANS */) ;
     1643    19222    5      FMT_VEC(FDS.NVECS#) = VECTOR(ANS_STR) ;
     1644    19223    5      SELECT(2 /* P_SC_DBL */) ;
     1645    19224    5      FMT_VEC(FDS.NVECS#) = VECTOR(DBL_STR) ;
     1646    19225    5      SELECT(3 /* P_SC_NEC */) ;
     1647    19226    5      FMT_VEC(FDS.NVECS#) = VECTOR(NEC_STR) ;
     1648    19227    5      SELECT(ELSE) ;
     1649    19228    5   CALL BINCHAR(ONE_CHAR_STR,TCCHR$ -> KL$CCHR.HPA_ALG) ;
     1650    19229    5   FMT_VEC(FDS.NVECS#) = VECTOR(ONE_CHAR_STR) ;
     1651    19230    5      END ;                       /* Do case                            */
     1652    19231    4   CLASS = 1 /* C_TEXT */ ;
     1653    19232    4   SELECT(85 /* PARITY */) ;
     1654    19233    5   DO SELECT(TATR$ -> VLP$TRMATTR.PARITY#) ;
     1655    19234    5      SELECT(0 /* NONE */) ;
     1656    19235    5      FMT_VEC(FDS.NVECS#) = VECTOR(NONE_STR) ;
     1657    19236    5      SELECT(1 /* ODD */) ;
     1658    19237    5      FMT_VEC(FDS.NVECS#) = VECTOR(ODD_STR) ;
     1659    19238    5      SELECT(2 /* EVEN */) ;
PL6.E3A0      #001=ASL$DISP_ONE_PROFILE File=ASL$L_PRO.:E05TSI                   TUE 07/29/97 10:26 Page:48
     1660    19239    5      FMT_VEC(FDS.NVECS#) = VECTOR(EVEN_STR) ;
     1661    19240    5      SELECT(3 /* ONE */) ;
     1662    19241    5      FMT_VEC(FDS.NVECS#) = VECTOR(ONE_STR) ;
     1663    19242    5      SELECT(4 /* ZERO */) ;
     1664    19243    5      FMT_VEC(FDS.NVECS#) = VECTOR(ZERO_STR) ;
     1665    19244    5      SELECT(7 /* DC */) ;
     1666    19245    5      FMT_VEC(FDS.NVECS#) = VECTOR(DC_STR) ;
     1667    19246    5      END ;                       /* Do case                            */
     1668    19247    4   CLASS = 1 /* C_TEXT */ ;
     1669    19248    4   SELECT(86 /* PROTYP */) ;
     1670    19249    5   DO SELECT(TRMD$ -> KL$TRMD.PROTYP#) ;
     1671    19250    5      SELECT(%KLPT_2780#) ;
     1672    19251    5      FMT_VEC(FDS.NVECS#) = VECTOR(S2780_STR) ;
     1673    19252    5      SELECT(%KLPT_3780#) ;
     1674    19253    5      FMT_VEC(FDS.NVECS#) = VECTOR(S3780_STR) ;
     1675    19254    5      SELECT(%KLPT_HASP#) ;
     1676    19255    5      FMT_VEC(FDS.NVECS#) = VECTOR(HASP_STR) ;
     1677    19256    5      SELECT(%KLPT_POLL#) ;
     1678    19257    5      FMT_VEC(FDS.NVECS#) = VECTOR(POLLED_STR) ;
     1679    19258    5      SELECT(%KLPT_3275#);
     1680    19259    5      FMT_VEC(FDS.NVECS#) = VECTOR(S3275_STR) ;
     1681    19260    5      SELECT(%KLPT_HIP#);
     1682    19261    5      FMT_VEC(FDS.NVECS#) = VECTOR(HIP_STR);
     1683    19262    5      SELECT(%KLPT_NJE#);
     1684    19263    5      FMT_VEC(FDS.NVECS#) = VECTOR(NJE_STR);
     1685    19264    5      END ;                       /* Do case                            */
     1686    19265    4   CLASS = 1 /* C_TEXT */ ;
     1687    19266    4   SELECT(87 /* CUP_BIS */) ;
     1688    19267    4   SBINS(SBIN_IDX) = TCCHR$ -> KL$CCHR.CUP_BIS ;
     1689    19268    4   CLASS = 12 /* C_SBIN */ ;
     1690    19269
     1691    19270    4   SELECT (88 /* LSTRECCTN */);
     1692    19271    4   YES_NO = TRMD$ -> KL$TRMD.LSTRECCTN# ;
     1693    19272    4   CLASS = 2 /* C_YESNO */ ;
     1694    19273
     1695    19274    4   SELECT (105 /* ERRDUPBLK */);
     1696    19275    4   YES_NO = TRMD$ -> KL$TRMD.ERRDUPBLK# ;
PL6.E3A0      #001=ASL$DISP_ONE_PROFILE File=ASL$L_PRO.:E05TSI                   TUE 07/29/97 10:26 Page:49
     1697    19276    4   CLASS = 2 /* C_YESNO */ ;
     1698    19277
     1699    19278    4   SELECT (106 /* RRR */);
     1700    19279    4   YES_NO = TRMD$ -> KL$TRMD.RRR# ;
     1701    19280    4   CLASS = 2 /* C_YESNO */ ;
     1702    19281
     1703    19282    4   SELECT (113 /* SLC */);
     1704    19283    4   YES_NO = TRMD$ -> KL$TRMD.SLC# ;
     1705    19284    4   CLASS = 2 /* C_YESNO */ ;
     1706    19285
     1707    19286    4   SELECT (116 /* SLCALLBLK */);
     1708    19287    4   YES_NO = TRMD$ -> KL$TRMD.SLCALLBLK# ;
     1709    19288    4   CLASS = 2 /* C_YESNO */ ;
     1710    19289
     1711    19290    4   SELECT (117 /* PADSIGNON */);
     1712    19291    4   YES_NO = TRMD$ -> KL$TRMD.PADSIGNON# ;
     1713    19292    4   CLASS = 2 /* C_YESNO */ ;
     1714    19293
     1715    19294    4   SELECT (80 /* EMCHR */);
     1716    19295    4   UHEX_NUM = TRMD$ -> KL$TRMD.EMCHR# ;
     1717    19296    4   CLASS = 14 /* C_HEX */ ;
     1718    19297
     1719    19298    4   SELECT (81 /* IRSCHR */);
     1720    19299    4   UHEX_NUM = TRMD$ -> KL$TRMD.IRSCHR# ;
     1721    19300    4   CLASS = 14 /* C_HEX */ ;
     1722    19301
     1723    19302    4   SELECT(167 /* PARKCURSOR */) ;
     1724    19303    4   IF TCTL$ -> VLP$TRMCTRL.PARKCURSOR# = '01'B
     1725    19304    5   THEN DO;
     1726    19305    5      FMT_VEC(FDS.NVECS#)=VECTOR(DC_STR);
     1727    19306    5      CLASS=1 /* C_TEXT */;
     1728    19307    5      END;
     1729    19308    5   ELSE DO;
     1730    19309    5      YES_NO=TCTL$->VLP$TRMCTRL.PARKCURSOR#;
     1731    19310    5      CLASS=2 /* C_YESNO */;
     1732    19311    5      END;
     1733    19312
PL6.E3A0      #001=ASL$DISP_ONE_PROFILE File=ASL$L_PRO.:E05TSI                   TUE 07/29/97 10:26 Page:50
     1734    19313    4   SELECT(213 /* L_CURSORREAD */) ;
     1735    19314    4   IF TCTL$ -> VLP$TRMCTRL.CURSORREAD# = '01'B
     1736    19315    5   THEN DO;
     1737    19316    5      FMT_VEC(FDS.NVECS#)=VECTOR(DC_STR);
     1738    19317    5      CLASS=1 /* C_TEXT */;
     1739    19318    5      END;
     1740    19319    5   ELSE DO;
     1741    19320    5      YES_NO=TCTL$->VLP$TRMCTRL.CURSORREAD#;
     1742    19321    5      CLASS=2 /* C_YESNO */;
     1743    19322    5      END;
     1744    19323
     1745    19324    4   SELECT(214 /* L_AUTOCURSOR */) ;
     1746    19325    4   IF TCTL$ -> VLP$TRMCTRL.AUTOCURSOR# = '01'B
     1747    19326    5   THEN DO;
     1748    19327    5      FMT_VEC(FDS.NVECS#)=VECTOR(DC_STR);
     1749    19328    5      CLASS=1 /* C_TEXT */;
     1750    19329    5      END;
     1751    19330    5   ELSE DO;
     1752    19331    5      YES_NO=TCTL$->VLP$TRMCTRL.AUTOCURSOR#;
     1753    19332    5      CLASS=2 /* C_YESNO */;
     1754    19333    5      END;
     1755    19334
     1756    19335    4   SELECT(215 /* L_KEEPTYPAHD */) ;
     1757    19336    4   IF TCTL$ -> VLP$TRMCTRL.KEEPTYPAHD# = '01'B
     1758    19337    5   THEN DO;
     1759    19338    5      FMT_VEC(FDS.NVECS#)=VECTOR(DC_STR);
     1760    19339    5      CLASS=1 /* C_TEXT */;
     1761    19340    5      END;
     1762    19341    5   ELSE DO;
     1763    19342    5      YES_NO=TCTL$->VLP$TRMCTRL.KEEPTYPAHD#;
     1764    19343    5      CLASS=2 /* C_YESNO */;
     1765    19344    5      END;
     1766    19345
     1767    19346
     1768    19347    4   SELECT(89 /* CUB_CHR */) ;
     1769    19348    4   PTR$ =ADDR( TCCHR$->KL$CCHR.CUB_CHR) ;
     1770    19349    4   CLASS = 15 /*C_HEX_LIST */ ;
PL6.E3A0      #001=ASL$DISP_ONE_PROFILE File=ASL$L_PRO.:E05TSI                   TUE 07/29/97 10:26 Page:51
     1771    19350
     1772    19351    4   SELECT(90 /* CUD_CHR */) ;
     1773    19352    4   PTR$ =ADDR( TCCHR$->KL$CCHR.CUD_CHR) ;
     1774    19353    4   CLASS = 15 /*C_HEX_LIST */ ;
     1775    19354
     1776    19355    4   SELECT(91 /* CUF_CHR */) ;
     1777    19356    4   PTR$ =ADDR( TCCHR$->KL$CCHR.CUF_CHR) ;
     1778    19357    4   CLASS = 15 /*C_HEX_LIST */ ;
     1779    19358
     1780    19359    4   SELECT(92 /* CUP_CHR */) ;
     1781    19360    4   PTR$ =ADDR( TCCHR$->KL$CCHR.CUP_CHR) ;
     1782    19361    4   CLASS = 15 /*C_HEX_LIST */ ;
     1783    19362
     1784    19363    4   SELECT(93 /* CUU_CHR */) ;
     1785    19364    4   PTR$ =ADDR( TCCHR$->KL$CCHR.CUU_CHR) ;
     1786    19365    4   CLASS = 15 /*C_HEX_LIST */ ;
     1787    19366
     1788    19367    4   SELECT(94 /* DCH_CHR */) ;
     1789    19368    4   PTR$ =ADDR( TCCHR$->KL$CCHR.DCH_CHR) ;
     1790    19369    4   CLASS = 15 /*C_HEX_LIST */ ;
     1791    19370
     1792    19371    4   SELECT(95 /* ED0_CHR */) ;
     1793    19372    4   PTR$ =ADDR( TCCHR$->KL$CCHR.ED0_CHR) ;
     1794    19373    4   CLASS = 15 /*C_HEX_LIST */ ;
     1795    19374
     1796    19375    4   SELECT(96 /* ED2_CHR */) ;
     1797    19376    4   PTR$ =ADDR( TCCHR$->KL$CCHR.ED2_CHR) ;
     1798    19377    4   CLASS = 15 /*C_HEX_LIST */ ;
     1799    19378
     1800    19379    4   SELECT(97 /* EL0_CHR */) ;
     1801    19380    4   PTR$ =ADDR( TCCHR$->KL$CCHR.EL0_CHR) ;
     1802    19381    4   CLASS = 15 /*C_HEX_LIST */ ;
     1803    19382
     1804    19383    4   SELECT(98 /* FRMFED_CHR */) ;
     1805    19384    4   IF PRO_TYP = ASL_3270_TYP
     1806    19385    5   THEN DO;
     1807    19386    5      YES_NO = KL$3270.FRMFED;
PL6.E3A0      #001=ASL$DISP_ONE_PROFILE File=ASL$L_PRO.:E05TSI                   TUE 07/29/97 10:26 Page:52
     1808    19387    5      CLASS = 2 /* C_YESNO */ ;
     1809    19388    5      END;
     1810    19389    5   ELSE DO;
     1811    19390    5      PTR$ =ADDR( TCCHR$->KL$CCHR.FRMFED_CHR) ;
     1812    19391    5      CLASS = 15 /*C_HEX_LIST */ ;
     1813    19392    5      END;
     1814    19393
     1815    19394    4   SELECT(99 /* HOM_CHR */) ;
     1816    19395    4   PTR$ =ADDR( TCCHR$->KL$CCHR.HOM_CHR) ;
     1817    19396    4   CLASS = 15 /*C_HEX_LIST */ ;
     1818    19397
     1819    19398    4   SELECT(100 /* HTS_CHR */) ;
     1820    19399    4   PTR$ =ADDR( TCCHR$->KL$CCHR.HTS_CHR) ;
     1821    19400    4   CLASS = 15 /*C_HEX_LIST */ ;
     1822    19401
     1823    19402    4   SELECT(101 /* ICH_CHR */) ;
     1824    19403    4   PTR$ =ADDR( TCCHR$->KL$CCHR.ICH_CHR) ;
     1825    19404    4   CLASS = 15 /*C_HEX_LIST */ ;
     1826    19405
     1827    19406    4   SELECT(102 /* RSTINSMOD_CHR */) ;
     1828    19407    4   PTR$ =ADDR( TCCHR$->KL$CCHR.RSTINSMOD_CHR) ;
     1829    19408    4   CLASS = 15 /*C_HEX_LIST */ ;
     1830    19409
     1831    19410    4   SELECT(103 /* SETFRMLNG_CHR */) ;
     1832    19411    4   PTR$ =ADDR( TCCHR$->KL$CCHR.SETFRMLNG_CHR) ;
     1833    19412    4   CLASS = 15 /*C_HEX_LIST */ ;
     1834    19413
     1835    19414    4   SELECT(104 /* TBC3_CHR */) ;
     1836    19415    4   PTR$ =ADDR( TCCHR$->KL$CCHR.TBC3_CHR) ;
     1837    19416    4   CLASS = 15 /*C_HEX_LIST */ ;
     1838    19417
     1839    19418    4   SELECT(107 /* INTERVAL */) ;
     1840    19419    4   SBINS(SBIN_IDX) = TRMD$ -> KL$TRMD.INTERVAL# ;
     1841    19420    4   CLASS = 12 /* C_SBIN */ ;
     1842    19421    4   SELECT(108 /* COMPRESSION */);
     1843    19422    5   DO SELECT(TRMD$ -> KL$TRMD.COMPRESS# );
     1844    19423    5      SELECT( %KLCO_NO# );
PL6.E3A0      #001=ASL$DISP_ONE_PROFILE File=ASL$L_PRO.:E05TSI                   TUE 07/29/97 10:26 Page:53
     1845    19424    5      FMT_VEC(FDS.NVECS#) = VECTOR(NO_STR) ;
     1846    19425    5      SELECT( %KLCO_YES# );
     1847    19426    5      FMT_VEC(FDS.NVECS#) = VECTOR(YES_STR) ;
     1848    19427    5      SELECT( %KLCO_LINE# );
     1849    19428    5      FMT_VEC(FDS.NVECS#) = VECTOR(LINE_STR) ;
     1850    19429    5      SELECT( %KLCO_BLANKS# );
     1851    19430    5      FMT_VEC(FDS.NVECS#) = VECTOR(BLANKS_STR) ;
     1852    19431    5      END;
     1853    19432    4   CLASS = 1 /* C_TEXT */ ;
     1854    19433    4   SELECT ( 109 /* TIMEOUT*/ );
     1855    19434    4   SBINS(SBIN_IDX) = LINK$ -> KL$LINK.TMT# ;
     1856    19435    4   CLASS = 12 /* C_SBIN */ ;
     1857    19436
     1858    19437    4   SELECT(110 /* RETRANSMISSIONS */);
     1859    19438    4   SBINS(SBIN_IDX) = LINK$ -> KL$LINK.RTR# ;
     1860    19439    4   CLASS = 12 /* C_SBIN */ ;
     1861    19440    4   SELECT(111 /* WINDOW */);
     1862    19441    4   SBINS(SBIN_IDX) = LINK$ -> KL$LINK.WND# ;
     1863    19442    4   CLASS = 12 /* C_SBIN */ ;
     1864    19443
     1865    19444    4   SELECT ( 112 /* FRAME */ );
     1866    19445    5   DO SELECT(LINK$ -> KL$LINK.FRMSIZ#);
     1867    19446    5      SELECT(%KLX25_SIZ_128#);
     1868    19447    5      FMT_VEC(FDS.NVECS#) = VECTOR(V128_STR);
     1869    19448    5      SELECT(%KLX25_SIZ_256#);
     1870    19449    5      FMT_VEC(FDS.NVECS#) = VECTOR(V256_STR);
     1871    19450    5      SELECT(%KLX25_SIZ_512#);
     1872    19451    5      FMT_VEC(FDS.NVECS#) = VECTOR(V512_STR);
     1873    19452    5      SELECT(%KLX25_SIZ_1024#);
     1874    19453    5      FMT_VEC(FDS.NVECS#) = VECTOR(V1024_STR);
     1875    19454    5      SELECT(%KLX25_SIZ_2048#);
     1876    19455    5      FMT_VEC(FDS.NVECS#) = VECTOR(V2048_STR);
     1877    19456    5      SELECT(%KLX25_SIZ_4096#);
     1878    19457    5      FMT_VEC(FDS.NVECS#) = VECTOR(V4096_STR);
     1879    19458    5      END;
     1880    19459    4   CLASS = 1 /* C_TEXT */;
     1881    19460
PL6.E3A0      #001=ASL$DISP_ONE_PROFILE File=ASL$L_PRO.:E05TSI                   TUE 07/29/97 10:26 Page:54
     1882    19461    4   SELECT(114 /* CALLS */);
     1883    19462    5   DO SELECT(LINK$ -> KL$LINK.CLS#);
     1884    19463    5      SELECT(%KLX25_CLS_NONE#);
     1885    19464    5      FMT_VEC(FDS.NVECS#) = VECTOR(NONE_STR);
     1886    19465    5      SELECT(%KLX25_CLS_X25#);
     1887    19466    5      FMT_VEC(FDS.NVECS#) = VECTOR(X25_STR);
     1888    19467    5      SELECT(%KLX25_CLS_X29#);
     1889    19468    5      FMT_VEC(FDS.NVECS#) = VECTOR(X29_STR);
     1890    19469    5      SELECT(%KLX25_CLS_ALL#);
     1891    19470    5      FMT_VEC(FDS.NVECS#) = VECTOR(ALL_STR);
     1892    19471    5      END;
     1893    19472    4   CLASS = 1 /* C_TEXT */;
     1894    19473    4   SELECT(115 /* REVERSE */);
     1895    19474    4   IF DSEG1$ -> PRO$HDR.TTYP = %KLTY_VIRCIR#
     1896    19475    5   THEN DO;
     1897    19476    6      DO SELECT( VIRCIR$ -> KL$VIRCIR.RVR# );
     1898    19477    6         SELECT( %KLX25_RVR_TRY# );
     1899    19478    6         FMT_VEC(FDS.NVECS#) = VECTOR(TRY_STR);
     1900    19479    6         SELECT( %KLX25_RVR_NO# );
     1901    19480    6         FMT_VEC(FDS.NVECS#) = VECTOR(NO_STR);
     1902    19481    6         SELECT( %KLX25_RVR_YES# );
     1903    19482    6         FMT_VEC(FDS.NVECS#) = VECTOR(YES_STR);
     1904    19483    6         END ;
     1905    19484    5      CLASS = 1 /* C_TEXT */;
     1906    19485    5      END;
     1907    19486    5   ELSE DO;
     1908    19487    5      YES_NO = LINK$ -> KL$LINK.RVR# ;
     1909    19488    5      CLASS = 2 /* C_YESNO */ ;
     1910    19489    5      END;
     1911    19490
     1912    19491    4   SELECT( 118 /* MAXWINDOW */ ) ;
     1913    19492    4   SBINS( SBIN_IDX ) = LINK$ -> KL$LINK.MAXWND# ;
     1914    19493    4   CLASS = 12 /* C_SBIN */ ;
     1915    19494    4   SELECT( 119 /* RESPDELAY */ ) ;
     1916    19495    4   IF DSEG1$ -> PRO$HDR.TTYP = %KLTY_VIRCIR#
     1917    19496    4   THEN SBINS(SBIN_IDX) = VIRCIR$ -> KL$VIRCIR.RSPDLY#;
     1918    19497    4   ELSE SBINS( SBIN_IDX ) = LINK$ -> KL$LINK.RSPDLY# ;
PL6.E3A0      #001=ASL$DISP_ONE_PROFILE File=ASL$L_PRO.:E05TSI                   TUE 07/29/97 10:26 Page:55
     1919    19498    4   CLASS = 12 /* C_SBIN */ ;
     1920    19499
     1921    19500    4   SELECT ( 211 /* L_CALL_RETRYS */ );
     1922    19501
     1923    19502    4   SBINS(SBIN_IDX) = VIRCIR$ -> KL$VIRCIR.CRTR#;
     1924    19503    4   CLASS = 12 /* C_SBIN */ ;
     1925    19504
     1926    19505    4   SELECT ( 210 /* L_CALL_TIM */ );
     1927    19506
     1928    19507    4   SBINS(SBIN_IDX) = VIRCIR$ -> KL$VIRCIR.CTMT#;
     1929    19508    4   CLASS = 12 /* C_SBIN */ ;
     1930    19509
     1931    19510    4   SELECT ( 200 /* L_CHA_INFO */ ) ;
     1932    19511
     1933    19512    4   IF DSEG1$ -> PRO$HDR.TTYP = %KLTY_LINK# THEN
     1934    19513    4      YES_NO = LINK$ -> KL$LINK.CHARGE# ;
     1935    19514    4   ELSE
     1936    19515    4      YES_NO = VIRCIR$ -> KL$VIRCIR.CHARGE# ;
     1937    19516    4   CLASS = 2 /* C_YESNO */ ;
     1938    19517
     1939    19518    4   SELECT ( 205 /* L_CLEAR_RETRYS */ );
     1940    19519
     1941    19520    4   SBINS(SBIN_IDX) = VIRCIR$ -> KL$VIRCIR.CLRRET#;
     1942    19521    4   CLASS = 12 /* C_SBIN */ ;
     1943    19522
     1944    19523    4   SELECT ( 204 /* L_CLEAR_TIM */ );
     1945    19524
     1946    19525    4   SBINS(SBIN_IDX) = VIRCIR$ -> KL$VIRCIR.CLRTIM#;
     1947    19526    4   CLASS = 12 /* C_SBIN */ ;
     1948    19527
     1949    19528    4   SELECT ( 207 /* L_DATA_RETRYS */ );
     1950    19529
     1951    19530    4   SBINS(SBIN_IDX) = VIRCIR$ -> KL$VIRCIR.DATRET#;
     1952    19531    4   CLASS = 12 /* C_SBIN */ ;
     1953    19532
     1954    19533    4   SELECT ( 206 /* L_DATA_TIM */ );
     1955    19534
PL6.E3A0      #001=ASL$DISP_ONE_PROFILE File=ASL$L_PRO.:E05TSI                   TUE 07/29/97 10:26 Page:56
     1956    19535    4   SBINS(SBIN_IDX) = VIRCIR$ -> KL$VIRCIR.DATTIM#;
     1957    19536    4   CLASS = 12 /* C_SBIN */ ;
     1958    19537
     1959    19538    4   SELECT ( 199 /* L_EXT_SEQ */ ) ;
     1960    19539
     1961    19540    4   IF DSEG1$ -> PRO$HDR.TTYP = %KLTY_LINK# THEN
     1962    19541    4      YES_NO = LINK$ -> KL$LINK.EXTSEQ# ;
     1963    19542    4   ELSE
     1964    19543    4      YES_NO = VIRCIR$ -> KL$VIRCIR.EXTSEQ# ;
     1965    19544    4   CLASS = 2 /* C_YESNO */ ;
     1966    19545
     1967    19546    4   SELECT ( 176 /* FAST SELECT ACCEPT */ ) ;
     1968    19547
     1969    19548    4   YES_NO = LINK$ -> KL$LINK.FSA# ;
     1970    19549    4   CLASS = 2 /* C_YESNO */ ;
     1971    19550
     1972    19551    4   SELECT ( 209 /* L_IDLE_TIM */ ) ;
     1973    19552
     1974    19553    4   IF DSEG1$ -> PRO$HDR.TTYP = %KLTY_LINK# THEN
     1975    19554    4      SBINS (SBIN_IDX) = LINK$ -> KL$LINK.IDLTIM# ;
     1976    19555    4   ELSE
     1977    19556    4      SBINS (SBIN_IDX) = VIRCIR$ -> KL$VIRCIR.IDLTIM# ;
     1978    19557    4   CLASS = 12 /* C_SBIN */ ;
     1979    19558
     1980    19559    4   SELECT ( 208 /* L_INT_TIM */ );
     1981    19560
     1982    19561    4   SBINS(SBIN_IDX) = VIRCIR$ -> KL$VIRCIR.INTTIM#;
     1983    19562    4   CLASS = 12 /* C_SBIN */ ;
     1984    19563
     1985    19564
     1986    19565    4   SELECT ( 203 /* L_RESET_RETRYS */ );
     1987    19566
     1988    19567    4   SBINS(SBIN_IDX) = VIRCIR$ -> KL$VIRCIR.RESRET#;
     1989    19568    4   CLASS = 12 /* C_SBIN */ ;
     1990    19569
     1991    19570    4   SELECT ( 202 /* L_RESET_TIM */ );
     1992    19571
PL6.E3A0      #001=ASL$DISP_ONE_PROFILE File=ASL$L_PRO.:E05TSI                   TUE 07/29/97 10:26 Page:57
     1993    19572    4   SBINS(SBIN_IDX) = VIRCIR$ -> KL$VIRCIR.RESTIM#;
     1994    19573    4   CLASS = 12 /* C_SBIN */ ;
     1995    19574
     1996    19575    4   SELECT ( 121 /* RESTART_RETRYS */ );
     1997    19576
     1998    19577    4   SBINS(SBIN_IDX) = LINK$ -> KL$LINK.RESRTY#;
     1999    19578    4   CLASS = 12 /* C_SBIN */ ;
     2000    19579
     2001    19580    4   SELECT ( 120 /* RESTART_TIM */ );
     2002    19581
     2003    19582    4   SBINS(SBIN_IDX) = LINK$ -> KL$LINK.RESTIM#;
     2004    19583    4   CLASS = 12 /* C_SBIN */ ;
     2005    19584
     2006    19585    4   SELECT ( 201 /* L_TRANS_DEL */ );
     2007    19586
     2008    19587    4   SBINS(SBIN_IDX) = 0 ;
     2009    19588    4   SPLIT$ = ADDR (SBINS(SBIN_IDX)) ;
     2010    19589    4   KL$UBWORD.NUM = BITBIN (VIRCIR$ -> KL$VIRCIR.TRADEL) ;
     2011    19590    4   SPLIT$ -> KL$UWORD.T = KL$UBWORD.REPLACE.T ;
     2012    19591    4   SPLIT$ -> KL$UWORD.B = KL$UBWORD.REPLACE.B ;
     2013    19592    4   CLASS = 12 /* C_SBIN */ ;
     2014    19593
     2015    19594
     2016    19595
     2017    19596    4   SELECT( 169 /* RECEIVE SIZE */ ) ;
     2018    19597    5   DO SELECT( VIRCIR$ -> KL$VIRCIR.RCVSIZ#);
     2019    19598    5      SELECT( %KLX25_SIZ_128# );
     2020    19599    5      FMT_VEC(FDS.NVECS#) = VECTOR(V128_STR);
     2021    19600    5      SELECT( %KLX25_SIZ_256# );
     2022    19601    5      FMT_VEC(FDS.NVECS#) = VECTOR(V256_STR);
     2023    19602    5      SELECT( %KLX25_SIZ_512# );
     2024    19603    5      FMT_VEC(FDS.NVECS#) = VECTOR(V512_STR);
     2025    19604    5      SELECT( %KLX25_SIZ_1024# );
     2026    19605    5      FMT_VEC(FDS.NVECS#) = VECTOR(V1024_STR);
     2027    19606    5      SELECT(%KLX25_SIZ_2048#);
     2028    19607    5      FMT_VEC(FDS.NVECS#) = VECTOR(V2048_STR);
     2029    19608    5      SELECT(%KLX25_SIZ_4096#);
PL6.E3A0      #001=ASL$DISP_ONE_PROFILE File=ASL$L_PRO.:E05TSI                   TUE 07/29/97 10:26 Page:58
     2030    19609    5      FMT_VEC(FDS.NVECS#) = VECTOR(V4096_STR);
     2031    19610    5      END;
     2032    19611    4   CLASS = 1 /* C_TEXT */ ;
     2033    19612
     2034    19613    4   SELECT( 170 /* RECEIVE THROUGHPUT */ );
     2035    19614    5   DO SELECT( VIRCIR$ -> KL$VIRCIR.RCVTHR#);
     2036    19615    5      SELECT( %KLX25_THR_NONE# );
     2037    19616    5      FMT_VEC(FDS.NVECS#) = VECTOR(NONE_STR);
     2038    19617    5      SELECT( %KLX25_THR_75# );
     2039    19618    5      FMT_VEC(FDS.NVECS#) = VECTOR(VC75_STR);
     2040    19619    5      SELECT( %KLX25_THR_150# );
     2041    19620    5      FMT_VEC(FDS.NVECS#) = VECTOR(VC150_STR);
     2042    19621    5      SELECT( %KLX25_THR_300# );
     2043    19622    5      FMT_VEC(FDS.NVECS#) = VECTOR(VC300_STR);
     2044    19623    5      SELECT( %KLX25_THR_600# );
     2045    19624    5      FMT_VEC(FDS.NVECS#) = VECTOR(VC600_STR);
     2046    19625    5      SELECT( %KLX25_THR_1200# );
     2047    19626    5      FMT_VEC(FDS.NVECS#) = VECTOR(VC1200_STR);
     2048    19627    5      SELECT( %KLX25_THR_2400# );
     2049    19628    5      FMT_VEC(FDS.NVECS#) = VECTOR(VC2400_STR);
     2050    19629    5      SELECT( %KLX25_THR_4800# );
     2051    19630    5      FMT_VEC(FDS.NVECS#) = VECTOR(VC4800_STR);
     2052    19631    5      SELECT( %KLX25_THR_9600# );
     2053    19632    5      FMT_VEC(FDS.NVECS#) = VECTOR(VC9600_STR);
     2054    19633    5      SELECT( %KLX25_THR_19200# );
     2055    19634    5      FMT_VEC(FDS.NVECS#) = VECTOR(VC19200_STR);
     2056    19635    5      SELECT( %KLX25_THR_48000# );
     2057    19636    5      FMT_VEC(FDS.NVECS#) = VECTOR(VC48000_STR);
     2058    19637    5      END ;
     2059    19638    4   CLASS = 1 /* C_TEXT */ ;
     2060    19639    4   SELECT( 171 /* RECEIVE WINDOW */ );
     2061    19640    4   SBINS( SBIN_IDX ) = VIRCIR$ -> KL$VIRCIR.RCVWND# ;
     2062    19641    4   CLASS = 12 /* C_SBIN */ ;
     2063    19642    4   SELECT( 172 /* RESPOND TO COMPLETE */ ) ;
     2064    19643    4   YES_NO = VIRCIR$ -> KL$VIRCIR.RSPTOCMP# ;
     2065    19644    4   CLASS = 2 /* C_YESNO */;
     2066    19645
PL6.E3A0      #001=ASL$DISP_ONE_PROFILE File=ASL$L_PRO.:E05TSI                   TUE 07/29/97 10:26 Page:59
     2067    19646    4   SELECT( 173 /* SEND SIZE */ ) ;
     2068    19647    5   DO SELECT( VIRCIR$ -> KL$VIRCIR.SNDSIZ#);
     2069    19648    5      SELECT( %KLX25_SIZ_128# );
     2070    19649    5      FMT_VEC(FDS.NVECS#) = VECTOR(V128_STR);
     2071    19650    5      SELECT( %KLX25_SIZ_256# );
     2072    19651    5      FMT_VEC(FDS.NVECS#) = VECTOR(V256_STR);
     2073    19652    5      SELECT( %KLX25_SIZ_512# );
     2074    19653    5      FMT_VEC(FDS.NVECS#) = VECTOR(V512_STR);
     2075    19654    5      SELECT( %KLX25_SIZ_1024# );
     2076    19655    5      FMT_VEC(FDS.NVECS#) = VECTOR(V1024_STR);
     2077    19656    5      SELECT(%KLX25_SIZ_2048#);
     2078    19657    5      FMT_VEC(FDS.NVECS#) = VECTOR(V2048_STR);
     2079    19658    5      SELECT(%KLX25_SIZ_4096#);
     2080    19659    5      FMT_VEC(FDS.NVECS#) = VECTOR(V4096_STR);
     2081    19660    5      END;
     2082    19661    4   CLASS = 1 /* C_TEXT */ ;
     2083    19662
     2084    19663    4   SELECT( 174 /* SEND THROUGHPUT */ );
     2085    19664    5   DO SELECT( VIRCIR$ -> KL$VIRCIR.SNDTHR#);
     2086    19665    5      SELECT( %KLX25_THR_NONE# );
     2087    19666    5      FMT_VEC(FDS.NVECS#) = VECTOR(NONE_STR);
     2088    19667    5      SELECT( %KLX25_THR_75# );
     2089    19668    5      FMT_VEC(FDS.NVECS#) = VECTOR(VC75_STR);
     2090    19669    5      SELECT( %KLX25_THR_150# );
     2091    19670    5      FMT_VEC(FDS.NVECS#) = VECTOR(VC150_STR);
     2092    19671    5      SELECT( %KLX25_THR_300# );
     2093    19672    5      FMT_VEC(FDS.NVECS#) = VECTOR(VC300_STR);
     2094    19673    5      SELECT( %KLX25_THR_600# );
     2095    19674    5      FMT_VEC(FDS.NVECS#) = VECTOR(VC600_STR);
     2096    19675    5      SELECT( %KLX25_THR_1200# );
     2097    19676    5      FMT_VEC(FDS.NVECS#) = VECTOR(VC1200_STR);
     2098    19677    5      SELECT( %KLX25_THR_2400# );
     2099    19678    5      FMT_VEC(FDS.NVECS#) = VECTOR(VC2400_STR);
     2100    19679    5      SELECT( %KLX25_THR_4800# );
     2101    19680    5      FMT_VEC(FDS.NVECS#) = VECTOR(VC4800_STR);
     2102    19681    5      SELECT( %KLX25_THR_9600# );
     2103    19682    5      FMT_VEC(FDS.NVECS#) = VECTOR(VC9600_STR);
PL6.E3A0      #001=ASL$DISP_ONE_PROFILE File=ASL$L_PRO.:E05TSI                   TUE 07/29/97 10:26 Page:60
     2104    19683    5      SELECT( %KLX25_THR_19200# );
     2105    19684    5      FMT_VEC(FDS.NVECS#) = VECTOR(VC19200_STR);
     2106    19685    5      SELECT( %KLX25_THR_48000# );
     2107    19686    5      FMT_VEC(FDS.NVECS#) = VECTOR(VC48000_STR);
     2108    19687    5      END ;
     2109    19688    4   CLASS = 1 /* C_TEXT */ ;
     2110    19689    4   SELECT( 175 /* SEND WINDOW */ );
     2111    19690    4   SBINS( SBIN_IDX ) = VIRCIR$ -> KL$VIRCIR.SNDWND# ;
     2112    19691    4   CLASS = 12 /* C_SBIN */ ;
     2113    19692    4   SELECT( 177 /* RESPONSE TIMER */ );
     2114    19693    4   SBINS( SBIN_IDX ) = VIRCIR$ -> KL$VIRCIR.RSPTMR# ;
     2115    19694    4   CLASS = 12 /* C_SBIN */ ;
     2116    19695
     2117    19696    4   SELECT( 122 /* MAXATRS */ );
     2118    19697    4   IF TATR$ -> VLP$TRMATTR.MAXATRS# = 255
     2119    19698    5   THEN DO;
     2120    19699    5      FMT_VEC (FDS.NVECS#) = VECTOR (DC_STR);
     2121    19700    5      CLASS = 1 /* C_TEXT */;
     2122    19701    5      END;
     2123    19702    5   ELSE DO;
     2124    19703    5      SBINS (SBIN_IDX) = TATR$ -> VLP$TRMATTR.MAXATRS#;
     2125    19704    5      CLASS = 12 /* C_SBIN */;
     2126    19705    5      END;
     2127    19706
     2128    19707    4   SELECT( 123 /* ATRSCRNPOS */ );
     2129    19708    4   IF TATR$ -> VLP$TRMATTR.ATRSCRNPOS# = '01'B
     2130    19709    5   THEN DO;
     2131    19710    5      FMT_VEC(FDS.NVECS#)=VECTOR(DC_STR);
     2132    19711    5      CLASS=1 /* C_TEXT */;
     2133    19712    5      END;
     2134    19713    5   ELSE DO;
     2135    19714    5      YES_NO=TATR$->VLP$TRMATTR.ATRSCRNPOS#;
     2136    19715    5      CLASS=2 /* C_YESNO */;
     2137    19716    5      END;
     2138    19717    4   SELECT( 124 /* SGR_ALG */ );
     2139    19718    4   VDH_ALG_TYPE = TCCHR$ -> KL$CCHR.SGR_ALG#;
     2140    19719    4   CLASS = 16 /* C_VDH_ALG_TYPE */;
PL6.E3A0      #001=ASL$DISP_ONE_PROFILE File=ASL$L_PRO.:E05TSI                   TUE 07/29/97 10:26 Page:61
     2141    19720    4   SELECT( 125 /* DAQ_ALG */ );
     2142    19721    4   VDH_ALG_TYPE = TCCHR$ -> KL$CCHR.DAQ_ALG#;
     2143    19722    4   CLASS = 16 /* C_VDH_ALG_TYPE */;
     2144    19723
     2145    19724    4   SELECT( 126 /* SGRINTRO_CHR */ );
     2146    19725    4   PTR$ =ADDR( TCCHR$ -> KL$CCHR.SGRINTRO_CHR#) ;
     2147    19726    4   CLASS = 15 /*C_HEX_LIST */;
     2148    19727
     2149    19728    4   SELECT( 127 /* DAQINTRO_CHR */ );
     2150    19729    4   PTR$ =ADDR( TCCHR$ -> KL$CCHR.DAQINTRO_CHR#) ;
     2151    19730    4   CLASS = 15 /*C_HEX_LIST */;
     2152    19731
     2153    19732    4   SELECT( 128 /* SGRINCDAQ */ );
     2154    19733    4   YES_NO = TCCHR$ -> KL$CCHR.SGRINCDAQ#;
     2155    19734    4   CLASS = 2 /* C_YESNO */;
     2156    19735
     2157    19736    4   SELECT( 129 /* DFLTPRTMODE */ );
     2158    19737    4   IF TCCHR$->KL$CCHR.DFLTPRTMODE# THEN
     2159    19738    4      FMT_VEC(FDS.NVECS#) = VECTOR(PROTECT_STR);
     2160    19739    4   ELSE
     2161    19740    4      FMT_VEC(FDS.NVECS#) = VECTOR(UNPROTECT_STR);
     2162    19741    4   CLASS = 1 /* C_TEXT */;
     2163    19742
     2164    19743    4   SELECT( 130 /* DCLFLD_ALG */ );
     2165    19744    4   VDH_ALG_TYPE = TCCHR$ -> KL$CCHR.DCLFLD_ALG#;
     2166    19745    4   CLASS = 16 /* C_VDH_ALG_TYPE */;
     2167    19746
     2168    19747    4   SELECT( 131 /* DCLFRM_CHR */ );
     2169    19748    4   PTR$ =ADDR( TCCHR$ -> KL$CCHR.DCLFRM_CHR#) ;
     2170    19749    4   CLASS = 15 /*C_HEX_LIST */;
     2171    19750
     2172    19751    4   SELECT( 132 /* ENDDCLFRM_CHR */ );
     2173    19752    4   PTR$ =ADDR( TCCHR$ -> KL$CCHR.ENDDCLFRM_CHR#) ;
     2174    19753    4   CLASS = 15 /*C_HEX_LIST */;
     2175    19754
     2176    19755    4   SELECT( 133 /* RESTORE_DFLTSCRN_CHR */ );
     2177    19756    4   PTR$ =ADDR( TCCHR$ -> KL$CCHR.RESTORE_DFLTSCRN_CHR#) ;
PL6.E3A0      #001=ASL$DISP_ONE_PROFILE File=ASL$L_PRO.:E05TSI                   TUE 07/29/97 10:26 Page:62
     2178    19757    4   CLASS = 15 /*C_HEX_LIST */;
     2179    19758
     2180    19759    4   SELECT( 134 /* SGRHDN_CHR */ );
     2181    19760    4   UHEX_NUM = TCCHR$ -> KL$CCHR.SGRHDN_CHR#;
     2182    19761    4   CLASS = 14 /* C_HEX */;
     2183    19762    4   SELECT( 135 /* SGRINCINT_CHR */ );
     2184    19763    4   UHEX_NUM = TCCHR$ -> KL$CCHR.SGRINCINT_CHR#;
     2185    19764    4   CLASS = 14 /* C_HEX */;
     2186    19765    4   SELECT( 136 /* SGRDCRINT_CHR */ );
     2187    19766    4   UHEX_NUM = TCCHR$ -> KL$CCHR.SGRDCRINT_CHR#;
     2188    19767    4   CLASS = 14 /* C_HEX */;
     2189    19768    4   SELECT( 137 /* SGRUNDSCR_CHR */ );
     2190    19769    4   UHEX_NUM = TCCHR$ -> KL$CCHR.SGRUNDSCR_CHR#;
     2191    19770    4   CLASS = 14 /* C_HEX */;
     2192    19771    4   SELECT( 138 /* SGRSLWBLN_CHR */ );
     2193    19772    4   UHEX_NUM = TCCHR$ -> KL$CCHR.SGRSLWBLN_CHR#;
     2194    19773    4   CLASS = 14 /* C_HEX */;
     2195    19774    4   SELECT( 139 /* SGRFSTBLN_CHR */ );
     2196    19775    4   UHEX_NUM = TCCHR$ -> KL$CCHR.SGRFSTBLN_CHR#;
     2197    19776    4   CLASS = 14 /* C_HEX */;
     2198    19777    4   SELECT( 140 /* SGRRVRVID_CHR */ );
     2199    19778    4   UHEX_NUM = TCCHR$ -> KL$CCHR.SGRRVRVID_CHR#;
     2200    19779    4   CLASS = 14 /* C_HEX */;
     2201    19780    4   SELECT( 141 /* SGRPRT_CHR */ );
     2202    19781    4   UHEX_NUM = TCCHR$ -> KL$CCHR.SGRPRT_CHR#;
     2203    19782    4   CLASS = 14 /* C_HEX */;
     2204    19783    4   SELECT( 142 /* SGRINP_CHR */ );
     2205    19784    4   UHEX_NUM = TCCHR$ -> KL$CCHR.SGRINP_CHR#;
     2206    19785    4   CLASS = 14 /* C_HEX */;
     2207    19786    4   SELECT( 143 /* SGRPRTGRD_CHR */ );
     2208    19787    4   UHEX_NUM = TCCHR$ -> KL$CCHR.SGRPRTGRD_CHR#;
     2209    19788    4   CLASS = 14 /* C_HEX */;
     2210    19789    4   SELECT( 144 /* DAQPRT_CHR */ );
     2211    19790    4   UHEX_NUM = TCCHR$ -> KL$CCHR.DAQPRT_CHR#;
     2212    19791    4   CLASS = 14 /* C_HEX */;
     2213    19792    4   SELECT( 145 /* DAQINP_CHR */ );
     2214    19793    4   UHEX_NUM = TCCHR$ -> KL$CCHR.DAQINP_CHR#;
PL6.E3A0      #001=ASL$DISP_ONE_PROFILE File=ASL$L_PRO.:E05TSI                   TUE 07/29/97 10:26 Page:63
     2215    19794    4   CLASS = 14 /* C_HEX */;
     2216    19795    4   SELECT( 146 /* DAQPRTGRD_CHR */ );
     2217    19796    4   UHEX_NUM = TCCHR$ -> KL$CCHR.DAQPRTGRD_CHR#;
     2218    19797    4   CLASS = 14 /* C_HEX */;
     2219    19798
     2220    19799    4   SELECT( 147 /* DLTALLFLDS_CHR */ );
     2221    19800    4   PTR$ =ADDR( TCCHR$ -> KL$CCHR.DLTALLFLDS_CHR#) ;
     2222    19801    4   CLASS = 15 /*C_HEX_LIST */;
     2223    19802
     2224    19803    4   SELECT( 148 /* INSLIN_CHR */ );
     2225    19804    4   PTR$ =ADDR( TCCHR$ -> KL$CCHR.INSLIN_CHR#) ;
     2226    19805    4   CLASS = 15 /*C_HEX_LIST */;
     2227    19806
     2228    19807    4   SELECT( 149 /* DLTLIN_CHR */ );
     2229    19808    4   PTR$ =ADDR( TCCHR$ -> KL$CCHR.DLTLIN_CHR#) ;
     2230    19809    4   CLASS = 15 /*C_HEX_LIST */;
     2231    19810
     2232    19811    4   SELECT( 150 /* ERASEFLD_CHR */ );
     2233    19812    4   PTR$ =ADDR( TCCHR$ -> KL$CCHR.ERASEFLD_CHR#) ;
     2234    19813    4   CLASS = 15 /*C_HEX_LIST */;
     2235    19814
     2236    19815    4   SELECT( 151 /* DLTFLD_CHR */ );
     2237    19816    4   PTR$ =ADDR( TCCHR$ -> KL$CCHR.DLTFLD_CHR#) ;
     2238    19817    4   CLASS = 15 /*C_HEX_LIST */;
     2239    19818
     2240    19819    4   SELECT( 152 /* FLDTRM */ );
     2241    19820    4   IF TATR$ -> VLP$TRMATTR.NO_FLDTRM# = '01'B THEN
     2242    19821    4      FMT_VEC(FDS.NVECS#)=VECTOR(DC_STR);
     2243    19822    4   ELSE
     2244    19823    4      IF TATR$->VLP$TRMATTR.NO_FLDTRM# THEN
     2245    19824    4         FMT_VEC(FDS.NVECS#) = VECTOR(PAGE_STR);
     2246    19825    4      ELSE
     2247    19826    4         FMT_VEC(FDS.NVECS#) = VECTOR(LINE_STR);
     2248    19827    4   CLASS = 1 /* C_TEXT */;
     2249    19828    4   SELECT( 153 /* EWALT */ );
     2250    19829    4   YES_NO = KL$3270.EWALT#;
     2251    19830    4   CLASS  = 2 /* C_YESNO */;
PL6.E3A0      #001=ASL$DISP_ONE_PROFILE File=ASL$L_PRO.:E05TSI                   TUE 07/29/97 10:26 Page:64
     2252    19831    4   SELECT( 154 /* SIOPT */ );
     2253    19832    4   YES_NO = KL$3270.SIOPT#;
     2254    19833    4   CLASS  = 2 /* C_YESNO */;
     2255    19834    4   SELECT( 155 /* ABSGRPRND_NULL */,
     2256    19835    4        156 /* ABSGRPRND_HIDDEN */,
     2257    19836    4        157 /* ABSGRPRND_EMPHASIS */,
     2258    19837    4        158 /* ABSGRPRND_INPUT */,
     2259    19838    4        159 /* ABSGRPRND_OUTPUT */,
     2260    19839    4        160 /* ABSGRPRND_ERROR */,
     2261    19840    4        161 /* ABSGRPRND_WARNING */ );
     2262    19841    4   KL_ABSGRPRND$ = ABSGRPRND$(NEXT-155 /* ABSGRPRND_NULL */+1);
     2263    19842    4   IF KL$ABSGRPRND.FLAGS THEN
     2264    19843    4      CLASS = 17 /* C_ABSGRPRND */;
     2265    19844    5   ELSE DO;
     2266    19845    5      FMT_VEC(FDS.NVECS#) = VECTOR(NONE_SET_STR);
     2267    19846    5      CLASS = 1 /* C_TEXT */;
     2268    19847    5      END;
     2269    19848
     2270    19849    4   SELECT(163 /* SPCBFRPRT */) ;
     2271    19850    4   IF TATR$ -> VLP$TRMATTR.SPCBFRPRT# = '01'B
     2272    19851    5   THEN DO;
     2273    19852    5      FMT_VEC(FDS.NVECS#)=VECTOR(DC_STR);
     2274    19853    5      CLASS=1 /* C_TEXT */;
     2275    19854    5      END;
     2276    19855    5   ELSE DO;
     2277    19856    5      YES_NO=TATR$->VLP$TRMATTR.SPCBFRPRT#;
     2278    19857    5      CLASS=2 /* C_YESNO */;
     2279    19858    5      END;
     2280    19859
     2281    19860    4   SELECT(165 /* LIMBOCLM */) ;
     2282    19861    4   IF TATR$ -> VLP$TRMATTR.LIMBOCLM# = '01'B
     2283    19862    5   THEN DO;
     2284    19863    5      FMT_VEC(FDS.NVECS#)=VECTOR(DC_STR);
     2285    19864    5      CLASS=1 /* C_TEXT */;
     2286    19865    5      END;
     2287    19866    5   ELSE DO;
     2288    19867    5      YES_NO=TATR$->VLP$TRMATTR.LIMBOCLM#;
PL6.E3A0      #001=ASL$DISP_ONE_PROFILE File=ASL$L_PRO.:E05TSI                   TUE 07/29/97 10:26 Page:65
     2289    19868    5      CLASS=2 /* C_YESNO */;
     2290    19869    5      END;
     2291    19870
     2292    19871    4   SELECT(166 /* LOCALECHO */) ;
     2293    19872    4   IF TATR$ -> VLP$TRMATTR.LOCALECHO# = '01'B
     2294    19873    5   THEN DO;
     2295    19874    5      FMT_VEC(FDS.NVECS#)=VECTOR(DC_STR);
     2296    19875    5      CLASS=1 /* C_TEXT */;
     2297    19876    5      END;
     2298    19877    5   ELSE DO;
     2299    19878    5      YES_NO=TATR$->VLP$TRMATTR.LOCALECHO#;
     2300    19879    5      CLASS=2 /* C_YESNO */;
     2301    19880    5      END;
     2302    19881
     2303    19882    4   SELECT(178 /* L_EXTSRD_CHR */) ;
     2304    19883    4   PTR$ =ADDR( TCCHR$->KL$CCHR.EXTSRD_CHR#) ;
     2305    19884    4   CLASS = 15 /*C_HEX_LIST */ ;
     2306    19885
     2307    19886    4   SELECT( 219 /* L_GR_FPRG */ ) ;
     2308    19887    4   FMT_VEC( FDS.NVECS# ) = VECTOR( DSEG1$->PRO$HDR.GR_FPRG ) ;
     2309    19888    4   CLASS = 1 /* C_TEXT */ ;
     2310    19889
     2311    19890    4   SELECT( 180 /* L_MSGLIN_CHR */ ) ;
     2312    19891    4   PTR$ =ADDR( TCCHR$ -> KL$CCHR.MSGLIN_CHR#) ;
     2313    19892    4   CLASS = 15 /*C_HEX_LIST */;
     2314    19893
     2315    19894    4   SELECT( 181 /* L_ENDMSGLIN_CHR */ );
     2316    19895    4   PTR$ =ADDR( TCCHR$ -> KL$CCHR.ENDMSGLIN_CHR#) ;
     2317    19896    4   CLASS = 15 /*C_HEX_LIST */;
     2318    19897
     2319    19898    4   SELECT ( 182 /* L_SPCDLTFLD */ );
     2320    19899    4   YES_NO = TCCHR$->KL$CCHR.SPCDLTFLD#;
     2321    19900    4   CLASS = 2 /* C_YESNO */;
     2322    19901    4   SELECT ( 198 /* L_RGNSCROLL */ );
     2323    19902    4   YES_NO = TCCHR$->KL$CCHR.RGNSCROLL#;
     2324    19903    4   CLASS = 2 /* C_YESNO */;
     2325    19904    4   SELECT ( 183 /* L_EL0DLTFLD */ );
PL6.E3A0      #001=ASL$DISP_ONE_PROFILE File=ASL$L_PRO.:E05TSI                   TUE 07/29/97 10:26 Page:66
     2326    19905    4   YES_NO = TCCHR$->KL$CCHR.EL0DLTFLD#;
     2327    19906    4   CLASS = 2 /* C_YESNO */;
     2328    19907    4   SELECT ( 184 /* L_ED0DLTFLD */ );
     2329    19908    4   YES_NO = TCCHR$->KL$CCHR.ED0DLTFLD#;
     2330    19909    4   CLASS = 2 /* C_YESNO */;
     2331    19910    4   SELECT ( 185 /* L_ED2DLTFLD */ );
     2332    19911    4   YES_NO = TCCHR$->KL$CCHR.ED2DLTFLD#;
     2333    19912    4   CLASS = 2 /* C_YESNO */;
     2334    19913    4   SELECT ( 186 /* L_ICHRQRDCH */ );
     2335    19914    4   YES_NO = TCCHR$->KL$CCHR.ICHRQRDCH#;
     2336    19915    4   CLASS = 2 /* C_YESNO */;
     2337    19916    4   SELECT ( 187 /* L_ILNRQRDLN */ );
     2338    19917    4   YES_NO = TCCHR$->KL$CCHR.ILNRQRDLN#;
     2339    19918    4   CLASS = 2 /* C_YESNO */;
     2340    19919    4   SELECT ( 188 /* L_FRSCLMFLD */ );
     2341    19920    4   YES_NO = TCCHR$->KL$CCHR.FRSCLMFLD#;
     2342    19921    4   CLASS = 2 /* C_YESNO */;
     2343    19922    4   SELECT ( 189 /* L_MSGHALT */ ) ;
     2344    19923    4   IF TCTL$->VLP$TRMCTRL.MSGHALT#='01'B
     2345    19924    5   THEN DO;
     2346    19925    5      FMT_VEC(FDS.NVECS#)=VECTOR(DC_STR);
     2347    19926    5      CLASS=1 /* C_TEXT */;
     2348    19927    5      END;
     2349    19928    5   ELSE DO;
     2350    19929    5      YES_NO=TCTL$->VLP$TRMCTRL.MSGHALT#;
     2351    19930    5      CLASS=2 /* C_YESNO */;
     2352    19931    5      END;
     2353    19932    4   SELECT ( 190 /* L_MSGLINE */ ) ;
     2354    19933    4   IF TCTL$->VLP$TRMCTRL.MSGLINE#='01'B
     2355    19934    5   THEN DO;
     2356    19935    5      FMT_VEC(FDS.NVECS#)=VECTOR(DC_STR);
     2357    19936    5      CLASS=1 /* C_TEXT */;
     2358    19937    5      END;
     2359    19938    5   ELSE DO;
     2360    19939    5      YES_NO=TCTL$->VLP$TRMCTRL.MSGLINE#;
     2361    19940    5      CLASS=2 /* C_YESNO */;
     2362    19941    5      END;
PL6.E3A0      #001=ASL$DISP_ONE_PROFILE File=ASL$L_PRO.:E05TSI                   TUE 07/29/97 10:26 Page:67
     2363    19942    4   SELECT ( 191 /* L_INSERTMODE */ ) ;
     2364    19943    4   IF TCTL$->VLP$TRMCTRL.INSERTMODE#='01'B
     2365    19944    5   THEN DO;
     2366    19945    5      FMT_VEC(FDS.NVECS#)=VECTOR(DC_STR);
     2367    19946    5      CLASS=1 /* C_TEXT */;
     2368    19947    5      END;
     2369    19948    5   ELSE DO;
     2370    19949    5      YES_NO=TCTL$->VLP$TRMCTRL.INSERTMODE#;
     2371    19950    5      CLASS=2 /* C_YESNO */;
     2372    19951    5      END;
     2373    19952    4   SELECT ( 192 /* L_HSCROLL */ ) ;
     2374    19953    4   IF TCTL$->VLP$TRMCTRL.HSCROLL#='01'B
     2375    19954    5   THEN DO;
     2376    19955    5      FMT_VEC(FDS.NVECS#)=VECTOR(DC_STR);
     2377    19956    5      CLASS=1 /* C_TEXT */;
     2378    19957    5      END;
     2379    19958    5   ELSE DO;
     2380    19959    5      YES_NO=TCTL$->VLP$TRMCTRL.HSCROLL#;
     2381    19960    5      CLASS=2 /* C_YESNO */;
     2382    19961    5      END;
     2383    19962
     2384    19963    4   SELECT(193 /* L_WORDWRAPCLM */) ;
     2385    19964    4   IF TCTL$ -> VLP$TRMCTRL.WORDWRAPCLM# = 255
     2386    19965    5   THEN DO;
     2387    19966    5      FMT_VEC(FDS.NVECS#)=VECTOR(DC_STR);
     2388    19967    5      CLASS=1 /* C_TEXT */;
     2389    19968    5      END;
     2390    19969    5   ELSE DO;
     2391    19970    5      SBINS(SBIN_IDX) = TCTL$ -> VLP$TRMCTRL.WORDWRAPCLM# ;
     2392    19971    5      CLASS = 12 /* C_SBIN */ ;
     2393    19972    5      END;
     2394    19973
     2395    19974    4   SELECT(194 /* L_AUTOTABCLM */) ;
     2396    19975    4   IF TCTL$ -> VLP$TRMCTRL.AUTOTABCLM# = 255
     2397    19976    5   THEN DO;
     2398    19977    5      FMT_VEC(FDS.NVECS#)=VECTOR(DC_STR);
     2399    19978    5      CLASS=1 /* C_TEXT */;
PL6.E3A0      #001=ASL$DISP_ONE_PROFILE File=ASL$L_PRO.:E05TSI                   TUE 07/29/97 10:26 Page:68
     2400    19979    5      END;
     2401    19980    5   ELSE DO;
     2402    19981    5      SBINS(SBIN_IDX) = TCTL$ -> VLP$TRMCTRL.AUTOTABCLM# ;
     2403    19982    5      CLASS = 12 /* C_SBIN */ ;
     2404    19983    5      END;
     2405    19984
     2406    19985    4   SELECT (195 /* L_SETUP_CHR */);
     2407    19986    4   PTR$ = SETUP_CHR$;
     2408    19987    4   CLASS = 15 /*C_HEX_LIST */;
     2409    19988
     2410    19989    4   SELECT (196 /* DCHMOVFLD */);
     2411    19990    4   IF TATR$ -> VLP$TRMATTR.DCHMOVFLD# = '01'B
     2412    19991    5   THEN DO;
     2413    19992    5      FMT_VEC (FDS.NVECS#) = VECTOR (DC_STR);
     2414    19993    5      CLASS = 1 /* C_TEXT */;
     2415    19994    5      END;
     2416    19995    5   ELSE DO;
     2417    19996    5      YES_NO = TATR$ -> VLP$TRMATTR.DCHMOVFLD#;
     2418    19997    5      CLASS = 2 /* C_YESNO */;
     2419    19998    5      END;
     2420    19999
     2421    20000    4   SELECT (197 /* DSPHEIGHT */);
     2422    20001    4   IF TATR$ -> VLP$TRMATTR.DSPHEIGHT# = 255
     2423    20002    5   THEN DO;
     2424    20003    5      FMT_VEC (FDS.NVECS#) = VECTOR (DC_STR);
     2425    20004    5      CLASS = 1 /* C_TEXT */;
     2426    20005    5      END;
     2427    20006    5   ELSE DO;
     2428    20007    5      SBINS (SBIN_IDX) = TATR$ -> VLP$TRMATTR.DSPHEIGHT#;
     2429    20008    5      CLASS = 12 /* C_SBIN */;
     2430    20009    5      END;
     2431    20010    4   SELECT ( 218 /* TABS */ );
     2432    20011    4   CALL LIST_TABS;
     2433    20012    4   CLASS = 28 /* C_ALL_DONE */;
     2434    20013    4   SELECT (179 /* FF_FLUSH */);
     2435    20014    4   IF TATR$ -> VLP$TRMATTR.FF_FLUSH# = '01'B
     2436    20015    5   THEN DO;
PL6.E3A0      #001=ASL$DISP_ONE_PROFILE File=ASL$L_PRO.:E05TSI                   TUE 07/29/97 10:26 Page:69
     2437    20016    5      FMT_VEC (FDS.NVECS#) = VECTOR (DC_STR);
     2438    20017    5      CLASS = 1 /* C_TEXT */;
     2439    20018    5      END;
     2440    20019    5   ELSE DO;
     2441    20020    5      YES_NO = TATR$ -> VLP$TRMATTR.FF_FLUSH#;
     2442    20021    5      CLASS = 2 /* C_YESNO */;
     2443    20022    5      END;
     2444    20023    4   SELECT( 220 /* L_GR_GLBLCOLORS */ ) ;
     2445    20024    4   SBINS(SBIN_IDX) = GRA$->GRA$REC.GLOBAL_COLORS ;
     2446    20025    4   CLASS = 12 /* C_SBIN */ ;
     2447    20026    4   SELECT( 221 /* L_GR_GLBLINTENSITIES */ ) ;
     2448    20027    4   SBINS(SBIN_IDX) = GRA$->GRA$REC.GLOBAL_INTENSITIES ;
     2449    20028    4   CLASS = 12 /* C_SBIN */ ;
     2450    20029    4   SELECT( 222 /* L_GR_MAXPICK */ ) ;
     2451    20030    4   SBINS(SBIN_IDX) = GRA$->GRA$REC.MAX_PICK_ID ;
     2452    20031    4   CLASS = 12 /* C_SBIN */ ;
     2453    20032    4   SELECT( 223 /* L_GR_XSPACE */ ) ;
     2454    20033    4   SBINS(SBIN_IDX) = GRA$->GRA$REC.X_PER_CM ;
     2455    20034    4   CLASS = 12 /* C_SBIN */ ;
     2456    20035    4   SELECT( 224 /* L_GR_YSPACE */ ) ;
     2457    20036    4   SBINS(SBIN_IDX) = GRA$->GRA$REC.Y_PER_CM ;
     2458    20037    4   CLASS = 12 /* C_SBIN */ ;
     2459    20038    4   SELECT( 225 /* L_GR_ZSPACE */ ) ;
     2460    20039    4   SBINS(SBIN_IDX) = GRA$->GRA$REC.Z_PER_CM ;
     2461    20040    4   CLASS = 12 /* C_SBIN */ ;
     2462    20041    4   SELECT( 226 /* L_GR_NDCWSPACE */ ) ;
     2463    20042    4   SBINS(SBIN_IDX) = GRA$->GRA$REC.NDC_WIDTH_ADDR_SPACE ;
     2464    20043    4   CLASS = 12 /* C_SBIN */ ;
     2465    20044    4   SELECT( 227 /* L_GR_NDCHSPACE */ ) ;
     2466    20045    4   SBINS(SBIN_IDX) = GRA$->GRA$REC.NDC_HEIGHT_ADDR_SPACE ;
     2467    20046    4   CLASS = 12 /* C_SBIN */ ;
     2468    20047    4   SELECT( 228 /* L_GR_NDCDSPACE */ ) ;
     2469    20048    4   SBINS(SBIN_IDX) = GRA$->GRA$REC.NDC_DEPTH_ADDR_SPACE ;
     2470    20049    4   CLASS = 12 /* C_SBIN */ ;
     2471    20050    4   SELECT( 231 /* L_GR_NDCWCHARS */ ) ;
     2472    20051    4   SBINS(SBIN_IDX) = GRA$->GRA$REC.NDC_WIDTH_CHAR_POS ;
     2473    20052    4   CLASS = 12 /* C_SBIN */ ;
PL6.E3A0      #001=ASL$DISP_ONE_PROFILE File=ASL$L_PRO.:E05TSI                   TUE 07/29/97 10:26 Page:70
     2474    20053    4   SELECT( 230 /* L_GR_NDCHCHARS */ ) ;
     2475    20054    4   SBINS(SBIN_IDX) = GRA$->GRA$REC.NDC_HEIGHT_CHAR_POS ;
     2476    20055    4   CLASS = 12 /* C_SBIN */ ;
     2477    20056    4   SELECT( 229 /* L_GR_NDCDCHARS */ ) ;
     2478    20057    4   SBINS(SBIN_IDX) = GRA$->GRA$REC.NDC_DEPTH_CHAR_POS ;
     2479    20058    4   CLASS = 12 /* C_SBIN */ ;
     2480    20059    4   SELECT( 232 /* L_GR_WIDTHUSE */ ) ;
     2481    20060    4   SBINS(SBIN_IDX) = GRA$->GRA$REC.WIDTH_USABLE ;
     2482    20061    4   CLASS = 12 /* C_SBIN */ ;
     2483    20062    4   SELECT( 233 /* L_GR_HEIGHTUSE */ ) ;
     2484    20063    4   SBINS(SBIN_IDX) = GRA$->GRA$REC.HEIGHT_USABLE ;
     2485    20064    4   CLASS = 12 /* C_SBIN */ ;
     2486    20065    4   SELECT( 234 /* L_GR_DEPTHUSE */ ) ;
     2487    20066    4   SBINS(SBIN_IDX) = GRA$->GRA$REC.DEPTH_USABLE ;
     2488    20067    4   CLASS = 12 /* C_SBIN */ ;
     2489    20068    4   SELECT( 237 /* L_GR_NDCWCURRENT */ ) ;
     2490    20069    4   SBINS(SBIN_IDX) = GRA$->GRA$REC.NDC_WIDTH_CURRENT ;
     2491    20070    4   CLASS = 12 /* C_SBIN */ ;
     2492    20071    4   SELECT( 236 /* L_GR_NDCHCURRENT */ ) ;
     2493    20072    4   SBINS(SBIN_IDX) = GRA$->GRA$REC.NDC_HEIGHT_CURRENT ;
     2494    20073    4   CLASS = 12 /* C_SBIN */ ;
     2495    20074    4   SELECT( 235 /* L_GR_NDCDCURRENT */ ) ;
     2496    20075    4   SBINS(SBIN_IDX) = GRA$->GRA$REC.NDC_DEPTH_CURRENT ;
     2497    20076    4   CLASS = 12 /* C_SBIN */ ;
     2498    20077    4   SELECT( 238 /* L_GR_MINLINEWIDTH */ ) ;
     2499    20078    4   SBINS(SBIN_IDX) = GRA$->GRA$REC.MINIMUM_LINEWIDTH ;
     2500    20079    4   CLASS = 12 /* C_SBIN */ ;
     2501    20080    4   SELECT( 239 /* L_GR_MAXLINEWIDTH */ ) ;
     2502    20081    4   SBINS(SBIN_IDX) = GRA$->GRA$REC.MAXIMUM_LINEWIDTH ;
     2503    20082    4   CLASS = 12 /* C_SBIN */ ;
     2504    20083    4   SELECT( 240 /* L_GR_MINCHSIZE */ ) ;
     2505    20084    4   SBINS(SBIN_IDX) = GRA$->GRA$REC.MIN_CHAR_SIZE ;
     2506    20085    4   CLASS = 12 /* C_SBIN */ ;
     2507    20086    4   SELECT( 241 /* L_GR_MAXCHSIZE */ ) ;
     2508    20087    4   SBINS(SBIN_IDX) = GRA$->GRA$REC.MAX_CHAR_SIZE ;
     2509    20088    4   CLASS = 12 /* C_SBIN */ ;
     2510    20089    4   SELECT( 243 /* L_GR_VIEWSURFACE */ ) ;
PL6.E3A0      #001=ASL$DISP_ONE_PROFILE File=ASL$L_PRO.:E05TSI                   TUE 07/29/97 10:26 Page:71
     2511    20090    4   SBINS(SBIN_IDX) = GRA$->GRA$REC.VIEW_SURFACE ;
     2512    20091    4   CLASS = 12 /* C_SBIN */ ;
     2513    20092    4   SELECT( 244 /* L_GR_POLYGONFILL */ ) ;
     2514    20093    4   SBINS(SBIN_IDX) = GRA$->GRA$REC.POLYGON_FILL.PLAIN;
     2515    20094    4   CLASS = 12 /* C_SBIN */ ;
     2516    20095    4   SELECT( 245 /* L_GR_POLYGONFILL_SHADED */ ) ;
     2517    20096    4   SBINS(SBIN_IDX) = GRA$->GRA$REC.POLYGON_FILL.SHADED;
     2518    20097    4   CLASS = 12 /* C_SBIN */ ;
     2519    20098    4   SELECT( 246 /* L_GR_POLYGONFILL_PATTERNED */ ) ;
     2520    20099    4   SBINS(SBIN_IDX) = GRA$->GRA$REC.POLYGON_FILL.PATTERNED;
     2521    20100    4   CLASS = 12 /* C_SBIN */ ;
     2522    20101    4   SELECT( 247 /* L_GR_XPIXMAX */ ) ;
     2523    20102    4   SBINS(SBIN_IDX) = GRA$->GRA$REC.PIX_ARRAY_MAXX;
     2524    20103    4   CLASS = 12 /* C_SBIN */ ;
     2525    20104    4   SELECT( 248 /* L_GR_YPIXMAX */ ) ;
     2526    20105    4   SBINS(SBIN_IDX) = GRA$->GRA$REC.PIX_ARRAY_MAXY ;
     2527    20106    4   CLASS = 12 /* C_SBIN */ ;
     2528    20107    4   SELECT( 249 /* L_GR_COLRTABSIZE */ ) ;
     2529    20108    4   SBINS(SBIN_IDX) = GRA$->GRA$REC.COLOR_TAB_SIZE ;
     2530    20109    4   CLASS = 12 /* C_SBIN */ ;
     2531    20110    4   SELECT( 250 /* L_GR_INTNTABSIZE */ ) ;
     2532    20111    4   SBINS(SBIN_IDX) = GRA$->GRA$REC.INTENSITY_TAB_SIZE ;
     2533    20112    4   CLASS = 12 /* C_SBIN */ ;
     2534    20113    4   SELECT( 251 /* L_GR_LINESTYLEHWCOUNT */ ) ;
     2535    20114    4   SBINS(SBIN_IDX) = GRA$->GRA$REC.LINESTYLE_HARDWARE_COUNT ;
     2536    20115    4   CLASS = 12 /* C_SBIN */ ;
     2537    20116    4   SELECT( 277 /* L_GR_LINESTYLESWCOUNT */ ) ;
     2538    20117    4   SBINS(SBIN_IDX) = GRA$->GRA$REC.LINESTYLE_SOFTWARE_COUNT ;
     2539    20118    4   CLASS = 12 /* C_SBIN */ ;
     2540    20119    4   SELECT( 252 /* L_GR_LINEWCOUNT */ ) ;
     2541    20120    4   SBINS(SBIN_IDX) = GRA$->GRA$REC.LINEWIDTH_COUNT ;
     2542    20121    4   CLASS = 12 /* C_SBIN */ ;
     2543    20122    4   SELECT( 253 /* L_GR_FONTCOUNT */ ) ;
     2544    20123    4   SBINS(SBIN_IDX) = GRA$->GRA$REC.FONT_COUNT ;
     2545    20124    4   CLASS = 12 /* C_SBIN */ ;
     2546    20125    4   SELECT( 254 /* L_GR_PENHWCOUNT */ ) ;
     2547    20126    4   SBINS(SBIN_IDX) = GRA$->GRA$REC.PEN_HARDWARE_COUNT ;
PL6.E3A0      #001=ASL$DISP_ONE_PROFILE File=ASL$L_PRO.:E05TSI                   TUE 07/29/97 10:26 Page:72
     2548    20127    4   CLASS = 12 /* C_SBIN */ ;
     2549    20128    4   SELECT( 278 /* L_GR_PENSWCOUNT */ ) ;
     2550    20129    4   SBINS(SBIN_IDX) = GRA$->GRA$REC.PEN_SOFTWARE_COUNT ;
     2551    20130    4   CLASS = 12 /* C_SBIN */ ;
     2552    20131    4   SELECT( 255 /* L_GR_CHSIZECOUNT */ ) ;
     2553    20132    4   SBINS(SBIN_IDX) = GRA$->GRA$REC.CHAR_SIZE_COUNT ;
     2554    20133    4   CLASS = 12 /* C_SBIN */ ;
     2555    20134    4   SELECT( 256 /* L_GR_MARKERHWCOUNT */ ) ;
     2556    20135    4   SBINS(SBIN_IDX) = GRA$->GRA$REC.MARKER_HARDWARE_COUNT ;
     2557    20136    4   CLASS = 12 /* C_SBIN */ ;
     2558    20137    4   SELECT( 258 /* L_GR_MARKERSWCOUNT */ ) ;
     2559    20138    4   SBINS(SBIN_IDX) = GRA$->GRA$REC.MARKER_SOFTWARE_COUNT ;
     2560    20139    4   CLASS = 12 /* C_SBIN */ ;
     2561    20140    4   SELECT( 257 /* L_GR_LINEWSUPPORT */ ) ;
     2562    20141    4   SBINS (SBIN_IDX) = 0;
     2563    20142    4   SBINS_4.FOUR(SBIN_IDX) = GRA$->GRA$REC.LINEWIDTH_SUPPORT ;
     2564    20143    4   CLASS = 12 /* C_SBIN */ ;
     2565    20144    4   SELECT( 259 /* L_GR_INTNSUPPORT */ ) ;
     2566    20145    4   SBINS (SBIN_IDX) = 0;
     2567    20146    4   SBINS_4.FOUR(SBIN_IDX) = GRA$->GRA$REC.INTENSITY_SUPPORT ;
     2568    20147    4   CLASS = 12 /* C_SBIN */ ;
     2569    20148    4   SELECT( 260 /* L_GR_CHSIZESUPPORT */ ) ;
     2570    20149    4   SBINS (SBIN_IDX) = 0;
     2571    20150    4   SBINS_4.FOUR(SBIN_IDX) = GRA$->GRA$REC.CHARSIZE_SUPPORT ;
     2572    20151    4   CLASS = 12 /* C_SBIN */ ;
     2573    20152    4   SELECT( 261 /* L_GR_HIGHLTSUPPORT */ ) ;
     2574    20153    4   SBINS (SBIN_IDX) = 0;
     2575    20154    4   SBINS_4.FOUR(SBIN_IDX) = GRA$->GRA$REC.HIGHLIGHT_SUPPORT ;
     2576    20155    4   CLASS = 12 /* C_SBIN */ ;
     2577    20156    4   SELECT( 262 /* L_GR_OUTLEVEL */ ) ;
     2578    20157    4   SBINS (SBIN_IDX) = 0;
     2579    20158    4   SBINS_6.SIX(SBIN_IDX) = GRA$->GRA$REC.OUTPUT_LEVEL ;
     2580    20159    4   CLASS = 12 /* C_SBIN */ ;
     2581    20160    4   SELECT( 263 /* L_GR_BATCHMODE */ ) ;
     2582    20161    4   SBINS (SBIN_IDX) = 0;
     2583    20162    4   SBINS_4.FOUR(SBIN_IDX) = GRA$->GRA$REC.BATCH_MODE ;
     2584    20163    4   CLASS = 12 /* C_SBIN */ ;
PL6.E3A0      #001=ASL$DISP_ONE_PROFILE File=ASL$L_PRO.:E05TSI                   TUE 07/29/97 10:26 Page:73
     2585    20164    4   SELECT( 264 /* L_GR_HIDDENLEVEL */ ) ;
     2586    20165    4   SBINS (SBIN_IDX) = 0;
     2587    20166    4   SBINS_4.FOUR(SBIN_IDX) = GRA$->GRA$REC.HIDDEN_SURFACE_LEVEL ;
     2588    20167    4   CLASS = 12 /* C_SBIN */ ;
     2589    20168    4   SELECT( 265 /* L_GR_DIMLEVEL */ ) ;
     2590    20169    4   SBINS (SBIN_IDX) = 0;
     2591    20170    4   SBINS_2.TWO(SBIN_IDX) = GRA$->GRA$REC.DIMENSION_LEVEL ;
     2592    20171    4   CLASS = 12 /* C_SBIN */ ;
     2593    20172    4   SELECT( 266 /* L_GR_VIEWTYPE */ ) ;
     2594    20173    4   SBINS (SBIN_IDX) = 0;
     2595    20174    4   SBINS_4.FOUR(SBIN_IDX) = GRA$->GRA$REC.VIEW_SURFACE_TYPE ;
     2596    20175    4   CLASS = 12 /* C_SBIN */ ;
     2597    20176    4   SELECT( 267 /* L_GR_PIXELTYPE */ ) ;
     2598    20177    4   SBINS (SBIN_IDX) = 0;
     2599    20178    4   SBINS_4.FOUR(SBIN_IDX) = GRA$->GRA$REC.PIXEL_TYPE ;
     2600    20179    4   CLASS = 12 /* C_SBIN */ ;
     2601    20180    4   SELECT( 268 /* L_GR_EDGETYPE */ ) ;
     2602    20181    4   SBINS (SBIN_IDX) = 0;
     2603    20182    4   SBINS_4.FOUR(SBIN_IDX) = GRA$->GRA$REC.EDGE_TYPE ;
     2604    20183    4   CLASS = 12 /* C_SBIN */ ;
     2605    20184    4   SELECT( 269 /* L_GR_COLRTABTYPE */ ) ;
     2606    20185    4   SBINS (SBIN_IDX) = 0;
     2607    20186    4   SBINS_4.FOUR(SBIN_IDX) = GRA$->GRA$REC.COLOR_TABLE_TYPE ;
     2608    20187    4   CLASS = 12 /* C_SBIN */ ;
     2609    20188    4   SELECT( 270 /* L_GR_BKGRNDTYPE */ ) ;
     2610    20189    4   SBINS (SBIN_IDX) = 0;
     2611    20190    4   SBINS_2.TWO(SBIN_IDX) = GRA$->GRA$REC.BACKGROUND_TYPE ;
     2612    20191    4   CLASS = 12 /* C_SBIN */ ;
     2613    20192    4   SELECT( 271 /* L_GR_DEVTYPE */ ) ;
     2614    20193    4   SBINS (SBIN_IDX) = 0;
     2615    20194    4   SBINS_2.TWO(SBIN_IDX) = GRA$->GRA$REC.DEVICE_TYPE ;
     2616    20195    4   CLASS = 12 /* C_SBIN */ ;
     2617    20196    4   SELECT( 272 /* L_GR_IMAGETRANS */ ) ;
     2618    20197    4   SBINS (SBIN_IDX) = 0;
     2619    20198    4   SBINS_4.FOUR(SBIN_IDX) = GRA$->GRA$REC.IMAGE_TRANSF ;
     2620    20199    4   CLASS = 12 /* C_SBIN */ ;
     2621    20200    4   SELECT( 273 /* L_GR_COLRMODEL */ ) ;
PL6.E3A0      #001=ASL$DISP_ONE_PROFILE File=ASL$L_PRO.:E05TSI                   TUE 07/29/97 10:26 Page:74
     2622    20201    4   SBINS (SBIN_IDX) = 0;
     2623    20202    4   SBINS_2.TWO(SBIN_IDX) = GRA$->GRA$REC.COLOR_MODEL ;
     2624    20203    4   CLASS = 12 /* C_SBIN */ ;
     2625    20204    4   SELECT( 274 /* L_GR_BKGRNDCOLOR */ ) ;
     2626    20205    4   SBINS (SBIN_IDX) = 0;
     2627    20206    4   SBINS_2.TWO(SBIN_IDX) = GRA$->GRA$REC.BACKGROUND_COLOR ;
     2628    20207    4   CLASS = 12 /* C_SBIN */ ;
     2629    20208    4   SELECT( 275 /* L_GR_COLRACTION */ ) ;
     2630    20209    4   SBINS (SBIN_IDX) = 0;
     2631    20210    4   SBINS_4.FOUR(SBIN_IDX) = GRA$->GRA$REC.COLOR_ACTION ;
     2632    20211    4   CLASS = 12 /* C_SBIN */ ;
     2633    20212    4   SELECT( 276 /* L_GR_INTNACTION */ ) ;
     2634    20213    4   SBINS (SBIN_IDX) = 0;
     2635    20214    4   SBINS_4.FOUR(SBIN_IDX) = GRA$->GRA$REC.INTENSITY_ACTION ;
     2636    20215    4   CLASS = 12 /* C_SBIN */ ;
     2637    20216    4      END ;                          /* Do case                            */
     2638    20217    4   DO SELECT( CLASS ) ;
     2639    20218    4      SELECT(1 /* C_TEXT */) ;
     2640    20219    4      FDS.NVECS# = FDS.NVECS# + 1 ;
     2641    20220    4      CALL INSERT(FMT_BUF,FDS.FMT_.BOUND+1,3,'%>A') ;
     2642    20221    4      FDS.FMT_.BOUND = FDS.FMT_.BOUND + 3 ;
     2643    20222    4      SELECT(2 /* C_YESNO */) ;
     2644    20223    4      IF YES_NO
     2645    20224    4      THEN
     2646    20225    4         FMT_VEC(FDS.NVECS#) = VECTOR(YES_STR) ;
     2647    20226    4      ELSE
     2648    20227    4         FMT_VEC(FDS.NVECS#) = VECTOR(NO_STR) ;
     2649    20228    4      FDS.NVECS# = FDS.NVECS# + 1 ;
     2650    20229    4      CALL INSERT(FMT_BUF,FDS.FMT_.BOUND+1,3,'%>A') ;
     2651    20230    4      FDS.FMT_.BOUND = FDS.FMT_.BOUND + 3 ;
     2652    20231    4      SELECT(12 /* C_SBIN */) ;
     2653    20232    4      FMT_VEC(FDS.NVECS#) = VECTOR(SBINS(SBIN_IDX)) ;
     2654    20233    4      FDS.NVECS# = FDS.NVECS# + 1 ;
     2655    20234    4      SBIN_IDX = SBIN_IDX + 1 ;
     2656    20235    4      CALL INSERT(FMT_BUF,FDS.FMT_.BOUND+1,3,'%+D') ;
     2657    20236    4      FDS.FMT_.BOUND = FDS.FMT_.BOUND + 3 ;
     2658    20237    4      SELECT(13 /* C_REAL */) ;
PL6.E3A0      #001=ASL$DISP_ONE_PROFILE File=ASL$L_PRO.:E05TSI                   TUE 07/29/97 10:26 Page:75
     2659    20238    4      SVAL = SBINS(SBIN_IDX)/10 ;
     2660    20239    4      SBINS(SBIN_IDX+1) = SBINS(SBIN_IDX) - SVAL*10 ;
     2661    20240    4      SBINS(SBIN_IDX) = SVAL ;
     2662    20241    4      IF SBINS(SBIN_IDX+1)<0
     2663    20242    4      THEN
     2664    20243    4         SBINS(SBIN_IDX+1) = SBINS(SBIN_IDX+1)*-1 ;
     2665    20244    4      FMT_VEC(FDS.NVECS#) = VECTOR(SBINS(SBIN_IDX)) ;
     2666    20245    4      FMT_VEC(FDS.NVECS#+1) = VECTOR(SBINS(SBIN_IDX+1)) ;
     2667    20246    4      FDS.NVECS# = FDS.NVECS# + 2 ;
     2668    20247    4      SBIN_IDX = SBIN_IDX + 2 ;
     2669    20248    4      CALL INSERT(FMT_BUF,FDS.FMT_.BOUND+1,8,'%+D.%1ZD') ;
     2670    20249    4      FDS.FMT_.BOUND = FDS.FMT_.BOUND + 8 ;
     2671    20250    4      SELECT(14 /* C_HEX */) ;
     2672    20251    5      DO I = 5 TO 8 ;
     2673    20252    5         RHEX_BUF(I-5) = HEX_CHARS(HEX_NUM(I)) ;
     2674    20253    5         END ;                     /* Do i                               */
     2675    20254    4      CALL EDITSTR( HEX_BUF, 0, 4, MOP_STR, HEX_BUF );
     2676    20255    4      CALL INDEX1R( I, AS_BLANK, HEX_BUF )
     2677    20256    5      WHENRETURN DO;
     2678    20257    5         I = I + 1;
     2679    20258    5         END;
     2680    20259    5      WHENALTRETURN DO;
     2681    20260    5         I = 0;
     2682    20261    5         END ;
     2683    20262    4      CALL INSERT(FMT_BUF,FDS.FMT_.BOUND+1,7-I,'X''',SUBSTR(HEX_BUF,I,4-I),'''') ;
     2684    20263    4      FDS.FMT_.BOUND = FDS.FMT_.BOUND + 7-I ;
     2685    20264    4      SELECT(15 /*C_HEX_LIST */) ;
     2686    20265    4      IF PTR$ = SETUP_CHR$ THEN
     2687    20266    4         PTR$ = PINCRC (PTR$,1);
     2688    20267    4      ELSE
     2689    20268    4         IF PTR$ -> ABYTE ~= 0 THEN
     2690    20269    4            PTR$ = PINCRC (ADDR(TCCHR$->KL$CCHR.TXT_UBIN),PTR$->ABYTE);
     2691    20270    4      CALL DO_HEX_LIST (PTR$);
     2692    20271    4      SELECT( 16 /* C_VDH_ALG_TYPE */ );
     2693    20272    5      DO SELECT( VDH_ALG_TYPE );
     2694    20273    5         SELECT( 0 /* NONE */ );
     2695    20274    5         FMT_VEC(FDS.NVECS#) = VECTOR(NONE_STR);
PL6.E3A0      #001=ASL$DISP_ONE_PROFILE File=ASL$L_PRO.:E05TSI                   TUE 07/29/97 10:26 Page:76
     2696    20275    5         SELECT( 1 /* ANS */ );
     2697    20276    5         FMT_VEC(FDS.NVECS#) = VECTOR(ANS_STR);
     2698    20277    5         SELECT( 2 /* 2 */ );
     2699    20278    5         FMT_VEC(FDS.NVECS#) = VECTOR(TWO_STR);
     2700    20279    5         SELECT( 3 /* 3 */ );
     2701    20280    5         FMT_VEC(FDS.NVECS#) = VECTOR(THREE_STR);
     2702    20281    5         END;
     2703    20282    4      FDS.NVECS# = FDS.NVECS# + 1;
     2704    20283    4      CALL INSERT(FMT_BUF,FDS.FMT_.BOUND+1,3,'%>A');
     2705    20284    4      FDS.FMT_.BOUND = FDS.FMT_.BOUND + 3;
     2706    20285    4      SELECT( 17 /* C_ABSGRPRND */ );
     2707    20286    4      CALL INSERT( FMT_BUF, FDS.FMT_.BOUND+1, 12, '%N(%>A,%)%>A' );
     2708    20287    4      FDS.FMT_.BOUND = FDS.FMT_.BOUND + 12;
     2709    20288    4      FMT_VEC(FDS.NVECS#) = VECTOR(SBINS(SBIN_IDX));
     2710    20289    4      FDS.NVECS# = FDS.NVECS# + 1;
     2711    20290    4      SBINS(SBIN_IDX) = -1;
     2712    20291    5      IF KL$ABSGRPRND.FLAGS.HDN# THEN DO;
     2713    20292    5         FMT_VEC(FDS.NVECS#) = VECTOR(HDN_STR);
     2714    20293    5         FDS.NVECS# = FDS.NVECS# + 1;
     2715    20294    5         SBINS(SBIN_IDX) = SBINS(SBIN_IDX) + 1;
     2716    20295    5         END;
     2717    20296    5      IF KL$ABSGRPRND.FLAGS.INCINT# THEN DO;
     2718    20297    5         FMT_VEC(FDS.NVECS#) = VECTOR(INCINT_STR);
     2719    20298    5         FDS.NVECS# = FDS.NVECS# + 1;
     2720    20299    5         SBINS(SBIN_IDX) = SBINS(SBIN_IDX) + 1;
     2721    20300    5         END;
     2722    20301    5      IF KL$ABSGRPRND.FLAGS.DCRINT# THEN DO;
     2723    20302    5         FMT_VEC(FDS.NVECS#) = VECTOR(DCRINT_STR);
     2724    20303    5         FDS.NVECS# = FDS.NVECS# + 1;
     2725    20304    5         SBINS(SBIN_IDX) = SBINS(SBIN_IDX) + 1;
     2726    20305    5         END;
     2727    20306    5      IF KL$ABSGRPRND.FLAGS.UNDSCR# THEN DO;
     2728    20307    5         FMT_VEC(FDS.NVECS#) = VECTOR(UNDSCR_STR);
     2729    20308    5         FDS.NVECS# = FDS.NVECS# + 1;
     2730    20309    5         SBINS(SBIN_IDX) = SBINS(SBIN_IDX) + 1;
     2731    20310    5         END;
     2732    20311    5      IF KL$ABSGRPRND.FLAGS.SLWBLN# THEN DO;
PL6.E3A0      #001=ASL$DISP_ONE_PROFILE File=ASL$L_PRO.:E05TSI                   TUE 07/29/97 10:26 Page:77
     2733    20312    5         FMT_VEC(FDS.NVECS#) = VECTOR(SLWBLN_STR);
     2734    20313    5         FDS.NVECS# = FDS.NVECS# + 1;
     2735    20314    5         SBINS(SBIN_IDX) = SBINS(SBIN_IDX) + 1;
     2736    20315    5         END;
     2737    20316    5      IF KL$ABSGRPRND.FLAGS.FSTBLN# THEN DO;
     2738    20317    5         FMT_VEC(FDS.NVECS#) = VECTOR(FSTBLN_STR);
     2739    20318    5         FDS.NVECS# = FDS.NVECS# + 1;
     2740    20319    5         SBINS(SBIN_IDX) = SBINS(SBIN_IDX) + 1;
     2741    20320    5         END;
     2742    20321    5      IF KL$ABSGRPRND.FLAGS.RVRVID# THEN DO;
     2743    20322    5         FMT_VEC(FDS.NVECS#) = VECTOR(RVRVID_STR);
     2744    20323    5         FDS.NVECS# = FDS.NVECS# + 1;
     2745    20324    5         SBINS(SBIN_IDX) = SBINS(SBIN_IDX) + 1;
     2746    20325    5         END;
     2747    20326    4      SBIN_IDX = SBIN_IDX + 1;
     2748    20327    4      SELECT (28 /* C_ALL_DONE */);
     2749    20328              /* This case is empty because all the building of the format
     2750    20329                 buffer has been completed.  The templates are done, all that
     2751    20330                 remains is to call X$FORMAT.  */
     2752    20331    4      END ;                          /* Do case                            */
     2753    20332    3   RETURN ;
     2754    20333        %EJECT ;
PL6.E3A0      #001=ASL$DISP_ONE_PROFILE File=ASL$L_PRO.:E05TSI                   TUE 07/29/97 10:26 Page:78
     2755    20334    3   END   INSERT_FIELD ;
     2756    20335    2   END   LIST_FIELDS ;
     2757    20336        %EJECT;
PL6.E3A0      #001=ASL$DISP_ONE_PROFILE File=ASL$L_PRO.:E05TSI                   TUE 07/29/97 10:26 Page:79
     2758    20337    1   DO_HEX_LIST: PROC (PTR$);
     2759    20338
     2760    20339        /*
     2761    20340           In setting up for this routine,  there will be some indexing into
     2762    20341           the KL$CCHR.TXT_UBIN array.  If the index is 0, it means that the
     2763    20342           field we are currently trying do display was not set, or was set
     2764    20343           to none.  So, we will leave the pointer, PTR$, pointing at the
     2765    20344           index and not at the place in the KL$CCHR.TXT_UBIN array where
     2766    20345           the field starts.
     2767    20346           I also assume that PTR$ is pointing at a textc type structure,
     2768    20347           ie. a string with a count as the first byte followed by count
     2769    20348           number of bytes that represent the field we are interested in.
     2770    20349        */
     2771    20350    2   DCL PTR$ PTR;
     2772    20351    2   DCL TEMP$ PTR;
     2773    20352    2   DCL I  UBIN;
     2774    20353    2   DCL COUNT UBIN;
     2775    20354    2   DCL POS UBIN ;
     2776    20355    2   DCL STRING  CHAR(256)  BASED;
     2777    20356    2   DCL ABYTE  UBIN BYTE BASED CALIGNED;
     2778    20357
     2779    20358    2   COUNT = PTR$ -> ABYTE;
     2780    20359    2   PTR$ = PINCRC(PTR$,1);
     2781    20360
     2782    20361    3   IF COUNT ~= 0 THEN DO;
     2783    20362    3      I = 1;
     2784    20363    4      DO WHILE I <= COUNT;
     2785    20364    4         IF (PTR$ -> ABYTE = 127) OR
     2786    20365    5              ((PTR$->ABYTE > 0) AND (PTR$->ABYTE < 32)) THEN DO;
     2787    20366                                            /*  Unprintable characters
     2788    20367                 case (  0,  1,  2,  3,  4,  5,  6,  7,
     2789    20368                         8,  9, 10, 11, 12, 13, 14, 15,
     2790    20369                        16, 17, 18, 19, 20, 21, 22, 23,
     2791    20370                        24, 25, 26, 27, 28, 29, 30, 31, 127);    */
     2792    20371
     2793    20372    6            IF FDS.FMT_.BOUND + 4 > SIZEC (FMT_BUF) THEN DO;
     2794    20373    6               FDS.FMT_.BOUND = FDS.FMT_.BOUND - 1;
PL6.E3A0      #001=ASL$DISP_ONE_PROFILE File=ASL$L_PRO.:E05TSI                   TUE 07/29/97 10:26 Page:80
     2795    20374    6               CALL X$FORMAT (FDS) ;
     2796    20375    6               FDS.NVECS# = 0;
     2797    20376    6               SUBSTR (FMT_BUF,0,3) = '%4-';
     2798    20377    6               FDS.FMT_.BOUND = 2;
     2799    20378    6               END;   /*  out of space in FMT_BUF  */
     2800    20379    5            FMT_VEC (FDS.NVECS#) = VECTOR (UNPRINT_TABLE.TXT(PTR$->ABYTE));
     2801    20380    5            FDS.NVECS# = FDS.NVECS# + 1;
     2802    20381    5            SUBSTR (FMT_BUF,FDS.FMT_.BOUND+1,4) = '%>A,';
     2803    20382    5            FDS.FMT_.BOUND = FDS.FMT_.BOUND + 4;
     2804    20383    5            I = I + 1;
     2805    20384    5            PTR$ = PINCRC (PTR$,1);
     2806    20385
     2807    20386    5            END;   /*  Unprintable characters  */
     2808    20387    4         ELSE
     2809    20388    5            IF ((PTR$->ABYTE > 31) AND (PTR$->ABYTE < 127)) THEN DO;
     2810    20389                                         /*  Printable characters  */
     2811    20390    6               IF FDS.FMT_.BOUND + 5 > SIZEC (FMT_BUF) THEN DO;
     2812    20391    6                  FDS.FMT_.BOUND = FDS.FMT_.BOUND - 1;
     2813    20392    6                  CALL X$FORMAT (FDS) ;
     2814    20393    6                  FDS.NVECS# = 0;
     2815    20394    6                  SUBSTR (FMT_BUF,0,3) = '%4-';
     2816    20395    6                  FDS.FMT_.BOUND = 2;
     2817    20396    6                  END; /*  out of space in FMT_BUF  */
     2818    20397    5               POS = 0;
     2819    20398    5               TEMP$ = PTR$;
     2820    20399    6               DO WHILE PTR$->ABYTE > 31 AND PTR$ -> ABYTE < 127;
     2821    20400    6                  PTR$ = PINCRC (PTR$,1);
     2822    20401    6                  POS = POS + 1;
     2823    20402    6                  I = I + 1;
     2824    20403    6                  IF I > COUNT THEN
     2825    20404    6                     EXIT;
     2826    20405    6                  END; /*   Do while a printable character  */
     2827    20406    5               CALL INSERT (FMT_BUF,FDS.FMT_.BOUND+1,5,'''%A'',');
     2828    20407    5               FDS.FMT_.BOUND = FDS.FMT_.BOUND + 5;
     2829    20408    5               FMT_VEC (FDS.NVECS#) = VECTOR (SUBSTR(TEMP$->STRING,0,POS));
     2830    20409    5               FDS.NVECS# = FDS.NVECS# + 1;
     2831    20410    5               END;   /*  Printable characters  */
PL6.E3A0      #001=ASL$DISP_ONE_PROFILE File=ASL$L_PRO.:E05TSI                   TUE 07/29/97 10:26 Page:81
     2832    20411    5            ELSE DO;   /*  Character values > 127  */
     2833    20412    6               IF FDS.FMT_.BOUND + 7 > SIZEC (FMT_BUF) THEN DO;
     2834    20413    6                  FDS.FMT_.BOUND = FDS.FMT_.BOUND - 1;
     2835    20414    6                  CALL X$FORMAT (FDS) ;
     2836    20415    6                  FDS.NVECS# = 0;
     2837    20416    6                  SUBSTR (FMT_BUF,0,3) = '%4-';
     2838    20417    6                  FDS.FMT_.BOUND = 2;
     2839    20418    6                  END; /*  out of space in FMT_BUF  */
     2840    20419    5               CALL INSERT (FMT_BUF,FDS.FMT_.BOUND+1,7,'X''%2H'',');
     2841    20420    5               FDS.FMT_.BOUND = FDS.FMT_.BOUND + 7;
     2842    20421    5               FMT_VEC (FDS.NVECS#) = VECTOR (PTR$->ABYTE);
     2843    20422    5               FDS.NVECS# = FDS.NVECS# + 1;
     2844    20423    5               I = I + 1;
     2845    20424    5               END;
     2846    20425    4         END;  /*  Do while i < count  */
     2847    20426    3      FDS.FMT_.BOUND = FDS.FMT_.BOUND - 1;
     2848    20427    3      END; /*  If not 0  */
     2849    20428    3   ELSE DO;
     2850    20429    3      FMT_VEC (FDS.NVECS#) = VECTOR (NONE_STR);
     2851    20430    3      FDS.NVECS# = FDS.NVECS# + 1;
     2852    20431    3      CALL INSERT (FMT_BUF, FDS.FMT_.BOUND+1,3,'%>A');
     2853    20432    3      FDS.FMT_.BOUND = FDS.FMT_.BOUND + 3;
     2854    20433    3      END;   /*  Else  */
     2855    20434    2   RETURN;
     2856    20435    2   END DO_HEX_LIST;
     2857    20436        %EJECT ;
PL6.E3A0      #001=ASL$DISP_ONE_PROFILE File=ASL$L_PRO.:E05TSI                   TUE 07/29/97 10:26 Page:82
     2858    20437    1   LIST_TABS: PROC ;
     2859    20438    2   DCL I UBIN ;
     2860    20439    2   DCL TABS_HDR CHAR(0) CONSTANT INIT('    ') ;
     2861    20440    2   FMT_VEC(0) = VECTOR(TABS_HDR) ;
     2862    20441    2   FDS.NVECS# = 1 ;
     2863    20442    2   SBIN_IDX = 0 ;
     2864    20443    2   CALL INSERT(FMT_BUF,0,2,'%A') ;
     2865    20444    2   FDS.FMT_.BOUND = 1 ;
     2866    20445    2   T_TAB = DTABS$ -> VLP$TAB ;
     2867    20446    3   DO I = 0 TO 31 ;
     2868    20447    3      IF T_TAB(I) = 0 AND I ~= 0
     2869    20448    3      THEN
     2870    20449    3         GOTO OUTPUT_TABS ;
     2871    20450    3      SBINS(SBIN_IDX) = T_TAB(I) ;
     2872    20451    3      FMT_VEC(FDS.NVECS#) = VECTOR(SBINS(SBIN_IDX)) ;
     2873    20452    3      FDS.NVECS# = FDS.NVECS# + 1 ;
     2874    20453    3      SBIN_IDX = SBIN_IDX + 1 ;
     2875    20454    3      IF I > 0
     2876    20455    3      THEN
     2877    20456    4      DO ;
     2878    20457    4         CALL INSERT(FMT_BUF,FDS.FMT_.BOUND+1,4,',%+D') ;
     2879    20458    4         FDS.FMT_.BOUND = FDS.FMT_.BOUND + 4 ;
     2880    20459    4         END ;                    /* Then do                            */
     2881    20460    3      ELSE
     2882    20461    4      DO ;
     2883    20462    4         CALL INSERT(FMT_BUF,FDS.FMT_.BOUND+1,3,'%+D') ;
     2884    20463    4         FDS.FMT_.BOUND = FDS.FMT_.BOUND + 3 ;
     2885    20464    4         END ;                    /* Else do                            */
     2886    20465    3      END ;                        /* Do i                               */
     2887    20466    2   OUTPUT_TABS:
     2888    20467                                                /**/
     2889    20468    2   RETURN ;
     2890    20469                                                /**/
     2891    20470    2   END   LIST_TABS ;
     2892    20471        %EJECT;
PL6.E3A0      #001=ASL$DISP_ONE_PROFILE File=ASL$L_PRO.:E05TSI                   TUE 07/29/97 10:26 Page:83
     2893    20472    1   LIST_GR_ESCAPES: PROC;
     2894    20473    2   DCL GR_ESC_FMT CHAR (0) CONSTANT INIT ('%N-GR_ESCAPE %D');
     2895    20474    2   DCL SINGLHORS_FMT CHAR (0) CONSTANT INIT ('%N-%A');
     2896    20475    2   DCL FOUR UBIN CONSTANT INIT (4);
     2897    20476    2   DCL 1 SECOND (0:10) ALIGNED,
     2898    20477    2          2 TAB UBIN ALIGNED,
     2899    20478    2          2 HORS CHAR (8) ALIGNED;
     2900    20479    2   DCL CMP_CNT SBIN;
     2901    20480    2   DCL CUR_IDX SBIN;
     2902    20481    2   DCL NEXT UBIN ;
     2903    20482    2   DCL NUM_ESCAPES SBIN;
     2904    20483    2   DCL HARDWARE CHAR (0) CONSTANT INIT ('HARDWARE');
     2905    20484    2   DCL SOFTWARE CHAR (0) CONSTANT INIT ('SOFTWARE');
     2906    20485    2   DCL POS UBIN; /* Position in array of next element to output */
     2907    20486    2   DCL LINE_POS UBIN;
     2908    20487    2   DCL I UBIN;
     2909    20488    2   DCL FMT_LEN UBIN;
     2910    20489
     2911    20490    3   DO I = 0 TO 280 /* L_PRO_END */;
     2912    20491    3      IF ASL_PRO_OPT_TBL.ORDR (I) = 242 /* L_GR_ESCAPE */
     2913    20492    3      THEN EXIT;
     2914    20493    3      END;  /* That finds where the escape is in the order */
     2915    20494
     2916    20495        /* Now we have to find the next element to output after the escape. */
     2917    20496    3   DO NEXT = I+1 TO 280 /* L_PRO_END */;
     2918    20497    3      IF (PRO_FLAGS (ASL_PRO_OPT_TBL.ORDR (NEXT)) AND
     2919    20498    3           (ASL_PRO_OPT_TBL.LEN (NEXT) ~= 0))
     2920    20499    3      THEN EXIT;
     2921    20500    3      END;
     2922    20501
     2923    20502    2   CUR_IDX = NEXT;
     2924    20503
     2925    20504    2   IF (NEXT = 280 /* L_PRO_END */)
     2926    20505    3   THEN DO;
     2927    20506    3      NXT_IDX = CUR_IDX + 1 ;
     2928    20507    3      END;
     2929    20508    3   ELSE DO;
PL6.E3A0      #001=ASL$DISP_ONE_PROFILE File=ASL$L_PRO.:E05TSI                   TUE 07/29/97 10:26 Page:84
     2930    20509    3      NXT_IDX = CUR_IDX ;
     2931    20510    3      END;
     2932    20511        /* That was to set up for the next element, now put out escapes. */
     2933    20512
     2934    20513    2   NUM_ESCAPES = GRA$->GRA$REC.NUM_ESCAPES - 1;
     2935    20514    2   IF (NUM_ESCAPES < 0)
     2936    20515    3   THEN DO;
     2937    20516    3      CALL ASB$WRITE_LO (' ', 1);  /* Blank line */
     2938    20517    3      CALL ASB$WRITE_LO ('  There are no GR_ESCAPE values set.',36);
     2939    20518    3      RETURN;
     2940    20519    3      END;
     2941    20520
     2942    20521    2   POS = 0;
     2943    20522    2   IF (LO_WIDTH < 49) /* If we cant fit >= 2 per line do this */
     2944    20523    3   THEN DO;
     2945    20524    4      DO WHILE (NUM_ESCAPES >= 0);
     2946    20525    4         FMT_BUF = GR_ESC_FMT;
     2947    20526    4         FDS.FMT_.BOUND = LENGTHC (GR_ESC_FMT);
     2948    20527    4         FDS.NVECS# = 2;
     2949    20528    4         FMT_VEC (0) = VECTOR (FOUR);
     2950    20529    4         FMT_VEC(1) = VECTOR (GRA$->GRA$REC.GR_ESCAPES.ESCAPE_FUNCTION(POS));
     2951    20530    4         CALL X$FORMAT (FDS);
     2952    20531    4         FMT_VEC (0) = VECTOR (FOUR);
     2953    20532    4         IF (GRA$->GRA$REC.GR_ESCAPES.ESCAPE_SUPPORT(POS) = 1)
     2954    20533    5         THEN DO;
     2955    20534    5            FMT_VEC(1) = VECTOR (HARDWARE);
     2956    20535    5            END;
     2957    20536    5         ELSE DO;
     2958    20537    5            FMT_VEC(1) = VECTOR (SOFTWARE);
     2959    20538    5            END;
     2960    20539    4         POS = POS + 1;
     2961    20540    4         FMT_BUF = SINGLHORS_FMT;
     2962    20541    4         NUM_ESCAPES = NUM_ESCAPES - 1;
     2963    20542    4         CALL X$FORMAT (FDS);
     2964    20543    4         CALL ASB$WRITE_LO (' ',1) ; /* Blank line. */
     2965    20544    4         END;
     2966    20545    3      FDS.NVECS# = 0;
PL6.E3A0      #001=ASL$DISP_ONE_PROFILE File=ASL$L_PRO.:E05TSI                   TUE 07/29/97 10:26 Page:85
     2967    20546    3      RETURN;
     2968    20547    3      END;
     2969    20548
     2970    20549        /* Multiple entries per line lets do it or screw it! */
     2971    20550
     2972    20551    3   DO WHILE (NUM_ESCAPES >= 0); /* Coded in 1 hour */
     2973    20552    3      LINE_POS = 0;
     2974    20553    3      I = 0;
     2975    20554    3      FDS.NVECS# = 0;
     2976    20555    3      FMT_BUF = ' ';
     2977    20556    3      FMT_LEN = 0;
     2978    20557    3      SBIN_IDX = 0; /* Index into sbins. */
     2979    20558    3      FDS.FMT_.BOUND = 0;
     2980    20559    3      NEXT = 0; /* This tracks the entries into second. */
     2981    20560    4      DO WHILE ((LINE_POS <= (LO_WIDTH - 23)) AND
     2982    20561    4           (NUM_ESCAPES >= 0) );
     2983    20562    4         CALL INSERT (FMT_BUF, FMT_LEN, SIZEC (GR_ESC_FMT), GR_ESC_FMT);
     2984    20563    4         IF (LINE_POS = 0) /* Start of the line */
     2985    20564    4         THEN SBINS (SBIN_IDX) = 4; /* Tab 4 spaces to start of line. */
     2986    20565    4         ELSE SBINS (SBIN_IDX) = 4 + LINE_POS; /* Tab to entry */
     2987    20566    4         FMT_VEC (I) = VECTOR (SBINS (SBIN_IDX));
     2988    20567    4         SECOND.TAB (NEXT) = SBINS (SBIN_IDX) + 1;
     2989    20568    4         SBIN_IDX = SBIN_IDX + 1;
     2990    20569    4         I = I + 1;
     2991    20570
     2992    20571    4         FDS.FMT_.BOUND = FDS.FMT_.BOUND + LENGTHC (GR_ESC_FMT);
     2993    20572    4         FMT_LEN = FMT_LEN + SIZEC (GR_ESC_FMT);
     2994    20573    4         FMT_VEC (I) = VECTOR (GRA$->GRA$REC.GR_ESCAPES.ESCAPE_FUNCTION(POS));
     2995    20574    4         FDS.NVECS# = FDS.NVECS# + 2;
     2996    20575    4         IF (GRA$->GRA$REC.GR_ESCAPES.ESCAPE_SUPPORT(POS) = 1)
     2997    20576    5         THEN DO;
     2998    20577    5            SECOND.HORS (NEXT) = HARDWARE;
     2999    20578    5            END;
     3000    20579    5         ELSE DO;
     3001    20580    5            SECOND.HORS (NEXT) = SOFTWARE;
     3002    20581    5            END;
     3003    20582
PL6.E3A0      #001=ASL$DISP_ONE_PROFILE File=ASL$L_PRO.:E05TSI                   TUE 07/29/97 10:26 Page:86
     3004    20583    4         I = I + 1;
     3005    20584    4         NEXT = NEXT + 1;
     3006    20585    4         POS = POS + 1;
     3007    20586    4         LINE_POS = LINE_POS + 20;
     3008    20587    4         NUM_ESCAPES = NUM_ESCAPES - 1;
     3009    20588    4         END;  /* We are now done going through a page. */
     3010    20589    3      CALL ASB$WRITE_LO (' ', 1); /* Blank line */
     3011    20590    3      CALL X$FORMAT (FDS);   /* Write out the headings. */
     3012    20591
     3013    20592    3      FDS.NVECS# = 0;
     3014    20593    3      FMT_LEN = 0;
     3015    20594    3      FMT_BUF = ' ';
     3016    20595    3      FDS.FMT_.BOUND = 0;
     3017    20596    3      LINE_POS = 0;
     3018    20597    4      DO I = 0 TO NEXT - 1; /* Next is the number of entries in second */
     3019    20598    4         CALL INSERT (FMT_BUF, FMT_LEN, SIZEC (SINGLHORS_FMT), SINGLHORS_FMT);
     3020    20599    4         FMT_VEC (LINE_POS) = VECTOR (SECOND.TAB (I));
     3021    20600    4         FMT_VEC (LINE_POS + 1) = VECTOR (SECOND.HORS (I));
     3022    20601    4         LINE_POS = LINE_POS + 2;
     3023    20602    4         FDS.NVECS# = FDS.NVECS# + 2;
     3024    20603    4         FMT_LEN = FMT_LEN + SIZEC (SINGLHORS_FMT);
     3025    20604    4         FDS.FMT_.BOUND = FDS.FMT_.BOUND + LENGTHC (SINGLHORS_FMT);
     3026    20605    4         END;
     3027    20606    3      CALL X$FORMAT (FDS);
     3028    20607    3      END;
     3029    20608
     3030    20609    2   FMT_LEN = 0;
     3031    20610    2   FMT_BUF = ' ';
     3032    20611    2   FDS.FMT_.BOUND = 0;
     3033    20612    2   FDS.NVECS# = 0;
     3034    20613    2   RETURN;
     3035    20614    2   END LIST_GR_ESCAPES;
     3036    20615        %EJECT;
PL6.E3A0      #001=ASL$DISP_ONE_PROFILE File=ASL$L_PRO.:E05TSI                   TUE 07/29/97 10:26 Page:87
     3037    20616        /* This routine lists the key definition block of profiles.  See the
     3038    20617           file AS_FUNKEY_DEFS_C fo a description of this block.  This routine
     3039    20618           is self contained.  To add new key definitions, a equ must be added
     3040    20619           to KV$INPFNC, the name must be added to the list of FUNKEY_NAMES in
     3041    20620           the position corresponding to the equate for the key (the equate
     3042    20621           must be less than 256) and the nodes in ASP$FUNKEY_NODS must be
     3043    20622           added.  That is all.
     3044    20623        */
     3045    20624    1   LIST_FUNKEY_DEFS: PROC;
     3046    20625    2   DCL J UBIN WORD;
     3047    20626    2   DCL NUM_ON_LINE UBIN WORD;
     3048    20627    2   DCL CUR_KEY SBIN WORD;
     3049    20628    2   DCL ENTRY_LENGTH UBIN STATIC INIT (46);
     3050    20629    2   DCL KEYNAME (0:5)  CHAR (24) ALIGNED;
     3051    20630    2   DCL START UBIN WORD ALIGNED;
     3052    20631    2   DCL LAST UBIN WORD ALIGNED;
     3053    20632    2   DCL KEYNMOD UBIN WORD ALIGNED;
     3054    20633    2   DCL MODIFIER    (0:5) SBIN WORD ALIGNED;
     3055    20634    2   DCL TAB_POS    (0:5) SBIN WORD ALIGNED;
     3056    20635    2   DCL TEMP_LEN UBIN WORD ALIGNED;
     3057    20636    2   DCL TEMP CHAR (12) ALIGNED;
     3058    20637    2   DCL CHAR2 CHAR (2) ALIGNED;
     3059    20638
     3060    20639        /*  WARNING... WARNING... WARNING...  The values in the following
     3061    20640              array correspond directly with the equates for the specific
     3062    20641              name as they are defined in the file KV$INPFNC and in the
     3063    20642              macro KV_INPFNCKEY_E.   If a new key is added the name must
     3064    20643              be correctly inserted.
     3065    20644        */
     3066    20645    2   DCL FUNKEY_NAMES (0:256) CHAR (24) ALIGNED CONSTANT INIT (
     3067    20646    2                    'F0' ,
     3068    20647    2                    'F1' ,
     3069    20648    2                    'F2' ,
     3070    20649    2                    'F3' ,
     3071    20650    2                    'F4' ,
     3072    20651    2                    'F5' ,
     3073    20652    2                    'F6' ,
PL6.E3A0      #001=ASL$DISP_ONE_PROFILE File=ASL$L_PRO.:E05TSI                   TUE 07/29/97 10:26 Page:88
     3074    20653    2                    'F7' ,
     3075    20654    2                    'F8' ,
     3076    20655    2                    'F9' ,
     3077    20656    2                    'F10' ,
     3078    20657    2                    'F11' ,
     3079    20658    2                    'F12' ,
     3080    20659    2                    'F13' ,
     3081    20660    2                    'F14' ,
     3082    20661    2                    'F15' ,
     3083    20662    2                    'F16' ,
     3084    20663    2                    'F17' ,
     3085    20664    2                    'F18' ,
     3086    20665    2                    'F19' ,
     3087    20666    2                    'F20' ,
     3088    20667    2                    'F21' ,
     3089    20668    2                    'F22' ,
     3090    20669    2                    'F23' ,
     3091    20670    2                    'F24' ,
     3092    20671    2                    'F25' ,
     3093    20672    2                    'SPARE12' ,
     3094    20673    2                    'SPARE13' ,
     3095    20674    2                    'SPARE14' ,
     3096    20675    2                    'SPARE15' ,
     3097    20676    2                    'SPARE16' ,
     3098    20677    2                    'SPARE17' ,
     3099    20678    2                    'SPARE18' ,
     3100    20679    2                    'SPARE19' ,
     3101    20680    2                    'SPARE20' ,
     3102    20681    2                    'SPARE21' ,
     3103    20682    2                    'SPARE22' ,
     3104    20683    2                    'SPARE23' ,
     3105    20684    2                    'HELP',
     3106    20685    2                    'C_END' ,
     3107    20686    2                    'SF0' ,
     3108    20687    2                    'SF1' ,
     3109    20688    2                    'SF2' ,
     3110    20689    2                    'SF3' ,
PL6.E3A0      #001=ASL$DISP_ONE_PROFILE File=ASL$L_PRO.:E05TSI                   TUE 07/29/97 10:26 Page:89
     3111    20690    2                    'SF4' ,
     3112    20691    2                    'SF5' ,
     3113    20692    2                    'SF6' ,
     3114    20693    2                    'SF7' ,
     3115    20694    2                    'SF8' ,
     3116    20695    2                    'SF9' ,
     3117    20696    2                    'SF10' ,
     3118    20697    2                    'SF11' ,
     3119    20698    2                    'SF12' ,
     3120    20699    2                    'SF13' ,
     3121    20700    2                    'SF14' ,
     3122    20701    2                    'SF15' ,
     3123    20702    2                    'SF16' ,
     3124    20703    2                    'SF17' ,
     3125    20704    2                    'SF18' ,
     3126    20705    2                    'SF19' ,
     3127    20706    2                    'SF20' ,
     3128    20707    2                    'SF21' ,
     3129    20708    2                    'SF22' ,
     3130    20709    2                    'SF23' ,
     3131    20710    2                    'SF24' ,
     3132    20711    2                    'SF25' ,
     3133    20712    2                    'UF0' ,
     3134    20713    2                    'UF1' ,
     3135    20714    2                    'UF2' ,
     3136    20715    2                    'UF3' ,
     3137    20716    2                    'UF4' ,
     3138    20717    2                    'UF5' ,
     3139    20718    2                    'UF6' ,
     3140    20719    2                    'UF7' ,
     3141    20720    2                    'UF8' ,
     3142    20721    2                    'UF9' ,
     3143    20722    2                    'UF10' ,
     3144    20723    2                    'UF11' ,
     3145    20724    2                    'UF12' ,
     3146    20725    2                    'UF13' ,
     3147    20726    2                    'UF14' ,
PL6.E3A0      #001=ASL$DISP_ONE_PROFILE File=ASL$L_PRO.:E05TSI                   TUE 07/29/97 10:26 Page:90
     3148    20727    2                    'UF15' ,
     3149    20728    2                    'UF16' ,
     3150    20729    2                    'UF17' ,
     3151    20730    2                    'UF18' ,
     3152    20731    2                    'UF19' ,
     3153    20732    2                    'UF20' ,
     3154    20733    2                    'UF21' ,
     3155    20734    2                    'UF22' ,
     3156    20735    2                    'UF23' ,
     3157    20736    2                    'UF24' ,
     3158    20737    2                    'ARC' ,
     3159    20738    2                    'AREA_FILL' ,
     3160    20739    2                    'ASSIGN_INPUT' ,
     3161    20740    2                    'ASSIGN_OUTPUT' ,
     3162    20741    2                    'ATTRIBUTE_OFF' ,
     3163    20742    2                    'ATTRIBUTE_ON' ,
     3164    20743    2                    'AUX' ,
     3165    20744    2                    'AUX_ON' ,
     3166    20745    2                    'AUX_SEND' ,
     3167    20746    2                    'ENTER' ,
     3168    20747    2                    'CLEAR' ,
     3169    20748    2                    'PA1' ,
     3170    20749    2                    'PA2' ,
     3171    20750    2                    'PA3' ,
     3172    20751    2                    'PA4' ,
     3173    20752    2                    'ATTENTION' ,
     3174    20753    2                    'C_HOME' ,
     3175    20754    2                    'BACK_TAB' ,
     3176    20755    2                    'BLACK' ,
     3177    20756    2                    'BLINK' ,
     3178    20757    2                    'BLUE' ,
     3179    20758    2                    'C_PGUP' ,
     3180    20759    2                    'CALC_MODE' ,
     3181    20760    2                    'CHANGE' ,
     3182    20761    2                    'CHARACTER_MODE' ,
     3183    20762    2                    'CIRCLE' ,
     3184    20763    2                    'CLEAR_ENTRY' ,
PL6.E3A0      #001=ASL$DISP_ONE_PROFILE File=ASL$L_PRO.:E05TSI                   TUE 07/29/97 10:26 Page:91
     3185    20764    2                    'CLEAR_TO_RT_MARGIN' ,
     3186    20765    2                    'COLOR_SWAP' ,
     3187    20766    2                    'CONCAT_VECTOR' ,
     3188    20767    2                    'COPY' ,
     3189    20768    2                    'CREATE' ,
     3190    20769    2                    'CURSOR_ON' ,
     3191    20770    2                    'CURVE' ,
     3192    20771    2                    'DEFINE' ,
     3193    20772    2                    'C_PGDN' ,
     3194    20773    2                    'DELETE_CHAR_EOP' ,
     3195    20774    2                    'DELETE_CHARACTER' ,
     3196    20775    2                    'DELETE_LINE' ,
     3197    20776    2                    'DELETE_MODE_EOL' ,
     3198    20777    2                    'DELETE_MODE_EOP' ,
     3199    20778    2                    'DNARROW' ,
     3200    20779    2                    'DOS' ,
     3201    20780    2                    'DOT' ,
     3202    20781    2                    'E_AUX' ,
     3203    20782    2                    'END_OF_FIELD' ,
     3204    20783    2                    'END_OF_LINE' ,
     3205    20784    2                    'END_OF_PAGE' ,
     3206    20785    2                    'ERASE_ALL' ,
     3207    20786    2                    'ERASE_EOF' ,
     3208    20787    2                    'ERASE_EOP' ,
     3209    20788    2                    'EXECUTE' ,
     3210    20789    2                    'EXIT' ,
     3211    20790    2                    'FILL' ,
     3212    20791    2                    'FORMS' ,
     3213    20792    2                    'FORM_MODE' ,
     3214    20793    2                    'SU0' ,
     3215    20794    2                    'SU1' ,
     3216    20795    2                    'SU2' ,
     3217    20796    2                    'SU3' ,
     3218    20797    2                    'SU4' ,
     3219    20798    2                    'SU5' ,
     3220    20799    2                    'SU6' ,
     3221    20800    2                    'SU7' ,
PL6.E3A0      #001=ASL$DISP_ONE_PROFILE File=ASL$L_PRO.:E05TSI                   TUE 07/29/97 10:26 Page:92
     3222    20801    2                    'SU8' ,
     3223    20802    2                    'SU9' ,
     3224    20803    2                    'SU10' ,
     3225    20804    2                    'SU11' ,
     3226    20805    2                    'SU12' ,
     3227    20806    2                    'SU13' ,
     3228    20807    2                    'SU14' ,
     3229    20808    2                    'SU15' ,
     3230    20809    2                    'SU16' ,
     3231    20810    2                    'SU17' ,
     3232    20811    2                    'SU18' ,
     3233    20812    2                    'SU19' ,
     3234    20813    2                    'SU20' ,
     3235    20814    2                    'SU21' ,
     3236    20815    2                    'SU22' ,
     3237    20816    2                    'SU23' ,
     3238    20817    2                    'SU24' ,
     3239    20818    2                    'GOTO_RIGHT_MARGIN' ,
     3240    20819    2                    'GREEN' ,
     3241    20820    2                    'HOME' ,
     3242    20821    2                    'IDRIS' ,
     3243    20822    2                    'INCREMENT_X_BAR' ,
     3244    20823    2                    'INCREMENT_Y_BAR' ,
     3245    20824    2                    'INC_VECTOR' ,
     3246    20825    2                    'INIT' ,
     3247    20826    2                    'INSERT_CHARACTER' ,
     3248    20827    2                    'INSERT_LINE' ,
     3249    20828    2                    'INSERT_MODE' ,
     3250    20829    2                    'INSERT_MODE_EOL' ,
     3251    20830    2                    'INSERT_MODE_EOP' ,
     3252    20831    2                    'LINE' ,
     3253    20832    2                    'LOCAL' ,
     3254    20833    2                    'LTARROW' ,
     3255    20834    2                    'M1' ,
     3256    20835    2                    'M2' ,
     3257    20836    2                    'MEMORY_LOCK' ,
     3258    20837    2                    'MONITOR' ,
PL6.E3A0      #001=ASL$DISP_ONE_PROFILE File=ASL$L_PRO.:E05TSI                   TUE 07/29/97 10:26 Page:93
     3259    20838    2                    'MOVE_X_Y' ,
     3260    20839    2                    'OTHER_XMIT' ,
     3261    20840    2                    'OVERLAY' ,
     3262    20841    2                    'PAGE' ,
     3263    20842    2                    'PAN_X_Y' ,
     3264    20843    2                    'PLOT' ,
     3265    20844    2                    'PLOT_MODE' ,
     3266    20845    2                    'POLYGON' ,
     3267    20846    2                    'PRINT' ,
     3268    20847    2                    'PURPLE' ,
     3269    20848    2                    'RAY' ,
     3270    20849    2                    'RECALL' ,
     3271    20850    2                    'RECTANGLE' ,
     3272    20851    2                    'RED' ,
     3273    20852    2                    'REDRAW' ,
     3274    20853    2                    'RESET' ,
     3275    20854    2                    'RESET_INSERT_MODE' ,
     3276    20855    2                    'ROLL' ,
     3277    20856    2                    'RTARROW' ,
     3278    20857    2                    'RUBBER_BAND' ,
     3279    20858    2                    'C_LTARROW' ,
     3280    20859    2                    'SCALE' ,
     3281    20860    2                    'SCROLL_SEG_DOWN' ,
     3282    20861    2                    'SCROLL_SEG_UP' ,
     3283    20862    2                    'SEND' ,
     3284    20863    2                    'SET' ,
     3285    20864    2                    'SPARE0' ,
     3286    20865    2                    'SPARE1' ,
     3287    20866    2                    'SPARE2' ,
     3288    20867    2                    'SPARE3' ,
     3289    20868    2                    'SPARE4' ,
     3290    20869    2                    'SPARE5' ,
     3291    20870    2                    'SPARE6' ,
     3292    20871    2                    'SPARE7' ,
     3293    20872    2                    'SPARE8' ,
     3294    20873    2                    'SPARE9' ,
     3295    20874    2                    'SPARE10' ,
PL6.E3A0      #001=ASL$DISP_ONE_PROFILE File=ASL$L_PRO.:E05TSI                   TUE 07/29/97 10:26 Page:94
     3296    20875    2                    'SPARE11' ,
     3297    20876    2                    'SIZE' ,
     3298    20877    2                    'TAB_CLEAR_1' ,
     3299    20878    2                    'TAB_CLEAR_ALL' ,
     3300    20879    2                    'TAB_SET' ,
     3301    20880    2                    'TERMINAL' ,
     3302    20881    2                    'TEST' ,
     3303    20882    2                    'TEST_TONE' ,
     3304    20883    2                    'TEXT_MODE' ,
     3305    20884    2                    'THAW' ,
     3306    20885    2                    'TRANSMIT' ,
     3307    20886    2                    'TRIANGLE' ,
     3308    20887    2                    'TURQUOISE' ,
     3309    20888    2                    'UPARROW' ,
     3310    20889    2                    'VECTOR' ,
     3311    20890    2                    'VERTICAL_WIDTH' ,
     3312    20891    2                    'VIEW' ,
     3313    20892    2                    'WHITE' ,
     3314    20893    2                    'WINDOW' ,
     3315    20894    2                    'YELLOW' ,
     3316    20895    2                    'C_RTARROW',
     3317    20896    2                    'C_UPARROW',
     3318    20897    2                    'C_DNARROW',
     3319    20898    2                    'S_LTARROW',
     3320    20899    2                    'S_RTARROW',
     3321    20900    2                    'S_UPARROW',
     3322    20901    2                    'S_DNARROW',
     3323    20902    2                    'IGNORE' );
     3324    20903
     3325    20904    2   CALL ASB$WRITE_LO ('   FUNCTION_KEY', 15);
     3326    20905    2   IF (KL$FUNKEY.NUM_DEFS = 0)
     3327    20906    3   THEN DO;
     3328    20907    3      IF NOT JCL THEN
     3329    20908    3         CALL ASB$WRITE_LO ('    None', 8);
     3330    20909    3      RETURN;
     3331    20910    3      END;
     3332    20911
PL6.E3A0      #001=ASL$DISP_ONE_PROFILE File=ASL$L_PRO.:E05TSI                   TUE 07/29/97 10:26 Page:95
     3333    20912    2   TAB_POS (0) = 5;
     3334    20913    3   DO J = 1 TO 5;
     3335    20914    3      TAB_POS (J) = ENTRY_LENGTH + TAB_POS (J - 1);
     3336    20915    3      END;
     3337    20916    2   CUR_KEY = -1;  /* This sets up to inc the current key before each new
     3338    20917                          key is taken. */
     3339    20918    3   DO WHILE (CUR_KEY < KL$FUNKEY.NUM_DEFS - 1);
     3340    20919
     3341    20920    3      FMT_VEC ( 0 ) = VECTOR ( TAB_POS ( 0 ) );
     3342    20921    3      SBIN_IDX = 0;
     3343    20922    3      NUM_ON_LINE = 0;
     3344    20923    3      FDS.NVECS# = 1;
     3345    20924    3      FMT_BUF = '%N-';
     3346    20925    3      FDS.FMT_.BOUND = 2;
     3347    20926    4      DO WHILE ((((NUM_ON_LINE + 1) * ENTRY_LENGTH) <= LO_WIDTH) AND
     3348    20927    4           (CUR_KEY < KL$FUNKEY.NUM_DEFS - 1) );
     3349    20928
     3350    20929    4         MODIFIER(NUM_ON_LINE) = -1;
     3351    20930    4         CUR_KEY = CUR_KEY + 1; /* This starts us with the next key */
     3352    20931              /* Frist we get the name of the key. */
     3353    20932    4         IF (KL$FUNKEY.FCNKEY.FCN_BYTE2 (CUR_KEY) = %KV_INPFNCTYP_CTR)
     3354    20933    5         THEN DO;  /* The key is a line function */
     3355    20934    5            IF (KL$FUNKEY.FCNKEY.FCN_BYTE3 (CUR_KEY) = 1)
     3356    20935    6            THEN DO;  /* code for break */
     3357    20936    6               KEYNAME (NUM_ON_LINE) = 'BREAK';
     3358    20937    6               END;   /* If */
     3359    20938    6            ELSE DO;
     3360    20939    6               KEYNAME (NUM_ON_LINE) = 'Unrecognized key';
     3361    20940    6               END;   /*  Else  */
     3362    20941    5            END;
     3363    20942    4         ELSE IF (KL$FUNKEY.FCNKEY.FCN_BYTE2 (CUR_KEY) = %KV_INPFNCTYP_SPCCHR)
     3364    20943    5            THEN DO;
     3365    20944    5               IF (KL$FUNKEY.FCNKEY.FCN_BYTE3(CUR_KEY) < 33) OR
     3366    20945    5                    (KL$FUNKEY.FCNKEY.FCN_BYTE3(CUR_KEY) = 127) THEN
     3367    20946    5                  KEYNAME (NUM_ON_LINE) = UNPRINT_TABLE.TXT (KL$FUNKEY.FCNKEY.FCN_BYTE3
             20946                           (CUR_KEY));
     3368    20947    5               ELSE
PL6.E3A0      #001=ASL$DISP_ONE_PROFILE File=ASL$L_PRO.:E05TSI                   TUE 07/29/97 10:26 Page:96
     3369    20948    5                  IF (KL$FUNKEY.FCNKEY.FCN_BYTE3(CUR_KEY) < 127)
     3370    20949    6                  THEN DO;  /* It is printable */
     3371    20950    6                     TEMP = BINASC (KL$FUNKEY.FCNKEY.FCN_BYTE3(CUR_KEY));
     3372    20951    6                     CALL CONCAT (KEYNAME (NUM_ON_LINE), '''', SUBSTR (TEMP, 0, 1),
             20951                              '''');
     3373    20952    6                     END; /*  Printable BYTE3  */
     3374    20953    6                  ELSE DO;
     3375    20954    6                     UHEX_NUM = KL$FUNKEY.FCNKEY.FCN_BYTE3 (CUR_KEY);
     3376    20955    7                     DO I = 5 TO 8 ;
     3377    20956    7                        RHEX_BUF(I-5) = HEX_CHARS(HEX_NUM(I)) ;
     3378    20957    7                        END ;                  /* Do i */
     3379    20958    6                     CALL EDITSTR( HEX_BUF, 0, 4, MOP_STR, HEX_BUF );
     3380    20959    6                     CALL INDEX1R( I, AS_BLANK, HEX_BUF )
     3381    20960    7                     WHENRETURN DO;
     3382    20961    7                        I = I + 1;
     3383    20962    7                        END; /*  Whenreturn  */
     3384    20963    7                     WHENALTRETURN DO;
     3385    20964    7                        I = 0;
     3386    20965    7                        END ; /*  Whenaltreturn  */
     3387    20966    6                     CALL CONCAT (KEYNAME (NUM_ON_LINE), 'X''',SUBSTR(HEX_BUF,I,4-I),
             20966                              '''') ;
     3388    20967    6                     END; /*  Hex number  */
     3389    20968    5               END;  /*  BYTE2 = spcchr  */
     3390    20969    4            ELSE IF (KL$FUNKEY.FCNKEY.FCN_BYTE2 (CUR_KEY) = %KV_INPFNCTYP_FNCKEY)
     3391    20970    5               THEN DO;
     3392    20971    5                  KEYNAME (NUM_ON_LINE) = FUNKEY_NAMES (KL$FUNKEY.FCNKEY.FCN_BYTE3 (
             20971                           CUR_KEY));
     3393    20972    5                  END;  /*  BYTE2 = fnckey  */
     3394    20973    4               ELSE IF (KL$FUNKEY.FCNKEY.FCN_BYTE2 (CUR_KEY) = %KV_INPFNCKEY_IGNORE)
     3395    20974    5                  THEN DO;
     3396    20975    5                     KEYNAME (NUM_ON_LINE) = FUNKEY_NAMES (256);
     3397    20976    5                     END;  /*  BYTE2 = ignore  */
     3398    20977    5                  ELSE DO; /* Deal with a modifier for the key. */
     3399    20978    5                     KEYNMOD = KL$FUNKEY.FCNKEY.FCN_BYTE2 (CUR_KEY);
     3400    20979    5                     IF ((KEYNMOD >= %KV_FCNKEY_MODIFIER_BASE) AND
     3401    20980    5                          (KEYNMOD < %KV_SPCCHR_MODIFIER_BASE) )
     3402    20981    6                     THEN DO; /* This is a modifier for a function key */
PL6.E3A0      #001=ASL$DISP_ONE_PROFILE File=ASL$L_PRO.:E05TSI                   TUE 07/29/97 10:26 Page:97
     3403    20982    6                        MODIFIER(NUM_ON_LINE) = KEYNMOD - %KV_FCNKEY_MODIFIER_BASE;
     3404    20983    6                        KEYNAME (NUM_ON_LINE) = FUNKEY_NAMES (KL$FUNKEY.FCNKEY.
             20983                                 FCN_BYTE3 (CUR_KEY));
     3405    20984    6                        END; /* Function key modifier */
     3406    20985    5                     IF (KEYNMOD >= %KV_SPCCHR_MODIFIER_BASE)
     3407    20986    6                     THEN DO;
     3408    20987    6                        MODIFIER(NUM_ON_LINE) = KEYNMOD - %KV_SPCCHR_MODIFIER_BASE;
     3409    20988    6                        IF (KL$FUNKEY.FCNKEY.FCN_BYTE3(CUR_KEY) < 33) OR
     3410    20989    6                             (KL$FUNKEY.FCNKEY.FCN_BYTE3(CUR_KEY) = 127) THEN
     3411    20990    6                           KEYNAME (NUM_ON_LINE) = UNPRINT_TABLE.TXT (KL$FUNKEY.FCNKEY.
             20990                                    FCN_BYTE3(CUR_KEY));
     3412    20991    6                        ELSE
     3413    20992    6                           IF (KL$FUNKEY.FCNKEY.FCN_BYTE3(CUR_KEY) < 127)
     3414    20993    7                           THEN DO; /* It is printable */
     3415    20994    7                              TEMP = BINASC (KL$FUNKEY.FCNKEY.FCN_BYTE3(CUR_KEY));
     3416    20995    7                              CALL CONCAT (KEYNAME (NUM_ON_LINE), '''', SUBSTR (TEMP, 0
             20995                                       , 1), '''');
     3417    20996    7                              END; /*  Printable single char  */
     3418    20997    7                           ELSE DO;
     3419    20998    7                              UHEX_NUM = KL$FUNKEY.FCNKEY.FCN_BYTE3 (CUR_KEY);
     3420    20999    8                              DO I = 5 TO 8 ;
     3421    21000    8                                 RHEX_BUF(I-5) = HEX_CHARS(HEX_NUM(I)) ;
     3422    21001    8                                 END ;         /* Do i */
     3423    21002    7                              CALL EDITSTR( HEX_BUF, 0, 4, MOP_STR, HEX_BUF );
     3424    21003    7                              CALL INDEX1R( I, AS_BLANK, HEX_BUF )
     3425    21004    8                              WHENRETURN DO;
     3426    21005    8                                 I = I + 1;
     3427    21006    8                                 END; /*  Whenreturn  */
     3428    21007    8                              WHENALTRETURN DO;
     3429    21008    8                                 I = 0;
     3430    21009    8                                 END ; /*  Whenaltreturn  */
     3431    21010    7                              CALL CONCAT (KEYNAME (NUM_ON_LINE), 'X''',SUBSTR(HEX_BUF,
             21010                                       I,4-I),'''') ;
     3432    21011    7                              END; /*  Hex number  */
     3433    21012    6                        END; /* Special character modifier */
     3434    21013    5                     END; /* Else do */
     3435    21014
PL6.E3A0      #001=ASL$DISP_ONE_PROFILE File=ASL$L_PRO.:E05TSI                   TUE 07/29/97 10:26 Page:98
     3436    21015    4         FMT_VEC (FDS.NVECS#) = VECTOR ( KEYNAME (NUM_ON_LINE) );
     3437    21016    4         FDS.NVECS# = FDS.NVECS# + 1;
     3438    21017    4         CALL INSERT (FMT_BUF,FDS.FMT_.BOUND+1,6,'%>A = ');
     3439    21018    4         FDS.FMT_.BOUND = FDS.FMT_.BOUND + 6;
     3440    21019
     3441    21020              /* Next we put the introducers and character into the array*/
     3442    21021
     3443    21022    4         IF (KL$FUNKEY.FCNKEY.FCN_BYTE0 (CUR_KEY) = 0)
     3444    21023    5         THEN DO; /* Use the first introducer */
     3445    21024    5            IF (KL$FUNKEY.INTRO1.CHR1 < 33) OR
     3446    21025    6                 (KL$FUNKEY.INTRO1.CHR1 = 127) THEN DO;  /*  Mnemonic  */
     3447    21026    6               FMT_VEC ( FDS.NVECS# ) = VECTOR (UNPRINT_TABLE.TXT(KL$FUNKEY.INTRO1.CHR1
             21026                        ));
     3448    21027    6               FDS.NVECS# = FDS.NVECS# + 1;
     3449    21028    6               CALL INSERT (FMT_BUF,FDS.FMT_.BOUND+1,4,'%>A,');
     3450    21029    6               FDS.FMT_.BOUND = FDS.FMT_.BOUND + 4;
     3451    21030    6               END;  /*  Mnemonic  */
     3452    21031    5            ELSE
     3453    21032    5               IF (KL$FUNKEY.INTRO1.CHR1 < 127)
     3454    21033    6               THEN DO;  /* It is printable */
     3455    21034    6                  FMT_VEC (FDS.NVECS#) = VECTOR ( SBINS (SBIN_IDX) );
     3456    21035    6                  FDS.NVECS# = FDS.NVECS# + 1;
     3457    21036    6                  SBINS (SBIN_IDX) = FDS.NVECS# + 1;
     3458    21037    6                  SBIN_IDX = SBIN_IDX + 1;
     3459    21038    6                  FMT_VEC (FDS.NVECS#) = VECTOR (KL$FUNKEY.INTRO1.CHR1);
     3460    21039    6                  FDS.NVECS# = FDS.NVECS# + 1;
     3461    21040    6                  CALL INSERT (FMT_BUF,FDS.FMT_.BOUND+1,13,'%N..1P''%.1A'',');
     3462    21041    6                  FDS.FMT_.BOUND = FDS.FMT_.BOUND + 13;
     3463    21042    6                  END;   /*  Printable  */
     3464    21043    6               ELSE DO;   /*  Non printable  */
     3465    21044    6                  FMT_VEC (FDS.NVECS#) = VECTOR (KL$FUNKEY.INTRO1.CHR1);
     3466    21045    6                  FDS.NVECS# = FDS.NVECS# + 1;
     3467    21046    6                  CALL INSERT (FMT_BUF,FDS.FMT_.BOUND+1,6,'X''%H'',');
     3468    21047    6                  FDS.FMT_.BOUND = FDS.FMT_.BOUND + 6;
     3469    21048    6                  END;   /*  Non printable  */
     3470    21049    5            IF (KL$FUNKEY.INTRO1.CHR2 ~= -1)
     3471    21050    6            THEN DO;
PL6.E3A0      #001=ASL$DISP_ONE_PROFILE File=ASL$L_PRO.:E05TSI                   TUE 07/29/97 10:26 Page:99
     3472    21051    6               IF (KL$FUNKEY.INTRO1.CHR2 < 33) OR
     3473    21052    7                    (KL$FUNKEY.INTRO1.CHR2 = 127) THEN DO; /*  Mnemonic  */
     3474    21053    7                  FMT_VEC ( FDS.NVECS# ) = VECTOR (UNPRINT_TABLE.TXT(KL$FUNKEY.INTRO1.
             21053                           CHR2));
     3475    21054    7                  FDS.NVECS# = FDS.NVECS# + 1;
     3476    21055    7                  CALL INSERT (FMT_BUF,FDS.FMT_.BOUND+1,4,'%>A,');
     3477    21056    7                  FDS.FMT_.BOUND = FDS.FMT_.BOUND + 4;
     3478    21057    7                  END;  /*  Mnemonic  */
     3479    21058    6               ELSE
     3480    21059    6                  IF (KL$FUNKEY.INTRO1.CHR2 < 127)
     3481    21060    7                  THEN DO;  /* It is printable */
     3482    21061    7                     FMT_VEC (FDS.NVECS#) = VECTOR ( SBINS (SBIN_IDX) );
     3483    21062    7                     FDS.NVECS# = FDS.NVECS# + 1;
     3484    21063    7                     SBINS (SBIN_IDX) = FDS.NVECS# + 1;
     3485    21064    7                     SBIN_IDX = SBIN_IDX + 1;
     3486    21065    7                     FMT_VEC (FDS.NVECS#) = VECTOR (KL$FUNKEY.INTRO1.CHR2);
     3487    21066    7                     FDS.NVECS# = FDS.NVECS# + 1;
     3488    21067    7                     CALL INSERT (FMT_BUF,FDS.FMT_.BOUND+1,13,'%N..1P''%.1A'',');
     3489    21068    7                     FDS.FMT_.BOUND = FDS.FMT_.BOUND + 13;
     3490    21069    7                     END; /*  Printable  */
     3491    21070    7                  ELSE DO; /*  Non printable  */
     3492    21071    7                     FMT_VEC (FDS.NVECS#) = VECTOR (KL$FUNKEY.INTRO1.CHR2);
     3493    21072    7                     FDS.NVECS# = FDS.NVECS# + 1;
     3494    21073    7                     CALL INSERT (FMT_BUF,FDS.FMT_.BOUND+1,6,'X''%H'',');
     3495    21074    7                     FDS.FMT_.BOUND = FDS.FMT_.BOUND + 6;
     3496    21075    7                     END; /*  Non printable  */
     3497    21076    6               END;   /*  Of chr 2  */
     3498    21077    5            END; /* Of intro 1 */
     3499    21078    4         ELSE IF (KL$FUNKEY.FCNKEY.FCN_BYTE0 (CUR_KEY) = 1)
     3500    21079    5            THEN DO; /* Use the second introducer */
     3501    21080    5               IF (KL$FUNKEY.INTRO2.CHR1 < 33) OR
     3502    21081    6                    (KL$FUNKEY.INTRO2.CHR1 = 127) THEN DO; /*  Mnemonic  */
     3503    21082    6                  FMT_VEC ( FDS.NVECS# ) = VECTOR (UNPRINT_TABLE.TXT(KL$FUNKEY.INTRO2.
             21082                           CHR1));
     3504    21083    6                  FDS.NVECS# = FDS.NVECS# + 1;
     3505    21084    6                  CALL INSERT (FMT_BUF,FDS.FMT_.BOUND+1,4,'%>A,');
     3506    21085    6                  FDS.FMT_.BOUND = FDS.FMT_.BOUND + 4;
PL6.E3A0      #001=ASL$DISP_ONE_PROFILE File=ASL$L_PRO.:E05TSI                   TUE 07/29/97 10:26 Page:100
     3507    21086    6                  END;  /*  Mnemonic  */
     3508    21087    5               ELSE
     3509    21088    5                  IF (KL$FUNKEY.INTRO2.CHR1 < 127)
     3510    21089    6                  THEN DO;  /* It is printable */
     3511    21090    6                     FMT_VEC (FDS.NVECS#) = VECTOR ( SBINS (SBIN_IDX) );
     3512    21091    6                     FDS.NVECS# = FDS.NVECS# + 1;
     3513    21092    6                     SBINS (SBIN_IDX) = FDS.NVECS# + 1;
     3514    21093    6                     SBIN_IDX = SBIN_IDX + 1;
     3515    21094    6                     FMT_VEC (FDS.NVECS#) = VECTOR (KL$FUNKEY.INTRO2.CHR1);
     3516    21095    6                     FDS.NVECS# = FDS.NVECS# + 1;
     3517    21096    6                     CALL INSERT (FMT_BUF,FDS.FMT_.BOUND+1,13,'%N..1P''%.1A'',');
     3518    21097    6                     FDS.FMT_.BOUND = FDS.FMT_.BOUND + 13;
     3519    21098    6                     END; /*  Printable  */
     3520    21099    6                  ELSE DO; /*  Non printable  */
     3521    21100    6                     FMT_VEC (FDS.NVECS#) = VECTOR (KL$FUNKEY.INTRO2.CHR1);
     3522    21101    6                     FDS.NVECS# = FDS.NVECS# + 1;
     3523    21102    6                     CALL INSERT (FMT_BUF,FDS.FMT_.BOUND+1,6,'X''%H'',');
     3524    21103    6                     FDS.FMT_.BOUND = FDS.FMT_.BOUND + 6;
     3525    21104    6                     END; /*  Non printable  */
     3526    21105    5               IF (KL$FUNKEY.INTRO2.CHR2 ~= -1)
     3527    21106    6               THEN DO;
     3528    21107    6                  IF (KL$FUNKEY.INTRO2.CHR2 < 33) OR
     3529    21108    7                       (KL$FUNKEY.INTRO2.CHR2 = 127) THEN DO; /*  Mnemonic  */
     3530    21109    7                     FMT_VEC ( FDS.NVECS# ) = VECTOR (UNPRINT_TABLE.TXT(KL$FUNKEY.
             21109                              INTRO2.CHR2));
     3531    21110    7                     FDS.NVECS# = FDS.NVECS# + 1;
     3532    21111    7                     CALL INSERT (FMT_BUF,FDS.FMT_.BOUND+1,4,'%>A,');
     3533    21112    7                     FDS.FMT_.BOUND = FDS.FMT_.BOUND + 4;
     3534    21113    7                     END; /*  Mnemonic  */
     3535    21114    6                  ELSE
     3536    21115    6                     IF (KL$FUNKEY.INTRO2.CHR2 < 127)
     3537    21116    7                     THEN DO; /* It is printable */
     3538    21117    7                        FMT_VEC (FDS.NVECS#) = VECTOR ( SBINS (SBIN_IDX) );
     3539    21118    7                        FDS.NVECS# = FDS.NVECS# + 1;
     3540    21119    7                        SBINS (SBIN_IDX) = FDS.NVECS# + 1;
     3541    21120    7                        SBIN_IDX = SBIN_IDX + 1;
     3542    21121    7                        FMT_VEC (FDS.NVECS#) = VECTOR (KL$FUNKEY.INTRO2.CHR2);
PL6.E3A0      #001=ASL$DISP_ONE_PROFILE File=ASL$L_PRO.:E05TSI                   TUE 07/29/97 10:26 Page:101
     3543    21122    7                        FDS.NVECS# = FDS.NVECS# + 1;
     3544    21123    7                        CALL INSERT (FMT_BUF,FDS.FMT_.BOUND+1,13,'%N..1P''%.1A'',');
     3545    21124    7                        FDS.FMT_.BOUND = FDS.FMT_.BOUND + 13;
     3546    21125    7                        END; /*  Printable  */
     3547    21126    7                     ELSE DO; /*  Non printable  */
     3548    21127    7                        FMT_VEC (FDS.NVECS#) = VECTOR (KL$FUNKEY.INTRO2.CHR2);
     3549    21128    7                        FDS.NVECS# = FDS.NVECS# + 1;
     3550    21129    7                        CALL INSERT (FMT_BUF,FDS.FMT_.BOUND+1,6,'X''%H'',');
     3551    21130    7                        FDS.FMT_.BOUND = FDS.FMT_.BOUND + 6;
     3552    21131    7                        END; /*  Non printable  */
     3553    21132    6                  END; /*  Of chr 2  */
     3554    21133    5               END; /* Of intro 2 */
     3555    21134    5            ELSE DO; /* There is no introducer to use. */
     3556    21135    5               END;
     3557    21136
     3558    21137               /* Put the modifier of the key into the array if it exists  */
     3559    21138
     3560    21139    4         IF (MODIFIER(NUM_ON_LINE) > -1)
     3561    21140    5         THEN DO;
     3562    21141    5            FMT_VEC (FDS.NVECS#) = VECTOR (MODIFIER (NUM_ON_LINE));
     3563    21142    5            FDS.NVECS# = FDS.NVECS# + 1;
     3564    21143    5            CALL INSERT (FMT_BUF,FDS.FMT_.BOUND+1,3,'%D,');
     3565    21144    5            FDS.FMT_.BOUND = FDS.FMT_.BOUND + 3;
     3566    21145    5            END;
     3567    21146
     3568    21147                    /* Put the key being introduced into the array */
     3569    21148
     3570    21149    4         IF (KL$FUNKEY.FCNKEY.FCN_BYTE1 (CUR_KEY) < 33) OR
     3571    21150    5              (KL$FUNKEY.FCNKEY.FCN_BYTE1 (CUR_KEY) = 127) THEN DO;  /*  Mnemonic  */
     3572    21151    5            FMT_VEC ( FDS.NVECS# ) = VECTOR (UNPRINT_TABLE.TXT(KL$FUNKEY.FCNKEY.
             21151                     FCN_BYTE1 (CUR_KEY)));
     3573    21152    5            FDS.NVECS# = FDS.NVECS# + 1;
     3574    21153    5            CALL INSERT (FMT_BUF,FDS.FMT_.BOUND+1,3,'%>A');
     3575    21154    5            FDS.FMT_.BOUND = FDS.FMT_.BOUND + 3;
     3576    21155    5            END;  /*  Mnemonic  */
     3577    21156    4         ELSE
     3578    21157    4            IF (KL$FUNKEY.FCNKEY.FCN_BYTE1 (CUR_KEY) < 127)
PL6.E3A0      #001=ASL$DISP_ONE_PROFILE File=ASL$L_PRO.:E05TSI                   TUE 07/29/97 10:26 Page:102
     3579    21158    5            THEN DO;  /* It is printable */
     3580    21159    5               FMT_VEC (FDS.NVECS#) = VECTOR (KL$FUNKEY.FCNKEY.FCN_BYTE1 (CUR_KEY));
     3581    21160    5               FDS.NVECS# = FDS.NVECS# + 1;
     3582    21161    5               CALL INSERT (FMT_BUF,FDS.FMT_.BOUND+1,4,'''%A''');
     3583    21162    5               FDS.FMT_.BOUND = FDS.FMT_.BOUND + 4;
     3584    21163    5               END;   /*  Printable  */
     3585    21164    5            ELSE DO;   /*  Non printable  */
     3586    21165    5               FMT_VEC (FDS.NVECS#) = VECTOR (KL$FUNKEY.FCNKEY.FCN_BYTE1 (CUR_KEY));
     3587    21166    5               FDS.NVECS# = FDS.NVECS# + 1;
     3588    21167    5               CALL INSERT (FMT_BUF,FDS.FMT_.BOUND+1,5,'X''%H''');
     3589    21168    5               FDS.FMT_.BOUND = FDS.FMT_.BOUND + 5;
     3590    21169    5               END;   /*  Non printable  */
     3591    21170
     3592    21171             /*  Set up the tab position  */
     3593    21172
     3594    21173    4         NUM_ON_LINE = NUM_ON_LINE + 1;
     3595    21174    5         IF (NUM_ON_LINE+1) * ENTRY_LENGTH < LO_WIDTH THEN DO;
     3596    21175    6            IF JCL THEN DO;
     3597    21176    6               CALL INSERT (FMT_BUF,FDS.FMT_.BOUND+1,1,';');
     3598    21177    6               FDS.FMT_.BOUND = FDS.FMT_.BOUND + 1;
     3599    21178    6               END;   /*  Jcl  */
     3600    21179    5            FMT_VEC (FDS.NVECS#) = VECTOR (TAB_POS(NUM_ON_LINE));
     3601    21180    5            FDS.NVECS# = FDS.NVECS# + 1;
     3602    21181    5            CALL INSERT (FMT_BUF,FDS.FMT_.BOUND+1,4,'%>N-');
     3603    21182    5            FDS.FMT_.BOUND = FDS.FMT_.BOUND + 4;
     3604    21183
     3605    21184    5            END; /* If  < LO_WIDTH */
     3606    21185    4         END; /* Do while < LO_WIDTH */
     3607    21186
     3608    21187    3      IF (FDS.FMT_.BOUND > 0)
     3609    21188    4      THEN DO;   /* There is something to write out */
     3610    21189    4         CALL X$FORMAT (FDS);
     3611    21190    4         FDS.NVECS# = 0;
     3612    21191    4         END;
     3613    21192    3      END; /* Do while */
     3614    21193
     3615    21194    2   RETURN;
PL6.E3A0      #001=ASL$DISP_ONE_PROFILE File=ASL$L_PRO.:E05TSI                   TUE 07/29/97 10:26 Page:103
     3616    21195    2   END LIST_FUNKEY_DEFS;
     3617    21196        %EJECT ;
PL6.E3A0      #001=ASL$DISP_ONE_PROFILE File=ASL$L_PRO.:E05TSI                   TUE 07/29/97 10:26 Page:104
     3618    21197    1   BUILD_JCL_FMT: PROC ;
     3619    21198        /********************************************************************/
     3620    21199        /*   Auto            auto            auto            auto           */
     3621    21200        /********************************************************************/
     3622    21201    2   DCL ABYTE UBIN BYTE CALIGNED BASED;
     3623    21202    2   DCL CLASS SBIN ;
     3624    21203    2   DCL I UBIN ;
     3625    21204    2   DCL LENGTH UBIN ;
     3626    21205    2   DCL J UBIN ;
     3627    21206    2   DCL NEXT UBIN WORD ;
     3628    21207    2   DCL OPT_INDEX   UBIN;
     3629    21208    2   DCL SVAL SBIN ;
     3630    21209    2   DCL FORMAT    CHAR(255);
     3631    21210    2   DCL POSITION   CHAR (12);
     3632    21211    2   DCL FIRST      BIT (1);
     3633    21212    2   DCL SET      BIT (1);
     3634    21213
     3635    21214        /*  begin procecure BUILD_JCL_FMT  */
     3636    21215
     3637    21216    3   DO OPT_INDEX = 0 TO 280 /* L_PRO_END */ - 1;
     3638    21217
     3639    21218    3      NEXT = ASL_PRO_OPT_TBL.ORDR(OPT_INDEX) ;
     3640    21219    4      IF (PRO_FLAGS(NEXT) AND (ASL_PRO_OPT_TBL.LEN(NEXT) ~= 0))THEN DO;
     3641    21220
     3642    21221    4         CALL CONCAT (FMT_BUF, '   ', ASL_PRO_OPT_TBL.HDR (NEXT), ' = ');
     3643    21222    4         FDS.FMT_.BOUND = LENGTHC (ASL_PRO_OPT_TBL.HDR (NEXT)) + 5;
     3644    21223    4         FDS.NVECS# = 1;
     3645    21224
     3646    21225    5         DO SELECT(NEXT) ;
     3647    21226
     3648    21227    5            SELECT( 155 /* ABSGRPRND_NULL */,
     3649    21228    5                 156 /* ABSGRPRND_HIDDEN */,
     3650    21229    5                 157 /* ABSGRPRND_EMPHASIS */,
     3651    21230    5                 158 /* ABSGRPRND_INPUT */,
     3652    21231    5                 159 /* ABSGRPRND_OUTPUT */,
     3653    21232    5                 160 /* ABSGRPRND_ERROR */,
     3654    21233    5                 161 /* ABSGRPRND_WARNING */ );
PL6.E3A0      #001=ASL$DISP_ONE_PROFILE File=ASL$L_PRO.:E05TSI                   TUE 07/29/97 10:26 Page:105
     3655    21234
     3656    21235    5            KL_ABSGRPRND$ = ABSGRPRND$(NEXT-155 /* ABSGRPRND_NULL */+1);
     3657    21236    5            FMT_VEC ( 0 ) = VECTOR ( KL_ABSGRPRND$->KL$ABSGRPRND );
     3658    21237
     3659    21238    5            SELECT ( 0 /* ACTONTRN */ ,
     3660    21239    5                 2 /* APLLCNRM */,
     3661    21240    5                 214 /* L_AUTOCURSOR */,
     3662    21241    5                 194 /* L_AUTOTABCLM */,
     3663    21242    5                 213 /* L_CURSORREAD */,
     3664    21243    5                 15 /* DISPINPUT */,
     3665    21244    5                 16 /* EDITOVR */,
     3666    21245    5                 17 /* FULLDUXPAPERTAPE */,
     3667    21246    5                 18 /* HALFDUXPAPERTAPE */,
     3668    21247    5                 192 /* L_HSCROLL */ ,
     3669    21248    5                 191 /* L_INSERTMODE */ ,
     3670    21249    5                 215 /* L_KEEPTYPAHD */,
     3671    21250    5                 22 /* LOWERCASE */,
     3672    21251    5                 189 /* L_MSGHALT */ ,
     3673    21252    5                 190 /* L_MSGLINE */ ,
     3674    21253    5                 25 /* NOOPTMIZ */,
     3675    21254    5                 28 /* OUTDISCARDPUT */,
     3676    21255    5                 29 /* PAGEHALT */,
     3677    21256    5                 167 /* PARKCURSOR */,
     3678    21257    5                 30 /* PARITYCHECK */,
     3679    21258    5                 31 /* PRINTHALT */,
     3680    21259    5                 34 /* RELPAGE */,
     3681    21260    5                 35 /* RETYPOVR */,
     3682    21261    5                 36 /* SCROLL */,
     3683    21262    5                 37 /* SENDBKSPACE */,
     3684    21263    5                 38 /* SIMPERF */,
     3685    21264    5                 58 /* SINPUTSZ */,
     3686    21265    5                 39 /* SPACEINSERT */,
     3687    21266    5                 40 /* TABRELATIVE */,
     3688    21267    5                 41 /* TABSIM */,
     3689    21268    5                 42 /* TRUNCATE */,
     3690    21269    5                 45 /* UPPERCASE */,
     3691    21270    5                 193 /* L_WORDWRAPCLM */,
PL6.E3A0      #001=ASL$DISP_ONE_PROFILE File=ASL$L_PRO.:E05TSI                   TUE 07/29/97 10:26 Page:106
     3692    21271    5                 164 /* WRAPPAGE */ );
     3693    21272
     3694    21273    5            FMT_VEC ( 0 ) = VECTOR ( TCTL$ -> VLP$TRMCTRL );
     3695    21274
     3696    21275    5            SELECT ( 48 /* BLKRECS */,
     3697    21276    5                 49 /* DELAYS */ ,
     3698    21277    5                 80 /* EMCHR */,
     3699    21278    5                 105 /* ERRDUPBLK */,
     3700    21279    5                 107 /* INTERVAL */,
     3701    21280    5                 81 /* IRSCHR */,
     3702    21281    5                 88 /* LSTRECCTN */,
     3703    21282    5                 24 /* MULSTRM */,
     3704    21283    5                 117 /* PADSIGNON */,
     3705    21284    5                 57 /* RETRYS */,
     3706    21285    5                 106 /* RRR */,
     3707    21286    5                 113 /* SLC */,
     3708    21287    5                 116 /* SLCALLBLK */ );
     3709    21288
     3710    21289    5            FMT_VEC ( 0 ) = VECTOR ( TRMD$ -> KL$TRMD );
     3711    21290
     3712    21291    5            SELECT ( 153 /* EWALT */ ,
     3713    21292    5                 154 /* SIOPT */ );
     3714    21293
     3715    21294    5            FMT_VEC ( 0 ) = VECTOR ( KL$3270 );
     3716    21295
     3717    21296    5            SELECT ( 1 /* APL */,
     3718    21297    5                 123 /* ATRSCRNPOS */ ,
     3719    21298    5                 3 /* AUTONL */,
     3720    21299    5                 4 /* BIN */,
     3721    21300    5                 5 /* BLANKERASES */,
     3722    21301    5                 6 /* CRISNL */,
     3723    21302    5                 9 /* CURSORUP */,
     3724    21303    5                 196 /* DCHMOVFLD */,
     3725    21304    5                 10 /* DEVICEBS */,
     3726    21305    5                 11 /* DEVICECR */,
     3727    21306    5                 12 /* DEVICELF */,
     3728    21307    5                 13 /* DEVPOSOPTS */,
PL6.E3A0      #001=ASL$DISP_ONE_PROFILE File=ASL$L_PRO.:E05TSI                   TUE 07/29/97 10:26 Page:107
     3729    21308    5                 14 /* DEVSCROLL */,
     3730    21309    5                 197 /* DSPHEIGHT */,
     3731    21310    5                 179 /* FF_FLUSH */,
     3732    21311    5                 216 /* L_FF_INCCR    */,
     3733    21312    5                 52 /* HEIGHT */,
     3734    21313    5                 19 /* INPUT */ ,
     3735    21314    5                 21 /* LFISNL */,
     3736    21315    5                 165 /* LIMBOCLM */,
     3737    21316    5                 166 /* LOCALECHO */,
     3738    21317    5                 23 /* LOWERCASEPRINTS */,
     3739    21318    5                 122 /* MAXATRS */ ,
     3740    21319    5                 217 /* L_MICROFPL   */,
     3741    21320    5                 56 /* MINREC */,
     3742    21321    5                 26 /* OPDTAB */,
     3743    21322    5                 27 /* OUTPUT */,
     3744    21323    5                 32 /* PRINTTYPE */,
     3745    21324    5                 33 /* PROGDTAB */,
     3746    21325    5                 163 /* SPCBFRPRT */,
     3747    21326    5                 43 /* TRUOVRPRT */,
     3748    21327    5                 44 /* TTYTYPE */ ) ;
     3749    21328
     3750    21329    5            FMT_VEC ( 0 ) = VECTOR ( TATR$ -> VLP$TRMATTR );
     3751    21330
     3752    21331    5            SELECT ( 51 /* FIRSTLINE */,
     3753    21332    5                 53 /* LENGTH */,
     3754    21333    5                 54 /* LIMBO */ );
     3755    21334
     3756    21335    5            FMT_VEC ( 0 ) = VECTOR ( PLTN$ -> VLP$PLATEN );
     3757    21336
     3758    21337    5            SELECT ( 87 /* CUP_BIS */,
     3759    21338    5                 7 /* CUP_CLMFRS */ ,
     3760    21339    5                 8 /* CUP_CMP */ ,
     3761    21340    5                 125 /* DAQ_ALG */ ,
     3762    21341    5                 145 /* DAQINP_CHR */ ,
     3763    21342    5                 144 /* DAQPRT_CHR */ ,
     3764    21343    5                 146 /* DAQPRTGRD_CHR */ ,
     3765    21344    5                 130 /* DCLFLD_ALG */ ,
PL6.E3A0      #001=ASL$DISP_ONE_PROFILE File=ASL$L_PRO.:E05TSI                   TUE 07/29/97 10:26 Page:108
     3766    21345    5                 184 /* L_ED0DLTFLD */ ,
     3767    21346    5                 185 /* L_ED2DLTFLD */ ,
     3768    21347    5                 183 /* L_EL0DLTFLD */ ,
     3769    21348    5                 188 /* L_FRSCLMFLD */ ,
     3770    21349    5                 186 /* L_ICHRQRDCH */ ,
     3771    21350    5                 187 /* L_ILNRQRDLN */ ,
     3772    21351    5                 198 /* L_RGNSCROLL */ ,
     3773    21352    5                 136 /* SGRDCRINT_CHR */ ,
     3774    21353    5                 139 /* SGRFSTBLN_CHR */ ,
     3775    21354    5                 134 /* SGRHDN_CHR */ ,
     3776    21355    5                 128 /* SGRINCDAQ */ ,
     3777    21356    5                 135 /* SGRINCINT_CHR */ ,
     3778    21357    5                 142 /* SGRINP_CHR */ ,
     3779    21358    5                 141 /* SGRPRT_CHR */ ,
     3780    21359    5                 143 /* SGRPRTGRD_CHR */ ,
     3781    21360    5                 140 /* SGRRVRVID_CHR */ ,
     3782    21361    5                 138 /* SGRSLWBLN_CHR */ ,
     3783    21362    5                 137 /* SGRUNDSCR_CHR */ ,
     3784    21363    5                 124 /* SGR_ALG */ ,
     3785    21364    5                 182 /* L_SPCDLTFLD */ ,
     3786    21365    5                 61 /* TMNALG_AFTCR */ ,
     3787    21366    5                 60 /* TMNALG_AFTCUP */ ,
     3788    21367    5                 62 /* TMNALG_AFTHPA */ ,
     3789    21368    5                 63 /* TMNALG_AFTHT */ ,
     3790    21369    5                 64 /* TMNALG_AFTLF */ ,
     3791    21370    5                 65 /* TMNALG_BFRCR */ ,
     3792    21371    5                 66 /* TMNALG_BFRLF */ ,
     3793    21372    5                 162 /* TMNALG_FILCHR */ );
     3794    21373
     3795    21374    5            FMT_VEC ( 0 ) = VECTOR ( TCCHR$->KL$CCHR ) ;
     3796    21375
     3797    21376    5            SELECT ( 176 /* FAST SELECT ACCEPT */,
     3798    21377    5                 118 /* MAXWINDOW */ ,
     3799    21378    5                 121 /* RESTART_RETRYS */ ,
     3800    21379    5                 120 /* RESTART_TIM */ ,
     3801    21380    5                 110 /* RETRANSMISSIONS */,
     3802    21381    5                 109 /* TIMEOUT*/ ,
PL6.E3A0      #001=ASL$DISP_ONE_PROFILE File=ASL$L_PRO.:E05TSI                   TUE 07/29/97 10:26 Page:109
     3803    21382    5                 111 /* WINDOW */ ) ;
     3804    21383
     3805    21384    5            FMT_VEC ( 0 ) = VECTOR ( LINK$ -> KL$LINK );
     3806    21385
     3807    21386    5            SELECT ( 208 /* L_INT_TIM */ ,
     3808    21387    5                 171 /* RECEIVE WINDOW */ ,
     3809    21388    5                 207 /* L_DATA_RETRYS */ ,
     3810    21389    5                 206 /* L_DATA_TIM */ ,
     3811    21390    5                 205 /* L_CLEAR_RETRYS */ ,
     3812    21391    5                 204 /* L_CLEAR_TIM */ ,
     3813    21392    5                 212 /* L_CALL_DELAY */ ,
     3814    21393    5                 211 /* L_CALL_RETRYS */ ,
     3815    21394    5                 210 /* L_CALL_TIM */ ,
     3816    21395    5                 177 /* RESPONSE TIMER */ ,
     3817    21396    5                 172 /* RESPOND TO COMPLETE */ ,
     3818    21397    5                 203 /* L_RESET_RETRYS */ ,
     3819    21398    5                 202 /* L_RESET_TIM */ ,
     3820    21399    5                 175 /* SEND WINDOW */ );
     3821    21400
     3822    21401    5            FMT_VEC ( 0 ) = VECTOR ( VIRCIR$ -> KL$VIRCIR );
     3823    21402
     3824    21403    5            SELECT( 242 /* L_GR_ESCAPE */ );
     3825    21404
     3826    21405    6            IF GRA$->GRA$REC.NUM_ESCAPES = 0 THEN DO;
     3827    21406    6               FMT_BUF = '%\';
     3828    21407    6               FDS.FMT_.BOUND = 1;
     3829    21408    6               FDS.NVECS# = 0;
     3830    21409    6               CLASS = 28 /* C_ALL_DONE */;
     3831    21410    6               END; /*  No GR_ESCAPE  */
     3832    21411    6            ELSE DO;
     3833    21412    6               FMT_VEC ( 0 ) = VECTOR ( GRA_BUF );
     3834    21413    6               FMT_BUF =
             21413              '%\%.37P%N(   GR_ESCAPE %.18D = %1.9N[HARDWARE%?SOFTWARE%]%0.9N[ %? %]%/%)%2P'
             21413                        ;
     3835    21414    6               FDS.FMT_.BOUND = 75;
     3836    21415    6               CLASS = 28 /* C_ALL_DONE */;
     3837    21416    6               END; /*  GR_ESCAPES  */
PL6.E3A0      #001=ASL$DISP_ONE_PROFILE File=ASL$L_PRO.:E05TSI                   TUE 07/29/97 10:26 Page:110
     3838    21417
     3839    21418    5            SELECT( 219 /* L_GR_FPRG */ ) ;
     3840    21419
     3841    21420    6            IF DSEG1$->PRO$HDR.GR_FPRG = ' ' THEN DO;
     3842    21421    6               FDS.NVECS# = 0;
     3843    21422    6               POSITION = ' ';
     3844    21423    6               FORMAT = ';';
     3845    21424    6               FMT_BUF = '%\';
     3846    21425    6               FDS.FMT_.BOUND = 1;
     3847    21426    6               CLASS = 28 /* C_ALL_DONE */;
     3848    21427    6               END; /*  Blank .GR_FPRG  */
     3849    21428    6            ELSE DO;
     3850    21429    6               POSITION = ' ';
     3851    21430    6               FORMAT = '%>A;';
     3852    21431    6               FMT_VEC( 0 ) = VECTOR( PHDR$->PRO$HDR.GR_FPRG ) ;
     3853    21432    6               CLASS = 1 /* C_TEXT */;
     3854    21433    6               END;
     3855    21434
     3856    21435    5            SELECT( 262 /* L_GR_OUTLEVEL */ ) ;
     3857    21436
     3858    21437    5            FDS.NVECS# = 1;
     3859    21438    5            POSITION = ' ';
     3860    21439    5            FORMAT = '%.6D%2P;';
     3861    21440    5            FMT_VEC ( 0 ) = VECTOR ( GRA_BUF );
     3862    21441    5            CLASS = 28 /* C_ALL_DONE */;
     3863    21442
     3864    21443    5            SELECT ( 263 /* L_GR_BATCHMODE */,
     3865    21444    5                 274 /* L_GR_BKGRNDCOLOR */ ,
     3866    21445    5                 270 /* L_GR_BKGRNDTYPE */ ,
     3867    21446    5                 255 /* L_GR_CHSIZECOUNT */ ,
     3868    21447    5                 260 /* L_GR_CHSIZESUPPORT */ ,
     3869    21448    5                 275 /* L_GR_COLRACTION */ ,
     3870    21449    5                 273 /* L_GR_COLRMODEL */ ,
     3871    21450    5                 249 /* L_GR_COLRTABSIZE */ ,
     3872    21451    5                 269 /* L_GR_COLRTABTYPE */ ,
     3873    21452    5                 234 /* L_GR_DEPTHUSE */ ,
     3874    21453    5                 271 /* L_GR_DEVTYPE */ ,
PL6.E3A0      #001=ASL$DISP_ONE_PROFILE File=ASL$L_PRO.:E05TSI                   TUE 07/29/97 10:26 Page:111
     3875    21454    5                 265 /* L_GR_DIMLEVEL */ ,
     3876    21455    5                 268 /* L_GR_EDGETYPE */ ,
     3877    21456    5                 253 /* L_GR_FONTCOUNT */ ,
     3878    21457    5                 220 /* L_GR_GLBLCOLORS */ ,
     3879    21458    5                 221 /* L_GR_GLBLINTENSITIES */ ,
     3880    21459    5                 233 /* L_GR_HEIGHTUSE */ ,
     3881    21460    5                 264 /* L_GR_HIDDENLEVEL */ ,
     3882    21461    5                 261 /* L_GR_HIGHLTSUPPORT */ ,
     3883    21462    5                 272 /* L_GR_IMAGETRANS */ ,
     3884    21463    5                 276 /* L_GR_INTNACTION */ ,
     3885    21464    5                 259 /* L_GR_INTNSUPPORT */ ,
     3886    21465    5                 250 /* L_GR_INTNTABSIZE */ ,
     3887    21466    5                 251 /* L_GR_LINESTYLEHWCOUNT */ ,
     3888    21467    5                 277 /* L_GR_LINESTYLESWCOUNT */ ,
     3889    21468    5                 252 /* L_GR_LINEWCOUNT */ ,
     3890    21469    5                 257 /* L_GR_LINEWSUPPORT */ ,
     3891    21470    5                 256 /* L_GR_MARKERHWCOUNT */ ,
     3892    21471    5                 258 /* L_GR_MARKERSWCOUNT */ ,
     3893    21472    5                 241 /* L_GR_MAXCHSIZE */ ,
     3894    21473    5                 239 /* L_GR_MAXLINEWIDTH */ ,
     3895    21474    5                 222 /* L_GR_MAXPICK */ ,
     3896    21475    5                 240 /* L_GR_MINCHSIZE */ ,
     3897    21476    5                 238 /* L_GR_MINLINEWIDTH */ ,
     3898    21477    5                 229 /* L_GR_NDCDCHARS */ ,
     3899    21478    5                 235 /* L_GR_NDCDCURRENT */ ,
     3900    21479    5                 228 /* L_GR_NDCDSPACE */ ,
     3901    21480    5                 230 /* L_GR_NDCHCHARS */ ,
     3902    21481    5                 236 /* L_GR_NDCHCURRENT */ ,
     3903    21482    5                 227 /* L_GR_NDCHSPACE */ ,
     3904    21483    5                 231 /* L_GR_NDCWCHARS */ ,
     3905    21484    5                 237 /* L_GR_NDCWCURRENT */ ,
     3906    21485    5                 226 /* L_GR_NDCWSPACE */ ,
     3907    21486    5                 254 /* L_GR_PENHWCOUNT */ ,
     3908    21487    5                 278 /* L_GR_PENSWCOUNT */ ,
     3909    21488    5                 267 /* L_GR_PIXELTYPE */ ,
     3910    21489    5                 244 /* L_GR_POLYGONFILL */ ,
     3911    21490    5                 246 /* L_GR_POLYGONFILL_PATTERNED */ ,
PL6.E3A0      #001=ASL$DISP_ONE_PROFILE File=ASL$L_PRO.:E05TSI                   TUE 07/29/97 10:26 Page:112
     3912    21491    5                 245 /* L_GR_POLYGONFILL_SHADED */ ,
     3913    21492    5                 243 /* L_GR_VIEWSURFACE */ ,
     3914    21493    5                 266 /* L_GR_VIEWTYPE */ ,
     3915    21494    5                 232 /* L_GR_WIDTHUSE */ ,
     3916    21495    5                 247 /* L_GR_XPIXMAX */ ,
     3917    21496    5                 223 /* L_GR_XSPACE */ ,
     3918    21497    5                 248 /* L_GR_YPIXMAX */ ,
     3919    21498    5                 224 /* L_GR_YSPACE */ ,
     3920    21499    5                 225 /* L_GR_ZSPACE */ );
     3921    21500
     3922    21501    5            FMT_VEC ( 0 ) = VECTOR ( GRA_BUF );
     3923    21502
     3924    21503    5            SELECT(46 /* AWIDTH */) ;
     3925    21504    5            IF TATR$ -> VLP$TRMATTR.WIDTH# = 255
     3926    21505    6                 AND NOT TATR$ -> VLP$TRMATTR.EXTWID# THEN DO;
     3927    21506    6               FORMAT = 'DC;';
     3928    21507    6               CLASS = 28 /* C_ALL_DONE */;
     3929    21508    6               END;
     3930    21509    6            ELSE DO;
     3931    21510    6               SBINS( 0 ) = TATR$ -> VLP$TRMATTR.WIDTH# ;
     3932    21511    6               IF TATR$ -> VLP$TRMATTR.EXTWID#
     3933    21512    6               THEN
     3934    21513    6                  SBINS( 0 ) = SBINS( 0 ) + 254 ;
     3935    21514    6               FMT_VEC ( 0 ) = VECTOR ( SBINS ( 0 ) ) ;
     3936    21515    6               CALL CONCAT (FORMAT,FMT_TABLE ( 12 /* C_SBIN */ ),';');
     3937    21516    6               CLASS = 12 /* C_SBIN */;
     3938    21517    6               END;
     3939    21518
     3940    21519    5            SELECT(47 /* BLKBYTES */) ;
     3941    21520    5            SBINS( 0 ) = 0 ;
     3942    21521    5            SPLIT$ = ADDR(SBINS( 0 )) ;
     3943    21522    5            KL$UBWORD.NUM = TRMD$ -> KL$TRMD.BLKBYTES# ;
     3944    21523    5            SPLIT$ -> KL$UWORD.T = KL$UBWORD.REPLACE.T ;
     3945    21524    5            SPLIT$ -> KL$UWORD.B = KL$UBWORD.REPLACE.B ;
     3946    21525    5            FMT_VEC ( 0 ) = VECTOR (SBINS ( 0 ));
     3947    21526
     3948    21527    5            SELECT(67 /* BS_TIM */) ;
PL6.E3A0      #001=ASL$DISP_ONE_PROFILE File=ASL$L_PRO.:E05TSI                   TUE 07/29/97 10:26 Page:113
     3949    21528    5            SBINS( 0 ) = 0 ;
     3950    21529    5            SPLIT$ = ADDR(SBINS( 0 )) ;
     3951    21530    5            KL$UBWORD.NUM = TCCHR$ -> KL$CCHR.BS_TIM ;
     3952    21531    5            SPLIT$ -> KL$UWORD.T = KL$UBWORD.REPLACE.T ;
     3953    21532    5            SPLIT$ -> KL$UWORD.B = KL$UBWORD.REPLACE.B ;
     3954    21533
     3955    21534    5            SELECT(114 /* CALLS */);
     3956    21535    5            FMT_VEC ( 0 ) = VECTOR ( LINK$ -> KL$LINK );
     3957    21536    5            FORMAT = '%3.2N[ALL%0?NONE%1?X25%2?X29%]%2P;';
     3958    21537    5            CLASS = 28 /* C_ALL_DONE */;
     3959    21538
     3960    21539    5            SELECT ( 79 /* CHARSETNAME */ );
     3961    21540
     3962    21541    5            IF TATR$->VLP$TRMATTR.CHARSETNAME# = AS_BLANK THEN
     3963    21542    5               FMT_VEC( 0 ) = VECTOR(NONE_STR) ;
     3964    21543    5            ELSE
     3965    21544    5               FMT_VEC( 0 ) = VECTOR ( TATR$->VLP$TRMATTR.CHARSETNAME#);
     3966    21545
     3967    21546    5            SELECT ( 200 /* L_CHA_INFO */ ) ;
     3968    21547
     3969    21548    6            IF DSEG1$ -> PRO$HDR.TTYP = %KLTY_LINK# THEN DO;
     3970    21549    6               FMT_VEC ( 0 ) = VECTOR ( LINK$ -> KL$LINK ) ;
     3971    21550    6               POSITION = '%0.0.1.1P';
     3972    21551    6               END; /*  If link  */
     3973    21552    6            ELSE DO;
     3974    21553    6               FMT_VEC ( 0 ) = VECTOR ( VIRCIR$ -> KL$VIRCIR );
     3975    21554    6               POSITION = '%0.4.2.1P';
     3976    21555    6               END; /*  If vircir  */
     3977    21556    5            CLASS = 2 /* C_YESNO */ ;
     3978    21557
     3979    21558    5            SELECT(108 /* COMPRESSION */);
     3980    21559    5            FMT_VEC ( 0 ) = VECTOR ( TRMD$ -> KL$TRMD );
     3981    21560    5            FORMAT = '%3.6N[BLANKS%1?YES%0?NO%2?LINE%]%2P;';
     3982    21561    5            CLASS = 28 /* C_ALL_DONE */;
     3983    21562
     3984    21563    5            SELECT(89 /* CUB_CHR */) ;
     3985    21564    5            PTR$ =ADDR( TCCHR$->KL$CCHR.CUB_CHR) ;
PL6.E3A0      #001=ASL$DISP_ONE_PROFILE File=ASL$L_PRO.:E05TSI                   TUE 07/29/97 10:26 Page:114
     3986    21565
     3987    21566    5            SELECT(90 /* CUD_CHR */) ;
     3988    21567    5            PTR$ =ADDR( TCCHR$->KL$CCHR.CUD_CHR) ;
     3989    21568
     3990    21569    5            SELECT(91 /* CUF_CHR */) ;
     3991    21570    5            PTR$ =ADDR( TCCHR$->KL$CCHR.CUF_CHR) ;
     3992    21571
     3993    21572    5            SELECT(82 /* CUP_ALG */) ;
     3994    21573    5            FMT_VEC ( 0 ) = VECTOR ( TCCHR$->KL$CCHR ) ;
     3995    21574    5            FORMAT = '%1.9N:=[ANS%2?TBL%?%.#KD%]%2P;';
     3996    21575    5            CLASS = 28 /* C_ALL_DONE */;
     3997    21576
     3998    21577    5            SELECT(92 /* CUP_CHR */) ;
     3999    21578    5            PTR$ =ADDR( TCCHR$->KL$CCHR.CUP_CHR) ;
     4000    21579
     4001    21580    5            SELECT(93 /* CUU_CHR */) ;
     4002    21581    5            PTR$ =ADDR( TCCHR$->KL$CCHR.CUU_CHR) ;
     4003    21582
     4004    21583    5            SELECT( 127 /* DAQINTRO_CHR */ );
     4005    21584    5            PTR$ =ADDR( TCCHR$ -> KL$CCHR.DAQINTRO_CHR#) ;
     4006    21585
     4007    21586    5            SELECT(94 /* DCH_CHR */) ;
     4008    21587    5            PTR$ =ADDR( TCCHR$->KL$CCHR.DCH_CHR) ;
     4009    21588
     4010    21589    5            SELECT( 131 /* DCLFRM_CHR */ );
     4011    21590    5            PTR$ =ADDR( TCCHR$ -> KL$CCHR.DCLFRM_CHR#) ;
     4012    21591
     4013    21592    5            SELECT( 129 /* DFLTPRTMODE */ );
     4014    21593    5            FMT_VEC ( 0 ) = VECTOR ( TCCHR$->KL$CCHR ) ;
     4015    21594    5            FORMAT = '%1.1N[PROTECTED%0?UNPROTECTED%]%2P;';
     4016    21595    5            CLASS = 28 /* C_ALL_DONE */;
     4017    21596
     4018    21597    5            SELECT( 147 /* DLTALLFLDS_CHR */ );
     4019    21598    5            PTR$ =ADDR( TCCHR$ -> KL$CCHR.DLTALLFLDS_CHR#) ;
     4020    21599
     4021    21600    5            SELECT( 151 /* DLTFLD_CHR */ );
     4022    21601    5            PTR$ =ADDR( TCCHR$ -> KL$CCHR.DLTFLD_CHR#) ;
PL6.E3A0      #001=ASL$DISP_ONE_PROFILE File=ASL$L_PRO.:E05TSI                   TUE 07/29/97 10:26 Page:115
     4023    21602
     4024    21603    5            SELECT( 149 /* DLTLIN_CHR */ );
     4025    21604    5            PTR$ =ADDR( TCCHR$ -> KL$CCHR.DLTLIN_CHR#) ;
     4026    21605
     4027    21606    5            SELECT(83 /* DVCFLWCTRALG */) ;
     4028    21607    5            FMT_VEC ( 0 ) = VECTOR ( TATR$->VLP$TRMATTR ) ;
     4029    21608    5            FORMAT = '%1.3N:=[ENQACK%2?ETXACK%3?DC1DC3%7?DC%?%.#KD%]%2P;';
     4030    21609    5            CLASS = 28 /* C_ALL_DONE */;
     4031    21610
     4032    21611    5            SELECT(50 /* DVCOTPBFRSIZ */) ;
     4033    21612    5            SBINS( 0 ) = 0 ;
     4034    21613    5            SPLIT$ = ADDR(SBINS( 0 )) ;
     4035    21614    5            IF PRO_TYP = ASL_3270_TYP
     4036    21615    6            THEN DO;
     4037    21616    6               KL$UBWORD.NUM = KL$3270.DVCBFRSIZ ;
     4038    21617    6               END;
     4039    21618    6            ELSE DO;
     4040    21619    6               KL$UBWORD.NUM = TCCHR$ -> KL$CCHR.DVCOTPBFRSIZ ;
     4041    21620    6               END;
     4042    21621    5            SPLIT$ -> KL$UWORD.T = KL$UBWORD.REPLACE.T ;
     4043    21622    5            SPLIT$ -> KL$UWORD.B = KL$UBWORD.REPLACE.B ;
     4044    21623    5            FMT_VEC ( 0 ) = VECTOR (SBINS ( 0 ) ) ;
     4045    21624
     4046    21625    5            SELECT(95 /* ED0_CHR */) ;
     4047    21626    5            PTR$ =ADDR( TCCHR$->KL$CCHR.ED0_CHR) ;
     4048    21627
     4049    21628    5            SELECT(96 /* ED2_CHR */) ;
     4050    21629    5            PTR$ =ADDR( TCCHR$->KL$CCHR.ED2_CHR) ;
     4051    21630
     4052    21631    5            SELECT(97 /* EL0_CHR */) ;
     4053    21632    5            PTR$ =ADDR( TCCHR$->KL$CCHR.EL0_CHR) ;
     4054    21633
     4055    21634    5            SELECT( 132 /* ENDDCLFRM_CHR */ );
     4056    21635    5            PTR$ =ADDR( TCCHR$ -> KL$CCHR.ENDDCLFRM_CHR#) ;
     4057    21636
     4058    21637    5            SELECT( 181 /* L_ENDMSGLIN_CHR */ );
     4059    21638    5            PTR$ =ADDR( TCCHR$ -> KL$CCHR.ENDMSGLIN_CHR#) ;
PL6.E3A0      #001=ASL$DISP_ONE_PROFILE File=ASL$L_PRO.:E05TSI                   TUE 07/29/97 10:26 Page:116
     4060    21639
     4061    21640    5            SELECT( 150 /* ERASEFLD_CHR */ );
     4062    21641    5            PTR$ =ADDR( TCCHR$ -> KL$CCHR.ERASEFLD_CHR#) ;
     4063    21642
     4064    21643    5            SELECT(68 /* ERSTIM */) ;
     4065    21644    5            SBINS( 0 ) = 0 ;
     4066    21645    5            SPLIT$ = ADDR(SBINS( 0 )) ;
     4067    21646    5            KL$UBWORD.NUM = TCCHR$ -> KL$CCHR.ERSTIM ;
     4068    21647    5            SPLIT$ -> KL$UWORD.T = KL$UBWORD.REPLACE.T ;
     4069    21648    5            SPLIT$ -> KL$UWORD.B = KL$UBWORD.REPLACE.B ;
     4070    21649
     4071    21650    5            SELECT ( 199 /* L_EXT_SEQ */ ) ;
     4072    21651
     4073    21652    6            IF DSEG1$ -> PRO$HDR.TTYP = %KLTY_LINK# THEN DO;
     4074    21653    6               FMT_VEC ( 0 ) = VECTOR ( LINK$ -> KL$LINK );
     4075    21654    6               POSITION = '%0.0.2.1P';
     4076    21655    6               END; /* If link  */
     4077    21656    6            ELSE DO;
     4078    21657    6               FMT_VEC ( 0 ) = VECTOR ( VIRCIR$ -> KL$VIRCIR );
     4079    21658    6               POSITION = '%0.4.0.1P';
     4080    21659    6               END; /* If vircir  */
     4081    21660    5            CLASS = 2 /* C_YESNO */ ;
     4082    21661
     4083    21662    5            SELECT(178 /* L_EXTSRD_CHR */) ;
     4084    21663    5            PTR$ =ADDR( TCCHR$->KL$CCHR.EXTSRD_CHR#) ;
     4085    21664
     4086    21665    5            SELECT ( 78 /* FCNTBL */ );
     4087    21666
     4088    21667    6            IF TATR$->VLP$TRMATTR.FCNTBL# = ' ' THEN DO;
     4089    21668    6               FDS.NVECS# = 0;
     4090    21669    6               POSITION = ' ';
     4091    21670    6               FORMAT = 'NONE;';
     4092    21671    6               CLASS = 28 /* C_ALL_DONE */;
     4093    21672    6               END; /*  Blank fcntbl  */
     4094    21673    6            ELSE DO;
     4095    21674    6               POSITION = ' ';
     4096    21675    6               FORMAT = '%>A;';
PL6.E3A0      #001=ASL$DISP_ONE_PROFILE File=ASL$L_PRO.:E05TSI                   TUE 07/29/97 10:26 Page:117
     4097    21676    6               FMT_VEC ( 0 ) = VECTOR ( TATR$->VLP$TRMATTR.FCNTBL#);
     4098    21677    6               CLASS = 1 /* C_TEXT */;
     4099    21678    6               END;
     4100    21679
     4101    21680    5            SELECT( 152 /* FLDTRM */ );
     4102    21681    5            FMT_VEC ( 0 ) = VECTOR ( TATR$ -> VLP$TRMATTR );
     4103    21682    5            FORMAT = '%2.2N[PAGE%0?LINE%1?DC%]%2P;';
     4104    21683    5            CLASS = 28 /* C_ALL_DONE */;
     4105    21684
     4106    21685    5            SELECT ( 112 /* FRAME */ );
     4107    21686    5            FMT_VEC ( 0 ) = VECTOR ( LINK$ -> KL$LINK );
     4108    21687    5            FORMAT = '%0.4N[128%1?256%2?512%3?1024%4?2048%5?4096%??%]%2P;';
     4109    21688    5            CLASS = 28 /* C_ALL_DONE */;
     4110    21689
     4111    21690    5            SELECT(98 /* FRMFED_CHR */) ;
     4112    21691    5            IF PRO_TYP = ASL_3270_TYP
     4113    21692    6            THEN DO;
     4114    21693    6               FMT_VEC ( 0 ) = VECTOR ( KL$3270 ) ;
     4115    21694    6               CLASS = 2 /* C_YESNO */ ;
     4116    21695    6               POSITION = '%0.0.0.4P';
     4117    21696    6               CALL CONCAT (FORMAT,FMT_TABLE ( 2 /* C_YESNO */ ),';');
     4118    21697    6               END; /* If 3270  */
     4119    21698    6            ELSE DO;
     4120    21699    6               FMT_VEC ( 0 ) = VECTOR ( TCCHR$->KL$CCHR ) ;
     4121    21700    6               PTR$ =ADDR( TCCHR$->KL$CCHR.FRMFED_CHR) ;
     4122    21701    6               FORMAT = ';';
     4123    21702    6               CLASS = 15 /*C_HEX_LIST */ ;
     4124    21703    6               END; /* Not 3270  */
     4125    21704
     4126    21705    5            SELECT(279 /* L_FUNCTION_KEY */);
     4127    21706    5            CALL LIST_FUNKEY_DEFS;
     4128    21707    5            FMT_BUF = '     END';
     4129    21708    5            FDS.FMT_.BOUND = 8;
     4130    21709    5            FDS.NVECS# = 0;
     4131    21710    5            CLASS = 28 /* C_ALL_DONE */;
     4132    21711
     4133    21712    5            SELECT(99 /* HOM_CHR */) ;
PL6.E3A0      #001=ASL$DISP_ONE_PROFILE File=ASL$L_PRO.:E05TSI                   TUE 07/29/97 10:26 Page:118
     4134    21713    5            PTR$ =ADDR( TCCHR$->KL$CCHR.HOM_CHR) ;
     4135    21714
     4136    21715    5            SELECT(84 /* HPA_ALG */) ;
     4137    21716    5            FMT_VEC ( 0 ) = VECTOR ( TCCHR$->KL$CCHR ) ;
     4138    21717    5            FORMAT = '%1.9N:=[ANS%2?DBL%3?NEC%4?CHA%?%.#KD%]%2P;';
     4139    21718    5            CLASS = 28 /* C_ALL_DONE */;
     4140    21719
     4141    21720    5            SELECT(100 /* HTS_CHR */) ;
     4142    21721    5            PTR$ =ADDR( TCCHR$->KL$CCHR.HTS_CHR) ;
     4143    21722
     4144    21723    5            SELECT(101 /* ICH_CHR */) ;
     4145    21724    5            PTR$ =ADDR( TCCHR$->KL$CCHR.ICH_CHR) ;
     4146    21725
     4147    21726    5            SELECT ( 209 /* L_IDLE_TIM */ ) ;
     4148    21727
     4149    21728    6            IF DSEG1$ -> PRO$HDR.TTYP = %KLTY_LINK# THEN DO;
     4150    21729    6               FMT_VEC ( 0 ) = VECTOR ( LINK$ -> KL$LINK );
     4151    21730    6               POSITION = '%0.2.0.0P';
     4152    21731    6               END; /* If link  */
     4153    21732    6            ELSE DO;
     4154    21733    6               FMT_VEC ( 0 ) = VECTOR ( VIRCIR$ -> KL$VIRCIR );
     4155    21734    6               POSITION = '%0.2.1.0P';
     4156    21735    6               END; /* If vircir  */
     4157    21736    5            CLASS = 10 /* C_BYTE_UBIN */ ;
     4158    21737
     4159    21738    5            SELECT( 148 /* INSLIN_CHR */ );
     4160    21739    5            PTR$ =ADDR( TCCHR$ -> KL$CCHR.INSLIN_CHR#) ;
     4161    21740
     4162    21741    5            SELECT( 180 /* L_MSGLIN_CHR */ ) ;
     4163    21742    5            PTR$ =ADDR( TCCHR$ -> KL$CCHR.MSGLIN_CHR#) ;
     4164    21743
     4165    21744    5            SELECT(85 /* PARITY */) ;
     4166    21745    5            FMT_VEC ( 0 ) = VECTOR ( TATR$ -> VLP$TRMATTR );
     4167    21746    5            FORMAT = '%0.3N[NONE%1?ODD%2?EVEN%3?ONE%4?ZERO%7?DC%??%]%2P;';
     4168    21747    5            CLASS = 28 /* C_ALL_DONE */;
     4169    21748
     4170    21749    5            SELECT(86 /* PROTYP */) ;
PL6.E3A0      #001=ASL$DISP_ONE_PROFILE File=ASL$L_PRO.:E05TSI                   TUE 07/29/97 10:26 Page:119
     4171    21750    5            FMT_VEC ( 0 ) = VECTOR ( TRMD$ -> KL$TRMD );
     4172    21751    5            FORMAT = '%1.9N[2780%2?3780%3?HASP%4?POLLED%5?3275%6?HIP%7?NJE%??%]%2P;';
     4173    21752    5            CLASS = 28 /* C_ALL_DONE */;
     4174    21753
     4175    21754    5            SELECT(55 /* PWIDTH */) ;
     4176    21755    5            IF PLTN$ -> VLP$PLATEN.WIDTH# = 255
     4177    21756    6                 AND NOT PLTN$ -> VLP$PLATEN.EXTWID# THEN DO;
     4178    21757    6               FORMAT = 'DC;';
     4179    21758    6               CLASS = 28 /* C_ALL_DONE */;
     4180    21759    6               END;
     4181    21760    6            ELSE DO;
     4182    21761    6               SBINS( 0 ) = PLTN$ -> VLP$PLATEN.WIDTH# ;
     4183    21762    6               IF PLTN$ -> VLP$PLATEN.EXTWID#
     4184    21763    6               THEN
     4185    21764    6                  SBINS( 0 ) = SBINS( 0 ) + 254 ;
     4186    21765    6               FMT_VEC ( 0 ) = VECTOR ( SBINS ( 0 ) ) ;
     4187    21766    6               CALL CONCAT (FORMAT,FMT_TABLE ( 12 /* C_SBIN */ ),';');
     4188    21767    6               CLASS = 12 /* C_SBIN */;
     4189    21768    6               END;
     4190    21769
     4191    21770    5            SELECT( 169 /* RECEIVE SIZE */ ) ;
     4192    21771    5            FMT_VEC ( 0 ) = VECTOR ( VIRCIR$ -> KL$VIRCIR );
     4193    21772    5            FORMAT = '%0.4N[128%1?256%2?512%3?1024%4?2048%5?4096%??%]%2P;';
     4194    21773    5            CLASS = 28 /* C_ALL_DONE */;
     4195    21774
     4196    21775    5            SELECT( 170 /* RECEIVE THROUGHPUT */ );
     4197    21776    5            FMT_VEC ( 0 ) = VECTOR ( VIRCIR$ -> KL$VIRCIR );
     4198    21777    5            FORMAT = '%0.4N[NONE%1?75%2?150%3?300%4?600%5?1200%6?2400%7?4800%8?9600%9?1
             21777        9200%10?48000%??%]%2P;';
     4199    21778    5            CLASS = 28 /* C_ALL_DONE */;
     4200    21779
     4201    21780    5            SELECT( 119 /* RESPDELAY */ ) ;
     4202    21781    6            IF DSEG1$ -> PRO$HDR.TTYP = %KLTY_VIRCIR# THEN DO;
     4203    21782    6               FMT_VEC ( 0 ) = VECTOR ( VIRCIR$ -> KL$VIRCIR );
     4204    21783    6               POSITION = '%0.4.0.2P';
     4205    21784    6               END; /*  If vircir  */
     4206    21785    6            ELSE DO;
PL6.E3A0      #001=ASL$DISP_ONE_PROFILE File=ASL$L_PRO.:E05TSI                   TUE 07/29/97 10:26 Page:120
     4207    21786    6               FMT_VEC ( 0 ) = VECTOR ( LINK$ -> KL$LINK );
     4208    21787    6               POSITION = '%0.0.1.2P';
     4209    21788    6               END; /*  If link  */
     4210    21789    5            CLASS = 9 /* C_7BIT_UBIN */ ;
     4211    21790
     4212    21791    5            SELECT( 133 /* RESTORE_DFLTSCRN_CHR */ );
     4213    21792    5            PTR$ =ADDR( TCCHR$ -> KL$CCHR.RESTORE_DFLTSCRN_CHR#) ;
     4214    21793
     4215    21794    5            SELECT(115 /* REVERSE */);
     4216    21795    6            IF DSEG1$ -> PRO$HDR.TTYP = %KLTY_VIRCIR# THEN DO;
     4217    21796    6               FMT_VEC ( 0 ) = VECTOR ( VIRCIR$ -> KL$VIRCIR );
     4218    21797    6               POSITION = '%0.4.3.1P';
     4219    21798    6               CLASS = 28 /* C_ALL_DONE */ ;
     4220    21799    6               FORMAT = '%0.2N[TRY%1?YES%2?NO%]%2P;';
     4221    21800    6               END; /*  If vircir  */
     4222    21801    6            ELSE DO;
     4223    21802    6               FMT_VEC ( 0 ) = VECTOR ( LINK$ -> KL$LINK );
     4224    21803    6               POSITION = '%0.0.0.7P';
     4225    21804    6               CALL CONCAT (FORMAT, FMT_TABLE(2 /* C_YESNO */),';');
     4226    21805    6               CLASS = 2 /* C_YESNO */ ;
     4227    21806    6               END; /*  If link  */
     4228    21807
     4229    21808    5            SELECT(102 /* RSTINSMOD_CHR */) ;
     4230    21809    5            PTR$ =ADDR( TCCHR$->KL$CCHR.RSTINSMOD_CHR) ;
     4231    21810
     4232    21811    5            SELECT(103 /* SETFRMLNG_CHR */) ;
     4233    21812    5            PTR$ =ADDR( TCCHR$->KL$CCHR.SETFRMLNG_CHR) ;
     4234    21813
     4235    21814    5            SELECT (195 /* L_SETUP_CHR */);
     4236    21815    5            PTR$ = PINCRC (SETUP_CHR$,1);
     4237    21816    5            LENGTH = FDS.FMT_.BOUND;
     4238    21817    5            FDS.NVECS# = 0;
     4239    21818    5            CALL DO_SETUP_CHR_JCL (PTR$, LENGTH);
     4240    21819
     4241    21820    5            SELECT( 126 /* SGRINTRO_CHR */ );
     4242    21821    5            PTR$ =ADDR( TCCHR$ -> KL$CCHR.SGRINTRO_CHR#) ;
     4243    21822
PL6.E3A0      #001=ASL$DISP_ONE_PROFILE File=ASL$L_PRO.:E05TSI                   TUE 07/29/97 10:26 Page:121
     4244    21823    5            SELECT( 173 /* SEND SIZE */ ) ;
     4245    21824    5            FMT_VEC ( 0 ) = VECTOR ( VIRCIR$ -> KL$VIRCIR );
     4246    21825    5            FORMAT = '%0.4N[128%1?256%2?512%3?1024%4?2048%5?4096%??%]%2P;';
     4247    21826    5            CLASS = 28 /* C_ALL_DONE */;
     4248    21827
     4249    21828    5            SELECT( 174 /* SEND THROUGHPUT */ ) ;
     4250    21829    5            FMT_VEC ( 0 ) = VECTOR ( VIRCIR$ -> KL$VIRCIR );
     4251    21830    5            FORMAT = '%0.4N[NONE%1?75%2?150%3?300%4?600%5?1200%6?2400%7?4800%8?9600%9?1
             21830        9200%10?48000%??%]%2P;';
     4252    21831    5            CLASS = 28 /* C_ALL_DONE */;
     4253    21832
     4254    21833    5            SELECT(59 /* SPEED */) ;
     4255    21834    5            FMT_VEC ( 0 ) = VECTOR ( TATR$ -> VLP$TRMATTR );
     4256    21835    5            FORMAT = '%0.8N[50%1?75%2?75%3?134.5%4?150%5?200%6?300%7?600';
     4257    21836    5            SUBSTR (FORMAT, 50, 38) = '%8?1050%9?1200%10?1800%11?2000%12?2400';
     4258    21837    5            SUBSTR (FORMAT, 88, 41) = '%13?4800%14?9600%15?19200%255?DC%??%]%2P;';
     4259    21838    5            CLASS = 28 /* C_ALL_DONE */;
     4260    21839
     4261    21840    5            SELECT ( 218 /* TABS */ );
     4262    21841    5            FORMAT = '%D%N(,%D%);';
     4263    21842    5            CLASS = 28 /* C_ALL_DONE */;
     4264    21843    5            T_TAB = DTABS$ -> VLP$TAB;
     4265    21844    5            SBINS ( 0 ) = 0;
     4266    21845    5            FMT_VEC ( 0 ) = VECTOR ( T_TAB (0) );
     4267    21846    5            FMT_VEC ( 1 ) = VECTOR ( SBINS (0) );
     4268    21847    5            FDS.NVECS# = 2 ;
     4269    21848    6            DO WHILE ( SBINS (0)+1 < 31 );
     4270    21849    6               IF T_TAB ( SBINS (0)+1 ) = 0 THEN
     4271    21850    6                  EXIT ;
     4272    21851    6               FMT_VEC(FDS.NVECS#) = VECTOR( T_TAB (SBINS(0)+1));
     4273    21852    6               FDS.NVECS# = FDS.NVECS# + 1 ;
     4274    21853    6               SBINS ( 0 ) = SBINS ( 0 ) + 1;
     4275    21854    6               END ;                  /* Do while                           */
     4276    21855
     4277    21856    5            SELECT(104 /* TBC3_CHR */) ;
     4278    21857    5            PTR$ =ADDR( TCCHR$->KL$CCHR.TBC3_CHR) ;
     4279    21858
PL6.E3A0      #001=ASL$DISP_ONE_PROFILE File=ASL$L_PRO.:E05TSI                   TUE 07/29/97 10:26 Page:122
     4280    21859    5            SELECT(69 /* TIMAFTCTRFNC */) ;
     4281    21860    5            SBINS( 0 ) = 0 ;
     4282    21861    5            SPLIT$ = ADDR(SBINS( 0 )) ;
     4283    21862    5            KL$UBWORD.NUM = TCCHR$ -> KL$CCHR.CTRFNCTIM ;
     4284    21863    5            SPLIT$ -> KL$UWORD.T = KL$UBWORD.REPLACE.T ;
     4285    21864    5            SPLIT$ -> KL$UWORD.B = KL$UBWORD.REPLACE.B ;
     4286    21865
     4287    21866    5            SELECT(70 /* TMNALG_PRM1 */) ;
     4288    21867    5            SBINS( 0 ) = 0 ;
     4289    21868    5            SPLIT$ = ADDR(SBINS( 0 )) ;
     4290    21869    5            KL$UBWORD.NUM = TCCHR$ -> KL$CCHR.TMNALG_PRM1 ;
     4291    21870    5            SPLIT$ -> KL$UWORD.T = KL$UBWORD.REPLACE.T ;
     4292    21871    5            SPLIT$ -> KL$UWORD.B = KL$UBWORD.REPLACE.B ;
     4293    21872
     4294    21873    5            SELECT(71 /* TMNALG_PRM2 */) ;
     4295    21874    5            SBINS( 0 ) = 0 ;
     4296    21875    5            SPLIT$ = ADDR(SBINS( 0 )) ;
     4297    21876    5            KL$UBWORD.NUM = TCCHR$ -> KL$CCHR.TMNALG_PRM2 ;
     4298    21877    5            SPLIT$ -> KL$UWORD.T = KL$UBWORD.REPLACE.T ;
     4299    21878    5            SPLIT$ -> KL$UWORD.B = KL$UBWORD.REPLACE.B ;
     4300    21879
     4301    21880    5            SELECT(72 /* TMNALG_PRM3 */) ;
     4302    21881    5            SBINS( 0 ) = 0 ;
     4303    21882    5            SPLIT$ = ADDR(SBINS( 0 )) ;
     4304    21883    5            KL$UBWORD.NUM = TCCHR$ -> KL$CCHR.TMNALG_PRM3 ;
     4305    21884    5            SPLIT$ -> KL$UWORD.T = KL$UBWORD.REPLACE.T ;
     4306    21885    5            SPLIT$ -> KL$UWORD.B = KL$UBWORD.REPLACE.B ;
     4307    21886
     4308    21887    5            SELECT(73 /* TMNALG_PRM4 */) ;
     4309    21888    5            SBINS( 0 ) = 0 ;
     4310    21889    5            SPLIT$ = ADDR(SBINS( 0 )) ;
     4311    21890    5            KL$UBWORD.NUM = TCCHR$ -> KL$CCHR.TMNALG_PRM4 ;
     4312    21891    5            SPLIT$ -> KL$UWORD.T = KL$UBWORD.REPLACE.T ;
     4313    21892    5            SPLIT$ -> KL$UWORD.B = KL$UBWORD.REPLACE.B ;
     4314    21893
     4315    21894    5            SELECT(74 /* TMNALG_PRM5 */) ;
     4316    21895    5            SBINS( 0 ) = 0 ;
PL6.E3A0      #001=ASL$DISP_ONE_PROFILE File=ASL$L_PRO.:E05TSI                   TUE 07/29/97 10:26 Page:123
     4317    21896    5            SPLIT$ = ADDR(SBINS( 0 )) ;
     4318    21897    5            KL$UBWORD.NUM = TCCHR$ -> KL$CCHR.TMNALG_PRM5 ;
     4319    21898    5            SPLIT$ -> KL$UWORD.T = KL$UBWORD.REPLACE.T ;
     4320    21899    5            SPLIT$ -> KL$UWORD.B = KL$UBWORD.REPLACE.B ;
     4321    21900
     4322    21901    5            SELECT(75 /* TMNALG_PRM6 */) ;
     4323    21902    5            SBINS( 0 ) = 0 ;
     4324    21903    5            SPLIT$ = ADDR(SBINS( 0 )) ;
     4325    21904    5            KL$UBWORD.NUM = TCCHR$ -> KL$CCHR.TMNALG_PRM6 ;
     4326    21905    5            SPLIT$ -> KL$UWORD.T = KL$UBWORD.REPLACE.T ;
     4327    21906    5            SPLIT$ -> KL$UWORD.B = KL$UBWORD.REPLACE.B ;
     4328    21907
     4329    21908    5            SELECT(76 /* TMNALG_PRM7 */) ;
     4330    21909    5            SBINS( 0 ) = 0 ;
     4331    21910    5            SPLIT$ = ADDR(SBINS( 0 )) ;
     4332    21911    5            KL$UBWORD.NUM = TCCHR$ -> KL$CCHR.TMNALG_PRM7 ;
     4333    21912    5            SPLIT$ -> KL$UWORD.T = KL$UBWORD.REPLACE.T ;
     4334    21913    5            SPLIT$ -> KL$UWORD.B = KL$UBWORD.REPLACE.B ;
     4335    21914
     4336    21915    5            SELECT(77 /* TMNALG_PRM8 */) ;
     4337    21916    5            SBINS( 0 ) = 0 ;
     4338    21917    5            SPLIT$ = ADDR(SBINS( 0 )) ;
     4339    21918    5            KL$UBWORD.NUM = TCCHR$ -> KL$CCHR.TMNALG_PRM8 ;
     4340    21919    5            SPLIT$ -> KL$UWORD.T = KL$UBWORD.REPLACE.T ;
     4341    21920    5            SPLIT$ -> KL$UWORD.B = KL$UBWORD.REPLACE.B ;
     4342    21921
     4343    21922    5            SELECT ( 201 /* L_TRANS_DEL */ );
     4344    21923
     4345    21924    5            SBINS( 0 ) = 0 ;
     4346    21925    5            SPLIT$ = ADDR (SBINS( 0 )) ;
     4347    21926    5            KL$UBWORD.NUM = BITBIN (VIRCIR$ -> KL$VIRCIR.TRADEL) ;
     4348    21927    5            SPLIT$ -> KL$UWORD.T = KL$UBWORD.REPLACE.T ;
     4349    21928    5            SPLIT$ -> KL$UWORD.B = KL$UBWORD.REPLACE.B ;
     4350    21929    5            FMT_VEC ( 0 ) = VECTOR ( SBINS ( 0 ) );
     4351    21930
     4352    21931    5            END ;                    /* Do case                            */
     4353    21932
PL6.E3A0      #001=ASL$DISP_ONE_PROFILE File=ASL$L_PRO.:E05TSI                   TUE 07/29/97 10:26 Page:124
     4354    21933    5         DO SELECT (ASL_PRO_OPT_TBL.FMT_IDX (NEXT) );
     4355    21934
     4356    21935    5            SELECT (27 /* C_SPECIAL */);
     4357    21936
     4358    21937    5            CALL INDEX (I,' ',POSITION);
     4359    21938    5            SUBSTR (FMT_BUF, FDS.FMT_.BOUND+1, I ) = SUBSTR (POSITION, 0, I );
     4360    21939    5            FDS.FMT_.BOUND = FDS.FMT_.BOUND + I;
     4361    21940    5            CALL INDEX (I,';',FORMAT);
     4362    21941    5            SUBSTR (FMT_BUF, FDS.FMT_.BOUND+1, I ) = SUBSTR (FORMAT, 0, I );
     4363    21942    5            FDS.FMT_.BOUND = FDS.FMT_.BOUND + I;
     4364    21943
     4365    21944    5            SELECT (26 /* C_SPECIAL_POSITION */);
     4366    21945
     4367    21946    5            CALL INDEX (I,' ',POSITION);
     4368    21947    5            SUBSTR (FMT_BUF, FDS.FMT_.BOUND+1, I ) = SUBSTR (POSITION, 0, I );
     4369    21948    5            FDS.FMT_.BOUND = FDS.FMT_.BOUND + I;
     4370    21949    5            CALL INDEX (I, ' ', FMT_TABLE ( CLASS ) );
     4371    21950    5            SUBSTR (FMT_BUF, FDS.FMT_.BOUND+1, I ) = SUBSTR (FMT_TABLE( CLASS ), 0, I )
             21950                     ;
     4372    21951    5            FDS.FMT_.BOUND = FDS.FMT_.BOUND + I;
     4373    21952
     4374    21953    5            SELECT (25 /* C_SPECIAL_FORMAT */);
     4375    21954
     4376    21955    5            CALL INDEX (I, ' ', ASL_PRO_OPT_TBL.POS(NEXT));
     4377    21956    5            SUBSTR (FMT_BUF, FDS.FMT_.BOUND+1, 1 ) = '%';
     4378    21957    5            SUBSTR (FMT_BUF, FDS.FMT_.BOUND+2, I ) = SUBSTR (ASL_PRO_OPT_TBL.POS(NEXT),
             21957                     0, I );
     4379    21958    5            SUBSTR (FMT_BUF, FDS.FMT_.BOUND+I+2, 1 ) = 'P';
     4380    21959    5            FDS.FMT_.BOUND = FDS.FMT_.BOUND + I + 2;
     4381    21960    5            CALL INDEX (I,';',FORMAT);
     4382    21961    5            SUBSTR (FMT_BUF, FDS.FMT_.BOUND+1, I ) = SUBSTR (FORMAT, 0, I );
     4383    21962    5            FDS.FMT_.BOUND = FDS.FMT_.BOUND + I;
     4384    21963
     4385    21964    5            SELECT (28 /* C_ALL_DONE */,
     4386    21965    5                 15 /*C_HEX_LIST */ );
     4387    21966
     4388    21967    5            CLASS = ASL_PRO_OPT_TBL.FMT_IDX(NEXT);
PL6.E3A0      #001=ASL$DISP_ONE_PROFILE File=ASL$L_PRO.:E05TSI                   TUE 07/29/97 10:26 Page:125
     4389    21968
     4390    21969    5            SELECT (ELSE);
     4391    21970
     4392    21971    5         CALL INDEX (I, ' ', ASL_PRO_OPT_TBL.POS(NEXT));
     4393    21972    5         SUBSTR (FMT_BUF, FDS.FMT_.BOUND+1, 1 ) = '%';
     4394    21973    5         SUBSTR (FMT_BUF, FDS.FMT_.BOUND+2, I ) = SUBSTR (ASL_PRO_OPT_TBL.POS(NEXT), 0,
             21973                  I );
     4395    21974    5         SUBSTR (FMT_BUF, FDS.FMT_.BOUND+I+2, 1 ) = 'P';
     4396    21975    5         FDS.FMT_.BOUND = FDS.FMT_.BOUND + I + 2;
     4397    21976    5         CALL INDEX (I, ' ', FMT_TABLE (ASL_PRO_OPT_TBL.FMT_IDX(NEXT)));
     4398    21977    5         SUBSTR (FMT_BUF, FDS.FMT_.BOUND+1, I ) = SUBSTR (FMT_TABLE(ASL_PRO_OPT_TBL.
             21977                  FMT_IDX(NEXT)), 0, I );
     4399    21978    5         FDS.FMT_.BOUND = FDS.FMT_.BOUND + I;
     4400    21979    5         CLASS = ASL_PRO_OPT_TBL.FMT_IDX(NEXT);
     4401    21980
     4402    21981    5            END; /* Do case ( .FMT_IDX )  */
     4403    21982
     4404    21983    5      DO SELECT( CLASS ) ;
     4405    21984
     4406    21985    5         SELECT ( 1 /* C_TEXT */,
     4407    21986    5              2 /* C_YESNO */,
     4408    21987    5              12 /* C_SBIN */,
     4409    21988    5              14 /* C_HEX */,
     4410    21989    5              16 /* C_VDH_ALG_TYPE */,
     4411    21990    5              3  /* C_YESNODC */,
     4412    21991    5              4 /* C_8BIT_DC */,
     4413    21992    5              5 /* C_BYTE_DC */,
     4414    21993    5              6 /* C_WORD_DC */,
     4415    21994    5              7 /* C_2BIT_UBIN */,
     4416    21995    5              8 /* C_4BIT_UBIN */,
     4417    21996    5              9 /* C_7BIT_UBIN */,
     4418    21997    5              10 /* C_BYTE_UBIN */,
     4419    21998    5              11 /* C_18BIT_UBIN */ );
     4420    21999
     4421    22000    5         SUBSTR (FMT_BUF, FDS.FMT_.BOUND+1, 3 ) = '%2P';
     4422    22001    5         FDS.FMT_.BOUND = FDS.FMT_.BOUND + 3;
     4423    22002
PL6.E3A0      #001=ASL$DISP_ONE_PROFILE File=ASL$L_PRO.:E05TSI                   TUE 07/29/97 10:26 Page:126
     4424    22003    5         SELECT(13 /* C_REAL */) ;
     4425    22004    5         SVAL = SBINS(0)/10 ;
     4426    22005    5         SBINS(1) = SBINS(0) - SVAL*10 ;
     4427    22006    5         SBINS(0) = SVAL ;
     4428    22007    5         IF SBINS(1)<0
     4429    22008    5         THEN
     4430    22009    5            SBINS(1) = SBINS(1)*-1 ;
     4431    22010    5         FMT_VEC( 0 ) = VECTOR(SBINS(0)) ;
     4432    22011    5         FMT_VEC( 1 ) = VECTOR(SBINS(1)) ;
     4433    22012    5         FDS.NVECS# = 2 ;
     4434    22013
     4435    22014    5         SELECT(15 /*C_HEX_LIST */) ;
     4436    22015    5         IF PTR$ -> ABYTE ~= 0 THEN
     4437    22016    5            PTR$ = PINCRC (ADDR(TCCHR$->KL$CCHR.TXT_UBIN),PTR$->ABYTE);
     4438    22017    5         FDS.NVECS# = 0;
     4439    22018    5         CALL DO_HEX_LIST (PTR$);
     4440    22019
     4441    22020    5         SELECT( 17 /* C_ABSGRPRND */ );
     4442    22021    5         FIRST = %YES#;
     4443    22022    6         DO I = 18 /* C_ABSGRPRND_DCRINT */ TO 24 /* C_ABSGRPRND_UNDSCR */;
     4444    22023
     4445    22024    6            SET = %NO#;
     4446    22025    7            DO SELECT ( I );
     4447    22026
     4448    22027    7               SELECT ( 18 /* C_ABSGRPRND_DCRINT */ );
     4449    22028
     4450    22029    7               IF KL$ABSGRPRND.FLAGS.DCRINT# THEN
     4451    22030    7                  SET = %YES#;
     4452    22031
     4453    22032    7               SELECT ( 19 /* C_ABSGRPRND_FSTBLN */ );
     4454    22033
     4455    22034    7               IF KL$ABSGRPRND.FLAGS.FSTBLN# THEN
     4456    22035    7                  SET = %YES#;
     4457    22036
     4458    22037    7               SELECT ( 20 /* C_ABSGRPRND_HDN */ );
     4459    22038
     4460    22039    7               IF KL$ABSGRPRND.FLAGS.HDN# THEN
PL6.E3A0      #001=ASL$DISP_ONE_PROFILE File=ASL$L_PRO.:E05TSI                   TUE 07/29/97 10:26 Page:127
     4461    22040    7                  SET = %YES#;
     4462    22041
     4463    22042    7               SELECT ( 21 /* C_ABSGRPRND_INCINT */ );
     4464    22043
     4465    22044    7               IF KL$ABSGRPRND.FLAGS.INCINT# THEN
     4466    22045    7                  SET = %YES#;
     4467    22046
     4468    22047    7               SELECT ( 23 /* C_ABSGRPRND_SLWBLN */ );
     4469    22048
     4470    22049    7               IF KL$ABSGRPRND.FLAGS.SLWBLN# THEN
     4471    22050    7                  SET = %YES#;
     4472    22051
     4473    22052    7               SELECT ( 22 /* C_ABSGRPRND_RVRVID */ );
     4474    22053
     4475    22054    7               IF KL$ABSGRPRND.FLAGS.RVRVID# THEN
     4476    22055    7                  SET = %YES#;
     4477    22056
     4478    22057    7               SELECT ( 24 /* C_ABSGRPRND_UNDSCR */ );
     4479    22058
     4480    22059    7               IF KL$ABSGRPRND.FLAGS.UNDSCR# THEN
     4481    22060    7                  SET = %YES#;
     4482    22061
     4483    22062    7               END; /*  Do case (i)  */
     4484    22063
     4485    22064    7            IF SET THEN DO;
     4486    22065    8               IF NOT FIRST THEN DO;
     4487    22066    8                  SUBSTR (FMT_BUF, FDS.FMT_.BOUND+1, 1 ) = ',';
     4488    22067    8                  FDS.FMT_.BOUND = FDS.FMT_.BOUND + 1;
     4489    22068    8                  END; /*  Not first  */
     4490    22069    7               CALL INDEX (J, ' ', FMT_TABLE ( I ));
     4491    22070    7               SUBSTR (FMT_BUF, FDS.FMT_.BOUND+1, J) = SUBSTR (FMT_TABLE(I),0,J);
     4492    22071    7               FDS.FMT_.BOUND = FDS.FMT_.BOUND + J;
     4493    22072    7               FIRST = %NO#;
     4494    22073    7               END; /*  If set  */
     4495    22074
     4496    22075    6            END; /*  Do i  */
     4497    22076    5         SUBSTR (FMT_BUF, FDS.FMT_.BOUND+1, 3 ) = '%2P';
PL6.E3A0      #001=ASL$DISP_ONE_PROFILE File=ASL$L_PRO.:E05TSI                   TUE 07/29/97 10:26 Page:128
     4498    22077    5         FDS.FMT_.BOUND = FDS.FMT_.BOUND + 3;
     4499    22078
     4500    22079    5         SELECT (28 /* C_ALL_DONE */);
     4501    22080              /* This case is empty because all the building of the format
     4502    22081                 buffer has been completed.  The templates are done, all that
     4503    22082                 remains is to call X$FORMAT.  */
     4504    22083    5         END ;                    /* Do case ( class )                  */
     4505    22084
     4506    22085    4      CALL X$FORMAT (FDS);
     4507    22086
     4508    22087    4         END; /*  If flag set and .LEN > 0  */
     4509    22088    3      END;   /*  Do OPT_INDEX  */
     4510    22089    2   FDS.NVECS# = 0;
     4511    22090    2   CALL ASB$WRITE_LO ('   END', 6);
     4512    22091    2   RETURN ;
     4513    22092    2   END  BUILD_JCL_FMT;
     4514    22093        %EJECT ;
PL6.E3A0      #001=ASL$DISP_ONE_PROFILE File=ASL$L_PRO.:E05TSI                   TUE 07/29/97 10:26 Page:129
     4515    22094    1   DO_SETUP_CHR_JCL: PROC (PTR$, LENGTH);
     4516    22095
     4517    22096        /*
     4518    22097           In setting up for this routine,  there will be some indexing into
     4519    22098           the KL$CCHR.TXT_UBIN array.  If the index is 0, it means that the
     4520    22099           field we are currently trying to display was not set, or was set
     4521    22100           to none.  So, we will leave the pointer, PTR$, pointing at the
     4522    22101           index and not at the place in the KL$CCHR.TXT_UBIN array where
     4523    22102           the field starts.
     4524    22103           I also assume that PTR$ is pointing at a textc type structure,
     4525    22104           ie. a string with a count as the first byte followed by count
     4526    22105           number of bytes that represent the field we are interested in.
     4527    22106        */
     4528    22107    2   DCL PTR$ PTR;
     4529    22108    2   DCL I  UBIN;
     4530    22109    2   DCL LENGTH   UBIN;
     4531    22110    2   DCL COUNT UBIN;
     4532    22111    2   DCL ABYTE  UBIN BYTE BASED CALIGNED;
     4533    22112    2   DCL OLD_POS UBIN STATIC INIT (0);
     4534    22113    2   DCL NEW_POS UBIN STATIC INIT (0);
     4535    22114    2   DCL STRING  CHAR(512)  STATIC INIT(' ');
     4536    22115
     4537    22116    2   OLD_POS = 0;
     4538    22117    2   NEW_POS = 0;
     4539    22118    2   STRING = ' ';
     4540    22119    2   COUNT = PTR$ -> ABYTE;
     4541    22120    2   PTR$ = PINCRC(PTR$,1);
     4542    22121
     4543    22122    3   IF COUNT ~= 0 THEN DO;
     4544    22123    3      I = 1;
     4545    22124    4      DO WHILE I <= COUNT;
     4546    22125    4         IF (PTR$ -> ABYTE = 127) OR
     4547    22126    5              (PTR$->ABYTE < 32) THEN DO;
     4548    22127                                            /*  Unprintable characters
     4549    22128                 case (  0,  1,  2,  3,  4,  5,  6,  7,
     4550    22129                         8,  9, 10, 11, 12, 13, 14, 15,
     4551    22130                        16, 17, 18, 19, 20, 21, 22, 23,
PL6.E3A0      #001=ASL$DISP_ONE_PROFILE File=ASL$L_PRO.:E05TSI                   TUE 07/29/97 10:26 Page:130
     4552    22131                        24, 25, 26, 27, 28, 29, 30, 31, 127);    */
     4553    22132
     4554    22133    6            IF (LENGTH+4) > LO_WIDTH THEN DO;
     4555    22134    6               FDS.FMT_.BOUND = FDS.FMT_.BOUND - 1;
     4556    22135    6               CALL X$FORMAT (FDS) ;
     4557    22136    6               FDS.NVECS# = 0;
     4558    22137    6               SUBSTR (FMT_BUF,0,17) = '%4-SETUP_CHR = + ';
     4559    22138    6               FDS.FMT_.BOUND = 16;
     4560    22139    6               LENGTH = 18;
     4561    22140    6               END;   /*  out of space on the output line  */
     4562    22141    5            FMT_VEC (FDS.NVECS#) = VECTOR (UNPRINT_TABLE.TXT(PTR$->ABYTE));
     4563    22142    5            FDS.NVECS# = FDS.NVECS# + 1;
     4564    22143    5            SUBSTR (FMT_BUF,FDS.FMT_.BOUND+1,4) = '%>A,';
     4565    22144    5            FDS.FMT_.BOUND = FDS.FMT_.BOUND + 4;
     4566    22145    5            I = I + 1;
     4567    22146    5            PTR$ = PINCRC (PTR$,1);
     4568    22147    5            LENGTH = LENGTH + 4;
     4569    22148
     4570    22149    5            END;   /*  Unprintable characters  */
     4571    22150    4         ELSE
     4572    22151    5            IF (PTR$->ABYTE < 127) THEN DO;
     4573    22152                                         /*  Printable characters  */
     4574    22153    6               IF LENGTH + 3 > LO_WIDTH THEN DO;
     4575    22154    6                  FDS.FMT_.BOUND = FDS.FMT_.BOUND - 1;
     4576    22155    6                  CALL X$FORMAT (FDS) ;
     4577    22156    6                  FDS.NVECS# = 0;
     4578    22157    6                  SUBSTR (FMT_BUF,0,16) = '%4-SETUP_CHR = + ';
     4579    22158    6                  FDS.FMT_.BOUND = 16;
     4580    22159    6                  LENGTH = 18;
     4581    22160    6                  END;   /*  out of space on the output line  */
     4582    22161                            /*  OLD_POS is the last position in string
     4583    22162                                NEW_POS is the next position in string  */
     4584    22163    5               NEW_POS = OLD_POS + 1;
     4585    22164    6               DO WHILE PTR$->ABYTE > 31 AND PTR$ -> ABYTE < 127;
     4586    22165    6                  SUBSTR (STRING,NEW_POS,1) = BINASC (PTR$->ABYTE);
     4587    22166    6                  PTR$ = PINCRC (PTR$,1);
     4588    22167    6                  NEW_POS = NEW_POS + 1;
PL6.E3A0      #001=ASL$DISP_ONE_PROFILE File=ASL$L_PRO.:E05TSI                   TUE 07/29/97 10:26 Page:131
     4589    22168    6                  I = I + 1;
     4590    22169    6                  LENGTH = LENGTH + 1;
     4591    22170    6                  IF (I > COUNT) OR ((LENGTH+2) >= LO_WIDTH) THEN
     4592    22171    6                     EXIT;
     4593    22172    6                  END; /*   Do while a printable character  */
     4594    22173    5               SUBSTR (STRING,OLD_POS,1) = BINASC(NEW_POS-OLD_POS-1);
     4595    22174    5               FMT_VEC (FDS.NVECS#) = VECTOR (SUBSTR(STRING,OLD_POS,NEW_POS-OLD_POS));
     4596    22175    5               FDS.NVECS# = FDS.NVECS# + 1;
     4597    22176    5               SUBSTR (FMT_BUF,FDS.FMT_.BOUND+1,5) = '''%T'',';
     4598    22177    5               FDS.FMT_.BOUND = FDS.FMT_.BOUND + 5;
     4599    22178    5               OLD_POS = NEW_POS;
     4600    22179    5               LENGTH = LENGTH + 3;
     4601    22180    5               END;   /*  Printable characters  */
     4602    22181    5            ELSE DO;   /*  Character values > 127  */
     4603    22182    6               IF LENGTH + 6 > LO_WIDTH THEN DO;
     4604    22183    6                  FDS.FMT_.BOUND = FDS.FMT_.BOUND - 1;
     4605    22184    6                  CALL X$FORMAT (FDS) ;
     4606    22185    6                  FDS.NVECS# = 0;
     4607    22186    6                  SUBSTR (FMT_BUF,0,16) = '%4-SETUP_CHR = + ';
     4608    22187    6                  FDS.FMT_.BOUND = 16;
     4609    22188    6                  LENGTH = 18;
     4610    22189    6                  END;   /*  out of space on the output line  */
     4611    22190    5               CALL INSERT (FMT_BUF,FDS.FMT_.BOUND+1,7,'X''%2H'',');
     4612    22191    5               FDS.FMT_.BOUND = FDS.FMT_.BOUND + 7;
     4613    22192    5               FMT_VEC (FDS.NVECS#) = VECTOR (PTR$->ABYTE);
     4614    22193    5               FDS.NVECS# = FDS.NVECS# + 1;
     4615    22194    5               I = I + 1;
     4616    22195    5               LENGTH = LENGTH + 6;
     4617    22196    5               END;
     4618    22197    4         END;  /*  Do while i < count  */
     4619    22198    3      FDS.FMT_.BOUND = FDS.FMT_.BOUND - 1;
     4620    22199    3      END; /*  If not 0  */
     4621    22200    3   ELSE DO;
     4622    22201    3      FMT_VEC ( 0 ) = VECTOR (NONE_STR);
     4623    22202    3      FDS.NVECS# = 1;
     4624    22203    3      CALL INSERT (FMT_BUF, FDS.FMT_.BOUND+1,3,'%>A');
     4625    22204    3      FDS.FMT_.BOUND = FDS.FMT_.BOUND + 3;
PL6.E3A0      #001=ASL$DISP_ONE_PROFILE File=ASL$L_PRO.:E05TSI                   TUE 07/29/97 10:26 Page:132
     4626    22205    3      END;   /*  Else  */
     4627    22206    2   RETURN;
     4628    22207    2   END DO_SETUP_CHR_JCL;
     4629    22208    1   END   ASL$DISP_ONE_PROFILE ;

PL6.E3A0      #001=ASL$DISP_ONE_PROFILE File=ASL$L_PRO.:E05TSI                   TUE 07/29/97 10:26 Page:133
--  Include file information  --

   AS_SUPER_R.:E05TOU  cannot be made into a system file and is referenced.
   XG_SUBS_C.:E05TOU  is referenced.
   XG_PROFILE_C.:E05TOU  is referenced.
   XU_FORMAT_C.:E05TOU  is referenced.
   XU_MACRO_C.:E05TOU  is referenced.
   KL_SUPER_C.:E05TOU  is referenced.
   KV$INPFNC.:E05TOU  is referenced.
   AS_FUNKEY_DEFS_C.:E05TOU  is referenced.
   B_MICROPS_C.:E05TOU  is referenced.
   KV_PRMID_E.:E05TOU  is referenced.
   CP_6_SUBS.:E05TOU  is referenced.
   CP_6.:E05TOU  cannot be made into a system file and is referenced.
   AS_ENTRIES_M.:E05TOU  is referenced.
   AS_PERR_C.:E05TOU  is referenced.
   AS_SSUBS_C.:E05TOU  is referenced.
   AS_SUPER_C.:E05TOU  is referenced.
   AS_MAC_C.:E05TOU  cannot be made into a system file and is referenced.
   AS_SUBS_C.:E05TOU  is referenced.
   B$JIT_C.:E05TOU  was found in the system file and is never referenced.
   CP_6_C.:E05TOU  was found in the system file and is referenced.
      No diagnostics issued in procedure ASL$DISP_ONE_PROFILE.

   Procedure ASL$DISP_ONE_PROFILE requires 11817 words for executable code.
   Procedure ASL$DISP_ONE_PROFILE requires 264 words of local(AUTO) storage.

    No errors detected in file ASL$L_PRO.:E05TSI    .

PL6.E3A0      #001=ASL$DISP_ONE_PROFILE File=ASL$L_PRO.:E05TSI                   TUE 07/29/97 10:26 Page:134

 Object Unit name= ASL$DISP_ONE_PROFILE                       File name= ASL$L_PRO.:E05TOU
 UTS= JUL 29 '97 10:26:46.72 TUE                              Compiler= PL-6/E31         Sev=      00
 SharedLib= :SHARED_SYSTEM                                    Alt SharedLib=


    ****  Control sections  ****

 Sect   Type Bound  Init  Size OctSiz  Section name(segment info)
    0   DCB   even  none     0      0  M$UC
    1   DCB   even  none     0      0  M$LO
    2   Data  even  none   510    776  ASL$DISP_ONE_PROFILE
    3  RoData even  UTS   2345   4451  ASL$DISP_ONE_PROFILE
    4   Proc  even  none 11817  27051  ASL$DISP_ONE_PROFILE
    5  RoData even  none   224    340  ASL$DISP_ONE_PROFILE

    ****  Entry defs  ****

                              Check   Calling
                             calling  sequence
  Sect OctLoc Primary Altret sequence   type   Parms  Name
     4      0   yes            yes      Std        2  ASL$DISP_ONE_PROFILE
     4   1145                  yes      Std        2  ASL$LIST_PRO_OPTS

  ****  Data defs  ****

 Sect OctLoc  Name                           Sect OctLoc  Name
    2     46  PRO_FLAGS                          2    572  PRO_TYP
PL6.E3A0      #001=ASL$DISP_ONE_PROFILE File=ASL$L_PRO.:E05TSI                   TUE 07/29/97 10:26 Page:135

  ****  Entry refs  ****

         Check        Calling
        calling       sequence
Altret sequence SRef   type   Args  Name
         yes          ~proc      0 XU_OUTPUT_OPTIONS
         yes           Std       2 ASB$WRITE_LO
         yes           Std       2 ASB$READ_SI
         yes           Std       1 X$FORMAT
 yes     yes           Std       3 ASD$GR_READ_PRO
         yes           Std       0 ASH$HELP
         yes           Std       2 ASH$ERROR
         yes           Std       0 ASH$QUEST
         yes           Std       0 ASB$PAGE_LO
 yes     yes           Std       3 ASB$SET_PROMPT
         yes           Std       0 ASH$DQUEST
 yes     yes           Std       1 X$PARSE
                       nStd      0 X66_AUTO_2
                       Std       0 B_CONSPOOL_D
                       nStd      0 X66_ARET

  ****  Data refs  ****

  Flags:  r = read only, s = secondary
Flgs Name                             Flgs Name                             Flgs Name
     M$UC                                  LIST_PRO_S_OPT                   r    ASL_POLLVIP_TYP
r    ASL_VIRCIR_TYP                   r    ASL_RBT_TYP                      r    ASL_RBTD_TYP
r    ASL_ASYNC_TYP                    r    ASL_LINK_TYP                     r    ASL_URP_TYP
r    ASL_3270_TYP                     r    ASL_PRO_OPT_TBL                  r    AS_BLANK
r    AS_TRUE                          r    AS_MODE                          r    AS_FE_MODE
     M$LO                                  USERS_KEY                             LO_WIDTH
     FDS                                   FMT_BUF                               FMT_VEC
     IN_BUF                                OUT_BUF                               NODE$
     CODE                                  LIST_ACCT_FLG                         ERR_CODE
     REMEM_VAR                             REM_FCMD                              ASA_BRKS_LOC
     DSEG1$                                P_PCB                                 B_VECTNIL
PL6.E3A0      #001=ASL$DISP_ONE_PROFILE File=ASL$L_PRO.:E05TSI                   TUE 07/29/97 10:26 Page:136

  ****  Segment refs  ****

  Flags:  r = read only, s = secondary
Flgs Name                             Flgs Name                             Flgs Name
     NULLSID                               ISSID
PL6.E3A0      #001=ASL$DISP_ONE_PROFILE File=ASL$L_PRO.:E05TSI                   TUE 07/29/97 10:26 Page:137


        1        1        /*M* ASL$L_PRO:  Routine to list out PROFILES.    */
        2        2        /*T***********************************************************/
        3        3        /*T*                                                         */
        4        4        /*T* Copyright (c) Bull HN Information Systems Inc., 1997    */
        5        5        /*T*                                                         */
        6        6        /*T***********************************************************/
        7        7        /*X*  DMC,DMR,CCC,PLM=0,IND=3,CTI=5,DCI=6,IAD=0,DTI=0,IDT=0,ENI=3,
        8        8              ECU=3,CSU=3,SDI=3                                           */
        9        9        ASL$DISP_ONE_PROFILE: PROC(P_ARS,JCL);

      9  4 000000   000000 700200 xent  ASL$DISP_ON* TSX0  ! X66_AUTO_2
         4 000001   000410 000002                    ZERO    264,2

       10       10        %SET LISTSUB = '1'B ;
       11       11        /********************************************************************/
       12       12        /*   Parameters      parameters      parameters      parameters     */
       13       13        /********************************************************************/
       14       14    1   DCL P_ARS UBIN WORD ;
       15       15    1   DCL JCL   BIT(1) ;
       16       16        /********************************************************************/
       17       17        /*   Include files   include files   include files   include files  */
       18       18        /********************************************************************/
       19       19        %INCLUDE AS_SUBS_C;
       20     1433        %INCLUDE AS_MAC_C;
       21     1513        %INCLUDE AS_SUPER_C;
       22     1948        %INCLUDE AS_SSUBS_C ;
       23     2040        %INCLUDE AS_PERR_C ;
       24     2642        %INCLUDE AS_ENTRIES_M;
       25     3692        %INCLUDE CP_6 ;
       26     3773        %INCLUDE CP_6_SUBS;
       27     4313        %INCLUDE KV_PRMID_E ;
       28     4487        %INCLUDE B_MICROPS_C;
       29     4659        %INCLUDE AS_FUNKEY_DEFS_C;
       30     4764        %INCLUDE KV$INPFNC;
       31     5323           %KV_INPFNC_E;
       32     5337           %KV_INPFNCKEY_E;
PL6.E3A0      #001=ASL$DISP_ONE_PROFILE File=ASL$L_PRO.:E05TSI                   TUE 07/29/97 10:26 Page:138
       33     5599        %INCLUDE KL_SUPER_C;
       34     8501        %INCLUDE XU_MACRO_C;
       35    11607        %INCLUDE XU_FORMAT_C;
       36    11769        %INCLUDE XG_PROFILE_C;
       37    12323        %INCLUDE XG_SUBS_C;
       38    12817        %INCLUDE AS_SUPER_R;
       39    15833        /********************************************************************/
       40    15834        /*   subs            subs            subs            subs           */
       41    15835        /********************************************************************/
       42    15836        /********************************************************************/
       43    15837        /*   Entry dcls      entry dcls      entry dcls      entry dcls     */
       44    15838        /********************************************************************/
       45    15839    1   DCL X$PARSE ENTRY(1) ALTRET;
       46    15840    1   DCL X$FORMAT ENTRY(1);
       47    15841        %ASB$WRITE_LO ;
       48    15844        %ASB$PAGE_LO ;
       49    15847        %ASB$READ_SI ;
       50    15850        %ASB$SET_PROMPT ;
       51    15853        %ASD$GR_READ_PRO ;
       52    15856        %ASH$HELP ;
       53    15859        %ASH$ERROR ;
       54    15862        %ASH$DQUEST ;
       55    15865        %ASH$QUEST ;
       56    15868        /********************************************************************/
       57    15869        /*   Local based     local based     local based     local based    */
       58    15870        /********************************************************************/
       59    15871    1   DCL 1 TEXT$C BASED,
       60    15872    1          2 L UBIN BYTE UNAL,
       61    15873    1          2 C CHAR(TEXT$C.L) UNAL;
       62    15874              %KL_PHDR ( NAME = PRO$HDR ,
       63    15875                          STCLASS = BASED ) ;
       64    15916        %XG$PROFILE( PRON = GRA$REC,
       65    15917                     STCLASS = BASED );
       66    16339    1   DCL 1 PP$STRCT BASED( PP$ ) UNAL ,
       67    16340    1          2 TYPE UBIN BYTE UNAL ,
       68    16341    1          2 SIZE UBIN BYTE UNAL ;
       69    16342    1   DCL 1 PP$BIG_STRCT BASED( PP$ ) UNAL ,
PL6.E3A0      #001=ASL$DISP_ONE_PROFILE File=ASL$L_PRO.:E05TSI                   TUE 07/29/97 10:26 Page:139
       70    16343    1          2 BIG  UBIN BYTE UNAL ,
       71    16344    1          2 TYPE UBIN BYTE UNAL ,
       72    16345    1          2 SIZE ,
       73    16346    1             3 *   UBIN (1) UNAL ,
       74    16347    1             3 T   UBIN (8) UNAL ,
       75    16348    1             3 *   UBIN (1) UNAL ,
       76    16349    1             3 B   UBIN (8) UNAL ;
       77    16350        %PARSE$OUT(NAME=P$B,STCLASS="BASED(P_PCB.OUT$)",
       78    16351                        NDTYPE=TYPE,NSUBLKS=NSUBLKS);
       79    16396        %KL$UWORD(NAME=KL$UWORD,STCLASS=BASED) ;
       80    16401        %KL$BWORD(NAME=KL$BWORD,STCLASS=BASED) ;
       81    16407        %KL$UBWORD(NAME=KL$UBWORD,STCLASS=AUTO) ;
       82    16417        /********************************************************************/
       83    16418        /*   Vlps            vlps            vlps            vlps            */
       84    16419        /*********************************************************************/
       85    16420                                                /**/
       86    16421              %VLP_NAME ( FPTN = VLP_PNAME ,
       87    16422                          STCLASS = STATIC ) ;
       88    16449              %VLP_TRMCTL ( FPTN = VLP_TRMCTL ,
       89    16450                            STCLASS = STATIC ) ;
       90    16490              %VLP_TRMATTR (  FPTN = VLP_TRMATTR ,
       91    16491                              STCLASS = STATIC ) ;
       92    16529              %VLP_PLATEN ( FPTN = VLP_PLATEN ,
       93    16530                            STCLASS = STATIC ) ;
       94    16552              %VLP_TAB (  FPTN = VLP_TAB ,
       95    16553                          STCLASS = STATIC ) ;
       96    16567              %VLP_NAME         ( FPTN    = VLP$PNAME ,
       97    16568                                  STCLASS = "BASED CALIGNED",
       98    16569                                  LEN     = VLP$PNAME.L# ) ;
       99    16596              %VLP_TRMCTL       ( FPTN    = VLP$TRMCTRL ,
      100    16597                                  ALGN    = CALIGNED ,
      101    16598                                  STCLASS = BASED ) ;
      102    16638              %VLP_TRMATTR      ( FPTN    = VLP$TRMATTR ,
      103    16639                                  ALGN    = CALIGNED ,
      104    16640                                  STCLASS = BASED ) ;
      105    16678              %VLP_PLATEN       ( FPTN    = VLP$PLATEN ,
      106    16679                                  ALGN    = CALIGNED ,
PL6.E3A0      #001=ASL$DISP_ONE_PROFILE File=ASL$L_PRO.:E05TSI                   TUE 07/29/97 10:26 Page:140
      107    16680                                  STCLASS = BASED ) ;
      108    16702              %VLP_TAB          ( FPTN    = VLP$TAB ,
      109    16703                                  STCLASS = BASED )  ;
      110    16717              %KL_CCHR          ( NAME    = KL$CCHR ,
      111    16718                                  STCLASS = "BASED CALIGNED") ;
      112    16859              %KL_TRMD          ( NAME    = KL$TRMD ,
      113    16860                                  STCLASS = "BASED CALIGNED") ;
      114    17022              %KL_LINK          ( NAME    = KL$LINK ,
      115    17023                                  STCLASS = "BASED" ) ;
      116    17119              %KL_VIRCIR        ( NAME    = KL$VIRCIR,
      117    17120                                  STCLASS = "BASED") ;
      118    17329              %KL_3270          ( NAME    = KL$3270,
      119    17330                                  STCLASS = "BASED(KL_3270$) CALIGNED" );
      120    17355              %KL_ABSGRPRND     ( NAME    = KL$ABSGRPRND,
      121    17356                                  STCLASS = "BASED(KL_ABSGRPRND$) CALIGNED" );
      122    17391              %AS_FUNKEY        ( NAME    = KL$FUNKEY,
      123    17392                                  STCLASS = "BASED (FUNKEY$) CALIGNED") ;
      124    17463
      125    17464        /********************************************************************/
      126    17465        /*   Constant data   constant data   constant data   constant data  */
      127    17466        /********************************************************************/
      128    17467    1   DCL FMT_TABLE   (0:28 /* C_ALL_DONE */) CHAR(30) CONSTANT INIT
      129    17468    1             (' ',
      130    17469    1              '%>A',
      131    17470    1              '%1.1N[YES%0?NO%]',
      132    17471    1              '%2.2N[YES%0?NO%1?DC%]',
      133    17472    1              '%255.8N:=[DC%?%.#KD%]',
      134    17473    1              '%255.9N:=[DC%?%.#KD%]',
      135    17474    1              '%255.N:=[DC%?%.#K+D%]',
      136    17475    1              '%.2D',
      137    17476    1              '%.4D',
      138    17477    1              '%.7D',
      139    17478    1              '%.9D',
      140    17479    1              '%.18D',
      141    17480    1              '%+D',
      142    17481    1              '%+D.%1ZD',
      143    17482    1              'X''%.9H''',
PL6.E3A0      #001=ASL$DISP_ONE_PROFILE File=ASL$L_PRO.:E05TSI                   TUE 07/29/97 10:26 Page:141
      144    17483    1              'X''%H''%N(,X''%H''%)',
      145    17484    1              '%.9N:=[NONE%1?ANS%?%.#KD%]',
      146    17485    1              '%..2.2P%.7N[NONE%]',
      147    17486    1              '%..2.4P%1.1N[DCRINT%]',
      148    17487    1              '%..2.7P%1.1N[FSTBLN%]',
      149    17488    1              '%..2.2P%1.1N[HDN%]',
      150    17489    1              '%..2.3P%1.1N[INCINT%]',
      151    17490    1              '%..2.8P%1.1N[RVRVID%]',
      152    17491    1              '%..2.6P%1.1N[SLWBLN%]',
      153    17492    1              '%..2.5P%1.1N[UNDSCR%]%1P',
      154    17493    1              ' '*0);
      155    17494    1   DCL PRO_JCL_FMT  CHAR(0) CONSTANT INIT ('MODIFY PROFILE %>A %>A');
      156    17495    1   DCL 1 UNPRINT_TABLE (0:127) CONSTANT,
      157    17496    1          2 CNT  UBIN BYTE CALIGNED
      158    17497    1              INIT (3*8, 2*8, 3*9, 2, 3*2, 2*4, 0*95, 3),
      159    17498    1          2 TXT  CHAR(3)  CALIGNED
      160    17499    1             INIT (    'NUL',
      161    17500    1                       'SOH',
      162    17501    1                       'STX',
      163    17502    1                       'ETX',
      164    17503    1                       'EOT',
      165    17504    1                       'ENQ',
      166    17505    1                       'ACK',
      167    17506    1                       'BEL',
      168    17507    1                       'BS ',
      169    17508    1                       'HT ',
      170    17509    1                       'LF ',
      171    17510    1                       'VT ',
      172    17511    1                       'FF ',
      173    17512    1                       'CR ',
      174    17513    1                       'SO ',
      175    17514    1                       'SI ',
      176    17515    1                       'DLE',
      177    17516    1                       'DC1',
      178    17517    1                       'DC2',
      179    17518    1                       'DC3',
      180    17519    1                       'DC4',
PL6.E3A0      #001=ASL$DISP_ONE_PROFILE File=ASL$L_PRO.:E05TSI                   TUE 07/29/97 10:26 Page:142
      181    17520    1                       'NAK',
      182    17521    1                       'SYN',
      183    17522    1                       'ETB',
      184    17523    1                       'CAN',
      185    17524    1                       'EM ',
      186    17525    1                       'SUB',
      187    17526    1                       'ESC',
      188    17527    1                       'FS ',
      189    17528    1                       'GS ',
      190    17529    1                       'RS ',
      191    17530    1                       'US ',
      192    17531    1                       '   '*95,
      193    17532    1                       'DEL');
      194    17533    1   DCL YES_STR CHAR(0) CONSTANT INIT('Yes') ;
      195    17534    1   DCL NO_STR CHAR(0) CONSTANT INIT('No') ;
      196    17535    1   DCL TRY_STR CHAR(0) CONSTANT INIT('Try') ;
      197    17536    1   DCL ANS_STR CHAR(0) CONSTANT INIT('ANS') ;
      198    17537    1   DCL TBL_STR CHAR(0) CONSTANT INIT('TBL') ;
      199    17538    1   DCL DBL_STR CHAR(0) CONSTANT INIT('DBL') ;
      200    17539    1   DCL NEC_STR CHAR(0) CONSTANT INIT('NEC') ;
      201    17540    1   DCL ENQACK_STR CHAR(0) CONSTANT INIT('ENQACK') ;
      202    17541    1   DCL ETXACK_STR CHAR(0) CONSTANT INIT('ETXACK') ;
      203    17542    1   DCL DC1DC3_STR CHAR(0) CONSTANT INIT('DC1DC3') ;
      204    17543    1   DCL S2780_STR CHAR(0) CONSTANT INIT('2780') ;
      205    17544    1   DCL S3780_STR CHAR(0) CONSTANT INIT('3780') ;
      206    17545    1   DCL HASP_STR CHAR(0) CONSTANT INIT('HASP') ;
      207    17546    1   DCL POLLED_STR CHAR(0) CONSTANT INIT('POLLED') ;
      208    17547    1   DCL S3275_STR CHAR(0) CONSTANT INIT('3270') ;
      209    17548    1   DCL HIP_STR CHAR(0) CONSTANT INIT('HIP');
      210    17549    1   DCL NJE_STR CHAR(0) CONSTANT INIT('NJE');
      211    17550    1   DCL NONE_STR CHAR(0) CONSTANT INIT('NONE') ;
      212    17551    1   DCL ALL_STR CHAR(0) CONSTANT INIT('ALL') ;
      213    17552    1   DCL X25_STR CHAR(0) CONSTANT INIT('X25') ;
      214    17553    1   DCL LINK_STR CHAR(0) CONSTANT INIT('LINK') ;
      215    17554    1   DCL VIRCIR_STR CHAR(0) CONSTANT INIT('VIRCIR') ;
      216    17555    1   DCL X29_STR CHAR(0) CONSTANT INIT('X29') ;
      217    17556    1   DCL V128_STR CHAR(0) CONSTANT INIT('128') ;
PL6.E3A0      #001=ASL$DISP_ONE_PROFILE File=ASL$L_PRO.:E05TSI                   TUE 07/29/97 10:26 Page:143
      218    17557    1   DCL V256_STR CHAR(0) CONSTANT INIT('256') ;
      219    17558    1   DCL V512_STR CHAR(0) CONSTANT INIT('512') ;
      220    17559    1   DCL V1024_STR CHAR(0) CONSTANT INIT('1024') ;
      221    17560    1   DCL V2048_STR CHAR(0) CONSTANT INIT('2048') ;
      222    17561    1   DCL V4096_STR CHAR(0) CONSTANT INIT('4096') ;
      223    17562    1   DCL PRM_STR CHAR(0) CONSTANT INIT('PRIMARY');
      224    17563    1   DCL SECND_STR CHAR(0) CONSTANT INIT('SECONDARY');
      225    17564    1   DCL BCK_STR CHAR(0) CONSTANT INIT('BACKUP');
      226    17565    1   DCL VC75_STR CHAR(0) CONSTANT INIT('75');
      227    17566    1   DCL VC150_STR CHAR(0) CONSTANT INIT('150');
      228    17567    1   DCL VC300_STR CHAR(0) CONSTANT INIT('300');
      229    17568    1   DCL VC600_STR CHAR(0) CONSTANT INIT('600');
      230    17569    1   DCL VC1200_STR CHAR(0) CONSTANT INIT('1200');
      231    17570    1   DCL VC2400_STR CHAR(0) CONSTANT INIT('2400');
      232    17571    1   DCL VC4800_STR CHAR(0) CONSTANT INIT('4800');
      233    17572    1   DCL VC9600_STR CHAR(0) CONSTANT INIT('9600');
      234    17573    1   DCL VC19200_STR CHAR(0) CONSTANT INIT('19200');
      235    17574    1   DCL VC48000_STR CHAR(0) CONSTANT INIT('48000');
      236    17575    1   DCL SPD50_STR CHAR(0) CONSTANT INIT('50');
      237    17576    1   DCL SPD110_STR CHAR(0) CONSTANT INIT('110');
      238    17577    1   DCL SPD1345_STR CHAR(0) CONSTANT INIT('134.5');
      239    17578    1   DCL SPD200_STR CHAR(0) CONSTANT INIT('200');
      240    17579    1   DCL SPD1050_STR CHAR(0) CONSTANT INIT('1050');
      241    17580    1   DCL SPD1800_STR CHAR(0) CONSTANT INIT('1800');
      242    17581    1   DCL SPD2000_STR CHAR(0) CONSTANT INIT('2000');
      243    17582    1   DCL DTE_STR CHAR(0) CONSTANT INIT('DTE') ;
      244    17583    1   DCL DCE_STR CHAR(0) CONSTANT INIT('DCE') ;
      245    17584    1   DCL ODD_STR CHAR(0) CONSTANT INIT('ODD') ;
      246    17585    1   DCL EVEN_STR CHAR(0) CONSTANT INIT('EVEN') ;
      247    17586    1   DCL ONE_STR CHAR(0) CONSTANT INIT('ONE') ;
      248    17587    1   DCL ZERO_STR CHAR(0) CONSTANT INIT('ZERO') ;
      249    17588    1   DCL TWO_STR CHAR(0) CONSTANT INIT('2');
      250    17589    1   DCL THREE_STR CHAR(0) CONSTANT INIT('3');
      251    17590    1   DCL PROTECT_STR CHAR(0) CONSTANT INIT('PROTECTED');
      252    17591    1   DCL UNPROTECT_STR CHAR(0) CONSTANT INIT('UNPROTECTED');
      253    17592    1   DCL DC_STR CHAR(0) CONSTANT INIT('DC') ;
      254    17593    1   DCL ASYNC_STR CHAR(0) CONSTANT INIT('ASYNC') ;
PL6.E3A0      #001=ASL$DISP_ONE_PROFILE File=ASL$L_PRO.:E05TSI                   TUE 07/29/97 10:26 Page:144
      255    17594    1   DCL RBTD_STR CHAR(0) CONSTANT INIT('RBTD') ;
      256    17595    1   DCL RBT_STR CHAR(0) CONSTANT INIT('RBT') ;
      257    17596    1   DCL URP_STR CHAR(0) CONSTANT INIT('URP') ;
      258    17597    1   DCL POLLVIP_STR CHAR(0) CONSTANT INIT('POLLVIP') ;
      259    17598    1   DCL P3270_STR CHAR(0) CONSTANT INIT('3270');
      260    17599    1   DCL S2780LP_STR CHAR(0) CONSTANT INIT('2780LP') ;
      261    17600    1   DCL S2780CR_STR CHAR(0) CONSTANT INIT('2780CR') ;
      262    17601    1   DCL S2780CP_STR CHAR(0) CONSTANT INIT('2780CP') ;
      263    17602    1   DCL S3780LP_STR CHAR(0) CONSTANT INIT('3780LP') ;
      264    17603    1   DCL S3780CR_STR CHAR(0) CONSTANT INIT('3780CR') ;
      265    17604    1   DCL S3780CP_STR CHAR(0) CONSTANT INIT('3780CP') ;
      266    17605    1   DCL HASPOC_STR CHAR(0) CONSTANT INIT('HASPOC') ;
      267    17606    1   DCL HASPLP_STR CHAR(0) CONSTANT INIT('HASPLP') ;
      268    17607    1   DCL HASPCR_STR CHAR(0) CONSTANT INIT('HASPCR') ;
      269    17608    1   DCL HASPCP_STR CHAR(0) CONSTANT INIT('HASPCP') ;
      270    17609    1   DCL NONE_SET_STR CHAR(0) CONSTANT INIT('None set') ;
      271    17610    1   DCL LINE_STR CHAR(0) CONSTANT INIT('LINE') ;
      272    17611    1   DCL PAGE_STR CHAR(0) CONSTANT INIT('PAGE') ;
      273    17612    1   DCL BLANKS_STR CHAR(0) CONSTANT INIT('BLANKS') ;
      274    17613    1   DCL HDN_STR CHAR(0) CONSTANT INIT('HDN');
      275    17614    1   DCL INCINT_STR CHAR(0) CONSTANT INIT('INCINT');
      276    17615    1   DCL DCRINT_STR CHAR(0) CONSTANT INIT('DCRINT');
      277    17616    1   DCL UNDSCR_STR CHAR(0) CONSTANT INIT('UNDSCR');
      278    17617    1   DCL SLWBLN_STR CHAR(0) CONSTANT INIT('SLWBLN');
      279    17618    1   DCL FSTBLN_STR CHAR(0) CONSTANT INIT('FSTBLN');
      280    17619    1   DCL RVRVID_STR CHAR(0) CONSTANT INIT('RVRVID');
      281    17620    1   DCL HEX_CHARS(0:15) CHAR(1) STATIC INIT( '0', '1', '2', '3', '4', '5',
      282    17621    1                                            '6', '7', '8', '9', 'A', 'B',
      283    17622    1                                            'C', 'D', 'E', 'F' ) ;
      284    17623    1   DCL MOP_STR(0:1) BIT(9) CONSTANT INIT(%MVZB2,%MVC2);
      285    17624        %KV_PRMID_E ;
      286    17780        /********************************************************************/
      287    17781        /*   Static data     static data     static data     static data    */
      288    17782        /********************************************************************/
      289    17783    1   DCL PRO_FLAGS(0:280 /* L_PRO_END */) BIT(1) STATIC SYMDEF; /*To make .X tool work*/
      290    17784    1   DCL FRST_CHR CHAR(1) ALIGNED STATIC INIT(' ') ;
      291    17785    1   DCL ACCT_ARRY(0:7) CHAR(12) ALIGNED STATIC ;
PL6.E3A0      #001=ASL$DISP_ONE_PROFILE File=ASL$L_PRO.:E05TSI                   TUE 07/29/97 10:26 Page:145
      292    17786              %KL_PHDR (  NAME = PRO_HDR ,
      293    17787                          STCLASS = STATIC ) ;
      294    17828    1   DCL TCTL$ PTR STATIC INIT( ADDR(NIL) ) ;
      295    17829    1   DCL TATR$ PTR STATIC INIT( ADDR(NIL) ) ;
      296    17830    1   DCL PLTN$ PTR STATIC INIT( ADDR(NIL) ) ;
      297    17831    1   DCL DTABS$ PTR STATIC INIT( ADDR(NIL) ) ;
      298    17832    1   DCL TCCHR$ PTR STATIC INIT( ADDR(NIL) ) ;
      299    17833    1   DCL TRMD$ PTR STATIC INIT( ADDR(NIL) ) ;
      300    17834    1   DCL PNM$ PTR STATIC INIT( ADDR(NIL) ) ;
      301    17835    1   DCL LINK$ PTR STATIC INIT(ADDR(NIL));
      302    17836    1   DCL VIRCIR$ PTR STATIC INIT(ADDR(NIL));
      303    17837    1   DCL KL_3270$ PTR STATIC INIT(ADDR(NIL));
      304    17838    1   DCL KL_ABSGRPRND$ PTR STATIC INIT(ADDR(NIL));
      305    17839    1   DCL ABSGRPRND$(0:7) PTR STATIC INIT(ADDR(NIL)*0);
      306    17840    1   DCL FUNKEY$ PTR STATIC INIT (ADDR (NIL));
      307    17841    1   DCL SETUP_CHR$ PTR STATIC INIT (ADDR (NIL));
      308    17842    1   DCL T_TAB(0:31) UBIN BYTE UNAL STATIC INIT(0*0) ;
      309    17843    1   DCL BLANK_BUF CHAR(4) STATIC INIT(' ') ;
      310    17844        /********************************************************************/
      311    17845        /*   Err codes       err codes       err codes       err codes      */
      312    17846        /********************************************************************/
      313    17847        %ERR_CODE(NAME = E_BADLSTPROOPT,MID# = '14'O,CODE# = E$BADLSTPROOPT );
      314    17863        /*E* ERROR: ASL-E$BADLSTPROOPT-C
      315    17864             MESSAGE0: Illegal option.
      316    17865             MESSAGE1: Illegal LIST option for this PROFILE type.
      317    17866        */
      318    17867        %ERR_CODE(NAME = E_NOGRAREC,MID# = '14'O,CODE# = E$NOGRAREC );
      319    17883        /*E* ERROR: ASL-E$NOGRAREC-C
      320    17884             MESSAGE0: This PROFILE is not graphics capable.
      321    17885             MESSAGE1: Illegal LIST option for this PROFILE type.
      322    17886        */
      323    17887        %ERR_CODE(NAME = E_NOGRAFND,MID# = '14'O,CODE# = E$NOGRAFND );
      324    17903        /*E* ERROR: ASL-E$NOGRAFND-C
      325    17904             MESSAGE0: GRAPHICS are allowed, but no graphics are defined.
      326    17905             MESSAGE1: The GRAPHICS_OK bit is set, but there is no graphics record.
      327    17906             MESSAGE2: Modifying this profile will automatically create the
      328    17907                        necessary default graphics record.
PL6.E3A0      #001=ASL$DISP_ONE_PROFILE File=ASL$L_PRO.:E05TSI                   TUE 07/29/97 10:26 Page:146
      329    17908        */
      330    17909        /********************************************************************/
      331    17910        /*   Auto data       auto data       auto data       auto data      */
      332    17911        /********************************************************************/
      333    17912    1   DCL NEXT_TAB SBIN;
      334    17913    1   DCL SBINS(0:55) SBIN;
      335    17914    1   DCL 1 SBINS_2(0:55) REDEF SBINS,
      336    17915    1          2 * BIT(34),
      337    17916    1          2 TWO BIT(2) ;
      338    17917    1   DCL 1 SBINS_4(0:55) REDEF SBINS,
      339    17918    1          2 * BIT(32),
      340    17919    1          2 FOUR BIT(4) ;
      341    17920    1   DCL 1 SBINS_6(0:55) REDEF SBINS,
      342    17921    1          2 * BIT(30),
      343    17922    1          2 SIX BIT(6) ;
      344    17923    1   DCL SBIN_IDX SBIN;
      345    17924    1   DCL HDR_LEN SBIN;
      346    17925    1   DCL ST_IDX SBIN;
      347    17926    1   DCL NXT_IDX SBIN;
      348    17927    1   DCL FIELDS SBIN;
      349    17928    1   DCL BOG BIT(1) ALIGNED;
      350    17929    1   DCL BOGU REDEF BOG UBIN(1) ALIGNED;
      351    17930    1   DCL LEN SBIN;
      352    17931    1   DCL LEN2 UBIN ;
      353    17932    1   DCL NEW_CHR CHAR(1) ALIGNED ;
      354    17933    1   DCL TEMP_BUF CHAR(24) ALIGNED ;
      355    17934    1   DCL TEMP_STR CHAR(10) ;
      356    17935    1   DCL ONE_CHAR_STR CHAR(1) ;
      357    17936    1   DCL PP$ PTR ;
      358    17937    1   DCL PP_END$ PTR ;
      359    17938    1   DCL P_TYPE UBIN WORD ;
      360    17939    1   DCL PP_TYPE UBIN WORD ;
      361    17940    1   DCL PP_SIZE UBIN WORD ;
      362    17941    1   DCL ARS UBIN;
      363    17942    1   DCL G_ARS UBIN;
      364    17943    1   DCL GR_FLAG BIT(1) STATIC ;
      365    17944    1   DCL GRA_BUF STATIC CHAR(1024 /* AS_PRO_BUF_SIZEC */) INIT(' ');
PL6.E3A0      #001=ASL$DISP_ONE_PROFILE File=ASL$L_PRO.:E05TSI                   TUE 07/29/97 10:26 Page:147
      366    17945    1   DCL MORE BIT(1) ALIGNED;
      367    17946    1   DCL ND$ PTR;
      368    17947    1   DCL I UBIN;
      369    17948    1   DCL J UBIN WORD ;
      370    17949    1   DCL K UBIN WORD ;
      371    17950    1   DCL DO_GRAPHIC BIT (1) ALIGNED;
      372    17951    1   DCL GR_ESC_IDX UBIN WORD ;
      373    17952    1   DCL GR_FPRG_IDX UBIN WORD;
      374    17953    1   DCL PHDR$ PTR ;
      375    17954    1   DCL GRA$ PTR ;
      376    17955    1   DCL SPLIT$ PTR ;
      377    17956    1   DCL PRO_TYP BIT(9) ALIGNED SYMDEF STATIC; /* To make .X tool work */
      378    17957    1   DCL UHEX_NUM UBIN WORD ;
      379    17958    1   DCL HEX_NUM(0:8) REDEF UHEX_NUM UBIN(4) UNAL ;
      380    17959    1   DCL HEX_BUF CHAR(4) ;
      381    17960    1   DCL RHEX_BUF(0:3) REDEF HEX_BUF CHAR(1) ;
      382    17961    1   DCL ADDRESS(0:13) CHAR(1);
      383    17962    1   DCL NINE_BIT BIT(9) ;
      384    17963    1   DCL PTR$ PTR ;
      385    17964        %EJECT ;
PL6.E3A0      #001=ASL$DISP_ONE_PROFILE File=ASL$L_PRO.:E05TSI                   TUE 07/29/97 10:26 Page:148
      386    17965        /********************************************************************/
      387    17966        /*   Procedure       procedure       procedure       procedure      */
      388    17967        /********************************************************************/
      389    17968    1   PP_END$ = PINCRC( DSEG1$, P_ARS ) ;

  17968  4 000002   200003 470500                    LDP0    @P_ARS,,AUTO
         4 000003   000000 236100                    LDQ     0,,PR0
         4 000004   000020 736000                    QLS     16
         4 000005   000000 036000 xsym               ADLQ    DSEG1$
         4 000006   200123 756100                    STQ     PP_END$,,AUTO

      390    17969    1   PP$ = PINCRW( DSEG1$, SIZEW( PRO_HDR ) ) ;

  17969  4 000007   000000 236000 xsym               LDQ     DSEG1$
         4 000010   000024 036003                    ADLQ    20,DU
         4 000011   200122 756100                    STQ     PP$,,AUTO

      391    17970                                                /*  Find all vlps.                    */
      392    17971    2   DO WHILE ( PP$ < PP_END$ ) ;

  17971  4 000012   200123 116100                    CMPQ    PP_END$,,AUTO
         4 000013   000214 603000 4                  TRC     s:18032

      393    17972    3      IF PP$STRCT.TYPE = %KV_PRMID_BIGTL THEN DO;

  17972  4 000014   200122 470500                    LDP0    PP$,,AUTO
         4 000015   003100 061500                    CSR     bolr='003'O
         4 000016   000000 000011                    BDSC    0,,PR0                   by=0,bit=0,n=9
         4 000017   200366 000044                    BDSC    TEMP+4,,AUTO             by=0,bit=0,n=36
         4 000020   200366 236100                    LDQ     TEMP+4,,AUTO
         4 000021   000377 116007                    CMPQ    255,DL
         4 000022   000044 601000 4                  TNZ     s:17978

      394    17973    3         PP_TYPE = PP$BIG_STRCT.TYPE;

  17973  4 000023   003100 061500                    CSR     bolr='003'O
         4 000024   000000 200011                    BDSC    0,,PR0                   by=1,bit=0,n=9
PL6.E3A0      #001=ASL$DISP_ONE_PROFILE File=ASL$L_PRO.:E05TSI                   TUE 07/29/97 10:26 Page:149
         4 000025   200125 000044                    BDSC    PP_TYPE,,AUTO            by=0,bit=0,n=36

      395    17974    3         PP_SIZE = PP$BIG_STRCT.SIZE.T * 256 + PP$BIG_STRCT.SIZE.B;

  17974  4 000026   003100 061500                    CSR     bolr='003'O
         4 000027   000000 610010                    BDSC    0,,PR0                   by=3,bit=1,n=8
         4 000030   200366 000044                    BDSC    TEMP+4,,AUTO             by=0,bit=0,n=36
         4 000031   003100 061500                    CSR     bolr='003'O
         4 000032   000000 410010                    BDSC    0,,PR0                   by=2,bit=1,n=8
         4 000033   200367 000044                    BDSC    TEMP+5,,AUTO             by=0,bit=0,n=36
         4 000034   200367 236100                    LDQ     TEMP+5,,AUTO
         4 000035   000010 736000                    QLS     8
         4 000036   200366 036100                    ADLQ    TEMP+4,,AUTO
         4 000037   200126 756100                    STQ     PP_SIZE,,AUTO

      396    17975    3         PP$ = PINCRC ( PP$, 4 );

  17975  4 000040   200122 236100                    LDQ     PP$,,AUTO
         4 000041   000001 036003                    ADLQ    1,DU
         4 000042   200122 756100                    STQ     PP$,,AUTO

      397    17976    3         END;   /*  Bigtl  */

  17976  4 000043   000055 710000 4                  TRA     s:17983

      398    17977    3      ELSE DO;

      399    17978    3         PP_TYPE = PP$STRCT.TYPE ;

  17978  4 000044   003100 061500                    CSR     bolr='003'O
         4 000045   000000 000011                    BDSC    0,,PR0                   by=0,bit=0,n=9
         4 000046   200125 000044                    BDSC    PP_TYPE,,AUTO            by=0,bit=0,n=36

      400    17979    3         PP_SIZE = PP$STRCT.SIZE ;

  17979  4 000047   003100 061500                    CSR     bolr='003'O
         4 000050   000000 200011                    BDSC    0,,PR0                   by=1,bit=0,n=9
PL6.E3A0      #001=ASL$DISP_ONE_PROFILE File=ASL$L_PRO.:E05TSI                   TUE 07/29/97 10:26 Page:150
         4 000051   200126 000044                    BDSC    PP_SIZE,,AUTO            by=0,bit=0,n=36

      401    17980    3         PP$ = PINCRC( PP$, 2 ) ;

  17980  4 000052   200122 236100                    LDQ     PP$,,AUTO
         4 000053   400000 036007                    ADLQ    -131072,DL
         4 000054   200122 756100                    STQ     PP$,,AUTO

      402    17981    3         END;   /*  Regular type  */

      403    17982                                                /**/
      404    17983    3      DO SELECT( PP_TYPE ) ;

  17983  4 000055   200125 236100                    LDQ     PP_TYPE,,AUTO
         4 000056   000017 116007                    CMPQ    15,DL
         4 000057   000104 602000 4                  TNC     s:17983+23
         4 000060   000146 600000 4                  TZE     s:18001
         4 000061   000031 116007                    CMPQ    25,DL
         4 000062   000075 602000 4                  TNC     s:17983+16
         4 000063   000171 600000 4                  TZE     s:18019
         4 000064   000033 116007                    CMPQ    27,DL
         4 000065   000072 602000 4                  TNC     s:17983+13
         4 000066   000166 600000 4                  TZE     s:18016
         4 000067   000034 116007                    CMPQ    28,DL
         4 000070   000203 601000 4                  TNZ     s:18026
         4 000071   000157 710000 4                  TRA     s:18010
         4 000072   000032 116007                    CMPQ    26,DL
         4 000073   000203 601000 4                  TNZ     s:18026
         4 000074   000174 710000 4                  TRA     s:18022
         4 000075   000030 116007                    CMPQ    24,DL
         4 000076   000101 602000 4                  TNC     s:17983+20
         4 000077   000154 600000 4                  TZE     s:18007
         4 000100   000203 710000 4                  TRA     s:18026
         4 000101   000027 116007                    CMPQ    23,DL
         4 000102   000203 601000 4                  TNZ     s:18026
         4 000103   000163 710000 4                  TRA     s:18013
         4 000104   000010 116007                    CMPQ    8,DL
PL6.E3A0      #001=ASL$DISP_ONE_PROFILE File=ASL$L_PRO.:E05TSI                   TUE 07/29/97 10:26 Page:151
         4 000105   000116 602000 4                  TNC     s:17983+33
         4 000106   000140 600000 4                  TZE     s:17995
         4 000107   000015 116007                    CMPQ    13,DL
         4 000110   000113 602000 4                  TNC     s:17983+30
         4 000111   000151 600000 4                  TZE     s:18004
         4 000112   000203 710000 4                  TRA     s:18026
         4 000113   000011 116007                    CMPQ    9,DL
         4 000114   000203 601000 4                  TNZ     s:18026
         4 000115   000143 710000 4                  TRA     s:17998
         4 000116   000004 116007                    CMPQ    4,DL
         4 000117   000124 602000 4                  TNC     s:17983+39
         4 000120   000132 600000 4                  TZE     s:17989
         4 000121   000007 116007                    CMPQ    7,DL
         4 000122   000203 601000 4                  TNZ     s:18026
         4 000123   000135 710000 4                  TRA     s:17992
         4 000124   000003 116007                    CMPQ    3,DL
         4 000125   000203 601000 4                  TNZ     s:18026
         4 000126   000127 710000 4                  TRA     s:17986

      405    17984                                                /**/
      406    17985    3         SELECT( %KV_PRMID_PROFILE  /* Pname */) ;

      407    17986    3         PNM$ = PP$ ;

  17986  4 000127   200122 236100                    LDQ     PP$,,AUTO
         4 000130   000141 756000 2                  STQ     PNM$
         4 000131   000203 710000 4                  TRA     s:18026

      408    17987                                                /**/
      409    17988    3         SELECT( %KV_PRMID_TRMCTL  /* Term control */ ) ;

      410    17989    3         TCTL$ = PP$ ;

  17989  4 000132   200122 236100                    LDQ     PP$,,AUTO
         4 000133   000133 756000 2                  STQ     TCTL$
         4 000134   000203 710000 4                  TRA     s:18026

PL6.E3A0      #001=ASL$DISP_ONE_PROFILE File=ASL$L_PRO.:E05TSI                   TUE 07/29/97 10:26 Page:152
      411    17990                                                /**/
      412    17991    3         SELECT( %KV_PRMID_TRMATTR  /* Term attr */ ) ;

      413    17992    3         TATR$ = PP$ ;

  17992  4 000135   200122 236100                    LDQ     PP$,,AUTO
         4 000136   000134 756000 2                  STQ     TATR$
         4 000137   000203 710000 4                  TRA     s:18026

      414    17993                                                /**/
      415    17994    3         SELECT( %KV_PRMID_PLATEN  /* Platen */ ) ;

      416    17995    3         PLTN$ = PP$ ;

  17995  4 000140   200122 236100                    LDQ     PP$,,AUTO
         4 000141   000135 756000 2                  STQ     PLTN$
         4 000142   000203 710000 4                  TRA     s:18026

      417    17996                                                /**/
      418    17997    3         SELECT( %KV_PRMID_TRMTAB  /* Device tabs */ ) ;

      419    17998    3         DTABS$ = PP$ ;

  17998  4 000143   200122 236100                    LDQ     PP$,,AUTO
         4 000144   000136 756000 2                  STQ     DTABS$
         4 000145   000203 710000 4                  TRA     s:18026

      420    17999                                                /**/
      421    18000    3         SELECT( %KV_PRMID_CTRCHR  /* Control char. */ ) ;

      422    18001    3         TCCHR$ = PP$ ;

  18001  4 000146   200122 236100                    LDQ     PP$,,AUTO
         4 000147   000137 756000 2                  STQ     TCCHR$
         4 000150   000203 710000 4                  TRA     s:18026

      423    18002                                                /**/
PL6.E3A0      #001=ASL$DISP_ONE_PROFILE File=ASL$L_PRO.:E05TSI                   TUE 07/29/97 10:26 Page:153
      424    18003    3         SELECT( %KL_PRMID_TRMD  ) ;

      425    18004    3         TRMD$ = PP$ ;

  18004  4 000151   200122 236100                    LDQ     PP$,,AUTO
         4 000152   000140 756000 2                  STQ     TRMD$
         4 000153   000203 710000 4                  TRA     s:18026

      426    18005                                                /**/
      427    18006    3         SELECT (%KV_PRMID_KEYDEFS) ;

      428    18007    3         FUNKEY$ = PP$;

  18007  4 000154   200122 236100                    LDQ     PP$,,AUTO
         4 000155   000156 756000 2                  STQ     FUNKEY$
         4 000156   000203 710000 4                  TRA     s:18026

      429    18008
      430    18009    3         SELECT (%KV_PRMID_SETUP_CHR) ;

      431    18010    3         SETUP_CHR$ = PINCRC (PP$, -2);

  18010  4 000157   200122 236100                    LDQ     PP$,,AUTO
         4 000160   000000 036000 5                  ADLQ    0
         4 000161   000157 756000 2                  STQ     SETUP_CHR$
         4 000162   000203 710000 4                  TRA     s:18026

      432    18011
      433    18012    3         SELECT( %KL_PRMID_LINK  ) ;

      434    18013    3         LINK$ = PP$ ;

  18013  4 000163   200122 236100                    LDQ     PP$,,AUTO
         4 000164   000142 756000 2                  STQ     LINK$
         4 000165   000203 710000 4                  TRA     s:18026

      435    18014
PL6.E3A0      #001=ASL$DISP_ONE_PROFILE File=ASL$L_PRO.:E05TSI                   TUE 07/29/97 10:26 Page:154
      436    18015    3         SELECT( %KL_PRMID_VIRCIR  ) ;

      437    18016    3         VIRCIR$ = PP$ ;

  18016  4 000166   200122 236100                    LDQ     PP$,,AUTO
         4 000167   000143 756000 2                  STQ     VIRCIR$
         4 000170   000203 710000 4                  TRA     s:18026

      438    18017
      439    18018    3         SELECT( %KV_PRMID_3270   /* 3270 */ );

      440    18019    3         KL_3270$ = PP$;

  18019  4 000171   200122 236100                    LDQ     PP$,,AUTO
         4 000172   000144 756000 2                  STQ     KL_3270$
         4 000173   000203 710000 4                  TRA     s:18026

      441    18020
      442    18021    3         SELECT( %KV_PRMID_ABSGRPRND  /* Absgrprnd */ );

      443    18022    3         ABSGRPRND$(PP$->KL$ABSGRPRND.ID#) = PP$;

  18022  4 000174   200122 470500                    LDP0    PP$,,AUTO
         4 000175   003100 061500                    CSR     bolr='003'O
         4 000176   000000 020007                    BDSC    0,,PR0                   by=0,bit=2,n=7
         4 000177   200366 000022                    BDSC    TEMP+4,,AUTO             by=0,bit=0,n=18
         4 000200   200366 220100                    LDX0    TEMP+4,,AUTO
         4 000201   200122 236100                    LDQ     PP$,,AUTO
         4 000202   000146 756010 2                  STQ     ABSGRPRND$,X0

      444    18023
      445    18024    3         END ;                       /*  Do case                           */

      446    18025                                                /**/
      447    18026    2      I = PP_SIZE + (MOD (PP_SIZE, 2)) ;

  18026  4 000203   200126 236100                    LDQ     PP_SIZE,,AUTO
PL6.E3A0      #001=ASL$DISP_ONE_PROFILE File=ASL$L_PRO.:E05TSI                   TUE 07/29/97 10:26 Page:155
         4 000204   000001 376007                    ANQ     1,DL
         4 000205   200126 036100                    ADLQ    PP_SIZE,,AUTO
         4 000206   200133 756100                    STQ     I,,AUTO

      448    18027    2      PP$ = PINCRC ( PP$, I ) ;

  18027  4 000207   000020 736000                    QLS     16
         4 000210   200122 036100                    ADLQ    PP$,,AUTO
         4 000211   200122 756100                    STQ     PP$,,AUTO

      449    18028                                                /**/
      450    18029    2      END ;                        /*  Do while                          */

  18029  4 000212   200123 116100                    CMPQ    PP_END$,,AUTO
         4 000213   000014 602000 4                  TNC     s:17972

      451    18030                                                /**/
      452    18031                                                /* Set up profile name                */
      453    18032    1   TEMP_STR = ' ';

  18032  4 000214   040100 100400                    MLR     fill='040'O
         4 000215   000035 000001 xsym               ADSC9   B_VECTNIL+29             cn=0,n=1
         4 000216   200116 000012                    ADSC9   TEMP_STR,,AUTO           cn=0,n=10

      454    18033    2   IF JCL THEN DO;

  18033  4 000217   200004 470500                    LDP0    @JCL,,AUTO
         4 000220   000000 066500                    CMPB    filb='0'B
         4 000221   000000 000001                    BDSC    0,,PR0                   by=0,bit=0,n=1
         4 000222   000002 000022 xsym               BDSC    B_VECTNIL+2              by=0,bit=0,n=18
         4 000223   000253 600000 4                  TZE     s:18041

      455    18034    2      FMT_BUF = PRO_JCL_FMT;

  18034  4 000224   040000 100400                    MLR     fill='040'O
         4 000225   000332 000026 3                  ADSC9   PRO_JCL_FMT              cn=0,n=22
         4 000226   000000 000377 xsym               ADSC9   FMT_BUF                  cn=0,n=255
PL6.E3A0      #001=ASL$DISP_ONE_PROFILE File=ASL$L_PRO.:E05TSI                   TUE 07/29/97 10:26 Page:156

      456    18035    2      FDS.FMT_.BOUND = SIZEC (PRO_JCL_FMT);

  18035  4 000227   000000 236000 xsym               LDQ     FDS
         4 000230   177777 376007                    ANQ     65535,DL
         4 000231   000001 276000 5                  ORQ     1
         4 000232   000000 756000 xsym               STQ     FDS

      457    18036    2      FDS.NVECS# = 2;

  18036  4 000233   000002 235007                    LDA     2,DL
         4 000234   000011 755000 xsym               STA     FDS+9

      458    18037    2      FMT_VEC ( 0 ) = VECTOR ( SUBSTR (USERS_KEY.TXTC,0,USERS_KEY.COUNT) ) ;

  18037  4 000235   000000 236000 xsym               LDQ     USERS_KEY
         4 000236   000033 772000                    QRL     27
         4 000237   000064 737000                    LLS     52
         4 000240   000140 135007                    SBLA    96,DL
         4 000241   000002 236000 5                  LDQ     2
         4 000242   000000 755000 xsym               STA     FMT_VEC
         4 000243   000001 756000 xsym               STQ     FMT_VEC+1

      459    18038    2      FMT_VEC ( 1 ) = VECTOR ( TEMP_STR );

  18038  4 000244   000003 235000 5                  LDA     3
         4 000245   200366 452500                    STP2    TEMP+4,,AUTO
         4 000246   200366 236100                    LDQ     TEMP+4,,AUTO
         4 000247   000116 036003                    ADLQ    78,DU
         4 000250   000002 755000 xsym               STA     FMT_VEC+2
         4 000251   000003 756000 xsym               STQ     FMT_VEC+3

      460    18039    2      END;   /*  Jcl  */

  18039  4 000252   000265 710000 4                  TRA     s:18044

      461    18040    2   ELSE DO;
PL6.E3A0      #001=ASL$DISP_ONE_PROFILE File=ASL$L_PRO.:E05TSI                   TUE 07/29/97 10:26 Page:157

      462    18041    2      OUT_BUF = ADDR(USERS_KEY) -> TEXT$C.C ;

  18041  4 000253   000000 236000 xsym               LDQ     USERS_KEY
         4 000254   000033 772000                    QRL     27
         4 000255   000000 620006                    EAX0    0,QL
         4 000256   040000 100440                    MLR     fill='040'O
         4 000257   000000 200010 xsym               ADSC9   USERS_KEY                cn=1,n=*X0
         4 000260   000000 000214 xsym               ADSC9   OUT_BUF                  cn=0,n=140

      463    18042    2      CALL INDEX(LEN,' ',OUT_BUF) ;

  18042  4 000261   000000 124400                    SCM     mask='000'O
         4 000262   000000 000214 xsym               ADSC9   OUT_BUF                  cn=0,n=140
         4 000263   000035 000001 xsym               ADSC9   B_VECTNIL+29             cn=0,n=1
         4 000264   200105 000100                    ARG     LEN,,AUTO

      464    18043    2      END;  /* Not jcl  */

      465    18044    1   IF PRO_FLAGS ~= '0'B

  18044  4 000265   000000 066400                    CMPB    filb='0'B
         4 000266   000046 000431 2                  BDSC    PRO_FLAGS                by=0,bit=0,n=281
         4 000267   000002 000022 xsym               BDSC    B_VECTNIL+2              by=0,bit=0,n=18
         4 000270   000504 600000 4                  TZE     s:18085

      466    18045    1   THEN                           /* List with options.                 */
      467    18046    2   DO ;

      468    18047    3      DO SELECT( DSEG1$ -> PRO$HDR.TTYP ) ;

  18047  4 000271   000000 471400 xsym               LDP1    DSEG1$
         4 000272   000100 101500                    MRL     fill='000'O
         4 000273   100000 000001                    ADSC9   0,,PR1                   cn=0,n=1
         4 000274   200366 000004                    ADSC9   TEMP+4,,AUTO             cn=0,n=4
         4 000275   200366 236100                    LDQ     TEMP+4,,AUTO
         4 000276   000004 116007                    CMPQ    4,DL
PL6.E3A0      #001=ASL$DISP_ONE_PROFILE File=ASL$L_PRO.:E05TSI                   TUE 07/29/97 10:26 Page:158
         4 000277   000335 602000 4                  TNC     s:18047+36
         4 000300   000404 600000 4                  TZE     s:18058
         4 000301   000100 101500                    MRL     fill='000'O
         4 000302   100000 000001                    ADSC9   0,,PR1                   cn=0,n=1
         4 000303   200367 000004                    ADSC9   TEMP+5,,AUTO             cn=0,n=4
         4 000304   200367 236100                    LDQ     TEMP+5,,AUTO
         4 000305   000010 116007                    CMPQ    8,DL
         4 000306   000326 602000 4                  TNC     s:18047+29
         4 000307   000412 600000 4                  TZE     s:18062
         4 000310   000100 101500                    MRL     fill='000'O
         4 000311   100000 000001                    ADSC9   0,,PR1                   cn=0,n=1
         4 000312   200370 000004                    ADSC9   TEMP+6,,AUTO             cn=0,n=4
         4 000313   200370 236100                    LDQ     TEMP+6,,AUTO
         4 000314   000012 116007                    CMPQ    10,DL
         4 000315   000441 602000 4                  TNC     s:18074
         4 000316   000426 600000 4                  TZE     s:18068
         4 000317   000100 101500                    MRL     fill='000'O
         4 000320   100000 000001                    ADSC9   0,,PR1                   cn=0,n=1
         4 000321   200371 000004                    ADSC9   TEMP+7,,AUTO             cn=0,n=4
         4 000322   200371 236100                    LDQ     TEMP+7,,AUTO
         4 000323   000016 116007                    CMPQ    14,DL
         4 000324   000441 601000 4                  TNZ     s:18074
         4 000325   000434 710000 4                  TRA     s:18071
         4 000326   000100 101500                    MRL     fill='000'O
         4 000327   100000 000001                    ADSC9   0,,PR1                   cn=0,n=1
         4 000330   200372 000004                    ADSC9   TEMP+8,,AUTO             cn=0,n=4
         4 000331   200372 236100                    LDQ     TEMP+8,,AUTO
         4 000332   000006 116007                    CMPQ    6,DL
         4 000333   000441 601000 4                  TNZ     s:18074
         4 000334   000420 710000 4                  TRA     s:18065
         4 000335   000100 101500                    MRL     fill='000'O
         4 000336   100000 000001                    ADSC9   0,,PR1                   cn=0,n=1
         4 000337   200373 000004                    ADSC9   TEMP+9,,AUTO             cn=0,n=4
         4 000340   200373 236100                    LDQ     TEMP+9,,AUTO
         4 000341   000002 116007                    CMPQ    2,DL
         4 000342   000353 602000 4                  TNC     s:18047+50
         4 000343   000362 600000 4                  TZE     s:18049
PL6.E3A0      #001=ASL$DISP_ONE_PROFILE File=ASL$L_PRO.:E05TSI                   TUE 07/29/97 10:26 Page:159
         4 000344   000100 101500                    MRL     fill='000'O
         4 000345   100000 000001                    ADSC9   0,,PR1                   cn=0,n=1
         4 000346   200374 000004                    ADSC9   TEMP+10,,AUTO            cn=0,n=4
         4 000347   200374 236100                    LDQ     TEMP+10,,AUTO
         4 000350   000003 116007                    CMPQ    3,DL
         4 000351   000441 601000 4                  TNZ     s:18074
         4 000352   000376 710000 4                  TRA     s:18055
         4 000353   000100 101500                    MRL     fill='000'O
         4 000354   100000 000001                    ADSC9   0,,PR1                   cn=0,n=1
         4 000355   200375 000004                    ADSC9   TEMP+11,,AUTO            cn=0,n=4
         4 000356   200375 236100                    LDQ     TEMP+11,,AUTO
         4 000357   000001 116007                    CMPQ    1,DL
         4 000360   000441 601000 4                  TNZ     s:18074
         4 000361   000370 710000 4                  TRA     s:18052

      469    18048    3         SELECT(%KLTY_TTY#) ;

      470    18049    3         LEN2 = LENGTHC(ASYNC_STR) ;

  18049  4 000362   000005 235007                    LDA     5,DL
         4 000363   200106 755100                    STA     LEN2,,AUTO

      471    18050    3         TEMP_STR = ASYNC_STR ;

  18050  4 000364   040100 100400                    MLR     fill='040'O
         4 000365   000654 000005 3                  ADSC9   ASYNC_STR                cn=0,n=5
         4 000366   200116 000012                    ADSC9   TEMP_STR,,AUTO           cn=0,n=10
         4 000367   000441 710000 4                  TRA     s:18074

      472    18051    3         SELECT(%KLTY_SDEV#) ;

      473    18052    3         LEN2 = LENGTHC(RBTD_STR) ;

  18052  4 000370   000004 235007                    LDA     4,DL
         4 000371   200106 755100                    STA     LEN2,,AUTO

      474    18053    3         TEMP_STR = RBTD_STR ;
PL6.E3A0      #001=ASL$DISP_ONE_PROFILE File=ASL$L_PRO.:E05TSI                   TUE 07/29/97 10:26 Page:160

  18053  4 000372   040100 100400                    MLR     fill='040'O
         4 000373   000656 000004 3                  ADSC9   RBTD_STR                 cn=0,n=4
         4 000374   200116 000012                    ADSC9   TEMP_STR,,AUTO           cn=0,n=10
         4 000375   000441 710000 4                  TRA     s:18074

      475    18054    3         SELECT(%KLTY_STRM#) ;

      476    18055    3         LEN2 = LENGTHC(RBT_STR) ;

  18055  4 000376   000003 235007                    LDA     3,DL
         4 000377   200106 755100                    STA     LEN2,,AUTO

      477    18056    3         TEMP_STR = RBT_STR ;

  18056  4 000400   040100 100400                    MLR     fill='040'O
         4 000401   000657 000003 3                  ADSC9   RBT_STR                  cn=0,n=3
         4 000402   200116 000012                    ADSC9   TEMP_STR,,AUTO           cn=0,n=10
         4 000403   000441 710000 4                  TRA     s:18074

      478    18057    3         SELECT( %KLTY_LINK# );

      479    18058    3         LEN2 = LENGTHC(LINK_STR);

  18058  4 000404   000004 235007                    LDA     4,DL
         4 000405   200106 755100                    STA     LEN2,,AUTO

      480    18059    3         TEMP_STR = LINK_STR;

  18059  4 000406   040100 100400                    MLR     fill='040'O
         4 000407   000570 000004 3                  ADSC9   LINK_STR                 cn=0,n=4
         4 000410   200116 000012                    ADSC9   TEMP_STR,,AUTO           cn=0,n=10
         4 000411   000441 710000 4                  TRA     s:18074

      481    18060
      482    18061    3         SELECT( %KLTY_VIRCIR#);

PL6.E3A0      #001=ASL$DISP_ONE_PROFILE File=ASL$L_PRO.:E05TSI                   TUE 07/29/97 10:26 Page:161
      483    18062    3         LEN2 = LENGTHC(VIRCIR_STR);

  18062  4 000412   000006 235007                    LDA     6,DL
         4 000413   200106 755100                    STA     LEN2,,AUTO

      484    18063    3         TEMP_STR = VIRCIR_STR;

  18063  4 000414   040100 100400                    MLR     fill='040'O
         4 000415   000571 000006 3                  ADSC9   VIRCIR_STR               cn=0,n=6
         4 000416   200116 000012                    ADSC9   TEMP_STR,,AUTO           cn=0,n=10
         4 000417   000441 710000 4                  TRA     s:18074

      485    18064    3         SELECT( %KLTY_URP# );

      486    18065    3         LEN2 = LENGTHC(URP_STR);

  18065  4 000420   000003 235007                    LDA     3,DL
         4 000421   200106 755100                    STA     LEN2,,AUTO

      487    18066    3         TEMP_STR = URP_STR;

  18066  4 000422   040100 100400                    MLR     fill='040'O
         4 000423   000660 000003 3                  ADSC9   URP_STR                  cn=0,n=3
         4 000424   200116 000012                    ADSC9   TEMP_STR,,AUTO           cn=0,n=10
         4 000425   000441 710000 4                  TRA     s:18074

      488    18067    3         SELECT( %KLTY_LINEDEV# );

      489    18068    3         LEN2 = LENGTHC(P3270_STR);

  18068  4 000426   000004 235007                    LDA     4,DL
         4 000427   200106 755100                    STA     LEN2,,AUTO

      490    18069    3         TEMP_STR = P3270_STR;

  18069  4 000430   040100 100400                    MLR     fill='040'O
         4 000431   000663 000004 3                  ADSC9   P3270_STR                cn=0,n=4
PL6.E3A0      #001=ASL$DISP_ONE_PROFILE File=ASL$L_PRO.:E05TSI                   TUE 07/29/97 10:26 Page:162
         4 000432   200116 000012                    ADSC9   TEMP_STR,,AUTO           cn=0,n=10
         4 000433   000441 710000 4                  TRA     s:18074

      491    18070    3         SELECT( %KLTY_HIP_DEV# );

      492    18071    3         LEN2 = LENGTHC(POLLVIP_STR);

  18071  4 000434   000007 235007                    LDA     7,DL
         4 000435   200106 755100                    STA     LEN2,,AUTO

      493    18072    3         TEMP_STR = POLLVIP_STR;

  18072  4 000436   040100 100400                    MLR     fill='040'O
         4 000437   000661 000007 3                  ADSC9   POLLVIP_STR              cn=0,n=7
         4 000440   200116 000012                    ADSC9   TEMP_STR,,AUTO           cn=0,n=10

      494    18073    3         END ;                       /* Do case                            */

      495    18074    2      IF JCL THEN

  18074  4 000441   000000 066500                    CMPB    filb='0'B
         4 000442   000000 000001                    BDSC    0,,PR0                   by=0,bit=0,n=1
         4 000443   000002 000022 xsym               BDSC    B_VECTNIL+2              by=0,bit=0,n=18
         4 000444   000452 600000 4                  TZE     s:18077

      496    18075    2         CALL X$FORMAT (FDS) ;

  18075  4 000445   000004 630400 5                  EPPR0   4
         4 000446   000017 631400 xsym               EPPR1   B_VECTNIL+15
         4 000447   000000 701000 xent               TSX1    X$FORMAT
         4 000450   000000 011000                    NOP     0
         4 000451   000617 710000 4                  TRA     s:18115

      497    18076    3      ELSE DO;

      498    18077    3         CALL INSERT(OUT_BUF,LEN+10,LEN2+7,'Type = ',TEMP_STR) ;

PL6.E3A0      #001=ASL$DISP_ONE_PROFILE File=ASL$L_PRO.:E05TSI                   TUE 07/29/97 10:26 Page:163
  18077  4 000452   200106 720100                    LXL0    LEN2,,AUTO
         4 000453   000007 621010                    EAX1    7,X0
         4 000454   200105 235100                    LDA     LEN,,AUTO
         4 000455   040045 100400                    MLR     fill='040'O
         4 000456   003761 000007 3                  ADSC9   FUNKEY_NAMES+1542        cn=0,n=7
         4 000457   000002 400011 xsym               ADSC9   OUT_BUF+2,A              cn=2,n=*X1
         4 000460   200106 236100                    LDQ     LEN2,,AUTO
         4 000461   000000 116003                    CMPQ    0,DU
         4 000462   000467 600000 4                  TZE     s:18078
         4 000463   000000 622006                    EAX2    0,QL
         4 000464   040045 100500                    MLR     fill='040'O
         4 000465   200116 000012                    ADSC9   TEMP_STR,,AUTO           cn=0,n=10
         4 000466   000004 200012 xsym               ADSC9   OUT_BUF+4,A              cn=1,n=*X2

      499    18078    3         LEN = LEN + 17 + LEN2 ;

  18078  4 000467   200105 236100                    LDQ     LEN,,AUTO
         4 000470   200106 036100                    ADLQ    LEN2,,AUTO
         4 000471   000021 036007                    ADLQ    17,DL
         4 000472   200105 756100                    STQ     LEN,,AUTO

      500    18079    3         CALL ASB$WRITE_LO(OUT_BUF,LEN) ;

  18079  4 000473   200105 633500                    EPPR3   LEN,,AUTO
         4 000474   200367 453500                    STP3    TEMP+5,,AUTO
         4 000475   000005 236000 5                  LDQ     5
         4 000476   200366 756100                    STQ     TEMP+4,,AUTO
         4 000477   200366 630500                    EPPR0   TEMP+4,,AUTO
         4 000500   000020 631400 xsym               EPPR1   B_VECTNIL+16
         4 000501   000000 701000 xent               TSX1    ASB$WRITE_LO
         4 000502   000000 011000                    NOP     0

      501    18080    3         END;   /*  Not jcl  */

      502    18081    2      END ;                       /* Then do                            */

  18081  4 000503   000617 710000 4                  TRA     s:18115
PL6.E3A0      #001=ASL$DISP_ONE_PROFILE File=ASL$L_PRO.:E05TSI                   TUE 07/29/97 10:26 Page:164

      503    18082    1   ELSE
      504    18083                                                /* List with no options.              */
      505    18084    2   DO ;

      506    18085    2      IF LIST_ACCT_FLG = '0'B

  18085  4 000504   000000 234000 xsym               SZN     LIST_ACCT_FLG
         4 000505   000514 604000 4                  TMI     s:18091

      507    18086    2      THEN                        /* First time thru.                   */
      508    18087    3      DO ;

      509    18088    3         FRST_CHR = OUT_BUF ;

  18088  4 000506   000000 236000 xsym               LDQ     OUT_BUF
         4 000507   777000 376003                    ANQ     -512,DU
         4 000510   000006 276000 5                  ORQ     6
         4 000511   000056 756000 2                  STQ     FRST_CHR

      510    18089    3         LIST_ACCT_FLG = '1'B ;

  18089  4 000512   400000 236003                    LDQ     -131072,DU
         4 000513   000000 756000 xsym               STQ     LIST_ACCT_FLG

      511    18090    3         END ;                    /* Then do                            */

      512    18091    2      NEW_CHR = OUT_BUF ;

  18091  4 000514   000000 236000 xsym               LDQ     OUT_BUF
         4 000515   777000 376003                    ANQ     -512,DU
         4 000516   000006 276000 5                  ORQ     6
         4 000517   200107 756100                    STQ     NEW_CHR,,AUTO

      513    18092    2      TEMP_BUF = SUBSTR(OUT_BUF,0,LEN) ;

  18092  4 000520   200105 720100                    LXL0    LEN,,AUTO
PL6.E3A0      #001=ASL$DISP_ONE_PROFILE File=ASL$L_PRO.:E05TSI                   TUE 07/29/97 10:26 Page:165
         4 000521   040100 100440                    MLR     fill='040'O
         4 000522   000000 000010 xsym               ADSC9   OUT_BUF                  cn=0,n=*X0
         4 000523   200110 000030                    ADSC9   TEMP_BUF,,AUTO           cn=0,n=24

      514    18093    2      IF NEW_CHR ~= FRST_CHR

  18093  4 000524   200107 236100                    LDQ     NEW_CHR,,AUTO
         4 000525   000056 676000 2                  ERQ     FRST_CHR
         4 000526   777000 376003                    ANQ     -512,DU
         4 000527   000545 600000 4                  TZE     s:18101

      515    18094    2      THEN                        /* Output old, start anew.            */
      516    18095    3      DO ;

      517    18096    3         CALL X$FORMAT(FDS) ;

  18096  4 000530   000004 630400 5                  EPPR0   4
         4 000531   000017 631400 xsym               EPPR1   B_VECTNIL+15
         4 000532   000000 701000 xent               TSX1    X$FORMAT
         4 000533   000000 011000                    NOP     0

      518    18097    3         CALL ASB$WRITE_LO(' ',1) ; /* Blank line                        */

  18097  4 000534   000007 630400 5                  EPPR0   7
         4 000535   000020 631400 xsym               EPPR1   B_VECTNIL+16
         4 000536   000000 701000 xent               TSX1    ASB$WRITE_LO
         4 000537   000000 011000                    NOP     0

      519    18098    3         FDS.NVECS# = 0 ;

  18098  4 000540   000011 450000 xsym               STZ     FDS+9

      520    18099    3         FRST_CHR = NEW_CHR ;

  18099  4 000541   200107 236100                    LDQ     NEW_CHR,,AUTO
         4 000542   777000 376003                    ANQ     -512,DU
         4 000543   000006 276000 5                  ORQ     6
PL6.E3A0      #001=ASL$DISP_ONE_PROFILE File=ASL$L_PRO.:E05TSI                   TUE 07/29/97 10:26 Page:166
         4 000544   000056 756000 2                  STQ     FRST_CHR

      521    18100    3         END ;                    /* Then do                            */

      522    18101    2      IF (FDS.NVECS#+1)*LENGTHC(ACCT_ARRY(0)) > LO_WIDTH

  18101  4 000545   000011 236000 xsym               LDQ     FDS+9
         4 000546   000014 402007                    MPY     12,DL
         4 000547   000014 036007                    ADLQ    12,DL
         4 000550   000561 604000 4                  TMI     s:18108
         4 000551   000000 116000 xsym               CMPQ    LO_WIDTH
         4 000552   000561 602000 4                  TNC     s:18108
         4 000553   000561 600000 4                  TZE     s:18108

      523    18102    2      THEN                        /* Buffer already full. Flush.        */
      524    18103    3      DO ;

      525    18104    3         CALL X$FORMAT(FDS) ;

  18104  4 000554   000004 630400 5                  EPPR0   4
         4 000555   000017 631400 xsym               EPPR1   B_VECTNIL+15
         4 000556   000000 701000 xent               TSX1    X$FORMAT
         4 000557   000000 011000                    NOP     0

      526    18105    3         FDS.NVECS# = 0 ;

  18105  4 000560   000011 450000 xsym               STZ     FDS+9

      527    18106    3         END ;                    /* Then do                            */

      528    18107                                                /* Move next entry                    */
      529    18108    2      ACCT_ARRY(FDS.NVECS#) = TEMP_BUF ;

  18108  4 000561   000011 236000 xsym               LDQ     FDS+9
         4 000562   000014 402007                    MPY     12,DL
         4 000563   040006 100500                    MLR     fill='040'O
         4 000564   200110 000014                    ADSC9   TEMP_BUF,,AUTO           cn=0,n=12
PL6.E3A0      #001=ASL$DISP_ONE_PROFILE File=ASL$L_PRO.:E05TSI                   TUE 07/29/97 10:26 Page:167
         4 000565   000057 000014 2                  ADSC9   ACCT_ARRY,Q              cn=0,n=12

      530    18109    2      FMT_VEC(FDS.NVECS#) = VECTOR(ACCT_ARRY(FDS.NVECS#)) ;

  18109  4 000566   000011 235000 xsym               LDA     FDS+9
         4 000567   000001 735000                    ALS     1
         4 000570   000000 620005                    EAX0    0,AL
         4 000571   000011 235000 5                  LDA     9
         4 000572   000011 236000 xsym               LDQ     FDS+9
         4 000573   200366 755100                    STA     TEMP+4,,AUTO
         4 000574   000003 402003                    MPY     3,DU
         4 000575   000012 036000 5                  ADLQ    10
         4 000576   200366 235100                    LDA     TEMP+4,,AUTO
         4 000577   000000 755010 xsym               STA     FMT_VEC,X0
         4 000600   000001 756010 xsym               STQ     FMT_VEC+1,X0

      531    18110    2      CALL INSERT(FMT_BUF,FDS.NVECS#*2,2,'%A') ;

  18110  4 000601   000011 235000 xsym               LDA     FDS+9
         4 000602   000001 735000                    ALS     1
         4 000603   040005 100400                    MLR     fill='040'O
         4 000604   003763 000002 3                  ADSC9   FUNKEY_NAMES+1544        cn=0,n=2
         4 000605   000000 000002 xsym               ADSC9   FMT_BUF,A                cn=0,n=2

      532    18111    2      FDS.NVECS# = FDS.NVECS# + 1 ;

  18111  4 000606   000011 054000 xsym               AOS     FDS+9

      533    18112    2      FDS.FMT_.BOUND = FDS.NVECS#*2-1 ;

  18112  4 000607   000011 236000 xsym               LDQ     FDS+9
         4 000610   000001 736000                    QLS     1
         4 000611   000001 136007                    SBLQ    1,DL
         4 000612   000020 736000                    QLS     16
         4 000613   000000 676000 xsym               ERQ     FDS
         4 000614   000034 376000 xsym               ANQ     B_VECTNIL+28
         4 000615   000000 656000 xsym               ERSQ    FDS
PL6.E3A0      #001=ASL$DISP_ONE_PROFILE File=ASL$L_PRO.:E05TSI                   TUE 07/29/97 10:26 Page:168

      534    18113    2      RETURN ;

  18113  4 000616   000000 702200 xent               TSX2  ! X66_ARET

      535    18114    2      END ;                       /* Else do                            */
      536    18115    1   ST_IDX = 0 ;

  18115  4 000617   200101 450100                    STZ     ST_IDX,,AUTO

      537    18116        /***
      538    18117         ***  Report the easy fields.
      539    18118         ***/
      540    18119    2   DO K = 0 TO 280 /* L_PRO_END */;

  18119  4 000620   200135 450100                    STZ     K,,AUTO

      541    18120    2      IF (ASL_PRO_OPT_TBL.ORDR (K) = 242 /* L_GR_ESCAPE */)

  18120  4 000621   200135 235100                    LDA     K,,AUTO
         4 000622   000003 735000                    ALS     3
         4 000623   000005 236005 xsym               LDQ     ASL_PRO_OPT_TBL+5,AL
         4 000624   777000 376007                    ANQ     -512,DL
         4 000625   362000 116007                    CMPQ    123904,DL
         4 000626   000631 601000 4                  TNZ     s:18122

      542    18121    2      THEN GR_ESC_IDX = K;

  18121  4 000627   200135 235100                    LDA     K,,AUTO
         4 000630   200137 755100                    STA     GR_ESC_IDX,,AUTO

      543    18122    2      IF (ASL_PRO_OPT_TBL.ORDR (K) = 219 /* L_GR_FPRG */)

  18122  4 000631   200135 235100                    LDA     K,,AUTO
         4 000632   000003 735000                    ALS     3
         4 000633   000005 236005 xsym               LDQ     ASL_PRO_OPT_TBL+5,AL
         4 000634   777000 376007                    ANQ     -512,DL
PL6.E3A0      #001=ASL$DISP_ONE_PROFILE File=ASL$L_PRO.:E05TSI                   TUE 07/29/97 10:26 Page:169
         4 000635   333000 116007                    CMPQ    112128,DL
         4 000636   000641 601000 4                  TNZ     s:18124

      544    18123    2      THEN GR_FPRG_IDX = K;

  18123  4 000637   200135 235100                    LDA     K,,AUTO
         4 000640   200140 755100                    STA     GR_FPRG_IDX,,AUTO

      545    18124    2      END;

  18124  4 000641   200135 235100                    LDA     K,,AUTO
         4 000642   000001 035007                    ADLA    1,DL
         4 000643   200135 755100                    STA     K,,AUTO
         4 000644   000431 115007                    CMPA    281,DL
         4 000645   000621 602000 4                  TNC     s:18120

      546    18125
      547    18126    2   IF JCL THEN DO;

  18126  4 000646   200004 470500                    LDP0    @JCL,,AUTO
         4 000647   000000 066500                    CMPB    filb='0'B
         4 000650   000000 000001                    BDSC    0,,PR0                   by=0,bit=0,n=1
         4 000651   000002 000022 xsym               BDSC    B_VECTNIL+2              by=0,bit=0,n=18
         4 000652   000703 600000 4                  TZE     s:18139

      548    18127    2      IF DSEG1$->PRO$HDR.DDEV.GRAPHICS_OK

  18127  4 000653   000000 471400 xsym               LDP1    DSEG1$
         4 000654   000000 066500                    CMPB    filb='0'B
         4 000655   100001 630001                    BDSC    1,,PR1                   by=3,bit=3,n=1
         4 000656   000002 000022 xsym               BDSC    B_VECTNIL+2              by=0,bit=0,n=18
         4 000657   000700 600000 4                  TZE     s:18136

      549    18128    3      THEN DO;

      550    18129    3         CALL ASD$GR_READ_PRO( USERS_KEY, GRA_BUF, G_ARS)

PL6.E3A0      #001=ASL$DISP_ONE_PROFILE File=ASL$L_PRO.:E05TSI                   TUE 07/29/97 10:26 Page:170
  18129  4 000660   200130 633500                    EPPR3   G_ARS,,AUTO
         4 000661   200370 453500                    STP3    TEMP+6,,AUTO
         4 000662   000014 237000 5                  LDAQ    12
         4 000663   200366 757100                    STAQ    TEMP+4,,AUTO
         4 000664   200366 630500                    EPPR0   TEMP+4,,AUTO
         4 000665   000021 631400 xsym               EPPR1   B_VECTNIL+17
         4 000666   000000 701000 xent               TSX1    ASD$GR_READ_PRO
         4 000667   000671 702000 4                  TSX2    s:18131
         4 000670   000676 710000 4                  TRA     s:18134

      551    18130    4         WHENALTRETURN DO;

      552    18131    4            CALL ASH$ERROR( E_NOGRAFND ) ;

  18131  4 000671   000016 630400 5                  EPPR0   14
         4 000672   000017 631400 xsym               EPPR1   B_VECTNIL+15
         4 000673   000000 701000 xent               TSX1    ASH$ERROR
         4 000674   000000 011000                    NOP     0

      553    18132    4            RETURN;

  18132  4 000675   000000 702200 xent               TSX2  ! X66_ARET

      554    18133    4            END;  /*  Whenaltret from ASD$GR_READ_PRO  */
      555    18134    3         GRA$ = ADDR( GRA_BUF ) ;

  18134  4 000676   000015 236000 5                  LDQ     13
         4 000677   200142 756100                    STQ     GRA$,,AUTO

      556    18135    3         END;  /*  Get graphics record  */

      557    18136    2      CALL BUILD_JCL_FMT;

  18136  4 000700   021552 701000 4                  TSX1    BUILD_JCL_FMT
         4 000701   000000 011000                    NOP     0

      558    18137    2      END;   /*  Jcl  */
PL6.E3A0      #001=ASL$DISP_ONE_PROFILE File=ASL$L_PRO.:E05TSI                   TUE 07/29/97 10:26 Page:171

  18137  4 000702   001144 710000 4                  TRA     s:18217

      559    18138    2   ELSE DO;

      560    18139    3      DO WHILE (ST_IDX <= GR_FPRG_IDX) ;

  18139  4 000703   200140 236100                    LDQ     GR_FPRG_IDX,,AUTO
         4 000704   000707 604000 4                  TMI     s:18140
         4 000705   200101 116100                    CMPQ    ST_IDX,,AUTO
         4 000706   000747 604000 4                  TMI     s:18154

      561    18140    3         FIELDS = 0 ;

  18140  4 000707   200103 450100                    STZ     FIELDS,,AUTO

      562    18141    3         CALL BUILD_HDR(HDR_LEN, GR_FPRG_IDX + 1); /* BUILD_HDR stops 1 early */

  18141  4 000710   200140 235100                    LDA     GR_FPRG_IDX,,AUTO
         4 000711   000001 035007                    ADLA    1,DL
         4 000712   200407 755100                    STA     TEMP+21,,AUTO
         4 000713   200407 630500                    EPPR0   TEMP+21,,AUTO
         4 000714   200156 450500                    STP0    CLASS+1,,AUTO
         4 000715   200100 631500                    EPPR1   HDR_LEN,,AUTO
         4 000716   200155 451500                    STP1    PTR$+2,,AUTO
         4 000717   001540 701000 4                  TSX1    BUILD_HDR
         4 000720   000000 011000                    NOP     0

      563    18142    3         IF FIELDS > 0

  18142  4 000721   200103 235100                    LDA     FIELDS,,AUTO
         4 000722   000741 604400 4                  TMOZ    s:18148

      564    18143    4         THEN DO;                 /* Some hdr was built. */

      565    18144    4            CALL ASB$WRITE_LO(' ',1) ;

PL6.E3A0      #001=ASL$DISP_ONE_PROFILE File=ASL$L_PRO.:E05TSI                   TUE 07/29/97 10:26 Page:172
  18144  4 000723   000007 630400 5                  EPPR0   7
         4 000724   000020 631400 xsym               EPPR1   B_VECTNIL+16
         4 000725   000000 701000 xent               TSX1    ASB$WRITE_LO
         4 000726   000000 011000                    NOP     0

      566    18145    4            CALL ASB$WRITE_LO(OUT_BUF,HDR_LEN) ; /* Put out hdr. */

  18145  4 000727   200100 630500                    EPPR0   HDR_LEN,,AUTO
         4 000730   200367 450500                    STP0    TEMP+5,,AUTO
         4 000731   000005 236000 5                  LDQ     5
         4 000732   200366 756100                    STQ     TEMP+4,,AUTO
         4 000733   200366 630500                    EPPR0   TEMP+4,,AUTO
         4 000734   000020 631400 xsym               EPPR1   B_VECTNIL+16
         4 000735   000000 701000 xent               TSX1    ASB$WRITE_LO
         4 000736   000000 011000                    NOP     0

      567    18146    4            CALL LIST_FIELDS ;

  18146  4 000737   001707 701000 4                  TSX1    LIST_FIELDS
         4 000740   000000 011000                    NOP     0

      568    18147    4            END ;                 /* Then do */

      569    18148    3         ST_IDX = NXT_IDX ;

  18148  4 000741   200102 235100                    LDA     NXT_IDX,,AUTO
         4 000742   200101 755100                    STA     ST_IDX,,AUTO

      570    18149    3         END ; /* Do while */

  18149  4 000743   200140 236100                    LDQ     GR_FPRG_IDX,,AUTO
         4 000744   000707 604000 4                  TMI     s:18140
         4 000745   200101 116100                    CMPQ    ST_IDX,,AUTO
         4 000746   000707 605000 4                  TPL     s:18140

      571    18150
      572    18151        /***
PL6.E3A0      #001=ASL$DISP_ONE_PROFILE File=ASL$L_PRO.:E05TSI                   TUE 07/29/97 10:26 Page:173
      573    18152         ***       Report the graphics fields.
      574    18153         ***/
      575    18154    2      DO_GRAPHIC = '0'B;

  18154  4 000747   200136 450100                    STZ     DO_GRAPHIC,,AUTO

      576    18155    3   GRAPHIC_CK: DO K = ST_IDX TO 280 /* L_PRO_END */ - 2;

  18155  4 000750   200101 235100       GRAPHIC_CK   LDA     ST_IDX,,AUTO
         4 000751   200135 755100                    STA     K,,AUTO
         4 000752   000767 710000 4                  TRA     s:18162+2

      577    18156    3         IF PRO_FLAGS (K)

  18156  4 000753   200135 235100                    LDA     K,,AUTO
         4 000754   000000 066405                    CMPB    filb='0'B
         4 000755   000046 000001 2                  BDSC    PRO_FLAGS,A              by=0,bit=0,n=1
         4 000756   000002 000022 xsym               BDSC    B_VECTNIL+2              by=0,bit=0,n=18
         4 000757   000765 600000 4                  TZE     s:18162

      578    18157    4         THEN DO;

      579    18158    4            DO_GRAPHIC = '1'B;

  18158  4 000760   400000 236003                    LDQ     -131072,DU
         4 000761   200136 756100                    STQ     DO_GRAPHIC,,AUTO

      580    18159    4            K = 280 /* L_PRO_END */;

  18159  4 000762   000430 235007                    LDA     280,DL
         4 000763   200135 755100                    STA     K,,AUTO

      581    18160    4            EXIT GRAPHIC_CK;

  18160  4 000764   000771 710000 4                  TRA     s:18163

      582    18161    4            END;
PL6.E3A0      #001=ASL$DISP_ONE_PROFILE File=ASL$L_PRO.:E05TSI                   TUE 07/29/97 10:26 Page:174
      583    18162    3         END GRAPHIC_CK;

  18162  4 000765   000001 035007                    ADLA    1,DL
         4 000766   200135 755100                    STA     K,,AUTO
         4 000767   000427 115007                    CMPA    279,DL
         4 000770   000753 602000 4                  TNC     s:18156

      584    18163    2      IF DO_GRAPHIC

  18163  4 000771   200136 234100                    SZN     DO_GRAPHIC,,AUTO
         4 000772   001113 605000 4                  TPL     s:18202

      585    18164    3      THEN DO;

      586    18165    3         IF DSEG1$->PRO$HDR.DDEV.GRAPHICS_OK

  18165  4 000773   000000 470400 xsym               LDP0    DSEG1$
         4 000774   000000 066500                    CMPB    filb='0'B
         4 000775   000001 630001                    BDSC    1,,PR0                   by=3,bit=3,n=1
         4 000776   000002 000022 xsym               BDSC    B_VECTNIL+2              by=0,bit=0,n=18
         4 000777   001062 600000 4                  TZE     s:18189

      587    18166    4         THEN DO;

      588    18167    4            CALL ASD$GR_READ_PRO( USERS_KEY, GRA_BUF, G_ARS) ALTRET(GRA_ERR) ;

  18167  4 001000   200130 631500                    EPPR1   G_ARS,,AUTO
         4 001001   200370 451500                    STP1    TEMP+6,,AUTO
         4 001002   000014 237000 5                  LDAQ    12
         4 001003   200366 757100                    STAQ    TEMP+4,,AUTO
         4 001004   200366 630500                    EPPR0   TEMP+4,,AUTO
         4 001005   000021 631400 xsym               EPPR1   B_VECTNIL+17
         4 001006   000000 701000 xent               TSX1    ASD$GR_READ_PRO
         4 001007   001114 702000 4                  TSX2    GRA_ERR

      589    18168    4            GRA$ = ADDR( GRA_BUF ) ;

PL6.E3A0      #001=ASL$DISP_ONE_PROFILE File=ASL$L_PRO.:E05TSI                   TUE 07/29/97 10:26 Page:175
  18168  4 001010   000015 236000 5                  LDQ     13
         4 001011   200142 756100                    STQ     GRA$,,AUTO

      590    18169    5            DO WHILE ( ST_IDX < 280 /* L_PRO_END */ ) ;

  18169  4 001012   200101 235100                    LDA     ST_IDX,,AUTO
         4 001013   000430 115007                    CMPA    280,DL
         4 001014   001113 605000 4                  TPL     s:18202

      591    18170    5               IF (ST_IDX ~= GR_ESC_IDX)

  18170  4 001015   200101 236100                    LDQ     ST_IDX,,AUTO
         4 001016   001021 604000 4                  TMI     s:18172
         4 001017   200137 116100                    CMPQ    GR_ESC_IDX,,AUTO
         4 001020   001053 600000 4                  TZE     s:18183

      592    18171    6               THEN DO;

      593    18172    6                  FIELDS = 0 ;

  18172  4 001021   200103 450100                    STZ     FIELDS,,AUTO

      594    18173    6                  CALL BUILD_HDR ( HDR_LEN, 280 /* L_PRO_END */-1 ) ;

  18173  4 001022   000020 236000 5                  LDQ     16
         4 001023   200156 756100                    STQ     CLASS+1,,AUTO
         4 001024   200100 630500                    EPPR0   HDR_LEN,,AUTO
         4 001025   200155 450500                    STP0    PTR$+2,,AUTO
         4 001026   001540 701000 4                  TSX1    BUILD_HDR
         4 001027   000000 011000                    NOP     0

      595    18174    6                  IF FIELDS > 0

  18174  4 001030   200103 235100                    LDA     FIELDS,,AUTO
         4 001031   001050 604400 4                  TMOZ    s:18180

      596    18175    7                  THEN DO;
PL6.E3A0      #001=ASL$DISP_ONE_PROFILE File=ASL$L_PRO.:E05TSI                   TUE 07/29/97 10:26 Page:176

      597    18176    7                     CALL ASB$WRITE_LO( ' ',1 );

  18176  4 001032   000007 630400 5                  EPPR0   7
         4 001033   000020 631400 xsym               EPPR1   B_VECTNIL+16
         4 001034   000000 701000 xent               TSX1    ASB$WRITE_LO
         4 001035   000000 011000                    NOP     0

      598    18177    7                     CALL ASB$WRITE_LO( OUT_BUF, HDR_LEN );

  18177  4 001036   200100 630500                    EPPR0   HDR_LEN,,AUTO
         4 001037   200367 450500                    STP0    TEMP+5,,AUTO
         4 001040   000005 236000 5                  LDQ     5
         4 001041   200366 756100                    STQ     TEMP+4,,AUTO
         4 001042   200366 630500                    EPPR0   TEMP+4,,AUTO
         4 001043   000020 631400 xsym               EPPR1   B_VECTNIL+16
         4 001044   000000 701000 xent               TSX1    ASB$WRITE_LO
         4 001045   000000 011000                    NOP     0

      599    18178    7                     CALL LIST_FIELDS ;

  18178  4 001046   001707 701000 4                  TSX1    LIST_FIELDS
         4 001047   000000 011000                    NOP     0

      600    18179    7                     END ;

      601    18180    6                  ST_IDX = NXT_IDX ;

  18180  4 001050   200102 235100                    LDA     NXT_IDX,,AUTO
         4 001051   200101 755100                    STA     ST_IDX,,AUTO

      602    18181    6                  END ;

  18181  4 001052   001057 710000 4                  TRA     s:18186

      603    18182    6               ELSE DO;

PL6.E3A0      #001=ASL$DISP_ONE_PROFILE File=ASL$L_PRO.:E05TSI                   TUE 07/29/97 10:26 Page:177
      604    18183    6                  CALL LIST_GR_ESCAPES;

  18183  4 001053   017007 701000 4                  TSX1    LIST_GR_ESCAPES
         4 001054   000000 011000                    NOP     0

      605    18184    6                  ST_IDX = NXT_IDX ;

  18184  4 001055   200102 235100                    LDA     NXT_IDX,,AUTO
         4 001056   200101 755100                    STA     ST_IDX,,AUTO

      606    18185    6                  END;

      607    18186    5               END;

  18186  4 001057   000430 115007                    CMPA    280,DL
         4 001060   001015 604000 4                  TMI     s:18170

      608    18187    4            END ;

  18187  4 001061   001113 710000 4                  TRA     s:18202

      609    18188    4         ELSE DO;

      610    18189    4            IF GR_FLAG = '0'B

  18189  4 001062   000171 234000 2                  SZN     GR_FLAG
         4 001063   001113 604000 4                  TMI     s:18202

      611    18190    5            THEN DO;

      612    18191    6               DO I = GR_FPRG_IDX+1 TO 280 /* L_PRO_END */-1 ;

  18191  4 001064   200140 236100                    LDQ     GR_FPRG_IDX,,AUTO
         4 001065   000001 036007                    ADLQ    1,DL
         4 001066   200133 756100                    STQ     I,,AUTO
         4 001067   001110 710000 4                  TRA     s:18198+3

PL6.E3A0      #001=ASL$DISP_ONE_PROFILE File=ASL$L_PRO.:E05TSI                   TUE 07/29/97 10:26 Page:178
      613    18192    6                  IF (PRO_FLAGS (I) AND

  18192  4 001070   200133 235100                    LDA     I,,AUTO
         4 001071   000000 066405                    CMPB    filb='0'B
         4 001072   000046 000001 2                  BDSC    PRO_FLAGS,A              by=0,bit=0,n=1
         4 001073   000002 000022 xsym               BDSC    B_VECTNIL+2              by=0,bit=0,n=18
         4 001074   001105 600000 4                  TZE     s:18198
         4 001075   000427 115007                    CMPA    279,DL
         4 001076   001105 600000 4                  TZE     s:18198

      614    18193    6                       (I ~= 279 /* L_FUNCTION_KEY */) )
      615    18194    7                  THEN DO;

      616    18195    7                     I = 280 /* L_PRO_END */ ;

  18195  4 001077   000430 236007                    LDQ     280,DL
         4 001100   200133 756100                    STQ     I,,AUTO

      617    18196    7                     CALL ASH$ERROR( E_NOGRAREC ) ;

  18196  4 001101   000021 630400 5                  EPPR0   17
         4 001102   000017 631400 xsym               EPPR1   B_VECTNIL+15
         4 001103   000000 701000 xent               TSX1    ASH$ERROR
         4 001104   000000 011000                    NOP     0

      618    18197    7                     END ;

      619    18198    6                  END ;

  18198  4 001105   200133 235100                    LDA     I,,AUTO
         4 001106   000001 035007                    ADLA    1,DL
         4 001107   200133 755100                    STA     I,,AUTO
         4 001110   200133 235100                    LDA     I,,AUTO
         4 001111   000430 115007                    CMPA    280,DL
         4 001112   001070 602000 4                  TNC     s:18192

      620    18199    5               END;
PL6.E3A0      #001=ASL$DISP_ONE_PROFILE File=ASL$L_PRO.:E05TSI                   TUE 07/29/97 10:26 Page:179

      621    18200    4            END;

      622    18201    3         END; /* If DO_GRAPHIC */

      623    18202    3      DO WHILE ('0'B);

  18202  4 001113   001120 710000 4                  TRA     s:18208

  18195  4 001114                       GRA_ERR      null
      624    18203    3   GRA_ERR: ;
      625    18204    3         CALL ASH$ERROR( E_NOGRAFND ) ;

  18204  4 001114   000016 630400 5                  EPPR0   14
         4 001115   000017 631400 xsym               EPPR1   B_VECTNIL+15
         4 001116   000000 701000 xent               TSX1    ASH$ERROR
         4 001117   000000 011000                    NOP     0

      626    18205    3         END ;

      627    18206
      628    18207                                                /* Done with this profile.            */
      629    18208    2      CALL ASB$WRITE_LO(' ',1) ;   /* Blank line.*/

  18208  4 001120   000007 630400 5                  EPPR0   7
         4 001121   000020 631400 xsym               EPPR1   B_VECTNIL+16
         4 001122   000000 701000 xent               TSX1    ASB$WRITE_LO
         4 001123   000000 011000                    NOP     0

      630    18209    2      IF (PRO_FLAGS (279 /* L_FUNCTION_KEY */))

  18209  4 001124   000055 236000 2                  LDQ     PRO_FLAGS+7
         4 001125   000400 316007                    CANQ    256,DL
         4 001126   001135 600000 4                  TZE     s:18214

      631    18210    3      THEN DO;

PL6.E3A0      #001=ASL$DISP_ONE_PROFILE File=ASL$L_PRO.:E05TSI                   TUE 07/29/97 10:26 Page:180
      632    18211    3         CALL LIST_FUNKEY_DEFS;

  18211  4 001127   017500 701000 4                  TSX1    LIST_FUNKEY_DEFS
         4 001130   000000 011000                    NOP     0

      633    18212    3         CALL ASB$WRITE_LO(' ',1) ;   /* Blank line.*/

  18212  4 001131   000007 630400 5                  EPPR0   7
         4 001132   000020 631400 xsym               EPPR1   B_VECTNIL+16
         4 001133   000000 701000 xent               TSX1    ASB$WRITE_LO
         4 001134   000000 011000                    NOP     0

      634    18213    3         END;

      635    18214    2      CALL ASB$WRITE_LO(' ',1) ;   /* Blank line.                        */

  18214  4 001135   000007 630400 5                  EPPR0   7
         4 001136   000020 631400 xsym               EPPR1   B_VECTNIL+16
         4 001137   000000 701000 xent               TSX1    ASB$WRITE_LO
         4 001140   000000 011000                    NOP     0

      636    18215    2      CALL ASB$PAGE_LO ;           /* Page eject.                        */

  18215  4 001141   000002 631400 xsym               EPPR1   B_VECTNIL+2
         4 001142   000000 701000 xent               TSX1    ASB$PAGE_LO
         4 001143   000000 011000                    NOP     0

      637    18216    2      END; /*  Not jcl  */

      638    18217    1   RETURN ;

  18217  4 001144   000000 702200 xent               TSX2  ! X66_ARET

      639    18218        %EJECT ;
PL6.E3A0      #001=ASL$DISP_ONE_PROFILE File=ASL$L_PRO.:E05TSI                   TUE 07/29/97 10:26 Page:181
      640    18219    1   ASL$LIST_PRO_OPTS: ENTRY (P_ARS,JCL);

  18219  4 001145   000000 700200 xent  ASL$LIST_PR* TSX0  ! X66_AUTO_2
         4 001146   000410 000002                    ZERO    264,2

      641    18220        /********************************************************************/
      642    18221        /*   Procedure       procedure       procedure       procedure      */
      643    18222        /********************************************************************/
      644    18223    1   PHDR$ = DSEG1$ ;

  18223  4 001147   000000 236000 xsym               LDQ     DSEG1$
         4 001150   200141 756100                    STQ     PHDR$,,AUTO

      645    18224    1   CODE = PHDR$ -> PRO$HDR.TTYP ;

  18224  4 001151   200141 470500                    LDP0    PHDR$,,AUTO
         4 001152   000000 101500                    MRL     fill='000'O
         4 001153   000000 000001                    ADSC9   0,,PR0                   cn=0,n=1
         4 001154   000000 000004 xsym               ADSC9   CODE                     cn=0,n=4

      646    18225    2   DO SELECT( CODE ) ;

  18225  4 001155   000000 236000 xsym               LDQ     CODE
         4 001156   000004 116007                    CMPQ    4,DL
         4 001157   001175 602000 4                  TNC     s:18225+16
         4 001160   001222 600000 4                  TZE     s:18233
         4 001161   000010 116007                    CMPQ    8,DL
         4 001162   001172 602000 4                  TNC     s:18225+13
         4 001163   001226 600000 4                  TZE     s:18236
         4 001164   000012 116007                    CMPQ    10,DL
         4 001165   001245 602000 4                  TNC     s:18244
         4 001166   001236 600000 4                  TZE     s:18240
         4 001167   000016 116007                    CMPQ    14,DL
         4 001170   001245 601000 4                  TNZ     s:18244
         4 001171   001242 710000 4                  TRA     s:18242
         4 001172   000006 116007                    CMPQ    6,DL
         4 001173   001245 601000 4                  TNZ     s:18244
PL6.E3A0      #001=ASL$DISP_ONE_PROFILE File=ASL$L_PRO.:E05TSI                   TUE 07/29/97 10:26 Page:182
         4 001174   001232 710000 4                  TRA     s:18238
         4 001175   000002 116007                    CMPQ    2,DL
         4 001176   001203 602000 4                  TNC     s:18225+22
         4 001177   001206 600000 4                  TZE     s:18227
         4 001200   000003 116007                    CMPQ    3,DL
         4 001201   001245 601000 4                  TNZ     s:18244
         4 001202   001216 710000 4                  TRA     s:18231
         4 001203   000001 116007                    CMPQ    1,DL
         4 001204   001245 601000 4                  TNZ     s:18244
         4 001205   001212 710000 4                  TRA     s:18229

      647    18226    2      SELECT(%KLTY_TTY#) ;

      648    18227    2      PRO_TYP = ASL_ASYNC_TYP ;

  18227  4 001206   000000 236000 xsym               LDQ     ASL_ASYNC_TYP
         4 001207   777000 376003                    ANQ     -512,DU
         4 001210   000572 756000 2                  STQ     PRO_TYP
         4 001211   001245 710000 4                  TRA     s:18244

      649    18228    2      SELECT(%KLTY_SDEV#) ;

      650    18229    2      PRO_TYP = ASL_RBTD_TYP ;

  18229  4 001212   000000 236000 xsym               LDQ     ASL_RBTD_TYP
         4 001213   777000 376003                    ANQ     -512,DU
         4 001214   000572 756000 2                  STQ     PRO_TYP
         4 001215   001245 710000 4                  TRA     s:18244

      651    18230    2      SELECT(%KLTY_STRM#) ;

      652    18231    2      PRO_TYP = ASL_RBT_TYP ;

  18231  4 001216   000000 236000 xsym               LDQ     ASL_RBT_TYP
         4 001217   777000 376003                    ANQ     -512,DU
         4 001220   000572 756000 2                  STQ     PRO_TYP
         4 001221   001245 710000 4                  TRA     s:18244
PL6.E3A0      #001=ASL$DISP_ONE_PROFILE File=ASL$L_PRO.:E05TSI                   TUE 07/29/97 10:26 Page:183

      653    18232    2      SELECT( %KLTY_LINK# );

      654    18233    2      PRO_TYP = ASL_LINK_TYP ;

  18233  4 001222   000000 236000 xsym               LDQ     ASL_LINK_TYP
         4 001223   777000 376003                    ANQ     -512,DU
         4 001224   000572 756000 2                  STQ     PRO_TYP
         4 001225   001245 710000 4                  TRA     s:18244

      655    18234
      656    18235    2      SELECT( %KLTY_VIRCIR# );

      657    18236    2      PRO_TYP = ASL_VIRCIR_TYP ;

  18236  4 001226   000000 236000 xsym               LDQ     ASL_VIRCIR_TYP
         4 001227   777000 376003                    ANQ     -512,DU
         4 001230   000572 756000 2                  STQ     PRO_TYP
         4 001231   001245 710000 4                  TRA     s:18244

      658    18237    2      SELECT(%KLTY_URP#);

      659    18238    2      PRO_TYP = ASL_URP_TYP ;

  18238  4 001232   000000 236000 xsym               LDQ     ASL_URP_TYP
         4 001233   777000 376003                    ANQ     -512,DU
         4 001234   000572 756000 2                  STQ     PRO_TYP
         4 001235   001245 710000 4                  TRA     s:18244

      660    18239    2      SELECT(%KLTY_LINEDEV#);

      661    18240    2      PRO_TYP = ASL_3270_TYP;

  18240  4 001236   000000 236000 xsym               LDQ     ASL_3270_TYP
         4 001237   777000 376003                    ANQ     -512,DU
         4 001240   000572 756000 2                  STQ     PRO_TYP
         4 001241   001245 710000 4                  TRA     s:18244
PL6.E3A0      #001=ASL$DISP_ONE_PROFILE File=ASL$L_PRO.:E05TSI                   TUE 07/29/97 10:26 Page:184

      662    18241    2      SELECT(%KLTY_HIP_DEV#);

      663    18242    2      PRO_TYP = ASL_POLLVIP_TYP;

  18242  4 001242   000000 236000 xsym               LDQ     ASL_POLLVIP_TYP
         4 001243   777000 376003                    ANQ     -512,DU
         4 001244   000572 756000 2                  STQ     PRO_TYP

      664    18243    2      END ;                          /* Do case                            */

      665    18244    1   GR_FLAG = '0'B ;

  18244  4 001245   000171 450000 2                  STZ     GR_FLAG

      666    18245    1   PRO_FLAGS = '0'B;

  18245  4 001246   003000 060400                    CSL     bolr='003'O
         4 001247   000002 000001 xsym               BDSC    B_VECTNIL+2              by=0,bit=0,n=1
         4 001250   000046 000431 2                  BDSC    PRO_FLAGS                by=0,bit=0,n=281

      667    18246    1   MORE = '1'B;

  18246  4 001251   400000 236003                    LDQ     -131072,DU
         4 001252   200131 756100                    STQ     MORE,,AUTO

      668    18247    1   REMEMBER LIST1 IN REMEM_VAR ;

  18247  4 001253   001263 635000 4                  EAA     LIST1
         4 001254   000000 452400 xsym               STP2    REMEM_VAR
         4 001255   000001 755000 xsym               STA     REMEM_VAR+1

      669    18248    1   IF JCL THEN GOTO DO_ALL;

  18248  4 001256   200004 471500                    LDP1    @JCL,,AUTO
         4 001257   000000 066500                    CMPB    filb='0'B
         4 001260   100000 000001                    BDSC    0,,PR1                   by=0,bit=0,n=1
PL6.E3A0      #001=ASL$DISP_ONE_PROFILE File=ASL$L_PRO.:E05TSI                   TUE 07/29/97 10:26 Page:185
         4 001261   000002 000022 xsym               BDSC    B_VECTNIL+2              by=0,bit=0,n=18
         4 001262   001365 601000 4                  TNZ     DO_ALL

      670    18249    1   LIST1: P_PCB.ROOT$ = ADDR(LIST_PRO_S_OPT);

  18249  4 001263   000022 236000 5     LIST1        LDQ     18
         4 001264   000001 756000 xsym               STQ     P_PCB+1

      671    18250    2   DO WHILE(MORE);

  18250  4 001265   200131 234100                    SZN     MORE,,AUTO
         4 001266   001512 605000 4                  TPL     s:18297

      672    18251                                                /*  Set prompt                        */
      673    18252    2      CALL ASB$SET_PROMPT ( %PROMPT_OPT ) ;

  18252  4 001267   000010 630400 5                  EPPR0   8
         4 001270   000017 631400 xsym               EPPR1   B_VECTNIL+15
         4 001271   000000 701000 xent               TSX1    ASB$SET_PROMPT
         4 001272   000000 011000                    NOP     0

      674    18253    2      CALL ASB$READ_SI(IN_BUF,ARS);

  18253  4 001273   200127 630500                    EPPR0   ARS,,AUTO
         4 001274   200367 450500                    STP0    TEMP+5,,AUTO
         4 001275   000023 236000 5                  LDQ     19
         4 001276   200366 756100                    STQ     TEMP+4,,AUTO
         4 001277   200366 630500                    EPPR0   TEMP+4,,AUTO
         4 001300   000020 631400 xsym               EPPR1   B_VECTNIL+16
         4 001301   000000 701000 xent               TSX1    ASB$READ_SI
         4 001302   000000 011000                    NOP     0

      675    18254    2      P_PCB.NCHARS = ARS;

  18254  4 001303   200127 235100                    LDA     ARS,,AUTO
         4 001304   000011 755000 xsym               STA     P_PCB+9

PL6.E3A0      #001=ASL$DISP_ONE_PROFILE File=ASL$L_PRO.:E05TSI                   TUE 07/29/97 10:26 Page:186
      676    18255    2      CALL X$PARSE(P_PCB) ALTRET(PARSE_ALT);

  18255  4 001305   000024 630400 5                  EPPR0   20
         4 001306   000017 631400 xsym               EPPR1   B_VECTNIL+15
         4 001307   000000 701000 xent               TSX1    X$PARSE
         4 001310   001504 702000 4                  TSX2    PARSE_ALT

      677    18256    2      NODE$ = P_PCB.OUT$ ;

  18256  4 001311   000003 236000 xsym               LDQ     P_PCB+3
         4 001312   000000 756000 xsym               STQ     NODE$

      678    18257    3      DO SELECT(P$B.SUBLK$(0)->P$B.CODE);

  18257  4 001313   000003 470400 xsym               LDP0    P_PCB+3
         4 001314   000003 471500                    LDP1    3,,PR0
         4 001315   100000 236100                    LDQ     0,,PR1
         4 001316   777777 376007                    ANQ     -1,DL
         4 001317   000037 116007                    CMPQ    31,DL
         4 001320   001335 602000 4                  TNC     s:18257+18
         4 001321   001343 600000 4                  TZE     s:18261
         4 001322   000455 116007                    CMPQ    301,DL
         4 001323   001331 602000 4                  TNC     s:18257+14
         4 001324   001474 600000 4                  TZE     s:18288
         4 001325   100000 720100                    LXL0    0,,PR1
         4 001326   000456 100003                    CMPX0   302,DU
         4 001327   001503 601000 4                  TNZ     s:18292
         4 001330   001470 710000 4                  TRA     s:18286
         4 001331   100000 720100                    LXL0    0,,PR1
         4 001332   000454 100003                    CMPX0   300,DU
         4 001333   001503 601000 4                  TNZ     s:18292
         4 001334   001500 710000 4                  TRA     s:18290
         4 001335   100000 720100                    LXL0    0,,PR1
         4 001336   000032 100003                    CMPX0   26,DU
         4 001337   001503 601000 4                  TNZ     s:18292
         4 001340   001341 710000 4                  TRA     s:18259

PL6.E3A0      #001=ASL$DISP_ONE_PROFILE File=ASL$L_PRO.:E05TSI                   TUE 07/29/97 10:26 Page:187
      679    18258    3         SELECT(26   /*  BLANK_LINE_VAL */);

      680    18259    3         MORE = '0'B;

  18259  4 001341   200131 450100                    STZ     MORE,,AUTO
         4 001342   001503 710000 4                  TRA     s:18292

      681    18260    3         SELECT(31 /* LIST_PRO_OPTIONS */);

      682    18261    3         I = 0;

  18261  4 001343   200133 450100                    STZ     I,,AUTO

      683    18262    4         DO WHILE(MORE AND I<P$B.SUBLK$(0)->P$B.NSUBLKS);

  18262  4 001344   001456 710000 4                  TRA     s:18284

      684    18263    4            ND$ = P$B.SUBLK$(0)->P$B.SUBLK$(I);

  18263  4 001345   000003 470400 xsym               LDP0    P_PCB+3
         4 001346   000003 471500                    LDP1    3,,PR0
         4 001347   200133 720100                    LXL0    I,,AUTO
         4 001350   100003 236110                    LDQ     3,X0,PR1
         4 001351   200132 756100                    STQ     ND$,,AUTO

      685    18264    5            DO SELECT(ND$->P$B.CODE);

  18264  4 001352   200132 473500                    LDP3    ND$,,AUTO
         4 001353   300000 236100                    LDQ     0,,PR3
         4 001354   777777 376007                    ANQ     -1,DL
         4 001355   000431 116007                    CMPQ    281,DL
         4 001356   001361 602000 4                  TNC     s:18264+7
         4 001357   001365 600000 4                  TZE     DO_ALL
         4 001360   001423 710000 4                  TRA     s:18277
         4 001361   300000 721100                    LXL1    0,,PR3
         4 001362   000430 101003                    CMPX1   280,DU
         4 001363   001423 601000 4                  TNZ     s:18277
PL6.E3A0      #001=ASL$DISP_ONE_PROFILE File=ASL$L_PRO.:E05TSI                   TUE 07/29/97 10:26 Page:188
         4 001364   001421 710000 4                  TRA     s:18275

      686    18265    5               SELECT( 281 /* L_PRO_ALL */ ) ;

      687    18266    5   DO_ALL:
      688    18267    5               GR_FLAG = '1'B ;

  18267  4 001365   400000 236003       DO_ALL       LDQ     -131072,DU
         4 001366   000171 756000 2                  STQ     GR_FLAG

      689    18268    6               DO J = 0 TO 280 /* L_PRO_END */ ;

  18268  4 001367   200134 450100                    STZ     J,,AUTO

      690    18269    6                  IF PRO_TYP = (ASL_PRO_OPT_TBL.TYP(J) & PRO_TYP)

  18269  4 001370   000572 236000 2                  LDQ     PRO_TYP
         4 001371   777000 376003                    ANQ     -512,DU
         4 001372   200366 756100                    STQ     TEMP+4,,AUTO
         4 001373   200134 235100                    LDA     J,,AUTO
         4 001374   000003 735000                    ALS     3
         4 001375   000005 236005 xsym               LDQ     ASL_PRO_OPT_TBL+5,AL
         4 001376   000011 736000                    QLS     9
         4 001377   777000 376003                    ANQ     -512,DU
         4 001400   200366 376100                    ANQ     TEMP+4,,AUTO
         4 001401   200367 756100                    STQ     TEMP+5,,AUTO
         4 001402   000100 106400                    CMPC    fill='000'O
         4 001403   000572 000001 2                  ADSC9   PRO_TYP                  cn=0,n=1
         4 001404   200367 000004                    ADSC9   TEMP+5,,AUTO             cn=0,n=4
         4 001405   001412 601000 4                  TNZ     s:18272

      691    18270    6                  THEN
      692    18271    6                     PRO_FLAGS(J) = '1'B ;

  18271  4 001406   200134 236100                    LDQ     J,,AUTO
         4 001407   003006 060400                    CSL     bolr='003'O
         4 001410   000030 000001 xsym               BDSC    B_VECTNIL+24             by=0,bit=0,n=1
PL6.E3A0      #001=ASL$DISP_ONE_PROFILE File=ASL$L_PRO.:E05TSI                   TUE 07/29/97 10:26 Page:189
         4 001411   000046 000001 2                  BDSC    PRO_FLAGS,Q              by=0,bit=0,n=1

      693    18272    6                  END ;            /* Do j                               */

  18272  4 001412   200134 236100                    LDQ     J,,AUTO
         4 001413   000001 036007                    ADLQ    1,DL
         4 001414   200134 756100                    STQ     J,,AUTO
         4 001415   000431 116007                    CMPQ    281,DL
         4 001416   001370 602000 4                  TNC     s:18269

      694    18273    5               MORE = '0'B ;

  18273  4 001417   200131 450100                    STZ     MORE,,AUTO
         4 001420   001453 710000 4                  TRA     s:18283

      695    18274    5               SELECT( 280 /* L_PRO_END */ ) ;

      696    18275    5               MORE = '0'B ;

  18275  4 001421   200131 450100                    STZ     MORE,,AUTO
         4 001422   001453 710000 4                  TRA     s:18283

      697    18276    5               SELECT( ELSE ) ;

      698    18277    5            IF PRO_TYP = (ASL_PRO_OPT_TBL.TYP(ND$->P$B.CODE) & PRO_TYP)

  18277  4 001423   000003 736000                    QLS     3
         4 001424   000000 621006                    EAX1    0,QL
         4 001425   000572 236000 2                  LDQ     PRO_TYP
         4 001426   777000 376003                    ANQ     -512,DU
         4 001427   200366 756100                    STQ     TEMP+4,,AUTO
         4 001430   000005 236011 xsym               LDQ     ASL_PRO_OPT_TBL+5,X1
         4 001431   000011 736000                    QLS     9
         4 001432   777000 376003                    ANQ     -512,DU
         4 001433   200366 376100                    ANQ     TEMP+4,,AUTO
         4 001434   200367 756100                    STQ     TEMP+5,,AUTO
         4 001435   000100 106400                    CMPC    fill='000'O
PL6.E3A0      #001=ASL$DISP_ONE_PROFILE File=ASL$L_PRO.:E05TSI                   TUE 07/29/97 10:26 Page:190
         4 001436   000572 000001 2                  ADSC9   PRO_TYP                  cn=0,n=1
         4 001437   200367 000004                    ADSC9   TEMP+5,,AUTO             cn=0,n=4
         4 001440   001447 601000 4                  TNZ     s:18281

      699    18278    5            THEN
      700    18279    5               PRO_FLAGS(ND$->P$B.CODE) = '1'B ;

  18279  4 001441   300000 236100                    LDQ     0,,PR3
         4 001442   777777 376007                    ANQ     -1,DL
         4 001443   003006 060400                    CSL     bolr='003'O
         4 001444   000030 000001 xsym               BDSC    B_VECTNIL+24             by=0,bit=0,n=1
         4 001445   000046 000001 2                  BDSC    PRO_FLAGS,Q              by=0,bit=0,n=1
         4 001446   001453 710000 4                  TRA     s:18283

      701    18280    5            ELSE
      702    18281    5               CALL ASH$ERROR( E_BADLSTPROOPT ) ;

  18281  4 001447   000025 630400 5                  EPPR0   21
         4 001450   000017 631400 xsym               EPPR1   B_VECTNIL+15
         4 001451   000000 701000 xent               TSX1    ASH$ERROR
         4 001452   000000 011000                    NOP     0

      703    18282    5               END ;                 /* Do case                            */

      704    18283    4         I = I + 1 ;

  18283  4 001453   200133 235100                    LDA     I,,AUTO
         4 001454   000001 035007                    ADLA    1,DL
         4 001455   200133 755100                    STA     I,,AUTO

      705    18284    4            END ;                  /* Do while                           */

  18284  4 001456   200131 234100                    SZN     MORE,,AUTO
         4 001457   001467 605000 4                  TPL     s:18284+9
         4 001460   000003 470400 xsym               LDP0    P_PCB+3
         4 001461   000003 471500                    LDP1    3,,PR0
         4 001462   100001 236100                    LDQ     1,,PR1
PL6.E3A0      #001=ASL$DISP_ONE_PROFILE File=ASL$L_PRO.:E05TSI                   TUE 07/29/97 10:26 Page:191
         4 001463   000022 772000                    QRL     18
         4 001464   200133 116100                    CMPQ    I,,AUTO
         4 001465   001467 600000 4                  TZE     s:18284+9
         4 001466   001345 603000 4                  TRC     s:18263
         4 001467   001503 710000 4                  TRA     s:18292

      706    18285    3         SELECT( 302 /* HELP_VAL */ );

      707    18286    3         CALL ASH$HELP;

  18286  4 001470   000002 631400 xsym               EPPR1   B_VECTNIL+2
         4 001471   000000 701000 xent               TSX1    ASH$HELP
         4 001472   000000 011000                    NOP     0
         4 001473   001503 710000 4                  TRA     s:18292

      708    18287    3         SELECT( 301 /* QUESTION_VAL */ );

      709    18288    3         CALL ASH$QUEST;

  18288  4 001474   000002 631400 xsym               EPPR1   B_VECTNIL+2
         4 001475   000000 701000 xent               TSX1    ASH$QUEST
         4 001476   000000 011000                    NOP     0
         4 001477   001503 710000 4                  TRA     s:18292

      710    18289    3         SELECT( 300 /* DQUESTION_VAL */ );

      711    18290    3         CALL ASH$DQUEST;

  18290  4 001500   000002 631400 xsym               EPPR1   B_VECTNIL+2
         4 001501   000000 701000 xent               TSX1    ASH$DQUEST
         4 001502   000000 011000                    NOP     0

      712    18291    3         END ;                       /* Do case                            */

      713    18292    3      DO WHILE('0'B) ;

  18292  4 001503   001510 710000 4                  TRA     s:18296
PL6.E3A0      #001=ASL$DISP_ONE_PROFILE File=ASL$L_PRO.:E05TSI                   TUE 07/29/97 10:26 Page:192

  18281  4 001504                       PARSE_ALT    null
      714    18293    3   PARSE_ALT: ;
      715    18294    3         CALL ASH$ERROR( P_PCB.ERROR );

  18294  4 001504   000026 630400 5                  EPPR0   22
         4 001505   000017 631400 xsym               EPPR1   B_VECTNIL+15
         4 001506   000000 701000 xent               TSX1    ASH$ERROR
         4 001507   000000 011000                    NOP     0

      716    18295    3         END ;                     /* Do while                           */

      717    18296    2      END ;                        /* Do while                           */

  18296  4 001510   200131 234100                    SZN     MORE,,AUTO
         4 001511   001267 604000 4                  TMI     s:18252

      718    18297    1   IF JCL AND NOT PHDR$->PRO$HDR.DDEV.GRAPHICS_OK THEN

  18297  4 001512   200004 470500                    LDP0    @JCL,,AUTO
         4 001513   000000 066500                    CMPB    filb='0'B
         4 001514   000000 000001                    BDSC    0,,PR0                   by=0,bit=0,n=1
         4 001515   000002 000022 xsym               BDSC    B_VECTNIL+2              by=0,bit=0,n=18
         4 001516   001537 600000 4                  TZE     s:18302
         4 001517   200141 471500                    LDP1    PHDR$,,AUTO
         4 001520   000000 066500                    CMPB    filb='0'B
         4 001521   100001 630001                    BDSC    1,,PR1                   by=3,bit=3,n=1
         4 001522   000002 000022 xsym               BDSC    B_VECTNIL+2              by=0,bit=0,n=18
         4 001523   001537 601000 4                  TNZ     s:18302

      719    18298    2   DO I = (219 /* L_GR_FPRG */+1) TO (279 /* L_FUNCTION_KEY */-1);

  18298  4 001524   000334 235007                    LDA     220,DL
         4 001525   200133 755100                    STA     I,,AUTO
         4 001526   001535 710000 4                  TRA     s:18300+2

      720    18299    2      PRO_FLAGS(I) = %NO#;
PL6.E3A0      #001=ASL$DISP_ONE_PROFILE File=ASL$L_PRO.:E05TSI                   TUE 07/29/97 10:26 Page:193

  18299  4 001527   200133 235100                    LDA     I,,AUTO
         4 001530   003005 060400                    CSL     bolr='003'O
         4 001531   000002 000001 xsym               BDSC    B_VECTNIL+2              by=0,bit=0,n=1
         4 001532   000046 000001 2                  BDSC    PRO_FLAGS,A              by=0,bit=0,n=1

      721    18300    2      END;  /*  Do i  */

  18300  4 001533   000001 035007                    ADLA    1,DL
         4 001534   200133 755100                    STA     I,,AUTO
         4 001535   000427 115007                    CMPA    279,DL
         4 001536   001527 602000 4                  TNC     s:18299

      722    18301                                                /**/
      723    18302    1   RETURN ;

  18302  4 001537   000000 702200 xent               TSX2  ! X66_ARET

      724    18303        %EJECT ;
PL6.E3A0      #001=ASL$DISP_ONE_PROFILE File=ASL$L_PRO.:E05TSI                   TUE 07/29/97 10:26 Page:194
      725    18304    1   BUILD_HDR: PROC(HDR_LEN, CMP_CNT) ;

  18304  4 001540   200154 741300       BUILD_HDR    STX1  ! PTR$+1,,AUTO

      726    18305    2   DCL HDR_LEN SBIN ;
      727    18306    2   DCL CMP_CNT SBIN ;
      728    18307    2   DCL CUR_IDX SBIN ;
      729    18308    2   DCL MORE BIT(1) ALIGNED ;
      730    18309    2   DCL NEXT UBIN WORD ;
      731    18310    2   CUR_IDX = ST_IDX ;

  18310  4 001541   200101 235100                    LDA     ST_IDX,,AUTO
         4 001542   200157 755100                    STA     CUR_IDX,,AUTO

      732    18311    2   CALL INSERT(OUT_BUF,0,3,' ') ;

  18311  4 001543   000027 236000 5                  LDQ     23
         4 001544   000000 552070 xsym               STBQ    OUT_BUF,'70'O

      733    18312    2   HDR_LEN = 3 ;

  18312  4 001545   000003 235007                    LDA     3,DL
         4 001546   200155 470500                    LDP0    @HDR_LEN,,AUTO
         4 001547   000000 755100                    STA     0,,PR0

      734    18313    2   MORE = '1'B ;

  18313  4 001550   400000 236003                    LDQ     -131072,DU
         4 001551   200160 756100                    STQ     MORE,,AUTO

      735    18314    3   DO WHILE(MORE) ;

  18314  4 001552   200160 234100                    SZN     MORE,,AUTO
         4 001553   001674 605000 4                  TPL     s:18346

      736    18315    3      NEXT = ASL_PRO_OPT_TBL.ORDR( CUR_IDX ) ;

PL6.E3A0      #001=ASL$DISP_ONE_PROFILE File=ASL$L_PRO.:E05TSI                   TUE 07/29/97 10:26 Page:195
  18315  4 001554   200157 235100                    LDA     CUR_IDX,,AUTO
         4 001555   000003 735000                    ALS     3
         4 001556   000005 236005 xsym               LDQ     ASL_PRO_OPT_TBL+5,AL
         4 001557   000011 772000                    QRL     9
         4 001560   000777 376007                    ANQ     511,DL
         4 001561   200161 756100                    STQ     NEXT,,AUTO

      737    18316    4      DO WHILE ((NEXT < CMP_CNT) AND

  18316  4 001562   001572 710000 4                  TRA     s:18321

      738    18317    4           ((~ PRO_FLAGS (NEXT)) OR
      739    18318    4           (ASL_PRO_OPT_TBL.LEN (NEXT) = 0)));
      740    18319    4         CUR_IDX = CUR_IDX + 1 ;

  18319  4 001563   200157 054100                    AOS     CUR_IDX,,AUTO

      741    18320    4         NEXT = ASL_PRO_OPT_TBL.ORDR(CUR_IDX) ;

  18320  4 001564   200157 235100                    LDA     CUR_IDX,,AUTO
         4 001565   000003 735000                    ALS     3
         4 001566   000005 236005 xsym               LDQ     ASL_PRO_OPT_TBL+5,AL
         4 001567   000011 772000                    QRL     9
         4 001570   000777 376007                    ANQ     511,DL
         4 001571   200161 756100                    STQ     NEXT,,AUTO

      742    18321    4         END ;                     /* Do while                           */

  18321  4 001572   200156 470500                    LDP0    @CMP_CNT,,AUTO
         4 001573   001611 604000 4                  TMI     s:18322
         4 001574   000000 116100                    CMPQ    0,,PR0
         4 001575   001611 605000 4                  TPL     s:18322
         4 001576   003100 060406                    CSL     bolr='003'O
         4 001577   000046 000001 2                  BDSC    PRO_FLAGS,Q              by=0,bit=0,n=1
         4 001600   200366 000044                    BDSC    TEMP+4,,AUTO             by=0,bit=0,n=36
         4 001601   200366 236100                    LDQ     TEMP+4,,AUTO
         4 001602   400000 676003                    ERQ     -131072,DU
PL6.E3A0      #001=ASL$DISP_ONE_PROFILE File=ASL$L_PRO.:E05TSI                   TUE 07/29/97 10:26 Page:196
         4 001603   001563 601000 4                  TNZ     s:18319
         4 001604   200161 236100                    LDQ     NEXT,,AUTO
         4 001605   000003 736000                    QLS     3
         4 001606   000000 236006 xsym               LDQ     ASL_PRO_OPT_TBL,QL
         4 001607   777000 316003                    CANQ    -512,DU
         4 001610   001563 600000 4                  TZE     s:18319

      743    18322    3      IF (CUR_IDX = GR_ESC_IDX)

  18322  4 001611   200157 236100                    LDQ     CUR_IDX,,AUTO
         4 001612   001620 604000 4                  TMI     s:18327
         4 001613   200137 116100                    CMPQ    GR_ESC_IDX,,AUTO
         4 001614   001620 601000 4                  TNZ     s:18327

      744    18323    4      THEN DO;

      745    18324    4         NXT_IDX = CUR_IDX;

  18324  4 001615   200102 756100                    STQ     NXT_IDX,,AUTO

      746    18325    4         RETURN;

  18325  4 001616   200154 221300                    LDX1  ! PTR$+1,,AUTO
         4 001617   000001 702211                    TSX2  ! 1,X1

      747    18326    4         END;
      748    18327    3      IF NEXT < CMP_CNT

  18327  4 001620   200161 236100                    LDQ     NEXT,,AUTO
         4 001621   001671 604000 4                  TMI     s:18344
         4 001622   000000 116100                    CMPQ    0,,PR0
         4 001623   001671 605000 4                  TPL     s:18344

      749    18328    3      THEN
      750    18329    4      DO ;

      751    18330    4         IF (HDR_LEN + ASL_PRO_OPT_TBL.LEN(NEXT)) <= LO_WIDTH
PL6.E3A0      #001=ASL$DISP_ONE_PROFILE File=ASL$L_PRO.:E05TSI                   TUE 07/29/97 10:26 Page:197

  18330  4 001624   200155 471500                    LDP1    @HDR_LEN,,AUTO
         4 001625   200161 235100                    LDA     NEXT,,AUTO
         4 001626   000003 735000                    ALS     3
         4 001627   000000 236005 xsym               LDQ     ASL_PRO_OPT_TBL,AL
         4 001630   000033 772000                    QRL     27
         4 001631   100000 036100                    ADLQ    0,,PR1
         4 001632   001641 604000 4                  TMI     s:18334
         4 001633   000000 116000 xsym               CMPQ    LO_WIDTH
         4 001634   001641 602000 4                  TNC     s:18334
         4 001635   001641 600000 4                  TZE     s:18334
         4 001636   100000 235100                    LDA     0,,PR1
         4 001637   000003 115007                    CMPA    3,DL
         4 001640   001667 601000 4                  TNZ     s:18341

      752    18331    4              OR HDR_LEN = 3
      753    18332    4         THEN
      754    18333    5         DO ;

      755    18334    5            CALL INSERT(OUT_BUF,HDR_LEN,ASL_PRO_OPT_TBL.LEN(NEXT),

  18334  4 001641   100000 235100                    LDA     0,,PR1
         4 001642   200161 236100                    LDQ     NEXT,,AUTO
         4 001643   000003 736000                    QLS     3
         4 001644   000000 236006 xsym               LDQ     ASL_PRO_OPT_TBL,QL
         4 001645   000033 772000                    QRL     27
         4 001646   200366 755100                    STA     TEMP+4,,AUTO
         4 001647   200161 235100                    LDA     NEXT,,AUTO
         4 001650   000005 735000                    ALS     5
         4 001651   000000 620006                    EAX0    0,QL
         4 001652   200366 236100                    LDQ     TEMP+4,,AUTO
         4 001653   040046 100405                    MLR     fill='040'O
         4 001654   000000 200024 xsym               ADSC9   ASL_PRO_OPT_TBL,A        cn=1,n=20
         4 001655   000000 000010 xsym               ADSC9   OUT_BUF,Q                cn=0,n=*X0

      756    18335    5                 ASL_PRO_OPT_TBL.HDR(NEXT)) ;
      757    18336    5            HDR_LEN = HDR_LEN + ASL_PRO_OPT_TBL.LEN(NEXT) ;
PL6.E3A0      #001=ASL$DISP_ONE_PROFILE File=ASL$L_PRO.:E05TSI                   TUE 07/29/97 10:26 Page:198

  18336  4 001656   200161 236100                    LDQ     NEXT,,AUTO
         4 001657   000003 736000                    QLS     3
         4 001660   000000 236006 xsym               LDQ     ASL_PRO_OPT_TBL,QL
         4 001661   000033 772000                    QRL     27
         4 001662   100000 036100                    ADLQ    0,,PR1
         4 001663   100000 756100                    STQ     0,,PR1

      758    18337    5            FIELDS = FIELDS + 1 ;

  18337  4 001664   200103 054100                    AOS     FIELDS,,AUTO

      759    18338    5            CUR_IDX = CUR_IDX + 1 ;

  18338  4 001665   200157 054100                    AOS     CUR_IDX,,AUTO

      760    18339    5            END ;                 /* Then do                            */

  18339  4 001666   001672 710000 4                  TRA     s:18345

      761    18340    4         ELSE
      762    18341    4            MORE = '0'B ;

  18341  4 001667   200160 450100                    STZ     MORE,,AUTO

      763    18342    4         END ;                    /* Then do                            */

  18342  4 001670   001672 710000 4                  TRA     s:18345

      764    18343    3      ELSE
      765    18344    3         MORE = '0'B ;

  18344  4 001671   200160 450100                    STZ     MORE,,AUTO

      766    18345    3      END ;                        /* Do while                           */

  18345  4 001672   200160 234100                    SZN     MORE,,AUTO
PL6.E3A0      #001=ASL$DISP_ONE_PROFILE File=ASL$L_PRO.:E05TSI                   TUE 07/29/97 10:26 Page:199
         4 001673   001554 604000 4                  TMI     s:18315

      767    18346    2   IF NEXT = 280 /* L_PRO_END */ - 1

  18346  4 001674   200161 235100                    LDA     NEXT,,AUTO
         4 001675   000427 115007                    CMPA    279,DL
         4 001676   001703 601000 4                  TNZ     s:18348

      768    18347    2   THEN NXT_IDX = CUR_IDX + 1 ;

  18347  4 001677   200157 236100                    LDQ     CUR_IDX,,AUTO
         4 001700   000001 036007                    ADLQ    1,DL
         4 001701   200102 756100                    STQ     NXT_IDX,,AUTO
         4 001702   001705 710000 4                  TRA     s:18349

      769    18348    2   ELSE NXT_IDX = CUR_IDX ;

  18348  4 001703   200157 236100                    LDQ     CUR_IDX,,AUTO
         4 001704   200102 756100                    STQ     NXT_IDX,,AUTO

      770    18349    2   RETURN ;

  18349  4 001705   200154 221300                    LDX1  ! PTR$+1,,AUTO
         4 001706   000001 702211                    TSX2  ! 1,X1

      771    18350    2   END   BUILD_HDR ;
      772    18351        %EJECT ;
PL6.E3A0      #001=ASL$DISP_ONE_PROFILE File=ASL$L_PRO.:E05TSI                   TUE 07/29/97 10:26 Page:200
      773    18352    1   LIST_FIELDS: PROC ;

  18352  4 001707   200154 741300       LIST_FIELDS  STX1  ! PTR$+1,,AUTO

      774    18353    2   DCL J SBIN ;
      775    18354    2   DCL CUR_IDX SBIN ;
      776    18355    2   DCL NEXT UBIN WORD ;
      777    18356
      778    18357    2   FDS.BUF_.BOUND = LO_WIDTH - 1;

  18357  4 001710   000000 236000 xsym               LDQ     LO_WIDTH
         4 001711   000001 136007                    SBLQ    1,DL
         4 001712   000020 736000                    QLS     16
         4 001713   000005 676000 xsym               ERQ     FDS+5
         4 001714   000034 376000 xsym               ANQ     B_VECTNIL+28
         4 001715   000005 656000 xsym               ERSQ    FDS+5

      779    18358    2   FMT_VEC(0) = VECTOR(BLANK_BUF) ;

  18358  4 001716   000030 237000 5                  LDAQ    24
         4 001717   000000 755000 xsym               STA     FMT_VEC
         4 001720   000001 756000 xsym               STQ     FMT_VEC+1

      780    18359    2   FDS.NVECS# = 1 ;

  18359  4 001721   000001 235007                    LDA     1,DL
         4 001722   000011 755000 xsym               STA     FDS+9

      781    18360    2   CALL INSERT(FMT_BUF,0,2,'%A') ;

  18360  4 001723   003763 220000 3                  LDX0    FUNKEY_NAMES+1544
         4 001724   000000 740000 xsym               STX0    FMT_BUF

      782    18361    2   FDS.FMT_.BOUND = 1 ;

  18361  4 001725   000000 236000 xsym               LDQ     FDS
         4 001726   177777 376007                    ANQ     65535,DL
PL6.E3A0      #001=ASL$DISP_ONE_PROFILE File=ASL$L_PRO.:E05TSI                   TUE 07/29/97 10:26 Page:201
         4 001727   200000 276007                    ORQ     65536,DL
         4 001730   000000 756000 xsym               STQ     FDS

      783    18362    2   NEXT_TAB = 5 ;

  18362  4 001731   000005 235007                    LDA     5,DL
         4 001732   200006 755100                    STA     NEXT_TAB,,AUTO

      784    18363    2   SBIN_IDX = 0 ;

  18363  4 001733   200077 450100                    STZ     SBIN_IDX,,AUTO

      785    18364    2   CUR_IDX = ST_IDX ;

  18364  4 001734   200101 235100                    LDA     ST_IDX,,AUTO
         4 001735   200156 755100                    STA     CUR_IDX,,AUTO

      786    18365    3   DO J = 1 TO FIELDS ;

  18365  4 001736   000001 235007                    LDA     1,DL
         4 001737   200155 755100                    STA     J,,AUTO
         4 001740   002036 710000 4                  TRA     s:18381+1

      787    18366    3      NEXT = ASL_PRO_OPT_TBL.ORDR(CUR_IDX) ;

  18366  4 001741   200156 235100                    LDA     CUR_IDX,,AUTO
         4 001742   000003 735000                    ALS     3
         4 001743   000005 236005 xsym               LDQ     ASL_PRO_OPT_TBL+5,AL
         4 001744   000011 772000                    QRL     9
         4 001745   000777 376007                    ANQ     511,DL
         4 001746   200157 756100                    STQ     NEXT,,AUTO

      788    18367    4      DO WHILE(~PRO_FLAGS(NEXT) OR ASL_PRO_OPT_TBL.LEN(NEXT)=0) ;

  18367  4 001747   001757 710000 4                  TRA     s:18370

      789    18368    4         CUR_IDX = CUR_IDX + 1 ;
PL6.E3A0      #001=ASL$DISP_ONE_PROFILE File=ASL$L_PRO.:E05TSI                   TUE 07/29/97 10:26 Page:202

  18368  4 001750   200156 054100                    AOS     CUR_IDX,,AUTO

      790    18369    4         NEXT = ASL_PRO_OPT_TBL.ORDR(CUR_IDX) ;

  18369  4 001751   200156 235100                    LDA     CUR_IDX,,AUTO
         4 001752   000003 735000                    ALS     3
         4 001753   000005 236005 xsym               LDQ     ASL_PRO_OPT_TBL+5,AL
         4 001754   000011 772000                    QRL     9
         4 001755   000777 376007                    ANQ     511,DL
         4 001756   200157 756100                    STQ     NEXT,,AUTO

      791    18370    4         END ;                     /* Do while                           */

  18370  4 001757   003100 060406                    CSL     bolr='003'O
         4 001760   000046 000001 2                  BDSC    PRO_FLAGS,Q              by=0,bit=0,n=1
         4 001761   200366 000044                    BDSC    TEMP+4,,AUTO             by=0,bit=0,n=36
         4 001762   200366 236100                    LDQ     TEMP+4,,AUTO
         4 001763   400000 676003                    ERQ     -131072,DU
         4 001764   001750 601000 4                  TNZ     s:18368
         4 001765   200157 236100                    LDQ     NEXT,,AUTO
         4 001766   000003 736000                    QLS     3
         4 001767   000000 236006 xsym               LDQ     ASL_PRO_OPT_TBL,QL
         4 001770   777000 316003                    CANQ    -512,DU
         4 001771   001750 600000 4                  TZE     s:18368

      792    18371    3      SBINS(SBIN_IDX) = NEXT_TAB ;

  18371  4 001772   200077 720100                    LXL0    SBIN_IDX,,AUTO
         4 001773   200006 236100                    LDQ     NEXT_TAB,,AUTO
         4 001774   200007 756110                    STQ     SBINS,X0,AUTO

      793    18372    3      FMT_VEC(FDS.NVECS#) = VECTOR(SBINS(SBIN_IDX)) ;

  18372  4 001775   000011 235000 xsym               LDA     FDS+9
         4 001776   000001 735000                    ALS     1
         4 001777   000000 621005                    EAX1    0,AL
PL6.E3A0      #001=ASL$DISP_ONE_PROFILE File=ASL$L_PRO.:E05TSI                   TUE 07/29/97 10:26 Page:203
         4 002000   777640 235007                    LDA     -96,DL
         4 002001   200366 452500                    STP2    TEMP+4,,AUTO
         4 002002   200077 236100                    LDQ     SBIN_IDX,,AUTO
         4 002003   000022 736000                    QLS     18
         4 002004   000007 036003                    ADLQ    7,DU
         4 002005   200366 036100                    ADLQ    TEMP+4,,AUTO
         4 002006   000000 755011 xsym               STA     FMT_VEC,X1
         4 002007   000001 756011 xsym               STQ     FMT_VEC+1,X1

      794    18373                                                /* Next tab stop.                     */
      795    18374    3      SBIN_IDX = SBIN_IDX + 1 ;

  18374  4 002010   200077 054100                    AOS     SBIN_IDX,,AUTO

      796    18375    3      FDS.NVECS# = FDS.NVECS# + 1 ;

  18375  4 002011   000011 054000 xsym               AOS     FDS+9

      797    18376    3      CALL INSERT(FMT_BUF,FDS.FMT_.BOUND+1,3,'%N-') ; /* Tab over.       */

  18376  4 002012   000000 236000 xsym               LDQ     FDS
         4 002013   000020 772000                    QRL     16
         4 002014   040006 100400                    MLR     fill='040'O
         4 002015   003764 000003 3                  ADSC9   FUNKEY_NAMES+1545        cn=0,n=3
         4 002016   000000 200003 xsym               ADSC9   FMT_BUF,Q                cn=1,n=3

      798    18377    3      FDS.FMT_.BOUND = FDS.FMT_.BOUND + 3 ;

  18377  4 002017   000003 036007                    ADLQ    3,DL
         4 002020   000020 736000                    QLS     16
         4 002021   000000 676000 xsym               ERQ     FDS
         4 002022   000034 376000 xsym               ANQ     B_VECTNIL+28
         4 002023   000000 656000 xsym               ERSQ    FDS

      799    18378    3      CALL INSERT_FIELD ;

  18378  4 002024   002054 701000 4                  TSX1    INSERT_FIELD
PL6.E3A0      #001=ASL$DISP_ONE_PROFILE File=ASL$L_PRO.:E05TSI                   TUE 07/29/97 10:26 Page:204
         4 002025   000000 011000                    NOP     0

      800    18379    3      NEXT_TAB = NEXT_TAB + ASL_PRO_OPT_TBL.LEN(NEXT) ;

  18379  4 002026   200157 235100                    LDA     NEXT,,AUTO
         4 002027   000003 735000                    ALS     3
         4 002030   000000 236005 xsym               LDQ     ASL_PRO_OPT_TBL,AL
         4 002031   000033 772000                    QRL     27
         4 002032   200006 036100                    ADLQ    NEXT_TAB,,AUTO
         4 002033   200006 756100                    STQ     NEXT_TAB,,AUTO

      801    18380    3      CUR_IDX = CUR_IDX + 1 ;

  18380  4 002034   200156 054100                    AOS     CUR_IDX,,AUTO

      802    18381    3      END ;                        /* Do j                               */

  18381  4 002035   200155 054100                    AOS     J,,AUTO
         4 002036   200155 236100                    LDQ     J,,AUTO
         4 002037   200103 116100                    CMPQ    FIELDS,,AUTO
         4 002040   001741 604400 4                  TMOZ    s:18366

      803    18382    2   CALL X$FORMAT(FDS) ;

  18382  4 002041   000004 630400 5                  EPPR0   4
         4 002042   000017 631400 xsym               EPPR1   B_VECTNIL+15
         4 002043   000000 701000 xent               TSX1    X$FORMAT
         4 002044   000000 011000                    NOP     0

      804    18383    2   FDS.NVECS# = 0 ;

  18383  4 002045   000011 450000 xsym               STZ     FDS+9

      805    18384    2   FDS.BUF_.BOUND = LENGTHC (OUT_BUF);

  18384  4 002046   000005 236000 xsym               LDQ     FDS+5
         4 002047   177777 376007                    ANQ     65535,DL
PL6.E3A0      #001=ASL$DISP_ONE_PROFILE File=ASL$L_PRO.:E05TSI                   TUE 07/29/97 10:26 Page:205
         4 002050   000043 276003                    ORQ     35,DU
         4 002051   000005 756000 xsym               STQ     FDS+5

      806    18385
      807    18386    2   RETURN ;

  18386  4 002052   200154 221300                    LDX1  ! PTR$+1,,AUTO
         4 002053   000001 702211                    TSX2  ! 1,X1

      808    18387        %EJECT ;
PL6.E3A0      #001=ASL$DISP_ONE_PROFILE File=ASL$L_PRO.:E05TSI                   TUE 07/29/97 10:26 Page:206
      809    18388    2   INSERT_FIELD: PROC ;

  18388  4 002054   200160 741300       INSERT_FIELD STX1  ! MORE,,AUTO

      810    18389    3   DCL VDH_ALG_TYPE UBIN WORD;
      811    18390    3   DCL CLASS SBIN ;
      812    18391    3   DCL I UBIN ;
      813    18392    3   DCL J UBIN ;
      814    18393    3   DCL YES_NO BIT(1) ALIGNED ;
      815    18394    3   DCL SVAL SBIN ;
      816    18395    3   DCL NEXT UBIN WORD ;
      817    18396    3   DCL INT9 UBIN BYTE UNAL BASED ;
      818    18397    3   DCL ABYTE UBIN BYTE CALIGNED BASED;
      819    18398
      820    18399    3   CLASS = 0;

  18399  4 002055   200162 450100                    STZ     CLASS,,AUTO

      821    18400    3   NEXT = ASL_PRO_OPT_TBL.ORDR(CUR_IDX) ;

  18400  4 002056   200156 235100                    LDA     CUR_IDX,,AUTO
         4 002057   000003 735000                    ALS     3
         4 002060   000005 236005 xsym               LDQ     ASL_PRO_OPT_TBL+5,AL
         4 002061   000011 772000                    QRL     9
         4 002062   000777 376007                    ANQ     511,DL
         4 002063   200167 756100                    STQ     NEXT,,AUTO

      822    18401    4   DO SELECT(NEXT) ;

  18401  4 002064   000244 116007                    CMPQ    164,DL
         4 002065   002707 602000 4                  TNC     s:18401+403
         4 002066   005604 600000 4                  TZE     s:18863
         4 002067   000315 116007                    CMPQ    205,DL
         4 002070   002465 602000 4                  TNC     s:18401+257
         4 002071   011661 600000 4                  TZE     s:19520
         4 002072   000350 116007                    CMPQ    232,DL
         4 002073   002333 602000 4                  TNC     s:18401+167
PL6.E3A0      #001=ASL$DISP_ONE_PROFILE File=ASL$L_PRO.:E05TSI                   TUE 07/29/97 10:26 Page:207
         4 002074   014570 600000 4                  TZE     s:20060
         4 002075   000406 116007                    CMPQ    262,DL
         4 002076   002166 602000 4                  TNC     s:18401+66
         4 002077   015171 600000 4                  TZE     s:20157
         4 002100   000414 116007                    CMPQ    268,DL
         4 002101   002143 602000 4                  TNC     s:18401+47
         4 002102   015272 600000 4                  TZE     s:20181
         4 002103   000422 116007                    CMPQ    274,DL
         4 002104   002122 602000 4                  TNC     s:18401+30
         4 002105   015374 600000 4                  TZE     s:20205
         4 002106   000425 116007                    CMPQ    277,DL
         4 002107   002114 602000 4                  TNC     s:18401+24
         4 002110   015015 600000 4                  TZE     s:20117
         4 002111   000426 116007                    CMPQ    278,DL
         4 002112   015434 601000 4                  TNZ     s:20217
         4 002113   015055 710000 4                  TRA     s:20129
         4 002114   000423 116007                    CMPQ    275,DL
         4 002115   015434 602000 4                  TNC     s:20217
         4 002116   015407 600000 4                  TZE     s:20209
         4 002117   000424 116007                    CMPQ    276,DL
         4 002120   015434 601000 4                  TNZ     s:20217
         4 002121   015422 710000 4                  TRA     s:20213
         4 002122   000417 116007                    CMPQ    271,DL
         4 002123   002134 602000 4                  TNC     s:18401+40
         4 002124   015333 600000 4                  TZE     s:20193
         4 002125   000421 116007                    CMPQ    273,DL
         4 002126   002131 602000 4                  TNC     s:18401+37
         4 002127   015361 600000 4                  TZE     s:20201
         4 002130   015434 710000 4                  TRA     s:20217
         4 002131   000420 116007                    CMPQ    272,DL
         4 002132   015434 601000 4                  TNZ     s:20217
         4 002133   015346 710000 4                  TRA     s:20197
         4 002134   000416 116007                    CMPQ    270,DL
         4 002135   002140 602000 4                  TNC     s:18401+44
         4 002136   015320 600000 4                  TZE     s:20189
         4 002137   015434 710000 4                  TRA     s:20217
         4 002140   000415 116007                    CMPQ    269,DL
PL6.E3A0      #001=ASL$DISP_ONE_PROFILE File=ASL$L_PRO.:E05TSI                   TUE 07/29/97 10:26 Page:208
         4 002141   015434 601000 4                  TNZ     s:20217
         4 002142   015305 710000 4                  TRA     s:20185
         4 002143   000411 116007                    CMPQ    265,DL
         4 002144   002156 602000 4                  TNC     s:18401+58
         4 002145   015232 600000 4                  TZE     s:20169
         4 002146   000413 116007                    CMPQ    267,DL
         4 002147   002152 602000 4                  TNC     s:18401+54
         4 002150   015257 600000 4                  TZE     s:20177
         4 002151   015434 710000 4                  TRA     s:20217
         4 002152   200167 235100                    LDA     NEXT,,AUTO
         4 002153   000412 115007                    CMPA    266,DL
         4 002154   015434 601000 4                  TNZ     s:20217
         4 002155   015245 710000 4                  TRA     s:20173
         4 002156   200167 236100                    LDQ     NEXT,,AUTO
         4 002157   000410 116007                    CMPQ    264,DL
         4 002160   002163 602000 4                  TNC     s:18401+63
         4 002161   015217 600000 4                  TZE     s:20165
         4 002162   015434 710000 4                  TRA     s:20217
         4 002163   000407 116007                    CMPQ    263,DL
         4 002164   015434 601000 4                  TNZ     s:20217
         4 002165   015204 710000 4                  TRA     s:20161
         4 002166   000371 116007                    CMPQ    249,DL
         4 002167   002247 602000 4                  TNC     s:18401+115
         4 002170   014765 600000 4                  TZE     s:20108
         4 002171   000400 116007                    CMPQ    256,DL
         4 002172   002220 602000 4                  TNC     s:18401+92
         4 002173   015075 600000 4                  TZE     s:20135
         4 002174   000403 116007                    CMPQ    259,DL
         4 002175   002207 602000 4                  TNC     s:18401+83
         4 002176   015130 600000 4                  TZE     s:20145
         4 002177   000405 116007                    CMPQ    261,DL
         4 002200   002203 602000 4                  TNC     s:18401+79
         4 002201   015156 600000 4                  TZE     s:20153
         4 002202   015434 710000 4                  TRA     s:20217
         4 002203   200167 235100                    LDA     NEXT,,AUTO
         4 002204   000404 115007                    CMPA    260,DL
         4 002205   015434 601000 4                  TNZ     s:20217
PL6.E3A0      #001=ASL$DISP_ONE_PROFILE File=ASL$L_PRO.:E05TSI                   TUE 07/29/97 10:26 Page:209
         4 002206   015143 710000 4                  TRA     s:20149
         4 002207   200167 236100                    LDQ     NEXT,,AUTO
         4 002210   000402 116007                    CMPQ    258,DL
         4 002211   002214 602000 4                  TNC     s:18401+88
         4 002212   015105 600000 4                  TZE     s:20138
         4 002213   015434 710000 4                  TRA     s:20217
         4 002214   200167 235100                    LDA     NEXT,,AUTO
         4 002215   000401 115007                    CMPA    257,DL
         4 002216   015434 601000 4                  TNZ     s:20217
         4 002217   015115 710000 4                  TRA     s:20141
         4 002220   200167 236100                    LDQ     NEXT,,AUTO
         4 002221   000375 116007                    CMPQ    253,DL
         4 002222   002234 602000 4                  TNC     s:18401+104
         4 002223   015035 600000 4                  TZE     s:20123
         4 002224   000377 116007                    CMPQ    255,DL
         4 002225   002230 602000 4                  TNC     s:18401+100
         4 002226   015065 600000 4                  TZE     s:20132
         4 002227   015434 710000 4                  TRA     s:20217
         4 002230   200167 235100                    LDA     NEXT,,AUTO
         4 002231   000376 115007                    CMPA    254,DL
         4 002232   015434 601000 4                  TNZ     s:20217
         4 002233   015045 710000 4                  TRA     s:20126
         4 002234   200167 236100                    LDQ     NEXT,,AUTO
         4 002235   000373 116007                    CMPQ    251,DL
         4 002236   002243 602000 4                  TNC     s:18401+111
         4 002237   015005 600000 4                  TZE     s:20114
         4 002240   000374 116007                    CMPQ    252,DL
         4 002241   015434 601000 4                  TNZ     s:20217
         4 002242   015025 710000 4                  TRA     s:20120
         4 002243   200167 235100                    LDA     NEXT,,AUTO
         4 002244   000372 115007                    CMPA    250,DL
         4 002245   015434 601000 4                  TNZ     s:20217
         4 002246   014775 710000 4                  TRA     s:20111
         4 002247   200167 236100                    LDQ     NEXT,,AUTO
         4 002250   000360 116007                    CMPQ    240,DL
         4 002251   002303 602000 4                  TNC     s:18401+143
         4 002252   014665 600000 4                  TZE     s:20084
PL6.E3A0      #001=ASL$DISP_ONE_PROFILE File=ASL$L_PRO.:E05TSI                   TUE 07/29/97 10:26 Page:210
         4 002253   000365 116007                    CMPQ    245,DL
         4 002254   002270 602000 4                  TNC     s:18401+132
         4 002255   014725 600000 4                  TZE     s:20096
         4 002256   000367 116007                    CMPQ    247,DL
         4 002257   002264 602000 4                  TNC     s:18401+128
         4 002260   014745 600000 4                  TZE     s:20102
         4 002261   000370 116007                    CMPQ    248,DL
         4 002262   015434 601000 4                  TNZ     s:20217
         4 002263   014755 710000 4                  TRA     s:20105
         4 002264   200167 235100                    LDA     NEXT,,AUTO
         4 002265   000366 115007                    CMPA    246,DL
         4 002266   015434 601000 4                  TNZ     s:20217
         4 002267   014735 710000 4                  TRA     s:20099
         4 002270   200167 236100                    LDQ     NEXT,,AUTO
         4 002271   000363 116007                    CMPQ    243,DL
         4 002272   002277 602000 4                  TNC     s:18401+139
         4 002273   014705 600000 4                  TZE     s:20090
         4 002274   000364 116007                    CMPQ    244,DL
         4 002275   015434 601000 4                  TNZ     s:20217
         4 002276   014715 710000 4                  TRA     s:20093
         4 002277   200167 235100                    LDA     NEXT,,AUTO
         4 002300   000361 115007                    CMPA    241,DL
         4 002301   015434 601000 4                  TNZ     s:20217
         4 002302   014675 710000 4                  TRA     s:20087
         4 002303   200167 236100                    LDQ     NEXT,,AUTO
         4 002304   000354 116007                    CMPQ    236,DL
         4 002305   002321 602000 4                  TNC     s:18401+157
         4 002306   014625 600000 4                  TZE     s:20072
         4 002307   000356 116007                    CMPQ    238,DL
         4 002310   002315 602000 4                  TNC     s:18401+153
         4 002311   014645 600000 4                  TZE     s:20078
         4 002312   000357 116007                    CMPQ    239,DL
         4 002313   015434 601000 4                  TNZ     s:20217
         4 002314   014655 710000 4                  TRA     s:20081
         4 002315   200167 235100                    LDA     NEXT,,AUTO
         4 002316   000355 115007                    CMPA    237,DL
         4 002317   015434 601000 4                  TNZ     s:20217
PL6.E3A0      #001=ASL$DISP_ONE_PROFILE File=ASL$L_PRO.:E05TSI                   TUE 07/29/97 10:26 Page:211
         4 002320   014615 710000 4                  TRA     s:20069
         4 002321   200167 236100                    LDQ     NEXT,,AUTO
         4 002322   000352 116007                    CMPQ    234,DL
         4 002323   002330 602000 4                  TNC     s:18401+164
         4 002324   014606 600000 4                  TZE     s:20066
         4 002325   000353 116007                    CMPQ    235,DL
         4 002326   015434 601000 4                  TNZ     s:20217
         4 002327   014635 710000 4                  TRA     s:20075
         4 002330   000351 116007                    CMPQ    233,DL
         4 002331   015434 601000 4                  TNZ     s:20217
         4 002332   014577 710000 4                  TRA     s:20063
         4 002333   000330 116007                    CMPQ    216,DL
         4 002334   002422 602000 4                  TNC     s:18401+222
         4 002335   004533 600000 4                  TZE     s:18576
         4 002336   000340 116007                    CMPQ    224,DL
         4 002337   002371 602000 4                  TNC     s:18401+197
         4 002340   014500 600000 4                  TZE     s:20036
         4 002341   000344 116007                    CMPQ    228,DL
         4 002342   002356 602000 4                  TNC     s:18401+186
         4 002343   014534 600000 4                  TZE     s:20048
         4 002344   000346 116007                    CMPQ    230,DL
         4 002345   002352 602000 4                  TNC     s:18401+182
         4 002346   014552 600000 4                  TZE     s:20054
         4 002347   000347 116007                    CMPQ    231,DL
         4 002350   015434 601000 4                  TNZ     s:20217
         4 002351   014543 710000 4                  TRA     s:20051
         4 002352   200167 235100                    LDA     NEXT,,AUTO
         4 002353   000345 115007                    CMPA    229,DL
         4 002354   015434 601000 4                  TNZ     s:20217
         4 002355   014561 710000 4                  TRA     s:20057
         4 002356   200167 236100                    LDQ     NEXT,,AUTO
         4 002357   000342 116007                    CMPQ    226,DL
         4 002360   002365 602000 4                  TNC     s:18401+193
         4 002361   014516 600000 4                  TZE     s:20042
         4 002362   000343 116007                    CMPQ    227,DL
         4 002363   015434 601000 4                  TNZ     s:20217
         4 002364   014525 710000 4                  TRA     s:20045
PL6.E3A0      #001=ASL$DISP_ONE_PROFILE File=ASL$L_PRO.:E05TSI                   TUE 07/29/97 10:26 Page:212
         4 002365   200167 235100                    LDA     NEXT,,AUTO
         4 002366   000341 115007                    CMPA    225,DL
         4 002367   015434 601000 4                  TNZ     s:20217
         4 002370   014507 710000 4                  TRA     s:20039
         4 002371   200167 236100                    LDQ     NEXT,,AUTO
         4 002372   000334 116007                    CMPQ    220,DL
         4 002373   002407 602000 4                  TNC     s:18401+211
         4 002374   014444 600000 4                  TZE     s:20024
         4 002375   000336 116007                    CMPQ    222,DL
         4 002376   002403 602000 4                  TNC     s:18401+207
         4 002377   014462 600000 4                  TZE     s:20030
         4 002400   000337 116007                    CMPQ    223,DL
         4 002401   015434 601000 4                  TNZ     s:20217
         4 002402   014471 710000 4                  TRA     s:20033
         4 002403   200167 235100                    LDA     NEXT,,AUTO
         4 002404   000335 115007                    CMPA    221,DL
         4 002405   015434 601000 4                  TNZ     s:20217
         4 002406   014453 710000 4                  TRA     s:20027
         4 002407   200167 236100                    LDQ     NEXT,,AUTO
         4 002410   000332 116007                    CMPQ    218,DL
         4 002411   002416 602000 4                  TNC     s:18401+218
         4 002412   014412 600000 4                  TZE     s:20011
         4 002413   000333 116007                    CMPQ    219,DL
         4 002414   015434 601000 4                  TNZ     s:20217
         4 002415   014002 710000 4                  TRA     s:19887
         4 002416   200167 235100                    LDA     NEXT,,AUTO
         4 002417   000331 115007                    CMPA    217,DL
         4 002420   015434 601000 4                  TNZ     s:20217
         4 002421   004756 710000 4                  TRA     s:18651
         4 002422   200167 236100                    LDQ     NEXT,,AUTO
         4 002423   000322 116007                    CMPQ    210,DL
         4 002424   002446 602000 4                  TNC     s:18401+242
         4 002425   011625 600000 4                  TZE     s:19507
         4 002426   000325 116007                    CMPQ    213,DL
         4 002427   002437 602000 4                  TNC     s:18401+235
         4 002430   010574 600000 4                  TZE     s:19314
         4 002431   000326 116007                    CMPQ    214,DL
PL6.E3A0      #001=ASL$DISP_ONE_PROFILE File=ASL$L_PRO.:E05TSI                   TUE 07/29/97 10:26 Page:213
         4 002432   015434 602000 4                  TNC     s:20217
         4 002433   010621 600000 4                  TZE     s:19325
         4 002434   000327 116007                    CMPQ    215,DL
         4 002435   015434 601000 4                  TNZ     s:20217
         4 002436   010646 710000 4                  TRA     s:19336
         4 002437   200167 236100                    LDQ     NEXT,,AUTO
         4 002440   000323 116007                    CMPQ    211,DL
         4 002441   015434 602000 4                  TNC     s:20217
         4 002442   011614 600000 4                  TZE     s:19502
         4 002443   000324 116007                    CMPQ    212,DL
         4 002444   015434 601000 4                  TNZ     s:20217
         4 002445   006042 710000 4                  TRA     s:18936
         4 002446   000317 116007                    CMPQ    207,DL
         4 002447   002461 602000 4                  TNC     s:18401+253
         4 002450   011703 600000 4                  TZE     s:19530
         4 002451   000321 116007                    CMPQ    209,DL
         4 002452   002455 602000 4                  TNC     s:18401+249
         4 002453   011757 600000 4                  TZE     s:19553
         4 002454   015434 710000 4                  TRA     s:20217
         4 002455   200167 235100                    LDA     NEXT,,AUTO
         4 002456   000320 115007                    CMPA    208,DL
         4 002457   015434 601000 4                  TNZ     s:20217
         4 002460   012006 710000 4                  TRA     s:19561
         4 002461   200167 235100                    LDA     NEXT,,AUTO
         4 002462   000316 115007                    CMPA    206,DL
         4 002463   015434 601000 4                  TNZ     s:20217
         4 002464   011714 710000 4                  TRA     s:19535
         4 002465   200167 236100                    LDQ     NEXT,,AUTO
         4 002466   000270 116007                    CMPQ    184,DL
         4 002467   002606 602000 4                  TNC     s:18401+338
         4 002470   014056 600000 4                  TZE     s:19908
         4 002471   000301 116007                    CMPQ    193,DL
         4 002472   002545 602000 4                  TNC     s:18401+305
         4 002473   014245 600000 4                  TZE     s:19964
         4 002474   000310 116007                    CMPQ    200,DL
         4 002475   002516 602000 4                  TNC     s:18401+282
         4 002476   011636 600000 4                  TZE     s:19512
PL6.E3A0      #001=ASL$DISP_ONE_PROFILE File=ASL$L_PRO.:E05TSI                   TUE 07/29/97 10:26 Page:214
         4 002477   000313 116007                    CMPQ    203,DL
         4 002500   002505 602000 4                  TNC     s:18401+273
         4 002501   012017 600000 4                  TZE     s:19567
         4 002502   000314 116007                    CMPQ    204,DL
         4 002503   015434 601000 4                  TNZ     s:20217
         4 002504   011672 710000 4                  TRA     s:19525
         4 002505   200167 236100                    LDQ     NEXT,,AUTO
         4 002506   000312 116007                    CMPQ    202,DL
         4 002507   002512 602000 4                  TNC     s:18401+278
         4 002510   012030 600000 4                  TZE     s:19572
         4 002511   015434 710000 4                  TRA     s:20217
         4 002512   200167 235100                    LDA     NEXT,,AUTO
         4 002513   000311 115007                    CMPA    201,DL
         4 002514   015434 601000 4                  TNZ     s:20217
         4 002515   012063 710000 4                  TRA     s:19587
         4 002516   200167 236100                    LDQ     NEXT,,AUTO
         4 002517   000304 116007                    CMPQ    196,DL
         4 002520   002534 602000 4                  TNC     s:18401+296
         4 002521   014334 600000 4                  TZE     s:19990
         4 002522   000306 116007                    CMPQ    198,DL
         4 002523   002530 602000 4                  TNC     s:18401+292
         4 002524   014040 600000 4                  TZE     s:19902
         4 002525   000307 116007                    CMPQ    199,DL
         4 002526   015434 601000 4                  TNZ     s:20217
         4 002527   011725 710000 4                  TRA     s:19540
         4 002530   200167 235100                    LDA     NEXT,,AUTO
         4 002531   000305 115007                    CMPA    197,DL
         4 002532   015434 601000 4                  TNZ     s:20217
         4 002533   014361 710000 4                  TRA     s:20001
         4 002534   200167 236100                    LDQ     NEXT,,AUTO
         4 002535   000303 116007                    CMPQ    195,DL
         4 002536   002541 602000 4                  TNC     s:18401+301
         4 002537   014327 600000 4                  TZE     s:19986
         4 002540   015434 710000 4                  TRA     s:20217
         4 002541   200167 235100                    LDA     NEXT,,AUTO
         4 002542   000302 115007                    CMPA    194,DL
         4 002543   015434 601000 4                  TNZ     s:20217
PL6.E3A0      #001=ASL$DISP_ONE_PROFILE File=ASL$L_PRO.:E05TSI                   TUE 07/29/97 10:26 Page:215
         4 002544   014276 710000 4                  TRA     s:19975
         4 002545   200167 236100                    LDQ     NEXT,,AUTO
         4 002546   000276 116007                    CMPQ    190,DL
         4 002547   002561 602000 4                  TNC     s:18401+317
         4 002550   014146 600000 4                  TZE     s:19933
         4 002551   000300 116007                    CMPQ    192,DL
         4 002552   002555 602000 4                  TNC     s:18401+313
         4 002553   014220 600000 4                  TZE     s:19953
         4 002554   015434 710000 4                  TRA     s:20217
         4 002555   200167 235100                    LDA     NEXT,,AUTO
         4 002556   000277 115007                    CMPA    191,DL
         4 002557   015434 601000 4                  TNZ     s:20217
         4 002560   014173 710000 4                  TRA     s:19943
         4 002561   200167 236100                    LDQ     NEXT,,AUTO
         4 002562   000273 116007                    CMPQ    187,DL
         4 002563   002575 602000 4                  TNC     s:18401+329
         4 002564   014103 600000 4                  TZE     s:19917
         4 002565   000275 116007                    CMPQ    189,DL
         4 002566   002571 602000 4                  TNC     s:18401+325
         4 002567   014121 600000 4                  TZE     s:19923
         4 002570   015434 710000 4                  TRA     s:20217
         4 002571   200167 235100                    LDA     NEXT,,AUTO
         4 002572   000274 115007                    CMPA    188,DL
         4 002573   015434 601000 4                  TNZ     s:20217
         4 002574   014112 710000 4                  TRA     s:19920
         4 002575   200167 236100                    LDQ     NEXT,,AUTO
         4 002576   000272 116007                    CMPQ    186,DL
         4 002577   002602 602000 4                  TNC     s:18401+334
         4 002600   014074 600000 4                  TZE     s:19914
         4 002601   015434 710000 4                  TRA     s:20217
         4 002602   200167 235100                    LDA     NEXT,,AUTO
         4 002603   000271 115007                    CMPA    185,DL
         4 002604   015434 601000 4                  TNZ     s:20217
         4 002605   014065 710000 4                  TRA     s:19911
         4 002606   200167 236100                    LDQ     NEXT,,AUTO
         4 002607   000255 116007                    CMPQ    173,DL
         4 002610   002657 602000 4                  TNC     s:18401+379
PL6.E3A0      #001=ASL$DISP_ONE_PROFILE File=ASL$L_PRO.:E05TSI                   TUE 07/29/97 10:26 Page:216
         4 002611   012544 600000 4                  TZE     s:19647
         4 002612   000262 116007                    CMPQ    178,DL
         4 002613   002641 602000 4                  TNC     s:18401+365
         4 002614   013774 600000 4                  TZE     s:19883
         4 002615   000265 116007                    CMPQ    181,DL
         4 002616   002630 602000 4                  TNC     s:18401+356
         4 002617   014023 600000 4                  TZE     s:19895
         4 002620   000267 116007                    CMPQ    183,DL
         4 002621   002624 602000 4                  TNC     s:18401+352
         4 002622   014047 600000 4                  TZE     s:19905
         4 002623   015434 710000 4                  TRA     s:20217
         4 002624   200167 235100                    LDA     NEXT,,AUTO
         4 002625   000266 115007                    CMPA    182,DL
         4 002626   015434 601000 4                  TNZ     s:20217
         4 002627   014031 710000 4                  TRA     s:19899
         4 002630   200167 236100                    LDQ     NEXT,,AUTO
         4 002631   000264 116007                    CMPQ    180,DL
         4 002632   002635 602000 4                  TNC     s:18401+361
         4 002633   014015 600000 4                  TZE     s:19891
         4 002634   015434 710000 4                  TRA     s:20217
         4 002635   200167 235100                    LDA     NEXT,,AUTO
         4 002636   000263 115007                    CMPA    179,DL
         4 002637   015434 601000 4                  TNZ     s:20217
         4 002640   014417 710000 4                  TRA     s:20014
         4 002641   200167 236100                    LDQ     NEXT,,AUTO
         4 002642   000260 116007                    CMPQ    176,DL
         4 002643   002650 602000 4                  TNC     s:18401+372
         4 002644   011750 600000 4                  TZE     s:19548
         4 002645   000261 116007                    CMPQ    177,DL
         4 002646   015434 601000 4                  TNZ     s:20217
         4 002647   013166 710000 4                  TRA     s:19693
         4 002650   200167 236100                    LDQ     NEXT,,AUTO
         4 002651   000256 116007                    CMPQ    174,DL
         4 002652   015434 602000 4                  TNC     s:20217
         4 002653   012701 600000 4                  TZE     s:19664
         4 002654   000257 116007                    CMPQ    175,DL
         4 002655   015434 601000 4                  TNZ     s:20217
PL6.E3A0      #001=ASL$DISP_ONE_PROFILE File=ASL$L_PRO.:E05TSI                   TUE 07/29/97 10:26 Page:217
         4 002656   013152 710000 4                  TRA     s:19690
         4 002657   000252 116007                    CMPQ    170,DL
         4 002660   002672 602000 4                  TNC     s:18401+390
         4 002661   012250 600000 4                  TZE     s:19614
         4 002662   000254 116007                    CMPQ    172,DL
         4 002663   002666 602000 4                  TNC     s:18401+386
         4 002664   012535 600000 4                  TZE     s:19643
         4 002665   015434 710000 4                  TRA     s:20217
         4 002666   200167 235100                    LDA     NEXT,,AUTO
         4 002667   000253 115007                    CMPA    171,DL
         4 002670   015434 601000 4                  TNZ     s:20217
         4 002671   012521 710000 4                  TRA     s:19640
         4 002672   200167 236100                    LDQ     NEXT,,AUTO
         4 002673   000247 116007                    CMPQ    167,DL
         4 002674   002701 602000 4                  TNC     s:18401+397
         4 002675   010547 600000 4                  TZE     s:19303
         4 002676   000251 116007                    CMPQ    169,DL
         4 002677   015434 601000 4                  TNZ     s:20217
         4 002700   012113 710000 4                  TRA     s:19597
         4 002701   000245 116007                    CMPQ    165,DL
         4 002702   015434 602000 4                  TNC     s:20217
         4 002703   013722 600000 4                  TZE     s:19861
         4 002704   000246 116007                    CMPQ    166,DL
         4 002705   015434 601000 4                  TNZ     s:20217
         4 002706   013747 710000 4                  TRA     s:19872
         4 002707   000133 116007                    CMPQ    91,DL
         4 002710   003313 602000 4                  TNC     s:18401+663
         4 002711   010707 600000 4                  TZE     s:19356
         4 002712   000161 116007                    CMPQ    113,DL
         4 002713   003173 602000 4                  TNC     s:18401+583
         4 002714   010504 600000 4                  TZE     s:19283
         4 002715   000221 116007                    CMPQ    145,DL
         4 002716   003016 602000 4                  TNC     s:18401+474
         4 002717   013513 600000 4                  TZE     s:19793
         4 002720   000231 116007                    CMPQ    153,DL
         4 002721   002765 602000 4                  TNC     s:18401+449
         4 002722   013632 600000 4                  TZE     s:19829
PL6.E3A0      #001=ASL$DISP_ONE_PROFILE File=ASL$L_PRO.:E05TSI                   TUE 07/29/97 10:26 Page:218
         4 002723   000235 116007                    CMPQ    157,DL
         4 002724   002752 602000 4                  TNC     s:18401+438
         4 002725   013650 600000 4                  TZE     s:19841
         4 002726   000241 116007                    CMPQ    161,DL
         4 002727   002737 602000 4                  TNC     s:18401+427
         4 002730   013650 600000 4                  TZE     s:19841
         4 002731   000242 116007                    CMPQ    162,DL
         4 002732   015434 602000 4                  TNC     s:20217
         4 002733   007143 600000 4                  TZE     s:19097
         4 002734   000243 116007                    CMPQ    163,DL
         4 002735   015434 601000 4                  TNZ     s:20217
         4 002736   013675 710000 4                  TRA     s:19850
         4 002737   200167 236100                    LDQ     NEXT,,AUTO
         4 002740   000237 116007                    CMPQ    159,DL
         4 002741   002746 602000 4                  TNC     s:18401+434
         4 002742   013650 600000 4                  TZE     s:19841
         4 002743   000240 116007                    CMPQ    160,DL
         4 002744   015434 601000 4                  TNZ     s:20217
         4 002745   013650 710000 4                  TRA     s:19841
         4 002746   200167 235100                    LDA     NEXT,,AUTO
         4 002747   000236 115007                    CMPA    158,DL
         4 002750   015434 601000 4                  TNZ     s:20217
         4 002751   013650 710000 4                  TRA     s:19841
         4 002752   200167 236100                    LDQ     NEXT,,AUTO
         4 002753   000233 116007                    CMPQ    155,DL
         4 002754   002761 602000 4                  TNC     s:18401+445
         4 002755   013650 600000 4                  TZE     s:19841
         4 002756   000234 116007                    CMPQ    156,DL
         4 002757   015434 601000 4                  TNZ     s:20217
         4 002760   013650 710000 4                  TRA     s:19841
         4 002761   200167 235100                    LDA     NEXT,,AUTO
         4 002762   000232 115007                    CMPA    154,DL
         4 002763   015434 601000 4                  TNZ     s:20217
         4 002764   013641 710000 4                  TRA     s:19832
         4 002765   200167 236100                    LDQ     NEXT,,AUTO
         4 002766   000225 116007                    CMPQ    149,DL
         4 002767   003003 602000 4                  TNC     s:18401+463
PL6.E3A0      #001=ASL$DISP_ONE_PROFILE File=ASL$L_PRO.:E05TSI                   TUE 07/29/97 10:26 Page:219
         4 002770   013545 600000 4                  TZE     s:19808
         4 002771   000227 116007                    CMPQ    151,DL
         4 002772   002777 602000 4                  TNC     s:18401+459
         4 002773   013561 600000 4                  TZE     s:19816
         4 002774   000230 116007                    CMPQ    152,DL
         4 002775   015434 601000 4                  TNZ     s:20217
         4 002776   013567 710000 4                  TRA     s:19820
         4 002777   200167 235100                    LDA     NEXT,,AUTO
         4 003000   000226 115007                    CMPA    150,DL
         4 003001   015434 601000 4                  TNZ     s:20217
         4 003002   013553 710000 4                  TRA     s:19812
         4 003003   200167 236100                    LDQ     NEXT,,AUTO
         4 003004   000223 116007                    CMPQ    147,DL
         4 003005   003012 602000 4                  TNC     s:18401+470
         4 003006   013531 600000 4                  TZE     s:19800
         4 003007   000224 116007                    CMPQ    148,DL
         4 003010   015434 601000 4                  TNZ     s:20217
         4 003011   013537 710000 4                  TRA     s:19804
         4 003012   200167 235100                    LDA     NEXT,,AUTO
         4 003013   000222 115007                    CMPA    146,DL
         4 003014   015434 601000 4                  TNZ     s:20217
         4 003015   013522 710000 4                  TRA     s:19796
         4 003016   200167 236100                    LDQ     NEXT,,AUTO
         4 003017   000201 116007                    CMPQ    129,DL
         4 003020   003106 602000 4                  TNC     s:18401+530
         4 003021   013316 600000 4                  TZE     s:19737
         4 003022   000211 116007                    CMPQ    137,DL
         4 003023   003055 602000 4                  TNC     s:18401+505
         4 003024   013423 600000 4                  TZE     s:19769
         4 003025   000215 116007                    CMPQ    141,DL
         4 003026   003042 602000 4                  TNC     s:18401+494
         4 003027   013457 600000 4                  TZE     s:19781
         4 003030   000217 116007                    CMPQ    143,DL
         4 003031   003036 602000 4                  TNC     s:18401+490
         4 003032   013475 600000 4                  TZE     s:19787
         4 003033   000220 116007                    CMPQ    144,DL
         4 003034   015434 601000 4                  TNZ     s:20217
PL6.E3A0      #001=ASL$DISP_ONE_PROFILE File=ASL$L_PRO.:E05TSI                   TUE 07/29/97 10:26 Page:220
         4 003035   013504 710000 4                  TRA     s:19790
         4 003036   200167 235100                    LDA     NEXT,,AUTO
         4 003037   000216 115007                    CMPA    142,DL
         4 003040   015434 601000 4                  TNZ     s:20217
         4 003041   013466 710000 4                  TRA     s:19784
         4 003042   200167 236100                    LDQ     NEXT,,AUTO
         4 003043   000213 116007                    CMPQ    139,DL
         4 003044   003051 602000 4                  TNC     s:18401+501
         4 003045   013441 600000 4                  TZE     s:19775
         4 003046   000214 116007                    CMPQ    140,DL
         4 003047   015434 601000 4                  TNZ     s:20217
         4 003050   013450 710000 4                  TRA     s:19778
         4 003051   200167 235100                    LDA     NEXT,,AUTO
         4 003052   000212 115007                    CMPA    138,DL
         4 003053   015434 601000 4                  TNZ     s:20217
         4 003054   013432 710000 4                  TRA     s:19772
         4 003055   200167 236100                    LDQ     NEXT,,AUTO
         4 003056   000205 116007                    CMPQ    133,DL
         4 003057   003073 602000 4                  TNC     s:18401+519
         4 003060   013370 600000 4                  TZE     s:19756
         4 003061   000207 116007                    CMPQ    135,DL
         4 003062   003067 602000 4                  TNC     s:18401+515
         4 003063   013405 600000 4                  TZE     s:19763
         4 003064   000210 116007                    CMPQ    136,DL
         4 003065   015434 601000 4                  TNZ     s:20217
         4 003066   013414 710000 4                  TRA     s:19766
         4 003067   200167 235100                    LDA     NEXT,,AUTO
         4 003070   000206 115007                    CMPA    134,DL
         4 003071   015434 601000 4                  TNZ     s:20217
         4 003072   013376 710000 4                  TRA     s:19760
         4 003073   200167 236100                    LDQ     NEXT,,AUTO
         4 003074   000203 116007                    CMPQ    131,DL
         4 003075   003102 602000 4                  TNC     s:18401+526
         4 003076   013354 600000 4                  TZE     s:19748
         4 003077   000204 116007                    CMPQ    132,DL
         4 003100   015434 601000 4                  TNZ     s:20217
         4 003101   013362 710000 4                  TRA     s:19752
PL6.E3A0      #001=ASL$DISP_ONE_PROFILE File=ASL$L_PRO.:E05TSI                   TUE 07/29/97 10:26 Page:221
         4 003102   200167 235100                    LDA     NEXT,,AUTO
         4 003103   000202 115007                    CMPA    130,DL
         4 003104   015434 601000 4                  TNZ     s:20217
         4 003105   013345 710000 4                  TRA     s:19744
         4 003106   200167 236100                    LDQ     NEXT,,AUTO
         4 003107   000171 116007                    CMPQ    121,DL
         4 003110   003142 602000 4                  TNC     s:18401+558
         4 003111   012041 600000 4                  TZE     s:19577
         4 003112   000175 116007                    CMPQ    125,DL
         4 003113   003127 602000 4                  TNC     s:18401+547
         4 003114   013264 600000 4                  TZE     s:19721
         4 003115   000177 116007                    CMPQ    127,DL
         4 003116   003123 602000 4                  TNC     s:18401+543
         4 003117   013301 600000 4                  TZE     s:19729
         4 003120   000200 116007                    CMPQ    128,DL
         4 003121   015434 601000 4                  TNZ     s:20217
         4 003122   013307 710000 4                  TRA     s:19733
         4 003123   200167 235100                    LDA     NEXT,,AUTO
         4 003124   000176 115007                    CMPA    126,DL
         4 003125   015434 601000 4                  TNZ     s:20217
         4 003126   013273 710000 4                  TRA     s:19725
         4 003127   200167 236100                    LDQ     NEXT,,AUTO
         4 003130   000173 116007                    CMPQ    123,DL
         4 003131   003136 602000 4                  TNC     s:18401+554
         4 003132   013230 600000 4                  TZE     s:19708
         4 003133   000174 116007                    CMPQ    124,DL
         4 003134   015434 601000 4                  TNZ     s:20217
         4 003135   013255 710000 4                  TRA     s:19718
         4 003136   200167 235100                    LDA     NEXT,,AUTO
         4 003137   000172 115007                    CMPA    122,DL
         4 003140   015434 601000 4                  TNZ     s:20217
         4 003141   013177 710000 4                  TRA     s:19697
         4 003142   200167 236100                    LDQ     NEXT,,AUTO
         4 003143   000165 116007                    CMPQ    117,DL
         4 003144   003160 602000 4                  TNC     s:18401+572
         4 003145   010522 600000 4                  TZE     s:19291
         4 003146   000167 116007                    CMPQ    119,DL
PL6.E3A0      #001=ASL$DISP_ONE_PROFILE File=ASL$L_PRO.:E05TSI                   TUE 07/29/97 10:26 Page:222
         4 003147   003154 602000 4                  TNC     s:18401+568
         4 003150   011557 600000 4                  TZE     s:19495
         4 003151   000170 116007                    CMPQ    120,DL
         4 003152   015434 601000 4                  TNZ     s:20217
         4 003153   012052 710000 4                  TRA     s:19582
         4 003154   200167 235100                    LDA     NEXT,,AUTO
         4 003155   000166 115007                    CMPA    118,DL
         4 003156   015434 601000 4                  TNZ     s:20217
         4 003157   011543 710000 4                  TRA     s:19492
         4 003160   200167 236100                    LDQ     NEXT,,AUTO
         4 003161   000163 116007                    CMPQ    115,DL
         4 003162   003167 602000 4                  TNC     s:18401+579
         4 003163   011445 600000 4                  TZE     s:19474
         4 003164   000164 116007                    CMPQ    116,DL
         4 003165   015434 601000 4                  TNZ     s:20217
         4 003166   010513 710000 4                  TRA     s:19287
         4 003167   200167 235100                    LDA     NEXT,,AUTO
         4 003170   000162 115007                    CMPA    114,DL
         4 003171   015434 601000 4                  TNZ     s:20217
         4 003172   011346 710000 4                  TRA     s:19462
         4 003173   200167 236100                    LDQ     NEXT,,AUTO
         4 003174   000147 116007                    CMPQ    103,DL
         4 003175   003236 602000 4                  TNC     s:18401+618
         4 003176   011032 600000 4                  TZE     s:19411
         4 003177   000153 116007                    CMPQ    107,DL
         4 003200   003223 602000 4                  TNC     s:18401+607
         4 003201   011046 600000 4                  TZE     s:19419
         4 003202   000155 116007                    CMPQ    109,DL
         4 003203   003217 602000 4                  TNC     s:18401+603
         4 003204   011156 600000 4                  TZE     s:19434
         4 003205   000157 116007                    CMPQ    111,DL
         4 003206   003213 602000 4                  TNC     s:18401+599
         4 003207   011200 600000 4                  TZE     s:19441
         4 003210   000160 116007                    CMPQ    112,DL
         4 003211   015434 601000 4                  TNZ     s:20217
         4 003212   011211 710000 4                  TRA     s:19445
         4 003213   200167 235100                    LDA     NEXT,,AUTO
PL6.E3A0      #001=ASL$DISP_ONE_PROFILE File=ASL$L_PRO.:E05TSI                   TUE 07/29/97 10:26 Page:223
         4 003214   000156 115007                    CMPA    110,DL
         4 003215   015434 601000 4                  TNZ     s:20217
         4 003216   011167 710000 4                  TRA     s:19438
         4 003217   200167 235100                    LDA     NEXT,,AUTO
         4 003220   000154 115007                    CMPA    108,DL
         4 003221   015434 601000 4                  TNZ     s:20217
         4 003222   011057 710000 4                  TRA     s:19422
         4 003223   200167 236100                    LDQ     NEXT,,AUTO
         4 003224   000151 116007                    CMPQ    105,DL
         4 003225   003232 602000 4                  TNC     s:18401+614
         4 003226   010466 600000 4                  TZE     s:19275
         4 003227   000152 116007                    CMPQ    106,DL
         4 003230   015434 601000 4                  TNZ     s:20217
         4 003231   010475 710000 4                  TRA     s:19279
         4 003232   200167 235100                    LDA     NEXT,,AUTO
         4 003233   000150 115007                    CMPA    104,DL
         4 003234   015434 601000 4                  TNZ     s:20217
         4 003235   011040 710000 4                  TRA     s:19415
         4 003236   200167 236100                    LDQ     NEXT,,AUTO
         4 003237   000141 116007                    CMPQ    97,DL
         4 003240   003266 602000 4                  TNC     s:18401+642
         4 003241   010753 600000 4                  TZE     s:19380
         4 003242   000144 116007                    CMPQ    100,DL
         4 003243   003255 602000 4                  TNC     s:18401+633
         4 003244   011010 600000 4                  TZE     s:19399
         4 003245   000146 116007                    CMPQ    102,DL
         4 003246   003251 602000 4                  TNC     s:18401+629
         4 003247   011024 600000 4                  TZE     s:19407
         4 003250   015434 710000 4                  TRA     s:20217
         4 003251   200167 235100                    LDA     NEXT,,AUTO
         4 003252   000145 115007                    CMPA    101,DL
         4 003253   015434 601000 4                  TNZ     s:20217
         4 003254   011016 710000 4                  TRA     s:19403
         4 003255   200167 236100                    LDQ     NEXT,,AUTO
         4 003256   000143 116007                    CMPQ    99,DL
         4 003257   003262 602000 4                  TNC     s:18401+638
         4 003260   011002 600000 4                  TZE     s:19395
PL6.E3A0      #001=ASL$DISP_ONE_PROFILE File=ASL$L_PRO.:E05TSI                   TUE 07/29/97 10:26 Page:224
         4 003261   015434 710000 4                  TRA     s:20217
         4 003262   200167 235100                    LDA     NEXT,,AUTO
         4 003263   000142 115007                    CMPA    98,DL
         4 003264   015434 601000 4                  TNZ     s:20217
         4 003265   010761 710000 4                  TRA     s:19384
         4 003266   200167 236100                    LDQ     NEXT,,AUTO
         4 003267   000136 116007                    CMPQ    94,DL
         4 003270   003302 602000 4                  TNC     s:18401+654
         4 003271   010731 600000 4                  TZE     s:19368
         4 003272   000140 116007                    CMPQ    96,DL
         4 003273   003276 602000 4                  TNC     s:18401+650
         4 003274   010745 600000 4                  TZE     s:19376
         4 003275   015434 710000 4                  TRA     s:20217
         4 003276   200167 235100                    LDA     NEXT,,AUTO
         4 003277   000137 115007                    CMPA    95,DL
         4 003300   015434 601000 4                  TNZ     s:20217
         4 003301   010737 710000 4                  TRA     s:19372
         4 003302   200167 236100                    LDQ     NEXT,,AUTO
         4 003303   000135 116007                    CMPQ    93,DL
         4 003304   003307 602000 4                  TNC     s:18401+659
         4 003305   010723 600000 4                  TZE     s:19364
         4 003306   015434 710000 4                  TRA     s:20217
         4 003307   200167 235100                    LDA     NEXT,,AUTO
         4 003310   000134 115007                    CMPA    92,DL
         4 003311   015434 601000 4                  TNZ     s:20217
         4 003312   010715 710000 4                  TRA     s:19360
         4 003313   200167 236100                    LDQ     NEXT,,AUTO
         4 003314   000065 116007                    CMPQ    53,DL
         4 003315   003522 602000 4                  TNC     s:18401+798
         4 003316   006201 600000 4                  TZE     s:18976
         4 003317   000115 116007                    CMPQ    77,DL
         4 003320   003401 602000 4                  TNC     s:18401+717
         4 003321   007474 600000 4                  TZE     s:19170
         4 003322   000125 116007                    CMPQ    85,DL
         4 003323   003351 602000 4                  TNC     s:18401+693
         4 003324   010134 600000 4                  TZE     s:19233
         4 003325   000130 116007                    CMPQ    88,DL
PL6.E3A0      #001=ASL$DISP_ONE_PROFILE File=ASL$L_PRO.:E05TSI                   TUE 07/29/97 10:26 Page:225
         4 003326   003340 602000 4                  TNC     s:18401+684
         4 003327   010457 600000 4                  TZE     s:19271
         4 003330   000132 116007                    CMPQ    90,DL
         4 003331   003334 602000 4                  TNC     s:18401+680
         4 003332   010701 600000 4                  TZE     s:19352
         4 003333   015434 710000 4                  TRA     s:20217
         4 003334   200167 235100                    LDA     NEXT,,AUTO
         4 003335   000131 115007                    CMPA    89,DL
         4 003336   015434 601000 4                  TNZ     s:20217
         4 003337   010673 710000 4                  TRA     s:19348
         4 003340   200167 236100                    LDQ     NEXT,,AUTO
         4 003341   000127 116007                    CMPQ    87,DL
         4 003342   003345 602000 4                  TNC     s:18401+689
         4 003343   010446 600000 4                  TZE     s:19267
         4 003344   015434 710000 4                  TRA     s:20217
         4 003345   200167 235100                    LDA     NEXT,,AUTO
         4 003346   000126 115007                    CMPA    86,DL
         4 003347   015434 601000 4                  TNZ     s:20217
         4 003350   010271 710000 4                  TRA     s:19249
         4 003351   200167 236100                    LDQ     NEXT,,AUTO
         4 003352   000122 116007                    CMPQ    82,DL
         4 003353   003363 602000 4                  TNC     s:18401+703
         4 003354   007601 600000 4                  TZE     s:19192
         4 003355   000123 116007                    CMPQ    83,DL
         4 003356   015434 602000 4                  TNC     s:20217
         4 003357   007665 600000 4                  TZE     s:19203
         4 003360   000124 116007                    CMPQ    84,DL
         4 003361   015434 601000 4                  TNZ     s:20217
         4 003362   010030 710000 4                  TRA     s:19220
         4 003363   200167 236100                    LDQ     NEXT,,AUTO
         4 003364   000117 116007                    CMPQ    79,DL
         4 003365   003375 602000 4                  TNC     s:18401+713
         4 003366   007551 600000 4                  TZE     s:19185
         4 003367   000120 116007                    CMPQ    80,DL
         4 003370   015434 602000 4                  TNC     s:20217
         4 003371   010531 600000 4                  TZE     s:19295
         4 003372   000121 116007                    CMPQ    81,DL
PL6.E3A0      #001=ASL$DISP_ONE_PROFILE File=ASL$L_PRO.:E05TSI                   TUE 07/29/97 10:26 Page:226
         4 003373   015434 601000 4                  TNZ     s:20217
         4 003374   010540 710000 4                  TRA     s:19299
         4 003375   200167 235100                    LDA     NEXT,,AUTO
         4 003376   000116 115007                    CMPA    78,DL
         4 003377   015434 601000 4                  TNZ     s:20217
         4 003400   007521 710000 4                  TRA     s:19178
         4 003401   200167 236100                    LDQ     NEXT,,AUTO
         4 003402   000101 116007                    CMPQ    65,DL
         4 003403   003453 602000 4                  TNC     s:18401+759
         4 003404   007121 600000 4                  TZE     s:19091
         4 003405   000107 116007                    CMPQ    71,DL
         4 003406   003431 602000 4                  TNC     s:18401+741
         4 003407   007276 600000 4                  TZE     s:19128
         4 003410   000113 116007                    CMPQ    75,DL
         4 003411   003416 602000 4                  TNC     s:18401+730
         4 003412   007422 600000 4                  TZE     s:19156
         4 003413   000114 116007                    CMPQ    76,DL
         4 003414   015434 601000 4                  TNZ     s:20217
         4 003415   007447 710000 4                  TRA     s:19163
         4 003416   200167 236100                    LDQ     NEXT,,AUTO
         4 003417   000111 116007                    CMPQ    73,DL
         4 003420   003425 602000 4                  TNC     s:18401+737
         4 003421   007350 600000 4                  TZE     s:19142
         4 003422   000112 116007                    CMPQ    74,DL
         4 003423   015434 601000 4                  TNZ     s:20217
         4 003424   007375 710000 4                  TRA     s:19149
         4 003425   200167 235100                    LDA     NEXT,,AUTO
         4 003426   000110 115007                    CMPA    72,DL
         4 003427   015434 601000 4                  TNZ     s:20217
         4 003430   007323 710000 4                  TRA     s:19135
         4 003431   200167 236100                    LDQ     NEXT,,AUTO
         4 003432   000105 116007                    CMPQ    69,DL
         4 003433   003440 602000 4                  TNC     s:18401+748
         4 003434   007224 600000 4                  TZE     s:19114
         4 003435   000106 116007                    CMPQ    70,DL
         4 003436   015434 601000 4                  TNZ     s:20217
         4 003437   007251 710000 4                  TRA     s:19121
PL6.E3A0      #001=ASL$DISP_ONE_PROFILE File=ASL$L_PRO.:E05TSI                   TUE 07/29/97 10:26 Page:227
         4 003440   200167 236100                    LDQ     NEXT,,AUTO
         4 003441   000103 116007                    CMPQ    67,DL
         4 003442   003447 602000 4                  TNC     s:18401+755
         4 003443   007152 600000 4                  TZE     s:19100
         4 003444   000104 116007                    CMPQ    68,DL
         4 003445   015434 601000 4                  TNZ     s:20217
         4 003446   007177 710000 4                  TRA     s:19107
         4 003447   200167 235100                    LDA     NEXT,,AUTO
         4 003450   000102 115007                    CMPA    66,DL
         4 003451   015434 601000 4                  TNZ     s:20217
         4 003452   007132 710000 4                  TRA     s:19094
         4 003453   200167 236100                    LDQ     NEXT,,AUTO
         4 003454   000073 116007                    CMPQ    59,DL
         4 003455   003500 602000 4                  TNC     s:18401+780
         4 003456   006435 600000 4                  TZE     s:19038
         4 003457   000077 116007                    CMPQ    63,DL
         4 003460   003465 602000 4                  TNC     s:18401+769
         4 003461   007077 600000 4                  TZE     s:19085
         4 003462   000100 116007                    CMPQ    64,DL
         4 003463   015434 601000 4                  TNZ     s:20217
         4 003464   007110 710000 4                  TRA     s:19088
         4 003465   200167 236100                    LDQ     NEXT,,AUTO
         4 003466   000075 116007                    CMPQ    61,DL
         4 003467   003474 602000 4                  TNC     s:18401+776
         4 003470   007055 600000 4                  TZE     s:19079
         4 003471   000076 116007                    CMPQ    62,DL
         4 003472   015434 601000 4                  TNZ     s:20217
         4 003473   007066 710000 4                  TRA     s:19082
         4 003474   200167 235100                    LDA     NEXT,,AUTO
         4 003475   000074 115007                    CMPA    60,DL
         4 003476   015434 601000 4                  TNZ     s:20217
         4 003477   007044 710000 4                  TRA     s:19076
         4 003500   200167 236100                    LDQ     NEXT,,AUTO
         4 003501   000071 116007                    CMPQ    57,DL
         4 003502   003507 602000 4                  TNC     s:18401+787
         4 003503   006370 600000 4                  TZE     s:19023
         4 003504   000072 116007                    CMPQ    58,DL
PL6.E3A0      #001=ASL$DISP_ONE_PROFILE File=ASL$L_PRO.:E05TSI                   TUE 07/29/97 10:26 Page:228
         4 003505   015434 601000 4                  TNZ     s:20217
         4 003506   006401 710000 4                  TRA     s:19027
         4 003507   200167 236100                    LDQ     NEXT,,AUTO
         4 003510   000067 116007                    CMPQ    55,DL
         4 003511   003516 602000 4                  TNC     s:18401+794
         4 003512   006271 600000 4                  TZE     s:18998
         4 003513   000070 116007                    CMPQ    56,DL
         4 003514   015434 601000 4                  TNZ     s:20217
         4 003515   006334 710000 4                  TRA     s:19012
         4 003516   200167 235100                    LDA     NEXT,,AUTO
         4 003517   000066 115007                    CMPA    54,DL
         4 003520   015434 601000 4                  TNZ     s:20217
         4 003521   006235 710000 4                  TRA     s:18987
         4 003522   200167 236100                    LDQ     NEXT,,AUTO
         4 003523   000035 116007                    CMPQ    29,DL
         4 003524   003654 602000 4                  TNC     s:18401+888
         4 003525   005136 600000 4                  TZE     s:18709
         4 003526   000051 116007                    CMPQ    41,DL
         4 003527   003577 602000 4                  TNC     s:18401+843
         4 003530   005532 600000 4                  TZE     s:18841
         4 003531   000057 116007                    CMPQ    47,DL
         4 003532   003555 602000 4                  TNC     s:18401+825
         4 003533   005773 600000 4                  TZE     s:18921
         4 003534   000063 116007                    CMPQ    51,DL
         4 003535   003542 602000 4                  TNC     s:18401+814
         4 003536   006111 600000 4                  TZE     s:18954
         4 003537   000064 116007                    CMPQ    52,DL
         4 003540   015434 601000 4                  TNZ     s:20217
         4 003541   006145 710000 4                  TRA     s:18965
         4 003542   200167 236100                    LDQ     NEXT,,AUTO
         4 003543   000061 116007                    CMPQ    49,DL
         4 003544   003551 602000 4                  TNC     s:18401+821
         4 003545   006031 600000 4                  TZE     s:18932
         4 003546   000062 116007                    CMPQ    50,DL
         4 003547   015434 601000 4                  TNZ     s:20217
         4 003550   006053 710000 4                  TRA     s:18940
         4 003551   200167 235100                    LDA     NEXT,,AUTO
PL6.E3A0      #001=ASL$DISP_ONE_PROFILE File=ASL$L_PRO.:E05TSI                   TUE 07/29/97 10:26 Page:229
         4 003552   000060 115007                    CMPA    48,DL
         4 003553   015434 601000 4                  TNZ     s:20217
         4 003554   006020 710000 4                  TRA     s:18928
         4 003555   200167 236100                    LDQ     NEXT,,AUTO
         4 003556   000055 116007                    CMPQ    45,DL
         4 003557   003564 602000 4                  TNC     s:18401+832
         4 003560   005703 600000 4                  TZE     s:18896
         4 003561   000056 116007                    CMPQ    46,DL
         4 003562   015434 601000 4                  TNZ     s:20217
         4 003563   005730 710000 4                  TRA     s:18907
         4 003564   200167 236100                    LDQ     NEXT,,AUTO
         4 003565   000053 116007                    CMPQ    43,DL
         4 003566   003573 602000 4                  TNC     s:18401+839
         4 003567   005631 600000 4                  TZE     s:18874
         4 003570   000054 116007                    CMPQ    44,DL
         4 003571   015434 601000 4                  TNZ     s:20217
         4 003572   005656 710000 4                  TRA     s:18885
         4 003573   200167 235100                    LDA     NEXT,,AUTO
         4 003574   000052 115007                    CMPA    42,DL
         4 003575   015434 601000 4                  TNZ     s:20217
         4 003576   005557 710000 4                  TRA     s:18852
         4 003577   200167 236100                    LDQ     NEXT,,AUTO
         4 003600   000043 116007                    CMPQ    35,DL
         4 003601   003627 602000 4                  TNC     s:18401+867
         4 003602   005334 600000 4                  TZE     s:18775
         4 003603   000046 116007                    CMPQ    38,DL
         4 003604   003616 602000 4                  TNC     s:18401+858
         4 003605   005433 600000 4                  TZE     s:18808
         4 003606   000050 116007                    CMPQ    40,DL
         4 003607   003612 602000 4                  TNC     s:18401+854
         4 003610   005505 600000 4                  TZE     s:18830
         4 003611   015434 710000 4                  TRA     s:20217
         4 003612   200167 235100                    LDA     NEXT,,AUTO
         4 003613   000047 115007                    CMPA    39,DL
         4 003614   015434 601000 4                  TNZ     s:20217
         4 003615   005460 710000 4                  TRA     s:18819
         4 003616   200167 236100                    LDQ     NEXT,,AUTO
PL6.E3A0      #001=ASL$DISP_ONE_PROFILE File=ASL$L_PRO.:E05TSI                   TUE 07/29/97 10:26 Page:230
         4 003617   000045 116007                    CMPQ    37,DL
         4 003620   003623 602000 4                  TNC     s:18401+863
         4 003621   005406 600000 4                  TZE     s:18797
         4 003622   015434 710000 4                  TRA     s:20217
         4 003623   200167 235100                    LDA     NEXT,,AUTO
         4 003624   000044 115007                    CMPA    36,DL
         4 003625   015434 601000 4                  TNZ     s:20217
         4 003626   005361 710000 4                  TRA     s:18786
         4 003627   200167 236100                    LDQ     NEXT,,AUTO
         4 003630   000040 116007                    CMPQ    32,DL
         4 003631   003643 602000 4                  TNC     s:18401+879
         4 003632   005235 600000 4                  TZE     s:18742
         4 003633   000042 116007                    CMPQ    34,DL
         4 003634   003637 602000 4                  TNC     s:18401+875
         4 003635   005307 600000 4                  TZE     s:18764
         4 003636   015434 710000 4                  TRA     s:20217
         4 003637   200167 235100                    LDA     NEXT,,AUTO
         4 003640   000041 115007                    CMPA    33,DL
         4 003641   015434 601000 4                  TNZ     s:20217
         4 003642   005262 710000 4                  TRA     s:18753
         4 003643   200167 236100                    LDQ     NEXT,,AUTO
         4 003644   000037 116007                    CMPQ    31,DL
         4 003645   003650 602000 4                  TNC     s:18401+884
         4 003646   005210 600000 4                  TZE     s:18731
         4 003647   015434 710000 4                  TRA     s:20217
         4 003650   200167 235100                    LDA     NEXT,,AUTO
         4 003651   000036 115007                    CMPA    30,DL
         4 003652   015434 601000 4                  TNZ     s:20217
         4 003653   005163 710000 4                  TRA     s:18720
         4 003654   200167 236100                    LDQ     NEXT,,AUTO
         4 003655   000017 116007                    CMPQ    15,DL
         4 003656   003736 602000 4                  TNC     s:18401+938
         4 003657   004461 600000 4                  TZE     s:18555
         4 003660   000027 116007                    CMPQ    23,DL
         4 003661   003707 602000 4                  TNC     s:18401+915
         4 003662   004731 600000 4                  TZE     s:18641
         4 003663   000032 116007                    CMPQ    26,DL
PL6.E3A0      #001=ASL$DISP_ONE_PROFILE File=ASL$L_PRO.:E05TSI                   TUE 07/29/97 10:26 Page:231
         4 003664   003676 602000 4                  TNC     s:18401+906
         4 003665   005037 600000 4                  TZE     s:18676
         4 003666   000034 116007                    CMPQ    28,DL
         4 003667   003672 602000 4                  TNC     s:18401+902
         4 003670   005111 600000 4                  TZE     s:18698
         4 003671   015434 710000 4                  TRA     s:20217
         4 003672   200167 235100                    LDA     NEXT,,AUTO
         4 003673   000033 115007                    CMPA    27,DL
         4 003674   015434 601000 4                  TNZ     s:20217
         4 003675   005064 710000 4                  TRA     s:18687
         4 003676   200167 236100                    LDQ     NEXT,,AUTO
         4 003677   000031 116007                    CMPQ    25,DL
         4 003700   003703 602000 4                  TNC     s:18401+911
         4 003701   005012 600000 4                  TZE     s:18665
         4 003702   015434 710000 4                  TRA     s:20217
         4 003703   200167 235100                    LDA     NEXT,,AUTO
         4 003704   000030 115007                    CMPA    24,DL
         4 003705   015434 601000 4                  TNZ     s:20217
         4 003706   005003 710000 4                  TRA     s:18661
         4 003707   200167 236100                    LDQ     NEXT,,AUTO
         4 003710   000023 116007                    CMPQ    19,DL
         4 003711   003723 602000 4                  TNC     s:18401+927
         4 003712   004632 600000 4                  TZE     s:18608
         4 003713   000026 116007                    CMPQ    22,DL
         4 003714   003717 602000 4                  TNC     s:18401+923
         4 003715   004704 600000 4                  TZE     s:18630
         4 003716   015434 710000 4                  TRA     s:20217
         4 003717   200167 235100                    LDA     NEXT,,AUTO
         4 003720   000025 115007                    CMPA    21,DL
         4 003721   015434 601000 4                  TNZ     s:20217
         4 003722   004657 710000 4                  TRA     s:18619
         4 003723   200167 236100                    LDQ     NEXT,,AUTO
         4 003724   000021 116007                    CMPQ    17,DL
         4 003725   003732 602000 4                  TNC     s:18401+934
         4 003726   004560 600000 4                  TZE     s:18586
         4 003727   000022 116007                    CMPQ    18,DL
         4 003730   015434 601000 4                  TNZ     s:20217
PL6.E3A0      #001=ASL$DISP_ONE_PROFILE File=ASL$L_PRO.:E05TSI                   TUE 07/29/97 10:26 Page:232
         4 003731   004605 710000 4                  TRA     s:18597
         4 003732   200167 235100                    LDA     NEXT,,AUTO
         4 003733   000020 115007                    CMPA    16,DL
         4 003734   015434 601000 4                  TNZ     s:20217
         4 003735   004506 710000 4                  TRA     s:18566
         4 003736   200167 236100                    LDQ     NEXT,,AUTO
         4 003737   000007 116007                    CMPQ    7,DL
         4 003740   003772 602000 4                  TNC     s:18401+966
         4 003741   004245 600000 4                  TZE     s:18481
         4 003742   000013 116007                    CMPQ    11,DL
         4 003743   003757 602000 4                  TNC     s:18401+955
         4 003744   004335 600000 4                  TZE     s:18511
         4 003745   000015 116007                    CMPQ    13,DL
         4 003746   003753 602000 4                  TNC     s:18401+951
         4 003747   004407 600000 4                  TZE     s:18533
         4 003750   000016 116007                    CMPQ    14,DL
         4 003751   015434 601000 4                  TNZ     s:20217
         4 003752   004434 710000 4                  TRA     s:18544
         4 003753   200167 235100                    LDA     NEXT,,AUTO
         4 003754   000014 115007                    CMPA    12,DL
         4 003755   015434 601000 4                  TNZ     s:20217
         4 003756   004362 710000 4                  TRA     s:18522
         4 003757   200167 236100                    LDQ     NEXT,,AUTO
         4 003760   000011 116007                    CMPQ    9,DL
         4 003761   003766 602000 4                  TNC     s:18401+962
         4 003762   004263 600000 4                  TZE     s:18489
         4 003763   000012 116007                    CMPQ    10,DL
         4 003764   015434 601000 4                  TNZ     s:20217
         4 003765   004310 710000 4                  TRA     s:18500
         4 003766   200167 235100                    LDA     NEXT,,AUTO
         4 003767   000010 115007                    CMPA    8,DL
         4 003770   015434 601000 4                  TNZ     s:20217
         4 003771   004254 710000 4                  TRA     s:18485
         4 003772   200167 236100                    LDQ     NEXT,,AUTO
         4 003773   000003 116007                    CMPQ    3,DL
         4 003774   004010 602000 4                  TNC     s:18401+980
         4 003775   004121 600000 4                  TZE     s:18437
PL6.E3A0      #001=ASL$DISP_ONE_PROFILE File=ASL$L_PRO.:E05TSI                   TUE 07/29/97 10:26 Page:233
         4 003776   000005 116007                    CMPQ    5,DL
         4 003777   004004 602000 4                  TNC     s:18401+976
         4 004000   004173 600000 4                  TZE     s:18459
         4 004001   000006 116007                    CMPQ    6,DL
         4 004002   015434 601000 4                  TNZ     s:20217
         4 004003   004220 710000 4                  TRA     s:18470
         4 004004   200167 235100                    LDA     NEXT,,AUTO
         4 004005   000004 115007                    CMPA    4,DL
         4 004006   015434 601000 4                  TNZ     s:20217
         4 004007   004146 710000 4                  TRA     s:18448
         4 004010   200167 236100                    LDQ     NEXT,,AUTO
         4 004011   000001 116007                    CMPQ    1,DL
         4 004012   004017 602000 4                  TNC     s:18401+987
         4 004013   004047 600000 4                  TZE     s:18415
         4 004014   000002 116007                    CMPQ    2,DL
         4 004015   015434 601000 4                  TNZ     s:20217
         4 004016   004074 710000 4                  TRA     s:18426
         4 004017   000000 116003                    CMPQ    0,DU
         4 004020   004022 600000 4                  TZE     s:18404
         4 004021   015434 710000 4                  TRA     s:20217

      823    18402
      824    18403    4      SELECT(0 /* ACTONTRN */) ;

      825    18404    4      IF TCTL$ -> VLP$TRMCTRL.ACTONTRN# = '01'B

  18404  4 004022   000133 470400 2                  LDP0    TCTL$
         4 004023   000000 066500                    CMPB    filb='0'B
         4 004024   000000 610002                    BDSC    0,,PR0                   by=3,bit=1,n=2
         4 004025   000032 000022 5                  BDSC    26                       by=0,bit=0,n=18
         4 004026   004041 601000 4                  TNZ     s:18410

      826    18405    5      THEN DO;

      827    18406    5         FMT_VEC(FDS.NVECS#)=VECTOR(DC_STR);

  18406  4 004027   000011 235000 xsym               LDA     FDS+9
PL6.E3A0      #001=ASL$DISP_ONE_PROFILE File=ASL$L_PRO.:E05TSI                   TUE 07/29/97 10:26 Page:234
         4 004030   000001 735000                    ALS     1
         4 004031   000000 620005                    EAX0    0,AL
         4 004032   000000 621005                    EAX1    0,AL
         4 004033   000034 237000 5                  LDAQ    28
         4 004034   000000 755010 xsym               STA     FMT_VEC,X0
         4 004035   000001 756011 xsym               STQ     FMT_VEC+1,X1

      828    18407    5         CLASS=1 /* C_TEXT */;

  18407  4 004036   000001 235007                    LDA     1,DL
         4 004037   200162 755100                    STA     CLASS,,AUTO

      829    18408    5         END;

  18408  4 004040   015434 710000 4                  TRA     s:20217

      830    18409    5      ELSE DO;

      831    18410    5         YES_NO=TCTL$->VLP$TRMCTRL.ACTONTRN#;

  18410  4 004041   003100 060500                    CSL     bolr='003'O
         4 004042   000000 610001                    BDSC    0,,PR0                   by=3,bit=1,n=1
         4 004043   200165 000001                    BDSC    YES_NO,,AUTO             by=0,bit=0,n=1

      832    18411    5         CLASS=2 /* C_YESNO */;

  18411  4 004044   000002 235007                    LDA     2,DL
         4 004045   200162 755100                    STA     CLASS,,AUTO

      833    18412    5         END;

  18412  4 004046   015434 710000 4                  TRA     s:20217

      834    18413
      835    18414    4      SELECT(1 /* APL */) ;

      836    18415    4      IF TATR$ -> VLP$TRMATTR.APL# = '01'B
PL6.E3A0      #001=ASL$DISP_ONE_PROFILE File=ASL$L_PRO.:E05TSI                   TUE 07/29/97 10:26 Page:235

  18415  4 004047   000134 470400 2                  LDP0    TATR$
         4 004050   000000 066500                    CMPB    filb='0'B
         4 004051   000000 630002                    BDSC    0,,PR0                   by=3,bit=3,n=2
         4 004052   000032 000022 5                  BDSC    26                       by=0,bit=0,n=18
         4 004053   004066 601000 4                  TNZ     s:18421

      837    18416    5      THEN DO;

      838    18417    5         FMT_VEC(FDS.NVECS#)=VECTOR(DC_STR);

  18417  4 004054   000011 235000 xsym               LDA     FDS+9
         4 004055   000001 735000                    ALS     1
         4 004056   000000 620005                    EAX0    0,AL
         4 004057   000000 621005                    EAX1    0,AL
         4 004060   000034 237000 5                  LDAQ    28
         4 004061   000000 755010 xsym               STA     FMT_VEC,X0
         4 004062   000001 756011 xsym               STQ     FMT_VEC+1,X1

      839    18418    5         CLASS=1 /* C_TEXT */;

  18418  4 004063   000001 235007                    LDA     1,DL
         4 004064   200162 755100                    STA     CLASS,,AUTO

      840    18419    5         END;

  18419  4 004065   015434 710000 4                  TRA     s:20217

      841    18420    5      ELSE DO;

      842    18421    5         YES_NO=TATR$->VLP$TRMATTR.APL#;

  18421  4 004066   003100 060500                    CSL     bolr='003'O
         4 004067   000000 630001                    BDSC    0,,PR0                   by=3,bit=3,n=1
         4 004070   200165 000001                    BDSC    YES_NO,,AUTO             by=0,bit=0,n=1

      843    18422    5         CLASS=2 /* C_YESNO */;
PL6.E3A0      #001=ASL$DISP_ONE_PROFILE File=ASL$L_PRO.:E05TSI                   TUE 07/29/97 10:26 Page:236

  18422  4 004071   000002 235007                    LDA     2,DL
         4 004072   200162 755100                    STA     CLASS,,AUTO

      844    18423    5         END;

  18423  4 004073   015434 710000 4                  TRA     s:20217

      845    18424
      846    18425    4      SELECT(2 /* APLLCNRM */) ;

      847    18426    4      IF TCTL$ -> VLP$TRMCTRL.APLLCNRM# = '01'B

  18426  4 004074   000133 470400 2                  LDP0    TCTL$
         4 004075   000000 066500                    CMPB    filb='0'B
         4 004076   000000 630002                    BDSC    0,,PR0                   by=3,bit=3,n=2
         4 004077   000032 000022 5                  BDSC    26                       by=0,bit=0,n=18
         4 004100   004113 601000 4                  TNZ     s:18432

      848    18427    5      THEN DO;

      849    18428    5         FMT_VEC(FDS.NVECS#)=VECTOR(DC_STR);

  18428  4 004101   000011 235000 xsym               LDA     FDS+9
         4 004102   000001 735000                    ALS     1
         4 004103   000000 620005                    EAX0    0,AL
         4 004104   000000 621005                    EAX1    0,AL
         4 004105   000034 237000 5                  LDAQ    28
         4 004106   000000 755010 xsym               STA     FMT_VEC,X0
         4 004107   000001 756011 xsym               STQ     FMT_VEC+1,X1

      850    18429    5         CLASS=1 /* C_TEXT */;

  18429  4 004110   000001 235007                    LDA     1,DL
         4 004111   200162 755100                    STA     CLASS,,AUTO

      851    18430    5         END;
PL6.E3A0      #001=ASL$DISP_ONE_PROFILE File=ASL$L_PRO.:E05TSI                   TUE 07/29/97 10:26 Page:237

  18430  4 004112   015434 710000 4                  TRA     s:20217

      852    18431    5      ELSE DO;

      853    18432    5         YES_NO=TCTL$->VLP$TRMCTRL.APLLCNRM#;

  18432  4 004113   003100 060500                    CSL     bolr='003'O
         4 004114   000000 630001                    BDSC    0,,PR0                   by=3,bit=3,n=1
         4 004115   200165 000001                    BDSC    YES_NO,,AUTO             by=0,bit=0,n=1

      854    18433    5         CLASS=2 /* C_YESNO */;

  18433  4 004116   000002 235007                    LDA     2,DL
         4 004117   200162 755100                    STA     CLASS,,AUTO

      855    18434    5         END;

  18434  4 004120   015434 710000 4                  TRA     s:20217

      856    18435
      857    18436    4      SELECT(3 /* AUTONL */) ;

      858    18437    4      IF TATR$ -> VLP$TRMATTR.AUTONL# = '01'B

  18437  4 004121   000134 470400 2                  LDP0    TATR$
         4 004122   000000 066500                    CMPB    filb='0'B
         4 004123   000000 270002                    BDSC    0,,PR0                   by=1,bit=7,n=2
         4 004124   000032 000022 5                  BDSC    26                       by=0,bit=0,n=18
         4 004125   004140 601000 4                  TNZ     s:18443

      859    18438    5      THEN DO;

      860    18439    5         FMT_VEC(FDS.NVECS#)=VECTOR(DC_STR);

  18439  4 004126   000011 235000 xsym               LDA     FDS+9
         4 004127   000001 735000                    ALS     1
PL6.E3A0      #001=ASL$DISP_ONE_PROFILE File=ASL$L_PRO.:E05TSI                   TUE 07/29/97 10:26 Page:238
         4 004130   000000 620005                    EAX0    0,AL
         4 004131   000000 621005                    EAX1    0,AL
         4 004132   000034 237000 5                  LDAQ    28
         4 004133   000000 755010 xsym               STA     FMT_VEC,X0
         4 004134   000001 756011 xsym               STQ     FMT_VEC+1,X1

      861    18440    5         CLASS=1 /* C_TEXT */;

  18440  4 004135   000001 235007                    LDA     1,DL
         4 004136   200162 755100                    STA     CLASS,,AUTO

      862    18441    5         END;

  18441  4 004137   015434 710000 4                  TRA     s:20217

      863    18442    5      ELSE DO;

      864    18443    5         YES_NO=TATR$->VLP$TRMATTR.AUTONL#;

  18443  4 004140   003100 060500                    CSL     bolr='003'O
         4 004141   000000 270001                    BDSC    0,,PR0                   by=1,bit=7,n=1
         4 004142   200165 000001                    BDSC    YES_NO,,AUTO             by=0,bit=0,n=1

      865    18444    5         CLASS=2 /* C_YESNO */;

  18444  4 004143   000002 235007                    LDA     2,DL
         4 004144   200162 755100                    STA     CLASS,,AUTO

      866    18445    5         END;

  18445  4 004145   015434 710000 4                  TRA     s:20217

      867    18446
      868    18447    4      SELECT(4 /* BIN */) ;

      869    18448    4      IF TATR$ -> VLP$TRMATTR.BIN# = '01'B

PL6.E3A0      #001=ASL$DISP_ONE_PROFILE File=ASL$L_PRO.:E05TSI                   TUE 07/29/97 10:26 Page:239
  18448  4 004146   000134 470400 2                  LDP0    TATR$
         4 004147   000000 066500                    CMPB    filb='0'B
         4 004150   000000 650002                    BDSC    0,,PR0                   by=3,bit=5,n=2
         4 004151   000032 000022 5                  BDSC    26                       by=0,bit=0,n=18
         4 004152   004165 601000 4                  TNZ     s:18454

      870    18449    5      THEN DO;

      871    18450    5         FMT_VEC(FDS.NVECS#)=VECTOR(DC_STR);

  18450  4 004153   000011 235000 xsym               LDA     FDS+9
         4 004154   000001 735000                    ALS     1
         4 004155   000000 620005                    EAX0    0,AL
         4 004156   000000 621005                    EAX1    0,AL
         4 004157   000034 237000 5                  LDAQ    28
         4 004160   000000 755010 xsym               STA     FMT_VEC,X0
         4 004161   000001 756011 xsym               STQ     FMT_VEC+1,X1

      872    18451    5         CLASS=1 /* C_TEXT */;

  18451  4 004162   000001 235007                    LDA     1,DL
         4 004163   200162 755100                    STA     CLASS,,AUTO

      873    18452    5         END;

  18452  4 004164   015434 710000 4                  TRA     s:20217

      874    18453    5      ELSE DO;

      875    18454    5         YES_NO=TATR$->VLP$TRMATTR.BIN#;

  18454  4 004165   003100 060500                    CSL     bolr='003'O
         4 004166   000000 650001                    BDSC    0,,PR0                   by=3,bit=5,n=1
         4 004167   200165 000001                    BDSC    YES_NO,,AUTO             by=0,bit=0,n=1

      876    18455    5         CLASS=2 /* C_YESNO */;

PL6.E3A0      #001=ASL$DISP_ONE_PROFILE File=ASL$L_PRO.:E05TSI                   TUE 07/29/97 10:26 Page:240
  18455  4 004170   000002 235007                    LDA     2,DL
         4 004171   200162 755100                    STA     CLASS,,AUTO

      877    18456    5         END;

  18456  4 004172   015434 710000 4                  TRA     s:20217

      878    18457
      879    18458    4      SELECT(5 /* BLANKERASES */) ;

      880    18459    4      IF TATR$ -> VLP$TRMATTR.BLANKERASES# = '01'B

  18459  4 004173   000134 470400 2                  LDP0    TATR$
         4 004174   000000 066500                    CMPB    filb='0'B
         4 004175   000000 450002                    BDSC    0,,PR0                   by=2,bit=5,n=2
         4 004176   000032 000022 5                  BDSC    26                       by=0,bit=0,n=18
         4 004177   004212 601000 4                  TNZ     s:18465

      881    18460    5      THEN DO;

      882    18461    5         FMT_VEC(FDS.NVECS#)=VECTOR(DC_STR);

  18461  4 004200   000011 235000 xsym               LDA     FDS+9
         4 004201   000001 735000                    ALS     1
         4 004202   000000 620005                    EAX0    0,AL
         4 004203   000000 621005                    EAX1    0,AL
         4 004204   000034 237000 5                  LDAQ    28
         4 004205   000000 755010 xsym               STA     FMT_VEC,X0
         4 004206   000001 756011 xsym               STQ     FMT_VEC+1,X1

      883    18462    5         CLASS=1 /* C_TEXT */;

  18462  4 004207   000001 235007                    LDA     1,DL
         4 004210   200162 755100                    STA     CLASS,,AUTO

      884    18463    5         END;

PL6.E3A0      #001=ASL$DISP_ONE_PROFILE File=ASL$L_PRO.:E05TSI                   TUE 07/29/97 10:26 Page:241
  18463  4 004211   015434 710000 4                  TRA     s:20217

      885    18464    5      ELSE DO;

      886    18465    5         YES_NO=TATR$->VLP$TRMATTR.BLANKERASES#;

  18465  4 004212   003100 060500                    CSL     bolr='003'O
         4 004213   000000 450001                    BDSC    0,,PR0                   by=2,bit=5,n=1
         4 004214   200165 000001                    BDSC    YES_NO,,AUTO             by=0,bit=0,n=1

      887    18466    5         CLASS=2 /* C_YESNO */;

  18466  4 004215   000002 235007                    LDA     2,DL
         4 004216   200162 755100                    STA     CLASS,,AUTO

      888    18467    5         END;

  18467  4 004217   015434 710000 4                  TRA     s:20217

      889    18468
      890    18469    4      SELECT(6 /* CRISNL */) ;

      891    18470    4      IF TATR$ -> VLP$TRMATTR.CRISNL# = '01'B

  18470  4 004220   000134 470400 2                  LDP0    TATR$
         4 004221   000000 066500                    CMPB    filb='0'B
         4 004222   000000 410002                    BDSC    0,,PR0                   by=2,bit=1,n=2
         4 004223   000032 000022 5                  BDSC    26                       by=0,bit=0,n=18
         4 004224   004237 601000 4                  TNZ     s:18476

      892    18471    5      THEN DO;

      893    18472    5         FMT_VEC(FDS.NVECS#)=VECTOR(DC_STR);

  18472  4 004225   000011 235000 xsym               LDA     FDS+9
         4 004226   000001 735000                    ALS     1
         4 004227   000000 620005                    EAX0    0,AL
PL6.E3A0      #001=ASL$DISP_ONE_PROFILE File=ASL$L_PRO.:E05TSI                   TUE 07/29/97 10:26 Page:242
         4 004230   000000 621005                    EAX1    0,AL
         4 004231   000034 237000 5                  LDAQ    28
         4 004232   000000 755010 xsym               STA     FMT_VEC,X0
         4 004233   000001 756011 xsym               STQ     FMT_VEC+1,X1

      894    18473    5         CLASS=1 /* C_TEXT */;

  18473  4 004234   000001 235007                    LDA     1,DL
         4 004235   200162 755100                    STA     CLASS,,AUTO

      895    18474    5         END;

  18474  4 004236   015434 710000 4                  TRA     s:20217

      896    18475    5      ELSE DO;

      897    18476    5         YES_NO=TATR$->VLP$TRMATTR.CRISNL#;

  18476  4 004237   003100 060500                    CSL     bolr='003'O
         4 004240   000000 410001                    BDSC    0,,PR0                   by=2,bit=1,n=1
         4 004241   200165 000001                    BDSC    YES_NO,,AUTO             by=0,bit=0,n=1

      898    18477    5         CLASS=2 /* C_YESNO */;

  18477  4 004242   000002 235007                    LDA     2,DL
         4 004243   200162 755100                    STA     CLASS,,AUTO

      899    18478    5         END;

  18478  4 004244   015434 710000 4                  TRA     s:20217

      900    18479
      901    18480    4      SELECT(7 /* CUP_CLMFRS */) ;

      902    18481    4      YES_NO = TCCHR$ -> KL$CCHR.CUP_CLMFRS ;

  18481  4 004245   000137 470400 2                  LDP0    TCCHR$
PL6.E3A0      #001=ASL$DISP_ONE_PROFILE File=ASL$L_PRO.:E05TSI                   TUE 07/29/97 10:26 Page:243
         4 004246   003100 060500                    CSL     bolr='003'O
         4 004247   000011 010001                    BDSC    9,,PR0                   by=0,bit=1,n=1
         4 004250   200165 000001                    BDSC    YES_NO,,AUTO             by=0,bit=0,n=1

      903    18482    4      CLASS = 2 /* C_YESNO */ ;

  18482  4 004251   000002 235007                    LDA     2,DL
         4 004252   200162 755100                    STA     CLASS,,AUTO
         4 004253   015434 710000 4                  TRA     s:20217

      904    18483
      905    18484    4      SELECT(8 /* CUP_CMP */) ;

      906    18485    4      YES_NO = TCCHR$ -> KL$CCHR.CUP_CMP ;

  18485  4 004254   000137 470400 2                  LDP0    TCCHR$
         4 004255   003100 060500                    CSL     bolr='003'O
         4 004256   000011 020001                    BDSC    9,,PR0                   by=0,bit=2,n=1
         4 004257   200165 000001                    BDSC    YES_NO,,AUTO             by=0,bit=0,n=1

      907    18486    4      CLASS = 2 /* C_YESNO */ ;

  18486  4 004260   000002 235007                    LDA     2,DL
         4 004261   200162 755100                    STA     CLASS,,AUTO
         4 004262   015434 710000 4                  TRA     s:20217

      908    18487
      909    18488    4      SELECT(9 /* CURSORUP */) ;

      910    18489    4      IF TATR$ -> VLP$TRMATTR.CURSORUP# = '01'B

  18489  4 004263   000134 470400 2                  LDP0    TATR$
         4 004264   000000 066500                    CMPB    filb='0'B
         4 004265   000000 070002                    BDSC    0,,PR0                   by=0,bit=7,n=2
         4 004266   000032 000022 5                  BDSC    26                       by=0,bit=0,n=18
         4 004267   004302 601000 4                  TNZ     s:18495

PL6.E3A0      #001=ASL$DISP_ONE_PROFILE File=ASL$L_PRO.:E05TSI                   TUE 07/29/97 10:26 Page:244
      911    18490    5      THEN DO;

      912    18491    5         FMT_VEC(FDS.NVECS#)=VECTOR(DC_STR);

  18491  4 004270   000011 235000 xsym               LDA     FDS+9
         4 004271   000001 735000                    ALS     1
         4 004272   000000 620005                    EAX0    0,AL
         4 004273   000000 621005                    EAX1    0,AL
         4 004274   000034 237000 5                  LDAQ    28
         4 004275   000000 755010 xsym               STA     FMT_VEC,X0
         4 004276   000001 756011 xsym               STQ     FMT_VEC+1,X1

      913    18492    5         CLASS=1 /* C_TEXT */;

  18492  4 004277   000001 235007                    LDA     1,DL
         4 004300   200162 755100                    STA     CLASS,,AUTO

      914    18493    5         END;

  18493  4 004301   015434 710000 4                  TRA     s:20217

      915    18494    5      ELSE DO;

      916    18495    5         YES_NO=TATR$->VLP$TRMATTR.CURSORUP#;

  18495  4 004302   003100 060500                    CSL     bolr='003'O
         4 004303   000000 070001                    BDSC    0,,PR0                   by=0,bit=7,n=1
         4 004304   200165 000001                    BDSC    YES_NO,,AUTO             by=0,bit=0,n=1

      917    18496    5         CLASS=2 /* C_YESNO */;

  18496  4 004305   000002 235007                    LDA     2,DL
         4 004306   200162 755100                    STA     CLASS,,AUTO

      918    18497    5         END;

  18497  4 004307   015434 710000 4                  TRA     s:20217
PL6.E3A0      #001=ASL$DISP_ONE_PROFILE File=ASL$L_PRO.:E05TSI                   TUE 07/29/97 10:26 Page:245

      919    18498
      920    18499    4      SELECT(10 /* DEVICEBS */) ;

      921    18500    4      IF TATR$ -> VLP$TRMATTR.DEVICEBS# = '01'B

  18500  4 004310   000134 470400 2                  LDP0    TATR$
         4 004311   000000 066500                    CMPB    filb='0'B
         4 004312   000000 250002                    BDSC    0,,PR0                   by=1,bit=5,n=2
         4 004313   000032 000022 5                  BDSC    26                       by=0,bit=0,n=18
         4 004314   004327 601000 4                  TNZ     s:18506

      922    18501    5      THEN DO;

      923    18502    5         FMT_VEC(FDS.NVECS#)=VECTOR(DC_STR);

  18502  4 004315   000011 235000 xsym               LDA     FDS+9
         4 004316   000001 735000                    ALS     1
         4 004317   000000 620005                    EAX0    0,AL
         4 004320   000000 621005                    EAX1    0,AL
         4 004321   000034 237000 5                  LDAQ    28
         4 004322   000000 755010 xsym               STA     FMT_VEC,X0
         4 004323   000001 756011 xsym               STQ     FMT_VEC+1,X1

      924    18503    5         CLASS=1 /* C_TEXT */;

  18503  4 004324   000001 235007                    LDA     1,DL
         4 004325   200162 755100                    STA     CLASS,,AUTO

      925    18504    5         END;

  18504  4 004326   015434 710000 4                  TRA     s:20217

      926    18505    5      ELSE DO;

      927    18506    5         YES_NO=TATR$->VLP$TRMATTR.DEVICEBS#;

PL6.E3A0      #001=ASL$DISP_ONE_PROFILE File=ASL$L_PRO.:E05TSI                   TUE 07/29/97 10:26 Page:246
  18506  4 004327   003100 060500                    CSL     bolr='003'O
         4 004330   000000 250001                    BDSC    0,,PR0                   by=1,bit=5,n=1
         4 004331   200165 000001                    BDSC    YES_NO,,AUTO             by=0,bit=0,n=1

      928    18507    5         CLASS=2 /* C_YESNO */;

  18507  4 004332   000002 235007                    LDA     2,DL
         4 004333   200162 755100                    STA     CLASS,,AUTO

      929    18508    5         END;

  18508  4 004334   015434 710000 4                  TRA     s:20217

      930    18509
      931    18510    4      SELECT(11 /* DEVICECR */) ;

      932    18511    4      IF TATR$ -> VLP$TRMATTR.DEVICECR# = '01'B

  18511  4 004335   000134 470400 2                  LDP0    TATR$
         4 004336   000000 066500                    CMPB    filb='0'B
         4 004337   000000 210002                    BDSC    0,,PR0                   by=1,bit=1,n=2
         4 004340   000032 000022 5                  BDSC    26                       by=0,bit=0,n=18
         4 004341   004354 601000 4                  TNZ     s:18517

      933    18512    5      THEN DO;

      934    18513    5         FMT_VEC(FDS.NVECS#)=VECTOR(DC_STR);

  18513  4 004342   000011 235000 xsym               LDA     FDS+9
         4 004343   000001 735000                    ALS     1
         4 004344   000000 620005                    EAX0    0,AL
         4 004345   000000 621005                    EAX1    0,AL
         4 004346   000034 237000 5                  LDAQ    28
         4 004347   000000 755010 xsym               STA     FMT_VEC,X0
         4 004350   000001 756011 xsym               STQ     FMT_VEC+1,X1

      935    18514    5         CLASS=1 /* C_TEXT */;
PL6.E3A0      #001=ASL$DISP_ONE_PROFILE File=ASL$L_PRO.:E05TSI                   TUE 07/29/97 10:26 Page:247

  18514  4 004351   000001 235007                    LDA     1,DL
         4 004352   200162 755100                    STA     CLASS,,AUTO

      936    18515    5         END;

  18515  4 004353   015434 710000 4                  TRA     s:20217

      937    18516    5      ELSE DO;

      938    18517    5         YES_NO=TATR$->VLP$TRMATTR.DEVICECR#;

  18517  4 004354   003100 060500                    CSL     bolr='003'O
         4 004355   000000 210001                    BDSC    0,,PR0                   by=1,bit=1,n=1
         4 004356   200165 000001                    BDSC    YES_NO,,AUTO             by=0,bit=0,n=1

      939    18518    5         CLASS=2 /* C_YESNO */;

  18518  4 004357   000002 235007                    LDA     2,DL
         4 004360   200162 755100                    STA     CLASS,,AUTO

      940    18519    5         END;

  18519  4 004361   015434 710000 4                  TRA     s:20217

      941    18520
      942    18521    4      SELECT(12 /* DEVICELF */) ;

      943    18522    4      IF TATR$ -> VLP$TRMATTR.DEVICELF# = '01'B

  18522  4 004362   000134 470400 2                  LDP0    TATR$
         4 004363   000000 066500                    CMPB    filb='0'B
         4 004364   000000 230002                    BDSC    0,,PR0                   by=1,bit=3,n=2
         4 004365   000032 000022 5                  BDSC    26                       by=0,bit=0,n=18
         4 004366   004401 601000 4                  TNZ     s:18528

      944    18523    5      THEN DO;
PL6.E3A0      #001=ASL$DISP_ONE_PROFILE File=ASL$L_PRO.:E05TSI                   TUE 07/29/97 10:26 Page:248

      945    18524    5         FMT_VEC(FDS.NVECS#)=VECTOR(DC_STR);

  18524  4 004367   000011 235000 xsym               LDA     FDS+9
         4 004370   000001 735000                    ALS     1
         4 004371   000000 620005                    EAX0    0,AL
         4 004372   000000 621005                    EAX1    0,AL
         4 004373   000034 237000 5                  LDAQ    28
         4 004374   000000 755010 xsym               STA     FMT_VEC,X0
         4 004375   000001 756011 xsym               STQ     FMT_VEC+1,X1

      946    18525    5         CLASS=1 /* C_TEXT */;

  18525  4 004376   000001 235007                    LDA     1,DL
         4 004377   200162 755100                    STA     CLASS,,AUTO

      947    18526    5         END;

  18526  4 004400   015434 710000 4                  TRA     s:20217

      948    18527    5      ELSE DO;

      949    18528    5         YES_NO=TATR$->VLP$TRMATTR.DEVICELF#;

  18528  4 004401   003100 060500                    CSL     bolr='003'O
         4 004402   000000 230001                    BDSC    0,,PR0                   by=1,bit=3,n=1
         4 004403   200165 000001                    BDSC    YES_NO,,AUTO             by=0,bit=0,n=1

      950    18529    5         CLASS=2 /* C_YESNO */;

  18529  4 004404   000002 235007                    LDA     2,DL
         4 004405   200162 755100                    STA     CLASS,,AUTO

      951    18530    5         END;

  18530  4 004406   015434 710000 4                  TRA     s:20217

PL6.E3A0      #001=ASL$DISP_ONE_PROFILE File=ASL$L_PRO.:E05TSI                   TUE 07/29/97 10:26 Page:249
      952    18531
      953    18532    4      SELECT(13 /* DEVPOSOPTS */) ;

      954    18533    4      IF TATR$ -> VLP$TRMATTR.DEVPOSOPTS# = '01'B

  18533  4 004407   000134 470400 2                  LDP0    TATR$
         4 004410   000000 066500                    CMPB    filb='0'B
         4 004411   000000 470002                    BDSC    0,,PR0                   by=2,bit=7,n=2
         4 004412   000032 000022 5                  BDSC    26                       by=0,bit=0,n=18
         4 004413   004426 601000 4                  TNZ     s:18539

      955    18534    5      THEN DO;

      956    18535    5         FMT_VEC(FDS.NVECS#)=VECTOR(DC_STR);

  18535  4 004414   000011 235000 xsym               LDA     FDS+9
         4 004415   000001 735000                    ALS     1
         4 004416   000000 620005                    EAX0    0,AL
         4 004417   000000 621005                    EAX1    0,AL
         4 004420   000034 237000 5                  LDAQ    28
         4 004421   000000 755010 xsym               STA     FMT_VEC,X0
         4 004422   000001 756011 xsym               STQ     FMT_VEC+1,X1

      957    18536    5         CLASS=1 /* C_TEXT */;

  18536  4 004423   000001 235007                    LDA     1,DL
         4 004424   200162 755100                    STA     CLASS,,AUTO

      958    18537    5         END;

  18537  4 004425   015434 710000 4                  TRA     s:20217

      959    18538    5      ELSE DO;

      960    18539    5         YES_NO=TATR$->VLP$TRMATTR.DEVPOSOPTS#;

  18539  4 004426   003100 060500                    CSL     bolr='003'O
PL6.E3A0      #001=ASL$DISP_ONE_PROFILE File=ASL$L_PRO.:E05TSI                   TUE 07/29/97 10:26 Page:250
         4 004427   000000 470001                    BDSC    0,,PR0                   by=2,bit=7,n=1
         4 004430   200165 000001                    BDSC    YES_NO,,AUTO             by=0,bit=0,n=1

      961    18540    5         CLASS=2 /* C_YESNO */;

  18540  4 004431   000002 235007                    LDA     2,DL
         4 004432   200162 755100                    STA     CLASS,,AUTO

      962    18541    5         END;

  18541  4 004433   015434 710000 4                  TRA     s:20217

      963    18542
      964    18543    4      SELECT(14 /* DEVSCROLL */) ;

      965    18544    4      IF TATR$ -> VLP$TRMATTR.DEVSCROLL# = '01'B

  18544  4 004434   000134 470400 2                  LDP0    TATR$
         4 004435   000000 066500                    CMPB    filb='0'B
         4 004436   000000 050002                    BDSC    0,,PR0                   by=0,bit=5,n=2
         4 004437   000032 000022 5                  BDSC    26                       by=0,bit=0,n=18
         4 004440   004453 601000 4                  TNZ     s:18550

      966    18545    5      THEN DO;

      967    18546    5         FMT_VEC(FDS.NVECS#)=VECTOR(DC_STR);

  18546  4 004441   000011 235000 xsym               LDA     FDS+9
         4 004442   000001 735000                    ALS     1
         4 004443   000000 620005                    EAX0    0,AL
         4 004444   000000 621005                    EAX1    0,AL
         4 004445   000034 237000 5                  LDAQ    28
         4 004446   000000 755010 xsym               STA     FMT_VEC,X0
         4 004447   000001 756011 xsym               STQ     FMT_VEC+1,X1

      968    18547    5         CLASS=1 /* C_TEXT */;

PL6.E3A0      #001=ASL$DISP_ONE_PROFILE File=ASL$L_PRO.:E05TSI                   TUE 07/29/97 10:26 Page:251
  18547  4 004450   000001 235007                    LDA     1,DL
         4 004451   200162 755100                    STA     CLASS,,AUTO

      969    18548    5         END;

  18548  4 004452   015434 710000 4                  TRA     s:20217

      970    18549    5      ELSE DO;

      971    18550    5         YES_NO=TATR$->VLP$TRMATTR.DEVSCROLL#;

  18550  4 004453   003100 060500                    CSL     bolr='003'O
         4 004454   000000 050001                    BDSC    0,,PR0                   by=0,bit=5,n=1
         4 004455   200165 000001                    BDSC    YES_NO,,AUTO             by=0,bit=0,n=1

      972    18551    5         CLASS=2 /* C_YESNO */;

  18551  4 004456   000002 235007                    LDA     2,DL
         4 004457   200162 755100                    STA     CLASS,,AUTO

      973    18552    5         END;

  18552  4 004460   015434 710000 4                  TRA     s:20217

      974    18553
      975    18554    4      SELECT(15 /* DISPINPUT */) ;

      976    18555    4      IF TCTL$ -> VLP$TRMCTRL.DISPINPUT# = '01'B

  18555  4 004461   000133 470400 2                  LDP0    TCTL$
         4 004462   000000 066500                    CMPB    filb='0'B
         4 004463   000000 210002                    BDSC    0,,PR0                   by=1,bit=1,n=2
         4 004464   000032 000022 5                  BDSC    26                       by=0,bit=0,n=18
         4 004465   004500 601000 4                  TNZ     s:18561

      977    18556    5      THEN DO;

PL6.E3A0      #001=ASL$DISP_ONE_PROFILE File=ASL$L_PRO.:E05TSI                   TUE 07/29/97 10:26 Page:252
      978    18557    5         FMT_VEC(FDS.NVECS#)=VECTOR(DC_STR);

  18557  4 004466   000011 235000 xsym               LDA     FDS+9
         4 004467   000001 735000                    ALS     1
         4 004470   000000 620005                    EAX0    0,AL
         4 004471   000000 621005                    EAX1    0,AL
         4 004472   000034 237000 5                  LDAQ    28
         4 004473   000000 755010 xsym               STA     FMT_VEC,X0
         4 004474   000001 756011 xsym               STQ     FMT_VEC+1,X1

      979    18558    5         CLASS=1 /* C_TEXT */;

  18558  4 004475   000001 235007                    LDA     1,DL
         4 004476   200162 755100                    STA     CLASS,,AUTO

      980    18559    5         END;

  18559  4 004477   015434 710000 4                  TRA     s:20217

      981    18560    5      ELSE DO;

      982    18561    5         YES_NO=TCTL$->VLP$TRMCTRL.DISPINPUT#;

  18561  4 004500   003100 060500                    CSL     bolr='003'O
         4 004501   000000 210001                    BDSC    0,,PR0                   by=1,bit=1,n=1
         4 004502   200165 000001                    BDSC    YES_NO,,AUTO             by=0,bit=0,n=1

      983    18562    5         CLASS=2 /* C_YESNO */;

  18562  4 004503   000002 235007                    LDA     2,DL
         4 004504   200162 755100                    STA     CLASS,,AUTO

      984    18563    5         END;

  18563  4 004505   015434 710000 4                  TRA     s:20217

      985    18564
PL6.E3A0      #001=ASL$DISP_ONE_PROFILE File=ASL$L_PRO.:E05TSI                   TUE 07/29/97 10:26 Page:253
      986    18565    4      SELECT(16 /* EDITOVR */) ;

      987    18566    4      IF TCTL$ -> VLP$TRMCTRL.EDITOVR# = '01'B

  18566  4 004506   000133 470400 2                  LDP0    TCTL$
         4 004507   000000 066500                    CMPB    filb='0'B
         4 004510   000000 670002                    BDSC    0,,PR0                   by=3,bit=7,n=2
         4 004511   000032 000022 5                  BDSC    26                       by=0,bit=0,n=18
         4 004512   004525 601000 4                  TNZ     s:18572

      988    18567    5      THEN DO;

      989    18568    5         FMT_VEC(FDS.NVECS#)=VECTOR(DC_STR);

  18568  4 004513   000011 235000 xsym               LDA     FDS+9
         4 004514   000001 735000                    ALS     1
         4 004515   000000 620005                    EAX0    0,AL
         4 004516   000000 621005                    EAX1    0,AL
         4 004517   000034 237000 5                  LDAQ    28
         4 004520   000000 755010 xsym               STA     FMT_VEC,X0
         4 004521   000001 756011 xsym               STQ     FMT_VEC+1,X1

      990    18569    5         CLASS=1 /* C_TEXT */;

  18569  4 004522   000001 235007                    LDA     1,DL
         4 004523   200162 755100                    STA     CLASS,,AUTO

      991    18570    5         END;

  18570  4 004524   015434 710000 4                  TRA     s:20217

      992    18571    5      ELSE DO;

      993    18572    5         YES_NO=TCTL$->VLP$TRMCTRL.EDITOVR#;

  18572  4 004525   003100 060500                    CSL     bolr='003'O
         4 004526   000000 670001                    BDSC    0,,PR0                   by=3,bit=7,n=1
PL6.E3A0      #001=ASL$DISP_ONE_PROFILE File=ASL$L_PRO.:E05TSI                   TUE 07/29/97 10:26 Page:254
         4 004527   200165 000001                    BDSC    YES_NO,,AUTO             by=0,bit=0,n=1

      994    18573    5         CLASS=2 /* C_YESNO */;

  18573  4 004530   000002 235007                    LDA     2,DL
         4 004531   200162 755100                    STA     CLASS,,AUTO

      995    18574    5         END;

  18574  4 004532   015434 710000 4                  TRA     s:20217

      996    18575    4      SELECT  (216 /* L_FF_INCCR    */);

      997    18576    4      IF TATR$ ->VLP$TRMATTR.FF_INCCR# = '01'B

  18576  4 004533   000134 470400 2                  LDP0    TATR$
         4 004534   000000 066500                    CMPB    filb='0'B
         4 004535   000007 410002                    BDSC    7,,PR0                   by=2,bit=1,n=2
         4 004536   000032 000022 5                  BDSC    26                       by=0,bit=0,n=18
         4 004537   004552 601000 4                  TNZ     s:18582

      998    18577    5      THEN DO;

      999    18578    5         FMT_VEC(FDS.NVECS#)=VECTOR(DC_STR);

  18578  4 004540   000011 235000 xsym               LDA     FDS+9
         4 004541   000001 735000                    ALS     1
         4 004542   000000 620005                    EAX0    0,AL
         4 004543   000000 621005                    EAX1    0,AL
         4 004544   000034 237000 5                  LDAQ    28
         4 004545   000000 755010 xsym               STA     FMT_VEC,X0
         4 004546   000001 756011 xsym               STQ     FMT_VEC+1,X1

     1000    18579    5         CLASS=1 /* C_TEXT */;

  18579  4 004547   000001 235007                    LDA     1,DL
         4 004550   200162 755100                    STA     CLASS,,AUTO
PL6.E3A0      #001=ASL$DISP_ONE_PROFILE File=ASL$L_PRO.:E05TSI                   TUE 07/29/97 10:26 Page:255

     1001    18580    5         END;

  18580  4 004551   015434 710000 4                  TRA     s:20217

     1002    18581    5      ELSE DO;

     1003    18582    5         YES_NO=TATR$ -> VLP$TRMATTR.FF_INCCR#;

  18582  4 004552   003100 060500                    CSL     bolr='003'O
         4 004553   000007 410001                    BDSC    7,,PR0                   by=2,bit=1,n=1
         4 004554   200165 000001                    BDSC    YES_NO,,AUTO             by=0,bit=0,n=1

     1004    18583    5         CLASS = 2 /* C_YESNO */;

  18583  4 004555   000002 235007                    LDA     2,DL
         4 004556   200162 755100                    STA     CLASS,,AUTO

     1005    18584    5         END;

  18584  4 004557   015434 710000 4                  TRA     s:20217

     1006    18585    4      SELECT(17 /* FULLDUXPAPERTAPE */);

     1007    18586    4      IF TCTL$ -> VLP$TRMCTRL.FULLDUXPAPERTAPE# = '01'B

  18586  4 004560   000133 470400 2                  LDP0    TCTL$
         4 004561   000000 066500                    CMPB    filb='0'B
         4 004562   000000 450002                    BDSC    0,,PR0                   by=2,bit=5,n=2
         4 004563   000032 000022 5                  BDSC    26                       by=0,bit=0,n=18
         4 004564   004577 601000 4                  TNZ     s:18592

     1008    18587    5      THEN DO;

     1009    18588    5         FMT_VEC(FDS.NVECS#)=VECTOR(DC_STR);

  18588  4 004565   000011 235000 xsym               LDA     FDS+9
PL6.E3A0      #001=ASL$DISP_ONE_PROFILE File=ASL$L_PRO.:E05TSI                   TUE 07/29/97 10:26 Page:256
         4 004566   000001 735000                    ALS     1
         4 004567   000000 620005                    EAX0    0,AL
         4 004570   000000 621005                    EAX1    0,AL
         4 004571   000034 237000 5                  LDAQ    28
         4 004572   000000 755010 xsym               STA     FMT_VEC,X0
         4 004573   000001 756011 xsym               STQ     FMT_VEC+1,X1

     1010    18589    5         CLASS=1 /* C_TEXT */;

  18589  4 004574   000001 235007                    LDA     1,DL
         4 004575   200162 755100                    STA     CLASS,,AUTO

     1011    18590    5         END;

  18590  4 004576   015434 710000 4                  TRA     s:20217

     1012    18591    5      ELSE DO;

     1013    18592    5         YES_NO=TCTL$->VLP$TRMCTRL.FULLDUXPAPERTAPE#;

  18592  4 004577   003100 060500                    CSL     bolr='003'O
         4 004600   000000 450001                    BDSC    0,,PR0                   by=2,bit=5,n=1
         4 004601   200165 000001                    BDSC    YES_NO,,AUTO             by=0,bit=0,n=1

     1014    18593    5         CLASS=2 /* C_YESNO */;

  18593  4 004602   000002 235007                    LDA     2,DL
         4 004603   200162 755100                    STA     CLASS,,AUTO

     1015    18594    5         END;

  18594  4 004604   015434 710000 4                  TRA     s:20217

     1016    18595
     1017    18596    4      SELECT(18 /* HALFDUXPAPERTAPE */) ;

     1018    18597    4      IF TCTL$ -> VLP$TRMCTRL.HALFDUXPAPERTAPE# = '01'B
PL6.E3A0      #001=ASL$DISP_ONE_PROFILE File=ASL$L_PRO.:E05TSI                   TUE 07/29/97 10:26 Page:257

  18597  4 004605   000133 470400 2                  LDP0    TCTL$
         4 004606   000000 066500                    CMPB    filb='0'B
         4 004607   000000 470002                    BDSC    0,,PR0                   by=2,bit=7,n=2
         4 004610   000032 000022 5                  BDSC    26                       by=0,bit=0,n=18
         4 004611   004624 601000 4                  TNZ     s:18603

     1019    18598    5      THEN DO;

     1020    18599    5         FMT_VEC(FDS.NVECS#)=VECTOR(DC_STR);

  18599  4 004612   000011 235000 xsym               LDA     FDS+9
         4 004613   000001 735000                    ALS     1
         4 004614   000000 620005                    EAX0    0,AL
         4 004615   000000 621005                    EAX1    0,AL
         4 004616   000034 237000 5                  LDAQ    28
         4 004617   000000 755010 xsym               STA     FMT_VEC,X0
         4 004620   000001 756011 xsym               STQ     FMT_VEC+1,X1

     1021    18600    5         CLASS=1 /* C_TEXT */;

  18600  4 004621   000001 235007                    LDA     1,DL
         4 004622   200162 755100                    STA     CLASS,,AUTO

     1022    18601    5         END;

  18601  4 004623   015434 710000 4                  TRA     s:20217

     1023    18602    5      ELSE DO;

     1024    18603    5         YES_NO=TCTL$->VLP$TRMCTRL.HALFDUXPAPERTAPE#;

  18603  4 004624   003100 060500                    CSL     bolr='003'O
         4 004625   000000 470001                    BDSC    0,,PR0                   by=2,bit=7,n=1
         4 004626   200165 000001                    BDSC    YES_NO,,AUTO             by=0,bit=0,n=1

     1025    18604    5         CLASS=2 /* C_YESNO */;
PL6.E3A0      #001=ASL$DISP_ONE_PROFILE File=ASL$L_PRO.:E05TSI                   TUE 07/29/97 10:26 Page:258

  18604  4 004627   000002 235007                    LDA     2,DL
         4 004630   200162 755100                    STA     CLASS,,AUTO

     1026    18605    5         END;

  18605  4 004631   015434 710000 4                  TRA     s:20217

     1027    18606
     1028    18607    4      SELECT(19 /* INPUT */) ;

     1029    18608    4      IF TATR$ -> VLP$TRMATTR.INPUT# = '01'B

  18608  4 004632   000134 470400 2                  LDP0    TATR$
         4 004633   000000 066500                    CMPB    filb='0'B
         4 004634   000001 210002                    BDSC    1,,PR0                   by=1,bit=1,n=2
         4 004635   000032 000022 5                  BDSC    26                       by=0,bit=0,n=18
         4 004636   004651 601000 4                  TNZ     s:18614

     1030    18609    5      THEN DO;

     1031    18610    5         FMT_VEC(FDS.NVECS#)=VECTOR(DC_STR);

  18610  4 004637   000011 235000 xsym               LDA     FDS+9
         4 004640   000001 735000                    ALS     1
         4 004641   000000 620005                    EAX0    0,AL
         4 004642   000000 621005                    EAX1    0,AL
         4 004643   000034 237000 5                  LDAQ    28
         4 004644   000000 755010 xsym               STA     FMT_VEC,X0
         4 004645   000001 756011 xsym               STQ     FMT_VEC+1,X1

     1032    18611    5         CLASS=1 /* C_TEXT */;

  18611  4 004646   000001 235007                    LDA     1,DL
         4 004647   200162 755100                    STA     CLASS,,AUTO

     1033    18612    5         END;
PL6.E3A0      #001=ASL$DISP_ONE_PROFILE File=ASL$L_PRO.:E05TSI                   TUE 07/29/97 10:26 Page:259

  18612  4 004650   015434 710000 4                  TRA     s:20217

     1034    18613    5      ELSE DO;

     1035    18614    5         YES_NO=TATR$->VLP$TRMATTR.INPUT#;

  18614  4 004651   003100 060500                    CSL     bolr='003'O
         4 004652   000001 210001                    BDSC    1,,PR0                   by=1,bit=1,n=1
         4 004653   200165 000001                    BDSC    YES_NO,,AUTO             by=0,bit=0,n=1

     1036    18615    5         CLASS=2 /* C_YESNO */;

  18615  4 004654   000002 235007                    LDA     2,DL
         4 004655   200162 755100                    STA     CLASS,,AUTO

     1037    18616    5         END;

  18616  4 004656   015434 710000 4                  TRA     s:20217

     1038    18617
     1039    18618    4      SELECT(21 /* LFISNL */) ;

     1040    18619    4      IF TATR$ -> VLP$TRMATTR.LFISNL# = '01'B

  18619  4 004657   000134 470400 2                  LDP0    TATR$
         4 004660   000000 066500                    CMPB    filb='0'B
         4 004661   000000 430002                    BDSC    0,,PR0                   by=2,bit=3,n=2
         4 004662   000032 000022 5                  BDSC    26                       by=0,bit=0,n=18
         4 004663   004676 601000 4                  TNZ     s:18625

     1041    18620    5      THEN DO;

     1042    18621    5         FMT_VEC(FDS.NVECS#)=VECTOR(DC_STR);

  18621  4 004664   000011 235000 xsym               LDA     FDS+9
         4 004665   000001 735000                    ALS     1
PL6.E3A0      #001=ASL$DISP_ONE_PROFILE File=ASL$L_PRO.:E05TSI                   TUE 07/29/97 10:26 Page:260
         4 004666   000000 620005                    EAX0    0,AL
         4 004667   000000 621005                    EAX1    0,AL
         4 004670   000034 237000 5                  LDAQ    28
         4 004671   000000 755010 xsym               STA     FMT_VEC,X0
         4 004672   000001 756011 xsym               STQ     FMT_VEC+1,X1

     1043    18622    5         CLASS=1 /* C_TEXT */;

  18622  4 004673   000001 235007                    LDA     1,DL
         4 004674   200162 755100                    STA     CLASS,,AUTO

     1044    18623    5         END;

  18623  4 004675   015434 710000 4                  TRA     s:20217

     1045    18624    5      ELSE DO;

     1046    18625    5         YES_NO=TATR$->VLP$TRMATTR.LFISNL#;

  18625  4 004676   003100 060500                    CSL     bolr='003'O
         4 004677   000000 430001                    BDSC    0,,PR0                   by=2,bit=3,n=1
         4 004700   200165 000001                    BDSC    YES_NO,,AUTO             by=0,bit=0,n=1

     1047    18626    5         CLASS=2 /* C_YESNO */;

  18626  4 004701   000002 235007                    LDA     2,DL
         4 004702   200162 755100                    STA     CLASS,,AUTO

     1048    18627    5         END;

  18627  4 004703   015434 710000 4                  TRA     s:20217

     1049    18628
     1050    18629    4      SELECT(22 /* LOWERCASE */) ;

     1051    18630    4      IF TCTL$ -> VLP$TRMCTRL.LOWERCASE# = '01'B

PL6.E3A0      #001=ASL$DISP_ONE_PROFILE File=ASL$L_PRO.:E05TSI                   TUE 07/29/97 10:26 Page:261
  18630  4 004704   000133 470400 2                  LDP0    TCTL$
         4 004705   000000 066500                    CMPB    filb='0'B
         4 004706   000000 430002                    BDSC    0,,PR0                   by=2,bit=3,n=2
         4 004707   000032 000022 5                  BDSC    26                       by=0,bit=0,n=18
         4 004710   004723 601000 4                  TNZ     s:18636

     1052    18631    5      THEN DO;

     1053    18632    5         FMT_VEC(FDS.NVECS#)=VECTOR(DC_STR);

  18632  4 004711   000011 235000 xsym               LDA     FDS+9
         4 004712   000001 735000                    ALS     1
         4 004713   000000 620005                    EAX0    0,AL
         4 004714   000000 621005                    EAX1    0,AL
         4 004715   000034 237000 5                  LDAQ    28
         4 004716   000000 755010 xsym               STA     FMT_VEC,X0
         4 004717   000001 756011 xsym               STQ     FMT_VEC+1,X1

     1054    18633    5         CLASS=1 /* C_TEXT */;

  18633  4 004720   000001 235007                    LDA     1,DL
         4 004721   200162 755100                    STA     CLASS,,AUTO

     1055    18634    5         END;

  18634  4 004722   015434 710000 4                  TRA     s:20217

     1056    18635    5      ELSE DO;

     1057    18636    5         YES_NO=TCTL$->VLP$TRMCTRL.LOWERCASE#;

  18636  4 004723   003100 060500                    CSL     bolr='003'O
         4 004724   000000 430001                    BDSC    0,,PR0                   by=2,bit=3,n=1
         4 004725   200165 000001                    BDSC    YES_NO,,AUTO             by=0,bit=0,n=1

     1058    18637    5         CLASS=2 /* C_YESNO */;

PL6.E3A0      #001=ASL$DISP_ONE_PROFILE File=ASL$L_PRO.:E05TSI                   TUE 07/29/97 10:26 Page:262
  18637  4 004726   000002 235007                    LDA     2,DL
         4 004727   200162 755100                    STA     CLASS,,AUTO

     1059    18638    5         END;

  18638  4 004730   015434 710000 4                  TRA     s:20217

     1060    18639
     1061    18640    4      SELECT(23 /* LOWERCASEPRINTS */) ;

     1062    18641    4      IF TATR$ -> VLP$TRMATTR.LOWERCASEPRINTS# = '01'B

  18641  4 004731   000134 470400 2                  LDP0    TATR$
         4 004732   000000 066500                    CMPB    filb='0'B
         4 004733   000000 670002                    BDSC    0,,PR0                   by=3,bit=7,n=2
         4 004734   000032 000022 5                  BDSC    26                       by=0,bit=0,n=18
         4 004735   004750 601000 4                  TNZ     s:18647

     1063    18642    5      THEN DO;

     1064    18643    5         FMT_VEC(FDS.NVECS#)=VECTOR(DC_STR);

  18643  4 004736   000011 235000 xsym               LDA     FDS+9
         4 004737   000001 735000                    ALS     1
         4 004740   000000 620005                    EAX0    0,AL
         4 004741   000000 621005                    EAX1    0,AL
         4 004742   000034 237000 5                  LDAQ    28
         4 004743   000000 755010 xsym               STA     FMT_VEC,X0
         4 004744   000001 756011 xsym               STQ     FMT_VEC+1,X1

     1065    18644    5         CLASS=1 /* C_TEXT */;

  18644  4 004745   000001 235007                    LDA     1,DL
         4 004746   200162 755100                    STA     CLASS,,AUTO

     1066    18645    5         END;

PL6.E3A0      #001=ASL$DISP_ONE_PROFILE File=ASL$L_PRO.:E05TSI                   TUE 07/29/97 10:26 Page:263
  18645  4 004747   015434 710000 4                  TRA     s:20217

     1067    18646    5      ELSE DO;

     1068    18647    5         YES_NO=TATR$->VLP$TRMATTR.LOWERCASEPRINTS#;

  18647  4 004750   003100 060500                    CSL     bolr='003'O
         4 004751   000000 670001                    BDSC    0,,PR0                   by=3,bit=7,n=1
         4 004752   200165 000001                    BDSC    YES_NO,,AUTO             by=0,bit=0,n=1

     1069    18648    5         CLASS=2 /* C_YESNO */;

  18648  4 004753   000002 235007                    LDA     2,DL
         4 004754   200162 755100                    STA     CLASS,,AUTO

     1070    18649    5         END;

  18649  4 004755   015434 710000 4                  TRA     s:20217

     1071    18650    4      SELECT  (217 /* L_MICROFPL   */);

     1072    18651    4      IF TATR$ ->VLP$TRMATTR.MICROFPL# = '01'B

  18651  4 004756   000134 470400 2                  LDP0    TATR$
         4 004757   000000 066500                    CMPB    filb='0'B
         4 004760   000002 630002                    BDSC    2,,PR0                   by=3,bit=3,n=2
         4 004761   000032 000022 5                  BDSC    26                       by=0,bit=0,n=18
         4 004762   004775 601000 4                  TNZ     s:18657

     1073    18652    5      THEN DO;

     1074    18653    5         FMT_VEC(FDS.NVECS#)=VECTOR(DC_STR);

  18653  4 004763   000011 235000 xsym               LDA     FDS+9
         4 004764   000001 735000                    ALS     1
         4 004765   000000 620005                    EAX0    0,AL
         4 004766   000000 621005                    EAX1    0,AL
PL6.E3A0      #001=ASL$DISP_ONE_PROFILE File=ASL$L_PRO.:E05TSI                   TUE 07/29/97 10:26 Page:264
         4 004767   000034 237000 5                  LDAQ    28
         4 004770   000000 755010 xsym               STA     FMT_VEC,X0
         4 004771   000001 756011 xsym               STQ     FMT_VEC+1,X1

     1075    18654    5         CLASS=1 /* C_TEXT */;

  18654  4 004772   000001 235007                    LDA     1,DL
         4 004773   200162 755100                    STA     CLASS,,AUTO

     1076    18655    5         END;

  18655  4 004774   015434 710000 4                  TRA     s:20217

     1077    18656    5      ELSE DO;

     1078    18657    5         YES_NO=TATR$ -> VLP$TRMATTR.MICROFPL#;

  18657  4 004775   003100 060500                    CSL     bolr='003'O
         4 004776   000002 630001                    BDSC    2,,PR0                   by=3,bit=3,n=1
         4 004777   200165 000001                    BDSC    YES_NO,,AUTO             by=0,bit=0,n=1

     1079    18658    5         CLASS = 2 /* C_YESNO */;

  18658  4 005000   000002 235007                    LDA     2,DL
         4 005001   200162 755100                    STA     CLASS,,AUTO

     1080    18659    5         END;

  18659  4 005002   015434 710000 4                  TRA     s:20217

     1081    18660    4      SELECT(24 /* MULSTRM */) ;

     1082    18661    4      YES_NO = TRMD$ -> KL$TRMD.MULSTRM# ;

  18661  4 005003   000140 470400 2                  LDP0    TRMD$
         4 005004   003100 060500                    CSL     bolr='003'O
         4 005005   000001 410001                    BDSC    1,,PR0                   by=2,bit=1,n=1
PL6.E3A0      #001=ASL$DISP_ONE_PROFILE File=ASL$L_PRO.:E05TSI                   TUE 07/29/97 10:26 Page:265
         4 005006   200165 000001                    BDSC    YES_NO,,AUTO             by=0,bit=0,n=1

     1083    18662    4      CLASS = 2 /* C_YESNO */ ;

  18662  4 005007   000002 235007                    LDA     2,DL
         4 005010   200162 755100                    STA     CLASS,,AUTO
         4 005011   015434 710000 4                  TRA     s:20217

     1084    18663
     1085    18664    4      SELECT(25 /* NOOPTMIZ */) ;

     1086    18665    4      IF TCTL$ -> VLP$TRMCTRL.NOOPTMIZ# = '01'B

  18665  4 005012   000133 470400 2                  LDP0    TCTL$
         4 005013   000000 066500                    CMPB    filb='0'B
         4 005014   000001 250002                    BDSC    1,,PR0                   by=1,bit=5,n=2
         4 005015   000032 000022 5                  BDSC    26                       by=0,bit=0,n=18
         4 005016   005031 601000 4                  TNZ     s:18671

     1087    18666    5      THEN DO;

     1088    18667    5         FMT_VEC(FDS.NVECS#)=VECTOR(DC_STR);

  18667  4 005017   000011 235000 xsym               LDA     FDS+9
         4 005020   000001 735000                    ALS     1
         4 005021   000000 620005                    EAX0    0,AL
         4 005022   000000 621005                    EAX1    0,AL
         4 005023   000034 237000 5                  LDAQ    28
         4 005024   000000 755010 xsym               STA     FMT_VEC,X0
         4 005025   000001 756011 xsym               STQ     FMT_VEC+1,X1

     1089    18668    5         CLASS=1 /* C_TEXT */;

  18668  4 005026   000001 235007                    LDA     1,DL
         4 005027   200162 755100                    STA     CLASS,,AUTO

     1090    18669    5         END;
PL6.E3A0      #001=ASL$DISP_ONE_PROFILE File=ASL$L_PRO.:E05TSI                   TUE 07/29/97 10:26 Page:266

  18669  4 005030   015434 710000 4                  TRA     s:20217

     1091    18670    5      ELSE DO;

     1092    18671    5         YES_NO=TCTL$->VLP$TRMCTRL.NOOPTMIZ#;

  18671  4 005031   003100 060500                    CSL     bolr='003'O
         4 005032   000001 250001                    BDSC    1,,PR0                   by=1,bit=5,n=1
         4 005033   200165 000001                    BDSC    YES_NO,,AUTO             by=0,bit=0,n=1

     1093    18672    5         CLASS=2 /* C_YESNO */;

  18672  4 005034   000002 235007                    LDA     2,DL
         4 005035   200162 755100                    STA     CLASS,,AUTO

     1094    18673    5         END;

  18673  4 005036   015434 710000 4                  TRA     s:20217

     1095    18674
     1096    18675    4      SELECT(26 /* OPDTAB */) ;

     1097    18676    4      IF TATR$ -> VLP$TRMATTR.OPDTAB# = '01'B

  18676  4 005037   000134 470400 2                  LDP0    TATR$
         4 005040   000000 066500                    CMPB    filb='0'B
         4 005041   000000 030002                    BDSC    0,,PR0                   by=0,bit=3,n=2
         4 005042   000032 000022 5                  BDSC    26                       by=0,bit=0,n=18
         4 005043   005056 601000 4                  TNZ     s:18682

     1098    18677    5      THEN DO;

     1099    18678    5         FMT_VEC(FDS.NVECS#)=VECTOR(DC_STR);

  18678  4 005044   000011 235000 xsym               LDA     FDS+9
         4 005045   000001 735000                    ALS     1
PL6.E3A0      #001=ASL$DISP_ONE_PROFILE File=ASL$L_PRO.:E05TSI                   TUE 07/29/97 10:26 Page:267
         4 005046   000000 620005                    EAX0    0,AL
         4 005047   000000 621005                    EAX1    0,AL
         4 005050   000034 237000 5                  LDAQ    28
         4 005051   000000 755010 xsym               STA     FMT_VEC,X0
         4 005052   000001 756011 xsym               STQ     FMT_VEC+1,X1

     1100    18679    5         CLASS=1 /* C_TEXT */;

  18679  4 005053   000001 235007                    LDA     1,DL
         4 005054   200162 755100                    STA     CLASS,,AUTO

     1101    18680    5         END;

  18680  4 005055   015434 710000 4                  TRA     s:20217

     1102    18681    5      ELSE DO;

     1103    18682    5         YES_NO=TATR$->VLP$TRMATTR.OPDTAB#;

  18682  4 005056   003100 060500                    CSL     bolr='003'O
         4 005057   000000 030001                    BDSC    0,,PR0                   by=0,bit=3,n=1
         4 005060   200165 000001                    BDSC    YES_NO,,AUTO             by=0,bit=0,n=1

     1104    18683    5         CLASS=2 /* C_YESNO */;

  18683  4 005061   000002 235007                    LDA     2,DL
         4 005062   200162 755100                    STA     CLASS,,AUTO

     1105    18684    5         END;

  18684  4 005063   015434 710000 4                  TRA     s:20217

     1106    18685
     1107    18686    4      SELECT(27 /* OUTPUT */) ;

     1108    18687    4      IF TATR$ -> VLP$TRMATTR.OUTPUT# = '01'B

PL6.E3A0      #001=ASL$DISP_ONE_PROFILE File=ASL$L_PRO.:E05TSI                   TUE 07/29/97 10:26 Page:268
  18687  4 005064   000134 470400 2                  LDP0    TATR$
         4 005065   000000 066500                    CMPB    filb='0'B
         4 005066   000001 230002                    BDSC    1,,PR0                   by=1,bit=3,n=2
         4 005067   000032 000022 5                  BDSC    26                       by=0,bit=0,n=18
         4 005070   005103 601000 4                  TNZ     s:18693

     1109    18688    5      THEN DO;

     1110    18689    5         FMT_VEC(FDS.NVECS#)=VECTOR(DC_STR);

  18689  4 005071   000011 235000 xsym               LDA     FDS+9
         4 005072   000001 735000                    ALS     1
         4 005073   000000 620005                    EAX0    0,AL
         4 005074   000000 621005                    EAX1    0,AL
         4 005075   000034 237000 5                  LDAQ    28
         4 005076   000000 755010 xsym               STA     FMT_VEC,X0
         4 005077   000001 756011 xsym               STQ     FMT_VEC+1,X1

     1111    18690    5         CLASS=1 /* C_TEXT */;

  18690  4 005100   000001 235007                    LDA     1,DL
         4 005101   200162 755100                    STA     CLASS,,AUTO

     1112    18691    5         END;

  18691  4 005102   015434 710000 4                  TRA     s:20217

     1113    18692    5      ELSE DO;

     1114    18693    5         YES_NO=TATR$->VLP$TRMATTR.OUTPUT#;

  18693  4 005103   003100 060500                    CSL     bolr='003'O
         4 005104   000001 230001                    BDSC    1,,PR0                   by=1,bit=3,n=1
         4 005105   200165 000001                    BDSC    YES_NO,,AUTO             by=0,bit=0,n=1

     1115    18694    5         CLASS=2 /* C_YESNO */;

PL6.E3A0      #001=ASL$DISP_ONE_PROFILE File=ASL$L_PRO.:E05TSI                   TUE 07/29/97 10:26 Page:269
  18694  4 005106   000002 235007                    LDA     2,DL
         4 005107   200162 755100                    STA     CLASS,,AUTO

     1116    18695    5         END;

  18695  4 005110   015434 710000 4                  TRA     s:20217

     1117    18696
     1118    18697    4      SELECT(28 /* OUTDISCARDPUT */) ;

     1119    18698    4      IF TCTL$ -> VLP$TRMCTRL.OUTPUTDISCARD# = '01'B

  18698  4 005111   000133 470400 2                  LDP0    TCTL$
         4 005112   000000 066500                    CMPB    filb='0'B
         4 005113   000000 270002                    BDSC    0,,PR0                   by=1,bit=7,n=2
         4 005114   000032 000022 5                  BDSC    26                       by=0,bit=0,n=18
         4 005115   005130 601000 4                  TNZ     s:18704

     1120    18699    5      THEN DO;

     1121    18700    5         FMT_VEC(FDS.NVECS#)=VECTOR(DC_STR);

  18700  4 005116   000011 235000 xsym               LDA     FDS+9
         4 005117   000001 735000                    ALS     1
         4 005120   000000 620005                    EAX0    0,AL
         4 005121   000000 621005                    EAX1    0,AL
         4 005122   000034 237000 5                  LDAQ    28
         4 005123   000000 755010 xsym               STA     FMT_VEC,X0
         4 005124   000001 756011 xsym               STQ     FMT_VEC+1,X1

     1122    18701    5         CLASS=1 /* C_TEXT */;

  18701  4 005125   000001 235007                    LDA     1,DL
         4 005126   200162 755100                    STA     CLASS,,AUTO

     1123    18702    5         END;

PL6.E3A0      #001=ASL$DISP_ONE_PROFILE File=ASL$L_PRO.:E05TSI                   TUE 07/29/97 10:26 Page:270
  18702  4 005127   015434 710000 4                  TRA     s:20217

     1124    18703    5      ELSE DO;

     1125    18704    5         YES_NO=TCTL$->VLP$TRMCTRL.OUTPUTDISCARD#;

  18704  4 005130   003100 060500                    CSL     bolr='003'O
         4 005131   000000 270001                    BDSC    0,,PR0                   by=1,bit=7,n=1
         4 005132   200165 000001                    BDSC    YES_NO,,AUTO             by=0,bit=0,n=1

     1126    18705    5         CLASS=2 /* C_YESNO */;

  18705  4 005133   000002 235007                    LDA     2,DL
         4 005134   200162 755100                    STA     CLASS,,AUTO

     1127    18706    5         END;

  18706  4 005135   015434 710000 4                  TRA     s:20217

     1128    18707
     1129    18708    4      SELECT(29 /* PAGEHALT */) ;

     1130    18709    4      IF TCTL$ -> VLP$TRMCTRL.PAGEHALT# = '01'B

  18709  4 005136   000133 470400 2                  LDP0    TCTL$
         4 005137   000000 066500                    CMPB    filb='0'B
         4 005140   000001 030002                    BDSC    1,,PR0                   by=0,bit=3,n=2
         4 005141   000032 000022 5                  BDSC    26                       by=0,bit=0,n=18
         4 005142   005155 601000 4                  TNZ     s:18715

     1131    18710    5      THEN DO;

     1132    18711    5         FMT_VEC(FDS.NVECS#)=VECTOR(DC_STR);

  18711  4 005143   000011 235000 xsym               LDA     FDS+9
         4 005144   000001 735000                    ALS     1
         4 005145   000000 620005                    EAX0    0,AL
PL6.E3A0      #001=ASL$DISP_ONE_PROFILE File=ASL$L_PRO.:E05TSI                   TUE 07/29/97 10:26 Page:271
         4 005146   000000 621005                    EAX1    0,AL
         4 005147   000034 237000 5                  LDAQ    28
         4 005150   000000 755010 xsym               STA     FMT_VEC,X0
         4 005151   000001 756011 xsym               STQ     FMT_VEC+1,X1

     1133    18712    5         CLASS=1 /* C_TEXT */;

  18712  4 005152   000001 235007                    LDA     1,DL
         4 005153   200162 755100                    STA     CLASS,,AUTO

     1134    18713    5         END;

  18713  4 005154   015434 710000 4                  TRA     s:20217

     1135    18714    5      ELSE DO;

     1136    18715    5         YES_NO=TCTL$->VLP$TRMCTRL.PAGEHALT#;

  18715  4 005155   003100 060500                    CSL     bolr='003'O
         4 005156   000001 030001                    BDSC    1,,PR0                   by=0,bit=3,n=1
         4 005157   200165 000001                    BDSC    YES_NO,,AUTO             by=0,bit=0,n=1

     1137    18716    5         CLASS=2 /* C_YESNO */;

  18716  4 005160   000002 235007                    LDA     2,DL
         4 005161   200162 755100                    STA     CLASS,,AUTO

     1138    18717    5         END;

  18717  4 005162   015434 710000 4                  TRA     s:20217

     1139    18718
     1140    18719    4      SELECT(30 /* PARITYCHECK */) ;

     1141    18720    4      IF TCTL$ -> VLP$TRMCTRL.PARITYCHECK# = '01'B

  18720  4 005163   000133 470400 2                  LDP0    TCTL$
PL6.E3A0      #001=ASL$DISP_ONE_PROFILE File=ASL$L_PRO.:E05TSI                   TUE 07/29/97 10:26 Page:272
         4 005164   000000 066500                    CMPB    filb='0'B
         4 005165   000000 230002                    BDSC    0,,PR0                   by=1,bit=3,n=2
         4 005166   000032 000022 5                  BDSC    26                       by=0,bit=0,n=18
         4 005167   005202 601000 4                  TNZ     s:18726

     1142    18721    5      THEN DO;

     1143    18722    5         FMT_VEC(FDS.NVECS#)=VECTOR(DC_STR);

  18722  4 005170   000011 235000 xsym               LDA     FDS+9
         4 005171   000001 735000                    ALS     1
         4 005172   000000 620005                    EAX0    0,AL
         4 005173   000000 621005                    EAX1    0,AL
         4 005174   000034 237000 5                  LDAQ    28
         4 005175   000000 755010 xsym               STA     FMT_VEC,X0
         4 005176   000001 756011 xsym               STQ     FMT_VEC+1,X1

     1144    18723    5         CLASS=1 /* C_TEXT */;

  18723  4 005177   000001 235007                    LDA     1,DL
         4 005200   200162 755100                    STA     CLASS,,AUTO

     1145    18724    5         END;

  18724  4 005201   015434 710000 4                  TRA     s:20217

     1146    18725    5      ELSE DO;

     1147    18726    5         YES_NO=TCTL$->VLP$TRMCTRL.PARITYCHECK#;

  18726  4 005202   003100 060500                    CSL     bolr='003'O
         4 005203   000000 230001                    BDSC    0,,PR0                   by=1,bit=3,n=1
         4 005204   200165 000001                    BDSC    YES_NO,,AUTO             by=0,bit=0,n=1

     1148    18727    5         CLASS=2 /* C_YESNO */;

  18727  4 005205   000002 235007                    LDA     2,DL
PL6.E3A0      #001=ASL$DISP_ONE_PROFILE File=ASL$L_PRO.:E05TSI                   TUE 07/29/97 10:26 Page:273
         4 005206   200162 755100                    STA     CLASS,,AUTO

     1149    18728    5         END;

  18728  4 005207   015434 710000 4                  TRA     s:20217

     1150    18729
     1151    18730    4      SELECT(31 /* PRINTHALT */) ;

     1152    18731    4      IF TCTL$ -> VLP$TRMCTRL.PRINTHALT# = '01'B

  18731  4 005210   000133 470400 2                  LDP0    TCTL$
         4 005211   000000 066500                    CMPB    filb='0'B
         4 005212   000001 050002                    BDSC    1,,PR0                   by=0,bit=5,n=2
         4 005213   000032 000022 5                  BDSC    26                       by=0,bit=0,n=18
         4 005214   005227 601000 4                  TNZ     s:18737

     1153    18732    5      THEN DO;

     1154    18733    5         FMT_VEC(FDS.NVECS#)=VECTOR(DC_STR);

  18733  4 005215   000011 235000 xsym               LDA     FDS+9
         4 005216   000001 735000                    ALS     1
         4 005217   000000 620005                    EAX0    0,AL
         4 005220   000000 621005                    EAX1    0,AL
         4 005221   000034 237000 5                  LDAQ    28
         4 005222   000000 755010 xsym               STA     FMT_VEC,X0
         4 005223   000001 756011 xsym               STQ     FMT_VEC+1,X1

     1155    18734    5         CLASS=1 /* C_TEXT */;

  18734  4 005224   000001 235007                    LDA     1,DL
         4 005225   200162 755100                    STA     CLASS,,AUTO

     1156    18735    5         END;

  18735  4 005226   015434 710000 4                  TRA     s:20217
PL6.E3A0      #001=ASL$DISP_ONE_PROFILE File=ASL$L_PRO.:E05TSI                   TUE 07/29/97 10:26 Page:274

     1157    18736    5      ELSE DO;

     1158    18737    5         YES_NO=TCTL$->VLP$TRMCTRL.PRINTHALT#;

  18737  4 005227   003100 060500                    CSL     bolr='003'O
         4 005230   000001 050001                    BDSC    1,,PR0                   by=0,bit=5,n=1
         4 005231   200165 000001                    BDSC    YES_NO,,AUTO             by=0,bit=0,n=1

     1159    18738    5         CLASS=2 /* C_YESNO */;

  18738  4 005232   000002 235007                    LDA     2,DL
         4 005233   200162 755100                    STA     CLASS,,AUTO

     1160    18739    5         END;

  18739  4 005234   015434 710000 4                  TRA     s:20217

     1161    18740
     1162    18741    4      SELECT(32 /* PRINTTYPE */) ;

     1163    18742    4      IF TATR$ -> VLP$TRMATTR.PRINTTYPE# = '01'B

  18742  4 005235   000134 470400 2                  LDP0    TATR$
         4 005236   000000 066500                    CMPB    filb='0'B
         4 005237   000001 250002                    BDSC    1,,PR0                   by=1,bit=5,n=2
         4 005240   000032 000022 5                  BDSC    26                       by=0,bit=0,n=18
         4 005241   005254 601000 4                  TNZ     s:18748

     1164    18743    5      THEN DO;

     1165    18744    5         FMT_VEC(FDS.NVECS#)=VECTOR(DC_STR);

  18744  4 005242   000011 235000 xsym               LDA     FDS+9
         4 005243   000001 735000                    ALS     1
         4 005244   000000 620005                    EAX0    0,AL
         4 005245   000000 621005                    EAX1    0,AL
PL6.E3A0      #001=ASL$DISP_ONE_PROFILE File=ASL$L_PRO.:E05TSI                   TUE 07/29/97 10:26 Page:275
         4 005246   000034 237000 5                  LDAQ    28
         4 005247   000000 755010 xsym               STA     FMT_VEC,X0
         4 005250   000001 756011 xsym               STQ     FMT_VEC+1,X1

     1166    18745    5         CLASS=1 /* C_TEXT */;

  18745  4 005251   000001 235007                    LDA     1,DL
         4 005252   200162 755100                    STA     CLASS,,AUTO

     1167    18746    5         END;

  18746  4 005253   015434 710000 4                  TRA     s:20217

     1168    18747    5      ELSE DO;

     1169    18748    5         YES_NO=TATR$->VLP$TRMATTR.PRINTTYPE#;

  18748  4 005254   003100 060500                    CSL     bolr='003'O
         4 005255   000001 250001                    BDSC    1,,PR0                   by=1,bit=5,n=1
         4 005256   200165 000001                    BDSC    YES_NO,,AUTO             by=0,bit=0,n=1

     1170    18749    5         CLASS=2 /* C_YESNO */;

  18749  4 005257   000002 235007                    LDA     2,DL
         4 005260   200162 755100                    STA     CLASS,,AUTO

     1171    18750    5         END;

  18750  4 005261   015434 710000 4                  TRA     s:20217

     1172    18751
     1173    18752    4      SELECT(33 /* PROGDTAB */) ;

     1174    18753    4      IF TATR$ -> VLP$TRMATTR.PROGDTAB# = '01'B

  18753  4 005262   000134 470400 2                  LDP0    TATR$
         4 005263   000000 066500                    CMPB    filb='0'B
PL6.E3A0      #001=ASL$DISP_ONE_PROFILE File=ASL$L_PRO.:E05TSI                   TUE 07/29/97 10:26 Page:276
         4 005264   000000 010002                    BDSC    0,,PR0                   by=0,bit=1,n=2
         4 005265   000032 000022 5                  BDSC    26                       by=0,bit=0,n=18
         4 005266   005301 601000 4                  TNZ     s:18759

     1175    18754    5      THEN DO;

     1176    18755    5         FMT_VEC(FDS.NVECS#)=VECTOR(DC_STR);

  18755  4 005267   000011 235000 xsym               LDA     FDS+9
         4 005270   000001 735000                    ALS     1
         4 005271   000000 620005                    EAX0    0,AL
         4 005272   000000 621005                    EAX1    0,AL
         4 005273   000034 237000 5                  LDAQ    28
         4 005274   000000 755010 xsym               STA     FMT_VEC,X0
         4 005275   000001 756011 xsym               STQ     FMT_VEC+1,X1

     1177    18756    5         CLASS=1 /* C_TEXT */;

  18756  4 005276   000001 235007                    LDA     1,DL
         4 005277   200162 755100                    STA     CLASS,,AUTO

     1178    18757    5         END;

  18757  4 005300   015434 710000 4                  TRA     s:20217

     1179    18758    5      ELSE DO;

     1180    18759    5         YES_NO=TATR$->VLP$TRMATTR.PROGDTAB#;

  18759  4 005301   003100 060500                    CSL     bolr='003'O
         4 005302   000000 010001                    BDSC    0,,PR0                   by=0,bit=1,n=1
         4 005303   200165 000001                    BDSC    YES_NO,,AUTO             by=0,bit=0,n=1

     1181    18760    5         CLASS=2 /* C_YESNO */;

  18760  4 005304   000002 235007                    LDA     2,DL
         4 005305   200162 755100                    STA     CLASS,,AUTO
PL6.E3A0      #001=ASL$DISP_ONE_PROFILE File=ASL$L_PRO.:E05TSI                   TUE 07/29/97 10:26 Page:277

     1182    18761    5         END;

  18761  4 005306   015434 710000 4                  TRA     s:20217

     1183    18762
     1184    18763    4      SELECT(34 /* RELPAGE */) ;

     1185    18764    4      IF TCTL$ -> VLP$TRMCTRL.RELPAGE# = '01'B

  18764  4 005307   000133 470400 2                  LDP0    TCTL$
         4 005310   000000 066500                    CMPB    filb='0'B
         4 005311   000001 070002                    BDSC    1,,PR0                   by=0,bit=7,n=2
         4 005312   000032 000022 5                  BDSC    26                       by=0,bit=0,n=18
         4 005313   005326 601000 4                  TNZ     s:18770

     1186    18765    5      THEN DO;

     1187    18766    5         FMT_VEC(FDS.NVECS#)=VECTOR(DC_STR);

  18766  4 005314   000011 235000 xsym               LDA     FDS+9
         4 005315   000001 735000                    ALS     1
         4 005316   000000 620005                    EAX0    0,AL
         4 005317   000000 621005                    EAX1    0,AL
         4 005320   000034 237000 5                  LDAQ    28
         4 005321   000000 755010 xsym               STA     FMT_VEC,X0
         4 005322   000001 756011 xsym               STQ     FMT_VEC+1,X1

     1188    18767    5         CLASS=1 /* C_TEXT */;

  18767  4 005323   000001 235007                    LDA     1,DL
         4 005324   200162 755100                    STA     CLASS,,AUTO

     1189    18768    5         END;

  18768  4 005325   015434 710000 4                  TRA     s:20217

PL6.E3A0      #001=ASL$DISP_ONE_PROFILE File=ASL$L_PRO.:E05TSI                   TUE 07/29/97 10:26 Page:278
     1190    18769    5      ELSE DO;

     1191    18770    5         YES_NO=TCTL$->VLP$TRMCTRL.RELPAGE#;

  18770  4 005326   003100 060500                    CSL     bolr='003'O
         4 005327   000001 070001                    BDSC    1,,PR0                   by=0,bit=7,n=1
         4 005330   200165 000001                    BDSC    YES_NO,,AUTO             by=0,bit=0,n=1

     1192    18771    5         CLASS=2 /* C_YESNO */;

  18771  4 005331   000002 235007                    LDA     2,DL
         4 005332   200162 755100                    STA     CLASS,,AUTO

     1193    18772    5         END;

  18772  4 005333   015434 710000 4                  TRA     s:20217

     1194    18773
     1195    18774    4      SELECT(35 /* RETYPOVR */) ;

     1196    18775    4      IF TCTL$ -> VLP$TRMCTRL.RETYPOVR# = '01'B

  18775  4 005334   000133 470400 2                  LDP0    TCTL$
         4 005335   000000 066500                    CMPB    filb='0'B
         4 005336   000000 650002                    BDSC    0,,PR0                   by=3,bit=5,n=2
         4 005337   000032 000022 5                  BDSC    26                       by=0,bit=0,n=18
         4 005340   005353 601000 4                  TNZ     s:18781

     1197    18776    5      THEN DO;

     1198    18777    5         FMT_VEC(FDS.NVECS#)=VECTOR(DC_STR);

  18777  4 005341   000011 235000 xsym               LDA     FDS+9
         4 005342   000001 735000                    ALS     1
         4 005343   000000 620005                    EAX0    0,AL
         4 005344   000000 621005                    EAX1    0,AL
         4 005345   000034 237000 5                  LDAQ    28
PL6.E3A0      #001=ASL$DISP_ONE_PROFILE File=ASL$L_PRO.:E05TSI                   TUE 07/29/97 10:26 Page:279
         4 005346   000000 755010 xsym               STA     FMT_VEC,X0
         4 005347   000001 756011 xsym               STQ     FMT_VEC+1,X1

     1199    18778    5         CLASS=1 /* C_TEXT */;

  18778  4 005350   000001 235007                    LDA     1,DL
         4 005351   200162 755100                    STA     CLASS,,AUTO

     1200    18779    5         END;

  18779  4 005352   015434 710000 4                  TRA     s:20217

     1201    18780    5      ELSE DO;

     1202    18781    5         YES_NO=TCTL$->VLP$TRMCTRL.RETYPOVR#;

  18781  4 005353   003100 060500                    CSL     bolr='003'O
         4 005354   000000 650001                    BDSC    0,,PR0                   by=3,bit=5,n=1
         4 005355   200165 000001                    BDSC    YES_NO,,AUTO             by=0,bit=0,n=1

     1203    18782    5         CLASS=2 /* C_YESNO */;

  18782  4 005356   000002 235007                    LDA     2,DL
         4 005357   200162 755100                    STA     CLASS,,AUTO

     1204    18783    5         END;

  18783  4 005360   015434 710000 4                  TRA     s:20217

     1205    18784
     1206    18785    4      SELECT(36 /* SCROLL */) ;

     1207    18786    4      IF TCTL$ -> VLP$TRMCTRL.SCROLL# = '01'B

  18786  4 005361   000133 470400 2                  LDP0    TCTL$
         4 005362   000000 066500                    CMPB    filb='0'B
         4 005363   000001 010002                    BDSC    1,,PR0                   by=0,bit=1,n=2
PL6.E3A0      #001=ASL$DISP_ONE_PROFILE File=ASL$L_PRO.:E05TSI                   TUE 07/29/97 10:26 Page:280
         4 005364   000032 000022 5                  BDSC    26                       by=0,bit=0,n=18
         4 005365   005400 601000 4                  TNZ     s:18792

     1208    18787    5      THEN DO;

     1209    18788    5         FMT_VEC(FDS.NVECS#)=VECTOR(DC_STR);

  18788  4 005366   000011 235000 xsym               LDA     FDS+9
         4 005367   000001 735000                    ALS     1
         4 005370   000000 620005                    EAX0    0,AL
         4 005371   000000 621005                    EAX1    0,AL
         4 005372   000034 237000 5                  LDAQ    28
         4 005373   000000 755010 xsym               STA     FMT_VEC,X0
         4 005374   000001 756011 xsym               STQ     FMT_VEC+1,X1

     1210    18789    5         CLASS=1 /* C_TEXT */;

  18789  4 005375   000001 235007                    LDA     1,DL
         4 005376   200162 755100                    STA     CLASS,,AUTO

     1211    18790    5         END;

  18790  4 005377   015434 710000 4                  TRA     s:20217

     1212    18791    5      ELSE DO;

     1213    18792    5         YES_NO=TCTL$->VLP$TRMCTRL.SCROLL#;

  18792  4 005400   003100 060500                    CSL     bolr='003'O
         4 005401   000001 010001                    BDSC    1,,PR0                   by=0,bit=1,n=1
         4 005402   200165 000001                    BDSC    YES_NO,,AUTO             by=0,bit=0,n=1

     1214    18793    5         CLASS=2 /* C_YESNO */;

  18793  4 005403   000002 235007                    LDA     2,DL
         4 005404   200162 755100                    STA     CLASS,,AUTO

PL6.E3A0      #001=ASL$DISP_ONE_PROFILE File=ASL$L_PRO.:E05TSI                   TUE 07/29/97 10:26 Page:281
     1215    18794    5         END;

  18794  4 005405   015434 710000 4                  TRA     s:20217

     1216    18795
     1217    18796    4      SELECT(37 /* SENDBKSPACE */) ;

     1218    18797    4      IF TCTL$ -> VLP$TRMCTRL.SENDBKSPACE# = '01'B

  18797  4 005406   000133 470400 2                  LDP0    TCTL$
         4 005407   000000 066500                    CMPB    filb='0'B
         4 005410   000000 070002                    BDSC    0,,PR0                   by=0,bit=7,n=2
         4 005411   000032 000022 5                  BDSC    26                       by=0,bit=0,n=18
         4 005412   005425 601000 4                  TNZ     s:18803

     1219    18798    5      THEN DO;

     1220    18799    5         FMT_VEC(FDS.NVECS#)=VECTOR(DC_STR);

  18799  4 005413   000011 235000 xsym               LDA     FDS+9
         4 005414   000001 735000                    ALS     1
         4 005415   000000 620005                    EAX0    0,AL
         4 005416   000000 621005                    EAX1    0,AL
         4 005417   000034 237000 5                  LDAQ    28
         4 005420   000000 755010 xsym               STA     FMT_VEC,X0
         4 005421   000001 756011 xsym               STQ     FMT_VEC+1,X1

     1221    18800    5         CLASS=1 /* C_TEXT */;

  18800  4 005422   000001 235007                    LDA     1,DL
         4 005423   200162 755100                    STA     CLASS,,AUTO

     1222    18801    5         END;

  18801  4 005424   015434 710000 4                  TRA     s:20217

     1223    18802    5      ELSE DO;
PL6.E3A0      #001=ASL$DISP_ONE_PROFILE File=ASL$L_PRO.:E05TSI                   TUE 07/29/97 10:26 Page:282

     1224    18803    5         YES_NO=TCTL$->VLP$TRMCTRL.SENDBKSPACE#;

  18803  4 005425   003100 060500                    CSL     bolr='003'O
         4 005426   000000 070001                    BDSC    0,,PR0                   by=0,bit=7,n=1
         4 005427   200165 000001                    BDSC    YES_NO,,AUTO             by=0,bit=0,n=1

     1225    18804    5         CLASS=2 /* C_YESNO */;

  18804  4 005430   000002 235007                    LDA     2,DL
         4 005431   200162 755100                    STA     CLASS,,AUTO

     1226    18805    5         END;

  18805  4 005432   015434 710000 4                  TRA     s:20217

     1227    18806
     1228    18807    4      SELECT(38 /* SIMPERF */) ;

     1229    18808    4      IF TCTL$ -> VLP$TRMCTRL.SIMPERF# = '01'B

  18808  4 005433   000133 470400 2                  LDP0    TCTL$
         4 005434   000000 066500                    CMPB    filb='0'B
         4 005435   000001 210002                    BDSC    1,,PR0                   by=1,bit=1,n=2
         4 005436   000032 000022 5                  BDSC    26                       by=0,bit=0,n=18
         4 005437   005452 601000 4                  TNZ     s:18814

     1230    18809    5      THEN DO;

     1231    18810    5         FMT_VEC(FDS.NVECS#)=VECTOR(DC_STR);

  18810  4 005440   000011 235000 xsym               LDA     FDS+9
         4 005441   000001 735000                    ALS     1
         4 005442   000000 620005                    EAX0    0,AL
         4 005443   000000 621005                    EAX1    0,AL
         4 005444   000034 237000 5                  LDAQ    28
         4 005445   000000 755010 xsym               STA     FMT_VEC,X0
PL6.E3A0      #001=ASL$DISP_ONE_PROFILE File=ASL$L_PRO.:E05TSI                   TUE 07/29/97 10:26 Page:283
         4 005446   000001 756011 xsym               STQ     FMT_VEC+1,X1

     1232    18811    5         CLASS=1 /* C_TEXT */;

  18811  4 005447   000001 235007                    LDA     1,DL
         4 005450   200162 755100                    STA     CLASS,,AUTO

     1233    18812    5         END;

  18812  4 005451   015434 710000 4                  TRA     s:20217

     1234    18813    5      ELSE DO;

     1235    18814    5         YES_NO=TCTL$->VLP$TRMCTRL.SIMPERF#;

  18814  4 005452   003100 060500                    CSL     bolr='003'O
         4 005453   000001 210001                    BDSC    1,,PR0                   by=1,bit=1,n=1
         4 005454   200165 000001                    BDSC    YES_NO,,AUTO             by=0,bit=0,n=1

     1236    18815    5         CLASS=2 /* C_YESNO */;

  18815  4 005455   000002 235007                    LDA     2,DL
         4 005456   200162 755100                    STA     CLASS,,AUTO

     1237    18816    5         END;

  18816  4 005457   015434 710000 4                  TRA     s:20217

     1238    18817
     1239    18818    4      SELECT(39 /* SPACEINSERT */);

     1240    18819    4      IF TCTL$ -> VLP$TRMCTRL.SPACEINSERT# = '01'B

  18819  4 005460   000133 470400 2                  LDP0    TCTL$
         4 005461   000000 066500                    CMPB    filb='0'B
         4 005462   000000 050002                    BDSC    0,,PR0                   by=0,bit=5,n=2
         4 005463   000032 000022 5                  BDSC    26                       by=0,bit=0,n=18
PL6.E3A0      #001=ASL$DISP_ONE_PROFILE File=ASL$L_PRO.:E05TSI                   TUE 07/29/97 10:26 Page:284
         4 005464   005477 601000 4                  TNZ     s:18825

     1241    18820    5      THEN DO;

     1242    18821    5         FMT_VEC(FDS.NVECS#)=VECTOR(DC_STR);

  18821  4 005465   000011 235000 xsym               LDA     FDS+9
         4 005466   000001 735000                    ALS     1
         4 005467   000000 620005                    EAX0    0,AL
         4 005470   000000 621005                    EAX1    0,AL
         4 005471   000034 237000 5                  LDAQ    28
         4 005472   000000 755010 xsym               STA     FMT_VEC,X0
         4 005473   000001 756011 xsym               STQ     FMT_VEC+1,X1

     1243    18822    5         CLASS=1 /* C_TEXT */;

  18822  4 005474   000001 235007                    LDA     1,DL
         4 005475   200162 755100                    STA     CLASS,,AUTO

     1244    18823    5         END;

  18823  4 005476   015434 710000 4                  TRA     s:20217

     1245    18824    5      ELSE DO;

     1246    18825    5         YES_NO=TCTL$->VLP$TRMCTRL.SPACEINSERT#;

  18825  4 005477   003100 060500                    CSL     bolr='003'O
         4 005500   000000 050001                    BDSC    0,,PR0                   by=0,bit=5,n=1
         4 005501   200165 000001                    BDSC    YES_NO,,AUTO             by=0,bit=0,n=1

     1247    18826    5         CLASS=2 /* C_YESNO */;

  18826  4 005502   000002 235007                    LDA     2,DL
         4 005503   200162 755100                    STA     CLASS,,AUTO

     1248    18827    5         END;
PL6.E3A0      #001=ASL$DISP_ONE_PROFILE File=ASL$L_PRO.:E05TSI                   TUE 07/29/97 10:26 Page:285

  18827  4 005504   015434 710000 4                  TRA     s:20217

     1249    18828
     1250    18829    4      SELECT(40 /* TABRELATIVE */) ;

     1251    18830    4      IF TCTL$ -> VLP$TRMCTRL.TABRELATIVE# = '01'B

  18830  4 005505   000133 470400 2                  LDP0    TCTL$
         4 005506   000000 066500                    CMPB    filb='0'B
         4 005507   000000 030002                    BDSC    0,,PR0                   by=0,bit=3,n=2
         4 005510   000032 000022 5                  BDSC    26                       by=0,bit=0,n=18
         4 005511   005524 601000 4                  TNZ     s:18836

     1252    18831    5      THEN DO;

     1253    18832    5         FMT_VEC(FDS.NVECS#)=VECTOR(DC_STR);

  18832  4 005512   000011 235000 xsym               LDA     FDS+9
         4 005513   000001 735000                    ALS     1
         4 005514   000000 620005                    EAX0    0,AL
         4 005515   000000 621005                    EAX1    0,AL
         4 005516   000034 237000 5                  LDAQ    28
         4 005517   000000 755010 xsym               STA     FMT_VEC,X0
         4 005520   000001 756011 xsym               STQ     FMT_VEC+1,X1

     1254    18833    5         CLASS=1 /* C_TEXT */;

  18833  4 005521   000001 235007                    LDA     1,DL
         4 005522   200162 755100                    STA     CLASS,,AUTO

     1255    18834    5         END;

  18834  4 005523   015434 710000 4                  TRA     s:20217

     1256    18835    5      ELSE DO;

PL6.E3A0      #001=ASL$DISP_ONE_PROFILE File=ASL$L_PRO.:E05TSI                   TUE 07/29/97 10:26 Page:286
     1257    18836    5         YES_NO=TCTL$->VLP$TRMCTRL.TABRELATIVE#;

  18836  4 005524   003100 060500                    CSL     bolr='003'O
         4 005525   000000 030001                    BDSC    0,,PR0                   by=0,bit=3,n=1
         4 005526   200165 000001                    BDSC    YES_NO,,AUTO             by=0,bit=0,n=1

     1258    18837    5         CLASS=2 /* C_YESNO */;

  18837  4 005527   000002 235007                    LDA     2,DL
         4 005530   200162 755100                    STA     CLASS,,AUTO

     1259    18838    5         END;

  18838  4 005531   015434 710000 4                  TRA     s:20217

     1260    18839
     1261    18840    4      SELECT(41 /* TABSIM */) ;

     1262    18841    4      IF TCTL$ -> VLP$TRMCTRL.TABSIM# = '01'B

  18841  4 005532   000133 470400 2                  LDP0    TCTL$
         4 005533   000000 066500                    CMPB    filb='0'B
         4 005534   000000 010002                    BDSC    0,,PR0                   by=0,bit=1,n=2
         4 005535   000032 000022 5                  BDSC    26                       by=0,bit=0,n=18
         4 005536   005551 601000 4                  TNZ     s:18847

     1263    18842    5      THEN DO;

     1264    18843    5         FMT_VEC(FDS.NVECS#)=VECTOR(DC_STR);

  18843  4 005537   000011 235000 xsym               LDA     FDS+9
         4 005540   000001 735000                    ALS     1
         4 005541   000000 620005                    EAX0    0,AL
         4 005542   000000 621005                    EAX1    0,AL
         4 005543   000034 237000 5                  LDAQ    28
         4 005544   000000 755010 xsym               STA     FMT_VEC,X0
         4 005545   000001 756011 xsym               STQ     FMT_VEC+1,X1
PL6.E3A0      #001=ASL$DISP_ONE_PROFILE File=ASL$L_PRO.:E05TSI                   TUE 07/29/97 10:26 Page:287

     1265    18844    5         CLASS=1 /* C_TEXT */;

  18844  4 005546   000001 235007                    LDA     1,DL
         4 005547   200162 755100                    STA     CLASS,,AUTO

     1266    18845    5         END;

  18845  4 005550   015434 710000 4                  TRA     s:20217

     1267    18846    5      ELSE DO;

     1268    18847    5         YES_NO=TCTL$->VLP$TRMCTRL.TABSIM#;

  18847  4 005551   003100 060500                    CSL     bolr='003'O
         4 005552   000000 010001                    BDSC    0,,PR0                   by=0,bit=1,n=1
         4 005553   200165 000001                    BDSC    YES_NO,,AUTO             by=0,bit=0,n=1

     1269    18848    5         CLASS=2 /* C_YESNO */;

  18848  4 005554   000002 235007                    LDA     2,DL
         4 005555   200162 755100                    STA     CLASS,,AUTO

     1270    18849    5         END;

  18849  4 005556   015434 710000 4                  TRA     s:20217

     1271    18850
     1272    18851    4      SELECT(42 /* TRUNCATE */) ;

     1273    18852    4      IF TCTL$ -> VLP$TRMCTRL.TRUNCATE# = '01'B

  18852  4 005557   000133 470400 2                  LDP0    TCTL$
         4 005560   000000 066500                    CMPB    filb='0'B
         4 005561   000001 230002                    BDSC    1,,PR0                   by=1,bit=3,n=2
         4 005562   000032 000022 5                  BDSC    26                       by=0,bit=0,n=18
         4 005563   005576 601000 4                  TNZ     s:18858
PL6.E3A0      #001=ASL$DISP_ONE_PROFILE File=ASL$L_PRO.:E05TSI                   TUE 07/29/97 10:26 Page:288

     1274    18853    5      THEN DO;

     1275    18854    5         FMT_VEC(FDS.NVECS#)=VECTOR(DC_STR);

  18854  4 005564   000011 235000 xsym               LDA     FDS+9
         4 005565   000001 735000                    ALS     1
         4 005566   000000 620005                    EAX0    0,AL
         4 005567   000000 621005                    EAX1    0,AL
         4 005570   000034 237000 5                  LDAQ    28
         4 005571   000000 755010 xsym               STA     FMT_VEC,X0
         4 005572   000001 756011 xsym               STQ     FMT_VEC+1,X1

     1276    18855    5         CLASS=1 /* C_TEXT */;

  18855  4 005573   000001 235007                    LDA     1,DL
         4 005574   200162 755100                    STA     CLASS,,AUTO

     1277    18856    5         END;

  18856  4 005575   015434 710000 4                  TRA     s:20217

     1278    18857    5      ELSE DO;

     1279    18858    5         YES_NO=TCTL$->VLP$TRMCTRL.TRUNCATE#;

  18858  4 005576   003100 060500                    CSL     bolr='003'O
         4 005577   000001 230001                    BDSC    1,,PR0                   by=1,bit=3,n=1
         4 005600   200165 000001                    BDSC    YES_NO,,AUTO             by=0,bit=0,n=1

     1280    18859    5         CLASS=2 /* C_YESNO */;

  18859  4 005601   000002 235007                    LDA     2,DL
         4 005602   200162 755100                    STA     CLASS,,AUTO

     1281    18860    5         END;

PL6.E3A0      #001=ASL$DISP_ONE_PROFILE File=ASL$L_PRO.:E05TSI                   TUE 07/29/97 10:26 Page:289
  18860  4 005603   015434 710000 4                  TRA     s:20217

     1282    18861
     1283    18862    4      SELECT(164 /* WRAPPAGE */);

     1284    18863    4      IF TCTL$ -> VLP$TRMCTRL.WRAPPAGE# = '01'B

  18863  4 005604   000133 470400 2                  LDP0    TCTL$
         4 005605   000000 066500                    CMPB    filb='0'B
         4 005606   000001 270002                    BDSC    1,,PR0                   by=1,bit=7,n=2
         4 005607   000032 000022 5                  BDSC    26                       by=0,bit=0,n=18
         4 005610   005623 601000 4                  TNZ     s:18869

     1285    18864    5      THEN DO;

     1286    18865    5         FMT_VEC(FDS.NVECS#)=VECTOR(DC_STR);

  18865  4 005611   000011 235000 xsym               LDA     FDS+9
         4 005612   000001 735000                    ALS     1
         4 005613   000000 620005                    EAX0    0,AL
         4 005614   000000 622005                    EAX2    0,AL
         4 005615   000034 237000 5                  LDAQ    28
         4 005616   000000 755010 xsym               STA     FMT_VEC,X0
         4 005617   000001 756012 xsym               STQ     FMT_VEC+1,X2

     1287    18866    5         CLASS=1 /* C_TEXT */;

  18866  4 005620   000001 235007                    LDA     1,DL
         4 005621   200162 755100                    STA     CLASS,,AUTO

     1288    18867    5         END;

  18867  4 005622   015434 710000 4                  TRA     s:20217

     1289    18868    5      ELSE DO;

     1290    18869    5         YES_NO=TCTL$->VLP$TRMCTRL.WRAPPAGE#;
PL6.E3A0      #001=ASL$DISP_ONE_PROFILE File=ASL$L_PRO.:E05TSI                   TUE 07/29/97 10:26 Page:290

  18869  4 005623   003100 060500                    CSL     bolr='003'O
         4 005624   000001 270001                    BDSC    1,,PR0                   by=1,bit=7,n=1
         4 005625   200165 000001                    BDSC    YES_NO,,AUTO             by=0,bit=0,n=1

     1291    18870    5         CLASS=2 /* C_YESNO */;

  18870  4 005626   000002 235007                    LDA     2,DL
         4 005627   200162 755100                    STA     CLASS,,AUTO

     1292    18871    5         END;

  18871  4 005630   015434 710000 4                  TRA     s:20217

     1293    18872
     1294    18873    4      SELECT(43 /* TRUOVRPRT */) ;

     1295    18874    4      IF TATR$ -> VLP$TRMATTR.TRUOVRPRT# = '01'B

  18874  4 005631   000134 470400 2                  LDP0    TATR$
         4 005632   000000 066500                    CMPB    filb='0'B
         4 005633   000000 610002                    BDSC    0,,PR0                   by=3,bit=1,n=2
         4 005634   000032 000022 5                  BDSC    26                       by=0,bit=0,n=18
         4 005635   005650 601000 4                  TNZ     s:18880

     1296    18875    5      THEN DO;

     1297    18876    5         FMT_VEC(FDS.NVECS#)=VECTOR(DC_STR);

  18876  4 005636   000011 235000 xsym               LDA     FDS+9
         4 005637   000001 735000                    ALS     1
         4 005640   000000 620005                    EAX0    0,AL
         4 005641   000000 621005                    EAX1    0,AL
         4 005642   000034 237000 5                  LDAQ    28
         4 005643   000000 755010 xsym               STA     FMT_VEC,X0
         4 005644   000001 756011 xsym               STQ     FMT_VEC+1,X1

PL6.E3A0      #001=ASL$DISP_ONE_PROFILE File=ASL$L_PRO.:E05TSI                   TUE 07/29/97 10:26 Page:291
     1298    18877    5         CLASS=1 /* C_TEXT */;

  18877  4 005645   000001 235007                    LDA     1,DL
         4 005646   200162 755100                    STA     CLASS,,AUTO

     1299    18878    5         END;

  18878  4 005647   015434 710000 4                  TRA     s:20217

     1300    18879    5      ELSE DO;

     1301    18880    5         YES_NO=TATR$->VLP$TRMATTR.TRUOVRPRT#;

  18880  4 005650   003100 060500                    CSL     bolr='003'O
         4 005651   000000 610001                    BDSC    0,,PR0                   by=3,bit=1,n=1
         4 005652   200165 000001                    BDSC    YES_NO,,AUTO             by=0,bit=0,n=1

     1302    18881    5         CLASS=2 /* C_YESNO */;

  18881  4 005653   000002 235007                    LDA     2,DL
         4 005654   200162 755100                    STA     CLASS,,AUTO

     1303    18882    5         END;

  18882  4 005655   015434 710000 4                  TRA     s:20217

     1304    18883
     1305    18884    4      SELECT(44 /* TTYTYPE */) ;

     1306    18885    4      IF TATR$ -> VLP$TRMATTR.TTYTYPE# = '01'B

  18885  4 005656   000134 470400 2                  LDP0    TATR$
         4 005657   000000 066500                    CMPB    filb='0'B
         4 005660   000001 270002                    BDSC    1,,PR0                   by=1,bit=7,n=2
         4 005661   000032 000022 5                  BDSC    26                       by=0,bit=0,n=18
         4 005662   005675 601000 4                  TNZ     s:18891

PL6.E3A0      #001=ASL$DISP_ONE_PROFILE File=ASL$L_PRO.:E05TSI                   TUE 07/29/97 10:26 Page:292
     1307    18886    5      THEN DO;

     1308    18887    5         FMT_VEC(FDS.NVECS#)=VECTOR(DC_STR);

  18887  4 005663   000011 235000 xsym               LDA     FDS+9
         4 005664   000001 735000                    ALS     1
         4 005665   000000 620005                    EAX0    0,AL
         4 005666   000000 621005                    EAX1    0,AL
         4 005667   000034 237000 5                  LDAQ    28
         4 005670   000000 755010 xsym               STA     FMT_VEC,X0
         4 005671   000001 756011 xsym               STQ     FMT_VEC+1,X1

     1309    18888    5         CLASS=1 /* C_TEXT */;

  18888  4 005672   000001 235007                    LDA     1,DL
         4 005673   200162 755100                    STA     CLASS,,AUTO

     1310    18889    5         END;

  18889  4 005674   015434 710000 4                  TRA     s:20217

     1311    18890    5      ELSE DO;

     1312    18891    5         YES_NO=TATR$->VLP$TRMATTR.TTYTYPE#;

  18891  4 005675   003100 060500                    CSL     bolr='003'O
         4 005676   000001 270001                    BDSC    1,,PR0                   by=1,bit=7,n=1
         4 005677   200165 000001                    BDSC    YES_NO,,AUTO             by=0,bit=0,n=1

     1313    18892    5         CLASS=2 /* C_YESNO */;

  18892  4 005700   000002 235007                    LDA     2,DL
         4 005701   200162 755100                    STA     CLASS,,AUTO

     1314    18893    5         END;

  18893  4 005702   015434 710000 4                  TRA     s:20217
PL6.E3A0      #001=ASL$DISP_ONE_PROFILE File=ASL$L_PRO.:E05TSI                   TUE 07/29/97 10:26 Page:293

     1315    18894
     1316    18895    4      SELECT(45 /* UPPERCASE */) ;

     1317    18896    4      IF TCTL$ -> VLP$TRMCTRL.UPPERCASE# = '01'B

  18896  4 005703   000133 470400 2                  LDP0    TCTL$
         4 005704   000000 066500                    CMPB    filb='0'B
         4 005705   000000 410002                    BDSC    0,,PR0                   by=2,bit=1,n=2
         4 005706   000032 000022 5                  BDSC    26                       by=0,bit=0,n=18
         4 005707   005722 601000 4                  TNZ     s:18902

     1318    18897    5      THEN DO;

     1319    18898    5         FMT_VEC(FDS.NVECS#)=VECTOR(DC_STR);

  18898  4 005710   000011 235000 xsym               LDA     FDS+9
         4 005711   000001 735000                    ALS     1
         4 005712   000000 620005                    EAX0    0,AL
         4 005713   000000 621005                    EAX1    0,AL
         4 005714   000034 237000 5                  LDAQ    28
         4 005715   000000 755010 xsym               STA     FMT_VEC,X0
         4 005716   000001 756011 xsym               STQ     FMT_VEC+1,X1

     1320    18899    5         CLASS=1 /* C_TEXT */;

  18899  4 005717   000001 235007                    LDA     1,DL
         4 005720   200162 755100                    STA     CLASS,,AUTO

     1321    18900    5         END;

  18900  4 005721   015434 710000 4                  TRA     s:20217

     1322    18901    5      ELSE DO;

     1323    18902    5         YES_NO=TCTL$->VLP$TRMCTRL.UPPERCASE#;

PL6.E3A0      #001=ASL$DISP_ONE_PROFILE File=ASL$L_PRO.:E05TSI                   TUE 07/29/97 10:26 Page:294
  18902  4 005722   003100 060500                    CSL     bolr='003'O
         4 005723   000000 410001                    BDSC    0,,PR0                   by=2,bit=1,n=1
         4 005724   200165 000001                    BDSC    YES_NO,,AUTO             by=0,bit=0,n=1

     1324    18903    5         CLASS=2 /* C_YESNO */;

  18903  4 005725   000002 235007                    LDA     2,DL
         4 005726   200162 755100                    STA     CLASS,,AUTO

     1325    18904    5         END;

  18904  4 005727   015434 710000 4                  TRA     s:20217

     1326    18905
     1327    18906    4      SELECT(46 /* AWIDTH */) ;

     1328    18907    4      IF TATR$ -> VLP$TRMATTR.WIDTH# = 255

  18907  4 005730   000134 470400 2                  LDP0    TATR$
         4 005731   003100 061500                    CSR     bolr='003'O
         4 005732   000001 610010                    BDSC    1,,PR0                   by=3,bit=1,n=8
         4 005733   200366 000044                    BDSC    TEMP+4,,AUTO             by=0,bit=0,n=36
         4 005734   200366 236100                    LDQ     TEMP+4,,AUTO
         4 005735   000377 116007                    CMPQ    255,DL
         4 005736   005751 601000 4                  TNZ     s:18913

     1329    18908    5      THEN DO;

     1330    18909    5         FMT_VEC(FDS.NVECS#)=VECTOR(DC_STR);

  18909  4 005737   000011 235000 xsym               LDA     FDS+9
         4 005740   000001 735000                    ALS     1
         4 005741   000000 620005                    EAX0    0,AL
         4 005742   000000 621005                    EAX1    0,AL
         4 005743   000034 237000 5                  LDAQ    28
         4 005744   000000 755010 xsym               STA     FMT_VEC,X0
         4 005745   000001 756011 xsym               STQ     FMT_VEC+1,X1
PL6.E3A0      #001=ASL$DISP_ONE_PROFILE File=ASL$L_PRO.:E05TSI                   TUE 07/29/97 10:26 Page:295

     1331    18910    5         CLASS=1 /* C_TEXT */;

  18910  4 005746   000001 235007                    LDA     1,DL
         4 005747   200162 755100                    STA     CLASS,,AUTO

     1332    18911    5         END;

  18911  4 005750   015434 710000 4                  TRA     s:20217

     1333    18912    5      ELSE DO;

     1334    18913    5         SBINS(SBIN_IDX) = TATR$ -> VLP$TRMATTR.WIDTH# ;

  18913  4 005751   200077 236100                    LDQ     SBIN_IDX,,AUTO
         4 005752   000044 402007                    MPY     36,DL
         4 005753   000000 116003                    CMPQ    0,DU
         4 005754   005756 605000 4                  TPL     s:18913+5
         4 005755   000044 036003                    ADLQ    36,DU
         4 005756   003106 061500                    CSR     bolr='003'O
         4 005757   000001 610010                    BDSC    1,,PR0                   by=3,bit=1,n=8
         4 005760   200007 000044                    BDSC    SBINS,Q,AUTO             by=0,bit=0,n=36

     1335    18914    5         IF TATR$ -> VLP$TRMATTR.EXTWID# = AS_TRUE

  18914  4 005761   000000 066500                    CMPB    filb='0'B
         4 005762   000001 050001                    BDSC    1,,PR0                   by=0,bit=5,n=1
         4 005763   000000 000001 xsym               BDSC    AS_TRUE                  by=0,bit=0,n=1
         4 005764   005770 601000 4                  TNZ     s:18917

     1336    18915    5         THEN
     1337    18916    5            SBINS(SBIN_IDX) = SBINS(SBIN_IDX) + 254 ;

  18916  4 005765   200077 720100                    LXL0    SBIN_IDX,,AUTO
         4 005766   000376 236007                    LDQ     254,DL
         4 005767   200007 056110                    ASQ     SBINS,X0,AUTO

PL6.E3A0      #001=ASL$DISP_ONE_PROFILE File=ASL$L_PRO.:E05TSI                   TUE 07/29/97 10:26 Page:296
     1338    18917    5         CLASS = 12 /* C_SBIN */ ;

  18917  4 005770   000014 235007                    LDA     12,DL
         4 005771   200162 755100                    STA     CLASS,,AUTO

     1339    18918    5         END;

  18918  4 005772   015434 710000 4                  TRA     s:20217

     1340    18919
     1341    18920    4      SELECT(47 /* BLKBYTES */) ;

     1342    18921    4      SBINS(SBIN_IDX) = 0 ;

  18921  4 005773   200077 720100                    LXL0    SBIN_IDX,,AUTO
         4 005774   200007 450110                    STZ     SBINS,X0,AUTO

     1343    18922    4      SPLIT$ = ADDR(SBINS(SBIN_IDX)) ;

  18922  4 005775   200007 630510                    EPPR0   SBINS,X0,AUTO
         4 005776   200143 450500                    STP0    SPLIT$,,AUTO

     1344    18923    4      KL$UBWORD.NUM = TRMD$ -> KL$TRMD.BLKBYTES# ;

  18923  4 005777   000140 471400 2                  LDP1    TRMD$
         4 006000   000100 100500                    MLR     fill='000'O
         4 006001   100000 400002                    ADSC9   0,,PR1                   cn=2,n=2
         4 006002   200005 400002                    ADSC9   KL$UBWORD,,AUTO          cn=2,n=2

     1345    18924    4      SPLIT$ -> KL$UWORD.T = KL$UBWORD.REPLACE.T ;

  18924  4 006003   200005 236100                    LDQ     KL$UBWORD,,AUTO
         4 006004   377000 376007                    ANQ     130560,DL
         4 006005   000001 772000                    QRL     1
         4 006006   000000 676100                    ERQ     0,,PR0
         4 006007   000033 376000 5                  ANQ     27
         4 006010   000000 656100                    ERSQ    0,,PR0
PL6.E3A0      #001=ASL$DISP_ONE_PROFILE File=ASL$L_PRO.:E05TSI                   TUE 07/29/97 10:26 Page:297

     1346    18925    4      SPLIT$ -> KL$UWORD.B = KL$UBWORD.REPLACE.B ;

  18925  4 006011   200005 236100                    LDQ     KL$UBWORD,,AUTO
         4 006012   000000 676100                    ERQ     0,,PR0
         4 006013   000377 376007                    ANQ     255,DL
         4 006014   000000 656100                    ERSQ    0,,PR0

     1347    18926    4      CLASS = 12 /* C_SBIN */ ;

  18926  4 006015   000014 235007                    LDA     12,DL
         4 006016   200162 755100                    STA     CLASS,,AUTO
         4 006017   015434 710000 4                  TRA     s:20217

     1348    18927    4      SELECT(48 /* BLKRECS */) ;

     1349    18928    4      SBINS(SBIN_IDX) = TRMD$ -> KL$TRMD.BLKRECS# ;

  18928  4 006020   200077 235100                    LDA     SBIN_IDX,,AUTO
         4 006021   000002 735000                    ALS     2
         4 006022   000140 470400 2                  LDP0    TRMD$
         4 006023   000105 101500                    MRL     fill='000'O
         4 006024   000000 200001                    ADSC9   0,,PR0                   cn=1,n=1
         4 006025   200007 000004                    ADSC9   SBINS,A,AUTO             cn=0,n=4

     1350    18929    4      CLASS = 12 /* C_SBIN */ ;

  18929  4 006026   000014 236007                    LDQ     12,DL
         4 006027   200162 756100                    STQ     CLASS,,AUTO
         4 006030   015434 710000 4                  TRA     s:20217

     1351    18930
     1352    18931    4      SELECT ( 49 /* DELAYS */ ) ;

     1353    18932    4      SBINS(SBIN_IDX) = TRMD$ -> KL$TRMD.DELAYS# ;

  18932  4 006031   200077 235100                    LDA     SBIN_IDX,,AUTO
PL6.E3A0      #001=ASL$DISP_ONE_PROFILE File=ASL$L_PRO.:E05TSI                   TUE 07/29/97 10:26 Page:298
         4 006032   000002 735000                    ALS     2
         4 006033   000140 470400 2                  LDP0    TRMD$
         4 006034   000105 101500                    MRL     fill='000'O
         4 006035   000001 200001                    ADSC9   1,,PR0                   cn=1,n=1
         4 006036   200007 000004                    ADSC9   SBINS,A,AUTO             cn=0,n=4

     1354    18933    4      CLASS = 12 /* C_SBIN */ ;

  18933  4 006037   000014 236007                    LDQ     12,DL
         4 006040   200162 756100                    STQ     CLASS,,AUTO
         4 006041   015434 710000 4                  TRA     s:20217

     1355    18934
     1356    18935    4      SELECT ( 212 /* L_CALL_DELAY */ ) ;

     1357    18936    4      SBINS(SBIN_IDX) = VIRCIR$ -> KL$VIRCIR.CDLY#;

  18936  4 006042   200077 235100                    LDA     SBIN_IDX,,AUTO
         4 006043   000002 735000                    ALS     2
         4 006044   000143 470400 2                  LDP0    VIRCIR$
         4 006045   000105 101500                    MRL     fill='000'O
         4 006046   000002 400001                    ADSC9   2,,PR0                   cn=2,n=1
         4 006047   200007 000004                    ADSC9   SBINS,A,AUTO             cn=0,n=4

     1358    18937    4      CLASS = 12 /* C_SBIN */ ;

  18937  4 006050   000014 236007                    LDQ     12,DL
         4 006051   200162 756100                    STQ     CLASS,,AUTO
         4 006052   015434 710000 4                  TRA     s:20217

     1359    18938
     1360    18939    4      SELECT(50 /* DVCOTPBFRSIZ */) ;

     1361    18940    4      SBINS(SBIN_IDX) = 0 ;

  18940  4 006053   200077 720100                    LXL0    SBIN_IDX,,AUTO
         4 006054   200007 450110                    STZ     SBINS,X0,AUTO
PL6.E3A0      #001=ASL$DISP_ONE_PROFILE File=ASL$L_PRO.:E05TSI                   TUE 07/29/97 10:26 Page:299

     1362    18941    4      SPLIT$ = ADDR(SBINS(SBIN_IDX)) ;

  18941  4 006055   200007 630510                    EPPR0   SBINS,X0,AUTO
         4 006056   200143 450500                    STP0    SPLIT$,,AUTO

     1363    18942    4      IF PRO_TYP = ASL_3270_TYP

  18942  4 006057   000572 236000 2                  LDQ     PRO_TYP
         4 006060   000000 676000 xsym               ERQ     ASL_3270_TYP
         4 006061   777000 376003                    ANQ     -512,DU
         4 006062   006070 601000 4                  TNZ     s:18947

     1364    18943    5      THEN DO;

     1365    18944    5         KL$UBWORD.NUM = KL$3270.DVCBFRSIZ ;

  18944  4 006063   000144 471400 2                  LDP1    KL_3270$
         4 006064   000100 100500                    MLR     fill='000'O
         4 006065   100000 400002                    ADSC9   0,,PR1                   cn=2,n=2
         4 006066   200005 400002                    ADSC9   KL$UBWORD,,AUTO          cn=2,n=2

     1366    18945    5         END;

  18945  4 006067   006074 710000 4                  TRA     s:18949

     1367    18946    5      ELSE DO;

     1368    18947    5         KL$UBWORD.NUM = TCCHR$ -> KL$CCHR.DVCOTPBFRSIZ ;

  18947  4 006070   000137 471400 2                  LDP1    TCCHR$
         4 006071   000100 100500                    MLR     fill='000'O
         4 006072   100007 400002                    ADSC9   7,,PR1                   cn=2,n=2
         4 006073   200005 400002                    ADSC9   KL$UBWORD,,AUTO          cn=2,n=2

     1369    18948    5         END;

PL6.E3A0      #001=ASL$DISP_ONE_PROFILE File=ASL$L_PRO.:E05TSI                   TUE 07/29/97 10:26 Page:300
     1370    18949    4      SPLIT$ -> KL$UWORD.T = KL$UBWORD.REPLACE.T ;

  18949  4 006074   200005 236100                    LDQ     KL$UBWORD,,AUTO
         4 006075   377000 376007                    ANQ     130560,DL
         4 006076   000001 772000                    QRL     1
         4 006077   000000 676100                    ERQ     0,,PR0
         4 006100   000033 376000 5                  ANQ     27
         4 006101   000000 656100                    ERSQ    0,,PR0

     1371    18950    4      SPLIT$ -> KL$UWORD.B = KL$UBWORD.REPLACE.B ;

  18950  4 006102   200005 236100                    LDQ     KL$UBWORD,,AUTO
         4 006103   000000 676100                    ERQ     0,,PR0
         4 006104   000377 376007                    ANQ     255,DL
         4 006105   000000 656100                    ERSQ    0,,PR0

     1372    18951    4      CLASS = 12 /* C_SBIN */ ;

  18951  4 006106   000014 235007                    LDA     12,DL
         4 006107   200162 755100                    STA     CLASS,,AUTO
         4 006110   015434 710000 4                  TRA     s:20217

     1373    18952
     1374    18953    4      SELECT(51 /* FIRSTLINE */) ;

     1375    18954    4      IF PLTN$ -> VLP$PLATEN.FIRSTLINE# = 255

  18954  4 006111   000135 470400 2                  LDP0    PLTN$
         4 006112   003100 061500                    CSR     bolr='003'O
         4 006113   000000 610010                    BDSC    0,,PR0                   by=3,bit=1,n=8
         4 006114   200366 000044                    BDSC    TEMP+4,,AUTO             by=0,bit=0,n=36
         4 006115   200366 236100                    LDQ     TEMP+4,,AUTO
         4 006116   000377 116007                    CMPQ    255,DL
         4 006117   006132 601000 4                  TNZ     s:18960

     1376    18955    5      THEN DO;

PL6.E3A0      #001=ASL$DISP_ONE_PROFILE File=ASL$L_PRO.:E05TSI                   TUE 07/29/97 10:26 Page:301
     1377    18956    5         FMT_VEC(FDS.NVECS#)=VECTOR(DC_STR);

  18956  4 006120   000011 235000 xsym               LDA     FDS+9
         4 006121   000001 735000                    ALS     1
         4 006122   000000 620005                    EAX0    0,AL
         4 006123   000000 621005                    EAX1    0,AL
         4 006124   000034 237000 5                  LDAQ    28
         4 006125   000000 755010 xsym               STA     FMT_VEC,X0
         4 006126   000001 756011 xsym               STQ     FMT_VEC+1,X1

     1378    18957    5         CLASS=1 /* C_TEXT */;

  18957  4 006127   000001 235007                    LDA     1,DL
         4 006130   200162 755100                    STA     CLASS,,AUTO

     1379    18958    5         END;

  18958  4 006131   015434 710000 4                  TRA     s:20217

     1380    18959    5      ELSE DO;

     1381    18960    5         SBINS(SBIN_IDX) = PLTN$ -> VLP$PLATEN.FIRSTLINE# ;

  18960  4 006132   200077 236100                    LDQ     SBIN_IDX,,AUTO
         4 006133   000044 402007                    MPY     36,DL
         4 006134   000000 116003                    CMPQ    0,DU
         4 006135   006137 605000 4                  TPL     s:18960+5
         4 006136   000044 036003                    ADLQ    36,DU
         4 006137   003106 061500                    CSR     bolr='003'O
         4 006140   000000 610010                    BDSC    0,,PR0                   by=3,bit=1,n=8
         4 006141   200007 000044                    BDSC    SBINS,Q,AUTO             by=0,bit=0,n=36

     1382    18961    5         CLASS = 12 /* C_SBIN */ ;

  18961  4 006142   000014 235007                    LDA     12,DL
         4 006143   200162 755100                    STA     CLASS,,AUTO

PL6.E3A0      #001=ASL$DISP_ONE_PROFILE File=ASL$L_PRO.:E05TSI                   TUE 07/29/97 10:26 Page:302
     1383    18962    5         END;

  18962  4 006144   015434 710000 4                  TRA     s:20217

     1384    18963
     1385    18964    4      SELECT(52 /* HEIGHT */) ;

     1386    18965    4      IF TATR$ -> VLP$TRMATTR.HEIGHT# = 255

  18965  4 006145   000134 470400 2                  LDP0    TATR$
         4 006146   003100 061500                    CSR     bolr='003'O
         4 006147   000002 010010                    BDSC    2,,PR0                   by=0,bit=1,n=8
         4 006150   200366 000044                    BDSC    TEMP+4,,AUTO             by=0,bit=0,n=36
         4 006151   200366 236100                    LDQ     TEMP+4,,AUTO
         4 006152   000377 116007                    CMPQ    255,DL
         4 006153   006166 601000 4                  TNZ     s:18971

     1387    18966    5      THEN DO;

     1388    18967    5         FMT_VEC(FDS.NVECS#)=VECTOR(DC_STR);

  18967  4 006154   000011 235000 xsym               LDA     FDS+9
         4 006155   000001 735000                    ALS     1
         4 006156   000000 620005                    EAX0    0,AL
         4 006157   000000 621005                    EAX1    0,AL
         4 006160   000034 237000 5                  LDAQ    28
         4 006161   000000 755010 xsym               STA     FMT_VEC,X0
         4 006162   000001 756011 xsym               STQ     FMT_VEC+1,X1

     1389    18968    5         CLASS=1 /* C_TEXT */;

  18968  4 006163   000001 235007                    LDA     1,DL
         4 006164   200162 755100                    STA     CLASS,,AUTO

     1390    18969    5         END;

  18969  4 006165   015434 710000 4                  TRA     s:20217
PL6.E3A0      #001=ASL$DISP_ONE_PROFILE File=ASL$L_PRO.:E05TSI                   TUE 07/29/97 10:26 Page:303

     1391    18970    5      ELSE DO;

     1392    18971    5         SBINS(SBIN_IDX) = TATR$ -> VLP$TRMATTR.HEIGHT# ;

  18971  4 006166   200077 236100                    LDQ     SBIN_IDX,,AUTO
         4 006167   000044 402007                    MPY     36,DL
         4 006170   000000 116003                    CMPQ    0,DU
         4 006171   006173 605000 4                  TPL     s:18971+5
         4 006172   000044 036003                    ADLQ    36,DU
         4 006173   003106 061500                    CSR     bolr='003'O
         4 006174   000002 010010                    BDSC    2,,PR0                   by=0,bit=1,n=8
         4 006175   200007 000044                    BDSC    SBINS,Q,AUTO             by=0,bit=0,n=36

     1393    18972    5         CLASS = 12 /* C_SBIN */ ;

  18972  4 006176   000014 235007                    LDA     12,DL
         4 006177   200162 755100                    STA     CLASS,,AUTO

     1394    18973    5         END;

  18973  4 006200   015434 710000 4                  TRA     s:20217

     1395    18974
     1396    18975    4      SELECT(53 /* LENGTH */) ;

     1397    18976    4      IF PLTN$ -> VLP$PLATEN.LENGTH# = 255

  18976  4 006201   000135 470400 2                  LDP0    PLTN$
         4 006202   003100 061500                    CSR     bolr='003'O
         4 006203   000000 210010                    BDSC    0,,PR0                   by=1,bit=1,n=8
         4 006204   200366 000044                    BDSC    TEMP+4,,AUTO             by=0,bit=0,n=36
         4 006205   200366 236100                    LDQ     TEMP+4,,AUTO
         4 006206   000377 116007                    CMPQ    255,DL
         4 006207   006222 601000 4                  TNZ     s:18982

     1398    18977    5      THEN DO;
PL6.E3A0      #001=ASL$DISP_ONE_PROFILE File=ASL$L_PRO.:E05TSI                   TUE 07/29/97 10:26 Page:304

     1399    18978    5         FMT_VEC(FDS.NVECS#)=VECTOR(DC_STR);

  18978  4 006210   000011 235000 xsym               LDA     FDS+9
         4 006211   000001 735000                    ALS     1
         4 006212   000000 620005                    EAX0    0,AL
         4 006213   000000 621005                    EAX1    0,AL
         4 006214   000034 237000 5                  LDAQ    28
         4 006215   000000 755010 xsym               STA     FMT_VEC,X0
         4 006216   000001 756011 xsym               STQ     FMT_VEC+1,X1

     1400    18979    5         CLASS=1 /* C_TEXT */;

  18979  4 006217   000001 235007                    LDA     1,DL
         4 006220   200162 755100                    STA     CLASS,,AUTO

     1401    18980    5         END;

  18980  4 006221   015434 710000 4                  TRA     s:20217

     1402    18981    5      ELSE DO;

     1403    18982    5         SBINS(SBIN_IDX) = PLTN$ -> VLP$PLATEN.LENGTH# ;

  18982  4 006222   200077 236100                    LDQ     SBIN_IDX,,AUTO
         4 006223   000044 402007                    MPY     36,DL
         4 006224   000000 116003                    CMPQ    0,DU
         4 006225   006227 605000 4                  TPL     s:18982+5
         4 006226   000044 036003                    ADLQ    36,DU
         4 006227   003106 061500                    CSR     bolr='003'O
         4 006230   000000 210010                    BDSC    0,,PR0                   by=1,bit=1,n=8
         4 006231   200007 000044                    BDSC    SBINS,Q,AUTO             by=0,bit=0,n=36

     1404    18983    5         CLASS = 12 /* C_SBIN */ ;

  18983  4 006232   000014 235007                    LDA     12,DL
         4 006233   200162 755100                    STA     CLASS,,AUTO
PL6.E3A0      #001=ASL$DISP_ONE_PROFILE File=ASL$L_PRO.:E05TSI                   TUE 07/29/97 10:26 Page:305

     1405    18984    5         END;

  18984  4 006234   015434 710000 4                  TRA     s:20217

     1406    18985
     1407    18986    4      SELECT(54 /* LIMBO */) ;

     1408    18987    4      IF PLTN$ -> VLP$PLATEN.LIMBO# = 255

  18987  4 006235   000135 470400 2                  LDP0    PLTN$
         4 006236   003100 061500                    CSR     bolr='003'O
         4 006237   000000 410010                    BDSC    0,,PR0                   by=2,bit=1,n=8
         4 006240   200366 000044                    BDSC    TEMP+4,,AUTO             by=0,bit=0,n=36
         4 006241   200366 236100                    LDQ     TEMP+4,,AUTO
         4 006242   000377 116007                    CMPQ    255,DL
         4 006243   006256 601000 4                  TNZ     s:18993

     1409    18988    5      THEN DO;

     1410    18989    5         FMT_VEC(FDS.NVECS#)=VECTOR(DC_STR);

  18989  4 006244   000011 235000 xsym               LDA     FDS+9
         4 006245   000001 735000                    ALS     1
         4 006246   000000 620005                    EAX0    0,AL
         4 006247   000000 621005                    EAX1    0,AL
         4 006250   000034 237000 5                  LDAQ    28
         4 006251   000000 755010 xsym               STA     FMT_VEC,X0
         4 006252   000001 756011 xsym               STQ     FMT_VEC+1,X1

     1411    18990    5         CLASS=1 /* C_TEXT */;

  18990  4 006253   000001 235007                    LDA     1,DL
         4 006254   200162 755100                    STA     CLASS,,AUTO

     1412    18991    5         END;

PL6.E3A0      #001=ASL$DISP_ONE_PROFILE File=ASL$L_PRO.:E05TSI                   TUE 07/29/97 10:26 Page:306
  18991  4 006255   015434 710000 4                  TRA     s:20217

     1413    18992    5      ELSE DO;

     1414    18993    5         SBINS(SBIN_IDX) = PLTN$ -> VLP$PLATEN.LIMBO# ;

  18993  4 006256   200077 236100                    LDQ     SBIN_IDX,,AUTO
         4 006257   000044 402007                    MPY     36,DL
         4 006260   000000 116003                    CMPQ    0,DU
         4 006261   006263 605000 4                  TPL     s:18993+5
         4 006262   000044 036003                    ADLQ    36,DU
         4 006263   003106 061500                    CSR     bolr='003'O
         4 006264   000000 410010                    BDSC    0,,PR0                   by=2,bit=1,n=8
         4 006265   200007 000044                    BDSC    SBINS,Q,AUTO             by=0,bit=0,n=36

     1415    18994    5         CLASS = 12 /* C_SBIN */ ;

  18994  4 006266   000014 235007                    LDA     12,DL
         4 006267   200162 755100                    STA     CLASS,,AUTO

     1416    18995    5         END;

  18995  4 006270   015434 710000 4                  TRA     s:20217

     1417    18996
     1418    18997    4      SELECT(55 /* PWIDTH */) ;

     1419    18998    4      IF PLTN$ -> VLP$PLATEN.WIDTH# = 255

  18998  4 006271   000135 470400 2                  LDP0    PLTN$
         4 006272   003100 061500                    CSR     bolr='003'O
         4 006273   000000 010010                    BDSC    0,,PR0                   by=0,bit=1,n=8
         4 006274   200366 000044                    BDSC    TEMP+4,,AUTO             by=0,bit=0,n=36
         4 006275   200366 236100                    LDQ     TEMP+4,,AUTO
         4 006276   000377 116007                    CMPQ    255,DL
         4 006277   006312 601000 4                  TNZ     s:19004

PL6.E3A0      #001=ASL$DISP_ONE_PROFILE File=ASL$L_PRO.:E05TSI                   TUE 07/29/97 10:26 Page:307
     1420    18999    5      THEN DO;

     1421    19000    5         FMT_VEC(FDS.NVECS#)=VECTOR(DC_STR);

  19000  4 006300   000011 235000 xsym               LDA     FDS+9
         4 006301   000001 735000                    ALS     1
         4 006302   000000 620005                    EAX0    0,AL
         4 006303   000000 621005                    EAX1    0,AL
         4 006304   000034 237000 5                  LDAQ    28
         4 006305   000000 755010 xsym               STA     FMT_VEC,X0
         4 006306   000001 756011 xsym               STQ     FMT_VEC+1,X1

     1422    19001    5         CLASS=1 /* C_TEXT */;

  19001  4 006307   000001 235007                    LDA     1,DL
         4 006310   200162 755100                    STA     CLASS,,AUTO

     1423    19002    5         END;

  19002  4 006311   015434 710000 4                  TRA     s:20217

     1424    19003    5      ELSE DO;

     1425    19004    5         SBINS(SBIN_IDX) = PLTN$ -> VLP$PLATEN.WIDTH# ;

  19004  4 006312   200077 236100                    LDQ     SBIN_IDX,,AUTO
         4 006313   000044 402007                    MPY     36,DL
         4 006314   000000 116003                    CMPQ    0,DU
         4 006315   006317 605000 4                  TPL     s:19004+5
         4 006316   000044 036003                    ADLQ    36,DU
         4 006317   003106 061500                    CSR     bolr='003'O
         4 006320   000000 010010                    BDSC    0,,PR0                   by=0,bit=1,n=8
         4 006321   200007 000044                    BDSC    SBINS,Q,AUTO             by=0,bit=0,n=36

     1426    19005    5         IF PLTN$ -> VLP$PLATEN.EXTWID# = AS_TRUE

  19005  4 006322   000000 066500                    CMPB    filb='0'B
PL6.E3A0      #001=ASL$DISP_ONE_PROFILE File=ASL$L_PRO.:E05TSI                   TUE 07/29/97 10:26 Page:308
         4 006323   000001 100001                    BDSC    1,,PR0                   by=0,bit=8,n=1
         4 006324   000000 000001 xsym               BDSC    AS_TRUE                  by=0,bit=0,n=1
         4 006325   006331 601000 4                  TNZ     s:19008

     1427    19006    5         THEN
     1428    19007    5            SBINS(SBIN_IDX) = SBINS(SBIN_IDX) + 254 ;

  19007  4 006326   200077 720100                    LXL0    SBIN_IDX,,AUTO
         4 006327   000376 236007                    LDQ     254,DL
         4 006330   200007 056110                    ASQ     SBINS,X0,AUTO

     1429    19008    5         CLASS = 12 /* C_SBIN */ ;

  19008  4 006331   000014 235007                    LDA     12,DL
         4 006332   200162 755100                    STA     CLASS,,AUTO

     1430    19009    5         END;

  19009  4 006333   015434 710000 4                  TRA     s:20217

     1431    19010
     1432    19011    4      SELECT(56 /* MINREC */) ;

     1433    19012    4      IF TATR$ -> VLP$TRMATTR.MINREC# = 255

  19012  4 006334   000134 470400 2                  LDP0    TATR$
         4 006335   003100 061500                    CSR     bolr='003'O
         4 006336   000002 210010                    BDSC    2,,PR0                   by=1,bit=1,n=8
         4 006337   200366 000044                    BDSC    TEMP+4,,AUTO             by=0,bit=0,n=36
         4 006340   200366 236100                    LDQ     TEMP+4,,AUTO
         4 006341   000377 116007                    CMPQ    255,DL
         4 006342   006355 601000 4                  TNZ     s:19018

     1434    19013    5      THEN DO;

     1435    19014    5         FMT_VEC(FDS.NVECS#)=VECTOR(DC_STR);

PL6.E3A0      #001=ASL$DISP_ONE_PROFILE File=ASL$L_PRO.:E05TSI                   TUE 07/29/97 10:26 Page:309
  19014  4 006343   000011 235000 xsym               LDA     FDS+9
         4 006344   000001 735000                    ALS     1
         4 006345   000000 620005                    EAX0    0,AL
         4 006346   000000 621005                    EAX1    0,AL
         4 006347   000034 237000 5                  LDAQ    28
         4 006350   000000 755010 xsym               STA     FMT_VEC,X0
         4 006351   000001 756011 xsym               STQ     FMT_VEC+1,X1

     1436    19015    5         CLASS=1 /* C_TEXT */;

  19015  4 006352   000001 235007                    LDA     1,DL
         4 006353   200162 755100                    STA     CLASS,,AUTO

     1437    19016    5         END;

  19016  4 006354   015434 710000 4                  TRA     s:20217

     1438    19017    5      ELSE DO;

     1439    19018    5         SBINS(SBIN_IDX) = TATR$ -> VLP$TRMATTR.MINREC# ;

  19018  4 006355   200077 236100                    LDQ     SBIN_IDX,,AUTO
         4 006356   000044 402007                    MPY     36,DL
         4 006357   000000 116003                    CMPQ    0,DU
         4 006360   006362 605000 4                  TPL     s:19018+5
         4 006361   000044 036003                    ADLQ    36,DU
         4 006362   003106 061500                    CSR     bolr='003'O
         4 006363   000002 210010                    BDSC    2,,PR0                   by=1,bit=1,n=8
         4 006364   200007 000044                    BDSC    SBINS,Q,AUTO             by=0,bit=0,n=36

     1440    19019    5         CLASS = 12 /* C_SBIN */ ;

  19019  4 006365   000014 235007                    LDA     12,DL
         4 006366   200162 755100                    STA     CLASS,,AUTO

     1441    19020    5         END;

PL6.E3A0      #001=ASL$DISP_ONE_PROFILE File=ASL$L_PRO.:E05TSI                   TUE 07/29/97 10:26 Page:310
  19020  4 006367   015434 710000 4                  TRA     s:20217

     1442    19021
     1443    19022    4      SELECT(57 /* RETRYS */) ;

     1444    19023    4      SBINS(SBIN_IDX) = TRMD$ -> KL$TRMD.RETRYS# ;

  19023  4 006370   200077 235100                    LDA     SBIN_IDX,,AUTO
         4 006371   000002 735000                    ALS     2
         4 006372   000140 470400 2                  LDP0    TRMD$
         4 006373   000105 101500                    MRL     fill='000'O
         4 006374   000001 000001                    ADSC9   1,,PR0                   cn=0,n=1
         4 006375   200007 000004                    ADSC9   SBINS,A,AUTO             cn=0,n=4

     1445    19024    4      CLASS = 12 /* C_SBIN */ ;

  19024  4 006376   000014 236007                    LDQ     12,DL
         4 006377   200162 756100                    STQ     CLASS,,AUTO
         4 006400   015434 710000 4                  TRA     s:20217

     1446    19025
     1447    19026    4      SELECT(58 /* SINPUTSZ */) ;

     1448    19027    4      IF TCTL$ -> VLP$TRMCTRL.SINPUTSZ# = 255

  19027  4 006401   000133 470400 2                  LDP0    TCTL$
         4 006402   003100 061500                    CSR     bolr='003'O
         4 006403   000001 410010                    BDSC    1,,PR0                   by=2,bit=1,n=8
         4 006404   200366 000044                    BDSC    TEMP+4,,AUTO             by=0,bit=0,n=36
         4 006405   200366 236100                    LDQ     TEMP+4,,AUTO
         4 006406   000377 116007                    CMPQ    255,DL
         4 006407   006422 601000 4                  TNZ     s:19033

     1449    19028    5      THEN DO;

     1450    19029    5         FMT_VEC(FDS.NVECS#)=VECTOR(DC_STR);

PL6.E3A0      #001=ASL$DISP_ONE_PROFILE File=ASL$L_PRO.:E05TSI                   TUE 07/29/97 10:26 Page:311
  19029  4 006410   000011 235000 xsym               LDA     FDS+9
         4 006411   000001 735000                    ALS     1
         4 006412   000000 620005                    EAX0    0,AL
         4 006413   000000 621005                    EAX1    0,AL
         4 006414   000034 237000 5                  LDAQ    28
         4 006415   000000 755010 xsym               STA     FMT_VEC,X0
         4 006416   000001 756011 xsym               STQ     FMT_VEC+1,X1

     1451    19030    5         CLASS=1 /* C_TEXT */;

  19030  4 006417   000001 235007                    LDA     1,DL
         4 006420   200162 755100                    STA     CLASS,,AUTO

     1452    19031    5         END;

  19031  4 006421   015434 710000 4                  TRA     s:20217

     1453    19032    5      ELSE DO;

     1454    19033    5         SBINS(SBIN_IDX) = TCTL$ -> VLP$TRMCTRL.SINPUTSZ# ;

  19033  4 006422   200077 236100                    LDQ     SBIN_IDX,,AUTO
         4 006423   000044 402007                    MPY     36,DL
         4 006424   000000 116003                    CMPQ    0,DU
         4 006425   006427 605000 4                  TPL     s:19033+5
         4 006426   000044 036003                    ADLQ    36,DU
         4 006427   003106 061500                    CSR     bolr='003'O
         4 006430   000001 410010                    BDSC    1,,PR0                   by=2,bit=1,n=8
         4 006431   200007 000044                    BDSC    SBINS,Q,AUTO             by=0,bit=0,n=36

     1455    19034    5         CLASS = 12 /* C_SBIN */ ;

  19034  4 006432   000014 235007                    LDA     12,DL
         4 006433   200162 755100                    STA     CLASS,,AUTO

     1456    19035    5         END;

PL6.E3A0      #001=ASL$DISP_ONE_PROFILE File=ASL$L_PRO.:E05TSI                   TUE 07/29/97 10:26 Page:312
  19035  4 006434   015434 710000 4                  TRA     s:20217

     1457    19036
     1458    19037    4      SELECT(59 /* SPEED */) ;

     1459    19038    5      DO SELECT (TATR$ -> VLP$TRMATTR.SPEED#) ;

  19038  4 006435   000134 470400 2                  LDP0    TATR$
         4 006436   003100 061500                    CSR     bolr='003'O
         4 006437   000002 410010                    BDSC    2,,PR0                   by=2,bit=1,n=8
         4 006440   200366 000044                    BDSC    TEMP+4,,AUTO             by=0,bit=0,n=36
         4 006441   200366 236100                    LDQ     TEMP+4,,AUTO
         4 006442   000007 116007                    CMPQ    7,DL
         4 006443   006550 602000 4                  TNC     s:19038+75
         4 006444   006732 600000 4                  TZE     s:19056
         4 006445   003100 061500                    CSR     bolr='003'O
         4 006446   000002 410010                    BDSC    2,,PR0                   by=2,bit=1,n=8
         4 006447   200367 000044                    BDSC    TEMP+5,,AUTO             by=0,bit=0,n=36
         4 006450   200367 236100                    LDQ     TEMP+5,,AUTO
         4 006451   000013 116007                    CMPQ    11,DL
         4 006452   006521 602000 4                  TNC     s:19038+52
         4 006453   006772 600000 4                  TZE     s:19064
         4 006454   003100 061500                    CSR     bolr='003'O
         4 006455   000002 410010                    BDSC    2,,PR0                   by=2,bit=1,n=8
         4 006456   200370 000044                    BDSC    TEMP+6,,AUTO             by=0,bit=0,n=36
         4 006457   200370 236100                    LDQ     TEMP+6,,AUTO
         4 006460   000015 116007                    CMPQ    13,DL
         4 006461   006511 602000 4                  TNC     s:19038+44
         4 006462   007012 600000 4                  TZE     s:19068
         4 006463   003100 061500                    CSR     bolr='003'O
         4 006464   000002 410010                    BDSC    2,,PR0                   by=2,bit=1,n=8
         4 006465   200371 000044                    BDSC    TEMP+7,,AUTO             by=0,bit=0,n=36
         4 006466   200371 236100                    LDQ     TEMP+7,,AUTO
         4 006467   000017 116007                    CMPQ    15,DL
         4 006470   006501 602000 4                  TNC     s:19038+36
         4 006471   007032 600000 4                  TZE     s:19072
         4 006472   003100 061500                    CSR     bolr='003'O
PL6.E3A0      #001=ASL$DISP_ONE_PROFILE File=ASL$L_PRO.:E05TSI                   TUE 07/29/97 10:26 Page:313
         4 006473   000002 410010                    BDSC    2,,PR0                   by=2,bit=1,n=8
         4 006474   200372 000044                    BDSC    TEMP+8,,AUTO             by=0,bit=0,n=36
         4 006475   200372 236100                    LDQ     TEMP+8,,AUTO
         4 006476   000377 116007                    CMPQ    255,DL
         4 006477   007041 601000 4                  TNZ     s:19074
         4 006500   006632 710000 4                  TRA     s:19040
         4 006501   000134 470400 2                  LDP0    TATR$
         4 006502   003100 061500                    CSR     bolr='003'O
         4 006503   000002 410010                    BDSC    2,,PR0                   by=2,bit=1,n=8
         4 006504   200373 000044                    BDSC    TEMP+9,,AUTO             by=0,bit=0,n=36
         4 006505   200373 236100                    LDQ     TEMP+9,,AUTO
         4 006506   000016 116007                    CMPQ    14,DL
         4 006507   007041 601000 4                  TNZ     s:19074
         4 006510   007022 710000 4                  TRA     s:19070
         4 006511   000134 470400 2                  LDP0    TATR$
         4 006512   003100 061500                    CSR     bolr='003'O
         4 006513   000002 410010                    BDSC    2,,PR0                   by=2,bit=1,n=8
         4 006514   200374 000044                    BDSC    TEMP+10,,AUTO            by=0,bit=0,n=36
         4 006515   200374 236100                    LDQ     TEMP+10,,AUTO
         4 006516   000014 116007                    CMPQ    12,DL
         4 006517   007041 601000 4                  TNZ     s:19074
         4 006520   007002 710000 4                  TRA     s:19066
         4 006521   000134 470400 2                  LDP0    TATR$
         4 006522   003100 061500                    CSR     bolr='003'O
         4 006523   000002 410010                    BDSC    2,,PR0                   by=2,bit=1,n=8
         4 006524   200375 000044                    BDSC    TEMP+11,,AUTO            by=0,bit=0,n=36
         4 006525   200375 236100                    LDQ     TEMP+11,,AUTO
         4 006526   000011 116007                    CMPQ    9,DL
         4 006527   006540 602000 4                  TNC     s:19038+67
         4 006530   006752 600000 4                  TZE     s:19060
         4 006531   003100 061500                    CSR     bolr='003'O
         4 006532   000002 410010                    BDSC    2,,PR0                   by=2,bit=1,n=8
         4 006533   200376 000044                    BDSC    TEMP+12,,AUTO            by=0,bit=0,n=36
         4 006534   200376 236100                    LDQ     TEMP+12,,AUTO
         4 006535   000012 116007                    CMPQ    10,DL
         4 006536   007041 601000 4                  TNZ     s:19074
         4 006537   006762 710000 4                  TRA     s:19062
PL6.E3A0      #001=ASL$DISP_ONE_PROFILE File=ASL$L_PRO.:E05TSI                   TUE 07/29/97 10:26 Page:314
         4 006540   000134 470400 2                  LDP0    TATR$
         4 006541   003100 061500                    CSR     bolr='003'O
         4 006542   000002 410010                    BDSC    2,,PR0                   by=2,bit=1,n=8
         4 006543   200377 000044                    BDSC    TEMP+13,,AUTO            by=0,bit=0,n=36
         4 006544   200377 236100                    LDQ     TEMP+13,,AUTO
         4 006545   000010 116007                    CMPQ    8,DL
         4 006546   007041 601000 4                  TNZ     s:19074
         4 006547   006742 710000 4                  TRA     s:19058
         4 006550   003100 061500                    CSR     bolr='003'O
         4 006551   000002 410010                    BDSC    2,,PR0                   by=2,bit=1,n=8
         4 006552   200400 000044                    BDSC    TEMP+14,,AUTO            by=0,bit=0,n=36
         4 006553   200400 236100                    LDQ     TEMP+14,,AUTO
         4 006554   000003 116007                    CMPQ    3,DL
         4 006555   006605 602000 4                  TNC     s:19038+104
         4 006556   006672 600000 4                  TZE     s:19048
         4 006557   003100 061500                    CSR     bolr='003'O
         4 006560   000002 410010                    BDSC    2,,PR0                   by=2,bit=1,n=8
         4 006561   200401 000044                    BDSC    TEMP+15,,AUTO            by=0,bit=0,n=36
         4 006562   200401 236100                    LDQ     TEMP+15,,AUTO
         4 006563   000005 116007                    CMPQ    5,DL
         4 006564   006575 602000 4                  TNC     s:19038+96
         4 006565   006712 600000 4                  TZE     s:19052
         4 006566   003100 061500                    CSR     bolr='003'O
         4 006567   000002 410010                    BDSC    2,,PR0                   by=2,bit=1,n=8
         4 006570   200402 000044                    BDSC    TEMP+16,,AUTO            by=0,bit=0,n=36
         4 006571   200402 236100                    LDQ     TEMP+16,,AUTO
         4 006572   000006 116007                    CMPQ    6,DL
         4 006573   007041 601000 4                  TNZ     s:19074
         4 006574   006722 710000 4                  TRA     s:19054
         4 006575   000134 470400 2                  LDP0    TATR$
         4 006576   003100 061500                    CSR     bolr='003'O
         4 006577   000002 410010                    BDSC    2,,PR0                   by=2,bit=1,n=8
         4 006600   200403 000044                    BDSC    TEMP+17,,AUTO            by=0,bit=0,n=36
         4 006601   200403 236100                    LDQ     TEMP+17,,AUTO
         4 006602   000004 116007                    CMPQ    4,DL
         4 006603   007041 601000 4                  TNZ     s:19074
         4 006604   006702 710000 4                  TRA     s:19050
PL6.E3A0      #001=ASL$DISP_ONE_PROFILE File=ASL$L_PRO.:E05TSI                   TUE 07/29/97 10:26 Page:315
         4 006605   003100 061500                    CSR     bolr='003'O
         4 006606   000002 410010                    BDSC    2,,PR0                   by=2,bit=1,n=8
         4 006607   200404 000044                    BDSC    TEMP+18,,AUTO            by=0,bit=0,n=36
         4 006610   200404 236100                    LDQ     TEMP+18,,AUTO
         4 006611   000001 116007                    CMPQ    1,DL
         4 006612   006623 602000 4                  TNC     s:19038+118
         4 006613   006652 600000 4                  TZE     s:19044
         4 006614   003100 061500                    CSR     bolr='003'O
         4 006615   000002 410010                    BDSC    2,,PR0                   by=2,bit=1,n=8
         4 006616   200405 000044                    BDSC    TEMP+19,,AUTO            by=0,bit=0,n=36
         4 006617   200405 236100                    LDQ     TEMP+19,,AUTO
         4 006620   000002 116007                    CMPQ    2,DL
         4 006621   007041 601000 4                  TNZ     s:19074
         4 006622   006662 710000 4                  TRA     s:19046
         4 006623   003100 061500                    CSR     bolr='003'O
         4 006624   000002 410010                    BDSC    2,,PR0                   by=2,bit=1,n=8
         4 006625   200406 000044                    BDSC    TEMP+20,,AUTO            by=0,bit=0,n=36
         4 006626   200406 236100                    LDQ     TEMP+20,,AUTO
         4 006627   000000 116003                    CMPQ    0,DU
         4 006630   006642 600000 4                  TZE     s:19042
         4 006631   007041 710000 4                  TRA     s:19074

     1460    19039    5         SELECT( 255       /* NONE-BAUD */ );

     1461    19040    5         FMT_VEC(FDS.NVECS#) = VECTOR (DC_STR);

  19040  4 006632   000011 235000 xsym               LDA     FDS+9
         4 006633   000001 735000                    ALS     1
         4 006634   000000 620005                    EAX0    0,AL
         4 006635   000000 621005                    EAX1    0,AL
         4 006636   000034 237000 5                  LDAQ    28
         4 006637   000000 755010 xsym               STA     FMT_VEC,X0
         4 006640   000001 756011 xsym               STQ     FMT_VEC+1,X1
         4 006641   007041 710000 4                  TRA     s:19074

     1462    19041    5         SELECT( 0         /* 50-BAUD */ );

PL6.E3A0      #001=ASL$DISP_ONE_PROFILE File=ASL$L_PRO.:E05TSI                   TUE 07/29/97 10:26 Page:316
     1463    19042    5         FMT_VEC(FDS.NVECS#) = VECTOR(SPD50_STR);

  19042  4 006642   000011 235000 xsym               LDA     FDS+9
         4 006643   000001 735000                    ALS     1
         4 006644   000000 620005                    EAX0    0,AL
         4 006645   000000 621005                    EAX1    0,AL
         4 006646   000036 237000 5                  LDAQ    30
         4 006647   000000 755010 xsym               STA     FMT_VEC,X0
         4 006650   000001 756011 xsym               STQ     FMT_VEC+1,X1
         4 006651   007041 710000 4                  TRA     s:19074

     1464    19043    5         SELECT( 1         /* 75-BAUD */ );

     1465    19044    5         FMT_VEC(FDS.NVECS#) = VECTOR(VC75_STR);

  19044  4 006652   000011 235000 xsym               LDA     FDS+9
         4 006653   000001 735000                    ALS     1
         4 006654   000000 620005                    EAX0    0,AL
         4 006655   000000 621005                    EAX1    0,AL
         4 006656   000040 237000 5                  LDAQ    32
         4 006657   000000 755010 xsym               STA     FMT_VEC,X0
         4 006660   000001 756011 xsym               STQ     FMT_VEC+1,X1
         4 006661   007041 710000 4                  TRA     s:19074

     1466    19045    5         SELECT( 2         /* 110-BAUD */ );

     1467    19046    5         FMT_VEC(FDS.NVECS#) = VECTOR(SPD110_STR);

  19046  4 006662   000011 235000 xsym               LDA     FDS+9
         4 006663   000001 735000                    ALS     1
         4 006664   000000 620005                    EAX0    0,AL
         4 006665   000000 621005                    EAX1    0,AL
         4 006666   000042 237000 5                  LDAQ    34
         4 006667   000000 755010 xsym               STA     FMT_VEC,X0
         4 006670   000001 756011 xsym               STQ     FMT_VEC+1,X1
         4 006671   007041 710000 4                  TRA     s:19074

PL6.E3A0      #001=ASL$DISP_ONE_PROFILE File=ASL$L_PRO.:E05TSI                   TUE 07/29/97 10:26 Page:317
     1468    19047    5         SELECT( 3         /* 134.5-BAUD */ );

     1469    19048    5         FMT_VEC(FDS.NVECS#) = VECTOR(SPD1345_STR);

  19048  4 006672   000011 235000 xsym               LDA     FDS+9
         4 006673   000001 735000                    ALS     1
         4 006674   000000 620005                    EAX0    0,AL
         4 006675   000000 621005                    EAX1    0,AL
         4 006676   000044 237000 5                  LDAQ    36
         4 006677   000000 755010 xsym               STA     FMT_VEC,X0
         4 006700   000001 756011 xsym               STQ     FMT_VEC+1,X1
         4 006701   007041 710000 4                  TRA     s:19074

     1470    19049    5         SELECT( 4         /* 150-BAUD */ );

     1471    19050    5         FMT_VEC(FDS.NVECS#) = VECTOR(VC150_STR);

  19050  4 006702   000011 235000 xsym               LDA     FDS+9
         4 006703   000001 735000                    ALS     1
         4 006704   000000 620005                    EAX0    0,AL
         4 006705   000000 621005                    EAX1    0,AL
         4 006706   000046 237000 5                  LDAQ    38
         4 006707   000000 755010 xsym               STA     FMT_VEC,X0
         4 006710   000001 756011 xsym               STQ     FMT_VEC+1,X1
         4 006711   007041 710000 4                  TRA     s:19074

     1472    19051    5         SELECT( 5         /* 200-BAUD */ );

     1473    19052    5         FMT_VEC(FDS.NVECS#) = VECTOR(SPD200_STR);

  19052  4 006712   000011 235000 xsym               LDA     FDS+9
         4 006713   000001 735000                    ALS     1
         4 006714   000000 620005                    EAX0    0,AL
         4 006715   000000 621005                    EAX1    0,AL
         4 006716   000050 237000 5                  LDAQ    40
         4 006717   000000 755010 xsym               STA     FMT_VEC,X0
         4 006720   000001 756011 xsym               STQ     FMT_VEC+1,X1
PL6.E3A0      #001=ASL$DISP_ONE_PROFILE File=ASL$L_PRO.:E05TSI                   TUE 07/29/97 10:26 Page:318
         4 006721   007041 710000 4                  TRA     s:19074

     1474    19053    5         SELECT( 6         /* 300-BAUD */ );

     1475    19054    5         FMT_VEC(FDS.NVECS#) = VECTOR(VC300_STR);

  19054  4 006722   000011 235000 xsym               LDA     FDS+9
         4 006723   000001 735000                    ALS     1
         4 006724   000000 620005                    EAX0    0,AL
         4 006725   000000 621005                    EAX1    0,AL
         4 006726   000052 237000 5                  LDAQ    42
         4 006727   000000 755010 xsym               STA     FMT_VEC,X0
         4 006730   000001 756011 xsym               STQ     FMT_VEC+1,X1
         4 006731   007041 710000 4                  TRA     s:19074

     1476    19055    5         SELECT( 7         /* 600-BAUD */ );

     1477    19056    5         FMT_VEC(FDS.NVECS#) = VECTOR(VC600_STR);

  19056  4 006732   000011 235000 xsym               LDA     FDS+9
         4 006733   000001 735000                    ALS     1
         4 006734   000000 620005                    EAX0    0,AL
         4 006735   000000 621005                    EAX1    0,AL
         4 006736   000054 237000 5                  LDAQ    44
         4 006737   000000 755010 xsym               STA     FMT_VEC,X0
         4 006740   000001 756011 xsym               STQ     FMT_VEC+1,X1
         4 006741   007041 710000 4                  TRA     s:19074

     1478    19057    5         SELECT( 8         /* 1050-BAUD */ );

     1479    19058    5         FMT_VEC(FDS.NVECS#) = VECTOR(SPD1050_STR);

  19058  4 006742   000011 235000 xsym               LDA     FDS+9
         4 006743   000001 735000                    ALS     1
         4 006744   000000 620005                    EAX0    0,AL
         4 006745   000000 621005                    EAX1    0,AL
         4 006746   000056 237000 5                  LDAQ    46
PL6.E3A0      #001=ASL$DISP_ONE_PROFILE File=ASL$L_PRO.:E05TSI                   TUE 07/29/97 10:26 Page:319
         4 006747   000000 755010 xsym               STA     FMT_VEC,X0
         4 006750   000001 756011 xsym               STQ     FMT_VEC+1,X1
         4 006751   007041 710000 4                  TRA     s:19074

     1480    19059    5         SELECT( 9         /* 1200-BAUD */ );

     1481    19060    5         FMT_VEC(FDS.NVECS#) = VECTOR(VC1200_STR);

  19060  4 006752   000011 235000 xsym               LDA     FDS+9
         4 006753   000001 735000                    ALS     1
         4 006754   000000 620005                    EAX0    0,AL
         4 006755   000000 621005                    EAX1    0,AL
         4 006756   000060 237000 5                  LDAQ    48
         4 006757   000000 755010 xsym               STA     FMT_VEC,X0
         4 006760   000001 756011 xsym               STQ     FMT_VEC+1,X1
         4 006761   007041 710000 4                  TRA     s:19074

     1482    19061    5         SELECT( 10        /* 1800-BAUD */ );

     1483    19062    5         FMT_VEC(FDS.NVECS#) = VECTOR(SPD1800_STR);

  19062  4 006762   000011 235000 xsym               LDA     FDS+9
         4 006763   000001 735000                    ALS     1
         4 006764   000000 620005                    EAX0    0,AL
         4 006765   000000 621005                    EAX1    0,AL
         4 006766   000062 237000 5                  LDAQ    50
         4 006767   000000 755010 xsym               STA     FMT_VEC,X0
         4 006770   000001 756011 xsym               STQ     FMT_VEC+1,X1
         4 006771   007041 710000 4                  TRA     s:19074

     1484    19063    5         SELECT( 11        /* 2000-BAUD */ );

     1485    19064    5         FMT_VEC(FDS.NVECS#) = VECTOR(SPD2000_STR);

  19064  4 006772   000011 235000 xsym               LDA     FDS+9
         4 006773   000001 735000                    ALS     1
         4 006774   000000 620005                    EAX0    0,AL
PL6.E3A0      #001=ASL$DISP_ONE_PROFILE File=ASL$L_PRO.:E05TSI                   TUE 07/29/97 10:26 Page:320
         4 006775   000000 621005                    EAX1    0,AL
         4 006776   000064 237000 5                  LDAQ    52
         4 006777   000000 755010 xsym               STA     FMT_VEC,X0
         4 007000   000001 756011 xsym               STQ     FMT_VEC+1,X1
         4 007001   007041 710000 4                  TRA     s:19074

     1486    19065    5         SELECT( 12        /* 2400-BAUD */ );

     1487    19066    5         FMT_VEC(FDS.NVECS#) = VECTOR(VC2400_STR);

  19066  4 007002   000011 235000 xsym               LDA     FDS+9
         4 007003   000001 735000                    ALS     1
         4 007004   000000 620005                    EAX0    0,AL
         4 007005   000000 621005                    EAX1    0,AL
         4 007006   000066 237000 5                  LDAQ    54
         4 007007   000000 755010 xsym               STA     FMT_VEC,X0
         4 007010   000001 756011 xsym               STQ     FMT_VEC+1,X1
         4 007011   007041 710000 4                  TRA     s:19074

     1488    19067    5         SELECT( 13        /* 4800-BAUD */ );

     1489    19068    5         FMT_VEC(FDS.NVECS#) = VECTOR(VC4800_STR);

  19068  4 007012   000011 235000 xsym               LDA     FDS+9
         4 007013   000001 735000                    ALS     1
         4 007014   000000 620005                    EAX0    0,AL
         4 007015   000000 621005                    EAX1    0,AL
         4 007016   000070 237000 5                  LDAQ    56
         4 007017   000000 755010 xsym               STA     FMT_VEC,X0
         4 007020   000001 756011 xsym               STQ     FMT_VEC+1,X1
         4 007021   007041 710000 4                  TRA     s:19074

     1490    19069    5         SELECT( 14        /* 9600-BAUD */ );

     1491    19070    5         FMT_VEC(FDS.NVECS#) = VECTOR(VC9600_STR);

  19070  4 007022   000011 235000 xsym               LDA     FDS+9
PL6.E3A0      #001=ASL$DISP_ONE_PROFILE File=ASL$L_PRO.:E05TSI                   TUE 07/29/97 10:26 Page:321
         4 007023   000001 735000                    ALS     1
         4 007024   000000 620005                    EAX0    0,AL
         4 007025   000000 621005                    EAX1    0,AL
         4 007026   000072 237000 5                  LDAQ    58
         4 007027   000000 755010 xsym               STA     FMT_VEC,X0
         4 007030   000001 756011 xsym               STQ     FMT_VEC+1,X1
         4 007031   007041 710000 4                  TRA     s:19074

     1492    19071    5         SELECT( 15        /* 19200-BAUD */ );

     1493    19072    5         FMT_VEC(FDS.NVECS#) = VECTOR(VC19200_STR);

  19072  4 007032   000011 235000 xsym               LDA     FDS+9
         4 007033   000001 735000                    ALS     1
         4 007034   000000 620005                    EAX0    0,AL
         4 007035   000000 621005                    EAX1    0,AL
         4 007036   000074 237000 5                  LDAQ    60
         4 007037   000000 755010 xsym               STA     FMT_VEC,X0
         4 007040   000001 756011 xsym               STQ     FMT_VEC+1,X1

     1494    19073    5         END ;

     1495    19074    4      CLASS = 1 /* C_TEXT */ ;

  19074  4 007041   000001 235007                    LDA     1,DL
         4 007042   200162 755100                    STA     CLASS,,AUTO
         4 007043   015434 710000 4                  TRA     s:20217

     1496    19075    4      SELECT(60 /* TMNALG_AFTCUP */) ;

     1497    19076    4      SBINS(SBIN_IDX) = TCCHR$ -> KL$CCHR.TMNALG_AFTCUP ;

  19076  4 007044   200077 235100                    LDA     SBIN_IDX,,AUTO
         4 007045   000002 735000                    ALS     2
         4 007046   000137 470400 2                  LDP0    TCCHR$
         4 007047   000105 101500                    MRL     fill='000'O
         4 007050   000001 200001                    ADSC9   1,,PR0                   cn=1,n=1
PL6.E3A0      #001=ASL$DISP_ONE_PROFILE File=ASL$L_PRO.:E05TSI                   TUE 07/29/97 10:26 Page:322
         4 007051   200007 000004                    ADSC9   SBINS,A,AUTO             cn=0,n=4

     1498    19077    4      CLASS = 12 /* C_SBIN */ ;

  19077  4 007052   000014 236007                    LDQ     12,DL
         4 007053   200162 756100                    STQ     CLASS,,AUTO
         4 007054   015434 710000 4                  TRA     s:20217

     1499    19078    4      SELECT(61 /* TMNALG_AFTCR */) ;

     1500    19079    4      SBINS(SBIN_IDX) = TCCHR$ -> KL$CCHR.TMNALG_AFTCR ;

  19079  4 007055   200077 235100                    LDA     SBIN_IDX,,AUTO
         4 007056   000002 735000                    ALS     2
         4 007057   000137 470400 2                  LDP0    TCCHR$
         4 007060   000105 101500                    MRL     fill='000'O
         4 007061   000000 000001                    ADSC9   0,,PR0                   cn=0,n=1
         4 007062   200007 000004                    ADSC9   SBINS,A,AUTO             cn=0,n=4

     1501    19080    4      CLASS = 12 /* C_SBIN */ ;

  19080  4 007063   000014 236007                    LDQ     12,DL
         4 007064   200162 756100                    STQ     CLASS,,AUTO
         4 007065   015434 710000 4                  TRA     s:20217

     1502    19081    4      SELECT(62 /* TMNALG_AFTHPA */) ;

     1503    19082    4      SBINS(SBIN_IDX) = TCCHR$ -> KL$CCHR.TMNALG_AFTHPA ;

  19082  4 007066   200077 235100                    LDA     SBIN_IDX,,AUTO
         4 007067   000002 735000                    ALS     2
         4 007070   000137 470400 2                  LDP0    TCCHR$
         4 007071   000105 101500                    MRL     fill='000'O
         4 007072   000001 400001                    ADSC9   1,,PR0                   cn=2,n=1
         4 007073   200007 000004                    ADSC9   SBINS,A,AUTO             cn=0,n=4

     1504    19083    4      CLASS = 12 /* C_SBIN */ ;
PL6.E3A0      #001=ASL$DISP_ONE_PROFILE File=ASL$L_PRO.:E05TSI                   TUE 07/29/97 10:26 Page:323

  19083  4 007074   000014 236007                    LDQ     12,DL
         4 007075   200162 756100                    STQ     CLASS,,AUTO
         4 007076   015434 710000 4                  TRA     s:20217

     1505    19084    4      SELECT(63 /* TMNALG_AFTHT */) ;

     1506    19085    4      SBINS(SBIN_IDX) = TCCHR$ -> KL$CCHR.TMNALG_AFTHT ;

  19085  4 007077   200077 235100                    LDA     SBIN_IDX,,AUTO
         4 007100   000002 735000                    ALS     2
         4 007101   000137 470400 2                  LDP0    TCCHR$
         4 007102   000105 101500                    MRL     fill='000'O
         4 007103   000001 000001                    ADSC9   1,,PR0                   cn=0,n=1
         4 007104   200007 000004                    ADSC9   SBINS,A,AUTO             cn=0,n=4

     1507    19086    4      CLASS = 12 /* C_SBIN */ ;

  19086  4 007105   000014 236007                    LDQ     12,DL
         4 007106   200162 756100                    STQ     CLASS,,AUTO
         4 007107   015434 710000 4                  TRA     s:20217

     1508    19087    4      SELECT(64 /* TMNALG_AFTLF */) ;

     1509    19088    4      SBINS(SBIN_IDX) = TCCHR$ -> KL$CCHR.TMNALG_AFTLF ;

  19088  4 007110   200077 235100                    LDA     SBIN_IDX,,AUTO
         4 007111   000002 735000                    ALS     2
         4 007112   000137 470400 2                  LDP0    TCCHR$
         4 007113   000105 101500                    MRL     fill='000'O
         4 007114   000000 400001                    ADSC9   0,,PR0                   cn=2,n=1
         4 007115   200007 000004                    ADSC9   SBINS,A,AUTO             cn=0,n=4

     1510    19089    4      CLASS = 12 /* C_SBIN */ ;

  19089  4 007116   000014 236007                    LDQ     12,DL
         4 007117   200162 756100                    STQ     CLASS,,AUTO
PL6.E3A0      #001=ASL$DISP_ONE_PROFILE File=ASL$L_PRO.:E05TSI                   TUE 07/29/97 10:26 Page:324
         4 007120   015434 710000 4                  TRA     s:20217

     1511    19090    4      SELECT(65 /* TMNALG_BFRCR */) ;

     1512    19091    4      SBINS(SBIN_IDX) = TCCHR$ -> KL$CCHR.TMNALG_BFRCR ;

  19091  4 007121   200077 235100                    LDA     SBIN_IDX,,AUTO
         4 007122   000002 735000                    ALS     2
         4 007123   000137 470400 2                  LDP0    TCCHR$
         4 007124   000105 101500                    MRL     fill='000'O
         4 007125   000000 200001                    ADSC9   0,,PR0                   cn=1,n=1
         4 007126   200007 000004                    ADSC9   SBINS,A,AUTO             cn=0,n=4

     1513    19092    4      CLASS = 12 /* C_SBIN */ ;

  19092  4 007127   000014 236007                    LDQ     12,DL
         4 007130   200162 756100                    STQ     CLASS,,AUTO
         4 007131   015434 710000 4                  TRA     s:20217

     1514    19093    4      SELECT(66 /* TMNALG_BFRLF */) ;

     1515    19094    4      SBINS(SBIN_IDX) = TCCHR$ -> KL$CCHR.TMNALG_BFRLF ;

  19094  4 007132   200077 235100                    LDA     SBIN_IDX,,AUTO
         4 007133   000002 735000                    ALS     2
         4 007134   000137 470400 2                  LDP0    TCCHR$
         4 007135   000105 101500                    MRL     fill='000'O
         4 007136   000000 600001                    ADSC9   0,,PR0                   cn=3,n=1
         4 007137   200007 000004                    ADSC9   SBINS,A,AUTO             cn=0,n=4

     1516    19095    4      CLASS = 12 /* C_SBIN */ ;

  19095  4 007140   000014 236007                    LDQ     12,DL
         4 007141   200162 756100                    STQ     CLASS,,AUTO
         4 007142   015434 710000 4                  TRA     s:20217

     1517    19096    4      SELECT( 162 /* TMNALG_FILCHR */ );
PL6.E3A0      #001=ASL$DISP_ONE_PROFILE File=ASL$L_PRO.:E05TSI                   TUE 07/29/97 10:26 Page:325

     1518    19097    4      UHEX_NUM = TCCHR$ -> KL$CCHR.TMNALG_FILCHR;

  19097  4 007143   000137 470400 2                  LDP0    TCCHR$
         4 007144   000100 101500                    MRL     fill='000'O
         4 007145   000001 600001                    ADSC9   1,,PR0                   cn=3,n=1
         4 007146   200144 000004                    ADSC9   UHEX_NUM,,AUTO           cn=0,n=4

     1519    19098    4      CLASS = 14 /* C_HEX */;

  19098  4 007147   000016 235007                    LDA     14,DL
         4 007150   200162 755100                    STA     CLASS,,AUTO
         4 007151   015434 710000 4                  TRA     s:20217

     1520    19099    4      SELECT(67 /* BS_TIM */) ;

     1521    19100    4      SBINS(SBIN_IDX) = 0 ;

  19100  4 007152   200077 720100                    LXL0    SBIN_IDX,,AUTO
         4 007153   200007 450110                    STZ     SBINS,X0,AUTO

     1522    19101    4      SPLIT$ = ADDR(SBINS(SBIN_IDX)) ;

  19101  4 007154   200007 630510                    EPPR0   SBINS,X0,AUTO
         4 007155   200143 450500                    STP0    SPLIT$,,AUTO

     1523    19102    4      KL$UBWORD.NUM = TCCHR$ -> KL$CCHR.BS_TIM ;

  19102  4 007156   000137 471400 2                  LDP1    TCCHR$
         4 007157   000100 100500                    MLR     fill='000'O
         4 007160   100002 400002                    ADSC9   2,,PR1                   cn=2,n=2
         4 007161   200005 400002                    ADSC9   KL$UBWORD,,AUTO          cn=2,n=2

     1524    19103    4      SPLIT$ -> KL$UWORD.T = KL$UBWORD.REPLACE.T ;

  19103  4 007162   200005 236100                    LDQ     KL$UBWORD,,AUTO
         4 007163   377000 376007                    ANQ     130560,DL
PL6.E3A0      #001=ASL$DISP_ONE_PROFILE File=ASL$L_PRO.:E05TSI                   TUE 07/29/97 10:26 Page:326
         4 007164   000001 772000                    QRL     1
         4 007165   000000 676100                    ERQ     0,,PR0
         4 007166   000033 376000 5                  ANQ     27
         4 007167   000000 656100                    ERSQ    0,,PR0

     1525    19104    4      SPLIT$ -> KL$UWORD.B = KL$UBWORD.REPLACE.B ;

  19104  4 007170   200005 236100                    LDQ     KL$UBWORD,,AUTO
         4 007171   000000 676100                    ERQ     0,,PR0
         4 007172   000377 376007                    ANQ     255,DL
         4 007173   000000 656100                    ERSQ    0,,PR0

     1526    19105    4      CLASS = 13 /* C_REAL */ ;

  19105  4 007174   000015 235007                    LDA     13,DL
         4 007175   200162 755100                    STA     CLASS,,AUTO
         4 007176   015434 710000 4                  TRA     s:20217

     1527    19106    4      SELECT(68 /* ERSTIM */) ;

     1528    19107    4      SBINS(SBIN_IDX) = 0 ;

  19107  4 007177   200077 720100                    LXL0    SBIN_IDX,,AUTO
         4 007200   200007 450110                    STZ     SBINS,X0,AUTO

     1529    19108    4      SPLIT$ = ADDR(SBINS(SBIN_IDX)) ;

  19108  4 007201   200007 630510                    EPPR0   SBINS,X0,AUTO
         4 007202   200143 450500                    STP0    SPLIT$,,AUTO

     1530    19109    4      KL$UBWORD.NUM = TCCHR$ -> KL$CCHR.ERSTIM ;

  19109  4 007203   000137 471400 2                  LDP1    TCCHR$
         4 007204   000100 100500                    MLR     fill='000'O
         4 007205   100003 000002                    ADSC9   3,,PR1                   cn=0,n=2
         4 007206   200005 400002                    ADSC9   KL$UBWORD,,AUTO          cn=2,n=2

PL6.E3A0      #001=ASL$DISP_ONE_PROFILE File=ASL$L_PRO.:E05TSI                   TUE 07/29/97 10:26 Page:327
     1531    19110    4      SPLIT$ -> KL$UWORD.T = KL$UBWORD.REPLACE.T ;

  19110  4 007207   200005 236100                    LDQ     KL$UBWORD,,AUTO
         4 007210   377000 376007                    ANQ     130560,DL
         4 007211   000001 772000                    QRL     1
         4 007212   000000 676100                    ERQ     0,,PR0
         4 007213   000033 376000 5                  ANQ     27
         4 007214   000000 656100                    ERSQ    0,,PR0

     1532    19111    4      SPLIT$ -> KL$UWORD.B = KL$UBWORD.REPLACE.B ;

  19111  4 007215   200005 236100                    LDQ     KL$UBWORD,,AUTO
         4 007216   000000 676100                    ERQ     0,,PR0
         4 007217   000377 376007                    ANQ     255,DL
         4 007220   000000 656100                    ERSQ    0,,PR0

     1533    19112    4      CLASS = 13 /* C_REAL */ ;

  19112  4 007221   000015 235007                    LDA     13,DL
         4 007222   200162 755100                    STA     CLASS,,AUTO
         4 007223   015434 710000 4                  TRA     s:20217

     1534    19113    4      SELECT(69 /* TIMAFTCTRFNC */) ;

     1535    19114    4      SBINS(SBIN_IDX) = 0 ;

  19114  4 007224   200077 720100                    LXL0    SBIN_IDX,,AUTO
         4 007225   200007 450110                    STZ     SBINS,X0,AUTO

     1536    19115    4      SPLIT$ = ADDR(SBINS(SBIN_IDX)) ;

  19115  4 007226   200007 630510                    EPPR0   SBINS,X0,AUTO
         4 007227   200143 450500                    STP0    SPLIT$,,AUTO

     1537    19116    4      KL$UBWORD.NUM = TCCHR$ -> KL$CCHR.CTRFNCTIM ;

  19116  4 007230   000137 471400 2                  LDP1    TCCHR$
PL6.E3A0      #001=ASL$DISP_ONE_PROFILE File=ASL$L_PRO.:E05TSI                   TUE 07/29/97 10:26 Page:328
         4 007231   000100 100500                    MLR     fill='000'O
         4 007232   100002 000002                    ADSC9   2,,PR1                   cn=0,n=2
         4 007233   200005 400002                    ADSC9   KL$UBWORD,,AUTO          cn=2,n=2

     1538    19117    4      SPLIT$ -> KL$UWORD.T = KL$UBWORD.REPLACE.T ;

  19117  4 007234   200005 236100                    LDQ     KL$UBWORD,,AUTO
         4 007235   377000 376007                    ANQ     130560,DL
         4 007236   000001 772000                    QRL     1
         4 007237   000000 676100                    ERQ     0,,PR0
         4 007240   000033 376000 5                  ANQ     27
         4 007241   000000 656100                    ERSQ    0,,PR0

     1539    19118    4      SPLIT$ -> KL$UWORD.B = KL$UBWORD.REPLACE.B ;

  19118  4 007242   200005 236100                    LDQ     KL$UBWORD,,AUTO
         4 007243   000000 676100                    ERQ     0,,PR0
         4 007244   000377 376007                    ANQ     255,DL
         4 007245   000000 656100                    ERSQ    0,,PR0

     1540    19119    4      CLASS = 13 /* C_REAL */ ;

  19119  4 007246   000015 235007                    LDA     13,DL
         4 007247   200162 755100                    STA     CLASS,,AUTO
         4 007250   015434 710000 4                  TRA     s:20217

     1541    19120    4      SELECT(70 /* TMNALG_PRM1 */) ;

     1542    19121    4      SBINS(SBIN_IDX) = 0 ;

  19121  4 007251   200077 720100                    LXL0    SBIN_IDX,,AUTO
         4 007252   200007 450110                    STZ     SBINS,X0,AUTO

     1543    19122    4      SPLIT$ = ADDR(SBINS(SBIN_IDX)) ;

  19122  4 007253   200007 630510                    EPPR0   SBINS,X0,AUTO
         4 007254   200143 450500                    STP0    SPLIT$,,AUTO
PL6.E3A0      #001=ASL$DISP_ONE_PROFILE File=ASL$L_PRO.:E05TSI                   TUE 07/29/97 10:26 Page:329

     1544    19123    4      KL$UBWORD.NUM = TCCHR$ -> KL$CCHR.TMNALG_PRM1 ;

  19123  4 007255   000137 471400 2                  LDP1    TCCHR$
         4 007256   000100 100500                    MLR     fill='000'O
         4 007257   100003 400002                    ADSC9   3,,PR1                   cn=2,n=2
         4 007260   200005 400002                    ADSC9   KL$UBWORD,,AUTO          cn=2,n=2

     1545    19124    4      SPLIT$ -> KL$UWORD.T = KL$UBWORD.REPLACE.T ;

  19124  4 007261   200005 236100                    LDQ     KL$UBWORD,,AUTO
         4 007262   377000 376007                    ANQ     130560,DL
         4 007263   000001 772000                    QRL     1
         4 007264   000000 676100                    ERQ     0,,PR0
         4 007265   000033 376000 5                  ANQ     27
         4 007266   000000 656100                    ERSQ    0,,PR0

     1546    19125    4      SPLIT$ -> KL$UWORD.B = KL$UBWORD.REPLACE.B ;

  19125  4 007267   200005 236100                    LDQ     KL$UBWORD,,AUTO
         4 007270   000000 676100                    ERQ     0,,PR0
         4 007271   000377 376007                    ANQ     255,DL
         4 007272   000000 656100                    ERSQ    0,,PR0

     1547    19126    4      CLASS = 13 /* C_REAL */ ;

  19126  4 007273   000015 235007                    LDA     13,DL
         4 007274   200162 755100                    STA     CLASS,,AUTO
         4 007275   015434 710000 4                  TRA     s:20217

     1548    19127    4      SELECT(71 /* TMNALG_PRM2 */) ;

     1549    19128    4      SBINS(SBIN_IDX) = 0 ;

  19128  4 007276   200077 720100                    LXL0    SBIN_IDX,,AUTO
         4 007277   200007 450110                    STZ     SBINS,X0,AUTO

PL6.E3A0      #001=ASL$DISP_ONE_PROFILE File=ASL$L_PRO.:E05TSI                   TUE 07/29/97 10:26 Page:330
     1550    19129    4      SPLIT$ = ADDR(SBINS(SBIN_IDX)) ;

  19129  4 007300   200007 630510                    EPPR0   SBINS,X0,AUTO
         4 007301   200143 450500                    STP0    SPLIT$,,AUTO

     1551    19130    4      KL$UBWORD.NUM = TCCHR$ -> KL$CCHR.TMNALG_PRM2 ;

  19130  4 007302   000137 471400 2                  LDP1    TCCHR$
         4 007303   000100 100500                    MLR     fill='000'O
         4 007304   100004 000002                    ADSC9   4,,PR1                   cn=0,n=2
         4 007305   200005 400002                    ADSC9   KL$UBWORD,,AUTO          cn=2,n=2

     1552    19131    4      SPLIT$ -> KL$UWORD.T = KL$UBWORD.REPLACE.T ;

  19131  4 007306   200005 236100                    LDQ     KL$UBWORD,,AUTO
         4 007307   377000 376007                    ANQ     130560,DL
         4 007310   000001 772000                    QRL     1
         4 007311   000000 676100                    ERQ     0,,PR0
         4 007312   000033 376000 5                  ANQ     27
         4 007313   000000 656100                    ERSQ    0,,PR0

     1553    19132    4      SPLIT$ -> KL$UWORD.B = KL$UBWORD.REPLACE.B ;

  19132  4 007314   200005 236100                    LDQ     KL$UBWORD,,AUTO
         4 007315   000000 676100                    ERQ     0,,PR0
         4 007316   000377 376007                    ANQ     255,DL
         4 007317   000000 656100                    ERSQ    0,,PR0

     1554    19133    4      CLASS = 13 /* C_REAL */ ;

  19133  4 007320   000015 235007                    LDA     13,DL
         4 007321   200162 755100                    STA     CLASS,,AUTO
         4 007322   015434 710000 4                  TRA     s:20217

     1555    19134    4      SELECT(72 /* TMNALG_PRM3 */) ;

     1556    19135    4      SBINS(SBIN_IDX) = 0 ;
PL6.E3A0      #001=ASL$DISP_ONE_PROFILE File=ASL$L_PRO.:E05TSI                   TUE 07/29/97 10:26 Page:331

  19135  4 007323   200077 720100                    LXL0    SBIN_IDX,,AUTO
         4 007324   200007 450110                    STZ     SBINS,X0,AUTO

     1557    19136    4      SPLIT$ = ADDR(SBINS(SBIN_IDX)) ;

  19136  4 007325   200007 630510                    EPPR0   SBINS,X0,AUTO
         4 007326   200143 450500                    STP0    SPLIT$,,AUTO

     1558    19137    4      KL$UBWORD.NUM = TCCHR$ -> KL$CCHR.TMNALG_PRM3 ;

  19137  4 007327   000137 471400 2                  LDP1    TCCHR$
         4 007330   000100 100500                    MLR     fill='000'O
         4 007331   100004 400002                    ADSC9   4,,PR1                   cn=2,n=2
         4 007332   200005 400002                    ADSC9   KL$UBWORD,,AUTO          cn=2,n=2

     1559    19138    4      SPLIT$ -> KL$UWORD.T = KL$UBWORD.REPLACE.T ;

  19138  4 007333   200005 236100                    LDQ     KL$UBWORD,,AUTO
         4 007334   377000 376007                    ANQ     130560,DL
         4 007335   000001 772000                    QRL     1
         4 007336   000000 676100                    ERQ     0,,PR0
         4 007337   000033 376000 5                  ANQ     27
         4 007340   000000 656100                    ERSQ    0,,PR0

     1560    19139    4      SPLIT$ -> KL$UWORD.B = KL$UBWORD.REPLACE.B ;

  19139  4 007341   200005 236100                    LDQ     KL$UBWORD,,AUTO
         4 007342   000000 676100                    ERQ     0,,PR0
         4 007343   000377 376007                    ANQ     255,DL
         4 007344   000000 656100                    ERSQ    0,,PR0

     1561    19140    4      CLASS = 13 /* C_REAL */ ;

  19140  4 007345   000015 235007                    LDA     13,DL
         4 007346   200162 755100                    STA     CLASS,,AUTO
         4 007347   015434 710000 4                  TRA     s:20217
PL6.E3A0      #001=ASL$DISP_ONE_PROFILE File=ASL$L_PRO.:E05TSI                   TUE 07/29/97 10:26 Page:332

     1562    19141    4      SELECT(73 /* TMNALG_PRM4 */) ;

     1563    19142    4      SBINS(SBIN_IDX) = 0 ;

  19142  4 007350   200077 720100                    LXL0    SBIN_IDX,,AUTO
         4 007351   200007 450110                    STZ     SBINS,X0,AUTO

     1564    19143    4      SPLIT$ = ADDR(SBINS(SBIN_IDX)) ;

  19143  4 007352   200007 630510                    EPPR0   SBINS,X0,AUTO
         4 007353   200143 450500                    STP0    SPLIT$,,AUTO

     1565    19144    4      KL$UBWORD.NUM = TCCHR$ -> KL$CCHR.TMNALG_PRM4 ;

  19144  4 007354   000137 471400 2                  LDP1    TCCHR$
         4 007355   000100 100500                    MLR     fill='000'O
         4 007356   100005 000002                    ADSC9   5,,PR1                   cn=0,n=2
         4 007357   200005 400002                    ADSC9   KL$UBWORD,,AUTO          cn=2,n=2

     1566    19145    4      SPLIT$ -> KL$UWORD.T = KL$UBWORD.REPLACE.T ;

  19145  4 007360   200005 236100                    LDQ     KL$UBWORD,,AUTO
         4 007361   377000 376007                    ANQ     130560,DL
         4 007362   000001 772000                    QRL     1
         4 007363   000000 676100                    ERQ     0,,PR0
         4 007364   000033 376000 5                  ANQ     27
         4 007365   000000 656100                    ERSQ    0,,PR0

     1567    19146    4      SPLIT$ -> KL$UWORD.B = KL$UBWORD.REPLACE.B ;

  19146  4 007366   200005 236100                    LDQ     KL$UBWORD,,AUTO
         4 007367   000000 676100                    ERQ     0,,PR0
         4 007370   000377 376007                    ANQ     255,DL
         4 007371   000000 656100                    ERSQ    0,,PR0

     1568    19147    4      CLASS = 13 /* C_REAL */ ;
PL6.E3A0      #001=ASL$DISP_ONE_PROFILE File=ASL$L_PRO.:E05TSI                   TUE 07/29/97 10:26 Page:333

  19147  4 007372   000015 235007                    LDA     13,DL
         4 007373   200162 755100                    STA     CLASS,,AUTO
         4 007374   015434 710000 4                  TRA     s:20217

     1569    19148    4      SELECT(74 /* TMNALG_PRM5 */) ;

     1570    19149    4      SBINS(SBIN_IDX) = 0 ;

  19149  4 007375   200077 720100                    LXL0    SBIN_IDX,,AUTO
         4 007376   200007 450110                    STZ     SBINS,X0,AUTO

     1571    19150    4      SPLIT$ = ADDR(SBINS(SBIN_IDX)) ;

  19150  4 007377   200007 630510                    EPPR0   SBINS,X0,AUTO
         4 007400   200143 450500                    STP0    SPLIT$,,AUTO

     1572    19151    4      KL$UBWORD.NUM = TCCHR$ -> KL$CCHR.TMNALG_PRM5 ;

  19151  4 007401   000137 471400 2                  LDP1    TCCHR$
         4 007402   000100 100500                    MLR     fill='000'O
         4 007403   100005 400002                    ADSC9   5,,PR1                   cn=2,n=2
         4 007404   200005 400002                    ADSC9   KL$UBWORD,,AUTO          cn=2,n=2

     1573    19152    4      SPLIT$ -> KL$UWORD.T = KL$UBWORD.REPLACE.T ;

  19152  4 007405   200005 236100                    LDQ     KL$UBWORD,,AUTO
         4 007406   377000 376007                    ANQ     130560,DL
         4 007407   000001 772000                    QRL     1
         4 007410   000000 676100                    ERQ     0,,PR0
         4 007411   000033 376000 5                  ANQ     27
         4 007412   000000 656100                    ERSQ    0,,PR0

     1574    19153    4      SPLIT$ -> KL$UWORD.B = KL$UBWORD.REPLACE.B ;

  19153  4 007413   200005 236100                    LDQ     KL$UBWORD,,AUTO
         4 007414   000000 676100                    ERQ     0,,PR0
PL6.E3A0      #001=ASL$DISP_ONE_PROFILE File=ASL$L_PRO.:E05TSI                   TUE 07/29/97 10:26 Page:334
         4 007415   000377 376007                    ANQ     255,DL
         4 007416   000000 656100                    ERSQ    0,,PR0

     1575    19154    4      CLASS = 13 /* C_REAL */ ;

  19154  4 007417   000015 235007                    LDA     13,DL
         4 007420   200162 755100                    STA     CLASS,,AUTO
         4 007421   015434 710000 4                  TRA     s:20217

     1576    19155    4      SELECT(75 /* TMNALG_PRM6 */) ;

     1577    19156    4      SBINS(SBIN_IDX) = 0 ;

  19156  4 007422   200077 720100                    LXL0    SBIN_IDX,,AUTO
         4 007423   200007 450110                    STZ     SBINS,X0,AUTO

     1578    19157    4      SPLIT$ = ADDR(SBINS(SBIN_IDX)) ;

  19157  4 007424   200007 630510                    EPPR0   SBINS,X0,AUTO
         4 007425   200143 450500                    STP0    SPLIT$,,AUTO

     1579    19158    4      KL$UBWORD.NUM = TCCHR$ -> KL$CCHR.TMNALG_PRM6 ;

  19158  4 007426   000137 471400 2                  LDP1    TCCHR$
         4 007427   000100 100500                    MLR     fill='000'O
         4 007430   100006 000002                    ADSC9   6,,PR1                   cn=0,n=2
         4 007431   200005 400002                    ADSC9   KL$UBWORD,,AUTO          cn=2,n=2

     1580    19159    4      SPLIT$ -> KL$UWORD.T = KL$UBWORD.REPLACE.T ;

  19159  4 007432   200005 236100                    LDQ     KL$UBWORD,,AUTO
         4 007433   377000 376007                    ANQ     130560,DL
         4 007434   000001 772000                    QRL     1
         4 007435   000000 676100                    ERQ     0,,PR0
         4 007436   000033 376000 5                  ANQ     27
         4 007437   000000 656100                    ERSQ    0,,PR0

PL6.E3A0      #001=ASL$DISP_ONE_PROFILE File=ASL$L_PRO.:E05TSI                   TUE 07/29/97 10:26 Page:335
     1581    19160    4      SPLIT$ -> KL$UWORD.B = KL$UBWORD.REPLACE.B ;

  19160  4 007440   200005 236100                    LDQ     KL$UBWORD,,AUTO
         4 007441   000000 676100                    ERQ     0,,PR0
         4 007442   000377 376007                    ANQ     255,DL
         4 007443   000000 656100                    ERSQ    0,,PR0

     1582    19161    4      CLASS = 13 /* C_REAL */ ;

  19161  4 007444   000015 235007                    LDA     13,DL
         4 007445   200162 755100                    STA     CLASS,,AUTO
         4 007446   015434 710000 4                  TRA     s:20217

     1583    19162    4      SELECT(76 /* TMNALG_PRM7 */) ;

     1584    19163    4      SBINS(SBIN_IDX) = 0 ;

  19163  4 007447   200077 720100                    LXL0    SBIN_IDX,,AUTO
         4 007450   200007 450110                    STZ     SBINS,X0,AUTO

     1585    19164    4      SPLIT$ = ADDR(SBINS(SBIN_IDX)) ;

  19164  4 007451   200007 630510                    EPPR0   SBINS,X0,AUTO
         4 007452   200143 450500                    STP0    SPLIT$,,AUTO

     1586    19165    4      KL$UBWORD.NUM = TCCHR$ -> KL$CCHR.TMNALG_PRM7 ;

  19165  4 007453   000137 471400 2                  LDP1    TCCHR$
         4 007454   000100 100500                    MLR     fill='000'O
         4 007455   100006 400002                    ADSC9   6,,PR1                   cn=2,n=2
         4 007456   200005 400002                    ADSC9   KL$UBWORD,,AUTO          cn=2,n=2

     1587    19166    4      SPLIT$ -> KL$UWORD.T = KL$UBWORD.REPLACE.T ;

  19166  4 007457   200005 236100                    LDQ     KL$UBWORD,,AUTO
         4 007460   377000 376007                    ANQ     130560,DL
         4 007461   000001 772000                    QRL     1
PL6.E3A0      #001=ASL$DISP_ONE_PROFILE File=ASL$L_PRO.:E05TSI                   TUE 07/29/97 10:26 Page:336
         4 007462   000000 676100                    ERQ     0,,PR0
         4 007463   000033 376000 5                  ANQ     27
         4 007464   000000 656100                    ERSQ    0,,PR0

     1588    19167    4      SPLIT$ -> KL$UWORD.B = KL$UBWORD.REPLACE.B ;

  19167  4 007465   200005 236100                    LDQ     KL$UBWORD,,AUTO
         4 007466   000000 676100                    ERQ     0,,PR0
         4 007467   000377 376007                    ANQ     255,DL
         4 007470   000000 656100                    ERSQ    0,,PR0

     1589    19168    4      CLASS = 13 /* C_REAL */ ;

  19168  4 007471   000015 235007                    LDA     13,DL
         4 007472   200162 755100                    STA     CLASS,,AUTO
         4 007473   015434 710000 4                  TRA     s:20217

     1590    19169    4      SELECT(77 /* TMNALG_PRM8 */) ;

     1591    19170    4      SBINS(SBIN_IDX) = 0 ;

  19170  4 007474   200077 720100                    LXL0    SBIN_IDX,,AUTO
         4 007475   200007 450110                    STZ     SBINS,X0,AUTO

     1592    19171    4      SPLIT$ = ADDR(SBINS(SBIN_IDX)) ;

  19171  4 007476   200007 630510                    EPPR0   SBINS,X0,AUTO
         4 007477   200143 450500                    STP0    SPLIT$,,AUTO

     1593    19172    4      KL$UBWORD.NUM = TCCHR$ -> KL$CCHR.TMNALG_PRM8 ;

  19172  4 007500   000137 471400 2                  LDP1    TCCHR$
         4 007501   000100 100500                    MLR     fill='000'O
         4 007502   100007 000002                    ADSC9   7,,PR1                   cn=0,n=2
         4 007503   200005 400002                    ADSC9   KL$UBWORD,,AUTO          cn=2,n=2

     1594    19173    4      SPLIT$ -> KL$UWORD.T = KL$UBWORD.REPLACE.T ;
PL6.E3A0      #001=ASL$DISP_ONE_PROFILE File=ASL$L_PRO.:E05TSI                   TUE 07/29/97 10:26 Page:337

  19173  4 007504   200005 236100                    LDQ     KL$UBWORD,,AUTO
         4 007505   377000 376007                    ANQ     130560,DL
         4 007506   000001 772000                    QRL     1
         4 007507   000000 676100                    ERQ     0,,PR0
         4 007510   000033 376000 5                  ANQ     27
         4 007511   000000 656100                    ERSQ    0,,PR0

     1595    19174    4      SPLIT$ -> KL$UWORD.B = KL$UBWORD.REPLACE.B ;

  19174  4 007512   200005 236100                    LDQ     KL$UBWORD,,AUTO
         4 007513   000000 676100                    ERQ     0,,PR0
         4 007514   000377 376007                    ANQ     255,DL
         4 007515   000000 656100                    ERSQ    0,,PR0

     1596    19175    4      CLASS = 13 /* C_REAL */ ;

  19175  4 007516   000015 235007                    LDA     13,DL
         4 007517   200162 755100                    STA     CLASS,,AUTO
         4 007520   015434 710000 4                  TRA     s:20217

     1597    19176
     1598    19177    4      SELECT(78 /* FCNTBL */) ;

     1599    19178    4      IF TATR$->VLP$TRMATTR.FCNTBL# = AS_BLANK THEN

  19178  4 007521   000134 470400 2                  LDP0    TATR$
         4 007522   040000 106500                    CMPC    fill='040'O
         4 007523   000005 000010                    ADSC9   5,,PR0                   cn=0,n=8
         4 007524   000000 000001 xsym               ADSC9   AS_BLANK                 cn=0,n=1
         4 007525   007536 601000 4                  TNZ     s:19181

     1600    19179    4         FMT_VEC(FDS.NVECS#) = VECTOR(NONE_SET_STR) ;

  19179  4 007526   000011 235000 xsym               LDA     FDS+9
         4 007527   000001 735000                    ALS     1
         4 007530   000000 620005                    EAX0    0,AL
PL6.E3A0      #001=ASL$DISP_ONE_PROFILE File=ASL$L_PRO.:E05TSI                   TUE 07/29/97 10:26 Page:338
         4 007531   000000 621005                    EAX1    0,AL
         4 007532   000076 237000 5                  LDAQ    62
         4 007533   000000 755010 xsym               STA     FMT_VEC,X0
         4 007534   000001 756011 xsym               STQ     FMT_VEC+1,X1
         4 007535   007546 710000 4                  TRA     s:19182

     1601    19180    4      ELSE
     1602    19181    4         FMT_VEC(FDS.NVECS#) = VECTOR(TATR$ -> VLP$TRMATTR.FCNTBL#) ;

  19181  4 007536   000011 235000 xsym               LDA     FDS+9
         4 007537   000001 735000                    ALS     1
         4 007540   000000 620005                    EAX0    0,AL
         4 007541   000076 235000 5                  LDA     62
         4 007542   000134 236000 2                  LDQ     TATR$
         4 007543   000005 036003                    ADLQ    5,DU
         4 007544   000000 755010 xsym               STA     FMT_VEC,X0
         4 007545   000001 756010 xsym               STQ     FMT_VEC+1,X0

     1603    19182    4      CLASS = 1 /* C_TEXT */ ;

  19182  4 007546   000001 235007                    LDA     1,DL
         4 007547   200162 755100                    STA     CLASS,,AUTO
         4 007550   015434 710000 4                  TRA     s:20217

     1604    19183
     1605    19184    4      SELECT(79 /* CHARSETNAME */) ;

     1606    19185    4      IF TATR$->VLP$TRMATTR.CHARSETNAME# = AS_BLANK THEN

  19185  4 007551   000134 470400 2                  LDP0    TATR$
         4 007552   040000 106500                    CMPC    fill='040'O
         4 007553   000003 000010                    ADSC9   3,,PR0                   cn=0,n=8
         4 007554   000000 000001 xsym               ADSC9   AS_BLANK                 cn=0,n=1
         4 007555   007566 601000 4                  TNZ     s:19188

     1607    19186    4         FMT_VEC(FDS.NVECS#) = VECTOR(NONE_STR) ;

PL6.E3A0      #001=ASL$DISP_ONE_PROFILE File=ASL$L_PRO.:E05TSI                   TUE 07/29/97 10:26 Page:339
  19186  4 007556   000011 235000 xsym               LDA     FDS+9
         4 007557   000001 735000                    ALS     1
         4 007560   000000 620005                    EAX0    0,AL
         4 007561   000000 621005                    EAX1    0,AL
         4 007562   000100 237000 5                  LDAQ    64
         4 007563   000000 755010 xsym               STA     FMT_VEC,X0
         4 007564   000001 756011 xsym               STQ     FMT_VEC+1,X1
         4 007565   007576 710000 4                  TRA     s:19189

     1608    19187    4      ELSE
     1609    19188    4         FMT_VEC(FDS.NVECS#) = VECTOR(TATR$ -> VLP$TRMATTR.CHARSETNAME#) ;

  19188  4 007566   000011 235000 xsym               LDA     FDS+9
         4 007567   000001 735000                    ALS     1
         4 007570   000000 620005                    EAX0    0,AL
         4 007571   000076 235000 5                  LDA     62
         4 007572   000134 236000 2                  LDQ     TATR$
         4 007573   000003 036003                    ADLQ    3,DU
         4 007574   000000 755010 xsym               STA     FMT_VEC,X0
         4 007575   000001 756010 xsym               STQ     FMT_VEC+1,X0

     1610    19189    4      CLASS = 1 /* C_TEXT */ ;

  19189  4 007576   000001 235007                    LDA     1,DL
         4 007577   200162 755100                    STA     CLASS,,AUTO
         4 007600   015434 710000 4                  TRA     s:20217

     1611    19190
     1612    19191    4      SELECT(82 /* CUP_ALG */) ;

     1613    19192    5      DO SELECT(TCCHR$->KL$CCHR.CUP_ALG) ;

  19192  4 007601   000137 470400 2                  LDP0    TCCHR$
         4 007602   000100 101500                    MRL     fill='000'O
         4 007603   000010 400001                    ADSC9   8,,PR0                   cn=2,n=1
         4 007604   200366 000004                    ADSC9   TEMP+4,,AUTO             cn=0,n=4
         4 007605   200366 236100                    LDQ     TEMP+4,,AUTO
PL6.E3A0      #001=ASL$DISP_ONE_PROFILE File=ASL$L_PRO.:E05TSI                   TUE 07/29/97 10:26 Page:340
         4 007606   000001 116007                    CMPQ    1,DL
         4 007607   007640 602000 4                  TNC     s:19198
         4 007610   007620 600000 4                  TZE     s:19194
         4 007611   000100 101500                    MRL     fill='000'O
         4 007612   000010 400001                    ADSC9   8,,PR0                   cn=2,n=1
         4 007613   200367 000004                    ADSC9   TEMP+5,,AUTO             cn=0,n=4
         4 007614   200367 236100                    LDQ     TEMP+5,,AUTO
         4 007615   000002 116007                    CMPQ    2,DL
         4 007616   007640 601000 4                  TNZ     s:19198
         4 007617   007630 710000 4                  TRA     s:19196

     1614    19193    5         SELECT(1 /* P_SC_ANS */) ;

     1615    19194    5         FMT_VEC(FDS.NVECS#) = VECTOR(ANS_STR) ;

  19194  4 007620   000011 235000 xsym               LDA     FDS+9
         4 007621   000001 735000                    ALS     1
         4 007622   000000 620005                    EAX0    0,AL
         4 007623   000000 621005                    EAX1    0,AL
         4 007624   000102 237000 5                  LDAQ    66
         4 007625   000000 755010 xsym               STA     FMT_VEC,X0
         4 007626   000001 756011 xsym               STQ     FMT_VEC+1,X1
         4 007627   007662 710000 4                  TRA     s:19201

     1616    19195    5         SELECT(2 /* P_SC_TBL */) ;

     1617    19196    5         FMT_VEC(FDS.NVECS#) = VECTOR(TBL_STR) ;

  19196  4 007630   000011 235000 xsym               LDA     FDS+9
         4 007631   000001 735000                    ALS     1
         4 007632   000000 620005                    EAX0    0,AL
         4 007633   000000 621005                    EAX1    0,AL
         4 007634   000104 237000 5                  LDAQ    68
         4 007635   000000 755010 xsym               STA     FMT_VEC,X0
         4 007636   000001 756011 xsym               STQ     FMT_VEC+1,X1
         4 007637   007662 710000 4                  TRA     s:19201

PL6.E3A0      #001=ASL$DISP_ONE_PROFILE File=ASL$L_PRO.:E05TSI                   TUE 07/29/97 10:26 Page:341
     1618    19197    5         SELECT(ELSE) ;

     1619    19198    5      CALL BINCHAR(ONE_CHAR_STR,TCCHR$->KL$CCHR.CUP_ALG) ;

  19198  4 007640   000100 101500                    MRL     fill='000'O
         4 007641   000010 400001                    ADSC9   8,,PR0                   cn=2,n=1
         4 007642   200366 000004                    ADSC9   TEMP+4,,AUTO             cn=0,n=4
         4 007643   200366 236100                    LDQ     TEMP+4,,AUTO
         4 007644   000000 235003                    LDA     0,DU
         4 007645   200370 757100                    STAQ    TEMP+6,,AUTO
         4 007646   000100 301500                    BTD
         4 007647   200370 000010                    NDSC9   TEMP+6,,AUTO             cn=0,s=lsgnf,sf=0,n=8
         4 007650   200121 030001                    NDSC9   ONE_CHAR_STR,,AUTO       cn=0,s=nosgn,sf=0,n=1

     1620    19199    5      FMT_VEC(FDS.NVECS#) = VECTOR(ONE_CHAR_STR) ;

  19199  4 007651   000011 236000 xsym               LDQ     FDS+9
         4 007652   000001 736000                    QLS     1
         4 007653   177640 235007                    LDA     65440,DL
         4 007654   200366 452500                    STP2    TEMP+4,,AUTO
         4 007655   000000 620006                    EAX0    0,QL
         4 007656   200366 236100                    LDQ     TEMP+4,,AUTO
         4 007657   000121 036003                    ADLQ    81,DU
         4 007660   000000 755010 xsym               STA     FMT_VEC,X0
         4 007661   000001 756010 xsym               STQ     FMT_VEC+1,X0

     1621    19200    5         END ;                       /* Do case                            */

     1622    19201    4   CLASS = 1 /* C_TEXT */ ;

  19201  4 007662   000001 235007                    LDA     1,DL
         4 007663   200162 755100                    STA     CLASS,,AUTO
         4 007664   015434 710000 4                  TRA     s:20217

     1623    19202    4   SELECT(83 /* DVCFLWCTRALG */) ;

     1624    19203    5   DO SELECT(TATR$->VLP$TRMATTR.DVCFLWCTRALG#) ;
PL6.E3A0      #001=ASL$DISP_ONE_PROFILE File=ASL$L_PRO.:E05TSI                   TUE 07/29/97 10:26 Page:342

  19203  4 007665   000134 470400 2                  LDP0    TATR$
         4 007666   003100 061500                    CSR     bolr='003'O
         4 007667   000002 660003                    BDSC    2,,PR0                   by=3,bit=6,n=3
         4 007670   200366 000044                    BDSC    TEMP+4,,AUTO             by=0,bit=0,n=36
         4 007671   200366 236100                    LDQ     TEMP+4,,AUTO
         4 007672   000002 116007                    CMPQ    2,DL
         4 007673   007713 602000 4                  TNC     s:19203+22
         4 007674   007742 600000 4                  TZE     s:19207
         4 007675   003100 061500                    CSR     bolr='003'O
         4 007676   000002 660003                    BDSC    2,,PR0                   by=3,bit=6,n=3
         4 007677   200367 000044                    BDSC    TEMP+5,,AUTO             by=0,bit=0,n=36
         4 007700   200367 236100                    LDQ     TEMP+5,,AUTO
         4 007701   000003 116007                    CMPQ    3,DL
         4 007702   010002 602000 4                  TNC     s:19215
         4 007703   007752 600000 4                  TZE     s:19209
         4 007704   003100 061500                    CSR     bolr='003'O
         4 007705   000002 660003                    BDSC    2,,PR0                   by=3,bit=6,n=3
         4 007706   200370 000044                    BDSC    TEMP+6,,AUTO             by=0,bit=0,n=36
         4 007707   200370 236100                    LDQ     TEMP+6,,AUTO
         4 007710   000007 116007                    CMPQ    7,DL
         4 007711   010002 601000 4                  TNZ     s:19215
         4 007712   007772 710000 4                  TRA     s:19213
         4 007713   003100 061500                    CSR     bolr='003'O
         4 007714   000002 660003                    BDSC    2,,PR0                   by=3,bit=6,n=3
         4 007715   200371 000044                    BDSC    TEMP+7,,AUTO             by=0,bit=0,n=36
         4 007716   200371 236100                    LDQ     TEMP+7,,AUTO
         4 007717   000001 116007                    CMPQ    1,DL
         4 007720   007723 602000 4                  TNC     s:19203+30
         4 007721   007732 600000 4                  TZE     s:19205
         4 007722   010002 710000 4                  TRA     s:19215
         4 007723   003100 061500                    CSR     bolr='003'O
         4 007724   000002 660003                    BDSC    2,,PR0                   by=3,bit=6,n=3
         4 007725   200372 000044                    BDSC    TEMP+8,,AUTO             by=0,bit=0,n=36
         4 007726   200372 236100                    LDQ     TEMP+8,,AUTO
         4 007727   000000 116003                    CMPQ    0,DU
         4 007730   007762 600000 4                  TZE     s:19211
PL6.E3A0      #001=ASL$DISP_ONE_PROFILE File=ASL$L_PRO.:E05TSI                   TUE 07/29/97 10:26 Page:343
         4 007731   010002 710000 4                  TRA     s:19215

     1625    19204    5      SELECT(1 /* P_SC_ENQACK */) ;

     1626    19205    5      FMT_VEC(FDS.NVECS#) = VECTOR(ENQACK_STR) ;

  19205  4 007732   000011 235000 xsym               LDA     FDS+9
         4 007733   000001 735000                    ALS     1
         4 007734   000000 620005                    EAX0    0,AL
         4 007735   000000 621005                    EAX1    0,AL
         4 007736   000106 237000 5                  LDAQ    70
         4 007737   000000 755010 xsym               STA     FMT_VEC,X0
         4 007740   000001 756011 xsym               STQ     FMT_VEC+1,X1
         4 007741   010025 710000 4                  TRA     s:19218

     1627    19206    5      SELECT(2 /* P_SC_EXTACK */) ;

     1628    19207    5      FMT_VEC(FDS.NVECS#) = VECTOR(ETXACK_STR) ;

  19207  4 007742   000011 235000 xsym               LDA     FDS+9
         4 007743   000001 735000                    ALS     1
         4 007744   000000 620005                    EAX0    0,AL
         4 007745   000000 621005                    EAX1    0,AL
         4 007746   000110 237000 5                  LDAQ    72
         4 007747   000000 755010 xsym               STA     FMT_VEC,X0
         4 007750   000001 756011 xsym               STQ     FMT_VEC+1,X1
         4 007751   010025 710000 4                  TRA     s:19218

     1629    19208    5      SELECT(3 /* P_SC_DC1DC3 */) ;

     1630    19209    5      FMT_VEC(FDS.NVECS#) = VECTOR(DC1DC3_STR) ;

  19209  4 007752   000011 235000 xsym               LDA     FDS+9
         4 007753   000001 735000                    ALS     1
         4 007754   000000 620005                    EAX0    0,AL
         4 007755   000000 621005                    EAX1    0,AL
         4 007756   000112 237000 5                  LDAQ    74
PL6.E3A0      #001=ASL$DISP_ONE_PROFILE File=ASL$L_PRO.:E05TSI                   TUE 07/29/97 10:26 Page:344
         4 007757   000000 755010 xsym               STA     FMT_VEC,X0
         4 007760   000001 756011 xsym               STQ     FMT_VEC+1,X1
         4 007761   010025 710000 4                  TRA     s:19218

     1631    19210    5      SELECT ( 0 /* P_SC_ZERO */);

     1632    19211    5      FMT_VEC(FDS.NVECS#) = VECTOR(NONE_STR) ;

  19211  4 007762   000011 235000 xsym               LDA     FDS+9
         4 007763   000001 735000                    ALS     1
         4 007764   000000 620005                    EAX0    0,AL
         4 007765   000000 621005                    EAX1    0,AL
         4 007766   000100 237000 5                  LDAQ    64
         4 007767   000000 755010 xsym               STA     FMT_VEC,X0
         4 007770   000001 756011 xsym               STQ     FMT_VEC+1,X1
         4 007771   010025 710000 4                  TRA     s:19218

     1633    19212    5      SELECT (7 /* P_SC_SEVEN */ );

     1634    19213    5      FMT_VEC(FDS.NVECS#) = VECTOR(DC_STR) ;

  19213  4 007772   000011 235000 xsym               LDA     FDS+9
         4 007773   000001 735000                    ALS     1
         4 007774   000000 620005                    EAX0    0,AL
         4 007775   000000 621005                    EAX1    0,AL
         4 007776   000034 237000 5                  LDAQ    28
         4 007777   000000 755010 xsym               STA     FMT_VEC,X0
         4 010000   000001 756011 xsym               STQ     FMT_VEC+1,X1
         4 010001   010025 710000 4                  TRA     s:19218

     1635    19214    5      SELECT(ELSE) ;

     1636    19215    5   CALL BINCHAR(ONE_CHAR_STR,TATR$->VLP$TRMATTR.DVCFLWCTRALG#) ;

  19215  4 010002   000134 470400 2                  LDP0    TATR$
         4 010003   003100 061500                    CSR     bolr='003'O
         4 010004   000002 660003                    BDSC    2,,PR0                   by=3,bit=6,n=3
PL6.E3A0      #001=ASL$DISP_ONE_PROFILE File=ASL$L_PRO.:E05TSI                   TUE 07/29/97 10:26 Page:345
         4 010005   200366 000044                    BDSC    TEMP+4,,AUTO             by=0,bit=0,n=36
         4 010006   200366 236100                    LDQ     TEMP+4,,AUTO
         4 010007   000000 235003                    LDA     0,DU
         4 010010   200370 757100                    STAQ    TEMP+6,,AUTO
         4 010011   000100 301500                    BTD
         4 010012   200370 000010                    NDSC9   TEMP+6,,AUTO             cn=0,s=lsgnf,sf=0,n=8
         4 010013   200121 030001                    NDSC9   ONE_CHAR_STR,,AUTO       cn=0,s=nosgn,sf=0,n=1

     1637    19216    5   FMT_VEC(FDS.NVECS#) = VECTOR(ONE_CHAR_STR) ;

  19216  4 010014   000011 236000 xsym               LDQ     FDS+9
         4 010015   000001 736000                    QLS     1
         4 010016   177640 235007                    LDA     65440,DL
         4 010017   200366 452500                    STP2    TEMP+4,,AUTO
         4 010020   000000 620006                    EAX0    0,QL
         4 010021   200366 236100                    LDQ     TEMP+4,,AUTO
         4 010022   000121 036003                    ADLQ    81,DU
         4 010023   000000 755010 xsym               STA     FMT_VEC,X0
         4 010024   000001 756010 xsym               STQ     FMT_VEC+1,X0

     1638    19217    5      END ;                       /* Do case                            */

     1639    19218    4   CLASS = 1 /* C_TEXT */ ;

  19218  4 010025   000001 235007                    LDA     1,DL
         4 010026   200162 755100                    STA     CLASS,,AUTO
         4 010027   015434 710000 4                  TRA     s:20217

     1640    19219    4   SELECT(84 /* HPA_ALG */) ;

     1641    19220    5   DO SELECT(TCCHR$->KL$CCHR.HPA_ALG) ;

  19220  4 010030   000137 470400 2                  LDP0    TCCHR$
         4 010031   000100 101500                    MRL     fill='000'O
         4 010032   000010 200001                    ADSC9   8,,PR0                   cn=1,n=1
         4 010033   200366 000004                    ADSC9   TEMP+4,,AUTO             cn=0,n=4
         4 010034   200366 236100                    LDQ     TEMP+4,,AUTO
PL6.E3A0      #001=ASL$DISP_ONE_PROFILE File=ASL$L_PRO.:E05TSI                   TUE 07/29/97 10:26 Page:346
         4 010035   000002 116007                    CMPQ    2,DL
         4 010036   010047 602000 4                  TNC     s:19220+15
         4 010037   010066 600000 4                  TZE     s:19224
         4 010040   000100 101500                    MRL     fill='000'O
         4 010041   000010 200001                    ADSC9   8,,PR0                   cn=1,n=1
         4 010042   200367 000004                    ADSC9   TEMP+5,,AUTO             cn=0,n=4
         4 010043   200367 236100                    LDQ     TEMP+5,,AUTO
         4 010044   000003 116007                    CMPQ    3,DL
         4 010045   010106 601000 4                  TNZ     s:19228
         4 010046   010076 710000 4                  TRA     s:19226
         4 010047   000100 101500                    MRL     fill='000'O
         4 010050   000010 200001                    ADSC9   8,,PR0                   cn=1,n=1
         4 010051   200370 000004                    ADSC9   TEMP+6,,AUTO             cn=0,n=4
         4 010052   200370 236100                    LDQ     TEMP+6,,AUTO
         4 010053   000001 116007                    CMPQ    1,DL
         4 010054   010106 601000 4                  TNZ     s:19228
         4 010055   010056 710000 4                  TRA     s:19222

     1642    19221    5      SELECT(1 /* P_SC_ANS */) ;

     1643    19222    5      FMT_VEC(FDS.NVECS#) = VECTOR(ANS_STR) ;

  19222  4 010056   000011 235000 xsym               LDA     FDS+9
         4 010057   000001 735000                    ALS     1
         4 010060   000000 620005                    EAX0    0,AL
         4 010061   000000 621005                    EAX1    0,AL
         4 010062   000102 237000 5                  LDAQ    66
         4 010063   000000 755010 xsym               STA     FMT_VEC,X0
         4 010064   000001 756011 xsym               STQ     FMT_VEC+1,X1
         4 010065   010131 710000 4                  TRA     s:19231

     1644    19223    5      SELECT(2 /* P_SC_DBL */) ;

     1645    19224    5      FMT_VEC(FDS.NVECS#) = VECTOR(DBL_STR) ;

  19224  4 010066   000011 235000 xsym               LDA     FDS+9
         4 010067   000001 735000                    ALS     1
PL6.E3A0      #001=ASL$DISP_ONE_PROFILE File=ASL$L_PRO.:E05TSI                   TUE 07/29/97 10:26 Page:347
         4 010070   000000 620005                    EAX0    0,AL
         4 010071   000000 621005                    EAX1    0,AL
         4 010072   000114 237000 5                  LDAQ    76
         4 010073   000000 755010 xsym               STA     FMT_VEC,X0
         4 010074   000001 756011 xsym               STQ     FMT_VEC+1,X1
         4 010075   010131 710000 4                  TRA     s:19231

     1646    19225    5      SELECT(3 /* P_SC_NEC */) ;

     1647    19226    5      FMT_VEC(FDS.NVECS#) = VECTOR(NEC_STR) ;

  19226  4 010076   000011 235000 xsym               LDA     FDS+9
         4 010077   000001 735000                    ALS     1
         4 010100   000000 620005                    EAX0    0,AL
         4 010101   000000 621005                    EAX1    0,AL
         4 010102   000116 237000 5                  LDAQ    78
         4 010103   000000 755010 xsym               STA     FMT_VEC,X0
         4 010104   000001 756011 xsym               STQ     FMT_VEC+1,X1
         4 010105   010131 710000 4                  TRA     s:19231

     1648    19227    5      SELECT(ELSE) ;

     1649    19228    5   CALL BINCHAR(ONE_CHAR_STR,TCCHR$ -> KL$CCHR.HPA_ALG) ;

  19228  4 010106   000137 470400 2                  LDP0    TCCHR$
         4 010107   000100 101500                    MRL     fill='000'O
         4 010110   000010 200001                    ADSC9   8,,PR0                   cn=1,n=1
         4 010111   200366 000004                    ADSC9   TEMP+4,,AUTO             cn=0,n=4
         4 010112   200366 236100                    LDQ     TEMP+4,,AUTO
         4 010113   000000 235003                    LDA     0,DU
         4 010114   200370 757100                    STAQ    TEMP+6,,AUTO
         4 010115   000100 301500                    BTD
         4 010116   200370 000010                    NDSC9   TEMP+6,,AUTO             cn=0,s=lsgnf,sf=0,n=8
         4 010117   200121 030001                    NDSC9   ONE_CHAR_STR,,AUTO       cn=0,s=nosgn,sf=0,n=1

     1650    19229    5   FMT_VEC(FDS.NVECS#) = VECTOR(ONE_CHAR_STR) ;

PL6.E3A0      #001=ASL$DISP_ONE_PROFILE File=ASL$L_PRO.:E05TSI                   TUE 07/29/97 10:26 Page:348
  19229  4 010120   000011 236000 xsym               LDQ     FDS+9
         4 010121   000001 736000                    QLS     1
         4 010122   177640 235007                    LDA     65440,DL
         4 010123   200366 452500                    STP2    TEMP+4,,AUTO
         4 010124   000000 620006                    EAX0    0,QL
         4 010125   200366 236100                    LDQ     TEMP+4,,AUTO
         4 010126   000121 036003                    ADLQ    81,DU
         4 010127   000000 755010 xsym               STA     FMT_VEC,X0
         4 010130   000001 756010 xsym               STQ     FMT_VEC+1,X0

     1651    19230    5      END ;                       /* Do case                            */

     1652    19231    4   CLASS = 1 /* C_TEXT */ ;

  19231  4 010131   000001 235007                    LDA     1,DL
         4 010132   200162 755100                    STA     CLASS,,AUTO
         4 010133   015434 710000 4                  TRA     s:20217

     1653    19232    4   SELECT(85 /* PARITY */) ;

     1654    19233    5   DO SELECT(TATR$ -> VLP$TRMATTR.PARITY#) ;

  19233  4 010134   000134 470400 2                  LDP0    TATR$
         4 010135   003100 061500                    CSR     bolr='003'O
         4 010136   000001 060003                    BDSC    1,,PR0                   by=0,bit=6,n=3
         4 010137   200366 000044                    BDSC    TEMP+4,,AUTO             by=0,bit=0,n=36
         4 010140   200366 236100                    LDQ     TEMP+4,,AUTO
         4 010141   000003 116007                    CMPQ    3,DL
         4 010142   010162 602000 4                  TNC     s:19233+22
         4 010143   010237 600000 4                  TZE     s:19241
         4 010144   003100 061500                    CSR     bolr='003'O
         4 010145   000001 060003                    BDSC    1,,PR0                   by=0,bit=6,n=3
         4 010146   200367 000044                    BDSC    TEMP+5,,AUTO             by=0,bit=0,n=36
         4 010147   200367 236100                    LDQ     TEMP+5,,AUTO
         4 010150   000004 116007                    CMPQ    4,DL
         4 010151   010266 602000 4                  TNC     s:19247
         4 010152   010247 600000 4                  TZE     s:19243
PL6.E3A0      #001=ASL$DISP_ONE_PROFILE File=ASL$L_PRO.:E05TSI                   TUE 07/29/97 10:26 Page:349
         4 010153   003100 061500                    CSR     bolr='003'O
         4 010154   000001 060003                    BDSC    1,,PR0                   by=0,bit=6,n=3
         4 010155   200370 000044                    BDSC    TEMP+6,,AUTO             by=0,bit=0,n=36
         4 010156   200370 236100                    LDQ     TEMP+6,,AUTO
         4 010157   000007 116007                    CMPQ    7,DL
         4 010160   010266 601000 4                  TNZ     s:19247
         4 010161   010257 710000 4                  TRA     s:19245
         4 010162   003100 061500                    CSR     bolr='003'O
         4 010163   000001 060003                    BDSC    1,,PR0                   by=0,bit=6,n=3
         4 010164   200371 000044                    BDSC    TEMP+7,,AUTO             by=0,bit=0,n=36
         4 010165   200371 236100                    LDQ     TEMP+7,,AUTO
         4 010166   000001 116007                    CMPQ    1,DL
         4 010167   010200 602000 4                  TNC     s:19233+36
         4 010170   010217 600000 4                  TZE     s:19237
         4 010171   003100 061500                    CSR     bolr='003'O
         4 010172   000001 060003                    BDSC    1,,PR0                   by=0,bit=6,n=3
         4 010173   200372 000044                    BDSC    TEMP+8,,AUTO             by=0,bit=0,n=36
         4 010174   200372 236100                    LDQ     TEMP+8,,AUTO
         4 010175   000002 116007                    CMPQ    2,DL
         4 010176   010266 601000 4                  TNZ     s:19247
         4 010177   010227 710000 4                  TRA     s:19239
         4 010200   003100 061500                    CSR     bolr='003'O
         4 010201   000001 060003                    BDSC    1,,PR0                   by=0,bit=6,n=3
         4 010202   200373 000044                    BDSC    TEMP+9,,AUTO             by=0,bit=0,n=36
         4 010203   200373 236100                    LDQ     TEMP+9,,AUTO
         4 010204   000000 116003                    CMPQ    0,DU
         4 010205   010207 600000 4                  TZE     s:19235
         4 010206   010266 710000 4                  TRA     s:19247

     1655    19234    5      SELECT(0 /* NONE */) ;

     1656    19235    5      FMT_VEC(FDS.NVECS#) = VECTOR(NONE_STR) ;

  19235  4 010207   000011 235000 xsym               LDA     FDS+9
         4 010210   000001 735000                    ALS     1
         4 010211   000000 620005                    EAX0    0,AL
         4 010212   000000 621005                    EAX1    0,AL
PL6.E3A0      #001=ASL$DISP_ONE_PROFILE File=ASL$L_PRO.:E05TSI                   TUE 07/29/97 10:26 Page:350
         4 010213   000100 237000 5                  LDAQ    64
         4 010214   000000 755010 xsym               STA     FMT_VEC,X0
         4 010215   000001 756011 xsym               STQ     FMT_VEC+1,X1
         4 010216   010266 710000 4                  TRA     s:19247

     1657    19236    5      SELECT(1 /* ODD */) ;

     1658    19237    5      FMT_VEC(FDS.NVECS#) = VECTOR(ODD_STR) ;

  19237  4 010217   000011 235000 xsym               LDA     FDS+9
         4 010220   000001 735000                    ALS     1
         4 010221   000000 620005                    EAX0    0,AL
         4 010222   000000 621005                    EAX1    0,AL
         4 010223   000120 237000 5                  LDAQ    80
         4 010224   000000 755010 xsym               STA     FMT_VEC,X0
         4 010225   000001 756011 xsym               STQ     FMT_VEC+1,X1
         4 010226   010266 710000 4                  TRA     s:19247

     1659    19238    5      SELECT(2 /* EVEN */) ;

     1660    19239    5      FMT_VEC(FDS.NVECS#) = VECTOR(EVEN_STR) ;

  19239  4 010227   000011 235000 xsym               LDA     FDS+9
         4 010230   000001 735000                    ALS     1
         4 010231   000000 620005                    EAX0    0,AL
         4 010232   000000 621005                    EAX1    0,AL
         4 010233   000122 237000 5                  LDAQ    82
         4 010234   000000 755010 xsym               STA     FMT_VEC,X0
         4 010235   000001 756011 xsym               STQ     FMT_VEC+1,X1
         4 010236   010266 710000 4                  TRA     s:19247

     1661    19240    5      SELECT(3 /* ONE */) ;

     1662    19241    5      FMT_VEC(FDS.NVECS#) = VECTOR(ONE_STR) ;

  19241  4 010237   000011 235000 xsym               LDA     FDS+9
         4 010240   000001 735000                    ALS     1
PL6.E3A0      #001=ASL$DISP_ONE_PROFILE File=ASL$L_PRO.:E05TSI                   TUE 07/29/97 10:26 Page:351
         4 010241   000000 620005                    EAX0    0,AL
         4 010242   000000 621005                    EAX1    0,AL
         4 010243   000124 237000 5                  LDAQ    84
         4 010244   000000 755010 xsym               STA     FMT_VEC,X0
         4 010245   000001 756011 xsym               STQ     FMT_VEC+1,X1
         4 010246   010266 710000 4                  TRA     s:19247

     1663    19242    5      SELECT(4 /* ZERO */) ;

     1664    19243    5      FMT_VEC(FDS.NVECS#) = VECTOR(ZERO_STR) ;

  19243  4 010247   000011 235000 xsym               LDA     FDS+9
         4 010250   000001 735000                    ALS     1
         4 010251   000000 620005                    EAX0    0,AL
         4 010252   000000 621005                    EAX1    0,AL
         4 010253   000126 237000 5                  LDAQ    86
         4 010254   000000 755010 xsym               STA     FMT_VEC,X0
         4 010255   000001 756011 xsym               STQ     FMT_VEC+1,X1
         4 010256   010266 710000 4                  TRA     s:19247

     1665    19244    5      SELECT(7 /* DC */) ;

     1666    19245    5      FMT_VEC(FDS.NVECS#) = VECTOR(DC_STR) ;

  19245  4 010257   000011 235000 xsym               LDA     FDS+9
         4 010260   000001 735000                    ALS     1
         4 010261   000000 620005                    EAX0    0,AL
         4 010262   000000 621005                    EAX1    0,AL
         4 010263   000034 237000 5                  LDAQ    28
         4 010264   000000 755010 xsym               STA     FMT_VEC,X0
         4 010265   000001 756011 xsym               STQ     FMT_VEC+1,X1

     1667    19246    5      END ;                       /* Do case                            */

     1668    19247    4   CLASS = 1 /* C_TEXT */ ;

  19247  4 010266   000001 235007                    LDA     1,DL
PL6.E3A0      #001=ASL$DISP_ONE_PROFILE File=ASL$L_PRO.:E05TSI                   TUE 07/29/97 10:26 Page:352
         4 010267   200162 755100                    STA     CLASS,,AUTO
         4 010270   015434 710000 4                  TRA     s:20217

     1669    19248    4   SELECT(86 /* PROTYP */) ;

     1670    19249    5   DO SELECT(TRMD$ -> KL$TRMD.PROTYP#) ;

  19249  4 010271   000140 470400 2                  LDP0    TRMD$
         4 010272   000100 101500                    MRL     fill='000'O
         4 010273   000000 000001                    ADSC9   0,,PR0                   cn=0,n=1
         4 010274   200366 000004                    ADSC9   TEMP+4,,AUTO             cn=0,n=4
         4 010275   200366 236100                    LDQ     TEMP+4,,AUTO
         4 010276   000004 116007                    CMPQ    4,DL
         4 010277   010327 602000 4                  TNC     s:19249+30
         4 010300   010404 600000 4                  TZE     s:19257
         4 010301   000100 101500                    MRL     fill='000'O
         4 010302   000000 000001                    ADSC9   0,,PR0                   cn=0,n=1
         4 010303   200367 000004                    ADSC9   TEMP+5,,AUTO             cn=0,n=4
         4 010304   200367 236100                    LDQ     TEMP+5,,AUTO
         4 010305   000006 116007                    CMPQ    6,DL
         4 010306   010317 602000 4                  TNC     s:19249+22
         4 010307   010424 600000 4                  TZE     s:19261
         4 010310   000100 101500                    MRL     fill='000'O
         4 010311   000000 000001                    ADSC9   0,,PR0                   cn=0,n=1
         4 010312   200370 000004                    ADSC9   TEMP+6,,AUTO             cn=0,n=4
         4 010313   200370 236100                    LDQ     TEMP+6,,AUTO
         4 010314   000007 116007                    CMPQ    7,DL
         4 010315   010443 601000 4                  TNZ     s:19265
         4 010316   010434 710000 4                  TRA     s:19263
         4 010317   000140 470400 2                  LDP0    TRMD$
         4 010320   000100 101500                    MRL     fill='000'O
         4 010321   000000 000001                    ADSC9   0,,PR0                   cn=0,n=1
         4 010322   200371 000004                    ADSC9   TEMP+7,,AUTO             cn=0,n=4
         4 010323   200371 236100                    LDQ     TEMP+7,,AUTO
         4 010324   000005 116007                    CMPQ    5,DL
         4 010325   010443 601000 4                  TNZ     s:19265
         4 010326   010414 710000 4                  TRA     s:19259
PL6.E3A0      #001=ASL$DISP_ONE_PROFILE File=ASL$L_PRO.:E05TSI                   TUE 07/29/97 10:26 Page:353
         4 010327   000100 101500                    MRL     fill='000'O
         4 010330   000000 000001                    ADSC9   0,,PR0                   cn=0,n=1
         4 010331   200372 000004                    ADSC9   TEMP+8,,AUTO             cn=0,n=4
         4 010332   200372 236100                    LDQ     TEMP+8,,AUTO
         4 010333   000002 116007                    CMPQ    2,DL
         4 010334   010345 602000 4                  TNC     s:19249+44
         4 010335   010364 600000 4                  TZE     s:19253
         4 010336   000100 101500                    MRL     fill='000'O
         4 010337   000000 000001                    ADSC9   0,,PR0                   cn=0,n=1
         4 010340   200373 000004                    ADSC9   TEMP+9,,AUTO             cn=0,n=4
         4 010341   200373 236100                    LDQ     TEMP+9,,AUTO
         4 010342   000003 116007                    CMPQ    3,DL
         4 010343   010443 601000 4                  TNZ     s:19265
         4 010344   010374 710000 4                  TRA     s:19255
         4 010345   000100 101500                    MRL     fill='000'O
         4 010346   000000 000001                    ADSC9   0,,PR0                   cn=0,n=1
         4 010347   200374 000004                    ADSC9   TEMP+10,,AUTO            cn=0,n=4
         4 010350   200374 236100                    LDQ     TEMP+10,,AUTO
         4 010351   000001 116007                    CMPQ    1,DL
         4 010352   010443 601000 4                  TNZ     s:19265
         4 010353   010354 710000 4                  TRA     s:19251

     1671    19250    5      SELECT(%KLPT_2780#) ;

     1672    19251    5      FMT_VEC(FDS.NVECS#) = VECTOR(S2780_STR) ;

  19251  4 010354   000011 235000 xsym               LDA     FDS+9
         4 010355   000001 735000                    ALS     1
         4 010356   000000 620005                    EAX0    0,AL
         4 010357   000000 621005                    EAX1    0,AL
         4 010360   000130 237000 5                  LDAQ    88
         4 010361   000000 755010 xsym               STA     FMT_VEC,X0
         4 010362   000001 756011 xsym               STQ     FMT_VEC+1,X1
         4 010363   010443 710000 4                  TRA     s:19265

     1673    19252    5      SELECT(%KLPT_3780#) ;

PL6.E3A0      #001=ASL$DISP_ONE_PROFILE File=ASL$L_PRO.:E05TSI                   TUE 07/29/97 10:26 Page:354
     1674    19253    5      FMT_VEC(FDS.NVECS#) = VECTOR(S3780_STR) ;

  19253  4 010364   000011 235000 xsym               LDA     FDS+9
         4 010365   000001 735000                    ALS     1
         4 010366   000000 620005                    EAX0    0,AL
         4 010367   000000 621005                    EAX1    0,AL
         4 010370   000132 237000 5                  LDAQ    90
         4 010371   000000 755010 xsym               STA     FMT_VEC,X0
         4 010372   000001 756011 xsym               STQ     FMT_VEC+1,X1
         4 010373   010443 710000 4                  TRA     s:19265

     1675    19254    5      SELECT(%KLPT_HASP#) ;

     1676    19255    5      FMT_VEC(FDS.NVECS#) = VECTOR(HASP_STR) ;

  19255  4 010374   000011 235000 xsym               LDA     FDS+9
         4 010375   000001 735000                    ALS     1
         4 010376   000000 620005                    EAX0    0,AL
         4 010377   000000 621005                    EAX1    0,AL
         4 010400   000134 237000 5                  LDAQ    92
         4 010401   000000 755010 xsym               STA     FMT_VEC,X0
         4 010402   000001 756011 xsym               STQ     FMT_VEC+1,X1
         4 010403   010443 710000 4                  TRA     s:19265

     1677    19256    5      SELECT(%KLPT_POLL#) ;

     1678    19257    5      FMT_VEC(FDS.NVECS#) = VECTOR(POLLED_STR) ;

  19257  4 010404   000011 235000 xsym               LDA     FDS+9
         4 010405   000001 735000                    ALS     1
         4 010406   000000 620005                    EAX0    0,AL
         4 010407   000000 621005                    EAX1    0,AL
         4 010410   000136 237000 5                  LDAQ    94
         4 010411   000000 755010 xsym               STA     FMT_VEC,X0
         4 010412   000001 756011 xsym               STQ     FMT_VEC+1,X1
         4 010413   010443 710000 4                  TRA     s:19265

PL6.E3A0      #001=ASL$DISP_ONE_PROFILE File=ASL$L_PRO.:E05TSI                   TUE 07/29/97 10:26 Page:355
     1679    19258    5      SELECT(%KLPT_3275#);

     1680    19259    5      FMT_VEC(FDS.NVECS#) = VECTOR(S3275_STR) ;

  19259  4 010414   000011 235000 xsym               LDA     FDS+9
         4 010415   000001 735000                    ALS     1
         4 010416   000000 620005                    EAX0    0,AL
         4 010417   000000 621005                    EAX1    0,AL
         4 010420   000140 237000 5                  LDAQ    96
         4 010421   000000 755010 xsym               STA     FMT_VEC,X0
         4 010422   000001 756011 xsym               STQ     FMT_VEC+1,X1
         4 010423   010443 710000 4                  TRA     s:19265

     1681    19260    5      SELECT(%KLPT_HIP#);

     1682    19261    5      FMT_VEC(FDS.NVECS#) = VECTOR(HIP_STR);

  19261  4 010424   000011 235000 xsym               LDA     FDS+9
         4 010425   000001 735000                    ALS     1
         4 010426   000000 620005                    EAX0    0,AL
         4 010427   000000 621005                    EAX1    0,AL
         4 010430   000142 237000 5                  LDAQ    98
         4 010431   000000 755010 xsym               STA     FMT_VEC,X0
         4 010432   000001 756011 xsym               STQ     FMT_VEC+1,X1
         4 010433   010443 710000 4                  TRA     s:19265

     1683    19262    5      SELECT(%KLPT_NJE#);

     1684    19263    5      FMT_VEC(FDS.NVECS#) = VECTOR(NJE_STR);

  19263  4 010434   000011 235000 xsym               LDA     FDS+9
         4 010435   000001 735000                    ALS     1
         4 010436   000000 620005                    EAX0    0,AL
         4 010437   000000 621005                    EAX1    0,AL
         4 010440   000144 237000 5                  LDAQ    100
         4 010441   000000 755010 xsym               STA     FMT_VEC,X0
         4 010442   000001 756011 xsym               STQ     FMT_VEC+1,X1
PL6.E3A0      #001=ASL$DISP_ONE_PROFILE File=ASL$L_PRO.:E05TSI                   TUE 07/29/97 10:26 Page:356

     1685    19264    5      END ;                       /* Do case                            */

     1686    19265    4   CLASS = 1 /* C_TEXT */ ;

  19265  4 010443   000001 235007                    LDA     1,DL
         4 010444   200162 755100                    STA     CLASS,,AUTO
         4 010445   015434 710000 4                  TRA     s:20217

     1687    19266    4   SELECT(87 /* CUP_BIS */) ;

     1688    19267    4   SBINS(SBIN_IDX) = TCCHR$ -> KL$CCHR.CUP_BIS ;

  19267  4 010446   200077 235100                    LDA     SBIN_IDX,,AUTO
         4 010447   000002 735000                    ALS     2
         4 010450   000137 470400 2                  LDP0    TCCHR$
         4 010451   000105 101500                    MRL     fill='000'O
         4 010452   000010 600001                    ADSC9   8,,PR0                   cn=3,n=1
         4 010453   200007 000004                    ADSC9   SBINS,A,AUTO             cn=0,n=4

     1689    19268    4   CLASS = 12 /* C_SBIN */ ;

  19268  4 010454   000014 236007                    LDQ     12,DL
         4 010455   200162 756100                    STQ     CLASS,,AUTO
         4 010456   015434 710000 4                  TRA     s:20217

     1690    19269
     1691    19270    4   SELECT (88 /* LSTRECCTN */);

     1692    19271    4   YES_NO = TRMD$ -> KL$TRMD.LSTRECCTN# ;

  19271  4 010457   000140 470400 2                  LDP0    TRMD$
         4 010460   003100 060500                    CSL     bolr='003'O
         4 010461   000003 010001                    BDSC    3,,PR0                   by=0,bit=1,n=1
         4 010462   200165 000001                    BDSC    YES_NO,,AUTO             by=0,bit=0,n=1

     1693    19272    4   CLASS = 2 /* C_YESNO */ ;
PL6.E3A0      #001=ASL$DISP_ONE_PROFILE File=ASL$L_PRO.:E05TSI                   TUE 07/29/97 10:26 Page:357

  19272  4 010463   000002 235007                    LDA     2,DL
         4 010464   200162 755100                    STA     CLASS,,AUTO
         4 010465   015434 710000 4                  TRA     s:20217

     1694    19273
     1695    19274    4   SELECT (105 /* ERRDUPBLK */);

     1696    19275    4   YES_NO = TRMD$ -> KL$TRMD.ERRDUPBLK# ;

  19275  4 010466   000140 470400 2                  LDP0    TRMD$
         4 010467   003100 060500                    CSL     bolr='003'O
         4 010470   000003 020001                    BDSC    3,,PR0                   by=0,bit=2,n=1
         4 010471   200165 000001                    BDSC    YES_NO,,AUTO             by=0,bit=0,n=1

     1697    19276    4   CLASS = 2 /* C_YESNO */ ;

  19276  4 010472   000002 235007                    LDA     2,DL
         4 010473   200162 755100                    STA     CLASS,,AUTO
         4 010474   015434 710000 4                  TRA     s:20217

     1698    19277
     1699    19278    4   SELECT (106 /* RRR */);

     1700    19279    4   YES_NO = TRMD$ -> KL$TRMD.RRR# ;

  19279  4 010475   000140 470400 2                  LDP0    TRMD$
         4 010476   003100 060500                    CSL     bolr='003'O
         4 010477   000003 030001                    BDSC    3,,PR0                   by=0,bit=3,n=1
         4 010500   200165 000001                    BDSC    YES_NO,,AUTO             by=0,bit=0,n=1

     1701    19280    4   CLASS = 2 /* C_YESNO */ ;

  19280  4 010501   000002 235007                    LDA     2,DL
         4 010502   200162 755100                    STA     CLASS,,AUTO
         4 010503   015434 710000 4                  TRA     s:20217

PL6.E3A0      #001=ASL$DISP_ONE_PROFILE File=ASL$L_PRO.:E05TSI                   TUE 07/29/97 10:26 Page:358
     1702    19281
     1703    19282    4   SELECT (113 /* SLC */);

     1704    19283    4   YES_NO = TRMD$ -> KL$TRMD.SLC# ;

  19283  4 010504   000140 470400 2                  LDP0    TRMD$
         4 010505   003100 060500                    CSL     bolr='003'O
         4 010506   000003 040001                    BDSC    3,,PR0                   by=0,bit=4,n=1
         4 010507   200165 000001                    BDSC    YES_NO,,AUTO             by=0,bit=0,n=1

     1705    19284    4   CLASS = 2 /* C_YESNO */ ;

  19284  4 010510   000002 235007                    LDA     2,DL
         4 010511   200162 755100                    STA     CLASS,,AUTO
         4 010512   015434 710000 4                  TRA     s:20217

     1706    19285
     1707    19286    4   SELECT (116 /* SLCALLBLK */);

     1708    19287    4   YES_NO = TRMD$ -> KL$TRMD.SLCALLBLK# ;

  19287  4 010513   000140 470400 2                  LDP0    TRMD$
         4 010514   003100 060500                    CSL     bolr='003'O
         4 010515   000003 050001                    BDSC    3,,PR0                   by=0,bit=5,n=1
         4 010516   200165 000001                    BDSC    YES_NO,,AUTO             by=0,bit=0,n=1

     1709    19288    4   CLASS = 2 /* C_YESNO */ ;

  19288  4 010517   000002 235007                    LDA     2,DL
         4 010520   200162 755100                    STA     CLASS,,AUTO
         4 010521   015434 710000 4                  TRA     s:20217

     1710    19289
     1711    19290    4   SELECT (117 /* PADSIGNON */);

     1712    19291    4   YES_NO = TRMD$ -> KL$TRMD.PADSIGNON# ;

PL6.E3A0      #001=ASL$DISP_ONE_PROFILE File=ASL$L_PRO.:E05TSI                   TUE 07/29/97 10:26 Page:359
  19291  4 010522   000140 470400 2                  LDP0    TRMD$
         4 010523   003100 060500                    CSL     bolr='003'O
         4 010524   000003 060001                    BDSC    3,,PR0                   by=0,bit=6,n=1
         4 010525   200165 000001                    BDSC    YES_NO,,AUTO             by=0,bit=0,n=1

     1713    19292    4   CLASS = 2 /* C_YESNO */ ;

  19292  4 010526   000002 235007                    LDA     2,DL
         4 010527   200162 755100                    STA     CLASS,,AUTO
         4 010530   015434 710000 4                  TRA     s:20217

     1714    19293
     1715    19294    4   SELECT (80 /* EMCHR */);

     1716    19295    4   UHEX_NUM = TRMD$ -> KL$TRMD.EMCHR# ;

  19295  4 010531   000140 470400 2                  LDP0    TRMD$
         4 010532   000100 101500                    MRL     fill='000'O
         4 010533   000002 400001                    ADSC9   2,,PR0                   cn=2,n=1
         4 010534   200144 000004                    ADSC9   UHEX_NUM,,AUTO           cn=0,n=4

     1717    19296    4   CLASS = 14 /* C_HEX */ ;

  19296  4 010535   000016 235007                    LDA     14,DL
         4 010536   200162 755100                    STA     CLASS,,AUTO
         4 010537   015434 710000 4                  TRA     s:20217

     1718    19297
     1719    19298    4   SELECT (81 /* IRSCHR */);

     1720    19299    4   UHEX_NUM = TRMD$ -> KL$TRMD.IRSCHR# ;

  19299  4 010540   000140 470400 2                  LDP0    TRMD$
         4 010541   000100 101500                    MRL     fill='000'O
         4 010542   000002 600001                    ADSC9   2,,PR0                   cn=3,n=1
         4 010543   200144 000004                    ADSC9   UHEX_NUM,,AUTO           cn=0,n=4

PL6.E3A0      #001=ASL$DISP_ONE_PROFILE File=ASL$L_PRO.:E05TSI                   TUE 07/29/97 10:26 Page:360
     1721    19300    4   CLASS = 14 /* C_HEX */ ;

  19300  4 010544   000016 235007                    LDA     14,DL
         4 010545   200162 755100                    STA     CLASS,,AUTO
         4 010546   015434 710000 4                  TRA     s:20217

     1722    19301
     1723    19302    4   SELECT(167 /* PARKCURSOR */) ;

     1724    19303    4   IF TCTL$ -> VLP$TRMCTRL.PARKCURSOR# = '01'B

  19303  4 010547   000133 470400 2                  LDP0    TCTL$
         4 010550   000000 066500                    CMPB    filb='0'B
         4 010551   000003 410002                    BDSC    3,,PR0                   by=2,bit=1,n=2
         4 010552   000032 000022 5                  BDSC    26                       by=0,bit=0,n=18
         4 010553   010566 601000 4                  TNZ     s:19309

     1725    19304    5   THEN DO;

     1726    19305    5      FMT_VEC(FDS.NVECS#)=VECTOR(DC_STR);

  19305  4 010554   000011 235000 xsym               LDA     FDS+9
         4 010555   000001 735000                    ALS     1
         4 010556   000000 620005                    EAX0    0,AL
         4 010557   000000 621005                    EAX1    0,AL
         4 010560   000034 237000 5                  LDAQ    28
         4 010561   000000 755010 xsym               STA     FMT_VEC,X0
         4 010562   000001 756011 xsym               STQ     FMT_VEC+1,X1

     1727    19306    5      CLASS=1 /* C_TEXT */;

  19306  4 010563   000001 235007                    LDA     1,DL
         4 010564   200162 755100                    STA     CLASS,,AUTO

     1728    19307    5      END;

  19307  4 010565   015434 710000 4                  TRA     s:20217
PL6.E3A0      #001=ASL$DISP_ONE_PROFILE File=ASL$L_PRO.:E05TSI                   TUE 07/29/97 10:26 Page:361

     1729    19308    5   ELSE DO;

     1730    19309    5      YES_NO=TCTL$->VLP$TRMCTRL.PARKCURSOR#;

  19309  4 010566   003100 060500                    CSL     bolr='003'O
         4 010567   000003 410001                    BDSC    3,,PR0                   by=2,bit=1,n=1
         4 010570   200165 000001                    BDSC    YES_NO,,AUTO             by=0,bit=0,n=1

     1731    19310    5      CLASS=2 /* C_YESNO */;

  19310  4 010571   000002 235007                    LDA     2,DL
         4 010572   200162 755100                    STA     CLASS,,AUTO

     1732    19311    5      END;

  19311  4 010573   015434 710000 4                  TRA     s:20217

     1733    19312
     1734    19313    4   SELECT(213 /* L_CURSORREAD */) ;

     1735    19314    4   IF TCTL$ -> VLP$TRMCTRL.CURSORREAD# = '01'B

  19314  4 010574   000133 470400 2                  LDP0    TCTL$
         4 010575   000000 066500                    CMPB    filb='0'B
         4 010576   000003 430002                    BDSC    3,,PR0                   by=2,bit=3,n=2
         4 010577   000032 000022 5                  BDSC    26                       by=0,bit=0,n=18
         4 010600   010613 601000 4                  TNZ     s:19320

     1736    19315    5   THEN DO;

     1737    19316    5      FMT_VEC(FDS.NVECS#)=VECTOR(DC_STR);

  19316  4 010601   000011 235000 xsym               LDA     FDS+9
         4 010602   000001 735000                    ALS     1
         4 010603   000000 620005                    EAX0    0,AL
         4 010604   000000 621005                    EAX1    0,AL
PL6.E3A0      #001=ASL$DISP_ONE_PROFILE File=ASL$L_PRO.:E05TSI                   TUE 07/29/97 10:26 Page:362
         4 010605   000034 237000 5                  LDAQ    28
         4 010606   000000 755010 xsym               STA     FMT_VEC,X0
         4 010607   000001 756011 xsym               STQ     FMT_VEC+1,X1

     1738    19317    5      CLASS=1 /* C_TEXT */;

  19317  4 010610   000001 235007                    LDA     1,DL
         4 010611   200162 755100                    STA     CLASS,,AUTO

     1739    19318    5      END;

  19318  4 010612   015434 710000 4                  TRA     s:20217

     1740    19319    5   ELSE DO;

     1741    19320    5      YES_NO=TCTL$->VLP$TRMCTRL.CURSORREAD#;

  19320  4 010613   003100 060500                    CSL     bolr='003'O
         4 010614   000003 430001                    BDSC    3,,PR0                   by=2,bit=3,n=1
         4 010615   200165 000001                    BDSC    YES_NO,,AUTO             by=0,bit=0,n=1

     1742    19321    5      CLASS=2 /* C_YESNO */;

  19321  4 010616   000002 235007                    LDA     2,DL
         4 010617   200162 755100                    STA     CLASS,,AUTO

     1743    19322    5      END;

  19322  4 010620   015434 710000 4                  TRA     s:20217

     1744    19323
     1745    19324    4   SELECT(214 /* L_AUTOCURSOR */) ;

     1746    19325    4   IF TCTL$ -> VLP$TRMCTRL.AUTOCURSOR# = '01'B

  19325  4 010621   000133 470400 2                  LDP0    TCTL$
         4 010622   000000 066500                    CMPB    filb='0'B
PL6.E3A0      #001=ASL$DISP_ONE_PROFILE File=ASL$L_PRO.:E05TSI                   TUE 07/29/97 10:26 Page:363
         4 010623   000003 470002                    BDSC    3,,PR0                   by=2,bit=7,n=2
         4 010624   000032 000022 5                  BDSC    26                       by=0,bit=0,n=18
         4 010625   010640 601000 4                  TNZ     s:19331

     1747    19326    5   THEN DO;

     1748    19327    5      FMT_VEC(FDS.NVECS#)=VECTOR(DC_STR);

  19327  4 010626   000011 235000 xsym               LDA     FDS+9
         4 010627   000001 735000                    ALS     1
         4 010630   000000 620005                    EAX0    0,AL
         4 010631   000000 621005                    EAX1    0,AL
         4 010632   000034 237000 5                  LDAQ    28
         4 010633   000000 755010 xsym               STA     FMT_VEC,X0
         4 010634   000001 756011 xsym               STQ     FMT_VEC+1,X1

     1749    19328    5      CLASS=1 /* C_TEXT */;

  19328  4 010635   000001 235007                    LDA     1,DL
         4 010636   200162 755100                    STA     CLASS,,AUTO

     1750    19329    5      END;

  19329  4 010637   015434 710000 4                  TRA     s:20217

     1751    19330    5   ELSE DO;

     1752    19331    5      YES_NO=TCTL$->VLP$TRMCTRL.AUTOCURSOR#;

  19331  4 010640   003100 060500                    CSL     bolr='003'O
         4 010641   000003 470001                    BDSC    3,,PR0                   by=2,bit=7,n=1
         4 010642   200165 000001                    BDSC    YES_NO,,AUTO             by=0,bit=0,n=1

     1753    19332    5      CLASS=2 /* C_YESNO */;

  19332  4 010643   000002 235007                    LDA     2,DL
         4 010644   200162 755100                    STA     CLASS,,AUTO
PL6.E3A0      #001=ASL$DISP_ONE_PROFILE File=ASL$L_PRO.:E05TSI                   TUE 07/29/97 10:26 Page:364

     1754    19333    5      END;

  19333  4 010645   015434 710000 4                  TRA     s:20217

     1755    19334
     1756    19335    4   SELECT(215 /* L_KEEPTYPAHD */) ;

     1757    19336    4   IF TCTL$ -> VLP$TRMCTRL.KEEPTYPAHD# = '01'B

  19336  4 010646   000133 470400 2                  LDP0    TCTL$
         4 010647   000000 066500                    CMPB    filb='0'B
         4 010650   000003 450002                    BDSC    3,,PR0                   by=2,bit=5,n=2
         4 010651   000032 000022 5                  BDSC    26                       by=0,bit=0,n=18
         4 010652   010665 601000 4                  TNZ     s:19342

     1758    19337    5   THEN DO;

     1759    19338    5      FMT_VEC(FDS.NVECS#)=VECTOR(DC_STR);

  19338  4 010653   000011 235000 xsym               LDA     FDS+9
         4 010654   000001 735000                    ALS     1
         4 010655   000000 620005                    EAX0    0,AL
         4 010656   000000 621005                    EAX1    0,AL
         4 010657   000034 237000 5                  LDAQ    28
         4 010660   000000 755010 xsym               STA     FMT_VEC,X0
         4 010661   000001 756011 xsym               STQ     FMT_VEC+1,X1

     1760    19339    5      CLASS=1 /* C_TEXT */;

  19339  4 010662   000001 235007                    LDA     1,DL
         4 010663   200162 755100                    STA     CLASS,,AUTO

     1761    19340    5      END;

  19340  4 010664   015434 710000 4                  TRA     s:20217

PL6.E3A0      #001=ASL$DISP_ONE_PROFILE File=ASL$L_PRO.:E05TSI                   TUE 07/29/97 10:26 Page:365
     1762    19341    5   ELSE DO;

     1763    19342    5      YES_NO=TCTL$->VLP$TRMCTRL.KEEPTYPAHD#;

  19342  4 010665   003100 060500                    CSL     bolr='003'O
         4 010666   000003 450001                    BDSC    3,,PR0                   by=2,bit=5,n=1
         4 010667   200165 000001                    BDSC    YES_NO,,AUTO             by=0,bit=0,n=1

     1764    19343    5      CLASS=2 /* C_YESNO */;

  19343  4 010670   000002 235007                    LDA     2,DL
         4 010671   200162 755100                    STA     CLASS,,AUTO

     1765    19344    5      END;

  19344  4 010672   015434 710000 4                  TRA     s:20217

     1766    19345
     1767    19346
     1768    19347    4   SELECT(89 /* CUB_CHR */) ;

     1769    19348    4   PTR$ =ADDR( TCCHR$->KL$CCHR.CUB_CHR) ;

  19348  4 010673   000137 236000 2                  LDQ     TCCHR$
         4 010674   000017 036003                    ADLQ    15,DU
         4 010675   200153 756100                    STQ     PTR$,,AUTO

     1770    19349    4   CLASS = 15 /*C_HEX_LIST */ ;

  19349  4 010676   000017 235007                    LDA     15,DL
         4 010677   200162 755100                    STA     CLASS,,AUTO
         4 010700   015434 710000 4                  TRA     s:20217

     1771    19350
     1772    19351    4   SELECT(90 /* CUD_CHR */) ;

     1773    19352    4   PTR$ =ADDR( TCCHR$->KL$CCHR.CUD_CHR) ;
PL6.E3A0      #001=ASL$DISP_ONE_PROFILE File=ASL$L_PRO.:E05TSI                   TUE 07/29/97 10:26 Page:366

  19352  4 010701   000137 236000 2                  LDQ     TCCHR$
         4 010702   000146 036000 5                  ADLQ    102
         4 010703   200153 756100                    STQ     PTR$,,AUTO

     1774    19353    4   CLASS = 15 /*C_HEX_LIST */ ;

  19353  4 010704   000017 235007                    LDA     15,DL
         4 010705   200162 755100                    STA     CLASS,,AUTO
         4 010706   015434 710000 4                  TRA     s:20217

     1775    19354
     1776    19355    4   SELECT(91 /* CUF_CHR */) ;

     1777    19356    4   PTR$ =ADDR( TCCHR$->KL$CCHR.CUF_CHR) ;

  19356  4 010707   000137 236000 2                  LDQ     TCCHR$
         4 010710   000147 036000 5                  ADLQ    103
         4 010711   200153 756100                    STQ     PTR$,,AUTO

     1778    19357    4   CLASS = 15 /*C_HEX_LIST */ ;

  19357  4 010712   000017 235007                    LDA     15,DL
         4 010713   200162 755100                    STA     CLASS,,AUTO
         4 010714   015434 710000 4                  TRA     s:20217

     1779    19358
     1780    19359    4   SELECT(92 /* CUP_CHR */) ;

     1781    19360    4   PTR$ =ADDR( TCCHR$->KL$CCHR.CUP_CHR) ;

  19360  4 010715   000137 236000 2                  LDQ     TCCHR$
         4 010716   000150 036000 5                  ADLQ    104
         4 010717   200153 756100                    STQ     PTR$,,AUTO

     1782    19361    4   CLASS = 15 /*C_HEX_LIST */ ;

PL6.E3A0      #001=ASL$DISP_ONE_PROFILE File=ASL$L_PRO.:E05TSI                   TUE 07/29/97 10:26 Page:367
  19361  4 010720   000017 235007                    LDA     15,DL
         4 010721   200162 755100                    STA     CLASS,,AUTO
         4 010722   015434 710000 4                  TRA     s:20217

     1783    19362
     1784    19363    4   SELECT(93 /* CUU_CHR */) ;

     1785    19364    4   PTR$ =ADDR( TCCHR$->KL$CCHR.CUU_CHR) ;

  19364  4 010723   000137 236000 2                  LDQ     TCCHR$
         4 010724   000151 036000 5                  ADLQ    105
         4 010725   200153 756100                    STQ     PTR$,,AUTO

     1786    19365    4   CLASS = 15 /*C_HEX_LIST */ ;

  19365  4 010726   000017 235007                    LDA     15,DL
         4 010727   200162 755100                    STA     CLASS,,AUTO
         4 010730   015434 710000 4                  TRA     s:20217

     1787    19366
     1788    19367    4   SELECT(94 /* DCH_CHR */) ;

     1789    19368    4   PTR$ =ADDR( TCCHR$->KL$CCHR.DCH_CHR) ;

  19368  4 010731   000137 236000 2                  LDQ     TCCHR$
         4 010732   000152 036000 5                  ADLQ    106
         4 010733   200153 756100                    STQ     PTR$,,AUTO

     1790    19369    4   CLASS = 15 /*C_HEX_LIST */ ;

  19369  4 010734   000017 235007                    LDA     15,DL
         4 010735   200162 755100                    STA     CLASS,,AUTO
         4 010736   015434 710000 4                  TRA     s:20217

     1791    19370
     1792    19371    4   SELECT(95 /* ED0_CHR */) ;

PL6.E3A0      #001=ASL$DISP_ONE_PROFILE File=ASL$L_PRO.:E05TSI                   TUE 07/29/97 10:26 Page:368
     1793    19372    4   PTR$ =ADDR( TCCHR$->KL$CCHR.ED0_CHR) ;

  19372  4 010737   000137 236000 2                  LDQ     TCCHR$
         4 010740   000153 036000 5                  ADLQ    107
         4 010741   200153 756100                    STQ     PTR$,,AUTO

     1794    19373    4   CLASS = 15 /*C_HEX_LIST */ ;

  19373  4 010742   000017 235007                    LDA     15,DL
         4 010743   200162 755100                    STA     CLASS,,AUTO
         4 010744   015434 710000 4                  TRA     s:20217

     1795    19374
     1796    19375    4   SELECT(96 /* ED2_CHR */) ;

     1797    19376    4   PTR$ =ADDR( TCCHR$->KL$CCHR.ED2_CHR) ;

  19376  4 010745   000137 236000 2                  LDQ     TCCHR$
         4 010746   000020 036003                    ADLQ    16,DU
         4 010747   200153 756100                    STQ     PTR$,,AUTO

     1798    19377    4   CLASS = 15 /*C_HEX_LIST */ ;

  19377  4 010750   000017 235007                    LDA     15,DL
         4 010751   200162 755100                    STA     CLASS,,AUTO
         4 010752   015434 710000 4                  TRA     s:20217

     1799    19378
     1800    19379    4   SELECT(97 /* EL0_CHR */) ;

     1801    19380    4   PTR$ =ADDR( TCCHR$->KL$CCHR.EL0_CHR) ;

  19380  4 010753   000137 236000 2                  LDQ     TCCHR$
         4 010754   000154 036000 5                  ADLQ    108
         4 010755   200153 756100                    STQ     PTR$,,AUTO

     1802    19381    4   CLASS = 15 /*C_HEX_LIST */ ;
PL6.E3A0      #001=ASL$DISP_ONE_PROFILE File=ASL$L_PRO.:E05TSI                   TUE 07/29/97 10:26 Page:369

  19381  4 010756   000017 235007                    LDA     15,DL
         4 010757   200162 755100                    STA     CLASS,,AUTO
         4 010760   015434 710000 4                  TRA     s:20217

     1803    19382
     1804    19383    4   SELECT(98 /* FRMFED_CHR */) ;

     1805    19384    4   IF PRO_TYP = ASL_3270_TYP

  19384  4 010761   000572 236000 2                  LDQ     PRO_TYP
         4 010762   000000 676000 xsym               ERQ     ASL_3270_TYP
         4 010763   777000 376003                    ANQ     -512,DU
         4 010764   010774 601000 4                  TNZ     s:19390

     1806    19385    5   THEN DO;

     1807    19386    5      YES_NO = KL$3270.FRMFED;

  19386  4 010765   000144 470400 2                  LDP0    KL_3270$
         4 010766   003100 060500                    CSL     bolr='003'O
         4 010767   000000 040001                    BDSC    0,,PR0                   by=0,bit=4,n=1
         4 010770   200165 000001                    BDSC    YES_NO,,AUTO             by=0,bit=0,n=1

     1808    19387    5      CLASS = 2 /* C_YESNO */ ;

  19387  4 010771   000002 235007                    LDA     2,DL
         4 010772   200162 755100                    STA     CLASS,,AUTO

     1809    19388    5      END;

  19388  4 010773   015434 710000 4                  TRA     s:20217

     1810    19389    5   ELSE DO;

     1811    19390    5      PTR$ =ADDR( TCCHR$->KL$CCHR.FRMFED_CHR) ;

PL6.E3A0      #001=ASL$DISP_ONE_PROFILE File=ASL$L_PRO.:E05TSI                   TUE 07/29/97 10:26 Page:370
  19390  4 010774   000137 236000 2                  LDQ     TCCHR$
         4 010775   000155 036000 5                  ADLQ    109
         4 010776   200153 756100                    STQ     PTR$,,AUTO

     1812    19391    5      CLASS = 15 /*C_HEX_LIST */ ;

  19391  4 010777   000017 235007                    LDA     15,DL
         4 011000   200162 755100                    STA     CLASS,,AUTO

     1813    19392    5      END;

  19392  4 011001   015434 710000 4                  TRA     s:20217

     1814    19393
     1815    19394    4   SELECT(99 /* HOM_CHR */) ;

     1816    19395    4   PTR$ =ADDR( TCCHR$->KL$CCHR.HOM_CHR) ;

  19395  4 011002   000137 236000 2                  LDQ     TCCHR$
         4 011003   000156 036000 5                  ADLQ    110
         4 011004   200153 756100                    STQ     PTR$,,AUTO

     1817    19396    4   CLASS = 15 /*C_HEX_LIST */ ;

  19396  4 011005   000017 235007                    LDA     15,DL
         4 011006   200162 755100                    STA     CLASS,,AUTO
         4 011007   015434 710000 4                  TRA     s:20217

     1818    19397
     1819    19398    4   SELECT(100 /* HTS_CHR */) ;

     1820    19399    4   PTR$ =ADDR( TCCHR$->KL$CCHR.HTS_CHR) ;

  19399  4 011010   000137 236000 2                  LDQ     TCCHR$
         4 011011   000157 036000 5                  ADLQ    111
         4 011012   200153 756100                    STQ     PTR$,,AUTO

PL6.E3A0      #001=ASL$DISP_ONE_PROFILE File=ASL$L_PRO.:E05TSI                   TUE 07/29/97 10:26 Page:371
     1821    19400    4   CLASS = 15 /*C_HEX_LIST */ ;

  19400  4 011013   000017 235007                    LDA     15,DL
         4 011014   200162 755100                    STA     CLASS,,AUTO
         4 011015   015434 710000 4                  TRA     s:20217

     1822    19401
     1823    19402    4   SELECT(101 /* ICH_CHR */) ;

     1824    19403    4   PTR$ =ADDR( TCCHR$->KL$CCHR.ICH_CHR) ;

  19403  4 011016   000137 236000 2                  LDQ     TCCHR$
         4 011017   000160 036000 5                  ADLQ    112
         4 011020   200153 756100                    STQ     PTR$,,AUTO

     1825    19404    4   CLASS = 15 /*C_HEX_LIST */ ;

  19404  4 011021   000017 235007                    LDA     15,DL
         4 011022   200162 755100                    STA     CLASS,,AUTO
         4 011023   015434 710000 4                  TRA     s:20217

     1826    19405
     1827    19406    4   SELECT(102 /* RSTINSMOD_CHR */) ;

     1828    19407    4   PTR$ =ADDR( TCCHR$->KL$CCHR.RSTINSMOD_CHR) ;

  19407  4 011024   000137 236000 2                  LDQ     TCCHR$
         4 011025   000016 036003                    ADLQ    14,DU
         4 011026   200153 756100                    STQ     PTR$,,AUTO

     1829    19408    4   CLASS = 15 /*C_HEX_LIST */ ;

  19408  4 011027   000017 235007                    LDA     15,DL
         4 011030   200162 755100                    STA     CLASS,,AUTO
         4 011031   015434 710000 4                  TRA     s:20217

     1830    19409
PL6.E3A0      #001=ASL$DISP_ONE_PROFILE File=ASL$L_PRO.:E05TSI                   TUE 07/29/97 10:26 Page:372
     1831    19410    4   SELECT(103 /* SETFRMLNG_CHR */) ;

     1832    19411    4   PTR$ =ADDR( TCCHR$->KL$CCHR.SETFRMLNG_CHR) ;

  19411  4 011032   000137 236000 2                  LDQ     TCCHR$
         4 011033   000021 036003                    ADLQ    17,DU
         4 011034   200153 756100                    STQ     PTR$,,AUTO

     1833    19412    4   CLASS = 15 /*C_HEX_LIST */ ;

  19412  4 011035   000017 235007                    LDA     15,DL
         4 011036   200162 755100                    STA     CLASS,,AUTO
         4 011037   015434 710000 4                  TRA     s:20217

     1834    19413
     1835    19414    4   SELECT(104 /* TBC3_CHR */) ;

     1836    19415    4   PTR$ =ADDR( TCCHR$->KL$CCHR.TBC3_CHR) ;

  19415  4 011040   000137 236000 2                  LDQ     TCCHR$
         4 011041   000161 036000 5                  ADLQ    113
         4 011042   200153 756100                    STQ     PTR$,,AUTO

     1837    19416    4   CLASS = 15 /*C_HEX_LIST */ ;

  19416  4 011043   000017 235007                    LDA     15,DL
         4 011044   200162 755100                    STA     CLASS,,AUTO
         4 011045   015434 710000 4                  TRA     s:20217

     1838    19417
     1839    19418    4   SELECT(107 /* INTERVAL */) ;

     1840    19419    4   SBINS(SBIN_IDX) = TRMD$ -> KL$TRMD.INTERVAL# ;

  19419  4 011046   200077 235100                    LDA     SBIN_IDX,,AUTO
         4 011047   000002 735000                    ALS     2
         4 011050   000140 470400 2                  LDP0    TRMD$
PL6.E3A0      #001=ASL$DISP_ONE_PROFILE File=ASL$L_PRO.:E05TSI                   TUE 07/29/97 10:26 Page:373
         4 011051   000105 101500                    MRL     fill='000'O
         4 011052   000002 000001                    ADSC9   2,,PR0                   cn=0,n=1
         4 011053   200007 000004                    ADSC9   SBINS,A,AUTO             cn=0,n=4

     1841    19420    4   CLASS = 12 /* C_SBIN */ ;

  19420  4 011054   000014 236007                    LDQ     12,DL
         4 011055   200162 756100                    STQ     CLASS,,AUTO
         4 011056   015434 710000 4                  TRA     s:20217

     1842    19421    4   SELECT(108 /* COMPRESSION */);

     1843    19422    5   DO SELECT(TRMD$ -> KL$TRMD.COMPRESS# );

  19422  4 011057   000140 470400 2                  LDP0    TRMD$
         4 011060   003100 061500                    CSR     bolr='003'O
         4 011061   000002 230006                    BDSC    2,,PR0                   by=1,bit=3,n=6
         4 011062   200366 000044                    BDSC    TEMP+4,,AUTO             by=0,bit=0,n=36
         4 011063   200366 236100                    LDQ     TEMP+4,,AUTO
         4 011064   000001 116007                    CMPQ    1,DL
         4 011065   011105 602000 4                  TNC     s:19422+22
         4 011066   011124 600000 4                  TZE     s:19426
         4 011067   003100 061500                    CSR     bolr='003'O
         4 011070   000002 230006                    BDSC    2,,PR0                   by=1,bit=3,n=6
         4 011071   200367 000044                    BDSC    TEMP+5,,AUTO             by=0,bit=0,n=36
         4 011072   200367 236100                    LDQ     TEMP+5,,AUTO
         4 011073   000002 116007                    CMPQ    2,DL
         4 011074   011153 602000 4                  TNC     s:19432
         4 011075   011134 600000 4                  TZE     s:19428
         4 011076   003100 061500                    CSR     bolr='003'O
         4 011077   000002 230006                    BDSC    2,,PR0                   by=1,bit=3,n=6
         4 011100   200370 000044                    BDSC    TEMP+6,,AUTO             by=0,bit=0,n=36
         4 011101   200370 236100                    LDQ     TEMP+6,,AUTO
         4 011102   000003 116007                    CMPQ    3,DL
         4 011103   011153 601000 4                  TNZ     s:19432
         4 011104   011144 710000 4                  TRA     s:19430
         4 011105   003100 061500                    CSR     bolr='003'O
PL6.E3A0      #001=ASL$DISP_ONE_PROFILE File=ASL$L_PRO.:E05TSI                   TUE 07/29/97 10:26 Page:374
         4 011106   000002 230006                    BDSC    2,,PR0                   by=1,bit=3,n=6
         4 011107   200371 000044                    BDSC    TEMP+7,,AUTO             by=0,bit=0,n=36
         4 011110   200371 236100                    LDQ     TEMP+7,,AUTO
         4 011111   000000 116003                    CMPQ    0,DU
         4 011112   011114 600000 4                  TZE     s:19424
         4 011113   011153 710000 4                  TRA     s:19432

     1844    19423    5      SELECT( %KLCO_NO# );

     1845    19424    5      FMT_VEC(FDS.NVECS#) = VECTOR(NO_STR) ;

  19424  4 011114   000011 235000 xsym               LDA     FDS+9
         4 011115   000001 735000                    ALS     1
         4 011116   000000 620005                    EAX0    0,AL
         4 011117   000000 621005                    EAX1    0,AL
         4 011120   000162 237000 5                  LDAQ    114
         4 011121   000000 755010 xsym               STA     FMT_VEC,X0
         4 011122   000001 756011 xsym               STQ     FMT_VEC+1,X1
         4 011123   011153 710000 4                  TRA     s:19432

     1846    19425    5      SELECT( %KLCO_YES# );

     1847    19426    5      FMT_VEC(FDS.NVECS#) = VECTOR(YES_STR) ;

  19426  4 011124   000011 235000 xsym               LDA     FDS+9
         4 011125   000001 735000                    ALS     1
         4 011126   000000 620005                    EAX0    0,AL
         4 011127   000000 621005                    EAX1    0,AL
         4 011130   000164 237000 5                  LDAQ    116
         4 011131   000000 755010 xsym               STA     FMT_VEC,X0
         4 011132   000001 756011 xsym               STQ     FMT_VEC+1,X1
         4 011133   011153 710000 4                  TRA     s:19432

     1848    19427    5      SELECT( %KLCO_LINE# );

     1849    19428    5      FMT_VEC(FDS.NVECS#) = VECTOR(LINE_STR) ;

PL6.E3A0      #001=ASL$DISP_ONE_PROFILE File=ASL$L_PRO.:E05TSI                   TUE 07/29/97 10:26 Page:375
  19428  4 011134   000011 235000 xsym               LDA     FDS+9
         4 011135   000001 735000                    ALS     1
         4 011136   000000 620005                    EAX0    0,AL
         4 011137   000000 621005                    EAX1    0,AL
         4 011140   000166 237000 5                  LDAQ    118
         4 011141   000000 755010 xsym               STA     FMT_VEC,X0
         4 011142   000001 756011 xsym               STQ     FMT_VEC+1,X1
         4 011143   011153 710000 4                  TRA     s:19432

     1850    19429    5      SELECT( %KLCO_BLANKS# );

     1851    19430    5      FMT_VEC(FDS.NVECS#) = VECTOR(BLANKS_STR) ;

  19430  4 011144   000011 235000 xsym               LDA     FDS+9
         4 011145   000001 735000                    ALS     1
         4 011146   000000 620005                    EAX0    0,AL
         4 011147   000000 621005                    EAX1    0,AL
         4 011150   000170 237000 5                  LDAQ    120
         4 011151   000000 755010 xsym               STA     FMT_VEC,X0
         4 011152   000001 756011 xsym               STQ     FMT_VEC+1,X1

     1852    19431    5      END;

     1853    19432    4   CLASS = 1 /* C_TEXT */ ;

  19432  4 011153   000001 235007                    LDA     1,DL
         4 011154   200162 755100                    STA     CLASS,,AUTO
         4 011155   015434 710000 4                  TRA     s:20217

     1854    19433    4   SELECT ( 109 /* TIMEOUT*/ );

     1855    19434    4   SBINS(SBIN_IDX) = LINK$ -> KL$LINK.TMT# ;

  19434  4 011156   200077 235100                    LDA     SBIN_IDX,,AUTO
         4 011157   000002 735000                    ALS     2
         4 011160   000142 470400 2                  LDP0    LINK$
         4 011161   000105 101500                    MRL     fill='000'O
PL6.E3A0      #001=ASL$DISP_ONE_PROFILE File=ASL$L_PRO.:E05TSI                   TUE 07/29/97 10:26 Page:376
         4 011162   000001 000001                    ADSC9   1,,PR0                   cn=0,n=1
         4 011163   200007 000004                    ADSC9   SBINS,A,AUTO             cn=0,n=4

     1856    19435    4   CLASS = 12 /* C_SBIN */ ;

  19435  4 011164   000014 236007                    LDQ     12,DL
         4 011165   200162 756100                    STQ     CLASS,,AUTO
         4 011166   015434 710000 4                  TRA     s:20217

     1857    19436
     1858    19437    4   SELECT(110 /* RETRANSMISSIONS */);

     1859    19438    4   SBINS(SBIN_IDX) = LINK$ -> KL$LINK.RTR# ;

  19438  4 011167   200077 235100                    LDA     SBIN_IDX,,AUTO
         4 011170   000002 735000                    ALS     2
         4 011171   000142 470400 2                  LDP0    LINK$
         4 011172   000105 101500                    MRL     fill='000'O
         4 011173   000000 600001                    ADSC9   0,,PR0                   cn=3,n=1
         4 011174   200007 000004                    ADSC9   SBINS,A,AUTO             cn=0,n=4

     1860    19439    4   CLASS = 12 /* C_SBIN */ ;

  19439  4 011175   000014 236007                    LDQ     12,DL
         4 011176   200162 756100                    STQ     CLASS,,AUTO
         4 011177   015434 710000 4                  TRA     s:20217

     1861    19440    4   SELECT(111 /* WINDOW */);

     1862    19441    4   SBINS(SBIN_IDX) = LINK$ -> KL$LINK.WND# ;

  19441  4 011200   200077 235100                    LDA     SBIN_IDX,,AUTO
         4 011201   000002 735000                    ALS     2
         4 011202   000142 470400 2                  LDP0    LINK$
         4 011203   000105 101500                    MRL     fill='000'O
         4 011204   000001 200001                    ADSC9   1,,PR0                   cn=1,n=1
         4 011205   200007 000004                    ADSC9   SBINS,A,AUTO             cn=0,n=4
PL6.E3A0      #001=ASL$DISP_ONE_PROFILE File=ASL$L_PRO.:E05TSI                   TUE 07/29/97 10:26 Page:377

     1863    19442    4   CLASS = 12 /* C_SBIN */ ;

  19442  4 011206   000014 236007                    LDQ     12,DL
         4 011207   200162 756100                    STQ     CLASS,,AUTO
         4 011210   015434 710000 4                  TRA     s:20217

     1864    19443
     1865    19444    4   SELECT ( 112 /* FRAME */ );

     1866    19445    5   DO SELECT(LINK$ -> KL$LINK.FRMSIZ#);

  19445  4 011211   000142 470400 2                  LDP0    LINK$
         4 011212   003100 061500                    CSR     bolr='003'O
         4 011213   000000 030004                    BDSC    0,,PR0                   by=0,bit=3,n=4
         4 011214   200366 000044                    BDSC    TEMP+4,,AUTO             by=0,bit=0,n=36
         4 011215   200366 236100                    LDQ     TEMP+4,,AUTO
         4 011216   000003 116007                    CMPQ    3,DL
         4 011217   011237 602000 4                  TNC     s:19445+22
         4 011220   011314 600000 4                  TZE     s:19453
         4 011221   003100 061500                    CSR     bolr='003'O
         4 011222   000000 030004                    BDSC    0,,PR0                   by=0,bit=3,n=4
         4 011223   200367 000044                    BDSC    TEMP+5,,AUTO             by=0,bit=0,n=36
         4 011224   200367 236100                    LDQ     TEMP+5,,AUTO
         4 011225   000004 116007                    CMPQ    4,DL
         4 011226   011343 602000 4                  TNC     s:19459
         4 011227   011324 600000 4                  TZE     s:19455
         4 011230   003100 061500                    CSR     bolr='003'O
         4 011231   000000 030004                    BDSC    0,,PR0                   by=0,bit=3,n=4
         4 011232   200370 000044                    BDSC    TEMP+6,,AUTO             by=0,bit=0,n=36
         4 011233   200370 236100                    LDQ     TEMP+6,,AUTO
         4 011234   000005 116007                    CMPQ    5,DL
         4 011235   011343 601000 4                  TNZ     s:19459
         4 011236   011334 710000 4                  TRA     s:19457
         4 011237   003100 061500                    CSR     bolr='003'O
         4 011240   000000 030004                    BDSC    0,,PR0                   by=0,bit=3,n=4
         4 011241   200371 000044                    BDSC    TEMP+7,,AUTO             by=0,bit=0,n=36
PL6.E3A0      #001=ASL$DISP_ONE_PROFILE File=ASL$L_PRO.:E05TSI                   TUE 07/29/97 10:26 Page:378
         4 011242   200371 236100                    LDQ     TEMP+7,,AUTO
         4 011243   000001 116007                    CMPQ    1,DL
         4 011244   011255 602000 4                  TNC     s:19445+36
         4 011245   011274 600000 4                  TZE     s:19449
         4 011246   003100 061500                    CSR     bolr='003'O
         4 011247   000000 030004                    BDSC    0,,PR0                   by=0,bit=3,n=4
         4 011250   200372 000044                    BDSC    TEMP+8,,AUTO             by=0,bit=0,n=36
         4 011251   200372 236100                    LDQ     TEMP+8,,AUTO
         4 011252   000002 116007                    CMPQ    2,DL
         4 011253   011343 601000 4                  TNZ     s:19459
         4 011254   011304 710000 4                  TRA     s:19451
         4 011255   003100 061500                    CSR     bolr='003'O
         4 011256   000000 030004                    BDSC    0,,PR0                   by=0,bit=3,n=4
         4 011257   200373 000044                    BDSC    TEMP+9,,AUTO             by=0,bit=0,n=36
         4 011260   200373 236100                    LDQ     TEMP+9,,AUTO
         4 011261   000000 116003                    CMPQ    0,DU
         4 011262   011264 600000 4                  TZE     s:19447
         4 011263   011343 710000 4                  TRA     s:19459

     1867    19446    5      SELECT(%KLX25_SIZ_128#);

     1868    19447    5      FMT_VEC(FDS.NVECS#) = VECTOR(V128_STR);

  19447  4 011264   000011 235000 xsym               LDA     FDS+9
         4 011265   000001 735000                    ALS     1
         4 011266   000000 620005                    EAX0    0,AL
         4 011267   000000 621005                    EAX1    0,AL
         4 011270   000172 237000 5                  LDAQ    122
         4 011271   000000 755010 xsym               STA     FMT_VEC,X0
         4 011272   000001 756011 xsym               STQ     FMT_VEC+1,X1
         4 011273   011343 710000 4                  TRA     s:19459

     1869    19448    5      SELECT(%KLX25_SIZ_256#);

     1870    19449    5      FMT_VEC(FDS.NVECS#) = VECTOR(V256_STR);

  19449  4 011274   000011 235000 xsym               LDA     FDS+9
PL6.E3A0      #001=ASL$DISP_ONE_PROFILE File=ASL$L_PRO.:E05TSI                   TUE 07/29/97 10:26 Page:379
         4 011275   000001 735000                    ALS     1
         4 011276   000000 620005                    EAX0    0,AL
         4 011277   000000 621005                    EAX1    0,AL
         4 011300   000174 237000 5                  LDAQ    124
         4 011301   000000 755010 xsym               STA     FMT_VEC,X0
         4 011302   000001 756011 xsym               STQ     FMT_VEC+1,X1
         4 011303   011343 710000 4                  TRA     s:19459

     1871    19450    5      SELECT(%KLX25_SIZ_512#);

     1872    19451    5      FMT_VEC(FDS.NVECS#) = VECTOR(V512_STR);

  19451  4 011304   000011 235000 xsym               LDA     FDS+9
         4 011305   000001 735000                    ALS     1
         4 011306   000000 620005                    EAX0    0,AL
         4 011307   000000 621005                    EAX1    0,AL
         4 011310   000176 237000 5                  LDAQ    126
         4 011311   000000 755010 xsym               STA     FMT_VEC,X0
         4 011312   000001 756011 xsym               STQ     FMT_VEC+1,X1
         4 011313   011343 710000 4                  TRA     s:19459

     1873    19452    5      SELECT(%KLX25_SIZ_1024#);

     1874    19453    5      FMT_VEC(FDS.NVECS#) = VECTOR(V1024_STR);

  19453  4 011314   000011 235000 xsym               LDA     FDS+9
         4 011315   000001 735000                    ALS     1
         4 011316   000000 620005                    EAX0    0,AL
         4 011317   000000 621005                    EAX1    0,AL
         4 011320   000200 237000 5                  LDAQ    128
         4 011321   000000 755010 xsym               STA     FMT_VEC,X0
         4 011322   000001 756011 xsym               STQ     FMT_VEC+1,X1
         4 011323   011343 710000 4                  TRA     s:19459

     1875    19454    5      SELECT(%KLX25_SIZ_2048#);

     1876    19455    5      FMT_VEC(FDS.NVECS#) = VECTOR(V2048_STR);
PL6.E3A0      #001=ASL$DISP_ONE_PROFILE File=ASL$L_PRO.:E05TSI                   TUE 07/29/97 10:26 Page:380

  19455  4 011324   000011 235000 xsym               LDA     FDS+9
         4 011325   000001 735000                    ALS     1
         4 011326   000000 620005                    EAX0    0,AL
         4 011327   000000 621005                    EAX1    0,AL
         4 011330   000202 237000 5                  LDAQ    130
         4 011331   000000 755010 xsym               STA     FMT_VEC,X0
         4 011332   000001 756011 xsym               STQ     FMT_VEC+1,X1
         4 011333   011343 710000 4                  TRA     s:19459

     1877    19456    5      SELECT(%KLX25_SIZ_4096#);

     1878    19457    5      FMT_VEC(FDS.NVECS#) = VECTOR(V4096_STR);

  19457  4 011334   000011 235000 xsym               LDA     FDS+9
         4 011335   000001 735000                    ALS     1
         4 011336   000000 620005                    EAX0    0,AL
         4 011337   000000 621005                    EAX1    0,AL
         4 011340   000204 237000 5                  LDAQ    132
         4 011341   000000 755010 xsym               STA     FMT_VEC,X0
         4 011342   000001 756011 xsym               STQ     FMT_VEC+1,X1

     1879    19458    5      END;

     1880    19459    4   CLASS = 1 /* C_TEXT */;

  19459  4 011343   000001 235007                    LDA     1,DL
         4 011344   200162 755100                    STA     CLASS,,AUTO
         4 011345   015434 710000 4                  TRA     s:20217

     1881    19460
     1882    19461    4   SELECT(114 /* CALLS */);

     1883    19462    5   DO SELECT(LINK$ -> KL$LINK.CLS#);

  19462  4 011346   000142 470400 2                  LDP0    LINK$
         4 011347   003100 061500                    CSR     bolr='003'O
PL6.E3A0      #001=ASL$DISP_ONE_PROFILE File=ASL$L_PRO.:E05TSI                   TUE 07/29/97 10:26 Page:381
         4 011350   000000 010002                    BDSC    0,,PR0                   by=0,bit=1,n=2
         4 011351   200366 000044                    BDSC    TEMP+4,,AUTO             by=0,bit=0,n=36
         4 011352   200366 236100                    LDQ     TEMP+4,,AUTO
         4 011353   000001 116007                    CMPQ    1,DL
         4 011354   011374 602000 4                  TNC     s:19462+22
         4 011355   011413 600000 4                  TZE     s:19466
         4 011356   003100 061500                    CSR     bolr='003'O
         4 011357   000000 010002                    BDSC    0,,PR0                   by=0,bit=1,n=2
         4 011360   200367 000044                    BDSC    TEMP+5,,AUTO             by=0,bit=0,n=36
         4 011361   200367 236100                    LDQ     TEMP+5,,AUTO
         4 011362   000002 116007                    CMPQ    2,DL
         4 011363   011442 602000 4                  TNC     s:19472
         4 011364   011423 600000 4                  TZE     s:19468
         4 011365   003100 061500                    CSR     bolr='003'O
         4 011366   000000 010002                    BDSC    0,,PR0                   by=0,bit=1,n=2
         4 011367   200370 000044                    BDSC    TEMP+6,,AUTO             by=0,bit=0,n=36
         4 011370   200370 236100                    LDQ     TEMP+6,,AUTO
         4 011371   000003 116007                    CMPQ    3,DL
         4 011372   011442 601000 4                  TNZ     s:19472
         4 011373   011433 710000 4                  TRA     s:19470
         4 011374   003100 061500                    CSR     bolr='003'O
         4 011375   000000 010002                    BDSC    0,,PR0                   by=0,bit=1,n=2
         4 011376   200371 000044                    BDSC    TEMP+7,,AUTO             by=0,bit=0,n=36
         4 011377   200371 236100                    LDQ     TEMP+7,,AUTO
         4 011400   000000 116003                    CMPQ    0,DU
         4 011401   011403 600000 4                  TZE     s:19464
         4 011402   011442 710000 4                  TRA     s:19472

     1884    19463    5      SELECT(%KLX25_CLS_NONE#);

     1885    19464    5      FMT_VEC(FDS.NVECS#) = VECTOR(NONE_STR);

  19464  4 011403   000011 235000 xsym               LDA     FDS+9
         4 011404   000001 735000                    ALS     1
         4 011405   000000 620005                    EAX0    0,AL
         4 011406   000000 621005                    EAX1    0,AL
         4 011407   000100 237000 5                  LDAQ    64
PL6.E3A0      #001=ASL$DISP_ONE_PROFILE File=ASL$L_PRO.:E05TSI                   TUE 07/29/97 10:26 Page:382
         4 011410   000000 755010 xsym               STA     FMT_VEC,X0
         4 011411   000001 756011 xsym               STQ     FMT_VEC+1,X1
         4 011412   011442 710000 4                  TRA     s:19472

     1886    19465    5      SELECT(%KLX25_CLS_X25#);

     1887    19466    5      FMT_VEC(FDS.NVECS#) = VECTOR(X25_STR);

  19466  4 011413   000011 235000 xsym               LDA     FDS+9
         4 011414   000001 735000                    ALS     1
         4 011415   000000 620005                    EAX0    0,AL
         4 011416   000000 621005                    EAX1    0,AL
         4 011417   000206 237000 5                  LDAQ    134
         4 011420   000000 755010 xsym               STA     FMT_VEC,X0
         4 011421   000001 756011 xsym               STQ     FMT_VEC+1,X1
         4 011422   011442 710000 4                  TRA     s:19472

     1888    19467    5      SELECT(%KLX25_CLS_X29#);

     1889    19468    5      FMT_VEC(FDS.NVECS#) = VECTOR(X29_STR);

  19468  4 011423   000011 235000 xsym               LDA     FDS+9
         4 011424   000001 735000                    ALS     1
         4 011425   000000 620005                    EAX0    0,AL
         4 011426   000000 621005                    EAX1    0,AL
         4 011427   000210 237000 5                  LDAQ    136
         4 011430   000000 755010 xsym               STA     FMT_VEC,X0
         4 011431   000001 756011 xsym               STQ     FMT_VEC+1,X1
         4 011432   011442 710000 4                  TRA     s:19472

     1890    19469    5      SELECT(%KLX25_CLS_ALL#);

     1891    19470    5      FMT_VEC(FDS.NVECS#) = VECTOR(ALL_STR);

  19470  4 011433   000011 235000 xsym               LDA     FDS+9
         4 011434   000001 735000                    ALS     1
         4 011435   000000 620005                    EAX0    0,AL
PL6.E3A0      #001=ASL$DISP_ONE_PROFILE File=ASL$L_PRO.:E05TSI                   TUE 07/29/97 10:26 Page:383
         4 011436   000000 621005                    EAX1    0,AL
         4 011437   000212 237000 5                  LDAQ    138
         4 011440   000000 755010 xsym               STA     FMT_VEC,X0
         4 011441   000001 756011 xsym               STQ     FMT_VEC+1,X1

     1892    19471    5      END;

     1893    19472    4   CLASS = 1 /* C_TEXT */;

  19472  4 011442   000001 235007                    LDA     1,DL
         4 011443   200162 755100                    STA     CLASS,,AUTO
         4 011444   015434 710000 4                  TRA     s:20217

     1894    19473    4   SELECT(115 /* REVERSE */);

     1895    19474    4   IF DSEG1$ -> PRO$HDR.TTYP = %KLTY_VIRCIR#

  19474  4 011445   000000 470400 xsym               LDP0    DSEG1$
         4 011446   000100 101500                    MRL     fill='000'O
         4 011447   000000 000001                    ADSC9   0,,PR0                   cn=0,n=1
         4 011450   200366 000004                    ADSC9   TEMP+4,,AUTO             cn=0,n=4
         4 011451   200366 236100                    LDQ     TEMP+4,,AUTO
         4 011452   000010 116007                    CMPQ    8,DL
         4 011453   011534 601000 4                  TNZ     s:19487

     1896    19475    5   THEN DO;

     1897    19476    6      DO SELECT( VIRCIR$ -> KL$VIRCIR.RVR# );

  19476  4 011454   000143 471400 2                  LDP1    VIRCIR$
         4 011455   003100 061500                    CSR     bolr='003'O
         4 011456   100004 610002                    BDSC    4,,PR1                   by=3,bit=1,n=2
         4 011457   200366 000044                    BDSC    TEMP+4,,AUTO             by=0,bit=0,n=36
         4 011460   200366 236100                    LDQ     TEMP+4,,AUTO
         4 011461   000001 116007                    CMPQ    1,DL
         4 011462   011473 602000 4                  TNC     s:19476+15
         4 011463   011522 600000 4                  TZE     s:19482
PL6.E3A0      #001=ASL$DISP_ONE_PROFILE File=ASL$L_PRO.:E05TSI                   TUE 07/29/97 10:26 Page:384
         4 011464   003100 061500                    CSR     bolr='003'O
         4 011465   100004 610002                    BDSC    4,,PR1                   by=3,bit=1,n=2
         4 011466   200367 000044                    BDSC    TEMP+5,,AUTO             by=0,bit=0,n=36
         4 011467   200367 236100                    LDQ     TEMP+5,,AUTO
         4 011470   000002 116007                    CMPQ    2,DL
         4 011471   011531 601000 4                  TNZ     s:19484
         4 011472   011512 710000 4                  TRA     s:19480
         4 011473   003100 061500                    CSR     bolr='003'O
         4 011474   100004 610002                    BDSC    4,,PR1                   by=3,bit=1,n=2
         4 011475   200370 000044                    BDSC    TEMP+6,,AUTO             by=0,bit=0,n=36
         4 011476   200370 236100                    LDQ     TEMP+6,,AUTO
         4 011477   000000 116003                    CMPQ    0,DU
         4 011500   011502 600000 4                  TZE     s:19478
         4 011501   011531 710000 4                  TRA     s:19484

     1898    19477    6         SELECT( %KLX25_RVR_TRY# );

     1899    19478    6         FMT_VEC(FDS.NVECS#) = VECTOR(TRY_STR);

  19478  4 011502   000011 235000 xsym               LDA     FDS+9
         4 011503   000001 735000                    ALS     1
         4 011504   000000 620005                    EAX0    0,AL
         4 011505   000000 621005                    EAX1    0,AL
         4 011506   000214 237000 5                  LDAQ    140
         4 011507   000000 755010 xsym               STA     FMT_VEC,X0
         4 011510   000001 756011 xsym               STQ     FMT_VEC+1,X1
         4 011511   011531 710000 4                  TRA     s:19484

     1900    19479    6         SELECT( %KLX25_RVR_NO# );

     1901    19480    6         FMT_VEC(FDS.NVECS#) = VECTOR(NO_STR);

  19480  4 011512   000011 235000 xsym               LDA     FDS+9
         4 011513   000001 735000                    ALS     1
         4 011514   000000 620005                    EAX0    0,AL
         4 011515   000000 621005                    EAX1    0,AL
         4 011516   000162 237000 5                  LDAQ    114
PL6.E3A0      #001=ASL$DISP_ONE_PROFILE File=ASL$L_PRO.:E05TSI                   TUE 07/29/97 10:26 Page:385
         4 011517   000000 755010 xsym               STA     FMT_VEC,X0
         4 011520   000001 756011 xsym               STQ     FMT_VEC+1,X1
         4 011521   011531 710000 4                  TRA     s:19484

     1902    19481    6         SELECT( %KLX25_RVR_YES# );

     1903    19482    6         FMT_VEC(FDS.NVECS#) = VECTOR(YES_STR);

  19482  4 011522   000011 235000 xsym               LDA     FDS+9
         4 011523   000001 735000                    ALS     1
         4 011524   000000 620005                    EAX0    0,AL
         4 011525   000000 621005                    EAX1    0,AL
         4 011526   000164 237000 5                  LDAQ    116
         4 011527   000000 755010 xsym               STA     FMT_VEC,X0
         4 011530   000001 756011 xsym               STQ     FMT_VEC+1,X1

     1904    19483    6         END ;

     1905    19484    5      CLASS = 1 /* C_TEXT */;

  19484  4 011531   000001 235007                    LDA     1,DL
         4 011532   200162 755100                    STA     CLASS,,AUTO

     1906    19485    5      END;

  19485  4 011533   015434 710000 4                  TRA     s:20217

     1907    19486    5   ELSE DO;

     1908    19487    5      YES_NO = LINK$ -> KL$LINK.RVR# ;

  19487  4 011534   000142 471400 2                  LDP1    LINK$
         4 011535   003100 060500                    CSL     bolr='003'O
         4 011536   100000 070001                    BDSC    0,,PR1                   by=0,bit=7,n=1
         4 011537   200165 000001                    BDSC    YES_NO,,AUTO             by=0,bit=0,n=1

     1909    19488    5      CLASS = 2 /* C_YESNO */ ;
PL6.E3A0      #001=ASL$DISP_ONE_PROFILE File=ASL$L_PRO.:E05TSI                   TUE 07/29/97 10:26 Page:386

  19488  4 011540   000002 235007                    LDA     2,DL
         4 011541   200162 755100                    STA     CLASS,,AUTO

     1910    19489    5      END;

  19489  4 011542   015434 710000 4                  TRA     s:20217

     1911    19490
     1912    19491    4   SELECT( 118 /* MAXWINDOW */ ) ;

     1913    19492    4   SBINS( SBIN_IDX ) = LINK$ -> KL$LINK.MAXWND# ;

  19492  4 011543   200077 236100                    LDQ     SBIN_IDX,,AUTO
         4 011544   000044 402007                    MPY     36,DL
         4 011545   000000 116003                    CMPQ    0,DU
         4 011546   011550 605000 4                  TPL     s:19492+5
         4 011547   000044 036003                    ADLQ    36,DU
         4 011550   000142 470400 2                  LDP0    LINK$
         4 011551   003106 061500                    CSR     bolr='003'O
         4 011552   000000 420007                    BDSC    0,,PR0                   by=2,bit=2,n=7
         4 011553   200007 000044                    BDSC    SBINS,Q,AUTO             by=0,bit=0,n=36

     1914    19493    4   CLASS = 12 /* C_SBIN */ ;

  19493  4 011554   000014 235007                    LDA     12,DL
         4 011555   200162 755100                    STA     CLASS,,AUTO
         4 011556   015434 710000 4                  TRA     s:20217

     1915    19494    4   SELECT( 119 /* RESPDELAY */ ) ;

     1916    19495    4   IF DSEG1$ -> PRO$HDR.TTYP = %KLTY_VIRCIR#

  19495  4 011557   000000 470400 xsym               LDP0    DSEG1$
         4 011560   000100 101500                    MRL     fill='000'O
         4 011561   000000 000001                    ADSC9   0,,PR0                   cn=0,n=1
         4 011562   200366 000004                    ADSC9   TEMP+4,,AUTO             cn=0,n=4
PL6.E3A0      #001=ASL$DISP_ONE_PROFILE File=ASL$L_PRO.:E05TSI                   TUE 07/29/97 10:26 Page:387
         4 011563   200366 236100                    LDQ     TEMP+4,,AUTO
         4 011564   000010 116007                    CMPQ    8,DL
         4 011565   011600 601000 4                  TNZ     s:19497

     1917    19496    4   THEN SBINS(SBIN_IDX) = VIRCIR$ -> KL$VIRCIR.RSPDLY#;

  19496  4 011566   200077 236100                    LDQ     SBIN_IDX,,AUTO
         4 011567   000044 402007                    MPY     36,DL
         4 011570   000000 116003                    CMPQ    0,DU
         4 011571   011573 605000 4                  TPL     s:19496+5
         4 011572   000044 036003                    ADLQ    36,DU
         4 011573   000143 471400 2                  LDP1    VIRCIR$
         4 011574   003106 061500                    CSR     bolr='003'O
         4 011575   100004 020007                    BDSC    4,,PR1                   by=0,bit=2,n=7
         4 011576   200007 000044                    BDSC    SBINS,Q,AUTO             by=0,bit=0,n=36
         4 011577   011611 710000 4                  TRA     s:19498

     1918    19497    4   ELSE SBINS( SBIN_IDX ) = LINK$ -> KL$LINK.RSPDLY# ;

  19497  4 011600   200077 236100                    LDQ     SBIN_IDX,,AUTO
         4 011601   000044 402007                    MPY     36,DL
         4 011602   000000 116003                    CMPQ    0,DU
         4 011603   011605 605000 4                  TPL     s:19497+5
         4 011604   000044 036003                    ADLQ    36,DU
         4 011605   000142 471400 2                  LDP1    LINK$
         4 011606   003106 061500                    CSR     bolr='003'O
         4 011607   100000 220007                    BDSC    0,,PR1                   by=1,bit=2,n=7
         4 011610   200007 000044                    BDSC    SBINS,Q,AUTO             by=0,bit=0,n=36

     1919    19498    4   CLASS = 12 /* C_SBIN */ ;

  19498  4 011611   000014 235007                    LDA     12,DL
         4 011612   200162 755100                    STA     CLASS,,AUTO
         4 011613   015434 710000 4                  TRA     s:20217

     1920    19499
     1921    19500    4   SELECT ( 211 /* L_CALL_RETRYS */ );
PL6.E3A0      #001=ASL$DISP_ONE_PROFILE File=ASL$L_PRO.:E05TSI                   TUE 07/29/97 10:26 Page:388

     1922    19501
     1923    19502    4   SBINS(SBIN_IDX) = VIRCIR$ -> KL$VIRCIR.CRTR#;

  19502  4 011614   200077 235100                    LDA     SBIN_IDX,,AUTO
         4 011615   000002 735000                    ALS     2
         4 011616   000143 470400 2                  LDP0    VIRCIR$
         4 011617   000105 101500                    MRL     fill='000'O
         4 011620   000002 600001                    ADSC9   2,,PR0                   cn=3,n=1
         4 011621   200007 000004                    ADSC9   SBINS,A,AUTO             cn=0,n=4

     1924    19503    4   CLASS = 12 /* C_SBIN */ ;

  19503  4 011622   000014 236007                    LDQ     12,DL
         4 011623   200162 756100                    STQ     CLASS,,AUTO
         4 011624   015434 710000 4                  TRA     s:20217

     1925    19504
     1926    19505    4   SELECT ( 210 /* L_CALL_TIM */ );

     1927    19506
     1928    19507    4   SBINS(SBIN_IDX) = VIRCIR$ -> KL$VIRCIR.CTMT#;

  19507  4 011625   200077 235100                    LDA     SBIN_IDX,,AUTO
         4 011626   000002 735000                    ALS     2
         4 011627   000143 470400 2                  LDP0    VIRCIR$
         4 011630   000105 101500                    MRL     fill='000'O
         4 011631   000003 000001                    ADSC9   3,,PR0                   cn=0,n=1
         4 011632   200007 000004                    ADSC9   SBINS,A,AUTO             cn=0,n=4

     1929    19508    4   CLASS = 12 /* C_SBIN */ ;

  19508  4 011633   000014 236007                    LDQ     12,DL
         4 011634   200162 756100                    STQ     CLASS,,AUTO
         4 011635   015434 710000 4                  TRA     s:20217

     1930    19509
PL6.E3A0      #001=ASL$DISP_ONE_PROFILE File=ASL$L_PRO.:E05TSI                   TUE 07/29/97 10:26 Page:389
     1931    19510    4   SELECT ( 200 /* L_CHA_INFO */ ) ;

     1932    19511
     1933    19512    4   IF DSEG1$ -> PRO$HDR.TTYP = %KLTY_LINK# THEN

  19512  4 011636   000000 470400 xsym               LDP0    DSEG1$
         4 011637   000100 101500                    MRL     fill='000'O
         4 011640   000000 000001                    ADSC9   0,,PR0                   cn=0,n=1
         4 011641   200366 000004                    ADSC9   TEMP+4,,AUTO             cn=0,n=4
         4 011642   200366 236100                    LDQ     TEMP+4,,AUTO
         4 011643   000004 116007                    CMPQ    4,DL
         4 011644   011652 601000 4                  TNZ     s:19515

     1934    19513    4      YES_NO = LINK$ -> KL$LINK.CHARGE# ;

  19513  4 011645   000142 471400 2                  LDP1    LINK$
         4 011646   003100 060500                    CSL     bolr='003'O
         4 011647   100000 210001                    BDSC    0,,PR1                   by=1,bit=1,n=1
         4 011650   200165 000001                    BDSC    YES_NO,,AUTO             by=0,bit=0,n=1
         4 011651   011656 710000 4                  TRA     s:19516

     1935    19514    4   ELSE
     1936    19515    4      YES_NO = VIRCIR$ -> KL$VIRCIR.CHARGE# ;

  19515  4 011652   000143 471400 2                  LDP1    VIRCIR$
         4 011653   003100 060500                    CSL     bolr='003'O
         4 011654   100004 410001                    BDSC    4,,PR1                   by=2,bit=1,n=1
         4 011655   200165 000001                    BDSC    YES_NO,,AUTO             by=0,bit=0,n=1

     1937    19516    4   CLASS = 2 /* C_YESNO */ ;

  19516  4 011656   000002 235007                    LDA     2,DL
         4 011657   200162 755100                    STA     CLASS,,AUTO
         4 011660   015434 710000 4                  TRA     s:20217

     1938    19517
     1939    19518    4   SELECT ( 205 /* L_CLEAR_RETRYS */ );
PL6.E3A0      #001=ASL$DISP_ONE_PROFILE File=ASL$L_PRO.:E05TSI                   TUE 07/29/97 10:26 Page:390

     1940    19519
     1941    19520    4   SBINS(SBIN_IDX) = VIRCIR$ -> KL$VIRCIR.CLRRET#;

  19520  4 011661   200077 235100                    LDA     SBIN_IDX,,AUTO
         4 011662   000002 735000                    ALS     2
         4 011663   000143 470400 2                  LDP0    VIRCIR$
         4 011664   000105 101500                    MRL     fill='000'O
         4 011665   000001 200001                    ADSC9   1,,PR0                   cn=1,n=1
         4 011666   200007 000004                    ADSC9   SBINS,A,AUTO             cn=0,n=4

     1942    19521    4   CLASS = 12 /* C_SBIN */ ;

  19521  4 011667   000014 235007                    LDA     12,DL
         4 011670   200162 755100                    STA     CLASS,,AUTO
         4 011671   015434 710000 4                  TRA     s:20217

     1943    19522
     1944    19523    4   SELECT ( 204 /* L_CLEAR_TIM */ );

     1945    19524
     1946    19525    4   SBINS(SBIN_IDX) = VIRCIR$ -> KL$VIRCIR.CLRTIM#;

  19525  4 011672   200077 235100                    LDA     SBIN_IDX,,AUTO
         4 011673   000002 735000                    ALS     2
         4 011674   000143 470400 2                  LDP0    VIRCIR$
         4 011675   000105 101500                    MRL     fill='000'O
         4 011676   000001 000001                    ADSC9   1,,PR0                   cn=0,n=1
         4 011677   200007 000004                    ADSC9   SBINS,A,AUTO             cn=0,n=4

     1947    19526    4   CLASS = 12 /* C_SBIN */ ;

  19526  4 011700   000014 236007                    LDQ     12,DL
         4 011701   200162 756100                    STQ     CLASS,,AUTO
         4 011702   015434 710000 4                  TRA     s:20217

     1948    19527
PL6.E3A0      #001=ASL$DISP_ONE_PROFILE File=ASL$L_PRO.:E05TSI                   TUE 07/29/97 10:26 Page:391
     1949    19528    4   SELECT ( 207 /* L_DATA_RETRYS */ );

     1950    19529
     1951    19530    4   SBINS(SBIN_IDX) = VIRCIR$ -> KL$VIRCIR.DATRET#;

  19530  4 011703   200077 235100                    LDA     SBIN_IDX,,AUTO
         4 011704   000002 735000                    ALS     2
         4 011705   000143 470400 2                  LDP0    VIRCIR$
         4 011706   000105 101500                    MRL     fill='000'O
         4 011707   000001 600001                    ADSC9   1,,PR0                   cn=3,n=1
         4 011710   200007 000004                    ADSC9   SBINS,A,AUTO             cn=0,n=4

     1952    19531    4   CLASS = 12 /* C_SBIN */ ;

  19531  4 011711   000014 236007                    LDQ     12,DL
         4 011712   200162 756100                    STQ     CLASS,,AUTO
         4 011713   015434 710000 4                  TRA     s:20217

     1953    19532
     1954    19533    4   SELECT ( 206 /* L_DATA_TIM */ );

     1955    19534
     1956    19535    4   SBINS(SBIN_IDX) = VIRCIR$ -> KL$VIRCIR.DATTIM#;

  19535  4 011714   200077 236100                    LDQ     SBIN_IDX,,AUTO
         4 011715   000002 736000                    QLS     2
         4 011716   000143 470400 2                  LDP0    VIRCIR$
         4 011717   000106 101500                    MRL     fill='000'O
         4 011720   000001 400001                    ADSC9   1,,PR0                   cn=2,n=1
         4 011721   200007 000004                    ADSC9   SBINS,Q,AUTO             cn=0,n=4

     1957    19536    4   CLASS = 12 /* C_SBIN */ ;

  19536  4 011722   000014 235007                    LDA     12,DL
         4 011723   200162 755100                    STA     CLASS,,AUTO
         4 011724   015434 710000 4                  TRA     s:20217

PL6.E3A0      #001=ASL$DISP_ONE_PROFILE File=ASL$L_PRO.:E05TSI                   TUE 07/29/97 10:26 Page:392
     1958    19537
     1959    19538    4   SELECT ( 199 /* L_EXT_SEQ */ ) ;

     1960    19539
     1961    19540    4   IF DSEG1$ -> PRO$HDR.TTYP = %KLTY_LINK# THEN

  19540  4 011725   000000 470400 xsym               LDP0    DSEG1$
         4 011726   000100 101500                    MRL     fill='000'O
         4 011727   000000 000001                    ADSC9   0,,PR0                   cn=0,n=1
         4 011730   200366 000004                    ADSC9   TEMP+4,,AUTO             cn=0,n=4
         4 011731   200366 236100                    LDQ     TEMP+4,,AUTO
         4 011732   000004 116007                    CMPQ    4,DL
         4 011733   011741 601000 4                  TNZ     s:19543

     1962    19541    4      YES_NO = LINK$ -> KL$LINK.EXTSEQ# ;

  19541  4 011734   000142 471400 2                  LDP1    LINK$
         4 011735   003100 060500                    CSL     bolr='003'O
         4 011736   100000 410001                    BDSC    0,,PR1                   by=2,bit=1,n=1
         4 011737   200165 000001                    BDSC    YES_NO,,AUTO             by=0,bit=0,n=1
         4 011740   011745 710000 4                  TRA     s:19544

     1963    19542    4   ELSE
     1964    19543    4      YES_NO = VIRCIR$ -> KL$VIRCIR.EXTSEQ# ;

  19543  4 011741   000143 471400 2                  LDP1    VIRCIR$
         4 011742   003100 060500                    CSL     bolr='003'O
         4 011743   100004 010001                    BDSC    4,,PR1                   by=0,bit=1,n=1
         4 011744   200165 000001                    BDSC    YES_NO,,AUTO             by=0,bit=0,n=1

     1965    19544    4   CLASS = 2 /* C_YESNO */ ;

  19544  4 011745   000002 235007                    LDA     2,DL
         4 011746   200162 755100                    STA     CLASS,,AUTO
         4 011747   015434 710000 4                  TRA     s:20217

     1966    19545
PL6.E3A0      #001=ASL$DISP_ONE_PROFILE File=ASL$L_PRO.:E05TSI                   TUE 07/29/97 10:26 Page:393
     1967    19546    4   SELECT ( 176 /* FAST SELECT ACCEPT */ ) ;

     1968    19547
     1969    19548    4   YES_NO = LINK$ -> KL$LINK.FSA# ;

  19548  4 011750   000142 470400 2                  LDP0    LINK$
         4 011751   003100 060500                    CSL     bolr='003'O
         4 011752   000000 100001                    BDSC    0,,PR0                   by=0,bit=8,n=1
         4 011753   200165 000001                    BDSC    YES_NO,,AUTO             by=0,bit=0,n=1

     1970    19549    4   CLASS = 2 /* C_YESNO */ ;

  19549  4 011754   000002 235007                    LDA     2,DL
         4 011755   200162 755100                    STA     CLASS,,AUTO
         4 011756   015434 710000 4                  TRA     s:20217

     1971    19550
     1972    19551    4   SELECT ( 209 /* L_IDLE_TIM */ ) ;

     1973    19552
     1974    19553    4   IF DSEG1$ -> PRO$HDR.TTYP = %KLTY_LINK# THEN

  19553  4 011757   000000 470400 xsym               LDP0    DSEG1$
         4 011760   000100 101500                    MRL     fill='000'O
         4 011761   000000 000001                    ADSC9   0,,PR0                   cn=0,n=1
         4 011762   200366 000004                    ADSC9   TEMP+4,,AUTO             cn=0,n=4
         4 011763   200366 236100                    LDQ     TEMP+4,,AUTO
         4 011764   000004 116007                    CMPQ    4,DL
         4 011765   011775 601000 4                  TNZ     s:19556

     1975    19554    4      SBINS (SBIN_IDX) = LINK$ -> KL$LINK.IDLTIM# ;

  19554  4 011766   200077 235100                    LDA     SBIN_IDX,,AUTO
         4 011767   000002 735000                    ALS     2
         4 011770   000142 471400 2                  LDP1    LINK$
         4 011771   000105 101500                    MRL     fill='000'O
         4 011772   100002 000001                    ADSC9   2,,PR1                   cn=0,n=1
PL6.E3A0      #001=ASL$DISP_ONE_PROFILE File=ASL$L_PRO.:E05TSI                   TUE 07/29/97 10:26 Page:394
         4 011773   200007 000004                    ADSC9   SBINS,A,AUTO             cn=0,n=4
         4 011774   012003 710000 4                  TRA     s:19557

     1976    19555    4   ELSE
     1977    19556    4      SBINS (SBIN_IDX) = VIRCIR$ -> KL$VIRCIR.IDLTIM# ;

  19556  4 011775   200077 235100                    LDA     SBIN_IDX,,AUTO
         4 011776   000002 735000                    ALS     2
         4 011777   000143 471400 2                  LDP1    VIRCIR$
         4 012000   000105 101500                    MRL     fill='000'O
         4 012001   100002 200001                    ADSC9   2,,PR1                   cn=1,n=1
         4 012002   200007 000004                    ADSC9   SBINS,A,AUTO             cn=0,n=4

     1978    19557    4   CLASS = 12 /* C_SBIN */ ;

  19557  4 012003   000014 236007                    LDQ     12,DL
         4 012004   200162 756100                    STQ     CLASS,,AUTO
         4 012005   015434 710000 4                  TRA     s:20217

     1979    19558
     1980    19559    4   SELECT ( 208 /* L_INT_TIM */ );

     1981    19560
     1982    19561    4   SBINS(SBIN_IDX) = VIRCIR$ -> KL$VIRCIR.INTTIM#;

  19561  4 012006   200077 235100                    LDA     SBIN_IDX,,AUTO
         4 012007   000002 735000                    ALS     2
         4 012010   000143 470400 2                  LDP0    VIRCIR$
         4 012011   000105 101500                    MRL     fill='000'O
         4 012012   000002 000001                    ADSC9   2,,PR0                   cn=0,n=1
         4 012013   200007 000004                    ADSC9   SBINS,A,AUTO             cn=0,n=4

     1983    19562    4   CLASS = 12 /* C_SBIN */ ;

  19562  4 012014   000014 236007                    LDQ     12,DL
         4 012015   200162 756100                    STQ     CLASS,,AUTO
         4 012016   015434 710000 4                  TRA     s:20217
PL6.E3A0      #001=ASL$DISP_ONE_PROFILE File=ASL$L_PRO.:E05TSI                   TUE 07/29/97 10:26 Page:395

     1984    19563
     1985    19564
     1986    19565    4   SELECT ( 203 /* L_RESET_RETRYS */ );

     1987    19566
     1988    19567    4   SBINS(SBIN_IDX) = VIRCIR$ -> KL$VIRCIR.RESRET#;

  19567  4 012017   200077 235100                    LDA     SBIN_IDX,,AUTO
         4 012020   000002 735000                    ALS     2
         4 012021   000143 470400 2                  LDP0    VIRCIR$
         4 012022   000105 101500                    MRL     fill='000'O
         4 012023   000000 600001                    ADSC9   0,,PR0                   cn=3,n=1
         4 012024   200007 000004                    ADSC9   SBINS,A,AUTO             cn=0,n=4

     1989    19568    4   CLASS = 12 /* C_SBIN */ ;

  19568  4 012025   000014 236007                    LDQ     12,DL
         4 012026   200162 756100                    STQ     CLASS,,AUTO
         4 012027   015434 710000 4                  TRA     s:20217

     1990    19569
     1991    19570    4   SELECT ( 202 /* L_RESET_TIM */ );

     1992    19571
     1993    19572    4   SBINS(SBIN_IDX) = VIRCIR$ -> KL$VIRCIR.RESTIM#;

  19572  4 012030   200077 235100                    LDA     SBIN_IDX,,AUTO
         4 012031   000002 735000                    ALS     2
         4 012032   000143 470400 2                  LDP0    VIRCIR$
         4 012033   000105 101500                    MRL     fill='000'O
         4 012034   000000 400001                    ADSC9   0,,PR0                   cn=2,n=1
         4 012035   200007 000004                    ADSC9   SBINS,A,AUTO             cn=0,n=4

     1994    19573    4   CLASS = 12 /* C_SBIN */ ;

  19573  4 012036   000014 236007                    LDQ     12,DL
PL6.E3A0      #001=ASL$DISP_ONE_PROFILE File=ASL$L_PRO.:E05TSI                   TUE 07/29/97 10:26 Page:396
         4 012037   200162 756100                    STQ     CLASS,,AUTO
         4 012040   015434 710000 4                  TRA     s:20217

     1995    19574
     1996    19575    4   SELECT ( 121 /* RESTART_RETRYS */ );

     1997    19576
     1998    19577    4   SBINS(SBIN_IDX) = LINK$ -> KL$LINK.RESRTY#;

  19577  4 012041   200077 235100                    LDA     SBIN_IDX,,AUTO
         4 012042   000002 735000                    ALS     2
         4 012043   000142 470400 2                  LDP0    LINK$
         4 012044   000105 101500                    MRL     fill='000'O
         4 012045   000001 600001                    ADSC9   1,,PR0                   cn=3,n=1
         4 012046   200007 000004                    ADSC9   SBINS,A,AUTO             cn=0,n=4

     1999    19578    4   CLASS = 12 /* C_SBIN */ ;

  19578  4 012047   000014 236007                    LDQ     12,DL
         4 012050   200162 756100                    STQ     CLASS,,AUTO
         4 012051   015434 710000 4                  TRA     s:20217

     2000    19579
     2001    19580    4   SELECT ( 120 /* RESTART_TIM */ );

     2002    19581
     2003    19582    4   SBINS(SBIN_IDX) = LINK$ -> KL$LINK.RESTIM#;

  19582  4 012052   200077 235100                    LDA     SBIN_IDX,,AUTO
         4 012053   000002 735000                    ALS     2
         4 012054   000142 470400 2                  LDP0    LINK$
         4 012055   000105 101500                    MRL     fill='000'O
         4 012056   000001 400001                    ADSC9   1,,PR0                   cn=2,n=1
         4 012057   200007 000004                    ADSC9   SBINS,A,AUTO             cn=0,n=4

     2004    19583    4   CLASS = 12 /* C_SBIN */ ;

PL6.E3A0      #001=ASL$DISP_ONE_PROFILE File=ASL$L_PRO.:E05TSI                   TUE 07/29/97 10:26 Page:397
  19583  4 012060   000014 236007                    LDQ     12,DL
         4 012061   200162 756100                    STQ     CLASS,,AUTO
         4 012062   015434 710000 4                  TRA     s:20217

     2005    19584
     2006    19585    4   SELECT ( 201 /* L_TRANS_DEL */ );

     2007    19586
     2008    19587    4   SBINS(SBIN_IDX) = 0 ;

  19587  4 012063   200077 720100                    LXL0    SBIN_IDX,,AUTO
         4 012064   200007 450110                    STZ     SBINS,X0,AUTO

     2009    19588    4   SPLIT$ = ADDR (SBINS(SBIN_IDX)) ;

  19588  4 012065   200007 630510                    EPPR0   SBINS,X0,AUTO
         4 012066   200143 450500                    STP0    SPLIT$,,AUTO

     2010    19589    4   KL$UBWORD.NUM = BITBIN (VIRCIR$ -> KL$VIRCIR.TRADEL) ;

  19589  4 012067   000143 471400 2                  LDP1    VIRCIR$
         4 012070   000100 101500                    MRL     fill='000'O
         4 012071   100000 000002                    ADSC9   0,,PR1                   cn=0,n=2
         4 012072   200366 000004                    ADSC9   TEMP+4,,AUTO             cn=0,n=4
         4 012073   200366 236100                    LDQ     TEMP+4,,AUTO
         4 012074   000000 621006                    EAX1    0,QL
         4 012075   200005 441100                    SXL1    KL$UBWORD,,AUTO

     2011    19590    4   SPLIT$ -> KL$UWORD.T = KL$UBWORD.REPLACE.T ;

  19590  4 012076   200005 236100                    LDQ     KL$UBWORD,,AUTO
         4 012077   377000 376007                    ANQ     130560,DL
         4 012100   000001 772000                    QRL     1
         4 012101   000000 676100                    ERQ     0,,PR0
         4 012102   000033 376000 5                  ANQ     27
         4 012103   000000 656100                    ERSQ    0,,PR0

PL6.E3A0      #001=ASL$DISP_ONE_PROFILE File=ASL$L_PRO.:E05TSI                   TUE 07/29/97 10:26 Page:398
     2012    19591    4   SPLIT$ -> KL$UWORD.B = KL$UBWORD.REPLACE.B ;

  19591  4 012104   200005 236100                    LDQ     KL$UBWORD,,AUTO
         4 012105   000000 676100                    ERQ     0,,PR0
         4 012106   000377 376007                    ANQ     255,DL
         4 012107   000000 656100                    ERSQ    0,,PR0

     2013    19592    4   CLASS = 12 /* C_SBIN */ ;

  19592  4 012110   000014 235007                    LDA     12,DL
         4 012111   200162 755100                    STA     CLASS,,AUTO
         4 012112   015434 710000 4                  TRA     s:20217

     2014    19593
     2015    19594
     2016    19595
     2017    19596    4   SELECT( 169 /* RECEIVE SIZE */ ) ;

     2018    19597    5   DO SELECT( VIRCIR$ -> KL$VIRCIR.RCVSIZ#);

  19597  4 012113   000143 470400 2                  LDP0    VIRCIR$
         4 012114   003100 061500                    CSR     bolr='003'O
         4 012115   000003 410004                    BDSC    3,,PR0                   by=2,bit=1,n=4
         4 012116   200366 000044                    BDSC    TEMP+4,,AUTO             by=0,bit=0,n=36
         4 012117   200366 236100                    LDQ     TEMP+4,,AUTO
         4 012120   000003 116007                    CMPQ    3,DL
         4 012121   012141 602000 4                  TNC     s:19597+22
         4 012122   012216 600000 4                  TZE     s:19605
         4 012123   003100 061500                    CSR     bolr='003'O
         4 012124   000003 410004                    BDSC    3,,PR0                   by=2,bit=1,n=4
         4 012125   200367 000044                    BDSC    TEMP+5,,AUTO             by=0,bit=0,n=36
         4 012126   200367 236100                    LDQ     TEMP+5,,AUTO
         4 012127   000004 116007                    CMPQ    4,DL
         4 012130   012245 602000 4                  TNC     s:19611
         4 012131   012226 600000 4                  TZE     s:19607
         4 012132   003100 061500                    CSR     bolr='003'O
         4 012133   000003 410004                    BDSC    3,,PR0                   by=2,bit=1,n=4
PL6.E3A0      #001=ASL$DISP_ONE_PROFILE File=ASL$L_PRO.:E05TSI                   TUE 07/29/97 10:26 Page:399
         4 012134   200370 000044                    BDSC    TEMP+6,,AUTO             by=0,bit=0,n=36
         4 012135   200370 236100                    LDQ     TEMP+6,,AUTO
         4 012136   000005 116007                    CMPQ    5,DL
         4 012137   012245 601000 4                  TNZ     s:19611
         4 012140   012236 710000 4                  TRA     s:19609
         4 012141   003100 061500                    CSR     bolr='003'O
         4 012142   000003 410004                    BDSC    3,,PR0                   by=2,bit=1,n=4
         4 012143   200371 000044                    BDSC    TEMP+7,,AUTO             by=0,bit=0,n=36
         4 012144   200371 236100                    LDQ     TEMP+7,,AUTO
         4 012145   000001 116007                    CMPQ    1,DL
         4 012146   012157 602000 4                  TNC     s:19597+36
         4 012147   012176 600000 4                  TZE     s:19601
         4 012150   003100 061500                    CSR     bolr='003'O
         4 012151   000003 410004                    BDSC    3,,PR0                   by=2,bit=1,n=4
         4 012152   200372 000044                    BDSC    TEMP+8,,AUTO             by=0,bit=0,n=36
         4 012153   200372 236100                    LDQ     TEMP+8,,AUTO
         4 012154   000002 116007                    CMPQ    2,DL
         4 012155   012245 601000 4                  TNZ     s:19611
         4 012156   012206 710000 4                  TRA     s:19603
         4 012157   003100 061500                    CSR     bolr='003'O
         4 012160   000003 410004                    BDSC    3,,PR0                   by=2,bit=1,n=4
         4 012161   200373 000044                    BDSC    TEMP+9,,AUTO             by=0,bit=0,n=36
         4 012162   200373 236100                    LDQ     TEMP+9,,AUTO
         4 012163   000000 116003                    CMPQ    0,DU
         4 012164   012166 600000 4                  TZE     s:19599
         4 012165   012245 710000 4                  TRA     s:19611

     2019    19598    5      SELECT( %KLX25_SIZ_128# );

     2020    19599    5      FMT_VEC(FDS.NVECS#) = VECTOR(V128_STR);

  19599  4 012166   000011 235000 xsym               LDA     FDS+9
         4 012167   000001 735000                    ALS     1
         4 012170   000000 620005                    EAX0    0,AL
         4 012171   000000 621005                    EAX1    0,AL
         4 012172   000172 237000 5                  LDAQ    122
         4 012173   000000 755010 xsym               STA     FMT_VEC,X0
PL6.E3A0      #001=ASL$DISP_ONE_PROFILE File=ASL$L_PRO.:E05TSI                   TUE 07/29/97 10:26 Page:400
         4 012174   000001 756011 xsym               STQ     FMT_VEC+1,X1
         4 012175   012245 710000 4                  TRA     s:19611

     2021    19600    5      SELECT( %KLX25_SIZ_256# );

     2022    19601    5      FMT_VEC(FDS.NVECS#) = VECTOR(V256_STR);

  19601  4 012176   000011 235000 xsym               LDA     FDS+9
         4 012177   000001 735000                    ALS     1
         4 012200   000000 620005                    EAX0    0,AL
         4 012201   000000 621005                    EAX1    0,AL
         4 012202   000174 237000 5                  LDAQ    124
         4 012203   000000 755010 xsym               STA     FMT_VEC,X0
         4 012204   000001 756011 xsym               STQ     FMT_VEC+1,X1
         4 012205   012245 710000 4                  TRA     s:19611

     2023    19602    5      SELECT( %KLX25_SIZ_512# );

     2024    19603    5      FMT_VEC(FDS.NVECS#) = VECTOR(V512_STR);

  19603  4 012206   000011 235000 xsym               LDA     FDS+9
         4 012207   000001 735000                    ALS     1
         4 012210   000000 620005                    EAX0    0,AL
         4 012211   000000 621005                    EAX1    0,AL
         4 012212   000176 237000 5                  LDAQ    126
         4 012213   000000 755010 xsym               STA     FMT_VEC,X0
         4 012214   000001 756011 xsym               STQ     FMT_VEC+1,X1
         4 012215   012245 710000 4                  TRA     s:19611

     2025    19604    5      SELECT( %KLX25_SIZ_1024# );

     2026    19605    5      FMT_VEC(FDS.NVECS#) = VECTOR(V1024_STR);

  19605  4 012216   000011 235000 xsym               LDA     FDS+9
         4 012217   000001 735000                    ALS     1
         4 012220   000000 620005                    EAX0    0,AL
         4 012221   000000 621005                    EAX1    0,AL
PL6.E3A0      #001=ASL$DISP_ONE_PROFILE File=ASL$L_PRO.:E05TSI                   TUE 07/29/97 10:26 Page:401
         4 012222   000200 237000 5                  LDAQ    128
         4 012223   000000 755010 xsym               STA     FMT_VEC,X0
         4 012224   000001 756011 xsym               STQ     FMT_VEC+1,X1
         4 012225   012245 710000 4                  TRA     s:19611

     2027    19606    5      SELECT(%KLX25_SIZ_2048#);

     2028    19607    5      FMT_VEC(FDS.NVECS#) = VECTOR(V2048_STR);

  19607  4 012226   000011 235000 xsym               LDA     FDS+9
         4 012227   000001 735000                    ALS     1
         4 012230   000000 620005                    EAX0    0,AL
         4 012231   000000 621005                    EAX1    0,AL
         4 012232   000202 237000 5                  LDAQ    130
         4 012233   000000 755010 xsym               STA     FMT_VEC,X0
         4 012234   000001 756011 xsym               STQ     FMT_VEC+1,X1
         4 012235   012245 710000 4                  TRA     s:19611

     2029    19608    5      SELECT(%KLX25_SIZ_4096#);

     2030    19609    5      FMT_VEC(FDS.NVECS#) = VECTOR(V4096_STR);

  19609  4 012236   000011 235000 xsym               LDA     FDS+9
         4 012237   000001 735000                    ALS     1
         4 012240   000000 620005                    EAX0    0,AL
         4 012241   000000 621005                    EAX1    0,AL
         4 012242   000204 237000 5                  LDAQ    132
         4 012243   000000 755010 xsym               STA     FMT_VEC,X0
         4 012244   000001 756011 xsym               STQ     FMT_VEC+1,X1

     2031    19610    5      END;

     2032    19611    4   CLASS = 1 /* C_TEXT */ ;

  19611  4 012245   000001 235007                    LDA     1,DL
         4 012246   200162 755100                    STA     CLASS,,AUTO
         4 012247   015434 710000 4                  TRA     s:20217
PL6.E3A0      #001=ASL$DISP_ONE_PROFILE File=ASL$L_PRO.:E05TSI                   TUE 07/29/97 10:26 Page:402

     2033    19612
     2034    19613    4   SELECT( 170 /* RECEIVE THROUGHPUT */ );

     2035    19614    5   DO SELECT( VIRCIR$ -> KL$VIRCIR.RCVTHR#);

  19614  4 012250   000143 470400 2                  LDP0    VIRCIR$
         4 012251   003100 061500                    CSR     bolr='003'O
         4 012252   000003 450004                    BDSC    3,,PR0                   by=2,bit=5,n=4
         4 012253   200366 000044                    BDSC    TEMP+4,,AUTO             by=0,bit=0,n=36
         4 012254   200366 236100                    LDQ     TEMP+4,,AUTO
         4 012255   000003 116007                    CMPQ    3,DL
         4 012256   012342 602000 4                  TNC     s:19614+58
         4 012257   012417 600000 4                  TZE     s:19622
         4 012260   003100 061500                    CSR     bolr='003'O
         4 012261   000003 450004                    BDSC    3,,PR0                   by=2,bit=5,n=4
         4 012262   200367 000044                    BDSC    TEMP+5,,AUTO             by=0,bit=0,n=36
         4 012263   200367 236100                    LDQ     TEMP+5,,AUTO
         4 012264   000007 116007                    CMPQ    7,DL
         4 012265   012315 602000 4                  TNC     s:19614+37
         4 012266   012457 600000 4                  TZE     s:19630
         4 012267   003100 061500                    CSR     bolr='003'O
         4 012270   000003 450004                    BDSC    3,,PR0                   by=2,bit=5,n=4
         4 012271   200370 000044                    BDSC    TEMP+6,,AUTO             by=0,bit=0,n=36
         4 012272   200370 236100                    LDQ     TEMP+6,,AUTO
         4 012273   000011 116007                    CMPQ    9,DL
         4 012274   012305 602000 4                  TNC     s:19614+29
         4 012275   012477 600000 4                  TZE     s:19634
         4 012276   003100 061500                    CSR     bolr='003'O
         4 012277   000003 450004                    BDSC    3,,PR0                   by=2,bit=5,n=4
         4 012300   200371 000044                    BDSC    TEMP+7,,AUTO             by=0,bit=0,n=36
         4 012301   200371 236100                    LDQ     TEMP+7,,AUTO
         4 012302   000012 116007                    CMPQ    10,DL
         4 012303   012516 601000 4                  TNZ     s:19638
         4 012304   012507 710000 4                  TRA     s:19636
         4 012305   000143 470400 2                  LDP0    VIRCIR$
         4 012306   003100 061500                    CSR     bolr='003'O
PL6.E3A0      #001=ASL$DISP_ONE_PROFILE File=ASL$L_PRO.:E05TSI                   TUE 07/29/97 10:26 Page:403
         4 012307   000003 450004                    BDSC    3,,PR0                   by=2,bit=5,n=4
         4 012310   200372 000044                    BDSC    TEMP+8,,AUTO             by=0,bit=0,n=36
         4 012311   200372 236100                    LDQ     TEMP+8,,AUTO
         4 012312   000010 116007                    CMPQ    8,DL
         4 012313   012516 601000 4                  TNZ     s:19638
         4 012314   012467 710000 4                  TRA     s:19632
         4 012315   003100 061500                    CSR     bolr='003'O
         4 012316   000003 450004                    BDSC    3,,PR0                   by=2,bit=5,n=4
         4 012317   200373 000044                    BDSC    TEMP+9,,AUTO             by=0,bit=0,n=36
         4 012320   200373 236100                    LDQ     TEMP+9,,AUTO
         4 012321   000005 116007                    CMPQ    5,DL
         4 012322   012333 602000 4                  TNC     s:19614+51
         4 012323   012437 600000 4                  TZE     s:19626
         4 012324   003100 061500                    CSR     bolr='003'O
         4 012325   000003 450004                    BDSC    3,,PR0                   by=2,bit=5,n=4
         4 012326   200374 000044                    BDSC    TEMP+10,,AUTO            by=0,bit=0,n=36
         4 012327   200374 236100                    LDQ     TEMP+10,,AUTO
         4 012330   000006 116007                    CMPQ    6,DL
         4 012331   012516 601000 4                  TNZ     s:19638
         4 012332   012447 710000 4                  TRA     s:19628
         4 012333   003100 061500                    CSR     bolr='003'O
         4 012334   000003 450004                    BDSC    3,,PR0                   by=2,bit=5,n=4
         4 012335   200375 000044                    BDSC    TEMP+11,,AUTO            by=0,bit=0,n=36
         4 012336   200375 236100                    LDQ     TEMP+11,,AUTO
         4 012337   000004 116007                    CMPQ    4,DL
         4 012340   012516 601000 4                  TNZ     s:19638
         4 012341   012427 710000 4                  TRA     s:19624
         4 012342   003100 061500                    CSR     bolr='003'O
         4 012343   000003 450004                    BDSC    3,,PR0                   by=2,bit=5,n=4
         4 012344   200376 000044                    BDSC    TEMP+12,,AUTO            by=0,bit=0,n=36
         4 012345   200376 236100                    LDQ     TEMP+12,,AUTO
         4 012346   000001 116007                    CMPQ    1,DL
         4 012347   012360 602000 4                  TNC     s:19614+72
         4 012350   012377 600000 4                  TZE     s:19618
         4 012351   003100 061500                    CSR     bolr='003'O
         4 012352   000003 450004                    BDSC    3,,PR0                   by=2,bit=5,n=4
         4 012353   200377 000044                    BDSC    TEMP+13,,AUTO            by=0,bit=0,n=36
PL6.E3A0      #001=ASL$DISP_ONE_PROFILE File=ASL$L_PRO.:E05TSI                   TUE 07/29/97 10:26 Page:404
         4 012354   200377 236100                    LDQ     TEMP+13,,AUTO
         4 012355   000002 116007                    CMPQ    2,DL
         4 012356   012516 601000 4                  TNZ     s:19638
         4 012357   012407 710000 4                  TRA     s:19620
         4 012360   003100 061500                    CSR     bolr='003'O
         4 012361   000003 450004                    BDSC    3,,PR0                   by=2,bit=5,n=4
         4 012362   200400 000044                    BDSC    TEMP+14,,AUTO            by=0,bit=0,n=36
         4 012363   200400 236100                    LDQ     TEMP+14,,AUTO
         4 012364   000000 116003                    CMPQ    0,DU
         4 012365   012367 600000 4                  TZE     s:19616
         4 012366   012516 710000 4                  TRA     s:19638

     2036    19615    5      SELECT( %KLX25_THR_NONE# );

     2037    19616    5      FMT_VEC(FDS.NVECS#) = VECTOR(NONE_STR);

  19616  4 012367   000011 235000 xsym               LDA     FDS+9
         4 012370   000001 735000                    ALS     1
         4 012371   000000 620005                    EAX0    0,AL
         4 012372   000000 621005                    EAX1    0,AL
         4 012373   000100 237000 5                  LDAQ    64
         4 012374   000000 755010 xsym               STA     FMT_VEC,X0
         4 012375   000001 756011 xsym               STQ     FMT_VEC+1,X1
         4 012376   012516 710000 4                  TRA     s:19638

     2038    19617    5      SELECT( %KLX25_THR_75# );

     2039    19618    5      FMT_VEC(FDS.NVECS#) = VECTOR(VC75_STR);

  19618  4 012377   000011 235000 xsym               LDA     FDS+9
         4 012400   000001 735000                    ALS     1
         4 012401   000000 620005                    EAX0    0,AL
         4 012402   000000 621005                    EAX1    0,AL
         4 012403   000040 237000 5                  LDAQ    32
         4 012404   000000 755010 xsym               STA     FMT_VEC,X0
         4 012405   000001 756011 xsym               STQ     FMT_VEC+1,X1
         4 012406   012516 710000 4                  TRA     s:19638
PL6.E3A0      #001=ASL$DISP_ONE_PROFILE File=ASL$L_PRO.:E05TSI                   TUE 07/29/97 10:26 Page:405

     2040    19619    5      SELECT( %KLX25_THR_150# );

     2041    19620    5      FMT_VEC(FDS.NVECS#) = VECTOR(VC150_STR);

  19620  4 012407   000011 235000 xsym               LDA     FDS+9
         4 012410   000001 735000                    ALS     1
         4 012411   000000 620005                    EAX0    0,AL
         4 012412   000000 621005                    EAX1    0,AL
         4 012413   000046 237000 5                  LDAQ    38
         4 012414   000000 755010 xsym               STA     FMT_VEC,X0
         4 012415   000001 756011 xsym               STQ     FMT_VEC+1,X1
         4 012416   012516 710000 4                  TRA     s:19638

     2042    19621    5      SELECT( %KLX25_THR_300# );

     2043    19622    5      FMT_VEC(FDS.NVECS#) = VECTOR(VC300_STR);

  19622  4 012417   000011 235000 xsym               LDA     FDS+9
         4 012420   000001 735000                    ALS     1
         4 012421   000000 620005                    EAX0    0,AL
         4 012422   000000 621005                    EAX1    0,AL
         4 012423   000052 237000 5                  LDAQ    42
         4 012424   000000 755010 xsym               STA     FMT_VEC,X0
         4 012425   000001 756011 xsym               STQ     FMT_VEC+1,X1
         4 012426   012516 710000 4                  TRA     s:19638

     2044    19623    5      SELECT( %KLX25_THR_600# );

     2045    19624    5      FMT_VEC(FDS.NVECS#) = VECTOR(VC600_STR);

  19624  4 012427   000011 235000 xsym               LDA     FDS+9
         4 012430   000001 735000                    ALS     1
         4 012431   000000 620005                    EAX0    0,AL
         4 012432   000000 621005                    EAX1    0,AL
         4 012433   000054 237000 5                  LDAQ    44
         4 012434   000000 755010 xsym               STA     FMT_VEC,X0
PL6.E3A0      #001=ASL$DISP_ONE_PROFILE File=ASL$L_PRO.:E05TSI                   TUE 07/29/97 10:26 Page:406
         4 012435   000001 756011 xsym               STQ     FMT_VEC+1,X1
         4 012436   012516 710000 4                  TRA     s:19638

     2046    19625    5      SELECT( %KLX25_THR_1200# );

     2047    19626    5      FMT_VEC(FDS.NVECS#) = VECTOR(VC1200_STR);

  19626  4 012437   000011 235000 xsym               LDA     FDS+9
         4 012440   000001 735000                    ALS     1
         4 012441   000000 620005                    EAX0    0,AL
         4 012442   000000 621005                    EAX1    0,AL
         4 012443   000060 237000 5                  LDAQ    48
         4 012444   000000 755010 xsym               STA     FMT_VEC,X0
         4 012445   000001 756011 xsym               STQ     FMT_VEC+1,X1
         4 012446   012516 710000 4                  TRA     s:19638

     2048    19627    5      SELECT( %KLX25_THR_2400# );

     2049    19628    5      FMT_VEC(FDS.NVECS#) = VECTOR(VC2400_STR);

  19628  4 012447   000011 235000 xsym               LDA     FDS+9
         4 012450   000001 735000                    ALS     1
         4 012451   000000 620005                    EAX0    0,AL
         4 012452   000000 621005                    EAX1    0,AL
         4 012453   000066 237000 5                  LDAQ    54
         4 012454   000000 755010 xsym               STA     FMT_VEC,X0
         4 012455   000001 756011 xsym               STQ     FMT_VEC+1,X1
         4 012456   012516 710000 4                  TRA     s:19638

     2050    19629    5      SELECT( %KLX25_THR_4800# );

     2051    19630    5      FMT_VEC(FDS.NVECS#) = VECTOR(VC4800_STR);

  19630  4 012457   000011 235000 xsym               LDA     FDS+9
         4 012460   000001 735000                    ALS     1
         4 012461   000000 620005                    EAX0    0,AL
         4 012462   000000 621005                    EAX1    0,AL
PL6.E3A0      #001=ASL$DISP_ONE_PROFILE File=ASL$L_PRO.:E05TSI                   TUE 07/29/97 10:26 Page:407
         4 012463   000070 237000 5                  LDAQ    56
         4 012464   000000 755010 xsym               STA     FMT_VEC,X0
         4 012465   000001 756011 xsym               STQ     FMT_VEC+1,X1
         4 012466   012516 710000 4                  TRA     s:19638

     2052    19631    5      SELECT( %KLX25_THR_9600# );

     2053    19632    5      FMT_VEC(FDS.NVECS#) = VECTOR(VC9600_STR);

  19632  4 012467   000011 235000 xsym               LDA     FDS+9
         4 012470   000001 735000                    ALS     1
         4 012471   000000 620005                    EAX0    0,AL
         4 012472   000000 621005                    EAX1    0,AL
         4 012473   000072 237000 5                  LDAQ    58
         4 012474   000000 755010 xsym               STA     FMT_VEC,X0
         4 012475   000001 756011 xsym               STQ     FMT_VEC+1,X1
         4 012476   012516 710000 4                  TRA     s:19638

     2054    19633    5      SELECT( %KLX25_THR_19200# );

     2055    19634    5      FMT_VEC(FDS.NVECS#) = VECTOR(VC19200_STR);

  19634  4 012477   000011 235000 xsym               LDA     FDS+9
         4 012500   000001 735000                    ALS     1
         4 012501   000000 620005                    EAX0    0,AL
         4 012502   000000 621005                    EAX1    0,AL
         4 012503   000074 237000 5                  LDAQ    60
         4 012504   000000 755010 xsym               STA     FMT_VEC,X0
         4 012505   000001 756011 xsym               STQ     FMT_VEC+1,X1
         4 012506   012516 710000 4                  TRA     s:19638

     2056    19635    5      SELECT( %KLX25_THR_48000# );

     2057    19636    5      FMT_VEC(FDS.NVECS#) = VECTOR(VC48000_STR);

  19636  4 012507   000011 235000 xsym               LDA     FDS+9
         4 012510   000001 735000                    ALS     1
PL6.E3A0      #001=ASL$DISP_ONE_PROFILE File=ASL$L_PRO.:E05TSI                   TUE 07/29/97 10:26 Page:408
         4 012511   000000 620005                    EAX0    0,AL
         4 012512   000000 621005                    EAX1    0,AL
         4 012513   000216 237000 5                  LDAQ    142
         4 012514   000000 755010 xsym               STA     FMT_VEC,X0
         4 012515   000001 756011 xsym               STQ     FMT_VEC+1,X1

     2058    19637    5      END ;

     2059    19638    4   CLASS = 1 /* C_TEXT */ ;

  19638  4 012516   000001 235007                    LDA     1,DL
         4 012517   200162 755100                    STA     CLASS,,AUTO
         4 012520   015434 710000 4                  TRA     s:20217

     2060    19639    4   SELECT( 171 /* RECEIVE WINDOW */ );

     2061    19640    4   SBINS( SBIN_IDX ) = VIRCIR$ -> KL$VIRCIR.RCVWND# ;

  19640  4 012521   200077 236100                    LDQ     SBIN_IDX,,AUTO
         4 012522   000044 402007                    MPY     36,DL
         4 012523   000000 116003                    CMPQ    0,DU
         4 012524   012526 605000 4                  TPL     s:19640+5
         4 012525   000044 036003                    ADLQ    36,DU
         4 012526   000143 470400 2                  LDP0    VIRCIR$
         4 012527   003106 061500                    CSR     bolr='003'O
         4 012530   000003 620007                    BDSC    3,,PR0                   by=3,bit=2,n=7
         4 012531   200007 000044                    BDSC    SBINS,Q,AUTO             by=0,bit=0,n=36

     2062    19641    4   CLASS = 12 /* C_SBIN */ ;

  19641  4 012532   000014 235007                    LDA     12,DL
         4 012533   200162 755100                    STA     CLASS,,AUTO
         4 012534   015434 710000 4                  TRA     s:20217

     2063    19642    4   SELECT( 172 /* RESPOND TO COMPLETE */ ) ;

     2064    19643    4   YES_NO = VIRCIR$ -> KL$VIRCIR.RSPTOCMP# ;
PL6.E3A0      #001=ASL$DISP_ONE_PROFILE File=ASL$L_PRO.:E05TSI                   TUE 07/29/97 10:26 Page:409

  19643  4 012535   000143 470400 2                  LDP0    VIRCIR$
         4 012536   003100 060500                    CSL     bolr='003'O
         4 012537   000003 610001                    BDSC    3,,PR0                   by=3,bit=1,n=1
         4 012540   200165 000001                    BDSC    YES_NO,,AUTO             by=0,bit=0,n=1

     2065    19644    4   CLASS = 2 /* C_YESNO */;

  19644  4 012541   000002 235007                    LDA     2,DL
         4 012542   200162 755100                    STA     CLASS,,AUTO
         4 012543   015434 710000 4                  TRA     s:20217

     2066    19645
     2067    19646    4   SELECT( 173 /* SEND SIZE */ ) ;

     2068    19647    5   DO SELECT( VIRCIR$ -> KL$VIRCIR.SNDSIZ#);

  19647  4 012544   000143 470400 2                  LDP0    VIRCIR$
         4 012545   003100 061500                    CSR     bolr='003'O
         4 012546   000004 250004                    BDSC    4,,PR0                   by=1,bit=5,n=4
         4 012547   200366 000044                    BDSC    TEMP+4,,AUTO             by=0,bit=0,n=36
         4 012550   200366 236100                    LDQ     TEMP+4,,AUTO
         4 012551   000003 116007                    CMPQ    3,DL
         4 012552   012572 602000 4                  TNC     s:19647+22
         4 012553   012647 600000 4                  TZE     s:19655
         4 012554   003100 061500                    CSR     bolr='003'O
         4 012555   000004 250004                    BDSC    4,,PR0                   by=1,bit=5,n=4
         4 012556   200367 000044                    BDSC    TEMP+5,,AUTO             by=0,bit=0,n=36
         4 012557   200367 236100                    LDQ     TEMP+5,,AUTO
         4 012560   000004 116007                    CMPQ    4,DL
         4 012561   012676 602000 4                  TNC     s:19661
         4 012562   012657 600000 4                  TZE     s:19657
         4 012563   003100 061500                    CSR     bolr='003'O
         4 012564   000004 250004                    BDSC    4,,PR0                   by=1,bit=5,n=4
         4 012565   200370 000044                    BDSC    TEMP+6,,AUTO             by=0,bit=0,n=36
         4 012566   200370 236100                    LDQ     TEMP+6,,AUTO
         4 012567   000005 116007                    CMPQ    5,DL
PL6.E3A0      #001=ASL$DISP_ONE_PROFILE File=ASL$L_PRO.:E05TSI                   TUE 07/29/97 10:26 Page:410
         4 012570   012676 601000 4                  TNZ     s:19661
         4 012571   012667 710000 4                  TRA     s:19659
         4 012572   003100 061500                    CSR     bolr='003'O
         4 012573   000004 250004                    BDSC    4,,PR0                   by=1,bit=5,n=4
         4 012574   200371 000044                    BDSC    TEMP+7,,AUTO             by=0,bit=0,n=36
         4 012575   200371 236100                    LDQ     TEMP+7,,AUTO
         4 012576   000001 116007                    CMPQ    1,DL
         4 012577   012610 602000 4                  TNC     s:19647+36
         4 012600   012627 600000 4                  TZE     s:19651
         4 012601   003100 061500                    CSR     bolr='003'O
         4 012602   000004 250004                    BDSC    4,,PR0                   by=1,bit=5,n=4
         4 012603   200372 000044                    BDSC    TEMP+8,,AUTO             by=0,bit=0,n=36
         4 012604   200372 236100                    LDQ     TEMP+8,,AUTO
         4 012605   000002 116007                    CMPQ    2,DL
         4 012606   012676 601000 4                  TNZ     s:19661
         4 012607   012637 710000 4                  TRA     s:19653
         4 012610   003100 061500                    CSR     bolr='003'O
         4 012611   000004 250004                    BDSC    4,,PR0                   by=1,bit=5,n=4
         4 012612   200373 000044                    BDSC    TEMP+9,,AUTO             by=0,bit=0,n=36
         4 012613   200373 236100                    LDQ     TEMP+9,,AUTO
         4 012614   000000 116003                    CMPQ    0,DU
         4 012615   012617 600000 4                  TZE     s:19649
         4 012616   012676 710000 4                  TRA     s:19661

     2069    19648    5      SELECT( %KLX25_SIZ_128# );

     2070    19649    5      FMT_VEC(FDS.NVECS#) = VECTOR(V128_STR);

  19649  4 012617   000011 235000 xsym               LDA     FDS+9
         4 012620   000001 735000                    ALS     1
         4 012621   000000 620005                    EAX0    0,AL
         4 012622   000000 621005                    EAX1    0,AL
         4 012623   000172 237000 5                  LDAQ    122
         4 012624   000000 755010 xsym               STA     FMT_VEC,X0
         4 012625   000001 756011 xsym               STQ     FMT_VEC+1,X1
         4 012626   012676 710000 4                  TRA     s:19661

PL6.E3A0      #001=ASL$DISP_ONE_PROFILE File=ASL$L_PRO.:E05TSI                   TUE 07/29/97 10:26 Page:411
     2071    19650    5      SELECT( %KLX25_SIZ_256# );

     2072    19651    5      FMT_VEC(FDS.NVECS#) = VECTOR(V256_STR);

  19651  4 012627   000011 235000 xsym               LDA     FDS+9
         4 012630   000001 735000                    ALS     1
         4 012631   000000 620005                    EAX0    0,AL
         4 012632   000000 621005                    EAX1    0,AL
         4 012633   000174 237000 5                  LDAQ    124
         4 012634   000000 755010 xsym               STA     FMT_VEC,X0
         4 012635   000001 756011 xsym               STQ     FMT_VEC+1,X1
         4 012636   012676 710000 4                  TRA     s:19661

     2073    19652    5      SELECT( %KLX25_SIZ_512# );

     2074    19653    5      FMT_VEC(FDS.NVECS#) = VECTOR(V512_STR);

  19653  4 012637   000011 235000 xsym               LDA     FDS+9
         4 012640   000001 735000                    ALS     1
         4 012641   000000 620005                    EAX0    0,AL
         4 012642   000000 621005                    EAX1    0,AL
         4 012643   000176 237000 5                  LDAQ    126
         4 012644   000000 755010 xsym               STA     FMT_VEC,X0
         4 012645   000001 756011 xsym               STQ     FMT_VEC+1,X1
         4 012646   012676 710000 4                  TRA     s:19661

     2075    19654    5      SELECT( %KLX25_SIZ_1024# );

     2076    19655    5      FMT_VEC(FDS.NVECS#) = VECTOR(V1024_STR);

  19655  4 012647   000011 235000 xsym               LDA     FDS+9
         4 012650   000001 735000                    ALS     1
         4 012651   000000 620005                    EAX0    0,AL
         4 012652   000000 621005                    EAX1    0,AL
         4 012653   000200 237000 5                  LDAQ    128
         4 012654   000000 755010 xsym               STA     FMT_VEC,X0
         4 012655   000001 756011 xsym               STQ     FMT_VEC+1,X1
PL6.E3A0      #001=ASL$DISP_ONE_PROFILE File=ASL$L_PRO.:E05TSI                   TUE 07/29/97 10:26 Page:412
         4 012656   012676 710000 4                  TRA     s:19661

     2077    19656    5      SELECT(%KLX25_SIZ_2048#);

     2078    19657    5      FMT_VEC(FDS.NVECS#) = VECTOR(V2048_STR);

  19657  4 012657   000011 235000 xsym               LDA     FDS+9
         4 012660   000001 735000                    ALS     1
         4 012661   000000 620005                    EAX0    0,AL
         4 012662   000000 621005                    EAX1    0,AL
         4 012663   000202 237000 5                  LDAQ    130
         4 012664   000000 755010 xsym               STA     FMT_VEC,X0
         4 012665   000001 756011 xsym               STQ     FMT_VEC+1,X1
         4 012666   012676 710000 4                  TRA     s:19661

     2079    19658    5      SELECT(%KLX25_SIZ_4096#);

     2080    19659    5      FMT_VEC(FDS.NVECS#) = VECTOR(V4096_STR);

  19659  4 012667   000011 235000 xsym               LDA     FDS+9
         4 012670   000001 735000                    ALS     1
         4 012671   000000 620005                    EAX0    0,AL
         4 012672   000000 621005                    EAX1    0,AL
         4 012673   000204 237000 5                  LDAQ    132
         4 012674   000000 755010 xsym               STA     FMT_VEC,X0
         4 012675   000001 756011 xsym               STQ     FMT_VEC+1,X1

     2081    19660    5      END;

     2082    19661    4   CLASS = 1 /* C_TEXT */ ;

  19661  4 012676   000001 235007                    LDA     1,DL
         4 012677   200162 755100                    STA     CLASS,,AUTO
         4 012700   015434 710000 4                  TRA     s:20217

     2083    19662
     2084    19663    4   SELECT( 174 /* SEND THROUGHPUT */ );
PL6.E3A0      #001=ASL$DISP_ONE_PROFILE File=ASL$L_PRO.:E05TSI                   TUE 07/29/97 10:26 Page:413

     2085    19664    5   DO SELECT( VIRCIR$ -> KL$VIRCIR.SNDTHR#);

  19664  4 012701   000143 470400 2                  LDP0    VIRCIR$
         4 012702   003100 061500                    CSR     bolr='003'O
         4 012703   000004 210004                    BDSC    4,,PR0                   by=1,bit=1,n=4
         4 012704   200366 000044                    BDSC    TEMP+4,,AUTO             by=0,bit=0,n=36
         4 012705   200366 236100                    LDQ     TEMP+4,,AUTO
         4 012706   000003 116007                    CMPQ    3,DL
         4 012707   012773 602000 4                  TNC     s:19664+58
         4 012710   013050 600000 4                  TZE     s:19672
         4 012711   003100 061500                    CSR     bolr='003'O
         4 012712   000004 210004                    BDSC    4,,PR0                   by=1,bit=1,n=4
         4 012713   200367 000044                    BDSC    TEMP+5,,AUTO             by=0,bit=0,n=36
         4 012714   200367 236100                    LDQ     TEMP+5,,AUTO
         4 012715   000007 116007                    CMPQ    7,DL
         4 012716   012746 602000 4                  TNC     s:19664+37
         4 012717   013110 600000 4                  TZE     s:19680
         4 012720   003100 061500                    CSR     bolr='003'O
         4 012721   000004 210004                    BDSC    4,,PR0                   by=1,bit=1,n=4
         4 012722   200370 000044                    BDSC    TEMP+6,,AUTO             by=0,bit=0,n=36
         4 012723   200370 236100                    LDQ     TEMP+6,,AUTO
         4 012724   000011 116007                    CMPQ    9,DL
         4 012725   012736 602000 4                  TNC     s:19664+29
         4 012726   013130 600000 4                  TZE     s:19684
         4 012727   003100 061500                    CSR     bolr='003'O
         4 012730   000004 210004                    BDSC    4,,PR0                   by=1,bit=1,n=4
         4 012731   200371 000044                    BDSC    TEMP+7,,AUTO             by=0,bit=0,n=36
         4 012732   200371 236100                    LDQ     TEMP+7,,AUTO
         4 012733   000012 116007                    CMPQ    10,DL
         4 012734   013147 601000 4                  TNZ     s:19688
         4 012735   013140 710000 4                  TRA     s:19686
         4 012736   000143 470400 2                  LDP0    VIRCIR$
         4 012737   003100 061500                    CSR     bolr='003'O
         4 012740   000004 210004                    BDSC    4,,PR0                   by=1,bit=1,n=4
         4 012741   200372 000044                    BDSC    TEMP+8,,AUTO             by=0,bit=0,n=36
         4 012742   200372 236100                    LDQ     TEMP+8,,AUTO
PL6.E3A0      #001=ASL$DISP_ONE_PROFILE File=ASL$L_PRO.:E05TSI                   TUE 07/29/97 10:26 Page:414
         4 012743   000010 116007                    CMPQ    8,DL
         4 012744   013147 601000 4                  TNZ     s:19688
         4 012745   013120 710000 4                  TRA     s:19682
         4 012746   003100 061500                    CSR     bolr='003'O
         4 012747   000004 210004                    BDSC    4,,PR0                   by=1,bit=1,n=4
         4 012750   200373 000044                    BDSC    TEMP+9,,AUTO             by=0,bit=0,n=36
         4 012751   200373 236100                    LDQ     TEMP+9,,AUTO
         4 012752   000005 116007                    CMPQ    5,DL
         4 012753   012764 602000 4                  TNC     s:19664+51
         4 012754   013070 600000 4                  TZE     s:19676
         4 012755   003100 061500                    CSR     bolr='003'O
         4 012756   000004 210004                    BDSC    4,,PR0                   by=1,bit=1,n=4
         4 012757   200374 000044                    BDSC    TEMP+10,,AUTO            by=0,bit=0,n=36
         4 012760   200374 236100                    LDQ     TEMP+10,,AUTO
         4 012761   000006 116007                    CMPQ    6,DL
         4 012762   013147 601000 4                  TNZ     s:19688
         4 012763   013100 710000 4                  TRA     s:19678
         4 012764   003100 061500                    CSR     bolr='003'O
         4 012765   000004 210004                    BDSC    4,,PR0                   by=1,bit=1,n=4
         4 012766   200375 000044                    BDSC    TEMP+11,,AUTO            by=0,bit=0,n=36
         4 012767   200375 236100                    LDQ     TEMP+11,,AUTO
         4 012770   000004 116007                    CMPQ    4,DL
         4 012771   013147 601000 4                  TNZ     s:19688
         4 012772   013060 710000 4                  TRA     s:19674
         4 012773   003100 061500                    CSR     bolr='003'O
         4 012774   000004 210004                    BDSC    4,,PR0                   by=1,bit=1,n=4
         4 012775   200376 000044                    BDSC    TEMP+12,,AUTO            by=0,bit=0,n=36
         4 012776   200376 236100                    LDQ     TEMP+12,,AUTO
         4 012777   000001 116007                    CMPQ    1,DL
         4 013000   013011 602000 4                  TNC     s:19664+72
         4 013001   013030 600000 4                  TZE     s:19668
         4 013002   003100 061500                    CSR     bolr='003'O
         4 013003   000004 210004                    BDSC    4,,PR0                   by=1,bit=1,n=4
         4 013004   200377 000044                    BDSC    TEMP+13,,AUTO            by=0,bit=0,n=36
         4 013005   200377 236100                    LDQ     TEMP+13,,AUTO
         4 013006   000002 116007                    CMPQ    2,DL
         4 013007   013147 601000 4                  TNZ     s:19688
PL6.E3A0      #001=ASL$DISP_ONE_PROFILE File=ASL$L_PRO.:E05TSI                   TUE 07/29/97 10:26 Page:415
         4 013010   013040 710000 4                  TRA     s:19670
         4 013011   003100 061500                    CSR     bolr='003'O
         4 013012   000004 210004                    BDSC    4,,PR0                   by=1,bit=1,n=4
         4 013013   200400 000044                    BDSC    TEMP+14,,AUTO            by=0,bit=0,n=36
         4 013014   200400 236100                    LDQ     TEMP+14,,AUTO
         4 013015   000000 116003                    CMPQ    0,DU
         4 013016   013020 600000 4                  TZE     s:19666
         4 013017   013147 710000 4                  TRA     s:19688

     2086    19665    5      SELECT( %KLX25_THR_NONE# );

     2087    19666    5      FMT_VEC(FDS.NVECS#) = VECTOR(NONE_STR);

  19666  4 013020   000011 235000 xsym               LDA     FDS+9
         4 013021   000001 735000                    ALS     1
         4 013022   000000 620005                    EAX0    0,AL
         4 013023   000000 621005                    EAX1    0,AL
         4 013024   000100 237000 5                  LDAQ    64
         4 013025   000000 755010 xsym               STA     FMT_VEC,X0
         4 013026   000001 756011 xsym               STQ     FMT_VEC+1,X1
         4 013027   013147 710000 4                  TRA     s:19688

     2088    19667    5      SELECT( %KLX25_THR_75# );

     2089    19668    5      FMT_VEC(FDS.NVECS#) = VECTOR(VC75_STR);

  19668  4 013030   000011 235000 xsym               LDA     FDS+9
         4 013031   000001 735000                    ALS     1
         4 013032   000000 620005                    EAX0    0,AL
         4 013033   000000 621005                    EAX1    0,AL
         4 013034   000040 237000 5                  LDAQ    32
         4 013035   000000 755010 xsym               STA     FMT_VEC,X0
         4 013036   000001 756011 xsym               STQ     FMT_VEC+1,X1
         4 013037   013147 710000 4                  TRA     s:19688

     2090    19669    5      SELECT( %KLX25_THR_150# );

PL6.E3A0      #001=ASL$DISP_ONE_PROFILE File=ASL$L_PRO.:E05TSI                   TUE 07/29/97 10:26 Page:416
     2091    19670    5      FMT_VEC(FDS.NVECS#) = VECTOR(VC150_STR);

  19670  4 013040   000011 235000 xsym               LDA     FDS+9
         4 013041   000001 735000                    ALS     1
         4 013042   000000 620005                    EAX0    0,AL
         4 013043   000000 621005                    EAX1    0,AL
         4 013044   000046 237000 5                  LDAQ    38
         4 013045   000000 755010 xsym               STA     FMT_VEC,X0
         4 013046   000001 756011 xsym               STQ     FMT_VEC+1,X1
         4 013047   013147 710000 4                  TRA     s:19688

     2092    19671    5      SELECT( %KLX25_THR_300# );

     2093    19672    5      FMT_VEC(FDS.NVECS#) = VECTOR(VC300_STR);

  19672  4 013050   000011 235000 xsym               LDA     FDS+9
         4 013051   000001 735000                    ALS     1
         4 013052   000000 620005                    EAX0    0,AL
         4 013053   000000 621005                    EAX1    0,AL
         4 013054   000052 237000 5                  LDAQ    42
         4 013055   000000 755010 xsym               STA     FMT_VEC,X0
         4 013056   000001 756011 xsym               STQ     FMT_VEC+1,X1
         4 013057   013147 710000 4                  TRA     s:19688

     2094    19673    5      SELECT( %KLX25_THR_600# );

     2095    19674    5      FMT_VEC(FDS.NVECS#) = VECTOR(VC600_STR);

  19674  4 013060   000011 235000 xsym               LDA     FDS+9
         4 013061   000001 735000                    ALS     1
         4 013062   000000 620005                    EAX0    0,AL
         4 013063   000000 621005                    EAX1    0,AL
         4 013064   000054 237000 5                  LDAQ    44
         4 013065   000000 755010 xsym               STA     FMT_VEC,X0
         4 013066   000001 756011 xsym               STQ     FMT_VEC+1,X1
         4 013067   013147 710000 4                  TRA     s:19688

PL6.E3A0      #001=ASL$DISP_ONE_PROFILE File=ASL$L_PRO.:E05TSI                   TUE 07/29/97 10:26 Page:417
     2096    19675    5      SELECT( %KLX25_THR_1200# );

     2097    19676    5      FMT_VEC(FDS.NVECS#) = VECTOR(VC1200_STR);

  19676  4 013070   000011 235000 xsym               LDA     FDS+9
         4 013071   000001 735000                    ALS     1
         4 013072   000000 620005                    EAX0    0,AL
         4 013073   000000 621005                    EAX1    0,AL
         4 013074   000060 237000 5                  LDAQ    48
         4 013075   000000 755010 xsym               STA     FMT_VEC,X0
         4 013076   000001 756011 xsym               STQ     FMT_VEC+1,X1
         4 013077   013147 710000 4                  TRA     s:19688

     2098    19677    5      SELECT( %KLX25_THR_2400# );

     2099    19678    5      FMT_VEC(FDS.NVECS#) = VECTOR(VC2400_STR);

  19678  4 013100   000011 235000 xsym               LDA     FDS+9
         4 013101   000001 735000                    ALS     1
         4 013102   000000 620005                    EAX0    0,AL
         4 013103   000000 621005                    EAX1    0,AL
         4 013104   000066 237000 5                  LDAQ    54
         4 013105   000000 755010 xsym               STA     FMT_VEC,X0
         4 013106   000001 756011 xsym               STQ     FMT_VEC+1,X1
         4 013107   013147 710000 4                  TRA     s:19688

     2100    19679    5      SELECT( %KLX25_THR_4800# );

     2101    19680    5      FMT_VEC(FDS.NVECS#) = VECTOR(VC4800_STR);

  19680  4 013110   000011 235000 xsym               LDA     FDS+9
         4 013111   000001 735000                    ALS     1
         4 013112   000000 620005                    EAX0    0,AL
         4 013113   000000 621005                    EAX1    0,AL
         4 013114   000070 237000 5                  LDAQ    56
         4 013115   000000 755010 xsym               STA     FMT_VEC,X0
         4 013116   000001 756011 xsym               STQ     FMT_VEC+1,X1
PL6.E3A0      #001=ASL$DISP_ONE_PROFILE File=ASL$L_PRO.:E05TSI                   TUE 07/29/97 10:26 Page:418
         4 013117   013147 710000 4                  TRA     s:19688

     2102    19681    5      SELECT( %KLX25_THR_9600# );

     2103    19682    5      FMT_VEC(FDS.NVECS#) = VECTOR(VC9600_STR);

  19682  4 013120   000011 235000 xsym               LDA     FDS+9
         4 013121   000001 735000                    ALS     1
         4 013122   000000 620005                    EAX0    0,AL
         4 013123   000000 621005                    EAX1    0,AL
         4 013124   000072 237000 5                  LDAQ    58
         4 013125   000000 755010 xsym               STA     FMT_VEC,X0
         4 013126   000001 756011 xsym               STQ     FMT_VEC+1,X1
         4 013127   013147 710000 4                  TRA     s:19688

     2104    19683    5      SELECT( %KLX25_THR_19200# );

     2105    19684    5      FMT_VEC(FDS.NVECS#) = VECTOR(VC19200_STR);

  19684  4 013130   000011 235000 xsym               LDA     FDS+9
         4 013131   000001 735000                    ALS     1
         4 013132   000000 620005                    EAX0    0,AL
         4 013133   000000 621005                    EAX1    0,AL
         4 013134   000074 237000 5                  LDAQ    60
         4 013135   000000 755010 xsym               STA     FMT_VEC,X0
         4 013136   000001 756011 xsym               STQ     FMT_VEC+1,X1
         4 013137   013147 710000 4                  TRA     s:19688

     2106    19685    5      SELECT( %KLX25_THR_48000# );

     2107    19686    5      FMT_VEC(FDS.NVECS#) = VECTOR(VC48000_STR);

  19686  4 013140   000011 235000 xsym               LDA     FDS+9
         4 013141   000001 735000                    ALS     1
         4 013142   000000 620005                    EAX0    0,AL
         4 013143   000000 621005                    EAX1    0,AL
         4 013144   000216 237000 5                  LDAQ    142
PL6.E3A0      #001=ASL$DISP_ONE_PROFILE File=ASL$L_PRO.:E05TSI                   TUE 07/29/97 10:26 Page:419
         4 013145   000000 755010 xsym               STA     FMT_VEC,X0
         4 013146   000001 756011 xsym               STQ     FMT_VEC+1,X1

     2108    19687    5      END ;

     2109    19688    4   CLASS = 1 /* C_TEXT */ ;

  19688  4 013147   000001 235007                    LDA     1,DL
         4 013150   200162 755100                    STA     CLASS,,AUTO
         4 013151   015434 710000 4                  TRA     s:20217

     2110    19689    4   SELECT( 175 /* SEND WINDOW */ );

     2111    19690    4   SBINS( SBIN_IDX ) = VIRCIR$ -> KL$VIRCIR.SNDWND# ;

  19690  4 013152   200077 236100                    LDQ     SBIN_IDX,,AUTO
         4 013153   000044 402007                    MPY     36,DL
         4 013154   000000 116003                    CMPQ    0,DU
         4 013155   013157 605000 4                  TPL     s:19690+5
         4 013156   000044 036003                    ADLQ    36,DU
         4 013157   000143 470400 2                  LDP0    VIRCIR$
         4 013160   003106 061500                    CSR     bolr='003'O
         4 013161   000004 420007                    BDSC    4,,PR0                   by=2,bit=2,n=7
         4 013162   200007 000044                    BDSC    SBINS,Q,AUTO             by=0,bit=0,n=36

     2112    19691    4   CLASS = 12 /* C_SBIN */ ;

  19691  4 013163   000014 235007                    LDA     12,DL
         4 013164   200162 755100                    STA     CLASS,,AUTO
         4 013165   015434 710000 4                  TRA     s:20217

     2113    19692    4   SELECT( 177 /* RESPONSE TIMER */ );

     2114    19693    4   SBINS( SBIN_IDX ) = VIRCIR$ -> KL$VIRCIR.RSPTMR# ;

  19693  4 013166   200077 235100                    LDA     SBIN_IDX,,AUTO
         4 013167   000002 735000                    ALS     2
PL6.E3A0      #001=ASL$DISP_ONE_PROFILE File=ASL$L_PRO.:E05TSI                   TUE 07/29/97 10:26 Page:420
         4 013170   000143 470400 2                  LDP0    VIRCIR$
         4 013171   000105 101500                    MRL     fill='000'O
         4 013172   000003 200001                    ADSC9   3,,PR0                   cn=1,n=1
         4 013173   200007 000004                    ADSC9   SBINS,A,AUTO             cn=0,n=4

     2115    19694    4   CLASS = 12 /* C_SBIN */ ;

  19694  4 013174   000014 236007                    LDQ     12,DL
         4 013175   200162 756100                    STQ     CLASS,,AUTO
         4 013176   015434 710000 4                  TRA     s:20217

     2116    19695
     2117    19696    4   SELECT( 122 /* MAXATRS */ );

     2118    19697    4   IF TATR$ -> VLP$TRMATTR.MAXATRS# = 255

  19697  4 013177   000134 470400 2                  LDP0    TATR$
         4 013200   000100 101500                    MRL     fill='000'O
         4 013201   000007 000001                    ADSC9   7,,PR0                   cn=0,n=1
         4 013202   200366 000004                    ADSC9   TEMP+4,,AUTO             cn=0,n=4
         4 013203   200366 236100                    LDQ     TEMP+4,,AUTO
         4 013204   000377 116007                    CMPQ    255,DL
         4 013205   013220 601000 4                  TNZ     s:19703

     2119    19698    5   THEN DO;

     2120    19699    5      FMT_VEC (FDS.NVECS#) = VECTOR (DC_STR);

  19699  4 013206   000011 235000 xsym               LDA     FDS+9
         4 013207   000001 735000                    ALS     1
         4 013210   000000 620005                    EAX0    0,AL
         4 013211   000000 621005                    EAX1    0,AL
         4 013212   000034 237000 5                  LDAQ    28
         4 013213   000000 755010 xsym               STA     FMT_VEC,X0
         4 013214   000001 756011 xsym               STQ     FMT_VEC+1,X1

     2121    19700    5      CLASS = 1 /* C_TEXT */;
PL6.E3A0      #001=ASL$DISP_ONE_PROFILE File=ASL$L_PRO.:E05TSI                   TUE 07/29/97 10:26 Page:421

  19700  4 013215   000001 235007                    LDA     1,DL
         4 013216   200162 755100                    STA     CLASS,,AUTO

     2122    19701    5      END;

  19701  4 013217   015434 710000 4                  TRA     s:20217

     2123    19702    5   ELSE DO;

     2124    19703    5      SBINS (SBIN_IDX) = TATR$ -> VLP$TRMATTR.MAXATRS#;

  19703  4 013220   200077 235100                    LDA     SBIN_IDX,,AUTO
         4 013221   000002 735000                    ALS     2
         4 013222   000105 101500                    MRL     fill='000'O
         4 013223   000007 000001                    ADSC9   7,,PR0                   cn=0,n=1
         4 013224   200007 000004                    ADSC9   SBINS,A,AUTO             cn=0,n=4

     2125    19704    5      CLASS = 12 /* C_SBIN */;

  19704  4 013225   000014 235007                    LDA     12,DL
         4 013226   200162 755100                    STA     CLASS,,AUTO

     2126    19705    5      END;

  19705  4 013227   015434 710000 4                  TRA     s:20217

     2127    19706
     2128    19707    4   SELECT( 123 /* ATRSCRNPOS */ );

     2129    19708    4   IF TATR$ -> VLP$TRMATTR.ATRSCRNPOS# = '01'B

  19708  4 013230   000134 470400 2                  LDP0    TATR$
         4 013231   000000 066500                    CMPB    filb='0'B
         4 013232   000001 430002                    BDSC    1,,PR0                   by=2,bit=3,n=2
         4 013233   000032 000022 5                  BDSC    26                       by=0,bit=0,n=18
         4 013234   013247 601000 4                  TNZ     s:19714
PL6.E3A0      #001=ASL$DISP_ONE_PROFILE File=ASL$L_PRO.:E05TSI                   TUE 07/29/97 10:26 Page:422

     2130    19709    5   THEN DO;

     2131    19710    5      FMT_VEC(FDS.NVECS#)=VECTOR(DC_STR);

  19710  4 013235   000011 235000 xsym               LDA     FDS+9
         4 013236   000001 735000                    ALS     1
         4 013237   000000 620005                    EAX0    0,AL
         4 013240   000000 621005                    EAX1    0,AL
         4 013241   000034 237000 5                  LDAQ    28
         4 013242   000000 755010 xsym               STA     FMT_VEC,X0
         4 013243   000001 756011 xsym               STQ     FMT_VEC+1,X1

     2132    19711    5      CLASS=1 /* C_TEXT */;

  19711  4 013244   000001 235007                    LDA     1,DL
         4 013245   200162 755100                    STA     CLASS,,AUTO

     2133    19712    5      END;

  19712  4 013246   015434 710000 4                  TRA     s:20217

     2134    19713    5   ELSE DO;

     2135    19714    5      YES_NO=TATR$->VLP$TRMATTR.ATRSCRNPOS#;

  19714  4 013247   003100 060500                    CSL     bolr='003'O
         4 013250   000001 430001                    BDSC    1,,PR0                   by=2,bit=3,n=1
         4 013251   200165 000001                    BDSC    YES_NO,,AUTO             by=0,bit=0,n=1

     2136    19715    5      CLASS=2 /* C_YESNO */;

  19715  4 013252   000002 235007                    LDA     2,DL
         4 013253   200162 755100                    STA     CLASS,,AUTO

     2137    19716    5      END;

PL6.E3A0      #001=ASL$DISP_ONE_PROFILE File=ASL$L_PRO.:E05TSI                   TUE 07/29/97 10:26 Page:423
  19716  4 013254   015434 710000 4                  TRA     s:20217

     2138    19717    4   SELECT( 124 /* SGR_ALG */ );

     2139    19718    4   VDH_ALG_TYPE = TCCHR$ -> KL$CCHR.SGR_ALG#;

  19718  4 013255   000137 470400 2                  LDP0    TCCHR$
         4 013256   000100 101500                    MRL     fill='000'O
         4 013257   000011 400001                    ADSC9   9,,PR0                   cn=2,n=1
         4 013260   200161 000004                    ADSC9   VDH_ALG_TYPE,,AUTO       cn=0,n=4

     2140    19719    4   CLASS = 16 /* C_VDH_ALG_TYPE */;

  19719  4 013261   000020 235007                    LDA     16,DL
         4 013262   200162 755100                    STA     CLASS,,AUTO
         4 013263   015434 710000 4                  TRA     s:20217

     2141    19720    4   SELECT( 125 /* DAQ_ALG */ );

     2142    19721    4   VDH_ALG_TYPE = TCCHR$ -> KL$CCHR.DAQ_ALG#;

  19721  4 013264   000137 470400 2                  LDP0    TCCHR$
         4 013265   000100 101500                    MRL     fill='000'O
         4 013266   000011 600001                    ADSC9   9,,PR0                   cn=3,n=1
         4 013267   200161 000004                    ADSC9   VDH_ALG_TYPE,,AUTO       cn=0,n=4

     2143    19722    4   CLASS = 16 /* C_VDH_ALG_TYPE */;

  19722  4 013270   000020 235007                    LDA     16,DL
         4 013271   200162 755100                    STA     CLASS,,AUTO
         4 013272   015434 710000 4                  TRA     s:20217

     2144    19723
     2145    19724    4   SELECT( 126 /* SGRINTRO_CHR */ );

     2146    19725    4   PTR$ =ADDR( TCCHR$ -> KL$CCHR.SGRINTRO_CHR#) ;

PL6.E3A0      #001=ASL$DISP_ONE_PROFILE File=ASL$L_PRO.:E05TSI                   TUE 07/29/97 10:26 Page:424
  19725  4 013273   000137 236000 2                  LDQ     TCCHR$
         4 013274   000220 036000 5                  ADLQ    144
         4 013275   200153 756100                    STQ     PTR$,,AUTO

     2147    19726    4   CLASS = 15 /*C_HEX_LIST */;

  19726  4 013276   000017 235007                    LDA     15,DL
         4 013277   200162 755100                    STA     CLASS,,AUTO
         4 013300   015434 710000 4                  TRA     s:20217

     2148    19727
     2149    19728    4   SELECT( 127 /* DAQINTRO_CHR */ );

     2150    19729    4   PTR$ =ADDR( TCCHR$ -> KL$CCHR.DAQINTRO_CHR#) ;

  19729  4 013301   000137 236000 2                  LDQ     TCCHR$
         4 013302   000221 036000 5                  ADLQ    145
         4 013303   200153 756100                    STQ     PTR$,,AUTO

     2151    19730    4   CLASS = 15 /*C_HEX_LIST */;

  19730  4 013304   000017 235007                    LDA     15,DL
         4 013305   200162 755100                    STA     CLASS,,AUTO
         4 013306   015434 710000 4                  TRA     s:20217

     2152    19731
     2153    19732    4   SELECT( 128 /* SGRINCDAQ */ );

     2154    19733    4   YES_NO = TCCHR$ -> KL$CCHR.SGRINCDAQ#;

  19733  4 013307   000137 470400 2                  LDP0    TCCHR$
         4 013310   003100 060500                    CSL     bolr='003'O
         4 013311   000011 050001                    BDSC    9,,PR0                   by=0,bit=5,n=1
         4 013312   200165 000001                    BDSC    YES_NO,,AUTO             by=0,bit=0,n=1

     2155    19734    4   CLASS = 2 /* C_YESNO */;

PL6.E3A0      #001=ASL$DISP_ONE_PROFILE File=ASL$L_PRO.:E05TSI                   TUE 07/29/97 10:26 Page:425
  19734  4 013313   000002 235007                    LDA     2,DL
         4 013314   200162 755100                    STA     CLASS,,AUTO
         4 013315   015434 710000 4                  TRA     s:20217

     2156    19735
     2157    19736    4   SELECT( 129 /* DFLTPRTMODE */ );

     2158    19737    4   IF TCCHR$->KL$CCHR.DFLTPRTMODE# THEN

  19737  4 013316   000137 470400 2                  LDP0    TCCHR$
         4 013317   000000 066500                    CMPB    filb='0'B
         4 013320   000011 060001                    BDSC    9,,PR0                   by=0,bit=6,n=1
         4 013321   000002 000022 xsym               BDSC    B_VECTNIL+2              by=0,bit=0,n=18
         4 013322   013333 600000 4                  TZE     s:19740

     2159    19738    4      FMT_VEC(FDS.NVECS#) = VECTOR(PROTECT_STR);

  19738  4 013323   000011 235000 xsym               LDA     FDS+9
         4 013324   000001 735000                    ALS     1
         4 013325   000000 620005                    EAX0    0,AL
         4 013326   000000 621005                    EAX1    0,AL
         4 013327   000222 237000 5                  LDAQ    146
         4 013330   000000 755010 xsym               STA     FMT_VEC,X0
         4 013331   000001 756011 xsym               STQ     FMT_VEC+1,X1
         4 013332   013342 710000 4                  TRA     s:19741

     2160    19739    4   ELSE
     2161    19740    4      FMT_VEC(FDS.NVECS#) = VECTOR(UNPROTECT_STR);

  19740  4 013333   000011 235000 xsym               LDA     FDS+9
         4 013334   000001 735000                    ALS     1
         4 013335   000000 620005                    EAX0    0,AL
         4 013336   000000 621005                    EAX1    0,AL
         4 013337   000224 237000 5                  LDAQ    148
         4 013340   000000 755010 xsym               STA     FMT_VEC,X0
         4 013341   000001 756011 xsym               STQ     FMT_VEC+1,X1

PL6.E3A0      #001=ASL$DISP_ONE_PROFILE File=ASL$L_PRO.:E05TSI                   TUE 07/29/97 10:26 Page:426
     2162    19741    4   CLASS = 1 /* C_TEXT */;

  19741  4 013342   000001 235007                    LDA     1,DL
         4 013343   200162 755100                    STA     CLASS,,AUTO
         4 013344   015434 710000 4                  TRA     s:20217

     2163    19742
     2164    19743    4   SELECT( 130 /* DCLFLD_ALG */ );

     2165    19744    4   VDH_ALG_TYPE = TCCHR$ -> KL$CCHR.DCLFLD_ALG#;

  19744  4 013345   000137 470400 2                  LDP0    TCCHR$
         4 013346   000100 101500                    MRL     fill='000'O
         4 013347   000012 000001                    ADSC9   10,,PR0                  cn=0,n=1
         4 013350   200161 000004                    ADSC9   VDH_ALG_TYPE,,AUTO       cn=0,n=4

     2166    19745    4   CLASS = 16 /* C_VDH_ALG_TYPE */;

  19745  4 013351   000020 235007                    LDA     16,DL
         4 013352   200162 755100                    STA     CLASS,,AUTO
         4 013353   015434 710000 4                  TRA     s:20217

     2167    19746
     2168    19747    4   SELECT( 131 /* DCLFRM_CHR */ );

     2169    19748    4   PTR$ =ADDR( TCCHR$ -> KL$CCHR.DCLFRM_CHR#) ;

  19748  4 013354   000137 236000 2                  LDQ     TCCHR$
         4 013355   000022 036003                    ADLQ    18,DU
         4 013356   200153 756100                    STQ     PTR$,,AUTO

     2170    19749    4   CLASS = 15 /*C_HEX_LIST */;

  19749  4 013357   000017 235007                    LDA     15,DL
         4 013360   200162 755100                    STA     CLASS,,AUTO
         4 013361   015434 710000 4                  TRA     s:20217

PL6.E3A0      #001=ASL$DISP_ONE_PROFILE File=ASL$L_PRO.:E05TSI                   TUE 07/29/97 10:26 Page:427
     2171    19750
     2172    19751    4   SELECT( 132 /* ENDDCLFRM_CHR */ );

     2173    19752    4   PTR$ =ADDR( TCCHR$ -> KL$CCHR.ENDDCLFRM_CHR#) ;

  19752  4 013362   000137 236000 2                  LDQ     TCCHR$
         4 013363   000226 036000 5                  ADLQ    150
         4 013364   200153 756100                    STQ     PTR$,,AUTO

     2174    19753    4   CLASS = 15 /*C_HEX_LIST */;

  19753  4 013365   000017 235007                    LDA     15,DL
         4 013366   200162 755100                    STA     CLASS,,AUTO
         4 013367   015434 710000 4                  TRA     s:20217

     2175    19754
     2176    19755    4   SELECT( 133 /* RESTORE_DFLTSCRN_CHR */ );

     2177    19756    4   PTR$ =ADDR( TCCHR$ -> KL$CCHR.RESTORE_DFLTSCRN_CHR#) ;

  19756  4 013370   000137 236000 2                  LDQ     TCCHR$
         4 013371   000227 036000 5                  ADLQ    151
         4 013372   200153 756100                    STQ     PTR$,,AUTO

     2178    19757    4   CLASS = 15 /*C_HEX_LIST */;

  19757  4 013373   000017 235007                    LDA     15,DL
         4 013374   200162 755100                    STA     CLASS,,AUTO
         4 013375   015434 710000 4                  TRA     s:20217

     2179    19758
     2180    19759    4   SELECT( 134 /* SGRHDN_CHR */ );

     2181    19760    4   UHEX_NUM = TCCHR$ -> KL$CCHR.SGRHDN_CHR#;

  19760  4 013376   000137 470400 2                  LDP0    TCCHR$
         4 013377   000100 101500                    MRL     fill='000'O
PL6.E3A0      #001=ASL$DISP_ONE_PROFILE File=ASL$L_PRO.:E05TSI                   TUE 07/29/97 10:26 Page:428
         4 013400   000012 200001                    ADSC9   10,,PR0                  cn=1,n=1
         4 013401   200144 000004                    ADSC9   UHEX_NUM,,AUTO           cn=0,n=4

     2182    19761    4   CLASS = 14 /* C_HEX */;

  19761  4 013402   000016 235007                    LDA     14,DL
         4 013403   200162 755100                    STA     CLASS,,AUTO
         4 013404   015434 710000 4                  TRA     s:20217

     2183    19762    4   SELECT( 135 /* SGRINCINT_CHR */ );

     2184    19763    4   UHEX_NUM = TCCHR$ -> KL$CCHR.SGRINCINT_CHR#;

  19763  4 013405   000137 470400 2                  LDP0    TCCHR$
         4 013406   000100 101500                    MRL     fill='000'O
         4 013407   000012 400001                    ADSC9   10,,PR0                  cn=2,n=1
         4 013410   200144 000004                    ADSC9   UHEX_NUM,,AUTO           cn=0,n=4

     2185    19764    4   CLASS = 14 /* C_HEX */;

  19764  4 013411   000016 235007                    LDA     14,DL
         4 013412   200162 755100                    STA     CLASS,,AUTO
         4 013413   015434 710000 4                  TRA     s:20217

     2186    19765    4   SELECT( 136 /* SGRDCRINT_CHR */ );

     2187    19766    4   UHEX_NUM = TCCHR$ -> KL$CCHR.SGRDCRINT_CHR#;

  19766  4 013414   000137 470400 2                  LDP0    TCCHR$
         4 013415   000100 101500                    MRL     fill='000'O
         4 013416   000012 600001                    ADSC9   10,,PR0                  cn=3,n=1
         4 013417   200144 000004                    ADSC9   UHEX_NUM,,AUTO           cn=0,n=4

     2188    19767    4   CLASS = 14 /* C_HEX */;

  19767  4 013420   000016 235007                    LDA     14,DL
         4 013421   200162 755100                    STA     CLASS,,AUTO
PL6.E3A0      #001=ASL$DISP_ONE_PROFILE File=ASL$L_PRO.:E05TSI                   TUE 07/29/97 10:26 Page:429
         4 013422   015434 710000 4                  TRA     s:20217

     2189    19768    4   SELECT( 137 /* SGRUNDSCR_CHR */ );

     2190    19769    4   UHEX_NUM = TCCHR$ -> KL$CCHR.SGRUNDSCR_CHR#;

  19769  4 013423   000137 470400 2                  LDP0    TCCHR$
         4 013424   000100 101500                    MRL     fill='000'O
         4 013425   000013 000001                    ADSC9   11,,PR0                  cn=0,n=1
         4 013426   200144 000004                    ADSC9   UHEX_NUM,,AUTO           cn=0,n=4

     2191    19770    4   CLASS = 14 /* C_HEX */;

  19770  4 013427   000016 235007                    LDA     14,DL
         4 013430   200162 755100                    STA     CLASS,,AUTO
         4 013431   015434 710000 4                  TRA     s:20217

     2192    19771    4   SELECT( 138 /* SGRSLWBLN_CHR */ );

     2193    19772    4   UHEX_NUM = TCCHR$ -> KL$CCHR.SGRSLWBLN_CHR#;

  19772  4 013432   000137 470400 2                  LDP0    TCCHR$
         4 013433   000100 101500                    MRL     fill='000'O
         4 013434   000013 200001                    ADSC9   11,,PR0                  cn=1,n=1
         4 013435   200144 000004                    ADSC9   UHEX_NUM,,AUTO           cn=0,n=4

     2194    19773    4   CLASS = 14 /* C_HEX */;

  19773  4 013436   000016 235007                    LDA     14,DL
         4 013437   200162 755100                    STA     CLASS,,AUTO
         4 013440   015434 710000 4                  TRA     s:20217

     2195    19774    4   SELECT( 139 /* SGRFSTBLN_CHR */ );

     2196    19775    4   UHEX_NUM = TCCHR$ -> KL$CCHR.SGRFSTBLN_CHR#;

  19775  4 013441   000137 470400 2                  LDP0    TCCHR$
PL6.E3A0      #001=ASL$DISP_ONE_PROFILE File=ASL$L_PRO.:E05TSI                   TUE 07/29/97 10:26 Page:430
         4 013442   000100 101500                    MRL     fill='000'O
         4 013443   000013 400001                    ADSC9   11,,PR0                  cn=2,n=1
         4 013444   200144 000004                    ADSC9   UHEX_NUM,,AUTO           cn=0,n=4

     2197    19776    4   CLASS = 14 /* C_HEX */;

  19776  4 013445   000016 235007                    LDA     14,DL
         4 013446   200162 755100                    STA     CLASS,,AUTO
         4 013447   015434 710000 4                  TRA     s:20217

     2198    19777    4   SELECT( 140 /* SGRRVRVID_CHR */ );

     2199    19778    4   UHEX_NUM = TCCHR$ -> KL$CCHR.SGRRVRVID_CHR#;

  19778  4 013450   000137 470400 2                  LDP0    TCCHR$
         4 013451   000100 101500                    MRL     fill='000'O
         4 013452   000013 600001                    ADSC9   11,,PR0                  cn=3,n=1
         4 013453   200144 000004                    ADSC9   UHEX_NUM,,AUTO           cn=0,n=4

     2200    19779    4   CLASS = 14 /* C_HEX */;

  19779  4 013454   000016 235007                    LDA     14,DL
         4 013455   200162 755100                    STA     CLASS,,AUTO
         4 013456   015434 710000 4                  TRA     s:20217

     2201    19780    4   SELECT( 141 /* SGRPRT_CHR */ );

     2202    19781    4   UHEX_NUM = TCCHR$ -> KL$CCHR.SGRPRT_CHR#;

  19781  4 013457   000137 470400 2                  LDP0    TCCHR$
         4 013460   000100 101500                    MRL     fill='000'O
         4 013461   000014 000001                    ADSC9   12,,PR0                  cn=0,n=1
         4 013462   200144 000004                    ADSC9   UHEX_NUM,,AUTO           cn=0,n=4

     2203    19782    4   CLASS = 14 /* C_HEX */;

  19782  4 013463   000016 235007                    LDA     14,DL
PL6.E3A0      #001=ASL$DISP_ONE_PROFILE File=ASL$L_PRO.:E05TSI                   TUE 07/29/97 10:26 Page:431
         4 013464   200162 755100                    STA     CLASS,,AUTO
         4 013465   015434 710000 4                  TRA     s:20217

     2204    19783    4   SELECT( 142 /* SGRINP_CHR */ );

     2205    19784    4   UHEX_NUM = TCCHR$ -> KL$CCHR.SGRINP_CHR#;

  19784  4 013466   000137 470400 2                  LDP0    TCCHR$
         4 013467   000100 101500                    MRL     fill='000'O
         4 013470   000014 200001                    ADSC9   12,,PR0                  cn=1,n=1
         4 013471   200144 000004                    ADSC9   UHEX_NUM,,AUTO           cn=0,n=4

     2206    19785    4   CLASS = 14 /* C_HEX */;

  19785  4 013472   000016 235007                    LDA     14,DL
         4 013473   200162 755100                    STA     CLASS,,AUTO
         4 013474   015434 710000 4                  TRA     s:20217

     2207    19786    4   SELECT( 143 /* SGRPRTGRD_CHR */ );

     2208    19787    4   UHEX_NUM = TCCHR$ -> KL$CCHR.SGRPRTGRD_CHR#;

  19787  4 013475   000137 470400 2                  LDP0    TCCHR$
         4 013476   000100 101500                    MRL     fill='000'O
         4 013477   000014 400001                    ADSC9   12,,PR0                  cn=2,n=1
         4 013500   200144 000004                    ADSC9   UHEX_NUM,,AUTO           cn=0,n=4

     2209    19788    4   CLASS = 14 /* C_HEX */;

  19788  4 013501   000016 235007                    LDA     14,DL
         4 013502   200162 755100                    STA     CLASS,,AUTO
         4 013503   015434 710000 4                  TRA     s:20217

     2210    19789    4   SELECT( 144 /* DAQPRT_CHR */ );

     2211    19790    4   UHEX_NUM = TCCHR$ -> KL$CCHR.DAQPRT_CHR#;

PL6.E3A0      #001=ASL$DISP_ONE_PROFILE File=ASL$L_PRO.:E05TSI                   TUE 07/29/97 10:26 Page:432
  19790  4 013504   000137 470400 2                  LDP0    TCCHR$
         4 013505   000100 101500                    MRL     fill='000'O
         4 013506   000014 600001                    ADSC9   12,,PR0                  cn=3,n=1
         4 013507   200144 000004                    ADSC9   UHEX_NUM,,AUTO           cn=0,n=4

     2212    19791    4   CLASS = 14 /* C_HEX */;

  19791  4 013510   000016 235007                    LDA     14,DL
         4 013511   200162 755100                    STA     CLASS,,AUTO
         4 013512   015434 710000 4                  TRA     s:20217

     2213    19792    4   SELECT( 145 /* DAQINP_CHR */ );

     2214    19793    4   UHEX_NUM = TCCHR$ -> KL$CCHR.DAQINP_CHR#;

  19793  4 013513   000137 470400 2                  LDP0    TCCHR$
         4 013514   000100 101500                    MRL     fill='000'O
         4 013515   000015 000001                    ADSC9   13,,PR0                  cn=0,n=1
         4 013516   200144 000004                    ADSC9   UHEX_NUM,,AUTO           cn=0,n=4

     2215    19794    4   CLASS = 14 /* C_HEX */;

  19794  4 013517   000016 235007                    LDA     14,DL
         4 013520   200162 755100                    STA     CLASS,,AUTO
         4 013521   015434 710000 4                  TRA     s:20217

     2216    19795    4   SELECT( 146 /* DAQPRTGRD_CHR */ );

     2217    19796    4   UHEX_NUM = TCCHR$ -> KL$CCHR.DAQPRTGRD_CHR#;

  19796  4 013522   000137 470400 2                  LDP0    TCCHR$
         4 013523   000100 101500                    MRL     fill='000'O
         4 013524   000015 200001                    ADSC9   13,,PR0                  cn=1,n=1
         4 013525   200144 000004                    ADSC9   UHEX_NUM,,AUTO           cn=0,n=4

     2218    19797    4   CLASS = 14 /* C_HEX */;

PL6.E3A0      #001=ASL$DISP_ONE_PROFILE File=ASL$L_PRO.:E05TSI                   TUE 07/29/97 10:26 Page:433
  19797  4 013526   000016 235007                    LDA     14,DL
         4 013527   200162 755100                    STA     CLASS,,AUTO
         4 013530   015434 710000 4                  TRA     s:20217

     2219    19798
     2220    19799    4   SELECT( 147 /* DLTALLFLDS_CHR */ );

     2221    19800    4   PTR$ =ADDR( TCCHR$ -> KL$CCHR.DLTALLFLDS_CHR#) ;

  19800  4 013531   000137 236000 2                  LDQ     TCCHR$
         4 013532   000230 036000 5                  ADLQ    152
         4 013533   200153 756100                    STQ     PTR$,,AUTO

     2222    19801    4   CLASS = 15 /*C_HEX_LIST */;

  19801  4 013534   000017 235007                    LDA     15,DL
         4 013535   200162 755100                    STA     CLASS,,AUTO
         4 013536   015434 710000 4                  TRA     s:20217

     2223    19802
     2224    19803    4   SELECT( 148 /* INSLIN_CHR */ );

     2225    19804    4   PTR$ =ADDR( TCCHR$ -> KL$CCHR.INSLIN_CHR#) ;

  19804  4 013537   000137 236000 2                  LDQ     TCCHR$
         4 013540   000023 036003                    ADLQ    19,DU
         4 013541   200153 756100                    STQ     PTR$,,AUTO

     2226    19805    4   CLASS = 15 /*C_HEX_LIST */;

  19805  4 013542   000017 235007                    LDA     15,DL
         4 013543   200162 755100                    STA     CLASS,,AUTO
         4 013544   015434 710000 4                  TRA     s:20217

     2227    19806
     2228    19807    4   SELECT( 149 /* DLTLIN_CHR */ );

PL6.E3A0      #001=ASL$DISP_ONE_PROFILE File=ASL$L_PRO.:E05TSI                   TUE 07/29/97 10:26 Page:434
     2229    19808    4   PTR$ =ADDR( TCCHR$ -> KL$CCHR.DLTLIN_CHR#) ;

  19808  4 013545   000137 236000 2                  LDQ     TCCHR$
         4 013546   000231 036000 5                  ADLQ    153
         4 013547   200153 756100                    STQ     PTR$,,AUTO

     2230    19809    4   CLASS = 15 /*C_HEX_LIST */;

  19809  4 013550   000017 235007                    LDA     15,DL
         4 013551   200162 755100                    STA     CLASS,,AUTO
         4 013552   015434 710000 4                  TRA     s:20217

     2231    19810
     2232    19811    4   SELECT( 150 /* ERASEFLD_CHR */ );

     2233    19812    4   PTR$ =ADDR( TCCHR$ -> KL$CCHR.ERASEFLD_CHR#) ;

  19812  4 013553   000137 236000 2                  LDQ     TCCHR$
         4 013554   000232 036000 5                  ADLQ    154
         4 013555   200153 756100                    STQ     PTR$,,AUTO

     2234    19813    4   CLASS = 15 /*C_HEX_LIST */;

  19813  4 013556   000017 235007                    LDA     15,DL
         4 013557   200162 755100                    STA     CLASS,,AUTO
         4 013560   015434 710000 4                  TRA     s:20217

     2235    19814
     2236    19815    4   SELECT( 151 /* DLTFLD_CHR */ );

     2237    19816    4   PTR$ =ADDR( TCCHR$ -> KL$CCHR.DLTFLD_CHR#) ;

  19816  4 013561   000137 236000 2                  LDQ     TCCHR$
         4 013562   000233 036000 5                  ADLQ    155
         4 013563   200153 756100                    STQ     PTR$,,AUTO

     2238    19817    4   CLASS = 15 /*C_HEX_LIST */;
PL6.E3A0      #001=ASL$DISP_ONE_PROFILE File=ASL$L_PRO.:E05TSI                   TUE 07/29/97 10:26 Page:435

  19817  4 013564   000017 235007                    LDA     15,DL
         4 013565   200162 755100                    STA     CLASS,,AUTO
         4 013566   015434 710000 4                  TRA     s:20217

     2239    19818
     2240    19819    4   SELECT( 152 /* FLDTRM */ );

     2241    19820    4   IF TATR$ -> VLP$TRMATTR.NO_FLDTRM# = '01'B THEN

  19820  4 013567   000134 470400 2                  LDP0    TATR$
         4 013570   000000 066500                    CMPB    filb='0'B
         4 013571   000001 450002                    BDSC    1,,PR0                   by=2,bit=5,n=2
         4 013572   000032 000022 5                  BDSC    26                       by=0,bit=0,n=18
         4 013573   013604 601000 4                  TNZ     s:19823

     2242    19821    4      FMT_VEC(FDS.NVECS#)=VECTOR(DC_STR);

  19821  4 013574   000011 235000 xsym               LDA     FDS+9
         4 013575   000001 735000                    ALS     1
         4 013576   000000 620005                    EAX0    0,AL
         4 013577   000000 621005                    EAX1    0,AL
         4 013600   000034 237000 5                  LDAQ    28
         4 013601   000000 755010 xsym               STA     FMT_VEC,X0
         4 013602   000001 756011 xsym               STQ     FMT_VEC+1,X1
         4 013603   013627 710000 4                  TRA     s:19827

     2243    19822    4   ELSE
     2244    19823    4      IF TATR$->VLP$TRMATTR.NO_FLDTRM# THEN

  19823  4 013604   000000 066500                    CMPB    filb='0'B
         4 013605   000001 450002                    BDSC    1,,PR0                   by=2,bit=5,n=2
         4 013606   000002 000022 xsym               BDSC    B_VECTNIL+2              by=0,bit=0,n=18
         4 013607   013620 600000 4                  TZE     s:19826

     2245    19824    4         FMT_VEC(FDS.NVECS#) = VECTOR(PAGE_STR);

PL6.E3A0      #001=ASL$DISP_ONE_PROFILE File=ASL$L_PRO.:E05TSI                   TUE 07/29/97 10:26 Page:436
  19824  4 013610   000011 235000 xsym               LDA     FDS+9
         4 013611   000001 735000                    ALS     1
         4 013612   000000 620005                    EAX0    0,AL
         4 013613   000000 621005                    EAX1    0,AL
         4 013614   000234 237000 5                  LDAQ    156
         4 013615   000000 755010 xsym               STA     FMT_VEC,X0
         4 013616   000001 756011 xsym               STQ     FMT_VEC+1,X1
         4 013617   013627 710000 4                  TRA     s:19827

     2246    19825    4      ELSE
     2247    19826    4         FMT_VEC(FDS.NVECS#) = VECTOR(LINE_STR);

  19826  4 013620   000011 235000 xsym               LDA     FDS+9
         4 013621   000001 735000                    ALS     1
         4 013622   000000 620005                    EAX0    0,AL
         4 013623   000000 621005                    EAX1    0,AL
         4 013624   000166 237000 5                  LDAQ    118
         4 013625   000000 755010 xsym               STA     FMT_VEC,X0
         4 013626   000001 756011 xsym               STQ     FMT_VEC+1,X1

     2248    19827    4   CLASS = 1 /* C_TEXT */;

  19827  4 013627   000001 235007                    LDA     1,DL
         4 013630   200162 755100                    STA     CLASS,,AUTO
         4 013631   015434 710000 4                  TRA     s:20217

     2249    19828    4   SELECT( 153 /* EWALT */ );

     2250    19829    4   YES_NO = KL$3270.EWALT#;

  19829  4 013632   000144 470400 2                  LDP0    KL_3270$
         4 013633   003100 060500                    CSL     bolr='003'O
         4 013634   000000 050001                    BDSC    0,,PR0                   by=0,bit=5,n=1
         4 013635   200165 000001                    BDSC    YES_NO,,AUTO             by=0,bit=0,n=1

     2251    19830    4   CLASS  = 2 /* C_YESNO */;

PL6.E3A0      #001=ASL$DISP_ONE_PROFILE File=ASL$L_PRO.:E05TSI                   TUE 07/29/97 10:26 Page:437
  19830  4 013636   000002 235007                    LDA     2,DL
         4 013637   200162 755100                    STA     CLASS,,AUTO
         4 013640   015434 710000 4                  TRA     s:20217

     2252    19831    4   SELECT( 154 /* SIOPT */ );

     2253    19832    4   YES_NO = KL$3270.SIOPT#;

  19832  4 013641   000144 470400 2                  LDP0    KL_3270$
         4 013642   003100 060500                    CSL     bolr='003'O
         4 013643   000000 070001                    BDSC    0,,PR0                   by=0,bit=7,n=1
         4 013644   200165 000001                    BDSC    YES_NO,,AUTO             by=0,bit=0,n=1

     2254    19833    4   CLASS  = 2 /* C_YESNO */;

  19833  4 013645   000002 235007                    LDA     2,DL
         4 013646   200162 755100                    STA     CLASS,,AUTO
         4 013647   015434 710000 4                  TRA     s:20217

     2255    19834    4   SELECT( 155 /* ABSGRPRND_NULL */,

     2256    19835    4        156 /* ABSGRPRND_HIDDEN */,
     2257    19836    4        157 /* ABSGRPRND_EMPHASIS */,
     2258    19837    4        158 /* ABSGRPRND_INPUT */,
     2259    19838    4        159 /* ABSGRPRND_OUTPUT */,
     2260    19839    4        160 /* ABSGRPRND_ERROR */,
     2261    19840    4        161 /* ABSGRPRND_WARNING */ );
     2262    19841    4   KL_ABSGRPRND$ = ABSGRPRND$(NEXT-155 /* ABSGRPRND_NULL */+1);

  19841  4 013650   200167 720100                    LXL0    NEXT,,AUTO
         4 013651   777714 236010 2                  LDQ     STRING-434,X0
         4 013652   000145 756000 2                  STQ     KL_ABSGRPRND$

     2263    19842    4   IF KL$ABSGRPRND.FLAGS THEN

  19842  4 013653   000145 470400 2                  LDP0    KL_ABSGRPRND$
         4 013654   000000 066500                    CMPB    filb='0'B
PL6.E3A0      #001=ASL$DISP_ONE_PROFILE File=ASL$L_PRO.:E05TSI                   TUE 07/29/97 10:26 Page:438
         4 013655   000000 410010                    BDSC    0,,PR0                   by=2,bit=1,n=8
         4 013656   000002 000022 xsym               BDSC    B_VECTNIL+2              by=0,bit=0,n=18
         4 013657   013663 600000 4                  TZE     s:19845

     2264    19843    4      CLASS = 17 /* C_ABSGRPRND */;

  19843  4 013660   000021 235007                    LDA     17,DL
         4 013661   200162 755100                    STA     CLASS,,AUTO
         4 013662   015434 710000 4                  TRA     s:20217

     2265    19844    5   ELSE DO;

     2266    19845    5      FMT_VEC(FDS.NVECS#) = VECTOR(NONE_SET_STR);

  19845  4 013663   000011 235000 xsym               LDA     FDS+9
         4 013664   000001 735000                    ALS     1
         4 013665   000000 621005                    EAX1    0,AL
         4 013666   000000 622005                    EAX2    0,AL
         4 013667   000076 237000 5                  LDAQ    62
         4 013670   000000 755011 xsym               STA     FMT_VEC,X1
         4 013671   000001 756012 xsym               STQ     FMT_VEC+1,X2

     2267    19846    5      CLASS = 1 /* C_TEXT */;

  19846  4 013672   000001 235007                    LDA     1,DL
         4 013673   200162 755100                    STA     CLASS,,AUTO

     2268    19847    5      END;

  19847  4 013674   015434 710000 4                  TRA     s:20217

     2269    19848
     2270    19849    4   SELECT(163 /* SPCBFRPRT */) ;

     2271    19850    4   IF TATR$ -> VLP$TRMATTR.SPCBFRPRT# = '01'B

  19850  4 013675   000134 470400 2                  LDP0    TATR$
PL6.E3A0      #001=ASL$DISP_ONE_PROFILE File=ASL$L_PRO.:E05TSI                   TUE 07/29/97 10:26 Page:439
         4 013676   000000 066500                    CMPB    filb='0'B
         4 013677   000001 410002                    BDSC    1,,PR0                   by=2,bit=1,n=2
         4 013700   000032 000022 5                  BDSC    26                       by=0,bit=0,n=18
         4 013701   013714 601000 4                  TNZ     s:19856

     2272    19851    5   THEN DO;

     2273    19852    5      FMT_VEC(FDS.NVECS#)=VECTOR(DC_STR);

  19852  4 013702   000011 235000 xsym               LDA     FDS+9
         4 013703   000001 735000                    ALS     1
         4 013704   000000 620005                    EAX0    0,AL
         4 013705   000000 621005                    EAX1    0,AL
         4 013706   000034 237000 5                  LDAQ    28
         4 013707   000000 755010 xsym               STA     FMT_VEC,X0
         4 013710   000001 756011 xsym               STQ     FMT_VEC+1,X1

     2274    19853    5      CLASS=1 /* C_TEXT */;

  19853  4 013711   000001 235007                    LDA     1,DL
         4 013712   200162 755100                    STA     CLASS,,AUTO

     2275    19854    5      END;

  19854  4 013713   015434 710000 4                  TRA     s:20217

     2276    19855    5   ELSE DO;

     2277    19856    5      YES_NO=TATR$->VLP$TRMATTR.SPCBFRPRT#;

  19856  4 013714   003100 060500                    CSL     bolr='003'O
         4 013715   000001 410001                    BDSC    1,,PR0                   by=2,bit=1,n=1
         4 013716   200165 000001                    BDSC    YES_NO,,AUTO             by=0,bit=0,n=1

     2278    19857    5      CLASS=2 /* C_YESNO */;

  19857  4 013717   000002 235007                    LDA     2,DL
PL6.E3A0      #001=ASL$DISP_ONE_PROFILE File=ASL$L_PRO.:E05TSI                   TUE 07/29/97 10:26 Page:440
         4 013720   200162 755100                    STA     CLASS,,AUTO

     2279    19858    5      END;

  19858  4 013721   015434 710000 4                  TRA     s:20217

     2280    19859
     2281    19860    4   SELECT(165 /* LIMBOCLM */) ;

     2282    19861    4   IF TATR$ -> VLP$TRMATTR.LIMBOCLM# = '01'B

  19861  4 013722   000134 470400 2                  LDP0    TATR$
         4 013723   000000 066500                    CMPB    filb='0'B
         4 013724   000001 010002                    BDSC    1,,PR0                   by=0,bit=1,n=2
         4 013725   000032 000022 5                  BDSC    26                       by=0,bit=0,n=18
         4 013726   013741 601000 4                  TNZ     s:19867

     2283    19862    5   THEN DO;

     2284    19863    5      FMT_VEC(FDS.NVECS#)=VECTOR(DC_STR);

  19863  4 013727   000011 235000 xsym               LDA     FDS+9
         4 013730   000001 735000                    ALS     1
         4 013731   000000 620005                    EAX0    0,AL
         4 013732   000000 621005                    EAX1    0,AL
         4 013733   000034 237000 5                  LDAQ    28
         4 013734   000000 755010 xsym               STA     FMT_VEC,X0
         4 013735   000001 756011 xsym               STQ     FMT_VEC+1,X1

     2285    19864    5      CLASS=1 /* C_TEXT */;

  19864  4 013736   000001 235007                    LDA     1,DL
         4 013737   200162 755100                    STA     CLASS,,AUTO

     2286    19865    5      END;

  19865  4 013740   015434 710000 4                  TRA     s:20217
PL6.E3A0      #001=ASL$DISP_ONE_PROFILE File=ASL$L_PRO.:E05TSI                   TUE 07/29/97 10:26 Page:441

     2287    19866    5   ELSE DO;

     2288    19867    5      YES_NO=TATR$->VLP$TRMATTR.LIMBOCLM#;

  19867  4 013741   003100 060500                    CSL     bolr='003'O
         4 013742   000001 010001                    BDSC    1,,PR0                   by=0,bit=1,n=1
         4 013743   200165 000001                    BDSC    YES_NO,,AUTO             by=0,bit=0,n=1

     2289    19868    5      CLASS=2 /* C_YESNO */;

  19868  4 013744   000002 235007                    LDA     2,DL
         4 013745   200162 755100                    STA     CLASS,,AUTO

     2290    19869    5      END;

  19869  4 013746   015434 710000 4                  TRA     s:20217

     2291    19870
     2292    19871    4   SELECT(166 /* LOCALECHO */) ;

     2293    19872    4   IF TATR$ -> VLP$TRMATTR.LOCALECHO# = '01'B

  19872  4 013747   000134 470400 2                  LDP0    TATR$
         4 013750   000000 066500                    CMPB    filb='0'B
         4 013751   000001 030002                    BDSC    1,,PR0                   by=0,bit=3,n=2
         4 013752   000032 000022 5                  BDSC    26                       by=0,bit=0,n=18
         4 013753   013766 601000 4                  TNZ     s:19878

     2294    19873    5   THEN DO;

     2295    19874    5      FMT_VEC(FDS.NVECS#)=VECTOR(DC_STR);

  19874  4 013754   000011 235000 xsym               LDA     FDS+9
         4 013755   000001 735000                    ALS     1
         4 013756   000000 620005                    EAX0    0,AL
         4 013757   000000 621005                    EAX1    0,AL
PL6.E3A0      #001=ASL$DISP_ONE_PROFILE File=ASL$L_PRO.:E05TSI                   TUE 07/29/97 10:26 Page:442
         4 013760   000034 237000 5                  LDAQ    28
         4 013761   000000 755010 xsym               STA     FMT_VEC,X0
         4 013762   000001 756011 xsym               STQ     FMT_VEC+1,X1

     2296    19875    5      CLASS=1 /* C_TEXT */;

  19875  4 013763   000001 235007                    LDA     1,DL
         4 013764   200162 755100                    STA     CLASS,,AUTO

     2297    19876    5      END;

  19876  4 013765   015434 710000 4                  TRA     s:20217

     2298    19877    5   ELSE DO;

     2299    19878    5      YES_NO=TATR$->VLP$TRMATTR.LOCALECHO#;

  19878  4 013766   003100 060500                    CSL     bolr='003'O
         4 013767   000001 030001                    BDSC    1,,PR0                   by=0,bit=3,n=1
         4 013770   200165 000001                    BDSC    YES_NO,,AUTO             by=0,bit=0,n=1

     2300    19879    5      CLASS=2 /* C_YESNO */;

  19879  4 013771   000002 235007                    LDA     2,DL
         4 013772   200162 755100                    STA     CLASS,,AUTO

     2301    19880    5      END;

  19880  4 013773   015434 710000 4                  TRA     s:20217

     2302    19881
     2303    19882    4   SELECT(178 /* L_EXTSRD_CHR */) ;

     2304    19883    4   PTR$ =ADDR( TCCHR$->KL$CCHR.EXTSRD_CHR#) ;

  19883  4 013774   000137 236000 2                  LDQ     TCCHR$
         4 013775   000236 036000 5                  ADLQ    158
PL6.E3A0      #001=ASL$DISP_ONE_PROFILE File=ASL$L_PRO.:E05TSI                   TUE 07/29/97 10:26 Page:443
         4 013776   200153 756100                    STQ     PTR$,,AUTO

     2305    19884    4   CLASS = 15 /*C_HEX_LIST */ ;

  19884  4 013777   000017 235007                    LDA     15,DL
         4 014000   200162 755100                    STA     CLASS,,AUTO
         4 014001   015434 710000 4                  TRA     s:20217

     2306    19885
     2307    19886    4   SELECT( 219 /* L_GR_FPRG */ ) ;

     2308    19887    4   FMT_VEC( FDS.NVECS# ) = VECTOR( DSEG1$->PRO$HDR.GR_FPRG ) ;

  19887  4 014002   000011 235000 xsym               LDA     FDS+9
         4 014003   000001 735000                    ALS     1
         4 014004   000000 620005                    EAX0    0,AL
         4 014005   000237 235000 5                  LDA     159
         4 014006   000000 236000 xsym               LDQ     DSEG1$
         4 014007   000002 036003                    ADLQ    2,DU
         4 014010   000000 755010 xsym               STA     FMT_VEC,X0
         4 014011   000001 756010 xsym               STQ     FMT_VEC+1,X0

     2309    19888    4   CLASS = 1 /* C_TEXT */ ;

  19888  4 014012   000001 235007                    LDA     1,DL
         4 014013   200162 755100                    STA     CLASS,,AUTO
         4 014014   015434 710000 4                  TRA     s:20217

     2310    19889
     2311    19890    4   SELECT( 180 /* L_MSGLIN_CHR */ ) ;

     2312    19891    4   PTR$ =ADDR( TCCHR$ -> KL$CCHR.MSGLIN_CHR#) ;

  19891  4 014015   000137 236000 2                  LDQ     TCCHR$
         4 014016   000240 036000 5                  ADLQ    160
         4 014017   200153 756100                    STQ     PTR$,,AUTO

PL6.E3A0      #001=ASL$DISP_ONE_PROFILE File=ASL$L_PRO.:E05TSI                   TUE 07/29/97 10:26 Page:444
     2313    19892    4   CLASS = 15 /*C_HEX_LIST */;

  19892  4 014020   000017 235007                    LDA     15,DL
         4 014021   200162 755100                    STA     CLASS,,AUTO
         4 014022   015434 710000 4                  TRA     s:20217

     2314    19893
     2315    19894    4   SELECT( 181 /* L_ENDMSGLIN_CHR */ );

     2316    19895    4   PTR$ =ADDR( TCCHR$ -> KL$CCHR.ENDMSGLIN_CHR#) ;

  19895  4 014023   000137 236000 2                  LDQ     TCCHR$
         4 014024   000024 036003                    ADLQ    20,DU
         4 014025   200153 756100                    STQ     PTR$,,AUTO

     2317    19896    4   CLASS = 15 /*C_HEX_LIST */;

  19896  4 014026   000017 235007                    LDA     15,DL
         4 014027   200162 755100                    STA     CLASS,,AUTO
         4 014030   015434 710000 4                  TRA     s:20217

     2318    19897
     2319    19898    4   SELECT ( 182 /* L_SPCDLTFLD */ );

     2320    19899    4   YES_NO = TCCHR$->KL$CCHR.SPCDLTFLD#;

  19899  4 014031   000137 470400 2                  LDP0    TCCHR$
         4 014032   003100 060500                    CSL     bolr='003'O
         4 014033   000011 100001                    BDSC    9,,PR0                   by=0,bit=8,n=1
         4 014034   200165 000001                    BDSC    YES_NO,,AUTO             by=0,bit=0,n=1

     2321    19900    4   CLASS = 2 /* C_YESNO */;

  19900  4 014035   000002 235007                    LDA     2,DL
         4 014036   200162 755100                    STA     CLASS,,AUTO
         4 014037   015434 710000 4                  TRA     s:20217

PL6.E3A0      #001=ASL$DISP_ONE_PROFILE File=ASL$L_PRO.:E05TSI                   TUE 07/29/97 10:26 Page:445
     2322    19901    4   SELECT ( 198 /* L_RGNSCROLL */ );

     2323    19902    4   YES_NO = TCCHR$->KL$CCHR.RGNSCROLL#;

  19902  4 014040   000137 470400 2                  LDP0    TCCHR$
         4 014041   003100 060500                    CSL     bolr='003'O
         4 014042   000011 250001                    BDSC    9,,PR0                   by=1,bit=5,n=1
         4 014043   200165 000001                    BDSC    YES_NO,,AUTO             by=0,bit=0,n=1

     2324    19903    4   CLASS = 2 /* C_YESNO */;

  19903  4 014044   000002 235007                    LDA     2,DL
         4 014045   200162 755100                    STA     CLASS,,AUTO
         4 014046   015434 710000 4                  TRA     s:20217

     2325    19904    4   SELECT ( 183 /* L_EL0DLTFLD */ );

     2326    19905    4   YES_NO = TCCHR$->KL$CCHR.EL0DLTFLD#;

  19905  4 014047   000137 470400 2                  LDP0    TCCHR$
         4 014050   003100 060500                    CSL     bolr='003'O
         4 014051   000011 260001                    BDSC    9,,PR0                   by=1,bit=6,n=1
         4 014052   200165 000001                    BDSC    YES_NO,,AUTO             by=0,bit=0,n=1

     2327    19906    4   CLASS = 2 /* C_YESNO */;

  19906  4 014053   000002 235007                    LDA     2,DL
         4 014054   200162 755100                    STA     CLASS,,AUTO
         4 014055   015434 710000 4                  TRA     s:20217

     2328    19907    4   SELECT ( 184 /* L_ED0DLTFLD */ );

     2329    19908    4   YES_NO = TCCHR$->KL$CCHR.ED0DLTFLD#;

  19908  4 014056   000137 470400 2                  LDP0    TCCHR$
         4 014057   003100 060500                    CSL     bolr='003'O
         4 014060   000011 270001                    BDSC    9,,PR0                   by=1,bit=7,n=1
PL6.E3A0      #001=ASL$DISP_ONE_PROFILE File=ASL$L_PRO.:E05TSI                   TUE 07/29/97 10:26 Page:446
         4 014061   200165 000001                    BDSC    YES_NO,,AUTO             by=0,bit=0,n=1

     2330    19909    4   CLASS = 2 /* C_YESNO */;

  19909  4 014062   000002 235007                    LDA     2,DL
         4 014063   200162 755100                    STA     CLASS,,AUTO
         4 014064   015434 710000 4                  TRA     s:20217

     2331    19910    4   SELECT ( 185 /* L_ED2DLTFLD */ );

     2332    19911    4   YES_NO = TCCHR$->KL$CCHR.ED2DLTFLD#;

  19911  4 014065   000137 470400 2                  LDP0    TCCHR$
         4 014066   003100 060500                    CSL     bolr='003'O
         4 014067   000011 300001                    BDSC    9,,PR0                   by=1,bit=8,n=1
         4 014070   200165 000001                    BDSC    YES_NO,,AUTO             by=0,bit=0,n=1

     2333    19912    4   CLASS = 2 /* C_YESNO */;

  19912  4 014071   000002 235007                    LDA     2,DL
         4 014072   200162 755100                    STA     CLASS,,AUTO
         4 014073   015434 710000 4                  TRA     s:20217

     2334    19913    4   SELECT ( 186 /* L_ICHRQRDCH */ );

     2335    19914    4   YES_NO = TCCHR$->KL$CCHR.ICHRQRDCH#;

  19914  4 014074   000137 470400 2                  LDP0    TCCHR$
         4 014075   003100 060500                    CSL     bolr='003'O
         4 014076   000011 030001                    BDSC    9,,PR0                   by=0,bit=3,n=1
         4 014077   200165 000001                    BDSC    YES_NO,,AUTO             by=0,bit=0,n=1

     2336    19915    4   CLASS = 2 /* C_YESNO */;

  19915  4 014100   000002 235007                    LDA     2,DL
         4 014101   200162 755100                    STA     CLASS,,AUTO
         4 014102   015434 710000 4                  TRA     s:20217
PL6.E3A0      #001=ASL$DISP_ONE_PROFILE File=ASL$L_PRO.:E05TSI                   TUE 07/29/97 10:26 Page:447

     2337    19916    4   SELECT ( 187 /* L_ILNRQRDLN */ );

     2338    19917    4   YES_NO = TCCHR$->KL$CCHR.ILNRQRDLN#;

  19917  4 014103   000137 470400 2                  LDP0    TCCHR$
         4 014104   003100 060500                    CSL     bolr='003'O
         4 014105   000011 040001                    BDSC    9,,PR0                   by=0,bit=4,n=1
         4 014106   200165 000001                    BDSC    YES_NO,,AUTO             by=0,bit=0,n=1

     2339    19918    4   CLASS = 2 /* C_YESNO */;

  19918  4 014107   000002 235007                    LDA     2,DL
         4 014110   200162 755100                    STA     CLASS,,AUTO
         4 014111   015434 710000 4                  TRA     s:20217

     2340    19919    4   SELECT ( 188 /* L_FRSCLMFLD */ );

     2341    19920    4   YES_NO = TCCHR$->KL$CCHR.FRSCLMFLD#;

  19920  4 014112   000137 470400 2                  LDP0    TCCHR$
         4 014113   003100 060500                    CSL     bolr='003'O
         4 014114   000011 070001                    BDSC    9,,PR0                   by=0,bit=7,n=1
         4 014115   200165 000001                    BDSC    YES_NO,,AUTO             by=0,bit=0,n=1

     2342    19921    4   CLASS = 2 /* C_YESNO */;

  19921  4 014116   000002 235007                    LDA     2,DL
         4 014117   200162 755100                    STA     CLASS,,AUTO
         4 014120   015434 710000 4                  TRA     s:20217

     2343    19922    4   SELECT ( 189 /* L_MSGHALT */ ) ;

     2344    19923    4   IF TCTL$->VLP$TRMCTRL.MSGHALT#='01'B

  19923  4 014121   000133 470400 2                  LDP0    TCTL$
         4 014122   000000 066500                    CMPB    filb='0'B
PL6.E3A0      #001=ASL$DISP_ONE_PROFILE File=ASL$L_PRO.:E05TSI                   TUE 07/29/97 10:26 Page:448
         4 014123   000002 050002                    BDSC    2,,PR0                   by=0,bit=5,n=2
         4 014124   000032 000022 5                  BDSC    26                       by=0,bit=0,n=18
         4 014125   014140 601000 4                  TNZ     s:19929

     2345    19924    5   THEN DO;

     2346    19925    5      FMT_VEC(FDS.NVECS#)=VECTOR(DC_STR);

  19925  4 014126   000011 235000 xsym               LDA     FDS+9
         4 014127   000001 735000                    ALS     1
         4 014130   000000 620005                    EAX0    0,AL
         4 014131   000000 621005                    EAX1    0,AL
         4 014132   000034 237000 5                  LDAQ    28
         4 014133   000000 755010 xsym               STA     FMT_VEC,X0
         4 014134   000001 756011 xsym               STQ     FMT_VEC+1,X1

     2347    19926    5      CLASS=1 /* C_TEXT */;

  19926  4 014135   000001 235007                    LDA     1,DL
         4 014136   200162 755100                    STA     CLASS,,AUTO

     2348    19927    5      END;

  19927  4 014137   015434 710000 4                  TRA     s:20217

     2349    19928    5   ELSE DO;

     2350    19929    5      YES_NO=TCTL$->VLP$TRMCTRL.MSGHALT#;

  19929  4 014140   003100 060500                    CSL     bolr='003'O
         4 014141   000002 050001                    BDSC    2,,PR0                   by=0,bit=5,n=1
         4 014142   200165 000001                    BDSC    YES_NO,,AUTO             by=0,bit=0,n=1

     2351    19930    5      CLASS=2 /* C_YESNO */;

  19930  4 014143   000002 235007                    LDA     2,DL
         4 014144   200162 755100                    STA     CLASS,,AUTO
PL6.E3A0      #001=ASL$DISP_ONE_PROFILE File=ASL$L_PRO.:E05TSI                   TUE 07/29/97 10:26 Page:449

     2352    19931    5      END;

  19931  4 014145   015434 710000 4                  TRA     s:20217

     2353    19932    4   SELECT ( 190 /* L_MSGLINE */ ) ;

     2354    19933    4   IF TCTL$->VLP$TRMCTRL.MSGLINE#='01'B

  19933  4 014146   000133 470400 2                  LDP0    TCTL$
         4 014147   000000 066500                    CMPB    filb='0'B
         4 014150   000002 210002                    BDSC    2,,PR0                   by=1,bit=1,n=2
         4 014151   000032 000022 5                  BDSC    26                       by=0,bit=0,n=18
         4 014152   014165 601000 4                  TNZ     s:19939

     2355    19934    5   THEN DO;

     2356    19935    5      FMT_VEC(FDS.NVECS#)=VECTOR(DC_STR);

  19935  4 014153   000011 235000 xsym               LDA     FDS+9
         4 014154   000001 735000                    ALS     1
         4 014155   000000 620005                    EAX0    0,AL
         4 014156   000000 621005                    EAX1    0,AL
         4 014157   000034 237000 5                  LDAQ    28
         4 014160   000000 755010 xsym               STA     FMT_VEC,X0
         4 014161   000001 756011 xsym               STQ     FMT_VEC+1,X1

     2357    19936    5      CLASS=1 /* C_TEXT */;

  19936  4 014162   000001 235007                    LDA     1,DL
         4 014163   200162 755100                    STA     CLASS,,AUTO

     2358    19937    5      END;

  19937  4 014164   015434 710000 4                  TRA     s:20217

     2359    19938    5   ELSE DO;
PL6.E3A0      #001=ASL$DISP_ONE_PROFILE File=ASL$L_PRO.:E05TSI                   TUE 07/29/97 10:26 Page:450

     2360    19939    5      YES_NO=TCTL$->VLP$TRMCTRL.MSGLINE#;

  19939  4 014165   003100 060500                    CSL     bolr='003'O
         4 014166   000002 210001                    BDSC    2,,PR0                   by=1,bit=1,n=1
         4 014167   200165 000001                    BDSC    YES_NO,,AUTO             by=0,bit=0,n=1

     2361    19940    5      CLASS=2 /* C_YESNO */;

  19940  4 014170   000002 235007                    LDA     2,DL
         4 014171   200162 755100                    STA     CLASS,,AUTO

     2362    19941    5      END;

  19941  4 014172   015434 710000 4                  TRA     s:20217

     2363    19942    4   SELECT ( 191 /* L_INSERTMODE */ ) ;

     2364    19943    4   IF TCTL$->VLP$TRMCTRL.INSERTMODE#='01'B

  19943  4 014173   000133 470400 2                  LDP0    TCTL$
         4 014174   000000 066500                    CMPB    filb='0'B
         4 014175   000002 030002                    BDSC    2,,PR0                   by=0,bit=3,n=2
         4 014176   000032 000022 5                  BDSC    26                       by=0,bit=0,n=18
         4 014177   014212 601000 4                  TNZ     s:19949

     2365    19944    5   THEN DO;

     2366    19945    5      FMT_VEC(FDS.NVECS#)=VECTOR(DC_STR);

  19945  4 014200   000011 235000 xsym               LDA     FDS+9
         4 014201   000001 735000                    ALS     1
         4 014202   000000 620005                    EAX0    0,AL
         4 014203   000000 621005                    EAX1    0,AL
         4 014204   000034 237000 5                  LDAQ    28
         4 014205   000000 755010 xsym               STA     FMT_VEC,X0
         4 014206   000001 756011 xsym               STQ     FMT_VEC+1,X1
PL6.E3A0      #001=ASL$DISP_ONE_PROFILE File=ASL$L_PRO.:E05TSI                   TUE 07/29/97 10:26 Page:451

     2367    19946    5      CLASS=1 /* C_TEXT */;

  19946  4 014207   000001 235007                    LDA     1,DL
         4 014210   200162 755100                    STA     CLASS,,AUTO

     2368    19947    5      END;

  19947  4 014211   015434 710000 4                  TRA     s:20217

     2369    19948    5   ELSE DO;

     2370    19949    5      YES_NO=TCTL$->VLP$TRMCTRL.INSERTMODE#;

  19949  4 014212   003100 060500                    CSL     bolr='003'O
         4 014213   000002 030001                    BDSC    2,,PR0                   by=0,bit=3,n=1
         4 014214   200165 000001                    BDSC    YES_NO,,AUTO             by=0,bit=0,n=1

     2371    19950    5      CLASS=2 /* C_YESNO */;

  19950  4 014215   000002 235007                    LDA     2,DL
         4 014216   200162 755100                    STA     CLASS,,AUTO

     2372    19951    5      END;

  19951  4 014217   015434 710000 4                  TRA     s:20217

     2373    19952    4   SELECT ( 192 /* L_HSCROLL */ ) ;

     2374    19953    4   IF TCTL$->VLP$TRMCTRL.HSCROLL#='01'B

  19953  4 014220   000133 470400 2                  LDP0    TCTL$
         4 014221   000000 066500                    CMPB    filb='0'B
         4 014222   000002 010002                    BDSC    2,,PR0                   by=0,bit=1,n=2
         4 014223   000032 000022 5                  BDSC    26                       by=0,bit=0,n=18
         4 014224   014237 601000 4                  TNZ     s:19959

PL6.E3A0      #001=ASL$DISP_ONE_PROFILE File=ASL$L_PRO.:E05TSI                   TUE 07/29/97 10:26 Page:452
     2375    19954    5   THEN DO;

     2376    19955    5      FMT_VEC(FDS.NVECS#)=VECTOR(DC_STR);

  19955  4 014225   000011 235000 xsym               LDA     FDS+9
         4 014226   000001 735000                    ALS     1
         4 014227   000000 620005                    EAX0    0,AL
         4 014230   000000 621005                    EAX1    0,AL
         4 014231   000034 237000 5                  LDAQ    28
         4 014232   000000 755010 xsym               STA     FMT_VEC,X0
         4 014233   000001 756011 xsym               STQ     FMT_VEC+1,X1

     2377    19956    5      CLASS=1 /* C_TEXT */;

  19956  4 014234   000001 235007                    LDA     1,DL
         4 014235   200162 755100                    STA     CLASS,,AUTO

     2378    19957    5      END;

  19957  4 014236   015434 710000 4                  TRA     s:20217

     2379    19958    5   ELSE DO;

     2380    19959    5      YES_NO=TCTL$->VLP$TRMCTRL.HSCROLL#;

  19959  4 014237   003100 060500                    CSL     bolr='003'O
         4 014240   000002 010001                    BDSC    2,,PR0                   by=0,bit=1,n=1
         4 014241   200165 000001                    BDSC    YES_NO,,AUTO             by=0,bit=0,n=1

     2381    19960    5      CLASS=2 /* C_YESNO */;

  19960  4 014242   000002 235007                    LDA     2,DL
         4 014243   200162 755100                    STA     CLASS,,AUTO

     2382    19961    5      END;

  19961  4 014244   015434 710000 4                  TRA     s:20217
PL6.E3A0      #001=ASL$DISP_ONE_PROFILE File=ASL$L_PRO.:E05TSI                   TUE 07/29/97 10:26 Page:453

     2383    19962
     2384    19963    4   SELECT(193 /* L_WORDWRAPCLM */) ;

     2385    19964    4   IF TCTL$ -> VLP$TRMCTRL.WORDWRAPCLM# = 255

  19964  4 014245   000133 470400 2                  LDP0    TCTL$
         4 014246   000100 101500                    MRL     fill='000'O
         4 014247   000002 400001                    ADSC9   2,,PR0                   cn=2,n=1
         4 014250   200366 000004                    ADSC9   TEMP+4,,AUTO             cn=0,n=4
         4 014251   200366 236100                    LDQ     TEMP+4,,AUTO
         4 014252   000377 116007                    CMPQ    255,DL
         4 014253   014266 601000 4                  TNZ     s:19970

     2386    19965    5   THEN DO;

     2387    19966    5      FMT_VEC(FDS.NVECS#)=VECTOR(DC_STR);

  19966  4 014254   000011 235000 xsym               LDA     FDS+9
         4 014255   000001 735000                    ALS     1
         4 014256   000000 620005                    EAX0    0,AL
         4 014257   000000 621005                    EAX1    0,AL
         4 014260   000034 237000 5                  LDAQ    28
         4 014261   000000 755010 xsym               STA     FMT_VEC,X0
         4 014262   000001 756011 xsym               STQ     FMT_VEC+1,X1

     2388    19967    5      CLASS=1 /* C_TEXT */;

  19967  4 014263   000001 235007                    LDA     1,DL
         4 014264   200162 755100                    STA     CLASS,,AUTO

     2389    19968    5      END;

  19968  4 014265   015434 710000 4                  TRA     s:20217

     2390    19969    5   ELSE DO;

PL6.E3A0      #001=ASL$DISP_ONE_PROFILE File=ASL$L_PRO.:E05TSI                   TUE 07/29/97 10:26 Page:454
     2391    19970    5      SBINS(SBIN_IDX) = TCTL$ -> VLP$TRMCTRL.WORDWRAPCLM# ;

  19970  4 014266   200077 235100                    LDA     SBIN_IDX,,AUTO
         4 014267   000002 735000                    ALS     2
         4 014270   000105 101500                    MRL     fill='000'O
         4 014271   000002 400001                    ADSC9   2,,PR0                   cn=2,n=1
         4 014272   200007 000004                    ADSC9   SBINS,A,AUTO             cn=0,n=4

     2392    19971    5      CLASS = 12 /* C_SBIN */ ;

  19971  4 014273   000014 235007                    LDA     12,DL
         4 014274   200162 755100                    STA     CLASS,,AUTO

     2393    19972    5      END;

  19972  4 014275   015434 710000 4                  TRA     s:20217

     2394    19973
     2395    19974    4   SELECT(194 /* L_AUTOTABCLM */) ;

     2396    19975    4   IF TCTL$ -> VLP$TRMCTRL.AUTOTABCLM# = 255

  19975  4 014276   000133 470400 2                  LDP0    TCTL$
         4 014277   000100 101500                    MRL     fill='000'O
         4 014300   000002 600001                    ADSC9   2,,PR0                   cn=3,n=1
         4 014301   200366 000004                    ADSC9   TEMP+4,,AUTO             cn=0,n=4
         4 014302   200366 236100                    LDQ     TEMP+4,,AUTO
         4 014303   000377 116007                    CMPQ    255,DL
         4 014304   014317 601000 4                  TNZ     s:19981

     2397    19976    5   THEN DO;

     2398    19977    5      FMT_VEC(FDS.NVECS#)=VECTOR(DC_STR);

  19977  4 014305   000011 235000 xsym               LDA     FDS+9
         4 014306   000001 735000                    ALS     1
         4 014307   000000 620005                    EAX0    0,AL
PL6.E3A0      #001=ASL$DISP_ONE_PROFILE File=ASL$L_PRO.:E05TSI                   TUE 07/29/97 10:26 Page:455
         4 014310   000000 621005                    EAX1    0,AL
         4 014311   000034 237000 5                  LDAQ    28
         4 014312   000000 755010 xsym               STA     FMT_VEC,X0
         4 014313   000001 756011 xsym               STQ     FMT_VEC+1,X1

     2399    19978    5      CLASS=1 /* C_TEXT */;

  19978  4 014314   000001 235007                    LDA     1,DL
         4 014315   200162 755100                    STA     CLASS,,AUTO

     2400    19979    5      END;

  19979  4 014316   015434 710000 4                  TRA     s:20217

     2401    19980    5   ELSE DO;

     2402    19981    5      SBINS(SBIN_IDX) = TCTL$ -> VLP$TRMCTRL.AUTOTABCLM# ;

  19981  4 014317   200077 235100                    LDA     SBIN_IDX,,AUTO
         4 014320   000002 735000                    ALS     2
         4 014321   000105 101500                    MRL     fill='000'O
         4 014322   000002 600001                    ADSC9   2,,PR0                   cn=3,n=1
         4 014323   200007 000004                    ADSC9   SBINS,A,AUTO             cn=0,n=4

     2403    19982    5      CLASS = 12 /* C_SBIN */ ;

  19982  4 014324   000014 235007                    LDA     12,DL
         4 014325   200162 755100                    STA     CLASS,,AUTO

     2404    19983    5      END;

  19983  4 014326   015434 710000 4                  TRA     s:20217

     2405    19984
     2406    19985    4   SELECT (195 /* L_SETUP_CHR */);

     2407    19986    4   PTR$ = SETUP_CHR$;
PL6.E3A0      #001=ASL$DISP_ONE_PROFILE File=ASL$L_PRO.:E05TSI                   TUE 07/29/97 10:26 Page:456

  19986  4 014327   000157 236000 2                  LDQ     SETUP_CHR$
         4 014330   200153 756100                    STQ     PTR$,,AUTO

     2408    19987    4   CLASS = 15 /*C_HEX_LIST */;

  19987  4 014331   000017 235007                    LDA     15,DL
         4 014332   200162 755100                    STA     CLASS,,AUTO
         4 014333   015434 710000 4                  TRA     s:20217

     2409    19988
     2410    19989    4   SELECT (196 /* DCHMOVFLD */);

     2411    19990    4   IF TATR$ -> VLP$TRMATTR.DCHMOVFLD# = '01'B

  19990  4 014334   000134 470400 2                  LDP0    TATR$
         4 014335   000000 066500                    CMPB    filb='0'B
         4 014336   000001 470002                    BDSC    1,,PR0                   by=2,bit=7,n=2
         4 014337   000032 000022 5                  BDSC    26                       by=0,bit=0,n=18
         4 014340   014353 601000 4                  TNZ     s:19996

     2412    19991    5   THEN DO;

     2413    19992    5      FMT_VEC (FDS.NVECS#) = VECTOR (DC_STR);

  19992  4 014341   000011 235000 xsym               LDA     FDS+9
         4 014342   000001 735000                    ALS     1
         4 014343   000000 620005                    EAX0    0,AL
         4 014344   000000 621005                    EAX1    0,AL
         4 014345   000034 237000 5                  LDAQ    28
         4 014346   000000 755010 xsym               STA     FMT_VEC,X0
         4 014347   000001 756011 xsym               STQ     FMT_VEC+1,X1

     2414    19993    5      CLASS = 1 /* C_TEXT */;

  19993  4 014350   000001 235007                    LDA     1,DL
         4 014351   200162 755100                    STA     CLASS,,AUTO
PL6.E3A0      #001=ASL$DISP_ONE_PROFILE File=ASL$L_PRO.:E05TSI                   TUE 07/29/97 10:26 Page:457

     2415    19994    5      END;

  19994  4 014352   015434 710000 4                  TRA     s:20217

     2416    19995    5   ELSE DO;

     2417    19996    5      YES_NO = TATR$ -> VLP$TRMATTR.DCHMOVFLD#;

  19996  4 014353   003100 060500                    CSL     bolr='003'O
         4 014354   000001 470001                    BDSC    1,,PR0                   by=2,bit=7,n=1
         4 014355   200165 000001                    BDSC    YES_NO,,AUTO             by=0,bit=0,n=1

     2418    19997    5      CLASS = 2 /* C_YESNO */;

  19997  4 014356   000002 235007                    LDA     2,DL
         4 014357   200162 755100                    STA     CLASS,,AUTO

     2419    19998    5      END;

  19998  4 014360   015434 710000 4                  TRA     s:20217

     2420    19999
     2421    20000    4   SELECT (197 /* DSPHEIGHT */);

     2422    20001    4   IF TATR$ -> VLP$TRMATTR.DSPHEIGHT# = 255

  20001  4 014361   000134 470400 2                  LDP0    TATR$
         4 014362   000100 101500                    MRL     fill='000'O
         4 014363   000007 200001                    ADSC9   7,,PR0                   cn=1,n=1
         4 014364   200366 000004                    ADSC9   TEMP+4,,AUTO             cn=0,n=4
         4 014365   200366 236100                    LDQ     TEMP+4,,AUTO
         4 014366   000377 116007                    CMPQ    255,DL
         4 014367   014402 601000 4                  TNZ     s:20007

     2423    20002    5   THEN DO;

PL6.E3A0      #001=ASL$DISP_ONE_PROFILE File=ASL$L_PRO.:E05TSI                   TUE 07/29/97 10:26 Page:458
     2424    20003    5      FMT_VEC (FDS.NVECS#) = VECTOR (DC_STR);

  20003  4 014370   000011 235000 xsym               LDA     FDS+9
         4 014371   000001 735000                    ALS     1
         4 014372   000000 620005                    EAX0    0,AL
         4 014373   000000 621005                    EAX1    0,AL
         4 014374   000034 237000 5                  LDAQ    28
         4 014375   000000 755010 xsym               STA     FMT_VEC,X0
         4 014376   000001 756011 xsym               STQ     FMT_VEC+1,X1

     2425    20004    5      CLASS = 1 /* C_TEXT */;

  20004  4 014377   000001 235007                    LDA     1,DL
         4 014400   200162 755100                    STA     CLASS,,AUTO

     2426    20005    5      END;

  20005  4 014401   015434 710000 4                  TRA     s:20217

     2427    20006    5   ELSE DO;

     2428    20007    5      SBINS (SBIN_IDX) = TATR$ -> VLP$TRMATTR.DSPHEIGHT#;

  20007  4 014402   200077 235100                    LDA     SBIN_IDX,,AUTO
         4 014403   000002 735000                    ALS     2
         4 014404   000105 101500                    MRL     fill='000'O
         4 014405   000007 200001                    ADSC9   7,,PR0                   cn=1,n=1
         4 014406   200007 000004                    ADSC9   SBINS,A,AUTO             cn=0,n=4

     2429    20008    5      CLASS = 12 /* C_SBIN */;

  20008  4 014407   000014 235007                    LDA     12,DL
         4 014410   200162 755100                    STA     CLASS,,AUTO

     2430    20009    5      END;

  20009  4 014411   015434 710000 4                  TRA     s:20217
PL6.E3A0      #001=ASL$DISP_ONE_PROFILE File=ASL$L_PRO.:E05TSI                   TUE 07/29/97 10:26 Page:459

     2431    20010    4   SELECT ( 218 /* TABS */ );

     2432    20011    4   CALL LIST_TABS;

  20011  4 014412   016675 701000 4                  TSX1    LIST_TABS
         4 014413   000000 011000                    NOP     0

     2433    20012    4   CLASS = 28 /* C_ALL_DONE */;

  20012  4 014414   000034 235007                    LDA     28,DL
         4 014415   200162 755100                    STA     CLASS,,AUTO
         4 014416   015434 710000 4                  TRA     s:20217

     2434    20013    4   SELECT (179 /* FF_FLUSH */);

     2435    20014    4   IF TATR$ -> VLP$TRMATTR.FF_FLUSH# = '01'B

  20014  4 014417   000134 470400 2                  LDP0    TATR$
         4 014420   000000 066500                    CMPB    filb='0'B
         4 014421   000002 610002                    BDSC    2,,PR0                   by=3,bit=1,n=2
         4 014422   000032 000022 5                  BDSC    26                       by=0,bit=0,n=18
         4 014423   014436 601000 4                  TNZ     s:20020

     2436    20015    5   THEN DO;

     2437    20016    5      FMT_VEC (FDS.NVECS#) = VECTOR (DC_STR);

  20016  4 014424   000011 235000 xsym               LDA     FDS+9
         4 014425   000001 735000                    ALS     1
         4 014426   000000 620005                    EAX0    0,AL
         4 014427   000000 621005                    EAX1    0,AL
         4 014430   000034 237000 5                  LDAQ    28
         4 014431   000000 755010 xsym               STA     FMT_VEC,X0
         4 014432   000001 756011 xsym               STQ     FMT_VEC+1,X1

     2438    20017    5      CLASS = 1 /* C_TEXT */;
PL6.E3A0      #001=ASL$DISP_ONE_PROFILE File=ASL$L_PRO.:E05TSI                   TUE 07/29/97 10:26 Page:460

  20017  4 014433   000001 235007                    LDA     1,DL
         4 014434   200162 755100                    STA     CLASS,,AUTO

     2439    20018    5      END;

  20018  4 014435   015434 710000 4                  TRA     s:20217

     2440    20019    5   ELSE DO;

     2441    20020    5      YES_NO = TATR$ -> VLP$TRMATTR.FF_FLUSH#;

  20020  4 014436   003100 060500                    CSL     bolr='003'O
         4 014437   000002 610001                    BDSC    2,,PR0                   by=3,bit=1,n=1
         4 014440   200165 000001                    BDSC    YES_NO,,AUTO             by=0,bit=0,n=1

     2442    20021    5      CLASS = 2 /* C_YESNO */;

  20021  4 014441   000002 235007                    LDA     2,DL
         4 014442   200162 755100                    STA     CLASS,,AUTO

     2443    20022    5      END;

  20022  4 014443   015434 710000 4                  TRA     s:20217

     2444    20023    4   SELECT( 220 /* L_GR_GLBLCOLORS */ ) ;

     2445    20024    4   SBINS(SBIN_IDX) = GRA$->GRA$REC.GLOBAL_COLORS ;

  20024  4 014444   200142 470500                    LDP0    GRA$,,AUTO
         4 014445   000000 235100                    LDA     0,,PR0
         4 014446   200077 720100                    LXL0    SBIN_IDX,,AUTO
         4 014447   200007 755110                    STA     SBINS,X0,AUTO

     2446    20025    4   CLASS = 12 /* C_SBIN */ ;

  20025  4 014450   000014 236007                    LDQ     12,DL
PL6.E3A0      #001=ASL$DISP_ONE_PROFILE File=ASL$L_PRO.:E05TSI                   TUE 07/29/97 10:26 Page:461
         4 014451   200162 756100                    STQ     CLASS,,AUTO
         4 014452   015434 710000 4                  TRA     s:20217

     2447    20026    4   SELECT( 221 /* L_GR_GLBLINTENSITIES */ ) ;

     2448    20027    4   SBINS(SBIN_IDX) = GRA$->GRA$REC.GLOBAL_INTENSITIES ;

  20027  4 014453   200142 470500                    LDP0    GRA$,,AUTO
         4 014454   000001 235100                    LDA     1,,PR0
         4 014455   200077 720100                    LXL0    SBIN_IDX,,AUTO
         4 014456   200007 755110                    STA     SBINS,X0,AUTO

     2449    20028    4   CLASS = 12 /* C_SBIN */ ;

  20028  4 014457   000014 236007                    LDQ     12,DL
         4 014460   200162 756100                    STQ     CLASS,,AUTO
         4 014461   015434 710000 4                  TRA     s:20217

     2450    20029    4   SELECT( 222 /* L_GR_MAXPICK */ ) ;

     2451    20030    4   SBINS(SBIN_IDX) = GRA$->GRA$REC.MAX_PICK_ID ;

  20030  4 014462   200142 470500                    LDP0    GRA$,,AUTO
         4 014463   000002 235100                    LDA     2,,PR0
         4 014464   200077 720100                    LXL0    SBIN_IDX,,AUTO
         4 014465   200007 755110                    STA     SBINS,X0,AUTO

     2452    20031    4   CLASS = 12 /* C_SBIN */ ;

  20031  4 014466   000014 236007                    LDQ     12,DL
         4 014467   200162 756100                    STQ     CLASS,,AUTO
         4 014470   015434 710000 4                  TRA     s:20217

     2453    20032    4   SELECT( 223 /* L_GR_XSPACE */ ) ;

     2454    20033    4   SBINS(SBIN_IDX) = GRA$->GRA$REC.X_PER_CM ;

PL6.E3A0      #001=ASL$DISP_ONE_PROFILE File=ASL$L_PRO.:E05TSI                   TUE 07/29/97 10:26 Page:462
  20033  4 014471   200142 470500                    LDP0    GRA$,,AUTO
         4 014472   000003 235100                    LDA     3,,PR0
         4 014473   200077 720100                    LXL0    SBIN_IDX,,AUTO
         4 014474   200007 755110                    STA     SBINS,X0,AUTO

     2455    20034    4   CLASS = 12 /* C_SBIN */ ;

  20034  4 014475   000014 236007                    LDQ     12,DL
         4 014476   200162 756100                    STQ     CLASS,,AUTO
         4 014477   015434 710000 4                  TRA     s:20217

     2456    20035    4   SELECT( 224 /* L_GR_YSPACE */ ) ;

     2457    20036    4   SBINS(SBIN_IDX) = GRA$->GRA$REC.Y_PER_CM ;

  20036  4 014500   200142 470500                    LDP0    GRA$,,AUTO
         4 014501   000004 235100                    LDA     4,,PR0
         4 014502   200077 720100                    LXL0    SBIN_IDX,,AUTO
         4 014503   200007 755110                    STA     SBINS,X0,AUTO

     2458    20037    4   CLASS = 12 /* C_SBIN */ ;

  20037  4 014504   000014 236007                    LDQ     12,DL
         4 014505   200162 756100                    STQ     CLASS,,AUTO
         4 014506   015434 710000 4                  TRA     s:20217

     2459    20038    4   SELECT( 225 /* L_GR_ZSPACE */ ) ;

     2460    20039    4   SBINS(SBIN_IDX) = GRA$->GRA$REC.Z_PER_CM ;

  20039  4 014507   200142 470500                    LDP0    GRA$,,AUTO
         4 014510   000005 235100                    LDA     5,,PR0
         4 014511   200077 720100                    LXL0    SBIN_IDX,,AUTO
         4 014512   200007 755110                    STA     SBINS,X0,AUTO

     2461    20040    4   CLASS = 12 /* C_SBIN */ ;

PL6.E3A0      #001=ASL$DISP_ONE_PROFILE File=ASL$L_PRO.:E05TSI                   TUE 07/29/97 10:26 Page:463
  20040  4 014513   000014 236007                    LDQ     12,DL
         4 014514   200162 756100                    STQ     CLASS,,AUTO
         4 014515   015434 710000 4                  TRA     s:20217

     2462    20041    4   SELECT( 226 /* L_GR_NDCWSPACE */ ) ;

     2463    20042    4   SBINS(SBIN_IDX) = GRA$->GRA$REC.NDC_WIDTH_ADDR_SPACE ;

  20042  4 014516   200142 470500                    LDP0    GRA$,,AUTO
         4 014517   000006 235100                    LDA     6,,PR0
         4 014520   200077 720100                    LXL0    SBIN_IDX,,AUTO
         4 014521   200007 755110                    STA     SBINS,X0,AUTO

     2464    20043    4   CLASS = 12 /* C_SBIN */ ;

  20043  4 014522   000014 236007                    LDQ     12,DL
         4 014523   200162 756100                    STQ     CLASS,,AUTO
         4 014524   015434 710000 4                  TRA     s:20217

     2465    20044    4   SELECT( 227 /* L_GR_NDCHSPACE */ ) ;

     2466    20045    4   SBINS(SBIN_IDX) = GRA$->GRA$REC.NDC_HEIGHT_ADDR_SPACE ;

  20045  4 014525   200142 470500                    LDP0    GRA$,,AUTO
         4 014526   000007 235100                    LDA     7,,PR0
         4 014527   200077 720100                    LXL0    SBIN_IDX,,AUTO
         4 014530   200007 755110                    STA     SBINS,X0,AUTO

     2467    20046    4   CLASS = 12 /* C_SBIN */ ;

  20046  4 014531   000014 236007                    LDQ     12,DL
         4 014532   200162 756100                    STQ     CLASS,,AUTO
         4 014533   015434 710000 4                  TRA     s:20217

     2468    20047    4   SELECT( 228 /* L_GR_NDCDSPACE */ ) ;

     2469    20048    4   SBINS(SBIN_IDX) = GRA$->GRA$REC.NDC_DEPTH_ADDR_SPACE ;
PL6.E3A0      #001=ASL$DISP_ONE_PROFILE File=ASL$L_PRO.:E05TSI                   TUE 07/29/97 10:26 Page:464

  20048  4 014534   200142 470500                    LDP0    GRA$,,AUTO
         4 014535   000010 235100                    LDA     8,,PR0
         4 014536   200077 720100                    LXL0    SBIN_IDX,,AUTO
         4 014537   200007 755110                    STA     SBINS,X0,AUTO

     2470    20049    4   CLASS = 12 /* C_SBIN */ ;

  20049  4 014540   000014 236007                    LDQ     12,DL
         4 014541   200162 756100                    STQ     CLASS,,AUTO
         4 014542   015434 710000 4                  TRA     s:20217

     2471    20050    4   SELECT( 231 /* L_GR_NDCWCHARS */ ) ;

     2472    20051    4   SBINS(SBIN_IDX) = GRA$->GRA$REC.NDC_WIDTH_CHAR_POS ;

  20051  4 014543   200142 470500                    LDP0    GRA$,,AUTO
         4 014544   000011 235100                    LDA     9,,PR0
         4 014545   200077 720100                    LXL0    SBIN_IDX,,AUTO
         4 014546   200007 755110                    STA     SBINS,X0,AUTO

     2473    20052    4   CLASS = 12 /* C_SBIN */ ;

  20052  4 014547   000014 236007                    LDQ     12,DL
         4 014550   200162 756100                    STQ     CLASS,,AUTO
         4 014551   015434 710000 4                  TRA     s:20217

     2474    20053    4   SELECT( 230 /* L_GR_NDCHCHARS */ ) ;

     2475    20054    4   SBINS(SBIN_IDX) = GRA$->GRA$REC.NDC_HEIGHT_CHAR_POS ;

  20054  4 014552   200142 470500                    LDP0    GRA$,,AUTO
         4 014553   000012 235100                    LDA     10,,PR0
         4 014554   200077 720100                    LXL0    SBIN_IDX,,AUTO
         4 014555   200007 755110                    STA     SBINS,X0,AUTO

     2476    20055    4   CLASS = 12 /* C_SBIN */ ;
PL6.E3A0      #001=ASL$DISP_ONE_PROFILE File=ASL$L_PRO.:E05TSI                   TUE 07/29/97 10:26 Page:465

  20055  4 014556   000014 236007                    LDQ     12,DL
         4 014557   200162 756100                    STQ     CLASS,,AUTO
         4 014560   015434 710000 4                  TRA     s:20217

     2477    20056    4   SELECT( 229 /* L_GR_NDCDCHARS */ ) ;

     2478    20057    4   SBINS(SBIN_IDX) = GRA$->GRA$REC.NDC_DEPTH_CHAR_POS ;

  20057  4 014561   200142 470500                    LDP0    GRA$,,AUTO
         4 014562   000013 235100                    LDA     11,,PR0
         4 014563   200077 720100                    LXL0    SBIN_IDX,,AUTO
         4 014564   200007 755110                    STA     SBINS,X0,AUTO

     2479    20058    4   CLASS = 12 /* C_SBIN */ ;

  20058  4 014565   000014 236007                    LDQ     12,DL
         4 014566   200162 756100                    STQ     CLASS,,AUTO
         4 014567   015434 710000 4                  TRA     s:20217

     2480    20059    4   SELECT( 232 /* L_GR_WIDTHUSE */ ) ;

     2481    20060    4   SBINS(SBIN_IDX) = GRA$->GRA$REC.WIDTH_USABLE ;

  20060  4 014570   200142 470500                    LDP0    GRA$,,AUTO
         4 014571   000014 235100                    LDA     12,,PR0
         4 014572   200077 720100                    LXL0    SBIN_IDX,,AUTO
         4 014573   200007 755110                    STA     SBINS,X0,AUTO

     2482    20061    4   CLASS = 12 /* C_SBIN */ ;

  20061  4 014574   000014 235007                    LDA     12,DL
         4 014575   200162 755100                    STA     CLASS,,AUTO
         4 014576   015434 710000 4                  TRA     s:20217

     2483    20062    4   SELECT( 233 /* L_GR_HEIGHTUSE */ ) ;

PL6.E3A0      #001=ASL$DISP_ONE_PROFILE File=ASL$L_PRO.:E05TSI                   TUE 07/29/97 10:26 Page:466
     2484    20063    4   SBINS(SBIN_IDX) = GRA$->GRA$REC.HEIGHT_USABLE ;

  20063  4 014577   200142 470500                    LDP0    GRA$,,AUTO
         4 014600   000015 235100                    LDA     13,,PR0
         4 014601   200077 720100                    LXL0    SBIN_IDX,,AUTO
         4 014602   200007 755110                    STA     SBINS,X0,AUTO

     2485    20064    4   CLASS = 12 /* C_SBIN */ ;

  20064  4 014603   000014 235007                    LDA     12,DL
         4 014604   200162 755100                    STA     CLASS,,AUTO
         4 014605   015434 710000 4                  TRA     s:20217

     2486    20065    4   SELECT( 234 /* L_GR_DEPTHUSE */ ) ;

     2487    20066    4   SBINS(SBIN_IDX) = GRA$->GRA$REC.DEPTH_USABLE ;

  20066  4 014606   200142 470500                    LDP0    GRA$,,AUTO
         4 014607   000016 235100                    LDA     14,,PR0
         4 014610   200077 720100                    LXL0    SBIN_IDX,,AUTO
         4 014611   200007 755110                    STA     SBINS,X0,AUTO

     2488    20067    4   CLASS = 12 /* C_SBIN */ ;

  20067  4 014612   000014 236007                    LDQ     12,DL
         4 014613   200162 756100                    STQ     CLASS,,AUTO
         4 014614   015434 710000 4                  TRA     s:20217

     2489    20068    4   SELECT( 237 /* L_GR_NDCWCURRENT */ ) ;

     2490    20069    4   SBINS(SBIN_IDX) = GRA$->GRA$REC.NDC_WIDTH_CURRENT ;

  20069  4 014615   200142 470500                    LDP0    GRA$,,AUTO
         4 014616   000017 236100                    LDQ     15,,PR0
         4 014617   000022 772000                    QRL     18
         4 014620   200077 720100                    LXL0    SBIN_IDX,,AUTO
         4 014621   200007 756110                    STQ     SBINS,X0,AUTO
PL6.E3A0      #001=ASL$DISP_ONE_PROFILE File=ASL$L_PRO.:E05TSI                   TUE 07/29/97 10:26 Page:467

     2491    20070    4   CLASS = 12 /* C_SBIN */ ;

  20070  4 014622   000014 235007                    LDA     12,DL
         4 014623   200162 755100                    STA     CLASS,,AUTO
         4 014624   015434 710000 4                  TRA     s:20217

     2492    20071    4   SELECT( 236 /* L_GR_NDCHCURRENT */ ) ;

     2493    20072    4   SBINS(SBIN_IDX) = GRA$->GRA$REC.NDC_HEIGHT_CURRENT ;

  20072  4 014625   200142 470500                    LDP0    GRA$,,AUTO
         4 014626   000017 236100                    LDQ     15,,PR0
         4 014627   777777 376007                    ANQ     -1,DL
         4 014630   200077 720100                    LXL0    SBIN_IDX,,AUTO
         4 014631   200007 756110                    STQ     SBINS,X0,AUTO

     2494    20073    4   CLASS = 12 /* C_SBIN */ ;

  20073  4 014632   000014 235007                    LDA     12,DL
         4 014633   200162 755100                    STA     CLASS,,AUTO
         4 014634   015434 710000 4                  TRA     s:20217

     2495    20074    4   SELECT( 235 /* L_GR_NDCDCURRENT */ ) ;

     2496    20075    4   SBINS(SBIN_IDX) = GRA$->GRA$REC.NDC_DEPTH_CURRENT ;

  20075  4 014635   200142 470500                    LDP0    GRA$,,AUTO
         4 014636   000020 236100                    LDQ     16,,PR0
         4 014637   000022 772000                    QRL     18
         4 014640   200077 720100                    LXL0    SBIN_IDX,,AUTO
         4 014641   200007 756110                    STQ     SBINS,X0,AUTO

     2497    20076    4   CLASS = 12 /* C_SBIN */ ;

  20076  4 014642   000014 235007                    LDA     12,DL
         4 014643   200162 755100                    STA     CLASS,,AUTO
PL6.E3A0      #001=ASL$DISP_ONE_PROFILE File=ASL$L_PRO.:E05TSI                   TUE 07/29/97 10:26 Page:468
         4 014644   015434 710000 4                  TRA     s:20217

     2498    20077    4   SELECT( 238 /* L_GR_MINLINEWIDTH */ ) ;

     2499    20078    4   SBINS(SBIN_IDX) = GRA$->GRA$REC.MINIMUM_LINEWIDTH ;

  20078  4 014645   200142 470500                    LDP0    GRA$,,AUTO
         4 014646   000020 236100                    LDQ     16,,PR0
         4 014647   777777 376007                    ANQ     -1,DL
         4 014650   200077 720100                    LXL0    SBIN_IDX,,AUTO
         4 014651   200007 756110                    STQ     SBINS,X0,AUTO

     2500    20079    4   CLASS = 12 /* C_SBIN */ ;

  20079  4 014652   000014 235007                    LDA     12,DL
         4 014653   200162 755100                    STA     CLASS,,AUTO
         4 014654   015434 710000 4                  TRA     s:20217

     2501    20080    4   SELECT( 239 /* L_GR_MAXLINEWIDTH */ ) ;

     2502    20081    4   SBINS(SBIN_IDX) = GRA$->GRA$REC.MAXIMUM_LINEWIDTH ;

  20081  4 014655   200142 470500                    LDP0    GRA$,,AUTO
         4 014656   000021 236100                    LDQ     17,,PR0
         4 014657   000022 772000                    QRL     18
         4 014660   200077 720100                    LXL0    SBIN_IDX,,AUTO
         4 014661   200007 756110                    STQ     SBINS,X0,AUTO

     2503    20082    4   CLASS = 12 /* C_SBIN */ ;

  20082  4 014662   000014 235007                    LDA     12,DL
         4 014663   200162 755100                    STA     CLASS,,AUTO
         4 014664   015434 710000 4                  TRA     s:20217

     2504    20083    4   SELECT( 240 /* L_GR_MINCHSIZE */ ) ;

     2505    20084    4   SBINS(SBIN_IDX) = GRA$->GRA$REC.MIN_CHAR_SIZE ;
PL6.E3A0      #001=ASL$DISP_ONE_PROFILE File=ASL$L_PRO.:E05TSI                   TUE 07/29/97 10:26 Page:469

  20084  4 014665   200142 470500                    LDP0    GRA$,,AUTO
         4 014666   000021 236100                    LDQ     17,,PR0
         4 014667   777777 376007                    ANQ     -1,DL
         4 014670   200077 720100                    LXL0    SBIN_IDX,,AUTO
         4 014671   200007 756110                    STQ     SBINS,X0,AUTO

     2506    20085    4   CLASS = 12 /* C_SBIN */ ;

  20085  4 014672   000014 235007                    LDA     12,DL
         4 014673   200162 755100                    STA     CLASS,,AUTO
         4 014674   015434 710000 4                  TRA     s:20217

     2507    20086    4   SELECT( 241 /* L_GR_MAXCHSIZE */ ) ;

     2508    20087    4   SBINS(SBIN_IDX) = GRA$->GRA$REC.MAX_CHAR_SIZE ;

  20087  4 014675   200142 470500                    LDP0    GRA$,,AUTO
         4 014676   000022 236100                    LDQ     18,,PR0
         4 014677   000022 772000                    QRL     18
         4 014700   200077 720100                    LXL0    SBIN_IDX,,AUTO
         4 014701   200007 756110                    STQ     SBINS,X0,AUTO

     2509    20088    4   CLASS = 12 /* C_SBIN */ ;

  20088  4 014702   000014 235007                    LDA     12,DL
         4 014703   200162 755100                    STA     CLASS,,AUTO
         4 014704   015434 710000 4                  TRA     s:20217

     2510    20089    4   SELECT( 243 /* L_GR_VIEWSURFACE */ ) ;

     2511    20090    4   SBINS(SBIN_IDX) = GRA$->GRA$REC.VIEW_SURFACE ;

  20090  4 014705   200142 470500                    LDP0    GRA$,,AUTO
         4 014706   000022 236100                    LDQ     18,,PR0
         4 014707   777777 376007                    ANQ     -1,DL
         4 014710   200077 720100                    LXL0    SBIN_IDX,,AUTO
PL6.E3A0      #001=ASL$DISP_ONE_PROFILE File=ASL$L_PRO.:E05TSI                   TUE 07/29/97 10:26 Page:470
         4 014711   200007 756110                    STQ     SBINS,X0,AUTO

     2512    20091    4   CLASS = 12 /* C_SBIN */ ;

  20091  4 014712   000014 235007                    LDA     12,DL
         4 014713   200162 755100                    STA     CLASS,,AUTO
         4 014714   015434 710000 4                  TRA     s:20217

     2513    20092    4   SELECT( 244 /* L_GR_POLYGONFILL */ ) ;

     2514    20093    4   SBINS(SBIN_IDX) = GRA$->GRA$REC.POLYGON_FILL.PLAIN;

  20093  4 014715   200142 470500                    LDP0    GRA$,,AUTO
         4 014716   000023 236100                    LDQ     19,,PR0
         4 014717   000022 772000                    QRL     18
         4 014720   200077 720100                    LXL0    SBIN_IDX,,AUTO
         4 014721   200007 756110                    STQ     SBINS,X0,AUTO

     2515    20094    4   CLASS = 12 /* C_SBIN */ ;

  20094  4 014722   000014 235007                    LDA     12,DL
         4 014723   200162 755100                    STA     CLASS,,AUTO
         4 014724   015434 710000 4                  TRA     s:20217

     2516    20095    4   SELECT( 245 /* L_GR_POLYGONFILL_SHADED */ ) ;

     2517    20096    4   SBINS(SBIN_IDX) = GRA$->GRA$REC.POLYGON_FILL.SHADED;

  20096  4 014725   200142 470500                    LDP0    GRA$,,AUTO
         4 014726   000023 236100                    LDQ     19,,PR0
         4 014727   777777 376007                    ANQ     -1,DL
         4 014730   200077 720100                    LXL0    SBIN_IDX,,AUTO
         4 014731   200007 756110                    STQ     SBINS,X0,AUTO

     2518    20097    4   CLASS = 12 /* C_SBIN */ ;

  20097  4 014732   000014 235007                    LDA     12,DL
PL6.E3A0      #001=ASL$DISP_ONE_PROFILE File=ASL$L_PRO.:E05TSI                   TUE 07/29/97 10:26 Page:471
         4 014733   200162 755100                    STA     CLASS,,AUTO
         4 014734   015434 710000 4                  TRA     s:20217

     2519    20098    4   SELECT( 246 /* L_GR_POLYGONFILL_PATTERNED */ ) ;

     2520    20099    4   SBINS(SBIN_IDX) = GRA$->GRA$REC.POLYGON_FILL.PATTERNED;

  20099  4 014735   200142 470500                    LDP0    GRA$,,AUTO
         4 014736   000024 236100                    LDQ     20,,PR0
         4 014737   000022 772000                    QRL     18
         4 014740   200077 720100                    LXL0    SBIN_IDX,,AUTO
         4 014741   200007 756110                    STQ     SBINS,X0,AUTO

     2521    20100    4   CLASS = 12 /* C_SBIN */ ;

  20100  4 014742   000014 235007                    LDA     12,DL
         4 014743   200162 755100                    STA     CLASS,,AUTO
         4 014744   015434 710000 4                  TRA     s:20217

     2522    20101    4   SELECT( 247 /* L_GR_XPIXMAX */ ) ;

     2523    20102    4   SBINS(SBIN_IDX) = GRA$->GRA$REC.PIX_ARRAY_MAXX;

  20102  4 014745   200142 470500                    LDP0    GRA$,,AUTO
         4 014746   000024 236100                    LDQ     20,,PR0
         4 014747   777777 376007                    ANQ     -1,DL
         4 014750   200077 720100                    LXL0    SBIN_IDX,,AUTO
         4 014751   200007 756110                    STQ     SBINS,X0,AUTO

     2524    20103    4   CLASS = 12 /* C_SBIN */ ;

  20103  4 014752   000014 235007                    LDA     12,DL
         4 014753   200162 755100                    STA     CLASS,,AUTO
         4 014754   015434 710000 4                  TRA     s:20217

     2525    20104    4   SELECT( 248 /* L_GR_YPIXMAX */ ) ;

PL6.E3A0      #001=ASL$DISP_ONE_PROFILE File=ASL$L_PRO.:E05TSI                   TUE 07/29/97 10:26 Page:472
     2526    20105    4   SBINS(SBIN_IDX) = GRA$->GRA$REC.PIX_ARRAY_MAXY ;

  20105  4 014755   200142 470500                    LDP0    GRA$,,AUTO
         4 014756   000025 236100                    LDQ     21,,PR0
         4 014757   000022 772000                    QRL     18
         4 014760   200077 720100                    LXL0    SBIN_IDX,,AUTO
         4 014761   200007 756110                    STQ     SBINS,X0,AUTO

     2527    20106    4   CLASS = 12 /* C_SBIN */ ;

  20106  4 014762   000014 235007                    LDA     12,DL
         4 014763   200162 755100                    STA     CLASS,,AUTO
         4 014764   015434 710000 4                  TRA     s:20217

     2528    20107    4   SELECT( 249 /* L_GR_COLRTABSIZE */ ) ;

     2529    20108    4   SBINS(SBIN_IDX) = GRA$->GRA$REC.COLOR_TAB_SIZE ;

  20108  4 014765   200142 470500                    LDP0    GRA$,,AUTO
         4 014766   000025 236100                    LDQ     21,,PR0
         4 014767   777777 376007                    ANQ     -1,DL
         4 014770   200077 720100                    LXL0    SBIN_IDX,,AUTO
         4 014771   200007 756110                    STQ     SBINS,X0,AUTO

     2530    20109    4   CLASS = 12 /* C_SBIN */ ;

  20109  4 014772   000014 235007                    LDA     12,DL
         4 014773   200162 755100                    STA     CLASS,,AUTO
         4 014774   015434 710000 4                  TRA     s:20217

     2531    20110    4   SELECT( 250 /* L_GR_INTNTABSIZE */ ) ;

     2532    20111    4   SBINS(SBIN_IDX) = GRA$->GRA$REC.INTENSITY_TAB_SIZE ;

  20111  4 014775   200142 470500                    LDP0    GRA$,,AUTO
         4 014776   000026 236100                    LDQ     22,,PR0
         4 014777   000022 772000                    QRL     18
PL6.E3A0      #001=ASL$DISP_ONE_PROFILE File=ASL$L_PRO.:E05TSI                   TUE 07/29/97 10:26 Page:473
         4 015000   200077 720100                    LXL0    SBIN_IDX,,AUTO
         4 015001   200007 756110                    STQ     SBINS,X0,AUTO

     2533    20112    4   CLASS = 12 /* C_SBIN */ ;

  20112  4 015002   000014 235007                    LDA     12,DL
         4 015003   200162 755100                    STA     CLASS,,AUTO
         4 015004   015434 710000 4                  TRA     s:20217

     2534    20113    4   SELECT( 251 /* L_GR_LINESTYLEHWCOUNT */ ) ;

     2535    20114    4   SBINS(SBIN_IDX) = GRA$->GRA$REC.LINESTYLE_HARDWARE_COUNT ;

  20114  4 015005   200142 470500                    LDP0    GRA$,,AUTO
         4 015006   000026 236100                    LDQ     22,,PR0
         4 015007   777777 376007                    ANQ     -1,DL
         4 015010   200077 720100                    LXL0    SBIN_IDX,,AUTO
         4 015011   200007 756110                    STQ     SBINS,X0,AUTO

     2536    20115    4   CLASS = 12 /* C_SBIN */ ;

  20115  4 015012   000014 235007                    LDA     12,DL
         4 015013   200162 755100                    STA     CLASS,,AUTO
         4 015014   015434 710000 4                  TRA     s:20217

     2537    20116    4   SELECT( 277 /* L_GR_LINESTYLESWCOUNT */ ) ;

     2538    20117    4   SBINS(SBIN_IDX) = GRA$->GRA$REC.LINESTYLE_SOFTWARE_COUNT ;

  20117  4 015015   200142 470500                    LDP0    GRA$,,AUTO
         4 015016   000027 236100                    LDQ     23,,PR0
         4 015017   000022 772000                    QRL     18
         4 015020   200077 720100                    LXL0    SBIN_IDX,,AUTO
         4 015021   200007 756110                    STQ     SBINS,X0,AUTO

     2539    20118    4   CLASS = 12 /* C_SBIN */ ;

PL6.E3A0      #001=ASL$DISP_ONE_PROFILE File=ASL$L_PRO.:E05TSI                   TUE 07/29/97 10:26 Page:474
  20118  4 015022   000014 235007                    LDA     12,DL
         4 015023   200162 755100                    STA     CLASS,,AUTO
         4 015024   015434 710000 4                  TRA     s:20217

     2540    20119    4   SELECT( 252 /* L_GR_LINEWCOUNT */ ) ;

     2541    20120    4   SBINS(SBIN_IDX) = GRA$->GRA$REC.LINEWIDTH_COUNT ;

  20120  4 015025   200142 470500                    LDP0    GRA$,,AUTO
         4 015026   000027 236100                    LDQ     23,,PR0
         4 015027   777777 376007                    ANQ     -1,DL
         4 015030   200077 720100                    LXL0    SBIN_IDX,,AUTO
         4 015031   200007 756110                    STQ     SBINS,X0,AUTO

     2542    20121    4   CLASS = 12 /* C_SBIN */ ;

  20121  4 015032   000014 235007                    LDA     12,DL
         4 015033   200162 755100                    STA     CLASS,,AUTO
         4 015034   015434 710000 4                  TRA     s:20217

     2543    20122    4   SELECT( 253 /* L_GR_FONTCOUNT */ ) ;

     2544    20123    4   SBINS(SBIN_IDX) = GRA$->GRA$REC.FONT_COUNT ;

  20123  4 015035   200142 470500                    LDP0    GRA$,,AUTO
         4 015036   000030 236100                    LDQ     24,,PR0
         4 015037   000022 772000                    QRL     18
         4 015040   200077 720100                    LXL0    SBIN_IDX,,AUTO
         4 015041   200007 756110                    STQ     SBINS,X0,AUTO

     2545    20124    4   CLASS = 12 /* C_SBIN */ ;

  20124  4 015042   000014 235007                    LDA     12,DL
         4 015043   200162 755100                    STA     CLASS,,AUTO
         4 015044   015434 710000 4                  TRA     s:20217

     2546    20125    4   SELECT( 254 /* L_GR_PENHWCOUNT */ ) ;
PL6.E3A0      #001=ASL$DISP_ONE_PROFILE File=ASL$L_PRO.:E05TSI                   TUE 07/29/97 10:26 Page:475

     2547    20126    4   SBINS(SBIN_IDX) = GRA$->GRA$REC.PEN_HARDWARE_COUNT ;

  20126  4 015045   200142 470500                    LDP0    GRA$,,AUTO
         4 015046   000030 236100                    LDQ     24,,PR0
         4 015047   777777 376007                    ANQ     -1,DL
         4 015050   200077 720100                    LXL0    SBIN_IDX,,AUTO
         4 015051   200007 756110                    STQ     SBINS,X0,AUTO

     2548    20127    4   CLASS = 12 /* C_SBIN */ ;

  20127  4 015052   000014 235007                    LDA     12,DL
         4 015053   200162 755100                    STA     CLASS,,AUTO
         4 015054   015434 710000 4                  TRA     s:20217

     2549    20128    4   SELECT( 278 /* L_GR_PENSWCOUNT */ ) ;

     2550    20129    4   SBINS(SBIN_IDX) = GRA$->GRA$REC.PEN_SOFTWARE_COUNT ;

  20129  4 015055   200142 470500                    LDP0    GRA$,,AUTO
         4 015056   000031 236100                    LDQ     25,,PR0
         4 015057   000022 772000                    QRL     18
         4 015060   200077 720100                    LXL0    SBIN_IDX,,AUTO
         4 015061   200007 756110                    STQ     SBINS,X0,AUTO

     2551    20130    4   CLASS = 12 /* C_SBIN */ ;

  20130  4 015062   000014 235007                    LDA     12,DL
         4 015063   200162 755100                    STA     CLASS,,AUTO
         4 015064   015434 710000 4                  TRA     s:20217

     2552    20131    4   SELECT( 255 /* L_GR_CHSIZECOUNT */ ) ;

     2553    20132    4   SBINS(SBIN_IDX) = GRA$->GRA$REC.CHAR_SIZE_COUNT ;

  20132  4 015065   200142 470500                    LDP0    GRA$,,AUTO
         4 015066   000031 236100                    LDQ     25,,PR0
PL6.E3A0      #001=ASL$DISP_ONE_PROFILE File=ASL$L_PRO.:E05TSI                   TUE 07/29/97 10:26 Page:476
         4 015067   777777 376007                    ANQ     -1,DL
         4 015070   200077 720100                    LXL0    SBIN_IDX,,AUTO
         4 015071   200007 756110                    STQ     SBINS,X0,AUTO

     2554    20133    4   CLASS = 12 /* C_SBIN */ ;

  20133  4 015072   000014 235007                    LDA     12,DL
         4 015073   200162 755100                    STA     CLASS,,AUTO
         4 015074   015434 710000 4                  TRA     s:20217

     2555    20134    4   SELECT( 256 /* L_GR_MARKERHWCOUNT */ ) ;

     2556    20135    4   SBINS(SBIN_IDX) = GRA$->GRA$REC.MARKER_HARDWARE_COUNT ;

  20135  4 015075   200142 470500                    LDP0    GRA$,,AUTO
         4 015076   000032 236100                    LDQ     26,,PR0
         4 015077   000022 772000                    QRL     18
         4 015100   200077 720100                    LXL0    SBIN_IDX,,AUTO
         4 015101   200007 756110                    STQ     SBINS,X0,AUTO

     2557    20136    4   CLASS = 12 /* C_SBIN */ ;

  20136  4 015102   000014 235007                    LDA     12,DL
         4 015103   200162 755100                    STA     CLASS,,AUTO
         4 015104   015434 710000 4                  TRA     s:20217

     2558    20137    4   SELECT( 258 /* L_GR_MARKERSWCOUNT */ ) ;

     2559    20138    4   SBINS(SBIN_IDX) = GRA$->GRA$REC.MARKER_SOFTWARE_COUNT ;

  20138  4 015105   200142 470500                    LDP0    GRA$,,AUTO
         4 015106   000032 236100                    LDQ     26,,PR0
         4 015107   777777 376007                    ANQ     -1,DL
         4 015110   200077 720100                    LXL0    SBIN_IDX,,AUTO
         4 015111   200007 756110                    STQ     SBINS,X0,AUTO

     2560    20139    4   CLASS = 12 /* C_SBIN */ ;
PL6.E3A0      #001=ASL$DISP_ONE_PROFILE File=ASL$L_PRO.:E05TSI                   TUE 07/29/97 10:26 Page:477

  20139  4 015112   000014 235007                    LDA     12,DL
         4 015113   200162 755100                    STA     CLASS,,AUTO
         4 015114   015434 710000 4                  TRA     s:20217

     2561    20140    4   SELECT( 257 /* L_GR_LINEWSUPPORT */ ) ;

     2562    20141    4   SBINS (SBIN_IDX) = 0;

  20141  4 015115   200077 720100                    LXL0    SBIN_IDX,,AUTO
         4 015116   200007 450110                    STZ     SBINS,X0,AUTO

     2563    20142    4   SBINS_4.FOUR(SBIN_IDX) = GRA$->GRA$REC.LINEWIDTH_SUPPORT ;

  20142  4 015117   200142 470500                    LDP0    GRA$,,AUTO
         4 015120   000033 236100                    LDQ     27,,PR0
         4 015121   000040 772000                    QRL     32
         4 015122   200007 676110                    ERQ     SBINS,X0,AUTO
         4 015123   000017 376007                    ANQ     15,DL
         4 015124   200007 656110                    ERSQ    SBINS,X0,AUTO

     2564    20143    4   CLASS = 12 /* C_SBIN */ ;

  20143  4 015125   000014 235007                    LDA     12,DL
         4 015126   200162 755100                    STA     CLASS,,AUTO
         4 015127   015434 710000 4                  TRA     s:20217

     2565    20144    4   SELECT( 259 /* L_GR_INTNSUPPORT */ ) ;

     2566    20145    4   SBINS (SBIN_IDX) = 0;

  20145  4 015130   200077 720100                    LXL0    SBIN_IDX,,AUTO
         4 015131   200007 450110                    STZ     SBINS,X0,AUTO

     2567    20146    4   SBINS_4.FOUR(SBIN_IDX) = GRA$->GRA$REC.INTENSITY_SUPPORT ;

  20146  4 015132   200142 470500                    LDP0    GRA$,,AUTO
PL6.E3A0      #001=ASL$DISP_ONE_PROFILE File=ASL$L_PRO.:E05TSI                   TUE 07/29/97 10:26 Page:478
         4 015133   000033 236100                    LDQ     27,,PR0
         4 015134   000030 772000                    QRL     24
         4 015135   200007 676110                    ERQ     SBINS,X0,AUTO
         4 015136   000017 376007                    ANQ     15,DL
         4 015137   200007 656110                    ERSQ    SBINS,X0,AUTO

     2568    20147    4   CLASS = 12 /* C_SBIN */ ;

  20147  4 015140   000014 235007                    LDA     12,DL
         4 015141   200162 755100                    STA     CLASS,,AUTO
         4 015142   015434 710000 4                  TRA     s:20217

     2569    20148    4   SELECT( 260 /* L_GR_CHSIZESUPPORT */ ) ;

     2570    20149    4   SBINS (SBIN_IDX) = 0;

  20149  4 015143   200077 720100                    LXL0    SBIN_IDX,,AUTO
         4 015144   200007 450110                    STZ     SBINS,X0,AUTO

     2571    20150    4   SBINS_4.FOUR(SBIN_IDX) = GRA$->GRA$REC.CHARSIZE_SUPPORT ;

  20150  4 015145   200142 470500                    LDP0    GRA$,,AUTO
         4 015146   000033 236100                    LDQ     27,,PR0
         4 015147   000034 772000                    QRL     28
         4 015150   200007 676110                    ERQ     SBINS,X0,AUTO
         4 015151   000017 376007                    ANQ     15,DL
         4 015152   200007 656110                    ERSQ    SBINS,X0,AUTO

     2572    20151    4   CLASS = 12 /* C_SBIN */ ;

  20151  4 015153   000014 235007                    LDA     12,DL
         4 015154   200162 755100                    STA     CLASS,,AUTO
         4 015155   015434 710000 4                  TRA     s:20217

     2573    20152    4   SELECT( 261 /* L_GR_HIGHLTSUPPORT */ ) ;

     2574    20153    4   SBINS (SBIN_IDX) = 0;
PL6.E3A0      #001=ASL$DISP_ONE_PROFILE File=ASL$L_PRO.:E05TSI                   TUE 07/29/97 10:26 Page:479

  20153  4 015156   200077 720100                    LXL0    SBIN_IDX,,AUTO
         4 015157   200007 450110                    STZ     SBINS,X0,AUTO

     2575    20154    4   SBINS_4.FOUR(SBIN_IDX) = GRA$->GRA$REC.HIGHLIGHT_SUPPORT ;

  20154  4 015160   200142 470500                    LDP0    GRA$,,AUTO
         4 015161   000033 236100                    LDQ     27,,PR0
         4 015162   000024 772000                    QRL     20
         4 015163   200007 676110                    ERQ     SBINS,X0,AUTO
         4 015164   000017 376007                    ANQ     15,DL
         4 015165   200007 656110                    ERSQ    SBINS,X0,AUTO

     2576    20155    4   CLASS = 12 /* C_SBIN */ ;

  20155  4 015166   000014 235007                    LDA     12,DL
         4 015167   200162 755100                    STA     CLASS,,AUTO
         4 015170   015434 710000 4                  TRA     s:20217

     2577    20156    4   SELECT( 262 /* L_GR_OUTLEVEL */ ) ;

     2578    20157    4   SBINS (SBIN_IDX) = 0;

  20157  4 015171   200077 720100                    LXL0    SBIN_IDX,,AUTO
         4 015172   200007 450110                    STZ     SBINS,X0,AUTO

     2579    20158    4   SBINS_6.SIX(SBIN_IDX) = GRA$->GRA$REC.OUTPUT_LEVEL ;

  20158  4 015173   200142 470500                    LDP0    GRA$,,AUTO
         4 015174   000033 236100                    LDQ     27,,PR0
         4 015175   000016 772000                    QRL     14
         4 015176   200007 676110                    ERQ     SBINS,X0,AUTO
         4 015177   000077 376007                    ANQ     63,DL
         4 015200   200007 656110                    ERSQ    SBINS,X0,AUTO

     2580    20159    4   CLASS = 12 /* C_SBIN */ ;

PL6.E3A0      #001=ASL$DISP_ONE_PROFILE File=ASL$L_PRO.:E05TSI                   TUE 07/29/97 10:26 Page:480
  20159  4 015201   000014 236007                    LDQ     12,DL
         4 015202   200162 756100                    STQ     CLASS,,AUTO
         4 015203   015434 710000 4                  TRA     s:20217

     2581    20160    4   SELECT( 263 /* L_GR_BATCHMODE */ ) ;

     2582    20161    4   SBINS (SBIN_IDX) = 0;

  20161  4 015204   200077 720100                    LXL0    SBIN_IDX,,AUTO
         4 015205   200007 450110                    STZ     SBINS,X0,AUTO

     2583    20162    4   SBINS_4.FOUR(SBIN_IDX) = GRA$->GRA$REC.BATCH_MODE ;

  20162  4 015206   200142 470500                    LDP0    GRA$,,AUTO
         4 015207   000033 236100                    LDQ     27,,PR0
         4 015210   000012 772000                    QRL     10
         4 015211   200007 676110                    ERQ     SBINS,X0,AUTO
         4 015212   000017 376007                    ANQ     15,DL
         4 015213   200007 656110                    ERSQ    SBINS,X0,AUTO

     2584    20163    4   CLASS = 12 /* C_SBIN */ ;

  20163  4 015214   000014 235007                    LDA     12,DL
         4 015215   200162 755100                    STA     CLASS,,AUTO
         4 015216   015434 710000 4                  TRA     s:20217

     2585    20164    4   SELECT( 264 /* L_GR_HIDDENLEVEL */ ) ;

     2586    20165    4   SBINS (SBIN_IDX) = 0;

  20165  4 015217   200077 720100                    LXL0    SBIN_IDX,,AUTO
         4 015220   200007 450110                    STZ     SBINS,X0,AUTO

     2587    20166    4   SBINS_4.FOUR(SBIN_IDX) = GRA$->GRA$REC.HIDDEN_SURFACE_LEVEL ;

  20166  4 015221   200142 470500                    LDP0    GRA$,,AUTO
         4 015222   000033 236100                    LDQ     27,,PR0
PL6.E3A0      #001=ASL$DISP_ONE_PROFILE File=ASL$L_PRO.:E05TSI                   TUE 07/29/97 10:26 Page:481
         4 015223   000006 772000                    QRL     6
         4 015224   200007 676110                    ERQ     SBINS,X0,AUTO
         4 015225   000017 376007                    ANQ     15,DL
         4 015226   200007 656110                    ERSQ    SBINS,X0,AUTO

     2588    20167    4   CLASS = 12 /* C_SBIN */ ;

  20167  4 015227   000014 235007                    LDA     12,DL
         4 015230   200162 755100                    STA     CLASS,,AUTO
         4 015231   015434 710000 4                  TRA     s:20217

     2589    20168    4   SELECT( 265 /* L_GR_DIMLEVEL */ ) ;

     2590    20169    4   SBINS (SBIN_IDX) = 0;

  20169  4 015232   200077 720100                    LXL0    SBIN_IDX,,AUTO
         4 015233   200007 450110                    STZ     SBINS,X0,AUTO

     2591    20170    4   SBINS_2.TWO(SBIN_IDX) = GRA$->GRA$REC.DIMENSION_LEVEL ;

  20170  4 015234   200142 470500                    LDP0    GRA$,,AUTO
         4 015235   000033 236100                    LDQ     27,,PR0
         4 015236   000004 772000                    QRL     4
         4 015237   200007 676110                    ERQ     SBINS,X0,AUTO
         4 015240   000003 376007                    ANQ     3,DL
         4 015241   200007 656110                    ERSQ    SBINS,X0,AUTO

     2592    20171    4   CLASS = 12 /* C_SBIN */ ;

  20171  4 015242   000014 235007                    LDA     12,DL
         4 015243   200162 755100                    STA     CLASS,,AUTO
         4 015244   015434 710000 4                  TRA     s:20217

     2593    20172    4   SELECT( 266 /* L_GR_VIEWTYPE */ ) ;

     2594    20173    4   SBINS (SBIN_IDX) = 0;

PL6.E3A0      #001=ASL$DISP_ONE_PROFILE File=ASL$L_PRO.:E05TSI                   TUE 07/29/97 10:26 Page:482
  20173  4 015245   200077 720100                    LXL0    SBIN_IDX,,AUTO
         4 015246   200007 450110                    STZ     SBINS,X0,AUTO

     2595    20174    4   SBINS_4.FOUR(SBIN_IDX) = GRA$->GRA$REC.VIEW_SURFACE_TYPE ;

  20174  4 015247   200142 470500                    LDP0    GRA$,,AUTO
         4 015250   000033 236100                    LDQ     27,,PR0
         4 015251   200007 676110                    ERQ     SBINS,X0,AUTO
         4 015252   000017 376007                    ANQ     15,DL
         4 015253   200007 656110                    ERSQ    SBINS,X0,AUTO

     2596    20175    4   CLASS = 12 /* C_SBIN */ ;

  20175  4 015254   000014 236007                    LDQ     12,DL
         4 015255   200162 756100                    STQ     CLASS,,AUTO
         4 015256   015434 710000 4                  TRA     s:20217

     2597    20176    4   SELECT( 267 /* L_GR_PIXELTYPE */ ) ;

     2598    20177    4   SBINS (SBIN_IDX) = 0;

  20177  4 015257   200077 720100                    LXL0    SBIN_IDX,,AUTO
         4 015260   200007 450110                    STZ     SBINS,X0,AUTO

     2599    20178    4   SBINS_4.FOUR(SBIN_IDX) = GRA$->GRA$REC.PIXEL_TYPE ;

  20178  4 015261   200142 470500                    LDP0    GRA$,,AUTO
         4 015262   000034 236100                    LDQ     28,,PR0
         4 015263   000040 772000                    QRL     32
         4 015264   200007 676110                    ERQ     SBINS,X0,AUTO
         4 015265   000017 376007                    ANQ     15,DL
         4 015266   200007 656110                    ERSQ    SBINS,X0,AUTO

     2600    20179    4   CLASS = 12 /* C_SBIN */ ;

  20179  4 015267   000014 235007                    LDA     12,DL
         4 015270   200162 755100                    STA     CLASS,,AUTO
PL6.E3A0      #001=ASL$DISP_ONE_PROFILE File=ASL$L_PRO.:E05TSI                   TUE 07/29/97 10:26 Page:483
         4 015271   015434 710000 4                  TRA     s:20217

     2601    20180    4   SELECT( 268 /* L_GR_EDGETYPE */ ) ;

     2602    20181    4   SBINS (SBIN_IDX) = 0;

  20181  4 015272   200077 720100                    LXL0    SBIN_IDX,,AUTO
         4 015273   200007 450110                    STZ     SBINS,X0,AUTO

     2603    20182    4   SBINS_4.FOUR(SBIN_IDX) = GRA$->GRA$REC.EDGE_TYPE ;

  20182  4 015274   200142 470500                    LDP0    GRA$,,AUTO
         4 015275   000034 236100                    LDQ     28,,PR0
         4 015276   000034 772000                    QRL     28
         4 015277   200007 676110                    ERQ     SBINS,X0,AUTO
         4 015300   000017 376007                    ANQ     15,DL
         4 015301   200007 656110                    ERSQ    SBINS,X0,AUTO

     2604    20183    4   CLASS = 12 /* C_SBIN */ ;

  20183  4 015302   000014 236007                    LDQ     12,DL
         4 015303   200162 756100                    STQ     CLASS,,AUTO
         4 015304   015434 710000 4                  TRA     s:20217

     2605    20184    4   SELECT( 269 /* L_GR_COLRTABTYPE */ ) ;

     2606    20185    4   SBINS (SBIN_IDX) = 0;

  20185  4 015305   200077 720100                    LXL0    SBIN_IDX,,AUTO
         4 015306   200007 450110                    STZ     SBINS,X0,AUTO

     2607    20186    4   SBINS_4.FOUR(SBIN_IDX) = GRA$->GRA$REC.COLOR_TABLE_TYPE ;

  20186  4 015307   200142 470500                    LDP0    GRA$,,AUTO
         4 015310   000034 236100                    LDQ     28,,PR0
         4 015311   000030 772000                    QRL     24
         4 015312   200007 676110                    ERQ     SBINS,X0,AUTO
PL6.E3A0      #001=ASL$DISP_ONE_PROFILE File=ASL$L_PRO.:E05TSI                   TUE 07/29/97 10:26 Page:484
         4 015313   000017 376007                    ANQ     15,DL
         4 015314   200007 656110                    ERSQ    SBINS,X0,AUTO

     2608    20187    4   CLASS = 12 /* C_SBIN */ ;

  20187  4 015315   000014 236007                    LDQ     12,DL
         4 015316   200162 756100                    STQ     CLASS,,AUTO
         4 015317   015434 710000 4                  TRA     s:20217

     2609    20188    4   SELECT( 270 /* L_GR_BKGRNDTYPE */ ) ;

     2610    20189    4   SBINS (SBIN_IDX) = 0;

  20189  4 015320   200077 720100                    LXL0    SBIN_IDX,,AUTO
         4 015321   200007 450110                    STZ     SBINS,X0,AUTO

     2611    20190    4   SBINS_2.TWO(SBIN_IDX) = GRA$->GRA$REC.BACKGROUND_TYPE ;

  20190  4 015322   200142 470500                    LDP0    GRA$,,AUTO
         4 015323   000034 236100                    LDQ     28,,PR0
         4 015324   000026 772000                    QRL     22
         4 015325   200007 676110                    ERQ     SBINS,X0,AUTO
         4 015326   000003 376007                    ANQ     3,DL
         4 015327   200007 656110                    ERSQ    SBINS,X0,AUTO

     2612    20191    4   CLASS = 12 /* C_SBIN */ ;

  20191  4 015330   000014 236007                    LDQ     12,DL
         4 015331   200162 756100                    STQ     CLASS,,AUTO
         4 015332   015434 710000 4                  TRA     s:20217

     2613    20192    4   SELECT( 271 /* L_GR_DEVTYPE */ ) ;

     2614    20193    4   SBINS (SBIN_IDX) = 0;

  20193  4 015333   200077 720100                    LXL0    SBIN_IDX,,AUTO
         4 015334   200007 450110                    STZ     SBINS,X0,AUTO
PL6.E3A0      #001=ASL$DISP_ONE_PROFILE File=ASL$L_PRO.:E05TSI                   TUE 07/29/97 10:26 Page:485

     2615    20194    4   SBINS_2.TWO(SBIN_IDX) = GRA$->GRA$REC.DEVICE_TYPE ;

  20194  4 015335   200142 470500                    LDP0    GRA$,,AUTO
         4 015336   000034 236100                    LDQ     28,,PR0
         4 015337   000024 772000                    QRL     20
         4 015340   200007 676110                    ERQ     SBINS,X0,AUTO
         4 015341   000003 376007                    ANQ     3,DL
         4 015342   200007 656110                    ERSQ    SBINS,X0,AUTO

     2616    20195    4   CLASS = 12 /* C_SBIN */ ;

  20195  4 015343   000014 236007                    LDQ     12,DL
         4 015344   200162 756100                    STQ     CLASS,,AUTO
         4 015345   015434 710000 4                  TRA     s:20217

     2617    20196    4   SELECT( 272 /* L_GR_IMAGETRANS */ ) ;

     2618    20197    4   SBINS (SBIN_IDX) = 0;

  20197  4 015346   200077 720100                    LXL0    SBIN_IDX,,AUTO
         4 015347   200007 450110                    STZ     SBINS,X0,AUTO

     2619    20198    4   SBINS_4.FOUR(SBIN_IDX) = GRA$->GRA$REC.IMAGE_TRANSF ;

  20198  4 015350   200142 470500                    LDP0    GRA$,,AUTO
         4 015351   000034 236100                    LDQ     28,,PR0
         4 015352   000020 772000                    QRL     16
         4 015353   200007 676110                    ERQ     SBINS,X0,AUTO
         4 015354   000017 376007                    ANQ     15,DL
         4 015355   200007 656110                    ERSQ    SBINS,X0,AUTO

     2620    20199    4   CLASS = 12 /* C_SBIN */ ;

  20199  4 015356   000014 236007                    LDQ     12,DL
         4 015357   200162 756100                    STQ     CLASS,,AUTO
         4 015360   015434 710000 4                  TRA     s:20217
PL6.E3A0      #001=ASL$DISP_ONE_PROFILE File=ASL$L_PRO.:E05TSI                   TUE 07/29/97 10:26 Page:486

     2621    20200    4   SELECT( 273 /* L_GR_COLRMODEL */ ) ;

     2622    20201    4   SBINS (SBIN_IDX) = 0;

  20201  4 015361   200077 720100                    LXL0    SBIN_IDX,,AUTO
         4 015362   200007 450110                    STZ     SBINS,X0,AUTO

     2623    20202    4   SBINS_2.TWO(SBIN_IDX) = GRA$->GRA$REC.COLOR_MODEL ;

  20202  4 015363   200142 470500                    LDP0    GRA$,,AUTO
         4 015364   000034 236100                    LDQ     28,,PR0
         4 015365   000016 772000                    QRL     14
         4 015366   200007 676110                    ERQ     SBINS,X0,AUTO
         4 015367   000003 376007                    ANQ     3,DL
         4 015370   200007 656110                    ERSQ    SBINS,X0,AUTO

     2624    20203    4   CLASS = 12 /* C_SBIN */ ;

  20203  4 015371   000014 236007                    LDQ     12,DL
         4 015372   200162 756100                    STQ     CLASS,,AUTO
         4 015373   015434 710000 4                  TRA     s:20217

     2625    20204    4   SELECT( 274 /* L_GR_BKGRNDCOLOR */ ) ;

     2626    20205    4   SBINS (SBIN_IDX) = 0;

  20205  4 015374   200077 720100                    LXL0    SBIN_IDX,,AUTO
         4 015375   200007 450110                    STZ     SBINS,X0,AUTO

     2627    20206    4   SBINS_2.TWO(SBIN_IDX) = GRA$->GRA$REC.BACKGROUND_COLOR ;

  20206  4 015376   200142 470500                    LDP0    GRA$,,AUTO
         4 015377   000034 236100                    LDQ     28,,PR0
         4 015400   000014 772000                    QRL     12
         4 015401   200007 676110                    ERQ     SBINS,X0,AUTO
         4 015402   000003 376007                    ANQ     3,DL
PL6.E3A0      #001=ASL$DISP_ONE_PROFILE File=ASL$L_PRO.:E05TSI                   TUE 07/29/97 10:26 Page:487
         4 015403   200007 656110                    ERSQ    SBINS,X0,AUTO

     2628    20207    4   CLASS = 12 /* C_SBIN */ ;

  20207  4 015404   000014 236007                    LDQ     12,DL
         4 015405   200162 756100                    STQ     CLASS,,AUTO
         4 015406   015434 710000 4                  TRA     s:20217

     2629    20208    4   SELECT( 275 /* L_GR_COLRACTION */ ) ;

     2630    20209    4   SBINS (SBIN_IDX) = 0;

  20209  4 015407   200077 720100                    LXL0    SBIN_IDX,,AUTO
         4 015410   200007 450110                    STZ     SBINS,X0,AUTO

     2631    20210    4   SBINS_4.FOUR(SBIN_IDX) = GRA$->GRA$REC.COLOR_ACTION ;

  20210  4 015411   200142 470500                    LDP0    GRA$,,AUTO
         4 015412   000034 236100                    LDQ     28,,PR0
         4 015413   000010 772000                    QRL     8
         4 015414   200007 676110                    ERQ     SBINS,X0,AUTO
         4 015415   000017 376007                    ANQ     15,DL
         4 015416   200007 656110                    ERSQ    SBINS,X0,AUTO

     2632    20211    4   CLASS = 12 /* C_SBIN */ ;

  20211  4 015417   000014 236007                    LDQ     12,DL
         4 015420   200162 756100                    STQ     CLASS,,AUTO
         4 015421   015434 710000 4                  TRA     s:20217

     2633    20212    4   SELECT( 276 /* L_GR_INTNACTION */ ) ;

     2634    20213    4   SBINS (SBIN_IDX) = 0;

  20213  4 015422   200077 720100                    LXL0    SBIN_IDX,,AUTO
         4 015423   200007 450110                    STZ     SBINS,X0,AUTO

PL6.E3A0      #001=ASL$DISP_ONE_PROFILE File=ASL$L_PRO.:E05TSI                   TUE 07/29/97 10:26 Page:488
     2635    20214    4   SBINS_4.FOUR(SBIN_IDX) = GRA$->GRA$REC.INTENSITY_ACTION ;

  20214  4 015424   200142 470500                    LDP0    GRA$,,AUTO
         4 015425   000034 236100                    LDQ     28,,PR0
         4 015426   000004 772000                    QRL     4
         4 015427   200007 676110                    ERQ     SBINS,X0,AUTO
         4 015430   000017 376007                    ANQ     15,DL
         4 015431   200007 656110                    ERSQ    SBINS,X0,AUTO

     2636    20215    4   CLASS = 12 /* C_SBIN */ ;

  20215  4 015432   000014 236007                    LDQ     12,DL
         4 015433   200162 756100                    STQ     CLASS,,AUTO

     2637    20216    4      END ;                          /* Do case                            */

     2638    20217    4   DO SELECT( CLASS ) ;

  20217  4 015434   200162 236100                    LDQ     CLASS,,AUTO
         4 015435   000015 116007                    CMPQ    13,DL
         4 015436   015457 604000 4                  TMI     s:20217+19
         4 015437   015571 600000 4                  TZE     s:20238
         4 015440   000017 116007                    CMPQ    15,DL
         4 015441   015454 604000 4                  TMI     s:20217+16
         4 015442   015760 600000 4                  TZE     s:20265
         4 015443   000021 116007                    CMPQ    17,DL
         4 015444   015451 604000 4                  TMI     s:20217+13
         4 015445   016102 600000 4                  TZE     s:20286
         4 015446   000034 116007                    CMPQ    28,DL
         4 015447   016271 601000 4                  TNZ     s:20332
         4 015450   016271 710000 4                  TRA     s:20332
         4 015451   000020 116007                    CMPQ    16,DL
         4 015452   016271 601000 4                  TNZ     s:20332
         4 015453   016012 710000 4                  TRA     s:20272
         4 015454   000016 116007                    CMPQ    14,DL
         4 015455   016271 601000 4                  TNZ     s:20332
         4 015456   015650 710000 4                  TRA     s:20251
PL6.E3A0      #001=ASL$DISP_ONE_PROFILE File=ASL$L_PRO.:E05TSI                   TUE 07/29/97 10:26 Page:489
         4 015457   000002 116007                    CMPQ    2,DL
         4 015460   015465 604000 4                  TMI     s:20217+25
         4 015461   015504 600000 4                  TZE     s:20223
         4 015462   000014 116007                    CMPQ    12,DL
         4 015463   016271 601000 4                  TNZ     s:20332
         4 015464   015541 710000 4                  TRA     s:20232
         4 015465   000001 116007                    CMPQ    1,DL
         4 015466   016271 601000 4                  TNZ     s:20332
         4 015467   015470 710000 4                  TRA     s:20219

     2639    20218    4      SELECT(1 /* C_TEXT */) ;

     2640    20219    4      FDS.NVECS# = FDS.NVECS# + 1 ;

  20219  4 015470   000011 054000 xsym               AOS     FDS+9

     2641    20220    4      CALL INSERT(FMT_BUF,FDS.FMT_.BOUND+1,3,'%>A') ;

  20220  4 015471   000000 236000 xsym               LDQ     FDS
         4 015472   000020 772000                    QRL     16
         4 015473   040006 100400                    MLR     fill='040'O
         4 015474   003765 000003 3                  ADSC9   FUNKEY_NAMES+1546        cn=0,n=3
         4 015475   000000 200003 xsym               ADSC9   FMT_BUF,Q                cn=1,n=3

     2642    20221    4      FDS.FMT_.BOUND = FDS.FMT_.BOUND + 3 ;

  20221  4 015476   000003 036007                    ADLQ    3,DL
         4 015477   000020 736000                    QLS     16
         4 015500   000000 676000 xsym               ERQ     FDS
         4 015501   000034 376000 xsym               ANQ     B_VECTNIL+28
         4 015502   000000 656000 xsym               ERSQ    FDS
         4 015503   016271 710000 4                  TRA     s:20332

     2643    20222    4      SELECT(2 /* C_YESNO */) ;

     2644    20223    4      IF YES_NO

PL6.E3A0      #001=ASL$DISP_ONE_PROFILE File=ASL$L_PRO.:E05TSI                   TUE 07/29/97 10:26 Page:490
  20223  4 015504   200165 234100                    SZN     YES_NO,,AUTO
         4 015505   015516 605000 4                  TPL     s:20227

     2645    20224    4      THEN
     2646    20225    4         FMT_VEC(FDS.NVECS#) = VECTOR(YES_STR) ;

  20225  4 015506   000011 235000 xsym               LDA     FDS+9
         4 015507   000001 735000                    ALS     1
         4 015510   000000 620005                    EAX0    0,AL
         4 015511   000000 621005                    EAX1    0,AL
         4 015512   000164 237000 5                  LDAQ    116
         4 015513   000000 755010 xsym               STA     FMT_VEC,X0
         4 015514   000001 756011 xsym               STQ     FMT_VEC+1,X1
         4 015515   015525 710000 4                  TRA     s:20228

     2647    20226    4      ELSE
     2648    20227    4         FMT_VEC(FDS.NVECS#) = VECTOR(NO_STR) ;

  20227  4 015516   000011 235000 xsym               LDA     FDS+9
         4 015517   000001 735000                    ALS     1
         4 015520   000000 620005                    EAX0    0,AL
         4 015521   000000 621005                    EAX1    0,AL
         4 015522   000162 237000 5                  LDAQ    114
         4 015523   000000 755010 xsym               STA     FMT_VEC,X0
         4 015524   000001 756011 xsym               STQ     FMT_VEC+1,X1

     2649    20228    4      FDS.NVECS# = FDS.NVECS# + 1 ;

  20228  4 015525   000011 054000 xsym               AOS     FDS+9

     2650    20229    4      CALL INSERT(FMT_BUF,FDS.FMT_.BOUND+1,3,'%>A') ;

  20229  4 015526   000000 236000 xsym               LDQ     FDS
         4 015527   000020 772000                    QRL     16
         4 015530   040006 100400                    MLR     fill='040'O
         4 015531   003765 000003 3                  ADSC9   FUNKEY_NAMES+1546        cn=0,n=3
         4 015532   000000 200003 xsym               ADSC9   FMT_BUF,Q                cn=1,n=3
PL6.E3A0      #001=ASL$DISP_ONE_PROFILE File=ASL$L_PRO.:E05TSI                   TUE 07/29/97 10:26 Page:491

     2651    20230    4      FDS.FMT_.BOUND = FDS.FMT_.BOUND + 3 ;

  20230  4 015533   000003 036007                    ADLQ    3,DL
         4 015534   000020 736000                    QLS     16
         4 015535   000000 676000 xsym               ERQ     FDS
         4 015536   000034 376000 xsym               ANQ     B_VECTNIL+28
         4 015537   000000 656000 xsym               ERSQ    FDS
         4 015540   016271 710000 4                  TRA     s:20332

     2652    20231    4      SELECT(12 /* C_SBIN */) ;

     2653    20232    4      FMT_VEC(FDS.NVECS#) = VECTOR(SBINS(SBIN_IDX)) ;

  20232  4 015541   000011 235000 xsym               LDA     FDS+9
         4 015542   000001 735000                    ALS     1
         4 015543   000000 620005                    EAX0    0,AL
         4 015544   777640 235007                    LDA     -96,DL
         4 015545   200366 452500                    STP2    TEMP+4,,AUTO
         4 015546   200077 236100                    LDQ     SBIN_IDX,,AUTO
         4 015547   000022 736000                    QLS     18
         4 015550   000007 036003                    ADLQ    7,DU
         4 015551   200366 036100                    ADLQ    TEMP+4,,AUTO
         4 015552   000000 755010 xsym               STA     FMT_VEC,X0
         4 015553   000001 756010 xsym               STQ     FMT_VEC+1,X0

     2654    20233    4      FDS.NVECS# = FDS.NVECS# + 1 ;

  20233  4 015554   000011 054000 xsym               AOS     FDS+9

     2655    20234    4      SBIN_IDX = SBIN_IDX + 1 ;

  20234  4 015555   200077 054100                    AOS     SBIN_IDX,,AUTO

     2656    20235    4      CALL INSERT(FMT_BUF,FDS.FMT_.BOUND+1,3,'%+D') ;

  20235  4 015556   000000 236000 xsym               LDQ     FDS
PL6.E3A0      #001=ASL$DISP_ONE_PROFILE File=ASL$L_PRO.:E05TSI                   TUE 07/29/97 10:26 Page:492
         4 015557   000020 772000                    QRL     16
         4 015560   040006 100400                    MLR     fill='040'O
         4 015561   003766 000003 3                  ADSC9   FUNKEY_NAMES+1547        cn=0,n=3
         4 015562   000000 200003 xsym               ADSC9   FMT_BUF,Q                cn=1,n=3

     2657    20236    4      FDS.FMT_.BOUND = FDS.FMT_.BOUND + 3 ;

  20236  4 015563   000003 036007                    ADLQ    3,DL
         4 015564   000020 736000                    QLS     16
         4 015565   000000 676000 xsym               ERQ     FDS
         4 015566   000034 376000 xsym               ANQ     B_VECTNIL+28
         4 015567   000000 656000 xsym               ERSQ    FDS
         4 015570   016271 710000 4                  TRA     s:20332

     2658    20237    4      SELECT(13 /* C_REAL */) ;

     2659    20238    4      SVAL = SBINS(SBIN_IDX)/10 ;

  20238  4 015571   200077 720100                    LXL0    SBIN_IDX,,AUTO
         4 015572   200007 236110                    LDQ     SBINS,X0,AUTO
         4 015573   000012 506007                    DIV     10,DL
         4 015574   200166 756100                    STQ     SVAL,,AUTO

     2660    20239    4      SBINS(SBIN_IDX+1) = SBINS(SBIN_IDX) - SVAL*10 ;

  20239  4 015575   000241 402000 5                  MPY     161
         4 015576   200007 036110                    ADLQ    SBINS,X0,AUTO
         4 015577   200010 756110                    STQ     SBINS+1,X0,AUTO

     2661    20240    4      SBINS(SBIN_IDX) = SVAL ;

  20240  4 015600   200166 235100                    LDA     SVAL,,AUTO
         4 015601   200007 755110                    STA     SBINS,X0,AUTO

     2662    20241    4      IF SBINS(SBIN_IDX+1)<0

  20241  4 015602   200010 235110                    LDA     SBINS+1,X0,AUTO
PL6.E3A0      #001=ASL$DISP_ONE_PROFILE File=ASL$L_PRO.:E05TSI                   TUE 07/29/97 10:26 Page:493
         4 015603   015607 605000 4                  TPL     s:20244

     2663    20242    4      THEN
     2664    20243    4         SBINS(SBIN_IDX+1) = SBINS(SBIN_IDX+1)*-1 ;

  20243  4 015604   200010 235110                    LDA     SBINS+1,X0,AUTO
         4 015605   000000 531000                    NEG     0
         4 015606   200010 755110                    STA     SBINS+1,X0,AUTO

     2665    20244    4      FMT_VEC(FDS.NVECS#) = VECTOR(SBINS(SBIN_IDX)) ;

  20244  4 015607   000011 236000 xsym               LDQ     FDS+9
         4 015610   000001 736000                    QLS     1
         4 015611   777640 235007                    LDA     -96,DL
         4 015612   200366 452500                    STP2    TEMP+4,,AUTO
         4 015613   000000 621006                    EAX1    0,QL
         4 015614   200077 236100                    LDQ     SBIN_IDX,,AUTO
         4 015615   000022 736000                    QLS     18
         4 015616   000007 036003                    ADLQ    7,DU
         4 015617   200366 036100                    ADLQ    TEMP+4,,AUTO
         4 015620   000000 755011 xsym               STA     FMT_VEC,X1
         4 015621   000001 756011 xsym               STQ     FMT_VEC+1,X1

     2666    20245    4      FMT_VEC(FDS.NVECS#+1) = VECTOR(SBINS(SBIN_IDX+1)) ;

  20245  4 015622   777640 235007                    LDA     -96,DL
         4 015623   200366 452500                    STP2    TEMP+4,,AUTO
         4 015624   200077 236100                    LDQ     SBIN_IDX,,AUTO
         4 015625   000022 736000                    QLS     18
         4 015626   000010 036003                    ADLQ    8,DU
         4 015627   200366 036100                    ADLQ    TEMP+4,,AUTO
         4 015630   000002 755011 xsym               STA     FMT_VEC+2,X1
         4 015631   000003 756011 xsym               STQ     FMT_VEC+3,X1

     2667    20246    4      FDS.NVECS# = FDS.NVECS# + 2 ;

  20246  4 015632   000002 236007                    LDQ     2,DL
