VERSION E05

PL6.E3A0      #001=ASR$D_CHARSET_RECS File=ASR$DELETE_CHARSETS.:E05TSI           TUE 07/29/97 10:42 Page:1
        1        1        /*M* ASR$D_CHARSET_RECS - processes DELETE CHARSETS command.   */
        2        2        /*T***********************************************************/
        3        3        /*T*                                                         */
        4        4        /*T* Copyright (c) Bull HN Information Systems Inc., 1997    */
        5        5        /*T*                                                         */
        6        6        /*T***********************************************************/
        7        7        /*X*  DMC,DMR,CCC,PLM=0,IND=3,CTI=5,DCI=6,IAD=0,DTI=0,IDT=0,ENI=3,
        8        8              ECU=3,CSU=3,SDI=3                                           */
        9        9                                                              /**/
       10       10        ASR$D_CHARSET_RECS: PROC;
       11       11
       12       12        /*P* NAME:    ASR$D_CHARSET_RECS
       13       13             PURPOSE: Process DELETE CHARSETS command.
       14       14             DESCRIPTION:
       15       15             This module deletes all the charset records in :FORM and then
       16       16             rebuilds all the defaults by calling ASC$BUILD_CHARSET.
       17       17        */
       18       18
       19       19        %INCLUDE    CP_6;
       20     5578        %INCLUDE    AS_ENTRIES_M ;
       21     6628        %INCLUDE    AS_SUPER_C ;
       22     7063        %INCLUDE    AS_SUBS_C  ;
       23     8477        %INCLUDE    AS_MAC_C   ;
       24     8557        %INCLUDE    KL_SUPER_C ;
       25    11459        %INCLUDE    XU_MACRO_C ;
       26    14565        %INCLUDE    XU_FORMAT_C ;
       27    14727        %INCLUDE    AS_PERR_C ;
       28    15329        %INCLUDE    AS_SUPER_R ;
       29    18345    1   DCL M$FORM DCB;
       30    18346        %ASB$WRITE_LO ;
       31    18349        %ASC$BUILD_CHARSET ;
       32    18352    1   DCL MESS CHAR(0) CONSTANT INIT
       33    18353    1   (' --- All charset records deleted, defaults being rebuilt. ---');
       34    18354    1   DCL ARS UBIN WORD;
       35    18355        %FPT_DELREC (DCB=M$FORM,KEY=K1,LKEY=K2);
       36    18374        %VLP_NAME (FPTN=K1,NAME='~        ');
       37    18401        %VLP_NAME (FPTN=K2,NAME='~~~~~~~~');
PL6.E3A0      #001=ASR$D_CHARSET_RECS File=ASR$DELETE_CHARSETS.:E05TSI           TUE 07/29/97 10:42 Page:2
       38    18428        /*
       39    18429            ***            Begin procedure                    ***
       40    18430        */
       41    18431    1   CALL M$DELREC( FPT_DELREC );
       42    18432    1   CALL ASC$BUILD_CHARSET;
       43    18433    1   CALL ASB$WRITE_LO( AS_BLANK, 1 );
       44    18434    1   CALL ASB$WRITE_LO( MESS, LENGTHC( MESS ) );
       45    18435    1   CALL ASB$WRITE_LO( AS_BLANK, 1 );
       46    18436
       47    18437    1   RETURN;
       48    18438    1   END ASR$D_CHARSET_RECS;

PL6.E3A0      #001=ASR$D_CHARSET_RECS File=ASR$DELETE_CHARSETS.:E05TSI           TUE 07/29/97 10:42 Page:3
--  Include file information  --

   AS_SUPER_R.:E05TOU  cannot be made into a system file and is referenced.
   AS_PERR_C.:E05TOU  is referenced.
   XU_FORMAT_C.:E05TOU  is referenced.
   XU_MACRO_C.:E05TOU  is referenced.
   KL_SUPER_C.:E05TOU  is referenced.
   AS_MAC_C.:E05TOU  cannot be made into a system file and is referenced.
   AS_SUBS_C.:E05TOU  is referenced.
   AS_SUPER_C.:E05TOU  is referenced.
   AS_ENTRIES_M.:E05TOU  is referenced.
   CP_6_C.:E05TOU  is referenced.
   CP_6.:E05TOU  cannot be made into a system file and is referenced.
      No diagnostics issued in procedure ASR$D_CHARSET_RECS.

   Procedure ASR$D_CHARSET_RECS requires 21 words for executable code.
   Procedure ASR$D_CHARSET_RECS requires 4 words of local(AUTO) storage.

    No errors detected in file ASR$DELETE_CHARSETS.:E05TSI    .

PL6.E3A0      #001=ASR$D_CHARSET_RECS File=ASR$DELETE_CHARSETS.:E05TSI           TUE 07/29/97 10:42 Page:4

 Object Unit name= ASR$D_CHARSET_RECS                         File name= ASR$DELETE_CHARSETS.:E05TOU
 UTS= JUL 29 '97 10:42:42.40 TUE                              Compiler= PL-6/E31         Sev=      00
 SharedLib= :SHARED_SYSTEM                                    Alt SharedLib=


    ****  Control sections  ****

 Sect   Type Bound  Init  Size OctSiz  Section name(segment info)
    0   DCB   even  none     0      0  M$UC
    1   DCB   even  none     0      0  M$LO
    2   DCB   even  none     0      0  M$FORM
    3  RoData even  UTS     16     20  ASR$D_CHARSET_RECS
    4   Data  even  none    16     20  ASR$D_CHARSET_RECS
    5   Proc  even  none    21     25  ASR$D_CHARSET_RECS
    6  RoData even  none     5      5  ASR$D_CHARSET_RECS

    ****  Entry defs  ****

                              Check   Calling
                             calling  sequence
  Sect OctLoc Primary Altret sequence   type   Parms  Name
     5      0   yes            yes      Std        0  ASR$D_CHARSET_RECS

  ****  Entry refs  ****

         Check        Calling
        calling       sequence
Altret sequence SRef   type   Args  Name
         yes          ~proc      0 XU_OUTPUT_OPTIONS
         yes           Std       0 ASC$BUILD_CHARSET
         yes           Std       2 ASB$WRITE_LO
                       nStd      0 X66_AUTO_0
                       Std       0 B_CONSPOOL_D
                       nStd      0 X66_ARET
PL6.E3A0      #001=ASR$D_CHARSET_RECS File=ASR$DELETE_CHARSETS.:E05TSI           TUE 07/29/97 10:42 Page:5

  ****  Data refs  ****

  Flags:  r = read only, s = secondary
Flgs Name                             Flgs Name                             Flgs Name
     M$UC                             r    AS_BLANK                         r    AS_MODE
r    AS_FE_MODE                            M$LO                                  ERR_CODE
     REMEM_VAR                             REM_FCMD                              ASA_BRKS_LOC
     M$FORM                                B_VECTNIL

  ****  Segment refs  ****

  Flags:  r = read only, s = secondary
Flgs Name                             Flgs Name                             Flgs Name
     ISSID                                 NULLSID
PL6.E3A0      #001=ASR$D_CHARSET_RECS File=ASR$DELETE_CHARSETS.:E05TSI           TUE 07/29/97 10:42 Page:6


        1        1        /*M* ASR$D_CHARSET_RECS - processes DELETE CHARSETS command.   */
        2        2        /*T***********************************************************/
        3        3        /*T*                                                         */
        4        4        /*T* Copyright (c) Bull HN Information Systems Inc., 1997    */
        5        5        /*T*                                                         */
        6        6        /*T***********************************************************/
        7        7        /*X*  DMC,DMR,CCC,PLM=0,IND=3,CTI=5,DCI=6,IAD=0,DTI=0,IDT=0,ENI=3,
        8        8              ECU=3,CSU=3,SDI=3                                           */
        9        9                                                              /**/
       10       10        ASR$D_CHARSET_RECS: PROC;

     10  5 000000   000000 700200 xent  ASR$D_CHARS* TSX0  ! X66_AUTO_0
         5 000001   000004 000000                    ZERO    4,0

       11       11
       12       12        /*P* NAME:    ASR$D_CHARSET_RECS
       13       13             PURPOSE: Process DELETE CHARSETS command.
       14       14             DESCRIPTION:
       15       15             This module deletes all the charset records in :FORM and then
       16       16             rebuilds all the defaults by calling ASC$BUILD_CHARSET.
       17       17        */
       18       18
       19       19        %INCLUDE    CP_6;
       20     5578        %INCLUDE    AS_ENTRIES_M ;
       21     6628        %INCLUDE    AS_SUPER_C ;
       22     7063        %INCLUDE    AS_SUBS_C  ;
       23     8477        %INCLUDE    AS_MAC_C   ;
       24     8557        %INCLUDE    KL_SUPER_C ;
       25    11459        %INCLUDE    XU_MACRO_C ;
       26    14565        %INCLUDE    XU_FORMAT_C ;
       27    14727        %INCLUDE    AS_PERR_C ;
       28    15329        %INCLUDE    AS_SUPER_R ;
       29    18345    1   DCL M$FORM DCB;
       30    18346        %ASB$WRITE_LO ;
       31    18349        %ASC$BUILD_CHARSET ;
       32    18352    1   DCL MESS CHAR(0) CONSTANT INIT
PL6.E3A0      #001=ASR$D_CHARSET_RECS File=ASR$DELETE_CHARSETS.:E05TSI           TUE 07/29/97 10:42 Page:7
       33    18353    1   (' --- All charset records deleted, defaults being rebuilt. ---');
       34    18354    1   DCL ARS UBIN WORD;
       35    18355        %FPT_DELREC (DCB=M$FORM,KEY=K1,LKEY=K2);
       36    18374        %VLP_NAME (FPTN=K1,NAME='~        ');
       37    18401        %VLP_NAME (FPTN=K2,NAME='~~~~~~~~');
       38    18428        /*
       39    18429            ***            Begin procedure                    ***
       40    18430        */
       41    18431    1   CALL M$DELREC( FPT_DELREC );

  18431  5 000002   000000 630400 4                  EPPR0   FPT_DELREC
         5 000003   040002 713400                    CLIMB   16386
         5 000004   401400 401760                    pmme    nvectors=4

       42    18432    1   CALL ASC$BUILD_CHARSET;

  18432  5 000005   000002 631400 xsym               EPPR1   B_VECTNIL+2
         5 000006   000000 701000 xent               TSX1    ASC$BUILD_CHARSET
         5 000007   000000 011000                    NOP     0

       43    18433    1   CALL ASB$WRITE_LO( AS_BLANK, 1 );

  18433  5 000010   000000 630400 6                  EPPR0   0
         5 000011   000020 631400 xsym               EPPR1   B_VECTNIL+16
         5 000012   000000 701000 xent               TSX1    ASB$WRITE_LO
         5 000013   000000 011000                    NOP     0

       44    18434    1   CALL ASB$WRITE_LO( MESS, LENGTHC( MESS ) );

  18434  5 000014   000003 630400 6                  EPPR0   3
         5 000015   000020 631400 xsym               EPPR1   B_VECTNIL+16
         5 000016   000000 701000 xent               TSX1    ASB$WRITE_LO
         5 000017   000000 011000                    NOP     0

       45    18435    1   CALL ASB$WRITE_LO( AS_BLANK, 1 );

  18435  5 000020   000000 630400 6                  EPPR0   0
PL6.E3A0      #001=ASR$D_CHARSET_RECS File=ASR$DELETE_CHARSETS.:E05TSI           TUE 07/29/97 10:42 Page:8
         5 000021   000020 631400 xsym               EPPR1   B_VECTNIL+16
         5 000022   000000 701000 xent               TSX1    ASB$WRITE_LO
         5 000023   000000 011000                    NOP     0

       46    18436
       47    18437    1   RETURN;

  18437  5 000024   000000 702200 xent               TSX2  ! X66_ARET
       48    18438    1   END ASR$D_CHARSET_RECS;

PL6.E3A0      #001=ASR$D_CHARSET_RECS File=ASR$DELETE_CHARSETS.:E05TSI           TUE 07/29/97 10:42 Page:9
--  Include file information  --

   AS_SUPER_R.:E05TOU  cannot be made into a system file and is referenced.
   AS_PERR_C.:E05TOU  is referenced.
   XU_FORMAT_C.:E05TOU  is referenced.
   XU_MACRO_C.:E05TOU  is referenced.
   KL_SUPER_C.:E05TOU  is referenced.
   AS_MAC_C.:E05TOU  cannot be made into a system file and is referenced.
   AS_SUBS_C.:E05TOU  is referenced.
   AS_SUPER_C.:E05TOU  is referenced.
   AS_ENTRIES_M.:E05TOU  is referenced.
   CP_6_C.:E05TOU  is referenced.
   CP_6.:E05TOU  cannot be made into a system file and is referenced.
      No diagnostics issued in procedure ASR$D_CHARSET_RECS.
PL6.E3A0      #001=ASR$D_CHARSET_RECS File=ASR$DELETE_CHARSETS.:E05TSI           TUE 07/29/97 10:42 Page:10

 **** Variables and constants ****

  ****  Section 003 RoData ASR$D_CHARSET_RECS

  ****  Scalars and arrays  ****
OctLoc.c.b A Datatyp(siz) R M Lvl/name                 OctLoc.c.b A Datatyp(siz) R M Lvl/name

     0-0-0/c CHAR(61)    r     1 MESS

  ****  Section 004  Data  ASR$D_CHARSET_RECS

  ****  Scalars and arrays  ****
OctLoc.c.b A Datatyp(siz) R M Lvl/name                 OctLoc.c.b A Datatyp(siz) R M Lvl/name

     0-0-0/d STRC(360)   r     1 FPT_DELREC                12-0-0/c STRC(90)    r     1 K1
    15-0-0/c STRC(81)    r     1 K2

  ****  SYMREF variables  ****

  ****  Scalars and arrays  ****
OctLoc.c.b A Datatyp(siz) R M Lvl/name                 OctLoc.c.b A Datatyp(siz) R M Lvl/name

     0-0-0/c CHAR        r     1 AS_BLANK

  ****  BASED and DCB variables  ****

  ****  Scalars and arrays  ****
OctLoc.c.b A Datatyp(siz) R M Lvl/name                 OctLoc.c.b A Datatyp(siz) R M Lvl/name

     0-0-0N  NULL        r     1 M$FORM


   Procedure ASR$D_CHARSET_RECS requires 21 words for executable code.
   Procedure ASR$D_CHARSET_RECS requires 4 words of local(AUTO) storage.
PL6.E3A0      #001=ASR$D_CHARSET_RECS File=ASR$DELETE_CHARSETS.:E05TSI           TUE 07/29/97 10:42 Page:11

    No errors detected in file ASR$DELETE_CHARSETS.:E05TSI    .
PL6.E3A0      #001=ASR$D_CHARSET_RECS File=ASR$DELETE_CHARSETS.:E05TSI           TUE 07/29/97 10:42 Page:12
          *** CROSS REFERENCE LISTING ***
**     DENOTES     IDENTIFIER DEFINITION
<<                 IDENTIFIER'S VALUE SET
>>                 IDENTIFIER'S VALUE USED
<>                 IDENTIFIER SET AND/OR USED
--                 IDENTIFIER REFERENCED
PL6.E3A0      #001=ASR$D_CHARSET_RECS File=ASR$DELETE_CHARSETS.:E05TSI           TUE 07/29/97 10:42 Page:13
          MINI XREF LISTING

ASA_BRKS_LOC
     15493**DCL     15493--REDEF
ASB$WRITE_LO
     18347**DCL-ENT 18433--CALL    18434--CALL    18435--CALL
ASC$BUILD_CHARSET
     18350**DCL-ENT 18432--CALL
AS_BLANK
     15353**DCL     18433<>CALL    18435<>CALL
AS_DEFAULT.BANNER_PERM
     16186**DCL     16187--REDEF
AS_DEFAULT.BUDGET.MACCT
     16091**DCL     16095--REDEF
AS_DEFAULT.BUDGET.MAX_PROJECTS
     16104**DCL     16107--REDEF
AS_DEFAULT.BUDGET.PACCUM
     16087**DCL     16089--REDEF
AS_DEFAULT.BUDGET.PMAXC
     16082**DCL     16084--REDEF
AS_DEFAULT.SETUP_CHRA.TXT
     16202**DCL     16203--REDEF   16204--REDEF
AS_DEFAULT_DREC.PASSWORD
     17456**DCL     17460--REDEF
AS_DEFAULT_DREC.RENAME
     17479**DCL     17480--REDEF
AS_DFLT.BANNER_PERM
     16008**DCL     16009--REDEF
AS_DFLT.BUDGET.MACCT
     15913**DCL     15917--REDEF
AS_DFLT.BUDGET.MAX_PROJECTS
     15926**DCL     15929--REDEF
AS_DFLT.BUDGET.PACCUM
     15909**DCL     15911--REDEF
PL6.E3A0      #001=ASR$D_CHARSET_RECS File=ASR$DELETE_CHARSETS.:E05TSI           TUE 07/29/97 10:42 Page:14
AS_DFLT.BUDGET.PMAXC
     15904**DCL     15906--REDEF
AS_DFLT.SETUP_CHRA.TXT
     16024**DCL     16025--REDEF   16026--REDEF
AS_FE_MODE
     15359**DCL     15360--REDEF
AS_MODE
     15356**DCL     15358--REDEF
AS_MOD_USER.ACCESS
     18221**DCL     18222--REDEF
AS_MOD_USER.BANNER
     18208**DCL     18209--REDEF
AS_MOD_USER.BANNER_PERM
     18210**DCL     18211--REDEF
AS_MOD_USER.BILL
     18216**DCL     18217--REDEF
AS_MOD_USER.CPROC
     18212**DCL     18213--REDEF
AS_MOD_USER.FEBILL
     18292**DCL     18293--REDEF
AS_MOD_USER.FECXTMEM
     18309**DCL     18310--REDEF
AS_MOD_USER.FEMINTS
     18294**DCL     18295--REDEF
AS_MOD_USER.FEMMEM
     18305**DCL     18306--REDEF
AS_MOD_USER.FEMTIME
     18303**DCL     18304--REDEF
AS_MOD_USER.FEPPRIV
     18300**DCL     18302--REDEF
AS_MOD_USER.FEPRIV
     18297**DCL     18299--REDEF
AS_MOD_USER.FORCE_BIT
     18206**DCL     18207--REDEF
AS_MOD_USER.KEY
     18288**DCL     18290--REDEF
PL6.E3A0      #001=ASR$D_CHARSET_RECS File=ASR$DELETE_CHARSETS.:E05TSI           TUE 07/29/97 10:42 Page:15
AS_MOD_USER.LASTCPROC
     18214**DCL     18215--REDEF
AS_MOD_USER.LIMITS.DO_
     18262**DCL     18263--REDEF
AS_MOD_USER.LIMITS.FPOOLS
     18278**DCL     18279--REDEF
AS_MOD_USER.LIMITS.LO
     18258**DCL     18259--REDEF
AS_MOD_USER.LIMITS.MEM
     18254**DCL     18255--REDEF
AS_MOD_USER.LIMITS.MPRIO
     18282**DCL     18283--REDEF
AS_MOD_USER.LIMITS.PDIS
     18270**DCL     18271--REDEF
AS_MOD_USER.LIMITS.PO
     18266**DCL     18267--REDEF
AS_MOD_USER.LIMITS.TDIS
     18274**DCL     18275--REDEF
AS_MOD_USER.LIMITS.TIME
     18250**DCL     18251--REDEF
AS_MOD_USER.MAXENQ
     18231**DCL     18232--REDEF
AS_MOD_USER.PERM_BIT
     18204**DCL     18205--REDEF
AS_MOD_USER.PPRIV
     18226**DCL     18228--REDEF
AS_MOD_USER.PRIOB
     18233**DCL     18234--REDEF
AS_MOD_USER.PRIV
     18223**DCL     18225--REDEF
AS_MOD_USER.QUAN
     18229**DCL     18230--REDEF
AS_MOD_USER.SETUP
     18202**DCL     18203--REDEF
AS_PROJECT.BANNER_PERM
     16542**DCL     16543--REDEF
PL6.E3A0      #001=ASR$D_CHARSET_RECS File=ASR$DELETE_CHARSETS.:E05TSI           TUE 07/29/97 10:42 Page:16
AS_PROJECT.BUDGET.MACCT
     16447**DCL     16451--REDEF
AS_PROJECT.BUDGET.MAX_PROJECTS
     16460**DCL     16463--REDEF
AS_PROJECT.BUDGET.PACCUM
     16443**DCL     16445--REDEF
AS_PROJECT.BUDGET.PMAXC
     16438**DCL     16440--REDEF
AS_PROJECT.SETUP_CHRA.TXT
     16558**DCL     16559--REDEF   16560--REDEF
AS_PROJECT_DFLT.BANNER_PERM
     16720**DCL     16721--REDEF
AS_PROJECT_DFLT.BUDGET.MACCT
     16625**DCL     16629--REDEF
AS_PROJECT_DFLT.BUDGET.MAX_PROJECTS
     16638**DCL     16641--REDEF
AS_PROJECT_DFLT.BUDGET.PACCUM
     16621**DCL     16623--REDEF
AS_PROJECT_DFLT.BUDGET.PMAXC
     16616**DCL     16618--REDEF
AS_PROJECT_DFLT.SETUP_CHRA.TXT
     16736**DCL     16737--REDEF   16738--REDEF
AS_PROJECT_DFLT_DREC.PASSWORD
     17942**DCL     17946--REDEF
AS_PROJECT_DFLT_DREC.RENAME
     17965**DCL     17966--REDEF
AS_PROJECT_DREC.PASSWORD
     17780**DCL     17784--REDEF
AS_PROJECT_DREC.RENAME
     17803**DCL     17804--REDEF
AS_PROJ_ADMIN.BANNER_PERM
     16364**DCL     16365--REDEF
AS_PROJ_ADMIN.BUDGET.MACCT
     16269**DCL     16273--REDEF
AS_PROJ_ADMIN.BUDGET.MAX_PROJECTS
     16282**DCL     16285--REDEF
PL6.E3A0      #001=ASR$D_CHARSET_RECS File=ASR$DELETE_CHARSETS.:E05TSI           TUE 07/29/97 10:42 Page:17
AS_PROJ_ADMIN.BUDGET.PACCUM
     16265**DCL     16267--REDEF
AS_PROJ_ADMIN.BUDGET.PMAXC
     16260**DCL     16262--REDEF
AS_PROJ_ADMIN.SETUP_CHRA.TXT
     16380**DCL     16381--REDEF   16382--REDEF
AS_PROJ_ADMIN_DREC.PASSWORD
     17618**DCL     17622--REDEF
AS_PROJ_ADMIN_DREC.RENAME
     17641**DCL     17642--REDEF
AS_USERS.BANNER_PERM
     15830**DCL     15831--REDEF
AS_USERS.BUDGET.MACCT
     15735**DCL     15739--REDEF
AS_USERS.BUDGET.MAX_PROJECTS
     15748**DCL     15751--REDEF
AS_USERS.BUDGET.PACCUM
     15731**DCL     15733--REDEF
AS_USERS.BUDGET.PMAXC
     15726**DCL     15728--REDEF
AS_USERS.SETUP_CHRA.TXT
     15846**DCL     15847--REDEF   15848--REDEF
AS_USERS_CONSTANT.BANNER_PERM
     16898**DCL     16899--REDEF
AS_USERS_CONSTANT.BUDGET.MACCT
     16803**DCL     16807--REDEF
AS_USERS_CONSTANT.BUDGET.MAX_PROJECTS
     16816**DCL     16819--REDEF
AS_USERS_CONSTANT.BUDGET.PACCUM
     16799**DCL     16801--REDEF
AS_USERS_CONSTANT.BUDGET.PMAXC
     16794**DCL     16796--REDEF
AS_USERS_CONSTANT.SETUP_CHRA.TXT
     16914**DCL     16915--REDEF   16916--REDEF
ERR_CODE
     15488**DCL     15489--REDEF
PL6.E3A0      #001=ASR$D_CHARSET_RECS File=ASR$DELETE_CHARSETS.:E05TSI           TUE 07/29/97 10:42 Page:18
FPT_DELREC
     18366**DCL     18431<>CALL
FPT_DELREC.V
     18369**DCL     18366--DCLINIT
K1
     18399**DCL     18366--DCLINIT 18367--DCLINIT
K2
     18426**DCL     18368--DCLINIT 18369--DCLINIT
KL_DEFAULT.PASSWORD
     18104**DCL     18108--REDEF
KL_DEFAULT.RENAME
     18127**DCL     18128--REDEF
KL_DFLT.PASSWORD
     17294**DCL     17298--REDEF
KL_DFLT.RENAME
     17317**DCL     17318--REDEF
KL_DREC.PASSWORD
     17132**DCL     17136--REDEF
KL_DREC.RENAME
     17155**DCL     17156--REDEF
KL_DREC_CNT.PASSWORD
     17019**DCL     17023--REDEF
KL_DREC_CNT.RENAME
     17042**DCL     17043--REDEF
M$DELREC
      5508**DCL-ENT 18431--CALL
MESS
     18352**DCL     18434<>CALL    18434--CALL
PROJ_KEY.TEXT
     15366**DCL     15366--REDEF
PROJ_KEY.TXT.PROJECT
     15366**DCL     15366--REDEF
REMEM_VAR
     15492**DCL     15492--REDEF
REM_FCMD
     15492**DCL     15493--REDEF
PL6.E3A0      #001=ASR$D_CHARSET_RECS File=ASR$DELETE_CHARSETS.:E05TSI           TUE 07/29/97 10:42 Page:19
USERS_KEY.TEXT
     15363**DCL     15364--REDEF   15364--REDEF   15364--REDEF   15365--REDEF
