VERSION E05

PL6.E3A0      #001=ASR$D_FORM_RECS File=ASR$DELETE_FORMS.:E05TSI                 TUE 07/29/97 10:43 Page:1
        1        1        /*M* ASR$D_FORM_RECS - processes DELETE FORMS command.   */
        2        2        /*T***********************************************************/
        3        3        /*T*                                                         */
        4        4        /*T* Copyright (c) Bull HN Information Systems Inc., 1997    */
        5        5        /*T*                                                         */
        6        6        /*T***********************************************************/
        7        7        /*X*  DMC,DMR,CCC,PLM=0,IND=3,CTI=5,DCI=6,IAD=0,DTI=0,IDT=0,ENI=3,
        8        8              ECU=3,CSU=3,SDI=3                                           */
        9        9                                                              /**/
       10       10        ASR$D_FORM_RECS: PROC;
       11       11
       12       12        /*P* NAME:    ASR$D_FORM_RECS
       13       13             PURPOSE: Process DELETE FORMS command.
       14       14             DESCRIPTION:
       15       15             This module deletes all the form records in :FORM and then
       16       16             rebuilds STDLP and STD** by calling ASF$BUILD_FORM.
       17       17        */
       18       18        %INCLUDE    CP_6;
       19     5577        %INCLUDE    AS_ENTRIES_M ;
       20     6627        %INCLUDE    AS_SUPER_C ;
       21     7062        %INCLUDE    AS_SUBS_C  ;
       22     8476        %INCLUDE    AS_MAC_C   ;
       23     8556        %INCLUDE    KL_SUPER_C ;
       24    11458        %INCLUDE    XU_MACRO_C ;
       25    14564        %INCLUDE    XU_FORMAT_C ;
       26    14726        %INCLUDE    AS_PERR_C ;
       27    15328        %INCLUDE    AS_SUPER_R ;
       28    18344    1   DCL M$FORM DCB;
       29    18345        %ASB$WRITE_LO ;
       30    18348        %ASF$BUILD_FORM ;
       31    18351    1   DCL MESS CHAR(0) CONSTANT INIT
       32    18352    1   (' --- Form records deleted: STDLP, STDGR and STD** rebuilt. ---');
       33    18353    1   DCL ARS UBIN WORD;
       34    18354        %FPT_DELREC (DCB=M$FORM,KEY=K1,LKEY=K2);
       35    18373        %VLP_NAME (FPTN=K1,NAME=' ');
       36    18400        %VLP_NAME (FPTN=K2,NAME='~     ');
       37    18427        /*
PL6.E3A0      #001=ASR$D_FORM_RECS File=ASR$DELETE_FORMS.:E05TSI                 TUE 07/29/97 10:43 Page:2
       38    18428            ***            Begin procedure                    ***
       39    18429        */
       40    18430    1   CALL M$DELREC( FPT_DELREC );
       41    18431    1   CALL ASF$BUILD_FORM;
       42    18432    1   CALL ASB$WRITE_LO( AS_BLANK, 1 );
       43    18433    1   CALL ASB$WRITE_LO( MESS, LENGTHC( MESS ) );
       44    18434    1   CALL ASB$WRITE_LO( AS_BLANK, 1 );
       45    18435    1   RETURN;
       46    18436    1   END ASR$D_FORM_RECS;

PL6.E3A0      #001=ASR$D_FORM_RECS File=ASR$DELETE_FORMS.:E05TSI                 TUE 07/29/97 10:43 Page:3
--  Include file information  --

   AS_SUPER_R.:E05TOU  cannot be made into a system file and is referenced.
   AS_PERR_C.:E05TOU  is referenced.
   XU_FORMAT_C.:E05TOU  is referenced.
   XU_MACRO_C.:E05TOU  is referenced.
   KL_SUPER_C.:E05TOU  is referenced.
   AS_MAC_C.:E05TOU  cannot be made into a system file and is referenced.
   AS_SUBS_C.:E05TOU  is referenced.
   AS_SUPER_C.:E05TOU  is referenced.
   AS_ENTRIES_M.:E05TOU  is referenced.
   CP_6_C.:E05TOU  is referenced.
   CP_6.:E05TOU  cannot be made into a system file and is referenced.
      No diagnostics issued in procedure ASR$D_FORM_RECS.

   Procedure ASR$D_FORM_RECS requires 21 words for executable code.
   Procedure ASR$D_FORM_RECS requires 4 words of local(AUTO) storage.

    No errors detected in file ASR$DELETE_FORMS.:E05TSI    .

PL6.E3A0      #001=ASR$D_FORM_RECS File=ASR$DELETE_FORMS.:E05TSI                 TUE 07/29/97 10:43 Page:4

 Object Unit name= ASR$D_FORM_RECS                            File name= ASR$DELETE_FORMS.:E05TOU
 UTS= JUL 29 '97 10:43:54.88 TUE                              Compiler= PL-6/E31         Sev=      00
 SharedLib= :SHARED_SYSTEM                                    Alt SharedLib=


    ****  Control sections  ****

 Sect   Type Bound  Init  Size OctSiz  Section name(segment info)
    0   DCB   even  none     0      0  M$UC
    1   DCB   even  none     0      0  M$LO
    2   DCB   even  none     0      0  M$FORM
    3  RoData even  UTS     16     20  ASR$D_FORM_RECS
    4   Data  even  none    13     15  ASR$D_FORM_RECS
    5   Proc  even  none    21     25  ASR$D_FORM_RECS
    6  RoData even  none     5      5  ASR$D_FORM_RECS

    ****  Entry defs  ****

                              Check   Calling
                             calling  sequence
  Sect OctLoc Primary Altret sequence   type   Parms  Name
     5      0   yes            yes      Std        0  ASR$D_FORM_RECS

  ****  Entry refs  ****

         Check        Calling
        calling       sequence
Altret sequence SRef   type   Args  Name
         yes          ~proc      0 XU_OUTPUT_OPTIONS
         yes           Std       2 ASB$WRITE_LO
         yes           Std       0 ASF$BUILD_FORM
                       nStd      0 X66_AUTO_0
                       Std       0 B_CONSPOOL_D
                       nStd      0 X66_ARET
PL6.E3A0      #001=ASR$D_FORM_RECS File=ASR$DELETE_FORMS.:E05TSI                 TUE 07/29/97 10:43 Page:5

  ****  Data refs  ****

  Flags:  r = read only, s = secondary
Flgs Name                             Flgs Name                             Flgs Name
     M$UC                             r    AS_BLANK                         r    AS_MODE
r    AS_FE_MODE                            M$LO                                  ERR_CODE
     REMEM_VAR                             REM_FCMD                              ASA_BRKS_LOC
     M$FORM                                B_VECTNIL

  ****  Segment refs  ****

  Flags:  r = read only, s = secondary
Flgs Name                             Flgs Name                             Flgs Name
     ISSID                                 NULLSID
PL6.E3A0      #001=ASR$D_FORM_RECS File=ASR$DELETE_FORMS.:E05TSI                 TUE 07/29/97 10:43 Page:6


        1        1        /*M* ASR$D_FORM_RECS - processes DELETE FORMS command.   */
        2        2        /*T***********************************************************/
        3        3        /*T*                                                         */
        4        4        /*T* Copyright (c) Bull HN Information Systems Inc., 1997    */
        5        5        /*T*                                                         */
        6        6        /*T***********************************************************/
        7        7        /*X*  DMC,DMR,CCC,PLM=0,IND=3,CTI=5,DCI=6,IAD=0,DTI=0,IDT=0,ENI=3,
        8        8              ECU=3,CSU=3,SDI=3                                           */
        9        9                                                              /**/
       10       10        ASR$D_FORM_RECS: PROC;

     10  5 000000   000000 700200 xent  ASR$D_FORM_* TSX0  ! X66_AUTO_0
         5 000001   000004 000000                    ZERO    4,0

       11       11
       12       12        /*P* NAME:    ASR$D_FORM_RECS
       13       13             PURPOSE: Process DELETE FORMS command.
       14       14             DESCRIPTION:
       15       15             This module deletes all the form records in :FORM and then
       16       16             rebuilds STDLP and STD** by calling ASF$BUILD_FORM.
       17       17        */
       18       18        %INCLUDE    CP_6;
       19     5577        %INCLUDE    AS_ENTRIES_M ;
       20     6627        %INCLUDE    AS_SUPER_C ;
       21     7062        %INCLUDE    AS_SUBS_C  ;
       22     8476        %INCLUDE    AS_MAC_C   ;
       23     8556        %INCLUDE    KL_SUPER_C ;
       24    11458        %INCLUDE    XU_MACRO_C ;
       25    14564        %INCLUDE    XU_FORMAT_C ;
       26    14726        %INCLUDE    AS_PERR_C ;
       27    15328        %INCLUDE    AS_SUPER_R ;
       28    18344    1   DCL M$FORM DCB;
       29    18345        %ASB$WRITE_LO ;
       30    18348        %ASF$BUILD_FORM ;
       31    18351    1   DCL MESS CHAR(0) CONSTANT INIT
       32    18352    1   (' --- Form records deleted: STDLP, STDGR and STD** rebuilt. ---');
PL6.E3A0      #001=ASR$D_FORM_RECS File=ASR$DELETE_FORMS.:E05TSI                 TUE 07/29/97 10:43 Page:7
       33    18353    1   DCL ARS UBIN WORD;
       34    18354        %FPT_DELREC (DCB=M$FORM,KEY=K1,LKEY=K2);
       35    18373        %VLP_NAME (FPTN=K1,NAME=' ');
       36    18400        %VLP_NAME (FPTN=K2,NAME='~     ');
       37    18427        /*
       38    18428            ***            Begin procedure                    ***
       39    18429        */
       40    18430    1   CALL M$DELREC( FPT_DELREC );

  18430  5 000002   000000 630400 4                  EPPR0   FPT_DELREC
         5 000003   040002 713400                    CLIMB   16386
         5 000004   401400 401760                    pmme    nvectors=4

       41    18431    1   CALL ASF$BUILD_FORM;

  18431  5 000005   000002 631400 xsym               EPPR1   B_VECTNIL+2
         5 000006   000000 701000 xent               TSX1    ASF$BUILD_FORM
         5 000007   000000 011000                    NOP     0

       42    18432    1   CALL ASB$WRITE_LO( AS_BLANK, 1 );

  18432  5 000010   000000 630400 6                  EPPR0   0
         5 000011   000020 631400 xsym               EPPR1   B_VECTNIL+16
         5 000012   000000 701000 xent               TSX1    ASB$WRITE_LO
         5 000013   000000 011000                    NOP     0

       43    18433    1   CALL ASB$WRITE_LO( MESS, LENGTHC( MESS ) );

  18433  5 000014   000003 630400 6                  EPPR0   3
         5 000015   000020 631400 xsym               EPPR1   B_VECTNIL+16
         5 000016   000000 701000 xent               TSX1    ASB$WRITE_LO
         5 000017   000000 011000                    NOP     0

       44    18434    1   CALL ASB$WRITE_LO( AS_BLANK, 1 );

  18434  5 000020   000000 630400 6                  EPPR0   0
         5 000021   000020 631400 xsym               EPPR1   B_VECTNIL+16
PL6.E3A0      #001=ASR$D_FORM_RECS File=ASR$DELETE_FORMS.:E05TSI                 TUE 07/29/97 10:43 Page:8
         5 000022   000000 701000 xent               TSX1    ASB$WRITE_LO
         5 000023   000000 011000                    NOP     0

       45    18435    1   RETURN;

  18435  5 000024   000000 702200 xent               TSX2  ! X66_ARET
       46    18436    1   END ASR$D_FORM_RECS;

PL6.E3A0      #001=ASR$D_FORM_RECS File=ASR$DELETE_FORMS.:E05TSI                 TUE 07/29/97 10:43 Page:9
--  Include file information  --

   AS_SUPER_R.:E05TOU  cannot be made into a system file and is referenced.
   AS_PERR_C.:E05TOU  is referenced.
   XU_FORMAT_C.:E05TOU  is referenced.
   XU_MACRO_C.:E05TOU  is referenced.
   KL_SUPER_C.:E05TOU  is referenced.
   AS_MAC_C.:E05TOU  cannot be made into a system file and is referenced.
   AS_SUBS_C.:E05TOU  is referenced.
   AS_SUPER_C.:E05TOU  is referenced.
   AS_ENTRIES_M.:E05TOU  is referenced.
   CP_6_C.:E05TOU  is referenced.
   CP_6.:E05TOU  cannot be made into a system file and is referenced.
      No diagnostics issued in procedure ASR$D_FORM_RECS.
PL6.E3A0      #001=ASR$D_FORM_RECS File=ASR$DELETE_FORMS.:E05TSI                 TUE 07/29/97 10:43 Page:10

 **** Variables and constants ****

  ****  Section 003 RoData ASR$D_FORM_RECS

  ****  Scalars and arrays  ****
OctLoc.c.b A Datatyp(siz) R M Lvl/name                 OctLoc.c.b A Datatyp(siz) R M Lvl/name

     0-0-0/c CHAR(62)    r     1 MESS

  ****  Section 004  Data  ASR$D_FORM_RECS

  ****  Scalars and arrays  ****
OctLoc.c.b A Datatyp(siz) R M Lvl/name                 OctLoc.c.b A Datatyp(siz) R M Lvl/name

     0-0-0/d STRC(360)   r     1 FPT_DELREC                12-0-0/c STRC(18)    r     1 K1
    13-0-0/c STRC(63)    r     1 K2

  ****  SYMREF variables  ****

  ****  Scalars and arrays  ****
OctLoc.c.b A Datatyp(siz) R M Lvl/name                 OctLoc.c.b A Datatyp(siz) R M Lvl/name

     0-0-0/c CHAR        r     1 AS_BLANK

  ****  BASED and DCB variables  ****

  ****  Scalars and arrays  ****
OctLoc.c.b A Datatyp(siz) R M Lvl/name                 OctLoc.c.b A Datatyp(siz) R M Lvl/name

     0-0-0N  NULL        r     1 M$FORM


   Procedure ASR$D_FORM_RECS requires 21 words for executable code.
   Procedure ASR$D_FORM_RECS requires 4 words of local(AUTO) storage.
PL6.E3A0      #001=ASR$D_FORM_RECS File=ASR$DELETE_FORMS.:E05TSI                 TUE 07/29/97 10:43 Page:11

    No errors detected in file ASR$DELETE_FORMS.:E05TSI    .
PL6.E3A0      #001=ASR$D_FORM_RECS File=ASR$DELETE_FORMS.:E05TSI                 TUE 07/29/97 10:43 Page:12
          *** CROSS REFERENCE LISTING ***
**     DENOTES     IDENTIFIER DEFINITION
<<                 IDENTIFIER'S VALUE SET
>>                 IDENTIFIER'S VALUE USED
<>                 IDENTIFIER SET AND/OR USED
--                 IDENTIFIER REFERENCED
PL6.E3A0      #001=ASR$D_FORM_RECS File=ASR$DELETE_FORMS.:E05TSI                 TUE 07/29/97 10:43 Page:13
          MINI XREF LISTING

ASA_BRKS_LOC
     15492**DCL     15492--REDEF
ASB$WRITE_LO
     18346**DCL-ENT 18432--CALL    18433--CALL    18434--CALL
ASF$BUILD_FORM
     18349**DCL-ENT 18431--CALL
AS_BLANK
     15352**DCL     18432<>CALL    18434<>CALL
AS_DEFAULT.BANNER_PERM
     16185**DCL     16186--REDEF
AS_DEFAULT.BUDGET.MACCT
     16090**DCL     16094--REDEF
AS_DEFAULT.BUDGET.MAX_PROJECTS
     16103**DCL     16106--REDEF
AS_DEFAULT.BUDGET.PACCUM
     16086**DCL     16088--REDEF
AS_DEFAULT.BUDGET.PMAXC
     16081**DCL     16083--REDEF
AS_DEFAULT.SETUP_CHRA.TXT
     16201**DCL     16202--REDEF   16203--REDEF
AS_DEFAULT_DREC.PASSWORD
     17455**DCL     17459--REDEF
AS_DEFAULT_DREC.RENAME
     17478**DCL     17479--REDEF
AS_DFLT.BANNER_PERM
     16007**DCL     16008--REDEF
AS_DFLT.BUDGET.MACCT
     15912**DCL     15916--REDEF
AS_DFLT.BUDGET.MAX_PROJECTS
     15925**DCL     15928--REDEF
AS_DFLT.BUDGET.PACCUM
     15908**DCL     15910--REDEF
PL6.E3A0      #001=ASR$D_FORM_RECS File=ASR$DELETE_FORMS.:E05TSI                 TUE 07/29/97 10:43 Page:14
AS_DFLT.BUDGET.PMAXC
     15903**DCL     15905--REDEF
AS_DFLT.SETUP_CHRA.TXT
     16023**DCL     16024--REDEF   16025--REDEF
AS_FE_MODE
     15358**DCL     15359--REDEF
AS_MODE
     15355**DCL     15357--REDEF
AS_MOD_USER.ACCESS
     18220**DCL     18221--REDEF
AS_MOD_USER.BANNER
     18207**DCL     18208--REDEF
AS_MOD_USER.BANNER_PERM
     18209**DCL     18210--REDEF
AS_MOD_USER.BILL
     18215**DCL     18216--REDEF
AS_MOD_USER.CPROC
     18211**DCL     18212--REDEF
AS_MOD_USER.FEBILL
     18291**DCL     18292--REDEF
AS_MOD_USER.FECXTMEM
     18308**DCL     18309--REDEF
AS_MOD_USER.FEMINTS
     18293**DCL     18294--REDEF
AS_MOD_USER.FEMMEM
     18304**DCL     18305--REDEF
AS_MOD_USER.FEMTIME
     18302**DCL     18303--REDEF
AS_MOD_USER.FEPPRIV
     18299**DCL     18301--REDEF
AS_MOD_USER.FEPRIV
     18296**DCL     18298--REDEF
AS_MOD_USER.FORCE_BIT
     18205**DCL     18206--REDEF
AS_MOD_USER.KEY
     18287**DCL     18289--REDEF
PL6.E3A0      #001=ASR$D_FORM_RECS File=ASR$DELETE_FORMS.:E05TSI                 TUE 07/29/97 10:43 Page:15
AS_MOD_USER.LASTCPROC
     18213**DCL     18214--REDEF
AS_MOD_USER.LIMITS.DO_
     18261**DCL     18262--REDEF
AS_MOD_USER.LIMITS.FPOOLS
     18277**DCL     18278--REDEF
AS_MOD_USER.LIMITS.LO
     18257**DCL     18258--REDEF
AS_MOD_USER.LIMITS.MEM
     18253**DCL     18254--REDEF
AS_MOD_USER.LIMITS.MPRIO
     18281**DCL     18282--REDEF
AS_MOD_USER.LIMITS.PDIS
     18269**DCL     18270--REDEF
AS_MOD_USER.LIMITS.PO
     18265**DCL     18266--REDEF
AS_MOD_USER.LIMITS.TDIS
     18273**DCL     18274--REDEF
AS_MOD_USER.LIMITS.TIME
     18249**DCL     18250--REDEF
AS_MOD_USER.MAXENQ
     18230**DCL     18231--REDEF
AS_MOD_USER.PERM_BIT
     18203**DCL     18204--REDEF
AS_MOD_USER.PPRIV
     18225**DCL     18227--REDEF
AS_MOD_USER.PRIOB
     18232**DCL     18233--REDEF
AS_MOD_USER.PRIV
     18222**DCL     18224--REDEF
AS_MOD_USER.QUAN
     18228**DCL     18229--REDEF
AS_MOD_USER.SETUP
     18201**DCL     18202--REDEF
AS_PROJECT.BANNER_PERM
     16541**DCL     16542--REDEF
PL6.E3A0      #001=ASR$D_FORM_RECS File=ASR$DELETE_FORMS.:E05TSI                 TUE 07/29/97 10:43 Page:16
AS_PROJECT.BUDGET.MACCT
     16446**DCL     16450--REDEF
AS_PROJECT.BUDGET.MAX_PROJECTS
     16459**DCL     16462--REDEF
AS_PROJECT.BUDGET.PACCUM
     16442**DCL     16444--REDEF
AS_PROJECT.BUDGET.PMAXC
     16437**DCL     16439--REDEF
AS_PROJECT.SETUP_CHRA.TXT
     16557**DCL     16558--REDEF   16559--REDEF
AS_PROJECT_DFLT.BANNER_PERM
     16719**DCL     16720--REDEF
AS_PROJECT_DFLT.BUDGET.MACCT
     16624**DCL     16628--REDEF
AS_PROJECT_DFLT.BUDGET.MAX_PROJECTS
     16637**DCL     16640--REDEF
AS_PROJECT_DFLT.BUDGET.PACCUM
     16620**DCL     16622--REDEF
AS_PROJECT_DFLT.BUDGET.PMAXC
     16615**DCL     16617--REDEF
AS_PROJECT_DFLT.SETUP_CHRA.TXT
     16735**DCL     16736--REDEF   16737--REDEF
AS_PROJECT_DFLT_DREC.PASSWORD
     17941**DCL     17945--REDEF
AS_PROJECT_DFLT_DREC.RENAME
     17964**DCL     17965--REDEF
AS_PROJECT_DREC.PASSWORD
     17779**DCL     17783--REDEF
AS_PROJECT_DREC.RENAME
     17802**DCL     17803--REDEF
AS_PROJ_ADMIN.BANNER_PERM
     16363**DCL     16364--REDEF
AS_PROJ_ADMIN.BUDGET.MACCT
     16268**DCL     16272--REDEF
AS_PROJ_ADMIN.BUDGET.MAX_PROJECTS
     16281**DCL     16284--REDEF
PL6.E3A0      #001=ASR$D_FORM_RECS File=ASR$DELETE_FORMS.:E05TSI                 TUE 07/29/97 10:43 Page:17
AS_PROJ_ADMIN.BUDGET.PACCUM
     16264**DCL     16266--REDEF
AS_PROJ_ADMIN.BUDGET.PMAXC
     16259**DCL     16261--REDEF
AS_PROJ_ADMIN.SETUP_CHRA.TXT
     16379**DCL     16380--REDEF   16381--REDEF
AS_PROJ_ADMIN_DREC.PASSWORD
     17617**DCL     17621--REDEF
AS_PROJ_ADMIN_DREC.RENAME
     17640**DCL     17641--REDEF
AS_USERS.BANNER_PERM
     15829**DCL     15830--REDEF
AS_USERS.BUDGET.MACCT
     15734**DCL     15738--REDEF
AS_USERS.BUDGET.MAX_PROJECTS
     15747**DCL     15750--REDEF
AS_USERS.BUDGET.PACCUM
     15730**DCL     15732--REDEF
AS_USERS.BUDGET.PMAXC
     15725**DCL     15727--REDEF
AS_USERS.SETUP_CHRA.TXT
     15845**DCL     15846--REDEF   15847--REDEF
AS_USERS_CONSTANT.BANNER_PERM
     16897**DCL     16898--REDEF
AS_USERS_CONSTANT.BUDGET.MACCT
     16802**DCL     16806--REDEF
AS_USERS_CONSTANT.BUDGET.MAX_PROJECTS
     16815**DCL     16818--REDEF
AS_USERS_CONSTANT.BUDGET.PACCUM
     16798**DCL     16800--REDEF
AS_USERS_CONSTANT.BUDGET.PMAXC
     16793**DCL     16795--REDEF
AS_USERS_CONSTANT.SETUP_CHRA.TXT
     16913**DCL     16914--REDEF   16915--REDEF
ERR_CODE
     15487**DCL     15488--REDEF
PL6.E3A0      #001=ASR$D_FORM_RECS File=ASR$DELETE_FORMS.:E05TSI                 TUE 07/29/97 10:43 Page:18
FPT_DELREC
     18365**DCL     18430<>CALL
FPT_DELREC.V
     18368**DCL     18365--DCLINIT
K1
     18398**DCL     18365--DCLINIT 18366--DCLINIT
K2
     18425**DCL     18367--DCLINIT 18368--DCLINIT
KL_DEFAULT.PASSWORD
     18103**DCL     18107--REDEF
KL_DEFAULT.RENAME
     18126**DCL     18127--REDEF
KL_DFLT.PASSWORD
     17293**DCL     17297--REDEF
KL_DFLT.RENAME
     17316**DCL     17317--REDEF
KL_DREC.PASSWORD
     17131**DCL     17135--REDEF
KL_DREC.RENAME
     17154**DCL     17155--REDEF
KL_DREC_CNT.PASSWORD
     17018**DCL     17022--REDEF
KL_DREC_CNT.RENAME
     17041**DCL     17042--REDEF
M$DELREC
      5507**DCL-ENT 18430--CALL
MESS
     18351**DCL     18433<>CALL    18433--CALL
PROJ_KEY.TEXT
     15365**DCL     15365--REDEF
PROJ_KEY.TXT.PROJECT
     15365**DCL     15365--REDEF
REMEM_VAR
     15491**DCL     15491--REDEF
REM_FCMD
     15491**DCL     15492--REDEF
PL6.E3A0      #001=ASR$D_FORM_RECS File=ASR$DELETE_FORMS.:E05TSI                 TUE 07/29/97 10:43 Page:19
USERS_KEY.TEXT
     15362**DCL     15363--REDEF   15363--REDEF   15363--REDEF   15364--REDEF
