VERSION E05

PL6.E3A0      #001=ASR$R_PSEUDO_FORMS File=ASR$EXT.:E05TSI                       TUE 07/29/97 10:46 Page:1
        1        1        /*M* ASR$EXT:  ROUTINE TO HANDLE THE REMOVE COMMAND.  */
        2        2        /*T***********************************************************/
        3        3        /*T*                                                         */
        4        4        /*T* Copyright (c) Bull HN Information Systems Inc., 1997    */
        5        5        /*T*                                                         */
        6        6        /*T***********************************************************/
        7        7        /*X*  DMC,DMR,CCC,PLM=0,IND=3,CTI=5,DCI=6,IAD=0,DTI=0,IDT=0,ENI=3,
        8        8              ECU=3,CSU=3,SDI=3                                           */
        9        9                                                              /**/
       10       10        ASR$R_PSEUDO_FORMS: PROC( PSEUDO_FORM_KEY );
       11       11
       12       12
       13       13    1   DCL 1 PSEUDO_FORM_KEY,
       14       14    1          2 CNT UBIN BYTE UNAL,
       15       15    1          2 TXT CHAR(12) UNAL;
       16       16
       17       17        %INCLUDE    AS_ENTRIES_M ;
       18     1067        %INCLUDE    AS_SUPER_C ;
       19     1502        %INCLUDE    AS_SUBS_C  ;
       20     2916        %INCLUDE    AS_MAC_C   ;
       21     2996        %INCLUDE    KL_SUPER_C ;
       22     5898        %INCLUDE    XU_MACRO_C ;
       23     9004        %INCLUDE    XU_FORMAT_C ;
       24     9166        %INCLUDE    AS_PERR_C ;
       25     9768        %INCLUDE    AS_SUPER_R ;
       26    12784    1   DCL PSEUDO_FORM_REC UBIN;
       27    12785    1   DCL FORM CHAR(6);
       28    12786    1   DCL BUFFER CHAR(80);
       29    12787    1   DCL 1 PSEUDO,
       30    12788    1          2 CNT UBIN BYTE UNAL,
       31    12789    1          2 TXT CHAR(6) UNAL;
       32    12790    1   DCL TABS UBIN STATIC INIT(10);
       33    12791    1   DCL COUNT UBIN;
       34    12792    1   DCL ARS UBIN;
       35    12793        %ASF$READ_FORM_SEQ ;
       36    12796        %ASF$PREC_FORM ;
       37    12799        %ASF$DELREC_FORM ;
PL6.E3A0      #001=ASR$R_PSEUDO_FORMS File=ASR$EXT.:E05TSI                       TUE 07/29/97 10:46 Page:2
       38    12802        %ASB$WRITE_LO ;
       39    12805
       40    12806    1   FORM = PSEUDO_FORM_KEY.TXT;
       41    12807    1   PSEUDO.CNT = 6;
       42    12808    1   CALL ASB$WRITE_LO( AS_BLANK, 1 );
       43    12809    1   CALL FLUSH;
       44    12810    1   CALL ASF$PREC_FORM( PSEUDO_FORM_KEY );
       45    12811    1   ARS = SIZEC(PSEUDO_FORM_REC);
       46    12812    1   CALL ASF$READ_FORM_SEQ(, ADDR(PSEUDO_FORM_REC), ARS ) ALTRET(EXIT#);
       47    12813    1   COUNT = 0;
       48    12814    2   DO WHILE( USERS_KEY.COUNT = 12  AND  SUBSTR(USERS_KEY.TXTC,0,6) = FORM );
       49    12815    2      PSEUDO_FORM_KEY = USERS_KEY;
       50    12816    2      PSEUDO.TXT = SUBSTR(USERS_KEY.TXTC,6,6);
       51    12817    2      CALL ASF$DELREC_FORM;
       52    12818    2      CALL LIST;
       53    12819    2      USERS_KEY = PSEUDO;
       54    12820    2      CALL ASF$DELREC_FORM;
       55    12821    2      COUNT = COUNT + 1;
       56    12822    2      CALL ASF$PREC_FORM( PSEUDO_FORM_KEY );
       57    12823    2      ARS = SIZEC(PSEUDO_FORM_REC);
       58    12824    2      CALL ASF$READ_FORM_SEQ(, ADDR(PSEUDO_FORM_REC), ARS ) ALTRET(EXIT#);
       59    12825    2      END;
       60    12826    1   EXIT#:
       61    12827    1   CALL FLUSH;
       62    12828    1   CALL ASB$WRITE_LO( AS_BLANK, 1 );
       63    12829    2   IF COUNT > 0 THEN DO;
       64    12830    2      IF COUNT = 1 THEN BUFFER = '.. 1 pseudo form removed.';
       65    12831    3      ELSE DO;
       66    12832              %NUMBER( NUM1=COUNT );
             12840    3         CALL ASB$BINCHAR( AS_FIELD1.TEXT, 0, -1, COUNT );
       67    12862    3         CALL CONCAT( BUFFER, '.. ', SUBSTR(AS_FIELD1.TEXT,0,AS_FIELD1.COUNT),
             12862                  ' pseudo forms removed.' );
       68    12863    3         END;
       69    12864    2      CALL ASB$WRITE_LO( BUFFER, LENGTHC(BUFFER) );
       70    12865    2      END;
       71    12866    1   RETURN;
       72    12867        %EJECT;
PL6.E3A0      #001=ASR$R_PSEUDO_FORMS File=ASR$EXT.:E05TSI                       TUE 07/29/97 10:46 Page:3
       73    12868    1   LIST: PROC;
       74    12869
       75    12870    2   IF TABS = 80 THEN CALL FLUSH;
       76    12871    2   CALL INSERT( BUFFER, TABS, , PSEUDO.TXT );
       77    12872    2   TABS = TABS + 10;
       78    12873
       79    12874    2   END LIST;
       80    12875
       81    12876    1   FLUSH: PROC;
       82    12877
       83    12878    2   IF TABS > 10 THEN CALL ASB$WRITE_LO( BUFFER, LENGTHC(BUFFER) );
       84    12879    2   BUFFER = ' ';
       85    12880    2   TABS = 10;
       86    12881
       87    12882    2   END FLUSH;
       88    12883
       89    12884
       90    12885    1   END ASR$R_PSEUDO_FORMS;
       91    12886        %EOD;

PL6.E3A0      #001=ASR$R_PSEUDO_FORMS File=ASR$EXT.:E05TSI                       TUE 07/29/97 10:46 Page:4
--  Include file information  --

   AS_SUPER_R.:E05TOU  cannot be made into a system file and is referenced.
   AS_PERR_C.:E05TOU  is referenced.
   XU_FORMAT_C.:E05TOU  is referenced.
   XU_MACRO_C.:E05TOU  is referenced.
   KL_SUPER_C.:E05TOU  is referenced.
   AS_MAC_C.:E05TOU  cannot be made into a system file and is referenced.
   AS_SUBS_C.:E05TOU  is referenced.
   AS_SUPER_C.:E05TOU  is referenced.
   AS_ENTRIES_M.:E05TOU  is referenced.
   B$JIT_C.:E05TOU  was found in the system file and is never referenced.
   CP_6_C.:E05TOU  was found in the system file and is never referenced.
      No diagnostics issued in procedure ASR$R_PSEUDO_FORMS.

   Procedure ASR$R_PSEUDO_FORMS requires 172 words for executable code.
   Procedure ASR$R_PSEUDO_FORMS requires 40 words of local(AUTO) storage.

PL6.E3A0      #001=ASR$R_PSEUDO_FORMS File=ASR$EXT.:E05TSI                       TUE 07/29/97 10:46 Page:5

 Object Unit name= ASR$R_PSEUDO_FORMS                         File name= ASR$EXT.:E05TOU
 UTS= JUL 29 '97 10:46:31.72 TUE                              Compiler= PL-6/E31         Sev=      00
 SharedLib= :SHARED_SYSTEM                                    Alt SharedLib=


    ****  Control sections  ****

 Sect   Type Bound  Init  Size OctSiz  Section name(segment info)
    0   DCB   even  none     0      0  M$LO
    1   Data  even  none     1      1  ASR$R_PSEUDO_FORMS
    2  RoData even  UTS     13     15  ASR$R_PSEUDO_FORMS
    3   Proc  even  none   172    254  ASR$R_PSEUDO_FORMS
    4  RoData even  none     9     11  ASR$R_PSEUDO_FORMS

    ****  Entry defs  ****

                              Check   Calling
                             calling  sequence
  Sect OctLoc Primary Altret sequence   type   Parms  Name
     3      0   yes            yes      Std        1  ASR$R_PSEUDO_FORMS

  ****  Entry refs  ****

         Check        Calling
        calling       sequence
Altret sequence SRef   type   Args  Name
         yes          ~proc      0 XU_OUTPUT_OPTIONS
         yes           Std       2 ASB$WRITE_LO
 yes     yes           Std       0 ASF$DELREC_FORM
         yes           Std       4 ASB$BINCHAR
 yes     yes           Std       3 ASF$READ_FORM_SEQ
 yes     yes           Std       1 ASF$PREC_FORM
                       nStd      0 X66_AUTO_1
                       Std       0 B_CONSPOOL_D
                       nStd      0 X66_ARET
PL6.E3A0      #001=ASR$R_PSEUDO_FORMS File=ASR$EXT.:E05TSI                       TUE 07/29/97 10:46 Page:6

  ****  Data refs  ****

  Flags:  r = read only, s = secondary
Flgs Name                             Flgs Name                             Flgs Name
r    AS_BLANK                         r    AS_MODE                          r    AS_FE_MODE
     M$LO                                  USERS_KEY                             ERR_CODE
     AS_FIELD1                             REMEM_VAR                             REM_FCMD
     ASA_BRKS_LOC                          B_VECTNIL

  ****  Segment refs  ****

  Flags:  r = read only, s = secondary
Flgs Name                             Flgs Name                             Flgs Name
     ISSID
PL6.E3A0      #001=ASR$R_PSEUDO_FORMS File=ASR$EXT.:E05TSI                       TUE 07/29/97 10:46 Page:7


        1        1        /*M* ASR$EXT:  ROUTINE TO HANDLE THE REMOVE COMMAND.  */
        2        2        /*T***********************************************************/
        3        3        /*T*                                                         */
        4        4        /*T* Copyright (c) Bull HN Information Systems Inc., 1997    */
        5        5        /*T*                                                         */
        6        6        /*T***********************************************************/
        7        7        /*X*  DMC,DMR,CCC,PLM=0,IND=3,CTI=5,DCI=6,IAD=0,DTI=0,IDT=0,ENI=3,
        8        8              ECU=3,CSU=3,SDI=3                                           */
        9        9                                                              /**/
       10       10        ASR$R_PSEUDO_FORMS: PROC( PSEUDO_FORM_KEY );

     10  3 000000   000000 700200 xent  ASR$R_PSEUD* TSX0  ! X66_AUTO_1
         3 000001   000050 000001                    ZERO    40,1

       11       11
       12       12
       13       13    1   DCL 1 PSEUDO_FORM_KEY,
       14       14    1          2 CNT UBIN BYTE UNAL,
       15       15    1          2 TXT CHAR(12) UNAL;
       16       16
       17       17        %INCLUDE    AS_ENTRIES_M ;
       18     1067        %INCLUDE    AS_SUPER_C ;
       19     1502        %INCLUDE    AS_SUBS_C  ;
       20     2916        %INCLUDE    AS_MAC_C   ;
       21     2996        %INCLUDE    KL_SUPER_C ;
       22     5898        %INCLUDE    XU_MACRO_C ;
       23     9004        %INCLUDE    XU_FORMAT_C ;
       24     9166        %INCLUDE    AS_PERR_C ;
       25     9768        %INCLUDE    AS_SUPER_R ;
       26    12784    1   DCL PSEUDO_FORM_REC UBIN;
       27    12785    1   DCL FORM CHAR(6);
       28    12786    1   DCL BUFFER CHAR(80);
       29    12787    1   DCL 1 PSEUDO,
       30    12788    1          2 CNT UBIN BYTE UNAL,
       31    12789    1          2 TXT CHAR(6) UNAL;
       32    12790    1   DCL TABS UBIN STATIC INIT(10);
PL6.E3A0      #001=ASR$R_PSEUDO_FORMS File=ASR$EXT.:E05TSI                       TUE 07/29/97 10:46 Page:8
       33    12791    1   DCL COUNT UBIN;
       34    12792    1   DCL ARS UBIN;
       35    12793        %ASF$READ_FORM_SEQ ;
       36    12796        %ASF$PREC_FORM ;
       37    12799        %ASF$DELREC_FORM ;
       38    12802        %ASB$WRITE_LO ;
       39    12805
       40    12806    1   FORM = PSEUDO_FORM_KEY.TXT;

  12806  3 000002   200003 470500                    LDP0    @PSEUDO_FORM_KEY,,AUTO
         3 000003   040100 100500                    MLR     fill='040'O
         3 000004   000000 200006                    ADSC9   0,,PR0                   cn=1,n=6
         3 000005   200005 000006                    ADSC9   FORM,,AUTO               cn=0,n=6

       41    12807    1   PSEUDO.CNT = 6;

  12807  3 000006   006000 236003                    LDQ     3072,DU
         3 000007   200033 552140                    STBQ    PSEUDO,'40'O,AUTO

       42    12808    1   CALL ASB$WRITE_LO( AS_BLANK, 1 );

  12808  3 000010   000000 630400 4                  EPPR0   0
         3 000011   000020 631400 xsym               EPPR1   B_VECTNIL+16
         3 000012   000000 701000 xent               TSX1    ASB$WRITE_LO
         3 000013   000000 011000                    NOP     0

       43    12809    1   CALL FLUSH;

  12809  3 000014   000231 701000 3                  TSX1    FLUSH
         3 000015   000000 011000                    NOP     0

       44    12810    1   CALL ASF$PREC_FORM( PSEUDO_FORM_KEY );

  12810  3 000016   200003 630500                    EPPR0   @PSEUDO_FORM_KEY,,AUTO
         3 000017   000017 631400 xsym               EPPR1   B_VECTNIL+15
         3 000020   000000 701000 xent               TSX1    ASF$PREC_FORM
         3 000021   000000 011000                    NOP     0
PL6.E3A0      #001=ASR$R_PSEUDO_FORMS File=ASR$EXT.:E05TSI                       TUE 07/29/97 10:46 Page:9

       45    12811    1   ARS = SIZEC(PSEUDO_FORM_REC);

  12811  3 000022   000004 235007                    LDA     4,DL
         3 000023   200036 755100                    STA     ARS,,AUTO

       46    12812    1   CALL ASF$READ_FORM_SEQ(, ADDR(PSEUDO_FORM_REC), ARS ) ALTRET(EXIT#);

  12812  3 000024   200004 630500                    EPPR0   PSEUDO_FORM_REC,,AUTO
         3 000025   200044 450500                    STP0    ARS+6,,AUTO
         3 000026   200036 631500                    EPPR1   ARS,,AUTO
         3 000027   200047 451500                    STP1    ARS+9,,AUTO
         3 000030   200044 633500                    EPPR3   ARS+6,,AUTO
         3 000031   200046 453500                    STP3    ARS+8,,AUTO
         3 000032   000001 236000 xsym               LDQ     B_VECTNIL+1
         3 000033   200045 756100                    STQ     ARS+7,,AUTO
         3 000034   200045 630500                    EPPR0   ARS+7,,AUTO
         3 000035   000021 631400 xsym               EPPR1   B_VECTNIL+17
         3 000036   000000 701000 xent               TSX1    ASF$READ_FORM_SEQ
         3 000037   000121 702000 3                  TSX2    EXIT#

       47    12813    1   COUNT = 0;

  12813  3 000040   200035 450100                    STZ     COUNT,,AUTO

       48    12814    2   DO WHILE( USERS_KEY.COUNT = 12  AND  SUBSTR(USERS_KEY.TXTC,0,6) = FORM );

  12814  3 000041   000111 710000 3                  TRA     s:12825

       49    12815    2      PSEUDO_FORM_KEY = USERS_KEY;

  12815  3 000042   200003 470500                    LDP0    @PSEUDO_FORM_KEY,,AUTO
         3 000043   000100 100400                    MLR     fill='000'O
         3 000044   000000 000015 xsym               ADSC9   USERS_KEY                cn=0,n=13
         3 000045   000000 000015                    ADSC9   0,,PR0                   cn=0,n=13

       50    12816    2      PSEUDO.TXT = SUBSTR(USERS_KEY.TXTC,6,6);
PL6.E3A0      #001=ASR$R_PSEUDO_FORMS File=ASR$EXT.:E05TSI                       TUE 07/29/97 10:46 Page:10

  12816  3 000046   040100 100400                    MLR     fill='040'O
         3 000047   000001 600006 xsym               ADSC9   USERS_KEY+1              cn=3,n=6
         3 000050   200033 200006                    ADSC9   PSEUDO,,AUTO             cn=1,n=6

       51    12817    2      CALL ASF$DELREC_FORM;

  12817  3 000051   000002 631400 xsym               EPPR1   B_VECTNIL+2
         3 000052   000000 701000 xent               TSX1    ASF$DELREC_FORM
         3 000053   000000 011000                    NOP     0

       52    12818    2      CALL LIST;

  12818  3 000054   000210 701000 3                  TSX1    LIST
         3 000055   000000 011000                    NOP     0

       53    12819    2      USERS_KEY = PSEUDO;

  12819  3 000056   000000 100500                    MLR     fill='000'O
         3 000057   200033 000007                    ADSC9   PSEUDO,,AUTO             cn=0,n=7
         3 000060   000000 000052 xsym               ADSC9   USERS_KEY                cn=0,n=42

       54    12820    2      CALL ASF$DELREC_FORM;

  12820  3 000061   000002 631400 xsym               EPPR1   B_VECTNIL+2
         3 000062   000000 701000 xent               TSX1    ASF$DELREC_FORM
         3 000063   000000 011000                    NOP     0

       55    12821    2      COUNT = COUNT + 1;

  12821  3 000064   200035 235100                    LDA     COUNT,,AUTO
         3 000065   000001 035007                    ADLA    1,DL
         3 000066   200035 755100                    STA     COUNT,,AUTO

       56    12822    2      CALL ASF$PREC_FORM( PSEUDO_FORM_KEY );

  12822  3 000067   200003 630500                    EPPR0   @PSEUDO_FORM_KEY,,AUTO
PL6.E3A0      #001=ASR$R_PSEUDO_FORMS File=ASR$EXT.:E05TSI                       TUE 07/29/97 10:46 Page:11
         3 000070   000017 631400 xsym               EPPR1   B_VECTNIL+15
         3 000071   000000 701000 xent               TSX1    ASF$PREC_FORM
         3 000072   000000 011000                    NOP     0

       57    12823    2      ARS = SIZEC(PSEUDO_FORM_REC);

  12823  3 000073   000004 235007                    LDA     4,DL
         3 000074   200036 755100                    STA     ARS,,AUTO

       58    12824    2      CALL ASF$READ_FORM_SEQ(, ADDR(PSEUDO_FORM_REC), ARS ) ALTRET(EXIT#);

  12824  3 000075   200004 630500                    EPPR0   PSEUDO_FORM_REC,,AUTO
         3 000076   200044 450500                    STP0    ARS+6,,AUTO
         3 000077   200036 631500                    EPPR1   ARS,,AUTO
         3 000100   200047 451500                    STP1    ARS+9,,AUTO
         3 000101   200044 633500                    EPPR3   ARS+6,,AUTO
         3 000102   200046 453500                    STP3    ARS+8,,AUTO
         3 000103   000001 236000 xsym               LDQ     B_VECTNIL+1
         3 000104   200045 756100                    STQ     ARS+7,,AUTO
         3 000105   200045 630500                    EPPR0   ARS+7,,AUTO
         3 000106   000021 631400 xsym               EPPR1   B_VECTNIL+17
         3 000107   000000 701000 xent               TSX1    ASF$READ_FORM_SEQ
         3 000110   000121 702000 3                  TSX2    EXIT#

       59    12825    2      END;

  12825  3 000111   000000 236000 xsym               LDQ     USERS_KEY
         3 000112   777000 376003                    ANQ     -512,DU
         3 000113   014000 116003                    CMPQ    6144,DU
         3 000114   000121 601000 3                  TNZ     EXIT#
         3 000115   040100 106400                    CMPC    fill='040'O
         3 000116   000000 200006 xsym               ADSC9   USERS_KEY                cn=1,n=6
         3 000117   200005 000006                    ADSC9   FORM,,AUTO               cn=0,n=6
         3 000120   000042 600000 3                  TZE     s:12815

       60    12826    1   EXIT#:
       61    12827    1   CALL FLUSH;
PL6.E3A0      #001=ASR$R_PSEUDO_FORMS File=ASR$EXT.:E05TSI                       TUE 07/29/97 10:46 Page:12

  12827  3 000121   000231 701000 3     EXIT#        TSX1    FLUSH
         3 000122   000000 011000                    NOP     0

       62    12828    1   CALL ASB$WRITE_LO( AS_BLANK, 1 );

  12828  3 000123   000000 630400 4                  EPPR0   0
         3 000124   000020 631400 xsym               EPPR1   B_VECTNIL+16
         3 000125   000000 701000 xent               TSX1    ASB$WRITE_LO
         3 000126   000000 011000                    NOP     0

       63    12829    2   IF COUNT > 0 THEN DO;

  12829  3 000127   200035 235100                    LDA     COUNT,,AUTO
         3 000130   000207 600000 3                  TZE     s:12866

       64    12830    2      IF COUNT = 1 THEN BUFFER = '.. 1 pseudo form removed.';

  12830  3 000131   000001 115007                    CMPA    1,DL
         3 000132   000137 601000 3                  TNZ     s:12840

  12830  3 000133   040100 100400                    MLR     fill='040'O
         3 000134   000000 000031 2                  ADSC9   0                        cn=0,n=25
         3 000135   200007 000120                    ADSC9   BUFFER,,AUTO             cn=0,n=80
         3 000136   000177 710000 3                  TRA     s:12864

       65    12831    3      ELSE DO;

       66    12832              %NUMBER( NUM1=COUNT );
             12840    3         CALL ASB$BINCHAR( AS_FIELD1.TEXT, 0, -1, COUNT );

  12840  3 000137   200035 630500                    EPPR0   COUNT,,AUTO
         3 000140   200047 450500                    STP0    ARS+9,,AUTO
         3 000141   000002 236000 4                  LDQ     2
         3 000142   200046 756100                    STQ     ARS+8,,AUTO
         3 000143   000004 237000 4                  LDAQ    4
         3 000144   200044 757100                    STAQ    ARS+6,,AUTO
PL6.E3A0      #001=ASR$R_PSEUDO_FORMS File=ASR$EXT.:E05TSI                       TUE 07/29/97 10:46 Page:13
         3 000145   200044 630500                    EPPR0   ARS+6,,AUTO
         3 000146   000022 631400 xsym               EPPR1   B_VECTNIL+18
         3 000147   000000 701000 xent               TSX1    ASB$BINCHAR
         3 000150   000000 011000                    NOP     0

       67    12862    3         CALL CONCAT( BUFFER, '.. ', SUBSTR(AS_FIELD1.TEXT,0,AS_FIELD1.COUNT),
             12862                  ' pseudo forms removed.' );

  12862  3 000151   000000 236000 xsym               LDQ     AS_FIELD1
         3 000152   000033 772000                    QRL     27
         3 000153   000000 620006                    EAX0    0,QL
         3 000154   000000 236000 2                  LDQ     0
         3 000155   000006 376000 4                  ANQ     6
         3 000156   000040 276007                    ORQ     32,DL
         3 000157   200007 756100                    STQ     BUFFER,,AUTO
         3 000160   040100 100440                    MLR     fill='040'O
         3 000161   000000 200010 xsym               ADSC9   AS_FIELD1                cn=1,n=*X0
         3 000162   200007 600115                    ADSC9   BUFFER,,AUTO             cn=3,n=77
         3 000163   000000 636010                    EAQ     0,X0
         3 000164   000022 772000                    QRL     18
         3 000165   000115 116007                    CMPQ    77,DL
         3 000166   000177 603000 3                  TRC     s:12864
         3 000167   200044 740100                    STX0    ARS+6,,AUTO
         3 000170   777662 620010                    EAX0    -78,X0
         3 000171   777777 660003                    ERX0    -1,DU
         3 000172   200044 235100                    LDA     ARS+6,,AUTO
         3 000173   000022 771000                    ARL     18
         3 000174   040145 100400                    MLR     fill='040'O
         3 000175   000007 000026 2                  ADSC9   7                        cn=0,n=22
         3 000176   200007 600010                    ADSC9   BUFFER,A,AUTO            cn=3,n=*X0

       68    12863    3         END;

       69    12864    2      CALL ASB$WRITE_LO( BUFFER, LENGTHC(BUFFER) );

  12864  3 000177   000010 236000 4                  LDQ     8
         3 000200   200045 756100                    STQ     ARS+7,,AUTO
PL6.E3A0      #001=ASR$R_PSEUDO_FORMS File=ASR$EXT.:E05TSI                       TUE 07/29/97 10:46 Page:14
         3 000201   200007 630500                    EPPR0   BUFFER,,AUTO
         3 000202   200044 450500                    STP0    ARS+6,,AUTO
         3 000203   200044 630500                    EPPR0   ARS+6,,AUTO
         3 000204   000020 631400 xsym               EPPR1   B_VECTNIL+16
         3 000205   000000 701000 xent               TSX1    ASB$WRITE_LO
         3 000206   000000 011000                    NOP     0

       70    12865    2      END;

       71    12866    1   RETURN;

  12866  3 000207   000000 702200 xent               TSX2  ! X66_ARET

       72    12867        %EJECT;
PL6.E3A0      #001=ASR$R_PSEUDO_FORMS File=ASR$EXT.:E05TSI                       TUE 07/29/97 10:46 Page:15
       73    12868    1   LIST: PROC;

  12868  3 000210   200040 741300       LIST         STX1  ! ARS+2,,AUTO

       74    12869
       75    12870    2   IF TABS = 80 THEN CALL FLUSH;

  12870  3 000211   000000 235000 1                  LDA     TABS
         3 000212   000120 115007                    CMPA    80,DL
         3 000213   000216 601000 3                  TNZ     s:12871

  12870  3 000214   000231 701000 3                  TSX1    FLUSH
         3 000215   000000 011000                    NOP     0

       76    12871    2   CALL INSERT( BUFFER, TABS, , PSEUDO.TXT );

  12871  3 000216   000000 720000 1                  LXL0    TABS
         3 000217   777657 620010                    EAX0    -81,X0
         3 000220   777777 660003                    ERX0    -1,DU
         3 000221   000000 235000 1                  LDA     TABS
         3 000222   040145 100500                    MLR     fill='040'O
         3 000223   200033 200006                    ADSC9   PSEUDO,,AUTO             cn=1,n=6
         3 000224   200007 000010                    ADSC9   BUFFER,A,AUTO            cn=0,n=*X0

       77    12872    2   TABS = TABS + 10;

  12872  3 000225   000012 035007                    ADLA    10,DL
         3 000226   000000 755000 1                  STA     TABS

       78    12873
       79    12874    2   END LIST;

  12874  3 000227   200040 221300                    LDX1  ! ARS+2,,AUTO
         3 000230   000001 702211                    TSX2  ! 1,X1

       80    12875
       81    12876    1   FLUSH: PROC;
PL6.E3A0      #001=ASR$R_PSEUDO_FORMS File=ASR$EXT.:E05TSI                       TUE 07/29/97 10:46 Page:16

  12876  3 000231   200042 741300       FLUSH        STX1  ! ARS+4,,AUTO

       82    12877
       83    12878    2   IF TABS > 10 THEN CALL ASB$WRITE_LO( BUFFER, LENGTHC(BUFFER) );

  12878  3 000232   000000 235000 1                  LDA     TABS
         3 000233   000013 115007                    CMPA    11,DL
         3 000234   000245 602000 3                  TNC     s:12879

  12878  3 000235   000010 236000 4                  LDQ     8
         3 000236   200045 756100                    STQ     ARS+7,,AUTO
         3 000237   200007 630500                    EPPR0   BUFFER,,AUTO
         3 000240   200044 450500                    STP0    ARS+6,,AUTO
         3 000241   200044 630500                    EPPR0   ARS+6,,AUTO
         3 000242   000020 631400 xsym               EPPR1   B_VECTNIL+16
         3 000243   000000 701000 xent               TSX1    ASB$WRITE_LO
         3 000244   000000 011000                    NOP     0

       84    12879    2   BUFFER = ' ';

  12879  3 000245   040100 100400                    MLR     fill='040'O
         3 000246   000035 000001 xsym               ADSC9   B_VECTNIL+29             cn=0,n=1
         3 000247   200007 000120                    ADSC9   BUFFER,,AUTO             cn=0,n=80

       85    12880    2   TABS = 10;

  12880  3 000250   000012 235007                    LDA     10,DL
         3 000251   000000 755000 1                  STA     TABS

       86    12881
       87    12882    2   END FLUSH;

  12882  3 000252   200042 221300                    LDX1  ! ARS+4,,AUTO
         3 000253   000001 702211                    TSX2  ! 1,X1
       88    12883
       89    12884
PL6.E3A0      #001=ASR$R_PSEUDO_FORMS File=ASR$EXT.:E05TSI                       TUE 07/29/97 10:46 Page:17
       90    12885    1   END ASR$R_PSEUDO_FORMS;
       91    12886        %EOD;

PL6.E3A0      #001=ASR$R_PSEUDO_FORMS File=ASR$EXT.:E05TSI                       TUE 07/29/97 10:46 Page:18
--  Include file information  --

   AS_SUPER_R.:E05TOU  cannot be made into a system file and is referenced.
   AS_PERR_C.:E05TOU  is referenced.
   XU_FORMAT_C.:E05TOU  is referenced.
   XU_MACRO_C.:E05TOU  is referenced.
   KL_SUPER_C.:E05TOU  is referenced.
   AS_MAC_C.:E05TOU  cannot be made into a system file and is referenced.
   AS_SUBS_C.:E05TOU  is referenced.
   AS_SUPER_C.:E05TOU  is referenced.
   AS_ENTRIES_M.:E05TOU  is referenced.
   B$JIT_C.:E05TOU  was found in the system file and is never referenced.
   CP_6_C.:E05TOU  was found in the system file and is never referenced.
      No diagnostics issued in procedure ASR$R_PSEUDO_FORMS.
PL6.E3A0      #001=ASR$R_PSEUDO_FORMS File=ASR$EXT.:E05TSI                       TUE 07/29/97 10:46 Page:19

 **** Variables and constants ****

  ****  Section 001  Data  ASR$R_PSEUDO_FORMS

  ****  Scalars and arrays  ****
OctLoc.c.b A Datatyp(siz) R M Lvl/name                 OctLoc.c.b A Datatyp(siz) R M Lvl/name

     0-0-0/w UBIN        r     1 TABS

  ****  Auto variables  ****

  ****  Scalars and arrays  ****
OctLoc.c.b A Datatyp(siz) R M Lvl/name                 OctLoc.c.b A Datatyp(siz) R M Lvl/name

     3-0-0/w PTR         r     1 @PSEUDO_FORM_KEY          36-0-0/w UBIN        r     1 ARS
     7-0-0/c CHAR(80)    r     1 BUFFER                    35-0-0/w UBIN        r     1 COUNT
     5-0-0/c CHAR(6)     r     1 FORM                      33-0-0/c STRC(63)    r     1 PSEUDO
    *0-0-0/c STRC(117)   r     1 PSEUDO_FORM_KEY            4-0-0/w UBIN        r     1 PSEUDO_FORM_REC

  ****  SYMREF variables  ****

  ****  Scalars and arrays  ****
OctLoc.c.b A Datatyp(siz) R M Lvl/name                 OctLoc.c.b A Datatyp(siz) R M Lvl/name

     0-0-0/c CHAR        r     1 AS_BLANK                   0-0-0/w STRC(369)   r     1 AS_FIELD1
     0-0-0/c STRC(378)   r     1 USERS_KEY


   Procedure ASR$R_PSEUDO_FORMS requires 172 words for executable code.
   Procedure ASR$R_PSEUDO_FORMS requires 40 words of local(AUTO) storage.
PL6.E3A0      #001=ASR$R_PSEUDO_FORMS File=ASR$EXT.:E05TSI                       TUE 07/29/97 10:46 Page:20
          *** CROSS REFERENCE LISTING ***
**     DENOTES     IDENTIFIER DEFINITION
<<                 IDENTIFIER'S VALUE SET
>>                 IDENTIFIER'S VALUE USED
<>                 IDENTIFIER SET AND/OR USED
--                 IDENTIFIER REFERENCED
PL6.E3A0      #001=ASR$R_PSEUDO_FORMS File=ASR$EXT.:E05TSI                       TUE 07/29/97 10:46 Page:21
          MINI XREF LISTING

ARS
     12792**DCL     12811<<ASSIGN  12812<>CALL    12823<<ASSIGN  12824<>CALL
ASA_BRKS_LOC
      9932**DCL      9932--REDEF
ASB$BINCHAR
      2994**DCL-ENT 12840--CALL
ASB$WRITE_LO
     12803**DCL-ENT 12808--CALL    12828--CALL    12864--CALL    12878--CALL
ASF$DELREC_FORM
     12800**DCL-ENT 12817--CALL    12820--CALL
ASF$PREC_FORM
     12797**DCL-ENT 12810--CALL    12822--CALL
ASF$READ_FORM_SEQ
     12794**DCL-ENT 12812--CALL    12824--CALL
AS_BLANK
      9792**DCL     12808<>CALL    12828<>CALL
AS_DEFAULT.BANNER_PERM
     10625**DCL     10626--REDEF
AS_DEFAULT.BUDGET.MACCT
     10530**DCL     10534--REDEF
AS_DEFAULT.BUDGET.MAX_PROJECTS
     10543**DCL     10546--REDEF
AS_DEFAULT.BUDGET.PACCUM
     10526**DCL     10528--REDEF
AS_DEFAULT.BUDGET.PMAXC
     10521**DCL     10523--REDEF
AS_DEFAULT.SETUP_CHRA.TXT
     10641**DCL     10642--REDEF   10643--REDEF
AS_DEFAULT_DREC.PASSWORD
     11895**DCL     11899--REDEF
AS_DEFAULT_DREC.RENAME
     11918**DCL     11919--REDEF
PL6.E3A0      #001=ASR$R_PSEUDO_FORMS File=ASR$EXT.:E05TSI                       TUE 07/29/97 10:46 Page:22
AS_DFLT.BANNER_PERM
     10447**DCL     10448--REDEF
AS_DFLT.BUDGET.MACCT
     10352**DCL     10356--REDEF
AS_DFLT.BUDGET.MAX_PROJECTS
     10365**DCL     10368--REDEF
AS_DFLT.BUDGET.PACCUM
     10348**DCL     10350--REDEF
AS_DFLT.BUDGET.PMAXC
     10343**DCL     10345--REDEF
AS_DFLT.SETUP_CHRA.TXT
     10463**DCL     10464--REDEF   10465--REDEF
AS_FE_MODE
      9798**DCL      9799--REDEF
AS_FIELD1.COUNT
      9929**DCL     12862>>CALLBLT
AS_FIELD1.TEXT
      9929**DCL     12840<>CALL    12862>>CALLBLT
AS_MODE
      9795**DCL      9797--REDEF
AS_MOD_USER.ACCESS
     12660**DCL     12661--REDEF
AS_MOD_USER.BANNER
     12647**DCL     12648--REDEF
AS_MOD_USER.BANNER_PERM
     12649**DCL     12650--REDEF
AS_MOD_USER.BILL
     12655**DCL     12656--REDEF
AS_MOD_USER.CPROC
     12651**DCL     12652--REDEF
AS_MOD_USER.FEBILL
     12731**DCL     12732--REDEF
AS_MOD_USER.FECXTMEM
     12748**DCL     12749--REDEF
AS_MOD_USER.FEMINTS
     12733**DCL     12734--REDEF
PL6.E3A0      #001=ASR$R_PSEUDO_FORMS File=ASR$EXT.:E05TSI                       TUE 07/29/97 10:46 Page:23
AS_MOD_USER.FEMMEM
     12744**DCL     12745--REDEF
AS_MOD_USER.FEMTIME
     12742**DCL     12743--REDEF
AS_MOD_USER.FEPPRIV
     12739**DCL     12741--REDEF
AS_MOD_USER.FEPRIV
     12736**DCL     12738--REDEF
AS_MOD_USER.FORCE_BIT
     12645**DCL     12646--REDEF
AS_MOD_USER.KEY
     12727**DCL     12729--REDEF
AS_MOD_USER.LASTCPROC
     12653**DCL     12654--REDEF
AS_MOD_USER.LIMITS.DO_
     12701**DCL     12702--REDEF
AS_MOD_USER.LIMITS.FPOOLS
     12717**DCL     12718--REDEF
AS_MOD_USER.LIMITS.LO
     12697**DCL     12698--REDEF
AS_MOD_USER.LIMITS.MEM
     12693**DCL     12694--REDEF
AS_MOD_USER.LIMITS.MPRIO
     12721**DCL     12722--REDEF
AS_MOD_USER.LIMITS.PDIS
     12709**DCL     12710--REDEF
AS_MOD_USER.LIMITS.PO
     12705**DCL     12706--REDEF
AS_MOD_USER.LIMITS.TDIS
     12713**DCL     12714--REDEF
AS_MOD_USER.LIMITS.TIME
     12689**DCL     12690--REDEF
AS_MOD_USER.MAXENQ
     12670**DCL     12671--REDEF
AS_MOD_USER.PERM_BIT
     12643**DCL     12644--REDEF
PL6.E3A0      #001=ASR$R_PSEUDO_FORMS File=ASR$EXT.:E05TSI                       TUE 07/29/97 10:46 Page:24
AS_MOD_USER.PPRIV
     12665**DCL     12667--REDEF
AS_MOD_USER.PRIOB
     12672**DCL     12673--REDEF
AS_MOD_USER.PRIV
     12662**DCL     12664--REDEF
AS_MOD_USER.QUAN
     12668**DCL     12669--REDEF
AS_MOD_USER.SETUP
     12641**DCL     12642--REDEF
AS_PROJECT.BANNER_PERM
     10981**DCL     10982--REDEF
AS_PROJECT.BUDGET.MACCT
     10886**DCL     10890--REDEF
AS_PROJECT.BUDGET.MAX_PROJECTS
     10899**DCL     10902--REDEF
AS_PROJECT.BUDGET.PACCUM
     10882**DCL     10884--REDEF
AS_PROJECT.BUDGET.PMAXC
     10877**DCL     10879--REDEF
AS_PROJECT.SETUP_CHRA.TXT
     10997**DCL     10998--REDEF   10999--REDEF
AS_PROJECT_DFLT.BANNER_PERM
     11159**DCL     11160--REDEF
AS_PROJECT_DFLT.BUDGET.MACCT
     11064**DCL     11068--REDEF
AS_PROJECT_DFLT.BUDGET.MAX_PROJECTS
     11077**DCL     11080--REDEF
AS_PROJECT_DFLT.BUDGET.PACCUM
     11060**DCL     11062--REDEF
AS_PROJECT_DFLT.BUDGET.PMAXC
     11055**DCL     11057--REDEF
AS_PROJECT_DFLT.SETUP_CHRA.TXT
     11175**DCL     11176--REDEF   11177--REDEF
AS_PROJECT_DFLT_DREC.PASSWORD
     12381**DCL     12385--REDEF
PL6.E3A0      #001=ASR$R_PSEUDO_FORMS File=ASR$EXT.:E05TSI                       TUE 07/29/97 10:46 Page:25
AS_PROJECT_DFLT_DREC.RENAME
     12404**DCL     12405--REDEF
AS_PROJECT_DREC.PASSWORD
     12219**DCL     12223--REDEF
AS_PROJECT_DREC.RENAME
     12242**DCL     12243--REDEF
AS_PROJ_ADMIN.BANNER_PERM
     10803**DCL     10804--REDEF
AS_PROJ_ADMIN.BUDGET.MACCT
     10708**DCL     10712--REDEF
AS_PROJ_ADMIN.BUDGET.MAX_PROJECTS
     10721**DCL     10724--REDEF
AS_PROJ_ADMIN.BUDGET.PACCUM
     10704**DCL     10706--REDEF
AS_PROJ_ADMIN.BUDGET.PMAXC
     10699**DCL     10701--REDEF
AS_PROJ_ADMIN.SETUP_CHRA.TXT
     10819**DCL     10820--REDEF   10821--REDEF
AS_PROJ_ADMIN_DREC.PASSWORD
     12057**DCL     12061--REDEF
AS_PROJ_ADMIN_DREC.RENAME
     12080**DCL     12081--REDEF
AS_USERS.BANNER_PERM
     10269**DCL     10270--REDEF
AS_USERS.BUDGET.MACCT
     10174**DCL     10178--REDEF
AS_USERS.BUDGET.MAX_PROJECTS
     10187**DCL     10190--REDEF
AS_USERS.BUDGET.PACCUM
     10170**DCL     10172--REDEF
AS_USERS.BUDGET.PMAXC
     10165**DCL     10167--REDEF
AS_USERS.SETUP_CHRA.TXT
     10285**DCL     10286--REDEF   10287--REDEF
AS_USERS_CONSTANT.BANNER_PERM
     11337**DCL     11338--REDEF
PL6.E3A0      #001=ASR$R_PSEUDO_FORMS File=ASR$EXT.:E05TSI                       TUE 07/29/97 10:46 Page:26
AS_USERS_CONSTANT.BUDGET.MACCT
     11242**DCL     11246--REDEF
AS_USERS_CONSTANT.BUDGET.MAX_PROJECTS
     11255**DCL     11258--REDEF
AS_USERS_CONSTANT.BUDGET.PACCUM
     11238**DCL     11240--REDEF
AS_USERS_CONSTANT.BUDGET.PMAXC
     11233**DCL     11235--REDEF
AS_USERS_CONSTANT.SETUP_CHRA.TXT
     11353**DCL     11354--REDEF   11355--REDEF
BUFFER
     12786**DCL     12830<<ASSIGN  12862<<CALLBLT 12864<>CALL    12864--CALL    12871<<CALLBLT 12878<>CALL
     12878--CALL    12879<<ASSIGN
COUNT
     12791**DCL     12813<<ASSIGN  12821<<ASSIGN  12821>>ASSIGN  12829>>IF      12830>>IF      12840<>CALL
ERR_CODE
      9927**DCL      9928--REDEF
EXIT#
     12827**LABEL   12812--CALLALT 12824--CALLALT
FLUSH
     12876**PROC    12809--CALL    12827--CALL    12870--CALL
FORM
     12785**DCL     12806<<ASSIGN  12814>>DOWHILE
KL_DEFAULT.PASSWORD
     12543**DCL     12547--REDEF
KL_DEFAULT.RENAME
     12566**DCL     12567--REDEF
KL_DFLT.PASSWORD
     11733**DCL     11737--REDEF
KL_DFLT.RENAME
     11756**DCL     11757--REDEF
KL_DREC.PASSWORD
     11571**DCL     11575--REDEF
KL_DREC.RENAME
     11594**DCL     11595--REDEF
KL_DREC_CNT.PASSWORD
PL6.E3A0      #001=ASR$R_PSEUDO_FORMS File=ASR$EXT.:E05TSI                       TUE 07/29/97 10:46 Page:27
     11458**DCL     11462--REDEF
KL_DREC_CNT.RENAME
     11481**DCL     11482--REDEF
LIST
     12868**PROC    12818--CALL
PROJ_KEY.TEXT
      9805**DCL      9805--REDEF
PROJ_KEY.TXT.PROJECT
      9805**DCL      9805--REDEF
PSEUDO
     12787**DCL     12819>>ASSIGN
PSEUDO.CNT
     12788**DCL     12807<<ASSIGN
PSEUDO.TXT
     12789**DCL     12816<<ASSIGN  12871>>CALLBLT
PSEUDO_FORM_KEY
        13**DCL        10--PROC    12810<>CALL    12815<<ASSIGN  12822<>CALL
PSEUDO_FORM_KEY.TXT
        15**DCL     12806>>ASSIGN
PSEUDO_FORM_REC
     12784**DCL     12811--ASSIGN  12812--CALL    12823--ASSIGN  12824--CALL
REMEM_VAR
      9931**DCL      9931--REDEF
REM_FCMD
      9931**DCL      9932--REDEF
TABS
     12790**DCL     12870>>IF      12871>>CALLBLT 12872<<ASSIGN  12872>>ASSIGN  12878>>IF      12880<<ASSIGN
USERS_KEY
      9802**DCL     12815>>ASSIGN  12819<<ASSIGN
USERS_KEY.COUNT
      9802**DCL     12814>>DOWHILE
USERS_KEY.TEXT
      9802**DCL      9803--REDEF    9803--REDEF    9803--REDEF    9804--REDEF
USERS_KEY.TXTC
      9803**DCL     12814>>DOWHILE 12816>>ASSIGN

PL6.E3A0      #002=ASR$R_DEVWSN File=ASR$EXT.:E05TSI                             TUE 07/29/97 10:47 Page:28
       92        1        /*M* ASR$R_DEVWSN - Remove wsn name from device records       */
       93        2        /*T***********************************************************/
       94        3        /*T*                                                         */
       95        4        /*T* Copyright (c) Bull HN Information Systems Inc., 1997    */
       96        5        /*T*                                                         */
       97        6        /*T***********************************************************/
       98        7        /*X*  DMC,DMR,CCC,PLM=0,IND=3,CTI=5,DCI=6,IAD=0,DTI=0,IDT=0,ENI=3,
       99        8              ECU=3,CSU=3,SDI=3                                           */
      100        9                                                              /**/
      101       10        ASR$R_DEVWSN: PROC (WSN_MSG);
      102       11    1   DCL WSN_MSG BIT (1) ALIGNED;
      103       12                                                              /**/
      104       13        /********************************************************************/
      105       14        /*   Include files   include files   include files   include files   */
      106       15        /*********************************************************************/
      107       16                                                              /**/
      108       17        %INCLUDE    CP_6 ;
      109       98        %INCLUDE    B_ERRORS_C;
      110     1225        %INCLUDE    AS_ENTRIES_M ;
      111     2275        %INCLUDE    AS_SUPER_C ;
      112     2710        %INCLUDE    AS_SUBS_C  ;
      113     4124        %INCLUDE    AS_MAC_C   ;
      114     4204        %INCLUDE    KL_SUPER_C ;
      115     7106        %INCLUDE    XU_MACRO_C ;
      116    10212        %INCLUDE    XU_FORMAT_C ;
      117    10374        %INCLUDE    AS_PERR_C ;
      118    10976        %INCLUDE    AS_SUPER_R ;
      119    13992
      120    13993        /*********************************************************************/
      121    13994        /*   Auto data       auto data       auto data       auto data       */
      122    13995        /*********************************************************************/
      123    13996                                                              /**/
      124    13997    1   DCL DEVWSN$ PTR ;
      125    13998    1   DCL WSNDEV$ PTR ;
      126    13999    1   DCL I UBIN WORD;
      127    14000    1   DCL WSNDEV_ARS UBIN WORD ;
      128    14001    1   DCL DEVWSN_ARS UBIN WORD ;
PL6.E3A0      #002=ASR$R_DEVWSN File=ASR$EXT.:E05TSI                             TUE 07/29/97 10:47 Page:29
      129    14002    1   DCL J UBIN WORD ;
      130    14003    1   DCL K UBIN WORD ;
      131    14004    1   DCL WSN_WRIT BIT (1);
      132    14005        /*********************************************************************/
      133    14006        /*   Static data     static data     static data     static data     */
      134    14007        /*********************************************************************/
      135    14008                                                              /**/
      136    14009    1   DCL 1 DEVWSN_KEY ALIGNED STATIC ,
      137    14010    1          2 CNT UBIN BYTE UNAL INIT( 12 ),
      138    14011    1          2 ACCT CHAR(8) UNAL INIT(' '),
      139    14012    1          2 WSNS CHAR(4) UNAL INIT('WSNS') ;
      140    14013    1   DCL 1 WSNDEV_KEY ALIGNED STATIC ,
      141    14014    1          2 CNT UBIN BYTE UNAL INIT( 15 ),
      142    14015    1          2 ACCT CHAR(8) UNAL INIT(' '),
      143    14016    1          2 DEV CHAR(7) UNAL INIT('DEVICES') ;
      144    14017
      145    14018        /********************************************************************/
      146    14019        /*   Entry dcls      entry dcls      entry dcls      entry dcls      */
      147    14020        /*********************************************************************/
      148    14021                                                              /**/
      149    14022    1   DCL ASB$DELREC_HLP ENTRY ALTRET ;
      150    14023        %ASW$ENQ_WSN ;
      151    14026        %ASB$ENQ_HLP ;
      152    14029        %ASW$READ_WSN ;
      153    14032        %ASB$WRITE_LO ;
      154    14035        %ASW$WRITE_WSN ;
      155    14038        %ASB$READ_HLP ;
      156    14041    1   DCL X$FORMAT ENTRY(1);
      157    14042
      158    14043        /*********************************************************************/
      159    14044        /*   Local based     local based     local based     local based     */
      160    14045        /*********************************************************************/
      161    14046                                                              /**/
      162    14047        %KL_WSNDEV(  NAME = KL$DEVWSN ,
      163    14048                      STCLASS="BASED( DEVWSN$ )") ;
      164    14053        %KL_WSNDEV( NAME = KL$WSNDEV,
      165    14054                     STCLASS="BASED( WSNDEV$ )") ;
PL6.E3A0      #002=ASR$R_DEVWSN File=ASR$EXT.:E05TSI                             TUE 07/29/97 10:47 Page:30
      166    14059
      167    14060    1   DCL B$TCB$ PTR SYMREF;
      168    14061        %B$TCB;
      169    14064        %B$ALT;
      170    14072        %EJECT;
PL6.E3A0      #002=ASR$R_DEVWSN File=ASR$EXT.:E05TSI                             TUE 07/29/97 10:47 Page:31
      171    14073        /*********************************************************************/
      172    14074        /*   Procedure       procedure       procedure       procedure       */
      173    14075        /*********************************************************************/
      174    14076                                                              /**/
      175    14077        /*
      176    14078            ***            Begin procedure                    ***
      177    14079        */
      178    14080    1   FDS.NVECS# = 0;
      179    14081    1   WSN_WRIT = '0'B;
      180    14082    1   DEVWSN_KEY.ACCT = USERS_KEY.TXTC ;
      181    14083    1   USERS_KEY = DEVWSN_KEY ;
      182    14084    1   DEVWSN$ = DSEG1$ ;
      183    14085    1   DEVWSN_ARS = DSEG1SIZE ;
      184    14086    1   CALL ASB$ENQ_HLP ALTRET(ENQ_ERR) ;
      185    14087    1   CALL ASB$READ_HLP (DEVWSN$, DEVWSN_ARS) ALTRET(DEV_ERR) ;
      186    14088    1   IF KL$DEVWSN.NDEV > 0
      187    14089    2   THEN DO;
      188    14090    3      DO I = 0 TO KL$DEVWSN.NDEV - 1 ;
      189    14091    3         WSNDEV_KEY.ACCT = KL$DEVWSN.DEV(I) ;
      190    14092    3         USERS_KEY = WSNDEV_KEY ;
      191    14093    3         CALL ASW$ENQ_WSN ALTRET( ENQ_ERR);
      192    14094    3         WSNDEV$ = PINCRW( DSEG1$, 1000 );
      193    14095    3         WSNDEV_ARS = DSEG1SIZE - 1000*4 ;
      194    14096    3         CALL ASW$READ_WSN (WSNDEV$, WSNDEV_ARS) ALTRET( WSN_ERR) ;
      195    14097    3         IF WSN_MSG
      196    14098    4         THEN DO;
      197    14099    5            IF I = 0 THEN DO;
      198    14100    5               CALL CONCAT(FMT_BUF, '%\',SUBSTR(WSNDEV_KEY.ACCT,0,8));
      199    14101    5               FDS.FMT_.BOUND = 9;
      200    14102    5               END;
      201    14103    5            ELSE DO;
      202    14104    5               CALL CONCAT(FMT_BUF, '%\%-%10R', SUBSTR(WSNDEV_KEY.ACCT,0,8));
      203    14105    5               FDS.FMT_.BOUND = 15;
      204    14106    5               END;
      205    14107    4            CALL X$FORMAT (FDS);
      206    14108    4            WSN_WRIT = '1'B;
      207    14109    4            END;
PL6.E3A0      #002=ASR$R_DEVWSN File=ASR$EXT.:E05TSI                             TUE 07/29/97 10:47 Page:32
      208    14110    4         DO J = 0 TO KL$WSNDEV.NDEV - 1 ;
      209    14111    4            IF KL$WSNDEV.DEV(J) = DEVWSN_KEY.ACCT
      210    14112    5            THEN DO ;
      211    14113    6               DO K = J TO KL$WSNDEV.NDEV - 2 ;
      212    14114    6                  KL$WSNDEV.DEV (K) = KL$WSNDEV.DEV (K + 1) ;
      213    14115    6                  END ; /* Do k */
      214    14116    5               KL$WSNDEV.NDEV = KL$WSNDEV.NDEV - 1 ;
      215    14117    5               WSNDEV_ARS = WSNDEV_ARS - LENGTHC (KL$WSNDEV.DEV (0));
      216    14118    5               J = KL$WSNDEV.NDEV ;
      217    14119    5               END; /* Then do */
      218    14120    4            END; /* Do j */
      219    14121    3         CALL ASW$WRITE_WSN (WSNDEV$, WSNDEV_ARS) ;
      220    14122    3   WSN_ERR: ;
      221    14123    3         END; /*  Do i */
      222    14124    2      FMT_BUF = '%\%/';
      223    14125    2      FDS.FMT_.BOUND = 3;
      224    14126    2      FDS.NVECS# = 0;
      225    14127    2      CALL X$FORMAT (FDS);
      226    14128    2      USERS_KEY = DEVWSN_KEY ;
      227    14129    2      CALL ASB$DELREC_HLP ;
      228    14130    2      END; /* Of the do for > 0 wsns */
      229    14131    2   ELSE DO;
      230    14132    2      USERS_KEY = DEVWSN_KEY;
      231    14133    2      CALL ASB$DELREC_HLP;
      232    14134    2      END;
      233    14135    1   DEV_ERR: ;
      234    14136    1   ENQ_ERR: ;
      235    14137    1   WSN_MSG = WSN_WRIT;
      236    14138    1   RETURN ;
      237    14139
      238    14140    1   END ASR$R_DEVWSN ;

PL6.E3A0      #002=ASR$R_DEVWSN File=ASR$EXT.:E05TSI                             TUE 07/29/97 10:47 Page:33
--  Include file information  --

   AS_SUPER_R.:E05TOU  cannot be made into a system file and is referenced.
   AS_PERR_C.:E05TOU  is referenced.
   XU_FORMAT_C.:E05TOU  is referenced.
   XU_MACRO_C.:E05TOU  is referenced.
   KL_SUPER_C.:E05TOU  is referenced.
   AS_MAC_C.:E05TOU  cannot be made into a system file and is referenced.
   AS_SUBS_C.:E05TOU  is referenced.
   AS_SUPER_C.:E05TOU  is referenced.
   AS_ENTRIES_M.:E05TOU  is referenced.
   B_ERRORS_C.:E05TOU  is referenced.
   CP_6.:E05TOU  cannot be made into a system file and is referenced.
   B$JIT_C.:E05TOU  was found in the system file and is never referenced.
   CP_6_C.:E05TOU  was found in the system file and is referenced.
      No diagnostics issued in procedure ASR$R_DEVWSN.

   Procedure ASR$R_DEVWSN requires 178 words for executable code.
   Procedure ASR$R_DEVWSN requires 14 words of local(AUTO) storage.

    No errors detected in file ASR$EXT.:E05TSI    .

PL6.E3A0      #002=ASR$R_DEVWSN File=ASR$EXT.:E05TSI                             TUE 07/29/97 10:47 Page:34

 Object Unit name= ASR$R_DEVWSN                               File name= ASR$EXT.:E05TOU
 UTS= JUL 29 '97 10:47:16.72 TUE                              Compiler= PL-6/E31         Sev=      00
 SharedLib= :SHARED_SYSTEM                                    Alt SharedLib=


    ****  Control sections  ****

 Sect   Type Bound  Init  Size OctSiz  Section name(segment info)
    0   DCB   even  none     0      0  M$UC
    1   DCB   even  none     0      0  M$LO
    2   Data  even  none     8     10  ASR$R_DEVWSN
    3  RoData even  UTS      4      4  ASR$R_DEVWSN
    4   Proc  even  none   178    262  ASR$R_DEVWSN
    5  RoData even  none     3      3  ASR$R_DEVWSN

    ****  Entry defs  ****

                              Check   Calling
                             calling  sequence
  Sect OctLoc Primary Altret sequence   type   Parms  Name
     4      0   yes            yes      Std        1  ASR$R_DEVWSN
PL6.E3A0      #002=ASR$R_DEVWSN File=ASR$EXT.:E05TSI                             TUE 07/29/97 10:47 Page:35

  ****  Entry refs  ****

         Check        Calling
        calling       sequence
Altret sequence SRef   type   Args  Name
         yes          ~proc      0 XU_OUTPUT_OPTIONS
 yes     yes           Std       2 ASW$READ_WSN
 yes     yes           Std       2 ASW$WRITE_WSN
 yes     yes           Std       0 ASB$DELREC_HLP
 yes     yes           Std       0 ASB$ENQ_HLP
 yes     yes           Std       3 ASB$READ_HLP
         yes           Std       1 X$FORMAT
 yes     yes           Std       0 ASW$ENQ_WSN
                       nStd      0 X66_AUTO_1
                       Std       0 B_CONSPOOL_D
                       nStd      0 X66_ARET

  ****  Data refs  ****

  Flags:  r = read only, s = secondary
Flgs Name                             Flgs Name                             Flgs Name
     M$UC                             r    AS_MODE                          r    AS_FE_MODE
     M$LO                                  USERS_KEY                             FDS
     FMT_BUF                               ERR_CODE                              REMEM_VAR
     REM_FCMD                              ASA_BRKS_LOC                          DSEG1$
     DSEG1SIZE                             B_VECTNIL

  ****  Segment refs  ****

  Flags:  r = read only, s = secondary
Flgs Name                             Flgs Name                             Flgs Name
     ISSID
PL6.E3A0      #002=ASR$R_DEVWSN File=ASR$EXT.:E05TSI                             TUE 07/29/97 10:47 Page:36


       92        1        /*M* ASR$R_DEVWSN - Remove wsn name from device records       */
       93        2        /*T***********************************************************/
       94        3        /*T*                                                         */
       95        4        /*T* Copyright (c) Bull HN Information Systems Inc., 1997    */
       96        5        /*T*                                                         */
       97        6        /*T***********************************************************/
       98        7        /*X*  DMC,DMR,CCC,PLM=0,IND=3,CTI=5,DCI=6,IAD=0,DTI=0,IDT=0,ENI=3,
       99        8              ECU=3,CSU=3,SDI=3                                           */
      100        9                                                              /**/
      101       10        ASR$R_DEVWSN: PROC (WSN_MSG);

     10  4 000000   000000 700200 xent  ASR$R_DEVWSN TSX0  ! X66_AUTO_1
         4 000001   000016 000001                    ZERO    14,1

      102       11    1   DCL WSN_MSG BIT (1) ALIGNED;
      103       12                                                              /**/
      104       13        /********************************************************************/
      105       14        /*   Include files   include files   include files   include files   */
      106       15        /*********************************************************************/
      107       16                                                              /**/
      108       17        %INCLUDE    CP_6 ;
      109       98        %INCLUDE    B_ERRORS_C;
      110     1225        %INCLUDE    AS_ENTRIES_M ;
      111     2275        %INCLUDE    AS_SUPER_C ;
      112     2710        %INCLUDE    AS_SUBS_C  ;
      113     4124        %INCLUDE    AS_MAC_C   ;
      114     4204        %INCLUDE    KL_SUPER_C ;
      115     7106        %INCLUDE    XU_MACRO_C ;
      116    10212        %INCLUDE    XU_FORMAT_C ;
      117    10374        %INCLUDE    AS_PERR_C ;
      118    10976        %INCLUDE    AS_SUPER_R ;
      119    13992
      120    13993        /*********************************************************************/
      121    13994        /*   Auto data       auto data       auto data       auto data       */
      122    13995        /*********************************************************************/
      123    13996                                                              /**/
PL6.E3A0      #002=ASR$R_DEVWSN File=ASR$EXT.:E05TSI                             TUE 07/29/97 10:47 Page:37
      124    13997    1   DCL DEVWSN$ PTR ;
      125    13998    1   DCL WSNDEV$ PTR ;
      126    13999    1   DCL I UBIN WORD;
      127    14000    1   DCL WSNDEV_ARS UBIN WORD ;
      128    14001    1   DCL DEVWSN_ARS UBIN WORD ;
      129    14002    1   DCL J UBIN WORD ;
      130    14003    1   DCL K UBIN WORD ;
      131    14004    1   DCL WSN_WRIT BIT (1);
      132    14005        /*********************************************************************/
      133    14006        /*   Static data     static data     static data     static data     */
      134    14007        /*********************************************************************/
      135    14008                                                              /**/
      136    14009    1   DCL 1 DEVWSN_KEY ALIGNED STATIC ,
      137    14010    1          2 CNT UBIN BYTE UNAL INIT( 12 ),
      138    14011    1          2 ACCT CHAR(8) UNAL INIT(' '),
      139    14012    1          2 WSNS CHAR(4) UNAL INIT('WSNS') ;
      140    14013    1   DCL 1 WSNDEV_KEY ALIGNED STATIC ,
      141    14014    1          2 CNT UBIN BYTE UNAL INIT( 15 ),
      142    14015    1          2 ACCT CHAR(8) UNAL INIT(' '),
      143    14016    1          2 DEV CHAR(7) UNAL INIT('DEVICES') ;
      144    14017
      145    14018        /********************************************************************/
      146    14019        /*   Entry dcls      entry dcls      entry dcls      entry dcls      */
      147    14020        /*********************************************************************/
      148    14021                                                              /**/
      149    14022    1   DCL ASB$DELREC_HLP ENTRY ALTRET ;
      150    14023        %ASW$ENQ_WSN ;
      151    14026        %ASB$ENQ_HLP ;
      152    14029        %ASW$READ_WSN ;
      153    14032        %ASB$WRITE_LO ;
      154    14035        %ASW$WRITE_WSN ;
      155    14038        %ASB$READ_HLP ;
      156    14041    1   DCL X$FORMAT ENTRY(1);
      157    14042
      158    14043        /*********************************************************************/
      159    14044        /*   Local based     local based     local based     local based     */
      160    14045        /*********************************************************************/
PL6.E3A0      #002=ASR$R_DEVWSN File=ASR$EXT.:E05TSI                             TUE 07/29/97 10:47 Page:38
      161    14046                                                              /**/
      162    14047        %KL_WSNDEV(  NAME = KL$DEVWSN ,
      163    14048                      STCLASS="BASED( DEVWSN$ )") ;
      164    14053        %KL_WSNDEV( NAME = KL$WSNDEV,
      165    14054                     STCLASS="BASED( WSNDEV$ )") ;
      166    14059
      167    14060    1   DCL B$TCB$ PTR SYMREF;
      168    14061        %B$TCB;
      169    14064        %B$ALT;
      170    14072        %EJECT;
PL6.E3A0      #002=ASR$R_DEVWSN File=ASR$EXT.:E05TSI                             TUE 07/29/97 10:47 Page:39
      171    14073        /*********************************************************************/
      172    14074        /*   Procedure       procedure       procedure       procedure       */
      173    14075        /*********************************************************************/
      174    14076                                                              /**/
      175    14077        /*
      176    14078            ***            Begin procedure                    ***
      177    14079        */
      178    14080    1   FDS.NVECS# = 0;

  14080  4 000002   000011 450000 xsym               STZ     FDS+9

      179    14081    1   WSN_WRIT = '0'B;

  14081  4 000003   200013 450100                    STZ     WSN_WRIT,,AUTO

      180    14082    1   DEVWSN_KEY.ACCT = USERS_KEY.TXTC ;

  14082  4 000004   040000 100400                    MLR     fill='040'O
         4 000005   000000 200010 xsym               ADSC9   USERS_KEY                cn=1,n=8
         4 000006   000000 200010 2                  ADSC9   DEVWSN_KEY               cn=1,n=8

      181    14083    1   USERS_KEY = DEVWSN_KEY ;

  14083  4 000007   000000 100400                    MLR     fill='000'O
         4 000010   000000 000015 2                  ADSC9   DEVWSN_KEY               cn=0,n=13
         4 000011   000000 000052 xsym               ADSC9   USERS_KEY                cn=0,n=42

      182    14084    1   DEVWSN$ = DSEG1$ ;

  14084  4 000012   000000 236000 xsym               LDQ     DSEG1$
         4 000013   200004 756100                    STQ     DEVWSN$,,AUTO

      183    14085    1   DEVWSN_ARS = DSEG1SIZE ;

  14085  4 000014   000000 235000 xsym               LDA     DSEG1SIZE
         4 000015   200010 755100                    STA     DEVWSN_ARS,,AUTO

PL6.E3A0      #002=ASR$R_DEVWSN File=ASR$EXT.:E05TSI                             TUE 07/29/97 10:47 Page:40
      184    14086    1   CALL ASB$ENQ_HLP ALTRET(ENQ_ERR) ;

  14086  4 000016   000002 631400 xsym               EPPR1   B_VECTNIL+2
         4 000017   000000 701000 xent               TSX1    ASB$ENQ_HLP
         4 000020   000255 702000 4                  TSX2    DEV_ERR

      185    14087    1   CALL ASB$READ_HLP (DEVWSN$, DEVWSN_ARS) ALTRET(DEV_ERR) ;

  14087  4 000021   200010 630500                    EPPR0   DEVWSN_ARS,,AUTO
         4 000022   200015 450500                    STP0    WSN_WRIT+2,,AUTO
         4 000023   200004 631500                    EPPR1   DEVWSN$,,AUTO
         4 000024   200014 451500                    STP1    WSN_WRIT+1,,AUTO
         4 000025   200014 630500                    EPPR0   WSN_WRIT+1,,AUTO
         4 000026   000020 631400 xsym               EPPR1   B_VECTNIL+16
         4 000027   000000 701000 xent               TSX1    ASB$READ_HLP
         4 000030   000255 702000 4                  TSX2    DEV_ERR

      186    14088    1   IF KL$DEVWSN.NDEV > 0

  14088  4 000031   200004 470500                    LDP0    DEVWSN$,,AUTO
         4 000032   000000 235100                    LDA     0,,PR0
         4 000033   000247 600000 4                  TZE     s:14132

      187    14089    2   THEN DO;

      188    14090    3      DO I = 0 TO KL$DEVWSN.NDEV - 1 ;

  14090  4 000034   200006 450100                    STZ     I,,AUTO
         4 000035   000220 710000 4                  TRA     WSN_ERR+3

      189    14091    3         WSNDEV_KEY.ACCT = KL$DEVWSN.DEV(I) ;

  14091  4 000036   200006 235100                    LDA     I,,AUTO
         4 000037   000003 735000                    ALS     3
         4 000040   200004 470500                    LDP0    DEVWSN$,,AUTO
         4 000041   040000 100505                    MLR     fill='040'O
         4 000042   000001 000010                    ADSC9   1,A,PR0                  cn=0,n=8
PL6.E3A0      #002=ASR$R_DEVWSN File=ASR$EXT.:E05TSI                             TUE 07/29/97 10:47 Page:41
         4 000043   000004 200010 2                  ADSC9   WSNDEV_KEY               cn=1,n=8

      190    14092    3         USERS_KEY = WSNDEV_KEY ;

  14092  4 000044   000000 100400                    MLR     fill='000'O
         4 000045   000004 000020 2                  ADSC9   WSNDEV_KEY               cn=0,n=16
         4 000046   000000 000052 xsym               ADSC9   USERS_KEY                cn=0,n=42

      191    14093    3         CALL ASW$ENQ_WSN ALTRET( ENQ_ERR);

  14093  4 000047   000002 631400 xsym               EPPR1   B_VECTNIL+2
         4 000050   000000 701000 xent               TSX1    ASW$ENQ_WSN
         4 000051   000255 702000 4                  TSX2    DEV_ERR

      192    14094    3         WSNDEV$ = PINCRW( DSEG1$, 1000 );

  14094  4 000052   000000 236000 xsym               LDQ     DSEG1$
         4 000053   001750 036003                    ADLQ    1000,DU
         4 000054   200005 756100                    STQ     WSNDEV$,,AUTO

      193    14095    3         WSNDEV_ARS = DSEG1SIZE - 1000*4 ;

  14095  4 000055   000000 235000 xsym               LDA     DSEG1SIZE
         4 000056   007640 135007                    SBLA    4000,DL
         4 000057   200007 755100                    STA     WSNDEV_ARS,,AUTO

      194    14096    3         CALL ASW$READ_WSN (WSNDEV$, WSNDEV_ARS) ALTRET( WSN_ERR) ;

  14096  4 000060   200007 630500                    EPPR0   WSNDEV_ARS,,AUTO
         4 000061   200015 450500                    STP0    WSN_WRIT+2,,AUTO
         4 000062   200005 631500                    EPPR1   WSNDEV$,,AUTO
         4 000063   200014 451500                    STP1    WSN_WRIT+1,,AUTO
         4 000064   200014 630500                    EPPR0   WSN_WRIT+1,,AUTO
         4 000065   000020 631400 xsym               EPPR1   B_VECTNIL+16
         4 000066   000000 701000 xent               TSX1    ASW$READ_WSN
         4 000067   000215 702000 4                  TSX2    WSN_ERR

PL6.E3A0      #002=ASR$R_DEVWSN File=ASR$EXT.:E05TSI                             TUE 07/29/97 10:47 Page:42
      195    14097    3         IF WSN_MSG

  14097  4 000070   200003 470500                    LDP0    @WSN_MSG,,AUTO
         4 000071   000000 234100                    SZN     0,,PR0
         4 000072   000127 605000 4                  TPL     s:14110

      196    14098    4         THEN DO;

      197    14099    5            IF I = 0 THEN DO;

  14099  4 000073   200006 235100                    LDA     I,,AUTO
         4 000074   000107 601000 4                  TNZ     s:14104

      198    14100    5               CALL CONCAT(FMT_BUF, '%\',SUBSTR(WSNDEV_KEY.ACCT,0,8));

  14100  4 000075   000000 220000 3                  LDX0    0
         4 000076   000000 740000 xsym               STX0    FMT_BUF
         4 000077   040000 100400                    MLR     fill='040'O
         4 000100   000004 200010 2                  ADSC9   WSNDEV_KEY               cn=1,n=8
         4 000101   000000 400375 xsym               ADSC9   FMT_BUF                  cn=2,n=253

      199    14101    5               FDS.FMT_.BOUND = 9;

  14101  4 000102   000000 236000 xsym               LDQ     FDS
         4 000103   177777 376007                    ANQ     65535,DL
         4 000104   000000 276000 5                  ORQ     0
         4 000105   000000 756000 xsym               STQ     FDS

      200    14102    5               END;

  14102  4 000106   000121 710000 4                  TRA     s:14107

      201    14103    5            ELSE DO;

      202    14104    5               CALL CONCAT(FMT_BUF, '%\%-%10R', SUBSTR(WSNDEV_KEY.ACCT,0,8));

  14104  4 000107   040000 100400                    MLR     fill='040'O
PL6.E3A0      #002=ASR$R_DEVWSN File=ASR$EXT.:E05TSI                             TUE 07/29/97 10:47 Page:43
         4 000110   000001 000010 3                  ADSC9   1                        cn=0,n=8
         4 000111   000000 000010 xsym               ADSC9   FMT_BUF                  cn=0,n=8
         4 000112   040000 100400                    MLR     fill='040'O
         4 000113   000004 200010 2                  ADSC9   WSNDEV_KEY               cn=1,n=8
         4 000114   000002 000367 xsym               ADSC9   FMT_BUF+2                cn=0,n=247

      203    14105    5               FDS.FMT_.BOUND = 15;

  14105  4 000115   000000 236000 xsym               LDQ     FDS
         4 000116   177777 376007                    ANQ     65535,DL
         4 000117   000001 276000 5                  ORQ     1
         4 000120   000000 756000 xsym               STQ     FDS

      204    14106    5               END;

      205    14107    4            CALL X$FORMAT (FDS);

  14107  4 000121   000002 630400 5                  EPPR0   2
         4 000122   000017 631400 xsym               EPPR1   B_VECTNIL+15
         4 000123   000000 701000 xent               TSX1    X$FORMAT
         4 000124   000000 011000                    NOP     0

      206    14108    4            WSN_WRIT = '1'B;

  14108  4 000125   400000 236003                    LDQ     -131072,DU
         4 000126   200013 756100                    STQ     WSN_WRIT,,AUTO

      207    14109    4            END;

      208    14110    4         DO J = 0 TO KL$WSNDEV.NDEV - 1 ;

  14110  4 000127   200011 450100                    STZ     J,,AUTO
         4 000130   000201 710000 4                  TRA     s:14120+3

      209    14111    4            IF KL$WSNDEV.DEV(J) = DEVWSN_KEY.ACCT

  14111  4 000131   200011 235100                    LDA     J,,AUTO
PL6.E3A0      #002=ASR$R_DEVWSN File=ASR$EXT.:E05TSI                             TUE 07/29/97 10:47 Page:44
         4 000132   000003 735000                    ALS     3
         4 000133   200005 470500                    LDP0    WSNDEV$,,AUTO
         4 000134   040000 106505                    CMPC    fill='040'O
         4 000135   000001 000010                    ADSC9   1,A,PR0                  cn=0,n=8
         4 000136   000000 200010 2                  ADSC9   DEVWSN_KEY               cn=1,n=8
         4 000137   000176 601000 4                  TNZ     s:14120

      210    14112    5            THEN DO ;

      211    14113    6               DO K = J TO KL$WSNDEV.NDEV - 2 ;

  14113  4 000140   200011 236100                    LDQ     J,,AUTO
         4 000141   200012 756100                    STQ     K,,AUTO
         4 000142   000157 710000 4                  TRA     s:14115+3

      212    14114    6                  KL$WSNDEV.DEV (K) = KL$WSNDEV.DEV (K + 1) ;

  14114  4 000143   200012 235100                    LDA     K,,AUTO
         4 000144   000001 735000                    ALS     1
         4 000145   200012 236100                    LDQ     K,,AUTO
         4 000146   000003 736000                    QLS     3
         4 000147   000002 735000                    ALS     2
         4 000150   200005 470500                    LDP0    WSNDEV$,,AUTO
         4 000151   040105 100506                    MLR     fill='040'O
         4 000152   000003 000010                    ADSC9   3,Q,PR0                  cn=0,n=8
         4 000153   000001 000010                    ADSC9   1,A,PR0                  cn=0,n=8

      213    14115    6                  END ; /* Do k */

  14115  4 000154   200012 235100                    LDA     K,,AUTO
         4 000155   000001 035007                    ADLA    1,DL
         4 000156   200012 755100                    STA     K,,AUTO
         4 000157   200005 470500                    LDP0    WSNDEV$,,AUTO
         4 000160   000000 236100                    LDQ     0,,PR0
         4 000161   000002 136007                    SBLQ    2,DL
         4 000162   000165 604000 4                  TMI     s:14116
         4 000163   200012 116100                    CMPQ    K,,AUTO
PL6.E3A0      #002=ASR$R_DEVWSN File=ASR$EXT.:E05TSI                             TUE 07/29/97 10:47 Page:45
         4 000164   000143 603000 4                  TRC     s:14114

      214    14116    5               KL$WSNDEV.NDEV = KL$WSNDEV.NDEV - 1 ;

  14116  4 000165   000000 235100                    LDA     0,,PR0
         4 000166   000001 135007                    SBLA    1,DL
         4 000167   000000 755100                    STA     0,,PR0

      215    14117    5               WSNDEV_ARS = WSNDEV_ARS - LENGTHC (KL$WSNDEV.DEV (0));

  14117  4 000170   200007 235100                    LDA     WSNDEV_ARS,,AUTO
         4 000171   000010 135007                    SBLA    8,DL
         4 000172   200007 755100                    STA     WSNDEV_ARS,,AUTO

      216    14118    5               J = KL$WSNDEV.NDEV ;

  14118  4 000173   200005 470500                    LDP0    WSNDEV$,,AUTO
         4 000174   000000 235100                    LDA     0,,PR0
         4 000175   200011 755100                    STA     J,,AUTO

      217    14119    5               END; /* Then do */

      218    14120    4            END; /* Do j */

  14120  4 000176   200011 235100                    LDA     J,,AUTO
         4 000177   000001 035007                    ADLA    1,DL
         4 000200   200011 755100                    STA     J,,AUTO
         4 000201   200005 470500                    LDP0    WSNDEV$,,AUTO
         4 000202   200011 236100                    LDQ     J,,AUTO
         4 000203   000000 116100                    CMPQ    0,,PR0
         4 000204   000131 602000 4                  TNC     s:14111

      219    14121    3         CALL ASW$WRITE_WSN (WSNDEV$, WSNDEV_ARS) ;

  14121  4 000205   200007 631500                    EPPR1   WSNDEV_ARS,,AUTO
         4 000206   200015 451500                    STP1    WSN_WRIT+2,,AUTO
         4 000207   200005 633500                    EPPR3   WSNDEV$,,AUTO
PL6.E3A0      #002=ASR$R_DEVWSN File=ASR$EXT.:E05TSI                             TUE 07/29/97 10:47 Page:46
         4 000210   200014 453500                    STP3    WSN_WRIT+1,,AUTO
         4 000211   200014 630500                    EPPR0   WSN_WRIT+1,,AUTO
         4 000212   000020 631400 xsym               EPPR1   B_VECTNIL+16
         4 000213   000000 701000 xent               TSX1    ASW$WRITE_WSN
         4 000214   000000 011000                    NOP     0

  14115  4 000215                       WSN_ERR      null
      220    14122    3   WSN_ERR: ;
      221    14123    3         END; /*  Do i */

  14123  4 000215   200006 235100                    LDA     I,,AUTO
         4 000216   000001 035007                    ADLA    1,DL
         4 000217   200006 755100                    STA     I,,AUTO
         4 000220   200004 470500                    LDP0    DEVWSN$,,AUTO
         4 000221   200006 236100                    LDQ     I,,AUTO
         4 000222   000000 116100                    CMPQ    0,,PR0
         4 000223   000036 602000 4                  TNC     s:14091

      222    14124    2      FMT_BUF = '%\%/';

  14124  4 000224   040000 100400                    MLR     fill='040'O
         4 000225   000003 000004 3                  ADSC9   3                        cn=0,n=4
         4 000226   000000 000377 xsym               ADSC9   FMT_BUF                  cn=0,n=255

      223    14125    2      FDS.FMT_.BOUND = 3;

  14125  4 000227   000000 236000 xsym               LDQ     FDS
         4 000230   177777 376007                    ANQ     65535,DL
         4 000231   600000 276007                    ORQ     -65536,DL
         4 000232   000000 756000 xsym               STQ     FDS

      224    14126    2      FDS.NVECS# = 0;

  14126  4 000233   000011 450000 xsym               STZ     FDS+9

      225    14127    2      CALL X$FORMAT (FDS);

PL6.E3A0      #002=ASR$R_DEVWSN File=ASR$EXT.:E05TSI                             TUE 07/29/97 10:47 Page:47
  14127  4 000234   000002 630400 5                  EPPR0   2
         4 000235   000017 631400 xsym               EPPR1   B_VECTNIL+15
         4 000236   000000 701000 xent               TSX1    X$FORMAT
         4 000237   000000 011000                    NOP     0

      226    14128    2      USERS_KEY = DEVWSN_KEY ;

  14128  4 000240   000000 100400                    MLR     fill='000'O
         4 000241   000000 000015 2                  ADSC9   DEVWSN_KEY               cn=0,n=13
         4 000242   000000 000052 xsym               ADSC9   USERS_KEY                cn=0,n=42

      227    14129    2      CALL ASB$DELREC_HLP ;

  14129  4 000243   000002 631400 xsym               EPPR1   B_VECTNIL+2
         4 000244   000000 701000 xent               TSX1    ASB$DELREC_HLP
         4 000245   000000 011000                    NOP     0

      228    14130    2      END; /* Of the do for > 0 wsns */

  14130  4 000246   000255 710000 4                  TRA     DEV_ERR

      229    14131    2   ELSE DO;

      230    14132    2      USERS_KEY = DEVWSN_KEY;

  14132  4 000247   000000 100400                    MLR     fill='000'O
         4 000250   000000 000015 2                  ADSC9   DEVWSN_KEY               cn=0,n=13
         4 000251   000000 000052 xsym               ADSC9   USERS_KEY                cn=0,n=42

      231    14133    2      CALL ASB$DELREC_HLP;

  14133  4 000252   000002 631400 xsym               EPPR1   B_VECTNIL+2
         4 000253   000000 701000 xent               TSX1    ASB$DELREC_HLP
         4 000254   000000 011000                    NOP     0

      232    14134    2      END;

PL6.E3A0      #002=ASR$R_DEVWSN File=ASR$EXT.:E05TSI                             TUE 07/29/97 10:47 Page:48
  14123  4 000255                       DEV_ERR      null
      233    14135    1   DEV_ERR: ;
      234    14136    1   ENQ_ERR: ;

  14136  4 000255                       ENQ_ERR      null
      235    14137    1   WSN_MSG = WSN_WRIT;

  14137  4 000255   200013 236100                    LDQ     WSN_WRIT,,AUTO
         4 000256   400000 376003                    ANQ     -131072,DU
         4 000257   200003 470500                    LDP0    @WSN_MSG,,AUTO
         4 000260   000000 756100                    STQ     0,,PR0

      236    14138    1   RETURN ;

  14138  4 000261   000000 702200 xent               TSX2  ! X66_ARET
      237    14139
      238    14140    1   END ASR$R_DEVWSN ;

PL6.E3A0      #002=ASR$R_DEVWSN File=ASR$EXT.:E05TSI                             TUE 07/29/97 10:47 Page:49
--  Include file information  --

   AS_SUPER_R.:E05TOU  cannot be made into a system file and is referenced.
   AS_PERR_C.:E05TOU  is referenced.
   XU_FORMAT_C.:E05TOU  is referenced.
   XU_MACRO_C.:E05TOU  is referenced.
   KL_SUPER_C.:E05TOU  is referenced.
   AS_MAC_C.:E05TOU  cannot be made into a system file and is referenced.
   AS_SUBS_C.:E05TOU  is referenced.
   AS_SUPER_C.:E05TOU  is referenced.
   AS_ENTRIES_M.:E05TOU  is referenced.
   B_ERRORS_C.:E05TOU  is referenced.
   CP_6.:E05TOU  cannot be made into a system file and is referenced.
   B$JIT_C.:E05TOU  was found in the system file and is never referenced.
   CP_6_C.:E05TOU  was found in the system file and is referenced.
      No diagnostics issued in procedure ASR$R_DEVWSN.
PL6.E3A0      #002=ASR$R_DEVWSN File=ASR$EXT.:E05TSI                             TUE 07/29/97 10:47 Page:50

 **** Variables and constants ****

  ****  Section 002  Data  ASR$R_DEVWSN

  ****  Scalars and arrays  ****
OctLoc.c.b A Datatyp(siz) R M Lvl/name                 OctLoc.c.b A Datatyp(siz) R M Lvl/name

     0-0-0/w STRC(117)   r     1 DEVWSN_KEY                 4-0-0/w STRC(144)   r     1 WSNDEV_KEY

  ****  Auto variables  ****

  ****  Scalars and arrays  ****
OctLoc.c.b A Datatyp(siz) R M Lvl/name                 OctLoc.c.b A Datatyp(siz) R M Lvl/name

     3-0-0/w PTR         r     1 @WSN_MSG                   4-0-0/w PTR         r     1 DEVWSN$
    10-0-0/w UBIN        r     1 DEVWSN_ARS                 6-0-0/w UBIN        r     1 I
    11-0-0/w UBIN        r     1 J                         12-0-0/w UBIN        r     1 K
     5-0-0/w PTR         r     1 WSNDEV$                    7-0-0/w UBIN        r     1 WSNDEV_ARS
    *0-0-0/w BIT         r     1 WSN_MSG                   13-0-0/b BIT         r     1 WSN_WRIT

  ****  SYMREF variables  ****

  ****  Scalars and arrays  ****
OctLoc.c.b A Datatyp(siz) R M Lvl/name                 OctLoc.c.b A Datatyp(siz) R M Lvl/name

     0-0-0/w PTR         r     1 DSEG1$                     0-0-0/w UBIN        r     1 DSEG1SIZE
     0-0-0/w STRC(1080)  r     1 FDS                        0-0-0/c CHAR(255)   r     1 FMT_BUF
     0-0-0/c STRC(378)   r     1 USERS_KEY

  ****  BASED and DCB variables  ****

  ****  Scalars and arrays  ****
OctLoc.c.b A Datatyp(siz) R M Lvl/name                 OctLoc.c.b A Datatyp(siz) R M Lvl/name

     0-0-0/w STRC(108)   r     1 KL$DEVWSN                  0-0-0/w STRC(108)   r     1 KL$WSNDEV

PL6.E3A0      #002=ASR$R_DEVWSN File=ASR$EXT.:E05TSI                             TUE 07/29/97 10:47 Page:51

   Procedure ASR$R_DEVWSN requires 178 words for executable code.
   Procedure ASR$R_DEVWSN requires 14 words of local(AUTO) storage.

    No errors detected in file ASR$EXT.:E05TSI    .
PL6.E3A0      #002=ASR$R_DEVWSN File=ASR$EXT.:E05TSI                             TUE 07/29/97 10:47 Page:52
          *** CROSS REFERENCE LISTING ***
**     DENOTES     IDENTIFIER DEFINITION
<<                 IDENTIFIER'S VALUE SET
>>                 IDENTIFIER'S VALUE USED
<>                 IDENTIFIER SET AND/OR USED
--                 IDENTIFIER REFERENCED
PL6.E3A0      #002=ASR$R_DEVWSN File=ASR$EXT.:E05TSI                             TUE 07/29/97 10:47 Page:53
          MINI XREF LISTING

ASA_BRKS_LOC
     11140**DCL     11140--REDEF
ASB$DELREC_HLP
     14022**DCL-ENT 14129--CALL    14133--CALL
ASB$ENQ_HLP
     14027**DCL-ENT 14086--CALL
ASB$READ_HLP
     14039**DCL-ENT 14087--CALL
ASW$ENQ_WSN
     14024**DCL-ENT 14093--CALL
ASW$READ_WSN
     14030**DCL-ENT 14096--CALL
ASW$WRITE_WSN
     14036**DCL-ENT 14121--CALL
AS_DEFAULT.BANNER_PERM
     11833**DCL     11834--REDEF
AS_DEFAULT.BUDGET.MACCT
     11738**DCL     11742--REDEF
AS_DEFAULT.BUDGET.MAX_PROJECTS
     11751**DCL     11754--REDEF
AS_DEFAULT.BUDGET.PACCUM
     11734**DCL     11736--REDEF
AS_DEFAULT.BUDGET.PMAXC
     11729**DCL     11731--REDEF
AS_DEFAULT.SETUP_CHRA.TXT
     11849**DCL     11850--REDEF   11851--REDEF
AS_DEFAULT_DREC.PASSWORD
     13103**DCL     13107--REDEF
AS_DEFAULT_DREC.RENAME
     13126**DCL     13127--REDEF
AS_DFLT.BANNER_PERM
     11655**DCL     11656--REDEF
PL6.E3A0      #002=ASR$R_DEVWSN File=ASR$EXT.:E05TSI                             TUE 07/29/97 10:47 Page:54
AS_DFLT.BUDGET.MACCT
     11560**DCL     11564--REDEF
AS_DFLT.BUDGET.MAX_PROJECTS
     11573**DCL     11576--REDEF
AS_DFLT.BUDGET.PACCUM
     11556**DCL     11558--REDEF
AS_DFLT.BUDGET.PMAXC
     11551**DCL     11553--REDEF
AS_DFLT.SETUP_CHRA.TXT
     11671**DCL     11672--REDEF   11673--REDEF
AS_FE_MODE
     11006**DCL     11007--REDEF
AS_MODE
     11003**DCL     11005--REDEF
AS_MOD_USER.ACCESS
     13868**DCL     13869--REDEF
AS_MOD_USER.BANNER
     13855**DCL     13856--REDEF
AS_MOD_USER.BANNER_PERM
     13857**DCL     13858--REDEF
AS_MOD_USER.BILL
     13863**DCL     13864--REDEF
AS_MOD_USER.CPROC
     13859**DCL     13860--REDEF
AS_MOD_USER.FEBILL
     13939**DCL     13940--REDEF
AS_MOD_USER.FECXTMEM
     13956**DCL     13957--REDEF
AS_MOD_USER.FEMINTS
     13941**DCL     13942--REDEF
AS_MOD_USER.FEMMEM
     13952**DCL     13953--REDEF
AS_MOD_USER.FEMTIME
     13950**DCL     13951--REDEF
AS_MOD_USER.FEPPRIV
     13947**DCL     13949--REDEF
PL6.E3A0      #002=ASR$R_DEVWSN File=ASR$EXT.:E05TSI                             TUE 07/29/97 10:47 Page:55
AS_MOD_USER.FEPRIV
     13944**DCL     13946--REDEF
AS_MOD_USER.FORCE_BIT
     13853**DCL     13854--REDEF
AS_MOD_USER.KEY
     13935**DCL     13937--REDEF
AS_MOD_USER.LASTCPROC
     13861**DCL     13862--REDEF
AS_MOD_USER.LIMITS.DO_
     13909**DCL     13910--REDEF
AS_MOD_USER.LIMITS.FPOOLS
     13925**DCL     13926--REDEF
AS_MOD_USER.LIMITS.LO
     13905**DCL     13906--REDEF
AS_MOD_USER.LIMITS.MEM
     13901**DCL     13902--REDEF
AS_MOD_USER.LIMITS.MPRIO
     13929**DCL     13930--REDEF
AS_MOD_USER.LIMITS.PDIS
     13917**DCL     13918--REDEF
AS_MOD_USER.LIMITS.PO
     13913**DCL     13914--REDEF
AS_MOD_USER.LIMITS.TDIS
     13921**DCL     13922--REDEF
AS_MOD_USER.LIMITS.TIME
     13897**DCL     13898--REDEF
AS_MOD_USER.MAXENQ
     13878**DCL     13879--REDEF
AS_MOD_USER.PERM_BIT
     13851**DCL     13852--REDEF
AS_MOD_USER.PPRIV
     13873**DCL     13875--REDEF
AS_MOD_USER.PRIOB
     13880**DCL     13881--REDEF
AS_MOD_USER.PRIV
     13870**DCL     13872--REDEF
PL6.E3A0      #002=ASR$R_DEVWSN File=ASR$EXT.:E05TSI                             TUE 07/29/97 10:47 Page:56
AS_MOD_USER.QUAN
     13876**DCL     13877--REDEF
AS_MOD_USER.SETUP
     13849**DCL     13850--REDEF
AS_PROJECT.BANNER_PERM
     12189**DCL     12190--REDEF
AS_PROJECT.BUDGET.MACCT
     12094**DCL     12098--REDEF
AS_PROJECT.BUDGET.MAX_PROJECTS
     12107**DCL     12110--REDEF
AS_PROJECT.BUDGET.PACCUM
     12090**DCL     12092--REDEF
AS_PROJECT.BUDGET.PMAXC
     12085**DCL     12087--REDEF
AS_PROJECT.SETUP_CHRA.TXT
     12205**DCL     12206--REDEF   12207--REDEF
AS_PROJECT_DFLT.BANNER_PERM
     12367**DCL     12368--REDEF
AS_PROJECT_DFLT.BUDGET.MACCT
     12272**DCL     12276--REDEF
AS_PROJECT_DFLT.BUDGET.MAX_PROJECTS
     12285**DCL     12288--REDEF
AS_PROJECT_DFLT.BUDGET.PACCUM
     12268**DCL     12270--REDEF
AS_PROJECT_DFLT.BUDGET.PMAXC
     12263**DCL     12265--REDEF
AS_PROJECT_DFLT.SETUP_CHRA.TXT
     12383**DCL     12384--REDEF   12385--REDEF
AS_PROJECT_DFLT_DREC.PASSWORD
     13589**DCL     13593--REDEF
AS_PROJECT_DFLT_DREC.RENAME
     13612**DCL     13613--REDEF
AS_PROJECT_DREC.PASSWORD
     13427**DCL     13431--REDEF
AS_PROJECT_DREC.RENAME
     13450**DCL     13451--REDEF
PL6.E3A0      #002=ASR$R_DEVWSN File=ASR$EXT.:E05TSI                             TUE 07/29/97 10:47 Page:57
AS_PROJ_ADMIN.BANNER_PERM
     12011**DCL     12012--REDEF
AS_PROJ_ADMIN.BUDGET.MACCT
     11916**DCL     11920--REDEF
AS_PROJ_ADMIN.BUDGET.MAX_PROJECTS
     11929**DCL     11932--REDEF
AS_PROJ_ADMIN.BUDGET.PACCUM
     11912**DCL     11914--REDEF
AS_PROJ_ADMIN.BUDGET.PMAXC
     11907**DCL     11909--REDEF
AS_PROJ_ADMIN.SETUP_CHRA.TXT
     12027**DCL     12028--REDEF   12029--REDEF
AS_PROJ_ADMIN_DREC.PASSWORD
     13265**DCL     13269--REDEF
AS_PROJ_ADMIN_DREC.RENAME
     13288**DCL     13289--REDEF
AS_USERS.BANNER_PERM
     11477**DCL     11478--REDEF
AS_USERS.BUDGET.MACCT
     11382**DCL     11386--REDEF
AS_USERS.BUDGET.MAX_PROJECTS
     11395**DCL     11398--REDEF
AS_USERS.BUDGET.PACCUM
     11378**DCL     11380--REDEF
AS_USERS.BUDGET.PMAXC
     11373**DCL     11375--REDEF
AS_USERS.SETUP_CHRA.TXT
     11493**DCL     11494--REDEF   11495--REDEF
AS_USERS_CONSTANT.BANNER_PERM
     12545**DCL     12546--REDEF
AS_USERS_CONSTANT.BUDGET.MACCT
     12450**DCL     12454--REDEF
AS_USERS_CONSTANT.BUDGET.MAX_PROJECTS
     12463**DCL     12466--REDEF
AS_USERS_CONSTANT.BUDGET.PACCUM
     12446**DCL     12448--REDEF
PL6.E3A0      #002=ASR$R_DEVWSN File=ASR$EXT.:E05TSI                             TUE 07/29/97 10:47 Page:58
AS_USERS_CONSTANT.BUDGET.PMAXC
     12441**DCL     12443--REDEF
AS_USERS_CONSTANT.SETUP_CHRA.TXT
     12561**DCL     12562--REDEF   12563--REDEF
B$ALT.CODE
     14066**DCL     14066--REDEF   14067--REDEF   14067--REDEF
B$ALT.ERR.ERR#
     14068**DCL     14068--REDEF
B$ALT.EVID
     14067**DCL     14067--REDEF   14067--REDEF
DEVWSN$
     13997**DCL     14049--IMP-PTR 14084<<ASSIGN  14087<>CALL    14088>>IF      14090>>DOINDEX 14091>>ASSIGN
DEVWSN_ARS
     14001**DCL     14085<<ASSIGN  14087<>CALL
DEVWSN_KEY
     14009**DCL     14083>>ASSIGN  14128>>ASSIGN  14132>>ASSIGN
DEVWSN_KEY.ACCT
     14011**DCL     14082<<ASSIGN  14111>>IF
DEV_ERR
     14123**LABEL   14087--CALLALT
DSEG1$
     11141**DCL     14084>>ASSIGN  14094>>ASSIGN
DSEG1SIZE
     11142**DCL     14085>>ASSIGN  14095>>ASSIGN
ENQ_ERR
     14136**LABEL   14086--CALLALT 14093--CALLALT
ERR_CODE
     11135**DCL     11136--REDEF
FDS
     11032**DCL     14107<>CALL    14127<>CALL
FDS.FMT_.BOUND
     11037**DCL     14101<<ASSIGN  14105<<ASSIGN  14125<<ASSIGN
FDS.NVECS#
     11060**DCL     14080<<ASSIGN  14126<<ASSIGN
FMT_BUF
     11131**DCL     14100<<CALLBLT 14104<<CALLBLT 14124<<ASSIGN
PL6.E3A0      #002=ASR$R_DEVWSN File=ASR$EXT.:E05TSI                             TUE 07/29/97 10:47 Page:59
I
     13999**DCL     14090<<DOINDEX 14091>>ASSIGN  14099>>IF
J
     14002**DCL     14110<<DOINDEX 14111>>IF      14113>>DOINDEX 14118<<ASSIGN
K
     14003**DCL     14113<<DOINDEX 14114>>ASSIGN  14114>>ASSIGN
KL$DEVWSN.DEV
     14051**DCL     14091>>ASSIGN
KL$DEVWSN.NDEV
     14050**DCL     14088>>IF      14090>>DOINDEX
KL$WSNDEV.DEV
     14057**DCL     14111>>IF      14114<<ASSIGN  14114>>ASSIGN  14117--ASSIGN
KL$WSNDEV.NDEV
     14056**DCL     14110>>DOINDEX 14113>>DOINDEX 14116<<ASSIGN  14116>>ASSIGN  14118>>ASSIGN
KL_DEFAULT.PASSWORD
     13751**DCL     13755--REDEF
KL_DEFAULT.RENAME
     13774**DCL     13775--REDEF
KL_DFLT.PASSWORD
     12941**DCL     12945--REDEF
KL_DFLT.RENAME
     12964**DCL     12965--REDEF
KL_DREC.PASSWORD
     12779**DCL     12783--REDEF
KL_DREC.RENAME
     12802**DCL     12803--REDEF
KL_DREC_CNT.PASSWORD
     12666**DCL     12670--REDEF
KL_DREC_CNT.RENAME
     12689**DCL     12690--REDEF
PROJ_KEY.TEXT
     11013**DCL     11013--REDEF
PROJ_KEY.TXT.PROJECT
     11013**DCL     11013--REDEF
REMEM_VAR
     11139**DCL     11139--REDEF
PL6.E3A0      #002=ASR$R_DEVWSN File=ASR$EXT.:E05TSI                             TUE 07/29/97 10:47 Page:60
REM_FCMD
     11139**DCL     11140--REDEF
USERS_KEY
     11010**DCL     14083<<ASSIGN  14092<<ASSIGN  14128<<ASSIGN  14132<<ASSIGN
USERS_KEY.TEXT
     11010**DCL     11011--REDEF   11011--REDEF   11011--REDEF   11012--REDEF
USERS_KEY.TXTC
     11011**DCL     14082>>ASSIGN
WSNDEV$
     13998**DCL     14055--IMP-PTR 14094<<ASSIGN  14096<>CALL    14110>>DOINDEX 14111>>IF      14113>>DOINDEX
     14114>>ASSIGN  14114>>ASSIGN  14116>>ASSIGN  14116>>ASSIGN  14118>>ASSIGN  14121<>CALL
WSNDEV_ARS
     14000**DCL     14095<<ASSIGN  14096<>CALL    14117<<ASSIGN  14117>>ASSIGN  14121<>CALL
WSNDEV_KEY
     14013**DCL     14092>>ASSIGN
WSNDEV_KEY.ACCT
     14015**DCL     14091<<ASSIGN  14100>>CALLBLT 14104>>CALLBLT
WSN_ERR
     14115**LABEL   14096--CALLALT
WSN_MSG
        11**DCL        10--PROC    14097>>IF      14137<<ASSIGN
WSN_WRIT
     14004**DCL     14081<<ASSIGN  14108<<ASSIGN  14137>>ASSIGN
X$FORMAT
     14041**DCL-ENT 14107--CALL    14127--CALL
