VERSION E05

PL6.E3A0      #001=ASR$R_CHARSET File=ASR$REMOVE_CHARSET.:E05TSI                 TUE 07/29/97 10:48 Page:1
        1        1        /*M* ASR$R_CHARSET - processes REMOVE CHARSET command.     */
        2        2        /*T***********************************************************/
        3        3        /*T*                                                         */
        4        4        /*T* Copyright (c) Bull HN Information Systems Inc., 1997    */
        5        5        /*T*                                                         */
        6        6        /*T***********************************************************/
        7        7        /*X*  DMC,DMR,CCC,PLM=0,IND=3,CTI=5,DCI=6,IAD=0,DTI=0,IDT=0,ENI=3,
        8        8              ECU=3,CSU=3,SDI=3                                           */
        9        9                                                              /**/
       10       10        ASR$R_CHARSET: PROC;
       11       11
       12       12        /*P* NAME:    ASR$R_CHARSET
       13       13             PURPOSE: Process REMOVE CHARSET command.
       14       14             DESCRIPTION:
       15       15             This module deletes a specified charset record in :FORM.
       16       16        */
       17       17
       18       18        %INCLUDE    CP_6;
       19     5577        %INCLUDE    B_ERRORS_C;
       20     6704        %INCLUDE    FS_SUPER_C;
       21     7467        %INCLUDE    AS_ENTRIES_M ;
       22     8517        %INCLUDE    AS_SUPER_C ;
       23     8952        %INCLUDE    AS_SUBS_C  ;
       24    10366        %INCLUDE    AS_MAC_C   ;
       25    10446        %INCLUDE    KL_SUPER_C ;
       26    13348        %INCLUDE    XU_MACRO_C ;
       27    16454        %INCLUDE    XU_FORMAT_C ;
       28    16616        %INCLUDE    AS_PERR_C ;
       29    17218        %INCLUDE    AS_SUPER_R ;
       30    20234    1   DCL 1 CHARSET_KEY,
       31    20235    1          2 CNT UBIN BYTE UNAL,
       32    20236    1          2 TEXT CHAR(8) UNAL;
       33    20237    1   DCL BLK$ PTR;
       34    20238        /* Dcl NODE$ ptr; */
       35    20239        %ASF$DELREC_FORM ;
       36    20242        %ASH$ERROR ;
       37    20245        %ASH$WARN ;
PL6.E3A0      #001=ASR$R_CHARSET File=ASR$REMOVE_CHARSET.:E05TSI                 TUE 07/29/97 10:48 Page:2
       38    20248        %ASH$INFO ;
       39    20251        %PARSE$SYM(NAME=OUT$SYM,STCLASS="BASED(BLK$)");
       40    20289        %PARSE$OUT(NAME=P$NODE,STCLASS="BASED(NODE$)",
       41    20290              NDTYPE=TYPE,NSUBLKS=SUBNODES);
       42    20335        /*
       43    20336            ***            Begin procedure                    ***
       44    20337        */
       45    20338    1   BLK$ = P$NODE.SUBLK$(0)->P$NODE.SUBLK$(0);
       46    20339    1   USERS_KEY.COUNT = OUT$SYM.COUNT + 8;
       47    20340    1   CALL CONCAT (USERS_KEY.TXTC,'~',OUT$SYM.TEXT,'CHARSET');
       48    20341    1   CHARSET_KEY.CNT = OUT$SYM.COUNT;
       49    20342    1   CHARSET_KEY.TEXT = OUT$SYM.TEXT;
       50    20343
       51    20344    1   IF OUT$SYM.COUNT > 8
       52    20345    2   THEN DO;
       53    20346           /*E* ERROR: ASR-E$CHARNAMETOOBIG-0
       54    20347            MESSAGE: "%U1" is too long for a CHARSET name.
       55    20348            MESSAGE1: CHARSET names can be at most 8 characters long.
       56    20349           */
       57    20350    2      AS_FIELD1 = CHARSET_KEY;
       58    20351           %SCREAM( ERR#=E$CHARNAMETOOBIG, LEVEL=ERROR, MID='R' );
       59    20366    2      RETURN;
       60    20367    2      END;
       61    20368
       62    20369    2   IF OUT$SYM.TEXT = '600' THEN DO;
       63    20370        /*E* ERROR:  ASR-E$CANT_REM_600-0
       64    20371             MESSAGE: You cannot remove this charset.
       65    20372             MESSAGE1: This charset is a standard charset.  It is used as the
       66    20373                       base charset for creating other charsets.
       67    20374             MESSAGE2: If this charset were to be removed, you would have
       68    20375                       problems later on trying to create other charsets.
       69    20376        */
       70    20377           %SCREAM (ERR#=%E$CANT_REM_600, LEVEL=ERROR, MID='R');
       71    20392    2      RETURN;
       72    20393    2      END;  /*  If text = '600'  */
       73    20394    1   CALL ASF$DELREC_FORM
       74    20395    2   WHENRETURN DO;
PL6.E3A0      #001=ASR$R_CHARSET File=ASR$REMOVE_CHARSET.:E05TSI                 TUE 07/29/97 10:48 Page:3
       75    20396           /*E* ERROR: ASR-E$CHARSETREMOVED-0
       76    20397            MESSAGE: The charset "%U1" has been removed.
       77    20398           */
       78    20399    2      AS_FIELD1 = CHARSET_KEY;
       79    20400           %SCREAM( ERR#=E$CHARSETREMOVED, LEVEL=INFO, MID='R' );
       80    20415    2      END;
       81    20416    2   WHENALTRETURN DO;
       82    20417    2      IF MERR_CODE.CODE= %E$NOKEY
       83    20418    3      THEN DO;
       84    20419              /*E* ERROR: ASR-E$CHARSETNOEXIST-0
       85    20420               MESSAGE: The charset "%U1" does not exist.
       86    20421              */
       87    20422    3         AS_FIELD1 = CHARSET_KEY;
       88    20423              %SCREAM( ERR#=E$CHARSETNOEXIST, LEVEL=WARN, MID='R' );
       89    20438    3         END;
       90    20439    3      ELSE DO;
       91    20440    3         CALL ASH$ERROR( ERR_CODE );
       92    20441    3         END;
       93    20442    2      END; /* When altreturn */
       94    20443
       95    20444    1   RETURN;
       96    20445    1   END ASR$R_CHARSET;

PL6.E3A0      #001=ASR$R_CHARSET File=ASR$REMOVE_CHARSET.:E05TSI                 TUE 07/29/97 10:48 Page:4
--  Include file information  --

   AS_SUPER_R.:E05TOU  cannot be made into a system file and is referenced.
   AS_PERR_C.:E05TOU  is referenced.
   XU_FORMAT_C.:E05TOU  is referenced.
   XU_MACRO_C.:E05TOU  is referenced.
   KL_SUPER_C.:E05TOU  is referenced.
   AS_MAC_C.:E05TOU  cannot be made into a system file and is referenced.
   AS_SUBS_C.:E05TOU  is referenced.
   AS_SUPER_C.:E05TOU  is referenced.
   AS_ENTRIES_M.:E05TOU  is referenced.
   FS_SUPER_C.:E05TOU  is referenced.
   B_ERRORS_C.:E05TOU  is referenced.
   CP_6_C.:E05TOU  is referenced.
   CP_6.:E05TOU  cannot be made into a system file and is referenced.
      No diagnostics issued in procedure ASR$R_CHARSET.

   Procedure ASR$R_CHARSET requires 88 words for executable code.
   Procedure ASR$R_CHARSET requires 10 words of local(AUTO) storage.

    No errors detected in file ASR$REMOVE_CHARSET.:E05TSI    .

PL6.E3A0      #001=ASR$R_CHARSET File=ASR$REMOVE_CHARSET.:E05TSI                 TUE 07/29/97 10:48 Page:5

 Object Unit name= ASR$R_CHARSET                              File name= ASR$REMOVE_CHARSET.:E05TOU
 UTS= JUL 29 '97 10:48:21.08 TUE                              Compiler= PL-6/E31         Sev=      00
 SharedLib= :SHARED_SYSTEM                                    Alt SharedLib=


    ****  Control sections  ****

 Sect   Type Bound  Init  Size OctSiz  Section name(segment info)
    0   DCB   even  none     0      0  M$UC
    1   DCB   even  none     0      0  M$LO
    2  RoData even  UTS      7      7  ASR$R_CHARSET
    3   Proc  even  none    88    130  ASR$R_CHARSET
    4  RoData even  none     5      5  ASR$R_CHARSET

    ****  Entry defs  ****

                              Check   Calling
                             calling  sequence
  Sect OctLoc Primary Altret sequence   type   Parms  Name
     3      0   yes            yes      Std        0  ASR$R_CHARSET

  ****  Entry refs  ****

         Check        Calling
        calling       sequence
Altret sequence SRef   type   Args  Name
         yes          ~proc      0 XU_OUTPUT_OPTIONS
 yes     yes           Std       0 ASF$DELREC_FORM
         yes           Std       2 ASH$ERROR
         yes           Std       2 ASH$INFO
         yes           Std       2 ASH$WARN
                       nStd      0 X66_AUTO_0
                       Std       0 B_CONSPOOL_D
                       nStd      0 X66_ARET
PL6.E3A0      #001=ASR$R_CHARSET File=ASR$REMOVE_CHARSET.:E05TSI                 TUE 07/29/97 10:48 Page:6

  ****  Data refs  ****

  Flags:  r = read only, s = secondary
Flgs Name                             Flgs Name                             Flgs Name
     M$UC                             r    AS_MODE                          r    AS_FE_MODE
     M$LO                                  USERS_KEY                             NODE$
     ERR_CODE                              AS_FIELD1                             REMEM_VAR
     REM_FCMD                              ASA_BRKS_LOC                          B_VECTNIL

  ****  Segment refs  ****

  Flags:  r = read only, s = secondary
Flgs Name                             Flgs Name                             Flgs Name
     ISSID
PL6.E3A0      #001=ASR$R_CHARSET File=ASR$REMOVE_CHARSET.:E05TSI                 TUE 07/29/97 10:48 Page:7


        1        1        /*M* ASR$R_CHARSET - processes REMOVE CHARSET command.     */
        2        2        /*T***********************************************************/
        3        3        /*T*                                                         */
        4        4        /*T* Copyright (c) Bull HN Information Systems Inc., 1997    */
        5        5        /*T*                                                         */
        6        6        /*T***********************************************************/
        7        7        /*X*  DMC,DMR,CCC,PLM=0,IND=3,CTI=5,DCI=6,IAD=0,DTI=0,IDT=0,ENI=3,
        8        8              ECU=3,CSU=3,SDI=3                                           */
        9        9                                                              /**/
       10       10        ASR$R_CHARSET: PROC;

     10  3 000000   000000 700200 xent  ASR$R_CHARS* TSX0  ! X66_AUTO_0
         3 000001   000012 000000                    ZERO    10,0

       11       11
       12       12        /*P* NAME:    ASR$R_CHARSET
       13       13             PURPOSE: Process REMOVE CHARSET command.
       14       14             DESCRIPTION:
       15       15             This module deletes a specified charset record in :FORM.
       16       16        */
       17       17
       18       18        %INCLUDE    CP_6;
       19     5577        %INCLUDE    B_ERRORS_C;
       20     6704        %INCLUDE    FS_SUPER_C;
       21     7467        %INCLUDE    AS_ENTRIES_M ;
       22     8517        %INCLUDE    AS_SUPER_C ;
       23     8952        %INCLUDE    AS_SUBS_C  ;
       24    10366        %INCLUDE    AS_MAC_C   ;
       25    10446        %INCLUDE    KL_SUPER_C ;
       26    13348        %INCLUDE    XU_MACRO_C ;
       27    16454        %INCLUDE    XU_FORMAT_C ;
       28    16616        %INCLUDE    AS_PERR_C ;
       29    17218        %INCLUDE    AS_SUPER_R ;
       30    20234    1   DCL 1 CHARSET_KEY,
       31    20235    1          2 CNT UBIN BYTE UNAL,
       32    20236    1          2 TEXT CHAR(8) UNAL;
PL6.E3A0      #001=ASR$R_CHARSET File=ASR$REMOVE_CHARSET.:E05TSI                 TUE 07/29/97 10:48 Page:8
       33    20237    1   DCL BLK$ PTR;
       34    20238        /* Dcl NODE$ ptr; */
       35    20239        %ASF$DELREC_FORM ;
       36    20242        %ASH$ERROR ;
       37    20245        %ASH$WARN ;
       38    20248        %ASH$INFO ;
       39    20251        %PARSE$SYM(NAME=OUT$SYM,STCLASS="BASED(BLK$)");
       40    20289        %PARSE$OUT(NAME=P$NODE,STCLASS="BASED(NODE$)",
       41    20290              NDTYPE=TYPE,NSUBLKS=SUBNODES);
       42    20335        /*
       43    20336            ***            Begin procedure                    ***
       44    20337        */
       45    20338    1   BLK$ = P$NODE.SUBLK$(0)->P$NODE.SUBLK$(0);

  20338  3 000002   000000 470400 xsym               LDP0    NODE$
         3 000003   000003 471500                    LDP1    3,,PR0
         3 000004   100003 236100                    LDQ     3,,PR1
         3 000005   200006 756100                    STQ     BLK$,,AUTO

       46    20339    1   USERS_KEY.COUNT = OUT$SYM.COUNT + 8;

  20339  3 000006   200006 473500                    LDP3    BLK$,,AUTO
         3 000007   300004 236100                    LDQ     4,,PR3
         3 000010   000033 772000                    QRL     27
         3 000011   000010 036007                    ADLQ    8,DL
         3 000012   000033 736000                    QLS     27
         3 000013   000000 552040 xsym               STBQ    USERS_KEY,'40'O

       47    20340    1   CALL CONCAT (USERS_KEY.TXTC,'~',OUT$SYM.TEXT,'CHARSET');

  20340  3 000014   300004 236100                    LDQ     4,,PR3
         3 000015   000033 772000                    QRL     27
         3 000016   000000 620006                    EAX0    0,QL
         3 000017   000176 236003                    LDQ     126,DU
         3 000020   000000 552020 xsym               STBQ    USERS_KEY,'20'O
         3 000021   040000 100540                    MLR     fill='040'O
         3 000022   300004 200010                    ADSC9   4,,PR3                   cn=1,n=*X0
PL6.E3A0      #001=ASR$R_CHARSET File=ASR$REMOVE_CHARSET.:E05TSI                 TUE 07/29/97 10:48 Page:9
         3 000023   000000 400050 xsym               ADSC9   USERS_KEY                cn=2,n=40
         3 000024   000000 636010                    EAQ     0,X0
         3 000025   000022 772000                    QRL     18
         3 000026   000050 116007                    CMPQ    40,DL
         3 000027   000040 603000 3                  TRC     s:20341
         3 000030   200010 740100                    STX0    BLK$+2,,AUTO
         3 000031   777727 620010                    EAX0    -41,X0
         3 000032   777777 660003                    ERX0    -1,DU
         3 000033   200010 235100                    LDA     BLK$+2,,AUTO
         3 000034   000022 771000                    ARL     18
         3 000035   040045 100400                    MLR     fill='040'O
         3 000036   000000 000007 2                  ADSC9   0                        cn=0,n=7
         3 000037   000000 400010 xsym               ADSC9   USERS_KEY,A              cn=2,n=*X0

       48    20341    1   CHARSET_KEY.CNT = OUT$SYM.COUNT;

  20341  3 000040   300004 236100                    LDQ     4,,PR3
         3 000041   200003 552140                    STBQ    CHARSET_KEY,'40'O,AUTO

       49    20342    1   CHARSET_KEY.TEXT = OUT$SYM.TEXT;

  20342  3 000042   300004 236100                    LDQ     4,,PR3
         3 000043   000033 772000                    QRL     27
         3 000044   000000 620006                    EAX0    0,QL
         3 000045   040100 100540                    MLR     fill='040'O
         3 000046   300004 200010                    ADSC9   4,,PR3                   cn=1,n=*X0
         3 000047   200003 200010                    ADSC9   CHARSET_KEY,,AUTO        cn=1,n=8

       50    20343
       51    20344    1   IF OUT$SYM.COUNT > 8

  20344  3 000050   000033 736000                    QLS     27
         3 000051   011000 116003                    CMPQ    4608,DU
         3 000052   000063 602000 3                  TNC     s:20369

       52    20345    2   THEN DO;

PL6.E3A0      #001=ASR$R_CHARSET File=ASR$REMOVE_CHARSET.:E05TSI                 TUE 07/29/97 10:48 Page:10
       53    20346           /*E* ERROR: ASR-E$CHARNAMETOOBIG-0
       54    20347            MESSAGE: "%U1" is too long for a CHARSET name.
       55    20348            MESSAGE1: CHARSET names can be at most 8 characters long.
       56    20349           */
       57    20350    2      AS_FIELD1 = CHARSET_KEY;

  20350  3 000053   000000 100500                    MLR     fill='000'O
         3 000054   200003 000011                    ADSC9   CHARSET_KEY,,AUTO        cn=0,n=9
         3 000055   000000 000051 xsym               ADSC9   AS_FIELD1                cn=0,n=41

       58    20351           %SCREAM( ERR#=E$CHARNAMETOOBIG, LEVEL=ERROR, MID='R' );

  20363  3 000056   000000 630400 4                  EPPR0   0
         3 000057   000017 631400 xsym               EPPR1   B_VECTNIL+15
         3 000060   000000 701000 xent               TSX1    ASH$ERROR
         3 000061   000000 011000                    NOP     0

       59    20366    2      RETURN;

  20366  3 000062   000000 702200 xent               TSX2  ! X66_ARET

       60    20367    2      END;
       61    20368
       62    20369    2   IF OUT$SYM.TEXT = '600' THEN DO;

  20369  3 000063   040000 106540                    CMPC    fill='040'O
         3 000064   300004 200010                    ADSC9   4,,PR3                   cn=1,n=*X0
         3 000065   000003 000003 2                  ADSC9   3                        cn=0,n=3
         3 000066   000074 601000 3                  TNZ     s:20394

       63    20370        /*E* ERROR:  ASR-E$CANT_REM_600-0
       64    20371             MESSAGE: You cannot remove this charset.
       65    20372             MESSAGE1: This charset is a standard charset.  It is used as the
       66    20373                       base charset for creating other charsets.
       67    20374             MESSAGE2: If this charset were to be removed, you would have
       68    20375                       problems later on trying to create other charsets.
       69    20376        */
PL6.E3A0      #001=ASR$R_CHARSET File=ASR$REMOVE_CHARSET.:E05TSI                 TUE 07/29/97 10:48 Page:11
       70    20377           %SCREAM (ERR#=%E$CANT_REM_600, LEVEL=ERROR, MID='R');

  20389  3 000067   000001 630400 4                  EPPR0   1
         3 000070   000017 631400 xsym               EPPR1   B_VECTNIL+15
         3 000071   000000 701000 xent               TSX1    ASH$ERROR
         3 000072   000000 011000                    NOP     0

       71    20392    2      RETURN;

  20392  3 000073   000000 702200 xent               TSX2  ! X66_ARET

       72    20393    2      END;  /*  If text = '600'  */
       73    20394    1   CALL ASF$DELREC_FORM

  20394  3 000074   000002 631400 xsym               EPPR1   B_VECTNIL+2
         3 000075   000000 701000 xent               TSX1    ASF$DELREC_FORM
         3 000076   000107 702000 3                  TSX2    s:20417

       74    20395    2   WHENRETURN DO;

       75    20396           /*E* ERROR: ASR-E$CHARSETREMOVED-0
       76    20397            MESSAGE: The charset "%U1" has been removed.
       77    20398           */
       78    20399    2      AS_FIELD1 = CHARSET_KEY;

  20399  3 000077   000000 100500                    MLR     fill='000'O
         3 000100   200003 000011                    ADSC9   CHARSET_KEY,,AUTO        cn=0,n=9
         3 000101   000000 000051 xsym               ADSC9   AS_FIELD1                cn=0,n=41

       79    20400           %SCREAM( ERR#=E$CHARSETREMOVED, LEVEL=INFO, MID='R' );

  20408  3 000102   000002 630400 4                  EPPR0   2
         3 000103   000017 631400 xsym               EPPR1   B_VECTNIL+15
         3 000104   000000 701000 xent               TSX1    ASH$INFO
         3 000105   000000 011000                    NOP     0

       80    20415    2      END;
PL6.E3A0      #001=ASR$R_CHARSET File=ASR$REMOVE_CHARSET.:E05TSI                 TUE 07/29/97 10:48 Page:12

  20415  3 000106   000127 710000 3                  TRA     s:20444

       81    20416    2   WHENALTRETURN DO;

       82    20417    2      IF MERR_CODE.CODE= %E$NOKEY

  20417  3 000107   000000 236000 xsym               LDQ     ERR_CODE
         3 000110   377770 376007                    ANQ     131064,DL
         3 000111   001020 116007                    CMPQ    528,DL
         3 000112   000123 601000 3                  TNZ     s:20440

       83    20418    3      THEN DO;

       84    20419              /*E* ERROR: ASR-E$CHARSETNOEXIST-0
       85    20420               MESSAGE: The charset "%U1" does not exist.
       86    20421              */
       87    20422    3         AS_FIELD1 = CHARSET_KEY;

  20422  3 000113   000000 100500                    MLR     fill='000'O
         3 000114   200003 000011                    ADSC9   CHARSET_KEY,,AUTO        cn=0,n=9
         3 000115   000000 000051 xsym               ADSC9   AS_FIELD1                cn=0,n=41

       88    20423              %SCREAM( ERR#=E$CHARSETNOEXIST, LEVEL=WARN, MID='R' );

  20433  3 000116   000003 630400 4                  EPPR0   3
         3 000117   000017 631400 xsym               EPPR1   B_VECTNIL+15
         3 000120   000000 701000 xent               TSX1    ASH$WARN
         3 000121   000000 011000                    NOP     0

       89    20438    3         END;

  20438  3 000122   000127 710000 3                  TRA     s:20444

       90    20439    3      ELSE DO;

       91    20440    3         CALL ASH$ERROR( ERR_CODE );
PL6.E3A0      #001=ASR$R_CHARSET File=ASR$REMOVE_CHARSET.:E05TSI                 TUE 07/29/97 10:48 Page:13

  20440  3 000123   000004 630400 4                  EPPR0   4
         3 000124   000017 631400 xsym               EPPR1   B_VECTNIL+15
         3 000125   000000 701000 xent               TSX1    ASH$ERROR
         3 000126   000000 011000                    NOP     0

       92    20441    3         END;

       93    20442    2      END; /* When altreturn */

       94    20443
       95    20444    1   RETURN;

  20444  3 000127   000000 702200 xent               TSX2  ! X66_ARET
       96    20445    1   END ASR$R_CHARSET;

PL6.E3A0      #001=ASR$R_CHARSET File=ASR$REMOVE_CHARSET.:E05TSI                 TUE 07/29/97 10:48 Page:14
--  Include file information  --

   AS_SUPER_R.:E05TOU  cannot be made into a system file and is referenced.
   AS_PERR_C.:E05TOU  is referenced.
   XU_FORMAT_C.:E05TOU  is referenced.
   XU_MACRO_C.:E05TOU  is referenced.
   KL_SUPER_C.:E05TOU  is referenced.
   AS_MAC_C.:E05TOU  cannot be made into a system file and is referenced.
   AS_SUBS_C.:E05TOU  is referenced.
   AS_SUPER_C.:E05TOU  is referenced.
   AS_ENTRIES_M.:E05TOU  is referenced.
   FS_SUPER_C.:E05TOU  is referenced.
   B_ERRORS_C.:E05TOU  is referenced.
   CP_6_C.:E05TOU  is referenced.
   CP_6.:E05TOU  cannot be made into a system file and is referenced.
      No diagnostics issued in procedure ASR$R_CHARSET.
PL6.E3A0      #001=ASR$R_CHARSET File=ASR$REMOVE_CHARSET.:E05TSI                 TUE 07/29/97 10:48 Page:15

 **** Variables and constants ****

  ****  Auto variables  ****

  ****  Scalars and arrays  ****
OctLoc.c.b A Datatyp(siz) R M Lvl/name                 OctLoc.c.b A Datatyp(siz) R M Lvl/name

     6-0-0/w PTR         r     1 BLK$                       3-0-0/c STRC(81)    r     1 CHARSET_KEY

  ****  SYMREF variables  ****

  ****  Scalars and arrays  ****
OctLoc.c.b A Datatyp(siz) R M Lvl/name                 OctLoc.c.b A Datatyp(siz) R M Lvl/name

     0-0-0/w STRC(369)   r     1 AS_FIELD1                  0-0-0/b STRC        r     1 ERR_CODE
     0-0-0/b STRC        r     1 MERR_CODE                  0-0-0/w PTR         r     1 NODE$
     0-0-0/c STRC(378)   r     1 USERS_KEY

  ****  BASED and DCB variables  ****

  ****  Scalars and arrays  ****
OctLoc.c.b A Datatyp(siz) R M Lvl/name                 OctLoc.c.b A Datatyp(siz) R M Lvl/name

     0-0-0/w ASTR(153)   r     1 OUT$SYM                    0-0-0/w STRC(144)   r     1 P$NODE


   Procedure ASR$R_CHARSET requires 88 words for executable code.
   Procedure ASR$R_CHARSET requires 10 words of local(AUTO) storage.

    No errors detected in file ASR$REMOVE_CHARSET.:E05TSI    .
PL6.E3A0      #001=ASR$R_CHARSET File=ASR$REMOVE_CHARSET.:E05TSI                 TUE 07/29/97 10:48 Page:16
          *** CROSS REFERENCE LISTING ***
**     DENOTES     IDENTIFIER DEFINITION
<<                 IDENTIFIER'S VALUE SET
>>                 IDENTIFIER'S VALUE USED
<>                 IDENTIFIER SET AND/OR USED
--                 IDENTIFIER REFERENCED
PL6.E3A0      #001=ASR$R_CHARSET File=ASR$REMOVE_CHARSET.:E05TSI                 TUE 07/29/97 10:48 Page:17
          MINI XREF LISTING

ASA_BRKS_LOC
     17382**DCL     17382--REDEF
ASF$DELREC_FORM
     20240**DCL-ENT 20394--CALL
ASH$ERROR
     20243**DCL-ENT 20363--CALL    20389--CALL    20440--CALL
ASH$INFO
     20249**DCL-ENT 20408--CALL
ASH$WARN
     20246**DCL-ENT 20433--CALL
AS_DEFAULT.BANNER_PERM
     18075**DCL     18076--REDEF
AS_DEFAULT.BUDGET.MACCT
     17980**DCL     17984--REDEF
AS_DEFAULT.BUDGET.MAX_PROJECTS
     17993**DCL     17996--REDEF
AS_DEFAULT.BUDGET.PACCUM
     17976**DCL     17978--REDEF
AS_DEFAULT.BUDGET.PMAXC
     17971**DCL     17973--REDEF
AS_DEFAULT.SETUP_CHRA.TXT
     18091**DCL     18092--REDEF   18093--REDEF
AS_DEFAULT_DREC.PASSWORD
     19345**DCL     19349--REDEF
AS_DEFAULT_DREC.RENAME
     19368**DCL     19369--REDEF
AS_DFLT.BANNER_PERM
     17897**DCL     17898--REDEF
AS_DFLT.BUDGET.MACCT
     17802**DCL     17806--REDEF
AS_DFLT.BUDGET.MAX_PROJECTS
     17815**DCL     17818--REDEF
PL6.E3A0      #001=ASR$R_CHARSET File=ASR$REMOVE_CHARSET.:E05TSI                 TUE 07/29/97 10:48 Page:18
AS_DFLT.BUDGET.PACCUM
     17798**DCL     17800--REDEF
AS_DFLT.BUDGET.PMAXC
     17793**DCL     17795--REDEF
AS_DFLT.SETUP_CHRA.TXT
     17913**DCL     17914--REDEF   17915--REDEF
AS_FE_MODE
     17248**DCL     17249--REDEF
AS_FIELD1
     17378**DCL     20350<<ASSIGN  20399<<ASSIGN  20422<<ASSIGN
AS_MODE
     17245**DCL     17247--REDEF
AS_MOD_USER.ACCESS
     20110**DCL     20111--REDEF
AS_MOD_USER.BANNER
     20097**DCL     20098--REDEF
AS_MOD_USER.BANNER_PERM
     20099**DCL     20100--REDEF
AS_MOD_USER.BILL
     20105**DCL     20106--REDEF
AS_MOD_USER.CPROC
     20101**DCL     20102--REDEF
AS_MOD_USER.FEBILL
     20181**DCL     20182--REDEF
AS_MOD_USER.FECXTMEM
     20198**DCL     20199--REDEF
AS_MOD_USER.FEMINTS
     20183**DCL     20184--REDEF
AS_MOD_USER.FEMMEM
     20194**DCL     20195--REDEF
AS_MOD_USER.FEMTIME
     20192**DCL     20193--REDEF
AS_MOD_USER.FEPPRIV
     20189**DCL     20191--REDEF
AS_MOD_USER.FEPRIV
     20186**DCL     20188--REDEF
PL6.E3A0      #001=ASR$R_CHARSET File=ASR$REMOVE_CHARSET.:E05TSI                 TUE 07/29/97 10:48 Page:19
AS_MOD_USER.FORCE_BIT
     20095**DCL     20096--REDEF
AS_MOD_USER.KEY
     20177**DCL     20179--REDEF
AS_MOD_USER.LASTCPROC
     20103**DCL     20104--REDEF
AS_MOD_USER.LIMITS.DO_
     20151**DCL     20152--REDEF
AS_MOD_USER.LIMITS.FPOOLS
     20167**DCL     20168--REDEF
AS_MOD_USER.LIMITS.LO
     20147**DCL     20148--REDEF
AS_MOD_USER.LIMITS.MEM
     20143**DCL     20144--REDEF
AS_MOD_USER.LIMITS.MPRIO
     20171**DCL     20172--REDEF
AS_MOD_USER.LIMITS.PDIS
     20159**DCL     20160--REDEF
AS_MOD_USER.LIMITS.PO
     20155**DCL     20156--REDEF
AS_MOD_USER.LIMITS.TDIS
     20163**DCL     20164--REDEF
AS_MOD_USER.LIMITS.TIME
     20139**DCL     20140--REDEF
AS_MOD_USER.MAXENQ
     20120**DCL     20121--REDEF
AS_MOD_USER.PERM_BIT
     20093**DCL     20094--REDEF
AS_MOD_USER.PPRIV
     20115**DCL     20117--REDEF
AS_MOD_USER.PRIOB
     20122**DCL     20123--REDEF
AS_MOD_USER.PRIV
     20112**DCL     20114--REDEF
AS_MOD_USER.QUAN
     20118**DCL     20119--REDEF
PL6.E3A0      #001=ASR$R_CHARSET File=ASR$REMOVE_CHARSET.:E05TSI                 TUE 07/29/97 10:48 Page:20
AS_MOD_USER.SETUP
     20091**DCL     20092--REDEF
AS_PROJECT.BANNER_PERM
     18431**DCL     18432--REDEF
AS_PROJECT.BUDGET.MACCT
     18336**DCL     18340--REDEF
AS_PROJECT.BUDGET.MAX_PROJECTS
     18349**DCL     18352--REDEF
AS_PROJECT.BUDGET.PACCUM
     18332**DCL     18334--REDEF
AS_PROJECT.BUDGET.PMAXC
     18327**DCL     18329--REDEF
AS_PROJECT.SETUP_CHRA.TXT
     18447**DCL     18448--REDEF   18449--REDEF
AS_PROJECT_DFLT.BANNER_PERM
     18609**DCL     18610--REDEF
AS_PROJECT_DFLT.BUDGET.MACCT
     18514**DCL     18518--REDEF
AS_PROJECT_DFLT.BUDGET.MAX_PROJECTS
     18527**DCL     18530--REDEF
AS_PROJECT_DFLT.BUDGET.PACCUM
     18510**DCL     18512--REDEF
AS_PROJECT_DFLT.BUDGET.PMAXC
     18505**DCL     18507--REDEF
AS_PROJECT_DFLT.SETUP_CHRA.TXT
     18625**DCL     18626--REDEF   18627--REDEF
AS_PROJECT_DFLT_DREC.PASSWORD
     19831**DCL     19835--REDEF
AS_PROJECT_DFLT_DREC.RENAME
     19854**DCL     19855--REDEF
AS_PROJECT_DREC.PASSWORD
     19669**DCL     19673--REDEF
AS_PROJECT_DREC.RENAME
     19692**DCL     19693--REDEF
AS_PROJ_ADMIN.BANNER_PERM
     18253**DCL     18254--REDEF
PL6.E3A0      #001=ASR$R_CHARSET File=ASR$REMOVE_CHARSET.:E05TSI                 TUE 07/29/97 10:48 Page:21
AS_PROJ_ADMIN.BUDGET.MACCT
     18158**DCL     18162--REDEF
AS_PROJ_ADMIN.BUDGET.MAX_PROJECTS
     18171**DCL     18174--REDEF
AS_PROJ_ADMIN.BUDGET.PACCUM
     18154**DCL     18156--REDEF
AS_PROJ_ADMIN.BUDGET.PMAXC
     18149**DCL     18151--REDEF
AS_PROJ_ADMIN.SETUP_CHRA.TXT
     18269**DCL     18270--REDEF   18271--REDEF
AS_PROJ_ADMIN_DREC.PASSWORD
     19507**DCL     19511--REDEF
AS_PROJ_ADMIN_DREC.RENAME
     19530**DCL     19531--REDEF
AS_USERS.BANNER_PERM
     17719**DCL     17720--REDEF
AS_USERS.BUDGET.MACCT
     17624**DCL     17628--REDEF
AS_USERS.BUDGET.MAX_PROJECTS
     17637**DCL     17640--REDEF
AS_USERS.BUDGET.PACCUM
     17620**DCL     17622--REDEF
AS_USERS.BUDGET.PMAXC
     17615**DCL     17617--REDEF
AS_USERS.SETUP_CHRA.TXT
     17735**DCL     17736--REDEF   17737--REDEF
AS_USERS_CONSTANT.BANNER_PERM
     18787**DCL     18788--REDEF
AS_USERS_CONSTANT.BUDGET.MACCT
     18692**DCL     18696--REDEF
AS_USERS_CONSTANT.BUDGET.MAX_PROJECTS
     18705**DCL     18708--REDEF
AS_USERS_CONSTANT.BUDGET.PACCUM
     18688**DCL     18690--REDEF
AS_USERS_CONSTANT.BUDGET.PMAXC
     18683**DCL     18685--REDEF
PL6.E3A0      #001=ASR$R_CHARSET File=ASR$REMOVE_CHARSET.:E05TSI                 TUE 07/29/97 10:48 Page:22
AS_USERS_CONSTANT.SETUP_CHRA.TXT
     18803**DCL     18804--REDEF   18805--REDEF
BLK$
     20237**DCL     20258--IMP-PTR 20338<<ASSIGN  20339>>ASSIGN  20340>>CALLBLT 20340>>CALLBLT 20341>>ASSIGN
     20342>>ASSIGN  20342>>ASSIGN  20344>>IF      20369>>IF      20369>>IF
CHARSET_KEY
     20234**DCL     20350>>ASSIGN  20399>>ASSIGN  20422>>ASSIGN
CHARSET_KEY.CNT
     20235**DCL     20341<<ASSIGN
CHARSET_KEY.TEXT
     20236**DCL     20342<<ASSIGN
ERR_CODE
     17377**DCL     17378--REDEF   20440<>CALL
KL_DEFAULT.PASSWORD
     19993**DCL     19997--REDEF
KL_DEFAULT.RENAME
     20016**DCL     20017--REDEF
KL_DFLT.PASSWORD
     19183**DCL     19187--REDEF
KL_DFLT.RENAME
     19206**DCL     19207--REDEF
KL_DREC.PASSWORD
     19021**DCL     19025--REDEF
KL_DREC.RENAME
     19044**DCL     19045--REDEF
KL_DREC_CNT.PASSWORD
     18908**DCL     18912--REDEF
KL_DREC_CNT.RENAME
     18931**DCL     18932--REDEF
MERR_CODE.CODE
     17378**DCL     20417>>IF
NODE$
     17375**DCL     20296--IMP-PTR 20338>>ASSIGN
OUT$SYM.COUNT
     20281**DCL     20284--IMP-SIZ 20339>>ASSIGN  20340>>CALLBLT 20341>>ASSIGN  20342>>ASSIGN  20344>>IF
     20369>>IF
PL6.E3A0      #001=ASR$R_CHARSET File=ASR$REMOVE_CHARSET.:E05TSI                 TUE 07/29/97 10:48 Page:23
OUT$SYM.TEXT
     20284**DCL     20340>>CALLBLT 20342>>ASSIGN  20369>>IF
P$NODE.SUBLK$
     20329**DCL     20338>>ASSIGN  20338>>ASSIGN
PROJ_KEY.TEXT
     17255**DCL     17255--REDEF
PROJ_KEY.TXT.PROJECT
     17255**DCL     17255--REDEF
REMEM_VAR
     17381**DCL     17381--REDEF
REM_FCMD
     17381**DCL     17382--REDEF
USERS_KEY.COUNT
     17252**DCL     20339<<ASSIGN
USERS_KEY.TEXT
     17252**DCL     17253--REDEF   17253--REDEF   17253--REDEF   17254--REDEF
USERS_KEY.TXTC
     17253**DCL     20340<<CALLBLT
