VERSION E05

PL6.E3A0      #001=ASR$R_PROFILE File=ASR$REMOVE_PROFILE.:E05TSI                 TUE 07/29/97 10:50 Page:1
        1        1        /*M* ASR$R_PROFILE - processes the REMOVE PROFILE command.   */
        2        2        /*T***********************************************************/
        3        3        /*T*                                                         */
        4        4        /*T* Copyright (c) Bull HN Information Systems Inc., 1997    */
        5        5        /*T*                                                         */
        6        6        /*T***********************************************************/
        7        7        /*X*  DMC,DMR,CCC,PLM=0,IND=3,CTI=5,DCI=6,IAD=0,DTI=0,IDT=0,ENI=3,
        8        8              ECU=3,CSU=3,SDI=3                                           */
        9        9                                                              /**/
       10       10
       11       11        ASR$R_PROFILE: PROC ;
       12       12
       13       13        %SUB LISTSUB = '1'B ;
       14       14
       15       15        /*********************************************************************/
       16       16        /*   Include files   include files   include files   include files   */
       17       17        /*********************************************************************/
       18       18                                                              /**/
       19       19        %INCLUDE    CP_6 ;
       20     5578        %INCLUDE    B_ERRORS_C ;
       21     6705        %INCLUDE    AS_ENTRIES_M ;
       22     7755        %INCLUDE    AS_SUPER_C ;
       23     8190        %INCLUDE    AS_SUBS_C  ;
       24     9604        %INCLUDE    AS_MAC_C   ;
       25     9684        %INCLUDE    KL_SUPER_C ;
       26    12586        %INCLUDE    XU_MACRO_C ;
       27    15692        %INCLUDE    XU_FORMAT_C ;
       28    15854        %INCLUDE    AS_PERR_C ;
       29    16456        %INCLUDE    AS_SUPER_R ;
       30    19472
       31    19473        /*********************************************************************/
       32    19474        /*   Auto data       auto data       auto data       auto data       */
       33    19475        /*********************************************************************/
       34    19476                                                              /**/
       35    19477    1   DCL BLK$ PTR ;
       36    19478    1   DCL 1 GR_KEY ALIGNED STATIC,
       37    19479    1          2 CNT UBIN BYTE UNAL INIT(21),
PL6.E3A0      #001=ASR$R_PROFILE File=ASR$REMOVE_PROFILE.:E05TSI                 TUE 07/29/97 10:50 Page:2
       38    19480    1          2 TEXT CHAR(11) UNAL INIT(' '),
       39    19481    1          2 * CHAR(10) UNAL INIT(' :graphics') ;
       40    19482
       41    19483        /*********************************************************************/
       42    19484        /*   Entry dcls      entry dcls      entry dcls      entry dcls      */
       43    19485        /*********************************************************************/
       44    19486                                                              /**/
       45    19487        %ASD$DELREC_PRO ;
       46    19490        %ASD$GR_DELREC_PRO ;
       47    19493        %ASH$ERROR ;
       48    19496        %ASH$WARN ;
       49    19499        %ASH$INFO ;
       50    19502
       51    19503        /*********************************************************************/
       52    19504        /*   Local based     local based     local based     local based     */
       53    19505        /*********************************************************************/
       54    19506                                                              /**/
       55    19507            %PARSE$OUT( NAME=P$NODE, STCLASS="BASED(NODE$)",
       56    19508                        NDTYPE=TYPE, NSUBLKS=SUBNODES) ;
       57    19553              %PARSE$SYM( NAME = OUT$SYM ,
       58    19554                          STCLASS="BASED(BLK$)") ;
       59    19592
       60    19593        /*********************************************************************/
       61    19594        /*   Procedure       procedure       procedure       procedure       */
       62    19595        /*********************************************************************/
       63    19596                                                              /**/
       64    19597        /*
       65    19598            ***            Begin procedure                    ***
       66    19599        */
       67    19600    1   BLK$ = P$NODE.SUBLK$(0) -> P$NODE.SUBLK$(0) ;
       68    19601    1   IF OUT$SYM.COUNT > 11
       69    19602    2   THEN DO ;
       70    19603        /*E*  ERROR:    ASR-E$PNAMETOOLONG-C
       71    19604              MESSAGE0: Profile name too long.
       72    19605              MESSAGE1: Profile name can be at most 11 characters long.
       73    19606        */
       74    19607           %SCREAM( ERR#=E$PNAMETOOLONG , LEVEL=ERROR, MID='R' );
PL6.E3A0      #001=ASR$R_PROFILE File=ASR$REMOVE_PROFILE.:E05TSI                 TUE 07/29/97 10:50 Page:3
       75    19622    2      RETURN ;
       76    19623    2      END ; /* Then do */
       77    19624    1   USERS_KEY.COUNT = OUT$SYM.COUNT ;
       78    19625    1   USERS_KEY.TXTC  = OUT$SYM.TEXT ;
       79    19626    1   GR_KEY.TEXT  = OUT$SYM.TEXT ;
       80    19627    1   AS_FIELD1 = USERS_KEY ;
       81    19628                                                              /* Remove profile */
       82    19629    1   CALL ASD$DELREC_PRO ALTRET( DELREC_ERR ) ;
       83    19630    2   IF '0'B THEN DO ;
       84    19631    2   DELREC_ERR: ;
       85    19632    2      IF MERR_CODE.CODE = %E$NOKEY
       86    19633    3      THEN DO ;
       87    19634        /*E*  ERROR:    ASR-E$PNNOEXIST-C
       88    19635              MESSAGE0: %%U1 %does not exist.
       89    19636              MESSAGE1: Profile %%U1 %does not exist.
       90    19637        */
       91    19638              %SCREAM( ERR#=E$PNNOEXIST , LEVEL=WARN, MID='R' );
       92    19653    3         END ; /* Then do */
       93    19654    2      ELSE
       94    19655    2         CALL ASH$ERROR( ERR_CODE, USERS_KEY ) ;
       95    19656    2      RETURN ;
       96    19657    2      END ;
       97    19658                                                              /**/
       98    19659        /*E*  ERROR:    ASR-E$PROREMOVED-C
       99    19660              MESSAGE0: Profile %%U1 %removed.
      100    19661        */
      101    19662        %SCREAM( ERR#=E$PROREMOVED , LEVEL=INFO, MID='R' );
      102    19677
      103    19678    1   CALL ASD$GR_DELREC_PRO  ALTRET( GR_DELREC_ERR ) ;
      104    19679    2   IF '0'B THEN DO ;
      105    19680    2   GR_DELREC_ERR: ;
      106    19681    2      IF MERR_CODE.CODE ~= %E$NOKEY
      107    19682    2      THEN CALL ASH$ERROR( ERR_CODE, GR_KEY ) ;
      108    19683    2      RETURN ;
      109    19684    2      END ;
      110    19685        /*E*   ERROR:    ASR-E$GRPROREMOVED-C
      111    19686               MESSAGE0: Graphics profile %%U1 %removed.
PL6.E3A0      #001=ASR$R_PROFILE File=ASR$REMOVE_PROFILE.:E05TSI                 TUE 07/29/97 10:50 Page:4
      112    19687        */
      113    19688        %SCREAM( ERR#=E$GRPROREMOVED , LEVEL=INFO, MID='R' );
      114    19703                                                              /**/
      115    19704    1   RETURN ;
      116    19705                                                              /**/
      117    19706    1   END   ASR$R_PROFILE ;

PL6.E3A0      #001=ASR$R_PROFILE File=ASR$REMOVE_PROFILE.:E05TSI                 TUE 07/29/97 10:50 Page:5
--  Include file information  --

   AS_SUPER_R.:E05TOU  cannot be made into a system file and is referenced.
   AS_PERR_C.:E05TOU  is referenced.
   XU_FORMAT_C.:E05TOU  is referenced.
   XU_MACRO_C.:E05TOU  is referenced.
   KL_SUPER_C.:E05TOU  is referenced.
   AS_MAC_C.:E05TOU  cannot be made into a system file and is referenced.
   AS_SUBS_C.:E05TOU  is referenced.
   AS_SUPER_C.:E05TOU  is referenced.
   AS_ENTRIES_M.:E05TOU  is referenced.
   B_ERRORS_C.:E05TOU  is referenced.
   CP_6_C.:E05TOU  is referenced.
   CP_6.:E05TOU  cannot be made into a system file and is referenced.
      No diagnostics issued in procedure ASR$R_PROFILE.

   Procedure ASR$R_PROFILE requires 73 words for executable code.
   Procedure ASR$R_PROFILE requires 4 words of local(AUTO) storage.

    No errors detected in file ASR$REMOVE_PROFILE.:E05TSI    .

PL6.E3A0      #001=ASR$R_PROFILE File=ASR$REMOVE_PROFILE.:E05TSI                 TUE 07/29/97 10:50 Page:6

 Object Unit name= ASR$R_PROFILE                              File name= ASR$REMOVE_PROFILE.:E05TOU
 UTS= JUL 29 '97 10:50:03.80 TUE                              Compiler= PL-6/E31         Sev=      00
 SharedLib= :SHARED_SYSTEM                                    Alt SharedLib=


    ****  Control sections  ****

 Sect   Type Bound  Init  Size OctSiz  Section name(segment info)
    0   DCB   even  none     0      0  M$UC
    1   DCB   even  none     0      0  M$LO
    2   Data  even  none     6      6  ASR$R_PROFILE
    3  RoData even  UTS      4      4  ASR$R_PROFILE
    4   Proc  even  none    73    111  ASR$R_PROFILE
    5  RoData even  none     8     10  ASR$R_PROFILE

    ****  Entry defs  ****

                              Check   Calling
                             calling  sequence
  Sect OctLoc Primary Altret sequence   type   Parms  Name
     4      0   yes            yes      Std        0  ASR$R_PROFILE

  ****  Entry refs  ****

         Check        Calling
        calling       sequence
Altret sequence SRef   type   Args  Name
         yes          ~proc      0 XU_OUTPUT_OPTIONS
         yes           Std       2 ASH$ERROR
 yes     yes           Std       0 ASD$DELREC_PRO
         yes           Std       2 ASH$INFO
 yes     yes           Std       0 ASD$GR_DELREC_PRO
         yes           Std       2 ASH$WARN
                       nStd      0 X66_AUTO_0
                       Std       0 B_CONSPOOL_D
                       nStd      0 X66_ARET
PL6.E3A0      #001=ASR$R_PROFILE File=ASR$REMOVE_PROFILE.:E05TSI                 TUE 07/29/97 10:50 Page:7

  ****  Data refs  ****

  Flags:  r = read only, s = secondary
Flgs Name                             Flgs Name                             Flgs Name
     M$UC                             r    AS_MODE                          r    AS_FE_MODE
     M$LO                                  USERS_KEY                             NODE$
     ERR_CODE                              AS_FIELD1                             REMEM_VAR
     REM_FCMD                              ASA_BRKS_LOC                          B_VECTNIL

  ****  Segment refs  ****

  Flags:  r = read only, s = secondary
Flgs Name                             Flgs Name                             Flgs Name
     ISSID
PL6.E3A0      #001=ASR$R_PROFILE File=ASR$REMOVE_PROFILE.:E05TSI                 TUE 07/29/97 10:50 Page:8


        1        1        /*M* ASR$R_PROFILE - processes the REMOVE PROFILE command.   */
        2        2        /*T***********************************************************/
        3        3        /*T*                                                         */
        4        4        /*T* Copyright (c) Bull HN Information Systems Inc., 1997    */
        5        5        /*T*                                                         */
        6        6        /*T***********************************************************/
        7        7        /*X*  DMC,DMR,CCC,PLM=0,IND=3,CTI=5,DCI=6,IAD=0,DTI=0,IDT=0,ENI=3,
        8        8              ECU=3,CSU=3,SDI=3                                           */
        9        9                                                              /**/
       10       10
       11       11        ASR$R_PROFILE: PROC ;

     11  4 000000   000000 700200 xent  ASR$R_PROFI* TSX0  ! X66_AUTO_0
         4 000001   000004 000000                    ZERO    4,0

       12       12
       13       13        %SUB LISTSUB = '1'B ;
       14       14
       15       15        /*********************************************************************/
       16       16        /*   Include files   include files   include files   include files   */
       17       17        /*********************************************************************/
       18       18                                                              /**/
       19       19        %INCLUDE    CP_6 ;
       20     5578        %INCLUDE    B_ERRORS_C ;
       21     6705        %INCLUDE    AS_ENTRIES_M ;
       22     7755        %INCLUDE    AS_SUPER_C ;
       23     8190        %INCLUDE    AS_SUBS_C  ;
       24     9604        %INCLUDE    AS_MAC_C   ;
       25     9684        %INCLUDE    KL_SUPER_C ;
       26    12586        %INCLUDE    XU_MACRO_C ;
       27    15692        %INCLUDE    XU_FORMAT_C ;
       28    15854        %INCLUDE    AS_PERR_C ;
       29    16456        %INCLUDE    AS_SUPER_R ;
       30    19472
       31    19473        /*********************************************************************/
       32    19474        /*   Auto data       auto data       auto data       auto data       */
PL6.E3A0      #001=ASR$R_PROFILE File=ASR$REMOVE_PROFILE.:E05TSI                 TUE 07/29/97 10:50 Page:9
       33    19475        /*********************************************************************/
       34    19476                                                              /**/
       35    19477    1   DCL BLK$ PTR ;
       36    19478    1   DCL 1 GR_KEY ALIGNED STATIC,
       37    19479    1          2 CNT UBIN BYTE UNAL INIT(21),
       38    19480    1          2 TEXT CHAR(11) UNAL INIT(' '),
       39    19481    1          2 * CHAR(10) UNAL INIT(' :graphics') ;
       40    19482
       41    19483        /*********************************************************************/
       42    19484        /*   Entry dcls      entry dcls      entry dcls      entry dcls      */
       43    19485        /*********************************************************************/
       44    19486                                                              /**/
       45    19487        %ASD$DELREC_PRO ;
       46    19490        %ASD$GR_DELREC_PRO ;
       47    19493        %ASH$ERROR ;
       48    19496        %ASH$WARN ;
       49    19499        %ASH$INFO ;
       50    19502
       51    19503        /*********************************************************************/
       52    19504        /*   Local based     local based     local based     local based     */
       53    19505        /*********************************************************************/
       54    19506                                                              /**/
       55    19507            %PARSE$OUT( NAME=P$NODE, STCLASS="BASED(NODE$)",
       56    19508                        NDTYPE=TYPE, NSUBLKS=SUBNODES) ;
       57    19553              %PARSE$SYM( NAME = OUT$SYM ,
       58    19554                          STCLASS="BASED(BLK$)") ;
       59    19592
       60    19593        /*********************************************************************/
       61    19594        /*   Procedure       procedure       procedure       procedure       */
       62    19595        /*********************************************************************/
       63    19596                                                              /**/
       64    19597        /*
       65    19598            ***            Begin procedure                    ***
       66    19599        */
       67    19600    1   BLK$ = P$NODE.SUBLK$(0) -> P$NODE.SUBLK$(0) ;

  19600  4 000002   000000 470400 xsym               LDP0    NODE$
PL6.E3A0      #001=ASR$R_PROFILE File=ASR$REMOVE_PROFILE.:E05TSI                 TUE 07/29/97 10:50 Page:10
         4 000003   000003 471500                    LDP1    3,,PR0
         4 000004   100003 236100                    LDQ     3,,PR1
         4 000005   200003 756100                    STQ     BLK$,,AUTO

       68    19601    1   IF OUT$SYM.COUNT > 11

  19601  4 000006   200003 473500                    LDP3    BLK$,,AUTO
         4 000007   300004 236100                    LDQ     4,,PR3
         4 000010   777000 376003                    ANQ     -512,DU
         4 000011   014000 116003                    CMPQ    6144,DU
         4 000012   000020 602000 4                  TNC     s:19624

       69    19602    2   THEN DO ;

       70    19603        /*E*  ERROR:    ASR-E$PNAMETOOLONG-C
       71    19604              MESSAGE0: Profile name too long.
       72    19605              MESSAGE1: Profile name can be at most 11 characters long.
       73    19606        */
       74    19607           %SCREAM( ERR#=E$PNAMETOOLONG , LEVEL=ERROR, MID='R' );

  19619  4 000013   000000 630400 5                  EPPR0   0
         4 000014   000017 631400 xsym               EPPR1   B_VECTNIL+15
         4 000015   000000 701000 xent               TSX1    ASH$ERROR
         4 000016   000000 011000                    NOP     0

       75    19622    2      RETURN ;

  19622  4 000017   000000 702200 xent               TSX2  ! X66_ARET

       76    19623    2      END ; /* Then do */
       77    19624    1   USERS_KEY.COUNT = OUT$SYM.COUNT ;

  19624  4 000020   300004 236100                    LDQ     4,,PR3
         4 000021   000000 552040 xsym               STBQ    USERS_KEY,'40'O

       78    19625    1   USERS_KEY.TXTC  = OUT$SYM.TEXT ;

PL6.E3A0      #001=ASR$R_PROFILE File=ASR$REMOVE_PROFILE.:E05TSI                 TUE 07/29/97 10:50 Page:11
  19625  4 000022   300004 236100                    LDQ     4,,PR3
         4 000023   000033 772000                    QRL     27
         4 000024   000000 620006                    EAX0    0,QL
         4 000025   040000 100540                    MLR     fill='040'O
         4 000026   300004 200010                    ADSC9   4,,PR3                   cn=1,n=*X0
         4 000027   000000 200051 xsym               ADSC9   USERS_KEY                cn=1,n=41

       79    19626    1   GR_KEY.TEXT  = OUT$SYM.TEXT ;

  19626  4 000030   300004 236100                    LDQ     4,,PR3
         4 000031   000033 772000                    QRL     27
         4 000032   000000 620006                    EAX0    0,QL
         4 000033   040000 100540                    MLR     fill='040'O
         4 000034   300004 200010                    ADSC9   4,,PR3                   cn=1,n=*X0
         4 000035   000000 200013 2                  ADSC9   GR_KEY                   cn=1,n=11

       80    19627    1   AS_FIELD1 = USERS_KEY ;

  19627  4 000036   000000 100400                    MLR     fill='000'O
         4 000037   000000 000051 xsym               ADSC9   USERS_KEY                cn=0,n=41
         4 000040   000000 000051 xsym               ADSC9   AS_FIELD1                cn=0,n=41

       81    19628                                                              /* Remove profile */
       82    19629    1   CALL ASD$DELREC_PRO ALTRET( DELREC_ERR ) ;

  19629  4 000041   000002 631400 xsym               EPPR1   B_VECTNIL+2
         4 000042   000000 701000 xent               TSX1    ASD$DELREC_PRO
         4 000043   000045 702000 4                  TSX2    DELREC_ERR

       83    19630    2   IF '0'B THEN DO ;

  19630  4 000044   000063 710000 4                  TRA     s:19670

  19622  4 000045                       DELREC_ERR   null
       84    19631    2   DELREC_ERR: ;
       85    19632    2      IF MERR_CODE.CODE = %E$NOKEY

PL6.E3A0      #001=ASR$R_PROFILE File=ASR$REMOVE_PROFILE.:E05TSI                 TUE 07/29/97 10:50 Page:12
  19632  4 000045   000000 236000 xsym               LDQ     ERR_CODE
         4 000046   377770 376007                    ANQ     131064,DL
         4 000047   001020 116007                    CMPQ    528,DL
         4 000050   000056 601000 4                  TNZ     s:19655

       86    19633    3      THEN DO ;

       87    19634        /*E*  ERROR:    ASR-E$PNNOEXIST-C
       88    19635              MESSAGE0: %%U1 %does not exist.
       89    19636              MESSAGE1: Profile %%U1 %does not exist.
       90    19637        */
       91    19638              %SCREAM( ERR#=E$PNNOEXIST , LEVEL=WARN, MID='R' );

  19648  4 000051   000001 630400 5                  EPPR0   1
         4 000052   000017 631400 xsym               EPPR1   B_VECTNIL+15
         4 000053   000000 701000 xent               TSX1    ASH$WARN
         4 000054   000000 011000                    NOP     0

       92    19653    3         END ; /* Then do */

  19653  4 000055   000062 710000 4                  TRA     s:19656

       93    19654    2      ELSE
       94    19655    2         CALL ASH$ERROR( ERR_CODE, USERS_KEY ) ;

  19655  4 000056   000002 630400 5                  EPPR0   2
         4 000057   000020 631400 xsym               EPPR1   B_VECTNIL+16
         4 000060   000000 701000 xent               TSX1    ASH$ERROR
         4 000061   000000 011000                    NOP     0

       95    19656    2      RETURN ;

  19656  4 000062   000000 702200 xent               TSX2  ! X66_ARET

       96    19657    2      END ;
       97    19658                                                              /**/
       98    19659        /*E*  ERROR:    ASR-E$PROREMOVED-C
PL6.E3A0      #001=ASR$R_PROFILE File=ASR$REMOVE_PROFILE.:E05TSI                 TUE 07/29/97 10:50 Page:13
       99    19660              MESSAGE0: Profile %%U1 %removed.
      100    19661        */
      101    19662        %SCREAM( ERR#=E$PROREMOVED , LEVEL=INFO, MID='R' );

  19670  4 000063   000004 630400 5                  EPPR0   4
         4 000064   000017 631400 xsym               EPPR1   B_VECTNIL+15
         4 000065   000000 701000 xent               TSX1    ASH$INFO
         4 000066   000000 011000                    NOP     0

      102    19677
      103    19678    1   CALL ASD$GR_DELREC_PRO  ALTRET( GR_DELREC_ERR ) ;

  19678  4 000067   000002 631400 xsym               EPPR1   B_VECTNIL+2
         4 000070   000000 701000 xent               TSX1    ASD$GR_DELREC_PRO
         4 000071   000073 702000 4                  TSX2    GR_DELREC_ERR

      104    19679    2   IF '0'B THEN DO ;

  19679  4 000072   000104 710000 4                  TRA     s:19696

  19656  4 000073                       GR_DELREC_E* null
      105    19680    2   GR_DELREC_ERR: ;
      106    19681    2      IF MERR_CODE.CODE ~= %E$NOKEY

  19681  4 000073   000000 236000 xsym               LDQ     ERR_CODE
         4 000074   377770 376007                    ANQ     131064,DL
         4 000075   001020 116007                    CMPQ    528,DL
         4 000076   000103 600000 4                  TZE     s:19683

      107    19682    2      THEN CALL ASH$ERROR( ERR_CODE, GR_KEY ) ;

  19682  4 000077   000005 630400 5                  EPPR0   5
         4 000100   000020 631400 xsym               EPPR1   B_VECTNIL+16
         4 000101   000000 701000 xent               TSX1    ASH$ERROR
         4 000102   000000 011000                    NOP     0

      108    19683    2      RETURN ;
PL6.E3A0      #001=ASR$R_PROFILE File=ASR$REMOVE_PROFILE.:E05TSI                 TUE 07/29/97 10:50 Page:14

  19683  4 000103   000000 702200 xent               TSX2  ! X66_ARET

      109    19684    2      END ;
      110    19685        /*E*   ERROR:    ASR-E$GRPROREMOVED-C
      111    19686               MESSAGE0: Graphics profile %%U1 %removed.
      112    19687        */
      113    19688        %SCREAM( ERR#=E$GRPROREMOVED , LEVEL=INFO, MID='R' );

  19696  4 000104   000007 630400 5                  EPPR0   7
         4 000105   000017 631400 xsym               EPPR1   B_VECTNIL+15
         4 000106   000000 701000 xent               TSX1    ASH$INFO
         4 000107   000000 011000                    NOP     0

      114    19703                                                              /**/
      115    19704    1   RETURN ;

  19704  4 000110   000000 702200 xent               TSX2  ! X66_ARET
      116    19705                                                              /**/
      117    19706    1   END   ASR$R_PROFILE ;

PL6.E3A0      #001=ASR$R_PROFILE File=ASR$REMOVE_PROFILE.:E05TSI                 TUE 07/29/97 10:50 Page:15
--  Include file information  --

   AS_SUPER_R.:E05TOU  cannot be made into a system file and is referenced.
   AS_PERR_C.:E05TOU  is referenced.
   XU_FORMAT_C.:E05TOU  is referenced.
   XU_MACRO_C.:E05TOU  is referenced.
   KL_SUPER_C.:E05TOU  is referenced.
   AS_MAC_C.:E05TOU  cannot be made into a system file and is referenced.
   AS_SUBS_C.:E05TOU  is referenced.
   AS_SUPER_C.:E05TOU  is referenced.
   AS_ENTRIES_M.:E05TOU  is referenced.
   B_ERRORS_C.:E05TOU  is referenced.
   CP_6_C.:E05TOU  is referenced.
   CP_6.:E05TOU  cannot be made into a system file and is referenced.
      No diagnostics issued in procedure ASR$R_PROFILE.
PL6.E3A0      #001=ASR$R_PROFILE File=ASR$REMOVE_PROFILE.:E05TSI                 TUE 07/29/97 10:50 Page:16

 **** Variables and constants ****

  ****  Section 002  Data  ASR$R_PROFILE

  ****  Scalars and arrays  ****
OctLoc.c.b A Datatyp(siz) R M Lvl/name                 OctLoc.c.b A Datatyp(siz) R M Lvl/name

     0-0-0/w STRC(198)   r     1 GR_KEY

  ****  Auto variables  ****

  ****  Scalars and arrays  ****
OctLoc.c.b A Datatyp(siz) R M Lvl/name                 OctLoc.c.b A Datatyp(siz) R M Lvl/name

     3-0-0/w PTR         r     1 BLK$

  ****  SYMREF variables  ****

  ****  Scalars and arrays  ****
OctLoc.c.b A Datatyp(siz) R M Lvl/name                 OctLoc.c.b A Datatyp(siz) R M Lvl/name

     0-0-0/w STRC(369)   r     1 AS_FIELD1                  0-0-0/b STRC        r     1 ERR_CODE
     0-0-0/b STRC        r     1 MERR_CODE                  0-0-0/w PTR         r     1 NODE$
     0-0-0/c STRC(378)   r     1 USERS_KEY

  ****  BASED and DCB variables  ****

  ****  Scalars and arrays  ****
OctLoc.c.b A Datatyp(siz) R M Lvl/name                 OctLoc.c.b A Datatyp(siz) R M Lvl/name

     0-0-0/w ASTR(153)   r     1 OUT$SYM                    0-0-0/w STRC(144)   r     1 P$NODE


   Procedure ASR$R_PROFILE requires 73 words for executable code.
   Procedure ASR$R_PROFILE requires 4 words of local(AUTO) storage.
PL6.E3A0      #001=ASR$R_PROFILE File=ASR$REMOVE_PROFILE.:E05TSI                 TUE 07/29/97 10:50 Page:17

    No errors detected in file ASR$REMOVE_PROFILE.:E05TSI    .
PL6.E3A0      #001=ASR$R_PROFILE File=ASR$REMOVE_PROFILE.:E05TSI                 TUE 07/29/97 10:50 Page:18
          *** CROSS REFERENCE LISTING ***
**     DENOTES     IDENTIFIER DEFINITION
<<                 IDENTIFIER'S VALUE SET
>>                 IDENTIFIER'S VALUE USED
<>                 IDENTIFIER SET AND/OR USED
--                 IDENTIFIER REFERENCED
PL6.E3A0      #001=ASR$R_PROFILE File=ASR$REMOVE_PROFILE.:E05TSI                 TUE 07/29/97 10:50 Page:19
          MINI XREF LISTING

ASA_BRKS_LOC
     16620**DCL     16620--REDEF
ASD$DELREC_PRO
     19488**DCL-ENT 19629--CALL
ASD$GR_DELREC_PRO
     19491**DCL-ENT 19678--CALL
ASH$ERROR
     19494**DCL-ENT 19619--CALL    19655--CALL    19682--CALL
ASH$INFO
     19500**DCL-ENT 19670--CALL    19696--CALL
ASH$WARN
     19497**DCL-ENT 19648--CALL
AS_DEFAULT.BANNER_PERM
     17313**DCL     17314--REDEF
AS_DEFAULT.BUDGET.MACCT
     17218**DCL     17222--REDEF
AS_DEFAULT.BUDGET.MAX_PROJECTS
     17231**DCL     17234--REDEF
AS_DEFAULT.BUDGET.PACCUM
     17214**DCL     17216--REDEF
AS_DEFAULT.BUDGET.PMAXC
     17209**DCL     17211--REDEF
AS_DEFAULT.SETUP_CHRA.TXT
     17329**DCL     17330--REDEF   17331--REDEF
AS_DEFAULT_DREC.PASSWORD
     18583**DCL     18587--REDEF
AS_DEFAULT_DREC.RENAME
     18606**DCL     18607--REDEF
AS_DFLT.BANNER_PERM
     17135**DCL     17136--REDEF
AS_DFLT.BUDGET.MACCT
     17040**DCL     17044--REDEF
PL6.E3A0      #001=ASR$R_PROFILE File=ASR$REMOVE_PROFILE.:E05TSI                 TUE 07/29/97 10:50 Page:20
AS_DFLT.BUDGET.MAX_PROJECTS
     17053**DCL     17056--REDEF
AS_DFLT.BUDGET.PACCUM
     17036**DCL     17038--REDEF
AS_DFLT.BUDGET.PMAXC
     17031**DCL     17033--REDEF
AS_DFLT.SETUP_CHRA.TXT
     17151**DCL     17152--REDEF   17153--REDEF
AS_FE_MODE
     16486**DCL     16487--REDEF
AS_FIELD1
     16616**DCL     19627<<ASSIGN
AS_MODE
     16483**DCL     16485--REDEF
AS_MOD_USER.ACCESS
     19348**DCL     19349--REDEF
AS_MOD_USER.BANNER
     19335**DCL     19336--REDEF
AS_MOD_USER.BANNER_PERM
     19337**DCL     19338--REDEF
AS_MOD_USER.BILL
     19343**DCL     19344--REDEF
AS_MOD_USER.CPROC
     19339**DCL     19340--REDEF
AS_MOD_USER.FEBILL
     19419**DCL     19420--REDEF
AS_MOD_USER.FECXTMEM
     19436**DCL     19437--REDEF
AS_MOD_USER.FEMINTS
     19421**DCL     19422--REDEF
AS_MOD_USER.FEMMEM
     19432**DCL     19433--REDEF
AS_MOD_USER.FEMTIME
     19430**DCL     19431--REDEF
AS_MOD_USER.FEPPRIV
     19427**DCL     19429--REDEF
PL6.E3A0      #001=ASR$R_PROFILE File=ASR$REMOVE_PROFILE.:E05TSI                 TUE 07/29/97 10:50 Page:21
AS_MOD_USER.FEPRIV
     19424**DCL     19426--REDEF
AS_MOD_USER.FORCE_BIT
     19333**DCL     19334--REDEF
AS_MOD_USER.KEY
     19415**DCL     19417--REDEF
AS_MOD_USER.LASTCPROC
     19341**DCL     19342--REDEF
AS_MOD_USER.LIMITS.DO_
     19389**DCL     19390--REDEF
AS_MOD_USER.LIMITS.FPOOLS
     19405**DCL     19406--REDEF
AS_MOD_USER.LIMITS.LO
     19385**DCL     19386--REDEF
AS_MOD_USER.LIMITS.MEM
     19381**DCL     19382--REDEF
AS_MOD_USER.LIMITS.MPRIO
     19409**DCL     19410--REDEF
AS_MOD_USER.LIMITS.PDIS
     19397**DCL     19398--REDEF
AS_MOD_USER.LIMITS.PO
     19393**DCL     19394--REDEF
AS_MOD_USER.LIMITS.TDIS
     19401**DCL     19402--REDEF
AS_MOD_USER.LIMITS.TIME
     19377**DCL     19378--REDEF
AS_MOD_USER.MAXENQ
     19358**DCL     19359--REDEF
AS_MOD_USER.PERM_BIT
     19331**DCL     19332--REDEF
AS_MOD_USER.PPRIV
     19353**DCL     19355--REDEF
AS_MOD_USER.PRIOB
     19360**DCL     19361--REDEF
AS_MOD_USER.PRIV
     19350**DCL     19352--REDEF
PL6.E3A0      #001=ASR$R_PROFILE File=ASR$REMOVE_PROFILE.:E05TSI                 TUE 07/29/97 10:50 Page:22
AS_MOD_USER.QUAN
     19356**DCL     19357--REDEF
AS_MOD_USER.SETUP
     19329**DCL     19330--REDEF
AS_PROJECT.BANNER_PERM
     17669**DCL     17670--REDEF
AS_PROJECT.BUDGET.MACCT
     17574**DCL     17578--REDEF
AS_PROJECT.BUDGET.MAX_PROJECTS
     17587**DCL     17590--REDEF
AS_PROJECT.BUDGET.PACCUM
     17570**DCL     17572--REDEF
AS_PROJECT.BUDGET.PMAXC
     17565**DCL     17567--REDEF
AS_PROJECT.SETUP_CHRA.TXT
     17685**DCL     17686--REDEF   17687--REDEF
AS_PROJECT_DFLT.BANNER_PERM
     17847**DCL     17848--REDEF
AS_PROJECT_DFLT.BUDGET.MACCT
     17752**DCL     17756--REDEF
AS_PROJECT_DFLT.BUDGET.MAX_PROJECTS
     17765**DCL     17768--REDEF
AS_PROJECT_DFLT.BUDGET.PACCUM
     17748**DCL     17750--REDEF
AS_PROJECT_DFLT.BUDGET.PMAXC
     17743**DCL     17745--REDEF
AS_PROJECT_DFLT.SETUP_CHRA.TXT
     17863**DCL     17864--REDEF   17865--REDEF
AS_PROJECT_DFLT_DREC.PASSWORD
     19069**DCL     19073--REDEF
AS_PROJECT_DFLT_DREC.RENAME
     19092**DCL     19093--REDEF
AS_PROJECT_DREC.PASSWORD
     18907**DCL     18911--REDEF
AS_PROJECT_DREC.RENAME
     18930**DCL     18931--REDEF
PL6.E3A0      #001=ASR$R_PROFILE File=ASR$REMOVE_PROFILE.:E05TSI                 TUE 07/29/97 10:50 Page:23
AS_PROJ_ADMIN.BANNER_PERM
     17491**DCL     17492--REDEF
AS_PROJ_ADMIN.BUDGET.MACCT
     17396**DCL     17400--REDEF
AS_PROJ_ADMIN.BUDGET.MAX_PROJECTS
     17409**DCL     17412--REDEF
AS_PROJ_ADMIN.BUDGET.PACCUM
     17392**DCL     17394--REDEF
AS_PROJ_ADMIN.BUDGET.PMAXC
     17387**DCL     17389--REDEF
AS_PROJ_ADMIN.SETUP_CHRA.TXT
     17507**DCL     17508--REDEF   17509--REDEF
AS_PROJ_ADMIN_DREC.PASSWORD
     18745**DCL     18749--REDEF
AS_PROJ_ADMIN_DREC.RENAME
     18768**DCL     18769--REDEF
AS_USERS.BANNER_PERM
     16957**DCL     16958--REDEF
AS_USERS.BUDGET.MACCT
     16862**DCL     16866--REDEF
AS_USERS.BUDGET.MAX_PROJECTS
     16875**DCL     16878--REDEF
AS_USERS.BUDGET.PACCUM
     16858**DCL     16860--REDEF
AS_USERS.BUDGET.PMAXC
     16853**DCL     16855--REDEF
AS_USERS.SETUP_CHRA.TXT
     16973**DCL     16974--REDEF   16975--REDEF
AS_USERS_CONSTANT.BANNER_PERM
     18025**DCL     18026--REDEF
AS_USERS_CONSTANT.BUDGET.MACCT
     17930**DCL     17934--REDEF
AS_USERS_CONSTANT.BUDGET.MAX_PROJECTS
     17943**DCL     17946--REDEF
AS_USERS_CONSTANT.BUDGET.PACCUM
     17926**DCL     17928--REDEF
PL6.E3A0      #001=ASR$R_PROFILE File=ASR$REMOVE_PROFILE.:E05TSI                 TUE 07/29/97 10:50 Page:24
AS_USERS_CONSTANT.BUDGET.PMAXC
     17921**DCL     17923--REDEF
AS_USERS_CONSTANT.SETUP_CHRA.TXT
     18041**DCL     18042--REDEF   18043--REDEF
BLK$
     19477**DCL     19561--IMP-PTR 19600<<ASSIGN  19601>>IF      19624>>ASSIGN  19625>>ASSIGN  19625>>ASSIGN
     19626>>ASSIGN  19626>>ASSIGN
DELREC_ERR
     19622**LABEL   19629--CALLALT
ERR_CODE
     16615**DCL     16616--REDEF   19655<>CALL    19682<>CALL
GR_DELREC_ERR
     19656**LABEL   19678--CALLALT
GR_KEY
     19478**DCL     19682<>CALL
GR_KEY.TEXT
     19480**DCL     19626<<ASSIGN
KL_DEFAULT.PASSWORD
     19231**DCL     19235--REDEF
KL_DEFAULT.RENAME
     19254**DCL     19255--REDEF
KL_DFLT.PASSWORD
     18421**DCL     18425--REDEF
KL_DFLT.RENAME
     18444**DCL     18445--REDEF
KL_DREC.PASSWORD
     18259**DCL     18263--REDEF
KL_DREC.RENAME
     18282**DCL     18283--REDEF
KL_DREC_CNT.PASSWORD
     18146**DCL     18150--REDEF
KL_DREC_CNT.RENAME
     18169**DCL     18170--REDEF
MERR_CODE.CODE
     16616**DCL     19632>>IF      19681>>IF
NODE$
PL6.E3A0      #001=ASR$R_PROFILE File=ASR$REMOVE_PROFILE.:E05TSI                 TUE 07/29/97 10:50 Page:25
     16613**DCL     19514--IMP-PTR 19600>>ASSIGN
OUT$SYM.COUNT
     19584**DCL     19587--IMP-SIZ 19601>>IF      19624>>ASSIGN  19625>>ASSIGN  19626>>ASSIGN
OUT$SYM.TEXT
     19587**DCL     19625>>ASSIGN  19626>>ASSIGN
P$NODE.SUBLK$
     19547**DCL     19600>>ASSIGN  19600>>ASSIGN
PROJ_KEY.TEXT
     16493**DCL     16493--REDEF
PROJ_KEY.TXT.PROJECT
     16493**DCL     16493--REDEF
REMEM_VAR
     16619**DCL     16619--REDEF
REM_FCMD
     16619**DCL     16620--REDEF
USERS_KEY
     16490**DCL     19627>>ASSIGN  19655<>CALL
USERS_KEY.COUNT
     16490**DCL     19624<<ASSIGN
USERS_KEY.TEXT
     16490**DCL     16491--REDEF   16491--REDEF   16491--REDEF   16492--REDEF
USERS_KEY.TXTC
     16491**DCL     19625<<ASSIGN
